{"contracts/BaseCertificate.sol":{"BaseCertificate":{"abi":[{"inputs":[{"internalType":"string","name":"","type":"string"}],"name":"certDetailsById","outputs":[{"internalType":"enum EnumsLibrary.StatusCertificate","name":"status","type":"uint8"},{"internalType":"uint256","name":"timestampRequest","type":"uint256"},{"internalType":"uint256","name":"timestampApprove","type":"uint256"},{"internalType":"uint256","name":"timestampRejected","type":"uint256"},{"internalType":"uint256","name":"timestsmpRenewRequest","type":"uint256"},{"components":[{"internalType":"string","name":"userName","type":"string"},{"internalType":"string","name":"userInstance","type":"string"},{"internalType":"address","name":"userAddr","type":"address"}],"internalType":"struct BaseCertificate.st_userCertificate","name":"sender","type":"tuple"},{"components":[{"internalType":"string","name":"userName","type":"string"},{"internalType":"string","name":"userInstance","type":"string"},{"internalType":"address","name":"userAddr","type":"address"}],"internalType":"struct BaseCertificate.st_userCertificate","name":"bpom","type":"tuple"},{"internalType":"string","name":"ipfsCert","type":"string"}],"stateMutability":"view","type":"function"},{"inputs":[{"components":[{"internalType":"string","name":"userName","type":"string"},{"internalType":"string","name":"userInstance","type":"string"},{"internalType":"address","name":"userAddr","type":"address"}],"internalType":"struct BaseCertificate.st_userCertificate","name":"_sender","type":"tuple"},{"components":[{"internalType":"string","name":"userName","type":"string"},{"internalType":"string","name":"userInstance","type":"string"},{"internalType":"address","name":"userAddr","type":"address"}],"internalType":"struct BaseCertificate.st_userCertificate","name":"_bpom","type":"tuple"},{"internalType":"string","name":"_certId","type":"string"}],"name":"createCertificateDetails","outputs":[],"stateMutability":"nonpayable","type":"function"},{"inputs":[{"internalType":"string","name":"_userName","type":"string"},{"internalType":"address","name":"_userAddr","type":"address"},{"internalType":"string","name":"_userInstance","type":"string"}],"name":"createUserCertificate","outputs":[{"components":[{"internalType":"string","name":"userName","type":"string"},{"internalType":"string","name":"userInstance","type":"string"},{"internalType":"address","name":"userAddr","type":"address"}],"internalType":"struct BaseCertificate.st_userCertificate","name":"","type":"tuple"}],"stateMutability":"pure","type":"function"},{"inputs":[{"internalType":"string","name":"_certId","type":"string"}],"name":"getCertDetail","outputs":[{"components":[{"internalType":"enum EnumsLibrary.StatusCertificate","name":"status","type":"uint8"},{"internalType":"uint256","name":"timestampRequest","type":"uint256"},{"internalType":"uint256","name":"timestampApprove","type":"uint256"},{"internalType":"uint256","name":"timestampRejected","type":"uint256"},{"internalType":"uint256","name":"timestsmpRenewRequest","type":"uint256"},{"components":[{"internalType":"string","name":"userName","type":"string"},{"internalType":"string","name":"userInstance","type":"string"},{"internalType":"address","name":"userAddr","type":"address"}],"internalType":"struct BaseCertificate.st_userCertificate","name":"sender","type":"tuple"},{"components":[{"internalType":"string","name":"userName","type":"string"},{"internalType":"string","name":"userInstance","type":"string"},{"internalType":"address","name":"userAddr","type":"address"}],"internalType":"struct BaseCertificate.st_userCertificate","name":"bpom","type":"tuple"},{"internalType":"string","name":"ipfsCert","type":"string"}],"internalType":"struct BaseCertificate.st_certificateDetails","name":"","type":"tuple"}],"stateMutability":"view","type":"function"},{"inputs":[{"internalType":"string","name":"_certId","type":"string"}],"name":"getRejectMsg","outputs":[{"internalType":"string","name":"","type":"string"}],"stateMutability":"view","type":"function"},{"inputs":[{"internalType":"string","name":"_certId","type":"string"}],"name":"getSenderDetail","outputs":[{"components":[{"internalType":"string","name":"userName","type":"string"},{"internalType":"string","name":"userInstance","type":"string"},{"internalType":"address","name":"userAddr","type":"address"}],"internalType":"struct BaseCertificate.st_userCertificate","name":"","type":"tuple"}],"stateMutability":"view","type":"function"},{"inputs":[{"internalType":"string","name":"","type":"string"}],"name":"rejectMsgbyId","outputs":[{"internalType":"string","name":"","type":"string"}],"stateMutability":"view","type":"function"},{"inputs":[{"internalType":"string","name":"_certId","type":"string"},{"internalType":"string","name":"_ipfsCert","type":"string"},{"components":[{"internalType":"string","name":"userName","type":"string"},{"internalType":"string","name":"userInstance","type":"string"},{"internalType":"address","name":"userAddr","type":"address"}],"internalType":"struct BaseCertificate.st_userCertificate","name":"_bpom","type":"tuple"}],"name":"updateBpomApproveDetails","outputs":[],"stateMutability":"nonpayable","type":"function"},{"inputs":[{"internalType":"string","name":"_certId","type":"string"},{"internalType":"string","name":"_rejectMsg","type":"string"},{"components":[{"internalType":"string","name":"userName","type":"string"},{"internalType":"string","name":"userInstance","type":"string"},{"internalType":"address","name":"userAddr","type":"address"}],"internalType":"struct BaseCertificate.st_userCertificate","name":"_bpom","type":"tuple"}],"name":"updateBpomRejectDetails","outputs":[],"stateMutability":"nonpayable","type":"function"},{"inputs":[{"internalType":"string","name":"_certId","type":"string"}],"name":"updateRenewDetails","outputs":[],"stateMutability":"nonpayable","type":"function"}],"evm":{"bytecode":{"linkReferences":{},"object":"60808060405234601557611646908161001a8239f35b5f80fdfe60806040526004361015610011575f80fd5b5f3560e01c806310159dfe1461119c57806317e683091461126557806319859c87146112065780636d1aa7d51461119c5780639aaa5d8b1461100e578063a71ed23a14610f27578063d533a3dd14610e84578063e9c260d714610aec578063f5104ff1146107635763fb5fb9a314610087575f80fd5b3461075f57606036600319011261075f576004356001600160401b03811161075f576100b790369060040161150d565b6024356001600160401b03811161075f576100d690369060040161150d565b6044356001600160401b03811161075f576100f5903690600401611332565b604051610101816112da565b5f81526020810193428552604082015f8152606083015f815260808401915f835260a0850193845260c08501968752602097888060405198610143828b611311565b5f8a5260e08901998a52604051928184925191829101835e81015f8152030190209551600481101561074b5760ff801988541691161786555160018601555160028501555160038401555160048301556005820190519081518051906001600160401b03821161044f5781906101b98454611387565b601f81116106fd575b508890601f831160011461069a575f9261068f575b50508160011b915f199060031b1c19161790555b60068201858201518051906001600160401b03821161044f5781906102108454611387565b601f8111610641575b508890601f83116001146105de575f926105d3575b50508160011b915f199060031b1c19161790555b604001516007820180546001600160a01b0319166001600160a01b039290921691909117905591518051805191939160088301916001600160401b03821161044f5781906102908454611387565b601f8111610585575b508790601f8311600114610522575f92610517575b50508160011b915f199060031b1c19161790555b600981019284810151938451946001600160401b03861161044f576102e78254611387565b601f81116104d4575b508690601f871160011461046e57958091600b96975f92610463575b50508160011b915f199060031b1c19161790555b60400151600a820180546001600160a01b0319166001600160a01b03929092169190911790559151805190939190920191906001600160401b03821161044f5761036a8354611387565b601f811161040c575b5080601f83116001146103ad57508192935f926103a2575b50505f19600383901b1c191660019190911b179055005b015190505f8061038b565b90601f19831694845f52825f20925f905b8782106103f45750508360019596106103dc575b505050811b019055005b01515f1960f88460031b161c191690555f80806103d2565b806001859682949686015181550195019301906103be565b835f52815f20601f840160051c810191838510610445575b601f0160051c01905b81811061043a5750610373565b5f815560010161042d565b9091508190610424565b634e487b7160e01b5f52604160045260245ffd5b015190505f8061030c565b90601f19871691835f52885f20925f5b8a8282106104be575050916001939189600b999a94106104a6575b505050811b019055610320565b01515f1960f88460031b161c191690555f8080610499565b600185968293968601518155019501930161047e565b825f52875f20601f880160051c81019189891061050d575b601f0160051c01905b81811061050257506102f0565b5f81556001016104f5565b90915081906104ec565b015190505f806102ae565b5f8581528981209350601f198516905b8a82821061056f575050908460019594939210610557575b505050811b0190556102c2565b01515f1960f88460031b161c191690555f808061054a565b6001859682939686015181550195019301610532565b909150835f52875f20601f840160051c8101918985106105c9575b90601f859493920160051c01905b8181106105bb5750610299565b5f81558493506001016105ae565b90915081906105a0565b015190505f8061022e565b5f8581528a81209350601f198516905b8b82821061062b575050908460019594939210610613575b505050811b019055610242565b01515f1960f88460031b161c191690555f8080610606565b60018596829396860151815501950193016105ee565b909150835f52885f20601f840160051c8101918a8510610685575b90601f859493920160051c01905b8181106106775750610219565b5f815584935060010161066a565b909150819061065c565b015190505f806101d7565b5f8581528a81209350601f198516905b8b8282106106e75750509084600195949392106106cf575b505050811b0190556101eb565b01515f1960f88460031b161c191690555f80806106c2565b60018596829396860151815501950193016106aa565b909150835f52885f20601f840160051c8101918a8510610741575b90601f859493920160051c01905b81811061073357506101c2565b5f8155849350600101610726565b9091508190610718565b634e487b7160e01b5f52602160045260245ffd5b5f80fd5b3461075f5760208061077436611585565b9391604093919351928184925191829101835e81015f81520301902091805160088401908051906001600160401b03821161044f576107b38354611387565b601f8111610aa7575b50602090601f8311600114610a40576020949392915f9183610a35575b50508160011b915f199060031b1c19161790555b6040810151600a850180546001600160a01b0319166001600160a01b03929092169190911790550151805190929060098201906001600160401b03811161044f576108388254611387565b601f81116109f0575b506020601f821160011461098b578190600b95965f92610980575b50508160011b915f199060031b1c19161790555b426002820155600160ff198254161781550181516001600160401b03811161044f5761089c8254611387565b601f811161093b575b50602092601f82116001146108e057928192935f926108d55750505f19600383901b1c191660019190911b179055005b01519050838061038b565b601f19821693835f52805f20915f5b868110610923575083600195961061090b57505050811b019055005b01515f1960f88460031b161c191690558380806103d2565b919260206001819286850151815501940192016108ef565b825f5260205f20601f830160051c81019160208410610976575b601f0160051c01905b81811061096b57506108a5565b5f815560010161095e565b9091508190610955565b01519050868061085c565b601f19821695835f52815f20965f5b8181106109d8575091600b9697918460019594106109c0575b505050811b019055610870565b01515f1960f88460031b161c191690558680806109b3565b8383015189556001909801976020938401930161099a565b825f5260205f20601f830160051c81019160208410610a2b575b601f0160051c01905b818110610a205750610841565b5f8155600101610a13565b9091508190610a0a565b0151905087806107d9565b90601f19831691845f52815f20925f5b818110610a8f575091600193918560209897969410610a77575b505050811b0190556107ed565b01515f1960f88460031b161c19169055878080610a6a565b92936020600181928786015181550195019301610a50565b835f5260205f20601f840160051c81019160208510610ae2575b601f0160051c01905b818110610ad757506107bc565b5f8155600101610aca565b9091508190610ac1565b3461075f57610afa36611585565b909160405160208251918181818601948086835e81015f81520301902092604051928391518091835e8101600181520301902083516001600160401b03811161044f57610b478254611387565b601f8111610e3f575b50602094601f8211600114610dde579481929394955f92610dd3575b50508160011b915f199060031b1c19161790555b8151916008820183516001600160401b03811161044f57610ba18254611387565b601f8111610d8e575b506020601f8211600114610d29578190602095965f92610d1e575b50508160011b915f199060031b1c19161790555b6040810151600a840180546001600160a01b0319166001600160a01b03929092169190911790550151805190919060098201906001600160401b03811161044f57610c248254611387565b601f8111610cd9575b506020601f8211600114610c7857819293945f92610c6d575b50508160011b915f199060031b1c19161790555b426003820155805460ff19166002179055005b015190508480610c46565b601f19821690835f52805f20915f5b818110610cc157509583600195969710610ca9575b505050811b019055610c5a565b01515f1960f88460031b161c19169055848080610c9c565b9192602060018192868b015181550194019201610c87565b825f5260205f20601f830160051c81019160208410610d14575b601f0160051c01905b818110610d095750610c2d565b5f8155600101610cfc565b9091508190610cf3565b015190508680610bc5565b601f19821695835f52815f20965f5b818110610d765750916020969791846001959410610d5e575b505050811b019055610bd9565b01515f1960f88460031b161c19169055868080610d51565b83830151895560019098019760209384019301610d38565b825f5260205f20601f830160051c81019160208410610dc9575b601f0160051c01905b818110610dbe5750610baa565b5f8155600101610db1565b9091508190610da8565b015190508580610b6c565b601f19821695835f52805f20915f5b888110610e2757508360019596979810610e0f575b505050811b019055610b80565b01515f1960f88460031b161c19169055858080610e02565b91926020600181928685015181550194019201610ded565b825f5260205f20601f830160051c81019160208410610e7a575b601f0160051c01905b818110610e6f5750610b50565b5f8155600101610e62565b9091508190610e59565b3461075f57606036600319011261075f576004356001600160401b03811161075f57610eb4903690600401611332565b6024356001600160a01b038116919082900361075f57604435916001600160401b03831161075f57610eed610f23933690600401611332565b610ef56115f0565b5060405192610f03846112f6565b835260208301526040820152604051918291602083526020830190611483565b0390f35b3461075f57602036600319011261075f576004356001600160401b03811161075f57602080610f5d610fcb933690600401611332565b604051928184925191829101835e81015f815203019020610f2360ff82541691611000600182015491610ff260028201546003830154600484015490610fa5600586016114ce565b92610fbe600b610fb7600889016114ce565b97016113bf565b976040519b8c809c6114c1565b60208b015260408a01526060890152608088015261010060a0880152610100870190611483565b9085820360c0870152611483565b9083820360e085015261145f565b3461075f57602036600319011261075f576004356001600160401b03811161075f57602061104181923690600401611332565b606060e0604051611051816112da565b5f81525f858201525f60408201525f838201525f60808201526110726115f0565b60a082015261107f6115f0565b60c08201520152604051928184925191829101835e81015f8152030190206040516110a9816112da565b60ff825416600481101561074b5761114992610f239183526111886001820154916020850192835261117560028201546040870190815260038301546060880190815260048401549060808901918252611105600586016114ce565b9260a08a0193845261112c600b61111e600889016114ce565b9760c08d01988952016113bf565b9760e08b019889526040519b8c9b60208d5260208d0190516114c1565b5160408b01525160608a01525160808901525160a08801525161010060c0880152610120870190611483565b9051858203601f190160e0870152611483565b9051838203601f190161010085015261145f565b3461075f57602036600319011261075f576004356001600160401b03811161075f576111f26020806111d5610f23943690600401611332565b604051928184925191829101835e810160018152030190206113bf565b60405191829160208352602083019061145f565b3461075f57602036600319011261075f576004356001600160401b03811161075f57602061123981923690600401611332565b604051928184925191829101835e5f90820190815203019020426004820155805460ff19166003179055005b3461075f57602036600319011261075f576004356001600160401b03811161075f576112c660056020806112a0610f23953690600401611332565b6112a86115f0565b50604051928184925191829101835e81015f815203019020016114ce565b604051918291602083526020830190611483565b61010081019081106001600160401b0382111761044f57604052565b606081019081106001600160401b0382111761044f57604052565b90601f801991011681019081106001600160401b0382111761044f57604052565b81601f8201121561075f578035906001600160401b03821161044f5760405192611366601f8401601f191660200185611311565b8284526020838301011161075f57815f926020809301838601378301015290565b90600182811c921680156113b5575b60208310146113a157565b634e487b7160e01b5f52602260045260245ffd5b91607f1691611396565b9060405191825f8254926113d284611387565b808452936001811690811561143d57506001146113f9575b506113f792500383611311565b565b90505f9291925260205f20905f915b8183106114215750509060206113f7928201015f6113ea565b6020919350806001915483858901015201910190918492611408565b9050602092506113f794915060ff191682840152151560051b8201015f6113ea565b805180835260209291819084018484015e5f828201840152601f01601f1916010190565b9060406114ae61149c845160608552606085019061145f565b6020850151848203602086015261145f565b928101516001600160a01b031691015290565b90600482101561074b5752565b906040516114db816112f6565b604081936114e8816113bf565b83526114f6600182016113bf565b6020840152600201546001600160a01b0316910152565b919060608382031261075f5760405190611526826112f6565b819380356001600160401b03811161075f5782611544918301611332565b835260208101356001600160401b03811161075f57604092611567918301611332565b60208401520135906001600160a01b038216820361075f5760400152565b606060031982011261075f576004356001600160401b03811161075f57816115af91600401611332565b916024356001600160401b03811161075f57826115ce91600401611332565b91604435906001600160401b03821161075f576115ed9160040161150d565b90565b604051906115fd826112f6565b5f6040836060815260606020820152015256fea26469706673582212200ecc78fd3f51c7386941e0986b751973f2a8b7e83f7b5ab24a9805105c06bda864736f6c634300081b0033","opcodes":"PUSH1 0x80 DUP1 PUSH1 0x40 MSTORE CALLVALUE PUSH1 0x15 JUMPI PUSH2 0x1646 SWAP1 DUP2 PUSH2 0x1A DUP3 CODECOPY RETURN JUMPDEST PUSH0 DUP1 REVERT INVALID PUSH1 0x80 PUSH1 0x40 MSTORE PUSH1 0x4 CALLDATASIZE LT ISZERO PUSH2 0x11 JUMPI PUSH0 DUP1 REVERT JUMPDEST PUSH0 CALLDATALOAD PUSH1 0xE0 SHR DUP1 PUSH4 0x10159DFE EQ PUSH2 0x119C JUMPI DUP1 PUSH4 0x17E68309 EQ PUSH2 0x1265 JUMPI DUP1 PUSH4 0x19859C87 EQ PUSH2 0x1206 JUMPI DUP1 PUSH4 0x6D1AA7D5 EQ PUSH2 0x119C JUMPI DUP1 PUSH4 0x9AAA5D8B EQ PUSH2 0x100E JUMPI DUP1 PUSH4 0xA71ED23A EQ PUSH2 0xF27 JUMPI DUP1 PUSH4 0xD533A3DD EQ PUSH2 0xE84 JUMPI DUP1 PUSH4 0xE9C260D7 EQ PUSH2 0xAEC JUMPI DUP1 PUSH4 0xF5104FF1 EQ PUSH2 0x763 JUMPI PUSH4 0xFB5FB9A3 EQ PUSH2 0x87 JUMPI PUSH0 DUP1 REVERT JUMPDEST CALLVALUE PUSH2 0x75F JUMPI PUSH1 0x60 CALLDATASIZE PUSH1 0x3 NOT ADD SLT PUSH2 0x75F JUMPI PUSH1 0x4 CALLDATALOAD PUSH1 0x1 PUSH1 0x1 PUSH1 0x40 SHL SUB DUP2 GT PUSH2 0x75F JUMPI PUSH2 0xB7 SWAP1 CALLDATASIZE SWAP1 PUSH1 0x4 ADD PUSH2 0x150D JUMP JUMPDEST PUSH1 0x24 CALLDATALOAD PUSH1 0x1 PUSH1 0x1 PUSH1 0x40 SHL SUB DUP2 GT PUSH2 0x75F JUMPI PUSH2 0xD6 SWAP1 CALLDATASIZE SWAP1 PUSH1 0x4 ADD PUSH2 0x150D JUMP JUMPDEST PUSH1 0x44 CALLDATALOAD PUSH1 0x1 PUSH1 0x1 PUSH1 0x40 SHL SUB DUP2 GT PUSH2 0x75F JUMPI PUSH2 0xF5 SWAP1 CALLDATASIZE SWAP1 PUSH1 0x4 ADD PUSH2 0x1332 JUMP JUMPDEST PUSH1 0x40 MLOAD PUSH2 0x101 DUP2 PUSH2 0x12DA JUMP JUMPDEST PUSH0 DUP2 MSTORE PUSH1 0x20 DUP2 ADD SWAP4 TIMESTAMP DUP6 MSTORE PUSH1 0x40 DUP3 ADD PUSH0 DUP2 MSTORE PUSH1 0x60 DUP4 ADD PUSH0 DUP2 MSTORE PUSH1 0x80 DUP5 ADD SWAP2 PUSH0 DUP4 MSTORE PUSH1 0xA0 DUP6 ADD SWAP4 DUP5 MSTORE PUSH1 0xC0 DUP6 ADD SWAP7 DUP8 MSTORE PUSH1 0x20 SWAP8 DUP9 DUP1 PUSH1 0x40 MLOAD SWAP9 PUSH2 0x143 DUP3 DUP12 PUSH2 0x1311 JUMP JUMPDEST PUSH0 DUP11 MSTORE PUSH1 0xE0 DUP10 ADD SWAP10 DUP11 MSTORE PUSH1 0x40 MLOAD SWAP3 DUP2 DUP5 SWAP3 MLOAD SWAP2 DUP3 SWAP2 ADD DUP4 MCOPY DUP2 ADD PUSH0 DUP2 MSTORE SUB ADD SWAP1 KECCAK256 SWAP6 MLOAD PUSH1 0x4 DUP2 LT ISZERO PUSH2 0x74B JUMPI PUSH1 0xFF DUP1 NOT DUP9 SLOAD AND SWAP2 AND OR DUP7 SSTORE MLOAD PUSH1 0x1 DUP7 ADD SSTORE MLOAD PUSH1 0x2 DUP6 ADD SSTORE MLOAD PUSH1 0x3 DUP5 ADD SSTORE MLOAD PUSH1 0x4 DUP4 ADD SSTORE PUSH1 0x5 DUP3 ADD SWAP1 MLOAD SWAP1 DUP2 MLOAD DUP1 MLOAD SWAP1 PUSH1 0x1 PUSH1 0x1 PUSH1 0x40 SHL SUB DUP3 GT PUSH2 0x44F JUMPI DUP2 SWAP1 PUSH2 0x1B9 DUP5 SLOAD PUSH2 0x1387 JUMP JUMPDEST PUSH1 0x1F DUP2 GT PUSH2 0x6FD JUMPI JUMPDEST POP DUP9 SWAP1 PUSH1 0x1F DUP4 GT PUSH1 0x1 EQ PUSH2 0x69A JUMPI PUSH0 SWAP3 PUSH2 0x68F JUMPI JUMPDEST POP POP DUP2 PUSH1 0x1 SHL SWAP2 PUSH0 NOT SWAP1 PUSH1 0x3 SHL SHR NOT AND OR SWAP1 SSTORE JUMPDEST PUSH1 0x6 DUP3 ADD DUP6 DUP3 ADD MLOAD DUP1 MLOAD SWAP1 PUSH1 0x1 PUSH1 0x1 PUSH1 0x40 SHL SUB DUP3 GT PUSH2 0x44F JUMPI DUP2 SWAP1 PUSH2 0x210 DUP5 SLOAD PUSH2 0x1387 JUMP JUMPDEST PUSH1 0x1F DUP2 GT PUSH2 0x641 JUMPI JUMPDEST POP DUP9 SWAP1 PUSH1 0x1F DUP4 GT PUSH1 0x1 EQ PUSH2 0x5DE JUMPI PUSH0 SWAP3 PUSH2 0x5D3 JUMPI JUMPDEST POP POP DUP2 PUSH1 0x1 SHL SWAP2 PUSH0 NOT SWAP1 PUSH1 0x3 SHL SHR NOT AND OR SWAP1 SSTORE JUMPDEST PUSH1 0x40 ADD MLOAD PUSH1 0x7 DUP3 ADD DUP1 SLOAD PUSH1 0x1 PUSH1 0x1 PUSH1 0xA0 SHL SUB NOT AND PUSH1 0x1 PUSH1 0x1 PUSH1 0xA0 SHL SUB SWAP3 SWAP1 SWAP3 AND SWAP2 SWAP1 SWAP2 OR SWAP1 SSTORE SWAP2 MLOAD DUP1 MLOAD DUP1 MLOAD SWAP2 SWAP4 SWAP2 PUSH1 0x8 DUP4 ADD SWAP2 PUSH1 0x1 PUSH1 0x1 PUSH1 0x40 SHL SUB DUP3 GT PUSH2 0x44F JUMPI DUP2 SWAP1 PUSH2 0x290 DUP5 SLOAD PUSH2 0x1387 JUMP JUMPDEST PUSH1 0x1F DUP2 GT PUSH2 0x585 JUMPI JUMPDEST POP DUP8 SWAP1 PUSH1 0x1F DUP4 GT PUSH1 0x1 EQ PUSH2 0x522 JUMPI PUSH0 SWAP3 PUSH2 0x517 JUMPI JUMPDEST POP POP DUP2 PUSH1 0x1 SHL SWAP2 PUSH0 NOT SWAP1 PUSH1 0x3 SHL SHR NOT AND OR SWAP1 SSTORE JUMPDEST PUSH1 0x9 DUP2 ADD SWAP3 DUP5 DUP2 ADD MLOAD SWAP4 DUP5 MLOAD SWAP5 PUSH1 0x1 PUSH1 0x1 PUSH1 0x40 SHL SUB DUP7 GT PUSH2 0x44F JUMPI PUSH2 0x2E7 DUP3 SLOAD PUSH2 0x1387 JUMP JUMPDEST PUSH1 0x1F DUP2 GT PUSH2 0x4D4 JUMPI JUMPDEST POP DUP7 SWAP1 PUSH1 0x1F DUP8 GT PUSH1 0x1 EQ PUSH2 0x46E JUMPI SWAP6 DUP1 SWAP2 PUSH1 0xB SWAP7 SWAP8 PUSH0 SWAP3 PUSH2 0x463 JUMPI JUMPDEST POP POP DUP2 PUSH1 0x1 SHL SWAP2 PUSH0 NOT SWAP1 PUSH1 0x3 SHL SHR NOT AND OR SWAP1 SSTORE JUMPDEST PUSH1 0x40 ADD MLOAD PUSH1 0xA DUP3 ADD DUP1 SLOAD PUSH1 0x1 PUSH1 0x1 PUSH1 0xA0 SHL SUB NOT AND PUSH1 0x1 PUSH1 0x1 PUSH1 0xA0 SHL SUB SWAP3 SWAP1 SWAP3 AND SWAP2 SWAP1 SWAP2 OR SWAP1 SSTORE SWAP2 MLOAD DUP1 MLOAD SWAP1 SWAP4 SWAP2 SWAP1 SWAP3 ADD SWAP2 SWAP1 PUSH1 0x1 PUSH1 0x1 PUSH1 0x40 SHL SUB DUP3 GT PUSH2 0x44F JUMPI PUSH2 0x36A DUP4 SLOAD PUSH2 0x1387 JUMP JUMPDEST PUSH1 0x1F DUP2 GT PUSH2 0x40C JUMPI JUMPDEST POP DUP1 PUSH1 0x1F DUP4 GT PUSH1 0x1 EQ PUSH2 0x3AD JUMPI POP DUP2 SWAP3 SWAP4 PUSH0 SWAP3 PUSH2 0x3A2 JUMPI JUMPDEST POP POP PUSH0 NOT PUSH1 0x3 DUP4 SWAP1 SHL SHR NOT AND PUSH1 0x1 SWAP2 SWAP1 SWAP2 SHL OR SWAP1 SSTORE STOP JUMPDEST ADD MLOAD SWAP1 POP PUSH0 DUP1 PUSH2 0x38B JUMP JUMPDEST SWAP1 PUSH1 0x1F NOT DUP4 AND SWAP5 DUP5 PUSH0 MSTORE DUP3 PUSH0 KECCAK256 SWAP3 PUSH0 SWAP1 JUMPDEST DUP8 DUP3 LT PUSH2 0x3F4 JUMPI POP POP DUP4 PUSH1 0x1 SWAP6 SWAP7 LT PUSH2 0x3DC JUMPI JUMPDEST POP POP POP DUP2 SHL ADD SWAP1 SSTORE STOP JUMPDEST ADD MLOAD PUSH0 NOT PUSH1 0xF8 DUP5 PUSH1 0x3 SHL AND SHR NOT AND SWAP1 SSTORE PUSH0 DUP1 DUP1 PUSH2 0x3D2 JUMP JUMPDEST DUP1 PUSH1 0x1 DUP6 SWAP7 DUP3 SWAP5 SWAP7 DUP7 ADD MLOAD DUP2 SSTORE ADD SWAP6 ADD SWAP4 ADD SWAP1 PUSH2 0x3BE JUMP JUMPDEST DUP4 PUSH0 MSTORE DUP2 PUSH0 KECCAK256 PUSH1 0x1F DUP5 ADD PUSH1 0x5 SHR DUP2 ADD SWAP2 DUP4 DUP6 LT PUSH2 0x445 JUMPI JUMPDEST PUSH1 0x1F ADD PUSH1 0x5 SHR ADD SWAP1 JUMPDEST DUP2 DUP2 LT PUSH2 0x43A JUMPI POP PUSH2 0x373 JUMP JUMPDEST PUSH0 DUP2 SSTORE PUSH1 0x1 ADD PUSH2 0x42D JUMP JUMPDEST SWAP1 SWAP2 POP DUP2 SWAP1 PUSH2 0x424 JUMP JUMPDEST PUSH4 0x4E487B71 PUSH1 0xE0 SHL PUSH0 MSTORE PUSH1 0x41 PUSH1 0x4 MSTORE PUSH1 0x24 PUSH0 REVERT JUMPDEST ADD MLOAD SWAP1 POP PUSH0 DUP1 PUSH2 0x30C JUMP JUMPDEST SWAP1 PUSH1 0x1F NOT DUP8 AND SWAP2 DUP4 PUSH0 MSTORE DUP9 PUSH0 KECCAK256 SWAP3 PUSH0 JUMPDEST DUP11 DUP3 DUP3 LT PUSH2 0x4BE JUMPI POP POP SWAP2 PUSH1 0x1 SWAP4 SWAP2 DUP10 PUSH1 0xB SWAP10 SWAP11 SWAP5 LT PUSH2 0x4A6 JUMPI JUMPDEST POP POP POP DUP2 SHL ADD SWAP1 SSTORE PUSH2 0x320 JUMP JUMPDEST ADD MLOAD PUSH0 NOT PUSH1 0xF8 DUP5 PUSH1 0x3 SHL AND SHR NOT AND SWAP1 SSTORE PUSH0 DUP1 DUP1 PUSH2 0x499 JUMP JUMPDEST PUSH1 0x1 DUP6 SWAP7 DUP3 SWAP4 SWAP7 DUP7 ADD MLOAD DUP2 SSTORE ADD SWAP6 ADD SWAP4 ADD PUSH2 0x47E JUMP JUMPDEST DUP3 PUSH0 MSTORE DUP8 PUSH0 KECCAK256 PUSH1 0x1F DUP9 ADD PUSH1 0x5 SHR DUP2 ADD SWAP2 DUP10 DUP10 LT PUSH2 0x50D JUMPI JUMPDEST PUSH1 0x1F ADD PUSH1 0x5 SHR ADD SWAP1 JUMPDEST DUP2 DUP2 LT PUSH2 0x502 JUMPI POP PUSH2 0x2F0 JUMP JUMPDEST PUSH0 DUP2 SSTORE PUSH1 0x1 ADD PUSH2 0x4F5 JUMP JUMPDEST SWAP1 SWAP2 POP DUP2 SWAP1 PUSH2 0x4EC JUMP JUMPDEST ADD MLOAD SWAP1 POP PUSH0 DUP1 PUSH2 0x2AE JUMP JUMPDEST PUSH0 DUP6 DUP2 MSTORE DUP10 DUP2 KECCAK256 SWAP4 POP PUSH1 0x1F NOT DUP6 AND SWAP1 JUMPDEST DUP11 DUP3 DUP3 LT PUSH2 0x56F JUMPI POP POP SWAP1 DUP5 PUSH1 0x1 SWAP6 SWAP5 SWAP4 SWAP3 LT PUSH2 0x557 JUMPI JUMPDEST POP POP POP DUP2 SHL ADD SWAP1 SSTORE PUSH2 0x2C2 JUMP JUMPDEST ADD MLOAD PUSH0 NOT PUSH1 0xF8 DUP5 PUSH1 0x3 SHL AND SHR NOT AND SWAP1 SSTORE PUSH0 DUP1 DUP1 PUSH2 0x54A JUMP JUMPDEST PUSH1 0x1 DUP6 SWAP7 DUP3 SWAP4 SWAP7 DUP7 ADD MLOAD DUP2 SSTORE ADD SWAP6 ADD SWAP4 ADD PUSH2 0x532 JUMP JUMPDEST SWAP1 SWAP2 POP DUP4 PUSH0 MSTORE DUP8 PUSH0 KECCAK256 PUSH1 0x1F DUP5 ADD PUSH1 0x5 SHR DUP2 ADD SWAP2 DUP10 DUP6 LT PUSH2 0x5C9 JUMPI JUMPDEST SWAP1 PUSH1 0x1F DUP6 SWAP5 SWAP4 SWAP3 ADD PUSH1 0x5 SHR ADD SWAP1 JUMPDEST DUP2 DUP2 LT PUSH2 0x5BB JUMPI POP PUSH2 0x299 JUMP JUMPDEST PUSH0 DUP2 SSTORE DUP5 SWAP4 POP PUSH1 0x1 ADD PUSH2 0x5AE JUMP JUMPDEST SWAP1 SWAP2 POP DUP2 SWAP1 PUSH2 0x5A0 JUMP JUMPDEST ADD MLOAD SWAP1 POP PUSH0 DUP1 PUSH2 0x22E JUMP JUMPDEST PUSH0 DUP6 DUP2 MSTORE DUP11 DUP2 KECCAK256 SWAP4 POP PUSH1 0x1F NOT DUP6 AND SWAP1 JUMPDEST DUP12 DUP3 DUP3 LT PUSH2 0x62B JUMPI POP POP SWAP1 DUP5 PUSH1 0x1 SWAP6 SWAP5 SWAP4 SWAP3 LT PUSH2 0x613 JUMPI JUMPDEST POP POP POP DUP2 SHL ADD SWAP1 SSTORE PUSH2 0x242 JUMP JUMPDEST ADD MLOAD PUSH0 NOT PUSH1 0xF8 DUP5 PUSH1 0x3 SHL AND SHR NOT AND SWAP1 SSTORE PUSH0 DUP1 DUP1 PUSH2 0x606 JUMP JUMPDEST PUSH1 0x1 DUP6 SWAP7 DUP3 SWAP4 SWAP7 DUP7 ADD MLOAD DUP2 SSTORE ADD SWAP6 ADD SWAP4 ADD PUSH2 0x5EE JUMP JUMPDEST SWAP1 SWAP2 POP DUP4 PUSH0 MSTORE DUP9 PUSH0 KECCAK256 PUSH1 0x1F DUP5 ADD PUSH1 0x5 SHR DUP2 ADD SWAP2 DUP11 DUP6 LT PUSH2 0x685 JUMPI JUMPDEST SWAP1 PUSH1 0x1F DUP6 SWAP5 SWAP4 SWAP3 ADD PUSH1 0x5 SHR ADD SWAP1 JUMPDEST DUP2 DUP2 LT PUSH2 0x677 JUMPI POP PUSH2 0x219 JUMP JUMPDEST PUSH0 DUP2 SSTORE DUP5 SWAP4 POP PUSH1 0x1 ADD PUSH2 0x66A JUMP JUMPDEST SWAP1 SWAP2 POP DUP2 SWAP1 PUSH2 0x65C JUMP JUMPDEST ADD MLOAD SWAP1 POP PUSH0 DUP1 PUSH2 0x1D7 JUMP JUMPDEST PUSH0 DUP6 DUP2 MSTORE DUP11 DUP2 KECCAK256 SWAP4 POP PUSH1 0x1F NOT DUP6 AND SWAP1 JUMPDEST DUP12 DUP3 DUP3 LT PUSH2 0x6E7 JUMPI POP POP SWAP1 DUP5 PUSH1 0x1 SWAP6 SWAP5 SWAP4 SWAP3 LT PUSH2 0x6CF JUMPI JUMPDEST POP POP POP DUP2 SHL ADD SWAP1 SSTORE PUSH2 0x1EB JUMP JUMPDEST ADD MLOAD PUSH0 NOT PUSH1 0xF8 DUP5 PUSH1 0x3 SHL AND SHR NOT AND SWAP1 SSTORE PUSH0 DUP1 DUP1 PUSH2 0x6C2 JUMP JUMPDEST PUSH1 0x1 DUP6 SWAP7 DUP3 SWAP4 SWAP7 DUP7 ADD MLOAD DUP2 SSTORE ADD SWAP6 ADD SWAP4 ADD PUSH2 0x6AA JUMP JUMPDEST SWAP1 SWAP2 POP DUP4 PUSH0 MSTORE DUP9 PUSH0 KECCAK256 PUSH1 0x1F DUP5 ADD PUSH1 0x5 SHR DUP2 ADD SWAP2 DUP11 DUP6 LT PUSH2 0x741 JUMPI JUMPDEST SWAP1 PUSH1 0x1F DUP6 SWAP5 SWAP4 SWAP3 ADD PUSH1 0x5 SHR ADD SWAP1 JUMPDEST DUP2 DUP2 LT PUSH2 0x733 JUMPI POP PUSH2 0x1C2 JUMP JUMPDEST PUSH0 DUP2 SSTORE DUP5 SWAP4 POP PUSH1 0x1 ADD PUSH2 0x726 JUMP JUMPDEST SWAP1 SWAP2 POP DUP2 SWAP1 PUSH2 0x718 JUMP JUMPDEST PUSH4 0x4E487B71 PUSH1 0xE0 SHL PUSH0 MSTORE PUSH1 0x21 PUSH1 0x4 MSTORE PUSH1 0x24 PUSH0 REVERT JUMPDEST PUSH0 DUP1 REVERT JUMPDEST CALLVALUE PUSH2 0x75F JUMPI PUSH1 0x20 DUP1 PUSH2 0x774 CALLDATASIZE PUSH2 0x1585 JUMP JUMPDEST SWAP4 SWAP2 PUSH1 0x40 SWAP4 SWAP2 SWAP4 MLOAD SWAP3 DUP2 DUP5 SWAP3 MLOAD SWAP2 DUP3 SWAP2 ADD DUP4 MCOPY DUP2 ADD PUSH0 DUP2 MSTORE SUB ADD SWAP1 KECCAK256 SWAP2 DUP1 MLOAD PUSH1 0x8 DUP5 ADD SWAP1 DUP1 MLOAD SWAP1 PUSH1 0x1 PUSH1 0x1 PUSH1 0x40 SHL SUB DUP3 GT PUSH2 0x44F JUMPI PUSH2 0x7B3 DUP4 SLOAD PUSH2 0x1387 JUMP JUMPDEST PUSH1 0x1F DUP2 GT PUSH2 0xAA7 JUMPI JUMPDEST POP PUSH1 0x20 SWAP1 PUSH1 0x1F DUP4 GT PUSH1 0x1 EQ PUSH2 0xA40 JUMPI PUSH1 0x20 SWAP5 SWAP4 SWAP3 SWAP2 PUSH0 SWAP2 DUP4 PUSH2 0xA35 JUMPI JUMPDEST POP POP DUP2 PUSH1 0x1 SHL SWAP2 PUSH0 NOT SWAP1 PUSH1 0x3 SHL SHR NOT AND OR SWAP1 SSTORE JUMPDEST PUSH1 0x40 DUP2 ADD MLOAD PUSH1 0xA DUP6 ADD DUP1 SLOAD PUSH1 0x1 PUSH1 0x1 PUSH1 0xA0 SHL SUB NOT AND PUSH1 0x1 PUSH1 0x1 PUSH1 0xA0 SHL SUB SWAP3 SWAP1 SWAP3 AND SWAP2 SWAP1 SWAP2 OR SWAP1 SSTORE ADD MLOAD DUP1 MLOAD SWAP1 SWAP3 SWAP1 PUSH1 0x9 DUP3 ADD SWAP1 PUSH1 0x1 PUSH1 0x1 PUSH1 0x40 SHL SUB DUP2 GT PUSH2 0x44F JUMPI PUSH2 0x838 DUP3 SLOAD PUSH2 0x1387 JUMP JUMPDEST PUSH1 0x1F DUP2 GT PUSH2 0x9F0 JUMPI JUMPDEST POP PUSH1 0x20 PUSH1 0x1F DUP3 GT PUSH1 0x1 EQ PUSH2 0x98B JUMPI DUP2 SWAP1 PUSH1 0xB SWAP6 SWAP7 PUSH0 SWAP3 PUSH2 0x980 JUMPI JUMPDEST POP POP DUP2 PUSH1 0x1 SHL SWAP2 PUSH0 NOT SWAP1 PUSH1 0x3 SHL SHR NOT AND OR SWAP1 SSTORE JUMPDEST TIMESTAMP PUSH1 0x2 DUP3 ADD SSTORE PUSH1 0x1 PUSH1 0xFF NOT DUP3 SLOAD AND OR DUP2 SSTORE ADD DUP2 MLOAD PUSH1 0x1 PUSH1 0x1 PUSH1 0x40 SHL SUB DUP2 GT PUSH2 0x44F JUMPI PUSH2 0x89C DUP3 SLOAD PUSH2 0x1387 JUMP JUMPDEST PUSH1 0x1F DUP2 GT PUSH2 0x93B JUMPI JUMPDEST POP PUSH1 0x20 SWAP3 PUSH1 0x1F DUP3 GT PUSH1 0x1 EQ PUSH2 0x8E0 JUMPI SWAP3 DUP2 SWAP3 SWAP4 PUSH0 SWAP3 PUSH2 0x8D5 JUMPI POP POP PUSH0 NOT PUSH1 0x3 DUP4 SWAP1 SHL SHR NOT AND PUSH1 0x1 SWAP2 SWAP1 SWAP2 SHL OR SWAP1 SSTORE STOP JUMPDEST ADD MLOAD SWAP1 POP DUP4 DUP1 PUSH2 0x38B JUMP JUMPDEST PUSH1 0x1F NOT DUP3 AND SWAP4 DUP4 PUSH0 MSTORE DUP1 PUSH0 KECCAK256 SWAP2 PUSH0 JUMPDEST DUP7 DUP2 LT PUSH2 0x923 JUMPI POP DUP4 PUSH1 0x1 SWAP6 SWAP7 LT PUSH2 0x90B JUMPI POP POP POP DUP2 SHL ADD SWAP1 SSTORE STOP JUMPDEST ADD MLOAD PUSH0 NOT PUSH1 0xF8 DUP5 PUSH1 0x3 SHL AND SHR NOT AND SWAP1 SSTORE DUP4 DUP1 DUP1 PUSH2 0x3D2 JUMP JUMPDEST SWAP2 SWAP3 PUSH1 0x20 PUSH1 0x1 DUP2 SWAP3 DUP7 DUP6 ADD MLOAD DUP2 SSTORE ADD SWAP5 ADD SWAP3 ADD PUSH2 0x8EF JUMP JUMPDEST DUP3 PUSH0 MSTORE PUSH1 0x20 PUSH0 KECCAK256 PUSH1 0x1F DUP4 ADD PUSH1 0x5 SHR DUP2 ADD SWAP2 PUSH1 0x20 DUP5 LT PUSH2 0x976 JUMPI JUMPDEST PUSH1 0x1F ADD PUSH1 0x5 SHR ADD SWAP1 JUMPDEST DUP2 DUP2 LT PUSH2 0x96B JUMPI POP PUSH2 0x8A5 JUMP JUMPDEST PUSH0 DUP2 SSTORE PUSH1 0x1 ADD PUSH2 0x95E JUMP JUMPDEST SWAP1 SWAP2 POP DUP2 SWAP1 PUSH2 0x955 JUMP JUMPDEST ADD MLOAD SWAP1 POP DUP7 DUP1 PUSH2 0x85C JUMP JUMPDEST PUSH1 0x1F NOT DUP3 AND SWAP6 DUP4 PUSH0 MSTORE DUP2 PUSH0 KECCAK256 SWAP7 PUSH0 JUMPDEST DUP2 DUP2 LT PUSH2 0x9D8 JUMPI POP SWAP2 PUSH1 0xB SWAP7 SWAP8 SWAP2 DUP5 PUSH1 0x1 SWAP6 SWAP5 LT PUSH2 0x9C0 JUMPI JUMPDEST POP POP POP DUP2 SHL ADD SWAP1 SSTORE PUSH2 0x870 JUMP JUMPDEST ADD MLOAD PUSH0 NOT PUSH1 0xF8 DUP5 PUSH1 0x3 SHL AND SHR NOT AND SWAP1 SSTORE DUP7 DUP1 DUP1 PUSH2 0x9B3 JUMP JUMPDEST DUP4 DUP4 ADD MLOAD DUP10 SSTORE PUSH1 0x1 SWAP1 SWAP9 ADD SWAP8 PUSH1 0x20 SWAP4 DUP5 ADD SWAP4 ADD PUSH2 0x99A JUMP JUMPDEST DUP3 PUSH0 MSTORE PUSH1 0x20 PUSH0 KECCAK256 PUSH1 0x1F DUP4 ADD PUSH1 0x5 SHR DUP2 ADD SWAP2 PUSH1 0x20 DUP5 LT PUSH2 0xA2B JUMPI JUMPDEST PUSH1 0x1F ADD PUSH1 0x5 SHR ADD SWAP1 JUMPDEST DUP2 DUP2 LT PUSH2 0xA20 JUMPI POP PUSH2 0x841 JUMP JUMPDEST PUSH0 DUP2 SSTORE PUSH1 0x1 ADD PUSH2 0xA13 JUMP JUMPDEST SWAP1 SWAP2 POP DUP2 SWAP1 PUSH2 0xA0A JUMP JUMPDEST ADD MLOAD SWAP1 POP DUP8 DUP1 PUSH2 0x7D9 JUMP JUMPDEST SWAP1 PUSH1 0x1F NOT DUP4 AND SWAP2 DUP5 PUSH0 MSTORE DUP2 PUSH0 KECCAK256 SWAP3 PUSH0 JUMPDEST DUP2 DUP2 LT PUSH2 0xA8F JUMPI POP SWAP2 PUSH1 0x1 SWAP4 SWAP2 DUP6 PUSH1 0x20 SWAP9 SWAP8 SWAP7 SWAP5 LT PUSH2 0xA77 JUMPI JUMPDEST POP POP POP DUP2 SHL ADD SWAP1 SSTORE PUSH2 0x7ED JUMP JUMPDEST ADD MLOAD PUSH0 NOT PUSH1 0xF8 DUP5 PUSH1 0x3 SHL AND SHR NOT AND SWAP1 SSTORE DUP8 DUP1 DUP1 PUSH2 0xA6A JUMP JUMPDEST SWAP3 SWAP4 PUSH1 0x20 PUSH1 0x1 DUP2 SWAP3 DUP8 DUP7 ADD MLOAD DUP2 SSTORE ADD SWAP6 ADD SWAP4 ADD PUSH2 0xA50 JUMP JUMPDEST DUP4 PUSH0 MSTORE PUSH1 0x20 PUSH0 KECCAK256 PUSH1 0x1F DUP5 ADD PUSH1 0x5 SHR DUP2 ADD SWAP2 PUSH1 0x20 DUP6 LT PUSH2 0xAE2 JUMPI JUMPDEST PUSH1 0x1F ADD PUSH1 0x5 SHR ADD SWAP1 JUMPDEST DUP2 DUP2 LT PUSH2 0xAD7 JUMPI POP PUSH2 0x7BC JUMP JUMPDEST PUSH0 DUP2 SSTORE PUSH1 0x1 ADD PUSH2 0xACA JUMP JUMPDEST SWAP1 SWAP2 POP DUP2 SWAP1 PUSH2 0xAC1 JUMP JUMPDEST CALLVALUE PUSH2 0x75F JUMPI PUSH2 0xAFA CALLDATASIZE PUSH2 0x1585 JUMP JUMPDEST SWAP1 SWAP2 PUSH1 0x40 MLOAD PUSH1 0x20 DUP3 MLOAD SWAP2 DUP2 DUP2 DUP2 DUP7 ADD SWAP5 DUP1 DUP7 DUP4 MCOPY DUP2 ADD PUSH0 DUP2 MSTORE SUB ADD SWAP1 KECCAK256 SWAP3 PUSH1 0x40 MLOAD SWAP3 DUP4 SWAP2 MLOAD DUP1 SWAP2 DUP4 MCOPY DUP2 ADD PUSH1 0x1 DUP2 MSTORE SUB ADD SWAP1 KECCAK256 DUP4 MLOAD PUSH1 0x1 PUSH1 0x1 PUSH1 0x40 SHL SUB DUP2 GT PUSH2 0x44F JUMPI PUSH2 0xB47 DUP3 SLOAD PUSH2 0x1387 JUMP JUMPDEST PUSH1 0x1F DUP2 GT PUSH2 0xE3F JUMPI JUMPDEST POP PUSH1 0x20 SWAP5 PUSH1 0x1F DUP3 GT PUSH1 0x1 EQ PUSH2 0xDDE JUMPI SWAP5 DUP2 SWAP3 SWAP4 SWAP5 SWAP6 PUSH0 SWAP3 PUSH2 0xDD3 JUMPI JUMPDEST POP POP DUP2 PUSH1 0x1 SHL SWAP2 PUSH0 NOT SWAP1 PUSH1 0x3 SHL SHR NOT AND OR SWAP1 SSTORE JUMPDEST DUP2 MLOAD SWAP2 PUSH1 0x8 DUP3 ADD DUP4 MLOAD PUSH1 0x1 PUSH1 0x1 PUSH1 0x40 SHL SUB DUP2 GT PUSH2 0x44F JUMPI PUSH2 0xBA1 DUP3 SLOAD PUSH2 0x1387 JUMP JUMPDEST PUSH1 0x1F DUP2 GT PUSH2 0xD8E JUMPI JUMPDEST POP PUSH1 0x20 PUSH1 0x1F DUP3 GT PUSH1 0x1 EQ PUSH2 0xD29 JUMPI DUP2 SWAP1 PUSH1 0x20 SWAP6 SWAP7 PUSH0 SWAP3 PUSH2 0xD1E JUMPI JUMPDEST POP POP DUP2 PUSH1 0x1 SHL SWAP2 PUSH0 NOT SWAP1 PUSH1 0x3 SHL SHR NOT AND OR SWAP1 SSTORE JUMPDEST PUSH1 0x40 DUP2 ADD MLOAD PUSH1 0xA DUP5 ADD DUP1 SLOAD PUSH1 0x1 PUSH1 0x1 PUSH1 0xA0 SHL SUB NOT AND PUSH1 0x1 PUSH1 0x1 PUSH1 0xA0 SHL SUB SWAP3 SWAP1 SWAP3 AND SWAP2 SWAP1 SWAP2 OR SWAP1 SSTORE ADD MLOAD DUP1 MLOAD SWAP1 SWAP2 SWAP1 PUSH1 0x9 DUP3 ADD SWAP1 PUSH1 0x1 PUSH1 0x1 PUSH1 0x40 SHL SUB DUP2 GT PUSH2 0x44F JUMPI PUSH2 0xC24 DUP3 SLOAD PUSH2 0x1387 JUMP JUMPDEST PUSH1 0x1F DUP2 GT PUSH2 0xCD9 JUMPI JUMPDEST POP PUSH1 0x20 PUSH1 0x1F DUP3 GT PUSH1 0x1 EQ PUSH2 0xC78 JUMPI DUP2 SWAP3 SWAP4 SWAP5 PUSH0 SWAP3 PUSH2 0xC6D JUMPI JUMPDEST POP POP DUP2 PUSH1 0x1 SHL SWAP2 PUSH0 NOT SWAP1 PUSH1 0x3 SHL SHR NOT AND OR SWAP1 SSTORE JUMPDEST TIMESTAMP PUSH1 0x3 DUP3 ADD SSTORE DUP1 SLOAD PUSH1 0xFF NOT AND PUSH1 0x2 OR SWAP1 SSTORE STOP JUMPDEST ADD MLOAD SWAP1 POP DUP5 DUP1 PUSH2 0xC46 JUMP JUMPDEST PUSH1 0x1F NOT DUP3 AND SWAP1 DUP4 PUSH0 MSTORE DUP1 PUSH0 KECCAK256 SWAP2 PUSH0 JUMPDEST DUP2 DUP2 LT PUSH2 0xCC1 JUMPI POP SWAP6 DUP4 PUSH1 0x1 SWAP6 SWAP7 SWAP8 LT PUSH2 0xCA9 JUMPI JUMPDEST POP POP POP DUP2 SHL ADD SWAP1 SSTORE PUSH2 0xC5A JUMP JUMPDEST ADD MLOAD PUSH0 NOT PUSH1 0xF8 DUP5 PUSH1 0x3 SHL AND SHR NOT AND SWAP1 SSTORE DUP5 DUP1 DUP1 PUSH2 0xC9C JUMP JUMPDEST SWAP2 SWAP3 PUSH1 0x20 PUSH1 0x1 DUP2 SWAP3 DUP7 DUP12 ADD MLOAD DUP2 SSTORE ADD SWAP5 ADD SWAP3 ADD PUSH2 0xC87 JUMP JUMPDEST DUP3 PUSH0 MSTORE PUSH1 0x20 PUSH0 KECCAK256 PUSH1 0x1F DUP4 ADD PUSH1 0x5 SHR DUP2 ADD SWAP2 PUSH1 0x20 DUP5 LT PUSH2 0xD14 JUMPI JUMPDEST PUSH1 0x1F ADD PUSH1 0x5 SHR ADD SWAP1 JUMPDEST DUP2 DUP2 LT PUSH2 0xD09 JUMPI POP PUSH2 0xC2D JUMP JUMPDEST PUSH0 DUP2 SSTORE PUSH1 0x1 ADD PUSH2 0xCFC JUMP JUMPDEST SWAP1 SWAP2 POP DUP2 SWAP1 PUSH2 0xCF3 JUMP JUMPDEST ADD MLOAD SWAP1 POP DUP7 DUP1 PUSH2 0xBC5 JUMP JUMPDEST PUSH1 0x1F NOT DUP3 AND SWAP6 DUP4 PUSH0 MSTORE DUP2 PUSH0 KECCAK256 SWAP7 PUSH0 JUMPDEST DUP2 DUP2 LT PUSH2 0xD76 JUMPI POP SWAP2 PUSH1 0x20 SWAP7 SWAP8 SWAP2 DUP5 PUSH1 0x1 SWAP6 SWAP5 LT PUSH2 0xD5E JUMPI JUMPDEST POP POP POP DUP2 SHL ADD SWAP1 SSTORE PUSH2 0xBD9 JUMP JUMPDEST ADD MLOAD PUSH0 NOT PUSH1 0xF8 DUP5 PUSH1 0x3 SHL AND SHR NOT AND SWAP1 SSTORE DUP7 DUP1 DUP1 PUSH2 0xD51 JUMP JUMPDEST DUP4 DUP4 ADD MLOAD DUP10 SSTORE PUSH1 0x1 SWAP1 SWAP9 ADD SWAP8 PUSH1 0x20 SWAP4 DUP5 ADD SWAP4 ADD PUSH2 0xD38 JUMP JUMPDEST DUP3 PUSH0 MSTORE PUSH1 0x20 PUSH0 KECCAK256 PUSH1 0x1F DUP4 ADD PUSH1 0x5 SHR DUP2 ADD SWAP2 PUSH1 0x20 DUP5 LT PUSH2 0xDC9 JUMPI JUMPDEST PUSH1 0x1F ADD PUSH1 0x5 SHR ADD SWAP1 JUMPDEST DUP2 DUP2 LT PUSH2 0xDBE JUMPI POP PUSH2 0xBAA JUMP JUMPDEST PUSH0 DUP2 SSTORE PUSH1 0x1 ADD PUSH2 0xDB1 JUMP JUMPDEST SWAP1 SWAP2 POP DUP2 SWAP1 PUSH2 0xDA8 JUMP JUMPDEST ADD MLOAD SWAP1 POP DUP6 DUP1 PUSH2 0xB6C JUMP JUMPDEST PUSH1 0x1F NOT DUP3 AND SWAP6 DUP4 PUSH0 MSTORE DUP1 PUSH0 KECCAK256 SWAP2 PUSH0 JUMPDEST DUP9 DUP2 LT PUSH2 0xE27 JUMPI POP DUP4 PUSH1 0x1 SWAP6 SWAP7 SWAP8 SWAP9 LT PUSH2 0xE0F JUMPI JUMPDEST POP POP POP DUP2 SHL ADD SWAP1 SSTORE PUSH2 0xB80 JUMP JUMPDEST ADD MLOAD PUSH0 NOT PUSH1 0xF8 DUP5 PUSH1 0x3 SHL AND SHR NOT AND SWAP1 SSTORE DUP6 DUP1 DUP1 PUSH2 0xE02 JUMP JUMPDEST SWAP2 SWAP3 PUSH1 0x20 PUSH1 0x1 DUP2 SWAP3 DUP7 DUP6 ADD MLOAD DUP2 SSTORE ADD SWAP5 ADD SWAP3 ADD PUSH2 0xDED JUMP JUMPDEST DUP3 PUSH0 MSTORE PUSH1 0x20 PUSH0 KECCAK256 PUSH1 0x1F DUP4 ADD PUSH1 0x5 SHR DUP2 ADD SWAP2 PUSH1 0x20 DUP5 LT PUSH2 0xE7A JUMPI JUMPDEST PUSH1 0x1F ADD PUSH1 0x5 SHR ADD SWAP1 JUMPDEST DUP2 DUP2 LT PUSH2 0xE6F JUMPI POP PUSH2 0xB50 JUMP JUMPDEST PUSH0 DUP2 SSTORE PUSH1 0x1 ADD PUSH2 0xE62 JUMP JUMPDEST SWAP1 SWAP2 POP DUP2 SWAP1 PUSH2 0xE59 JUMP JUMPDEST CALLVALUE PUSH2 0x75F JUMPI PUSH1 0x60 CALLDATASIZE PUSH1 0x3 NOT ADD SLT PUSH2 0x75F JUMPI PUSH1 0x4 CALLDATALOAD PUSH1 0x1 PUSH1 0x1 PUSH1 0x40 SHL SUB DUP2 GT PUSH2 0x75F JUMPI PUSH2 0xEB4 SWAP1 CALLDATASIZE SWAP1 PUSH1 0x4 ADD PUSH2 0x1332 JUMP JUMPDEST PUSH1 0x24 CALLDATALOAD PUSH1 0x1 PUSH1 0x1 PUSH1 0xA0 SHL SUB DUP2 AND SWAP2 SWAP1 DUP3 SWAP1 SUB PUSH2 0x75F JUMPI PUSH1 0x44 CALLDATALOAD SWAP2 PUSH1 0x1 PUSH1 0x1 PUSH1 0x40 SHL SUB DUP4 GT PUSH2 0x75F JUMPI PUSH2 0xEED PUSH2 0xF23 SWAP4 CALLDATASIZE SWAP1 PUSH1 0x4 ADD PUSH2 0x1332 JUMP JUMPDEST PUSH2 0xEF5 PUSH2 0x15F0 JUMP JUMPDEST POP PUSH1 0x40 MLOAD SWAP3 PUSH2 0xF03 DUP5 PUSH2 0x12F6 JUMP JUMPDEST DUP4 MSTORE PUSH1 0x20 DUP4 ADD MSTORE PUSH1 0x40 DUP3 ADD MSTORE PUSH1 0x40 MLOAD SWAP2 DUP3 SWAP2 PUSH1 0x20 DUP4 MSTORE PUSH1 0x20 DUP4 ADD SWAP1 PUSH2 0x1483 JUMP JUMPDEST SUB SWAP1 RETURN JUMPDEST CALLVALUE PUSH2 0x75F JUMPI PUSH1 0x20 CALLDATASIZE PUSH1 0x3 NOT ADD SLT PUSH2 0x75F JUMPI PUSH1 0x4 CALLDATALOAD PUSH1 0x1 PUSH1 0x1 PUSH1 0x40 SHL SUB DUP2 GT PUSH2 0x75F JUMPI PUSH1 0x20 DUP1 PUSH2 0xF5D PUSH2 0xFCB SWAP4 CALLDATASIZE SWAP1 PUSH1 0x4 ADD PUSH2 0x1332 JUMP JUMPDEST PUSH1 0x40 MLOAD SWAP3 DUP2 DUP5 SWAP3 MLOAD SWAP2 DUP3 SWAP2 ADD DUP4 MCOPY DUP2 ADD PUSH0 DUP2 MSTORE SUB ADD SWAP1 KECCAK256 PUSH2 0xF23 PUSH1 0xFF DUP3 SLOAD AND SWAP2 PUSH2 0x1000 PUSH1 0x1 DUP3 ADD SLOAD SWAP2 PUSH2 0xFF2 PUSH1 0x2 DUP3 ADD SLOAD PUSH1 0x3 DUP4 ADD SLOAD PUSH1 0x4 DUP5 ADD SLOAD SWAP1 PUSH2 0xFA5 PUSH1 0x5 DUP7 ADD PUSH2 0x14CE JUMP JUMPDEST SWAP3 PUSH2 0xFBE PUSH1 0xB PUSH2 0xFB7 PUSH1 0x8 DUP10 ADD PUSH2 0x14CE JUMP JUMPDEST SWAP8 ADD PUSH2 0x13BF JUMP JUMPDEST SWAP8 PUSH1 0x40 MLOAD SWAP12 DUP13 DUP1 SWAP13 PUSH2 0x14C1 JUMP JUMPDEST PUSH1 0x20 DUP12 ADD MSTORE PUSH1 0x40 DUP11 ADD MSTORE PUSH1 0x60 DUP10 ADD MSTORE PUSH1 0x80 DUP9 ADD MSTORE PUSH2 0x100 PUSH1 0xA0 DUP9 ADD MSTORE PUSH2 0x100 DUP8 ADD SWAP1 PUSH2 0x1483 JUMP JUMPDEST SWAP1 DUP6 DUP3 SUB PUSH1 0xC0 DUP8 ADD MSTORE PUSH2 0x1483 JUMP JUMPDEST SWAP1 DUP4 DUP3 SUB PUSH1 0xE0 DUP6 ADD MSTORE PUSH2 0x145F JUMP JUMPDEST CALLVALUE PUSH2 0x75F JUMPI PUSH1 0x20 CALLDATASIZE PUSH1 0x3 NOT ADD SLT PUSH2 0x75F JUMPI PUSH1 0x4 CALLDATALOAD PUSH1 0x1 PUSH1 0x1 PUSH1 0x40 SHL SUB DUP2 GT PUSH2 0x75F JUMPI PUSH1 0x20 PUSH2 0x1041 DUP2 SWAP3 CALLDATASIZE SWAP1 PUSH1 0x4 ADD PUSH2 0x1332 JUMP JUMPDEST PUSH1 0x60 PUSH1 0xE0 PUSH1 0x40 MLOAD PUSH2 0x1051 DUP2 PUSH2 0x12DA JUMP JUMPDEST PUSH0 DUP2 MSTORE PUSH0 DUP6 DUP3 ADD MSTORE PUSH0 PUSH1 0x40 DUP3 ADD MSTORE PUSH0 DUP4 DUP3 ADD MSTORE PUSH0 PUSH1 0x80 DUP3 ADD MSTORE PUSH2 0x1072 PUSH2 0x15F0 JUMP JUMPDEST PUSH1 0xA0 DUP3 ADD MSTORE PUSH2 0x107F PUSH2 0x15F0 JUMP JUMPDEST PUSH1 0xC0 DUP3 ADD MSTORE ADD MSTORE PUSH1 0x40 MLOAD SWAP3 DUP2 DUP5 SWAP3 MLOAD SWAP2 DUP3 SWAP2 ADD DUP4 MCOPY DUP2 ADD PUSH0 DUP2 MSTORE SUB ADD SWAP1 KECCAK256 PUSH1 0x40 MLOAD PUSH2 0x10A9 DUP2 PUSH2 0x12DA JUMP JUMPDEST PUSH1 0xFF DUP3 SLOAD AND PUSH1 0x4 DUP2 LT ISZERO PUSH2 0x74B JUMPI PUSH2 0x1149 SWAP3 PUSH2 0xF23 SWAP2 DUP4 MSTORE PUSH2 0x1188 PUSH1 0x1 DUP3 ADD SLOAD SWAP2 PUSH1 0x20 DUP6 ADD SWAP3 DUP4 MSTORE PUSH2 0x1175 PUSH1 0x2 DUP3 ADD SLOAD PUSH1 0x40 DUP8 ADD SWAP1 DUP2 MSTORE PUSH1 0x3 DUP4 ADD SLOAD PUSH1 0x60 DUP9 ADD SWAP1 DUP2 MSTORE PUSH1 0x4 DUP5 ADD SLOAD SWAP1 PUSH1 0x80 DUP10 ADD SWAP2 DUP3 MSTORE PUSH2 0x1105 PUSH1 0x5 DUP7 ADD PUSH2 0x14CE JUMP JUMPDEST SWAP3 PUSH1 0xA0 DUP11 ADD SWAP4 DUP5 MSTORE PUSH2 0x112C PUSH1 0xB PUSH2 0x111E PUSH1 0x8 DUP10 ADD PUSH2 0x14CE JUMP JUMPDEST SWAP8 PUSH1 0xC0 DUP14 ADD SWAP9 DUP10 MSTORE ADD PUSH2 0x13BF JUMP JUMPDEST SWAP8 PUSH1 0xE0 DUP12 ADD SWAP9 DUP10 MSTORE PUSH1 0x40 MLOAD SWAP12 DUP13 SWAP12 PUSH1 0x20 DUP14 MSTORE PUSH1 0x20 DUP14 ADD SWAP1 MLOAD PUSH2 0x14C1 JUMP JUMPDEST MLOAD PUSH1 0x40 DUP12 ADD MSTORE MLOAD PUSH1 0x60 DUP11 ADD MSTORE MLOAD PUSH1 0x80 DUP10 ADD MSTORE MLOAD PUSH1 0xA0 DUP9 ADD MSTORE MLOAD PUSH2 0x100 PUSH1 0xC0 DUP9 ADD MSTORE PUSH2 0x120 DUP8 ADD SWAP1 PUSH2 0x1483 JUMP JUMPDEST SWAP1 MLOAD DUP6 DUP3 SUB PUSH1 0x1F NOT ADD PUSH1 0xE0 DUP8 ADD MSTORE PUSH2 0x1483 JUMP JUMPDEST SWAP1 MLOAD DUP4 DUP3 SUB PUSH1 0x1F NOT ADD PUSH2 0x100 DUP6 ADD MSTORE PUSH2 0x145F JUMP JUMPDEST CALLVALUE PUSH2 0x75F JUMPI PUSH1 0x20 CALLDATASIZE PUSH1 0x3 NOT ADD SLT PUSH2 0x75F JUMPI PUSH1 0x4 CALLDATALOAD PUSH1 0x1 PUSH1 0x1 PUSH1 0x40 SHL SUB DUP2 GT PUSH2 0x75F JUMPI PUSH2 0x11F2 PUSH1 0x20 DUP1 PUSH2 0x11D5 PUSH2 0xF23 SWAP5 CALLDATASIZE SWAP1 PUSH1 0x4 ADD PUSH2 0x1332 JUMP JUMPDEST PUSH1 0x40 MLOAD SWAP3 DUP2 DUP5 SWAP3 MLOAD SWAP2 DUP3 SWAP2 ADD DUP4 MCOPY DUP2 ADD PUSH1 0x1 DUP2 MSTORE SUB ADD SWAP1 KECCAK256 PUSH2 0x13BF JUMP JUMPDEST PUSH1 0x40 MLOAD SWAP2 DUP3 SWAP2 PUSH1 0x20 DUP4 MSTORE PUSH1 0x20 DUP4 ADD SWAP1 PUSH2 0x145F JUMP JUMPDEST CALLVALUE PUSH2 0x75F JUMPI PUSH1 0x20 CALLDATASIZE PUSH1 0x3 NOT ADD SLT PUSH2 0x75F JUMPI PUSH1 0x4 CALLDATALOAD PUSH1 0x1 PUSH1 0x1 PUSH1 0x40 SHL SUB DUP2 GT PUSH2 0x75F JUMPI PUSH1 0x20 PUSH2 0x1239 DUP2 SWAP3 CALLDATASIZE SWAP1 PUSH1 0x4 ADD PUSH2 0x1332 JUMP JUMPDEST PUSH1 0x40 MLOAD SWAP3 DUP2 DUP5 SWAP3 MLOAD SWAP2 DUP3 SWAP2 ADD DUP4 MCOPY PUSH0 SWAP1 DUP3 ADD SWAP1 DUP2 MSTORE SUB ADD SWAP1 KECCAK256 TIMESTAMP PUSH1 0x4 DUP3 ADD SSTORE DUP1 SLOAD PUSH1 0xFF NOT AND PUSH1 0x3 OR SWAP1 SSTORE STOP JUMPDEST CALLVALUE PUSH2 0x75F JUMPI PUSH1 0x20 CALLDATASIZE PUSH1 0x3 NOT ADD SLT PUSH2 0x75F JUMPI PUSH1 0x4 CALLDATALOAD PUSH1 0x1 PUSH1 0x1 PUSH1 0x40 SHL SUB DUP2 GT PUSH2 0x75F JUMPI PUSH2 0x12C6 PUSH1 0x5 PUSH1 0x20 DUP1 PUSH2 0x12A0 PUSH2 0xF23 SWAP6 CALLDATASIZE SWAP1 PUSH1 0x4 ADD PUSH2 0x1332 JUMP JUMPDEST PUSH2 0x12A8 PUSH2 0x15F0 JUMP JUMPDEST POP PUSH1 0x40 MLOAD SWAP3 DUP2 DUP5 SWAP3 MLOAD SWAP2 DUP3 SWAP2 ADD DUP4 MCOPY DUP2 ADD PUSH0 DUP2 MSTORE SUB ADD SWAP1 KECCAK256 ADD PUSH2 0x14CE JUMP JUMPDEST PUSH1 0x40 MLOAD SWAP2 DUP3 SWAP2 PUSH1 0x20 DUP4 MSTORE PUSH1 0x20 DUP4 ADD SWAP1 PUSH2 0x1483 JUMP JUMPDEST PUSH2 0x100 DUP2 ADD SWAP1 DUP2 LT PUSH1 0x1 PUSH1 0x1 PUSH1 0x40 SHL SUB DUP3 GT OR PUSH2 0x44F JUMPI PUSH1 0x40 MSTORE JUMP JUMPDEST PUSH1 0x60 DUP2 ADD SWAP1 DUP2 LT PUSH1 0x1 PUSH1 0x1 PUSH1 0x40 SHL SUB DUP3 GT OR PUSH2 0x44F JUMPI PUSH1 0x40 MSTORE JUMP JUMPDEST SWAP1 PUSH1 0x1F DUP1 NOT SWAP2 ADD AND DUP2 ADD SWAP1 DUP2 LT PUSH1 0x1 PUSH1 0x1 PUSH1 0x40 SHL SUB DUP3 GT OR PUSH2 0x44F JUMPI PUSH1 0x40 MSTORE JUMP JUMPDEST DUP2 PUSH1 0x1F DUP3 ADD SLT ISZERO PUSH2 0x75F JUMPI DUP1 CALLDATALOAD SWAP1 PUSH1 0x1 PUSH1 0x1 PUSH1 0x40 SHL SUB DUP3 GT PUSH2 0x44F JUMPI PUSH1 0x40 MLOAD SWAP3 PUSH2 0x1366 PUSH1 0x1F DUP5 ADD PUSH1 0x1F NOT AND PUSH1 0x20 ADD DUP6 PUSH2 0x1311 JUMP JUMPDEST DUP3 DUP5 MSTORE PUSH1 0x20 DUP4 DUP4 ADD ADD GT PUSH2 0x75F JUMPI DUP2 PUSH0 SWAP3 PUSH1 0x20 DUP1 SWAP4 ADD DUP4 DUP7 ADD CALLDATACOPY DUP4 ADD ADD MSTORE SWAP1 JUMP JUMPDEST SWAP1 PUSH1 0x1 DUP3 DUP2 SHR SWAP3 AND DUP1 ISZERO PUSH2 0x13B5 JUMPI JUMPDEST PUSH1 0x20 DUP4 LT EQ PUSH2 0x13A1 JUMPI JUMP JUMPDEST PUSH4 0x4E487B71 PUSH1 0xE0 SHL PUSH0 MSTORE PUSH1 0x22 PUSH1 0x4 MSTORE PUSH1 0x24 PUSH0 REVERT JUMPDEST SWAP2 PUSH1 0x7F AND SWAP2 PUSH2 0x1396 JUMP JUMPDEST SWAP1 PUSH1 0x40 MLOAD SWAP2 DUP3 PUSH0 DUP3 SLOAD SWAP3 PUSH2 0x13D2 DUP5 PUSH2 0x1387 JUMP JUMPDEST DUP1 DUP5 MSTORE SWAP4 PUSH1 0x1 DUP2 AND SWAP1 DUP2 ISZERO PUSH2 0x143D JUMPI POP PUSH1 0x1 EQ PUSH2 0x13F9 JUMPI JUMPDEST POP PUSH2 0x13F7 SWAP3 POP SUB DUP4 PUSH2 0x1311 JUMP JUMPDEST JUMP JUMPDEST SWAP1 POP PUSH0 SWAP3 SWAP2 SWAP3 MSTORE PUSH1 0x20 PUSH0 KECCAK256 SWAP1 PUSH0 SWAP2 JUMPDEST DUP2 DUP4 LT PUSH2 0x1421 JUMPI POP POP SWAP1 PUSH1 0x20 PUSH2 0x13F7 SWAP3 DUP3 ADD ADD PUSH0 PUSH2 0x13EA JUMP JUMPDEST PUSH1 0x20 SWAP2 SWAP4 POP DUP1 PUSH1 0x1 SWAP2 SLOAD DUP4 DUP6 DUP10 ADD ADD MSTORE ADD SWAP2 ADD SWAP1 SWAP2 DUP5 SWAP3 PUSH2 0x1408 JUMP JUMPDEST SWAP1 POP PUSH1 0x20 SWAP3 POP PUSH2 0x13F7 SWAP5 SWAP2 POP PUSH1 0xFF NOT AND DUP3 DUP5 ADD MSTORE ISZERO ISZERO PUSH1 0x5 SHL DUP3 ADD ADD PUSH0 PUSH2 0x13EA JUMP JUMPDEST DUP1 MLOAD DUP1 DUP4 MSTORE PUSH1 0x20 SWAP3 SWAP2 DUP2 SWAP1 DUP5 ADD DUP5 DUP5 ADD MCOPY PUSH0 DUP3 DUP3 ADD DUP5 ADD MSTORE PUSH1 0x1F ADD PUSH1 0x1F NOT AND ADD ADD SWAP1 JUMP JUMPDEST SWAP1 PUSH1 0x40 PUSH2 0x14AE PUSH2 0x149C DUP5 MLOAD PUSH1 0x60 DUP6 MSTORE PUSH1 0x60 DUP6 ADD SWAP1 PUSH2 0x145F JUMP JUMPDEST PUSH1 0x20 DUP6 ADD MLOAD DUP5 DUP3 SUB PUSH1 0x20 DUP7 ADD MSTORE PUSH2 0x145F JUMP JUMPDEST SWAP3 DUP2 ADD MLOAD PUSH1 0x1 PUSH1 0x1 PUSH1 0xA0 SHL SUB AND SWAP2 ADD MSTORE SWAP1 JUMP JUMPDEST SWAP1 PUSH1 0x4 DUP3 LT ISZERO PUSH2 0x74B JUMPI MSTORE JUMP JUMPDEST SWAP1 PUSH1 0x40 MLOAD PUSH2 0x14DB DUP2 PUSH2 0x12F6 JUMP JUMPDEST PUSH1 0x40 DUP2 SWAP4 PUSH2 0x14E8 DUP2 PUSH2 0x13BF JUMP JUMPDEST DUP4 MSTORE PUSH2 0x14F6 PUSH1 0x1 DUP3 ADD PUSH2 0x13BF JUMP JUMPDEST PUSH1 0x20 DUP5 ADD MSTORE PUSH1 0x2 ADD SLOAD PUSH1 0x1 PUSH1 0x1 PUSH1 0xA0 SHL SUB AND SWAP2 ADD MSTORE JUMP JUMPDEST SWAP2 SWAP1 PUSH1 0x60 DUP4 DUP3 SUB SLT PUSH2 0x75F JUMPI PUSH1 0x40 MLOAD SWAP1 PUSH2 0x1526 DUP3 PUSH2 0x12F6 JUMP JUMPDEST DUP2 SWAP4 DUP1 CALLDATALOAD PUSH1 0x1 PUSH1 0x1 PUSH1 0x40 SHL SUB DUP2 GT PUSH2 0x75F JUMPI DUP3 PUSH2 0x1544 SWAP2 DUP4 ADD PUSH2 0x1332 JUMP JUMPDEST DUP4 MSTORE PUSH1 0x20 DUP2 ADD CALLDATALOAD PUSH1 0x1 PUSH1 0x1 PUSH1 0x40 SHL SUB DUP2 GT PUSH2 0x75F JUMPI PUSH1 0x40 SWAP3 PUSH2 0x1567 SWAP2 DUP4 ADD PUSH2 0x1332 JUMP JUMPDEST PUSH1 0x20 DUP5 ADD MSTORE ADD CALLDATALOAD SWAP1 PUSH1 0x1 PUSH1 0x1 PUSH1 0xA0 SHL SUB DUP3 AND DUP3 SUB PUSH2 0x75F JUMPI PUSH1 0x40 ADD MSTORE JUMP JUMPDEST PUSH1 0x60 PUSH1 0x3 NOT DUP3 ADD SLT PUSH2 0x75F JUMPI PUSH1 0x4 CALLDATALOAD PUSH1 0x1 PUSH1 0x1 PUSH1 0x40 SHL SUB DUP2 GT PUSH2 0x75F JUMPI DUP2 PUSH2 0x15AF SWAP2 PUSH1 0x4 ADD PUSH2 0x1332 JUMP JUMPDEST SWAP2 PUSH1 0x24 CALLDATALOAD PUSH1 0x1 PUSH1 0x1 PUSH1 0x40 SHL SUB DUP2 GT PUSH2 0x75F JUMPI DUP3 PUSH2 0x15CE SWAP2 PUSH1 0x4 ADD PUSH2 0x1332 JUMP JUMPDEST SWAP2 PUSH1 0x44 CALLDATALOAD SWAP1 PUSH1 0x1 PUSH1 0x1 PUSH1 0x40 SHL SUB DUP3 GT PUSH2 0x75F JUMPI PUSH2 0x15ED SWAP2 PUSH1 0x4 ADD PUSH2 0x150D JUMP JUMPDEST SWAP1 JUMP JUMPDEST PUSH1 0x40 MLOAD SWAP1 PUSH2 0x15FD DUP3 PUSH2 0x12F6 JUMP JUMPDEST PUSH0 PUSH1 0x40 DUP4 PUSH1 0x60 DUP2 MSTORE PUSH1 0x60 PUSH1 0x20 DUP3 ADD MSTORE ADD MSTORE JUMP INVALID LOG2 PUSH5 0x6970667358 0x22 SLT KECCAK256 0xE 0xCC PUSH25 0xFD3F51C7386941E0986B751973F2A8B7E83F7B5AB24A980510 TLOAD MOD 0xBD 0xA8 PUSH5 0x736F6C6343 STOP ADDMOD SHL STOP CALLER "},"methodIdentifiers":{"certDetailsById(string)":"a71ed23a","createCertificateDetails((string,string,address),(string,string,address),string)":"fb5fb9a3","createUserCertificate(string,address,string)":"d533a3dd","getCertDetail(string)":"9aaa5d8b","getRejectMsg(string)":"6d1aa7d5","getSenderDetail(string)":"17e68309","rejectMsgbyId(string)":"10159dfe","updateBpomApproveDetails(string,string,(string,string,address))":"f5104ff1","updateBpomRejectDetails(string,string,(string,string,address))":"e9c260d7","updateRenewDetails(string)":"19859c87"}}}}}