{"contracts/ObatTradisional.sol":{"ObatTradisional":{"abi":[{"anonymous":false,"inputs":[{"indexed":true,"internalType":"string","name":"obatId","type":"string"},{"indexed":true,"internalType":"address","name":"pabrikAddress","type":"address"},{"indexed":false,"internalType":"string","name":"obatName","type":"string"}],"name":"evt_obatProduction","type":"event"},{"inputs":[],"name":"get_all_obat","outputs":[{"internalType":"string[]","name":"","type":"string[]"}],"stateMutability":"view","type":"function"},{"inputs":[{"internalType":"string","name":"_obatId","type":"string"}],"name":"get_obat_byId","outputs":[{"internalType":"address","name":"pabrikAddress","type":"address"},{"internalType":"address","name":"bpomAddress","type":"address"},{"internalType":"string","name":"pabrikName","type":"string"},{"internalType":"uint256","name":"timestampReq","type":"uint256"},{"internalType":"uint256","name":"timestampApprove","type":"uint256"},{"internalType":"string","name":"obatName","type":"string"},{"internalType":"string","name":"obatId","type":"string"},{"internalType":"string","name":"obatMerk","type":"string"},{"internalType":"string","name":"obatKlaim","type":"string"},{"internalType":"string","name":"obatKomposisi","type":"string"},{"internalType":"string","name":"obatKemasan","type":"string"},{"internalType":"string","name":"numberNie","type":"string"},{"internalType":"enum ObatTradisional.en_StatusObat","name":"statusObat","type":"uint8"}],"stateMutability":"view","type":"function"},{"inputs":[{"internalType":"uint256","name":"","type":"uint256"}],"name":"idObat","outputs":[{"internalType":"string","name":"","type":"string"}],"stateMutability":"view","type":"function"},{"inputs":[{"internalType":"string","name":"_nieNumber","type":"string"},{"internalType":"string","name":"_obatId","type":"string"}],"name":"nie_approve","outputs":[],"stateMutability":"nonpayable","type":"function"},{"inputs":[{"internalType":"string","name":"_obatId","type":"string"}],"name":"nie_request","outputs":[],"stateMutability":"nonpayable","type":"function"},{"inputs":[{"internalType":"string","name":"","type":"string"}],"name":"obatData","outputs":[{"internalType":"address","name":"pabrikAddress","type":"address"},{"internalType":"address","name":"bpomAddress","type":"address"},{"internalType":"string","name":"pabrikName","type":"string"},{"internalType":"uint256","name":"timestampReq","type":"uint256"},{"internalType":"uint256","name":"timestampApprove","type":"uint256"},{"internalType":"string","name":"obatName","type":"string"},{"internalType":"string","name":"obatId","type":"string"},{"internalType":"string","name":"obatMerk","type":"string"},{"internalType":"string","name":"obatKlaim","type":"string"},{"internalType":"string","name":"obatKomposisi","type":"string"},{"internalType":"string","name":"obatKemasan","type":"string"},{"internalType":"string","name":"numberNie","type":"string"},{"internalType":"enum ObatTradisional.en_StatusObat","name":"statusObat","type":"uint8"}],"stateMutability":"view","type":"function"},{"inputs":[{"internalType":"string","name":"_obatId","type":"string"},{"internalType":"string","name":"_pabrikName","type":"string"},{"internalType":"string","name":"_obatName","type":"string"},{"internalType":"string","name":"_obatMerk","type":"string"},{"internalType":"string","name":"_obatKlaim","type":"string"},{"internalType":"string","name":"_obatKomposisi","type":"string"},{"internalType":"string","name":"_obatKemasan","type":"string"}],"name":"obat_production","outputs":[],"stateMutability":"nonpayable","type":"function"}],"evm":{"bytecode":{"linkReferences":{},"object":"608080604052346015576114c0908161001b8239f35b600080fdfe608080604052600436101561001357600080fd5b60003560e01c9081630e96e278146106b8575080630f39431c1461051d57806349bd9672146103d057806375711f49146102df578063a6dddde314610141578063c723c191146100dc5763e960ae5e1461006c57600080fd5b346100d75760203660031901126100d7576004356001600160401b0381116100d75760206100a0600c923690600401611102565b91906100ad83151561144c565b8260405193849283378101600181520301902042600382015501600160ff19825416179055600080f35b600080fd5b346100d75760203660031901126100d7576004356000548110156100d757610103906113ca565b61012b5761011361012791611252565b6040519182916020835260208301906111f3565b0390f35b634e487b7160e01b600052600060045260246000fd5b346100d75760203660031901126100d7576004356001600160401b0381116100d7576101736020913690600401611102565b9190826040519384928337810160018152030190206040516101948161112f565b81546001600160a01b03908116825260018301541660208201908152906101bd60028401611252565b926040820193845260038101549160608101928352600482015491608082019283526101eb60058201611252565b60a083019081526101fe60068301611252565b60c0840190815261021160078401611252565b60e0850190815261022460088501611252565b90610100860191825261023960098601611252565b92610120870193845261024e600a8701611252565b94610140880195865260ff600c610267600b8a01611252565b986101608b01998a520154169761018081019860038110156102c95798899052519a519b519951985190519151925193519451955196516001600160a01b039c8d169c909b169a979860038a10156102c9576101279a6040519d8e9d8e6112f6565b634e487b7160e01b600052602160045260246000fd5b346100d75760203660031901126100d7576004356001600160401b0381116100d75760206103146103279236906004016111b2565b81604051938285809451938492016111d0565b8101600181520301902060018060a01b0381541661012760018060a01b036001840154169261035860028201611252565b906003810154600482015461036f60058401611252565b61037b60068501611252565b61038760078601611252565b9061039460088701611252565b926103a160098801611252565b946103ae600a8901611252565b9660ff600c6103bf600b8c01611252565b9a015416996040519d8e9d8e6112f6565b346100d75760003660031901126100d75760005480156104df576001600160401b0381116104c9576040519061040c60208260051b018361114b565b808252602082019081600080527f290decd9548b62a8d60345a988386fc84ba6bc95484008f6362f93160ef3e5636000915b8383106104ac57848660405191829160208301906020845251809152604083019060408160051b85010192916000905b82821061047d57505050500390f35b9193600191939550602061049c8192603f198a820301865288516111f3565b960192019201859493919261046e565b6001602081926104bb85611252565b81520192019201919061043e565b634e487b7160e01b600052604160045260246000fd5b60405162461bcd60e51b81526020600482015260166024820152754e6f206f626174206461746120617661696c61626c6560501b6044820152606490fd5b346100d75760403660031901126100d7576004356001600160401b0381116100d75761054d9036906004016111b2565b6024356001600160401b0381116100d75761056c903690600401611102565b9082511561067d5760209061058283151561144c565b82604051938492833781016001815203019020600b81018251926001600160401b0384116104c9576105be846105b88454611218565b846113fa565b602090601f85116001146106145793806105f292600c96600092610609575b50508160011b916000199060031b1c19161790565b90555b42600482015501805460ff19166002179055005b0151905086806105dd565b90601f1985169183600052816000209260005b8181106106655750916001939187600c98941061064c575b505050811b0190556105f5565b015160001960f88460031b161c1916905585808061063f565b92936020600181928786015181550195019301610627565b60405162461bcd60e51b8152602060048201526013602482015272496e76616c69642052657175657374204e494560681b6044820152606490fd5b346100d75760e03660031901126100d7576004356001600160401b0381116100d7576106e8903690600401611102565b90916024356001600160401b0381116100d757610709903690600401611102565b92906044356001600160401b0381116100d75761072a903690600401611102565b9390916064356001600160401b0381116100d75761074c903690600401611102565b906084356001600160401b0381116100d75761076c903690600401611102565b60a4356001600160401b0381116100d75761078b903690600401611102565b93909460c4356001600160401b0381116100d7576107ad903690600401611102565b9790988b156110cb57506040519c6107c48e61112f565b8d3381526020016000905236906107da9261116c565b60408d0152600060608d0181905260808d01526107f8368c8b61116c565b60a08d0152610808368b8f61116c565b60c08d015236906108189261116c565b60e08b015236906108289261116c565b61010089015236906108399261116c565b610120870152369061084a9261116c565b610140850152604091825161085f848261114b565b60018152600360fc1b6020820152610160860152600061018086015282518187823760018282018181526020908390038101909220875181546001600160a01b03199081166001600160a01b039283161783559389015192820180549094169216919091179091556040860151805160028301916001600160401b0382116104c9576108f5826108ef8554611218565b856113fa565b602090601f831160011461106457610925929160009183610def5750508160011b916000199060031b1c19161790565b90555b60608601516003820155608086015160048201556005810160a08701518051906001600160401b0382116104c957610964826108ef8554611218565b602090601f8311600114610ffd57610994929160009183610def5750508160011b916000199060031b1c19161790565b90555b6006810160c08701518051906001600160401b0382116104c9576109bf826108ef8554611218565b602090601f8311600114610f96576109ef929160009183610def5750508160011b916000199060031b1c19161790565b90555b6007810160e08701518051906001600160401b0382116104c957610a1a826108ef8554611218565b602090601f8311600114610f2f57610a4a929160009183610def5750508160011b916000199060031b1c19161790565b90555b600881016101008701518051906001600160401b0382116104c957610a76826108ef8554611218565b602090601f8311600114610ec857610aa6929160009183610def5750508160011b916000199060031b1c19161790565b90555b600981016101208701518051906001600160401b0382116104c957610ad2826108ef8554611218565b602090601f8311600114610e6157610b02929160009183610def5750508160011b916000199060031b1c19161790565b90555b600a81016101408701518051906001600160401b0382116104c957610b2e826108ef8554611218565b602090601f8311600114610dfa57610b5e929160009183610def5750508160011b916000199060031b1c19161790565b90555b600b81016101608701518051906001600160401b0382116104c957610b8a826108ef8554611218565b602090601f8311600114610d8157826101809593600c9593610bc293600092610d765750508160011b916000199060031b1c19161790565b90555b019501519460038610156102c95760009560ff80198354169116179055845468010000000000000000811015610d4e57806001610c04920187556113ca565b969096610d62576001600160401b038211610d4e57610c2d82610c278954611218565b896113fa565b8596601f8311600114610cca57610c7f8380899a7f11419415138c694473a0c3f4f8e450395791888ab0252860facc797811dbe66898999a91610cbf575b508160011b916000199060031b1c19161790565b90555b818551928392833781018781520390209284815192602084528160208501528284013785818684010152813395601f80199101168101030190a380f35b90508401358b610c6b565b80875260208720601f19841698885b8a8110610d365750847f11419415138c694473a0c3f4f8e450395791888ab0252860facc797811dbe6689798999a10610d1c575b5050600183811b019055610c82565b830135600019600386901b60f8161c191690558880610d0d565b90916020600181928588013581550193019101610cd9565b634e487b7160e01b86526041600452602486fd5b634e487b7160e01b86526004869052602486fd5b015190508d806105dd565b90601f1983169184600052816000209260005b818110610dd757509260019285926101809896600c989610610dbe575b505050811b019055610bc5565b015160001960f88460031b161c191690558c8080610db1565b92936020600181928786015181550195019301610d94565b015190508b806105dd565b90601f1983169184600052816000209260005b818110610e495750908460019594939210610e30575b505050811b019055610b61565b015160001960f88460031b161c191690558a8080610e23565b92936020600181928786015181550195019301610e0d565b90601f1983169184600052816000209260005b818110610eb05750908460019594939210610e97575b505050811b019055610b05565b015160001960f88460031b161c191690558a8080610e8a565b92936020600181928786015181550195019301610e74565b90601f1983169184600052816000209260005b818110610f175750908460019594939210610efe575b505050811b019055610aa9565b015160001960f88460031b161c191690558a8080610ef1565b92936020600181928786015181550195019301610edb565b90601f1983169184600052816000209260005b818110610f7e5750908460019594939210610f65575b505050811b019055610a4d565b015160001960f88460031b161c191690558a8080610f58565b92936020600181928786015181550195019301610f42565b90601f1983169184600052816000209260005b818110610fe55750908460019594939210610fcc575b505050811b0190556109f2565b015160001960f88460031b161c191690558a8080610fbf565b92936020600181928786015181550195019301610fa9565b90601f1983169184600052816000209260005b81811061104c5750908460019594939210611033575b505050811b019055610997565b015160001960f88460031b161c191690558a8080611026565b92936020600181928786015181550195019301611010565b90601f1983169184600052816000209260005b8181106110b3575090846001959493921061109a575b505050811b019055610928565b015160001960f88460031b161c191690558a808061108d565b92936020600181928786015181550195019301611077565b62461bcd60e51b8152602060048201526012602482015271125b9d985b1a590814995c5d595cdd08125160721b6044820152606490fd5b9181601f840112156100d7578235916001600160401b0383116100d757602083818601950101116100d757565b6101a081019081106001600160401b038211176104c957604052565b90601f801991011681019081106001600160401b038211176104c957604052565b9291926001600160401b0382116104c95760405191611195601f8201601f19166020018461114b565b8294818452818301116100d7578281602093846000960137010152565b9080601f830112156100d7578160206111cd9335910161116c565b90565b60005b8381106111e35750506000910152565b81810151838201526020016111d3565b9060209161120c815180928185528580860191016111d0565b601f01601f1916010190565b90600182811c92168015611248575b602083101461123257565b634e487b7160e01b600052602260045260246000fd5b91607f1691611227565b906040519182600082549261126684611218565b80845293600181169081156112d4575060011461128d575b5061128b9250038361114b565b565b90506000929192526020600020906000915b8183106112b857505090602061128b928201013861127e565b602091935080600191548385890101520191019091849261129f565b90506020925061128b94915060ff191682840152151560051b8201013861127e565b61139b97819f9e9d9b976113aa9b96611361916113b99f9c969961134961137d9961138c9c61136f9960018060a01b0316895260018060a01b031660208901526101a060408901526101a08801906111f3565b926060870152608086015284820360a08601526111f3565b9160c08184039101526111f3565b8d810360e08f0152906111f3565b908b82036101008d01526111f3565b908982036101208b01526111f3565b908782036101408901526111f3565b908582036101608701526111f3565b9260038210156102c9576101800152565b6000548110156113e4576000805260206000200190600090565b634e487b7160e01b600052603260045260246000fd5b601f821161140757505050565b6000526020600020906020601f840160051c83019310611442575b601f0160051c01905b818110611436575050565b6000815560010161142b565b9091508190611422565b1561145357565b60405162461bcd60e51b815260206004820152600f60248201526e125b9d985b1a590812510813d8985d608a1b6044820152606490fdfea264697066735822122081f5b806e5a6de12bf62ad226c7d8d766dcae6ce2f3960558804b58a4717a5db64736f6c634300081b0033","opcodes":"PUSH1 0x80 DUP1 PUSH1 0x40 MSTORE CALLVALUE PUSH1 0x15 JUMPI PUSH2 0x14C0 SWAP1 DUP2 PUSH2 0x1B DUP3 CODECOPY RETURN JUMPDEST PUSH1 0x0 DUP1 REVERT INVALID PUSH1 0x80 DUP1 PUSH1 0x40 MSTORE PUSH1 0x4 CALLDATASIZE LT ISZERO PUSH2 0x13 JUMPI PUSH1 0x0 DUP1 REVERT JUMPDEST PUSH1 0x0 CALLDATALOAD PUSH1 0xE0 SHR SWAP1 DUP2 PUSH4 0xE96E278 EQ PUSH2 0x6B8 JUMPI POP DUP1 PUSH4 0xF39431C EQ PUSH2 0x51D JUMPI DUP1 PUSH4 0x49BD9672 EQ PUSH2 0x3D0 JUMPI DUP1 PUSH4 0x75711F49 EQ PUSH2 0x2DF JUMPI DUP1 PUSH4 0xA6DDDDE3 EQ PUSH2 0x141 JUMPI DUP1 PUSH4 0xC723C191 EQ PUSH2 0xDC JUMPI PUSH4 0xE960AE5E EQ PUSH2 0x6C JUMPI PUSH1 0x0 DUP1 REVERT JUMPDEST CALLVALUE PUSH2 0xD7 JUMPI PUSH1 0x20 CALLDATASIZE PUSH1 0x3 NOT ADD SLT PUSH2 0xD7 JUMPI PUSH1 0x4 CALLDATALOAD PUSH1 0x1 PUSH1 0x1 PUSH1 0x40 SHL SUB DUP2 GT PUSH2 0xD7 JUMPI PUSH1 0x20 PUSH2 0xA0 PUSH1 0xC SWAP3 CALLDATASIZE SWAP1 PUSH1 0x4 ADD PUSH2 0x1102 JUMP JUMPDEST SWAP2 SWAP1 PUSH2 0xAD DUP4 ISZERO ISZERO PUSH2 0x144C JUMP JUMPDEST DUP3 PUSH1 0x40 MLOAD SWAP4 DUP5 SWAP3 DUP4 CALLDATACOPY DUP2 ADD PUSH1 0x1 DUP2 MSTORE SUB ADD SWAP1 KECCAK256 TIMESTAMP PUSH1 0x3 DUP3 ADD SSTORE ADD PUSH1 0x1 PUSH1 0xFF NOT DUP3 SLOAD AND OR SWAP1 SSTORE PUSH1 0x0 DUP1 RETURN JUMPDEST PUSH1 0x0 DUP1 REVERT JUMPDEST CALLVALUE PUSH2 0xD7 JUMPI PUSH1 0x20 CALLDATASIZE PUSH1 0x3 NOT ADD SLT PUSH2 0xD7 JUMPI PUSH1 0x4 CALLDATALOAD PUSH1 0x0 SLOAD DUP2 LT ISZERO PUSH2 0xD7 JUMPI PUSH2 0x103 SWAP1 PUSH2 0x13CA JUMP JUMPDEST PUSH2 0x12B JUMPI PUSH2 0x113 PUSH2 0x127 SWAP2 PUSH2 0x1252 JUMP JUMPDEST PUSH1 0x40 MLOAD SWAP2 DUP3 SWAP2 PUSH1 0x20 DUP4 MSTORE PUSH1 0x20 DUP4 ADD SWAP1 PUSH2 0x11F3 JUMP JUMPDEST SUB SWAP1 RETURN JUMPDEST PUSH4 0x4E487B71 PUSH1 0xE0 SHL PUSH1 0x0 MSTORE PUSH1 0x0 PUSH1 0x4 MSTORE PUSH1 0x24 PUSH1 0x0 REVERT JUMPDEST CALLVALUE PUSH2 0xD7 JUMPI PUSH1 0x20 CALLDATASIZE PUSH1 0x3 NOT ADD SLT PUSH2 0xD7 JUMPI PUSH1 0x4 CALLDATALOAD PUSH1 0x1 PUSH1 0x1 PUSH1 0x40 SHL SUB DUP2 GT PUSH2 0xD7 JUMPI PUSH2 0x173 PUSH1 0x20 SWAP2 CALLDATASIZE SWAP1 PUSH1 0x4 ADD PUSH2 0x1102 JUMP JUMPDEST SWAP2 SWAP1 DUP3 PUSH1 0x40 MLOAD SWAP4 DUP5 SWAP3 DUP4 CALLDATACOPY DUP2 ADD PUSH1 0x1 DUP2 MSTORE SUB ADD SWAP1 KECCAK256 PUSH1 0x40 MLOAD PUSH2 0x194 DUP2 PUSH2 0x112F JUMP JUMPDEST DUP2 SLOAD PUSH1 0x1 PUSH1 0x1 PUSH1 0xA0 SHL SUB SWAP1 DUP2 AND DUP3 MSTORE PUSH1 0x1 DUP4 ADD SLOAD AND PUSH1 0x20 DUP3 ADD SWAP1 DUP2 MSTORE SWAP1 PUSH2 0x1BD PUSH1 0x2 DUP5 ADD PUSH2 0x1252 JUMP JUMPDEST SWAP3 PUSH1 0x40 DUP3 ADD SWAP4 DUP5 MSTORE PUSH1 0x3 DUP2 ADD SLOAD SWAP2 PUSH1 0x60 DUP2 ADD SWAP3 DUP4 MSTORE PUSH1 0x4 DUP3 ADD SLOAD SWAP2 PUSH1 0x80 DUP3 ADD SWAP3 DUP4 MSTORE PUSH2 0x1EB PUSH1 0x5 DUP3 ADD PUSH2 0x1252 JUMP JUMPDEST PUSH1 0xA0 DUP4 ADD SWAP1 DUP2 MSTORE PUSH2 0x1FE PUSH1 0x6 DUP4 ADD PUSH2 0x1252 JUMP JUMPDEST PUSH1 0xC0 DUP5 ADD SWAP1 DUP2 MSTORE PUSH2 0x211 PUSH1 0x7 DUP5 ADD PUSH2 0x1252 JUMP JUMPDEST PUSH1 0xE0 DUP6 ADD SWAP1 DUP2 MSTORE PUSH2 0x224 PUSH1 0x8 DUP6 ADD PUSH2 0x1252 JUMP JUMPDEST SWAP1 PUSH2 0x100 DUP7 ADD SWAP2 DUP3 MSTORE PUSH2 0x239 PUSH1 0x9 DUP7 ADD PUSH2 0x1252 JUMP JUMPDEST SWAP3 PUSH2 0x120 DUP8 ADD SWAP4 DUP5 MSTORE PUSH2 0x24E PUSH1 0xA DUP8 ADD PUSH2 0x1252 JUMP JUMPDEST SWAP5 PUSH2 0x140 DUP9 ADD SWAP6 DUP7 MSTORE PUSH1 0xFF PUSH1 0xC PUSH2 0x267 PUSH1 0xB DUP11 ADD PUSH2 0x1252 JUMP JUMPDEST SWAP9 PUSH2 0x160 DUP12 ADD SWAP10 DUP11 MSTORE ADD SLOAD AND SWAP8 PUSH2 0x180 DUP2 ADD SWAP9 PUSH1 0x3 DUP2 LT ISZERO PUSH2 0x2C9 JUMPI SWAP9 DUP10 SWAP1 MSTORE MLOAD SWAP11 MLOAD SWAP12 MLOAD SWAP10 MLOAD SWAP9 MLOAD SWAP1 MLOAD SWAP2 MLOAD SWAP3 MLOAD SWAP4 MLOAD SWAP5 MLOAD SWAP6 MLOAD SWAP7 MLOAD PUSH1 0x1 PUSH1 0x1 PUSH1 0xA0 SHL SUB SWAP13 DUP14 AND SWAP13 SWAP1 SWAP12 AND SWAP11 SWAP8 SWAP9 PUSH1 0x3 DUP11 LT ISZERO PUSH2 0x2C9 JUMPI PUSH2 0x127 SWAP11 PUSH1 0x40 MLOAD SWAP14 DUP15 SWAP14 DUP15 PUSH2 0x12F6 JUMP JUMPDEST PUSH4 0x4E487B71 PUSH1 0xE0 SHL PUSH1 0x0 MSTORE PUSH1 0x21 PUSH1 0x4 MSTORE PUSH1 0x24 PUSH1 0x0 REVERT JUMPDEST CALLVALUE PUSH2 0xD7 JUMPI PUSH1 0x20 CALLDATASIZE PUSH1 0x3 NOT ADD SLT PUSH2 0xD7 JUMPI PUSH1 0x4 CALLDATALOAD PUSH1 0x1 PUSH1 0x1 PUSH1 0x40 SHL SUB DUP2 GT PUSH2 0xD7 JUMPI PUSH1 0x20 PUSH2 0x314 PUSH2 0x327 SWAP3 CALLDATASIZE SWAP1 PUSH1 0x4 ADD PUSH2 0x11B2 JUMP JUMPDEST DUP2 PUSH1 0x40 MLOAD SWAP4 DUP3 DUP6 DUP1 SWAP5 MLOAD SWAP4 DUP5 SWAP3 ADD PUSH2 0x11D0 JUMP JUMPDEST DUP2 ADD PUSH1 0x1 DUP2 MSTORE SUB ADD SWAP1 KECCAK256 PUSH1 0x1 DUP1 PUSH1 0xA0 SHL SUB DUP2 SLOAD AND PUSH2 0x127 PUSH1 0x1 DUP1 PUSH1 0xA0 SHL SUB PUSH1 0x1 DUP5 ADD SLOAD AND SWAP3 PUSH2 0x358 PUSH1 0x2 DUP3 ADD PUSH2 0x1252 JUMP JUMPDEST SWAP1 PUSH1 0x3 DUP2 ADD SLOAD PUSH1 0x4 DUP3 ADD SLOAD PUSH2 0x36F PUSH1 0x5 DUP5 ADD PUSH2 0x1252 JUMP JUMPDEST PUSH2 0x37B PUSH1 0x6 DUP6 ADD PUSH2 0x1252 JUMP JUMPDEST PUSH2 0x387 PUSH1 0x7 DUP7 ADD PUSH2 0x1252 JUMP JUMPDEST SWAP1 PUSH2 0x394 PUSH1 0x8 DUP8 ADD PUSH2 0x1252 JUMP JUMPDEST SWAP3 PUSH2 0x3A1 PUSH1 0x9 DUP9 ADD PUSH2 0x1252 JUMP JUMPDEST SWAP5 PUSH2 0x3AE PUSH1 0xA DUP10 ADD PUSH2 0x1252 JUMP JUMPDEST SWAP7 PUSH1 0xFF PUSH1 0xC PUSH2 0x3BF PUSH1 0xB DUP13 ADD PUSH2 0x1252 JUMP JUMPDEST SWAP11 ADD SLOAD AND SWAP10 PUSH1 0x40 MLOAD SWAP14 DUP15 SWAP14 DUP15 PUSH2 0x12F6 JUMP JUMPDEST CALLVALUE PUSH2 0xD7 JUMPI PUSH1 0x0 CALLDATASIZE PUSH1 0x3 NOT ADD SLT PUSH2 0xD7 JUMPI PUSH1 0x0 SLOAD DUP1 ISZERO PUSH2 0x4DF JUMPI PUSH1 0x1 PUSH1 0x1 PUSH1 0x40 SHL SUB DUP2 GT PUSH2 0x4C9 JUMPI PUSH1 0x40 MLOAD SWAP1 PUSH2 0x40C PUSH1 0x20 DUP3 PUSH1 0x5 SHL ADD DUP4 PUSH2 0x114B JUMP JUMPDEST DUP1 DUP3 MSTORE PUSH1 0x20 DUP3 ADD SWAP1 DUP2 PUSH1 0x0 DUP1 MSTORE PUSH32 0x290DECD9548B62A8D60345A988386FC84BA6BC95484008F6362F93160EF3E563 PUSH1 0x0 SWAP2 JUMPDEST DUP4 DUP4 LT PUSH2 0x4AC JUMPI DUP5 DUP7 PUSH1 0x40 MLOAD SWAP2 DUP3 SWAP2 PUSH1 0x20 DUP4 ADD SWAP1 PUSH1 0x20 DUP5 MSTORE MLOAD DUP1 SWAP2 MSTORE PUSH1 0x40 DUP4 ADD SWAP1 PUSH1 0x40 DUP2 PUSH1 0x5 SHL DUP6 ADD ADD SWAP3 SWAP2 PUSH1 0x0 SWAP1 JUMPDEST DUP3 DUP3 LT PUSH2 0x47D JUMPI POP POP POP POP SUB SWAP1 RETURN JUMPDEST SWAP2 SWAP4 PUSH1 0x1 SWAP2 SWAP4 SWAP6 POP PUSH1 0x20 PUSH2 0x49C DUP2 SWAP3 PUSH1 0x3F NOT DUP11 DUP3 SUB ADD DUP7 MSTORE DUP9 MLOAD PUSH2 0x11F3 JUMP JUMPDEST SWAP7 ADD SWAP3 ADD SWAP3 ADD DUP6 SWAP5 SWAP4 SWAP2 SWAP3 PUSH2 0x46E JUMP JUMPDEST PUSH1 0x1 PUSH1 0x20 DUP2 SWAP3 PUSH2 0x4BB DUP6 PUSH2 0x1252 JUMP JUMPDEST DUP2 MSTORE ADD SWAP3 ADD SWAP3 ADD SWAP2 SWAP1 PUSH2 0x43E JUMP JUMPDEST PUSH4 0x4E487B71 PUSH1 0xE0 SHL PUSH1 0x0 MSTORE PUSH1 0x41 PUSH1 0x4 MSTORE PUSH1 0x24 PUSH1 0x0 REVERT JUMPDEST PUSH1 0x40 MLOAD PUSH3 0x461BCD PUSH1 0xE5 SHL DUP2 MSTORE PUSH1 0x20 PUSH1 0x4 DUP3 ADD MSTORE PUSH1 0x16 PUSH1 0x24 DUP3 ADD MSTORE PUSH22 0x4E6F206F626174206461746120617661696C61626C65 PUSH1 0x50 SHL PUSH1 0x44 DUP3 ADD MSTORE PUSH1 0x64 SWAP1 REVERT JUMPDEST CALLVALUE PUSH2 0xD7 JUMPI PUSH1 0x40 CALLDATASIZE PUSH1 0x3 NOT ADD SLT PUSH2 0xD7 JUMPI PUSH1 0x4 CALLDATALOAD PUSH1 0x1 PUSH1 0x1 PUSH1 0x40 SHL SUB DUP2 GT PUSH2 0xD7 JUMPI PUSH2 0x54D SWAP1 CALLDATASIZE SWAP1 PUSH1 0x4 ADD PUSH2 0x11B2 JUMP JUMPDEST PUSH1 0x24 CALLDATALOAD PUSH1 0x1 PUSH1 0x1 PUSH1 0x40 SHL SUB DUP2 GT PUSH2 0xD7 JUMPI PUSH2 0x56C SWAP1 CALLDATASIZE SWAP1 PUSH1 0x4 ADD PUSH2 0x1102 JUMP JUMPDEST SWAP1 DUP3 MLOAD ISZERO PUSH2 0x67D JUMPI PUSH1 0x20 SWAP1 PUSH2 0x582 DUP4 ISZERO ISZERO PUSH2 0x144C JUMP JUMPDEST DUP3 PUSH1 0x40 MLOAD SWAP4 DUP5 SWAP3 DUP4 CALLDATACOPY DUP2 ADD PUSH1 0x1 DUP2 MSTORE SUB ADD SWAP1 KECCAK256 PUSH1 0xB DUP2 ADD DUP3 MLOAD SWAP3 PUSH1 0x1 PUSH1 0x1 PUSH1 0x40 SHL SUB DUP5 GT PUSH2 0x4C9 JUMPI PUSH2 0x5BE DUP5 PUSH2 0x5B8 DUP5 SLOAD PUSH2 0x1218 JUMP JUMPDEST DUP5 PUSH2 0x13FA JUMP JUMPDEST PUSH1 0x20 SWAP1 PUSH1 0x1F DUP6 GT PUSH1 0x1 EQ PUSH2 0x614 JUMPI SWAP4 DUP1 PUSH2 0x5F2 SWAP3 PUSH1 0xC SWAP7 PUSH1 0x0 SWAP3 PUSH2 0x609 JUMPI JUMPDEST POP POP DUP2 PUSH1 0x1 SHL SWAP2 PUSH1 0x0 NOT SWAP1 PUSH1 0x3 SHL SHR NOT AND OR SWAP1 JUMP JUMPDEST SWAP1 SSTORE JUMPDEST TIMESTAMP PUSH1 0x4 DUP3 ADD SSTORE ADD DUP1 SLOAD PUSH1 0xFF NOT AND PUSH1 0x2 OR SWAP1 SSTORE STOP JUMPDEST ADD MLOAD SWAP1 POP DUP7 DUP1 PUSH2 0x5DD JUMP JUMPDEST SWAP1 PUSH1 0x1F NOT DUP6 AND SWAP2 DUP4 PUSH1 0x0 MSTORE DUP2 PUSH1 0x0 KECCAK256 SWAP3 PUSH1 0x0 JUMPDEST DUP2 DUP2 LT PUSH2 0x665 JUMPI POP SWAP2 PUSH1 0x1 SWAP4 SWAP2 DUP8 PUSH1 0xC SWAP9 SWAP5 LT PUSH2 0x64C JUMPI JUMPDEST POP POP POP DUP2 SHL ADD SWAP1 SSTORE PUSH2 0x5F5 JUMP JUMPDEST ADD MLOAD PUSH1 0x0 NOT PUSH1 0xF8 DUP5 PUSH1 0x3 SHL AND SHR NOT AND SWAP1 SSTORE DUP6 DUP1 DUP1 PUSH2 0x63F JUMP JUMPDEST SWAP3 SWAP4 PUSH1 0x20 PUSH1 0x1 DUP2 SWAP3 DUP8 DUP7 ADD MLOAD DUP2 SSTORE ADD SWAP6 ADD SWAP4 ADD PUSH2 0x627 JUMP JUMPDEST PUSH1 0x40 MLOAD PUSH3 0x461BCD PUSH1 0xE5 SHL DUP2 MSTORE PUSH1 0x20 PUSH1 0x4 DUP3 ADD MSTORE PUSH1 0x13 PUSH1 0x24 DUP3 ADD MSTORE PUSH19 0x496E76616C69642052657175657374204E4945 PUSH1 0x68 SHL PUSH1 0x44 DUP3 ADD MSTORE PUSH1 0x64 SWAP1 REVERT JUMPDEST CALLVALUE PUSH2 0xD7 JUMPI PUSH1 0xE0 CALLDATASIZE PUSH1 0x3 NOT ADD SLT PUSH2 0xD7 JUMPI PUSH1 0x4 CALLDATALOAD PUSH1 0x1 PUSH1 0x1 PUSH1 0x40 SHL SUB DUP2 GT PUSH2 0xD7 JUMPI PUSH2 0x6E8 SWAP1 CALLDATASIZE SWAP1 PUSH1 0x4 ADD PUSH2 0x1102 JUMP JUMPDEST SWAP1 SWAP2 PUSH1 0x24 CALLDATALOAD PUSH1 0x1 PUSH1 0x1 PUSH1 0x40 SHL SUB DUP2 GT PUSH2 0xD7 JUMPI PUSH2 0x709 SWAP1 CALLDATASIZE SWAP1 PUSH1 0x4 ADD PUSH2 0x1102 JUMP JUMPDEST SWAP3 SWAP1 PUSH1 0x44 CALLDATALOAD PUSH1 0x1 PUSH1 0x1 PUSH1 0x40 SHL SUB DUP2 GT PUSH2 0xD7 JUMPI PUSH2 0x72A SWAP1 CALLDATASIZE SWAP1 PUSH1 0x4 ADD PUSH2 0x1102 JUMP JUMPDEST SWAP4 SWAP1 SWAP2 PUSH1 0x64 CALLDATALOAD PUSH1 0x1 PUSH1 0x1 PUSH1 0x40 SHL SUB DUP2 GT PUSH2 0xD7 JUMPI PUSH2 0x74C SWAP1 CALLDATASIZE SWAP1 PUSH1 0x4 ADD PUSH2 0x1102 JUMP JUMPDEST SWAP1 PUSH1 0x84 CALLDATALOAD PUSH1 0x1 PUSH1 0x1 PUSH1 0x40 SHL SUB DUP2 GT PUSH2 0xD7 JUMPI PUSH2 0x76C SWAP1 CALLDATASIZE SWAP1 PUSH1 0x4 ADD PUSH2 0x1102 JUMP JUMPDEST PUSH1 0xA4 CALLDATALOAD PUSH1 0x1 PUSH1 0x1 PUSH1 0x40 SHL SUB DUP2 GT PUSH2 0xD7 JUMPI PUSH2 0x78B SWAP1 CALLDATASIZE SWAP1 PUSH1 0x4 ADD PUSH2 0x1102 JUMP JUMPDEST SWAP4 SWAP1 SWAP5 PUSH1 0xC4 CALLDATALOAD PUSH1 0x1 PUSH1 0x1 PUSH1 0x40 SHL SUB DUP2 GT PUSH2 0xD7 JUMPI PUSH2 0x7AD SWAP1 CALLDATASIZE SWAP1 PUSH1 0x4 ADD PUSH2 0x1102 JUMP JUMPDEST SWAP8 SWAP1 SWAP9 DUP12 ISZERO PUSH2 0x10CB JUMPI POP PUSH1 0x40 MLOAD SWAP13 PUSH2 0x7C4 DUP15 PUSH2 0x112F JUMP JUMPDEST DUP14 CALLER DUP2 MSTORE PUSH1 0x20 ADD PUSH1 0x0 SWAP1 MSTORE CALLDATASIZE SWAP1 PUSH2 0x7DA SWAP3 PUSH2 0x116C JUMP JUMPDEST PUSH1 0x40 DUP14 ADD MSTORE PUSH1 0x0 PUSH1 0x60 DUP14 ADD DUP2 SWAP1 MSTORE PUSH1 0x80 DUP14 ADD MSTORE PUSH2 0x7F8 CALLDATASIZE DUP13 DUP12 PUSH2 0x116C JUMP JUMPDEST PUSH1 0xA0 DUP14 ADD MSTORE PUSH2 0x808 CALLDATASIZE DUP12 DUP16 PUSH2 0x116C JUMP JUMPDEST PUSH1 0xC0 DUP14 ADD MSTORE CALLDATASIZE SWAP1 PUSH2 0x818 SWAP3 PUSH2 0x116C JUMP JUMPDEST PUSH1 0xE0 DUP12 ADD MSTORE CALLDATASIZE SWAP1 PUSH2 0x828 SWAP3 PUSH2 0x116C JUMP JUMPDEST PUSH2 0x100 DUP10 ADD MSTORE CALLDATASIZE SWAP1 PUSH2 0x839 SWAP3 PUSH2 0x116C JUMP JUMPDEST PUSH2 0x120 DUP8 ADD MSTORE CALLDATASIZE SWAP1 PUSH2 0x84A SWAP3 PUSH2 0x116C JUMP JUMPDEST PUSH2 0x140 DUP6 ADD MSTORE PUSH1 0x40 SWAP2 DUP3 MLOAD PUSH2 0x85F DUP5 DUP3 PUSH2 0x114B JUMP JUMPDEST PUSH1 0x1 DUP2 MSTORE PUSH1 0x3 PUSH1 0xFC SHL PUSH1 0x20 DUP3 ADD MSTORE PUSH2 0x160 DUP7 ADD MSTORE PUSH1 0x0 PUSH2 0x180 DUP7 ADD MSTORE DUP3 MLOAD DUP2 DUP8 DUP3 CALLDATACOPY PUSH1 0x1 DUP3 DUP3 ADD DUP2 DUP2 MSTORE PUSH1 0x20 SWAP1 DUP4 SWAP1 SUB DUP2 ADD SWAP1 SWAP3 KECCAK256 DUP8 MLOAD DUP2 SLOAD PUSH1 0x1 PUSH1 0x1 PUSH1 0xA0 SHL SUB NOT SWAP1 DUP2 AND PUSH1 0x1 PUSH1 0x1 PUSH1 0xA0 SHL SUB SWAP3 DUP4 AND OR DUP4 SSTORE SWAP4 DUP10 ADD MLOAD SWAP3 DUP3 ADD DUP1 SLOAD SWAP1 SWAP5 AND SWAP3 AND SWAP2 SWAP1 SWAP2 OR SWAP1 SWAP2 SSTORE PUSH1 0x40 DUP7 ADD MLOAD DUP1 MLOAD PUSH1 0x2 DUP4 ADD SWAP2 PUSH1 0x1 PUSH1 0x1 PUSH1 0x40 SHL SUB DUP3 GT PUSH2 0x4C9 JUMPI PUSH2 0x8F5 DUP3 PUSH2 0x8EF DUP6 SLOAD PUSH2 0x1218 JUMP JUMPDEST DUP6 PUSH2 0x13FA JUMP JUMPDEST PUSH1 0x20 SWAP1 PUSH1 0x1F DUP4 GT PUSH1 0x1 EQ PUSH2 0x1064 JUMPI PUSH2 0x925 SWAP3 SWAP2 PUSH1 0x0 SWAP2 DUP4 PUSH2 0xDEF JUMPI POP POP DUP2 PUSH1 0x1 SHL SWAP2 PUSH1 0x0 NOT SWAP1 PUSH1 0x3 SHL SHR NOT AND OR SWAP1 JUMP JUMPDEST SWAP1 SSTORE JUMPDEST PUSH1 0x60 DUP7 ADD MLOAD PUSH1 0x3 DUP3 ADD SSTORE PUSH1 0x80 DUP7 ADD MLOAD PUSH1 0x4 DUP3 ADD SSTORE PUSH1 0x5 DUP2 ADD PUSH1 0xA0 DUP8 ADD MLOAD DUP1 MLOAD SWAP1 PUSH1 0x1 PUSH1 0x1 PUSH1 0x40 SHL SUB DUP3 GT PUSH2 0x4C9 JUMPI PUSH2 0x964 DUP3 PUSH2 0x8EF DUP6 SLOAD PUSH2 0x1218 JUMP JUMPDEST PUSH1 0x20 SWAP1 PUSH1 0x1F DUP4 GT PUSH1 0x1 EQ PUSH2 0xFFD JUMPI PUSH2 0x994 SWAP3 SWAP2 PUSH1 0x0 SWAP2 DUP4 PUSH2 0xDEF JUMPI POP POP DUP2 PUSH1 0x1 SHL SWAP2 PUSH1 0x0 NOT SWAP1 PUSH1 0x3 SHL SHR NOT AND OR SWAP1 JUMP JUMPDEST SWAP1 SSTORE JUMPDEST PUSH1 0x6 DUP2 ADD PUSH1 0xC0 DUP8 ADD MLOAD DUP1 MLOAD SWAP1 PUSH1 0x1 PUSH1 0x1 PUSH1 0x40 SHL SUB DUP3 GT PUSH2 0x4C9 JUMPI PUSH2 0x9BF DUP3 PUSH2 0x8EF DUP6 SLOAD PUSH2 0x1218 JUMP JUMPDEST PUSH1 0x20 SWAP1 PUSH1 0x1F DUP4 GT PUSH1 0x1 EQ PUSH2 0xF96 JUMPI PUSH2 0x9EF SWAP3 SWAP2 PUSH1 0x0 SWAP2 DUP4 PUSH2 0xDEF JUMPI POP POP DUP2 PUSH1 0x1 SHL SWAP2 PUSH1 0x0 NOT SWAP1 PUSH1 0x3 SHL SHR NOT AND OR SWAP1 JUMP JUMPDEST SWAP1 SSTORE JUMPDEST PUSH1 0x7 DUP2 ADD PUSH1 0xE0 DUP8 ADD MLOAD DUP1 MLOAD SWAP1 PUSH1 0x1 PUSH1 0x1 PUSH1 0x40 SHL SUB DUP3 GT PUSH2 0x4C9 JUMPI PUSH2 0xA1A DUP3 PUSH2 0x8EF DUP6 SLOAD PUSH2 0x1218 JUMP JUMPDEST PUSH1 0x20 SWAP1 PUSH1 0x1F DUP4 GT PUSH1 0x1 EQ PUSH2 0xF2F JUMPI PUSH2 0xA4A SWAP3 SWAP2 PUSH1 0x0 SWAP2 DUP4 PUSH2 0xDEF JUMPI POP POP DUP2 PUSH1 0x1 SHL SWAP2 PUSH1 0x0 NOT SWAP1 PUSH1 0x3 SHL SHR NOT AND OR SWAP1 JUMP JUMPDEST SWAP1 SSTORE JUMPDEST PUSH1 0x8 DUP2 ADD PUSH2 0x100 DUP8 ADD MLOAD DUP1 MLOAD SWAP1 PUSH1 0x1 PUSH1 0x1 PUSH1 0x40 SHL SUB DUP3 GT PUSH2 0x4C9 JUMPI PUSH2 0xA76 DUP3 PUSH2 0x8EF DUP6 SLOAD PUSH2 0x1218 JUMP JUMPDEST PUSH1 0x20 SWAP1 PUSH1 0x1F DUP4 GT PUSH1 0x1 EQ PUSH2 0xEC8 JUMPI PUSH2 0xAA6 SWAP3 SWAP2 PUSH1 0x0 SWAP2 DUP4 PUSH2 0xDEF JUMPI POP POP DUP2 PUSH1 0x1 SHL SWAP2 PUSH1 0x0 NOT SWAP1 PUSH1 0x3 SHL SHR NOT AND OR SWAP1 JUMP JUMPDEST SWAP1 SSTORE JUMPDEST PUSH1 0x9 DUP2 ADD PUSH2 0x120 DUP8 ADD MLOAD DUP1 MLOAD SWAP1 PUSH1 0x1 PUSH1 0x1 PUSH1 0x40 SHL SUB DUP3 GT PUSH2 0x4C9 JUMPI PUSH2 0xAD2 DUP3 PUSH2 0x8EF DUP6 SLOAD PUSH2 0x1218 JUMP JUMPDEST PUSH1 0x20 SWAP1 PUSH1 0x1F DUP4 GT PUSH1 0x1 EQ PUSH2 0xE61 JUMPI PUSH2 0xB02 SWAP3 SWAP2 PUSH1 0x0 SWAP2 DUP4 PUSH2 0xDEF JUMPI POP POP DUP2 PUSH1 0x1 SHL SWAP2 PUSH1 0x0 NOT SWAP1 PUSH1 0x3 SHL SHR NOT AND OR SWAP1 JUMP JUMPDEST SWAP1 SSTORE JUMPDEST PUSH1 0xA DUP2 ADD PUSH2 0x140 DUP8 ADD MLOAD DUP1 MLOAD SWAP1 PUSH1 0x1 PUSH1 0x1 PUSH1 0x40 SHL SUB DUP3 GT PUSH2 0x4C9 JUMPI PUSH2 0xB2E DUP3 PUSH2 0x8EF DUP6 SLOAD PUSH2 0x1218 JUMP JUMPDEST PUSH1 0x20 SWAP1 PUSH1 0x1F DUP4 GT PUSH1 0x1 EQ PUSH2 0xDFA JUMPI PUSH2 0xB5E SWAP3 SWAP2 PUSH1 0x0 SWAP2 DUP4 PUSH2 0xDEF JUMPI POP POP DUP2 PUSH1 0x1 SHL SWAP2 PUSH1 0x0 NOT SWAP1 PUSH1 0x3 SHL SHR NOT AND OR SWAP1 JUMP JUMPDEST SWAP1 SSTORE JUMPDEST PUSH1 0xB DUP2 ADD PUSH2 0x160 DUP8 ADD MLOAD DUP1 MLOAD SWAP1 PUSH1 0x1 PUSH1 0x1 PUSH1 0x40 SHL SUB DUP3 GT PUSH2 0x4C9 JUMPI PUSH2 0xB8A DUP3 PUSH2 0x8EF DUP6 SLOAD PUSH2 0x1218 JUMP JUMPDEST PUSH1 0x20 SWAP1 PUSH1 0x1F DUP4 GT PUSH1 0x1 EQ PUSH2 0xD81 JUMPI DUP3 PUSH2 0x180 SWAP6 SWAP4 PUSH1 0xC SWAP6 SWAP4 PUSH2 0xBC2 SWAP4 PUSH1 0x0 SWAP3 PUSH2 0xD76 JUMPI POP POP DUP2 PUSH1 0x1 SHL SWAP2 PUSH1 0x0 NOT SWAP1 PUSH1 0x3 SHL SHR NOT AND OR SWAP1 JUMP JUMPDEST SWAP1 SSTORE JUMPDEST ADD SWAP6 ADD MLOAD SWAP5 PUSH1 0x3 DUP7 LT ISZERO PUSH2 0x2C9 JUMPI PUSH1 0x0 SWAP6 PUSH1 0xFF DUP1 NOT DUP4 SLOAD AND SWAP2 AND OR SWAP1 SSTORE DUP5 SLOAD PUSH9 0x10000000000000000 DUP2 LT ISZERO PUSH2 0xD4E JUMPI DUP1 PUSH1 0x1 PUSH2 0xC04 SWAP3 ADD DUP8 SSTORE PUSH2 0x13CA JUMP JUMPDEST SWAP7 SWAP1 SWAP7 PUSH2 0xD62 JUMPI PUSH1 0x1 PUSH1 0x1 PUSH1 0x40 SHL SUB DUP3 GT PUSH2 0xD4E JUMPI PUSH2 0xC2D DUP3 PUSH2 0xC27 DUP10 SLOAD PUSH2 0x1218 JUMP JUMPDEST DUP10 PUSH2 0x13FA JUMP JUMPDEST DUP6 SWAP7 PUSH1 0x1F DUP4 GT PUSH1 0x1 EQ PUSH2 0xCCA JUMPI PUSH2 0xC7F DUP4 DUP1 DUP10 SWAP11 PUSH32 0x11419415138C694473A0C3F4F8E450395791888AB0252860FACC797811DBE668 SWAP9 SWAP10 SWAP11 SWAP2 PUSH2 0xCBF JUMPI JUMPDEST POP DUP2 PUSH1 0x1 SHL SWAP2 PUSH1 0x0 NOT SWAP1 PUSH1 0x3 SHL SHR NOT AND OR SWAP1 JUMP JUMPDEST SWAP1 SSTORE JUMPDEST DUP2 DUP6 MLOAD SWAP3 DUP4 SWAP3 DUP4 CALLDATACOPY DUP2 ADD DUP8 DUP2 MSTORE SUB SWAP1 KECCAK256 SWAP3 DUP5 DUP2 MLOAD SWAP3 PUSH1 0x20 DUP5 MSTORE DUP2 PUSH1 0x20 DUP6 ADD MSTORE DUP3 DUP5 ADD CALLDATACOPY DUP6 DUP2 DUP7 DUP5 ADD ADD MSTORE DUP2 CALLER SWAP6 PUSH1 0x1F DUP1 NOT SWAP2 ADD AND DUP2 ADD SUB ADD SWAP1 LOG3 DUP1 RETURN JUMPDEST SWAP1 POP DUP5 ADD CALLDATALOAD DUP12 PUSH2 0xC6B JUMP JUMPDEST DUP1 DUP8 MSTORE PUSH1 0x20 DUP8 KECCAK256 PUSH1 0x1F NOT DUP5 AND SWAP9 DUP9 JUMPDEST DUP11 DUP2 LT PUSH2 0xD36 JUMPI POP DUP5 PUSH32 0x11419415138C694473A0C3F4F8E450395791888AB0252860FACC797811DBE668 SWAP8 SWAP9 SWAP10 SWAP11 LT PUSH2 0xD1C JUMPI JUMPDEST POP POP PUSH1 0x1 DUP4 DUP2 SHL ADD SWAP1 SSTORE PUSH2 0xC82 JUMP JUMPDEST DUP4 ADD CALLDATALOAD PUSH1 0x0 NOT PUSH1 0x3 DUP7 SWAP1 SHL PUSH1 0xF8 AND SHR NOT AND SWAP1 SSTORE DUP9 DUP1 PUSH2 0xD0D JUMP JUMPDEST SWAP1 SWAP2 PUSH1 0x20 PUSH1 0x1 DUP2 SWAP3 DUP6 DUP9 ADD CALLDATALOAD DUP2 SSTORE ADD SWAP4 ADD SWAP2 ADD PUSH2 0xCD9 JUMP JUMPDEST PUSH4 0x4E487B71 PUSH1 0xE0 SHL DUP7 MSTORE PUSH1 0x41 PUSH1 0x4 MSTORE PUSH1 0x24 DUP7 REVERT JUMPDEST PUSH4 0x4E487B71 PUSH1 0xE0 SHL DUP7 MSTORE PUSH1 0x4 DUP7 SWAP1 MSTORE PUSH1 0x24 DUP7 REVERT JUMPDEST ADD MLOAD SWAP1 POP DUP14 DUP1 PUSH2 0x5DD JUMP JUMPDEST SWAP1 PUSH1 0x1F NOT DUP4 AND SWAP2 DUP5 PUSH1 0x0 MSTORE DUP2 PUSH1 0x0 KECCAK256 SWAP3 PUSH1 0x0 JUMPDEST DUP2 DUP2 LT PUSH2 0xDD7 JUMPI POP SWAP3 PUSH1 0x1 SWAP3 DUP6 SWAP3 PUSH2 0x180 SWAP9 SWAP7 PUSH1 0xC SWAP9 SWAP7 LT PUSH2 0xDBE JUMPI JUMPDEST POP POP POP DUP2 SHL ADD SWAP1 SSTORE PUSH2 0xBC5 JUMP JUMPDEST ADD MLOAD PUSH1 0x0 NOT PUSH1 0xF8 DUP5 PUSH1 0x3 SHL AND SHR NOT AND SWAP1 SSTORE DUP13 DUP1 DUP1 PUSH2 0xDB1 JUMP JUMPDEST SWAP3 SWAP4 PUSH1 0x20 PUSH1 0x1 DUP2 SWAP3 DUP8 DUP7 ADD MLOAD DUP2 SSTORE ADD SWAP6 ADD SWAP4 ADD PUSH2 0xD94 JUMP JUMPDEST ADD MLOAD SWAP1 POP DUP12 DUP1 PUSH2 0x5DD JUMP JUMPDEST SWAP1 PUSH1 0x1F NOT DUP4 AND SWAP2 DUP5 PUSH1 0x0 MSTORE DUP2 PUSH1 0x0 KECCAK256 SWAP3 PUSH1 0x0 JUMPDEST DUP2 DUP2 LT PUSH2 0xE49 JUMPI POP SWAP1 DUP5 PUSH1 0x1 SWAP6 SWAP5 SWAP4 SWAP3 LT PUSH2 0xE30 JUMPI JUMPDEST POP POP POP DUP2 SHL ADD SWAP1 SSTORE PUSH2 0xB61 JUMP JUMPDEST ADD MLOAD PUSH1 0x0 NOT PUSH1 0xF8 DUP5 PUSH1 0x3 SHL AND SHR NOT AND SWAP1 SSTORE DUP11 DUP1 DUP1 PUSH2 0xE23 JUMP JUMPDEST SWAP3 SWAP4 PUSH1 0x20 PUSH1 0x1 DUP2 SWAP3 DUP8 DUP7 ADD MLOAD DUP2 SSTORE ADD SWAP6 ADD SWAP4 ADD PUSH2 0xE0D JUMP JUMPDEST SWAP1 PUSH1 0x1F NOT DUP4 AND SWAP2 DUP5 PUSH1 0x0 MSTORE DUP2 PUSH1 0x0 KECCAK256 SWAP3 PUSH1 0x0 JUMPDEST DUP2 DUP2 LT PUSH2 0xEB0 JUMPI POP SWAP1 DUP5 PUSH1 0x1 SWAP6 SWAP5 SWAP4 SWAP3 LT PUSH2 0xE97 JUMPI JUMPDEST POP POP POP DUP2 SHL ADD SWAP1 SSTORE PUSH2 0xB05 JUMP JUMPDEST ADD MLOAD PUSH1 0x0 NOT PUSH1 0xF8 DUP5 PUSH1 0x3 SHL AND SHR NOT AND SWAP1 SSTORE DUP11 DUP1 DUP1 PUSH2 0xE8A JUMP JUMPDEST SWAP3 SWAP4 PUSH1 0x20 PUSH1 0x1 DUP2 SWAP3 DUP8 DUP7 ADD MLOAD DUP2 SSTORE ADD SWAP6 ADD SWAP4 ADD PUSH2 0xE74 JUMP JUMPDEST SWAP1 PUSH1 0x1F NOT DUP4 AND SWAP2 DUP5 PUSH1 0x0 MSTORE DUP2 PUSH1 0x0 KECCAK256 SWAP3 PUSH1 0x0 JUMPDEST DUP2 DUP2 LT PUSH2 0xF17 JUMPI POP SWAP1 DUP5 PUSH1 0x1 SWAP6 SWAP5 SWAP4 SWAP3 LT PUSH2 0xEFE JUMPI JUMPDEST POP POP POP DUP2 SHL ADD SWAP1 SSTORE PUSH2 0xAA9 JUMP JUMPDEST ADD MLOAD PUSH1 0x0 NOT PUSH1 0xF8 DUP5 PUSH1 0x3 SHL AND SHR NOT AND SWAP1 SSTORE DUP11 DUP1 DUP1 PUSH2 0xEF1 JUMP JUMPDEST SWAP3 SWAP4 PUSH1 0x20 PUSH1 0x1 DUP2 SWAP3 DUP8 DUP7 ADD MLOAD DUP2 SSTORE ADD SWAP6 ADD SWAP4 ADD PUSH2 0xEDB JUMP JUMPDEST SWAP1 PUSH1 0x1F NOT DUP4 AND SWAP2 DUP5 PUSH1 0x0 MSTORE DUP2 PUSH1 0x0 KECCAK256 SWAP3 PUSH1 0x0 JUMPDEST DUP2 DUP2 LT PUSH2 0xF7E JUMPI POP SWAP1 DUP5 PUSH1 0x1 SWAP6 SWAP5 SWAP4 SWAP3 LT PUSH2 0xF65 JUMPI JUMPDEST POP POP POP DUP2 SHL ADD SWAP1 SSTORE PUSH2 0xA4D JUMP JUMPDEST ADD MLOAD PUSH1 0x0 NOT PUSH1 0xF8 DUP5 PUSH1 0x3 SHL AND SHR NOT AND SWAP1 SSTORE DUP11 DUP1 DUP1 PUSH2 0xF58 JUMP JUMPDEST SWAP3 SWAP4 PUSH1 0x20 PUSH1 0x1 DUP2 SWAP3 DUP8 DUP7 ADD MLOAD DUP2 SSTORE ADD SWAP6 ADD SWAP4 ADD PUSH2 0xF42 JUMP JUMPDEST SWAP1 PUSH1 0x1F NOT DUP4 AND SWAP2 DUP5 PUSH1 0x0 MSTORE DUP2 PUSH1 0x0 KECCAK256 SWAP3 PUSH1 0x0 JUMPDEST DUP2 DUP2 LT PUSH2 0xFE5 JUMPI POP SWAP1 DUP5 PUSH1 0x1 SWAP6 SWAP5 SWAP4 SWAP3 LT PUSH2 0xFCC JUMPI JUMPDEST POP POP POP DUP2 SHL ADD SWAP1 SSTORE PUSH2 0x9F2 JUMP JUMPDEST ADD MLOAD PUSH1 0x0 NOT PUSH1 0xF8 DUP5 PUSH1 0x3 SHL AND SHR NOT AND SWAP1 SSTORE DUP11 DUP1 DUP1 PUSH2 0xFBF JUMP JUMPDEST SWAP3 SWAP4 PUSH1 0x20 PUSH1 0x1 DUP2 SWAP3 DUP8 DUP7 ADD MLOAD DUP2 SSTORE ADD SWAP6 ADD SWAP4 ADD PUSH2 0xFA9 JUMP JUMPDEST SWAP1 PUSH1 0x1F NOT DUP4 AND SWAP2 DUP5 PUSH1 0x0 MSTORE DUP2 PUSH1 0x0 KECCAK256 SWAP3 PUSH1 0x0 JUMPDEST DUP2 DUP2 LT PUSH2 0x104C JUMPI POP SWAP1 DUP5 PUSH1 0x1 SWAP6 SWAP5 SWAP4 SWAP3 LT PUSH2 0x1033 JUMPI JUMPDEST POP POP POP DUP2 SHL ADD SWAP1 SSTORE PUSH2 0x997 JUMP JUMPDEST ADD MLOAD PUSH1 0x0 NOT PUSH1 0xF8 DUP5 PUSH1 0x3 SHL AND SHR NOT AND SWAP1 SSTORE DUP11 DUP1 DUP1 PUSH2 0x1026 JUMP JUMPDEST SWAP3 SWAP4 PUSH1 0x20 PUSH1 0x1 DUP2 SWAP3 DUP8 DUP7 ADD MLOAD DUP2 SSTORE ADD SWAP6 ADD SWAP4 ADD PUSH2 0x1010 JUMP JUMPDEST SWAP1 PUSH1 0x1F NOT DUP4 AND SWAP2 DUP5 PUSH1 0x0 MSTORE DUP2 PUSH1 0x0 KECCAK256 SWAP3 PUSH1 0x0 JUMPDEST DUP2 DUP2 LT PUSH2 0x10B3 JUMPI POP SWAP1 DUP5 PUSH1 0x1 SWAP6 SWAP5 SWAP4 SWAP3 LT PUSH2 0x109A JUMPI JUMPDEST POP POP POP DUP2 SHL ADD SWAP1 SSTORE PUSH2 0x928 JUMP JUMPDEST ADD MLOAD PUSH1 0x0 NOT PUSH1 0xF8 DUP5 PUSH1 0x3 SHL AND SHR NOT AND SWAP1 SSTORE DUP11 DUP1 DUP1 PUSH2 0x108D JUMP JUMPDEST SWAP3 SWAP4 PUSH1 0x20 PUSH1 0x1 DUP2 SWAP3 DUP8 DUP7 ADD MLOAD DUP2 SSTORE ADD SWAP6 ADD SWAP4 ADD PUSH2 0x1077 JUMP JUMPDEST PUSH3 0x461BCD PUSH1 0xE5 SHL DUP2 MSTORE PUSH1 0x20 PUSH1 0x4 DUP3 ADD MSTORE PUSH1 0x12 PUSH1 0x24 DUP3 ADD MSTORE PUSH18 0x125B9D985B1A590814995C5D595CDD081251 PUSH1 0x72 SHL PUSH1 0x44 DUP3 ADD MSTORE PUSH1 0x64 SWAP1 REVERT JUMPDEST SWAP2 DUP2 PUSH1 0x1F DUP5 ADD SLT ISZERO PUSH2 0xD7 JUMPI DUP3 CALLDATALOAD SWAP2 PUSH1 0x1 PUSH1 0x1 PUSH1 0x40 SHL SUB DUP4 GT PUSH2 0xD7 JUMPI PUSH1 0x20 DUP4 DUP2 DUP7 ADD SWAP6 ADD ADD GT PUSH2 0xD7 JUMPI JUMP JUMPDEST PUSH2 0x1A0 DUP2 ADD SWAP1 DUP2 LT PUSH1 0x1 PUSH1 0x1 PUSH1 0x40 SHL SUB DUP3 GT OR PUSH2 0x4C9 JUMPI PUSH1 0x40 MSTORE JUMP JUMPDEST SWAP1 PUSH1 0x1F DUP1 NOT SWAP2 ADD AND DUP2 ADD SWAP1 DUP2 LT PUSH1 0x1 PUSH1 0x1 PUSH1 0x40 SHL SUB DUP3 GT OR PUSH2 0x4C9 JUMPI PUSH1 0x40 MSTORE JUMP JUMPDEST SWAP3 SWAP2 SWAP3 PUSH1 0x1 PUSH1 0x1 PUSH1 0x40 SHL SUB DUP3 GT PUSH2 0x4C9 JUMPI PUSH1 0x40 MLOAD SWAP2 PUSH2 0x1195 PUSH1 0x1F DUP3 ADD PUSH1 0x1F NOT AND PUSH1 0x20 ADD DUP5 PUSH2 0x114B JUMP JUMPDEST DUP3 SWAP5 DUP2 DUP5 MSTORE DUP2 DUP4 ADD GT PUSH2 0xD7 JUMPI DUP3 DUP2 PUSH1 0x20 SWAP4 DUP5 PUSH1 0x0 SWAP7 ADD CALLDATACOPY ADD ADD MSTORE JUMP JUMPDEST SWAP1 DUP1 PUSH1 0x1F DUP4 ADD SLT ISZERO PUSH2 0xD7 JUMPI DUP2 PUSH1 0x20 PUSH2 0x11CD SWAP4 CALLDATALOAD SWAP2 ADD PUSH2 0x116C JUMP JUMPDEST SWAP1 JUMP JUMPDEST PUSH1 0x0 JUMPDEST DUP4 DUP2 LT PUSH2 0x11E3 JUMPI POP POP PUSH1 0x0 SWAP2 ADD MSTORE JUMP JUMPDEST DUP2 DUP2 ADD MLOAD DUP4 DUP3 ADD MSTORE PUSH1 0x20 ADD PUSH2 0x11D3 JUMP JUMPDEST SWAP1 PUSH1 0x20 SWAP2 PUSH2 0x120C DUP2 MLOAD DUP1 SWAP3 DUP2 DUP6 MSTORE DUP6 DUP1 DUP7 ADD SWAP2 ADD PUSH2 0x11D0 JUMP JUMPDEST PUSH1 0x1F ADD PUSH1 0x1F NOT AND ADD ADD SWAP1 JUMP JUMPDEST SWAP1 PUSH1 0x1 DUP3 DUP2 SHR SWAP3 AND DUP1 ISZERO PUSH2 0x1248 JUMPI JUMPDEST PUSH1 0x20 DUP4 LT EQ PUSH2 0x1232 JUMPI JUMP JUMPDEST PUSH4 0x4E487B71 PUSH1 0xE0 SHL PUSH1 0x0 MSTORE PUSH1 0x22 PUSH1 0x4 MSTORE PUSH1 0x24 PUSH1 0x0 REVERT JUMPDEST SWAP2 PUSH1 0x7F AND SWAP2 PUSH2 0x1227 JUMP JUMPDEST SWAP1 PUSH1 0x40 MLOAD SWAP2 DUP3 PUSH1 0x0 DUP3 SLOAD SWAP3 PUSH2 0x1266 DUP5 PUSH2 0x1218 JUMP JUMPDEST DUP1 DUP5 MSTORE SWAP4 PUSH1 0x1 DUP2 AND SWAP1 DUP2 ISZERO PUSH2 0x12D4 JUMPI POP PUSH1 0x1 EQ PUSH2 0x128D JUMPI JUMPDEST POP PUSH2 0x128B SWAP3 POP SUB DUP4 PUSH2 0x114B JUMP JUMPDEST JUMP JUMPDEST SWAP1 POP PUSH1 0x0 SWAP3 SWAP2 SWAP3 MSTORE PUSH1 0x20 PUSH1 0x0 KECCAK256 SWAP1 PUSH1 0x0 SWAP2 JUMPDEST DUP2 DUP4 LT PUSH2 0x12B8 JUMPI POP POP SWAP1 PUSH1 0x20 PUSH2 0x128B SWAP3 DUP3 ADD ADD CODESIZE PUSH2 0x127E JUMP JUMPDEST PUSH1 0x20 SWAP2 SWAP4 POP DUP1 PUSH1 0x1 SWAP2 SLOAD DUP4 DUP6 DUP10 ADD ADD MSTORE ADD SWAP2 ADD SWAP1 SWAP2 DUP5 SWAP3 PUSH2 0x129F JUMP JUMPDEST SWAP1 POP PUSH1 0x20 SWAP3 POP PUSH2 0x128B SWAP5 SWAP2 POP PUSH1 0xFF NOT AND DUP3 DUP5 ADD MSTORE ISZERO ISZERO PUSH1 0x5 SHL DUP3 ADD ADD CODESIZE PUSH2 0x127E JUMP JUMPDEST PUSH2 0x139B SWAP8 DUP2 SWAP16 SWAP15 SWAP14 SWAP12 SWAP8 PUSH2 0x13AA SWAP12 SWAP7 PUSH2 0x1361 SWAP2 PUSH2 0x13B9 SWAP16 SWAP13 SWAP7 SWAP10 PUSH2 0x1349 PUSH2 0x137D SWAP10 PUSH2 0x138C SWAP13 PUSH2 0x136F SWAP10 PUSH1 0x1 DUP1 PUSH1 0xA0 SHL SUB AND DUP10 MSTORE PUSH1 0x1 DUP1 PUSH1 0xA0 SHL SUB AND PUSH1 0x20 DUP10 ADD MSTORE PUSH2 0x1A0 PUSH1 0x40 DUP10 ADD MSTORE PUSH2 0x1A0 DUP9 ADD SWAP1 PUSH2 0x11F3 JUMP JUMPDEST SWAP3 PUSH1 0x60 DUP8 ADD MSTORE PUSH1 0x80 DUP7 ADD MSTORE DUP5 DUP3 SUB PUSH1 0xA0 DUP7 ADD MSTORE PUSH2 0x11F3 JUMP JUMPDEST SWAP2 PUSH1 0xC0 DUP2 DUP5 SUB SWAP2 ADD MSTORE PUSH2 0x11F3 JUMP JUMPDEST DUP14 DUP2 SUB PUSH1 0xE0 DUP16 ADD MSTORE SWAP1 PUSH2 0x11F3 JUMP JUMPDEST SWAP1 DUP12 DUP3 SUB PUSH2 0x100 DUP14 ADD MSTORE PUSH2 0x11F3 JUMP JUMPDEST SWAP1 DUP10 DUP3 SUB PUSH2 0x120 DUP12 ADD MSTORE PUSH2 0x11F3 JUMP JUMPDEST SWAP1 DUP8 DUP3 SUB PUSH2 0x140 DUP10 ADD MSTORE PUSH2 0x11F3 JUMP JUMPDEST SWAP1 DUP6 DUP3 SUB PUSH2 0x160 DUP8 ADD MSTORE PUSH2 0x11F3 JUMP JUMPDEST SWAP3 PUSH1 0x3 DUP3 LT ISZERO PUSH2 0x2C9 JUMPI PUSH2 0x180 ADD MSTORE JUMP JUMPDEST PUSH1 0x0 SLOAD DUP2 LT ISZERO PUSH2 0x13E4 JUMPI PUSH1 0x0 DUP1 MSTORE PUSH1 0x20 PUSH1 0x0 KECCAK256 ADD SWAP1 PUSH1 0x0 SWAP1 JUMP JUMPDEST PUSH4 0x4E487B71 PUSH1 0xE0 SHL PUSH1 0x0 MSTORE PUSH1 0x32 PUSH1 0x4 MSTORE PUSH1 0x24 PUSH1 0x0 REVERT JUMPDEST PUSH1 0x1F DUP3 GT PUSH2 0x1407 JUMPI POP POP POP JUMP JUMPDEST PUSH1 0x0 MSTORE PUSH1 0x20 PUSH1 0x0 KECCAK256 SWAP1 PUSH1 0x20 PUSH1 0x1F DUP5 ADD PUSH1 0x5 SHR DUP4 ADD SWAP4 LT PUSH2 0x1442 JUMPI JUMPDEST PUSH1 0x1F ADD PUSH1 0x5 SHR ADD SWAP1 JUMPDEST DUP2 DUP2 LT PUSH2 0x1436 JUMPI POP POP JUMP JUMPDEST PUSH1 0x0 DUP2 SSTORE PUSH1 0x1 ADD PUSH2 0x142B JUMP JUMPDEST SWAP1 SWAP2 POP DUP2 SWAP1 PUSH2 0x1422 JUMP JUMPDEST ISZERO PUSH2 0x1453 JUMPI JUMP JUMPDEST PUSH1 0x40 MLOAD PUSH3 0x461BCD PUSH1 0xE5 SHL DUP2 MSTORE PUSH1 0x20 PUSH1 0x4 DUP3 ADD MSTORE PUSH1 0xF PUSH1 0x24 DUP3 ADD MSTORE PUSH15 0x125B9D985B1A590812510813D8985D PUSH1 0x8A SHL PUSH1 0x44 DUP3 ADD MSTORE PUSH1 0x64 SWAP1 REVERT INVALID LOG2 PUSH5 0x6970667358 0x22 SLT KECCAK256 DUP2 CREATE2 0xB8 MOD 0xE5 0xA6 0xDE SLT 0xBF PUSH3 0xAD226C PUSH30 0x8D766DCAE6CE2F3960558804B58A4717A5DB64736F6C634300081B003300 "},"methodIdentifiers":{"get_all_obat()":"49bd9672","get_obat_byId(string)":"a6dddde3","idObat(uint256)":"c723c191","nie_approve(string,string)":"0f39431c","nie_request(string)":"e960ae5e","obatData(string)":"75711f49","obat_production(string,string,string,string,string,string,string)":"0e96e278"}}}}}