{"contracts/MainSupplyChain.sol":{"MainSupplyChain":{"abi":[{"inputs":[],"stateMutability":"nonpayable","type":"constructor"},{"anonymous":false,"inputs":[{"indexed":true,"internalType":"address","name":"userAddr","type":"address"},{"indexed":false,"internalType":"string","name":"name","type":"string"},{"indexed":false,"internalType":"enum MainSupplyChain.en_roles","name":"userRole","type":"uint8"}],"name":"registeredUser","type":"event"},{"inputs":[{"internalType":"address","name":"userAddr","type":"address"}],"name":"getRegisteredUser","outputs":[{"internalType":"address","name":"","type":"address"},{"internalType":"string","name":"","type":"string"}],"stateMutability":"view","type":"function"},{"inputs":[],"name":"owner","outputs":[{"internalType":"address","name":"","type":"address"}],"stateMutability":"view","type":"function"},{"inputs":[{"internalType":"string","name":"_name","type":"string"},{"internalType":"string","name":"_email","type":"string"},{"internalType":"address","name":"_userAddr","type":"address"},{"internalType":"uint8","name":"_userRole","type":"uint8"}],"name":"registerUser","outputs":[],"stateMutability":"nonpayable","type":"function"},{"inputs":[{"internalType":"address","name":"","type":"address"}],"name":"userData","outputs":[{"internalType":"string","name":"name","type":"string"},{"internalType":"string","name":"email","type":"string"},{"internalType":"address","name":"userAddr","type":"address"},{"internalType":"enum MainSupplyChain.en_roles","name":"userRole","type":"uint8"}],"stateMutability":"view","type":"function"}],"evm":{"bytecode":{"linkReferences":{},"object":"60808060405234602757600080546001600160a01b031916331790556107ec908161002d8239f35b600080fdfe608080604052600436101561001357600080fd5b60003560e01c9081638da5cb5b146105af57508063c891091314610519578063d1233672146100fe5763e54a29bb1461004b57600080fd5b346100f95760203660031901126100f9576001600160a01b0361006c6105d3565b166000526001602052604060002060026040519161008983610623565b61009281610661565b83526100a060018201610661565b602084015201546001600160a01b03811660408301908152906100cc9060a01c60ff16606084016107aa565b519051604080516001600160a01b0390931683526020830181905282916100f591830190610705565b0390f35b600080fd5b346100f95760803660031901126100f95760043567ffffffffffffffff81116100f95761012f903690600401610753565b60243567ffffffffffffffff81116100f95761014f903690600401610753565b6044356001600160a01b0381169291908390036100f9576064359160ff83168093036100f9576000546001600160a01b031633036104b5576005831015610308576040519261019d84610623565b81845260208401928352604084019385855260608101936101be83866107aa565b8660005260016020526040600020915180519067ffffffffffffffff82116103dc5781906101ec85546105e9565b601f8111610462575b50602090601f83116001146103fd576000926103f2575b50508160011b916000199060031b1c19161782555b518051600183019167ffffffffffffffff82116103dc5761024283546105e9565b601f8111610394575b50602090601f8311600114610329576002949392916000918361031e575b50508160011b916000199060031b1c19161790555b94519401805493516001600160a01b0390951694936005851015610308577f5bd66200a5ac3b75fa4ca8566f6133dc586294c1b2be35fe5e67ddf97126b056956102f89560ff60a01b9060a01b16916affffffffffffffffffffff60a81b1617179055610303604051938493604085526040850190610705565b916020840190610746565b0390a2005b634e487b7160e01b600052602160045260246000fd5b015190508a80610269565b90601f1983169184600052816000209260005b81811061037c575091600193918560029897969410610363575b505050811b01905561027e565b015160001960f88460031b161c191690558a8080610356565b9293602060018192878601518155019501930161033c565b836000526020600020601f840160051c810191602085106103d2575b601f0160051c01905b8181106103c6575061024b565b600081556001016103b9565b90915081906103b0565b634e487b7160e01b600052604160045260246000fd5b01519050898061020c565b60008681528281209350601f198516905b81811061044a5750908460019594939210610431575b505050811b018255610221565b015160001960f88460031b161c19169055898080610424565b9293602060018192878601518155019501930161040e565b909150846000526020600020601f840160051c810191602085106104ab575b90601f859493920160051c01905b81811061049c57506101f5565b6000815584935060010161048f565b9091508190610481565b60405162461bcd60e51b815260206004820152603660248201527f536f7272792c20796f7520646f6e2774206861766520617574686f72697a6174604482015275696f6e20746f2061636365737320746865206461746160501b6064820152608490fd5b346100f95760203660031901126100f9576001600160a01b0361053a6105d3565b166000526001602052610581604060002061055481610661565b906100f561058f600261056960018501610661565b93015492604051958695608087526080870190610705565b908582036020870152610705565b6001600160a01b038316604085015291606084019060a01c60ff16610746565b346100f95760003660031901126100f9576000546001600160a01b03168152602090f35b600435906001600160a01b03821682036100f957565b90600182811c92168015610619575b602083101461060357565b634e487b7160e01b600052602260045260246000fd5b91607f16916105f8565b6080810190811067ffffffffffffffff8211176103dc57604052565b90601f8019910116810190811067ffffffffffffffff8211176103dc57604052565b9060405191826000825492610675846105e9565b80845293600181169081156106e3575060011461069c575b5061069a9250038361063f565b565b90506000929192526020600020906000915b8183106106c757505090602061069a928201013861068d565b60209193508060019154838589010152019101909184926106ae565b90506020925061069a94915060ff191682840152151560051b8201013861068d565b919082519283825260005b848110610731575050826000602080949584010152601f8019910116010190565b80602080928401015182828601015201610710565b9060058210156103085752565b81601f820112156100f95780359067ffffffffffffffff82116103dc5760405192610788601f8401601f19166020018561063f565b828452602083830101116100f957816000926020809301838601378301015290565b6005821015610308575256fea264697066735822122034062a94c912b97903ad12851e14b227736db87256001bbcba34138691e29ad164736f6c634300081b0033","opcodes":"PUSH1 0x80 DUP1 PUSH1 0x40 MSTORE CALLVALUE PUSH1 0x27 JUMPI PUSH1 0x0 DUP1 SLOAD PUSH1 0x1 PUSH1 0x1 PUSH1 0xA0 SHL SUB NOT AND CALLER OR SWAP1 SSTORE PUSH2 0x7EC SWAP1 DUP2 PUSH2 0x2D DUP3 CODECOPY RETURN JUMPDEST PUSH1 0x0 DUP1 REVERT INVALID PUSH1 0x80 DUP1 PUSH1 0x40 MSTORE PUSH1 0x4 CALLDATASIZE LT ISZERO PUSH2 0x13 JUMPI PUSH1 0x0 DUP1 REVERT JUMPDEST PUSH1 0x0 CALLDATALOAD PUSH1 0xE0 SHR SWAP1 DUP2 PUSH4 0x8DA5CB5B EQ PUSH2 0x5AF JUMPI POP DUP1 PUSH4 0xC8910913 EQ PUSH2 0x519 JUMPI DUP1 PUSH4 0xD1233672 EQ PUSH2 0xFE JUMPI PUSH4 0xE54A29BB EQ PUSH2 0x4B JUMPI PUSH1 0x0 DUP1 REVERT JUMPDEST CALLVALUE PUSH2 0xF9 JUMPI PUSH1 0x20 CALLDATASIZE PUSH1 0x3 NOT ADD SLT PUSH2 0xF9 JUMPI PUSH1 0x1 PUSH1 0x1 PUSH1 0xA0 SHL SUB PUSH2 0x6C PUSH2 0x5D3 JUMP JUMPDEST AND PUSH1 0x0 MSTORE PUSH1 0x1 PUSH1 0x20 MSTORE PUSH1 0x40 PUSH1 0x0 KECCAK256 PUSH1 0x2 PUSH1 0x40 MLOAD SWAP2 PUSH2 0x89 DUP4 PUSH2 0x623 JUMP JUMPDEST PUSH2 0x92 DUP2 PUSH2 0x661 JUMP JUMPDEST DUP4 MSTORE PUSH2 0xA0 PUSH1 0x1 DUP3 ADD PUSH2 0x661 JUMP JUMPDEST PUSH1 0x20 DUP5 ADD MSTORE ADD SLOAD PUSH1 0x1 PUSH1 0x1 PUSH1 0xA0 SHL SUB DUP2 AND PUSH1 0x40 DUP4 ADD SWAP1 DUP2 MSTORE SWAP1 PUSH2 0xCC SWAP1 PUSH1 0xA0 SHR PUSH1 0xFF AND PUSH1 0x60 DUP5 ADD PUSH2 0x7AA JUMP JUMPDEST MLOAD SWAP1 MLOAD PUSH1 0x40 DUP1 MLOAD PUSH1 0x1 PUSH1 0x1 PUSH1 0xA0 SHL SUB SWAP1 SWAP4 AND DUP4 MSTORE PUSH1 0x20 DUP4 ADD DUP2 SWAP1 MSTORE DUP3 SWAP2 PUSH2 0xF5 SWAP2 DUP4 ADD SWAP1 PUSH2 0x705 JUMP JUMPDEST SUB SWAP1 RETURN JUMPDEST PUSH1 0x0 DUP1 REVERT JUMPDEST CALLVALUE PUSH2 0xF9 JUMPI PUSH1 0x80 CALLDATASIZE PUSH1 0x3 NOT ADD SLT PUSH2 0xF9 JUMPI PUSH1 0x4 CALLDATALOAD PUSH8 0xFFFFFFFFFFFFFFFF DUP2 GT PUSH2 0xF9 JUMPI PUSH2 0x12F SWAP1 CALLDATASIZE SWAP1 PUSH1 0x4 ADD PUSH2 0x753 JUMP JUMPDEST PUSH1 0x24 CALLDATALOAD PUSH8 0xFFFFFFFFFFFFFFFF DUP2 GT PUSH2 0xF9 JUMPI PUSH2 0x14F SWAP1 CALLDATASIZE SWAP1 PUSH1 0x4 ADD PUSH2 0x753 JUMP JUMPDEST PUSH1 0x44 CALLDATALOAD PUSH1 0x1 PUSH1 0x1 PUSH1 0xA0 SHL SUB DUP2 AND SWAP3 SWAP2 SWAP1 DUP4 SWAP1 SUB PUSH2 0xF9 JUMPI PUSH1 0x64 CALLDATALOAD SWAP2 PUSH1 0xFF DUP4 AND DUP1 SWAP4 SUB PUSH2 0xF9 JUMPI PUSH1 0x0 SLOAD PUSH1 0x1 PUSH1 0x1 PUSH1 0xA0 SHL SUB AND CALLER SUB PUSH2 0x4B5 JUMPI PUSH1 0x5 DUP4 LT ISZERO PUSH2 0x308 JUMPI PUSH1 0x40 MLOAD SWAP3 PUSH2 0x19D DUP5 PUSH2 0x623 JUMP JUMPDEST DUP2 DUP5 MSTORE PUSH1 0x20 DUP5 ADD SWAP3 DUP4 MSTORE PUSH1 0x40 DUP5 ADD SWAP4 DUP6 DUP6 MSTORE PUSH1 0x60 DUP2 ADD SWAP4 PUSH2 0x1BE DUP4 DUP7 PUSH2 0x7AA JUMP JUMPDEST DUP7 PUSH1 0x0 MSTORE PUSH1 0x1 PUSH1 0x20 MSTORE PUSH1 0x40 PUSH1 0x0 KECCAK256 SWAP2 MLOAD DUP1 MLOAD SWAP1 PUSH8 0xFFFFFFFFFFFFFFFF DUP3 GT PUSH2 0x3DC JUMPI DUP2 SWAP1 PUSH2 0x1EC DUP6 SLOAD PUSH2 0x5E9 JUMP JUMPDEST PUSH1 0x1F DUP2 GT PUSH2 0x462 JUMPI JUMPDEST POP PUSH1 0x20 SWAP1 PUSH1 0x1F DUP4 GT PUSH1 0x1 EQ PUSH2 0x3FD JUMPI PUSH1 0x0 SWAP3 PUSH2 0x3F2 JUMPI JUMPDEST POP POP DUP2 PUSH1 0x1 SHL SWAP2 PUSH1 0x0 NOT SWAP1 PUSH1 0x3 SHL SHR NOT AND OR DUP3 SSTORE JUMPDEST MLOAD DUP1 MLOAD PUSH1 0x1 DUP4 ADD SWAP2 PUSH8 0xFFFFFFFFFFFFFFFF DUP3 GT PUSH2 0x3DC JUMPI PUSH2 0x242 DUP4 SLOAD PUSH2 0x5E9 JUMP JUMPDEST PUSH1 0x1F DUP2 GT PUSH2 0x394 JUMPI JUMPDEST POP PUSH1 0x20 SWAP1 PUSH1 0x1F DUP4 GT PUSH1 0x1 EQ PUSH2 0x329 JUMPI PUSH1 0x2 SWAP5 SWAP4 SWAP3 SWAP2 PUSH1 0x0 SWAP2 DUP4 PUSH2 0x31E JUMPI JUMPDEST POP POP DUP2 PUSH1 0x1 SHL SWAP2 PUSH1 0x0 NOT SWAP1 PUSH1 0x3 SHL SHR NOT AND OR SWAP1 SSTORE JUMPDEST SWAP5 MLOAD SWAP5 ADD DUP1 SLOAD SWAP4 MLOAD PUSH1 0x1 PUSH1 0x1 PUSH1 0xA0 SHL SUB SWAP1 SWAP6 AND SWAP5 SWAP4 PUSH1 0x5 DUP6 LT ISZERO PUSH2 0x308 JUMPI PUSH32 0x5BD66200A5AC3B75FA4CA8566F6133DC586294C1B2BE35FE5E67DDF97126B056 SWAP6 PUSH2 0x2F8 SWAP6 PUSH1 0xFF PUSH1 0xA0 SHL SWAP1 PUSH1 0xA0 SHL AND SWAP2 PUSH11 0xFFFFFFFFFFFFFFFFFFFFFF PUSH1 0xA8 SHL AND OR OR SWAP1 SSTORE PUSH2 0x303 PUSH1 0x40 MLOAD SWAP4 DUP5 SWAP4 PUSH1 0x40 DUP6 MSTORE PUSH1 0x40 DUP6 ADD SWAP1 PUSH2 0x705 JUMP JUMPDEST SWAP2 PUSH1 0x20 DUP5 ADD SWAP1 PUSH2 0x746 JUMP JUMPDEST SUB SWAP1 LOG2 STOP JUMPDEST PUSH4 0x4E487B71 PUSH1 0xE0 SHL PUSH1 0x0 MSTORE PUSH1 0x21 PUSH1 0x4 MSTORE PUSH1 0x24 PUSH1 0x0 REVERT JUMPDEST ADD MLOAD SWAP1 POP DUP11 DUP1 PUSH2 0x269 JUMP JUMPDEST SWAP1 PUSH1 0x1F NOT DUP4 AND SWAP2 DUP5 PUSH1 0x0 MSTORE DUP2 PUSH1 0x0 KECCAK256 SWAP3 PUSH1 0x0 JUMPDEST DUP2 DUP2 LT PUSH2 0x37C JUMPI POP SWAP2 PUSH1 0x1 SWAP4 SWAP2 DUP6 PUSH1 0x2 SWAP9 SWAP8 SWAP7 SWAP5 LT PUSH2 0x363 JUMPI JUMPDEST POP POP POP DUP2 SHL ADD SWAP1 SSTORE PUSH2 0x27E JUMP JUMPDEST ADD MLOAD PUSH1 0x0 NOT PUSH1 0xF8 DUP5 PUSH1 0x3 SHL AND SHR NOT AND SWAP1 SSTORE DUP11 DUP1 DUP1 PUSH2 0x356 JUMP JUMPDEST SWAP3 SWAP4 PUSH1 0x20 PUSH1 0x1 DUP2 SWAP3 DUP8 DUP7 ADD MLOAD DUP2 SSTORE ADD SWAP6 ADD SWAP4 ADD PUSH2 0x33C JUMP JUMPDEST DUP4 PUSH1 0x0 MSTORE PUSH1 0x20 PUSH1 0x0 KECCAK256 PUSH1 0x1F DUP5 ADD PUSH1 0x5 SHR DUP2 ADD SWAP2 PUSH1 0x20 DUP6 LT PUSH2 0x3D2 JUMPI JUMPDEST PUSH1 0x1F ADD PUSH1 0x5 SHR ADD SWAP1 JUMPDEST DUP2 DUP2 LT PUSH2 0x3C6 JUMPI POP PUSH2 0x24B JUMP JUMPDEST PUSH1 0x0 DUP2 SSTORE PUSH1 0x1 ADD PUSH2 0x3B9 JUMP JUMPDEST SWAP1 SWAP2 POP DUP2 SWAP1 PUSH2 0x3B0 JUMP JUMPDEST PUSH4 0x4E487B71 PUSH1 0xE0 SHL PUSH1 0x0 MSTORE PUSH1 0x41 PUSH1 0x4 MSTORE PUSH1 0x24 PUSH1 0x0 REVERT JUMPDEST ADD MLOAD SWAP1 POP DUP10 DUP1 PUSH2 0x20C JUMP JUMPDEST PUSH1 0x0 DUP7 DUP2 MSTORE DUP3 DUP2 KECCAK256 SWAP4 POP PUSH1 0x1F NOT DUP6 AND SWAP1 JUMPDEST DUP2 DUP2 LT PUSH2 0x44A JUMPI POP SWAP1 DUP5 PUSH1 0x1 SWAP6 SWAP5 SWAP4 SWAP3 LT PUSH2 0x431 JUMPI JUMPDEST POP POP POP DUP2 SHL ADD DUP3 SSTORE PUSH2 0x221 JUMP JUMPDEST ADD MLOAD PUSH1 0x0 NOT PUSH1 0xF8 DUP5 PUSH1 0x3 SHL AND SHR NOT AND SWAP1 SSTORE DUP10 DUP1 DUP1 PUSH2 0x424 JUMP JUMPDEST SWAP3 SWAP4 PUSH1 0x20 PUSH1 0x1 DUP2 SWAP3 DUP8 DUP7 ADD MLOAD DUP2 SSTORE ADD SWAP6 ADD SWAP4 ADD PUSH2 0x40E JUMP JUMPDEST SWAP1 SWAP2 POP DUP5 PUSH1 0x0 MSTORE PUSH1 0x20 PUSH1 0x0 KECCAK256 PUSH1 0x1F DUP5 ADD PUSH1 0x5 SHR DUP2 ADD SWAP2 PUSH1 0x20 DUP6 LT PUSH2 0x4AB JUMPI JUMPDEST SWAP1 PUSH1 0x1F DUP6 SWAP5 SWAP4 SWAP3 ADD PUSH1 0x5 SHR ADD SWAP1 JUMPDEST DUP2 DUP2 LT PUSH2 0x49C JUMPI POP PUSH2 0x1F5 JUMP JUMPDEST PUSH1 0x0 DUP2 SSTORE DUP5 SWAP4 POP PUSH1 0x1 ADD PUSH2 0x48F JUMP JUMPDEST SWAP1 SWAP2 POP DUP2 SWAP1 PUSH2 0x481 JUMP JUMPDEST PUSH1 0x40 MLOAD PUSH3 0x461BCD PUSH1 0xE5 SHL DUP2 MSTORE PUSH1 0x20 PUSH1 0x4 DUP3 ADD MSTORE PUSH1 0x36 PUSH1 0x24 DUP3 ADD MSTORE PUSH32 0x536F7272792C20796F7520646F6E2774206861766520617574686F72697A6174 PUSH1 0x44 DUP3 ADD MSTORE PUSH22 0x696F6E20746F20616363657373207468652064617461 PUSH1 0x50 SHL PUSH1 0x64 DUP3 ADD MSTORE PUSH1 0x84 SWAP1 REVERT JUMPDEST CALLVALUE PUSH2 0xF9 JUMPI PUSH1 0x20 CALLDATASIZE PUSH1 0x3 NOT ADD SLT PUSH2 0xF9 JUMPI PUSH1 0x1 PUSH1 0x1 PUSH1 0xA0 SHL SUB PUSH2 0x53A PUSH2 0x5D3 JUMP JUMPDEST AND PUSH1 0x0 MSTORE PUSH1 0x1 PUSH1 0x20 MSTORE PUSH2 0x581 PUSH1 0x40 PUSH1 0x0 KECCAK256 PUSH2 0x554 DUP2 PUSH2 0x661 JUMP JUMPDEST SWAP1 PUSH2 0xF5 PUSH2 0x58F PUSH1 0x2 PUSH2 0x569 PUSH1 0x1 DUP6 ADD PUSH2 0x661 JUMP JUMPDEST SWAP4 ADD SLOAD SWAP3 PUSH1 0x40 MLOAD SWAP6 DUP7 SWAP6 PUSH1 0x80 DUP8 MSTORE PUSH1 0x80 DUP8 ADD SWAP1 PUSH2 0x705 JUMP JUMPDEST SWAP1 DUP6 DUP3 SUB PUSH1 0x20 DUP8 ADD MSTORE PUSH2 0x705 JUMP JUMPDEST PUSH1 0x1 PUSH1 0x1 PUSH1 0xA0 SHL SUB DUP4 AND PUSH1 0x40 DUP6 ADD MSTORE SWAP2 PUSH1 0x60 DUP5 ADD SWAP1 PUSH1 0xA0 SHR PUSH1 0xFF AND PUSH2 0x746 JUMP JUMPDEST CALLVALUE PUSH2 0xF9 JUMPI PUSH1 0x0 CALLDATASIZE PUSH1 0x3 NOT ADD SLT PUSH2 0xF9 JUMPI PUSH1 0x0 SLOAD PUSH1 0x1 PUSH1 0x1 PUSH1 0xA0 SHL SUB AND DUP2 MSTORE PUSH1 0x20 SWAP1 RETURN JUMPDEST PUSH1 0x4 CALLDATALOAD SWAP1 PUSH1 0x1 PUSH1 0x1 PUSH1 0xA0 SHL SUB DUP3 AND DUP3 SUB PUSH2 0xF9 JUMPI JUMP JUMPDEST SWAP1 PUSH1 0x1 DUP3 DUP2 SHR SWAP3 AND DUP1 ISZERO PUSH2 0x619 JUMPI JUMPDEST PUSH1 0x20 DUP4 LT EQ PUSH2 0x603 JUMPI JUMP JUMPDEST PUSH4 0x4E487B71 PUSH1 0xE0 SHL PUSH1 0x0 MSTORE PUSH1 0x22 PUSH1 0x4 MSTORE PUSH1 0x24 PUSH1 0x0 REVERT JUMPDEST SWAP2 PUSH1 0x7F AND SWAP2 PUSH2 0x5F8 JUMP JUMPDEST PUSH1 0x80 DUP2 ADD SWAP1 DUP2 LT PUSH8 0xFFFFFFFFFFFFFFFF DUP3 GT OR PUSH2 0x3DC JUMPI PUSH1 0x40 MSTORE JUMP JUMPDEST SWAP1 PUSH1 0x1F DUP1 NOT SWAP2 ADD AND DUP2 ADD SWAP1 DUP2 LT PUSH8 0xFFFFFFFFFFFFFFFF DUP3 GT OR PUSH2 0x3DC JUMPI PUSH1 0x40 MSTORE JUMP JUMPDEST SWAP1 PUSH1 0x40 MLOAD SWAP2 DUP3 PUSH1 0x0 DUP3 SLOAD SWAP3 PUSH2 0x675 DUP5 PUSH2 0x5E9 JUMP JUMPDEST DUP1 DUP5 MSTORE SWAP4 PUSH1 0x1 DUP2 AND SWAP1 DUP2 ISZERO PUSH2 0x6E3 JUMPI POP PUSH1 0x1 EQ PUSH2 0x69C JUMPI JUMPDEST POP PUSH2 0x69A SWAP3 POP SUB DUP4 PUSH2 0x63F JUMP JUMPDEST JUMP JUMPDEST SWAP1 POP PUSH1 0x0 SWAP3 SWAP2 SWAP3 MSTORE PUSH1 0x20 PUSH1 0x0 KECCAK256 SWAP1 PUSH1 0x0 SWAP2 JUMPDEST DUP2 DUP4 LT PUSH2 0x6C7 JUMPI POP POP SWAP1 PUSH1 0x20 PUSH2 0x69A SWAP3 DUP3 ADD ADD CODESIZE PUSH2 0x68D JUMP JUMPDEST PUSH1 0x20 SWAP2 SWAP4 POP DUP1 PUSH1 0x1 SWAP2 SLOAD DUP4 DUP6 DUP10 ADD ADD MSTORE ADD SWAP2 ADD SWAP1 SWAP2 DUP5 SWAP3 PUSH2 0x6AE JUMP JUMPDEST SWAP1 POP PUSH1 0x20 SWAP3 POP PUSH2 0x69A SWAP5 SWAP2 POP PUSH1 0xFF NOT AND DUP3 DUP5 ADD MSTORE ISZERO ISZERO PUSH1 0x5 SHL DUP3 ADD ADD CODESIZE PUSH2 0x68D JUMP JUMPDEST SWAP2 SWAP1 DUP3 MLOAD SWAP3 DUP4 DUP3 MSTORE PUSH1 0x0 JUMPDEST DUP5 DUP2 LT PUSH2 0x731 JUMPI POP POP DUP3 PUSH1 0x0 PUSH1 0x20 DUP1 SWAP5 SWAP6 DUP5 ADD ADD MSTORE PUSH1 0x1F DUP1 NOT SWAP2 ADD AND ADD ADD SWAP1 JUMP JUMPDEST DUP1 PUSH1 0x20 DUP1 SWAP3 DUP5 ADD ADD MLOAD DUP3 DUP3 DUP7 ADD ADD MSTORE ADD PUSH2 0x710 JUMP JUMPDEST SWAP1 PUSH1 0x5 DUP3 LT ISZERO PUSH2 0x308 JUMPI MSTORE JUMP JUMPDEST DUP2 PUSH1 0x1F DUP3 ADD SLT ISZERO PUSH2 0xF9 JUMPI DUP1 CALLDATALOAD SWAP1 PUSH8 0xFFFFFFFFFFFFFFFF DUP3 GT PUSH2 0x3DC JUMPI PUSH1 0x40 MLOAD SWAP3 PUSH2 0x788 PUSH1 0x1F DUP5 ADD PUSH1 0x1F NOT AND PUSH1 0x20 ADD DUP6 PUSH2 0x63F JUMP JUMPDEST DUP3 DUP5 MSTORE PUSH1 0x20 DUP4 DUP4 ADD ADD GT PUSH2 0xF9 JUMPI DUP2 PUSH1 0x0 SWAP3 PUSH1 0x20 DUP1 SWAP4 ADD DUP4 DUP7 ADD CALLDATACOPY DUP4 ADD ADD MSTORE SWAP1 JUMP JUMPDEST PUSH1 0x5 DUP3 LT ISZERO PUSH2 0x308 JUMPI MSTORE JUMP INVALID LOG2 PUSH5 0x6970667358 0x22 SLT KECCAK256 CALLVALUE MOD 0x2A SWAP5 0xC9 SLT 0xB9 PUSH26 0x3AD12851E14B227736DB87256001BBCBA34138691E29AD16473 PUSH16 0x6C634300081B00330000000000000000 "},"methodIdentifiers":{"getRegisteredUser(address)":"e54a29bb","owner()":"8da5cb5b","registerUser(string,string,address,uint8)":"d1233672","userData(address)":"c8910913"}}}}}