{"contracts/ObatTradisional.sol":{"ObatTradisional":{"abi":[{"inputs":[{"internalType":"address","name":"_roleManagerAddr","type":"address"},{"internalType":"address","name":"_mainSupplyChainAddr","type":"address"}],"stateMutability":"nonpayable","type":"constructor"},{"anonymous":false,"inputs":[{"indexed":false,"internalType":"string","name":"nieNumber","type":"string"},{"indexed":false,"internalType":"string","name":"namaProduk","type":"string"}],"name":"evt_nieApproved","type":"event"},{"anonymous":false,"inputs":[{"indexed":false,"internalType":"string","name":"obatId","type":"string"},{"indexed":false,"internalType":"uint256","name":"timestampRequested","type":"uint256"},{"indexed":false,"internalType":"string","name":"namaProduk","type":"string"}],"name":"evt_nieRequested","type":"event"},{"anonymous":false,"inputs":[{"indexed":false,"internalType":"string","name":"namaProduk","type":"string"},{"indexed":false,"internalType":"string","name":"factoryInstanceNames","type":"string"},{"indexed":false,"internalType":"string","name":"factoryUserNames","type":"string"},{"indexed":false,"internalType":"address","name":"factoryAddresses","type":"address"},{"indexed":false,"internalType":"string","name":"kemasan","type":"string"},{"indexed":false,"internalType":"enum ObatTradisional.en_tipeProduk","name":"en_tipeProduk","type":"uint8"}],"name":"evt_obatCreated","type":"event"},{"anonymous":false,"inputs":[{"indexed":false,"internalType":"string","name":"namaProduk","type":"string"},{"indexed":false,"internalType":"uint8","name":"quantity","type":"uint8"},{"indexed":false,"internalType":"string","name":"orderId","type":"string"},{"indexed":false,"internalType":"string","name":"instanceName","type":"string"},{"indexed":false,"internalType":"address","name":"instanceAddress","type":"address"},{"indexed":false,"internalType":"uint256","name":"latestTimestamp","type":"uint256"}],"name":"evt_obatOrdered","type":"event"},{"anonymous":false,"inputs":[{"indexed":false,"internalType":"string","name":"namaProduk","type":"string"},{"indexed":false,"internalType":"uint8","name":"quantity","type":"uint8"},{"indexed":false,"internalType":"string","name":"batchNamee","type":"string"}],"name":"evt_obatProduced","type":"event"},{"inputs":[{"internalType":"string","name":"_namaProduk","type":"string"},{"internalType":"string","name":"_batchName","type":"string"},{"internalType":"string","name":"_obatId","type":"string"},{"internalType":"uint8","name":"_obatQuantity","type":"uint8"},{"internalType":"string","name":"_factoryInstanceName","type":"string"},{"internalType":"string[]","name":"_obatIpfsHash","type":"string[]"}],"name":"addQuantityObat","outputs":[],"stateMutability":"nonpayable","type":"function"},{"inputs":[{"internalType":"uint256","name":"","type":"uint256"}],"name":"allObatData","outputs":[{"internalType":"string","name":"obatId","type":"string"},{"internalType":"string","name":"merk","type":"string"},{"internalType":"string","name":"namaProduk","type":"string"},{"internalType":"string","name":"kemasan","type":"string"},{"internalType":"enum ObatTradisional.en_tipeProduk","name":"tipeProduk","type":"uint8"},{"internalType":"enum ObatTradisional.en_nieStatus","name":"obatStatus","type":"uint8"},{"internalType":"uint256","name":"nieRequestDate","type":"uint256"},{"internalType":"uint256","name":"nieApprovalDate","type":"uint256"},{"internalType":"string","name":"nieNumber","type":"string"}],"stateMutability":"view","type":"function"},{"inputs":[{"internalType":"uint256","name":"","type":"uint256"}],"name":"allOrderedObat","outputs":[{"internalType":"string","name":"orderId","type":"string"},{"internalType":"string","name":"namaProduk","type":"string"},{"internalType":"string","name":"obatIdProduk","type":"string"},{"internalType":"uint8","name":"orderQuantity","type":"uint8"},{"internalType":"string","name":"instanceName","type":"string"},{"internalType":"address","name":"instanceAddr","type":"address"},{"internalType":"enum ObatTradisional.en_orderStatus","name":"orderStatus","type":"uint8"},{"internalType":"uint256","name":"latestTimestamp","type":"uint256"}],"stateMutability":"view","type":"function"},{"inputs":[{"internalType":"uint256","name":"","type":"uint256"}],"name":"allProducedObat","outputs":[{"internalType":"string","name":"batchName","type":"string"},{"internalType":"string","name":"obatId","type":"string"},{"internalType":"string","name":"namaProduk","type":"string"},{"internalType":"uint8","name":"obatQuantity","type":"uint8"},{"internalType":"string","name":"factoryInstanceNames","type":"string"}],"stateMutability":"view","type":"function"},{"inputs":[{"internalType":"string","name":"_obatId","type":"string"},{"internalType":"address","name":"_bpomAddr","type":"address"},{"internalType":"string","name":"_bpomInstanceName","type":"string"},{"internalType":"string","name":"_bpomUserName","type":"string"},{"internalType":"string","name":"_nieNumber","type":"string"}],"name":"approveNie","outputs":[],"stateMutability":"nonpayable","type":"function"},{"inputs":[{"internalType":"string","name":"","type":"string"}],"name":"bpomAddresses","outputs":[{"internalType":"address","name":"","type":"address"}],"stateMutability":"view","type":"function"},{"inputs":[{"internalType":"string","name":"","type":"string"}],"name":"bpomInstanceNames","outputs":[{"internalType":"string","name":"","type":"string"}],"stateMutability":"view","type":"function"},{"inputs":[{"internalType":"string","name":"","type":"string"}],"name":"bpomUserNames","outputs":[{"internalType":"string","name":"","type":"string"}],"stateMutability":"view","type":"function"},{"inputs":[{"internalType":"string","name":"_obatId","type":"string"},{"internalType":"string","name":"_merk","type":"string"},{"internalType":"string","name":"_namaProduk","type":"string"},{"internalType":"string[]","name":"_klaim","type":"string[]"},{"internalType":"string","name":"_kemasan","type":"string"},{"internalType":"string[]","name":"_komposisi","type":"string[]"},{"internalType":"address","name":"_factoryAddr","type":"address"},{"internalType":"string","name":"_factoryInstanceName","type":"string"},{"internalType":"string","name":"_factoryUserName","type":"string"},{"internalType":"enum ObatTradisional.en_tipeProduk","name":"_tipeProduk","type":"uint8"}],"name":"createObat","outputs":[],"stateMutability":"nonpayable","type":"function"},{"inputs":[{"internalType":"string","name":"","type":"string"}],"name":"factoryAddresses","outputs":[{"internalType":"address","name":"","type":"address"}],"stateMutability":"view","type":"function"},{"inputs":[{"internalType":"string","name":"","type":"string"}],"name":"factoryInstanceNames","outputs":[{"internalType":"string","name":"","type":"string"}],"stateMutability":"view","type":"function"},{"inputs":[{"internalType":"string","name":"","type":"string"}],"name":"factoryUserNames","outputs":[{"internalType":"string","name":"","type":"string"}],"stateMutability":"view","type":"function"},{"inputs":[],"name":"getAllProducedObat","outputs":[{"components":[{"internalType":"string","name":"batchName","type":"string"},{"internalType":"string","name":"obatId","type":"string"},{"internalType":"string","name":"namaProduk","type":"string"},{"internalType":"uint8","name":"obatQuantity","type":"uint8"},{"internalType":"string","name":"factoryInstanceNames","type":"string"},{"internalType":"string[]","name":"obatIpfsHash","type":"string[]"}],"internalType":"struct ObatTradisional.st_obatProduction[]","name":"","type":"tuple[]"}],"stateMutability":"view","type":"function"},{"inputs":[{"internalType":"string","name":"_obatId","type":"string"}],"name":"getDetailProducedObatById","outputs":[{"internalType":"uint8","name":"obatQuantity","type":"uint8"},{"internalType":"string[]","name":"obatIpfsHash","type":"string[]"}],"stateMutability":"view","type":"function"},{"inputs":[{"internalType":"string","name":"_factoryInstanceName","type":"string"}],"name":"getJenisSediaanAvail","outputs":[{"internalType":"uint8[]","name":"","type":"uint8[]"}],"stateMutability":"view","type":"function"},{"inputs":[],"name":"getListAllObatNie","outputs":[{"internalType":"string[]","name":"","type":"string[]"},{"internalType":"string[]","name":"","type":"string[]"},{"internalType":"string[]","name":"","type":"string[]"},{"internalType":"uint256[]","name":"","type":"uint256[]"},{"internalType":"uint8[]","name":"","type":"uint8[]"}],"stateMutability":"view","type":"function"},{"inputs":[],"name":"getListAllProducedObat","outputs":[{"internalType":"string[]","name":"obatIdArray","type":"string[]"},{"internalType":"string[]","name":"namaProdukArray","type":"string[]"},{"internalType":"uint8[]","name":"obatQuantityArray","type":"uint8[]"}],"stateMutability":"view","type":"function"},{"inputs":[{"internalType":"string","name":"_factoryInstanceName","type":"string"}],"name":"getListAllProducedObatByFactory","outputs":[{"internalType":"string[]","name":"","type":"string[]"},{"internalType":"string[]","name":"","type":"string[]"},{"internalType":"uint8[]","name":"","type":"uint8[]"}],"stateMutability":"view","type":"function"},{"inputs":[{"internalType":"string","name":"_factoryInstanceName","type":"string"}],"name":"getListObatByFactory","outputs":[{"internalType":"string[]","name":"","type":"string[]"},{"internalType":"string[]","name":"","type":"string[]"},{"internalType":"uint8[]","name":"","type":"uint8[]"},{"internalType":"uint8[]","name":"","type":"uint8[]"}],"stateMutability":"view","type":"function"},{"inputs":[{"internalType":"string","name":"_obatId","type":"string"}],"name":"getListObatById","outputs":[{"components":[{"internalType":"string","name":"obatId","type":"string"},{"internalType":"string","name":"merk","type":"string"},{"internalType":"string","name":"namaProduk","type":"string"},{"internalType":"string[]","name":"klaim","type":"string[]"},{"internalType":"string","name":"kemasan","type":"string"},{"internalType":"string[]","name":"komposisi","type":"string[]"},{"internalType":"enum ObatTradisional.en_tipeProduk","name":"tipeProduk","type":"uint8"},{"internalType":"enum ObatTradisional.en_nieStatus","name":"obatStatus","type":"uint8"},{"internalType":"uint256","name":"nieRequestDate","type":"uint256"},{"internalType":"uint256","name":"nieApprovalDate","type":"uint256"},{"internalType":"string","name":"nieNumber","type":"string"}],"internalType":"struct ObatTradisional.st_obatDetails","name":"obatDetails","type":"tuple"},{"internalType":"address","name":"factoryAddress","type":"address"},{"internalType":"string","name":"factoryInstanceName","type":"string"},{"internalType":"string","name":"factoryUserName","type":"string"},{"internalType":"address","name":"bpomAddress","type":"address"},{"internalType":"string","name":"bpomInstanceName","type":"string"},{"internalType":"string","name":"bpomUserName","type":"string"}],"stateMutability":"view","type":"function"},{"inputs":[],"name":"mainSupplyChain","outputs":[{"internalType":"contract MainSupplyChain","name":"","type":"address"}],"stateMutability":"view","type":"function"},{"inputs":[{"internalType":"string","name":"","type":"string"}],"name":"obatDetailsById","outputs":[{"internalType":"string","name":"obatId","type":"string"},{"internalType":"string","name":"merk","type":"string"},{"internalType":"string","name":"namaProduk","type":"string"},{"internalType":"string","name":"kemasan","type":"string"},{"internalType":"enum ObatTradisional.en_tipeProduk","name":"tipeProduk","type":"uint8"},{"internalType":"enum ObatTradisional.en_nieStatus","name":"obatStatus","type":"uint8"},{"internalType":"uint256","name":"nieRequestDate","type":"uint256"},{"internalType":"uint256","name":"nieApprovalDate","type":"uint256"},{"internalType":"string","name":"nieNumber","type":"string"}],"stateMutability":"view","type":"function"},{"inputs":[{"internalType":"string","name":"","type":"string"}],"name":"obatProductionDetailsById","outputs":[{"internalType":"string","name":"batchName","type":"string"},{"internalType":"string","name":"obatId","type":"string"},{"internalType":"string","name":"namaProduk","type":"string"},{"internalType":"uint8","name":"obatQuantity","type":"uint8"},{"internalType":"string","name":"factoryInstanceNames","type":"string"}],"stateMutability":"view","type":"function"},{"inputs":[{"internalType":"string","name":"","type":"string"}],"name":"orderObatById","outputs":[{"internalType":"string","name":"orderId","type":"string"},{"internalType":"string","name":"namaProduk","type":"string"},{"internalType":"string","name":"obatIdProduk","type":"string"},{"internalType":"uint8","name":"orderQuantity","type":"uint8"},{"internalType":"string","name":"instanceName","type":"string"},{"internalType":"address","name":"instanceAddr","type":"address"},{"internalType":"enum ObatTradisional.en_orderStatus","name":"orderStatus","type":"uint8"},{"internalType":"uint256","name":"latestTimestamp","type":"uint256"}],"stateMutability":"view","type":"function"},{"inputs":[{"internalType":"string","name":"_obatIdProduk","type":"string"},{"internalType":"string","name":"_orderId","type":"string"},{"internalType":"string","name":"_namaProduk","type":"string"},{"internalType":"uint8","name":"_orderQuantity","type":"uint8"},{"internalType":"address","name":"_pbfAddr","type":"address"},{"internalType":"string","name":"_pbfInstanceName","type":"string"}],"name":"pbfOrder","outputs":[],"stateMutability":"nonpayable","type":"function"},{"inputs":[{"internalType":"string","name":"_obatId","type":"string"}],"name":"requestNie","outputs":[],"stateMutability":"nonpayable","type":"function"},{"inputs":[{"internalType":"string","name":"_obatIdProduk","type":"string"},{"internalType":"string","name":"_orderId","type":"string"},{"internalType":"string","name":"_namaProduk","type":"string"},{"internalType":"uint8","name":"_orderQuantity","type":"uint8"},{"internalType":"address","name":"_retailerAddr","type":"address"},{"internalType":"string","name":"_retailerInstanceName","type":"string"},{"internalType":"string[]","name":"_orderObatIpfsHash","type":"string[]"}],"name":"retailerOrder","outputs":[],"stateMutability":"nonpayable","type":"function"},{"inputs":[],"name":"roleManager","outputs":[{"internalType":"contract RoleManager","name":"","type":"address"}],"stateMutability":"view","type":"function"},{"inputs":[{"internalType":"address","name":"","type":"address"}],"name":"userRoles","outputs":[{"internalType":"enum ObatTradisional.en_roles","name":"","type":"uint8"}],"stateMutability":"view","type":"function"}],"evm":{"bytecode":{"linkReferences":{},"object":"608034608657601f6157a838819003918201601f19168301916001600160401b03831184841017608b578084926040948552833981010312608657604b602060458360a1565b920160a1565b600080546001600160a01b039384166001600160a01b031991821617909155600180549290931691161790556040516156f390816100b58239f35b600080fd5b634e487b7160e01b600052604160045260246000fd5b51906001600160a01b038216820360865756fe608080604052600436101561001357600080fd5b60003560e01c908162435da5146138145750806301d62d3b1461375b5780630a04f9c8146136ff5780631a95e6721461352c5780631c0b2030146134c45780631dce6e581461329657806325606bc314612e705780632732183714612e1f578063349a7a7214612dcb5780634b87568a14612d6357806374d5e10014612d035780637aad01bd14612c345780637ade51dd1461253e5780637d08414f1461250557806386f5cea61461244357806392b385c9146122fd5780639413fcfd146122d4578063998c1fcb146122205780639d9315c2146121cc578063a812536d14612178578063b7e6656814611efe578063b896cb9a14611e2b578063bb43bdf714611bd7578063bc4a6f6c14611983578063d19487e4146111ee578063d44faa63146110b9578063d9d284dc14610490578063e06749ba146101e85763f10228621461015d57600080fd5b346101e35760203660031901126101e3576004356001600160401b0381116101e3576101c46101cb6101ae602061019b6101df953690600401613b01565b8160405193828580945193849201613838565b8101600781520301902060405192838092613984565b0382613a5a565b60405191829160208352602083019061385b565b0390f35b600080fd5b346101e35760003660031901126101e357600080600254905b818110610452575061021282613d4c565b9061021c83613d4c565b61022584613d4c565b61022e85613cb7565b9161023c6040519384613a5a565b85835261025d61024b87613cb7565b602085019790601f1901368937613d96565b936000805b8281106102eb575050506020916102986102a69261028b6040519860a08a5260a08a0190613880565b90888203868a0152613880565b908682036040880152613880565b918483036060860152519182815201939060005b8181106102d55784806101df888783820360808501526138d9565b82518652602095860195909201916001016102ba565b60ff60066102f883613c02565b50015460081c1661030881613a7b565b610315575b600101610262565b906104376001916101c461033861032b86613c02565b5060405192838092613984565b610342828c613ebd565b5261034d818b613ebd565b50600261036d61035c86613c02565b506101c46040518094819301613984565b6103778288613ebd565b526103828187613ebd565b506101c46103b86103a4602061039788613c02565b5060405192838092613f31565b600981520301902060405192838092613984565b6103c28289613ebd565b526103cd8188613ebd565b5060086103d985613c02565b50015460076103e786613c02565b500154101561043f5760086103fb85613c02565b5001545b610409828a613ebd565b5260ff600661041786613c02565b50015460081c1661042781613a7b565b610431828b613ebd565b52613f9f565b91905061030d565b600761044a85613c02565b5001546103ff565b60ff600661045f83613c02565b50015460081c1661046f81613a7b565b61047c575b600101610201565b91610488600191613f9f565b929050610474565b346101e3576101403660031901126101e3576004356001600160401b0381116101e3576104c1903690600401613b01565b6024356001600160401b0381116101e3576104e0903690600401613b01565b6044356001600160401b0381116101e3576104ff903690600401613b01565b906064356001600160401b0381116101e35761051f903690600401613cce565b906084356001600160401b0381116101e35761053f903690600401613b01565b9060a4356001600160401b0381116101e35761055f903690600401613cce565b60c4356001600160a01b03811691908290036101e35760e4356001600160401b0381116101e357610594903690600401613b01565b96610104356001600160401b0381116101e3576105b5903690600401613b01565b91610124359660028810156101e357600080546040516395a8c58d60e01b81523360048201526024810192909252602090829060449082906001600160a01b03165afa80156110ad576106109160009161107e575b5061477a565b6040519561061d87613a22565b8387526020870152886040870152606086015285608086015260a08501526106488660c08601614010565b600260e085015260006101008501526000610120850152604090815161066e8382613a5a565b60098152682a22aa29a22329a22360b91b60208201526101408601528151946106b4818760208186516106a581848a019d8e613838565b8101600c815203019020614ded565b600254600160401b811015610f03578060016106d39201600255613c02565b919091611068576106e391614ded565b815160208183516106f581838b613838565b81016008815203019020846bffffffffffffffffffffffff60a01b8254161790558151602081835161072881838b613838565b8101600981520301902089516001600160401b038111610f035761074c825461394a565b601f8111611036575b506020601f8211600114610fd057908061078592600091610fc5575b508160011b916000199060031b1c19161790565b90555b8151602081835161079a81838b613838565b8101600a81520301902083516001600160401b038111610f03576107be825461394a565b601f8111610f88575b506020601f8211600114610f245790806107f692600091610f1957508160011b916000199060031b1c19161790565b90555b8151946102006108098188613a5a565b600f8752601f190160005b818110610ef257505082519161082983613a07565b83516108358582613a5a565b601d8152602081017f424e2d32303234313132352d5054506861726d61496e646f2d5834354100000090528352806020840152898484015260608301600f90528a608084015260a0830187815260609785516108918a82613a5a565b602e81527f516d5a706a516644654452505253724834573431334777443557626239554d4760208201526d1ab4b6b8b83338b9a839a0bc369960911b878201526108da82613dc8565b526108e490613dc8565b50805185516108f38a82613a5a565b602e81527f516d585655454e637a666342617242745132776944744c6d5a5632506137386e60208201526d1935b6a3a238351cb2353298acb760911b8782015261093c82613dd5565b5261094690613dd5565b50805185516109558a82613a5a565b602e81527f516d6436517662316f58616431777a5a75354a36587259646e477039466a337460208201526d145d59559cdcce589dd1d59214d560921b8782015261099e82613de5565b526109a890613de5565b50805185516109b78a82613a5a565b602e81527f516d56553255784d724a657168726e5144504a6972617546735773364a37584c60208201526d446944514b69783848566445547360901b87820152610a0082613df5565b52610a0a90613df5565b5080518551610a198a82613a5a565b602e81527f516d646d523450666e6e35674344355861617776727669586d45334a7369617860208201526d524633654e727a6859314342553760901b87820152610a6282613e05565b52610a6c90613e05565b5080518551610a7b8a82613a5a565b602e81527f516d517254726667674b5437366e525a563872426a6361546f576648434d7a5760208201526d715934795752705733534436596760901b87820152610ac482613e15565b52610ace90613e15565b5080518551610add8a82613a5a565b602e81527f516d515848585145505032506e4662513636685367325a4d4e643653537a664660208201526d25a1a52420a2b4b9acba9c19192b60911b87820152610b2682613e25565b52610b3090613e25565b5080518551610b3f8a82613a5a565b602e81527f516d554543695837714869483868346b723275346836716169473866536a395a60208201526d135d18d091d9d15210d55e5b4c5360921b87820152610b8882613e35565b52610b9290613e35565b5080518551610ba18a82613a5a565b602e81527f516d55775a727439624c6a6e684d4c43693443466361547659675a6157554a5260208201526d635a444b71733963336d7179487960901b87820152610bea82613e46565b52610bf490613e46565b5080518551610c038a82613a5a565b602e81527f516d4e4e75775a415548366758386854636b366f6861344e6a4d68456337357860208201526d7679474371324c7046447459434760901b87820152610c4c82613e57565b52610c5690613e57565b5080518551610c658a82613a5a565b602e81527f516d6162687874624b796531656f47504d6664617a5743356d544a734b41745560208201526d31a33129b43319ad31b6b1b6aba760911b87820152610cae82613e68565b52610cb890613e68565b5080518551610cc78a82613a5a565b602e81527f516d6552686f6b686b47363142693378656d443967635a41484b386b3663753860208201526d79434e415445637255677334547960901b87820152610d1082613e79565b52610d1a90613e79565b5080518551610d298a82613a5a565b602e81527f516d616d526b504e4d425874706e687558344573623852516d394e4e7077433360208201526d7a64414d5461725077577269536560901b87820152610d7282613e8a565b52610d7c90613e8a565b5080518551610d8b8a82613a5a565b602e81527f516d566b377467705573635047563267694b7779354b414a79434e506e53445360208201526d35644d4b43336d534639357a4e6f60901b87820152610dd482613e9b565b52610dde90613e9b565b50518451610dec8982613a5a565b602e81527f516d5464734a4e4437426450414b4a5a4438484a70703373544559374474675760208201526d379b3937aa3a35ba2538b439b91960911b86820152610e3582613eac565b52610e3f90613eac565b50610e4983614d98565b835180928192518092610e5b92613838565b8101600d815203602001902090610e71916147c5565b805197889760c0895260c08901610e879161385b565b88810360208a0152610e989161385b565b9087820390880152610ea99161385b565b918501528381036080850152610ebe9161385b565b9060a08301610ecc91613b57565b037f634ef467423c7b2abbaf26097bdddac4a495d36be69ca3d1555484b46e7899c791a1005b806060602080938b01015201610814565b634e487b7160e01b600052604160045260246000fd5b90508601518d610771565b601f1982169083600052806000209160005b818110610f7057509083600194939210610f57575b5050811b0190556107f9565b87015160001960f88460031b161c191690558c80610f4b565b9192602060018192868c015181550194019201610f36565b610fb590836000526020600020601f840160051c81019160208510610fbb575b601f0160051c019061401c565b8b6107c7565b9091508190610fa8565b90508c01518d610771565b60008381528181209190601f198416908e5b82821061101d5750509083600194939210611004575b5050811b019055610788565b8d015160001960f88460031b161c191690558c80610ff8565b600184956020939584930151815501940192018e610fe2565b61106290836000526020600020601f840160051c81019160208510610fbb57601f0160051c019061401c565b8b610755565b634e487b7160e01b600052600060045260246000fd5b6110a0915060203d6020116110a6575b6110988183613a5a565b810190614033565b8c61060a565b503d61108e565b6040513d6000823e3d90fd5b346101e35760203660031901126101e3576004356001600160401b0381116101e35760006110ee61111b923690600401613b01565b60018060a01b03600154166040518080958194629a308760e31b835260206004840152602483019061385b565b03915afa9081156110ad57600091611144575b604051602080825281906101df908201856138d9565b3d8083833e6111538183613a5a565b8101906020818303126111e2578051906001600160401b0382116111ea57019080601f830112156111e25781519261118a84613cb7565b926111986040519485613a5a565b84845260208085019560051b8201019283116111e657602001935b8285106111c8575050506101df91509061112e565b845160ff811681036111e2578152602094850194016111b3565b8280fd5b5080fd5b8380fd5b346101e35760c03660031901126101e3576004356001600160401b0381116101e35761121e903690600401613b01565b6024356001600160401b0381116101e35761123d903690600401613b01565b6044356001600160401b0381116101e35761125c903690600401613b01565b90611265613ca7565b906084356001600160401b0381116101e357611285903690600401613b01565b9260a4356001600160401b0381116101e3576112a5903690600401613cce565b906044602060018060a01b0360005416604051928380926395a8c58d60e01b8252336004830152600060248301525afa80156110ad576112ec91600091611964575061477a565b60ff8251941693840361190d576040519460028251966020818186019961131481838d613838565b8101600d8152030190200160405161134281611334602082018095613f31565b03601f198101835282613a5a565b51902087604051611374602082816113638183019687815193849201613838565b81010301601f198101835282613a5a565b5190200361187d57506003604051602081845161139281838c613838565b8101600d815203019020018460ff19825416179055600560405160208184516113bc81838c613838565b8101600d81520301902001908251600160401b8111610f035782548184558082106117ff575b50602084019081936000526020600020916000905b8282106116e7575050505060005b6003548110156116b257600161133461143461142084613c37565b506040519283916020830195869101613f31565b5190206113636040516114546020828c8282019586918a51928391613838565b5190201461146457600101611405565b600592939495965061148d9150600361147c82613c37565b5001805460ff191688179055613c37565b5001915190600160401b8211610f03578254828455808310611634575b50916000526020600020916000905b82821061151b575050505091611516611503927fabb6d08782df0e4c2ee63deacc72efc9c1a9422c00fc5d8075160d11eaa40b4a945b60405194859460608652606086019061385b565b916020850152838203604085015261385b565b0390a1005b80518051906001600160401b038211610f0357611538865461394a565b601f8111611602575b50602090601f8311600114611595579261157b8360019594602094879660009261158a575b50508160011b916000199060031b1c19161790565b87555b019401910190926114b9565b015190508d80611566565b90601f1983169187600052816000209260005b8181106115ea57509360209360019693879693838895106115d1575b505050811b01875561157e565b015160001960f88460031b161c191690558c80806115c4565b929360206001819287860151815501950193016115a8565b61162e90876000526020600020601f850160051c81019160208610610fbb57601f0160051c019061401c565b89611541565b8360005282602060002091820191015b81811061165157506114aa565b8061165e6001925461394a565b8061166b575b5001611644565b601f811183146116815750600081555b89611664565b61169f908260005283601f6020600020920160051c8201910161401c565b806000526000602081208183555561167b565b5050505061150392507fabb6d08782df0e4c2ee63deacc72efc9c1a9422c00fc5d8075160d11eaa40b4a9391611516916114ef565b80518051906001600160401b038211610f0357611704865461394a565b601f81116117cd575b50602090601f83116001146117605792611746836001959460209487966000926117555750508160011b916000199060031b1c19161790565b87555b019401910190926113f7565b015190503880611566565b90601f1983169187600052816000209260005b8181106117b5575093602093600196938796938388951061179c575b505050811b018755611749565b015160001960f88460031b161c1916905538808061178f565b92936020600181928786015181550195019301611773565b6117f990876000526020600020601f850160051c81019160208610610fbb57601f0160051c019061401c565b8d61170d565b8360005281602060002091820191015b81811061181c57506113e2565b806118296001925461394a565b80611836575b500161180f565b601f8111831461184c5750600081555b8b61182f565b61186a908260005283601f6020600020920160051c8201910161401c565b8060005260006020812081835555611846565b7fabb6d08782df0e4c2ee63deacc72efc9c1a9422c00fc5d8075160d11eaa40b4a969492611903611908926118f460206115039a61151699976040519687956118c587613a07565b8a875282858801528d60408801528b6060880152608087015260a0860152604051938492839251928391613838565b8101600d8152030190206147c5565b614d98565b6114ef565b60405162461bcd60e51b815260206004820152602960248201527f5175616e7469747920646f6573206e6f74206d6174636820746865206e756d626044820152686572206f662049447360b81b6064820152608490fd5b61197d915060203d6020116110a6576110988183613a5a565b8861060a565b346101e35760203660031901126101e3576004356001600160401b0381116101e3576119b3903690600401613b01565b600080546040516395a8c58d60e01b81523360048201526024810192909252602090829060449082906001600160a01b03165afa80156110ad576119fe91600091611bb8575061477a565b60405181519060208181850193611a16818387613838565b8101600c8152030190209160068301805460ff8160081c16611a3781613a7b565b611b565742600786015561ff00191661010017905560005b600254811015611b2657611a6281613c02565b50604051611a7881611334602082018095613f31565b5190206040516020810190611a96602082875161136381878c613838565b51902014611aa657600101611a4f565b611b1192507f854681db4b5190ceaacfe5894893f2e8d49873d9b8ed6c72b5618047cb3924e5936006611aeb83611adf61151695613c02565b50600742910155613c02565b5001805461ff0019166101001790555b600260405194859460608652606086019061385b565b91426020860152848303604086015201613984565b50611b1191506115167f854681db4b5190ceaacfe5894893f2e8d49873d9b8ed6c72b5618047cb3924e593611afb565b60405162461bcd60e51b815260206004820152603460248201527f4f62617420547261646973696f6e616c20737461747573206d75737420626520604482015273696e206c6f63616c2070726f64756374696f6e2160601b6064820152608490fd5b611bd1915060203d6020116110a6576110988183613a5a565b8361060a565b346101e35760c03660031901126101e3576004356001600160401b0381116101e357611c07903690600401613b01565b6024356001600160401b0381116101e357611c26903690600401613b01565b6044356001600160401b0381116101e357611c45903690600401613b01565b611c4d613ca7565b90611c56613bec565b60a4356001600160401b0381116101e357611c75903690600401613b01565b6000546040516395a8c58d60e01b81523360048201526001602482015290602090829060449082906001600160a01b03165afa9081156110ad57600091611e0c575b5015611dc75760ff841695611ccf603288101561404b565b604051966000611ce060208a613a5a565b88526000805b818110611da2575050611516949392917f95b629c00caaa10e5c594b3f10670964fdfeff8de039e6e3ae5acc2aed2a3fdb98611d949260405192611d2984613a3e565b8a84528760208501526040840152606083015283608083015260018060a01b03851660a0830152600060c08301524260e0830152610100820152611d8f81611d8060208b8160405193828580945193849201613838565b8101600e815203019020614097565b6146cc565b604051958695429487614723565b806060602080938d01015201611ce6565b634e487b7160e01b81526041600452602490fd5b60405162461bcd60e51b815260206004820152601d60248201527f416363657373207265737472696374656420746f2050424620726f6c650000006044820152606490fd5b611e25915060203d6020116110a6576110988183613a5a565b87611cb7565b346101e35760203660031901126101e3576004356001600160401b0381116101e357611e5b903690600401613b01565b611ee16005611ed16020604051611e9c611e9560018851938581818c0196611e8481838a613838565b8101600d815203019020015461394a565b1515613fc4565b60ff600360405184818a51611eb2818389613838565b8101600d81520301902001541695604051938492839251928391613838565b8101600d81520301902001613ed1565b906101df6040519283928352604060208401526040830190613880565b346101e35760e03660031901126101e3576004356001600160401b0381116101e357611f2e903690600401613b01565b6024356001600160401b0381116101e357611f4d903690600401613b01565b6044356001600160401b0381116101e357611f6c903690600401613b01565b611f74613ca7565b90611f7d613bec565b60a4356001600160401b0381116101e357611f9c903690600401613b01565b60c4356001600160401b0381116101e357611fbb903690600401613cce565b6000546040516395a8c58d60e01b81523360048201526003602482015291979190602090829060449082906001600160a01b03165afa9081156110ad57600091612159575b50156121095760ff851696612018603289101561404b565b6002546060926020810160005b83811061206b575b5050505061151694939291611d94917f95b629c00caaa10e5c594b3f10670964fdfeff8de039e6e3ae5acc2aed2a3fdb9960405192611d2984613a3e565b61207481613c02565b5060405161208a81611334602082018095613f31565b51902060405160208101906120a8602082885161136381878b613838565b519020146120b857600101612025565b61151698979695507f95b629c00caaa10e5c594b3f10670964fdfeff8de039e6e3ae5acc2aed2a3fdb9b9350611d949492506101c4915061032b6120fb91613c02565b93949596829a82945061202d565b60405162461bcd60e51b815260206004820152602260248201527f416363657373207265737472696374656420746f2052657461696c657220726f6044820152616c6560f01b6064820152608490fd5b612172915060203d6020116110a6576110988183613a5a565b88612000565b346101e35760203660031901126101e3576004356001600160401b0381116101e3576101c46101cb6121b6602061019b6101df953690600401613b01565b8101600981520301902060405192838092613984565b346101e35760203660031901126101e3576004356001600160401b0381116101e3576101c46101cb61220a602061019b6101df953690600401613b01565b8101600681520301902060405192838092613984565b346101e35760203660031901126101e3576004356001600160401b0381116101e357602061019b612255923690600401613b01565b8101600d815203019020604051612270816101c48185613984565b6101df6004604051936122918561228a8160018501613984565b0386613a5a565b6040516122a5816101c48160028601613984565b6122c860ff600384015416926122c16040518096819301613984565b0384613a5a565b60405195869586613c56565b346101e35760003660031901126101e3576001546040516001600160a01b039091168152602090f35b346101e35760203660031901126101e3576004356001600160401b0381116101e35761232d903690600401613b01565b6003546000916020810190835b8381106123ef5750505061234d82613d4c565b9061236061235a84613d4c565b93613d96565b906000805b82821061237f575050506101df9060405193849384613910565b6123e76001918261239261035c86613c37565b61239c8289613ebd565b526123a78188613ebd565b5060026123b661035c86613c37565b6123c0828a613ebd565b526123cb8189613ebd565b5060ff60036123d986613c37565b500154166104318288613ebd565b910190612365565b600461133461240061142084613c37565b519020604051602081019061241e602082875161136381878c613838565b5190201461242f575b60010161233a565b9361243b600191613f9f565b949050612427565b346101e35760203660031901126101e3576004356001600160401b0381116101e357602061019b612478923690600401613b01565b8101600e815203019020604051612493816101c48185613984565b6101df604051916124ab836122c18160018801613984565b604051936124c08561228a8160028501613984565b60ff600382015416916040516124dd816101c48160048701613984565b600660058401549301549360405197889760ff8660a01c169560018060a01b03169489613a85565b346101e35760203660031901126101e3576004356003548110156101e35761252c90613c37565b50604051612270816101c48185613984565b346101e35760a03660031901126101e3576004356001600160401b0381116101e35761256e903690600401613b01565b602435906001600160a01b03821682036101e3576044356001600160401b0381116101e3576125a1903690600401613b01565b906064356001600160401b0381116101e3576125c1903690600401613b01565b906084356001600160401b0381116101e3576125e1903690600401613b01565b9160405193825194602081818601976125fb81838b613838565b8101600c81520301902095600687018054600160ff8260081c1661261e81613a7b565b03612bd9574260088a015561ff001916610200179055845160098801906001600160401b038111610f0357612653825461394a565b601f8111612ba7575b506020601f8211600114612b4157908061268b92600091612b3657508160011b916000199060031b1c19161790565b90555b60405160208186516126a181838c613838565b810160058152030190209060018060a01b03166bffffffffffffffffffffffff60a01b82541617905560405160208185516126dd81838b613838565b81016006815203019020908051906001600160401b038211610f0357612703835461394a565b601f8111612b04575b50602090601f8311600114612a9d5761273d929160009183612a925750508160011b916000199060031b1c19161790565b90555b604051602081845161275381838a613838565b81016007815203019020908051906001600160401b038211610f0357612779835461394a565b601f8111612a60575b50602090601f83116001146129f9576127b39291600091836129ee5750508160011b916000199060031b1c19161790565b90555b60005b6002548110156129bd576127cc81613c02565b506040516127e281611334602082018095613f31565b5190206040516020810190612800602082875161136381878d613838565b51902014612810576001016127b9565b6009929350612849915061282381613c02565b50600842910155600661283582613c02565b5001805461ff001916610200179055613c02565b5001918151926001600160401b038411610f0357612867815461394a565b601f811161298b575b50602093601f81116001146128fd5791611516916128ca846128e396957f489f165b733603cb0a992d8cafd6c42a0c13d169039003f751758b9f0019f26c986000916128f257508160011b916000199060031b1c19161790565b90555b600260405194859460408652604086019061385b565b91848303602086015201613984565b905086015189610771565b601f1981169482600052806000209560005b8181106129735750827f489f165b733603cb0a992d8cafd6c42a0c13d169039003f751758b9f0019f26c9761151695936128e39897956001941061295a575b5050811b0190556128cd565b87015160001960f88460031b161c19169055888061294e565b8683015188556001909701966020928301920161290f565b6129b790826000526020600020601f870160051c81019160208810610fbb57601f0160051c019061401c565b84612870565b50506128e391506115167f489f165b733603cb0a992d8cafd6c42a0c13d169039003f751758b9f0019f26c936128cd565b015190508880611566565b90601f1983169184600052816000209260005b818110612a485750908460019594939210612a2f575b505050811b0190556127b6565b015160001960f88460031b161c19169055878080612a22565b92936020600181928786015181550195019301612a0c565b612a8c90846000526020600020601f850160051c81019160208610610fbb57601f0160051c019061401c565b87612782565b015190508980611566565b90601f1983169184600052816000209260005b818110612aec5750908460019594939210612ad3575b505050811b019055612740565b015160001960f88460031b161c19169055888080612ac6565b92936020600181928786015181550195019301612ab0565b612b3090846000526020600020601f850160051c81019160208610610fbb57601f0160051c019061401c565b8861270c565b90508801518b610771565b601f1982169083600052806000209160005b8a828210612b8f5750509083600194939210612b76575b5050811b01905561268e565b89015160001960f88460031b161c191690558a80612b6a565b60018495602093958493015181550194019201612b53565b612bd390836000526020600020601f840160051c81019160208510610fbb57601f0160051c019061401c565b8961265c565b60405162461bcd60e51b815260206004820152602d60248201527f4f62617420547261646973696f6e616c20737461747573206d7573742062652060448201526c5265717565737465644e49452160981b6064820152608490fd5b346101e35760203660031901126101e3576004356002548110156101e357612c5b90613c02565b5060405190612c7582612c6e8184613984565b0383613a5a565b6101df600960405192612c9684612c8f8160018501613984565b0385613a5a565b60405194612cb286612cab8160028601613984565b0387613a5a565b60405190612cc782612c6e8160048701613984565b600683015490600784015492612cec600886015495612cab6040518099819301613984565b60405198899860ff808660081c169516938a613b64565b346101e35760203660031901126101e3576004356001600160a01b038116908190036101e357600052600b60205260ff604060002054166040516004821015612d4d576020918152f35b634e487b7160e01b600052602160045260246000fd5b346101e35760203660031901126101e3576004356001600160401b0381116101e357612d956020913690600401613b01565b81612da96040519283815193849201613838565b600890820190815281900382019020546040516001600160a01b039091168152f35b346101e35760203660031901126101e3576004356001600160401b0381116101e3576101c46101cb612e09602061019b6101df953690600401613b01565b8101600a81520301902060405192838092613984565b346101e35760203660031901126101e3576004356001600160401b0381116101e357602061019b612e54923690600401613b01565b8101600c81520301902060405190612c7582612c6e8184613984565b346101e35760203660031901126101e3576004356001600160401b0381116101e357612ea3610140913690600401613b01565b606082604051612eb281613a22565b82815282602082015282604082015282808201528260808201528260a0820152600060c0820152600060e08201526000610100820152600061012082015201526101df61315261328860405193612f2a611e9582519660208181860199612f1a81838d613838565b8101600c8152030190205461394a565b6131246132756130ca61326760405160208180612f4b8d8a51928391613838565b8101600c81520301902098600961303b6040519b612f688d613a22565b604051612f79816101c48185613984565b8d5260405160208e612f92836122c18160018801613984565b01528c6040805191612fab836122c18160028801613984565b01528c6060612fbc60038401613ed1565b91015260405160808e612fd6836122c18160048801613984565b01528c60a0612fe760058401613ed1565b9101528c60e060ff600684015461300382821660c08601614010565b60081c169161301183613a7b565b01528c61010060078301549101528c61012060088301549101526101c46040518094819301613984565b8b8b015261228a61315961313c60206040518a5161305a818389613838565b81019060088252828160018060a01b03930301902054169461309e8b83604051809251613088818388613838565b8101600981520301902060405196878092613984565b6130d18b836040518092516130b4818388613838565b8101600a815203019020604051998a8092613984565b0389613a5a565b6040518b516130e1818385613838565b81019060058252838160018060a01b03930301902054169a61312b6040518481845161310e818389613838565b810160068152030190206040519c8d8092613984565b038c613a5a565b604051938492839251928391613838565b810160078152030190206040519a8b8092613984565b038a613a5a565b613254604051809d819d60e083526131ff6131e86131d16131bc6131a561318e865161016060e08b01526102408a019061385b565b602087015189820360df19016101008b015261385b565b604086015188820360df19016101208a015261385b565b606085015187820360df190187890152613880565b608084015186820360df190161016088015261385b565b60a083015185820360df1901610180870152613880565b9261321360c08301516101a0830190613b57565b60e082015161322181613a7b565b6101c08201526101008201516101e08201526101208201516102009091015201518d820360df19016102208f015261385b565b9160208c01528a820360408c015261385b565b9088820360608a015261385b565b91608087015285820360a087015261385b565b9083820360c085015261385b565b346101e35760203660031901126101e3576004356001600160401b0381116101e3576132c6903690600401613b01565b60025460208201916000805b83811061345457506132e381613d4c565b926132ed82613d4c565b906132fa61235a84613d96565b93600096875b8381106133555761332b886101df896133478a6133398b604051978897608089526080890190613880565b908782036020890152613880565b9085820360408701526138d9565b9083820360608501526138d9565b613363602061039783613c02565b600981520301902060405161338081611334602082018095613f31565b519020604051602081019061339e602082885161136381878b613838565b519020146133af575b600101613300565b976101c46133bf61032b8b613c02565b6133c9828a613ebd565b526133d48189613ebd565b5060026133e361035c8b613c02565b6133ed8287613ebd565b526133f88186613ebd565b5060ff60066134068b613c02565b50015460081c1661341681613a7b565b6134208288613ebd565b5260ff600661342e8b613c02565b500154166002811015612d4d578161344c916104316001948b613ebd565b9890506133a7565b613462602061039783613c02565b600981520301902060405161347f81611334602082018095613f31565b519020604051602081019061349f602082846113638c8b51928391613838565b519020146134b0575b6001016132d2565b906134bc600191613f9f565b9190506134a8565b346101e35760203660031901126101e3576004356001600160401b0381116101e3576134f66020913690600401613b01565b8161350a6040519283815193849201613838565b600590820190815281900382019020546040516001600160a01b039091168152f35b346101e35760003660031901126101e35760035461354981613cb7565b906135576040519283613a5a565b80825260208201908160036000527fc2575a0e9e593c00f959f8c92f12db2869c3395a3b0502d05e2516446f71f85b6000915b83831061366457848660405191829160208301906020845251809152604083019060408160051b85010192916000905b8282106135c957505050500390f35b919360019193955060206136548192603f198a820301865288519060a0613643613624613612613602865160c0875260c087019061385b565b888701518682038a88015261385b565b6040860151858203604087015261385b565b60ff60608601511660608501526080850151848203608086015261385b565b9201519060a0818403910152613880565b96019201920185949391926135ba565b6006602060019260405161367781613a07565b604051613688816101c4818a613984565b815260405161369d816101c481898b01613984565b838201526040516136b5816101c48160028b01613984565b604082015260ff60038701541660608201526040516136db816101c48160048b01613984565b60808201526136ec60058701613ed1565b60a082015281520192019201919061358a565b346101e35760203660031901126101e3576004356004548110156101e35760006004548210156137475780600460209252209060031b01604051612493816101c48185613984565b634e487b7160e01b81526032600452602490fd5b346101e35760003660031901126101e35760035461377881613d4c565b61378182613d4c565b9161378b81613d96565b9060005b8181106137a85750506101df9060405193849384613910565b8060016137b861035c8294613c37565b6137c28287613ebd565b526137cd8186613ebd565b5060026137dc61035c83613c37565b6137e68288613ebd565b526137f18187613ebd565b5060ff60036137ff83613c37565b5001541661380d8286613ebd565b520161378f565b346101e35760003660031901126101e3576000546001600160a01b03168152602090f35b60005b83811061384b5750506000910152565b818101518382015260200161383b565b9060209161387481518092818552858086019101613838565b601f01601f1916010190565b9080602083519182815201916020808360051b8301019401926000915b8383106138ac57505050505090565b90919293946020806138ca600193601f19868203018752895161385b565b9701930193019193929061389d565b906020808351928381520192019060005b8181106138f75750505090565b825160ff168452602093840193909201916001016138ea565b916139399061392b6139479593606086526060860190613880565b908482036020860152613880565b9160408184039101526138d9565b90565b90600182811c9216801561397a575b602083101461396457565b634e487b7160e01b600052602260045260246000fd5b91607f1691613959565b600092918154916139948361394a565b80835292600181169081156139ea57506001146139b057505050565b60009081526020812093945091925b8383106139d0575060209250010190565b6001816020929493945483858701015201910191906139bf565b915050602093945060ff929192191683830152151560051b010190565b60c081019081106001600160401b03821117610f0357604052565b61016081019081106001600160401b03821117610f0357604052565b61012081019081106001600160401b03821117610f0357604052565b90601f801991011681019081106001600160401b03821117610f0357604052565b60031115612d4d57565b9490613acb613adf94613abd60e0999c9b9a9795613aaf60ff956101008c526101008c019061385b565b908a820360208c015261385b565b9088820360408a015261385b565b92166060860152848203608086015261385b565b6001600160a01b0390961660a0830152613af881613a7b565b60c08201520152565b81601f820112156101e3578035906001600160401b038211610f035760405192613b35601f8401601f191660200185613a5a565b828452602083830101116101e357816000926020809301838601378301015290565b906002821015612d4d5752565b959293613bad6139479a9895613b9f613bc695613b91613bbb969d9a9d6101208d526101208d019061385b565b908b820360208d015261385b565b9089820360408b015261385b565b90878203606089015261385b565b966080860190613b57565b613bcf81613a7b565b60a084015260c083015260e082015261010081840391015261385b565b608435906001600160a01b03821682036101e357565b600254811015613c21576002600052600a602060002091020190600090565b634e487b7160e01b600052603260045260246000fd5b600354811015613c215760036000526006602060002091020190600090565b916139479593613c85613c9392613c7760ff9560a0885260a088019061385b565b90868203602088015261385b565b90848203604086015261385b565b93166060820152608081840391015261385b565b6064359060ff821682036101e357565b6001600160401b038111610f035760051b60200190565b9080601f830112156101e3578135613ce581613cb7565b92613cf36040519485613a5a565b81845260208085019260051b820101918383116101e35760208201905b838210613d1f57505050505090565b81356001600160401b0381116101e357602091613d4187848094880101613b01565b815201910190613d10565b90613d5682613cb7565b613d636040519182613a5a565b8281528092613d74601f1991613cb7565b019060005b828110613d8557505050565b806060602080938501015201613d79565b90613da082613cb7565b613dad6040519182613a5a565b8281528092613dbe601f1991613cb7565b0190602036910137565b805115613c215760200190565b805160011015613c215760400190565b805160021015613c215760600190565b805160031015613c215760800190565b805160041015613c215760a00190565b805160051015613c215760c00190565b805160061015613c215760e00190565b805160071015613c21576101000190565b805160081015613c21576101200190565b805160091015613c21576101400190565b8051600a1015613c21576101600190565b8051600b1015613c21576101800190565b8051600c1015613c21576101a00190565b8051600d1015613c21576101c00190565b8051600e1015613c21576101e00190565b8051821015613c215760209160051b010190565b908154613edd81613cb7565b92613eeb6040519485613a5a565b818452602084019060005260206000206000915b838310613f0c5750505050565b600160208192604051613f23816101c48189613984565b815201920192019190613eff565b60009291815491613f418361394a565b9260018116908115613f8c5750600114613f5a57505050565b909192935060005260206000206000905b838210613f785750500190565b600181602092548486015201910190613f6b565b60ff191683525050811515909102019150565b6000198114613fae5760010190565b634e487b7160e01b600052601160045260246000fd5b15613fcb57565b60405162461bcd60e51b815260206004820152601b60248201527f4e6f206461746120666f756e64207769746820746869732049442e00000000006044820152606490fd5b6002821015612d4d5752565b818110614027575050565b6000815560010161401c565b908160209103126101e3575180151581036101e35790565b1561405257565b60405162461bcd60e51b815260206004820152601960248201527f4d696e696d756d206f72646572206973203530206f6261742e000000000000006044820152606490fd5b919080519283516001600160401b038111610f03576140b6825461394a565b601f811161469a575b50602094601f8211600114614635576140f39293949582916000926117555750508160011b916000199060031b1c19161790565b81555b6001810160208301518051906001600160401b038211610f035761411a835461394a565b601f8111614603575b50602090601f831160011461459c576141549291600091836117555750508160011b916000199060031b1c19161790565b90555b6002810160408301518051906001600160401b038211610f035761417b835461394a565b601f811161456a575b50602090601f8311600114614503576141b59291600091836117555750508160011b916000199060031b1c19161790565b90555b60ff60608301511660ff60038301911660ff198254161790556004810160808301518051906001600160401b038211610f03576141f5835461394a565b601f81116144d1575b50602090601f83116001146144635782610100959360079593614237936000926117555750508160011b916000199060031b1c19161790565b90555b60a08401516005820180546001600160a01b0319166001600160a01b039290921691909117815560c085015161426f81613a7b565b61427881613a7b565b81549060ff60a01b9060a01b169060ff60a01b191617905560e0840151600682015501910151805190600160401b8211610f035782548284558083106143e5575b50602001916000526020600020916000905b8282106142d85750505050565b80518051906001600160401b038211610f03576142f5865461394a565b601f81116143b3575b50602090601f83116001146143465792614337836001959460209487966000926117555750508160011b916000199060031b1c19161790565b87555b019401910190926142cb565b90601f1983169187600052816000209260005b81811061439b5750936020936001969387969383889510614382575b505050811b01875561433a565b015160001960f88460031b161c19169055388080614375565b92936020600181928786015181550195019301614359565b6143df90876000526020600020601f850160051c81019160208610610fbb57601f0160051c019061401c565b386142fe565b8360005282602060002091820191015b81811061440257506142b9565b8061440f6001925461394a565b8061441c575b50016143f5565b601f811183146144325750600081555b38614415565b614450908260005283601f6020600020920160051c8201910161401c565b806000526000602081208183555561442c565b90601f1983169184600052816000209260005b8181106144b95750926001928592610100989660079896106144a0575b505050811b01905561423a565b015160001960f88460031b161c19169055388080614493565b92936020600181928786015181550195019301614476565b6144fd90846000526020600020601f850160051c81019160208610610fbb57601f0160051c019061401c565b386141fe565b90601f1983169184600052816000209260005b8181106145525750908460019594939210614539575b505050811b0190556141b8565b015160001960f88460031b161c1916905538808061452c565b92936020600181928786015181550195019301614516565b61459690846000526020600020601f850160051c81019160208610610fbb57601f0160051c019061401c565b38614184565b90601f1983169184600052816000209260005b8181106145eb57509084600195949392106145d2575b505050811b019055614157565b015160001960f88460031b161c191690553880806145c5565b929360206001819287860151815501950193016145af565b61462f90846000526020600020601f850160051c81019160208610610fbb57601f0160051c019061401c565b38614123565b601f1982169583600052806000209160005b88811061468257508360019596979810614669575b505050811b0181556140f6565b015160001960f88460031b161c1916905538808061465c565b91926020600181928685015181550194019201614647565b6146c690836000526020600020601f840160051c81019160208510610fbb57601f0160051c019061401c565b386140bf565b600454600160401b811015610f0357600181016004556000600454821015613747576004905260031b7f8a35acfbc15ff81a39ae7d344fd709f28e8600b4aa8c65c6b64bfe7fe36bd19b019061472191614097565b565b926147699261475b9160ff61474760a098959b9a999b60c0895260c089019061385b565b92166020870152858203604087015261385b565b90838203606085015261385b565b94600180841b031660808201520152565b1561478157565b606460405162461bcd60e51b815260206004820152602060248201527f416363657373207265737472696374656420746f2050616272696b20726f6c656044820152fd5b919080519283516001600160401b038111610f03576147e4825461394a565b601f8111614d66575b50602094601f8211600114614d01576148219293949582916000926117555750508160011b916000199060031b1c19161790565b81555b6001810160208301518051906001600160401b038211610f0357614848835461394a565b601f8111614ccf575b50602090601f8311600114614c68576148829291600091836117555750508160011b916000199060031b1c19161790565b90555b6002810160408301518051906001600160401b038211610f03576148a9835461394a565b601f8111614c36575b50602090601f8311600114614bcf576148e39291600091836117555750508160011b916000199060031b1c19161790565b90555b60ff60608301511660ff60038301911660ff198254161790556004810160808301518051906001600160401b038211610f0357614923835461394a565b601f8111614b9d575b50602090601f8311600114614b30578260a0959360059593614964936000926117555750508160011b916000199060031b1c19161790565b90555b01910151805190600160401b8211610f03578254828455808310614ab2575b50602001916000526020600020916000905b8282106149a55750505050565b80518051906001600160401b038211610f03576149c2865461394a565b601f8111614a80575b50602090601f8311600114614a135792614a04836001959460209487966000926117555750508160011b916000199060031b1c19161790565b87555b01940191019092614998565b90601f1983169187600052816000209260005b818110614a685750936020936001969387969383889510614a4f575b505050811b018755614a07565b015160001960f88460031b161c19169055388080614a42565b92936020600181928786015181550195019301614a26565b614aac90876000526020600020601f850160051c81019160208610610fbb57601f0160051c019061401c565b386149cb565b8360005282602060002091820191015b818110614acf5750614986565b80614adc6001925461394a565b80614ae9575b5001614ac2565b601f81118314614aff5750600081555b38614ae2565b614b1d908260005283601f6020600020920160051c8201910161401c565b8060005260006020812081835555614af9565b90601f1983169184600052816000209260005b818110614b85575092600192859260a098966005989610614b6c575b505050811b019055614967565b015160001960f88460031b161c19169055388080614b5f565b92936020600181928786015181550195019301614b43565b614bc990846000526020600020601f850160051c81019160208610610fbb57601f0160051c019061401c565b3861492c565b90601f1983169184600052816000209260005b818110614c1e5750908460019594939210614c05575b505050811b0190556148e6565b015160001960f88460031b161c19169055388080614bf8565b92936020600181928786015181550195019301614be2565b614c6290846000526020600020601f850160051c81019160208610610fbb57601f0160051c019061401c565b386148b2565b90601f1983169184600052816000209260005b818110614cb75750908460019594939210614c9e575b505050811b019055614885565b015160001960f88460031b161c19169055388080614c91565b92936020600181928786015181550195019301614c7b565b614cfb90846000526020600020601f850160051c81019160208610610fbb57601f0160051c019061401c565b38614851565b601f1982169583600052806000209160005b888110614d4e57508360019596979810614d35575b505050811b018155614824565b015160001960f88460031b161c19169055388080614d28565b91926020600181928685015181550194019201614d13565b614d9290836000526020600020601f840160051c81019160208510610fbb57601f0160051c019061401c565b386147ed565b600354600160401b811015610f035760018101600355600060035482101561374757600390526006027fc2575a0e9e593c00f959f8c92f12db2869c3395a3b0502d05e2516446f71f85b0190614721916147c5565b909182519283516001600160401b038111610f0357614e0c845461394a565b601f811161568b575b50602094601f821160011461562657614e499293949582916000926117555750508160011b916000199060031b1c19161790565b83555b6001830160208201518051906001600160401b038211610f0357614e70835461394a565b601f81116155f4575b50602090601f831160011461558d57614eaa9291600091836117555750508160011b916000199060031b1c19161790565b90555b6002830160408201518051906001600160401b038211610f0357614ed1835461394a565b601f811161555b575b50602090601f83116001146154f457614f0b9291600091836117555750508160011b916000199060031b1c19161790565b90555b600383016060820151805190600160401b8211610f03578254828455808310615476575b50602001916000526020600020916000905b82821061536957505050506004830160808201518051906001600160401b038211610f0357614f73835461394a565b601f8111615337575b50602090601f83116001146152d057614fad9291600091836117555750508160011b916000199060031b1c19161790565b90555b6005830160a0820151805190600160401b8211610f03578254828455808310615252575b50602001916000526020600020916000905b828210615145575050505060c081015192600681016002851015612d4d576101409160099160009660ff8019835416911617815560e085015161502881613a7b565b61503181613a7b565b61ff0082549160081b169061ff0019161790556101008401516007820155610120840151600882015501910151928351906001600160401b038211611db35761507a835461394a565b601f8111615115575b50602090601f83116001146150b757906150b3939495836117555750508160011b916000199060031b1c19161790565b9055565b90601f198316848352818320925b8181106150fd575095836001959697106150e4575b505050811b019055565b015160001960f88460031b161c191690553880806150da565b9192602060018192868b0151815501940192016150c5565b61513f9084835260208320601f850160051c81019160208610610fbb57601f0160051c019061401c565b38615083565b80518051906001600160401b038211610f0357615162865461394a565b601f8111615220575b50602090601f83116001146151b357926151a4836001959460209487966000926117555750508160011b916000199060031b1c19161790565b87555b01940191019092614fe6565b90601f1983169187600052816000209260005b81811061520857509360209360019693879693838895106151ef575b505050811b0187556151a7565b015160001960f88460031b161c191690553880806151e2565b929360206001819287860151815501950193016151c6565b61524c90876000526020600020601f850160051c81019160208610610fbb57601f0160051c019061401c565b3861516b565b8360005282602060002091820191015b81811061526f5750614fd4565b8061527c6001925461394a565b80615289575b5001615262565b601f8111831461529f5750600081555b38615282565b6152bd908260005283601f6020600020920160051c8201910161401c565b8060005260006020812081835555615299565b90601f1983169184600052816000209260005b81811061531f5750908460019594939210615306575b505050811b019055614fb0565b015160001960f88460031b161c191690553880806152f9565b929360206001819287860151815501950193016152e3565b61536390846000526020600020601f850160051c81019160208610610fbb57601f0160051c019061401c565b38614f7c565b80518051906001600160401b038211610f0357615386865461394a565b601f8111615444575b50602090601f83116001146153d757926153c8836001959460209487966000926117555750508160011b916000199060031b1c19161790565b87555b01940191019092614f44565b90601f1983169187600052816000209260005b81811061542c5750936020936001969387969383889510615413575b505050811b0187556153cb565b015160001960f88460031b161c19169055388080615406565b929360206001819287860151815501950193016153ea565b61547090876000526020600020601f850160051c81019160208610610fbb57601f0160051c019061401c565b3861538f565b8360005282602060002091820191015b8181106154935750614f32565b806154a06001925461394a565b806154ad575b5001615486565b601f811183146154c35750600081555b386154a6565b6154e1908260005283601f6020600020920160051c8201910161401c565b80600052600060208120818355556154bd565b90601f1983169184600052816000209260005b818110615543575090846001959493921061552a575b505050811b019055614f0e565b015160001960f88460031b161c1916905538808061551d565b92936020600181928786015181550195019301615507565b61558790846000526020600020601f850160051c81019160208610610fbb57601f0160051c019061401c565b38614eda565b90601f1983169184600052816000209260005b8181106155dc57509084600195949392106155c3575b505050811b019055614ead565b015160001960f88460031b161c191690553880806155b6565b929360206001819287860151815501950193016155a0565b61562090846000526020600020601f850160051c81019160208610610fbb57601f0160051c019061401c565b38614e79565b601f1982169585600052806000209160005b8881106156735750836001959697981061565a575b505050811b018355614e4c565b015160001960f88460031b161c1916905538808061564d565b91926020600181928685015181550194019201615638565b6156b790856000526020600020601f840160051c81019160208510610fbb57601f0160051c019061401c565b38614e1556fea2646970667358221220b42547fface27c10a7a9ca1d87aa91572ccf530e95e9ad0456ff59ee08e9662464736f6c634300081b0033","opcodes":"PUSH1 0x80 CALLVALUE PUSH1 0x86 JUMPI PUSH1 0x1F PUSH2 0x57A8 CODESIZE DUP2 SWAP1 SUB SWAP2 DUP3 ADD PUSH1 0x1F NOT AND DUP4 ADD SWAP2 PUSH1 0x1 PUSH1 0x1 PUSH1 0x40 SHL SUB DUP4 GT DUP5 DUP5 LT OR PUSH1 0x8B JUMPI DUP1 DUP5 SWAP3 PUSH1 0x40 SWAP5 DUP6 MSTORE DUP4 CODECOPY DUP2 ADD SUB SLT PUSH1 0x86 JUMPI PUSH1 0x4B PUSH1 0x20 PUSH1 0x45 DUP4 PUSH1 0xA1 JUMP JUMPDEST SWAP3 ADD PUSH1 0xA1 JUMP JUMPDEST PUSH1 0x0 DUP1 SLOAD PUSH1 0x1 PUSH1 0x1 PUSH1 0xA0 SHL SUB SWAP4 DUP5 AND PUSH1 0x1 PUSH1 0x1 PUSH1 0xA0 SHL SUB NOT SWAP2 DUP3 AND OR SWAP1 SWAP2 SSTORE PUSH1 0x1 DUP1 SLOAD SWAP3 SWAP1 SWAP4 AND SWAP2 AND OR SWAP1 SSTORE PUSH1 0x40 MLOAD PUSH2 0x56F3 SWAP1 DUP2 PUSH2 0xB5 DUP3 CODECOPY RETURN JUMPDEST PUSH1 0x0 DUP1 REVERT JUMPDEST PUSH4 0x4E487B71 PUSH1 0xE0 SHL PUSH1 0x0 MSTORE PUSH1 0x41 PUSH1 0x4 MSTORE PUSH1 0x24 PUSH1 0x0 REVERT JUMPDEST MLOAD SWAP1 PUSH1 0x1 PUSH1 0x1 PUSH1 0xA0 SHL SUB DUP3 AND DUP3 SUB PUSH1 0x86 JUMPI JUMP INVALID PUSH1 0x80 DUP1 PUSH1 0x40 MSTORE PUSH1 0x4 CALLDATASIZE LT ISZERO PUSH2 0x13 JUMPI PUSH1 0x0 DUP1 REVERT JUMPDEST PUSH1 0x0 CALLDATALOAD PUSH1 0xE0 SHR SWAP1 DUP2 PUSH3 0x435DA5 EQ PUSH2 0x3814 JUMPI POP DUP1 PUSH4 0x1D62D3B EQ PUSH2 0x375B JUMPI DUP1 PUSH4 0xA04F9C8 EQ PUSH2 0x36FF JUMPI DUP1 PUSH4 0x1A95E672 EQ PUSH2 0x352C JUMPI DUP1 PUSH4 0x1C0B2030 EQ PUSH2 0x34C4 JUMPI DUP1 PUSH4 0x1DCE6E58 EQ PUSH2 0x3296 JUMPI DUP1 PUSH4 0x25606BC3 EQ PUSH2 0x2E70 JUMPI DUP1 PUSH4 0x27321837 EQ PUSH2 0x2E1F JUMPI DUP1 PUSH4 0x349A7A72 EQ PUSH2 0x2DCB JUMPI DUP1 PUSH4 0x4B87568A EQ PUSH2 0x2D63 JUMPI DUP1 PUSH4 0x74D5E100 EQ PUSH2 0x2D03 JUMPI DUP1 PUSH4 0x7AAD01BD EQ PUSH2 0x2C34 JUMPI DUP1 PUSH4 0x7ADE51DD EQ PUSH2 0x253E JUMPI DUP1 PUSH4 0x7D08414F EQ PUSH2 0x2505 JUMPI DUP1 PUSH4 0x86F5CEA6 EQ PUSH2 0x2443 JUMPI DUP1 PUSH4 0x92B385C9 EQ PUSH2 0x22FD JUMPI DUP1 PUSH4 0x9413FCFD EQ PUSH2 0x22D4 JUMPI DUP1 PUSH4 0x998C1FCB EQ PUSH2 0x2220 JUMPI DUP1 PUSH4 0x9D9315C2 EQ PUSH2 0x21CC JUMPI DUP1 PUSH4 0xA812536D EQ PUSH2 0x2178 JUMPI DUP1 PUSH4 0xB7E66568 EQ PUSH2 0x1EFE JUMPI DUP1 PUSH4 0xB896CB9A EQ PUSH2 0x1E2B JUMPI DUP1 PUSH4 0xBB43BDF7 EQ PUSH2 0x1BD7 JUMPI DUP1 PUSH4 0xBC4A6F6C EQ PUSH2 0x1983 JUMPI DUP1 PUSH4 0xD19487E4 EQ PUSH2 0x11EE JUMPI DUP1 PUSH4 0xD44FAA63 EQ PUSH2 0x10B9 JUMPI DUP1 PUSH4 0xD9D284DC EQ PUSH2 0x490 JUMPI DUP1 PUSH4 0xE06749BA EQ PUSH2 0x1E8 JUMPI PUSH4 0xF1022862 EQ PUSH2 0x15D JUMPI PUSH1 0x0 DUP1 REVERT JUMPDEST CALLVALUE PUSH2 0x1E3 JUMPI PUSH1 0x20 CALLDATASIZE PUSH1 0x3 NOT ADD SLT PUSH2 0x1E3 JUMPI PUSH1 0x4 CALLDATALOAD PUSH1 0x1 PUSH1 0x1 PUSH1 0x40 SHL SUB DUP2 GT PUSH2 0x1E3 JUMPI PUSH2 0x1C4 PUSH2 0x1CB PUSH2 0x1AE PUSH1 0x20 PUSH2 0x19B PUSH2 0x1DF SWAP6 CALLDATASIZE SWAP1 PUSH1 0x4 ADD PUSH2 0x3B01 JUMP JUMPDEST DUP2 PUSH1 0x40 MLOAD SWAP4 DUP3 DUP6 DUP1 SWAP5 MLOAD SWAP4 DUP5 SWAP3 ADD PUSH2 0x3838 JUMP JUMPDEST DUP2 ADD PUSH1 0x7 DUP2 MSTORE SUB ADD SWAP1 KECCAK256 PUSH1 0x40 MLOAD SWAP3 DUP4 DUP1 SWAP3 PUSH2 0x3984 JUMP JUMPDEST SUB DUP3 PUSH2 0x3A5A JUMP JUMPDEST PUSH1 0x40 MLOAD SWAP2 DUP3 SWAP2 PUSH1 0x20 DUP4 MSTORE PUSH1 0x20 DUP4 ADD SWAP1 PUSH2 0x385B JUMP JUMPDEST SUB SWAP1 RETURN JUMPDEST PUSH1 0x0 DUP1 REVERT JUMPDEST CALLVALUE PUSH2 0x1E3 JUMPI PUSH1 0x0 CALLDATASIZE PUSH1 0x3 NOT ADD SLT PUSH2 0x1E3 JUMPI PUSH1 0x0 DUP1 PUSH1 0x2 SLOAD SWAP1 JUMPDEST DUP2 DUP2 LT PUSH2 0x452 JUMPI POP PUSH2 0x212 DUP3 PUSH2 0x3D4C JUMP JUMPDEST SWAP1 PUSH2 0x21C DUP4 PUSH2 0x3D4C JUMP JUMPDEST PUSH2 0x225 DUP5 PUSH2 0x3D4C JUMP JUMPDEST PUSH2 0x22E DUP6 PUSH2 0x3CB7 JUMP JUMPDEST SWAP2 PUSH2 0x23C PUSH1 0x40 MLOAD SWAP4 DUP5 PUSH2 0x3A5A JUMP JUMPDEST DUP6 DUP4 MSTORE PUSH2 0x25D PUSH2 0x24B DUP8 PUSH2 0x3CB7 JUMP JUMPDEST PUSH1 0x20 DUP6 ADD SWAP8 SWAP1 PUSH1 0x1F NOT ADD CALLDATASIZE DUP10 CALLDATACOPY PUSH2 0x3D96 JUMP JUMPDEST SWAP4 PUSH1 0x0 DUP1 JUMPDEST DUP3 DUP2 LT PUSH2 0x2EB JUMPI POP POP POP PUSH1 0x20 SWAP2 PUSH2 0x298 PUSH2 0x2A6 SWAP3 PUSH2 0x28B PUSH1 0x40 MLOAD SWAP9 PUSH1 0xA0 DUP11 MSTORE PUSH1 0xA0 DUP11 ADD SWAP1 PUSH2 0x3880 JUMP JUMPDEST SWAP1 DUP9 DUP3 SUB DUP7 DUP11 ADD MSTORE PUSH2 0x3880 JUMP JUMPDEST SWAP1 DUP7 DUP3 SUB PUSH1 0x40 DUP9 ADD MSTORE PUSH2 0x3880 JUMP JUMPDEST SWAP2 DUP5 DUP4 SUB PUSH1 0x60 DUP7 ADD MSTORE MLOAD SWAP2 DUP3 DUP2 MSTORE ADD SWAP4 SWAP1 PUSH1 0x0 JUMPDEST DUP2 DUP2 LT PUSH2 0x2D5 JUMPI DUP5 DUP1 PUSH2 0x1DF DUP9 DUP8 DUP4 DUP3 SUB PUSH1 0x80 DUP6 ADD MSTORE PUSH2 0x38D9 JUMP JUMPDEST DUP3 MLOAD DUP7 MSTORE PUSH1 0x20 SWAP6 DUP7 ADD SWAP6 SWAP1 SWAP3 ADD SWAP2 PUSH1 0x1 ADD PUSH2 0x2BA JUMP JUMPDEST PUSH1 0xFF PUSH1 0x6 PUSH2 0x2F8 DUP4 PUSH2 0x3C02 JUMP JUMPDEST POP ADD SLOAD PUSH1 0x8 SHR AND PUSH2 0x308 DUP2 PUSH2 0x3A7B JUMP JUMPDEST PUSH2 0x315 JUMPI JUMPDEST PUSH1 0x1 ADD PUSH2 0x262 JUMP JUMPDEST SWAP1 PUSH2 0x437 PUSH1 0x1 SWAP2 PUSH2 0x1C4 PUSH2 0x338 PUSH2 0x32B DUP7 PUSH2 0x3C02 JUMP JUMPDEST POP PUSH1 0x40 MLOAD SWAP3 DUP4 DUP1 SWAP3 PUSH2 0x3984 JUMP JUMPDEST PUSH2 0x342 DUP3 DUP13 PUSH2 0x3EBD JUMP JUMPDEST MSTORE PUSH2 0x34D DUP2 DUP12 PUSH2 0x3EBD JUMP JUMPDEST POP PUSH1 0x2 PUSH2 0x36D PUSH2 0x35C DUP7 PUSH2 0x3C02 JUMP JUMPDEST POP PUSH2 0x1C4 PUSH1 0x40 MLOAD DUP1 SWAP5 DUP2 SWAP4 ADD PUSH2 0x3984 JUMP JUMPDEST PUSH2 0x377 DUP3 DUP9 PUSH2 0x3EBD JUMP JUMPDEST MSTORE PUSH2 0x382 DUP2 DUP8 PUSH2 0x3EBD JUMP JUMPDEST POP PUSH2 0x1C4 PUSH2 0x3B8 PUSH2 0x3A4 PUSH1 0x20 PUSH2 0x397 DUP9 PUSH2 0x3C02 JUMP JUMPDEST POP PUSH1 0x40 MLOAD SWAP3 DUP4 DUP1 SWAP3 PUSH2 0x3F31 JUMP JUMPDEST PUSH1 0x9 DUP2 MSTORE SUB ADD SWAP1 KECCAK256 PUSH1 0x40 MLOAD SWAP3 DUP4 DUP1 SWAP3 PUSH2 0x3984 JUMP JUMPDEST PUSH2 0x3C2 DUP3 DUP10 PUSH2 0x3EBD JUMP JUMPDEST MSTORE PUSH2 0x3CD DUP2 DUP9 PUSH2 0x3EBD JUMP JUMPDEST POP PUSH1 0x8 PUSH2 0x3D9 DUP6 PUSH2 0x3C02 JUMP JUMPDEST POP ADD SLOAD PUSH1 0x7 PUSH2 0x3E7 DUP7 PUSH2 0x3C02 JUMP JUMPDEST POP ADD SLOAD LT ISZERO PUSH2 0x43F JUMPI PUSH1 0x8 PUSH2 0x3FB DUP6 PUSH2 0x3C02 JUMP JUMPDEST POP ADD SLOAD JUMPDEST PUSH2 0x409 DUP3 DUP11 PUSH2 0x3EBD JUMP JUMPDEST MSTORE PUSH1 0xFF PUSH1 0x6 PUSH2 0x417 DUP7 PUSH2 0x3C02 JUMP JUMPDEST POP ADD SLOAD PUSH1 0x8 SHR AND PUSH2 0x427 DUP2 PUSH2 0x3A7B JUMP JUMPDEST PUSH2 0x431 DUP3 DUP12 PUSH2 0x3EBD JUMP JUMPDEST MSTORE PUSH2 0x3F9F JUMP JUMPDEST SWAP2 SWAP1 POP PUSH2 0x30D JUMP JUMPDEST PUSH1 0x7 PUSH2 0x44A DUP6 PUSH2 0x3C02 JUMP JUMPDEST POP ADD SLOAD PUSH2 0x3FF JUMP JUMPDEST PUSH1 0xFF PUSH1 0x6 PUSH2 0x45F DUP4 PUSH2 0x3C02 JUMP JUMPDEST POP ADD SLOAD PUSH1 0x8 SHR AND PUSH2 0x46F DUP2 PUSH2 0x3A7B JUMP JUMPDEST PUSH2 0x47C JUMPI JUMPDEST PUSH1 0x1 ADD PUSH2 0x201 JUMP JUMPDEST SWAP2 PUSH2 0x488 PUSH1 0x1 SWAP2 PUSH2 0x3F9F JUMP JUMPDEST SWAP3 SWAP1 POP PUSH2 0x474 JUMP JUMPDEST CALLVALUE PUSH2 0x1E3 JUMPI PUSH2 0x140 CALLDATASIZE PUSH1 0x3 NOT ADD SLT PUSH2 0x1E3 JUMPI PUSH1 0x4 CALLDATALOAD PUSH1 0x1 PUSH1 0x1 PUSH1 0x40 SHL SUB DUP2 GT PUSH2 0x1E3 JUMPI PUSH2 0x4C1 SWAP1 CALLDATASIZE SWAP1 PUSH1 0x4 ADD PUSH2 0x3B01 JUMP JUMPDEST PUSH1 0x24 CALLDATALOAD PUSH1 0x1 PUSH1 0x1 PUSH1 0x40 SHL SUB DUP2 GT PUSH2 0x1E3 JUMPI PUSH2 0x4E0 SWAP1 CALLDATASIZE SWAP1 PUSH1 0x4 ADD PUSH2 0x3B01 JUMP JUMPDEST PUSH1 0x44 CALLDATALOAD PUSH1 0x1 PUSH1 0x1 PUSH1 0x40 SHL SUB DUP2 GT PUSH2 0x1E3 JUMPI PUSH2 0x4FF SWAP1 CALLDATASIZE SWAP1 PUSH1 0x4 ADD PUSH2 0x3B01 JUMP JUMPDEST SWAP1 PUSH1 0x64 CALLDATALOAD PUSH1 0x1 PUSH1 0x1 PUSH1 0x40 SHL SUB DUP2 GT PUSH2 0x1E3 JUMPI PUSH2 0x51F SWAP1 CALLDATASIZE SWAP1 PUSH1 0x4 ADD PUSH2 0x3CCE JUMP JUMPDEST SWAP1 PUSH1 0x84 CALLDATALOAD PUSH1 0x1 PUSH1 0x1 PUSH1 0x40 SHL SUB DUP2 GT PUSH2 0x1E3 JUMPI PUSH2 0x53F SWAP1 CALLDATASIZE SWAP1 PUSH1 0x4 ADD PUSH2 0x3B01 JUMP JUMPDEST SWAP1 PUSH1 0xA4 CALLDATALOAD PUSH1 0x1 PUSH1 0x1 PUSH1 0x40 SHL SUB DUP2 GT PUSH2 0x1E3 JUMPI PUSH2 0x55F SWAP1 CALLDATASIZE SWAP1 PUSH1 0x4 ADD PUSH2 0x3CCE JUMP JUMPDEST PUSH1 0xC4 CALLDATALOAD PUSH1 0x1 PUSH1 0x1 PUSH1 0xA0 SHL SUB DUP2 AND SWAP2 SWAP1 DUP3 SWAP1 SUB PUSH2 0x1E3 JUMPI PUSH1 0xE4 CALLDATALOAD PUSH1 0x1 PUSH1 0x1 PUSH1 0x40 SHL SUB DUP2 GT PUSH2 0x1E3 JUMPI PUSH2 0x594 SWAP1 CALLDATASIZE SWAP1 PUSH1 0x4 ADD PUSH2 0x3B01 JUMP JUMPDEST SWAP7 PUSH2 0x104 CALLDATALOAD PUSH1 0x1 PUSH1 0x1 PUSH1 0x40 SHL SUB DUP2 GT PUSH2 0x1E3 JUMPI PUSH2 0x5B5 SWAP1 CALLDATASIZE SWAP1 PUSH1 0x4 ADD PUSH2 0x3B01 JUMP JUMPDEST SWAP2 PUSH2 0x124 CALLDATALOAD SWAP7 PUSH1 0x2 DUP9 LT ISZERO PUSH2 0x1E3 JUMPI PUSH1 0x0 DUP1 SLOAD PUSH1 0x40 MLOAD PUSH4 0x95A8C58D PUSH1 0xE0 SHL DUP2 MSTORE CALLER PUSH1 0x4 DUP3 ADD MSTORE PUSH1 0x24 DUP2 ADD SWAP3 SWAP1 SWAP3 MSTORE PUSH1 0x20 SWAP1 DUP3 SWAP1 PUSH1 0x44 SWAP1 DUP3 SWAP1 PUSH1 0x1 PUSH1 0x1 PUSH1 0xA0 SHL SUB AND GAS STATICCALL DUP1 ISZERO PUSH2 0x10AD JUMPI PUSH2 0x610 SWAP2 PUSH1 0x0 SWAP2 PUSH2 0x107E JUMPI JUMPDEST POP PUSH2 0x477A JUMP JUMPDEST PUSH1 0x40 MLOAD SWAP6 PUSH2 0x61D DUP8 PUSH2 0x3A22 JUMP JUMPDEST DUP4 DUP8 MSTORE PUSH1 0x20 DUP8 ADD MSTORE DUP9 PUSH1 0x40 DUP8 ADD MSTORE PUSH1 0x60 DUP7 ADD MSTORE DUP6 PUSH1 0x80 DUP7 ADD MSTORE PUSH1 0xA0 DUP6 ADD MSTORE PUSH2 0x648 DUP7 PUSH1 0xC0 DUP7 ADD PUSH2 0x4010 JUMP JUMPDEST PUSH1 0x2 PUSH1 0xE0 DUP6 ADD MSTORE PUSH1 0x0 PUSH2 0x100 DUP6 ADD MSTORE PUSH1 0x0 PUSH2 0x120 DUP6 ADD MSTORE PUSH1 0x40 SWAP1 DUP2 MLOAD PUSH2 0x66E DUP4 DUP3 PUSH2 0x3A5A JUMP JUMPDEST PUSH1 0x9 DUP2 MSTORE PUSH9 0x2A22AA29A22329A223 PUSH1 0xB9 SHL PUSH1 0x20 DUP3 ADD MSTORE PUSH2 0x140 DUP7 ADD MSTORE DUP2 MLOAD SWAP5 PUSH2 0x6B4 DUP2 DUP8 PUSH1 0x20 DUP2 DUP7 MLOAD PUSH2 0x6A5 DUP2 DUP5 DUP11 ADD SWAP14 DUP15 PUSH2 0x3838 JUMP JUMPDEST DUP2 ADD PUSH1 0xC DUP2 MSTORE SUB ADD SWAP1 KECCAK256 PUSH2 0x4DED JUMP JUMPDEST PUSH1 0x2 SLOAD PUSH1 0x1 PUSH1 0x40 SHL DUP2 LT ISZERO PUSH2 0xF03 JUMPI DUP1 PUSH1 0x1 PUSH2 0x6D3 SWAP3 ADD PUSH1 0x2 SSTORE PUSH2 0x3C02 JUMP JUMPDEST SWAP2 SWAP1 SWAP2 PUSH2 0x1068 JUMPI PUSH2 0x6E3 SWAP2 PUSH2 0x4DED JUMP JUMPDEST DUP2 MLOAD PUSH1 0x20 DUP2 DUP4 MLOAD PUSH2 0x6F5 DUP2 DUP4 DUP12 PUSH2 0x3838 JUMP JUMPDEST DUP2 ADD PUSH1 0x8 DUP2 MSTORE SUB ADD SWAP1 KECCAK256 DUP5 PUSH12 0xFFFFFFFFFFFFFFFFFFFFFFFF PUSH1 0xA0 SHL DUP3 SLOAD AND OR SWAP1 SSTORE DUP2 MLOAD PUSH1 0x20 DUP2 DUP4 MLOAD PUSH2 0x728 DUP2 DUP4 DUP12 PUSH2 0x3838 JUMP JUMPDEST DUP2 ADD PUSH1 0x9 DUP2 MSTORE SUB ADD SWAP1 KECCAK256 DUP10 MLOAD PUSH1 0x1 PUSH1 0x1 PUSH1 0x40 SHL SUB DUP2 GT PUSH2 0xF03 JUMPI PUSH2 0x74C DUP3 SLOAD PUSH2 0x394A JUMP JUMPDEST PUSH1 0x1F DUP2 GT PUSH2 0x1036 JUMPI JUMPDEST POP PUSH1 0x20 PUSH1 0x1F DUP3 GT PUSH1 0x1 EQ PUSH2 0xFD0 JUMPI SWAP1 DUP1 PUSH2 0x785 SWAP3 PUSH1 0x0 SWAP2 PUSH2 0xFC5 JUMPI JUMPDEST POP DUP2 PUSH1 0x1 SHL SWAP2 PUSH1 0x0 NOT SWAP1 PUSH1 0x3 SHL SHR NOT AND OR SWAP1 JUMP JUMPDEST SWAP1 SSTORE JUMPDEST DUP2 MLOAD PUSH1 0x20 DUP2 DUP4 MLOAD PUSH2 0x79A DUP2 DUP4 DUP12 PUSH2 0x3838 JUMP JUMPDEST DUP2 ADD PUSH1 0xA DUP2 MSTORE SUB ADD SWAP1 KECCAK256 DUP4 MLOAD PUSH1 0x1 PUSH1 0x1 PUSH1 0x40 SHL SUB DUP2 GT PUSH2 0xF03 JUMPI PUSH2 0x7BE DUP3 SLOAD PUSH2 0x394A JUMP JUMPDEST PUSH1 0x1F DUP2 GT PUSH2 0xF88 JUMPI JUMPDEST POP PUSH1 0x20 PUSH1 0x1F DUP3 GT PUSH1 0x1 EQ PUSH2 0xF24 JUMPI SWAP1 DUP1 PUSH2 0x7F6 SWAP3 PUSH1 0x0 SWAP2 PUSH2 0xF19 JUMPI POP DUP2 PUSH1 0x1 SHL SWAP2 PUSH1 0x0 NOT SWAP1 PUSH1 0x3 SHL SHR NOT AND OR SWAP1 JUMP JUMPDEST SWAP1 SSTORE JUMPDEST DUP2 MLOAD SWAP5 PUSH2 0x200 PUSH2 0x809 DUP2 DUP9 PUSH2 0x3A5A JUMP JUMPDEST PUSH1 0xF DUP8 MSTORE PUSH1 0x1F NOT ADD PUSH1 0x0 JUMPDEST DUP2 DUP2 LT PUSH2 0xEF2 JUMPI POP POP DUP3 MLOAD SWAP2 PUSH2 0x829 DUP4 PUSH2 0x3A07 JUMP JUMPDEST DUP4 MLOAD PUSH2 0x835 DUP6 DUP3 PUSH2 0x3A5A JUMP JUMPDEST PUSH1 0x1D DUP2 MSTORE PUSH1 0x20 DUP2 ADD PUSH32 0x424E2D32303234313132352D5054506861726D61496E646F2D58343541000000 SWAP1 MSTORE DUP4 MSTORE DUP1 PUSH1 0x20 DUP5 ADD MSTORE DUP10 DUP5 DUP5 ADD MSTORE PUSH1 0x60 DUP4 ADD PUSH1 0xF SWAP1 MSTORE DUP11 PUSH1 0x80 DUP5 ADD MSTORE PUSH1 0xA0 DUP4 ADD DUP8 DUP2 MSTORE PUSH1 0x60 SWAP8 DUP6 MLOAD PUSH2 0x891 DUP11 DUP3 PUSH2 0x3A5A JUMP JUMPDEST PUSH1 0x2E DUP2 MSTORE PUSH32 0x516D5A706A516644654452505253724834573431334777443557626239554D47 PUSH1 0x20 DUP3 ADD MSTORE PUSH14 0x1AB4B6B8B83338B9A839A0BC3699 PUSH1 0x91 SHL DUP8 DUP3 ADD MSTORE PUSH2 0x8DA DUP3 PUSH2 0x3DC8 JUMP JUMPDEST MSTORE PUSH2 0x8E4 SWAP1 PUSH2 0x3DC8 JUMP JUMPDEST POP DUP1 MLOAD DUP6 MLOAD PUSH2 0x8F3 DUP11 DUP3 PUSH2 0x3A5A JUMP JUMPDEST PUSH1 0x2E DUP2 MSTORE PUSH32 0x516D585655454E637A666342617242745132776944744C6D5A5632506137386E PUSH1 0x20 DUP3 ADD MSTORE PUSH14 0x1935B6A3A238351CB2353298ACB7 PUSH1 0x91 SHL DUP8 DUP3 ADD MSTORE PUSH2 0x93C DUP3 PUSH2 0x3DD5 JUMP JUMPDEST MSTORE PUSH2 0x946 SWAP1 PUSH2 0x3DD5 JUMP JUMPDEST POP DUP1 MLOAD DUP6 MLOAD PUSH2 0x955 DUP11 DUP3 PUSH2 0x3A5A JUMP JUMPDEST PUSH1 0x2E DUP2 MSTORE PUSH32 0x516D6436517662316F58616431777A5A75354A36587259646E477039466A3374 PUSH1 0x20 DUP3 ADD MSTORE PUSH14 0x145D59559CDCCE589DD1D59214D5 PUSH1 0x92 SHL DUP8 DUP3 ADD MSTORE PUSH2 0x99E DUP3 PUSH2 0x3DE5 JUMP JUMPDEST MSTORE PUSH2 0x9A8 SWAP1 PUSH2 0x3DE5 JUMP JUMPDEST POP DUP1 MLOAD DUP6 MLOAD PUSH2 0x9B7 DUP11 DUP3 PUSH2 0x3A5A JUMP JUMPDEST PUSH1 0x2E DUP2 MSTORE PUSH32 0x516D56553255784D724A657168726E5144504A6972617546735773364A37584C PUSH1 0x20 DUP3 ADD MSTORE PUSH14 0x446944514B697838485664455473 PUSH1 0x90 SHL DUP8 DUP3 ADD MSTORE PUSH2 0xA00 DUP3 PUSH2 0x3DF5 JUMP JUMPDEST MSTORE PUSH2 0xA0A SWAP1 PUSH2 0x3DF5 JUMP JUMPDEST POP DUP1 MLOAD DUP6 MLOAD PUSH2 0xA19 DUP11 DUP3 PUSH2 0x3A5A JUMP JUMPDEST PUSH1 0x2E DUP2 MSTORE PUSH32 0x516D646D523450666E6E35674344355861617776727669586D45334A73696178 PUSH1 0x20 DUP3 ADD MSTORE PUSH14 0x524633654E727A68593143425537 PUSH1 0x90 SHL DUP8 DUP3 ADD MSTORE PUSH2 0xA62 DUP3 PUSH2 0x3E05 JUMP JUMPDEST MSTORE PUSH2 0xA6C SWAP1 PUSH2 0x3E05 JUMP JUMPDEST POP DUP1 MLOAD DUP6 MLOAD PUSH2 0xA7B DUP11 DUP3 PUSH2 0x3A5A JUMP JUMPDEST PUSH1 0x2E DUP2 MSTORE PUSH32 0x516D517254726667674B5437366E525A563872426A6361546F576648434D7A57 PUSH1 0x20 DUP3 ADD MSTORE PUSH14 0x7159347957527057335344365967 PUSH1 0x90 SHL DUP8 DUP3 ADD MSTORE PUSH2 0xAC4 DUP3 PUSH2 0x3E15 JUMP JUMPDEST MSTORE PUSH2 0xACE SWAP1 PUSH2 0x3E15 JUMP JUMPDEST POP DUP1 MLOAD DUP6 MLOAD PUSH2 0xADD DUP11 DUP3 PUSH2 0x3A5A JUMP JUMPDEST PUSH1 0x2E DUP2 MSTORE PUSH32 0x516D515848585145505032506E4662513636685367325A4D4E643653537A6646 PUSH1 0x20 DUP3 ADD MSTORE PUSH14 0x25A1A52420A2B4B9ACBA9C19192B PUSH1 0x91 SHL DUP8 DUP3 ADD MSTORE PUSH2 0xB26 DUP3 PUSH2 0x3E25 JUMP JUMPDEST MSTORE PUSH2 0xB30 SWAP1 PUSH2 0x3E25 JUMP JUMPDEST POP DUP1 MLOAD DUP6 MLOAD PUSH2 0xB3F DUP11 DUP3 PUSH2 0x3A5A JUMP JUMPDEST PUSH1 0x2E DUP2 MSTORE PUSH32 0x516D554543695837714869483868346B723275346836716169473866536A395A PUSH1 0x20 DUP3 ADD MSTORE PUSH14 0x135D18D091D9D15210D55E5B4C53 PUSH1 0x92 SHL DUP8 DUP3 ADD MSTORE PUSH2 0xB88 DUP3 PUSH2 0x3E35 JUMP JUMPDEST MSTORE PUSH2 0xB92 SWAP1 PUSH2 0x3E35 JUMP JUMPDEST POP DUP1 MLOAD DUP6 MLOAD PUSH2 0xBA1 DUP11 DUP3 PUSH2 0x3A5A JUMP JUMPDEST PUSH1 0x2E DUP2 MSTORE PUSH32 0x516D55775A727439624C6A6E684D4C43693443466361547659675A6157554A52 PUSH1 0x20 DUP3 ADD MSTORE PUSH14 0x635A444B71733963336D71794879 PUSH1 0x90 SHL DUP8 DUP3 ADD MSTORE PUSH2 0xBEA DUP3 PUSH2 0x3E46 JUMP JUMPDEST MSTORE PUSH2 0xBF4 SWAP1 PUSH2 0x3E46 JUMP JUMPDEST POP DUP1 MLOAD DUP6 MLOAD PUSH2 0xC03 DUP11 DUP3 PUSH2 0x3A5A JUMP JUMPDEST PUSH1 0x2E DUP2 MSTORE PUSH32 0x516D4E4E75775A415548366758386854636B366F6861344E6A4D684563373578 PUSH1 0x20 DUP3 ADD MSTORE PUSH14 0x7679474371324C70464474594347 PUSH1 0x90 SHL DUP8 DUP3 ADD MSTORE PUSH2 0xC4C DUP3 PUSH2 0x3E57 JUMP JUMPDEST MSTORE PUSH2 0xC56 SWAP1 PUSH2 0x3E57 JUMP JUMPDEST POP DUP1 MLOAD DUP6 MLOAD PUSH2 0xC65 DUP11 DUP3 PUSH2 0x3A5A JUMP JUMPDEST PUSH1 0x2E DUP2 MSTORE PUSH32 0x516D6162687874624B796531656F47504D6664617A5743356D544A734B417455 PUSH1 0x20 DUP3 ADD MSTORE PUSH14 0x31A33129B43319AD31B6B1B6ABA7 PUSH1 0x91 SHL DUP8 DUP3 ADD MSTORE PUSH2 0xCAE DUP3 PUSH2 0x3E68 JUMP JUMPDEST MSTORE PUSH2 0xCB8 SWAP1 PUSH2 0x3E68 JUMP JUMPDEST POP DUP1 MLOAD DUP6 MLOAD PUSH2 0xCC7 DUP11 DUP3 PUSH2 0x3A5A JUMP JUMPDEST PUSH1 0x2E DUP2 MSTORE PUSH32 0x516D6552686F6B686B47363142693378656D443967635A41484B386B36637538 PUSH1 0x20 DUP3 ADD MSTORE PUSH14 0x79434E4154456372556773345479 PUSH1 0x90 SHL DUP8 DUP3 ADD MSTORE PUSH2 0xD10 DUP3 PUSH2 0x3E79 JUMP JUMPDEST MSTORE PUSH2 0xD1A SWAP1 PUSH2 0x3E79 JUMP JUMPDEST POP DUP1 MLOAD DUP6 MLOAD PUSH2 0xD29 DUP11 DUP3 PUSH2 0x3A5A JUMP JUMPDEST PUSH1 0x2E DUP2 MSTORE PUSH32 0x516D616D526B504E4D425874706E687558344573623852516D394E4E70774333 PUSH1 0x20 DUP3 ADD MSTORE PUSH14 0x7A64414D54617250775772695365 PUSH1 0x90 SHL DUP8 DUP3 ADD MSTORE PUSH2 0xD72 DUP3 PUSH2 0x3E8A JUMP JUMPDEST MSTORE PUSH2 0xD7C SWAP1 PUSH2 0x3E8A JUMP JUMPDEST POP DUP1 MLOAD DUP6 MLOAD PUSH2 0xD8B DUP11 DUP3 PUSH2 0x3A5A JUMP JUMPDEST PUSH1 0x2E DUP2 MSTORE PUSH32 0x516D566B377467705573635047563267694B7779354B414A79434E506E534453 PUSH1 0x20 DUP3 ADD MSTORE PUSH14 0x35644D4B43336D534639357A4E6F PUSH1 0x90 SHL DUP8 DUP3 ADD MSTORE PUSH2 0xDD4 DUP3 PUSH2 0x3E9B JUMP JUMPDEST MSTORE PUSH2 0xDDE SWAP1 PUSH2 0x3E9B JUMP JUMPDEST POP MLOAD DUP5 MLOAD PUSH2 0xDEC DUP10 DUP3 PUSH2 0x3A5A JUMP JUMPDEST PUSH1 0x2E DUP2 MSTORE PUSH32 0x516D5464734A4E4437426450414B4A5A4438484A707033735445593744746757 PUSH1 0x20 DUP3 ADD MSTORE PUSH14 0x379B3937AA3A35BA2538B439B919 PUSH1 0x91 SHL DUP7 DUP3 ADD MSTORE PUSH2 0xE35 DUP3 PUSH2 0x3EAC JUMP JUMPDEST MSTORE PUSH2 0xE3F SWAP1 PUSH2 0x3EAC JUMP JUMPDEST POP PUSH2 0xE49 DUP4 PUSH2 0x4D98 JUMP JUMPDEST DUP4 MLOAD DUP1 SWAP3 DUP2 SWAP3 MLOAD DUP1 SWAP3 PUSH2 0xE5B SWAP3 PUSH2 0x3838 JUMP JUMPDEST DUP2 ADD PUSH1 0xD DUP2 MSTORE SUB PUSH1 0x20 ADD SWAP1 KECCAK256 SWAP1 PUSH2 0xE71 SWAP2 PUSH2 0x47C5 JUMP JUMPDEST DUP1 MLOAD SWAP8 DUP9 SWAP8 PUSH1 0xC0 DUP10 MSTORE PUSH1 0xC0 DUP10 ADD PUSH2 0xE87 SWAP2 PUSH2 0x385B JUMP JUMPDEST DUP9 DUP2 SUB PUSH1 0x20 DUP11 ADD MSTORE PUSH2 0xE98 SWAP2 PUSH2 0x385B JUMP JUMPDEST SWAP1 DUP8 DUP3 SUB SWAP1 DUP9 ADD MSTORE PUSH2 0xEA9 SWAP2 PUSH2 0x385B JUMP JUMPDEST SWAP2 DUP6 ADD MSTORE DUP4 DUP2 SUB PUSH1 0x80 DUP6 ADD MSTORE PUSH2 0xEBE SWAP2 PUSH2 0x385B JUMP JUMPDEST SWAP1 PUSH1 0xA0 DUP4 ADD PUSH2 0xECC SWAP2 PUSH2 0x3B57 JUMP JUMPDEST SUB PUSH32 0x634EF467423C7B2ABBAF26097BDDDAC4A495D36BE69CA3D1555484B46E7899C7 SWAP2 LOG1 STOP JUMPDEST DUP1 PUSH1 0x60 PUSH1 0x20 DUP1 SWAP4 DUP12 ADD ADD MSTORE ADD PUSH2 0x814 JUMP JUMPDEST PUSH4 0x4E487B71 PUSH1 0xE0 SHL PUSH1 0x0 MSTORE PUSH1 0x41 PUSH1 0x4 MSTORE PUSH1 0x24 PUSH1 0x0 REVERT JUMPDEST SWAP1 POP DUP7 ADD MLOAD DUP14 PUSH2 0x771 JUMP JUMPDEST PUSH1 0x1F NOT DUP3 AND SWAP1 DUP4 PUSH1 0x0 MSTORE DUP1 PUSH1 0x0 KECCAK256 SWAP2 PUSH1 0x0 JUMPDEST DUP2 DUP2 LT PUSH2 0xF70 JUMPI POP SWAP1 DUP4 PUSH1 0x1 SWAP5 SWAP4 SWAP3 LT PUSH2 0xF57 JUMPI JUMPDEST POP POP DUP2 SHL ADD SWAP1 SSTORE PUSH2 0x7F9 JUMP JUMPDEST DUP8 ADD MLOAD PUSH1 0x0 NOT PUSH1 0xF8 DUP5 PUSH1 0x3 SHL AND SHR NOT AND SWAP1 SSTORE DUP13 DUP1 PUSH2 0xF4B JUMP JUMPDEST SWAP2 SWAP3 PUSH1 0x20 PUSH1 0x1 DUP2 SWAP3 DUP7 DUP13 ADD MLOAD DUP2 SSTORE ADD SWAP5 ADD SWAP3 ADD PUSH2 0xF36 JUMP JUMPDEST PUSH2 0xFB5 SWAP1 DUP4 PUSH1 0x0 MSTORE PUSH1 0x20 PUSH1 0x0 KECCAK256 PUSH1 0x1F DUP5 ADD PUSH1 0x5 SHR DUP2 ADD SWAP2 PUSH1 0x20 DUP6 LT PUSH2 0xFBB JUMPI JUMPDEST PUSH1 0x1F ADD PUSH1 0x5 SHR ADD SWAP1 PUSH2 0x401C JUMP JUMPDEST DUP12 PUSH2 0x7C7 JUMP JUMPDEST SWAP1 SWAP2 POP DUP2 SWAP1 PUSH2 0xFA8 JUMP JUMPDEST SWAP1 POP DUP13 ADD MLOAD DUP14 PUSH2 0x771 JUMP JUMPDEST PUSH1 0x0 DUP4 DUP2 MSTORE DUP2 DUP2 KECCAK256 SWAP2 SWAP1 PUSH1 0x1F NOT DUP5 AND SWAP1 DUP15 JUMPDEST DUP3 DUP3 LT PUSH2 0x101D JUMPI POP POP SWAP1 DUP4 PUSH1 0x1 SWAP5 SWAP4 SWAP3 LT PUSH2 0x1004 JUMPI JUMPDEST POP POP DUP2 SHL ADD SWAP1 SSTORE PUSH2 0x788 JUMP JUMPDEST DUP14 ADD MLOAD PUSH1 0x0 NOT PUSH1 0xF8 DUP5 PUSH1 0x3 SHL AND SHR NOT AND SWAP1 SSTORE DUP13 DUP1 PUSH2 0xFF8 JUMP JUMPDEST PUSH1 0x1 DUP5 SWAP6 PUSH1 0x20 SWAP4 SWAP6 DUP5 SWAP4 ADD MLOAD DUP2 SSTORE ADD SWAP5 ADD SWAP3 ADD DUP15 PUSH2 0xFE2 JUMP JUMPDEST PUSH2 0x1062 SWAP1 DUP4 PUSH1 0x0 MSTORE PUSH1 0x20 PUSH1 0x0 KECCAK256 PUSH1 0x1F DUP5 ADD PUSH1 0x5 SHR DUP2 ADD SWAP2 PUSH1 0x20 DUP6 LT PUSH2 0xFBB JUMPI PUSH1 0x1F ADD PUSH1 0x5 SHR ADD SWAP1 PUSH2 0x401C JUMP JUMPDEST DUP12 PUSH2 0x755 JUMP JUMPDEST PUSH4 0x4E487B71 PUSH1 0xE0 SHL PUSH1 0x0 MSTORE PUSH1 0x0 PUSH1 0x4 MSTORE PUSH1 0x24 PUSH1 0x0 REVERT JUMPDEST PUSH2 0x10A0 SWAP2 POP PUSH1 0x20 RETURNDATASIZE PUSH1 0x20 GT PUSH2 0x10A6 JUMPI JUMPDEST PUSH2 0x1098 DUP2 DUP4 PUSH2 0x3A5A JUMP JUMPDEST DUP2 ADD SWAP1 PUSH2 0x4033 JUMP JUMPDEST DUP13 PUSH2 0x60A JUMP JUMPDEST POP RETURNDATASIZE PUSH2 0x108E JUMP JUMPDEST PUSH1 0x40 MLOAD RETURNDATASIZE PUSH1 0x0 DUP3 RETURNDATACOPY RETURNDATASIZE SWAP1 REVERT JUMPDEST CALLVALUE PUSH2 0x1E3 JUMPI PUSH1 0x20 CALLDATASIZE PUSH1 0x3 NOT ADD SLT PUSH2 0x1E3 JUMPI PUSH1 0x4 CALLDATALOAD PUSH1 0x1 PUSH1 0x1 PUSH1 0x40 SHL SUB DUP2 GT PUSH2 0x1E3 JUMPI PUSH1 0x0 PUSH2 0x10EE PUSH2 0x111B SWAP3 CALLDATASIZE SWAP1 PUSH1 0x4 ADD PUSH2 0x3B01 JUMP JUMPDEST PUSH1 0x1 DUP1 PUSH1 0xA0 SHL SUB PUSH1 0x1 SLOAD AND PUSH1 0x40 MLOAD DUP1 DUP1 SWAP6 DUP2 SWAP5 PUSH3 0x9A3087 PUSH1 0xE3 SHL DUP4 MSTORE PUSH1 0x20 PUSH1 0x4 DUP5 ADD MSTORE PUSH1 0x24 DUP4 ADD SWAP1 PUSH2 0x385B JUMP JUMPDEST SUB SWAP2 GAS STATICCALL SWAP1 DUP2 ISZERO PUSH2 0x10AD JUMPI PUSH1 0x0 SWAP2 PUSH2 0x1144 JUMPI JUMPDEST PUSH1 0x40 MLOAD PUSH1 0x20 DUP1 DUP3 MSTORE DUP2 SWAP1 PUSH2 0x1DF SWAP1 DUP3 ADD DUP6 PUSH2 0x38D9 JUMP JUMPDEST RETURNDATASIZE DUP1 DUP4 DUP4 RETURNDATACOPY PUSH2 0x1153 DUP2 DUP4 PUSH2 0x3A5A JUMP JUMPDEST DUP2 ADD SWAP1 PUSH1 0x20 DUP2 DUP4 SUB SLT PUSH2 0x11E2 JUMPI DUP1 MLOAD SWAP1 PUSH1 0x1 PUSH1 0x1 PUSH1 0x40 SHL SUB DUP3 GT PUSH2 0x11EA JUMPI ADD SWAP1 DUP1 PUSH1 0x1F DUP4 ADD SLT ISZERO PUSH2 0x11E2 JUMPI DUP2 MLOAD SWAP3 PUSH2 0x118A DUP5 PUSH2 0x3CB7 JUMP JUMPDEST SWAP3 PUSH2 0x1198 PUSH1 0x40 MLOAD SWAP5 DUP6 PUSH2 0x3A5A JUMP JUMPDEST DUP5 DUP5 MSTORE PUSH1 0x20 DUP1 DUP6 ADD SWAP6 PUSH1 0x5 SHL DUP3 ADD ADD SWAP3 DUP4 GT PUSH2 0x11E6 JUMPI PUSH1 0x20 ADD SWAP4 JUMPDEST DUP3 DUP6 LT PUSH2 0x11C8 JUMPI POP POP POP PUSH2 0x1DF SWAP2 POP SWAP1 PUSH2 0x112E JUMP JUMPDEST DUP5 MLOAD PUSH1 0xFF DUP2 AND DUP2 SUB PUSH2 0x11E2 JUMPI DUP2 MSTORE PUSH1 0x20 SWAP5 DUP6 ADD SWAP5 ADD PUSH2 0x11B3 JUMP JUMPDEST DUP3 DUP1 REVERT JUMPDEST POP DUP1 REVERT JUMPDEST DUP4 DUP1 REVERT JUMPDEST CALLVALUE PUSH2 0x1E3 JUMPI PUSH1 0xC0 CALLDATASIZE PUSH1 0x3 NOT ADD SLT PUSH2 0x1E3 JUMPI PUSH1 0x4 CALLDATALOAD PUSH1 0x1 PUSH1 0x1 PUSH1 0x40 SHL SUB DUP2 GT PUSH2 0x1E3 JUMPI PUSH2 0x121E SWAP1 CALLDATASIZE SWAP1 PUSH1 0x4 ADD PUSH2 0x3B01 JUMP JUMPDEST PUSH1 0x24 CALLDATALOAD PUSH1 0x1 PUSH1 0x1 PUSH1 0x40 SHL SUB DUP2 GT PUSH2 0x1E3 JUMPI PUSH2 0x123D SWAP1 CALLDATASIZE SWAP1 PUSH1 0x4 ADD PUSH2 0x3B01 JUMP JUMPDEST PUSH1 0x44 CALLDATALOAD PUSH1 0x1 PUSH1 0x1 PUSH1 0x40 SHL SUB DUP2 GT PUSH2 0x1E3 JUMPI PUSH2 0x125C SWAP1 CALLDATASIZE SWAP1 PUSH1 0x4 ADD PUSH2 0x3B01 JUMP JUMPDEST SWAP1 PUSH2 0x1265 PUSH2 0x3CA7 JUMP JUMPDEST SWAP1 PUSH1 0x84 CALLDATALOAD PUSH1 0x1 PUSH1 0x1 PUSH1 0x40 SHL SUB DUP2 GT PUSH2 0x1E3 JUMPI PUSH2 0x1285 SWAP1 CALLDATASIZE SWAP1 PUSH1 0x4 ADD PUSH2 0x3B01 JUMP JUMPDEST SWAP3 PUSH1 0xA4 CALLDATALOAD PUSH1 0x1 PUSH1 0x1 PUSH1 0x40 SHL SUB DUP2 GT PUSH2 0x1E3 JUMPI PUSH2 0x12A5 SWAP1 CALLDATASIZE SWAP1 PUSH1 0x4 ADD PUSH2 0x3CCE JUMP JUMPDEST SWAP1 PUSH1 0x44 PUSH1 0x20 PUSH1 0x1 DUP1 PUSH1 0xA0 SHL SUB PUSH1 0x0 SLOAD AND PUSH1 0x40 MLOAD SWAP3 DUP4 DUP1 SWAP3 PUSH4 0x95A8C58D PUSH1 0xE0 SHL DUP3 MSTORE CALLER PUSH1 0x4 DUP4 ADD MSTORE PUSH1 0x0 PUSH1 0x24 DUP4 ADD MSTORE GAS STATICCALL DUP1 ISZERO PUSH2 0x10AD JUMPI PUSH2 0x12EC SWAP2 PUSH1 0x0 SWAP2 PUSH2 0x1964 JUMPI POP PUSH2 0x477A JUMP JUMPDEST PUSH1 0xFF DUP3 MLOAD SWAP5 AND SWAP4 DUP5 SUB PUSH2 0x190D JUMPI PUSH1 0x40 MLOAD SWAP5 PUSH1 0x2 DUP3 MLOAD SWAP7 PUSH1 0x20 DUP2 DUP2 DUP7 ADD SWAP10 PUSH2 0x1314 DUP2 DUP4 DUP14 PUSH2 0x3838 JUMP JUMPDEST DUP2 ADD PUSH1 0xD DUP2 MSTORE SUB ADD SWAP1 KECCAK256 ADD PUSH1 0x40 MLOAD PUSH2 0x1342 DUP2 PUSH2 0x1334 PUSH1 0x20 DUP3 ADD DUP1 SWAP6 PUSH2 0x3F31 JUMP JUMPDEST SUB PUSH1 0x1F NOT DUP2 ADD DUP4 MSTORE DUP3 PUSH2 0x3A5A JUMP JUMPDEST MLOAD SWAP1 KECCAK256 DUP8 PUSH1 0x40 MLOAD PUSH2 0x1374 PUSH1 0x20 DUP3 DUP2 PUSH2 0x1363 DUP2 DUP4 ADD SWAP7 DUP8 DUP2 MLOAD SWAP4 DUP5 SWAP3 ADD PUSH2 0x3838 JUMP JUMPDEST DUP2 ADD SUB ADD PUSH1 0x1F NOT DUP2 ADD DUP4 MSTORE DUP3 PUSH2 0x3A5A JUMP JUMPDEST MLOAD SWAP1 KECCAK256 SUB PUSH2 0x187D JUMPI POP PUSH1 0x3 PUSH1 0x40 MLOAD PUSH1 0x20 DUP2 DUP5 MLOAD PUSH2 0x1392 DUP2 DUP4 DUP13 PUSH2 0x3838 JUMP JUMPDEST DUP2 ADD PUSH1 0xD DUP2 MSTORE SUB ADD SWAP1 KECCAK256 ADD DUP5 PUSH1 0xFF NOT DUP3 SLOAD AND OR SWAP1 SSTORE PUSH1 0x5 PUSH1 0x40 MLOAD PUSH1 0x20 DUP2 DUP5 MLOAD PUSH2 0x13BC DUP2 DUP4 DUP13 PUSH2 0x3838 JUMP JUMPDEST DUP2 ADD PUSH1 0xD DUP2 MSTORE SUB ADD SWAP1 KECCAK256 ADD SWAP1 DUP3 MLOAD PUSH1 0x1 PUSH1 0x40 SHL DUP2 GT PUSH2 0xF03 JUMPI DUP3 SLOAD DUP2 DUP5 SSTORE DUP1 DUP3 LT PUSH2 0x17FF JUMPI JUMPDEST POP PUSH1 0x20 DUP5 ADD SWAP1 DUP2 SWAP4 PUSH1 0x0 MSTORE PUSH1 0x20 PUSH1 0x0 KECCAK256 SWAP2 PUSH1 0x0 SWAP1 JUMPDEST DUP3 DUP3 LT PUSH2 0x16E7 JUMPI POP POP POP POP PUSH1 0x0 JUMPDEST PUSH1 0x3 SLOAD DUP2 LT ISZERO PUSH2 0x16B2 JUMPI PUSH1 0x1 PUSH2 0x1334 PUSH2 0x1434 PUSH2 0x1420 DUP5 PUSH2 0x3C37 JUMP JUMPDEST POP PUSH1 0x40 MLOAD SWAP3 DUP4 SWAP2 PUSH1 0x20 DUP4 ADD SWAP6 DUP7 SWAP2 ADD PUSH2 0x3F31 JUMP JUMPDEST MLOAD SWAP1 KECCAK256 PUSH2 0x1363 PUSH1 0x40 MLOAD PUSH2 0x1454 PUSH1 0x20 DUP3 DUP13 DUP3 DUP3 ADD SWAP6 DUP7 SWAP2 DUP11 MLOAD SWAP3 DUP4 SWAP2 PUSH2 0x3838 JUMP JUMPDEST MLOAD SWAP1 KECCAK256 EQ PUSH2 0x1464 JUMPI PUSH1 0x1 ADD PUSH2 0x1405 JUMP JUMPDEST PUSH1 0x5 SWAP3 SWAP4 SWAP5 SWAP6 SWAP7 POP PUSH2 0x148D SWAP2 POP PUSH1 0x3 PUSH2 0x147C DUP3 PUSH2 0x3C37 JUMP JUMPDEST POP ADD DUP1 SLOAD PUSH1 0xFF NOT AND DUP9 OR SWAP1 SSTORE PUSH2 0x3C37 JUMP JUMPDEST POP ADD SWAP2 MLOAD SWAP1 PUSH1 0x1 PUSH1 0x40 SHL DUP3 GT PUSH2 0xF03 JUMPI DUP3 SLOAD DUP3 DUP5 SSTORE DUP1 DUP4 LT PUSH2 0x1634 JUMPI JUMPDEST POP SWAP2 PUSH1 0x0 MSTORE PUSH1 0x20 PUSH1 0x0 KECCAK256 SWAP2 PUSH1 0x0 SWAP1 JUMPDEST DUP3 DUP3 LT PUSH2 0x151B JUMPI POP POP POP POP SWAP2 PUSH2 0x1516 PUSH2 0x1503 SWAP3 PUSH32 0xABB6D08782DF0E4C2EE63DEACC72EFC9C1A9422C00FC5D8075160D11EAA40B4A SWAP5 JUMPDEST PUSH1 0x40 MLOAD SWAP5 DUP6 SWAP5 PUSH1 0x60 DUP7 MSTORE PUSH1 0x60 DUP7 ADD SWAP1 PUSH2 0x385B JUMP JUMPDEST SWAP2 PUSH1 0x20 DUP6 ADD MSTORE DUP4 DUP3 SUB PUSH1 0x40 DUP6 ADD MSTORE PUSH2 0x385B JUMP JUMPDEST SUB SWAP1 LOG1 STOP JUMPDEST DUP1 MLOAD DUP1 MLOAD SWAP1 PUSH1 0x1 PUSH1 0x1 PUSH1 0x40 SHL SUB DUP3 GT PUSH2 0xF03 JUMPI PUSH2 0x1538 DUP7 SLOAD PUSH2 0x394A JUMP JUMPDEST PUSH1 0x1F DUP2 GT PUSH2 0x1602 JUMPI JUMPDEST POP PUSH1 0x20 SWAP1 PUSH1 0x1F DUP4 GT PUSH1 0x1 EQ PUSH2 0x1595 JUMPI SWAP3 PUSH2 0x157B DUP4 PUSH1 0x1 SWAP6 SWAP5 PUSH1 0x20 SWAP5 DUP8 SWAP7 PUSH1 0x0 SWAP3 PUSH2 0x158A JUMPI JUMPDEST POP POP DUP2 PUSH1 0x1 SHL SWAP2 PUSH1 0x0 NOT SWAP1 PUSH1 0x3 SHL SHR NOT AND OR SWAP1 JUMP JUMPDEST DUP8 SSTORE JUMPDEST ADD SWAP5 ADD SWAP2 ADD SWAP1 SWAP3 PUSH2 0x14B9 JUMP JUMPDEST ADD MLOAD SWAP1 POP DUP14 DUP1 PUSH2 0x1566 JUMP JUMPDEST SWAP1 PUSH1 0x1F NOT DUP4 AND SWAP2 DUP8 PUSH1 0x0 MSTORE DUP2 PUSH1 0x0 KECCAK256 SWAP3 PUSH1 0x0 JUMPDEST DUP2 DUP2 LT PUSH2 0x15EA JUMPI POP SWAP4 PUSH1 0x20 SWAP4 PUSH1 0x1 SWAP7 SWAP4 DUP8 SWAP7 SWAP4 DUP4 DUP9 SWAP6 LT PUSH2 0x15D1 JUMPI JUMPDEST POP POP POP DUP2 SHL ADD DUP8 SSTORE PUSH2 0x157E JUMP JUMPDEST ADD MLOAD PUSH1 0x0 NOT PUSH1 0xF8 DUP5 PUSH1 0x3 SHL AND SHR NOT AND SWAP1 SSTORE DUP13 DUP1 DUP1 PUSH2 0x15C4 JUMP JUMPDEST SWAP3 SWAP4 PUSH1 0x20 PUSH1 0x1 DUP2 SWAP3 DUP8 DUP7 ADD MLOAD DUP2 SSTORE ADD SWAP6 ADD SWAP4 ADD PUSH2 0x15A8 JUMP JUMPDEST PUSH2 0x162E SWAP1 DUP8 PUSH1 0x0 MSTORE PUSH1 0x20 PUSH1 0x0 KECCAK256 PUSH1 0x1F DUP6 ADD PUSH1 0x5 SHR DUP2 ADD SWAP2 PUSH1 0x20 DUP7 LT PUSH2 0xFBB JUMPI PUSH1 0x1F ADD PUSH1 0x5 SHR ADD SWAP1 PUSH2 0x401C JUMP JUMPDEST DUP10 PUSH2 0x1541 JUMP JUMPDEST DUP4 PUSH1 0x0 MSTORE DUP3 PUSH1 0x20 PUSH1 0x0 KECCAK256 SWAP2 DUP3 ADD SWAP2 ADD JUMPDEST DUP2 DUP2 LT PUSH2 0x1651 JUMPI POP PUSH2 0x14AA JUMP JUMPDEST DUP1 PUSH2 0x165E PUSH1 0x1 SWAP3 SLOAD PUSH2 0x394A JUMP JUMPDEST DUP1 PUSH2 0x166B JUMPI JUMPDEST POP ADD PUSH2 0x1644 JUMP JUMPDEST PUSH1 0x1F DUP2 GT DUP4 EQ PUSH2 0x1681 JUMPI POP PUSH1 0x0 DUP2 SSTORE JUMPDEST DUP10 PUSH2 0x1664 JUMP JUMPDEST PUSH2 0x169F SWAP1 DUP3 PUSH1 0x0 MSTORE DUP4 PUSH1 0x1F PUSH1 0x20 PUSH1 0x0 KECCAK256 SWAP3 ADD PUSH1 0x5 SHR DUP3 ADD SWAP2 ADD PUSH2 0x401C JUMP JUMPDEST DUP1 PUSH1 0x0 MSTORE PUSH1 0x0 PUSH1 0x20 DUP2 KECCAK256 DUP2 DUP4 SSTORE SSTORE PUSH2 0x167B JUMP JUMPDEST POP POP POP POP PUSH2 0x1503 SWAP3 POP PUSH32 0xABB6D08782DF0E4C2EE63DEACC72EFC9C1A9422C00FC5D8075160D11EAA40B4A SWAP4 SWAP2 PUSH2 0x1516 SWAP2 PUSH2 0x14EF JUMP JUMPDEST DUP1 MLOAD DUP1 MLOAD SWAP1 PUSH1 0x1 PUSH1 0x1 PUSH1 0x40 SHL SUB DUP3 GT PUSH2 0xF03 JUMPI PUSH2 0x1704 DUP7 SLOAD PUSH2 0x394A JUMP JUMPDEST PUSH1 0x1F DUP2 GT PUSH2 0x17CD JUMPI JUMPDEST POP PUSH1 0x20 SWAP1 PUSH1 0x1F DUP4 GT PUSH1 0x1 EQ PUSH2 0x1760 JUMPI SWAP3 PUSH2 0x1746 DUP4 PUSH1 0x1 SWAP6 SWAP5 PUSH1 0x20 SWAP5 DUP8 SWAP7 PUSH1 0x0 SWAP3 PUSH2 0x1755 JUMPI POP POP DUP2 PUSH1 0x1 SHL SWAP2 PUSH1 0x0 NOT SWAP1 PUSH1 0x3 SHL SHR NOT AND OR SWAP1 JUMP JUMPDEST DUP8 SSTORE JUMPDEST ADD SWAP5 ADD SWAP2 ADD SWAP1 SWAP3 PUSH2 0x13F7 JUMP JUMPDEST ADD MLOAD SWAP1 POP CODESIZE DUP1 PUSH2 0x1566 JUMP JUMPDEST SWAP1 PUSH1 0x1F NOT DUP4 AND SWAP2 DUP8 PUSH1 0x0 MSTORE DUP2 PUSH1 0x0 KECCAK256 SWAP3 PUSH1 0x0 JUMPDEST DUP2 DUP2 LT PUSH2 0x17B5 JUMPI POP SWAP4 PUSH1 0x20 SWAP4 PUSH1 0x1 SWAP7 SWAP4 DUP8 SWAP7 SWAP4 DUP4 DUP9 SWAP6 LT PUSH2 0x179C JUMPI JUMPDEST POP POP POP DUP2 SHL ADD DUP8 SSTORE PUSH2 0x1749 JUMP JUMPDEST ADD MLOAD PUSH1 0x0 NOT PUSH1 0xF8 DUP5 PUSH1 0x3 SHL AND SHR NOT AND SWAP1 SSTORE CODESIZE DUP1 DUP1 PUSH2 0x178F JUMP JUMPDEST SWAP3 SWAP4 PUSH1 0x20 PUSH1 0x1 DUP2 SWAP3 DUP8 DUP7 ADD MLOAD DUP2 SSTORE ADD SWAP6 ADD SWAP4 ADD PUSH2 0x1773 JUMP JUMPDEST PUSH2 0x17F9 SWAP1 DUP8 PUSH1 0x0 MSTORE PUSH1 0x20 PUSH1 0x0 KECCAK256 PUSH1 0x1F DUP6 ADD PUSH1 0x5 SHR DUP2 ADD SWAP2 PUSH1 0x20 DUP7 LT PUSH2 0xFBB JUMPI PUSH1 0x1F ADD PUSH1 0x5 SHR ADD SWAP1 PUSH2 0x401C JUMP JUMPDEST DUP14 PUSH2 0x170D JUMP JUMPDEST DUP4 PUSH1 0x0 MSTORE DUP2 PUSH1 0x20 PUSH1 0x0 KECCAK256 SWAP2 DUP3 ADD SWAP2 ADD JUMPDEST DUP2 DUP2 LT PUSH2 0x181C JUMPI POP PUSH2 0x13E2 JUMP JUMPDEST DUP1 PUSH2 0x1829 PUSH1 0x1 SWAP3 SLOAD PUSH2 0x394A JUMP JUMPDEST DUP1 PUSH2 0x1836 JUMPI JUMPDEST POP ADD PUSH2 0x180F JUMP JUMPDEST PUSH1 0x1F DUP2 GT DUP4 EQ PUSH2 0x184C JUMPI POP PUSH1 0x0 DUP2 SSTORE JUMPDEST DUP12 PUSH2 0x182F JUMP JUMPDEST PUSH2 0x186A SWAP1 DUP3 PUSH1 0x0 MSTORE DUP4 PUSH1 0x1F PUSH1 0x20 PUSH1 0x0 KECCAK256 SWAP3 ADD PUSH1 0x5 SHR DUP3 ADD SWAP2 ADD PUSH2 0x401C JUMP JUMPDEST DUP1 PUSH1 0x0 MSTORE PUSH1 0x0 PUSH1 0x20 DUP2 KECCAK256 DUP2 DUP4 SSTORE SSTORE PUSH2 0x1846 JUMP JUMPDEST PUSH32 0xABB6D08782DF0E4C2EE63DEACC72EFC9C1A9422C00FC5D8075160D11EAA40B4A SWAP7 SWAP5 SWAP3 PUSH2 0x1903 PUSH2 0x1908 SWAP3 PUSH2 0x18F4 PUSH1 0x20 PUSH2 0x1503 SWAP11 PUSH2 0x1516 SWAP10 SWAP8 PUSH1 0x40 MLOAD SWAP7 DUP8 SWAP6 PUSH2 0x18C5 DUP8 PUSH2 0x3A07 JUMP JUMPDEST DUP11 DUP8 MSTORE DUP3 DUP6 DUP9 ADD MSTORE DUP14 PUSH1 0x40 DUP9 ADD MSTORE DUP12 PUSH1 0x60 DUP9 ADD MSTORE PUSH1 0x80 DUP8 ADD MSTORE PUSH1 0xA0 DUP7 ADD MSTORE PUSH1 0x40 MLOAD SWAP4 DUP5 SWAP3 DUP4 SWAP3 MLOAD SWAP3 DUP4 SWAP2 PUSH2 0x3838 JUMP JUMPDEST DUP2 ADD PUSH1 0xD DUP2 MSTORE SUB ADD SWAP1 KECCAK256 PUSH2 0x47C5 JUMP JUMPDEST PUSH2 0x4D98 JUMP JUMPDEST PUSH2 0x14EF JUMP JUMPDEST PUSH1 0x40 MLOAD PUSH3 0x461BCD PUSH1 0xE5 SHL DUP2 MSTORE PUSH1 0x20 PUSH1 0x4 DUP3 ADD MSTORE PUSH1 0x29 PUSH1 0x24 DUP3 ADD MSTORE PUSH32 0x5175616E7469747920646F6573206E6F74206D6174636820746865206E756D62 PUSH1 0x44 DUP3 ADD MSTORE PUSH9 0x6572206F6620494473 PUSH1 0xB8 SHL PUSH1 0x64 DUP3 ADD MSTORE PUSH1 0x84 SWAP1 REVERT JUMPDEST PUSH2 0x197D SWAP2 POP PUSH1 0x20 RETURNDATASIZE PUSH1 0x20 GT PUSH2 0x10A6 JUMPI PUSH2 0x1098 DUP2 DUP4 PUSH2 0x3A5A JUMP JUMPDEST DUP9 PUSH2 0x60A JUMP JUMPDEST CALLVALUE PUSH2 0x1E3 JUMPI PUSH1 0x20 CALLDATASIZE PUSH1 0x3 NOT ADD SLT PUSH2 0x1E3 JUMPI PUSH1 0x4 CALLDATALOAD PUSH1 0x1 PUSH1 0x1 PUSH1 0x40 SHL SUB DUP2 GT PUSH2 0x1E3 JUMPI PUSH2 0x19B3 SWAP1 CALLDATASIZE SWAP1 PUSH1 0x4 ADD PUSH2 0x3B01 JUMP JUMPDEST PUSH1 0x0 DUP1 SLOAD PUSH1 0x40 MLOAD PUSH4 0x95A8C58D PUSH1 0xE0 SHL DUP2 MSTORE CALLER PUSH1 0x4 DUP3 ADD MSTORE PUSH1 0x24 DUP2 ADD SWAP3 SWAP1 SWAP3 MSTORE PUSH1 0x20 SWAP1 DUP3 SWAP1 PUSH1 0x44 SWAP1 DUP3 SWAP1 PUSH1 0x1 PUSH1 0x1 PUSH1 0xA0 SHL SUB AND GAS STATICCALL DUP1 ISZERO PUSH2 0x10AD JUMPI PUSH2 0x19FE SWAP2 PUSH1 0x0 SWAP2 PUSH2 0x1BB8 JUMPI POP PUSH2 0x477A JUMP JUMPDEST PUSH1 0x40 MLOAD DUP2 MLOAD SWAP1 PUSH1 0x20 DUP2 DUP2 DUP6 ADD SWAP4 PUSH2 0x1A16 DUP2 DUP4 DUP8 PUSH2 0x3838 JUMP JUMPDEST DUP2 ADD PUSH1 0xC DUP2 MSTORE SUB ADD SWAP1 KECCAK256 SWAP2 PUSH1 0x6 DUP4 ADD DUP1 SLOAD PUSH1 0xFF DUP2 PUSH1 0x8 SHR AND PUSH2 0x1A37 DUP2 PUSH2 0x3A7B JUMP JUMPDEST PUSH2 0x1B56 JUMPI TIMESTAMP PUSH1 0x7 DUP7 ADD SSTORE PUSH2 0xFF00 NOT AND PUSH2 0x100 OR SWAP1 SSTORE PUSH1 0x0 JUMPDEST PUSH1 0x2 SLOAD DUP2 LT ISZERO PUSH2 0x1B26 JUMPI PUSH2 0x1A62 DUP2 PUSH2 0x3C02 JUMP JUMPDEST POP PUSH1 0x40 MLOAD PUSH2 0x1A78 DUP2 PUSH2 0x1334 PUSH1 0x20 DUP3 ADD DUP1 SWAP6 PUSH2 0x3F31 JUMP JUMPDEST MLOAD SWAP1 KECCAK256 PUSH1 0x40 MLOAD PUSH1 0x20 DUP2 ADD SWAP1 PUSH2 0x1A96 PUSH1 0x20 DUP3 DUP8 MLOAD PUSH2 0x1363 DUP2 DUP8 DUP13 PUSH2 0x3838 JUMP JUMPDEST MLOAD SWAP1 KECCAK256 EQ PUSH2 0x1AA6 JUMPI PUSH1 0x1 ADD PUSH2 0x1A4F JUMP JUMPDEST PUSH2 0x1B11 SWAP3 POP PUSH32 0x854681DB4B5190CEAACFE5894893F2E8D49873D9B8ED6C72B5618047CB3924E5 SWAP4 PUSH1 0x6 PUSH2 0x1AEB DUP4 PUSH2 0x1ADF PUSH2 0x1516 SWAP6 PUSH2 0x3C02 JUMP JUMPDEST POP PUSH1 0x7 TIMESTAMP SWAP2 ADD SSTORE PUSH2 0x3C02 JUMP JUMPDEST POP ADD DUP1 SLOAD PUSH2 0xFF00 NOT AND PUSH2 0x100 OR SWAP1 SSTORE JUMPDEST PUSH1 0x2 PUSH1 0x40 MLOAD SWAP5 DUP6 SWAP5 PUSH1 0x60 DUP7 MSTORE PUSH1 0x60 DUP7 ADD SWAP1 PUSH2 0x385B JUMP JUMPDEST SWAP2 TIMESTAMP PUSH1 0x20 DUP7 ADD MSTORE DUP5 DUP4 SUB PUSH1 0x40 DUP7 ADD MSTORE ADD PUSH2 0x3984 JUMP JUMPDEST POP PUSH2 0x1B11 SWAP2 POP PUSH2 0x1516 PUSH32 0x854681DB4B5190CEAACFE5894893F2E8D49873D9B8ED6C72B5618047CB3924E5 SWAP4 PUSH2 0x1AFB JUMP JUMPDEST PUSH1 0x40 MLOAD PUSH3 0x461BCD PUSH1 0xE5 SHL DUP2 MSTORE PUSH1 0x20 PUSH1 0x4 DUP3 ADD MSTORE PUSH1 0x34 PUSH1 0x24 DUP3 ADD MSTORE PUSH32 0x4F62617420547261646973696F6E616C20737461747573206D75737420626520 PUSH1 0x44 DUP3 ADD MSTORE PUSH20 0x696E206C6F63616C2070726F64756374696F6E21 PUSH1 0x60 SHL PUSH1 0x64 DUP3 ADD MSTORE PUSH1 0x84 SWAP1 REVERT JUMPDEST PUSH2 0x1BD1 SWAP2 POP PUSH1 0x20 RETURNDATASIZE PUSH1 0x20 GT PUSH2 0x10A6 JUMPI PUSH2 0x1098 DUP2 DUP4 PUSH2 0x3A5A JUMP JUMPDEST DUP4 PUSH2 0x60A JUMP JUMPDEST CALLVALUE PUSH2 0x1E3 JUMPI PUSH1 0xC0 CALLDATASIZE PUSH1 0x3 NOT ADD SLT PUSH2 0x1E3 JUMPI PUSH1 0x4 CALLDATALOAD PUSH1 0x1 PUSH1 0x1 PUSH1 0x40 SHL SUB DUP2 GT PUSH2 0x1E3 JUMPI PUSH2 0x1C07 SWAP1 CALLDATASIZE SWAP1 PUSH1 0x4 ADD PUSH2 0x3B01 JUMP JUMPDEST PUSH1 0x24 CALLDATALOAD PUSH1 0x1 PUSH1 0x1 PUSH1 0x40 SHL SUB DUP2 GT PUSH2 0x1E3 JUMPI PUSH2 0x1C26 SWAP1 CALLDATASIZE SWAP1 PUSH1 0x4 ADD PUSH2 0x3B01 JUMP JUMPDEST PUSH1 0x44 CALLDATALOAD PUSH1 0x1 PUSH1 0x1 PUSH1 0x40 SHL SUB DUP2 GT PUSH2 0x1E3 JUMPI PUSH2 0x1C45 SWAP1 CALLDATASIZE SWAP1 PUSH1 0x4 ADD PUSH2 0x3B01 JUMP JUMPDEST PUSH2 0x1C4D PUSH2 0x3CA7 JUMP JUMPDEST SWAP1 PUSH2 0x1C56 PUSH2 0x3BEC JUMP JUMPDEST PUSH1 0xA4 CALLDATALOAD PUSH1 0x1 PUSH1 0x1 PUSH1 0x40 SHL SUB DUP2 GT PUSH2 0x1E3 JUMPI PUSH2 0x1C75 SWAP1 CALLDATASIZE SWAP1 PUSH1 0x4 ADD PUSH2 0x3B01 JUMP JUMPDEST PUSH1 0x0 SLOAD PUSH1 0x40 MLOAD PUSH4 0x95A8C58D PUSH1 0xE0 SHL DUP2 MSTORE CALLER PUSH1 0x4 DUP3 ADD MSTORE PUSH1 0x1 PUSH1 0x24 DUP3 ADD MSTORE SWAP1 PUSH1 0x20 SWAP1 DUP3 SWAP1 PUSH1 0x44 SWAP1 DUP3 SWAP1 PUSH1 0x1 PUSH1 0x1 PUSH1 0xA0 SHL SUB AND GAS STATICCALL SWAP1 DUP2 ISZERO PUSH2 0x10AD JUMPI PUSH1 0x0 SWAP2 PUSH2 0x1E0C JUMPI JUMPDEST POP ISZERO PUSH2 0x1DC7 JUMPI PUSH1 0xFF DUP5 AND SWAP6 PUSH2 0x1CCF PUSH1 0x32 DUP9 LT ISZERO PUSH2 0x404B JUMP JUMPDEST PUSH1 0x40 MLOAD SWAP7 PUSH1 0x0 PUSH2 0x1CE0 PUSH1 0x20 DUP11 PUSH2 0x3A5A JUMP JUMPDEST DUP9 MSTORE PUSH1 0x0 DUP1 JUMPDEST DUP2 DUP2 LT PUSH2 0x1DA2 JUMPI POP POP PUSH2 0x1516 SWAP5 SWAP4 SWAP3 SWAP2 PUSH32 0x95B629C00CAAA10E5C594B3F10670964FDFEFF8DE039E6E3AE5ACC2AED2A3FDB SWAP9 PUSH2 0x1D94 SWAP3 PUSH1 0x40 MLOAD SWAP3 PUSH2 0x1D29 DUP5 PUSH2 0x3A3E JUMP JUMPDEST DUP11 DUP5 MSTORE DUP8 PUSH1 0x20 DUP6 ADD MSTORE PUSH1 0x40 DUP5 ADD MSTORE PUSH1 0x60 DUP4 ADD MSTORE DUP4 PUSH1 0x80 DUP4 ADD MSTORE PUSH1 0x1 DUP1 PUSH1 0xA0 SHL SUB DUP6 AND PUSH1 0xA0 DUP4 ADD MSTORE PUSH1 0x0 PUSH1 0xC0 DUP4 ADD MSTORE TIMESTAMP PUSH1 0xE0 DUP4 ADD MSTORE PUSH2 0x100 DUP3 ADD MSTORE PUSH2 0x1D8F DUP2 PUSH2 0x1D80 PUSH1 0x20 DUP12 DUP2 PUSH1 0x40 MLOAD SWAP4 DUP3 DUP6 DUP1 SWAP5 MLOAD SWAP4 DUP5 SWAP3 ADD PUSH2 0x3838 JUMP JUMPDEST DUP2 ADD PUSH1 0xE DUP2 MSTORE SUB ADD SWAP1 KECCAK256 PUSH2 0x4097 JUMP JUMPDEST PUSH2 0x46CC JUMP JUMPDEST PUSH1 0x40 MLOAD SWAP6 DUP7 SWAP6 TIMESTAMP SWAP5 DUP8 PUSH2 0x4723 JUMP JUMPDEST DUP1 PUSH1 0x60 PUSH1 0x20 DUP1 SWAP4 DUP14 ADD ADD MSTORE ADD PUSH2 0x1CE6 JUMP JUMPDEST PUSH4 0x4E487B71 PUSH1 0xE0 SHL DUP2 MSTORE PUSH1 0x41 PUSH1 0x4 MSTORE PUSH1 0x24 SWAP1 REVERT JUMPDEST PUSH1 0x40 MLOAD PUSH3 0x461BCD PUSH1 0xE5 SHL DUP2 MSTORE PUSH1 0x20 PUSH1 0x4 DUP3 ADD MSTORE PUSH1 0x1D PUSH1 0x24 DUP3 ADD MSTORE PUSH32 0x416363657373207265737472696374656420746F2050424620726F6C65000000 PUSH1 0x44 DUP3 ADD MSTORE PUSH1 0x64 SWAP1 REVERT JUMPDEST PUSH2 0x1E25 SWAP2 POP PUSH1 0x20 RETURNDATASIZE PUSH1 0x20 GT PUSH2 0x10A6 JUMPI PUSH2 0x1098 DUP2 DUP4 PUSH2 0x3A5A JUMP JUMPDEST DUP8 PUSH2 0x1CB7 JUMP JUMPDEST CALLVALUE PUSH2 0x1E3 JUMPI PUSH1 0x20 CALLDATASIZE PUSH1 0x3 NOT ADD SLT PUSH2 0x1E3 JUMPI PUSH1 0x4 CALLDATALOAD PUSH1 0x1 PUSH1 0x1 PUSH1 0x40 SHL SUB DUP2 GT PUSH2 0x1E3 JUMPI PUSH2 0x1E5B SWAP1 CALLDATASIZE SWAP1 PUSH1 0x4 ADD PUSH2 0x3B01 JUMP JUMPDEST PUSH2 0x1EE1 PUSH1 0x5 PUSH2 0x1ED1 PUSH1 0x20 PUSH1 0x40 MLOAD PUSH2 0x1E9C PUSH2 0x1E95 PUSH1 0x1 DUP9 MLOAD SWAP4 DUP6 DUP2 DUP2 DUP13 ADD SWAP7 PUSH2 0x1E84 DUP2 DUP4 DUP11 PUSH2 0x3838 JUMP JUMPDEST DUP2 ADD PUSH1 0xD DUP2 MSTORE SUB ADD SWAP1 KECCAK256 ADD SLOAD PUSH2 0x394A JUMP JUMPDEST ISZERO ISZERO PUSH2 0x3FC4 JUMP JUMPDEST PUSH1 0xFF PUSH1 0x3 PUSH1 0x40 MLOAD DUP5 DUP2 DUP11 MLOAD PUSH2 0x1EB2 DUP2 DUP4 DUP10 PUSH2 0x3838 JUMP JUMPDEST DUP2 ADD PUSH1 0xD DUP2 MSTORE SUB ADD SWAP1 KECCAK256 ADD SLOAD AND SWAP6 PUSH1 0x40 MLOAD SWAP4 DUP5 SWAP3 DUP4 SWAP3 MLOAD SWAP3 DUP4 SWAP2 PUSH2 0x3838 JUMP JUMPDEST DUP2 ADD PUSH1 0xD DUP2 MSTORE SUB ADD SWAP1 KECCAK256 ADD PUSH2 0x3ED1 JUMP JUMPDEST SWAP1 PUSH2 0x1DF PUSH1 0x40 MLOAD SWAP3 DUP4 SWAP3 DUP4 MSTORE PUSH1 0x40 PUSH1 0x20 DUP5 ADD MSTORE PUSH1 0x40 DUP4 ADD SWAP1 PUSH2 0x3880 JUMP JUMPDEST CALLVALUE PUSH2 0x1E3 JUMPI PUSH1 0xE0 CALLDATASIZE PUSH1 0x3 NOT ADD SLT PUSH2 0x1E3 JUMPI PUSH1 0x4 CALLDATALOAD PUSH1 0x1 PUSH1 0x1 PUSH1 0x40 SHL SUB DUP2 GT PUSH2 0x1E3 JUMPI PUSH2 0x1F2E SWAP1 CALLDATASIZE SWAP1 PUSH1 0x4 ADD PUSH2 0x3B01 JUMP JUMPDEST PUSH1 0x24 CALLDATALOAD PUSH1 0x1 PUSH1 0x1 PUSH1 0x40 SHL SUB DUP2 GT PUSH2 0x1E3 JUMPI PUSH2 0x1F4D SWAP1 CALLDATASIZE SWAP1 PUSH1 0x4 ADD PUSH2 0x3B01 JUMP JUMPDEST PUSH1 0x44 CALLDATALOAD PUSH1 0x1 PUSH1 0x1 PUSH1 0x40 SHL SUB DUP2 GT PUSH2 0x1E3 JUMPI PUSH2 0x1F6C SWAP1 CALLDATASIZE SWAP1 PUSH1 0x4 ADD PUSH2 0x3B01 JUMP JUMPDEST PUSH2 0x1F74 PUSH2 0x3CA7 JUMP JUMPDEST SWAP1 PUSH2 0x1F7D PUSH2 0x3BEC JUMP JUMPDEST PUSH1 0xA4 CALLDATALOAD PUSH1 0x1 PUSH1 0x1 PUSH1 0x40 SHL SUB DUP2 GT PUSH2 0x1E3 JUMPI PUSH2 0x1F9C SWAP1 CALLDATASIZE SWAP1 PUSH1 0x4 ADD PUSH2 0x3B01 JUMP JUMPDEST PUSH1 0xC4 CALLDATALOAD PUSH1 0x1 PUSH1 0x1 PUSH1 0x40 SHL SUB DUP2 GT PUSH2 0x1E3 JUMPI PUSH2 0x1FBB SWAP1 CALLDATASIZE SWAP1 PUSH1 0x4 ADD PUSH2 0x3CCE JUMP JUMPDEST PUSH1 0x0 SLOAD PUSH1 0x40 MLOAD PUSH4 0x95A8C58D PUSH1 0xE0 SHL DUP2 MSTORE CALLER PUSH1 0x4 DUP3 ADD MSTORE PUSH1 0x3 PUSH1 0x24 DUP3 ADD MSTORE SWAP2 SWAP8 SWAP2 SWAP1 PUSH1 0x20 SWAP1 DUP3 SWAP1 PUSH1 0x44 SWAP1 DUP3 SWAP1 PUSH1 0x1 PUSH1 0x1 PUSH1 0xA0 SHL SUB AND GAS STATICCALL SWAP1 DUP2 ISZERO PUSH2 0x10AD JUMPI PUSH1 0x0 SWAP2 PUSH2 0x2159 JUMPI JUMPDEST POP ISZERO PUSH2 0x2109 JUMPI PUSH1 0xFF DUP6 AND SWAP7 PUSH2 0x2018 PUSH1 0x32 DUP10 LT ISZERO PUSH2 0x404B JUMP JUMPDEST PUSH1 0x2 SLOAD PUSH1 0x60 SWAP3 PUSH1 0x20 DUP2 ADD PUSH1 0x0 JUMPDEST DUP4 DUP2 LT PUSH2 0x206B JUMPI JUMPDEST POP POP POP POP PUSH2 0x1516 SWAP5 SWAP4 SWAP3 SWAP2 PUSH2 0x1D94 SWAP2 PUSH32 0x95B629C00CAAA10E5C594B3F10670964FDFEFF8DE039E6E3AE5ACC2AED2A3FDB SWAP10 PUSH1 0x40 MLOAD SWAP3 PUSH2 0x1D29 DUP5 PUSH2 0x3A3E JUMP JUMPDEST PUSH2 0x2074 DUP2 PUSH2 0x3C02 JUMP JUMPDEST POP PUSH1 0x40 MLOAD PUSH2 0x208A DUP2 PUSH2 0x1334 PUSH1 0x20 DUP3 ADD DUP1 SWAP6 PUSH2 0x3F31 JUMP JUMPDEST MLOAD SWAP1 KECCAK256 PUSH1 0x40 MLOAD PUSH1 0x20 DUP2 ADD SWAP1 PUSH2 0x20A8 PUSH1 0x20 DUP3 DUP9 MLOAD PUSH2 0x1363 DUP2 DUP8 DUP12 PUSH2 0x3838 JUMP JUMPDEST MLOAD SWAP1 KECCAK256 EQ PUSH2 0x20B8 JUMPI PUSH1 0x1 ADD PUSH2 0x2025 JUMP JUMPDEST PUSH2 0x1516 SWAP9 SWAP8 SWAP7 SWAP6 POP PUSH32 0x95B629C00CAAA10E5C594B3F10670964FDFEFF8DE039E6E3AE5ACC2AED2A3FDB SWAP12 SWAP4 POP PUSH2 0x1D94 SWAP5 SWAP3 POP PUSH2 0x1C4 SWAP2 POP PUSH2 0x32B PUSH2 0x20FB SWAP2 PUSH2 0x3C02 JUMP JUMPDEST SWAP4 SWAP5 SWAP6 SWAP7 DUP3 SWAP11 DUP3 SWAP5 POP PUSH2 0x202D JUMP JUMPDEST PUSH1 0x40 MLOAD PUSH3 0x461BCD PUSH1 0xE5 SHL DUP2 MSTORE PUSH1 0x20 PUSH1 0x4 DUP3 ADD MSTORE PUSH1 0x22 PUSH1 0x24 DUP3 ADD MSTORE PUSH32 0x416363657373207265737472696374656420746F2052657461696C657220726F PUSH1 0x44 DUP3 ADD MSTORE PUSH2 0x6C65 PUSH1 0xF0 SHL PUSH1 0x64 DUP3 ADD MSTORE PUSH1 0x84 SWAP1 REVERT JUMPDEST PUSH2 0x2172 SWAP2 POP PUSH1 0x20 RETURNDATASIZE PUSH1 0x20 GT PUSH2 0x10A6 JUMPI PUSH2 0x1098 DUP2 DUP4 PUSH2 0x3A5A JUMP JUMPDEST DUP9 PUSH2 0x2000 JUMP JUMPDEST CALLVALUE PUSH2 0x1E3 JUMPI PUSH1 0x20 CALLDATASIZE PUSH1 0x3 NOT ADD SLT PUSH2 0x1E3 JUMPI PUSH1 0x4 CALLDATALOAD PUSH1 0x1 PUSH1 0x1 PUSH1 0x40 SHL SUB DUP2 GT PUSH2 0x1E3 JUMPI PUSH2 0x1C4 PUSH2 0x1CB PUSH2 0x21B6 PUSH1 0x20 PUSH2 0x19B PUSH2 0x1DF SWAP6 CALLDATASIZE SWAP1 PUSH1 0x4 ADD PUSH2 0x3B01 JUMP JUMPDEST DUP2 ADD PUSH1 0x9 DUP2 MSTORE SUB ADD SWAP1 KECCAK256 PUSH1 0x40 MLOAD SWAP3 DUP4 DUP1 SWAP3 PUSH2 0x3984 JUMP JUMPDEST CALLVALUE PUSH2 0x1E3 JUMPI PUSH1 0x20 CALLDATASIZE PUSH1 0x3 NOT ADD SLT PUSH2 0x1E3 JUMPI PUSH1 0x4 CALLDATALOAD PUSH1 0x1 PUSH1 0x1 PUSH1 0x40 SHL SUB DUP2 GT PUSH2 0x1E3 JUMPI PUSH2 0x1C4 PUSH2 0x1CB PUSH2 0x220A PUSH1 0x20 PUSH2 0x19B PUSH2 0x1DF SWAP6 CALLDATASIZE SWAP1 PUSH1 0x4 ADD PUSH2 0x3B01 JUMP JUMPDEST DUP2 ADD PUSH1 0x6 DUP2 MSTORE SUB ADD SWAP1 KECCAK256 PUSH1 0x40 MLOAD SWAP3 DUP4 DUP1 SWAP3 PUSH2 0x3984 JUMP JUMPDEST CALLVALUE PUSH2 0x1E3 JUMPI PUSH1 0x20 CALLDATASIZE PUSH1 0x3 NOT ADD SLT PUSH2 0x1E3 JUMPI PUSH1 0x4 CALLDATALOAD PUSH1 0x1 PUSH1 0x1 PUSH1 0x40 SHL SUB DUP2 GT PUSH2 0x1E3 JUMPI PUSH1 0x20 PUSH2 0x19B PUSH2 0x2255 SWAP3 CALLDATASIZE SWAP1 PUSH1 0x4 ADD PUSH2 0x3B01 JUMP JUMPDEST DUP2 ADD PUSH1 0xD DUP2 MSTORE SUB ADD SWAP1 KECCAK256 PUSH1 0x40 MLOAD PUSH2 0x2270 DUP2 PUSH2 0x1C4 DUP2 DUP6 PUSH2 0x3984 JUMP JUMPDEST PUSH2 0x1DF PUSH1 0x4 PUSH1 0x40 MLOAD SWAP4 PUSH2 0x2291 DUP6 PUSH2 0x228A DUP2 PUSH1 0x1 DUP6 ADD PUSH2 0x3984 JUMP JUMPDEST SUB DUP7 PUSH2 0x3A5A JUMP JUMPDEST PUSH1 0x40 MLOAD PUSH2 0x22A5 DUP2 PUSH2 0x1C4 DUP2 PUSH1 0x2 DUP7 ADD PUSH2 0x3984 JUMP JUMPDEST PUSH2 0x22C8 PUSH1 0xFF PUSH1 0x3 DUP5 ADD SLOAD AND SWAP3 PUSH2 0x22C1 PUSH1 0x40 MLOAD DUP1 SWAP7 DUP2 SWAP4 ADD PUSH2 0x3984 JUMP JUMPDEST SUB DUP5 PUSH2 0x3A5A JUMP JUMPDEST PUSH1 0x40 MLOAD SWAP6 DUP7 SWAP6 DUP7 PUSH2 0x3C56 JUMP JUMPDEST CALLVALUE PUSH2 0x1E3 JUMPI PUSH1 0x0 CALLDATASIZE PUSH1 0x3 NOT ADD SLT PUSH2 0x1E3 JUMPI PUSH1 0x1 SLOAD PUSH1 0x40 MLOAD PUSH1 0x1 PUSH1 0x1 PUSH1 0xA0 SHL SUB SWAP1 SWAP2 AND DUP2 MSTORE PUSH1 0x20 SWAP1 RETURN JUMPDEST CALLVALUE PUSH2 0x1E3 JUMPI PUSH1 0x20 CALLDATASIZE PUSH1 0x3 NOT ADD SLT PUSH2 0x1E3 JUMPI PUSH1 0x4 CALLDATALOAD PUSH1 0x1 PUSH1 0x1 PUSH1 0x40 SHL SUB DUP2 GT PUSH2 0x1E3 JUMPI PUSH2 0x232D SWAP1 CALLDATASIZE SWAP1 PUSH1 0x4 ADD PUSH2 0x3B01 JUMP JUMPDEST PUSH1 0x3 SLOAD PUSH1 0x0 SWAP2 PUSH1 0x20 DUP2 ADD SWAP1 DUP4 JUMPDEST DUP4 DUP2 LT PUSH2 0x23EF JUMPI POP POP POP PUSH2 0x234D DUP3 PUSH2 0x3D4C JUMP JUMPDEST SWAP1 PUSH2 0x2360 PUSH2 0x235A DUP5 PUSH2 0x3D4C JUMP JUMPDEST SWAP4 PUSH2 0x3D96 JUMP JUMPDEST SWAP1 PUSH1 0x0 DUP1 JUMPDEST DUP3 DUP3 LT PUSH2 0x237F JUMPI POP POP POP PUSH2 0x1DF SWAP1 PUSH1 0x40 MLOAD SWAP4 DUP5 SWAP4 DUP5 PUSH2 0x3910 JUMP JUMPDEST PUSH2 0x23E7 PUSH1 0x1 SWAP2 DUP3 PUSH2 0x2392 PUSH2 0x35C DUP7 PUSH2 0x3C37 JUMP JUMPDEST PUSH2 0x239C DUP3 DUP10 PUSH2 0x3EBD JUMP JUMPDEST MSTORE PUSH2 0x23A7 DUP2 DUP9 PUSH2 0x3EBD JUMP JUMPDEST POP PUSH1 0x2 PUSH2 0x23B6 PUSH2 0x35C DUP7 PUSH2 0x3C37 JUMP JUMPDEST PUSH2 0x23C0 DUP3 DUP11 PUSH2 0x3EBD JUMP JUMPDEST MSTORE PUSH2 0x23CB DUP2 DUP10 PUSH2 0x3EBD JUMP JUMPDEST POP PUSH1 0xFF PUSH1 0x3 PUSH2 0x23D9 DUP7 PUSH2 0x3C37 JUMP JUMPDEST POP ADD SLOAD AND PUSH2 0x431 DUP3 DUP9 PUSH2 0x3EBD JUMP JUMPDEST SWAP2 ADD SWAP1 PUSH2 0x2365 JUMP JUMPDEST PUSH1 0x4 PUSH2 0x1334 PUSH2 0x2400 PUSH2 0x1420 DUP5 PUSH2 0x3C37 JUMP JUMPDEST MLOAD SWAP1 KECCAK256 PUSH1 0x40 MLOAD PUSH1 0x20 DUP2 ADD SWAP1 PUSH2 0x241E PUSH1 0x20 DUP3 DUP8 MLOAD PUSH2 0x1363 DUP2 DUP8 DUP13 PUSH2 0x3838 JUMP JUMPDEST MLOAD SWAP1 KECCAK256 EQ PUSH2 0x242F JUMPI JUMPDEST PUSH1 0x1 ADD PUSH2 0x233A JUMP JUMPDEST SWAP4 PUSH2 0x243B PUSH1 0x1 SWAP2 PUSH2 0x3F9F JUMP JUMPDEST SWAP5 SWAP1 POP PUSH2 0x2427 JUMP JUMPDEST CALLVALUE PUSH2 0x1E3 JUMPI PUSH1 0x20 CALLDATASIZE PUSH1 0x3 NOT ADD SLT PUSH2 0x1E3 JUMPI PUSH1 0x4 CALLDATALOAD PUSH1 0x1 PUSH1 0x1 PUSH1 0x40 SHL SUB DUP2 GT PUSH2 0x1E3 JUMPI PUSH1 0x20 PUSH2 0x19B PUSH2 0x2478 SWAP3 CALLDATASIZE SWAP1 PUSH1 0x4 ADD PUSH2 0x3B01 JUMP JUMPDEST DUP2 ADD PUSH1 0xE DUP2 MSTORE SUB ADD SWAP1 KECCAK256 PUSH1 0x40 MLOAD PUSH2 0x2493 DUP2 PUSH2 0x1C4 DUP2 DUP6 PUSH2 0x3984 JUMP JUMPDEST PUSH2 0x1DF PUSH1 0x40 MLOAD SWAP2 PUSH2 0x24AB DUP4 PUSH2 0x22C1 DUP2 PUSH1 0x1 DUP9 ADD PUSH2 0x3984 JUMP JUMPDEST PUSH1 0x40 MLOAD SWAP4 PUSH2 0x24C0 DUP6 PUSH2 0x228A DUP2 PUSH1 0x2 DUP6 ADD PUSH2 0x3984 JUMP JUMPDEST PUSH1 0xFF PUSH1 0x3 DUP3 ADD SLOAD AND SWAP2 PUSH1 0x40 MLOAD PUSH2 0x24DD DUP2 PUSH2 0x1C4 DUP2 PUSH1 0x4 DUP8 ADD PUSH2 0x3984 JUMP JUMPDEST PUSH1 0x6 PUSH1 0x5 DUP5 ADD SLOAD SWAP4 ADD SLOAD SWAP4 PUSH1 0x40 MLOAD SWAP8 DUP9 SWAP8 PUSH1 0xFF DUP7 PUSH1 0xA0 SHR AND SWAP6 PUSH1 0x1 DUP1 PUSH1 0xA0 SHL SUB AND SWAP5 DUP10 PUSH2 0x3A85 JUMP JUMPDEST CALLVALUE PUSH2 0x1E3 JUMPI PUSH1 0x20 CALLDATASIZE PUSH1 0x3 NOT ADD SLT PUSH2 0x1E3 JUMPI PUSH1 0x4 CALLDATALOAD PUSH1 0x3 SLOAD DUP2 LT ISZERO PUSH2 0x1E3 JUMPI PUSH2 0x252C SWAP1 PUSH2 0x3C37 JUMP JUMPDEST POP PUSH1 0x40 MLOAD PUSH2 0x2270 DUP2 PUSH2 0x1C4 DUP2 DUP6 PUSH2 0x3984 JUMP JUMPDEST CALLVALUE PUSH2 0x1E3 JUMPI PUSH1 0xA0 CALLDATASIZE PUSH1 0x3 NOT ADD SLT PUSH2 0x1E3 JUMPI PUSH1 0x4 CALLDATALOAD PUSH1 0x1 PUSH1 0x1 PUSH1 0x40 SHL SUB DUP2 GT PUSH2 0x1E3 JUMPI PUSH2 0x256E SWAP1 CALLDATASIZE SWAP1 PUSH1 0x4 ADD PUSH2 0x3B01 JUMP JUMPDEST PUSH1 0x24 CALLDATALOAD SWAP1 PUSH1 0x1 PUSH1 0x1 PUSH1 0xA0 SHL SUB DUP3 AND DUP3 SUB PUSH2 0x1E3 JUMPI PUSH1 0x44 CALLDATALOAD PUSH1 0x1 PUSH1 0x1 PUSH1 0x40 SHL SUB DUP2 GT PUSH2 0x1E3 JUMPI PUSH2 0x25A1 SWAP1 CALLDATASIZE SWAP1 PUSH1 0x4 ADD PUSH2 0x3B01 JUMP JUMPDEST SWAP1 PUSH1 0x64 CALLDATALOAD PUSH1 0x1 PUSH1 0x1 PUSH1 0x40 SHL SUB DUP2 GT PUSH2 0x1E3 JUMPI PUSH2 0x25C1 SWAP1 CALLDATASIZE SWAP1 PUSH1 0x4 ADD PUSH2 0x3B01 JUMP JUMPDEST SWAP1 PUSH1 0x84 CALLDATALOAD PUSH1 0x1 PUSH1 0x1 PUSH1 0x40 SHL SUB DUP2 GT PUSH2 0x1E3 JUMPI PUSH2 0x25E1 SWAP1 CALLDATASIZE SWAP1 PUSH1 0x4 ADD PUSH2 0x3B01 JUMP JUMPDEST SWAP2 PUSH1 0x40 MLOAD SWAP4 DUP3 MLOAD SWAP5 PUSH1 0x20 DUP2 DUP2 DUP7 ADD SWAP8 PUSH2 0x25FB DUP2 DUP4 DUP12 PUSH2 0x3838 JUMP JUMPDEST DUP2 ADD PUSH1 0xC DUP2 MSTORE SUB ADD SWAP1 KECCAK256 SWAP6 PUSH1 0x6 DUP8 ADD DUP1 SLOAD PUSH1 0x1 PUSH1 0xFF DUP3 PUSH1 0x8 SHR AND PUSH2 0x261E DUP2 PUSH2 0x3A7B JUMP JUMPDEST SUB PUSH2 0x2BD9 JUMPI TIMESTAMP PUSH1 0x8 DUP11 ADD SSTORE PUSH2 0xFF00 NOT AND PUSH2 0x200 OR SWAP1 SSTORE DUP5 MLOAD PUSH1 0x9 DUP9 ADD SWAP1 PUSH1 0x1 PUSH1 0x1 PUSH1 0x40 SHL SUB DUP2 GT PUSH2 0xF03 JUMPI PUSH2 0x2653 DUP3 SLOAD PUSH2 0x394A JUMP JUMPDEST PUSH1 0x1F DUP2 GT PUSH2 0x2BA7 JUMPI JUMPDEST POP PUSH1 0x20 PUSH1 0x1F DUP3 GT PUSH1 0x1 EQ PUSH2 0x2B41 JUMPI SWAP1 DUP1 PUSH2 0x268B SWAP3 PUSH1 0x0 SWAP2 PUSH2 0x2B36 JUMPI POP DUP2 PUSH1 0x1 SHL SWAP2 PUSH1 0x0 NOT SWAP1 PUSH1 0x3 SHL SHR NOT AND OR SWAP1 JUMP JUMPDEST SWAP1 SSTORE JUMPDEST PUSH1 0x40 MLOAD PUSH1 0x20 DUP2 DUP7 MLOAD PUSH2 0x26A1 DUP2 DUP4 DUP13 PUSH2 0x3838 JUMP JUMPDEST DUP2 ADD PUSH1 0x5 DUP2 MSTORE SUB ADD SWAP1 KECCAK256 SWAP1 PUSH1 0x1 DUP1 PUSH1 0xA0 SHL SUB AND PUSH12 0xFFFFFFFFFFFFFFFFFFFFFFFF PUSH1 0xA0 SHL DUP3 SLOAD AND OR SWAP1 SSTORE PUSH1 0x40 MLOAD PUSH1 0x20 DUP2 DUP6 MLOAD PUSH2 0x26DD DUP2 DUP4 DUP12 PUSH2 0x3838 JUMP JUMPDEST DUP2 ADD PUSH1 0x6 DUP2 MSTORE SUB ADD SWAP1 KECCAK256 SWAP1 DUP1 MLOAD SWAP1 PUSH1 0x1 PUSH1 0x1 PUSH1 0x40 SHL SUB DUP3 GT PUSH2 0xF03 JUMPI PUSH2 0x2703 DUP4 SLOAD PUSH2 0x394A JUMP JUMPDEST PUSH1 0x1F DUP2 GT PUSH2 0x2B04 JUMPI JUMPDEST POP PUSH1 0x20 SWAP1 PUSH1 0x1F DUP4 GT PUSH1 0x1 EQ PUSH2 0x2A9D JUMPI PUSH2 0x273D SWAP3 SWAP2 PUSH1 0x0 SWAP2 DUP4 PUSH2 0x2A92 JUMPI POP POP DUP2 PUSH1 0x1 SHL SWAP2 PUSH1 0x0 NOT SWAP1 PUSH1 0x3 SHL SHR NOT AND OR SWAP1 JUMP JUMPDEST SWAP1 SSTORE JUMPDEST PUSH1 0x40 MLOAD PUSH1 0x20 DUP2 DUP5 MLOAD PUSH2 0x2753 DUP2 DUP4 DUP11 PUSH2 0x3838 JUMP JUMPDEST DUP2 ADD PUSH1 0x7 DUP2 MSTORE SUB ADD SWAP1 KECCAK256 SWAP1 DUP1 MLOAD SWAP1 PUSH1 0x1 PUSH1 0x1 PUSH1 0x40 SHL SUB DUP3 GT PUSH2 0xF03 JUMPI PUSH2 0x2779 DUP4 SLOAD PUSH2 0x394A JUMP JUMPDEST PUSH1 0x1F DUP2 GT PUSH2 0x2A60 JUMPI JUMPDEST POP PUSH1 0x20 SWAP1 PUSH1 0x1F DUP4 GT PUSH1 0x1 EQ PUSH2 0x29F9 JUMPI PUSH2 0x27B3 SWAP3 SWAP2 PUSH1 0x0 SWAP2 DUP4 PUSH2 0x29EE JUMPI POP POP DUP2 PUSH1 0x1 SHL SWAP2 PUSH1 0x0 NOT SWAP1 PUSH1 0x3 SHL SHR NOT AND OR SWAP1 JUMP JUMPDEST SWAP1 SSTORE JUMPDEST PUSH1 0x0 JUMPDEST PUSH1 0x2 SLOAD DUP2 LT ISZERO PUSH2 0x29BD JUMPI PUSH2 0x27CC DUP2 PUSH2 0x3C02 JUMP JUMPDEST POP PUSH1 0x40 MLOAD PUSH2 0x27E2 DUP2 PUSH2 0x1334 PUSH1 0x20 DUP3 ADD DUP1 SWAP6 PUSH2 0x3F31 JUMP JUMPDEST MLOAD SWAP1 KECCAK256 PUSH1 0x40 MLOAD PUSH1 0x20 DUP2 ADD SWAP1 PUSH2 0x2800 PUSH1 0x20 DUP3 DUP8 MLOAD PUSH2 0x1363 DUP2 DUP8 DUP14 PUSH2 0x3838 JUMP JUMPDEST MLOAD SWAP1 KECCAK256 EQ PUSH2 0x2810 JUMPI PUSH1 0x1 ADD PUSH2 0x27B9 JUMP JUMPDEST PUSH1 0x9 SWAP3 SWAP4 POP PUSH2 0x2849 SWAP2 POP PUSH2 0x2823 DUP2 PUSH2 0x3C02 JUMP JUMPDEST POP PUSH1 0x8 TIMESTAMP SWAP2 ADD SSTORE PUSH1 0x6 PUSH2 0x2835 DUP3 PUSH2 0x3C02 JUMP JUMPDEST POP ADD DUP1 SLOAD PUSH2 0xFF00 NOT AND PUSH2 0x200 OR SWAP1 SSTORE PUSH2 0x3C02 JUMP JUMPDEST POP ADD SWAP2 DUP2 MLOAD SWAP3 PUSH1 0x1 PUSH1 0x1 PUSH1 0x40 SHL SUB DUP5 GT PUSH2 0xF03 JUMPI PUSH2 0x2867 DUP2 SLOAD PUSH2 0x394A JUMP JUMPDEST PUSH1 0x1F DUP2 GT PUSH2 0x298B JUMPI JUMPDEST POP PUSH1 0x20 SWAP4 PUSH1 0x1F DUP2 GT PUSH1 0x1 EQ PUSH2 0x28FD JUMPI SWAP2 PUSH2 0x1516 SWAP2 PUSH2 0x28CA DUP5 PUSH2 0x28E3 SWAP7 SWAP6 PUSH32 0x489F165B733603CB0A992D8CAFD6C42A0C13D169039003F751758B9F0019F26C SWAP9 PUSH1 0x0 SWAP2 PUSH2 0x28F2 JUMPI POP DUP2 PUSH1 0x1 SHL SWAP2 PUSH1 0x0 NOT SWAP1 PUSH1 0x3 SHL SHR NOT AND OR SWAP1 JUMP JUMPDEST SWAP1 SSTORE JUMPDEST PUSH1 0x2 PUSH1 0x40 MLOAD SWAP5 DUP6 SWAP5 PUSH1 0x40 DUP7 MSTORE PUSH1 0x40 DUP7 ADD SWAP1 PUSH2 0x385B JUMP JUMPDEST SWAP2 DUP5 DUP4 SUB PUSH1 0x20 DUP7 ADD MSTORE ADD PUSH2 0x3984 JUMP JUMPDEST SWAP1 POP DUP7 ADD MLOAD DUP10 PUSH2 0x771 JUMP JUMPDEST PUSH1 0x1F NOT DUP2 AND SWAP5 DUP3 PUSH1 0x0 MSTORE DUP1 PUSH1 0x0 KECCAK256 SWAP6 PUSH1 0x0 JUMPDEST DUP2 DUP2 LT PUSH2 0x2973 JUMPI POP DUP3 PUSH32 0x489F165B733603CB0A992D8CAFD6C42A0C13D169039003F751758B9F0019F26C SWAP8 PUSH2 0x1516 SWAP6 SWAP4 PUSH2 0x28E3 SWAP9 SWAP8 SWAP6 PUSH1 0x1 SWAP5 LT PUSH2 0x295A JUMPI JUMPDEST POP POP DUP2 SHL ADD SWAP1 SSTORE PUSH2 0x28CD JUMP JUMPDEST DUP8 ADD MLOAD PUSH1 0x0 NOT PUSH1 0xF8 DUP5 PUSH1 0x3 SHL AND SHR NOT AND SWAP1 SSTORE DUP9 DUP1 PUSH2 0x294E JUMP JUMPDEST DUP7 DUP4 ADD MLOAD DUP9 SSTORE PUSH1 0x1 SWAP1 SWAP8 ADD SWAP7 PUSH1 0x20 SWAP3 DUP4 ADD SWAP3 ADD PUSH2 0x290F JUMP JUMPDEST PUSH2 0x29B7 SWAP1 DUP3 PUSH1 0x0 MSTORE PUSH1 0x20 PUSH1 0x0 KECCAK256 PUSH1 0x1F DUP8 ADD PUSH1 0x5 SHR DUP2 ADD SWAP2 PUSH1 0x20 DUP9 LT PUSH2 0xFBB JUMPI PUSH1 0x1F ADD PUSH1 0x5 SHR ADD SWAP1 PUSH2 0x401C JUMP JUMPDEST DUP5 PUSH2 0x2870 JUMP JUMPDEST POP POP PUSH2 0x28E3 SWAP2 POP PUSH2 0x1516 PUSH32 0x489F165B733603CB0A992D8CAFD6C42A0C13D169039003F751758B9F0019F26C SWAP4 PUSH2 0x28CD JUMP JUMPDEST ADD MLOAD SWAP1 POP DUP9 DUP1 PUSH2 0x1566 JUMP JUMPDEST SWAP1 PUSH1 0x1F NOT DUP4 AND SWAP2 DUP5 PUSH1 0x0 MSTORE DUP2 PUSH1 0x0 KECCAK256 SWAP3 PUSH1 0x0 JUMPDEST DUP2 DUP2 LT PUSH2 0x2A48 JUMPI POP SWAP1 DUP5 PUSH1 0x1 SWAP6 SWAP5 SWAP4 SWAP3 LT PUSH2 0x2A2F JUMPI JUMPDEST POP POP POP DUP2 SHL ADD SWAP1 SSTORE PUSH2 0x27B6 JUMP JUMPDEST ADD MLOAD PUSH1 0x0 NOT PUSH1 0xF8 DUP5 PUSH1 0x3 SHL AND SHR NOT AND SWAP1 SSTORE DUP8 DUP1 DUP1 PUSH2 0x2A22 JUMP JUMPDEST SWAP3 SWAP4 PUSH1 0x20 PUSH1 0x1 DUP2 SWAP3 DUP8 DUP7 ADD MLOAD DUP2 SSTORE ADD SWAP6 ADD SWAP4 ADD PUSH2 0x2A0C JUMP JUMPDEST PUSH2 0x2A8C SWAP1 DUP5 PUSH1 0x0 MSTORE PUSH1 0x20 PUSH1 0x0 KECCAK256 PUSH1 0x1F DUP6 ADD PUSH1 0x5 SHR DUP2 ADD SWAP2 PUSH1 0x20 DUP7 LT PUSH2 0xFBB JUMPI PUSH1 0x1F ADD PUSH1 0x5 SHR ADD SWAP1 PUSH2 0x401C JUMP JUMPDEST DUP8 PUSH2 0x2782 JUMP JUMPDEST ADD MLOAD SWAP1 POP DUP10 DUP1 PUSH2 0x1566 JUMP JUMPDEST SWAP1 PUSH1 0x1F NOT DUP4 AND SWAP2 DUP5 PUSH1 0x0 MSTORE DUP2 PUSH1 0x0 KECCAK256 SWAP3 PUSH1 0x0 JUMPDEST DUP2 DUP2 LT PUSH2 0x2AEC JUMPI POP SWAP1 DUP5 PUSH1 0x1 SWAP6 SWAP5 SWAP4 SWAP3 LT PUSH2 0x2AD3 JUMPI JUMPDEST POP POP POP DUP2 SHL ADD SWAP1 SSTORE PUSH2 0x2740 JUMP JUMPDEST ADD MLOAD PUSH1 0x0 NOT PUSH1 0xF8 DUP5 PUSH1 0x3 SHL AND SHR NOT AND SWAP1 SSTORE DUP9 DUP1 DUP1 PUSH2 0x2AC6 JUMP JUMPDEST SWAP3 SWAP4 PUSH1 0x20 PUSH1 0x1 DUP2 SWAP3 DUP8 DUP7 ADD MLOAD DUP2 SSTORE ADD SWAP6 ADD SWAP4 ADD PUSH2 0x2AB0 JUMP JUMPDEST PUSH2 0x2B30 SWAP1 DUP5 PUSH1 0x0 MSTORE PUSH1 0x20 PUSH1 0x0 KECCAK256 PUSH1 0x1F DUP6 ADD PUSH1 0x5 SHR DUP2 ADD SWAP2 PUSH1 0x20 DUP7 LT PUSH2 0xFBB JUMPI PUSH1 0x1F ADD PUSH1 0x5 SHR ADD SWAP1 PUSH2 0x401C JUMP JUMPDEST DUP9 PUSH2 0x270C JUMP JUMPDEST SWAP1 POP DUP9 ADD MLOAD DUP12 PUSH2 0x771 JUMP JUMPDEST PUSH1 0x1F NOT DUP3 AND SWAP1 DUP4 PUSH1 0x0 MSTORE DUP1 PUSH1 0x0 KECCAK256 SWAP2 PUSH1 0x0 JUMPDEST DUP11 DUP3 DUP3 LT PUSH2 0x2B8F JUMPI POP POP SWAP1 DUP4 PUSH1 0x1 SWAP5 SWAP4 SWAP3 LT PUSH2 0x2B76 JUMPI JUMPDEST POP POP DUP2 SHL ADD SWAP1 SSTORE PUSH2 0x268E JUMP JUMPDEST DUP10 ADD MLOAD PUSH1 0x0 NOT PUSH1 0xF8 DUP5 PUSH1 0x3 SHL AND SHR NOT AND SWAP1 SSTORE DUP11 DUP1 PUSH2 0x2B6A JUMP JUMPDEST PUSH1 0x1 DUP5 SWAP6 PUSH1 0x20 SWAP4 SWAP6 DUP5 SWAP4 ADD MLOAD DUP2 SSTORE ADD SWAP5 ADD SWAP3 ADD PUSH2 0x2B53 JUMP JUMPDEST PUSH2 0x2BD3 SWAP1 DUP4 PUSH1 0x0 MSTORE PUSH1 0x20 PUSH1 0x0 KECCAK256 PUSH1 0x1F DUP5 ADD PUSH1 0x5 SHR DUP2 ADD SWAP2 PUSH1 0x20 DUP6 LT PUSH2 0xFBB JUMPI PUSH1 0x1F ADD PUSH1 0x5 SHR ADD SWAP1 PUSH2 0x401C JUMP JUMPDEST DUP10 PUSH2 0x265C JUMP JUMPDEST PUSH1 0x40 MLOAD PUSH3 0x461BCD PUSH1 0xE5 SHL DUP2 MSTORE PUSH1 0x20 PUSH1 0x4 DUP3 ADD MSTORE PUSH1 0x2D PUSH1 0x24 DUP3 ADD MSTORE PUSH32 0x4F62617420547261646973696F6E616C20737461747573206D75737420626520 PUSH1 0x44 DUP3 ADD MSTORE PUSH13 0x5265717565737465644E494521 PUSH1 0x98 SHL PUSH1 0x64 DUP3 ADD MSTORE PUSH1 0x84 SWAP1 REVERT JUMPDEST CALLVALUE PUSH2 0x1E3 JUMPI PUSH1 0x20 CALLDATASIZE PUSH1 0x3 NOT ADD SLT PUSH2 0x1E3 JUMPI PUSH1 0x4 CALLDATALOAD PUSH1 0x2 SLOAD DUP2 LT ISZERO PUSH2 0x1E3 JUMPI PUSH2 0x2C5B SWAP1 PUSH2 0x3C02 JUMP JUMPDEST POP PUSH1 0x40 MLOAD SWAP1 PUSH2 0x2C75 DUP3 PUSH2 0x2C6E DUP2 DUP5 PUSH2 0x3984 JUMP JUMPDEST SUB DUP4 PUSH2 0x3A5A JUMP JUMPDEST PUSH2 0x1DF PUSH1 0x9 PUSH1 0x40 MLOAD SWAP3 PUSH2 0x2C96 DUP5 PUSH2 0x2C8F DUP2 PUSH1 0x1 DUP6 ADD PUSH2 0x3984 JUMP JUMPDEST SUB DUP6 PUSH2 0x3A5A JUMP JUMPDEST PUSH1 0x40 MLOAD SWAP5 PUSH2 0x2CB2 DUP7 PUSH2 0x2CAB DUP2 PUSH1 0x2 DUP7 ADD PUSH2 0x3984 JUMP JUMPDEST SUB DUP8 PUSH2 0x3A5A JUMP JUMPDEST PUSH1 0x40 MLOAD SWAP1 PUSH2 0x2CC7 DUP3 PUSH2 0x2C6E DUP2 PUSH1 0x4 DUP8 ADD PUSH2 0x3984 JUMP JUMPDEST PUSH1 0x6 DUP4 ADD SLOAD SWAP1 PUSH1 0x7 DUP5 ADD SLOAD SWAP3 PUSH2 0x2CEC PUSH1 0x8 DUP7 ADD SLOAD SWAP6 PUSH2 0x2CAB PUSH1 0x40 MLOAD DUP1 SWAP10 DUP2 SWAP4 ADD PUSH2 0x3984 JUMP JUMPDEST PUSH1 0x40 MLOAD SWAP9 DUP10 SWAP9 PUSH1 0xFF DUP1 DUP7 PUSH1 0x8 SHR AND SWAP6 AND SWAP4 DUP11 PUSH2 0x3B64 JUMP JUMPDEST CALLVALUE PUSH2 0x1E3 JUMPI PUSH1 0x20 CALLDATASIZE PUSH1 0x3 NOT ADD SLT PUSH2 0x1E3 JUMPI PUSH1 0x4 CALLDATALOAD PUSH1 0x1 PUSH1 0x1 PUSH1 0xA0 SHL SUB DUP2 AND SWAP1 DUP2 SWAP1 SUB PUSH2 0x1E3 JUMPI PUSH1 0x0 MSTORE PUSH1 0xB PUSH1 0x20 MSTORE PUSH1 0xFF PUSH1 0x40 PUSH1 0x0 KECCAK256 SLOAD AND PUSH1 0x40 MLOAD PUSH1 0x4 DUP3 LT ISZERO PUSH2 0x2D4D JUMPI PUSH1 0x20 SWAP2 DUP2 MSTORE RETURN JUMPDEST PUSH4 0x4E487B71 PUSH1 0xE0 SHL PUSH1 0x0 MSTORE PUSH1 0x21 PUSH1 0x4 MSTORE PUSH1 0x24 PUSH1 0x0 REVERT JUMPDEST CALLVALUE PUSH2 0x1E3 JUMPI PUSH1 0x20 CALLDATASIZE PUSH1 0x3 NOT ADD SLT PUSH2 0x1E3 JUMPI PUSH1 0x4 CALLDATALOAD PUSH1 0x1 PUSH1 0x1 PUSH1 0x40 SHL SUB DUP2 GT PUSH2 0x1E3 JUMPI PUSH2 0x2D95 PUSH1 0x20 SWAP2 CALLDATASIZE SWAP1 PUSH1 0x4 ADD PUSH2 0x3B01 JUMP JUMPDEST DUP2 PUSH2 0x2DA9 PUSH1 0x40 MLOAD SWAP3 DUP4 DUP2 MLOAD SWAP4 DUP5 SWAP3 ADD PUSH2 0x3838 JUMP JUMPDEST PUSH1 0x8 SWAP1 DUP3 ADD SWAP1 DUP2 MSTORE DUP2 SWAP1 SUB DUP3 ADD SWAP1 KECCAK256 SLOAD PUSH1 0x40 MLOAD PUSH1 0x1 PUSH1 0x1 PUSH1 0xA0 SHL SUB SWAP1 SWAP2 AND DUP2 MSTORE RETURN JUMPDEST CALLVALUE PUSH2 0x1E3 JUMPI PUSH1 0x20 CALLDATASIZE PUSH1 0x3 NOT ADD SLT PUSH2 0x1E3 JUMPI PUSH1 0x4 CALLDATALOAD PUSH1 0x1 PUSH1 0x1 PUSH1 0x40 SHL SUB DUP2 GT PUSH2 0x1E3 JUMPI PUSH2 0x1C4 PUSH2 0x1CB PUSH2 0x2E09 PUSH1 0x20 PUSH2 0x19B PUSH2 0x1DF SWAP6 CALLDATASIZE SWAP1 PUSH1 0x4 ADD PUSH2 0x3B01 JUMP JUMPDEST DUP2 ADD PUSH1 0xA DUP2 MSTORE SUB ADD SWAP1 KECCAK256 PUSH1 0x40 MLOAD SWAP3 DUP4 DUP1 SWAP3 PUSH2 0x3984 JUMP JUMPDEST CALLVALUE PUSH2 0x1E3 JUMPI PUSH1 0x20 CALLDATASIZE PUSH1 0x3 NOT ADD SLT PUSH2 0x1E3 JUMPI PUSH1 0x4 CALLDATALOAD PUSH1 0x1 PUSH1 0x1 PUSH1 0x40 SHL SUB DUP2 GT PUSH2 0x1E3 JUMPI PUSH1 0x20 PUSH2 0x19B PUSH2 0x2E54 SWAP3 CALLDATASIZE SWAP1 PUSH1 0x4 ADD PUSH2 0x3B01 JUMP JUMPDEST DUP2 ADD PUSH1 0xC DUP2 MSTORE SUB ADD SWAP1 KECCAK256 PUSH1 0x40 MLOAD SWAP1 PUSH2 0x2C75 DUP3 PUSH2 0x2C6E DUP2 DUP5 PUSH2 0x3984 JUMP JUMPDEST CALLVALUE PUSH2 0x1E3 JUMPI PUSH1 0x20 CALLDATASIZE PUSH1 0x3 NOT ADD SLT PUSH2 0x1E3 JUMPI PUSH1 0x4 CALLDATALOAD PUSH1 0x1 PUSH1 0x1 PUSH1 0x40 SHL SUB DUP2 GT PUSH2 0x1E3 JUMPI PUSH2 0x2EA3 PUSH2 0x140 SWAP2 CALLDATASIZE SWAP1 PUSH1 0x4 ADD PUSH2 0x3B01 JUMP JUMPDEST PUSH1 0x60 DUP3 PUSH1 0x40 MLOAD PUSH2 0x2EB2 DUP2 PUSH2 0x3A22 JUMP JUMPDEST DUP3 DUP2 MSTORE DUP3 PUSH1 0x20 DUP3 ADD MSTORE DUP3 PUSH1 0x40 DUP3 ADD MSTORE DUP3 DUP1 DUP3 ADD MSTORE DUP3 PUSH1 0x80 DUP3 ADD MSTORE DUP3 PUSH1 0xA0 DUP3 ADD MSTORE PUSH1 0x0 PUSH1 0xC0 DUP3 ADD MSTORE PUSH1 0x0 PUSH1 0xE0 DUP3 ADD MSTORE PUSH1 0x0 PUSH2 0x100 DUP3 ADD MSTORE PUSH1 0x0 PUSH2 0x120 DUP3 ADD MSTORE ADD MSTORE PUSH2 0x1DF PUSH2 0x3152 PUSH2 0x3288 PUSH1 0x40 MLOAD SWAP4 PUSH2 0x2F2A PUSH2 0x1E95 DUP3 MLOAD SWAP7 PUSH1 0x20 DUP2 DUP2 DUP7 ADD SWAP10 PUSH2 0x2F1A DUP2 DUP4 DUP14 PUSH2 0x3838 JUMP JUMPDEST DUP2 ADD PUSH1 0xC DUP2 MSTORE SUB ADD SWAP1 KECCAK256 SLOAD PUSH2 0x394A JUMP JUMPDEST PUSH2 0x3124 PUSH2 0x3275 PUSH2 0x30CA PUSH2 0x3267 PUSH1 0x40 MLOAD PUSH1 0x20 DUP2 DUP1 PUSH2 0x2F4B DUP14 DUP11 MLOAD SWAP3 DUP4 SWAP2 PUSH2 0x3838 JUMP JUMPDEST DUP2 ADD PUSH1 0xC DUP2 MSTORE SUB ADD SWAP1 KECCAK256 SWAP9 PUSH1 0x9 PUSH2 0x303B PUSH1 0x40 MLOAD SWAP12 PUSH2 0x2F68 DUP14 PUSH2 0x3A22 JUMP JUMPDEST PUSH1 0x40 MLOAD PUSH2 0x2F79 DUP2 PUSH2 0x1C4 DUP2 DUP6 PUSH2 0x3984 JUMP JUMPDEST DUP14 MSTORE PUSH1 0x40 MLOAD PUSH1 0x20 DUP15 PUSH2 0x2F92 DUP4 PUSH2 0x22C1 DUP2 PUSH1 0x1 DUP9 ADD PUSH2 0x3984 JUMP JUMPDEST ADD MSTORE DUP13 PUSH1 0x40 DUP1 MLOAD SWAP2 PUSH2 0x2FAB DUP4 PUSH2 0x22C1 DUP2 PUSH1 0x2 DUP9 ADD PUSH2 0x3984 JUMP JUMPDEST ADD MSTORE DUP13 PUSH1 0x60 PUSH2 0x2FBC PUSH1 0x3 DUP5 ADD PUSH2 0x3ED1 JUMP JUMPDEST SWAP2 ADD MSTORE PUSH1 0x40 MLOAD PUSH1 0x80 DUP15 PUSH2 0x2FD6 DUP4 PUSH2 0x22C1 DUP2 PUSH1 0x4 DUP9 ADD PUSH2 0x3984 JUMP JUMPDEST ADD MSTORE DUP13 PUSH1 0xA0 PUSH2 0x2FE7 PUSH1 0x5 DUP5 ADD PUSH2 0x3ED1 JUMP JUMPDEST SWAP2 ADD MSTORE DUP13 PUSH1 0xE0 PUSH1 0xFF PUSH1 0x6 DUP5 ADD SLOAD PUSH2 0x3003 DUP3 DUP3 AND PUSH1 0xC0 DUP7 ADD PUSH2 0x4010 JUMP JUMPDEST PUSH1 0x8 SHR AND SWAP2 PUSH2 0x3011 DUP4 PUSH2 0x3A7B JUMP JUMPDEST ADD MSTORE DUP13 PUSH2 0x100 PUSH1 0x7 DUP4 ADD SLOAD SWAP2 ADD MSTORE DUP13 PUSH2 0x120 PUSH1 0x8 DUP4 ADD SLOAD SWAP2 ADD MSTORE PUSH2 0x1C4 PUSH1 0x40 MLOAD DUP1 SWAP5 DUP2 SWAP4 ADD PUSH2 0x3984 JUMP JUMPDEST DUP12 DUP12 ADD MSTORE PUSH2 0x228A PUSH2 0x3159 PUSH2 0x313C PUSH1 0x20 PUSH1 0x40 MLOAD DUP11 MLOAD PUSH2 0x305A DUP2 DUP4 DUP10 PUSH2 0x3838 JUMP JUMPDEST DUP2 ADD SWAP1 PUSH1 0x8 DUP3 MSTORE DUP3 DUP2 PUSH1 0x1 DUP1 PUSH1 0xA0 SHL SUB SWAP4 SUB ADD SWAP1 KECCAK256 SLOAD AND SWAP5 PUSH2 0x309E DUP12 DUP4 PUSH1 0x40 MLOAD DUP1 SWAP3 MLOAD PUSH2 0x3088 DUP2 DUP4 DUP9 PUSH2 0x3838 JUMP JUMPDEST DUP2 ADD PUSH1 0x9 DUP2 MSTORE SUB ADD SWAP1 KECCAK256 PUSH1 0x40 MLOAD SWAP7 DUP8 DUP1 SWAP3 PUSH2 0x3984 JUMP JUMPDEST PUSH2 0x30D1 DUP12 DUP4 PUSH1 0x40 MLOAD DUP1 SWAP3 MLOAD PUSH2 0x30B4 DUP2 DUP4 DUP9 PUSH2 0x3838 JUMP JUMPDEST DUP2 ADD PUSH1 0xA DUP2 MSTORE SUB ADD SWAP1 KECCAK256 PUSH1 0x40 MLOAD SWAP10 DUP11 DUP1 SWAP3 PUSH2 0x3984 JUMP JUMPDEST SUB DUP10 PUSH2 0x3A5A JUMP JUMPDEST PUSH1 0x40 MLOAD DUP12 MLOAD PUSH2 0x30E1 DUP2 DUP4 DUP6 PUSH2 0x3838 JUMP JUMPDEST DUP2 ADD SWAP1 PUSH1 0x5 DUP3 MSTORE DUP4 DUP2 PUSH1 0x1 DUP1 PUSH1 0xA0 SHL SUB SWAP4 SUB ADD SWAP1 KECCAK256 SLOAD AND SWAP11 PUSH2 0x312B PUSH1 0x40 MLOAD DUP5 DUP2 DUP5 MLOAD PUSH2 0x310E DUP2 DUP4 DUP10 PUSH2 0x3838 JUMP JUMPDEST DUP2 ADD PUSH1 0x6 DUP2 MSTORE SUB ADD SWAP1 KECCAK256 PUSH1 0x40 MLOAD SWAP13 DUP14 DUP1 SWAP3 PUSH2 0x3984 JUMP JUMPDEST SUB DUP13 PUSH2 0x3A5A JUMP JUMPDEST PUSH1 0x40 MLOAD SWAP4 DUP5 SWAP3 DUP4 SWAP3 MLOAD SWAP3 DUP4 SWAP2 PUSH2 0x3838 JUMP JUMPDEST DUP2 ADD PUSH1 0x7 DUP2 MSTORE SUB ADD SWAP1 KECCAK256 PUSH1 0x40 MLOAD SWAP11 DUP12 DUP1 SWAP3 PUSH2 0x3984 JUMP JUMPDEST SUB DUP11 PUSH2 0x3A5A JUMP JUMPDEST PUSH2 0x3254 PUSH1 0x40 MLOAD DUP1 SWAP14 DUP2 SWAP14 PUSH1 0xE0 DUP4 MSTORE PUSH2 0x31FF PUSH2 0x31E8 PUSH2 0x31D1 PUSH2 0x31BC PUSH2 0x31A5 PUSH2 0x318E DUP7 MLOAD PUSH2 0x160 PUSH1 0xE0 DUP12 ADD MSTORE PUSH2 0x240 DUP11 ADD SWAP1 PUSH2 0x385B JUMP JUMPDEST PUSH1 0x20 DUP8 ADD MLOAD DUP10 DUP3 SUB PUSH1 0xDF NOT ADD PUSH2 0x100 DUP12 ADD MSTORE PUSH2 0x385B JUMP JUMPDEST PUSH1 0x40 DUP7 ADD MLOAD DUP9 DUP3 SUB PUSH1 0xDF NOT ADD PUSH2 0x120 DUP11 ADD MSTORE PUSH2 0x385B JUMP JUMPDEST PUSH1 0x60 DUP6 ADD MLOAD DUP8 DUP3 SUB PUSH1 0xDF NOT ADD DUP8 DUP10 ADD MSTORE PUSH2 0x3880 JUMP JUMPDEST PUSH1 0x80 DUP5 ADD MLOAD DUP7 DUP3 SUB PUSH1 0xDF NOT ADD PUSH2 0x160 DUP9 ADD MSTORE PUSH2 0x385B JUMP JUMPDEST PUSH1 0xA0 DUP4 ADD MLOAD DUP6 DUP3 SUB PUSH1 0xDF NOT ADD PUSH2 0x180 DUP8 ADD MSTORE PUSH2 0x3880 JUMP JUMPDEST SWAP3 PUSH2 0x3213 PUSH1 0xC0 DUP4 ADD MLOAD PUSH2 0x1A0 DUP4 ADD SWAP1 PUSH2 0x3B57 JUMP JUMPDEST PUSH1 0xE0 DUP3 ADD MLOAD PUSH2 0x3221 DUP2 PUSH2 0x3A7B JUMP JUMPDEST PUSH2 0x1C0 DUP3 ADD MSTORE PUSH2 0x100 DUP3 ADD MLOAD PUSH2 0x1E0 DUP3 ADD MSTORE PUSH2 0x120 DUP3 ADD MLOAD PUSH2 0x200 SWAP1 SWAP2 ADD MSTORE ADD MLOAD DUP14 DUP3 SUB PUSH1 0xDF NOT ADD PUSH2 0x220 DUP16 ADD MSTORE PUSH2 0x385B JUMP JUMPDEST SWAP2 PUSH1 0x20 DUP13 ADD MSTORE DUP11 DUP3 SUB PUSH1 0x40 DUP13 ADD MSTORE PUSH2 0x385B JUMP JUMPDEST SWAP1 DUP9 DUP3 SUB PUSH1 0x60 DUP11 ADD MSTORE PUSH2 0x385B JUMP JUMPDEST SWAP2 PUSH1 0x80 DUP8 ADD MSTORE DUP6 DUP3 SUB PUSH1 0xA0 DUP8 ADD MSTORE PUSH2 0x385B JUMP JUMPDEST SWAP1 DUP4 DUP3 SUB PUSH1 0xC0 DUP6 ADD MSTORE PUSH2 0x385B JUMP JUMPDEST CALLVALUE PUSH2 0x1E3 JUMPI PUSH1 0x20 CALLDATASIZE PUSH1 0x3 NOT ADD SLT PUSH2 0x1E3 JUMPI PUSH1 0x4 CALLDATALOAD PUSH1 0x1 PUSH1 0x1 PUSH1 0x40 SHL SUB DUP2 GT PUSH2 0x1E3 JUMPI PUSH2 0x32C6 SWAP1 CALLDATASIZE SWAP1 PUSH1 0x4 ADD PUSH2 0x3B01 JUMP JUMPDEST PUSH1 0x2 SLOAD PUSH1 0x20 DUP3 ADD SWAP2 PUSH1 0x0 DUP1 JUMPDEST DUP4 DUP2 LT PUSH2 0x3454 JUMPI POP PUSH2 0x32E3 DUP2 PUSH2 0x3D4C JUMP JUMPDEST SWAP3 PUSH2 0x32ED DUP3 PUSH2 0x3D4C JUMP JUMPDEST SWAP1 PUSH2 0x32FA PUSH2 0x235A DUP5 PUSH2 0x3D96 JUMP JUMPDEST SWAP4 PUSH1 0x0 SWAP7 DUP8 JUMPDEST DUP4 DUP2 LT PUSH2 0x3355 JUMPI PUSH2 0x332B DUP9 PUSH2 0x1DF DUP10 PUSH2 0x3347 DUP11 PUSH2 0x3339 DUP12 PUSH1 0x40 MLOAD SWAP8 DUP9 SWAP8 PUSH1 0x80 DUP10 MSTORE PUSH1 0x80 DUP10 ADD SWAP1 PUSH2 0x3880 JUMP JUMPDEST SWAP1 DUP8 DUP3 SUB PUSH1 0x20 DUP10 ADD MSTORE PUSH2 0x3880 JUMP JUMPDEST SWAP1 DUP6 DUP3 SUB PUSH1 0x40 DUP8 ADD MSTORE PUSH2 0x38D9 JUMP JUMPDEST SWAP1 DUP4 DUP3 SUB PUSH1 0x60 DUP6 ADD MSTORE PUSH2 0x38D9 JUMP JUMPDEST PUSH2 0x3363 PUSH1 0x20 PUSH2 0x397 DUP4 PUSH2 0x3C02 JUMP JUMPDEST PUSH1 0x9 DUP2 MSTORE SUB ADD SWAP1 KECCAK256 PUSH1 0x40 MLOAD PUSH2 0x3380 DUP2 PUSH2 0x1334 PUSH1 0x20 DUP3 ADD DUP1 SWAP6 PUSH2 0x3F31 JUMP JUMPDEST MLOAD SWAP1 KECCAK256 PUSH1 0x40 MLOAD PUSH1 0x20 DUP2 ADD SWAP1 PUSH2 0x339E PUSH1 0x20 DUP3 DUP9 MLOAD PUSH2 0x1363 DUP2 DUP8 DUP12 PUSH2 0x3838 JUMP JUMPDEST MLOAD SWAP1 KECCAK256 EQ PUSH2 0x33AF JUMPI JUMPDEST PUSH1 0x1 ADD PUSH2 0x3300 JUMP JUMPDEST SWAP8 PUSH2 0x1C4 PUSH2 0x33BF PUSH2 0x32B DUP12 PUSH2 0x3C02 JUMP JUMPDEST PUSH2 0x33C9 DUP3 DUP11 PUSH2 0x3EBD JUMP JUMPDEST MSTORE PUSH2 0x33D4 DUP2 DUP10 PUSH2 0x3EBD JUMP JUMPDEST POP PUSH1 0x2 PUSH2 0x33E3 PUSH2 0x35C DUP12 PUSH2 0x3C02 JUMP JUMPDEST PUSH2 0x33ED DUP3 DUP8 PUSH2 0x3EBD JUMP JUMPDEST MSTORE PUSH2 0x33F8 DUP2 DUP7 PUSH2 0x3EBD JUMP JUMPDEST POP PUSH1 0xFF PUSH1 0x6 PUSH2 0x3406 DUP12 PUSH2 0x3C02 JUMP JUMPDEST POP ADD SLOAD PUSH1 0x8 SHR AND PUSH2 0x3416 DUP2 PUSH2 0x3A7B JUMP JUMPDEST PUSH2 0x3420 DUP3 DUP9 PUSH2 0x3EBD JUMP JUMPDEST MSTORE PUSH1 0xFF PUSH1 0x6 PUSH2 0x342E DUP12 PUSH2 0x3C02 JUMP JUMPDEST POP ADD SLOAD AND PUSH1 0x2 DUP2 LT ISZERO PUSH2 0x2D4D JUMPI DUP2 PUSH2 0x344C SWAP2 PUSH2 0x431 PUSH1 0x1 SWAP5 DUP12 PUSH2 0x3EBD JUMP JUMPDEST SWAP9 SWAP1 POP PUSH2 0x33A7 JUMP JUMPDEST PUSH2 0x3462 PUSH1 0x20 PUSH2 0x397 DUP4 PUSH2 0x3C02 JUMP JUMPDEST PUSH1 0x9 DUP2 MSTORE SUB ADD SWAP1 KECCAK256 PUSH1 0x40 MLOAD PUSH2 0x347F DUP2 PUSH2 0x1334 PUSH1 0x20 DUP3 ADD DUP1 SWAP6 PUSH2 0x3F31 JUMP JUMPDEST MLOAD SWAP1 KECCAK256 PUSH1 0x40 MLOAD PUSH1 0x20 DUP2 ADD SWAP1 PUSH2 0x349F PUSH1 0x20 DUP3 DUP5 PUSH2 0x1363 DUP13 DUP12 MLOAD SWAP3 DUP4 SWAP2 PUSH2 0x3838 JUMP JUMPDEST MLOAD SWAP1 KECCAK256 EQ PUSH2 0x34B0 JUMPI JUMPDEST PUSH1 0x1 ADD PUSH2 0x32D2 JUMP JUMPDEST SWAP1 PUSH2 0x34BC PUSH1 0x1 SWAP2 PUSH2 0x3F9F JUMP JUMPDEST SWAP2 SWAP1 POP PUSH2 0x34A8 JUMP JUMPDEST CALLVALUE PUSH2 0x1E3 JUMPI PUSH1 0x20 CALLDATASIZE PUSH1 0x3 NOT ADD SLT PUSH2 0x1E3 JUMPI PUSH1 0x4 CALLDATALOAD PUSH1 0x1 PUSH1 0x1 PUSH1 0x40 SHL SUB DUP2 GT PUSH2 0x1E3 JUMPI PUSH2 0x34F6 PUSH1 0x20 SWAP2 CALLDATASIZE SWAP1 PUSH1 0x4 ADD PUSH2 0x3B01 JUMP JUMPDEST DUP2 PUSH2 0x350A PUSH1 0x40 MLOAD SWAP3 DUP4 DUP2 MLOAD SWAP4 DUP5 SWAP3 ADD PUSH2 0x3838 JUMP JUMPDEST PUSH1 0x5 SWAP1 DUP3 ADD SWAP1 DUP2 MSTORE DUP2 SWAP1 SUB DUP3 ADD SWAP1 KECCAK256 SLOAD PUSH1 0x40 MLOAD PUSH1 0x1 PUSH1 0x1 PUSH1 0xA0 SHL SUB SWAP1 SWAP2 AND DUP2 MSTORE RETURN JUMPDEST CALLVALUE PUSH2 0x1E3 JUMPI PUSH1 0x0 CALLDATASIZE PUSH1 0x3 NOT ADD SLT PUSH2 0x1E3 JUMPI PUSH1 0x3 SLOAD PUSH2 0x3549 DUP2 PUSH2 0x3CB7 JUMP JUMPDEST SWAP1 PUSH2 0x3557 PUSH1 0x40 MLOAD SWAP3 DUP4 PUSH2 0x3A5A JUMP JUMPDEST DUP1 DUP3 MSTORE PUSH1 0x20 DUP3 ADD SWAP1 DUP2 PUSH1 0x3 PUSH1 0x0 MSTORE PUSH32 0xC2575A0E9E593C00F959F8C92F12DB2869C3395A3B0502D05E2516446F71F85B PUSH1 0x0 SWAP2 JUMPDEST DUP4 DUP4 LT PUSH2 0x3664 JUMPI DUP5 DUP7 PUSH1 0x40 MLOAD SWAP2 DUP3 SWAP2 PUSH1 0x20 DUP4 ADD SWAP1 PUSH1 0x20 DUP5 MSTORE MLOAD DUP1 SWAP2 MSTORE PUSH1 0x40 DUP4 ADD SWAP1 PUSH1 0x40 DUP2 PUSH1 0x5 SHL DUP6 ADD ADD SWAP3 SWAP2 PUSH1 0x0 SWAP1 JUMPDEST DUP3 DUP3 LT PUSH2 0x35C9 JUMPI POP POP POP POP SUB SWAP1 RETURN JUMPDEST SWAP2 SWAP4 PUSH1 0x1 SWAP2 SWAP4 SWAP6 POP PUSH1 0x20 PUSH2 0x3654 DUP2 SWAP3 PUSH1 0x3F NOT DUP11 DUP3 SUB ADD DUP7 MSTORE DUP9 MLOAD SWAP1 PUSH1 0xA0 PUSH2 0x3643 PUSH2 0x3624 PUSH2 0x3612 PUSH2 0x3602 DUP7 MLOAD PUSH1 0xC0 DUP8 MSTORE PUSH1 0xC0 DUP8 ADD SWAP1 PUSH2 0x385B JUMP JUMPDEST DUP9 DUP8 ADD MLOAD DUP7 DUP3 SUB DUP11 DUP9 ADD MSTORE PUSH2 0x385B JUMP JUMPDEST PUSH1 0x40 DUP7 ADD MLOAD DUP6 DUP3 SUB PUSH1 0x40 DUP8 ADD MSTORE PUSH2 0x385B JUMP JUMPDEST PUSH1 0xFF PUSH1 0x60 DUP7 ADD MLOAD AND PUSH1 0x60 DUP6 ADD MSTORE PUSH1 0x80 DUP6 ADD MLOAD DUP5 DUP3 SUB PUSH1 0x80 DUP7 ADD MSTORE PUSH2 0x385B JUMP JUMPDEST SWAP3 ADD MLOAD SWAP1 PUSH1 0xA0 DUP2 DUP5 SUB SWAP2 ADD MSTORE PUSH2 0x3880 JUMP JUMPDEST SWAP7 ADD SWAP3 ADD SWAP3 ADD DUP6 SWAP5 SWAP4 SWAP2 SWAP3 PUSH2 0x35BA JUMP JUMPDEST PUSH1 0x6 PUSH1 0x20 PUSH1 0x1 SWAP3 PUSH1 0x40 MLOAD PUSH2 0x3677 DUP2 PUSH2 0x3A07 JUMP JUMPDEST PUSH1 0x40 MLOAD PUSH2 0x3688 DUP2 PUSH2 0x1C4 DUP2 DUP11 PUSH2 0x3984 JUMP JUMPDEST DUP2 MSTORE PUSH1 0x40 MLOAD PUSH2 0x369D DUP2 PUSH2 0x1C4 DUP2 DUP10 DUP12 ADD PUSH2 0x3984 JUMP JUMPDEST DUP4 DUP3 ADD MSTORE PUSH1 0x40 MLOAD PUSH2 0x36B5 DUP2 PUSH2 0x1C4 DUP2 PUSH1 0x2 DUP12 ADD PUSH2 0x3984 JUMP JUMPDEST PUSH1 0x40 DUP3 ADD MSTORE PUSH1 0xFF PUSH1 0x3 DUP8 ADD SLOAD AND PUSH1 0x60 DUP3 ADD MSTORE PUSH1 0x40 MLOAD PUSH2 0x36DB DUP2 PUSH2 0x1C4 DUP2 PUSH1 0x4 DUP12 ADD PUSH2 0x3984 JUMP JUMPDEST PUSH1 0x80 DUP3 ADD MSTORE PUSH2 0x36EC PUSH1 0x5 DUP8 ADD PUSH2 0x3ED1 JUMP JUMPDEST PUSH1 0xA0 DUP3 ADD MSTORE DUP2 MSTORE ADD SWAP3 ADD SWAP3 ADD SWAP2 SWAP1 PUSH2 0x358A JUMP JUMPDEST CALLVALUE PUSH2 0x1E3 JUMPI PUSH1 0x20 CALLDATASIZE PUSH1 0x3 NOT ADD SLT PUSH2 0x1E3 JUMPI PUSH1 0x4 CALLDATALOAD PUSH1 0x4 SLOAD DUP2 LT ISZERO PUSH2 0x1E3 JUMPI PUSH1 0x0 PUSH1 0x4 SLOAD DUP3 LT ISZERO PUSH2 0x3747 JUMPI DUP1 PUSH1 0x4 PUSH1 0x20 SWAP3 MSTORE KECCAK256 SWAP1 PUSH1 0x3 SHL ADD PUSH1 0x40 MLOAD PUSH2 0x2493 DUP2 PUSH2 0x1C4 DUP2 DUP6 PUSH2 0x3984 JUMP JUMPDEST PUSH4 0x4E487B71 PUSH1 0xE0 SHL DUP2 MSTORE PUSH1 0x32 PUSH1 0x4 MSTORE PUSH1 0x24 SWAP1 REVERT JUMPDEST CALLVALUE PUSH2 0x1E3 JUMPI PUSH1 0x0 CALLDATASIZE PUSH1 0x3 NOT ADD SLT PUSH2 0x1E3 JUMPI PUSH1 0x3 SLOAD PUSH2 0x3778 DUP2 PUSH2 0x3D4C JUMP JUMPDEST PUSH2 0x3781 DUP3 PUSH2 0x3D4C JUMP JUMPDEST SWAP2 PUSH2 0x378B DUP2 PUSH2 0x3D96 JUMP JUMPDEST SWAP1 PUSH1 0x0 JUMPDEST DUP2 DUP2 LT PUSH2 0x37A8 JUMPI POP POP PUSH2 0x1DF SWAP1 PUSH1 0x40 MLOAD SWAP4 DUP5 SWAP4 DUP5 PUSH2 0x3910 JUMP JUMPDEST DUP1 PUSH1 0x1 PUSH2 0x37B8 PUSH2 0x35C DUP3 SWAP5 PUSH2 0x3C37 JUMP JUMPDEST PUSH2 0x37C2 DUP3 DUP8 PUSH2 0x3EBD JUMP JUMPDEST MSTORE PUSH2 0x37CD DUP2 DUP7 PUSH2 0x3EBD JUMP JUMPDEST POP PUSH1 0x2 PUSH2 0x37DC PUSH2 0x35C DUP4 PUSH2 0x3C37 JUMP JUMPDEST PUSH2 0x37E6 DUP3 DUP9 PUSH2 0x3EBD JUMP JUMPDEST MSTORE PUSH2 0x37F1 DUP2 DUP8 PUSH2 0x3EBD JUMP JUMPDEST POP PUSH1 0xFF PUSH1 0x3 PUSH2 0x37FF DUP4 PUSH2 0x3C37 JUMP JUMPDEST POP ADD SLOAD AND PUSH2 0x380D DUP3 DUP7 PUSH2 0x3EBD JUMP JUMPDEST MSTORE ADD PUSH2 0x378F JUMP JUMPDEST CALLVALUE PUSH2 0x1E3 JUMPI PUSH1 0x0 CALLDATASIZE PUSH1 0x3 NOT ADD SLT PUSH2 0x1E3 JUMPI PUSH1 0x0 SLOAD PUSH1 0x1 PUSH1 0x1 PUSH1 0xA0 SHL SUB AND DUP2 MSTORE PUSH1 0x20 SWAP1 RETURN JUMPDEST PUSH1 0x0 JUMPDEST DUP4 DUP2 LT PUSH2 0x384B JUMPI POP POP PUSH1 0x0 SWAP2 ADD MSTORE JUMP JUMPDEST DUP2 DUP2 ADD MLOAD DUP4 DUP3 ADD MSTORE PUSH1 0x20 ADD PUSH2 0x383B JUMP JUMPDEST SWAP1 PUSH1 0x20 SWAP2 PUSH2 0x3874 DUP2 MLOAD DUP1 SWAP3 DUP2 DUP6 MSTORE DUP6 DUP1 DUP7 ADD SWAP2 ADD PUSH2 0x3838 JUMP JUMPDEST PUSH1 0x1F ADD PUSH1 0x1F NOT AND ADD ADD SWAP1 JUMP JUMPDEST SWAP1 DUP1 PUSH1 0x20 DUP4 MLOAD SWAP2 DUP3 DUP2 MSTORE ADD SWAP2 PUSH1 0x20 DUP1 DUP4 PUSH1 0x5 SHL DUP4 ADD ADD SWAP5 ADD SWAP3 PUSH1 0x0 SWAP2 JUMPDEST DUP4 DUP4 LT PUSH2 0x38AC JUMPI POP POP POP POP POP SWAP1 JUMP JUMPDEST SWAP1 SWAP2 SWAP3 SWAP4 SWAP5 PUSH1 0x20 DUP1 PUSH2 0x38CA PUSH1 0x1 SWAP4 PUSH1 0x1F NOT DUP7 DUP3 SUB ADD DUP8 MSTORE DUP10 MLOAD PUSH2 0x385B JUMP JUMPDEST SWAP8 ADD SWAP4 ADD SWAP4 ADD SWAP2 SWAP4 SWAP3 SWAP1 PUSH2 0x389D JUMP JUMPDEST SWAP1 PUSH1 0x20 DUP1 DUP4 MLOAD SWAP3 DUP4 DUP2 MSTORE ADD SWAP3 ADD SWAP1 PUSH1 0x0 JUMPDEST DUP2 DUP2 LT PUSH2 0x38F7 JUMPI POP POP POP SWAP1 JUMP JUMPDEST DUP3 MLOAD PUSH1 0xFF AND DUP5 MSTORE PUSH1 0x20 SWAP4 DUP5 ADD SWAP4 SWAP1 SWAP3 ADD SWAP2 PUSH1 0x1 ADD PUSH2 0x38EA JUMP JUMPDEST SWAP2 PUSH2 0x3939 SWAP1 PUSH2 0x392B PUSH2 0x3947 SWAP6 SWAP4 PUSH1 0x60 DUP7 MSTORE PUSH1 0x60 DUP7 ADD SWAP1 PUSH2 0x3880 JUMP JUMPDEST SWAP1 DUP5 DUP3 SUB PUSH1 0x20 DUP7 ADD MSTORE PUSH2 0x3880 JUMP JUMPDEST SWAP2 PUSH1 0x40 DUP2 DUP5 SUB SWAP2 ADD MSTORE PUSH2 0x38D9 JUMP JUMPDEST SWAP1 JUMP JUMPDEST SWAP1 PUSH1 0x1 DUP3 DUP2 SHR SWAP3 AND DUP1 ISZERO PUSH2 0x397A JUMPI JUMPDEST PUSH1 0x20 DUP4 LT EQ PUSH2 0x3964 JUMPI JUMP JUMPDEST PUSH4 0x4E487B71 PUSH1 0xE0 SHL PUSH1 0x0 MSTORE PUSH1 0x22 PUSH1 0x4 MSTORE PUSH1 0x24 PUSH1 0x0 REVERT JUMPDEST SWAP2 PUSH1 0x7F AND SWAP2 PUSH2 0x3959 JUMP JUMPDEST PUSH1 0x0 SWAP3 SWAP2 DUP2 SLOAD SWAP2 PUSH2 0x3994 DUP4 PUSH2 0x394A JUMP JUMPDEST DUP1 DUP4 MSTORE SWAP3 PUSH1 0x1 DUP2 AND SWAP1 DUP2 ISZERO PUSH2 0x39EA JUMPI POP PUSH1 0x1 EQ PUSH2 0x39B0 JUMPI POP POP POP JUMP JUMPDEST PUSH1 0x0 SWAP1 DUP2 MSTORE PUSH1 0x20 DUP2 KECCAK256 SWAP4 SWAP5 POP SWAP2 SWAP3 JUMPDEST DUP4 DUP4 LT PUSH2 0x39D0 JUMPI POP PUSH1 0x20 SWAP3 POP ADD ADD SWAP1 JUMP JUMPDEST PUSH1 0x1 DUP2 PUSH1 0x20 SWAP3 SWAP5 SWAP4 SWAP5 SLOAD DUP4 DUP6 DUP8 ADD ADD MSTORE ADD SWAP2 ADD SWAP2 SWAP1 PUSH2 0x39BF JUMP JUMPDEST SWAP2 POP POP PUSH1 0x20 SWAP4 SWAP5 POP PUSH1 0xFF SWAP3 SWAP2 SWAP3 NOT AND DUP4 DUP4 ADD MSTORE ISZERO ISZERO PUSH1 0x5 SHL ADD ADD SWAP1 JUMP JUMPDEST PUSH1 0xC0 DUP2 ADD SWAP1 DUP2 LT PUSH1 0x1 PUSH1 0x1 PUSH1 0x40 SHL SUB DUP3 GT OR PUSH2 0xF03 JUMPI PUSH1 0x40 MSTORE JUMP JUMPDEST PUSH2 0x160 DUP2 ADD SWAP1 DUP2 LT PUSH1 0x1 PUSH1 0x1 PUSH1 0x40 SHL SUB DUP3 GT OR PUSH2 0xF03 JUMPI PUSH1 0x40 MSTORE JUMP JUMPDEST PUSH2 0x120 DUP2 ADD SWAP1 DUP2 LT PUSH1 0x1 PUSH1 0x1 PUSH1 0x40 SHL SUB DUP3 GT OR PUSH2 0xF03 JUMPI PUSH1 0x40 MSTORE JUMP JUMPDEST SWAP1 PUSH1 0x1F DUP1 NOT SWAP2 ADD AND DUP2 ADD SWAP1 DUP2 LT PUSH1 0x1 PUSH1 0x1 PUSH1 0x40 SHL SUB DUP3 GT OR PUSH2 0xF03 JUMPI PUSH1 0x40 MSTORE JUMP JUMPDEST PUSH1 0x3 GT ISZERO PUSH2 0x2D4D JUMPI JUMP JUMPDEST SWAP5 SWAP1 PUSH2 0x3ACB PUSH2 0x3ADF SWAP5 PUSH2 0x3ABD PUSH1 0xE0 SWAP10 SWAP13 SWAP12 SWAP11 SWAP8 SWAP6 PUSH2 0x3AAF PUSH1 0xFF SWAP6 PUSH2 0x100 DUP13 MSTORE PUSH2 0x100 DUP13 ADD SWAP1 PUSH2 0x385B JUMP JUMPDEST SWAP1 DUP11 DUP3 SUB PUSH1 0x20 DUP13 ADD MSTORE PUSH2 0x385B JUMP JUMPDEST SWAP1 DUP9 DUP3 SUB PUSH1 0x40 DUP11 ADD MSTORE PUSH2 0x385B JUMP JUMPDEST SWAP3 AND PUSH1 0x60 DUP7 ADD MSTORE DUP5 DUP3 SUB PUSH1 0x80 DUP7 ADD MSTORE PUSH2 0x385B JUMP JUMPDEST PUSH1 0x1 PUSH1 0x1 PUSH1 0xA0 SHL SUB SWAP1 SWAP7 AND PUSH1 0xA0 DUP4 ADD MSTORE PUSH2 0x3AF8 DUP2 PUSH2 0x3A7B JUMP JUMPDEST PUSH1 0xC0 DUP3 ADD MSTORE ADD MSTORE JUMP JUMPDEST DUP2 PUSH1 0x1F DUP3 ADD SLT ISZERO PUSH2 0x1E3 JUMPI DUP1 CALLDATALOAD SWAP1 PUSH1 0x1 PUSH1 0x1 PUSH1 0x40 SHL SUB DUP3 GT PUSH2 0xF03 JUMPI PUSH1 0x40 MLOAD SWAP3 PUSH2 0x3B35 PUSH1 0x1F DUP5 ADD PUSH1 0x1F NOT AND PUSH1 0x20 ADD DUP6 PUSH2 0x3A5A JUMP JUMPDEST DUP3 DUP5 MSTORE PUSH1 0x20 DUP4 DUP4 ADD ADD GT PUSH2 0x1E3 JUMPI DUP2 PUSH1 0x0 SWAP3 PUSH1 0x20 DUP1 SWAP4 ADD DUP4 DUP7 ADD CALLDATACOPY DUP4 ADD ADD MSTORE SWAP1 JUMP JUMPDEST SWAP1 PUSH1 0x2 DUP3 LT ISZERO PUSH2 0x2D4D JUMPI MSTORE JUMP JUMPDEST SWAP6 SWAP3 SWAP4 PUSH2 0x3BAD PUSH2 0x3947 SWAP11 SWAP9 SWAP6 PUSH2 0x3B9F PUSH2 0x3BC6 SWAP6 PUSH2 0x3B91 PUSH2 0x3BBB SWAP7 SWAP14 SWAP11 SWAP14 PUSH2 0x120 DUP14 MSTORE PUSH2 0x120 DUP14 ADD SWAP1 PUSH2 0x385B JUMP JUMPDEST SWAP1 DUP12 DUP3 SUB PUSH1 0x20 DUP14 ADD MSTORE PUSH2 0x385B JUMP JUMPDEST SWAP1 DUP10 DUP3 SUB PUSH1 0x40 DUP12 ADD MSTORE PUSH2 0x385B JUMP JUMPDEST SWAP1 DUP8 DUP3 SUB PUSH1 0x60 DUP10 ADD MSTORE PUSH2 0x385B JUMP JUMPDEST SWAP7 PUSH1 0x80 DUP7 ADD SWAP1 PUSH2 0x3B57 JUMP JUMPDEST PUSH2 0x3BCF DUP2 PUSH2 0x3A7B JUMP JUMPDEST PUSH1 0xA0 DUP5 ADD MSTORE PUSH1 0xC0 DUP4 ADD MSTORE PUSH1 0xE0 DUP3 ADD MSTORE PUSH2 0x100 DUP2 DUP5 SUB SWAP2 ADD MSTORE PUSH2 0x385B JUMP JUMPDEST PUSH1 0x84 CALLDATALOAD SWAP1 PUSH1 0x1 PUSH1 0x1 PUSH1 0xA0 SHL SUB DUP3 AND DUP3 SUB PUSH2 0x1E3 JUMPI JUMP JUMPDEST PUSH1 0x2 SLOAD DUP2 LT ISZERO PUSH2 0x3C21 JUMPI PUSH1 0x2 PUSH1 0x0 MSTORE PUSH1 0xA PUSH1 0x20 PUSH1 0x0 KECCAK256 SWAP2 MUL ADD SWAP1 PUSH1 0x0 SWAP1 JUMP JUMPDEST PUSH4 0x4E487B71 PUSH1 0xE0 SHL PUSH1 0x0 MSTORE PUSH1 0x32 PUSH1 0x4 MSTORE PUSH1 0x24 PUSH1 0x0 REVERT JUMPDEST PUSH1 0x3 SLOAD DUP2 LT ISZERO PUSH2 0x3C21 JUMPI PUSH1 0x3 PUSH1 0x0 MSTORE PUSH1 0x6 PUSH1 0x20 PUSH1 0x0 KECCAK256 SWAP2 MUL ADD SWAP1 PUSH1 0x0 SWAP1 JUMP JUMPDEST SWAP2 PUSH2 0x3947 SWAP6 SWAP4 PUSH2 0x3C85 PUSH2 0x3C93 SWAP3 PUSH2 0x3C77 PUSH1 0xFF SWAP6 PUSH1 0xA0 DUP9 MSTORE PUSH1 0xA0 DUP9 ADD SWAP1 PUSH2 0x385B JUMP JUMPDEST SWAP1 DUP7 DUP3 SUB PUSH1 0x20 DUP9 ADD MSTORE PUSH2 0x385B JUMP JUMPDEST SWAP1 DUP5 DUP3 SUB PUSH1 0x40 DUP7 ADD MSTORE PUSH2 0x385B JUMP JUMPDEST SWAP4 AND PUSH1 0x60 DUP3 ADD MSTORE PUSH1 0x80 DUP2 DUP5 SUB SWAP2 ADD MSTORE PUSH2 0x385B JUMP JUMPDEST PUSH1 0x64 CALLDATALOAD SWAP1 PUSH1 0xFF DUP3 AND DUP3 SUB PUSH2 0x1E3 JUMPI JUMP JUMPDEST PUSH1 0x1 PUSH1 0x1 PUSH1 0x40 SHL SUB DUP2 GT PUSH2 0xF03 JUMPI PUSH1 0x5 SHL PUSH1 0x20 ADD SWAP1 JUMP JUMPDEST SWAP1 DUP1 PUSH1 0x1F DUP4 ADD SLT ISZERO PUSH2 0x1E3 JUMPI DUP2 CALLDATALOAD PUSH2 0x3CE5 DUP2 PUSH2 0x3CB7 JUMP JUMPDEST SWAP3 PUSH2 0x3CF3 PUSH1 0x40 MLOAD SWAP5 DUP6 PUSH2 0x3A5A JUMP JUMPDEST DUP2 DUP5 MSTORE PUSH1 0x20 DUP1 DUP6 ADD SWAP3 PUSH1 0x5 SHL DUP3 ADD ADD SWAP2 DUP4 DUP4 GT PUSH2 0x1E3 JUMPI PUSH1 0x20 DUP3 ADD SWAP1 JUMPDEST DUP4 DUP3 LT PUSH2 0x3D1F JUMPI POP POP POP POP POP SWAP1 JUMP JUMPDEST DUP2 CALLDATALOAD PUSH1 0x1 PUSH1 0x1 PUSH1 0x40 SHL SUB DUP2 GT PUSH2 0x1E3 JUMPI PUSH1 0x20 SWAP2 PUSH2 0x3D41 DUP8 DUP5 DUP1 SWAP5 DUP9 ADD ADD PUSH2 0x3B01 JUMP JUMPDEST DUP2 MSTORE ADD SWAP2 ADD SWAP1 PUSH2 0x3D10 JUMP JUMPDEST SWAP1 PUSH2 0x3D56 DUP3 PUSH2 0x3CB7 JUMP JUMPDEST PUSH2 0x3D63 PUSH1 0x40 MLOAD SWAP2 DUP3 PUSH2 0x3A5A JUMP JUMPDEST DUP3 DUP2 MSTORE DUP1 SWAP3 PUSH2 0x3D74 PUSH1 0x1F NOT SWAP2 PUSH2 0x3CB7 JUMP JUMPDEST ADD SWAP1 PUSH1 0x0 JUMPDEST DUP3 DUP2 LT PUSH2 0x3D85 JUMPI POP POP POP JUMP JUMPDEST DUP1 PUSH1 0x60 PUSH1 0x20 DUP1 SWAP4 DUP6 ADD ADD MSTORE ADD PUSH2 0x3D79 JUMP JUMPDEST SWAP1 PUSH2 0x3DA0 DUP3 PUSH2 0x3CB7 JUMP JUMPDEST PUSH2 0x3DAD PUSH1 0x40 MLOAD SWAP2 DUP3 PUSH2 0x3A5A JUMP JUMPDEST DUP3 DUP2 MSTORE DUP1 SWAP3 PUSH2 0x3DBE PUSH1 0x1F NOT SWAP2 PUSH2 0x3CB7 JUMP JUMPDEST ADD SWAP1 PUSH1 0x20 CALLDATASIZE SWAP2 ADD CALLDATACOPY JUMP JUMPDEST DUP1 MLOAD ISZERO PUSH2 0x3C21 JUMPI PUSH1 0x20 ADD SWAP1 JUMP JUMPDEST DUP1 MLOAD PUSH1 0x1 LT ISZERO PUSH2 0x3C21 JUMPI PUSH1 0x40 ADD SWAP1 JUMP JUMPDEST DUP1 MLOAD PUSH1 0x2 LT ISZERO PUSH2 0x3C21 JUMPI PUSH1 0x60 ADD SWAP1 JUMP JUMPDEST DUP1 MLOAD PUSH1 0x3 LT ISZERO PUSH2 0x3C21 JUMPI PUSH1 0x80 ADD SWAP1 JUMP JUMPDEST DUP1 MLOAD PUSH1 0x4 LT ISZERO PUSH2 0x3C21 JUMPI PUSH1 0xA0 ADD SWAP1 JUMP JUMPDEST DUP1 MLOAD PUSH1 0x5 LT ISZERO PUSH2 0x3C21 JUMPI PUSH1 0xC0 ADD SWAP1 JUMP JUMPDEST DUP1 MLOAD PUSH1 0x6 LT ISZERO PUSH2 0x3C21 JUMPI PUSH1 0xE0 ADD SWAP1 JUMP JUMPDEST DUP1 MLOAD PUSH1 0x7 LT ISZERO PUSH2 0x3C21 JUMPI PUSH2 0x100 ADD SWAP1 JUMP JUMPDEST DUP1 MLOAD PUSH1 0x8 LT ISZERO PUSH2 0x3C21 JUMPI PUSH2 0x120 ADD SWAP1 JUMP JUMPDEST DUP1 MLOAD PUSH1 0x9 LT ISZERO PUSH2 0x3C21 JUMPI PUSH2 0x140 ADD SWAP1 JUMP JUMPDEST DUP1 MLOAD PUSH1 0xA LT ISZERO PUSH2 0x3C21 JUMPI PUSH2 0x160 ADD SWAP1 JUMP JUMPDEST DUP1 MLOAD PUSH1 0xB LT ISZERO PUSH2 0x3C21 JUMPI PUSH2 0x180 ADD SWAP1 JUMP JUMPDEST DUP1 MLOAD PUSH1 0xC LT ISZERO PUSH2 0x3C21 JUMPI PUSH2 0x1A0 ADD SWAP1 JUMP JUMPDEST DUP1 MLOAD PUSH1 0xD LT ISZERO PUSH2 0x3C21 JUMPI PUSH2 0x1C0 ADD SWAP1 JUMP JUMPDEST DUP1 MLOAD PUSH1 0xE LT ISZERO PUSH2 0x3C21 JUMPI PUSH2 0x1E0 ADD SWAP1 JUMP JUMPDEST DUP1 MLOAD DUP3 LT ISZERO PUSH2 0x3C21 JUMPI PUSH1 0x20 SWAP2 PUSH1 0x5 SHL ADD ADD SWAP1 JUMP JUMPDEST SWAP1 DUP2 SLOAD PUSH2 0x3EDD DUP2 PUSH2 0x3CB7 JUMP JUMPDEST SWAP3 PUSH2 0x3EEB PUSH1 0x40 MLOAD SWAP5 DUP6 PUSH2 0x3A5A JUMP JUMPDEST DUP2 DUP5 MSTORE PUSH1 0x20 DUP5 ADD SWAP1 PUSH1 0x0 MSTORE PUSH1 0x20 PUSH1 0x0 KECCAK256 PUSH1 0x0 SWAP2 JUMPDEST DUP4 DUP4 LT PUSH2 0x3F0C JUMPI POP POP POP POP JUMP JUMPDEST PUSH1 0x1 PUSH1 0x20 DUP2 SWAP3 PUSH1 0x40 MLOAD PUSH2 0x3F23 DUP2 PUSH2 0x1C4 DUP2 DUP10 PUSH2 0x3984 JUMP JUMPDEST DUP2 MSTORE ADD SWAP3 ADD SWAP3 ADD SWAP2 SWAP1 PUSH2 0x3EFF JUMP JUMPDEST PUSH1 0x0 SWAP3 SWAP2 DUP2 SLOAD SWAP2 PUSH2 0x3F41 DUP4 PUSH2 0x394A JUMP JUMPDEST SWAP3 PUSH1 0x1 DUP2 AND SWAP1 DUP2 ISZERO PUSH2 0x3F8C JUMPI POP PUSH1 0x1 EQ PUSH2 0x3F5A JUMPI POP POP POP JUMP JUMPDEST SWAP1 SWAP2 SWAP3 SWAP4 POP PUSH1 0x0 MSTORE PUSH1 0x20 PUSH1 0x0 KECCAK256 PUSH1 0x0 SWAP1 JUMPDEST DUP4 DUP3 LT PUSH2 0x3F78 JUMPI POP POP ADD SWAP1 JUMP JUMPDEST PUSH1 0x1 DUP2 PUSH1 0x20 SWAP3 SLOAD DUP5 DUP7 ADD MSTORE ADD SWAP2 ADD SWAP1 PUSH2 0x3F6B JUMP JUMPDEST PUSH1 0xFF NOT AND DUP4 MSTORE POP POP DUP2 ISZERO ISZERO SWAP1 SWAP2 MUL ADD SWAP2 POP JUMP JUMPDEST PUSH1 0x0 NOT DUP2 EQ PUSH2 0x3FAE JUMPI PUSH1 0x1 ADD SWAP1 JUMP JUMPDEST PUSH4 0x4E487B71 PUSH1 0xE0 SHL PUSH1 0x0 MSTORE PUSH1 0x11 PUSH1 0x4 MSTORE PUSH1 0x24 PUSH1 0x0 REVERT JUMPDEST ISZERO PUSH2 0x3FCB JUMPI JUMP JUMPDEST PUSH1 0x40 MLOAD PUSH3 0x461BCD PUSH1 0xE5 SHL DUP2 MSTORE PUSH1 0x20 PUSH1 0x4 DUP3 ADD MSTORE PUSH1 0x1B PUSH1 0x24 DUP3 ADD MSTORE PUSH32 0x4E6F206461746120666F756E64207769746820746869732049442E0000000000 PUSH1 0x44 DUP3 ADD MSTORE PUSH1 0x64 SWAP1 REVERT JUMPDEST PUSH1 0x2 DUP3 LT ISZERO PUSH2 0x2D4D JUMPI MSTORE JUMP JUMPDEST DUP2 DUP2 LT PUSH2 0x4027 JUMPI POP POP JUMP JUMPDEST PUSH1 0x0 DUP2 SSTORE PUSH1 0x1 ADD PUSH2 0x401C JUMP JUMPDEST SWAP1 DUP2 PUSH1 0x20 SWAP2 SUB SLT PUSH2 0x1E3 JUMPI MLOAD DUP1 ISZERO ISZERO DUP2 SUB PUSH2 0x1E3 JUMPI SWAP1 JUMP JUMPDEST ISZERO PUSH2 0x4052 JUMPI JUMP JUMPDEST PUSH1 0x40 MLOAD PUSH3 0x461BCD PUSH1 0xE5 SHL DUP2 MSTORE PUSH1 0x20 PUSH1 0x4 DUP3 ADD MSTORE PUSH1 0x19 PUSH1 0x24 DUP3 ADD MSTORE PUSH32 0x4D696E696D756D206F72646572206973203530206F6261742E00000000000000 PUSH1 0x44 DUP3 ADD MSTORE PUSH1 0x64 SWAP1 REVERT JUMPDEST SWAP2 SWAP1 DUP1 MLOAD SWAP3 DUP4 MLOAD PUSH1 0x1 PUSH1 0x1 PUSH1 0x40 SHL SUB DUP2 GT PUSH2 0xF03 JUMPI PUSH2 0x40B6 DUP3 SLOAD PUSH2 0x394A JUMP JUMPDEST PUSH1 0x1F DUP2 GT PUSH2 0x469A JUMPI JUMPDEST POP PUSH1 0x20 SWAP5 PUSH1 0x1F DUP3 GT PUSH1 0x1 EQ PUSH2 0x4635 JUMPI PUSH2 0x40F3 SWAP3 SWAP4 SWAP5 SWAP6 DUP3 SWAP2 PUSH1 0x0 SWAP3 PUSH2 0x1755 JUMPI POP POP DUP2 PUSH1 0x1 SHL SWAP2 PUSH1 0x0 NOT SWAP1 PUSH1 0x3 SHL SHR NOT AND OR SWAP1 JUMP JUMPDEST DUP2 SSTORE JUMPDEST PUSH1 0x1 DUP2 ADD PUSH1 0x20 DUP4 ADD MLOAD DUP1 MLOAD SWAP1 PUSH1 0x1 PUSH1 0x1 PUSH1 0x40 SHL SUB DUP3 GT PUSH2 0xF03 JUMPI PUSH2 0x411A DUP4 SLOAD PUSH2 0x394A JUMP JUMPDEST PUSH1 0x1F DUP2 GT PUSH2 0x4603 JUMPI JUMPDEST POP PUSH1 0x20 SWAP1 PUSH1 0x1F DUP4 GT PUSH1 0x1 EQ PUSH2 0x459C JUMPI PUSH2 0x4154 SWAP3 SWAP2 PUSH1 0x0 SWAP2 DUP4 PUSH2 0x1755 JUMPI POP POP DUP2 PUSH1 0x1 SHL SWAP2 PUSH1 0x0 NOT SWAP1 PUSH1 0x3 SHL SHR NOT AND OR SWAP1 JUMP JUMPDEST SWAP1 SSTORE JUMPDEST PUSH1 0x2 DUP2 ADD PUSH1 0x40 DUP4 ADD MLOAD DUP1 MLOAD SWAP1 PUSH1 0x1 PUSH1 0x1 PUSH1 0x40 SHL SUB DUP3 GT PUSH2 0xF03 JUMPI PUSH2 0x417B DUP4 SLOAD PUSH2 0x394A JUMP JUMPDEST PUSH1 0x1F DUP2 GT PUSH2 0x456A JUMPI JUMPDEST POP PUSH1 0x20 SWAP1 PUSH1 0x1F DUP4 GT PUSH1 0x1 EQ PUSH2 0x4503 JUMPI PUSH2 0x41B5 SWAP3 SWAP2 PUSH1 0x0 SWAP2 DUP4 PUSH2 0x1755 JUMPI POP POP DUP2 PUSH1 0x1 SHL SWAP2 PUSH1 0x0 NOT SWAP1 PUSH1 0x3 SHL SHR NOT AND OR SWAP1 JUMP JUMPDEST SWAP1 SSTORE JUMPDEST PUSH1 0xFF PUSH1 0x60 DUP4 ADD MLOAD AND PUSH1 0xFF PUSH1 0x3 DUP4 ADD SWAP2 AND PUSH1 0xFF NOT DUP3 SLOAD AND OR SWAP1 SSTORE PUSH1 0x4 DUP2 ADD PUSH1 0x80 DUP4 ADD MLOAD DUP1 MLOAD SWAP1 PUSH1 0x1 PUSH1 0x1 PUSH1 0x40 SHL SUB DUP3 GT PUSH2 0xF03 JUMPI PUSH2 0x41F5 DUP4 SLOAD PUSH2 0x394A JUMP JUMPDEST PUSH1 0x1F DUP2 GT PUSH2 0x44D1 JUMPI JUMPDEST POP PUSH1 0x20 SWAP1 PUSH1 0x1F DUP4 GT PUSH1 0x1 EQ PUSH2 0x4463 JUMPI DUP3 PUSH2 0x100 SWAP6 SWAP4 PUSH1 0x7 SWAP6 SWAP4 PUSH2 0x4237 SWAP4 PUSH1 0x0 SWAP3 PUSH2 0x1755 JUMPI POP POP DUP2 PUSH1 0x1 SHL SWAP2 PUSH1 0x0 NOT SWAP1 PUSH1 0x3 SHL SHR NOT AND OR SWAP1 JUMP JUMPDEST SWAP1 SSTORE JUMPDEST PUSH1 0xA0 DUP5 ADD MLOAD PUSH1 0x5 DUP3 ADD DUP1 SLOAD PUSH1 0x1 PUSH1 0x1 PUSH1 0xA0 SHL SUB NOT AND PUSH1 0x1 PUSH1 0x1 PUSH1 0xA0 SHL SUB SWAP3 SWAP1 SWAP3 AND SWAP2 SWAP1 SWAP2 OR DUP2 SSTORE PUSH1 0xC0 DUP6 ADD MLOAD PUSH2 0x426F DUP2 PUSH2 0x3A7B JUMP JUMPDEST PUSH2 0x4278 DUP2 PUSH2 0x3A7B JUMP JUMPDEST DUP2 SLOAD SWAP1 PUSH1 0xFF PUSH1 0xA0 SHL SWAP1 PUSH1 0xA0 SHL AND SWAP1 PUSH1 0xFF PUSH1 0xA0 SHL NOT AND OR SWAP1 SSTORE PUSH1 0xE0 DUP5 ADD MLOAD PUSH1 0x6 DUP3 ADD SSTORE ADD SWAP2 ADD MLOAD DUP1 MLOAD SWAP1 PUSH1 0x1 PUSH1 0x40 SHL DUP3 GT PUSH2 0xF03 JUMPI DUP3 SLOAD DUP3 DUP5 SSTORE DUP1 DUP4 LT PUSH2 0x43E5 JUMPI JUMPDEST POP PUSH1 0x20 ADD SWAP2 PUSH1 0x0 MSTORE PUSH1 0x20 PUSH1 0x0 KECCAK256 SWAP2 PUSH1 0x0 SWAP1 JUMPDEST DUP3 DUP3 LT PUSH2 0x42D8 JUMPI POP POP POP POP JUMP JUMPDEST DUP1 MLOAD DUP1 MLOAD SWAP1 PUSH1 0x1 PUSH1 0x1 PUSH1 0x40 SHL SUB DUP3 GT PUSH2 0xF03 JUMPI PUSH2 0x42F5 DUP7 SLOAD PUSH2 0x394A JUMP JUMPDEST PUSH1 0x1F DUP2 GT PUSH2 0x43B3 JUMPI JUMPDEST POP PUSH1 0x20 SWAP1 PUSH1 0x1F DUP4 GT PUSH1 0x1 EQ PUSH2 0x4346 JUMPI SWAP3 PUSH2 0x4337 DUP4 PUSH1 0x1 SWAP6 SWAP5 PUSH1 0x20 SWAP5 DUP8 SWAP7 PUSH1 0x0 SWAP3 PUSH2 0x1755 JUMPI POP POP DUP2 PUSH1 0x1 SHL SWAP2 PUSH1 0x0 NOT SWAP1 PUSH1 0x3 SHL SHR NOT AND OR SWAP1 JUMP JUMPDEST DUP8 SSTORE JUMPDEST ADD SWAP5 ADD SWAP2 ADD SWAP1 SWAP3 PUSH2 0x42CB JUMP JUMPDEST SWAP1 PUSH1 0x1F NOT DUP4 AND SWAP2 DUP8 PUSH1 0x0 MSTORE DUP2 PUSH1 0x0 KECCAK256 SWAP3 PUSH1 0x0 JUMPDEST DUP2 DUP2 LT PUSH2 0x439B JUMPI POP SWAP4 PUSH1 0x20 SWAP4 PUSH1 0x1 SWAP7 SWAP4 DUP8 SWAP7 SWAP4 DUP4 DUP9 SWAP6 LT PUSH2 0x4382 JUMPI JUMPDEST POP POP POP DUP2 SHL ADD DUP8 SSTORE PUSH2 0x433A JUMP JUMPDEST ADD MLOAD PUSH1 0x0 NOT PUSH1 0xF8 DUP5 PUSH1 0x3 SHL AND SHR NOT AND SWAP1 SSTORE CODESIZE DUP1 DUP1 PUSH2 0x4375 JUMP JUMPDEST SWAP3 SWAP4 PUSH1 0x20 PUSH1 0x1 DUP2 SWAP3 DUP8 DUP7 ADD MLOAD DUP2 SSTORE ADD SWAP6 ADD SWAP4 ADD PUSH2 0x4359 JUMP JUMPDEST PUSH2 0x43DF SWAP1 DUP8 PUSH1 0x0 MSTORE PUSH1 0x20 PUSH1 0x0 KECCAK256 PUSH1 0x1F DUP6 ADD PUSH1 0x5 SHR DUP2 ADD SWAP2 PUSH1 0x20 DUP7 LT PUSH2 0xFBB JUMPI PUSH1 0x1F ADD PUSH1 0x5 SHR ADD SWAP1 PUSH2 0x401C JUMP JUMPDEST CODESIZE PUSH2 0x42FE JUMP JUMPDEST DUP4 PUSH1 0x0 MSTORE DUP3 PUSH1 0x20 PUSH1 0x0 KECCAK256 SWAP2 DUP3 ADD SWAP2 ADD JUMPDEST DUP2 DUP2 LT PUSH2 0x4402 JUMPI POP PUSH2 0x42B9 JUMP JUMPDEST DUP1 PUSH2 0x440F PUSH1 0x1 SWAP3 SLOAD PUSH2 0x394A JUMP JUMPDEST DUP1 PUSH2 0x441C JUMPI JUMPDEST POP ADD PUSH2 0x43F5 JUMP JUMPDEST PUSH1 0x1F DUP2 GT DUP4 EQ PUSH2 0x4432 JUMPI POP PUSH1 0x0 DUP2 SSTORE JUMPDEST CODESIZE PUSH2 0x4415 JUMP JUMPDEST PUSH2 0x4450 SWAP1 DUP3 PUSH1 0x0 MSTORE DUP4 PUSH1 0x1F PUSH1 0x20 PUSH1 0x0 KECCAK256 SWAP3 ADD PUSH1 0x5 SHR DUP3 ADD SWAP2 ADD PUSH2 0x401C JUMP JUMPDEST DUP1 PUSH1 0x0 MSTORE PUSH1 0x0 PUSH1 0x20 DUP2 KECCAK256 DUP2 DUP4 SSTORE SSTORE PUSH2 0x442C JUMP JUMPDEST SWAP1 PUSH1 0x1F NOT DUP4 AND SWAP2 DUP5 PUSH1 0x0 MSTORE DUP2 PUSH1 0x0 KECCAK256 SWAP3 PUSH1 0x0 JUMPDEST DUP2 DUP2 LT PUSH2 0x44B9 JUMPI POP SWAP3 PUSH1 0x1 SWAP3 DUP6 SWAP3 PUSH2 0x100 SWAP9 SWAP7 PUSH1 0x7 SWAP9 SWAP7 LT PUSH2 0x44A0 JUMPI JUMPDEST POP POP POP DUP2 SHL ADD SWAP1 SSTORE PUSH2 0x423A JUMP JUMPDEST ADD MLOAD PUSH1 0x0 NOT PUSH1 0xF8 DUP5 PUSH1 0x3 SHL AND SHR NOT AND SWAP1 SSTORE CODESIZE DUP1 DUP1 PUSH2 0x4493 JUMP JUMPDEST SWAP3 SWAP4 PUSH1 0x20 PUSH1 0x1 DUP2 SWAP3 DUP8 DUP7 ADD MLOAD DUP2 SSTORE ADD SWAP6 ADD SWAP4 ADD PUSH2 0x4476 JUMP JUMPDEST PUSH2 0x44FD SWAP1 DUP5 PUSH1 0x0 MSTORE PUSH1 0x20 PUSH1 0x0 KECCAK256 PUSH1 0x1F DUP6 ADD PUSH1 0x5 SHR DUP2 ADD SWAP2 PUSH1 0x20 DUP7 LT PUSH2 0xFBB JUMPI PUSH1 0x1F ADD PUSH1 0x5 SHR ADD SWAP1 PUSH2 0x401C JUMP JUMPDEST CODESIZE PUSH2 0x41FE JUMP JUMPDEST SWAP1 PUSH1 0x1F NOT DUP4 AND SWAP2 DUP5 PUSH1 0x0 MSTORE DUP2 PUSH1 0x0 KECCAK256 SWAP3 PUSH1 0x0 JUMPDEST DUP2 DUP2 LT PUSH2 0x4552 JUMPI POP SWAP1 DUP5 PUSH1 0x1 SWAP6 SWAP5 SWAP4 SWAP3 LT PUSH2 0x4539 JUMPI JUMPDEST POP POP POP DUP2 SHL ADD SWAP1 SSTORE PUSH2 0x41B8 JUMP JUMPDEST ADD MLOAD PUSH1 0x0 NOT PUSH1 0xF8 DUP5 PUSH1 0x3 SHL AND SHR NOT AND SWAP1 SSTORE CODESIZE DUP1 DUP1 PUSH2 0x452C JUMP JUMPDEST SWAP3 SWAP4 PUSH1 0x20 PUSH1 0x1 DUP2 SWAP3 DUP8 DUP7 ADD MLOAD DUP2 SSTORE ADD SWAP6 ADD SWAP4 ADD PUSH2 0x4516 JUMP JUMPDEST PUSH2 0x4596 SWAP1 DUP5 PUSH1 0x0 MSTORE PUSH1 0x20 PUSH1 0x0 KECCAK256 PUSH1 0x1F DUP6 ADD PUSH1 0x5 SHR DUP2 ADD SWAP2 PUSH1 0x20 DUP7 LT PUSH2 0xFBB JUMPI PUSH1 0x1F ADD PUSH1 0x5 SHR ADD SWAP1 PUSH2 0x401C JUMP JUMPDEST CODESIZE PUSH2 0x4184 JUMP JUMPDEST SWAP1 PUSH1 0x1F NOT DUP4 AND SWAP2 DUP5 PUSH1 0x0 MSTORE DUP2 PUSH1 0x0 KECCAK256 SWAP3 PUSH1 0x0 JUMPDEST DUP2 DUP2 LT PUSH2 0x45EB JUMPI POP SWAP1 DUP5 PUSH1 0x1 SWAP6 SWAP5 SWAP4 SWAP3 LT PUSH2 0x45D2 JUMPI JUMPDEST POP POP POP DUP2 SHL ADD SWAP1 SSTORE PUSH2 0x4157 JUMP JUMPDEST ADD MLOAD PUSH1 0x0 NOT PUSH1 0xF8 DUP5 PUSH1 0x3 SHL AND SHR NOT AND SWAP1 SSTORE CODESIZE DUP1 DUP1 PUSH2 0x45C5 JUMP JUMPDEST SWAP3 SWAP4 PUSH1 0x20 PUSH1 0x1 DUP2 SWAP3 DUP8 DUP7 ADD MLOAD DUP2 SSTORE ADD SWAP6 ADD SWAP4 ADD PUSH2 0x45AF JUMP JUMPDEST PUSH2 0x462F SWAP1 DUP5 PUSH1 0x0 MSTORE PUSH1 0x20 PUSH1 0x0 KECCAK256 PUSH1 0x1F DUP6 ADD PUSH1 0x5 SHR DUP2 ADD SWAP2 PUSH1 0x20 DUP7 LT PUSH2 0xFBB JUMPI PUSH1 0x1F ADD PUSH1 0x5 SHR ADD SWAP1 PUSH2 0x401C JUMP JUMPDEST CODESIZE PUSH2 0x4123 JUMP JUMPDEST PUSH1 0x1F NOT DUP3 AND SWAP6 DUP4 PUSH1 0x0 MSTORE DUP1 PUSH1 0x0 KECCAK256 SWAP2 PUSH1 0x0 JUMPDEST DUP9 DUP2 LT PUSH2 0x4682 JUMPI POP DUP4 PUSH1 0x1 SWAP6 SWAP7 SWAP8 SWAP9 LT PUSH2 0x4669 JUMPI JUMPDEST POP POP POP DUP2 SHL ADD DUP2 SSTORE PUSH2 0x40F6 JUMP JUMPDEST ADD MLOAD PUSH1 0x0 NOT PUSH1 0xF8 DUP5 PUSH1 0x3 SHL AND SHR NOT AND SWAP1 SSTORE CODESIZE DUP1 DUP1 PUSH2 0x465C JUMP JUMPDEST SWAP2 SWAP3 PUSH1 0x20 PUSH1 0x1 DUP2 SWAP3 DUP7 DUP6 ADD MLOAD DUP2 SSTORE ADD SWAP5 ADD SWAP3 ADD PUSH2 0x4647 JUMP JUMPDEST PUSH2 0x46C6 SWAP1 DUP4 PUSH1 0x0 MSTORE PUSH1 0x20 PUSH1 0x0 KECCAK256 PUSH1 0x1F DUP5 ADD PUSH1 0x5 SHR DUP2 ADD SWAP2 PUSH1 0x20 DUP6 LT PUSH2 0xFBB JUMPI PUSH1 0x1F ADD PUSH1 0x5 SHR ADD SWAP1 PUSH2 0x401C JUMP JUMPDEST CODESIZE PUSH2 0x40BF JUMP JUMPDEST PUSH1 0x4 SLOAD PUSH1 0x1 PUSH1 0x40 SHL DUP2 LT ISZERO PUSH2 0xF03 JUMPI PUSH1 0x1 DUP2 ADD PUSH1 0x4 SSTORE PUSH1 0x0 PUSH1 0x4 SLOAD DUP3 LT ISZERO PUSH2 0x3747 JUMPI PUSH1 0x4 SWAP1 MSTORE PUSH1 0x3 SHL PUSH32 0x8A35ACFBC15FF81A39AE7D344FD709F28E8600B4AA8C65C6B64BFE7FE36BD19B ADD SWAP1 PUSH2 0x4721 SWAP2 PUSH2 0x4097 JUMP JUMPDEST JUMP JUMPDEST SWAP3 PUSH2 0x4769 SWAP3 PUSH2 0x475B SWAP2 PUSH1 0xFF PUSH2 0x4747 PUSH1 0xA0 SWAP9 SWAP6 SWAP12 SWAP11 SWAP10 SWAP12 PUSH1 0xC0 DUP10 MSTORE PUSH1 0xC0 DUP10 ADD SWAP1 PUSH2 0x385B JUMP JUMPDEST SWAP3 AND PUSH1 0x20 DUP8 ADD MSTORE DUP6 DUP3 SUB PUSH1 0x40 DUP8 ADD MSTORE PUSH2 0x385B JUMP JUMPDEST SWAP1 DUP4 DUP3 SUB PUSH1 0x60 DUP6 ADD MSTORE PUSH2 0x385B JUMP JUMPDEST SWAP5 PUSH1 0x1 DUP1 DUP5 SHL SUB AND PUSH1 0x80 DUP3 ADD MSTORE ADD MSTORE JUMP JUMPDEST ISZERO PUSH2 0x4781 JUMPI JUMP JUMPDEST PUSH1 0x64 PUSH1 0x40 MLOAD PUSH3 0x461BCD PUSH1 0xE5 SHL DUP2 MSTORE PUSH1 0x20 PUSH1 0x4 DUP3 ADD MSTORE PUSH1 0x20 PUSH1 0x24 DUP3 ADD MSTORE PUSH32 0x416363657373207265737472696374656420746F2050616272696B20726F6C65 PUSH1 0x44 DUP3 ADD MSTORE REVERT JUMPDEST SWAP2 SWAP1 DUP1 MLOAD SWAP3 DUP4 MLOAD PUSH1 0x1 PUSH1 0x1 PUSH1 0x40 SHL SUB DUP2 GT PUSH2 0xF03 JUMPI PUSH2 0x47E4 DUP3 SLOAD PUSH2 0x394A JUMP JUMPDEST PUSH1 0x1F DUP2 GT PUSH2 0x4D66 JUMPI JUMPDEST POP PUSH1 0x20 SWAP5 PUSH1 0x1F DUP3 GT PUSH1 0x1 EQ PUSH2 0x4D01 JUMPI PUSH2 0x4821 SWAP3 SWAP4 SWAP5 SWAP6 DUP3 SWAP2 PUSH1 0x0 SWAP3 PUSH2 0x1755 JUMPI POP POP DUP2 PUSH1 0x1 SHL SWAP2 PUSH1 0x0 NOT SWAP1 PUSH1 0x3 SHL SHR NOT AND OR SWAP1 JUMP JUMPDEST DUP2 SSTORE JUMPDEST PUSH1 0x1 DUP2 ADD PUSH1 0x20 DUP4 ADD MLOAD DUP1 MLOAD SWAP1 PUSH1 0x1 PUSH1 0x1 PUSH1 0x40 SHL SUB DUP3 GT PUSH2 0xF03 JUMPI PUSH2 0x4848 DUP4 SLOAD PUSH2 0x394A JUMP JUMPDEST PUSH1 0x1F DUP2 GT PUSH2 0x4CCF JUMPI JUMPDEST POP PUSH1 0x20 SWAP1 PUSH1 0x1F DUP4 GT PUSH1 0x1 EQ PUSH2 0x4C68 JUMPI PUSH2 0x4882 SWAP3 SWAP2 PUSH1 0x0 SWAP2 DUP4 PUSH2 0x1755 JUMPI POP POP DUP2 PUSH1 0x1 SHL SWAP2 PUSH1 0x0 NOT SWAP1 PUSH1 0x3 SHL SHR NOT AND OR SWAP1 JUMP JUMPDEST SWAP1 SSTORE JUMPDEST PUSH1 0x2 DUP2 ADD PUSH1 0x40 DUP4 ADD MLOAD DUP1 MLOAD SWAP1 PUSH1 0x1 PUSH1 0x1 PUSH1 0x40 SHL SUB DUP3 GT PUSH2 0xF03 JUMPI PUSH2 0x48A9 DUP4 SLOAD PUSH2 0x394A JUMP JUMPDEST PUSH1 0x1F DUP2 GT PUSH2 0x4C36 JUMPI JUMPDEST POP PUSH1 0x20 SWAP1 PUSH1 0x1F DUP4 GT PUSH1 0x1 EQ PUSH2 0x4BCF JUMPI PUSH2 0x48E3 SWAP3 SWAP2 PUSH1 0x0 SWAP2 DUP4 PUSH2 0x1755 JUMPI POP POP DUP2 PUSH1 0x1 SHL SWAP2 PUSH1 0x0 NOT SWAP1 PUSH1 0x3 SHL SHR NOT AND OR SWAP1 JUMP JUMPDEST SWAP1 SSTORE JUMPDEST PUSH1 0xFF PUSH1 0x60 DUP4 ADD MLOAD AND PUSH1 0xFF PUSH1 0x3 DUP4 ADD SWAP2 AND PUSH1 0xFF NOT DUP3 SLOAD AND OR SWAP1 SSTORE PUSH1 0x4 DUP2 ADD PUSH1 0x80 DUP4 ADD MLOAD DUP1 MLOAD SWAP1 PUSH1 0x1 PUSH1 0x1 PUSH1 0x40 SHL SUB DUP3 GT PUSH2 0xF03 JUMPI PUSH2 0x4923 DUP4 SLOAD PUSH2 0x394A JUMP JUMPDEST PUSH1 0x1F DUP2 GT PUSH2 0x4B9D JUMPI JUMPDEST POP PUSH1 0x20 SWAP1 PUSH1 0x1F DUP4 GT PUSH1 0x1 EQ PUSH2 0x4B30 JUMPI DUP3 PUSH1 0xA0 SWAP6 SWAP4 PUSH1 0x5 SWAP6 SWAP4 PUSH2 0x4964 SWAP4 PUSH1 0x0 SWAP3 PUSH2 0x1755 JUMPI POP POP DUP2 PUSH1 0x1 SHL SWAP2 PUSH1 0x0 NOT SWAP1 PUSH1 0x3 SHL SHR NOT AND OR SWAP1 JUMP JUMPDEST SWAP1 SSTORE JUMPDEST ADD SWAP2 ADD MLOAD DUP1 MLOAD SWAP1 PUSH1 0x1 PUSH1 0x40 SHL DUP3 GT PUSH2 0xF03 JUMPI DUP3 SLOAD DUP3 DUP5 SSTORE DUP1 DUP4 LT PUSH2 0x4AB2 JUMPI JUMPDEST POP PUSH1 0x20 ADD SWAP2 PUSH1 0x0 MSTORE PUSH1 0x20 PUSH1 0x0 KECCAK256 SWAP2 PUSH1 0x0 SWAP1 JUMPDEST DUP3 DUP3 LT PUSH2 0x49A5 JUMPI POP POP POP POP JUMP JUMPDEST DUP1 MLOAD DUP1 MLOAD SWAP1 PUSH1 0x1 PUSH1 0x1 PUSH1 0x40 SHL SUB DUP3 GT PUSH2 0xF03 JUMPI PUSH2 0x49C2 DUP7 SLOAD PUSH2 0x394A JUMP JUMPDEST PUSH1 0x1F DUP2 GT PUSH2 0x4A80 JUMPI JUMPDEST POP PUSH1 0x20 SWAP1 PUSH1 0x1F DUP4 GT PUSH1 0x1 EQ PUSH2 0x4A13 JUMPI SWAP3 PUSH2 0x4A04 DUP4 PUSH1 0x1 SWAP6 SWAP5 PUSH1 0x20 SWAP5 DUP8 SWAP7 PUSH1 0x0 SWAP3 PUSH2 0x1755 JUMPI POP POP DUP2 PUSH1 0x1 SHL SWAP2 PUSH1 0x0 NOT SWAP1 PUSH1 0x3 SHL SHR NOT AND OR SWAP1 JUMP JUMPDEST DUP8 SSTORE JUMPDEST ADD SWAP5 ADD SWAP2 ADD SWAP1 SWAP3 PUSH2 0x4998 JUMP JUMPDEST SWAP1 PUSH1 0x1F NOT DUP4 AND SWAP2 DUP8 PUSH1 0x0 MSTORE DUP2 PUSH1 0x0 KECCAK256 SWAP3 PUSH1 0x0 JUMPDEST DUP2 DUP2 LT PUSH2 0x4A68 JUMPI POP SWAP4 PUSH1 0x20 SWAP4 PUSH1 0x1 SWAP7 SWAP4 DUP8 SWAP7 SWAP4 DUP4 DUP9 SWAP6 LT PUSH2 0x4A4F JUMPI JUMPDEST POP POP POP DUP2 SHL ADD DUP8 SSTORE PUSH2 0x4A07 JUMP JUMPDEST ADD MLOAD PUSH1 0x0 NOT PUSH1 0xF8 DUP5 PUSH1 0x3 SHL AND SHR NOT AND SWAP1 SSTORE CODESIZE DUP1 DUP1 PUSH2 0x4A42 JUMP JUMPDEST SWAP3 SWAP4 PUSH1 0x20 PUSH1 0x1 DUP2 SWAP3 DUP8 DUP7 ADD MLOAD DUP2 SSTORE ADD SWAP6 ADD SWAP4 ADD PUSH2 0x4A26 JUMP JUMPDEST PUSH2 0x4AAC SWAP1 DUP8 PUSH1 0x0 MSTORE PUSH1 0x20 PUSH1 0x0 KECCAK256 PUSH1 0x1F DUP6 ADD PUSH1 0x5 SHR DUP2 ADD SWAP2 PUSH1 0x20 DUP7 LT PUSH2 0xFBB JUMPI PUSH1 0x1F ADD PUSH1 0x5 SHR ADD SWAP1 PUSH2 0x401C JUMP JUMPDEST CODESIZE PUSH2 0x49CB JUMP JUMPDEST DUP4 PUSH1 0x0 MSTORE DUP3 PUSH1 0x20 PUSH1 0x0 KECCAK256 SWAP2 DUP3 ADD SWAP2 ADD JUMPDEST DUP2 DUP2 LT PUSH2 0x4ACF JUMPI POP PUSH2 0x4986 JUMP JUMPDEST DUP1 PUSH2 0x4ADC PUSH1 0x1 SWAP3 SLOAD PUSH2 0x394A JUMP JUMPDEST DUP1 PUSH2 0x4AE9 JUMPI JUMPDEST POP ADD PUSH2 0x4AC2 JUMP JUMPDEST PUSH1 0x1F DUP2 GT DUP4 EQ PUSH2 0x4AFF JUMPI POP PUSH1 0x0 DUP2 SSTORE JUMPDEST CODESIZE PUSH2 0x4AE2 JUMP JUMPDEST PUSH2 0x4B1D SWAP1 DUP3 PUSH1 0x0 MSTORE DUP4 PUSH1 0x1F PUSH1 0x20 PUSH1 0x0 KECCAK256 SWAP3 ADD PUSH1 0x5 SHR DUP3 ADD SWAP2 ADD PUSH2 0x401C JUMP JUMPDEST DUP1 PUSH1 0x0 MSTORE PUSH1 0x0 PUSH1 0x20 DUP2 KECCAK256 DUP2 DUP4 SSTORE SSTORE PUSH2 0x4AF9 JUMP JUMPDEST SWAP1 PUSH1 0x1F NOT DUP4 AND SWAP2 DUP5 PUSH1 0x0 MSTORE DUP2 PUSH1 0x0 KECCAK256 SWAP3 PUSH1 0x0 JUMPDEST DUP2 DUP2 LT PUSH2 0x4B85 JUMPI POP SWAP3 PUSH1 0x1 SWAP3 DUP6 SWAP3 PUSH1 0xA0 SWAP9 SWAP7 PUSH1 0x5 SWAP9 SWAP7 LT PUSH2 0x4B6C JUMPI JUMPDEST POP POP POP DUP2 SHL ADD SWAP1 SSTORE PUSH2 0x4967 JUMP JUMPDEST ADD MLOAD PUSH1 0x0 NOT PUSH1 0xF8 DUP5 PUSH1 0x3 SHL AND SHR NOT AND SWAP1 SSTORE CODESIZE DUP1 DUP1 PUSH2 0x4B5F JUMP JUMPDEST SWAP3 SWAP4 PUSH1 0x20 PUSH1 0x1 DUP2 SWAP3 DUP8 DUP7 ADD MLOAD DUP2 SSTORE ADD SWAP6 ADD SWAP4 ADD PUSH2 0x4B43 JUMP JUMPDEST PUSH2 0x4BC9 SWAP1 DUP5 PUSH1 0x0 MSTORE PUSH1 0x20 PUSH1 0x0 KECCAK256 PUSH1 0x1F DUP6 ADD PUSH1 0x5 SHR DUP2 ADD SWAP2 PUSH1 0x20 DUP7 LT PUSH2 0xFBB JUMPI PUSH1 0x1F ADD PUSH1 0x5 SHR ADD SWAP1 PUSH2 0x401C JUMP JUMPDEST CODESIZE PUSH2 0x492C JUMP JUMPDEST SWAP1 PUSH1 0x1F NOT DUP4 AND SWAP2 DUP5 PUSH1 0x0 MSTORE DUP2 PUSH1 0x0 KECCAK256 SWAP3 PUSH1 0x0 JUMPDEST DUP2 DUP2 LT PUSH2 0x4C1E JUMPI POP SWAP1 DUP5 PUSH1 0x1 SWAP6 SWAP5 SWAP4 SWAP3 LT PUSH2 0x4C05 JUMPI JUMPDEST POP POP POP DUP2 SHL ADD SWAP1 SSTORE PUSH2 0x48E6 JUMP JUMPDEST ADD MLOAD PUSH1 0x0 NOT PUSH1 0xF8 DUP5 PUSH1 0x3 SHL AND SHR NOT AND SWAP1 SSTORE CODESIZE DUP1 DUP1 PUSH2 0x4BF8 JUMP JUMPDEST SWAP3 SWAP4 PUSH1 0x20 PUSH1 0x1 DUP2 SWAP3 DUP8 DUP7 ADD MLOAD DUP2 SSTORE ADD SWAP6 ADD SWAP4 ADD PUSH2 0x4BE2 JUMP JUMPDEST PUSH2 0x4C62 SWAP1 DUP5 PUSH1 0x0 MSTORE PUSH1 0x20 PUSH1 0x0 KECCAK256 PUSH1 0x1F DUP6 ADD PUSH1 0x5 SHR DUP2 ADD SWAP2 PUSH1 0x20 DUP7 LT PUSH2 0xFBB JUMPI PUSH1 0x1F ADD PUSH1 0x5 SHR ADD SWAP1 PUSH2 0x401C JUMP JUMPDEST CODESIZE PUSH2 0x48B2 JUMP JUMPDEST SWAP1 PUSH1 0x1F NOT DUP4 AND SWAP2 DUP5 PUSH1 0x0 MSTORE DUP2 PUSH1 0x0 KECCAK256 SWAP3 PUSH1 0x0 JUMPDEST DUP2 DUP2 LT PUSH2 0x4CB7 JUMPI POP SWAP1 DUP5 PUSH1 0x1 SWAP6 SWAP5 SWAP4 SWAP3 LT PUSH2 0x4C9E JUMPI JUMPDEST POP POP POP DUP2 SHL ADD SWAP1 SSTORE PUSH2 0x4885 JUMP JUMPDEST ADD MLOAD PUSH1 0x0 NOT PUSH1 0xF8 DUP5 PUSH1 0x3 SHL AND SHR NOT AND SWAP1 SSTORE CODESIZE DUP1 DUP1 PUSH2 0x4C91 JUMP JUMPDEST SWAP3 SWAP4 PUSH1 0x20 PUSH1 0x1 DUP2 SWAP3 DUP8 DUP7 ADD MLOAD DUP2 SSTORE ADD SWAP6 ADD SWAP4 ADD PUSH2 0x4C7B JUMP JUMPDEST PUSH2 0x4CFB SWAP1 DUP5 PUSH1 0x0 MSTORE PUSH1 0x20 PUSH1 0x0 KECCAK256 PUSH1 0x1F DUP6 ADD PUSH1 0x5 SHR DUP2 ADD SWAP2 PUSH1 0x20 DUP7 LT PUSH2 0xFBB JUMPI PUSH1 0x1F ADD PUSH1 0x5 SHR ADD SWAP1 PUSH2 0x401C JUMP JUMPDEST CODESIZE PUSH2 0x4851 JUMP JUMPDEST PUSH1 0x1F NOT DUP3 AND SWAP6 DUP4 PUSH1 0x0 MSTORE DUP1 PUSH1 0x0 KECCAK256 SWAP2 PUSH1 0x0 JUMPDEST DUP9 DUP2 LT PUSH2 0x4D4E JUMPI POP DUP4 PUSH1 0x1 SWAP6 SWAP7 SWAP8 SWAP9 LT PUSH2 0x4D35 JUMPI JUMPDEST POP POP POP DUP2 SHL ADD DUP2 SSTORE PUSH2 0x4824 JUMP JUMPDEST ADD MLOAD PUSH1 0x0 NOT PUSH1 0xF8 DUP5 PUSH1 0x3 SHL AND SHR NOT AND SWAP1 SSTORE CODESIZE DUP1 DUP1 PUSH2 0x4D28 JUMP JUMPDEST SWAP2 SWAP3 PUSH1 0x20 PUSH1 0x1 DUP2 SWAP3 DUP7 DUP6 ADD MLOAD DUP2 SSTORE ADD SWAP5 ADD SWAP3 ADD PUSH2 0x4D13 JUMP JUMPDEST PUSH2 0x4D92 SWAP1 DUP4 PUSH1 0x0 MSTORE PUSH1 0x20 PUSH1 0x0 KECCAK256 PUSH1 0x1F DUP5 ADD PUSH1 0x5 SHR DUP2 ADD SWAP2 PUSH1 0x20 DUP6 LT PUSH2 0xFBB JUMPI PUSH1 0x1F ADD PUSH1 0x5 SHR ADD SWAP1 PUSH2 0x401C JUMP JUMPDEST CODESIZE PUSH2 0x47ED JUMP JUMPDEST PUSH1 0x3 SLOAD PUSH1 0x1 PUSH1 0x40 SHL DUP2 LT ISZERO PUSH2 0xF03 JUMPI PUSH1 0x1 DUP2 ADD PUSH1 0x3 SSTORE PUSH1 0x0 PUSH1 0x3 SLOAD DUP3 LT ISZERO PUSH2 0x3747 JUMPI PUSH1 0x3 SWAP1 MSTORE PUSH1 0x6 MUL PUSH32 0xC2575A0E9E593C00F959F8C92F12DB2869C3395A3B0502D05E2516446F71F85B ADD SWAP1 PUSH2 0x4721 SWAP2 PUSH2 0x47C5 JUMP JUMPDEST SWAP1 SWAP2 DUP3 MLOAD SWAP3 DUP4 MLOAD PUSH1 0x1 PUSH1 0x1 PUSH1 0x40 SHL SUB DUP2 GT PUSH2 0xF03 JUMPI PUSH2 0x4E0C DUP5 SLOAD PUSH2 0x394A JUMP JUMPDEST PUSH1 0x1F DUP2 GT PUSH2 0x568B JUMPI JUMPDEST POP PUSH1 0x20 SWAP5 PUSH1 0x1F DUP3 GT PUSH1 0x1 EQ PUSH2 0x5626 JUMPI PUSH2 0x4E49 SWAP3 SWAP4 SWAP5 SWAP6 DUP3 SWAP2 PUSH1 0x0 SWAP3 PUSH2 0x1755 JUMPI POP POP DUP2 PUSH1 0x1 SHL SWAP2 PUSH1 0x0 NOT SWAP1 PUSH1 0x3 SHL SHR NOT AND OR SWAP1 JUMP JUMPDEST DUP4 SSTORE JUMPDEST PUSH1 0x1 DUP4 ADD PUSH1 0x20 DUP3 ADD MLOAD DUP1 MLOAD SWAP1 PUSH1 0x1 PUSH1 0x1 PUSH1 0x40 SHL SUB DUP3 GT PUSH2 0xF03 JUMPI PUSH2 0x4E70 DUP4 SLOAD PUSH2 0x394A JUMP JUMPDEST PUSH1 0x1F DUP2 GT PUSH2 0x55F4 JUMPI JUMPDEST POP PUSH1 0x20 SWAP1 PUSH1 0x1F DUP4 GT PUSH1 0x1 EQ PUSH2 0x558D JUMPI PUSH2 0x4EAA SWAP3 SWAP2 PUSH1 0x0 SWAP2 DUP4 PUSH2 0x1755 JUMPI POP POP DUP2 PUSH1 0x1 SHL SWAP2 PUSH1 0x0 NOT SWAP1 PUSH1 0x3 SHL SHR NOT AND OR SWAP1 JUMP JUMPDEST SWAP1 SSTORE JUMPDEST PUSH1 0x2 DUP4 ADD PUSH1 0x40 DUP3 ADD MLOAD DUP1 MLOAD SWAP1 PUSH1 0x1 PUSH1 0x1 PUSH1 0x40 SHL SUB DUP3 GT PUSH2 0xF03 JUMPI PUSH2 0x4ED1 DUP4 SLOAD PUSH2 0x394A JUMP JUMPDEST PUSH1 0x1F DUP2 GT PUSH2 0x555B JUMPI JUMPDEST POP PUSH1 0x20 SWAP1 PUSH1 0x1F DUP4 GT PUSH1 0x1 EQ PUSH2 0x54F4 JUMPI PUSH2 0x4F0B SWAP3 SWAP2 PUSH1 0x0 SWAP2 DUP4 PUSH2 0x1755 JUMPI POP POP DUP2 PUSH1 0x1 SHL SWAP2 PUSH1 0x0 NOT SWAP1 PUSH1 0x3 SHL SHR NOT AND OR SWAP1 JUMP JUMPDEST SWAP1 SSTORE JUMPDEST PUSH1 0x3 DUP4 ADD PUSH1 0x60 DUP3 ADD MLOAD DUP1 MLOAD SWAP1 PUSH1 0x1 PUSH1 0x40 SHL DUP3 GT PUSH2 0xF03 JUMPI DUP3 SLOAD DUP3 DUP5 SSTORE DUP1 DUP4 LT PUSH2 0x5476 JUMPI JUMPDEST POP PUSH1 0x20 ADD SWAP2 PUSH1 0x0 MSTORE PUSH1 0x20 PUSH1 0x0 KECCAK256 SWAP2 PUSH1 0x0 SWAP1 JUMPDEST DUP3 DUP3 LT PUSH2 0x5369 JUMPI POP POP POP POP PUSH1 0x4 DUP4 ADD PUSH1 0x80 DUP3 ADD MLOAD DUP1 MLOAD SWAP1 PUSH1 0x1 PUSH1 0x1 PUSH1 0x40 SHL SUB DUP3 GT PUSH2 0xF03 JUMPI PUSH2 0x4F73 DUP4 SLOAD PUSH2 0x394A JUMP JUMPDEST PUSH1 0x1F DUP2 GT PUSH2 0x5337 JUMPI JUMPDEST POP PUSH1 0x20 SWAP1 PUSH1 0x1F DUP4 GT PUSH1 0x1 EQ PUSH2 0x52D0 JUMPI PUSH2 0x4FAD SWAP3 SWAP2 PUSH1 0x0 SWAP2 DUP4 PUSH2 0x1755 JUMPI POP POP DUP2 PUSH1 0x1 SHL SWAP2 PUSH1 0x0 NOT SWAP1 PUSH1 0x3 SHL SHR NOT AND OR SWAP1 JUMP JUMPDEST SWAP1 SSTORE JUMPDEST PUSH1 0x5 DUP4 ADD PUSH1 0xA0 DUP3 ADD MLOAD DUP1 MLOAD SWAP1 PUSH1 0x1 PUSH1 0x40 SHL DUP3 GT PUSH2 0xF03 JUMPI DUP3 SLOAD DUP3 DUP5 SSTORE DUP1 DUP4 LT PUSH2 0x5252 JUMPI JUMPDEST POP PUSH1 0x20 ADD SWAP2 PUSH1 0x0 MSTORE PUSH1 0x20 PUSH1 0x0 KECCAK256 SWAP2 PUSH1 0x0 SWAP1 JUMPDEST DUP3 DUP3 LT PUSH2 0x5145 JUMPI POP POP POP POP PUSH1 0xC0 DUP2 ADD MLOAD SWAP3 PUSH1 0x6 DUP2 ADD PUSH1 0x2 DUP6 LT ISZERO PUSH2 0x2D4D JUMPI PUSH2 0x140 SWAP2 PUSH1 0x9 SWAP2 PUSH1 0x0 SWAP7 PUSH1 0xFF DUP1 NOT DUP4 SLOAD AND SWAP2 AND OR DUP2 SSTORE PUSH1 0xE0 DUP6 ADD MLOAD PUSH2 0x5028 DUP2 PUSH2 0x3A7B JUMP JUMPDEST PUSH2 0x5031 DUP2 PUSH2 0x3A7B JUMP JUMPDEST PUSH2 0xFF00 DUP3 SLOAD SWAP2 PUSH1 0x8 SHL AND SWAP1 PUSH2 0xFF00 NOT AND OR SWAP1 SSTORE PUSH2 0x100 DUP5 ADD MLOAD PUSH1 0x7 DUP3 ADD SSTORE PUSH2 0x120 DUP5 ADD MLOAD PUSH1 0x8 DUP3 ADD SSTORE ADD SWAP2 ADD MLOAD SWAP3 DUP4 MLOAD SWAP1 PUSH1 0x1 PUSH1 0x1 PUSH1 0x40 SHL SUB DUP3 GT PUSH2 0x1DB3 JUMPI PUSH2 0x507A DUP4 SLOAD PUSH2 0x394A JUMP JUMPDEST PUSH1 0x1F DUP2 GT PUSH2 0x5115 JUMPI JUMPDEST POP PUSH1 0x20 SWAP1 PUSH1 0x1F DUP4 GT PUSH1 0x1 EQ PUSH2 0x50B7 JUMPI SWAP1 PUSH2 0x50B3 SWAP4 SWAP5 SWAP6 DUP4 PUSH2 0x1755 JUMPI POP POP DUP2 PUSH1 0x1 SHL SWAP2 PUSH1 0x0 NOT SWAP1 PUSH1 0x3 SHL SHR NOT AND OR SWAP1 JUMP JUMPDEST SWAP1 SSTORE JUMP JUMPDEST SWAP1 PUSH1 0x1F NOT DUP4 AND DUP5 DUP4 MSTORE DUP2 DUP4 KECCAK256 SWAP3 JUMPDEST DUP2 DUP2 LT PUSH2 0x50FD JUMPI POP SWAP6 DUP4 PUSH1 0x1 SWAP6 SWAP7 SWAP8 LT PUSH2 0x50E4 JUMPI JUMPDEST POP POP POP DUP2 SHL ADD SWAP1 SSTORE JUMP JUMPDEST ADD MLOAD PUSH1 0x0 NOT PUSH1 0xF8 DUP5 PUSH1 0x3 SHL AND SHR NOT AND SWAP1 SSTORE CODESIZE DUP1 DUP1 PUSH2 0x50DA JUMP JUMPDEST SWAP2 SWAP3 PUSH1 0x20 PUSH1 0x1 DUP2 SWAP3 DUP7 DUP12 ADD MLOAD DUP2 SSTORE ADD SWAP5 ADD SWAP3 ADD PUSH2 0x50C5 JUMP JUMPDEST PUSH2 0x513F SWAP1 DUP5 DUP4 MSTORE PUSH1 0x20 DUP4 KECCAK256 PUSH1 0x1F DUP6 ADD PUSH1 0x5 SHR DUP2 ADD SWAP2 PUSH1 0x20 DUP7 LT PUSH2 0xFBB JUMPI PUSH1 0x1F ADD PUSH1 0x5 SHR ADD SWAP1 PUSH2 0x401C JUMP JUMPDEST CODESIZE PUSH2 0x5083 JUMP JUMPDEST DUP1 MLOAD DUP1 MLOAD SWAP1 PUSH1 0x1 PUSH1 0x1 PUSH1 0x40 SHL SUB DUP3 GT PUSH2 0xF03 JUMPI PUSH2 0x5162 DUP7 SLOAD PUSH2 0x394A JUMP JUMPDEST PUSH1 0x1F DUP2 GT PUSH2 0x5220 JUMPI JUMPDEST POP PUSH1 0x20 SWAP1 PUSH1 0x1F DUP4 GT PUSH1 0x1 EQ PUSH2 0x51B3 JUMPI SWAP3 PUSH2 0x51A4 DUP4 PUSH1 0x1 SWAP6 SWAP5 PUSH1 0x20 SWAP5 DUP8 SWAP7 PUSH1 0x0 SWAP3 PUSH2 0x1755 JUMPI POP POP DUP2 PUSH1 0x1 SHL SWAP2 PUSH1 0x0 NOT SWAP1 PUSH1 0x3 SHL SHR NOT AND OR SWAP1 JUMP JUMPDEST DUP8 SSTORE JUMPDEST ADD SWAP5 ADD SWAP2 ADD SWAP1 SWAP3 PUSH2 0x4FE6 JUMP JUMPDEST SWAP1 PUSH1 0x1F NOT DUP4 AND SWAP2 DUP8 PUSH1 0x0 MSTORE DUP2 PUSH1 0x0 KECCAK256 SWAP3 PUSH1 0x0 JUMPDEST DUP2 DUP2 LT PUSH2 0x5208 JUMPI POP SWAP4 PUSH1 0x20 SWAP4 PUSH1 0x1 SWAP7 SWAP4 DUP8 SWAP7 SWAP4 DUP4 DUP9 SWAP6 LT PUSH2 0x51EF JUMPI JUMPDEST POP POP POP DUP2 SHL ADD DUP8 SSTORE PUSH2 0x51A7 JUMP JUMPDEST ADD MLOAD PUSH1 0x0 NOT PUSH1 0xF8 DUP5 PUSH1 0x3 SHL AND SHR NOT AND SWAP1 SSTORE CODESIZE DUP1 DUP1 PUSH2 0x51E2 JUMP JUMPDEST SWAP3 SWAP4 PUSH1 0x20 PUSH1 0x1 DUP2 SWAP3 DUP8 DUP7 ADD MLOAD DUP2 SSTORE ADD SWAP6 ADD SWAP4 ADD PUSH2 0x51C6 JUMP JUMPDEST PUSH2 0x524C SWAP1 DUP8 PUSH1 0x0 MSTORE PUSH1 0x20 PUSH1 0x0 KECCAK256 PUSH1 0x1F DUP6 ADD PUSH1 0x5 SHR DUP2 ADD SWAP2 PUSH1 0x20 DUP7 LT PUSH2 0xFBB JUMPI PUSH1 0x1F ADD PUSH1 0x5 SHR ADD SWAP1 PUSH2 0x401C JUMP JUMPDEST CODESIZE PUSH2 0x516B JUMP JUMPDEST DUP4 PUSH1 0x0 MSTORE DUP3 PUSH1 0x20 PUSH1 0x0 KECCAK256 SWAP2 DUP3 ADD SWAP2 ADD JUMPDEST DUP2 DUP2 LT PUSH2 0x526F JUMPI POP PUSH2 0x4FD4 JUMP JUMPDEST DUP1 PUSH2 0x527C PUSH1 0x1 SWAP3 SLOAD PUSH2 0x394A JUMP JUMPDEST DUP1 PUSH2 0x5289 JUMPI JUMPDEST POP ADD PUSH2 0x5262 JUMP JUMPDEST PUSH1 0x1F DUP2 GT DUP4 EQ PUSH2 0x529F JUMPI POP PUSH1 0x0 DUP2 SSTORE JUMPDEST CODESIZE PUSH2 0x5282 JUMP JUMPDEST PUSH2 0x52BD SWAP1 DUP3 PUSH1 0x0 MSTORE DUP4 PUSH1 0x1F PUSH1 0x20 PUSH1 0x0 KECCAK256 SWAP3 ADD PUSH1 0x5 SHR DUP3 ADD SWAP2 ADD PUSH2 0x401C JUMP JUMPDEST DUP1 PUSH1 0x0 MSTORE PUSH1 0x0 PUSH1 0x20 DUP2 KECCAK256 DUP2 DUP4 SSTORE SSTORE PUSH2 0x5299 JUMP JUMPDEST SWAP1 PUSH1 0x1F NOT DUP4 AND SWAP2 DUP5 PUSH1 0x0 MSTORE DUP2 PUSH1 0x0 KECCAK256 SWAP3 PUSH1 0x0 JUMPDEST DUP2 DUP2 LT PUSH2 0x531F JUMPI POP SWAP1 DUP5 PUSH1 0x1 SWAP6 SWAP5 SWAP4 SWAP3 LT PUSH2 0x5306 JUMPI JUMPDEST POP POP POP DUP2 SHL ADD SWAP1 SSTORE PUSH2 0x4FB0 JUMP JUMPDEST ADD MLOAD PUSH1 0x0 NOT PUSH1 0xF8 DUP5 PUSH1 0x3 SHL AND SHR NOT AND SWAP1 SSTORE CODESIZE DUP1 DUP1 PUSH2 0x52F9 JUMP JUMPDEST SWAP3 SWAP4 PUSH1 0x20 PUSH1 0x1 DUP2 SWAP3 DUP8 DUP7 ADD MLOAD DUP2 SSTORE ADD SWAP6 ADD SWAP4 ADD PUSH2 0x52E3 JUMP JUMPDEST PUSH2 0x5363 SWAP1 DUP5 PUSH1 0x0 MSTORE PUSH1 0x20 PUSH1 0x0 KECCAK256 PUSH1 0x1F DUP6 ADD PUSH1 0x5 SHR DUP2 ADD SWAP2 PUSH1 0x20 DUP7 LT PUSH2 0xFBB JUMPI PUSH1 0x1F ADD PUSH1 0x5 SHR ADD SWAP1 PUSH2 0x401C JUMP JUMPDEST CODESIZE PUSH2 0x4F7C JUMP JUMPDEST DUP1 MLOAD DUP1 MLOAD SWAP1 PUSH1 0x1 PUSH1 0x1 PUSH1 0x40 SHL SUB DUP3 GT PUSH2 0xF03 JUMPI PUSH2 0x5386 DUP7 SLOAD PUSH2 0x394A JUMP JUMPDEST PUSH1 0x1F DUP2 GT PUSH2 0x5444 JUMPI JUMPDEST POP PUSH1 0x20 SWAP1 PUSH1 0x1F DUP4 GT PUSH1 0x1 EQ PUSH2 0x53D7 JUMPI SWAP3 PUSH2 0x53C8 DUP4 PUSH1 0x1 SWAP6 SWAP5 PUSH1 0x20 SWAP5 DUP8 SWAP7 PUSH1 0x0 SWAP3 PUSH2 0x1755 JUMPI POP POP DUP2 PUSH1 0x1 SHL SWAP2 PUSH1 0x0 NOT SWAP1 PUSH1 0x3 SHL SHR NOT AND OR SWAP1 JUMP JUMPDEST DUP8 SSTORE JUMPDEST ADD SWAP5 ADD SWAP2 ADD SWAP1 SWAP3 PUSH2 0x4F44 JUMP JUMPDEST SWAP1 PUSH1 0x1F NOT DUP4 AND SWAP2 DUP8 PUSH1 0x0 MSTORE DUP2 PUSH1 0x0 KECCAK256 SWAP3 PUSH1 0x0 JUMPDEST DUP2 DUP2 LT PUSH2 0x542C JUMPI POP SWAP4 PUSH1 0x20 SWAP4 PUSH1 0x1 SWAP7 SWAP4 DUP8 SWAP7 SWAP4 DUP4 DUP9 SWAP6 LT PUSH2 0x5413 JUMPI JUMPDEST POP POP POP DUP2 SHL ADD DUP8 SSTORE PUSH2 0x53CB JUMP JUMPDEST ADD MLOAD PUSH1 0x0 NOT PUSH1 0xF8 DUP5 PUSH1 0x3 SHL AND SHR NOT AND SWAP1 SSTORE CODESIZE DUP1 DUP1 PUSH2 0x5406 JUMP JUMPDEST SWAP3 SWAP4 PUSH1 0x20 PUSH1 0x1 DUP2 SWAP3 DUP8 DUP7 ADD MLOAD DUP2 SSTORE ADD SWAP6 ADD SWAP4 ADD PUSH2 0x53EA JUMP JUMPDEST PUSH2 0x5470 SWAP1 DUP8 PUSH1 0x0 MSTORE PUSH1 0x20 PUSH1 0x0 KECCAK256 PUSH1 0x1F DUP6 ADD PUSH1 0x5 SHR DUP2 ADD SWAP2 PUSH1 0x20 DUP7 LT PUSH2 0xFBB JUMPI PUSH1 0x1F ADD PUSH1 0x5 SHR ADD SWAP1 PUSH2 0x401C JUMP JUMPDEST CODESIZE PUSH2 0x538F JUMP JUMPDEST DUP4 PUSH1 0x0 MSTORE DUP3 PUSH1 0x20 PUSH1 0x0 KECCAK256 SWAP2 DUP3 ADD SWAP2 ADD JUMPDEST DUP2 DUP2 LT PUSH2 0x5493 JUMPI POP PUSH2 0x4F32 JUMP JUMPDEST DUP1 PUSH2 0x54A0 PUSH1 0x1 SWAP3 SLOAD PUSH2 0x394A JUMP JUMPDEST DUP1 PUSH2 0x54AD JUMPI JUMPDEST POP ADD PUSH2 0x5486 JUMP JUMPDEST PUSH1 0x1F DUP2 GT DUP4 EQ PUSH2 0x54C3 JUMPI POP PUSH1 0x0 DUP2 SSTORE JUMPDEST CODESIZE PUSH2 0x54A6 JUMP JUMPDEST PUSH2 0x54E1 SWAP1 DUP3 PUSH1 0x0 MSTORE DUP4 PUSH1 0x1F PUSH1 0x20 PUSH1 0x0 KECCAK256 SWAP3 ADD PUSH1 0x5 SHR DUP3 ADD SWAP2 ADD PUSH2 0x401C JUMP JUMPDEST DUP1 PUSH1 0x0 MSTORE PUSH1 0x0 PUSH1 0x20 DUP2 KECCAK256 DUP2 DUP4 SSTORE SSTORE PUSH2 0x54BD JUMP JUMPDEST SWAP1 PUSH1 0x1F NOT DUP4 AND SWAP2 DUP5 PUSH1 0x0 MSTORE DUP2 PUSH1 0x0 KECCAK256 SWAP3 PUSH1 0x0 JUMPDEST DUP2 DUP2 LT PUSH2 0x5543 JUMPI POP SWAP1 DUP5 PUSH1 0x1 SWAP6 SWAP5 SWAP4 SWAP3 LT PUSH2 0x552A JUMPI JUMPDEST POP POP POP DUP2 SHL ADD SWAP1 SSTORE PUSH2 0x4F0E JUMP JUMPDEST ADD MLOAD PUSH1 0x0 NOT PUSH1 0xF8 DUP5 PUSH1 0x3 SHL AND SHR NOT AND SWAP1 SSTORE CODESIZE DUP1 DUP1 PUSH2 0x551D JUMP JUMPDEST SWAP3 SWAP4 PUSH1 0x20 PUSH1 0x1 DUP2 SWAP3 DUP8 DUP7 ADD MLOAD DUP2 SSTORE ADD SWAP6 ADD SWAP4 ADD PUSH2 0x5507 JUMP JUMPDEST PUSH2 0x5587 SWAP1 DUP5 PUSH1 0x0 MSTORE PUSH1 0x20 PUSH1 0x0 KECCAK256 PUSH1 0x1F DUP6 ADD PUSH1 0x5 SHR DUP2 ADD SWAP2 PUSH1 0x20 DUP7 LT PUSH2 0xFBB JUMPI PUSH1 0x1F ADD PUSH1 0x5 SHR ADD SWAP1 PUSH2 0x401C JUMP JUMPDEST CODESIZE PUSH2 0x4EDA JUMP JUMPDEST SWAP1 PUSH1 0x1F NOT DUP4 AND SWAP2 DUP5 PUSH1 0x0 MSTORE DUP2 PUSH1 0x0 KECCAK256 SWAP3 PUSH1 0x0 JUMPDEST DUP2 DUP2 LT PUSH2 0x55DC JUMPI POP SWAP1 DUP5 PUSH1 0x1 SWAP6 SWAP5 SWAP4 SWAP3 LT PUSH2 0x55C3 JUMPI JUMPDEST POP POP POP DUP2 SHL ADD SWAP1 SSTORE PUSH2 0x4EAD JUMP JUMPDEST ADD MLOAD PUSH1 0x0 NOT PUSH1 0xF8 DUP5 PUSH1 0x3 SHL AND SHR NOT AND SWAP1 SSTORE CODESIZE DUP1 DUP1 PUSH2 0x55B6 JUMP JUMPDEST SWAP3 SWAP4 PUSH1 0x20 PUSH1 0x1 DUP2 SWAP3 DUP8 DUP7 ADD MLOAD DUP2 SSTORE ADD SWAP6 ADD SWAP4 ADD PUSH2 0x55A0 JUMP JUMPDEST PUSH2 0x5620 SWAP1 DUP5 PUSH1 0x0 MSTORE PUSH1 0x20 PUSH1 0x0 KECCAK256 PUSH1 0x1F DUP6 ADD PUSH1 0x5 SHR DUP2 ADD SWAP2 PUSH1 0x20 DUP7 LT PUSH2 0xFBB JUMPI PUSH1 0x1F ADD PUSH1 0x5 SHR ADD SWAP1 PUSH2 0x401C JUMP JUMPDEST CODESIZE PUSH2 0x4E79 JUMP JUMPDEST PUSH1 0x1F NOT DUP3 AND SWAP6 DUP6 PUSH1 0x0 MSTORE DUP1 PUSH1 0x0 KECCAK256 SWAP2 PUSH1 0x0 JUMPDEST DUP9 DUP2 LT PUSH2 0x5673 JUMPI POP DUP4 PUSH1 0x1 SWAP6 SWAP7 SWAP8 SWAP9 LT PUSH2 0x565A JUMPI JUMPDEST POP POP POP DUP2 SHL ADD DUP4 SSTORE PUSH2 0x4E4C JUMP JUMPDEST ADD MLOAD PUSH1 0x0 NOT PUSH1 0xF8 DUP5 PUSH1 0x3 SHL AND SHR NOT AND SWAP1 SSTORE CODESIZE DUP1 DUP1 PUSH2 0x564D JUMP JUMPDEST SWAP2 SWAP3 PUSH1 0x20 PUSH1 0x1 DUP2 SWAP3 DUP7 DUP6 ADD MLOAD DUP2 SSTORE ADD SWAP5 ADD SWAP3 ADD PUSH2 0x5638 JUMP JUMPDEST PUSH2 0x56B7 SWAP1 DUP6 PUSH1 0x0 MSTORE PUSH1 0x20 PUSH1 0x0 KECCAK256 PUSH1 0x1F DUP5 ADD PUSH1 0x5 SHR DUP2 ADD SWAP2 PUSH1 0x20 DUP6 LT PUSH2 0xFBB JUMPI PUSH1 0x1F ADD PUSH1 0x5 SHR ADD SWAP1 PUSH2 0x401C JUMP JUMPDEST CODESIZE PUSH2 0x4E15 JUMP INVALID LOG2 PUSH5 0x6970667358 0x22 SLT KECCAK256 0xB4 0x25 SELFBALANCE SELFDESTRUCT 0xAC 0xE2 PUSH29 0x10A7A9CA1D87AA91572CCF530E95E9AD0456FF59EE08E9662464736F6C PUSH4 0x4300081B STOP CALLER "},"methodIdentifiers":{"addQuantityObat(string,string,string,uint8,string,string[])":"d19487e4","allObatData(uint256)":"7aad01bd","allOrderedObat(uint256)":"0a04f9c8","allProducedObat(uint256)":"7d08414f","approveNie(string,address,string,string,string)":"7ade51dd","bpomAddresses(string)":"1c0b2030","bpomInstanceNames(string)":"9d9315c2","bpomUserNames(string)":"f1022862","createObat(string,string,string,string[],string,string[],address,string,string,uint8)":"d9d284dc","factoryAddresses(string)":"4b87568a","factoryInstanceNames(string)":"a812536d","factoryUserNames(string)":"349a7a72","getAllProducedObat()":"1a95e672","getDetailProducedObatById(string)":"b896cb9a","getJenisSediaanAvail(string)":"d44faa63","getListAllObatNie()":"e06749ba","getListAllProducedObat()":"01d62d3b","getListAllProducedObatByFactory(string)":"92b385c9","getListObatByFactory(string)":"1dce6e58","getListObatById(string)":"25606bc3","mainSupplyChain()":"9413fcfd","obatDetailsById(string)":"27321837","obatProductionDetailsById(string)":"998c1fcb","orderObatById(string)":"86f5cea6","pbfOrder(string,string,string,uint8,address,string)":"bb43bdf7","requestNie(string)":"bc4a6f6c","retailerOrder(string,string,string,uint8,address,string,string[])":"b7e66568","roleManager()":"00435da5","userRoles(address)":"74d5e100"}}}}}