{"contracts/OrderManagement.sol":{"OrderManagement":{"abi":[{"inputs":[{"internalType":"address","name":"_obatTradisionalAddr","type":"address"},{"internalType":"address","name":"_roleManagerAddr","type":"address"}],"stateMutability":"nonpayable","type":"constructor"},{"anonymous":false,"inputs":[{"indexed":false,"internalType":"string","name":"namaProduk","type":"string"},{"indexed":false,"internalType":"string","name":"buyerInstanceName","type":"string"},{"indexed":false,"internalType":"string","name":"sellerInstanceName","type":"string"},{"indexed":false,"internalType":"uint8","name":"orderQuantity","type":"uint8"},{"indexed":false,"internalType":"uint256","name":"timestamp","type":"uint256"}],"name":"evt_orderUpdate","type":"event"},{"inputs":[{"internalType":"string","name":"_orderId","type":"string"},{"internalType":"string","name":"_batchName","type":"string"},{"internalType":"string[]","name":"_orderObatIpfs","type":"string[]"}],"name":"acceptOrder","outputs":[],"stateMutability":"nonpayable","type":"function"},{"inputs":[{"internalType":"uint256","name":"","type":"uint256"}],"name":"allOrderId","outputs":[{"internalType":"string","name":"","type":"string"}],"stateMutability":"view","type":"function"},{"inputs":[{"internalType":"string","name":"_orderId","type":"string"},{"internalType":"string","name":"_obatId","type":"string"},{"internalType":"string","name":"_namaProduk","type":"string"},{"internalType":"string","name":"_buyerInstance","type":"string"},{"internalType":"string","name":"_sellerInstance","type":"string"},{"internalType":"uint8","name":"_orderQuantity","type":"uint8"}],"name":"createOrder","outputs":[],"stateMutability":"nonpayable","type":"function"},{"inputs":[{"internalType":"string","name":"_buyerInstance","type":"string"}],"name":"getAllOrderFromBuyer","outputs":[{"components":[{"internalType":"string","name":"orderId","type":"string"},{"internalType":"string","name":"obatId","type":"string"},{"internalType":"string","name":"namaProduk","type":"string"},{"internalType":"string","name":"batchName","type":"string"},{"internalType":"uint8","name":"orderQuantity","type":"uint8"},{"components":[{"internalType":"string","name":"instanceName","type":"string"},{"internalType":"address","name":"instanceAddr","type":"address"}],"internalType":"struct OrderManagement.st_orderUser","name":"buyerUser","type":"tuple"},{"components":[{"internalType":"string","name":"instanceName","type":"string"},{"internalType":"address","name":"instanceAddr","type":"address"}],"internalType":"struct OrderManagement.st_orderUser","name":"sellerUser","type":"tuple"},{"internalType":"enum EnumsLibrary.OrderStatus","name":"statusOrder","type":"uint8"}],"internalType":"struct OrderManagement.st_obatOrder[]","name":"","type":"tuple[]"}],"stateMutability":"view","type":"function"},{"inputs":[{"internalType":"string","name":"_sellerInstance","type":"string"}],"name":"getAllOrderFromSeller","outputs":[{"components":[{"internalType":"string","name":"orderId","type":"string"},{"internalType":"string","name":"obatId","type":"string"},{"internalType":"string","name":"namaProduk","type":"string"},{"internalType":"string","name":"batchName","type":"string"},{"internalType":"uint8","name":"orderQuantity","type":"uint8"},{"components":[{"internalType":"string","name":"instanceName","type":"string"},{"internalType":"address","name":"instanceAddr","type":"address"}],"internalType":"struct OrderManagement.st_orderUser","name":"buyerUser","type":"tuple"},{"components":[{"internalType":"string","name":"instanceName","type":"string"},{"internalType":"address","name":"instanceAddr","type":"address"}],"internalType":"struct OrderManagement.st_orderUser","name":"sellerUser","type":"tuple"},{"internalType":"enum EnumsLibrary.OrderStatus","name":"statusOrder","type":"uint8"}],"internalType":"struct OrderManagement.st_obatOrder[]","name":"","type":"tuple[]"}],"stateMutability":"view","type":"function"},{"inputs":[],"name":"getAvailableObatFromFactory","outputs":[{"components":[{"internalType":"string","name":"obatId","type":"string"},{"internalType":"string","name":"namaProduk","type":"string"},{"internalType":"string","name":"batchName","type":"string"},{"internalType":"uint8","name":"obatQuantity","type":"uint8"},{"internalType":"enum EnumsLibrary.ObatAvailability","name":"statusStok","type":"uint8"},{"internalType":"string","name":"ownerInstance","type":"string"}],"internalType":"struct ObatTradisional.st_obatOutputBatch[]","name":"","type":"tuple[]"}],"stateMutability":"view","type":"function"},{"inputs":[],"name":"obatTradisional","outputs":[{"internalType":"contract ObatTradisional","name":"","type":"address"}],"stateMutability":"view","type":"function"},{"inputs":[],"name":"roleManager","outputs":[{"internalType":"contract RoleManager","name":"","type":"address"}],"stateMutability":"view","type":"function"}],"evm":{"bytecode":{"linkReferences":{},"object":"608034608d57601f61171538819003918201601f19168301916001600160401b038311848410176092578084926040948552833981010312608d5760418160a8565b906001600160a01b039060559060200160a8565b1660018060a01b0319600154161760015560018060a01b031660018060a01b0319600054161760005560405161165990816100bc8239f35b600080fd5b634e487b7160e01b600052604160045260246000fd5b51906001600160a01b0382168203608d5756fe608080604052600436101561001357600080fd5b600090813560e01c908162435da514610e8e575080631c2fc29214610db857806333cec588146109ac57806360e4b3cf14610854578063ce7ab1c7146104c8578063dd5739ae14610427578063e4376a0e146100a15763ea020d591461007857600080fd5b3461009e578060031936011261009e57546040516001600160a01b039091168152602090f35b80fd5b503461009e5760c036600319011261009e576004356001600160401b038111610423576100d2903690600401610f3c565b906024356001600160401b038111610423576100f2903690600401610f3c565b916044356001600160401b03811161041f57610112903690600401610f3c565b926064356001600160401b03811161041b57610132903690600401610f3c565b6084356001600160401b03811161041757610151903690600401610f3c565b9160a4359560ff87168097036104135761016961124c565b5060405161017681610ee5565b83815233602082015261018761124c565b506040519161019583610ee5565b858352876020840152604051936101ab85610eb3565b878552602085015260408401526020976040516101c88a82610f00565b8881526060850152608084015260a083015260c08201528460e082015260e06009604051888188516101fd8183858d01610f88565b8101600481520301902061021284518261135f565b61022360208501516001830161135f565b61023460408501516002830161135f565b61024560608501516003830161135f565b6004810160ff60808601511660ff1982541617905560a084015161026d81516005840161135f565b8901516006820180546001600160a01b0319166001600160a01b039290921691909117905560c084015180516102a6906007840161135f565b8901516008820180546001600160a01b0319166001600160a01b0392909216919091179055919092015191019060038110156103ff5760ff80198354169116179055600254600160401b8110156103eb578060016103099201600255600261111a565b6103d7578561035a936103298661033c8482976103298461034b9961135f565b8160405193828580945193849201610f88565b8101600681520301902061146a565b8101600781520301902061146a565b604051606081018181106001600160401b038211176103c3576103c093946002916040524283528083018681526040840191878352604051908187516103a38183858c01610f88565b8101600581520301902093518455516001840155519101556114f2565b80f35b634e487b7160e01b84526041600452602484fd5b634e487b7160e01b85526004859052602485fd5b634e487b7160e01b85526041600452602485fd5b634e487b7160e01b86526021600452602486fd5b8580fd5b8480fd5b8380fd5b8280fd5b5080fd5b503461009e57602036600319011261009e57600435600254811015610423576002548110156104b457600282527f405787fa12a823e0f2b7631cc41b3ba8828b3321ca811111fa75cd3aa3bb5ace0190806104a05761049c61048883611182565b604051918291602083526020830190610fab565b0390f35b634e487b7160e01b81526004819052602490fd5b634e487b7160e01b82526032600452602482fd5b503461009e578060031936011261009e57600180546040516395a8c58d60e01b81523360048201526024810192909252602090829060449082906001600160a01b03165afa9081156107ea578291610825575b50156107f5578054604051630a1e0a4b60e41b8152908290829060049082906001600160a01b03165afa9081156107ea57829161063d575b5090604051918291602083016020845282518091526040840190602060408260051b870101940192805b82821061058a5786860387f35b919395509193603f198782030185528551906105d96105c76105b5845160c0855260c0850190610fab565b60208501518482036020860152610fab565b60408401518382036040850152610fab565b9160ff606082015116606083015260808101516002811015610629576001938360a0602095946106199460808897015201519060a0818403910152610fab565b970195019201869594939161057d565b634e487b7160e01b85526021600452602485fd5b90503d8083833e61064e8183610f00565b81019060208183031261041f578051906001600160401b03821161041b570181601f8201121561041f5780519061068482611103565b926106926040519485610f00565b82845260208085019360051b830101918183116104135760208101935b8385106106c157505050505038610553565b84516001600160401b0381116107e65782019060c0828503601f1901126107e6576040519060c082018281106001600160401b038211176107d25760405260208301516001600160401b0381116107ce57856020610721928601016114ad565b825260408301516001600160401b0381116107ce57856020610745928601016114ad565b602083015260608301516001600160401b0381116107ce5785602061076c928601016114ad565b6040830152608083015160ff811681036107ce57606083015260a083015160028110156107ce57608083015260c0830151916001600160401b0383116107ce576107be866020809695819601016114ad565b60a08201528152019401936106af565b8980fd5b634e487b7160e01b8a52604160045260248afd5b8780fd5b6040513d84823e3d90fd5b60405162461bcd60e51b815260206004820152600860248201526727b7363c9028212360c11b6044820152606490fd5b610847915060203d60201161084d575b61083f8183610f00565b810190611347565b3861051b565b503d610835565b503461009e57602036600319011261009e576004356001600160401b03811161042357610885903690600401610f3c565b6040518151906020818185019361089d818387610f88565b8101600681520301902054916108b283611266565b935b8381106108c9576040518061049c8782610ff9565b806109056109006108fa600194604051602081806108eb8c8c51928391610f88565b8101600681520301902061111a565b50611182565b611226565b61099060ff60096040519361091985610eb3565b61092281611182565b855261092f878201611182565b602086015261094060028201611182565b604086015261095160038201611182565b606086015282600482015416608086015261096e6005820161130d565b60a086015261097f6007820161130d565b60c086015201541660e0830161133b565b61099a82886112f9565b526109a581876112f9565b50016108b4565b503461009e57606036600319011261009e576004356001600160401b038111610423576109dd903690600401610f3c565b906024356001600160401b038111610423576109fd903690600401610f3c565b91604435906001600160401b03821161041f573660238301121561041f57816004013592610a2a84611103565b92610a386040519485610f00565b848452602084019460051b81016024018536821161041b5760248301905b828210610d895750506001546040516395a8c58d60e01b815233600482015260248101859052925060209150829060449082906001600160a01b03165afa9081156107ea578291610d6a575b5015610d365760405194610ad483519660208181870199610ac481838d610f88565b8101600481520301902054611148565b15610cfc57610b03600160405160208180610af38c8a51928391610f88565b8101600481520301902001611182565b90610b31816003610b2160208b604051809381928c51928391610f88565b810160048152030190200161135f565b600860405160208180610b488c8a51928391610f88565b6004908201908152030190200180546001600160a01b031916331790556040518451600991906020908290610b7e81838e610f88565b8101600481520301902001600160ff1982541617905560405160018551610ba681848c610f88565b820191600583526020814294030190200155825b8551811015610c0157600190610bfb610be060208b604051809381928c51928391610f88565b81016003815203019020610bf4838a6112f9565b519061146a565b01610bba565b50919490929360018060a01b0386541692833b15610cf85791869391610c58610c469694604051978896631d38299760e31b8852606060048901526064880190610fab565b86810360031901602488015290610fab565b9060031985830301604486015251808252602082019160208260051b820101939287915b838310610cc557505050505082809103915afa8015610cba57610ca4575b506103c0906114f2565b91610cb3816103c09394610f00565b9190610c9a565b6040513d85823e3d90fd5b9295975092955092602080610ce6600193601f198682030187528951610fab565b9701930193018795938a979592610c7c565b8680fd5b60405162461bcd60e51b815260206004820152601260248201527113dc99195c881251081b9bdd08195e1a5cdd60721b6044820152606490fd5b60405162461bcd60e51b815260206004820152600c60248201526b4f6e6c7920466163746f727960a01b6044820152606490fd5b610d83915060203d60201161084d5761083f8183610f00565b38610aa2565b81356001600160401b03811161041357602091610dad839260243691890101610f3c565b815201910190610a56565b503461009e57602036600319011261009e576004356001600160401b03811161042357610de9903690600401610f3c565b60405181519060208181850193610e01818387610f88565b810160078152030190205491610e1683611266565b935b838110610e2d576040518061049c8782610ff9565b80610e5e6109006108fa60019460405160208180610e4f8c8c51928391610f88565b8101600781520301902061111a565b610e7260ff60096040519361091985610eb3565b610e7c82886112f9565b52610e8781876112f9565b5001610e18565b9050346104235781600319360112610423576001546001600160a01b03168152602090f35b61010081019081106001600160401b03821117610ecf57604052565b634e487b7160e01b600052604160045260246000fd5b604081019081106001600160401b03821117610ecf57604052565b90601f801991011681019081106001600160401b03821117610ecf57604052565b6001600160401b038111610ecf57601f01601f191660200190565b81601f82011215610f8357803590610f5382610f21565b92610f616040519485610f00565b82845260208383010111610f8357816000926020809301838601378301015290565b600080fd5b60005b838110610f9b5750506000910152565b8181015183820152602001610f8b565b90602091610fc481518092818552858086019101610f88565b601f01601f1916010190565b906020610fe68351604084526040840190610fab565b928101516001600160a01b031691015290565b6020810160208252825180915260408201602060408360051b8501019401926000905b83821061102b57505050505090565b9091929394603f1982820301845285519060e06110c96110b761109861108661107461106288516101008952610100890190610fab565b602089015188820360208a0152610fab565b60408801518782036040890152610fab565b60608701518682036060880152610fab565b60ff608087015116608086015260a086015185820360a0870152610fd0565b60c085015184820360c0860152610fd0565b9201519060038210156110ed5760e00152946020908101949301916001019061101c565b634e487b7160e01b600052602160045260246000fd5b6001600160401b038111610ecf5760051b60200190565b80548210156111325760005260206000200190600090565b634e487b7160e01b600052603260045260246000fd5b90600182811c92168015611178575b602083101461116257565b634e487b7160e01b600052602260045260246000fd5b91607f1691611157565b906040519182600082549261119684611148565b808452936001811690811561120457506001146111bd575b506111bb92500383610f00565b565b90506000929192526020600020906000915b8183106111e85750509060206111bb92820101386111ae565b60209193508060019154838589010152019101909184926111cf565b9050602092506111bb94915060ff191682840152151560051b820101386111ae565b602061123f918160405193828580945193849201610f88565b8101600481520301902090565b6040519061125982610ee5565b6000602083606081520152565b9061127082611103565b61127d6040519182610f00565b828152809261128e601f1991611103565b019060005b82811061129f57505050565b6020906040516112ae81610eb3565b6060815260608382015260606040820152606080820152600060808201526112d461124c565b60a08201526112e161124c565b60c0820152600060e082015282828501015201611293565b80518210156111325760209160051b010190565b9060405161131a81610ee5565b6020819361132781611182565b8352600101546001600160a01b0316910152565b60038210156110ed5752565b90816020910312610f8357518015158103610f835790565b91909182516001600160401b038111610ecf5761137c8254611148565b601f8111611422575b506020601f82116001146113c057819293946000926113b5575b50508160011b916000199060031b1c1916179055565b01519050388061139f565b601f1982169083600052806000209160005b81811061140a575095836001959697106113f1575b505050811b019055565b015160001960f88460031b161c191690553880806113e7565b9192602060018192868b0151815501940192016113d2565b826000526020600020601f830160051c81019160208410611460575b601f0160051c01905b8181106114545750611385565b60008155600101611447565b909150819061143e565b8054600160401b811015610ecf576114879160018201815561111a565b919091611497576111bb9161135f565b634e487b7160e01b600052600060045260246000fd5b81601f82011215610f835780516114c381610f21565b926114d16040519485610f00565b81845260208284010111610f83576114ef9160208085019101610f88565b90565b6115f661152f60207f51442564a7c47c90ee6057daec7dada1d5132c3a496854bbc4c003de6f711336938160405193828580945193849201610f88565b810160048152030190206040519061154682610eb3565b61154f81611182565b825261155d60018201611182565b602083015261161261157160028301611182565b6040840190815261158460038401611182565b606085015261160460ff8060048601541692608087019384526115d76115ac6005880161130d565b9760a0810198895260e08460096115c560078c0161130d565b9a60c085019b8c52015416910161133b565b519551519451519251169360405196879660a0885260a0880190610fab565b908682036020880152610fab565b908482036040860152610fab565b9060608301524260808301520390a156fea2646970667358221220f89d0d9d7728631fa004179be21ffd5148e24cbdcbe5538863e30c76b2df680764736f6c634300081b0033","opcodes":"PUSH1 0x80 CALLVALUE PUSH1 0x8D JUMPI PUSH1 0x1F PUSH2 0x1715 CODESIZE DUP2 SWAP1 SUB SWAP2 DUP3 ADD PUSH1 0x1F NOT AND DUP4 ADD SWAP2 PUSH1 0x1 PUSH1 0x1 PUSH1 0x40 SHL SUB DUP4 GT DUP5 DUP5 LT OR PUSH1 0x92 JUMPI DUP1 DUP5 SWAP3 PUSH1 0x40 SWAP5 DUP6 MSTORE DUP4 CODECOPY DUP2 ADD SUB SLT PUSH1 0x8D JUMPI PUSH1 0x41 DUP2 PUSH1 0xA8 JUMP JUMPDEST SWAP1 PUSH1 0x1 PUSH1 0x1 PUSH1 0xA0 SHL SUB SWAP1 PUSH1 0x55 SWAP1 PUSH1 0x20 ADD PUSH1 0xA8 JUMP JUMPDEST AND PUSH1 0x1 DUP1 PUSH1 0xA0 SHL SUB NOT PUSH1 0x1 SLOAD AND OR PUSH1 0x1 SSTORE PUSH1 0x1 DUP1 PUSH1 0xA0 SHL SUB AND PUSH1 0x1 DUP1 PUSH1 0xA0 SHL SUB NOT PUSH1 0x0 SLOAD AND OR PUSH1 0x0 SSTORE PUSH1 0x40 MLOAD PUSH2 0x1659 SWAP1 DUP2 PUSH2 0xBC DUP3 CODECOPY RETURN JUMPDEST PUSH1 0x0 DUP1 REVERT JUMPDEST PUSH4 0x4E487B71 PUSH1 0xE0 SHL PUSH1 0x0 MSTORE PUSH1 0x41 PUSH1 0x4 MSTORE PUSH1 0x24 PUSH1 0x0 REVERT JUMPDEST MLOAD SWAP1 PUSH1 0x1 PUSH1 0x1 PUSH1 0xA0 SHL SUB DUP3 AND DUP3 SUB PUSH1 0x8D JUMPI JUMP INVALID PUSH1 0x80 DUP1 PUSH1 0x40 MSTORE PUSH1 0x4 CALLDATASIZE LT ISZERO PUSH2 0x13 JUMPI PUSH1 0x0 DUP1 REVERT JUMPDEST PUSH1 0x0 SWAP1 DUP2 CALLDATALOAD PUSH1 0xE0 SHR SWAP1 DUP2 PUSH3 0x435DA5 EQ PUSH2 0xE8E JUMPI POP DUP1 PUSH4 0x1C2FC292 EQ PUSH2 0xDB8 JUMPI DUP1 PUSH4 0x33CEC588 EQ PUSH2 0x9AC JUMPI DUP1 PUSH4 0x60E4B3CF EQ PUSH2 0x854 JUMPI DUP1 PUSH4 0xCE7AB1C7 EQ PUSH2 0x4C8 JUMPI DUP1 PUSH4 0xDD5739AE EQ PUSH2 0x427 JUMPI DUP1 PUSH4 0xE4376A0E EQ PUSH2 0xA1 JUMPI PUSH4 0xEA020D59 EQ PUSH2 0x78 JUMPI PUSH1 0x0 DUP1 REVERT JUMPDEST CALLVALUE PUSH2 0x9E JUMPI DUP1 PUSH1 0x3 NOT CALLDATASIZE ADD SLT PUSH2 0x9E JUMPI SLOAD PUSH1 0x40 MLOAD PUSH1 0x1 PUSH1 0x1 PUSH1 0xA0 SHL SUB SWAP1 SWAP2 AND DUP2 MSTORE PUSH1 0x20 SWAP1 RETURN JUMPDEST DUP1 REVERT JUMPDEST POP CALLVALUE PUSH2 0x9E JUMPI PUSH1 0xC0 CALLDATASIZE PUSH1 0x3 NOT ADD SLT PUSH2 0x9E JUMPI PUSH1 0x4 CALLDATALOAD PUSH1 0x1 PUSH1 0x1 PUSH1 0x40 SHL SUB DUP2 GT PUSH2 0x423 JUMPI PUSH2 0xD2 SWAP1 CALLDATASIZE SWAP1 PUSH1 0x4 ADD PUSH2 0xF3C JUMP JUMPDEST SWAP1 PUSH1 0x24 CALLDATALOAD PUSH1 0x1 PUSH1 0x1 PUSH1 0x40 SHL SUB DUP2 GT PUSH2 0x423 JUMPI PUSH2 0xF2 SWAP1 CALLDATASIZE SWAP1 PUSH1 0x4 ADD PUSH2 0xF3C JUMP JUMPDEST SWAP2 PUSH1 0x44 CALLDATALOAD PUSH1 0x1 PUSH1 0x1 PUSH1 0x40 SHL SUB DUP2 GT PUSH2 0x41F JUMPI PUSH2 0x112 SWAP1 CALLDATASIZE SWAP1 PUSH1 0x4 ADD PUSH2 0xF3C JUMP JUMPDEST SWAP3 PUSH1 0x64 CALLDATALOAD PUSH1 0x1 PUSH1 0x1 PUSH1 0x40 SHL SUB DUP2 GT PUSH2 0x41B JUMPI PUSH2 0x132 SWAP1 CALLDATASIZE SWAP1 PUSH1 0x4 ADD PUSH2 0xF3C JUMP JUMPDEST PUSH1 0x84 CALLDATALOAD PUSH1 0x1 PUSH1 0x1 PUSH1 0x40 SHL SUB DUP2 GT PUSH2 0x417 JUMPI PUSH2 0x151 SWAP1 CALLDATASIZE SWAP1 PUSH1 0x4 ADD PUSH2 0xF3C JUMP JUMPDEST SWAP2 PUSH1 0xA4 CALLDATALOAD SWAP6 PUSH1 0xFF DUP8 AND DUP1 SWAP8 SUB PUSH2 0x413 JUMPI PUSH2 0x169 PUSH2 0x124C JUMP JUMPDEST POP PUSH1 0x40 MLOAD PUSH2 0x176 DUP2 PUSH2 0xEE5 JUMP JUMPDEST DUP4 DUP2 MSTORE CALLER PUSH1 0x20 DUP3 ADD MSTORE PUSH2 0x187 PUSH2 0x124C JUMP JUMPDEST POP PUSH1 0x40 MLOAD SWAP2 PUSH2 0x195 DUP4 PUSH2 0xEE5 JUMP JUMPDEST DUP6 DUP4 MSTORE DUP8 PUSH1 0x20 DUP5 ADD MSTORE PUSH1 0x40 MLOAD SWAP4 PUSH2 0x1AB DUP6 PUSH2 0xEB3 JUMP JUMPDEST DUP8 DUP6 MSTORE PUSH1 0x20 DUP6 ADD MSTORE PUSH1 0x40 DUP5 ADD MSTORE PUSH1 0x20 SWAP8 PUSH1 0x40 MLOAD PUSH2 0x1C8 DUP11 DUP3 PUSH2 0xF00 JUMP JUMPDEST DUP9 DUP2 MSTORE PUSH1 0x60 DUP6 ADD MSTORE PUSH1 0x80 DUP5 ADD MSTORE PUSH1 0xA0 DUP4 ADD MSTORE PUSH1 0xC0 DUP3 ADD MSTORE DUP5 PUSH1 0xE0 DUP3 ADD MSTORE PUSH1 0xE0 PUSH1 0x9 PUSH1 0x40 MLOAD DUP9 DUP2 DUP9 MLOAD PUSH2 0x1FD DUP2 DUP4 DUP6 DUP14 ADD PUSH2 0xF88 JUMP JUMPDEST DUP2 ADD PUSH1 0x4 DUP2 MSTORE SUB ADD SWAP1 KECCAK256 PUSH2 0x212 DUP5 MLOAD DUP3 PUSH2 0x135F JUMP JUMPDEST PUSH2 0x223 PUSH1 0x20 DUP6 ADD MLOAD PUSH1 0x1 DUP4 ADD PUSH2 0x135F JUMP JUMPDEST PUSH2 0x234 PUSH1 0x40 DUP6 ADD MLOAD PUSH1 0x2 DUP4 ADD PUSH2 0x135F JUMP JUMPDEST PUSH2 0x245 PUSH1 0x60 DUP6 ADD MLOAD PUSH1 0x3 DUP4 ADD PUSH2 0x135F JUMP JUMPDEST PUSH1 0x4 DUP2 ADD PUSH1 0xFF PUSH1 0x80 DUP7 ADD MLOAD AND PUSH1 0xFF NOT DUP3 SLOAD AND OR SWAP1 SSTORE PUSH1 0xA0 DUP5 ADD MLOAD PUSH2 0x26D DUP2 MLOAD PUSH1 0x5 DUP5 ADD PUSH2 0x135F JUMP JUMPDEST DUP10 ADD MLOAD PUSH1 0x6 DUP3 ADD DUP1 SLOAD PUSH1 0x1 PUSH1 0x1 PUSH1 0xA0 SHL SUB NOT AND PUSH1 0x1 PUSH1 0x1 PUSH1 0xA0 SHL SUB SWAP3 SWAP1 SWAP3 AND SWAP2 SWAP1 SWAP2 OR SWAP1 SSTORE PUSH1 0xC0 DUP5 ADD MLOAD DUP1 MLOAD PUSH2 0x2A6 SWAP1 PUSH1 0x7 DUP5 ADD PUSH2 0x135F JUMP JUMPDEST DUP10 ADD MLOAD PUSH1 0x8 DUP3 ADD DUP1 SLOAD PUSH1 0x1 PUSH1 0x1 PUSH1 0xA0 SHL SUB NOT AND PUSH1 0x1 PUSH1 0x1 PUSH1 0xA0 SHL SUB SWAP3 SWAP1 SWAP3 AND SWAP2 SWAP1 SWAP2 OR SWAP1 SSTORE SWAP2 SWAP1 SWAP3 ADD MLOAD SWAP2 ADD SWAP1 PUSH1 0x3 DUP2 LT ISZERO PUSH2 0x3FF JUMPI PUSH1 0xFF DUP1 NOT DUP4 SLOAD AND SWAP2 AND OR SWAP1 SSTORE PUSH1 0x2 SLOAD PUSH1 0x1 PUSH1 0x40 SHL DUP2 LT ISZERO PUSH2 0x3EB JUMPI DUP1 PUSH1 0x1 PUSH2 0x309 SWAP3 ADD PUSH1 0x2 SSTORE PUSH1 0x2 PUSH2 0x111A JUMP JUMPDEST PUSH2 0x3D7 JUMPI DUP6 PUSH2 0x35A SWAP4 PUSH2 0x329 DUP7 PUSH2 0x33C DUP5 DUP3 SWAP8 PUSH2 0x329 DUP5 PUSH2 0x34B SWAP10 PUSH2 0x135F JUMP JUMPDEST DUP2 PUSH1 0x40 MLOAD SWAP4 DUP3 DUP6 DUP1 SWAP5 MLOAD SWAP4 DUP5 SWAP3 ADD PUSH2 0xF88 JUMP JUMPDEST DUP2 ADD PUSH1 0x6 DUP2 MSTORE SUB ADD SWAP1 KECCAK256 PUSH2 0x146A JUMP JUMPDEST DUP2 ADD PUSH1 0x7 DUP2 MSTORE SUB ADD SWAP1 KECCAK256 PUSH2 0x146A JUMP JUMPDEST PUSH1 0x40 MLOAD PUSH1 0x60 DUP2 ADD DUP2 DUP2 LT PUSH1 0x1 PUSH1 0x1 PUSH1 0x40 SHL SUB DUP3 GT OR PUSH2 0x3C3 JUMPI PUSH2 0x3C0 SWAP4 SWAP5 PUSH1 0x2 SWAP2 PUSH1 0x40 MSTORE TIMESTAMP DUP4 MSTORE DUP1 DUP4 ADD DUP7 DUP2 MSTORE PUSH1 0x40 DUP5 ADD SWAP2 DUP8 DUP4 MSTORE PUSH1 0x40 MLOAD SWAP1 DUP2 DUP8 MLOAD PUSH2 0x3A3 DUP2 DUP4 DUP6 DUP13 ADD PUSH2 0xF88 JUMP JUMPDEST DUP2 ADD PUSH1 0x5 DUP2 MSTORE SUB ADD SWAP1 KECCAK256 SWAP4 MLOAD DUP5 SSTORE MLOAD PUSH1 0x1 DUP5 ADD SSTORE MLOAD SWAP2 ADD SSTORE PUSH2 0x14F2 JUMP JUMPDEST DUP1 RETURN JUMPDEST PUSH4 0x4E487B71 PUSH1 0xE0 SHL DUP5 MSTORE PUSH1 0x41 PUSH1 0x4 MSTORE PUSH1 0x24 DUP5 REVERT JUMPDEST PUSH4 0x4E487B71 PUSH1 0xE0 SHL DUP6 MSTORE PUSH1 0x4 DUP6 SWAP1 MSTORE PUSH1 0x24 DUP6 REVERT JUMPDEST PUSH4 0x4E487B71 PUSH1 0xE0 SHL DUP6 MSTORE PUSH1 0x41 PUSH1 0x4 MSTORE PUSH1 0x24 DUP6 REVERT JUMPDEST PUSH4 0x4E487B71 PUSH1 0xE0 SHL DUP7 MSTORE PUSH1 0x21 PUSH1 0x4 MSTORE PUSH1 0x24 DUP7 REVERT JUMPDEST DUP6 DUP1 REVERT JUMPDEST DUP5 DUP1 REVERT JUMPDEST DUP4 DUP1 REVERT JUMPDEST DUP3 DUP1 REVERT JUMPDEST POP DUP1 REVERT JUMPDEST POP CALLVALUE PUSH2 0x9E JUMPI PUSH1 0x20 CALLDATASIZE PUSH1 0x3 NOT ADD SLT PUSH2 0x9E JUMPI PUSH1 0x4 CALLDATALOAD PUSH1 0x2 SLOAD DUP2 LT ISZERO PUSH2 0x423 JUMPI PUSH1 0x2 SLOAD DUP2 LT ISZERO PUSH2 0x4B4 JUMPI PUSH1 0x2 DUP3 MSTORE PUSH32 0x405787FA12A823E0F2B7631CC41B3BA8828B3321CA811111FA75CD3AA3BB5ACE ADD SWAP1 DUP1 PUSH2 0x4A0 JUMPI PUSH2 0x49C PUSH2 0x488 DUP4 PUSH2 0x1182 JUMP JUMPDEST PUSH1 0x40 MLOAD SWAP2 DUP3 SWAP2 PUSH1 0x20 DUP4 MSTORE PUSH1 0x20 DUP4 ADD SWAP1 PUSH2 0xFAB JUMP JUMPDEST SUB SWAP1 RETURN JUMPDEST PUSH4 0x4E487B71 PUSH1 0xE0 SHL DUP2 MSTORE PUSH1 0x4 DUP2 SWAP1 MSTORE PUSH1 0x24 SWAP1 REVERT JUMPDEST PUSH4 0x4E487B71 PUSH1 0xE0 SHL DUP3 MSTORE PUSH1 0x32 PUSH1 0x4 MSTORE PUSH1 0x24 DUP3 REVERT JUMPDEST POP CALLVALUE PUSH2 0x9E JUMPI DUP1 PUSH1 0x3 NOT CALLDATASIZE ADD SLT PUSH2 0x9E JUMPI PUSH1 0x1 DUP1 SLOAD PUSH1 0x40 MLOAD PUSH4 0x95A8C58D PUSH1 0xE0 SHL DUP2 MSTORE CALLER PUSH1 0x4 DUP3 ADD MSTORE PUSH1 0x24 DUP2 ADD SWAP3 SWAP1 SWAP3 MSTORE PUSH1 0x20 SWAP1 DUP3 SWAP1 PUSH1 0x44 SWAP1 DUP3 SWAP1 PUSH1 0x1 PUSH1 0x1 PUSH1 0xA0 SHL SUB AND GAS STATICCALL SWAP1 DUP2 ISZERO PUSH2 0x7EA JUMPI DUP3 SWAP2 PUSH2 0x825 JUMPI JUMPDEST POP ISZERO PUSH2 0x7F5 JUMPI DUP1 SLOAD PUSH1 0x40 MLOAD PUSH4 0xA1E0A4B PUSH1 0xE4 SHL DUP2 MSTORE SWAP1 DUP3 SWAP1 DUP3 SWAP1 PUSH1 0x4 SWAP1 DUP3 SWAP1 PUSH1 0x1 PUSH1 0x1 PUSH1 0xA0 SHL SUB AND GAS STATICCALL SWAP1 DUP2 ISZERO PUSH2 0x7EA JUMPI DUP3 SWAP2 PUSH2 0x63D JUMPI JUMPDEST POP SWAP1 PUSH1 0x40 MLOAD SWAP2 DUP3 SWAP2 PUSH1 0x20 DUP4 ADD PUSH1 0x20 DUP5 MSTORE DUP3 MLOAD DUP1 SWAP2 MSTORE PUSH1 0x40 DUP5 ADD SWAP1 PUSH1 0x20 PUSH1 0x40 DUP3 PUSH1 0x5 SHL DUP8 ADD ADD SWAP5 ADD SWAP3 DUP1 JUMPDEST DUP3 DUP3 LT PUSH2 0x58A JUMPI DUP7 DUP7 SUB DUP8 RETURN JUMPDEST SWAP2 SWAP4 SWAP6 POP SWAP2 SWAP4 PUSH1 0x3F NOT DUP8 DUP3 SUB ADD DUP6 MSTORE DUP6 MLOAD SWAP1 PUSH2 0x5D9 PUSH2 0x5C7 PUSH2 0x5B5 DUP5 MLOAD PUSH1 0xC0 DUP6 MSTORE PUSH1 0xC0 DUP6 ADD SWAP1 PUSH2 0xFAB JUMP JUMPDEST PUSH1 0x20 DUP6 ADD MLOAD DUP5 DUP3 SUB PUSH1 0x20 DUP7 ADD MSTORE PUSH2 0xFAB JUMP JUMPDEST PUSH1 0x40 DUP5 ADD MLOAD DUP4 DUP3 SUB PUSH1 0x40 DUP6 ADD MSTORE PUSH2 0xFAB JUMP JUMPDEST SWAP2 PUSH1 0xFF PUSH1 0x60 DUP3 ADD MLOAD AND PUSH1 0x60 DUP4 ADD MSTORE PUSH1 0x80 DUP2 ADD MLOAD PUSH1 0x2 DUP2 LT ISZERO PUSH2 0x629 JUMPI PUSH1 0x1 SWAP4 DUP4 PUSH1 0xA0 PUSH1 0x20 SWAP6 SWAP5 PUSH2 0x619 SWAP5 PUSH1 0x80 DUP9 SWAP8 ADD MSTORE ADD MLOAD SWAP1 PUSH1 0xA0 DUP2 DUP5 SUB SWAP2 ADD MSTORE PUSH2 0xFAB JUMP JUMPDEST SWAP8 ADD SWAP6 ADD SWAP3 ADD DUP7 SWAP6 SWAP5 SWAP4 SWAP2 PUSH2 0x57D JUMP JUMPDEST PUSH4 0x4E487B71 PUSH1 0xE0 SHL DUP6 MSTORE PUSH1 0x21 PUSH1 0x4 MSTORE PUSH1 0x24 DUP6 REVERT JUMPDEST SWAP1 POP RETURNDATASIZE DUP1 DUP4 DUP4 RETURNDATACOPY PUSH2 0x64E DUP2 DUP4 PUSH2 0xF00 JUMP JUMPDEST DUP2 ADD SWAP1 PUSH1 0x20 DUP2 DUP4 SUB SLT PUSH2 0x41F JUMPI DUP1 MLOAD SWAP1 PUSH1 0x1 PUSH1 0x1 PUSH1 0x40 SHL SUB DUP3 GT PUSH2 0x41B JUMPI ADD DUP2 PUSH1 0x1F DUP3 ADD SLT ISZERO PUSH2 0x41F JUMPI DUP1 MLOAD SWAP1 PUSH2 0x684 DUP3 PUSH2 0x1103 JUMP JUMPDEST SWAP3 PUSH2 0x692 PUSH1 0x40 MLOAD SWAP5 DUP6 PUSH2 0xF00 JUMP JUMPDEST DUP3 DUP5 MSTORE PUSH1 0x20 DUP1 DUP6 ADD SWAP4 PUSH1 0x5 SHL DUP4 ADD ADD SWAP2 DUP2 DUP4 GT PUSH2 0x413 JUMPI PUSH1 0x20 DUP2 ADD SWAP4 JUMPDEST DUP4 DUP6 LT PUSH2 0x6C1 JUMPI POP POP POP POP POP CODESIZE PUSH2 0x553 JUMP JUMPDEST DUP5 MLOAD PUSH1 0x1 PUSH1 0x1 PUSH1 0x40 SHL SUB DUP2 GT PUSH2 0x7E6 JUMPI DUP3 ADD SWAP1 PUSH1 0xC0 DUP3 DUP6 SUB PUSH1 0x1F NOT ADD SLT PUSH2 0x7E6 JUMPI PUSH1 0x40 MLOAD SWAP1 PUSH1 0xC0 DUP3 ADD DUP3 DUP2 LT PUSH1 0x1 PUSH1 0x1 PUSH1 0x40 SHL SUB DUP3 GT OR PUSH2 0x7D2 JUMPI PUSH1 0x40 MSTORE PUSH1 0x20 DUP4 ADD MLOAD PUSH1 0x1 PUSH1 0x1 PUSH1 0x40 SHL SUB DUP2 GT PUSH2 0x7CE JUMPI DUP6 PUSH1 0x20 PUSH2 0x721 SWAP3 DUP7 ADD ADD PUSH2 0x14AD JUMP JUMPDEST DUP3 MSTORE PUSH1 0x40 DUP4 ADD MLOAD PUSH1 0x1 PUSH1 0x1 PUSH1 0x40 SHL SUB DUP2 GT PUSH2 0x7CE JUMPI DUP6 PUSH1 0x20 PUSH2 0x745 SWAP3 DUP7 ADD ADD PUSH2 0x14AD JUMP JUMPDEST PUSH1 0x20 DUP4 ADD MSTORE PUSH1 0x60 DUP4 ADD MLOAD PUSH1 0x1 PUSH1 0x1 PUSH1 0x40 SHL SUB DUP2 GT PUSH2 0x7CE JUMPI DUP6 PUSH1 0x20 PUSH2 0x76C SWAP3 DUP7 ADD ADD PUSH2 0x14AD JUMP JUMPDEST PUSH1 0x40 DUP4 ADD MSTORE PUSH1 0x80 DUP4 ADD MLOAD PUSH1 0xFF DUP2 AND DUP2 SUB PUSH2 0x7CE JUMPI PUSH1 0x60 DUP4 ADD MSTORE PUSH1 0xA0 DUP4 ADD MLOAD PUSH1 0x2 DUP2 LT ISZERO PUSH2 0x7CE JUMPI PUSH1 0x80 DUP4 ADD MSTORE PUSH1 0xC0 DUP4 ADD MLOAD SWAP2 PUSH1 0x1 PUSH1 0x1 PUSH1 0x40 SHL SUB DUP4 GT PUSH2 0x7CE JUMPI PUSH2 0x7BE DUP7 PUSH1 0x20 DUP1 SWAP7 SWAP6 DUP2 SWAP7 ADD ADD PUSH2 0x14AD JUMP JUMPDEST PUSH1 0xA0 DUP3 ADD MSTORE DUP2 MSTORE ADD SWAP5 ADD SWAP4 PUSH2 0x6AF JUMP JUMPDEST DUP10 DUP1 REVERT JUMPDEST PUSH4 0x4E487B71 PUSH1 0xE0 SHL DUP11 MSTORE PUSH1 0x41 PUSH1 0x4 MSTORE PUSH1 0x24 DUP11 REVERT JUMPDEST DUP8 DUP1 REVERT JUMPDEST PUSH1 0x40 MLOAD RETURNDATASIZE DUP5 DUP3 RETURNDATACOPY RETURNDATASIZE SWAP1 REVERT JUMPDEST PUSH1 0x40 MLOAD PUSH3 0x461BCD PUSH1 0xE5 SHL DUP2 MSTORE PUSH1 0x20 PUSH1 0x4 DUP3 ADD MSTORE PUSH1 0x8 PUSH1 0x24 DUP3 ADD MSTORE PUSH8 0x27B7363C90282123 PUSH1 0xC1 SHL PUSH1 0x44 DUP3 ADD MSTORE PUSH1 0x64 SWAP1 REVERT JUMPDEST PUSH2 0x847 SWAP2 POP PUSH1 0x20 RETURNDATASIZE PUSH1 0x20 GT PUSH2 0x84D JUMPI JUMPDEST PUSH2 0x83F DUP2 DUP4 PUSH2 0xF00 JUMP JUMPDEST DUP2 ADD SWAP1 PUSH2 0x1347 JUMP JUMPDEST CODESIZE PUSH2 0x51B JUMP JUMPDEST POP RETURNDATASIZE PUSH2 0x835 JUMP JUMPDEST POP CALLVALUE PUSH2 0x9E JUMPI PUSH1 0x20 CALLDATASIZE PUSH1 0x3 NOT ADD SLT PUSH2 0x9E JUMPI PUSH1 0x4 CALLDATALOAD PUSH1 0x1 PUSH1 0x1 PUSH1 0x40 SHL SUB DUP2 GT PUSH2 0x423 JUMPI PUSH2 0x885 SWAP1 CALLDATASIZE SWAP1 PUSH1 0x4 ADD PUSH2 0xF3C JUMP JUMPDEST PUSH1 0x40 MLOAD DUP2 MLOAD SWAP1 PUSH1 0x20 DUP2 DUP2 DUP6 ADD SWAP4 PUSH2 0x89D DUP2 DUP4 DUP8 PUSH2 0xF88 JUMP JUMPDEST DUP2 ADD PUSH1 0x6 DUP2 MSTORE SUB ADD SWAP1 KECCAK256 SLOAD SWAP2 PUSH2 0x8B2 DUP4 PUSH2 0x1266 JUMP JUMPDEST SWAP4 JUMPDEST DUP4 DUP2 LT PUSH2 0x8C9 JUMPI PUSH1 0x40 MLOAD DUP1 PUSH2 0x49C DUP8 DUP3 PUSH2 0xFF9 JUMP JUMPDEST DUP1 PUSH2 0x905 PUSH2 0x900 PUSH2 0x8FA PUSH1 0x1 SWAP5 PUSH1 0x40 MLOAD PUSH1 0x20 DUP2 DUP1 PUSH2 0x8EB DUP13 DUP13 MLOAD SWAP3 DUP4 SWAP2 PUSH2 0xF88 JUMP JUMPDEST DUP2 ADD PUSH1 0x6 DUP2 MSTORE SUB ADD SWAP1 KECCAK256 PUSH2 0x111A JUMP JUMPDEST POP PUSH2 0x1182 JUMP JUMPDEST PUSH2 0x1226 JUMP JUMPDEST PUSH2 0x990 PUSH1 0xFF PUSH1 0x9 PUSH1 0x40 MLOAD SWAP4 PUSH2 0x919 DUP6 PUSH2 0xEB3 JUMP JUMPDEST PUSH2 0x922 DUP2 PUSH2 0x1182 JUMP JUMPDEST DUP6 MSTORE PUSH2 0x92F DUP8 DUP3 ADD PUSH2 0x1182 JUMP JUMPDEST PUSH1 0x20 DUP7 ADD MSTORE PUSH2 0x940 PUSH1 0x2 DUP3 ADD PUSH2 0x1182 JUMP JUMPDEST PUSH1 0x40 DUP7 ADD MSTORE PUSH2 0x951 PUSH1 0x3 DUP3 ADD PUSH2 0x1182 JUMP JUMPDEST PUSH1 0x60 DUP7 ADD MSTORE DUP3 PUSH1 0x4 DUP3 ADD SLOAD AND PUSH1 0x80 DUP7 ADD MSTORE PUSH2 0x96E PUSH1 0x5 DUP3 ADD PUSH2 0x130D JUMP JUMPDEST PUSH1 0xA0 DUP7 ADD MSTORE PUSH2 0x97F PUSH1 0x7 DUP3 ADD PUSH2 0x130D JUMP JUMPDEST PUSH1 0xC0 DUP7 ADD MSTORE ADD SLOAD AND PUSH1 0xE0 DUP4 ADD PUSH2 0x133B JUMP JUMPDEST PUSH2 0x99A DUP3 DUP9 PUSH2 0x12F9 JUMP JUMPDEST MSTORE PUSH2 0x9A5 DUP2 DUP8 PUSH2 0x12F9 JUMP JUMPDEST POP ADD PUSH2 0x8B4 JUMP JUMPDEST POP CALLVALUE PUSH2 0x9E JUMPI PUSH1 0x60 CALLDATASIZE PUSH1 0x3 NOT ADD SLT PUSH2 0x9E JUMPI PUSH1 0x4 CALLDATALOAD PUSH1 0x1 PUSH1 0x1 PUSH1 0x40 SHL SUB DUP2 GT PUSH2 0x423 JUMPI PUSH2 0x9DD SWAP1 CALLDATASIZE SWAP1 PUSH1 0x4 ADD PUSH2 0xF3C JUMP JUMPDEST SWAP1 PUSH1 0x24 CALLDATALOAD PUSH1 0x1 PUSH1 0x1 PUSH1 0x40 SHL SUB DUP2 GT PUSH2 0x423 JUMPI PUSH2 0x9FD SWAP1 CALLDATASIZE SWAP1 PUSH1 0x4 ADD PUSH2 0xF3C JUMP JUMPDEST SWAP2 PUSH1 0x44 CALLDATALOAD SWAP1 PUSH1 0x1 PUSH1 0x1 PUSH1 0x40 SHL SUB DUP3 GT PUSH2 0x41F JUMPI CALLDATASIZE PUSH1 0x23 DUP4 ADD SLT ISZERO PUSH2 0x41F JUMPI DUP2 PUSH1 0x4 ADD CALLDATALOAD SWAP3 PUSH2 0xA2A DUP5 PUSH2 0x1103 JUMP JUMPDEST SWAP3 PUSH2 0xA38 PUSH1 0x40 MLOAD SWAP5 DUP6 PUSH2 0xF00 JUMP JUMPDEST DUP5 DUP5 MSTORE PUSH1 0x20 DUP5 ADD SWAP5 PUSH1 0x5 SHL DUP2 ADD PUSH1 0x24 ADD DUP6 CALLDATASIZE DUP3 GT PUSH2 0x41B JUMPI PUSH1 0x24 DUP4 ADD SWAP1 JUMPDEST DUP3 DUP3 LT PUSH2 0xD89 JUMPI POP POP PUSH1 0x1 SLOAD PUSH1 0x40 MLOAD PUSH4 0x95A8C58D PUSH1 0xE0 SHL DUP2 MSTORE CALLER PUSH1 0x4 DUP3 ADD MSTORE PUSH1 0x24 DUP2 ADD DUP6 SWAP1 MSTORE SWAP3 POP PUSH1 0x20 SWAP2 POP DUP3 SWAP1 PUSH1 0x44 SWAP1 DUP3 SWAP1 PUSH1 0x1 PUSH1 0x1 PUSH1 0xA0 SHL SUB AND GAS STATICCALL SWAP1 DUP2 ISZERO PUSH2 0x7EA JUMPI DUP3 SWAP2 PUSH2 0xD6A JUMPI JUMPDEST POP ISZERO PUSH2 0xD36 JUMPI PUSH1 0x40 MLOAD SWAP5 PUSH2 0xAD4 DUP4 MLOAD SWAP7 PUSH1 0x20 DUP2 DUP2 DUP8 ADD SWAP10 PUSH2 0xAC4 DUP2 DUP4 DUP14 PUSH2 0xF88 JUMP JUMPDEST DUP2 ADD PUSH1 0x4 DUP2 MSTORE SUB ADD SWAP1 KECCAK256 SLOAD PUSH2 0x1148 JUMP JUMPDEST ISZERO PUSH2 0xCFC JUMPI PUSH2 0xB03 PUSH1 0x1 PUSH1 0x40 MLOAD PUSH1 0x20 DUP2 DUP1 PUSH2 0xAF3 DUP13 DUP11 MLOAD SWAP3 DUP4 SWAP2 PUSH2 0xF88 JUMP JUMPDEST DUP2 ADD PUSH1 0x4 DUP2 MSTORE SUB ADD SWAP1 KECCAK256 ADD PUSH2 0x1182 JUMP JUMPDEST SWAP1 PUSH2 0xB31 DUP2 PUSH1 0x3 PUSH2 0xB21 PUSH1 0x20 DUP12 PUSH1 0x40 MLOAD DUP1 SWAP4 DUP2 SWAP3 DUP13 MLOAD SWAP3 DUP4 SWAP2 PUSH2 0xF88 JUMP JUMPDEST DUP2 ADD PUSH1 0x4 DUP2 MSTORE SUB ADD SWAP1 KECCAK256 ADD PUSH2 0x135F JUMP JUMPDEST PUSH1 0x8 PUSH1 0x40 MLOAD PUSH1 0x20 DUP2 DUP1 PUSH2 0xB48 DUP13 DUP11 MLOAD SWAP3 DUP4 SWAP2 PUSH2 0xF88 JUMP JUMPDEST PUSH1 0x4 SWAP1 DUP3 ADD SWAP1 DUP2 MSTORE SUB ADD SWAP1 KECCAK256 ADD DUP1 SLOAD PUSH1 0x1 PUSH1 0x1 PUSH1 0xA0 SHL SUB NOT AND CALLER OR SWAP1 SSTORE PUSH1 0x40 MLOAD DUP5 MLOAD PUSH1 0x9 SWAP2 SWAP1 PUSH1 0x20 SWAP1 DUP3 SWAP1 PUSH2 0xB7E DUP2 DUP4 DUP15 PUSH2 0xF88 JUMP JUMPDEST DUP2 ADD PUSH1 0x4 DUP2 MSTORE SUB ADD SWAP1 KECCAK256 ADD PUSH1 0x1 PUSH1 0xFF NOT DUP3 SLOAD AND OR SWAP1 SSTORE PUSH1 0x40 MLOAD PUSH1 0x1 DUP6 MLOAD PUSH2 0xBA6 DUP2 DUP5 DUP13 PUSH2 0xF88 JUMP JUMPDEST DUP3 ADD SWAP2 PUSH1 0x5 DUP4 MSTORE PUSH1 0x20 DUP2 TIMESTAMP SWAP5 SUB ADD SWAP1 KECCAK256 ADD SSTORE DUP3 JUMPDEST DUP6 MLOAD DUP2 LT ISZERO PUSH2 0xC01 JUMPI PUSH1 0x1 SWAP1 PUSH2 0xBFB PUSH2 0xBE0 PUSH1 0x20 DUP12 PUSH1 0x40 MLOAD DUP1 SWAP4 DUP2 SWAP3 DUP13 MLOAD SWAP3 DUP4 SWAP2 PUSH2 0xF88 JUMP JUMPDEST DUP2 ADD PUSH1 0x3 DUP2 MSTORE SUB ADD SWAP1 KECCAK256 PUSH2 0xBF4 DUP4 DUP11 PUSH2 0x12F9 JUMP JUMPDEST MLOAD SWAP1 PUSH2 0x146A JUMP JUMPDEST ADD PUSH2 0xBBA JUMP JUMPDEST POP SWAP2 SWAP5 SWAP1 SWAP3 SWAP4 PUSH1 0x1 DUP1 PUSH1 0xA0 SHL SUB DUP7 SLOAD AND SWAP3 DUP4 EXTCODESIZE ISZERO PUSH2 0xCF8 JUMPI SWAP2 DUP7 SWAP4 SWAP2 PUSH2 0xC58 PUSH2 0xC46 SWAP7 SWAP5 PUSH1 0x40 MLOAD SWAP8 DUP9 SWAP7 PUSH4 0x1D382997 PUSH1 0xE3 SHL DUP9 MSTORE PUSH1 0x60 PUSH1 0x4 DUP10 ADD MSTORE PUSH1 0x64 DUP9 ADD SWAP1 PUSH2 0xFAB JUMP JUMPDEST DUP7 DUP2 SUB PUSH1 0x3 NOT ADD PUSH1 0x24 DUP9 ADD MSTORE SWAP1 PUSH2 0xFAB JUMP JUMPDEST SWAP1 PUSH1 0x3 NOT DUP6 DUP4 SUB ADD PUSH1 0x44 DUP7 ADD MSTORE MLOAD DUP1 DUP3 MSTORE PUSH1 0x20 DUP3 ADD SWAP2 PUSH1 0x20 DUP3 PUSH1 0x5 SHL DUP3 ADD ADD SWAP4 SWAP3 DUP8 SWAP2 JUMPDEST DUP4 DUP4 LT PUSH2 0xCC5 JUMPI POP POP POP POP POP DUP3 DUP1 SWAP2 SUB SWAP2 GAS STATICCALL DUP1 ISZERO PUSH2 0xCBA JUMPI PUSH2 0xCA4 JUMPI JUMPDEST POP PUSH2 0x3C0 SWAP1 PUSH2 0x14F2 JUMP JUMPDEST SWAP2 PUSH2 0xCB3 DUP2 PUSH2 0x3C0 SWAP4 SWAP5 PUSH2 0xF00 JUMP JUMPDEST SWAP2 SWAP1 PUSH2 0xC9A JUMP JUMPDEST PUSH1 0x40 MLOAD RETURNDATASIZE DUP6 DUP3 RETURNDATACOPY RETURNDATASIZE SWAP1 REVERT JUMPDEST SWAP3 SWAP6 SWAP8 POP SWAP3 SWAP6 POP SWAP3 PUSH1 0x20 DUP1 PUSH2 0xCE6 PUSH1 0x1 SWAP4 PUSH1 0x1F NOT DUP7 DUP3 SUB ADD DUP8 MSTORE DUP10 MLOAD PUSH2 0xFAB JUMP JUMPDEST SWAP8 ADD SWAP4 ADD SWAP4 ADD DUP8 SWAP6 SWAP4 DUP11 SWAP8 SWAP6 SWAP3 PUSH2 0xC7C JUMP JUMPDEST DUP7 DUP1 REVERT JUMPDEST PUSH1 0x40 MLOAD PUSH3 0x461BCD PUSH1 0xE5 SHL DUP2 MSTORE PUSH1 0x20 PUSH1 0x4 DUP3 ADD MSTORE PUSH1 0x12 PUSH1 0x24 DUP3 ADD MSTORE PUSH18 0x13DC99195C881251081B9BDD08195E1A5CDD PUSH1 0x72 SHL PUSH1 0x44 DUP3 ADD MSTORE PUSH1 0x64 SWAP1 REVERT JUMPDEST PUSH1 0x40 MLOAD PUSH3 0x461BCD PUSH1 0xE5 SHL DUP2 MSTORE PUSH1 0x20 PUSH1 0x4 DUP3 ADD MSTORE PUSH1 0xC PUSH1 0x24 DUP3 ADD MSTORE PUSH12 0x4F6E6C7920466163746F7279 PUSH1 0xA0 SHL PUSH1 0x44 DUP3 ADD MSTORE PUSH1 0x64 SWAP1 REVERT JUMPDEST PUSH2 0xD83 SWAP2 POP PUSH1 0x20 RETURNDATASIZE PUSH1 0x20 GT PUSH2 0x84D JUMPI PUSH2 0x83F DUP2 DUP4 PUSH2 0xF00 JUMP JUMPDEST CODESIZE PUSH2 0xAA2 JUMP JUMPDEST DUP2 CALLDATALOAD PUSH1 0x1 PUSH1 0x1 PUSH1 0x40 SHL SUB DUP2 GT PUSH2 0x413 JUMPI PUSH1 0x20 SWAP2 PUSH2 0xDAD DUP4 SWAP3 PUSH1 0x24 CALLDATASIZE SWAP2 DUP10 ADD ADD PUSH2 0xF3C JUMP JUMPDEST DUP2 MSTORE ADD SWAP2 ADD SWAP1 PUSH2 0xA56 JUMP JUMPDEST POP CALLVALUE PUSH2 0x9E JUMPI PUSH1 0x20 CALLDATASIZE PUSH1 0x3 NOT ADD SLT PUSH2 0x9E JUMPI PUSH1 0x4 CALLDATALOAD PUSH1 0x1 PUSH1 0x1 PUSH1 0x40 SHL SUB DUP2 GT PUSH2 0x423 JUMPI PUSH2 0xDE9 SWAP1 CALLDATASIZE SWAP1 PUSH1 0x4 ADD PUSH2 0xF3C JUMP JUMPDEST PUSH1 0x40 MLOAD DUP2 MLOAD SWAP1 PUSH1 0x20 DUP2 DUP2 DUP6 ADD SWAP4 PUSH2 0xE01 DUP2 DUP4 DUP8 PUSH2 0xF88 JUMP JUMPDEST DUP2 ADD PUSH1 0x7 DUP2 MSTORE SUB ADD SWAP1 KECCAK256 SLOAD SWAP2 PUSH2 0xE16 DUP4 PUSH2 0x1266 JUMP JUMPDEST SWAP4 JUMPDEST DUP4 DUP2 LT PUSH2 0xE2D JUMPI PUSH1 0x40 MLOAD DUP1 PUSH2 0x49C DUP8 DUP3 PUSH2 0xFF9 JUMP JUMPDEST DUP1 PUSH2 0xE5E PUSH2 0x900 PUSH2 0x8FA PUSH1 0x1 SWAP5 PUSH1 0x40 MLOAD PUSH1 0x20 DUP2 DUP1 PUSH2 0xE4F DUP13 DUP13 MLOAD SWAP3 DUP4 SWAP2 PUSH2 0xF88 JUMP JUMPDEST DUP2 ADD PUSH1 0x7 DUP2 MSTORE SUB ADD SWAP1 KECCAK256 PUSH2 0x111A JUMP JUMPDEST PUSH2 0xE72 PUSH1 0xFF PUSH1 0x9 PUSH1 0x40 MLOAD SWAP4 PUSH2 0x919 DUP6 PUSH2 0xEB3 JUMP JUMPDEST PUSH2 0xE7C DUP3 DUP9 PUSH2 0x12F9 JUMP JUMPDEST MSTORE PUSH2 0xE87 DUP2 DUP8 PUSH2 0x12F9 JUMP JUMPDEST POP ADD PUSH2 0xE18 JUMP JUMPDEST SWAP1 POP CALLVALUE PUSH2 0x423 JUMPI DUP2 PUSH1 0x3 NOT CALLDATASIZE ADD SLT PUSH2 0x423 JUMPI PUSH1 0x1 SLOAD PUSH1 0x1 PUSH1 0x1 PUSH1 0xA0 SHL SUB AND DUP2 MSTORE PUSH1 0x20 SWAP1 RETURN JUMPDEST PUSH2 0x100 DUP2 ADD SWAP1 DUP2 LT PUSH1 0x1 PUSH1 0x1 PUSH1 0x40 SHL SUB DUP3 GT OR PUSH2 0xECF JUMPI PUSH1 0x40 MSTORE JUMP JUMPDEST PUSH4 0x4E487B71 PUSH1 0xE0 SHL PUSH1 0x0 MSTORE PUSH1 0x41 PUSH1 0x4 MSTORE PUSH1 0x24 PUSH1 0x0 REVERT JUMPDEST PUSH1 0x40 DUP2 ADD SWAP1 DUP2 LT PUSH1 0x1 PUSH1 0x1 PUSH1 0x40 SHL SUB DUP3 GT OR PUSH2 0xECF JUMPI PUSH1 0x40 MSTORE JUMP JUMPDEST SWAP1 PUSH1 0x1F DUP1 NOT SWAP2 ADD AND DUP2 ADD SWAP1 DUP2 LT PUSH1 0x1 PUSH1 0x1 PUSH1 0x40 SHL SUB DUP3 GT OR PUSH2 0xECF JUMPI PUSH1 0x40 MSTORE JUMP JUMPDEST PUSH1 0x1 PUSH1 0x1 PUSH1 0x40 SHL SUB DUP2 GT PUSH2 0xECF JUMPI PUSH1 0x1F ADD PUSH1 0x1F NOT AND PUSH1 0x20 ADD SWAP1 JUMP JUMPDEST DUP2 PUSH1 0x1F DUP3 ADD SLT ISZERO PUSH2 0xF83 JUMPI DUP1 CALLDATALOAD SWAP1 PUSH2 0xF53 DUP3 PUSH2 0xF21 JUMP JUMPDEST SWAP3 PUSH2 0xF61 PUSH1 0x40 MLOAD SWAP5 DUP6 PUSH2 0xF00 JUMP JUMPDEST DUP3 DUP5 MSTORE PUSH1 0x20 DUP4 DUP4 ADD ADD GT PUSH2 0xF83 JUMPI DUP2 PUSH1 0x0 SWAP3 PUSH1 0x20 DUP1 SWAP4 ADD DUP4 DUP7 ADD CALLDATACOPY DUP4 ADD ADD MSTORE SWAP1 JUMP JUMPDEST PUSH1 0x0 DUP1 REVERT JUMPDEST PUSH1 0x0 JUMPDEST DUP4 DUP2 LT PUSH2 0xF9B JUMPI POP POP PUSH1 0x0 SWAP2 ADD MSTORE JUMP JUMPDEST DUP2 DUP2 ADD MLOAD DUP4 DUP3 ADD MSTORE PUSH1 0x20 ADD PUSH2 0xF8B JUMP JUMPDEST SWAP1 PUSH1 0x20 SWAP2 PUSH2 0xFC4 DUP2 MLOAD DUP1 SWAP3 DUP2 DUP6 MSTORE DUP6 DUP1 DUP7 ADD SWAP2 ADD PUSH2 0xF88 JUMP JUMPDEST PUSH1 0x1F ADD PUSH1 0x1F NOT AND ADD ADD SWAP1 JUMP JUMPDEST SWAP1 PUSH1 0x20 PUSH2 0xFE6 DUP4 MLOAD PUSH1 0x40 DUP5 MSTORE PUSH1 0x40 DUP5 ADD SWAP1 PUSH2 0xFAB JUMP JUMPDEST SWAP3 DUP2 ADD MLOAD PUSH1 0x1 PUSH1 0x1 PUSH1 0xA0 SHL SUB AND SWAP2 ADD MSTORE SWAP1 JUMP JUMPDEST PUSH1 0x20 DUP2 ADD PUSH1 0x20 DUP3 MSTORE DUP3 MLOAD DUP1 SWAP2 MSTORE PUSH1 0x40 DUP3 ADD PUSH1 0x20 PUSH1 0x40 DUP4 PUSH1 0x5 SHL DUP6 ADD ADD SWAP5 ADD SWAP3 PUSH1 0x0 SWAP1 JUMPDEST DUP4 DUP3 LT PUSH2 0x102B JUMPI POP POP POP POP POP SWAP1 JUMP JUMPDEST SWAP1 SWAP2 SWAP3 SWAP4 SWAP5 PUSH1 0x3F NOT DUP3 DUP3 SUB ADD DUP5 MSTORE DUP6 MLOAD SWAP1 PUSH1 0xE0 PUSH2 0x10C9 PUSH2 0x10B7 PUSH2 0x1098 PUSH2 0x1086 PUSH2 0x1074 PUSH2 0x1062 DUP9 MLOAD PUSH2 0x100 DUP10 MSTORE PUSH2 0x100 DUP10 ADD SWAP1 PUSH2 0xFAB JUMP JUMPDEST PUSH1 0x20 DUP10 ADD MLOAD DUP9 DUP3 SUB PUSH1 0x20 DUP11 ADD MSTORE PUSH2 0xFAB JUMP JUMPDEST PUSH1 0x40 DUP9 ADD MLOAD DUP8 DUP3 SUB PUSH1 0x40 DUP10 ADD MSTORE PUSH2 0xFAB JUMP JUMPDEST PUSH1 0x60 DUP8 ADD MLOAD DUP7 DUP3 SUB PUSH1 0x60 DUP9 ADD MSTORE PUSH2 0xFAB JUMP JUMPDEST PUSH1 0xFF PUSH1 0x80 DUP8 ADD MLOAD AND PUSH1 0x80 DUP7 ADD MSTORE PUSH1 0xA0 DUP7 ADD MLOAD DUP6 DUP3 SUB PUSH1 0xA0 DUP8 ADD MSTORE PUSH2 0xFD0 JUMP JUMPDEST PUSH1 0xC0 DUP6 ADD MLOAD DUP5 DUP3 SUB PUSH1 0xC0 DUP7 ADD MSTORE PUSH2 0xFD0 JUMP JUMPDEST SWAP3 ADD MLOAD SWAP1 PUSH1 0x3 DUP3 LT ISZERO PUSH2 0x10ED JUMPI PUSH1 0xE0 ADD MSTORE SWAP5 PUSH1 0x20 SWAP1 DUP2 ADD SWAP5 SWAP4 ADD SWAP2 PUSH1 0x1 ADD SWAP1 PUSH2 0x101C JUMP JUMPDEST PUSH4 0x4E487B71 PUSH1 0xE0 SHL PUSH1 0x0 MSTORE PUSH1 0x21 PUSH1 0x4 MSTORE PUSH1 0x24 PUSH1 0x0 REVERT JUMPDEST PUSH1 0x1 PUSH1 0x1 PUSH1 0x40 SHL SUB DUP2 GT PUSH2 0xECF JUMPI PUSH1 0x5 SHL PUSH1 0x20 ADD SWAP1 JUMP JUMPDEST DUP1 SLOAD DUP3 LT ISZERO PUSH2 0x1132 JUMPI PUSH1 0x0 MSTORE PUSH1 0x20 PUSH1 0x0 KECCAK256 ADD SWAP1 PUSH1 0x0 SWAP1 JUMP JUMPDEST PUSH4 0x4E487B71 PUSH1 0xE0 SHL PUSH1 0x0 MSTORE PUSH1 0x32 PUSH1 0x4 MSTORE PUSH1 0x24 PUSH1 0x0 REVERT JUMPDEST SWAP1 PUSH1 0x1 DUP3 DUP2 SHR SWAP3 AND DUP1 ISZERO PUSH2 0x1178 JUMPI JUMPDEST PUSH1 0x20 DUP4 LT EQ PUSH2 0x1162 JUMPI JUMP JUMPDEST PUSH4 0x4E487B71 PUSH1 0xE0 SHL PUSH1 0x0 MSTORE PUSH1 0x22 PUSH1 0x4 MSTORE PUSH1 0x24 PUSH1 0x0 REVERT JUMPDEST SWAP2 PUSH1 0x7F AND SWAP2 PUSH2 0x1157 JUMP JUMPDEST SWAP1 PUSH1 0x40 MLOAD SWAP2 DUP3 PUSH1 0x0 DUP3 SLOAD SWAP3 PUSH2 0x1196 DUP5 PUSH2 0x1148 JUMP JUMPDEST DUP1 DUP5 MSTORE SWAP4 PUSH1 0x1 DUP2 AND SWAP1 DUP2 ISZERO PUSH2 0x1204 JUMPI POP PUSH1 0x1 EQ PUSH2 0x11BD JUMPI JUMPDEST POP PUSH2 0x11BB SWAP3 POP SUB DUP4 PUSH2 0xF00 JUMP JUMPDEST JUMP JUMPDEST SWAP1 POP PUSH1 0x0 SWAP3 SWAP2 SWAP3 MSTORE PUSH1 0x20 PUSH1 0x0 KECCAK256 SWAP1 PUSH1 0x0 SWAP2 JUMPDEST DUP2 DUP4 LT PUSH2 0x11E8 JUMPI POP POP SWAP1 PUSH1 0x20 PUSH2 0x11BB SWAP3 DUP3 ADD ADD CODESIZE PUSH2 0x11AE JUMP JUMPDEST PUSH1 0x20 SWAP2 SWAP4 POP DUP1 PUSH1 0x1 SWAP2 SLOAD DUP4 DUP6 DUP10 ADD ADD MSTORE ADD SWAP2 ADD SWAP1 SWAP2 DUP5 SWAP3 PUSH2 0x11CF JUMP JUMPDEST SWAP1 POP PUSH1 0x20 SWAP3 POP PUSH2 0x11BB SWAP5 SWAP2 POP PUSH1 0xFF NOT AND DUP3 DUP5 ADD MSTORE ISZERO ISZERO PUSH1 0x5 SHL DUP3 ADD ADD CODESIZE PUSH2 0x11AE JUMP JUMPDEST PUSH1 0x20 PUSH2 0x123F SWAP2 DUP2 PUSH1 0x40 MLOAD SWAP4 DUP3 DUP6 DUP1 SWAP5 MLOAD SWAP4 DUP5 SWAP3 ADD PUSH2 0xF88 JUMP JUMPDEST DUP2 ADD PUSH1 0x4 DUP2 MSTORE SUB ADD SWAP1 KECCAK256 SWAP1 JUMP JUMPDEST PUSH1 0x40 MLOAD SWAP1 PUSH2 0x1259 DUP3 PUSH2 0xEE5 JUMP JUMPDEST PUSH1 0x0 PUSH1 0x20 DUP4 PUSH1 0x60 DUP2 MSTORE ADD MSTORE JUMP JUMPDEST SWAP1 PUSH2 0x1270 DUP3 PUSH2 0x1103 JUMP JUMPDEST PUSH2 0x127D PUSH1 0x40 MLOAD SWAP2 DUP3 PUSH2 0xF00 JUMP JUMPDEST DUP3 DUP2 MSTORE DUP1 SWAP3 PUSH2 0x128E PUSH1 0x1F NOT SWAP2 PUSH2 0x1103 JUMP JUMPDEST ADD SWAP1 PUSH1 0x0 JUMPDEST DUP3 DUP2 LT PUSH2 0x129F JUMPI POP POP POP JUMP JUMPDEST PUSH1 0x20 SWAP1 PUSH1 0x40 MLOAD PUSH2 0x12AE DUP2 PUSH2 0xEB3 JUMP JUMPDEST PUSH1 0x60 DUP2 MSTORE PUSH1 0x60 DUP4 DUP3 ADD MSTORE PUSH1 0x60 PUSH1 0x40 DUP3 ADD MSTORE PUSH1 0x60 DUP1 DUP3 ADD MSTORE PUSH1 0x0 PUSH1 0x80 DUP3 ADD MSTORE PUSH2 0x12D4 PUSH2 0x124C JUMP JUMPDEST PUSH1 0xA0 DUP3 ADD MSTORE PUSH2 0x12E1 PUSH2 0x124C JUMP JUMPDEST PUSH1 0xC0 DUP3 ADD MSTORE PUSH1 0x0 PUSH1 0xE0 DUP3 ADD MSTORE DUP3 DUP3 DUP6 ADD ADD MSTORE ADD PUSH2 0x1293 JUMP JUMPDEST DUP1 MLOAD DUP3 LT ISZERO PUSH2 0x1132 JUMPI PUSH1 0x20 SWAP2 PUSH1 0x5 SHL ADD ADD SWAP1 JUMP JUMPDEST SWAP1 PUSH1 0x40 MLOAD PUSH2 0x131A DUP2 PUSH2 0xEE5 JUMP JUMPDEST PUSH1 0x20 DUP2 SWAP4 PUSH2 0x1327 DUP2 PUSH2 0x1182 JUMP JUMPDEST DUP4 MSTORE PUSH1 0x1 ADD SLOAD PUSH1 0x1 PUSH1 0x1 PUSH1 0xA0 SHL SUB AND SWAP2 ADD MSTORE JUMP JUMPDEST PUSH1 0x3 DUP3 LT ISZERO PUSH2 0x10ED JUMPI MSTORE JUMP JUMPDEST SWAP1 DUP2 PUSH1 0x20 SWAP2 SUB SLT PUSH2 0xF83 JUMPI MLOAD DUP1 ISZERO ISZERO DUP2 SUB PUSH2 0xF83 JUMPI SWAP1 JUMP JUMPDEST SWAP2 SWAP1 SWAP2 DUP3 MLOAD PUSH1 0x1 PUSH1 0x1 PUSH1 0x40 SHL SUB DUP2 GT PUSH2 0xECF JUMPI PUSH2 0x137C DUP3 SLOAD PUSH2 0x1148 JUMP JUMPDEST PUSH1 0x1F DUP2 GT PUSH2 0x1422 JUMPI JUMPDEST POP PUSH1 0x20 PUSH1 0x1F DUP3 GT PUSH1 0x1 EQ PUSH2 0x13C0 JUMPI DUP2 SWAP3 SWAP4 SWAP5 PUSH1 0x0 SWAP3 PUSH2 0x13B5 JUMPI JUMPDEST POP POP DUP2 PUSH1 0x1 SHL SWAP2 PUSH1 0x0 NOT SWAP1 PUSH1 0x3 SHL SHR NOT AND OR SWAP1 SSTORE JUMP JUMPDEST ADD MLOAD SWAP1 POP CODESIZE DUP1 PUSH2 0x139F JUMP JUMPDEST PUSH1 0x1F NOT DUP3 AND SWAP1 DUP4 PUSH1 0x0 MSTORE DUP1 PUSH1 0x0 KECCAK256 SWAP2 PUSH1 0x0 JUMPDEST DUP2 DUP2 LT PUSH2 0x140A JUMPI POP SWAP6 DUP4 PUSH1 0x1 SWAP6 SWAP7 SWAP8 LT PUSH2 0x13F1 JUMPI JUMPDEST POP POP POP DUP2 SHL ADD SWAP1 SSTORE JUMP JUMPDEST ADD MLOAD PUSH1 0x0 NOT PUSH1 0xF8 DUP5 PUSH1 0x3 SHL AND SHR NOT AND SWAP1 SSTORE CODESIZE DUP1 DUP1 PUSH2 0x13E7 JUMP JUMPDEST SWAP2 SWAP3 PUSH1 0x20 PUSH1 0x1 DUP2 SWAP3 DUP7 DUP12 ADD MLOAD DUP2 SSTORE ADD SWAP5 ADD SWAP3 ADD PUSH2 0x13D2 JUMP JUMPDEST DUP3 PUSH1 0x0 MSTORE PUSH1 0x20 PUSH1 0x0 KECCAK256 PUSH1 0x1F DUP4 ADD PUSH1 0x5 SHR DUP2 ADD SWAP2 PUSH1 0x20 DUP5 LT PUSH2 0x1460 JUMPI JUMPDEST PUSH1 0x1F ADD PUSH1 0x5 SHR ADD SWAP1 JUMPDEST DUP2 DUP2 LT PUSH2 0x1454 JUMPI POP PUSH2 0x1385 JUMP JUMPDEST PUSH1 0x0 DUP2 SSTORE PUSH1 0x1 ADD PUSH2 0x1447 JUMP JUMPDEST SWAP1 SWAP2 POP DUP2 SWAP1 PUSH2 0x143E JUMP JUMPDEST DUP1 SLOAD PUSH1 0x1 PUSH1 0x40 SHL DUP2 LT ISZERO PUSH2 0xECF JUMPI PUSH2 0x1487 SWAP2 PUSH1 0x1 DUP3 ADD DUP2 SSTORE PUSH2 0x111A JUMP JUMPDEST SWAP2 SWAP1 SWAP2 PUSH2 0x1497 JUMPI PUSH2 0x11BB SWAP2 PUSH2 0x135F JUMP JUMPDEST PUSH4 0x4E487B71 PUSH1 0xE0 SHL PUSH1 0x0 MSTORE PUSH1 0x0 PUSH1 0x4 MSTORE PUSH1 0x24 PUSH1 0x0 REVERT JUMPDEST DUP2 PUSH1 0x1F DUP3 ADD SLT ISZERO PUSH2 0xF83 JUMPI DUP1 MLOAD PUSH2 0x14C3 DUP2 PUSH2 0xF21 JUMP JUMPDEST SWAP3 PUSH2 0x14D1 PUSH1 0x40 MLOAD SWAP5 DUP6 PUSH2 0xF00 JUMP JUMPDEST DUP2 DUP5 MSTORE PUSH1 0x20 DUP3 DUP5 ADD ADD GT PUSH2 0xF83 JUMPI PUSH2 0x14EF SWAP2 PUSH1 0x20 DUP1 DUP6 ADD SWAP2 ADD PUSH2 0xF88 JUMP JUMPDEST SWAP1 JUMP JUMPDEST PUSH2 0x15F6 PUSH2 0x152F PUSH1 0x20 PUSH32 0x51442564A7C47C90EE6057DAEC7DADA1D5132C3A496854BBC4C003DE6F711336 SWAP4 DUP2 PUSH1 0x40 MLOAD SWAP4 DUP3 DUP6 DUP1 SWAP5 MLOAD SWAP4 DUP5 SWAP3 ADD PUSH2 0xF88 JUMP JUMPDEST DUP2 ADD PUSH1 0x4 DUP2 MSTORE SUB ADD SWAP1 KECCAK256 PUSH1 0x40 MLOAD SWAP1 PUSH2 0x1546 DUP3 PUSH2 0xEB3 JUMP JUMPDEST PUSH2 0x154F DUP2 PUSH2 0x1182 JUMP JUMPDEST DUP3 MSTORE PUSH2 0x155D PUSH1 0x1 DUP3 ADD PUSH2 0x1182 JUMP JUMPDEST PUSH1 0x20 DUP4 ADD MSTORE PUSH2 0x1612 PUSH2 0x1571 PUSH1 0x2 DUP4 ADD PUSH2 0x1182 JUMP JUMPDEST PUSH1 0x40 DUP5 ADD SWAP1 DUP2 MSTORE PUSH2 0x1584 PUSH1 0x3 DUP5 ADD PUSH2 0x1182 JUMP JUMPDEST PUSH1 0x60 DUP6 ADD MSTORE PUSH2 0x1604 PUSH1 0xFF DUP1 PUSH1 0x4 DUP7 ADD SLOAD AND SWAP3 PUSH1 0x80 DUP8 ADD SWAP4 DUP5 MSTORE PUSH2 0x15D7 PUSH2 0x15AC PUSH1 0x5 DUP9 ADD PUSH2 0x130D JUMP JUMPDEST SWAP8 PUSH1 0xA0 DUP2 ADD SWAP9 DUP10 MSTORE PUSH1 0xE0 DUP5 PUSH1 0x9 PUSH2 0x15C5 PUSH1 0x7 DUP13 ADD PUSH2 0x130D JUMP JUMPDEST SWAP11 PUSH1 0xC0 DUP6 ADD SWAP12 DUP13 MSTORE ADD SLOAD AND SWAP2 ADD PUSH2 0x133B JUMP JUMPDEST MLOAD SWAP6 MLOAD MLOAD SWAP5 MLOAD MLOAD SWAP3 MLOAD AND SWAP4 PUSH1 0x40 MLOAD SWAP7 DUP8 SWAP7 PUSH1 0xA0 DUP9 MSTORE PUSH1 0xA0 DUP9 ADD SWAP1 PUSH2 0xFAB JUMP JUMPDEST SWAP1 DUP7 DUP3 SUB PUSH1 0x20 DUP9 ADD MSTORE PUSH2 0xFAB JUMP JUMPDEST SWAP1 DUP5 DUP3 SUB PUSH1 0x40 DUP7 ADD MSTORE PUSH2 0xFAB JUMP JUMPDEST SWAP1 PUSH1 0x60 DUP4 ADD MSTORE TIMESTAMP PUSH1 0x80 DUP4 ADD MSTORE SUB SWAP1 LOG1 JUMP INVALID LOG2 PUSH5 0x6970667358 0x22 SLT KECCAK256 0xF8 SWAP14 0xD SWAP14 PUSH24 0x28631FA004179BE21FFD5148E24CBDCBE5538863E30C76B2 0xDF PUSH9 0x764736F6C63430008 SHL STOP CALLER "},"methodIdentifiers":{"acceptOrder(string,string,string[])":"33cec588","allOrderId(uint256)":"dd5739ae","createOrder(string,string,string,string,string,uint8)":"e4376a0e","getAllOrderFromBuyer(string)":"60e4b3cf","getAllOrderFromSeller(string)":"1c2fc292","getAvailableObatFromFactory()":"ce7ab1c7","obatTradisional()":"ea020d59","roleManager()":"00435da5"}}}}}