{"contracts/ObatTradisional.sol":{"ObatTradisional":{"abi":[{"inputs":[{"internalType":"address","name":"_roleManagerAddr","type":"address"},{"internalType":"address","name":"_mainSupplyChainAddr","type":"address"}],"stateMutability":"nonpayable","type":"constructor"},{"anonymous":false,"inputs":[{"indexed":false,"internalType":"string","name":"batchName","type":"string"},{"indexed":false,"internalType":"uint8","name":"quantity","type":"uint8"},{"indexed":false,"internalType":"string","name":"namaProduk","type":"string"},{"indexed":false,"internalType":"string","name":"factoryInstance","type":"string"}],"name":"evt_addBatchProduction","type":"event"},{"anonymous":false,"inputs":[{"indexed":false,"internalType":"string","name":"bpomInstance","type":"string"},{"indexed":false,"internalType":"address","name":"bpomAddr","type":"address"},{"indexed":false,"internalType":"string","name":"nieNumber","type":"string"},{"indexed":false,"internalType":"uint256","name":"timestampApproved","type":"uint256"}],"name":"evt_nieApproved","type":"event"},{"anonymous":false,"inputs":[{"indexed":false,"internalType":"string","name":"factoryInstance","type":"string"},{"indexed":false,"internalType":"address","name":"factoryAddr","type":"address"},{"indexed":false,"internalType":"uint256","name":"timestampRequest","type":"uint256"}],"name":"evt_nieRequested","type":"event"},{"anonymous":false,"inputs":[{"indexed":false,"internalType":"string","name":"namaProduk","type":"string"},{"indexed":false,"internalType":"string","name":"factoryInstance","type":"string"},{"indexed":false,"internalType":"address","name":"factoryAddresses","type":"address"}],"name":"evt_obatCreated","type":"event"},{"inputs":[{"internalType":"string","name":"_obatId","type":"string"},{"internalType":"string","name":"_batchName","type":"string"},{"internalType":"uint8","name":"_obatQuantity","type":"uint8"},{"internalType":"string[]","name":"_obatIpfsHash","type":"string[]"},{"internalType":"string","name":"_factoryInstance","type":"string"}],"name":"addBatchProduction","outputs":[],"stateMutability":"nonpayable","type":"function"},{"inputs":[{"internalType":"uint256","name":"","type":"uint256"}],"name":"allObatIds","outputs":[{"internalType":"string","name":"","type":"string"}],"stateMutability":"view","type":"function"},{"inputs":[{"internalType":"string","name":"_obatId","type":"string"},{"internalType":"string","name":"_nieNumber","type":"string"},{"internalType":"string","name":"_instanceName","type":"string"}],"name":"approveNie","outputs":[],"stateMutability":"nonpayable","type":"function"},{"inputs":[{"internalType":"string","name":"_obatId","type":"string"},{"internalType":"string","name":"_merk","type":"string"},{"internalType":"string","name":"_namaProduk","type":"string"},{"internalType":"string[]","name":"_klaim","type":"string[]"},{"internalType":"string","name":"_kemasan","type":"string"},{"internalType":"string[]","name":"_komposisi","type":"string[]"},{"internalType":"string","name":"_factoryInstance","type":"string"},{"internalType":"enum EnumsLibrary.TipeProduk","name":"_tipeProduk","type":"uint8"}],"name":"createObat","outputs":[],"stateMutability":"nonpayable","type":"function"},{"inputs":[{"internalType":"string","name":"_obatId","type":"string"},{"internalType":"string","name":"_batchName","type":"string"}],"name":"detailBatchProduction","outputs":[{"components":[{"internalType":"enum EnumsLibrary.ObatAvailability","name":"statusStok","type":"uint8"},{"internalType":"string","name":"namaProduk","type":"string"},{"internalType":"string","name":"batchName","type":"string"},{"internalType":"uint8","name":"obatQuantity","type":"uint8"},{"internalType":"string[]","name":"obatIpfs","type":"string[]"},{"internalType":"string","name":"factoryInstance","type":"string"}],"internalType":"struct ObatTradisional.st_obatProduction","name":"","type":"tuple"}],"stateMutability":"view","type":"function"},{"inputs":[{"internalType":"string","name":"_obatId","type":"string"}],"name":"detailObat","outputs":[{"components":[{"internalType":"string","name":"merk","type":"string"},{"internalType":"string","name":"namaProduk","type":"string"},{"internalType":"string[]","name":"klaim","type":"string[]"},{"internalType":"string[]","name":"komposisi","type":"string[]"},{"internalType":"string","name":"kemasan","type":"string"},{"internalType":"enum EnumsLibrary.TipeProduk","name":"tipeProduk","type":"uint8"},{"internalType":"string","name":"factoryInstance","type":"string"},{"internalType":"address","name":"factoryAddr","type":"address"}],"internalType":"struct ObatTradisional.st_obatDetails","name":"","type":"tuple"},{"components":[{"internalType":"string","name":"nieNumber","type":"string"},{"internalType":"enum EnumsLibrary.NieStatus","name":"nieStatus","type":"uint8"},{"internalType":"uint256","name":"timestampProduction","type":"uint256"},{"internalType":"uint256","name":"timestampNieRequest","type":"uint256"},{"internalType":"uint256","name":"timestampNieApprove","type":"uint256"},{"internalType":"string","name":"bpomInstance","type":"string"},{"internalType":"address","name":"bpomAddr","type":"address"}],"internalType":"struct ObatTradisional.st_obatNie","name":"","type":"tuple"}],"stateMutability":"view","type":"function"},{"inputs":[{"internalType":"string","name":"_instanceName","type":"string"}],"name":"getAllBatchProductionByInstance","outputs":[{"components":[{"internalType":"string","name":"obatId","type":"string"},{"internalType":"string","name":"namaProduk","type":"string"},{"internalType":"string","name":"batchName","type":"string"},{"internalType":"uint8","name":"obatQuantity","type":"uint8"},{"internalType":"enum EnumsLibrary.ObatAvailability","name":"statusStok","type":"uint8"},{"internalType":"string","name":"factoryInstance","type":"string"}],"internalType":"struct ObatTradisional.st_obatOutputBatch[]","name":"","type":"tuple[]"}],"stateMutability":"view","type":"function"},{"inputs":[],"name":"getAllBatchProductionReadyStock","outputs":[{"components":[{"internalType":"string","name":"obatId","type":"string"},{"internalType":"string","name":"namaProduk","type":"string"},{"internalType":"string","name":"batchName","type":"string"},{"internalType":"uint8","name":"obatQuantity","type":"uint8"},{"internalType":"enum EnumsLibrary.ObatAvailability","name":"statusStok","type":"uint8"},{"internalType":"string","name":"factoryInstance","type":"string"}],"internalType":"struct ObatTradisional.st_obatOutputBatch[]","name":"","type":"tuple[]"}],"stateMutability":"view","type":"function"},{"inputs":[],"name":"getAllObat","outputs":[{"components":[{"internalType":"string","name":"obatId","type":"string"},{"internalType":"string","name":"namaProduk","type":"string"},{"internalType":"string","name":"nieNumber","type":"string"},{"internalType":"enum EnumsLibrary.NieStatus","name":"nieStatus","type":"uint8"},{"internalType":"string","name":"factoryInstance","type":"string"}],"internalType":"struct ObatTradisional.st_obatOutputNie[]","name":"","type":"tuple[]"}],"stateMutability":"view","type":"function"},{"inputs":[{"internalType":"string","name":"_instanceName","type":"string"}],"name":"getAllObatByInstance","outputs":[{"components":[{"internalType":"string","name":"obatId","type":"string"},{"internalType":"string","name":"namaProduk","type":"string"},{"internalType":"string","name":"nieNumber","type":"string"},{"internalType":"enum EnumsLibrary.NieStatus","name":"nieStatus","type":"uint8"},{"internalType":"string","name":"factoryInstance","type":"string"}],"internalType":"struct ObatTradisional.st_obatOutputNie[]","name":"","type":"tuple[]"}],"stateMutability":"view","type":"function"},{"inputs":[{"internalType":"string","name":"_factoryInstanceName","type":"string"}],"name":"getJenisSediaanAvail","outputs":[{"internalType":"uint8[]","name":"","type":"uint8[]"}],"stateMutability":"view","type":"function"},{"inputs":[],"name":"mainSupplyChain","outputs":[{"internalType":"contract MainSupplyChain","name":"","type":"address"}],"stateMutability":"view","type":"function"},{"inputs":[{"internalType":"string","name":"","type":"string"}],"name":"obatDetailsById","outputs":[{"internalType":"string","name":"merk","type":"string"},{"internalType":"string","name":"namaProduk","type":"string"},{"internalType":"string","name":"kemasan","type":"string"},{"internalType":"enum EnumsLibrary.TipeProduk","name":"tipeProduk","type":"uint8"},{"internalType":"string","name":"factoryInstance","type":"string"},{"internalType":"address","name":"factoryAddr","type":"address"}],"stateMutability":"view","type":"function"},{"inputs":[{"internalType":"string","name":"","type":"string"}],"name":"obatNieById","outputs":[{"internalType":"string","name":"nieNumber","type":"string"},{"internalType":"enum EnumsLibrary.NieStatus","name":"nieStatus","type":"uint8"},{"internalType":"uint256","name":"timestampProduction","type":"uint256"},{"internalType":"uint256","name":"timestampNieRequest","type":"uint256"},{"internalType":"uint256","name":"timestampNieApprove","type":"uint256"},{"internalType":"string","name":"bpomInstance","type":"string"},{"internalType":"address","name":"bpomAddr","type":"address"}],"stateMutability":"view","type":"function"},{"inputs":[{"internalType":"string","name":"","type":"string"},{"internalType":"uint256","name":"","type":"uint256"}],"name":"obatProductionById","outputs":[{"internalType":"enum EnumsLibrary.ObatAvailability","name":"statusStok","type":"uint8"},{"internalType":"string","name":"namaProduk","type":"string"},{"internalType":"string","name":"batchName","type":"string"},{"internalType":"uint8","name":"obatQuantity","type":"uint8"},{"internalType":"string","name":"factoryInstance","type":"string"}],"stateMutability":"view","type":"function"},{"inputs":[{"internalType":"string","name":"_obatId","type":"string"},{"internalType":"string","name":"_factoryInstance","type":"string"}],"name":"requestNie","outputs":[],"stateMutability":"nonpayable","type":"function"},{"inputs":[],"name":"roleManager","outputs":[{"internalType":"contract RoleManager","name":"","type":"address"}],"stateMutability":"view","type":"function"},{"inputs":[{"internalType":"string","name":"_obatId","type":"string"},{"internalType":"string","name":"_batchName","type":"string"},{"internalType":"string[]","name":"_obatIpfs","type":"string[]"}],"name":"updateBatchProduction","outputs":[],"stateMutability":"view","type":"function"}],"evm":{"bytecode":{"linkReferences":{},"object":"608034608657601f612fa238819003918201601f19168301916001600160401b03831184841017608b578084926040948552833981010312608657604b602060458360a1565b920160a1565b600080546001600160a01b039384166001600160a01b03199182161790915560018054929093169116179055604051612eed90816100b58239f35b600080fd5b634e487b7160e01b600052604160045260246000fd5b51906001600160a01b038216820360865756fe608080604052600436101561001357600080fd5b60003560e01c908162435da514612409575080631bbd28f91461202f5780632732183714611f465780634d17d27314611d7257806350168fbb14611bfd5780635162659c14611b3257806354253681146118a65780639413fcfd1461187d578063a1e0a4b01461157e578063b5e3d0cc14611233578063ba2ffe4c1461114a578063baeedfad14610eba578063cb960d6b14610e55578063d44faa6314610cf3578063e5dd1d06146106d2578063e8982035146105b5578063e9c14cb81461031a5763f21dea86146100e457600080fd5b34610315576060366003190112610315576004356001600160401b038111610315576101149036906004016124bb565b6024356001600160401b038111610315576101339036906004016124bb565b6044356001600160401b038111610315576101529036906004016124bb565b6000546040516395a8c58d60e01b8152336004820152600260248201529290602090849060449082906001600160a01b03165afa90811561030957600161029360207f40bd250f4e1cad69631af5d42189453e9c51f25278bd4232fe29ed01aa2f6ee4976101cf6102d1966102bd996000916102dc575b50612c4c565b604051906101fd8860058351948681818701976101ed81838b612511565b8101600381520301902001612d54565b600660405184818451610211818389612511565b8101600381520301902001858060a01b0333166bffffffffffffffffffffffff60a01b82541617905561025f866040518581855161025081838a612511565b81016003815203019020612d54565b60405160048251610271818487612511565b8201916003835285814294030190200155604051938492839251928391612511565b8101600381520301902001600260ff19825416179055604051938493608085526080850190612534565b903360208501528382036040850152612534565b4260608301520390a1005b6102fc9150843d8611610302575b6102f4818361249a565b81019061293a565b386101c9565b503d6102ea565b6040513d6000823e3d90fd5b600080fd5b34610315576060366003190112610315576004356001600160401b0381116103155761034a9036906004016124bb565b6024356001600160401b038111610315576103699036906004016124bb565b906044356001600160401b0381116103155761038990369060040161286f565b6000546040516395a8c58d60e01b81523360048201526001602482015291929190602090829060449082906001600160a01b03165afa90811561030957600091610596575b50156105515760206103ed918160405193828580945193849201612511565b8101600581520301902091825461040381612858565b93610411604051958661249a565b818552602085019060005260206000206000915b8383106104d1575050505060405161045e6020828161044d8183019687815193849201612511565b81010301601f19810183528261249a565b5190209060005b83518110156104cf578083604061047e60019488612a82565b51015160405161049e6020828161044d8183019687815193849201612511565b519020146104ad575b01610465565b816104b88287612a82565b51528260806104c78388612a82565b5101526104a7565b005b600660206001926040516104e48161242d565b60ff8654166104f281612559565b81526104ff858701612667565b8382015261050f60028701612667565b604082015260ff600387015416606082015261052d60048701612a2a565b608082015261053e60058701612667565b60a0820152815201920192019190610425565b60405162461bcd60e51b815260206004820152601d60248201527f416363657373207265737472696374656420746f2050424620726f6c650000006044820152606490fd5b6105af915060203d602011610302576102f4818361249a565b846103ce565b34610315576105c33661280b565b600080546040516395a8c58d60e01b8152336004820152602481019290925290929190602090849060449082906001600160a01b03165afa9182156103095761067a60206001926106416106a4967fb15dd5852a569d549821835c26451fad3d4015817430a7f3e7557f6875389353986000916106b5575b50612952565b60405190805191600384830193610659818487612511565b82019181835285814294030190200155604051938492839251928391612511565b8101600381520301902001600160ff19825416179055604051918291606083526060830190612534565b3360208301524260408301520390a1005b6106cc9150843d8611610302576102f4818361249a565b8961063b565b3461031557610100366003190112610315576004356001600160401b038111610315576107039036906004016124bb565b6024356001600160401b038111610315576107229036906004016124bb565b906044356001600160401b038111610315576107429036906004016124bb565b906064356001600160401b0381116103155761076290369060040161286f565b926084356001600160401b038111610315576107829036906004016124bb565b9360a4356001600160401b038111610315576107a290369060040161286f565b9060c4356001600160401b038111610315576107c29036906004016124bb565b9560e43590600282101561031557600080546040516395a8c58d60e01b81523360048201526024810192909252602090829060449082906001600160a01b03165afa80156103095761081b91600091610cd45750612952565b855115610c9d5761082a612abb565b506040519461083886612463565b8552602085019387855260408601938452606086019081526080860191825260a086019261086581612559565b835260c08601938985526108b260e08801963388526108a861089660208c8160405193828580945193849201612511565b8101600481520301902099518a612d54565b5160018901612d54565b518051906002880190600160401b8311610bec578154838355808410610c1f575b506020019060005260206000206000915b838310610c02575050505060038601905190815191600160401b8311610bec578154838355808410610b6e575b506020019060005260206000206000915b838310610b5157505050509161097191610943600795945160048801612d54565b60058601905161095281612559565b61095b81612559565b60ff801983541691161790555160068501612d54565b51910180546001600160a01b0319166001600160a01b039290921691909117905561099a612afd565b50604051926109a88461247f565b6020916040516109b8848261249a565b6000815285528285019460008652604081014281526060820196600088526080830190600082526040516109ec888261249a565b6000815260a0850190815260c085019260008452610a2c6040518a816020610a1a8c83815193849201612511565b81016003815203019020965187612d54565b6001860192519a60038c1015610b3b57600695610a6e9460009d60ff801983541691161790555160028801555160038701555160048601555160058501612d54565b51910180546001600160a01b0319166001600160a01b0392909216919091179055600254600160401b811015610b2757806001610aae920160025561291f565b610b1357927fa8a9f5de4b20098e7555472ad4adfbbb072e2fdd6bfa4c1b1a7b7645f47803519492610ae6610b0793610afa96612d54565b604051948594606086526060860190612534565b9184830390850152612534565b3360408301520390a180f35b634e487b7160e01b86526004869052602486fd5b634e487b7160e01b86526041600452602486fd5b634e487b7160e01b600052602160045260246000fd5b6001602082610b6283945186612d54565b01920192019190610922565b8260005283602060002091820191015b818110610b8b5750610911565b80610b986001925461262d565b80610ba5575b5001610b7e565b601f81118314610bbb5750600081555b8e610b9e565b610bd9908260005283601f6020600020920160051c82019101612d3d565b8060005260006020812081835555610bb5565b634e487b7160e01b600052604160045260246000fd5b6001602082610c1383945186612d54565b019201920191906108e4565b8260005283602060002091820191015b818110610c3c57506108d3565b80610c496001925461262d565b80610c56575b5001610c2f565b601f81118314610c6c5750600081555b8f610c4f565b610c8a908260005283601f6020600020920160051c82019101612d3d565b8060005260006020812081835555610c66565b60405162461bcd60e51b815260206004820152600f60248201526e125b9d985b1a590813d8985d081251608a1b6044820152606490fd5b610ced915060203d602011610302576102f4818361249a565b8a61063b565b34610315576020366003190112610315576004356001600160401b038111610315576000610d28610d569236906004016124bb565b60018060a01b0360015416604051808095819463e49d032760e01b8352602060048401526024830190612534565b03915afa90811561030957600091610db2575b5060405180916020820160208352815180915260206040840192019060005b818110610d96575050500390f35b825160ff16845285945060209384019390920191600101610d88565b903d8082843e610dc2818461249a565b820191602081840312610e51578051906001600160401b038211610e4d57019180601f84011215610e5157825191610df983612858565b93610e07604051958661249a565b83855260208086019460051b820101928311610e5157602001925b828410610e33575050505081610d69565b835160ff81168103610e4d57815260209384019301610e22565b8280fd5b5080fd5b346103155760203660031901126103155760043560025481101561031557610e7c9061291f565b610ea457610e8c610ea091612667565b604051918291602083526020830190612534565b0390f35b634e487b7160e01b600052600060045260246000fd5b34610315576020366003190112610315576004356001600160401b03811161031557610eea9036906004016124bb565b600080546040516395a8c58d60e01b81523360048201526024810192909252602090829060449082906001600160a01b03165afa801561030957610f359160009161112b5750612952565b600254602082016000805b8381106110a05750610f5190612c98565b9260009060005b848110610f6d5760405180610ea08882612771565b610f7f610f798261291f565b50612667565b60405190610fd2610fc36020610fb1845195828181880198610fa281838c612511565b81016004815203019020612b36565b94604051809381928751928391612511565b81016003815203019020612bdb565b9060c08301928351604051610ff76020828161044d8183019687815193849201612511565b519020886040516110176020828b61044d83830196879251928391612511565b5190201461102c575b50505050600101610f58565b6020909692939496015160208451940151946003861015610b3b57600195611096956110769251936040519561106187612448565b86526020860152604085015260608401612bcf565b6080820152611085828a612a82565b526110908189612a82565b50612a96565b9290878080611020565b60c06110c9610fa260206110b6610f798661291f565b8160405193828580945193849201612511565b01516040516110e86020828161044d8183019687815193849201612511565b51902060405160208101906111066020828a5161044d81878c612511565b51902014611117575b600101610f40565b90611123600191612a96565b91905061110f565b611144915060203d602011610302576102f4818361249a565b8361063b565b34610315576040366003190112610315576004356001600160401b0381116103155761117a9036906004016124bb565b6111966020602435928160405193828580945193849201612511565b81016005815203019020908154811015610315576111b3916128ed565b5060ff815416610ea06111c860018401612667565b926111d560028201612667565b6112206111ec600560ff6003860154169401612667565b9161121260405197876111ff8a99612559565b885260a0602089015260a0880190612534565b908682036040880152612534565b9160608501528382036080850152612534565b346103155760a0366003190112610315576004356001600160401b038111610315576112639036906004016124bb565b6024356001600160401b038111610315576112829036906004016124bb565b9060443560ff8116809103610315576064356001600160401b038111610315576112b090369060040161286f565b6084356001600160401b038111610315576112cf9036906004016124bb565b600080546040516395a8c58d60e01b81523360048201526024810192909252919491602090829060449082906001600160a01b03165afa80156103095761131d9160009161155f5750612952565b6040519061134b60018251936020818186019661133b81838a612511565b8101600481520301902001612667565b92604051926113598461242d565b600084526020840185815260408501898152611398602060608801948a86526080890196875260a08901978c8952604051938492839251928391612511565b810160058152030190208054600160401b811015610bec576113bf916001820181556128ed565b969096610ea457611401926113f791516113d881612559565b6113e181612559565b60ff80198a541691161788555160018801612d54565b5160028601612d54565b60ff6003850191511660ff1982541617905560048301905190815191600160401b8311610bec5781548383558084106114e1575b506020019060005260206000206000915b8383106114c4577f48086aa029a355c9dd13e9f17292a5cc49f3b533bf3324ad5a543814b0ff5f1361149e8b6114bf8c6114b18d8d61148a8e60058f519101612d54565b604051968796608088526080880190612534565b9160208701528582036040870152612534565b908382036060850152612534565b0390a1005b60016020826114d583945186612d54565b01920192019190611446565b8260005283602060002091820191015b8181106114fe5750611435565b8061150b6001925461262d565b80611518575b50016114f1565b601f8111831461152e5750600081555b8c611511565b61154c908260005283601f6020600020920160051c82019101612d3d565b8060005260006020812081835555611528565b611578915060203d602011610302576102f4818361249a565b8761063b565b34610315576000366003190112610315576002546000805b82821061173e576115a791506129da565b6000805b8382106115c05760405180610ea08582612563565b6115ce610f7983949361291f565b60405160208183516115e38183858801612511565b8101600581520301902080546115f881612858565b91611606604051938461249a565b81835260208301906000526020600020906000905b8382106116be57505050508051156116b15760005b815181101561169d576116438183612a82565b515161164e81612559565b61165781612559565b15611665575b600101611630565b926116956001916116806116798786612a82565b5186612e54565b61168a8289612a82565b526110908188612a82565b93905061165d565b5050509092916001905b01909291926115ab565b50509092916001906116a7565b600660206001926040516116d18161242d565b60ff8754166116df81612559565b81526116ec858801612667565b838201526116fc60028801612667565b604082015260ff600388015416606082015261171a60048801612a2a565b608082015261172b60058801612667565b60a082015281520193019101909161161b565b61174f60206110b6610f798561291f565b81016005815203019020805461176481612858565b91611772604051938461249a565b81835260208301906000526020600020906000905b8382106117fd57505050508051156117f35760005b81518110156117e5576117af8183612a82565b51516117ba81612559565b6117c381612559565b156117d1575b60010161179c565b916117dd600191612a96565b9290506117c9565b5050906001905b0190611596565b50906001906117ec565b600660206001926040516118108161242d565b60ff87541661181e81612559565b815261182b858801612667565b8382015261183b60028801612667565b604082015260ff600388015416606082015261185960048801612a2a565b608082015261186a60058801612667565b60a0820152815201930191019091611787565b34610315576000366003190112610315576001546040516001600160a01b039091168152602090f35b346103155760206118d76118b93661280b565b92906118c3612d0b565b508160405193828580945193849201612511565b810160058152030190209081546118ed81612858565b926118fb604051948561249a565b818452602084019060005260206000206000915b838310611ab2578585611920612d0b565b9060405161193e6020828161044d8183019687815193849201612511565b5190209160005b81518110156119a35783604061195b8385612a82565b51015160405161197b6020828161044d8183019687815193849201612511565b5190201461198c575b600101611945565b9150600161199a8383612a82565b51929050611984565b6000546040516395a8c58d60e01b815233600482015260016024820152908490602090839060449082906001600160a01b03165afa801561030957610ea092600091611a93575b50611a77575b604051918291602083528051611a0581612559565b602084015260a0611a63611a41611a2b602085015160c0604089015260e0880190612534565b6040850151878203601f19016060890152612534565b60ff60608501511660808701526080840151601f19878303018488015261270b565b910151838203601f190160c0850152612534565b604051611a8560208261249a565b6000815260808201526119f0565b611aac915060203d602011610302576102f4818361249a565b836119ea565b60066020600192604051611ac58161242d565b60ff865416611ad381612559565b8152611ae0858701612667565b83820152611af060028701612667565b604082015260ff6003870154166060820152611b0e60048701612a2a565b6080820152611b1f60058701612667565b60a082015281520192019201919061190f565b34610315576020366003190112610315576004356001600160401b03811161031557611b6a60206110b6611bcc9336906004016124bb565b81016003815203019020611b7d81612667565b90611bf360ff6001830154166002830154926003810154600482015490611ba660058401612667565b92600660018060a01b039101541695611bd7604051998a9960e08b5260e08b0190612534565b9560208a0190612764565b60408801526060870152608086015284820360a0860152612534565b9060c08301520390f35b34610315576000366003190112610315576000546040516395a8c58d60e01b81523360048201526002602482015290602090829060449082906001600160a01b03165afa801561030957611c5891600091611d535750612c4c565b600254611c6481612c98565b6000915b808310611c7d5760405180610ea08482612771565b611c89610f798461291f565b9260405193611cbe610fa26020611cac8882818751610fc381848b019e8f612511565b97604051809381928751928391612511565b94602081018051966003881015610b3b57600097611ce9575b50505050600191929350019190611c68565b602081015192519151976003891015611d3f575096611d199160c060019798990151936040519561106187612448565b6080820152611d288286612a82565b52611d338185612a82565b50839291858080611cd7565b634e487b7160e01b81526021600452602490fd5b611d6c915060203d602011610302576102f4818361249a565b826101c9565b34610315576020366003190112610315576004356001600160401b03811161031557611da29036906004016124bb565b611daa612abb565b50611db3612afd565b50611e08611e02611df26020604051855190828181890193611dd6818387612511565b8101600481520301902095604051938492839251928391612511565b8101600381520301902092612b36565b91612bdb565b9060405191829160408352611ebc611e92611e7c611e66611e50611e3a865161010060408b01526101408a0190612534565b6020870151898203603f190160608b0152612534565b6040860151888203603f190160808a015261270b565b6060850151878203603f190160a089015261270b565b6080840151868203603f190160c0880152612534565b60a0830151611ea081612559565b60e086015260c0830151858203603f1901610100870152612534565b9060e060018060a01b0391015116610120840152828103602084015260c0611f32611ef0845160e0855260e0850190612534565b611f0260208601516020860190612764565b60408501516040850152606085015160608501526080850151608085015260a085015184820360a0860152612534565b928101516001600160a01b03169101520390f35b34610315576020366003190112610315576004356001600160401b03811161031557611f7e60206110b6611fed9336906004016124bb565b81016004815203019020611f9181612667565b90612025611fa160018301612667565b91611fae60048201612667565b9061200960ff60058301541692611ffb611fca60068501612667565b93600760018060a01b039101541696604051998a9960c08b5260c08b0190612534565b9089820360208b0152612534565b908782036040890152612534565b9161201381612559565b60608601528482036080860152612534565b9060a08301520390f35b34610315576020366003190112610315576004356001600160401b0381116103155761205f9036906004016124bb565b600080546040516395a8c58d60e01b81523360048201526024810192909252602090829060449082906001600160a01b03165afa8015610309576120aa9160009161112b5750612952565b6000604051602081018351916120cb6020828188019561044d818789612511565b519020916000600254935b8482106122ad5750506120e8906129da565b926121056020604051809361044d83830196879251928391612511565b519020600080925b8084106121225760405180610ea08782612563565b61212e610f798561291f565b9060405160208184516121448183858901612511565b8101600581520301902090815461215a81612858565b92612168604051948561249a565b81845260208401906000526020600020906000905b83821061222d57505050508151156122215760005b8251811015612211578560a06121a88386612a82565b5101516040516121c86020828161044d8183019687815193849201612511565b519020146121d9575b600101612192565b936122096001916121f46121ed8887612a82565b5187612e54565b6121fe828c612a82565b52611090818b612a82565b9490506121d1565b50949050600191505b019261210d565b9490506001915061221a565b600660206001926040516122408161242d565b60ff87541661224e81612559565b815261225b858801612667565b8382015261226b60028801612667565b604082015260ff600388015416606082015261228960048801612a2a565b608082015261229a60058801612667565b60a082015281520193019101909161217d565b91926122c260206110b6610f7985989561291f565b810160058152030190209182546122d881612858565b936122e6604051958661249a565b81855260208501906000526020600020906000905b838210612389575050505082511561237c5760005b835181101561236b578460a06123268387612a82565b5101516040516123466020828161044d8183019687815193849201612511565b51902014612357575b600101612310565b94612363600191612a96565b95905061234f565b5094600191949392505b01906120d6565b9460019194939250612375565b6006602060019260405161239c8161242d565b60ff8754166123aa81612559565b81526123b7858801612667565b838201526123c760028801612667565b604082015260ff60038801541660608201526123e560048801612a2a565b60808201526123f660058801612667565b60a08201528152019301910190916122fb565b34610315576000366003190112610315576000546001600160a01b03168152602090f35b60c081019081106001600160401b03821117610bec57604052565b60a081019081106001600160401b03821117610bec57604052565b61010081019081106001600160401b03821117610bec57604052565b60e081019081106001600160401b03821117610bec57604052565b90601f801991011681019081106001600160401b03821117610bec57604052565b81601f82011215610315578035906001600160401b038211610bec57604051926124ef601f8401601f19166020018561249a565b8284526020838301011161031557816000926020809301838601378301015290565b60005b8381106125245750506000910152565b8181015183820152602001612514565b9060209161254d81518092818552858086019101612511565b601f01601f1916010190565b60021115610b3b57565b602081016020825282518091526040820191602060408360051b8301019401926000915b83831061259657505050505090565b909192939460208061261e600193603f1986820301875289519060a06125ed6125db6125cb855160c0865260c0860190612534565b8786015185820389870152612534565b60408501518482036040860152612534565b9260ff6060820151166060840152608081015161260981612559565b608084015201519060a0818403910152612534565b97019301930191939290612587565b90600182811c9216801561265d575b602083101461264757565b634e487b7160e01b600052602260045260246000fd5b91607f169161263c565b906040519182600082549261267b8461262d565b80845293600181169081156126e957506001146126a2575b506126a09250038361249a565b565b90506000929192526020600020906000915b8183106126cd5750509060206126a09282010138612693565b60209193508060019154838589010152019101909184926126b4565b9050602092506126a094915060ff191682840152151560051b82010138612693565b9080602083519182815201916020808360051b8301019401926000915b83831061273757505050505090565b9091929394602080612755600193601f198682030187528951612534565b97019301930191939290612728565b906003821015610b3b5752565b602081016020825282518091526040820191602060408360051b8301019401926000915b8383106127a457505050505090565b90919293946020806127fc600193603f1986820301875289519060806127d96125db6125cb855160a0865260a0860190612534565b926127ec60608201516060850190612764565b0151906080818403910152612534565b97019301930191939290612795565b906040600319830112610315576004356001600160401b0381116103155782612836916004016124bb565b91602435906001600160401b03821161031557612855916004016124bb565b90565b6001600160401b038111610bec5760051b60200190565b9080601f8301121561031557813561288681612858565b92612894604051948561249a565b81845260208085019260051b820101918383116103155760208201905b8382106128c057505050505090565b81356001600160401b038111610315576020916128e2878480948801016124bb565b8152019101906128b1565b8054821015612909576000526006602060002091020190600090565b634e487b7160e01b600052603260045260246000fd5b60025481101561290957600260005260206000200190600090565b90816020910312610315575180151581036103155790565b1561295957565b60405162461bcd60e51b815260206004820152602160248201527f416363657373207265737472696374656420746f20466163746f727920726f6c6044820152606560f81b6064820152608490fd5b604051906129b58261242d565b606060a083828152826020820152826040820152600083820152600060808201520152565b906129e482612858565b6129f1604051918261249a565b8281528092612a02601f1991612858565b019060005b828110612a1357505050565b602090612a1e6129a8565b82828501015201612a07565b908154612a3681612858565b92612a44604051948561249a565b818452602084019060005260206000206000915b838310612a655750505050565b600160208192612a7485612667565b815201920192019190612a58565b80518210156129095760209160051b010190565b6000198114612aa55760010190565b634e487b7160e01b600052601160045260246000fd5b60405190612ac882612463565b600060e083606081526060602082015260606040820152606080820152606060808201528260a0820152606060c08201520152565b60405190612b0a8261247f565b600060c08360608152826020820152826040820152826060820152826080820152606060a08201520152565b90604051612b4381612463565b60e08193612b5081612667565b8352612b5e60018201612667565b6020840152612b6f60028201612a2a565b6040840152612b8060038201612a2a565b6060840152612b9160048201612667565b608084015260ff600582015416612ba781612559565b60a0840152612bb860068201612667565b60c0840152600701546001600160a01b0316910152565b6003821015610b3b5752565b90604051612be88161247f565b60c08193612bf581612667565b8352612c0b60ff60018301541660208501612bcf565b600281015460408401526003810154606084015260048101546080840152612c3560058201612667565b60a0840152600601546001600160a01b0316910152565b15612c5357565b60405162461bcd60e51b815260206004820152601e60248201527f416363657373207265737472696374656420746f2042504f4d20726f6c6500006044820152606490fd5b90612ca282612858565b612caf604051918261249a565b8281528092612cc0601f1991612858565b019060005b828110612cd157505050565b602090604051612ce081612448565b6060815260608382015260606040820152600060608201526060608082015282828501015201612cc5565b60405190612d188261242d565b606060a083600081528260208201528260408201526000838201528260808201520152565b818110612d48575050565b60008155600101612d3d565b91909182516001600160401b038111610bec57612d71825461262d565b601f8111612e17575b506020601f8211600114612db55781929394600092612daa575b50508160011b916000199060031b1c1916179055565b015190503880612d94565b601f1982169083600052806000209160005b818110612dff57509583600195969710612de6575b505050811b019055565b015160001960f88460031b161c19169055388080612ddc565b9192602060018192868b015181550194019201612dc7565b612e4490836000526020600020601f840160051c81019160208510612e4a575b601f0160051c0190612d3d565b38612d7a565b9091508190612e37565b90612e5d6129a8565b50602081015190604081015160ff6060830151169060a0835193612e8085612559565b01519360405195612e908761242d565b8652602086015260408501526060840152612eaa81612559565b608083015260a08201529056fea26469706673582212204d7087b574b8d09a69a733475b351c927226b5dc9a2afeb5af5a13dc5a61418b64736f6c634300081b0033","opcodes":"PUSH1 0x80 CALLVALUE PUSH1 0x86 JUMPI PUSH1 0x1F PUSH2 0x2FA2 CODESIZE DUP2 SWAP1 SUB SWAP2 DUP3 ADD PUSH1 0x1F NOT AND DUP4 ADD SWAP2 PUSH1 0x1 PUSH1 0x1 PUSH1 0x40 SHL SUB DUP4 GT DUP5 DUP5 LT OR PUSH1 0x8B JUMPI DUP1 DUP5 SWAP3 PUSH1 0x40 SWAP5 DUP6 MSTORE DUP4 CODECOPY DUP2 ADD SUB SLT PUSH1 0x86 JUMPI PUSH1 0x4B PUSH1 0x20 PUSH1 0x45 DUP4 PUSH1 0xA1 JUMP JUMPDEST SWAP3 ADD PUSH1 0xA1 JUMP JUMPDEST PUSH1 0x0 DUP1 SLOAD PUSH1 0x1 PUSH1 0x1 PUSH1 0xA0 SHL SUB SWAP4 DUP5 AND PUSH1 0x1 PUSH1 0x1 PUSH1 0xA0 SHL SUB NOT SWAP2 DUP3 AND OR SWAP1 SWAP2 SSTORE PUSH1 0x1 DUP1 SLOAD SWAP3 SWAP1 SWAP4 AND SWAP2 AND OR SWAP1 SSTORE PUSH1 0x40 MLOAD PUSH2 0x2EED SWAP1 DUP2 PUSH2 0xB5 DUP3 CODECOPY RETURN JUMPDEST PUSH1 0x0 DUP1 REVERT JUMPDEST PUSH4 0x4E487B71 PUSH1 0xE0 SHL PUSH1 0x0 MSTORE PUSH1 0x41 PUSH1 0x4 MSTORE PUSH1 0x24 PUSH1 0x0 REVERT JUMPDEST MLOAD SWAP1 PUSH1 0x1 PUSH1 0x1 PUSH1 0xA0 SHL SUB DUP3 AND DUP3 SUB PUSH1 0x86 JUMPI JUMP INVALID PUSH1 0x80 DUP1 PUSH1 0x40 MSTORE PUSH1 0x4 CALLDATASIZE LT ISZERO PUSH2 0x13 JUMPI PUSH1 0x0 DUP1 REVERT JUMPDEST PUSH1 0x0 CALLDATALOAD PUSH1 0xE0 SHR SWAP1 DUP2 PUSH3 0x435DA5 EQ PUSH2 0x2409 JUMPI POP DUP1 PUSH4 0x1BBD28F9 EQ PUSH2 0x202F JUMPI DUP1 PUSH4 0x27321837 EQ PUSH2 0x1F46 JUMPI DUP1 PUSH4 0x4D17D273 EQ PUSH2 0x1D72 JUMPI DUP1 PUSH4 0x50168FBB EQ PUSH2 0x1BFD JUMPI DUP1 PUSH4 0x5162659C EQ PUSH2 0x1B32 JUMPI DUP1 PUSH4 0x54253681 EQ PUSH2 0x18A6 JUMPI DUP1 PUSH4 0x9413FCFD EQ PUSH2 0x187D JUMPI DUP1 PUSH4 0xA1E0A4B0 EQ PUSH2 0x157E JUMPI DUP1 PUSH4 0xB5E3D0CC EQ PUSH2 0x1233 JUMPI DUP1 PUSH4 0xBA2FFE4C EQ PUSH2 0x114A JUMPI DUP1 PUSH4 0xBAEEDFAD EQ PUSH2 0xEBA JUMPI DUP1 PUSH4 0xCB960D6B EQ PUSH2 0xE55 JUMPI DUP1 PUSH4 0xD44FAA63 EQ PUSH2 0xCF3 JUMPI DUP1 PUSH4 0xE5DD1D06 EQ PUSH2 0x6D2 JUMPI DUP1 PUSH4 0xE8982035 EQ PUSH2 0x5B5 JUMPI DUP1 PUSH4 0xE9C14CB8 EQ PUSH2 0x31A JUMPI PUSH4 0xF21DEA86 EQ PUSH2 0xE4 JUMPI PUSH1 0x0 DUP1 REVERT JUMPDEST CALLVALUE PUSH2 0x315 JUMPI PUSH1 0x60 CALLDATASIZE PUSH1 0x3 NOT ADD SLT PUSH2 0x315 JUMPI PUSH1 0x4 CALLDATALOAD PUSH1 0x1 PUSH1 0x1 PUSH1 0x40 SHL SUB DUP2 GT PUSH2 0x315 JUMPI PUSH2 0x114 SWAP1 CALLDATASIZE SWAP1 PUSH1 0x4 ADD PUSH2 0x24BB JUMP JUMPDEST PUSH1 0x24 CALLDATALOAD PUSH1 0x1 PUSH1 0x1 PUSH1 0x40 SHL SUB DUP2 GT PUSH2 0x315 JUMPI PUSH2 0x133 SWAP1 CALLDATASIZE SWAP1 PUSH1 0x4 ADD PUSH2 0x24BB JUMP JUMPDEST PUSH1 0x44 CALLDATALOAD PUSH1 0x1 PUSH1 0x1 PUSH1 0x40 SHL SUB DUP2 GT PUSH2 0x315 JUMPI PUSH2 0x152 SWAP1 CALLDATASIZE SWAP1 PUSH1 0x4 ADD PUSH2 0x24BB JUMP JUMPDEST PUSH1 0x0 SLOAD PUSH1 0x40 MLOAD PUSH4 0x95A8C58D PUSH1 0xE0 SHL DUP2 MSTORE CALLER PUSH1 0x4 DUP3 ADD MSTORE PUSH1 0x2 PUSH1 0x24 DUP3 ADD MSTORE SWAP3 SWAP1 PUSH1 0x20 SWAP1 DUP5 SWAP1 PUSH1 0x44 SWAP1 DUP3 SWAP1 PUSH1 0x1 PUSH1 0x1 PUSH1 0xA0 SHL SUB AND GAS STATICCALL SWAP1 DUP2 ISZERO PUSH2 0x309 JUMPI PUSH1 0x1 PUSH2 0x293 PUSH1 0x20 PUSH32 0x40BD250F4E1CAD69631AF5D42189453E9C51F25278BD4232FE29ED01AA2F6EE4 SWAP8 PUSH2 0x1CF PUSH2 0x2D1 SWAP7 PUSH2 0x2BD SWAP10 PUSH1 0x0 SWAP2 PUSH2 0x2DC JUMPI JUMPDEST POP PUSH2 0x2C4C JUMP JUMPDEST PUSH1 0x40 MLOAD SWAP1 PUSH2 0x1FD DUP9 PUSH1 0x5 DUP4 MLOAD SWAP5 DUP7 DUP2 DUP2 DUP8 ADD SWAP8 PUSH2 0x1ED DUP2 DUP4 DUP12 PUSH2 0x2511 JUMP JUMPDEST DUP2 ADD PUSH1 0x3 DUP2 MSTORE SUB ADD SWAP1 KECCAK256 ADD PUSH2 0x2D54 JUMP JUMPDEST PUSH1 0x6 PUSH1 0x40 MLOAD DUP5 DUP2 DUP5 MLOAD PUSH2 0x211 DUP2 DUP4 DUP10 PUSH2 0x2511 JUMP JUMPDEST DUP2 ADD PUSH1 0x3 DUP2 MSTORE SUB ADD SWAP1 KECCAK256 ADD DUP6 DUP1 PUSH1 0xA0 SHL SUB CALLER AND PUSH12 0xFFFFFFFFFFFFFFFFFFFFFFFF PUSH1 0xA0 SHL DUP3 SLOAD AND OR SWAP1 SSTORE PUSH2 0x25F DUP7 PUSH1 0x40 MLOAD DUP6 DUP2 DUP6 MLOAD PUSH2 0x250 DUP2 DUP4 DUP11 PUSH2 0x2511 JUMP JUMPDEST DUP2 ADD PUSH1 0x3 DUP2 MSTORE SUB ADD SWAP1 KECCAK256 PUSH2 0x2D54 JUMP JUMPDEST PUSH1 0x40 MLOAD PUSH1 0x4 DUP3 MLOAD PUSH2 0x271 DUP2 DUP5 DUP8 PUSH2 0x2511 JUMP JUMPDEST DUP3 ADD SWAP2 PUSH1 0x3 DUP4 MSTORE DUP6 DUP2 TIMESTAMP SWAP5 SUB ADD SWAP1 KECCAK256 ADD SSTORE PUSH1 0x40 MLOAD SWAP4 DUP5 SWAP3 DUP4 SWAP3 MLOAD SWAP3 DUP4 SWAP2 PUSH2 0x2511 JUMP JUMPDEST DUP2 ADD PUSH1 0x3 DUP2 MSTORE SUB ADD SWAP1 KECCAK256 ADD PUSH1 0x2 PUSH1 0xFF NOT DUP3 SLOAD AND OR SWAP1 SSTORE PUSH1 0x40 MLOAD SWAP4 DUP5 SWAP4 PUSH1 0x80 DUP6 MSTORE PUSH1 0x80 DUP6 ADD SWAP1 PUSH2 0x2534 JUMP JUMPDEST SWAP1 CALLER PUSH1 0x20 DUP6 ADD MSTORE DUP4 DUP3 SUB PUSH1 0x40 DUP6 ADD MSTORE PUSH2 0x2534 JUMP JUMPDEST TIMESTAMP PUSH1 0x60 DUP4 ADD MSTORE SUB SWAP1 LOG1 STOP JUMPDEST PUSH2 0x2FC SWAP2 POP DUP5 RETURNDATASIZE DUP7 GT PUSH2 0x302 JUMPI JUMPDEST PUSH2 0x2F4 DUP2 DUP4 PUSH2 0x249A JUMP JUMPDEST DUP2 ADD SWAP1 PUSH2 0x293A JUMP JUMPDEST CODESIZE PUSH2 0x1C9 JUMP JUMPDEST POP RETURNDATASIZE PUSH2 0x2EA JUMP JUMPDEST PUSH1 0x40 MLOAD RETURNDATASIZE PUSH1 0x0 DUP3 RETURNDATACOPY RETURNDATASIZE SWAP1 REVERT JUMPDEST PUSH1 0x0 DUP1 REVERT JUMPDEST CALLVALUE PUSH2 0x315 JUMPI PUSH1 0x60 CALLDATASIZE PUSH1 0x3 NOT ADD SLT PUSH2 0x315 JUMPI PUSH1 0x4 CALLDATALOAD PUSH1 0x1 PUSH1 0x1 PUSH1 0x40 SHL SUB DUP2 GT PUSH2 0x315 JUMPI PUSH2 0x34A SWAP1 CALLDATASIZE SWAP1 PUSH1 0x4 ADD PUSH2 0x24BB JUMP JUMPDEST PUSH1 0x24 CALLDATALOAD PUSH1 0x1 PUSH1 0x1 PUSH1 0x40 SHL SUB DUP2 GT PUSH2 0x315 JUMPI PUSH2 0x369 SWAP1 CALLDATASIZE SWAP1 PUSH1 0x4 ADD PUSH2 0x24BB JUMP JUMPDEST SWAP1 PUSH1 0x44 CALLDATALOAD PUSH1 0x1 PUSH1 0x1 PUSH1 0x40 SHL SUB DUP2 GT PUSH2 0x315 JUMPI PUSH2 0x389 SWAP1 CALLDATASIZE SWAP1 PUSH1 0x4 ADD PUSH2 0x286F JUMP JUMPDEST PUSH1 0x0 SLOAD PUSH1 0x40 MLOAD PUSH4 0x95A8C58D PUSH1 0xE0 SHL DUP2 MSTORE CALLER PUSH1 0x4 DUP3 ADD MSTORE PUSH1 0x1 PUSH1 0x24 DUP3 ADD MSTORE SWAP2 SWAP3 SWAP2 SWAP1 PUSH1 0x20 SWAP1 DUP3 SWAP1 PUSH1 0x44 SWAP1 DUP3 SWAP1 PUSH1 0x1 PUSH1 0x1 PUSH1 0xA0 SHL SUB AND GAS STATICCALL SWAP1 DUP2 ISZERO PUSH2 0x309 JUMPI PUSH1 0x0 SWAP2 PUSH2 0x596 JUMPI JUMPDEST POP ISZERO PUSH2 0x551 JUMPI PUSH1 0x20 PUSH2 0x3ED SWAP2 DUP2 PUSH1 0x40 MLOAD SWAP4 DUP3 DUP6 DUP1 SWAP5 MLOAD SWAP4 DUP5 SWAP3 ADD PUSH2 0x2511 JUMP JUMPDEST DUP2 ADD PUSH1 0x5 DUP2 MSTORE SUB ADD SWAP1 KECCAK256 SWAP2 DUP3 SLOAD PUSH2 0x403 DUP2 PUSH2 0x2858 JUMP JUMPDEST SWAP4 PUSH2 0x411 PUSH1 0x40 MLOAD SWAP6 DUP7 PUSH2 0x249A JUMP JUMPDEST DUP2 DUP6 MSTORE PUSH1 0x20 DUP6 ADD SWAP1 PUSH1 0x0 MSTORE PUSH1 0x20 PUSH1 0x0 KECCAK256 PUSH1 0x0 SWAP2 JUMPDEST DUP4 DUP4 LT PUSH2 0x4D1 JUMPI POP POP POP POP PUSH1 0x40 MLOAD PUSH2 0x45E PUSH1 0x20 DUP3 DUP2 PUSH2 0x44D DUP2 DUP4 ADD SWAP7 DUP8 DUP2 MLOAD SWAP4 DUP5 SWAP3 ADD PUSH2 0x2511 JUMP JUMPDEST DUP2 ADD SUB ADD PUSH1 0x1F NOT DUP2 ADD DUP4 MSTORE DUP3 PUSH2 0x249A JUMP JUMPDEST MLOAD SWAP1 KECCAK256 SWAP1 PUSH1 0x0 JUMPDEST DUP4 MLOAD DUP2 LT ISZERO PUSH2 0x4CF JUMPI DUP1 DUP4 PUSH1 0x40 PUSH2 0x47E PUSH1 0x1 SWAP5 DUP9 PUSH2 0x2A82 JUMP JUMPDEST MLOAD ADD MLOAD PUSH1 0x40 MLOAD PUSH2 0x49E PUSH1 0x20 DUP3 DUP2 PUSH2 0x44D DUP2 DUP4 ADD SWAP7 DUP8 DUP2 MLOAD SWAP4 DUP5 SWAP3 ADD PUSH2 0x2511 JUMP JUMPDEST MLOAD SWAP1 KECCAK256 EQ PUSH2 0x4AD JUMPI JUMPDEST ADD PUSH2 0x465 JUMP JUMPDEST DUP2 PUSH2 0x4B8 DUP3 DUP8 PUSH2 0x2A82 JUMP JUMPDEST MLOAD MSTORE DUP3 PUSH1 0x80 PUSH2 0x4C7 DUP4 DUP9 PUSH2 0x2A82 JUMP JUMPDEST MLOAD ADD MSTORE PUSH2 0x4A7 JUMP JUMPDEST STOP JUMPDEST PUSH1 0x6 PUSH1 0x20 PUSH1 0x1 SWAP3 PUSH1 0x40 MLOAD PUSH2 0x4E4 DUP2 PUSH2 0x242D JUMP JUMPDEST PUSH1 0xFF DUP7 SLOAD AND PUSH2 0x4F2 DUP2 PUSH2 0x2559 JUMP JUMPDEST DUP2 MSTORE PUSH2 0x4FF DUP6 DUP8 ADD PUSH2 0x2667 JUMP JUMPDEST DUP4 DUP3 ADD MSTORE PUSH2 0x50F PUSH1 0x2 DUP8 ADD PUSH2 0x2667 JUMP JUMPDEST PUSH1 0x40 DUP3 ADD MSTORE PUSH1 0xFF PUSH1 0x3 DUP8 ADD SLOAD AND PUSH1 0x60 DUP3 ADD MSTORE PUSH2 0x52D PUSH1 0x4 DUP8 ADD PUSH2 0x2A2A JUMP JUMPDEST PUSH1 0x80 DUP3 ADD MSTORE PUSH2 0x53E PUSH1 0x5 DUP8 ADD PUSH2 0x2667 JUMP JUMPDEST PUSH1 0xA0 DUP3 ADD MSTORE DUP2 MSTORE ADD SWAP3 ADD SWAP3 ADD SWAP2 SWAP1 PUSH2 0x425 JUMP JUMPDEST PUSH1 0x40 MLOAD PUSH3 0x461BCD PUSH1 0xE5 SHL DUP2 MSTORE PUSH1 0x20 PUSH1 0x4 DUP3 ADD MSTORE PUSH1 0x1D PUSH1 0x24 DUP3 ADD MSTORE PUSH32 0x416363657373207265737472696374656420746F2050424620726F6C65000000 PUSH1 0x44 DUP3 ADD MSTORE PUSH1 0x64 SWAP1 REVERT JUMPDEST PUSH2 0x5AF SWAP2 POP PUSH1 0x20 RETURNDATASIZE PUSH1 0x20 GT PUSH2 0x302 JUMPI PUSH2 0x2F4 DUP2 DUP4 PUSH2 0x249A JUMP JUMPDEST DUP5 PUSH2 0x3CE JUMP JUMPDEST CALLVALUE PUSH2 0x315 JUMPI PUSH2 0x5C3 CALLDATASIZE PUSH2 0x280B JUMP JUMPDEST PUSH1 0x0 DUP1 SLOAD PUSH1 0x40 MLOAD PUSH4 0x95A8C58D PUSH1 0xE0 SHL DUP2 MSTORE CALLER PUSH1 0x4 DUP3 ADD MSTORE PUSH1 0x24 DUP2 ADD SWAP3 SWAP1 SWAP3 MSTORE SWAP1 SWAP3 SWAP2 SWAP1 PUSH1 0x20 SWAP1 DUP5 SWAP1 PUSH1 0x44 SWAP1 DUP3 SWAP1 PUSH1 0x1 PUSH1 0x1 PUSH1 0xA0 SHL SUB AND GAS STATICCALL SWAP2 DUP3 ISZERO PUSH2 0x309 JUMPI PUSH2 0x67A PUSH1 0x20 PUSH1 0x1 SWAP3 PUSH2 0x641 PUSH2 0x6A4 SWAP7 PUSH32 0xB15DD5852A569D549821835C26451FAD3D4015817430A7F3E7557F6875389353 SWAP9 PUSH1 0x0 SWAP2 PUSH2 0x6B5 JUMPI JUMPDEST POP PUSH2 0x2952 JUMP JUMPDEST PUSH1 0x40 MLOAD SWAP1 DUP1 MLOAD SWAP2 PUSH1 0x3 DUP5 DUP4 ADD SWAP4 PUSH2 0x659 DUP2 DUP5 DUP8 PUSH2 0x2511 JUMP JUMPDEST DUP3 ADD SWAP2 DUP2 DUP4 MSTORE DUP6 DUP2 TIMESTAMP SWAP5 SUB ADD SWAP1 KECCAK256 ADD SSTORE PUSH1 0x40 MLOAD SWAP4 DUP5 SWAP3 DUP4 SWAP3 MLOAD SWAP3 DUP4 SWAP2 PUSH2 0x2511 JUMP JUMPDEST DUP2 ADD PUSH1 0x3 DUP2 MSTORE SUB ADD SWAP1 KECCAK256 ADD PUSH1 0x1 PUSH1 0xFF NOT DUP3 SLOAD AND OR SWAP1 SSTORE PUSH1 0x40 MLOAD SWAP2 DUP3 SWAP2 PUSH1 0x60 DUP4 MSTORE PUSH1 0x60 DUP4 ADD SWAP1 PUSH2 0x2534 JUMP JUMPDEST CALLER PUSH1 0x20 DUP4 ADD MSTORE TIMESTAMP PUSH1 0x40 DUP4 ADD MSTORE SUB SWAP1 LOG1 STOP JUMPDEST PUSH2 0x6CC SWAP2 POP DUP5 RETURNDATASIZE DUP7 GT PUSH2 0x302 JUMPI PUSH2 0x2F4 DUP2 DUP4 PUSH2 0x249A JUMP JUMPDEST DUP10 PUSH2 0x63B JUMP JUMPDEST CALLVALUE PUSH2 0x315 JUMPI PUSH2 0x100 CALLDATASIZE PUSH1 0x3 NOT ADD SLT PUSH2 0x315 JUMPI PUSH1 0x4 CALLDATALOAD PUSH1 0x1 PUSH1 0x1 PUSH1 0x40 SHL SUB DUP2 GT PUSH2 0x315 JUMPI PUSH2 0x703 SWAP1 CALLDATASIZE SWAP1 PUSH1 0x4 ADD PUSH2 0x24BB JUMP JUMPDEST PUSH1 0x24 CALLDATALOAD PUSH1 0x1 PUSH1 0x1 PUSH1 0x40 SHL SUB DUP2 GT PUSH2 0x315 JUMPI PUSH2 0x722 SWAP1 CALLDATASIZE SWAP1 PUSH1 0x4 ADD PUSH2 0x24BB JUMP JUMPDEST SWAP1 PUSH1 0x44 CALLDATALOAD PUSH1 0x1 PUSH1 0x1 PUSH1 0x40 SHL SUB DUP2 GT PUSH2 0x315 JUMPI PUSH2 0x742 SWAP1 CALLDATASIZE SWAP1 PUSH1 0x4 ADD PUSH2 0x24BB JUMP JUMPDEST SWAP1 PUSH1 0x64 CALLDATALOAD PUSH1 0x1 PUSH1 0x1 PUSH1 0x40 SHL SUB DUP2 GT PUSH2 0x315 JUMPI PUSH2 0x762 SWAP1 CALLDATASIZE SWAP1 PUSH1 0x4 ADD PUSH2 0x286F JUMP JUMPDEST SWAP3 PUSH1 0x84 CALLDATALOAD PUSH1 0x1 PUSH1 0x1 PUSH1 0x40 SHL SUB DUP2 GT PUSH2 0x315 JUMPI PUSH2 0x782 SWAP1 CALLDATASIZE SWAP1 PUSH1 0x4 ADD PUSH2 0x24BB JUMP JUMPDEST SWAP4 PUSH1 0xA4 CALLDATALOAD PUSH1 0x1 PUSH1 0x1 PUSH1 0x40 SHL SUB DUP2 GT PUSH2 0x315 JUMPI PUSH2 0x7A2 SWAP1 CALLDATASIZE SWAP1 PUSH1 0x4 ADD PUSH2 0x286F JUMP JUMPDEST SWAP1 PUSH1 0xC4 CALLDATALOAD PUSH1 0x1 PUSH1 0x1 PUSH1 0x40 SHL SUB DUP2 GT PUSH2 0x315 JUMPI PUSH2 0x7C2 SWAP1 CALLDATASIZE SWAP1 PUSH1 0x4 ADD PUSH2 0x24BB JUMP JUMPDEST SWAP6 PUSH1 0xE4 CALLDATALOAD SWAP1 PUSH1 0x2 DUP3 LT ISZERO PUSH2 0x315 JUMPI PUSH1 0x0 DUP1 SLOAD PUSH1 0x40 MLOAD PUSH4 0x95A8C58D PUSH1 0xE0 SHL DUP2 MSTORE CALLER PUSH1 0x4 DUP3 ADD MSTORE PUSH1 0x24 DUP2 ADD SWAP3 SWAP1 SWAP3 MSTORE PUSH1 0x20 SWAP1 DUP3 SWAP1 PUSH1 0x44 SWAP1 DUP3 SWAP1 PUSH1 0x1 PUSH1 0x1 PUSH1 0xA0 SHL SUB AND GAS STATICCALL DUP1 ISZERO PUSH2 0x309 JUMPI PUSH2 0x81B SWAP2 PUSH1 0x0 SWAP2 PUSH2 0xCD4 JUMPI POP PUSH2 0x2952 JUMP JUMPDEST DUP6 MLOAD ISZERO PUSH2 0xC9D JUMPI PUSH2 0x82A PUSH2 0x2ABB JUMP JUMPDEST POP PUSH1 0x40 MLOAD SWAP5 PUSH2 0x838 DUP7 PUSH2 0x2463 JUMP JUMPDEST DUP6 MSTORE PUSH1 0x20 DUP6 ADD SWAP4 DUP8 DUP6 MSTORE PUSH1 0x40 DUP7 ADD SWAP4 DUP5 MSTORE PUSH1 0x60 DUP7 ADD SWAP1 DUP2 MSTORE PUSH1 0x80 DUP7 ADD SWAP2 DUP3 MSTORE PUSH1 0xA0 DUP7 ADD SWAP3 PUSH2 0x865 DUP2 PUSH2 0x2559 JUMP JUMPDEST DUP4 MSTORE PUSH1 0xC0 DUP7 ADD SWAP4 DUP10 DUP6 MSTORE PUSH2 0x8B2 PUSH1 0xE0 DUP9 ADD SWAP7 CALLER DUP9 MSTORE PUSH2 0x8A8 PUSH2 0x896 PUSH1 0x20 DUP13 DUP2 PUSH1 0x40 MLOAD SWAP4 DUP3 DUP6 DUP1 SWAP5 MLOAD SWAP4 DUP5 SWAP3 ADD PUSH2 0x2511 JUMP JUMPDEST DUP2 ADD PUSH1 0x4 DUP2 MSTORE SUB ADD SWAP1 KECCAK256 SWAP10 MLOAD DUP11 PUSH2 0x2D54 JUMP JUMPDEST MLOAD PUSH1 0x1 DUP10 ADD PUSH2 0x2D54 JUMP JUMPDEST MLOAD DUP1 MLOAD SWAP1 PUSH1 0x2 DUP9 ADD SWAP1 PUSH1 0x1 PUSH1 0x40 SHL DUP4 GT PUSH2 0xBEC JUMPI DUP2 SLOAD DUP4 DUP4 SSTORE DUP1 DUP5 LT PUSH2 0xC1F JUMPI JUMPDEST POP PUSH1 0x20 ADD SWAP1 PUSH1 0x0 MSTORE PUSH1 0x20 PUSH1 0x0 KECCAK256 PUSH1 0x0 SWAP2 JUMPDEST DUP4 DUP4 LT PUSH2 0xC02 JUMPI POP POP POP POP PUSH1 0x3 DUP7 ADD SWAP1 MLOAD SWAP1 DUP2 MLOAD SWAP2 PUSH1 0x1 PUSH1 0x40 SHL DUP4 GT PUSH2 0xBEC JUMPI DUP2 SLOAD DUP4 DUP4 SSTORE DUP1 DUP5 LT PUSH2 0xB6E JUMPI JUMPDEST POP PUSH1 0x20 ADD SWAP1 PUSH1 0x0 MSTORE PUSH1 0x20 PUSH1 0x0 KECCAK256 PUSH1 0x0 SWAP2 JUMPDEST DUP4 DUP4 LT PUSH2 0xB51 JUMPI POP POP POP POP SWAP2 PUSH2 0x971 SWAP2 PUSH2 0x943 PUSH1 0x7 SWAP6 SWAP5 MLOAD PUSH1 0x4 DUP9 ADD PUSH2 0x2D54 JUMP JUMPDEST PUSH1 0x5 DUP7 ADD SWAP1 MLOAD PUSH2 0x952 DUP2 PUSH2 0x2559 JUMP JUMPDEST PUSH2 0x95B DUP2 PUSH2 0x2559 JUMP JUMPDEST PUSH1 0xFF DUP1 NOT DUP4 SLOAD AND SWAP2 AND OR SWAP1 SSTORE MLOAD PUSH1 0x6 DUP6 ADD PUSH2 0x2D54 JUMP JUMPDEST MLOAD SWAP2 ADD DUP1 SLOAD PUSH1 0x1 PUSH1 0x1 PUSH1 0xA0 SHL SUB NOT AND PUSH1 0x1 PUSH1 0x1 PUSH1 0xA0 SHL SUB SWAP3 SWAP1 SWAP3 AND SWAP2 SWAP1 SWAP2 OR SWAP1 SSTORE PUSH2 0x99A PUSH2 0x2AFD JUMP JUMPDEST POP PUSH1 0x40 MLOAD SWAP3 PUSH2 0x9A8 DUP5 PUSH2 0x247F JUMP JUMPDEST PUSH1 0x20 SWAP2 PUSH1 0x40 MLOAD PUSH2 0x9B8 DUP5 DUP3 PUSH2 0x249A JUMP JUMPDEST PUSH1 0x0 DUP2 MSTORE DUP6 MSTORE DUP3 DUP6 ADD SWAP5 PUSH1 0x0 DUP7 MSTORE PUSH1 0x40 DUP2 ADD TIMESTAMP DUP2 MSTORE PUSH1 0x60 DUP3 ADD SWAP7 PUSH1 0x0 DUP9 MSTORE PUSH1 0x80 DUP4 ADD SWAP1 PUSH1 0x0 DUP3 MSTORE PUSH1 0x40 MLOAD PUSH2 0x9EC DUP9 DUP3 PUSH2 0x249A JUMP JUMPDEST PUSH1 0x0 DUP2 MSTORE PUSH1 0xA0 DUP6 ADD SWAP1 DUP2 MSTORE PUSH1 0xC0 DUP6 ADD SWAP3 PUSH1 0x0 DUP5 MSTORE PUSH2 0xA2C PUSH1 0x40 MLOAD DUP11 DUP2 PUSH1 0x20 PUSH2 0xA1A DUP13 DUP4 DUP2 MLOAD SWAP4 DUP5 SWAP3 ADD PUSH2 0x2511 JUMP JUMPDEST DUP2 ADD PUSH1 0x3 DUP2 MSTORE SUB ADD SWAP1 KECCAK256 SWAP7 MLOAD DUP8 PUSH2 0x2D54 JUMP JUMPDEST PUSH1 0x1 DUP7 ADD SWAP3 MLOAD SWAP11 PUSH1 0x3 DUP13 LT ISZERO PUSH2 0xB3B JUMPI PUSH1 0x6 SWAP6 PUSH2 0xA6E SWAP5 PUSH1 0x0 SWAP14 PUSH1 0xFF DUP1 NOT DUP4 SLOAD AND SWAP2 AND OR SWAP1 SSTORE MLOAD PUSH1 0x2 DUP9 ADD SSTORE MLOAD PUSH1 0x3 DUP8 ADD SSTORE MLOAD PUSH1 0x4 DUP7 ADD SSTORE MLOAD PUSH1 0x5 DUP6 ADD PUSH2 0x2D54 JUMP JUMPDEST MLOAD SWAP2 ADD DUP1 SLOAD PUSH1 0x1 PUSH1 0x1 PUSH1 0xA0 SHL SUB NOT AND PUSH1 0x1 PUSH1 0x1 PUSH1 0xA0 SHL SUB SWAP3 SWAP1 SWAP3 AND SWAP2 SWAP1 SWAP2 OR SWAP1 SSTORE PUSH1 0x2 SLOAD PUSH1 0x1 PUSH1 0x40 SHL DUP2 LT ISZERO PUSH2 0xB27 JUMPI DUP1 PUSH1 0x1 PUSH2 0xAAE SWAP3 ADD PUSH1 0x2 SSTORE PUSH2 0x291F JUMP JUMPDEST PUSH2 0xB13 JUMPI SWAP3 PUSH32 0xA8A9F5DE4B20098E7555472AD4ADFBBB072E2FDD6BFA4C1B1A7B7645F4780351 SWAP5 SWAP3 PUSH2 0xAE6 PUSH2 0xB07 SWAP4 PUSH2 0xAFA SWAP7 PUSH2 0x2D54 JUMP JUMPDEST PUSH1 0x40 MLOAD SWAP5 DUP6 SWAP5 PUSH1 0x60 DUP7 MSTORE PUSH1 0x60 DUP7 ADD SWAP1 PUSH2 0x2534 JUMP JUMPDEST SWAP2 DUP5 DUP4 SUB SWAP1 DUP6 ADD MSTORE PUSH2 0x2534 JUMP JUMPDEST CALLER PUSH1 0x40 DUP4 ADD MSTORE SUB SWAP1 LOG1 DUP1 RETURN JUMPDEST PUSH4 0x4E487B71 PUSH1 0xE0 SHL DUP7 MSTORE PUSH1 0x4 DUP7 SWAP1 MSTORE PUSH1 0x24 DUP7 REVERT JUMPDEST PUSH4 0x4E487B71 PUSH1 0xE0 SHL DUP7 MSTORE PUSH1 0x41 PUSH1 0x4 MSTORE PUSH1 0x24 DUP7 REVERT JUMPDEST PUSH4 0x4E487B71 PUSH1 0xE0 SHL PUSH1 0x0 MSTORE PUSH1 0x21 PUSH1 0x4 MSTORE PUSH1 0x24 PUSH1 0x0 REVERT JUMPDEST PUSH1 0x1 PUSH1 0x20 DUP3 PUSH2 0xB62 DUP4 SWAP5 MLOAD DUP7 PUSH2 0x2D54 JUMP JUMPDEST ADD SWAP3 ADD SWAP3 ADD SWAP2 SWAP1 PUSH2 0x922 JUMP JUMPDEST DUP3 PUSH1 0x0 MSTORE DUP4 PUSH1 0x20 PUSH1 0x0 KECCAK256 SWAP2 DUP3 ADD SWAP2 ADD JUMPDEST DUP2 DUP2 LT PUSH2 0xB8B JUMPI POP PUSH2 0x911 JUMP JUMPDEST DUP1 PUSH2 0xB98 PUSH1 0x1 SWAP3 SLOAD PUSH2 0x262D JUMP JUMPDEST DUP1 PUSH2 0xBA5 JUMPI JUMPDEST POP ADD PUSH2 0xB7E JUMP JUMPDEST PUSH1 0x1F DUP2 GT DUP4 EQ PUSH2 0xBBB JUMPI POP PUSH1 0x0 DUP2 SSTORE JUMPDEST DUP15 PUSH2 0xB9E JUMP JUMPDEST PUSH2 0xBD9 SWAP1 DUP3 PUSH1 0x0 MSTORE DUP4 PUSH1 0x1F PUSH1 0x20 PUSH1 0x0 KECCAK256 SWAP3 ADD PUSH1 0x5 SHR DUP3 ADD SWAP2 ADD PUSH2 0x2D3D JUMP JUMPDEST DUP1 PUSH1 0x0 MSTORE PUSH1 0x0 PUSH1 0x20 DUP2 KECCAK256 DUP2 DUP4 SSTORE SSTORE PUSH2 0xBB5 JUMP JUMPDEST PUSH4 0x4E487B71 PUSH1 0xE0 SHL PUSH1 0x0 MSTORE PUSH1 0x41 PUSH1 0x4 MSTORE PUSH1 0x24 PUSH1 0x0 REVERT JUMPDEST PUSH1 0x1 PUSH1 0x20 DUP3 PUSH2 0xC13 DUP4 SWAP5 MLOAD DUP7 PUSH2 0x2D54 JUMP JUMPDEST ADD SWAP3 ADD SWAP3 ADD SWAP2 SWAP1 PUSH2 0x8E4 JUMP JUMPDEST DUP3 PUSH1 0x0 MSTORE DUP4 PUSH1 0x20 PUSH1 0x0 KECCAK256 SWAP2 DUP3 ADD SWAP2 ADD JUMPDEST DUP2 DUP2 LT PUSH2 0xC3C JUMPI POP PUSH2 0x8D3 JUMP JUMPDEST DUP1 PUSH2 0xC49 PUSH1 0x1 SWAP3 SLOAD PUSH2 0x262D JUMP JUMPDEST DUP1 PUSH2 0xC56 JUMPI JUMPDEST POP ADD PUSH2 0xC2F JUMP JUMPDEST PUSH1 0x1F DUP2 GT DUP4 EQ PUSH2 0xC6C JUMPI POP PUSH1 0x0 DUP2 SSTORE JUMPDEST DUP16 PUSH2 0xC4F JUMP JUMPDEST PUSH2 0xC8A SWAP1 DUP3 PUSH1 0x0 MSTORE DUP4 PUSH1 0x1F PUSH1 0x20 PUSH1 0x0 KECCAK256 SWAP3 ADD PUSH1 0x5 SHR DUP3 ADD SWAP2 ADD PUSH2 0x2D3D JUMP JUMPDEST DUP1 PUSH1 0x0 MSTORE PUSH1 0x0 PUSH1 0x20 DUP2 KECCAK256 DUP2 DUP4 SSTORE SSTORE PUSH2 0xC66 JUMP JUMPDEST PUSH1 0x40 MLOAD PUSH3 0x461BCD PUSH1 0xE5 SHL DUP2 MSTORE PUSH1 0x20 PUSH1 0x4 DUP3 ADD MSTORE PUSH1 0xF PUSH1 0x24 DUP3 ADD MSTORE PUSH15 0x125B9D985B1A590813D8985D081251 PUSH1 0x8A SHL PUSH1 0x44 DUP3 ADD MSTORE PUSH1 0x64 SWAP1 REVERT JUMPDEST PUSH2 0xCED SWAP2 POP PUSH1 0x20 RETURNDATASIZE PUSH1 0x20 GT PUSH2 0x302 JUMPI PUSH2 0x2F4 DUP2 DUP4 PUSH2 0x249A JUMP JUMPDEST DUP11 PUSH2 0x63B JUMP JUMPDEST CALLVALUE PUSH2 0x315 JUMPI PUSH1 0x20 CALLDATASIZE PUSH1 0x3 NOT ADD SLT PUSH2 0x315 JUMPI PUSH1 0x4 CALLDATALOAD PUSH1 0x1 PUSH1 0x1 PUSH1 0x40 SHL SUB DUP2 GT PUSH2 0x315 JUMPI PUSH1 0x0 PUSH2 0xD28 PUSH2 0xD56 SWAP3 CALLDATASIZE SWAP1 PUSH1 0x4 ADD PUSH2 0x24BB JUMP JUMPDEST PUSH1 0x1 DUP1 PUSH1 0xA0 SHL SUB PUSH1 0x1 SLOAD AND PUSH1 0x40 MLOAD DUP1 DUP1 SWAP6 DUP2 SWAP5 PUSH4 0xE49D0327 PUSH1 0xE0 SHL DUP4 MSTORE PUSH1 0x20 PUSH1 0x4 DUP5 ADD MSTORE PUSH1 0x24 DUP4 ADD SWAP1 PUSH2 0x2534 JUMP JUMPDEST SUB SWAP2 GAS STATICCALL SWAP1 DUP2 ISZERO PUSH2 0x309 JUMPI PUSH1 0x0 SWAP2 PUSH2 0xDB2 JUMPI JUMPDEST POP PUSH1 0x40 MLOAD DUP1 SWAP2 PUSH1 0x20 DUP3 ADD PUSH1 0x20 DUP4 MSTORE DUP2 MLOAD DUP1 SWAP2 MSTORE PUSH1 0x20 PUSH1 0x40 DUP5 ADD SWAP3 ADD SWAP1 PUSH1 0x0 JUMPDEST DUP2 DUP2 LT PUSH2 0xD96 JUMPI POP POP POP SUB SWAP1 RETURN JUMPDEST DUP3 MLOAD PUSH1 0xFF AND DUP5 MSTORE DUP6 SWAP5 POP PUSH1 0x20 SWAP4 DUP5 ADD SWAP4 SWAP1 SWAP3 ADD SWAP2 PUSH1 0x1 ADD PUSH2 0xD88 JUMP JUMPDEST SWAP1 RETURNDATASIZE DUP1 DUP3 DUP5 RETURNDATACOPY PUSH2 0xDC2 DUP2 DUP5 PUSH2 0x249A JUMP JUMPDEST DUP3 ADD SWAP2 PUSH1 0x20 DUP2 DUP5 SUB SLT PUSH2 0xE51 JUMPI DUP1 MLOAD SWAP1 PUSH1 0x1 PUSH1 0x1 PUSH1 0x40 SHL SUB DUP3 GT PUSH2 0xE4D JUMPI ADD SWAP2 DUP1 PUSH1 0x1F DUP5 ADD SLT ISZERO PUSH2 0xE51 JUMPI DUP3 MLOAD SWAP2 PUSH2 0xDF9 DUP4 PUSH2 0x2858 JUMP JUMPDEST SWAP4 PUSH2 0xE07 PUSH1 0x40 MLOAD SWAP6 DUP7 PUSH2 0x249A JUMP JUMPDEST DUP4 DUP6 MSTORE PUSH1 0x20 DUP1 DUP7 ADD SWAP5 PUSH1 0x5 SHL DUP3 ADD ADD SWAP3 DUP4 GT PUSH2 0xE51 JUMPI PUSH1 0x20 ADD SWAP3 JUMPDEST DUP3 DUP5 LT PUSH2 0xE33 JUMPI POP POP POP POP DUP2 PUSH2 0xD69 JUMP JUMPDEST DUP4 MLOAD PUSH1 0xFF DUP2 AND DUP2 SUB PUSH2 0xE4D JUMPI DUP2 MSTORE PUSH1 0x20 SWAP4 DUP5 ADD SWAP4 ADD PUSH2 0xE22 JUMP JUMPDEST DUP3 DUP1 REVERT JUMPDEST POP DUP1 REVERT JUMPDEST CALLVALUE PUSH2 0x315 JUMPI PUSH1 0x20 CALLDATASIZE PUSH1 0x3 NOT ADD SLT PUSH2 0x315 JUMPI PUSH1 0x4 CALLDATALOAD PUSH1 0x2 SLOAD DUP2 LT ISZERO PUSH2 0x315 JUMPI PUSH2 0xE7C SWAP1 PUSH2 0x291F JUMP JUMPDEST PUSH2 0xEA4 JUMPI PUSH2 0xE8C PUSH2 0xEA0 SWAP2 PUSH2 0x2667 JUMP JUMPDEST PUSH1 0x40 MLOAD SWAP2 DUP3 SWAP2 PUSH1 0x20 DUP4 MSTORE PUSH1 0x20 DUP4 ADD SWAP1 PUSH2 0x2534 JUMP JUMPDEST SUB SWAP1 RETURN JUMPDEST PUSH4 0x4E487B71 PUSH1 0xE0 SHL PUSH1 0x0 MSTORE PUSH1 0x0 PUSH1 0x4 MSTORE PUSH1 0x24 PUSH1 0x0 REVERT JUMPDEST CALLVALUE PUSH2 0x315 JUMPI PUSH1 0x20 CALLDATASIZE PUSH1 0x3 NOT ADD SLT PUSH2 0x315 JUMPI PUSH1 0x4 CALLDATALOAD PUSH1 0x1 PUSH1 0x1 PUSH1 0x40 SHL SUB DUP2 GT PUSH2 0x315 JUMPI PUSH2 0xEEA SWAP1 CALLDATASIZE SWAP1 PUSH1 0x4 ADD PUSH2 0x24BB JUMP JUMPDEST PUSH1 0x0 DUP1 SLOAD PUSH1 0x40 MLOAD PUSH4 0x95A8C58D PUSH1 0xE0 SHL DUP2 MSTORE CALLER PUSH1 0x4 DUP3 ADD MSTORE PUSH1 0x24 DUP2 ADD SWAP3 SWAP1 SWAP3 MSTORE PUSH1 0x20 SWAP1 DUP3 SWAP1 PUSH1 0x44 SWAP1 DUP3 SWAP1 PUSH1 0x1 PUSH1 0x1 PUSH1 0xA0 SHL SUB AND GAS STATICCALL DUP1 ISZERO PUSH2 0x309 JUMPI PUSH2 0xF35 SWAP2 PUSH1 0x0 SWAP2 PUSH2 0x112B JUMPI POP PUSH2 0x2952 JUMP JUMPDEST PUSH1 0x2 SLOAD PUSH1 0x20 DUP3 ADD PUSH1 0x0 DUP1 JUMPDEST DUP4 DUP2 LT PUSH2 0x10A0 JUMPI POP PUSH2 0xF51 SWAP1 PUSH2 0x2C98 JUMP JUMPDEST SWAP3 PUSH1 0x0 SWAP1 PUSH1 0x0 JUMPDEST DUP5 DUP2 LT PUSH2 0xF6D JUMPI PUSH1 0x40 MLOAD DUP1 PUSH2 0xEA0 DUP9 DUP3 PUSH2 0x2771 JUMP JUMPDEST PUSH2 0xF7F PUSH2 0xF79 DUP3 PUSH2 0x291F JUMP JUMPDEST POP PUSH2 0x2667 JUMP JUMPDEST PUSH1 0x40 MLOAD SWAP1 PUSH2 0xFD2 PUSH2 0xFC3 PUSH1 0x20 PUSH2 0xFB1 DUP5 MLOAD SWAP6 DUP3 DUP2 DUP2 DUP9 ADD SWAP9 PUSH2 0xFA2 DUP2 DUP4 DUP13 PUSH2 0x2511 JUMP JUMPDEST DUP2 ADD PUSH1 0x4 DUP2 MSTORE SUB ADD SWAP1 KECCAK256 PUSH2 0x2B36 JUMP JUMPDEST SWAP5 PUSH1 0x40 MLOAD DUP1 SWAP4 DUP2 SWAP3 DUP8 MLOAD SWAP3 DUP4 SWAP2 PUSH2 0x2511 JUMP JUMPDEST DUP2 ADD PUSH1 0x3 DUP2 MSTORE SUB ADD SWAP1 KECCAK256 PUSH2 0x2BDB JUMP JUMPDEST SWAP1 PUSH1 0xC0 DUP4 ADD SWAP3 DUP4 MLOAD PUSH1 0x40 MLOAD PUSH2 0xFF7 PUSH1 0x20 DUP3 DUP2 PUSH2 0x44D DUP2 DUP4 ADD SWAP7 DUP8 DUP2 MLOAD SWAP4 DUP5 SWAP3 ADD PUSH2 0x2511 JUMP JUMPDEST MLOAD SWAP1 KECCAK256 DUP9 PUSH1 0x40 MLOAD PUSH2 0x1017 PUSH1 0x20 DUP3 DUP12 PUSH2 0x44D DUP4 DUP4 ADD SWAP7 DUP8 SWAP3 MLOAD SWAP3 DUP4 SWAP2 PUSH2 0x2511 JUMP JUMPDEST MLOAD SWAP1 KECCAK256 EQ PUSH2 0x102C JUMPI JUMPDEST POP POP POP POP PUSH1 0x1 ADD PUSH2 0xF58 JUMP JUMPDEST PUSH1 0x20 SWAP1 SWAP7 SWAP3 SWAP4 SWAP5 SWAP7 ADD MLOAD PUSH1 0x20 DUP5 MLOAD SWAP5 ADD MLOAD SWAP5 PUSH1 0x3 DUP7 LT ISZERO PUSH2 0xB3B JUMPI PUSH1 0x1 SWAP6 PUSH2 0x1096 SWAP6 PUSH2 0x1076 SWAP3 MLOAD SWAP4 PUSH1 0x40 MLOAD SWAP6 PUSH2 0x1061 DUP8 PUSH2 0x2448 JUMP JUMPDEST DUP7 MSTORE PUSH1 0x20 DUP7 ADD MSTORE PUSH1 0x40 DUP6 ADD MSTORE PUSH1 0x60 DUP5 ADD PUSH2 0x2BCF JUMP JUMPDEST PUSH1 0x80 DUP3 ADD MSTORE PUSH2 0x1085 DUP3 DUP11 PUSH2 0x2A82 JUMP JUMPDEST MSTORE PUSH2 0x1090 DUP2 DUP10 PUSH2 0x2A82 JUMP JUMPDEST POP PUSH2 0x2A96 JUMP JUMPDEST SWAP3 SWAP1 DUP8 DUP1 DUP1 PUSH2 0x1020 JUMP JUMPDEST PUSH1 0xC0 PUSH2 0x10C9 PUSH2 0xFA2 PUSH1 0x20 PUSH2 0x10B6 PUSH2 0xF79 DUP7 PUSH2 0x291F JUMP JUMPDEST DUP2 PUSH1 0x40 MLOAD SWAP4 DUP3 DUP6 DUP1 SWAP5 MLOAD SWAP4 DUP5 SWAP3 ADD PUSH2 0x2511 JUMP JUMPDEST ADD MLOAD PUSH1 0x40 MLOAD PUSH2 0x10E8 PUSH1 0x20 DUP3 DUP2 PUSH2 0x44D DUP2 DUP4 ADD SWAP7 DUP8 DUP2 MLOAD SWAP4 DUP5 SWAP3 ADD PUSH2 0x2511 JUMP JUMPDEST MLOAD SWAP1 KECCAK256 PUSH1 0x40 MLOAD PUSH1 0x20 DUP2 ADD SWAP1 PUSH2 0x1106 PUSH1 0x20 DUP3 DUP11 MLOAD PUSH2 0x44D DUP2 DUP8 DUP13 PUSH2 0x2511 JUMP JUMPDEST MLOAD SWAP1 KECCAK256 EQ PUSH2 0x1117 JUMPI JUMPDEST PUSH1 0x1 ADD PUSH2 0xF40 JUMP JUMPDEST SWAP1 PUSH2 0x1123 PUSH1 0x1 SWAP2 PUSH2 0x2A96 JUMP JUMPDEST SWAP2 SWAP1 POP PUSH2 0x110F JUMP JUMPDEST PUSH2 0x1144 SWAP2 POP PUSH1 0x20 RETURNDATASIZE PUSH1 0x20 GT PUSH2 0x302 JUMPI PUSH2 0x2F4 DUP2 DUP4 PUSH2 0x249A JUMP JUMPDEST DUP4 PUSH2 0x63B JUMP JUMPDEST CALLVALUE PUSH2 0x315 JUMPI PUSH1 0x40 CALLDATASIZE PUSH1 0x3 NOT ADD SLT PUSH2 0x315 JUMPI PUSH1 0x4 CALLDATALOAD PUSH1 0x1 PUSH1 0x1 PUSH1 0x40 SHL SUB DUP2 GT PUSH2 0x315 JUMPI PUSH2 0x117A SWAP1 CALLDATASIZE SWAP1 PUSH1 0x4 ADD PUSH2 0x24BB JUMP JUMPDEST PUSH2 0x1196 PUSH1 0x20 PUSH1 0x24 CALLDATALOAD SWAP3 DUP2 PUSH1 0x40 MLOAD SWAP4 DUP3 DUP6 DUP1 SWAP5 MLOAD SWAP4 DUP5 SWAP3 ADD PUSH2 0x2511 JUMP JUMPDEST DUP2 ADD PUSH1 0x5 DUP2 MSTORE SUB ADD SWAP1 KECCAK256 SWAP1 DUP2 SLOAD DUP2 LT ISZERO PUSH2 0x315 JUMPI PUSH2 0x11B3 SWAP2 PUSH2 0x28ED JUMP JUMPDEST POP PUSH1 0xFF DUP2 SLOAD AND PUSH2 0xEA0 PUSH2 0x11C8 PUSH1 0x1 DUP5 ADD PUSH2 0x2667 JUMP JUMPDEST SWAP3 PUSH2 0x11D5 PUSH1 0x2 DUP3 ADD PUSH2 0x2667 JUMP JUMPDEST PUSH2 0x1220 PUSH2 0x11EC PUSH1 0x5 PUSH1 0xFF PUSH1 0x3 DUP7 ADD SLOAD AND SWAP5 ADD PUSH2 0x2667 JUMP JUMPDEST SWAP2 PUSH2 0x1212 PUSH1 0x40 MLOAD SWAP8 DUP8 PUSH2 0x11FF DUP11 SWAP10 PUSH2 0x2559 JUMP JUMPDEST DUP9 MSTORE PUSH1 0xA0 PUSH1 0x20 DUP10 ADD MSTORE PUSH1 0xA0 DUP9 ADD SWAP1 PUSH2 0x2534 JUMP JUMPDEST SWAP1 DUP7 DUP3 SUB PUSH1 0x40 DUP9 ADD MSTORE PUSH2 0x2534 JUMP JUMPDEST SWAP2 PUSH1 0x60 DUP6 ADD MSTORE DUP4 DUP3 SUB PUSH1 0x80 DUP6 ADD MSTORE PUSH2 0x2534 JUMP JUMPDEST CALLVALUE PUSH2 0x315 JUMPI PUSH1 0xA0 CALLDATASIZE PUSH1 0x3 NOT ADD SLT PUSH2 0x315 JUMPI PUSH1 0x4 CALLDATALOAD PUSH1 0x1 PUSH1 0x1 PUSH1 0x40 SHL SUB DUP2 GT PUSH2 0x315 JUMPI PUSH2 0x1263 SWAP1 CALLDATASIZE SWAP1 PUSH1 0x4 ADD PUSH2 0x24BB JUMP JUMPDEST PUSH1 0x24 CALLDATALOAD PUSH1 0x1 PUSH1 0x1 PUSH1 0x40 SHL SUB DUP2 GT PUSH2 0x315 JUMPI PUSH2 0x1282 SWAP1 CALLDATASIZE SWAP1 PUSH1 0x4 ADD PUSH2 0x24BB JUMP JUMPDEST SWAP1 PUSH1 0x44 CALLDATALOAD PUSH1 0xFF DUP2 AND DUP1 SWAP2 SUB PUSH2 0x315 JUMPI PUSH1 0x64 CALLDATALOAD PUSH1 0x1 PUSH1 0x1 PUSH1 0x40 SHL SUB DUP2 GT PUSH2 0x315 JUMPI PUSH2 0x12B0 SWAP1 CALLDATASIZE SWAP1 PUSH1 0x4 ADD PUSH2 0x286F JUMP JUMPDEST PUSH1 0x84 CALLDATALOAD PUSH1 0x1 PUSH1 0x1 PUSH1 0x40 SHL SUB DUP2 GT PUSH2 0x315 JUMPI PUSH2 0x12CF SWAP1 CALLDATASIZE SWAP1 PUSH1 0x4 ADD PUSH2 0x24BB JUMP JUMPDEST PUSH1 0x0 DUP1 SLOAD PUSH1 0x40 MLOAD PUSH4 0x95A8C58D PUSH1 0xE0 SHL DUP2 MSTORE CALLER PUSH1 0x4 DUP3 ADD MSTORE PUSH1 0x24 DUP2 ADD SWAP3 SWAP1 SWAP3 MSTORE SWAP2 SWAP5 SWAP2 PUSH1 0x20 SWAP1 DUP3 SWAP1 PUSH1 0x44 SWAP1 DUP3 SWAP1 PUSH1 0x1 PUSH1 0x1 PUSH1 0xA0 SHL SUB AND GAS STATICCALL DUP1 ISZERO PUSH2 0x309 JUMPI PUSH2 0x131D SWAP2 PUSH1 0x0 SWAP2 PUSH2 0x155F JUMPI POP PUSH2 0x2952 JUMP JUMPDEST PUSH1 0x40 MLOAD SWAP1 PUSH2 0x134B PUSH1 0x1 DUP3 MLOAD SWAP4 PUSH1 0x20 DUP2 DUP2 DUP7 ADD SWAP7 PUSH2 0x133B DUP2 DUP4 DUP11 PUSH2 0x2511 JUMP JUMPDEST DUP2 ADD PUSH1 0x4 DUP2 MSTORE SUB ADD SWAP1 KECCAK256 ADD PUSH2 0x2667 JUMP JUMPDEST SWAP3 PUSH1 0x40 MLOAD SWAP3 PUSH2 0x1359 DUP5 PUSH2 0x242D JUMP JUMPDEST PUSH1 0x0 DUP5 MSTORE PUSH1 0x20 DUP5 ADD DUP6 DUP2 MSTORE PUSH1 0x40 DUP6 ADD DUP10 DUP2 MSTORE PUSH2 0x1398 PUSH1 0x20 PUSH1 0x60 DUP9 ADD SWAP5 DUP11 DUP7 MSTORE PUSH1 0x80 DUP10 ADD SWAP7 DUP8 MSTORE PUSH1 0xA0 DUP10 ADD SWAP8 DUP13 DUP10 MSTORE PUSH1 0x40 MLOAD SWAP4 DUP5 SWAP3 DUP4 SWAP3 MLOAD SWAP3 DUP4 SWAP2 PUSH2 0x2511 JUMP JUMPDEST DUP2 ADD PUSH1 0x5 DUP2 MSTORE SUB ADD SWAP1 KECCAK256 DUP1 SLOAD PUSH1 0x1 PUSH1 0x40 SHL DUP2 LT ISZERO PUSH2 0xBEC JUMPI PUSH2 0x13BF SWAP2 PUSH1 0x1 DUP3 ADD DUP2 SSTORE PUSH2 0x28ED JUMP JUMPDEST SWAP7 SWAP1 SWAP7 PUSH2 0xEA4 JUMPI PUSH2 0x1401 SWAP3 PUSH2 0x13F7 SWAP2 MLOAD PUSH2 0x13D8 DUP2 PUSH2 0x2559 JUMP JUMPDEST PUSH2 0x13E1 DUP2 PUSH2 0x2559 JUMP JUMPDEST PUSH1 0xFF DUP1 NOT DUP11 SLOAD AND SWAP2 AND OR DUP9 SSTORE MLOAD PUSH1 0x1 DUP9 ADD PUSH2 0x2D54 JUMP JUMPDEST MLOAD PUSH1 0x2 DUP7 ADD PUSH2 0x2D54 JUMP JUMPDEST PUSH1 0xFF PUSH1 0x3 DUP6 ADD SWAP2 MLOAD AND PUSH1 0xFF NOT DUP3 SLOAD AND OR SWAP1 SSTORE PUSH1 0x4 DUP4 ADD SWAP1 MLOAD SWAP1 DUP2 MLOAD SWAP2 PUSH1 0x1 PUSH1 0x40 SHL DUP4 GT PUSH2 0xBEC JUMPI DUP2 SLOAD DUP4 DUP4 SSTORE DUP1 DUP5 LT PUSH2 0x14E1 JUMPI JUMPDEST POP PUSH1 0x20 ADD SWAP1 PUSH1 0x0 MSTORE PUSH1 0x20 PUSH1 0x0 KECCAK256 PUSH1 0x0 SWAP2 JUMPDEST DUP4 DUP4 LT PUSH2 0x14C4 JUMPI PUSH32 0x48086AA029A355C9DD13E9F17292A5CC49F3B533BF3324AD5A543814B0FF5F13 PUSH2 0x149E DUP12 PUSH2 0x14BF DUP13 PUSH2 0x14B1 DUP14 DUP14 PUSH2 0x148A DUP15 PUSH1 0x5 DUP16 MLOAD SWAP2 ADD PUSH2 0x2D54 JUMP JUMPDEST PUSH1 0x40 MLOAD SWAP7 DUP8 SWAP7 PUSH1 0x80 DUP9 MSTORE PUSH1 0x80 DUP9 ADD SWAP1 PUSH2 0x2534 JUMP JUMPDEST SWAP2 PUSH1 0x20 DUP8 ADD MSTORE DUP6 DUP3 SUB PUSH1 0x40 DUP8 ADD MSTORE PUSH2 0x2534 JUMP JUMPDEST SWAP1 DUP4 DUP3 SUB PUSH1 0x60 DUP6 ADD MSTORE PUSH2 0x2534 JUMP JUMPDEST SUB SWAP1 LOG1 STOP JUMPDEST PUSH1 0x1 PUSH1 0x20 DUP3 PUSH2 0x14D5 DUP4 SWAP5 MLOAD DUP7 PUSH2 0x2D54 JUMP JUMPDEST ADD SWAP3 ADD SWAP3 ADD SWAP2 SWAP1 PUSH2 0x1446 JUMP JUMPDEST DUP3 PUSH1 0x0 MSTORE DUP4 PUSH1 0x20 PUSH1 0x0 KECCAK256 SWAP2 DUP3 ADD SWAP2 ADD JUMPDEST DUP2 DUP2 LT PUSH2 0x14FE JUMPI POP PUSH2 0x1435 JUMP JUMPDEST DUP1 PUSH2 0x150B PUSH1 0x1 SWAP3 SLOAD PUSH2 0x262D JUMP JUMPDEST DUP1 PUSH2 0x1518 JUMPI JUMPDEST POP ADD PUSH2 0x14F1 JUMP JUMPDEST PUSH1 0x1F DUP2 GT DUP4 EQ PUSH2 0x152E JUMPI POP PUSH1 0x0 DUP2 SSTORE JUMPDEST DUP13 PUSH2 0x1511 JUMP JUMPDEST PUSH2 0x154C SWAP1 DUP3 PUSH1 0x0 MSTORE DUP4 PUSH1 0x1F PUSH1 0x20 PUSH1 0x0 KECCAK256 SWAP3 ADD PUSH1 0x5 SHR DUP3 ADD SWAP2 ADD PUSH2 0x2D3D JUMP JUMPDEST DUP1 PUSH1 0x0 MSTORE PUSH1 0x0 PUSH1 0x20 DUP2 KECCAK256 DUP2 DUP4 SSTORE SSTORE PUSH2 0x1528 JUMP JUMPDEST PUSH2 0x1578 SWAP2 POP PUSH1 0x20 RETURNDATASIZE PUSH1 0x20 GT PUSH2 0x302 JUMPI PUSH2 0x2F4 DUP2 DUP4 PUSH2 0x249A JUMP JUMPDEST DUP8 PUSH2 0x63B JUMP JUMPDEST CALLVALUE PUSH2 0x315 JUMPI PUSH1 0x0 CALLDATASIZE PUSH1 0x3 NOT ADD SLT PUSH2 0x315 JUMPI PUSH1 0x2 SLOAD PUSH1 0x0 DUP1 JUMPDEST DUP3 DUP3 LT PUSH2 0x173E JUMPI PUSH2 0x15A7 SWAP2 POP PUSH2 0x29DA JUMP JUMPDEST PUSH1 0x0 DUP1 JUMPDEST DUP4 DUP3 LT PUSH2 0x15C0 JUMPI PUSH1 0x40 MLOAD DUP1 PUSH2 0xEA0 DUP6 DUP3 PUSH2 0x2563 JUMP JUMPDEST PUSH2 0x15CE PUSH2 0xF79 DUP4 SWAP5 SWAP4 PUSH2 0x291F JUMP JUMPDEST PUSH1 0x40 MLOAD PUSH1 0x20 DUP2 DUP4 MLOAD PUSH2 0x15E3 DUP2 DUP4 DUP6 DUP9 ADD PUSH2 0x2511 JUMP JUMPDEST DUP2 ADD PUSH1 0x5 DUP2 MSTORE SUB ADD SWAP1 KECCAK256 DUP1 SLOAD PUSH2 0x15F8 DUP2 PUSH2 0x2858 JUMP JUMPDEST SWAP2 PUSH2 0x1606 PUSH1 0x40 MLOAD SWAP4 DUP5 PUSH2 0x249A JUMP JUMPDEST DUP2 DUP4 MSTORE PUSH1 0x20 DUP4 ADD SWAP1 PUSH1 0x0 MSTORE PUSH1 0x20 PUSH1 0x0 KECCAK256 SWAP1 PUSH1 0x0 SWAP1 JUMPDEST DUP4 DUP3 LT PUSH2 0x16BE JUMPI POP POP POP POP DUP1 MLOAD ISZERO PUSH2 0x16B1 JUMPI PUSH1 0x0 JUMPDEST DUP2 MLOAD DUP2 LT ISZERO PUSH2 0x169D JUMPI PUSH2 0x1643 DUP2 DUP4 PUSH2 0x2A82 JUMP JUMPDEST MLOAD MLOAD PUSH2 0x164E DUP2 PUSH2 0x2559 JUMP JUMPDEST PUSH2 0x1657 DUP2 PUSH2 0x2559 JUMP JUMPDEST ISZERO PUSH2 0x1665 JUMPI JUMPDEST PUSH1 0x1 ADD PUSH2 0x1630 JUMP JUMPDEST SWAP3 PUSH2 0x1695 PUSH1 0x1 SWAP2 PUSH2 0x1680 PUSH2 0x1679 DUP8 DUP7 PUSH2 0x2A82 JUMP JUMPDEST MLOAD DUP7 PUSH2 0x2E54 JUMP JUMPDEST PUSH2 0x168A DUP3 DUP10 PUSH2 0x2A82 JUMP JUMPDEST MSTORE PUSH2 0x1090 DUP2 DUP9 PUSH2 0x2A82 JUMP JUMPDEST SWAP4 SWAP1 POP PUSH2 0x165D JUMP JUMPDEST POP POP POP SWAP1 SWAP3 SWAP2 PUSH1 0x1 SWAP1 JUMPDEST ADD SWAP1 SWAP3 SWAP2 SWAP3 PUSH2 0x15AB JUMP JUMPDEST POP POP SWAP1 SWAP3 SWAP2 PUSH1 0x1 SWAP1 PUSH2 0x16A7 JUMP JUMPDEST PUSH1 0x6 PUSH1 0x20 PUSH1 0x1 SWAP3 PUSH1 0x40 MLOAD PUSH2 0x16D1 DUP2 PUSH2 0x242D JUMP JUMPDEST PUSH1 0xFF DUP8 SLOAD AND PUSH2 0x16DF DUP2 PUSH2 0x2559 JUMP JUMPDEST DUP2 MSTORE PUSH2 0x16EC DUP6 DUP9 ADD PUSH2 0x2667 JUMP JUMPDEST DUP4 DUP3 ADD MSTORE PUSH2 0x16FC PUSH1 0x2 DUP9 ADD PUSH2 0x2667 JUMP JUMPDEST PUSH1 0x40 DUP3 ADD MSTORE PUSH1 0xFF PUSH1 0x3 DUP9 ADD SLOAD AND PUSH1 0x60 DUP3 ADD MSTORE PUSH2 0x171A PUSH1 0x4 DUP9 ADD PUSH2 0x2A2A JUMP JUMPDEST PUSH1 0x80 DUP3 ADD MSTORE PUSH2 0x172B PUSH1 0x5 DUP9 ADD PUSH2 0x2667 JUMP JUMPDEST PUSH1 0xA0 DUP3 ADD MSTORE DUP2 MSTORE ADD SWAP4 ADD SWAP2 ADD SWAP1 SWAP2 PUSH2 0x161B JUMP JUMPDEST PUSH2 0x174F PUSH1 0x20 PUSH2 0x10B6 PUSH2 0xF79 DUP6 PUSH2 0x291F JUMP JUMPDEST DUP2 ADD PUSH1 0x5 DUP2 MSTORE SUB ADD SWAP1 KECCAK256 DUP1 SLOAD PUSH2 0x1764 DUP2 PUSH2 0x2858 JUMP JUMPDEST SWAP2 PUSH2 0x1772 PUSH1 0x40 MLOAD SWAP4 DUP5 PUSH2 0x249A JUMP JUMPDEST DUP2 DUP4 MSTORE PUSH1 0x20 DUP4 ADD SWAP1 PUSH1 0x0 MSTORE PUSH1 0x20 PUSH1 0x0 KECCAK256 SWAP1 PUSH1 0x0 SWAP1 JUMPDEST DUP4 DUP3 LT PUSH2 0x17FD JUMPI POP POP POP POP DUP1 MLOAD ISZERO PUSH2 0x17F3 JUMPI PUSH1 0x0 JUMPDEST DUP2 MLOAD DUP2 LT ISZERO PUSH2 0x17E5 JUMPI PUSH2 0x17AF DUP2 DUP4 PUSH2 0x2A82 JUMP JUMPDEST MLOAD MLOAD PUSH2 0x17BA DUP2 PUSH2 0x2559 JUMP JUMPDEST PUSH2 0x17C3 DUP2 PUSH2 0x2559 JUMP JUMPDEST ISZERO PUSH2 0x17D1 JUMPI JUMPDEST PUSH1 0x1 ADD PUSH2 0x179C JUMP JUMPDEST SWAP2 PUSH2 0x17DD PUSH1 0x1 SWAP2 PUSH2 0x2A96 JUMP JUMPDEST SWAP3 SWAP1 POP PUSH2 0x17C9 JUMP JUMPDEST POP POP SWAP1 PUSH1 0x1 SWAP1 JUMPDEST ADD SWAP1 PUSH2 0x1596 JUMP JUMPDEST POP SWAP1 PUSH1 0x1 SWAP1 PUSH2 0x17EC JUMP JUMPDEST PUSH1 0x6 PUSH1 0x20 PUSH1 0x1 SWAP3 PUSH1 0x40 MLOAD PUSH2 0x1810 DUP2 PUSH2 0x242D JUMP JUMPDEST PUSH1 0xFF DUP8 SLOAD AND PUSH2 0x181E DUP2 PUSH2 0x2559 JUMP JUMPDEST DUP2 MSTORE PUSH2 0x182B DUP6 DUP9 ADD PUSH2 0x2667 JUMP JUMPDEST DUP4 DUP3 ADD MSTORE PUSH2 0x183B PUSH1 0x2 DUP9 ADD PUSH2 0x2667 JUMP JUMPDEST PUSH1 0x40 DUP3 ADD MSTORE PUSH1 0xFF PUSH1 0x3 DUP9 ADD SLOAD AND PUSH1 0x60 DUP3 ADD MSTORE PUSH2 0x1859 PUSH1 0x4 DUP9 ADD PUSH2 0x2A2A JUMP JUMPDEST PUSH1 0x80 DUP3 ADD MSTORE PUSH2 0x186A PUSH1 0x5 DUP9 ADD PUSH2 0x2667 JUMP JUMPDEST PUSH1 0xA0 DUP3 ADD MSTORE DUP2 MSTORE ADD SWAP4 ADD SWAP2 ADD SWAP1 SWAP2 PUSH2 0x1787 JUMP JUMPDEST CALLVALUE PUSH2 0x315 JUMPI PUSH1 0x0 CALLDATASIZE PUSH1 0x3 NOT ADD SLT PUSH2 0x315 JUMPI PUSH1 0x1 SLOAD PUSH1 0x40 MLOAD PUSH1 0x1 PUSH1 0x1 PUSH1 0xA0 SHL SUB SWAP1 SWAP2 AND DUP2 MSTORE PUSH1 0x20 SWAP1 RETURN JUMPDEST CALLVALUE PUSH2 0x315 JUMPI PUSH1 0x20 PUSH2 0x18D7 PUSH2 0x18B9 CALLDATASIZE PUSH2 0x280B JUMP JUMPDEST SWAP3 SWAP1 PUSH2 0x18C3 PUSH2 0x2D0B JUMP JUMPDEST POP DUP2 PUSH1 0x40 MLOAD SWAP4 DUP3 DUP6 DUP1 SWAP5 MLOAD SWAP4 DUP5 SWAP3 ADD PUSH2 0x2511 JUMP JUMPDEST DUP2 ADD PUSH1 0x5 DUP2 MSTORE SUB ADD SWAP1 KECCAK256 SWAP1 DUP2 SLOAD PUSH2 0x18ED DUP2 PUSH2 0x2858 JUMP JUMPDEST SWAP3 PUSH2 0x18FB PUSH1 0x40 MLOAD SWAP5 DUP6 PUSH2 0x249A JUMP JUMPDEST DUP2 DUP5 MSTORE PUSH1 0x20 DUP5 ADD SWAP1 PUSH1 0x0 MSTORE PUSH1 0x20 PUSH1 0x0 KECCAK256 PUSH1 0x0 SWAP2 JUMPDEST DUP4 DUP4 LT PUSH2 0x1AB2 JUMPI DUP6 DUP6 PUSH2 0x1920 PUSH2 0x2D0B JUMP JUMPDEST SWAP1 PUSH1 0x40 MLOAD PUSH2 0x193E PUSH1 0x20 DUP3 DUP2 PUSH2 0x44D DUP2 DUP4 ADD SWAP7 DUP8 DUP2 MLOAD SWAP4 DUP5 SWAP3 ADD PUSH2 0x2511 JUMP JUMPDEST MLOAD SWAP1 KECCAK256 SWAP2 PUSH1 0x0 JUMPDEST DUP2 MLOAD DUP2 LT ISZERO PUSH2 0x19A3 JUMPI DUP4 PUSH1 0x40 PUSH2 0x195B DUP4 DUP6 PUSH2 0x2A82 JUMP JUMPDEST MLOAD ADD MLOAD PUSH1 0x40 MLOAD PUSH2 0x197B PUSH1 0x20 DUP3 DUP2 PUSH2 0x44D DUP2 DUP4 ADD SWAP7 DUP8 DUP2 MLOAD SWAP4 DUP5 SWAP3 ADD PUSH2 0x2511 JUMP JUMPDEST MLOAD SWAP1 KECCAK256 EQ PUSH2 0x198C JUMPI JUMPDEST PUSH1 0x1 ADD PUSH2 0x1945 JUMP JUMPDEST SWAP2 POP PUSH1 0x1 PUSH2 0x199A DUP4 DUP4 PUSH2 0x2A82 JUMP JUMPDEST MLOAD SWAP3 SWAP1 POP PUSH2 0x1984 JUMP JUMPDEST PUSH1 0x0 SLOAD PUSH1 0x40 MLOAD PUSH4 0x95A8C58D PUSH1 0xE0 SHL DUP2 MSTORE CALLER PUSH1 0x4 DUP3 ADD MSTORE PUSH1 0x1 PUSH1 0x24 DUP3 ADD MSTORE SWAP1 DUP5 SWAP1 PUSH1 0x20 SWAP1 DUP4 SWAP1 PUSH1 0x44 SWAP1 DUP3 SWAP1 PUSH1 0x1 PUSH1 0x1 PUSH1 0xA0 SHL SUB AND GAS STATICCALL DUP1 ISZERO PUSH2 0x309 JUMPI PUSH2 0xEA0 SWAP3 PUSH1 0x0 SWAP2 PUSH2 0x1A93 JUMPI JUMPDEST POP PUSH2 0x1A77 JUMPI JUMPDEST PUSH1 0x40 MLOAD SWAP2 DUP3 SWAP2 PUSH1 0x20 DUP4 MSTORE DUP1 MLOAD PUSH2 0x1A05 DUP2 PUSH2 0x2559 JUMP JUMPDEST PUSH1 0x20 DUP5 ADD MSTORE PUSH1 0xA0 PUSH2 0x1A63 PUSH2 0x1A41 PUSH2 0x1A2B PUSH1 0x20 DUP6 ADD MLOAD PUSH1 0xC0 PUSH1 0x40 DUP10 ADD MSTORE PUSH1 0xE0 DUP9 ADD SWAP1 PUSH2 0x2534 JUMP JUMPDEST PUSH1 0x40 DUP6 ADD MLOAD DUP8 DUP3 SUB PUSH1 0x1F NOT ADD PUSH1 0x60 DUP10 ADD MSTORE PUSH2 0x2534 JUMP JUMPDEST PUSH1 0xFF PUSH1 0x60 DUP6 ADD MLOAD AND PUSH1 0x80 DUP8 ADD MSTORE PUSH1 0x80 DUP5 ADD MLOAD PUSH1 0x1F NOT DUP8 DUP4 SUB ADD DUP5 DUP9 ADD MSTORE PUSH2 0x270B JUMP JUMPDEST SWAP2 ADD MLOAD DUP4 DUP3 SUB PUSH1 0x1F NOT ADD PUSH1 0xC0 DUP6 ADD MSTORE PUSH2 0x2534 JUMP JUMPDEST PUSH1 0x40 MLOAD PUSH2 0x1A85 PUSH1 0x20 DUP3 PUSH2 0x249A JUMP JUMPDEST PUSH1 0x0 DUP2 MSTORE PUSH1 0x80 DUP3 ADD MSTORE PUSH2 0x19F0 JUMP JUMPDEST PUSH2 0x1AAC SWAP2 POP PUSH1 0x20 RETURNDATASIZE PUSH1 0x20 GT PUSH2 0x302 JUMPI PUSH2 0x2F4 DUP2 DUP4 PUSH2 0x249A JUMP JUMPDEST DUP4 PUSH2 0x19EA JUMP JUMPDEST PUSH1 0x6 PUSH1 0x20 PUSH1 0x1 SWAP3 PUSH1 0x40 MLOAD PUSH2 0x1AC5 DUP2 PUSH2 0x242D JUMP JUMPDEST PUSH1 0xFF DUP7 SLOAD AND PUSH2 0x1AD3 DUP2 PUSH2 0x2559 JUMP JUMPDEST DUP2 MSTORE PUSH2 0x1AE0 DUP6 DUP8 ADD PUSH2 0x2667 JUMP JUMPDEST DUP4 DUP3 ADD MSTORE PUSH2 0x1AF0 PUSH1 0x2 DUP8 ADD PUSH2 0x2667 JUMP JUMPDEST PUSH1 0x40 DUP3 ADD MSTORE PUSH1 0xFF PUSH1 0x3 DUP8 ADD SLOAD AND PUSH1 0x60 DUP3 ADD MSTORE PUSH2 0x1B0E PUSH1 0x4 DUP8 ADD PUSH2 0x2A2A JUMP JUMPDEST PUSH1 0x80 DUP3 ADD MSTORE PUSH2 0x1B1F PUSH1 0x5 DUP8 ADD PUSH2 0x2667 JUMP JUMPDEST PUSH1 0xA0 DUP3 ADD MSTORE DUP2 MSTORE ADD SWAP3 ADD SWAP3 ADD SWAP2 SWAP1 PUSH2 0x190F JUMP JUMPDEST CALLVALUE PUSH2 0x315 JUMPI PUSH1 0x20 CALLDATASIZE PUSH1 0x3 NOT ADD SLT PUSH2 0x315 JUMPI PUSH1 0x4 CALLDATALOAD PUSH1 0x1 PUSH1 0x1 PUSH1 0x40 SHL SUB DUP2 GT PUSH2 0x315 JUMPI PUSH2 0x1B6A PUSH1 0x20 PUSH2 0x10B6 PUSH2 0x1BCC SWAP4 CALLDATASIZE SWAP1 PUSH1 0x4 ADD PUSH2 0x24BB JUMP JUMPDEST DUP2 ADD PUSH1 0x3 DUP2 MSTORE SUB ADD SWAP1 KECCAK256 PUSH2 0x1B7D DUP2 PUSH2 0x2667 JUMP JUMPDEST SWAP1 PUSH2 0x1BF3 PUSH1 0xFF PUSH1 0x1 DUP4 ADD SLOAD AND PUSH1 0x2 DUP4 ADD SLOAD SWAP3 PUSH1 0x3 DUP2 ADD SLOAD PUSH1 0x4 DUP3 ADD SLOAD SWAP1 PUSH2 0x1BA6 PUSH1 0x5 DUP5 ADD PUSH2 0x2667 JUMP JUMPDEST SWAP3 PUSH1 0x6 PUSH1 0x1 DUP1 PUSH1 0xA0 SHL SUB SWAP2 ADD SLOAD AND SWAP6 PUSH2 0x1BD7 PUSH1 0x40 MLOAD SWAP10 DUP11 SWAP10 PUSH1 0xE0 DUP12 MSTORE PUSH1 0xE0 DUP12 ADD SWAP1 PUSH2 0x2534 JUMP JUMPDEST SWAP6 PUSH1 0x20 DUP11 ADD SWAP1 PUSH2 0x2764 JUMP JUMPDEST PUSH1 0x40 DUP9 ADD MSTORE PUSH1 0x60 DUP8 ADD MSTORE PUSH1 0x80 DUP7 ADD MSTORE DUP5 DUP3 SUB PUSH1 0xA0 DUP7 ADD MSTORE PUSH2 0x2534 JUMP JUMPDEST SWAP1 PUSH1 0xC0 DUP4 ADD MSTORE SUB SWAP1 RETURN JUMPDEST CALLVALUE PUSH2 0x315 JUMPI PUSH1 0x0 CALLDATASIZE PUSH1 0x3 NOT ADD SLT PUSH2 0x315 JUMPI PUSH1 0x0 SLOAD PUSH1 0x40 MLOAD PUSH4 0x95A8C58D PUSH1 0xE0 SHL DUP2 MSTORE CALLER PUSH1 0x4 DUP3 ADD MSTORE PUSH1 0x2 PUSH1 0x24 DUP3 ADD MSTORE SWAP1 PUSH1 0x20 SWAP1 DUP3 SWAP1 PUSH1 0x44 SWAP1 DUP3 SWAP1 PUSH1 0x1 PUSH1 0x1 PUSH1 0xA0 SHL SUB AND GAS STATICCALL DUP1 ISZERO PUSH2 0x309 JUMPI PUSH2 0x1C58 SWAP2 PUSH1 0x0 SWAP2 PUSH2 0x1D53 JUMPI POP PUSH2 0x2C4C JUMP JUMPDEST PUSH1 0x2 SLOAD PUSH2 0x1C64 DUP2 PUSH2 0x2C98 JUMP JUMPDEST PUSH1 0x0 SWAP2 JUMPDEST DUP1 DUP4 LT PUSH2 0x1C7D JUMPI PUSH1 0x40 MLOAD DUP1 PUSH2 0xEA0 DUP5 DUP3 PUSH2 0x2771 JUMP JUMPDEST PUSH2 0x1C89 PUSH2 0xF79 DUP5 PUSH2 0x291F JUMP JUMPDEST SWAP3 PUSH1 0x40 MLOAD SWAP4 PUSH2 0x1CBE PUSH2 0xFA2 PUSH1 0x20 PUSH2 0x1CAC DUP9 DUP3 DUP2 DUP8 MLOAD PUSH2 0xFC3 DUP2 DUP5 DUP12 ADD SWAP15 DUP16 PUSH2 0x2511 JUMP JUMPDEST SWAP8 PUSH1 0x40 MLOAD DUP1 SWAP4 DUP2 SWAP3 DUP8 MLOAD SWAP3 DUP4 SWAP2 PUSH2 0x2511 JUMP JUMPDEST SWAP5 PUSH1 0x20 DUP2 ADD DUP1 MLOAD SWAP7 PUSH1 0x3 DUP9 LT ISZERO PUSH2 0xB3B JUMPI PUSH1 0x0 SWAP8 PUSH2 0x1CE9 JUMPI JUMPDEST POP POP POP POP PUSH1 0x1 SWAP2 SWAP3 SWAP4 POP ADD SWAP2 SWAP1 PUSH2 0x1C68 JUMP JUMPDEST PUSH1 0x20 DUP2 ADD MLOAD SWAP3 MLOAD SWAP2 MLOAD SWAP8 PUSH1 0x3 DUP10 LT ISZERO PUSH2 0x1D3F JUMPI POP SWAP7 PUSH2 0x1D19 SWAP2 PUSH1 0xC0 PUSH1 0x1 SWAP8 SWAP9 SWAP10 ADD MLOAD SWAP4 PUSH1 0x40 MLOAD SWAP6 PUSH2 0x1061 DUP8 PUSH2 0x2448 JUMP JUMPDEST PUSH1 0x80 DUP3 ADD MSTORE PUSH2 0x1D28 DUP3 DUP7 PUSH2 0x2A82 JUMP JUMPDEST MSTORE PUSH2 0x1D33 DUP2 DUP6 PUSH2 0x2A82 JUMP JUMPDEST POP DUP4 SWAP3 SWAP2 DUP6 DUP1 DUP1 PUSH2 0x1CD7 JUMP JUMPDEST PUSH4 0x4E487B71 PUSH1 0xE0 SHL DUP2 MSTORE PUSH1 0x21 PUSH1 0x4 MSTORE PUSH1 0x24 SWAP1 REVERT JUMPDEST PUSH2 0x1D6C SWAP2 POP PUSH1 0x20 RETURNDATASIZE PUSH1 0x20 GT PUSH2 0x302 JUMPI PUSH2 0x2F4 DUP2 DUP4 PUSH2 0x249A JUMP JUMPDEST DUP3 PUSH2 0x1C9 JUMP JUMPDEST CALLVALUE PUSH2 0x315 JUMPI PUSH1 0x20 CALLDATASIZE PUSH1 0x3 NOT ADD SLT PUSH2 0x315 JUMPI PUSH1 0x4 CALLDATALOAD PUSH1 0x1 PUSH1 0x1 PUSH1 0x40 SHL SUB DUP2 GT PUSH2 0x315 JUMPI PUSH2 0x1DA2 SWAP1 CALLDATASIZE SWAP1 PUSH1 0x4 ADD PUSH2 0x24BB JUMP JUMPDEST PUSH2 0x1DAA PUSH2 0x2ABB JUMP JUMPDEST POP PUSH2 0x1DB3 PUSH2 0x2AFD JUMP JUMPDEST POP PUSH2 0x1E08 PUSH2 0x1E02 PUSH2 0x1DF2 PUSH1 0x20 PUSH1 0x40 MLOAD DUP6 MLOAD SWAP1 DUP3 DUP2 DUP2 DUP10 ADD SWAP4 PUSH2 0x1DD6 DUP2 DUP4 DUP8 PUSH2 0x2511 JUMP JUMPDEST DUP2 ADD PUSH1 0x4 DUP2 MSTORE SUB ADD SWAP1 KECCAK256 SWAP6 PUSH1 0x40 MLOAD SWAP4 DUP5 SWAP3 DUP4 SWAP3 MLOAD SWAP3 DUP4 SWAP2 PUSH2 0x2511 JUMP JUMPDEST DUP2 ADD PUSH1 0x3 DUP2 MSTORE SUB ADD SWAP1 KECCAK256 SWAP3 PUSH2 0x2B36 JUMP JUMPDEST SWAP2 PUSH2 0x2BDB JUMP JUMPDEST SWAP1 PUSH1 0x40 MLOAD SWAP2 DUP3 SWAP2 PUSH1 0x40 DUP4 MSTORE PUSH2 0x1EBC PUSH2 0x1E92 PUSH2 0x1E7C PUSH2 0x1E66 PUSH2 0x1E50 PUSH2 0x1E3A DUP7 MLOAD PUSH2 0x100 PUSH1 0x40 DUP12 ADD MSTORE PUSH2 0x140 DUP11 ADD SWAP1 PUSH2 0x2534 JUMP JUMPDEST PUSH1 0x20 DUP8 ADD MLOAD DUP10 DUP3 SUB PUSH1 0x3F NOT ADD PUSH1 0x60 DUP12 ADD MSTORE PUSH2 0x2534 JUMP JUMPDEST PUSH1 0x40 DUP7 ADD MLOAD DUP9 DUP3 SUB PUSH1 0x3F NOT ADD PUSH1 0x80 DUP11 ADD MSTORE PUSH2 0x270B JUMP JUMPDEST PUSH1 0x60 DUP6 ADD MLOAD DUP8 DUP3 SUB PUSH1 0x3F NOT ADD PUSH1 0xA0 DUP10 ADD MSTORE PUSH2 0x270B JUMP JUMPDEST PUSH1 0x80 DUP5 ADD MLOAD DUP7 DUP3 SUB PUSH1 0x3F NOT ADD PUSH1 0xC0 DUP9 ADD MSTORE PUSH2 0x2534 JUMP JUMPDEST PUSH1 0xA0 DUP4 ADD MLOAD PUSH2 0x1EA0 DUP2 PUSH2 0x2559 JUMP JUMPDEST PUSH1 0xE0 DUP7 ADD MSTORE PUSH1 0xC0 DUP4 ADD MLOAD DUP6 DUP3 SUB PUSH1 0x3F NOT ADD PUSH2 0x100 DUP8 ADD MSTORE PUSH2 0x2534 JUMP JUMPDEST SWAP1 PUSH1 0xE0 PUSH1 0x1 DUP1 PUSH1 0xA0 SHL SUB SWAP2 ADD MLOAD AND PUSH2 0x120 DUP5 ADD MSTORE DUP3 DUP2 SUB PUSH1 0x20 DUP5 ADD MSTORE PUSH1 0xC0 PUSH2 0x1F32 PUSH2 0x1EF0 DUP5 MLOAD PUSH1 0xE0 DUP6 MSTORE PUSH1 0xE0 DUP6 ADD SWAP1 PUSH2 0x2534 JUMP JUMPDEST PUSH2 0x1F02 PUSH1 0x20 DUP7 ADD MLOAD PUSH1 0x20 DUP7 ADD SWAP1 PUSH2 0x2764 JUMP JUMPDEST PUSH1 0x40 DUP6 ADD MLOAD PUSH1 0x40 DUP6 ADD MSTORE PUSH1 0x60 DUP6 ADD MLOAD PUSH1 0x60 DUP6 ADD MSTORE PUSH1 0x80 DUP6 ADD MLOAD PUSH1 0x80 DUP6 ADD MSTORE PUSH1 0xA0 DUP6 ADD MLOAD DUP5 DUP3 SUB PUSH1 0xA0 DUP7 ADD MSTORE PUSH2 0x2534 JUMP JUMPDEST SWAP3 DUP2 ADD MLOAD PUSH1 0x1 PUSH1 0x1 PUSH1 0xA0 SHL SUB AND SWAP2 ADD MSTORE SUB SWAP1 RETURN JUMPDEST CALLVALUE PUSH2 0x315 JUMPI PUSH1 0x20 CALLDATASIZE PUSH1 0x3 NOT ADD SLT PUSH2 0x315 JUMPI PUSH1 0x4 CALLDATALOAD PUSH1 0x1 PUSH1 0x1 PUSH1 0x40 SHL SUB DUP2 GT PUSH2 0x315 JUMPI PUSH2 0x1F7E PUSH1 0x20 PUSH2 0x10B6 PUSH2 0x1FED SWAP4 CALLDATASIZE SWAP1 PUSH1 0x4 ADD PUSH2 0x24BB JUMP JUMPDEST DUP2 ADD PUSH1 0x4 DUP2 MSTORE SUB ADD SWAP1 KECCAK256 PUSH2 0x1F91 DUP2 PUSH2 0x2667 JUMP JUMPDEST SWAP1 PUSH2 0x2025 PUSH2 0x1FA1 PUSH1 0x1 DUP4 ADD PUSH2 0x2667 JUMP JUMPDEST SWAP2 PUSH2 0x1FAE PUSH1 0x4 DUP3 ADD PUSH2 0x2667 JUMP JUMPDEST SWAP1 PUSH2 0x2009 PUSH1 0xFF PUSH1 0x5 DUP4 ADD SLOAD AND SWAP3 PUSH2 0x1FFB PUSH2 0x1FCA PUSH1 0x6 DUP6 ADD PUSH2 0x2667 JUMP JUMPDEST SWAP4 PUSH1 0x7 PUSH1 0x1 DUP1 PUSH1 0xA0 SHL SUB SWAP2 ADD SLOAD AND SWAP7 PUSH1 0x40 MLOAD SWAP10 DUP11 SWAP10 PUSH1 0xC0 DUP12 MSTORE PUSH1 0xC0 DUP12 ADD SWAP1 PUSH2 0x2534 JUMP JUMPDEST SWAP1 DUP10 DUP3 SUB PUSH1 0x20 DUP12 ADD MSTORE PUSH2 0x2534 JUMP JUMPDEST SWAP1 DUP8 DUP3 SUB PUSH1 0x40 DUP10 ADD MSTORE PUSH2 0x2534 JUMP JUMPDEST SWAP2 PUSH2 0x2013 DUP2 PUSH2 0x2559 JUMP JUMPDEST PUSH1 0x60 DUP7 ADD MSTORE DUP5 DUP3 SUB PUSH1 0x80 DUP7 ADD MSTORE PUSH2 0x2534 JUMP JUMPDEST SWAP1 PUSH1 0xA0 DUP4 ADD MSTORE SUB SWAP1 RETURN JUMPDEST CALLVALUE PUSH2 0x315 JUMPI PUSH1 0x20 CALLDATASIZE PUSH1 0x3 NOT ADD SLT PUSH2 0x315 JUMPI PUSH1 0x4 CALLDATALOAD PUSH1 0x1 PUSH1 0x1 PUSH1 0x40 SHL SUB DUP2 GT PUSH2 0x315 JUMPI PUSH2 0x205F SWAP1 CALLDATASIZE SWAP1 PUSH1 0x4 ADD PUSH2 0x24BB JUMP JUMPDEST PUSH1 0x0 DUP1 SLOAD PUSH1 0x40 MLOAD PUSH4 0x95A8C58D PUSH1 0xE0 SHL DUP2 MSTORE CALLER PUSH1 0x4 DUP3 ADD MSTORE PUSH1 0x24 DUP2 ADD SWAP3 SWAP1 SWAP3 MSTORE PUSH1 0x20 SWAP1 DUP3 SWAP1 PUSH1 0x44 SWAP1 DUP3 SWAP1 PUSH1 0x1 PUSH1 0x1 PUSH1 0xA0 SHL SUB AND GAS STATICCALL DUP1 ISZERO PUSH2 0x309 JUMPI PUSH2 0x20AA SWAP2 PUSH1 0x0 SWAP2 PUSH2 0x112B JUMPI POP PUSH2 0x2952 JUMP JUMPDEST PUSH1 0x0 PUSH1 0x40 MLOAD PUSH1 0x20 DUP2 ADD DUP4 MLOAD SWAP2 PUSH2 0x20CB PUSH1 0x20 DUP3 DUP2 DUP9 ADD SWAP6 PUSH2 0x44D DUP2 DUP8 DUP10 PUSH2 0x2511 JUMP JUMPDEST MLOAD SWAP1 KECCAK256 SWAP2 PUSH1 0x0 PUSH1 0x2 SLOAD SWAP4 JUMPDEST DUP5 DUP3 LT PUSH2 0x22AD JUMPI POP POP PUSH2 0x20E8 SWAP1 PUSH2 0x29DA JUMP JUMPDEST SWAP3 PUSH2 0x2105 PUSH1 0x20 PUSH1 0x40 MLOAD DUP1 SWAP4 PUSH2 0x44D DUP4 DUP4 ADD SWAP7 DUP8 SWAP3 MLOAD SWAP3 DUP4 SWAP2 PUSH2 0x2511 JUMP JUMPDEST MLOAD SWAP1 KECCAK256 PUSH1 0x0 DUP1 SWAP3 JUMPDEST DUP1 DUP5 LT PUSH2 0x2122 JUMPI PUSH1 0x40 MLOAD DUP1 PUSH2 0xEA0 DUP8 DUP3 PUSH2 0x2563 JUMP JUMPDEST PUSH2 0x212E PUSH2 0xF79 DUP6 PUSH2 0x291F JUMP JUMPDEST SWAP1 PUSH1 0x40 MLOAD PUSH1 0x20 DUP2 DUP5 MLOAD PUSH2 0x2144 DUP2 DUP4 DUP6 DUP10 ADD PUSH2 0x2511 JUMP JUMPDEST DUP2 ADD PUSH1 0x5 DUP2 MSTORE SUB ADD SWAP1 KECCAK256 SWAP1 DUP2 SLOAD PUSH2 0x215A DUP2 PUSH2 0x2858 JUMP JUMPDEST SWAP3 PUSH2 0x2168 PUSH1 0x40 MLOAD SWAP5 DUP6 PUSH2 0x249A JUMP JUMPDEST DUP2 DUP5 MSTORE PUSH1 0x20 DUP5 ADD SWAP1 PUSH1 0x0 MSTORE PUSH1 0x20 PUSH1 0x0 KECCAK256 SWAP1 PUSH1 0x0 SWAP1 JUMPDEST DUP4 DUP3 LT PUSH2 0x222D JUMPI POP POP POP POP DUP2 MLOAD ISZERO PUSH2 0x2221 JUMPI PUSH1 0x0 JUMPDEST DUP3 MLOAD DUP2 LT ISZERO PUSH2 0x2211 JUMPI DUP6 PUSH1 0xA0 PUSH2 0x21A8 DUP4 DUP7 PUSH2 0x2A82 JUMP JUMPDEST MLOAD ADD MLOAD PUSH1 0x40 MLOAD PUSH2 0x21C8 PUSH1 0x20 DUP3 DUP2 PUSH2 0x44D DUP2 DUP4 ADD SWAP7 DUP8 DUP2 MLOAD SWAP4 DUP5 SWAP3 ADD PUSH2 0x2511 JUMP JUMPDEST MLOAD SWAP1 KECCAK256 EQ PUSH2 0x21D9 JUMPI JUMPDEST PUSH1 0x1 ADD PUSH2 0x2192 JUMP JUMPDEST SWAP4 PUSH2 0x2209 PUSH1 0x1 SWAP2 PUSH2 0x21F4 PUSH2 0x21ED DUP9 DUP8 PUSH2 0x2A82 JUMP JUMPDEST MLOAD DUP8 PUSH2 0x2E54 JUMP JUMPDEST PUSH2 0x21FE DUP3 DUP13 PUSH2 0x2A82 JUMP JUMPDEST MSTORE PUSH2 0x1090 DUP2 DUP12 PUSH2 0x2A82 JUMP JUMPDEST SWAP5 SWAP1 POP PUSH2 0x21D1 JUMP JUMPDEST POP SWAP5 SWAP1 POP PUSH1 0x1 SWAP2 POP JUMPDEST ADD SWAP3 PUSH2 0x210D JUMP JUMPDEST SWAP5 SWAP1 POP PUSH1 0x1 SWAP2 POP PUSH2 0x221A JUMP JUMPDEST PUSH1 0x6 PUSH1 0x20 PUSH1 0x1 SWAP3 PUSH1 0x40 MLOAD PUSH2 0x2240 DUP2 PUSH2 0x242D JUMP JUMPDEST PUSH1 0xFF DUP8 SLOAD AND PUSH2 0x224E DUP2 PUSH2 0x2559 JUMP JUMPDEST DUP2 MSTORE PUSH2 0x225B DUP6 DUP9 ADD PUSH2 0x2667 JUMP JUMPDEST DUP4 DUP3 ADD MSTORE PUSH2 0x226B PUSH1 0x2 DUP9 ADD PUSH2 0x2667 JUMP JUMPDEST PUSH1 0x40 DUP3 ADD MSTORE PUSH1 0xFF PUSH1 0x3 DUP9 ADD SLOAD AND PUSH1 0x60 DUP3 ADD MSTORE PUSH2 0x2289 PUSH1 0x4 DUP9 ADD PUSH2 0x2A2A JUMP JUMPDEST PUSH1 0x80 DUP3 ADD MSTORE PUSH2 0x229A PUSH1 0x5 DUP9 ADD PUSH2 0x2667 JUMP JUMPDEST PUSH1 0xA0 DUP3 ADD MSTORE DUP2 MSTORE ADD SWAP4 ADD SWAP2 ADD SWAP1 SWAP2 PUSH2 0x217D JUMP JUMPDEST SWAP2 SWAP3 PUSH2 0x22C2 PUSH1 0x20 PUSH2 0x10B6 PUSH2 0xF79 DUP6 SWAP9 SWAP6 PUSH2 0x291F JUMP JUMPDEST DUP2 ADD PUSH1 0x5 DUP2 MSTORE SUB ADD SWAP1 KECCAK256 SWAP2 DUP3 SLOAD PUSH2 0x22D8 DUP2 PUSH2 0x2858 JUMP JUMPDEST SWAP4 PUSH2 0x22E6 PUSH1 0x40 MLOAD SWAP6 DUP7 PUSH2 0x249A JUMP JUMPDEST DUP2 DUP6 MSTORE PUSH1 0x20 DUP6 ADD SWAP1 PUSH1 0x0 MSTORE PUSH1 0x20 PUSH1 0x0 KECCAK256 SWAP1 PUSH1 0x0 SWAP1 JUMPDEST DUP4 DUP3 LT PUSH2 0x2389 JUMPI POP POP POP POP DUP3 MLOAD ISZERO PUSH2 0x237C JUMPI PUSH1 0x0 JUMPDEST DUP4 MLOAD DUP2 LT ISZERO PUSH2 0x236B JUMPI DUP5 PUSH1 0xA0 PUSH2 0x2326 DUP4 DUP8 PUSH2 0x2A82 JUMP JUMPDEST MLOAD ADD MLOAD PUSH1 0x40 MLOAD PUSH2 0x2346 PUSH1 0x20 DUP3 DUP2 PUSH2 0x44D DUP2 DUP4 ADD SWAP7 DUP8 DUP2 MLOAD SWAP4 DUP5 SWAP3 ADD PUSH2 0x2511 JUMP JUMPDEST MLOAD SWAP1 KECCAK256 EQ PUSH2 0x2357 JUMPI JUMPDEST PUSH1 0x1 ADD PUSH2 0x2310 JUMP JUMPDEST SWAP5 PUSH2 0x2363 PUSH1 0x1 SWAP2 PUSH2 0x2A96 JUMP JUMPDEST SWAP6 SWAP1 POP PUSH2 0x234F JUMP JUMPDEST POP SWAP5 PUSH1 0x1 SWAP2 SWAP5 SWAP4 SWAP3 POP JUMPDEST ADD SWAP1 PUSH2 0x20D6 JUMP JUMPDEST SWAP5 PUSH1 0x1 SWAP2 SWAP5 SWAP4 SWAP3 POP PUSH2 0x2375 JUMP JUMPDEST PUSH1 0x6 PUSH1 0x20 PUSH1 0x1 SWAP3 PUSH1 0x40 MLOAD PUSH2 0x239C DUP2 PUSH2 0x242D JUMP JUMPDEST PUSH1 0xFF DUP8 SLOAD AND PUSH2 0x23AA DUP2 PUSH2 0x2559 JUMP JUMPDEST DUP2 MSTORE PUSH2 0x23B7 DUP6 DUP9 ADD PUSH2 0x2667 JUMP JUMPDEST DUP4 DUP3 ADD MSTORE PUSH2 0x23C7 PUSH1 0x2 DUP9 ADD PUSH2 0x2667 JUMP JUMPDEST PUSH1 0x40 DUP3 ADD MSTORE PUSH1 0xFF PUSH1 0x3 DUP9 ADD SLOAD AND PUSH1 0x60 DUP3 ADD MSTORE PUSH2 0x23E5 PUSH1 0x4 DUP9 ADD PUSH2 0x2A2A JUMP JUMPDEST PUSH1 0x80 DUP3 ADD MSTORE PUSH2 0x23F6 PUSH1 0x5 DUP9 ADD PUSH2 0x2667 JUMP JUMPDEST PUSH1 0xA0 DUP3 ADD MSTORE DUP2 MSTORE ADD SWAP4 ADD SWAP2 ADD SWAP1 SWAP2 PUSH2 0x22FB JUMP JUMPDEST CALLVALUE PUSH2 0x315 JUMPI PUSH1 0x0 CALLDATASIZE PUSH1 0x3 NOT ADD SLT PUSH2 0x315 JUMPI PUSH1 0x0 SLOAD PUSH1 0x1 PUSH1 0x1 PUSH1 0xA0 SHL SUB AND DUP2 MSTORE PUSH1 0x20 SWAP1 RETURN JUMPDEST PUSH1 0xC0 DUP2 ADD SWAP1 DUP2 LT PUSH1 0x1 PUSH1 0x1 PUSH1 0x40 SHL SUB DUP3 GT OR PUSH2 0xBEC JUMPI PUSH1 0x40 MSTORE JUMP JUMPDEST PUSH1 0xA0 DUP2 ADD SWAP1 DUP2 LT PUSH1 0x1 PUSH1 0x1 PUSH1 0x40 SHL SUB DUP3 GT OR PUSH2 0xBEC JUMPI PUSH1 0x40 MSTORE JUMP JUMPDEST PUSH2 0x100 DUP2 ADD SWAP1 DUP2 LT PUSH1 0x1 PUSH1 0x1 PUSH1 0x40 SHL SUB DUP3 GT OR PUSH2 0xBEC JUMPI PUSH1 0x40 MSTORE JUMP JUMPDEST PUSH1 0xE0 DUP2 ADD SWAP1 DUP2 LT PUSH1 0x1 PUSH1 0x1 PUSH1 0x40 SHL SUB DUP3 GT OR PUSH2 0xBEC JUMPI PUSH1 0x40 MSTORE JUMP JUMPDEST SWAP1 PUSH1 0x1F DUP1 NOT SWAP2 ADD AND DUP2 ADD SWAP1 DUP2 LT PUSH1 0x1 PUSH1 0x1 PUSH1 0x40 SHL SUB DUP3 GT OR PUSH2 0xBEC JUMPI PUSH1 0x40 MSTORE JUMP JUMPDEST DUP2 PUSH1 0x1F DUP3 ADD SLT ISZERO PUSH2 0x315 JUMPI DUP1 CALLDATALOAD SWAP1 PUSH1 0x1 PUSH1 0x1 PUSH1 0x40 SHL SUB DUP3 GT PUSH2 0xBEC JUMPI PUSH1 0x40 MLOAD SWAP3 PUSH2 0x24EF PUSH1 0x1F DUP5 ADD PUSH1 0x1F NOT AND PUSH1 0x20 ADD DUP6 PUSH2 0x249A JUMP JUMPDEST DUP3 DUP5 MSTORE PUSH1 0x20 DUP4 DUP4 ADD ADD GT PUSH2 0x315 JUMPI DUP2 PUSH1 0x0 SWAP3 PUSH1 0x20 DUP1 SWAP4 ADD DUP4 DUP7 ADD CALLDATACOPY DUP4 ADD ADD MSTORE SWAP1 JUMP JUMPDEST PUSH1 0x0 JUMPDEST DUP4 DUP2 LT PUSH2 0x2524 JUMPI POP POP PUSH1 0x0 SWAP2 ADD MSTORE JUMP JUMPDEST DUP2 DUP2 ADD MLOAD DUP4 DUP3 ADD MSTORE PUSH1 0x20 ADD PUSH2 0x2514 JUMP JUMPDEST SWAP1 PUSH1 0x20 SWAP2 PUSH2 0x254D DUP2 MLOAD DUP1 SWAP3 DUP2 DUP6 MSTORE DUP6 DUP1 DUP7 ADD SWAP2 ADD PUSH2 0x2511 JUMP JUMPDEST PUSH1 0x1F ADD PUSH1 0x1F NOT AND ADD ADD SWAP1 JUMP JUMPDEST PUSH1 0x2 GT ISZERO PUSH2 0xB3B JUMPI JUMP JUMPDEST PUSH1 0x20 DUP2 ADD PUSH1 0x20 DUP3 MSTORE DUP3 MLOAD DUP1 SWAP2 MSTORE PUSH1 0x40 DUP3 ADD SWAP2 PUSH1 0x20 PUSH1 0x40 DUP4 PUSH1 0x5 SHL DUP4 ADD ADD SWAP5 ADD SWAP3 PUSH1 0x0 SWAP2 JUMPDEST DUP4 DUP4 LT PUSH2 0x2596 JUMPI POP POP POP POP POP SWAP1 JUMP JUMPDEST SWAP1 SWAP2 SWAP3 SWAP4 SWAP5 PUSH1 0x20 DUP1 PUSH2 0x261E PUSH1 0x1 SWAP4 PUSH1 0x3F NOT DUP7 DUP3 SUB ADD DUP8 MSTORE DUP10 MLOAD SWAP1 PUSH1 0xA0 PUSH2 0x25ED PUSH2 0x25DB PUSH2 0x25CB DUP6 MLOAD PUSH1 0xC0 DUP7 MSTORE PUSH1 0xC0 DUP7 ADD SWAP1 PUSH2 0x2534 JUMP JUMPDEST DUP8 DUP7 ADD MLOAD DUP6 DUP3 SUB DUP10 DUP8 ADD MSTORE PUSH2 0x2534 JUMP JUMPDEST PUSH1 0x40 DUP6 ADD MLOAD DUP5 DUP3 SUB PUSH1 0x40 DUP7 ADD MSTORE PUSH2 0x2534 JUMP JUMPDEST SWAP3 PUSH1 0xFF PUSH1 0x60 DUP3 ADD MLOAD AND PUSH1 0x60 DUP5 ADD MSTORE PUSH1 0x80 DUP2 ADD MLOAD PUSH2 0x2609 DUP2 PUSH2 0x2559 JUMP JUMPDEST PUSH1 0x80 DUP5 ADD MSTORE ADD MLOAD SWAP1 PUSH1 0xA0 DUP2 DUP5 SUB SWAP2 ADD MSTORE PUSH2 0x2534 JUMP JUMPDEST SWAP8 ADD SWAP4 ADD SWAP4 ADD SWAP2 SWAP4 SWAP3 SWAP1 PUSH2 0x2587 JUMP JUMPDEST SWAP1 PUSH1 0x1 DUP3 DUP2 SHR SWAP3 AND DUP1 ISZERO PUSH2 0x265D JUMPI JUMPDEST PUSH1 0x20 DUP4 LT EQ PUSH2 0x2647 JUMPI JUMP JUMPDEST PUSH4 0x4E487B71 PUSH1 0xE0 SHL PUSH1 0x0 MSTORE PUSH1 0x22 PUSH1 0x4 MSTORE PUSH1 0x24 PUSH1 0x0 REVERT JUMPDEST SWAP2 PUSH1 0x7F AND SWAP2 PUSH2 0x263C JUMP JUMPDEST SWAP1 PUSH1 0x40 MLOAD SWAP2 DUP3 PUSH1 0x0 DUP3 SLOAD SWAP3 PUSH2 0x267B DUP5 PUSH2 0x262D JUMP JUMPDEST DUP1 DUP5 MSTORE SWAP4 PUSH1 0x1 DUP2 AND SWAP1 DUP2 ISZERO PUSH2 0x26E9 JUMPI POP PUSH1 0x1 EQ PUSH2 0x26A2 JUMPI JUMPDEST POP PUSH2 0x26A0 SWAP3 POP SUB DUP4 PUSH2 0x249A JUMP JUMPDEST JUMP JUMPDEST SWAP1 POP PUSH1 0x0 SWAP3 SWAP2 SWAP3 MSTORE PUSH1 0x20 PUSH1 0x0 KECCAK256 SWAP1 PUSH1 0x0 SWAP2 JUMPDEST DUP2 DUP4 LT PUSH2 0x26CD JUMPI POP POP SWAP1 PUSH1 0x20 PUSH2 0x26A0 SWAP3 DUP3 ADD ADD CODESIZE PUSH2 0x2693 JUMP JUMPDEST PUSH1 0x20 SWAP2 SWAP4 POP DUP1 PUSH1 0x1 SWAP2 SLOAD DUP4 DUP6 DUP10 ADD ADD MSTORE ADD SWAP2 ADD SWAP1 SWAP2 DUP5 SWAP3 PUSH2 0x26B4 JUMP JUMPDEST SWAP1 POP PUSH1 0x20 SWAP3 POP PUSH2 0x26A0 SWAP5 SWAP2 POP PUSH1 0xFF NOT AND DUP3 DUP5 ADD MSTORE ISZERO ISZERO PUSH1 0x5 SHL DUP3 ADD ADD CODESIZE PUSH2 0x2693 JUMP JUMPDEST SWAP1 DUP1 PUSH1 0x20 DUP4 MLOAD SWAP2 DUP3 DUP2 MSTORE ADD SWAP2 PUSH1 0x20 DUP1 DUP4 PUSH1 0x5 SHL DUP4 ADD ADD SWAP5 ADD SWAP3 PUSH1 0x0 SWAP2 JUMPDEST DUP4 DUP4 LT PUSH2 0x2737 JUMPI POP POP POP POP POP SWAP1 JUMP JUMPDEST SWAP1 SWAP2 SWAP3 SWAP4 SWAP5 PUSH1 0x20 DUP1 PUSH2 0x2755 PUSH1 0x1 SWAP4 PUSH1 0x1F NOT DUP7 DUP3 SUB ADD DUP8 MSTORE DUP10 MLOAD PUSH2 0x2534 JUMP JUMPDEST SWAP8 ADD SWAP4 ADD SWAP4 ADD SWAP2 SWAP4 SWAP3 SWAP1 PUSH2 0x2728 JUMP JUMPDEST SWAP1 PUSH1 0x3 DUP3 LT ISZERO PUSH2 0xB3B JUMPI MSTORE JUMP JUMPDEST PUSH1 0x20 DUP2 ADD PUSH1 0x20 DUP3 MSTORE DUP3 MLOAD DUP1 SWAP2 MSTORE PUSH1 0x40 DUP3 ADD SWAP2 PUSH1 0x20 PUSH1 0x40 DUP4 PUSH1 0x5 SHL DUP4 ADD ADD SWAP5 ADD SWAP3 PUSH1 0x0 SWAP2 JUMPDEST DUP4 DUP4 LT PUSH2 0x27A4 JUMPI POP POP POP POP POP SWAP1 JUMP JUMPDEST SWAP1 SWAP2 SWAP3 SWAP4 SWAP5 PUSH1 0x20 DUP1 PUSH2 0x27FC PUSH1 0x1 SWAP4 PUSH1 0x3F NOT DUP7 DUP3 SUB ADD DUP8 MSTORE DUP10 MLOAD SWAP1 PUSH1 0x80 PUSH2 0x27D9 PUSH2 0x25DB PUSH2 0x25CB DUP6 MLOAD PUSH1 0xA0 DUP7 MSTORE PUSH1 0xA0 DUP7 ADD SWAP1 PUSH2 0x2534 JUMP JUMPDEST SWAP3 PUSH2 0x27EC PUSH1 0x60 DUP3 ADD MLOAD PUSH1 0x60 DUP6 ADD SWAP1 PUSH2 0x2764 JUMP JUMPDEST ADD MLOAD SWAP1 PUSH1 0x80 DUP2 DUP5 SUB SWAP2 ADD MSTORE PUSH2 0x2534 JUMP JUMPDEST SWAP8 ADD SWAP4 ADD SWAP4 ADD SWAP2 SWAP4 SWAP3 SWAP1 PUSH2 0x2795 JUMP JUMPDEST SWAP1 PUSH1 0x40 PUSH1 0x3 NOT DUP4 ADD SLT PUSH2 0x315 JUMPI PUSH1 0x4 CALLDATALOAD PUSH1 0x1 PUSH1 0x1 PUSH1 0x40 SHL SUB DUP2 GT PUSH2 0x315 JUMPI DUP3 PUSH2 0x2836 SWAP2 PUSH1 0x4 ADD PUSH2 0x24BB JUMP JUMPDEST SWAP2 PUSH1 0x24 CALLDATALOAD SWAP1 PUSH1 0x1 PUSH1 0x1 PUSH1 0x40 SHL SUB DUP3 GT PUSH2 0x315 JUMPI PUSH2 0x2855 SWAP2 PUSH1 0x4 ADD PUSH2 0x24BB JUMP JUMPDEST SWAP1 JUMP JUMPDEST PUSH1 0x1 PUSH1 0x1 PUSH1 0x40 SHL SUB DUP2 GT PUSH2 0xBEC JUMPI PUSH1 0x5 SHL PUSH1 0x20 ADD SWAP1 JUMP JUMPDEST SWAP1 DUP1 PUSH1 0x1F DUP4 ADD SLT ISZERO PUSH2 0x315 JUMPI DUP2 CALLDATALOAD PUSH2 0x2886 DUP2 PUSH2 0x2858 JUMP JUMPDEST SWAP3 PUSH2 0x2894 PUSH1 0x40 MLOAD SWAP5 DUP6 PUSH2 0x249A JUMP JUMPDEST DUP2 DUP5 MSTORE PUSH1 0x20 DUP1 DUP6 ADD SWAP3 PUSH1 0x5 SHL DUP3 ADD ADD SWAP2 DUP4 DUP4 GT PUSH2 0x315 JUMPI PUSH1 0x20 DUP3 ADD SWAP1 JUMPDEST DUP4 DUP3 LT PUSH2 0x28C0 JUMPI POP POP POP POP POP SWAP1 JUMP JUMPDEST DUP2 CALLDATALOAD PUSH1 0x1 PUSH1 0x1 PUSH1 0x40 SHL SUB DUP2 GT PUSH2 0x315 JUMPI PUSH1 0x20 SWAP2 PUSH2 0x28E2 DUP8 DUP5 DUP1 SWAP5 DUP9 ADD ADD PUSH2 0x24BB JUMP JUMPDEST DUP2 MSTORE ADD SWAP2 ADD SWAP1 PUSH2 0x28B1 JUMP JUMPDEST DUP1 SLOAD DUP3 LT ISZERO PUSH2 0x2909 JUMPI PUSH1 0x0 MSTORE PUSH1 0x6 PUSH1 0x20 PUSH1 0x0 KECCAK256 SWAP2 MUL ADD SWAP1 PUSH1 0x0 SWAP1 JUMP JUMPDEST PUSH4 0x4E487B71 PUSH1 0xE0 SHL PUSH1 0x0 MSTORE PUSH1 0x32 PUSH1 0x4 MSTORE PUSH1 0x24 PUSH1 0x0 REVERT JUMPDEST PUSH1 0x2 SLOAD DUP2 LT ISZERO PUSH2 0x2909 JUMPI PUSH1 0x2 PUSH1 0x0 MSTORE PUSH1 0x20 PUSH1 0x0 KECCAK256 ADD SWAP1 PUSH1 0x0 SWAP1 JUMP JUMPDEST SWAP1 DUP2 PUSH1 0x20 SWAP2 SUB SLT PUSH2 0x315 JUMPI MLOAD DUP1 ISZERO ISZERO DUP2 SUB PUSH2 0x315 JUMPI SWAP1 JUMP JUMPDEST ISZERO PUSH2 0x2959 JUMPI JUMP JUMPDEST PUSH1 0x40 MLOAD PUSH3 0x461BCD PUSH1 0xE5 SHL DUP2 MSTORE PUSH1 0x20 PUSH1 0x4 DUP3 ADD MSTORE PUSH1 0x21 PUSH1 0x24 DUP3 ADD MSTORE PUSH32 0x416363657373207265737472696374656420746F20466163746F727920726F6C PUSH1 0x44 DUP3 ADD MSTORE PUSH1 0x65 PUSH1 0xF8 SHL PUSH1 0x64 DUP3 ADD MSTORE PUSH1 0x84 SWAP1 REVERT JUMPDEST PUSH1 0x40 MLOAD SWAP1 PUSH2 0x29B5 DUP3 PUSH2 0x242D JUMP JUMPDEST PUSH1 0x60 PUSH1 0xA0 DUP4 DUP3 DUP2 MSTORE DUP3 PUSH1 0x20 DUP3 ADD MSTORE DUP3 PUSH1 0x40 DUP3 ADD MSTORE PUSH1 0x0 DUP4 DUP3 ADD MSTORE PUSH1 0x0 PUSH1 0x80 DUP3 ADD MSTORE ADD MSTORE JUMP JUMPDEST SWAP1 PUSH2 0x29E4 DUP3 PUSH2 0x2858 JUMP JUMPDEST PUSH2 0x29F1 PUSH1 0x40 MLOAD SWAP2 DUP3 PUSH2 0x249A JUMP JUMPDEST DUP3 DUP2 MSTORE DUP1 SWAP3 PUSH2 0x2A02 PUSH1 0x1F NOT SWAP2 PUSH2 0x2858 JUMP JUMPDEST ADD SWAP1 PUSH1 0x0 JUMPDEST DUP3 DUP2 LT PUSH2 0x2A13 JUMPI POP POP POP JUMP JUMPDEST PUSH1 0x20 SWAP1 PUSH2 0x2A1E PUSH2 0x29A8 JUMP JUMPDEST DUP3 DUP3 DUP6 ADD ADD MSTORE ADD PUSH2 0x2A07 JUMP JUMPDEST SWAP1 DUP2 SLOAD PUSH2 0x2A36 DUP2 PUSH2 0x2858 JUMP JUMPDEST SWAP3 PUSH2 0x2A44 PUSH1 0x40 MLOAD SWAP5 DUP6 PUSH2 0x249A JUMP JUMPDEST DUP2 DUP5 MSTORE PUSH1 0x20 DUP5 ADD SWAP1 PUSH1 0x0 MSTORE PUSH1 0x20 PUSH1 0x0 KECCAK256 PUSH1 0x0 SWAP2 JUMPDEST DUP4 DUP4 LT PUSH2 0x2A65 JUMPI POP POP POP POP JUMP JUMPDEST PUSH1 0x1 PUSH1 0x20 DUP2 SWAP3 PUSH2 0x2A74 DUP6 PUSH2 0x2667 JUMP JUMPDEST DUP2 MSTORE ADD SWAP3 ADD SWAP3 ADD SWAP2 SWAP1 PUSH2 0x2A58 JUMP JUMPDEST DUP1 MLOAD DUP3 LT ISZERO PUSH2 0x2909 JUMPI PUSH1 0x20 SWAP2 PUSH1 0x5 SHL ADD ADD SWAP1 JUMP JUMPDEST PUSH1 0x0 NOT DUP2 EQ PUSH2 0x2AA5 JUMPI PUSH1 0x1 ADD SWAP1 JUMP JUMPDEST PUSH4 0x4E487B71 PUSH1 0xE0 SHL PUSH1 0x0 MSTORE PUSH1 0x11 PUSH1 0x4 MSTORE PUSH1 0x24 PUSH1 0x0 REVERT JUMPDEST PUSH1 0x40 MLOAD SWAP1 PUSH2 0x2AC8 DUP3 PUSH2 0x2463 JUMP JUMPDEST PUSH1 0x0 PUSH1 0xE0 DUP4 PUSH1 0x60 DUP2 MSTORE PUSH1 0x60 PUSH1 0x20 DUP3 ADD MSTORE PUSH1 0x60 PUSH1 0x40 DUP3 ADD MSTORE PUSH1 0x60 DUP1 DUP3 ADD MSTORE PUSH1 0x60 PUSH1 0x80 DUP3 ADD MSTORE DUP3 PUSH1 0xA0 DUP3 ADD MSTORE PUSH1 0x60 PUSH1 0xC0 DUP3 ADD MSTORE ADD MSTORE JUMP JUMPDEST PUSH1 0x40 MLOAD SWAP1 PUSH2 0x2B0A DUP3 PUSH2 0x247F JUMP JUMPDEST PUSH1 0x0 PUSH1 0xC0 DUP4 PUSH1 0x60 DUP2 MSTORE DUP3 PUSH1 0x20 DUP3 ADD MSTORE DUP3 PUSH1 0x40 DUP3 ADD MSTORE DUP3 PUSH1 0x60 DUP3 ADD MSTORE DUP3 PUSH1 0x80 DUP3 ADD MSTORE PUSH1 0x60 PUSH1 0xA0 DUP3 ADD MSTORE ADD MSTORE JUMP JUMPDEST SWAP1 PUSH1 0x40 MLOAD PUSH2 0x2B43 DUP2 PUSH2 0x2463 JUMP JUMPDEST PUSH1 0xE0 DUP2 SWAP4 PUSH2 0x2B50 DUP2 PUSH2 0x2667 JUMP JUMPDEST DUP4 MSTORE PUSH2 0x2B5E PUSH1 0x1 DUP3 ADD PUSH2 0x2667 JUMP JUMPDEST PUSH1 0x20 DUP5 ADD MSTORE PUSH2 0x2B6F PUSH1 0x2 DUP3 ADD PUSH2 0x2A2A JUMP JUMPDEST PUSH1 0x40 DUP5 ADD MSTORE PUSH2 0x2B80 PUSH1 0x3 DUP3 ADD PUSH2 0x2A2A JUMP JUMPDEST PUSH1 0x60 DUP5 ADD MSTORE PUSH2 0x2B91 PUSH1 0x4 DUP3 ADD PUSH2 0x2667 JUMP JUMPDEST PUSH1 0x80 DUP5 ADD MSTORE PUSH1 0xFF PUSH1 0x5 DUP3 ADD SLOAD AND PUSH2 0x2BA7 DUP2 PUSH2 0x2559 JUMP JUMPDEST PUSH1 0xA0 DUP5 ADD MSTORE PUSH2 0x2BB8 PUSH1 0x6 DUP3 ADD PUSH2 0x2667 JUMP JUMPDEST PUSH1 0xC0 DUP5 ADD MSTORE PUSH1 0x7 ADD SLOAD PUSH1 0x1 PUSH1 0x1 PUSH1 0xA0 SHL SUB AND SWAP2 ADD MSTORE JUMP JUMPDEST PUSH1 0x3 DUP3 LT ISZERO PUSH2 0xB3B JUMPI MSTORE JUMP JUMPDEST SWAP1 PUSH1 0x40 MLOAD PUSH2 0x2BE8 DUP2 PUSH2 0x247F JUMP JUMPDEST PUSH1 0xC0 DUP2 SWAP4 PUSH2 0x2BF5 DUP2 PUSH2 0x2667 JUMP JUMPDEST DUP4 MSTORE PUSH2 0x2C0B PUSH1 0xFF PUSH1 0x1 DUP4 ADD SLOAD AND PUSH1 0x20 DUP6 ADD PUSH2 0x2BCF JUMP JUMPDEST PUSH1 0x2 DUP2 ADD SLOAD PUSH1 0x40 DUP5 ADD MSTORE PUSH1 0x3 DUP2 ADD SLOAD PUSH1 0x60 DUP5 ADD MSTORE PUSH1 0x4 DUP2 ADD SLOAD PUSH1 0x80 DUP5 ADD MSTORE PUSH2 0x2C35 PUSH1 0x5 DUP3 ADD PUSH2 0x2667 JUMP JUMPDEST PUSH1 0xA0 DUP5 ADD MSTORE PUSH1 0x6 ADD SLOAD PUSH1 0x1 PUSH1 0x1 PUSH1 0xA0 SHL SUB AND SWAP2 ADD MSTORE JUMP JUMPDEST ISZERO PUSH2 0x2C53 JUMPI JUMP JUMPDEST PUSH1 0x40 MLOAD PUSH3 0x461BCD PUSH1 0xE5 SHL DUP2 MSTORE PUSH1 0x20 PUSH1 0x4 DUP3 ADD MSTORE PUSH1 0x1E PUSH1 0x24 DUP3 ADD MSTORE PUSH32 0x416363657373207265737472696374656420746F2042504F4D20726F6C650000 PUSH1 0x44 DUP3 ADD MSTORE PUSH1 0x64 SWAP1 REVERT JUMPDEST SWAP1 PUSH2 0x2CA2 DUP3 PUSH2 0x2858 JUMP JUMPDEST PUSH2 0x2CAF PUSH1 0x40 MLOAD SWAP2 DUP3 PUSH2 0x249A JUMP JUMPDEST DUP3 DUP2 MSTORE DUP1 SWAP3 PUSH2 0x2CC0 PUSH1 0x1F NOT SWAP2 PUSH2 0x2858 JUMP JUMPDEST ADD SWAP1 PUSH1 0x0 JUMPDEST DUP3 DUP2 LT PUSH2 0x2CD1 JUMPI POP POP POP JUMP JUMPDEST PUSH1 0x20 SWAP1 PUSH1 0x40 MLOAD PUSH2 0x2CE0 DUP2 PUSH2 0x2448 JUMP JUMPDEST PUSH1 0x60 DUP2 MSTORE PUSH1 0x60 DUP4 DUP3 ADD MSTORE PUSH1 0x60 PUSH1 0x40 DUP3 ADD MSTORE PUSH1 0x0 PUSH1 0x60 DUP3 ADD MSTORE PUSH1 0x60 PUSH1 0x80 DUP3 ADD MSTORE DUP3 DUP3 DUP6 ADD ADD MSTORE ADD PUSH2 0x2CC5 JUMP JUMPDEST PUSH1 0x40 MLOAD SWAP1 PUSH2 0x2D18 DUP3 PUSH2 0x242D JUMP JUMPDEST PUSH1 0x60 PUSH1 0xA0 DUP4 PUSH1 0x0 DUP2 MSTORE DUP3 PUSH1 0x20 DUP3 ADD MSTORE DUP3 PUSH1 0x40 DUP3 ADD MSTORE PUSH1 0x0 DUP4 DUP3 ADD MSTORE DUP3 PUSH1 0x80 DUP3 ADD MSTORE ADD MSTORE JUMP JUMPDEST DUP2 DUP2 LT PUSH2 0x2D48 JUMPI POP POP JUMP JUMPDEST PUSH1 0x0 DUP2 SSTORE PUSH1 0x1 ADD PUSH2 0x2D3D JUMP JUMPDEST SWAP2 SWAP1 SWAP2 DUP3 MLOAD PUSH1 0x1 PUSH1 0x1 PUSH1 0x40 SHL SUB DUP2 GT PUSH2 0xBEC JUMPI PUSH2 0x2D71 DUP3 SLOAD PUSH2 0x262D JUMP JUMPDEST PUSH1 0x1F DUP2 GT PUSH2 0x2E17 JUMPI JUMPDEST POP PUSH1 0x20 PUSH1 0x1F DUP3 GT PUSH1 0x1 EQ PUSH2 0x2DB5 JUMPI DUP2 SWAP3 SWAP4 SWAP5 PUSH1 0x0 SWAP3 PUSH2 0x2DAA JUMPI JUMPDEST POP POP DUP2 PUSH1 0x1 SHL SWAP2 PUSH1 0x0 NOT SWAP1 PUSH1 0x3 SHL SHR NOT AND OR SWAP1 SSTORE JUMP JUMPDEST ADD MLOAD SWAP1 POP CODESIZE DUP1 PUSH2 0x2D94 JUMP JUMPDEST PUSH1 0x1F NOT DUP3 AND SWAP1 DUP4 PUSH1 0x0 MSTORE DUP1 PUSH1 0x0 KECCAK256 SWAP2 PUSH1 0x0 JUMPDEST DUP2 DUP2 LT PUSH2 0x2DFF JUMPI POP SWAP6 DUP4 PUSH1 0x1 SWAP6 SWAP7 SWAP8 LT PUSH2 0x2DE6 JUMPI JUMPDEST POP POP POP DUP2 SHL ADD SWAP1 SSTORE JUMP JUMPDEST ADD MLOAD PUSH1 0x0 NOT PUSH1 0xF8 DUP5 PUSH1 0x3 SHL AND SHR NOT AND SWAP1 SSTORE CODESIZE DUP1 DUP1 PUSH2 0x2DDC JUMP JUMPDEST SWAP2 SWAP3 PUSH1 0x20 PUSH1 0x1 DUP2 SWAP3 DUP7 DUP12 ADD MLOAD DUP2 SSTORE ADD SWAP5 ADD SWAP3 ADD PUSH2 0x2DC7 JUMP JUMPDEST PUSH2 0x2E44 SWAP1 DUP4 PUSH1 0x0 MSTORE PUSH1 0x20 PUSH1 0x0 KECCAK256 PUSH1 0x1F DUP5 ADD PUSH1 0x5 SHR DUP2 ADD SWAP2 PUSH1 0x20 DUP6 LT PUSH2 0x2E4A JUMPI JUMPDEST PUSH1 0x1F ADD PUSH1 0x5 SHR ADD SWAP1 PUSH2 0x2D3D JUMP JUMPDEST CODESIZE PUSH2 0x2D7A JUMP JUMPDEST SWAP1 SWAP2 POP DUP2 SWAP1 PUSH2 0x2E37 JUMP JUMPDEST SWAP1 PUSH2 0x2E5D PUSH2 0x29A8 JUMP JUMPDEST POP PUSH1 0x20 DUP2 ADD MLOAD SWAP1 PUSH1 0x40 DUP2 ADD MLOAD PUSH1 0xFF PUSH1 0x60 DUP4 ADD MLOAD AND SWAP1 PUSH1 0xA0 DUP4 MLOAD SWAP4 PUSH2 0x2E80 DUP6 PUSH2 0x2559 JUMP JUMPDEST ADD MLOAD SWAP4 PUSH1 0x40 MLOAD SWAP6 PUSH2 0x2E90 DUP8 PUSH2 0x242D JUMP JUMPDEST DUP7 MSTORE PUSH1 0x20 DUP7 ADD MSTORE PUSH1 0x40 DUP6 ADD MSTORE PUSH1 0x60 DUP5 ADD MSTORE PUSH2 0x2EAA DUP2 PUSH2 0x2559 JUMP JUMPDEST PUSH1 0x80 DUP4 ADD MSTORE PUSH1 0xA0 DUP3 ADD MSTORE SWAP1 JUMP INVALID LOG2 PUSH5 0x6970667358 0x22 SLT KECCAK256 0x4D PUSH17 0x87B574B8D09A69A733475B351C927226B5 0xDC SWAP11 0x2A INVALID 0xB5 0xAF GAS SGT 0xDC GAS PUSH2 0x418B PUSH5 0x736F6C6343 STOP ADDMOD SHL STOP CALLER "},"methodIdentifiers":{"addBatchProduction(string,string,uint8,string[],string)":"b5e3d0cc","allObatIds(uint256)":"cb960d6b","approveNie(string,string,string)":"f21dea86","createObat(string,string,string,string[],string,string[],string,uint8)":"e5dd1d06","detailBatchProduction(string,string)":"54253681","detailObat(string)":"4d17d273","getAllBatchProductionByInstance(string)":"1bbd28f9","getAllBatchProductionReadyStock()":"a1e0a4b0","getAllObat()":"50168fbb","getAllObatByInstance(string)":"baeedfad","getJenisSediaanAvail(string)":"d44faa63","mainSupplyChain()":"9413fcfd","obatDetailsById(string)":"27321837","obatNieById(string)":"5162659c","obatProductionById(string,uint256)":"ba2ffe4c","requestNie(string,string)":"e8982035","roleManager()":"00435da5","updateBatchProduction(string,string,string[])":"e9c14cb8"}}}}}