{"contracts/MainSupplyChain.sol":{"MainSupplyChain":{"abi":[{"inputs":[{"internalType":"address","name":"_roleManagerAddr","type":"address"}],"stateMutability":"nonpayable","type":"constructor"},{"anonymous":false,"inputs":[{"indexed":false,"internalType":"address","name":"userAddr","type":"address"},{"indexed":false,"internalType":"string","name":"name","type":"string"},{"indexed":false,"internalType":"string","name":"instanceName","type":"string"},{"indexed":false,"internalType":"uint8","name":"role","type":"uint8"}],"name":"evt_UserRegistered","type":"event"},{"anonymous":false,"inputs":[{"indexed":false,"internalType":"string","name":"bpomInstance","type":"string"},{"indexed":false,"internalType":"address","name":"bpomAddr","type":"address"},{"indexed":false,"internalType":"enum EnumsLibrary.TipePermohonanCdob","name":"","type":"uint8"},{"indexed":false,"internalType":"string","name":"cdobNumber","type":"string"},{"indexed":false,"internalType":"uint256","name":"timestampApproved","type":"uint256"}],"name":"evt_cdobApproved","type":"event"},{"anonymous":false,"inputs":[{"indexed":false,"internalType":"string","name":"pbfInstance","type":"string"},{"indexed":false,"internalType":"address","name":"pbfAddr","type":"address"},{"indexed":false,"internalType":"enum EnumsLibrary.TipePermohonanCdob","name":"tipePermohonan","type":"uint8"},{"indexed":false,"internalType":"uint256","name":"timestampRequest","type":"uint256"}],"name":"evt_cdobRequested","type":"event"},{"anonymous":false,"inputs":[{"indexed":false,"internalType":"string","name":"bpomInstance","type":"string"},{"indexed":false,"internalType":"address","name":"bpomAddr","type":"address"},{"indexed":false,"internalType":"enum EnumsLibrary.TipePermohonanCpotb","name":"","type":"uint8"},{"indexed":false,"internalType":"string","name":"cpotbId","type":"string"},{"indexed":false,"internalType":"uint256","name":"timestampApproved","type":"uint256"}],"name":"evt_cpotbApproved","type":"event"},{"anonymous":false,"inputs":[{"indexed":false,"internalType":"string","name":"factoryInstance","type":"string"},{"indexed":false,"internalType":"address","name":"factoryAddr","type":"address"},{"indexed":false,"internalType":"enum EnumsLibrary.TipePermohonanCpotb","name":"","type":"uint8"},{"indexed":false,"internalType":"uint256","name":"timestampRequest","type":"uint256"}],"name":"evt_cpotbRequested","type":"event"},{"inputs":[{"internalType":"uint256","name":"","type":"uint256"}],"name":"allCertificateData","outputs":[{"internalType":"string","name":"certId","type":"string"},{"internalType":"string","name":"certNumber","type":"string"},{"internalType":"string","name":"instanceName","type":"string"},{"internalType":"string","name":"certificateType","type":"string"},{"internalType":"uint8","name":"tipePermohonan","type":"uint8"},{"internalType":"enum EnumsLibrary.StatusCertificate","name":"status","type":"uint8"}],"stateMutability":"view","type":"function"},{"inputs":[{"components":[{"internalType":"string","name":"certNumber","type":"string"},{"internalType":"string","name":"certId","type":"string"},{"internalType":"string","name":"bpomName","type":"string"},{"internalType":"string","name":"bpomInstance","type":"string"}],"internalType":"struct MainSupplyChain.st_certificateApproval","name":"approvalData","type":"tuple"},{"internalType":"uint8","name":"_tipePermohonanCdob","type":"uint8"}],"name":"approveCdob","outputs":[],"stateMutability":"nonpayable","type":"function"},{"inputs":[{"components":[{"internalType":"string","name":"certNumber","type":"string"},{"internalType":"string","name":"certId","type":"string"},{"internalType":"string","name":"bpomName","type":"string"},{"internalType":"string","name":"bpomInstance","type":"string"}],"internalType":"struct MainSupplyChain.st_certificateApproval","name":"approvalData","type":"tuple"},{"internalType":"uint8","name":"_tipePermohonanCpotb","type":"uint8"}],"name":"approveCpotb","outputs":[],"stateMutability":"nonpayable","type":"function"},{"inputs":[{"internalType":"string","name":"_factoryName","type":"string"}],"name":"approvedTipePermohonan","outputs":[{"internalType":"uint8[]","name":"","type":"uint8[]"}],"stateMutability":"view","type":"function"},{"inputs":[{"internalType":"string","name":"","type":"string"},{"internalType":"uint256","name":"","type":"uint256"}],"name":"approvedTipePermohonanByFactory","outputs":[{"internalType":"uint8","name":"","type":"uint8"}],"stateMutability":"view","type":"function"},{"inputs":[{"internalType":"string","name":"","type":"string"}],"name":"cdobDataById","outputs":[{"internalType":"string","name":"cdobId","type":"string"},{"internalType":"string","name":"cdobNumber","type":"string"},{"components":[{"internalType":"enum EnumsLibrary.StatusCertificate","name":"status","type":"uint8"},{"internalType":"uint256","name":"timestampRequest","type":"uint256"},{"internalType":"uint256","name":"timestampApprove","type":"uint256"},{"components":[{"internalType":"string","name":"userName","type":"string"},{"internalType":"address","name":"userAddr","type":"address"},{"internalType":"string","name":"userInstanceName","type":"string"}],"internalType":"struct MainSupplyChain.st_userCertificate","name":"sender","type":"tuple"},{"components":[{"internalType":"string","name":"userName","type":"string"},{"internalType":"address","name":"userAddr","type":"address"},{"internalType":"string","name":"userInstanceName","type":"string"}],"internalType":"struct MainSupplyChain.st_userCertificate","name":"bpom","type":"tuple"}],"internalType":"struct MainSupplyChain.st_certificateDetails","name":"details","type":"tuple"},{"internalType":"enum EnumsLibrary.TipePermohonanCdob","name":"tipePermohonan","type":"uint8"}],"stateMutability":"view","type":"function"},{"inputs":[{"internalType":"string","name":"","type":"string"}],"name":"cpotbDataById","outputs":[{"internalType":"string","name":"cpotbId","type":"string"},{"internalType":"string","name":"cpotbNumber","type":"string"},{"components":[{"internalType":"enum EnumsLibrary.StatusCertificate","name":"status","type":"uint8"},{"internalType":"uint256","name":"timestampRequest","type":"uint256"},{"internalType":"uint256","name":"timestampApprove","type":"uint256"},{"components":[{"internalType":"string","name":"userName","type":"string"},{"internalType":"address","name":"userAddr","type":"address"},{"internalType":"string","name":"userInstanceName","type":"string"}],"internalType":"struct MainSupplyChain.st_userCertificate","name":"sender","type":"tuple"},{"components":[{"internalType":"string","name":"userName","type":"string"},{"internalType":"address","name":"userAddr","type":"address"},{"internalType":"string","name":"userInstanceName","type":"string"}],"internalType":"struct MainSupplyChain.st_userCertificate","name":"bpom","type":"tuple"}],"internalType":"struct MainSupplyChain.st_certificateDetails","name":"details","type":"tuple"},{"internalType":"enum EnumsLibrary.TipePermohonanCpotb","name":"tipePermohonan","type":"uint8"}],"stateMutability":"view","type":"function"},{"inputs":[{"internalType":"string","name":"_certId","type":"string"}],"name":"detailCdob","outputs":[{"components":[{"internalType":"string","name":"cdobId","type":"string"},{"internalType":"string","name":"cdobNumber","type":"string"},{"components":[{"internalType":"enum EnumsLibrary.StatusCertificate","name":"status","type":"uint8"},{"internalType":"uint256","name":"timestampRequest","type":"uint256"},{"internalType":"uint256","name":"timestampApprove","type":"uint256"},{"components":[{"internalType":"string","name":"userName","type":"string"},{"internalType":"address","name":"userAddr","type":"address"},{"internalType":"string","name":"userInstanceName","type":"string"}],"internalType":"struct MainSupplyChain.st_userCertificate","name":"sender","type":"tuple"},{"components":[{"internalType":"string","name":"userName","type":"string"},{"internalType":"address","name":"userAddr","type":"address"},{"internalType":"string","name":"userInstanceName","type":"string"}],"internalType":"struct MainSupplyChain.st_userCertificate","name":"bpom","type":"tuple"}],"internalType":"struct MainSupplyChain.st_certificateDetails","name":"details","type":"tuple"},{"internalType":"enum EnumsLibrary.TipePermohonanCdob","name":"tipePermohonan","type":"uint8"}],"internalType":"struct MainSupplyChain.st_cdob","name":"","type":"tuple"}],"stateMutability":"view","type":"function"},{"inputs":[{"internalType":"string","name":"_certId","type":"string"}],"name":"detailCpotb","outputs":[{"components":[{"internalType":"string","name":"cpotbId","type":"string"},{"internalType":"string","name":"cpotbNumber","type":"string"},{"components":[{"internalType":"enum EnumsLibrary.StatusCertificate","name":"status","type":"uint8"},{"internalType":"uint256","name":"timestampRequest","type":"uint256"},{"internalType":"uint256","name":"timestampApprove","type":"uint256"},{"components":[{"internalType":"string","name":"userName","type":"string"},{"internalType":"address","name":"userAddr","type":"address"},{"internalType":"string","name":"userInstanceName","type":"string"}],"internalType":"struct MainSupplyChain.st_userCertificate","name":"sender","type":"tuple"},{"components":[{"internalType":"string","name":"userName","type":"string"},{"internalType":"address","name":"userAddr","type":"address"},{"internalType":"string","name":"userInstanceName","type":"string"}],"internalType":"struct MainSupplyChain.st_userCertificate","name":"bpom","type":"tuple"}],"internalType":"struct MainSupplyChain.st_certificateDetails","name":"details","type":"tuple"},{"internalType":"enum EnumsLibrary.TipePermohonanCpotb","name":"tipePermohonan","type":"uint8"}],"internalType":"struct MainSupplyChain.st_cpotb","name":"","type":"tuple"}],"stateMutability":"view","type":"function"},{"inputs":[],"name":"getListAllCdob","outputs":[{"components":[{"internalType":"string","name":"certId","type":"string"},{"internalType":"string","name":"certNumber","type":"string"},{"internalType":"string","name":"instanceName","type":"string"},{"internalType":"string","name":"certificateType","type":"string"},{"internalType":"uint8","name":"tipePermohonan","type":"uint8"},{"internalType":"enum EnumsLibrary.StatusCertificate","name":"status","type":"uint8"}],"internalType":"struct MainSupplyChain.st_certificateList[]","name":"","type":"tuple[]"}],"stateMutability":"view","type":"function"},{"inputs":[{"internalType":"string","name":"_instanceName","type":"string"}],"name":"getListAllCertificateByInstance","outputs":[{"components":[{"internalType":"string","name":"certId","type":"string"},{"internalType":"string","name":"certNumber","type":"string"},{"internalType":"string","name":"instanceName","type":"string"},{"internalType":"string","name":"certificateType","type":"string"},{"internalType":"uint8","name":"tipePermohonan","type":"uint8"},{"internalType":"enum EnumsLibrary.StatusCertificate","name":"status","type":"uint8"}],"internalType":"struct MainSupplyChain.st_certificateList[]","name":"","type":"tuple[]"}],"stateMutability":"view","type":"function"},{"inputs":[],"name":"getListAllCpotb","outputs":[{"components":[{"internalType":"string","name":"certId","type":"string"},{"internalType":"string","name":"certNumber","type":"string"},{"internalType":"string","name":"instanceName","type":"string"},{"internalType":"string","name":"certificateType","type":"string"},{"internalType":"uint8","name":"tipePermohonan","type":"uint8"},{"internalType":"enum EnumsLibrary.StatusCertificate","name":"status","type":"uint8"}],"internalType":"struct MainSupplyChain.st_certificateList[]","name":"","type":"tuple[]"}],"stateMutability":"view","type":"function"},{"inputs":[{"internalType":"address","name":"_userAddr","type":"address"}],"name":"getRegisteredUser","outputs":[{"internalType":"address","name":"","type":"address"},{"internalType":"string","name":"","type":"string"},{"internalType":"string","name":"","type":"string"},{"internalType":"uint8","name":"","type":"uint8"}],"stateMutability":"view","type":"function"},{"inputs":[{"internalType":"string","name":"_name","type":"string"},{"internalType":"string","name":"_instanceName","type":"string"},{"internalType":"address","name":"_userAddr","type":"address"},{"internalType":"uint8","name":"_userRole","type":"uint8"}],"name":"registerUser","outputs":[],"stateMutability":"nonpayable","type":"function"},{"inputs":[{"components":[{"internalType":"string","name":"certId","type":"string"},{"internalType":"string","name":"senderName","type":"string"},{"internalType":"string","name":"senderInstance","type":"string"}],"internalType":"struct MainSupplyChain.st_certificateRequest","name":"requestData","type":"tuple"},{"internalType":"uint8","name":"_tipePermohonanCdob","type":"uint8"}],"name":"requestCdob","outputs":[],"stateMutability":"nonpayable","type":"function"},{"inputs":[{"components":[{"internalType":"string","name":"certId","type":"string"},{"internalType":"string","name":"senderName","type":"string"},{"internalType":"string","name":"senderInstance","type":"string"}],"internalType":"struct MainSupplyChain.st_certificateRequest","name":"requestData","type":"tuple"},{"internalType":"uint8","name":"_tipePermohonanCpotb","type":"uint8"}],"name":"requestCpotb","outputs":[],"stateMutability":"nonpayable","type":"function"}],"evm":{"bytecode":{"linkReferences":{},"object":"608034607057601f615eb138819003918201601f19168301916001600160401b03831184841017607557808492602094604052833981010312607057516001600160a01b03811690819003607057600080546001600160a01b031916919091179055604051615e25908161008c8239f35b600080fd5b634e487b7160e01b600052604160045260246000fdfe60c0604052600436101561001257600080fd5b6000803560e01c80632592e51114614b96578063387bb30e14613e0f5780634c3ba6fd14613d445780636aa8129914613c915780636d2a362f14612e545780636f8e619714612d64578063711255af14612c5157806372c17cb914612b995780637ee90ded14612b19578063950d4d74146123f8578063a814a60f146122b3578063cec1fc1e14612213578063d12336721461093f578063e49d0327146102fa578063e54a29bb146101c75763ec176587146100cd57600080fd5b346101c457806003193601126101c4576100ed6100e8615a22565b615d61565b61011e60ff60405160208101906431b837ba3160d91b8252600581526101146025826152d7565b5190209216615b35565b918091600454925b83811061013f576040518061013b8782615850565b0390f35b816003610165610173610151856154fa565b506040519283916020830195869101615971565b03601f1981018352826152d7565b51902014610184575b600101610126565b916101bc6001916101b66101a061019a876154fa565b50615b99565b60ff8316906101af828b615b85565b5288615b85565b50615c08565b92905061017c565b80fd5b50346101c45760203660031901126101c4576004356001600160a01b038116908190036102eb57815460405163e54a29bb60e01b815260048101929092528290829060249082906001600160a01b03165afa80156102ef5782808093819361025a575b50600483101561024657509061013b9160405194859485615918565b634e487b7160e01b81526021600452602490fd5b9450925050503d8082843e61026f81846152d7565b8201906080838303126101c45782516001600160401b0381116102eb5782610298918501615c54565b9160208401516001600160401b0381116102e757906102b8918501615c54565b604084015190936001600160a01b03821682036102e757606001519260048410156102e757939092913861022a565b8280fd5b5080fd5b6040513d84823e3d90fd5b50346101c45760203660031901126101c4576004356001600160401b0381116102eb576020610330610343923690600401615313565b8160405193828580945193849201615629565b81016003815203019020604051808160208454928381520180948652602086209286905b80601f83011061079757610480945491818110610783575b81811061076c575b818110610755575b81811061073e575b818110610728575b818110610711575b8181106106fa575b8181106106e3575b8181106106cc575b8181106106b5575b81811061069e575b818110610687575b818110610670575b818110610659575b818110610642575b81811061062b575b818110610614575b8181106105fd575b8181106105e6575b8181106105cf575b8181106105b8575b8181106105a1575b81811061058a575b818110610573575b81811061055c575b818110610545575b81811061052e575b818110610517575b818110610500575b8181106104e9575b8181106104d2575b106104c4575b5093929303836152d7565b604051928392602084019060208552518091526040840192915b8181106104a8575050500390f35b825160ff1684528594506020938401939092019160010161049a565b60f81c815260200138610475565b92602060019160ff8560f01c16815201930161046f565b92602060019160ff8560e81c168152019301610467565b92602060019160ff8560e01c16815201930161045f565b92602060019160ff8560d81c168152019301610457565b92602060019160ff8560d01c16815201930161044f565b92602060019160ff8560c81c168152019301610447565b92602060019160ff8560c01c16815201930161043f565b92602060019160ff8560b81c168152019301610437565b92602060019160ff8560b01c16815201930161042f565b92602060019160ff8560a81c168152019301610427565b92602060019160ff8560a01c16815201930161041f565b92602060019160ff8560981c168152019301610417565b92602060019160ff8560901c16815201930161040f565b92602060019160ff8560881c168152019301610407565b92602060019160ff8560801c1681520193016103ff565b92602060019160ff8560781c1681520193016103f7565b92602060019160ff8560701c1681520193016103ef565b92602060019160ff8560681c1681520193016103e7565b92602060019160ff8560601c1681520193016103df565b92602060019160ff8560581c1681520193016103d7565b92602060019160ff8560501c1681520193016103cf565b92602060019160ff8560481c1681520193016103c7565b92602060019160ff8560401c1681520193016103bf565b92602060019160ff8560381c1681520193016103b7565b92602060019160ff8560301c1681520193016103af565b92602060019160ff8560281c1681520193016103a7565b92602060019160ff85831c16815201930161039f565b92602060019160ff8560181c168152019301610397565b92602060019160ff8560101c16815201930161038f565b92602060019160ff8560081c168152019301610387565b92602060019160ff8516815201930161037f565b916020919350610400600191865460ff8116825260ff8160081c168583015260ff8160101c16604083015260ff8160181c16606083015260ff81861c16608083015260ff8160281c1660a083015260ff8160301c1660c083015260ff8160381c1660e083015260ff8160401c1661010083015260ff8160481c1661012083015260ff8160501c1661014083015260ff8160581c1661016083015260ff8160601c1661018083015260ff8160681c166101a083015260ff8160701c166101c083015260ff8160781c166101e083015260ff8160801c1661020083015260ff8160881c1661022083015260ff8160901c1661024083015260ff8160981c1661026083015260ff8160a01c1661028083015260ff8160a81c166102a083015260ff8160b01c166102c083015260ff8160b81c166102e083015260ff8160c01c1661030083015260ff8160c81c1661032083015260ff8160d01c1661034083015260ff8160d81c1661036083015260ff8160e01c1661038083015260ff8160e81c166103a083015260ff8160f01c166103c083015260f81c6103e0820152019401920184929391610367565b50346101c45760803660031901126101c4576004356001600160401b0381116102eb57610970903690600401615313565b6024356001600160401b0381116102e75761098f903690600401615313565b6080526044356001600160a01b0381169182820361220f576064359260ff84169081850361220b5785546001600160a01b03169060048310156121f757908691813b156102e757829160405180948180946368919b3960e11b825260806004830152610a15610a01608484018c61564c565b83810360031901602485015260805161564c565b90604483015288606483015203925af180156121ec576121d8575b5015610a72575b610a6c7f93b86cf0a1d8e18e724e08d47f7248859de317795be109ec2495f6fc7445b4e9936040519384936080519185615918565b0390a180f35b9060405190610a8082615286565b610a88615c2f565b82526040918251610a9984826152d7565b600b81526a54414b414b49205955594160a81b6020820152602082019081528351610ac485826152d7565b601081526f50542e20427564692050656b6572746960801b6020820152848301526044602060018060a01b038954168651928380926395a8c58d60e01b82523360048301528c60248301525afa9081156121ce57889161219f575b501561215157610b38610b328351615691565b5461554b565b61211357610b50610b87915185840151903390615cbe565b602060a08190528551610b8191610b6790826152d7565b898152865190610b7960a051836152d7565b8a8252615c96565b90615cee565b815190845191610b9683615255565b82528451610ba660a051826152d7565b88815260a05183015284820152866060820152610bc38251615691565b81518051906001600160401b038211611507578190610be2845461554b565b601f81116120c3575b5060a05190601f831160011461205d578b92612052575b50508160011b916000199060031b1c19161781555b60a0518201518051906001600160401b038211611507578190610c3d600185015461554b565b601f8111611fff575b5060a05190601f8311600114611f93578b92611f88575b50508160011b916000199060031b1c19161760018201555b84820151610c908151610c8781615671565b60028401615959565b60a0518101516003830155858101516004830155606081015180518051906001600160401b038211611f745790889291610ccd600587015461554b565b601f8111611f1c575b5060a051908d601f8411600114611eab57919083611ea0575b50508160011b916000199060031b1c19161760058501555b6006840160018060a01b0360a051830151166001600160601b0360a01b82541617905501518051906001600160401b038211611dcb57610d4a600785015461554b565b601f8111611e59575b5060a05190601f8311600114611dea5760809392918c9183611ddf575b50508160011b916000199060031b1c19161760078401555b015180518051906001600160401b038211611dcb5790879291610dae600886015461554b565b601f8111611d73575b5060a05190601f8311600114611d02578c919083611cf7575b50508160011b916000199060031b1c19161760088401555b6009830160018060a01b0360a051830151166001600160601b0360a01b82541617905501518051906001600160401b03821161150757610e2b600a84015461554b565b601f8111611cad575b5060a05190601f8311600114611c3c57918060609492600b948d92611c31575b50508160011b916000199060031b1c191617600a8201555b019101516009811015611c1d5760ff80198354169116179055805183820151845190610e9a60a051836152d7565b888252610ea5615a22565b91610eae615b01565b50865193610ebb856152bc565b845260a051840152858301526060820152866080820152610edb87615671565b8660a0820152600454600160401b8110156115b757806001610f029201600455600461552f565b611c095781518051906001600160401b038211611507578190610f25845461554b565b601f8111611bb9575b5060a05190601f8311600114611b53578b92611b48575b50508160011b916000199060031b1c19161781555b60a0518201518051906001600160401b038211611507578190610f80600185015461554b565b601f8111611af5575b5060a05190601f8311600114611a89578b92611a7e575b50508160011b916000199060031b1c19161760018201555b848201518051906001600160401b038211611507578190610fdc600285015461554b565b601f8111611a2b575b5060a05190601f83116001146119bf578b926119b4575b50508160011b916000199060031b1c19161760028201555b60608201518051906001600160401b0382116115075790829161103c6003899695015461554b565b601f8111611959575b5060a051908b601f84116001146118cc57600080516020615dd08339815191529794846110ba956110cf99989560a095600495926118c1575b50508160011b916000199060031b1c19161760038201555b019160ff60808201511660ff198454161783550151906110b582615671565b6159df565b0151845191829160808352608083019061564c565b3360a05183015288868301524260608301520390a18151926110f084615255565b82516110fc84826152d7565b600c81526b6153414a4b2d41534644415360a01b60a0518201528452611120615c2f565b60a051850152825161113284826152d7565b60088152674e494c4f4a55524960c01b60a051820152838501908152835161115a85826152d7565b600d81526c212827a69026b0b5b0b9b9b0b960991b60a051820152606086015261118860a051860151615691565b90611193825461554b565b1561188a5760ff6002830154166111a981615671565b611845575160608601516111be913390615cbe565b80518051906001600160401b03821161150757908692916111e2600886015461554b565b601f81116117ee575b5060a05190601f831160011461177d578b919083611772575b50508160011b916000199060031b1c19161760088401555b6009830160018060a01b0360a051830151166001600160601b0360a01b82541617905501518051906001600160401b038211611695578190611261600a85015461554b565b601f8111611720575b5060a05190601f83116001146116b4578a926116a9575b50508160011b916000199060031b1c191617600a8201555b60028101805460ff1916600117905542600482015584518051906001600160401b038211611695576112ce600184015461554b565b601f811161164b575b5060a05190601f83116001146115d65792826113199360079361131e968d926115cb575b50508160011b916000199060031b1c19161760018201555b01615585565b6156dd565b805490600160401b8210156115b7579061133d91600182018155615830565b60ff82549160031b1b19169055855b60045481101561151b5761135f816154fa565b5084516113758161016560a05182018095615971565b51902061139d60a0518701516113b387519160a0518301938185925192839160a05101615629565b8260a0519181010301601f1981018352826152d7565b519020146113c4575b60010161134c565b845160016113d1836154fa565b5001908051906001600160401b038211611507576113ef835461554b565b601f81116114c0575b5060a05190601f8311600114611456576001949392918b918361144b575b5050600019600383901b1c191690841b1790555b6004611435826154fa565b5001805461ff00191661010017905590506113bc565b015190503880611416565b838b5260a0518b209190601f1984168c5b8181106114a757509160019695949291838895931061148e575b505050811b01905561142a565b015160001960f88460031b161c19169055388080611481565b82840151855560a0516001909501949384019301611467565b838b5260a0518b20601f840160051c81019160a05185106114fd575b601f0160051c01905b8181106114f257506113f8565b8b81556001016114e5565b90915081906114dc565b634e487b7160e01b8a52604160045260248afd5b5091937f5f0795f9828e754b342c66dc560f8879d7982ca16fbeb97634e54f75bd39bfd7611589610a6c93956115a67f93b86cf0a1d8e18e724e08d47f7248859de317795be109ec2495f6fc7445b4e99860608301519251611599825195869560a0875260a087019061564c565b923360a05187015285018d615823565b838203606085015261564c565b4260808301520390a1935050610a37565b634e487b7160e01b88526041600452602488fd5b0151905038806112fb565b600184018a5260a0518a209190601f1984168b5b81811061163257509360079361131e9693600193836113199810611619575b505050811b016001820155611313565b015160001960f88460031b161c19169055388080611609565b82840151855560a05160019095019493840193016115ea565b600184018a5260a0518a20601f840160051c81019160a051851061168b575b601f0160051c01905b81811061168057506112d7565b8a8155600101611673565b909150819061166a565b634e487b7160e01b89526041600452602489fd5b015190503880611281565b600a85018b5260a0518b209250601f1984168b5b81811061170757509084600195949392106116ee575b505050811b01600a820155611299565b015160001960f88460031b161c191690553880806116de565b82840151855560a05160019095019493840193016116c8565b909150600a84018a5260a0518a20601f840160051c810160a051851061176b575b90849392915b601f830160051c8201811061175d57505061126a565b8c8155859450600101611747565b5080611741565b015190503880611204565b600886018c5260a0518c209094939291601f1983168d5b8181106117d2575095836001959697106117b9575b505050811b01600884015561121c565b015160001960f88460031b161c191690553880806117a9565b87830151845560a0518c97506001909401939283019201611794565b9091929350600885018b5260a0518b20601f840160051c810160a051851061183e575b908995949392915b8d601f840160051c83018210611831575050506111eb565b81558a9650600101611819565b5080611811565b845162461bcd60e51b815260a0805160048301525160248201527f43504f544220737461747573206d7573742062652027526571756573746564276044820152606490fd5b845162461bcd60e51b815260a0516004820152600f60248201526e10d413d510881b9bdd08199bdd5b99608a1b6044820152606490fd5b01519050388061107e565b50600384018c5260a0518c209190601f1984168d5b81811061193d5750946001856110cf99989560a0956004956110ba99600080516020615dd08339815191529e9b10611924575b505050811b016003820155611096565b015160001960f88460031b161c19169055388080611914565b82840151855560a0518c995060019095019493840193016118e1565b909192939450600384018b5260a0518b20601f840160051c81019160a05185106119aa575b90601f8a9796959493920160051c01905b81811061199c5750611045565b8c815589965060010161198f565b909150819061197e565b015190503880610ffc565b600285018c5260a0518c209250601f1984168c5b818110611a1257509084600195949392106119f9575b505050811b016002820155611014565b015160001960f88460031b161c191690553880806119e9565b82840151855560a05160019095019493840193016119d3565b909150600284018b5260a0518b20601f840160051c810160a0518510611a77575b90849392915b8d601f840160051c83018210611a6a57505050610fe5565b8155859450600101611a52565b5080611a4c565b015190503880610fa0565b600185018c5260a0518c209250601f1984168c5b818110611adc5750908460019594939210611ac3575b505050811b016001820155610fb8565b015160001960f88460031b161c19169055388080611ab3565b82840151855560a0516001909501949384019301611a9d565b909150600184018b5260a0518b20601f840160051c810160a0518510611b41575b90849392915b8d601f840160051c83018210611b3457505050610f89565b8155859450600101611b1c565b5080611b16565b015190503880610f45565b848c5260a0518c209250601f1984168c5b818110611ba05750908460019594939210611b87575b505050811b018155610f5a565b015160001960f88460031b161c19169055388080611b7a565b82840151855560a0516001909501949384019301611b64565b909150838b5260a0518b20601f840160051c810160a0518510611c02575b90849392915b8d601f840160051c83018210611bf557505050610f2e565b8155859450600101611bdd565b5080611bd7565b634e487b7160e01b88526004889052602488fd5b634e487b7160e01b88526021600452602488fd5b015190503880610e54565b600a84018b5260a0518b209190601f1984168c5b818110611c945750926001928592600b966060989610611c7b575b505050811b01600a820155610e6c565b015160001960f88460031b161c19169055388080611c6b565b82840151855560a0516001909501949384019301611c50565b600a84018b5260a0518b20601f840160051c81019160a0518510611ced575b601f0160051c01905b818110611ce25750610e34565b8b8155600101611cd5565b9091508190611ccc565b015190503880610dd0565b600886018d5260a0518d209094939291601f1983168e5b818110611d5757509583600195969710611d3e575b505050811b016008840155610de8565b015160001960f88460031b161c19169055388080611d2e565b87830151845560a0518d97506001909401939283019201611d19565b9091929350600885018c5260a0518c20601f840160051c810160a0518510611dc4575b8a9594939291908e5b601f840160051c83018210611db657505050610db7565b81558b96506001018e611d9f565b5080611d96565b634e487b7160e01b8b52604160045260248bfd5b015190503880610d70565b600785018c5260a0518c209190601f1984168d5b818110611e405750916001939185608097969410611e27575b505050811b016007840155610d88565b015160001960f88460031b161c19169055388080611e17565b82840151855560a0516001909501949384019301611dfe565b600785018c5260a0518c20601f840160051c810160a0518510611e99575b8d601f840160051c83018210611e8f57505050610d53565b8155600101611e77565b5080611e77565b015190503880610cef565b9094939291601f19831660058901835260a0518320925b818110611f0057509583600195969710611ee7575b505050811b016005850155610d07565b015160001960f88460031b161c19169055388080611ed7565b87830151845560a0518e97506001909401939283019201611ec2565b9091929350600586018d5260a0518d20601f840160051c810160a0518510611f6d575b8b9594939291908f5b601f840160051c83018210611f5f57505050610cd6565b81558c96506001018f611f48565b5080611f3f565b634e487b7160e01b8c52604160045260248cfd5b015190503880610c5d565b600185018c5260a0518c209250601f1984168c5b818110611fe65750908460019594939210611fcd575b505050811b016001820155610c75565b015160001960f88460031b161c19169055388080611fbd565b82840151855560a0516001909501949384019301611fa7565b909150600184018b5260a0518b20601f840160051c810160a051851061204b575b90849392915b8d601f840160051c8301821061203e57505050610c46565b8155859450600101612026565b5080612020565b015190503880610c02565b848c5260a0518c209250601f1984168c5b8181106120aa5750908460019594939210612091575b505050811b018155610c17565b015160001960f88460031b161c19169055388080612084565b82840151855560a051600190950194938401930161206e565b909150838b5260a0518b20601f840160051c810160a051851061210c575b90849392915b8d601f840160051c830182106120ff57505050610beb565b81558594506001016120e7565b50806120e1565b835162461bcd60e51b815260206004820152601760248201527643504f544220494420616c72656164792065786973747360481b6044820152606490fd5b835162461bcd60e51b815260206004820152602160248201527f416363657373207265737472696374656420746f20466163746f727920726f6c6044820152606560f81b6064820152608490fd5b6121c1915060203d6020116121c7575b6121b981836152d7565b8101906159fe565b38610b1f565b503d6121af565b85513d8a823e3d90fd5b856121e5919692966152d7565b9338610a30565b6040513d88823e3d90fd5b634e487b7160e01b87526021600452602487fd5b8580fd5b8380fd5b50346101c457806003193601126101c45761222f6100e8615a45565b61225560ff60405160208101906331b237b160e11b8252600481526101146024826152d7565b918091600454925b838110612272576040518061013b8782615850565b816003610165612284610151856154fa565b51902014612295575b60010161225d565b916122ab6001916101b66101a061019a876154fa565b92905061228d565b50346101c45760203660031901126101c4576004356001600160401b0381116102eb576122e4903690600401615313565b6004546020820192909181805b8481106123a2575060ff6123059116615b35565b93825b84811061231d576040518061013b8882615850565b600261016561232e610151846154fa565b519020604051602081019061235d602082885161234c81878b615629565b81010301601f1981018352826152d7565b5190201461236e575b600101612308565b9261239a6001916101b661238461019a886154fa565b60ff831690612393828c615b85565b5289615b85565b939050612366565b60026101656123b3610151846154fa565b51902060405160208101906123d36020828461234c8d8b51928391615629565b519020146123e4575b6001016122f1565b906123f0600191615c08565b9190506123dc565b50346101c4576124073661535f565b82546040516395a8c58d60e01b81523360048201526002602482015291929190602090829060449082906001600160a01b03165afa908115612b0e578491612aef575b5015612aaa576020810161245e81516156b7565b92612469845461554b565b15612a7457600284019360ff85541661248181615671565b612a2f5760408401519461249d60608601968751903390615cbe565b6008830181518051906001600160401b038211611dcb5781906124c0845461554b565b601f81116129df575b50602090601f831160011461297c578c92612971575b50508160011b916000199060031b1c19161790555b60208101516009840180546001600160a01b0319166001600160a01b0392909216919091179055604001518051600a8401916001600160401b038211611507578190612540845461554b565b601f8111612921575b50602090601f83116001146128be578b926128b3575b50508160011b916000199060031b1c19161790555b600160ff19825416179055426004820155600184519101908051906001600160401b0382116115b75781906125a9845461554b565b601f8111612863575b50602090601f83116001146128005789926127f5575b50508160011b916000199060031b1c19161790555b845b600454811015612778576125f2816154fa565b5060405161260881610165602082018095615971565b519020835160405161262a6020828161234c8183019687815193849201615629565b5190201461263b575b6001016125df565b83516001612648836154fa565b5001908051906001600160401b03821161169557612666835461554b565b601f8111612733575b50602090601f83116001146126cc576001949392918a91836126c1575b5050600019600383901b1c191690841b1790555b60046126ab826154fa565b5001805461ff0019166101001790559050612633565b01519050388061268c565b838a52818a209190601f1984168b5b81811061271b575091600196959492918388959310612702575b505050811b0190556126a0565b015160001960f88460031b161c191690553880806126f5565b929360206001819287860151815501950193016126db565b838a5260208a20601f840160051c8101916020851061276e575b601f0160051c01905b818110612763575061266f565b8a8155600101612756565b909150819061274d565b857f8d8f26b533bc5f62a32de1faa67facbf43e75bd50ab3e60343fd421507e8dd636127c7846127e98860ff8b519316906127b282615671565b5160405194859460a0865260a086019061564c565b913360208601526127d781615671565b6040850152838203606085015261564c565b4260808301520390a180f35b0151905038806125c8565b848a52818a209250601f1984168a5b81811061284b5750908460019594939210612832575b505050811b0190556125dd565b015160001960f88460031b161c19169055388080612825565b9293602060018192878601518155019501930161280f565b90915083895260208920601f840160051c810191602085106128a9575b90601f859493920160051c01905b81811061289b57506125b2565b8a815584935060010161288e565b9091508190612880565b01519050388061255f565b848c52818c209250601f1984168c5b81811061290957509084600195949392106128f0575b505050811b019055612574565b015160001960f88460031b161c191690553880806128e3565b929360206001819287860151815501950193016128cd565b909150838b5260208b20601f840160051c81019160208510612967575b90601f859493920160051c01905b8181106129595750612549565b8c815584935060010161294c565b909150819061293e565b0151905038806124df565b848d52818d209250601f1984168d5b8181106129c757509084600195949392106129ae575b505050811b0190556124f4565b015160001960f88460031b161c191690553880806129a1565b9293602060018192878601518155019501930161298b565b909150838c5260208c20601f840160051c81019160208510612a25575b90601f859493920160051c01905b818110612a1757506124c9565b8d8155849350600101612a0a565b90915081906129fc565b60405162461bcd60e51b815260206004820152601f60248201527f43444f4220737461747573206d757374206265202752657175657374656427006044820152606490fd5b60405162461bcd60e51b815260206004820152600e60248201526d10d113d0881b9bdd08199bdd5b9960921b6044820152606490fd5b60405162461bcd60e51b815260206004820152601e60248201527f416363657373207265737472696374656420746f2042504f4d20726f6c6500006044820152606490fd5b612b08915060203d6020116121c7576121b981836152d7565b3861244a565b6040513d86823e3d90fd5b50346101c45760403660031901126101c4576004356001600160401b0381116102eb57612b4a903690600401615313565b90612b676020602435938160405193828580945193849201615629565b810160038152030190209081548310156101c457602060ff612b898585615830565b90549060031b1c16604051908152f35b50346101c45760203660031901126101c457600435906001600160401b0382116101c457612c22612bd260206103303660048701615313565b81016002815203019020612be581615585565b90612c3e612bf560018301615585565b91612c3060ff600b612c0960028501615742565b930154169360405196879660808852608088019061564c565b90868203602088015261564c565b9084820360408601526157d2565b90612c4881615671565b60608301520390f35b50346101c45760203660031901126101c457600435906001600160401b0382116101c457612d2a612ca66020612c8a3660048701615313565b612c92615abe565b508160405193828580945193849201615629565b8101600281520301902060405190612cbd82615255565b612cc681615585565b8252612d50612cd760018301615585565b9160208401928352612d3d60ff600b612cf260028501615742565b9360408801948552015416936060860194612d0c81615671565b855260405196879660208852516080602089015260a088019061564c565b9051868203601f1901604088015261564c565b9051848203601f190160608601526157d2565b9051612d5b81615671565b60808301520390f35b50346101c45760203660031901126101c457600435906001600160401b0382116101c457612e22612d9d6020612c8a3660048701615313565b8101600181520301902060405190612db482615255565b612dbd81615585565b825261013b612e48612dd160018401615585565b9260208501938452612e3560ff600b612dec60028501615742565b936040890194855201541694612e06606088019687615a16565b6040519788976020895251608060208a015260a089019061564c565b9051878203601f1901604089015261564c565b9051858203601f190160608701526157d2565b91516080840190615823565b50346101c457612e6336615440565b82546040516395a8c58d60e01b81523360048201526001602482015291929190602090829060449082906001600160a01b03165afa908115612b0e578491613c72575b5015613c2d57612eb9610b3282516156b7565b613bef576020810151612ed460408301918251903390615cbe565b91612f04602093610b81604051612eeb87826152d7565b88815260405190612efc88836152d7565b898252615c96565b60ff8251951694612f1486615671565b60405190612f2182615255565b815260405191612f3186846152d7565b878352858201928352604082019081526060820192612f4f88615671565b878452612f5c85516156b7565b92518051906001600160401b038211611dcb578190612f7b865461554b565b601f8111613ba1575b508990601f8311600114613b3e578c92613b33575b50508160011b916000199060031b1c19161783555b51805160018401916001600160401b038211611dcb578190612fd0845461554b565b601f8111613ae5575b508990601f8311600114613a82578c92613a77575b50508160011b916000199060031b1c19161790555b516130128151610c8781615671565b8086015160038301556040810151600483015560608101518051805160058501916001600160401b038211611f7457819061304d845461554b565b601f8111613a26575b508a908d601f84116001146139c357926139b8575b50508160011b916000199060031b1c19161790555b808701516006840180546001600160a01b0319166001600160a01b039290921691909117905560400151805160078401916001600160401b038211611dcb5781906130cb845461554b565b601f811161396a575b508990601f8311600114613907578c926138fc575b50508160011b916000199060031b1c19161790555b608001518051805160088401916001600160401b038211611dcb578190613125845461554b565b601f81116138ae575b508990601f831160011461384b578c92613840575b50508160011b916000199060031b1c19161790555b808601516009830180546001600160a01b0319166001600160a01b0392909216919091179055604001518051600a8301916001600160401b038211611507576131a1835461554b565b601f81116137fd575b508790601f8311600114613791579180600b9492613236989796948d92613786575b50508160011b916000199060031b1c19161790555b0190516131ed81615671565b6131f681615671565b60ff801983541691161790555184835161320f82615671565b61321882615671565b60405161322587826152d7565b888152613230615a45565b93615d23565b600454600160401b811015613772578060016132579201600455600461552f565b61375e5781518051906001600160401b0382116115b757819061327a845461554b565b601f8111613710575b508690601f83116001146136ad5789926136a2575b50508160011b916000199060031b1c19161781555b60018101848301518051906001600160401b0382116116955781906132d2845461554b565b601f8111613654575b508790601f83116001146135f1578a926135e6575b50508160011b916000199060031b1c19161790555b6002810160408301518051906001600160401b03821161169557819061332b845461554b565b601f8111613598575b508790601f8311600114613535578a9261352a575b50508160011b916000199060031b1c19161790555b6003810160608301518051906001600160401b03821161169557613382835461554b565b601f81116134e7575b50869089601f8411600114613453579461340994846134289a989560a0956004957f7002576f080ade70048a03ad81b929b78c8b7e148fd11f40f286a8b6900e6f9b9e9c9a92613448575b50508160011b916000199060031b1c1916179055019160ff60808201511660ff198454161783550151906110b582615671565b519161341481615671565b60405193849360808552608085019061564c565b91339084015261343781615671565b60408301524260608301520390a180f35b0151905038806133d6565b50838a52878a209190601f1984168b5b8181106134d057509460018560a0956004957f7002576f080ade70048a03ad81b929b78c8b7e148fd11f40f286a8b6900e6f9b9e9c9a956134289e9c996134099b106134b7575b505050811b019055611096565b015160001960f88460031b161c191690553880806134aa565b92938a600181928786015181550195019301613463565b838a52878a20601f840160051c810191898510613520575b601f0160051c01905b818110613515575061338b565b8a8155600101613508565b90915081906134ff565b015190503880613349565b848b52888b209250601f1984168b5b8a828210613582575050908460019594939210613569575b505050811b01905561335e565b015160001960f88460031b161c1916905538808061355c565b6001859682939686015181550195019301613544565b909150838a52878a20601f840160051c8101918985106135dc575b90601f859493920160051c01905b8181106135ce5750613334565b8b81558493506001016135c1565b90915081906135b3565b0151905038806132f0565b848b52888b209250601f1984168b5b8a82821061363e575050908460019594939210613625575b505050811b019055613305565b015160001960f88460031b161c19169055388080613618565b6001859682939686015181550195019301613600565b909150838a52878a20601f840160051c810191898510613698575b90601f859493920160051c01905b81811061368a57506132db565b8b815584935060010161367d565b909150819061366f565b015190503880613298565b848a52878a209250601f1984168a5b898282106136fa5750509084600195949392106136e1575b505050811b0181556132ad565b015160001960f88460031b161c191690553880806136d4565b60018596829396860151815501950193016136bc565b909150838952868920601f840160051c810191888510613754575b90601f859493920160051c01905b8181106137465750613283565b8a8155849350600101613739565b909150819061372b565b634e487b7160e01b86526004869052602486fd5b634e487b7160e01b86526041600452602486fd5b0151905038806131cc565b838b52888b209190601f1984168c5b8b8282106137e75750509260019285926132369a999896600b9896106137ce575b505050811b0190556131e1565b015160001960f88460031b161c191690553880806137c1565b60018596829396860151815501950193016137a0565b838b52888b20601f840160051c8101918a8510613836575b601f0160051c01905b81811061382b57506131aa565b8b815560010161381e565b9091508190613815565b015190503880613143565b848d528a8d209250601f1984168d5b8c82821061389857505090846001959493921061387f575b505050811b019055613158565b015160001960f88460031b161c19169055388080613872565b600185968293968601518155019501930161385a565b909150838c52898c20601f840160051c8101918b85106138f2575b90601f859493920160051c01905b8181106138e4575061312e565b8d81558493506001016138d7565b90915081906138c9565b0151905038806130e9565b848d528a8d209250601f1984168d5b8c82821061395457505090846001959493921061393b575b505050811b0190556130fe565b015160001960f88460031b161c1916905538808061392e565b6001859682939686015181550195019301613916565b909150838c52898c20601f840160051c8101918b85106139ae575b90601f859493920160051c01905b8181106139a057506130d4565b8d8155849350600101613993565b9091508190613985565b01519050388061306b565b8581528c81209350601f198516905b8d828210613a105750509084600195949392106139f7575b505050811b019055613080565b015160001960f88460031b161c191690553880806139ea565b60018596829396860151815501950193016139d2565b909150838d528a8d20601f840160051c8101918c8510613a6d575b849392918f91601f0160051c0191905b828210613a5f575050613056565b81558493506001018e613a51565b9091508190613a41565b015190503880612fee565b848d528a8d209250601f1984168d5b8c828210613acf575050908460019594939210613ab6575b505050811b019055613003565b015160001960f88460031b161c19169055388080613aa9565b6001859682939686015181550195019301613a91565b909150838c52898c20601f840160051c8101918b8510613b29575b90601f859493920160051c01905b818110613b1b5750612fd9565b8d8155849350600101613b0e565b9091508190613b00565b015190503880612f99565b868d528a8d209250601f1984168d5b8c828210613b8b575050908460019594939210613b72575b505050811b018355612fae565b015160001960f88460031b161c19169055388080613b65565b6001859682939686015181550195019301613b4d565b909150858c52898c20601f840160051c8101918b8510613be5575b90601f859493920160051c01905b818110613bd75750612f84565b8d8155849350600101613bca565b9091508190613bbc565b60405162461bcd60e51b815260206004820152601660248201527543444f4220494420616c72656164792065786973747360501b6044820152606490fd5b60405162461bcd60e51b815260206004820152601d60248201527f416363657373207265737472696374656420746f2050424620726f6c650000006044820152606490fd5b613c8b915060203d6020116121c7576121b981836152d7565b38612ea6565b50346101c45760203660031901126101c457600435906001600160401b0382116101c457613d1d613cca60206103303660048701615313565b81016001815203019020613cdd81615585565b9061013b613d39613cf060018401615585565b92613d2b60ff600b613d0460028501615742565b930154169460405197889760808952608089019061564c565b90878203602089015261564c565b9085820360408701526157d2565b916060840190615823565b50346101c45760203660031901126101c457600435906004548210156101c457613dcc613d70836154fa565b50613d7a81615585565b90613d8760018201615585565b60ff613df6613d9860028501615585565b93613de86004613daa60038401615585565b92015495613dda858860081c16966040519a8b9a60c08c5260c08c019061564c565b908a820360208c015261564c565b9088820360408a015261564c565b90868203606088015261564c565b92166080840152613e0681615671565b60a08301520390f35b50346101c457613e1e36615440565b906044602060018060a01b03855416604051928380926395a8c58d60e01b82523360048301528860248301525afa908115612b0e578491614b77575b5015614b2857613e6d610b328251615691565b614ae9576020810151613e8860408301918251903390615cbe565b91613e9f602093610b81604051612eeb87826152d7565b60ff825195169460098610156121f75760405190613ebc82615255565b815260405191613ecc86846152d7565b878352858201928352604082019081526060820192613eeb8885615a16565b613ef58551615691565b92518051906001600160401b038211611dcb578190613f14865461554b565b601f8111614a9b575b508990601f8311600114614a38578c92614a2d575b50508160011b916000199060031b1c19161783555b51805160018401916001600160401b038211611dcb578190613f69845461554b565b601f81116149df575b508990601f831160011461497c578c92614971575b50508160011b916000199060031b1c19161790555b51613fab8151610c8781615671565b8086015160038301556040810151600483015560608101518051805160058501916001600160401b038211611f74578190613fe6845461554b565b601f8111614920575b508a908d601f84116001146148bd57926148b2575b50508160011b916000199060031b1c19161790555b808701516006840180546001600160a01b0319166001600160a01b039290921691909117905560400151805160078401916001600160401b038211611dcb578190614064845461554b565b601f8111614864575b508990601f8311600114614801578c926147f6575b50508160011b916000199060031b1c19161790555b608001518051805160088401916001600160401b038211611dcb5781906140be845461554b565b601f81116147a8575b508990601f8311600114614745578c9261473a575b50508160011b916000199060031b1c19161790555b808601516009830180546001600160a01b0319166001600160a01b0392909216919091179055604001518051600a8301916001600160401b0382116115075761413a835461554b565b601f81116146f7575b508790601f831160011461469057600b949392918b9183614685575b50508160011b916000199060031b1c19161790555b01905160098110156121f757906141ae929160ff80198354169116179055518483516040516141a387826152d7565b888152613230615a22565b600454600160401b811015613772578060016141cf9201600455600461552f565b61375e5781518051906001600160401b0382116115b75781906141f2845461554b565b601f8111614637575b508690601f83116001146145d45789926145c9575b50508160011b916000199060031b1c19161781555b60018101848301518051906001600160401b03821161169557819061424a845461554b565b601f811161457b575b508790601f8311600114614518578a9261450d575b50508160011b916000199060031b1c19161790555b6002810160408301518051906001600160401b0382116116955781906142a3845461554b565b601f81116144bf575b508790601f831160011461445c578a92614451575b50508160011b916000199060031b1c19161790555b6003810160608301518051906001600160401b038211611695576142fa835461554b565b601f811161440e575b50869089601f84116001146143a35761439795600080516020615dd08339815191529a989585614371966143879c9a9660a096600496926134485750508160011b916000199060031b1c1916179055019160ff60808201511660ff198454161783550151906110b582615671565b519260405194859460808652608086019061564c565b9233908501526040840190615823565b4260608301520390a180f35b50838a52878a209190601f1984168b5b8181106143f7575095600080516020615dd08339815191529a98956001866143879c9a9660a0966004966143719a6143979d106134b757505050811b019055611096565b92938a6001819287860151815501950193016143b3565b838a52878a20601f840160051c810191898510614447575b601f0160051c01905b81811061443c5750614303565b8a815560010161442f565b9091508190614426565b0151905038806142c1565b848b52888b209250601f1984168b5b8a8282106144a9575050908460019594939210614490575b505050811b0190556142d6565b015160001960f88460031b161c19169055388080614483565b600185968293968601518155019501930161446b565b909150838a52878a20601f840160051c810191898510614503575b90601f859493920160051c01905b8181106144f557506142ac565b8b81558493506001016144e8565b90915081906144da565b015190503880614268565b848b52888b209250601f1984168b5b8a82821061456557505090846001959493921061454c575b505050811b01905561427d565b015160001960f88460031b161c1916905538808061453f565b6001859682939686015181550195019301614527565b909150838a52878a20601f840160051c8101918985106145bf575b90601f859493920160051c01905b8181106145b15750614253565b8b81558493506001016145a4565b9091508190614596565b015190503880614210565b848a52878a209250601f1984168a5b89828210614621575050908460019594939210614608575b505050811b018155614225565b015160001960f88460031b161c191690553880806145fb565b60018596829396860151815501950193016145e3565b909150838952868920601f840160051c81019188851061467b575b90601f859493920160051c01905b81811061466d57506141fb565b8a8155849350600101614660565b9091508190614652565b01519050388061415f565b838b52888b209190601f1984168c5b8b8282106146e1575050916001939185600b98979694106146c8575b505050811b019055614174565b015160001960f88460031b161c191690553880806146bb565b600185968293968601518155019501930161469f565b838b52888b20601f840160051c8101918a8510614730575b601f0160051c01905b8181106147255750614143565b8b8155600101614718565b909150819061470f565b0151905038806140dc565b848d528a8d209250601f1984168d5b8c828210614792575050908460019594939210614779575b505050811b0190556140f1565b015160001960f88460031b161c1916905538808061476c565b6001859682939686015181550195019301614754565b909150838c52898c20601f840160051c8101918b85106147ec575b90601f859493920160051c01905b8181106147de57506140c7565b8d81558493506001016147d1565b90915081906147c3565b015190503880614082565b848d528a8d209250601f1984168d5b8c82821061484e575050908460019594939210614835575b505050811b019055614097565b015160001960f88460031b161c19169055388080614828565b6001859682939686015181550195019301614810565b909150838c52898c20601f840160051c8101918b85106148a8575b90601f859493920160051c01905b81811061489a575061406d565b8d815584935060010161488d565b909150819061487f565b015190503880614004565b8581528c81209350601f198516905b8d82821061490a5750509084600195949392106148f1575b505050811b019055614019565b015160001960f88460031b161c191690553880806148e4565b60018596829396860151815501950193016148cc565b909150838d528a8d20601f840160051c8101918c8510614967575b849392918f91601f0160051c0191905b828210614959575050613fef565b81558493506001018e61494b565b909150819061493b565b015190503880613f87565b848d528a8d209250601f1984168d5b8c8282106149c95750509084600195949392106149b0575b505050811b019055613f9c565b015160001960f88460031b161c191690553880806149a3565b600185968293968601518155019501930161498b565b909150838c52898c20601f840160051c8101918b8510614a23575b90601f859493920160051c01905b818110614a155750613f72565b8d8155849350600101614a08565b90915081906149fa565b015190503880613f32565b868d528a8d209250601f1984168d5b8c828210614a85575050908460019594939210614a6c575b505050811b018355613f47565b015160001960f88460031b161c19169055388080614a5f565b6001859682939686015181550195019301614a47565b909150858c52898c20601f840160051c8101918b8510614adf575b90601f859493920160051c01905b818110614ad15750613f1d565b8d8155849350600101614ac4565b9091508190614ab6565b60405162461bcd60e51b815260206004820152601760248201527643504f544220494420616c72656164792065786973747360481b6044820152606490fd5b60405162461bcd60e51b815260206004820152602160248201527f416363657373207265737472696374656420746f20466163746f727920726f6c6044820152606560f81b6064820152608490fd5b614b90915060203d6020116121c7576121b981836152d7565b38613e5a565b50346101c457614ba53661535f565b9060208101614bb48151615691565b92614bbf845461554b565b1561521e57600284019360ff855416614bd781615671565b6151da57604084015194614bf360608601968751903390615cbe565b6008830181518051906001600160401b038211611dcb578190614c16845461554b565b601f811161518a575b50602090601f8311600114615127578c9261511c575b50508160011b916000199060031b1c19161790555b60208101516009840180546001600160a01b0319166001600160a01b0392909216919091179055604001518051600a8401916001600160401b038211611507578190614c96845461554b565b601f81116150cc575b50602090601f8311600114615069578b9261505e575b50508160011b916000199060031b1c19161790555b600160ff19825416179055426004820155835160018201908051906001600160401b03821161169557614cfd835461554b565b601f8111615019575b5060209089601f8411600114614fa95793836113199460079460ff9894614d479892614f9e575b50508160011b916000199060031b1c191617905501615585565b9116906009821015614f8a57805490600160401b821015614f765790614d7291600182018155615830565b81549060031b9060ff84831b921b1916179055845b600454811015614f2057614d9a816154fa565b50604051614db081610165602082018095615971565b5190208351604051614dd26020828161234c8183019687815193849201615629565b51902014614de3575b600101614d87565b83516001614df0836154fa565b5001908051906001600160401b03821161169557614e0e835461554b565b601f8111614edb575b50602090601f8311600114614e74576001949392918a9183614e69575b5050600019600383901b1c191690841b1790555b6004614e53826154fa565b5001805461ff0019166101001790559050614ddb565b015190503880614e34565b838a52818a209190601f1984168b5b818110614ec3575091600196959492918388959310614eaa575b505050811b019055614e48565b015160001960f88460031b161c19169055388080614e9d565b92936020600181928786015181550195019301614e83565b838a5260208a20601f840160051c81019160208510614f16575b601f0160051c01905b818110614f0b5750614e17565b8a8155600101614efe565b9091508190614ef5565b857f5f0795f9828e754b342c66dc560f8879d7982ca16fbeb97634e54f75bd39bfd7614f65866127e9868a51925161159960405195869560a0875260a087019061564c565b923360208701526040860190615823565b634e487b7160e01b87526041600452602487fd5b634e487b7160e01b86526021600452602486fd5b015190503880614d2d565b50838a52818a209190601f1984168b5b81811061500157508460079460ff9894614d4798946113199860019510614fe8575b505050811b019055611313565b015160001960f88460031b161c19169055388080614fdb565b92936020600181928786015181550195019301614fb9565b838a5260208a20601f840160051c81019160208510615054575b601f0160051c01905b8181106150495750614d06565b8a815560010161503c565b9091508190615033565b015190503880614cb5565b848c52818c209250601f1984168c5b8181106150b4575090846001959493921061509b575b505050811b019055614cca565b015160001960f88460031b161c1916905538808061508e565b92936020600181928786015181550195019301615078565b909150838b5260208b20601f840160051c81019160208510615112575b90601f859493920160051c01905b8181106151045750614c9f565b8c81558493506001016150f7565b90915081906150e9565b015190503880614c35565b848d52818d209250601f1984168d5b8181106151725750908460019594939210615159575b505050811b019055614c4a565b015160001960f88460031b161c1916905538808061514c565b92936020600181928786015181550195019301615136565b909150838c5260208c20601f840160051c810191602085106151d0575b90601f859493920160051c01905b8181106151c25750614c1f565b8d81558493506001016151b5565b90915081906151a7565b606460405162461bcd60e51b815260206004820152602060248201527f43504f544220737461747573206d7573742062652027526571756573746564276044820152fd5b60405162461bcd60e51b815260206004820152600f60248201526e10d413d510881b9bdd08199bdd5b99608a1b6044820152606490fd5b608081019081106001600160401b0382111761527057604052565b634e487b7160e01b600052604160045260246000fd5b606081019081106001600160401b0382111761527057604052565b60a081019081106001600160401b0382111761527057604052565b60c081019081106001600160401b0382111761527057604052565b90601f801991011681019081106001600160401b0382111761527057604052565b6001600160401b03811161527057601f01601f191660200190565b81601f8201121561535a5780359061532a826152f8565b9261533860405194856152d7565b8284526020838301011161535a57816000926020809301838601378301015290565b600080fd5b604060031982011261535a576004356001600160401b03811161535a576080818303600319011261535a576040519161539783615255565b81600401356001600160401b03811161535a578160046153b992850101615313565b835260248201356001600160401b03811161535a578160046153dd92850101615313565b602084015260448201356001600160401b03811161535a5781600461540492850101615313565b60408401526064820135916001600160401b03831161535a5761542a9201600401615313565b60608201529060243560ff8116810361535a5790565b604060031982011261535a576004356001600160401b03811161535a576060818303600319011261535a576040519161547883615286565b81600401356001600160401b03811161535a5781600461549a92850101615313565b835260248201356001600160401b03811161535a578160046154be92850101615313565b60208401526044820135916001600160401b03831161535a576154e49201600401615313565b60408201529060243560ff8116810361535a5790565b6004548110156155195760046000526005602060002091020190600090565b634e487b7160e01b600052603260045260246000fd5b8054821015615519576000526005602060002091020190600090565b90600182811c9216801561557b575b602083101461556557565b634e487b7160e01b600052602260045260246000fd5b91607f169161555a565b90604051918260008254926155998461554b565b808452936001811690811561560757506001146155c0575b506155be925003836152d7565b565b90506000929192526020600020906000915b8183106155eb5750509060206155be92820101386155b1565b60209193508060019154838589010152019101909184926155d2565b9050602092506155be94915060ff191682840152151560051b820101386155b1565b60005b83811061563c5750506000910152565b818101518382015260200161562c565b9060209161566581518092818552858086019101615629565b601f01601f1916010190565b6002111561567b57565b634e487b7160e01b600052602160045260246000fd5b60206156aa918160405193828580945193849201615629565b8101600181520301902090565b60206156d0918160405193828580945193849201615629565b8101600281520301902090565b60206156f6918160405193828580945193849201615629565b8101600381520301902090565b9060405161571081615286565b604061573d6002839561572281615585565b855260018101546001600160a01b0316602086015201615585565b910152565b9060405161574f816152a1565b608061573d6006839560ff81541661576681615671565b8552600181015460208601526002810154604086015261578860038201615703565b606086015201615703565b6157cf9160406157ac835160608452606084019061564c565b9260018060a01b036020820151166020840152015190604081840391015261564c565b90565b6157cf9181516157e181615671565b815260208201516020820152604082015160408201526080615812606084015160a0606085015260a0840190615793565b920151906080818403910152615793565b90600982101561567b5752565b919091805483101561551957600052601f60206000208360051c01921690565b602081016020825282518091526040820191602060408360051b8301019401926000915b83831061588357505050505090565b9091929394602080600192603f1985820301865288519060a0806158ed6158db6158c96158b9875160c0885260c088019061564c565b888801518782038a89015261564c565b6040870151868203604088015261564c565b6060860151858203606087015261564c565b9360ff608082015116608085015201519161590783615671565b015297019301930191939290615874565b926159529061594460609460ff9498979860018060a01b0316875260806020880152608087019061564c565b90858203604087015261564c565b9416910152565b9061596381615671565b60ff80198354169116179055565b600092918154916159818361554b565b92600181169081156159cc575060011461599a57505050565b909192935060005260206000206000905b8382106159b85750500190565b6001816020925484860152019101906159ab565b60ff191683525050811515909102019150565b906159e981615671565b61ff0082549160081b169061ff001916179055565b9081602091031261535a5751801515810361535a5790565b600982101561567b5752565b60405190615a316040836152d7565b600582526431b837ba3160d91b6020830152565b60405190615a546040836152d7565b600482526331b237b160e11b6020830152565b60405190615a7482615286565b6060604083828152600060208201520152565b60405190615a94826152a1565b81600081526000602082015260006040820152615aaf615a67565b6060820152608061573d615a67565b60405190615acb82615255565b6000606083818152816020820152615ae1615a87565b60408201520152565b6001600160401b0381116152705760051b60200190565b60405190615b0e826152bc565b600060a0836060815260606020820152606060408201526060808201528260808201520152565b90615b3f82615aea565b615b4c60405191826152d7565b8281528092615b5d601f1991615aea565b019060005b828110615b6e57505050565b602090615b79615b01565b82828501015201615b62565b80518210156155195760209160051b010190565b90604051615ba6816152bc565b60a060ff60048395615bb781615585565b8552615bc560018201615585565b6020860152615bd660028201615585565b6040860152615be760038201615585565b60608601520154818116608085015260081c1691615c0483615671565b0152565b60ff1660ff8114615c195760010190565b634e487b7160e01b600052601160045260246000fd5b60405190615c3e6040836152d7565b600782526630b0bab4321c3560c91b6020830152565b81601f8201121561535a578051615c6a816152f8565b92615c7860405194856152d7565b8184526020828401011161535a576157cf9160208085019101615629565b90615c9f615a67565b5060405191615cad83615286565b825260006020830152604082015290565b9190615cc8615a67565b5060405192615cd684615286565b83526001600160a01b03166020830152604082015290565b90615cf7615a87565b5060405191615d05836152a1565b60008352426020840152600060408401526060830152608082015290565b93909160ff9392615d32615b01565b5060405195615d40876152bc565b8652602086015260408501526060840152166080820152600060a082015290565b600090604051615d816020828161234c8183019687815193849201615629565b5190206004549060005b828110615d985750505090565b816003610165615daa610151856154fa565b51902014615dbb575b600101615d8b565b92615dc7600191615c08565b939050615db356fe99dcabd81899d5894d4391d9586c557b10a0d34a881adfc4769ad41e9166cda0a2646970667358221220ee44ed27e13a8c642d072d3de760dad275d74dc438d2dd47e6d8cd99d7a8154c64736f6c634300081b0033","opcodes":"PUSH1 0x80 CALLVALUE PUSH1 0x70 JUMPI PUSH1 0x1F PUSH2 0x5EB1 CODESIZE DUP2 SWAP1 SUB SWAP2 DUP3 ADD PUSH1 0x1F NOT AND DUP4 ADD SWAP2 PUSH1 0x1 PUSH1 0x1 PUSH1 0x40 SHL SUB DUP4 GT DUP5 DUP5 LT OR PUSH1 0x75 JUMPI DUP1 DUP5 SWAP3 PUSH1 0x20 SWAP5 PUSH1 0x40 MSTORE DUP4 CODECOPY DUP2 ADD SUB SLT PUSH1 0x70 JUMPI MLOAD PUSH1 0x1 PUSH1 0x1 PUSH1 0xA0 SHL SUB DUP2 AND SWAP1 DUP2 SWAP1 SUB PUSH1 0x70 JUMPI PUSH1 0x0 DUP1 SLOAD PUSH1 0x1 PUSH1 0x1 PUSH1 0xA0 SHL SUB NOT AND SWAP2 SWAP1 SWAP2 OR SWAP1 SSTORE PUSH1 0x40 MLOAD PUSH2 0x5E25 SWAP1 DUP2 PUSH2 0x8C DUP3 CODECOPY RETURN JUMPDEST PUSH1 0x0 DUP1 REVERT JUMPDEST PUSH4 0x4E487B71 PUSH1 0xE0 SHL PUSH1 0x0 MSTORE PUSH1 0x41 PUSH1 0x4 MSTORE PUSH1 0x24 PUSH1 0x0 REVERT INVALID PUSH1 0xC0 PUSH1 0x40 MSTORE PUSH1 0x4 CALLDATASIZE LT ISZERO PUSH2 0x12 JUMPI PUSH1 0x0 DUP1 REVERT JUMPDEST PUSH1 0x0 DUP1 CALLDATALOAD PUSH1 0xE0 SHR DUP1 PUSH4 0x2592E511 EQ PUSH2 0x4B96 JUMPI DUP1 PUSH4 0x387BB30E EQ PUSH2 0x3E0F JUMPI DUP1 PUSH4 0x4C3BA6FD EQ PUSH2 0x3D44 JUMPI DUP1 PUSH4 0x6AA81299 EQ PUSH2 0x3C91 JUMPI DUP1 PUSH4 0x6D2A362F EQ PUSH2 0x2E54 JUMPI DUP1 PUSH4 0x6F8E6197 EQ PUSH2 0x2D64 JUMPI DUP1 PUSH4 0x711255AF EQ PUSH2 0x2C51 JUMPI DUP1 PUSH4 0x72C17CB9 EQ PUSH2 0x2B99 JUMPI DUP1 PUSH4 0x7EE90DED EQ PUSH2 0x2B19 JUMPI DUP1 PUSH4 0x950D4D74 EQ PUSH2 0x23F8 JUMPI DUP1 PUSH4 0xA814A60F EQ PUSH2 0x22B3 JUMPI DUP1 PUSH4 0xCEC1FC1E EQ PUSH2 0x2213 JUMPI DUP1 PUSH4 0xD1233672 EQ PUSH2 0x93F JUMPI DUP1 PUSH4 0xE49D0327 EQ PUSH2 0x2FA JUMPI DUP1 PUSH4 0xE54A29BB EQ PUSH2 0x1C7 JUMPI PUSH4 0xEC176587 EQ PUSH2 0xCD JUMPI PUSH1 0x0 DUP1 REVERT JUMPDEST CALLVALUE PUSH2 0x1C4 JUMPI DUP1 PUSH1 0x3 NOT CALLDATASIZE ADD SLT PUSH2 0x1C4 JUMPI PUSH2 0xED PUSH2 0xE8 PUSH2 0x5A22 JUMP JUMPDEST PUSH2 0x5D61 JUMP JUMPDEST PUSH2 0x11E PUSH1 0xFF PUSH1 0x40 MLOAD PUSH1 0x20 DUP2 ADD SWAP1 PUSH5 0x31B837BA31 PUSH1 0xD9 SHL DUP3 MSTORE PUSH1 0x5 DUP2 MSTORE PUSH2 0x114 PUSH1 0x25 DUP3 PUSH2 0x52D7 JUMP JUMPDEST MLOAD SWAP1 KECCAK256 SWAP3 AND PUSH2 0x5B35 JUMP JUMPDEST SWAP2 DUP1 SWAP2 PUSH1 0x4 SLOAD SWAP3 JUMPDEST DUP4 DUP2 LT PUSH2 0x13F JUMPI PUSH1 0x40 MLOAD DUP1 PUSH2 0x13B DUP8 DUP3 PUSH2 0x5850 JUMP JUMPDEST SUB SWAP1 RETURN JUMPDEST DUP2 PUSH1 0x3 PUSH2 0x165 PUSH2 0x173 PUSH2 0x151 DUP6 PUSH2 0x54FA JUMP JUMPDEST POP PUSH1 0x40 MLOAD SWAP3 DUP4 SWAP2 PUSH1 0x20 DUP4 ADD SWAP6 DUP7 SWAP2 ADD PUSH2 0x5971 JUMP JUMPDEST SUB PUSH1 0x1F NOT DUP2 ADD DUP4 MSTORE DUP3 PUSH2 0x52D7 JUMP JUMPDEST MLOAD SWAP1 KECCAK256 EQ PUSH2 0x184 JUMPI JUMPDEST PUSH1 0x1 ADD PUSH2 0x126 JUMP JUMPDEST SWAP2 PUSH2 0x1BC PUSH1 0x1 SWAP2 PUSH2 0x1B6 PUSH2 0x1A0 PUSH2 0x19A DUP8 PUSH2 0x54FA JUMP JUMPDEST POP PUSH2 0x5B99 JUMP JUMPDEST PUSH1 0xFF DUP4 AND SWAP1 PUSH2 0x1AF DUP3 DUP12 PUSH2 0x5B85 JUMP JUMPDEST MSTORE DUP9 PUSH2 0x5B85 JUMP JUMPDEST POP PUSH2 0x5C08 JUMP JUMPDEST SWAP3 SWAP1 POP PUSH2 0x17C JUMP JUMPDEST DUP1 REVERT JUMPDEST POP CALLVALUE PUSH2 0x1C4 JUMPI PUSH1 0x20 CALLDATASIZE PUSH1 0x3 NOT ADD SLT PUSH2 0x1C4 JUMPI PUSH1 0x4 CALLDATALOAD PUSH1 0x1 PUSH1 0x1 PUSH1 0xA0 SHL SUB DUP2 AND SWAP1 DUP2 SWAP1 SUB PUSH2 0x2EB JUMPI DUP2 SLOAD PUSH1 0x40 MLOAD PUSH4 0xE54A29BB PUSH1 0xE0 SHL DUP2 MSTORE PUSH1 0x4 DUP2 ADD SWAP3 SWAP1 SWAP3 MSTORE DUP3 SWAP1 DUP3 SWAP1 PUSH1 0x24 SWAP1 DUP3 SWAP1 PUSH1 0x1 PUSH1 0x1 PUSH1 0xA0 SHL SUB AND GAS STATICCALL DUP1 ISZERO PUSH2 0x2EF JUMPI DUP3 DUP1 DUP1 SWAP4 DUP2 SWAP4 PUSH2 0x25A JUMPI JUMPDEST POP PUSH1 0x4 DUP4 LT ISZERO PUSH2 0x246 JUMPI POP SWAP1 PUSH2 0x13B SWAP2 PUSH1 0x40 MLOAD SWAP5 DUP6 SWAP5 DUP6 PUSH2 0x5918 JUMP JUMPDEST PUSH4 0x4E487B71 PUSH1 0xE0 SHL DUP2 MSTORE PUSH1 0x21 PUSH1 0x4 MSTORE PUSH1 0x24 SWAP1 REVERT JUMPDEST SWAP5 POP SWAP3 POP POP POP RETURNDATASIZE DUP1 DUP3 DUP5 RETURNDATACOPY PUSH2 0x26F DUP2 DUP5 PUSH2 0x52D7 JUMP JUMPDEST DUP3 ADD SWAP1 PUSH1 0x80 DUP4 DUP4 SUB SLT PUSH2 0x1C4 JUMPI DUP3 MLOAD PUSH1 0x1 PUSH1 0x1 PUSH1 0x40 SHL SUB DUP2 GT PUSH2 0x2EB JUMPI DUP3 PUSH2 0x298 SWAP2 DUP6 ADD PUSH2 0x5C54 JUMP JUMPDEST SWAP2 PUSH1 0x20 DUP5 ADD MLOAD PUSH1 0x1 PUSH1 0x1 PUSH1 0x40 SHL SUB DUP2 GT PUSH2 0x2E7 JUMPI SWAP1 PUSH2 0x2B8 SWAP2 DUP6 ADD PUSH2 0x5C54 JUMP JUMPDEST PUSH1 0x40 DUP5 ADD MLOAD SWAP1 SWAP4 PUSH1 0x1 PUSH1 0x1 PUSH1 0xA0 SHL SUB DUP3 AND DUP3 SUB PUSH2 0x2E7 JUMPI PUSH1 0x60 ADD MLOAD SWAP3 PUSH1 0x4 DUP5 LT ISZERO PUSH2 0x2E7 JUMPI SWAP4 SWAP1 SWAP3 SWAP2 CODESIZE PUSH2 0x22A JUMP JUMPDEST DUP3 DUP1 REVERT JUMPDEST POP DUP1 REVERT JUMPDEST PUSH1 0x40 MLOAD RETURNDATASIZE DUP5 DUP3 RETURNDATACOPY RETURNDATASIZE SWAP1 REVERT JUMPDEST POP CALLVALUE PUSH2 0x1C4 JUMPI PUSH1 0x20 CALLDATASIZE PUSH1 0x3 NOT ADD SLT PUSH2 0x1C4 JUMPI PUSH1 0x4 CALLDATALOAD PUSH1 0x1 PUSH1 0x1 PUSH1 0x40 SHL SUB DUP2 GT PUSH2 0x2EB JUMPI PUSH1 0x20 PUSH2 0x330 PUSH2 0x343 SWAP3 CALLDATASIZE SWAP1 PUSH1 0x4 ADD PUSH2 0x5313 JUMP JUMPDEST DUP2 PUSH1 0x40 MLOAD SWAP4 DUP3 DUP6 DUP1 SWAP5 MLOAD SWAP4 DUP5 SWAP3 ADD PUSH2 0x5629 JUMP JUMPDEST DUP2 ADD PUSH1 0x3 DUP2 MSTORE SUB ADD SWAP1 KECCAK256 PUSH1 0x40 MLOAD DUP1 DUP2 PUSH1 0x20 DUP5 SLOAD SWAP3 DUP4 DUP2 MSTORE ADD DUP1 SWAP5 DUP7 MSTORE PUSH1 0x20 DUP7 KECCAK256 SWAP3 DUP7 SWAP1 JUMPDEST DUP1 PUSH1 0x1F DUP4 ADD LT PUSH2 0x797 JUMPI PUSH2 0x480 SWAP5 SLOAD SWAP2 DUP2 DUP2 LT PUSH2 0x783 JUMPI JUMPDEST DUP2 DUP2 LT PUSH2 0x76C JUMPI JUMPDEST DUP2 DUP2 LT PUSH2 0x755 JUMPI JUMPDEST DUP2 DUP2 LT PUSH2 0x73E JUMPI JUMPDEST DUP2 DUP2 LT PUSH2 0x728 JUMPI JUMPDEST DUP2 DUP2 LT PUSH2 0x711 JUMPI JUMPDEST DUP2 DUP2 LT PUSH2 0x6FA JUMPI JUMPDEST DUP2 DUP2 LT PUSH2 0x6E3 JUMPI JUMPDEST DUP2 DUP2 LT PUSH2 0x6CC JUMPI JUMPDEST DUP2 DUP2 LT PUSH2 0x6B5 JUMPI JUMPDEST DUP2 DUP2 LT PUSH2 0x69E JUMPI JUMPDEST DUP2 DUP2 LT PUSH2 0x687 JUMPI JUMPDEST DUP2 DUP2 LT PUSH2 0x670 JUMPI JUMPDEST DUP2 DUP2 LT PUSH2 0x659 JUMPI JUMPDEST DUP2 DUP2 LT PUSH2 0x642 JUMPI JUMPDEST DUP2 DUP2 LT PUSH2 0x62B JUMPI JUMPDEST DUP2 DUP2 LT PUSH2 0x614 JUMPI JUMPDEST DUP2 DUP2 LT PUSH2 0x5FD JUMPI JUMPDEST DUP2 DUP2 LT PUSH2 0x5E6 JUMPI JUMPDEST DUP2 DUP2 LT PUSH2 0x5CF JUMPI JUMPDEST DUP2 DUP2 LT PUSH2 0x5B8 JUMPI JUMPDEST DUP2 DUP2 LT PUSH2 0x5A1 JUMPI JUMPDEST DUP2 DUP2 LT PUSH2 0x58A JUMPI JUMPDEST DUP2 DUP2 LT PUSH2 0x573 JUMPI JUMPDEST DUP2 DUP2 LT PUSH2 0x55C JUMPI JUMPDEST DUP2 DUP2 LT PUSH2 0x545 JUMPI JUMPDEST DUP2 DUP2 LT PUSH2 0x52E JUMPI JUMPDEST DUP2 DUP2 LT PUSH2 0x517 JUMPI JUMPDEST DUP2 DUP2 LT PUSH2 0x500 JUMPI JUMPDEST DUP2 DUP2 LT PUSH2 0x4E9 JUMPI JUMPDEST DUP2 DUP2 LT PUSH2 0x4D2 JUMPI JUMPDEST LT PUSH2 0x4C4 JUMPI JUMPDEST POP SWAP4 SWAP3 SWAP4 SUB DUP4 PUSH2 0x52D7 JUMP JUMPDEST PUSH1 0x40 MLOAD SWAP3 DUP4 SWAP3 PUSH1 0x20 DUP5 ADD SWAP1 PUSH1 0x20 DUP6 MSTORE MLOAD DUP1 SWAP2 MSTORE PUSH1 0x40 DUP5 ADD SWAP3 SWAP2 JUMPDEST DUP2 DUP2 LT PUSH2 0x4A8 JUMPI POP POP POP SUB SWAP1 RETURN JUMPDEST DUP3 MLOAD PUSH1 0xFF AND DUP5 MSTORE DUP6 SWAP5 POP PUSH1 0x20 SWAP4 DUP5 ADD SWAP4 SWAP1 SWAP3 ADD SWAP2 PUSH1 0x1 ADD PUSH2 0x49A JUMP JUMPDEST PUSH1 0xF8 SHR DUP2 MSTORE PUSH1 0x20 ADD CODESIZE PUSH2 0x475 JUMP JUMPDEST SWAP3 PUSH1 0x20 PUSH1 0x1 SWAP2 PUSH1 0xFF DUP6 PUSH1 0xF0 SHR AND DUP2 MSTORE ADD SWAP4 ADD PUSH2 0x46F JUMP JUMPDEST SWAP3 PUSH1 0x20 PUSH1 0x1 SWAP2 PUSH1 0xFF DUP6 PUSH1 0xE8 SHR AND DUP2 MSTORE ADD SWAP4 ADD PUSH2 0x467 JUMP JUMPDEST SWAP3 PUSH1 0x20 PUSH1 0x1 SWAP2 PUSH1 0xFF DUP6 PUSH1 0xE0 SHR AND DUP2 MSTORE ADD SWAP4 ADD PUSH2 0x45F JUMP JUMPDEST SWAP3 PUSH1 0x20 PUSH1 0x1 SWAP2 PUSH1 0xFF DUP6 PUSH1 0xD8 SHR AND DUP2 MSTORE ADD SWAP4 ADD PUSH2 0x457 JUMP JUMPDEST SWAP3 PUSH1 0x20 PUSH1 0x1 SWAP2 PUSH1 0xFF DUP6 PUSH1 0xD0 SHR AND DUP2 MSTORE ADD SWAP4 ADD PUSH2 0x44F JUMP JUMPDEST SWAP3 PUSH1 0x20 PUSH1 0x1 SWAP2 PUSH1 0xFF DUP6 PUSH1 0xC8 SHR AND DUP2 MSTORE ADD SWAP4 ADD PUSH2 0x447 JUMP JUMPDEST SWAP3 PUSH1 0x20 PUSH1 0x1 SWAP2 PUSH1 0xFF DUP6 PUSH1 0xC0 SHR AND DUP2 MSTORE ADD SWAP4 ADD PUSH2 0x43F JUMP JUMPDEST SWAP3 PUSH1 0x20 PUSH1 0x1 SWAP2 PUSH1 0xFF DUP6 PUSH1 0xB8 SHR AND DUP2 MSTORE ADD SWAP4 ADD PUSH2 0x437 JUMP JUMPDEST SWAP3 PUSH1 0x20 PUSH1 0x1 SWAP2 PUSH1 0xFF DUP6 PUSH1 0xB0 SHR AND DUP2 MSTORE ADD SWAP4 ADD PUSH2 0x42F JUMP JUMPDEST SWAP3 PUSH1 0x20 PUSH1 0x1 SWAP2 PUSH1 0xFF DUP6 PUSH1 0xA8 SHR AND DUP2 MSTORE ADD SWAP4 ADD PUSH2 0x427 JUMP JUMPDEST SWAP3 PUSH1 0x20 PUSH1 0x1 SWAP2 PUSH1 0xFF DUP6 PUSH1 0xA0 SHR AND DUP2 MSTORE ADD SWAP4 ADD PUSH2 0x41F JUMP JUMPDEST SWAP3 PUSH1 0x20 PUSH1 0x1 SWAP2 PUSH1 0xFF DUP6 PUSH1 0x98 SHR AND DUP2 MSTORE ADD SWAP4 ADD PUSH2 0x417 JUMP JUMPDEST SWAP3 PUSH1 0x20 PUSH1 0x1 SWAP2 PUSH1 0xFF DUP6 PUSH1 0x90 SHR AND DUP2 MSTORE ADD SWAP4 ADD PUSH2 0x40F JUMP JUMPDEST SWAP3 PUSH1 0x20 PUSH1 0x1 SWAP2 PUSH1 0xFF DUP6 PUSH1 0x88 SHR AND DUP2 MSTORE ADD SWAP4 ADD PUSH2 0x407 JUMP JUMPDEST SWAP3 PUSH1 0x20 PUSH1 0x1 SWAP2 PUSH1 0xFF DUP6 PUSH1 0x80 SHR AND DUP2 MSTORE ADD SWAP4 ADD PUSH2 0x3FF JUMP JUMPDEST SWAP3 PUSH1 0x20 PUSH1 0x1 SWAP2 PUSH1 0xFF DUP6 PUSH1 0x78 SHR AND DUP2 MSTORE ADD SWAP4 ADD PUSH2 0x3F7 JUMP JUMPDEST SWAP3 PUSH1 0x20 PUSH1 0x1 SWAP2 PUSH1 0xFF DUP6 PUSH1 0x70 SHR AND DUP2 MSTORE ADD SWAP4 ADD PUSH2 0x3EF JUMP JUMPDEST SWAP3 PUSH1 0x20 PUSH1 0x1 SWAP2 PUSH1 0xFF DUP6 PUSH1 0x68 SHR AND DUP2 MSTORE ADD SWAP4 ADD PUSH2 0x3E7 JUMP JUMPDEST SWAP3 PUSH1 0x20 PUSH1 0x1 SWAP2 PUSH1 0xFF DUP6 PUSH1 0x60 SHR AND DUP2 MSTORE ADD SWAP4 ADD PUSH2 0x3DF JUMP JUMPDEST SWAP3 PUSH1 0x20 PUSH1 0x1 SWAP2 PUSH1 0xFF DUP6 PUSH1 0x58 SHR AND DUP2 MSTORE ADD SWAP4 ADD PUSH2 0x3D7 JUMP JUMPDEST SWAP3 PUSH1 0x20 PUSH1 0x1 SWAP2 PUSH1 0xFF DUP6 PUSH1 0x50 SHR AND DUP2 MSTORE ADD SWAP4 ADD PUSH2 0x3CF JUMP JUMPDEST SWAP3 PUSH1 0x20 PUSH1 0x1 SWAP2 PUSH1 0xFF DUP6 PUSH1 0x48 SHR AND DUP2 MSTORE ADD SWAP4 ADD PUSH2 0x3C7 JUMP JUMPDEST SWAP3 PUSH1 0x20 PUSH1 0x1 SWAP2 PUSH1 0xFF DUP6 PUSH1 0x40 SHR AND DUP2 MSTORE ADD SWAP4 ADD PUSH2 0x3BF JUMP JUMPDEST SWAP3 PUSH1 0x20 PUSH1 0x1 SWAP2 PUSH1 0xFF DUP6 PUSH1 0x38 SHR AND DUP2 MSTORE ADD SWAP4 ADD PUSH2 0x3B7 JUMP JUMPDEST SWAP3 PUSH1 0x20 PUSH1 0x1 SWAP2 PUSH1 0xFF DUP6 PUSH1 0x30 SHR AND DUP2 MSTORE ADD SWAP4 ADD PUSH2 0x3AF JUMP JUMPDEST SWAP3 PUSH1 0x20 PUSH1 0x1 SWAP2 PUSH1 0xFF DUP6 PUSH1 0x28 SHR AND DUP2 MSTORE ADD SWAP4 ADD PUSH2 0x3A7 JUMP JUMPDEST SWAP3 PUSH1 0x20 PUSH1 0x1 SWAP2 PUSH1 0xFF DUP6 DUP4 SHR AND DUP2 MSTORE ADD SWAP4 ADD PUSH2 0x39F JUMP JUMPDEST SWAP3 PUSH1 0x20 PUSH1 0x1 SWAP2 PUSH1 0xFF DUP6 PUSH1 0x18 SHR AND DUP2 MSTORE ADD SWAP4 ADD PUSH2 0x397 JUMP JUMPDEST SWAP3 PUSH1 0x20 PUSH1 0x1 SWAP2 PUSH1 0xFF DUP6 PUSH1 0x10 SHR AND DUP2 MSTORE ADD SWAP4 ADD PUSH2 0x38F JUMP JUMPDEST SWAP3 PUSH1 0x20 PUSH1 0x1 SWAP2 PUSH1 0xFF DUP6 PUSH1 0x8 SHR AND DUP2 MSTORE ADD SWAP4 ADD PUSH2 0x387 JUMP JUMPDEST SWAP3 PUSH1 0x20 PUSH1 0x1 SWAP2 PUSH1 0xFF DUP6 AND DUP2 MSTORE ADD SWAP4 ADD PUSH2 0x37F JUMP JUMPDEST SWAP2 PUSH1 0x20 SWAP2 SWAP4 POP PUSH2 0x400 PUSH1 0x1 SWAP2 DUP7 SLOAD PUSH1 0xFF DUP2 AND DUP3 MSTORE PUSH1 0xFF DUP2 PUSH1 0x8 SHR AND DUP6 DUP4 ADD MSTORE PUSH1 0xFF DUP2 PUSH1 0x10 SHR AND PUSH1 0x40 DUP4 ADD MSTORE PUSH1 0xFF DUP2 PUSH1 0x18 SHR AND PUSH1 0x60 DUP4 ADD MSTORE PUSH1 0xFF DUP2 DUP7 SHR AND PUSH1 0x80 DUP4 ADD MSTORE PUSH1 0xFF DUP2 PUSH1 0x28 SHR AND PUSH1 0xA0 DUP4 ADD MSTORE PUSH1 0xFF DUP2 PUSH1 0x30 SHR AND PUSH1 0xC0 DUP4 ADD MSTORE PUSH1 0xFF DUP2 PUSH1 0x38 SHR AND PUSH1 0xE0 DUP4 ADD MSTORE PUSH1 0xFF DUP2 PUSH1 0x40 SHR AND PUSH2 0x100 DUP4 ADD MSTORE PUSH1 0xFF DUP2 PUSH1 0x48 SHR AND PUSH2 0x120 DUP4 ADD MSTORE PUSH1 0xFF DUP2 PUSH1 0x50 SHR AND PUSH2 0x140 DUP4 ADD MSTORE PUSH1 0xFF DUP2 PUSH1 0x58 SHR AND PUSH2 0x160 DUP4 ADD MSTORE PUSH1 0xFF DUP2 PUSH1 0x60 SHR AND PUSH2 0x180 DUP4 ADD MSTORE PUSH1 0xFF DUP2 PUSH1 0x68 SHR AND PUSH2 0x1A0 DUP4 ADD MSTORE PUSH1 0xFF DUP2 PUSH1 0x70 SHR AND PUSH2 0x1C0 DUP4 ADD MSTORE PUSH1 0xFF DUP2 PUSH1 0x78 SHR AND PUSH2 0x1E0 DUP4 ADD MSTORE PUSH1 0xFF DUP2 PUSH1 0x80 SHR AND PUSH2 0x200 DUP4 ADD MSTORE PUSH1 0xFF DUP2 PUSH1 0x88 SHR AND PUSH2 0x220 DUP4 ADD MSTORE PUSH1 0xFF DUP2 PUSH1 0x90 SHR AND PUSH2 0x240 DUP4 ADD MSTORE PUSH1 0xFF DUP2 PUSH1 0x98 SHR AND PUSH2 0x260 DUP4 ADD MSTORE PUSH1 0xFF DUP2 PUSH1 0xA0 SHR AND PUSH2 0x280 DUP4 ADD MSTORE PUSH1 0xFF DUP2 PUSH1 0xA8 SHR AND PUSH2 0x2A0 DUP4 ADD MSTORE PUSH1 0xFF DUP2 PUSH1 0xB0 SHR AND PUSH2 0x2C0 DUP4 ADD MSTORE PUSH1 0xFF DUP2 PUSH1 0xB8 SHR AND PUSH2 0x2E0 DUP4 ADD MSTORE PUSH1 0xFF DUP2 PUSH1 0xC0 SHR AND PUSH2 0x300 DUP4 ADD MSTORE PUSH1 0xFF DUP2 PUSH1 0xC8 SHR AND PUSH2 0x320 DUP4 ADD MSTORE PUSH1 0xFF DUP2 PUSH1 0xD0 SHR AND PUSH2 0x340 DUP4 ADD MSTORE PUSH1 0xFF DUP2 PUSH1 0xD8 SHR AND PUSH2 0x360 DUP4 ADD MSTORE PUSH1 0xFF DUP2 PUSH1 0xE0 SHR AND PUSH2 0x380 DUP4 ADD MSTORE PUSH1 0xFF DUP2 PUSH1 0xE8 SHR AND PUSH2 0x3A0 DUP4 ADD MSTORE PUSH1 0xFF DUP2 PUSH1 0xF0 SHR AND PUSH2 0x3C0 DUP4 ADD MSTORE PUSH1 0xF8 SHR PUSH2 0x3E0 DUP3 ADD MSTORE ADD SWAP5 ADD SWAP3 ADD DUP5 SWAP3 SWAP4 SWAP2 PUSH2 0x367 JUMP JUMPDEST POP CALLVALUE PUSH2 0x1C4 JUMPI PUSH1 0x80 CALLDATASIZE PUSH1 0x3 NOT ADD SLT PUSH2 0x1C4 JUMPI PUSH1 0x4 CALLDATALOAD PUSH1 0x1 PUSH1 0x1 PUSH1 0x40 SHL SUB DUP2 GT PUSH2 0x2EB JUMPI PUSH2 0x970 SWAP1 CALLDATASIZE SWAP1 PUSH1 0x4 ADD PUSH2 0x5313 JUMP JUMPDEST PUSH1 0x24 CALLDATALOAD PUSH1 0x1 PUSH1 0x1 PUSH1 0x40 SHL SUB DUP2 GT PUSH2 0x2E7 JUMPI PUSH2 0x98F SWAP1 CALLDATASIZE SWAP1 PUSH1 0x4 ADD PUSH2 0x5313 JUMP JUMPDEST PUSH1 0x80 MSTORE PUSH1 0x44 CALLDATALOAD PUSH1 0x1 PUSH1 0x1 PUSH1 0xA0 SHL SUB DUP2 AND SWAP2 DUP3 DUP3 SUB PUSH2 0x220F JUMPI PUSH1 0x64 CALLDATALOAD SWAP3 PUSH1 0xFF DUP5 AND SWAP1 DUP2 DUP6 SUB PUSH2 0x220B JUMPI DUP6 SLOAD PUSH1 0x1 PUSH1 0x1 PUSH1 0xA0 SHL SUB AND SWAP1 PUSH1 0x4 DUP4 LT ISZERO PUSH2 0x21F7 JUMPI SWAP1 DUP7 SWAP2 DUP2 EXTCODESIZE ISZERO PUSH2 0x2E7 JUMPI DUP3 SWAP2 PUSH1 0x40 MLOAD DUP1 SWAP5 DUP2 DUP1 SWAP5 PUSH4 0x68919B39 PUSH1 0xE1 SHL DUP3 MSTORE PUSH1 0x80 PUSH1 0x4 DUP4 ADD MSTORE PUSH2 0xA15 PUSH2 0xA01 PUSH1 0x84 DUP5 ADD DUP13 PUSH2 0x564C JUMP JUMPDEST DUP4 DUP2 SUB PUSH1 0x3 NOT ADD PUSH1 0x24 DUP6 ADD MSTORE PUSH1 0x80 MLOAD PUSH2 0x564C JUMP JUMPDEST SWAP1 PUSH1 0x44 DUP4 ADD MSTORE DUP9 PUSH1 0x64 DUP4 ADD MSTORE SUB SWAP3 GAS CALL DUP1 ISZERO PUSH2 0x21EC JUMPI PUSH2 0x21D8 JUMPI JUMPDEST POP ISZERO PUSH2 0xA72 JUMPI JUMPDEST PUSH2 0xA6C PUSH32 0x93B86CF0A1D8E18E724E08D47F7248859DE317795BE109EC2495F6FC7445B4E9 SWAP4 PUSH1 0x40 MLOAD SWAP4 DUP5 SWAP4 PUSH1 0x80 MLOAD SWAP2 DUP6 PUSH2 0x5918 JUMP JUMPDEST SUB SWAP1 LOG1 DUP1 RETURN JUMPDEST SWAP1 PUSH1 0x40 MLOAD SWAP1 PUSH2 0xA80 DUP3 PUSH2 0x5286 JUMP JUMPDEST PUSH2 0xA88 PUSH2 0x5C2F JUMP JUMPDEST DUP3 MSTORE PUSH1 0x40 SWAP2 DUP3 MLOAD PUSH2 0xA99 DUP5 DUP3 PUSH2 0x52D7 JUMP JUMPDEST PUSH1 0xB DUP2 MSTORE PUSH11 0x54414B414B492059555941 PUSH1 0xA8 SHL PUSH1 0x20 DUP3 ADD MSTORE PUSH1 0x20 DUP3 ADD SWAP1 DUP2 MSTORE DUP4 MLOAD PUSH2 0xAC4 DUP6 DUP3 PUSH2 0x52D7 JUMP JUMPDEST PUSH1 0x10 DUP2 MSTORE PUSH16 0x50542E20427564692050656B65727469 PUSH1 0x80 SHL PUSH1 0x20 DUP3 ADD MSTORE DUP5 DUP4 ADD MSTORE PUSH1 0x44 PUSH1 0x20 PUSH1 0x1 DUP1 PUSH1 0xA0 SHL SUB DUP10 SLOAD AND DUP7 MLOAD SWAP3 DUP4 DUP1 SWAP3 PUSH4 0x95A8C58D PUSH1 0xE0 SHL DUP3 MSTORE CALLER PUSH1 0x4 DUP4 ADD MSTORE DUP13 PUSH1 0x24 DUP4 ADD MSTORE GAS STATICCALL SWAP1 DUP2 ISZERO PUSH2 0x21CE JUMPI DUP9 SWAP2 PUSH2 0x219F JUMPI JUMPDEST POP ISZERO PUSH2 0x2151 JUMPI PUSH2 0xB38 PUSH2 0xB32 DUP4 MLOAD PUSH2 0x5691 JUMP JUMPDEST SLOAD PUSH2 0x554B JUMP JUMPDEST PUSH2 0x2113 JUMPI PUSH2 0xB50 PUSH2 0xB87 SWAP2 MLOAD DUP6 DUP5 ADD MLOAD SWAP1 CALLER SWAP1 PUSH2 0x5CBE JUMP JUMPDEST PUSH1 0x20 PUSH1 0xA0 DUP2 SWAP1 MSTORE DUP6 MLOAD PUSH2 0xB81 SWAP2 PUSH2 0xB67 SWAP1 DUP3 PUSH2 0x52D7 JUMP JUMPDEST DUP10 DUP2 MSTORE DUP7 MLOAD SWAP1 PUSH2 0xB79 PUSH1 0xA0 MLOAD DUP4 PUSH2 0x52D7 JUMP JUMPDEST DUP11 DUP3 MSTORE PUSH2 0x5C96 JUMP JUMPDEST SWAP1 PUSH2 0x5CEE JUMP JUMPDEST DUP2 MLOAD SWAP1 DUP5 MLOAD SWAP2 PUSH2 0xB96 DUP4 PUSH2 0x5255 JUMP JUMPDEST DUP3 MSTORE DUP5 MLOAD PUSH2 0xBA6 PUSH1 0xA0 MLOAD DUP3 PUSH2 0x52D7 JUMP JUMPDEST DUP9 DUP2 MSTORE PUSH1 0xA0 MLOAD DUP4 ADD MSTORE DUP5 DUP3 ADD MSTORE DUP7 PUSH1 0x60 DUP3 ADD MSTORE PUSH2 0xBC3 DUP3 MLOAD PUSH2 0x5691 JUMP JUMPDEST DUP2 MLOAD DUP1 MLOAD SWAP1 PUSH1 0x1 PUSH1 0x1 PUSH1 0x40 SHL SUB DUP3 GT PUSH2 0x1507 JUMPI DUP2 SWAP1 PUSH2 0xBE2 DUP5 SLOAD PUSH2 0x554B JUMP JUMPDEST PUSH1 0x1F DUP2 GT PUSH2 0x20C3 JUMPI JUMPDEST POP PUSH1 0xA0 MLOAD SWAP1 PUSH1 0x1F DUP4 GT PUSH1 0x1 EQ PUSH2 0x205D JUMPI DUP12 SWAP3 PUSH2 0x2052 JUMPI JUMPDEST POP POP DUP2 PUSH1 0x1 SHL SWAP2 PUSH1 0x0 NOT SWAP1 PUSH1 0x3 SHL SHR NOT AND OR DUP2 SSTORE JUMPDEST PUSH1 0xA0 MLOAD DUP3 ADD MLOAD DUP1 MLOAD SWAP1 PUSH1 0x1 PUSH1 0x1 PUSH1 0x40 SHL SUB DUP3 GT PUSH2 0x1507 JUMPI DUP2 SWAP1 PUSH2 0xC3D PUSH1 0x1 DUP6 ADD SLOAD PUSH2 0x554B JUMP JUMPDEST PUSH1 0x1F DUP2 GT PUSH2 0x1FFF JUMPI JUMPDEST POP PUSH1 0xA0 MLOAD SWAP1 PUSH1 0x1F DUP4 GT PUSH1 0x1 EQ PUSH2 0x1F93 JUMPI DUP12 SWAP3 PUSH2 0x1F88 JUMPI JUMPDEST POP POP DUP2 PUSH1 0x1 SHL SWAP2 PUSH1 0x0 NOT SWAP1 PUSH1 0x3 SHL SHR NOT AND OR PUSH1 0x1 DUP3 ADD SSTORE JUMPDEST DUP5 DUP3 ADD MLOAD PUSH2 0xC90 DUP2 MLOAD PUSH2 0xC87 DUP2 PUSH2 0x5671 JUMP JUMPDEST PUSH1 0x2 DUP5 ADD PUSH2 0x5959 JUMP JUMPDEST PUSH1 0xA0 MLOAD DUP2 ADD MLOAD PUSH1 0x3 DUP4 ADD SSTORE DUP6 DUP2 ADD MLOAD PUSH1 0x4 DUP4 ADD SSTORE PUSH1 0x60 DUP2 ADD MLOAD DUP1 MLOAD DUP1 MLOAD SWAP1 PUSH1 0x1 PUSH1 0x1 PUSH1 0x40 SHL SUB DUP3 GT PUSH2 0x1F74 JUMPI SWAP1 DUP9 SWAP3 SWAP2 PUSH2 0xCCD PUSH1 0x5 DUP8 ADD SLOAD PUSH2 0x554B JUMP JUMPDEST PUSH1 0x1F DUP2 GT PUSH2 0x1F1C JUMPI JUMPDEST POP PUSH1 0xA0 MLOAD SWAP1 DUP14 PUSH1 0x1F DUP5 GT PUSH1 0x1 EQ PUSH2 0x1EAB JUMPI SWAP2 SWAP1 DUP4 PUSH2 0x1EA0 JUMPI JUMPDEST POP POP DUP2 PUSH1 0x1 SHL SWAP2 PUSH1 0x0 NOT SWAP1 PUSH1 0x3 SHL SHR NOT AND OR PUSH1 0x5 DUP6 ADD SSTORE JUMPDEST PUSH1 0x6 DUP5 ADD PUSH1 0x1 DUP1 PUSH1 0xA0 SHL SUB PUSH1 0xA0 MLOAD DUP4 ADD MLOAD AND PUSH1 0x1 PUSH1 0x1 PUSH1 0x60 SHL SUB PUSH1 0xA0 SHL DUP3 SLOAD AND OR SWAP1 SSTORE ADD MLOAD DUP1 MLOAD SWAP1 PUSH1 0x1 PUSH1 0x1 PUSH1 0x40 SHL SUB DUP3 GT PUSH2 0x1DCB JUMPI PUSH2 0xD4A PUSH1 0x7 DUP6 ADD SLOAD PUSH2 0x554B JUMP JUMPDEST PUSH1 0x1F DUP2 GT PUSH2 0x1E59 JUMPI JUMPDEST POP PUSH1 0xA0 MLOAD SWAP1 PUSH1 0x1F DUP4 GT PUSH1 0x1 EQ PUSH2 0x1DEA JUMPI PUSH1 0x80 SWAP4 SWAP3 SWAP2 DUP13 SWAP2 DUP4 PUSH2 0x1DDF JUMPI JUMPDEST POP POP DUP2 PUSH1 0x1 SHL SWAP2 PUSH1 0x0 NOT SWAP1 PUSH1 0x3 SHL SHR NOT AND OR PUSH1 0x7 DUP5 ADD SSTORE JUMPDEST ADD MLOAD DUP1 MLOAD DUP1 MLOAD SWAP1 PUSH1 0x1 PUSH1 0x1 PUSH1 0x40 SHL SUB DUP3 GT PUSH2 0x1DCB JUMPI SWAP1 DUP8 SWAP3 SWAP2 PUSH2 0xDAE PUSH1 0x8 DUP7 ADD SLOAD PUSH2 0x554B JUMP JUMPDEST PUSH1 0x1F DUP2 GT PUSH2 0x1D73 JUMPI JUMPDEST POP PUSH1 0xA0 MLOAD SWAP1 PUSH1 0x1F DUP4 GT PUSH1 0x1 EQ PUSH2 0x1D02 JUMPI DUP13 SWAP2 SWAP1 DUP4 PUSH2 0x1CF7 JUMPI JUMPDEST POP POP DUP2 PUSH1 0x1 SHL SWAP2 PUSH1 0x0 NOT SWAP1 PUSH1 0x3 SHL SHR NOT AND OR PUSH1 0x8 DUP5 ADD SSTORE JUMPDEST PUSH1 0x9 DUP4 ADD PUSH1 0x1 DUP1 PUSH1 0xA0 SHL SUB PUSH1 0xA0 MLOAD DUP4 ADD MLOAD AND PUSH1 0x1 PUSH1 0x1 PUSH1 0x60 SHL SUB PUSH1 0xA0 SHL DUP3 SLOAD AND OR SWAP1 SSTORE ADD MLOAD DUP1 MLOAD SWAP1 PUSH1 0x1 PUSH1 0x1 PUSH1 0x40 SHL SUB DUP3 GT PUSH2 0x1507 JUMPI PUSH2 0xE2B PUSH1 0xA DUP5 ADD SLOAD PUSH2 0x554B JUMP JUMPDEST PUSH1 0x1F DUP2 GT PUSH2 0x1CAD JUMPI JUMPDEST POP PUSH1 0xA0 MLOAD SWAP1 PUSH1 0x1F DUP4 GT PUSH1 0x1 EQ PUSH2 0x1C3C JUMPI SWAP2 DUP1 PUSH1 0x60 SWAP5 SWAP3 PUSH1 0xB SWAP5 DUP14 SWAP3 PUSH2 0x1C31 JUMPI JUMPDEST POP POP DUP2 PUSH1 0x1 SHL SWAP2 PUSH1 0x0 NOT SWAP1 PUSH1 0x3 SHL SHR NOT AND OR PUSH1 0xA DUP3 ADD SSTORE JUMPDEST ADD SWAP2 ADD MLOAD PUSH1 0x9 DUP2 LT ISZERO PUSH2 0x1C1D JUMPI PUSH1 0xFF DUP1 NOT DUP4 SLOAD AND SWAP2 AND OR SWAP1 SSTORE DUP1 MLOAD DUP4 DUP3 ADD MLOAD DUP5 MLOAD SWAP1 PUSH2 0xE9A PUSH1 0xA0 MLOAD DUP4 PUSH2 0x52D7 JUMP JUMPDEST DUP9 DUP3 MSTORE PUSH2 0xEA5 PUSH2 0x5A22 JUMP JUMPDEST SWAP2 PUSH2 0xEAE PUSH2 0x5B01 JUMP JUMPDEST POP DUP7 MLOAD SWAP4 PUSH2 0xEBB DUP6 PUSH2 0x52BC JUMP JUMPDEST DUP5 MSTORE PUSH1 0xA0 MLOAD DUP5 ADD MSTORE DUP6 DUP4 ADD MSTORE PUSH1 0x60 DUP3 ADD MSTORE DUP7 PUSH1 0x80 DUP3 ADD MSTORE PUSH2 0xEDB DUP8 PUSH2 0x5671 JUMP JUMPDEST DUP7 PUSH1 0xA0 DUP3 ADD MSTORE PUSH1 0x4 SLOAD PUSH1 0x1 PUSH1 0x40 SHL DUP2 LT ISZERO PUSH2 0x15B7 JUMPI DUP1 PUSH1 0x1 PUSH2 0xF02 SWAP3 ADD PUSH1 0x4 SSTORE PUSH1 0x4 PUSH2 0x552F JUMP JUMPDEST PUSH2 0x1C09 JUMPI DUP2 MLOAD DUP1 MLOAD SWAP1 PUSH1 0x1 PUSH1 0x1 PUSH1 0x40 SHL SUB DUP3 GT PUSH2 0x1507 JUMPI DUP2 SWAP1 PUSH2 0xF25 DUP5 SLOAD PUSH2 0x554B JUMP JUMPDEST PUSH1 0x1F DUP2 GT PUSH2 0x1BB9 JUMPI JUMPDEST POP PUSH1 0xA0 MLOAD SWAP1 PUSH1 0x1F DUP4 GT PUSH1 0x1 EQ PUSH2 0x1B53 JUMPI DUP12 SWAP3 PUSH2 0x1B48 JUMPI JUMPDEST POP POP DUP2 PUSH1 0x1 SHL SWAP2 PUSH1 0x0 NOT SWAP1 PUSH1 0x3 SHL SHR NOT AND OR DUP2 SSTORE JUMPDEST PUSH1 0xA0 MLOAD DUP3 ADD MLOAD DUP1 MLOAD SWAP1 PUSH1 0x1 PUSH1 0x1 PUSH1 0x40 SHL SUB DUP3 GT PUSH2 0x1507 JUMPI DUP2 SWAP1 PUSH2 0xF80 PUSH1 0x1 DUP6 ADD SLOAD PUSH2 0x554B JUMP JUMPDEST PUSH1 0x1F DUP2 GT PUSH2 0x1AF5 JUMPI JUMPDEST POP PUSH1 0xA0 MLOAD SWAP1 PUSH1 0x1F DUP4 GT PUSH1 0x1 EQ PUSH2 0x1A89 JUMPI DUP12 SWAP3 PUSH2 0x1A7E JUMPI JUMPDEST POP POP DUP2 PUSH1 0x1 SHL SWAP2 PUSH1 0x0 NOT SWAP1 PUSH1 0x3 SHL SHR NOT AND OR PUSH1 0x1 DUP3 ADD SSTORE JUMPDEST DUP5 DUP3 ADD MLOAD DUP1 MLOAD SWAP1 PUSH1 0x1 PUSH1 0x1 PUSH1 0x40 SHL SUB DUP3 GT PUSH2 0x1507 JUMPI DUP2 SWAP1 PUSH2 0xFDC PUSH1 0x2 DUP6 ADD SLOAD PUSH2 0x554B JUMP JUMPDEST PUSH1 0x1F DUP2 GT PUSH2 0x1A2B JUMPI JUMPDEST POP PUSH1 0xA0 MLOAD SWAP1 PUSH1 0x1F DUP4 GT PUSH1 0x1 EQ PUSH2 0x19BF JUMPI DUP12 SWAP3 PUSH2 0x19B4 JUMPI JUMPDEST POP POP DUP2 PUSH1 0x1 SHL SWAP2 PUSH1 0x0 NOT SWAP1 PUSH1 0x3 SHL SHR NOT AND OR PUSH1 0x2 DUP3 ADD SSTORE JUMPDEST PUSH1 0x60 DUP3 ADD MLOAD DUP1 MLOAD SWAP1 PUSH1 0x1 PUSH1 0x1 PUSH1 0x40 SHL SUB DUP3 GT PUSH2 0x1507 JUMPI SWAP1 DUP3 SWAP2 PUSH2 0x103C PUSH1 0x3 DUP10 SWAP7 SWAP6 ADD SLOAD PUSH2 0x554B JUMP JUMPDEST PUSH1 0x1F DUP2 GT PUSH2 0x1959 JUMPI JUMPDEST POP PUSH1 0xA0 MLOAD SWAP1 DUP12 PUSH1 0x1F DUP5 GT PUSH1 0x1 EQ PUSH2 0x18CC JUMPI PUSH1 0x0 DUP1 MLOAD PUSH1 0x20 PUSH2 0x5DD0 DUP4 CODECOPY DUP2 MLOAD SWAP2 MSTORE SWAP8 SWAP5 DUP5 PUSH2 0x10BA SWAP6 PUSH2 0x10CF SWAP10 SWAP9 SWAP6 PUSH1 0xA0 SWAP6 PUSH1 0x4 SWAP6 SWAP3 PUSH2 0x18C1 JUMPI JUMPDEST POP POP DUP2 PUSH1 0x1 SHL SWAP2 PUSH1 0x0 NOT SWAP1 PUSH1 0x3 SHL SHR NOT AND OR PUSH1 0x3 DUP3 ADD SSTORE JUMPDEST ADD SWAP2 PUSH1 0xFF PUSH1 0x80 DUP3 ADD MLOAD AND PUSH1 0xFF NOT DUP5 SLOAD AND OR DUP4 SSTORE ADD MLOAD SWAP1 PUSH2 0x10B5 DUP3 PUSH2 0x5671 JUMP JUMPDEST PUSH2 0x59DF JUMP JUMPDEST ADD MLOAD DUP5 MLOAD SWAP2 DUP3 SWAP2 PUSH1 0x80 DUP4 MSTORE PUSH1 0x80 DUP4 ADD SWAP1 PUSH2 0x564C JUMP JUMPDEST CALLER PUSH1 0xA0 MLOAD DUP4 ADD MSTORE DUP9 DUP7 DUP4 ADD MSTORE TIMESTAMP PUSH1 0x60 DUP4 ADD MSTORE SUB SWAP1 LOG1 DUP2 MLOAD SWAP3 PUSH2 0x10F0 DUP5 PUSH2 0x5255 JUMP JUMPDEST DUP3 MLOAD PUSH2 0x10FC DUP5 DUP3 PUSH2 0x52D7 JUMP JUMPDEST PUSH1 0xC DUP2 MSTORE PUSH12 0x6153414A4B2D415346444153 PUSH1 0xA0 SHL PUSH1 0xA0 MLOAD DUP3 ADD MSTORE DUP5 MSTORE PUSH2 0x1120 PUSH2 0x5C2F JUMP JUMPDEST PUSH1 0xA0 MLOAD DUP6 ADD MSTORE DUP3 MLOAD PUSH2 0x1132 DUP5 DUP3 PUSH2 0x52D7 JUMP JUMPDEST PUSH1 0x8 DUP2 MSTORE PUSH8 0x4E494C4F4A555249 PUSH1 0xC0 SHL PUSH1 0xA0 MLOAD DUP3 ADD MSTORE DUP4 DUP6 ADD SWAP1 DUP2 MSTORE DUP4 MLOAD PUSH2 0x115A DUP6 DUP3 PUSH2 0x52D7 JUMP JUMPDEST PUSH1 0xD DUP2 MSTORE PUSH13 0x212827A69026B0B5B0B9B9B0B9 PUSH1 0x99 SHL PUSH1 0xA0 MLOAD DUP3 ADD MSTORE PUSH1 0x60 DUP7 ADD MSTORE PUSH2 0x1188 PUSH1 0xA0 MLOAD DUP7 ADD MLOAD PUSH2 0x5691 JUMP JUMPDEST SWAP1 PUSH2 0x1193 DUP3 SLOAD PUSH2 0x554B JUMP JUMPDEST ISZERO PUSH2 0x188A JUMPI PUSH1 0xFF PUSH1 0x2 DUP4 ADD SLOAD AND PUSH2 0x11A9 DUP2 PUSH2 0x5671 JUMP JUMPDEST PUSH2 0x1845 JUMPI MLOAD PUSH1 0x60 DUP7 ADD MLOAD PUSH2 0x11BE SWAP2 CALLER SWAP1 PUSH2 0x5CBE JUMP JUMPDEST DUP1 MLOAD DUP1 MLOAD SWAP1 PUSH1 0x1 PUSH1 0x1 PUSH1 0x40 SHL SUB DUP3 GT PUSH2 0x1507 JUMPI SWAP1 DUP7 SWAP3 SWAP2 PUSH2 0x11E2 PUSH1 0x8 DUP7 ADD SLOAD PUSH2 0x554B JUMP JUMPDEST PUSH1 0x1F DUP2 GT PUSH2 0x17EE JUMPI JUMPDEST POP PUSH1 0xA0 MLOAD SWAP1 PUSH1 0x1F DUP4 GT PUSH1 0x1 EQ PUSH2 0x177D JUMPI DUP12 SWAP2 SWAP1 DUP4 PUSH2 0x1772 JUMPI JUMPDEST POP POP DUP2 PUSH1 0x1 SHL SWAP2 PUSH1 0x0 NOT SWAP1 PUSH1 0x3 SHL SHR NOT AND OR PUSH1 0x8 DUP5 ADD SSTORE JUMPDEST PUSH1 0x9 DUP4 ADD PUSH1 0x1 DUP1 PUSH1 0xA0 SHL SUB PUSH1 0xA0 MLOAD DUP4 ADD MLOAD AND PUSH1 0x1 PUSH1 0x1 PUSH1 0x60 SHL SUB PUSH1 0xA0 SHL DUP3 SLOAD AND OR SWAP1 SSTORE ADD MLOAD DUP1 MLOAD SWAP1 PUSH1 0x1 PUSH1 0x1 PUSH1 0x40 SHL SUB DUP3 GT PUSH2 0x1695 JUMPI DUP2 SWAP1 PUSH2 0x1261 PUSH1 0xA DUP6 ADD SLOAD PUSH2 0x554B JUMP JUMPDEST PUSH1 0x1F DUP2 GT PUSH2 0x1720 JUMPI JUMPDEST POP PUSH1 0xA0 MLOAD SWAP1 PUSH1 0x1F DUP4 GT PUSH1 0x1 EQ PUSH2 0x16B4 JUMPI DUP11 SWAP3 PUSH2 0x16A9 JUMPI JUMPDEST POP POP DUP2 PUSH1 0x1 SHL SWAP2 PUSH1 0x0 NOT SWAP1 PUSH1 0x3 SHL SHR NOT AND OR PUSH1 0xA DUP3 ADD SSTORE JUMPDEST PUSH1 0x2 DUP2 ADD DUP1 SLOAD PUSH1 0xFF NOT AND PUSH1 0x1 OR SWAP1 SSTORE TIMESTAMP PUSH1 0x4 DUP3 ADD SSTORE DUP5 MLOAD DUP1 MLOAD SWAP1 PUSH1 0x1 PUSH1 0x1 PUSH1 0x40 SHL SUB DUP3 GT PUSH2 0x1695 JUMPI PUSH2 0x12CE PUSH1 0x1 DUP5 ADD SLOAD PUSH2 0x554B JUMP JUMPDEST PUSH1 0x1F DUP2 GT PUSH2 0x164B JUMPI JUMPDEST POP PUSH1 0xA0 MLOAD SWAP1 PUSH1 0x1F DUP4 GT PUSH1 0x1 EQ PUSH2 0x15D6 JUMPI SWAP3 DUP3 PUSH2 0x1319 SWAP4 PUSH1 0x7 SWAP4 PUSH2 0x131E SWAP7 DUP14 SWAP3 PUSH2 0x15CB JUMPI JUMPDEST POP POP DUP2 PUSH1 0x1 SHL SWAP2 PUSH1 0x0 NOT SWAP1 PUSH1 0x3 SHL SHR NOT AND OR PUSH1 0x1 DUP3 ADD SSTORE JUMPDEST ADD PUSH2 0x5585 JUMP JUMPDEST PUSH2 0x56DD JUMP JUMPDEST DUP1 SLOAD SWAP1 PUSH1 0x1 PUSH1 0x40 SHL DUP3 LT ISZERO PUSH2 0x15B7 JUMPI SWAP1 PUSH2 0x133D SWAP2 PUSH1 0x1 DUP3 ADD DUP2 SSTORE PUSH2 0x5830 JUMP JUMPDEST PUSH1 0xFF DUP3 SLOAD SWAP2 PUSH1 0x3 SHL SHL NOT AND SWAP1 SSTORE DUP6 JUMPDEST PUSH1 0x4 SLOAD DUP2 LT ISZERO PUSH2 0x151B JUMPI PUSH2 0x135F DUP2 PUSH2 0x54FA JUMP JUMPDEST POP DUP5 MLOAD PUSH2 0x1375 DUP2 PUSH2 0x165 PUSH1 0xA0 MLOAD DUP3 ADD DUP1 SWAP6 PUSH2 0x5971 JUMP JUMPDEST MLOAD SWAP1 KECCAK256 PUSH2 0x139D PUSH1 0xA0 MLOAD DUP8 ADD MLOAD PUSH2 0x13B3 DUP8 MLOAD SWAP2 PUSH1 0xA0 MLOAD DUP4 ADD SWAP4 DUP2 DUP6 SWAP3 MLOAD SWAP3 DUP4 SWAP2 PUSH1 0xA0 MLOAD ADD PUSH2 0x5629 JUMP JUMPDEST DUP3 PUSH1 0xA0 MLOAD SWAP2 DUP2 ADD SUB ADD PUSH1 0x1F NOT DUP2 ADD DUP4 MSTORE DUP3 PUSH2 0x52D7 JUMP JUMPDEST MLOAD SWAP1 KECCAK256 EQ PUSH2 0x13C4 JUMPI JUMPDEST PUSH1 0x1 ADD PUSH2 0x134C JUMP JUMPDEST DUP5 MLOAD PUSH1 0x1 PUSH2 0x13D1 DUP4 PUSH2 0x54FA JUMP JUMPDEST POP ADD SWAP1 DUP1 MLOAD SWAP1 PUSH1 0x1 PUSH1 0x1 PUSH1 0x40 SHL SUB DUP3 GT PUSH2 0x1507 JUMPI PUSH2 0x13EF DUP4 SLOAD PUSH2 0x554B JUMP JUMPDEST PUSH1 0x1F DUP2 GT PUSH2 0x14C0 JUMPI JUMPDEST POP PUSH1 0xA0 MLOAD SWAP1 PUSH1 0x1F DUP4 GT PUSH1 0x1 EQ PUSH2 0x1456 JUMPI PUSH1 0x1 SWAP5 SWAP4 SWAP3 SWAP2 DUP12 SWAP2 DUP4 PUSH2 0x144B JUMPI JUMPDEST POP POP PUSH1 0x0 NOT PUSH1 0x3 DUP4 SWAP1 SHL SHR NOT AND SWAP1 DUP5 SHL OR SWAP1 SSTORE JUMPDEST PUSH1 0x4 PUSH2 0x1435 DUP3 PUSH2 0x54FA JUMP JUMPDEST POP ADD DUP1 SLOAD PUSH2 0xFF00 NOT AND PUSH2 0x100 OR SWAP1 SSTORE SWAP1 POP PUSH2 0x13BC JUMP JUMPDEST ADD MLOAD SWAP1 POP CODESIZE DUP1 PUSH2 0x1416 JUMP JUMPDEST DUP4 DUP12 MSTORE PUSH1 0xA0 MLOAD DUP12 KECCAK256 SWAP2 SWAP1 PUSH1 0x1F NOT DUP5 AND DUP13 JUMPDEST DUP2 DUP2 LT PUSH2 0x14A7 JUMPI POP SWAP2 PUSH1 0x1 SWAP7 SWAP6 SWAP5 SWAP3 SWAP2 DUP4 DUP9 SWAP6 SWAP4 LT PUSH2 0x148E JUMPI JUMPDEST POP POP POP DUP2 SHL ADD SWAP1 SSTORE PUSH2 0x142A JUMP JUMPDEST ADD MLOAD PUSH1 0x0 NOT PUSH1 0xF8 DUP5 PUSH1 0x3 SHL AND SHR NOT AND SWAP1 SSTORE CODESIZE DUP1 DUP1 PUSH2 0x1481 JUMP JUMPDEST DUP3 DUP5 ADD MLOAD DUP6 SSTORE PUSH1 0xA0 MLOAD PUSH1 0x1 SWAP1 SWAP6 ADD SWAP5 SWAP4 DUP5 ADD SWAP4 ADD PUSH2 0x1467 JUMP JUMPDEST DUP4 DUP12 MSTORE PUSH1 0xA0 MLOAD DUP12 KECCAK256 PUSH1 0x1F DUP5 ADD PUSH1 0x5 SHR DUP2 ADD SWAP2 PUSH1 0xA0 MLOAD DUP6 LT PUSH2 0x14FD JUMPI JUMPDEST PUSH1 0x1F ADD PUSH1 0x5 SHR ADD SWAP1 JUMPDEST DUP2 DUP2 LT PUSH2 0x14F2 JUMPI POP PUSH2 0x13F8 JUMP JUMPDEST DUP12 DUP2 SSTORE PUSH1 0x1 ADD PUSH2 0x14E5 JUMP JUMPDEST SWAP1 SWAP2 POP DUP2 SWAP1 PUSH2 0x14DC JUMP JUMPDEST PUSH4 0x4E487B71 PUSH1 0xE0 SHL DUP11 MSTORE PUSH1 0x41 PUSH1 0x4 MSTORE PUSH1 0x24 DUP11 REVERT JUMPDEST POP SWAP2 SWAP4 PUSH32 0x5F0795F9828E754B342C66DC560F8879D7982CA16FBEB97634E54F75BD39BFD7 PUSH2 0x1589 PUSH2 0xA6C SWAP4 SWAP6 PUSH2 0x15A6 PUSH32 0x93B86CF0A1D8E18E724E08D47F7248859DE317795BE109EC2495F6FC7445B4E9 SWAP9 PUSH1 0x60 DUP4 ADD MLOAD SWAP3 MLOAD PUSH2 0x1599 DUP3 MLOAD SWAP6 DUP7 SWAP6 PUSH1 0xA0 DUP8 MSTORE PUSH1 0xA0 DUP8 ADD SWAP1 PUSH2 0x564C JUMP JUMPDEST SWAP3 CALLER PUSH1 0xA0 MLOAD DUP8 ADD MSTORE DUP6 ADD DUP14 PUSH2 0x5823 JUMP JUMPDEST DUP4 DUP3 SUB PUSH1 0x60 DUP6 ADD MSTORE PUSH2 0x564C JUMP JUMPDEST TIMESTAMP PUSH1 0x80 DUP4 ADD MSTORE SUB SWAP1 LOG1 SWAP4 POP POP PUSH2 0xA37 JUMP JUMPDEST PUSH4 0x4E487B71 PUSH1 0xE0 SHL DUP9 MSTORE PUSH1 0x41 PUSH1 0x4 MSTORE PUSH1 0x24 DUP9 REVERT JUMPDEST ADD MLOAD SWAP1 POP CODESIZE DUP1 PUSH2 0x12FB JUMP JUMPDEST PUSH1 0x1 DUP5 ADD DUP11 MSTORE PUSH1 0xA0 MLOAD DUP11 KECCAK256 SWAP2 SWAP1 PUSH1 0x1F NOT DUP5 AND DUP12 JUMPDEST DUP2 DUP2 LT PUSH2 0x1632 JUMPI POP SWAP4 PUSH1 0x7 SWAP4 PUSH2 0x131E SWAP7 SWAP4 PUSH1 0x1 SWAP4 DUP4 PUSH2 0x1319 SWAP9 LT PUSH2 0x1619 JUMPI JUMPDEST POP POP POP DUP2 SHL ADD PUSH1 0x1 DUP3 ADD SSTORE PUSH2 0x1313 JUMP JUMPDEST ADD MLOAD PUSH1 0x0 NOT PUSH1 0xF8 DUP5 PUSH1 0x3 SHL AND SHR NOT AND SWAP1 SSTORE CODESIZE DUP1 DUP1 PUSH2 0x1609 JUMP JUMPDEST DUP3 DUP5 ADD MLOAD DUP6 SSTORE PUSH1 0xA0 MLOAD PUSH1 0x1 SWAP1 SWAP6 ADD SWAP5 SWAP4 DUP5 ADD SWAP4 ADD PUSH2 0x15EA JUMP JUMPDEST PUSH1 0x1 DUP5 ADD DUP11 MSTORE PUSH1 0xA0 MLOAD DUP11 KECCAK256 PUSH1 0x1F DUP5 ADD PUSH1 0x5 SHR DUP2 ADD SWAP2 PUSH1 0xA0 MLOAD DUP6 LT PUSH2 0x168B JUMPI JUMPDEST PUSH1 0x1F ADD PUSH1 0x5 SHR ADD SWAP1 JUMPDEST DUP2 DUP2 LT PUSH2 0x1680 JUMPI POP PUSH2 0x12D7 JUMP JUMPDEST DUP11 DUP2 SSTORE PUSH1 0x1 ADD PUSH2 0x1673 JUMP JUMPDEST SWAP1 SWAP2 POP DUP2 SWAP1 PUSH2 0x166A JUMP JUMPDEST PUSH4 0x4E487B71 PUSH1 0xE0 SHL DUP10 MSTORE PUSH1 0x41 PUSH1 0x4 MSTORE PUSH1 0x24 DUP10 REVERT JUMPDEST ADD MLOAD SWAP1 POP CODESIZE DUP1 PUSH2 0x1281 JUMP JUMPDEST PUSH1 0xA DUP6 ADD DUP12 MSTORE PUSH1 0xA0 MLOAD DUP12 KECCAK256 SWAP3 POP PUSH1 0x1F NOT DUP5 AND DUP12 JUMPDEST DUP2 DUP2 LT PUSH2 0x1707 JUMPI POP SWAP1 DUP5 PUSH1 0x1 SWAP6 SWAP5 SWAP4 SWAP3 LT PUSH2 0x16EE JUMPI JUMPDEST POP POP POP DUP2 SHL ADD PUSH1 0xA DUP3 ADD SSTORE PUSH2 0x1299 JUMP JUMPDEST ADD MLOAD PUSH1 0x0 NOT PUSH1 0xF8 DUP5 PUSH1 0x3 SHL AND SHR NOT AND SWAP1 SSTORE CODESIZE DUP1 DUP1 PUSH2 0x16DE JUMP JUMPDEST DUP3 DUP5 ADD MLOAD DUP6 SSTORE PUSH1 0xA0 MLOAD PUSH1 0x1 SWAP1 SWAP6 ADD SWAP5 SWAP4 DUP5 ADD SWAP4 ADD PUSH2 0x16C8 JUMP JUMPDEST SWAP1 SWAP2 POP PUSH1 0xA DUP5 ADD DUP11 MSTORE PUSH1 0xA0 MLOAD DUP11 KECCAK256 PUSH1 0x1F DUP5 ADD PUSH1 0x5 SHR DUP2 ADD PUSH1 0xA0 MLOAD DUP6 LT PUSH2 0x176B JUMPI JUMPDEST SWAP1 DUP5 SWAP4 SWAP3 SWAP2 JUMPDEST PUSH1 0x1F DUP4 ADD PUSH1 0x5 SHR DUP3 ADD DUP2 LT PUSH2 0x175D JUMPI POP POP PUSH2 0x126A JUMP JUMPDEST DUP13 DUP2 SSTORE DUP6 SWAP5 POP PUSH1 0x1 ADD PUSH2 0x1747 JUMP JUMPDEST POP DUP1 PUSH2 0x1741 JUMP JUMPDEST ADD MLOAD SWAP1 POP CODESIZE DUP1 PUSH2 0x1204 JUMP JUMPDEST PUSH1 0x8 DUP7 ADD DUP13 MSTORE PUSH1 0xA0 MLOAD DUP13 KECCAK256 SWAP1 SWAP5 SWAP4 SWAP3 SWAP2 PUSH1 0x1F NOT DUP4 AND DUP14 JUMPDEST DUP2 DUP2 LT PUSH2 0x17D2 JUMPI POP SWAP6 DUP4 PUSH1 0x1 SWAP6 SWAP7 SWAP8 LT PUSH2 0x17B9 JUMPI JUMPDEST POP POP POP DUP2 SHL ADD PUSH1 0x8 DUP5 ADD SSTORE PUSH2 0x121C JUMP JUMPDEST ADD MLOAD PUSH1 0x0 NOT PUSH1 0xF8 DUP5 PUSH1 0x3 SHL AND SHR NOT AND SWAP1 SSTORE CODESIZE DUP1 DUP1 PUSH2 0x17A9 JUMP JUMPDEST DUP8 DUP4 ADD MLOAD DUP5 SSTORE PUSH1 0xA0 MLOAD DUP13 SWAP8 POP PUSH1 0x1 SWAP1 SWAP5 ADD SWAP4 SWAP3 DUP4 ADD SWAP3 ADD PUSH2 0x1794 JUMP JUMPDEST SWAP1 SWAP2 SWAP3 SWAP4 POP PUSH1 0x8 DUP6 ADD DUP12 MSTORE PUSH1 0xA0 MLOAD DUP12 KECCAK256 PUSH1 0x1F DUP5 ADD PUSH1 0x5 SHR DUP2 ADD PUSH1 0xA0 MLOAD DUP6 LT PUSH2 0x183E JUMPI JUMPDEST SWAP1 DUP10 SWAP6 SWAP5 SWAP4 SWAP3 SWAP2 JUMPDEST DUP14 PUSH1 0x1F DUP5 ADD PUSH1 0x5 SHR DUP4 ADD DUP3 LT PUSH2 0x1831 JUMPI POP POP POP PUSH2 0x11EB JUMP JUMPDEST DUP2 SSTORE DUP11 SWAP7 POP PUSH1 0x1 ADD PUSH2 0x1819 JUMP JUMPDEST POP DUP1 PUSH2 0x1811 JUMP JUMPDEST DUP5 MLOAD PUSH3 0x461BCD PUSH1 0xE5 SHL DUP2 MSTORE PUSH1 0xA0 DUP1 MLOAD PUSH1 0x4 DUP4 ADD MSTORE MLOAD PUSH1 0x24 DUP3 ADD MSTORE PUSH32 0x43504F544220737461747573206D757374206265202752657175657374656427 PUSH1 0x44 DUP3 ADD MSTORE PUSH1 0x64 SWAP1 REVERT JUMPDEST DUP5 MLOAD PUSH3 0x461BCD PUSH1 0xE5 SHL DUP2 MSTORE PUSH1 0xA0 MLOAD PUSH1 0x4 DUP3 ADD MSTORE PUSH1 0xF PUSH1 0x24 DUP3 ADD MSTORE PUSH15 0x10D413D510881B9BDD08199BDD5B99 PUSH1 0x8A SHL PUSH1 0x44 DUP3 ADD MSTORE PUSH1 0x64 SWAP1 REVERT JUMPDEST ADD MLOAD SWAP1 POP CODESIZE DUP1 PUSH2 0x107E JUMP JUMPDEST POP PUSH1 0x3 DUP5 ADD DUP13 MSTORE PUSH1 0xA0 MLOAD DUP13 KECCAK256 SWAP2 SWAP1 PUSH1 0x1F NOT DUP5 AND DUP14 JUMPDEST DUP2 DUP2 LT PUSH2 0x193D JUMPI POP SWAP5 PUSH1 0x1 DUP6 PUSH2 0x10CF SWAP10 SWAP9 SWAP6 PUSH1 0xA0 SWAP6 PUSH1 0x4 SWAP6 PUSH2 0x10BA SWAP10 PUSH1 0x0 DUP1 MLOAD PUSH1 0x20 PUSH2 0x5DD0 DUP4 CODECOPY DUP2 MLOAD SWAP2 MSTORE SWAP15 SWAP12 LT PUSH2 0x1924 JUMPI JUMPDEST POP POP POP DUP2 SHL ADD PUSH1 0x3 DUP3 ADD SSTORE PUSH2 0x1096 JUMP JUMPDEST ADD MLOAD PUSH1 0x0 NOT PUSH1 0xF8 DUP5 PUSH1 0x3 SHL AND SHR NOT AND SWAP1 SSTORE CODESIZE DUP1 DUP1 PUSH2 0x1914 JUMP JUMPDEST DUP3 DUP5 ADD MLOAD DUP6 SSTORE PUSH1 0xA0 MLOAD DUP13 SWAP10 POP PUSH1 0x1 SWAP1 SWAP6 ADD SWAP5 SWAP4 DUP5 ADD SWAP4 ADD PUSH2 0x18E1 JUMP JUMPDEST SWAP1 SWAP2 SWAP3 SWAP4 SWAP5 POP PUSH1 0x3 DUP5 ADD DUP12 MSTORE PUSH1 0xA0 MLOAD DUP12 KECCAK256 PUSH1 0x1F DUP5 ADD PUSH1 0x5 SHR DUP2 ADD SWAP2 PUSH1 0xA0 MLOAD DUP6 LT PUSH2 0x19AA JUMPI JUMPDEST SWAP1 PUSH1 0x1F DUP11 SWAP8 SWAP7 SWAP6 SWAP5 SWAP4 SWAP3 ADD PUSH1 0x5 SHR ADD SWAP1 JUMPDEST DUP2 DUP2 LT PUSH2 0x199C JUMPI POP PUSH2 0x1045 JUMP JUMPDEST DUP13 DUP2 SSTORE DUP10 SWAP7 POP PUSH1 0x1 ADD PUSH2 0x198F JUMP JUMPDEST SWAP1 SWAP2 POP DUP2 SWAP1 PUSH2 0x197E JUMP JUMPDEST ADD MLOAD SWAP1 POP CODESIZE DUP1 PUSH2 0xFFC JUMP JUMPDEST PUSH1 0x2 DUP6 ADD DUP13 MSTORE PUSH1 0xA0 MLOAD DUP13 KECCAK256 SWAP3 POP PUSH1 0x1F NOT DUP5 AND DUP13 JUMPDEST DUP2 DUP2 LT PUSH2 0x1A12 JUMPI POP SWAP1 DUP5 PUSH1 0x1 SWAP6 SWAP5 SWAP4 SWAP3 LT PUSH2 0x19F9 JUMPI JUMPDEST POP POP POP DUP2 SHL ADD PUSH1 0x2 DUP3 ADD SSTORE PUSH2 0x1014 JUMP JUMPDEST ADD MLOAD PUSH1 0x0 NOT PUSH1 0xF8 DUP5 PUSH1 0x3 SHL AND SHR NOT AND SWAP1 SSTORE CODESIZE DUP1 DUP1 PUSH2 0x19E9 JUMP JUMPDEST DUP3 DUP5 ADD MLOAD DUP6 SSTORE PUSH1 0xA0 MLOAD PUSH1 0x1 SWAP1 SWAP6 ADD SWAP5 SWAP4 DUP5 ADD SWAP4 ADD PUSH2 0x19D3 JUMP JUMPDEST SWAP1 SWAP2 POP PUSH1 0x2 DUP5 ADD DUP12 MSTORE PUSH1 0xA0 MLOAD DUP12 KECCAK256 PUSH1 0x1F DUP5 ADD PUSH1 0x5 SHR DUP2 ADD PUSH1 0xA0 MLOAD DUP6 LT PUSH2 0x1A77 JUMPI JUMPDEST SWAP1 DUP5 SWAP4 SWAP3 SWAP2 JUMPDEST DUP14 PUSH1 0x1F DUP5 ADD PUSH1 0x5 SHR DUP4 ADD DUP3 LT PUSH2 0x1A6A JUMPI POP POP POP PUSH2 0xFE5 JUMP JUMPDEST DUP2 SSTORE DUP6 SWAP5 POP PUSH1 0x1 ADD PUSH2 0x1A52 JUMP JUMPDEST POP DUP1 PUSH2 0x1A4C JUMP JUMPDEST ADD MLOAD SWAP1 POP CODESIZE DUP1 PUSH2 0xFA0 JUMP JUMPDEST PUSH1 0x1 DUP6 ADD DUP13 MSTORE PUSH1 0xA0 MLOAD DUP13 KECCAK256 SWAP3 POP PUSH1 0x1F NOT DUP5 AND DUP13 JUMPDEST DUP2 DUP2 LT PUSH2 0x1ADC JUMPI POP SWAP1 DUP5 PUSH1 0x1 SWAP6 SWAP5 SWAP4 SWAP3 LT PUSH2 0x1AC3 JUMPI JUMPDEST POP POP POP DUP2 SHL ADD PUSH1 0x1 DUP3 ADD SSTORE PUSH2 0xFB8 JUMP JUMPDEST ADD MLOAD PUSH1 0x0 NOT PUSH1 0xF8 DUP5 PUSH1 0x3 SHL AND SHR NOT AND SWAP1 SSTORE CODESIZE DUP1 DUP1 PUSH2 0x1AB3 JUMP JUMPDEST DUP3 DUP5 ADD MLOAD DUP6 SSTORE PUSH1 0xA0 MLOAD PUSH1 0x1 SWAP1 SWAP6 ADD SWAP5 SWAP4 DUP5 ADD SWAP4 ADD PUSH2 0x1A9D JUMP JUMPDEST SWAP1 SWAP2 POP PUSH1 0x1 DUP5 ADD DUP12 MSTORE PUSH1 0xA0 MLOAD DUP12 KECCAK256 PUSH1 0x1F DUP5 ADD PUSH1 0x5 SHR DUP2 ADD PUSH1 0xA0 MLOAD DUP6 LT PUSH2 0x1B41 JUMPI JUMPDEST SWAP1 DUP5 SWAP4 SWAP3 SWAP2 JUMPDEST DUP14 PUSH1 0x1F DUP5 ADD PUSH1 0x5 SHR DUP4 ADD DUP3 LT PUSH2 0x1B34 JUMPI POP POP POP PUSH2 0xF89 JUMP JUMPDEST DUP2 SSTORE DUP6 SWAP5 POP PUSH1 0x1 ADD PUSH2 0x1B1C JUMP JUMPDEST POP DUP1 PUSH2 0x1B16 JUMP JUMPDEST ADD MLOAD SWAP1 POP CODESIZE DUP1 PUSH2 0xF45 JUMP JUMPDEST DUP5 DUP13 MSTORE PUSH1 0xA0 MLOAD DUP13 KECCAK256 SWAP3 POP PUSH1 0x1F NOT DUP5 AND DUP13 JUMPDEST DUP2 DUP2 LT PUSH2 0x1BA0 JUMPI POP SWAP1 DUP5 PUSH1 0x1 SWAP6 SWAP5 SWAP4 SWAP3 LT PUSH2 0x1B87 JUMPI JUMPDEST POP POP POP DUP2 SHL ADD DUP2 SSTORE PUSH2 0xF5A JUMP JUMPDEST ADD MLOAD PUSH1 0x0 NOT PUSH1 0xF8 DUP5 PUSH1 0x3 SHL AND SHR NOT AND SWAP1 SSTORE CODESIZE DUP1 DUP1 PUSH2 0x1B7A JUMP JUMPDEST DUP3 DUP5 ADD MLOAD DUP6 SSTORE PUSH1 0xA0 MLOAD PUSH1 0x1 SWAP1 SWAP6 ADD SWAP5 SWAP4 DUP5 ADD SWAP4 ADD PUSH2 0x1B64 JUMP JUMPDEST SWAP1 SWAP2 POP DUP4 DUP12 MSTORE PUSH1 0xA0 MLOAD DUP12 KECCAK256 PUSH1 0x1F DUP5 ADD PUSH1 0x5 SHR DUP2 ADD PUSH1 0xA0 MLOAD DUP6 LT PUSH2 0x1C02 JUMPI JUMPDEST SWAP1 DUP5 SWAP4 SWAP3 SWAP2 JUMPDEST DUP14 PUSH1 0x1F DUP5 ADD PUSH1 0x5 SHR DUP4 ADD DUP3 LT PUSH2 0x1BF5 JUMPI POP POP POP PUSH2 0xF2E JUMP JUMPDEST DUP2 SSTORE DUP6 SWAP5 POP PUSH1 0x1 ADD PUSH2 0x1BDD JUMP JUMPDEST POP DUP1 PUSH2 0x1BD7 JUMP JUMPDEST PUSH4 0x4E487B71 PUSH1 0xE0 SHL DUP9 MSTORE PUSH1 0x4 DUP9 SWAP1 MSTORE PUSH1 0x24 DUP9 REVERT JUMPDEST PUSH4 0x4E487B71 PUSH1 0xE0 SHL DUP9 MSTORE PUSH1 0x21 PUSH1 0x4 MSTORE PUSH1 0x24 DUP9 REVERT JUMPDEST ADD MLOAD SWAP1 POP CODESIZE DUP1 PUSH2 0xE54 JUMP JUMPDEST PUSH1 0xA DUP5 ADD DUP12 MSTORE PUSH1 0xA0 MLOAD DUP12 KECCAK256 SWAP2 SWAP1 PUSH1 0x1F NOT DUP5 AND DUP13 JUMPDEST DUP2 DUP2 LT PUSH2 0x1C94 JUMPI POP SWAP3 PUSH1 0x1 SWAP3 DUP6 SWAP3 PUSH1 0xB SWAP7 PUSH1 0x60 SWAP9 SWAP7 LT PUSH2 0x1C7B JUMPI JUMPDEST POP POP POP DUP2 SHL ADD PUSH1 0xA DUP3 ADD SSTORE PUSH2 0xE6C JUMP JUMPDEST ADD MLOAD PUSH1 0x0 NOT PUSH1 0xF8 DUP5 PUSH1 0x3 SHL AND SHR NOT AND SWAP1 SSTORE CODESIZE DUP1 DUP1 PUSH2 0x1C6B JUMP JUMPDEST DUP3 DUP5 ADD MLOAD DUP6 SSTORE PUSH1 0xA0 MLOAD PUSH1 0x1 SWAP1 SWAP6 ADD SWAP5 SWAP4 DUP5 ADD SWAP4 ADD PUSH2 0x1C50 JUMP JUMPDEST PUSH1 0xA DUP5 ADD DUP12 MSTORE PUSH1 0xA0 MLOAD DUP12 KECCAK256 PUSH1 0x1F DUP5 ADD PUSH1 0x5 SHR DUP2 ADD SWAP2 PUSH1 0xA0 MLOAD DUP6 LT PUSH2 0x1CED JUMPI JUMPDEST PUSH1 0x1F ADD PUSH1 0x5 SHR ADD SWAP1 JUMPDEST DUP2 DUP2 LT PUSH2 0x1CE2 JUMPI POP PUSH2 0xE34 JUMP JUMPDEST DUP12 DUP2 SSTORE PUSH1 0x1 ADD PUSH2 0x1CD5 JUMP JUMPDEST SWAP1 SWAP2 POP DUP2 SWAP1 PUSH2 0x1CCC JUMP JUMPDEST ADD MLOAD SWAP1 POP CODESIZE DUP1 PUSH2 0xDD0 JUMP JUMPDEST PUSH1 0x8 DUP7 ADD DUP14 MSTORE PUSH1 0xA0 MLOAD DUP14 KECCAK256 SWAP1 SWAP5 SWAP4 SWAP3 SWAP2 PUSH1 0x1F NOT DUP4 AND DUP15 JUMPDEST DUP2 DUP2 LT PUSH2 0x1D57 JUMPI POP SWAP6 DUP4 PUSH1 0x1 SWAP6 SWAP7 SWAP8 LT PUSH2 0x1D3E JUMPI JUMPDEST POP POP POP DUP2 SHL ADD PUSH1 0x8 DUP5 ADD SSTORE PUSH2 0xDE8 JUMP JUMPDEST ADD MLOAD PUSH1 0x0 NOT PUSH1 0xF8 DUP5 PUSH1 0x3 SHL AND SHR NOT AND SWAP1 SSTORE CODESIZE DUP1 DUP1 PUSH2 0x1D2E JUMP JUMPDEST DUP8 DUP4 ADD MLOAD DUP5 SSTORE PUSH1 0xA0 MLOAD DUP14 SWAP8 POP PUSH1 0x1 SWAP1 SWAP5 ADD SWAP4 SWAP3 DUP4 ADD SWAP3 ADD PUSH2 0x1D19 JUMP JUMPDEST SWAP1 SWAP2 SWAP3 SWAP4 POP PUSH1 0x8 DUP6 ADD DUP13 MSTORE PUSH1 0xA0 MLOAD DUP13 KECCAK256 PUSH1 0x1F DUP5 ADD PUSH1 0x5 SHR DUP2 ADD PUSH1 0xA0 MLOAD DUP6 LT PUSH2 0x1DC4 JUMPI JUMPDEST DUP11 SWAP6 SWAP5 SWAP4 SWAP3 SWAP2 SWAP1 DUP15 JUMPDEST PUSH1 0x1F DUP5 ADD PUSH1 0x5 SHR DUP4 ADD DUP3 LT PUSH2 0x1DB6 JUMPI POP POP POP PUSH2 0xDB7 JUMP JUMPDEST DUP2 SSTORE DUP12 SWAP7 POP PUSH1 0x1 ADD DUP15 PUSH2 0x1D9F JUMP JUMPDEST POP DUP1 PUSH2 0x1D96 JUMP JUMPDEST PUSH4 0x4E487B71 PUSH1 0xE0 SHL DUP12 MSTORE PUSH1 0x41 PUSH1 0x4 MSTORE PUSH1 0x24 DUP12 REVERT JUMPDEST ADD MLOAD SWAP1 POP CODESIZE DUP1 PUSH2 0xD70 JUMP JUMPDEST PUSH1 0x7 DUP6 ADD DUP13 MSTORE PUSH1 0xA0 MLOAD DUP13 KECCAK256 SWAP2 SWAP1 PUSH1 0x1F NOT DUP5 AND DUP14 JUMPDEST DUP2 DUP2 LT PUSH2 0x1E40 JUMPI POP SWAP2 PUSH1 0x1 SWAP4 SWAP2 DUP6 PUSH1 0x80 SWAP8 SWAP7 SWAP5 LT PUSH2 0x1E27 JUMPI JUMPDEST POP POP POP DUP2 SHL ADD PUSH1 0x7 DUP5 ADD SSTORE PUSH2 0xD88 JUMP JUMPDEST ADD MLOAD PUSH1 0x0 NOT PUSH1 0xF8 DUP5 PUSH1 0x3 SHL AND SHR NOT AND SWAP1 SSTORE CODESIZE DUP1 DUP1 PUSH2 0x1E17 JUMP JUMPDEST DUP3 DUP5 ADD MLOAD DUP6 SSTORE PUSH1 0xA0 MLOAD PUSH1 0x1 SWAP1 SWAP6 ADD SWAP5 SWAP4 DUP5 ADD SWAP4 ADD PUSH2 0x1DFE JUMP JUMPDEST PUSH1 0x7 DUP6 ADD DUP13 MSTORE PUSH1 0xA0 MLOAD DUP13 KECCAK256 PUSH1 0x1F DUP5 ADD PUSH1 0x5 SHR DUP2 ADD PUSH1 0xA0 MLOAD DUP6 LT PUSH2 0x1E99 JUMPI JUMPDEST DUP14 PUSH1 0x1F DUP5 ADD PUSH1 0x5 SHR DUP4 ADD DUP3 LT PUSH2 0x1E8F JUMPI POP POP POP PUSH2 0xD53 JUMP JUMPDEST DUP2 SSTORE PUSH1 0x1 ADD PUSH2 0x1E77 JUMP JUMPDEST POP DUP1 PUSH2 0x1E77 JUMP JUMPDEST ADD MLOAD SWAP1 POP CODESIZE DUP1 PUSH2 0xCEF JUMP JUMPDEST SWAP1 SWAP5 SWAP4 SWAP3 SWAP2 PUSH1 0x1F NOT DUP4 AND PUSH1 0x5 DUP10 ADD DUP4 MSTORE PUSH1 0xA0 MLOAD DUP4 KECCAK256 SWAP3 JUMPDEST DUP2 DUP2 LT PUSH2 0x1F00 JUMPI POP SWAP6 DUP4 PUSH1 0x1 SWAP6 SWAP7 SWAP8 LT PUSH2 0x1EE7 JUMPI JUMPDEST POP POP POP DUP2 SHL ADD PUSH1 0x5 DUP6 ADD SSTORE PUSH2 0xD07 JUMP JUMPDEST ADD MLOAD PUSH1 0x0 NOT PUSH1 0xF8 DUP5 PUSH1 0x3 SHL AND SHR NOT AND SWAP1 SSTORE CODESIZE DUP1 DUP1 PUSH2 0x1ED7 JUMP JUMPDEST DUP8 DUP4 ADD MLOAD DUP5 SSTORE PUSH1 0xA0 MLOAD DUP15 SWAP8 POP PUSH1 0x1 SWAP1 SWAP5 ADD SWAP4 SWAP3 DUP4 ADD SWAP3 ADD PUSH2 0x1EC2 JUMP JUMPDEST SWAP1 SWAP2 SWAP3 SWAP4 POP PUSH1 0x5 DUP7 ADD DUP14 MSTORE PUSH1 0xA0 MLOAD DUP14 KECCAK256 PUSH1 0x1F DUP5 ADD PUSH1 0x5 SHR DUP2 ADD PUSH1 0xA0 MLOAD DUP6 LT PUSH2 0x1F6D JUMPI JUMPDEST DUP12 SWAP6 SWAP5 SWAP4 SWAP3 SWAP2 SWAP1 DUP16 JUMPDEST PUSH1 0x1F DUP5 ADD PUSH1 0x5 SHR DUP4 ADD DUP3 LT PUSH2 0x1F5F JUMPI POP POP POP PUSH2 0xCD6 JUMP JUMPDEST DUP2 SSTORE DUP13 SWAP7 POP PUSH1 0x1 ADD DUP16 PUSH2 0x1F48 JUMP JUMPDEST POP DUP1 PUSH2 0x1F3F JUMP JUMPDEST PUSH4 0x4E487B71 PUSH1 0xE0 SHL DUP13 MSTORE PUSH1 0x41 PUSH1 0x4 MSTORE PUSH1 0x24 DUP13 REVERT JUMPDEST ADD MLOAD SWAP1 POP CODESIZE DUP1 PUSH2 0xC5D JUMP JUMPDEST PUSH1 0x1 DUP6 ADD DUP13 MSTORE PUSH1 0xA0 MLOAD DUP13 KECCAK256 SWAP3 POP PUSH1 0x1F NOT DUP5 AND DUP13 JUMPDEST DUP2 DUP2 LT PUSH2 0x1FE6 JUMPI POP SWAP1 DUP5 PUSH1 0x1 SWAP6 SWAP5 SWAP4 SWAP3 LT PUSH2 0x1FCD JUMPI JUMPDEST POP POP POP DUP2 SHL ADD PUSH1 0x1 DUP3 ADD SSTORE PUSH2 0xC75 JUMP JUMPDEST ADD MLOAD PUSH1 0x0 NOT PUSH1 0xF8 DUP5 PUSH1 0x3 SHL AND SHR NOT AND SWAP1 SSTORE CODESIZE DUP1 DUP1 PUSH2 0x1FBD JUMP JUMPDEST DUP3 DUP5 ADD MLOAD DUP6 SSTORE PUSH1 0xA0 MLOAD PUSH1 0x1 SWAP1 SWAP6 ADD SWAP5 SWAP4 DUP5 ADD SWAP4 ADD PUSH2 0x1FA7 JUMP JUMPDEST SWAP1 SWAP2 POP PUSH1 0x1 DUP5 ADD DUP12 MSTORE PUSH1 0xA0 MLOAD DUP12 KECCAK256 PUSH1 0x1F DUP5 ADD PUSH1 0x5 SHR DUP2 ADD PUSH1 0xA0 MLOAD DUP6 LT PUSH2 0x204B JUMPI JUMPDEST SWAP1 DUP5 SWAP4 SWAP3 SWAP2 JUMPDEST DUP14 PUSH1 0x1F DUP5 ADD PUSH1 0x5 SHR DUP4 ADD DUP3 LT PUSH2 0x203E JUMPI POP POP POP PUSH2 0xC46 JUMP JUMPDEST DUP2 SSTORE DUP6 SWAP5 POP PUSH1 0x1 ADD PUSH2 0x2026 JUMP JUMPDEST POP DUP1 PUSH2 0x2020 JUMP JUMPDEST ADD MLOAD SWAP1 POP CODESIZE DUP1 PUSH2 0xC02 JUMP JUMPDEST DUP5 DUP13 MSTORE PUSH1 0xA0 MLOAD DUP13 KECCAK256 SWAP3 POP PUSH1 0x1F NOT DUP5 AND DUP13 JUMPDEST DUP2 DUP2 LT PUSH2 0x20AA JUMPI POP SWAP1 DUP5 PUSH1 0x1 SWAP6 SWAP5 SWAP4 SWAP3 LT PUSH2 0x2091 JUMPI JUMPDEST POP POP POP DUP2 SHL ADD DUP2 SSTORE PUSH2 0xC17 JUMP JUMPDEST ADD MLOAD PUSH1 0x0 NOT PUSH1 0xF8 DUP5 PUSH1 0x3 SHL AND SHR NOT AND SWAP1 SSTORE CODESIZE DUP1 DUP1 PUSH2 0x2084 JUMP JUMPDEST DUP3 DUP5 ADD MLOAD DUP6 SSTORE PUSH1 0xA0 MLOAD PUSH1 0x1 SWAP1 SWAP6 ADD SWAP5 SWAP4 DUP5 ADD SWAP4 ADD PUSH2 0x206E JUMP JUMPDEST SWAP1 SWAP2 POP DUP4 DUP12 MSTORE PUSH1 0xA0 MLOAD DUP12 KECCAK256 PUSH1 0x1F DUP5 ADD PUSH1 0x5 SHR DUP2 ADD PUSH1 0xA0 MLOAD DUP6 LT PUSH2 0x210C JUMPI JUMPDEST SWAP1 DUP5 SWAP4 SWAP3 SWAP2 JUMPDEST DUP14 PUSH1 0x1F DUP5 ADD PUSH1 0x5 SHR DUP4 ADD DUP3 LT PUSH2 0x20FF JUMPI POP POP POP PUSH2 0xBEB JUMP JUMPDEST DUP2 SSTORE DUP6 SWAP5 POP PUSH1 0x1 ADD PUSH2 0x20E7 JUMP JUMPDEST POP DUP1 PUSH2 0x20E1 JUMP JUMPDEST DUP4 MLOAD PUSH3 0x461BCD PUSH1 0xE5 SHL DUP2 MSTORE PUSH1 0x20 PUSH1 0x4 DUP3 ADD MSTORE PUSH1 0x17 PUSH1 0x24 DUP3 ADD MSTORE PUSH23 0x43504F544220494420616C726561647920657869737473 PUSH1 0x48 SHL PUSH1 0x44 DUP3 ADD MSTORE PUSH1 0x64 SWAP1 REVERT JUMPDEST DUP4 MLOAD PUSH3 0x461BCD PUSH1 0xE5 SHL DUP2 MSTORE PUSH1 0x20 PUSH1 0x4 DUP3 ADD MSTORE PUSH1 0x21 PUSH1 0x24 DUP3 ADD MSTORE PUSH32 0x416363657373207265737472696374656420746F20466163746F727920726F6C PUSH1 0x44 DUP3 ADD MSTORE PUSH1 0x65 PUSH1 0xF8 SHL PUSH1 0x64 DUP3 ADD MSTORE PUSH1 0x84 SWAP1 REVERT JUMPDEST PUSH2 0x21C1 SWAP2 POP PUSH1 0x20 RETURNDATASIZE PUSH1 0x20 GT PUSH2 0x21C7 JUMPI JUMPDEST PUSH2 0x21B9 DUP2 DUP4 PUSH2 0x52D7 JUMP JUMPDEST DUP2 ADD SWAP1 PUSH2 0x59FE JUMP JUMPDEST CODESIZE PUSH2 0xB1F JUMP JUMPDEST POP RETURNDATASIZE PUSH2 0x21AF JUMP JUMPDEST DUP6 MLOAD RETURNDATASIZE DUP11 DUP3 RETURNDATACOPY RETURNDATASIZE SWAP1 REVERT JUMPDEST DUP6 PUSH2 0x21E5 SWAP2 SWAP7 SWAP3 SWAP7 PUSH2 0x52D7 JUMP JUMPDEST SWAP4 CODESIZE PUSH2 0xA30 JUMP JUMPDEST PUSH1 0x40 MLOAD RETURNDATASIZE DUP9 DUP3 RETURNDATACOPY RETURNDATASIZE SWAP1 REVERT JUMPDEST PUSH4 0x4E487B71 PUSH1 0xE0 SHL DUP8 MSTORE PUSH1 0x21 PUSH1 0x4 MSTORE PUSH1 0x24 DUP8 REVERT JUMPDEST DUP6 DUP1 REVERT JUMPDEST DUP4 DUP1 REVERT JUMPDEST POP CALLVALUE PUSH2 0x1C4 JUMPI DUP1 PUSH1 0x3 NOT CALLDATASIZE ADD SLT PUSH2 0x1C4 JUMPI PUSH2 0x222F PUSH2 0xE8 PUSH2 0x5A45 JUMP JUMPDEST PUSH2 0x2255 PUSH1 0xFF PUSH1 0x40 MLOAD PUSH1 0x20 DUP2 ADD SWAP1 PUSH4 0x31B237B1 PUSH1 0xE1 SHL DUP3 MSTORE PUSH1 0x4 DUP2 MSTORE PUSH2 0x114 PUSH1 0x24 DUP3 PUSH2 0x52D7 JUMP JUMPDEST SWAP2 DUP1 SWAP2 PUSH1 0x4 SLOAD SWAP3 JUMPDEST DUP4 DUP2 LT PUSH2 0x2272 JUMPI PUSH1 0x40 MLOAD DUP1 PUSH2 0x13B DUP8 DUP3 PUSH2 0x5850 JUMP JUMPDEST DUP2 PUSH1 0x3 PUSH2 0x165 PUSH2 0x2284 PUSH2 0x151 DUP6 PUSH2 0x54FA JUMP JUMPDEST MLOAD SWAP1 KECCAK256 EQ PUSH2 0x2295 JUMPI JUMPDEST PUSH1 0x1 ADD PUSH2 0x225D JUMP JUMPDEST SWAP2 PUSH2 0x22AB PUSH1 0x1 SWAP2 PUSH2 0x1B6 PUSH2 0x1A0 PUSH2 0x19A DUP8 PUSH2 0x54FA JUMP JUMPDEST SWAP3 SWAP1 POP PUSH2 0x228D JUMP JUMPDEST POP CALLVALUE PUSH2 0x1C4 JUMPI PUSH1 0x20 CALLDATASIZE PUSH1 0x3 NOT ADD SLT PUSH2 0x1C4 JUMPI PUSH1 0x4 CALLDATALOAD PUSH1 0x1 PUSH1 0x1 PUSH1 0x40 SHL SUB DUP2 GT PUSH2 0x2EB JUMPI PUSH2 0x22E4 SWAP1 CALLDATASIZE SWAP1 PUSH1 0x4 ADD PUSH2 0x5313 JUMP JUMPDEST PUSH1 0x4 SLOAD PUSH1 0x20 DUP3 ADD SWAP3 SWAP1 SWAP2 DUP2 DUP1 JUMPDEST DUP5 DUP2 LT PUSH2 0x23A2 JUMPI POP PUSH1 0xFF PUSH2 0x2305 SWAP2 AND PUSH2 0x5B35 JUMP JUMPDEST SWAP4 DUP3 JUMPDEST DUP5 DUP2 LT PUSH2 0x231D JUMPI PUSH1 0x40 MLOAD DUP1 PUSH2 0x13B DUP9 DUP3 PUSH2 0x5850 JUMP JUMPDEST PUSH1 0x2 PUSH2 0x165 PUSH2 0x232E PUSH2 0x151 DUP5 PUSH2 0x54FA JUMP JUMPDEST MLOAD SWAP1 KECCAK256 PUSH1 0x40 MLOAD PUSH1 0x20 DUP2 ADD SWAP1 PUSH2 0x235D PUSH1 0x20 DUP3 DUP9 MLOAD PUSH2 0x234C DUP2 DUP8 DUP12 PUSH2 0x5629 JUMP JUMPDEST DUP2 ADD SUB ADD PUSH1 0x1F NOT DUP2 ADD DUP4 MSTORE DUP3 PUSH2 0x52D7 JUMP JUMPDEST MLOAD SWAP1 KECCAK256 EQ PUSH2 0x236E JUMPI JUMPDEST PUSH1 0x1 ADD PUSH2 0x2308 JUMP JUMPDEST SWAP3 PUSH2 0x239A PUSH1 0x1 SWAP2 PUSH2 0x1B6 PUSH2 0x2384 PUSH2 0x19A DUP9 PUSH2 0x54FA JUMP JUMPDEST PUSH1 0xFF DUP4 AND SWAP1 PUSH2 0x2393 DUP3 DUP13 PUSH2 0x5B85 JUMP JUMPDEST MSTORE DUP10 PUSH2 0x5B85 JUMP JUMPDEST SWAP4 SWAP1 POP PUSH2 0x2366 JUMP JUMPDEST PUSH1 0x2 PUSH2 0x165 PUSH2 0x23B3 PUSH2 0x151 DUP5 PUSH2 0x54FA JUMP JUMPDEST MLOAD SWAP1 KECCAK256 PUSH1 0x40 MLOAD PUSH1 0x20 DUP2 ADD SWAP1 PUSH2 0x23D3 PUSH1 0x20 DUP3 DUP5 PUSH2 0x234C DUP14 DUP12 MLOAD SWAP3 DUP4 SWAP2 PUSH2 0x5629 JUMP JUMPDEST MLOAD SWAP1 KECCAK256 EQ PUSH2 0x23E4 JUMPI JUMPDEST PUSH1 0x1 ADD PUSH2 0x22F1 JUMP JUMPDEST SWAP1 PUSH2 0x23F0 PUSH1 0x1 SWAP2 PUSH2 0x5C08 JUMP JUMPDEST SWAP2 SWAP1 POP PUSH2 0x23DC JUMP JUMPDEST POP CALLVALUE PUSH2 0x1C4 JUMPI PUSH2 0x2407 CALLDATASIZE PUSH2 0x535F JUMP JUMPDEST DUP3 SLOAD PUSH1 0x40 MLOAD PUSH4 0x95A8C58D PUSH1 0xE0 SHL DUP2 MSTORE CALLER PUSH1 0x4 DUP3 ADD MSTORE PUSH1 0x2 PUSH1 0x24 DUP3 ADD MSTORE SWAP2 SWAP3 SWAP2 SWAP1 PUSH1 0x20 SWAP1 DUP3 SWAP1 PUSH1 0x44 SWAP1 DUP3 SWAP1 PUSH1 0x1 PUSH1 0x1 PUSH1 0xA0 SHL SUB AND GAS STATICCALL SWAP1 DUP2 ISZERO PUSH2 0x2B0E JUMPI DUP5 SWAP2 PUSH2 0x2AEF JUMPI JUMPDEST POP ISZERO PUSH2 0x2AAA JUMPI PUSH1 0x20 DUP2 ADD PUSH2 0x245E DUP2 MLOAD PUSH2 0x56B7 JUMP JUMPDEST SWAP3 PUSH2 0x2469 DUP5 SLOAD PUSH2 0x554B JUMP JUMPDEST ISZERO PUSH2 0x2A74 JUMPI PUSH1 0x2 DUP5 ADD SWAP4 PUSH1 0xFF DUP6 SLOAD AND PUSH2 0x2481 DUP2 PUSH2 0x5671 JUMP JUMPDEST PUSH2 0x2A2F JUMPI PUSH1 0x40 DUP5 ADD MLOAD SWAP5 PUSH2 0x249D PUSH1 0x60 DUP7 ADD SWAP7 DUP8 MLOAD SWAP1 CALLER SWAP1 PUSH2 0x5CBE JUMP JUMPDEST PUSH1 0x8 DUP4 ADD DUP2 MLOAD DUP1 MLOAD SWAP1 PUSH1 0x1 PUSH1 0x1 PUSH1 0x40 SHL SUB DUP3 GT PUSH2 0x1DCB JUMPI DUP2 SWAP1 PUSH2 0x24C0 DUP5 SLOAD PUSH2 0x554B JUMP JUMPDEST PUSH1 0x1F DUP2 GT PUSH2 0x29DF JUMPI JUMPDEST POP PUSH1 0x20 SWAP1 PUSH1 0x1F DUP4 GT PUSH1 0x1 EQ PUSH2 0x297C JUMPI DUP13 SWAP3 PUSH2 0x2971 JUMPI JUMPDEST POP POP DUP2 PUSH1 0x1 SHL SWAP2 PUSH1 0x0 NOT SWAP1 PUSH1 0x3 SHL SHR NOT AND OR SWAP1 SSTORE JUMPDEST PUSH1 0x20 DUP2 ADD MLOAD PUSH1 0x9 DUP5 ADD DUP1 SLOAD PUSH1 0x1 PUSH1 0x1 PUSH1 0xA0 SHL SUB NOT AND PUSH1 0x1 PUSH1 0x1 PUSH1 0xA0 SHL SUB SWAP3 SWAP1 SWAP3 AND SWAP2 SWAP1 SWAP2 OR SWAP1 SSTORE PUSH1 0x40 ADD MLOAD DUP1 MLOAD PUSH1 0xA DUP5 ADD SWAP2 PUSH1 0x1 PUSH1 0x1 PUSH1 0x40 SHL SUB DUP3 GT PUSH2 0x1507 JUMPI DUP2 SWAP1 PUSH2 0x2540 DUP5 SLOAD PUSH2 0x554B JUMP JUMPDEST PUSH1 0x1F DUP2 GT PUSH2 0x2921 JUMPI JUMPDEST POP PUSH1 0x20 SWAP1 PUSH1 0x1F DUP4 GT PUSH1 0x1 EQ PUSH2 0x28BE JUMPI DUP12 SWAP3 PUSH2 0x28B3 JUMPI JUMPDEST POP POP DUP2 PUSH1 0x1 SHL SWAP2 PUSH1 0x0 NOT SWAP1 PUSH1 0x3 SHL SHR NOT AND OR SWAP1 SSTORE JUMPDEST PUSH1 0x1 PUSH1 0xFF NOT DUP3 SLOAD AND OR SWAP1 SSTORE TIMESTAMP PUSH1 0x4 DUP3 ADD SSTORE PUSH1 0x1 DUP5 MLOAD SWAP2 ADD SWAP1 DUP1 MLOAD SWAP1 PUSH1 0x1 PUSH1 0x1 PUSH1 0x40 SHL SUB DUP3 GT PUSH2 0x15B7 JUMPI DUP2 SWAP1 PUSH2 0x25A9 DUP5 SLOAD PUSH2 0x554B JUMP JUMPDEST PUSH1 0x1F DUP2 GT PUSH2 0x2863 JUMPI JUMPDEST POP PUSH1 0x20 SWAP1 PUSH1 0x1F DUP4 GT PUSH1 0x1 EQ PUSH2 0x2800 JUMPI DUP10 SWAP3 PUSH2 0x27F5 JUMPI JUMPDEST POP POP DUP2 PUSH1 0x1 SHL SWAP2 PUSH1 0x0 NOT SWAP1 PUSH1 0x3 SHL SHR NOT AND OR SWAP1 SSTORE JUMPDEST DUP5 JUMPDEST PUSH1 0x4 SLOAD DUP2 LT ISZERO PUSH2 0x2778 JUMPI PUSH2 0x25F2 DUP2 PUSH2 0x54FA JUMP JUMPDEST POP PUSH1 0x40 MLOAD PUSH2 0x2608 DUP2 PUSH2 0x165 PUSH1 0x20 DUP3 ADD DUP1 SWAP6 PUSH2 0x5971 JUMP JUMPDEST MLOAD SWAP1 KECCAK256 DUP4 MLOAD PUSH1 0x40 MLOAD PUSH2 0x262A PUSH1 0x20 DUP3 DUP2 PUSH2 0x234C DUP2 DUP4 ADD SWAP7 DUP8 DUP2 MLOAD SWAP4 DUP5 SWAP3 ADD PUSH2 0x5629 JUMP JUMPDEST MLOAD SWAP1 KECCAK256 EQ PUSH2 0x263B JUMPI JUMPDEST PUSH1 0x1 ADD PUSH2 0x25DF JUMP JUMPDEST DUP4 MLOAD PUSH1 0x1 PUSH2 0x2648 DUP4 PUSH2 0x54FA JUMP JUMPDEST POP ADD SWAP1 DUP1 MLOAD SWAP1 PUSH1 0x1 PUSH1 0x1 PUSH1 0x40 SHL SUB DUP3 GT PUSH2 0x1695 JUMPI PUSH2 0x2666 DUP4 SLOAD PUSH2 0x554B JUMP JUMPDEST PUSH1 0x1F DUP2 GT PUSH2 0x2733 JUMPI JUMPDEST POP PUSH1 0x20 SWAP1 PUSH1 0x1F DUP4 GT PUSH1 0x1 EQ PUSH2 0x26CC JUMPI PUSH1 0x1 SWAP5 SWAP4 SWAP3 SWAP2 DUP11 SWAP2 DUP4 PUSH2 0x26C1 JUMPI JUMPDEST POP POP PUSH1 0x0 NOT PUSH1 0x3 DUP4 SWAP1 SHL SHR NOT AND SWAP1 DUP5 SHL OR SWAP1 SSTORE JUMPDEST PUSH1 0x4 PUSH2 0x26AB DUP3 PUSH2 0x54FA JUMP JUMPDEST POP ADD DUP1 SLOAD PUSH2 0xFF00 NOT AND PUSH2 0x100 OR SWAP1 SSTORE SWAP1 POP PUSH2 0x2633 JUMP JUMPDEST ADD MLOAD SWAP1 POP CODESIZE DUP1 PUSH2 0x268C JUMP JUMPDEST DUP4 DUP11 MSTORE DUP2 DUP11 KECCAK256 SWAP2 SWAP1 PUSH1 0x1F NOT DUP5 AND DUP12 JUMPDEST DUP2 DUP2 LT PUSH2 0x271B JUMPI POP SWAP2 PUSH1 0x1 SWAP7 SWAP6 SWAP5 SWAP3 SWAP2 DUP4 DUP9 SWAP6 SWAP4 LT PUSH2 0x2702 JUMPI JUMPDEST POP POP POP DUP2 SHL ADD SWAP1 SSTORE PUSH2 0x26A0 JUMP JUMPDEST ADD MLOAD PUSH1 0x0 NOT PUSH1 0xF8 DUP5 PUSH1 0x3 SHL AND SHR NOT AND SWAP1 SSTORE CODESIZE DUP1 DUP1 PUSH2 0x26F5 JUMP JUMPDEST SWAP3 SWAP4 PUSH1 0x20 PUSH1 0x1 DUP2 SWAP3 DUP8 DUP7 ADD MLOAD DUP2 SSTORE ADD SWAP6 ADD SWAP4 ADD PUSH2 0x26DB JUMP JUMPDEST DUP4 DUP11 MSTORE PUSH1 0x20 DUP11 KECCAK256 PUSH1 0x1F DUP5 ADD PUSH1 0x5 SHR DUP2 ADD SWAP2 PUSH1 0x20 DUP6 LT PUSH2 0x276E JUMPI JUMPDEST PUSH1 0x1F ADD PUSH1 0x5 SHR ADD SWAP1 JUMPDEST DUP2 DUP2 LT PUSH2 0x2763 JUMPI POP PUSH2 0x266F JUMP JUMPDEST DUP11 DUP2 SSTORE PUSH1 0x1 ADD PUSH2 0x2756 JUMP JUMPDEST SWAP1 SWAP2 POP DUP2 SWAP1 PUSH2 0x274D JUMP JUMPDEST DUP6 PUSH32 0x8D8F26B533BC5F62A32DE1FAA67FACBF43E75BD50AB3E60343FD421507E8DD63 PUSH2 0x27C7 DUP5 PUSH2 0x27E9 DUP9 PUSH1 0xFF DUP12 MLOAD SWAP4 AND SWAP1 PUSH2 0x27B2 DUP3 PUSH2 0x5671 JUMP JUMPDEST MLOAD PUSH1 0x40 MLOAD SWAP5 DUP6 SWAP5 PUSH1 0xA0 DUP7 MSTORE PUSH1 0xA0 DUP7 ADD SWAP1 PUSH2 0x564C JUMP JUMPDEST SWAP2 CALLER PUSH1 0x20 DUP7 ADD MSTORE PUSH2 0x27D7 DUP2 PUSH2 0x5671 JUMP JUMPDEST PUSH1 0x40 DUP6 ADD MSTORE DUP4 DUP3 SUB PUSH1 0x60 DUP6 ADD MSTORE PUSH2 0x564C JUMP JUMPDEST TIMESTAMP PUSH1 0x80 DUP4 ADD MSTORE SUB SWAP1 LOG1 DUP1 RETURN JUMPDEST ADD MLOAD SWAP1 POP CODESIZE DUP1 PUSH2 0x25C8 JUMP JUMPDEST DUP5 DUP11 MSTORE DUP2 DUP11 KECCAK256 SWAP3 POP PUSH1 0x1F NOT DUP5 AND DUP11 JUMPDEST DUP2 DUP2 LT PUSH2 0x284B JUMPI POP SWAP1 DUP5 PUSH1 0x1 SWAP6 SWAP5 SWAP4 SWAP3 LT PUSH2 0x2832 JUMPI JUMPDEST POP POP POP DUP2 SHL ADD SWAP1 SSTORE PUSH2 0x25DD JUMP JUMPDEST ADD MLOAD PUSH1 0x0 NOT PUSH1 0xF8 DUP5 PUSH1 0x3 SHL AND SHR NOT AND SWAP1 SSTORE CODESIZE DUP1 DUP1 PUSH2 0x2825 JUMP JUMPDEST SWAP3 SWAP4 PUSH1 0x20 PUSH1 0x1 DUP2 SWAP3 DUP8 DUP7 ADD MLOAD DUP2 SSTORE ADD SWAP6 ADD SWAP4 ADD PUSH2 0x280F JUMP JUMPDEST SWAP1 SWAP2 POP DUP4 DUP10 MSTORE PUSH1 0x20 DUP10 KECCAK256 PUSH1 0x1F DUP5 ADD PUSH1 0x5 SHR DUP2 ADD SWAP2 PUSH1 0x20 DUP6 LT PUSH2 0x28A9 JUMPI JUMPDEST SWAP1 PUSH1 0x1F DUP6 SWAP5 SWAP4 SWAP3 ADD PUSH1 0x5 SHR ADD SWAP1 JUMPDEST DUP2 DUP2 LT PUSH2 0x289B JUMPI POP PUSH2 0x25B2 JUMP JUMPDEST DUP11 DUP2 SSTORE DUP5 SWAP4 POP PUSH1 0x1 ADD PUSH2 0x288E JUMP JUMPDEST SWAP1 SWAP2 POP DUP2 SWAP1 PUSH2 0x2880 JUMP JUMPDEST ADD MLOAD SWAP1 POP CODESIZE DUP1 PUSH2 0x255F JUMP JUMPDEST DUP5 DUP13 MSTORE DUP2 DUP13 KECCAK256 SWAP3 POP PUSH1 0x1F NOT DUP5 AND DUP13 JUMPDEST DUP2 DUP2 LT PUSH2 0x2909 JUMPI POP SWAP1 DUP5 PUSH1 0x1 SWAP6 SWAP5 SWAP4 SWAP3 LT PUSH2 0x28F0 JUMPI JUMPDEST POP POP POP DUP2 SHL ADD SWAP1 SSTORE PUSH2 0x2574 JUMP JUMPDEST ADD MLOAD PUSH1 0x0 NOT PUSH1 0xF8 DUP5 PUSH1 0x3 SHL AND SHR NOT AND SWAP1 SSTORE CODESIZE DUP1 DUP1 PUSH2 0x28E3 JUMP JUMPDEST SWAP3 SWAP4 PUSH1 0x20 PUSH1 0x1 DUP2 SWAP3 DUP8 DUP7 ADD MLOAD DUP2 SSTORE ADD SWAP6 ADD SWAP4 ADD PUSH2 0x28CD JUMP JUMPDEST SWAP1 SWAP2 POP DUP4 DUP12 MSTORE PUSH1 0x20 DUP12 KECCAK256 PUSH1 0x1F DUP5 ADD PUSH1 0x5 SHR DUP2 ADD SWAP2 PUSH1 0x20 DUP6 LT PUSH2 0x2967 JUMPI JUMPDEST SWAP1 PUSH1 0x1F DUP6 SWAP5 SWAP4 SWAP3 ADD PUSH1 0x5 SHR ADD SWAP1 JUMPDEST DUP2 DUP2 LT PUSH2 0x2959 JUMPI POP PUSH2 0x2549 JUMP JUMPDEST DUP13 DUP2 SSTORE DUP5 SWAP4 POP PUSH1 0x1 ADD PUSH2 0x294C JUMP JUMPDEST SWAP1 SWAP2 POP DUP2 SWAP1 PUSH2 0x293E JUMP JUMPDEST ADD MLOAD SWAP1 POP CODESIZE DUP1 PUSH2 0x24DF JUMP JUMPDEST DUP5 DUP14 MSTORE DUP2 DUP14 KECCAK256 SWAP3 POP PUSH1 0x1F NOT DUP5 AND DUP14 JUMPDEST DUP2 DUP2 LT PUSH2 0x29C7 JUMPI POP SWAP1 DUP5 PUSH1 0x1 SWAP6 SWAP5 SWAP4 SWAP3 LT PUSH2 0x29AE JUMPI JUMPDEST POP POP POP DUP2 SHL ADD SWAP1 SSTORE PUSH2 0x24F4 JUMP JUMPDEST ADD MLOAD PUSH1 0x0 NOT PUSH1 0xF8 DUP5 PUSH1 0x3 SHL AND SHR NOT AND SWAP1 SSTORE CODESIZE DUP1 DUP1 PUSH2 0x29A1 JUMP JUMPDEST SWAP3 SWAP4 PUSH1 0x20 PUSH1 0x1 DUP2 SWAP3 DUP8 DUP7 ADD MLOAD DUP2 SSTORE ADD SWAP6 ADD SWAP4 ADD PUSH2 0x298B JUMP JUMPDEST SWAP1 SWAP2 POP DUP4 DUP13 MSTORE PUSH1 0x20 DUP13 KECCAK256 PUSH1 0x1F DUP5 ADD PUSH1 0x5 SHR DUP2 ADD SWAP2 PUSH1 0x20 DUP6 LT PUSH2 0x2A25 JUMPI JUMPDEST SWAP1 PUSH1 0x1F DUP6 SWAP5 SWAP4 SWAP3 ADD PUSH1 0x5 SHR ADD SWAP1 JUMPDEST DUP2 DUP2 LT PUSH2 0x2A17 JUMPI POP PUSH2 0x24C9 JUMP JUMPDEST DUP14 DUP2 SSTORE DUP5 SWAP4 POP PUSH1 0x1 ADD PUSH2 0x2A0A JUMP JUMPDEST SWAP1 SWAP2 POP DUP2 SWAP1 PUSH2 0x29FC JUMP JUMPDEST PUSH1 0x40 MLOAD PUSH3 0x461BCD PUSH1 0xE5 SHL DUP2 MSTORE PUSH1 0x20 PUSH1 0x4 DUP3 ADD MSTORE PUSH1 0x1F PUSH1 0x24 DUP3 ADD MSTORE PUSH32 0x43444F4220737461747573206D75737420626520275265717565737465642700 PUSH1 0x44 DUP3 ADD MSTORE PUSH1 0x64 SWAP1 REVERT JUMPDEST PUSH1 0x40 MLOAD PUSH3 0x461BCD PUSH1 0xE5 SHL DUP2 MSTORE PUSH1 0x20 PUSH1 0x4 DUP3 ADD MSTORE PUSH1 0xE PUSH1 0x24 DUP3 ADD MSTORE PUSH14 0x10D113D0881B9BDD08199BDD5B99 PUSH1 0x92 SHL PUSH1 0x44 DUP3 ADD MSTORE PUSH1 0x64 SWAP1 REVERT JUMPDEST PUSH1 0x40 MLOAD PUSH3 0x461BCD PUSH1 0xE5 SHL DUP2 MSTORE PUSH1 0x20 PUSH1 0x4 DUP3 ADD MSTORE PUSH1 0x1E PUSH1 0x24 DUP3 ADD MSTORE PUSH32 0x416363657373207265737472696374656420746F2042504F4D20726F6C650000 PUSH1 0x44 DUP3 ADD MSTORE PUSH1 0x64 SWAP1 REVERT JUMPDEST PUSH2 0x2B08 SWAP2 POP PUSH1 0x20 RETURNDATASIZE PUSH1 0x20 GT PUSH2 0x21C7 JUMPI PUSH2 0x21B9 DUP2 DUP4 PUSH2 0x52D7 JUMP JUMPDEST CODESIZE PUSH2 0x244A JUMP JUMPDEST PUSH1 0x40 MLOAD RETURNDATASIZE DUP7 DUP3 RETURNDATACOPY RETURNDATASIZE SWAP1 REVERT JUMPDEST POP CALLVALUE PUSH2 0x1C4 JUMPI PUSH1 0x40 CALLDATASIZE PUSH1 0x3 NOT ADD SLT PUSH2 0x1C4 JUMPI PUSH1 0x4 CALLDATALOAD PUSH1 0x1 PUSH1 0x1 PUSH1 0x40 SHL SUB DUP2 GT PUSH2 0x2EB JUMPI PUSH2 0x2B4A SWAP1 CALLDATASIZE SWAP1 PUSH1 0x4 ADD PUSH2 0x5313 JUMP JUMPDEST SWAP1 PUSH2 0x2B67 PUSH1 0x20 PUSH1 0x24 CALLDATALOAD SWAP4 DUP2 PUSH1 0x40 MLOAD SWAP4 DUP3 DUP6 DUP1 SWAP5 MLOAD SWAP4 DUP5 SWAP3 ADD PUSH2 0x5629 JUMP JUMPDEST DUP2 ADD PUSH1 0x3 DUP2 MSTORE SUB ADD SWAP1 KECCAK256 SWAP1 DUP2 SLOAD DUP4 LT ISZERO PUSH2 0x1C4 JUMPI PUSH1 0x20 PUSH1 0xFF PUSH2 0x2B89 DUP6 DUP6 PUSH2 0x5830 JUMP JUMPDEST SWAP1 SLOAD SWAP1 PUSH1 0x3 SHL SHR AND PUSH1 0x40 MLOAD SWAP1 DUP2 MSTORE RETURN JUMPDEST POP CALLVALUE PUSH2 0x1C4 JUMPI PUSH1 0x20 CALLDATASIZE PUSH1 0x3 NOT ADD SLT PUSH2 0x1C4 JUMPI PUSH1 0x4 CALLDATALOAD SWAP1 PUSH1 0x1 PUSH1 0x1 PUSH1 0x40 SHL SUB DUP3 GT PUSH2 0x1C4 JUMPI PUSH2 0x2C22 PUSH2 0x2BD2 PUSH1 0x20 PUSH2 0x330 CALLDATASIZE PUSH1 0x4 DUP8 ADD PUSH2 0x5313 JUMP JUMPDEST DUP2 ADD PUSH1 0x2 DUP2 MSTORE SUB ADD SWAP1 KECCAK256 PUSH2 0x2BE5 DUP2 PUSH2 0x5585 JUMP JUMPDEST SWAP1 PUSH2 0x2C3E PUSH2 0x2BF5 PUSH1 0x1 DUP4 ADD PUSH2 0x5585 JUMP JUMPDEST SWAP2 PUSH2 0x2C30 PUSH1 0xFF PUSH1 0xB PUSH2 0x2C09 PUSH1 0x2 DUP6 ADD PUSH2 0x5742 JUMP JUMPDEST SWAP4 ADD SLOAD AND SWAP4 PUSH1 0x40 MLOAD SWAP7 DUP8 SWAP7 PUSH1 0x80 DUP9 MSTORE PUSH1 0x80 DUP9 ADD SWAP1 PUSH2 0x564C JUMP JUMPDEST SWAP1 DUP7 DUP3 SUB PUSH1 0x20 DUP9 ADD MSTORE PUSH2 0x564C JUMP JUMPDEST SWAP1 DUP5 DUP3 SUB PUSH1 0x40 DUP7 ADD MSTORE PUSH2 0x57D2 JUMP JUMPDEST SWAP1 PUSH2 0x2C48 DUP2 PUSH2 0x5671 JUMP JUMPDEST PUSH1 0x60 DUP4 ADD MSTORE SUB SWAP1 RETURN JUMPDEST POP CALLVALUE PUSH2 0x1C4 JUMPI PUSH1 0x20 CALLDATASIZE PUSH1 0x3 NOT ADD SLT PUSH2 0x1C4 JUMPI PUSH1 0x4 CALLDATALOAD SWAP1 PUSH1 0x1 PUSH1 0x1 PUSH1 0x40 SHL SUB DUP3 GT PUSH2 0x1C4 JUMPI PUSH2 0x2D2A PUSH2 0x2CA6 PUSH1 0x20 PUSH2 0x2C8A CALLDATASIZE PUSH1 0x4 DUP8 ADD PUSH2 0x5313 JUMP JUMPDEST PUSH2 0x2C92 PUSH2 0x5ABE JUMP JUMPDEST POP DUP2 PUSH1 0x40 MLOAD SWAP4 DUP3 DUP6 DUP1 SWAP5 MLOAD SWAP4 DUP5 SWAP3 ADD PUSH2 0x5629 JUMP JUMPDEST DUP2 ADD PUSH1 0x2 DUP2 MSTORE SUB ADD SWAP1 KECCAK256 PUSH1 0x40 MLOAD SWAP1 PUSH2 0x2CBD DUP3 PUSH2 0x5255 JUMP JUMPDEST PUSH2 0x2CC6 DUP2 PUSH2 0x5585 JUMP JUMPDEST DUP3 MSTORE PUSH2 0x2D50 PUSH2 0x2CD7 PUSH1 0x1 DUP4 ADD PUSH2 0x5585 JUMP JUMPDEST SWAP2 PUSH1 0x20 DUP5 ADD SWAP3 DUP4 MSTORE PUSH2 0x2D3D PUSH1 0xFF PUSH1 0xB PUSH2 0x2CF2 PUSH1 0x2 DUP6 ADD PUSH2 0x5742 JUMP JUMPDEST SWAP4 PUSH1 0x40 DUP9 ADD SWAP5 DUP6 MSTORE ADD SLOAD AND SWAP4 PUSH1 0x60 DUP7 ADD SWAP5 PUSH2 0x2D0C DUP2 PUSH2 0x5671 JUMP JUMPDEST DUP6 MSTORE PUSH1 0x40 MLOAD SWAP7 DUP8 SWAP7 PUSH1 0x20 DUP9 MSTORE MLOAD PUSH1 0x80 PUSH1 0x20 DUP10 ADD MSTORE PUSH1 0xA0 DUP9 ADD SWAP1 PUSH2 0x564C JUMP JUMPDEST SWAP1 MLOAD DUP7 DUP3 SUB PUSH1 0x1F NOT ADD PUSH1 0x40 DUP9 ADD MSTORE PUSH2 0x564C JUMP JUMPDEST SWAP1 MLOAD DUP5 DUP3 SUB PUSH1 0x1F NOT ADD PUSH1 0x60 DUP7 ADD MSTORE PUSH2 0x57D2 JUMP JUMPDEST SWAP1 MLOAD PUSH2 0x2D5B DUP2 PUSH2 0x5671 JUMP JUMPDEST PUSH1 0x80 DUP4 ADD MSTORE SUB SWAP1 RETURN JUMPDEST POP CALLVALUE PUSH2 0x1C4 JUMPI PUSH1 0x20 CALLDATASIZE PUSH1 0x3 NOT ADD SLT PUSH2 0x1C4 JUMPI PUSH1 0x4 CALLDATALOAD SWAP1 PUSH1 0x1 PUSH1 0x1 PUSH1 0x40 SHL SUB DUP3 GT PUSH2 0x1C4 JUMPI PUSH2 0x2E22 PUSH2 0x2D9D PUSH1 0x20 PUSH2 0x2C8A CALLDATASIZE PUSH1 0x4 DUP8 ADD PUSH2 0x5313 JUMP JUMPDEST DUP2 ADD PUSH1 0x1 DUP2 MSTORE SUB ADD SWAP1 KECCAK256 PUSH1 0x40 MLOAD SWAP1 PUSH2 0x2DB4 DUP3 PUSH2 0x5255 JUMP JUMPDEST PUSH2 0x2DBD DUP2 PUSH2 0x5585 JUMP JUMPDEST DUP3 MSTORE PUSH2 0x13B PUSH2 0x2E48 PUSH2 0x2DD1 PUSH1 0x1 DUP5 ADD PUSH2 0x5585 JUMP JUMPDEST SWAP3 PUSH1 0x20 DUP6 ADD SWAP4 DUP5 MSTORE PUSH2 0x2E35 PUSH1 0xFF PUSH1 0xB PUSH2 0x2DEC PUSH1 0x2 DUP6 ADD PUSH2 0x5742 JUMP JUMPDEST SWAP4 PUSH1 0x40 DUP10 ADD SWAP5 DUP6 MSTORE ADD SLOAD AND SWAP5 PUSH2 0x2E06 PUSH1 0x60 DUP9 ADD SWAP7 DUP8 PUSH2 0x5A16 JUMP JUMPDEST PUSH1 0x40 MLOAD SWAP8 DUP9 SWAP8 PUSH1 0x20 DUP10 MSTORE MLOAD PUSH1 0x80 PUSH1 0x20 DUP11 ADD MSTORE PUSH1 0xA0 DUP10 ADD SWAP1 PUSH2 0x564C JUMP JUMPDEST SWAP1 MLOAD DUP8 DUP3 SUB PUSH1 0x1F NOT ADD PUSH1 0x40 DUP10 ADD MSTORE PUSH2 0x564C JUMP JUMPDEST SWAP1 MLOAD DUP6 DUP3 SUB PUSH1 0x1F NOT ADD PUSH1 0x60 DUP8 ADD MSTORE PUSH2 0x57D2 JUMP JUMPDEST SWAP2 MLOAD PUSH1 0x80 DUP5 ADD SWAP1 PUSH2 0x5823 JUMP JUMPDEST POP CALLVALUE PUSH2 0x1C4 JUMPI PUSH2 0x2E63 CALLDATASIZE PUSH2 0x5440 JUMP JUMPDEST DUP3 SLOAD PUSH1 0x40 MLOAD PUSH4 0x95A8C58D PUSH1 0xE0 SHL DUP2 MSTORE CALLER PUSH1 0x4 DUP3 ADD MSTORE PUSH1 0x1 PUSH1 0x24 DUP3 ADD MSTORE SWAP2 SWAP3 SWAP2 SWAP1 PUSH1 0x20 SWAP1 DUP3 SWAP1 PUSH1 0x44 SWAP1 DUP3 SWAP1 PUSH1 0x1 PUSH1 0x1 PUSH1 0xA0 SHL SUB AND GAS STATICCALL SWAP1 DUP2 ISZERO PUSH2 0x2B0E JUMPI DUP5 SWAP2 PUSH2 0x3C72 JUMPI JUMPDEST POP ISZERO PUSH2 0x3C2D JUMPI PUSH2 0x2EB9 PUSH2 0xB32 DUP3 MLOAD PUSH2 0x56B7 JUMP JUMPDEST PUSH2 0x3BEF JUMPI PUSH1 0x20 DUP2 ADD MLOAD PUSH2 0x2ED4 PUSH1 0x40 DUP4 ADD SWAP2 DUP3 MLOAD SWAP1 CALLER SWAP1 PUSH2 0x5CBE JUMP JUMPDEST SWAP2 PUSH2 0x2F04 PUSH1 0x20 SWAP4 PUSH2 0xB81 PUSH1 0x40 MLOAD PUSH2 0x2EEB DUP8 DUP3 PUSH2 0x52D7 JUMP JUMPDEST DUP9 DUP2 MSTORE PUSH1 0x40 MLOAD SWAP1 PUSH2 0x2EFC DUP9 DUP4 PUSH2 0x52D7 JUMP JUMPDEST DUP10 DUP3 MSTORE PUSH2 0x5C96 JUMP JUMPDEST PUSH1 0xFF DUP3 MLOAD SWAP6 AND SWAP5 PUSH2 0x2F14 DUP7 PUSH2 0x5671 JUMP JUMPDEST PUSH1 0x40 MLOAD SWAP1 PUSH2 0x2F21 DUP3 PUSH2 0x5255 JUMP JUMPDEST DUP2 MSTORE PUSH1 0x40 MLOAD SWAP2 PUSH2 0x2F31 DUP7 DUP5 PUSH2 0x52D7 JUMP JUMPDEST DUP8 DUP4 MSTORE DUP6 DUP3 ADD SWAP3 DUP4 MSTORE PUSH1 0x40 DUP3 ADD SWAP1 DUP2 MSTORE PUSH1 0x60 DUP3 ADD SWAP3 PUSH2 0x2F4F DUP9 PUSH2 0x5671 JUMP JUMPDEST DUP8 DUP5 MSTORE PUSH2 0x2F5C DUP6 MLOAD PUSH2 0x56B7 JUMP JUMPDEST SWAP3 MLOAD DUP1 MLOAD SWAP1 PUSH1 0x1 PUSH1 0x1 PUSH1 0x40 SHL SUB DUP3 GT PUSH2 0x1DCB JUMPI DUP2 SWAP1 PUSH2 0x2F7B DUP7 SLOAD PUSH2 0x554B JUMP JUMPDEST PUSH1 0x1F DUP2 GT PUSH2 0x3BA1 JUMPI JUMPDEST POP DUP10 SWAP1 PUSH1 0x1F DUP4 GT PUSH1 0x1 EQ PUSH2 0x3B3E JUMPI DUP13 SWAP3 PUSH2 0x3B33 JUMPI JUMPDEST POP POP DUP2 PUSH1 0x1 SHL SWAP2 PUSH1 0x0 NOT SWAP1 PUSH1 0x3 SHL SHR NOT AND OR DUP4 SSTORE JUMPDEST MLOAD DUP1 MLOAD PUSH1 0x1 DUP5 ADD SWAP2 PUSH1 0x1 PUSH1 0x1 PUSH1 0x40 SHL SUB DUP3 GT PUSH2 0x1DCB JUMPI DUP2 SWAP1 PUSH2 0x2FD0 DUP5 SLOAD PUSH2 0x554B JUMP JUMPDEST PUSH1 0x1F DUP2 GT PUSH2 0x3AE5 JUMPI JUMPDEST POP DUP10 SWAP1 PUSH1 0x1F DUP4 GT PUSH1 0x1 EQ PUSH2 0x3A82 JUMPI DUP13 SWAP3 PUSH2 0x3A77 JUMPI JUMPDEST POP POP DUP2 PUSH1 0x1 SHL SWAP2 PUSH1 0x0 NOT SWAP1 PUSH1 0x3 SHL SHR NOT AND OR SWAP1 SSTORE JUMPDEST MLOAD PUSH2 0x3012 DUP2 MLOAD PUSH2 0xC87 DUP2 PUSH2 0x5671 JUMP JUMPDEST DUP1 DUP7 ADD MLOAD PUSH1 0x3 DUP4 ADD SSTORE PUSH1 0x40 DUP2 ADD MLOAD PUSH1 0x4 DUP4 ADD SSTORE PUSH1 0x60 DUP2 ADD MLOAD DUP1 MLOAD DUP1 MLOAD PUSH1 0x5 DUP6 ADD SWAP2 PUSH1 0x1 PUSH1 0x1 PUSH1 0x40 SHL SUB DUP3 GT PUSH2 0x1F74 JUMPI DUP2 SWAP1 PUSH2 0x304D DUP5 SLOAD PUSH2 0x554B JUMP JUMPDEST PUSH1 0x1F DUP2 GT PUSH2 0x3A26 JUMPI JUMPDEST POP DUP11 SWAP1 DUP14 PUSH1 0x1F DUP5 GT PUSH1 0x1 EQ PUSH2 0x39C3 JUMPI SWAP3 PUSH2 0x39B8 JUMPI JUMPDEST POP POP DUP2 PUSH1 0x1 SHL SWAP2 PUSH1 0x0 NOT SWAP1 PUSH1 0x3 SHL SHR NOT AND OR SWAP1 SSTORE JUMPDEST DUP1 DUP8 ADD MLOAD PUSH1 0x6 DUP5 ADD DUP1 SLOAD PUSH1 0x1 PUSH1 0x1 PUSH1 0xA0 SHL SUB NOT AND PUSH1 0x1 PUSH1 0x1 PUSH1 0xA0 SHL SUB SWAP3 SWAP1 SWAP3 AND SWAP2 SWAP1 SWAP2 OR SWAP1 SSTORE PUSH1 0x40 ADD MLOAD DUP1 MLOAD PUSH1 0x7 DUP5 ADD SWAP2 PUSH1 0x1 PUSH1 0x1 PUSH1 0x40 SHL SUB DUP3 GT PUSH2 0x1DCB JUMPI DUP2 SWAP1 PUSH2 0x30CB DUP5 SLOAD PUSH2 0x554B JUMP JUMPDEST PUSH1 0x1F DUP2 GT PUSH2 0x396A JUMPI JUMPDEST POP DUP10 SWAP1 PUSH1 0x1F DUP4 GT PUSH1 0x1 EQ PUSH2 0x3907 JUMPI DUP13 SWAP3 PUSH2 0x38FC JUMPI JUMPDEST POP POP DUP2 PUSH1 0x1 SHL SWAP2 PUSH1 0x0 NOT SWAP1 PUSH1 0x3 SHL SHR NOT AND OR SWAP1 SSTORE JUMPDEST PUSH1 0x80 ADD MLOAD DUP1 MLOAD DUP1 MLOAD PUSH1 0x8 DUP5 ADD SWAP2 PUSH1 0x1 PUSH1 0x1 PUSH1 0x40 SHL SUB DUP3 GT PUSH2 0x1DCB JUMPI DUP2 SWAP1 PUSH2 0x3125 DUP5 SLOAD PUSH2 0x554B JUMP JUMPDEST PUSH1 0x1F DUP2 GT PUSH2 0x38AE JUMPI JUMPDEST POP DUP10 SWAP1 PUSH1 0x1F DUP4 GT PUSH1 0x1 EQ PUSH2 0x384B JUMPI DUP13 SWAP3 PUSH2 0x3840 JUMPI JUMPDEST POP POP DUP2 PUSH1 0x1 SHL SWAP2 PUSH1 0x0 NOT SWAP1 PUSH1 0x3 SHL SHR NOT AND OR SWAP1 SSTORE JUMPDEST DUP1 DUP7 ADD MLOAD PUSH1 0x9 DUP4 ADD DUP1 SLOAD PUSH1 0x1 PUSH1 0x1 PUSH1 0xA0 SHL SUB NOT AND PUSH1 0x1 PUSH1 0x1 PUSH1 0xA0 SHL SUB SWAP3 SWAP1 SWAP3 AND SWAP2 SWAP1 SWAP2 OR SWAP1 SSTORE PUSH1 0x40 ADD MLOAD DUP1 MLOAD PUSH1 0xA DUP4 ADD SWAP2 PUSH1 0x1 PUSH1 0x1 PUSH1 0x40 SHL SUB DUP3 GT PUSH2 0x1507 JUMPI PUSH2 0x31A1 DUP4 SLOAD PUSH2 0x554B JUMP JUMPDEST PUSH1 0x1F DUP2 GT PUSH2 0x37FD JUMPI JUMPDEST POP DUP8 SWAP1 PUSH1 0x1F DUP4 GT PUSH1 0x1 EQ PUSH2 0x3791 JUMPI SWAP2 DUP1 PUSH1 0xB SWAP5 SWAP3 PUSH2 0x3236 SWAP9 SWAP8 SWAP7 SWAP5 DUP14 SWAP3 PUSH2 0x3786 JUMPI JUMPDEST POP POP DUP2 PUSH1 0x1 SHL SWAP2 PUSH1 0x0 NOT SWAP1 PUSH1 0x3 SHL SHR NOT AND OR SWAP1 SSTORE JUMPDEST ADD SWAP1 MLOAD PUSH2 0x31ED DUP2 PUSH2 0x5671 JUMP JUMPDEST PUSH2 0x31F6 DUP2 PUSH2 0x5671 JUMP JUMPDEST PUSH1 0xFF DUP1 NOT DUP4 SLOAD AND SWAP2 AND OR SWAP1 SSTORE MLOAD DUP5 DUP4 MLOAD PUSH2 0x320F DUP3 PUSH2 0x5671 JUMP JUMPDEST PUSH2 0x3218 DUP3 PUSH2 0x5671 JUMP JUMPDEST PUSH1 0x40 MLOAD PUSH2 0x3225 DUP8 DUP3 PUSH2 0x52D7 JUMP JUMPDEST DUP9 DUP2 MSTORE PUSH2 0x3230 PUSH2 0x5A45 JUMP JUMPDEST SWAP4 PUSH2 0x5D23 JUMP JUMPDEST PUSH1 0x4 SLOAD PUSH1 0x1 PUSH1 0x40 SHL DUP2 LT ISZERO PUSH2 0x3772 JUMPI DUP1 PUSH1 0x1 PUSH2 0x3257 SWAP3 ADD PUSH1 0x4 SSTORE PUSH1 0x4 PUSH2 0x552F JUMP JUMPDEST PUSH2 0x375E JUMPI DUP2 MLOAD DUP1 MLOAD SWAP1 PUSH1 0x1 PUSH1 0x1 PUSH1 0x40 SHL SUB DUP3 GT PUSH2 0x15B7 JUMPI DUP2 SWAP1 PUSH2 0x327A DUP5 SLOAD PUSH2 0x554B JUMP JUMPDEST PUSH1 0x1F DUP2 GT PUSH2 0x3710 JUMPI JUMPDEST POP DUP7 SWAP1 PUSH1 0x1F DUP4 GT PUSH1 0x1 EQ PUSH2 0x36AD JUMPI DUP10 SWAP3 PUSH2 0x36A2 JUMPI JUMPDEST POP POP DUP2 PUSH1 0x1 SHL SWAP2 PUSH1 0x0 NOT SWAP1 PUSH1 0x3 SHL SHR NOT AND OR DUP2 SSTORE JUMPDEST PUSH1 0x1 DUP2 ADD DUP5 DUP4 ADD MLOAD DUP1 MLOAD SWAP1 PUSH1 0x1 PUSH1 0x1 PUSH1 0x40 SHL SUB DUP3 GT PUSH2 0x1695 JUMPI DUP2 SWAP1 PUSH2 0x32D2 DUP5 SLOAD PUSH2 0x554B JUMP JUMPDEST PUSH1 0x1F DUP2 GT PUSH2 0x3654 JUMPI JUMPDEST POP DUP8 SWAP1 PUSH1 0x1F DUP4 GT PUSH1 0x1 EQ PUSH2 0x35F1 JUMPI DUP11 SWAP3 PUSH2 0x35E6 JUMPI JUMPDEST POP POP DUP2 PUSH1 0x1 SHL SWAP2 PUSH1 0x0 NOT SWAP1 PUSH1 0x3 SHL SHR NOT AND OR SWAP1 SSTORE JUMPDEST PUSH1 0x2 DUP2 ADD PUSH1 0x40 DUP4 ADD MLOAD DUP1 MLOAD SWAP1 PUSH1 0x1 PUSH1 0x1 PUSH1 0x40 SHL SUB DUP3 GT PUSH2 0x1695 JUMPI DUP2 SWAP1 PUSH2 0x332B DUP5 SLOAD PUSH2 0x554B JUMP JUMPDEST PUSH1 0x1F DUP2 GT PUSH2 0x3598 JUMPI JUMPDEST POP DUP8 SWAP1 PUSH1 0x1F DUP4 GT PUSH1 0x1 EQ PUSH2 0x3535 JUMPI DUP11 SWAP3 PUSH2 0x352A JUMPI JUMPDEST POP POP DUP2 PUSH1 0x1 SHL SWAP2 PUSH1 0x0 NOT SWAP1 PUSH1 0x3 SHL SHR NOT AND OR SWAP1 SSTORE JUMPDEST PUSH1 0x3 DUP2 ADD PUSH1 0x60 DUP4 ADD MLOAD DUP1 MLOAD SWAP1 PUSH1 0x1 PUSH1 0x1 PUSH1 0x40 SHL SUB DUP3 GT PUSH2 0x1695 JUMPI PUSH2 0x3382 DUP4 SLOAD PUSH2 0x554B JUMP JUMPDEST PUSH1 0x1F DUP2 GT PUSH2 0x34E7 JUMPI JUMPDEST POP DUP7 SWAP1 DUP10 PUSH1 0x1F DUP5 GT PUSH1 0x1 EQ PUSH2 0x3453 JUMPI SWAP5 PUSH2 0x3409 SWAP5 DUP5 PUSH2 0x3428 SWAP11 SWAP9 SWAP6 PUSH1 0xA0 SWAP6 PUSH1 0x4 SWAP6 PUSH32 0x7002576F080ADE70048A03AD81B929B78C8B7E148FD11F40F286A8B6900E6F9B SWAP15 SWAP13 SWAP11 SWAP3 PUSH2 0x3448 JUMPI JUMPDEST POP POP DUP2 PUSH1 0x1 SHL SWAP2 PUSH1 0x0 NOT SWAP1 PUSH1 0x3 SHL SHR NOT AND OR SWAP1 SSTORE ADD SWAP2 PUSH1 0xFF PUSH1 0x80 DUP3 ADD MLOAD AND PUSH1 0xFF NOT DUP5 SLOAD AND OR DUP4 SSTORE ADD MLOAD SWAP1 PUSH2 0x10B5 DUP3 PUSH2 0x5671 JUMP JUMPDEST MLOAD SWAP2 PUSH2 0x3414 DUP2 PUSH2 0x5671 JUMP JUMPDEST PUSH1 0x40 MLOAD SWAP4 DUP5 SWAP4 PUSH1 0x80 DUP6 MSTORE PUSH1 0x80 DUP6 ADD SWAP1 PUSH2 0x564C JUMP JUMPDEST SWAP2 CALLER SWAP1 DUP5 ADD MSTORE PUSH2 0x3437 DUP2 PUSH2 0x5671 JUMP JUMPDEST PUSH1 0x40 DUP4 ADD MSTORE TIMESTAMP PUSH1 0x60 DUP4 ADD MSTORE SUB SWAP1 LOG1 DUP1 RETURN JUMPDEST ADD MLOAD SWAP1 POP CODESIZE DUP1 PUSH2 0x33D6 JUMP JUMPDEST POP DUP4 DUP11 MSTORE DUP8 DUP11 KECCAK256 SWAP2 SWAP1 PUSH1 0x1F NOT DUP5 AND DUP12 JUMPDEST DUP2 DUP2 LT PUSH2 0x34D0 JUMPI POP SWAP5 PUSH1 0x1 DUP6 PUSH1 0xA0 SWAP6 PUSH1 0x4 SWAP6 PUSH32 0x7002576F080ADE70048A03AD81B929B78C8B7E148FD11F40F286A8B6900E6F9B SWAP15 SWAP13 SWAP11 SWAP6 PUSH2 0x3428 SWAP15 SWAP13 SWAP10 PUSH2 0x3409 SWAP12 LT PUSH2 0x34B7 JUMPI JUMPDEST POP POP POP DUP2 SHL ADD SWAP1 SSTORE PUSH2 0x1096 JUMP JUMPDEST ADD MLOAD PUSH1 0x0 NOT PUSH1 0xF8 DUP5 PUSH1 0x3 SHL AND SHR NOT AND SWAP1 SSTORE CODESIZE DUP1 DUP1 PUSH2 0x34AA JUMP JUMPDEST SWAP3 SWAP4 DUP11 PUSH1 0x1 DUP2 SWAP3 DUP8 DUP7 ADD MLOAD DUP2 SSTORE ADD SWAP6 ADD SWAP4 ADD PUSH2 0x3463 JUMP JUMPDEST DUP4 DUP11 MSTORE DUP8 DUP11 KECCAK256 PUSH1 0x1F DUP5 ADD PUSH1 0x5 SHR DUP2 ADD SWAP2 DUP10 DUP6 LT PUSH2 0x3520 JUMPI JUMPDEST PUSH1 0x1F ADD PUSH1 0x5 SHR ADD SWAP1 JUMPDEST DUP2 DUP2 LT PUSH2 0x3515 JUMPI POP PUSH2 0x338B JUMP JUMPDEST DUP11 DUP2 SSTORE PUSH1 0x1 ADD PUSH2 0x3508 JUMP JUMPDEST SWAP1 SWAP2 POP DUP2 SWAP1 PUSH2 0x34FF JUMP JUMPDEST ADD MLOAD SWAP1 POP CODESIZE DUP1 PUSH2 0x3349 JUMP JUMPDEST DUP5 DUP12 MSTORE DUP9 DUP12 KECCAK256 SWAP3 POP PUSH1 0x1F NOT DUP5 AND DUP12 JUMPDEST DUP11 DUP3 DUP3 LT PUSH2 0x3582 JUMPI POP POP SWAP1 DUP5 PUSH1 0x1 SWAP6 SWAP5 SWAP4 SWAP3 LT PUSH2 0x3569 JUMPI JUMPDEST POP POP POP DUP2 SHL ADD SWAP1 SSTORE PUSH2 0x335E JUMP JUMPDEST ADD MLOAD PUSH1 0x0 NOT PUSH1 0xF8 DUP5 PUSH1 0x3 SHL AND SHR NOT AND SWAP1 SSTORE CODESIZE DUP1 DUP1 PUSH2 0x355C JUMP JUMPDEST PUSH1 0x1 DUP6 SWAP7 DUP3 SWAP4 SWAP7 DUP7 ADD MLOAD DUP2 SSTORE ADD SWAP6 ADD SWAP4 ADD PUSH2 0x3544 JUMP JUMPDEST SWAP1 SWAP2 POP DUP4 DUP11 MSTORE DUP8 DUP11 KECCAK256 PUSH1 0x1F DUP5 ADD PUSH1 0x5 SHR DUP2 ADD SWAP2 DUP10 DUP6 LT PUSH2 0x35DC JUMPI JUMPDEST SWAP1 PUSH1 0x1F DUP6 SWAP5 SWAP4 SWAP3 ADD PUSH1 0x5 SHR ADD SWAP1 JUMPDEST DUP2 DUP2 LT PUSH2 0x35CE JUMPI POP PUSH2 0x3334 JUMP JUMPDEST DUP12 DUP2 SSTORE DUP5 SWAP4 POP PUSH1 0x1 ADD PUSH2 0x35C1 JUMP JUMPDEST SWAP1 SWAP2 POP DUP2 SWAP1 PUSH2 0x35B3 JUMP JUMPDEST ADD MLOAD SWAP1 POP CODESIZE DUP1 PUSH2 0x32F0 JUMP JUMPDEST DUP5 DUP12 MSTORE DUP9 DUP12 KECCAK256 SWAP3 POP PUSH1 0x1F NOT DUP5 AND DUP12 JUMPDEST DUP11 DUP3 DUP3 LT PUSH2 0x363E JUMPI POP POP SWAP1 DUP5 PUSH1 0x1 SWAP6 SWAP5 SWAP4 SWAP3 LT PUSH2 0x3625 JUMPI JUMPDEST POP POP POP DUP2 SHL ADD SWAP1 SSTORE PUSH2 0x3305 JUMP JUMPDEST ADD MLOAD PUSH1 0x0 NOT PUSH1 0xF8 DUP5 PUSH1 0x3 SHL AND SHR NOT AND SWAP1 SSTORE CODESIZE DUP1 DUP1 PUSH2 0x3618 JUMP JUMPDEST PUSH1 0x1 DUP6 SWAP7 DUP3 SWAP4 SWAP7 DUP7 ADD MLOAD DUP2 SSTORE ADD SWAP6 ADD SWAP4 ADD PUSH2 0x3600 JUMP JUMPDEST SWAP1 SWAP2 POP DUP4 DUP11 MSTORE DUP8 DUP11 KECCAK256 PUSH1 0x1F DUP5 ADD PUSH1 0x5 SHR DUP2 ADD SWAP2 DUP10 DUP6 LT PUSH2 0x3698 JUMPI JUMPDEST SWAP1 PUSH1 0x1F DUP6 SWAP5 SWAP4 SWAP3 ADD PUSH1 0x5 SHR ADD SWAP1 JUMPDEST DUP2 DUP2 LT PUSH2 0x368A JUMPI POP PUSH2 0x32DB JUMP JUMPDEST DUP12 DUP2 SSTORE DUP5 SWAP4 POP PUSH1 0x1 ADD PUSH2 0x367D JUMP JUMPDEST SWAP1 SWAP2 POP DUP2 SWAP1 PUSH2 0x366F JUMP JUMPDEST ADD MLOAD SWAP1 POP CODESIZE DUP1 PUSH2 0x3298 JUMP JUMPDEST DUP5 DUP11 MSTORE DUP8 DUP11 KECCAK256 SWAP3 POP PUSH1 0x1F NOT DUP5 AND DUP11 JUMPDEST DUP10 DUP3 DUP3 LT PUSH2 0x36FA JUMPI POP POP SWAP1 DUP5 PUSH1 0x1 SWAP6 SWAP5 SWAP4 SWAP3 LT PUSH2 0x36E1 JUMPI JUMPDEST POP POP POP DUP2 SHL ADD DUP2 SSTORE PUSH2 0x32AD JUMP JUMPDEST ADD MLOAD PUSH1 0x0 NOT PUSH1 0xF8 DUP5 PUSH1 0x3 SHL AND SHR NOT AND SWAP1 SSTORE CODESIZE DUP1 DUP1 PUSH2 0x36D4 JUMP JUMPDEST PUSH1 0x1 DUP6 SWAP7 DUP3 SWAP4 SWAP7 DUP7 ADD MLOAD DUP2 SSTORE ADD SWAP6 ADD SWAP4 ADD PUSH2 0x36BC JUMP JUMPDEST SWAP1 SWAP2 POP DUP4 DUP10 MSTORE DUP7 DUP10 KECCAK256 PUSH1 0x1F DUP5 ADD PUSH1 0x5 SHR DUP2 ADD SWAP2 DUP9 DUP6 LT PUSH2 0x3754 JUMPI JUMPDEST SWAP1 PUSH1 0x1F DUP6 SWAP5 SWAP4 SWAP3 ADD PUSH1 0x5 SHR ADD SWAP1 JUMPDEST DUP2 DUP2 LT PUSH2 0x3746 JUMPI POP PUSH2 0x3283 JUMP JUMPDEST DUP11 DUP2 SSTORE DUP5 SWAP4 POP PUSH1 0x1 ADD PUSH2 0x3739 JUMP JUMPDEST SWAP1 SWAP2 POP DUP2 SWAP1 PUSH2 0x372B JUMP JUMPDEST PUSH4 0x4E487B71 PUSH1 0xE0 SHL DUP7 MSTORE PUSH1 0x4 DUP7 SWAP1 MSTORE PUSH1 0x24 DUP7 REVERT JUMPDEST PUSH4 0x4E487B71 PUSH1 0xE0 SHL DUP7 MSTORE PUSH1 0x41 PUSH1 0x4 MSTORE PUSH1 0x24 DUP7 REVERT JUMPDEST ADD MLOAD SWAP1 POP CODESIZE DUP1 PUSH2 0x31CC JUMP JUMPDEST DUP4 DUP12 MSTORE DUP9 DUP12 KECCAK256 SWAP2 SWAP1 PUSH1 0x1F NOT DUP5 AND DUP13 JUMPDEST DUP12 DUP3 DUP3 LT PUSH2 0x37E7 JUMPI POP POP SWAP3 PUSH1 0x1 SWAP3 DUP6 SWAP3 PUSH2 0x3236 SWAP11 SWAP10 SWAP9 SWAP7 PUSH1 0xB SWAP9 SWAP7 LT PUSH2 0x37CE JUMPI JUMPDEST POP POP POP DUP2 SHL ADD SWAP1 SSTORE PUSH2 0x31E1 JUMP JUMPDEST ADD MLOAD PUSH1 0x0 NOT PUSH1 0xF8 DUP5 PUSH1 0x3 SHL AND SHR NOT AND SWAP1 SSTORE CODESIZE DUP1 DUP1 PUSH2 0x37C1 JUMP JUMPDEST PUSH1 0x1 DUP6 SWAP7 DUP3 SWAP4 SWAP7 DUP7 ADD MLOAD DUP2 SSTORE ADD SWAP6 ADD SWAP4 ADD PUSH2 0x37A0 JUMP JUMPDEST DUP4 DUP12 MSTORE DUP9 DUP12 KECCAK256 PUSH1 0x1F DUP5 ADD PUSH1 0x5 SHR DUP2 ADD SWAP2 DUP11 DUP6 LT PUSH2 0x3836 JUMPI JUMPDEST PUSH1 0x1F ADD PUSH1 0x5 SHR ADD SWAP1 JUMPDEST DUP2 DUP2 LT PUSH2 0x382B JUMPI POP PUSH2 0x31AA JUMP JUMPDEST DUP12 DUP2 SSTORE PUSH1 0x1 ADD PUSH2 0x381E JUMP JUMPDEST SWAP1 SWAP2 POP DUP2 SWAP1 PUSH2 0x3815 JUMP JUMPDEST ADD MLOAD SWAP1 POP CODESIZE DUP1 PUSH2 0x3143 JUMP JUMPDEST DUP5 DUP14 MSTORE DUP11 DUP14 KECCAK256 SWAP3 POP PUSH1 0x1F NOT DUP5 AND DUP14 JUMPDEST DUP13 DUP3 DUP3 LT PUSH2 0x3898 JUMPI POP POP SWAP1 DUP5 PUSH1 0x1 SWAP6 SWAP5 SWAP4 SWAP3 LT PUSH2 0x387F JUMPI JUMPDEST POP POP POP DUP2 SHL ADD SWAP1 SSTORE PUSH2 0x3158 JUMP JUMPDEST ADD MLOAD PUSH1 0x0 NOT PUSH1 0xF8 DUP5 PUSH1 0x3 SHL AND SHR NOT AND SWAP1 SSTORE CODESIZE DUP1 DUP1 PUSH2 0x3872 JUMP JUMPDEST PUSH1 0x1 DUP6 SWAP7 DUP3 SWAP4 SWAP7 DUP7 ADD MLOAD DUP2 SSTORE ADD SWAP6 ADD SWAP4 ADD PUSH2 0x385A JUMP JUMPDEST SWAP1 SWAP2 POP DUP4 DUP13 MSTORE DUP10 DUP13 KECCAK256 PUSH1 0x1F DUP5 ADD PUSH1 0x5 SHR DUP2 ADD SWAP2 DUP12 DUP6 LT PUSH2 0x38F2 JUMPI JUMPDEST SWAP1 PUSH1 0x1F DUP6 SWAP5 SWAP4 SWAP3 ADD PUSH1 0x5 SHR ADD SWAP1 JUMPDEST DUP2 DUP2 LT PUSH2 0x38E4 JUMPI POP PUSH2 0x312E JUMP JUMPDEST DUP14 DUP2 SSTORE DUP5 SWAP4 POP PUSH1 0x1 ADD PUSH2 0x38D7 JUMP JUMPDEST SWAP1 SWAP2 POP DUP2 SWAP1 PUSH2 0x38C9 JUMP JUMPDEST ADD MLOAD SWAP1 POP CODESIZE DUP1 PUSH2 0x30E9 JUMP JUMPDEST DUP5 DUP14 MSTORE DUP11 DUP14 KECCAK256 SWAP3 POP PUSH1 0x1F NOT DUP5 AND DUP14 JUMPDEST DUP13 DUP3 DUP3 LT PUSH2 0x3954 JUMPI POP POP SWAP1 DUP5 PUSH1 0x1 SWAP6 SWAP5 SWAP4 SWAP3 LT PUSH2 0x393B JUMPI JUMPDEST POP POP POP DUP2 SHL ADD SWAP1 SSTORE PUSH2 0x30FE JUMP JUMPDEST ADD MLOAD PUSH1 0x0 NOT PUSH1 0xF8 DUP5 PUSH1 0x3 SHL AND SHR NOT AND SWAP1 SSTORE CODESIZE DUP1 DUP1 PUSH2 0x392E JUMP JUMPDEST PUSH1 0x1 DUP6 SWAP7 DUP3 SWAP4 SWAP7 DUP7 ADD MLOAD DUP2 SSTORE ADD SWAP6 ADD SWAP4 ADD PUSH2 0x3916 JUMP JUMPDEST SWAP1 SWAP2 POP DUP4 DUP13 MSTORE DUP10 DUP13 KECCAK256 PUSH1 0x1F DUP5 ADD PUSH1 0x5 SHR DUP2 ADD SWAP2 DUP12 DUP6 LT PUSH2 0x39AE JUMPI JUMPDEST SWAP1 PUSH1 0x1F DUP6 SWAP5 SWAP4 SWAP3 ADD PUSH1 0x5 SHR ADD SWAP1 JUMPDEST DUP2 DUP2 LT PUSH2 0x39A0 JUMPI POP PUSH2 0x30D4 JUMP JUMPDEST DUP14 DUP2 SSTORE DUP5 SWAP4 POP PUSH1 0x1 ADD PUSH2 0x3993 JUMP JUMPDEST SWAP1 SWAP2 POP DUP2 SWAP1 PUSH2 0x3985 JUMP JUMPDEST ADD MLOAD SWAP1 POP CODESIZE DUP1 PUSH2 0x306B JUMP JUMPDEST DUP6 DUP2 MSTORE DUP13 DUP2 KECCAK256 SWAP4 POP PUSH1 0x1F NOT DUP6 AND SWAP1 JUMPDEST DUP14 DUP3 DUP3 LT PUSH2 0x3A10 JUMPI POP POP SWAP1 DUP5 PUSH1 0x1 SWAP6 SWAP5 SWAP4 SWAP3 LT PUSH2 0x39F7 JUMPI JUMPDEST POP POP POP DUP2 SHL ADD SWAP1 SSTORE PUSH2 0x3080 JUMP JUMPDEST ADD MLOAD PUSH1 0x0 NOT PUSH1 0xF8 DUP5 PUSH1 0x3 SHL AND SHR NOT AND SWAP1 SSTORE CODESIZE DUP1 DUP1 PUSH2 0x39EA JUMP JUMPDEST PUSH1 0x1 DUP6 SWAP7 DUP3 SWAP4 SWAP7 DUP7 ADD MLOAD DUP2 SSTORE ADD SWAP6 ADD SWAP4 ADD PUSH2 0x39D2 JUMP JUMPDEST SWAP1 SWAP2 POP DUP4 DUP14 MSTORE DUP11 DUP14 KECCAK256 PUSH1 0x1F DUP5 ADD PUSH1 0x5 SHR DUP2 ADD SWAP2 DUP13 DUP6 LT PUSH2 0x3A6D JUMPI JUMPDEST DUP5 SWAP4 SWAP3 SWAP2 DUP16 SWAP2 PUSH1 0x1F ADD PUSH1 0x5 SHR ADD SWAP2 SWAP1 JUMPDEST DUP3 DUP3 LT PUSH2 0x3A5F JUMPI POP POP PUSH2 0x3056 JUMP JUMPDEST DUP2 SSTORE DUP5 SWAP4 POP PUSH1 0x1 ADD DUP15 PUSH2 0x3A51 JUMP JUMPDEST SWAP1 SWAP2 POP DUP2 SWAP1 PUSH2 0x3A41 JUMP JUMPDEST ADD MLOAD SWAP1 POP CODESIZE DUP1 PUSH2 0x2FEE JUMP JUMPDEST DUP5 DUP14 MSTORE DUP11 DUP14 KECCAK256 SWAP3 POP PUSH1 0x1F NOT DUP5 AND DUP14 JUMPDEST DUP13 DUP3 DUP3 LT PUSH2 0x3ACF JUMPI POP POP SWAP1 DUP5 PUSH1 0x1 SWAP6 SWAP5 SWAP4 SWAP3 LT PUSH2 0x3AB6 JUMPI JUMPDEST POP POP POP DUP2 SHL ADD SWAP1 SSTORE PUSH2 0x3003 JUMP JUMPDEST ADD MLOAD PUSH1 0x0 NOT PUSH1 0xF8 DUP5 PUSH1 0x3 SHL AND SHR NOT AND SWAP1 SSTORE CODESIZE DUP1 DUP1 PUSH2 0x3AA9 JUMP JUMPDEST PUSH1 0x1 DUP6 SWAP7 DUP3 SWAP4 SWAP7 DUP7 ADD MLOAD DUP2 SSTORE ADD SWAP6 ADD SWAP4 ADD PUSH2 0x3A91 JUMP JUMPDEST SWAP1 SWAP2 POP DUP4 DUP13 MSTORE DUP10 DUP13 KECCAK256 PUSH1 0x1F DUP5 ADD PUSH1 0x5 SHR DUP2 ADD SWAP2 DUP12 DUP6 LT PUSH2 0x3B29 JUMPI JUMPDEST SWAP1 PUSH1 0x1F DUP6 SWAP5 SWAP4 SWAP3 ADD PUSH1 0x5 SHR ADD SWAP1 JUMPDEST DUP2 DUP2 LT PUSH2 0x3B1B JUMPI POP PUSH2 0x2FD9 JUMP JUMPDEST DUP14 DUP2 SSTORE DUP5 SWAP4 POP PUSH1 0x1 ADD PUSH2 0x3B0E JUMP JUMPDEST SWAP1 SWAP2 POP DUP2 SWAP1 PUSH2 0x3B00 JUMP JUMPDEST ADD MLOAD SWAP1 POP CODESIZE DUP1 PUSH2 0x2F99 JUMP JUMPDEST DUP7 DUP14 MSTORE DUP11 DUP14 KECCAK256 SWAP3 POP PUSH1 0x1F NOT DUP5 AND DUP14 JUMPDEST DUP13 DUP3 DUP3 LT PUSH2 0x3B8B JUMPI POP POP SWAP1 DUP5 PUSH1 0x1 SWAP6 SWAP5 SWAP4 SWAP3 LT PUSH2 0x3B72 JUMPI JUMPDEST POP POP POP DUP2 SHL ADD DUP4 SSTORE PUSH2 0x2FAE JUMP JUMPDEST ADD MLOAD PUSH1 0x0 NOT PUSH1 0xF8 DUP5 PUSH1 0x3 SHL AND SHR NOT AND SWAP1 SSTORE CODESIZE DUP1 DUP1 PUSH2 0x3B65 JUMP JUMPDEST PUSH1 0x1 DUP6 SWAP7 DUP3 SWAP4 SWAP7 DUP7 ADD MLOAD DUP2 SSTORE ADD SWAP6 ADD SWAP4 ADD PUSH2 0x3B4D JUMP JUMPDEST SWAP1 SWAP2 POP DUP6 DUP13 MSTORE DUP10 DUP13 KECCAK256 PUSH1 0x1F DUP5 ADD PUSH1 0x5 SHR DUP2 ADD SWAP2 DUP12 DUP6 LT PUSH2 0x3BE5 JUMPI JUMPDEST SWAP1 PUSH1 0x1F DUP6 SWAP5 SWAP4 SWAP3 ADD PUSH1 0x5 SHR ADD SWAP1 JUMPDEST DUP2 DUP2 LT PUSH2 0x3BD7 JUMPI POP PUSH2 0x2F84 JUMP JUMPDEST DUP14 DUP2 SSTORE DUP5 SWAP4 POP PUSH1 0x1 ADD PUSH2 0x3BCA JUMP JUMPDEST SWAP1 SWAP2 POP DUP2 SWAP1 PUSH2 0x3BBC JUMP JUMPDEST PUSH1 0x40 MLOAD PUSH3 0x461BCD PUSH1 0xE5 SHL DUP2 MSTORE PUSH1 0x20 PUSH1 0x4 DUP3 ADD MSTORE PUSH1 0x16 PUSH1 0x24 DUP3 ADD MSTORE PUSH22 0x43444F4220494420616C726561647920657869737473 PUSH1 0x50 SHL PUSH1 0x44 DUP3 ADD MSTORE PUSH1 0x64 SWAP1 REVERT JUMPDEST PUSH1 0x40 MLOAD PUSH3 0x461BCD PUSH1 0xE5 SHL DUP2 MSTORE PUSH1 0x20 PUSH1 0x4 DUP3 ADD MSTORE PUSH1 0x1D PUSH1 0x24 DUP3 ADD MSTORE PUSH32 0x416363657373207265737472696374656420746F2050424620726F6C65000000 PUSH1 0x44 DUP3 ADD MSTORE PUSH1 0x64 SWAP1 REVERT JUMPDEST PUSH2 0x3C8B SWAP2 POP PUSH1 0x20 RETURNDATASIZE PUSH1 0x20 GT PUSH2 0x21C7 JUMPI PUSH2 0x21B9 DUP2 DUP4 PUSH2 0x52D7 JUMP JUMPDEST CODESIZE PUSH2 0x2EA6 JUMP JUMPDEST POP CALLVALUE PUSH2 0x1C4 JUMPI PUSH1 0x20 CALLDATASIZE PUSH1 0x3 NOT ADD SLT PUSH2 0x1C4 JUMPI PUSH1 0x4 CALLDATALOAD SWAP1 PUSH1 0x1 PUSH1 0x1 PUSH1 0x40 SHL SUB DUP3 GT PUSH2 0x1C4 JUMPI PUSH2 0x3D1D PUSH2 0x3CCA PUSH1 0x20 PUSH2 0x330 CALLDATASIZE PUSH1 0x4 DUP8 ADD PUSH2 0x5313 JUMP JUMPDEST DUP2 ADD PUSH1 0x1 DUP2 MSTORE SUB ADD SWAP1 KECCAK256 PUSH2 0x3CDD DUP2 PUSH2 0x5585 JUMP JUMPDEST SWAP1 PUSH2 0x13B PUSH2 0x3D39 PUSH2 0x3CF0 PUSH1 0x1 DUP5 ADD PUSH2 0x5585 JUMP JUMPDEST SWAP3 PUSH2 0x3D2B PUSH1 0xFF PUSH1 0xB PUSH2 0x3D04 PUSH1 0x2 DUP6 ADD PUSH2 0x5742 JUMP JUMPDEST SWAP4 ADD SLOAD AND SWAP5 PUSH1 0x40 MLOAD SWAP8 DUP9 SWAP8 PUSH1 0x80 DUP10 MSTORE PUSH1 0x80 DUP10 ADD SWAP1 PUSH2 0x564C JUMP JUMPDEST SWAP1 DUP8 DUP3 SUB PUSH1 0x20 DUP10 ADD MSTORE PUSH2 0x564C JUMP JUMPDEST SWAP1 DUP6 DUP3 SUB PUSH1 0x40 DUP8 ADD MSTORE PUSH2 0x57D2 JUMP JUMPDEST SWAP2 PUSH1 0x60 DUP5 ADD SWAP1 PUSH2 0x5823 JUMP JUMPDEST POP CALLVALUE PUSH2 0x1C4 JUMPI PUSH1 0x20 CALLDATASIZE PUSH1 0x3 NOT ADD SLT PUSH2 0x1C4 JUMPI PUSH1 0x4 CALLDATALOAD SWAP1 PUSH1 0x4 SLOAD DUP3 LT ISZERO PUSH2 0x1C4 JUMPI PUSH2 0x3DCC PUSH2 0x3D70 DUP4 PUSH2 0x54FA JUMP JUMPDEST POP PUSH2 0x3D7A DUP2 PUSH2 0x5585 JUMP JUMPDEST SWAP1 PUSH2 0x3D87 PUSH1 0x1 DUP3 ADD PUSH2 0x5585 JUMP JUMPDEST PUSH1 0xFF PUSH2 0x3DF6 PUSH2 0x3D98 PUSH1 0x2 DUP6 ADD PUSH2 0x5585 JUMP JUMPDEST SWAP4 PUSH2 0x3DE8 PUSH1 0x4 PUSH2 0x3DAA PUSH1 0x3 DUP5 ADD PUSH2 0x5585 JUMP JUMPDEST SWAP3 ADD SLOAD SWAP6 PUSH2 0x3DDA DUP6 DUP9 PUSH1 0x8 SHR AND SWAP7 PUSH1 0x40 MLOAD SWAP11 DUP12 SWAP11 PUSH1 0xC0 DUP13 MSTORE PUSH1 0xC0 DUP13 ADD SWAP1 PUSH2 0x564C JUMP JUMPDEST SWAP1 DUP11 DUP3 SUB PUSH1 0x20 DUP13 ADD MSTORE PUSH2 0x564C JUMP JUMPDEST SWAP1 DUP9 DUP3 SUB PUSH1 0x40 DUP11 ADD MSTORE PUSH2 0x564C JUMP JUMPDEST SWAP1 DUP7 DUP3 SUB PUSH1 0x60 DUP9 ADD MSTORE PUSH2 0x564C JUMP JUMPDEST SWAP3 AND PUSH1 0x80 DUP5 ADD MSTORE PUSH2 0x3E06 DUP2 PUSH2 0x5671 JUMP JUMPDEST PUSH1 0xA0 DUP4 ADD MSTORE SUB SWAP1 RETURN JUMPDEST POP CALLVALUE PUSH2 0x1C4 JUMPI PUSH2 0x3E1E CALLDATASIZE PUSH2 0x5440 JUMP JUMPDEST SWAP1 PUSH1 0x44 PUSH1 0x20 PUSH1 0x1 DUP1 PUSH1 0xA0 SHL SUB DUP6 SLOAD AND PUSH1 0x40 MLOAD SWAP3 DUP4 DUP1 SWAP3 PUSH4 0x95A8C58D PUSH1 0xE0 SHL DUP3 MSTORE CALLER PUSH1 0x4 DUP4 ADD MSTORE DUP9 PUSH1 0x24 DUP4 ADD MSTORE GAS STATICCALL SWAP1 DUP2 ISZERO PUSH2 0x2B0E JUMPI DUP5 SWAP2 PUSH2 0x4B77 JUMPI JUMPDEST POP ISZERO PUSH2 0x4B28 JUMPI PUSH2 0x3E6D PUSH2 0xB32 DUP3 MLOAD PUSH2 0x5691 JUMP JUMPDEST PUSH2 0x4AE9 JUMPI PUSH1 0x20 DUP2 ADD MLOAD PUSH2 0x3E88 PUSH1 0x40 DUP4 ADD SWAP2 DUP3 MLOAD SWAP1 CALLER SWAP1 PUSH2 0x5CBE JUMP JUMPDEST SWAP2 PUSH2 0x3E9F PUSH1 0x20 SWAP4 PUSH2 0xB81 PUSH1 0x40 MLOAD PUSH2 0x2EEB DUP8 DUP3 PUSH2 0x52D7 JUMP JUMPDEST PUSH1 0xFF DUP3 MLOAD SWAP6 AND SWAP5 PUSH1 0x9 DUP7 LT ISZERO PUSH2 0x21F7 JUMPI PUSH1 0x40 MLOAD SWAP1 PUSH2 0x3EBC DUP3 PUSH2 0x5255 JUMP JUMPDEST DUP2 MSTORE PUSH1 0x40 MLOAD SWAP2 PUSH2 0x3ECC DUP7 DUP5 PUSH2 0x52D7 JUMP JUMPDEST DUP8 DUP4 MSTORE DUP6 DUP3 ADD SWAP3 DUP4 MSTORE PUSH1 0x40 DUP3 ADD SWAP1 DUP2 MSTORE PUSH1 0x60 DUP3 ADD SWAP3 PUSH2 0x3EEB DUP9 DUP6 PUSH2 0x5A16 JUMP JUMPDEST PUSH2 0x3EF5 DUP6 MLOAD PUSH2 0x5691 JUMP JUMPDEST SWAP3 MLOAD DUP1 MLOAD SWAP1 PUSH1 0x1 PUSH1 0x1 PUSH1 0x40 SHL SUB DUP3 GT PUSH2 0x1DCB JUMPI DUP2 SWAP1 PUSH2 0x3F14 DUP7 SLOAD PUSH2 0x554B JUMP JUMPDEST PUSH1 0x1F DUP2 GT PUSH2 0x4A9B JUMPI JUMPDEST POP DUP10 SWAP1 PUSH1 0x1F DUP4 GT PUSH1 0x1 EQ PUSH2 0x4A38 JUMPI DUP13 SWAP3 PUSH2 0x4A2D JUMPI JUMPDEST POP POP DUP2 PUSH1 0x1 SHL SWAP2 PUSH1 0x0 NOT SWAP1 PUSH1 0x3 SHL SHR NOT AND OR DUP4 SSTORE JUMPDEST MLOAD DUP1 MLOAD PUSH1 0x1 DUP5 ADD SWAP2 PUSH1 0x1 PUSH1 0x1 PUSH1 0x40 SHL SUB DUP3 GT PUSH2 0x1DCB JUMPI DUP2 SWAP1 PUSH2 0x3F69 DUP5 SLOAD PUSH2 0x554B JUMP JUMPDEST PUSH1 0x1F DUP2 GT PUSH2 0x49DF JUMPI JUMPDEST POP DUP10 SWAP1 PUSH1 0x1F DUP4 GT PUSH1 0x1 EQ PUSH2 0x497C JUMPI DUP13 SWAP3 PUSH2 0x4971 JUMPI JUMPDEST POP POP DUP2 PUSH1 0x1 SHL SWAP2 PUSH1 0x0 NOT SWAP1 PUSH1 0x3 SHL SHR NOT AND OR SWAP1 SSTORE JUMPDEST MLOAD PUSH2 0x3FAB DUP2 MLOAD PUSH2 0xC87 DUP2 PUSH2 0x5671 JUMP JUMPDEST DUP1 DUP7 ADD MLOAD PUSH1 0x3 DUP4 ADD SSTORE PUSH1 0x40 DUP2 ADD MLOAD PUSH1 0x4 DUP4 ADD SSTORE PUSH1 0x60 DUP2 ADD MLOAD DUP1 MLOAD DUP1 MLOAD PUSH1 0x5 DUP6 ADD SWAP2 PUSH1 0x1 PUSH1 0x1 PUSH1 0x40 SHL SUB DUP3 GT PUSH2 0x1F74 JUMPI DUP2 SWAP1 PUSH2 0x3FE6 DUP5 SLOAD PUSH2 0x554B JUMP JUMPDEST PUSH1 0x1F DUP2 GT PUSH2 0x4920 JUMPI JUMPDEST POP DUP11 SWAP1 DUP14 PUSH1 0x1F DUP5 GT PUSH1 0x1 EQ PUSH2 0x48BD JUMPI SWAP3 PUSH2 0x48B2 JUMPI JUMPDEST POP POP DUP2 PUSH1 0x1 SHL SWAP2 PUSH1 0x0 NOT SWAP1 PUSH1 0x3 SHL SHR NOT AND OR SWAP1 SSTORE JUMPDEST DUP1 DUP8 ADD MLOAD PUSH1 0x6 DUP5 ADD DUP1 SLOAD PUSH1 0x1 PUSH1 0x1 PUSH1 0xA0 SHL SUB NOT AND PUSH1 0x1 PUSH1 0x1 PUSH1 0xA0 SHL SUB SWAP3 SWAP1 SWAP3 AND SWAP2 SWAP1 SWAP2 OR SWAP1 SSTORE PUSH1 0x40 ADD MLOAD DUP1 MLOAD PUSH1 0x7 DUP5 ADD SWAP2 PUSH1 0x1 PUSH1 0x1 PUSH1 0x40 SHL SUB DUP3 GT PUSH2 0x1DCB JUMPI DUP2 SWAP1 PUSH2 0x4064 DUP5 SLOAD PUSH2 0x554B JUMP JUMPDEST PUSH1 0x1F DUP2 GT PUSH2 0x4864 JUMPI JUMPDEST POP DUP10 SWAP1 PUSH1 0x1F DUP4 GT PUSH1 0x1 EQ PUSH2 0x4801 JUMPI DUP13 SWAP3 PUSH2 0x47F6 JUMPI JUMPDEST POP POP DUP2 PUSH1 0x1 SHL SWAP2 PUSH1 0x0 NOT SWAP1 PUSH1 0x3 SHL SHR NOT AND OR SWAP1 SSTORE JUMPDEST PUSH1 0x80 ADD MLOAD DUP1 MLOAD DUP1 MLOAD PUSH1 0x8 DUP5 ADD SWAP2 PUSH1 0x1 PUSH1 0x1 PUSH1 0x40 SHL SUB DUP3 GT PUSH2 0x1DCB JUMPI DUP2 SWAP1 PUSH2 0x40BE DUP5 SLOAD PUSH2 0x554B JUMP JUMPDEST PUSH1 0x1F DUP2 GT PUSH2 0x47A8 JUMPI JUMPDEST POP DUP10 SWAP1 PUSH1 0x1F DUP4 GT PUSH1 0x1 EQ PUSH2 0x4745 JUMPI DUP13 SWAP3 PUSH2 0x473A JUMPI JUMPDEST POP POP DUP2 PUSH1 0x1 SHL SWAP2 PUSH1 0x0 NOT SWAP1 PUSH1 0x3 SHL SHR NOT AND OR SWAP1 SSTORE JUMPDEST DUP1 DUP7 ADD MLOAD PUSH1 0x9 DUP4 ADD DUP1 SLOAD PUSH1 0x1 PUSH1 0x1 PUSH1 0xA0 SHL SUB NOT AND PUSH1 0x1 PUSH1 0x1 PUSH1 0xA0 SHL SUB SWAP3 SWAP1 SWAP3 AND SWAP2 SWAP1 SWAP2 OR SWAP1 SSTORE PUSH1 0x40 ADD MLOAD DUP1 MLOAD PUSH1 0xA DUP4 ADD SWAP2 PUSH1 0x1 PUSH1 0x1 PUSH1 0x40 SHL SUB DUP3 GT PUSH2 0x1507 JUMPI PUSH2 0x413A DUP4 SLOAD PUSH2 0x554B JUMP JUMPDEST PUSH1 0x1F DUP2 GT PUSH2 0x46F7 JUMPI JUMPDEST POP DUP8 SWAP1 PUSH1 0x1F DUP4 GT PUSH1 0x1 EQ PUSH2 0x4690 JUMPI PUSH1 0xB SWAP5 SWAP4 SWAP3 SWAP2 DUP12 SWAP2 DUP4 PUSH2 0x4685 JUMPI JUMPDEST POP POP DUP2 PUSH1 0x1 SHL SWAP2 PUSH1 0x0 NOT SWAP1 PUSH1 0x3 SHL SHR NOT AND OR SWAP1 SSTORE JUMPDEST ADD SWAP1 MLOAD PUSH1 0x9 DUP2 LT ISZERO PUSH2 0x21F7 JUMPI SWAP1 PUSH2 0x41AE SWAP3 SWAP2 PUSH1 0xFF DUP1 NOT DUP4 SLOAD AND SWAP2 AND OR SWAP1 SSTORE MLOAD DUP5 DUP4 MLOAD PUSH1 0x40 MLOAD PUSH2 0x41A3 DUP8 DUP3 PUSH2 0x52D7 JUMP JUMPDEST DUP9 DUP2 MSTORE PUSH2 0x3230 PUSH2 0x5A22 JUMP JUMPDEST PUSH1 0x4 SLOAD PUSH1 0x1 PUSH1 0x40 SHL DUP2 LT ISZERO PUSH2 0x3772 JUMPI DUP1 PUSH1 0x1 PUSH2 0x41CF SWAP3 ADD PUSH1 0x4 SSTORE PUSH1 0x4 PUSH2 0x552F JUMP JUMPDEST PUSH2 0x375E JUMPI DUP2 MLOAD DUP1 MLOAD SWAP1 PUSH1 0x1 PUSH1 0x1 PUSH1 0x40 SHL SUB DUP3 GT PUSH2 0x15B7 JUMPI DUP2 SWAP1 PUSH2 0x41F2 DUP5 SLOAD PUSH2 0x554B JUMP JUMPDEST PUSH1 0x1F DUP2 GT PUSH2 0x4637 JUMPI JUMPDEST POP DUP7 SWAP1 PUSH1 0x1F DUP4 GT PUSH1 0x1 EQ PUSH2 0x45D4 JUMPI DUP10 SWAP3 PUSH2 0x45C9 JUMPI JUMPDEST POP POP DUP2 PUSH1 0x1 SHL SWAP2 PUSH1 0x0 NOT SWAP1 PUSH1 0x3 SHL SHR NOT AND OR DUP2 SSTORE JUMPDEST PUSH1 0x1 DUP2 ADD DUP5 DUP4 ADD MLOAD DUP1 MLOAD SWAP1 PUSH1 0x1 PUSH1 0x1 PUSH1 0x40 SHL SUB DUP3 GT PUSH2 0x1695 JUMPI DUP2 SWAP1 PUSH2 0x424A DUP5 SLOAD PUSH2 0x554B JUMP JUMPDEST PUSH1 0x1F DUP2 GT PUSH2 0x457B JUMPI JUMPDEST POP DUP8 SWAP1 PUSH1 0x1F DUP4 GT PUSH1 0x1 EQ PUSH2 0x4518 JUMPI DUP11 SWAP3 PUSH2 0x450D JUMPI JUMPDEST POP POP DUP2 PUSH1 0x1 SHL SWAP2 PUSH1 0x0 NOT SWAP1 PUSH1 0x3 SHL SHR NOT AND OR SWAP1 SSTORE JUMPDEST PUSH1 0x2 DUP2 ADD PUSH1 0x40 DUP4 ADD MLOAD DUP1 MLOAD SWAP1 PUSH1 0x1 PUSH1 0x1 PUSH1 0x40 SHL SUB DUP3 GT PUSH2 0x1695 JUMPI DUP2 SWAP1 PUSH2 0x42A3 DUP5 SLOAD PUSH2 0x554B JUMP JUMPDEST PUSH1 0x1F DUP2 GT PUSH2 0x44BF JUMPI JUMPDEST POP DUP8 SWAP1 PUSH1 0x1F DUP4 GT PUSH1 0x1 EQ PUSH2 0x445C JUMPI DUP11 SWAP3 PUSH2 0x4451 JUMPI JUMPDEST POP POP DUP2 PUSH1 0x1 SHL SWAP2 PUSH1 0x0 NOT SWAP1 PUSH1 0x3 SHL SHR NOT AND OR SWAP1 SSTORE JUMPDEST PUSH1 0x3 DUP2 ADD PUSH1 0x60 DUP4 ADD MLOAD DUP1 MLOAD SWAP1 PUSH1 0x1 PUSH1 0x1 PUSH1 0x40 SHL SUB DUP3 GT PUSH2 0x1695 JUMPI PUSH2 0x42FA DUP4 SLOAD PUSH2 0x554B JUMP JUMPDEST PUSH1 0x1F DUP2 GT PUSH2 0x440E JUMPI JUMPDEST POP DUP7 SWAP1 DUP10 PUSH1 0x1F DUP5 GT PUSH1 0x1 EQ PUSH2 0x43A3 JUMPI PUSH2 0x4397 SWAP6 PUSH1 0x0 DUP1 MLOAD PUSH1 0x20 PUSH2 0x5DD0 DUP4 CODECOPY DUP2 MLOAD SWAP2 MSTORE SWAP11 SWAP9 SWAP6 DUP6 PUSH2 0x4371 SWAP7 PUSH2 0x4387 SWAP13 SWAP11 SWAP7 PUSH1 0xA0 SWAP7 PUSH1 0x4 SWAP7 SWAP3 PUSH2 0x3448 JUMPI POP POP DUP2 PUSH1 0x1 SHL SWAP2 PUSH1 0x0 NOT SWAP1 PUSH1 0x3 SHL SHR NOT AND OR SWAP1 SSTORE ADD SWAP2 PUSH1 0xFF PUSH1 0x80 DUP3 ADD MLOAD AND PUSH1 0xFF NOT DUP5 SLOAD AND OR DUP4 SSTORE ADD MLOAD SWAP1 PUSH2 0x10B5 DUP3 PUSH2 0x5671 JUMP JUMPDEST MLOAD SWAP3 PUSH1 0x40 MLOAD SWAP5 DUP6 SWAP5 PUSH1 0x80 DUP7 MSTORE PUSH1 0x80 DUP7 ADD SWAP1 PUSH2 0x564C JUMP JUMPDEST SWAP3 CALLER SWAP1 DUP6 ADD MSTORE PUSH1 0x40 DUP5 ADD SWAP1 PUSH2 0x5823 JUMP JUMPDEST TIMESTAMP PUSH1 0x60 DUP4 ADD MSTORE SUB SWAP1 LOG1 DUP1 RETURN JUMPDEST POP DUP4 DUP11 MSTORE DUP8 DUP11 KECCAK256 SWAP2 SWAP1 PUSH1 0x1F NOT DUP5 AND DUP12 JUMPDEST DUP2 DUP2 LT PUSH2 0x43F7 JUMPI POP SWAP6 PUSH1 0x0 DUP1 MLOAD PUSH1 0x20 PUSH2 0x5DD0 DUP4 CODECOPY DUP2 MLOAD SWAP2 MSTORE SWAP11 SWAP9 SWAP6 PUSH1 0x1 DUP7 PUSH2 0x4387 SWAP13 SWAP11 SWAP7 PUSH1 0xA0 SWAP7 PUSH1 0x4 SWAP7 PUSH2 0x4371 SWAP11 PUSH2 0x4397 SWAP14 LT PUSH2 0x34B7 JUMPI POP POP POP DUP2 SHL ADD SWAP1 SSTORE PUSH2 0x1096 JUMP JUMPDEST SWAP3 SWAP4 DUP11 PUSH1 0x1 DUP2 SWAP3 DUP8 DUP7 ADD MLOAD DUP2 SSTORE ADD SWAP6 ADD SWAP4 ADD PUSH2 0x43B3 JUMP JUMPDEST DUP4 DUP11 MSTORE DUP8 DUP11 KECCAK256 PUSH1 0x1F DUP5 ADD PUSH1 0x5 SHR DUP2 ADD SWAP2 DUP10 DUP6 LT PUSH2 0x4447 JUMPI JUMPDEST PUSH1 0x1F ADD PUSH1 0x5 SHR ADD SWAP1 JUMPDEST DUP2 DUP2 LT PUSH2 0x443C JUMPI POP PUSH2 0x4303 JUMP JUMPDEST DUP11 DUP2 SSTORE PUSH1 0x1 ADD PUSH2 0x442F JUMP JUMPDEST SWAP1 SWAP2 POP DUP2 SWAP1 PUSH2 0x4426 JUMP JUMPDEST ADD MLOAD SWAP1 POP CODESIZE DUP1 PUSH2 0x42C1 JUMP JUMPDEST DUP5 DUP12 MSTORE DUP9 DUP12 KECCAK256 SWAP3 POP PUSH1 0x1F NOT DUP5 AND DUP12 JUMPDEST DUP11 DUP3 DUP3 LT PUSH2 0x44A9 JUMPI POP POP SWAP1 DUP5 PUSH1 0x1 SWAP6 SWAP5 SWAP4 SWAP3 LT PUSH2 0x4490 JUMPI JUMPDEST POP POP POP DUP2 SHL ADD SWAP1 SSTORE PUSH2 0x42D6 JUMP JUMPDEST ADD MLOAD PUSH1 0x0 NOT PUSH1 0xF8 DUP5 PUSH1 0x3 SHL AND SHR NOT AND SWAP1 SSTORE CODESIZE DUP1 DUP1 PUSH2 0x4483 JUMP JUMPDEST PUSH1 0x1 DUP6 SWAP7 DUP3 SWAP4 SWAP7 DUP7 ADD MLOAD DUP2 SSTORE ADD SWAP6 ADD SWAP4 ADD PUSH2 0x446B JUMP JUMPDEST SWAP1 SWAP2 POP DUP4 DUP11 MSTORE DUP8 DUP11 KECCAK256 PUSH1 0x1F DUP5 ADD PUSH1 0x5 SHR DUP2 ADD SWAP2 DUP10 DUP6 LT PUSH2 0x4503 JUMPI JUMPDEST SWAP1 PUSH1 0x1F DUP6 SWAP5 SWAP4 SWAP3 ADD PUSH1 0x5 SHR ADD SWAP1 JUMPDEST DUP2 DUP2 LT PUSH2 0x44F5 JUMPI POP PUSH2 0x42AC JUMP JUMPDEST DUP12 DUP2 SSTORE DUP5 SWAP4 POP PUSH1 0x1 ADD PUSH2 0x44E8 JUMP JUMPDEST SWAP1 SWAP2 POP DUP2 SWAP1 PUSH2 0x44DA JUMP JUMPDEST ADD MLOAD SWAP1 POP CODESIZE DUP1 PUSH2 0x4268 JUMP JUMPDEST DUP5 DUP12 MSTORE DUP9 DUP12 KECCAK256 SWAP3 POP PUSH1 0x1F NOT DUP5 AND DUP12 JUMPDEST DUP11 DUP3 DUP3 LT PUSH2 0x4565 JUMPI POP POP SWAP1 DUP5 PUSH1 0x1 SWAP6 SWAP5 SWAP4 SWAP3 LT PUSH2 0x454C JUMPI JUMPDEST POP POP POP DUP2 SHL ADD SWAP1 SSTORE PUSH2 0x427D JUMP JUMPDEST ADD MLOAD PUSH1 0x0 NOT PUSH1 0xF8 DUP5 PUSH1 0x3 SHL AND SHR NOT AND SWAP1 SSTORE CODESIZE DUP1 DUP1 PUSH2 0x453F JUMP JUMPDEST PUSH1 0x1 DUP6 SWAP7 DUP3 SWAP4 SWAP7 DUP7 ADD MLOAD DUP2 SSTORE ADD SWAP6 ADD SWAP4 ADD PUSH2 0x4527 JUMP JUMPDEST SWAP1 SWAP2 POP DUP4 DUP11 MSTORE DUP8 DUP11 KECCAK256 PUSH1 0x1F DUP5 ADD PUSH1 0x5 SHR DUP2 ADD SWAP2 DUP10 DUP6 LT PUSH2 0x45BF JUMPI JUMPDEST SWAP1 PUSH1 0x1F DUP6 SWAP5 SWAP4 SWAP3 ADD PUSH1 0x5 SHR ADD SWAP1 JUMPDEST DUP2 DUP2 LT PUSH2 0x45B1 JUMPI POP PUSH2 0x4253 JUMP JUMPDEST DUP12 DUP2 SSTORE DUP5 SWAP4 POP PUSH1 0x1 ADD PUSH2 0x45A4 JUMP JUMPDEST SWAP1 SWAP2 POP DUP2 SWAP1 PUSH2 0x4596 JUMP JUMPDEST ADD MLOAD SWAP1 POP CODESIZE DUP1 PUSH2 0x4210 JUMP JUMPDEST DUP5 DUP11 MSTORE DUP8 DUP11 KECCAK256 SWAP3 POP PUSH1 0x1F NOT DUP5 AND DUP11 JUMPDEST DUP10 DUP3 DUP3 LT PUSH2 0x4621 JUMPI POP POP SWAP1 DUP5 PUSH1 0x1 SWAP6 SWAP5 SWAP4 SWAP3 LT PUSH2 0x4608 JUMPI JUMPDEST POP POP POP DUP2 SHL ADD DUP2 SSTORE PUSH2 0x4225 JUMP JUMPDEST ADD MLOAD PUSH1 0x0 NOT PUSH1 0xF8 DUP5 PUSH1 0x3 SHL AND SHR NOT AND SWAP1 SSTORE CODESIZE DUP1 DUP1 PUSH2 0x45FB JUMP JUMPDEST PUSH1 0x1 DUP6 SWAP7 DUP3 SWAP4 SWAP7 DUP7 ADD MLOAD DUP2 SSTORE ADD SWAP6 ADD SWAP4 ADD PUSH2 0x45E3 JUMP JUMPDEST SWAP1 SWAP2 POP DUP4 DUP10 MSTORE DUP7 DUP10 KECCAK256 PUSH1 0x1F DUP5 ADD PUSH1 0x5 SHR DUP2 ADD SWAP2 DUP9 DUP6 LT PUSH2 0x467B JUMPI JUMPDEST SWAP1 PUSH1 0x1F DUP6 SWAP5 SWAP4 SWAP3 ADD PUSH1 0x5 SHR ADD SWAP1 JUMPDEST DUP2 DUP2 LT PUSH2 0x466D JUMPI POP PUSH2 0x41FB JUMP JUMPDEST DUP11 DUP2 SSTORE DUP5 SWAP4 POP PUSH1 0x1 ADD PUSH2 0x4660 JUMP JUMPDEST SWAP1 SWAP2 POP DUP2 SWAP1 PUSH2 0x4652 JUMP JUMPDEST ADD MLOAD SWAP1 POP CODESIZE DUP1 PUSH2 0x415F JUMP JUMPDEST DUP4 DUP12 MSTORE DUP9 DUP12 KECCAK256 SWAP2 SWAP1 PUSH1 0x1F NOT DUP5 AND DUP13 JUMPDEST DUP12 DUP3 DUP3 LT PUSH2 0x46E1 JUMPI POP POP SWAP2 PUSH1 0x1 SWAP4 SWAP2 DUP6 PUSH1 0xB SWAP9 SWAP8 SWAP7 SWAP5 LT PUSH2 0x46C8 JUMPI JUMPDEST POP POP POP DUP2 SHL ADD SWAP1 SSTORE PUSH2 0x4174 JUMP JUMPDEST ADD MLOAD PUSH1 0x0 NOT PUSH1 0xF8 DUP5 PUSH1 0x3 SHL AND SHR NOT AND SWAP1 SSTORE CODESIZE DUP1 DUP1 PUSH2 0x46BB JUMP JUMPDEST PUSH1 0x1 DUP6 SWAP7 DUP3 SWAP4 SWAP7 DUP7 ADD MLOAD DUP2 SSTORE ADD SWAP6 ADD SWAP4 ADD PUSH2 0x469F JUMP JUMPDEST DUP4 DUP12 MSTORE DUP9 DUP12 KECCAK256 PUSH1 0x1F DUP5 ADD PUSH1 0x5 SHR DUP2 ADD SWAP2 DUP11 DUP6 LT PUSH2 0x4730 JUMPI JUMPDEST PUSH1 0x1F ADD PUSH1 0x5 SHR ADD SWAP1 JUMPDEST DUP2 DUP2 LT PUSH2 0x4725 JUMPI POP PUSH2 0x4143 JUMP JUMPDEST DUP12 DUP2 SSTORE PUSH1 0x1 ADD PUSH2 0x4718 JUMP JUMPDEST SWAP1 SWAP2 POP DUP2 SWAP1 PUSH2 0x470F JUMP JUMPDEST ADD MLOAD SWAP1 POP CODESIZE DUP1 PUSH2 0x40DC JUMP JUMPDEST DUP5 DUP14 MSTORE DUP11 DUP14 KECCAK256 SWAP3 POP PUSH1 0x1F NOT DUP5 AND DUP14 JUMPDEST DUP13 DUP3 DUP3 LT PUSH2 0x4792 JUMPI POP POP SWAP1 DUP5 PUSH1 0x1 SWAP6 SWAP5 SWAP4 SWAP3 LT PUSH2 0x4779 JUMPI JUMPDEST POP POP POP DUP2 SHL ADD SWAP1 SSTORE PUSH2 0x40F1 JUMP JUMPDEST ADD MLOAD PUSH1 0x0 NOT PUSH1 0xF8 DUP5 PUSH1 0x3 SHL AND SHR NOT AND SWAP1 SSTORE CODESIZE DUP1 DUP1 PUSH2 0x476C JUMP JUMPDEST PUSH1 0x1 DUP6 SWAP7 DUP3 SWAP4 SWAP7 DUP7 ADD MLOAD DUP2 SSTORE ADD SWAP6 ADD SWAP4 ADD PUSH2 0x4754 JUMP JUMPDEST SWAP1 SWAP2 POP DUP4 DUP13 MSTORE DUP10 DUP13 KECCAK256 PUSH1 0x1F DUP5 ADD PUSH1 0x5 SHR DUP2 ADD SWAP2 DUP12 DUP6 LT PUSH2 0x47EC JUMPI JUMPDEST SWAP1 PUSH1 0x1F DUP6 SWAP5 SWAP4 SWAP3 ADD PUSH1 0x5 SHR ADD SWAP1 JUMPDEST DUP2 DUP2 LT PUSH2 0x47DE JUMPI POP PUSH2 0x40C7 JUMP JUMPDEST DUP14 DUP2 SSTORE DUP5 SWAP4 POP PUSH1 0x1 ADD PUSH2 0x47D1 JUMP JUMPDEST SWAP1 SWAP2 POP DUP2 SWAP1 PUSH2 0x47C3 JUMP JUMPDEST ADD MLOAD SWAP1 POP CODESIZE DUP1 PUSH2 0x4082 JUMP JUMPDEST DUP5 DUP14 MSTORE DUP11 DUP14 KECCAK256 SWAP3 POP PUSH1 0x1F NOT DUP5 AND DUP14 JUMPDEST DUP13 DUP3 DUP3 LT PUSH2 0x484E JUMPI POP POP SWAP1 DUP5 PUSH1 0x1 SWAP6 SWAP5 SWAP4 SWAP3 LT PUSH2 0x4835 JUMPI JUMPDEST POP POP POP DUP2 SHL ADD SWAP1 SSTORE PUSH2 0x4097 JUMP JUMPDEST ADD MLOAD PUSH1 0x0 NOT PUSH1 0xF8 DUP5 PUSH1 0x3 SHL AND SHR NOT AND SWAP1 SSTORE CODESIZE DUP1 DUP1 PUSH2 0x4828 JUMP JUMPDEST PUSH1 0x1 DUP6 SWAP7 DUP3 SWAP4 SWAP7 DUP7 ADD MLOAD DUP2 SSTORE ADD SWAP6 ADD SWAP4 ADD PUSH2 0x4810 JUMP JUMPDEST SWAP1 SWAP2 POP DUP4 DUP13 MSTORE DUP10 DUP13 KECCAK256 PUSH1 0x1F DUP5 ADD PUSH1 0x5 SHR DUP2 ADD SWAP2 DUP12 DUP6 LT PUSH2 0x48A8 JUMPI JUMPDEST SWAP1 PUSH1 0x1F DUP6 SWAP5 SWAP4 SWAP3 ADD PUSH1 0x5 SHR ADD SWAP1 JUMPDEST DUP2 DUP2 LT PUSH2 0x489A JUMPI POP PUSH2 0x406D JUMP JUMPDEST DUP14 DUP2 SSTORE DUP5 SWAP4 POP PUSH1 0x1 ADD PUSH2 0x488D JUMP JUMPDEST SWAP1 SWAP2 POP DUP2 SWAP1 PUSH2 0x487F JUMP JUMPDEST ADD MLOAD SWAP1 POP CODESIZE DUP1 PUSH2 0x4004 JUMP JUMPDEST DUP6 DUP2 MSTORE DUP13 DUP2 KECCAK256 SWAP4 POP PUSH1 0x1F NOT DUP6 AND SWAP1 JUMPDEST DUP14 DUP3 DUP3 LT PUSH2 0x490A JUMPI POP POP SWAP1 DUP5 PUSH1 0x1 SWAP6 SWAP5 SWAP4 SWAP3 LT PUSH2 0x48F1 JUMPI JUMPDEST POP POP POP DUP2 SHL ADD SWAP1 SSTORE PUSH2 0x4019 JUMP JUMPDEST ADD MLOAD PUSH1 0x0 NOT PUSH1 0xF8 DUP5 PUSH1 0x3 SHL AND SHR NOT AND SWAP1 SSTORE CODESIZE DUP1 DUP1 PUSH2 0x48E4 JUMP JUMPDEST PUSH1 0x1 DUP6 SWAP7 DUP3 SWAP4 SWAP7 DUP7 ADD MLOAD DUP2 SSTORE ADD SWAP6 ADD SWAP4 ADD PUSH2 0x48CC JUMP JUMPDEST SWAP1 SWAP2 POP DUP4 DUP14 MSTORE DUP11 DUP14 KECCAK256 PUSH1 0x1F DUP5 ADD PUSH1 0x5 SHR DUP2 ADD SWAP2 DUP13 DUP6 LT PUSH2 0x4967 JUMPI JUMPDEST DUP5 SWAP4 SWAP3 SWAP2 DUP16 SWAP2 PUSH1 0x1F ADD PUSH1 0x5 SHR ADD SWAP2 SWAP1 JUMPDEST DUP3 DUP3 LT PUSH2 0x4959 JUMPI POP POP PUSH2 0x3FEF JUMP JUMPDEST DUP2 SSTORE DUP5 SWAP4 POP PUSH1 0x1 ADD DUP15 PUSH2 0x494B JUMP JUMPDEST SWAP1 SWAP2 POP DUP2 SWAP1 PUSH2 0x493B JUMP JUMPDEST ADD MLOAD SWAP1 POP CODESIZE DUP1 PUSH2 0x3F87 JUMP JUMPDEST DUP5 DUP14 MSTORE DUP11 DUP14 KECCAK256 SWAP3 POP PUSH1 0x1F NOT DUP5 AND DUP14 JUMPDEST DUP13 DUP3 DUP3 LT PUSH2 0x49C9 JUMPI POP POP SWAP1 DUP5 PUSH1 0x1 SWAP6 SWAP5 SWAP4 SWAP3 LT PUSH2 0x49B0 JUMPI JUMPDEST POP POP POP DUP2 SHL ADD SWAP1 SSTORE PUSH2 0x3F9C JUMP JUMPDEST ADD MLOAD PUSH1 0x0 NOT PUSH1 0xF8 DUP5 PUSH1 0x3 SHL AND SHR NOT AND SWAP1 SSTORE CODESIZE DUP1 DUP1 PUSH2 0x49A3 JUMP JUMPDEST PUSH1 0x1 DUP6 SWAP7 DUP3 SWAP4 SWAP7 DUP7 ADD MLOAD DUP2 SSTORE ADD SWAP6 ADD SWAP4 ADD PUSH2 0x498B JUMP JUMPDEST SWAP1 SWAP2 POP DUP4 DUP13 MSTORE DUP10 DUP13 KECCAK256 PUSH1 0x1F DUP5 ADD PUSH1 0x5 SHR DUP2 ADD SWAP2 DUP12 DUP6 LT PUSH2 0x4A23 JUMPI JUMPDEST SWAP1 PUSH1 0x1F DUP6 SWAP5 SWAP4 SWAP3 ADD PUSH1 0x5 SHR ADD SWAP1 JUMPDEST DUP2 DUP2 LT PUSH2 0x4A15 JUMPI POP PUSH2 0x3F72 JUMP JUMPDEST DUP14 DUP2 SSTORE DUP5 SWAP4 POP PUSH1 0x1 ADD PUSH2 0x4A08 JUMP JUMPDEST SWAP1 SWAP2 POP DUP2 SWAP1 PUSH2 0x49FA JUMP JUMPDEST ADD MLOAD SWAP1 POP CODESIZE DUP1 PUSH2 0x3F32 JUMP JUMPDEST DUP7 DUP14 MSTORE DUP11 DUP14 KECCAK256 SWAP3 POP PUSH1 0x1F NOT DUP5 AND DUP14 JUMPDEST DUP13 DUP3 DUP3 LT PUSH2 0x4A85 JUMPI POP POP SWAP1 DUP5 PUSH1 0x1 SWAP6 SWAP5 SWAP4 SWAP3 LT PUSH2 0x4A6C JUMPI JUMPDEST POP POP POP DUP2 SHL ADD DUP4 SSTORE PUSH2 0x3F47 JUMP JUMPDEST ADD MLOAD PUSH1 0x0 NOT PUSH1 0xF8 DUP5 PUSH1 0x3 SHL AND SHR NOT AND SWAP1 SSTORE CODESIZE DUP1 DUP1 PUSH2 0x4A5F JUMP JUMPDEST PUSH1 0x1 DUP6 SWAP7 DUP3 SWAP4 SWAP7 DUP7 ADD MLOAD DUP2 SSTORE ADD SWAP6 ADD SWAP4 ADD PUSH2 0x4A47 JUMP JUMPDEST SWAP1 SWAP2 POP DUP6 DUP13 MSTORE DUP10 DUP13 KECCAK256 PUSH1 0x1F DUP5 ADD PUSH1 0x5 SHR DUP2 ADD SWAP2 DUP12 DUP6 LT PUSH2 0x4ADF JUMPI JUMPDEST SWAP1 PUSH1 0x1F DUP6 SWAP5 SWAP4 SWAP3 ADD PUSH1 0x5 SHR ADD SWAP1 JUMPDEST DUP2 DUP2 LT PUSH2 0x4AD1 JUMPI POP PUSH2 0x3F1D JUMP JUMPDEST DUP14 DUP2 SSTORE DUP5 SWAP4 POP PUSH1 0x1 ADD PUSH2 0x4AC4 JUMP JUMPDEST SWAP1 SWAP2 POP DUP2 SWAP1 PUSH2 0x4AB6 JUMP JUMPDEST PUSH1 0x40 MLOAD PUSH3 0x461BCD PUSH1 0xE5 SHL DUP2 MSTORE PUSH1 0x20 PUSH1 0x4 DUP3 ADD MSTORE PUSH1 0x17 PUSH1 0x24 DUP3 ADD MSTORE PUSH23 0x43504F544220494420616C726561647920657869737473 PUSH1 0x48 SHL PUSH1 0x44 DUP3 ADD MSTORE PUSH1 0x64 SWAP1 REVERT JUMPDEST PUSH1 0x40 MLOAD PUSH3 0x461BCD PUSH1 0xE5 SHL DUP2 MSTORE PUSH1 0x20 PUSH1 0x4 DUP3 ADD MSTORE PUSH1 0x21 PUSH1 0x24 DUP3 ADD MSTORE PUSH32 0x416363657373207265737472696374656420746F20466163746F727920726F6C PUSH1 0x44 DUP3 ADD MSTORE PUSH1 0x65 PUSH1 0xF8 SHL PUSH1 0x64 DUP3 ADD MSTORE PUSH1 0x84 SWAP1 REVERT JUMPDEST PUSH2 0x4B90 SWAP2 POP PUSH1 0x20 RETURNDATASIZE PUSH1 0x20 GT PUSH2 0x21C7 JUMPI PUSH2 0x21B9 DUP2 DUP4 PUSH2 0x52D7 JUMP JUMPDEST CODESIZE PUSH2 0x3E5A JUMP JUMPDEST POP CALLVALUE PUSH2 0x1C4 JUMPI PUSH2 0x4BA5 CALLDATASIZE PUSH2 0x535F JUMP JUMPDEST SWAP1 PUSH1 0x20 DUP2 ADD PUSH2 0x4BB4 DUP2 MLOAD PUSH2 0x5691 JUMP JUMPDEST SWAP3 PUSH2 0x4BBF DUP5 SLOAD PUSH2 0x554B JUMP JUMPDEST ISZERO PUSH2 0x521E JUMPI PUSH1 0x2 DUP5 ADD SWAP4 PUSH1 0xFF DUP6 SLOAD AND PUSH2 0x4BD7 DUP2 PUSH2 0x5671 JUMP JUMPDEST PUSH2 0x51DA JUMPI PUSH1 0x40 DUP5 ADD MLOAD SWAP5 PUSH2 0x4BF3 PUSH1 0x60 DUP7 ADD SWAP7 DUP8 MLOAD SWAP1 CALLER SWAP1 PUSH2 0x5CBE JUMP JUMPDEST PUSH1 0x8 DUP4 ADD DUP2 MLOAD DUP1 MLOAD SWAP1 PUSH1 0x1 PUSH1 0x1 PUSH1 0x40 SHL SUB DUP3 GT PUSH2 0x1DCB JUMPI DUP2 SWAP1 PUSH2 0x4C16 DUP5 SLOAD PUSH2 0x554B JUMP JUMPDEST PUSH1 0x1F DUP2 GT PUSH2 0x518A JUMPI JUMPDEST POP PUSH1 0x20 SWAP1 PUSH1 0x1F DUP4 GT PUSH1 0x1 EQ PUSH2 0x5127 JUMPI DUP13 SWAP3 PUSH2 0x511C JUMPI JUMPDEST POP POP DUP2 PUSH1 0x1 SHL SWAP2 PUSH1 0x0 NOT SWAP1 PUSH1 0x3 SHL SHR NOT AND OR SWAP1 SSTORE JUMPDEST PUSH1 0x20 DUP2 ADD MLOAD PUSH1 0x9 DUP5 ADD DUP1 SLOAD PUSH1 0x1 PUSH1 0x1 PUSH1 0xA0 SHL SUB NOT AND PUSH1 0x1 PUSH1 0x1 PUSH1 0xA0 SHL SUB SWAP3 SWAP1 SWAP3 AND SWAP2 SWAP1 SWAP2 OR SWAP1 SSTORE PUSH1 0x40 ADD MLOAD DUP1 MLOAD PUSH1 0xA DUP5 ADD SWAP2 PUSH1 0x1 PUSH1 0x1 PUSH1 0x40 SHL SUB DUP3 GT PUSH2 0x1507 JUMPI DUP2 SWAP1 PUSH2 0x4C96 DUP5 SLOAD PUSH2 0x554B JUMP JUMPDEST PUSH1 0x1F DUP2 GT PUSH2 0x50CC JUMPI JUMPDEST POP PUSH1 0x20 SWAP1 PUSH1 0x1F DUP4 GT PUSH1 0x1 EQ PUSH2 0x5069 JUMPI DUP12 SWAP3 PUSH2 0x505E JUMPI JUMPDEST POP POP DUP2 PUSH1 0x1 SHL SWAP2 PUSH1 0x0 NOT SWAP1 PUSH1 0x3 SHL SHR NOT AND OR SWAP1 SSTORE JUMPDEST PUSH1 0x1 PUSH1 0xFF NOT DUP3 SLOAD AND OR SWAP1 SSTORE TIMESTAMP PUSH1 0x4 DUP3 ADD SSTORE DUP4 MLOAD PUSH1 0x1 DUP3 ADD SWAP1 DUP1 MLOAD SWAP1 PUSH1 0x1 PUSH1 0x1 PUSH1 0x40 SHL SUB DUP3 GT PUSH2 0x1695 JUMPI PUSH2 0x4CFD DUP4 SLOAD PUSH2 0x554B JUMP JUMPDEST PUSH1 0x1F DUP2 GT PUSH2 0x5019 JUMPI JUMPDEST POP PUSH1 0x20 SWAP1 DUP10 PUSH1 0x1F DUP5 GT PUSH1 0x1 EQ PUSH2 0x4FA9 JUMPI SWAP4 DUP4 PUSH2 0x1319 SWAP5 PUSH1 0x7 SWAP5 PUSH1 0xFF SWAP9 SWAP5 PUSH2 0x4D47 SWAP9 SWAP3 PUSH2 0x4F9E JUMPI JUMPDEST POP POP DUP2 PUSH1 0x1 SHL SWAP2 PUSH1 0x0 NOT SWAP1 PUSH1 0x3 SHL SHR NOT AND OR SWAP1 SSTORE ADD PUSH2 0x5585 JUMP JUMPDEST SWAP2 AND SWAP1 PUSH1 0x9 DUP3 LT ISZERO PUSH2 0x4F8A JUMPI DUP1 SLOAD SWAP1 PUSH1 0x1 PUSH1 0x40 SHL DUP3 LT ISZERO PUSH2 0x4F76 JUMPI SWAP1 PUSH2 0x4D72 SWAP2 PUSH1 0x1 DUP3 ADD DUP2 SSTORE PUSH2 0x5830 JUMP JUMPDEST DUP2 SLOAD SWAP1 PUSH1 0x3 SHL SWAP1 PUSH1 0xFF DUP5 DUP4 SHL SWAP3 SHL NOT AND OR SWAP1 SSTORE DUP5 JUMPDEST PUSH1 0x4 SLOAD DUP2 LT ISZERO PUSH2 0x4F20 JUMPI PUSH2 0x4D9A DUP2 PUSH2 0x54FA JUMP JUMPDEST POP PUSH1 0x40 MLOAD PUSH2 0x4DB0 DUP2 PUSH2 0x165 PUSH1 0x20 DUP3 ADD DUP1 SWAP6 PUSH2 0x5971 JUMP JUMPDEST MLOAD SWAP1 KECCAK256 DUP4 MLOAD PUSH1 0x40 MLOAD PUSH2 0x4DD2 PUSH1 0x20 DUP3 DUP2 PUSH2 0x234C DUP2 DUP4 ADD SWAP7 DUP8 DUP2 MLOAD SWAP4 DUP5 SWAP3 ADD PUSH2 0x5629 JUMP JUMPDEST MLOAD SWAP1 KECCAK256 EQ PUSH2 0x4DE3 JUMPI JUMPDEST PUSH1 0x1 ADD PUSH2 0x4D87 JUMP JUMPDEST DUP4 MLOAD PUSH1 0x1 PUSH2 0x4DF0 DUP4 PUSH2 0x54FA JUMP JUMPDEST POP ADD SWAP1 DUP1 MLOAD SWAP1 PUSH1 0x1 PUSH1 0x1 PUSH1 0x40 SHL SUB DUP3 GT PUSH2 0x1695 JUMPI PUSH2 0x4E0E DUP4 SLOAD PUSH2 0x554B JUMP JUMPDEST PUSH1 0x1F DUP2 GT PUSH2 0x4EDB JUMPI JUMPDEST POP PUSH1 0x20 SWAP1 PUSH1 0x1F DUP4 GT PUSH1 0x1 EQ PUSH2 0x4E74 JUMPI PUSH1 0x1 SWAP5 SWAP4 SWAP3 SWAP2 DUP11 SWAP2 DUP4 PUSH2 0x4E69 JUMPI JUMPDEST POP POP PUSH1 0x0 NOT PUSH1 0x3 DUP4 SWAP1 SHL SHR NOT AND SWAP1 DUP5 SHL OR SWAP1 SSTORE JUMPDEST PUSH1 0x4 PUSH2 0x4E53 DUP3 PUSH2 0x54FA JUMP JUMPDEST POP ADD DUP1 SLOAD PUSH2 0xFF00 NOT AND PUSH2 0x100 OR SWAP1 SSTORE SWAP1 POP PUSH2 0x4DDB JUMP JUMPDEST ADD MLOAD SWAP1 POP CODESIZE DUP1 PUSH2 0x4E34 JUMP JUMPDEST DUP4 DUP11 MSTORE DUP2 DUP11 KECCAK256 SWAP2 SWAP1 PUSH1 0x1F NOT DUP5 AND DUP12 JUMPDEST DUP2 DUP2 LT PUSH2 0x4EC3 JUMPI POP SWAP2 PUSH1 0x1 SWAP7 SWAP6 SWAP5 SWAP3 SWAP2 DUP4 DUP9 SWAP6 SWAP4 LT PUSH2 0x4EAA JUMPI JUMPDEST POP POP POP DUP2 SHL ADD SWAP1 SSTORE PUSH2 0x4E48 JUMP JUMPDEST ADD MLOAD PUSH1 0x0 NOT PUSH1 0xF8 DUP5 PUSH1 0x3 SHL AND SHR NOT AND SWAP1 SSTORE CODESIZE DUP1 DUP1 PUSH2 0x4E9D JUMP JUMPDEST SWAP3 SWAP4 PUSH1 0x20 PUSH1 0x1 DUP2 SWAP3 DUP8 DUP7 ADD MLOAD DUP2 SSTORE ADD SWAP6 ADD SWAP4 ADD PUSH2 0x4E83 JUMP JUMPDEST DUP4 DUP11 MSTORE PUSH1 0x20 DUP11 KECCAK256 PUSH1 0x1F DUP5 ADD PUSH1 0x5 SHR DUP2 ADD SWAP2 PUSH1 0x20 DUP6 LT PUSH2 0x4F16 JUMPI JUMPDEST PUSH1 0x1F ADD PUSH1 0x5 SHR ADD SWAP1 JUMPDEST DUP2 DUP2 LT PUSH2 0x4F0B JUMPI POP PUSH2 0x4E17 JUMP JUMPDEST DUP11 DUP2 SSTORE PUSH1 0x1 ADD PUSH2 0x4EFE JUMP JUMPDEST SWAP1 SWAP2 POP DUP2 SWAP1 PUSH2 0x4EF5 JUMP JUMPDEST DUP6 PUSH32 0x5F0795F9828E754B342C66DC560F8879D7982CA16FBEB97634E54F75BD39BFD7 PUSH2 0x4F65 DUP7 PUSH2 0x27E9 DUP7 DUP11 MLOAD SWAP3 MLOAD PUSH2 0x1599 PUSH1 0x40 MLOAD SWAP6 DUP7 SWAP6 PUSH1 0xA0 DUP8 MSTORE PUSH1 0xA0 DUP8 ADD SWAP1 PUSH2 0x564C JUMP JUMPDEST SWAP3 CALLER PUSH1 0x20 DUP8 ADD MSTORE PUSH1 0x40 DUP7 ADD SWAP1 PUSH2 0x5823 JUMP JUMPDEST PUSH4 0x4E487B71 PUSH1 0xE0 SHL DUP8 MSTORE PUSH1 0x41 PUSH1 0x4 MSTORE PUSH1 0x24 DUP8 REVERT JUMPDEST PUSH4 0x4E487B71 PUSH1 0xE0 SHL DUP7 MSTORE PUSH1 0x21 PUSH1 0x4 MSTORE PUSH1 0x24 DUP7 REVERT JUMPDEST ADD MLOAD SWAP1 POP CODESIZE DUP1 PUSH2 0x4D2D JUMP JUMPDEST POP DUP4 DUP11 MSTORE DUP2 DUP11 KECCAK256 SWAP2 SWAP1 PUSH1 0x1F NOT DUP5 AND DUP12 JUMPDEST DUP2 DUP2 LT PUSH2 0x5001 JUMPI POP DUP5 PUSH1 0x7 SWAP5 PUSH1 0xFF SWAP9 SWAP5 PUSH2 0x4D47 SWAP9 SWAP5 PUSH2 0x1319 SWAP9 PUSH1 0x1 SWAP6 LT PUSH2 0x4FE8 JUMPI JUMPDEST POP POP POP DUP2 SHL ADD SWAP1 SSTORE PUSH2 0x1313 JUMP JUMPDEST ADD MLOAD PUSH1 0x0 NOT PUSH1 0xF8 DUP5 PUSH1 0x3 SHL AND SHR NOT AND SWAP1 SSTORE CODESIZE DUP1 DUP1 PUSH2 0x4FDB JUMP JUMPDEST SWAP3 SWAP4 PUSH1 0x20 PUSH1 0x1 DUP2 SWAP3 DUP8 DUP7 ADD MLOAD DUP2 SSTORE ADD SWAP6 ADD SWAP4 ADD PUSH2 0x4FB9 JUMP JUMPDEST DUP4 DUP11 MSTORE PUSH1 0x20 DUP11 KECCAK256 PUSH1 0x1F DUP5 ADD PUSH1 0x5 SHR DUP2 ADD SWAP2 PUSH1 0x20 DUP6 LT PUSH2 0x5054 JUMPI JUMPDEST PUSH1 0x1F ADD PUSH1 0x5 SHR ADD SWAP1 JUMPDEST DUP2 DUP2 LT PUSH2 0x5049 JUMPI POP PUSH2 0x4D06 JUMP JUMPDEST DUP11 DUP2 SSTORE PUSH1 0x1 ADD PUSH2 0x503C JUMP JUMPDEST SWAP1 SWAP2 POP DUP2 SWAP1 PUSH2 0x5033 JUMP JUMPDEST ADD MLOAD SWAP1 POP CODESIZE DUP1 PUSH2 0x4CB5 JUMP JUMPDEST DUP5 DUP13 MSTORE DUP2 DUP13 KECCAK256 SWAP3 POP PUSH1 0x1F NOT DUP5 AND DUP13 JUMPDEST DUP2 DUP2 LT PUSH2 0x50B4 JUMPI POP SWAP1 DUP5 PUSH1 0x1 SWAP6 SWAP5 SWAP4 SWAP3 LT PUSH2 0x509B JUMPI JUMPDEST POP POP POP DUP2 SHL ADD SWAP1 SSTORE PUSH2 0x4CCA JUMP JUMPDEST ADD MLOAD PUSH1 0x0 NOT PUSH1 0xF8 DUP5 PUSH1 0x3 SHL AND SHR NOT AND SWAP1 SSTORE CODESIZE DUP1 DUP1 PUSH2 0x508E JUMP JUMPDEST SWAP3 SWAP4 PUSH1 0x20 PUSH1 0x1 DUP2 SWAP3 DUP8 DUP7 ADD MLOAD DUP2 SSTORE ADD SWAP6 ADD SWAP4 ADD PUSH2 0x5078 JUMP JUMPDEST SWAP1 SWAP2 POP DUP4 DUP12 MSTORE PUSH1 0x20 DUP12 KECCAK256 PUSH1 0x1F DUP5 ADD PUSH1 0x5 SHR DUP2 ADD SWAP2 PUSH1 0x20 DUP6 LT PUSH2 0x5112 JUMPI JUMPDEST SWAP1 PUSH1 0x1F DUP6 SWAP5 SWAP4 SWAP3 ADD PUSH1 0x5 SHR ADD SWAP1 JUMPDEST DUP2 DUP2 LT PUSH2 0x5104 JUMPI POP PUSH2 0x4C9F JUMP JUMPDEST DUP13 DUP2 SSTORE DUP5 SWAP4 POP PUSH1 0x1 ADD PUSH2 0x50F7 JUMP JUMPDEST SWAP1 SWAP2 POP DUP2 SWAP1 PUSH2 0x50E9 JUMP JUMPDEST ADD MLOAD SWAP1 POP CODESIZE DUP1 PUSH2 0x4C35 JUMP JUMPDEST DUP5 DUP14 MSTORE DUP2 DUP14 KECCAK256 SWAP3 POP PUSH1 0x1F NOT DUP5 AND DUP14 JUMPDEST DUP2 DUP2 LT PUSH2 0x5172 JUMPI POP SWAP1 DUP5 PUSH1 0x1 SWAP6 SWAP5 SWAP4 SWAP3 LT PUSH2 0x5159 JUMPI JUMPDEST POP POP POP DUP2 SHL ADD SWAP1 SSTORE PUSH2 0x4C4A JUMP JUMPDEST ADD MLOAD PUSH1 0x0 NOT PUSH1 0xF8 DUP5 PUSH1 0x3 SHL AND SHR NOT AND SWAP1 SSTORE CODESIZE DUP1 DUP1 PUSH2 0x514C JUMP JUMPDEST SWAP3 SWAP4 PUSH1 0x20 PUSH1 0x1 DUP2 SWAP3 DUP8 DUP7 ADD MLOAD DUP2 SSTORE ADD SWAP6 ADD SWAP4 ADD PUSH2 0x5136 JUMP JUMPDEST SWAP1 SWAP2 POP DUP4 DUP13 MSTORE PUSH1 0x20 DUP13 KECCAK256 PUSH1 0x1F DUP5 ADD PUSH1 0x5 SHR DUP2 ADD SWAP2 PUSH1 0x20 DUP6 LT PUSH2 0x51D0 JUMPI JUMPDEST SWAP1 PUSH1 0x1F DUP6 SWAP5 SWAP4 SWAP3 ADD PUSH1 0x5 SHR ADD SWAP1 JUMPDEST DUP2 DUP2 LT PUSH2 0x51C2 JUMPI POP PUSH2 0x4C1F JUMP JUMPDEST DUP14 DUP2 SSTORE DUP5 SWAP4 POP PUSH1 0x1 ADD PUSH2 0x51B5 JUMP JUMPDEST SWAP1 SWAP2 POP DUP2 SWAP1 PUSH2 0x51A7 JUMP JUMPDEST PUSH1 0x64 PUSH1 0x40 MLOAD PUSH3 0x461BCD PUSH1 0xE5 SHL DUP2 MSTORE PUSH1 0x20 PUSH1 0x4 DUP3 ADD MSTORE PUSH1 0x20 PUSH1 0x24 DUP3 ADD MSTORE PUSH32 0x43504F544220737461747573206D757374206265202752657175657374656427 PUSH1 0x44 DUP3 ADD MSTORE REVERT JUMPDEST PUSH1 0x40 MLOAD PUSH3 0x461BCD PUSH1 0xE5 SHL DUP2 MSTORE PUSH1 0x20 PUSH1 0x4 DUP3 ADD MSTORE PUSH1 0xF PUSH1 0x24 DUP3 ADD MSTORE PUSH15 0x10D413D510881B9BDD08199BDD5B99 PUSH1 0x8A SHL PUSH1 0x44 DUP3 ADD MSTORE PUSH1 0x64 SWAP1 REVERT JUMPDEST PUSH1 0x80 DUP2 ADD SWAP1 DUP2 LT PUSH1 0x1 PUSH1 0x1 PUSH1 0x40 SHL SUB DUP3 GT OR PUSH2 0x5270 JUMPI PUSH1 0x40 MSTORE JUMP JUMPDEST PUSH4 0x4E487B71 PUSH1 0xE0 SHL PUSH1 0x0 MSTORE PUSH1 0x41 PUSH1 0x4 MSTORE PUSH1 0x24 PUSH1 0x0 REVERT JUMPDEST PUSH1 0x60 DUP2 ADD SWAP1 DUP2 LT PUSH1 0x1 PUSH1 0x1 PUSH1 0x40 SHL SUB DUP3 GT OR PUSH2 0x5270 JUMPI PUSH1 0x40 MSTORE JUMP JUMPDEST PUSH1 0xA0 DUP2 ADD SWAP1 DUP2 LT PUSH1 0x1 PUSH1 0x1 PUSH1 0x40 SHL SUB DUP3 GT OR PUSH2 0x5270 JUMPI PUSH1 0x40 MSTORE JUMP JUMPDEST PUSH1 0xC0 DUP2 ADD SWAP1 DUP2 LT PUSH1 0x1 PUSH1 0x1 PUSH1 0x40 SHL SUB DUP3 GT OR PUSH2 0x5270 JUMPI PUSH1 0x40 MSTORE JUMP JUMPDEST SWAP1 PUSH1 0x1F DUP1 NOT SWAP2 ADD AND DUP2 ADD SWAP1 DUP2 LT PUSH1 0x1 PUSH1 0x1 PUSH1 0x40 SHL SUB DUP3 GT OR PUSH2 0x5270 JUMPI PUSH1 0x40 MSTORE JUMP JUMPDEST PUSH1 0x1 PUSH1 0x1 PUSH1 0x40 SHL SUB DUP2 GT PUSH2 0x5270 JUMPI PUSH1 0x1F ADD PUSH1 0x1F NOT AND PUSH1 0x20 ADD SWAP1 JUMP JUMPDEST DUP2 PUSH1 0x1F DUP3 ADD SLT ISZERO PUSH2 0x535A JUMPI DUP1 CALLDATALOAD SWAP1 PUSH2 0x532A DUP3 PUSH2 0x52F8 JUMP JUMPDEST SWAP3 PUSH2 0x5338 PUSH1 0x40 MLOAD SWAP5 DUP6 PUSH2 0x52D7 JUMP JUMPDEST DUP3 DUP5 MSTORE PUSH1 0x20 DUP4 DUP4 ADD ADD GT PUSH2 0x535A JUMPI DUP2 PUSH1 0x0 SWAP3 PUSH1 0x20 DUP1 SWAP4 ADD DUP4 DUP7 ADD CALLDATACOPY DUP4 ADD ADD MSTORE SWAP1 JUMP JUMPDEST PUSH1 0x0 DUP1 REVERT JUMPDEST PUSH1 0x40 PUSH1 0x3 NOT DUP3 ADD SLT PUSH2 0x535A JUMPI PUSH1 0x4 CALLDATALOAD PUSH1 0x1 PUSH1 0x1 PUSH1 0x40 SHL SUB DUP2 GT PUSH2 0x535A JUMPI PUSH1 0x80 DUP2 DUP4 SUB PUSH1 0x3 NOT ADD SLT PUSH2 0x535A JUMPI PUSH1 0x40 MLOAD SWAP2 PUSH2 0x5397 DUP4 PUSH2 0x5255 JUMP JUMPDEST DUP2 PUSH1 0x4 ADD CALLDATALOAD PUSH1 0x1 PUSH1 0x1 PUSH1 0x40 SHL SUB DUP2 GT PUSH2 0x535A JUMPI DUP2 PUSH1 0x4 PUSH2 0x53B9 SWAP3 DUP6 ADD ADD PUSH2 0x5313 JUMP JUMPDEST DUP4 MSTORE PUSH1 0x24 DUP3 ADD CALLDATALOAD PUSH1 0x1 PUSH1 0x1 PUSH1 0x40 SHL SUB DUP2 GT PUSH2 0x535A JUMPI DUP2 PUSH1 0x4 PUSH2 0x53DD SWAP3 DUP6 ADD ADD PUSH2 0x5313 JUMP JUMPDEST PUSH1 0x20 DUP5 ADD MSTORE PUSH1 0x44 DUP3 ADD CALLDATALOAD PUSH1 0x1 PUSH1 0x1 PUSH1 0x40 SHL SUB DUP2 GT PUSH2 0x535A JUMPI DUP2 PUSH1 0x4 PUSH2 0x5404 SWAP3 DUP6 ADD ADD PUSH2 0x5313 JUMP JUMPDEST PUSH1 0x40 DUP5 ADD MSTORE PUSH1 0x64 DUP3 ADD CALLDATALOAD SWAP2 PUSH1 0x1 PUSH1 0x1 PUSH1 0x40 SHL SUB DUP4 GT PUSH2 0x535A JUMPI PUSH2 0x542A SWAP3 ADD PUSH1 0x4 ADD PUSH2 0x5313 JUMP JUMPDEST PUSH1 0x60 DUP3 ADD MSTORE SWAP1 PUSH1 0x24 CALLDATALOAD PUSH1 0xFF DUP2 AND DUP2 SUB PUSH2 0x535A JUMPI SWAP1 JUMP JUMPDEST PUSH1 0x40 PUSH1 0x3 NOT DUP3 ADD SLT PUSH2 0x535A JUMPI PUSH1 0x4 CALLDATALOAD PUSH1 0x1 PUSH1 0x1 PUSH1 0x40 SHL SUB DUP2 GT PUSH2 0x535A JUMPI PUSH1 0x60 DUP2 DUP4 SUB PUSH1 0x3 NOT ADD SLT PUSH2 0x535A JUMPI PUSH1 0x40 MLOAD SWAP2 PUSH2 0x5478 DUP4 PUSH2 0x5286 JUMP JUMPDEST DUP2 PUSH1 0x4 ADD CALLDATALOAD PUSH1 0x1 PUSH1 0x1 PUSH1 0x40 SHL SUB DUP2 GT PUSH2 0x535A JUMPI DUP2 PUSH1 0x4 PUSH2 0x549A SWAP3 DUP6 ADD ADD PUSH2 0x5313 JUMP JUMPDEST DUP4 MSTORE PUSH1 0x24 DUP3 ADD CALLDATALOAD PUSH1 0x1 PUSH1 0x1 PUSH1 0x40 SHL SUB DUP2 GT PUSH2 0x535A JUMPI DUP2 PUSH1 0x4 PUSH2 0x54BE SWAP3 DUP6 ADD ADD PUSH2 0x5313 JUMP JUMPDEST PUSH1 0x20 DUP5 ADD MSTORE PUSH1 0x44 DUP3 ADD CALLDATALOAD SWAP2 PUSH1 0x1 PUSH1 0x1 PUSH1 0x40 SHL SUB DUP4 GT PUSH2 0x535A JUMPI PUSH2 0x54E4 SWAP3 ADD PUSH1 0x4 ADD PUSH2 0x5313 JUMP JUMPDEST PUSH1 0x40 DUP3 ADD MSTORE SWAP1 PUSH1 0x24 CALLDATALOAD PUSH1 0xFF DUP2 AND DUP2 SUB PUSH2 0x535A JUMPI SWAP1 JUMP JUMPDEST PUSH1 0x4 SLOAD DUP2 LT ISZERO PUSH2 0x5519 JUMPI PUSH1 0x4 PUSH1 0x0 MSTORE PUSH1 0x5 PUSH1 0x20 PUSH1 0x0 KECCAK256 SWAP2 MUL ADD SWAP1 PUSH1 0x0 SWAP1 JUMP JUMPDEST PUSH4 0x4E487B71 PUSH1 0xE0 SHL PUSH1 0x0 MSTORE PUSH1 0x32 PUSH1 0x4 MSTORE PUSH1 0x24 PUSH1 0x0 REVERT JUMPDEST DUP1 SLOAD DUP3 LT ISZERO PUSH2 0x5519 JUMPI PUSH1 0x0 MSTORE PUSH1 0x5 PUSH1 0x20 PUSH1 0x0 KECCAK256 SWAP2 MUL ADD SWAP1 PUSH1 0x0 SWAP1 JUMP JUMPDEST SWAP1 PUSH1 0x1 DUP3 DUP2 SHR SWAP3 AND DUP1 ISZERO PUSH2 0x557B JUMPI JUMPDEST PUSH1 0x20 DUP4 LT EQ PUSH2 0x5565 JUMPI JUMP JUMPDEST PUSH4 0x4E487B71 PUSH1 0xE0 SHL PUSH1 0x0 MSTORE PUSH1 0x22 PUSH1 0x4 MSTORE PUSH1 0x24 PUSH1 0x0 REVERT JUMPDEST SWAP2 PUSH1 0x7F AND SWAP2 PUSH2 0x555A JUMP JUMPDEST SWAP1 PUSH1 0x40 MLOAD SWAP2 DUP3 PUSH1 0x0 DUP3 SLOAD SWAP3 PUSH2 0x5599 DUP5 PUSH2 0x554B JUMP JUMPDEST DUP1 DUP5 MSTORE SWAP4 PUSH1 0x1 DUP2 AND SWAP1 DUP2 ISZERO PUSH2 0x5607 JUMPI POP PUSH1 0x1 EQ PUSH2 0x55C0 JUMPI JUMPDEST POP PUSH2 0x55BE SWAP3 POP SUB DUP4 PUSH2 0x52D7 JUMP JUMPDEST JUMP JUMPDEST SWAP1 POP PUSH1 0x0 SWAP3 SWAP2 SWAP3 MSTORE PUSH1 0x20 PUSH1 0x0 KECCAK256 SWAP1 PUSH1 0x0 SWAP2 JUMPDEST DUP2 DUP4 LT PUSH2 0x55EB JUMPI POP POP SWAP1 PUSH1 0x20 PUSH2 0x55BE SWAP3 DUP3 ADD ADD CODESIZE PUSH2 0x55B1 JUMP JUMPDEST PUSH1 0x20 SWAP2 SWAP4 POP DUP1 PUSH1 0x1 SWAP2 SLOAD DUP4 DUP6 DUP10 ADD ADD MSTORE ADD SWAP2 ADD SWAP1 SWAP2 DUP5 SWAP3 PUSH2 0x55D2 JUMP JUMPDEST SWAP1 POP PUSH1 0x20 SWAP3 POP PUSH2 0x55BE SWAP5 SWAP2 POP PUSH1 0xFF NOT AND DUP3 DUP5 ADD MSTORE ISZERO ISZERO PUSH1 0x5 SHL DUP3 ADD ADD CODESIZE PUSH2 0x55B1 JUMP JUMPDEST PUSH1 0x0 JUMPDEST DUP4 DUP2 LT PUSH2 0x563C JUMPI POP POP PUSH1 0x0 SWAP2 ADD MSTORE JUMP JUMPDEST DUP2 DUP2 ADD MLOAD DUP4 DUP3 ADD MSTORE PUSH1 0x20 ADD PUSH2 0x562C JUMP JUMPDEST SWAP1 PUSH1 0x20 SWAP2 PUSH2 0x5665 DUP2 MLOAD DUP1 SWAP3 DUP2 DUP6 MSTORE DUP6 DUP1 DUP7 ADD SWAP2 ADD PUSH2 0x5629 JUMP JUMPDEST PUSH1 0x1F ADD PUSH1 0x1F NOT AND ADD ADD SWAP1 JUMP JUMPDEST PUSH1 0x2 GT ISZERO PUSH2 0x567B JUMPI JUMP JUMPDEST PUSH4 0x4E487B71 PUSH1 0xE0 SHL PUSH1 0x0 MSTORE PUSH1 0x21 PUSH1 0x4 MSTORE PUSH1 0x24 PUSH1 0x0 REVERT JUMPDEST PUSH1 0x20 PUSH2 0x56AA SWAP2 DUP2 PUSH1 0x40 MLOAD SWAP4 DUP3 DUP6 DUP1 SWAP5 MLOAD SWAP4 DUP5 SWAP3 ADD PUSH2 0x5629 JUMP JUMPDEST DUP2 ADD PUSH1 0x1 DUP2 MSTORE SUB ADD SWAP1 KECCAK256 SWAP1 JUMP JUMPDEST PUSH1 0x20 PUSH2 0x56D0 SWAP2 DUP2 PUSH1 0x40 MLOAD SWAP4 DUP3 DUP6 DUP1 SWAP5 MLOAD SWAP4 DUP5 SWAP3 ADD PUSH2 0x5629 JUMP JUMPDEST DUP2 ADD PUSH1 0x2 DUP2 MSTORE SUB ADD SWAP1 KECCAK256 SWAP1 JUMP JUMPDEST PUSH1 0x20 PUSH2 0x56F6 SWAP2 DUP2 PUSH1 0x40 MLOAD SWAP4 DUP3 DUP6 DUP1 SWAP5 MLOAD SWAP4 DUP5 SWAP3 ADD PUSH2 0x5629 JUMP JUMPDEST DUP2 ADD PUSH1 0x3 DUP2 MSTORE SUB ADD SWAP1 KECCAK256 SWAP1 JUMP JUMPDEST SWAP1 PUSH1 0x40 MLOAD PUSH2 0x5710 DUP2 PUSH2 0x5286 JUMP JUMPDEST PUSH1 0x40 PUSH2 0x573D PUSH1 0x2 DUP4 SWAP6 PUSH2 0x5722 DUP2 PUSH2 0x5585 JUMP JUMPDEST DUP6 MSTORE PUSH1 0x1 DUP2 ADD SLOAD PUSH1 0x1 PUSH1 0x1 PUSH1 0xA0 SHL SUB AND PUSH1 0x20 DUP7 ADD MSTORE ADD PUSH2 0x5585 JUMP JUMPDEST SWAP2 ADD MSTORE JUMP JUMPDEST SWAP1 PUSH1 0x40 MLOAD PUSH2 0x574F DUP2 PUSH2 0x52A1 JUMP JUMPDEST PUSH1 0x80 PUSH2 0x573D PUSH1 0x6 DUP4 SWAP6 PUSH1 0xFF DUP2 SLOAD AND PUSH2 0x5766 DUP2 PUSH2 0x5671 JUMP JUMPDEST DUP6 MSTORE PUSH1 0x1 DUP2 ADD SLOAD PUSH1 0x20 DUP7 ADD MSTORE PUSH1 0x2 DUP2 ADD SLOAD PUSH1 0x40 DUP7 ADD MSTORE PUSH2 0x5788 PUSH1 0x3 DUP3 ADD PUSH2 0x5703 JUMP JUMPDEST PUSH1 0x60 DUP7 ADD MSTORE ADD PUSH2 0x5703 JUMP JUMPDEST PUSH2 0x57CF SWAP2 PUSH1 0x40 PUSH2 0x57AC DUP4 MLOAD PUSH1 0x60 DUP5 MSTORE PUSH1 0x60 DUP5 ADD SWAP1 PUSH2 0x564C JUMP JUMPDEST SWAP3 PUSH1 0x1 DUP1 PUSH1 0xA0 SHL SUB PUSH1 0x20 DUP3 ADD MLOAD AND PUSH1 0x20 DUP5 ADD MSTORE ADD MLOAD SWAP1 PUSH1 0x40 DUP2 DUP5 SUB SWAP2 ADD MSTORE PUSH2 0x564C JUMP JUMPDEST SWAP1 JUMP JUMPDEST PUSH2 0x57CF SWAP2 DUP2 MLOAD PUSH2 0x57E1 DUP2 PUSH2 0x5671 JUMP JUMPDEST DUP2 MSTORE PUSH1 0x20 DUP3 ADD MLOAD PUSH1 0x20 DUP3 ADD MSTORE PUSH1 0x40 DUP3 ADD MLOAD PUSH1 0x40 DUP3 ADD MSTORE PUSH1 0x80 PUSH2 0x5812 PUSH1 0x60 DUP5 ADD MLOAD PUSH1 0xA0 PUSH1 0x60 DUP6 ADD MSTORE PUSH1 0xA0 DUP5 ADD SWAP1 PUSH2 0x5793 JUMP JUMPDEST SWAP3 ADD MLOAD SWAP1 PUSH1 0x80 DUP2 DUP5 SUB SWAP2 ADD MSTORE PUSH2 0x5793 JUMP JUMPDEST SWAP1 PUSH1 0x9 DUP3 LT ISZERO PUSH2 0x567B JUMPI MSTORE JUMP JUMPDEST SWAP2 SWAP1 SWAP2 DUP1 SLOAD DUP4 LT ISZERO PUSH2 0x5519 JUMPI PUSH1 0x0 MSTORE PUSH1 0x1F PUSH1 0x20 PUSH1 0x0 KECCAK256 DUP4 PUSH1 0x5 SHR ADD SWAP3 AND SWAP1 JUMP JUMPDEST PUSH1 0x20 DUP2 ADD PUSH1 0x20 DUP3 MSTORE DUP3 MLOAD DUP1 SWAP2 MSTORE PUSH1 0x40 DUP3 ADD SWAP2 PUSH1 0x20 PUSH1 0x40 DUP4 PUSH1 0x5 SHL DUP4 ADD ADD SWAP5 ADD SWAP3 PUSH1 0x0 SWAP2 JUMPDEST DUP4 DUP4 LT PUSH2 0x5883 JUMPI POP POP POP POP POP SWAP1 JUMP JUMPDEST SWAP1 SWAP2 SWAP3 SWAP4 SWAP5 PUSH1 0x20 DUP1 PUSH1 0x1 SWAP3 PUSH1 0x3F NOT DUP6 DUP3 SUB ADD DUP7 MSTORE DUP9 MLOAD SWAP1 PUSH1 0xA0 DUP1 PUSH2 0x58ED PUSH2 0x58DB PUSH2 0x58C9 PUSH2 0x58B9 DUP8 MLOAD PUSH1 0xC0 DUP9 MSTORE PUSH1 0xC0 DUP9 ADD SWAP1 PUSH2 0x564C JUMP JUMPDEST DUP9 DUP9 ADD MLOAD DUP8 DUP3 SUB DUP11 DUP10 ADD MSTORE PUSH2 0x564C JUMP JUMPDEST PUSH1 0x40 DUP8 ADD MLOAD DUP7 DUP3 SUB PUSH1 0x40 DUP9 ADD MSTORE PUSH2 0x564C JUMP JUMPDEST PUSH1 0x60 DUP7 ADD MLOAD DUP6 DUP3 SUB PUSH1 0x60 DUP8 ADD MSTORE PUSH2 0x564C JUMP JUMPDEST SWAP4 PUSH1 0xFF PUSH1 0x80 DUP3 ADD MLOAD AND PUSH1 0x80 DUP6 ADD MSTORE ADD MLOAD SWAP2 PUSH2 0x5907 DUP4 PUSH2 0x5671 JUMP JUMPDEST ADD MSTORE SWAP8 ADD SWAP4 ADD SWAP4 ADD SWAP2 SWAP4 SWAP3 SWAP1 PUSH2 0x5874 JUMP JUMPDEST SWAP3 PUSH2 0x5952 SWAP1 PUSH2 0x5944 PUSH1 0x60 SWAP5 PUSH1 0xFF SWAP5 SWAP9 SWAP8 SWAP9 PUSH1 0x1 DUP1 PUSH1 0xA0 SHL SUB AND DUP8 MSTORE PUSH1 0x80 PUSH1 0x20 DUP9 ADD MSTORE PUSH1 0x80 DUP8 ADD SWAP1 PUSH2 0x564C JUMP JUMPDEST SWAP1 DUP6 DUP3 SUB PUSH1 0x40 DUP8 ADD MSTORE PUSH2 0x564C JUMP JUMPDEST SWAP5 AND SWAP2 ADD MSTORE JUMP JUMPDEST SWAP1 PUSH2 0x5963 DUP2 PUSH2 0x5671 JUMP JUMPDEST PUSH1 0xFF DUP1 NOT DUP4 SLOAD AND SWAP2 AND OR SWAP1 SSTORE JUMP JUMPDEST PUSH1 0x0 SWAP3 SWAP2 DUP2 SLOAD SWAP2 PUSH2 0x5981 DUP4 PUSH2 0x554B JUMP JUMPDEST SWAP3 PUSH1 0x1 DUP2 AND SWAP1 DUP2 ISZERO PUSH2 0x59CC JUMPI POP PUSH1 0x1 EQ PUSH2 0x599A JUMPI POP POP POP JUMP JUMPDEST SWAP1 SWAP2 SWAP3 SWAP4 POP PUSH1 0x0 MSTORE PUSH1 0x20 PUSH1 0x0 KECCAK256 PUSH1 0x0 SWAP1 JUMPDEST DUP4 DUP3 LT PUSH2 0x59B8 JUMPI POP POP ADD SWAP1 JUMP JUMPDEST PUSH1 0x1 DUP2 PUSH1 0x20 SWAP3 SLOAD DUP5 DUP7 ADD MSTORE ADD SWAP2 ADD SWAP1 PUSH2 0x59AB JUMP JUMPDEST PUSH1 0xFF NOT AND DUP4 MSTORE POP POP DUP2 ISZERO ISZERO SWAP1 SWAP2 MUL ADD SWAP2 POP JUMP JUMPDEST SWAP1 PUSH2 0x59E9 DUP2 PUSH2 0x5671 JUMP JUMPDEST PUSH2 0xFF00 DUP3 SLOAD SWAP2 PUSH1 0x8 SHL AND SWAP1 PUSH2 0xFF00 NOT AND OR SWAP1 SSTORE JUMP JUMPDEST SWAP1 DUP2 PUSH1 0x20 SWAP2 SUB SLT PUSH2 0x535A JUMPI MLOAD DUP1 ISZERO ISZERO DUP2 SUB PUSH2 0x535A JUMPI SWAP1 JUMP JUMPDEST PUSH1 0x9 DUP3 LT ISZERO PUSH2 0x567B JUMPI MSTORE JUMP JUMPDEST PUSH1 0x40 MLOAD SWAP1 PUSH2 0x5A31 PUSH1 0x40 DUP4 PUSH2 0x52D7 JUMP JUMPDEST PUSH1 0x5 DUP3 MSTORE PUSH5 0x31B837BA31 PUSH1 0xD9 SHL PUSH1 0x20 DUP4 ADD MSTORE JUMP JUMPDEST PUSH1 0x40 MLOAD SWAP1 PUSH2 0x5A54 PUSH1 0x40 DUP4 PUSH2 0x52D7 JUMP JUMPDEST PUSH1 0x4 DUP3 MSTORE PUSH4 0x31B237B1 PUSH1 0xE1 SHL PUSH1 0x20 DUP4 ADD MSTORE JUMP JUMPDEST PUSH1 0x40 MLOAD SWAP1 PUSH2 0x5A74 DUP3 PUSH2 0x5286 JUMP JUMPDEST PUSH1 0x60 PUSH1 0x40 DUP4 DUP3 DUP2 MSTORE PUSH1 0x0 PUSH1 0x20 DUP3 ADD MSTORE ADD MSTORE JUMP JUMPDEST PUSH1 0x40 MLOAD SWAP1 PUSH2 0x5A94 DUP3 PUSH2 0x52A1 JUMP JUMPDEST DUP2 PUSH1 0x0 DUP2 MSTORE PUSH1 0x0 PUSH1 0x20 DUP3 ADD MSTORE PUSH1 0x0 PUSH1 0x40 DUP3 ADD MSTORE PUSH2 0x5AAF PUSH2 0x5A67 JUMP JUMPDEST PUSH1 0x60 DUP3 ADD MSTORE PUSH1 0x80 PUSH2 0x573D PUSH2 0x5A67 JUMP JUMPDEST PUSH1 0x40 MLOAD SWAP1 PUSH2 0x5ACB DUP3 PUSH2 0x5255 JUMP JUMPDEST PUSH1 0x0 PUSH1 0x60 DUP4 DUP2 DUP2 MSTORE DUP2 PUSH1 0x20 DUP3 ADD MSTORE PUSH2 0x5AE1 PUSH2 0x5A87 JUMP JUMPDEST PUSH1 0x40 DUP3 ADD MSTORE ADD MSTORE JUMP JUMPDEST PUSH1 0x1 PUSH1 0x1 PUSH1 0x40 SHL SUB DUP2 GT PUSH2 0x5270 JUMPI PUSH1 0x5 SHL PUSH1 0x20 ADD SWAP1 JUMP JUMPDEST PUSH1 0x40 MLOAD SWAP1 PUSH2 0x5B0E DUP3 PUSH2 0x52BC JUMP JUMPDEST PUSH1 0x0 PUSH1 0xA0 DUP4 PUSH1 0x60 DUP2 MSTORE PUSH1 0x60 PUSH1 0x20 DUP3 ADD MSTORE PUSH1 0x60 PUSH1 0x40 DUP3 ADD MSTORE PUSH1 0x60 DUP1 DUP3 ADD MSTORE DUP3 PUSH1 0x80 DUP3 ADD MSTORE ADD MSTORE JUMP JUMPDEST SWAP1 PUSH2 0x5B3F DUP3 PUSH2 0x5AEA JUMP JUMPDEST PUSH2 0x5B4C PUSH1 0x40 MLOAD SWAP2 DUP3 PUSH2 0x52D7 JUMP JUMPDEST DUP3 DUP2 MSTORE DUP1 SWAP3 PUSH2 0x5B5D PUSH1 0x1F NOT SWAP2 PUSH2 0x5AEA JUMP JUMPDEST ADD SWAP1 PUSH1 0x0 JUMPDEST DUP3 DUP2 LT PUSH2 0x5B6E JUMPI POP POP POP JUMP JUMPDEST PUSH1 0x20 SWAP1 PUSH2 0x5B79 PUSH2 0x5B01 JUMP JUMPDEST DUP3 DUP3 DUP6 ADD ADD MSTORE ADD PUSH2 0x5B62 JUMP JUMPDEST DUP1 MLOAD DUP3 LT ISZERO PUSH2 0x5519 JUMPI PUSH1 0x20 SWAP2 PUSH1 0x5 SHL ADD ADD SWAP1 JUMP JUMPDEST SWAP1 PUSH1 0x40 MLOAD PUSH2 0x5BA6 DUP2 PUSH2 0x52BC JUMP JUMPDEST PUSH1 0xA0 PUSH1 0xFF PUSH1 0x4 DUP4 SWAP6 PUSH2 0x5BB7 DUP2 PUSH2 0x5585 JUMP JUMPDEST DUP6 MSTORE PUSH2 0x5BC5 PUSH1 0x1 DUP3 ADD PUSH2 0x5585 JUMP JUMPDEST PUSH1 0x20 DUP7 ADD MSTORE PUSH2 0x5BD6 PUSH1 0x2 DUP3 ADD PUSH2 0x5585 JUMP JUMPDEST PUSH1 0x40 DUP7 ADD MSTORE PUSH2 0x5BE7 PUSH1 0x3 DUP3 ADD PUSH2 0x5585 JUMP JUMPDEST PUSH1 0x60 DUP7 ADD MSTORE ADD SLOAD DUP2 DUP2 AND PUSH1 0x80 DUP6 ADD MSTORE PUSH1 0x8 SHR AND SWAP2 PUSH2 0x5C04 DUP4 PUSH2 0x5671 JUMP JUMPDEST ADD MSTORE JUMP JUMPDEST PUSH1 0xFF AND PUSH1 0xFF DUP2 EQ PUSH2 0x5C19 JUMPI PUSH1 0x1 ADD SWAP1 JUMP JUMPDEST PUSH4 0x4E487B71 PUSH1 0xE0 SHL PUSH1 0x0 MSTORE PUSH1 0x11 PUSH1 0x4 MSTORE PUSH1 0x24 PUSH1 0x0 REVERT JUMPDEST PUSH1 0x40 MLOAD SWAP1 PUSH2 0x5C3E PUSH1 0x40 DUP4 PUSH2 0x52D7 JUMP JUMPDEST PUSH1 0x7 DUP3 MSTORE PUSH7 0x30B0BAB4321C35 PUSH1 0xC9 SHL PUSH1 0x20 DUP4 ADD MSTORE JUMP JUMPDEST DUP2 PUSH1 0x1F DUP3 ADD SLT ISZERO PUSH2 0x535A JUMPI DUP1 MLOAD PUSH2 0x5C6A DUP2 PUSH2 0x52F8 JUMP JUMPDEST SWAP3 PUSH2 0x5C78 PUSH1 0x40 MLOAD SWAP5 DUP6 PUSH2 0x52D7 JUMP JUMPDEST DUP2 DUP5 MSTORE PUSH1 0x20 DUP3 DUP5 ADD ADD GT PUSH2 0x535A JUMPI PUSH2 0x57CF SWAP2 PUSH1 0x20 DUP1 DUP6 ADD SWAP2 ADD PUSH2 0x5629 JUMP JUMPDEST SWAP1 PUSH2 0x5C9F PUSH2 0x5A67 JUMP JUMPDEST POP PUSH1 0x40 MLOAD SWAP2 PUSH2 0x5CAD DUP4 PUSH2 0x5286 JUMP JUMPDEST DUP3 MSTORE PUSH1 0x0 PUSH1 0x20 DUP4 ADD MSTORE PUSH1 0x40 DUP3 ADD MSTORE SWAP1 JUMP JUMPDEST SWAP2 SWAP1 PUSH2 0x5CC8 PUSH2 0x5A67 JUMP JUMPDEST POP PUSH1 0x40 MLOAD SWAP3 PUSH2 0x5CD6 DUP5 PUSH2 0x5286 JUMP JUMPDEST DUP4 MSTORE PUSH1 0x1 PUSH1 0x1 PUSH1 0xA0 SHL SUB AND PUSH1 0x20 DUP4 ADD MSTORE PUSH1 0x40 DUP3 ADD MSTORE SWAP1 JUMP JUMPDEST SWAP1 PUSH2 0x5CF7 PUSH2 0x5A87 JUMP JUMPDEST POP PUSH1 0x40 MLOAD SWAP2 PUSH2 0x5D05 DUP4 PUSH2 0x52A1 JUMP JUMPDEST PUSH1 0x0 DUP4 MSTORE TIMESTAMP PUSH1 0x20 DUP5 ADD MSTORE PUSH1 0x0 PUSH1 0x40 DUP5 ADD MSTORE PUSH1 0x60 DUP4 ADD MSTORE PUSH1 0x80 DUP3 ADD MSTORE SWAP1 JUMP JUMPDEST SWAP4 SWAP1 SWAP2 PUSH1 0xFF SWAP4 SWAP3 PUSH2 0x5D32 PUSH2 0x5B01 JUMP JUMPDEST POP PUSH1 0x40 MLOAD SWAP6 PUSH2 0x5D40 DUP8 PUSH2 0x52BC JUMP JUMPDEST DUP7 MSTORE PUSH1 0x20 DUP7 ADD MSTORE PUSH1 0x40 DUP6 ADD MSTORE PUSH1 0x60 DUP5 ADD MSTORE AND PUSH1 0x80 DUP3 ADD MSTORE PUSH1 0x0 PUSH1 0xA0 DUP3 ADD MSTORE SWAP1 JUMP JUMPDEST PUSH1 0x0 SWAP1 PUSH1 0x40 MLOAD PUSH2 0x5D81 PUSH1 0x20 DUP3 DUP2 PUSH2 0x234C DUP2 DUP4 ADD SWAP7 DUP8 DUP2 MLOAD SWAP4 DUP5 SWAP3 ADD PUSH2 0x5629 JUMP JUMPDEST MLOAD SWAP1 KECCAK256 PUSH1 0x4 SLOAD SWAP1 PUSH1 0x0 JUMPDEST DUP3 DUP2 LT PUSH2 0x5D98 JUMPI POP POP POP SWAP1 JUMP JUMPDEST DUP2 PUSH1 0x3 PUSH2 0x165 PUSH2 0x5DAA PUSH2 0x151 DUP6 PUSH2 0x54FA JUMP JUMPDEST MLOAD SWAP1 KECCAK256 EQ PUSH2 0x5DBB JUMPI JUMPDEST PUSH1 0x1 ADD PUSH2 0x5D8B JUMP JUMPDEST SWAP3 PUSH2 0x5DC7 PUSH1 0x1 SWAP2 PUSH2 0x5C08 JUMP JUMPDEST SWAP4 SWAP1 POP PUSH2 0x5DB3 JUMP INVALID SWAP10 0xDC 0xAB 0xD8 XOR SWAP10 0xD5 DUP10 0x4D NUMBER SWAP2 0xD9 PC PUSH13 0x557B10A0D34A881ADFC4769AD4 0x1E SWAP2 PUSH7 0xCDA0A264697066 PUSH20 0x58221220EE44ED27E13A8C642D072D3DE760DAD2 PUSH22 0xD74DC438D2DD47E6D8CD99D7A8154C64736F6C634300 ADDMOD SHL STOP CALLER "},"methodIdentifiers":{"allCertificateData(uint256)":"4c3ba6fd","approveCdob((string,string,string,string),uint8)":"950d4d74","approveCpotb((string,string,string,string),uint8)":"2592e511","approvedTipePermohonan(string)":"e49d0327","approvedTipePermohonanByFactory(string,uint256)":"7ee90ded","cdobDataById(string)":"72c17cb9","cpotbDataById(string)":"6aa81299","detailCdob(string)":"711255af","detailCpotb(string)":"6f8e6197","getListAllCdob()":"cec1fc1e","getListAllCertificateByInstance(string)":"a814a60f","getListAllCpotb()":"ec176587","getRegisteredUser(address)":"e54a29bb","registerUser(string,string,address,uint8)":"d1233672","requestCdob((string,string,string),uint8)":"6d2a362f","requestCpotb((string,string,string),uint8)":"387bb30e"}}}}}