{"contracts/CdobCertificate.sol":{"CdobCertificate":{"abi":[{"inputs":[{"internalType":"uint256","name":"","type":"uint256"}],"name":"allCdobData","outputs":[{"internalType":"string","name":"certId","type":"string"},{"internalType":"string","name":"certNumber","type":"string"},{"internalType":"string","name":"instanceName","type":"string"},{"internalType":"uint8","name":"tipePermohonan","type":"uint8"},{"internalType":"enum EnumsLibrary.StatusCertificate","name":"status","type":"uint8"},{"internalType":"string","name":"certHash","type":"string"},{"internalType":"uint256","name":"expiredTimestamp","type":"uint256"}],"stateMutability":"view","type":"function"},{"inputs":[{"internalType":"string","name":"certNumber","type":"string"},{"internalType":"string","name":"certId","type":"string"},{"internalType":"string","name":"bpomName","type":"string"},{"internalType":"string","name":"bpomInstance","type":"string"},{"internalType":"address","name":"bpomAddr","type":"address"},{"internalType":"string","name":"ipfsCert","type":"string"}],"name":"approveCdob","outputs":[],"stateMutability":"nonpayable","type":"function"},{"inputs":[{"internalType":"string","name":"certId","type":"string"},{"internalType":"string","name":"ipfsCert","type":"string"}],"name":"approveExtendCdob","outputs":[],"stateMutability":"nonpayable","type":"function"},{"inputs":[{"internalType":"string","name":"","type":"string"}],"name":"cdobDataById","outputs":[{"internalType":"string","name":"cdobId","type":"string"},{"internalType":"string","name":"cdobNumber","type":"string"},{"internalType":"uint8","name":"tipePermohonan","type":"uint8"}],"stateMutability":"view","type":"function"},{"inputs":[{"internalType":"string","name":"","type":"string"}],"name":"certDetailById","outputs":[{"internalType":"enum EnumsLibrary.StatusCertificate","name":"status","type":"uint8"},{"internalType":"uint256","name":"timestampRequest","type":"uint256"},{"internalType":"uint256","name":"timestampApprove","type":"uint256"},{"internalType":"uint256","name":"timestampRejected","type":"uint256"},{"internalType":"uint256","name":"timestampRenewRequest","type":"uint256"},{"internalType":"uint256","name":"timestampExpired","type":"uint256"},{"internalType":"uint256","name":"timestampExtendRequest","type":"uint256"},{"components":[{"internalType":"string","name":"userName","type":"string"},{"internalType":"string","name":"userInstance","type":"string"},{"internalType":"address","name":"userAddr","type":"address"}],"internalType":"struct BaseCertificate.UserCert","name":"sender","type":"tuple"},{"components":[{"internalType":"string","name":"userName","type":"string"},{"internalType":"string","name":"userInstance","type":"string"},{"internalType":"address","name":"userAddr","type":"address"}],"internalType":"struct BaseCertificate.UserCert","name":"bpom","type":"tuple"},{"internalType":"string","name":"ipfsCert","type":"string"}],"stateMutability":"view","type":"function"},{"inputs":[{"components":[{"internalType":"string","name":"userName","type":"string"},{"internalType":"string","name":"userInstance","type":"string"},{"internalType":"address","name":"userAddr","type":"address"}],"internalType":"struct BaseCertificate.UserCert","name":"senderData","type":"tuple"},{"components":[{"internalType":"string","name":"userName","type":"string"},{"internalType":"string","name":"userInstance","type":"string"},{"internalType":"address","name":"userAddr","type":"address"}],"internalType":"struct BaseCertificate.UserCert","name":"bpomData","type":"tuple"},{"internalType":"string","name":"certId","type":"string"}],"name":"createCertificateDetails","outputs":[],"stateMutability":"nonpayable","type":"function"},{"inputs":[{"internalType":"string","name":"userName","type":"string"},{"internalType":"string","name":"userInstance","type":"string"},{"internalType":"address","name":"userAddr","type":"address"}],"name":"createUserCertificate","outputs":[{"components":[{"internalType":"string","name":"userName","type":"string"},{"internalType":"string","name":"userInstance","type":"string"},{"internalType":"address","name":"userAddr","type":"address"}],"internalType":"struct BaseCertificate.UserCert","name":"","type":"tuple"}],"stateMutability":"pure","type":"function"},{"inputs":[{"internalType":"string","name":"","type":"string"}],"name":"dokuAdminById","outputs":[{"internalType":"string","name":"suratPermohonan","type":"string"},{"internalType":"string","name":"buktiPembayaranPajak","type":"string"}],"stateMutability":"view","type":"function"},{"inputs":[{"internalType":"string","name":"","type":"string"}],"name":"dokuTeknisById","outputs":[{"internalType":"string","name":"suratIzinCdob","type":"string"},{"internalType":"string","name":"denahBangunan","type":"string"},{"internalType":"string","name":"strukturOrganisasi","type":"string"},{"internalType":"string","name":"daftarPersonalia","type":"string"},{"internalType":"string","name":"daftarPeralatan","type":"string"},{"internalType":"string","name":"eksekutifQualityManagement","type":"string"},{"internalType":"string","name":"suratIzinApoteker","type":"string"},{"internalType":"string","name":"dokumenSelfAssesment","type":"string"}],"stateMutability":"view","type":"function"},{"inputs":[{"internalType":"string","name":"certId","type":"string"},{"internalType":"uint256","name":"expTimestamp","type":"uint256"}],"name":"extendCdob","outputs":[],"stateMutability":"nonpayable","type":"function"},{"inputs":[],"name":"getAllCdob","outputs":[{"components":[{"internalType":"string","name":"certId","type":"string"},{"internalType":"string","name":"certNumber","type":"string"},{"internalType":"string","name":"instanceName","type":"string"},{"internalType":"uint8","name":"tipePermohonan","type":"uint8"},{"internalType":"enum EnumsLibrary.StatusCertificate","name":"status","type":"uint8"},{"internalType":"string","name":"certHash","type":"string"},{"internalType":"uint256","name":"expiredTimestamp","type":"uint256"}],"internalType":"struct CdobCertificate.CertificateList[]","name":"","type":"tuple[]"}],"stateMutability":"view","type":"function"},{"inputs":[{"internalType":"string","name":"instanceName","type":"string"}],"name":"getAllCdobByInstance","outputs":[{"components":[{"internalType":"string","name":"certId","type":"string"},{"internalType":"string","name":"certNumber","type":"string"},{"internalType":"string","name":"instanceName","type":"string"},{"internalType":"uint8","name":"tipePermohonan","type":"uint8"},{"internalType":"enum EnumsLibrary.StatusCertificate","name":"status","type":"uint8"},{"internalType":"string","name":"certHash","type":"string"},{"internalType":"uint256","name":"expiredTimestamp","type":"uint256"}],"internalType":"struct CdobCertificate.CertificateList[]","name":"","type":"tuple[]"}],"stateMutability":"view","type":"function"},{"inputs":[{"internalType":"string","name":"certId","type":"string"}],"name":"getCdobDetails","outputs":[{"components":[{"internalType":"string","name":"cdobId","type":"string"},{"internalType":"string","name":"cdobNumber","type":"string"},{"internalType":"uint8","name":"tipePermohonan","type":"uint8"}],"internalType":"struct CdobCertificate.CdobData","name":"","type":"tuple"},{"components":[{"internalType":"string","name":"suratPermohonan","type":"string"},{"internalType":"string","name":"buktiPembayaranPajak","type":"string"}],"internalType":"struct CdobCertificate.DokumenAdministrasi","name":"","type":"tuple"},{"components":[{"internalType":"string","name":"suratIzinCdob","type":"string"},{"internalType":"string","name":"denahBangunan","type":"string"},{"internalType":"string","name":"strukturOrganisasi","type":"string"},{"internalType":"string","name":"daftarPersonalia","type":"string"},{"internalType":"string","name":"daftarPeralatan","type":"string"},{"internalType":"string","name":"eksekutifQualityManagement","type":"string"},{"internalType":"string","name":"suratIzinApoteker","type":"string"},{"internalType":"string","name":"dokumenSelfAssesment","type":"string"}],"internalType":"struct CdobCertificate.DokumenTeknis","name":"","type":"tuple"}],"stateMutability":"view","type":"function"},{"inputs":[{"internalType":"string","name":"certId","type":"string"}],"name":"getCertDetail","outputs":[{"components":[{"internalType":"enum EnumsLibrary.StatusCertificate","name":"status","type":"uint8"},{"internalType":"uint256","name":"timestampRequest","type":"uint256"},{"internalType":"uint256","name":"timestampApprove","type":"uint256"},{"internalType":"uint256","name":"timestampRejected","type":"uint256"},{"internalType":"uint256","name":"timestampRenewRequest","type":"uint256"},{"internalType":"uint256","name":"timestampExpired","type":"uint256"},{"internalType":"uint256","name":"timestampExtendRequest","type":"uint256"},{"components":[{"internalType":"string","name":"userName","type":"string"},{"internalType":"string","name":"userInstance","type":"string"},{"internalType":"address","name":"userAddr","type":"address"}],"internalType":"struct BaseCertificate.UserCert","name":"sender","type":"tuple"},{"components":[{"internalType":"string","name":"userName","type":"string"},{"internalType":"string","name":"userInstance","type":"string"},{"internalType":"address","name":"userAddr","type":"address"}],"internalType":"struct BaseCertificate.UserCert","name":"bpom","type":"tuple"},{"internalType":"string","name":"ipfsCert","type":"string"}],"internalType":"struct BaseCertificate.CertificateDetails","name":"","type":"tuple"}],"stateMutability":"view","type":"function"},{"inputs":[{"internalType":"string","name":"certId","type":"string"}],"name":"getCertDetails","outputs":[{"components":[{"internalType":"enum EnumsLibrary.StatusCertificate","name":"status","type":"uint8"},{"internalType":"uint256","name":"timestampRequest","type":"uint256"},{"internalType":"uint256","name":"timestampApprove","type":"uint256"},{"internalType":"uint256","name":"timestampRejected","type":"uint256"},{"internalType":"uint256","name":"timestampRenewRequest","type":"uint256"},{"internalType":"uint256","name":"timestampExpired","type":"uint256"},{"internalType":"uint256","name":"timestampExtendRequest","type":"uint256"},{"components":[{"internalType":"string","name":"userName","type":"string"},{"internalType":"string","name":"userInstance","type":"string"},{"internalType":"address","name":"userAddr","type":"address"}],"internalType":"struct BaseCertificate.UserCert","name":"sender","type":"tuple"},{"components":[{"internalType":"string","name":"userName","type":"string"},{"internalType":"string","name":"userInstance","type":"string"},{"internalType":"address","name":"userAddr","type":"address"}],"internalType":"struct BaseCertificate.UserCert","name":"bpom","type":"tuple"},{"internalType":"string","name":"ipfsCert","type":"string"}],"internalType":"struct BaseCertificate.CertificateDetails","name":"","type":"tuple"}],"stateMutability":"view","type":"function"},{"inputs":[{"internalType":"string","name":"certId","type":"string"}],"name":"getRejectMsg","outputs":[{"internalType":"string","name":"","type":"string"}],"stateMutability":"view","type":"function"},{"inputs":[{"internalType":"string","name":"certId","type":"string"}],"name":"getRejectsMsg","outputs":[{"internalType":"string","name":"","type":"string"}],"stateMutability":"view","type":"function"},{"inputs":[{"internalType":"string","name":"certId","type":"string"}],"name":"getSenderDetail","outputs":[{"components":[{"internalType":"string","name":"userName","type":"string"},{"internalType":"string","name":"userInstance","type":"string"},{"internalType":"address","name":"userAddr","type":"address"}],"internalType":"struct BaseCertificate.UserCert","name":"","type":"tuple"}],"stateMutability":"view","type":"function"},{"inputs":[{"internalType":"string","name":"certId","type":"string"},{"internalType":"string","name":"rejectMsg","type":"string"},{"internalType":"string","name":"bpomName","type":"string"},{"internalType":"string","name":"bpomInstance","type":"string"},{"internalType":"address","name":"bpomAddr","type":"address"}],"name":"rejectCdob","outputs":[],"stateMutability":"nonpayable","type":"function"},{"inputs":[{"internalType":"string","name":"","type":"string"}],"name":"rejectMsgById","outputs":[{"internalType":"string","name":"","type":"string"}],"stateMutability":"view","type":"function"},{"inputs":[{"internalType":"string","name":"certId","type":"string"},{"components":[{"internalType":"string","name":"suratPermohonan","type":"string"},{"internalType":"string","name":"buktiPembayaranPajak","type":"string"}],"internalType":"struct CdobCertificate.DokumenAdministrasi","name":"newDokuAdmin","type":"tuple"},{"components":[{"internalType":"string","name":"suratIzinCdob","type":"string"},{"internalType":"string","name":"denahBangunan","type":"string"},{"internalType":"string","name":"strukturOrganisasi","type":"string"},{"internalType":"string","name":"daftarPersonalia","type":"string"},{"internalType":"string","name":"daftarPeralatan","type":"string"},{"internalType":"string","name":"eksekutifQualityManagement","type":"string"},{"internalType":"string","name":"suratIzinApoteker","type":"string"},{"internalType":"string","name":"dokumenSelfAssesment","type":"string"}],"internalType":"struct CdobCertificate.DokumenTeknis","name":"newDokuTeknis","type":"tuple"}],"name":"renewRequestCdob","outputs":[],"stateMutability":"nonpayable","type":"function"},{"inputs":[{"internalType":"string","name":"certId","type":"string"},{"internalType":"string","name":"pbfName","type":"string"},{"internalType":"string","name":"pbfInstance","type":"string"},{"internalType":"address","name":"pbfAddr","type":"address"},{"internalType":"uint8","name":"tipePermohonan","type":"uint8"},{"components":[{"internalType":"string","name":"suratPermohonan","type":"string"},{"internalType":"string","name":"buktiPembayaranPajak","type":"string"}],"internalType":"struct CdobCertificate.DokumenAdministrasi","name":"dokuAdmin","type":"tuple"},{"components":[{"internalType":"string","name":"suratIzinCdob","type":"string"},{"internalType":"string","name":"denahBangunan","type":"string"},{"internalType":"string","name":"strukturOrganisasi","type":"string"},{"internalType":"string","name":"daftarPersonalia","type":"string"},{"internalType":"string","name":"daftarPeralatan","type":"string"},{"internalType":"string","name":"eksekutifQualityManagement","type":"string"},{"internalType":"string","name":"suratIzinApoteker","type":"string"},{"internalType":"string","name":"dokumenSelfAssesment","type":"string"}],"internalType":"struct CdobCertificate.DokumenTeknis","name":"dokuTeknis","type":"tuple"}],"name":"requestCdob","outputs":[],"stateMutability":"nonpayable","type":"function"},{"inputs":[{"internalType":"string","name":"certId","type":"string"},{"internalType":"string","name":"ipfsCert","type":"string"},{"components":[{"internalType":"string","name":"userName","type":"string"},{"internalType":"string","name":"userInstance","type":"string"},{"internalType":"address","name":"userAddr","type":"address"}],"internalType":"struct BaseCertificate.UserCert","name":"bpomData","type":"tuple"}],"name":"updateBpomApproveDetails","outputs":[],"stateMutability":"nonpayable","type":"function"},{"inputs":[{"internalType":"string","name":"certId","type":"string"},{"internalType":"string","name":"ipfsCert","type":"string"}],"name":"updateBpomExtendCertificateDetails","outputs":[],"stateMutability":"nonpayable","type":"function"},{"inputs":[{"internalType":"string","name":"certId","type":"string"},{"internalType":"string","name":"rejectMsg","type":"string"},{"components":[{"internalType":"string","name":"userName","type":"string"},{"internalType":"string","name":"userInstance","type":"string"},{"internalType":"address","name":"userAddr","type":"address"}],"internalType":"struct BaseCertificate.UserCert","name":"bpomData","type":"tuple"}],"name":"updateBpomRejectDetails","outputs":[],"stateMutability":"nonpayable","type":"function"},{"inputs":[{"internalType":"string","name":"certId","type":"string"},{"internalType":"uint256","name":"expiredTimestamp","type":"uint256"}],"name":"updateExtendRenewDetails","outputs":[],"stateMutability":"nonpayable","type":"function"},{"inputs":[{"internalType":"string","name":"certId","type":"string"}],"name":"updateRenewDetails","outputs":[],"stateMutability":"nonpayable","type":"function"}],"evm":{"bytecode":{"linkReferences":{},"object":"60808060405234601557614e95908161001a8239f35b5f80fdfe60806040526004361015610011575f80fd5b5f3560e01c806317e683091461347957806319859c87146134415780631acf2500146133085780632b93f7f214612e5a5780632e9cf82714612dd657806334a34f3014612cd857806343762aa814612c04578063500619d014612ac8578063682053d9146117015780636d1aa7d5146114c75780636f12c2301461159e57806372c17cb914611502578063761fb19a146114c75780637ab096481461143f5780637e8f8da71461113b57806393b73ba2146110935780639740dbed1461107c5780639aaa5d8b146110415780639c6b1f1014610f65578063a722652714610338578063be2e2325146102e8578063bf3f80ac1461027e578063e9c260d714610267578063f14261d2146101ef578063f5104ff1146101d8578063f53ef126146101c15763fb5fb9a314610142575f80fd5b346101bd5760603660031901126101bd576004356001600160401b0381116101bd57610172903690600401613b26565b6024356001600160401b0381116101bd57610191903690600401613b26565b90604435916001600160401b0383116101bd576101b56101bb933690600401613584565b91614820565b005b5f80fd5b346101bd576101bb6101d236613adc565b90614702565b346101bd576101bb6101e936613b9e565b9161436f565b346101bd575f3660031901126101bd5760025461020b81613d45565b905f805b82821061022857604051806102248682613937565b0390f35b61025f60019161025961024361023d86613775565b50613dd6565b60ff831690610252828a613dc2565b5287613dc2565b50613d1d565b91019061020f565b346101bd576101bb61027836613b9e565b91613fd2565b346101bd5760203660031901126101bd576004356001600160401b0381116101bd576102d46020806102b7610224943690600401613584565b604051928184925191829101835e81016001815203019020613689565b6040519182916020835260208301906135d9565b346101bd5760203660031901126101bd576004356001600160401b0381116101bd5761032c61031e610224923690600401613584565b610326613ec8565b50613f20565b60405191829182613a38565b346101bd5760603660031901126101bd576004356001600160401b0381116101bd57610368903690600401613584565b6024356001600160401b0381116101bd576103879036906004016137a5565b906044356001600160401b0381116101bd576103a7903690600401613804565b6103b082613c26565b6002549160208101905f5b8481106103c457005b6103cd81613775565b506040516103f1816103e3602082018095613c54565b03601f198101835282613563565b519020604051602081019061041e6020828751808a875e81015f838201520301601f198101835282613563565b5190201461042f575b6001016103bb565b600361043a82613775565b5001805461ff001916610300179055610464602061045783613775565b5060405192838092613c54565b600481520301902086518051906001600160401b0382116108b2576104898354613651565b601f8111610f20575b50602090601f8311600114610eba5760019392915f9183610eaf575b50505f19600383901b1c191690831b1781555b0160208701518051906001600160401b0382116108b25781906104e48454613651565b601f8111610e5f575b50602090601f8311600114610dfc575f92610df1575b50508160011b915f199060031b1c19161790555b610525602061045783613775565b600581520301902084518051906001600160401b0382116108b257819061054c8454613651565b601f8111610da1575b50602090601f8311600114610d3e575f92610d33575b50508160011b915f199060031b1c19161781555b6001810160208601518051906001600160401b0382116108b25781906105a58454613651565b601f8111610ce3575b50602090601f8311600114610c80575f92610c75575b50508160011b915f199060031b1c19161790555b6002810160408601518051906001600160401b0382116108b25781906105fe8454613651565b601f8111610c25575b50602090601f8311600114610bc2575f92610bb7575b50508160011b915f199060031b1c19161790555b6003810160608601518051906001600160401b0382116108b25781906106578454613651565b601f8111610b67575b50602090601f8311600114610b04575f92610af9575b50508160011b915f199060031b1c19161790555b6004810160808601518051906001600160401b0382116108b25781906106b08454613651565b601f8111610aa9575b50602090601f8311600114610a46575f92610a3b575b50508160011b915f199060031b1c19161790555b6005810160a08601518051906001600160401b0382116108b25781906107098454613651565b601f81116109eb575b50602090601f8311600114610988575f9261097d575b50508160011b915f199060031b1c19161790555b6006810160c08601518051906001600160401b0382116108b2576107608354613651565b601f8111610938575b50602090601f83116001146108d1576007949392915f91836108c6575b50508160011b915f199060031b1c19161790555b0160e08501518051906001600160401b0382116108b2576107bb8354613651565b601f811161086d575b50602090601f8311600114610806576001949392915f91836107fb575b50505f19600383901b1c191690841b1790555b9050610427565b015190508a806107e1565b90601f19831691845f52815f20925f5b81811061085557509160019695949291838895931061083d575b505050811b0190556107f4565b01515f1960f88460031b161c191690558a8080610830565b92936020600181928786015181550195019301610816565b835f5260205f20601f840160051c810191602085106108a8575b601f0160051c01905b81811061089d57506107c4565b5f8155600101610890565b9091508190610887565b634e487b7160e01b5f52604160045260245ffd5b015190508b80610786565b90601f19831691845f52815f20925f5b818110610920575091600193918560079897969410610908575b505050811b01905561079a565b01515f1960f88460031b161c191690558b80806108fb565b929360206001819287860151815501950193016108e1565b835f5260205f20601f840160051c81019160208510610973575b601f0160051c01905b8181106109685750610769565b5f815560010161095b565b9091508190610952565b015190508a80610728565b5f8581528281209350601f198516905b8181106109d357509084600195949392106109bb575b505050811b01905561073c565b01515f1960f88460031b161c191690558a80806109ae565b92936020600181928786015181550195019301610998565b909150835f5260205f20601f840160051c81019160208510610a31575b90601f859493920160051c01905b818110610a235750610712565b5f8155849350600101610a16565b9091508190610a08565b015190508a806106cf565b5f8581528281209350601f198516905b818110610a915750908460019594939210610a79575b505050811b0190556106e3565b01515f1960f88460031b161c191690558a8080610a6c565b92936020600181928786015181550195019301610a56565b909150835f5260205f20601f840160051c81019160208510610aef575b90601f859493920160051c01905b818110610ae157506106b9565b5f8155849350600101610ad4565b9091508190610ac6565b015190508a80610676565b5f8581528281209350601f198516905b818110610b4f5750908460019594939210610b37575b505050811b01905561068a565b01515f1960f88460031b161c191690558a8080610b2a565b92936020600181928786015181550195019301610b14565b909150835f5260205f20601f840160051c81019160208510610bad575b90601f859493920160051c01905b818110610b9f5750610660565b5f8155849350600101610b92565b9091508190610b84565b015190508a8061061d565b5f8581528281209350601f198516905b818110610c0d5750908460019594939210610bf5575b505050811b019055610631565b01515f1960f88460031b161c191690558a8080610be8565b92936020600181928786015181550195019301610bd2565b909150835f5260205f20601f840160051c81019160208510610c6b575b90601f859493920160051c01905b818110610c5d5750610607565b5f8155849350600101610c50565b9091508190610c42565b015190508a806105c4565b5f8581528281209350601f198516905b818110610ccb5750908460019594939210610cb3575b505050811b0190556105d8565b01515f1960f88460031b161c191690558a8080610ca6565b92936020600181928786015181550195019301610c90565b909150835f5260205f20601f840160051c81019160208510610d29575b90601f859493920160051c01905b818110610d1b57506105ae565b5f8155849350600101610d0e565b9091508190610d00565b01519050898061056b565b5f8581528281209350601f198516905b818110610d895750908460019594939210610d71575b505050811b01815561057f565b01515f1960f88460031b161c19169055898080610d64565b92936020600181928786015181550195019301610d4e565b909150835f5260205f20601f840160051c81019160208510610de7575b90601f859493920160051c01905b818110610dd95750610555565b5f8155849350600101610dcc565b9091508190610dbe565b015190508980610503565b5f8581528281209350601f198516905b818110610e475750908460019594939210610e2f575b505050811b019055610517565b01515f1960f88460031b161c19169055898080610e22565b92936020600181928786015181550195019301610e0c565b909150835f5260205f20601f840160051c81019160208510610ea5575b90601f859493920160051c01905b818110610e9757506104ed565b5f8155849350600101610e8a565b9091508190610e7c565b015190508a806104ae565b90601f19831691845f52815f20925f5b818110610f085750916001959492918387959310610ef0575b505050811b0181556104c1565b01515f1960f88460031b161c191690558a8080610ee3565b92936020600181928786015181550195019301610eca565b835f5260205f20601f840160051c81019160208510610f5b575b601f0160051c01905b818110610f505750610492565b5f8155600101610f43565b9091508190610f3a565b346101bd57610f7e610f7636613adc565b819291614702565b6002549060208101905f5b838110610f9257005b610f9b81613775565b50604051610fb1816103e3602082018095613c54565b5190206040516020810190610fde6020828751808a875e81015f838201520301601f198101835282613563565b51902014610fef575b600101610f89565b6003610ffa82613775565b500161060061ff0019825416179055608242019081421161102d57600191600561102383613775565b5001559050610fe7565b634e487b7160e01b5f52601160045260245ffd5b346101bd5760203660031901126101bd576004356001600160401b0381116101bd5761032c611077610224923690600401613584565b613f20565b346101bd576101bb61108d36613a07565b90613e4d565b346101bd576110ac6110a436613a07565b819291613e4d565b600254602082015f5b8281106110be57005b806110ca600192613775565b506040516110e0816103e3602082018095613c54565b519020604051602081019061110d6020828a51808a875e81015f838201520301601f198101835282613563565b5190201461111c575b016110b5565b600361112782613775565b5001805461ff001916610500179055611116565b346101bd5760203660031901126101bd576004356001600160401b0381116101bd5761116b903690600401613584565b611173613c06565b5060405161118081613510565b60608152602001606090526040516111978161352b565b60608152602081016060905260408101606090526060810160609052608081016060905260a081016060905260c081016060905260e00160609052604051908051918060208301938085835e810160038152036020019020916040518083518084835e81016004815203602001902091604051918291518091835e8101600581520360200190206040519161122b836134da565b61123484613689565b835261124260018501613689565b93602084019485526002015460ff1691604084019283526040519161126683613510565b61126f81613689565b835260010161127d90613689565b60208301908152604051936112918561352b565b61129a83613689565b85526112a860018401613689565b602086019081526112bb60028501613689565b604087019081526112ce60038601613689565b60608801908152916112e260048701613689565b60808901908152936112f660058801613689565b60a08a019081529561130a60068901613689565b9760c08b0198895260070161131e90613689565b9860e08b01998a526040519c8d9c60608e52518d606081016060905260c001611346916135d9565b90518d8203605f190160808f015261135e91906135d9565b925160ff1660a08d01528b830360208d0152516040835260408301611382916135d9565b9051918082039060200152611396916135d9565b9789890360408b015251610100895261010089016113b3916135d9565b90519088810360208a01526113c7916135d9565b90519087810360408901526113db916135d9565b90519086810360608801526113ef916135d9565b9051908581036080870152611403916135d9565b90519084810360a0860152611417916135d9565b90519083810360c085015261142b916135d9565b9051918082039060e00152610224916135d9565b346101bd5760203660031901126101bd576004356001600160401b0381116101bd576020806114756114b9933690600401613584565b604051928184925191829101835e810160048152030190206102246114a5600161149e84613689565b9301613689565b6040519384936040855260408501906135d9565b9083820360208501526135d9565b346101bd5760203660031901126101bd576004356001600160401b0381116101bd576102d46114fd610224923690600401613584565b613cfa565b346101bd5760203660031901126101bd576004356001600160401b0381116101bd57602080611538611586933690600401613584565b604051928184925191829101835e8101600381520301902061155981613689565b9061159460ff600261156d60018501613689565b93015416916040519485946060865260608601906135d9565b9084820360208601526135d9565b9060408301520390f35b346101bd5760203660031901126101bd576004356001600160401b0381116101bd576115ce903690600401613584565b60025460208201915f805b83811061169e575060ff6115ed9116613d45565b925f915f5b84811061160757604051806102248882613937565b60026103e361162c61161884613775565b506040519283916020830195869101613c54565b51902060405160208101906116596020828751808a875e81015f838201520301601f198101835282613563565b5190201461166a575b6001016115f2565b9261169660019161025961168061023d88613775565b60ff83169061168f828c613dc2565b5289613dc2565b939050611662565b60026103e36116af61161884613775565b51902060405160208101906116dc6020828851808c875e81015f838201520301601f198101835282613563565b519020146116ed575b6001016115d9565b906116f9600191613d1d565b9190506116e5565b346101bd5760e03660031901126101bd576004356001600160401b0381116101bd57611731903690600401613584565b6024356001600160401b0381116101bd57611750903690600401613584565b6044356001600160401b0381116101bd5761176f903690600401613584565b916064356001600160a01b03811681036101bd576084359360ff85168095036101bd5760a4356001600160401b0381116101bd576117b19036906004016137a5565b9160c435906001600160401b0382116101bd57826117d66117dc933690600401613804565b96613cbe565b9461182c84602097604051906117f28a83613563565b5f82526040516118028b82613563565b5f815261180d613c06565b506040519261181b846134da565b83528a8301525f6040830152614820565b604051611838816134da565b8481526040516118488882613563565b5f815287820190815260408201908382526040518981895180838c01835e8101600381520301902092518051906001600160401b0382116108b257819061188f8654613651565b601f8111612a7a575b508b90601f8311600114612a15575f92612a0a575b50508160011b915f199060031b1c19161783555b51805160018401916001600160401b0382116108b2576118e18354613651565b601f81116129c7575b508a90601f831160011461295a57928260ff95929386946002965f9261294f575b50508160011b915f199060031b1c19161790555b51169201911660ff198254161790556040519061193b826134f5565b8482526040519261194c8885613563565b5f8452878301938452604083015260608201525f60808201526040516119728782613563565b5f815260a08201525f60c0820152600254680100000000000000008110156108b2578060016119a49201600255613775565b92909261293c5781518051906001600160401b0382116108b25781906119ca8654613651565b601f81116128ee575b508990601f831160011461288b575f92612880575b50508160011b915f199060031b1c19161783555b518051906001600160401b0382116108b2578190611a1d6001860154613651565b601f811161282f575b508890601f83116001146127c5575f926127ba575b50508160011b915f199060031b1c19161760018301555b6002820160408201518051906001600160401b0382116108b2578190611a788454613651565b601f811161276c575b508990601f8311600114612709575f926126fe575b50508160011b915f199060031b1c19161790555b6003820160ff806060840151161660ff19825416178155608082015160078110156126ea5761ff0082549160081b169061ff0019161790556004820160a08201518051906001600160401b0382116108b257611b068354613651565b601f81116126a7575b508890601f831160011461263e57918060c09492600596945f92612633575b50508160011b915f199060031b1c19161790555b01519101556040518481845180838701835e8101600481520301902081519081516001600160401b0381116108b2578692611b7d8354613651565b601f81116125e1575b508390601f831160011461257b5760019392915f9183612570575b50505f19600383901b1c191690831b1781555b01910151918251916001600160401b0383116108b2578592611bd68254613651565b94601f8611612519575b8495508490601f83116001146124b2575f9190836124a7575b50508160011b915f199060031b1c19161790555b604051928184925191829101835e810160058152030190209080519182516001600160401b0381116108b257611c438254613651565b601f8111612464575b508493601f82116001146124045793819293945f926123f9575b50508160011b915f199060031b1c19161781555b60018101838301518051906001600160401b0382116108b2578190611c9f8454613651565b601f81116123ab575b508690601f8311600114612348575f9261233d575b50508160011b915f199060031b1c19161790555b6002810160408301518051906001600160401b0382116108b2578190611cf78454613651565b601f81116122ef575b508690601f831160011461228c575f92612281575b50508160011b915f199060031b1c19161790555b6003810160608301518051906001600160401b0382116108b2578190611d4f8454613651565b601f8111612233575b508690601f83116001146121d0575f926121c5575b50508160011b915f199060031b1c19161790555b6004810160808301518051906001600160401b0382116108b2578190611da78454613651565b601f8111612177575b508690601f8311600114612114575f92612109575b50508160011b915f199060031b1c19161790555b6005810160a08301518051906001600160401b0382116108b2578190611dff8454613651565b601f81116120bb575b508690601f8311600114612058575f9261204d575b50508160011b915f199060031b1c19161790555b6006810160c08301518051906001600160401b0382116108b257611e558354613651565b601f811161200a575b508590601f8311600114611fa15791806007949260e096945f92611f96575b50508160011b915f199060031b1c19161790555b01910151918251906001600160401b0382116108b257611eb18354613651565b601f8111611f53575b5080601f8311600114611ef457508192935f92611ee9575b50505f19600383901b1c191660019190911b179055005b015190508380611ed2565b90601f19831694845f52825f20925f905b878210611f3b575050836001959610611f23575b505050811b019055005b01515f1960f88460031b161c19169055838080611f19565b80600185968294968601518155019501930190611f05565b835f52815f20601f840160051c810191838510611f8c575b601f0160051c01905b818110611f815750611eba565b5f8155600101611f74565b9091508190611f6b565b015190508880611e7d565b90601f19831691845f52875f20925f5b89828210611ff457505092600192859260e098966007989610611fdc575b505050811b019055611e91565b01515f1960f88460031b161c19169055888080611fcf565b6001859682939686015181550195019301611fb1565b835f52865f20601f840160051c810191888510612043575b601f0160051c01905b8181106120385750611e5e565b5f815560010161202b565b9091508190612022565b015190508680611e1d565b5f8581528881209350601f198516905b898282106120a557505090846001959493921061208d575b505050811b019055611e31565b01515f1960f88460031b161c19169055868080612080565b6001859682939686015181550195019301612068565b909150835f52865f20601f840160051c8101918885106120ff575b90601f859493920160051c01905b8181106120f15750611e08565b5f81558493506001016120e4565b90915081906120d6565b015190508680611dc5565b5f8581528881209350601f198516905b89828210612161575050908460019594939210612149575b505050811b019055611dd9565b01515f1960f88460031b161c1916905586808061213c565b6001859682939686015181550195019301612124565b909150835f52865f20601f840160051c8101918885106121bb575b90601f859493920160051c01905b8181106121ad5750611db0565b5f81558493506001016121a0565b9091508190612192565b015190508680611d6d565b5f8581528881209350601f198516905b8982821061221d575050908460019594939210612205575b505050811b019055611d81565b01515f1960f88460031b161c191690558680806121f8565b60018596829396860151815501950193016121e0565b909150835f52865f20601f840160051c810191888510612277575b90601f859493920160051c01905b8181106122695750611d58565b5f815584935060010161225c565b909150819061224e565b015190508680611d15565b5f8581528881209350601f198516905b898282106122d95750509084600195949392106122c1575b505050811b019055611d29565b01515f1960f88460031b161c191690558680806122b4565b600185968293968601518155019501930161229c565b909150835f52865f20601f840160051c810191888510612333575b90601f859493920160051c01905b8181106123255750611d00565b5f8155849350600101612318565b909150819061230a565b015190508680611cbd565b5f8581528881209350601f198516905b8982821061239557505090846001959493921061237d575b505050811b019055611cd1565b01515f1960f88460031b161c19169055868080612370565b6001859682939686015181550195019301612358565b909150835f52865f20601f840160051c8101918885106123ef575b90601f859493920160051c01905b8181106123e15750611ca8565b5f81558493506001016123d4565b90915081906123c6565b015190508580611c66565b601f19821694835f52865f20915f5b8888821061244e57505083600195969710612436575b505050811b018155611c7a565b01515f1960f88460031b161c19169055858080612429565b6001849582939585015181550194019201612413565b825f52855f20601f830160051c81019187841061249d575b601f0160051c01905b8181106124925750611c4c565b5f8155600101612485565b909150819061247c565b015190508880611bf9565b601f95949392919519821695835f52855f20915f5b888110612501575083600195969798106124e9575b505050811b019055611c0d565b01515f1960f88460031b161c191690558880806124dc565b828201518455899760019094019392830192016124c7565b918094505f9591939552865f20601f840160051c810191888510612566575b90601f899694979593920160051c01905b81811061255857505084611be0565b5f8155889550600101612549565b9091508190612538565b015190508980611ba1565b90601f19831691845f52855f20925f5b878282106125cb5750509160019594929183879593106125b3575b505050811b018155611bb4565b01515f1960f88460031b161c191690558980806125a6565b600185968293968601518155019501930161258b565b9091928094505f52875f20601f840160051c810191898510612629575b90601f8a96959493920160051c01905b81811061261b5750611b86565b5f815589955060010161260e565b90915081906125fe565b015190508b80611b2e565b90601f19831691845f528a5f20925f5b8c8282106126915750509260019285926005989660c0989610612679575b505050811b019055611b42565b01515f1960f88460031b161c191690558b808061266c565b600185968293968601518155019501930161264e565b835f52895f20601f840160051c8101918b85106126e0575b601f0160051c01905b8181106126d55750611b0f565b5f81556001016126c8565b90915081906126bf565b634e487b7160e01b5f52602160045260245ffd5b015190508980611a96565b5f8581528b81209350601f198516905b8c82821061275657505090846001959493921061273e575b505050811b019055611aaa565b01515f1960f88460031b161c19169055898080612731565b6001859682939686015181550195019301612719565b909150835f52895f20601f840160051c8101918b85106127b0575b90601f859493920160051c01905b8181106127a25750611a81565b5f8155849350600101612795565b9091508190612787565b015190508880611a3b565b600186015f9081528a81209350601f198516905b8b828210612819575050908460019594939210612801575b505050811b016001830155611a52565b01515f1960f88460031b161c191690558880806127f1565b60018596829396860151815501950193016127d9565b909150600185015f52885f20601f840160051c8101918a8510612876575b90601f859493920160051c01905b8181106128685750611a26565b5f815584935060010161285b565b909150819061284d565b0151905089806119e8565b5f8781528b81209350601f198516905b8c8282106128d85750509084600195949392106128c0575b505050811b0183556119fc565b01515f1960f88460031b161c191690558980806128b3565b600185968293968601518155019501930161289b565b909150855f52895f20601f840160051c8101918b8510612932575b90601f859493920160051c01905b81811061292457506119d3565b5f8155849350600101612917565b9091508190612909565b634e487b7160e01b5f525f60045260245ffd5b015190508e8061190b565b5f8481528c8120929190601f198516908e5b8282106129af5750509360ff969360029693600193838a9810612997575b505050811b01905561191f565b01515f1960f88460031b161c191690558e808061298a565b8060018697829497870151815501960194019061296c565b835f528b5f20601f840160051c8101918d8510612a00575b601f0160051c01905b8181106129f557506118ea565b5f81556001016129e8565b90915081906129df565b015190508b806118ad565b5f8781528d81209350601f198516908e5b828210612a62575050908460019594939210612a4a575b505050811b0183556118c1565b01515f1960f88460031b161c191690558b8080612a3d565b80600186978294978701518155019601940190612a26565b909150855f528b5f20601f840160051c8101918d8510612abe575b90601f859493920160051c01905b818110612ab05750611898565b5f8155849350600101612aa3565b9091508190612a95565b346101bd5760203660031901126101bd576004356001600160401b0381116101bd57612af8903690600401613584565b604051818192516020819201835e810160058152036020019020612b1b81613689565b612b2760018301613689565b91612b3460028201613689565b90612b4160038201613689565b612b4d60048301613689565b612b5960058401613689565b91612b6660068501613689565b93600701612b7390613689565b9460405197889761010089526101008901612b8d916135d9565b88810360208a0152612b9e916135d9565b8781036040890152612baf916135d9565b8681036060880152612bc0916135d9565b8581036080870152612bd1916135d9565b84810360a0860152612be2916135d9565b83810360c0850152612bf3916135d9565b82810360e0840152610224916135d9565b346101bd5760203660031901126101bd576004356002548110156101bd57612c2e612c8b91613775565b50612c3881613689565b90612cce612c4860018301613689565b91612c5560028201613689565b90612cc1612ca7600383015493612c996005612c7360048701613689565b950154976040519a8b9a60e08c5260e08c01906135d9565b908a820360208c01526135d9565b9088820360408a01526135d9565b9260ff8116606088015260ff608088019160081c16613768565b84820360a08601526135d9565b9060c08301520390f35b346101bd5760203660031901126101bd576004356001600160401b0381116101bd57602080612d0e612d87933690600401613584565b604051928184925191829101835e81015f81520301902061022460ff82541691612dc7600182015491612db8600282015460038301546004840154600585015490600686015492612d6160078801613729565b94612d7a600d612d73600a8b01613729565b9901613689565b996040519d8e809e613768565b60208d015260408c015260608b015260808a015260a089015260c088015261014060e08801526101408701906135fd565b908582036101008701526135fd565b908382036101208501526135d9565b346101bd5760603660031901126101bd576004356001600160401b0381116101bd57612e06903690600401613584565b6024356001600160401b0381116101bd57612e25903690600401613584565b906044356001600160a01b03811681036101bd5761022492612e4692613cbe565b6040519182916020835260208301906135fd565b346101bd5760c03660031901126101bd576004356001600160401b0381116101bd57612e8a903690600401613584565b6024356001600160401b0381116101bd57612ea9903690600401613584565b6044356001600160401b0381116101bd57612ec8903690600401613584565b6064356001600160401b0381116101bd57612ee7903690600401613584565b612eef61363b565b60a435916001600160401b0383116101bd57612f12612f18933690600401613584565b93613cbe565b604051906001845192602081818801958087835e810160038152030190200185516001600160401b0381116108b257612f518254613651565b601f81116132c3575b506020601f821160011461325c579080612f919493925f91613251575b508160011b915f199060031b1c19161790555b838561436f565b600254925f5b848110612fa057005b612fa981613775565b50604051612fbf816103e3602082018095613c54565b5190206040516020810190612fec6020828751808a875e81015f838201520301601f198101835282613563565b51902014612ffd575b600101612f97565b600161300882613775565b500186516001600160401b0381116108b2576130248254613651565b601f811161320c575b50806020601f82116001146131a9575f9161319e575b508160011b915f199060031b1c19161790555b600361306182613775565b5001805461ff001916610100179055600461307b82613775565b500184516001600160401b0381116108b2576130978254613651565b601f8111613159575b50806020601f82116001146130f8575f916130ed575b508160011b915f199060031b1c19161790555b608242019081421161102d5760019160056130e383613775565b5001559050612ff5565b9050860151896130b6565b5f8481528181209250601f198416905b81811061314157509083600194939210613129575b5050811b0190556130c9565b8801515f1960f88460031b161c19169055898061311d565b9192602060018192868d015181550194019201613108565b825f5260205f20601f830160051c81019160208410613194575b601f0160051c01905b81811061318957506130a0565b5f815560010161317c565b9091508190613173565b905088015189613043565b5f8481528181209250601f198416905b8b8282106131f457505090836001949392106131dc575b5050811b019055613056565b8a01515f1960f88460031b161c1916905589806131d0565b600184956020939584930151815501940192016131b9565b825f5260205f20601f830160051c81019160208410613247575b601f0160051c01905b81811061323c575061302d565b5f815560010161322f565b9091508190613226565b905088015189612f77565b601f19821690835f52805f20915f5b8a8282106132ab575050918391612f9196959460019410613293575b5050811b019055612f8a565b8a01515f1960f88460031b161c191690558980613287565b6001849560209395849301518155019401920161326b565b825f5260205f20601f830160051c810191602084106132fe575b601f0160051c01905b8181106132f35750612f5a565b5f81556001016132e6565b90915081906132dd565b346101bd5760a03660031901126101bd576004356001600160401b0381116101bd57613338903690600401613584565b6024356001600160401b0381116101bd57613357903690600401613584565b6044356001600160401b0381116101bd57613376903690600401613584565b906064356001600160401b0381116101bd576133b29261339d6133ab923690600401613584565b6133a561363b565b91613cbe565b9083613fd2565b600254602082015f5b8281106133c457005b806133d0600192613775565b506040516133e6816103e3602082018095613c54565b51902060405160208101906134136020828a51808a875e81015f838201520301601f198101835282613563565b51902014613422575b016133bb565b600361342d82613775565b5001805461ff00191661020017905561341c565b346101bd5760203660031901126101bd576004356001600160401b0381116101bd576134746101bb913690600401613584565b613c26565b346101bd5760203660031901126101bd576004356001600160401b0381116101bd57612e4660076020806134b4610224953690600401613584565b6134bc613c06565b50604051928184925191829101835e81015f81520301902001613729565b606081019081106001600160401b038211176108b257604052565b60e081019081106001600160401b038211176108b257604052565b604081019081106001600160401b038211176108b257604052565b61010081019081106001600160401b038211176108b257604052565b61014081019081106001600160401b038211176108b257604052565b90601f801991011681019081106001600160401b038211176108b257604052565b81601f820112156101bd578035906001600160401b0382116108b257604051926135b8601f8401601f191660200185613563565b828452602083830101116101bd57815f926020809301838601378301015290565b805180835260209291819084018484015e5f828201840152601f01601f1916010190565b90604061362861361684516060855260608501906135d9565b602085015184820360208601526135d9565b928101516001600160a01b031691015290565b608435906001600160a01b03821682036101bd57565b90600182811c9216801561367f575b602083101461366b57565b634e487b7160e01b5f52602260045260245ffd5b91607f1691613660565b9060405191825f82549261369c84613651565b808452936001811690811561370757506001146136c3575b506136c192500383613563565b565b90505f9291925260205f20905f915b8183106136eb5750509060206136c1928201015f6136b4565b60209193508060019154838589010152019101909184926136d2565b9050602092506136c194915060ff191682840152151560051b8201015f6136b4565b90604051613736816134da565b6040819361374381613689565b835261375160018201613689565b6020840152600201546001600160a01b0316910152565b9060078210156126ea5752565b6002548110156137915760025f52600660205f20910201905f90565b634e487b7160e01b5f52603260045260245ffd5b91906040838203126101bd57604051906137be82613510565b819380356001600160401b0381116101bd57826137dc918301613584565b83526020810135916001600160401b0383116101bd576020926137ff9201613584565b910152565b9190610100838203126101bd576040519061381e8261352b565b819380356001600160401b0381116101bd578261383c918301613584565b835260208101356001600160401b0381116101bd578261385d918301613584565b602084015260408101356001600160401b0381116101bd5782613881918301613584565b604084015260608101356001600160401b0381116101bd57826138a5918301613584565b606084015260808101356001600160401b0381116101bd57826138c9918301613584565b608084015260a08101356001600160401b0381116101bd57826138ed918301613584565b60a084015260c08101356001600160401b0381116101bd5782613911918301613584565b60c084015260e0810135916001600160401b0383116101bd5760e0926137ff9201613584565b602081016020825282518091526040820191602060408360051b8301019401925f915b83831061396957505050505090565b9091929394602080600192603f1985820301865288519060c0806139f26139c16139af61399f875160e0885260e08801906135d9565b888801518782038a8901526135d9565b604087015186820360408801526135d9565b60ff60608701511660608601526139e060808701516080870190613768565b60a086015185820360a08701526135d9565b9301519101529701930193019193929061395a565b60406003198201126101bd57600435906001600160401b0382116101bd57613a3191600401613584565b9060243590565b90613ad99160208152613a4f602082018351613768565b602082015160408201526040820151606082015260608201516080820152608082015160a082015260a082015160c082015260c082015160e0820152610120613ac3613aad60e08501516101406101008601526101608501906135fd565b610100850151848203601f1901848601526135fd565b92015190610140601f19828503019101526135d9565b90565b9060406003198301126101bd576004356001600160401b0381116101bd5782613b0791600401613584565b91602435906001600160401b0382116101bd57613ad991600401613584565b91906060838203126101bd5760405190613b3f826134da565b819380356001600160401b0381116101bd5782613b5d918301613584565b835260208101356001600160401b0381116101bd57604092613b80918301613584565b60208401520135906001600160a01b03821682036101bd5760400152565b60606003198201126101bd576004356001600160401b0381116101bd5781613bc891600401613584565b916024356001600160401b0381116101bd5782613be791600401613584565b91604435906001600160401b0382116101bd57613ad991600401613b26565b60405190613c13826134da565b5f60408360608152606060208201520152565b60208091604051928184925191829101835e81015f815203019020426004820155600360ff19825416179055565b5f9291815491613c6383613651565b9260018116908115613cab5750600114613c7c57505050565b90919293505f5260205f205f905b838210613c975750500190565b600181602092548486015201910190613c8a565b60ff191683525050811515909102019150565b9190613cc8613c06565b5060405192613cd6846134da565b835260208301526001600160a01b0316604082015290565b60078210156126ea5752565b6040518151613ad992602091839181908401835e81016001815203019020613689565b60ff1660ff811461102d5760010190565b6001600160401b0381116108b25760051b60200190565b90613d4f82613d2e565b613d5c6040519182613563565b8281528092613d6d601f1991613d2e565b01905f5b828110613d7d57505050565b602090604051613d8c816134f5565b60608152606083820152606060408201525f60608201525f6080820152606060a08201525f60c082015282828501015201613d71565b80518210156137915760209160051b010190565b90604051613de3816134f5565b60c060058294613df281613689565b8452613e0060018201613689565b6020850152613e1160028201613689565b6040850152613e3560ff6003830154818116606088015260081c1660808601613cee565b613e4160048201613689565b60a08501520154910152565b90421115613e835760208091604051928184925191829101835e81015f815203019020426006820155600560ff19825416179055565b60405162461bcd60e51b815260206004820152601860248201527f536572746966696b6174206d61736968206265726c616b7500000000000000006044820152606490fd5b60405190613ed582613547565b6060610120835f81525f60208201525f60408201525f838201525f60808201525f60a08201525f60c0820152613f09613c06565b60e0820152613f16613c06565b6101008201520152565b60208091613f2c613ec8565b50604051928184925191829101835e81015f815203019020613fc9600d60405192613f5684613547565b613f6460ff82541685613cee565b60018101546020850152600281015460408501526003810154606085015260048101546080850152600581015460a0850152600681015460c0850152613fac60078201613729565b60e0850152613fbd600a8201613729565b61010085015201613689565b61012082015290565b92919060405160208551918181818901948086835e81015f81520301902095604051928391518091835e81016001815203019020908051906001600160401b0382116108b25781906140248454613651565b601f811161431f575b50602090601f83116001146142bc575f926142b1575b50508160011b915f199060031b1c19161790555b80518051600a8501916001600160401b0382116108b2576140788354613651565b601f811161426c575b50602090601f8311600114614205576020949392915f91836141fa575b50508160011b915f199060031b1c19161790555b6040810151600c850180546001600160a01b0319166001600160a01b039290921691909117905501518051909290600b8201906001600160401b0381116108b2576140fd8254613651565b601f81116141b5575b50602094601f8211600114614154579481929394955f92614149575b50508160011b915f199060031b1c19161790555b426003820155805460ff19166002179055565b015190505f80614122565b601f19821695835f52805f20915f5b88811061419d57508360019596979810614185575b505050811b019055614136565b01515f1960f88460031b161c191690555f8080614178565b91926020600181928685015181550194019201614163565b825f5260205f20601f830160051c810191602084106141f0575b601f0160051c01905b8181106141e55750614106565b5f81556001016141d8565b90915081906141cf565b015190505f8061409e565b90601f19831691845f52815f20925f5b81811061425457509160019391856020989796941061423c575b505050811b0190556140b2565b01515f1960f88460031b161c191690555f808061422f565b92936020600181928786015181550195019301614215565b835f5260205f20601f840160051c810191602085106142a7575b601f0160051c01905b81811061429c5750614081565b5f815560010161428f565b9091508190614286565b015190505f80614043565b5f8581528281209350601f198516905b81811061430757509084600195949392106142ef575b505050811b019055614057565b01515f1960f88460031b161c191690555f80806142e2565b929360206001819287860151815501950193016142cc565b909150835f5260205f20601f840160051c81019160208510614365575b90601f859493920160051c01905b818110614357575061402d565b5f815584935060010161434a565b909150819061433c565b6020809194939294604051928184925191829101835e81015f815203019020908051600a8301908051906001600160401b0382116108b2576143b18354613651565b601f81116146bd575b50602090601f8311600114614656576020949392915f918361464b575b50508160011b915f199060031b1c19161790555b6040810151600c840180546001600160a01b0319166001600160a01b039290921691909117905501518051600b8301916001600160401b0382116108b25781906144358454613651565b601f81116145fb575b50602090601f8311600114614598575f9261458d575b50508160011b915f199060031b1c19161790555b426002820155608242019081421161102d57600d916005820155600160ff198254161781550182516001600160401b0381116108b2576144a88254613651565b601f8111614548575b506020601f82116001146144ea57819293945f926144df575b50508160011b915f199060031b1c1916179055565b015190505f806144ca565b601f19821690835f52805f20915f5b81811061453057509583600195969710614518575b505050811b019055565b01515f1960f88460031b161c191690555f808061450e565b9192602060018192868b0151815501940192016144f9565b825f5260205f20601f830160051c81019160208410614583575b601f0160051c01905b81811061457857506144b1565b5f815560010161456b565b9091508190614562565b015190505f80614454565b5f8581528281209350601f198516905b8181106145e357509084600195949392106145cb575b505050811b019055614468565b01515f1960f88460031b161c191690555f80806145be565b929360206001819287860151815501950193016145a8565b909150835f5260205f20601f840160051c81019160208510614641575b90601f859493920160051c01905b818110614633575061443e565b5f8155849350600101614626565b9091508190614618565b015190505f806143d7565b90601f19831691845f52815f20925f5b8181106146a557509160019391856020989796941061468d575b505050811b0190556143eb565b01515f1960f88460031b161c191690555f8080614680565b92936020600181928786015181550195019301614666565b835f5260205f20601f840160051c810191602085106146f8575b601f0160051c01905b8181106146ed57506143ba565b5f81556001016146e0565b90915081906146d7565b60208091939293604051928184925191829101835e81015f815203019020426002820155608242019081421161102d57600d916005820155600660ff198254161781550182516001600160401b0381116108b2576147608254613651565b601f81116147db575b506020601f821160011461479657819293945f926144df5750508160011b915f199060031b1c1916179055565b601f19821690835f52805f20915f5b8181106147c35750958360019596971061451857505050811b019055565b9192602060018192868b0151815501940192016147a5565b825f5260205f20601f830160051c81019160208410614816575b601f0160051c01905b81811061480b5750614769565b5f81556001016147fe565b90915081906147f5565b92909160405161482f81613547565b5f81526020810194428652604082015f8152606083015f8152608084015f815260a08501915f835260c08601935f855260e087019586526101008701998a5260209a8b806040519a614881828d613563565b5f8c526101208b019b8c52604051928184925191829101835e81015f815203019020975160078110156126ea5760ff80198a541691161788555160018801555160028701555160038601555160048501555160058401555160068301556007820190519081518051906001600160401b0382116108b25781906149048454613651565b601f8111614e11575b508990601f8311600114614dae575f92614da3575b50508160011b915f199060031b1c19161790555b60088201868201518051906001600160401b0382116108b257819061495b8454613651565b601f8111614d55575b508990601f8311600114614cf2575f92614ce7575b50508160011b915f199060031b1c19161790555b604001516009820180546001600160a01b0319166001600160a01b0392909216919091179055925180518051919491600a8301916001600160401b0382116108b25781906149db8454613651565b601f8111614c99575b508890601f8311600114614c36575f92614c2b575b50508160011b915f199060031b1c19161790555b600b81019385810151948551956001600160401b0387116108b257614a328254613651565b601f8111614be8575b508790601f8811600114614b8157968091600d9697985f92614b76575b50508160011b915f199060031b1c19161790555b60400151600c820180546001600160a01b0319166001600160a01b03929092169190911790559151805190949190920191906001600160401b0382116108b257614ab68354613651565b601f8111614b33575b5080601f8311600114614aec5750819293945f926144df5750508160011b915f199060031b1c1916179055565b90601f19831695845f52825f20925f905b888210614b1b5750508360019596971061451857505050811b019055565b80600185968294968601518155019501930190614afd565b835f52815f20601f840160051c810191838510614b6c575b601f0160051c01905b818110614b615750614abf565b5f8155600101614b54565b9091508190614b4b565b015190505f80614a58565b90601f19881691835f52895f20925f5b8b828210614bd257505091600193918a600d999a9b9410614bba575b505050811b019055614a6c565b01515f1960f88460031b161c191690555f8080614bad565b6001859682939686015181550195019301614b91565b825f52885f20601f890160051c8101918a8a10614c21575b601f0160051c01905b818110614c165750614a3b565b5f8155600101614c09565b9091508190614c00565b015190505f806149f9565b5f8581528a81209350601f198516905b8b828210614c83575050908460019594939210614c6b575b505050811b019055614a0d565b01515f1960f88460031b161c191690555f8080614c5e565b6001859682939686015181550195019301614c46565b909150835f52885f20601f840160051c8101918a8510614cdd575b90601f859493920160051c01905b818110614ccf57506149e4565b5f8155849350600101614cc2565b9091508190614cb4565b015190505f80614979565b5f8581528b81209350601f198516905b8c828210614d3f575050908460019594939210614d27575b505050811b01905561498d565b01515f1960f88460031b161c191690555f8080614d1a565b6001859682939686015181550195019301614d02565b909150835f52895f20601f840160051c8101918b8510614d99575b90601f859493920160051c01905b818110614d8b5750614964565b5f8155849350600101614d7e565b9091508190614d70565b015190505f80614922565b5f8581528b81209350601f198516905b8c828210614dfb575050908460019594939210614de3575b505050811b019055614936565b01515f1960f88460031b161c191690555f8080614dd6565b6001859682939686015181550195019301614dbe565b909150835f52895f20601f840160051c8101918b8510614e55575b90601f859493920160051c01905b818110614e47575061490d565b5f8155849350600101614e3a565b9091508190614e2c56fea2646970667358221220e2c036fa71e8c136c5b78867c039009bd18b4ec46ca7e14470d9f2a2518759ee64736f6c634300081b0033","opcodes":"PUSH1 0x80 DUP1 PUSH1 0x40 MSTORE CALLVALUE PUSH1 0x15 JUMPI PUSH2 0x4E95 SWAP1 DUP2 PUSH2 0x1A DUP3 CODECOPY RETURN JUMPDEST PUSH0 DUP1 REVERT INVALID PUSH1 0x80 PUSH1 0x40 MSTORE PUSH1 0x4 CALLDATASIZE LT ISZERO PUSH2 0x11 JUMPI PUSH0 DUP1 REVERT JUMPDEST PUSH0 CALLDATALOAD PUSH1 0xE0 SHR DUP1 PUSH4 0x17E68309 EQ PUSH2 0x3479 JUMPI DUP1 PUSH4 0x19859C87 EQ PUSH2 0x3441 JUMPI DUP1 PUSH4 0x1ACF2500 EQ PUSH2 0x3308 JUMPI DUP1 PUSH4 0x2B93F7F2 EQ PUSH2 0x2E5A JUMPI DUP1 PUSH4 0x2E9CF827 EQ PUSH2 0x2DD6 JUMPI DUP1 PUSH4 0x34A34F30 EQ PUSH2 0x2CD8 JUMPI DUP1 PUSH4 0x43762AA8 EQ PUSH2 0x2C04 JUMPI DUP1 PUSH4 0x500619D0 EQ PUSH2 0x2AC8 JUMPI DUP1 PUSH4 0x682053D9 EQ PUSH2 0x1701 JUMPI DUP1 PUSH4 0x6D1AA7D5 EQ PUSH2 0x14C7 JUMPI DUP1 PUSH4 0x6F12C230 EQ PUSH2 0x159E JUMPI DUP1 PUSH4 0x72C17CB9 EQ PUSH2 0x1502 JUMPI DUP1 PUSH4 0x761FB19A EQ PUSH2 0x14C7 JUMPI DUP1 PUSH4 0x7AB09648 EQ PUSH2 0x143F JUMPI DUP1 PUSH4 0x7E8F8DA7 EQ PUSH2 0x113B JUMPI DUP1 PUSH4 0x93B73BA2 EQ PUSH2 0x1093 JUMPI DUP1 PUSH4 0x9740DBED EQ PUSH2 0x107C JUMPI DUP1 PUSH4 0x9AAA5D8B EQ PUSH2 0x1041 JUMPI DUP1 PUSH4 0x9C6B1F10 EQ PUSH2 0xF65 JUMPI DUP1 PUSH4 0xA7226527 EQ PUSH2 0x338 JUMPI DUP1 PUSH4 0xBE2E2325 EQ PUSH2 0x2E8 JUMPI DUP1 PUSH4 0xBF3F80AC EQ PUSH2 0x27E JUMPI DUP1 PUSH4 0xE9C260D7 EQ PUSH2 0x267 JUMPI DUP1 PUSH4 0xF14261D2 EQ PUSH2 0x1EF JUMPI DUP1 PUSH4 0xF5104FF1 EQ PUSH2 0x1D8 JUMPI DUP1 PUSH4 0xF53EF126 EQ PUSH2 0x1C1 JUMPI PUSH4 0xFB5FB9A3 EQ PUSH2 0x142 JUMPI PUSH0 DUP1 REVERT JUMPDEST CALLVALUE PUSH2 0x1BD JUMPI PUSH1 0x60 CALLDATASIZE PUSH1 0x3 NOT ADD SLT PUSH2 0x1BD JUMPI PUSH1 0x4 CALLDATALOAD PUSH1 0x1 PUSH1 0x1 PUSH1 0x40 SHL SUB DUP2 GT PUSH2 0x1BD JUMPI PUSH2 0x172 SWAP1 CALLDATASIZE SWAP1 PUSH1 0x4 ADD PUSH2 0x3B26 JUMP JUMPDEST PUSH1 0x24 CALLDATALOAD PUSH1 0x1 PUSH1 0x1 PUSH1 0x40 SHL SUB DUP2 GT PUSH2 0x1BD JUMPI PUSH2 0x191 SWAP1 CALLDATASIZE SWAP1 PUSH1 0x4 ADD PUSH2 0x3B26 JUMP JUMPDEST SWAP1 PUSH1 0x44 CALLDATALOAD SWAP2 PUSH1 0x1 PUSH1 0x1 PUSH1 0x40 SHL SUB DUP4 GT PUSH2 0x1BD JUMPI PUSH2 0x1B5 PUSH2 0x1BB SWAP4 CALLDATASIZE SWAP1 PUSH1 0x4 ADD PUSH2 0x3584 JUMP JUMPDEST SWAP2 PUSH2 0x4820 JUMP JUMPDEST STOP JUMPDEST PUSH0 DUP1 REVERT JUMPDEST CALLVALUE PUSH2 0x1BD JUMPI PUSH2 0x1BB PUSH2 0x1D2 CALLDATASIZE PUSH2 0x3ADC JUMP JUMPDEST SWAP1 PUSH2 0x4702 JUMP JUMPDEST CALLVALUE PUSH2 0x1BD JUMPI PUSH2 0x1BB PUSH2 0x1E9 CALLDATASIZE PUSH2 0x3B9E JUMP JUMPDEST SWAP2 PUSH2 0x436F JUMP JUMPDEST CALLVALUE PUSH2 0x1BD JUMPI PUSH0 CALLDATASIZE PUSH1 0x3 NOT ADD SLT PUSH2 0x1BD JUMPI PUSH1 0x2 SLOAD PUSH2 0x20B DUP2 PUSH2 0x3D45 JUMP JUMPDEST SWAP1 PUSH0 DUP1 JUMPDEST DUP3 DUP3 LT PUSH2 0x228 JUMPI PUSH1 0x40 MLOAD DUP1 PUSH2 0x224 DUP7 DUP3 PUSH2 0x3937 JUMP JUMPDEST SUB SWAP1 RETURN JUMPDEST PUSH2 0x25F PUSH1 0x1 SWAP2 PUSH2 0x259 PUSH2 0x243 PUSH2 0x23D DUP7 PUSH2 0x3775 JUMP JUMPDEST POP PUSH2 0x3DD6 JUMP JUMPDEST PUSH1 0xFF DUP4 AND SWAP1 PUSH2 0x252 DUP3 DUP11 PUSH2 0x3DC2 JUMP JUMPDEST MSTORE DUP8 PUSH2 0x3DC2 JUMP JUMPDEST POP PUSH2 0x3D1D JUMP JUMPDEST SWAP2 ADD SWAP1 PUSH2 0x20F JUMP JUMPDEST CALLVALUE PUSH2 0x1BD JUMPI PUSH2 0x1BB PUSH2 0x278 CALLDATASIZE PUSH2 0x3B9E JUMP JUMPDEST SWAP2 PUSH2 0x3FD2 JUMP JUMPDEST CALLVALUE PUSH2 0x1BD JUMPI PUSH1 0x20 CALLDATASIZE PUSH1 0x3 NOT ADD SLT PUSH2 0x1BD JUMPI PUSH1 0x4 CALLDATALOAD PUSH1 0x1 PUSH1 0x1 PUSH1 0x40 SHL SUB DUP2 GT PUSH2 0x1BD JUMPI PUSH2 0x2D4 PUSH1 0x20 DUP1 PUSH2 0x2B7 PUSH2 0x224 SWAP5 CALLDATASIZE SWAP1 PUSH1 0x4 ADD PUSH2 0x3584 JUMP JUMPDEST PUSH1 0x40 MLOAD SWAP3 DUP2 DUP5 SWAP3 MLOAD SWAP2 DUP3 SWAP2 ADD DUP4 MCOPY DUP2 ADD PUSH1 0x1 DUP2 MSTORE SUB ADD SWAP1 KECCAK256 PUSH2 0x3689 JUMP JUMPDEST PUSH1 0x40 MLOAD SWAP2 DUP3 SWAP2 PUSH1 0x20 DUP4 MSTORE PUSH1 0x20 DUP4 ADD SWAP1 PUSH2 0x35D9 JUMP JUMPDEST CALLVALUE PUSH2 0x1BD JUMPI PUSH1 0x20 CALLDATASIZE PUSH1 0x3 NOT ADD SLT PUSH2 0x1BD JUMPI PUSH1 0x4 CALLDATALOAD PUSH1 0x1 PUSH1 0x1 PUSH1 0x40 SHL SUB DUP2 GT PUSH2 0x1BD JUMPI PUSH2 0x32C PUSH2 0x31E PUSH2 0x224 SWAP3 CALLDATASIZE SWAP1 PUSH1 0x4 ADD PUSH2 0x3584 JUMP JUMPDEST PUSH2 0x326 PUSH2 0x3EC8 JUMP JUMPDEST POP PUSH2 0x3F20 JUMP JUMPDEST PUSH1 0x40 MLOAD SWAP2 DUP3 SWAP2 DUP3 PUSH2 0x3A38 JUMP JUMPDEST CALLVALUE PUSH2 0x1BD JUMPI PUSH1 0x60 CALLDATASIZE PUSH1 0x3 NOT ADD SLT PUSH2 0x1BD JUMPI PUSH1 0x4 CALLDATALOAD PUSH1 0x1 PUSH1 0x1 PUSH1 0x40 SHL SUB DUP2 GT PUSH2 0x1BD JUMPI PUSH2 0x368 SWAP1 CALLDATASIZE SWAP1 PUSH1 0x4 ADD PUSH2 0x3584 JUMP JUMPDEST PUSH1 0x24 CALLDATALOAD PUSH1 0x1 PUSH1 0x1 PUSH1 0x40 SHL SUB DUP2 GT PUSH2 0x1BD JUMPI PUSH2 0x387 SWAP1 CALLDATASIZE SWAP1 PUSH1 0x4 ADD PUSH2 0x37A5 JUMP JUMPDEST SWAP1 PUSH1 0x44 CALLDATALOAD PUSH1 0x1 PUSH1 0x1 PUSH1 0x40 SHL SUB DUP2 GT PUSH2 0x1BD JUMPI PUSH2 0x3A7 SWAP1 CALLDATASIZE SWAP1 PUSH1 0x4 ADD PUSH2 0x3804 JUMP JUMPDEST PUSH2 0x3B0 DUP3 PUSH2 0x3C26 JUMP JUMPDEST PUSH1 0x2 SLOAD SWAP2 PUSH1 0x20 DUP2 ADD SWAP1 PUSH0 JUMPDEST DUP5 DUP2 LT PUSH2 0x3C4 JUMPI STOP JUMPDEST PUSH2 0x3CD DUP2 PUSH2 0x3775 JUMP JUMPDEST POP PUSH1 0x40 MLOAD PUSH2 0x3F1 DUP2 PUSH2 0x3E3 PUSH1 0x20 DUP3 ADD DUP1 SWAP6 PUSH2 0x3C54 JUMP JUMPDEST SUB PUSH1 0x1F NOT DUP2 ADD DUP4 MSTORE DUP3 PUSH2 0x3563 JUMP JUMPDEST MLOAD SWAP1 KECCAK256 PUSH1 0x40 MLOAD PUSH1 0x20 DUP2 ADD SWAP1 PUSH2 0x41E PUSH1 0x20 DUP3 DUP8 MLOAD DUP1 DUP11 DUP8 MCOPY DUP2 ADD PUSH0 DUP4 DUP3 ADD MSTORE SUB ADD PUSH1 0x1F NOT DUP2 ADD DUP4 MSTORE DUP3 PUSH2 0x3563 JUMP JUMPDEST MLOAD SWAP1 KECCAK256 EQ PUSH2 0x42F JUMPI JUMPDEST PUSH1 0x1 ADD PUSH2 0x3BB JUMP JUMPDEST PUSH1 0x3 PUSH2 0x43A DUP3 PUSH2 0x3775 JUMP JUMPDEST POP ADD DUP1 SLOAD PUSH2 0xFF00 NOT AND PUSH2 0x300 OR SWAP1 SSTORE PUSH2 0x464 PUSH1 0x20 PUSH2 0x457 DUP4 PUSH2 0x3775 JUMP JUMPDEST POP PUSH1 0x40 MLOAD SWAP3 DUP4 DUP1 SWAP3 PUSH2 0x3C54 JUMP JUMPDEST PUSH1 0x4 DUP2 MSTORE SUB ADD SWAP1 KECCAK256 DUP7 MLOAD DUP1 MLOAD SWAP1 PUSH1 0x1 PUSH1 0x1 PUSH1 0x40 SHL SUB DUP3 GT PUSH2 0x8B2 JUMPI PUSH2 0x489 DUP4 SLOAD PUSH2 0x3651 JUMP JUMPDEST PUSH1 0x1F DUP2 GT PUSH2 0xF20 JUMPI JUMPDEST POP PUSH1 0x20 SWAP1 PUSH1 0x1F DUP4 GT PUSH1 0x1 EQ PUSH2 0xEBA JUMPI PUSH1 0x1 SWAP4 SWAP3 SWAP2 PUSH0 SWAP2 DUP4 PUSH2 0xEAF JUMPI JUMPDEST POP POP PUSH0 NOT PUSH1 0x3 DUP4 SWAP1 SHL SHR NOT AND SWAP1 DUP4 SHL OR DUP2 SSTORE JUMPDEST ADD PUSH1 0x20 DUP8 ADD MLOAD DUP1 MLOAD SWAP1 PUSH1 0x1 PUSH1 0x1 PUSH1 0x40 SHL SUB DUP3 GT PUSH2 0x8B2 JUMPI DUP2 SWAP1 PUSH2 0x4E4 DUP5 SLOAD PUSH2 0x3651 JUMP JUMPDEST PUSH1 0x1F DUP2 GT PUSH2 0xE5F JUMPI JUMPDEST POP PUSH1 0x20 SWAP1 PUSH1 0x1F DUP4 GT PUSH1 0x1 EQ PUSH2 0xDFC JUMPI PUSH0 SWAP3 PUSH2 0xDF1 JUMPI JUMPDEST POP POP DUP2 PUSH1 0x1 SHL SWAP2 PUSH0 NOT SWAP1 PUSH1 0x3 SHL SHR NOT AND OR SWAP1 SSTORE JUMPDEST PUSH2 0x525 PUSH1 0x20 PUSH2 0x457 DUP4 PUSH2 0x3775 JUMP JUMPDEST PUSH1 0x5 DUP2 MSTORE SUB ADD SWAP1 KECCAK256 DUP5 MLOAD DUP1 MLOAD SWAP1 PUSH1 0x1 PUSH1 0x1 PUSH1 0x40 SHL SUB DUP3 GT PUSH2 0x8B2 JUMPI DUP2 SWAP1 PUSH2 0x54C DUP5 SLOAD PUSH2 0x3651 JUMP JUMPDEST PUSH1 0x1F DUP2 GT PUSH2 0xDA1 JUMPI JUMPDEST POP PUSH1 0x20 SWAP1 PUSH1 0x1F DUP4 GT PUSH1 0x1 EQ PUSH2 0xD3E JUMPI PUSH0 SWAP3 PUSH2 0xD33 JUMPI JUMPDEST POP POP DUP2 PUSH1 0x1 SHL SWAP2 PUSH0 NOT SWAP1 PUSH1 0x3 SHL SHR NOT AND OR DUP2 SSTORE JUMPDEST PUSH1 0x1 DUP2 ADD PUSH1 0x20 DUP7 ADD MLOAD DUP1 MLOAD SWAP1 PUSH1 0x1 PUSH1 0x1 PUSH1 0x40 SHL SUB DUP3 GT PUSH2 0x8B2 JUMPI DUP2 SWAP1 PUSH2 0x5A5 DUP5 SLOAD PUSH2 0x3651 JUMP JUMPDEST PUSH1 0x1F DUP2 GT PUSH2 0xCE3 JUMPI JUMPDEST POP PUSH1 0x20 SWAP1 PUSH1 0x1F DUP4 GT PUSH1 0x1 EQ PUSH2 0xC80 JUMPI PUSH0 SWAP3 PUSH2 0xC75 JUMPI JUMPDEST POP POP DUP2 PUSH1 0x1 SHL SWAP2 PUSH0 NOT SWAP1 PUSH1 0x3 SHL SHR NOT AND OR SWAP1 SSTORE JUMPDEST PUSH1 0x2 DUP2 ADD PUSH1 0x40 DUP7 ADD MLOAD DUP1 MLOAD SWAP1 PUSH1 0x1 PUSH1 0x1 PUSH1 0x40 SHL SUB DUP3 GT PUSH2 0x8B2 JUMPI DUP2 SWAP1 PUSH2 0x5FE DUP5 SLOAD PUSH2 0x3651 JUMP JUMPDEST PUSH1 0x1F DUP2 GT PUSH2 0xC25 JUMPI JUMPDEST POP PUSH1 0x20 SWAP1 PUSH1 0x1F DUP4 GT PUSH1 0x1 EQ PUSH2 0xBC2 JUMPI PUSH0 SWAP3 PUSH2 0xBB7 JUMPI JUMPDEST POP POP DUP2 PUSH1 0x1 SHL SWAP2 PUSH0 NOT SWAP1 PUSH1 0x3 SHL SHR NOT AND OR SWAP1 SSTORE JUMPDEST PUSH1 0x3 DUP2 ADD PUSH1 0x60 DUP7 ADD MLOAD DUP1 MLOAD SWAP1 PUSH1 0x1 PUSH1 0x1 PUSH1 0x40 SHL SUB DUP3 GT PUSH2 0x8B2 JUMPI DUP2 SWAP1 PUSH2 0x657 DUP5 SLOAD PUSH2 0x3651 JUMP JUMPDEST PUSH1 0x1F DUP2 GT PUSH2 0xB67 JUMPI JUMPDEST POP PUSH1 0x20 SWAP1 PUSH1 0x1F DUP4 GT PUSH1 0x1 EQ PUSH2 0xB04 JUMPI PUSH0 SWAP3 PUSH2 0xAF9 JUMPI JUMPDEST POP POP DUP2 PUSH1 0x1 SHL SWAP2 PUSH0 NOT SWAP1 PUSH1 0x3 SHL SHR NOT AND OR SWAP1 SSTORE JUMPDEST PUSH1 0x4 DUP2 ADD PUSH1 0x80 DUP7 ADD MLOAD DUP1 MLOAD SWAP1 PUSH1 0x1 PUSH1 0x1 PUSH1 0x40 SHL SUB DUP3 GT PUSH2 0x8B2 JUMPI DUP2 SWAP1 PUSH2 0x6B0 DUP5 SLOAD PUSH2 0x3651 JUMP JUMPDEST PUSH1 0x1F DUP2 GT PUSH2 0xAA9 JUMPI JUMPDEST POP PUSH1 0x20 SWAP1 PUSH1 0x1F DUP4 GT PUSH1 0x1 EQ PUSH2 0xA46 JUMPI PUSH0 SWAP3 PUSH2 0xA3B JUMPI JUMPDEST POP POP DUP2 PUSH1 0x1 SHL SWAP2 PUSH0 NOT SWAP1 PUSH1 0x3 SHL SHR NOT AND OR SWAP1 SSTORE JUMPDEST PUSH1 0x5 DUP2 ADD PUSH1 0xA0 DUP7 ADD MLOAD DUP1 MLOAD SWAP1 PUSH1 0x1 PUSH1 0x1 PUSH1 0x40 SHL SUB DUP3 GT PUSH2 0x8B2 JUMPI DUP2 SWAP1 PUSH2 0x709 DUP5 SLOAD PUSH2 0x3651 JUMP JUMPDEST PUSH1 0x1F DUP2 GT PUSH2 0x9EB JUMPI JUMPDEST POP PUSH1 0x20 SWAP1 PUSH1 0x1F DUP4 GT PUSH1 0x1 EQ PUSH2 0x988 JUMPI PUSH0 SWAP3 PUSH2 0x97D JUMPI JUMPDEST POP POP DUP2 PUSH1 0x1 SHL SWAP2 PUSH0 NOT SWAP1 PUSH1 0x3 SHL SHR NOT AND OR SWAP1 SSTORE JUMPDEST PUSH1 0x6 DUP2 ADD PUSH1 0xC0 DUP7 ADD MLOAD DUP1 MLOAD SWAP1 PUSH1 0x1 PUSH1 0x1 PUSH1 0x40 SHL SUB DUP3 GT PUSH2 0x8B2 JUMPI PUSH2 0x760 DUP4 SLOAD PUSH2 0x3651 JUMP JUMPDEST PUSH1 0x1F DUP2 GT PUSH2 0x938 JUMPI JUMPDEST POP PUSH1 0x20 SWAP1 PUSH1 0x1F DUP4 GT PUSH1 0x1 EQ PUSH2 0x8D1 JUMPI PUSH1 0x7 SWAP5 SWAP4 SWAP3 SWAP2 PUSH0 SWAP2 DUP4 PUSH2 0x8C6 JUMPI JUMPDEST POP POP DUP2 PUSH1 0x1 SHL SWAP2 PUSH0 NOT SWAP1 PUSH1 0x3 SHL SHR NOT AND OR SWAP1 SSTORE JUMPDEST ADD PUSH1 0xE0 DUP6 ADD MLOAD DUP1 MLOAD SWAP1 PUSH1 0x1 PUSH1 0x1 PUSH1 0x40 SHL SUB DUP3 GT PUSH2 0x8B2 JUMPI PUSH2 0x7BB DUP4 SLOAD PUSH2 0x3651 JUMP JUMPDEST PUSH1 0x1F DUP2 GT PUSH2 0x86D JUMPI JUMPDEST POP PUSH1 0x20 SWAP1 PUSH1 0x1F DUP4 GT PUSH1 0x1 EQ PUSH2 0x806 JUMPI PUSH1 0x1 SWAP5 SWAP4 SWAP3 SWAP2 PUSH0 SWAP2 DUP4 PUSH2 0x7FB JUMPI JUMPDEST POP POP PUSH0 NOT PUSH1 0x3 DUP4 SWAP1 SHL SHR NOT AND SWAP1 DUP5 SHL OR SWAP1 SSTORE JUMPDEST SWAP1 POP PUSH2 0x427 JUMP JUMPDEST ADD MLOAD SWAP1 POP DUP11 DUP1 PUSH2 0x7E1 JUMP JUMPDEST SWAP1 PUSH1 0x1F NOT DUP4 AND SWAP2 DUP5 PUSH0 MSTORE DUP2 PUSH0 KECCAK256 SWAP3 PUSH0 JUMPDEST DUP2 DUP2 LT PUSH2 0x855 JUMPI POP SWAP2 PUSH1 0x1 SWAP7 SWAP6 SWAP5 SWAP3 SWAP2 DUP4 DUP9 SWAP6 SWAP4 LT PUSH2 0x83D JUMPI JUMPDEST POP POP POP DUP2 SHL ADD SWAP1 SSTORE PUSH2 0x7F4 JUMP JUMPDEST ADD MLOAD PUSH0 NOT PUSH1 0xF8 DUP5 PUSH1 0x3 SHL AND SHR NOT AND SWAP1 SSTORE DUP11 DUP1 DUP1 PUSH2 0x830 JUMP JUMPDEST SWAP3 SWAP4 PUSH1 0x20 PUSH1 0x1 DUP2 SWAP3 DUP8 DUP7 ADD MLOAD DUP2 SSTORE ADD SWAP6 ADD SWAP4 ADD PUSH2 0x816 JUMP JUMPDEST DUP4 PUSH0 MSTORE PUSH1 0x20 PUSH0 KECCAK256 PUSH1 0x1F DUP5 ADD PUSH1 0x5 SHR DUP2 ADD SWAP2 PUSH1 0x20 DUP6 LT PUSH2 0x8A8 JUMPI JUMPDEST PUSH1 0x1F ADD PUSH1 0x5 SHR ADD SWAP1 JUMPDEST DUP2 DUP2 LT PUSH2 0x89D JUMPI POP PUSH2 0x7C4 JUMP JUMPDEST PUSH0 DUP2 SSTORE PUSH1 0x1 ADD PUSH2 0x890 JUMP JUMPDEST SWAP1 SWAP2 POP DUP2 SWAP1 PUSH2 0x887 JUMP JUMPDEST PUSH4 0x4E487B71 PUSH1 0xE0 SHL PUSH0 MSTORE PUSH1 0x41 PUSH1 0x4 MSTORE PUSH1 0x24 PUSH0 REVERT JUMPDEST ADD MLOAD SWAP1 POP DUP12 DUP1 PUSH2 0x786 JUMP JUMPDEST SWAP1 PUSH1 0x1F NOT DUP4 AND SWAP2 DUP5 PUSH0 MSTORE DUP2 PUSH0 KECCAK256 SWAP3 PUSH0 JUMPDEST DUP2 DUP2 LT PUSH2 0x920 JUMPI POP SWAP2 PUSH1 0x1 SWAP4 SWAP2 DUP6 PUSH1 0x7 SWAP9 SWAP8 SWAP7 SWAP5 LT PUSH2 0x908 JUMPI JUMPDEST POP POP POP DUP2 SHL ADD SWAP1 SSTORE PUSH2 0x79A JUMP JUMPDEST ADD MLOAD PUSH0 NOT PUSH1 0xF8 DUP5 PUSH1 0x3 SHL AND SHR NOT AND SWAP1 SSTORE DUP12 DUP1 DUP1 PUSH2 0x8FB JUMP JUMPDEST SWAP3 SWAP4 PUSH1 0x20 PUSH1 0x1 DUP2 SWAP3 DUP8 DUP7 ADD MLOAD DUP2 SSTORE ADD SWAP6 ADD SWAP4 ADD PUSH2 0x8E1 JUMP JUMPDEST DUP4 PUSH0 MSTORE PUSH1 0x20 PUSH0 KECCAK256 PUSH1 0x1F DUP5 ADD PUSH1 0x5 SHR DUP2 ADD SWAP2 PUSH1 0x20 DUP6 LT PUSH2 0x973 JUMPI JUMPDEST PUSH1 0x1F ADD PUSH1 0x5 SHR ADD SWAP1 JUMPDEST DUP2 DUP2 LT PUSH2 0x968 JUMPI POP PUSH2 0x769 JUMP JUMPDEST PUSH0 DUP2 SSTORE PUSH1 0x1 ADD PUSH2 0x95B JUMP JUMPDEST SWAP1 SWAP2 POP DUP2 SWAP1 PUSH2 0x952 JUMP JUMPDEST ADD MLOAD SWAP1 POP DUP11 DUP1 PUSH2 0x728 JUMP JUMPDEST PUSH0 DUP6 DUP2 MSTORE DUP3 DUP2 KECCAK256 SWAP4 POP PUSH1 0x1F NOT DUP6 AND SWAP1 JUMPDEST DUP2 DUP2 LT PUSH2 0x9D3 JUMPI POP SWAP1 DUP5 PUSH1 0x1 SWAP6 SWAP5 SWAP4 SWAP3 LT PUSH2 0x9BB JUMPI JUMPDEST POP POP POP DUP2 SHL ADD SWAP1 SSTORE PUSH2 0x73C JUMP JUMPDEST ADD MLOAD PUSH0 NOT PUSH1 0xF8 DUP5 PUSH1 0x3 SHL AND SHR NOT AND SWAP1 SSTORE DUP11 DUP1 DUP1 PUSH2 0x9AE JUMP JUMPDEST SWAP3 SWAP4 PUSH1 0x20 PUSH1 0x1 DUP2 SWAP3 DUP8 DUP7 ADD MLOAD DUP2 SSTORE ADD SWAP6 ADD SWAP4 ADD PUSH2 0x998 JUMP JUMPDEST SWAP1 SWAP2 POP DUP4 PUSH0 MSTORE PUSH1 0x20 PUSH0 KECCAK256 PUSH1 0x1F DUP5 ADD PUSH1 0x5 SHR DUP2 ADD SWAP2 PUSH1 0x20 DUP6 LT PUSH2 0xA31 JUMPI JUMPDEST SWAP1 PUSH1 0x1F DUP6 SWAP5 SWAP4 SWAP3 ADD PUSH1 0x5 SHR ADD SWAP1 JUMPDEST DUP2 DUP2 LT PUSH2 0xA23 JUMPI POP PUSH2 0x712 JUMP JUMPDEST PUSH0 DUP2 SSTORE DUP5 SWAP4 POP PUSH1 0x1 ADD PUSH2 0xA16 JUMP JUMPDEST SWAP1 SWAP2 POP DUP2 SWAP1 PUSH2 0xA08 JUMP JUMPDEST ADD MLOAD SWAP1 POP DUP11 DUP1 PUSH2 0x6CF JUMP JUMPDEST PUSH0 DUP6 DUP2 MSTORE DUP3 DUP2 KECCAK256 SWAP4 POP PUSH1 0x1F NOT DUP6 AND SWAP1 JUMPDEST DUP2 DUP2 LT PUSH2 0xA91 JUMPI POP SWAP1 DUP5 PUSH1 0x1 SWAP6 SWAP5 SWAP4 SWAP3 LT PUSH2 0xA79 JUMPI JUMPDEST POP POP POP DUP2 SHL ADD SWAP1 SSTORE PUSH2 0x6E3 JUMP JUMPDEST ADD MLOAD PUSH0 NOT PUSH1 0xF8 DUP5 PUSH1 0x3 SHL AND SHR NOT AND SWAP1 SSTORE DUP11 DUP1 DUP1 PUSH2 0xA6C JUMP JUMPDEST SWAP3 SWAP4 PUSH1 0x20 PUSH1 0x1 DUP2 SWAP3 DUP8 DUP7 ADD MLOAD DUP2 SSTORE ADD SWAP6 ADD SWAP4 ADD PUSH2 0xA56 JUMP JUMPDEST SWAP1 SWAP2 POP DUP4 PUSH0 MSTORE PUSH1 0x20 PUSH0 KECCAK256 PUSH1 0x1F DUP5 ADD PUSH1 0x5 SHR DUP2 ADD SWAP2 PUSH1 0x20 DUP6 LT PUSH2 0xAEF JUMPI JUMPDEST SWAP1 PUSH1 0x1F DUP6 SWAP5 SWAP4 SWAP3 ADD PUSH1 0x5 SHR ADD SWAP1 JUMPDEST DUP2 DUP2 LT PUSH2 0xAE1 JUMPI POP PUSH2 0x6B9 JUMP JUMPDEST PUSH0 DUP2 SSTORE DUP5 SWAP4 POP PUSH1 0x1 ADD PUSH2 0xAD4 JUMP JUMPDEST SWAP1 SWAP2 POP DUP2 SWAP1 PUSH2 0xAC6 JUMP JUMPDEST ADD MLOAD SWAP1 POP DUP11 DUP1 PUSH2 0x676 JUMP JUMPDEST PUSH0 DUP6 DUP2 MSTORE DUP3 DUP2 KECCAK256 SWAP4 POP PUSH1 0x1F NOT DUP6 AND SWAP1 JUMPDEST DUP2 DUP2 LT PUSH2 0xB4F JUMPI POP SWAP1 DUP5 PUSH1 0x1 SWAP6 SWAP5 SWAP4 SWAP3 LT PUSH2 0xB37 JUMPI JUMPDEST POP POP POP DUP2 SHL ADD SWAP1 SSTORE PUSH2 0x68A JUMP JUMPDEST ADD MLOAD PUSH0 NOT PUSH1 0xF8 DUP5 PUSH1 0x3 SHL AND SHR NOT AND SWAP1 SSTORE DUP11 DUP1 DUP1 PUSH2 0xB2A JUMP JUMPDEST SWAP3 SWAP4 PUSH1 0x20 PUSH1 0x1 DUP2 SWAP3 DUP8 DUP7 ADD MLOAD DUP2 SSTORE ADD SWAP6 ADD SWAP4 ADD PUSH2 0xB14 JUMP JUMPDEST SWAP1 SWAP2 POP DUP4 PUSH0 MSTORE PUSH1 0x20 PUSH0 KECCAK256 PUSH1 0x1F DUP5 ADD PUSH1 0x5 SHR DUP2 ADD SWAP2 PUSH1 0x20 DUP6 LT PUSH2 0xBAD JUMPI JUMPDEST SWAP1 PUSH1 0x1F DUP6 SWAP5 SWAP4 SWAP3 ADD PUSH1 0x5 SHR ADD SWAP1 JUMPDEST DUP2 DUP2 LT PUSH2 0xB9F JUMPI POP PUSH2 0x660 JUMP JUMPDEST PUSH0 DUP2 SSTORE DUP5 SWAP4 POP PUSH1 0x1 ADD PUSH2 0xB92 JUMP JUMPDEST SWAP1 SWAP2 POP DUP2 SWAP1 PUSH2 0xB84 JUMP JUMPDEST ADD MLOAD SWAP1 POP DUP11 DUP1 PUSH2 0x61D JUMP JUMPDEST PUSH0 DUP6 DUP2 MSTORE DUP3 DUP2 KECCAK256 SWAP4 POP PUSH1 0x1F NOT DUP6 AND SWAP1 JUMPDEST DUP2 DUP2 LT PUSH2 0xC0D JUMPI POP SWAP1 DUP5 PUSH1 0x1 SWAP6 SWAP5 SWAP4 SWAP3 LT PUSH2 0xBF5 JUMPI JUMPDEST POP POP POP DUP2 SHL ADD SWAP1 SSTORE PUSH2 0x631 JUMP JUMPDEST ADD MLOAD PUSH0 NOT PUSH1 0xF8 DUP5 PUSH1 0x3 SHL AND SHR NOT AND SWAP1 SSTORE DUP11 DUP1 DUP1 PUSH2 0xBE8 JUMP JUMPDEST SWAP3 SWAP4 PUSH1 0x20 PUSH1 0x1 DUP2 SWAP3 DUP8 DUP7 ADD MLOAD DUP2 SSTORE ADD SWAP6 ADD SWAP4 ADD PUSH2 0xBD2 JUMP JUMPDEST SWAP1 SWAP2 POP DUP4 PUSH0 MSTORE PUSH1 0x20 PUSH0 KECCAK256 PUSH1 0x1F DUP5 ADD PUSH1 0x5 SHR DUP2 ADD SWAP2 PUSH1 0x20 DUP6 LT PUSH2 0xC6B JUMPI JUMPDEST SWAP1 PUSH1 0x1F DUP6 SWAP5 SWAP4 SWAP3 ADD PUSH1 0x5 SHR ADD SWAP1 JUMPDEST DUP2 DUP2 LT PUSH2 0xC5D JUMPI POP PUSH2 0x607 JUMP JUMPDEST PUSH0 DUP2 SSTORE DUP5 SWAP4 POP PUSH1 0x1 ADD PUSH2 0xC50 JUMP JUMPDEST SWAP1 SWAP2 POP DUP2 SWAP1 PUSH2 0xC42 JUMP JUMPDEST ADD MLOAD SWAP1 POP DUP11 DUP1 PUSH2 0x5C4 JUMP JUMPDEST PUSH0 DUP6 DUP2 MSTORE DUP3 DUP2 KECCAK256 SWAP4 POP PUSH1 0x1F NOT DUP6 AND SWAP1 JUMPDEST DUP2 DUP2 LT PUSH2 0xCCB JUMPI POP SWAP1 DUP5 PUSH1 0x1 SWAP6 SWAP5 SWAP4 SWAP3 LT PUSH2 0xCB3 JUMPI JUMPDEST POP POP POP DUP2 SHL ADD SWAP1 SSTORE PUSH2 0x5D8 JUMP JUMPDEST ADD MLOAD PUSH0 NOT PUSH1 0xF8 DUP5 PUSH1 0x3 SHL AND SHR NOT AND SWAP1 SSTORE DUP11 DUP1 DUP1 PUSH2 0xCA6 JUMP JUMPDEST SWAP3 SWAP4 PUSH1 0x20 PUSH1 0x1 DUP2 SWAP3 DUP8 DUP7 ADD MLOAD DUP2 SSTORE ADD SWAP6 ADD SWAP4 ADD PUSH2 0xC90 JUMP JUMPDEST SWAP1 SWAP2 POP DUP4 PUSH0 MSTORE PUSH1 0x20 PUSH0 KECCAK256 PUSH1 0x1F DUP5 ADD PUSH1 0x5 SHR DUP2 ADD SWAP2 PUSH1 0x20 DUP6 LT PUSH2 0xD29 JUMPI JUMPDEST SWAP1 PUSH1 0x1F DUP6 SWAP5 SWAP4 SWAP3 ADD PUSH1 0x5 SHR ADD SWAP1 JUMPDEST DUP2 DUP2 LT PUSH2 0xD1B JUMPI POP PUSH2 0x5AE JUMP JUMPDEST PUSH0 DUP2 SSTORE DUP5 SWAP4 POP PUSH1 0x1 ADD PUSH2 0xD0E JUMP JUMPDEST SWAP1 SWAP2 POP DUP2 SWAP1 PUSH2 0xD00 JUMP JUMPDEST ADD MLOAD SWAP1 POP DUP10 DUP1 PUSH2 0x56B JUMP JUMPDEST PUSH0 DUP6 DUP2 MSTORE DUP3 DUP2 KECCAK256 SWAP4 POP PUSH1 0x1F NOT DUP6 AND SWAP1 JUMPDEST DUP2 DUP2 LT PUSH2 0xD89 JUMPI POP SWAP1 DUP5 PUSH1 0x1 SWAP6 SWAP5 SWAP4 SWAP3 LT PUSH2 0xD71 JUMPI JUMPDEST POP POP POP DUP2 SHL ADD DUP2 SSTORE PUSH2 0x57F JUMP JUMPDEST ADD MLOAD PUSH0 NOT PUSH1 0xF8 DUP5 PUSH1 0x3 SHL AND SHR NOT AND SWAP1 SSTORE DUP10 DUP1 DUP1 PUSH2 0xD64 JUMP JUMPDEST SWAP3 SWAP4 PUSH1 0x20 PUSH1 0x1 DUP2 SWAP3 DUP8 DUP7 ADD MLOAD DUP2 SSTORE ADD SWAP6 ADD SWAP4 ADD PUSH2 0xD4E JUMP JUMPDEST SWAP1 SWAP2 POP DUP4 PUSH0 MSTORE PUSH1 0x20 PUSH0 KECCAK256 PUSH1 0x1F DUP5 ADD PUSH1 0x5 SHR DUP2 ADD SWAP2 PUSH1 0x20 DUP6 LT PUSH2 0xDE7 JUMPI JUMPDEST SWAP1 PUSH1 0x1F DUP6 SWAP5 SWAP4 SWAP3 ADD PUSH1 0x5 SHR ADD SWAP1 JUMPDEST DUP2 DUP2 LT PUSH2 0xDD9 JUMPI POP PUSH2 0x555 JUMP JUMPDEST PUSH0 DUP2 SSTORE DUP5 SWAP4 POP PUSH1 0x1 ADD PUSH2 0xDCC JUMP JUMPDEST SWAP1 SWAP2 POP DUP2 SWAP1 PUSH2 0xDBE JUMP JUMPDEST ADD MLOAD SWAP1 POP DUP10 DUP1 PUSH2 0x503 JUMP JUMPDEST PUSH0 DUP6 DUP2 MSTORE DUP3 DUP2 KECCAK256 SWAP4 POP PUSH1 0x1F NOT DUP6 AND SWAP1 JUMPDEST DUP2 DUP2 LT PUSH2 0xE47 JUMPI POP SWAP1 DUP5 PUSH1 0x1 SWAP6 SWAP5 SWAP4 SWAP3 LT PUSH2 0xE2F JUMPI JUMPDEST POP POP POP DUP2 SHL ADD SWAP1 SSTORE PUSH2 0x517 JUMP JUMPDEST ADD MLOAD PUSH0 NOT PUSH1 0xF8 DUP5 PUSH1 0x3 SHL AND SHR NOT AND SWAP1 SSTORE DUP10 DUP1 DUP1 PUSH2 0xE22 JUMP JUMPDEST SWAP3 SWAP4 PUSH1 0x20 PUSH1 0x1 DUP2 SWAP3 DUP8 DUP7 ADD MLOAD DUP2 SSTORE ADD SWAP6 ADD SWAP4 ADD PUSH2 0xE0C JUMP JUMPDEST SWAP1 SWAP2 POP DUP4 PUSH0 MSTORE PUSH1 0x20 PUSH0 KECCAK256 PUSH1 0x1F DUP5 ADD PUSH1 0x5 SHR DUP2 ADD SWAP2 PUSH1 0x20 DUP6 LT PUSH2 0xEA5 JUMPI JUMPDEST SWAP1 PUSH1 0x1F DUP6 SWAP5 SWAP4 SWAP3 ADD PUSH1 0x5 SHR ADD SWAP1 JUMPDEST DUP2 DUP2 LT PUSH2 0xE97 JUMPI POP PUSH2 0x4ED JUMP JUMPDEST PUSH0 DUP2 SSTORE DUP5 SWAP4 POP PUSH1 0x1 ADD PUSH2 0xE8A JUMP JUMPDEST SWAP1 SWAP2 POP DUP2 SWAP1 PUSH2 0xE7C JUMP JUMPDEST ADD MLOAD SWAP1 POP DUP11 DUP1 PUSH2 0x4AE JUMP JUMPDEST SWAP1 PUSH1 0x1F NOT DUP4 AND SWAP2 DUP5 PUSH0 MSTORE DUP2 PUSH0 KECCAK256 SWAP3 PUSH0 JUMPDEST DUP2 DUP2 LT PUSH2 0xF08 JUMPI POP SWAP2 PUSH1 0x1 SWAP6 SWAP5 SWAP3 SWAP2 DUP4 DUP8 SWAP6 SWAP4 LT PUSH2 0xEF0 JUMPI JUMPDEST POP POP POP DUP2 SHL ADD DUP2 SSTORE PUSH2 0x4C1 JUMP JUMPDEST ADD MLOAD PUSH0 NOT PUSH1 0xF8 DUP5 PUSH1 0x3 SHL AND SHR NOT AND SWAP1 SSTORE DUP11 DUP1 DUP1 PUSH2 0xEE3 JUMP JUMPDEST SWAP3 SWAP4 PUSH1 0x20 PUSH1 0x1 DUP2 SWAP3 DUP8 DUP7 ADD MLOAD DUP2 SSTORE ADD SWAP6 ADD SWAP4 ADD PUSH2 0xECA JUMP JUMPDEST DUP4 PUSH0 MSTORE PUSH1 0x20 PUSH0 KECCAK256 PUSH1 0x1F DUP5 ADD PUSH1 0x5 SHR DUP2 ADD SWAP2 PUSH1 0x20 DUP6 LT PUSH2 0xF5B JUMPI JUMPDEST PUSH1 0x1F ADD PUSH1 0x5 SHR ADD SWAP1 JUMPDEST DUP2 DUP2 LT PUSH2 0xF50 JUMPI POP PUSH2 0x492 JUMP JUMPDEST PUSH0 DUP2 SSTORE PUSH1 0x1 ADD PUSH2 0xF43 JUMP JUMPDEST SWAP1 SWAP2 POP DUP2 SWAP1 PUSH2 0xF3A JUMP JUMPDEST CALLVALUE PUSH2 0x1BD JUMPI PUSH2 0xF7E PUSH2 0xF76 CALLDATASIZE PUSH2 0x3ADC JUMP JUMPDEST DUP2 SWAP3 SWAP2 PUSH2 0x4702 JUMP JUMPDEST PUSH1 0x2 SLOAD SWAP1 PUSH1 0x20 DUP2 ADD SWAP1 PUSH0 JUMPDEST DUP4 DUP2 LT PUSH2 0xF92 JUMPI STOP JUMPDEST PUSH2 0xF9B DUP2 PUSH2 0x3775 JUMP JUMPDEST POP PUSH1 0x40 MLOAD PUSH2 0xFB1 DUP2 PUSH2 0x3E3 PUSH1 0x20 DUP3 ADD DUP1 SWAP6 PUSH2 0x3C54 JUMP JUMPDEST MLOAD SWAP1 KECCAK256 PUSH1 0x40 MLOAD PUSH1 0x20 DUP2 ADD SWAP1 PUSH2 0xFDE PUSH1 0x20 DUP3 DUP8 MLOAD DUP1 DUP11 DUP8 MCOPY DUP2 ADD PUSH0 DUP4 DUP3 ADD MSTORE SUB ADD PUSH1 0x1F NOT DUP2 ADD DUP4 MSTORE DUP3 PUSH2 0x3563 JUMP JUMPDEST MLOAD SWAP1 KECCAK256 EQ PUSH2 0xFEF JUMPI JUMPDEST PUSH1 0x1 ADD PUSH2 0xF89 JUMP JUMPDEST PUSH1 0x3 PUSH2 0xFFA DUP3 PUSH2 0x3775 JUMP JUMPDEST POP ADD PUSH2 0x600 PUSH2 0xFF00 NOT DUP3 SLOAD AND OR SWAP1 SSTORE PUSH1 0x82 TIMESTAMP ADD SWAP1 DUP2 TIMESTAMP GT PUSH2 0x102D JUMPI PUSH1 0x1 SWAP2 PUSH1 0x5 PUSH2 0x1023 DUP4 PUSH2 0x3775 JUMP JUMPDEST POP ADD SSTORE SWAP1 POP PUSH2 0xFE7 JUMP JUMPDEST PUSH4 0x4E487B71 PUSH1 0xE0 SHL PUSH0 MSTORE PUSH1 0x11 PUSH1 0x4 MSTORE PUSH1 0x24 PUSH0 REVERT JUMPDEST CALLVALUE PUSH2 0x1BD JUMPI PUSH1 0x20 CALLDATASIZE PUSH1 0x3 NOT ADD SLT PUSH2 0x1BD JUMPI PUSH1 0x4 CALLDATALOAD PUSH1 0x1 PUSH1 0x1 PUSH1 0x40 SHL SUB DUP2 GT PUSH2 0x1BD JUMPI PUSH2 0x32C PUSH2 0x1077 PUSH2 0x224 SWAP3 CALLDATASIZE SWAP1 PUSH1 0x4 ADD PUSH2 0x3584 JUMP JUMPDEST PUSH2 0x3F20 JUMP JUMPDEST CALLVALUE PUSH2 0x1BD JUMPI PUSH2 0x1BB PUSH2 0x108D CALLDATASIZE PUSH2 0x3A07 JUMP JUMPDEST SWAP1 PUSH2 0x3E4D JUMP JUMPDEST CALLVALUE PUSH2 0x1BD JUMPI PUSH2 0x10AC PUSH2 0x10A4 CALLDATASIZE PUSH2 0x3A07 JUMP JUMPDEST DUP2 SWAP3 SWAP2 PUSH2 0x3E4D JUMP JUMPDEST PUSH1 0x2 SLOAD PUSH1 0x20 DUP3 ADD PUSH0 JUMPDEST DUP3 DUP2 LT PUSH2 0x10BE JUMPI STOP JUMPDEST DUP1 PUSH2 0x10CA PUSH1 0x1 SWAP3 PUSH2 0x3775 JUMP JUMPDEST POP PUSH1 0x40 MLOAD PUSH2 0x10E0 DUP2 PUSH2 0x3E3 PUSH1 0x20 DUP3 ADD DUP1 SWAP6 PUSH2 0x3C54 JUMP JUMPDEST MLOAD SWAP1 KECCAK256 PUSH1 0x40 MLOAD PUSH1 0x20 DUP2 ADD SWAP1 PUSH2 0x110D PUSH1 0x20 DUP3 DUP11 MLOAD DUP1 DUP11 DUP8 MCOPY DUP2 ADD PUSH0 DUP4 DUP3 ADD MSTORE SUB ADD PUSH1 0x1F NOT DUP2 ADD DUP4 MSTORE DUP3 PUSH2 0x3563 JUMP JUMPDEST MLOAD SWAP1 KECCAK256 EQ PUSH2 0x111C JUMPI JUMPDEST ADD PUSH2 0x10B5 JUMP JUMPDEST PUSH1 0x3 PUSH2 0x1127 DUP3 PUSH2 0x3775 JUMP JUMPDEST POP ADD DUP1 SLOAD PUSH2 0xFF00 NOT AND PUSH2 0x500 OR SWAP1 SSTORE PUSH2 0x1116 JUMP JUMPDEST CALLVALUE PUSH2 0x1BD JUMPI PUSH1 0x20 CALLDATASIZE PUSH1 0x3 NOT ADD SLT PUSH2 0x1BD JUMPI PUSH1 0x4 CALLDATALOAD PUSH1 0x1 PUSH1 0x1 PUSH1 0x40 SHL SUB DUP2 GT PUSH2 0x1BD JUMPI PUSH2 0x116B SWAP1 CALLDATASIZE SWAP1 PUSH1 0x4 ADD PUSH2 0x3584 JUMP JUMPDEST PUSH2 0x1173 PUSH2 0x3C06 JUMP JUMPDEST POP PUSH1 0x40 MLOAD PUSH2 0x1180 DUP2 PUSH2 0x3510 JUMP JUMPDEST PUSH1 0x60 DUP2 MSTORE PUSH1 0x20 ADD PUSH1 0x60 SWAP1 MSTORE PUSH1 0x40 MLOAD PUSH2 0x1197 DUP2 PUSH2 0x352B JUMP JUMPDEST PUSH1 0x60 DUP2 MSTORE PUSH1 0x20 DUP2 ADD PUSH1 0x60 SWAP1 MSTORE PUSH1 0x40 DUP2 ADD PUSH1 0x60 SWAP1 MSTORE PUSH1 0x60 DUP2 ADD PUSH1 0x60 SWAP1 MSTORE PUSH1 0x80 DUP2 ADD PUSH1 0x60 SWAP1 MSTORE PUSH1 0xA0 DUP2 ADD PUSH1 0x60 SWAP1 MSTORE PUSH1 0xC0 DUP2 ADD PUSH1 0x60 SWAP1 MSTORE PUSH1 0xE0 ADD PUSH1 0x60 SWAP1 MSTORE PUSH1 0x40 MLOAD SWAP1 DUP1 MLOAD SWAP2 DUP1 PUSH1 0x20 DUP4 ADD SWAP4 DUP1 DUP6 DUP4 MCOPY DUP2 ADD PUSH1 0x3 DUP2 MSTORE SUB PUSH1 0x20 ADD SWAP1 KECCAK256 SWAP2 PUSH1 0x40 MLOAD DUP1 DUP4 MLOAD DUP1 DUP5 DUP4 MCOPY DUP2 ADD PUSH1 0x4 DUP2 MSTORE SUB PUSH1 0x20 ADD SWAP1 KECCAK256 SWAP2 PUSH1 0x40 MLOAD SWAP2 DUP3 SWAP2 MLOAD DUP1 SWAP2 DUP4 MCOPY DUP2 ADD PUSH1 0x5 DUP2 MSTORE SUB PUSH1 0x20 ADD SWAP1 KECCAK256 PUSH1 0x40 MLOAD SWAP2 PUSH2 0x122B DUP4 PUSH2 0x34DA JUMP JUMPDEST PUSH2 0x1234 DUP5 PUSH2 0x3689 JUMP JUMPDEST DUP4 MSTORE PUSH2 0x1242 PUSH1 0x1 DUP6 ADD PUSH2 0x3689 JUMP JUMPDEST SWAP4 PUSH1 0x20 DUP5 ADD SWAP5 DUP6 MSTORE PUSH1 0x2 ADD SLOAD PUSH1 0xFF AND SWAP2 PUSH1 0x40 DUP5 ADD SWAP3 DUP4 MSTORE PUSH1 0x40 MLOAD SWAP2 PUSH2 0x1266 DUP4 PUSH2 0x3510 JUMP JUMPDEST PUSH2 0x126F DUP2 PUSH2 0x3689 JUMP JUMPDEST DUP4 MSTORE PUSH1 0x1 ADD PUSH2 0x127D SWAP1 PUSH2 0x3689 JUMP JUMPDEST PUSH1 0x20 DUP4 ADD SWAP1 DUP2 MSTORE PUSH1 0x40 MLOAD SWAP4 PUSH2 0x1291 DUP6 PUSH2 0x352B JUMP JUMPDEST PUSH2 0x129A DUP4 PUSH2 0x3689 JUMP JUMPDEST DUP6 MSTORE PUSH2 0x12A8 PUSH1 0x1 DUP5 ADD PUSH2 0x3689 JUMP JUMPDEST PUSH1 0x20 DUP7 ADD SWAP1 DUP2 MSTORE PUSH2 0x12BB PUSH1 0x2 DUP6 ADD PUSH2 0x3689 JUMP JUMPDEST PUSH1 0x40 DUP8 ADD SWAP1 DUP2 MSTORE PUSH2 0x12CE PUSH1 0x3 DUP7 ADD PUSH2 0x3689 JUMP JUMPDEST PUSH1 0x60 DUP9 ADD SWAP1 DUP2 MSTORE SWAP2 PUSH2 0x12E2 PUSH1 0x4 DUP8 ADD PUSH2 0x3689 JUMP JUMPDEST PUSH1 0x80 DUP10 ADD SWAP1 DUP2 MSTORE SWAP4 PUSH2 0x12F6 PUSH1 0x5 DUP9 ADD PUSH2 0x3689 JUMP JUMPDEST PUSH1 0xA0 DUP11 ADD SWAP1 DUP2 MSTORE SWAP6 PUSH2 0x130A PUSH1 0x6 DUP10 ADD PUSH2 0x3689 JUMP JUMPDEST SWAP8 PUSH1 0xC0 DUP12 ADD SWAP9 DUP10 MSTORE PUSH1 0x7 ADD PUSH2 0x131E SWAP1 PUSH2 0x3689 JUMP JUMPDEST SWAP9 PUSH1 0xE0 DUP12 ADD SWAP10 DUP11 MSTORE PUSH1 0x40 MLOAD SWAP13 DUP14 SWAP13 PUSH1 0x60 DUP15 MSTORE MLOAD DUP14 PUSH1 0x60 DUP2 ADD PUSH1 0x60 SWAP1 MSTORE PUSH1 0xC0 ADD PUSH2 0x1346 SWAP2 PUSH2 0x35D9 JUMP JUMPDEST SWAP1 MLOAD DUP14 DUP3 SUB PUSH1 0x5F NOT ADD PUSH1 0x80 DUP16 ADD MSTORE PUSH2 0x135E SWAP2 SWAP1 PUSH2 0x35D9 JUMP JUMPDEST SWAP3 MLOAD PUSH1 0xFF AND PUSH1 0xA0 DUP14 ADD MSTORE DUP12 DUP4 SUB PUSH1 0x20 DUP14 ADD MSTORE MLOAD PUSH1 0x40 DUP4 MSTORE PUSH1 0x40 DUP4 ADD PUSH2 0x1382 SWAP2 PUSH2 0x35D9 JUMP JUMPDEST SWAP1 MLOAD SWAP2 DUP1 DUP3 SUB SWAP1 PUSH1 0x20 ADD MSTORE PUSH2 0x1396 SWAP2 PUSH2 0x35D9 JUMP JUMPDEST SWAP8 DUP10 DUP10 SUB PUSH1 0x40 DUP12 ADD MSTORE MLOAD PUSH2 0x100 DUP10 MSTORE PUSH2 0x100 DUP10 ADD PUSH2 0x13B3 SWAP2 PUSH2 0x35D9 JUMP JUMPDEST SWAP1 MLOAD SWAP1 DUP9 DUP2 SUB PUSH1 0x20 DUP11 ADD MSTORE PUSH2 0x13C7 SWAP2 PUSH2 0x35D9 JUMP JUMPDEST SWAP1 MLOAD SWAP1 DUP8 DUP2 SUB PUSH1 0x40 DUP10 ADD MSTORE PUSH2 0x13DB SWAP2 PUSH2 0x35D9 JUMP JUMPDEST SWAP1 MLOAD SWAP1 DUP7 DUP2 SUB PUSH1 0x60 DUP9 ADD MSTORE PUSH2 0x13EF SWAP2 PUSH2 0x35D9 JUMP JUMPDEST SWAP1 MLOAD SWAP1 DUP6 DUP2 SUB PUSH1 0x80 DUP8 ADD MSTORE PUSH2 0x1403 SWAP2 PUSH2 0x35D9 JUMP JUMPDEST SWAP1 MLOAD SWAP1 DUP5 DUP2 SUB PUSH1 0xA0 DUP7 ADD MSTORE PUSH2 0x1417 SWAP2 PUSH2 0x35D9 JUMP JUMPDEST SWAP1 MLOAD SWAP1 DUP4 DUP2 SUB PUSH1 0xC0 DUP6 ADD MSTORE PUSH2 0x142B SWAP2 PUSH2 0x35D9 JUMP JUMPDEST SWAP1 MLOAD SWAP2 DUP1 DUP3 SUB SWAP1 PUSH1 0xE0 ADD MSTORE PUSH2 0x224 SWAP2 PUSH2 0x35D9 JUMP JUMPDEST CALLVALUE PUSH2 0x1BD JUMPI PUSH1 0x20 CALLDATASIZE PUSH1 0x3 NOT ADD SLT PUSH2 0x1BD JUMPI PUSH1 0x4 CALLDATALOAD PUSH1 0x1 PUSH1 0x1 PUSH1 0x40 SHL SUB DUP2 GT PUSH2 0x1BD JUMPI PUSH1 0x20 DUP1 PUSH2 0x1475 PUSH2 0x14B9 SWAP4 CALLDATASIZE SWAP1 PUSH1 0x4 ADD PUSH2 0x3584 JUMP JUMPDEST PUSH1 0x40 MLOAD SWAP3 DUP2 DUP5 SWAP3 MLOAD SWAP2 DUP3 SWAP2 ADD DUP4 MCOPY DUP2 ADD PUSH1 0x4 DUP2 MSTORE SUB ADD SWAP1 KECCAK256 PUSH2 0x224 PUSH2 0x14A5 PUSH1 0x1 PUSH2 0x149E DUP5 PUSH2 0x3689 JUMP JUMPDEST SWAP4 ADD PUSH2 0x3689 JUMP JUMPDEST PUSH1 0x40 MLOAD SWAP4 DUP5 SWAP4 PUSH1 0x40 DUP6 MSTORE PUSH1 0x40 DUP6 ADD SWAP1 PUSH2 0x35D9 JUMP JUMPDEST SWAP1 DUP4 DUP3 SUB PUSH1 0x20 DUP6 ADD MSTORE PUSH2 0x35D9 JUMP JUMPDEST CALLVALUE PUSH2 0x1BD JUMPI PUSH1 0x20 CALLDATASIZE PUSH1 0x3 NOT ADD SLT PUSH2 0x1BD JUMPI PUSH1 0x4 CALLDATALOAD PUSH1 0x1 PUSH1 0x1 PUSH1 0x40 SHL SUB DUP2 GT PUSH2 0x1BD JUMPI PUSH2 0x2D4 PUSH2 0x14FD PUSH2 0x224 SWAP3 CALLDATASIZE SWAP1 PUSH1 0x4 ADD PUSH2 0x3584 JUMP JUMPDEST PUSH2 0x3CFA JUMP JUMPDEST CALLVALUE PUSH2 0x1BD JUMPI PUSH1 0x20 CALLDATASIZE PUSH1 0x3 NOT ADD SLT PUSH2 0x1BD JUMPI PUSH1 0x4 CALLDATALOAD PUSH1 0x1 PUSH1 0x1 PUSH1 0x40 SHL SUB DUP2 GT PUSH2 0x1BD JUMPI PUSH1 0x20 DUP1 PUSH2 0x1538 PUSH2 0x1586 SWAP4 CALLDATASIZE SWAP1 PUSH1 0x4 ADD PUSH2 0x3584 JUMP JUMPDEST PUSH1 0x40 MLOAD SWAP3 DUP2 DUP5 SWAP3 MLOAD SWAP2 DUP3 SWAP2 ADD DUP4 MCOPY DUP2 ADD PUSH1 0x3 DUP2 MSTORE SUB ADD SWAP1 KECCAK256 PUSH2 0x1559 DUP2 PUSH2 0x3689 JUMP JUMPDEST SWAP1 PUSH2 0x1594 PUSH1 0xFF PUSH1 0x2 PUSH2 0x156D PUSH1 0x1 DUP6 ADD PUSH2 0x3689 JUMP JUMPDEST SWAP4 ADD SLOAD AND SWAP2 PUSH1 0x40 MLOAD SWAP5 DUP6 SWAP5 PUSH1 0x60 DUP7 MSTORE PUSH1 0x60 DUP7 ADD SWAP1 PUSH2 0x35D9 JUMP JUMPDEST SWAP1 DUP5 DUP3 SUB PUSH1 0x20 DUP7 ADD MSTORE PUSH2 0x35D9 JUMP JUMPDEST SWAP1 PUSH1 0x40 DUP4 ADD MSTORE SUB SWAP1 RETURN JUMPDEST CALLVALUE PUSH2 0x1BD JUMPI PUSH1 0x20 CALLDATASIZE PUSH1 0x3 NOT ADD SLT PUSH2 0x1BD JUMPI PUSH1 0x4 CALLDATALOAD PUSH1 0x1 PUSH1 0x1 PUSH1 0x40 SHL SUB DUP2 GT PUSH2 0x1BD JUMPI PUSH2 0x15CE SWAP1 CALLDATASIZE SWAP1 PUSH1 0x4 ADD PUSH2 0x3584 JUMP JUMPDEST PUSH1 0x2 SLOAD PUSH1 0x20 DUP3 ADD SWAP2 PUSH0 DUP1 JUMPDEST DUP4 DUP2 LT PUSH2 0x169E JUMPI POP PUSH1 0xFF PUSH2 0x15ED SWAP2 AND PUSH2 0x3D45 JUMP JUMPDEST SWAP3 PUSH0 SWAP2 PUSH0 JUMPDEST DUP5 DUP2 LT PUSH2 0x1607 JUMPI PUSH1 0x40 MLOAD DUP1 PUSH2 0x224 DUP9 DUP3 PUSH2 0x3937 JUMP JUMPDEST PUSH1 0x2 PUSH2 0x3E3 PUSH2 0x162C PUSH2 0x1618 DUP5 PUSH2 0x3775 JUMP JUMPDEST POP PUSH1 0x40 MLOAD SWAP3 DUP4 SWAP2 PUSH1 0x20 DUP4 ADD SWAP6 DUP7 SWAP2 ADD PUSH2 0x3C54 JUMP JUMPDEST MLOAD SWAP1 KECCAK256 PUSH1 0x40 MLOAD PUSH1 0x20 DUP2 ADD SWAP1 PUSH2 0x1659 PUSH1 0x20 DUP3 DUP8 MLOAD DUP1 DUP11 DUP8 MCOPY DUP2 ADD PUSH0 DUP4 DUP3 ADD MSTORE SUB ADD PUSH1 0x1F NOT DUP2 ADD DUP4 MSTORE DUP3 PUSH2 0x3563 JUMP JUMPDEST MLOAD SWAP1 KECCAK256 EQ PUSH2 0x166A JUMPI JUMPDEST PUSH1 0x1 ADD PUSH2 0x15F2 JUMP JUMPDEST SWAP3 PUSH2 0x1696 PUSH1 0x1 SWAP2 PUSH2 0x259 PUSH2 0x1680 PUSH2 0x23D DUP9 PUSH2 0x3775 JUMP JUMPDEST PUSH1 0xFF DUP4 AND SWAP1 PUSH2 0x168F DUP3 DUP13 PUSH2 0x3DC2 JUMP JUMPDEST MSTORE DUP10 PUSH2 0x3DC2 JUMP JUMPDEST SWAP4 SWAP1 POP PUSH2 0x1662 JUMP JUMPDEST PUSH1 0x2 PUSH2 0x3E3 PUSH2 0x16AF PUSH2 0x1618 DUP5 PUSH2 0x3775 JUMP JUMPDEST MLOAD SWAP1 KECCAK256 PUSH1 0x40 MLOAD PUSH1 0x20 DUP2 ADD SWAP1 PUSH2 0x16DC PUSH1 0x20 DUP3 DUP9 MLOAD DUP1 DUP13 DUP8 MCOPY DUP2 ADD PUSH0 DUP4 DUP3 ADD MSTORE SUB ADD PUSH1 0x1F NOT DUP2 ADD DUP4 MSTORE DUP3 PUSH2 0x3563 JUMP JUMPDEST MLOAD SWAP1 KECCAK256 EQ PUSH2 0x16ED JUMPI JUMPDEST PUSH1 0x1 ADD PUSH2 0x15D9 JUMP JUMPDEST SWAP1 PUSH2 0x16F9 PUSH1 0x1 SWAP2 PUSH2 0x3D1D JUMP JUMPDEST SWAP2 SWAP1 POP PUSH2 0x16E5 JUMP JUMPDEST CALLVALUE PUSH2 0x1BD JUMPI PUSH1 0xE0 CALLDATASIZE PUSH1 0x3 NOT ADD SLT PUSH2 0x1BD JUMPI PUSH1 0x4 CALLDATALOAD PUSH1 0x1 PUSH1 0x1 PUSH1 0x40 SHL SUB DUP2 GT PUSH2 0x1BD JUMPI PUSH2 0x1731 SWAP1 CALLDATASIZE SWAP1 PUSH1 0x4 ADD PUSH2 0x3584 JUMP JUMPDEST PUSH1 0x24 CALLDATALOAD PUSH1 0x1 PUSH1 0x1 PUSH1 0x40 SHL SUB DUP2 GT PUSH2 0x1BD JUMPI PUSH2 0x1750 SWAP1 CALLDATASIZE SWAP1 PUSH1 0x4 ADD PUSH2 0x3584 JUMP JUMPDEST PUSH1 0x44 CALLDATALOAD PUSH1 0x1 PUSH1 0x1 PUSH1 0x40 SHL SUB DUP2 GT PUSH2 0x1BD JUMPI PUSH2 0x176F SWAP1 CALLDATASIZE SWAP1 PUSH1 0x4 ADD PUSH2 0x3584 JUMP JUMPDEST SWAP2 PUSH1 0x64 CALLDATALOAD PUSH1 0x1 PUSH1 0x1 PUSH1 0xA0 SHL SUB DUP2 AND DUP2 SUB PUSH2 0x1BD JUMPI PUSH1 0x84 CALLDATALOAD SWAP4 PUSH1 0xFF DUP6 AND DUP1 SWAP6 SUB PUSH2 0x1BD JUMPI PUSH1 0xA4 CALLDATALOAD PUSH1 0x1 PUSH1 0x1 PUSH1 0x40 SHL SUB DUP2 GT PUSH2 0x1BD JUMPI PUSH2 0x17B1 SWAP1 CALLDATASIZE SWAP1 PUSH1 0x4 ADD PUSH2 0x37A5 JUMP JUMPDEST SWAP2 PUSH1 0xC4 CALLDATALOAD SWAP1 PUSH1 0x1 PUSH1 0x1 PUSH1 0x40 SHL SUB DUP3 GT PUSH2 0x1BD JUMPI DUP3 PUSH2 0x17D6 PUSH2 0x17DC SWAP4 CALLDATASIZE SWAP1 PUSH1 0x4 ADD PUSH2 0x3804 JUMP JUMPDEST SWAP7 PUSH2 0x3CBE JUMP JUMPDEST SWAP5 PUSH2 0x182C DUP5 PUSH1 0x20 SWAP8 PUSH1 0x40 MLOAD SWAP1 PUSH2 0x17F2 DUP11 DUP4 PUSH2 0x3563 JUMP JUMPDEST PUSH0 DUP3 MSTORE PUSH1 0x40 MLOAD PUSH2 0x1802 DUP12 DUP3 PUSH2 0x3563 JUMP JUMPDEST PUSH0 DUP2 MSTORE PUSH2 0x180D PUSH2 0x3C06 JUMP JUMPDEST POP PUSH1 0x40 MLOAD SWAP3 PUSH2 0x181B DUP5 PUSH2 0x34DA JUMP JUMPDEST DUP4 MSTORE DUP11 DUP4 ADD MSTORE PUSH0 PUSH1 0x40 DUP4 ADD MSTORE PUSH2 0x4820 JUMP JUMPDEST PUSH1 0x40 MLOAD PUSH2 0x1838 DUP2 PUSH2 0x34DA JUMP JUMPDEST DUP5 DUP2 MSTORE PUSH1 0x40 MLOAD PUSH2 0x1848 DUP9 DUP3 PUSH2 0x3563 JUMP JUMPDEST PUSH0 DUP2 MSTORE DUP8 DUP3 ADD SWAP1 DUP2 MSTORE PUSH1 0x40 DUP3 ADD SWAP1 DUP4 DUP3 MSTORE PUSH1 0x40 MLOAD DUP10 DUP2 DUP10 MLOAD DUP1 DUP4 DUP13 ADD DUP4 MCOPY DUP2 ADD PUSH1 0x3 DUP2 MSTORE SUB ADD SWAP1 KECCAK256 SWAP3 MLOAD DUP1 MLOAD SWAP1 PUSH1 0x1 PUSH1 0x1 PUSH1 0x40 SHL SUB DUP3 GT PUSH2 0x8B2 JUMPI DUP2 SWAP1 PUSH2 0x188F DUP7 SLOAD PUSH2 0x3651 JUMP JUMPDEST PUSH1 0x1F DUP2 GT PUSH2 0x2A7A JUMPI JUMPDEST POP DUP12 SWAP1 PUSH1 0x1F DUP4 GT PUSH1 0x1 EQ PUSH2 0x2A15 JUMPI PUSH0 SWAP3 PUSH2 0x2A0A JUMPI JUMPDEST POP POP DUP2 PUSH1 0x1 SHL SWAP2 PUSH0 NOT SWAP1 PUSH1 0x3 SHL SHR NOT AND OR DUP4 SSTORE JUMPDEST MLOAD DUP1 MLOAD PUSH1 0x1 DUP5 ADD SWAP2 PUSH1 0x1 PUSH1 0x1 PUSH1 0x40 SHL SUB DUP3 GT PUSH2 0x8B2 JUMPI PUSH2 0x18E1 DUP4 SLOAD PUSH2 0x3651 JUMP JUMPDEST PUSH1 0x1F DUP2 GT PUSH2 0x29C7 JUMPI JUMPDEST POP DUP11 SWAP1 PUSH1 0x1F DUP4 GT PUSH1 0x1 EQ PUSH2 0x295A JUMPI SWAP3 DUP3 PUSH1 0xFF SWAP6 SWAP3 SWAP4 DUP7 SWAP5 PUSH1 0x2 SWAP7 PUSH0 SWAP3 PUSH2 0x294F JUMPI JUMPDEST POP POP DUP2 PUSH1 0x1 SHL SWAP2 PUSH0 NOT SWAP1 PUSH1 0x3 SHL SHR NOT AND OR SWAP1 SSTORE JUMPDEST MLOAD AND SWAP3 ADD SWAP2 AND PUSH1 0xFF NOT DUP3 SLOAD AND OR SWAP1 SSTORE PUSH1 0x40 MLOAD SWAP1 PUSH2 0x193B DUP3 PUSH2 0x34F5 JUMP JUMPDEST DUP5 DUP3 MSTORE PUSH1 0x40 MLOAD SWAP3 PUSH2 0x194C DUP9 DUP6 PUSH2 0x3563 JUMP JUMPDEST PUSH0 DUP5 MSTORE DUP8 DUP4 ADD SWAP4 DUP5 MSTORE PUSH1 0x40 DUP4 ADD MSTORE PUSH1 0x60 DUP3 ADD MSTORE PUSH0 PUSH1 0x80 DUP3 ADD MSTORE PUSH1 0x40 MLOAD PUSH2 0x1972 DUP8 DUP3 PUSH2 0x3563 JUMP JUMPDEST PUSH0 DUP2 MSTORE PUSH1 0xA0 DUP3 ADD MSTORE PUSH0 PUSH1 0xC0 DUP3 ADD MSTORE PUSH1 0x2 SLOAD PUSH9 0x10000000000000000 DUP2 LT ISZERO PUSH2 0x8B2 JUMPI DUP1 PUSH1 0x1 PUSH2 0x19A4 SWAP3 ADD PUSH1 0x2 SSTORE PUSH2 0x3775 JUMP JUMPDEST SWAP3 SWAP1 SWAP3 PUSH2 0x293C JUMPI DUP2 MLOAD DUP1 MLOAD SWAP1 PUSH1 0x1 PUSH1 0x1 PUSH1 0x40 SHL SUB DUP3 GT PUSH2 0x8B2 JUMPI DUP2 SWAP1 PUSH2 0x19CA DUP7 SLOAD PUSH2 0x3651 JUMP JUMPDEST PUSH1 0x1F DUP2 GT PUSH2 0x28EE JUMPI JUMPDEST POP DUP10 SWAP1 PUSH1 0x1F DUP4 GT PUSH1 0x1 EQ PUSH2 0x288B JUMPI PUSH0 SWAP3 PUSH2 0x2880 JUMPI JUMPDEST POP POP DUP2 PUSH1 0x1 SHL SWAP2 PUSH0 NOT SWAP1 PUSH1 0x3 SHL SHR NOT AND OR DUP4 SSTORE JUMPDEST MLOAD DUP1 MLOAD SWAP1 PUSH1 0x1 PUSH1 0x1 PUSH1 0x40 SHL SUB DUP3 GT PUSH2 0x8B2 JUMPI DUP2 SWAP1 PUSH2 0x1A1D PUSH1 0x1 DUP7 ADD SLOAD PUSH2 0x3651 JUMP JUMPDEST PUSH1 0x1F DUP2 GT PUSH2 0x282F JUMPI JUMPDEST POP DUP9 SWAP1 PUSH1 0x1F DUP4 GT PUSH1 0x1 EQ PUSH2 0x27C5 JUMPI PUSH0 SWAP3 PUSH2 0x27BA JUMPI JUMPDEST POP POP DUP2 PUSH1 0x1 SHL SWAP2 PUSH0 NOT SWAP1 PUSH1 0x3 SHL SHR NOT AND OR PUSH1 0x1 DUP4 ADD SSTORE JUMPDEST PUSH1 0x2 DUP3 ADD PUSH1 0x40 DUP3 ADD MLOAD DUP1 MLOAD SWAP1 PUSH1 0x1 PUSH1 0x1 PUSH1 0x40 SHL SUB DUP3 GT PUSH2 0x8B2 JUMPI DUP2 SWAP1 PUSH2 0x1A78 DUP5 SLOAD PUSH2 0x3651 JUMP JUMPDEST PUSH1 0x1F DUP2 GT PUSH2 0x276C JUMPI JUMPDEST POP DUP10 SWAP1 PUSH1 0x1F DUP4 GT PUSH1 0x1 EQ PUSH2 0x2709 JUMPI PUSH0 SWAP3 PUSH2 0x26FE JUMPI JUMPDEST POP POP DUP2 PUSH1 0x1 SHL SWAP2 PUSH0 NOT SWAP1 PUSH1 0x3 SHL SHR NOT AND OR SWAP1 SSTORE JUMPDEST PUSH1 0x3 DUP3 ADD PUSH1 0xFF DUP1 PUSH1 0x60 DUP5 ADD MLOAD AND AND PUSH1 0xFF NOT DUP3 SLOAD AND OR DUP2 SSTORE PUSH1 0x80 DUP3 ADD MLOAD PUSH1 0x7 DUP2 LT ISZERO PUSH2 0x26EA JUMPI PUSH2 0xFF00 DUP3 SLOAD SWAP2 PUSH1 0x8 SHL AND SWAP1 PUSH2 0xFF00 NOT AND OR SWAP1 SSTORE PUSH1 0x4 DUP3 ADD PUSH1 0xA0 DUP3 ADD MLOAD DUP1 MLOAD SWAP1 PUSH1 0x1 PUSH1 0x1 PUSH1 0x40 SHL SUB DUP3 GT PUSH2 0x8B2 JUMPI PUSH2 0x1B06 DUP4 SLOAD PUSH2 0x3651 JUMP JUMPDEST PUSH1 0x1F DUP2 GT PUSH2 0x26A7 JUMPI JUMPDEST POP DUP9 SWAP1 PUSH1 0x1F DUP4 GT PUSH1 0x1 EQ PUSH2 0x263E JUMPI SWAP2 DUP1 PUSH1 0xC0 SWAP5 SWAP3 PUSH1 0x5 SWAP7 SWAP5 PUSH0 SWAP3 PUSH2 0x2633 JUMPI JUMPDEST POP POP DUP2 PUSH1 0x1 SHL SWAP2 PUSH0 NOT SWAP1 PUSH1 0x3 SHL SHR NOT AND OR SWAP1 SSTORE JUMPDEST ADD MLOAD SWAP2 ADD SSTORE PUSH1 0x40 MLOAD DUP5 DUP2 DUP5 MLOAD DUP1 DUP4 DUP8 ADD DUP4 MCOPY DUP2 ADD PUSH1 0x4 DUP2 MSTORE SUB ADD SWAP1 KECCAK256 DUP2 MLOAD SWAP1 DUP2 MLOAD PUSH1 0x1 PUSH1 0x1 PUSH1 0x40 SHL SUB DUP2 GT PUSH2 0x8B2 JUMPI DUP7 SWAP3 PUSH2 0x1B7D DUP4 SLOAD PUSH2 0x3651 JUMP JUMPDEST PUSH1 0x1F DUP2 GT PUSH2 0x25E1 JUMPI JUMPDEST POP DUP4 SWAP1 PUSH1 0x1F DUP4 GT PUSH1 0x1 EQ PUSH2 0x257B JUMPI PUSH1 0x1 SWAP4 SWAP3 SWAP2 PUSH0 SWAP2 DUP4 PUSH2 0x2570 JUMPI JUMPDEST POP POP PUSH0 NOT PUSH1 0x3 DUP4 SWAP1 SHL SHR NOT AND SWAP1 DUP4 SHL OR DUP2 SSTORE JUMPDEST ADD SWAP2 ADD MLOAD SWAP2 DUP3 MLOAD SWAP2 PUSH1 0x1 PUSH1 0x1 PUSH1 0x40 SHL SUB DUP4 GT PUSH2 0x8B2 JUMPI DUP6 SWAP3 PUSH2 0x1BD6 DUP3 SLOAD PUSH2 0x3651 JUMP JUMPDEST SWAP5 PUSH1 0x1F DUP7 GT PUSH2 0x2519 JUMPI JUMPDEST DUP5 SWAP6 POP DUP5 SWAP1 PUSH1 0x1F DUP4 GT PUSH1 0x1 EQ PUSH2 0x24B2 JUMPI PUSH0 SWAP2 SWAP1 DUP4 PUSH2 0x24A7 JUMPI JUMPDEST POP POP DUP2 PUSH1 0x1 SHL SWAP2 PUSH0 NOT SWAP1 PUSH1 0x3 SHL SHR NOT AND OR SWAP1 SSTORE JUMPDEST PUSH1 0x40 MLOAD SWAP3 DUP2 DUP5 SWAP3 MLOAD SWAP2 DUP3 SWAP2 ADD DUP4 MCOPY DUP2 ADD PUSH1 0x5 DUP2 MSTORE SUB ADD SWAP1 KECCAK256 SWAP1 DUP1 MLOAD SWAP2 DUP3 MLOAD PUSH1 0x1 PUSH1 0x1 PUSH1 0x40 SHL SUB DUP2 GT PUSH2 0x8B2 JUMPI PUSH2 0x1C43 DUP3 SLOAD PUSH2 0x3651 JUMP JUMPDEST PUSH1 0x1F DUP2 GT PUSH2 0x2464 JUMPI JUMPDEST POP DUP5 SWAP4 PUSH1 0x1F DUP3 GT PUSH1 0x1 EQ PUSH2 0x2404 JUMPI SWAP4 DUP2 SWAP3 SWAP4 SWAP5 PUSH0 SWAP3 PUSH2 0x23F9 JUMPI JUMPDEST POP POP DUP2 PUSH1 0x1 SHL SWAP2 PUSH0 NOT SWAP1 PUSH1 0x3 SHL SHR NOT AND OR DUP2 SSTORE JUMPDEST PUSH1 0x1 DUP2 ADD DUP4 DUP4 ADD MLOAD DUP1 MLOAD SWAP1 PUSH1 0x1 PUSH1 0x1 PUSH1 0x40 SHL SUB DUP3 GT PUSH2 0x8B2 JUMPI DUP2 SWAP1 PUSH2 0x1C9F DUP5 SLOAD PUSH2 0x3651 JUMP JUMPDEST PUSH1 0x1F DUP2 GT PUSH2 0x23AB JUMPI JUMPDEST POP DUP7 SWAP1 PUSH1 0x1F DUP4 GT PUSH1 0x1 EQ PUSH2 0x2348 JUMPI PUSH0 SWAP3 PUSH2 0x233D JUMPI JUMPDEST POP POP DUP2 PUSH1 0x1 SHL SWAP2 PUSH0 NOT SWAP1 PUSH1 0x3 SHL SHR NOT AND OR SWAP1 SSTORE JUMPDEST PUSH1 0x2 DUP2 ADD PUSH1 0x40 DUP4 ADD MLOAD DUP1 MLOAD SWAP1 PUSH1 0x1 PUSH1 0x1 PUSH1 0x40 SHL SUB DUP3 GT PUSH2 0x8B2 JUMPI DUP2 SWAP1 PUSH2 0x1CF7 DUP5 SLOAD PUSH2 0x3651 JUMP JUMPDEST PUSH1 0x1F DUP2 GT PUSH2 0x22EF JUMPI JUMPDEST POP DUP7 SWAP1 PUSH1 0x1F DUP4 GT PUSH1 0x1 EQ PUSH2 0x228C JUMPI PUSH0 SWAP3 PUSH2 0x2281 JUMPI JUMPDEST POP POP DUP2 PUSH1 0x1 SHL SWAP2 PUSH0 NOT SWAP1 PUSH1 0x3 SHL SHR NOT AND OR SWAP1 SSTORE JUMPDEST PUSH1 0x3 DUP2 ADD PUSH1 0x60 DUP4 ADD MLOAD DUP1 MLOAD SWAP1 PUSH1 0x1 PUSH1 0x1 PUSH1 0x40 SHL SUB DUP3 GT PUSH2 0x8B2 JUMPI DUP2 SWAP1 PUSH2 0x1D4F DUP5 SLOAD PUSH2 0x3651 JUMP JUMPDEST PUSH1 0x1F DUP2 GT PUSH2 0x2233 JUMPI JUMPDEST POP DUP7 SWAP1 PUSH1 0x1F DUP4 GT PUSH1 0x1 EQ PUSH2 0x21D0 JUMPI PUSH0 SWAP3 PUSH2 0x21C5 JUMPI JUMPDEST POP POP DUP2 PUSH1 0x1 SHL SWAP2 PUSH0 NOT SWAP1 PUSH1 0x3 SHL SHR NOT AND OR SWAP1 SSTORE JUMPDEST PUSH1 0x4 DUP2 ADD PUSH1 0x80 DUP4 ADD MLOAD DUP1 MLOAD SWAP1 PUSH1 0x1 PUSH1 0x1 PUSH1 0x40 SHL SUB DUP3 GT PUSH2 0x8B2 JUMPI DUP2 SWAP1 PUSH2 0x1DA7 DUP5 SLOAD PUSH2 0x3651 JUMP JUMPDEST PUSH1 0x1F DUP2 GT PUSH2 0x2177 JUMPI JUMPDEST POP DUP7 SWAP1 PUSH1 0x1F DUP4 GT PUSH1 0x1 EQ PUSH2 0x2114 JUMPI PUSH0 SWAP3 PUSH2 0x2109 JUMPI JUMPDEST POP POP DUP2 PUSH1 0x1 SHL SWAP2 PUSH0 NOT SWAP1 PUSH1 0x3 SHL SHR NOT AND OR SWAP1 SSTORE JUMPDEST PUSH1 0x5 DUP2 ADD PUSH1 0xA0 DUP4 ADD MLOAD DUP1 MLOAD SWAP1 PUSH1 0x1 PUSH1 0x1 PUSH1 0x40 SHL SUB DUP3 GT PUSH2 0x8B2 JUMPI DUP2 SWAP1 PUSH2 0x1DFF DUP5 SLOAD PUSH2 0x3651 JUMP JUMPDEST PUSH1 0x1F DUP2 GT PUSH2 0x20BB JUMPI JUMPDEST POP DUP7 SWAP1 PUSH1 0x1F DUP4 GT PUSH1 0x1 EQ PUSH2 0x2058 JUMPI PUSH0 SWAP3 PUSH2 0x204D JUMPI JUMPDEST POP POP DUP2 PUSH1 0x1 SHL SWAP2 PUSH0 NOT SWAP1 PUSH1 0x3 SHL SHR NOT AND OR SWAP1 SSTORE JUMPDEST PUSH1 0x6 DUP2 ADD PUSH1 0xC0 DUP4 ADD MLOAD DUP1 MLOAD SWAP1 PUSH1 0x1 PUSH1 0x1 PUSH1 0x40 SHL SUB DUP3 GT PUSH2 0x8B2 JUMPI PUSH2 0x1E55 DUP4 SLOAD PUSH2 0x3651 JUMP JUMPDEST PUSH1 0x1F DUP2 GT PUSH2 0x200A JUMPI JUMPDEST POP DUP6 SWAP1 PUSH1 0x1F DUP4 GT PUSH1 0x1 EQ PUSH2 0x1FA1 JUMPI SWAP2 DUP1 PUSH1 0x7 SWAP5 SWAP3 PUSH1 0xE0 SWAP7 SWAP5 PUSH0 SWAP3 PUSH2 0x1F96 JUMPI JUMPDEST POP POP DUP2 PUSH1 0x1 SHL SWAP2 PUSH0 NOT SWAP1 PUSH1 0x3 SHL SHR NOT AND OR SWAP1 SSTORE JUMPDEST ADD SWAP2 ADD MLOAD SWAP2 DUP3 MLOAD SWAP1 PUSH1 0x1 PUSH1 0x1 PUSH1 0x40 SHL SUB DUP3 GT PUSH2 0x8B2 JUMPI PUSH2 0x1EB1 DUP4 SLOAD PUSH2 0x3651 JUMP JUMPDEST PUSH1 0x1F DUP2 GT PUSH2 0x1F53 JUMPI JUMPDEST POP DUP1 PUSH1 0x1F DUP4 GT PUSH1 0x1 EQ PUSH2 0x1EF4 JUMPI POP DUP2 SWAP3 SWAP4 PUSH0 SWAP3 PUSH2 0x1EE9 JUMPI JUMPDEST POP POP PUSH0 NOT PUSH1 0x3 DUP4 SWAP1 SHL SHR NOT AND PUSH1 0x1 SWAP2 SWAP1 SWAP2 SHL OR SWAP1 SSTORE STOP JUMPDEST ADD MLOAD SWAP1 POP DUP4 DUP1 PUSH2 0x1ED2 JUMP JUMPDEST SWAP1 PUSH1 0x1F NOT DUP4 AND SWAP5 DUP5 PUSH0 MSTORE DUP3 PUSH0 KECCAK256 SWAP3 PUSH0 SWAP1 JUMPDEST DUP8 DUP3 LT PUSH2 0x1F3B JUMPI POP POP DUP4 PUSH1 0x1 SWAP6 SWAP7 LT PUSH2 0x1F23 JUMPI JUMPDEST POP POP POP DUP2 SHL ADD SWAP1 SSTORE STOP JUMPDEST ADD MLOAD PUSH0 NOT PUSH1 0xF8 DUP5 PUSH1 0x3 SHL AND SHR NOT AND SWAP1 SSTORE DUP4 DUP1 DUP1 PUSH2 0x1F19 JUMP JUMPDEST DUP1 PUSH1 0x1 DUP6 SWAP7 DUP3 SWAP5 SWAP7 DUP7 ADD MLOAD DUP2 SSTORE ADD SWAP6 ADD SWAP4 ADD SWAP1 PUSH2 0x1F05 JUMP JUMPDEST DUP4 PUSH0 MSTORE DUP2 PUSH0 KECCAK256 PUSH1 0x1F DUP5 ADD PUSH1 0x5 SHR DUP2 ADD SWAP2 DUP4 DUP6 LT PUSH2 0x1F8C JUMPI JUMPDEST PUSH1 0x1F ADD PUSH1 0x5 SHR ADD SWAP1 JUMPDEST DUP2 DUP2 LT PUSH2 0x1F81 JUMPI POP PUSH2 0x1EBA JUMP JUMPDEST PUSH0 DUP2 SSTORE PUSH1 0x1 ADD PUSH2 0x1F74 JUMP JUMPDEST SWAP1 SWAP2 POP DUP2 SWAP1 PUSH2 0x1F6B JUMP JUMPDEST ADD MLOAD SWAP1 POP DUP9 DUP1 PUSH2 0x1E7D JUMP JUMPDEST SWAP1 PUSH1 0x1F NOT DUP4 AND SWAP2 DUP5 PUSH0 MSTORE DUP8 PUSH0 KECCAK256 SWAP3 PUSH0 JUMPDEST DUP10 DUP3 DUP3 LT PUSH2 0x1FF4 JUMPI POP POP SWAP3 PUSH1 0x1 SWAP3 DUP6 SWAP3 PUSH1 0xE0 SWAP9 SWAP7 PUSH1 0x7 SWAP9 SWAP7 LT PUSH2 0x1FDC JUMPI JUMPDEST POP POP POP DUP2 SHL ADD SWAP1 SSTORE PUSH2 0x1E91 JUMP JUMPDEST ADD MLOAD PUSH0 NOT PUSH1 0xF8 DUP5 PUSH1 0x3 SHL AND SHR NOT AND SWAP1 SSTORE DUP9 DUP1 DUP1 PUSH2 0x1FCF JUMP JUMPDEST PUSH1 0x1 DUP6 SWAP7 DUP3 SWAP4 SWAP7 DUP7 ADD MLOAD DUP2 SSTORE ADD SWAP6 ADD SWAP4 ADD PUSH2 0x1FB1 JUMP JUMPDEST DUP4 PUSH0 MSTORE DUP7 PUSH0 KECCAK256 PUSH1 0x1F DUP5 ADD PUSH1 0x5 SHR DUP2 ADD SWAP2 DUP9 DUP6 LT PUSH2 0x2043 JUMPI JUMPDEST PUSH1 0x1F ADD PUSH1 0x5 SHR ADD SWAP1 JUMPDEST DUP2 DUP2 LT PUSH2 0x2038 JUMPI POP PUSH2 0x1E5E JUMP JUMPDEST PUSH0 DUP2 SSTORE PUSH1 0x1 ADD PUSH2 0x202B JUMP JUMPDEST SWAP1 SWAP2 POP DUP2 SWAP1 PUSH2 0x2022 JUMP JUMPDEST ADD MLOAD SWAP1 POP DUP7 DUP1 PUSH2 0x1E1D JUMP JUMPDEST PUSH0 DUP6 DUP2 MSTORE DUP9 DUP2 KECCAK256 SWAP4 POP PUSH1 0x1F NOT DUP6 AND SWAP1 JUMPDEST DUP10 DUP3 DUP3 LT PUSH2 0x20A5 JUMPI POP POP SWAP1 DUP5 PUSH1 0x1 SWAP6 SWAP5 SWAP4 SWAP3 LT PUSH2 0x208D JUMPI JUMPDEST POP POP POP DUP2 SHL ADD SWAP1 SSTORE PUSH2 0x1E31 JUMP JUMPDEST ADD MLOAD PUSH0 NOT PUSH1 0xF8 DUP5 PUSH1 0x3 SHL AND SHR NOT AND SWAP1 SSTORE DUP7 DUP1 DUP1 PUSH2 0x2080 JUMP JUMPDEST PUSH1 0x1 DUP6 SWAP7 DUP3 SWAP4 SWAP7 DUP7 ADD MLOAD DUP2 SSTORE ADD SWAP6 ADD SWAP4 ADD PUSH2 0x2068 JUMP JUMPDEST SWAP1 SWAP2 POP DUP4 PUSH0 MSTORE DUP7 PUSH0 KECCAK256 PUSH1 0x1F DUP5 ADD PUSH1 0x5 SHR DUP2 ADD SWAP2 DUP9 DUP6 LT PUSH2 0x20FF JUMPI JUMPDEST SWAP1 PUSH1 0x1F DUP6 SWAP5 SWAP4 SWAP3 ADD PUSH1 0x5 SHR ADD SWAP1 JUMPDEST DUP2 DUP2 LT PUSH2 0x20F1 JUMPI POP PUSH2 0x1E08 JUMP JUMPDEST PUSH0 DUP2 SSTORE DUP5 SWAP4 POP PUSH1 0x1 ADD PUSH2 0x20E4 JUMP JUMPDEST SWAP1 SWAP2 POP DUP2 SWAP1 PUSH2 0x20D6 JUMP JUMPDEST ADD MLOAD SWAP1 POP DUP7 DUP1 PUSH2 0x1DC5 JUMP JUMPDEST PUSH0 DUP6 DUP2 MSTORE DUP9 DUP2 KECCAK256 SWAP4 POP PUSH1 0x1F NOT DUP6 AND SWAP1 JUMPDEST DUP10 DUP3 DUP3 LT PUSH2 0x2161 JUMPI POP POP SWAP1 DUP5 PUSH1 0x1 SWAP6 SWAP5 SWAP4 SWAP3 LT PUSH2 0x2149 JUMPI JUMPDEST POP POP POP DUP2 SHL ADD SWAP1 SSTORE PUSH2 0x1DD9 JUMP JUMPDEST ADD MLOAD PUSH0 NOT PUSH1 0xF8 DUP5 PUSH1 0x3 SHL AND SHR NOT AND SWAP1 SSTORE DUP7 DUP1 DUP1 PUSH2 0x213C JUMP JUMPDEST PUSH1 0x1 DUP6 SWAP7 DUP3 SWAP4 SWAP7 DUP7 ADD MLOAD DUP2 SSTORE ADD SWAP6 ADD SWAP4 ADD PUSH2 0x2124 JUMP JUMPDEST SWAP1 SWAP2 POP DUP4 PUSH0 MSTORE DUP7 PUSH0 KECCAK256 PUSH1 0x1F DUP5 ADD PUSH1 0x5 SHR DUP2 ADD SWAP2 DUP9 DUP6 LT PUSH2 0x21BB JUMPI JUMPDEST SWAP1 PUSH1 0x1F DUP6 SWAP5 SWAP4 SWAP3 ADD PUSH1 0x5 SHR ADD SWAP1 JUMPDEST DUP2 DUP2 LT PUSH2 0x21AD JUMPI POP PUSH2 0x1DB0 JUMP JUMPDEST PUSH0 DUP2 SSTORE DUP5 SWAP4 POP PUSH1 0x1 ADD PUSH2 0x21A0 JUMP JUMPDEST SWAP1 SWAP2 POP DUP2 SWAP1 PUSH2 0x2192 JUMP JUMPDEST ADD MLOAD SWAP1 POP DUP7 DUP1 PUSH2 0x1D6D JUMP JUMPDEST PUSH0 DUP6 DUP2 MSTORE DUP9 DUP2 KECCAK256 SWAP4 POP PUSH1 0x1F NOT DUP6 AND SWAP1 JUMPDEST DUP10 DUP3 DUP3 LT PUSH2 0x221D JUMPI POP POP SWAP1 DUP5 PUSH1 0x1 SWAP6 SWAP5 SWAP4 SWAP3 LT PUSH2 0x2205 JUMPI JUMPDEST POP POP POP DUP2 SHL ADD SWAP1 SSTORE PUSH2 0x1D81 JUMP JUMPDEST ADD MLOAD PUSH0 NOT PUSH1 0xF8 DUP5 PUSH1 0x3 SHL AND SHR NOT AND SWAP1 SSTORE DUP7 DUP1 DUP1 PUSH2 0x21F8 JUMP JUMPDEST PUSH1 0x1 DUP6 SWAP7 DUP3 SWAP4 SWAP7 DUP7 ADD MLOAD DUP2 SSTORE ADD SWAP6 ADD SWAP4 ADD PUSH2 0x21E0 JUMP JUMPDEST SWAP1 SWAP2 POP DUP4 PUSH0 MSTORE DUP7 PUSH0 KECCAK256 PUSH1 0x1F DUP5 ADD PUSH1 0x5 SHR DUP2 ADD SWAP2 DUP9 DUP6 LT PUSH2 0x2277 JUMPI JUMPDEST SWAP1 PUSH1 0x1F DUP6 SWAP5 SWAP4 SWAP3 ADD PUSH1 0x5 SHR ADD SWAP1 JUMPDEST DUP2 DUP2 LT PUSH2 0x2269 JUMPI POP PUSH2 0x1D58 JUMP JUMPDEST PUSH0 DUP2 SSTORE DUP5 SWAP4 POP PUSH1 0x1 ADD PUSH2 0x225C JUMP JUMPDEST SWAP1 SWAP2 POP DUP2 SWAP1 PUSH2 0x224E JUMP JUMPDEST ADD MLOAD SWAP1 POP DUP7 DUP1 PUSH2 0x1D15 JUMP JUMPDEST PUSH0 DUP6 DUP2 MSTORE DUP9 DUP2 KECCAK256 SWAP4 POP PUSH1 0x1F NOT DUP6 AND SWAP1 JUMPDEST DUP10 DUP3 DUP3 LT PUSH2 0x22D9 JUMPI POP POP SWAP1 DUP5 PUSH1 0x1 SWAP6 SWAP5 SWAP4 SWAP3 LT PUSH2 0x22C1 JUMPI JUMPDEST POP POP POP DUP2 SHL ADD SWAP1 SSTORE PUSH2 0x1D29 JUMP JUMPDEST ADD MLOAD PUSH0 NOT PUSH1 0xF8 DUP5 PUSH1 0x3 SHL AND SHR NOT AND SWAP1 SSTORE DUP7 DUP1 DUP1 PUSH2 0x22B4 JUMP JUMPDEST PUSH1 0x1 DUP6 SWAP7 DUP3 SWAP4 SWAP7 DUP7 ADD MLOAD DUP2 SSTORE ADD SWAP6 ADD SWAP4 ADD PUSH2 0x229C JUMP JUMPDEST SWAP1 SWAP2 POP DUP4 PUSH0 MSTORE DUP7 PUSH0 KECCAK256 PUSH1 0x1F DUP5 ADD PUSH1 0x5 SHR DUP2 ADD SWAP2 DUP9 DUP6 LT PUSH2 0x2333 JUMPI JUMPDEST SWAP1 PUSH1 0x1F DUP6 SWAP5 SWAP4 SWAP3 ADD PUSH1 0x5 SHR ADD SWAP1 JUMPDEST DUP2 DUP2 LT PUSH2 0x2325 JUMPI POP PUSH2 0x1D00 JUMP JUMPDEST PUSH0 DUP2 SSTORE DUP5 SWAP4 POP PUSH1 0x1 ADD PUSH2 0x2318 JUMP JUMPDEST SWAP1 SWAP2 POP DUP2 SWAP1 PUSH2 0x230A JUMP JUMPDEST ADD MLOAD SWAP1 POP DUP7 DUP1 PUSH2 0x1CBD JUMP JUMPDEST PUSH0 DUP6 DUP2 MSTORE DUP9 DUP2 KECCAK256 SWAP4 POP PUSH1 0x1F NOT DUP6 AND SWAP1 JUMPDEST DUP10 DUP3 DUP3 LT PUSH2 0x2395 JUMPI POP POP SWAP1 DUP5 PUSH1 0x1 SWAP6 SWAP5 SWAP4 SWAP3 LT PUSH2 0x237D JUMPI JUMPDEST POP POP POP DUP2 SHL ADD SWAP1 SSTORE PUSH2 0x1CD1 JUMP JUMPDEST ADD MLOAD PUSH0 NOT PUSH1 0xF8 DUP5 PUSH1 0x3 SHL AND SHR NOT AND SWAP1 SSTORE DUP7 DUP1 DUP1 PUSH2 0x2370 JUMP JUMPDEST PUSH1 0x1 DUP6 SWAP7 DUP3 SWAP4 SWAP7 DUP7 ADD MLOAD DUP2 SSTORE ADD SWAP6 ADD SWAP4 ADD PUSH2 0x2358 JUMP JUMPDEST SWAP1 SWAP2 POP DUP4 PUSH0 MSTORE DUP7 PUSH0 KECCAK256 PUSH1 0x1F DUP5 ADD PUSH1 0x5 SHR DUP2 ADD SWAP2 DUP9 DUP6 LT PUSH2 0x23EF JUMPI JUMPDEST SWAP1 PUSH1 0x1F DUP6 SWAP5 SWAP4 SWAP3 ADD PUSH1 0x5 SHR ADD SWAP1 JUMPDEST DUP2 DUP2 LT PUSH2 0x23E1 JUMPI POP PUSH2 0x1CA8 JUMP JUMPDEST PUSH0 DUP2 SSTORE DUP5 SWAP4 POP PUSH1 0x1 ADD PUSH2 0x23D4 JUMP JUMPDEST SWAP1 SWAP2 POP DUP2 SWAP1 PUSH2 0x23C6 JUMP JUMPDEST ADD MLOAD SWAP1 POP DUP6 DUP1 PUSH2 0x1C66 JUMP JUMPDEST PUSH1 0x1F NOT DUP3 AND SWAP5 DUP4 PUSH0 MSTORE DUP7 PUSH0 KECCAK256 SWAP2 PUSH0 JUMPDEST DUP9 DUP9 DUP3 LT PUSH2 0x244E JUMPI POP POP DUP4 PUSH1 0x1 SWAP6 SWAP7 SWAP8 LT PUSH2 0x2436 JUMPI JUMPDEST POP POP POP DUP2 SHL ADD DUP2 SSTORE PUSH2 0x1C7A JUMP JUMPDEST ADD MLOAD PUSH0 NOT PUSH1 0xF8 DUP5 PUSH1 0x3 SHL AND SHR NOT AND SWAP1 SSTORE DUP6 DUP1 DUP1 PUSH2 0x2429 JUMP JUMPDEST PUSH1 0x1 DUP5 SWAP6 DUP3 SWAP4 SWAP6 DUP6 ADD MLOAD DUP2 SSTORE ADD SWAP5 ADD SWAP3 ADD PUSH2 0x2413 JUMP JUMPDEST DUP3 PUSH0 MSTORE DUP6 PUSH0 KECCAK256 PUSH1 0x1F DUP4 ADD PUSH1 0x5 SHR DUP2 ADD SWAP2 DUP8 DUP5 LT PUSH2 0x249D JUMPI JUMPDEST PUSH1 0x1F ADD PUSH1 0x5 SHR ADD SWAP1 JUMPDEST DUP2 DUP2 LT PUSH2 0x2492 JUMPI POP PUSH2 0x1C4C JUMP JUMPDEST PUSH0 DUP2 SSTORE PUSH1 0x1 ADD PUSH2 0x2485 JUMP JUMPDEST SWAP1 SWAP2 POP DUP2 SWAP1 PUSH2 0x247C JUMP JUMPDEST ADD MLOAD SWAP1 POP DUP9 DUP1 PUSH2 0x1BF9 JUMP JUMPDEST PUSH1 0x1F SWAP6 SWAP5 SWAP4 SWAP3 SWAP2 SWAP6 NOT DUP3 AND SWAP6 DUP4 PUSH0 MSTORE DUP6 PUSH0 KECCAK256 SWAP2 PUSH0 JUMPDEST DUP9 DUP2 LT PUSH2 0x2501 JUMPI POP DUP4 PUSH1 0x1 SWAP6 SWAP7 SWAP8 SWAP9 LT PUSH2 0x24E9 JUMPI JUMPDEST POP POP POP DUP2 SHL ADD SWAP1 SSTORE PUSH2 0x1C0D JUMP JUMPDEST ADD MLOAD PUSH0 NOT PUSH1 0xF8 DUP5 PUSH1 0x3 SHL AND SHR NOT AND SWAP1 SSTORE DUP9 DUP1 DUP1 PUSH2 0x24DC JUMP JUMPDEST DUP3 DUP3 ADD MLOAD DUP5 SSTORE DUP10 SWAP8 PUSH1 0x1 SWAP1 SWAP5 ADD SWAP4 SWAP3 DUP4 ADD SWAP3 ADD PUSH2 0x24C7 JUMP JUMPDEST SWAP2 DUP1 SWAP5 POP PUSH0 SWAP6 SWAP2 SWAP4 SWAP6 MSTORE DUP7 PUSH0 KECCAK256 PUSH1 0x1F DUP5 ADD PUSH1 0x5 SHR DUP2 ADD SWAP2 DUP9 DUP6 LT PUSH2 0x2566 JUMPI JUMPDEST SWAP1 PUSH1 0x1F DUP10 SWAP7 SWAP5 SWAP8 SWAP6 SWAP4 SWAP3 ADD PUSH1 0x5 SHR ADD SWAP1 JUMPDEST DUP2 DUP2 LT PUSH2 0x2558 JUMPI POP POP DUP5 PUSH2 0x1BE0 JUMP JUMPDEST PUSH0 DUP2 SSTORE DUP9 SWAP6 POP PUSH1 0x1 ADD PUSH2 0x2549 JUMP JUMPDEST SWAP1 SWAP2 POP DUP2 SWAP1 PUSH2 0x2538 JUMP JUMPDEST ADD MLOAD SWAP1 POP DUP10 DUP1 PUSH2 0x1BA1 JUMP JUMPDEST SWAP1 PUSH1 0x1F NOT DUP4 AND SWAP2 DUP5 PUSH0 MSTORE DUP6 PUSH0 KECCAK256 SWAP3 PUSH0 JUMPDEST DUP8 DUP3 DUP3 LT PUSH2 0x25CB JUMPI POP POP SWAP2 PUSH1 0x1 SWAP6 SWAP5 SWAP3 SWAP2 DUP4 DUP8 SWAP6 SWAP4 LT PUSH2 0x25B3 JUMPI JUMPDEST POP POP POP DUP2 SHL ADD DUP2 SSTORE PUSH2 0x1BB4 JUMP JUMPDEST ADD MLOAD PUSH0 NOT PUSH1 0xF8 DUP5 PUSH1 0x3 SHL AND SHR NOT AND SWAP1 SSTORE DUP10 DUP1 DUP1 PUSH2 0x25A6 JUMP JUMPDEST PUSH1 0x1 DUP6 SWAP7 DUP3 SWAP4 SWAP7 DUP7 ADD MLOAD DUP2 SSTORE ADD SWAP6 ADD SWAP4 ADD PUSH2 0x258B JUMP JUMPDEST SWAP1 SWAP2 SWAP3 DUP1 SWAP5 POP PUSH0 MSTORE DUP8 PUSH0 KECCAK256 PUSH1 0x1F DUP5 ADD PUSH1 0x5 SHR DUP2 ADD SWAP2 DUP10 DUP6 LT PUSH2 0x2629 JUMPI JUMPDEST SWAP1 PUSH1 0x1F DUP11 SWAP7 SWAP6 SWAP5 SWAP4 SWAP3 ADD PUSH1 0x5 SHR ADD SWAP1 JUMPDEST DUP2 DUP2 LT PUSH2 0x261B JUMPI POP PUSH2 0x1B86 JUMP JUMPDEST PUSH0 DUP2 SSTORE DUP10 SWAP6 POP PUSH1 0x1 ADD PUSH2 0x260E JUMP JUMPDEST SWAP1 SWAP2 POP DUP2 SWAP1 PUSH2 0x25FE JUMP JUMPDEST ADD MLOAD SWAP1 POP DUP12 DUP1 PUSH2 0x1B2E JUMP JUMPDEST SWAP1 PUSH1 0x1F NOT DUP4 AND SWAP2 DUP5 PUSH0 MSTORE DUP11 PUSH0 KECCAK256 SWAP3 PUSH0 JUMPDEST DUP13 DUP3 DUP3 LT PUSH2 0x2691 JUMPI POP POP SWAP3 PUSH1 0x1 SWAP3 DUP6 SWAP3 PUSH1 0x5 SWAP9 SWAP7 PUSH1 0xC0 SWAP9 SWAP7 LT PUSH2 0x2679 JUMPI JUMPDEST POP POP POP DUP2 SHL ADD SWAP1 SSTORE PUSH2 0x1B42 JUMP JUMPDEST ADD MLOAD PUSH0 NOT PUSH1 0xF8 DUP5 PUSH1 0x3 SHL AND SHR NOT AND SWAP1 SSTORE DUP12 DUP1 DUP1 PUSH2 0x266C JUMP JUMPDEST PUSH1 0x1 DUP6 SWAP7 DUP3 SWAP4 SWAP7 DUP7 ADD MLOAD DUP2 SSTORE ADD SWAP6 ADD SWAP4 ADD PUSH2 0x264E JUMP JUMPDEST DUP4 PUSH0 MSTORE DUP10 PUSH0 KECCAK256 PUSH1 0x1F DUP5 ADD PUSH1 0x5 SHR DUP2 ADD SWAP2 DUP12 DUP6 LT PUSH2 0x26E0 JUMPI JUMPDEST PUSH1 0x1F ADD PUSH1 0x5 SHR ADD SWAP1 JUMPDEST DUP2 DUP2 LT PUSH2 0x26D5 JUMPI POP PUSH2 0x1B0F JUMP JUMPDEST PUSH0 DUP2 SSTORE PUSH1 0x1 ADD PUSH2 0x26C8 JUMP JUMPDEST SWAP1 SWAP2 POP DUP2 SWAP1 PUSH2 0x26BF JUMP JUMPDEST PUSH4 0x4E487B71 PUSH1 0xE0 SHL PUSH0 MSTORE PUSH1 0x21 PUSH1 0x4 MSTORE PUSH1 0x24 PUSH0 REVERT JUMPDEST ADD MLOAD SWAP1 POP DUP10 DUP1 PUSH2 0x1A96 JUMP JUMPDEST PUSH0 DUP6 DUP2 MSTORE DUP12 DUP2 KECCAK256 SWAP4 POP PUSH1 0x1F NOT DUP6 AND SWAP1 JUMPDEST DUP13 DUP3 DUP3 LT PUSH2 0x2756 JUMPI POP POP SWAP1 DUP5 PUSH1 0x1 SWAP6 SWAP5 SWAP4 SWAP3 LT PUSH2 0x273E JUMPI JUMPDEST POP POP POP DUP2 SHL ADD SWAP1 SSTORE PUSH2 0x1AAA JUMP JUMPDEST ADD MLOAD PUSH0 NOT PUSH1 0xF8 DUP5 PUSH1 0x3 SHL AND SHR NOT AND SWAP1 SSTORE DUP10 DUP1 DUP1 PUSH2 0x2731 JUMP JUMPDEST PUSH1 0x1 DUP6 SWAP7 DUP3 SWAP4 SWAP7 DUP7 ADD MLOAD DUP2 SSTORE ADD SWAP6 ADD SWAP4 ADD PUSH2 0x2719 JUMP JUMPDEST SWAP1 SWAP2 POP DUP4 PUSH0 MSTORE DUP10 PUSH0 KECCAK256 PUSH1 0x1F DUP5 ADD PUSH1 0x5 SHR DUP2 ADD SWAP2 DUP12 DUP6 LT PUSH2 0x27B0 JUMPI JUMPDEST SWAP1 PUSH1 0x1F DUP6 SWAP5 SWAP4 SWAP3 ADD PUSH1 0x5 SHR ADD SWAP1 JUMPDEST DUP2 DUP2 LT PUSH2 0x27A2 JUMPI POP PUSH2 0x1A81 JUMP JUMPDEST PUSH0 DUP2 SSTORE DUP5 SWAP4 POP PUSH1 0x1 ADD PUSH2 0x2795 JUMP JUMPDEST SWAP1 SWAP2 POP DUP2 SWAP1 PUSH2 0x2787 JUMP JUMPDEST ADD MLOAD SWAP1 POP DUP9 DUP1 PUSH2 0x1A3B JUMP JUMPDEST PUSH1 0x1 DUP7 ADD PUSH0 SWAP1 DUP2 MSTORE DUP11 DUP2 KECCAK256 SWAP4 POP PUSH1 0x1F NOT DUP6 AND SWAP1 JUMPDEST DUP12 DUP3 DUP3 LT PUSH2 0x2819 JUMPI POP POP SWAP1 DUP5 PUSH1 0x1 SWAP6 SWAP5 SWAP4 SWAP3 LT PUSH2 0x2801 JUMPI JUMPDEST POP POP POP DUP2 SHL ADD PUSH1 0x1 DUP4 ADD SSTORE PUSH2 0x1A52 JUMP JUMPDEST ADD MLOAD PUSH0 NOT PUSH1 0xF8 DUP5 PUSH1 0x3 SHL AND SHR NOT AND SWAP1 SSTORE DUP9 DUP1 DUP1 PUSH2 0x27F1 JUMP JUMPDEST PUSH1 0x1 DUP6 SWAP7 DUP3 SWAP4 SWAP7 DUP7 ADD MLOAD DUP2 SSTORE ADD SWAP6 ADD SWAP4 ADD PUSH2 0x27D9 JUMP JUMPDEST SWAP1 SWAP2 POP PUSH1 0x1 DUP6 ADD PUSH0 MSTORE DUP9 PUSH0 KECCAK256 PUSH1 0x1F DUP5 ADD PUSH1 0x5 SHR DUP2 ADD SWAP2 DUP11 DUP6 LT PUSH2 0x2876 JUMPI JUMPDEST SWAP1 PUSH1 0x1F DUP6 SWAP5 SWAP4 SWAP3 ADD PUSH1 0x5 SHR ADD SWAP1 JUMPDEST DUP2 DUP2 LT PUSH2 0x2868 JUMPI POP PUSH2 0x1A26 JUMP JUMPDEST PUSH0 DUP2 SSTORE DUP5 SWAP4 POP PUSH1 0x1 ADD PUSH2 0x285B JUMP JUMPDEST SWAP1 SWAP2 POP DUP2 SWAP1 PUSH2 0x284D JUMP JUMPDEST ADD MLOAD SWAP1 POP DUP10 DUP1 PUSH2 0x19E8 JUMP JUMPDEST PUSH0 DUP8 DUP2 MSTORE DUP12 DUP2 KECCAK256 SWAP4 POP PUSH1 0x1F NOT DUP6 AND SWAP1 JUMPDEST DUP13 DUP3 DUP3 LT PUSH2 0x28D8 JUMPI POP POP SWAP1 DUP5 PUSH1 0x1 SWAP6 SWAP5 SWAP4 SWAP3 LT PUSH2 0x28C0 JUMPI JUMPDEST POP POP POP DUP2 SHL ADD DUP4 SSTORE PUSH2 0x19FC JUMP JUMPDEST ADD MLOAD PUSH0 NOT PUSH1 0xF8 DUP5 PUSH1 0x3 SHL AND SHR NOT AND SWAP1 SSTORE DUP10 DUP1 DUP1 PUSH2 0x28B3 JUMP JUMPDEST PUSH1 0x1 DUP6 SWAP7 DUP3 SWAP4 SWAP7 DUP7 ADD MLOAD DUP2 SSTORE ADD SWAP6 ADD SWAP4 ADD PUSH2 0x289B JUMP JUMPDEST SWAP1 SWAP2 POP DUP6 PUSH0 MSTORE DUP10 PUSH0 KECCAK256 PUSH1 0x1F DUP5 ADD PUSH1 0x5 SHR DUP2 ADD SWAP2 DUP12 DUP6 LT PUSH2 0x2932 JUMPI JUMPDEST SWAP1 PUSH1 0x1F DUP6 SWAP5 SWAP4 SWAP3 ADD PUSH1 0x5 SHR ADD SWAP1 JUMPDEST DUP2 DUP2 LT PUSH2 0x2924 JUMPI POP PUSH2 0x19D3 JUMP JUMPDEST PUSH0 DUP2 SSTORE DUP5 SWAP4 POP PUSH1 0x1 ADD PUSH2 0x2917 JUMP JUMPDEST SWAP1 SWAP2 POP DUP2 SWAP1 PUSH2 0x2909 JUMP JUMPDEST PUSH4 0x4E487B71 PUSH1 0xE0 SHL PUSH0 MSTORE PUSH0 PUSH1 0x4 MSTORE PUSH1 0x24 PUSH0 REVERT JUMPDEST ADD MLOAD SWAP1 POP DUP15 DUP1 PUSH2 0x190B JUMP JUMPDEST PUSH0 DUP5 DUP2 MSTORE DUP13 DUP2 KECCAK256 SWAP3 SWAP2 SWAP1 PUSH1 0x1F NOT DUP6 AND SWAP1 DUP15 JUMPDEST DUP3 DUP3 LT PUSH2 0x29AF JUMPI POP POP SWAP4 PUSH1 0xFF SWAP7 SWAP4 PUSH1 0x2 SWAP7 SWAP4 PUSH1 0x1 SWAP4 DUP4 DUP11 SWAP9 LT PUSH2 0x2997 JUMPI JUMPDEST POP POP POP DUP2 SHL ADD SWAP1 SSTORE PUSH2 0x191F JUMP JUMPDEST ADD MLOAD PUSH0 NOT PUSH1 0xF8 DUP5 PUSH1 0x3 SHL AND SHR NOT AND SWAP1 SSTORE DUP15 DUP1 DUP1 PUSH2 0x298A JUMP JUMPDEST DUP1 PUSH1 0x1 DUP7 SWAP8 DUP3 SWAP5 SWAP8 DUP8 ADD MLOAD DUP2 SSTORE ADD SWAP7 ADD SWAP5 ADD SWAP1 PUSH2 0x296C JUMP JUMPDEST DUP4 PUSH0 MSTORE DUP12 PUSH0 KECCAK256 PUSH1 0x1F DUP5 ADD PUSH1 0x5 SHR DUP2 ADD SWAP2 DUP14 DUP6 LT PUSH2 0x2A00 JUMPI JUMPDEST PUSH1 0x1F ADD PUSH1 0x5 SHR ADD SWAP1 JUMPDEST DUP2 DUP2 LT PUSH2 0x29F5 JUMPI POP PUSH2 0x18EA JUMP JUMPDEST PUSH0 DUP2 SSTORE PUSH1 0x1 ADD PUSH2 0x29E8 JUMP JUMPDEST SWAP1 SWAP2 POP DUP2 SWAP1 PUSH2 0x29DF JUMP JUMPDEST ADD MLOAD SWAP1 POP DUP12 DUP1 PUSH2 0x18AD JUMP JUMPDEST PUSH0 DUP8 DUP2 MSTORE DUP14 DUP2 KECCAK256 SWAP4 POP PUSH1 0x1F NOT DUP6 AND SWAP1 DUP15 JUMPDEST DUP3 DUP3 LT PUSH2 0x2A62 JUMPI POP POP SWAP1 DUP5 PUSH1 0x1 SWAP6 SWAP5 SWAP4 SWAP3 LT PUSH2 0x2A4A JUMPI JUMPDEST POP POP POP DUP2 SHL ADD DUP4 SSTORE PUSH2 0x18C1 JUMP JUMPDEST ADD MLOAD PUSH0 NOT PUSH1 0xF8 DUP5 PUSH1 0x3 SHL AND SHR NOT AND SWAP1 SSTORE DUP12 DUP1 DUP1 PUSH2 0x2A3D JUMP JUMPDEST DUP1 PUSH1 0x1 DUP7 SWAP8 DUP3 SWAP5 SWAP8 DUP8 ADD MLOAD DUP2 SSTORE ADD SWAP7 ADD SWAP5 ADD SWAP1 PUSH2 0x2A26 JUMP JUMPDEST SWAP1 SWAP2 POP DUP6 PUSH0 MSTORE DUP12 PUSH0 KECCAK256 PUSH1 0x1F DUP5 ADD PUSH1 0x5 SHR DUP2 ADD SWAP2 DUP14 DUP6 LT PUSH2 0x2ABE JUMPI JUMPDEST SWAP1 PUSH1 0x1F DUP6 SWAP5 SWAP4 SWAP3 ADD PUSH1 0x5 SHR ADD SWAP1 JUMPDEST DUP2 DUP2 LT PUSH2 0x2AB0 JUMPI POP PUSH2 0x1898 JUMP JUMPDEST PUSH0 DUP2 SSTORE DUP5 SWAP4 POP PUSH1 0x1 ADD PUSH2 0x2AA3 JUMP JUMPDEST SWAP1 SWAP2 POP DUP2 SWAP1 PUSH2 0x2A95 JUMP JUMPDEST CALLVALUE PUSH2 0x1BD JUMPI PUSH1 0x20 CALLDATASIZE PUSH1 0x3 NOT ADD SLT PUSH2 0x1BD JUMPI PUSH1 0x4 CALLDATALOAD PUSH1 0x1 PUSH1 0x1 PUSH1 0x40 SHL SUB DUP2 GT PUSH2 0x1BD JUMPI PUSH2 0x2AF8 SWAP1 CALLDATASIZE SWAP1 PUSH1 0x4 ADD PUSH2 0x3584 JUMP JUMPDEST PUSH1 0x40 MLOAD DUP2 DUP2 SWAP3 MLOAD PUSH1 0x20 DUP2 SWAP3 ADD DUP4 MCOPY DUP2 ADD PUSH1 0x5 DUP2 MSTORE SUB PUSH1 0x20 ADD SWAP1 KECCAK256 PUSH2 0x2B1B DUP2 PUSH2 0x3689 JUMP JUMPDEST PUSH2 0x2B27 PUSH1 0x1 DUP4 ADD PUSH2 0x3689 JUMP JUMPDEST SWAP2 PUSH2 0x2B34 PUSH1 0x2 DUP3 ADD PUSH2 0x3689 JUMP JUMPDEST SWAP1 PUSH2 0x2B41 PUSH1 0x3 DUP3 ADD PUSH2 0x3689 JUMP JUMPDEST PUSH2 0x2B4D PUSH1 0x4 DUP4 ADD PUSH2 0x3689 JUMP JUMPDEST PUSH2 0x2B59 PUSH1 0x5 DUP5 ADD PUSH2 0x3689 JUMP JUMPDEST SWAP2 PUSH2 0x2B66 PUSH1 0x6 DUP6 ADD PUSH2 0x3689 JUMP JUMPDEST SWAP4 PUSH1 0x7 ADD PUSH2 0x2B73 SWAP1 PUSH2 0x3689 JUMP JUMPDEST SWAP5 PUSH1 0x40 MLOAD SWAP8 DUP9 SWAP8 PUSH2 0x100 DUP10 MSTORE PUSH2 0x100 DUP10 ADD PUSH2 0x2B8D SWAP2 PUSH2 0x35D9 JUMP JUMPDEST DUP9 DUP2 SUB PUSH1 0x20 DUP11 ADD MSTORE PUSH2 0x2B9E SWAP2 PUSH2 0x35D9 JUMP JUMPDEST DUP8 DUP2 SUB PUSH1 0x40 DUP10 ADD MSTORE PUSH2 0x2BAF SWAP2 PUSH2 0x35D9 JUMP JUMPDEST DUP7 DUP2 SUB PUSH1 0x60 DUP9 ADD MSTORE PUSH2 0x2BC0 SWAP2 PUSH2 0x35D9 JUMP JUMPDEST DUP6 DUP2 SUB PUSH1 0x80 DUP8 ADD MSTORE PUSH2 0x2BD1 SWAP2 PUSH2 0x35D9 JUMP JUMPDEST DUP5 DUP2 SUB PUSH1 0xA0 DUP7 ADD MSTORE PUSH2 0x2BE2 SWAP2 PUSH2 0x35D9 JUMP JUMPDEST DUP4 DUP2 SUB PUSH1 0xC0 DUP6 ADD MSTORE PUSH2 0x2BF3 SWAP2 PUSH2 0x35D9 JUMP JUMPDEST DUP3 DUP2 SUB PUSH1 0xE0 DUP5 ADD MSTORE PUSH2 0x224 SWAP2 PUSH2 0x35D9 JUMP JUMPDEST CALLVALUE PUSH2 0x1BD JUMPI PUSH1 0x20 CALLDATASIZE PUSH1 0x3 NOT ADD SLT PUSH2 0x1BD JUMPI PUSH1 0x4 CALLDATALOAD PUSH1 0x2 SLOAD DUP2 LT ISZERO PUSH2 0x1BD JUMPI PUSH2 0x2C2E PUSH2 0x2C8B SWAP2 PUSH2 0x3775 JUMP JUMPDEST POP PUSH2 0x2C38 DUP2 PUSH2 0x3689 JUMP JUMPDEST SWAP1 PUSH2 0x2CCE PUSH2 0x2C48 PUSH1 0x1 DUP4 ADD PUSH2 0x3689 JUMP JUMPDEST SWAP2 PUSH2 0x2C55 PUSH1 0x2 DUP3 ADD PUSH2 0x3689 JUMP JUMPDEST SWAP1 PUSH2 0x2CC1 PUSH2 0x2CA7 PUSH1 0x3 DUP4 ADD SLOAD SWAP4 PUSH2 0x2C99 PUSH1 0x5 PUSH2 0x2C73 PUSH1 0x4 DUP8 ADD PUSH2 0x3689 JUMP JUMPDEST SWAP6 ADD SLOAD SWAP8 PUSH1 0x40 MLOAD SWAP11 DUP12 SWAP11 PUSH1 0xE0 DUP13 MSTORE PUSH1 0xE0 DUP13 ADD SWAP1 PUSH2 0x35D9 JUMP JUMPDEST SWAP1 DUP11 DUP3 SUB PUSH1 0x20 DUP13 ADD MSTORE PUSH2 0x35D9 JUMP JUMPDEST SWAP1 DUP9 DUP3 SUB PUSH1 0x40 DUP11 ADD MSTORE PUSH2 0x35D9 JUMP JUMPDEST SWAP3 PUSH1 0xFF DUP2 AND PUSH1 0x60 DUP9 ADD MSTORE PUSH1 0xFF PUSH1 0x80 DUP9 ADD SWAP2 PUSH1 0x8 SHR AND PUSH2 0x3768 JUMP JUMPDEST DUP5 DUP3 SUB PUSH1 0xA0 DUP7 ADD MSTORE PUSH2 0x35D9 JUMP JUMPDEST SWAP1 PUSH1 0xC0 DUP4 ADD MSTORE SUB SWAP1 RETURN JUMPDEST CALLVALUE PUSH2 0x1BD JUMPI PUSH1 0x20 CALLDATASIZE PUSH1 0x3 NOT ADD SLT PUSH2 0x1BD JUMPI PUSH1 0x4 CALLDATALOAD PUSH1 0x1 PUSH1 0x1 PUSH1 0x40 SHL SUB DUP2 GT PUSH2 0x1BD JUMPI PUSH1 0x20 DUP1 PUSH2 0x2D0E PUSH2 0x2D87 SWAP4 CALLDATASIZE SWAP1 PUSH1 0x4 ADD PUSH2 0x3584 JUMP JUMPDEST PUSH1 0x40 MLOAD SWAP3 DUP2 DUP5 SWAP3 MLOAD SWAP2 DUP3 SWAP2 ADD DUP4 MCOPY DUP2 ADD PUSH0 DUP2 MSTORE SUB ADD SWAP1 KECCAK256 PUSH2 0x224 PUSH1 0xFF DUP3 SLOAD AND SWAP2 PUSH2 0x2DC7 PUSH1 0x1 DUP3 ADD SLOAD SWAP2 PUSH2 0x2DB8 PUSH1 0x2 DUP3 ADD SLOAD PUSH1 0x3 DUP4 ADD SLOAD PUSH1 0x4 DUP5 ADD SLOAD PUSH1 0x5 DUP6 ADD SLOAD SWAP1 PUSH1 0x6 DUP7 ADD SLOAD SWAP3 PUSH2 0x2D61 PUSH1 0x7 DUP9 ADD PUSH2 0x3729 JUMP JUMPDEST SWAP5 PUSH2 0x2D7A PUSH1 0xD PUSH2 0x2D73 PUSH1 0xA DUP12 ADD PUSH2 0x3729 JUMP JUMPDEST SWAP10 ADD PUSH2 0x3689 JUMP JUMPDEST SWAP10 PUSH1 0x40 MLOAD SWAP14 DUP15 DUP1 SWAP15 PUSH2 0x3768 JUMP JUMPDEST PUSH1 0x20 DUP14 ADD MSTORE PUSH1 0x40 DUP13 ADD MSTORE PUSH1 0x60 DUP12 ADD MSTORE PUSH1 0x80 DUP11 ADD MSTORE PUSH1 0xA0 DUP10 ADD MSTORE PUSH1 0xC0 DUP9 ADD MSTORE PUSH2 0x140 PUSH1 0xE0 DUP9 ADD MSTORE PUSH2 0x140 DUP8 ADD SWAP1 PUSH2 0x35FD JUMP JUMPDEST SWAP1 DUP6 DUP3 SUB PUSH2 0x100 DUP8 ADD MSTORE PUSH2 0x35FD JUMP JUMPDEST SWAP1 DUP4 DUP3 SUB PUSH2 0x120 DUP6 ADD MSTORE PUSH2 0x35D9 JUMP JUMPDEST CALLVALUE PUSH2 0x1BD JUMPI PUSH1 0x60 CALLDATASIZE PUSH1 0x3 NOT ADD SLT PUSH2 0x1BD JUMPI PUSH1 0x4 CALLDATALOAD PUSH1 0x1 PUSH1 0x1 PUSH1 0x40 SHL SUB DUP2 GT PUSH2 0x1BD JUMPI PUSH2 0x2E06 SWAP1 CALLDATASIZE SWAP1 PUSH1 0x4 ADD PUSH2 0x3584 JUMP JUMPDEST PUSH1 0x24 CALLDATALOAD PUSH1 0x1 PUSH1 0x1 PUSH1 0x40 SHL SUB DUP2 GT PUSH2 0x1BD JUMPI PUSH2 0x2E25 SWAP1 CALLDATASIZE SWAP1 PUSH1 0x4 ADD PUSH2 0x3584 JUMP JUMPDEST SWAP1 PUSH1 0x44 CALLDATALOAD PUSH1 0x1 PUSH1 0x1 PUSH1 0xA0 SHL SUB DUP2 AND DUP2 SUB PUSH2 0x1BD JUMPI PUSH2 0x224 SWAP3 PUSH2 0x2E46 SWAP3 PUSH2 0x3CBE JUMP JUMPDEST PUSH1 0x40 MLOAD SWAP2 DUP3 SWAP2 PUSH1 0x20 DUP4 MSTORE PUSH1 0x20 DUP4 ADD SWAP1 PUSH2 0x35FD JUMP JUMPDEST CALLVALUE PUSH2 0x1BD JUMPI PUSH1 0xC0 CALLDATASIZE PUSH1 0x3 NOT ADD SLT PUSH2 0x1BD JUMPI PUSH1 0x4 CALLDATALOAD PUSH1 0x1 PUSH1 0x1 PUSH1 0x40 SHL SUB DUP2 GT PUSH2 0x1BD JUMPI PUSH2 0x2E8A SWAP1 CALLDATASIZE SWAP1 PUSH1 0x4 ADD PUSH2 0x3584 JUMP JUMPDEST PUSH1 0x24 CALLDATALOAD PUSH1 0x1 PUSH1 0x1 PUSH1 0x40 SHL SUB DUP2 GT PUSH2 0x1BD JUMPI PUSH2 0x2EA9 SWAP1 CALLDATASIZE SWAP1 PUSH1 0x4 ADD PUSH2 0x3584 JUMP JUMPDEST PUSH1 0x44 CALLDATALOAD PUSH1 0x1 PUSH1 0x1 PUSH1 0x40 SHL SUB DUP2 GT PUSH2 0x1BD JUMPI PUSH2 0x2EC8 SWAP1 CALLDATASIZE SWAP1 PUSH1 0x4 ADD PUSH2 0x3584 JUMP JUMPDEST PUSH1 0x64 CALLDATALOAD PUSH1 0x1 PUSH1 0x1 PUSH1 0x40 SHL SUB DUP2 GT PUSH2 0x1BD JUMPI PUSH2 0x2EE7 SWAP1 CALLDATASIZE SWAP1 PUSH1 0x4 ADD PUSH2 0x3584 JUMP JUMPDEST PUSH2 0x2EEF PUSH2 0x363B JUMP JUMPDEST PUSH1 0xA4 CALLDATALOAD SWAP2 PUSH1 0x1 PUSH1 0x1 PUSH1 0x40 SHL SUB DUP4 GT PUSH2 0x1BD JUMPI PUSH2 0x2F12 PUSH2 0x2F18 SWAP4 CALLDATASIZE SWAP1 PUSH1 0x4 ADD PUSH2 0x3584 JUMP JUMPDEST SWAP4 PUSH2 0x3CBE JUMP JUMPDEST PUSH1 0x40 MLOAD SWAP1 PUSH1 0x1 DUP5 MLOAD SWAP3 PUSH1 0x20 DUP2 DUP2 DUP9 ADD SWAP6 DUP1 DUP8 DUP4 MCOPY DUP2 ADD PUSH1 0x3 DUP2 MSTORE SUB ADD SWAP1 KECCAK256 ADD DUP6 MLOAD PUSH1 0x1 PUSH1 0x1 PUSH1 0x40 SHL SUB DUP2 GT PUSH2 0x8B2 JUMPI PUSH2 0x2F51 DUP3 SLOAD PUSH2 0x3651 JUMP JUMPDEST PUSH1 0x1F DUP2 GT PUSH2 0x32C3 JUMPI JUMPDEST POP PUSH1 0x20 PUSH1 0x1F DUP3 GT PUSH1 0x1 EQ PUSH2 0x325C JUMPI SWAP1 DUP1 PUSH2 0x2F91 SWAP5 SWAP4 SWAP3 PUSH0 SWAP2 PUSH2 0x3251 JUMPI JUMPDEST POP DUP2 PUSH1 0x1 SHL SWAP2 PUSH0 NOT SWAP1 PUSH1 0x3 SHL SHR NOT AND OR SWAP1 SSTORE JUMPDEST DUP4 DUP6 PUSH2 0x436F JUMP JUMPDEST PUSH1 0x2 SLOAD SWAP3 PUSH0 JUMPDEST DUP5 DUP2 LT PUSH2 0x2FA0 JUMPI STOP JUMPDEST PUSH2 0x2FA9 DUP2 PUSH2 0x3775 JUMP JUMPDEST POP PUSH1 0x40 MLOAD PUSH2 0x2FBF DUP2 PUSH2 0x3E3 PUSH1 0x20 DUP3 ADD DUP1 SWAP6 PUSH2 0x3C54 JUMP JUMPDEST MLOAD SWAP1 KECCAK256 PUSH1 0x40 MLOAD PUSH1 0x20 DUP2 ADD SWAP1 PUSH2 0x2FEC PUSH1 0x20 DUP3 DUP8 MLOAD DUP1 DUP11 DUP8 MCOPY DUP2 ADD PUSH0 DUP4 DUP3 ADD MSTORE SUB ADD PUSH1 0x1F NOT DUP2 ADD DUP4 MSTORE DUP3 PUSH2 0x3563 JUMP JUMPDEST MLOAD SWAP1 KECCAK256 EQ PUSH2 0x2FFD JUMPI JUMPDEST PUSH1 0x1 ADD PUSH2 0x2F97 JUMP JUMPDEST PUSH1 0x1 PUSH2 0x3008 DUP3 PUSH2 0x3775 JUMP JUMPDEST POP ADD DUP7 MLOAD PUSH1 0x1 PUSH1 0x1 PUSH1 0x40 SHL SUB DUP2 GT PUSH2 0x8B2 JUMPI PUSH2 0x3024 DUP3 SLOAD PUSH2 0x3651 JUMP JUMPDEST PUSH1 0x1F DUP2 GT PUSH2 0x320C JUMPI JUMPDEST POP DUP1 PUSH1 0x20 PUSH1 0x1F DUP3 GT PUSH1 0x1 EQ PUSH2 0x31A9 JUMPI PUSH0 SWAP2 PUSH2 0x319E JUMPI JUMPDEST POP DUP2 PUSH1 0x1 SHL SWAP2 PUSH0 NOT SWAP1 PUSH1 0x3 SHL SHR NOT AND OR SWAP1 SSTORE JUMPDEST PUSH1 0x3 PUSH2 0x3061 DUP3 PUSH2 0x3775 JUMP JUMPDEST POP ADD DUP1 SLOAD PUSH2 0xFF00 NOT AND PUSH2 0x100 OR SWAP1 SSTORE PUSH1 0x4 PUSH2 0x307B DUP3 PUSH2 0x3775 JUMP JUMPDEST POP ADD DUP5 MLOAD PUSH1 0x1 PUSH1 0x1 PUSH1 0x40 SHL SUB DUP2 GT PUSH2 0x8B2 JUMPI PUSH2 0x3097 DUP3 SLOAD PUSH2 0x3651 JUMP JUMPDEST PUSH1 0x1F DUP2 GT PUSH2 0x3159 JUMPI JUMPDEST POP DUP1 PUSH1 0x20 PUSH1 0x1F DUP3 GT PUSH1 0x1 EQ PUSH2 0x30F8 JUMPI PUSH0 SWAP2 PUSH2 0x30ED JUMPI JUMPDEST POP DUP2 PUSH1 0x1 SHL SWAP2 PUSH0 NOT SWAP1 PUSH1 0x3 SHL SHR NOT AND OR SWAP1 SSTORE JUMPDEST PUSH1 0x82 TIMESTAMP ADD SWAP1 DUP2 TIMESTAMP GT PUSH2 0x102D JUMPI PUSH1 0x1 SWAP2 PUSH1 0x5 PUSH2 0x30E3 DUP4 PUSH2 0x3775 JUMP JUMPDEST POP ADD SSTORE SWAP1 POP PUSH2 0x2FF5 JUMP JUMPDEST SWAP1 POP DUP7 ADD MLOAD DUP10 PUSH2 0x30B6 JUMP JUMPDEST PUSH0 DUP5 DUP2 MSTORE DUP2 DUP2 KECCAK256 SWAP3 POP PUSH1 0x1F NOT DUP5 AND SWAP1 JUMPDEST DUP2 DUP2 LT PUSH2 0x3141 JUMPI POP SWAP1 DUP4 PUSH1 0x1 SWAP5 SWAP4 SWAP3 LT PUSH2 0x3129 JUMPI JUMPDEST POP POP DUP2 SHL ADD SWAP1 SSTORE PUSH2 0x30C9 JUMP JUMPDEST DUP9 ADD MLOAD PUSH0 NOT PUSH1 0xF8 DUP5 PUSH1 0x3 SHL AND SHR NOT AND SWAP1 SSTORE DUP10 DUP1 PUSH2 0x311D JUMP JUMPDEST SWAP2 SWAP3 PUSH1 0x20 PUSH1 0x1 DUP2 SWAP3 DUP7 DUP14 ADD MLOAD DUP2 SSTORE ADD SWAP5 ADD SWAP3 ADD PUSH2 0x3108 JUMP JUMPDEST DUP3 PUSH0 MSTORE PUSH1 0x20 PUSH0 KECCAK256 PUSH1 0x1F DUP4 ADD PUSH1 0x5 SHR DUP2 ADD SWAP2 PUSH1 0x20 DUP5 LT PUSH2 0x3194 JUMPI JUMPDEST PUSH1 0x1F ADD PUSH1 0x5 SHR ADD SWAP1 JUMPDEST DUP2 DUP2 LT PUSH2 0x3189 JUMPI POP PUSH2 0x30A0 JUMP JUMPDEST PUSH0 DUP2 SSTORE PUSH1 0x1 ADD PUSH2 0x317C JUMP JUMPDEST SWAP1 SWAP2 POP DUP2 SWAP1 PUSH2 0x3173 JUMP JUMPDEST SWAP1 POP DUP9 ADD MLOAD DUP10 PUSH2 0x3043 JUMP JUMPDEST PUSH0 DUP5 DUP2 MSTORE DUP2 DUP2 KECCAK256 SWAP3 POP PUSH1 0x1F NOT DUP5 AND SWAP1 JUMPDEST DUP12 DUP3 DUP3 LT PUSH2 0x31F4 JUMPI POP POP SWAP1 DUP4 PUSH1 0x1 SWAP5 SWAP4 SWAP3 LT PUSH2 0x31DC JUMPI JUMPDEST POP POP DUP2 SHL ADD SWAP1 SSTORE PUSH2 0x3056 JUMP JUMPDEST DUP11 ADD MLOAD PUSH0 NOT PUSH1 0xF8 DUP5 PUSH1 0x3 SHL AND SHR NOT AND SWAP1 SSTORE DUP10 DUP1 PUSH2 0x31D0 JUMP JUMPDEST PUSH1 0x1 DUP5 SWAP6 PUSH1 0x20 SWAP4 SWAP6 DUP5 SWAP4 ADD MLOAD DUP2 SSTORE ADD SWAP5 ADD SWAP3 ADD PUSH2 0x31B9 JUMP JUMPDEST DUP3 PUSH0 MSTORE PUSH1 0x20 PUSH0 KECCAK256 PUSH1 0x1F DUP4 ADD PUSH1 0x5 SHR DUP2 ADD SWAP2 PUSH1 0x20 DUP5 LT PUSH2 0x3247 JUMPI JUMPDEST PUSH1 0x1F ADD PUSH1 0x5 SHR ADD SWAP1 JUMPDEST DUP2 DUP2 LT PUSH2 0x323C JUMPI POP PUSH2 0x302D JUMP JUMPDEST PUSH0 DUP2 SSTORE PUSH1 0x1 ADD PUSH2 0x322F JUMP JUMPDEST SWAP1 SWAP2 POP DUP2 SWAP1 PUSH2 0x3226 JUMP JUMPDEST SWAP1 POP DUP9 ADD MLOAD DUP10 PUSH2 0x2F77 JUMP JUMPDEST PUSH1 0x1F NOT DUP3 AND SWAP1 DUP4 PUSH0 MSTORE DUP1 PUSH0 KECCAK256 SWAP2 PUSH0 JUMPDEST DUP11 DUP3 DUP3 LT PUSH2 0x32AB JUMPI POP POP SWAP2 DUP4 SWAP2 PUSH2 0x2F91 SWAP7 SWAP6 SWAP5 PUSH1 0x1 SWAP5 LT PUSH2 0x3293 JUMPI JUMPDEST POP POP DUP2 SHL ADD SWAP1 SSTORE PUSH2 0x2F8A JUMP JUMPDEST DUP11 ADD MLOAD PUSH0 NOT PUSH1 0xF8 DUP5 PUSH1 0x3 SHL AND SHR NOT AND SWAP1 SSTORE DUP10 DUP1 PUSH2 0x3287 JUMP JUMPDEST PUSH1 0x1 DUP5 SWAP6 PUSH1 0x20 SWAP4 SWAP6 DUP5 SWAP4 ADD MLOAD DUP2 SSTORE ADD SWAP5 ADD SWAP3 ADD PUSH2 0x326B JUMP JUMPDEST DUP3 PUSH0 MSTORE PUSH1 0x20 PUSH0 KECCAK256 PUSH1 0x1F DUP4 ADD PUSH1 0x5 SHR DUP2 ADD SWAP2 PUSH1 0x20 DUP5 LT PUSH2 0x32FE JUMPI JUMPDEST PUSH1 0x1F ADD PUSH1 0x5 SHR ADD SWAP1 JUMPDEST DUP2 DUP2 LT PUSH2 0x32F3 JUMPI POP PUSH2 0x2F5A JUMP JUMPDEST PUSH0 DUP2 SSTORE PUSH1 0x1 ADD PUSH2 0x32E6 JUMP JUMPDEST SWAP1 SWAP2 POP DUP2 SWAP1 PUSH2 0x32DD JUMP JUMPDEST CALLVALUE PUSH2 0x1BD JUMPI PUSH1 0xA0 CALLDATASIZE PUSH1 0x3 NOT ADD SLT PUSH2 0x1BD JUMPI PUSH1 0x4 CALLDATALOAD PUSH1 0x1 PUSH1 0x1 PUSH1 0x40 SHL SUB DUP2 GT PUSH2 0x1BD JUMPI PUSH2 0x3338 SWAP1 CALLDATASIZE SWAP1 PUSH1 0x4 ADD PUSH2 0x3584 JUMP JUMPDEST PUSH1 0x24 CALLDATALOAD PUSH1 0x1 PUSH1 0x1 PUSH1 0x40 SHL SUB DUP2 GT PUSH2 0x1BD JUMPI PUSH2 0x3357 SWAP1 CALLDATASIZE SWAP1 PUSH1 0x4 ADD PUSH2 0x3584 JUMP JUMPDEST PUSH1 0x44 CALLDATALOAD PUSH1 0x1 PUSH1 0x1 PUSH1 0x40 SHL SUB DUP2 GT PUSH2 0x1BD JUMPI PUSH2 0x3376 SWAP1 CALLDATASIZE SWAP1 PUSH1 0x4 ADD PUSH2 0x3584 JUMP JUMPDEST SWAP1 PUSH1 0x64 CALLDATALOAD PUSH1 0x1 PUSH1 0x1 PUSH1 0x40 SHL SUB DUP2 GT PUSH2 0x1BD JUMPI PUSH2 0x33B2 SWAP3 PUSH2 0x339D PUSH2 0x33AB SWAP3 CALLDATASIZE SWAP1 PUSH1 0x4 ADD PUSH2 0x3584 JUMP JUMPDEST PUSH2 0x33A5 PUSH2 0x363B JUMP JUMPDEST SWAP2 PUSH2 0x3CBE JUMP JUMPDEST SWAP1 DUP4 PUSH2 0x3FD2 JUMP JUMPDEST PUSH1 0x2 SLOAD PUSH1 0x20 DUP3 ADD PUSH0 JUMPDEST DUP3 DUP2 LT PUSH2 0x33C4 JUMPI STOP JUMPDEST DUP1 PUSH2 0x33D0 PUSH1 0x1 SWAP3 PUSH2 0x3775 JUMP JUMPDEST POP PUSH1 0x40 MLOAD PUSH2 0x33E6 DUP2 PUSH2 0x3E3 PUSH1 0x20 DUP3 ADD DUP1 SWAP6 PUSH2 0x3C54 JUMP JUMPDEST MLOAD SWAP1 KECCAK256 PUSH1 0x40 MLOAD PUSH1 0x20 DUP2 ADD SWAP1 PUSH2 0x3413 PUSH1 0x20 DUP3 DUP11 MLOAD DUP1 DUP11 DUP8 MCOPY DUP2 ADD PUSH0 DUP4 DUP3 ADD MSTORE SUB ADD PUSH1 0x1F NOT DUP2 ADD DUP4 MSTORE DUP3 PUSH2 0x3563 JUMP JUMPDEST MLOAD SWAP1 KECCAK256 EQ PUSH2 0x3422 JUMPI JUMPDEST ADD PUSH2 0x33BB JUMP JUMPDEST PUSH1 0x3 PUSH2 0x342D DUP3 PUSH2 0x3775 JUMP JUMPDEST POP ADD DUP1 SLOAD PUSH2 0xFF00 NOT AND PUSH2 0x200 OR SWAP1 SSTORE PUSH2 0x341C JUMP JUMPDEST CALLVALUE PUSH2 0x1BD JUMPI PUSH1 0x20 CALLDATASIZE PUSH1 0x3 NOT ADD SLT PUSH2 0x1BD JUMPI PUSH1 0x4 CALLDATALOAD PUSH1 0x1 PUSH1 0x1 PUSH1 0x40 SHL SUB DUP2 GT PUSH2 0x1BD JUMPI PUSH2 0x3474 PUSH2 0x1BB SWAP2 CALLDATASIZE SWAP1 PUSH1 0x4 ADD PUSH2 0x3584 JUMP JUMPDEST PUSH2 0x3C26 JUMP JUMPDEST CALLVALUE PUSH2 0x1BD JUMPI PUSH1 0x20 CALLDATASIZE PUSH1 0x3 NOT ADD SLT PUSH2 0x1BD JUMPI PUSH1 0x4 CALLDATALOAD PUSH1 0x1 PUSH1 0x1 PUSH1 0x40 SHL SUB DUP2 GT PUSH2 0x1BD JUMPI PUSH2 0x2E46 PUSH1 0x7 PUSH1 0x20 DUP1 PUSH2 0x34B4 PUSH2 0x224 SWAP6 CALLDATASIZE SWAP1 PUSH1 0x4 ADD PUSH2 0x3584 JUMP JUMPDEST PUSH2 0x34BC PUSH2 0x3C06 JUMP JUMPDEST POP PUSH1 0x40 MLOAD SWAP3 DUP2 DUP5 SWAP3 MLOAD SWAP2 DUP3 SWAP2 ADD DUP4 MCOPY DUP2 ADD PUSH0 DUP2 MSTORE SUB ADD SWAP1 KECCAK256 ADD PUSH2 0x3729 JUMP JUMPDEST PUSH1 0x60 DUP2 ADD SWAP1 DUP2 LT PUSH1 0x1 PUSH1 0x1 PUSH1 0x40 SHL SUB DUP3 GT OR PUSH2 0x8B2 JUMPI PUSH1 0x40 MSTORE JUMP JUMPDEST PUSH1 0xE0 DUP2 ADD SWAP1 DUP2 LT PUSH1 0x1 PUSH1 0x1 PUSH1 0x40 SHL SUB DUP3 GT OR PUSH2 0x8B2 JUMPI PUSH1 0x40 MSTORE JUMP JUMPDEST PUSH1 0x40 DUP2 ADD SWAP1 DUP2 LT PUSH1 0x1 PUSH1 0x1 PUSH1 0x40 SHL SUB DUP3 GT OR PUSH2 0x8B2 JUMPI PUSH1 0x40 MSTORE JUMP JUMPDEST PUSH2 0x100 DUP2 ADD SWAP1 DUP2 LT PUSH1 0x1 PUSH1 0x1 PUSH1 0x40 SHL SUB DUP3 GT OR PUSH2 0x8B2 JUMPI PUSH1 0x40 MSTORE JUMP JUMPDEST PUSH2 0x140 DUP2 ADD SWAP1 DUP2 LT PUSH1 0x1 PUSH1 0x1 PUSH1 0x40 SHL SUB DUP3 GT OR PUSH2 0x8B2 JUMPI PUSH1 0x40 MSTORE JUMP JUMPDEST SWAP1 PUSH1 0x1F DUP1 NOT SWAP2 ADD AND DUP2 ADD SWAP1 DUP2 LT PUSH1 0x1 PUSH1 0x1 PUSH1 0x40 SHL SUB DUP3 GT OR PUSH2 0x8B2 JUMPI PUSH1 0x40 MSTORE JUMP JUMPDEST DUP2 PUSH1 0x1F DUP3 ADD SLT ISZERO PUSH2 0x1BD JUMPI DUP1 CALLDATALOAD SWAP1 PUSH1 0x1 PUSH1 0x1 PUSH1 0x40 SHL SUB DUP3 GT PUSH2 0x8B2 JUMPI PUSH1 0x40 MLOAD SWAP3 PUSH2 0x35B8 PUSH1 0x1F DUP5 ADD PUSH1 0x1F NOT AND PUSH1 0x20 ADD DUP6 PUSH2 0x3563 JUMP JUMPDEST DUP3 DUP5 MSTORE PUSH1 0x20 DUP4 DUP4 ADD ADD GT PUSH2 0x1BD JUMPI DUP2 PUSH0 SWAP3 PUSH1 0x20 DUP1 SWAP4 ADD DUP4 DUP7 ADD CALLDATACOPY DUP4 ADD ADD MSTORE SWAP1 JUMP JUMPDEST DUP1 MLOAD DUP1 DUP4 MSTORE PUSH1 0x20 SWAP3 SWAP2 DUP2 SWAP1 DUP5 ADD DUP5 DUP5 ADD MCOPY PUSH0 DUP3 DUP3 ADD DUP5 ADD MSTORE PUSH1 0x1F ADD PUSH1 0x1F NOT AND ADD ADD SWAP1 JUMP JUMPDEST SWAP1 PUSH1 0x40 PUSH2 0x3628 PUSH2 0x3616 DUP5 MLOAD PUSH1 0x60 DUP6 MSTORE PUSH1 0x60 DUP6 ADD SWAP1 PUSH2 0x35D9 JUMP JUMPDEST PUSH1 0x20 DUP6 ADD MLOAD DUP5 DUP3 SUB PUSH1 0x20 DUP7 ADD MSTORE PUSH2 0x35D9 JUMP JUMPDEST SWAP3 DUP2 ADD MLOAD PUSH1 0x1 PUSH1 0x1 PUSH1 0xA0 SHL SUB AND SWAP2 ADD MSTORE SWAP1 JUMP JUMPDEST PUSH1 0x84 CALLDATALOAD SWAP1 PUSH1 0x1 PUSH1 0x1 PUSH1 0xA0 SHL SUB DUP3 AND DUP3 SUB PUSH2 0x1BD JUMPI JUMP JUMPDEST SWAP1 PUSH1 0x1 DUP3 DUP2 SHR SWAP3 AND DUP1 ISZERO PUSH2 0x367F JUMPI JUMPDEST PUSH1 0x20 DUP4 LT EQ PUSH2 0x366B JUMPI JUMP JUMPDEST PUSH4 0x4E487B71 PUSH1 0xE0 SHL PUSH0 MSTORE PUSH1 0x22 PUSH1 0x4 MSTORE PUSH1 0x24 PUSH0 REVERT JUMPDEST SWAP2 PUSH1 0x7F AND SWAP2 PUSH2 0x3660 JUMP JUMPDEST SWAP1 PUSH1 0x40 MLOAD SWAP2 DUP3 PUSH0 DUP3 SLOAD SWAP3 PUSH2 0x369C DUP5 PUSH2 0x3651 JUMP JUMPDEST DUP1 DUP5 MSTORE SWAP4 PUSH1 0x1 DUP2 AND SWAP1 DUP2 ISZERO PUSH2 0x3707 JUMPI POP PUSH1 0x1 EQ PUSH2 0x36C3 JUMPI JUMPDEST POP PUSH2 0x36C1 SWAP3 POP SUB DUP4 PUSH2 0x3563 JUMP JUMPDEST JUMP JUMPDEST SWAP1 POP PUSH0 SWAP3 SWAP2 SWAP3 MSTORE PUSH1 0x20 PUSH0 KECCAK256 SWAP1 PUSH0 SWAP2 JUMPDEST DUP2 DUP4 LT PUSH2 0x36EB JUMPI POP POP SWAP1 PUSH1 0x20 PUSH2 0x36C1 SWAP3 DUP3 ADD ADD PUSH0 PUSH2 0x36B4 JUMP JUMPDEST PUSH1 0x20 SWAP2 SWAP4 POP DUP1 PUSH1 0x1 SWAP2 SLOAD DUP4 DUP6 DUP10 ADD ADD MSTORE ADD SWAP2 ADD SWAP1 SWAP2 DUP5 SWAP3 PUSH2 0x36D2 JUMP JUMPDEST SWAP1 POP PUSH1 0x20 SWAP3 POP PUSH2 0x36C1 SWAP5 SWAP2 POP PUSH1 0xFF NOT AND DUP3 DUP5 ADD MSTORE ISZERO ISZERO PUSH1 0x5 SHL DUP3 ADD ADD PUSH0 PUSH2 0x36B4 JUMP JUMPDEST SWAP1 PUSH1 0x40 MLOAD PUSH2 0x3736 DUP2 PUSH2 0x34DA JUMP JUMPDEST PUSH1 0x40 DUP2 SWAP4 PUSH2 0x3743 DUP2 PUSH2 0x3689 JUMP JUMPDEST DUP4 MSTORE PUSH2 0x3751 PUSH1 0x1 DUP3 ADD PUSH2 0x3689 JUMP JUMPDEST PUSH1 0x20 DUP5 ADD MSTORE PUSH1 0x2 ADD SLOAD PUSH1 0x1 PUSH1 0x1 PUSH1 0xA0 SHL SUB AND SWAP2 ADD MSTORE JUMP JUMPDEST SWAP1 PUSH1 0x7 DUP3 LT ISZERO PUSH2 0x26EA JUMPI MSTORE JUMP JUMPDEST PUSH1 0x2 SLOAD DUP2 LT ISZERO PUSH2 0x3791 JUMPI PUSH1 0x2 PUSH0 MSTORE PUSH1 0x6 PUSH1 0x20 PUSH0 KECCAK256 SWAP2 MUL ADD SWAP1 PUSH0 SWAP1 JUMP JUMPDEST PUSH4 0x4E487B71 PUSH1 0xE0 SHL PUSH0 MSTORE PUSH1 0x32 PUSH1 0x4 MSTORE PUSH1 0x24 PUSH0 REVERT JUMPDEST SWAP2 SWAP1 PUSH1 0x40 DUP4 DUP3 SUB SLT PUSH2 0x1BD JUMPI PUSH1 0x40 MLOAD SWAP1 PUSH2 0x37BE DUP3 PUSH2 0x3510 JUMP JUMPDEST DUP2 SWAP4 DUP1 CALLDATALOAD PUSH1 0x1 PUSH1 0x1 PUSH1 0x40 SHL SUB DUP2 GT PUSH2 0x1BD JUMPI DUP3 PUSH2 0x37DC SWAP2 DUP4 ADD PUSH2 0x3584 JUMP JUMPDEST DUP4 MSTORE PUSH1 0x20 DUP2 ADD CALLDATALOAD SWAP2 PUSH1 0x1 PUSH1 0x1 PUSH1 0x40 SHL SUB DUP4 GT PUSH2 0x1BD JUMPI PUSH1 0x20 SWAP3 PUSH2 0x37FF SWAP3 ADD PUSH2 0x3584 JUMP JUMPDEST SWAP2 ADD MSTORE JUMP JUMPDEST SWAP2 SWAP1 PUSH2 0x100 DUP4 DUP3 SUB SLT PUSH2 0x1BD JUMPI PUSH1 0x40 MLOAD SWAP1 PUSH2 0x381E DUP3 PUSH2 0x352B JUMP JUMPDEST DUP2 SWAP4 DUP1 CALLDATALOAD PUSH1 0x1 PUSH1 0x1 PUSH1 0x40 SHL SUB DUP2 GT PUSH2 0x1BD JUMPI DUP3 PUSH2 0x383C SWAP2 DUP4 ADD PUSH2 0x3584 JUMP JUMPDEST DUP4 MSTORE PUSH1 0x20 DUP2 ADD CALLDATALOAD PUSH1 0x1 PUSH1 0x1 PUSH1 0x40 SHL SUB DUP2 GT PUSH2 0x1BD JUMPI DUP3 PUSH2 0x385D SWAP2 DUP4 ADD PUSH2 0x3584 JUMP JUMPDEST PUSH1 0x20 DUP5 ADD MSTORE PUSH1 0x40 DUP2 ADD CALLDATALOAD PUSH1 0x1 PUSH1 0x1 PUSH1 0x40 SHL SUB DUP2 GT PUSH2 0x1BD JUMPI DUP3 PUSH2 0x3881 SWAP2 DUP4 ADD PUSH2 0x3584 JUMP JUMPDEST PUSH1 0x40 DUP5 ADD MSTORE PUSH1 0x60 DUP2 ADD CALLDATALOAD PUSH1 0x1 PUSH1 0x1 PUSH1 0x40 SHL SUB DUP2 GT PUSH2 0x1BD JUMPI DUP3 PUSH2 0x38A5 SWAP2 DUP4 ADD PUSH2 0x3584 JUMP JUMPDEST PUSH1 0x60 DUP5 ADD MSTORE PUSH1 0x80 DUP2 ADD CALLDATALOAD PUSH1 0x1 PUSH1 0x1 PUSH1 0x40 SHL SUB DUP2 GT PUSH2 0x1BD JUMPI DUP3 PUSH2 0x38C9 SWAP2 DUP4 ADD PUSH2 0x3584 JUMP JUMPDEST PUSH1 0x80 DUP5 ADD MSTORE PUSH1 0xA0 DUP2 ADD CALLDATALOAD PUSH1 0x1 PUSH1 0x1 PUSH1 0x40 SHL SUB DUP2 GT PUSH2 0x1BD JUMPI DUP3 PUSH2 0x38ED SWAP2 DUP4 ADD PUSH2 0x3584 JUMP JUMPDEST PUSH1 0xA0 DUP5 ADD MSTORE PUSH1 0xC0 DUP2 ADD CALLDATALOAD PUSH1 0x1 PUSH1 0x1 PUSH1 0x40 SHL SUB DUP2 GT PUSH2 0x1BD JUMPI DUP3 PUSH2 0x3911 SWAP2 DUP4 ADD PUSH2 0x3584 JUMP JUMPDEST PUSH1 0xC0 DUP5 ADD MSTORE PUSH1 0xE0 DUP2 ADD CALLDATALOAD SWAP2 PUSH1 0x1 PUSH1 0x1 PUSH1 0x40 SHL SUB DUP4 GT PUSH2 0x1BD JUMPI PUSH1 0xE0 SWAP3 PUSH2 0x37FF SWAP3 ADD PUSH2 0x3584 JUMP JUMPDEST PUSH1 0x20 DUP2 ADD PUSH1 0x20 DUP3 MSTORE DUP3 MLOAD DUP1 SWAP2 MSTORE PUSH1 0x40 DUP3 ADD SWAP2 PUSH1 0x20 PUSH1 0x40 DUP4 PUSH1 0x5 SHL DUP4 ADD ADD SWAP5 ADD SWAP3 PUSH0 SWAP2 JUMPDEST DUP4 DUP4 LT PUSH2 0x3969 JUMPI POP POP POP POP POP SWAP1 JUMP JUMPDEST SWAP1 SWAP2 SWAP3 SWAP4 SWAP5 PUSH1 0x20 DUP1 PUSH1 0x1 SWAP3 PUSH1 0x3F NOT DUP6 DUP3 SUB ADD DUP7 MSTORE DUP9 MLOAD SWAP1 PUSH1 0xC0 DUP1 PUSH2 0x39F2 PUSH2 0x39C1 PUSH2 0x39AF PUSH2 0x399F DUP8 MLOAD PUSH1 0xE0 DUP9 MSTORE PUSH1 0xE0 DUP9 ADD SWAP1 PUSH2 0x35D9 JUMP JUMPDEST DUP9 DUP9 ADD MLOAD DUP8 DUP3 SUB DUP11 DUP10 ADD MSTORE PUSH2 0x35D9 JUMP JUMPDEST PUSH1 0x40 DUP8 ADD MLOAD DUP7 DUP3 SUB PUSH1 0x40 DUP9 ADD MSTORE PUSH2 0x35D9 JUMP JUMPDEST PUSH1 0xFF PUSH1 0x60 DUP8 ADD MLOAD AND PUSH1 0x60 DUP7 ADD MSTORE PUSH2 0x39E0 PUSH1 0x80 DUP8 ADD MLOAD PUSH1 0x80 DUP8 ADD SWAP1 PUSH2 0x3768 JUMP JUMPDEST PUSH1 0xA0 DUP7 ADD MLOAD DUP6 DUP3 SUB PUSH1 0xA0 DUP8 ADD MSTORE PUSH2 0x35D9 JUMP JUMPDEST SWAP4 ADD MLOAD SWAP2 ADD MSTORE SWAP8 ADD SWAP4 ADD SWAP4 ADD SWAP2 SWAP4 SWAP3 SWAP1 PUSH2 0x395A JUMP JUMPDEST PUSH1 0x40 PUSH1 0x3 NOT DUP3 ADD SLT PUSH2 0x1BD JUMPI PUSH1 0x4 CALLDATALOAD SWAP1 PUSH1 0x1 PUSH1 0x1 PUSH1 0x40 SHL SUB DUP3 GT PUSH2 0x1BD JUMPI PUSH2 0x3A31 SWAP2 PUSH1 0x4 ADD PUSH2 0x3584 JUMP JUMPDEST SWAP1 PUSH1 0x24 CALLDATALOAD SWAP1 JUMP JUMPDEST SWAP1 PUSH2 0x3AD9 SWAP2 PUSH1 0x20 DUP2 MSTORE PUSH2 0x3A4F PUSH1 0x20 DUP3 ADD DUP4 MLOAD PUSH2 0x3768 JUMP JUMPDEST PUSH1 0x20 DUP3 ADD MLOAD PUSH1 0x40 DUP3 ADD MSTORE PUSH1 0x40 DUP3 ADD MLOAD PUSH1 0x60 DUP3 ADD MSTORE PUSH1 0x60 DUP3 ADD MLOAD PUSH1 0x80 DUP3 ADD MSTORE PUSH1 0x80 DUP3 ADD MLOAD PUSH1 0xA0 DUP3 ADD MSTORE PUSH1 0xA0 DUP3 ADD MLOAD PUSH1 0xC0 DUP3 ADD MSTORE PUSH1 0xC0 DUP3 ADD MLOAD PUSH1 0xE0 DUP3 ADD MSTORE PUSH2 0x120 PUSH2 0x3AC3 PUSH2 0x3AAD PUSH1 0xE0 DUP6 ADD MLOAD PUSH2 0x140 PUSH2 0x100 DUP7 ADD MSTORE PUSH2 0x160 DUP6 ADD SWAP1 PUSH2 0x35FD JUMP JUMPDEST PUSH2 0x100 DUP6 ADD MLOAD DUP5 DUP3 SUB PUSH1 0x1F NOT ADD DUP5 DUP7 ADD MSTORE PUSH2 0x35FD JUMP JUMPDEST SWAP3 ADD MLOAD SWAP1 PUSH2 0x140 PUSH1 0x1F NOT DUP3 DUP6 SUB ADD SWAP2 ADD MSTORE PUSH2 0x35D9 JUMP JUMPDEST SWAP1 JUMP JUMPDEST SWAP1 PUSH1 0x40 PUSH1 0x3 NOT DUP4 ADD SLT PUSH2 0x1BD JUMPI PUSH1 0x4 CALLDATALOAD PUSH1 0x1 PUSH1 0x1 PUSH1 0x40 SHL SUB DUP2 GT PUSH2 0x1BD JUMPI DUP3 PUSH2 0x3B07 SWAP2 PUSH1 0x4 ADD PUSH2 0x3584 JUMP JUMPDEST SWAP2 PUSH1 0x24 CALLDATALOAD SWAP1 PUSH1 0x1 PUSH1 0x1 PUSH1 0x40 SHL SUB DUP3 GT PUSH2 0x1BD JUMPI PUSH2 0x3AD9 SWAP2 PUSH1 0x4 ADD PUSH2 0x3584 JUMP JUMPDEST SWAP2 SWAP1 PUSH1 0x60 DUP4 DUP3 SUB SLT PUSH2 0x1BD JUMPI PUSH1 0x40 MLOAD SWAP1 PUSH2 0x3B3F DUP3 PUSH2 0x34DA JUMP JUMPDEST DUP2 SWAP4 DUP1 CALLDATALOAD PUSH1 0x1 PUSH1 0x1 PUSH1 0x40 SHL SUB DUP2 GT PUSH2 0x1BD JUMPI DUP3 PUSH2 0x3B5D SWAP2 DUP4 ADD PUSH2 0x3584 JUMP JUMPDEST DUP4 MSTORE PUSH1 0x20 DUP2 ADD CALLDATALOAD PUSH1 0x1 PUSH1 0x1 PUSH1 0x40 SHL SUB DUP2 GT PUSH2 0x1BD JUMPI PUSH1 0x40 SWAP3 PUSH2 0x3B80 SWAP2 DUP4 ADD PUSH2 0x3584 JUMP JUMPDEST PUSH1 0x20 DUP5 ADD MSTORE ADD CALLDATALOAD SWAP1 PUSH1 0x1 PUSH1 0x1 PUSH1 0xA0 SHL SUB DUP3 AND DUP3 SUB PUSH2 0x1BD JUMPI PUSH1 0x40 ADD MSTORE JUMP JUMPDEST PUSH1 0x60 PUSH1 0x3 NOT DUP3 ADD SLT PUSH2 0x1BD JUMPI PUSH1 0x4 CALLDATALOAD PUSH1 0x1 PUSH1 0x1 PUSH1 0x40 SHL SUB DUP2 GT PUSH2 0x1BD JUMPI DUP2 PUSH2 0x3BC8 SWAP2 PUSH1 0x4 ADD PUSH2 0x3584 JUMP JUMPDEST SWAP2 PUSH1 0x24 CALLDATALOAD PUSH1 0x1 PUSH1 0x1 PUSH1 0x40 SHL SUB DUP2 GT PUSH2 0x1BD JUMPI DUP3 PUSH2 0x3BE7 SWAP2 PUSH1 0x4 ADD PUSH2 0x3584 JUMP JUMPDEST SWAP2 PUSH1 0x44 CALLDATALOAD SWAP1 PUSH1 0x1 PUSH1 0x1 PUSH1 0x40 SHL SUB DUP3 GT PUSH2 0x1BD JUMPI PUSH2 0x3AD9 SWAP2 PUSH1 0x4 ADD PUSH2 0x3B26 JUMP JUMPDEST PUSH1 0x40 MLOAD SWAP1 PUSH2 0x3C13 DUP3 PUSH2 0x34DA JUMP JUMPDEST PUSH0 PUSH1 0x40 DUP4 PUSH1 0x60 DUP2 MSTORE PUSH1 0x60 PUSH1 0x20 DUP3 ADD MSTORE ADD MSTORE JUMP JUMPDEST PUSH1 0x20 DUP1 SWAP2 PUSH1 0x40 MLOAD SWAP3 DUP2 DUP5 SWAP3 MLOAD SWAP2 DUP3 SWAP2 ADD DUP4 MCOPY DUP2 ADD PUSH0 DUP2 MSTORE SUB ADD SWAP1 KECCAK256 TIMESTAMP PUSH1 0x4 DUP3 ADD SSTORE PUSH1 0x3 PUSH1 0xFF NOT DUP3 SLOAD AND OR SWAP1 SSTORE JUMP JUMPDEST PUSH0 SWAP3 SWAP2 DUP2 SLOAD SWAP2 PUSH2 0x3C63 DUP4 PUSH2 0x3651 JUMP JUMPDEST SWAP3 PUSH1 0x1 DUP2 AND SWAP1 DUP2 ISZERO PUSH2 0x3CAB JUMPI POP PUSH1 0x1 EQ PUSH2 0x3C7C JUMPI POP POP POP JUMP JUMPDEST SWAP1 SWAP2 SWAP3 SWAP4 POP PUSH0 MSTORE PUSH1 0x20 PUSH0 KECCAK256 PUSH0 SWAP1 JUMPDEST DUP4 DUP3 LT PUSH2 0x3C97 JUMPI POP POP ADD SWAP1 JUMP JUMPDEST PUSH1 0x1 DUP2 PUSH1 0x20 SWAP3 SLOAD DUP5 DUP7 ADD MSTORE ADD SWAP2 ADD SWAP1 PUSH2 0x3C8A JUMP JUMPDEST PUSH1 0xFF NOT AND DUP4 MSTORE POP POP DUP2 ISZERO ISZERO SWAP1 SWAP2 MUL ADD SWAP2 POP JUMP JUMPDEST SWAP2 SWAP1 PUSH2 0x3CC8 PUSH2 0x3C06 JUMP JUMPDEST POP PUSH1 0x40 MLOAD SWAP3 PUSH2 0x3CD6 DUP5 PUSH2 0x34DA JUMP JUMPDEST DUP4 MSTORE PUSH1 0x20 DUP4 ADD MSTORE PUSH1 0x1 PUSH1 0x1 PUSH1 0xA0 SHL SUB AND PUSH1 0x40 DUP3 ADD MSTORE SWAP1 JUMP JUMPDEST PUSH1 0x7 DUP3 LT ISZERO PUSH2 0x26EA JUMPI MSTORE JUMP JUMPDEST PUSH1 0x40 MLOAD DUP2 MLOAD PUSH2 0x3AD9 SWAP3 PUSH1 0x20 SWAP2 DUP4 SWAP2 DUP2 SWAP1 DUP5 ADD DUP4 MCOPY DUP2 ADD PUSH1 0x1 DUP2 MSTORE SUB ADD SWAP1 KECCAK256 PUSH2 0x3689 JUMP JUMPDEST PUSH1 0xFF AND PUSH1 0xFF DUP2 EQ PUSH2 0x102D JUMPI PUSH1 0x1 ADD SWAP1 JUMP JUMPDEST PUSH1 0x1 PUSH1 0x1 PUSH1 0x40 SHL SUB DUP2 GT PUSH2 0x8B2 JUMPI PUSH1 0x5 SHL PUSH1 0x20 ADD SWAP1 JUMP JUMPDEST SWAP1 PUSH2 0x3D4F DUP3 PUSH2 0x3D2E JUMP JUMPDEST PUSH2 0x3D5C PUSH1 0x40 MLOAD SWAP2 DUP3 PUSH2 0x3563 JUMP JUMPDEST DUP3 DUP2 MSTORE DUP1 SWAP3 PUSH2 0x3D6D PUSH1 0x1F NOT SWAP2 PUSH2 0x3D2E JUMP JUMPDEST ADD SWAP1 PUSH0 JUMPDEST DUP3 DUP2 LT PUSH2 0x3D7D JUMPI POP POP POP JUMP JUMPDEST PUSH1 0x20 SWAP1 PUSH1 0x40 MLOAD PUSH2 0x3D8C DUP2 PUSH2 0x34F5 JUMP JUMPDEST PUSH1 0x60 DUP2 MSTORE PUSH1 0x60 DUP4 DUP3 ADD MSTORE PUSH1 0x60 PUSH1 0x40 DUP3 ADD MSTORE PUSH0 PUSH1 0x60 DUP3 ADD MSTORE PUSH0 PUSH1 0x80 DUP3 ADD MSTORE PUSH1 0x60 PUSH1 0xA0 DUP3 ADD MSTORE PUSH0 PUSH1 0xC0 DUP3 ADD MSTORE DUP3 DUP3 DUP6 ADD ADD MSTORE ADD PUSH2 0x3D71 JUMP JUMPDEST DUP1 MLOAD DUP3 LT ISZERO PUSH2 0x3791 JUMPI PUSH1 0x20 SWAP2 PUSH1 0x5 SHL ADD ADD SWAP1 JUMP JUMPDEST SWAP1 PUSH1 0x40 MLOAD PUSH2 0x3DE3 DUP2 PUSH2 0x34F5 JUMP JUMPDEST PUSH1 0xC0 PUSH1 0x5 DUP3 SWAP5 PUSH2 0x3DF2 DUP2 PUSH2 0x3689 JUMP JUMPDEST DUP5 MSTORE PUSH2 0x3E00 PUSH1 0x1 DUP3 ADD PUSH2 0x3689 JUMP JUMPDEST PUSH1 0x20 DUP6 ADD MSTORE PUSH2 0x3E11 PUSH1 0x2 DUP3 ADD PUSH2 0x3689 JUMP JUMPDEST PUSH1 0x40 DUP6 ADD MSTORE PUSH2 0x3E35 PUSH1 0xFF PUSH1 0x3 DUP4 ADD SLOAD DUP2 DUP2 AND PUSH1 0x60 DUP9 ADD MSTORE PUSH1 0x8 SHR AND PUSH1 0x80 DUP7 ADD PUSH2 0x3CEE JUMP JUMPDEST PUSH2 0x3E41 PUSH1 0x4 DUP3 ADD PUSH2 0x3689 JUMP JUMPDEST PUSH1 0xA0 DUP6 ADD MSTORE ADD SLOAD SWAP2 ADD MSTORE JUMP JUMPDEST SWAP1 TIMESTAMP GT ISZERO PUSH2 0x3E83 JUMPI PUSH1 0x20 DUP1 SWAP2 PUSH1 0x40 MLOAD SWAP3 DUP2 DUP5 SWAP3 MLOAD SWAP2 DUP3 SWAP2 ADD DUP4 MCOPY DUP2 ADD PUSH0 DUP2 MSTORE SUB ADD SWAP1 KECCAK256 TIMESTAMP PUSH1 0x6 DUP3 ADD SSTORE PUSH1 0x5 PUSH1 0xFF NOT DUP3 SLOAD AND OR SWAP1 SSTORE JUMP JUMPDEST PUSH1 0x40 MLOAD PUSH3 0x461BCD PUSH1 0xE5 SHL DUP2 MSTORE PUSH1 0x20 PUSH1 0x4 DUP3 ADD MSTORE PUSH1 0x18 PUSH1 0x24 DUP3 ADD MSTORE PUSH32 0x536572746966696B6174206D61736968206265726C616B750000000000000000 PUSH1 0x44 DUP3 ADD MSTORE PUSH1 0x64 SWAP1 REVERT JUMPDEST PUSH1 0x40 MLOAD SWAP1 PUSH2 0x3ED5 DUP3 PUSH2 0x3547 JUMP JUMPDEST PUSH1 0x60 PUSH2 0x120 DUP4 PUSH0 DUP2 MSTORE PUSH0 PUSH1 0x20 DUP3 ADD MSTORE PUSH0 PUSH1 0x40 DUP3 ADD MSTORE PUSH0 DUP4 DUP3 ADD MSTORE PUSH0 PUSH1 0x80 DUP3 ADD MSTORE PUSH0 PUSH1 0xA0 DUP3 ADD MSTORE PUSH0 PUSH1 0xC0 DUP3 ADD MSTORE PUSH2 0x3F09 PUSH2 0x3C06 JUMP JUMPDEST PUSH1 0xE0 DUP3 ADD MSTORE PUSH2 0x3F16 PUSH2 0x3C06 JUMP JUMPDEST PUSH2 0x100 DUP3 ADD MSTORE ADD MSTORE JUMP JUMPDEST PUSH1 0x20 DUP1 SWAP2 PUSH2 0x3F2C PUSH2 0x3EC8 JUMP JUMPDEST POP PUSH1 0x40 MLOAD SWAP3 DUP2 DUP5 SWAP3 MLOAD SWAP2 DUP3 SWAP2 ADD DUP4 MCOPY DUP2 ADD PUSH0 DUP2 MSTORE SUB ADD SWAP1 KECCAK256 PUSH2 0x3FC9 PUSH1 0xD PUSH1 0x40 MLOAD SWAP3 PUSH2 0x3F56 DUP5 PUSH2 0x3547 JUMP JUMPDEST PUSH2 0x3F64 PUSH1 0xFF DUP3 SLOAD AND DUP6 PUSH2 0x3CEE JUMP JUMPDEST PUSH1 0x1 DUP2 ADD SLOAD PUSH1 0x20 DUP6 ADD MSTORE PUSH1 0x2 DUP2 ADD SLOAD PUSH1 0x40 DUP6 ADD MSTORE PUSH1 0x3 DUP2 ADD SLOAD PUSH1 0x60 DUP6 ADD MSTORE PUSH1 0x4 DUP2 ADD SLOAD PUSH1 0x80 DUP6 ADD MSTORE PUSH1 0x5 DUP2 ADD SLOAD PUSH1 0xA0 DUP6 ADD MSTORE PUSH1 0x6 DUP2 ADD SLOAD PUSH1 0xC0 DUP6 ADD MSTORE PUSH2 0x3FAC PUSH1 0x7 DUP3 ADD PUSH2 0x3729 JUMP JUMPDEST PUSH1 0xE0 DUP6 ADD MSTORE PUSH2 0x3FBD PUSH1 0xA DUP3 ADD PUSH2 0x3729 JUMP JUMPDEST PUSH2 0x100 DUP6 ADD MSTORE ADD PUSH2 0x3689 JUMP JUMPDEST PUSH2 0x120 DUP3 ADD MSTORE SWAP1 JUMP JUMPDEST SWAP3 SWAP2 SWAP1 PUSH1 0x40 MLOAD PUSH1 0x20 DUP6 MLOAD SWAP2 DUP2 DUP2 DUP2 DUP10 ADD SWAP5 DUP1 DUP7 DUP4 MCOPY DUP2 ADD PUSH0 DUP2 MSTORE SUB ADD SWAP1 KECCAK256 SWAP6 PUSH1 0x40 MLOAD SWAP3 DUP4 SWAP2 MLOAD DUP1 SWAP2 DUP4 MCOPY DUP2 ADD PUSH1 0x1 DUP2 MSTORE SUB ADD SWAP1 KECCAK256 SWAP1 DUP1 MLOAD SWAP1 PUSH1 0x1 PUSH1 0x1 PUSH1 0x40 SHL SUB DUP3 GT PUSH2 0x8B2 JUMPI DUP2 SWAP1 PUSH2 0x4024 DUP5 SLOAD PUSH2 0x3651 JUMP JUMPDEST PUSH1 0x1F DUP2 GT PUSH2 0x431F JUMPI JUMPDEST POP PUSH1 0x20 SWAP1 PUSH1 0x1F DUP4 GT PUSH1 0x1 EQ PUSH2 0x42BC JUMPI PUSH0 SWAP3 PUSH2 0x42B1 JUMPI JUMPDEST POP POP DUP2 PUSH1 0x1 SHL SWAP2 PUSH0 NOT SWAP1 PUSH1 0x3 SHL SHR NOT AND OR SWAP1 SSTORE JUMPDEST DUP1 MLOAD DUP1 MLOAD PUSH1 0xA DUP6 ADD SWAP2 PUSH1 0x1 PUSH1 0x1 PUSH1 0x40 SHL SUB DUP3 GT PUSH2 0x8B2 JUMPI PUSH2 0x4078 DUP4 SLOAD PUSH2 0x3651 JUMP JUMPDEST PUSH1 0x1F DUP2 GT PUSH2 0x426C JUMPI JUMPDEST POP PUSH1 0x20 SWAP1 PUSH1 0x1F DUP4 GT PUSH1 0x1 EQ PUSH2 0x4205 JUMPI PUSH1 0x20 SWAP5 SWAP4 SWAP3 SWAP2 PUSH0 SWAP2 DUP4 PUSH2 0x41FA JUMPI JUMPDEST POP POP DUP2 PUSH1 0x1 SHL SWAP2 PUSH0 NOT SWAP1 PUSH1 0x3 SHL SHR NOT AND OR SWAP1 SSTORE JUMPDEST PUSH1 0x40 DUP2 ADD MLOAD PUSH1 0xC DUP6 ADD DUP1 SLOAD PUSH1 0x1 PUSH1 0x1 PUSH1 0xA0 SHL SUB NOT AND PUSH1 0x1 PUSH1 0x1 PUSH1 0xA0 SHL SUB SWAP3 SWAP1 SWAP3 AND SWAP2 SWAP1 SWAP2 OR SWAP1 SSTORE ADD MLOAD DUP1 MLOAD SWAP1 SWAP3 SWAP1 PUSH1 0xB DUP3 ADD SWAP1 PUSH1 0x1 PUSH1 0x1 PUSH1 0x40 SHL SUB DUP2 GT PUSH2 0x8B2 JUMPI PUSH2 0x40FD DUP3 SLOAD PUSH2 0x3651 JUMP JUMPDEST PUSH1 0x1F DUP2 GT PUSH2 0x41B5 JUMPI JUMPDEST POP PUSH1 0x20 SWAP5 PUSH1 0x1F DUP3 GT PUSH1 0x1 EQ PUSH2 0x4154 JUMPI SWAP5 DUP2 SWAP3 SWAP4 SWAP5 SWAP6 PUSH0 SWAP3 PUSH2 0x4149 JUMPI JUMPDEST POP POP DUP2 PUSH1 0x1 SHL SWAP2 PUSH0 NOT SWAP1 PUSH1 0x3 SHL SHR NOT AND OR SWAP1 SSTORE JUMPDEST TIMESTAMP PUSH1 0x3 DUP3 ADD SSTORE DUP1 SLOAD PUSH1 0xFF NOT AND PUSH1 0x2 OR SWAP1 SSTORE JUMP JUMPDEST ADD MLOAD SWAP1 POP PUSH0 DUP1 PUSH2 0x4122 JUMP JUMPDEST PUSH1 0x1F NOT DUP3 AND SWAP6 DUP4 PUSH0 MSTORE DUP1 PUSH0 KECCAK256 SWAP2 PUSH0 JUMPDEST DUP9 DUP2 LT PUSH2 0x419D JUMPI POP DUP4 PUSH1 0x1 SWAP6 SWAP7 SWAP8 SWAP9 LT PUSH2 0x4185 JUMPI JUMPDEST POP POP POP DUP2 SHL ADD SWAP1 SSTORE PUSH2 0x4136 JUMP JUMPDEST ADD MLOAD PUSH0 NOT PUSH1 0xF8 DUP5 PUSH1 0x3 SHL AND SHR NOT AND SWAP1 SSTORE PUSH0 DUP1 DUP1 PUSH2 0x4178 JUMP JUMPDEST SWAP2 SWAP3 PUSH1 0x20 PUSH1 0x1 DUP2 SWAP3 DUP7 DUP6 ADD MLOAD DUP2 SSTORE ADD SWAP5 ADD SWAP3 ADD PUSH2 0x4163 JUMP JUMPDEST DUP3 PUSH0 MSTORE PUSH1 0x20 PUSH0 KECCAK256 PUSH1 0x1F DUP4 ADD PUSH1 0x5 SHR DUP2 ADD SWAP2 PUSH1 0x20 DUP5 LT PUSH2 0x41F0 JUMPI JUMPDEST PUSH1 0x1F ADD PUSH1 0x5 SHR ADD SWAP1 JUMPDEST DUP2 DUP2 LT PUSH2 0x41E5 JUMPI POP PUSH2 0x4106 JUMP JUMPDEST PUSH0 DUP2 SSTORE PUSH1 0x1 ADD PUSH2 0x41D8 JUMP JUMPDEST SWAP1 SWAP2 POP DUP2 SWAP1 PUSH2 0x41CF JUMP JUMPDEST ADD MLOAD SWAP1 POP PUSH0 DUP1 PUSH2 0x409E JUMP JUMPDEST SWAP1 PUSH1 0x1F NOT DUP4 AND SWAP2 DUP5 PUSH0 MSTORE DUP2 PUSH0 KECCAK256 SWAP3 PUSH0 JUMPDEST DUP2 DUP2 LT PUSH2 0x4254 JUMPI POP SWAP2 PUSH1 0x1 SWAP4 SWAP2 DUP6 PUSH1 0x20 SWAP9 SWAP8 SWAP7 SWAP5 LT PUSH2 0x423C JUMPI JUMPDEST POP POP POP DUP2 SHL ADD SWAP1 SSTORE PUSH2 0x40B2 JUMP JUMPDEST ADD MLOAD PUSH0 NOT PUSH1 0xF8 DUP5 PUSH1 0x3 SHL AND SHR NOT AND SWAP1 SSTORE PUSH0 DUP1 DUP1 PUSH2 0x422F JUMP JUMPDEST SWAP3 SWAP4 PUSH1 0x20 PUSH1 0x1 DUP2 SWAP3 DUP8 DUP7 ADD MLOAD DUP2 SSTORE ADD SWAP6 ADD SWAP4 ADD PUSH2 0x4215 JUMP JUMPDEST DUP4 PUSH0 MSTORE PUSH1 0x20 PUSH0 KECCAK256 PUSH1 0x1F DUP5 ADD PUSH1 0x5 SHR DUP2 ADD SWAP2 PUSH1 0x20 DUP6 LT PUSH2 0x42A7 JUMPI JUMPDEST PUSH1 0x1F ADD PUSH1 0x5 SHR ADD SWAP1 JUMPDEST DUP2 DUP2 LT PUSH2 0x429C JUMPI POP PUSH2 0x4081 JUMP JUMPDEST PUSH0 DUP2 SSTORE PUSH1 0x1 ADD PUSH2 0x428F JUMP JUMPDEST SWAP1 SWAP2 POP DUP2 SWAP1 PUSH2 0x4286 JUMP JUMPDEST ADD MLOAD SWAP1 POP PUSH0 DUP1 PUSH2 0x4043 JUMP JUMPDEST PUSH0 DUP6 DUP2 MSTORE DUP3 DUP2 KECCAK256 SWAP4 POP PUSH1 0x1F NOT DUP6 AND SWAP1 JUMPDEST DUP2 DUP2 LT PUSH2 0x4307 JUMPI POP SWAP1 DUP5 PUSH1 0x1 SWAP6 SWAP5 SWAP4 SWAP3 LT PUSH2 0x42EF JUMPI JUMPDEST POP POP POP DUP2 SHL ADD SWAP1 SSTORE PUSH2 0x4057 JUMP JUMPDEST ADD MLOAD PUSH0 NOT PUSH1 0xF8 DUP5 PUSH1 0x3 SHL AND SHR NOT AND SWAP1 SSTORE PUSH0 DUP1 DUP1 PUSH2 0x42E2 JUMP JUMPDEST SWAP3 SWAP4 PUSH1 0x20 PUSH1 0x1 DUP2 SWAP3 DUP8 DUP7 ADD MLOAD DUP2 SSTORE ADD SWAP6 ADD SWAP4 ADD PUSH2 0x42CC JUMP JUMPDEST SWAP1 SWAP2 POP DUP4 PUSH0 MSTORE PUSH1 0x20 PUSH0 KECCAK256 PUSH1 0x1F DUP5 ADD PUSH1 0x5 SHR DUP2 ADD SWAP2 PUSH1 0x20 DUP6 LT PUSH2 0x4365 JUMPI JUMPDEST SWAP1 PUSH1 0x1F DUP6 SWAP5 SWAP4 SWAP3 ADD PUSH1 0x5 SHR ADD SWAP1 JUMPDEST DUP2 DUP2 LT PUSH2 0x4357 JUMPI POP PUSH2 0x402D JUMP JUMPDEST PUSH0 DUP2 SSTORE DUP5 SWAP4 POP PUSH1 0x1 ADD PUSH2 0x434A JUMP JUMPDEST SWAP1 SWAP2 POP DUP2 SWAP1 PUSH2 0x433C JUMP JUMPDEST PUSH1 0x20 DUP1 SWAP2 SWAP5 SWAP4 SWAP3 SWAP5 PUSH1 0x40 MLOAD SWAP3 DUP2 DUP5 SWAP3 MLOAD SWAP2 DUP3 SWAP2 ADD DUP4 MCOPY DUP2 ADD PUSH0 DUP2 MSTORE SUB ADD SWAP1 KECCAK256 SWAP1 DUP1 MLOAD PUSH1 0xA DUP4 ADD SWAP1 DUP1 MLOAD SWAP1 PUSH1 0x1 PUSH1 0x1 PUSH1 0x40 SHL SUB DUP3 GT PUSH2 0x8B2 JUMPI PUSH2 0x43B1 DUP4 SLOAD PUSH2 0x3651 JUMP JUMPDEST PUSH1 0x1F DUP2 GT PUSH2 0x46BD JUMPI JUMPDEST POP PUSH1 0x20 SWAP1 PUSH1 0x1F DUP4 GT PUSH1 0x1 EQ PUSH2 0x4656 JUMPI PUSH1 0x20 SWAP5 SWAP4 SWAP3 SWAP2 PUSH0 SWAP2 DUP4 PUSH2 0x464B JUMPI JUMPDEST POP POP DUP2 PUSH1 0x1 SHL SWAP2 PUSH0 NOT SWAP1 PUSH1 0x3 SHL SHR NOT AND OR SWAP1 SSTORE JUMPDEST PUSH1 0x40 DUP2 ADD MLOAD PUSH1 0xC DUP5 ADD DUP1 SLOAD PUSH1 0x1 PUSH1 0x1 PUSH1 0xA0 SHL SUB NOT AND PUSH1 0x1 PUSH1 0x1 PUSH1 0xA0 SHL SUB SWAP3 SWAP1 SWAP3 AND SWAP2 SWAP1 SWAP2 OR SWAP1 SSTORE ADD MLOAD DUP1 MLOAD PUSH1 0xB DUP4 ADD SWAP2 PUSH1 0x1 PUSH1 0x1 PUSH1 0x40 SHL SUB DUP3 GT PUSH2 0x8B2 JUMPI DUP2 SWAP1 PUSH2 0x4435 DUP5 SLOAD PUSH2 0x3651 JUMP JUMPDEST PUSH1 0x1F DUP2 GT PUSH2 0x45FB JUMPI JUMPDEST POP PUSH1 0x20 SWAP1 PUSH1 0x1F DUP4 GT PUSH1 0x1 EQ PUSH2 0x4598 JUMPI PUSH0 SWAP3 PUSH2 0x458D JUMPI JUMPDEST POP POP DUP2 PUSH1 0x1 SHL SWAP2 PUSH0 NOT SWAP1 PUSH1 0x3 SHL SHR NOT AND OR SWAP1 SSTORE JUMPDEST TIMESTAMP PUSH1 0x2 DUP3 ADD SSTORE PUSH1 0x82 TIMESTAMP ADD SWAP1 DUP2 TIMESTAMP GT PUSH2 0x102D JUMPI PUSH1 0xD SWAP2 PUSH1 0x5 DUP3 ADD SSTORE PUSH1 0x1 PUSH1 0xFF NOT DUP3 SLOAD AND OR DUP2 SSTORE ADD DUP3 MLOAD PUSH1 0x1 PUSH1 0x1 PUSH1 0x40 SHL SUB DUP2 GT PUSH2 0x8B2 JUMPI PUSH2 0x44A8 DUP3 SLOAD PUSH2 0x3651 JUMP JUMPDEST PUSH1 0x1F DUP2 GT PUSH2 0x4548 JUMPI JUMPDEST POP PUSH1 0x20 PUSH1 0x1F DUP3 GT PUSH1 0x1 EQ PUSH2 0x44EA JUMPI DUP2 SWAP3 SWAP4 SWAP5 PUSH0 SWAP3 PUSH2 0x44DF JUMPI JUMPDEST POP POP DUP2 PUSH1 0x1 SHL SWAP2 PUSH0 NOT SWAP1 PUSH1 0x3 SHL SHR NOT AND OR SWAP1 SSTORE JUMP JUMPDEST ADD MLOAD SWAP1 POP PUSH0 DUP1 PUSH2 0x44CA JUMP JUMPDEST PUSH1 0x1F NOT DUP3 AND SWAP1 DUP4 PUSH0 MSTORE DUP1 PUSH0 KECCAK256 SWAP2 PUSH0 JUMPDEST DUP2 DUP2 LT PUSH2 0x4530 JUMPI POP SWAP6 DUP4 PUSH1 0x1 SWAP6 SWAP7 SWAP8 LT PUSH2 0x4518 JUMPI JUMPDEST POP POP POP DUP2 SHL ADD SWAP1 SSTORE JUMP JUMPDEST ADD MLOAD PUSH0 NOT PUSH1 0xF8 DUP5 PUSH1 0x3 SHL AND SHR NOT AND SWAP1 SSTORE PUSH0 DUP1 DUP1 PUSH2 0x450E JUMP JUMPDEST SWAP2 SWAP3 PUSH1 0x20 PUSH1 0x1 DUP2 SWAP3 DUP7 DUP12 ADD MLOAD DUP2 SSTORE ADD SWAP5 ADD SWAP3 ADD PUSH2 0x44F9 JUMP JUMPDEST DUP3 PUSH0 MSTORE PUSH1 0x20 PUSH0 KECCAK256 PUSH1 0x1F DUP4 ADD PUSH1 0x5 SHR DUP2 ADD SWAP2 PUSH1 0x20 DUP5 LT PUSH2 0x4583 JUMPI JUMPDEST PUSH1 0x1F ADD PUSH1 0x5 SHR ADD SWAP1 JUMPDEST DUP2 DUP2 LT PUSH2 0x4578 JUMPI POP PUSH2 0x44B1 JUMP JUMPDEST PUSH0 DUP2 SSTORE PUSH1 0x1 ADD PUSH2 0x456B JUMP JUMPDEST SWAP1 SWAP2 POP DUP2 SWAP1 PUSH2 0x4562 JUMP JUMPDEST ADD MLOAD SWAP1 POP PUSH0 DUP1 PUSH2 0x4454 JUMP JUMPDEST PUSH0 DUP6 DUP2 MSTORE DUP3 DUP2 KECCAK256 SWAP4 POP PUSH1 0x1F NOT DUP6 AND SWAP1 JUMPDEST DUP2 DUP2 LT PUSH2 0x45E3 JUMPI POP SWAP1 DUP5 PUSH1 0x1 SWAP6 SWAP5 SWAP4 SWAP3 LT PUSH2 0x45CB JUMPI JUMPDEST POP POP POP DUP2 SHL ADD SWAP1 SSTORE PUSH2 0x4468 JUMP JUMPDEST ADD MLOAD PUSH0 NOT PUSH1 0xF8 DUP5 PUSH1 0x3 SHL AND SHR NOT AND SWAP1 SSTORE PUSH0 DUP1 DUP1 PUSH2 0x45BE JUMP JUMPDEST SWAP3 SWAP4 PUSH1 0x20 PUSH1 0x1 DUP2 SWAP3 DUP8 DUP7 ADD MLOAD DUP2 SSTORE ADD SWAP6 ADD SWAP4 ADD PUSH2 0x45A8 JUMP JUMPDEST SWAP1 SWAP2 POP DUP4 PUSH0 MSTORE PUSH1 0x20 PUSH0 KECCAK256 PUSH1 0x1F DUP5 ADD PUSH1 0x5 SHR DUP2 ADD SWAP2 PUSH1 0x20 DUP6 LT PUSH2 0x4641 JUMPI JUMPDEST SWAP1 PUSH1 0x1F DUP6 SWAP5 SWAP4 SWAP3 ADD PUSH1 0x5 SHR ADD SWAP1 JUMPDEST DUP2 DUP2 LT PUSH2 0x4633 JUMPI POP PUSH2 0x443E JUMP JUMPDEST PUSH0 DUP2 SSTORE DUP5 SWAP4 POP PUSH1 0x1 ADD PUSH2 0x4626 JUMP JUMPDEST SWAP1 SWAP2 POP DUP2 SWAP1 PUSH2 0x4618 JUMP JUMPDEST ADD MLOAD SWAP1 POP PUSH0 DUP1 PUSH2 0x43D7 JUMP JUMPDEST SWAP1 PUSH1 0x1F NOT DUP4 AND SWAP2 DUP5 PUSH0 MSTORE DUP2 PUSH0 KECCAK256 SWAP3 PUSH0 JUMPDEST DUP2 DUP2 LT PUSH2 0x46A5 JUMPI POP SWAP2 PUSH1 0x1 SWAP4 SWAP2 DUP6 PUSH1 0x20 SWAP9 SWAP8 SWAP7 SWAP5 LT PUSH2 0x468D JUMPI JUMPDEST POP POP POP DUP2 SHL ADD SWAP1 SSTORE PUSH2 0x43EB JUMP JUMPDEST ADD MLOAD PUSH0 NOT PUSH1 0xF8 DUP5 PUSH1 0x3 SHL AND SHR NOT AND SWAP1 SSTORE PUSH0 DUP1 DUP1 PUSH2 0x4680 JUMP JUMPDEST SWAP3 SWAP4 PUSH1 0x20 PUSH1 0x1 DUP2 SWAP3 DUP8 DUP7 ADD MLOAD DUP2 SSTORE ADD SWAP6 ADD SWAP4 ADD PUSH2 0x4666 JUMP JUMPDEST DUP4 PUSH0 MSTORE PUSH1 0x20 PUSH0 KECCAK256 PUSH1 0x1F DUP5 ADD PUSH1 0x5 SHR DUP2 ADD SWAP2 PUSH1 0x20 DUP6 LT PUSH2 0x46F8 JUMPI JUMPDEST PUSH1 0x1F ADD PUSH1 0x5 SHR ADD SWAP1 JUMPDEST DUP2 DUP2 LT PUSH2 0x46ED JUMPI POP PUSH2 0x43BA JUMP JUMPDEST PUSH0 DUP2 SSTORE PUSH1 0x1 ADD PUSH2 0x46E0 JUMP JUMPDEST SWAP1 SWAP2 POP DUP2 SWAP1 PUSH2 0x46D7 JUMP JUMPDEST PUSH1 0x20 DUP1 SWAP2 SWAP4 SWAP3 SWAP4 PUSH1 0x40 MLOAD SWAP3 DUP2 DUP5 SWAP3 MLOAD SWAP2 DUP3 SWAP2 ADD DUP4 MCOPY DUP2 ADD PUSH0 DUP2 MSTORE SUB ADD SWAP1 KECCAK256 TIMESTAMP PUSH1 0x2 DUP3 ADD SSTORE PUSH1 0x82 TIMESTAMP ADD SWAP1 DUP2 TIMESTAMP GT PUSH2 0x102D JUMPI PUSH1 0xD SWAP2 PUSH1 0x5 DUP3 ADD SSTORE PUSH1 0x6 PUSH1 0xFF NOT DUP3 SLOAD AND OR DUP2 SSTORE ADD DUP3 MLOAD PUSH1 0x1 PUSH1 0x1 PUSH1 0x40 SHL SUB DUP2 GT PUSH2 0x8B2 JUMPI PUSH2 0x4760 DUP3 SLOAD PUSH2 0x3651 JUMP JUMPDEST PUSH1 0x1F DUP2 GT PUSH2 0x47DB JUMPI JUMPDEST POP PUSH1 0x20 PUSH1 0x1F DUP3 GT PUSH1 0x1 EQ PUSH2 0x4796 JUMPI DUP2 SWAP3 SWAP4 SWAP5 PUSH0 SWAP3 PUSH2 0x44DF JUMPI POP POP DUP2 PUSH1 0x1 SHL SWAP2 PUSH0 NOT SWAP1 PUSH1 0x3 SHL SHR NOT AND OR SWAP1 SSTORE JUMP JUMPDEST PUSH1 0x1F NOT DUP3 AND SWAP1 DUP4 PUSH0 MSTORE DUP1 PUSH0 KECCAK256 SWAP2 PUSH0 JUMPDEST DUP2 DUP2 LT PUSH2 0x47C3 JUMPI POP SWAP6 DUP4 PUSH1 0x1 SWAP6 SWAP7 SWAP8 LT PUSH2 0x4518 JUMPI POP POP POP DUP2 SHL ADD SWAP1 SSTORE JUMP JUMPDEST SWAP2 SWAP3 PUSH1 0x20 PUSH1 0x1 DUP2 SWAP3 DUP7 DUP12 ADD MLOAD DUP2 SSTORE ADD SWAP5 ADD SWAP3 ADD PUSH2 0x47A5 JUMP JUMPDEST DUP3 PUSH0 MSTORE PUSH1 0x20 PUSH0 KECCAK256 PUSH1 0x1F DUP4 ADD PUSH1 0x5 SHR DUP2 ADD SWAP2 PUSH1 0x20 DUP5 LT PUSH2 0x4816 JUMPI JUMPDEST PUSH1 0x1F ADD PUSH1 0x5 SHR ADD SWAP1 JUMPDEST DUP2 DUP2 LT PUSH2 0x480B JUMPI POP PUSH2 0x4769 JUMP JUMPDEST PUSH0 DUP2 SSTORE PUSH1 0x1 ADD PUSH2 0x47FE JUMP JUMPDEST SWAP1 SWAP2 POP DUP2 SWAP1 PUSH2 0x47F5 JUMP JUMPDEST SWAP3 SWAP1 SWAP2 PUSH1 0x40 MLOAD PUSH2 0x482F DUP2 PUSH2 0x3547 JUMP JUMPDEST PUSH0 DUP2 MSTORE PUSH1 0x20 DUP2 ADD SWAP5 TIMESTAMP DUP7 MSTORE PUSH1 0x40 DUP3 ADD PUSH0 DUP2 MSTORE PUSH1 0x60 DUP4 ADD PUSH0 DUP2 MSTORE PUSH1 0x80 DUP5 ADD PUSH0 DUP2 MSTORE PUSH1 0xA0 DUP6 ADD SWAP2 PUSH0 DUP4 MSTORE PUSH1 0xC0 DUP7 ADD SWAP4 PUSH0 DUP6 MSTORE PUSH1 0xE0 DUP8 ADD SWAP6 DUP7 MSTORE PUSH2 0x100 DUP8 ADD SWAP10 DUP11 MSTORE PUSH1 0x20 SWAP11 DUP12 DUP1 PUSH1 0x40 MLOAD SWAP11 PUSH2 0x4881 DUP3 DUP14 PUSH2 0x3563 JUMP JUMPDEST PUSH0 DUP13 MSTORE PUSH2 0x120 DUP12 ADD SWAP12 DUP13 MSTORE PUSH1 0x40 MLOAD SWAP3 DUP2 DUP5 SWAP3 MLOAD SWAP2 DUP3 SWAP2 ADD DUP4 MCOPY DUP2 ADD PUSH0 DUP2 MSTORE SUB ADD SWAP1 KECCAK256 SWAP8 MLOAD PUSH1 0x7 DUP2 LT ISZERO PUSH2 0x26EA JUMPI PUSH1 0xFF DUP1 NOT DUP11 SLOAD AND SWAP2 AND OR DUP9 SSTORE MLOAD PUSH1 0x1 DUP9 ADD SSTORE MLOAD PUSH1 0x2 DUP8 ADD SSTORE MLOAD PUSH1 0x3 DUP7 ADD SSTORE MLOAD PUSH1 0x4 DUP6 ADD SSTORE MLOAD PUSH1 0x5 DUP5 ADD SSTORE MLOAD PUSH1 0x6 DUP4 ADD SSTORE PUSH1 0x7 DUP3 ADD SWAP1 MLOAD SWAP1 DUP2 MLOAD DUP1 MLOAD SWAP1 PUSH1 0x1 PUSH1 0x1 PUSH1 0x40 SHL SUB DUP3 GT PUSH2 0x8B2 JUMPI DUP2 SWAP1 PUSH2 0x4904 DUP5 SLOAD PUSH2 0x3651 JUMP JUMPDEST PUSH1 0x1F DUP2 GT PUSH2 0x4E11 JUMPI JUMPDEST POP DUP10 SWAP1 PUSH1 0x1F DUP4 GT PUSH1 0x1 EQ PUSH2 0x4DAE JUMPI PUSH0 SWAP3 PUSH2 0x4DA3 JUMPI JUMPDEST POP POP DUP2 PUSH1 0x1 SHL SWAP2 PUSH0 NOT SWAP1 PUSH1 0x3 SHL SHR NOT AND OR SWAP1 SSTORE JUMPDEST PUSH1 0x8 DUP3 ADD DUP7 DUP3 ADD MLOAD DUP1 MLOAD SWAP1 PUSH1 0x1 PUSH1 0x1 PUSH1 0x40 SHL SUB DUP3 GT PUSH2 0x8B2 JUMPI DUP2 SWAP1 PUSH2 0x495B DUP5 SLOAD PUSH2 0x3651 JUMP JUMPDEST PUSH1 0x1F DUP2 GT PUSH2 0x4D55 JUMPI JUMPDEST POP DUP10 SWAP1 PUSH1 0x1F DUP4 GT PUSH1 0x1 EQ PUSH2 0x4CF2 JUMPI PUSH0 SWAP3 PUSH2 0x4CE7 JUMPI JUMPDEST POP POP DUP2 PUSH1 0x1 SHL SWAP2 PUSH0 NOT SWAP1 PUSH1 0x3 SHL SHR NOT AND OR SWAP1 SSTORE JUMPDEST PUSH1 0x40 ADD MLOAD PUSH1 0x9 DUP3 ADD DUP1 SLOAD PUSH1 0x1 PUSH1 0x1 PUSH1 0xA0 SHL SUB NOT AND PUSH1 0x1 PUSH1 0x1 PUSH1 0xA0 SHL SUB SWAP3 SWAP1 SWAP3 AND SWAP2 SWAP1 SWAP2 OR SWAP1 SSTORE SWAP3 MLOAD DUP1 MLOAD DUP1 MLOAD SWAP2 SWAP5 SWAP2 PUSH1 0xA DUP4 ADD SWAP2 PUSH1 0x1 PUSH1 0x1 PUSH1 0x40 SHL SUB DUP3 GT PUSH2 0x8B2 JUMPI DUP2 SWAP1 PUSH2 0x49DB DUP5 SLOAD PUSH2 0x3651 JUMP JUMPDEST PUSH1 0x1F DUP2 GT PUSH2 0x4C99 JUMPI JUMPDEST POP DUP9 SWAP1 PUSH1 0x1F DUP4 GT PUSH1 0x1 EQ PUSH2 0x4C36 JUMPI PUSH0 SWAP3 PUSH2 0x4C2B JUMPI JUMPDEST POP POP DUP2 PUSH1 0x1 SHL SWAP2 PUSH0 NOT SWAP1 PUSH1 0x3 SHL SHR NOT AND OR SWAP1 SSTORE JUMPDEST PUSH1 0xB DUP2 ADD SWAP4 DUP6 DUP2 ADD MLOAD SWAP5 DUP6 MLOAD SWAP6 PUSH1 0x1 PUSH1 0x1 PUSH1 0x40 SHL SUB DUP8 GT PUSH2 0x8B2 JUMPI PUSH2 0x4A32 DUP3 SLOAD PUSH2 0x3651 JUMP JUMPDEST PUSH1 0x1F DUP2 GT PUSH2 0x4BE8 JUMPI JUMPDEST POP DUP8 SWAP1 PUSH1 0x1F DUP9 GT PUSH1 0x1 EQ PUSH2 0x4B81 JUMPI SWAP7 DUP1 SWAP2 PUSH1 0xD SWAP7 SWAP8 SWAP9 PUSH0 SWAP3 PUSH2 0x4B76 JUMPI JUMPDEST POP POP DUP2 PUSH1 0x1 SHL SWAP2 PUSH0 NOT SWAP1 PUSH1 0x3 SHL SHR NOT AND OR SWAP1 SSTORE JUMPDEST PUSH1 0x40 ADD MLOAD PUSH1 0xC DUP3 ADD DUP1 SLOAD PUSH1 0x1 PUSH1 0x1 PUSH1 0xA0 SHL SUB NOT AND PUSH1 0x1 PUSH1 0x1 PUSH1 0xA0 SHL SUB SWAP3 SWAP1 SWAP3 AND SWAP2 SWAP1 SWAP2 OR SWAP1 SSTORE SWAP2 MLOAD DUP1 MLOAD SWAP1 SWAP5 SWAP2 SWAP1 SWAP3 ADD SWAP2 SWAP1 PUSH1 0x1 PUSH1 0x1 PUSH1 0x40 SHL SUB DUP3 GT PUSH2 0x8B2 JUMPI PUSH2 0x4AB6 DUP4 SLOAD PUSH2 0x3651 JUMP JUMPDEST PUSH1 0x1F DUP2 GT PUSH2 0x4B33 JUMPI JUMPDEST POP DUP1 PUSH1 0x1F DUP4 GT PUSH1 0x1 EQ PUSH2 0x4AEC JUMPI POP DUP2 SWAP3 SWAP4 SWAP5 PUSH0 SWAP3 PUSH2 0x44DF JUMPI POP POP DUP2 PUSH1 0x1 SHL SWAP2 PUSH0 NOT SWAP1 PUSH1 0x3 SHL SHR NOT AND OR SWAP1 SSTORE JUMP JUMPDEST SWAP1 PUSH1 0x1F NOT DUP4 AND SWAP6 DUP5 PUSH0 MSTORE DUP3 PUSH0 KECCAK256 SWAP3 PUSH0 SWAP1 JUMPDEST DUP9 DUP3 LT PUSH2 0x4B1B JUMPI POP POP DUP4 PUSH1 0x1 SWAP6 SWAP7 SWAP8 LT PUSH2 0x4518 JUMPI POP POP POP DUP2 SHL ADD SWAP1 SSTORE JUMP JUMPDEST DUP1 PUSH1 0x1 DUP6 SWAP7 DUP3 SWAP5 SWAP7 DUP7 ADD MLOAD DUP2 SSTORE ADD SWAP6 ADD SWAP4 ADD SWAP1 PUSH2 0x4AFD JUMP JUMPDEST DUP4 PUSH0 MSTORE DUP2 PUSH0 KECCAK256 PUSH1 0x1F DUP5 ADD PUSH1 0x5 SHR DUP2 ADD SWAP2 DUP4 DUP6 LT PUSH2 0x4B6C JUMPI JUMPDEST PUSH1 0x1F ADD PUSH1 0x5 SHR ADD SWAP1 JUMPDEST DUP2 DUP2 LT PUSH2 0x4B61 JUMPI POP PUSH2 0x4ABF JUMP JUMPDEST PUSH0 DUP2 SSTORE PUSH1 0x1 ADD PUSH2 0x4B54 JUMP JUMPDEST SWAP1 SWAP2 POP DUP2 SWAP1 PUSH2 0x4B4B JUMP JUMPDEST ADD MLOAD SWAP1 POP PUSH0 DUP1 PUSH2 0x4A58 JUMP JUMPDEST SWAP1 PUSH1 0x1F NOT DUP9 AND SWAP2 DUP4 PUSH0 MSTORE DUP10 PUSH0 KECCAK256 SWAP3 PUSH0 JUMPDEST DUP12 DUP3 DUP3 LT PUSH2 0x4BD2 JUMPI POP POP SWAP2 PUSH1 0x1 SWAP4 SWAP2 DUP11 PUSH1 0xD SWAP10 SWAP11 SWAP12 SWAP5 LT PUSH2 0x4BBA JUMPI JUMPDEST POP POP POP DUP2 SHL ADD SWAP1 SSTORE PUSH2 0x4A6C JUMP JUMPDEST ADD MLOAD PUSH0 NOT PUSH1 0xF8 DUP5 PUSH1 0x3 SHL AND SHR NOT AND SWAP1 SSTORE PUSH0 DUP1 DUP1 PUSH2 0x4BAD JUMP JUMPDEST PUSH1 0x1 DUP6 SWAP7 DUP3 SWAP4 SWAP7 DUP7 ADD MLOAD DUP2 SSTORE ADD SWAP6 ADD SWAP4 ADD PUSH2 0x4B91 JUMP JUMPDEST DUP3 PUSH0 MSTORE DUP9 PUSH0 KECCAK256 PUSH1 0x1F DUP10 ADD PUSH1 0x5 SHR DUP2 ADD SWAP2 DUP11 DUP11 LT PUSH2 0x4C21 JUMPI JUMPDEST PUSH1 0x1F ADD PUSH1 0x5 SHR ADD SWAP1 JUMPDEST DUP2 DUP2 LT PUSH2 0x4C16 JUMPI POP PUSH2 0x4A3B JUMP JUMPDEST PUSH0 DUP2 SSTORE PUSH1 0x1 ADD PUSH2 0x4C09 JUMP JUMPDEST SWAP1 SWAP2 POP DUP2 SWAP1 PUSH2 0x4C00 JUMP JUMPDEST ADD MLOAD SWAP1 POP PUSH0 DUP1 PUSH2 0x49F9 JUMP JUMPDEST PUSH0 DUP6 DUP2 MSTORE DUP11 DUP2 KECCAK256 SWAP4 POP PUSH1 0x1F NOT DUP6 AND SWAP1 JUMPDEST DUP12 DUP3 DUP3 LT PUSH2 0x4C83 JUMPI POP POP SWAP1 DUP5 PUSH1 0x1 SWAP6 SWAP5 SWAP4 SWAP3 LT PUSH2 0x4C6B JUMPI JUMPDEST POP POP POP DUP2 SHL ADD SWAP1 SSTORE PUSH2 0x4A0D JUMP JUMPDEST ADD MLOAD PUSH0 NOT PUSH1 0xF8 DUP5 PUSH1 0x3 SHL AND SHR NOT AND SWAP1 SSTORE PUSH0 DUP1 DUP1 PUSH2 0x4C5E JUMP JUMPDEST PUSH1 0x1 DUP6 SWAP7 DUP3 SWAP4 SWAP7 DUP7 ADD MLOAD DUP2 SSTORE ADD SWAP6 ADD SWAP4 ADD PUSH2 0x4C46 JUMP JUMPDEST SWAP1 SWAP2 POP DUP4 PUSH0 MSTORE DUP9 PUSH0 KECCAK256 PUSH1 0x1F DUP5 ADD PUSH1 0x5 SHR DUP2 ADD SWAP2 DUP11 DUP6 LT PUSH2 0x4CDD JUMPI JUMPDEST SWAP1 PUSH1 0x1F DUP6 SWAP5 SWAP4 SWAP3 ADD PUSH1 0x5 SHR ADD SWAP1 JUMPDEST DUP2 DUP2 LT PUSH2 0x4CCF JUMPI POP PUSH2 0x49E4 JUMP JUMPDEST PUSH0 DUP2 SSTORE DUP5 SWAP4 POP PUSH1 0x1 ADD PUSH2 0x4CC2 JUMP JUMPDEST SWAP1 SWAP2 POP DUP2 SWAP1 PUSH2 0x4CB4 JUMP JUMPDEST ADD MLOAD SWAP1 POP PUSH0 DUP1 PUSH2 0x4979 JUMP JUMPDEST PUSH0 DUP6 DUP2 MSTORE DUP12 DUP2 KECCAK256 SWAP4 POP PUSH1 0x1F NOT DUP6 AND SWAP1 JUMPDEST DUP13 DUP3 DUP3 LT PUSH2 0x4D3F JUMPI POP POP SWAP1 DUP5 PUSH1 0x1 SWAP6 SWAP5 SWAP4 SWAP3 LT PUSH2 0x4D27 JUMPI JUMPDEST POP POP POP DUP2 SHL ADD SWAP1 SSTORE PUSH2 0x498D JUMP JUMPDEST ADD MLOAD PUSH0 NOT PUSH1 0xF8 DUP5 PUSH1 0x3 SHL AND SHR NOT AND SWAP1 SSTORE PUSH0 DUP1 DUP1 PUSH2 0x4D1A JUMP JUMPDEST PUSH1 0x1 DUP6 SWAP7 DUP3 SWAP4 SWAP7 DUP7 ADD MLOAD DUP2 SSTORE ADD SWAP6 ADD SWAP4 ADD PUSH2 0x4D02 JUMP JUMPDEST SWAP1 SWAP2 POP DUP4 PUSH0 MSTORE DUP10 PUSH0 KECCAK256 PUSH1 0x1F DUP5 ADD PUSH1 0x5 SHR DUP2 ADD SWAP2 DUP12 DUP6 LT PUSH2 0x4D99 JUMPI JUMPDEST SWAP1 PUSH1 0x1F DUP6 SWAP5 SWAP4 SWAP3 ADD PUSH1 0x5 SHR ADD SWAP1 JUMPDEST DUP2 DUP2 LT PUSH2 0x4D8B JUMPI POP PUSH2 0x4964 JUMP JUMPDEST PUSH0 DUP2 SSTORE DUP5 SWAP4 POP PUSH1 0x1 ADD PUSH2 0x4D7E JUMP JUMPDEST SWAP1 SWAP2 POP DUP2 SWAP1 PUSH2 0x4D70 JUMP JUMPDEST ADD MLOAD SWAP1 POP PUSH0 DUP1 PUSH2 0x4922 JUMP JUMPDEST PUSH0 DUP6 DUP2 MSTORE DUP12 DUP2 KECCAK256 SWAP4 POP PUSH1 0x1F NOT DUP6 AND SWAP1 JUMPDEST DUP13 DUP3 DUP3 LT PUSH2 0x4DFB JUMPI POP POP SWAP1 DUP5 PUSH1 0x1 SWAP6 SWAP5 SWAP4 SWAP3 LT PUSH2 0x4DE3 JUMPI JUMPDEST POP POP POP DUP2 SHL ADD SWAP1 SSTORE PUSH2 0x4936 JUMP JUMPDEST ADD MLOAD PUSH0 NOT PUSH1 0xF8 DUP5 PUSH1 0x3 SHL AND SHR NOT AND SWAP1 SSTORE PUSH0 DUP1 DUP1 PUSH2 0x4DD6 JUMP JUMPDEST PUSH1 0x1 DUP6 SWAP7 DUP3 SWAP4 SWAP7 DUP7 ADD MLOAD DUP2 SSTORE ADD SWAP6 ADD SWAP4 ADD PUSH2 0x4DBE JUMP JUMPDEST SWAP1 SWAP2 POP DUP4 PUSH0 MSTORE DUP10 PUSH0 KECCAK256 PUSH1 0x1F DUP5 ADD PUSH1 0x5 SHR DUP2 ADD SWAP2 DUP12 DUP6 LT PUSH2 0x4E55 JUMPI JUMPDEST SWAP1 PUSH1 0x1F DUP6 SWAP5 SWAP4 SWAP3 ADD PUSH1 0x5 SHR ADD SWAP1 JUMPDEST DUP2 DUP2 LT PUSH2 0x4E47 JUMPI POP PUSH2 0x490D JUMP JUMPDEST PUSH0 DUP2 SSTORE DUP5 SWAP4 POP PUSH1 0x1 ADD PUSH2 0x4E3A JUMP JUMPDEST SWAP1 SWAP2 POP DUP2 SWAP1 PUSH2 0x4E2C JUMP INVALID LOG2 PUSH5 0x6970667358 0x22 SLT KECCAK256 0xE2 0xC0 CALLDATASIZE STATICCALL PUSH18 0xE8C136C5B78867C039009BD18B4EC46CA7E1 PREVRANDAO PUSH17 0xD9F2A2518759EE64736F6C634300081B00 CALLER "},"methodIdentifiers":{"allCdobData(uint256)":"43762aa8","approveCdob(string,string,string,string,address,string)":"2b93f7f2","approveExtendCdob(string,string)":"9c6b1f10","cdobDataById(string)":"72c17cb9","certDetailById(string)":"34a34f30","createCertificateDetails((string,string,address),(string,string,address),string)":"fb5fb9a3","createUserCertificate(string,string,address)":"2e9cf827","dokuAdminById(string)":"7ab09648","dokuTeknisById(string)":"500619d0","extendCdob(string,uint256)":"93b73ba2","getAllCdob()":"f14261d2","getAllCdobByInstance(string)":"6f12c230","getCdobDetails(string)":"7e8f8da7","getCertDetail(string)":"9aaa5d8b","getCertDetails(string)":"be2e2325","getRejectMsg(string)":"6d1aa7d5","getRejectsMsg(string)":"761fb19a","getSenderDetail(string)":"17e68309","rejectCdob(string,string,string,string,address)":"1acf2500","rejectMsgById(string)":"bf3f80ac","renewRequestCdob(string,(string,string),(string,string,string,string,string,string,string,string))":"a7226527","requestCdob(string,string,string,address,uint8,(string,string),(string,string,string,string,string,string,string,string))":"682053d9","updateBpomApproveDetails(string,string,(string,string,address))":"f5104ff1","updateBpomExtendCertificateDetails(string,string)":"f53ef126","updateBpomRejectDetails(string,string,(string,string,address))":"e9c260d7","updateExtendRenewDetails(string,uint256)":"9740dbed","updateRenewDetails(string)":"19859c87"}}}}}