{"contracts/CpotbCertificate.sol":{"CpotbCertificate":{"abi":[{"inputs":[{"internalType":"uint256","name":"","type":"uint256"}],"name":"allCpotbData","outputs":[{"internalType":"string","name":"certId","type":"string"},{"internalType":"string","name":"certNumber","type":"string"},{"internalType":"string","name":"instanceName","type":"string"},{"internalType":"uint8","name":"tipePermohonan","type":"uint8"},{"internalType":"enum EnumsLibrary.StatusCertificate","name":"status","type":"uint8"}],"stateMutability":"view","type":"function"},{"inputs":[{"internalType":"string","name":"_certNumber","type":"string"},{"internalType":"string","name":"_certId","type":"string"},{"internalType":"string","name":"_bpomName","type":"string"},{"internalType":"string","name":"_bpomInstance","type":"string"},{"internalType":"address","name":"_bpomAddr","type":"address"},{"internalType":"string","name":"_ipfsCert","type":"string"}],"name":"approveCpotb","outputs":[],"stateMutability":"nonpayable","type":"function"},{"inputs":[{"internalType":"string","name":"","type":"string"},{"internalType":"uint256","name":"","type":"uint256"}],"name":"approvedTipePermohonanByFactory","outputs":[{"internalType":"string","name":"ipfsCert","type":"string"},{"internalType":"uint8","name":"tipePermohonan","type":"uint8"}],"stateMutability":"view","type":"function"},{"inputs":[{"internalType":"string","name":"","type":"string"}],"name":"certDetailsById","outputs":[{"internalType":"enum EnumsLibrary.StatusCertificate","name":"status","type":"uint8"},{"internalType":"uint256","name":"timestampRequest","type":"uint256"},{"internalType":"uint256","name":"timestampApprove","type":"uint256"},{"internalType":"uint256","name":"timestampRejected","type":"uint256"},{"internalType":"uint256","name":"timestsmpRenewRequest","type":"uint256"},{"components":[{"internalType":"string","name":"userName","type":"string"},{"internalType":"string","name":"userInstance","type":"string"},{"internalType":"address","name":"userAddr","type":"address"}],"internalType":"struct BaseCertificate.st_userCertificate","name":"sender","type":"tuple"},{"components":[{"internalType":"string","name":"userName","type":"string"},{"internalType":"string","name":"userInstance","type":"string"},{"internalType":"address","name":"userAddr","type":"address"}],"internalType":"struct BaseCertificate.st_userCertificate","name":"bpom","type":"tuple"},{"internalType":"string","name":"ipfsCert","type":"string"}],"stateMutability":"view","type":"function"},{"inputs":[{"internalType":"string","name":"","type":"string"}],"name":"cpotbDataById","outputs":[{"internalType":"string","name":"cpotbId","type":"string"},{"internalType":"string","name":"cpotbNumber","type":"string"},{"internalType":"uint8","name":"tipePermohonan","type":"uint8"},{"internalType":"string","name":"factoryType","type":"string"}],"stateMutability":"view","type":"function"},{"inputs":[{"components":[{"internalType":"string","name":"userName","type":"string"},{"internalType":"string","name":"userInstance","type":"string"},{"internalType":"address","name":"userAddr","type":"address"}],"internalType":"struct BaseCertificate.st_userCertificate","name":"_sender","type":"tuple"},{"components":[{"internalType":"string","name":"userName","type":"string"},{"internalType":"string","name":"userInstance","type":"string"},{"internalType":"address","name":"userAddr","type":"address"}],"internalType":"struct BaseCertificate.st_userCertificate","name":"_bpom","type":"tuple"},{"internalType":"string","name":"_certId","type":"string"}],"name":"createCertificateDetails","outputs":[],"stateMutability":"nonpayable","type":"function"},{"inputs":[{"internalType":"string","name":"_userName","type":"string"},{"internalType":"address","name":"_userAddr","type":"address"},{"internalType":"string","name":"_userInstance","type":"string"}],"name":"createUserCertificate","outputs":[{"components":[{"internalType":"string","name":"userName","type":"string"},{"internalType":"string","name":"userInstance","type":"string"},{"internalType":"address","name":"userAddr","type":"address"}],"internalType":"struct BaseCertificate.st_userCertificate","name":"","type":"tuple"}],"stateMutability":"pure","type":"function"},{"inputs":[],"name":"getAllCpotb","outputs":[{"components":[{"internalType":"string","name":"certId","type":"string"},{"internalType":"string","name":"certNumber","type":"string"},{"internalType":"string","name":"instanceName","type":"string"},{"internalType":"uint8","name":"tipePermohonan","type":"uint8"},{"internalType":"enum EnumsLibrary.StatusCertificate","name":"status","type":"uint8"}],"internalType":"struct CpotbCertificate.st_certificateList[]","name":"","type":"tuple[]"}],"stateMutability":"view","type":"function"},{"inputs":[{"internalType":"string","name":"_instanceName","type":"string"}],"name":"getAllCpotbByInstance","outputs":[{"components":[{"internalType":"string","name":"certId","type":"string"},{"internalType":"string","name":"certNumber","type":"string"},{"internalType":"string","name":"instanceName","type":"string"},{"internalType":"uint8","name":"tipePermohonan","type":"uint8"},{"internalType":"enum EnumsLibrary.StatusCertificate","name":"status","type":"uint8"}],"internalType":"struct CpotbCertificate.st_certificateList[]","name":"","type":"tuple[]"}],"stateMutability":"view","type":"function"},{"inputs":[{"internalType":"string","name":"_certId","type":"string"}],"name":"getCertDetail","outputs":[{"components":[{"internalType":"enum EnumsLibrary.StatusCertificate","name":"status","type":"uint8"},{"internalType":"uint256","name":"timestampRequest","type":"uint256"},{"internalType":"uint256","name":"timestampApprove","type":"uint256"},{"internalType":"uint256","name":"timestampRejected","type":"uint256"},{"internalType":"uint256","name":"timestsmpRenewRequest","type":"uint256"},{"components":[{"internalType":"string","name":"userName","type":"string"},{"internalType":"string","name":"userInstance","type":"string"},{"internalType":"address","name":"userAddr","type":"address"}],"internalType":"struct BaseCertificate.st_userCertificate","name":"sender","type":"tuple"},{"components":[{"internalType":"string","name":"userName","type":"string"},{"internalType":"string","name":"userInstance","type":"string"},{"internalType":"address","name":"userAddr","type":"address"}],"internalType":"struct BaseCertificate.st_userCertificate","name":"bpom","type":"tuple"},{"internalType":"string","name":"ipfsCert","type":"string"}],"internalType":"struct BaseCertificate.st_certificateDetails","name":"","type":"tuple"}],"stateMutability":"view","type":"function"},{"inputs":[{"internalType":"string","name":"_certId","type":"string"}],"name":"getCertDetails","outputs":[{"components":[{"internalType":"enum EnumsLibrary.StatusCertificate","name":"status","type":"uint8"},{"internalType":"uint256","name":"timestampRequest","type":"uint256"},{"internalType":"uint256","name":"timestampApprove","type":"uint256"},{"internalType":"uint256","name":"timestampRejected","type":"uint256"},{"internalType":"uint256","name":"timestsmpRenewRequest","type":"uint256"},{"components":[{"internalType":"string","name":"userName","type":"string"},{"internalType":"string","name":"userInstance","type":"string"},{"internalType":"address","name":"userAddr","type":"address"}],"internalType":"struct BaseCertificate.st_userCertificate","name":"sender","type":"tuple"},{"components":[{"internalType":"string","name":"userName","type":"string"},{"internalType":"string","name":"userInstance","type":"string"},{"internalType":"address","name":"userAddr","type":"address"}],"internalType":"struct BaseCertificate.st_userCertificate","name":"bpom","type":"tuple"},{"internalType":"string","name":"ipfsCert","type":"string"}],"internalType":"struct BaseCertificate.st_certificateDetails","name":"","type":"tuple"}],"stateMutability":"view","type":"function"},{"inputs":[{"internalType":"string","name":"_certId","type":"string"}],"name":"getCpotbDetails","outputs":[{"components":[{"internalType":"string","name":"cpotbId","type":"string"},{"internalType":"string","name":"cpotbNumber","type":"string"},{"internalType":"uint8","name":"tipePermohonan","type":"uint8"},{"internalType":"string","name":"factoryType","type":"string"}],"internalType":"struct CpotbCertificate.st_cpotb","name":"","type":"tuple"}],"stateMutability":"view","type":"function"},{"inputs":[{"internalType":"string","name":"_certId","type":"string"}],"name":"getRejectMsg","outputs":[{"internalType":"string","name":"","type":"string"}],"stateMutability":"view","type":"function"},{"inputs":[{"internalType":"string","name":"_certId","type":"string"}],"name":"getRejectsMsg","outputs":[{"internalType":"string","name":"","type":"string"}],"stateMutability":"view","type":"function"},{"inputs":[{"internalType":"string","name":"_certId","type":"string"}],"name":"getSenderDetail","outputs":[{"components":[{"internalType":"string","name":"userName","type":"string"},{"internalType":"string","name":"userInstance","type":"string"},{"internalType":"address","name":"userAddr","type":"address"}],"internalType":"struct BaseCertificate.st_userCertificate","name":"","type":"tuple"}],"stateMutability":"view","type":"function"},{"inputs":[{"internalType":"string","name":"_certId","type":"string"},{"internalType":"string","name":"_rejectMsg","type":"string"},{"internalType":"string","name":"_bpomName","type":"string"},{"internalType":"string","name":"_bpomInstance","type":"string"},{"internalType":"address","name":"_bpomAddr","type":"address"}],"name":"rejectCpotb","outputs":[],"stateMutability":"nonpayable","type":"function"},{"inputs":[{"internalType":"string","name":"","type":"string"}],"name":"rejectMsgbyId","outputs":[{"internalType":"string","name":"","type":"string"}],"stateMutability":"view","type":"function"},{"inputs":[{"internalType":"string","name":"_certId","type":"string"},{"internalType":"uint8","name":"_tipePermohonanCpotb","type":"uint8"}],"name":"renewRequestCpotb","outputs":[],"stateMutability":"nonpayable","type":"function"},{"inputs":[{"internalType":"string","name":"_certId","type":"string"},{"internalType":"string","name":"_factoryName","type":"string"},{"internalType":"string","name":"_factoryInstance","type":"string"},{"internalType":"address","name":"_factoryAddr","type":"address"},{"internalType":"uint8","name":"_tipePermohonanCpotb","type":"uint8"},{"internalType":"string","name":"_factoryType","type":"string"}],"name":"requestCpotb","outputs":[],"stateMutability":"nonpayable","type":"function"},{"inputs":[{"internalType":"string","name":"_certId","type":"string"},{"internalType":"string","name":"_ipfsCert","type":"string"},{"components":[{"internalType":"string","name":"userName","type":"string"},{"internalType":"string","name":"userInstance","type":"string"},{"internalType":"address","name":"userAddr","type":"address"}],"internalType":"struct BaseCertificate.st_userCertificate","name":"_bpom","type":"tuple"}],"name":"updateBpomApproveDetails","outputs":[],"stateMutability":"nonpayable","type":"function"},{"inputs":[{"internalType":"string","name":"_certId","type":"string"},{"internalType":"string","name":"_rejectMsg","type":"string"},{"components":[{"internalType":"string","name":"userName","type":"string"},{"internalType":"string","name":"userInstance","type":"string"},{"internalType":"address","name":"userAddr","type":"address"}],"internalType":"struct BaseCertificate.st_userCertificate","name":"_bpom","type":"tuple"}],"name":"updateBpomRejectDetails","outputs":[],"stateMutability":"nonpayable","type":"function"},{"inputs":[{"internalType":"string","name":"_certId","type":"string"}],"name":"updateRenewDetails","outputs":[],"stateMutability":"nonpayable","type":"function"}],"evm":{"bytecode":{"linkReferences":{},"object":"60808060405234601557612daf908161001a8239f35b5f80fdfe60806040526004361015610011575f80fd5b5f3560e01c806310159dfe146117e857806317e683091461178757806319859c871461174f5780635850607c146116e75780636aa81299146116335780636d1aa7d5146114d957806370c056b014611528578063761fb19a146114d95780637ee90ded1461144357806381fc60a5146112d45780639aaa5d8b14611299578063a71ed23a146111b2578063b5881e7014610932578063b9e4908014610593578063be2e232514610543578063d533a3dd146104be578063e462dde514610386578063e9c260d71461036f578063f02f5f23146102c4578063f5104ff1146102ad578063fb5fb9a3146102345763fcac71c41461010b575f80fd5b34610230576040366003190112610230576004356001600160401b0381116102305761013b9036906004016118cc565b60243560ff811681036102305761015182611d47565b604051906002835192602081818701958087835e810160038152030190200160ff821660ff198254161790555f5b60025481101561022e5780610195600192611cdb565b506040516101b9816101ab602082018095611ebe565b03601f1981018352826118ab565b51902060405160208101906101e66020828a51808b875e81015f838201520301601f1981018352826118ab565b519020146101f5575b0161017f565b600361020082611cdb565b5001805461ff001916610300179055600361021a82611cdb565b5001805460ff191660ff85161790556101ef565b005b5f80fd5b34610230576060366003190112610230576004356001600160401b03811161023057610264903690600401611bfb565b6024356001600160401b03811161023057610283903690600401611bfb565b90604435916001600160401b038311610230576102a761022e9336906004016118cc565b91612757565b346102305761022e6102be36611c73565b916123da565b3461023057602036600319011261023057600435600254811015610230576102ee61033591611cdb565b506102f881611959565b9061036b61035161030b60018401611959565b92610343600361031d60028401611959565b9201549460405197889760a0895260a08901906119f9565b9087820360208901526119f9565b9085820360408701526119f9565b9160ff8116606085015260ff608085019160081c16611a5b565b0390f35b346102305761022e61038036611c73565b9161203d565b346102305760a0366003190112610230576004356001600160401b038111610230576103b69036906004016118cc565b6024356001600160401b038111610230576103d59036906004016118cc565b6044356001600160401b038111610230576103f49036906004016118cc565b906064356001600160401b038111610230576104319261041b61042a9236906004016118cc565b90610424611be5565b9061200e565b908361203d565b602081015f5b60025481101561022e578061044d600192611cdb565b50604051610463816101ab602082018095611ebe565b51902060405160208101906104906020828951808a875e81015f838201520301601f1981018352826118ab565b5190201461049f575b01610437565b60036104aa82611cdb565b5001805461ff001916610200179055610499565b34610230576060366003190112610230576004356001600160401b038111610230576104ee9036906004016118cc565b602435906001600160a01b038216820361023057604435906001600160401b0382116102305761036b9261052961052f9336906004016118cc565b9161200e565b604051918291602083526020830190611a1d565b34610230576020366003190112610230576004356001600160401b0381116102305761058761057961036b9236906004016118cc565b610581611f28565b50611f72565b60405191829182611b19565b346102305760c0366003190112610230576004356001600160401b038111610230576105c39036906004016118cc565b6024356001600160401b038111610230576105e29036906004016118cc565b6044356001600160401b038111610230576106019036906004016118cc565b6064356001600160401b038111610230576106209036906004016118cc565b610628611be5565b9060a435916001600160401b0383116102305761064c6106529336906004016118cc565b9361200e565b604051916001845193602081818801968088835e810160038152030190200185516001600160401b0381116108665761068b8254611921565b601f81116108ed575b506020601f82116001146108855790806106cb959493925f9161087a575b508160011b915f199060031b1c19161790555b846123da565b5f5b60025481101561022e576106e081611cdb565b506040516106f6816101ab602082018095611ebe565b519020604051602081019061072360208288518089875e81015f838201520301601f1981018352826118ab565b51902014610734575b6001016106cd565b600161073f82611cdb565b500184516001600160401b0381116108665761075b8254611921565b601f8111610821575b506020601f82116001146107be57908060019493925f916107b3575b505f19600383901b1c191690841b1790555b600361079d82611cdb565b5001805461ff001916610100179055905061072c565b905087015188610780565b601f19821690835f52805f20915f5b818110610809575091839160019695948794106107f1575b5050811b019055610792565b8901515f1960f88460031b161c1916905588806107e5565b9192602060018192868d0151815501940192016107cd565b825f5260205f20601f830160051c8101916020841061085c575b601f0160051c01905b8181106108515750610764565b5f8155600101610844565b909150819061083b565b634e487b7160e01b5f52604160045260245ffd5b9050880151896106b2565b601f19821690835f52805f20915f5b8a8282106108d55750509183916106cb97969594600194106108bd575b5050811b0190556106c5565b8a01515f1960f88460031b161c1916905589806108b1565b60018495602093958493015181550194019201610894565b825f5260205f20601f830160051c81019160208410610928575b601f0160051c01905b81811061091d5750610694565b5f8155600101610910565b9091508190610907565b346102305760c0366003190112610230576004356001600160401b038111610230576109629036906004016118cc565b6024356001600160401b038111610230576109819036906004016118cc565b906044356001600160401b038111610230576109a19036906004016118cc565b606435916001600160a01b0383168303610230576084359260ff84168094036102305760a4356001600160401b038111610230576109ee916109e8859236906004016118cc565b9661200e565b91610a3e8260209460405190610a0487836118ab565b5f8252604051610a1488826118ab565b5f8152610a1f611d27565b5060405192610a2d84611874565b8352878301525f6040830152612757565b604051610a4a8161183e565b828152604051610a5a85826118ab565b5f81528482019081526040820190868252606083019788526040518681875180838a01835e8101600381520301902092518051906001600160401b038211610866578190610aa88654611921565b601f8111611164575b508890601f8311600114611101575f926110f6575b50508160011b915f199060031b1c19161783555b51805160018401916001600160401b03821161086657610afa8354611921565b601f81116110b3575b508790601f831160011461104a57918060ff949260039796945f9261103f575b50508160011b915f1990881b1c19161790555b511660ff60028301911660ff198254161790550194519485516001600160401b03811161086657610b678254611921565b601f8111610ffc575b5084601f8211600114610f9957819293949596975f92610f8e575b50508160011b915f199060031b1c19161790555b60405191610bac83611859565b825260405192610bbc81856118ab565b5f8452808301938452604083019182526060830194855260808301935f85526002546801000000000000000081101561086657806001610bff9201600255611cdb565b949094610f7b57518051906001600160401b038211610866578190610c248754611921565b601f8111610f2d575b508490601f8311600114610eca575f92610ebf575b50508160011b915f199060031b1c19161784555b51805160018501916001600160401b038211610866578190610c788454611921565b601f8111610e71575b508490601f8311600114610e0e575f92610e03575b50508160011b915f199060031b1c19161790555b600283019151908151916001600160401b03831161086657610ccc8454611921565b601f8111610dc0575b5081601f8411600114610d555750928260039360ff969387965f92610d4a575b50508160011b915f1990861b1c19161790555b019351161660ff19835416178255516004811015610d3657815461ff00191660089190911b61ff0016179055005b634e487b7160e01b5f52602160045260245ffd5b015190508980610cf5565b9190601f198416855f52835f20935f905b828210610da85750509360ff96938796936001938360039810610d91575b505050811b019055610d08565b01515f1983881b60f8161c19169055898080610d84565b80600186978294978701518155019601940190610d66565b845f52825f20601f850160051c810191848610610df9575b601f0160051c01905b818110610dee5750610cd5565b5f8155600101610de1565b9091508190610dd8565b015190508880610c96565b5f8581528681209350601f198516905b87828210610e5b575050908460019594939210610e43575b505050811b019055610caa565b01515f1960f88460031b161c19169055888080610e36565b6001859682939686015181550195019301610e1e565b909150835f52845f20601f840160051c810191868510610eb5575b90601f859493920160051c01905b818110610ea75750610c81565b5f8155849350600101610e9a565b9091508190610e8c565b015190508880610c42565b5f8881528681209350601f198516905b87828210610f17575050908460019594939210610eff575b505050811b018455610c56565b01515f1960f88460031b161c19169055888080610ef2565b6001859682939686015181550195019301610eda565b909150865f52845f20601f840160051c810191868510610f71575b90601f859493920160051c01905b818110610f635750610c2d565b5f8155849350600101610f56565b9091508190610f48565b634e487b7160e01b5f525f60045260245ffd5b015190508780610b8b565b601f19821690835f52865f20915f5b818110610fe557509883600195969798999a10610fcd575b505050811b019055610b9f565b01515f1960f88460031b161c19169055878080610fc0565b91928860018192868e015181550194019201610fa8565b825f52855f20601f830160051c810191878410611035575b601f0160051c01905b81811061102a5750610b70565b5f815560010161101d565b9091508190611014565b015190508c80610b23565b90601f19831691845f52895f20925f5b8b82821061109d575050926001928592600399989660ff989610611086575b505050811b019055610b36565b01515f19838a1b60f8161c191690558c8080611079565b600185968293968601518155019501930161105a565b835f52885f20601f840160051c8101918a85106110ec575b601f0160051c01905b8181106110e15750610b03565b5f81556001016110d4565b90915081906110cb565b015190508a80610ac6565b5f8781528a81209350601f198516905b8b82821061114e575050908460019594939210611136575b505050811b018355610ada565b01515f1960f88460031b161c191690558a8080611129565b6001859682939686015181550195019301611111565b909150855f52885f20601f840160051c8101918a85106111a8575b90601f859493920160051c01905b81811061119a5750610ab1565b5f815584935060010161118d565b909150819061117f565b34610230576020366003190112610230576004356001600160401b038111610230576020806111e86112569336906004016118cc565b604051928184925191829101835e81015f81520301902061036b60ff8254169161128b60018201549161127d6002820154600383015460048401549061123060058601611ba6565b92611249600b61124260088901611ba6565b9701611959565b976040519b8c809c611a5b565b60208b015260408a01526060890152608088015261010060a0880152610100870190611a1d565b9085820360c0870152611a1d565b9083820360e08501526119f9565b34610230576020366003190112610230576004356001600160401b038111610230576105876112cf61036b9236906004016118cc565b611f72565b34610230576020366003190112610230576004356001600160401b038111610230576113049036906004016118cc565b60025460208201915f805b8381106113e0575060ff6113239116611d8c565b925f915f5b84811061133d576040518061036b8882611a68565b60026101ab61136261134e84611cdb565b506040519283916020830195869101611ebe565b519020604051602081019061138f6020828751808a875e81015f838201520301601f1981018352826118ab565b519020146113a0575b600101611328565b926113d86001916113d26113bc6113b688611cdb565b50611e1c565b60ff8316906113cb828c611dfc565b5289611dfc565b50611e76565b939050611398565b60026101ab6113f161134e84611cdb565b519020604051602081019061141e6020828851808c875e81015f838201520301601f1981018352826118ab565b5190201461142f575b60010161130f565b9061143b600191611e76565b919050611427565b34610230576040366003190112610230576004356001600160401b038111610230576114739036906004016118cc565b604051815160243592602091839181908401835e81016004815203019020908154811015610230576114cf915f5260205f209060011b0160ff60016114b783611959565b920154166040519283926040845260408401906119f9565b9060208301520390f35b34610230576020366003190112610230576004356001600160401b0381116102305761151461150f61036b9236906004016118cc565b611e9b565b6040519182916020835260208301906119f9565b34610230576020366003190112610230576004356001600160401b0381116102305760208061155e6116069336906004016118cc565b60608060405161156d8161183e565b81815281858201525f60408201520152604051928184925191829101835e8101600381520301902061036b604051916115a58361183e565b6115ae81611959565b83526115bc60018201611959565b6020840190815260ff6116196115e2600383600287015416956040890196875201611959565b92606087019384526040519788976020895251608060208a015260a08901906119f9565b9051878203601f190160408901526119f9565b925116606085015251838203601f190160808501526119f9565b34610230576020366003190112610230576004356001600160401b038111610230576020806116696116c69336906004016118cc565b604051928184925191829101835e8101600381520301902061036b61168d82611959565b9161169a60018201611959565b6116d46116b1600360ff6002860154169401611959565b916040519687966080885260808801906119f9565b9086820360208801526119f9565b91604085015283820360608501526119f9565b34610230575f3660031901126102305760025461170381611d8c565b905f805b82821061171c576040518061036b8682611a68565b6117476001916113d26117316113b686611cdb565b60ff831690611740828a611dfc565b5287611dfc565b910190611707565b34610230576020366003190112610230576004356001600160401b0381116102305761178261022e9136906004016118cc565b611d47565b34610230576020366003190112610230576004356001600160401b0381116102305761052f60056020806117c261036b9536906004016118cc565b6117ca611d27565b50604051928184925191829101835e81015f81520301902001611ba6565b34610230576020366003190112610230576004356001600160401b0381116102305761151460208061182161036b9436906004016118cc565b604051928184925191829101835e81016001815203019020611959565b608081019081106001600160401b0382111761086657604052565b60a081019081106001600160401b0382111761086657604052565b606081019081106001600160401b0382111761086657604052565b61010081019081106001600160401b0382111761086657604052565b90601f801991011681019081106001600160401b0382111761086657604052565b81601f82011215610230578035906001600160401b0382116108665760405192611900601f8401601f1916602001856118ab565b8284526020838301011161023057815f926020809301838601378301015290565b90600182811c9216801561194f575b602083101461193b57565b634e487b7160e01b5f52602260045260245ffd5b91607f1691611930565b9060405191825f82549261196c84611921565b80845293600181169081156119d75750600114611993575b50611991925003836118ab565b565b90505f9291925260205f20905f915b8183106119bb575050906020611991928201015f611984565b60209193508060019154838589010152019101909184926119a2565b90506020925061199194915060ff191682840152151560051b8201015f611984565b805180835260209291819084018484015e5f828201840152601f01601f1916010190565b906040611a48611a3684516060855260608501906119f9565b602085015184820360208601526119f9565b928101516001600160a01b031691015290565b906004821015610d365752565b602081016020825282518091526040820191602060408360051b8301019401925f915b838310611a9a57505050505090565b9091929394602080600192603f19858203018652611b0a895191608080611af2611ae0611ad0875160a0875260a08701906119f9565b888801518682038a8801526119f9565b604087015185820360408701526119f9565b9460ff60608201511660608501520151910190611a5b565b97019301930191939290611a8b565b90611ba39160208152611b30602082018351611a5b565b602082015160408201526040820151606082015260608201516080820152608082015160a082015260e0611b8d611b7860a085015161010060c0860152610120850190611a1d565b60c0850151848203601f190184860152611a1d565b92015190610100601f19828503019101526119f9565b90565b90604051611bb381611874565b60408193611bc081611959565b8352611bce60018201611959565b6020840152600201546001600160a01b0316910152565b608435906001600160a01b038216820361023057565b91906060838203126102305760405190611c1482611874565b819380356001600160401b0381116102305782611c329183016118cc565b835260208101356001600160401b03811161023057604092611c559183016118cc565b60208401520135906001600160a01b03821682036102305760400152565b6060600319820112610230576004356001600160401b0381116102305781611c9d916004016118cc565b916024356001600160401b0381116102305782611cbc916004016118cc565b91604435906001600160401b03821161023057611ba391600401611bfb565b600254811015611d135760025f81815291901b7f405787fa12a823e0f2b7631cc41b3ba8828b3321ca811111fa75cd3aa3bb5ace0191565b634e487b7160e01b5f52603260045260245ffd5b60405190611d3482611874565b5f60408360608152606060208201520152565b60208091604051928184925191829101835e81015f815203019020426004820155600360ff19825416179055565b6001600160401b0381116108665760051b60200190565b90611d9682611d75565b611da360405191826118ab565b8281528092611db4601f1991611d75565b01905f5b828110611dc457505050565b602090604051611dd381611859565b60608152606083820152606060408201525f60608201525f608082015282828501015201611db8565b8051821015611d135760209160051b010190565b6004821015610d365752565b90611991604051611e2c81611859565b608060ff60038396611e3d81611959565b8552611e4b60018201611959565b6020860152611e5c60028201611959565b60408601520154818116606085015260081c169101611e10565b60ff1660ff8114611e875760010190565b634e487b7160e01b5f52601160045260245ffd5b6040518151611ba392602091839181908401835e81016001815203019020611959565b5f9291815491611ecd83611921565b9260018116908115611f155750600114611ee657505050565b90919293505f5260205f205f905b838210611f015750500190565b600181602092548486015201910190611ef4565b60ff191683525050811515909102019150565b60405190611f358261188f565b606060e0835f81525f60208201525f60408201525f838201525f6080820152611f5c611d27565b60a0820152611f69611d27565b60c08201520152565b60208091611f7e611f28565b50604051928184925191829101835e81015f815203019020612006600b60405192611fa88461188f565b611fb660ff82541685611e10565b60018101546020850152600281015460408501526003810154606085015260048101546080850152611fea60058201611ba6565b60a0850152611ffb60088201611ba6565b60c085015201611959565b60e082015290565b91612017611d27565b506040519261202584611874565b835260208301526001600160a01b0316604082015290565b92919060405160208551918181818901948086835e81015f81520301902095604051928391518091835e81016001815203019020908051906001600160401b03821161086657819061208f8454611921565b601f811161238a575b50602090601f8311600114612327575f9261231c575b50508160011b915f199060031b1c19161790555b8051805160088501916001600160401b038211610866576120e38354611921565b601f81116122d7575b50602090601f8311600114612270576020949392915f9183612265575b50508160011b915f199060031b1c19161790555b6040810151600a850180546001600160a01b0319166001600160a01b03929092169190911790550151805190929060098201906001600160401b038111610866576121688254611921565b601f8111612220575b50602094601f82116001146121bf579481929394955f926121b4575b50508160011b915f199060031b1c19161790555b426003820155805460ff19166002179055565b015190505f8061218d565b601f19821695835f52805f20915f5b888110612208575083600195969798106121f0575b505050811b0190556121a1565b01515f1960f88460031b161c191690555f80806121e3565b919260206001819286850151815501940192016121ce565b825f5260205f20601f830160051c8101916020841061225b575b601f0160051c01905b8181106122505750612171565b5f8155600101612243565b909150819061223a565b015190505f80612109565b90601f19831691845f52815f20925f5b8181106122bf5750916001939185602098979694106122a7575b505050811b01905561211d565b01515f1960f88460031b161c191690555f808061229a565b92936020600181928786015181550195019301612280565b835f5260205f20601f840160051c81019160208510612312575b601f0160051c01905b81811061230757506120ec565b5f81556001016122fa565b90915081906122f1565b015190505f806120ae565b5f8581528281209350601f198516905b818110612372575090846001959493921061235a575b505050811b0190556120c2565b01515f1960f88460031b161c191690555f808061234d565b92936020600181928786015181550195019301612337565b909150835f5260205f20601f840160051c810191602085106123d0575b90601f859493920160051c01905b8181106123c25750612098565b5f81558493506001016123b5565b90915081906123a7565b6020809194939294604051928184925191829101835e81015f81520301902090805160088301908051906001600160401b0382116108665761241c8354611921565b601f8111612712575b50602090601f83116001146126ab576020949392915f91836126a0575b50508160011b915f199060031b1c19161790555b6040810151600a840180546001600160a01b0319166001600160a01b03929092169190911790550151805160098301916001600160401b0382116108665761249e8354611921565b601f811161265b575b50602090601f83116001146125f457600b949392915f91836125e9575b50508160011b915f199060031b1c19161790555b426002820155600160ff198254161781550182516001600160401b038111610866576125048254611921565b601f81116125a4575b506020601f821160011461254657819293945f9261253b575b50508160011b915f199060031b1c1916179055565b015190505f80612526565b601f19821690835f52805f20915f5b81811061258c57509583600195969710612574575b505050811b019055565b01515f1960f88460031b161c191690555f808061256a565b9192602060018192868b015181550194019201612555565b825f5260205f20601f830160051c810191602084106125df575b601f0160051c01905b8181106125d4575061250d565b5f81556001016125c7565b90915081906125be565b015190505f806124c4565b90601f19831691845f52815f20925f5b8181106126435750916001939185600b989796941061262b575b505050811b0190556124d8565b01515f1960f88460031b161c191690555f808061261e565b92936020600181928786015181550195019301612604565b835f5260205f20601f840160051c81019160208510612696575b601f0160051c01905b81811061268b57506124a7565b5f815560010161267e565b9091508190612675565b015190505f80612442565b90601f19831691845f52815f20925f5b8181106126fa5750916001939185602098979694106126e2575b505050811b019055612456565b01515f1960f88460031b161c191690555f80806126d5565b929360206001819287860151815501950193016126bb565b835f5260205f20601f840160051c8101916020851061274d575b601f0160051c01905b8181106127425750612425565b5f8155600101612735565b909150819061272c565b9290916040516127668161188f565b5f81526020810194428652604082015f8152606083015f815260808401915f835260a0850193845260c085019788526020988980604051986127a8828b6118ab565b5f8a5260e08901998a52604051928184925191829101835e81015f81520301902095516004811015610d365760ff801988541691161786555160018601555160028501555160038401555160048301556005820190519081518051906001600160401b03821161086657819061281e8454611921565b601f8111612d2b575b508990601f8311600114612cc8575f92612cbd575b50508160011b915f199060031b1c19161790555b60068201868201518051906001600160401b0382116108665781906128758454611921565b601f8111612c6f575b508990601f8311600114612c0c575f92612c01575b50508160011b915f199060031b1c19161790555b604001516007820180546001600160a01b0319166001600160a01b039290921691909117905592518051805191949160088301916001600160401b0382116108665781906128f58454611921565b601f8111612bb3575b508890601f8311600114612b50575f92612b45575b50508160011b915f199060031b1c19161790555b600981019385810151948551956001600160401b0387116108665761294c8254611921565b601f8111612b02575b508790601f8811600114612a9b57968091600b9697985f92612a90575b50508160011b915f199060031b1c19161790555b60400151600a820180546001600160a01b0319166001600160a01b03929092169190911790559151805190949190920191906001600160401b038211610866576129d08354611921565b601f8111612a4d575b5080601f8311600114612a065750819293945f9261253b5750508160011b915f199060031b1c1916179055565b90601f19831695845f52825f20925f905b888210612a355750508360019596971061257457505050811b019055565b80600185968294968601518155019501930190612a17565b835f52815f20601f840160051c810191838510612a86575b601f0160051c01905b818110612a7b57506129d9565b5f8155600101612a6e565b9091508190612a65565b015190505f80612972565b90601f19881691835f52895f20925f5b8b828210612aec57505091600193918a600b999a9b9410612ad4575b505050811b019055612986565b01515f1960f88460031b161c191690555f8080612ac7565b6001859682939686015181550195019301612aab565b825f52885f20601f890160051c8101918a8a10612b3b575b601f0160051c01905b818110612b305750612955565b5f8155600101612b23565b9091508190612b1a565b015190505f80612913565b5f8581528a81209350601f198516905b8b828210612b9d575050908460019594939210612b85575b505050811b019055612927565b01515f1960f88460031b161c191690555f8080612b78565b6001859682939686015181550195019301612b60565b909150835f52885f20601f840160051c8101918a8510612bf7575b90601f859493920160051c01905b818110612be957506128fe565b5f8155849350600101612bdc565b9091508190612bce565b015190505f80612893565b5f8581528b81209350601f198516905b8c828210612c59575050908460019594939210612c41575b505050811b0190556128a7565b01515f1960f88460031b161c191690555f8080612c34565b6001859682939686015181550195019301612c1c565b909150835f52895f20601f840160051c8101918b8510612cb3575b90601f859493920160051c01905b818110612ca5575061287e565b5f8155849350600101612c98565b9091508190612c8a565b015190505f8061283c565b5f8581528b81209350601f198516905b8c828210612d15575050908460019594939210612cfd575b505050811b019055612850565b01515f1960f88460031b161c191690555f8080612cf0565b6001859682939686015181550195019301612cd8565b909150835f52895f20601f840160051c8101918b8510612d6f575b90601f859493920160051c01905b818110612d615750612827565b5f8155849350600101612d54565b9091508190612d4656fea2646970667358221220b51858f53e0339cc7c8e81a8159b8272e10563441f9b113a9013bbe0bf97f7ae64736f6c634300081b0033","opcodes":"PUSH1 0x80 DUP1 PUSH1 0x40 MSTORE CALLVALUE PUSH1 0x15 JUMPI PUSH2 0x2DAF SWAP1 DUP2 PUSH2 0x1A DUP3 CODECOPY RETURN JUMPDEST PUSH0 DUP1 REVERT INVALID PUSH1 0x80 PUSH1 0x40 MSTORE PUSH1 0x4 CALLDATASIZE LT ISZERO PUSH2 0x11 JUMPI PUSH0 DUP1 REVERT JUMPDEST PUSH0 CALLDATALOAD PUSH1 0xE0 SHR DUP1 PUSH4 0x10159DFE EQ PUSH2 0x17E8 JUMPI DUP1 PUSH4 0x17E68309 EQ PUSH2 0x1787 JUMPI DUP1 PUSH4 0x19859C87 EQ PUSH2 0x174F JUMPI DUP1 PUSH4 0x5850607C EQ PUSH2 0x16E7 JUMPI DUP1 PUSH4 0x6AA81299 EQ PUSH2 0x1633 JUMPI DUP1 PUSH4 0x6D1AA7D5 EQ PUSH2 0x14D9 JUMPI DUP1 PUSH4 0x70C056B0 EQ PUSH2 0x1528 JUMPI DUP1 PUSH4 0x761FB19A EQ PUSH2 0x14D9 JUMPI DUP1 PUSH4 0x7EE90DED EQ PUSH2 0x1443 JUMPI DUP1 PUSH4 0x81FC60A5 EQ PUSH2 0x12D4 JUMPI DUP1 PUSH4 0x9AAA5D8B EQ PUSH2 0x1299 JUMPI DUP1 PUSH4 0xA71ED23A EQ PUSH2 0x11B2 JUMPI DUP1 PUSH4 0xB5881E70 EQ PUSH2 0x932 JUMPI DUP1 PUSH4 0xB9E49080 EQ PUSH2 0x593 JUMPI DUP1 PUSH4 0xBE2E2325 EQ PUSH2 0x543 JUMPI DUP1 PUSH4 0xD533A3DD EQ PUSH2 0x4BE JUMPI DUP1 PUSH4 0xE462DDE5 EQ PUSH2 0x386 JUMPI DUP1 PUSH4 0xE9C260D7 EQ PUSH2 0x36F JUMPI DUP1 PUSH4 0xF02F5F23 EQ PUSH2 0x2C4 JUMPI DUP1 PUSH4 0xF5104FF1 EQ PUSH2 0x2AD JUMPI DUP1 PUSH4 0xFB5FB9A3 EQ PUSH2 0x234 JUMPI PUSH4 0xFCAC71C4 EQ PUSH2 0x10B JUMPI PUSH0 DUP1 REVERT JUMPDEST CALLVALUE PUSH2 0x230 JUMPI PUSH1 0x40 CALLDATASIZE PUSH1 0x3 NOT ADD SLT PUSH2 0x230 JUMPI PUSH1 0x4 CALLDATALOAD PUSH1 0x1 PUSH1 0x1 PUSH1 0x40 SHL SUB DUP2 GT PUSH2 0x230 JUMPI PUSH2 0x13B SWAP1 CALLDATASIZE SWAP1 PUSH1 0x4 ADD PUSH2 0x18CC JUMP JUMPDEST PUSH1 0x24 CALLDATALOAD PUSH1 0xFF DUP2 AND DUP2 SUB PUSH2 0x230 JUMPI PUSH2 0x151 DUP3 PUSH2 0x1D47 JUMP JUMPDEST PUSH1 0x40 MLOAD SWAP1 PUSH1 0x2 DUP4 MLOAD SWAP3 PUSH1 0x20 DUP2 DUP2 DUP8 ADD SWAP6 DUP1 DUP8 DUP4 MCOPY DUP2 ADD PUSH1 0x3 DUP2 MSTORE SUB ADD SWAP1 KECCAK256 ADD PUSH1 0xFF DUP3 AND PUSH1 0xFF NOT DUP3 SLOAD AND OR SWAP1 SSTORE PUSH0 JUMPDEST PUSH1 0x2 SLOAD DUP2 LT ISZERO PUSH2 0x22E JUMPI DUP1 PUSH2 0x195 PUSH1 0x1 SWAP3 PUSH2 0x1CDB JUMP JUMPDEST POP PUSH1 0x40 MLOAD PUSH2 0x1B9 DUP2 PUSH2 0x1AB PUSH1 0x20 DUP3 ADD DUP1 SWAP6 PUSH2 0x1EBE JUMP JUMPDEST SUB PUSH1 0x1F NOT DUP2 ADD DUP4 MSTORE DUP3 PUSH2 0x18AB JUMP JUMPDEST MLOAD SWAP1 KECCAK256 PUSH1 0x40 MLOAD PUSH1 0x20 DUP2 ADD SWAP1 PUSH2 0x1E6 PUSH1 0x20 DUP3 DUP11 MLOAD DUP1 DUP12 DUP8 MCOPY DUP2 ADD PUSH0 DUP4 DUP3 ADD MSTORE SUB ADD PUSH1 0x1F NOT DUP2 ADD DUP4 MSTORE DUP3 PUSH2 0x18AB JUMP JUMPDEST MLOAD SWAP1 KECCAK256 EQ PUSH2 0x1F5 JUMPI JUMPDEST ADD PUSH2 0x17F JUMP JUMPDEST PUSH1 0x3 PUSH2 0x200 DUP3 PUSH2 0x1CDB JUMP JUMPDEST POP ADD DUP1 SLOAD PUSH2 0xFF00 NOT AND PUSH2 0x300 OR SWAP1 SSTORE PUSH1 0x3 PUSH2 0x21A DUP3 PUSH2 0x1CDB JUMP JUMPDEST POP ADD DUP1 SLOAD PUSH1 0xFF NOT AND PUSH1 0xFF DUP6 AND OR SWAP1 SSTORE PUSH2 0x1EF JUMP JUMPDEST STOP JUMPDEST PUSH0 DUP1 REVERT JUMPDEST CALLVALUE PUSH2 0x230 JUMPI PUSH1 0x60 CALLDATASIZE PUSH1 0x3 NOT ADD SLT PUSH2 0x230 JUMPI PUSH1 0x4 CALLDATALOAD PUSH1 0x1 PUSH1 0x1 PUSH1 0x40 SHL SUB DUP2 GT PUSH2 0x230 JUMPI PUSH2 0x264 SWAP1 CALLDATASIZE SWAP1 PUSH1 0x4 ADD PUSH2 0x1BFB JUMP JUMPDEST PUSH1 0x24 CALLDATALOAD PUSH1 0x1 PUSH1 0x1 PUSH1 0x40 SHL SUB DUP2 GT PUSH2 0x230 JUMPI PUSH2 0x283 SWAP1 CALLDATASIZE SWAP1 PUSH1 0x4 ADD PUSH2 0x1BFB JUMP JUMPDEST SWAP1 PUSH1 0x44 CALLDATALOAD SWAP2 PUSH1 0x1 PUSH1 0x1 PUSH1 0x40 SHL SUB DUP4 GT PUSH2 0x230 JUMPI PUSH2 0x2A7 PUSH2 0x22E SWAP4 CALLDATASIZE SWAP1 PUSH1 0x4 ADD PUSH2 0x18CC JUMP JUMPDEST SWAP2 PUSH2 0x2757 JUMP JUMPDEST CALLVALUE PUSH2 0x230 JUMPI PUSH2 0x22E PUSH2 0x2BE CALLDATASIZE PUSH2 0x1C73 JUMP JUMPDEST SWAP2 PUSH2 0x23DA JUMP JUMPDEST CALLVALUE PUSH2 0x230 JUMPI PUSH1 0x20 CALLDATASIZE PUSH1 0x3 NOT ADD SLT PUSH2 0x230 JUMPI PUSH1 0x4 CALLDATALOAD PUSH1 0x2 SLOAD DUP2 LT ISZERO PUSH2 0x230 JUMPI PUSH2 0x2EE PUSH2 0x335 SWAP2 PUSH2 0x1CDB JUMP JUMPDEST POP PUSH2 0x2F8 DUP2 PUSH2 0x1959 JUMP JUMPDEST SWAP1 PUSH2 0x36B PUSH2 0x351 PUSH2 0x30B PUSH1 0x1 DUP5 ADD PUSH2 0x1959 JUMP JUMPDEST SWAP3 PUSH2 0x343 PUSH1 0x3 PUSH2 0x31D PUSH1 0x2 DUP5 ADD PUSH2 0x1959 JUMP JUMPDEST SWAP3 ADD SLOAD SWAP5 PUSH1 0x40 MLOAD SWAP8 DUP9 SWAP8 PUSH1 0xA0 DUP10 MSTORE PUSH1 0xA0 DUP10 ADD SWAP1 PUSH2 0x19F9 JUMP JUMPDEST SWAP1 DUP8 DUP3 SUB PUSH1 0x20 DUP10 ADD MSTORE PUSH2 0x19F9 JUMP JUMPDEST SWAP1 DUP6 DUP3 SUB PUSH1 0x40 DUP8 ADD MSTORE PUSH2 0x19F9 JUMP JUMPDEST SWAP2 PUSH1 0xFF DUP2 AND PUSH1 0x60 DUP6 ADD MSTORE PUSH1 0xFF PUSH1 0x80 DUP6 ADD SWAP2 PUSH1 0x8 SHR AND PUSH2 0x1A5B JUMP JUMPDEST SUB SWAP1 RETURN JUMPDEST CALLVALUE PUSH2 0x230 JUMPI PUSH2 0x22E PUSH2 0x380 CALLDATASIZE PUSH2 0x1C73 JUMP JUMPDEST SWAP2 PUSH2 0x203D JUMP JUMPDEST CALLVALUE PUSH2 0x230 JUMPI PUSH1 0xA0 CALLDATASIZE PUSH1 0x3 NOT ADD SLT PUSH2 0x230 JUMPI PUSH1 0x4 CALLDATALOAD PUSH1 0x1 PUSH1 0x1 PUSH1 0x40 SHL SUB DUP2 GT PUSH2 0x230 JUMPI PUSH2 0x3B6 SWAP1 CALLDATASIZE SWAP1 PUSH1 0x4 ADD PUSH2 0x18CC JUMP JUMPDEST PUSH1 0x24 CALLDATALOAD PUSH1 0x1 PUSH1 0x1 PUSH1 0x40 SHL SUB DUP2 GT PUSH2 0x230 JUMPI PUSH2 0x3D5 SWAP1 CALLDATASIZE SWAP1 PUSH1 0x4 ADD PUSH2 0x18CC JUMP JUMPDEST PUSH1 0x44 CALLDATALOAD PUSH1 0x1 PUSH1 0x1 PUSH1 0x40 SHL SUB DUP2 GT PUSH2 0x230 JUMPI PUSH2 0x3F4 SWAP1 CALLDATASIZE SWAP1 PUSH1 0x4 ADD PUSH2 0x18CC JUMP JUMPDEST SWAP1 PUSH1 0x64 CALLDATALOAD PUSH1 0x1 PUSH1 0x1 PUSH1 0x40 SHL SUB DUP2 GT PUSH2 0x230 JUMPI PUSH2 0x431 SWAP3 PUSH2 0x41B PUSH2 0x42A SWAP3 CALLDATASIZE SWAP1 PUSH1 0x4 ADD PUSH2 0x18CC JUMP JUMPDEST SWAP1 PUSH2 0x424 PUSH2 0x1BE5 JUMP JUMPDEST SWAP1 PUSH2 0x200E JUMP JUMPDEST SWAP1 DUP4 PUSH2 0x203D JUMP JUMPDEST PUSH1 0x20 DUP2 ADD PUSH0 JUMPDEST PUSH1 0x2 SLOAD DUP2 LT ISZERO PUSH2 0x22E JUMPI DUP1 PUSH2 0x44D PUSH1 0x1 SWAP3 PUSH2 0x1CDB JUMP JUMPDEST POP PUSH1 0x40 MLOAD PUSH2 0x463 DUP2 PUSH2 0x1AB PUSH1 0x20 DUP3 ADD DUP1 SWAP6 PUSH2 0x1EBE JUMP JUMPDEST MLOAD SWAP1 KECCAK256 PUSH1 0x40 MLOAD PUSH1 0x20 DUP2 ADD SWAP1 PUSH2 0x490 PUSH1 0x20 DUP3 DUP10 MLOAD DUP1 DUP11 DUP8 MCOPY DUP2 ADD PUSH0 DUP4 DUP3 ADD MSTORE SUB ADD PUSH1 0x1F NOT DUP2 ADD DUP4 MSTORE DUP3 PUSH2 0x18AB JUMP JUMPDEST MLOAD SWAP1 KECCAK256 EQ PUSH2 0x49F JUMPI JUMPDEST ADD PUSH2 0x437 JUMP JUMPDEST PUSH1 0x3 PUSH2 0x4AA DUP3 PUSH2 0x1CDB JUMP JUMPDEST POP ADD DUP1 SLOAD PUSH2 0xFF00 NOT AND PUSH2 0x200 OR SWAP1 SSTORE PUSH2 0x499 JUMP JUMPDEST CALLVALUE PUSH2 0x230 JUMPI PUSH1 0x60 CALLDATASIZE PUSH1 0x3 NOT ADD SLT PUSH2 0x230 JUMPI PUSH1 0x4 CALLDATALOAD PUSH1 0x1 PUSH1 0x1 PUSH1 0x40 SHL SUB DUP2 GT PUSH2 0x230 JUMPI PUSH2 0x4EE SWAP1 CALLDATASIZE SWAP1 PUSH1 0x4 ADD PUSH2 0x18CC JUMP JUMPDEST PUSH1 0x24 CALLDATALOAD SWAP1 PUSH1 0x1 PUSH1 0x1 PUSH1 0xA0 SHL SUB DUP3 AND DUP3 SUB PUSH2 0x230 JUMPI PUSH1 0x44 CALLDATALOAD SWAP1 PUSH1 0x1 PUSH1 0x1 PUSH1 0x40 SHL SUB DUP3 GT PUSH2 0x230 JUMPI PUSH2 0x36B SWAP3 PUSH2 0x529 PUSH2 0x52F SWAP4 CALLDATASIZE SWAP1 PUSH1 0x4 ADD PUSH2 0x18CC JUMP JUMPDEST SWAP2 PUSH2 0x200E JUMP JUMPDEST PUSH1 0x40 MLOAD SWAP2 DUP3 SWAP2 PUSH1 0x20 DUP4 MSTORE PUSH1 0x20 DUP4 ADD SWAP1 PUSH2 0x1A1D JUMP JUMPDEST CALLVALUE PUSH2 0x230 JUMPI PUSH1 0x20 CALLDATASIZE PUSH1 0x3 NOT ADD SLT PUSH2 0x230 JUMPI PUSH1 0x4 CALLDATALOAD PUSH1 0x1 PUSH1 0x1 PUSH1 0x40 SHL SUB DUP2 GT PUSH2 0x230 JUMPI PUSH2 0x587 PUSH2 0x579 PUSH2 0x36B SWAP3 CALLDATASIZE SWAP1 PUSH1 0x4 ADD PUSH2 0x18CC JUMP JUMPDEST PUSH2 0x581 PUSH2 0x1F28 JUMP JUMPDEST POP PUSH2 0x1F72 JUMP JUMPDEST PUSH1 0x40 MLOAD SWAP2 DUP3 SWAP2 DUP3 PUSH2 0x1B19 JUMP JUMPDEST CALLVALUE PUSH2 0x230 JUMPI PUSH1 0xC0 CALLDATASIZE PUSH1 0x3 NOT ADD SLT PUSH2 0x230 JUMPI PUSH1 0x4 CALLDATALOAD PUSH1 0x1 PUSH1 0x1 PUSH1 0x40 SHL SUB DUP2 GT PUSH2 0x230 JUMPI PUSH2 0x5C3 SWAP1 CALLDATASIZE SWAP1 PUSH1 0x4 ADD PUSH2 0x18CC JUMP JUMPDEST PUSH1 0x24 CALLDATALOAD PUSH1 0x1 PUSH1 0x1 PUSH1 0x40 SHL SUB DUP2 GT PUSH2 0x230 JUMPI PUSH2 0x5E2 SWAP1 CALLDATASIZE SWAP1 PUSH1 0x4 ADD PUSH2 0x18CC JUMP JUMPDEST PUSH1 0x44 CALLDATALOAD PUSH1 0x1 PUSH1 0x1 PUSH1 0x40 SHL SUB DUP2 GT PUSH2 0x230 JUMPI PUSH2 0x601 SWAP1 CALLDATASIZE SWAP1 PUSH1 0x4 ADD PUSH2 0x18CC JUMP JUMPDEST PUSH1 0x64 CALLDATALOAD PUSH1 0x1 PUSH1 0x1 PUSH1 0x40 SHL SUB DUP2 GT PUSH2 0x230 JUMPI PUSH2 0x620 SWAP1 CALLDATASIZE SWAP1 PUSH1 0x4 ADD PUSH2 0x18CC JUMP JUMPDEST PUSH2 0x628 PUSH2 0x1BE5 JUMP JUMPDEST SWAP1 PUSH1 0xA4 CALLDATALOAD SWAP2 PUSH1 0x1 PUSH1 0x1 PUSH1 0x40 SHL SUB DUP4 GT PUSH2 0x230 JUMPI PUSH2 0x64C PUSH2 0x652 SWAP4 CALLDATASIZE SWAP1 PUSH1 0x4 ADD PUSH2 0x18CC JUMP JUMPDEST SWAP4 PUSH2 0x200E JUMP JUMPDEST PUSH1 0x40 MLOAD SWAP2 PUSH1 0x1 DUP5 MLOAD SWAP4 PUSH1 0x20 DUP2 DUP2 DUP9 ADD SWAP7 DUP1 DUP9 DUP4 MCOPY DUP2 ADD PUSH1 0x3 DUP2 MSTORE SUB ADD SWAP1 KECCAK256 ADD DUP6 MLOAD PUSH1 0x1 PUSH1 0x1 PUSH1 0x40 SHL SUB DUP2 GT PUSH2 0x866 JUMPI PUSH2 0x68B DUP3 SLOAD PUSH2 0x1921 JUMP JUMPDEST PUSH1 0x1F DUP2 GT PUSH2 0x8ED JUMPI JUMPDEST POP PUSH1 0x20 PUSH1 0x1F DUP3 GT PUSH1 0x1 EQ PUSH2 0x885 JUMPI SWAP1 DUP1 PUSH2 0x6CB SWAP6 SWAP5 SWAP4 SWAP3 PUSH0 SWAP2 PUSH2 0x87A JUMPI JUMPDEST POP DUP2 PUSH1 0x1 SHL SWAP2 PUSH0 NOT SWAP1 PUSH1 0x3 SHL SHR NOT AND OR SWAP1 SSTORE JUMPDEST DUP5 PUSH2 0x23DA JUMP JUMPDEST PUSH0 JUMPDEST PUSH1 0x2 SLOAD DUP2 LT ISZERO PUSH2 0x22E JUMPI PUSH2 0x6E0 DUP2 PUSH2 0x1CDB JUMP JUMPDEST POP PUSH1 0x40 MLOAD PUSH2 0x6F6 DUP2 PUSH2 0x1AB PUSH1 0x20 DUP3 ADD DUP1 SWAP6 PUSH2 0x1EBE JUMP JUMPDEST MLOAD SWAP1 KECCAK256 PUSH1 0x40 MLOAD PUSH1 0x20 DUP2 ADD SWAP1 PUSH2 0x723 PUSH1 0x20 DUP3 DUP9 MLOAD DUP1 DUP10 DUP8 MCOPY DUP2 ADD PUSH0 DUP4 DUP3 ADD MSTORE SUB ADD PUSH1 0x1F NOT DUP2 ADD DUP4 MSTORE DUP3 PUSH2 0x18AB JUMP JUMPDEST MLOAD SWAP1 KECCAK256 EQ PUSH2 0x734 JUMPI JUMPDEST PUSH1 0x1 ADD PUSH2 0x6CD JUMP JUMPDEST PUSH1 0x1 PUSH2 0x73F DUP3 PUSH2 0x1CDB JUMP JUMPDEST POP ADD DUP5 MLOAD PUSH1 0x1 PUSH1 0x1 PUSH1 0x40 SHL SUB DUP2 GT PUSH2 0x866 JUMPI PUSH2 0x75B DUP3 SLOAD PUSH2 0x1921 JUMP JUMPDEST PUSH1 0x1F DUP2 GT PUSH2 0x821 JUMPI JUMPDEST POP PUSH1 0x20 PUSH1 0x1F DUP3 GT PUSH1 0x1 EQ PUSH2 0x7BE JUMPI SWAP1 DUP1 PUSH1 0x1 SWAP5 SWAP4 SWAP3 PUSH0 SWAP2 PUSH2 0x7B3 JUMPI JUMPDEST POP PUSH0 NOT PUSH1 0x3 DUP4 SWAP1 SHL SHR NOT AND SWAP1 DUP5 SHL OR SWAP1 SSTORE JUMPDEST PUSH1 0x3 PUSH2 0x79D DUP3 PUSH2 0x1CDB JUMP JUMPDEST POP ADD DUP1 SLOAD PUSH2 0xFF00 NOT AND PUSH2 0x100 OR SWAP1 SSTORE SWAP1 POP PUSH2 0x72C JUMP JUMPDEST SWAP1 POP DUP8 ADD MLOAD DUP9 PUSH2 0x780 JUMP JUMPDEST PUSH1 0x1F NOT DUP3 AND SWAP1 DUP4 PUSH0 MSTORE DUP1 PUSH0 KECCAK256 SWAP2 PUSH0 JUMPDEST DUP2 DUP2 LT PUSH2 0x809 JUMPI POP SWAP2 DUP4 SWAP2 PUSH1 0x1 SWAP7 SWAP6 SWAP5 DUP8 SWAP5 LT PUSH2 0x7F1 JUMPI JUMPDEST POP POP DUP2 SHL ADD SWAP1 SSTORE PUSH2 0x792 JUMP JUMPDEST DUP10 ADD MLOAD PUSH0 NOT PUSH1 0xF8 DUP5 PUSH1 0x3 SHL AND SHR NOT AND SWAP1 SSTORE DUP9 DUP1 PUSH2 0x7E5 JUMP JUMPDEST SWAP2 SWAP3 PUSH1 0x20 PUSH1 0x1 DUP2 SWAP3 DUP7 DUP14 ADD MLOAD DUP2 SSTORE ADD SWAP5 ADD SWAP3 ADD PUSH2 0x7CD JUMP JUMPDEST DUP3 PUSH0 MSTORE PUSH1 0x20 PUSH0 KECCAK256 PUSH1 0x1F DUP4 ADD PUSH1 0x5 SHR DUP2 ADD SWAP2 PUSH1 0x20 DUP5 LT PUSH2 0x85C JUMPI JUMPDEST PUSH1 0x1F ADD PUSH1 0x5 SHR ADD SWAP1 JUMPDEST DUP2 DUP2 LT PUSH2 0x851 JUMPI POP PUSH2 0x764 JUMP JUMPDEST PUSH0 DUP2 SSTORE PUSH1 0x1 ADD PUSH2 0x844 JUMP JUMPDEST SWAP1 SWAP2 POP DUP2 SWAP1 PUSH2 0x83B JUMP JUMPDEST PUSH4 0x4E487B71 PUSH1 0xE0 SHL PUSH0 MSTORE PUSH1 0x41 PUSH1 0x4 MSTORE PUSH1 0x24 PUSH0 REVERT JUMPDEST SWAP1 POP DUP9 ADD MLOAD DUP10 PUSH2 0x6B2 JUMP JUMPDEST PUSH1 0x1F NOT DUP3 AND SWAP1 DUP4 PUSH0 MSTORE DUP1 PUSH0 KECCAK256 SWAP2 PUSH0 JUMPDEST DUP11 DUP3 DUP3 LT PUSH2 0x8D5 JUMPI POP POP SWAP2 DUP4 SWAP2 PUSH2 0x6CB SWAP8 SWAP7 SWAP6 SWAP5 PUSH1 0x1 SWAP5 LT PUSH2 0x8BD JUMPI JUMPDEST POP POP DUP2 SHL ADD SWAP1 SSTORE PUSH2 0x6C5 JUMP JUMPDEST DUP11 ADD MLOAD PUSH0 NOT PUSH1 0xF8 DUP5 PUSH1 0x3 SHL AND SHR NOT AND SWAP1 SSTORE DUP10 DUP1 PUSH2 0x8B1 JUMP JUMPDEST PUSH1 0x1 DUP5 SWAP6 PUSH1 0x20 SWAP4 SWAP6 DUP5 SWAP4 ADD MLOAD DUP2 SSTORE ADD SWAP5 ADD SWAP3 ADD PUSH2 0x894 JUMP JUMPDEST DUP3 PUSH0 MSTORE PUSH1 0x20 PUSH0 KECCAK256 PUSH1 0x1F DUP4 ADD PUSH1 0x5 SHR DUP2 ADD SWAP2 PUSH1 0x20 DUP5 LT PUSH2 0x928 JUMPI JUMPDEST PUSH1 0x1F ADD PUSH1 0x5 SHR ADD SWAP1 JUMPDEST DUP2 DUP2 LT PUSH2 0x91D JUMPI POP PUSH2 0x694 JUMP JUMPDEST PUSH0 DUP2 SSTORE PUSH1 0x1 ADD PUSH2 0x910 JUMP JUMPDEST SWAP1 SWAP2 POP DUP2 SWAP1 PUSH2 0x907 JUMP JUMPDEST CALLVALUE PUSH2 0x230 JUMPI PUSH1 0xC0 CALLDATASIZE PUSH1 0x3 NOT ADD SLT PUSH2 0x230 JUMPI PUSH1 0x4 CALLDATALOAD PUSH1 0x1 PUSH1 0x1 PUSH1 0x40 SHL SUB DUP2 GT PUSH2 0x230 JUMPI PUSH2 0x962 SWAP1 CALLDATASIZE SWAP1 PUSH1 0x4 ADD PUSH2 0x18CC JUMP JUMPDEST PUSH1 0x24 CALLDATALOAD PUSH1 0x1 PUSH1 0x1 PUSH1 0x40 SHL SUB DUP2 GT PUSH2 0x230 JUMPI PUSH2 0x981 SWAP1 CALLDATASIZE SWAP1 PUSH1 0x4 ADD PUSH2 0x18CC JUMP JUMPDEST SWAP1 PUSH1 0x44 CALLDATALOAD PUSH1 0x1 PUSH1 0x1 PUSH1 0x40 SHL SUB DUP2 GT PUSH2 0x230 JUMPI PUSH2 0x9A1 SWAP1 CALLDATASIZE SWAP1 PUSH1 0x4 ADD PUSH2 0x18CC JUMP JUMPDEST PUSH1 0x64 CALLDATALOAD SWAP2 PUSH1 0x1 PUSH1 0x1 PUSH1 0xA0 SHL SUB DUP4 AND DUP4 SUB PUSH2 0x230 JUMPI PUSH1 0x84 CALLDATALOAD SWAP3 PUSH1 0xFF DUP5 AND DUP1 SWAP5 SUB PUSH2 0x230 JUMPI PUSH1 0xA4 CALLDATALOAD PUSH1 0x1 PUSH1 0x1 PUSH1 0x40 SHL SUB DUP2 GT PUSH2 0x230 JUMPI PUSH2 0x9EE SWAP2 PUSH2 0x9E8 DUP6 SWAP3 CALLDATASIZE SWAP1 PUSH1 0x4 ADD PUSH2 0x18CC JUMP JUMPDEST SWAP7 PUSH2 0x200E JUMP JUMPDEST SWAP2 PUSH2 0xA3E DUP3 PUSH1 0x20 SWAP5 PUSH1 0x40 MLOAD SWAP1 PUSH2 0xA04 DUP8 DUP4 PUSH2 0x18AB JUMP JUMPDEST PUSH0 DUP3 MSTORE PUSH1 0x40 MLOAD PUSH2 0xA14 DUP9 DUP3 PUSH2 0x18AB JUMP JUMPDEST PUSH0 DUP2 MSTORE PUSH2 0xA1F PUSH2 0x1D27 JUMP JUMPDEST POP PUSH1 0x40 MLOAD SWAP3 PUSH2 0xA2D DUP5 PUSH2 0x1874 JUMP JUMPDEST DUP4 MSTORE DUP8 DUP4 ADD MSTORE PUSH0 PUSH1 0x40 DUP4 ADD MSTORE PUSH2 0x2757 JUMP JUMPDEST PUSH1 0x40 MLOAD PUSH2 0xA4A DUP2 PUSH2 0x183E JUMP JUMPDEST DUP3 DUP2 MSTORE PUSH1 0x40 MLOAD PUSH2 0xA5A DUP6 DUP3 PUSH2 0x18AB JUMP JUMPDEST PUSH0 DUP2 MSTORE DUP5 DUP3 ADD SWAP1 DUP2 MSTORE PUSH1 0x40 DUP3 ADD SWAP1 DUP7 DUP3 MSTORE PUSH1 0x60 DUP4 ADD SWAP8 DUP9 MSTORE PUSH1 0x40 MLOAD DUP7 DUP2 DUP8 MLOAD DUP1 DUP4 DUP11 ADD DUP4 MCOPY DUP2 ADD PUSH1 0x3 DUP2 MSTORE SUB ADD SWAP1 KECCAK256 SWAP3 MLOAD DUP1 MLOAD SWAP1 PUSH1 0x1 PUSH1 0x1 PUSH1 0x40 SHL SUB DUP3 GT PUSH2 0x866 JUMPI DUP2 SWAP1 PUSH2 0xAA8 DUP7 SLOAD PUSH2 0x1921 JUMP JUMPDEST PUSH1 0x1F DUP2 GT PUSH2 0x1164 JUMPI JUMPDEST POP DUP9 SWAP1 PUSH1 0x1F DUP4 GT PUSH1 0x1 EQ PUSH2 0x1101 JUMPI PUSH0 SWAP3 PUSH2 0x10F6 JUMPI JUMPDEST POP POP DUP2 PUSH1 0x1 SHL SWAP2 PUSH0 NOT SWAP1 PUSH1 0x3 SHL SHR NOT AND OR DUP4 SSTORE JUMPDEST MLOAD DUP1 MLOAD PUSH1 0x1 DUP5 ADD SWAP2 PUSH1 0x1 PUSH1 0x1 PUSH1 0x40 SHL SUB DUP3 GT PUSH2 0x866 JUMPI PUSH2 0xAFA DUP4 SLOAD PUSH2 0x1921 JUMP JUMPDEST PUSH1 0x1F DUP2 GT PUSH2 0x10B3 JUMPI JUMPDEST POP DUP8 SWAP1 PUSH1 0x1F DUP4 GT PUSH1 0x1 EQ PUSH2 0x104A JUMPI SWAP2 DUP1 PUSH1 0xFF SWAP5 SWAP3 PUSH1 0x3 SWAP8 SWAP7 SWAP5 PUSH0 SWAP3 PUSH2 0x103F JUMPI JUMPDEST POP POP DUP2 PUSH1 0x1 SHL SWAP2 PUSH0 NOT SWAP1 DUP9 SHL SHR NOT AND OR SWAP1 SSTORE JUMPDEST MLOAD AND PUSH1 0xFF PUSH1 0x2 DUP4 ADD SWAP2 AND PUSH1 0xFF NOT DUP3 SLOAD AND OR SWAP1 SSTORE ADD SWAP5 MLOAD SWAP5 DUP6 MLOAD PUSH1 0x1 PUSH1 0x1 PUSH1 0x40 SHL SUB DUP2 GT PUSH2 0x866 JUMPI PUSH2 0xB67 DUP3 SLOAD PUSH2 0x1921 JUMP JUMPDEST PUSH1 0x1F DUP2 GT PUSH2 0xFFC JUMPI JUMPDEST POP DUP5 PUSH1 0x1F DUP3 GT PUSH1 0x1 EQ PUSH2 0xF99 JUMPI DUP2 SWAP3 SWAP4 SWAP5 SWAP6 SWAP7 SWAP8 PUSH0 SWAP3 PUSH2 0xF8E JUMPI JUMPDEST POP POP DUP2 PUSH1 0x1 SHL SWAP2 PUSH0 NOT SWAP1 PUSH1 0x3 SHL SHR NOT AND OR SWAP1 SSTORE JUMPDEST PUSH1 0x40 MLOAD SWAP2 PUSH2 0xBAC DUP4 PUSH2 0x1859 JUMP JUMPDEST DUP3 MSTORE PUSH1 0x40 MLOAD SWAP3 PUSH2 0xBBC DUP2 DUP6 PUSH2 0x18AB JUMP JUMPDEST PUSH0 DUP5 MSTORE DUP1 DUP4 ADD SWAP4 DUP5 MSTORE PUSH1 0x40 DUP4 ADD SWAP2 DUP3 MSTORE PUSH1 0x60 DUP4 ADD SWAP5 DUP6 MSTORE PUSH1 0x80 DUP4 ADD SWAP4 PUSH0 DUP6 MSTORE PUSH1 0x2 SLOAD PUSH9 0x10000000000000000 DUP2 LT ISZERO PUSH2 0x866 JUMPI DUP1 PUSH1 0x1 PUSH2 0xBFF SWAP3 ADD PUSH1 0x2 SSTORE PUSH2 0x1CDB JUMP JUMPDEST SWAP5 SWAP1 SWAP5 PUSH2 0xF7B JUMPI MLOAD DUP1 MLOAD SWAP1 PUSH1 0x1 PUSH1 0x1 PUSH1 0x40 SHL SUB DUP3 GT PUSH2 0x866 JUMPI DUP2 SWAP1 PUSH2 0xC24 DUP8 SLOAD PUSH2 0x1921 JUMP JUMPDEST PUSH1 0x1F DUP2 GT PUSH2 0xF2D JUMPI JUMPDEST POP DUP5 SWAP1 PUSH1 0x1F DUP4 GT PUSH1 0x1 EQ PUSH2 0xECA JUMPI PUSH0 SWAP3 PUSH2 0xEBF JUMPI JUMPDEST POP POP DUP2 PUSH1 0x1 SHL SWAP2 PUSH0 NOT SWAP1 PUSH1 0x3 SHL SHR NOT AND OR DUP5 SSTORE JUMPDEST MLOAD DUP1 MLOAD PUSH1 0x1 DUP6 ADD SWAP2 PUSH1 0x1 PUSH1 0x1 PUSH1 0x40 SHL SUB DUP3 GT PUSH2 0x866 JUMPI DUP2 SWAP1 PUSH2 0xC78 DUP5 SLOAD PUSH2 0x1921 JUMP JUMPDEST PUSH1 0x1F DUP2 GT PUSH2 0xE71 JUMPI JUMPDEST POP DUP5 SWAP1 PUSH1 0x1F DUP4 GT PUSH1 0x1 EQ PUSH2 0xE0E JUMPI PUSH0 SWAP3 PUSH2 0xE03 JUMPI JUMPDEST POP POP DUP2 PUSH1 0x1 SHL SWAP2 PUSH0 NOT SWAP1 PUSH1 0x3 SHL SHR NOT AND OR SWAP1 SSTORE JUMPDEST PUSH1 0x2 DUP4 ADD SWAP2 MLOAD SWAP1 DUP2 MLOAD SWAP2 PUSH1 0x1 PUSH1 0x1 PUSH1 0x40 SHL SUB DUP4 GT PUSH2 0x866 JUMPI PUSH2 0xCCC DUP5 SLOAD PUSH2 0x1921 JUMP JUMPDEST PUSH1 0x1F DUP2 GT PUSH2 0xDC0 JUMPI JUMPDEST POP DUP2 PUSH1 0x1F DUP5 GT PUSH1 0x1 EQ PUSH2 0xD55 JUMPI POP SWAP3 DUP3 PUSH1 0x3 SWAP4 PUSH1 0xFF SWAP7 SWAP4 DUP8 SWAP7 PUSH0 SWAP3 PUSH2 0xD4A JUMPI JUMPDEST POP POP DUP2 PUSH1 0x1 SHL SWAP2 PUSH0 NOT SWAP1 DUP7 SHL SHR NOT AND OR SWAP1 SSTORE JUMPDEST ADD SWAP4 MLOAD AND AND PUSH1 0xFF NOT DUP4 SLOAD AND OR DUP3 SSTORE MLOAD PUSH1 0x4 DUP2 LT ISZERO PUSH2 0xD36 JUMPI DUP2 SLOAD PUSH2 0xFF00 NOT AND PUSH1 0x8 SWAP2 SWAP1 SWAP2 SHL PUSH2 0xFF00 AND OR SWAP1 SSTORE STOP JUMPDEST PUSH4 0x4E487B71 PUSH1 0xE0 SHL PUSH0 MSTORE PUSH1 0x21 PUSH1 0x4 MSTORE PUSH1 0x24 PUSH0 REVERT JUMPDEST ADD MLOAD SWAP1 POP DUP10 DUP1 PUSH2 0xCF5 JUMP JUMPDEST SWAP2 SWAP1 PUSH1 0x1F NOT DUP5 AND DUP6 PUSH0 MSTORE DUP4 PUSH0 KECCAK256 SWAP4 PUSH0 SWAP1 JUMPDEST DUP3 DUP3 LT PUSH2 0xDA8 JUMPI POP POP SWAP4 PUSH1 0xFF SWAP7 SWAP4 DUP8 SWAP7 SWAP4 PUSH1 0x1 SWAP4 DUP4 PUSH1 0x3 SWAP9 LT PUSH2 0xD91 JUMPI JUMPDEST POP POP POP DUP2 SHL ADD SWAP1 SSTORE PUSH2 0xD08 JUMP JUMPDEST ADD MLOAD PUSH0 NOT DUP4 DUP9 SHL PUSH1 0xF8 AND SHR NOT AND SWAP1 SSTORE DUP10 DUP1 DUP1 PUSH2 0xD84 JUMP JUMPDEST DUP1 PUSH1 0x1 DUP7 SWAP8 DUP3 SWAP5 SWAP8 DUP8 ADD MLOAD DUP2 SSTORE ADD SWAP7 ADD SWAP5 ADD SWAP1 PUSH2 0xD66 JUMP JUMPDEST DUP5 PUSH0 MSTORE DUP3 PUSH0 KECCAK256 PUSH1 0x1F DUP6 ADD PUSH1 0x5 SHR DUP2 ADD SWAP2 DUP5 DUP7 LT PUSH2 0xDF9 JUMPI JUMPDEST PUSH1 0x1F ADD PUSH1 0x5 SHR ADD SWAP1 JUMPDEST DUP2 DUP2 LT PUSH2 0xDEE JUMPI POP PUSH2 0xCD5 JUMP JUMPDEST PUSH0 DUP2 SSTORE PUSH1 0x1 ADD PUSH2 0xDE1 JUMP JUMPDEST SWAP1 SWAP2 POP DUP2 SWAP1 PUSH2 0xDD8 JUMP JUMPDEST ADD MLOAD SWAP1 POP DUP9 DUP1 PUSH2 0xC96 JUMP JUMPDEST PUSH0 DUP6 DUP2 MSTORE DUP7 DUP2 KECCAK256 SWAP4 POP PUSH1 0x1F NOT DUP6 AND SWAP1 JUMPDEST DUP8 DUP3 DUP3 LT PUSH2 0xE5B JUMPI POP POP SWAP1 DUP5 PUSH1 0x1 SWAP6 SWAP5 SWAP4 SWAP3 LT PUSH2 0xE43 JUMPI JUMPDEST POP POP POP DUP2 SHL ADD SWAP1 SSTORE PUSH2 0xCAA JUMP JUMPDEST ADD MLOAD PUSH0 NOT PUSH1 0xF8 DUP5 PUSH1 0x3 SHL AND SHR NOT AND SWAP1 SSTORE DUP9 DUP1 DUP1 PUSH2 0xE36 JUMP JUMPDEST PUSH1 0x1 DUP6 SWAP7 DUP3 SWAP4 SWAP7 DUP7 ADD MLOAD DUP2 SSTORE ADD SWAP6 ADD SWAP4 ADD PUSH2 0xE1E JUMP JUMPDEST SWAP1 SWAP2 POP DUP4 PUSH0 MSTORE DUP5 PUSH0 KECCAK256 PUSH1 0x1F DUP5 ADD PUSH1 0x5 SHR DUP2 ADD SWAP2 DUP7 DUP6 LT PUSH2 0xEB5 JUMPI JUMPDEST SWAP1 PUSH1 0x1F DUP6 SWAP5 SWAP4 SWAP3 ADD PUSH1 0x5 SHR ADD SWAP1 JUMPDEST DUP2 DUP2 LT PUSH2 0xEA7 JUMPI POP PUSH2 0xC81 JUMP JUMPDEST PUSH0 DUP2 SSTORE DUP5 SWAP4 POP PUSH1 0x1 ADD PUSH2 0xE9A JUMP JUMPDEST SWAP1 SWAP2 POP DUP2 SWAP1 PUSH2 0xE8C JUMP JUMPDEST ADD MLOAD SWAP1 POP DUP9 DUP1 PUSH2 0xC42 JUMP JUMPDEST PUSH0 DUP9 DUP2 MSTORE DUP7 DUP2 KECCAK256 SWAP4 POP PUSH1 0x1F NOT DUP6 AND SWAP1 JUMPDEST DUP8 DUP3 DUP3 LT PUSH2 0xF17 JUMPI POP POP SWAP1 DUP5 PUSH1 0x1 SWAP6 SWAP5 SWAP4 SWAP3 LT PUSH2 0xEFF JUMPI JUMPDEST POP POP POP DUP2 SHL ADD DUP5 SSTORE PUSH2 0xC56 JUMP JUMPDEST ADD MLOAD PUSH0 NOT PUSH1 0xF8 DUP5 PUSH1 0x3 SHL AND SHR NOT AND SWAP1 SSTORE DUP9 DUP1 DUP1 PUSH2 0xEF2 JUMP JUMPDEST PUSH1 0x1 DUP6 SWAP7 DUP3 SWAP4 SWAP7 DUP7 ADD MLOAD DUP2 SSTORE ADD SWAP6 ADD SWAP4 ADD PUSH2 0xEDA JUMP JUMPDEST SWAP1 SWAP2 POP DUP7 PUSH0 MSTORE DUP5 PUSH0 KECCAK256 PUSH1 0x1F DUP5 ADD PUSH1 0x5 SHR DUP2 ADD SWAP2 DUP7 DUP6 LT PUSH2 0xF71 JUMPI JUMPDEST SWAP1 PUSH1 0x1F DUP6 SWAP5 SWAP4 SWAP3 ADD PUSH1 0x5 SHR ADD SWAP1 JUMPDEST DUP2 DUP2 LT PUSH2 0xF63 JUMPI POP PUSH2 0xC2D JUMP JUMPDEST PUSH0 DUP2 SSTORE DUP5 SWAP4 POP PUSH1 0x1 ADD PUSH2 0xF56 JUMP JUMPDEST SWAP1 SWAP2 POP DUP2 SWAP1 PUSH2 0xF48 JUMP JUMPDEST PUSH4 0x4E487B71 PUSH1 0xE0 SHL PUSH0 MSTORE PUSH0 PUSH1 0x4 MSTORE PUSH1 0x24 PUSH0 REVERT JUMPDEST ADD MLOAD SWAP1 POP DUP8 DUP1 PUSH2 0xB8B JUMP JUMPDEST PUSH1 0x1F NOT DUP3 AND SWAP1 DUP4 PUSH0 MSTORE DUP7 PUSH0 KECCAK256 SWAP2 PUSH0 JUMPDEST DUP2 DUP2 LT PUSH2 0xFE5 JUMPI POP SWAP9 DUP4 PUSH1 0x1 SWAP6 SWAP7 SWAP8 SWAP9 SWAP10 SWAP11 LT PUSH2 0xFCD JUMPI JUMPDEST POP POP POP DUP2 SHL ADD SWAP1 SSTORE PUSH2 0xB9F JUMP JUMPDEST ADD MLOAD PUSH0 NOT PUSH1 0xF8 DUP5 PUSH1 0x3 SHL AND SHR NOT AND SWAP1 SSTORE DUP8 DUP1 DUP1 PUSH2 0xFC0 JUMP JUMPDEST SWAP2 SWAP3 DUP9 PUSH1 0x1 DUP2 SWAP3 DUP7 DUP15 ADD MLOAD DUP2 SSTORE ADD SWAP5 ADD SWAP3 ADD PUSH2 0xFA8 JUMP JUMPDEST DUP3 PUSH0 MSTORE DUP6 PUSH0 KECCAK256 PUSH1 0x1F DUP4 ADD PUSH1 0x5 SHR DUP2 ADD SWAP2 DUP8 DUP5 LT PUSH2 0x1035 JUMPI JUMPDEST PUSH1 0x1F ADD PUSH1 0x5 SHR ADD SWAP1 JUMPDEST DUP2 DUP2 LT PUSH2 0x102A JUMPI POP PUSH2 0xB70 JUMP JUMPDEST PUSH0 DUP2 SSTORE PUSH1 0x1 ADD PUSH2 0x101D JUMP JUMPDEST SWAP1 SWAP2 POP DUP2 SWAP1 PUSH2 0x1014 JUMP JUMPDEST ADD MLOAD SWAP1 POP DUP13 DUP1 PUSH2 0xB23 JUMP JUMPDEST SWAP1 PUSH1 0x1F NOT DUP4 AND SWAP2 DUP5 PUSH0 MSTORE DUP10 PUSH0 KECCAK256 SWAP3 PUSH0 JUMPDEST DUP12 DUP3 DUP3 LT PUSH2 0x109D JUMPI POP POP SWAP3 PUSH1 0x1 SWAP3 DUP6 SWAP3 PUSH1 0x3 SWAP10 SWAP9 SWAP7 PUSH1 0xFF SWAP9 SWAP7 LT PUSH2 0x1086 JUMPI JUMPDEST POP POP POP DUP2 SHL ADD SWAP1 SSTORE PUSH2 0xB36 JUMP JUMPDEST ADD MLOAD PUSH0 NOT DUP4 DUP11 SHL PUSH1 0xF8 AND SHR NOT AND SWAP1 SSTORE DUP13 DUP1 DUP1 PUSH2 0x1079 JUMP JUMPDEST PUSH1 0x1 DUP6 SWAP7 DUP3 SWAP4 SWAP7 DUP7 ADD MLOAD DUP2 SSTORE ADD SWAP6 ADD SWAP4 ADD PUSH2 0x105A JUMP JUMPDEST DUP4 PUSH0 MSTORE DUP9 PUSH0 KECCAK256 PUSH1 0x1F DUP5 ADD PUSH1 0x5 SHR DUP2 ADD SWAP2 DUP11 DUP6 LT PUSH2 0x10EC JUMPI JUMPDEST PUSH1 0x1F ADD PUSH1 0x5 SHR ADD SWAP1 JUMPDEST DUP2 DUP2 LT PUSH2 0x10E1 JUMPI POP PUSH2 0xB03 JUMP JUMPDEST PUSH0 DUP2 SSTORE PUSH1 0x1 ADD PUSH2 0x10D4 JUMP JUMPDEST SWAP1 SWAP2 POP DUP2 SWAP1 PUSH2 0x10CB JUMP JUMPDEST ADD MLOAD SWAP1 POP DUP11 DUP1 PUSH2 0xAC6 JUMP JUMPDEST PUSH0 DUP8 DUP2 MSTORE DUP11 DUP2 KECCAK256 SWAP4 POP PUSH1 0x1F NOT DUP6 AND SWAP1 JUMPDEST DUP12 DUP3 DUP3 LT PUSH2 0x114E JUMPI POP POP SWAP1 DUP5 PUSH1 0x1 SWAP6 SWAP5 SWAP4 SWAP3 LT PUSH2 0x1136 JUMPI JUMPDEST POP POP POP DUP2 SHL ADD DUP4 SSTORE PUSH2 0xADA JUMP JUMPDEST ADD MLOAD PUSH0 NOT PUSH1 0xF8 DUP5 PUSH1 0x3 SHL AND SHR NOT AND SWAP1 SSTORE DUP11 DUP1 DUP1 PUSH2 0x1129 JUMP JUMPDEST PUSH1 0x1 DUP6 SWAP7 DUP3 SWAP4 SWAP7 DUP7 ADD MLOAD DUP2 SSTORE ADD SWAP6 ADD SWAP4 ADD PUSH2 0x1111 JUMP JUMPDEST SWAP1 SWAP2 POP DUP6 PUSH0 MSTORE DUP9 PUSH0 KECCAK256 PUSH1 0x1F DUP5 ADD PUSH1 0x5 SHR DUP2 ADD SWAP2 DUP11 DUP6 LT PUSH2 0x11A8 JUMPI JUMPDEST SWAP1 PUSH1 0x1F DUP6 SWAP5 SWAP4 SWAP3 ADD PUSH1 0x5 SHR ADD SWAP1 JUMPDEST DUP2 DUP2 LT PUSH2 0x119A JUMPI POP PUSH2 0xAB1 JUMP JUMPDEST PUSH0 DUP2 SSTORE DUP5 SWAP4 POP PUSH1 0x1 ADD PUSH2 0x118D JUMP JUMPDEST SWAP1 SWAP2 POP DUP2 SWAP1 PUSH2 0x117F JUMP JUMPDEST CALLVALUE PUSH2 0x230 JUMPI PUSH1 0x20 CALLDATASIZE PUSH1 0x3 NOT ADD SLT PUSH2 0x230 JUMPI PUSH1 0x4 CALLDATALOAD PUSH1 0x1 PUSH1 0x1 PUSH1 0x40 SHL SUB DUP2 GT PUSH2 0x230 JUMPI PUSH1 0x20 DUP1 PUSH2 0x11E8 PUSH2 0x1256 SWAP4 CALLDATASIZE SWAP1 PUSH1 0x4 ADD PUSH2 0x18CC JUMP JUMPDEST PUSH1 0x40 MLOAD SWAP3 DUP2 DUP5 SWAP3 MLOAD SWAP2 DUP3 SWAP2 ADD DUP4 MCOPY DUP2 ADD PUSH0 DUP2 MSTORE SUB ADD SWAP1 KECCAK256 PUSH2 0x36B PUSH1 0xFF DUP3 SLOAD AND SWAP2 PUSH2 0x128B PUSH1 0x1 DUP3 ADD SLOAD SWAP2 PUSH2 0x127D PUSH1 0x2 DUP3 ADD SLOAD PUSH1 0x3 DUP4 ADD SLOAD PUSH1 0x4 DUP5 ADD SLOAD SWAP1 PUSH2 0x1230 PUSH1 0x5 DUP7 ADD PUSH2 0x1BA6 JUMP JUMPDEST SWAP3 PUSH2 0x1249 PUSH1 0xB PUSH2 0x1242 PUSH1 0x8 DUP10 ADD PUSH2 0x1BA6 JUMP JUMPDEST SWAP8 ADD PUSH2 0x1959 JUMP JUMPDEST SWAP8 PUSH1 0x40 MLOAD SWAP12 DUP13 DUP1 SWAP13 PUSH2 0x1A5B JUMP JUMPDEST PUSH1 0x20 DUP12 ADD MSTORE PUSH1 0x40 DUP11 ADD MSTORE PUSH1 0x60 DUP10 ADD MSTORE PUSH1 0x80 DUP9 ADD MSTORE PUSH2 0x100 PUSH1 0xA0 DUP9 ADD MSTORE PUSH2 0x100 DUP8 ADD SWAP1 PUSH2 0x1A1D JUMP JUMPDEST SWAP1 DUP6 DUP3 SUB PUSH1 0xC0 DUP8 ADD MSTORE PUSH2 0x1A1D JUMP JUMPDEST SWAP1 DUP4 DUP3 SUB PUSH1 0xE0 DUP6 ADD MSTORE PUSH2 0x19F9 JUMP JUMPDEST CALLVALUE PUSH2 0x230 JUMPI PUSH1 0x20 CALLDATASIZE PUSH1 0x3 NOT ADD SLT PUSH2 0x230 JUMPI PUSH1 0x4 CALLDATALOAD PUSH1 0x1 PUSH1 0x1 PUSH1 0x40 SHL SUB DUP2 GT PUSH2 0x230 JUMPI PUSH2 0x587 PUSH2 0x12CF PUSH2 0x36B SWAP3 CALLDATASIZE SWAP1 PUSH1 0x4 ADD PUSH2 0x18CC JUMP JUMPDEST PUSH2 0x1F72 JUMP JUMPDEST CALLVALUE PUSH2 0x230 JUMPI PUSH1 0x20 CALLDATASIZE PUSH1 0x3 NOT ADD SLT PUSH2 0x230 JUMPI PUSH1 0x4 CALLDATALOAD PUSH1 0x1 PUSH1 0x1 PUSH1 0x40 SHL SUB DUP2 GT PUSH2 0x230 JUMPI PUSH2 0x1304 SWAP1 CALLDATASIZE SWAP1 PUSH1 0x4 ADD PUSH2 0x18CC JUMP JUMPDEST PUSH1 0x2 SLOAD PUSH1 0x20 DUP3 ADD SWAP2 PUSH0 DUP1 JUMPDEST DUP4 DUP2 LT PUSH2 0x13E0 JUMPI POP PUSH1 0xFF PUSH2 0x1323 SWAP2 AND PUSH2 0x1D8C JUMP JUMPDEST SWAP3 PUSH0 SWAP2 PUSH0 JUMPDEST DUP5 DUP2 LT PUSH2 0x133D JUMPI PUSH1 0x40 MLOAD DUP1 PUSH2 0x36B DUP9 DUP3 PUSH2 0x1A68 JUMP JUMPDEST PUSH1 0x2 PUSH2 0x1AB PUSH2 0x1362 PUSH2 0x134E DUP5 PUSH2 0x1CDB JUMP JUMPDEST POP PUSH1 0x40 MLOAD SWAP3 DUP4 SWAP2 PUSH1 0x20 DUP4 ADD SWAP6 DUP7 SWAP2 ADD PUSH2 0x1EBE JUMP JUMPDEST MLOAD SWAP1 KECCAK256 PUSH1 0x40 MLOAD PUSH1 0x20 DUP2 ADD SWAP1 PUSH2 0x138F PUSH1 0x20 DUP3 DUP8 MLOAD DUP1 DUP11 DUP8 MCOPY DUP2 ADD PUSH0 DUP4 DUP3 ADD MSTORE SUB ADD PUSH1 0x1F NOT DUP2 ADD DUP4 MSTORE DUP3 PUSH2 0x18AB JUMP JUMPDEST MLOAD SWAP1 KECCAK256 EQ PUSH2 0x13A0 JUMPI JUMPDEST PUSH1 0x1 ADD PUSH2 0x1328 JUMP JUMPDEST SWAP3 PUSH2 0x13D8 PUSH1 0x1 SWAP2 PUSH2 0x13D2 PUSH2 0x13BC PUSH2 0x13B6 DUP9 PUSH2 0x1CDB JUMP JUMPDEST POP PUSH2 0x1E1C JUMP JUMPDEST PUSH1 0xFF DUP4 AND SWAP1 PUSH2 0x13CB DUP3 DUP13 PUSH2 0x1DFC JUMP JUMPDEST MSTORE DUP10 PUSH2 0x1DFC JUMP JUMPDEST POP PUSH2 0x1E76 JUMP JUMPDEST SWAP4 SWAP1 POP PUSH2 0x1398 JUMP JUMPDEST PUSH1 0x2 PUSH2 0x1AB PUSH2 0x13F1 PUSH2 0x134E DUP5 PUSH2 0x1CDB JUMP JUMPDEST MLOAD SWAP1 KECCAK256 PUSH1 0x40 MLOAD PUSH1 0x20 DUP2 ADD SWAP1 PUSH2 0x141E PUSH1 0x20 DUP3 DUP9 MLOAD DUP1 DUP13 DUP8 MCOPY DUP2 ADD PUSH0 DUP4 DUP3 ADD MSTORE SUB ADD PUSH1 0x1F NOT DUP2 ADD DUP4 MSTORE DUP3 PUSH2 0x18AB JUMP JUMPDEST MLOAD SWAP1 KECCAK256 EQ PUSH2 0x142F JUMPI JUMPDEST PUSH1 0x1 ADD PUSH2 0x130F JUMP JUMPDEST SWAP1 PUSH2 0x143B PUSH1 0x1 SWAP2 PUSH2 0x1E76 JUMP JUMPDEST SWAP2 SWAP1 POP PUSH2 0x1427 JUMP JUMPDEST CALLVALUE PUSH2 0x230 JUMPI PUSH1 0x40 CALLDATASIZE PUSH1 0x3 NOT ADD SLT PUSH2 0x230 JUMPI PUSH1 0x4 CALLDATALOAD PUSH1 0x1 PUSH1 0x1 PUSH1 0x40 SHL SUB DUP2 GT PUSH2 0x230 JUMPI PUSH2 0x1473 SWAP1 CALLDATASIZE SWAP1 PUSH1 0x4 ADD PUSH2 0x18CC JUMP JUMPDEST PUSH1 0x40 MLOAD DUP2 MLOAD PUSH1 0x24 CALLDATALOAD SWAP3 PUSH1 0x20 SWAP2 DUP4 SWAP2 DUP2 SWAP1 DUP5 ADD DUP4 MCOPY DUP2 ADD PUSH1 0x4 DUP2 MSTORE SUB ADD SWAP1 KECCAK256 SWAP1 DUP2 SLOAD DUP2 LT ISZERO PUSH2 0x230 JUMPI PUSH2 0x14CF SWAP2 PUSH0 MSTORE PUSH1 0x20 PUSH0 KECCAK256 SWAP1 PUSH1 0x1 SHL ADD PUSH1 0xFF PUSH1 0x1 PUSH2 0x14B7 DUP4 PUSH2 0x1959 JUMP JUMPDEST SWAP3 ADD SLOAD AND PUSH1 0x40 MLOAD SWAP3 DUP4 SWAP3 PUSH1 0x40 DUP5 MSTORE PUSH1 0x40 DUP5 ADD SWAP1 PUSH2 0x19F9 JUMP JUMPDEST SWAP1 PUSH1 0x20 DUP4 ADD MSTORE SUB SWAP1 RETURN JUMPDEST CALLVALUE PUSH2 0x230 JUMPI PUSH1 0x20 CALLDATASIZE PUSH1 0x3 NOT ADD SLT PUSH2 0x230 JUMPI PUSH1 0x4 CALLDATALOAD PUSH1 0x1 PUSH1 0x1 PUSH1 0x40 SHL SUB DUP2 GT PUSH2 0x230 JUMPI PUSH2 0x1514 PUSH2 0x150F PUSH2 0x36B SWAP3 CALLDATASIZE SWAP1 PUSH1 0x4 ADD PUSH2 0x18CC JUMP JUMPDEST PUSH2 0x1E9B JUMP JUMPDEST PUSH1 0x40 MLOAD SWAP2 DUP3 SWAP2 PUSH1 0x20 DUP4 MSTORE PUSH1 0x20 DUP4 ADD SWAP1 PUSH2 0x19F9 JUMP JUMPDEST CALLVALUE PUSH2 0x230 JUMPI PUSH1 0x20 CALLDATASIZE PUSH1 0x3 NOT ADD SLT PUSH2 0x230 JUMPI PUSH1 0x4 CALLDATALOAD PUSH1 0x1 PUSH1 0x1 PUSH1 0x40 SHL SUB DUP2 GT PUSH2 0x230 JUMPI PUSH1 0x20 DUP1 PUSH2 0x155E PUSH2 0x1606 SWAP4 CALLDATASIZE SWAP1 PUSH1 0x4 ADD PUSH2 0x18CC JUMP JUMPDEST PUSH1 0x60 DUP1 PUSH1 0x40 MLOAD PUSH2 0x156D DUP2 PUSH2 0x183E JUMP JUMPDEST DUP2 DUP2 MSTORE DUP2 DUP6 DUP3 ADD MSTORE PUSH0 PUSH1 0x40 DUP3 ADD MSTORE ADD MSTORE PUSH1 0x40 MLOAD SWAP3 DUP2 DUP5 SWAP3 MLOAD SWAP2 DUP3 SWAP2 ADD DUP4 MCOPY DUP2 ADD PUSH1 0x3 DUP2 MSTORE SUB ADD SWAP1 KECCAK256 PUSH2 0x36B PUSH1 0x40 MLOAD SWAP2 PUSH2 0x15A5 DUP4 PUSH2 0x183E JUMP JUMPDEST PUSH2 0x15AE DUP2 PUSH2 0x1959 JUMP JUMPDEST DUP4 MSTORE PUSH2 0x15BC PUSH1 0x1 DUP3 ADD PUSH2 0x1959 JUMP JUMPDEST PUSH1 0x20 DUP5 ADD SWAP1 DUP2 MSTORE PUSH1 0xFF PUSH2 0x1619 PUSH2 0x15E2 PUSH1 0x3 DUP4 PUSH1 0x2 DUP8 ADD SLOAD AND SWAP6 PUSH1 0x40 DUP10 ADD SWAP7 DUP8 MSTORE ADD PUSH2 0x1959 JUMP JUMPDEST SWAP3 PUSH1 0x60 DUP8 ADD SWAP4 DUP5 MSTORE PUSH1 0x40 MLOAD SWAP8 DUP9 SWAP8 PUSH1 0x20 DUP10 MSTORE MLOAD PUSH1 0x80 PUSH1 0x20 DUP11 ADD MSTORE PUSH1 0xA0 DUP10 ADD SWAP1 PUSH2 0x19F9 JUMP JUMPDEST SWAP1 MLOAD DUP8 DUP3 SUB PUSH1 0x1F NOT ADD PUSH1 0x40 DUP10 ADD MSTORE PUSH2 0x19F9 JUMP JUMPDEST SWAP3 MLOAD AND PUSH1 0x60 DUP6 ADD MSTORE MLOAD DUP4 DUP3 SUB PUSH1 0x1F NOT ADD PUSH1 0x80 DUP6 ADD MSTORE PUSH2 0x19F9 JUMP JUMPDEST CALLVALUE PUSH2 0x230 JUMPI PUSH1 0x20 CALLDATASIZE PUSH1 0x3 NOT ADD SLT PUSH2 0x230 JUMPI PUSH1 0x4 CALLDATALOAD PUSH1 0x1 PUSH1 0x1 PUSH1 0x40 SHL SUB DUP2 GT PUSH2 0x230 JUMPI PUSH1 0x20 DUP1 PUSH2 0x1669 PUSH2 0x16C6 SWAP4 CALLDATASIZE SWAP1 PUSH1 0x4 ADD PUSH2 0x18CC JUMP JUMPDEST PUSH1 0x40 MLOAD SWAP3 DUP2 DUP5 SWAP3 MLOAD SWAP2 DUP3 SWAP2 ADD DUP4 MCOPY DUP2 ADD PUSH1 0x3 DUP2 MSTORE SUB ADD SWAP1 KECCAK256 PUSH2 0x36B PUSH2 0x168D DUP3 PUSH2 0x1959 JUMP JUMPDEST SWAP2 PUSH2 0x169A PUSH1 0x1 DUP3 ADD PUSH2 0x1959 JUMP JUMPDEST PUSH2 0x16D4 PUSH2 0x16B1 PUSH1 0x3 PUSH1 0xFF PUSH1 0x2 DUP7 ADD SLOAD AND SWAP5 ADD PUSH2 0x1959 JUMP JUMPDEST SWAP2 PUSH1 0x40 MLOAD SWAP7 DUP8 SWAP7 PUSH1 0x80 DUP9 MSTORE PUSH1 0x80 DUP9 ADD SWAP1 PUSH2 0x19F9 JUMP JUMPDEST SWAP1 DUP7 DUP3 SUB PUSH1 0x20 DUP9 ADD MSTORE PUSH2 0x19F9 JUMP JUMPDEST SWAP2 PUSH1 0x40 DUP6 ADD MSTORE DUP4 DUP3 SUB PUSH1 0x60 DUP6 ADD MSTORE PUSH2 0x19F9 JUMP JUMPDEST CALLVALUE PUSH2 0x230 JUMPI PUSH0 CALLDATASIZE PUSH1 0x3 NOT ADD SLT PUSH2 0x230 JUMPI PUSH1 0x2 SLOAD PUSH2 0x1703 DUP2 PUSH2 0x1D8C JUMP JUMPDEST SWAP1 PUSH0 DUP1 JUMPDEST DUP3 DUP3 LT PUSH2 0x171C JUMPI PUSH1 0x40 MLOAD DUP1 PUSH2 0x36B DUP7 DUP3 PUSH2 0x1A68 JUMP JUMPDEST PUSH2 0x1747 PUSH1 0x1 SWAP2 PUSH2 0x13D2 PUSH2 0x1731 PUSH2 0x13B6 DUP7 PUSH2 0x1CDB JUMP JUMPDEST PUSH1 0xFF DUP4 AND SWAP1 PUSH2 0x1740 DUP3 DUP11 PUSH2 0x1DFC JUMP JUMPDEST MSTORE DUP8 PUSH2 0x1DFC JUMP JUMPDEST SWAP2 ADD SWAP1 PUSH2 0x1707 JUMP JUMPDEST CALLVALUE PUSH2 0x230 JUMPI PUSH1 0x20 CALLDATASIZE PUSH1 0x3 NOT ADD SLT PUSH2 0x230 JUMPI PUSH1 0x4 CALLDATALOAD PUSH1 0x1 PUSH1 0x1 PUSH1 0x40 SHL SUB DUP2 GT PUSH2 0x230 JUMPI PUSH2 0x1782 PUSH2 0x22E SWAP2 CALLDATASIZE SWAP1 PUSH1 0x4 ADD PUSH2 0x18CC JUMP JUMPDEST PUSH2 0x1D47 JUMP JUMPDEST CALLVALUE PUSH2 0x230 JUMPI PUSH1 0x20 CALLDATASIZE PUSH1 0x3 NOT ADD SLT PUSH2 0x230 JUMPI PUSH1 0x4 CALLDATALOAD PUSH1 0x1 PUSH1 0x1 PUSH1 0x40 SHL SUB DUP2 GT PUSH2 0x230 JUMPI PUSH2 0x52F PUSH1 0x5 PUSH1 0x20 DUP1 PUSH2 0x17C2 PUSH2 0x36B SWAP6 CALLDATASIZE SWAP1 PUSH1 0x4 ADD PUSH2 0x18CC JUMP JUMPDEST PUSH2 0x17CA PUSH2 0x1D27 JUMP JUMPDEST POP PUSH1 0x40 MLOAD SWAP3 DUP2 DUP5 SWAP3 MLOAD SWAP2 DUP3 SWAP2 ADD DUP4 MCOPY DUP2 ADD PUSH0 DUP2 MSTORE SUB ADD SWAP1 KECCAK256 ADD PUSH2 0x1BA6 JUMP JUMPDEST CALLVALUE PUSH2 0x230 JUMPI PUSH1 0x20 CALLDATASIZE PUSH1 0x3 NOT ADD SLT PUSH2 0x230 JUMPI PUSH1 0x4 CALLDATALOAD PUSH1 0x1 PUSH1 0x1 PUSH1 0x40 SHL SUB DUP2 GT PUSH2 0x230 JUMPI PUSH2 0x1514 PUSH1 0x20 DUP1 PUSH2 0x1821 PUSH2 0x36B SWAP5 CALLDATASIZE SWAP1 PUSH1 0x4 ADD PUSH2 0x18CC JUMP JUMPDEST PUSH1 0x40 MLOAD SWAP3 DUP2 DUP5 SWAP3 MLOAD SWAP2 DUP3 SWAP2 ADD DUP4 MCOPY DUP2 ADD PUSH1 0x1 DUP2 MSTORE SUB ADD SWAP1 KECCAK256 PUSH2 0x1959 JUMP JUMPDEST PUSH1 0x80 DUP2 ADD SWAP1 DUP2 LT PUSH1 0x1 PUSH1 0x1 PUSH1 0x40 SHL SUB DUP3 GT OR PUSH2 0x866 JUMPI PUSH1 0x40 MSTORE JUMP JUMPDEST PUSH1 0xA0 DUP2 ADD SWAP1 DUP2 LT PUSH1 0x1 PUSH1 0x1 PUSH1 0x40 SHL SUB DUP3 GT OR PUSH2 0x866 JUMPI PUSH1 0x40 MSTORE JUMP JUMPDEST PUSH1 0x60 DUP2 ADD SWAP1 DUP2 LT PUSH1 0x1 PUSH1 0x1 PUSH1 0x40 SHL SUB DUP3 GT OR PUSH2 0x866 JUMPI PUSH1 0x40 MSTORE JUMP JUMPDEST PUSH2 0x100 DUP2 ADD SWAP1 DUP2 LT PUSH1 0x1 PUSH1 0x1 PUSH1 0x40 SHL SUB DUP3 GT OR PUSH2 0x866 JUMPI PUSH1 0x40 MSTORE JUMP JUMPDEST SWAP1 PUSH1 0x1F DUP1 NOT SWAP2 ADD AND DUP2 ADD SWAP1 DUP2 LT PUSH1 0x1 PUSH1 0x1 PUSH1 0x40 SHL SUB DUP3 GT OR PUSH2 0x866 JUMPI PUSH1 0x40 MSTORE JUMP JUMPDEST DUP2 PUSH1 0x1F DUP3 ADD SLT ISZERO PUSH2 0x230 JUMPI DUP1 CALLDATALOAD SWAP1 PUSH1 0x1 PUSH1 0x1 PUSH1 0x40 SHL SUB DUP3 GT PUSH2 0x866 JUMPI PUSH1 0x40 MLOAD SWAP3 PUSH2 0x1900 PUSH1 0x1F DUP5 ADD PUSH1 0x1F NOT AND PUSH1 0x20 ADD DUP6 PUSH2 0x18AB JUMP JUMPDEST DUP3 DUP5 MSTORE PUSH1 0x20 DUP4 DUP4 ADD ADD GT PUSH2 0x230 JUMPI DUP2 PUSH0 SWAP3 PUSH1 0x20 DUP1 SWAP4 ADD DUP4 DUP7 ADD CALLDATACOPY DUP4 ADD ADD MSTORE SWAP1 JUMP JUMPDEST SWAP1 PUSH1 0x1 DUP3 DUP2 SHR SWAP3 AND DUP1 ISZERO PUSH2 0x194F JUMPI JUMPDEST PUSH1 0x20 DUP4 LT EQ PUSH2 0x193B JUMPI JUMP JUMPDEST PUSH4 0x4E487B71 PUSH1 0xE0 SHL PUSH0 MSTORE PUSH1 0x22 PUSH1 0x4 MSTORE PUSH1 0x24 PUSH0 REVERT JUMPDEST SWAP2 PUSH1 0x7F AND SWAP2 PUSH2 0x1930 JUMP JUMPDEST SWAP1 PUSH1 0x40 MLOAD SWAP2 DUP3 PUSH0 DUP3 SLOAD SWAP3 PUSH2 0x196C DUP5 PUSH2 0x1921 JUMP JUMPDEST DUP1 DUP5 MSTORE SWAP4 PUSH1 0x1 DUP2 AND SWAP1 DUP2 ISZERO PUSH2 0x19D7 JUMPI POP PUSH1 0x1 EQ PUSH2 0x1993 JUMPI JUMPDEST POP PUSH2 0x1991 SWAP3 POP SUB DUP4 PUSH2 0x18AB JUMP JUMPDEST JUMP JUMPDEST SWAP1 POP PUSH0 SWAP3 SWAP2 SWAP3 MSTORE PUSH1 0x20 PUSH0 KECCAK256 SWAP1 PUSH0 SWAP2 JUMPDEST DUP2 DUP4 LT PUSH2 0x19BB JUMPI POP POP SWAP1 PUSH1 0x20 PUSH2 0x1991 SWAP3 DUP3 ADD ADD PUSH0 PUSH2 0x1984 JUMP JUMPDEST PUSH1 0x20 SWAP2 SWAP4 POP DUP1 PUSH1 0x1 SWAP2 SLOAD DUP4 DUP6 DUP10 ADD ADD MSTORE ADD SWAP2 ADD SWAP1 SWAP2 DUP5 SWAP3 PUSH2 0x19A2 JUMP JUMPDEST SWAP1 POP PUSH1 0x20 SWAP3 POP PUSH2 0x1991 SWAP5 SWAP2 POP PUSH1 0xFF NOT AND DUP3 DUP5 ADD MSTORE ISZERO ISZERO PUSH1 0x5 SHL DUP3 ADD ADD PUSH0 PUSH2 0x1984 JUMP JUMPDEST DUP1 MLOAD DUP1 DUP4 MSTORE PUSH1 0x20 SWAP3 SWAP2 DUP2 SWAP1 DUP5 ADD DUP5 DUP5 ADD MCOPY PUSH0 DUP3 DUP3 ADD DUP5 ADD MSTORE PUSH1 0x1F ADD PUSH1 0x1F NOT AND ADD ADD SWAP1 JUMP JUMPDEST SWAP1 PUSH1 0x40 PUSH2 0x1A48 PUSH2 0x1A36 DUP5 MLOAD PUSH1 0x60 DUP6 MSTORE PUSH1 0x60 DUP6 ADD SWAP1 PUSH2 0x19F9 JUMP JUMPDEST PUSH1 0x20 DUP6 ADD MLOAD DUP5 DUP3 SUB PUSH1 0x20 DUP7 ADD MSTORE PUSH2 0x19F9 JUMP JUMPDEST SWAP3 DUP2 ADD MLOAD PUSH1 0x1 PUSH1 0x1 PUSH1 0xA0 SHL SUB AND SWAP2 ADD MSTORE SWAP1 JUMP JUMPDEST SWAP1 PUSH1 0x4 DUP3 LT ISZERO PUSH2 0xD36 JUMPI MSTORE JUMP JUMPDEST PUSH1 0x20 DUP2 ADD PUSH1 0x20 DUP3 MSTORE DUP3 MLOAD DUP1 SWAP2 MSTORE PUSH1 0x40 DUP3 ADD SWAP2 PUSH1 0x20 PUSH1 0x40 DUP4 PUSH1 0x5 SHL DUP4 ADD ADD SWAP5 ADD SWAP3 PUSH0 SWAP2 JUMPDEST DUP4 DUP4 LT PUSH2 0x1A9A JUMPI POP POP POP POP POP SWAP1 JUMP JUMPDEST SWAP1 SWAP2 SWAP3 SWAP4 SWAP5 PUSH1 0x20 DUP1 PUSH1 0x1 SWAP3 PUSH1 0x3F NOT DUP6 DUP3 SUB ADD DUP7 MSTORE PUSH2 0x1B0A DUP10 MLOAD SWAP2 PUSH1 0x80 DUP1 PUSH2 0x1AF2 PUSH2 0x1AE0 PUSH2 0x1AD0 DUP8 MLOAD PUSH1 0xA0 DUP8 MSTORE PUSH1 0xA0 DUP8 ADD SWAP1 PUSH2 0x19F9 JUMP JUMPDEST DUP9 DUP9 ADD MLOAD DUP7 DUP3 SUB DUP11 DUP9 ADD MSTORE PUSH2 0x19F9 JUMP JUMPDEST PUSH1 0x40 DUP8 ADD MLOAD DUP6 DUP3 SUB PUSH1 0x40 DUP8 ADD MSTORE PUSH2 0x19F9 JUMP JUMPDEST SWAP5 PUSH1 0xFF PUSH1 0x60 DUP3 ADD MLOAD AND PUSH1 0x60 DUP6 ADD MSTORE ADD MLOAD SWAP2 ADD SWAP1 PUSH2 0x1A5B JUMP JUMPDEST SWAP8 ADD SWAP4 ADD SWAP4 ADD SWAP2 SWAP4 SWAP3 SWAP1 PUSH2 0x1A8B JUMP JUMPDEST SWAP1 PUSH2 0x1BA3 SWAP2 PUSH1 0x20 DUP2 MSTORE PUSH2 0x1B30 PUSH1 0x20 DUP3 ADD DUP4 MLOAD PUSH2 0x1A5B JUMP JUMPDEST PUSH1 0x20 DUP3 ADD MLOAD PUSH1 0x40 DUP3 ADD MSTORE PUSH1 0x40 DUP3 ADD MLOAD PUSH1 0x60 DUP3 ADD MSTORE PUSH1 0x60 DUP3 ADD MLOAD PUSH1 0x80 DUP3 ADD MSTORE PUSH1 0x80 DUP3 ADD MLOAD PUSH1 0xA0 DUP3 ADD MSTORE PUSH1 0xE0 PUSH2 0x1B8D PUSH2 0x1B78 PUSH1 0xA0 DUP6 ADD MLOAD PUSH2 0x100 PUSH1 0xC0 DUP7 ADD MSTORE PUSH2 0x120 DUP6 ADD SWAP1 PUSH2 0x1A1D JUMP JUMPDEST PUSH1 0xC0 DUP6 ADD MLOAD DUP5 DUP3 SUB PUSH1 0x1F NOT ADD DUP5 DUP7 ADD MSTORE PUSH2 0x1A1D JUMP JUMPDEST SWAP3 ADD MLOAD SWAP1 PUSH2 0x100 PUSH1 0x1F NOT DUP3 DUP6 SUB ADD SWAP2 ADD MSTORE PUSH2 0x19F9 JUMP JUMPDEST SWAP1 JUMP JUMPDEST SWAP1 PUSH1 0x40 MLOAD PUSH2 0x1BB3 DUP2 PUSH2 0x1874 JUMP JUMPDEST PUSH1 0x40 DUP2 SWAP4 PUSH2 0x1BC0 DUP2 PUSH2 0x1959 JUMP JUMPDEST DUP4 MSTORE PUSH2 0x1BCE PUSH1 0x1 DUP3 ADD PUSH2 0x1959 JUMP JUMPDEST PUSH1 0x20 DUP5 ADD MSTORE PUSH1 0x2 ADD SLOAD PUSH1 0x1 PUSH1 0x1 PUSH1 0xA0 SHL SUB AND SWAP2 ADD MSTORE JUMP JUMPDEST PUSH1 0x84 CALLDATALOAD SWAP1 PUSH1 0x1 PUSH1 0x1 PUSH1 0xA0 SHL SUB DUP3 AND DUP3 SUB PUSH2 0x230 JUMPI JUMP JUMPDEST SWAP2 SWAP1 PUSH1 0x60 DUP4 DUP3 SUB SLT PUSH2 0x230 JUMPI PUSH1 0x40 MLOAD SWAP1 PUSH2 0x1C14 DUP3 PUSH2 0x1874 JUMP JUMPDEST DUP2 SWAP4 DUP1 CALLDATALOAD PUSH1 0x1 PUSH1 0x1 PUSH1 0x40 SHL SUB DUP2 GT PUSH2 0x230 JUMPI DUP3 PUSH2 0x1C32 SWAP2 DUP4 ADD PUSH2 0x18CC JUMP JUMPDEST DUP4 MSTORE PUSH1 0x20 DUP2 ADD CALLDATALOAD PUSH1 0x1 PUSH1 0x1 PUSH1 0x40 SHL SUB DUP2 GT PUSH2 0x230 JUMPI PUSH1 0x40 SWAP3 PUSH2 0x1C55 SWAP2 DUP4 ADD PUSH2 0x18CC JUMP JUMPDEST PUSH1 0x20 DUP5 ADD MSTORE ADD CALLDATALOAD SWAP1 PUSH1 0x1 PUSH1 0x1 PUSH1 0xA0 SHL SUB DUP3 AND DUP3 SUB PUSH2 0x230 JUMPI PUSH1 0x40 ADD MSTORE JUMP JUMPDEST PUSH1 0x60 PUSH1 0x3 NOT DUP3 ADD SLT PUSH2 0x230 JUMPI PUSH1 0x4 CALLDATALOAD PUSH1 0x1 PUSH1 0x1 PUSH1 0x40 SHL SUB DUP2 GT PUSH2 0x230 JUMPI DUP2 PUSH2 0x1C9D SWAP2 PUSH1 0x4 ADD PUSH2 0x18CC JUMP JUMPDEST SWAP2 PUSH1 0x24 CALLDATALOAD PUSH1 0x1 PUSH1 0x1 PUSH1 0x40 SHL SUB DUP2 GT PUSH2 0x230 JUMPI DUP3 PUSH2 0x1CBC SWAP2 PUSH1 0x4 ADD PUSH2 0x18CC JUMP JUMPDEST SWAP2 PUSH1 0x44 CALLDATALOAD SWAP1 PUSH1 0x1 PUSH1 0x1 PUSH1 0x40 SHL SUB DUP3 GT PUSH2 0x230 JUMPI PUSH2 0x1BA3 SWAP2 PUSH1 0x4 ADD PUSH2 0x1BFB JUMP JUMPDEST PUSH1 0x2 SLOAD DUP2 LT ISZERO PUSH2 0x1D13 JUMPI PUSH1 0x2 PUSH0 DUP2 DUP2 MSTORE SWAP2 SWAP1 SHL PUSH32 0x405787FA12A823E0F2B7631CC41B3BA8828B3321CA811111FA75CD3AA3BB5ACE ADD SWAP2 JUMP JUMPDEST PUSH4 0x4E487B71 PUSH1 0xE0 SHL PUSH0 MSTORE PUSH1 0x32 PUSH1 0x4 MSTORE PUSH1 0x24 PUSH0 REVERT JUMPDEST PUSH1 0x40 MLOAD SWAP1 PUSH2 0x1D34 DUP3 PUSH2 0x1874 JUMP JUMPDEST PUSH0 PUSH1 0x40 DUP4 PUSH1 0x60 DUP2 MSTORE PUSH1 0x60 PUSH1 0x20 DUP3 ADD MSTORE ADD MSTORE JUMP JUMPDEST PUSH1 0x20 DUP1 SWAP2 PUSH1 0x40 MLOAD SWAP3 DUP2 DUP5 SWAP3 MLOAD SWAP2 DUP3 SWAP2 ADD DUP4 MCOPY DUP2 ADD PUSH0 DUP2 MSTORE SUB ADD SWAP1 KECCAK256 TIMESTAMP PUSH1 0x4 DUP3 ADD SSTORE PUSH1 0x3 PUSH1 0xFF NOT DUP3 SLOAD AND OR SWAP1 SSTORE JUMP JUMPDEST PUSH1 0x1 PUSH1 0x1 PUSH1 0x40 SHL SUB DUP2 GT PUSH2 0x866 JUMPI PUSH1 0x5 SHL PUSH1 0x20 ADD SWAP1 JUMP JUMPDEST SWAP1 PUSH2 0x1D96 DUP3 PUSH2 0x1D75 JUMP JUMPDEST PUSH2 0x1DA3 PUSH1 0x40 MLOAD SWAP2 DUP3 PUSH2 0x18AB JUMP JUMPDEST DUP3 DUP2 MSTORE DUP1 SWAP3 PUSH2 0x1DB4 PUSH1 0x1F NOT SWAP2 PUSH2 0x1D75 JUMP JUMPDEST ADD SWAP1 PUSH0 JUMPDEST DUP3 DUP2 LT PUSH2 0x1DC4 JUMPI POP POP POP JUMP JUMPDEST PUSH1 0x20 SWAP1 PUSH1 0x40 MLOAD PUSH2 0x1DD3 DUP2 PUSH2 0x1859 JUMP JUMPDEST PUSH1 0x60 DUP2 MSTORE PUSH1 0x60 DUP4 DUP3 ADD MSTORE PUSH1 0x60 PUSH1 0x40 DUP3 ADD MSTORE PUSH0 PUSH1 0x60 DUP3 ADD MSTORE PUSH0 PUSH1 0x80 DUP3 ADD MSTORE DUP3 DUP3 DUP6 ADD ADD MSTORE ADD PUSH2 0x1DB8 JUMP JUMPDEST DUP1 MLOAD DUP3 LT ISZERO PUSH2 0x1D13 JUMPI PUSH1 0x20 SWAP2 PUSH1 0x5 SHL ADD ADD SWAP1 JUMP JUMPDEST PUSH1 0x4 DUP3 LT ISZERO PUSH2 0xD36 JUMPI MSTORE JUMP JUMPDEST SWAP1 PUSH2 0x1991 PUSH1 0x40 MLOAD PUSH2 0x1E2C DUP2 PUSH2 0x1859 JUMP JUMPDEST PUSH1 0x80 PUSH1 0xFF PUSH1 0x3 DUP4 SWAP7 PUSH2 0x1E3D DUP2 PUSH2 0x1959 JUMP JUMPDEST DUP6 MSTORE PUSH2 0x1E4B PUSH1 0x1 DUP3 ADD PUSH2 0x1959 JUMP JUMPDEST PUSH1 0x20 DUP7 ADD MSTORE PUSH2 0x1E5C PUSH1 0x2 DUP3 ADD PUSH2 0x1959 JUMP JUMPDEST PUSH1 0x40 DUP7 ADD MSTORE ADD SLOAD DUP2 DUP2 AND PUSH1 0x60 DUP6 ADD MSTORE PUSH1 0x8 SHR AND SWAP2 ADD PUSH2 0x1E10 JUMP JUMPDEST PUSH1 0xFF AND PUSH1 0xFF DUP2 EQ PUSH2 0x1E87 JUMPI PUSH1 0x1 ADD SWAP1 JUMP JUMPDEST PUSH4 0x4E487B71 PUSH1 0xE0 SHL PUSH0 MSTORE PUSH1 0x11 PUSH1 0x4 MSTORE PUSH1 0x24 PUSH0 REVERT JUMPDEST PUSH1 0x40 MLOAD DUP2 MLOAD PUSH2 0x1BA3 SWAP3 PUSH1 0x20 SWAP2 DUP4 SWAP2 DUP2 SWAP1 DUP5 ADD DUP4 MCOPY DUP2 ADD PUSH1 0x1 DUP2 MSTORE SUB ADD SWAP1 KECCAK256 PUSH2 0x1959 JUMP JUMPDEST PUSH0 SWAP3 SWAP2 DUP2 SLOAD SWAP2 PUSH2 0x1ECD DUP4 PUSH2 0x1921 JUMP JUMPDEST SWAP3 PUSH1 0x1 DUP2 AND SWAP1 DUP2 ISZERO PUSH2 0x1F15 JUMPI POP PUSH1 0x1 EQ PUSH2 0x1EE6 JUMPI POP POP POP JUMP JUMPDEST SWAP1 SWAP2 SWAP3 SWAP4 POP PUSH0 MSTORE PUSH1 0x20 PUSH0 KECCAK256 PUSH0 SWAP1 JUMPDEST DUP4 DUP3 LT PUSH2 0x1F01 JUMPI POP POP ADD SWAP1 JUMP JUMPDEST PUSH1 0x1 DUP2 PUSH1 0x20 SWAP3 SLOAD DUP5 DUP7 ADD MSTORE ADD SWAP2 ADD SWAP1 PUSH2 0x1EF4 JUMP JUMPDEST PUSH1 0xFF NOT AND DUP4 MSTORE POP POP DUP2 ISZERO ISZERO SWAP1 SWAP2 MUL ADD SWAP2 POP JUMP JUMPDEST PUSH1 0x40 MLOAD SWAP1 PUSH2 0x1F35 DUP3 PUSH2 0x188F JUMP JUMPDEST PUSH1 0x60 PUSH1 0xE0 DUP4 PUSH0 DUP2 MSTORE PUSH0 PUSH1 0x20 DUP3 ADD MSTORE PUSH0 PUSH1 0x40 DUP3 ADD MSTORE PUSH0 DUP4 DUP3 ADD MSTORE PUSH0 PUSH1 0x80 DUP3 ADD MSTORE PUSH2 0x1F5C PUSH2 0x1D27 JUMP JUMPDEST PUSH1 0xA0 DUP3 ADD MSTORE PUSH2 0x1F69 PUSH2 0x1D27 JUMP JUMPDEST PUSH1 0xC0 DUP3 ADD MSTORE ADD MSTORE JUMP JUMPDEST PUSH1 0x20 DUP1 SWAP2 PUSH2 0x1F7E PUSH2 0x1F28 JUMP JUMPDEST POP PUSH1 0x40 MLOAD SWAP3 DUP2 DUP5 SWAP3 MLOAD SWAP2 DUP3 SWAP2 ADD DUP4 MCOPY DUP2 ADD PUSH0 DUP2 MSTORE SUB ADD SWAP1 KECCAK256 PUSH2 0x2006 PUSH1 0xB PUSH1 0x40 MLOAD SWAP3 PUSH2 0x1FA8 DUP5 PUSH2 0x188F JUMP JUMPDEST PUSH2 0x1FB6 PUSH1 0xFF DUP3 SLOAD AND DUP6 PUSH2 0x1E10 JUMP JUMPDEST PUSH1 0x1 DUP2 ADD SLOAD PUSH1 0x20 DUP6 ADD MSTORE PUSH1 0x2 DUP2 ADD SLOAD PUSH1 0x40 DUP6 ADD MSTORE PUSH1 0x3 DUP2 ADD SLOAD PUSH1 0x60 DUP6 ADD MSTORE PUSH1 0x4 DUP2 ADD SLOAD PUSH1 0x80 DUP6 ADD MSTORE PUSH2 0x1FEA PUSH1 0x5 DUP3 ADD PUSH2 0x1BA6 JUMP JUMPDEST PUSH1 0xA0 DUP6 ADD MSTORE PUSH2 0x1FFB PUSH1 0x8 DUP3 ADD PUSH2 0x1BA6 JUMP JUMPDEST PUSH1 0xC0 DUP6 ADD MSTORE ADD PUSH2 0x1959 JUMP JUMPDEST PUSH1 0xE0 DUP3 ADD MSTORE SWAP1 JUMP JUMPDEST SWAP2 PUSH2 0x2017 PUSH2 0x1D27 JUMP JUMPDEST POP PUSH1 0x40 MLOAD SWAP3 PUSH2 0x2025 DUP5 PUSH2 0x1874 JUMP JUMPDEST DUP4 MSTORE PUSH1 0x20 DUP4 ADD MSTORE PUSH1 0x1 PUSH1 0x1 PUSH1 0xA0 SHL SUB AND PUSH1 0x40 DUP3 ADD MSTORE SWAP1 JUMP JUMPDEST SWAP3 SWAP2 SWAP1 PUSH1 0x40 MLOAD PUSH1 0x20 DUP6 MLOAD SWAP2 DUP2 DUP2 DUP2 DUP10 ADD SWAP5 DUP1 DUP7 DUP4 MCOPY DUP2 ADD PUSH0 DUP2 MSTORE SUB ADD SWAP1 KECCAK256 SWAP6 PUSH1 0x40 MLOAD SWAP3 DUP4 SWAP2 MLOAD DUP1 SWAP2 DUP4 MCOPY DUP2 ADD PUSH1 0x1 DUP2 MSTORE SUB ADD SWAP1 KECCAK256 SWAP1 DUP1 MLOAD SWAP1 PUSH1 0x1 PUSH1 0x1 PUSH1 0x40 SHL SUB DUP3 GT PUSH2 0x866 JUMPI DUP2 SWAP1 PUSH2 0x208F DUP5 SLOAD PUSH2 0x1921 JUMP JUMPDEST PUSH1 0x1F DUP2 GT PUSH2 0x238A JUMPI JUMPDEST POP PUSH1 0x20 SWAP1 PUSH1 0x1F DUP4 GT PUSH1 0x1 EQ PUSH2 0x2327 JUMPI PUSH0 SWAP3 PUSH2 0x231C JUMPI JUMPDEST POP POP DUP2 PUSH1 0x1 SHL SWAP2 PUSH0 NOT SWAP1 PUSH1 0x3 SHL SHR NOT AND OR SWAP1 SSTORE JUMPDEST DUP1 MLOAD DUP1 MLOAD PUSH1 0x8 DUP6 ADD SWAP2 PUSH1 0x1 PUSH1 0x1 PUSH1 0x40 SHL SUB DUP3 GT PUSH2 0x866 JUMPI PUSH2 0x20E3 DUP4 SLOAD PUSH2 0x1921 JUMP JUMPDEST PUSH1 0x1F DUP2 GT PUSH2 0x22D7 JUMPI JUMPDEST POP PUSH1 0x20 SWAP1 PUSH1 0x1F DUP4 GT PUSH1 0x1 EQ PUSH2 0x2270 JUMPI PUSH1 0x20 SWAP5 SWAP4 SWAP3 SWAP2 PUSH0 SWAP2 DUP4 PUSH2 0x2265 JUMPI JUMPDEST POP POP DUP2 PUSH1 0x1 SHL SWAP2 PUSH0 NOT SWAP1 PUSH1 0x3 SHL SHR NOT AND OR SWAP1 SSTORE JUMPDEST PUSH1 0x40 DUP2 ADD MLOAD PUSH1 0xA DUP6 ADD DUP1 SLOAD PUSH1 0x1 PUSH1 0x1 PUSH1 0xA0 SHL SUB NOT AND PUSH1 0x1 PUSH1 0x1 PUSH1 0xA0 SHL SUB SWAP3 SWAP1 SWAP3 AND SWAP2 SWAP1 SWAP2 OR SWAP1 SSTORE ADD MLOAD DUP1 MLOAD SWAP1 SWAP3 SWAP1 PUSH1 0x9 DUP3 ADD SWAP1 PUSH1 0x1 PUSH1 0x1 PUSH1 0x40 SHL SUB DUP2 GT PUSH2 0x866 JUMPI PUSH2 0x2168 DUP3 SLOAD PUSH2 0x1921 JUMP JUMPDEST PUSH1 0x1F DUP2 GT PUSH2 0x2220 JUMPI JUMPDEST POP PUSH1 0x20 SWAP5 PUSH1 0x1F DUP3 GT PUSH1 0x1 EQ PUSH2 0x21BF JUMPI SWAP5 DUP2 SWAP3 SWAP4 SWAP5 SWAP6 PUSH0 SWAP3 PUSH2 0x21B4 JUMPI JUMPDEST POP POP DUP2 PUSH1 0x1 SHL SWAP2 PUSH0 NOT SWAP1 PUSH1 0x3 SHL SHR NOT AND OR SWAP1 SSTORE JUMPDEST TIMESTAMP PUSH1 0x3 DUP3 ADD SSTORE DUP1 SLOAD PUSH1 0xFF NOT AND PUSH1 0x2 OR SWAP1 SSTORE JUMP JUMPDEST ADD MLOAD SWAP1 POP PUSH0 DUP1 PUSH2 0x218D JUMP JUMPDEST PUSH1 0x1F NOT DUP3 AND SWAP6 DUP4 PUSH0 MSTORE DUP1 PUSH0 KECCAK256 SWAP2 PUSH0 JUMPDEST DUP9 DUP2 LT PUSH2 0x2208 JUMPI POP DUP4 PUSH1 0x1 SWAP6 SWAP7 SWAP8 SWAP9 LT PUSH2 0x21F0 JUMPI JUMPDEST POP POP POP DUP2 SHL ADD SWAP1 SSTORE PUSH2 0x21A1 JUMP JUMPDEST ADD MLOAD PUSH0 NOT PUSH1 0xF8 DUP5 PUSH1 0x3 SHL AND SHR NOT AND SWAP1 SSTORE PUSH0 DUP1 DUP1 PUSH2 0x21E3 JUMP JUMPDEST SWAP2 SWAP3 PUSH1 0x20 PUSH1 0x1 DUP2 SWAP3 DUP7 DUP6 ADD MLOAD DUP2 SSTORE ADD SWAP5 ADD SWAP3 ADD PUSH2 0x21CE JUMP JUMPDEST DUP3 PUSH0 MSTORE PUSH1 0x20 PUSH0 KECCAK256 PUSH1 0x1F DUP4 ADD PUSH1 0x5 SHR DUP2 ADD SWAP2 PUSH1 0x20 DUP5 LT PUSH2 0x225B JUMPI JUMPDEST PUSH1 0x1F ADD PUSH1 0x5 SHR ADD SWAP1 JUMPDEST DUP2 DUP2 LT PUSH2 0x2250 JUMPI POP PUSH2 0x2171 JUMP JUMPDEST PUSH0 DUP2 SSTORE PUSH1 0x1 ADD PUSH2 0x2243 JUMP JUMPDEST SWAP1 SWAP2 POP DUP2 SWAP1 PUSH2 0x223A JUMP JUMPDEST ADD MLOAD SWAP1 POP PUSH0 DUP1 PUSH2 0x2109 JUMP JUMPDEST SWAP1 PUSH1 0x1F NOT DUP4 AND SWAP2 DUP5 PUSH0 MSTORE DUP2 PUSH0 KECCAK256 SWAP3 PUSH0 JUMPDEST DUP2 DUP2 LT PUSH2 0x22BF JUMPI POP SWAP2 PUSH1 0x1 SWAP4 SWAP2 DUP6 PUSH1 0x20 SWAP9 SWAP8 SWAP7 SWAP5 LT PUSH2 0x22A7 JUMPI JUMPDEST POP POP POP DUP2 SHL ADD SWAP1 SSTORE PUSH2 0x211D JUMP JUMPDEST ADD MLOAD PUSH0 NOT PUSH1 0xF8 DUP5 PUSH1 0x3 SHL AND SHR NOT AND SWAP1 SSTORE PUSH0 DUP1 DUP1 PUSH2 0x229A JUMP JUMPDEST SWAP3 SWAP4 PUSH1 0x20 PUSH1 0x1 DUP2 SWAP3 DUP8 DUP7 ADD MLOAD DUP2 SSTORE ADD SWAP6 ADD SWAP4 ADD PUSH2 0x2280 JUMP JUMPDEST DUP4 PUSH0 MSTORE PUSH1 0x20 PUSH0 KECCAK256 PUSH1 0x1F DUP5 ADD PUSH1 0x5 SHR DUP2 ADD SWAP2 PUSH1 0x20 DUP6 LT PUSH2 0x2312 JUMPI JUMPDEST PUSH1 0x1F ADD PUSH1 0x5 SHR ADD SWAP1 JUMPDEST DUP2 DUP2 LT PUSH2 0x2307 JUMPI POP PUSH2 0x20EC JUMP JUMPDEST PUSH0 DUP2 SSTORE PUSH1 0x1 ADD PUSH2 0x22FA JUMP JUMPDEST SWAP1 SWAP2 POP DUP2 SWAP1 PUSH2 0x22F1 JUMP JUMPDEST ADD MLOAD SWAP1 POP PUSH0 DUP1 PUSH2 0x20AE JUMP JUMPDEST PUSH0 DUP6 DUP2 MSTORE DUP3 DUP2 KECCAK256 SWAP4 POP PUSH1 0x1F NOT DUP6 AND SWAP1 JUMPDEST DUP2 DUP2 LT PUSH2 0x2372 JUMPI POP SWAP1 DUP5 PUSH1 0x1 SWAP6 SWAP5 SWAP4 SWAP3 LT PUSH2 0x235A JUMPI JUMPDEST POP POP POP DUP2 SHL ADD SWAP1 SSTORE PUSH2 0x20C2 JUMP JUMPDEST ADD MLOAD PUSH0 NOT PUSH1 0xF8 DUP5 PUSH1 0x3 SHL AND SHR NOT AND SWAP1 SSTORE PUSH0 DUP1 DUP1 PUSH2 0x234D JUMP JUMPDEST SWAP3 SWAP4 PUSH1 0x20 PUSH1 0x1 DUP2 SWAP3 DUP8 DUP7 ADD MLOAD DUP2 SSTORE ADD SWAP6 ADD SWAP4 ADD PUSH2 0x2337 JUMP JUMPDEST SWAP1 SWAP2 POP DUP4 PUSH0 MSTORE PUSH1 0x20 PUSH0 KECCAK256 PUSH1 0x1F DUP5 ADD PUSH1 0x5 SHR DUP2 ADD SWAP2 PUSH1 0x20 DUP6 LT PUSH2 0x23D0 JUMPI JUMPDEST SWAP1 PUSH1 0x1F DUP6 SWAP5 SWAP4 SWAP3 ADD PUSH1 0x5 SHR ADD SWAP1 JUMPDEST DUP2 DUP2 LT PUSH2 0x23C2 JUMPI POP PUSH2 0x2098 JUMP JUMPDEST PUSH0 DUP2 SSTORE DUP5 SWAP4 POP PUSH1 0x1 ADD PUSH2 0x23B5 JUMP JUMPDEST SWAP1 SWAP2 POP DUP2 SWAP1 PUSH2 0x23A7 JUMP JUMPDEST PUSH1 0x20 DUP1 SWAP2 SWAP5 SWAP4 SWAP3 SWAP5 PUSH1 0x40 MLOAD SWAP3 DUP2 DUP5 SWAP3 MLOAD SWAP2 DUP3 SWAP2 ADD DUP4 MCOPY DUP2 ADD PUSH0 DUP2 MSTORE SUB ADD SWAP1 KECCAK256 SWAP1 DUP1 MLOAD PUSH1 0x8 DUP4 ADD SWAP1 DUP1 MLOAD SWAP1 PUSH1 0x1 PUSH1 0x1 PUSH1 0x40 SHL SUB DUP3 GT PUSH2 0x866 JUMPI PUSH2 0x241C DUP4 SLOAD PUSH2 0x1921 JUMP JUMPDEST PUSH1 0x1F DUP2 GT PUSH2 0x2712 JUMPI JUMPDEST POP PUSH1 0x20 SWAP1 PUSH1 0x1F DUP4 GT PUSH1 0x1 EQ PUSH2 0x26AB JUMPI PUSH1 0x20 SWAP5 SWAP4 SWAP3 SWAP2 PUSH0 SWAP2 DUP4 PUSH2 0x26A0 JUMPI JUMPDEST POP POP DUP2 PUSH1 0x1 SHL SWAP2 PUSH0 NOT SWAP1 PUSH1 0x3 SHL SHR NOT AND OR SWAP1 SSTORE JUMPDEST PUSH1 0x40 DUP2 ADD MLOAD PUSH1 0xA DUP5 ADD DUP1 SLOAD PUSH1 0x1 PUSH1 0x1 PUSH1 0xA0 SHL SUB NOT AND PUSH1 0x1 PUSH1 0x1 PUSH1 0xA0 SHL SUB SWAP3 SWAP1 SWAP3 AND SWAP2 SWAP1 SWAP2 OR SWAP1 SSTORE ADD MLOAD DUP1 MLOAD PUSH1 0x9 DUP4 ADD SWAP2 PUSH1 0x1 PUSH1 0x1 PUSH1 0x40 SHL SUB DUP3 GT PUSH2 0x866 JUMPI PUSH2 0x249E DUP4 SLOAD PUSH2 0x1921 JUMP JUMPDEST PUSH1 0x1F DUP2 GT PUSH2 0x265B JUMPI JUMPDEST POP PUSH1 0x20 SWAP1 PUSH1 0x1F DUP4 GT PUSH1 0x1 EQ PUSH2 0x25F4 JUMPI PUSH1 0xB SWAP5 SWAP4 SWAP3 SWAP2 PUSH0 SWAP2 DUP4 PUSH2 0x25E9 JUMPI JUMPDEST POP POP DUP2 PUSH1 0x1 SHL SWAP2 PUSH0 NOT SWAP1 PUSH1 0x3 SHL SHR NOT AND OR SWAP1 SSTORE JUMPDEST TIMESTAMP PUSH1 0x2 DUP3 ADD SSTORE PUSH1 0x1 PUSH1 0xFF NOT DUP3 SLOAD AND OR DUP2 SSTORE ADD DUP3 MLOAD PUSH1 0x1 PUSH1 0x1 PUSH1 0x40 SHL SUB DUP2 GT PUSH2 0x866 JUMPI PUSH2 0x2504 DUP3 SLOAD PUSH2 0x1921 JUMP JUMPDEST PUSH1 0x1F DUP2 GT PUSH2 0x25A4 JUMPI JUMPDEST POP PUSH1 0x20 PUSH1 0x1F DUP3 GT PUSH1 0x1 EQ PUSH2 0x2546 JUMPI DUP2 SWAP3 SWAP4 SWAP5 PUSH0 SWAP3 PUSH2 0x253B JUMPI JUMPDEST POP POP DUP2 PUSH1 0x1 SHL SWAP2 PUSH0 NOT SWAP1 PUSH1 0x3 SHL SHR NOT AND OR SWAP1 SSTORE JUMP JUMPDEST ADD MLOAD SWAP1 POP PUSH0 DUP1 PUSH2 0x2526 JUMP JUMPDEST PUSH1 0x1F NOT DUP3 AND SWAP1 DUP4 PUSH0 MSTORE DUP1 PUSH0 KECCAK256 SWAP2 PUSH0 JUMPDEST DUP2 DUP2 LT PUSH2 0x258C JUMPI POP SWAP6 DUP4 PUSH1 0x1 SWAP6 SWAP7 SWAP8 LT PUSH2 0x2574 JUMPI JUMPDEST POP POP POP DUP2 SHL ADD SWAP1 SSTORE JUMP JUMPDEST ADD MLOAD PUSH0 NOT PUSH1 0xF8 DUP5 PUSH1 0x3 SHL AND SHR NOT AND SWAP1 SSTORE PUSH0 DUP1 DUP1 PUSH2 0x256A JUMP JUMPDEST SWAP2 SWAP3 PUSH1 0x20 PUSH1 0x1 DUP2 SWAP3 DUP7 DUP12 ADD MLOAD DUP2 SSTORE ADD SWAP5 ADD SWAP3 ADD PUSH2 0x2555 JUMP JUMPDEST DUP3 PUSH0 MSTORE PUSH1 0x20 PUSH0 KECCAK256 PUSH1 0x1F DUP4 ADD PUSH1 0x5 SHR DUP2 ADD SWAP2 PUSH1 0x20 DUP5 LT PUSH2 0x25DF JUMPI JUMPDEST PUSH1 0x1F ADD PUSH1 0x5 SHR ADD SWAP1 JUMPDEST DUP2 DUP2 LT PUSH2 0x25D4 JUMPI POP PUSH2 0x250D JUMP JUMPDEST PUSH0 DUP2 SSTORE PUSH1 0x1 ADD PUSH2 0x25C7 JUMP JUMPDEST SWAP1 SWAP2 POP DUP2 SWAP1 PUSH2 0x25BE JUMP JUMPDEST ADD MLOAD SWAP1 POP PUSH0 DUP1 PUSH2 0x24C4 JUMP JUMPDEST SWAP1 PUSH1 0x1F NOT DUP4 AND SWAP2 DUP5 PUSH0 MSTORE DUP2 PUSH0 KECCAK256 SWAP3 PUSH0 JUMPDEST DUP2 DUP2 LT PUSH2 0x2643 JUMPI POP SWAP2 PUSH1 0x1 SWAP4 SWAP2 DUP6 PUSH1 0xB SWAP9 SWAP8 SWAP7 SWAP5 LT PUSH2 0x262B JUMPI JUMPDEST POP POP POP DUP2 SHL ADD SWAP1 SSTORE PUSH2 0x24D8 JUMP JUMPDEST ADD MLOAD PUSH0 NOT PUSH1 0xF8 DUP5 PUSH1 0x3 SHL AND SHR NOT AND SWAP1 SSTORE PUSH0 DUP1 DUP1 PUSH2 0x261E JUMP JUMPDEST SWAP3 SWAP4 PUSH1 0x20 PUSH1 0x1 DUP2 SWAP3 DUP8 DUP7 ADD MLOAD DUP2 SSTORE ADD SWAP6 ADD SWAP4 ADD PUSH2 0x2604 JUMP JUMPDEST DUP4 PUSH0 MSTORE PUSH1 0x20 PUSH0 KECCAK256 PUSH1 0x1F DUP5 ADD PUSH1 0x5 SHR DUP2 ADD SWAP2 PUSH1 0x20 DUP6 LT PUSH2 0x2696 JUMPI JUMPDEST PUSH1 0x1F ADD PUSH1 0x5 SHR ADD SWAP1 JUMPDEST DUP2 DUP2 LT PUSH2 0x268B JUMPI POP PUSH2 0x24A7 JUMP JUMPDEST PUSH0 DUP2 SSTORE PUSH1 0x1 ADD PUSH2 0x267E JUMP JUMPDEST SWAP1 SWAP2 POP DUP2 SWAP1 PUSH2 0x2675 JUMP JUMPDEST ADD MLOAD SWAP1 POP PUSH0 DUP1 PUSH2 0x2442 JUMP JUMPDEST SWAP1 PUSH1 0x1F NOT DUP4 AND SWAP2 DUP5 PUSH0 MSTORE DUP2 PUSH0 KECCAK256 SWAP3 PUSH0 JUMPDEST DUP2 DUP2 LT PUSH2 0x26FA JUMPI POP SWAP2 PUSH1 0x1 SWAP4 SWAP2 DUP6 PUSH1 0x20 SWAP9 SWAP8 SWAP7 SWAP5 LT PUSH2 0x26E2 JUMPI JUMPDEST POP POP POP DUP2 SHL ADD SWAP1 SSTORE PUSH2 0x2456 JUMP JUMPDEST ADD MLOAD PUSH0 NOT PUSH1 0xF8 DUP5 PUSH1 0x3 SHL AND SHR NOT AND SWAP1 SSTORE PUSH0 DUP1 DUP1 PUSH2 0x26D5 JUMP JUMPDEST SWAP3 SWAP4 PUSH1 0x20 PUSH1 0x1 DUP2 SWAP3 DUP8 DUP7 ADD MLOAD DUP2 SSTORE ADD SWAP6 ADD SWAP4 ADD PUSH2 0x26BB JUMP JUMPDEST DUP4 PUSH0 MSTORE PUSH1 0x20 PUSH0 KECCAK256 PUSH1 0x1F DUP5 ADD PUSH1 0x5 SHR DUP2 ADD SWAP2 PUSH1 0x20 DUP6 LT PUSH2 0x274D JUMPI JUMPDEST PUSH1 0x1F ADD PUSH1 0x5 SHR ADD SWAP1 JUMPDEST DUP2 DUP2 LT PUSH2 0x2742 JUMPI POP PUSH2 0x2425 JUMP JUMPDEST PUSH0 DUP2 SSTORE PUSH1 0x1 ADD PUSH2 0x2735 JUMP JUMPDEST SWAP1 SWAP2 POP DUP2 SWAP1 PUSH2 0x272C JUMP JUMPDEST SWAP3 SWAP1 SWAP2 PUSH1 0x40 MLOAD PUSH2 0x2766 DUP2 PUSH2 0x188F JUMP JUMPDEST PUSH0 DUP2 MSTORE PUSH1 0x20 DUP2 ADD SWAP5 TIMESTAMP DUP7 MSTORE PUSH1 0x40 DUP3 ADD PUSH0 DUP2 MSTORE PUSH1 0x60 DUP4 ADD PUSH0 DUP2 MSTORE PUSH1 0x80 DUP5 ADD SWAP2 PUSH0 DUP4 MSTORE PUSH1 0xA0 DUP6 ADD SWAP4 DUP5 MSTORE PUSH1 0xC0 DUP6 ADD SWAP8 DUP9 MSTORE PUSH1 0x20 SWAP9 DUP10 DUP1 PUSH1 0x40 MLOAD SWAP9 PUSH2 0x27A8 DUP3 DUP12 PUSH2 0x18AB JUMP JUMPDEST PUSH0 DUP11 MSTORE PUSH1 0xE0 DUP10 ADD SWAP10 DUP11 MSTORE PUSH1 0x40 MLOAD SWAP3 DUP2 DUP5 SWAP3 MLOAD SWAP2 DUP3 SWAP2 ADD DUP4 MCOPY DUP2 ADD PUSH0 DUP2 MSTORE SUB ADD SWAP1 KECCAK256 SWAP6 MLOAD PUSH1 0x4 DUP2 LT ISZERO PUSH2 0xD36 JUMPI PUSH1 0xFF DUP1 NOT DUP9 SLOAD AND SWAP2 AND OR DUP7 SSTORE MLOAD PUSH1 0x1 DUP7 ADD SSTORE MLOAD PUSH1 0x2 DUP6 ADD SSTORE MLOAD PUSH1 0x3 DUP5 ADD SSTORE MLOAD PUSH1 0x4 DUP4 ADD SSTORE PUSH1 0x5 DUP3 ADD SWAP1 MLOAD SWAP1 DUP2 MLOAD DUP1 MLOAD SWAP1 PUSH1 0x1 PUSH1 0x1 PUSH1 0x40 SHL SUB DUP3 GT PUSH2 0x866 JUMPI DUP2 SWAP1 PUSH2 0x281E DUP5 SLOAD PUSH2 0x1921 JUMP JUMPDEST PUSH1 0x1F DUP2 GT PUSH2 0x2D2B JUMPI JUMPDEST POP DUP10 SWAP1 PUSH1 0x1F DUP4 GT PUSH1 0x1 EQ PUSH2 0x2CC8 JUMPI PUSH0 SWAP3 PUSH2 0x2CBD JUMPI JUMPDEST POP POP DUP2 PUSH1 0x1 SHL SWAP2 PUSH0 NOT SWAP1 PUSH1 0x3 SHL SHR NOT AND OR SWAP1 SSTORE JUMPDEST PUSH1 0x6 DUP3 ADD DUP7 DUP3 ADD MLOAD DUP1 MLOAD SWAP1 PUSH1 0x1 PUSH1 0x1 PUSH1 0x40 SHL SUB DUP3 GT PUSH2 0x866 JUMPI DUP2 SWAP1 PUSH2 0x2875 DUP5 SLOAD PUSH2 0x1921 JUMP JUMPDEST PUSH1 0x1F DUP2 GT PUSH2 0x2C6F JUMPI JUMPDEST POP DUP10 SWAP1 PUSH1 0x1F DUP4 GT PUSH1 0x1 EQ PUSH2 0x2C0C JUMPI PUSH0 SWAP3 PUSH2 0x2C01 JUMPI JUMPDEST POP POP DUP2 PUSH1 0x1 SHL SWAP2 PUSH0 NOT SWAP1 PUSH1 0x3 SHL SHR NOT AND OR SWAP1 SSTORE JUMPDEST PUSH1 0x40 ADD MLOAD PUSH1 0x7 DUP3 ADD DUP1 SLOAD PUSH1 0x1 PUSH1 0x1 PUSH1 0xA0 SHL SUB NOT AND PUSH1 0x1 PUSH1 0x1 PUSH1 0xA0 SHL SUB SWAP3 SWAP1 SWAP3 AND SWAP2 SWAP1 SWAP2 OR SWAP1 SSTORE SWAP3 MLOAD DUP1 MLOAD DUP1 MLOAD SWAP2 SWAP5 SWAP2 PUSH1 0x8 DUP4 ADD SWAP2 PUSH1 0x1 PUSH1 0x1 PUSH1 0x40 SHL SUB DUP3 GT PUSH2 0x866 JUMPI DUP2 SWAP1 PUSH2 0x28F5 DUP5 SLOAD PUSH2 0x1921 JUMP JUMPDEST PUSH1 0x1F DUP2 GT PUSH2 0x2BB3 JUMPI JUMPDEST POP DUP9 SWAP1 PUSH1 0x1F DUP4 GT PUSH1 0x1 EQ PUSH2 0x2B50 JUMPI PUSH0 SWAP3 PUSH2 0x2B45 JUMPI JUMPDEST POP POP DUP2 PUSH1 0x1 SHL SWAP2 PUSH0 NOT SWAP1 PUSH1 0x3 SHL SHR NOT AND OR SWAP1 SSTORE JUMPDEST PUSH1 0x9 DUP2 ADD SWAP4 DUP6 DUP2 ADD MLOAD SWAP5 DUP6 MLOAD SWAP6 PUSH1 0x1 PUSH1 0x1 PUSH1 0x40 SHL SUB DUP8 GT PUSH2 0x866 JUMPI PUSH2 0x294C DUP3 SLOAD PUSH2 0x1921 JUMP JUMPDEST PUSH1 0x1F DUP2 GT PUSH2 0x2B02 JUMPI JUMPDEST POP DUP8 SWAP1 PUSH1 0x1F DUP9 GT PUSH1 0x1 EQ PUSH2 0x2A9B JUMPI SWAP7 DUP1 SWAP2 PUSH1 0xB SWAP7 SWAP8 SWAP9 PUSH0 SWAP3 PUSH2 0x2A90 JUMPI JUMPDEST POP POP DUP2 PUSH1 0x1 SHL SWAP2 PUSH0 NOT SWAP1 PUSH1 0x3 SHL SHR NOT AND OR SWAP1 SSTORE JUMPDEST PUSH1 0x40 ADD MLOAD PUSH1 0xA DUP3 ADD DUP1 SLOAD PUSH1 0x1 PUSH1 0x1 PUSH1 0xA0 SHL SUB NOT AND PUSH1 0x1 PUSH1 0x1 PUSH1 0xA0 SHL SUB SWAP3 SWAP1 SWAP3 AND SWAP2 SWAP1 SWAP2 OR SWAP1 SSTORE SWAP2 MLOAD DUP1 MLOAD SWAP1 SWAP5 SWAP2 SWAP1 SWAP3 ADD SWAP2 SWAP1 PUSH1 0x1 PUSH1 0x1 PUSH1 0x40 SHL SUB DUP3 GT PUSH2 0x866 JUMPI PUSH2 0x29D0 DUP4 SLOAD PUSH2 0x1921 JUMP JUMPDEST PUSH1 0x1F DUP2 GT PUSH2 0x2A4D JUMPI JUMPDEST POP DUP1 PUSH1 0x1F DUP4 GT PUSH1 0x1 EQ PUSH2 0x2A06 JUMPI POP DUP2 SWAP3 SWAP4 SWAP5 PUSH0 SWAP3 PUSH2 0x253B JUMPI POP POP DUP2 PUSH1 0x1 SHL SWAP2 PUSH0 NOT SWAP1 PUSH1 0x3 SHL SHR NOT AND OR SWAP1 SSTORE JUMP JUMPDEST SWAP1 PUSH1 0x1F NOT DUP4 AND SWAP6 DUP5 PUSH0 MSTORE DUP3 PUSH0 KECCAK256 SWAP3 PUSH0 SWAP1 JUMPDEST DUP9 DUP3 LT PUSH2 0x2A35 JUMPI POP POP DUP4 PUSH1 0x1 SWAP6 SWAP7 SWAP8 LT PUSH2 0x2574 JUMPI POP POP POP DUP2 SHL ADD SWAP1 SSTORE JUMP JUMPDEST DUP1 PUSH1 0x1 DUP6 SWAP7 DUP3 SWAP5 SWAP7 DUP7 ADD MLOAD DUP2 SSTORE ADD SWAP6 ADD SWAP4 ADD SWAP1 PUSH2 0x2A17 JUMP JUMPDEST DUP4 PUSH0 MSTORE DUP2 PUSH0 KECCAK256 PUSH1 0x1F DUP5 ADD PUSH1 0x5 SHR DUP2 ADD SWAP2 DUP4 DUP6 LT PUSH2 0x2A86 JUMPI JUMPDEST PUSH1 0x1F ADD PUSH1 0x5 SHR ADD SWAP1 JUMPDEST DUP2 DUP2 LT PUSH2 0x2A7B JUMPI POP PUSH2 0x29D9 JUMP JUMPDEST PUSH0 DUP2 SSTORE PUSH1 0x1 ADD PUSH2 0x2A6E JUMP JUMPDEST SWAP1 SWAP2 POP DUP2 SWAP1 PUSH2 0x2A65 JUMP JUMPDEST ADD MLOAD SWAP1 POP PUSH0 DUP1 PUSH2 0x2972 JUMP JUMPDEST SWAP1 PUSH1 0x1F NOT DUP9 AND SWAP2 DUP4 PUSH0 MSTORE DUP10 PUSH0 KECCAK256 SWAP3 PUSH0 JUMPDEST DUP12 DUP3 DUP3 LT PUSH2 0x2AEC JUMPI POP POP SWAP2 PUSH1 0x1 SWAP4 SWAP2 DUP11 PUSH1 0xB SWAP10 SWAP11 SWAP12 SWAP5 LT PUSH2 0x2AD4 JUMPI JUMPDEST POP POP POP DUP2 SHL ADD SWAP1 SSTORE PUSH2 0x2986 JUMP JUMPDEST ADD MLOAD PUSH0 NOT PUSH1 0xF8 DUP5 PUSH1 0x3 SHL AND SHR NOT AND SWAP1 SSTORE PUSH0 DUP1 DUP1 PUSH2 0x2AC7 JUMP JUMPDEST PUSH1 0x1 DUP6 SWAP7 DUP3 SWAP4 SWAP7 DUP7 ADD MLOAD DUP2 SSTORE ADD SWAP6 ADD SWAP4 ADD PUSH2 0x2AAB JUMP JUMPDEST DUP3 PUSH0 MSTORE DUP9 PUSH0 KECCAK256 PUSH1 0x1F DUP10 ADD PUSH1 0x5 SHR DUP2 ADD SWAP2 DUP11 DUP11 LT PUSH2 0x2B3B JUMPI JUMPDEST PUSH1 0x1F ADD PUSH1 0x5 SHR ADD SWAP1 JUMPDEST DUP2 DUP2 LT PUSH2 0x2B30 JUMPI POP PUSH2 0x2955 JUMP JUMPDEST PUSH0 DUP2 SSTORE PUSH1 0x1 ADD PUSH2 0x2B23 JUMP JUMPDEST SWAP1 SWAP2 POP DUP2 SWAP1 PUSH2 0x2B1A JUMP JUMPDEST ADD MLOAD SWAP1 POP PUSH0 DUP1 PUSH2 0x2913 JUMP JUMPDEST PUSH0 DUP6 DUP2 MSTORE DUP11 DUP2 KECCAK256 SWAP4 POP PUSH1 0x1F NOT DUP6 AND SWAP1 JUMPDEST DUP12 DUP3 DUP3 LT PUSH2 0x2B9D JUMPI POP POP SWAP1 DUP5 PUSH1 0x1 SWAP6 SWAP5 SWAP4 SWAP3 LT PUSH2 0x2B85 JUMPI JUMPDEST POP POP POP DUP2 SHL ADD SWAP1 SSTORE PUSH2 0x2927 JUMP JUMPDEST ADD MLOAD PUSH0 NOT PUSH1 0xF8 DUP5 PUSH1 0x3 SHL AND SHR NOT AND SWAP1 SSTORE PUSH0 DUP1 DUP1 PUSH2 0x2B78 JUMP JUMPDEST PUSH1 0x1 DUP6 SWAP7 DUP3 SWAP4 SWAP7 DUP7 ADD MLOAD DUP2 SSTORE ADD SWAP6 ADD SWAP4 ADD PUSH2 0x2B60 JUMP JUMPDEST SWAP1 SWAP2 POP DUP4 PUSH0 MSTORE DUP9 PUSH0 KECCAK256 PUSH1 0x1F DUP5 ADD PUSH1 0x5 SHR DUP2 ADD SWAP2 DUP11 DUP6 LT PUSH2 0x2BF7 JUMPI JUMPDEST SWAP1 PUSH1 0x1F DUP6 SWAP5 SWAP4 SWAP3 ADD PUSH1 0x5 SHR ADD SWAP1 JUMPDEST DUP2 DUP2 LT PUSH2 0x2BE9 JUMPI POP PUSH2 0x28FE JUMP JUMPDEST PUSH0 DUP2 SSTORE DUP5 SWAP4 POP PUSH1 0x1 ADD PUSH2 0x2BDC JUMP JUMPDEST SWAP1 SWAP2 POP DUP2 SWAP1 PUSH2 0x2BCE JUMP JUMPDEST ADD MLOAD SWAP1 POP PUSH0 DUP1 PUSH2 0x2893 JUMP JUMPDEST PUSH0 DUP6 DUP2 MSTORE DUP12 DUP2 KECCAK256 SWAP4 POP PUSH1 0x1F NOT DUP6 AND SWAP1 JUMPDEST DUP13 DUP3 DUP3 LT PUSH2 0x2C59 JUMPI POP POP SWAP1 DUP5 PUSH1 0x1 SWAP6 SWAP5 SWAP4 SWAP3 LT PUSH2 0x2C41 JUMPI JUMPDEST POP POP POP DUP2 SHL ADD SWAP1 SSTORE PUSH2 0x28A7 JUMP JUMPDEST ADD MLOAD PUSH0 NOT PUSH1 0xF8 DUP5 PUSH1 0x3 SHL AND SHR NOT AND SWAP1 SSTORE PUSH0 DUP1 DUP1 PUSH2 0x2C34 JUMP JUMPDEST PUSH1 0x1 DUP6 SWAP7 DUP3 SWAP4 SWAP7 DUP7 ADD MLOAD DUP2 SSTORE ADD SWAP6 ADD SWAP4 ADD PUSH2 0x2C1C JUMP JUMPDEST SWAP1 SWAP2 POP DUP4 PUSH0 MSTORE DUP10 PUSH0 KECCAK256 PUSH1 0x1F DUP5 ADD PUSH1 0x5 SHR DUP2 ADD SWAP2 DUP12 DUP6 LT PUSH2 0x2CB3 JUMPI JUMPDEST SWAP1 PUSH1 0x1F DUP6 SWAP5 SWAP4 SWAP3 ADD PUSH1 0x5 SHR ADD SWAP1 JUMPDEST DUP2 DUP2 LT PUSH2 0x2CA5 JUMPI POP PUSH2 0x287E JUMP JUMPDEST PUSH0 DUP2 SSTORE DUP5 SWAP4 POP PUSH1 0x1 ADD PUSH2 0x2C98 JUMP JUMPDEST SWAP1 SWAP2 POP DUP2 SWAP1 PUSH2 0x2C8A JUMP JUMPDEST ADD MLOAD SWAP1 POP PUSH0 DUP1 PUSH2 0x283C JUMP JUMPDEST PUSH0 DUP6 DUP2 MSTORE DUP12 DUP2 KECCAK256 SWAP4 POP PUSH1 0x1F NOT DUP6 AND SWAP1 JUMPDEST DUP13 DUP3 DUP3 LT PUSH2 0x2D15 JUMPI POP POP SWAP1 DUP5 PUSH1 0x1 SWAP6 SWAP5 SWAP4 SWAP3 LT PUSH2 0x2CFD JUMPI JUMPDEST POP POP POP DUP2 SHL ADD SWAP1 SSTORE PUSH2 0x2850 JUMP JUMPDEST ADD MLOAD PUSH0 NOT PUSH1 0xF8 DUP5 PUSH1 0x3 SHL AND SHR NOT AND SWAP1 SSTORE PUSH0 DUP1 DUP1 PUSH2 0x2CF0 JUMP JUMPDEST PUSH1 0x1 DUP6 SWAP7 DUP3 SWAP4 SWAP7 DUP7 ADD MLOAD DUP2 SSTORE ADD SWAP6 ADD SWAP4 ADD PUSH2 0x2CD8 JUMP JUMPDEST SWAP1 SWAP2 POP DUP4 PUSH0 MSTORE DUP10 PUSH0 KECCAK256 PUSH1 0x1F DUP5 ADD PUSH1 0x5 SHR DUP2 ADD SWAP2 DUP12 DUP6 LT PUSH2 0x2D6F JUMPI JUMPDEST SWAP1 PUSH1 0x1F DUP6 SWAP5 SWAP4 SWAP3 ADD PUSH1 0x5 SHR ADD SWAP1 JUMPDEST DUP2 DUP2 LT PUSH2 0x2D61 JUMPI POP PUSH2 0x2827 JUMP JUMPDEST PUSH0 DUP2 SSTORE DUP5 SWAP4 POP PUSH1 0x1 ADD PUSH2 0x2D54 JUMP JUMPDEST SWAP1 SWAP2 POP DUP2 SWAP1 PUSH2 0x2D46 JUMP INVALID LOG2 PUSH5 0x6970667358 0x22 SLT KECCAK256 0xB5 XOR PC CREATE2 RETURNDATACOPY SUB CODECOPY 0xCC PUSH29 0x8E81A8159B8272E10563441F9B113A9013BBE0BF97F7AE64736F6C6343 STOP ADDMOD SHL STOP CALLER "},"methodIdentifiers":{"allCpotbData(uint256)":"f02f5f23","approveCpotb(string,string,string,string,address,string)":"b9e49080","approvedTipePermohonanByFactory(string,uint256)":"7ee90ded","certDetailsById(string)":"a71ed23a","cpotbDataById(string)":"6aa81299","createCertificateDetails((string,string,address),(string,string,address),string)":"fb5fb9a3","createUserCertificate(string,address,string)":"d533a3dd","getAllCpotb()":"5850607c","getAllCpotbByInstance(string)":"81fc60a5","getCertDetail(string)":"9aaa5d8b","getCertDetails(string)":"be2e2325","getCpotbDetails(string)":"70c056b0","getRejectMsg(string)":"6d1aa7d5","getRejectsMsg(string)":"761fb19a","getSenderDetail(string)":"17e68309","rejectCpotb(string,string,string,string,address)":"e462dde5","rejectMsgbyId(string)":"10159dfe","renewRequestCpotb(string,uint8)":"fcac71c4","requestCpotb(string,string,string,address,uint8,string)":"b5881e70","updateBpomApproveDetails(string,string,(string,string,address))":"f5104ff1","updateBpomRejectDetails(string,string,(string,string,address))":"e9c260d7","updateRenewDetails(string)":"19859c87"}}}}}