{"contracts/CertificateManager.sol":{"CertificateManager":{"abi":[{"inputs":[{"internalType":"address","name":"roleManagerAddr","type":"address"},{"internalType":"address","name":"cpotbCertificateAddr","type":"address"},{"internalType":"address","name":"cdobCertificateAddr","type":"address"}],"stateMutability":"nonpayable","type":"constructor"},{"inputs":[],"name":"ReentrancyGuardReentrantCall","type":"error"},{"anonymous":false,"inputs":[{"indexed":false,"internalType":"string","name":"bpomInstance","type":"string"},{"indexed":false,"internalType":"address","name":"bpomAddr","type":"address"},{"indexed":false,"internalType":"uint8","name":"tipePermohonan","type":"uint8"},{"indexed":false,"internalType":"string","name":"certNumber","type":"string"},{"indexed":false,"internalType":"uint256","name":"timestamp","type":"uint256"}],"name":"CertApproved","type":"event"},{"anonymous":false,"inputs":[{"indexed":false,"internalType":"address","name":"bpomAddr","type":"address"},{"indexed":false,"internalType":"string","name":"certNumber","type":"string"},{"indexed":false,"internalType":"uint256","name":"timestamp","type":"uint256"}],"name":"CertApprovedExtendRequest","type":"event"},{"anonymous":false,"inputs":[{"indexed":false,"internalType":"address","name":"senderAddr","type":"address"},{"indexed":false,"internalType":"string","name":"certNumber","type":"string"},{"indexed":false,"internalType":"uint256","name":"timestamp","type":"uint256"}],"name":"CertExtendRequest","type":"event"},{"anonymous":false,"inputs":[{"indexed":false,"internalType":"string","name":"bpomInstance","type":"string"},{"indexed":false,"internalType":"address","name":"bpomAddr","type":"address"},{"indexed":false,"internalType":"uint8","name":"tipePermohonan","type":"uint8"},{"indexed":false,"internalType":"uint256","name":"timestamp","type":"uint256"},{"indexed":false,"internalType":"string","name":"rejectMsg","type":"string"}],"name":"CertRejected","type":"event"},{"anonymous":false,"inputs":[{"indexed":false,"internalType":"string","name":"senderInstance","type":"string"},{"indexed":false,"internalType":"address","name":"senderAddr","type":"address"},{"indexed":false,"internalType":"uint256","name":"timestamp","type":"uint256"}],"name":"CertRenewRequest","type":"event"},{"anonymous":false,"inputs":[{"indexed":false,"internalType":"string","name":"senderInstance","type":"string"},{"indexed":false,"internalType":"address","name":"senderAddr","type":"address"},{"indexed":false,"internalType":"uint8","name":"tipePermohonan","type":"uint8"},{"indexed":false,"internalType":"uint256","name":"timestamp","type":"uint256"}],"name":"CertRequested","type":"event"},{"inputs":[{"components":[{"internalType":"string","name":"certNumber","type":"string"},{"internalType":"string","name":"certId","type":"string"},{"internalType":"string","name":"bpomName","type":"string"},{"internalType":"string","name":"bpomInstance","type":"string"},{"internalType":"address","name":"bpomAddr","type":"address"}],"internalType":"struct CertificateManager.CertificateApproval","name":"approveData","type":"tuple"},{"internalType":"string","name":"ipfsCert","type":"string"},{"internalType":"uint8","name":"tipePermohonan","type":"uint8"}],"name":"approveCdob","outputs":[],"stateMutability":"nonpayable","type":"function"},{"inputs":[{"components":[{"internalType":"string","name":"certNumber","type":"string"},{"internalType":"string","name":"certId","type":"string"},{"internalType":"string","name":"bpomName","type":"string"},{"internalType":"string","name":"bpomInstance","type":"string"},{"internalType":"address","name":"bpomAddr","type":"address"}],"internalType":"struct CertificateManager.CertificateApproval","name":"approveData","type":"tuple"},{"internalType":"string","name":"ipfsCert","type":"string"},{"internalType":"uint8","name":"jenisSediaan","type":"uint8"}],"name":"approveCpotb","outputs":[],"stateMutability":"nonpayable","type":"function"},{"inputs":[{"internalType":"string","name":"cdobId","type":"string"},{"internalType":"string","name":"certNumber","type":"string"},{"internalType":"string","name":"ipfsCert","type":"string"}],"name":"approveExtendCdob","outputs":[],"stateMutability":"nonpayable","type":"function"},{"inputs":[{"internalType":"string","name":"cpotbId","type":"string"},{"internalType":"string","name":"certNumber","type":"string"},{"internalType":"string","name":"ipfsCert","type":"string"}],"name":"approveExtendCpotb","outputs":[],"stateMutability":"nonpayable","type":"function"},{"inputs":[],"name":"cdobCertificate","outputs":[{"internalType":"contract CdobCertificate","name":"","type":"address"}],"stateMutability":"view","type":"function"},{"inputs":[],"name":"cpotbCertificate","outputs":[{"internalType":"contract CpotbCertificate","name":"","type":"address"}],"stateMutability":"view","type":"function"},{"inputs":[{"internalType":"string","name":"cdobId","type":"string"},{"internalType":"string","name":"certNumber","type":"string"},{"internalType":"uint256","name":"expTimestamp","type":"uint256"}],"name":"extendCdob","outputs":[],"stateMutability":"nonpayable","type":"function"},{"inputs":[{"internalType":"string","name":"cpotbId","type":"string"},{"internalType":"string","name":"certNumber","type":"string"},{"internalType":"uint256","name":"expTimestamp","type":"uint256"}],"name":"extendCpotb","outputs":[],"stateMutability":"nonpayable","type":"function"},{"inputs":[],"name":"getAllCdob","outputs":[{"components":[{"internalType":"string","name":"certId","type":"string"},{"internalType":"string","name":"certNumber","type":"string"},{"internalType":"string","name":"instanceName","type":"string"},{"internalType":"uint8","name":"tipePermohonan","type":"uint8"},{"internalType":"enum EnumsLibrary.StatusCertificate","name":"status","type":"uint8"},{"internalType":"string","name":"certHash","type":"string"},{"internalType":"uint256","name":"expiredTimestamp","type":"uint256"}],"internalType":"struct CdobCertificate.CertificateList[]","name":"","type":"tuple[]"}],"stateMutability":"view","type":"function"},{"inputs":[],"name":"getAllCpotb","outputs":[{"components":[{"internalType":"string","name":"certId","type":"string"},{"internalType":"string","name":"certNumber","type":"string"},{"internalType":"string","name":"instanceName","type":"string"},{"internalType":"uint8","name":"tipePermohonan","type":"uint8"},{"internalType":"enum EnumsLibrary.StatusCertificate","name":"status","type":"uint8"},{"internalType":"string","name":"certHash","type":"string"},{"internalType":"uint256","name":"expiredTimestamp","type":"uint256"}],"internalType":"struct CpotbCertificate.CertificateList[]","name":"","type":"tuple[]"}],"stateMutability":"view","type":"function"},{"inputs":[{"internalType":"string","name":"instanceName","type":"string"}],"name":"getCdobByInstance","outputs":[{"components":[{"internalType":"string","name":"certId","type":"string"},{"internalType":"string","name":"certNumber","type":"string"},{"internalType":"string","name":"instanceName","type":"string"},{"internalType":"uint8","name":"tipePermohonan","type":"uint8"},{"internalType":"enum EnumsLibrary.StatusCertificate","name":"status","type":"uint8"},{"internalType":"string","name":"certHash","type":"string"},{"internalType":"uint256","name":"expiredTimestamp","type":"uint256"}],"internalType":"struct CdobCertificate.CertificateList[]","name":"","type":"tuple[]"}],"stateMutability":"view","type":"function"},{"inputs":[{"internalType":"string","name":"certId","type":"string"}],"name":"getCdobDetails","outputs":[{"components":[{"internalType":"enum EnumsLibrary.StatusCertificate","name":"status","type":"uint8"},{"internalType":"uint256","name":"timestampRequest","type":"uint256"},{"internalType":"uint256","name":"timestampApprove","type":"uint256"},{"internalType":"uint256","name":"timestampRejected","type":"uint256"},{"internalType":"uint256","name":"timestampRenewRequest","type":"uint256"},{"internalType":"uint256","name":"timestampExpired","type":"uint256"},{"internalType":"uint256","name":"timestampExtendRequest","type":"uint256"},{"components":[{"internalType":"string","name":"userName","type":"string"},{"internalType":"string","name":"userInstance","type":"string"},{"internalType":"address","name":"userAddr","type":"address"}],"internalType":"struct BaseCertificate.UserCert","name":"sender","type":"tuple"},{"components":[{"internalType":"string","name":"userName","type":"string"},{"internalType":"string","name":"userInstance","type":"string"},{"internalType":"address","name":"userAddr","type":"address"}],"internalType":"struct BaseCertificate.UserCert","name":"bpom","type":"tuple"},{"internalType":"string","name":"ipfsCert","type":"string"}],"internalType":"struct BaseCertificate.CertificateDetails","name":"","type":"tuple"},{"components":[{"internalType":"string","name":"cdobId","type":"string"},{"internalType":"string","name":"cdobNumber","type":"string"},{"internalType":"uint8","name":"tipePermohonan","type":"uint8"}],"internalType":"struct CdobCertificate.CdobData","name":"","type":"tuple"},{"components":[{"internalType":"string","name":"suratPermohonan","type":"string"},{"internalType":"string","name":"buktiPembayaranPajak","type":"string"}],"internalType":"struct CdobCertificate.DokumenAdministrasi","name":"","type":"tuple"},{"components":[{"internalType":"string","name":"suratIzinCdob","type":"string"},{"internalType":"string","name":"denahBangunan","type":"string"},{"internalType":"string","name":"strukturOrganisasi","type":"string"},{"internalType":"string","name":"daftarPersonalia","type":"string"},{"internalType":"string","name":"daftarPeralatan","type":"string"},{"internalType":"string","name":"eksekutifQualityManagement","type":"string"},{"internalType":"string","name":"suratIzinApoteker","type":"string"},{"internalType":"string","name":"dokumenSelfAssesment","type":"string"}],"internalType":"struct CdobCertificate.DokumenTeknis","name":"","type":"tuple"}],"stateMutability":"view","type":"function"},{"inputs":[{"internalType":"string","name":"instanceName","type":"string"}],"name":"getCpotbByInstance","outputs":[{"components":[{"internalType":"string","name":"certId","type":"string"},{"internalType":"string","name":"certNumber","type":"string"},{"internalType":"string","name":"instanceName","type":"string"},{"internalType":"uint8","name":"tipePermohonan","type":"uint8"},{"internalType":"enum EnumsLibrary.StatusCertificate","name":"status","type":"uint8"},{"internalType":"string","name":"certHash","type":"string"},{"internalType":"uint256","name":"expiredTimestamp","type":"uint256"}],"internalType":"struct CpotbCertificate.CertificateList[]","name":"","type":"tuple[]"}],"stateMutability":"view","type":"function"},{"inputs":[{"internalType":"string","name":"certId","type":"string"}],"name":"getCpotbDetails","outputs":[{"components":[{"internalType":"enum EnumsLibrary.StatusCertificate","name":"status","type":"uint8"},{"internalType":"uint256","name":"timestampRequest","type":"uint256"},{"internalType":"uint256","name":"timestampApprove","type":"uint256"},{"internalType":"uint256","name":"timestampRejected","type":"uint256"},{"internalType":"uint256","name":"timestampRenewRequest","type":"uint256"},{"internalType":"uint256","name":"timestampExpired","type":"uint256"},{"internalType":"uint256","name":"timestampExtendRequest","type":"uint256"},{"components":[{"internalType":"string","name":"userName","type":"string"},{"internalType":"string","name":"userInstance","type":"string"},{"internalType":"address","name":"userAddr","type":"address"}],"internalType":"struct BaseCertificate.UserCert","name":"sender","type":"tuple"},{"components":[{"internalType":"string","name":"userName","type":"string"},{"internalType":"string","name":"userInstance","type":"string"},{"internalType":"address","name":"userAddr","type":"address"}],"internalType":"struct BaseCertificate.UserCert","name":"bpom","type":"tuple"},{"internalType":"string","name":"ipfsCert","type":"string"}],"internalType":"struct BaseCertificate.CertificateDetails","name":"","type":"tuple"},{"components":[{"internalType":"string","name":"cpotbId","type":"string"},{"internalType":"string","name":"cpotbNumber","type":"string"},{"internalType":"uint8","name":"tipePermohonan","type":"uint8"},{"internalType":"string","name":"factoryType","type":"string"}],"internalType":"struct CpotbCertificate.CpotbData","name":"","type":"tuple"},{"components":[{"internalType":"string","name":"suratPermohonan","type":"string"},{"internalType":"string","name":"buktiPembayaranNegaraBukanPajak","type":"string"},{"internalType":"string","name":"suratKomitmen","type":"string"}],"internalType":"struct CpotbCertificate.DokumenAdministrasi","name":"","type":"tuple"},{"components":[{"internalType":"string","name":"denahBangunan","type":"string"},{"internalType":"string","name":"sistemMutu","type":"string"}],"internalType":"struct CpotbCertificate.DokumenTeknis","name":"","type":"tuple"}],"stateMutability":"view","type":"function"},{"inputs":[{"internalType":"string","name":"certId","type":"string"}],"name":"getRejectMsgCdob","outputs":[{"internalType":"string","name":"","type":"string"}],"stateMutability":"view","type":"function"},{"inputs":[{"internalType":"string","name":"certId","type":"string"}],"name":"getRejectMsgCpotb","outputs":[{"internalType":"string","name":"","type":"string"}],"stateMutability":"view","type":"function"},{"inputs":[{"internalType":"string","name":"certId","type":"string"},{"internalType":"string","name":"rejectMsg","type":"string"},{"internalType":"string","name":"bpomName","type":"string"},{"internalType":"string","name":"bpomInstance","type":"string"},{"internalType":"uint8","name":"tipePermohonan","type":"uint8"}],"name":"rejectCdob","outputs":[],"stateMutability":"nonpayable","type":"function"},{"inputs":[{"internalType":"string","name":"certId","type":"string"},{"internalType":"string","name":"rejectMsg","type":"string"},{"internalType":"string","name":"bpomName","type":"string"},{"internalType":"string","name":"bpomInstance","type":"string"},{"internalType":"uint8","name":"jenisSediaan","type":"uint8"}],"name":"rejectCpotb","outputs":[],"stateMutability":"nonpayable","type":"function"},{"inputs":[{"components":[{"internalType":"string","name":"certId","type":"string"},{"internalType":"string","name":"senderName","type":"string"},{"internalType":"string","name":"senderInstance","type":"string"},{"internalType":"address","name":"senderAddr","type":"address"}],"internalType":"struct CertificateManager.CertificateRequest","name":"reqData","type":"tuple"},{"components":[{"internalType":"string","name":"suratPermohonan","type":"string"},{"internalType":"string","name":"buktiPembayaranPajak","type":"string"}],"internalType":"struct CdobCertificate.DokumenAdministrasi","name":"newDokuAdmin","type":"tuple"},{"components":[{"internalType":"string","name":"suratIzinCdob","type":"string"},{"internalType":"string","name":"denahBangunan","type":"string"},{"internalType":"string","name":"strukturOrganisasi","type":"string"},{"internalType":"string","name":"daftarPersonalia","type":"string"},{"internalType":"string","name":"daftarPeralatan","type":"string"},{"internalType":"string","name":"eksekutifQualityManagement","type":"string"},{"internalType":"string","name":"suratIzinApoteker","type":"string"},{"internalType":"string","name":"dokumenSelfAssesment","type":"string"}],"internalType":"struct CdobCertificate.DokumenTeknis","name":"newDokuTeknis","type":"tuple"}],"name":"renewCdob","outputs":[],"stateMutability":"nonpayable","type":"function"},{"inputs":[{"components":[{"internalType":"string","name":"certId","type":"string"},{"internalType":"string","name":"senderName","type":"string"},{"internalType":"string","name":"senderInstance","type":"string"},{"internalType":"address","name":"senderAddr","type":"address"}],"internalType":"struct CertificateManager.CertificateRequest","name":"reqData","type":"tuple"},{"components":[{"internalType":"string","name":"suratPermohonan","type":"string"},{"internalType":"string","name":"buktiPembayaranNegaraBukanPajak","type":"string"},{"internalType":"string","name":"suratKomitmen","type":"string"}],"internalType":"struct CpotbCertificate.DokumenAdministrasi","name":"newDokuAdmin","type":"tuple"},{"components":[{"internalType":"string","name":"denahBangunan","type":"string"},{"internalType":"string","name":"sistemMutu","type":"string"}],"internalType":"struct CpotbCertificate.DokumenTeknis","name":"newDokuTeknis","type":"tuple"}],"name":"renewCpotb","outputs":[],"stateMutability":"nonpayable","type":"function"},{"inputs":[{"components":[{"internalType":"string","name":"certId","type":"string"},{"internalType":"string","name":"senderName","type":"string"},{"internalType":"string","name":"senderInstance","type":"string"},{"internalType":"address","name":"senderAddr","type":"address"}],"internalType":"struct CertificateManager.CertificateRequest","name":"reqData","type":"tuple"},{"internalType":"uint8","name":"tipePermohonan","type":"uint8"},{"components":[{"internalType":"string","name":"suratPermohonan","type":"string"},{"internalType":"string","name":"buktiPembayaranPajak","type":"string"}],"internalType":"struct CdobCertificate.DokumenAdministrasi","name":"dokuAdmin","type":"tuple"},{"components":[{"internalType":"string","name":"suratIzinCdob","type":"string"},{"internalType":"string","name":"denahBangunan","type":"string"},{"internalType":"string","name":"strukturOrganisasi","type":"string"},{"internalType":"string","name":"daftarPersonalia","type":"string"},{"internalType":"string","name":"daftarPeralatan","type":"string"},{"internalType":"string","name":"eksekutifQualityManagement","type":"string"},{"internalType":"string","name":"suratIzinApoteker","type":"string"},{"internalType":"string","name":"dokumenSelfAssesment","type":"string"}],"internalType":"struct CdobCertificate.DokumenTeknis","name":"dokuTeknis","type":"tuple"}],"name":"requestCdob","outputs":[],"stateMutability":"nonpayable","type":"function"},{"inputs":[{"components":[{"internalType":"string","name":"certId","type":"string"},{"internalType":"string","name":"senderName","type":"string"},{"internalType":"string","name":"senderInstance","type":"string"},{"internalType":"address","name":"senderAddr","type":"address"}],"internalType":"struct CertificateManager.CertificateRequest","name":"reqData","type":"tuple"},{"internalType":"uint8","name":"jenisSediaan","type":"uint8"},{"internalType":"string","name":"factoryType","type":"string"},{"components":[{"internalType":"string","name":"suratPermohonan","type":"string"},{"internalType":"string","name":"buktiPembayaranNegaraBukanPajak","type":"string"},{"internalType":"string","name":"suratKomitmen","type":"string"}],"internalType":"struct CpotbCertificate.DokumenAdministrasi","name":"dokuAdmin","type":"tuple"},{"components":[{"internalType":"string","name":"denahBangunan","type":"string"},{"internalType":"string","name":"sistemMutu","type":"string"}],"internalType":"struct CpotbCertificate.DokumenTeknis","name":"dokuTeknis","type":"tuple"}],"name":"requestCpotb","outputs":[],"stateMutability":"nonpayable","type":"function"},{"inputs":[],"name":"roleManager","outputs":[{"internalType":"contract RoleManager","name":"","type":"address"}],"stateMutability":"view","type":"function"}],"evm":{"bytecode":{"linkReferences":{},"object":"60e03461018657601f61304638819003918201601f19168301916001600160401b0383118484101761018a57808492606094604052833981010312610186576100478161019e565b9061006060406100596020840161019e565b920161019e565b60015f556001600160a01b0392831660805290821660a0521660c052604051612e9390816101b3823960805181818161033f01528181610562015281816106d5015281816108b2015281816112e801528181611446015281816115760152818161164b01528181611745015281816118d401528181611b8c01528181611c5e0152611d6f015260a0518181816101d301528181610385015281816107180152818161091501528181610ecc015281816111bf01528181611263015281816113540152818161178701528181611a4e0152611ca0015260c05181818161013e0152818161025d015281816105a80152818161066201528181610ae101528181611488015281816115b8015281816116b70152818161193801528181611afc0152611bce0152f35b5f80fd5b634e487b7160e01b5f52604160045260245ffd5b51906001600160a01b03821682036101865756fe6080806040526004361015610012575f80fd5b5f905f3560e01c908162435da514611d5d575080630d011d1c14611c2157806317a2e1f214611b4d57806317d9679714611ac35780631a898044146119f35780631d430349146118315780632427a190146117075780632dbcaf0f1461160f57806341ee1495146115325780634bb77ca6146114075780634e03317b146112ac57806351c2d326146112085780635850607c1461119a57806370c056b014610e385780637e8f8da714610a5457806387fecd3e146107ee5780639c0abfd814610691578063af3a17581461064c578063bbd0b8a9146104c8578063cb43b77f146102a6578063d0927b1914610202578063d369111d146101bd5763f14261d21461011a575f80fd5b346101ba57806003193601126101ba576040516378a130e960e11b815281816004817f00000000000000000000000000000000000000000000000000000000000000006001600160a01b03165afa9081156101af5782610188939261018c575b50506040519182918261243f565b0390f35b6101a892503d8091833e6101a08183611e3b565b810190612a4c565b5f8061017a565b6040513d84823e3d90fd5b80fd5b50346101ba57806003193601126101ba576040517f00000000000000000000000000000000000000000000000000000000000000006001600160a01b03168152602090f35b50346101ba5760203660031901126101ba57600435816001600160401b0382116101ba57610237610259923690600401611e77565b604051809381926306f12c2360e41b8352602060048401526024830190611f79565b03817f00000000000000000000000000000000000000000000000000000000000000006001600160a01b03165afa9081156101af5782610188939261018c5750506040519182918261243f565b50346101ba5760603660031901126101ba576004356001600160401b038111610482576102d7903690600401611fb1565b816024356001600160401b038111610482576102f790369060040161264b565b6044356001600160401b0381116104c457610316903690600401612057565b6040516395a8c58d60e01b81523360048201525f60248201526020816044816001600160a01b037f0000000000000000000000000000000000000000000000000000000000000000165afa80156104b95761037891859161048a575b50612894565b610380612e3f565b8351917f00000000000000000000000000000000000000000000000000000000000000006001600160a01b0316803b15610486576103e6856103f89561040a82966040519889978896879563e8002b2760e01b8752606060048801526064870190611f79565b8581036003190160248701529061255c565b83810360031901604485015290612589565b03925af180156101af5761046d575b50604080830151606084015191517fc77dd947ea8bfd0bd2706c8fad9b1178313fad6bd4cb678b9342239be4f8852892909182916104639142916001600160a01b03169084612e13565b0390a16001815580f35b8161047791611e3b565b61048257815f610419565b5080fd5b8480fd5b6104ac915060203d6020116104b2575b6104a48183611e3b565b8101906126c9565b5f610372565b503d61049a565b6040513d86823e3d90fd5b8280fd5b50346101ba5760603660031901126101ba576004356001600160401b038111610482576104f9903690600401611fb1565b816024356001600160401b03811161048257610519903690600401612057565b6044356001600160401b0381116104c4576105389036906004016120b1565b6040516395a8c58d60e01b8152336004820152600160248201526020816044816001600160a01b037f0000000000000000000000000000000000000000000000000000000000000000165afa80156104b95761059b91859161062d575b50612787565b6105a3612e3f565b8351917f00000000000000000000000000000000000000000000000000000000000000006001600160a01b0316803b15610486576106098561061b9561040a82966040519889978896879563a722652760e01b8752606060048801526064870190611f79565b85810360031901602487015290612589565b838103600319016044850152906125b3565b610646915060203d6020116104b2576104a48183611e3b565b5f610595565b50346101ba57806003193601126101ba576040517f00000000000000000000000000000000000000000000000000000000000000006001600160a01b03168152602090f35b50346101ba57806106a136612307565b6040516395a8c58d60e01b815233600482015260026024820152939591949093919290916020816044816001600160a01b037f0000000000000000000000000000000000000000000000000000000000000000165afa80156104b95761070e9185916107cf575b506126e1565b610716612e3f565b7f00000000000000000000000000000000000000000000000000000000000000006001600160a01b031690813b156107cb578391869183896107706040519788968795869463e462dde560e01b865233936004870161299b565b03925af180156101af576107b6575b50506104637fa4a4ed86dce7c96c7821a45fbbe8394915281a2a2fa758ab0465b199c571abfb9360405193849342913390866129f9565b816107c091611e3b565b6107cb57835f61077f565b8380fd5b6107e8915060203d6020116104b2576104a48183611e3b565b5f610708565b50346101ba5760a03660031901126101ba576004356001600160401b0381116104825761081f903690600401611fb1565b610827612047565b826044356001600160401b03811161048257610847903690600401611e77565b926064356001600160401b0381116104c45761086790369060040161264b565b6084356001600160401b0381116107cb57610886903690600401612057565b6040516395a8c58d60e01b81523360048201525f60248201529092906020816044816001600160a01b037f0000000000000000000000000000000000000000000000000000000000000000165afa8015610a49576108ea91869161048a5750612894565b6108f2612e3f565b8051602082015160408301805160609094015190986001600160a01b03918216967f0000000000000000000000000000000000000000000000000000000000000000909216939091843b15610a455788968793604051998a98899788966364b409ff60e01b8852600488016101009052610104880161097091611f79565b87810360031901602489015261098591611f79565b86810360031901604488015261099a91611f79565b90606486015260ff8d1660848601526003198582030160a48601526109be91611f79565b8381036003190160c48501526109d39161255c565b8281036003190160e48401526109e891612589565b03925af180156101af57610a30575b50507ff52a0795d3c1a788d33423aa105be7a0aaa157621a984632251e0c2ed142d040915190610463604051928392429133908561285f565b81610a3a91611e3b565b6104c457825f6109f7565b8880fd5b6040513d87823e3d90fd5b50346101ba5760203660031901126101ba576004356001600160401b03811161048257610a85903690600401611e77565b610a8d612be2565b50610a96612bc2565b50610a9f612c3a565b50606060e0604051610ab081611de8565b82815282602082015282604082015282808201528260808201528260a08201528260c0820152015260018060a01b037f00000000000000000000000000000000000000000000000000000000000000001660405190637e8f8da760e01b825260206004830152838280610b266024820187611f79565b0381845afa9081156104b95784809181948294610c22575b5094610b689495604051808097819463be2e232560e01b8352602060048401526024830190611f79565b03915afa928315610a495785610b9d9694610bf4575b5050610be69061018893946040519687966080885260808801906124ca565b8681036020880152604060ff81610bd2610bc08751606087526060870190611f79565b60208801518682036020880152611f79565b950151169101528582036040870152612589565b9083820360608501526125b3565b6101889450610be69291610c19913d8091833e610c118183611e3b565b810190612d25565b93819250610b7e565b9450925050503d8085843e610c378184611e3b565b820191606081840312610486578481516001600160401b038111610482578201946060868603126104825760405195610c6f87611dcd565b80516001600160401b0381116107cb5786610c8b9183016127f4565b875260208101516001600160401b0381116107cb5781610cb288604093610cbd95016127f4565b60208a015201612a3e565b604087015260208301516001600160401b0381116104c45785610ce1918501612c53565b926040810151906001600160401b0382116107cb570195610100878703126104c45760405196610d1088611de8565b80516001600160401b0381116104865787610d2c9183016127f4565b885260208101516001600160401b0381116104865787610d4d9183016127f4565b602089015260408101516001600160401b0381116104865787610d719183016127f4565b604089015260608101516001600160401b0381116104865787610d959183016127f4565b606089015260808101516001600160401b0381116104865787610db99183016127f4565b608089015260a08101516001600160401b0381116104865787610ddd9183016127f4565b60a089015260c08101516001600160401b0381116104865787610e019183016127f4565b60c089015260e0810151966001600160401b03881161048657610b6897610e2892016127f4565b60e0880152929593909594610b3e565b50346101ba5760203660031901126101ba576004356001600160401b03811161048257610e69903690600401611e77565b610e71612be2565b50606080604051610e8181611d9e565b8181528160208201528460408201520152606060408051610ea181611dcd565b8281528260208201520152610eb4612c3a565b5060405163070c056b60e41b815260206004820152907f00000000000000000000000000000000000000000000000000000000000000006001600160a01b0316838380610f046024820186611f79565b0381845afa9081156104b95784809381928294611013575b610f45959650604051808097819463be2e232560e01b8352602060048401526024830190611f79565b03915afa928315610a495785610f7d9694610fe9575b5050610fdb90610fcd61018894956040519788976080895260808901906124ca565b87810360208901526060610faf610f9d8451608085526080850190611f79565b60208501518482036020860152611f79565b9260ff60408201511660408401520151906060818403910152611f79565b90858203604087015261255c565b908382036060850152612589565b6101889450611009610fdb9392610fcd923d8091833e610c118183611e3b565b9450819250610f5b565b9350935050503d8085853e6110288185611e3b565b830191606084840312610486578484516001600160401b03811161048257850191608083860312610482576040519261106084611d9e565b80516001600160401b0381116107cb578661107c9183016127f4565b845260208101516001600160401b0381116107cb578661109d9183016127f4565b60208501526110ae60408201612a3e565b60408501526060810151906001600160401b0382116107cb576110d3918791016127f4565b606084015260208601516001600160401b0381116104c4578601956060878703126104c4576040519661110588611dcd565b80516001600160401b03811161048657876111219183016127f4565b885260208101516001600160401b03811161048657876111429183016127f4565b60208901526040810151906001600160401b03821161048657611167918891016127f4565b60408801526040810151956001600160401b0387116107cb57610f459661118e9201612c53565b92959293869550610f1c565b50346101ba57806003193601126101ba57604051631614181f60e21b815281816004817f00000000000000000000000000000000000000000000000000000000000000006001600160a01b03165afa9081156101af5782610188939261018c5750506040519182918261243f565b50346101ba5760203660031901126101ba57600435816001600160401b0382116101ba5761123d61125f923690600401611e77565b604051809381926381fc60a560e01b8352602060048401526024830190611f79565b03817f00000000000000000000000000000000000000000000000000000000000000006001600160a01b03165afa9081156101af5782610188939261018c5750506040519182918261243f565b50346101ba576112bb366121e4565b6040516395a8c58d60e01b8152336004820152600260248201529192916020816044816001600160a01b037f0000000000000000000000000000000000000000000000000000000000000000165afa8015610a49576113209186916107cf57506126e1565b611328612e3f565b81516020830151604084015160608501805160808701519197899591946001600160a01b0393841694937f00000000000000000000000000000000000000000000000000000000000000001692909190833b15611403576113a48896928793604051998a9889978896630173c92160e71b8852600488016128ee565b03925af180156101af576113ee575b50506104637fc8c9ccc57ad2f7823680b448dd87b511b225eb0ac2e99e0aa88e7a26ebc6cbe59351925192604051938493429233908661295a565b816113f891611e3b565b6107cb57835f6113b3565b8780fd5b50346101ba578061141736611ebd565b6040516395a8c58d60e01b81523360048201526002602482015291939290916020816044816001600160a01b037f0000000000000000000000000000000000000000000000000000000000000000165afa80156104b95761147e9185916107cf57506126e1565b611486612e3f565b7f00000000000000000000000000000000000000000000000000000000000000006001600160a01b031691823b156107cb576114db928492836040518096819582946309c6b1f160e41b845260048401612738565b03925af180156101af5761151d575b506040517fcffabb0bf09f750f2707c2b39b75068b8474acead216e4ea21a6dbf94255ecf890806104634286338461275d565b8161152791611e3b565b61048257815f6114ea565b50346101ba578061154236612307565b6040516395a8c58d60e01b815233600482015260026024820152939591949093919290916020816044816001600160a01b037f0000000000000000000000000000000000000000000000000000000000000000165afa80156104b9576115ae9185916107cf57506126e1565b6115b6612e3f565b7f00000000000000000000000000000000000000000000000000000000000000006001600160a01b031690813b156107cb5783918691838961077060405197889687958694621acf2560e81b865233936004870161299b565b50346101ba5761161e366121e4565b6040516395a8c58d60e01b8152336004820152600260248201529192916020816044816001600160a01b037f0000000000000000000000000000000000000000000000000000000000000000165afa8015610a49576116839186916107cf57506126e1565b61168b612e3f565b81516020830151604084015160608501805160808701519197899591946001600160a01b0393841694937f00000000000000000000000000000000000000000000000000000000000000001692909190833b15611403576113a48896928793604051998a98899788966315c9fbf960e11b8852600488016128ee565b50346101ba578061171736611f28565b6040516395a8c58d60e01b81523360048201525f602482015291939290916020816044816001600160a01b037f0000000000000000000000000000000000000000000000000000000000000000165afa80156104b95761177d91859161048a5750612894565b611785612e3f565b7f00000000000000000000000000000000000000000000000000000000000000006001600160a01b031691823b156107cb576117da92849283604051809681958294638b11d37b60e01b8452600484016127dd565b03925af180156101af5761181c575b506040517f2bdb00435d9c333b1d40d2bfd328203807f376108c2120951bbf226c1ceaf57190806104634286338461275d565b8161182691611e3b565b61048257815f6117e9565b50346101ba5760803660031901126101ba576004356001600160401b03811161048257611862903690600401611fb1565b61186a612047565b826044356001600160401b0381116104825761188a903690600401612057565b926064356001600160401b0381116104c4576118aa9036906004016120b1565b6040516395a8c58d60e01b8152336004820152600160248201526020816044816001600160a01b037f0000000000000000000000000000000000000000000000000000000000000000165afa80156104b95761190c91859161062d5750612787565b611914612e3f565b8151602083015160408401805160609095015190976001600160a01b0391821695937f00000000000000000000000000000000000000000000000000000000000000009092169291833b1561140357879586926040519889978896879563682053d960e01b87526004870160e0905260e4870161199091611f79565b8681036003190160248801526119a591611f79565b8581036003190160448701526119ba91611f79565b90606485015260ff8c1660848501526003198482030160a48501526119de91612589565b8281036003190160c48401526109e8916125b3565b50346101ba5760203660031901126101ba57600435816001600160401b0382116101ba57611a28611a4a923690600401611e77565b60405180938192636d1aa7d560e01b8352602060048401526024830190611f79565b03817f00000000000000000000000000000000000000000000000000000000000000006001600160a01b03165afa9081156101af57826101889392611aa0575b5050604051918291602083526020830190611f79565b611abc92503d8091833e611ab48183611e3b565b81019061283a565b5f80611a8a565b50346101ba5760203660031901126101ba57600435816001600160401b0382116101ba57611a28611af8923690600401611e77565b03817f00000000000000000000000000000000000000000000000000000000000000006001600160a01b03165afa9081156101af57826101889392611aa0575050604051918291602083526020830190611f79565b50346101ba5780611b5d36611f28565b6040516395a8c58d60e01b81523360048201526001602482015291939290916020816044816001600160a01b037f0000000000000000000000000000000000000000000000000000000000000000165afa80156104b957611bc491859161062d5750612787565b611bcc612e3f565b7f00000000000000000000000000000000000000000000000000000000000000006001600160a01b031691823b156107cb576117da928492836040518096819582946349db9dd160e11b8452600484016127dd565b5034611d5957611c3036611ebd565b6040516395a8c58d60e01b815233600482015260026024820152919290916020816044816001600160a01b037f0000000000000000000000000000000000000000000000000000000000000000165afa8015611d4e57611c96915f916107cf57506126e1565b611c9e612e3f565b7f00000000000000000000000000000000000000000000000000000000000000006001600160a01b031691823b15611d5957611cf3925f9283604051809681958294635839821b60e11b845260048401612738565b03925af18015611d4e57611d37575b506104637fcffabb0bf09f750f2707c2b39b75068b8474acead216e4ea21a6dbf94255ecf8916040519182914290338461275d565b611d449192505f90611e3b565b5f90610463611d02565b6040513d5f823e3d90fd5b5f80fd5b34611d59575f366003190112611d59577f00000000000000000000000000000000000000000000000000000000000000006001600160a01b03168152602090f35b608081019081106001600160401b03821117611db957604052565b634e487b7160e01b5f52604160045260245ffd5b606081019081106001600160401b03821117611db957604052565b61010081019081106001600160401b03821117611db957604052565b604081019081106001600160401b03821117611db957604052565b61014081019081106001600160401b03821117611db957604052565b90601f801991011681019081106001600160401b03821117611db957604052565b6001600160401b038111611db957601f01601f191660200190565b81601f82011215611d5957803590611e8e82611e5c565b92611e9c6040519485611e3b565b82845260208383010111611d5957815f926020809301838601378301015290565b6060600319820112611d59576004356001600160401b038111611d595781611ee791600401611e77565b916024356001600160401b038111611d595782611f0691600401611e77565b91604435906001600160401b038211611d5957611f2591600401611e77565b90565b906060600319830112611d59576004356001600160401b038111611d595782611f5391600401611e77565b91602435906001600160401b038211611d5957611f7291600401611e77565b9060443590565b805180835260209291819084018484015e5f828201840152601f01601f1916010190565b35906001600160a01b0382168203611d5957565b919091608081840312611d595760405190611fcb82611d9e565b819381356001600160401b038111611d595781611fe9918401611e77565b835260208201356001600160401b038111611d59578161200a918401611e77565b60208401526040820135906001600160401b038211611d5957826120376060949261204294869401611e77565b604086015201611f9d565b910152565b6024359060ff82168203611d5957565b9190604083820312611d59576040519061207082611e04565b819380356001600160401b038111611d59578261208e918301611e77565b83526020810135916001600160401b038311611d59576020926120429201611e77565b919061010083820312611d5957604051906120cb82611de8565b819380356001600160401b038111611d5957826120e9918301611e77565b835260208101356001600160401b038111611d59578261210a918301611e77565b602084015260408101356001600160401b038111611d59578261212e918301611e77565b604084015260608101356001600160401b038111611d595782612152918301611e77565b606084015260808101356001600160401b038111611d595782612176918301611e77565b608084015260a08101356001600160401b038111611d59578261219a918301611e77565b60a084015260c08101356001600160401b038111611d5957826121be918301611e77565b60c084015260e0810135916001600160401b038311611d595760e0926120429201611e77565b906060600319830112611d59576004356001600160401b038111611d595760a08184036003190112611d59576040519060a082018281106001600160401b03821117611db95760405280600401356001600160401b038111611d595784600461224f92840101611e77565b825260248101356001600160401b038111611d595784600461227392840101611e77565b602083015260448101356001600160401b038111611d595784600461229a92840101611e77565b604083015260648101356001600160401b038111611d5957816122c78660046084946122d2960101611e77565b606085015201611f9d565b608082015291602435906001600160401b038211611d59576122f691600401611e77565b9060443560ff81168103611d595790565b9060a0600319830112611d59576004356001600160401b038111611d59578261233291600401611e77565b916024356001600160401b038111611d59578161235191600401611e77565b916044356001600160401b038111611d59578261237091600401611e77565b91606435906001600160401b038211611d595761238f91600401611e77565b9060843560ff81168103611d595790565b9060078210156123ad5752565b634e487b7160e01b5f52602160045260245ffd5b9060c0806124366124056123f36123e1875160e0885260e0880190611f79565b60208801518782036020890152611f79565b60408701518682036040880152611f79565b60ff6060870151166060860152612424608087015160808701906123a0565b60a086015185820360a0870152611f79565b93015191015290565b602081016020825282518091526040820191602060408360051b8301019401925f915b83831061247157505050505090565b909192939460208061248f600193603f1986820301875289516123c1565b97019301930191939290612462565b9060406124b7610f9d8451606085526060850190611f79565b928101516001600160a01b031691015290565b611f25916124d98183516123a0565b6020820151602082015260408201516040820152606082015160608201526080820151608082015260a082015160a082015260c082015160c082015261012061254a61253660e085015161014060e086015261014085019061249e565b61010085015184820361010086015261249e565b92015190610120818403910152611f79565b611f25916040612578610f9d8451606085526060850190611f79565b920151906040818403910152611f79565b611f259160206125a28351604084526040840190611f79565b920151906020818403910152611f79565b611f259160e061263a6126286124246126166126046125f26125e089516101008a526101008a0190611f79565b60208a015189820360208b0152611f79565b604089015188820360408a0152611f79565b60608801518782036060890152611f79565b60808701518682036080880152611f79565b60c085015184820360c0860152611f79565b9201519060e0818403910152611f79565b9190606083820312611d59576040519061266482611dcd565b819380356001600160401b038111611d595782612682918301611e77565b835260208101356001600160401b038111611d5957826126a3918301611e77565b60208401526040810135916001600160401b038311611d59576040926120429201611e77565b90816020910312611d5957518015158103611d595790565b156126e857565b60405162461bcd60e51b815260206004820152602260248201527f4f6e6c792042504f4d2063616e20646f2074686973207472616e73616374696f6044820152616e2160f01b6064820152608490fd5b909161274f611f2593604084526040840190611f79565b916020818403910152611f79565b9392916127829060409260018060a01b03168652606060208701526060860190611f79565b930152565b1561278e57565b60405162461bcd60e51b815260206004820152602160248201527f4f6e6c79205042462063616e20646f2074686973207472616e73616374696f6e6044820152602160f81b6064820152608490fd5b929190612782602091604086526040860190611f79565b81601f82011215611d595780519061280b82611e5c565b926128196040519485611e3b565b82845260208383010111611d5957815f9260208093018386015e8301015290565b90602082820312611d595781516001600160401b038111611d5957611f2592016127f4565b9060609295949361287a60ff92608085526080850190611f79565b6001600160a01b0390971660208401521660408201520152565b1561289b57565b60405162461bcd60e51b815260206004820152602560248201527f4f6e6c7920466163746f72792063616e20646f2074686973207472616e73616360448201526474696f6e2160d81b6064820152608490fd5b9261292d9061291f61293b94612911611f259a989560c0895260c0890190611f79565b908782036020890152611f79565b908582036040870152611f79565b908382036060850152611f79565b6001600160a01b03909316608082015280830360a09190910152611f79565b95949360ff608094612978612782959460a08b5260a08b0190611f79565b6001600160a01b0390941660208a01521660408801528682036060880152611f79565b93906080936129cd6129e9946129bf6129db949a999a60a08a5260a08a0190611f79565b9088820360208a0152611f79565b908682036040880152611f79565b908482036060860152611f79565b6001600160a01b03909416910152565b919390611f259593612a1560ff9260a0865260a0860190611f79565b6001600160a01b0390961660208501521660408301526060820152808303608090910152611f79565b519060ff82168203611d5957565b602081830312611d59578051906001600160401b038211611d5957019080601f83011215611d59576020825192016001600160401b038311611db9578260051b916020830193612a9f6040519586611e3b565b84526020840192820191818311611d595780935b838510612ac257505050505090565b84516001600160401b038111611d5957820160e081850312611d59576040519160e083018381106001600160401b03821117611db95760405281516001600160401b038111611d595785612b179184016127f4565b835260208201516001600160401b038111611d595785612b389184016127f4565b602084015260408201516001600160401b038111611d595785612b5c9184016127f4565b6040840152612b6d60608301612a3e565b606084015260808201516007811015611d5957608084015260a0820151926001600160401b038411611d595760c083612bab886020978897016127f4565b60a0840152015160c0820152815201940193612ab3565b60405190612bcf82611dcd565b5f60408360608152606060208201520152565b60405190612bef82611e1f565b6060610120835f81525f60208201525f60408201525f838201525f60808201525f60a08201525f60c0820152612c23612bc2565b60e0820152612c30612bc2565b6101008201520152565b60405190612c4782611e04565b60606020838281520152565b9190604083820312611d595760405190612c6c82611e04565b819380516001600160401b038111611d595782612c8a9183016127f4565b83526020810151916001600160401b038311611d595760209261204292016127f4565b9190606083820312611d595760405190612cc682611dcd565b819380516001600160401b038111611d595782612ce49183016127f4565b835260208101516001600160401b038111611d5957604092612d079183016127f4565b60208401520151906001600160a01b0382168203611d595760400152565b602081830312611d59578051906001600160401b038211611d59570161014081830312611d595760405191612d5983611e1f565b81516007811015611d595783526020820151602084015260408201516040840152606082015160608401526080820151608084015260a082015160a084015260c082015160c084015260e08201516001600160401b038111611d595781612dc1918401612cad565b60e08401526101008201516001600160401b038111611d595781612de6918401612cad565b6101008401526101208201516001600160401b038111611d5957612e0a92016127f4565b61012082015290565b612e2b60409295949395606083526060830190611f79565b6001600160a01b0390951660208201520152565b60025f5414612e4e5760025f55565b633ee5aeb560e01b5f5260045ffdfea2646970667358221220fafd9536d6cadec6bdf6f1cad412047b2d2c4c735b73f248aebd52ffa3cb74a364736f6c634300081b0033","opcodes":"PUSH1 0xE0 CALLVALUE PUSH2 0x186 JUMPI PUSH1 0x1F PUSH2 0x3046 CODESIZE DUP2 SWAP1 SUB SWAP2 DUP3 ADD PUSH1 0x1F NOT AND DUP4 ADD SWAP2 PUSH1 0x1 PUSH1 0x1 PUSH1 0x40 SHL SUB DUP4 GT DUP5 DUP5 LT OR PUSH2 0x18A JUMPI DUP1 DUP5 SWAP3 PUSH1 0x60 SWAP5 PUSH1 0x40 MSTORE DUP4 CODECOPY DUP2 ADD SUB SLT PUSH2 0x186 JUMPI PUSH2 0x47 DUP2 PUSH2 0x19E JUMP JUMPDEST SWAP1 PUSH2 0x60 PUSH1 0x40 PUSH2 0x59 PUSH1 0x20 DUP5 ADD PUSH2 0x19E JUMP JUMPDEST SWAP3 ADD PUSH2 0x19E JUMP JUMPDEST PUSH1 0x1 PUSH0 SSTORE PUSH1 0x1 PUSH1 0x1 PUSH1 0xA0 SHL SUB SWAP3 DUP4 AND PUSH1 0x80 MSTORE SWAP1 DUP3 AND PUSH1 0xA0 MSTORE AND PUSH1 0xC0 MSTORE PUSH1 0x40 MLOAD PUSH2 0x2E93 SWAP1 DUP2 PUSH2 0x1B3 DUP3 CODECOPY PUSH1 0x80 MLOAD DUP2 DUP2 DUP2 PUSH2 0x33F ADD MSTORE DUP2 DUP2 PUSH2 0x562 ADD MSTORE DUP2 DUP2 PUSH2 0x6D5 ADD MSTORE DUP2 DUP2 PUSH2 0x8B2 ADD MSTORE DUP2 DUP2 PUSH2 0x12E8 ADD MSTORE DUP2 DUP2 PUSH2 0x1446 ADD MSTORE DUP2 DUP2 PUSH2 0x1576 ADD MSTORE DUP2 DUP2 PUSH2 0x164B ADD MSTORE DUP2 DUP2 PUSH2 0x1745 ADD MSTORE DUP2 DUP2 PUSH2 0x18D4 ADD MSTORE DUP2 DUP2 PUSH2 0x1B8C ADD MSTORE DUP2 DUP2 PUSH2 0x1C5E ADD MSTORE PUSH2 0x1D6F ADD MSTORE PUSH1 0xA0 MLOAD DUP2 DUP2 DUP2 PUSH2 0x1D3 ADD MSTORE DUP2 DUP2 PUSH2 0x385 ADD MSTORE DUP2 DUP2 PUSH2 0x718 ADD MSTORE DUP2 DUP2 PUSH2 0x915 ADD MSTORE DUP2 DUP2 PUSH2 0xECC ADD MSTORE DUP2 DUP2 PUSH2 0x11BF ADD MSTORE DUP2 DUP2 PUSH2 0x1263 ADD MSTORE DUP2 DUP2 PUSH2 0x1354 ADD MSTORE DUP2 DUP2 PUSH2 0x1787 ADD MSTORE DUP2 DUP2 PUSH2 0x1A4E ADD MSTORE PUSH2 0x1CA0 ADD MSTORE PUSH1 0xC0 MLOAD DUP2 DUP2 DUP2 PUSH2 0x13E ADD MSTORE DUP2 DUP2 PUSH2 0x25D ADD MSTORE DUP2 DUP2 PUSH2 0x5A8 ADD MSTORE DUP2 DUP2 PUSH2 0x662 ADD MSTORE DUP2 DUP2 PUSH2 0xAE1 ADD MSTORE DUP2 DUP2 PUSH2 0x1488 ADD MSTORE DUP2 DUP2 PUSH2 0x15B8 ADD MSTORE DUP2 DUP2 PUSH2 0x16B7 ADD MSTORE DUP2 DUP2 PUSH2 0x1938 ADD MSTORE DUP2 DUP2 PUSH2 0x1AFC ADD MSTORE PUSH2 0x1BCE ADD MSTORE RETURN JUMPDEST PUSH0 DUP1 REVERT JUMPDEST PUSH4 0x4E487B71 PUSH1 0xE0 SHL PUSH0 MSTORE PUSH1 0x41 PUSH1 0x4 MSTORE PUSH1 0x24 PUSH0 REVERT JUMPDEST MLOAD SWAP1 PUSH1 0x1 PUSH1 0x1 PUSH1 0xA0 SHL SUB DUP3 AND DUP3 SUB PUSH2 0x186 JUMPI JUMP INVALID PUSH1 0x80 DUP1 PUSH1 0x40 MSTORE PUSH1 0x4 CALLDATASIZE LT ISZERO PUSH2 0x12 JUMPI PUSH0 DUP1 REVERT JUMPDEST PUSH0 SWAP1 PUSH0 CALLDATALOAD PUSH1 0xE0 SHR SWAP1 DUP2 PUSH3 0x435DA5 EQ PUSH2 0x1D5D JUMPI POP DUP1 PUSH4 0xD011D1C EQ PUSH2 0x1C21 JUMPI DUP1 PUSH4 0x17A2E1F2 EQ PUSH2 0x1B4D JUMPI DUP1 PUSH4 0x17D96797 EQ PUSH2 0x1AC3 JUMPI DUP1 PUSH4 0x1A898044 EQ PUSH2 0x19F3 JUMPI DUP1 PUSH4 0x1D430349 EQ PUSH2 0x1831 JUMPI DUP1 PUSH4 0x2427A190 EQ PUSH2 0x1707 JUMPI DUP1 PUSH4 0x2DBCAF0F EQ PUSH2 0x160F JUMPI DUP1 PUSH4 0x41EE1495 EQ PUSH2 0x1532 JUMPI DUP1 PUSH4 0x4BB77CA6 EQ PUSH2 0x1407 JUMPI DUP1 PUSH4 0x4E03317B EQ PUSH2 0x12AC JUMPI DUP1 PUSH4 0x51C2D326 EQ PUSH2 0x1208 JUMPI DUP1 PUSH4 0x5850607C EQ PUSH2 0x119A JUMPI DUP1 PUSH4 0x70C056B0 EQ PUSH2 0xE38 JUMPI DUP1 PUSH4 0x7E8F8DA7 EQ PUSH2 0xA54 JUMPI DUP1 PUSH4 0x87FECD3E EQ PUSH2 0x7EE JUMPI DUP1 PUSH4 0x9C0ABFD8 EQ PUSH2 0x691 JUMPI DUP1 PUSH4 0xAF3A1758 EQ PUSH2 0x64C JUMPI DUP1 PUSH4 0xBBD0B8A9 EQ PUSH2 0x4C8 JUMPI DUP1 PUSH4 0xCB43B77F EQ PUSH2 0x2A6 JUMPI DUP1 PUSH4 0xD0927B19 EQ PUSH2 0x202 JUMPI DUP1 PUSH4 0xD369111D EQ PUSH2 0x1BD JUMPI PUSH4 0xF14261D2 EQ PUSH2 0x11A JUMPI PUSH0 DUP1 REVERT JUMPDEST CALLVALUE PUSH2 0x1BA JUMPI DUP1 PUSH1 0x3 NOT CALLDATASIZE ADD SLT PUSH2 0x1BA JUMPI PUSH1 0x40 MLOAD PUSH4 0x78A130E9 PUSH1 0xE1 SHL DUP2 MSTORE DUP2 DUP2 PUSH1 0x4 DUP2 PUSH32 0x0 PUSH1 0x1 PUSH1 0x1 PUSH1 0xA0 SHL SUB AND GAS STATICCALL SWAP1 DUP2 ISZERO PUSH2 0x1AF JUMPI DUP3 PUSH2 0x188 SWAP4 SWAP3 PUSH2 0x18C JUMPI JUMPDEST POP POP PUSH1 0x40 MLOAD SWAP2 DUP3 SWAP2 DUP3 PUSH2 0x243F JUMP JUMPDEST SUB SWAP1 RETURN JUMPDEST PUSH2 0x1A8 SWAP3 POP RETURNDATASIZE DUP1 SWAP2 DUP4 RETURNDATACOPY PUSH2 0x1A0 DUP2 DUP4 PUSH2 0x1E3B JUMP JUMPDEST DUP2 ADD SWAP1 PUSH2 0x2A4C JUMP JUMPDEST PUSH0 DUP1 PUSH2 0x17A JUMP JUMPDEST PUSH1 0x40 MLOAD RETURNDATASIZE DUP5 DUP3 RETURNDATACOPY RETURNDATASIZE SWAP1 REVERT JUMPDEST DUP1 REVERT JUMPDEST POP CALLVALUE PUSH2 0x1BA JUMPI DUP1 PUSH1 0x3 NOT CALLDATASIZE ADD SLT PUSH2 0x1BA JUMPI PUSH1 0x40 MLOAD PUSH32 0x0 PUSH1 0x1 PUSH1 0x1 PUSH1 0xA0 SHL SUB AND DUP2 MSTORE PUSH1 0x20 SWAP1 RETURN JUMPDEST POP CALLVALUE PUSH2 0x1BA JUMPI PUSH1 0x20 CALLDATASIZE PUSH1 0x3 NOT ADD SLT PUSH2 0x1BA JUMPI PUSH1 0x4 CALLDATALOAD DUP2 PUSH1 0x1 PUSH1 0x1 PUSH1 0x40 SHL SUB DUP3 GT PUSH2 0x1BA JUMPI PUSH2 0x237 PUSH2 0x259 SWAP3 CALLDATASIZE SWAP1 PUSH1 0x4 ADD PUSH2 0x1E77 JUMP JUMPDEST PUSH1 0x40 MLOAD DUP1 SWAP4 DUP2 SWAP3 PUSH4 0x6F12C23 PUSH1 0xE4 SHL DUP4 MSTORE PUSH1 0x20 PUSH1 0x4 DUP5 ADD MSTORE PUSH1 0x24 DUP4 ADD SWAP1 PUSH2 0x1F79 JUMP JUMPDEST SUB DUP2 PUSH32 0x0 PUSH1 0x1 PUSH1 0x1 PUSH1 0xA0 SHL SUB AND GAS STATICCALL SWAP1 DUP2 ISZERO PUSH2 0x1AF JUMPI DUP3 PUSH2 0x188 SWAP4 SWAP3 PUSH2 0x18C JUMPI POP POP PUSH1 0x40 MLOAD SWAP2 DUP3 SWAP2 DUP3 PUSH2 0x243F JUMP JUMPDEST POP CALLVALUE PUSH2 0x1BA JUMPI PUSH1 0x60 CALLDATASIZE PUSH1 0x3 NOT ADD SLT PUSH2 0x1BA JUMPI PUSH1 0x4 CALLDATALOAD PUSH1 0x1 PUSH1 0x1 PUSH1 0x40 SHL SUB DUP2 GT PUSH2 0x482 JUMPI PUSH2 0x2D7 SWAP1 CALLDATASIZE SWAP1 PUSH1 0x4 ADD PUSH2 0x1FB1 JUMP JUMPDEST DUP2 PUSH1 0x24 CALLDATALOAD PUSH1 0x1 PUSH1 0x1 PUSH1 0x40 SHL SUB DUP2 GT PUSH2 0x482 JUMPI PUSH2 0x2F7 SWAP1 CALLDATASIZE SWAP1 PUSH1 0x4 ADD PUSH2 0x264B JUMP JUMPDEST PUSH1 0x44 CALLDATALOAD PUSH1 0x1 PUSH1 0x1 PUSH1 0x40 SHL SUB DUP2 GT PUSH2 0x4C4 JUMPI PUSH2 0x316 SWAP1 CALLDATASIZE SWAP1 PUSH1 0x4 ADD PUSH2 0x2057 JUMP JUMPDEST PUSH1 0x40 MLOAD PUSH4 0x95A8C58D PUSH1 0xE0 SHL DUP2 MSTORE CALLER PUSH1 0x4 DUP3 ADD MSTORE PUSH0 PUSH1 0x24 DUP3 ADD MSTORE PUSH1 0x20 DUP2 PUSH1 0x44 DUP2 PUSH1 0x1 PUSH1 0x1 PUSH1 0xA0 SHL SUB PUSH32 0x0 AND GAS STATICCALL DUP1 ISZERO PUSH2 0x4B9 JUMPI PUSH2 0x378 SWAP2 DUP6 SWAP2 PUSH2 0x48A JUMPI JUMPDEST POP PUSH2 0x2894 JUMP JUMPDEST PUSH2 0x380 PUSH2 0x2E3F JUMP JUMPDEST DUP4 MLOAD SWAP2 PUSH32 0x0 PUSH1 0x1 PUSH1 0x1 PUSH1 0xA0 SHL SUB AND DUP1 EXTCODESIZE ISZERO PUSH2 0x486 JUMPI PUSH2 0x3E6 DUP6 PUSH2 0x3F8 SWAP6 PUSH2 0x40A DUP3 SWAP7 PUSH1 0x40 MLOAD SWAP9 DUP10 SWAP8 DUP9 SWAP7 DUP8 SWAP6 PUSH4 0xE8002B27 PUSH1 0xE0 SHL DUP8 MSTORE PUSH1 0x60 PUSH1 0x4 DUP9 ADD MSTORE PUSH1 0x64 DUP8 ADD SWAP1 PUSH2 0x1F79 JUMP JUMPDEST DUP6 DUP2 SUB PUSH1 0x3 NOT ADD PUSH1 0x24 DUP8 ADD MSTORE SWAP1 PUSH2 0x255C JUMP JUMPDEST DUP4 DUP2 SUB PUSH1 0x3 NOT ADD PUSH1 0x44 DUP6 ADD MSTORE SWAP1 PUSH2 0x2589 JUMP JUMPDEST SUB SWAP3 GAS CALL DUP1 ISZERO PUSH2 0x1AF JUMPI PUSH2 0x46D JUMPI JUMPDEST POP PUSH1 0x40 DUP1 DUP4 ADD MLOAD PUSH1 0x60 DUP5 ADD MLOAD SWAP2 MLOAD PUSH32 0xC77DD947EA8BFD0BD2706C8FAD9B1178313FAD6BD4CB678B9342239BE4F88528 SWAP3 SWAP1 SWAP2 DUP3 SWAP2 PUSH2 0x463 SWAP2 TIMESTAMP SWAP2 PUSH1 0x1 PUSH1 0x1 PUSH1 0xA0 SHL SUB AND SWAP1 DUP5 PUSH2 0x2E13 JUMP JUMPDEST SUB SWAP1 LOG1 PUSH1 0x1 DUP2 SSTORE DUP1 RETURN JUMPDEST DUP2 PUSH2 0x477 SWAP2 PUSH2 0x1E3B JUMP JUMPDEST PUSH2 0x482 JUMPI DUP2 PUSH0 PUSH2 0x419 JUMP JUMPDEST POP DUP1 REVERT JUMPDEST DUP5 DUP1 REVERT JUMPDEST PUSH2 0x4AC SWAP2 POP PUSH1 0x20 RETURNDATASIZE PUSH1 0x20 GT PUSH2 0x4B2 JUMPI JUMPDEST PUSH2 0x4A4 DUP2 DUP4 PUSH2 0x1E3B JUMP JUMPDEST DUP2 ADD SWAP1 PUSH2 0x26C9 JUMP JUMPDEST PUSH0 PUSH2 0x372 JUMP JUMPDEST POP RETURNDATASIZE PUSH2 0x49A JUMP JUMPDEST PUSH1 0x40 MLOAD RETURNDATASIZE DUP7 DUP3 RETURNDATACOPY RETURNDATASIZE SWAP1 REVERT JUMPDEST DUP3 DUP1 REVERT JUMPDEST POP CALLVALUE PUSH2 0x1BA JUMPI PUSH1 0x60 CALLDATASIZE PUSH1 0x3 NOT ADD SLT PUSH2 0x1BA JUMPI PUSH1 0x4 CALLDATALOAD PUSH1 0x1 PUSH1 0x1 PUSH1 0x40 SHL SUB DUP2 GT PUSH2 0x482 JUMPI PUSH2 0x4F9 SWAP1 CALLDATASIZE SWAP1 PUSH1 0x4 ADD PUSH2 0x1FB1 JUMP JUMPDEST DUP2 PUSH1 0x24 CALLDATALOAD PUSH1 0x1 PUSH1 0x1 PUSH1 0x40 SHL SUB DUP2 GT PUSH2 0x482 JUMPI PUSH2 0x519 SWAP1 CALLDATASIZE SWAP1 PUSH1 0x4 ADD PUSH2 0x2057 JUMP JUMPDEST PUSH1 0x44 CALLDATALOAD PUSH1 0x1 PUSH1 0x1 PUSH1 0x40 SHL SUB DUP2 GT PUSH2 0x4C4 JUMPI PUSH2 0x538 SWAP1 CALLDATASIZE SWAP1 PUSH1 0x4 ADD PUSH2 0x20B1 JUMP JUMPDEST PUSH1 0x40 MLOAD PUSH4 0x95A8C58D PUSH1 0xE0 SHL DUP2 MSTORE CALLER PUSH1 0x4 DUP3 ADD MSTORE PUSH1 0x1 PUSH1 0x24 DUP3 ADD MSTORE PUSH1 0x20 DUP2 PUSH1 0x44 DUP2 PUSH1 0x1 PUSH1 0x1 PUSH1 0xA0 SHL SUB PUSH32 0x0 AND GAS STATICCALL DUP1 ISZERO PUSH2 0x4B9 JUMPI PUSH2 0x59B SWAP2 DUP6 SWAP2 PUSH2 0x62D JUMPI JUMPDEST POP PUSH2 0x2787 JUMP JUMPDEST PUSH2 0x5A3 PUSH2 0x2E3F JUMP JUMPDEST DUP4 MLOAD SWAP2 PUSH32 0x0 PUSH1 0x1 PUSH1 0x1 PUSH1 0xA0 SHL SUB AND DUP1 EXTCODESIZE ISZERO PUSH2 0x486 JUMPI PUSH2 0x609 DUP6 PUSH2 0x61B SWAP6 PUSH2 0x40A DUP3 SWAP7 PUSH1 0x40 MLOAD SWAP9 DUP10 SWAP8 DUP9 SWAP7 DUP8 SWAP6 PUSH4 0xA7226527 PUSH1 0xE0 SHL DUP8 MSTORE PUSH1 0x60 PUSH1 0x4 DUP9 ADD MSTORE PUSH1 0x64 DUP8 ADD SWAP1 PUSH2 0x1F79 JUMP JUMPDEST DUP6 DUP2 SUB PUSH1 0x3 NOT ADD PUSH1 0x24 DUP8 ADD MSTORE SWAP1 PUSH2 0x2589 JUMP JUMPDEST DUP4 DUP2 SUB PUSH1 0x3 NOT ADD PUSH1 0x44 DUP6 ADD MSTORE SWAP1 PUSH2 0x25B3 JUMP JUMPDEST PUSH2 0x646 SWAP2 POP PUSH1 0x20 RETURNDATASIZE PUSH1 0x20 GT PUSH2 0x4B2 JUMPI PUSH2 0x4A4 DUP2 DUP4 PUSH2 0x1E3B JUMP JUMPDEST PUSH0 PUSH2 0x595 JUMP JUMPDEST POP CALLVALUE PUSH2 0x1BA JUMPI DUP1 PUSH1 0x3 NOT CALLDATASIZE ADD SLT PUSH2 0x1BA JUMPI PUSH1 0x40 MLOAD PUSH32 0x0 PUSH1 0x1 PUSH1 0x1 PUSH1 0xA0 SHL SUB AND DUP2 MSTORE PUSH1 0x20 SWAP1 RETURN JUMPDEST POP CALLVALUE PUSH2 0x1BA JUMPI DUP1 PUSH2 0x6A1 CALLDATASIZE PUSH2 0x2307 JUMP JUMPDEST PUSH1 0x40 MLOAD PUSH4 0x95A8C58D PUSH1 0xE0 SHL DUP2 MSTORE CALLER PUSH1 0x4 DUP3 ADD MSTORE PUSH1 0x2 PUSH1 0x24 DUP3 ADD MSTORE SWAP4 SWAP6 SWAP2 SWAP5 SWAP1 SWAP4 SWAP2 SWAP3 SWAP1 SWAP2 PUSH1 0x20 DUP2 PUSH1 0x44 DUP2 PUSH1 0x1 PUSH1 0x1 PUSH1 0xA0 SHL SUB PUSH32 0x0 AND GAS STATICCALL DUP1 ISZERO PUSH2 0x4B9 JUMPI PUSH2 0x70E SWAP2 DUP6 SWAP2 PUSH2 0x7CF JUMPI JUMPDEST POP PUSH2 0x26E1 JUMP JUMPDEST PUSH2 0x716 PUSH2 0x2E3F JUMP JUMPDEST PUSH32 0x0 PUSH1 0x1 PUSH1 0x1 PUSH1 0xA0 SHL SUB AND SWAP1 DUP2 EXTCODESIZE ISZERO PUSH2 0x7CB JUMPI DUP4 SWAP2 DUP7 SWAP2 DUP4 DUP10 PUSH2 0x770 PUSH1 0x40 MLOAD SWAP8 DUP9 SWAP7 DUP8 SWAP6 DUP7 SWAP5 PUSH4 0xE462DDE5 PUSH1 0xE0 SHL DUP7 MSTORE CALLER SWAP4 PUSH1 0x4 DUP8 ADD PUSH2 0x299B JUMP JUMPDEST SUB SWAP3 GAS CALL DUP1 ISZERO PUSH2 0x1AF JUMPI PUSH2 0x7B6 JUMPI JUMPDEST POP POP PUSH2 0x463 PUSH32 0xA4A4ED86DCE7C96C7821A45FBBE8394915281A2A2FA758AB0465B199C571ABFB SWAP4 PUSH1 0x40 MLOAD SWAP4 DUP5 SWAP4 TIMESTAMP SWAP2 CALLER SWAP1 DUP7 PUSH2 0x29F9 JUMP JUMPDEST DUP2 PUSH2 0x7C0 SWAP2 PUSH2 0x1E3B JUMP JUMPDEST PUSH2 0x7CB JUMPI DUP4 PUSH0 PUSH2 0x77F JUMP JUMPDEST DUP4 DUP1 REVERT JUMPDEST PUSH2 0x7E8 SWAP2 POP PUSH1 0x20 RETURNDATASIZE PUSH1 0x20 GT PUSH2 0x4B2 JUMPI PUSH2 0x4A4 DUP2 DUP4 PUSH2 0x1E3B JUMP JUMPDEST PUSH0 PUSH2 0x708 JUMP JUMPDEST POP CALLVALUE PUSH2 0x1BA JUMPI PUSH1 0xA0 CALLDATASIZE PUSH1 0x3 NOT ADD SLT PUSH2 0x1BA JUMPI PUSH1 0x4 CALLDATALOAD PUSH1 0x1 PUSH1 0x1 PUSH1 0x40 SHL SUB DUP2 GT PUSH2 0x482 JUMPI PUSH2 0x81F SWAP1 CALLDATASIZE SWAP1 PUSH1 0x4 ADD PUSH2 0x1FB1 JUMP JUMPDEST PUSH2 0x827 PUSH2 0x2047 JUMP JUMPDEST DUP3 PUSH1 0x44 CALLDATALOAD PUSH1 0x1 PUSH1 0x1 PUSH1 0x40 SHL SUB DUP2 GT PUSH2 0x482 JUMPI PUSH2 0x847 SWAP1 CALLDATASIZE SWAP1 PUSH1 0x4 ADD PUSH2 0x1E77 JUMP JUMPDEST SWAP3 PUSH1 0x64 CALLDATALOAD PUSH1 0x1 PUSH1 0x1 PUSH1 0x40 SHL SUB DUP2 GT PUSH2 0x4C4 JUMPI PUSH2 0x867 SWAP1 CALLDATASIZE SWAP1 PUSH1 0x4 ADD PUSH2 0x264B JUMP JUMPDEST PUSH1 0x84 CALLDATALOAD PUSH1 0x1 PUSH1 0x1 PUSH1 0x40 SHL SUB DUP2 GT PUSH2 0x7CB JUMPI PUSH2 0x886 SWAP1 CALLDATASIZE SWAP1 PUSH1 0x4 ADD PUSH2 0x2057 JUMP JUMPDEST PUSH1 0x40 MLOAD PUSH4 0x95A8C58D PUSH1 0xE0 SHL DUP2 MSTORE CALLER PUSH1 0x4 DUP3 ADD MSTORE PUSH0 PUSH1 0x24 DUP3 ADD MSTORE SWAP1 SWAP3 SWAP1 PUSH1 0x20 DUP2 PUSH1 0x44 DUP2 PUSH1 0x1 PUSH1 0x1 PUSH1 0xA0 SHL SUB PUSH32 0x0 AND GAS STATICCALL DUP1 ISZERO PUSH2 0xA49 JUMPI PUSH2 0x8EA SWAP2 DUP7 SWAP2 PUSH2 0x48A JUMPI POP PUSH2 0x2894 JUMP JUMPDEST PUSH2 0x8F2 PUSH2 0x2E3F JUMP JUMPDEST DUP1 MLOAD PUSH1 0x20 DUP3 ADD MLOAD PUSH1 0x40 DUP4 ADD DUP1 MLOAD PUSH1 0x60 SWAP1 SWAP5 ADD MLOAD SWAP1 SWAP9 PUSH1 0x1 PUSH1 0x1 PUSH1 0xA0 SHL SUB SWAP2 DUP3 AND SWAP7 PUSH32 0x0 SWAP1 SWAP3 AND SWAP4 SWAP1 SWAP2 DUP5 EXTCODESIZE ISZERO PUSH2 0xA45 JUMPI DUP9 SWAP7 DUP8 SWAP4 PUSH1 0x40 MLOAD SWAP10 DUP11 SWAP9 DUP10 SWAP8 DUP9 SWAP7 PUSH4 0x64B409FF PUSH1 0xE0 SHL DUP9 MSTORE PUSH1 0x4 DUP9 ADD PUSH2 0x100 SWAP1 MSTORE PUSH2 0x104 DUP9 ADD PUSH2 0x970 SWAP2 PUSH2 0x1F79 JUMP JUMPDEST DUP8 DUP2 SUB PUSH1 0x3 NOT ADD PUSH1 0x24 DUP10 ADD MSTORE PUSH2 0x985 SWAP2 PUSH2 0x1F79 JUMP JUMPDEST DUP7 DUP2 SUB PUSH1 0x3 NOT ADD PUSH1 0x44 DUP9 ADD MSTORE PUSH2 0x99A SWAP2 PUSH2 0x1F79 JUMP JUMPDEST SWAP1 PUSH1 0x64 DUP7 ADD MSTORE PUSH1 0xFF DUP14 AND PUSH1 0x84 DUP7 ADD MSTORE PUSH1 0x3 NOT DUP6 DUP3 SUB ADD PUSH1 0xA4 DUP7 ADD MSTORE PUSH2 0x9BE SWAP2 PUSH2 0x1F79 JUMP JUMPDEST DUP4 DUP2 SUB PUSH1 0x3 NOT ADD PUSH1 0xC4 DUP6 ADD MSTORE PUSH2 0x9D3 SWAP2 PUSH2 0x255C JUMP JUMPDEST DUP3 DUP2 SUB PUSH1 0x3 NOT ADD PUSH1 0xE4 DUP5 ADD MSTORE PUSH2 0x9E8 SWAP2 PUSH2 0x2589 JUMP JUMPDEST SUB SWAP3 GAS CALL DUP1 ISZERO PUSH2 0x1AF JUMPI PUSH2 0xA30 JUMPI JUMPDEST POP POP PUSH32 0xF52A0795D3C1A788D33423AA105BE7A0AAA157621A984632251E0C2ED142D040 SWAP2 MLOAD SWAP1 PUSH2 0x463 PUSH1 0x40 MLOAD SWAP3 DUP4 SWAP3 TIMESTAMP SWAP2 CALLER SWAP1 DUP6 PUSH2 0x285F JUMP JUMPDEST DUP2 PUSH2 0xA3A SWAP2 PUSH2 0x1E3B JUMP JUMPDEST PUSH2 0x4C4 JUMPI DUP3 PUSH0 PUSH2 0x9F7 JUMP JUMPDEST DUP9 DUP1 REVERT JUMPDEST PUSH1 0x40 MLOAD RETURNDATASIZE DUP8 DUP3 RETURNDATACOPY RETURNDATASIZE SWAP1 REVERT JUMPDEST POP CALLVALUE PUSH2 0x1BA JUMPI PUSH1 0x20 CALLDATASIZE PUSH1 0x3 NOT ADD SLT PUSH2 0x1BA JUMPI PUSH1 0x4 CALLDATALOAD PUSH1 0x1 PUSH1 0x1 PUSH1 0x40 SHL SUB DUP2 GT PUSH2 0x482 JUMPI PUSH2 0xA85 SWAP1 CALLDATASIZE SWAP1 PUSH1 0x4 ADD PUSH2 0x1E77 JUMP JUMPDEST PUSH2 0xA8D PUSH2 0x2BE2 JUMP JUMPDEST POP PUSH2 0xA96 PUSH2 0x2BC2 JUMP JUMPDEST POP PUSH2 0xA9F PUSH2 0x2C3A JUMP JUMPDEST POP PUSH1 0x60 PUSH1 0xE0 PUSH1 0x40 MLOAD PUSH2 0xAB0 DUP2 PUSH2 0x1DE8 JUMP JUMPDEST DUP3 DUP2 MSTORE DUP3 PUSH1 0x20 DUP3 ADD MSTORE DUP3 PUSH1 0x40 DUP3 ADD MSTORE DUP3 DUP1 DUP3 ADD MSTORE DUP3 PUSH1 0x80 DUP3 ADD MSTORE DUP3 PUSH1 0xA0 DUP3 ADD MSTORE DUP3 PUSH1 0xC0 DUP3 ADD MSTORE ADD MSTORE PUSH1 0x1 DUP1 PUSH1 0xA0 SHL SUB PUSH32 0x0 AND PUSH1 0x40 MLOAD SWAP1 PUSH4 0x7E8F8DA7 PUSH1 0xE0 SHL DUP3 MSTORE PUSH1 0x20 PUSH1 0x4 DUP4 ADD MSTORE DUP4 DUP3 DUP1 PUSH2 0xB26 PUSH1 0x24 DUP3 ADD DUP8 PUSH2 0x1F79 JUMP JUMPDEST SUB DUP2 DUP5 GAS STATICCALL SWAP1 DUP2 ISZERO PUSH2 0x4B9 JUMPI DUP5 DUP1 SWAP2 DUP2 SWAP5 DUP3 SWAP5 PUSH2 0xC22 JUMPI JUMPDEST POP SWAP5 PUSH2 0xB68 SWAP5 SWAP6 PUSH1 0x40 MLOAD DUP1 DUP1 SWAP8 DUP2 SWAP5 PUSH4 0xBE2E2325 PUSH1 0xE0 SHL DUP4 MSTORE PUSH1 0x20 PUSH1 0x4 DUP5 ADD MSTORE PUSH1 0x24 DUP4 ADD SWAP1 PUSH2 0x1F79 JUMP JUMPDEST SUB SWAP2 GAS STATICCALL SWAP3 DUP4 ISZERO PUSH2 0xA49 JUMPI DUP6 PUSH2 0xB9D SWAP7 SWAP5 PUSH2 0xBF4 JUMPI JUMPDEST POP POP PUSH2 0xBE6 SWAP1 PUSH2 0x188 SWAP4 SWAP5 PUSH1 0x40 MLOAD SWAP7 DUP8 SWAP7 PUSH1 0x80 DUP9 MSTORE PUSH1 0x80 DUP9 ADD SWAP1 PUSH2 0x24CA JUMP JUMPDEST DUP7 DUP2 SUB PUSH1 0x20 DUP9 ADD MSTORE PUSH1 0x40 PUSH1 0xFF DUP2 PUSH2 0xBD2 PUSH2 0xBC0 DUP8 MLOAD PUSH1 0x60 DUP8 MSTORE PUSH1 0x60 DUP8 ADD SWAP1 PUSH2 0x1F79 JUMP JUMPDEST PUSH1 0x20 DUP9 ADD MLOAD DUP7 DUP3 SUB PUSH1 0x20 DUP9 ADD MSTORE PUSH2 0x1F79 JUMP JUMPDEST SWAP6 ADD MLOAD AND SWAP2 ADD MSTORE DUP6 DUP3 SUB PUSH1 0x40 DUP8 ADD MSTORE PUSH2 0x2589 JUMP JUMPDEST SWAP1 DUP4 DUP3 SUB PUSH1 0x60 DUP6 ADD MSTORE PUSH2 0x25B3 JUMP JUMPDEST PUSH2 0x188 SWAP5 POP PUSH2 0xBE6 SWAP3 SWAP2 PUSH2 0xC19 SWAP2 RETURNDATASIZE DUP1 SWAP2 DUP4 RETURNDATACOPY PUSH2 0xC11 DUP2 DUP4 PUSH2 0x1E3B JUMP JUMPDEST DUP2 ADD SWAP1 PUSH2 0x2D25 JUMP JUMPDEST SWAP4 DUP2 SWAP3 POP PUSH2 0xB7E JUMP JUMPDEST SWAP5 POP SWAP3 POP POP POP RETURNDATASIZE DUP1 DUP6 DUP5 RETURNDATACOPY PUSH2 0xC37 DUP2 DUP5 PUSH2 0x1E3B JUMP JUMPDEST DUP3 ADD SWAP2 PUSH1 0x60 DUP2 DUP5 SUB SLT PUSH2 0x486 JUMPI DUP5 DUP2 MLOAD PUSH1 0x1 PUSH1 0x1 PUSH1 0x40 SHL SUB DUP2 GT PUSH2 0x482 JUMPI DUP3 ADD SWAP5 PUSH1 0x60 DUP7 DUP7 SUB SLT PUSH2 0x482 JUMPI PUSH1 0x40 MLOAD SWAP6 PUSH2 0xC6F DUP8 PUSH2 0x1DCD JUMP JUMPDEST DUP1 MLOAD PUSH1 0x1 PUSH1 0x1 PUSH1 0x40 SHL SUB DUP2 GT PUSH2 0x7CB JUMPI DUP7 PUSH2 0xC8B SWAP2 DUP4 ADD PUSH2 0x27F4 JUMP JUMPDEST DUP8 MSTORE PUSH1 0x20 DUP2 ADD MLOAD PUSH1 0x1 PUSH1 0x1 PUSH1 0x40 SHL SUB DUP2 GT PUSH2 0x7CB JUMPI DUP2 PUSH2 0xCB2 DUP9 PUSH1 0x40 SWAP4 PUSH2 0xCBD SWAP6 ADD PUSH2 0x27F4 JUMP JUMPDEST PUSH1 0x20 DUP11 ADD MSTORE ADD PUSH2 0x2A3E JUMP JUMPDEST PUSH1 0x40 DUP8 ADD MSTORE PUSH1 0x20 DUP4 ADD MLOAD PUSH1 0x1 PUSH1 0x1 PUSH1 0x40 SHL SUB DUP2 GT PUSH2 0x4C4 JUMPI DUP6 PUSH2 0xCE1 SWAP2 DUP6 ADD PUSH2 0x2C53 JUMP JUMPDEST SWAP3 PUSH1 0x40 DUP2 ADD MLOAD SWAP1 PUSH1 0x1 PUSH1 0x1 PUSH1 0x40 SHL SUB DUP3 GT PUSH2 0x7CB JUMPI ADD SWAP6 PUSH2 0x100 DUP8 DUP8 SUB SLT PUSH2 0x4C4 JUMPI PUSH1 0x40 MLOAD SWAP7 PUSH2 0xD10 DUP9 PUSH2 0x1DE8 JUMP JUMPDEST DUP1 MLOAD PUSH1 0x1 PUSH1 0x1 PUSH1 0x40 SHL SUB DUP2 GT PUSH2 0x486 JUMPI DUP8 PUSH2 0xD2C SWAP2 DUP4 ADD PUSH2 0x27F4 JUMP JUMPDEST DUP9 MSTORE PUSH1 0x20 DUP2 ADD MLOAD PUSH1 0x1 PUSH1 0x1 PUSH1 0x40 SHL SUB DUP2 GT PUSH2 0x486 JUMPI DUP8 PUSH2 0xD4D SWAP2 DUP4 ADD PUSH2 0x27F4 JUMP JUMPDEST PUSH1 0x20 DUP10 ADD MSTORE PUSH1 0x40 DUP2 ADD MLOAD PUSH1 0x1 PUSH1 0x1 PUSH1 0x40 SHL SUB DUP2 GT PUSH2 0x486 JUMPI DUP8 PUSH2 0xD71 SWAP2 DUP4 ADD PUSH2 0x27F4 JUMP JUMPDEST PUSH1 0x40 DUP10 ADD MSTORE PUSH1 0x60 DUP2 ADD MLOAD PUSH1 0x1 PUSH1 0x1 PUSH1 0x40 SHL SUB DUP2 GT PUSH2 0x486 JUMPI DUP8 PUSH2 0xD95 SWAP2 DUP4 ADD PUSH2 0x27F4 JUMP JUMPDEST PUSH1 0x60 DUP10 ADD MSTORE PUSH1 0x80 DUP2 ADD MLOAD PUSH1 0x1 PUSH1 0x1 PUSH1 0x40 SHL SUB DUP2 GT PUSH2 0x486 JUMPI DUP8 PUSH2 0xDB9 SWAP2 DUP4 ADD PUSH2 0x27F4 JUMP JUMPDEST PUSH1 0x80 DUP10 ADD MSTORE PUSH1 0xA0 DUP2 ADD MLOAD PUSH1 0x1 PUSH1 0x1 PUSH1 0x40 SHL SUB DUP2 GT PUSH2 0x486 JUMPI DUP8 PUSH2 0xDDD SWAP2 DUP4 ADD PUSH2 0x27F4 JUMP JUMPDEST PUSH1 0xA0 DUP10 ADD MSTORE PUSH1 0xC0 DUP2 ADD MLOAD PUSH1 0x1 PUSH1 0x1 PUSH1 0x40 SHL SUB DUP2 GT PUSH2 0x486 JUMPI DUP8 PUSH2 0xE01 SWAP2 DUP4 ADD PUSH2 0x27F4 JUMP JUMPDEST PUSH1 0xC0 DUP10 ADD MSTORE PUSH1 0xE0 DUP2 ADD MLOAD SWAP7 PUSH1 0x1 PUSH1 0x1 PUSH1 0x40 SHL SUB DUP9 GT PUSH2 0x486 JUMPI PUSH2 0xB68 SWAP8 PUSH2 0xE28 SWAP3 ADD PUSH2 0x27F4 JUMP JUMPDEST PUSH1 0xE0 DUP9 ADD MSTORE SWAP3 SWAP6 SWAP4 SWAP1 SWAP6 SWAP5 PUSH2 0xB3E JUMP JUMPDEST POP CALLVALUE PUSH2 0x1BA JUMPI PUSH1 0x20 CALLDATASIZE PUSH1 0x3 NOT ADD SLT PUSH2 0x1BA JUMPI PUSH1 0x4 CALLDATALOAD PUSH1 0x1 PUSH1 0x1 PUSH1 0x40 SHL SUB DUP2 GT PUSH2 0x482 JUMPI PUSH2 0xE69 SWAP1 CALLDATASIZE SWAP1 PUSH1 0x4 ADD PUSH2 0x1E77 JUMP JUMPDEST PUSH2 0xE71 PUSH2 0x2BE2 JUMP JUMPDEST POP PUSH1 0x60 DUP1 PUSH1 0x40 MLOAD PUSH2 0xE81 DUP2 PUSH2 0x1D9E JUMP JUMPDEST DUP2 DUP2 MSTORE DUP2 PUSH1 0x20 DUP3 ADD MSTORE DUP5 PUSH1 0x40 DUP3 ADD MSTORE ADD MSTORE PUSH1 0x60 PUSH1 0x40 DUP1 MLOAD PUSH2 0xEA1 DUP2 PUSH2 0x1DCD JUMP JUMPDEST DUP3 DUP2 MSTORE DUP3 PUSH1 0x20 DUP3 ADD MSTORE ADD MSTORE PUSH2 0xEB4 PUSH2 0x2C3A JUMP JUMPDEST POP PUSH1 0x40 MLOAD PUSH4 0x70C056B PUSH1 0xE4 SHL DUP2 MSTORE PUSH1 0x20 PUSH1 0x4 DUP3 ADD MSTORE SWAP1 PUSH32 0x0 PUSH1 0x1 PUSH1 0x1 PUSH1 0xA0 SHL SUB AND DUP4 DUP4 DUP1 PUSH2 0xF04 PUSH1 0x24 DUP3 ADD DUP7 PUSH2 0x1F79 JUMP JUMPDEST SUB DUP2 DUP5 GAS STATICCALL SWAP1 DUP2 ISZERO PUSH2 0x4B9 JUMPI DUP5 DUP1 SWAP4 DUP2 SWAP3 DUP3 SWAP5 PUSH2 0x1013 JUMPI JUMPDEST PUSH2 0xF45 SWAP6 SWAP7 POP PUSH1 0x40 MLOAD DUP1 DUP1 SWAP8 DUP2 SWAP5 PUSH4 0xBE2E2325 PUSH1 0xE0 SHL DUP4 MSTORE PUSH1 0x20 PUSH1 0x4 DUP5 ADD MSTORE PUSH1 0x24 DUP4 ADD SWAP1 PUSH2 0x1F79 JUMP JUMPDEST SUB SWAP2 GAS STATICCALL SWAP3 DUP4 ISZERO PUSH2 0xA49 JUMPI DUP6 PUSH2 0xF7D SWAP7 SWAP5 PUSH2 0xFE9 JUMPI JUMPDEST POP POP PUSH2 0xFDB SWAP1 PUSH2 0xFCD PUSH2 0x188 SWAP5 SWAP6 PUSH1 0x40 MLOAD SWAP8 DUP9 SWAP8 PUSH1 0x80 DUP10 MSTORE PUSH1 0x80 DUP10 ADD SWAP1 PUSH2 0x24CA JUMP JUMPDEST DUP8 DUP2 SUB PUSH1 0x20 DUP10 ADD MSTORE PUSH1 0x60 PUSH2 0xFAF PUSH2 0xF9D DUP5 MLOAD PUSH1 0x80 DUP6 MSTORE PUSH1 0x80 DUP6 ADD SWAP1 PUSH2 0x1F79 JUMP JUMPDEST PUSH1 0x20 DUP6 ADD MLOAD DUP5 DUP3 SUB PUSH1 0x20 DUP7 ADD MSTORE PUSH2 0x1F79 JUMP JUMPDEST SWAP3 PUSH1 0xFF PUSH1 0x40 DUP3 ADD MLOAD AND PUSH1 0x40 DUP5 ADD MSTORE ADD MLOAD SWAP1 PUSH1 0x60 DUP2 DUP5 SUB SWAP2 ADD MSTORE PUSH2 0x1F79 JUMP JUMPDEST SWAP1 DUP6 DUP3 SUB PUSH1 0x40 DUP8 ADD MSTORE PUSH2 0x255C JUMP JUMPDEST SWAP1 DUP4 DUP3 SUB PUSH1 0x60 DUP6 ADD MSTORE PUSH2 0x2589 JUMP JUMPDEST PUSH2 0x188 SWAP5 POP PUSH2 0x1009 PUSH2 0xFDB SWAP4 SWAP3 PUSH2 0xFCD SWAP3 RETURNDATASIZE DUP1 SWAP2 DUP4 RETURNDATACOPY PUSH2 0xC11 DUP2 DUP4 PUSH2 0x1E3B JUMP JUMPDEST SWAP5 POP DUP2 SWAP3 POP PUSH2 0xF5B JUMP JUMPDEST SWAP4 POP SWAP4 POP POP POP RETURNDATASIZE DUP1 DUP6 DUP6 RETURNDATACOPY PUSH2 0x1028 DUP2 DUP6 PUSH2 0x1E3B JUMP JUMPDEST DUP4 ADD SWAP2 PUSH1 0x60 DUP5 DUP5 SUB SLT PUSH2 0x486 JUMPI DUP5 DUP5 MLOAD PUSH1 0x1 PUSH1 0x1 PUSH1 0x40 SHL SUB DUP2 GT PUSH2 0x482 JUMPI DUP6 ADD SWAP2 PUSH1 0x80 DUP4 DUP7 SUB SLT PUSH2 0x482 JUMPI PUSH1 0x40 MLOAD SWAP3 PUSH2 0x1060 DUP5 PUSH2 0x1D9E JUMP JUMPDEST DUP1 MLOAD PUSH1 0x1 PUSH1 0x1 PUSH1 0x40 SHL SUB DUP2 GT PUSH2 0x7CB JUMPI DUP7 PUSH2 0x107C SWAP2 DUP4 ADD PUSH2 0x27F4 JUMP JUMPDEST DUP5 MSTORE PUSH1 0x20 DUP2 ADD MLOAD PUSH1 0x1 PUSH1 0x1 PUSH1 0x40 SHL SUB DUP2 GT PUSH2 0x7CB JUMPI DUP7 PUSH2 0x109D SWAP2 DUP4 ADD PUSH2 0x27F4 JUMP JUMPDEST PUSH1 0x20 DUP6 ADD MSTORE PUSH2 0x10AE PUSH1 0x40 DUP3 ADD PUSH2 0x2A3E JUMP JUMPDEST PUSH1 0x40 DUP6 ADD MSTORE PUSH1 0x60 DUP2 ADD MLOAD SWAP1 PUSH1 0x1 PUSH1 0x1 PUSH1 0x40 SHL SUB DUP3 GT PUSH2 0x7CB JUMPI PUSH2 0x10D3 SWAP2 DUP8 SWAP2 ADD PUSH2 0x27F4 JUMP JUMPDEST PUSH1 0x60 DUP5 ADD MSTORE PUSH1 0x20 DUP7 ADD MLOAD PUSH1 0x1 PUSH1 0x1 PUSH1 0x40 SHL SUB DUP2 GT PUSH2 0x4C4 JUMPI DUP7 ADD SWAP6 PUSH1 0x60 DUP8 DUP8 SUB SLT PUSH2 0x4C4 JUMPI PUSH1 0x40 MLOAD SWAP7 PUSH2 0x1105 DUP9 PUSH2 0x1DCD JUMP JUMPDEST DUP1 MLOAD PUSH1 0x1 PUSH1 0x1 PUSH1 0x40 SHL SUB DUP2 GT PUSH2 0x486 JUMPI DUP8 PUSH2 0x1121 SWAP2 DUP4 ADD PUSH2 0x27F4 JUMP JUMPDEST DUP9 MSTORE PUSH1 0x20 DUP2 ADD MLOAD PUSH1 0x1 PUSH1 0x1 PUSH1 0x40 SHL SUB DUP2 GT PUSH2 0x486 JUMPI DUP8 PUSH2 0x1142 SWAP2 DUP4 ADD PUSH2 0x27F4 JUMP JUMPDEST PUSH1 0x20 DUP10 ADD MSTORE PUSH1 0x40 DUP2 ADD MLOAD SWAP1 PUSH1 0x1 PUSH1 0x1 PUSH1 0x40 SHL SUB DUP3 GT PUSH2 0x486 JUMPI PUSH2 0x1167 SWAP2 DUP9 SWAP2 ADD PUSH2 0x27F4 JUMP JUMPDEST PUSH1 0x40 DUP9 ADD MSTORE PUSH1 0x40 DUP2 ADD MLOAD SWAP6 PUSH1 0x1 PUSH1 0x1 PUSH1 0x40 SHL SUB DUP8 GT PUSH2 0x7CB JUMPI PUSH2 0xF45 SWAP7 PUSH2 0x118E SWAP3 ADD PUSH2 0x2C53 JUMP JUMPDEST SWAP3 SWAP6 SWAP3 SWAP4 DUP7 SWAP6 POP PUSH2 0xF1C JUMP JUMPDEST POP CALLVALUE PUSH2 0x1BA JUMPI DUP1 PUSH1 0x3 NOT CALLDATASIZE ADD SLT PUSH2 0x1BA JUMPI PUSH1 0x40 MLOAD PUSH4 0x1614181F PUSH1 0xE2 SHL DUP2 MSTORE DUP2 DUP2 PUSH1 0x4 DUP2 PUSH32 0x0 PUSH1 0x1 PUSH1 0x1 PUSH1 0xA0 SHL SUB AND GAS STATICCALL SWAP1 DUP2 ISZERO PUSH2 0x1AF JUMPI DUP3 PUSH2 0x188 SWAP4 SWAP3 PUSH2 0x18C JUMPI POP POP PUSH1 0x40 MLOAD SWAP2 DUP3 SWAP2 DUP3 PUSH2 0x243F JUMP JUMPDEST POP CALLVALUE PUSH2 0x1BA JUMPI PUSH1 0x20 CALLDATASIZE PUSH1 0x3 NOT ADD SLT PUSH2 0x1BA JUMPI PUSH1 0x4 CALLDATALOAD DUP2 PUSH1 0x1 PUSH1 0x1 PUSH1 0x40 SHL SUB DUP3 GT PUSH2 0x1BA JUMPI PUSH2 0x123D PUSH2 0x125F SWAP3 CALLDATASIZE SWAP1 PUSH1 0x4 ADD PUSH2 0x1E77 JUMP JUMPDEST PUSH1 0x40 MLOAD DUP1 SWAP4 DUP2 SWAP3 PUSH4 0x81FC60A5 PUSH1 0xE0 SHL DUP4 MSTORE PUSH1 0x20 PUSH1 0x4 DUP5 ADD MSTORE PUSH1 0x24 DUP4 ADD SWAP1 PUSH2 0x1F79 JUMP JUMPDEST SUB DUP2 PUSH32 0x0 PUSH1 0x1 PUSH1 0x1 PUSH1 0xA0 SHL SUB AND GAS STATICCALL SWAP1 DUP2 ISZERO PUSH2 0x1AF JUMPI DUP3 PUSH2 0x188 SWAP4 SWAP3 PUSH2 0x18C JUMPI POP POP PUSH1 0x40 MLOAD SWAP2 DUP3 SWAP2 DUP3 PUSH2 0x243F JUMP JUMPDEST POP CALLVALUE PUSH2 0x1BA JUMPI PUSH2 0x12BB CALLDATASIZE PUSH2 0x21E4 JUMP JUMPDEST PUSH1 0x40 MLOAD PUSH4 0x95A8C58D PUSH1 0xE0 SHL DUP2 MSTORE CALLER PUSH1 0x4 DUP3 ADD MSTORE PUSH1 0x2 PUSH1 0x24 DUP3 ADD MSTORE SWAP2 SWAP3 SWAP2 PUSH1 0x20 DUP2 PUSH1 0x44 DUP2 PUSH1 0x1 PUSH1 0x1 PUSH1 0xA0 SHL SUB PUSH32 0x0 AND GAS STATICCALL DUP1 ISZERO PUSH2 0xA49 JUMPI PUSH2 0x1320 SWAP2 DUP7 SWAP2 PUSH2 0x7CF JUMPI POP PUSH2 0x26E1 JUMP JUMPDEST PUSH2 0x1328 PUSH2 0x2E3F JUMP JUMPDEST DUP2 MLOAD PUSH1 0x20 DUP4 ADD MLOAD PUSH1 0x40 DUP5 ADD MLOAD PUSH1 0x60 DUP6 ADD DUP1 MLOAD PUSH1 0x80 DUP8 ADD MLOAD SWAP2 SWAP8 DUP10 SWAP6 SWAP2 SWAP5 PUSH1 0x1 PUSH1 0x1 PUSH1 0xA0 SHL SUB SWAP4 DUP5 AND SWAP5 SWAP4 PUSH32 0x0 AND SWAP3 SWAP1 SWAP2 SWAP1 DUP4 EXTCODESIZE ISZERO PUSH2 0x1403 JUMPI PUSH2 0x13A4 DUP9 SWAP7 SWAP3 DUP8 SWAP4 PUSH1 0x40 MLOAD SWAP10 DUP11 SWAP9 DUP10 SWAP8 DUP9 SWAP7 PUSH4 0x173C921 PUSH1 0xE7 SHL DUP9 MSTORE PUSH1 0x4 DUP9 ADD PUSH2 0x28EE JUMP JUMPDEST SUB SWAP3 GAS CALL DUP1 ISZERO PUSH2 0x1AF JUMPI PUSH2 0x13EE JUMPI JUMPDEST POP POP PUSH2 0x463 PUSH32 0xC8C9CCC57AD2F7823680B448DD87B511B225EB0AC2E99E0AA88E7A26EBC6CBE5 SWAP4 MLOAD SWAP3 MLOAD SWAP3 PUSH1 0x40 MLOAD SWAP4 DUP5 SWAP4 TIMESTAMP SWAP3 CALLER SWAP1 DUP7 PUSH2 0x295A JUMP JUMPDEST DUP2 PUSH2 0x13F8 SWAP2 PUSH2 0x1E3B JUMP JUMPDEST PUSH2 0x7CB JUMPI DUP4 PUSH0 PUSH2 0x13B3 JUMP JUMPDEST DUP8 DUP1 REVERT JUMPDEST POP CALLVALUE PUSH2 0x1BA JUMPI DUP1 PUSH2 0x1417 CALLDATASIZE PUSH2 0x1EBD JUMP JUMPDEST PUSH1 0x40 MLOAD PUSH4 0x95A8C58D PUSH1 0xE0 SHL DUP2 MSTORE CALLER PUSH1 0x4 DUP3 ADD MSTORE PUSH1 0x2 PUSH1 0x24 DUP3 ADD MSTORE SWAP2 SWAP4 SWAP3 SWAP1 SWAP2 PUSH1 0x20 DUP2 PUSH1 0x44 DUP2 PUSH1 0x1 PUSH1 0x1 PUSH1 0xA0 SHL SUB PUSH32 0x0 AND GAS STATICCALL DUP1 ISZERO PUSH2 0x4B9 JUMPI PUSH2 0x147E SWAP2 DUP6 SWAP2 PUSH2 0x7CF JUMPI POP PUSH2 0x26E1 JUMP JUMPDEST PUSH2 0x1486 PUSH2 0x2E3F JUMP JUMPDEST PUSH32 0x0 PUSH1 0x1 PUSH1 0x1 PUSH1 0xA0 SHL SUB AND SWAP2 DUP3 EXTCODESIZE ISZERO PUSH2 0x7CB JUMPI PUSH2 0x14DB SWAP3 DUP5 SWAP3 DUP4 PUSH1 0x40 MLOAD DUP1 SWAP7 DUP2 SWAP6 DUP3 SWAP5 PUSH4 0x9C6B1F1 PUSH1 0xE4 SHL DUP5 MSTORE PUSH1 0x4 DUP5 ADD PUSH2 0x2738 JUMP JUMPDEST SUB SWAP3 GAS CALL DUP1 ISZERO PUSH2 0x1AF JUMPI PUSH2 0x151D JUMPI JUMPDEST POP PUSH1 0x40 MLOAD PUSH32 0xCFFABB0BF09F750F2707C2B39B75068B8474ACEAD216E4EA21A6DBF94255ECF8 SWAP1 DUP1 PUSH2 0x463 TIMESTAMP DUP7 CALLER DUP5 PUSH2 0x275D JUMP JUMPDEST DUP2 PUSH2 0x1527 SWAP2 PUSH2 0x1E3B JUMP JUMPDEST PUSH2 0x482 JUMPI DUP2 PUSH0 PUSH2 0x14EA JUMP JUMPDEST POP CALLVALUE PUSH2 0x1BA JUMPI DUP1 PUSH2 0x1542 CALLDATASIZE PUSH2 0x2307 JUMP JUMPDEST PUSH1 0x40 MLOAD PUSH4 0x95A8C58D PUSH1 0xE0 SHL DUP2 MSTORE CALLER PUSH1 0x4 DUP3 ADD MSTORE PUSH1 0x2 PUSH1 0x24 DUP3 ADD MSTORE SWAP4 SWAP6 SWAP2 SWAP5 SWAP1 SWAP4 SWAP2 SWAP3 SWAP1 SWAP2 PUSH1 0x20 DUP2 PUSH1 0x44 DUP2 PUSH1 0x1 PUSH1 0x1 PUSH1 0xA0 SHL SUB PUSH32 0x0 AND GAS STATICCALL DUP1 ISZERO PUSH2 0x4B9 JUMPI PUSH2 0x15AE SWAP2 DUP6 SWAP2 PUSH2 0x7CF JUMPI POP PUSH2 0x26E1 JUMP JUMPDEST PUSH2 0x15B6 PUSH2 0x2E3F JUMP JUMPDEST PUSH32 0x0 PUSH1 0x1 PUSH1 0x1 PUSH1 0xA0 SHL SUB AND SWAP1 DUP2 EXTCODESIZE ISZERO PUSH2 0x7CB JUMPI DUP4 SWAP2 DUP7 SWAP2 DUP4 DUP10 PUSH2 0x770 PUSH1 0x40 MLOAD SWAP8 DUP9 SWAP7 DUP8 SWAP6 DUP7 SWAP5 PUSH3 0x1ACF25 PUSH1 0xE8 SHL DUP7 MSTORE CALLER SWAP4 PUSH1 0x4 DUP8 ADD PUSH2 0x299B JUMP JUMPDEST POP CALLVALUE PUSH2 0x1BA JUMPI PUSH2 0x161E CALLDATASIZE PUSH2 0x21E4 JUMP JUMPDEST PUSH1 0x40 MLOAD PUSH4 0x95A8C58D PUSH1 0xE0 SHL DUP2 MSTORE CALLER PUSH1 0x4 DUP3 ADD MSTORE PUSH1 0x2 PUSH1 0x24 DUP3 ADD MSTORE SWAP2 SWAP3 SWAP2 PUSH1 0x20 DUP2 PUSH1 0x44 DUP2 PUSH1 0x1 PUSH1 0x1 PUSH1 0xA0 SHL SUB PUSH32 0x0 AND GAS STATICCALL DUP1 ISZERO PUSH2 0xA49 JUMPI PUSH2 0x1683 SWAP2 DUP7 SWAP2 PUSH2 0x7CF JUMPI POP PUSH2 0x26E1 JUMP JUMPDEST PUSH2 0x168B PUSH2 0x2E3F JUMP JUMPDEST DUP2 MLOAD PUSH1 0x20 DUP4 ADD MLOAD PUSH1 0x40 DUP5 ADD MLOAD PUSH1 0x60 DUP6 ADD DUP1 MLOAD PUSH1 0x80 DUP8 ADD MLOAD SWAP2 SWAP8 DUP10 SWAP6 SWAP2 SWAP5 PUSH1 0x1 PUSH1 0x1 PUSH1 0xA0 SHL SUB SWAP4 DUP5 AND SWAP5 SWAP4 PUSH32 0x0 AND SWAP3 SWAP1 SWAP2 SWAP1 DUP4 EXTCODESIZE ISZERO PUSH2 0x1403 JUMPI PUSH2 0x13A4 DUP9 SWAP7 SWAP3 DUP8 SWAP4 PUSH1 0x40 MLOAD SWAP10 DUP11 SWAP9 DUP10 SWAP8 DUP9 SWAP7 PUSH4 0x15C9FBF9 PUSH1 0xE1 SHL DUP9 MSTORE PUSH1 0x4 DUP9 ADD PUSH2 0x28EE JUMP JUMPDEST POP CALLVALUE PUSH2 0x1BA JUMPI DUP1 PUSH2 0x1717 CALLDATASIZE PUSH2 0x1F28 JUMP JUMPDEST PUSH1 0x40 MLOAD PUSH4 0x95A8C58D PUSH1 0xE0 SHL DUP2 MSTORE CALLER PUSH1 0x4 DUP3 ADD MSTORE PUSH0 PUSH1 0x24 DUP3 ADD MSTORE SWAP2 SWAP4 SWAP3 SWAP1 SWAP2 PUSH1 0x20 DUP2 PUSH1 0x44 DUP2 PUSH1 0x1 PUSH1 0x1 PUSH1 0xA0 SHL SUB PUSH32 0x0 AND GAS STATICCALL DUP1 ISZERO PUSH2 0x4B9 JUMPI PUSH2 0x177D SWAP2 DUP6 SWAP2 PUSH2 0x48A JUMPI POP PUSH2 0x2894 JUMP JUMPDEST PUSH2 0x1785 PUSH2 0x2E3F JUMP JUMPDEST PUSH32 0x0 PUSH1 0x1 PUSH1 0x1 PUSH1 0xA0 SHL SUB AND SWAP2 DUP3 EXTCODESIZE ISZERO PUSH2 0x7CB JUMPI PUSH2 0x17DA SWAP3 DUP5 SWAP3 DUP4 PUSH1 0x40 MLOAD DUP1 SWAP7 DUP2 SWAP6 DUP3 SWAP5 PUSH4 0x8B11D37B PUSH1 0xE0 SHL DUP5 MSTORE PUSH1 0x4 DUP5 ADD PUSH2 0x27DD JUMP JUMPDEST SUB SWAP3 GAS CALL DUP1 ISZERO PUSH2 0x1AF JUMPI PUSH2 0x181C JUMPI JUMPDEST POP PUSH1 0x40 MLOAD PUSH32 0x2BDB00435D9C333B1D40D2BFD328203807F376108C2120951BBF226C1CEAF571 SWAP1 DUP1 PUSH2 0x463 TIMESTAMP DUP7 CALLER DUP5 PUSH2 0x275D JUMP JUMPDEST DUP2 PUSH2 0x1826 SWAP2 PUSH2 0x1E3B JUMP JUMPDEST PUSH2 0x482 JUMPI DUP2 PUSH0 PUSH2 0x17E9 JUMP JUMPDEST POP CALLVALUE PUSH2 0x1BA JUMPI PUSH1 0x80 CALLDATASIZE PUSH1 0x3 NOT ADD SLT PUSH2 0x1BA JUMPI PUSH1 0x4 CALLDATALOAD PUSH1 0x1 PUSH1 0x1 PUSH1 0x40 SHL SUB DUP2 GT PUSH2 0x482 JUMPI PUSH2 0x1862 SWAP1 CALLDATASIZE SWAP1 PUSH1 0x4 ADD PUSH2 0x1FB1 JUMP JUMPDEST PUSH2 0x186A PUSH2 0x2047 JUMP JUMPDEST DUP3 PUSH1 0x44 CALLDATALOAD PUSH1 0x1 PUSH1 0x1 PUSH1 0x40 SHL SUB DUP2 GT PUSH2 0x482 JUMPI PUSH2 0x188A SWAP1 CALLDATASIZE SWAP1 PUSH1 0x4 ADD PUSH2 0x2057 JUMP JUMPDEST SWAP3 PUSH1 0x64 CALLDATALOAD PUSH1 0x1 PUSH1 0x1 PUSH1 0x40 SHL SUB DUP2 GT PUSH2 0x4C4 JUMPI PUSH2 0x18AA SWAP1 CALLDATASIZE SWAP1 PUSH1 0x4 ADD PUSH2 0x20B1 JUMP JUMPDEST PUSH1 0x40 MLOAD PUSH4 0x95A8C58D PUSH1 0xE0 SHL DUP2 MSTORE CALLER PUSH1 0x4 DUP3 ADD MSTORE PUSH1 0x1 PUSH1 0x24 DUP3 ADD MSTORE PUSH1 0x20 DUP2 PUSH1 0x44 DUP2 PUSH1 0x1 PUSH1 0x1 PUSH1 0xA0 SHL SUB PUSH32 0x0 AND GAS STATICCALL DUP1 ISZERO PUSH2 0x4B9 JUMPI PUSH2 0x190C SWAP2 DUP6 SWAP2 PUSH2 0x62D JUMPI POP PUSH2 0x2787 JUMP JUMPDEST PUSH2 0x1914 PUSH2 0x2E3F JUMP JUMPDEST DUP2 MLOAD PUSH1 0x20 DUP4 ADD MLOAD PUSH1 0x40 DUP5 ADD DUP1 MLOAD PUSH1 0x60 SWAP1 SWAP6 ADD MLOAD SWAP1 SWAP8 PUSH1 0x1 PUSH1 0x1 PUSH1 0xA0 SHL SUB SWAP2 DUP3 AND SWAP6 SWAP4 PUSH32 0x0 SWAP1 SWAP3 AND SWAP3 SWAP2 DUP4 EXTCODESIZE ISZERO PUSH2 0x1403 JUMPI DUP8 SWAP6 DUP7 SWAP3 PUSH1 0x40 MLOAD SWAP9 DUP10 SWAP8 DUP9 SWAP7 DUP8 SWAP6 PUSH4 0x682053D9 PUSH1 0xE0 SHL DUP8 MSTORE PUSH1 0x4 DUP8 ADD PUSH1 0xE0 SWAP1 MSTORE PUSH1 0xE4 DUP8 ADD PUSH2 0x1990 SWAP2 PUSH2 0x1F79 JUMP JUMPDEST DUP7 DUP2 SUB PUSH1 0x3 NOT ADD PUSH1 0x24 DUP9 ADD MSTORE PUSH2 0x19A5 SWAP2 PUSH2 0x1F79 JUMP JUMPDEST DUP6 DUP2 SUB PUSH1 0x3 NOT ADD PUSH1 0x44 DUP8 ADD MSTORE PUSH2 0x19BA SWAP2 PUSH2 0x1F79 JUMP JUMPDEST SWAP1 PUSH1 0x64 DUP6 ADD MSTORE PUSH1 0xFF DUP13 AND PUSH1 0x84 DUP6 ADD MSTORE PUSH1 0x3 NOT DUP5 DUP3 SUB ADD PUSH1 0xA4 DUP6 ADD MSTORE PUSH2 0x19DE SWAP2 PUSH2 0x2589 JUMP JUMPDEST DUP3 DUP2 SUB PUSH1 0x3 NOT ADD PUSH1 0xC4 DUP5 ADD MSTORE PUSH2 0x9E8 SWAP2 PUSH2 0x25B3 JUMP JUMPDEST POP CALLVALUE PUSH2 0x1BA JUMPI PUSH1 0x20 CALLDATASIZE PUSH1 0x3 NOT ADD SLT PUSH2 0x1BA JUMPI PUSH1 0x4 CALLDATALOAD DUP2 PUSH1 0x1 PUSH1 0x1 PUSH1 0x40 SHL SUB DUP3 GT PUSH2 0x1BA JUMPI PUSH2 0x1A28 PUSH2 0x1A4A SWAP3 CALLDATASIZE SWAP1 PUSH1 0x4 ADD PUSH2 0x1E77 JUMP JUMPDEST PUSH1 0x40 MLOAD DUP1 SWAP4 DUP2 SWAP3 PUSH4 0x6D1AA7D5 PUSH1 0xE0 SHL DUP4 MSTORE PUSH1 0x20 PUSH1 0x4 DUP5 ADD MSTORE PUSH1 0x24 DUP4 ADD SWAP1 PUSH2 0x1F79 JUMP JUMPDEST SUB DUP2 PUSH32 0x0 PUSH1 0x1 PUSH1 0x1 PUSH1 0xA0 SHL SUB AND GAS STATICCALL SWAP1 DUP2 ISZERO PUSH2 0x1AF JUMPI DUP3 PUSH2 0x188 SWAP4 SWAP3 PUSH2 0x1AA0 JUMPI JUMPDEST POP POP PUSH1 0x40 MLOAD SWAP2 DUP3 SWAP2 PUSH1 0x20 DUP4 MSTORE PUSH1 0x20 DUP4 ADD SWAP1 PUSH2 0x1F79 JUMP JUMPDEST PUSH2 0x1ABC SWAP3 POP RETURNDATASIZE DUP1 SWAP2 DUP4 RETURNDATACOPY PUSH2 0x1AB4 DUP2 DUP4 PUSH2 0x1E3B JUMP JUMPDEST DUP2 ADD SWAP1 PUSH2 0x283A JUMP JUMPDEST PUSH0 DUP1 PUSH2 0x1A8A JUMP JUMPDEST POP CALLVALUE PUSH2 0x1BA JUMPI PUSH1 0x20 CALLDATASIZE PUSH1 0x3 NOT ADD SLT PUSH2 0x1BA JUMPI PUSH1 0x4 CALLDATALOAD DUP2 PUSH1 0x1 PUSH1 0x1 PUSH1 0x40 SHL SUB DUP3 GT PUSH2 0x1BA JUMPI PUSH2 0x1A28 PUSH2 0x1AF8 SWAP3 CALLDATASIZE SWAP1 PUSH1 0x4 ADD PUSH2 0x1E77 JUMP JUMPDEST SUB DUP2 PUSH32 0x0 PUSH1 0x1 PUSH1 0x1 PUSH1 0xA0 SHL SUB AND GAS STATICCALL SWAP1 DUP2 ISZERO PUSH2 0x1AF JUMPI DUP3 PUSH2 0x188 SWAP4 SWAP3 PUSH2 0x1AA0 JUMPI POP POP PUSH1 0x40 MLOAD SWAP2 DUP3 SWAP2 PUSH1 0x20 DUP4 MSTORE PUSH1 0x20 DUP4 ADD SWAP1 PUSH2 0x1F79 JUMP JUMPDEST POP CALLVALUE PUSH2 0x1BA JUMPI DUP1 PUSH2 0x1B5D CALLDATASIZE PUSH2 0x1F28 JUMP JUMPDEST PUSH1 0x40 MLOAD PUSH4 0x95A8C58D PUSH1 0xE0 SHL DUP2 MSTORE CALLER PUSH1 0x4 DUP3 ADD MSTORE PUSH1 0x1 PUSH1 0x24 DUP3 ADD MSTORE SWAP2 SWAP4 SWAP3 SWAP1 SWAP2 PUSH1 0x20 DUP2 PUSH1 0x44 DUP2 PUSH1 0x1 PUSH1 0x1 PUSH1 0xA0 SHL SUB PUSH32 0x0 AND GAS STATICCALL DUP1 ISZERO PUSH2 0x4B9 JUMPI PUSH2 0x1BC4 SWAP2 DUP6 SWAP2 PUSH2 0x62D JUMPI POP PUSH2 0x2787 JUMP JUMPDEST PUSH2 0x1BCC PUSH2 0x2E3F JUMP JUMPDEST PUSH32 0x0 PUSH1 0x1 PUSH1 0x1 PUSH1 0xA0 SHL SUB AND SWAP2 DUP3 EXTCODESIZE ISZERO PUSH2 0x7CB JUMPI PUSH2 0x17DA SWAP3 DUP5 SWAP3 DUP4 PUSH1 0x40 MLOAD DUP1 SWAP7 DUP2 SWAP6 DUP3 SWAP5 PUSH4 0x49DB9DD1 PUSH1 0xE1 SHL DUP5 MSTORE PUSH1 0x4 DUP5 ADD PUSH2 0x27DD JUMP JUMPDEST POP CALLVALUE PUSH2 0x1D59 JUMPI PUSH2 0x1C30 CALLDATASIZE PUSH2 0x1EBD JUMP JUMPDEST PUSH1 0x40 MLOAD PUSH4 0x95A8C58D PUSH1 0xE0 SHL DUP2 MSTORE CALLER PUSH1 0x4 DUP3 ADD MSTORE PUSH1 0x2 PUSH1 0x24 DUP3 ADD MSTORE SWAP2 SWAP3 SWAP1 SWAP2 PUSH1 0x20 DUP2 PUSH1 0x44 DUP2 PUSH1 0x1 PUSH1 0x1 PUSH1 0xA0 SHL SUB PUSH32 0x0 AND GAS STATICCALL DUP1 ISZERO PUSH2 0x1D4E JUMPI PUSH2 0x1C96 SWAP2 PUSH0 SWAP2 PUSH2 0x7CF JUMPI POP PUSH2 0x26E1 JUMP JUMPDEST PUSH2 0x1C9E PUSH2 0x2E3F JUMP JUMPDEST PUSH32 0x0 PUSH1 0x1 PUSH1 0x1 PUSH1 0xA0 SHL SUB AND SWAP2 DUP3 EXTCODESIZE ISZERO PUSH2 0x1D59 JUMPI PUSH2 0x1CF3 SWAP3 PUSH0 SWAP3 DUP4 PUSH1 0x40 MLOAD DUP1 SWAP7 DUP2 SWAP6 DUP3 SWAP5 PUSH4 0x5839821B PUSH1 0xE1 SHL DUP5 MSTORE PUSH1 0x4 DUP5 ADD PUSH2 0x2738 JUMP JUMPDEST SUB SWAP3 GAS CALL DUP1 ISZERO PUSH2 0x1D4E JUMPI PUSH2 0x1D37 JUMPI JUMPDEST POP PUSH2 0x463 PUSH32 0xCFFABB0BF09F750F2707C2B39B75068B8474ACEAD216E4EA21A6DBF94255ECF8 SWAP2 PUSH1 0x40 MLOAD SWAP2 DUP3 SWAP2 TIMESTAMP SWAP1 CALLER DUP5 PUSH2 0x275D JUMP JUMPDEST PUSH2 0x1D44 SWAP2 SWAP3 POP PUSH0 SWAP1 PUSH2 0x1E3B JUMP JUMPDEST PUSH0 SWAP1 PUSH2 0x463 PUSH2 0x1D02 JUMP JUMPDEST PUSH1 0x40 MLOAD RETURNDATASIZE PUSH0 DUP3 RETURNDATACOPY RETURNDATASIZE SWAP1 REVERT JUMPDEST PUSH0 DUP1 REVERT JUMPDEST CALLVALUE PUSH2 0x1D59 JUMPI PUSH0 CALLDATASIZE PUSH1 0x3 NOT ADD SLT PUSH2 0x1D59 JUMPI PUSH32 0x0 PUSH1 0x1 PUSH1 0x1 PUSH1 0xA0 SHL SUB AND DUP2 MSTORE PUSH1 0x20 SWAP1 RETURN JUMPDEST PUSH1 0x80 DUP2 ADD SWAP1 DUP2 LT PUSH1 0x1 PUSH1 0x1 PUSH1 0x40 SHL SUB DUP3 GT OR PUSH2 0x1DB9 JUMPI PUSH1 0x40 MSTORE JUMP JUMPDEST PUSH4 0x4E487B71 PUSH1 0xE0 SHL PUSH0 MSTORE PUSH1 0x41 PUSH1 0x4 MSTORE PUSH1 0x24 PUSH0 REVERT JUMPDEST PUSH1 0x60 DUP2 ADD SWAP1 DUP2 LT PUSH1 0x1 PUSH1 0x1 PUSH1 0x40 SHL SUB DUP3 GT OR PUSH2 0x1DB9 JUMPI PUSH1 0x40 MSTORE JUMP JUMPDEST PUSH2 0x100 DUP2 ADD SWAP1 DUP2 LT PUSH1 0x1 PUSH1 0x1 PUSH1 0x40 SHL SUB DUP3 GT OR PUSH2 0x1DB9 JUMPI PUSH1 0x40 MSTORE JUMP JUMPDEST PUSH1 0x40 DUP2 ADD SWAP1 DUP2 LT PUSH1 0x1 PUSH1 0x1 PUSH1 0x40 SHL SUB DUP3 GT OR PUSH2 0x1DB9 JUMPI PUSH1 0x40 MSTORE JUMP JUMPDEST PUSH2 0x140 DUP2 ADD SWAP1 DUP2 LT PUSH1 0x1 PUSH1 0x1 PUSH1 0x40 SHL SUB DUP3 GT OR PUSH2 0x1DB9 JUMPI PUSH1 0x40 MSTORE JUMP JUMPDEST SWAP1 PUSH1 0x1F DUP1 NOT SWAP2 ADD AND DUP2 ADD SWAP1 DUP2 LT PUSH1 0x1 PUSH1 0x1 PUSH1 0x40 SHL SUB DUP3 GT OR PUSH2 0x1DB9 JUMPI PUSH1 0x40 MSTORE JUMP JUMPDEST PUSH1 0x1 PUSH1 0x1 PUSH1 0x40 SHL SUB DUP2 GT PUSH2 0x1DB9 JUMPI PUSH1 0x1F ADD PUSH1 0x1F NOT AND PUSH1 0x20 ADD SWAP1 JUMP JUMPDEST DUP2 PUSH1 0x1F DUP3 ADD SLT ISZERO PUSH2 0x1D59 JUMPI DUP1 CALLDATALOAD SWAP1 PUSH2 0x1E8E DUP3 PUSH2 0x1E5C JUMP JUMPDEST SWAP3 PUSH2 0x1E9C PUSH1 0x40 MLOAD SWAP5 DUP6 PUSH2 0x1E3B JUMP JUMPDEST DUP3 DUP5 MSTORE PUSH1 0x20 DUP4 DUP4 ADD ADD GT PUSH2 0x1D59 JUMPI DUP2 PUSH0 SWAP3 PUSH1 0x20 DUP1 SWAP4 ADD DUP4 DUP7 ADD CALLDATACOPY DUP4 ADD ADD MSTORE SWAP1 JUMP JUMPDEST PUSH1 0x60 PUSH1 0x3 NOT DUP3 ADD SLT PUSH2 0x1D59 JUMPI PUSH1 0x4 CALLDATALOAD PUSH1 0x1 PUSH1 0x1 PUSH1 0x40 SHL SUB DUP2 GT PUSH2 0x1D59 JUMPI DUP2 PUSH2 0x1EE7 SWAP2 PUSH1 0x4 ADD PUSH2 0x1E77 JUMP JUMPDEST SWAP2 PUSH1 0x24 CALLDATALOAD PUSH1 0x1 PUSH1 0x1 PUSH1 0x40 SHL SUB DUP2 GT PUSH2 0x1D59 JUMPI DUP3 PUSH2 0x1F06 SWAP2 PUSH1 0x4 ADD PUSH2 0x1E77 JUMP JUMPDEST SWAP2 PUSH1 0x44 CALLDATALOAD SWAP1 PUSH1 0x1 PUSH1 0x1 PUSH1 0x40 SHL SUB DUP3 GT PUSH2 0x1D59 JUMPI PUSH2 0x1F25 SWAP2 PUSH1 0x4 ADD PUSH2 0x1E77 JUMP JUMPDEST SWAP1 JUMP JUMPDEST SWAP1 PUSH1 0x60 PUSH1 0x3 NOT DUP4 ADD SLT PUSH2 0x1D59 JUMPI PUSH1 0x4 CALLDATALOAD PUSH1 0x1 PUSH1 0x1 PUSH1 0x40 SHL SUB DUP2 GT PUSH2 0x1D59 JUMPI DUP3 PUSH2 0x1F53 SWAP2 PUSH1 0x4 ADD PUSH2 0x1E77 JUMP JUMPDEST SWAP2 PUSH1 0x24 CALLDATALOAD SWAP1 PUSH1 0x1 PUSH1 0x1 PUSH1 0x40 SHL SUB DUP3 GT PUSH2 0x1D59 JUMPI PUSH2 0x1F72 SWAP2 PUSH1 0x4 ADD PUSH2 0x1E77 JUMP JUMPDEST SWAP1 PUSH1 0x44 CALLDATALOAD SWAP1 JUMP JUMPDEST DUP1 MLOAD DUP1 DUP4 MSTORE PUSH1 0x20 SWAP3 SWAP2 DUP2 SWAP1 DUP5 ADD DUP5 DUP5 ADD MCOPY PUSH0 DUP3 DUP3 ADD DUP5 ADD MSTORE PUSH1 0x1F ADD PUSH1 0x1F NOT AND ADD ADD SWAP1 JUMP JUMPDEST CALLDATALOAD SWAP1 PUSH1 0x1 PUSH1 0x1 PUSH1 0xA0 SHL SUB DUP3 AND DUP3 SUB PUSH2 0x1D59 JUMPI JUMP JUMPDEST SWAP2 SWAP1 SWAP2 PUSH1 0x80 DUP2 DUP5 SUB SLT PUSH2 0x1D59 JUMPI PUSH1 0x40 MLOAD SWAP1 PUSH2 0x1FCB DUP3 PUSH2 0x1D9E JUMP JUMPDEST DUP2 SWAP4 DUP2 CALLDATALOAD PUSH1 0x1 PUSH1 0x1 PUSH1 0x40 SHL SUB DUP2 GT PUSH2 0x1D59 JUMPI DUP2 PUSH2 0x1FE9 SWAP2 DUP5 ADD PUSH2 0x1E77 JUMP JUMPDEST DUP4 MSTORE PUSH1 0x20 DUP3 ADD CALLDATALOAD PUSH1 0x1 PUSH1 0x1 PUSH1 0x40 SHL SUB DUP2 GT PUSH2 0x1D59 JUMPI DUP2 PUSH2 0x200A SWAP2 DUP5 ADD PUSH2 0x1E77 JUMP JUMPDEST PUSH1 0x20 DUP5 ADD MSTORE PUSH1 0x40 DUP3 ADD CALLDATALOAD SWAP1 PUSH1 0x1 PUSH1 0x1 PUSH1 0x40 SHL SUB DUP3 GT PUSH2 0x1D59 JUMPI DUP3 PUSH2 0x2037 PUSH1 0x60 SWAP5 SWAP3 PUSH2 0x2042 SWAP5 DUP7 SWAP5 ADD PUSH2 0x1E77 JUMP JUMPDEST PUSH1 0x40 DUP7 ADD MSTORE ADD PUSH2 0x1F9D JUMP JUMPDEST SWAP2 ADD MSTORE JUMP JUMPDEST PUSH1 0x24 CALLDATALOAD SWAP1 PUSH1 0xFF DUP3 AND DUP3 SUB PUSH2 0x1D59 JUMPI JUMP JUMPDEST SWAP2 SWAP1 PUSH1 0x40 DUP4 DUP3 SUB SLT PUSH2 0x1D59 JUMPI PUSH1 0x40 MLOAD SWAP1 PUSH2 0x2070 DUP3 PUSH2 0x1E04 JUMP JUMPDEST DUP2 SWAP4 DUP1 CALLDATALOAD PUSH1 0x1 PUSH1 0x1 PUSH1 0x40 SHL SUB DUP2 GT PUSH2 0x1D59 JUMPI DUP3 PUSH2 0x208E SWAP2 DUP4 ADD PUSH2 0x1E77 JUMP JUMPDEST DUP4 MSTORE PUSH1 0x20 DUP2 ADD CALLDATALOAD SWAP2 PUSH1 0x1 PUSH1 0x1 PUSH1 0x40 SHL SUB DUP4 GT PUSH2 0x1D59 JUMPI PUSH1 0x20 SWAP3 PUSH2 0x2042 SWAP3 ADD PUSH2 0x1E77 JUMP JUMPDEST SWAP2 SWAP1 PUSH2 0x100 DUP4 DUP3 SUB SLT PUSH2 0x1D59 JUMPI PUSH1 0x40 MLOAD SWAP1 PUSH2 0x20CB DUP3 PUSH2 0x1DE8 JUMP JUMPDEST DUP2 SWAP4 DUP1 CALLDATALOAD PUSH1 0x1 PUSH1 0x1 PUSH1 0x40 SHL SUB DUP2 GT PUSH2 0x1D59 JUMPI DUP3 PUSH2 0x20E9 SWAP2 DUP4 ADD PUSH2 0x1E77 JUMP JUMPDEST DUP4 MSTORE PUSH1 0x20 DUP2 ADD CALLDATALOAD PUSH1 0x1 PUSH1 0x1 PUSH1 0x40 SHL SUB DUP2 GT PUSH2 0x1D59 JUMPI DUP3 PUSH2 0x210A SWAP2 DUP4 ADD PUSH2 0x1E77 JUMP JUMPDEST PUSH1 0x20 DUP5 ADD MSTORE PUSH1 0x40 DUP2 ADD CALLDATALOAD PUSH1 0x1 PUSH1 0x1 PUSH1 0x40 SHL SUB DUP2 GT PUSH2 0x1D59 JUMPI DUP3 PUSH2 0x212E SWAP2 DUP4 ADD PUSH2 0x1E77 JUMP JUMPDEST PUSH1 0x40 DUP5 ADD MSTORE PUSH1 0x60 DUP2 ADD CALLDATALOAD PUSH1 0x1 PUSH1 0x1 PUSH1 0x40 SHL SUB DUP2 GT PUSH2 0x1D59 JUMPI DUP3 PUSH2 0x2152 SWAP2 DUP4 ADD PUSH2 0x1E77 JUMP JUMPDEST PUSH1 0x60 DUP5 ADD MSTORE PUSH1 0x80 DUP2 ADD CALLDATALOAD PUSH1 0x1 PUSH1 0x1 PUSH1 0x40 SHL SUB DUP2 GT PUSH2 0x1D59 JUMPI DUP3 PUSH2 0x2176 SWAP2 DUP4 ADD PUSH2 0x1E77 JUMP JUMPDEST PUSH1 0x80 DUP5 ADD MSTORE PUSH1 0xA0 DUP2 ADD CALLDATALOAD PUSH1 0x1 PUSH1 0x1 PUSH1 0x40 SHL SUB DUP2 GT PUSH2 0x1D59 JUMPI DUP3 PUSH2 0x219A SWAP2 DUP4 ADD PUSH2 0x1E77 JUMP JUMPDEST PUSH1 0xA0 DUP5 ADD MSTORE PUSH1 0xC0 DUP2 ADD CALLDATALOAD PUSH1 0x1 PUSH1 0x1 PUSH1 0x40 SHL SUB DUP2 GT PUSH2 0x1D59 JUMPI DUP3 PUSH2 0x21BE SWAP2 DUP4 ADD PUSH2 0x1E77 JUMP JUMPDEST PUSH1 0xC0 DUP5 ADD MSTORE PUSH1 0xE0 DUP2 ADD CALLDATALOAD SWAP2 PUSH1 0x1 PUSH1 0x1 PUSH1 0x40 SHL SUB DUP4 GT PUSH2 0x1D59 JUMPI PUSH1 0xE0 SWAP3 PUSH2 0x2042 SWAP3 ADD PUSH2 0x1E77 JUMP JUMPDEST SWAP1 PUSH1 0x60 PUSH1 0x3 NOT DUP4 ADD SLT PUSH2 0x1D59 JUMPI PUSH1 0x4 CALLDATALOAD PUSH1 0x1 PUSH1 0x1 PUSH1 0x40 SHL SUB DUP2 GT PUSH2 0x1D59 JUMPI PUSH1 0xA0 DUP2 DUP5 SUB PUSH1 0x3 NOT ADD SLT PUSH2 0x1D59 JUMPI PUSH1 0x40 MLOAD SWAP1 PUSH1 0xA0 DUP3 ADD DUP3 DUP2 LT PUSH1 0x1 PUSH1 0x1 PUSH1 0x40 SHL SUB DUP3 GT OR PUSH2 0x1DB9 JUMPI PUSH1 0x40 MSTORE DUP1 PUSH1 0x4 ADD CALLDATALOAD PUSH1 0x1 PUSH1 0x1 PUSH1 0x40 SHL SUB DUP2 GT PUSH2 0x1D59 JUMPI DUP5 PUSH1 0x4 PUSH2 0x224F SWAP3 DUP5 ADD ADD PUSH2 0x1E77 JUMP JUMPDEST DUP3 MSTORE PUSH1 0x24 DUP2 ADD CALLDATALOAD PUSH1 0x1 PUSH1 0x1 PUSH1 0x40 SHL SUB DUP2 GT PUSH2 0x1D59 JUMPI DUP5 PUSH1 0x4 PUSH2 0x2273 SWAP3 DUP5 ADD ADD PUSH2 0x1E77 JUMP JUMPDEST PUSH1 0x20 DUP4 ADD MSTORE PUSH1 0x44 DUP2 ADD CALLDATALOAD PUSH1 0x1 PUSH1 0x1 PUSH1 0x40 SHL SUB DUP2 GT PUSH2 0x1D59 JUMPI DUP5 PUSH1 0x4 PUSH2 0x229A SWAP3 DUP5 ADD ADD PUSH2 0x1E77 JUMP JUMPDEST PUSH1 0x40 DUP4 ADD MSTORE PUSH1 0x64 DUP2 ADD CALLDATALOAD PUSH1 0x1 PUSH1 0x1 PUSH1 0x40 SHL SUB DUP2 GT PUSH2 0x1D59 JUMPI DUP2 PUSH2 0x22C7 DUP7 PUSH1 0x4 PUSH1 0x84 SWAP5 PUSH2 0x22D2 SWAP7 ADD ADD PUSH2 0x1E77 JUMP JUMPDEST PUSH1 0x60 DUP6 ADD MSTORE ADD PUSH2 0x1F9D JUMP JUMPDEST PUSH1 0x80 DUP3 ADD MSTORE SWAP2 PUSH1 0x24 CALLDATALOAD SWAP1 PUSH1 0x1 PUSH1 0x1 PUSH1 0x40 SHL SUB DUP3 GT PUSH2 0x1D59 JUMPI PUSH2 0x22F6 SWAP2 PUSH1 0x4 ADD PUSH2 0x1E77 JUMP JUMPDEST SWAP1 PUSH1 0x44 CALLDATALOAD PUSH1 0xFF DUP2 AND DUP2 SUB PUSH2 0x1D59 JUMPI SWAP1 JUMP JUMPDEST SWAP1 PUSH1 0xA0 PUSH1 0x3 NOT DUP4 ADD SLT PUSH2 0x1D59 JUMPI PUSH1 0x4 CALLDATALOAD PUSH1 0x1 PUSH1 0x1 PUSH1 0x40 SHL SUB DUP2 GT PUSH2 0x1D59 JUMPI DUP3 PUSH2 0x2332 SWAP2 PUSH1 0x4 ADD PUSH2 0x1E77 JUMP JUMPDEST SWAP2 PUSH1 0x24 CALLDATALOAD PUSH1 0x1 PUSH1 0x1 PUSH1 0x40 SHL SUB DUP2 GT PUSH2 0x1D59 JUMPI DUP2 PUSH2 0x2351 SWAP2 PUSH1 0x4 ADD PUSH2 0x1E77 JUMP JUMPDEST SWAP2 PUSH1 0x44 CALLDATALOAD PUSH1 0x1 PUSH1 0x1 PUSH1 0x40 SHL SUB DUP2 GT PUSH2 0x1D59 JUMPI DUP3 PUSH2 0x2370 SWAP2 PUSH1 0x4 ADD PUSH2 0x1E77 JUMP JUMPDEST SWAP2 PUSH1 0x64 CALLDATALOAD SWAP1 PUSH1 0x1 PUSH1 0x1 PUSH1 0x40 SHL SUB DUP3 GT PUSH2 0x1D59 JUMPI PUSH2 0x238F SWAP2 PUSH1 0x4 ADD PUSH2 0x1E77 JUMP JUMPDEST SWAP1 PUSH1 0x84 CALLDATALOAD PUSH1 0xFF DUP2 AND DUP2 SUB PUSH2 0x1D59 JUMPI SWAP1 JUMP JUMPDEST SWAP1 PUSH1 0x7 DUP3 LT ISZERO PUSH2 0x23AD JUMPI MSTORE JUMP JUMPDEST PUSH4 0x4E487B71 PUSH1 0xE0 SHL PUSH0 MSTORE PUSH1 0x21 PUSH1 0x4 MSTORE PUSH1 0x24 PUSH0 REVERT JUMPDEST SWAP1 PUSH1 0xC0 DUP1 PUSH2 0x2436 PUSH2 0x2405 PUSH2 0x23F3 PUSH2 0x23E1 DUP8 MLOAD PUSH1 0xE0 DUP9 MSTORE PUSH1 0xE0 DUP9 ADD SWAP1 PUSH2 0x1F79 JUMP JUMPDEST PUSH1 0x20 DUP9 ADD MLOAD DUP8 DUP3 SUB PUSH1 0x20 DUP10 ADD MSTORE PUSH2 0x1F79 JUMP JUMPDEST PUSH1 0x40 DUP8 ADD MLOAD DUP7 DUP3 SUB PUSH1 0x40 DUP9 ADD MSTORE PUSH2 0x1F79 JUMP JUMPDEST PUSH1 0xFF PUSH1 0x60 DUP8 ADD MLOAD AND PUSH1 0x60 DUP7 ADD MSTORE PUSH2 0x2424 PUSH1 0x80 DUP8 ADD MLOAD PUSH1 0x80 DUP8 ADD SWAP1 PUSH2 0x23A0 JUMP JUMPDEST PUSH1 0xA0 DUP7 ADD MLOAD DUP6 DUP3 SUB PUSH1 0xA0 DUP8 ADD MSTORE PUSH2 0x1F79 JUMP JUMPDEST SWAP4 ADD MLOAD SWAP2 ADD MSTORE SWAP1 JUMP JUMPDEST PUSH1 0x20 DUP2 ADD PUSH1 0x20 DUP3 MSTORE DUP3 MLOAD DUP1 SWAP2 MSTORE PUSH1 0x40 DUP3 ADD SWAP2 PUSH1 0x20 PUSH1 0x40 DUP4 PUSH1 0x5 SHL DUP4 ADD ADD SWAP5 ADD SWAP3 PUSH0 SWAP2 JUMPDEST DUP4 DUP4 LT PUSH2 0x2471 JUMPI POP POP POP POP POP SWAP1 JUMP JUMPDEST SWAP1 SWAP2 SWAP3 SWAP4 SWAP5 PUSH1 0x20 DUP1 PUSH2 0x248F PUSH1 0x1 SWAP4 PUSH1 0x3F NOT DUP7 DUP3 SUB ADD DUP8 MSTORE DUP10 MLOAD PUSH2 0x23C1 JUMP JUMPDEST SWAP8 ADD SWAP4 ADD SWAP4 ADD SWAP2 SWAP4 SWAP3 SWAP1 PUSH2 0x2462 JUMP JUMPDEST SWAP1 PUSH1 0x40 PUSH2 0x24B7 PUSH2 0xF9D DUP5 MLOAD PUSH1 0x60 DUP6 MSTORE PUSH1 0x60 DUP6 ADD SWAP1 PUSH2 0x1F79 JUMP JUMPDEST SWAP3 DUP2 ADD MLOAD PUSH1 0x1 PUSH1 0x1 PUSH1 0xA0 SHL SUB AND SWAP2 ADD MSTORE SWAP1 JUMP JUMPDEST PUSH2 0x1F25 SWAP2 PUSH2 0x24D9 DUP2 DUP4 MLOAD PUSH2 0x23A0 JUMP JUMPDEST PUSH1 0x20 DUP3 ADD MLOAD PUSH1 0x20 DUP3 ADD MSTORE PUSH1 0x40 DUP3 ADD MLOAD PUSH1 0x40 DUP3 ADD MSTORE PUSH1 0x60 DUP3 ADD MLOAD PUSH1 0x60 DUP3 ADD MSTORE PUSH1 0x80 DUP3 ADD MLOAD PUSH1 0x80 DUP3 ADD MSTORE PUSH1 0xA0 DUP3 ADD MLOAD PUSH1 0xA0 DUP3 ADD MSTORE PUSH1 0xC0 DUP3 ADD MLOAD PUSH1 0xC0 DUP3 ADD MSTORE PUSH2 0x120 PUSH2 0x254A PUSH2 0x2536 PUSH1 0xE0 DUP6 ADD MLOAD PUSH2 0x140 PUSH1 0xE0 DUP7 ADD MSTORE PUSH2 0x140 DUP6 ADD SWAP1 PUSH2 0x249E JUMP JUMPDEST PUSH2 0x100 DUP6 ADD MLOAD DUP5 DUP3 SUB PUSH2 0x100 DUP7 ADD MSTORE PUSH2 0x249E JUMP JUMPDEST SWAP3 ADD MLOAD SWAP1 PUSH2 0x120 DUP2 DUP5 SUB SWAP2 ADD MSTORE PUSH2 0x1F79 JUMP JUMPDEST PUSH2 0x1F25 SWAP2 PUSH1 0x40 PUSH2 0x2578 PUSH2 0xF9D DUP5 MLOAD PUSH1 0x60 DUP6 MSTORE PUSH1 0x60 DUP6 ADD SWAP1 PUSH2 0x1F79 JUMP JUMPDEST SWAP3 ADD MLOAD SWAP1 PUSH1 0x40 DUP2 DUP5 SUB SWAP2 ADD MSTORE PUSH2 0x1F79 JUMP JUMPDEST PUSH2 0x1F25 SWAP2 PUSH1 0x20 PUSH2 0x25A2 DUP4 MLOAD PUSH1 0x40 DUP5 MSTORE PUSH1 0x40 DUP5 ADD SWAP1 PUSH2 0x1F79 JUMP JUMPDEST SWAP3 ADD MLOAD SWAP1 PUSH1 0x20 DUP2 DUP5 SUB SWAP2 ADD MSTORE PUSH2 0x1F79 JUMP JUMPDEST PUSH2 0x1F25 SWAP2 PUSH1 0xE0 PUSH2 0x263A PUSH2 0x2628 PUSH2 0x2424 PUSH2 0x2616 PUSH2 0x2604 PUSH2 0x25F2 PUSH2 0x25E0 DUP10 MLOAD PUSH2 0x100 DUP11 MSTORE PUSH2 0x100 DUP11 ADD SWAP1 PUSH2 0x1F79 JUMP JUMPDEST PUSH1 0x20 DUP11 ADD MLOAD DUP10 DUP3 SUB PUSH1 0x20 DUP12 ADD MSTORE PUSH2 0x1F79 JUMP JUMPDEST PUSH1 0x40 DUP10 ADD MLOAD DUP9 DUP3 SUB PUSH1 0x40 DUP11 ADD MSTORE PUSH2 0x1F79 JUMP JUMPDEST PUSH1 0x60 DUP9 ADD MLOAD DUP8 DUP3 SUB PUSH1 0x60 DUP10 ADD MSTORE PUSH2 0x1F79 JUMP JUMPDEST PUSH1 0x80 DUP8 ADD MLOAD DUP7 DUP3 SUB PUSH1 0x80 DUP9 ADD MSTORE PUSH2 0x1F79 JUMP JUMPDEST PUSH1 0xC0 DUP6 ADD MLOAD DUP5 DUP3 SUB PUSH1 0xC0 DUP7 ADD MSTORE PUSH2 0x1F79 JUMP JUMPDEST SWAP3 ADD MLOAD SWAP1 PUSH1 0xE0 DUP2 DUP5 SUB SWAP2 ADD MSTORE PUSH2 0x1F79 JUMP JUMPDEST SWAP2 SWAP1 PUSH1 0x60 DUP4 DUP3 SUB SLT PUSH2 0x1D59 JUMPI PUSH1 0x40 MLOAD SWAP1 PUSH2 0x2664 DUP3 PUSH2 0x1DCD JUMP JUMPDEST DUP2 SWAP4 DUP1 CALLDATALOAD PUSH1 0x1 PUSH1 0x1 PUSH1 0x40 SHL SUB DUP2 GT PUSH2 0x1D59 JUMPI DUP3 PUSH2 0x2682 SWAP2 DUP4 ADD PUSH2 0x1E77 JUMP JUMPDEST DUP4 MSTORE PUSH1 0x20 DUP2 ADD CALLDATALOAD PUSH1 0x1 PUSH1 0x1 PUSH1 0x40 SHL SUB DUP2 GT PUSH2 0x1D59 JUMPI DUP3 PUSH2 0x26A3 SWAP2 DUP4 ADD PUSH2 0x1E77 JUMP JUMPDEST PUSH1 0x20 DUP5 ADD MSTORE PUSH1 0x40 DUP2 ADD CALLDATALOAD SWAP2 PUSH1 0x1 PUSH1 0x1 PUSH1 0x40 SHL SUB DUP4 GT PUSH2 0x1D59 JUMPI PUSH1 0x40 SWAP3 PUSH2 0x2042 SWAP3 ADD PUSH2 0x1E77 JUMP JUMPDEST SWAP1 DUP2 PUSH1 0x20 SWAP2 SUB SLT PUSH2 0x1D59 JUMPI MLOAD DUP1 ISZERO ISZERO DUP2 SUB PUSH2 0x1D59 JUMPI SWAP1 JUMP JUMPDEST ISZERO PUSH2 0x26E8 JUMPI JUMP JUMPDEST PUSH1 0x40 MLOAD PUSH3 0x461BCD PUSH1 0xE5 SHL DUP2 MSTORE PUSH1 0x20 PUSH1 0x4 DUP3 ADD MSTORE PUSH1 0x22 PUSH1 0x24 DUP3 ADD MSTORE PUSH32 0x4F6E6C792042504F4D2063616E20646F2074686973207472616E73616374696F PUSH1 0x44 DUP3 ADD MSTORE PUSH2 0x6E21 PUSH1 0xF0 SHL PUSH1 0x64 DUP3 ADD MSTORE PUSH1 0x84 SWAP1 REVERT JUMPDEST SWAP1 SWAP2 PUSH2 0x274F PUSH2 0x1F25 SWAP4 PUSH1 0x40 DUP5 MSTORE PUSH1 0x40 DUP5 ADD SWAP1 PUSH2 0x1F79 JUMP JUMPDEST SWAP2 PUSH1 0x20 DUP2 DUP5 SUB SWAP2 ADD MSTORE PUSH2 0x1F79 JUMP JUMPDEST SWAP4 SWAP3 SWAP2 PUSH2 0x2782 SWAP1 PUSH1 0x40 SWAP3 PUSH1 0x1 DUP1 PUSH1 0xA0 SHL SUB AND DUP7 MSTORE PUSH1 0x60 PUSH1 0x20 DUP8 ADD MSTORE PUSH1 0x60 DUP7 ADD SWAP1 PUSH2 0x1F79 JUMP JUMPDEST SWAP4 ADD MSTORE JUMP JUMPDEST ISZERO PUSH2 0x278E JUMPI JUMP JUMPDEST PUSH1 0x40 MLOAD PUSH3 0x461BCD PUSH1 0xE5 SHL DUP2 MSTORE PUSH1 0x20 PUSH1 0x4 DUP3 ADD MSTORE PUSH1 0x21 PUSH1 0x24 DUP3 ADD MSTORE PUSH32 0x4F6E6C79205042462063616E20646F2074686973207472616E73616374696F6E PUSH1 0x44 DUP3 ADD MSTORE PUSH1 0x21 PUSH1 0xF8 SHL PUSH1 0x64 DUP3 ADD MSTORE PUSH1 0x84 SWAP1 REVERT JUMPDEST SWAP3 SWAP2 SWAP1 PUSH2 0x2782 PUSH1 0x20 SWAP2 PUSH1 0x40 DUP7 MSTORE PUSH1 0x40 DUP7 ADD SWAP1 PUSH2 0x1F79 JUMP JUMPDEST DUP2 PUSH1 0x1F DUP3 ADD SLT ISZERO PUSH2 0x1D59 JUMPI DUP1 MLOAD SWAP1 PUSH2 0x280B DUP3 PUSH2 0x1E5C JUMP JUMPDEST SWAP3 PUSH2 0x2819 PUSH1 0x40 MLOAD SWAP5 DUP6 PUSH2 0x1E3B JUMP JUMPDEST DUP3 DUP5 MSTORE PUSH1 0x20 DUP4 DUP4 ADD ADD GT PUSH2 0x1D59 JUMPI DUP2 PUSH0 SWAP3 PUSH1 0x20 DUP1 SWAP4 ADD DUP4 DUP7 ADD MCOPY DUP4 ADD ADD MSTORE SWAP1 JUMP JUMPDEST SWAP1 PUSH1 0x20 DUP3 DUP3 SUB SLT PUSH2 0x1D59 JUMPI DUP2 MLOAD PUSH1 0x1 PUSH1 0x1 PUSH1 0x40 SHL SUB DUP2 GT PUSH2 0x1D59 JUMPI PUSH2 0x1F25 SWAP3 ADD PUSH2 0x27F4 JUMP JUMPDEST SWAP1 PUSH1 0x60 SWAP3 SWAP6 SWAP5 SWAP4 PUSH2 0x287A PUSH1 0xFF SWAP3 PUSH1 0x80 DUP6 MSTORE PUSH1 0x80 DUP6 ADD SWAP1 PUSH2 0x1F79 JUMP JUMPDEST PUSH1 0x1 PUSH1 0x1 PUSH1 0xA0 SHL SUB SWAP1 SWAP8 AND PUSH1 0x20 DUP5 ADD MSTORE AND PUSH1 0x40 DUP3 ADD MSTORE ADD MSTORE JUMP JUMPDEST ISZERO PUSH2 0x289B JUMPI JUMP JUMPDEST PUSH1 0x40 MLOAD PUSH3 0x461BCD PUSH1 0xE5 SHL DUP2 MSTORE PUSH1 0x20 PUSH1 0x4 DUP3 ADD MSTORE PUSH1 0x25 PUSH1 0x24 DUP3 ADD MSTORE PUSH32 0x4F6E6C7920466163746F72792063616E20646F2074686973207472616E736163 PUSH1 0x44 DUP3 ADD MSTORE PUSH5 0x74696F6E21 PUSH1 0xD8 SHL PUSH1 0x64 DUP3 ADD MSTORE PUSH1 0x84 SWAP1 REVERT JUMPDEST SWAP3 PUSH2 0x292D SWAP1 PUSH2 0x291F PUSH2 0x293B SWAP5 PUSH2 0x2911 PUSH2 0x1F25 SWAP11 SWAP9 SWAP6 PUSH1 0xC0 DUP10 MSTORE PUSH1 0xC0 DUP10 ADD SWAP1 PUSH2 0x1F79 JUMP JUMPDEST SWAP1 DUP8 DUP3 SUB PUSH1 0x20 DUP10 ADD MSTORE PUSH2 0x1F79 JUMP JUMPDEST SWAP1 DUP6 DUP3 SUB PUSH1 0x40 DUP8 ADD MSTORE PUSH2 0x1F79 JUMP JUMPDEST SWAP1 DUP4 DUP3 SUB PUSH1 0x60 DUP6 ADD MSTORE PUSH2 0x1F79 JUMP JUMPDEST PUSH1 0x1 PUSH1 0x1 PUSH1 0xA0 SHL SUB SWAP1 SWAP4 AND PUSH1 0x80 DUP3 ADD MSTORE DUP1 DUP4 SUB PUSH1 0xA0 SWAP2 SWAP1 SWAP2 ADD MSTORE PUSH2 0x1F79 JUMP JUMPDEST SWAP6 SWAP5 SWAP4 PUSH1 0xFF PUSH1 0x80 SWAP5 PUSH2 0x2978 PUSH2 0x2782 SWAP6 SWAP5 PUSH1 0xA0 DUP12 MSTORE PUSH1 0xA0 DUP12 ADD SWAP1 PUSH2 0x1F79 JUMP JUMPDEST PUSH1 0x1 PUSH1 0x1 PUSH1 0xA0 SHL SUB SWAP1 SWAP5 AND PUSH1 0x20 DUP11 ADD MSTORE AND PUSH1 0x40 DUP9 ADD MSTORE DUP7 DUP3 SUB PUSH1 0x60 DUP9 ADD MSTORE PUSH2 0x1F79 JUMP JUMPDEST SWAP4 SWAP1 PUSH1 0x80 SWAP4 PUSH2 0x29CD PUSH2 0x29E9 SWAP5 PUSH2 0x29BF PUSH2 0x29DB SWAP5 SWAP11 SWAP10 SWAP11 PUSH1 0xA0 DUP11 MSTORE PUSH1 0xA0 DUP11 ADD SWAP1 PUSH2 0x1F79 JUMP JUMPDEST SWAP1 DUP9 DUP3 SUB PUSH1 0x20 DUP11 ADD MSTORE PUSH2 0x1F79 JUMP JUMPDEST SWAP1 DUP7 DUP3 SUB PUSH1 0x40 DUP9 ADD MSTORE PUSH2 0x1F79 JUMP JUMPDEST SWAP1 DUP5 DUP3 SUB PUSH1 0x60 DUP7 ADD MSTORE PUSH2 0x1F79 JUMP JUMPDEST PUSH1 0x1 PUSH1 0x1 PUSH1 0xA0 SHL SUB SWAP1 SWAP5 AND SWAP2 ADD MSTORE JUMP JUMPDEST SWAP2 SWAP4 SWAP1 PUSH2 0x1F25 SWAP6 SWAP4 PUSH2 0x2A15 PUSH1 0xFF SWAP3 PUSH1 0xA0 DUP7 MSTORE PUSH1 0xA0 DUP7 ADD SWAP1 PUSH2 0x1F79 JUMP JUMPDEST PUSH1 0x1 PUSH1 0x1 PUSH1 0xA0 SHL SUB SWAP1 SWAP7 AND PUSH1 0x20 DUP6 ADD MSTORE AND PUSH1 0x40 DUP4 ADD MSTORE PUSH1 0x60 DUP3 ADD MSTORE DUP1 DUP4 SUB PUSH1 0x80 SWAP1 SWAP2 ADD MSTORE PUSH2 0x1F79 JUMP JUMPDEST MLOAD SWAP1 PUSH1 0xFF DUP3 AND DUP3 SUB PUSH2 0x1D59 JUMPI JUMP JUMPDEST PUSH1 0x20 DUP2 DUP4 SUB SLT PUSH2 0x1D59 JUMPI DUP1 MLOAD SWAP1 PUSH1 0x1 PUSH1 0x1 PUSH1 0x40 SHL SUB DUP3 GT PUSH2 0x1D59 JUMPI ADD SWAP1 DUP1 PUSH1 0x1F DUP4 ADD SLT ISZERO PUSH2 0x1D59 JUMPI PUSH1 0x20 DUP3 MLOAD SWAP3 ADD PUSH1 0x1 PUSH1 0x1 PUSH1 0x40 SHL SUB DUP4 GT PUSH2 0x1DB9 JUMPI DUP3 PUSH1 0x5 SHL SWAP2 PUSH1 0x20 DUP4 ADD SWAP4 PUSH2 0x2A9F PUSH1 0x40 MLOAD SWAP6 DUP7 PUSH2 0x1E3B JUMP JUMPDEST DUP5 MSTORE PUSH1 0x20 DUP5 ADD SWAP3 DUP3 ADD SWAP2 DUP2 DUP4 GT PUSH2 0x1D59 JUMPI DUP1 SWAP4 JUMPDEST DUP4 DUP6 LT PUSH2 0x2AC2 JUMPI POP POP POP POP POP SWAP1 JUMP JUMPDEST DUP5 MLOAD PUSH1 0x1 PUSH1 0x1 PUSH1 0x40 SHL SUB DUP2 GT PUSH2 0x1D59 JUMPI DUP3 ADD PUSH1 0xE0 DUP2 DUP6 SUB SLT PUSH2 0x1D59 JUMPI PUSH1 0x40 MLOAD SWAP2 PUSH1 0xE0 DUP4 ADD DUP4 DUP2 LT PUSH1 0x1 PUSH1 0x1 PUSH1 0x40 SHL SUB DUP3 GT OR PUSH2 0x1DB9 JUMPI PUSH1 0x40 MSTORE DUP2 MLOAD PUSH1 0x1 PUSH1 0x1 PUSH1 0x40 SHL SUB DUP2 GT PUSH2 0x1D59 JUMPI DUP6 PUSH2 0x2B17 SWAP2 DUP5 ADD PUSH2 0x27F4 JUMP JUMPDEST DUP4 MSTORE PUSH1 0x20 DUP3 ADD MLOAD PUSH1 0x1 PUSH1 0x1 PUSH1 0x40 SHL SUB DUP2 GT PUSH2 0x1D59 JUMPI DUP6 PUSH2 0x2B38 SWAP2 DUP5 ADD PUSH2 0x27F4 JUMP JUMPDEST PUSH1 0x20 DUP5 ADD MSTORE PUSH1 0x40 DUP3 ADD MLOAD PUSH1 0x1 PUSH1 0x1 PUSH1 0x40 SHL SUB DUP2 GT PUSH2 0x1D59 JUMPI DUP6 PUSH2 0x2B5C SWAP2 DUP5 ADD PUSH2 0x27F4 JUMP JUMPDEST PUSH1 0x40 DUP5 ADD MSTORE PUSH2 0x2B6D PUSH1 0x60 DUP4 ADD PUSH2 0x2A3E JUMP JUMPDEST PUSH1 0x60 DUP5 ADD MSTORE PUSH1 0x80 DUP3 ADD MLOAD PUSH1 0x7 DUP2 LT ISZERO PUSH2 0x1D59 JUMPI PUSH1 0x80 DUP5 ADD MSTORE PUSH1 0xA0 DUP3 ADD MLOAD SWAP3 PUSH1 0x1 PUSH1 0x1 PUSH1 0x40 SHL SUB DUP5 GT PUSH2 0x1D59 JUMPI PUSH1 0xC0 DUP4 PUSH2 0x2BAB DUP9 PUSH1 0x20 SWAP8 DUP9 SWAP8 ADD PUSH2 0x27F4 JUMP JUMPDEST PUSH1 0xA0 DUP5 ADD MSTORE ADD MLOAD PUSH1 0xC0 DUP3 ADD MSTORE DUP2 MSTORE ADD SWAP5 ADD SWAP4 PUSH2 0x2AB3 JUMP JUMPDEST PUSH1 0x40 MLOAD SWAP1 PUSH2 0x2BCF DUP3 PUSH2 0x1DCD JUMP JUMPDEST PUSH0 PUSH1 0x40 DUP4 PUSH1 0x60 DUP2 MSTORE PUSH1 0x60 PUSH1 0x20 DUP3 ADD MSTORE ADD MSTORE JUMP JUMPDEST PUSH1 0x40 MLOAD SWAP1 PUSH2 0x2BEF DUP3 PUSH2 0x1E1F JUMP JUMPDEST PUSH1 0x60 PUSH2 0x120 DUP4 PUSH0 DUP2 MSTORE PUSH0 PUSH1 0x20 DUP3 ADD MSTORE PUSH0 PUSH1 0x40 DUP3 ADD MSTORE PUSH0 DUP4 DUP3 ADD MSTORE PUSH0 PUSH1 0x80 DUP3 ADD MSTORE PUSH0 PUSH1 0xA0 DUP3 ADD MSTORE PUSH0 PUSH1 0xC0 DUP3 ADD MSTORE PUSH2 0x2C23 PUSH2 0x2BC2 JUMP JUMPDEST PUSH1 0xE0 DUP3 ADD MSTORE PUSH2 0x2C30 PUSH2 0x2BC2 JUMP JUMPDEST PUSH2 0x100 DUP3 ADD MSTORE ADD MSTORE JUMP JUMPDEST PUSH1 0x40 MLOAD SWAP1 PUSH2 0x2C47 DUP3 PUSH2 0x1E04 JUMP JUMPDEST PUSH1 0x60 PUSH1 0x20 DUP4 DUP3 DUP2 MSTORE ADD MSTORE JUMP JUMPDEST SWAP2 SWAP1 PUSH1 0x40 DUP4 DUP3 SUB SLT PUSH2 0x1D59 JUMPI PUSH1 0x40 MLOAD SWAP1 PUSH2 0x2C6C DUP3 PUSH2 0x1E04 JUMP JUMPDEST DUP2 SWAP4 DUP1 MLOAD PUSH1 0x1 PUSH1 0x1 PUSH1 0x40 SHL SUB DUP2 GT PUSH2 0x1D59 JUMPI DUP3 PUSH2 0x2C8A SWAP2 DUP4 ADD PUSH2 0x27F4 JUMP JUMPDEST DUP4 MSTORE PUSH1 0x20 DUP2 ADD MLOAD SWAP2 PUSH1 0x1 PUSH1 0x1 PUSH1 0x40 SHL SUB DUP4 GT PUSH2 0x1D59 JUMPI PUSH1 0x20 SWAP3 PUSH2 0x2042 SWAP3 ADD PUSH2 0x27F4 JUMP JUMPDEST SWAP2 SWAP1 PUSH1 0x60 DUP4 DUP3 SUB SLT PUSH2 0x1D59 JUMPI PUSH1 0x40 MLOAD SWAP1 PUSH2 0x2CC6 DUP3 PUSH2 0x1DCD JUMP JUMPDEST DUP2 SWAP4 DUP1 MLOAD PUSH1 0x1 PUSH1 0x1 PUSH1 0x40 SHL SUB DUP2 GT PUSH2 0x1D59 JUMPI DUP3 PUSH2 0x2CE4 SWAP2 DUP4 ADD PUSH2 0x27F4 JUMP JUMPDEST DUP4 MSTORE PUSH1 0x20 DUP2 ADD MLOAD PUSH1 0x1 PUSH1 0x1 PUSH1 0x40 SHL SUB DUP2 GT PUSH2 0x1D59 JUMPI PUSH1 0x40 SWAP3 PUSH2 0x2D07 SWAP2 DUP4 ADD PUSH2 0x27F4 JUMP JUMPDEST PUSH1 0x20 DUP5 ADD MSTORE ADD MLOAD SWAP1 PUSH1 0x1 PUSH1 0x1 PUSH1 0xA0 SHL SUB DUP3 AND DUP3 SUB PUSH2 0x1D59 JUMPI PUSH1 0x40 ADD MSTORE JUMP JUMPDEST PUSH1 0x20 DUP2 DUP4 SUB SLT PUSH2 0x1D59 JUMPI DUP1 MLOAD SWAP1 PUSH1 0x1 PUSH1 0x1 PUSH1 0x40 SHL SUB DUP3 GT PUSH2 0x1D59 JUMPI ADD PUSH2 0x140 DUP2 DUP4 SUB SLT PUSH2 0x1D59 JUMPI PUSH1 0x40 MLOAD SWAP2 PUSH2 0x2D59 DUP4 PUSH2 0x1E1F JUMP JUMPDEST DUP2 MLOAD PUSH1 0x7 DUP2 LT ISZERO PUSH2 0x1D59 JUMPI DUP4 MSTORE PUSH1 0x20 DUP3 ADD MLOAD PUSH1 0x20 DUP5 ADD MSTORE PUSH1 0x40 DUP3 ADD MLOAD PUSH1 0x40 DUP5 ADD MSTORE PUSH1 0x60 DUP3 ADD MLOAD PUSH1 0x60 DUP5 ADD MSTORE PUSH1 0x80 DUP3 ADD MLOAD PUSH1 0x80 DUP5 ADD MSTORE PUSH1 0xA0 DUP3 ADD MLOAD PUSH1 0xA0 DUP5 ADD MSTORE PUSH1 0xC0 DUP3 ADD MLOAD PUSH1 0xC0 DUP5 ADD MSTORE PUSH1 0xE0 DUP3 ADD MLOAD PUSH1 0x1 PUSH1 0x1 PUSH1 0x40 SHL SUB DUP2 GT PUSH2 0x1D59 JUMPI DUP2 PUSH2 0x2DC1 SWAP2 DUP5 ADD PUSH2 0x2CAD JUMP JUMPDEST PUSH1 0xE0 DUP5 ADD MSTORE PUSH2 0x100 DUP3 ADD MLOAD PUSH1 0x1 PUSH1 0x1 PUSH1 0x40 SHL SUB DUP2 GT PUSH2 0x1D59 JUMPI DUP2 PUSH2 0x2DE6 SWAP2 DUP5 ADD PUSH2 0x2CAD JUMP JUMPDEST PUSH2 0x100 DUP5 ADD MSTORE PUSH2 0x120 DUP3 ADD MLOAD PUSH1 0x1 PUSH1 0x1 PUSH1 0x40 SHL SUB DUP2 GT PUSH2 0x1D59 JUMPI PUSH2 0x2E0A SWAP3 ADD PUSH2 0x27F4 JUMP JUMPDEST PUSH2 0x120 DUP3 ADD MSTORE SWAP1 JUMP JUMPDEST PUSH2 0x2E2B PUSH1 0x40 SWAP3 SWAP6 SWAP5 SWAP4 SWAP6 PUSH1 0x60 DUP4 MSTORE PUSH1 0x60 DUP4 ADD SWAP1 PUSH2 0x1F79 JUMP JUMPDEST PUSH1 0x1 PUSH1 0x1 PUSH1 0xA0 SHL SUB SWAP1 SWAP6 AND PUSH1 0x20 DUP3 ADD MSTORE ADD MSTORE JUMP JUMPDEST PUSH1 0x2 PUSH0 SLOAD EQ PUSH2 0x2E4E JUMPI PUSH1 0x2 PUSH0 SSTORE JUMP JUMPDEST PUSH4 0x3EE5AEB5 PUSH1 0xE0 SHL PUSH0 MSTORE PUSH1 0x4 PUSH0 REVERT INVALID LOG2 PUSH5 0x6970667358 0x22 SLT KECCAK256 STATICCALL REVERT SWAP6 CALLDATASIZE 0xD6 0xCA 0xDE 0xC6 0xBD 0xF6 CALL 0xCA 0xD4 SLT DIV PUSH28 0x2D2C4C735B73F248AEBD52FFA3CB74A364736F6C634300081B003300 "},"methodIdentifiers":{"approveCdob((string,string,string,string,address),string,uint8)":"2dbcaf0f","approveCpotb((string,string,string,string,address),string,uint8)":"4e03317b","approveExtendCdob(string,string,string)":"4bb77ca6","approveExtendCpotb(string,string,string)":"0d011d1c","cdobCertificate()":"af3a1758","cpotbCertificate()":"d369111d","extendCdob(string,string,uint256)":"17a2e1f2","extendCpotb(string,string,uint256)":"2427a190","getAllCdob()":"f14261d2","getAllCpotb()":"5850607c","getCdobByInstance(string)":"d0927b19","getCdobDetails(string)":"7e8f8da7","getCpotbByInstance(string)":"51c2d326","getCpotbDetails(string)":"70c056b0","getRejectMsgCdob(string)":"17d96797","getRejectMsgCpotb(string)":"1a898044","rejectCdob(string,string,string,string,uint8)":"41ee1495","rejectCpotb(string,string,string,string,uint8)":"9c0abfd8","renewCdob((string,string,string,address),(string,string),(string,string,string,string,string,string,string,string))":"bbd0b8a9","renewCpotb((string,string,string,address),(string,string,string),(string,string))":"cb43b77f","requestCdob((string,string,string,address),uint8,(string,string),(string,string,string,string,string,string,string,string))":"1d430349","requestCpotb((string,string,string,address),uint8,string,(string,string,string),(string,string))":"87fecd3e","roleManager()":"00435da5"}}}}}