{"contracts/NieManager.sol":{"NieManager":{"abi":[{"inputs":[{"internalType":"address","name":"roleManagerAddr","type":"address"}],"stateMutability":"nonpayable","type":"constructor"},{"anonymous":false,"inputs":[{"indexed":false,"internalType":"string","name":"bpomInstance","type":"string"},{"indexed":false,"internalType":"address","name":"bpomAddr","type":"address"},{"indexed":false,"internalType":"string","name":"nieNumber","type":"string"},{"indexed":false,"internalType":"uint256","name":"tiemstamp","type":"uint256"}],"name":"NieApproved","type":"event"},{"anonymous":false,"inputs":[{"indexed":false,"internalType":"address","name":"factoryAddr","type":"address"},{"indexed":false,"internalType":"string","name":"nieNumber","type":"string"},{"indexed":false,"internalType":"uint256","name":"timestamp","type":"uint256"}],"name":"NieApprovedExtendRequest","type":"event"},{"anonymous":false,"inputs":[{"indexed":false,"internalType":"address","name":"factoryAddr","type":"address"},{"indexed":false,"internalType":"string","name":"nieNumber","type":"string"},{"indexed":false,"internalType":"uint256","name":"timestamp","type":"uint256"}],"name":"NieExtendRequest","type":"event"},{"anonymous":false,"inputs":[{"indexed":false,"internalType":"string","name":"bpomInstance","type":"string"},{"indexed":false,"internalType":"address","name":"bpomAddr","type":"address"},{"indexed":false,"internalType":"string","name":"rejectMsg","type":"string"},{"indexed":false,"internalType":"uint256","name":"tiemstamp","type":"uint256"}],"name":"NieRejected","type":"event"},{"anonymous":false,"inputs":[{"indexed":false,"internalType":"string","name":"factoryInstance","type":"string"},{"indexed":false,"internalType":"address","name":"factoryAddr","type":"address"},{"indexed":false,"internalType":"uint256","name":"timestamp","type":"uint256"}],"name":"NieRenewRequest","type":"event"},{"anonymous":false,"inputs":[{"indexed":false,"internalType":"string","name":"factoryInstance","type":"string"},{"indexed":false,"internalType":"address","name":"factoryAddr","type":"address"},{"indexed":false,"internalType":"uint256","name":"timestamp","type":"uint256"}],"name":"NieRequested","type":"event"},{"inputs":[{"internalType":"string","name":"obatId","type":"string"},{"internalType":"uint256","name":"expiredTimestamp","type":"uint256"}],"name":"approveExtendRequest","outputs":[],"stateMutability":"nonpayable","type":"function"},{"inputs":[{"internalType":"string","name":"obatId","type":"string"},{"internalType":"string","name":"nieNumber","type":"string"},{"internalType":"string","name":"bpomInstance","type":"string"}],"name":"approveNie","outputs":[],"stateMutability":"nonpayable","type":"function"},{"inputs":[{"internalType":"string","name":"obatId","type":"string"},{"internalType":"string","name":"factoryInstance","type":"string"}],"name":"createObatNie","outputs":[],"stateMutability":"nonpayable","type":"function"},{"inputs":[{"internalType":"string","name":"","type":"string"}],"name":"dokuObatById","outputs":[{"internalType":"string","name":"masterFormula","type":"string"},{"internalType":"string","name":"suratKuasa","type":"string"},{"internalType":"string","name":"suratPernyataan","type":"string"},{"internalType":"string","name":"komposisiProduk","type":"string"},{"internalType":"string","name":"caraPembuatanProduk","type":"string"},{"internalType":"string","name":"spesifikasiKemasan","type":"string"},{"internalType":"string","name":"hasilUjiStabilitas","type":"string"}],"stateMutability":"view","type":"function"},{"inputs":[{"internalType":"string","name":"","type":"string"}],"name":"dokuPendukungById","outputs":[{"internalType":"string","name":"sertifikatAnalisaBahanBaku","type":"string"},{"internalType":"string","name":"sertifikatAnalisaProdukJadi","type":"string"},{"internalType":"string","name":"spesifikasiProdukJadi","type":"string"},{"internalType":"string","name":"sistemPenomoranBets","type":"string"},{"internalType":"string","name":"desainKemasan","type":"string"},{"internalType":"string","name":"dataPendukungKeamanan","type":"string"}],"stateMutability":"view","type":"function"},{"inputs":[{"internalType":"string","name":"obatId","type":"string"},{"internalType":"uint256","name":"expiredTimestamp","type":"uint256"}],"name":"extendRequestNie","outputs":[],"stateMutability":"nonpayable","type":"function"},{"inputs":[{"internalType":"string","name":"obatId","type":"string"}],"name":"getNieDetail","outputs":[{"components":[{"internalType":"string","name":"nieNumber","type":"string"},{"internalType":"enum EnumsLibrary.NieStatus","name":"nieStatus","type":"uint8"},{"internalType":"uint256","name":"timestampProduction","type":"uint256"},{"internalType":"uint256","name":"timestampNieRequest","type":"uint256"},{"internalType":"uint256","name":"timestampNieApprove","type":"uint256"},{"internalType":"uint256","name":"timestampNieRejected","type":"uint256"},{"internalType":"uint256","name":"timestampNieRenewRequest","type":"uint256"},{"internalType":"uint256","name":"timestampNieExpired","type":"uint256"},{"internalType":"uint256","name":"timestampNieExtendRequest","type":"uint256"},{"internalType":"string","name":"factoryInstance","type":"string"},{"internalType":"string","name":"bpomInstance","type":"string"},{"internalType":"address","name":"bpomAddr","type":"address"}],"internalType":"struct NieManager.NieDetail","name":"","type":"tuple"},{"components":[{"internalType":"string","name":"masterFormula","type":"string"},{"internalType":"string","name":"suratKuasa","type":"string"},{"internalType":"string","name":"suratPernyataan","type":"string"},{"internalType":"string","name":"komposisiProduk","type":"string"},{"internalType":"string","name":"caraPembuatanProduk","type":"string"},{"internalType":"string","name":"spesifikasiKemasan","type":"string"},{"internalType":"string","name":"hasilUjiStabilitas","type":"string"}],"internalType":"struct NieManager.DokumenObat","name":"","type":"tuple"},{"components":[{"internalType":"string","name":"sertifikatAnalisaBahanBaku","type":"string"},{"internalType":"string","name":"sertifikatAnalisaProdukJadi","type":"string"},{"internalType":"string","name":"spesifikasiProdukJadi","type":"string"},{"internalType":"string","name":"sistemPenomoranBets","type":"string"},{"internalType":"string","name":"desainKemasan","type":"string"},{"internalType":"string","name":"dataPendukungKeamanan","type":"string"}],"internalType":"struct NieManager.DokumenPendukung","name":"","type":"tuple"}],"stateMutability":"view","type":"function"},{"inputs":[{"internalType":"string","name":"obatId","type":"string"}],"name":"getNieNumberAndStatus","outputs":[{"internalType":"string","name":"","type":"string"},{"internalType":"uint8","name":"","type":"uint8"}],"stateMutability":"view","type":"function"},{"inputs":[{"internalType":"string","name":"obatId","type":"string"}],"name":"getRejectMsgNie","outputs":[{"internalType":"string","name":"","type":"string"}],"stateMutability":"view","type":"function"},{"inputs":[{"internalType":"string","name":"","type":"string"}],"name":"nieDetailById","outputs":[{"internalType":"string","name":"nieNumber","type":"string"},{"internalType":"enum EnumsLibrary.NieStatus","name":"nieStatus","type":"uint8"},{"internalType":"uint256","name":"timestampProduction","type":"uint256"},{"internalType":"uint256","name":"timestampNieRequest","type":"uint256"},{"internalType":"uint256","name":"timestampNieApprove","type":"uint256"},{"internalType":"uint256","name":"timestampNieRejected","type":"uint256"},{"internalType":"uint256","name":"timestampNieRenewRequest","type":"uint256"},{"internalType":"uint256","name":"timestampNieExpired","type":"uint256"},{"internalType":"uint256","name":"timestampNieExtendRequest","type":"uint256"},{"internalType":"string","name":"factoryInstance","type":"string"},{"internalType":"string","name":"bpomInstance","type":"string"},{"internalType":"address","name":"bpomAddr","type":"address"}],"stateMutability":"view","type":"function"},{"inputs":[{"internalType":"string","name":"","type":"string"}],"name":"rejectMsgById","outputs":[{"internalType":"string","name":"","type":"string"}],"stateMutability":"view","type":"function"},{"inputs":[{"internalType":"string","name":"obatId","type":"string"},{"internalType":"string","name":"bpomInstance","type":"string"},{"internalType":"string","name":"rejectMsg","type":"string"}],"name":"rejectNie","outputs":[],"stateMutability":"nonpayable","type":"function"},{"inputs":[{"internalType":"string","name":"obatId","type":"string"},{"components":[{"internalType":"string","name":"masterFormula","type":"string"},{"internalType":"string","name":"suratKuasa","type":"string"},{"internalType":"string","name":"suratPernyataan","type":"string"},{"internalType":"string","name":"komposisiProduk","type":"string"},{"internalType":"string","name":"caraPembuatanProduk","type":"string"},{"internalType":"string","name":"spesifikasiKemasan","type":"string"},{"internalType":"string","name":"hasilUjiStabilitas","type":"string"}],"internalType":"struct NieManager.DokumenObat","name":"dokuObat","type":"tuple"},{"components":[{"internalType":"string","name":"sertifikatAnalisaBahanBaku","type":"string"},{"internalType":"string","name":"sertifikatAnalisaProdukJadi","type":"string"},{"internalType":"string","name":"spesifikasiProdukJadi","type":"string"},{"internalType":"string","name":"sistemPenomoranBets","type":"string"},{"internalType":"string","name":"desainKemasan","type":"string"},{"internalType":"string","name":"dataPendukungKeamanan","type":"string"}],"internalType":"struct NieManager.DokumenPendukung","name":"dokuPendukung","type":"tuple"}],"name":"renewRequestNie","outputs":[],"stateMutability":"nonpayable","type":"function"},{"inputs":[{"internalType":"string","name":"obatId","type":"string"},{"components":[{"internalType":"string","name":"masterFormula","type":"string"},{"internalType":"string","name":"suratKuasa","type":"string"},{"internalType":"string","name":"suratPernyataan","type":"string"},{"internalType":"string","name":"komposisiProduk","type":"string"},{"internalType":"string","name":"caraPembuatanProduk","type":"string"},{"internalType":"string","name":"spesifikasiKemasan","type":"string"},{"internalType":"string","name":"hasilUjiStabilitas","type":"string"}],"internalType":"struct NieManager.DokumenObat","name":"dokuObat","type":"tuple"},{"components":[{"internalType":"string","name":"sertifikatAnalisaBahanBaku","type":"string"},{"internalType":"string","name":"sertifikatAnalisaProdukJadi","type":"string"},{"internalType":"string","name":"spesifikasiProdukJadi","type":"string"},{"internalType":"string","name":"sistemPenomoranBets","type":"string"},{"internalType":"string","name":"desainKemasan","type":"string"},{"internalType":"string","name":"dataPendukungKeamanan","type":"string"}],"internalType":"struct NieManager.DokumenPendukung","name":"dokuPendukung","type":"tuple"}],"name":"requestNie","outputs":[],"stateMutability":"nonpayable","type":"function"},{"inputs":[],"name":"roleManager","outputs":[{"internalType":"contract RoleManager","name":"","type":"address"}],"stateMutability":"view","type":"function"}],"evm":{"bytecode":{"linkReferences":{},"object":"60a03461009657601f613af638819003918201601f19168301916001600160401b0383118484101761009a5780849260209460405283398101031261009657516001600160a01b0381169081900361009657608052604051613a4790816100af8239608051818181610228015281816105780152818161137801528181611f8d015281816123d9015281816124d601526132bb0152f35b5f80fd5b634e487b7160e01b5f52604160045260245ffdfe6080806040526004361015610012575f80fd5b5f3560e01c908162435da5146132a957508063108cbe611461249c57806319525e66146123a05780632594d59714612284578063283ef6f014611f5257806343d1b83914611aa257806359914db4146119a257806374a5abcf14611907578063ac007c1a146114c1578063bdedf0b814611453578063bf3f80ac14611453578063d944ff791461133f578063e509070a1461053e578063f21dea86146101eb5763f71ce722146100c0575f80fd5b346101e75760203660031901126101e7576004356001600160401b0381116101e7576100f090369060040161335d565b604051818192516020819201835e81015f815203602001902061011281613696565b600182015460ff16600283015492600381015491600482015490600583015460068401546007850154906008860154926009870161014f90613696565b9561015c600a8901613696565b97600160a01b6001900390600b015416986040519b8c9b6101808d526101808d0161018691613736565b9760208d01610194916137c5565b60408c015260608b015260808a015260a089015260c088015260e08701526101008601528481036101208601526101ca91613736565b8381036101408501526101dc91613736565b906101608301520390f35b5f80fd5b346101e7576101f93661375a565b6040516395a8c58d60e01b81523360048201526002602482015291929091906020826044816001600160a01b037f0000000000000000000000000000000000000000000000000000000000000000165afa908115610533576102676020939284935f91610506575b50613936565b604051928184925191829101835e81015f8152030190209180516001600160401b03811161045757610299845461365e565b601f81116104d6575b506020601f82116001146104765790806102d0925f9161046b575b508160011b915f199060031b1c19161790565b83555b60018301600260ff19825416179055426004840155600a830182516001600160401b03811161045757610306825461365e565b601f811161041c575b506020601f82116001146103bc57908061033c925f916103b157508160011b915f199060031b1c19161790565b90555b600b830180546001600160a01b03191633179055426078810190811061039d5760077f98f6eda79ce4c4856715a86ecdf2cb7ece1a5de8adf3de249b2ce9017b0e581094015561039860405192839242913390856139d8565b0390a1005b634e487b7160e01b5f52601160045260245ffd5b9050850151876102bd565b601f19821690835f52805f20915f5b818110610404575090836001949392106103ec575b5050811b01905561033f565b8601515f1960f88460031b161c1916905586806103e0565b9192602060018192868b0151815501940192016103cb565b61044790835f5260205f20601f840160051c8101916020851061044d575b601f0160051c0190613825565b8561030f565b909150819061043a565b634e487b7160e01b5f52604160045260245ffd5b9050830151866102bd565b601f19821690855f52805f20915f5b8181106104be575090836001949392106104a6575b5050811b0183556102d3565b8401515f1960f88460031b161c19169055858061049a565b91926020600181928689015181550194019201610485565b61050090855f5260205f20601f840160051c8101916020851061044d57601f0160051c0190613825565b846102a2565b6105269150843d861161052c575b61051e818361333c565b8101906137d2565b87610261565b503d610514565b6040513d5f823e3d90fd5b346101e75761054c366133b2565b6040516395a8c58d60e01b81523360048201525f60248201529092906020816044816001600160a01b037f0000000000000000000000000000000000000000000000000000000000000000165afa8015610533576105b1915f91611320575b506137ea565b604051916001825193602081818601968088835e81015f81520301902001600160ff19825416179055604051600383518086845e8201915f8352602081429403019020015560405160208184518087835e8101600281520301902081518051906001600160401b03821161045757610629835461365e565b601f81116112f0575b50602090601f831160011461128d5761066292915f9183610c9d575b50508160011b915f199060031b1c19161790565b81555b6001810160208301518051906001600160401b03821161045757610689835461365e565b601f811161125d575b50602090601f83116001146111fa576106c192915f91836110365750508160011b915f199060031b1c19161790565b90555b6002810160408301518051906001600160401b038211610457576106e8835461365e565b601f81116111ca575b50602090601f83116001146111675761072092915f91836110365750508160011b915f199060031b1c19161790565b90555b6003810160608301518051906001600160401b03821161045757610747835461365e565b601f8111611137575b50602090601f83116001146110d45761077f92915f91836110365750508160011b915f199060031b1c19161790565b90555b6004810160808301518051906001600160401b038211610457576107a6835461365e565b601f81116110a4575b50602090601f8311600114611041576107de92915f91836110365750508160011b915f199060031b1c19161790565b90555b6005810160a08301518051906001600160401b03821161045757610805835461365e565b601f8111611006575b50602090601f8311600114610f9d578260c0959360069593610844935f92610f925750508160011b915f199060031b1c19161790565b90555b019101518051906001600160401b03821161045757610866835461365e565b601f8111610f62575b50602090601f8311600114610eff5761089e92915f9183610e615750508160011b915f199060031b1c19161790565b90555b60405160208183518086835e8101600381520301902083518051906001600160401b038211610457576108d4835461365e565b601f8111610ecf575b50602090601f8311600114610e6c5761090c92915f9183610e615750508160011b915f199060031b1c19161790565b81555b6001810160208501518051906001600160401b03821161045757610933835461365e565b601f8111610e31575b50602090601f8311600114610dce5761096b92915f9183610c9d5750508160011b915f199060031b1c19161790565b90555b6002810160408501518051906001600160401b03821161045757610992835461365e565b601f8111610d9e575b50602090601f8311600114610d3b576109ca92915f9183610c9d5750508160011b915f199060031b1c19161790565b90555b6003810160608501518051906001600160401b038211610457576109f1835461365e565b601f8111610d0b575b50602090601f8311600114610ca857610a2992915f9183610c9d5750508160011b915f199060031b1c19161790565b90555b6004810160808501518051906001600160401b03821161045757610a50835461365e565b601f8111610c6d575b50602090601f8311600114610c04578260a0959360059593610a8f935f92610b3c5750508160011b915f199060031b1c19161790565b90555b019301519283516001600160401b03811161045757610ab1825461365e565b601f8111610bd4575b506020601f8211600114610b4757926103989492610b14836020946009977f351ab5a48b432d9a1035e20940d903771dcfec712ffe00601bad0ea1f4260f889a5f92610b3c5750508160011b915f199060031b1c19161790565b90555b604051928391518091835e81015f81520301902001604051918291429033908461390a565b015190508a8061064e565b601f19821695835f52815f20965f5b818110610bbc5750837f351ab5a48b432d9a1035e20940d903771dcfec712ffe00601bad0ea1f4260f88986009979461039899979460209760019510610ba4575b505050811b019055610b17565b01515f1960f88460031b161c19169055898080610b97565b83830151895560019098019760209384019301610b56565b610bfe90835f5260205f20601f840160051c8101916020851061044d57601f0160051c0190613825565b85610aba565b90601f19831691845f52815f20925f5b818110610c55575092600192859260a098966005989610610c3d575b505050811b019055610a92565b01515f1960f88460031b161c19169055898080610c30565b92936020600181928786015181550195019301610c14565b610c9790845f5260205f20601f850160051c8101916020861061044d57601f0160051c0190613825565b87610a59565b01519050888061064e565b90601f19831691845f52815f20925f5b818110610cf35750908460019594939210610cdb575b505050811b019055610a2c565b01515f1960f88460031b161c19169055878080610cce565b92936020600181928786015181550195019301610cb8565b610d3590845f5260205f20601f850160051c8101916020861061044d57601f0160051c0190613825565b876109fa565b90601f19831691845f52815f20925f5b818110610d865750908460019594939210610d6e575b505050811b0190556109cd565b01515f1960f88460031b161c19169055878080610d61565b92936020600181928786015181550195019301610d4b565b610dc890845f5260205f20601f850160051c8101916020861061044d57601f0160051c0190613825565b8761099b565b90601f19831691845f52815f20925f5b818110610e195750908460019594939210610e01575b505050811b01905561096e565b01515f1960f88460031b161c19169055878080610df4565b92936020600181928786015181550195019301610dde565b610e5b90845f5260205f20601f850160051c8101916020861061044d57601f0160051c0190613825565b8761093c565b01519050878061064e565b90601f19831691845f52815f20925f5b818110610eb75750908460019594939210610e9f575b505050811b01815561090f565b01515f1960f88460031b161c19169055868080610e92565b92936020600181928786015181550195019301610e7c565b610ef990845f5260205f20601f850160051c8101916020861061044d57601f0160051c0190613825565b866108dd565b90601f19831691845f52815f20925f5b818110610f4a5750908460019594939210610f32575b505050811b0190556108a1565b01515f1960f88460031b161c19169055868080610f25565b92936020600181928786015181550195019301610f0f565b610f8c90845f5260205f20601f850160051c8101916020861061044d57601f0160051c0190613825565b8661086f565b015190508b8061064e565b90601f19831691845f52815f20925f5b818110610fee575092600192859260c098966006989610610fd6575b505050811b019055610847565b01515f1960f88460031b161c191690558a8080610fc9565b92936020600181928786015181550195019301610fad565b61103090845f5260205f20601f850160051c8101916020861061044d57601f0160051c0190613825565b8861080e565b01519050898061064e565b90601f19831691845f52815f20925f5b81811061108c5750908460019594939210611074575b505050811b0190556107e1565b01515f1960f88460031b161c19169055888080611067565b92936020600181928786015181550195019301611051565b6110ce90845f5260205f20601f850160051c8101916020861061044d57601f0160051c0190613825565b886107af565b90601f19831691845f52815f20925f5b81811061111f5750908460019594939210611107575b505050811b019055610782565b01515f1960f88460031b161c191690558880806110fa565b929360206001819287860151815501950193016110e4565b61116190845f5260205f20601f850160051c8101916020861061044d57601f0160051c0190613825565b88610750565b90601f19831691845f52815f20925f5b8181106111b2575090846001959493921061119a575b505050811b019055610723565b01515f1960f88460031b161c1916905588808061118d565b92936020600181928786015181550195019301611177565b6111f490845f5260205f20601f850160051c8101916020861061044d57601f0160051c0190613825565b886106f1565b90601f19831691845f52815f20925f5b818110611245575090846001959493921061122d575b505050811b0190556106c4565b01515f1960f88460031b161c19169055888080611220565b9293602060018192878601518155019501930161120a565b61128790845f5260205f20601f850160051c8101916020861061044d57601f0160051c0190613825565b88610692565b90601f19831691845f52815f20925f5b8181106112d857509084600195949392106112c0575b505050811b018155610665565b01515f1960f88460031b161c191690558780806112b3565b9293602060018192878601518155019501930161129d565b61131a90845f5260205f20601f850160051c8101916020861061044d57601f0160051c0190613825565b87610632565b611339915060203d60201161052c5761051e818361333c565b856105ab565b346101e75761134d3661362d565b6040516395a8c58d60e01b81523360048201525f602482015290916020826044816001600160a01b037f0000000000000000000000000000000000000000000000000000000000000000165afa8015610533577f01cf95093010b490db14033b55896b7cdd44fadeb3aa3f7a7b9c779d5bce5304936113d96113e092610398955f9161143457506137ea565b421161396e565b6020604051918051928281818401958087835e81015f81520301902060018101600660ff19825416179055600842910155604051928391518091835e81015f815203019020604051918291429033846139ae565b61144d915060203d60201161052c5761051e818361333c565b876105ab565b346101e75760203660031901126101e7576004356001600160401b0381116101e7576114a960208061148c6114bd94369060040161335d565b604051928184925191829101835e81016001815203019020613696565b604051918291602083526020830190613736565b0390f35b346101e75760403660031901126101e7576004356001600160401b0381116101e7576114f190369060040161335d565b6024356001600160401b0381116101e75761151090369060040161335d565b5f806040519261151f846132ea565b83602095604051611530888261333c565b84815282528682018481526040830142815260608401868152608085019087825260a086019288845260c08701948986528c8060e08a01988c8a526101606101008c019b8e8d5261012081019d8e526040519e8f61158e868261333c565b5261014081019e8f52019d8e52604051928184925191829101835e81015f8152030190209b5180516001600160401b038111610457578e8e926115d1845461365e565b601f81116118d9575b5081601f8411600114611875575061160993505f91908361186a5750508160011b915f199060031b1c19161790565b8c555b60018c01905160088110156118565760ff801983541691161790555160028b01555160038a01555160048901555160058801555160068701555160078601555160088501556009840190518051906001600160401b03821161045757611672835461365e565b601f8111611828575b508690601f83116001146117c5576116a992915f9183610c9d5750508160011b915f199060031b1c19161790565b90555b600a83019051938451906001600160401b038211610457576116ce835461365e565b601f8111611797575b5080601f831160011461172f5750908061170992600b96975f92610e615750508160011b915f199060031b1c19161790565b90555b51910180546001600160a01b0319166001600160a01b0392909216919091179055005b90601f19831696845f52825f20925f905b89821061177f57505090839291600194600b989910611767575b505050811b01905561170c565b01515f1960f88460031b161c1916905586808061175a565b80600185968294968601518155019501930190611740565b6117bf90845f52825f20601f850160051c81019184861061044d57601f0160051c0190613825565b866116d7565b90601f19831691845f52885f20925f5b8a8282106118125750509084600195949392106117fa575b505050811b0190556116ac565b01515f1960f88460031b161c191690558780806117ed565b60018596829396860151815501950193016117d5565b61185090845f52885f20601f850160051c8101918a861061044d57601f0160051c0190613825565b8761167b565b634e487b7160e01b5f52602160045260245ffd5b015190505f8061064e565b5f9485528085209394601f198616915b8282106118c15750509084600195949392106118a9575b505050811b018c5561160c565b01515f1960f88460031b161c191690558f808061189c565b80600186978294978701518155019601940190611885565b61190190855f52835f20601f860160051c81019185871061044d57601f0160051c0190613825565b5f6115da565b346101e75760203660031901126101e7576004356001600160401b0381116101e75761193790369060040161335d565b60ff600160405160208451918181818801948086835e81015f81520301902094604051928391518091835e81015f81520301902001541660088110156118565761198361199892613696565b90604051928392604084526040840190613736565b9060208301520390f35b346101e75760203660031901126101e7576004356001600160401b0381116101e7576020806119d8611a5c93369060040161335d565b604051928184925191829101835e810160038152030190206114bd6119fc82613696565b91611a94611a0c60018301613696565b91611a86611a1c60028301613696565b611a78611a2b60038501613696565b91611a6a611a476005611a4060048901613696565b9701613696565b976040519b8c9b60c08d5260c08d0190613736565b908b820360208d0152613736565b9089820360408b0152613736565b908782036060890152613736565b908582036080870152613736565b9083820360a0850152613736565b346101e75760203660031901126101e7576004356001600160401b0381116101e757611ad290369060040161335d565b5f610160604051611ae2816132ea565b606081528260208201528260408201528260608201528260808201528260a08201528260c08201528260e082015282610100820152606061012082015260606101408201520152606060c0604051611b3981613306565b82815282602082015282604082015282808201528260808201528260a08201520152606060a0604051611b6b81613321565b82815282602082015282604082015282808201528260808201520152604051815190602081818501938085835e81015f815203019020906020604051818186518086835e8101600281520301902093604051928391518091835e810160038152030190209060405191611bdd836132ea565b611be682613696565b835260ff600183015416916008831015611856576114bd926020850152600281015460408501526003810154606085015260048101546080850152600581015460a0850152600681015460c0850152600781015460e08501526008810154610100850152611c5660098201613696565b610120850152611c68600a8201613696565b610140850152600b01546001600160a01b031661016084015260405193611cfb90600690611c9587613306565b611c9e81613696565b8752611cac60018201613696565b6020880152611cbd60028201613696565b6040880152611cce60038201613696565b6060880152611cdf60048201613696565b6080880152611cf060058201613696565b60a088015201613696565b60c0850152611d67600560405192611d1284613321565b611d1b81613696565b8452611d2960018201613696565b6020850152611d3a60028201613696565b6040850152611d4b60038201613696565b6060850152611d5c60048201613696565b608085015201613696565b60a0820152611ed060405194859460608652611e24611e0c611d97835161018060608b01526101e08a0190613736565b611da9602085015160808b01906137c5565b604084015160a08a0152606084015160c08a0152608084015160e08a015260a08401516101008a015260c08401516101208a015260e08401516101408a01526101008401516101608a0152610120840151605f198a8303016101808b0152613736565b610140830151888203605f19016101a08a0152613736565b9061016060018060a01b03910151166101c0870152858103602087015260c0611ebf611ead611e9b611e89611e77611e65885160e0895260e0890190613736565b602089015188820360208a0152613736565b60408801518782036040890152613736565b60608701518682036060880152613736565b60808601518582036080870152613736565b60a085015184820360a0860152613736565b9201519060c0818403910152613736565b838103604085015260a0611f41611f2f611f1d611f0b611ef9875160c0885260c0880190613736565b60208801518782036020890152613736565b60408701518682036040880152613736565b60608601518582036060870152613736565b60808501518482036080860152613736565b9201519060a0818403910152613736565b346101e757611f603661375a565b6040516395a8c58d60e01b8152336004820152600260248201529091906020816044816001600160a01b037f0000000000000000000000000000000000000000000000000000000000000000165afa801561053357611fc5915f916122655750613936565b604051835190602081818701938085835e81015f8152030190209360018501600360ff19825416179055600a8501948351956001600160401b0387116104575761200f815461365e565b601f8111612235575b50602096601f81116001146121d1578061204b916020969798995f916121c657508160011b915f199060031b1c19161790565b90555b600b810180546001600160a01b0319163317905542600590910155604051905190928391908190835e81016001815203019020918051926001600160401b0384116104575761209d815461365e565b601f8111612196575b50602093601f811160011461211657806120f5917f81b3714f32e3dd3d8faa1a5f7732e52e015be62219a6eae68d1a779f682db80b965f9161210b57508160011b915f199060031b1c19161790565b90555b61039860405192839242913390856139d8565b9050840151876102bd565b601f198116825f52855f20905f5b81811061217e5750907f81b3714f32e3dd3d8faa1a5f7732e52e015be62219a6eae68d1a779f682db80b96836001949310612166575b5050811b0190556120f8565b8501515f1960f88460031b161c19169055868061215a565b85880151835560209788019760019093019201612124565b6121c090825f5260205f20601f870160051c8101916020881061044d57601f0160051c0190613825565b846120a6565b90508801518a6102bd565b601f198116825f52885f20905f5b81811061221d575090602096979899836001949310612205575b5050811b01905561204e565b8901515f1960f88460031b161c1916905589806121f9565b888b0151835560209a8b019a600190930192016121df565b61225f90825f5260205f20601f8a0160051c81019160208b1061044d57601f0160051c0190613825565b87612018565b61227e915060203d60201161052c5761051e818361333c565b85610261565b346101e75760203660031901126101e7576004356001600160401b0381116101e75760206122b78192369060040161335d565b604051928184925191829101835e8101600281520301902060e06114bd6122dd83613696565b926123926122ed60018301613696565b916123846122fd60028301613696565b61237661230c60038501613696565b61236861231b60048701613696565b9361235a612337600661233060058b01613696565b9901613696565b9961234c6040519e8f9e8f8181520190613736565b8d810360208f015290613736565b908b820360408d0152613736565b9089820360608b0152613736565b908782036080890152613736565b9085820360a0870152613736565b9083820360c0850152613736565b346101e7576123ae3661362d565b6040516395a8c58d60e01b815233600482015260026024820152906020826044816001600160a01b037f0000000000000000000000000000000000000000000000000000000000000000165afa91821561053357612416926113d9915f916122655750613936565b604051815190602081818501938085835e81015f8152030190209060018201600760ff1982541617905560be42019182421161039d577fe559a2d1275a26fa8461f282f80a39ad42cbd7ccf7c977bce28be45c4d8418f3936103989360086020930155604051928391518091835e81015f815203019020604051918291429033846139ae565b346101e7576124aa366133b2565b6040516395a8c58d60e01b81523360048201525f60248201529092906020816044816001600160a01b037f0000000000000000000000000000000000000000000000000000000000000000165afa80156105335761250e915f9161132057506137ea565b60405191815192602081818501958087835e81015f81520301902060018101600460ff198254161790556006429101556125a4600660405160208186518089835e810160028152030190206125628161383b565b61256e6001820161383b565b61257a6002820161383b565b6125866003820161383b565b6125926004820161383b565b61259e6005820161383b565b0161383b565b6125f8600560405160208186518089835e810160038152030190206125c88161383b565b6125d46001820161383b565b6125e06002820161383b565b6125ec6003820161383b565b61259e6004820161383b565b60405160208184518087835e8101600281520301902081518051906001600160401b0382116104575761262b835461365e565b601f8111613279575b50602090601f83116001146132165761266392915f9183610c9d5750508160011b915f199060031b1c19161790565b81555b6001810160208301518051906001600160401b0382116104575761268a835461365e565b601f81116131e6575b50602090601f8311600114613183576126c292915f91836110365750508160011b915f199060031b1c19161790565b90555b6002810160408301518051906001600160401b038211610457576126e9835461365e565b601f8111613153575b50602090601f83116001146130f05761272192915f91836110365750508160011b915f199060031b1c19161790565b90555b6003810160608301518051906001600160401b03821161045757612748835461365e565b601f81116130c0575b50602090601f831160011461305d5761278092915f91836110365750508160011b915f199060031b1c19161790565b90555b6004810160808301518051906001600160401b038211610457576127a7835461365e565b601f811161302d575b50602090601f8311600114612fca576127df92915f91836110365750508160011b915f199060031b1c19161790565b90555b6005810160a08301518051906001600160401b03821161045757612806835461365e565b601f8111612f9a575b50602090601f8311600114612f31578260c0959360069593612845935f92610f925750508160011b915f199060031b1c19161790565b90555b019101518051906001600160401b03821161045757612867835461365e565b601f8111612f01575b50602090601f8311600114612e9e5761289f92915f9183610e615750508160011b915f199060031b1c19161790565b90555b60405160208183518086835e8101600381520301902083518051906001600160401b038211610457576128d5835461365e565b601f8111612e6e575b50602090601f8311600114612e0b5761290d92915f9183610e615750508160011b915f199060031b1c19161790565b81555b6001810160208501518051906001600160401b03821161045757612934835461365e565b601f8111612ddb575b50602090601f8311600114612d785761296c92915f9183610c9d5750508160011b915f199060031b1c19161790565b90555b6002810160408501518051906001600160401b03821161045757612993835461365e565b601f8111612d48575b50602090601f8311600114612ce5576129cb92915f9183610c9d5750508160011b915f199060031b1c19161790565b90555b6003810160608501518051906001600160401b038211610457576129f2835461365e565b601f8111612cb5575b50602090601f8311600114612c5257612a2a92915f9183610c9d5750508160011b915f199060031b1c19161790565b90555b6004810160808501518051906001600160401b03821161045757612a51835461365e565b601f8111612c22575b50602090601f8311600114612bb9578260a0959360059593612a90935f92610b3c5750508160011b915f199060031b1c19161790565b90555b019301519283516001600160401b03811161045757612ab2825461365e565b601f8111612b89575b506020601f8211600114612b1557926103989492610b14836020946009977fbe8dfefda19edb2ea695885130355727f7788a97d4b87a6612a78ee860ea23ab9a5f92610b3c5750508160011b915f199060031b1c19161790565b601f19821695835f52815f20965f5b818110612b715750837fbe8dfefda19edb2ea695885130355727f7788a97d4b87a6612a78ee860ea23ab986009979461039899979460209760019510610ba457505050811b019055610b17565b83830151895560019098019760209384019301612b24565b612bb390835f5260205f20601f840160051c8101916020851061044d57601f0160051c0190613825565b85612abb565b90601f19831691845f52815f20925f5b818110612c0a575092600192859260a098966005989610612bf2575b505050811b019055612a93565b01515f1960f88460031b161c19169055898080612be5565b92936020600181928786015181550195019301612bc9565b612c4c90845f5260205f20601f850160051c8101916020861061044d57601f0160051c0190613825565b87612a5a565b90601f19831691845f52815f20925f5b818110612c9d5750908460019594939210612c85575b505050811b019055612a2d565b01515f1960f88460031b161c19169055878080612c78565b92936020600181928786015181550195019301612c62565b612cdf90845f5260205f20601f850160051c8101916020861061044d57601f0160051c0190613825565b876129fb565b90601f19831691845f52815f20925f5b818110612d305750908460019594939210612d18575b505050811b0190556129ce565b01515f1960f88460031b161c19169055878080612d0b565b92936020600181928786015181550195019301612cf5565b612d7290845f5260205f20601f850160051c8101916020861061044d57601f0160051c0190613825565b8761299c565b90601f19831691845f52815f20925f5b818110612dc35750908460019594939210612dab575b505050811b01905561296f565b01515f1960f88460031b161c19169055878080612d9e565b92936020600181928786015181550195019301612d88565b612e0590845f5260205f20601f850160051c8101916020861061044d57601f0160051c0190613825565b8761293d565b90601f19831691845f52815f20925f5b818110612e565750908460019594939210612e3e575b505050811b018155612910565b01515f1960f88460031b161c19169055868080612e31565b92936020600181928786015181550195019301612e1b565b612e9890845f5260205f20601f850160051c8101916020861061044d57601f0160051c0190613825565b866128de565b90601f19831691845f52815f20925f5b818110612ee95750908460019594939210612ed1575b505050811b0190556128a2565b01515f1960f88460031b161c19169055868080612ec4565b92936020600181928786015181550195019301612eae565b612f2b90845f5260205f20601f850160051c8101916020861061044d57601f0160051c0190613825565b86612870565b90601f19831691845f52815f20925f5b818110612f82575092600192859260c098966006989610612f6a575b505050811b019055612848565b01515f1960f88460031b161c191690558a8080612f5d565b92936020600181928786015181550195019301612f41565b612fc490845f5260205f20601f850160051c8101916020861061044d57601f0160051c0190613825565b8861280f565b90601f19831691845f52815f20925f5b8181106130155750908460019594939210612ffd575b505050811b0190556127e2565b01515f1960f88460031b161c19169055888080612ff0565b92936020600181928786015181550195019301612fda565b61305790845f5260205f20601f850160051c8101916020861061044d57601f0160051c0190613825565b886127b0565b90601f19831691845f52815f20925f5b8181106130a85750908460019594939210613090575b505050811b019055612783565b01515f1960f88460031b161c19169055888080613083565b9293602060018192878601518155019501930161306d565b6130ea90845f5260205f20601f850160051c8101916020861061044d57601f0160051c0190613825565b88612751565b90601f19831691845f52815f20925f5b81811061313b5750908460019594939210613123575b505050811b019055612724565b01515f1960f88460031b161c19169055888080613116565b92936020600181928786015181550195019301613100565b61317d90845f5260205f20601f850160051c8101916020861061044d57601f0160051c0190613825565b886126f2565b90601f19831691845f52815f20925f5b8181106131ce57509084600195949392106131b6575b505050811b0190556126c5565b01515f1960f88460031b161c191690558880806131a9565b92936020600181928786015181550195019301613193565b61321090845f5260205f20601f850160051c8101916020861061044d57601f0160051c0190613825565b88612693565b90601f19831691845f52815f20925f5b8181106132615750908460019594939210613249575b505050811b018155612666565b01515f1960f88460031b161c1916905587808061323c565b92936020600181928786015181550195019301613226565b6132a390845f5260205f20601f850160051c8101916020861061044d57601f0160051c0190613825565b87612634565b346101e7575f3660031901126101e7577f00000000000000000000000000000000000000000000000000000000000000006001600160a01b03168152602090f35b61018081019081106001600160401b0382111761045757604052565b60e081019081106001600160401b0382111761045757604052565b60c081019081106001600160401b0382111761045757604052565b90601f801991011681019081106001600160401b0382111761045757604052565b81601f820112156101e7578035906001600160401b0382116104575760405192613391601f8401601f19166020018561333c565b828452602083830101116101e757815f926020809301838601378301015290565b60606003198201126101e7576004356001600160401b0381116101e757816133dc9160040161335d565b916024356001600160401b0381116101e75760e081840360031901126101e7576040519061340982613306565b80600401356001600160401b0381116101e75784600461342b9284010161335d565b825260248101356001600160401b0381116101e75784600461344f9284010161335d565b602083015260448101356001600160401b0381116101e7578460046134769284010161335d565b604083015260648101356001600160401b0381116101e75784600461349d9284010161335d565b606083015260848101356001600160401b0381116101e7578460046134c49284010161335d565b608083015260a48101356001600160401b0381116101e7578460046134eb9284010161335d565b60a083015260c48101356001600160401b0381116101e7576004859161351293010161335d565b60c0820152916044356001600160401b0381116101e75760c081830360031901126101e7576040519161354483613321565b81600401356001600160401b0381116101e7578160046135669285010161335d565b835260248201356001600160401b0381116101e75781600461358a9285010161335d565b602084015260448201356001600160401b0381116101e7578160046135b19285010161335d565b604084015260648201356001600160401b0381116101e7578160046135d89285010161335d565b606084015260848201356001600160401b0381116101e7578160046135ff9285010161335d565b608084015260a4820135916001600160401b0383116101e757613625920160040161335d565b60a082015290565b60406003198201126101e757600435906001600160401b0382116101e7576136579160040161335d565b9060243590565b90600182811c9216801561368c575b602083101461367857565b634e487b7160e01b5f52602260045260245ffd5b91607f169161366d565b9060405191825f8254926136a98461365e565b808452936001811690811561371457506001146136d0575b506136ce9250038361333c565b565b90505f9291925260205f20905f915b8183106136f85750509060206136ce928201015f6136c1565b60209193508060019154838589010152019101909184926136df565b9050602092506136ce94915060ff191682840152151560051b8201015f6136c1565b805180835260209291819084018484015e5f828201840152601f01601f1916010190565b60606003198201126101e7576004356001600160401b0381116101e757816137849160040161335d565b916024356001600160401b0381116101e757826137a39160040161335d565b91604435906001600160401b0382116101e7576137c29160040161335d565b90565b9060088210156118565752565b908160209103126101e7575180151581036101e75790565b156137f157565b60405162461bcd60e51b815260206004820152600c60248201526b4f6e6c7920466163746f727960a01b6044820152606490fd5b818110613830575050565b5f8155600101613825565b613845815461365e565b908161384f575050565b81601f5f9311600114613860575055565b8183526020832061387c91601f0160051c810190600101613825565b8082528160208120915555565b5f92918154916138988361365e565b80835292600181169081156138ed57506001146138b457505050565b5f9081526020812093945091925b8383106138d3575060209250010190565b6001816020929493945483858701015201910191906138c2565b915050602093945060ff929192191683830152151560051b010190565b61392260409295949395606083526060830190613889565b6001600160a01b0390951660208201520152565b1561393d57565b60405162461bcd60e51b81526020600482015260096024820152684f6e6c792042504f4d60b81b6044820152606490fd5b1561397557565b60405162461bcd60e51b81526020600482015260116024820152704e4945206d61736968206265726c616b7560781b6044820152606490fd5b9392916139d39060409260018060a01b03168652606060208701526060860190613889565b930152565b949392916060926139f46139d393608089526080890190613736565b6001600160a01b039092166020880152868203604088015261373656fea264697066735822122030427fa6c6c6ae55ec5495be26b3f11b6329a4a092e4d99b748a0808cf0868b664736f6c634300081b0033","opcodes":"PUSH1 0xA0 CALLVALUE PUSH2 0x96 JUMPI PUSH1 0x1F PUSH2 0x3AF6 CODESIZE DUP2 SWAP1 SUB SWAP2 DUP3 ADD PUSH1 0x1F NOT AND DUP4 ADD SWAP2 PUSH1 0x1 PUSH1 0x1 PUSH1 0x40 SHL SUB DUP4 GT DUP5 DUP5 LT OR PUSH2 0x9A JUMPI DUP1 DUP5 SWAP3 PUSH1 0x20 SWAP5 PUSH1 0x40 MSTORE DUP4 CODECOPY DUP2 ADD SUB SLT PUSH2 0x96 JUMPI MLOAD PUSH1 0x1 PUSH1 0x1 PUSH1 0xA0 SHL SUB DUP2 AND SWAP1 DUP2 SWAP1 SUB PUSH2 0x96 JUMPI PUSH1 0x80 MSTORE PUSH1 0x40 MLOAD PUSH2 0x3A47 SWAP1 DUP2 PUSH2 0xAF DUP3 CODECOPY PUSH1 0x80 MLOAD DUP2 DUP2 DUP2 PUSH2 0x228 ADD MSTORE DUP2 DUP2 PUSH2 0x578 ADD MSTORE DUP2 DUP2 PUSH2 0x1378 ADD MSTORE DUP2 DUP2 PUSH2 0x1F8D ADD MSTORE DUP2 DUP2 PUSH2 0x23D9 ADD MSTORE DUP2 DUP2 PUSH2 0x24D6 ADD MSTORE PUSH2 0x32BB ADD MSTORE RETURN JUMPDEST PUSH0 DUP1 REVERT JUMPDEST PUSH4 0x4E487B71 PUSH1 0xE0 SHL PUSH0 MSTORE PUSH1 0x41 PUSH1 0x4 MSTORE PUSH1 0x24 PUSH0 REVERT INVALID PUSH1 0x80 DUP1 PUSH1 0x40 MSTORE PUSH1 0x4 CALLDATASIZE LT ISZERO PUSH2 0x12 JUMPI PUSH0 DUP1 REVERT JUMPDEST PUSH0 CALLDATALOAD PUSH1 0xE0 SHR SWAP1 DUP2 PUSH3 0x435DA5 EQ PUSH2 0x32A9 JUMPI POP DUP1 PUSH4 0x108CBE61 EQ PUSH2 0x249C JUMPI DUP1 PUSH4 0x19525E66 EQ PUSH2 0x23A0 JUMPI DUP1 PUSH4 0x2594D597 EQ PUSH2 0x2284 JUMPI DUP1 PUSH4 0x283EF6F0 EQ PUSH2 0x1F52 JUMPI DUP1 PUSH4 0x43D1B839 EQ PUSH2 0x1AA2 JUMPI DUP1 PUSH4 0x59914DB4 EQ PUSH2 0x19A2 JUMPI DUP1 PUSH4 0x74A5ABCF EQ PUSH2 0x1907 JUMPI DUP1 PUSH4 0xAC007C1A EQ PUSH2 0x14C1 JUMPI DUP1 PUSH4 0xBDEDF0B8 EQ PUSH2 0x1453 JUMPI DUP1 PUSH4 0xBF3F80AC EQ PUSH2 0x1453 JUMPI DUP1 PUSH4 0xD944FF79 EQ PUSH2 0x133F JUMPI DUP1 PUSH4 0xE509070A EQ PUSH2 0x53E JUMPI DUP1 PUSH4 0xF21DEA86 EQ PUSH2 0x1EB JUMPI PUSH4 0xF71CE722 EQ PUSH2 0xC0 JUMPI PUSH0 DUP1 REVERT JUMPDEST CALLVALUE PUSH2 0x1E7 JUMPI PUSH1 0x20 CALLDATASIZE PUSH1 0x3 NOT ADD SLT PUSH2 0x1E7 JUMPI PUSH1 0x4 CALLDATALOAD PUSH1 0x1 PUSH1 0x1 PUSH1 0x40 SHL SUB DUP2 GT PUSH2 0x1E7 JUMPI PUSH2 0xF0 SWAP1 CALLDATASIZE SWAP1 PUSH1 0x4 ADD PUSH2 0x335D JUMP JUMPDEST PUSH1 0x40 MLOAD DUP2 DUP2 SWAP3 MLOAD PUSH1 0x20 DUP2 SWAP3 ADD DUP4 MCOPY DUP2 ADD PUSH0 DUP2 MSTORE SUB PUSH1 0x20 ADD SWAP1 KECCAK256 PUSH2 0x112 DUP2 PUSH2 0x3696 JUMP JUMPDEST PUSH1 0x1 DUP3 ADD SLOAD PUSH1 0xFF AND PUSH1 0x2 DUP4 ADD SLOAD SWAP3 PUSH1 0x3 DUP2 ADD SLOAD SWAP2 PUSH1 0x4 DUP3 ADD SLOAD SWAP1 PUSH1 0x5 DUP4 ADD SLOAD PUSH1 0x6 DUP5 ADD SLOAD PUSH1 0x7 DUP6 ADD SLOAD SWAP1 PUSH1 0x8 DUP7 ADD SLOAD SWAP3 PUSH1 0x9 DUP8 ADD PUSH2 0x14F SWAP1 PUSH2 0x3696 JUMP JUMPDEST SWAP6 PUSH2 0x15C PUSH1 0xA DUP10 ADD PUSH2 0x3696 JUMP JUMPDEST SWAP8 PUSH1 0x1 PUSH1 0xA0 SHL PUSH1 0x1 SWAP1 SUB SWAP1 PUSH1 0xB ADD SLOAD AND SWAP9 PUSH1 0x40 MLOAD SWAP12 DUP13 SWAP12 PUSH2 0x180 DUP14 MSTORE PUSH2 0x180 DUP14 ADD PUSH2 0x186 SWAP2 PUSH2 0x3736 JUMP JUMPDEST SWAP8 PUSH1 0x20 DUP14 ADD PUSH2 0x194 SWAP2 PUSH2 0x37C5 JUMP JUMPDEST PUSH1 0x40 DUP13 ADD MSTORE PUSH1 0x60 DUP12 ADD MSTORE PUSH1 0x80 DUP11 ADD MSTORE PUSH1 0xA0 DUP10 ADD MSTORE PUSH1 0xC0 DUP9 ADD MSTORE PUSH1 0xE0 DUP8 ADD MSTORE PUSH2 0x100 DUP7 ADD MSTORE DUP5 DUP2 SUB PUSH2 0x120 DUP7 ADD MSTORE PUSH2 0x1CA SWAP2 PUSH2 0x3736 JUMP JUMPDEST DUP4 DUP2 SUB PUSH2 0x140 DUP6 ADD MSTORE PUSH2 0x1DC SWAP2 PUSH2 0x3736 JUMP JUMPDEST SWAP1 PUSH2 0x160 DUP4 ADD MSTORE SUB SWAP1 RETURN JUMPDEST PUSH0 DUP1 REVERT JUMPDEST CALLVALUE PUSH2 0x1E7 JUMPI PUSH2 0x1F9 CALLDATASIZE PUSH2 0x375A JUMP JUMPDEST PUSH1 0x40 MLOAD PUSH4 0x95A8C58D PUSH1 0xE0 SHL DUP2 MSTORE CALLER PUSH1 0x4 DUP3 ADD MSTORE PUSH1 0x2 PUSH1 0x24 DUP3 ADD MSTORE SWAP2 SWAP3 SWAP1 SWAP2 SWAP1 PUSH1 0x20 DUP3 PUSH1 0x44 DUP2 PUSH1 0x1 PUSH1 0x1 PUSH1 0xA0 SHL SUB PUSH32 0x0 AND GAS STATICCALL SWAP1 DUP2 ISZERO PUSH2 0x533 JUMPI PUSH2 0x267 PUSH1 0x20 SWAP4 SWAP3 DUP5 SWAP4 PUSH0 SWAP2 PUSH2 0x506 JUMPI JUMPDEST POP PUSH2 0x3936 JUMP JUMPDEST PUSH1 0x40 MLOAD SWAP3 DUP2 DUP5 SWAP3 MLOAD SWAP2 DUP3 SWAP2 ADD DUP4 MCOPY DUP2 ADD PUSH0 DUP2 MSTORE SUB ADD SWAP1 KECCAK256 SWAP2 DUP1 MLOAD PUSH1 0x1 PUSH1 0x1 PUSH1 0x40 SHL SUB DUP2 GT PUSH2 0x457 JUMPI PUSH2 0x299 DUP5 SLOAD PUSH2 0x365E JUMP JUMPDEST PUSH1 0x1F DUP2 GT PUSH2 0x4D6 JUMPI JUMPDEST POP PUSH1 0x20 PUSH1 0x1F DUP3 GT PUSH1 0x1 EQ PUSH2 0x476 JUMPI SWAP1 DUP1 PUSH2 0x2D0 SWAP3 PUSH0 SWAP2 PUSH2 0x46B JUMPI JUMPDEST POP DUP2 PUSH1 0x1 SHL SWAP2 PUSH0 NOT SWAP1 PUSH1 0x3 SHL SHR NOT AND OR SWAP1 JUMP JUMPDEST DUP4 SSTORE JUMPDEST PUSH1 0x1 DUP4 ADD PUSH1 0x2 PUSH1 0xFF NOT DUP3 SLOAD AND OR SWAP1 SSTORE TIMESTAMP PUSH1 0x4 DUP5 ADD SSTORE PUSH1 0xA DUP4 ADD DUP3 MLOAD PUSH1 0x1 PUSH1 0x1 PUSH1 0x40 SHL SUB DUP2 GT PUSH2 0x457 JUMPI PUSH2 0x306 DUP3 SLOAD PUSH2 0x365E JUMP JUMPDEST PUSH1 0x1F DUP2 GT PUSH2 0x41C JUMPI JUMPDEST POP PUSH1 0x20 PUSH1 0x1F DUP3 GT PUSH1 0x1 EQ PUSH2 0x3BC JUMPI SWAP1 DUP1 PUSH2 0x33C SWAP3 PUSH0 SWAP2 PUSH2 0x3B1 JUMPI POP DUP2 PUSH1 0x1 SHL SWAP2 PUSH0 NOT SWAP1 PUSH1 0x3 SHL SHR NOT AND OR SWAP1 JUMP JUMPDEST SWAP1 SSTORE JUMPDEST PUSH1 0xB DUP4 ADD DUP1 SLOAD PUSH1 0x1 PUSH1 0x1 PUSH1 0xA0 SHL SUB NOT AND CALLER OR SWAP1 SSTORE TIMESTAMP PUSH1 0x78 DUP2 ADD SWAP1 DUP2 LT PUSH2 0x39D JUMPI PUSH1 0x7 PUSH32 0x98F6EDA79CE4C4856715A86ECDF2CB7ECE1A5DE8ADF3DE249B2CE9017B0E5810 SWAP5 ADD SSTORE PUSH2 0x398 PUSH1 0x40 MLOAD SWAP3 DUP4 SWAP3 TIMESTAMP SWAP2 CALLER SWAP1 DUP6 PUSH2 0x39D8 JUMP JUMPDEST SUB SWAP1 LOG1 STOP JUMPDEST PUSH4 0x4E487B71 PUSH1 0xE0 SHL PUSH0 MSTORE PUSH1 0x11 PUSH1 0x4 MSTORE PUSH1 0x24 PUSH0 REVERT JUMPDEST SWAP1 POP DUP6 ADD MLOAD DUP8 PUSH2 0x2BD JUMP JUMPDEST PUSH1 0x1F NOT DUP3 AND SWAP1 DUP4 PUSH0 MSTORE DUP1 PUSH0 KECCAK256 SWAP2 PUSH0 JUMPDEST DUP2 DUP2 LT PUSH2 0x404 JUMPI POP SWAP1 DUP4 PUSH1 0x1 SWAP5 SWAP4 SWAP3 LT PUSH2 0x3EC JUMPI JUMPDEST POP POP DUP2 SHL ADD SWAP1 SSTORE PUSH2 0x33F JUMP JUMPDEST DUP7 ADD MLOAD PUSH0 NOT PUSH1 0xF8 DUP5 PUSH1 0x3 SHL AND SHR NOT AND SWAP1 SSTORE DUP7 DUP1 PUSH2 0x3E0 JUMP JUMPDEST SWAP2 SWAP3 PUSH1 0x20 PUSH1 0x1 DUP2 SWAP3 DUP7 DUP12 ADD MLOAD DUP2 SSTORE ADD SWAP5 ADD SWAP3 ADD PUSH2 0x3CB JUMP JUMPDEST PUSH2 0x447 SWAP1 DUP4 PUSH0 MSTORE PUSH1 0x20 PUSH0 KECCAK256 PUSH1 0x1F DUP5 ADD PUSH1 0x5 SHR DUP2 ADD SWAP2 PUSH1 0x20 DUP6 LT PUSH2 0x44D JUMPI JUMPDEST PUSH1 0x1F ADD PUSH1 0x5 SHR ADD SWAP1 PUSH2 0x3825 JUMP JUMPDEST DUP6 PUSH2 0x30F JUMP JUMPDEST SWAP1 SWAP2 POP DUP2 SWAP1 PUSH2 0x43A JUMP JUMPDEST PUSH4 0x4E487B71 PUSH1 0xE0 SHL PUSH0 MSTORE PUSH1 0x41 PUSH1 0x4 MSTORE PUSH1 0x24 PUSH0 REVERT JUMPDEST SWAP1 POP DUP4 ADD MLOAD DUP7 PUSH2 0x2BD JUMP JUMPDEST PUSH1 0x1F NOT DUP3 AND SWAP1 DUP6 PUSH0 MSTORE DUP1 PUSH0 KECCAK256 SWAP2 PUSH0 JUMPDEST DUP2 DUP2 LT PUSH2 0x4BE JUMPI POP SWAP1 DUP4 PUSH1 0x1 SWAP5 SWAP4 SWAP3 LT PUSH2 0x4A6 JUMPI JUMPDEST POP POP DUP2 SHL ADD DUP4 SSTORE PUSH2 0x2D3 JUMP JUMPDEST DUP5 ADD MLOAD PUSH0 NOT PUSH1 0xF8 DUP5 PUSH1 0x3 SHL AND SHR NOT AND SWAP1 SSTORE DUP6 DUP1 PUSH2 0x49A JUMP JUMPDEST SWAP2 SWAP3 PUSH1 0x20 PUSH1 0x1 DUP2 SWAP3 DUP7 DUP10 ADD MLOAD DUP2 SSTORE ADD SWAP5 ADD SWAP3 ADD PUSH2 0x485 JUMP JUMPDEST PUSH2 0x500 SWAP1 DUP6 PUSH0 MSTORE PUSH1 0x20 PUSH0 KECCAK256 PUSH1 0x1F DUP5 ADD PUSH1 0x5 SHR DUP2 ADD SWAP2 PUSH1 0x20 DUP6 LT PUSH2 0x44D JUMPI PUSH1 0x1F ADD PUSH1 0x5 SHR ADD SWAP1 PUSH2 0x3825 JUMP JUMPDEST DUP5 PUSH2 0x2A2 JUMP JUMPDEST PUSH2 0x526 SWAP2 POP DUP5 RETURNDATASIZE DUP7 GT PUSH2 0x52C JUMPI JUMPDEST PUSH2 0x51E DUP2 DUP4 PUSH2 0x333C JUMP JUMPDEST DUP2 ADD SWAP1 PUSH2 0x37D2 JUMP JUMPDEST DUP8 PUSH2 0x261 JUMP JUMPDEST POP RETURNDATASIZE PUSH2 0x514 JUMP JUMPDEST PUSH1 0x40 MLOAD RETURNDATASIZE PUSH0 DUP3 RETURNDATACOPY RETURNDATASIZE SWAP1 REVERT JUMPDEST CALLVALUE PUSH2 0x1E7 JUMPI PUSH2 0x54C CALLDATASIZE PUSH2 0x33B2 JUMP JUMPDEST PUSH1 0x40 MLOAD PUSH4 0x95A8C58D PUSH1 0xE0 SHL DUP2 MSTORE CALLER PUSH1 0x4 DUP3 ADD MSTORE PUSH0 PUSH1 0x24 DUP3 ADD MSTORE SWAP1 SWAP3 SWAP1 PUSH1 0x20 DUP2 PUSH1 0x44 DUP2 PUSH1 0x1 PUSH1 0x1 PUSH1 0xA0 SHL SUB PUSH32 0x0 AND GAS STATICCALL DUP1 ISZERO PUSH2 0x533 JUMPI PUSH2 0x5B1 SWAP2 PUSH0 SWAP2 PUSH2 0x1320 JUMPI JUMPDEST POP PUSH2 0x37EA JUMP JUMPDEST PUSH1 0x40 MLOAD SWAP2 PUSH1 0x1 DUP3 MLOAD SWAP4 PUSH1 0x20 DUP2 DUP2 DUP7 ADD SWAP7 DUP1 DUP9 DUP4 MCOPY DUP2 ADD PUSH0 DUP2 MSTORE SUB ADD SWAP1 KECCAK256 ADD PUSH1 0x1 PUSH1 0xFF NOT DUP3 SLOAD AND OR SWAP1 SSTORE PUSH1 0x40 MLOAD PUSH1 0x3 DUP4 MLOAD DUP1 DUP7 DUP5 MCOPY DUP3 ADD SWAP2 PUSH0 DUP4 MSTORE PUSH1 0x20 DUP2 TIMESTAMP SWAP5 SUB ADD SWAP1 KECCAK256 ADD SSTORE PUSH1 0x40 MLOAD PUSH1 0x20 DUP2 DUP5 MLOAD DUP1 DUP8 DUP4 MCOPY DUP2 ADD PUSH1 0x2 DUP2 MSTORE SUB ADD SWAP1 KECCAK256 DUP2 MLOAD DUP1 MLOAD SWAP1 PUSH1 0x1 PUSH1 0x1 PUSH1 0x40 SHL SUB DUP3 GT PUSH2 0x457 JUMPI PUSH2 0x629 DUP4 SLOAD PUSH2 0x365E JUMP JUMPDEST PUSH1 0x1F DUP2 GT PUSH2 0x12F0 JUMPI JUMPDEST POP PUSH1 0x20 SWAP1 PUSH1 0x1F DUP4 GT PUSH1 0x1 EQ PUSH2 0x128D JUMPI PUSH2 0x662 SWAP3 SWAP2 PUSH0 SWAP2 DUP4 PUSH2 0xC9D JUMPI JUMPDEST POP POP DUP2 PUSH1 0x1 SHL SWAP2 PUSH0 NOT SWAP1 PUSH1 0x3 SHL SHR NOT AND OR SWAP1 JUMP JUMPDEST DUP2 SSTORE JUMPDEST PUSH1 0x1 DUP2 ADD PUSH1 0x20 DUP4 ADD MLOAD DUP1 MLOAD SWAP1 PUSH1 0x1 PUSH1 0x1 PUSH1 0x40 SHL SUB DUP3 GT PUSH2 0x457 JUMPI PUSH2 0x689 DUP4 SLOAD PUSH2 0x365E JUMP JUMPDEST PUSH1 0x1F DUP2 GT PUSH2 0x125D JUMPI JUMPDEST POP PUSH1 0x20 SWAP1 PUSH1 0x1F DUP4 GT PUSH1 0x1 EQ PUSH2 0x11FA JUMPI PUSH2 0x6C1 SWAP3 SWAP2 PUSH0 SWAP2 DUP4 PUSH2 0x1036 JUMPI POP POP DUP2 PUSH1 0x1 SHL SWAP2 PUSH0 NOT SWAP1 PUSH1 0x3 SHL SHR NOT AND OR SWAP1 JUMP JUMPDEST SWAP1 SSTORE JUMPDEST PUSH1 0x2 DUP2 ADD PUSH1 0x40 DUP4 ADD MLOAD DUP1 MLOAD SWAP1 PUSH1 0x1 PUSH1 0x1 PUSH1 0x40 SHL SUB DUP3 GT PUSH2 0x457 JUMPI PUSH2 0x6E8 DUP4 SLOAD PUSH2 0x365E JUMP JUMPDEST PUSH1 0x1F DUP2 GT PUSH2 0x11CA JUMPI JUMPDEST POP PUSH1 0x20 SWAP1 PUSH1 0x1F DUP4 GT PUSH1 0x1 EQ PUSH2 0x1167 JUMPI PUSH2 0x720 SWAP3 SWAP2 PUSH0 SWAP2 DUP4 PUSH2 0x1036 JUMPI POP POP DUP2 PUSH1 0x1 SHL SWAP2 PUSH0 NOT SWAP1 PUSH1 0x3 SHL SHR NOT AND OR SWAP1 JUMP JUMPDEST SWAP1 SSTORE JUMPDEST PUSH1 0x3 DUP2 ADD PUSH1 0x60 DUP4 ADD MLOAD DUP1 MLOAD SWAP1 PUSH1 0x1 PUSH1 0x1 PUSH1 0x40 SHL SUB DUP3 GT PUSH2 0x457 JUMPI PUSH2 0x747 DUP4 SLOAD PUSH2 0x365E JUMP JUMPDEST PUSH1 0x1F DUP2 GT PUSH2 0x1137 JUMPI JUMPDEST POP PUSH1 0x20 SWAP1 PUSH1 0x1F DUP4 GT PUSH1 0x1 EQ PUSH2 0x10D4 JUMPI PUSH2 0x77F SWAP3 SWAP2 PUSH0 SWAP2 DUP4 PUSH2 0x1036 JUMPI POP POP DUP2 PUSH1 0x1 SHL SWAP2 PUSH0 NOT SWAP1 PUSH1 0x3 SHL SHR NOT AND OR SWAP1 JUMP JUMPDEST SWAP1 SSTORE JUMPDEST PUSH1 0x4 DUP2 ADD PUSH1 0x80 DUP4 ADD MLOAD DUP1 MLOAD SWAP1 PUSH1 0x1 PUSH1 0x1 PUSH1 0x40 SHL SUB DUP3 GT PUSH2 0x457 JUMPI PUSH2 0x7A6 DUP4 SLOAD PUSH2 0x365E JUMP JUMPDEST PUSH1 0x1F DUP2 GT PUSH2 0x10A4 JUMPI JUMPDEST POP PUSH1 0x20 SWAP1 PUSH1 0x1F DUP4 GT PUSH1 0x1 EQ PUSH2 0x1041 JUMPI PUSH2 0x7DE SWAP3 SWAP2 PUSH0 SWAP2 DUP4 PUSH2 0x1036 JUMPI POP POP DUP2 PUSH1 0x1 SHL SWAP2 PUSH0 NOT SWAP1 PUSH1 0x3 SHL SHR NOT AND OR SWAP1 JUMP JUMPDEST SWAP1 SSTORE JUMPDEST PUSH1 0x5 DUP2 ADD PUSH1 0xA0 DUP4 ADD MLOAD DUP1 MLOAD SWAP1 PUSH1 0x1 PUSH1 0x1 PUSH1 0x40 SHL SUB DUP3 GT PUSH2 0x457 JUMPI PUSH2 0x805 DUP4 SLOAD PUSH2 0x365E JUMP JUMPDEST PUSH1 0x1F DUP2 GT PUSH2 0x1006 JUMPI JUMPDEST POP PUSH1 0x20 SWAP1 PUSH1 0x1F DUP4 GT PUSH1 0x1 EQ PUSH2 0xF9D JUMPI DUP3 PUSH1 0xC0 SWAP6 SWAP4 PUSH1 0x6 SWAP6 SWAP4 PUSH2 0x844 SWAP4 PUSH0 SWAP3 PUSH2 0xF92 JUMPI POP POP DUP2 PUSH1 0x1 SHL SWAP2 PUSH0 NOT SWAP1 PUSH1 0x3 SHL SHR NOT AND OR SWAP1 JUMP JUMPDEST SWAP1 SSTORE JUMPDEST ADD SWAP2 ADD MLOAD DUP1 MLOAD SWAP1 PUSH1 0x1 PUSH1 0x1 PUSH1 0x40 SHL SUB DUP3 GT PUSH2 0x457 JUMPI PUSH2 0x866 DUP4 SLOAD PUSH2 0x365E JUMP JUMPDEST PUSH1 0x1F DUP2 GT PUSH2 0xF62 JUMPI JUMPDEST POP PUSH1 0x20 SWAP1 PUSH1 0x1F DUP4 GT PUSH1 0x1 EQ PUSH2 0xEFF JUMPI PUSH2 0x89E SWAP3 SWAP2 PUSH0 SWAP2 DUP4 PUSH2 0xE61 JUMPI POP POP DUP2 PUSH1 0x1 SHL SWAP2 PUSH0 NOT SWAP1 PUSH1 0x3 SHL SHR NOT AND OR SWAP1 JUMP JUMPDEST SWAP1 SSTORE JUMPDEST PUSH1 0x40 MLOAD PUSH1 0x20 DUP2 DUP4 MLOAD DUP1 DUP7 DUP4 MCOPY DUP2 ADD PUSH1 0x3 DUP2 MSTORE SUB ADD SWAP1 KECCAK256 DUP4 MLOAD DUP1 MLOAD SWAP1 PUSH1 0x1 PUSH1 0x1 PUSH1 0x40 SHL SUB DUP3 GT PUSH2 0x457 JUMPI PUSH2 0x8D4 DUP4 SLOAD PUSH2 0x365E JUMP JUMPDEST PUSH1 0x1F DUP2 GT PUSH2 0xECF JUMPI JUMPDEST POP PUSH1 0x20 SWAP1 PUSH1 0x1F DUP4 GT PUSH1 0x1 EQ PUSH2 0xE6C JUMPI PUSH2 0x90C SWAP3 SWAP2 PUSH0 SWAP2 DUP4 PUSH2 0xE61 JUMPI POP POP DUP2 PUSH1 0x1 SHL SWAP2 PUSH0 NOT SWAP1 PUSH1 0x3 SHL SHR NOT AND OR SWAP1 JUMP JUMPDEST DUP2 SSTORE JUMPDEST PUSH1 0x1 DUP2 ADD PUSH1 0x20 DUP6 ADD MLOAD DUP1 MLOAD SWAP1 PUSH1 0x1 PUSH1 0x1 PUSH1 0x40 SHL SUB DUP3 GT PUSH2 0x457 JUMPI PUSH2 0x933 DUP4 SLOAD PUSH2 0x365E JUMP JUMPDEST PUSH1 0x1F DUP2 GT PUSH2 0xE31 JUMPI JUMPDEST POP PUSH1 0x20 SWAP1 PUSH1 0x1F DUP4 GT PUSH1 0x1 EQ PUSH2 0xDCE JUMPI PUSH2 0x96B SWAP3 SWAP2 PUSH0 SWAP2 DUP4 PUSH2 0xC9D JUMPI POP POP DUP2 PUSH1 0x1 SHL SWAP2 PUSH0 NOT SWAP1 PUSH1 0x3 SHL SHR NOT AND OR SWAP1 JUMP JUMPDEST SWAP1 SSTORE JUMPDEST PUSH1 0x2 DUP2 ADD PUSH1 0x40 DUP6 ADD MLOAD DUP1 MLOAD SWAP1 PUSH1 0x1 PUSH1 0x1 PUSH1 0x40 SHL SUB DUP3 GT PUSH2 0x457 JUMPI PUSH2 0x992 DUP4 SLOAD PUSH2 0x365E JUMP JUMPDEST PUSH1 0x1F DUP2 GT PUSH2 0xD9E JUMPI JUMPDEST POP PUSH1 0x20 SWAP1 PUSH1 0x1F DUP4 GT PUSH1 0x1 EQ PUSH2 0xD3B JUMPI PUSH2 0x9CA SWAP3 SWAP2 PUSH0 SWAP2 DUP4 PUSH2 0xC9D JUMPI POP POP DUP2 PUSH1 0x1 SHL SWAP2 PUSH0 NOT SWAP1 PUSH1 0x3 SHL SHR NOT AND OR SWAP1 JUMP JUMPDEST SWAP1 SSTORE JUMPDEST PUSH1 0x3 DUP2 ADD PUSH1 0x60 DUP6 ADD MLOAD DUP1 MLOAD SWAP1 PUSH1 0x1 PUSH1 0x1 PUSH1 0x40 SHL SUB DUP3 GT PUSH2 0x457 JUMPI PUSH2 0x9F1 DUP4 SLOAD PUSH2 0x365E JUMP JUMPDEST PUSH1 0x1F DUP2 GT PUSH2 0xD0B JUMPI JUMPDEST POP PUSH1 0x20 SWAP1 PUSH1 0x1F DUP4 GT PUSH1 0x1 EQ PUSH2 0xCA8 JUMPI PUSH2 0xA29 SWAP3 SWAP2 PUSH0 SWAP2 DUP4 PUSH2 0xC9D JUMPI POP POP DUP2 PUSH1 0x1 SHL SWAP2 PUSH0 NOT SWAP1 PUSH1 0x3 SHL SHR NOT AND OR SWAP1 JUMP JUMPDEST SWAP1 SSTORE JUMPDEST PUSH1 0x4 DUP2 ADD PUSH1 0x80 DUP6 ADD MLOAD DUP1 MLOAD SWAP1 PUSH1 0x1 PUSH1 0x1 PUSH1 0x40 SHL SUB DUP3 GT PUSH2 0x457 JUMPI PUSH2 0xA50 DUP4 SLOAD PUSH2 0x365E JUMP JUMPDEST PUSH1 0x1F DUP2 GT PUSH2 0xC6D JUMPI JUMPDEST POP PUSH1 0x20 SWAP1 PUSH1 0x1F DUP4 GT PUSH1 0x1 EQ PUSH2 0xC04 JUMPI DUP3 PUSH1 0xA0 SWAP6 SWAP4 PUSH1 0x5 SWAP6 SWAP4 PUSH2 0xA8F SWAP4 PUSH0 SWAP3 PUSH2 0xB3C JUMPI POP POP DUP2 PUSH1 0x1 SHL SWAP2 PUSH0 NOT SWAP1 PUSH1 0x3 SHL SHR NOT AND OR SWAP1 JUMP JUMPDEST SWAP1 SSTORE JUMPDEST ADD SWAP4 ADD MLOAD SWAP3 DUP4 MLOAD PUSH1 0x1 PUSH1 0x1 PUSH1 0x40 SHL SUB DUP2 GT PUSH2 0x457 JUMPI PUSH2 0xAB1 DUP3 SLOAD PUSH2 0x365E JUMP JUMPDEST PUSH1 0x1F DUP2 GT PUSH2 0xBD4 JUMPI JUMPDEST POP PUSH1 0x20 PUSH1 0x1F DUP3 GT PUSH1 0x1 EQ PUSH2 0xB47 JUMPI SWAP3 PUSH2 0x398 SWAP5 SWAP3 PUSH2 0xB14 DUP4 PUSH1 0x20 SWAP5 PUSH1 0x9 SWAP8 PUSH32 0x351AB5A48B432D9A1035E20940D903771DCFEC712FFE00601BAD0EA1F4260F88 SWAP11 PUSH0 SWAP3 PUSH2 0xB3C JUMPI POP POP DUP2 PUSH1 0x1 SHL SWAP2 PUSH0 NOT SWAP1 PUSH1 0x3 SHL SHR NOT AND OR SWAP1 JUMP JUMPDEST SWAP1 SSTORE JUMPDEST PUSH1 0x40 MLOAD SWAP3 DUP4 SWAP2 MLOAD DUP1 SWAP2 DUP4 MCOPY DUP2 ADD PUSH0 DUP2 MSTORE SUB ADD SWAP1 KECCAK256 ADD PUSH1 0x40 MLOAD SWAP2 DUP3 SWAP2 TIMESTAMP SWAP1 CALLER SWAP1 DUP5 PUSH2 0x390A JUMP JUMPDEST ADD MLOAD SWAP1 POP DUP11 DUP1 PUSH2 0x64E JUMP JUMPDEST PUSH1 0x1F NOT DUP3 AND SWAP6 DUP4 PUSH0 MSTORE DUP2 PUSH0 KECCAK256 SWAP7 PUSH0 JUMPDEST DUP2 DUP2 LT PUSH2 0xBBC JUMPI POP DUP4 PUSH32 0x351AB5A48B432D9A1035E20940D903771DCFEC712FFE00601BAD0EA1F4260F88 SWAP9 PUSH1 0x9 SWAP8 SWAP5 PUSH2 0x398 SWAP10 SWAP8 SWAP5 PUSH1 0x20 SWAP8 PUSH1 0x1 SWAP6 LT PUSH2 0xBA4 JUMPI JUMPDEST POP POP POP DUP2 SHL ADD SWAP1 SSTORE PUSH2 0xB17 JUMP JUMPDEST ADD MLOAD PUSH0 NOT PUSH1 0xF8 DUP5 PUSH1 0x3 SHL AND SHR NOT AND SWAP1 SSTORE DUP10 DUP1 DUP1 PUSH2 0xB97 JUMP JUMPDEST DUP4 DUP4 ADD MLOAD DUP10 SSTORE PUSH1 0x1 SWAP1 SWAP9 ADD SWAP8 PUSH1 0x20 SWAP4 DUP5 ADD SWAP4 ADD PUSH2 0xB56 JUMP JUMPDEST PUSH2 0xBFE SWAP1 DUP4 PUSH0 MSTORE PUSH1 0x20 PUSH0 KECCAK256 PUSH1 0x1F DUP5 ADD PUSH1 0x5 SHR DUP2 ADD SWAP2 PUSH1 0x20 DUP6 LT PUSH2 0x44D JUMPI PUSH1 0x1F ADD PUSH1 0x5 SHR ADD SWAP1 PUSH2 0x3825 JUMP JUMPDEST DUP6 PUSH2 0xABA JUMP JUMPDEST SWAP1 PUSH1 0x1F NOT DUP4 AND SWAP2 DUP5 PUSH0 MSTORE DUP2 PUSH0 KECCAK256 SWAP3 PUSH0 JUMPDEST DUP2 DUP2 LT PUSH2 0xC55 JUMPI POP SWAP3 PUSH1 0x1 SWAP3 DUP6 SWAP3 PUSH1 0xA0 SWAP9 SWAP7 PUSH1 0x5 SWAP9 SWAP7 LT PUSH2 0xC3D JUMPI JUMPDEST POP POP POP DUP2 SHL ADD SWAP1 SSTORE PUSH2 0xA92 JUMP JUMPDEST ADD MLOAD PUSH0 NOT PUSH1 0xF8 DUP5 PUSH1 0x3 SHL AND SHR NOT AND SWAP1 SSTORE DUP10 DUP1 DUP1 PUSH2 0xC30 JUMP JUMPDEST SWAP3 SWAP4 PUSH1 0x20 PUSH1 0x1 DUP2 SWAP3 DUP8 DUP7 ADD MLOAD DUP2 SSTORE ADD SWAP6 ADD SWAP4 ADD PUSH2 0xC14 JUMP JUMPDEST PUSH2 0xC97 SWAP1 DUP5 PUSH0 MSTORE PUSH1 0x20 PUSH0 KECCAK256 PUSH1 0x1F DUP6 ADD PUSH1 0x5 SHR DUP2 ADD SWAP2 PUSH1 0x20 DUP7 LT PUSH2 0x44D JUMPI PUSH1 0x1F ADD PUSH1 0x5 SHR ADD SWAP1 PUSH2 0x3825 JUMP JUMPDEST DUP8 PUSH2 0xA59 JUMP JUMPDEST ADD MLOAD SWAP1 POP DUP9 DUP1 PUSH2 0x64E JUMP JUMPDEST SWAP1 PUSH1 0x1F NOT DUP4 AND SWAP2 DUP5 PUSH0 MSTORE DUP2 PUSH0 KECCAK256 SWAP3 PUSH0 JUMPDEST DUP2 DUP2 LT PUSH2 0xCF3 JUMPI POP SWAP1 DUP5 PUSH1 0x1 SWAP6 SWAP5 SWAP4 SWAP3 LT PUSH2 0xCDB JUMPI JUMPDEST POP POP POP DUP2 SHL ADD SWAP1 SSTORE PUSH2 0xA2C JUMP JUMPDEST ADD MLOAD PUSH0 NOT PUSH1 0xF8 DUP5 PUSH1 0x3 SHL AND SHR NOT AND SWAP1 SSTORE DUP8 DUP1 DUP1 PUSH2 0xCCE JUMP JUMPDEST SWAP3 SWAP4 PUSH1 0x20 PUSH1 0x1 DUP2 SWAP3 DUP8 DUP7 ADD MLOAD DUP2 SSTORE ADD SWAP6 ADD SWAP4 ADD PUSH2 0xCB8 JUMP JUMPDEST PUSH2 0xD35 SWAP1 DUP5 PUSH0 MSTORE PUSH1 0x20 PUSH0 KECCAK256 PUSH1 0x1F DUP6 ADD PUSH1 0x5 SHR DUP2 ADD SWAP2 PUSH1 0x20 DUP7 LT PUSH2 0x44D JUMPI PUSH1 0x1F ADD PUSH1 0x5 SHR ADD SWAP1 PUSH2 0x3825 JUMP JUMPDEST DUP8 PUSH2 0x9FA JUMP JUMPDEST SWAP1 PUSH1 0x1F NOT DUP4 AND SWAP2 DUP5 PUSH0 MSTORE DUP2 PUSH0 KECCAK256 SWAP3 PUSH0 JUMPDEST DUP2 DUP2 LT PUSH2 0xD86 JUMPI POP SWAP1 DUP5 PUSH1 0x1 SWAP6 SWAP5 SWAP4 SWAP3 LT PUSH2 0xD6E JUMPI JUMPDEST POP POP POP DUP2 SHL ADD SWAP1 SSTORE PUSH2 0x9CD JUMP JUMPDEST ADD MLOAD PUSH0 NOT PUSH1 0xF8 DUP5 PUSH1 0x3 SHL AND SHR NOT AND SWAP1 SSTORE DUP8 DUP1 DUP1 PUSH2 0xD61 JUMP JUMPDEST SWAP3 SWAP4 PUSH1 0x20 PUSH1 0x1 DUP2 SWAP3 DUP8 DUP7 ADD MLOAD DUP2 SSTORE ADD SWAP6 ADD SWAP4 ADD PUSH2 0xD4B JUMP JUMPDEST PUSH2 0xDC8 SWAP1 DUP5 PUSH0 MSTORE PUSH1 0x20 PUSH0 KECCAK256 PUSH1 0x1F DUP6 ADD PUSH1 0x5 SHR DUP2 ADD SWAP2 PUSH1 0x20 DUP7 LT PUSH2 0x44D JUMPI PUSH1 0x1F ADD PUSH1 0x5 SHR ADD SWAP1 PUSH2 0x3825 JUMP JUMPDEST DUP8 PUSH2 0x99B JUMP JUMPDEST SWAP1 PUSH1 0x1F NOT DUP4 AND SWAP2 DUP5 PUSH0 MSTORE DUP2 PUSH0 KECCAK256 SWAP3 PUSH0 JUMPDEST DUP2 DUP2 LT PUSH2 0xE19 JUMPI POP SWAP1 DUP5 PUSH1 0x1 SWAP6 SWAP5 SWAP4 SWAP3 LT PUSH2 0xE01 JUMPI JUMPDEST POP POP POP DUP2 SHL ADD SWAP1 SSTORE PUSH2 0x96E JUMP JUMPDEST ADD MLOAD PUSH0 NOT PUSH1 0xF8 DUP5 PUSH1 0x3 SHL AND SHR NOT AND SWAP1 SSTORE DUP8 DUP1 DUP1 PUSH2 0xDF4 JUMP JUMPDEST SWAP3 SWAP4 PUSH1 0x20 PUSH1 0x1 DUP2 SWAP3 DUP8 DUP7 ADD MLOAD DUP2 SSTORE ADD SWAP6 ADD SWAP4 ADD PUSH2 0xDDE JUMP JUMPDEST PUSH2 0xE5B SWAP1 DUP5 PUSH0 MSTORE PUSH1 0x20 PUSH0 KECCAK256 PUSH1 0x1F DUP6 ADD PUSH1 0x5 SHR DUP2 ADD SWAP2 PUSH1 0x20 DUP7 LT PUSH2 0x44D JUMPI PUSH1 0x1F ADD PUSH1 0x5 SHR ADD SWAP1 PUSH2 0x3825 JUMP JUMPDEST DUP8 PUSH2 0x93C JUMP JUMPDEST ADD MLOAD SWAP1 POP DUP8 DUP1 PUSH2 0x64E JUMP JUMPDEST SWAP1 PUSH1 0x1F NOT DUP4 AND SWAP2 DUP5 PUSH0 MSTORE DUP2 PUSH0 KECCAK256 SWAP3 PUSH0 JUMPDEST DUP2 DUP2 LT PUSH2 0xEB7 JUMPI POP SWAP1 DUP5 PUSH1 0x1 SWAP6 SWAP5 SWAP4 SWAP3 LT PUSH2 0xE9F JUMPI JUMPDEST POP POP POP DUP2 SHL ADD DUP2 SSTORE PUSH2 0x90F JUMP JUMPDEST ADD MLOAD PUSH0 NOT PUSH1 0xF8 DUP5 PUSH1 0x3 SHL AND SHR NOT AND SWAP1 SSTORE DUP7 DUP1 DUP1 PUSH2 0xE92 JUMP JUMPDEST SWAP3 SWAP4 PUSH1 0x20 PUSH1 0x1 DUP2 SWAP3 DUP8 DUP7 ADD MLOAD DUP2 SSTORE ADD SWAP6 ADD SWAP4 ADD PUSH2 0xE7C JUMP JUMPDEST PUSH2 0xEF9 SWAP1 DUP5 PUSH0 MSTORE PUSH1 0x20 PUSH0 KECCAK256 PUSH1 0x1F DUP6 ADD PUSH1 0x5 SHR DUP2 ADD SWAP2 PUSH1 0x20 DUP7 LT PUSH2 0x44D JUMPI PUSH1 0x1F ADD PUSH1 0x5 SHR ADD SWAP1 PUSH2 0x3825 JUMP JUMPDEST DUP7 PUSH2 0x8DD JUMP JUMPDEST SWAP1 PUSH1 0x1F NOT DUP4 AND SWAP2 DUP5 PUSH0 MSTORE DUP2 PUSH0 KECCAK256 SWAP3 PUSH0 JUMPDEST DUP2 DUP2 LT PUSH2 0xF4A JUMPI POP SWAP1 DUP5 PUSH1 0x1 SWAP6 SWAP5 SWAP4 SWAP3 LT PUSH2 0xF32 JUMPI JUMPDEST POP POP POP DUP2 SHL ADD SWAP1 SSTORE PUSH2 0x8A1 JUMP JUMPDEST ADD MLOAD PUSH0 NOT PUSH1 0xF8 DUP5 PUSH1 0x3 SHL AND SHR NOT AND SWAP1 SSTORE DUP7 DUP1 DUP1 PUSH2 0xF25 JUMP JUMPDEST SWAP3 SWAP4 PUSH1 0x20 PUSH1 0x1 DUP2 SWAP3 DUP8 DUP7 ADD MLOAD DUP2 SSTORE ADD SWAP6 ADD SWAP4 ADD PUSH2 0xF0F JUMP JUMPDEST PUSH2 0xF8C SWAP1 DUP5 PUSH0 MSTORE PUSH1 0x20 PUSH0 KECCAK256 PUSH1 0x1F DUP6 ADD PUSH1 0x5 SHR DUP2 ADD SWAP2 PUSH1 0x20 DUP7 LT PUSH2 0x44D JUMPI PUSH1 0x1F ADD PUSH1 0x5 SHR ADD SWAP1 PUSH2 0x3825 JUMP JUMPDEST DUP7 PUSH2 0x86F JUMP JUMPDEST ADD MLOAD SWAP1 POP DUP12 DUP1 PUSH2 0x64E JUMP JUMPDEST SWAP1 PUSH1 0x1F NOT DUP4 AND SWAP2 DUP5 PUSH0 MSTORE DUP2 PUSH0 KECCAK256 SWAP3 PUSH0 JUMPDEST DUP2 DUP2 LT PUSH2 0xFEE JUMPI POP SWAP3 PUSH1 0x1 SWAP3 DUP6 SWAP3 PUSH1 0xC0 SWAP9 SWAP7 PUSH1 0x6 SWAP9 SWAP7 LT PUSH2 0xFD6 JUMPI JUMPDEST POP POP POP DUP2 SHL ADD SWAP1 SSTORE PUSH2 0x847 JUMP JUMPDEST ADD MLOAD PUSH0 NOT PUSH1 0xF8 DUP5 PUSH1 0x3 SHL AND SHR NOT AND SWAP1 SSTORE DUP11 DUP1 DUP1 PUSH2 0xFC9 JUMP JUMPDEST SWAP3 SWAP4 PUSH1 0x20 PUSH1 0x1 DUP2 SWAP3 DUP8 DUP7 ADD MLOAD DUP2 SSTORE ADD SWAP6 ADD SWAP4 ADD PUSH2 0xFAD JUMP JUMPDEST PUSH2 0x1030 SWAP1 DUP5 PUSH0 MSTORE PUSH1 0x20 PUSH0 KECCAK256 PUSH1 0x1F DUP6 ADD PUSH1 0x5 SHR DUP2 ADD SWAP2 PUSH1 0x20 DUP7 LT PUSH2 0x44D JUMPI PUSH1 0x1F ADD PUSH1 0x5 SHR ADD SWAP1 PUSH2 0x3825 JUMP JUMPDEST DUP9 PUSH2 0x80E JUMP JUMPDEST ADD MLOAD SWAP1 POP DUP10 DUP1 PUSH2 0x64E JUMP JUMPDEST SWAP1 PUSH1 0x1F NOT DUP4 AND SWAP2 DUP5 PUSH0 MSTORE DUP2 PUSH0 KECCAK256 SWAP3 PUSH0 JUMPDEST DUP2 DUP2 LT PUSH2 0x108C JUMPI POP SWAP1 DUP5 PUSH1 0x1 SWAP6 SWAP5 SWAP4 SWAP3 LT PUSH2 0x1074 JUMPI JUMPDEST POP POP POP DUP2 SHL ADD SWAP1 SSTORE PUSH2 0x7E1 JUMP JUMPDEST ADD MLOAD PUSH0 NOT PUSH1 0xF8 DUP5 PUSH1 0x3 SHL AND SHR NOT AND SWAP1 SSTORE DUP9 DUP1 DUP1 PUSH2 0x1067 JUMP JUMPDEST SWAP3 SWAP4 PUSH1 0x20 PUSH1 0x1 DUP2 SWAP3 DUP8 DUP7 ADD MLOAD DUP2 SSTORE ADD SWAP6 ADD SWAP4 ADD PUSH2 0x1051 JUMP JUMPDEST PUSH2 0x10CE SWAP1 DUP5 PUSH0 MSTORE PUSH1 0x20 PUSH0 KECCAK256 PUSH1 0x1F DUP6 ADD PUSH1 0x5 SHR DUP2 ADD SWAP2 PUSH1 0x20 DUP7 LT PUSH2 0x44D JUMPI PUSH1 0x1F ADD PUSH1 0x5 SHR ADD SWAP1 PUSH2 0x3825 JUMP JUMPDEST DUP9 PUSH2 0x7AF JUMP JUMPDEST SWAP1 PUSH1 0x1F NOT DUP4 AND SWAP2 DUP5 PUSH0 MSTORE DUP2 PUSH0 KECCAK256 SWAP3 PUSH0 JUMPDEST DUP2 DUP2 LT PUSH2 0x111F JUMPI POP SWAP1 DUP5 PUSH1 0x1 SWAP6 SWAP5 SWAP4 SWAP3 LT PUSH2 0x1107 JUMPI JUMPDEST POP POP POP DUP2 SHL ADD SWAP1 SSTORE PUSH2 0x782 JUMP JUMPDEST ADD MLOAD PUSH0 NOT PUSH1 0xF8 DUP5 PUSH1 0x3 SHL AND SHR NOT AND SWAP1 SSTORE DUP9 DUP1 DUP1 PUSH2 0x10FA JUMP JUMPDEST SWAP3 SWAP4 PUSH1 0x20 PUSH1 0x1 DUP2 SWAP3 DUP8 DUP7 ADD MLOAD DUP2 SSTORE ADD SWAP6 ADD SWAP4 ADD PUSH2 0x10E4 JUMP JUMPDEST PUSH2 0x1161 SWAP1 DUP5 PUSH0 MSTORE PUSH1 0x20 PUSH0 KECCAK256 PUSH1 0x1F DUP6 ADD PUSH1 0x5 SHR DUP2 ADD SWAP2 PUSH1 0x20 DUP7 LT PUSH2 0x44D JUMPI PUSH1 0x1F ADD PUSH1 0x5 SHR ADD SWAP1 PUSH2 0x3825 JUMP JUMPDEST DUP9 PUSH2 0x750 JUMP JUMPDEST SWAP1 PUSH1 0x1F NOT DUP4 AND SWAP2 DUP5 PUSH0 MSTORE DUP2 PUSH0 KECCAK256 SWAP3 PUSH0 JUMPDEST DUP2 DUP2 LT PUSH2 0x11B2 JUMPI POP SWAP1 DUP5 PUSH1 0x1 SWAP6 SWAP5 SWAP4 SWAP3 LT PUSH2 0x119A JUMPI JUMPDEST POP POP POP DUP2 SHL ADD SWAP1 SSTORE PUSH2 0x723 JUMP JUMPDEST ADD MLOAD PUSH0 NOT PUSH1 0xF8 DUP5 PUSH1 0x3 SHL AND SHR NOT AND SWAP1 SSTORE DUP9 DUP1 DUP1 PUSH2 0x118D JUMP JUMPDEST SWAP3 SWAP4 PUSH1 0x20 PUSH1 0x1 DUP2 SWAP3 DUP8 DUP7 ADD MLOAD DUP2 SSTORE ADD SWAP6 ADD SWAP4 ADD PUSH2 0x1177 JUMP JUMPDEST PUSH2 0x11F4 SWAP1 DUP5 PUSH0 MSTORE PUSH1 0x20 PUSH0 KECCAK256 PUSH1 0x1F DUP6 ADD PUSH1 0x5 SHR DUP2 ADD SWAP2 PUSH1 0x20 DUP7 LT PUSH2 0x44D JUMPI PUSH1 0x1F ADD PUSH1 0x5 SHR ADD SWAP1 PUSH2 0x3825 JUMP JUMPDEST DUP9 PUSH2 0x6F1 JUMP JUMPDEST SWAP1 PUSH1 0x1F NOT DUP4 AND SWAP2 DUP5 PUSH0 MSTORE DUP2 PUSH0 KECCAK256 SWAP3 PUSH0 JUMPDEST DUP2 DUP2 LT PUSH2 0x1245 JUMPI POP SWAP1 DUP5 PUSH1 0x1 SWAP6 SWAP5 SWAP4 SWAP3 LT PUSH2 0x122D JUMPI JUMPDEST POP POP POP DUP2 SHL ADD SWAP1 SSTORE PUSH2 0x6C4 JUMP JUMPDEST ADD MLOAD PUSH0 NOT PUSH1 0xF8 DUP5 PUSH1 0x3 SHL AND SHR NOT AND SWAP1 SSTORE DUP9 DUP1 DUP1 PUSH2 0x1220 JUMP JUMPDEST SWAP3 SWAP4 PUSH1 0x20 PUSH1 0x1 DUP2 SWAP3 DUP8 DUP7 ADD MLOAD DUP2 SSTORE ADD SWAP6 ADD SWAP4 ADD PUSH2 0x120A JUMP JUMPDEST PUSH2 0x1287 SWAP1 DUP5 PUSH0 MSTORE PUSH1 0x20 PUSH0 KECCAK256 PUSH1 0x1F DUP6 ADD PUSH1 0x5 SHR DUP2 ADD SWAP2 PUSH1 0x20 DUP7 LT PUSH2 0x44D JUMPI PUSH1 0x1F ADD PUSH1 0x5 SHR ADD SWAP1 PUSH2 0x3825 JUMP JUMPDEST DUP9 PUSH2 0x692 JUMP JUMPDEST SWAP1 PUSH1 0x1F NOT DUP4 AND SWAP2 DUP5 PUSH0 MSTORE DUP2 PUSH0 KECCAK256 SWAP3 PUSH0 JUMPDEST DUP2 DUP2 LT PUSH2 0x12D8 JUMPI POP SWAP1 DUP5 PUSH1 0x1 SWAP6 SWAP5 SWAP4 SWAP3 LT PUSH2 0x12C0 JUMPI JUMPDEST POP POP POP DUP2 SHL ADD DUP2 SSTORE PUSH2 0x665 JUMP JUMPDEST ADD MLOAD PUSH0 NOT PUSH1 0xF8 DUP5 PUSH1 0x3 SHL AND SHR NOT AND SWAP1 SSTORE DUP8 DUP1 DUP1 PUSH2 0x12B3 JUMP JUMPDEST SWAP3 SWAP4 PUSH1 0x20 PUSH1 0x1 DUP2 SWAP3 DUP8 DUP7 ADD MLOAD DUP2 SSTORE ADD SWAP6 ADD SWAP4 ADD PUSH2 0x129D JUMP JUMPDEST PUSH2 0x131A SWAP1 DUP5 PUSH0 MSTORE PUSH1 0x20 PUSH0 KECCAK256 PUSH1 0x1F DUP6 ADD PUSH1 0x5 SHR DUP2 ADD SWAP2 PUSH1 0x20 DUP7 LT PUSH2 0x44D JUMPI PUSH1 0x1F ADD PUSH1 0x5 SHR ADD SWAP1 PUSH2 0x3825 JUMP JUMPDEST DUP8 PUSH2 0x632 JUMP JUMPDEST PUSH2 0x1339 SWAP2 POP PUSH1 0x20 RETURNDATASIZE PUSH1 0x20 GT PUSH2 0x52C JUMPI PUSH2 0x51E DUP2 DUP4 PUSH2 0x333C JUMP JUMPDEST DUP6 PUSH2 0x5AB JUMP JUMPDEST CALLVALUE PUSH2 0x1E7 JUMPI PUSH2 0x134D CALLDATASIZE PUSH2 0x362D JUMP JUMPDEST PUSH1 0x40 MLOAD PUSH4 0x95A8C58D PUSH1 0xE0 SHL DUP2 MSTORE CALLER PUSH1 0x4 DUP3 ADD MSTORE PUSH0 PUSH1 0x24 DUP3 ADD MSTORE SWAP1 SWAP2 PUSH1 0x20 DUP3 PUSH1 0x44 DUP2 PUSH1 0x1 PUSH1 0x1 PUSH1 0xA0 SHL SUB PUSH32 0x0 AND GAS STATICCALL DUP1 ISZERO PUSH2 0x533 JUMPI PUSH32 0x1CF95093010B490DB14033B55896B7CDD44FADEB3AA3F7A7B9C779D5BCE5304 SWAP4 PUSH2 0x13D9 PUSH2 0x13E0 SWAP3 PUSH2 0x398 SWAP6 PUSH0 SWAP2 PUSH2 0x1434 JUMPI POP PUSH2 0x37EA JUMP JUMPDEST TIMESTAMP GT PUSH2 0x396E JUMP JUMPDEST PUSH1 0x20 PUSH1 0x40 MLOAD SWAP2 DUP1 MLOAD SWAP3 DUP3 DUP2 DUP2 DUP5 ADD SWAP6 DUP1 DUP8 DUP4 MCOPY DUP2 ADD PUSH0 DUP2 MSTORE SUB ADD SWAP1 KECCAK256 PUSH1 0x1 DUP2 ADD PUSH1 0x6 PUSH1 0xFF NOT DUP3 SLOAD AND OR SWAP1 SSTORE PUSH1 0x8 TIMESTAMP SWAP2 ADD SSTORE PUSH1 0x40 MLOAD SWAP3 DUP4 SWAP2 MLOAD DUP1 SWAP2 DUP4 MCOPY DUP2 ADD PUSH0 DUP2 MSTORE SUB ADD SWAP1 KECCAK256 PUSH1 0x40 MLOAD SWAP2 DUP3 SWAP2 TIMESTAMP SWAP1 CALLER DUP5 PUSH2 0x39AE JUMP JUMPDEST PUSH2 0x144D SWAP2 POP PUSH1 0x20 RETURNDATASIZE PUSH1 0x20 GT PUSH2 0x52C JUMPI PUSH2 0x51E DUP2 DUP4 PUSH2 0x333C JUMP JUMPDEST DUP8 PUSH2 0x5AB JUMP JUMPDEST CALLVALUE PUSH2 0x1E7 JUMPI PUSH1 0x20 CALLDATASIZE PUSH1 0x3 NOT ADD SLT PUSH2 0x1E7 JUMPI PUSH1 0x4 CALLDATALOAD PUSH1 0x1 PUSH1 0x1 PUSH1 0x40 SHL SUB DUP2 GT PUSH2 0x1E7 JUMPI PUSH2 0x14A9 PUSH1 0x20 DUP1 PUSH2 0x148C PUSH2 0x14BD SWAP5 CALLDATASIZE SWAP1 PUSH1 0x4 ADD PUSH2 0x335D JUMP JUMPDEST PUSH1 0x40 MLOAD SWAP3 DUP2 DUP5 SWAP3 MLOAD SWAP2 DUP3 SWAP2 ADD DUP4 MCOPY DUP2 ADD PUSH1 0x1 DUP2 MSTORE SUB ADD SWAP1 KECCAK256 PUSH2 0x3696 JUMP JUMPDEST PUSH1 0x40 MLOAD SWAP2 DUP3 SWAP2 PUSH1 0x20 DUP4 MSTORE PUSH1 0x20 DUP4 ADD SWAP1 PUSH2 0x3736 JUMP JUMPDEST SUB SWAP1 RETURN JUMPDEST CALLVALUE PUSH2 0x1E7 JUMPI PUSH1 0x40 CALLDATASIZE PUSH1 0x3 NOT ADD SLT PUSH2 0x1E7 JUMPI PUSH1 0x4 CALLDATALOAD PUSH1 0x1 PUSH1 0x1 PUSH1 0x40 SHL SUB DUP2 GT PUSH2 0x1E7 JUMPI PUSH2 0x14F1 SWAP1 CALLDATASIZE SWAP1 PUSH1 0x4 ADD PUSH2 0x335D JUMP JUMPDEST PUSH1 0x24 CALLDATALOAD PUSH1 0x1 PUSH1 0x1 PUSH1 0x40 SHL SUB DUP2 GT PUSH2 0x1E7 JUMPI PUSH2 0x1510 SWAP1 CALLDATASIZE SWAP1 PUSH1 0x4 ADD PUSH2 0x335D JUMP JUMPDEST PUSH0 DUP1 PUSH1 0x40 MLOAD SWAP3 PUSH2 0x151F DUP5 PUSH2 0x32EA JUMP JUMPDEST DUP4 PUSH1 0x20 SWAP6 PUSH1 0x40 MLOAD PUSH2 0x1530 DUP9 DUP3 PUSH2 0x333C JUMP JUMPDEST DUP5 DUP2 MSTORE DUP3 MSTORE DUP7 DUP3 ADD DUP5 DUP2 MSTORE PUSH1 0x40 DUP4 ADD TIMESTAMP DUP2 MSTORE PUSH1 0x60 DUP5 ADD DUP7 DUP2 MSTORE PUSH1 0x80 DUP6 ADD SWAP1 DUP8 DUP3 MSTORE PUSH1 0xA0 DUP7 ADD SWAP3 DUP9 DUP5 MSTORE PUSH1 0xC0 DUP8 ADD SWAP5 DUP10 DUP7 MSTORE DUP13 DUP1 PUSH1 0xE0 DUP11 ADD SWAP9 DUP13 DUP11 MSTORE PUSH2 0x160 PUSH2 0x100 DUP13 ADD SWAP12 DUP15 DUP14 MSTORE PUSH2 0x120 DUP2 ADD SWAP14 DUP15 MSTORE PUSH1 0x40 MLOAD SWAP15 DUP16 PUSH2 0x158E DUP7 DUP3 PUSH2 0x333C JUMP JUMPDEST MSTORE PUSH2 0x140 DUP2 ADD SWAP15 DUP16 MSTORE ADD SWAP14 DUP15 MSTORE PUSH1 0x40 MLOAD SWAP3 DUP2 DUP5 SWAP3 MLOAD SWAP2 DUP3 SWAP2 ADD DUP4 MCOPY DUP2 ADD PUSH0 DUP2 MSTORE SUB ADD SWAP1 KECCAK256 SWAP12 MLOAD DUP1 MLOAD PUSH1 0x1 PUSH1 0x1 PUSH1 0x40 SHL SUB DUP2 GT PUSH2 0x457 JUMPI DUP15 DUP15 SWAP3 PUSH2 0x15D1 DUP5 SLOAD PUSH2 0x365E JUMP JUMPDEST PUSH1 0x1F DUP2 GT PUSH2 0x18D9 JUMPI JUMPDEST POP DUP2 PUSH1 0x1F DUP5 GT PUSH1 0x1 EQ PUSH2 0x1875 JUMPI POP PUSH2 0x1609 SWAP4 POP PUSH0 SWAP2 SWAP1 DUP4 PUSH2 0x186A JUMPI POP POP DUP2 PUSH1 0x1 SHL SWAP2 PUSH0 NOT SWAP1 PUSH1 0x3 SHL SHR NOT AND OR SWAP1 JUMP JUMPDEST DUP13 SSTORE JUMPDEST PUSH1 0x1 DUP13 ADD SWAP1 MLOAD PUSH1 0x8 DUP2 LT ISZERO PUSH2 0x1856 JUMPI PUSH1 0xFF DUP1 NOT DUP4 SLOAD AND SWAP2 AND OR SWAP1 SSTORE MLOAD PUSH1 0x2 DUP12 ADD SSTORE MLOAD PUSH1 0x3 DUP11 ADD SSTORE MLOAD PUSH1 0x4 DUP10 ADD SSTORE MLOAD PUSH1 0x5 DUP9 ADD SSTORE MLOAD PUSH1 0x6 DUP8 ADD SSTORE MLOAD PUSH1 0x7 DUP7 ADD SSTORE MLOAD PUSH1 0x8 DUP6 ADD SSTORE PUSH1 0x9 DUP5 ADD SWAP1 MLOAD DUP1 MLOAD SWAP1 PUSH1 0x1 PUSH1 0x1 PUSH1 0x40 SHL SUB DUP3 GT PUSH2 0x457 JUMPI PUSH2 0x1672 DUP4 SLOAD PUSH2 0x365E JUMP JUMPDEST PUSH1 0x1F DUP2 GT PUSH2 0x1828 JUMPI JUMPDEST POP DUP7 SWAP1 PUSH1 0x1F DUP4 GT PUSH1 0x1 EQ PUSH2 0x17C5 JUMPI PUSH2 0x16A9 SWAP3 SWAP2 PUSH0 SWAP2 DUP4 PUSH2 0xC9D JUMPI POP POP DUP2 PUSH1 0x1 SHL SWAP2 PUSH0 NOT SWAP1 PUSH1 0x3 SHL SHR NOT AND OR SWAP1 JUMP JUMPDEST SWAP1 SSTORE JUMPDEST PUSH1 0xA DUP4 ADD SWAP1 MLOAD SWAP4 DUP5 MLOAD SWAP1 PUSH1 0x1 PUSH1 0x1 PUSH1 0x40 SHL SUB DUP3 GT PUSH2 0x457 JUMPI PUSH2 0x16CE DUP4 SLOAD PUSH2 0x365E JUMP JUMPDEST PUSH1 0x1F DUP2 GT PUSH2 0x1797 JUMPI JUMPDEST POP DUP1 PUSH1 0x1F DUP4 GT PUSH1 0x1 EQ PUSH2 0x172F JUMPI POP SWAP1 DUP1 PUSH2 0x1709 SWAP3 PUSH1 0xB SWAP7 SWAP8 PUSH0 SWAP3 PUSH2 0xE61 JUMPI POP POP DUP2 PUSH1 0x1 SHL SWAP2 PUSH0 NOT SWAP1 PUSH1 0x3 SHL SHR NOT AND OR SWAP1 JUMP JUMPDEST SWAP1 SSTORE JUMPDEST MLOAD SWAP2 ADD DUP1 SLOAD PUSH1 0x1 PUSH1 0x1 PUSH1 0xA0 SHL SUB NOT AND PUSH1 0x1 PUSH1 0x1 PUSH1 0xA0 SHL SUB SWAP3 SWAP1 SWAP3 AND SWAP2 SWAP1 SWAP2 OR SWAP1 SSTORE STOP JUMPDEST SWAP1 PUSH1 0x1F NOT DUP4 AND SWAP7 DUP5 PUSH0 MSTORE DUP3 PUSH0 KECCAK256 SWAP3 PUSH0 SWAP1 JUMPDEST DUP10 DUP3 LT PUSH2 0x177F JUMPI POP POP SWAP1 DUP4 SWAP3 SWAP2 PUSH1 0x1 SWAP5 PUSH1 0xB SWAP9 SWAP10 LT PUSH2 0x1767 JUMPI JUMPDEST POP POP POP DUP2 SHL ADD SWAP1 SSTORE PUSH2 0x170C JUMP JUMPDEST ADD MLOAD PUSH0 NOT PUSH1 0xF8 DUP5 PUSH1 0x3 SHL AND SHR NOT AND SWAP1 SSTORE DUP7 DUP1 DUP1 PUSH2 0x175A JUMP JUMPDEST DUP1 PUSH1 0x1 DUP6 SWAP7 DUP3 SWAP5 SWAP7 DUP7 ADD MLOAD DUP2 SSTORE ADD SWAP6 ADD SWAP4 ADD SWAP1 PUSH2 0x1740 JUMP JUMPDEST PUSH2 0x17BF SWAP1 DUP5 PUSH0 MSTORE DUP3 PUSH0 KECCAK256 PUSH1 0x1F DUP6 ADD PUSH1 0x5 SHR DUP2 ADD SWAP2 DUP5 DUP7 LT PUSH2 0x44D JUMPI PUSH1 0x1F ADD PUSH1 0x5 SHR ADD SWAP1 PUSH2 0x3825 JUMP JUMPDEST DUP7 PUSH2 0x16D7 JUMP JUMPDEST SWAP1 PUSH1 0x1F NOT DUP4 AND SWAP2 DUP5 PUSH0 MSTORE DUP9 PUSH0 KECCAK256 SWAP3 PUSH0 JUMPDEST DUP11 DUP3 DUP3 LT PUSH2 0x1812 JUMPI POP POP SWAP1 DUP5 PUSH1 0x1 SWAP6 SWAP5 SWAP4 SWAP3 LT PUSH2 0x17FA JUMPI JUMPDEST POP POP POP DUP2 SHL ADD SWAP1 SSTORE PUSH2 0x16AC JUMP JUMPDEST ADD MLOAD PUSH0 NOT PUSH1 0xF8 DUP5 PUSH1 0x3 SHL AND SHR NOT AND SWAP1 SSTORE DUP8 DUP1 DUP1 PUSH2 0x17ED JUMP JUMPDEST PUSH1 0x1 DUP6 SWAP7 DUP3 SWAP4 SWAP7 DUP7 ADD MLOAD DUP2 SSTORE ADD SWAP6 ADD SWAP4 ADD PUSH2 0x17D5 JUMP JUMPDEST PUSH2 0x1850 SWAP1 DUP5 PUSH0 MSTORE DUP9 PUSH0 KECCAK256 PUSH1 0x1F DUP6 ADD PUSH1 0x5 SHR DUP2 ADD SWAP2 DUP11 DUP7 LT PUSH2 0x44D JUMPI PUSH1 0x1F ADD PUSH1 0x5 SHR ADD SWAP1 PUSH2 0x3825 JUMP JUMPDEST DUP8 PUSH2 0x167B JUMP JUMPDEST PUSH4 0x4E487B71 PUSH1 0xE0 SHL PUSH0 MSTORE PUSH1 0x21 PUSH1 0x4 MSTORE PUSH1 0x24 PUSH0 REVERT JUMPDEST ADD MLOAD SWAP1 POP PUSH0 DUP1 PUSH2 0x64E JUMP JUMPDEST PUSH0 SWAP5 DUP6 MSTORE DUP1 DUP6 KECCAK256 SWAP4 SWAP5 PUSH1 0x1F NOT DUP7 AND SWAP2 JUMPDEST DUP3 DUP3 LT PUSH2 0x18C1 JUMPI POP POP SWAP1 DUP5 PUSH1 0x1 SWAP6 SWAP5 SWAP4 SWAP3 LT PUSH2 0x18A9 JUMPI JUMPDEST POP POP POP DUP2 SHL ADD DUP13 SSTORE PUSH2 0x160C JUMP JUMPDEST ADD MLOAD PUSH0 NOT PUSH1 0xF8 DUP5 PUSH1 0x3 SHL AND SHR NOT AND SWAP1 SSTORE DUP16 DUP1 DUP1 PUSH2 0x189C JUMP JUMPDEST DUP1 PUSH1 0x1 DUP7 SWAP8 DUP3 SWAP5 SWAP8 DUP8 ADD MLOAD DUP2 SSTORE ADD SWAP7 ADD SWAP5 ADD SWAP1 PUSH2 0x1885 JUMP JUMPDEST PUSH2 0x1901 SWAP1 DUP6 PUSH0 MSTORE DUP4 PUSH0 KECCAK256 PUSH1 0x1F DUP7 ADD PUSH1 0x5 SHR DUP2 ADD SWAP2 DUP6 DUP8 LT PUSH2 0x44D JUMPI PUSH1 0x1F ADD PUSH1 0x5 SHR ADD SWAP1 PUSH2 0x3825 JUMP JUMPDEST PUSH0 PUSH2 0x15DA JUMP JUMPDEST CALLVALUE PUSH2 0x1E7 JUMPI PUSH1 0x20 CALLDATASIZE PUSH1 0x3 NOT ADD SLT PUSH2 0x1E7 JUMPI PUSH1 0x4 CALLDATALOAD PUSH1 0x1 PUSH1 0x1 PUSH1 0x40 SHL SUB DUP2 GT PUSH2 0x1E7 JUMPI PUSH2 0x1937 SWAP1 CALLDATASIZE SWAP1 PUSH1 0x4 ADD PUSH2 0x335D JUMP JUMPDEST PUSH1 0xFF PUSH1 0x1 PUSH1 0x40 MLOAD PUSH1 0x20 DUP5 MLOAD SWAP2 DUP2 DUP2 DUP2 DUP9 ADD SWAP5 DUP1 DUP7 DUP4 MCOPY DUP2 ADD PUSH0 DUP2 MSTORE SUB ADD SWAP1 KECCAK256 SWAP5 PUSH1 0x40 MLOAD SWAP3 DUP4 SWAP2 MLOAD DUP1 SWAP2 DUP4 MCOPY DUP2 ADD PUSH0 DUP2 MSTORE SUB ADD SWAP1 KECCAK256 ADD SLOAD AND PUSH1 0x8 DUP2 LT ISZERO PUSH2 0x1856 JUMPI PUSH2 0x1983 PUSH2 0x1998 SWAP3 PUSH2 0x3696 JUMP JUMPDEST SWAP1 PUSH1 0x40 MLOAD SWAP3 DUP4 SWAP3 PUSH1 0x40 DUP5 MSTORE PUSH1 0x40 DUP5 ADD SWAP1 PUSH2 0x3736 JUMP JUMPDEST SWAP1 PUSH1 0x20 DUP4 ADD MSTORE SUB SWAP1 RETURN JUMPDEST CALLVALUE PUSH2 0x1E7 JUMPI PUSH1 0x20 CALLDATASIZE PUSH1 0x3 NOT ADD SLT PUSH2 0x1E7 JUMPI PUSH1 0x4 CALLDATALOAD PUSH1 0x1 PUSH1 0x1 PUSH1 0x40 SHL SUB DUP2 GT PUSH2 0x1E7 JUMPI PUSH1 0x20 DUP1 PUSH2 0x19D8 PUSH2 0x1A5C SWAP4 CALLDATASIZE SWAP1 PUSH1 0x4 ADD PUSH2 0x335D JUMP JUMPDEST PUSH1 0x40 MLOAD SWAP3 DUP2 DUP5 SWAP3 MLOAD SWAP2 DUP3 SWAP2 ADD DUP4 MCOPY DUP2 ADD PUSH1 0x3 DUP2 MSTORE SUB ADD SWAP1 KECCAK256 PUSH2 0x14BD PUSH2 0x19FC DUP3 PUSH2 0x3696 JUMP JUMPDEST SWAP2 PUSH2 0x1A94 PUSH2 0x1A0C PUSH1 0x1 DUP4 ADD PUSH2 0x3696 JUMP JUMPDEST SWAP2 PUSH2 0x1A86 PUSH2 0x1A1C PUSH1 0x2 DUP4 ADD PUSH2 0x3696 JUMP JUMPDEST PUSH2 0x1A78 PUSH2 0x1A2B PUSH1 0x3 DUP6 ADD PUSH2 0x3696 JUMP JUMPDEST SWAP2 PUSH2 0x1A6A PUSH2 0x1A47 PUSH1 0x5 PUSH2 0x1A40 PUSH1 0x4 DUP10 ADD PUSH2 0x3696 JUMP JUMPDEST SWAP8 ADD PUSH2 0x3696 JUMP JUMPDEST SWAP8 PUSH1 0x40 MLOAD SWAP12 DUP13 SWAP12 PUSH1 0xC0 DUP14 MSTORE PUSH1 0xC0 DUP14 ADD SWAP1 PUSH2 0x3736 JUMP JUMPDEST SWAP1 DUP12 DUP3 SUB PUSH1 0x20 DUP14 ADD MSTORE PUSH2 0x3736 JUMP JUMPDEST SWAP1 DUP10 DUP3 SUB PUSH1 0x40 DUP12 ADD MSTORE PUSH2 0x3736 JUMP JUMPDEST SWAP1 DUP8 DUP3 SUB PUSH1 0x60 DUP10 ADD MSTORE PUSH2 0x3736 JUMP JUMPDEST SWAP1 DUP6 DUP3 SUB PUSH1 0x80 DUP8 ADD MSTORE PUSH2 0x3736 JUMP JUMPDEST SWAP1 DUP4 DUP3 SUB PUSH1 0xA0 DUP6 ADD MSTORE PUSH2 0x3736 JUMP JUMPDEST CALLVALUE PUSH2 0x1E7 JUMPI PUSH1 0x20 CALLDATASIZE PUSH1 0x3 NOT ADD SLT PUSH2 0x1E7 JUMPI PUSH1 0x4 CALLDATALOAD PUSH1 0x1 PUSH1 0x1 PUSH1 0x40 SHL SUB DUP2 GT PUSH2 0x1E7 JUMPI PUSH2 0x1AD2 SWAP1 CALLDATASIZE SWAP1 PUSH1 0x4 ADD PUSH2 0x335D JUMP JUMPDEST PUSH0 PUSH2 0x160 PUSH1 0x40 MLOAD PUSH2 0x1AE2 DUP2 PUSH2 0x32EA JUMP JUMPDEST PUSH1 0x60 DUP2 MSTORE DUP3 PUSH1 0x20 DUP3 ADD MSTORE DUP3 PUSH1 0x40 DUP3 ADD MSTORE DUP3 PUSH1 0x60 DUP3 ADD MSTORE DUP3 PUSH1 0x80 DUP3 ADD MSTORE DUP3 PUSH1 0xA0 DUP3 ADD MSTORE DUP3 PUSH1 0xC0 DUP3 ADD MSTORE DUP3 PUSH1 0xE0 DUP3 ADD MSTORE DUP3 PUSH2 0x100 DUP3 ADD MSTORE PUSH1 0x60 PUSH2 0x120 DUP3 ADD MSTORE PUSH1 0x60 PUSH2 0x140 DUP3 ADD MSTORE ADD MSTORE PUSH1 0x60 PUSH1 0xC0 PUSH1 0x40 MLOAD PUSH2 0x1B39 DUP2 PUSH2 0x3306 JUMP JUMPDEST DUP3 DUP2 MSTORE DUP3 PUSH1 0x20 DUP3 ADD MSTORE DUP3 PUSH1 0x40 DUP3 ADD MSTORE DUP3 DUP1 DUP3 ADD MSTORE DUP3 PUSH1 0x80 DUP3 ADD MSTORE DUP3 PUSH1 0xA0 DUP3 ADD MSTORE ADD MSTORE PUSH1 0x60 PUSH1 0xA0 PUSH1 0x40 MLOAD PUSH2 0x1B6B DUP2 PUSH2 0x3321 JUMP JUMPDEST DUP3 DUP2 MSTORE DUP3 PUSH1 0x20 DUP3 ADD MSTORE DUP3 PUSH1 0x40 DUP3 ADD MSTORE DUP3 DUP1 DUP3 ADD MSTORE DUP3 PUSH1 0x80 DUP3 ADD MSTORE ADD MSTORE PUSH1 0x40 MLOAD DUP2 MLOAD SWAP1 PUSH1 0x20 DUP2 DUP2 DUP6 ADD SWAP4 DUP1 DUP6 DUP4 MCOPY DUP2 ADD PUSH0 DUP2 MSTORE SUB ADD SWAP1 KECCAK256 SWAP1 PUSH1 0x20 PUSH1 0x40 MLOAD DUP2 DUP2 DUP7 MLOAD DUP1 DUP7 DUP4 MCOPY DUP2 ADD PUSH1 0x2 DUP2 MSTORE SUB ADD SWAP1 KECCAK256 SWAP4 PUSH1 0x40 MLOAD SWAP3 DUP4 SWAP2 MLOAD DUP1 SWAP2 DUP4 MCOPY DUP2 ADD PUSH1 0x3 DUP2 MSTORE SUB ADD SWAP1 KECCAK256 SWAP1 PUSH1 0x40 MLOAD SWAP2 PUSH2 0x1BDD DUP4 PUSH2 0x32EA JUMP JUMPDEST PUSH2 0x1BE6 DUP3 PUSH2 0x3696 JUMP JUMPDEST DUP4 MSTORE PUSH1 0xFF PUSH1 0x1 DUP4 ADD SLOAD AND SWAP2 PUSH1 0x8 DUP4 LT ISZERO PUSH2 0x1856 JUMPI PUSH2 0x14BD SWAP3 PUSH1 0x20 DUP6 ADD MSTORE PUSH1 0x2 DUP2 ADD SLOAD PUSH1 0x40 DUP6 ADD MSTORE PUSH1 0x3 DUP2 ADD SLOAD PUSH1 0x60 DUP6 ADD MSTORE PUSH1 0x4 DUP2 ADD SLOAD PUSH1 0x80 DUP6 ADD MSTORE PUSH1 0x5 DUP2 ADD SLOAD PUSH1 0xA0 DUP6 ADD MSTORE PUSH1 0x6 DUP2 ADD SLOAD PUSH1 0xC0 DUP6 ADD MSTORE PUSH1 0x7 DUP2 ADD SLOAD PUSH1 0xE0 DUP6 ADD MSTORE PUSH1 0x8 DUP2 ADD SLOAD PUSH2 0x100 DUP6 ADD MSTORE PUSH2 0x1C56 PUSH1 0x9 DUP3 ADD PUSH2 0x3696 JUMP JUMPDEST PUSH2 0x120 DUP6 ADD MSTORE PUSH2 0x1C68 PUSH1 0xA DUP3 ADD PUSH2 0x3696 JUMP JUMPDEST PUSH2 0x140 DUP6 ADD MSTORE PUSH1 0xB ADD SLOAD PUSH1 0x1 PUSH1 0x1 PUSH1 0xA0 SHL SUB AND PUSH2 0x160 DUP5 ADD MSTORE PUSH1 0x40 MLOAD SWAP4 PUSH2 0x1CFB SWAP1 PUSH1 0x6 SWAP1 PUSH2 0x1C95 DUP8 PUSH2 0x3306 JUMP JUMPDEST PUSH2 0x1C9E DUP2 PUSH2 0x3696 JUMP JUMPDEST DUP8 MSTORE PUSH2 0x1CAC PUSH1 0x1 DUP3 ADD PUSH2 0x3696 JUMP JUMPDEST PUSH1 0x20 DUP9 ADD MSTORE PUSH2 0x1CBD PUSH1 0x2 DUP3 ADD PUSH2 0x3696 JUMP JUMPDEST PUSH1 0x40 DUP9 ADD MSTORE PUSH2 0x1CCE PUSH1 0x3 DUP3 ADD PUSH2 0x3696 JUMP JUMPDEST PUSH1 0x60 DUP9 ADD MSTORE PUSH2 0x1CDF PUSH1 0x4 DUP3 ADD PUSH2 0x3696 JUMP JUMPDEST PUSH1 0x80 DUP9 ADD MSTORE PUSH2 0x1CF0 PUSH1 0x5 DUP3 ADD PUSH2 0x3696 JUMP JUMPDEST PUSH1 0xA0 DUP9 ADD MSTORE ADD PUSH2 0x3696 JUMP JUMPDEST PUSH1 0xC0 DUP6 ADD MSTORE PUSH2 0x1D67 PUSH1 0x5 PUSH1 0x40 MLOAD SWAP3 PUSH2 0x1D12 DUP5 PUSH2 0x3321 JUMP JUMPDEST PUSH2 0x1D1B DUP2 PUSH2 0x3696 JUMP JUMPDEST DUP5 MSTORE PUSH2 0x1D29 PUSH1 0x1 DUP3 ADD PUSH2 0x3696 JUMP JUMPDEST PUSH1 0x20 DUP6 ADD MSTORE PUSH2 0x1D3A PUSH1 0x2 DUP3 ADD PUSH2 0x3696 JUMP JUMPDEST PUSH1 0x40 DUP6 ADD MSTORE PUSH2 0x1D4B PUSH1 0x3 DUP3 ADD PUSH2 0x3696 JUMP JUMPDEST PUSH1 0x60 DUP6 ADD MSTORE PUSH2 0x1D5C PUSH1 0x4 DUP3 ADD PUSH2 0x3696 JUMP JUMPDEST PUSH1 0x80 DUP6 ADD MSTORE ADD PUSH2 0x3696 JUMP JUMPDEST PUSH1 0xA0 DUP3 ADD MSTORE PUSH2 0x1ED0 PUSH1 0x40 MLOAD SWAP5 DUP6 SWAP5 PUSH1 0x60 DUP7 MSTORE PUSH2 0x1E24 PUSH2 0x1E0C PUSH2 0x1D97 DUP4 MLOAD PUSH2 0x180 PUSH1 0x60 DUP12 ADD MSTORE PUSH2 0x1E0 DUP11 ADD SWAP1 PUSH2 0x3736 JUMP JUMPDEST PUSH2 0x1DA9 PUSH1 0x20 DUP6 ADD MLOAD PUSH1 0x80 DUP12 ADD SWAP1 PUSH2 0x37C5 JUMP JUMPDEST PUSH1 0x40 DUP5 ADD MLOAD PUSH1 0xA0 DUP11 ADD MSTORE PUSH1 0x60 DUP5 ADD MLOAD PUSH1 0xC0 DUP11 ADD MSTORE PUSH1 0x80 DUP5 ADD MLOAD PUSH1 0xE0 DUP11 ADD MSTORE PUSH1 0xA0 DUP5 ADD MLOAD PUSH2 0x100 DUP11 ADD MSTORE PUSH1 0xC0 DUP5 ADD MLOAD PUSH2 0x120 DUP11 ADD MSTORE PUSH1 0xE0 DUP5 ADD MLOAD PUSH2 0x140 DUP11 ADD MSTORE PUSH2 0x100 DUP5 ADD MLOAD PUSH2 0x160 DUP11 ADD MSTORE PUSH2 0x120 DUP5 ADD MLOAD PUSH1 0x5F NOT DUP11 DUP4 SUB ADD PUSH2 0x180 DUP12 ADD MSTORE PUSH2 0x3736 JUMP JUMPDEST PUSH2 0x140 DUP4 ADD MLOAD DUP9 DUP3 SUB PUSH1 0x5F NOT ADD PUSH2 0x1A0 DUP11 ADD MSTORE PUSH2 0x3736 JUMP JUMPDEST SWAP1 PUSH2 0x160 PUSH1 0x1 DUP1 PUSH1 0xA0 SHL SUB SWAP2 ADD MLOAD AND PUSH2 0x1C0 DUP8 ADD MSTORE DUP6 DUP2 SUB PUSH1 0x20 DUP8 ADD MSTORE PUSH1 0xC0 PUSH2 0x1EBF PUSH2 0x1EAD PUSH2 0x1E9B PUSH2 0x1E89 PUSH2 0x1E77 PUSH2 0x1E65 DUP9 MLOAD PUSH1 0xE0 DUP10 MSTORE PUSH1 0xE0 DUP10 ADD SWAP1 PUSH2 0x3736 JUMP JUMPDEST PUSH1 0x20 DUP10 ADD MLOAD DUP9 DUP3 SUB PUSH1 0x20 DUP11 ADD MSTORE PUSH2 0x3736 JUMP JUMPDEST PUSH1 0x40 DUP9 ADD MLOAD DUP8 DUP3 SUB PUSH1 0x40 DUP10 ADD MSTORE PUSH2 0x3736 JUMP JUMPDEST PUSH1 0x60 DUP8 ADD MLOAD DUP7 DUP3 SUB PUSH1 0x60 DUP9 ADD MSTORE PUSH2 0x3736 JUMP JUMPDEST PUSH1 0x80 DUP7 ADD MLOAD DUP6 DUP3 SUB PUSH1 0x80 DUP8 ADD MSTORE PUSH2 0x3736 JUMP JUMPDEST PUSH1 0xA0 DUP6 ADD MLOAD DUP5 DUP3 SUB PUSH1 0xA0 DUP7 ADD MSTORE PUSH2 0x3736 JUMP JUMPDEST SWAP3 ADD MLOAD SWAP1 PUSH1 0xC0 DUP2 DUP5 SUB SWAP2 ADD MSTORE PUSH2 0x3736 JUMP JUMPDEST DUP4 DUP2 SUB PUSH1 0x40 DUP6 ADD MSTORE PUSH1 0xA0 PUSH2 0x1F41 PUSH2 0x1F2F PUSH2 0x1F1D PUSH2 0x1F0B PUSH2 0x1EF9 DUP8 MLOAD PUSH1 0xC0 DUP9 MSTORE PUSH1 0xC0 DUP9 ADD SWAP1 PUSH2 0x3736 JUMP JUMPDEST PUSH1 0x20 DUP9 ADD MLOAD DUP8 DUP3 SUB PUSH1 0x20 DUP10 ADD MSTORE PUSH2 0x3736 JUMP JUMPDEST PUSH1 0x40 DUP8 ADD MLOAD DUP7 DUP3 SUB PUSH1 0x40 DUP9 ADD MSTORE PUSH2 0x3736 JUMP JUMPDEST PUSH1 0x60 DUP7 ADD MLOAD DUP6 DUP3 SUB PUSH1 0x60 DUP8 ADD MSTORE PUSH2 0x3736 JUMP JUMPDEST PUSH1 0x80 DUP6 ADD MLOAD DUP5 DUP3 SUB PUSH1 0x80 DUP7 ADD MSTORE PUSH2 0x3736 JUMP JUMPDEST SWAP3 ADD MLOAD SWAP1 PUSH1 0xA0 DUP2 DUP5 SUB SWAP2 ADD MSTORE PUSH2 0x3736 JUMP JUMPDEST CALLVALUE PUSH2 0x1E7 JUMPI PUSH2 0x1F60 CALLDATASIZE PUSH2 0x375A JUMP JUMPDEST PUSH1 0x40 MLOAD PUSH4 0x95A8C58D PUSH1 0xE0 SHL DUP2 MSTORE CALLER PUSH1 0x4 DUP3 ADD MSTORE PUSH1 0x2 PUSH1 0x24 DUP3 ADD MSTORE SWAP1 SWAP2 SWAP1 PUSH1 0x20 DUP2 PUSH1 0x44 DUP2 PUSH1 0x1 PUSH1 0x1 PUSH1 0xA0 SHL SUB PUSH32 0x0 AND GAS STATICCALL DUP1 ISZERO PUSH2 0x533 JUMPI PUSH2 0x1FC5 SWAP2 PUSH0 SWAP2 PUSH2 0x2265 JUMPI POP PUSH2 0x3936 JUMP JUMPDEST PUSH1 0x40 MLOAD DUP4 MLOAD SWAP1 PUSH1 0x20 DUP2 DUP2 DUP8 ADD SWAP4 DUP1 DUP6 DUP4 MCOPY DUP2 ADD PUSH0 DUP2 MSTORE SUB ADD SWAP1 KECCAK256 SWAP4 PUSH1 0x1 DUP6 ADD PUSH1 0x3 PUSH1 0xFF NOT DUP3 SLOAD AND OR SWAP1 SSTORE PUSH1 0xA DUP6 ADD SWAP5 DUP4 MLOAD SWAP6 PUSH1 0x1 PUSH1 0x1 PUSH1 0x40 SHL SUB DUP8 GT PUSH2 0x457 JUMPI PUSH2 0x200F DUP2 SLOAD PUSH2 0x365E JUMP JUMPDEST PUSH1 0x1F DUP2 GT PUSH2 0x2235 JUMPI JUMPDEST POP PUSH1 0x20 SWAP7 PUSH1 0x1F DUP2 GT PUSH1 0x1 EQ PUSH2 0x21D1 JUMPI DUP1 PUSH2 0x204B SWAP2 PUSH1 0x20 SWAP7 SWAP8 SWAP9 SWAP10 PUSH0 SWAP2 PUSH2 0x21C6 JUMPI POP DUP2 PUSH1 0x1 SHL SWAP2 PUSH0 NOT SWAP1 PUSH1 0x3 SHL SHR NOT AND OR SWAP1 JUMP JUMPDEST SWAP1 SSTORE JUMPDEST PUSH1 0xB DUP2 ADD DUP1 SLOAD PUSH1 0x1 PUSH1 0x1 PUSH1 0xA0 SHL SUB NOT AND CALLER OR SWAP1 SSTORE TIMESTAMP PUSH1 0x5 SWAP1 SWAP2 ADD SSTORE PUSH1 0x40 MLOAD SWAP1 MLOAD SWAP1 SWAP3 DUP4 SWAP2 SWAP1 DUP2 SWAP1 DUP4 MCOPY DUP2 ADD PUSH1 0x1 DUP2 MSTORE SUB ADD SWAP1 KECCAK256 SWAP2 DUP1 MLOAD SWAP3 PUSH1 0x1 PUSH1 0x1 PUSH1 0x40 SHL SUB DUP5 GT PUSH2 0x457 JUMPI PUSH2 0x209D DUP2 SLOAD PUSH2 0x365E JUMP JUMPDEST PUSH1 0x1F DUP2 GT PUSH2 0x2196 JUMPI JUMPDEST POP PUSH1 0x20 SWAP4 PUSH1 0x1F DUP2 GT PUSH1 0x1 EQ PUSH2 0x2116 JUMPI DUP1 PUSH2 0x20F5 SWAP2 PUSH32 0x81B3714F32E3DD3D8FAA1A5F7732E52E015BE62219A6EAE68D1A779F682DB80B SWAP7 PUSH0 SWAP2 PUSH2 0x210B JUMPI POP DUP2 PUSH1 0x1 SHL SWAP2 PUSH0 NOT SWAP1 PUSH1 0x3 SHL SHR NOT AND OR SWAP1 JUMP JUMPDEST SWAP1 SSTORE JUMPDEST PUSH2 0x398 PUSH1 0x40 MLOAD SWAP3 DUP4 SWAP3 TIMESTAMP SWAP2 CALLER SWAP1 DUP6 PUSH2 0x39D8 JUMP JUMPDEST SWAP1 POP DUP5 ADD MLOAD DUP8 PUSH2 0x2BD JUMP JUMPDEST PUSH1 0x1F NOT DUP2 AND DUP3 PUSH0 MSTORE DUP6 PUSH0 KECCAK256 SWAP1 PUSH0 JUMPDEST DUP2 DUP2 LT PUSH2 0x217E JUMPI POP SWAP1 PUSH32 0x81B3714F32E3DD3D8FAA1A5F7732E52E015BE62219A6EAE68D1A779F682DB80B SWAP7 DUP4 PUSH1 0x1 SWAP5 SWAP4 LT PUSH2 0x2166 JUMPI JUMPDEST POP POP DUP2 SHL ADD SWAP1 SSTORE PUSH2 0x20F8 JUMP JUMPDEST DUP6 ADD MLOAD PUSH0 NOT PUSH1 0xF8 DUP5 PUSH1 0x3 SHL AND SHR NOT AND SWAP1 SSTORE DUP7 DUP1 PUSH2 0x215A JUMP JUMPDEST DUP6 DUP9 ADD MLOAD DUP4 SSTORE PUSH1 0x20 SWAP8 DUP9 ADD SWAP8 PUSH1 0x1 SWAP1 SWAP4 ADD SWAP3 ADD PUSH2 0x2124 JUMP JUMPDEST PUSH2 0x21C0 SWAP1 DUP3 PUSH0 MSTORE PUSH1 0x20 PUSH0 KECCAK256 PUSH1 0x1F DUP8 ADD PUSH1 0x5 SHR DUP2 ADD SWAP2 PUSH1 0x20 DUP9 LT PUSH2 0x44D JUMPI PUSH1 0x1F ADD PUSH1 0x5 SHR ADD SWAP1 PUSH2 0x3825 JUMP JUMPDEST DUP5 PUSH2 0x20A6 JUMP JUMPDEST SWAP1 POP DUP9 ADD MLOAD DUP11 PUSH2 0x2BD JUMP JUMPDEST PUSH1 0x1F NOT DUP2 AND DUP3 PUSH0 MSTORE DUP9 PUSH0 KECCAK256 SWAP1 PUSH0 JUMPDEST DUP2 DUP2 LT PUSH2 0x221D JUMPI POP SWAP1 PUSH1 0x20 SWAP7 SWAP8 SWAP9 SWAP10 DUP4 PUSH1 0x1 SWAP5 SWAP4 LT PUSH2 0x2205 JUMPI JUMPDEST POP POP DUP2 SHL ADD SWAP1 SSTORE PUSH2 0x204E JUMP JUMPDEST DUP10 ADD MLOAD PUSH0 NOT PUSH1 0xF8 DUP5 PUSH1 0x3 SHL AND SHR NOT AND SWAP1 SSTORE DUP10 DUP1 PUSH2 0x21F9 JUMP JUMPDEST DUP9 DUP12 ADD MLOAD DUP4 SSTORE PUSH1 0x20 SWAP11 DUP12 ADD SWAP11 PUSH1 0x1 SWAP1 SWAP4 ADD SWAP3 ADD PUSH2 0x21DF JUMP JUMPDEST PUSH2 0x225F SWAP1 DUP3 PUSH0 MSTORE PUSH1 0x20 PUSH0 KECCAK256 PUSH1 0x1F DUP11 ADD PUSH1 0x5 SHR DUP2 ADD SWAP2 PUSH1 0x20 DUP12 LT PUSH2 0x44D JUMPI PUSH1 0x1F ADD PUSH1 0x5 SHR ADD SWAP1 PUSH2 0x3825 JUMP JUMPDEST DUP8 PUSH2 0x2018 JUMP JUMPDEST PUSH2 0x227E SWAP2 POP PUSH1 0x20 RETURNDATASIZE PUSH1 0x20 GT PUSH2 0x52C JUMPI PUSH2 0x51E DUP2 DUP4 PUSH2 0x333C JUMP JUMPDEST DUP6 PUSH2 0x261 JUMP JUMPDEST CALLVALUE PUSH2 0x1E7 JUMPI PUSH1 0x20 CALLDATASIZE PUSH1 0x3 NOT ADD SLT PUSH2 0x1E7 JUMPI PUSH1 0x4 CALLDATALOAD PUSH1 0x1 PUSH1 0x1 PUSH1 0x40 SHL SUB DUP2 GT PUSH2 0x1E7 JUMPI PUSH1 0x20 PUSH2 0x22B7 DUP2 SWAP3 CALLDATASIZE SWAP1 PUSH1 0x4 ADD PUSH2 0x335D JUMP JUMPDEST PUSH1 0x40 MLOAD SWAP3 DUP2 DUP5 SWAP3 MLOAD SWAP2 DUP3 SWAP2 ADD DUP4 MCOPY DUP2 ADD PUSH1 0x2 DUP2 MSTORE SUB ADD SWAP1 KECCAK256 PUSH1 0xE0 PUSH2 0x14BD PUSH2 0x22DD DUP4 PUSH2 0x3696 JUMP JUMPDEST SWAP3 PUSH2 0x2392 PUSH2 0x22ED PUSH1 0x1 DUP4 ADD PUSH2 0x3696 JUMP JUMPDEST SWAP2 PUSH2 0x2384 PUSH2 0x22FD PUSH1 0x2 DUP4 ADD PUSH2 0x3696 JUMP JUMPDEST PUSH2 0x2376 PUSH2 0x230C PUSH1 0x3 DUP6 ADD PUSH2 0x3696 JUMP JUMPDEST PUSH2 0x2368 PUSH2 0x231B PUSH1 0x4 DUP8 ADD PUSH2 0x3696 JUMP JUMPDEST SWAP4 PUSH2 0x235A PUSH2 0x2337 PUSH1 0x6 PUSH2 0x2330 PUSH1 0x5 DUP12 ADD PUSH2 0x3696 JUMP JUMPDEST SWAP10 ADD PUSH2 0x3696 JUMP JUMPDEST SWAP10 PUSH2 0x234C PUSH1 0x40 MLOAD SWAP15 DUP16 SWAP15 DUP16 DUP2 DUP2 MSTORE ADD SWAP1 PUSH2 0x3736 JUMP JUMPDEST DUP14 DUP2 SUB PUSH1 0x20 DUP16 ADD MSTORE SWAP1 PUSH2 0x3736 JUMP JUMPDEST SWAP1 DUP12 DUP3 SUB PUSH1 0x40 DUP14 ADD MSTORE PUSH2 0x3736 JUMP JUMPDEST SWAP1 DUP10 DUP3 SUB PUSH1 0x60 DUP12 ADD MSTORE PUSH2 0x3736 JUMP JUMPDEST SWAP1 DUP8 DUP3 SUB PUSH1 0x80 DUP10 ADD MSTORE PUSH2 0x3736 JUMP JUMPDEST SWAP1 DUP6 DUP3 SUB PUSH1 0xA0 DUP8 ADD MSTORE PUSH2 0x3736 JUMP JUMPDEST SWAP1 DUP4 DUP3 SUB PUSH1 0xC0 DUP6 ADD MSTORE PUSH2 0x3736 JUMP JUMPDEST CALLVALUE PUSH2 0x1E7 JUMPI PUSH2 0x23AE CALLDATASIZE PUSH2 0x362D JUMP JUMPDEST PUSH1 0x40 MLOAD PUSH4 0x95A8C58D PUSH1 0xE0 SHL DUP2 MSTORE CALLER PUSH1 0x4 DUP3 ADD MSTORE PUSH1 0x2 PUSH1 0x24 DUP3 ADD MSTORE SWAP1 PUSH1 0x20 DUP3 PUSH1 0x44 DUP2 PUSH1 0x1 PUSH1 0x1 PUSH1 0xA0 SHL SUB PUSH32 0x0 AND GAS STATICCALL SWAP2 DUP3 ISZERO PUSH2 0x533 JUMPI PUSH2 0x2416 SWAP3 PUSH2 0x13D9 SWAP2 PUSH0 SWAP2 PUSH2 0x2265 JUMPI POP PUSH2 0x3936 JUMP JUMPDEST PUSH1 0x40 MLOAD DUP2 MLOAD SWAP1 PUSH1 0x20 DUP2 DUP2 DUP6 ADD SWAP4 DUP1 DUP6 DUP4 MCOPY DUP2 ADD PUSH0 DUP2 MSTORE SUB ADD SWAP1 KECCAK256 SWAP1 PUSH1 0x1 DUP3 ADD PUSH1 0x7 PUSH1 0xFF NOT DUP3 SLOAD AND OR SWAP1 SSTORE PUSH1 0xBE TIMESTAMP ADD SWAP2 DUP3 TIMESTAMP GT PUSH2 0x39D JUMPI PUSH32 0xE559A2D1275A26FA8461F282F80A39AD42CBD7CCF7C977BCE28BE45C4D8418F3 SWAP4 PUSH2 0x398 SWAP4 PUSH1 0x8 PUSH1 0x20 SWAP4 ADD SSTORE PUSH1 0x40 MLOAD SWAP3 DUP4 SWAP2 MLOAD DUP1 SWAP2 DUP4 MCOPY DUP2 ADD PUSH0 DUP2 MSTORE SUB ADD SWAP1 KECCAK256 PUSH1 0x40 MLOAD SWAP2 DUP3 SWAP2 TIMESTAMP SWAP1 CALLER DUP5 PUSH2 0x39AE JUMP JUMPDEST CALLVALUE PUSH2 0x1E7 JUMPI PUSH2 0x24AA CALLDATASIZE PUSH2 0x33B2 JUMP JUMPDEST PUSH1 0x40 MLOAD PUSH4 0x95A8C58D PUSH1 0xE0 SHL DUP2 MSTORE CALLER PUSH1 0x4 DUP3 ADD MSTORE PUSH0 PUSH1 0x24 DUP3 ADD MSTORE SWAP1 SWAP3 SWAP1 PUSH1 0x20 DUP2 PUSH1 0x44 DUP2 PUSH1 0x1 PUSH1 0x1 PUSH1 0xA0 SHL SUB PUSH32 0x0 AND GAS STATICCALL DUP1 ISZERO PUSH2 0x533 JUMPI PUSH2 0x250E SWAP2 PUSH0 SWAP2 PUSH2 0x1320 JUMPI POP PUSH2 0x37EA JUMP JUMPDEST PUSH1 0x40 MLOAD SWAP2 DUP2 MLOAD SWAP3 PUSH1 0x20 DUP2 DUP2 DUP6 ADD SWAP6 DUP1 DUP8 DUP4 MCOPY DUP2 ADD PUSH0 DUP2 MSTORE SUB ADD SWAP1 KECCAK256 PUSH1 0x1 DUP2 ADD PUSH1 0x4 PUSH1 0xFF NOT DUP3 SLOAD AND OR SWAP1 SSTORE PUSH1 0x6 TIMESTAMP SWAP2 ADD SSTORE PUSH2 0x25A4 PUSH1 0x6 PUSH1 0x40 MLOAD PUSH1 0x20 DUP2 DUP7 MLOAD DUP1 DUP10 DUP4 MCOPY DUP2 ADD PUSH1 0x2 DUP2 MSTORE SUB ADD SWAP1 KECCAK256 PUSH2 0x2562 DUP2 PUSH2 0x383B JUMP JUMPDEST PUSH2 0x256E PUSH1 0x1 DUP3 ADD PUSH2 0x383B JUMP JUMPDEST PUSH2 0x257A PUSH1 0x2 DUP3 ADD PUSH2 0x383B JUMP JUMPDEST PUSH2 0x2586 PUSH1 0x3 DUP3 ADD PUSH2 0x383B JUMP JUMPDEST PUSH2 0x2592 PUSH1 0x4 DUP3 ADD PUSH2 0x383B JUMP JUMPDEST PUSH2 0x259E PUSH1 0x5 DUP3 ADD PUSH2 0x383B JUMP JUMPDEST ADD PUSH2 0x383B JUMP JUMPDEST PUSH2 0x25F8 PUSH1 0x5 PUSH1 0x40 MLOAD PUSH1 0x20 DUP2 DUP7 MLOAD DUP1 DUP10 DUP4 MCOPY DUP2 ADD PUSH1 0x3 DUP2 MSTORE SUB ADD SWAP1 KECCAK256 PUSH2 0x25C8 DUP2 PUSH2 0x383B JUMP JUMPDEST PUSH2 0x25D4 PUSH1 0x1 DUP3 ADD PUSH2 0x383B JUMP JUMPDEST PUSH2 0x25E0 PUSH1 0x2 DUP3 ADD PUSH2 0x383B JUMP JUMPDEST PUSH2 0x25EC PUSH1 0x3 DUP3 ADD PUSH2 0x383B JUMP JUMPDEST PUSH2 0x259E PUSH1 0x4 DUP3 ADD PUSH2 0x383B JUMP JUMPDEST PUSH1 0x40 MLOAD PUSH1 0x20 DUP2 DUP5 MLOAD DUP1 DUP8 DUP4 MCOPY DUP2 ADD PUSH1 0x2 DUP2 MSTORE SUB ADD SWAP1 KECCAK256 DUP2 MLOAD DUP1 MLOAD SWAP1 PUSH1 0x1 PUSH1 0x1 PUSH1 0x40 SHL SUB DUP3 GT PUSH2 0x457 JUMPI PUSH2 0x262B DUP4 SLOAD PUSH2 0x365E JUMP JUMPDEST PUSH1 0x1F DUP2 GT PUSH2 0x3279 JUMPI JUMPDEST POP PUSH1 0x20 SWAP1 PUSH1 0x1F DUP4 GT PUSH1 0x1 EQ PUSH2 0x3216 JUMPI PUSH2 0x2663 SWAP3 SWAP2 PUSH0 SWAP2 DUP4 PUSH2 0xC9D JUMPI POP POP DUP2 PUSH1 0x1 SHL SWAP2 PUSH0 NOT SWAP1 PUSH1 0x3 SHL SHR NOT AND OR SWAP1 JUMP JUMPDEST DUP2 SSTORE JUMPDEST PUSH1 0x1 DUP2 ADD PUSH1 0x20 DUP4 ADD MLOAD DUP1 MLOAD SWAP1 PUSH1 0x1 PUSH1 0x1 PUSH1 0x40 SHL SUB DUP3 GT PUSH2 0x457 JUMPI PUSH2 0x268A DUP4 SLOAD PUSH2 0x365E JUMP JUMPDEST PUSH1 0x1F DUP2 GT PUSH2 0x31E6 JUMPI JUMPDEST POP PUSH1 0x20 SWAP1 PUSH1 0x1F DUP4 GT PUSH1 0x1 EQ PUSH2 0x3183 JUMPI PUSH2 0x26C2 SWAP3 SWAP2 PUSH0 SWAP2 DUP4 PUSH2 0x1036 JUMPI POP POP DUP2 PUSH1 0x1 SHL SWAP2 PUSH0 NOT SWAP1 PUSH1 0x3 SHL SHR NOT AND OR SWAP1 JUMP JUMPDEST SWAP1 SSTORE JUMPDEST PUSH1 0x2 DUP2 ADD PUSH1 0x40 DUP4 ADD MLOAD DUP1 MLOAD SWAP1 PUSH1 0x1 PUSH1 0x1 PUSH1 0x40 SHL SUB DUP3 GT PUSH2 0x457 JUMPI PUSH2 0x26E9 DUP4 SLOAD PUSH2 0x365E JUMP JUMPDEST PUSH1 0x1F DUP2 GT PUSH2 0x3153 JUMPI JUMPDEST POP PUSH1 0x20 SWAP1 PUSH1 0x1F DUP4 GT PUSH1 0x1 EQ PUSH2 0x30F0 JUMPI PUSH2 0x2721 SWAP3 SWAP2 PUSH0 SWAP2 DUP4 PUSH2 0x1036 JUMPI POP POP DUP2 PUSH1 0x1 SHL SWAP2 PUSH0 NOT SWAP1 PUSH1 0x3 SHL SHR NOT AND OR SWAP1 JUMP JUMPDEST SWAP1 SSTORE JUMPDEST PUSH1 0x3 DUP2 ADD PUSH1 0x60 DUP4 ADD MLOAD DUP1 MLOAD SWAP1 PUSH1 0x1 PUSH1 0x1 PUSH1 0x40 SHL SUB DUP3 GT PUSH2 0x457 JUMPI PUSH2 0x2748 DUP4 SLOAD PUSH2 0x365E JUMP JUMPDEST PUSH1 0x1F DUP2 GT PUSH2 0x30C0 JUMPI JUMPDEST POP PUSH1 0x20 SWAP1 PUSH1 0x1F DUP4 GT PUSH1 0x1 EQ PUSH2 0x305D JUMPI PUSH2 0x2780 SWAP3 SWAP2 PUSH0 SWAP2 DUP4 PUSH2 0x1036 JUMPI POP POP DUP2 PUSH1 0x1 SHL SWAP2 PUSH0 NOT SWAP1 PUSH1 0x3 SHL SHR NOT AND OR SWAP1 JUMP JUMPDEST SWAP1 SSTORE JUMPDEST PUSH1 0x4 DUP2 ADD PUSH1 0x80 DUP4 ADD MLOAD DUP1 MLOAD SWAP1 PUSH1 0x1 PUSH1 0x1 PUSH1 0x40 SHL SUB DUP3 GT PUSH2 0x457 JUMPI PUSH2 0x27A7 DUP4 SLOAD PUSH2 0x365E JUMP JUMPDEST PUSH1 0x1F DUP2 GT PUSH2 0x302D JUMPI JUMPDEST POP PUSH1 0x20 SWAP1 PUSH1 0x1F DUP4 GT PUSH1 0x1 EQ PUSH2 0x2FCA JUMPI PUSH2 0x27DF SWAP3 SWAP2 PUSH0 SWAP2 DUP4 PUSH2 0x1036 JUMPI POP POP DUP2 PUSH1 0x1 SHL SWAP2 PUSH0 NOT SWAP1 PUSH1 0x3 SHL SHR NOT AND OR SWAP1 JUMP JUMPDEST SWAP1 SSTORE JUMPDEST PUSH1 0x5 DUP2 ADD PUSH1 0xA0 DUP4 ADD MLOAD DUP1 MLOAD SWAP1 PUSH1 0x1 PUSH1 0x1 PUSH1 0x40 SHL SUB DUP3 GT PUSH2 0x457 JUMPI PUSH2 0x2806 DUP4 SLOAD PUSH2 0x365E JUMP JUMPDEST PUSH1 0x1F DUP2 GT PUSH2 0x2F9A JUMPI JUMPDEST POP PUSH1 0x20 SWAP1 PUSH1 0x1F DUP4 GT PUSH1 0x1 EQ PUSH2 0x2F31 JUMPI DUP3 PUSH1 0xC0 SWAP6 SWAP4 PUSH1 0x6 SWAP6 SWAP4 PUSH2 0x2845 SWAP4 PUSH0 SWAP3 PUSH2 0xF92 JUMPI POP POP DUP2 PUSH1 0x1 SHL SWAP2 PUSH0 NOT SWAP1 PUSH1 0x3 SHL SHR NOT AND OR SWAP1 JUMP JUMPDEST SWAP1 SSTORE JUMPDEST ADD SWAP2 ADD MLOAD DUP1 MLOAD SWAP1 PUSH1 0x1 PUSH1 0x1 PUSH1 0x40 SHL SUB DUP3 GT PUSH2 0x457 JUMPI PUSH2 0x2867 DUP4 SLOAD PUSH2 0x365E JUMP JUMPDEST PUSH1 0x1F DUP2 GT PUSH2 0x2F01 JUMPI JUMPDEST POP PUSH1 0x20 SWAP1 PUSH1 0x1F DUP4 GT PUSH1 0x1 EQ PUSH2 0x2E9E JUMPI PUSH2 0x289F SWAP3 SWAP2 PUSH0 SWAP2 DUP4 PUSH2 0xE61 JUMPI POP POP DUP2 PUSH1 0x1 SHL SWAP2 PUSH0 NOT SWAP1 PUSH1 0x3 SHL SHR NOT AND OR SWAP1 JUMP JUMPDEST SWAP1 SSTORE JUMPDEST PUSH1 0x40 MLOAD PUSH1 0x20 DUP2 DUP4 MLOAD DUP1 DUP7 DUP4 MCOPY DUP2 ADD PUSH1 0x3 DUP2 MSTORE SUB ADD SWAP1 KECCAK256 DUP4 MLOAD DUP1 MLOAD SWAP1 PUSH1 0x1 PUSH1 0x1 PUSH1 0x40 SHL SUB DUP3 GT PUSH2 0x457 JUMPI PUSH2 0x28D5 DUP4 SLOAD PUSH2 0x365E JUMP JUMPDEST PUSH1 0x1F DUP2 GT PUSH2 0x2E6E JUMPI JUMPDEST POP PUSH1 0x20 SWAP1 PUSH1 0x1F DUP4 GT PUSH1 0x1 EQ PUSH2 0x2E0B JUMPI PUSH2 0x290D SWAP3 SWAP2 PUSH0 SWAP2 DUP4 PUSH2 0xE61 JUMPI POP POP DUP2 PUSH1 0x1 SHL SWAP2 PUSH0 NOT SWAP1 PUSH1 0x3 SHL SHR NOT AND OR SWAP1 JUMP JUMPDEST DUP2 SSTORE JUMPDEST PUSH1 0x1 DUP2 ADD PUSH1 0x20 DUP6 ADD MLOAD DUP1 MLOAD SWAP1 PUSH1 0x1 PUSH1 0x1 PUSH1 0x40 SHL SUB DUP3 GT PUSH2 0x457 JUMPI PUSH2 0x2934 DUP4 SLOAD PUSH2 0x365E JUMP JUMPDEST PUSH1 0x1F DUP2 GT PUSH2 0x2DDB JUMPI JUMPDEST POP PUSH1 0x20 SWAP1 PUSH1 0x1F DUP4 GT PUSH1 0x1 EQ PUSH2 0x2D78 JUMPI PUSH2 0x296C SWAP3 SWAP2 PUSH0 SWAP2 DUP4 PUSH2 0xC9D JUMPI POP POP DUP2 PUSH1 0x1 SHL SWAP2 PUSH0 NOT SWAP1 PUSH1 0x3 SHL SHR NOT AND OR SWAP1 JUMP JUMPDEST SWAP1 SSTORE JUMPDEST PUSH1 0x2 DUP2 ADD PUSH1 0x40 DUP6 ADD MLOAD DUP1 MLOAD SWAP1 PUSH1 0x1 PUSH1 0x1 PUSH1 0x40 SHL SUB DUP3 GT PUSH2 0x457 JUMPI PUSH2 0x2993 DUP4 SLOAD PUSH2 0x365E JUMP JUMPDEST PUSH1 0x1F DUP2 GT PUSH2 0x2D48 JUMPI JUMPDEST POP PUSH1 0x20 SWAP1 PUSH1 0x1F DUP4 GT PUSH1 0x1 EQ PUSH2 0x2CE5 JUMPI PUSH2 0x29CB SWAP3 SWAP2 PUSH0 SWAP2 DUP4 PUSH2 0xC9D JUMPI POP POP DUP2 PUSH1 0x1 SHL SWAP2 PUSH0 NOT SWAP1 PUSH1 0x3 SHL SHR NOT AND OR SWAP1 JUMP JUMPDEST SWAP1 SSTORE JUMPDEST PUSH1 0x3 DUP2 ADD PUSH1 0x60 DUP6 ADD MLOAD DUP1 MLOAD SWAP1 PUSH1 0x1 PUSH1 0x1 PUSH1 0x40 SHL SUB DUP3 GT PUSH2 0x457 JUMPI PUSH2 0x29F2 DUP4 SLOAD PUSH2 0x365E JUMP JUMPDEST PUSH1 0x1F DUP2 GT PUSH2 0x2CB5 JUMPI JUMPDEST POP PUSH1 0x20 SWAP1 PUSH1 0x1F DUP4 GT PUSH1 0x1 EQ PUSH2 0x2C52 JUMPI PUSH2 0x2A2A SWAP3 SWAP2 PUSH0 SWAP2 DUP4 PUSH2 0xC9D JUMPI POP POP DUP2 PUSH1 0x1 SHL SWAP2 PUSH0 NOT SWAP1 PUSH1 0x3 SHL SHR NOT AND OR SWAP1 JUMP JUMPDEST SWAP1 SSTORE JUMPDEST PUSH1 0x4 DUP2 ADD PUSH1 0x80 DUP6 ADD MLOAD DUP1 MLOAD SWAP1 PUSH1 0x1 PUSH1 0x1 PUSH1 0x40 SHL SUB DUP3 GT PUSH2 0x457 JUMPI PUSH2 0x2A51 DUP4 SLOAD PUSH2 0x365E JUMP JUMPDEST PUSH1 0x1F DUP2 GT PUSH2 0x2C22 JUMPI JUMPDEST POP PUSH1 0x20 SWAP1 PUSH1 0x1F DUP4 GT PUSH1 0x1 EQ PUSH2 0x2BB9 JUMPI DUP3 PUSH1 0xA0 SWAP6 SWAP4 PUSH1 0x5 SWAP6 SWAP4 PUSH2 0x2A90 SWAP4 PUSH0 SWAP3 PUSH2 0xB3C JUMPI POP POP DUP2 PUSH1 0x1 SHL SWAP2 PUSH0 NOT SWAP1 PUSH1 0x3 SHL SHR NOT AND OR SWAP1 JUMP JUMPDEST SWAP1 SSTORE JUMPDEST ADD SWAP4 ADD MLOAD SWAP3 DUP4 MLOAD PUSH1 0x1 PUSH1 0x1 PUSH1 0x40 SHL SUB DUP2 GT PUSH2 0x457 JUMPI PUSH2 0x2AB2 DUP3 SLOAD PUSH2 0x365E JUMP JUMPDEST PUSH1 0x1F DUP2 GT PUSH2 0x2B89 JUMPI JUMPDEST POP PUSH1 0x20 PUSH1 0x1F DUP3 GT PUSH1 0x1 EQ PUSH2 0x2B15 JUMPI SWAP3 PUSH2 0x398 SWAP5 SWAP3 PUSH2 0xB14 DUP4 PUSH1 0x20 SWAP5 PUSH1 0x9 SWAP8 PUSH32 0xBE8DFEFDA19EDB2EA695885130355727F7788A97D4B87A6612A78EE860EA23AB SWAP11 PUSH0 SWAP3 PUSH2 0xB3C JUMPI POP POP DUP2 PUSH1 0x1 SHL SWAP2 PUSH0 NOT SWAP1 PUSH1 0x3 SHL SHR NOT AND OR SWAP1 JUMP JUMPDEST PUSH1 0x1F NOT DUP3 AND SWAP6 DUP4 PUSH0 MSTORE DUP2 PUSH0 KECCAK256 SWAP7 PUSH0 JUMPDEST DUP2 DUP2 LT PUSH2 0x2B71 JUMPI POP DUP4 PUSH32 0xBE8DFEFDA19EDB2EA695885130355727F7788A97D4B87A6612A78EE860EA23AB SWAP9 PUSH1 0x9 SWAP8 SWAP5 PUSH2 0x398 SWAP10 SWAP8 SWAP5 PUSH1 0x20 SWAP8 PUSH1 0x1 SWAP6 LT PUSH2 0xBA4 JUMPI POP POP POP DUP2 SHL ADD SWAP1 SSTORE PUSH2 0xB17 JUMP JUMPDEST DUP4 DUP4 ADD MLOAD DUP10 SSTORE PUSH1 0x1 SWAP1 SWAP9 ADD SWAP8 PUSH1 0x20 SWAP4 DUP5 ADD SWAP4 ADD PUSH2 0x2B24 JUMP JUMPDEST PUSH2 0x2BB3 SWAP1 DUP4 PUSH0 MSTORE PUSH1 0x20 PUSH0 KECCAK256 PUSH1 0x1F DUP5 ADD PUSH1 0x5 SHR DUP2 ADD SWAP2 PUSH1 0x20 DUP6 LT PUSH2 0x44D JUMPI PUSH1 0x1F ADD PUSH1 0x5 SHR ADD SWAP1 PUSH2 0x3825 JUMP JUMPDEST DUP6 PUSH2 0x2ABB JUMP JUMPDEST SWAP1 PUSH1 0x1F NOT DUP4 AND SWAP2 DUP5 PUSH0 MSTORE DUP2 PUSH0 KECCAK256 SWAP3 PUSH0 JUMPDEST DUP2 DUP2 LT PUSH2 0x2C0A JUMPI POP SWAP3 PUSH1 0x1 SWAP3 DUP6 SWAP3 PUSH1 0xA0 SWAP9 SWAP7 PUSH1 0x5 SWAP9 SWAP7 LT PUSH2 0x2BF2 JUMPI JUMPDEST POP POP POP DUP2 SHL ADD SWAP1 SSTORE PUSH2 0x2A93 JUMP JUMPDEST ADD MLOAD PUSH0 NOT PUSH1 0xF8 DUP5 PUSH1 0x3 SHL AND SHR NOT AND SWAP1 SSTORE DUP10 DUP1 DUP1 PUSH2 0x2BE5 JUMP JUMPDEST SWAP3 SWAP4 PUSH1 0x20 PUSH1 0x1 DUP2 SWAP3 DUP8 DUP7 ADD MLOAD DUP2 SSTORE ADD SWAP6 ADD SWAP4 ADD PUSH2 0x2BC9 JUMP JUMPDEST PUSH2 0x2C4C SWAP1 DUP5 PUSH0 MSTORE PUSH1 0x20 PUSH0 KECCAK256 PUSH1 0x1F DUP6 ADD PUSH1 0x5 SHR DUP2 ADD SWAP2 PUSH1 0x20 DUP7 LT PUSH2 0x44D JUMPI PUSH1 0x1F ADD PUSH1 0x5 SHR ADD SWAP1 PUSH2 0x3825 JUMP JUMPDEST DUP8 PUSH2 0x2A5A JUMP JUMPDEST SWAP1 PUSH1 0x1F NOT DUP4 AND SWAP2 DUP5 PUSH0 MSTORE DUP2 PUSH0 KECCAK256 SWAP3 PUSH0 JUMPDEST DUP2 DUP2 LT PUSH2 0x2C9D JUMPI POP SWAP1 DUP5 PUSH1 0x1 SWAP6 SWAP5 SWAP4 SWAP3 LT PUSH2 0x2C85 JUMPI JUMPDEST POP POP POP DUP2 SHL ADD SWAP1 SSTORE PUSH2 0x2A2D JUMP JUMPDEST ADD MLOAD PUSH0 NOT PUSH1 0xF8 DUP5 PUSH1 0x3 SHL AND SHR NOT AND SWAP1 SSTORE DUP8 DUP1 DUP1 PUSH2 0x2C78 JUMP JUMPDEST SWAP3 SWAP4 PUSH1 0x20 PUSH1 0x1 DUP2 SWAP3 DUP8 DUP7 ADD MLOAD DUP2 SSTORE ADD SWAP6 ADD SWAP4 ADD PUSH2 0x2C62 JUMP JUMPDEST PUSH2 0x2CDF SWAP1 DUP5 PUSH0 MSTORE PUSH1 0x20 PUSH0 KECCAK256 PUSH1 0x1F DUP6 ADD PUSH1 0x5 SHR DUP2 ADD SWAP2 PUSH1 0x20 DUP7 LT PUSH2 0x44D JUMPI PUSH1 0x1F ADD PUSH1 0x5 SHR ADD SWAP1 PUSH2 0x3825 JUMP JUMPDEST DUP8 PUSH2 0x29FB JUMP JUMPDEST SWAP1 PUSH1 0x1F NOT DUP4 AND SWAP2 DUP5 PUSH0 MSTORE DUP2 PUSH0 KECCAK256 SWAP3 PUSH0 JUMPDEST DUP2 DUP2 LT PUSH2 0x2D30 JUMPI POP SWAP1 DUP5 PUSH1 0x1 SWAP6 SWAP5 SWAP4 SWAP3 LT PUSH2 0x2D18 JUMPI JUMPDEST POP POP POP DUP2 SHL ADD SWAP1 SSTORE PUSH2 0x29CE JUMP JUMPDEST ADD MLOAD PUSH0 NOT PUSH1 0xF8 DUP5 PUSH1 0x3 SHL AND SHR NOT AND SWAP1 SSTORE DUP8 DUP1 DUP1 PUSH2 0x2D0B JUMP JUMPDEST SWAP3 SWAP4 PUSH1 0x20 PUSH1 0x1 DUP2 SWAP3 DUP8 DUP7 ADD MLOAD DUP2 SSTORE ADD SWAP6 ADD SWAP4 ADD PUSH2 0x2CF5 JUMP JUMPDEST PUSH2 0x2D72 SWAP1 DUP5 PUSH0 MSTORE PUSH1 0x20 PUSH0 KECCAK256 PUSH1 0x1F DUP6 ADD PUSH1 0x5 SHR DUP2 ADD SWAP2 PUSH1 0x20 DUP7 LT PUSH2 0x44D JUMPI PUSH1 0x1F ADD PUSH1 0x5 SHR ADD SWAP1 PUSH2 0x3825 JUMP JUMPDEST DUP8 PUSH2 0x299C JUMP JUMPDEST SWAP1 PUSH1 0x1F NOT DUP4 AND SWAP2 DUP5 PUSH0 MSTORE DUP2 PUSH0 KECCAK256 SWAP3 PUSH0 JUMPDEST DUP2 DUP2 LT PUSH2 0x2DC3 JUMPI POP SWAP1 DUP5 PUSH1 0x1 SWAP6 SWAP5 SWAP4 SWAP3 LT PUSH2 0x2DAB JUMPI JUMPDEST POP POP POP DUP2 SHL ADD SWAP1 SSTORE PUSH2 0x296F JUMP JUMPDEST ADD MLOAD PUSH0 NOT PUSH1 0xF8 DUP5 PUSH1 0x3 SHL AND SHR NOT AND SWAP1 SSTORE DUP8 DUP1 DUP1 PUSH2 0x2D9E JUMP JUMPDEST SWAP3 SWAP4 PUSH1 0x20 PUSH1 0x1 DUP2 SWAP3 DUP8 DUP7 ADD MLOAD DUP2 SSTORE ADD SWAP6 ADD SWAP4 ADD PUSH2 0x2D88 JUMP JUMPDEST PUSH2 0x2E05 SWAP1 DUP5 PUSH0 MSTORE PUSH1 0x20 PUSH0 KECCAK256 PUSH1 0x1F DUP6 ADD PUSH1 0x5 SHR DUP2 ADD SWAP2 PUSH1 0x20 DUP7 LT PUSH2 0x44D JUMPI PUSH1 0x1F ADD PUSH1 0x5 SHR ADD SWAP1 PUSH2 0x3825 JUMP JUMPDEST DUP8 PUSH2 0x293D JUMP JUMPDEST SWAP1 PUSH1 0x1F NOT DUP4 AND SWAP2 DUP5 PUSH0 MSTORE DUP2 PUSH0 KECCAK256 SWAP3 PUSH0 JUMPDEST DUP2 DUP2 LT PUSH2 0x2E56 JUMPI POP SWAP1 DUP5 PUSH1 0x1 SWAP6 SWAP5 SWAP4 SWAP3 LT PUSH2 0x2E3E JUMPI JUMPDEST POP POP POP DUP2 SHL ADD DUP2 SSTORE PUSH2 0x2910 JUMP JUMPDEST ADD MLOAD PUSH0 NOT PUSH1 0xF8 DUP5 PUSH1 0x3 SHL AND SHR NOT AND SWAP1 SSTORE DUP7 DUP1 DUP1 PUSH2 0x2E31 JUMP JUMPDEST SWAP3 SWAP4 PUSH1 0x20 PUSH1 0x1 DUP2 SWAP3 DUP8 DUP7 ADD MLOAD DUP2 SSTORE ADD SWAP6 ADD SWAP4 ADD PUSH2 0x2E1B JUMP JUMPDEST PUSH2 0x2E98 SWAP1 DUP5 PUSH0 MSTORE PUSH1 0x20 PUSH0 KECCAK256 PUSH1 0x1F DUP6 ADD PUSH1 0x5 SHR DUP2 ADD SWAP2 PUSH1 0x20 DUP7 LT PUSH2 0x44D JUMPI PUSH1 0x1F ADD PUSH1 0x5 SHR ADD SWAP1 PUSH2 0x3825 JUMP JUMPDEST DUP7 PUSH2 0x28DE JUMP JUMPDEST SWAP1 PUSH1 0x1F NOT DUP4 AND SWAP2 DUP5 PUSH0 MSTORE DUP2 PUSH0 KECCAK256 SWAP3 PUSH0 JUMPDEST DUP2 DUP2 LT PUSH2 0x2EE9 JUMPI POP SWAP1 DUP5 PUSH1 0x1 SWAP6 SWAP5 SWAP4 SWAP3 LT PUSH2 0x2ED1 JUMPI JUMPDEST POP POP POP DUP2 SHL ADD SWAP1 SSTORE PUSH2 0x28A2 JUMP JUMPDEST ADD MLOAD PUSH0 NOT PUSH1 0xF8 DUP5 PUSH1 0x3 SHL AND SHR NOT AND SWAP1 SSTORE DUP7 DUP1 DUP1 PUSH2 0x2EC4 JUMP JUMPDEST SWAP3 SWAP4 PUSH1 0x20 PUSH1 0x1 DUP2 SWAP3 DUP8 DUP7 ADD MLOAD DUP2 SSTORE ADD SWAP6 ADD SWAP4 ADD PUSH2 0x2EAE JUMP JUMPDEST PUSH2 0x2F2B SWAP1 DUP5 PUSH0 MSTORE PUSH1 0x20 PUSH0 KECCAK256 PUSH1 0x1F DUP6 ADD PUSH1 0x5 SHR DUP2 ADD SWAP2 PUSH1 0x20 DUP7 LT PUSH2 0x44D JUMPI PUSH1 0x1F ADD PUSH1 0x5 SHR ADD SWAP1 PUSH2 0x3825 JUMP JUMPDEST DUP7 PUSH2 0x2870 JUMP JUMPDEST SWAP1 PUSH1 0x1F NOT DUP4 AND SWAP2 DUP5 PUSH0 MSTORE DUP2 PUSH0 KECCAK256 SWAP3 PUSH0 JUMPDEST DUP2 DUP2 LT PUSH2 0x2F82 JUMPI POP SWAP3 PUSH1 0x1 SWAP3 DUP6 SWAP3 PUSH1 0xC0 SWAP9 SWAP7 PUSH1 0x6 SWAP9 SWAP7 LT PUSH2 0x2F6A JUMPI JUMPDEST POP POP POP DUP2 SHL ADD SWAP1 SSTORE PUSH2 0x2848 JUMP JUMPDEST ADD MLOAD PUSH0 NOT PUSH1 0xF8 DUP5 PUSH1 0x3 SHL AND SHR NOT AND SWAP1 SSTORE DUP11 DUP1 DUP1 PUSH2 0x2F5D JUMP JUMPDEST SWAP3 SWAP4 PUSH1 0x20 PUSH1 0x1 DUP2 SWAP3 DUP8 DUP7 ADD MLOAD DUP2 SSTORE ADD SWAP6 ADD SWAP4 ADD PUSH2 0x2F41 JUMP JUMPDEST PUSH2 0x2FC4 SWAP1 DUP5 PUSH0 MSTORE PUSH1 0x20 PUSH0 KECCAK256 PUSH1 0x1F DUP6 ADD PUSH1 0x5 SHR DUP2 ADD SWAP2 PUSH1 0x20 DUP7 LT PUSH2 0x44D JUMPI PUSH1 0x1F ADD PUSH1 0x5 SHR ADD SWAP1 PUSH2 0x3825 JUMP JUMPDEST DUP9 PUSH2 0x280F JUMP JUMPDEST SWAP1 PUSH1 0x1F NOT DUP4 AND SWAP2 DUP5 PUSH0 MSTORE DUP2 PUSH0 KECCAK256 SWAP3 PUSH0 JUMPDEST DUP2 DUP2 LT PUSH2 0x3015 JUMPI POP SWAP1 DUP5 PUSH1 0x1 SWAP6 SWAP5 SWAP4 SWAP3 LT PUSH2 0x2FFD JUMPI JUMPDEST POP POP POP DUP2 SHL ADD SWAP1 SSTORE PUSH2 0x27E2 JUMP JUMPDEST ADD MLOAD PUSH0 NOT PUSH1 0xF8 DUP5 PUSH1 0x3 SHL AND SHR NOT AND SWAP1 SSTORE DUP9 DUP1 DUP1 PUSH2 0x2FF0 JUMP JUMPDEST SWAP3 SWAP4 PUSH1 0x20 PUSH1 0x1 DUP2 SWAP3 DUP8 DUP7 ADD MLOAD DUP2 SSTORE ADD SWAP6 ADD SWAP4 ADD PUSH2 0x2FDA JUMP JUMPDEST PUSH2 0x3057 SWAP1 DUP5 PUSH0 MSTORE PUSH1 0x20 PUSH0 KECCAK256 PUSH1 0x1F DUP6 ADD PUSH1 0x5 SHR DUP2 ADD SWAP2 PUSH1 0x20 DUP7 LT PUSH2 0x44D JUMPI PUSH1 0x1F ADD PUSH1 0x5 SHR ADD SWAP1 PUSH2 0x3825 JUMP JUMPDEST DUP9 PUSH2 0x27B0 JUMP JUMPDEST SWAP1 PUSH1 0x1F NOT DUP4 AND SWAP2 DUP5 PUSH0 MSTORE DUP2 PUSH0 KECCAK256 SWAP3 PUSH0 JUMPDEST DUP2 DUP2 LT PUSH2 0x30A8 JUMPI POP SWAP1 DUP5 PUSH1 0x1 SWAP6 SWAP5 SWAP4 SWAP3 LT PUSH2 0x3090 JUMPI JUMPDEST POP POP POP DUP2 SHL ADD SWAP1 SSTORE PUSH2 0x2783 JUMP JUMPDEST ADD MLOAD PUSH0 NOT PUSH1 0xF8 DUP5 PUSH1 0x3 SHL AND SHR NOT AND SWAP1 SSTORE DUP9 DUP1 DUP1 PUSH2 0x3083 JUMP JUMPDEST SWAP3 SWAP4 PUSH1 0x20 PUSH1 0x1 DUP2 SWAP3 DUP8 DUP7 ADD MLOAD DUP2 SSTORE ADD SWAP6 ADD SWAP4 ADD PUSH2 0x306D JUMP JUMPDEST PUSH2 0x30EA SWAP1 DUP5 PUSH0 MSTORE PUSH1 0x20 PUSH0 KECCAK256 PUSH1 0x1F DUP6 ADD PUSH1 0x5 SHR DUP2 ADD SWAP2 PUSH1 0x20 DUP7 LT PUSH2 0x44D JUMPI PUSH1 0x1F ADD PUSH1 0x5 SHR ADD SWAP1 PUSH2 0x3825 JUMP JUMPDEST DUP9 PUSH2 0x2751 JUMP JUMPDEST SWAP1 PUSH1 0x1F NOT DUP4 AND SWAP2 DUP5 PUSH0 MSTORE DUP2 PUSH0 KECCAK256 SWAP3 PUSH0 JUMPDEST DUP2 DUP2 LT PUSH2 0x313B JUMPI POP SWAP1 DUP5 PUSH1 0x1 SWAP6 SWAP5 SWAP4 SWAP3 LT PUSH2 0x3123 JUMPI JUMPDEST POP POP POP DUP2 SHL ADD SWAP1 SSTORE PUSH2 0x2724 JUMP JUMPDEST ADD MLOAD PUSH0 NOT PUSH1 0xF8 DUP5 PUSH1 0x3 SHL AND SHR NOT AND SWAP1 SSTORE DUP9 DUP1 DUP1 PUSH2 0x3116 JUMP JUMPDEST SWAP3 SWAP4 PUSH1 0x20 PUSH1 0x1 DUP2 SWAP3 DUP8 DUP7 ADD MLOAD DUP2 SSTORE ADD SWAP6 ADD SWAP4 ADD PUSH2 0x3100 JUMP JUMPDEST PUSH2 0x317D SWAP1 DUP5 PUSH0 MSTORE PUSH1 0x20 PUSH0 KECCAK256 PUSH1 0x1F DUP6 ADD PUSH1 0x5 SHR DUP2 ADD SWAP2 PUSH1 0x20 DUP7 LT PUSH2 0x44D JUMPI PUSH1 0x1F ADD PUSH1 0x5 SHR ADD SWAP1 PUSH2 0x3825 JUMP JUMPDEST DUP9 PUSH2 0x26F2 JUMP JUMPDEST SWAP1 PUSH1 0x1F NOT DUP4 AND SWAP2 DUP5 PUSH0 MSTORE DUP2 PUSH0 KECCAK256 SWAP3 PUSH0 JUMPDEST DUP2 DUP2 LT PUSH2 0x31CE JUMPI POP SWAP1 DUP5 PUSH1 0x1 SWAP6 SWAP5 SWAP4 SWAP3 LT PUSH2 0x31B6 JUMPI JUMPDEST POP POP POP DUP2 SHL ADD SWAP1 SSTORE PUSH2 0x26C5 JUMP JUMPDEST ADD MLOAD PUSH0 NOT PUSH1 0xF8 DUP5 PUSH1 0x3 SHL AND SHR NOT AND SWAP1 SSTORE DUP9 DUP1 DUP1 PUSH2 0x31A9 JUMP JUMPDEST SWAP3 SWAP4 PUSH1 0x20 PUSH1 0x1 DUP2 SWAP3 DUP8 DUP7 ADD MLOAD DUP2 SSTORE ADD SWAP6 ADD SWAP4 ADD PUSH2 0x3193 JUMP JUMPDEST PUSH2 0x3210 SWAP1 DUP5 PUSH0 MSTORE PUSH1 0x20 PUSH0 KECCAK256 PUSH1 0x1F DUP6 ADD PUSH1 0x5 SHR DUP2 ADD SWAP2 PUSH1 0x20 DUP7 LT PUSH2 0x44D JUMPI PUSH1 0x1F ADD PUSH1 0x5 SHR ADD SWAP1 PUSH2 0x3825 JUMP JUMPDEST DUP9 PUSH2 0x2693 JUMP JUMPDEST SWAP1 PUSH1 0x1F NOT DUP4 AND SWAP2 DUP5 PUSH0 MSTORE DUP2 PUSH0 KECCAK256 SWAP3 PUSH0 JUMPDEST DUP2 DUP2 LT PUSH2 0x3261 JUMPI POP SWAP1 DUP5 PUSH1 0x1 SWAP6 SWAP5 SWAP4 SWAP3 LT PUSH2 0x3249 JUMPI JUMPDEST POP POP POP DUP2 SHL ADD DUP2 SSTORE PUSH2 0x2666 JUMP JUMPDEST ADD MLOAD PUSH0 NOT PUSH1 0xF8 DUP5 PUSH1 0x3 SHL AND SHR NOT AND SWAP1 SSTORE DUP8 DUP1 DUP1 PUSH2 0x323C JUMP JUMPDEST SWAP3 SWAP4 PUSH1 0x20 PUSH1 0x1 DUP2 SWAP3 DUP8 DUP7 ADD MLOAD DUP2 SSTORE ADD SWAP6 ADD SWAP4 ADD PUSH2 0x3226 JUMP JUMPDEST PUSH2 0x32A3 SWAP1 DUP5 PUSH0 MSTORE PUSH1 0x20 PUSH0 KECCAK256 PUSH1 0x1F DUP6 ADD PUSH1 0x5 SHR DUP2 ADD SWAP2 PUSH1 0x20 DUP7 LT PUSH2 0x44D JUMPI PUSH1 0x1F ADD PUSH1 0x5 SHR ADD SWAP1 PUSH2 0x3825 JUMP JUMPDEST DUP8 PUSH2 0x2634 JUMP JUMPDEST CALLVALUE PUSH2 0x1E7 JUMPI PUSH0 CALLDATASIZE PUSH1 0x3 NOT ADD SLT PUSH2 0x1E7 JUMPI PUSH32 0x0 PUSH1 0x1 PUSH1 0x1 PUSH1 0xA0 SHL SUB AND DUP2 MSTORE PUSH1 0x20 SWAP1 RETURN JUMPDEST PUSH2 0x180 DUP2 ADD SWAP1 DUP2 LT PUSH1 0x1 PUSH1 0x1 PUSH1 0x40 SHL SUB DUP3 GT OR PUSH2 0x457 JUMPI PUSH1 0x40 MSTORE JUMP JUMPDEST PUSH1 0xE0 DUP2 ADD SWAP1 DUP2 LT PUSH1 0x1 PUSH1 0x1 PUSH1 0x40 SHL SUB DUP3 GT OR PUSH2 0x457 JUMPI PUSH1 0x40 MSTORE JUMP JUMPDEST PUSH1 0xC0 DUP2 ADD SWAP1 DUP2 LT PUSH1 0x1 PUSH1 0x1 PUSH1 0x40 SHL SUB DUP3 GT OR PUSH2 0x457 JUMPI PUSH1 0x40 MSTORE JUMP JUMPDEST SWAP1 PUSH1 0x1F DUP1 NOT SWAP2 ADD AND DUP2 ADD SWAP1 DUP2 LT PUSH1 0x1 PUSH1 0x1 PUSH1 0x40 SHL SUB DUP3 GT OR PUSH2 0x457 JUMPI PUSH1 0x40 MSTORE JUMP JUMPDEST DUP2 PUSH1 0x1F DUP3 ADD SLT ISZERO PUSH2 0x1E7 JUMPI DUP1 CALLDATALOAD SWAP1 PUSH1 0x1 PUSH1 0x1 PUSH1 0x40 SHL SUB DUP3 GT PUSH2 0x457 JUMPI PUSH1 0x40 MLOAD SWAP3 PUSH2 0x3391 PUSH1 0x1F DUP5 ADD PUSH1 0x1F NOT AND PUSH1 0x20 ADD DUP6 PUSH2 0x333C JUMP JUMPDEST DUP3 DUP5 MSTORE PUSH1 0x20 DUP4 DUP4 ADD ADD GT PUSH2 0x1E7 JUMPI DUP2 PUSH0 SWAP3 PUSH1 0x20 DUP1 SWAP4 ADD DUP4 DUP7 ADD CALLDATACOPY DUP4 ADD ADD MSTORE SWAP1 JUMP JUMPDEST PUSH1 0x60 PUSH1 0x3 NOT DUP3 ADD SLT PUSH2 0x1E7 JUMPI PUSH1 0x4 CALLDATALOAD PUSH1 0x1 PUSH1 0x1 PUSH1 0x40 SHL SUB DUP2 GT PUSH2 0x1E7 JUMPI DUP2 PUSH2 0x33DC SWAP2 PUSH1 0x4 ADD PUSH2 0x335D JUMP JUMPDEST SWAP2 PUSH1 0x24 CALLDATALOAD PUSH1 0x1 PUSH1 0x1 PUSH1 0x40 SHL SUB DUP2 GT PUSH2 0x1E7 JUMPI PUSH1 0xE0 DUP2 DUP5 SUB PUSH1 0x3 NOT ADD SLT PUSH2 0x1E7 JUMPI PUSH1 0x40 MLOAD SWAP1 PUSH2 0x3409 DUP3 PUSH2 0x3306 JUMP JUMPDEST DUP1 PUSH1 0x4 ADD CALLDATALOAD PUSH1 0x1 PUSH1 0x1 PUSH1 0x40 SHL SUB DUP2 GT PUSH2 0x1E7 JUMPI DUP5 PUSH1 0x4 PUSH2 0x342B SWAP3 DUP5 ADD ADD PUSH2 0x335D JUMP JUMPDEST DUP3 MSTORE PUSH1 0x24 DUP2 ADD CALLDATALOAD PUSH1 0x1 PUSH1 0x1 PUSH1 0x40 SHL SUB DUP2 GT PUSH2 0x1E7 JUMPI DUP5 PUSH1 0x4 PUSH2 0x344F SWAP3 DUP5 ADD ADD PUSH2 0x335D JUMP JUMPDEST PUSH1 0x20 DUP4 ADD MSTORE PUSH1 0x44 DUP2 ADD CALLDATALOAD PUSH1 0x1 PUSH1 0x1 PUSH1 0x40 SHL SUB DUP2 GT PUSH2 0x1E7 JUMPI DUP5 PUSH1 0x4 PUSH2 0x3476 SWAP3 DUP5 ADD ADD PUSH2 0x335D JUMP JUMPDEST PUSH1 0x40 DUP4 ADD MSTORE PUSH1 0x64 DUP2 ADD CALLDATALOAD PUSH1 0x1 PUSH1 0x1 PUSH1 0x40 SHL SUB DUP2 GT PUSH2 0x1E7 JUMPI DUP5 PUSH1 0x4 PUSH2 0x349D SWAP3 DUP5 ADD ADD PUSH2 0x335D JUMP JUMPDEST PUSH1 0x60 DUP4 ADD MSTORE PUSH1 0x84 DUP2 ADD CALLDATALOAD PUSH1 0x1 PUSH1 0x1 PUSH1 0x40 SHL SUB DUP2 GT PUSH2 0x1E7 JUMPI DUP5 PUSH1 0x4 PUSH2 0x34C4 SWAP3 DUP5 ADD ADD PUSH2 0x335D JUMP JUMPDEST PUSH1 0x80 DUP4 ADD MSTORE PUSH1 0xA4 DUP2 ADD CALLDATALOAD PUSH1 0x1 PUSH1 0x1 PUSH1 0x40 SHL SUB DUP2 GT PUSH2 0x1E7 JUMPI DUP5 PUSH1 0x4 PUSH2 0x34EB SWAP3 DUP5 ADD ADD PUSH2 0x335D JUMP JUMPDEST PUSH1 0xA0 DUP4 ADD MSTORE PUSH1 0xC4 DUP2 ADD CALLDATALOAD PUSH1 0x1 PUSH1 0x1 PUSH1 0x40 SHL SUB DUP2 GT PUSH2 0x1E7 JUMPI PUSH1 0x4 DUP6 SWAP2 PUSH2 0x3512 SWAP4 ADD ADD PUSH2 0x335D JUMP JUMPDEST PUSH1 0xC0 DUP3 ADD MSTORE SWAP2 PUSH1 0x44 CALLDATALOAD PUSH1 0x1 PUSH1 0x1 PUSH1 0x40 SHL SUB DUP2 GT PUSH2 0x1E7 JUMPI PUSH1 0xC0 DUP2 DUP4 SUB PUSH1 0x3 NOT ADD SLT PUSH2 0x1E7 JUMPI PUSH1 0x40 MLOAD SWAP2 PUSH2 0x3544 DUP4 PUSH2 0x3321 JUMP JUMPDEST DUP2 PUSH1 0x4 ADD CALLDATALOAD PUSH1 0x1 PUSH1 0x1 PUSH1 0x40 SHL SUB DUP2 GT PUSH2 0x1E7 JUMPI DUP2 PUSH1 0x4 PUSH2 0x3566 SWAP3 DUP6 ADD ADD PUSH2 0x335D JUMP JUMPDEST DUP4 MSTORE PUSH1 0x24 DUP3 ADD CALLDATALOAD PUSH1 0x1 PUSH1 0x1 PUSH1 0x40 SHL SUB DUP2 GT PUSH2 0x1E7 JUMPI DUP2 PUSH1 0x4 PUSH2 0x358A SWAP3 DUP6 ADD ADD PUSH2 0x335D JUMP JUMPDEST PUSH1 0x20 DUP5 ADD MSTORE PUSH1 0x44 DUP3 ADD CALLDATALOAD PUSH1 0x1 PUSH1 0x1 PUSH1 0x40 SHL SUB DUP2 GT PUSH2 0x1E7 JUMPI DUP2 PUSH1 0x4 PUSH2 0x35B1 SWAP3 DUP6 ADD ADD PUSH2 0x335D JUMP JUMPDEST PUSH1 0x40 DUP5 ADD MSTORE PUSH1 0x64 DUP3 ADD CALLDATALOAD PUSH1 0x1 PUSH1 0x1 PUSH1 0x40 SHL SUB DUP2 GT PUSH2 0x1E7 JUMPI DUP2 PUSH1 0x4 PUSH2 0x35D8 SWAP3 DUP6 ADD ADD PUSH2 0x335D JUMP JUMPDEST PUSH1 0x60 DUP5 ADD MSTORE PUSH1 0x84 DUP3 ADD CALLDATALOAD PUSH1 0x1 PUSH1 0x1 PUSH1 0x40 SHL SUB DUP2 GT PUSH2 0x1E7 JUMPI DUP2 PUSH1 0x4 PUSH2 0x35FF SWAP3 DUP6 ADD ADD PUSH2 0x335D JUMP JUMPDEST PUSH1 0x80 DUP5 ADD MSTORE PUSH1 0xA4 DUP3 ADD CALLDATALOAD SWAP2 PUSH1 0x1 PUSH1 0x1 PUSH1 0x40 SHL SUB DUP4 GT PUSH2 0x1E7 JUMPI PUSH2 0x3625 SWAP3 ADD PUSH1 0x4 ADD PUSH2 0x335D JUMP JUMPDEST PUSH1 0xA0 DUP3 ADD MSTORE SWAP1 JUMP JUMPDEST PUSH1 0x40 PUSH1 0x3 NOT DUP3 ADD SLT PUSH2 0x1E7 JUMPI PUSH1 0x4 CALLDATALOAD SWAP1 PUSH1 0x1 PUSH1 0x1 PUSH1 0x40 SHL SUB DUP3 GT PUSH2 0x1E7 JUMPI PUSH2 0x3657 SWAP2 PUSH1 0x4 ADD PUSH2 0x335D JUMP JUMPDEST SWAP1 PUSH1 0x24 CALLDATALOAD SWAP1 JUMP JUMPDEST SWAP1 PUSH1 0x1 DUP3 DUP2 SHR SWAP3 AND DUP1 ISZERO PUSH2 0x368C JUMPI JUMPDEST PUSH1 0x20 DUP4 LT EQ PUSH2 0x3678 JUMPI JUMP JUMPDEST PUSH4 0x4E487B71 PUSH1 0xE0 SHL PUSH0 MSTORE PUSH1 0x22 PUSH1 0x4 MSTORE PUSH1 0x24 PUSH0 REVERT JUMPDEST SWAP2 PUSH1 0x7F AND SWAP2 PUSH2 0x366D JUMP JUMPDEST SWAP1 PUSH1 0x40 MLOAD SWAP2 DUP3 PUSH0 DUP3 SLOAD SWAP3 PUSH2 0x36A9 DUP5 PUSH2 0x365E JUMP JUMPDEST DUP1 DUP5 MSTORE SWAP4 PUSH1 0x1 DUP2 AND SWAP1 DUP2 ISZERO PUSH2 0x3714 JUMPI POP PUSH1 0x1 EQ PUSH2 0x36D0 JUMPI JUMPDEST POP PUSH2 0x36CE SWAP3 POP SUB DUP4 PUSH2 0x333C JUMP JUMPDEST JUMP JUMPDEST SWAP1 POP PUSH0 SWAP3 SWAP2 SWAP3 MSTORE PUSH1 0x20 PUSH0 KECCAK256 SWAP1 PUSH0 SWAP2 JUMPDEST DUP2 DUP4 LT PUSH2 0x36F8 JUMPI POP POP SWAP1 PUSH1 0x20 PUSH2 0x36CE SWAP3 DUP3 ADD ADD PUSH0 PUSH2 0x36C1 JUMP JUMPDEST PUSH1 0x20 SWAP2 SWAP4 POP DUP1 PUSH1 0x1 SWAP2 SLOAD DUP4 DUP6 DUP10 ADD ADD MSTORE ADD SWAP2 ADD SWAP1 SWAP2 DUP5 SWAP3 PUSH2 0x36DF JUMP JUMPDEST SWAP1 POP PUSH1 0x20 SWAP3 POP PUSH2 0x36CE SWAP5 SWAP2 POP PUSH1 0xFF NOT AND DUP3 DUP5 ADD MSTORE ISZERO ISZERO PUSH1 0x5 SHL DUP3 ADD ADD PUSH0 PUSH2 0x36C1 JUMP JUMPDEST DUP1 MLOAD DUP1 DUP4 MSTORE PUSH1 0x20 SWAP3 SWAP2 DUP2 SWAP1 DUP5 ADD DUP5 DUP5 ADD MCOPY PUSH0 DUP3 DUP3 ADD DUP5 ADD MSTORE PUSH1 0x1F ADD PUSH1 0x1F NOT AND ADD ADD SWAP1 JUMP JUMPDEST PUSH1 0x60 PUSH1 0x3 NOT DUP3 ADD SLT PUSH2 0x1E7 JUMPI PUSH1 0x4 CALLDATALOAD PUSH1 0x1 PUSH1 0x1 PUSH1 0x40 SHL SUB DUP2 GT PUSH2 0x1E7 JUMPI DUP2 PUSH2 0x3784 SWAP2 PUSH1 0x4 ADD PUSH2 0x335D JUMP JUMPDEST SWAP2 PUSH1 0x24 CALLDATALOAD PUSH1 0x1 PUSH1 0x1 PUSH1 0x40 SHL SUB DUP2 GT PUSH2 0x1E7 JUMPI DUP3 PUSH2 0x37A3 SWAP2 PUSH1 0x4 ADD PUSH2 0x335D JUMP JUMPDEST SWAP2 PUSH1 0x44 CALLDATALOAD SWAP1 PUSH1 0x1 PUSH1 0x1 PUSH1 0x40 SHL SUB DUP3 GT PUSH2 0x1E7 JUMPI PUSH2 0x37C2 SWAP2 PUSH1 0x4 ADD PUSH2 0x335D JUMP JUMPDEST SWAP1 JUMP JUMPDEST SWAP1 PUSH1 0x8 DUP3 LT ISZERO PUSH2 0x1856 JUMPI MSTORE JUMP JUMPDEST SWAP1 DUP2 PUSH1 0x20 SWAP2 SUB SLT PUSH2 0x1E7 JUMPI MLOAD DUP1 ISZERO ISZERO DUP2 SUB PUSH2 0x1E7 JUMPI SWAP1 JUMP JUMPDEST ISZERO PUSH2 0x37F1 JUMPI JUMP JUMPDEST PUSH1 0x40 MLOAD PUSH3 0x461BCD PUSH1 0xE5 SHL DUP2 MSTORE PUSH1 0x20 PUSH1 0x4 DUP3 ADD MSTORE PUSH1 0xC PUSH1 0x24 DUP3 ADD MSTORE PUSH12 0x4F6E6C7920466163746F7279 PUSH1 0xA0 SHL PUSH1 0x44 DUP3 ADD MSTORE PUSH1 0x64 SWAP1 REVERT JUMPDEST DUP2 DUP2 LT PUSH2 0x3830 JUMPI POP POP JUMP JUMPDEST PUSH0 DUP2 SSTORE PUSH1 0x1 ADD PUSH2 0x3825 JUMP JUMPDEST PUSH2 0x3845 DUP2 SLOAD PUSH2 0x365E JUMP JUMPDEST SWAP1 DUP2 PUSH2 0x384F JUMPI POP POP JUMP JUMPDEST DUP2 PUSH1 0x1F PUSH0 SWAP4 GT PUSH1 0x1 EQ PUSH2 0x3860 JUMPI POP SSTORE JUMP JUMPDEST DUP2 DUP4 MSTORE PUSH1 0x20 DUP4 KECCAK256 PUSH2 0x387C SWAP2 PUSH1 0x1F ADD PUSH1 0x5 SHR DUP2 ADD SWAP1 PUSH1 0x1 ADD PUSH2 0x3825 JUMP JUMPDEST DUP1 DUP3 MSTORE DUP2 PUSH1 0x20 DUP2 KECCAK256 SWAP2 SSTORE SSTORE JUMP JUMPDEST PUSH0 SWAP3 SWAP2 DUP2 SLOAD SWAP2 PUSH2 0x3898 DUP4 PUSH2 0x365E JUMP JUMPDEST DUP1 DUP4 MSTORE SWAP3 PUSH1 0x1 DUP2 AND SWAP1 DUP2 ISZERO PUSH2 0x38ED JUMPI POP PUSH1 0x1 EQ PUSH2 0x38B4 JUMPI POP POP POP JUMP JUMPDEST PUSH0 SWAP1 DUP2 MSTORE PUSH1 0x20 DUP2 KECCAK256 SWAP4 SWAP5 POP SWAP2 SWAP3 JUMPDEST DUP4 DUP4 LT PUSH2 0x38D3 JUMPI POP PUSH1 0x20 SWAP3 POP ADD ADD SWAP1 JUMP JUMPDEST PUSH1 0x1 DUP2 PUSH1 0x20 SWAP3 SWAP5 SWAP4 SWAP5 SLOAD DUP4 DUP6 DUP8 ADD ADD MSTORE ADD SWAP2 ADD SWAP2 SWAP1 PUSH2 0x38C2 JUMP JUMPDEST SWAP2 POP POP PUSH1 0x20 SWAP4 SWAP5 POP PUSH1 0xFF SWAP3 SWAP2 SWAP3 NOT AND DUP4 DUP4 ADD MSTORE ISZERO ISZERO PUSH1 0x5 SHL ADD ADD SWAP1 JUMP JUMPDEST PUSH2 0x3922 PUSH1 0x40 SWAP3 SWAP6 SWAP5 SWAP4 SWAP6 PUSH1 0x60 DUP4 MSTORE PUSH1 0x60 DUP4 ADD SWAP1 PUSH2 0x3889 JUMP JUMPDEST PUSH1 0x1 PUSH1 0x1 PUSH1 0xA0 SHL SUB SWAP1 SWAP6 AND PUSH1 0x20 DUP3 ADD MSTORE ADD MSTORE JUMP JUMPDEST ISZERO PUSH2 0x393D JUMPI JUMP JUMPDEST PUSH1 0x40 MLOAD PUSH3 0x461BCD PUSH1 0xE5 SHL DUP2 MSTORE PUSH1 0x20 PUSH1 0x4 DUP3 ADD MSTORE PUSH1 0x9 PUSH1 0x24 DUP3 ADD MSTORE PUSH9 0x4F6E6C792042504F4D PUSH1 0xB8 SHL PUSH1 0x44 DUP3 ADD MSTORE PUSH1 0x64 SWAP1 REVERT JUMPDEST ISZERO PUSH2 0x3975 JUMPI JUMP JUMPDEST PUSH1 0x40 MLOAD PUSH3 0x461BCD PUSH1 0xE5 SHL DUP2 MSTORE PUSH1 0x20 PUSH1 0x4 DUP3 ADD MSTORE PUSH1 0x11 PUSH1 0x24 DUP3 ADD MSTORE PUSH17 0x4E4945206D61736968206265726C616B75 PUSH1 0x78 SHL PUSH1 0x44 DUP3 ADD MSTORE PUSH1 0x64 SWAP1 REVERT JUMPDEST SWAP4 SWAP3 SWAP2 PUSH2 0x39D3 SWAP1 PUSH1 0x40 SWAP3 PUSH1 0x1 DUP1 PUSH1 0xA0 SHL SUB AND DUP7 MSTORE PUSH1 0x60 PUSH1 0x20 DUP8 ADD MSTORE PUSH1 0x60 DUP7 ADD SWAP1 PUSH2 0x3889 JUMP JUMPDEST SWAP4 ADD MSTORE JUMP JUMPDEST SWAP5 SWAP4 SWAP3 SWAP2 PUSH1 0x60 SWAP3 PUSH2 0x39F4 PUSH2 0x39D3 SWAP4 PUSH1 0x80 DUP10 MSTORE PUSH1 0x80 DUP10 ADD SWAP1 PUSH2 0x3736 JUMP JUMPDEST PUSH1 0x1 PUSH1 0x1 PUSH1 0xA0 SHL SUB SWAP1 SWAP3 AND PUSH1 0x20 DUP9 ADD MSTORE DUP7 DUP3 SUB PUSH1 0x40 DUP9 ADD MSTORE PUSH2 0x3736 JUMP INVALID LOG2 PUSH5 0x6970667358 0x22 SLT KECCAK256 ADDRESS TIMESTAMP PUSH32 0xA6C6C6AE55EC5495BE26B3F11B6329A4A092E4D99B748A0808CF0868B664736F PUSH13 0x634300081B0033000000000000 "},"methodIdentifiers":{"approveExtendRequest(string,uint256)":"19525e66","approveNie(string,string,string)":"f21dea86","createObatNie(string,string)":"ac007c1a","dokuObatById(string)":"2594d597","dokuPendukungById(string)":"59914db4","extendRequestNie(string,uint256)":"d944ff79","getNieDetail(string)":"43d1b839","getNieNumberAndStatus(string)":"74a5abcf","getRejectMsgNie(string)":"bdedf0b8","nieDetailById(string)":"f71ce722","rejectMsgById(string)":"bf3f80ac","rejectNie(string,string,string)":"283ef6f0","renewRequestNie(string,(string,string,string,string,string,string,string),(string,string,string,string,string,string))":"108cbe61","requestNie(string,(string,string,string,string,string,string,string),(string,string,string,string,string,string))":"e509070a","roleManager()":"00435da5"}}}}}