{"contracts/RoleManager.sol":{"RoleManager":{"abi":[{"anonymous":false,"inputs":[{"indexed":true,"internalType":"address","name":"user","type":"address"},{"indexed":false,"internalType":"enum RoleManager.en_roles","name":"role","type":"uint8"}],"name":"RoleAssigned","type":"event"},{"inputs":[{"internalType":"address","name":"user","type":"address"},{"internalType":"enum RoleManager.en_roles","name":"role","type":"uint8"}],"name":"assignRole","outputs":[],"stateMutability":"nonpayable","type":"function"},{"inputs":[{"internalType":"address","name":"user","type":"address"}],"name":"checkRegistration","outputs":[{"internalType":"bool","name":"","type":"bool"}],"stateMutability":"view","type":"function"},{"inputs":[{"internalType":"address","name":"user","type":"address"}],"name":"getRole","outputs":[{"internalType":"enum RoleManager.en_roles","name":"","type":"uint8"}],"stateMutability":"view","type":"function"},{"inputs":[{"internalType":"address","name":"user","type":"address"},{"internalType":"enum RoleManager.en_roles","name":"role","type":"uint8"}],"name":"hasRole","outputs":[{"internalType":"bool","name":"","type":"bool"}],"stateMutability":"view","type":"function"}],"evm":{"bytecode":{"linkReferences":{},"object":"608080604052346015576102c8908161001b8239f35b600080fdfe608080604052600436101561001357600080fd5b60003560e01c90816344276733146101a057508063630a195b1461011457806395a8c58d1461008f5763e2a412831461004b57600080fd5b3461008a57602036600319011261008a576001600160a01b0361006c61023a565b166000526001602052602060ff604060002054166040519015158152f35b600080fd5b3461008a5761009d36610263565b6001600160a01b0390911660008181526001602052604090205460ff1690816100ce575b6020826040519015158152f35b9050600052600060205260ff604060002054169060048110156100fe5760048210156100fe5760209114826100c1565b634e487b7160e01b600052602160045260246000fd5b3461008a5761012236610263565b9060018060a01b031690816000526000602052604060002060048210156100fe577f4ac36fa53f167ceb85964be512e01de2a3b8bdb9862f917da079deeeff689b389161019b9160ff1981541660ff83161790558360005260016020526040600020600160ff1982541617905560405191829182610250565b0390a2005b3461008a57602036600319011261008a576001600160a01b036101c161023a565b169081600052600160205260ff60406000205416156101ff575060005260006020526101fb60ff6040600020541660405191829182610250565b0390f35b62461bcd60e51b8152602060048201526016602482015275155cd95c881a5cc81b9bdd081c9959da5cdd195c995960521b6044820152606490fd5b600435906001600160a01b038216820361008a57565b9190602083019260048210156100fe5752565b604090600319011261008a576004356001600160a01b038116810361008a5790602435600481101561008a579056fea2646970667358221220eb442cbf0b5482eb82e38b38196e98e6cca97d137c5de69ccf86286e01f1ffaa64736f6c634300081b0033","opcodes":"PUSH1 0x80 DUP1 PUSH1 0x40 MSTORE CALLVALUE PUSH1 0x15 JUMPI PUSH2 0x2C8 SWAP1 DUP2 PUSH2 0x1B DUP3 CODECOPY RETURN JUMPDEST PUSH1 0x0 DUP1 REVERT INVALID PUSH1 0x80 DUP1 PUSH1 0x40 MSTORE PUSH1 0x4 CALLDATASIZE LT ISZERO PUSH2 0x13 JUMPI PUSH1 0x0 DUP1 REVERT JUMPDEST PUSH1 0x0 CALLDATALOAD PUSH1 0xE0 SHR SWAP1 DUP2 PUSH4 0x44276733 EQ PUSH2 0x1A0 JUMPI POP DUP1 PUSH4 0x630A195B EQ PUSH2 0x114 JUMPI DUP1 PUSH4 0x95A8C58D EQ PUSH2 0x8F JUMPI PUSH4 0xE2A41283 EQ PUSH2 0x4B JUMPI PUSH1 0x0 DUP1 REVERT JUMPDEST CALLVALUE PUSH2 0x8A JUMPI PUSH1 0x20 CALLDATASIZE PUSH1 0x3 NOT ADD SLT PUSH2 0x8A JUMPI PUSH1 0x1 PUSH1 0x1 PUSH1 0xA0 SHL SUB PUSH2 0x6C PUSH2 0x23A JUMP JUMPDEST AND PUSH1 0x0 MSTORE PUSH1 0x1 PUSH1 0x20 MSTORE PUSH1 0x20 PUSH1 0xFF PUSH1 0x40 PUSH1 0x0 KECCAK256 SLOAD AND PUSH1 0x40 MLOAD SWAP1 ISZERO ISZERO DUP2 MSTORE RETURN JUMPDEST PUSH1 0x0 DUP1 REVERT JUMPDEST CALLVALUE PUSH2 0x8A JUMPI PUSH2 0x9D CALLDATASIZE PUSH2 0x263 JUMP JUMPDEST PUSH1 0x1 PUSH1 0x1 PUSH1 0xA0 SHL SUB SWAP1 SWAP2 AND PUSH1 0x0 DUP2 DUP2 MSTORE PUSH1 0x1 PUSH1 0x20 MSTORE PUSH1 0x40 SWAP1 KECCAK256 SLOAD PUSH1 0xFF AND SWAP1 DUP2 PUSH2 0xCE JUMPI JUMPDEST PUSH1 0x20 DUP3 PUSH1 0x40 MLOAD SWAP1 ISZERO ISZERO DUP2 MSTORE RETURN JUMPDEST SWAP1 POP PUSH1 0x0 MSTORE PUSH1 0x0 PUSH1 0x20 MSTORE PUSH1 0xFF PUSH1 0x40 PUSH1 0x0 KECCAK256 SLOAD AND SWAP1 PUSH1 0x4 DUP2 LT ISZERO PUSH2 0xFE JUMPI PUSH1 0x4 DUP3 LT ISZERO PUSH2 0xFE JUMPI PUSH1 0x20 SWAP2 EQ DUP3 PUSH2 0xC1 JUMP JUMPDEST PUSH4 0x4E487B71 PUSH1 0xE0 SHL PUSH1 0x0 MSTORE PUSH1 0x21 PUSH1 0x4 MSTORE PUSH1 0x24 PUSH1 0x0 REVERT JUMPDEST CALLVALUE PUSH2 0x8A JUMPI PUSH2 0x122 CALLDATASIZE PUSH2 0x263 JUMP JUMPDEST SWAP1 PUSH1 0x1 DUP1 PUSH1 0xA0 SHL SUB AND SWAP1 DUP2 PUSH1 0x0 MSTORE PUSH1 0x0 PUSH1 0x20 MSTORE PUSH1 0x40 PUSH1 0x0 KECCAK256 PUSH1 0x4 DUP3 LT ISZERO PUSH2 0xFE JUMPI PUSH32 0x4AC36FA53F167CEB85964BE512E01DE2A3B8BDB9862F917DA079DEEEFF689B38 SWAP2 PUSH2 0x19B SWAP2 PUSH1 0xFF NOT DUP2 SLOAD AND PUSH1 0xFF DUP4 AND OR SWAP1 SSTORE DUP4 PUSH1 0x0 MSTORE PUSH1 0x1 PUSH1 0x20 MSTORE PUSH1 0x40 PUSH1 0x0 KECCAK256 PUSH1 0x1 PUSH1 0xFF NOT DUP3 SLOAD AND OR SWAP1 SSTORE PUSH1 0x40 MLOAD SWAP2 DUP3 SWAP2 DUP3 PUSH2 0x250 JUMP JUMPDEST SUB SWAP1 LOG2 STOP JUMPDEST CALLVALUE PUSH2 0x8A JUMPI PUSH1 0x20 CALLDATASIZE PUSH1 0x3 NOT ADD SLT PUSH2 0x8A JUMPI PUSH1 0x1 PUSH1 0x1 PUSH1 0xA0 SHL SUB PUSH2 0x1C1 PUSH2 0x23A JUMP JUMPDEST AND SWAP1 DUP2 PUSH1 0x0 MSTORE PUSH1 0x1 PUSH1 0x20 MSTORE PUSH1 0xFF PUSH1 0x40 PUSH1 0x0 KECCAK256 SLOAD AND ISZERO PUSH2 0x1FF JUMPI POP PUSH1 0x0 MSTORE PUSH1 0x0 PUSH1 0x20 MSTORE PUSH2 0x1FB PUSH1 0xFF PUSH1 0x40 PUSH1 0x0 KECCAK256 SLOAD AND PUSH1 0x40 MLOAD SWAP2 DUP3 SWAP2 DUP3 PUSH2 0x250 JUMP JUMPDEST SUB SWAP1 RETURN JUMPDEST PUSH3 0x461BCD PUSH1 0xE5 SHL DUP2 MSTORE PUSH1 0x20 PUSH1 0x4 DUP3 ADD MSTORE PUSH1 0x16 PUSH1 0x24 DUP3 ADD MSTORE PUSH22 0x155CD95C881A5CC81B9BDD081C9959DA5CDD195C9959 PUSH1 0x52 SHL PUSH1 0x44 DUP3 ADD MSTORE PUSH1 0x64 SWAP1 REVERT JUMPDEST PUSH1 0x4 CALLDATALOAD SWAP1 PUSH1 0x1 PUSH1 0x1 PUSH1 0xA0 SHL SUB DUP3 AND DUP3 SUB PUSH2 0x8A JUMPI JUMP JUMPDEST SWAP2 SWAP1 PUSH1 0x20 DUP4 ADD SWAP3 PUSH1 0x4 DUP3 LT ISZERO PUSH2 0xFE JUMPI MSTORE JUMP JUMPDEST PUSH1 0x40 SWAP1 PUSH1 0x3 NOT ADD SLT PUSH2 0x8A JUMPI PUSH1 0x4 CALLDATALOAD PUSH1 0x1 PUSH1 0x1 PUSH1 0xA0 SHL SUB DUP2 AND DUP2 SUB PUSH2 0x8A JUMPI SWAP1 PUSH1 0x24 CALLDATALOAD PUSH1 0x4 DUP2 LT ISZERO PUSH2 0x8A JUMPI SWAP1 JUMP INVALID LOG2 PUSH5 0x6970667358 0x22 SLT KECCAK256 0xEB PREVRANDAO 0x2C 0xBF SIGNEXTEND SLOAD DUP3 0xEB DUP3 0xE3 DUP12 CODESIZE NOT PUSH15 0x98E6CCA97D137C5DE69CCF86286E01 CALL SELFDESTRUCT 0xAA PUSH5 0x736F6C6343 STOP ADDMOD SHL STOP CALLER "},"methodIdentifiers":{"assignRole(address,uint8)":"630a195b","checkRegistration(address)":"e2a41283","getRole(address)":"44276733","hasRole(address,uint8)":"95a8c58d"}}}}}