{"contracts/CdobRegistration.sol":{"CdobRegistration":{"abi":[{"anonymous":false,"inputs":[{"indexed":true,"internalType":"string","name":"reqId","type":"string"},{"indexed":true,"internalType":"address","name":"pabrik","type":"address"},{"indexed":false,"internalType":"string","name":"pabrikName","type":"string"},{"indexed":false,"internalType":"string","name":"CdobNumber","type":"string"}],"name":"evt_CdobApproved","type":"event"},{"anonymous":false,"inputs":[{"indexed":true,"internalType":"string","name":"reqId","type":"string"},{"indexed":true,"internalType":"address","name":"pabrik","type":"address"},{"indexed":false,"internalType":"string","name":"pabrikName","type":"string"}],"name":"evt_CdobRequested","type":"event"},{"inputs":[{"internalType":"string","name":"","type":"string"}],"name":"CdobRequests","outputs":[{"internalType":"address","name":"pabrikAddress","type":"address"},{"internalType":"string","name":"pabrikName","type":"string"},{"internalType":"uint256","name":"timestampReq","type":"uint256"},{"internalType":"uint256","name":"timestampApprove","type":"uint256"},{"internalType":"string","name":"cdobNumber","type":"string"},{"internalType":"address","name":"bpomAddress","type":"address"},{"internalType":"enum CdobRegistration.en_StatusCdob","name":"statusCdob","type":"uint8"}],"stateMutability":"view","type":"function"},{"inputs":[{"internalType":"string","name":"_reqId","type":"string"},{"internalType":"string","name":"_CdobNumber","type":"string"}],"name":"Cdob_approve","outputs":[],"stateMutability":"nonpayable","type":"function"},{"inputs":[{"internalType":"string","name":"_reqId","type":"string"},{"internalType":"string","name":"_pabrikName","type":"string"}],"name":"Cdob_request","outputs":[],"stateMutability":"nonpayable","type":"function"},{"inputs":[{"internalType":"string","name":"_reqId","type":"string"}],"name":"get_Cdob_request_byId","outputs":[{"internalType":"address","name":"pabrikAddress","type":"address"},{"internalType":"string","name":"pabrikName","type":"string"},{"internalType":"uint256","name":"timestampReq","type":"uint256"},{"internalType":"uint256","name":"timestampApprove","type":"uint256"},{"internalType":"string","name":"cdobNumber","type":"string"},{"internalType":"address","name":"bpomAddress","type":"address"},{"internalType":"enum CdobRegistration.en_StatusCdob","name":"statusCdob","type":"uint8"}],"stateMutability":"view","type":"function"},{"inputs":[],"name":"get_all_Cdob_request","outputs":[{"internalType":"string[]","name":"","type":"string[]"}],"stateMutability":"view","type":"function"},{"inputs":[{"internalType":"uint256","name":"","type":"uint256"}],"name":"reqIdCdob","outputs":[{"internalType":"string","name":"","type":"string"}],"stateMutability":"view","type":"function"}],"evm":{"bytecode":{"linkReferences":{},"object":"60808060405234601557610bd0908161001b8239f35b600080fdfe6080604052600436101561001257600080fd5b60003560e01c8063063499391461058c5780633a0e1c5d1461052b57806353936bcf1461035a5780637a0379bb14610250578063d77acba5146101a45763e4d1e5361461005e57600080fd5b3461019f57602036600319011261019f5760043567ffffffffffffffff811161019f573660238201121561019f57806004013567ffffffffffffffff811161019f57366024828401011161019f5760249181602092604051948593018337810160018152030190206040516100d281610792565b81546001600160a01b031681526100eb600183016108e0565b90602081019182526002830154926040820193845260038101549160608101928352600561011b600484016108e0565b608083019081529201546001600160a01b03811660a080840191825260c08401939192901c60ff166002811015610189579283905251945195519351925190516001600160a01b0395861695929392169160028410156101895761018594604051978897886109cc565b0390f35b634e487b7160e01b600052602160045260246000fd5b600080fd5b3461019f57602036600319011261019f5760043567ffffffffffffffff811161019f5760206101da6101ed9236906004016107d0565b8160405193828580945193849201610984565b8101600181520301902060018060a01b0381541690610185610211600183016108e0565b91600281015493600382015491600561022c600483016108e0565b91015460405196879660a083901c60ff16956001600160a01b0390931694886109cc565b3461019f57600036600319011261019f5760005467ffffffffffffffff8111610344576040519061028760208260051b01836107ae565b808252602082019081600080527f290decd9548b62a8d60345a988386fc84ba6bc95484008f6362f93160ef3e5636000915b83831061032757848660405191829160208301906020845251809152604083019060408160051b85010192916000905b8282106102f857505050500390f35b919360019193955060206103178192603f198a820301865288516109a7565b96019201920185949391926102e9565b600160208192610336856108e0565b8152019201920191906102b9565b634e487b7160e01b600052604160045260246000fd5b3461019f5761036836610827565b8151151561037590610a2d565b60405161038181610792565b338152602081019282845260408201934285526060830192600084526040938451906103ad86836107ae565b6001825260208201600160fd1b90526080830191825260a08301976000895260c0840194600086528751808851818160208c01916103ea92610984565b600190820181815291909103602001909120955186546001600160a01b039091166001600160a01b03199091161786559051610427918601610a6e565b516002840155516003830155516104419060048301610a6e565b945160059590950180546001600160a01b0319166001600160a01b0396909616959095178555519360028510156101895760009481549060ff60a01b9060a01b169060ff60a01b1916179055835468010000000000000000811015610517578060016104af92018655610876565b61050357816104e27fc5c9c5be0a803a51fcdd442c5356b7a7134a3eb50b644498e9edab165955215a936104e793610a6e565b610b7a565b915160208152806104fd339560208301906109a7565b0390a380f35b634e487b7160e01b85526004859052602485fd5b634e487b7160e01b85526041600452602485fd5b3461019f57602036600319011261019f5760043560005481101561019f5761055290610876565b61057657610562610185916108e0565b6040519182916020835260208301906109a7565b634e487b7160e01b600052600060045260246000fd5b3461019f5761059a36610827565b906105a781511515610a2d565b60405160208183516105bc8183858801610984565b81016001815203019020916005830160ff815460a01c1660028110156101895761074257805460ff60a01b1916600160a01b1781554260038501556106048260048601610a6e565b80546001600160a01b0319163317905582546001600160a01b0316926001019161062d90610b7a565b916040519160408352600091805490610645826108a6565b918260408701526001811690816000146106fb575060011461069e575b505091610699827f780caf14b362fa8a2a07ded5aec07780c129ed64d0add93ddcbb6a813eb8251a948380950360208501526109a7565b0390a3005b600090815260208120929350915b8183106106e45750508201606001906106997f780caf14b362fa8a2a07ded5aec07780c129ed64d0add93ddcbb6a813eb8251a610662565b8054606084870101526020909201916001016106ac565b60ff191660608088019190915292151560051b8601909201935061069991507f780caf14b362fa8a2a07ded5aec07780c129ed64d0add93ddcbb6a813eb8251a9050610662565b60405162461bcd60e51b815260206004820152602260248201527f526571756573742068617320616c7265616479206265656e2070726f63657373604482015261195960f21b6064820152608490fd5b60e0810190811067ffffffffffffffff82111761034457604052565b90601f8019910116810190811067ffffffffffffffff82111761034457604052565b81601f8201121561019f5780359067ffffffffffffffff82116103445760405192610805601f8401601f1916602001856107ae565b8284526020838301011161019f57816000926020809301838601378301015290565b90604060031983011261019f5760043567ffffffffffffffff811161019f5782610853916004016107d0565b916024359067ffffffffffffffff821161019f57610873916004016107d0565b90565b600054811015610890576000805260206000200190600090565b634e487b7160e01b600052603260045260246000fd5b90600182811c921680156108d6575b60208310146108c057565b634e487b7160e01b600052602260045260246000fd5b91607f16916108b5565b90604051918260008254926108f4846108a6565b8084529360018116908115610962575060011461091b575b50610919925003836107ae565b565b90506000929192526020600020906000915b818310610946575050906020610919928201013861090c565b602091935080600191548385890101520191019091849261092d565b90506020925061091994915060ff191682840152151560051b8201013861090c565b60005b8381106109975750506000910152565b8181015183820152602001610987565b906020916109c081518092818552858086019101610984565b601f01601f1916010190565b94916109f690610a0e95929998979960018060a01b0316875260e0602088015260e08701906109a7565b926040860152606085015283820360808501526109a7565b6001600160a01b0390941660a082015260028210156101895760c00152565b15610a3457565b60405162461bcd60e51b8152602060048201526012602482015271125b9d985b1a590814995c5d595cdd08125160721b6044820152606490fd5b919091825167ffffffffffffffff811161034457610a8c82546108a6565b601f8111610b32575b506020601f8211600114610ad05781929394600092610ac5575b50508160011b916000199060031b1c1916179055565b015190503880610aaf565b601f1982169083600052806000209160005b818110610b1a57509583600195969710610b01575b505050811b019055565b015160001960f88460031b161c19169055388080610af7565b9192602060018192868b015181550194019201610ae2565b826000526020600020601f830160051c81019160208410610b70575b601f0160051c01905b818110610b645750610a95565b60008155600101610b57565b9091508190610b4e565b610b9290602060405192828480945193849201610984565b81010390209056fea2646970667358221220c6f9c22658b5e3afcc867c3c296dd830be25c6ee8416eb5e8e853d551acafb7364736f6c634300081b0033","opcodes":"PUSH1 0x80 DUP1 PUSH1 0x40 MSTORE CALLVALUE PUSH1 0x15 JUMPI PUSH2 0xBD0 SWAP1 DUP2 PUSH2 0x1B DUP3 CODECOPY RETURN JUMPDEST PUSH1 0x0 DUP1 REVERT INVALID PUSH1 0x80 PUSH1 0x40 MSTORE PUSH1 0x4 CALLDATASIZE LT ISZERO PUSH2 0x12 JUMPI PUSH1 0x0 DUP1 REVERT JUMPDEST PUSH1 0x0 CALLDATALOAD PUSH1 0xE0 SHR DUP1 PUSH4 0x6349939 EQ PUSH2 0x58C JUMPI DUP1 PUSH4 0x3A0E1C5D EQ PUSH2 0x52B JUMPI DUP1 PUSH4 0x53936BCF EQ PUSH2 0x35A JUMPI DUP1 PUSH4 0x7A0379BB EQ PUSH2 0x250 JUMPI DUP1 PUSH4 0xD77ACBA5 EQ PUSH2 0x1A4 JUMPI PUSH4 0xE4D1E536 EQ PUSH2 0x5E JUMPI PUSH1 0x0 DUP1 REVERT JUMPDEST CALLVALUE PUSH2 0x19F JUMPI PUSH1 0x20 CALLDATASIZE PUSH1 0x3 NOT ADD SLT PUSH2 0x19F JUMPI PUSH1 0x4 CALLDATALOAD PUSH8 0xFFFFFFFFFFFFFFFF DUP2 GT PUSH2 0x19F JUMPI CALLDATASIZE PUSH1 0x23 DUP3 ADD SLT ISZERO PUSH2 0x19F JUMPI DUP1 PUSH1 0x4 ADD CALLDATALOAD PUSH8 0xFFFFFFFFFFFFFFFF DUP2 GT PUSH2 0x19F JUMPI CALLDATASIZE PUSH1 0x24 DUP3 DUP5 ADD ADD GT PUSH2 0x19F JUMPI PUSH1 0x24 SWAP2 DUP2 PUSH1 0x20 SWAP3 PUSH1 0x40 MLOAD SWAP5 DUP6 SWAP4 ADD DUP4 CALLDATACOPY DUP2 ADD PUSH1 0x1 DUP2 MSTORE SUB ADD SWAP1 KECCAK256 PUSH1 0x40 MLOAD PUSH2 0xD2 DUP2 PUSH2 0x792 JUMP JUMPDEST DUP2 SLOAD PUSH1 0x1 PUSH1 0x1 PUSH1 0xA0 SHL SUB AND DUP2 MSTORE PUSH2 0xEB PUSH1 0x1 DUP4 ADD PUSH2 0x8E0 JUMP JUMPDEST SWAP1 PUSH1 0x20 DUP2 ADD SWAP2 DUP3 MSTORE PUSH1 0x2 DUP4 ADD SLOAD SWAP3 PUSH1 0x40 DUP3 ADD SWAP4 DUP5 MSTORE PUSH1 0x3 DUP2 ADD SLOAD SWAP2 PUSH1 0x60 DUP2 ADD SWAP3 DUP4 MSTORE PUSH1 0x5 PUSH2 0x11B PUSH1 0x4 DUP5 ADD PUSH2 0x8E0 JUMP JUMPDEST PUSH1 0x80 DUP4 ADD SWAP1 DUP2 MSTORE SWAP3 ADD SLOAD PUSH1 0x1 PUSH1 0x1 PUSH1 0xA0 SHL SUB DUP2 AND PUSH1 0xA0 DUP1 DUP5 ADD SWAP2 DUP3 MSTORE PUSH1 0xC0 DUP5 ADD SWAP4 SWAP2 SWAP3 SWAP1 SHR PUSH1 0xFF AND PUSH1 0x2 DUP2 LT ISZERO PUSH2 0x189 JUMPI SWAP3 DUP4 SWAP1 MSTORE MLOAD SWAP5 MLOAD SWAP6 MLOAD SWAP4 MLOAD SWAP3 MLOAD SWAP1 MLOAD PUSH1 0x1 PUSH1 0x1 PUSH1 0xA0 SHL SUB SWAP6 DUP7 AND SWAP6 SWAP3 SWAP4 SWAP3 AND SWAP2 PUSH1 0x2 DUP5 LT ISZERO PUSH2 0x189 JUMPI PUSH2 0x185 SWAP5 PUSH1 0x40 MLOAD SWAP8 DUP9 SWAP8 DUP9 PUSH2 0x9CC JUMP JUMPDEST SUB SWAP1 RETURN JUMPDEST PUSH4 0x4E487B71 PUSH1 0xE0 SHL PUSH1 0x0 MSTORE PUSH1 0x21 PUSH1 0x4 MSTORE PUSH1 0x24 PUSH1 0x0 REVERT JUMPDEST PUSH1 0x0 DUP1 REVERT JUMPDEST CALLVALUE PUSH2 0x19F JUMPI PUSH1 0x20 CALLDATASIZE PUSH1 0x3 NOT ADD SLT PUSH2 0x19F JUMPI PUSH1 0x4 CALLDATALOAD PUSH8 0xFFFFFFFFFFFFFFFF DUP2 GT PUSH2 0x19F JUMPI PUSH1 0x20 PUSH2 0x1DA PUSH2 0x1ED SWAP3 CALLDATASIZE SWAP1 PUSH1 0x4 ADD PUSH2 0x7D0 JUMP JUMPDEST DUP2 PUSH1 0x40 MLOAD SWAP4 DUP3 DUP6 DUP1 SWAP5 MLOAD SWAP4 DUP5 SWAP3 ADD PUSH2 0x984 JUMP JUMPDEST DUP2 ADD PUSH1 0x1 DUP2 MSTORE SUB ADD SWAP1 KECCAK256 PUSH1 0x1 DUP1 PUSH1 0xA0 SHL SUB DUP2 SLOAD AND SWAP1 PUSH2 0x185 PUSH2 0x211 PUSH1 0x1 DUP4 ADD PUSH2 0x8E0 JUMP JUMPDEST SWAP2 PUSH1 0x2 DUP2 ADD SLOAD SWAP4 PUSH1 0x3 DUP3 ADD SLOAD SWAP2 PUSH1 0x5 PUSH2 0x22C PUSH1 0x4 DUP4 ADD PUSH2 0x8E0 JUMP JUMPDEST SWAP2 ADD SLOAD PUSH1 0x40 MLOAD SWAP7 DUP8 SWAP7 PUSH1 0xA0 DUP4 SWAP1 SHR PUSH1 0xFF AND SWAP6 PUSH1 0x1 PUSH1 0x1 PUSH1 0xA0 SHL SUB SWAP1 SWAP4 AND SWAP5 DUP9 PUSH2 0x9CC JUMP JUMPDEST CALLVALUE PUSH2 0x19F JUMPI PUSH1 0x0 CALLDATASIZE PUSH1 0x3 NOT ADD SLT PUSH2 0x19F JUMPI PUSH1 0x0 SLOAD PUSH8 0xFFFFFFFFFFFFFFFF DUP2 GT PUSH2 0x344 JUMPI PUSH1 0x40 MLOAD SWAP1 PUSH2 0x287 PUSH1 0x20 DUP3 PUSH1 0x5 SHL ADD DUP4 PUSH2 0x7AE JUMP JUMPDEST DUP1 DUP3 MSTORE PUSH1 0x20 DUP3 ADD SWAP1 DUP2 PUSH1 0x0 DUP1 MSTORE PUSH32 0x290DECD9548B62A8D60345A988386FC84BA6BC95484008F6362F93160EF3E563 PUSH1 0x0 SWAP2 JUMPDEST DUP4 DUP4 LT PUSH2 0x327 JUMPI DUP5 DUP7 PUSH1 0x40 MLOAD SWAP2 DUP3 SWAP2 PUSH1 0x20 DUP4 ADD SWAP1 PUSH1 0x20 DUP5 MSTORE MLOAD DUP1 SWAP2 MSTORE PUSH1 0x40 DUP4 ADD SWAP1 PUSH1 0x40 DUP2 PUSH1 0x5 SHL DUP6 ADD ADD SWAP3 SWAP2 PUSH1 0x0 SWAP1 JUMPDEST DUP3 DUP3 LT PUSH2 0x2F8 JUMPI POP POP POP POP SUB SWAP1 RETURN JUMPDEST SWAP2 SWAP4 PUSH1 0x1 SWAP2 SWAP4 SWAP6 POP PUSH1 0x20 PUSH2 0x317 DUP2 SWAP3 PUSH1 0x3F NOT DUP11 DUP3 SUB ADD DUP7 MSTORE DUP9 MLOAD PUSH2 0x9A7 JUMP JUMPDEST SWAP7 ADD SWAP3 ADD SWAP3 ADD DUP6 SWAP5 SWAP4 SWAP2 SWAP3 PUSH2 0x2E9 JUMP JUMPDEST PUSH1 0x1 PUSH1 0x20 DUP2 SWAP3 PUSH2 0x336 DUP6 PUSH2 0x8E0 JUMP JUMPDEST DUP2 MSTORE ADD SWAP3 ADD SWAP3 ADD SWAP2 SWAP1 PUSH2 0x2B9 JUMP JUMPDEST PUSH4 0x4E487B71 PUSH1 0xE0 SHL PUSH1 0x0 MSTORE PUSH1 0x41 PUSH1 0x4 MSTORE PUSH1 0x24 PUSH1 0x0 REVERT JUMPDEST CALLVALUE PUSH2 0x19F JUMPI PUSH2 0x368 CALLDATASIZE PUSH2 0x827 JUMP JUMPDEST DUP2 MLOAD ISZERO ISZERO PUSH2 0x375 SWAP1 PUSH2 0xA2D JUMP JUMPDEST PUSH1 0x40 MLOAD PUSH2 0x381 DUP2 PUSH2 0x792 JUMP JUMPDEST CALLER DUP2 MSTORE PUSH1 0x20 DUP2 ADD SWAP3 DUP3 DUP5 MSTORE PUSH1 0x40 DUP3 ADD SWAP4 TIMESTAMP DUP6 MSTORE PUSH1 0x60 DUP4 ADD SWAP3 PUSH1 0x0 DUP5 MSTORE PUSH1 0x40 SWAP4 DUP5 MLOAD SWAP1 PUSH2 0x3AD DUP7 DUP4 PUSH2 0x7AE JUMP JUMPDEST PUSH1 0x1 DUP3 MSTORE PUSH1 0x20 DUP3 ADD PUSH1 0x1 PUSH1 0xFD SHL SWAP1 MSTORE PUSH1 0x80 DUP4 ADD SWAP2 DUP3 MSTORE PUSH1 0xA0 DUP4 ADD SWAP8 PUSH1 0x0 DUP10 MSTORE PUSH1 0xC0 DUP5 ADD SWAP5 PUSH1 0x0 DUP7 MSTORE DUP8 MLOAD DUP1 DUP9 MLOAD DUP2 DUP2 PUSH1 0x20 DUP13 ADD SWAP2 PUSH2 0x3EA SWAP3 PUSH2 0x984 JUMP JUMPDEST PUSH1 0x1 SWAP1 DUP3 ADD DUP2 DUP2 MSTORE SWAP2 SWAP1 SWAP2 SUB PUSH1 0x20 ADD SWAP1 SWAP2 KECCAK256 SWAP6 MLOAD DUP7 SLOAD PUSH1 0x1 PUSH1 0x1 PUSH1 0xA0 SHL SUB SWAP1 SWAP2 AND PUSH1 0x1 PUSH1 0x1 PUSH1 0xA0 SHL SUB NOT SWAP1 SWAP2 AND OR DUP7 SSTORE SWAP1 MLOAD PUSH2 0x427 SWAP2 DUP7 ADD PUSH2 0xA6E JUMP JUMPDEST MLOAD PUSH1 0x2 DUP5 ADD SSTORE MLOAD PUSH1 0x3 DUP4 ADD SSTORE MLOAD PUSH2 0x441 SWAP1 PUSH1 0x4 DUP4 ADD PUSH2 0xA6E JUMP JUMPDEST SWAP5 MLOAD PUSH1 0x5 SWAP6 SWAP1 SWAP6 ADD DUP1 SLOAD PUSH1 0x1 PUSH1 0x1 PUSH1 0xA0 SHL SUB NOT AND PUSH1 0x1 PUSH1 0x1 PUSH1 0xA0 SHL SUB SWAP7 SWAP1 SWAP7 AND SWAP6 SWAP1 SWAP6 OR DUP6 SSTORE MLOAD SWAP4 PUSH1 0x2 DUP6 LT ISZERO PUSH2 0x189 JUMPI PUSH1 0x0 SWAP5 DUP2 SLOAD SWAP1 PUSH1 0xFF PUSH1 0xA0 SHL SWAP1 PUSH1 0xA0 SHL AND SWAP1 PUSH1 0xFF PUSH1 0xA0 SHL NOT AND OR SWAP1 SSTORE DUP4 SLOAD PUSH9 0x10000000000000000 DUP2 LT ISZERO PUSH2 0x517 JUMPI DUP1 PUSH1 0x1 PUSH2 0x4AF SWAP3 ADD DUP7 SSTORE PUSH2 0x876 JUMP JUMPDEST PUSH2 0x503 JUMPI DUP2 PUSH2 0x4E2 PUSH32 0xC5C9C5BE0A803A51FCDD442C5356B7A7134A3EB50B644498E9EDAB165955215A SWAP4 PUSH2 0x4E7 SWAP4 PUSH2 0xA6E JUMP JUMPDEST PUSH2 0xB7A JUMP JUMPDEST SWAP2 MLOAD PUSH1 0x20 DUP2 MSTORE DUP1 PUSH2 0x4FD CALLER SWAP6 PUSH1 0x20 DUP4 ADD SWAP1 PUSH2 0x9A7 JUMP JUMPDEST SUB SWAP1 LOG3 DUP1 RETURN JUMPDEST PUSH4 0x4E487B71 PUSH1 0xE0 SHL DUP6 MSTORE PUSH1 0x4 DUP6 SWAP1 MSTORE PUSH1 0x24 DUP6 REVERT JUMPDEST PUSH4 0x4E487B71 PUSH1 0xE0 SHL DUP6 MSTORE PUSH1 0x41 PUSH1 0x4 MSTORE PUSH1 0x24 DUP6 REVERT JUMPDEST CALLVALUE PUSH2 0x19F JUMPI PUSH1 0x20 CALLDATASIZE PUSH1 0x3 NOT ADD SLT PUSH2 0x19F JUMPI PUSH1 0x4 CALLDATALOAD PUSH1 0x0 SLOAD DUP2 LT ISZERO PUSH2 0x19F JUMPI PUSH2 0x552 SWAP1 PUSH2 0x876 JUMP JUMPDEST PUSH2 0x576 JUMPI PUSH2 0x562 PUSH2 0x185 SWAP2 PUSH2 0x8E0 JUMP JUMPDEST PUSH1 0x40 MLOAD SWAP2 DUP3 SWAP2 PUSH1 0x20 DUP4 MSTORE PUSH1 0x20 DUP4 ADD SWAP1 PUSH2 0x9A7 JUMP JUMPDEST PUSH4 0x4E487B71 PUSH1 0xE0 SHL PUSH1 0x0 MSTORE PUSH1 0x0 PUSH1 0x4 MSTORE PUSH1 0x24 PUSH1 0x0 REVERT JUMPDEST CALLVALUE PUSH2 0x19F JUMPI PUSH2 0x59A CALLDATASIZE PUSH2 0x827 JUMP JUMPDEST SWAP1 PUSH2 0x5A7 DUP2 MLOAD ISZERO ISZERO PUSH2 0xA2D JUMP JUMPDEST PUSH1 0x40 MLOAD PUSH1 0x20 DUP2 DUP4 MLOAD PUSH2 0x5BC DUP2 DUP4 DUP6 DUP9 ADD PUSH2 0x984 JUMP JUMPDEST DUP2 ADD PUSH1 0x1 DUP2 MSTORE SUB ADD SWAP1 KECCAK256 SWAP2 PUSH1 0x5 DUP4 ADD PUSH1 0xFF DUP2 SLOAD PUSH1 0xA0 SHR AND PUSH1 0x2 DUP2 LT ISZERO PUSH2 0x189 JUMPI PUSH2 0x742 JUMPI DUP1 SLOAD PUSH1 0xFF PUSH1 0xA0 SHL NOT AND PUSH1 0x1 PUSH1 0xA0 SHL OR DUP2 SSTORE TIMESTAMP PUSH1 0x3 DUP6 ADD SSTORE PUSH2 0x604 DUP3 PUSH1 0x4 DUP7 ADD PUSH2 0xA6E JUMP JUMPDEST DUP1 SLOAD PUSH1 0x1 PUSH1 0x1 PUSH1 0xA0 SHL SUB NOT AND CALLER OR SWAP1 SSTORE DUP3 SLOAD PUSH1 0x1 PUSH1 0x1 PUSH1 0xA0 SHL SUB AND SWAP3 PUSH1 0x1 ADD SWAP2 PUSH2 0x62D SWAP1 PUSH2 0xB7A JUMP JUMPDEST SWAP2 PUSH1 0x40 MLOAD SWAP2 PUSH1 0x40 DUP4 MSTORE PUSH1 0x0 SWAP2 DUP1 SLOAD SWAP1 PUSH2 0x645 DUP3 PUSH2 0x8A6 JUMP JUMPDEST SWAP2 DUP3 PUSH1 0x40 DUP8 ADD MSTORE PUSH1 0x1 DUP2 AND SWAP1 DUP2 PUSH1 0x0 EQ PUSH2 0x6FB JUMPI POP PUSH1 0x1 EQ PUSH2 0x69E JUMPI JUMPDEST POP POP SWAP2 PUSH2 0x699 DUP3 PUSH32 0x780CAF14B362FA8A2A07DED5AEC07780C129ED64D0ADD93DDCBB6A813EB8251A SWAP5 DUP4 DUP1 SWAP6 SUB PUSH1 0x20 DUP6 ADD MSTORE PUSH2 0x9A7 JUMP JUMPDEST SUB SWAP1 LOG3 STOP JUMPDEST PUSH1 0x0 SWAP1 DUP2 MSTORE PUSH1 0x20 DUP2 KECCAK256 SWAP3 SWAP4 POP SWAP2 JUMPDEST DUP2 DUP4 LT PUSH2 0x6E4 JUMPI POP POP DUP3 ADD PUSH1 0x60 ADD SWAP1 PUSH2 0x699 PUSH32 0x780CAF14B362FA8A2A07DED5AEC07780C129ED64D0ADD93DDCBB6A813EB8251A PUSH2 0x662 JUMP JUMPDEST DUP1 SLOAD PUSH1 0x60 DUP5 DUP8 ADD ADD MSTORE PUSH1 0x20 SWAP1 SWAP3 ADD SWAP2 PUSH1 0x1 ADD PUSH2 0x6AC JUMP JUMPDEST PUSH1 0xFF NOT AND PUSH1 0x60 DUP1 DUP9 ADD SWAP2 SWAP1 SWAP2 MSTORE SWAP3 ISZERO ISZERO PUSH1 0x5 SHL DUP7 ADD SWAP1 SWAP3 ADD SWAP4 POP PUSH2 0x699 SWAP2 POP PUSH32 0x780CAF14B362FA8A2A07DED5AEC07780C129ED64D0ADD93DDCBB6A813EB8251A SWAP1 POP PUSH2 0x662 JUMP JUMPDEST PUSH1 0x40 MLOAD PUSH3 0x461BCD PUSH1 0xE5 SHL DUP2 MSTORE PUSH1 0x20 PUSH1 0x4 DUP3 ADD MSTORE PUSH1 0x22 PUSH1 0x24 DUP3 ADD MSTORE PUSH32 0x526571756573742068617320616C7265616479206265656E2070726F63657373 PUSH1 0x44 DUP3 ADD MSTORE PUSH2 0x1959 PUSH1 0xF2 SHL PUSH1 0x64 DUP3 ADD MSTORE PUSH1 0x84 SWAP1 REVERT JUMPDEST PUSH1 0xE0 DUP2 ADD SWAP1 DUP2 LT PUSH8 0xFFFFFFFFFFFFFFFF DUP3 GT OR PUSH2 0x344 JUMPI PUSH1 0x40 MSTORE JUMP JUMPDEST SWAP1 PUSH1 0x1F DUP1 NOT SWAP2 ADD AND DUP2 ADD SWAP1 DUP2 LT PUSH8 0xFFFFFFFFFFFFFFFF DUP3 GT OR PUSH2 0x344 JUMPI PUSH1 0x40 MSTORE JUMP JUMPDEST DUP2 PUSH1 0x1F DUP3 ADD SLT ISZERO PUSH2 0x19F JUMPI DUP1 CALLDATALOAD SWAP1 PUSH8 0xFFFFFFFFFFFFFFFF DUP3 GT PUSH2 0x344 JUMPI PUSH1 0x40 MLOAD SWAP3 PUSH2 0x805 PUSH1 0x1F DUP5 ADD PUSH1 0x1F NOT AND PUSH1 0x20 ADD DUP6 PUSH2 0x7AE JUMP JUMPDEST DUP3 DUP5 MSTORE PUSH1 0x20 DUP4 DUP4 ADD ADD GT PUSH2 0x19F JUMPI DUP2 PUSH1 0x0 SWAP3 PUSH1 0x20 DUP1 SWAP4 ADD DUP4 DUP7 ADD CALLDATACOPY DUP4 ADD ADD MSTORE SWAP1 JUMP JUMPDEST SWAP1 PUSH1 0x40 PUSH1 0x3 NOT DUP4 ADD SLT PUSH2 0x19F JUMPI PUSH1 0x4 CALLDATALOAD PUSH8 0xFFFFFFFFFFFFFFFF DUP2 GT PUSH2 0x19F JUMPI DUP3 PUSH2 0x853 SWAP2 PUSH1 0x4 ADD PUSH2 0x7D0 JUMP JUMPDEST SWAP2 PUSH1 0x24 CALLDATALOAD SWAP1 PUSH8 0xFFFFFFFFFFFFFFFF DUP3 GT PUSH2 0x19F JUMPI PUSH2 0x873 SWAP2 PUSH1 0x4 ADD PUSH2 0x7D0 JUMP JUMPDEST SWAP1 JUMP JUMPDEST PUSH1 0x0 SLOAD DUP2 LT ISZERO PUSH2 0x890 JUMPI PUSH1 0x0 DUP1 MSTORE PUSH1 0x20 PUSH1 0x0 KECCAK256 ADD SWAP1 PUSH1 0x0 SWAP1 JUMP JUMPDEST PUSH4 0x4E487B71 PUSH1 0xE0 SHL PUSH1 0x0 MSTORE PUSH1 0x32 PUSH1 0x4 MSTORE PUSH1 0x24 PUSH1 0x0 REVERT JUMPDEST SWAP1 PUSH1 0x1 DUP3 DUP2 SHR SWAP3 AND DUP1 ISZERO PUSH2 0x8D6 JUMPI JUMPDEST PUSH1 0x20 DUP4 LT EQ PUSH2 0x8C0 JUMPI JUMP JUMPDEST PUSH4 0x4E487B71 PUSH1 0xE0 SHL PUSH1 0x0 MSTORE PUSH1 0x22 PUSH1 0x4 MSTORE PUSH1 0x24 PUSH1 0x0 REVERT JUMPDEST SWAP2 PUSH1 0x7F AND SWAP2 PUSH2 0x8B5 JUMP JUMPDEST SWAP1 PUSH1 0x40 MLOAD SWAP2 DUP3 PUSH1 0x0 DUP3 SLOAD SWAP3 PUSH2 0x8F4 DUP5 PUSH2 0x8A6 JUMP JUMPDEST DUP1 DUP5 MSTORE SWAP4 PUSH1 0x1 DUP2 AND SWAP1 DUP2 ISZERO PUSH2 0x962 JUMPI POP PUSH1 0x1 EQ PUSH2 0x91B JUMPI JUMPDEST POP PUSH2 0x919 SWAP3 POP SUB DUP4 PUSH2 0x7AE JUMP JUMPDEST JUMP JUMPDEST SWAP1 POP PUSH1 0x0 SWAP3 SWAP2 SWAP3 MSTORE PUSH1 0x20 PUSH1 0x0 KECCAK256 SWAP1 PUSH1 0x0 SWAP2 JUMPDEST DUP2 DUP4 LT PUSH2 0x946 JUMPI POP POP SWAP1 PUSH1 0x20 PUSH2 0x919 SWAP3 DUP3 ADD ADD CODESIZE PUSH2 0x90C JUMP JUMPDEST PUSH1 0x20 SWAP2 SWAP4 POP DUP1 PUSH1 0x1 SWAP2 SLOAD DUP4 DUP6 DUP10 ADD ADD MSTORE ADD SWAP2 ADD SWAP1 SWAP2 DUP5 SWAP3 PUSH2 0x92D JUMP JUMPDEST SWAP1 POP PUSH1 0x20 SWAP3 POP PUSH2 0x919 SWAP5 SWAP2 POP PUSH1 0xFF NOT AND DUP3 DUP5 ADD MSTORE ISZERO ISZERO PUSH1 0x5 SHL DUP3 ADD ADD CODESIZE PUSH2 0x90C JUMP JUMPDEST PUSH1 0x0 JUMPDEST DUP4 DUP2 LT PUSH2 0x997 JUMPI POP POP PUSH1 0x0 SWAP2 ADD MSTORE JUMP JUMPDEST DUP2 DUP2 ADD MLOAD DUP4 DUP3 ADD MSTORE PUSH1 0x20 ADD PUSH2 0x987 JUMP JUMPDEST SWAP1 PUSH1 0x20 SWAP2 PUSH2 0x9C0 DUP2 MLOAD DUP1 SWAP3 DUP2 DUP6 MSTORE DUP6 DUP1 DUP7 ADD SWAP2 ADD PUSH2 0x984 JUMP JUMPDEST PUSH1 0x1F ADD PUSH1 0x1F NOT AND ADD ADD SWAP1 JUMP JUMPDEST SWAP5 SWAP2 PUSH2 0x9F6 SWAP1 PUSH2 0xA0E SWAP6 SWAP3 SWAP10 SWAP9 SWAP8 SWAP10 PUSH1 0x1 DUP1 PUSH1 0xA0 SHL SUB AND DUP8 MSTORE PUSH1 0xE0 PUSH1 0x20 DUP9 ADD MSTORE PUSH1 0xE0 DUP8 ADD SWAP1 PUSH2 0x9A7 JUMP JUMPDEST SWAP3 PUSH1 0x40 DUP7 ADD MSTORE PUSH1 0x60 DUP6 ADD MSTORE DUP4 DUP3 SUB PUSH1 0x80 DUP6 ADD MSTORE PUSH2 0x9A7 JUMP JUMPDEST PUSH1 0x1 PUSH1 0x1 PUSH1 0xA0 SHL SUB SWAP1 SWAP5 AND PUSH1 0xA0 DUP3 ADD MSTORE PUSH1 0x2 DUP3 LT ISZERO PUSH2 0x189 JUMPI PUSH1 0xC0 ADD MSTORE JUMP JUMPDEST ISZERO PUSH2 0xA34 JUMPI JUMP JUMPDEST PUSH1 0x40 MLOAD PUSH3 0x461BCD PUSH1 0xE5 SHL DUP2 MSTORE PUSH1 0x20 PUSH1 0x4 DUP3 ADD MSTORE PUSH1 0x12 PUSH1 0x24 DUP3 ADD MSTORE PUSH18 0x125B9D985B1A590814995C5D595CDD081251 PUSH1 0x72 SHL PUSH1 0x44 DUP3 ADD MSTORE PUSH1 0x64 SWAP1 REVERT JUMPDEST SWAP2 SWAP1 SWAP2 DUP3 MLOAD PUSH8 0xFFFFFFFFFFFFFFFF DUP2 GT PUSH2 0x344 JUMPI PUSH2 0xA8C DUP3 SLOAD PUSH2 0x8A6 JUMP JUMPDEST PUSH1 0x1F DUP2 GT PUSH2 0xB32 JUMPI JUMPDEST POP PUSH1 0x20 PUSH1 0x1F DUP3 GT PUSH1 0x1 EQ PUSH2 0xAD0 JUMPI DUP2 SWAP3 SWAP4 SWAP5 PUSH1 0x0 SWAP3 PUSH2 0xAC5 JUMPI JUMPDEST POP POP DUP2 PUSH1 0x1 SHL SWAP2 PUSH1 0x0 NOT SWAP1 PUSH1 0x3 SHL SHR NOT AND OR SWAP1 SSTORE JUMP JUMPDEST ADD MLOAD SWAP1 POP CODESIZE DUP1 PUSH2 0xAAF JUMP JUMPDEST PUSH1 0x1F NOT DUP3 AND SWAP1 DUP4 PUSH1 0x0 MSTORE DUP1 PUSH1 0x0 KECCAK256 SWAP2 PUSH1 0x0 JUMPDEST DUP2 DUP2 LT PUSH2 0xB1A JUMPI POP SWAP6 DUP4 PUSH1 0x1 SWAP6 SWAP7 SWAP8 LT PUSH2 0xB01 JUMPI JUMPDEST POP POP POP DUP2 SHL ADD SWAP1 SSTORE JUMP JUMPDEST ADD MLOAD PUSH1 0x0 NOT PUSH1 0xF8 DUP5 PUSH1 0x3 SHL AND SHR NOT AND SWAP1 SSTORE CODESIZE DUP1 DUP1 PUSH2 0xAF7 JUMP JUMPDEST SWAP2 SWAP3 PUSH1 0x20 PUSH1 0x1 DUP2 SWAP3 DUP7 DUP12 ADD MLOAD DUP2 SSTORE ADD SWAP5 ADD SWAP3 ADD PUSH2 0xAE2 JUMP JUMPDEST DUP3 PUSH1 0x0 MSTORE PUSH1 0x20 PUSH1 0x0 KECCAK256 PUSH1 0x1F DUP4 ADD PUSH1 0x5 SHR DUP2 ADD SWAP2 PUSH1 0x20 DUP5 LT PUSH2 0xB70 JUMPI JUMPDEST PUSH1 0x1F ADD PUSH1 0x5 SHR ADD SWAP1 JUMPDEST DUP2 DUP2 LT PUSH2 0xB64 JUMPI POP PUSH2 0xA95 JUMP JUMPDEST PUSH1 0x0 DUP2 SSTORE PUSH1 0x1 ADD PUSH2 0xB57 JUMP JUMPDEST SWAP1 SWAP2 POP DUP2 SWAP1 PUSH2 0xB4E JUMP JUMPDEST PUSH2 0xB92 SWAP1 PUSH1 0x20 PUSH1 0x40 MLOAD SWAP3 DUP3 DUP5 DUP1 SWAP5 MLOAD SWAP4 DUP5 SWAP3 ADD PUSH2 0x984 JUMP JUMPDEST DUP2 ADD SUB SWAP1 KECCAK256 SWAP1 JUMP INVALID LOG2 PUSH5 0x6970667358 0x22 SLT KECCAK256 0xC6 0xF9 0xC2 0x26 PC 0xB5 0xE3 0xAF 0xCC DUP7 PUSH29 0x3C296DD830BE25C6EE8416EB5E8E853D551ACAFB7364736F6C63430008 SHL STOP CALLER "},"methodIdentifiers":{"CdobRequests(string)":"d77acba5","Cdob_approve(string,string)":"06349939","Cdob_request(string,string)":"53936bcf","get_Cdob_request_byId(string)":"e4d1e536","get_all_Cdob_request()":"7a0379bb","reqIdCdob(uint256)":"3a0e1c5d"}}}}}