{"contracts/MainSupplyChain.sol":{"MainSupplyChain":{"abi":[{"inputs":[],"stateMutability":"nonpayable","type":"constructor"},{"anonymous":false,"inputs":[{"indexed":false,"internalType":"address","name":"userAddr","type":"address"},{"indexed":false,"internalType":"string","name":"name","type":"string"},{"indexed":false,"internalType":"enum MainSupplyChain.en_roles","name":"role","type":"uint8"}],"name":"evt_UserRegistered","type":"event"},{"anonymous":false,"inputs":[{"indexed":false,"internalType":"address","name":"bpomAddr","type":"address"},{"indexed":false,"internalType":"string","name":"factoryName","type":"string"},{"indexed":false,"internalType":"string","name":"cpotbNumber","type":"string"},{"indexed":false,"internalType":"uint256","name":"timestampApprove","type":"uint256"}],"name":"evt_cpotbApproved","type":"event"},{"anonymous":false,"inputs":[{"indexed":false,"internalType":"address","name":"factoryAddr","type":"address"},{"indexed":false,"internalType":"string","name":"factoryName","type":"string"},{"indexed":false,"internalType":"enum MainSupplyChain.en_jenisSediaan","name":"jenisSediaan","type":"uint8"},{"indexed":false,"internalType":"string","name":"cpotbId","type":"string"},{"indexed":false,"internalType":"uint256","name":"timestampRequest","type":"uint256"}],"name":"evt_cpotbRequested","type":"event"},{"inputs":[{"internalType":"string","name":"_cpotbId","type":"string"},{"internalType":"string","name":"_cpotbNumber","type":"string"}],"name":"approveCpotb","outputs":[],"stateMutability":"nonpayable","type":"function"},{"inputs":[{"internalType":"address","name":"_userAddr","type":"address"}],"name":"getRegisteredUser","outputs":[{"internalType":"address","name":"","type":"address"},{"internalType":"string","name":"","type":"string"},{"internalType":"uint8","name":"","type":"uint8"}],"stateMutability":"view","type":"function"},{"inputs":[],"name":"owner","outputs":[{"internalType":"address","name":"","type":"address"}],"stateMutability":"view","type":"function"},{"inputs":[{"internalType":"string","name":"_name","type":"string"},{"internalType":"string","name":"_email","type":"string"},{"internalType":"address","name":"_userAddr","type":"address"},{"internalType":"uint8","name":"_userRole","type":"uint8"}],"name":"registerUser","outputs":[],"stateMutability":"nonpayable","type":"function"},{"inputs":[{"internalType":"string","name":"_factoryName","type":"string"},{"internalType":"string","name":"_cpotbId","type":"string"},{"internalType":"enum MainSupplyChain.en_jenisSediaan","name":"_jenisSediaan","type":"uint8"}],"name":"requestCpotb","outputs":[],"stateMutability":"nonpayable","type":"function"},{"inputs":[{"internalType":"address","name":"","type":"address"}],"name":"userRoles","outputs":[{"internalType":"enum MainSupplyChain.en_roles","name":"","type":"uint8"}],"stateMutability":"view","type":"function"}],"evm":{"bytecode":{"linkReferences":{},"object":"60808060405234602757600080546001600160a01b03191633179055611182908161002d8239f35b600080fdfe6080604052600436101561001257600080fd5b60003560e01c8063073f25541461096857806326bfeb92146106c757806374d5e100146106835780638da5cb5b1461065a578063d1233672146101ab5763e54a29bb1461005e57600080fd5b346101a65760203660031901126101a6576001600160a01b0361007f610fb3565b1680600052600360205260ff604060002054161561016857600052600160205260406000206002604051916100b383610f21565b6040516100cb816100c481856110bd565b0382610f3c565b83526040516100e1816100c481600186016110bd565b602084015201546001600160a01b0381166040830190815260608301929161010f9060a01c60ff1684611140565b51905191516001600160a01b039091169060058110156101525760ff6101476040519485948552606060208601526060850190610ff9565b911660408301520390f35b634e487b7160e01b600052602160045260246000fd5b60405162461bcd60e51b8152602060048201526016602482015275155cd95c881a5cc81b9bdd081c9959da5cdd195c995960521b6044820152606490fd5b600080fd5b346101a65760803660031901126101a6576004356001600160401b0381116101a6576101db903690600401610f5d565b6024356001600160401b0381116101a6576101fa903690600401610f5d565b906044356001600160a01b03811691908290036101a6576064359160ff83168093036101a657604060008061028361029784516102378682610f3c565b602081527f5265676973746572557365722066756e6374696f6e2063616c6c65642062793a6020820152855192839163319af33360e01b60208401528760248401526064830190610ff9565b87604483015203601f198101835282610f3c565b6020815191016a636f6e736f6c652e6c6f675afa506000806102fa61030e84516102c18682610f3c565b600a8152692ab9b2b9102937b6329d60b11b60208201528551928391632d839cb360e21b60208401528760248401526064830190610ff9565b89604483015203601f198101835282610f3c565b6020815191016a636f6e736f6c652e6c6f675afa5060058410156101525780519461033886610f21565b838652602086019081528186019583875260608101916103588784611140565b8460005260016020528360002091518051906001600160401b0382116105815781906103848554611083565b601f8111610607575b50602090601f83116001146105a257600092610597575b50508160011b916000199060031b1c19161782555b51805160018301916001600160401b038211610581576103d98354611083565b601f8111610539575b50602090601f83116001146104ce57600294939291600091836104c3575b50508160011b916000199060031b1c19161790555b9651960180546001600160a01b0319166001600160a01b039790971696909617865551946005861015610152577fa4b4a4f9197eb52b65944f57348759ea717338f8a8f998a585d243350c2babb4946104bd9160009781549060ff60a01b9060a01b169060ff60a01b19161790558387526003602052828720600160ff198254161790556104b483519586958652606060208701526060860190610ff9565b92840190610fc9565b0390a180f35b015190508b80610400565b90601f1983169184600052816000209260005b818110610521575091600193918560029897969410610508575b505050811b019055610415565b015160001960f88460031b161c191690558b80806104fb565b929360206001819287860151815501950193016104e1565b836000526020600020601f840160051c81019160208510610577575b601f0160051c01905b81811061056b57506103e2565b6000815560010161055e565b9091508190610555565b634e487b7160e01b600052604160045260246000fd5b015190508a806103a4565b60008681528281209350601f198516905b8181106105ef57509084600195949392106105d6575b505050811b0182556103b9565b015160001960f88460031b161c191690558a80806105c9565b929360206001819287860151815501950193016105b3565b909150846000526020600020601f840160051c81019160208510610650575b90601f859493920160051c01905b818110610641575061038d565b60008155849350600101610634565b9091508190610626565b346101a65760003660031901126101a6576000546040516001600160a01b039091168152602090f35b346101a65760203660031901126101a6576001600160a01b036106a4610fb3565b166000526002602052602060ff604060002054166106c56040518092610fc9565bf35b346101a65760403660031901126101a6576004356001600160401b0381116101a6576106f7903690600401610f5d565b6024356001600160401b0381116101a657610716903690600401610f5d565b9033600052600260205260ff604060002054166005811015610152576107579161074460026020931461101e565b8160405193828580945193849201610fd6565b810160048152030190206003810160ff815460081c1660028110156101525761092357805461ff001916610100179055815191600682016001600160401b038411610581576107a68154611083565b601f81116108db575b50602093601f811160011461084e5791610838918361082a95947fbf2a1bd20abd851e14d5dd0a42bf8c003bf454a17688a93bc60fa324013f2b0897600091610843575b508160011b916000199060031b1c19161790555b4260058401556040519384933385526080602086015260026080860191016110bd565b908382036040850152610ff9565b4260608301520390a1005b9050830151886107f3565b601f19811682600052856000209060005b8181106108c357508261083894927fbf2a1bd20abd851e14d5dd0a42bf8c003bf454a17688a93bc60fa324013f2b089861082a989795600194106108aa575b5050811b019055610807565b85015160001960f88460031b161c19169055888061089e565b8588015183556020978801976001909301920161085f565b816000526020600020601f860160051c81019160208710610919575b601f0160051c01905b81811061090d57506107af565b60008155600101610900565b90915081906108f7565b60405162461bcd60e51b815260206004820152601d60248201527f43504f544220737461747573206d7573742062652070656e64696e67210000006044820152606490fd5b346101a65760603660031901126101a6576004356001600160401b0381116101a657610998903690600401610f5d565b6024356001600160401b0381116101a6576109b7903690600401610f5d565b90600460443510156101a65733600052600260205260ff604060002054166005811015610152576109e8901561101e565b6040519161012083018381106001600160401b038211176105815760405280835233602084015281604084015260009160443560608501528260808501524260a08501528260c0850152602093604051610a428682610f3c565b84815260e08201528361010082015260405185818551610a658183858a01610fd6565b810160048152030190209080518051906001600160401b038211610e54578190610a8f8554611083565b601f8111610ed6575b508890601f8311600114610e73578892610e68575b50508160011b916000199060031b1c19161782555b60208101516001830180546001600160a01b0319166001600160a01b039290921691909117905560408101518051906001600160401b038211610e54578190610b0e6002860154611083565b601f8111610e06575b508890601f8311600114610d9d578892610d92575b50508160011b916000199060031b1c19161760028301555b6003820160608201516004811015610d7e5760ff8019835416911617815560808201516002811015610d7e5761ff0082549160081b169061ff00191617905560a0810151600483015560c081015160058301556006820160e08201518051906001600160401b038211610d6a57610bbb8354611083565b601f8111610d27575b508890601f8311600114610c93577fb1f81a7d9b3451870eeffc1d43be8cce346b7e5d1a1c11f7ab085d8e8d550702999794610c669484610c7d99958c999560079560a09e92610c88575b50508160011b916000199060031b1c19161790555b6101006001808c1b03910151169101906001808a1b03166bffffffffffffffffffffffff891b82541617905560405196879633885287015260a0860190610ff9565b915060443560408501528382036060850152610ff9565b4260808301520390a1005b015190508e80610c0f565b8389528989209190601f1984168a5b818110610d1057509460018560a09c99956007957fb1f81a7d9b3451870eeffc1d43be8cce346b7e5d1a1c11f7ab085d8e8d5507029f9d9a95610c7d9d99610c669b10610cf7575b505050811b019055610c24565b015160001960f88460031b161c191690558e8080610cea565b92938c600181928786015181550195019301610ca2565b838952898920601f840160051c8101918b8510610d60575b601f0160051c01905b818110610d555750610bc4565b898155600101610d48565b9091508190610d3f565b634e487b7160e01b88526041600452602488fd5b634e487b7160e01b87526021600452602487fd5b015190508880610b2c565b6002860189528989209250601f198416895b8b828210610df0575050908460019594939210610dd7575b505050811b016002830155610b44565b015160001960f88460031b161c19169055888080610dc7565b6001859682939686015181550195019301610daf565b909150600285018852888820601f840160051c81018a8510610e4d575b90849392915b601f830160051c82018110610e3f575050610b17565b8a8155859450600101610e29565b5080610e23565b634e487b7160e01b87526041600452602487fd5b015190508880610aad565b8589528989209250601f198416895b8b828210610ec0575050908460019594939210610ea7575b505050811b018255610ac2565b015160001960f88460031b161c19169055888080610e9a565b6001859682939686015181550195019301610e82565b909150848852888820601f840160051c81018a8510610f1a575b90849392915b601f830160051c82018110610f0c575050610a98565b8a8155859450600101610ef6565b5080610ef0565b608081019081106001600160401b0382111761058157604052565b90601f801991011681019081106001600160401b0382111761058157604052565b81601f820112156101a6578035906001600160401b0382116105815760405192610f91601f8401601f191660200185610f3c565b828452602083830101116101a657816000926020809301838601378301015290565b600435906001600160a01b03821682036101a657565b9060058210156101525752565b60005b838110610fe95750506000910152565b8181015183820152602001610fd9565b9060209161101281518092818552858086019101610fd6565b601f01601f1916010190565b1561102557565b60405162461bcd60e51b815260206004820152603060248201527f536f7272792c20796f7520646f6e2774206861766520617574686f72697a656460448201526f20746f2061636365737320746869732160801b6064820152608490fd5b90600182811c921680156110b3575b602083101461109d57565b634e487b7160e01b600052602260045260246000fd5b91607f1691611092565b600092918154916110cd83611083565b808352926001811690811561112357506001146110e957505050565b60009081526020812093945091925b838310611109575060209250010190565b6001816020929493945483858701015201910191906110f8565b915050602093945060ff929192191683830152151560051b010190565b6005821015610152575256fea26469706673582212203470b02420a62b9d7bce1c58ea2964528f8c146fa68425db7c756702db8c9ba264736f6c634300081b0033","opcodes":"PUSH1 0x80 DUP1 PUSH1 0x40 MSTORE CALLVALUE PUSH1 0x27 JUMPI PUSH1 0x0 DUP1 SLOAD PUSH1 0x1 PUSH1 0x1 PUSH1 0xA0 SHL SUB NOT AND CALLER OR SWAP1 SSTORE PUSH2 0x1182 SWAP1 DUP2 PUSH2 0x2D DUP3 CODECOPY RETURN JUMPDEST PUSH1 0x0 DUP1 REVERT INVALID PUSH1 0x80 PUSH1 0x40 MSTORE PUSH1 0x4 CALLDATASIZE LT ISZERO PUSH2 0x12 JUMPI PUSH1 0x0 DUP1 REVERT JUMPDEST PUSH1 0x0 CALLDATALOAD PUSH1 0xE0 SHR DUP1 PUSH4 0x73F2554 EQ PUSH2 0x968 JUMPI DUP1 PUSH4 0x26BFEB92 EQ PUSH2 0x6C7 JUMPI DUP1 PUSH4 0x74D5E100 EQ PUSH2 0x683 JUMPI DUP1 PUSH4 0x8DA5CB5B EQ PUSH2 0x65A JUMPI DUP1 PUSH4 0xD1233672 EQ PUSH2 0x1AB JUMPI PUSH4 0xE54A29BB EQ PUSH2 0x5E JUMPI PUSH1 0x0 DUP1 REVERT JUMPDEST CALLVALUE PUSH2 0x1A6 JUMPI PUSH1 0x20 CALLDATASIZE PUSH1 0x3 NOT ADD SLT PUSH2 0x1A6 JUMPI PUSH1 0x1 PUSH1 0x1 PUSH1 0xA0 SHL SUB PUSH2 0x7F PUSH2 0xFB3 JUMP JUMPDEST AND DUP1 PUSH1 0x0 MSTORE PUSH1 0x3 PUSH1 0x20 MSTORE PUSH1 0xFF PUSH1 0x40 PUSH1 0x0 KECCAK256 SLOAD AND ISZERO PUSH2 0x168 JUMPI PUSH1 0x0 MSTORE PUSH1 0x1 PUSH1 0x20 MSTORE PUSH1 0x40 PUSH1 0x0 KECCAK256 PUSH1 0x2 PUSH1 0x40 MLOAD SWAP2 PUSH2 0xB3 DUP4 PUSH2 0xF21 JUMP JUMPDEST PUSH1 0x40 MLOAD PUSH2 0xCB DUP2 PUSH2 0xC4 DUP2 DUP6 PUSH2 0x10BD JUMP JUMPDEST SUB DUP3 PUSH2 0xF3C JUMP JUMPDEST DUP4 MSTORE PUSH1 0x40 MLOAD PUSH2 0xE1 DUP2 PUSH2 0xC4 DUP2 PUSH1 0x1 DUP7 ADD PUSH2 0x10BD JUMP JUMPDEST PUSH1 0x20 DUP5 ADD MSTORE ADD SLOAD PUSH1 0x1 PUSH1 0x1 PUSH1 0xA0 SHL SUB DUP2 AND PUSH1 0x40 DUP4 ADD SWAP1 DUP2 MSTORE PUSH1 0x60 DUP4 ADD SWAP3 SWAP2 PUSH2 0x10F SWAP1 PUSH1 0xA0 SHR PUSH1 0xFF AND DUP5 PUSH2 0x1140 JUMP JUMPDEST MLOAD SWAP1 MLOAD SWAP2 MLOAD PUSH1 0x1 PUSH1 0x1 PUSH1 0xA0 SHL SUB SWAP1 SWAP2 AND SWAP1 PUSH1 0x5 DUP2 LT ISZERO PUSH2 0x152 JUMPI PUSH1 0xFF PUSH2 0x147 PUSH1 0x40 MLOAD SWAP5 DUP6 SWAP5 DUP6 MSTORE PUSH1 0x60 PUSH1 0x20 DUP7 ADD MSTORE PUSH1 0x60 DUP6 ADD SWAP1 PUSH2 0xFF9 JUMP JUMPDEST SWAP2 AND PUSH1 0x40 DUP4 ADD MSTORE SUB SWAP1 RETURN JUMPDEST PUSH4 0x4E487B71 PUSH1 0xE0 SHL PUSH1 0x0 MSTORE PUSH1 0x21 PUSH1 0x4 MSTORE PUSH1 0x24 PUSH1 0x0 REVERT JUMPDEST PUSH1 0x40 MLOAD PUSH3 0x461BCD PUSH1 0xE5 SHL DUP2 MSTORE PUSH1 0x20 PUSH1 0x4 DUP3 ADD MSTORE PUSH1 0x16 PUSH1 0x24 DUP3 ADD MSTORE PUSH22 0x155CD95C881A5CC81B9BDD081C9959DA5CDD195C9959 PUSH1 0x52 SHL PUSH1 0x44 DUP3 ADD MSTORE PUSH1 0x64 SWAP1 REVERT JUMPDEST PUSH1 0x0 DUP1 REVERT JUMPDEST CALLVALUE PUSH2 0x1A6 JUMPI PUSH1 0x80 CALLDATASIZE PUSH1 0x3 NOT ADD SLT PUSH2 0x1A6 JUMPI PUSH1 0x4 CALLDATALOAD PUSH1 0x1 PUSH1 0x1 PUSH1 0x40 SHL SUB DUP2 GT PUSH2 0x1A6 JUMPI PUSH2 0x1DB SWAP1 CALLDATASIZE SWAP1 PUSH1 0x4 ADD PUSH2 0xF5D JUMP JUMPDEST PUSH1 0x24 CALLDATALOAD PUSH1 0x1 PUSH1 0x1 PUSH1 0x40 SHL SUB DUP2 GT PUSH2 0x1A6 JUMPI PUSH2 0x1FA SWAP1 CALLDATASIZE SWAP1 PUSH1 0x4 ADD PUSH2 0xF5D JUMP JUMPDEST SWAP1 PUSH1 0x44 CALLDATALOAD PUSH1 0x1 PUSH1 0x1 PUSH1 0xA0 SHL SUB DUP2 AND SWAP2 SWAP1 DUP3 SWAP1 SUB PUSH2 0x1A6 JUMPI PUSH1 0x64 CALLDATALOAD SWAP2 PUSH1 0xFF DUP4 AND DUP1 SWAP4 SUB PUSH2 0x1A6 JUMPI PUSH1 0x40 PUSH1 0x0 DUP1 PUSH2 0x283 PUSH2 0x297 DUP5 MLOAD PUSH2 0x237 DUP7 DUP3 PUSH2 0xF3C JUMP JUMPDEST PUSH1 0x20 DUP2 MSTORE PUSH32 0x5265676973746572557365722066756E6374696F6E2063616C6C65642062793A PUSH1 0x20 DUP3 ADD MSTORE DUP6 MLOAD SWAP3 DUP4 SWAP2 PUSH4 0x319AF333 PUSH1 0xE0 SHL PUSH1 0x20 DUP5 ADD MSTORE DUP8 PUSH1 0x24 DUP5 ADD MSTORE PUSH1 0x64 DUP4 ADD SWAP1 PUSH2 0xFF9 JUMP JUMPDEST DUP8 PUSH1 0x44 DUP4 ADD MSTORE SUB PUSH1 0x1F NOT DUP2 ADD DUP4 MSTORE DUP3 PUSH2 0xF3C JUMP JUMPDEST PUSH1 0x20 DUP2 MLOAD SWAP2 ADD PUSH11 0x636F6E736F6C652E6C6F67 GAS STATICCALL POP PUSH1 0x0 DUP1 PUSH2 0x2FA PUSH2 0x30E DUP5 MLOAD PUSH2 0x2C1 DUP7 DUP3 PUSH2 0xF3C JUMP JUMPDEST PUSH1 0xA DUP2 MSTORE PUSH10 0x2AB9B2B9102937B6329D PUSH1 0xB1 SHL PUSH1 0x20 DUP3 ADD MSTORE DUP6 MLOAD SWAP3 DUP4 SWAP2 PUSH4 0x2D839CB3 PUSH1 0xE2 SHL PUSH1 0x20 DUP5 ADD MSTORE DUP8 PUSH1 0x24 DUP5 ADD MSTORE PUSH1 0x64 DUP4 ADD SWAP1 PUSH2 0xFF9 JUMP JUMPDEST DUP10 PUSH1 0x44 DUP4 ADD MSTORE SUB PUSH1 0x1F NOT DUP2 ADD DUP4 MSTORE DUP3 PUSH2 0xF3C JUMP JUMPDEST PUSH1 0x20 DUP2 MLOAD SWAP2 ADD PUSH11 0x636F6E736F6C652E6C6F67 GAS STATICCALL POP PUSH1 0x5 DUP5 LT ISZERO PUSH2 0x152 JUMPI DUP1 MLOAD SWAP5 PUSH2 0x338 DUP7 PUSH2 0xF21 JUMP JUMPDEST DUP4 DUP7 MSTORE PUSH1 0x20 DUP7 ADD SWAP1 DUP2 MSTORE DUP2 DUP7 ADD SWAP6 DUP4 DUP8 MSTORE PUSH1 0x60 DUP2 ADD SWAP2 PUSH2 0x358 DUP8 DUP5 PUSH2 0x1140 JUMP JUMPDEST DUP5 PUSH1 0x0 MSTORE PUSH1 0x1 PUSH1 0x20 MSTORE DUP4 PUSH1 0x0 KECCAK256 SWAP2 MLOAD DUP1 MLOAD SWAP1 PUSH1 0x1 PUSH1 0x1 PUSH1 0x40 SHL SUB DUP3 GT PUSH2 0x581 JUMPI DUP2 SWAP1 PUSH2 0x384 DUP6 SLOAD PUSH2 0x1083 JUMP JUMPDEST PUSH1 0x1F DUP2 GT PUSH2 0x607 JUMPI JUMPDEST POP PUSH1 0x20 SWAP1 PUSH1 0x1F DUP4 GT PUSH1 0x1 EQ PUSH2 0x5A2 JUMPI PUSH1 0x0 SWAP3 PUSH2 0x597 JUMPI JUMPDEST POP POP DUP2 PUSH1 0x1 SHL SWAP2 PUSH1 0x0 NOT SWAP1 PUSH1 0x3 SHL SHR NOT AND OR DUP3 SSTORE JUMPDEST MLOAD DUP1 MLOAD PUSH1 0x1 DUP4 ADD SWAP2 PUSH1 0x1 PUSH1 0x1 PUSH1 0x40 SHL SUB DUP3 GT PUSH2 0x581 JUMPI PUSH2 0x3D9 DUP4 SLOAD PUSH2 0x1083 JUMP JUMPDEST PUSH1 0x1F DUP2 GT PUSH2 0x539 JUMPI JUMPDEST POP PUSH1 0x20 SWAP1 PUSH1 0x1F DUP4 GT PUSH1 0x1 EQ PUSH2 0x4CE JUMPI PUSH1 0x2 SWAP5 SWAP4 SWAP3 SWAP2 PUSH1 0x0 SWAP2 DUP4 PUSH2 0x4C3 JUMPI JUMPDEST POP POP DUP2 PUSH1 0x1 SHL SWAP2 PUSH1 0x0 NOT SWAP1 PUSH1 0x3 SHL SHR NOT AND OR SWAP1 SSTORE JUMPDEST SWAP7 MLOAD SWAP7 ADD DUP1 SLOAD PUSH1 0x1 PUSH1 0x1 PUSH1 0xA0 SHL SUB NOT AND PUSH1 0x1 PUSH1 0x1 PUSH1 0xA0 SHL SUB SWAP8 SWAP1 SWAP8 AND SWAP7 SWAP1 SWAP7 OR DUP7 SSTORE MLOAD SWAP5 PUSH1 0x5 DUP7 LT ISZERO PUSH2 0x152 JUMPI PUSH32 0xA4B4A4F9197EB52B65944F57348759EA717338F8A8F998A585D243350C2BABB4 SWAP5 PUSH2 0x4BD SWAP2 PUSH1 0x0 SWAP8 DUP2 SLOAD SWAP1 PUSH1 0xFF PUSH1 0xA0 SHL SWAP1 PUSH1 0xA0 SHL AND SWAP1 PUSH1 0xFF PUSH1 0xA0 SHL NOT AND OR SWAP1 SSTORE DUP4 DUP8 MSTORE PUSH1 0x3 PUSH1 0x20 MSTORE DUP3 DUP8 KECCAK256 PUSH1 0x1 PUSH1 0xFF NOT DUP3 SLOAD AND OR SWAP1 SSTORE PUSH2 0x4B4 DUP4 MLOAD SWAP6 DUP7 SWAP6 DUP7 MSTORE PUSH1 0x60 PUSH1 0x20 DUP8 ADD MSTORE PUSH1 0x60 DUP7 ADD SWAP1 PUSH2 0xFF9 JUMP JUMPDEST SWAP3 DUP5 ADD SWAP1 PUSH2 0xFC9 JUMP JUMPDEST SUB SWAP1 LOG1 DUP1 RETURN JUMPDEST ADD MLOAD SWAP1 POP DUP12 DUP1 PUSH2 0x400 JUMP JUMPDEST SWAP1 PUSH1 0x1F NOT DUP4 AND SWAP2 DUP5 PUSH1 0x0 MSTORE DUP2 PUSH1 0x0 KECCAK256 SWAP3 PUSH1 0x0 JUMPDEST DUP2 DUP2 LT PUSH2 0x521 JUMPI POP SWAP2 PUSH1 0x1 SWAP4 SWAP2 DUP6 PUSH1 0x2 SWAP9 SWAP8 SWAP7 SWAP5 LT PUSH2 0x508 JUMPI JUMPDEST POP POP POP DUP2 SHL ADD SWAP1 SSTORE PUSH2 0x415 JUMP JUMPDEST ADD MLOAD PUSH1 0x0 NOT PUSH1 0xF8 DUP5 PUSH1 0x3 SHL AND SHR NOT AND SWAP1 SSTORE DUP12 DUP1 DUP1 PUSH2 0x4FB JUMP JUMPDEST SWAP3 SWAP4 PUSH1 0x20 PUSH1 0x1 DUP2 SWAP3 DUP8 DUP7 ADD MLOAD DUP2 SSTORE ADD SWAP6 ADD SWAP4 ADD PUSH2 0x4E1 JUMP JUMPDEST DUP4 PUSH1 0x0 MSTORE PUSH1 0x20 PUSH1 0x0 KECCAK256 PUSH1 0x1F DUP5 ADD PUSH1 0x5 SHR DUP2 ADD SWAP2 PUSH1 0x20 DUP6 LT PUSH2 0x577 JUMPI JUMPDEST PUSH1 0x1F ADD PUSH1 0x5 SHR ADD SWAP1 JUMPDEST DUP2 DUP2 LT PUSH2 0x56B JUMPI POP PUSH2 0x3E2 JUMP JUMPDEST PUSH1 0x0 DUP2 SSTORE PUSH1 0x1 ADD PUSH2 0x55E JUMP JUMPDEST SWAP1 SWAP2 POP DUP2 SWAP1 PUSH2 0x555 JUMP JUMPDEST PUSH4 0x4E487B71 PUSH1 0xE0 SHL PUSH1 0x0 MSTORE PUSH1 0x41 PUSH1 0x4 MSTORE PUSH1 0x24 PUSH1 0x0 REVERT JUMPDEST ADD MLOAD SWAP1 POP DUP11 DUP1 PUSH2 0x3A4 JUMP JUMPDEST PUSH1 0x0 DUP7 DUP2 MSTORE DUP3 DUP2 KECCAK256 SWAP4 POP PUSH1 0x1F NOT DUP6 AND SWAP1 JUMPDEST DUP2 DUP2 LT PUSH2 0x5EF JUMPI POP SWAP1 DUP5 PUSH1 0x1 SWAP6 SWAP5 SWAP4 SWAP3 LT PUSH2 0x5D6 JUMPI JUMPDEST POP POP POP DUP2 SHL ADD DUP3 SSTORE PUSH2 0x3B9 JUMP JUMPDEST ADD MLOAD PUSH1 0x0 NOT PUSH1 0xF8 DUP5 PUSH1 0x3 SHL AND SHR NOT AND SWAP1 SSTORE DUP11 DUP1 DUP1 PUSH2 0x5C9 JUMP JUMPDEST SWAP3 SWAP4 PUSH1 0x20 PUSH1 0x1 DUP2 SWAP3 DUP8 DUP7 ADD MLOAD DUP2 SSTORE ADD SWAP6 ADD SWAP4 ADD PUSH2 0x5B3 JUMP JUMPDEST SWAP1 SWAP2 POP DUP5 PUSH1 0x0 MSTORE PUSH1 0x20 PUSH1 0x0 KECCAK256 PUSH1 0x1F DUP5 ADD PUSH1 0x5 SHR DUP2 ADD SWAP2 PUSH1 0x20 DUP6 LT PUSH2 0x650 JUMPI JUMPDEST SWAP1 PUSH1 0x1F DUP6 SWAP5 SWAP4 SWAP3 ADD PUSH1 0x5 SHR ADD SWAP1 JUMPDEST DUP2 DUP2 LT PUSH2 0x641 JUMPI POP PUSH2 0x38D JUMP JUMPDEST PUSH1 0x0 DUP2 SSTORE DUP5 SWAP4 POP PUSH1 0x1 ADD PUSH2 0x634 JUMP JUMPDEST SWAP1 SWAP2 POP DUP2 SWAP1 PUSH2 0x626 JUMP JUMPDEST CALLVALUE PUSH2 0x1A6 JUMPI PUSH1 0x0 CALLDATASIZE PUSH1 0x3 NOT ADD SLT PUSH2 0x1A6 JUMPI PUSH1 0x0 SLOAD PUSH1 0x40 MLOAD PUSH1 0x1 PUSH1 0x1 PUSH1 0xA0 SHL SUB SWAP1 SWAP2 AND DUP2 MSTORE PUSH1 0x20 SWAP1 RETURN JUMPDEST CALLVALUE PUSH2 0x1A6 JUMPI PUSH1 0x20 CALLDATASIZE PUSH1 0x3 NOT ADD SLT PUSH2 0x1A6 JUMPI PUSH1 0x1 PUSH1 0x1 PUSH1 0xA0 SHL SUB PUSH2 0x6A4 PUSH2 0xFB3 JUMP JUMPDEST AND PUSH1 0x0 MSTORE PUSH1 0x2 PUSH1 0x20 MSTORE PUSH1 0x20 PUSH1 0xFF PUSH1 0x40 PUSH1 0x0 KECCAK256 SLOAD AND PUSH2 0x6C5 PUSH1 0x40 MLOAD DUP1 SWAP3 PUSH2 0xFC9 JUMP JUMPDEST RETURN JUMPDEST CALLVALUE PUSH2 0x1A6 JUMPI PUSH1 0x40 CALLDATASIZE PUSH1 0x3 NOT ADD SLT PUSH2 0x1A6 JUMPI PUSH1 0x4 CALLDATALOAD PUSH1 0x1 PUSH1 0x1 PUSH1 0x40 SHL SUB DUP2 GT PUSH2 0x1A6 JUMPI PUSH2 0x6F7 SWAP1 CALLDATASIZE SWAP1 PUSH1 0x4 ADD PUSH2 0xF5D JUMP JUMPDEST PUSH1 0x24 CALLDATALOAD PUSH1 0x1 PUSH1 0x1 PUSH1 0x40 SHL SUB DUP2 GT PUSH2 0x1A6 JUMPI PUSH2 0x716 SWAP1 CALLDATASIZE SWAP1 PUSH1 0x4 ADD PUSH2 0xF5D JUMP JUMPDEST SWAP1 CALLER PUSH1 0x0 MSTORE PUSH1 0x2 PUSH1 0x20 MSTORE PUSH1 0xFF PUSH1 0x40 PUSH1 0x0 KECCAK256 SLOAD AND PUSH1 0x5 DUP2 LT ISZERO PUSH2 0x152 JUMPI PUSH2 0x757 SWAP2 PUSH2 0x744 PUSH1 0x2 PUSH1 0x20 SWAP4 EQ PUSH2 0x101E JUMP JUMPDEST DUP2 PUSH1 0x40 MLOAD SWAP4 DUP3 DUP6 DUP1 SWAP5 MLOAD SWAP4 DUP5 SWAP3 ADD PUSH2 0xFD6 JUMP JUMPDEST DUP2 ADD PUSH1 0x4 DUP2 MSTORE SUB ADD SWAP1 KECCAK256 PUSH1 0x3 DUP2 ADD PUSH1 0xFF DUP2 SLOAD PUSH1 0x8 SHR AND PUSH1 0x2 DUP2 LT ISZERO PUSH2 0x152 JUMPI PUSH2 0x923 JUMPI DUP1 SLOAD PUSH2 0xFF00 NOT AND PUSH2 0x100 OR SWAP1 SSTORE DUP2 MLOAD SWAP2 PUSH1 0x6 DUP3 ADD PUSH1 0x1 PUSH1 0x1 PUSH1 0x40 SHL SUB DUP5 GT PUSH2 0x581 JUMPI PUSH2 0x7A6 DUP2 SLOAD PUSH2 0x1083 JUMP JUMPDEST PUSH1 0x1F DUP2 GT PUSH2 0x8DB JUMPI JUMPDEST POP PUSH1 0x20 SWAP4 PUSH1 0x1F DUP2 GT PUSH1 0x1 EQ PUSH2 0x84E JUMPI SWAP2 PUSH2 0x838 SWAP2 DUP4 PUSH2 0x82A SWAP6 SWAP5 PUSH32 0xBF2A1BD20ABD851E14D5DD0A42BF8C003BF454A17688A93BC60FA324013F2B08 SWAP8 PUSH1 0x0 SWAP2 PUSH2 0x843 JUMPI JUMPDEST POP DUP2 PUSH1 0x1 SHL SWAP2 PUSH1 0x0 NOT SWAP1 PUSH1 0x3 SHL SHR NOT AND OR SWAP1 SSTORE JUMPDEST TIMESTAMP PUSH1 0x5 DUP5 ADD SSTORE PUSH1 0x40 MLOAD SWAP4 DUP5 SWAP4 CALLER DUP6 MSTORE PUSH1 0x80 PUSH1 0x20 DUP7 ADD MSTORE PUSH1 0x2 PUSH1 0x80 DUP7 ADD SWAP2 ADD PUSH2 0x10BD JUMP JUMPDEST SWAP1 DUP4 DUP3 SUB PUSH1 0x40 DUP6 ADD MSTORE PUSH2 0xFF9 JUMP JUMPDEST TIMESTAMP PUSH1 0x60 DUP4 ADD MSTORE SUB SWAP1 LOG1 STOP JUMPDEST SWAP1 POP DUP4 ADD MLOAD DUP9 PUSH2 0x7F3 JUMP JUMPDEST PUSH1 0x1F NOT DUP2 AND DUP3 PUSH1 0x0 MSTORE DUP6 PUSH1 0x0 KECCAK256 SWAP1 PUSH1 0x0 JUMPDEST DUP2 DUP2 LT PUSH2 0x8C3 JUMPI POP DUP3 PUSH2 0x838 SWAP5 SWAP3 PUSH32 0xBF2A1BD20ABD851E14D5DD0A42BF8C003BF454A17688A93BC60FA324013F2B08 SWAP9 PUSH2 0x82A SWAP9 SWAP8 SWAP6 PUSH1 0x1 SWAP5 LT PUSH2 0x8AA JUMPI JUMPDEST POP POP DUP2 SHL ADD SWAP1 SSTORE PUSH2 0x807 JUMP JUMPDEST DUP6 ADD MLOAD PUSH1 0x0 NOT PUSH1 0xF8 DUP5 PUSH1 0x3 SHL AND SHR NOT AND SWAP1 SSTORE DUP9 DUP1 PUSH2 0x89E JUMP JUMPDEST DUP6 DUP9 ADD MLOAD DUP4 SSTORE PUSH1 0x20 SWAP8 DUP9 ADD SWAP8 PUSH1 0x1 SWAP1 SWAP4 ADD SWAP3 ADD PUSH2 0x85F JUMP JUMPDEST DUP2 PUSH1 0x0 MSTORE PUSH1 0x20 PUSH1 0x0 KECCAK256 PUSH1 0x1F DUP7 ADD PUSH1 0x5 SHR DUP2 ADD SWAP2 PUSH1 0x20 DUP8 LT PUSH2 0x919 JUMPI JUMPDEST PUSH1 0x1F ADD PUSH1 0x5 SHR ADD SWAP1 JUMPDEST DUP2 DUP2 LT PUSH2 0x90D JUMPI POP PUSH2 0x7AF JUMP JUMPDEST PUSH1 0x0 DUP2 SSTORE PUSH1 0x1 ADD PUSH2 0x900 JUMP JUMPDEST SWAP1 SWAP2 POP DUP2 SWAP1 PUSH2 0x8F7 JUMP JUMPDEST PUSH1 0x40 MLOAD PUSH3 0x461BCD PUSH1 0xE5 SHL DUP2 MSTORE PUSH1 0x20 PUSH1 0x4 DUP3 ADD MSTORE PUSH1 0x1D PUSH1 0x24 DUP3 ADD MSTORE PUSH32 0x43504F544220737461747573206D7573742062652070656E64696E6721000000 PUSH1 0x44 DUP3 ADD MSTORE PUSH1 0x64 SWAP1 REVERT JUMPDEST CALLVALUE PUSH2 0x1A6 JUMPI PUSH1 0x60 CALLDATASIZE PUSH1 0x3 NOT ADD SLT PUSH2 0x1A6 JUMPI PUSH1 0x4 CALLDATALOAD PUSH1 0x1 PUSH1 0x1 PUSH1 0x40 SHL SUB DUP2 GT PUSH2 0x1A6 JUMPI PUSH2 0x998 SWAP1 CALLDATASIZE SWAP1 PUSH1 0x4 ADD PUSH2 0xF5D JUMP JUMPDEST PUSH1 0x24 CALLDATALOAD PUSH1 0x1 PUSH1 0x1 PUSH1 0x40 SHL SUB DUP2 GT PUSH2 0x1A6 JUMPI PUSH2 0x9B7 SWAP1 CALLDATASIZE SWAP1 PUSH1 0x4 ADD PUSH2 0xF5D JUMP JUMPDEST SWAP1 PUSH1 0x4 PUSH1 0x44 CALLDATALOAD LT ISZERO PUSH2 0x1A6 JUMPI CALLER PUSH1 0x0 MSTORE PUSH1 0x2 PUSH1 0x20 MSTORE PUSH1 0xFF PUSH1 0x40 PUSH1 0x0 KECCAK256 SLOAD AND PUSH1 0x5 DUP2 LT ISZERO PUSH2 0x152 JUMPI PUSH2 0x9E8 SWAP1 ISZERO PUSH2 0x101E JUMP JUMPDEST PUSH1 0x40 MLOAD SWAP2 PUSH2 0x120 DUP4 ADD DUP4 DUP2 LT PUSH1 0x1 PUSH1 0x1 PUSH1 0x40 SHL SUB DUP3 GT OR PUSH2 0x581 JUMPI PUSH1 0x40 MSTORE DUP1 DUP4 MSTORE CALLER PUSH1 0x20 DUP5 ADD MSTORE DUP2 PUSH1 0x40 DUP5 ADD MSTORE PUSH1 0x0 SWAP2 PUSH1 0x44 CALLDATALOAD PUSH1 0x60 DUP6 ADD MSTORE DUP3 PUSH1 0x80 DUP6 ADD MSTORE TIMESTAMP PUSH1 0xA0 DUP6 ADD MSTORE DUP3 PUSH1 0xC0 DUP6 ADD MSTORE PUSH1 0x20 SWAP4 PUSH1 0x40 MLOAD PUSH2 0xA42 DUP7 DUP3 PUSH2 0xF3C JUMP JUMPDEST DUP5 DUP2 MSTORE PUSH1 0xE0 DUP3 ADD MSTORE DUP4 PUSH2 0x100 DUP3 ADD MSTORE PUSH1 0x40 MLOAD DUP6 DUP2 DUP6 MLOAD PUSH2 0xA65 DUP2 DUP4 DUP6 DUP11 ADD PUSH2 0xFD6 JUMP JUMPDEST DUP2 ADD PUSH1 0x4 DUP2 MSTORE SUB ADD SWAP1 KECCAK256 SWAP1 DUP1 MLOAD DUP1 MLOAD SWAP1 PUSH1 0x1 PUSH1 0x1 PUSH1 0x40 SHL SUB DUP3 GT PUSH2 0xE54 JUMPI DUP2 SWAP1 PUSH2 0xA8F DUP6 SLOAD PUSH2 0x1083 JUMP JUMPDEST PUSH1 0x1F DUP2 GT PUSH2 0xED6 JUMPI JUMPDEST POP DUP9 SWAP1 PUSH1 0x1F DUP4 GT PUSH1 0x1 EQ PUSH2 0xE73 JUMPI DUP9 SWAP3 PUSH2 0xE68 JUMPI JUMPDEST POP POP DUP2 PUSH1 0x1 SHL SWAP2 PUSH1 0x0 NOT SWAP1 PUSH1 0x3 SHL SHR NOT AND OR DUP3 SSTORE JUMPDEST PUSH1 0x20 DUP2 ADD MLOAD PUSH1 0x1 DUP4 ADD DUP1 SLOAD PUSH1 0x1 PUSH1 0x1 PUSH1 0xA0 SHL SUB NOT AND PUSH1 0x1 PUSH1 0x1 PUSH1 0xA0 SHL SUB SWAP3 SWAP1 SWAP3 AND SWAP2 SWAP1 SWAP2 OR SWAP1 SSTORE PUSH1 0x40 DUP2 ADD MLOAD DUP1 MLOAD SWAP1 PUSH1 0x1 PUSH1 0x1 PUSH1 0x40 SHL SUB DUP3 GT PUSH2 0xE54 JUMPI DUP2 SWAP1 PUSH2 0xB0E PUSH1 0x2 DUP7 ADD SLOAD PUSH2 0x1083 JUMP JUMPDEST PUSH1 0x1F DUP2 GT PUSH2 0xE06 JUMPI JUMPDEST POP DUP9 SWAP1 PUSH1 0x1F DUP4 GT PUSH1 0x1 EQ PUSH2 0xD9D JUMPI DUP9 SWAP3 PUSH2 0xD92 JUMPI JUMPDEST POP POP DUP2 PUSH1 0x1 SHL SWAP2 PUSH1 0x0 NOT SWAP1 PUSH1 0x3 SHL SHR NOT AND OR PUSH1 0x2 DUP4 ADD SSTORE JUMPDEST PUSH1 0x3 DUP3 ADD PUSH1 0x60 DUP3 ADD MLOAD PUSH1 0x4 DUP2 LT ISZERO PUSH2 0xD7E JUMPI PUSH1 0xFF DUP1 NOT DUP4 SLOAD AND SWAP2 AND OR DUP2 SSTORE PUSH1 0x80 DUP3 ADD MLOAD PUSH1 0x2 DUP2 LT ISZERO PUSH2 0xD7E JUMPI PUSH2 0xFF00 DUP3 SLOAD SWAP2 PUSH1 0x8 SHL AND SWAP1 PUSH2 0xFF00 NOT AND OR SWAP1 SSTORE PUSH1 0xA0 DUP2 ADD MLOAD PUSH1 0x4 DUP4 ADD SSTORE PUSH1 0xC0 DUP2 ADD MLOAD PUSH1 0x5 DUP4 ADD SSTORE PUSH1 0x6 DUP3 ADD PUSH1 0xE0 DUP3 ADD MLOAD DUP1 MLOAD SWAP1 PUSH1 0x1 PUSH1 0x1 PUSH1 0x40 SHL SUB DUP3 GT PUSH2 0xD6A JUMPI PUSH2 0xBBB DUP4 SLOAD PUSH2 0x1083 JUMP JUMPDEST PUSH1 0x1F DUP2 GT PUSH2 0xD27 JUMPI JUMPDEST POP DUP9 SWAP1 PUSH1 0x1F DUP4 GT PUSH1 0x1 EQ PUSH2 0xC93 JUMPI PUSH32 0xB1F81A7D9B3451870EEFFC1D43BE8CCE346B7E5D1A1C11F7AB085D8E8D550702 SWAP10 SWAP8 SWAP5 PUSH2 0xC66 SWAP5 DUP5 PUSH2 0xC7D SWAP10 SWAP6 DUP13 SWAP10 SWAP6 PUSH1 0x7 SWAP6 PUSH1 0xA0 SWAP15 SWAP3 PUSH2 0xC88 JUMPI JUMPDEST POP POP DUP2 PUSH1 0x1 SHL SWAP2 PUSH1 0x0 NOT SWAP1 PUSH1 0x3 SHL SHR NOT AND OR SWAP1 SSTORE JUMPDEST PUSH2 0x100 PUSH1 0x1 DUP1 DUP13 SHL SUB SWAP2 ADD MLOAD AND SWAP2 ADD SWAP1 PUSH1 0x1 DUP1 DUP11 SHL SUB AND PUSH12 0xFFFFFFFFFFFFFFFFFFFFFFFF DUP10 SHL DUP3 SLOAD AND OR SWAP1 SSTORE PUSH1 0x40 MLOAD SWAP7 DUP8 SWAP7 CALLER DUP9 MSTORE DUP8 ADD MSTORE PUSH1 0xA0 DUP7 ADD SWAP1 PUSH2 0xFF9 JUMP JUMPDEST SWAP2 POP PUSH1 0x44 CALLDATALOAD PUSH1 0x40 DUP6 ADD MSTORE DUP4 DUP3 SUB PUSH1 0x60 DUP6 ADD MSTORE PUSH2 0xFF9 JUMP JUMPDEST TIMESTAMP PUSH1 0x80 DUP4 ADD MSTORE SUB SWAP1 LOG1 STOP JUMPDEST ADD MLOAD SWAP1 POP DUP15 DUP1 PUSH2 0xC0F JUMP JUMPDEST DUP4 DUP10 MSTORE DUP10 DUP10 KECCAK256 SWAP2 SWAP1 PUSH1 0x1F NOT DUP5 AND DUP11 JUMPDEST DUP2 DUP2 LT PUSH2 0xD10 JUMPI POP SWAP5 PUSH1 0x1 DUP6 PUSH1 0xA0 SWAP13 SWAP10 SWAP6 PUSH1 0x7 SWAP6 PUSH32 0xB1F81A7D9B3451870EEFFC1D43BE8CCE346B7E5D1A1C11F7AB085D8E8D550702 SWAP16 SWAP14 SWAP11 SWAP6 PUSH2 0xC7D SWAP14 SWAP10 PUSH2 0xC66 SWAP12 LT PUSH2 0xCF7 JUMPI JUMPDEST POP POP POP DUP2 SHL ADD SWAP1 SSTORE PUSH2 0xC24 JUMP JUMPDEST ADD MLOAD PUSH1 0x0 NOT PUSH1 0xF8 DUP5 PUSH1 0x3 SHL AND SHR NOT AND SWAP1 SSTORE DUP15 DUP1 DUP1 PUSH2 0xCEA JUMP JUMPDEST SWAP3 SWAP4 DUP13 PUSH1 0x1 DUP2 SWAP3 DUP8 DUP7 ADD MLOAD DUP2 SSTORE ADD SWAP6 ADD SWAP4 ADD PUSH2 0xCA2 JUMP JUMPDEST DUP4 DUP10 MSTORE DUP10 DUP10 KECCAK256 PUSH1 0x1F DUP5 ADD PUSH1 0x5 SHR DUP2 ADD SWAP2 DUP12 DUP6 LT PUSH2 0xD60 JUMPI JUMPDEST PUSH1 0x1F ADD PUSH1 0x5 SHR ADD SWAP1 JUMPDEST DUP2 DUP2 LT PUSH2 0xD55 JUMPI POP PUSH2 0xBC4 JUMP JUMPDEST DUP10 DUP2 SSTORE PUSH1 0x1 ADD PUSH2 0xD48 JUMP JUMPDEST SWAP1 SWAP2 POP DUP2 SWAP1 PUSH2 0xD3F JUMP JUMPDEST PUSH4 0x4E487B71 PUSH1 0xE0 SHL DUP9 MSTORE PUSH1 0x41 PUSH1 0x4 MSTORE PUSH1 0x24 DUP9 REVERT JUMPDEST PUSH4 0x4E487B71 PUSH1 0xE0 SHL DUP8 MSTORE PUSH1 0x21 PUSH1 0x4 MSTORE PUSH1 0x24 DUP8 REVERT JUMPDEST ADD MLOAD SWAP1 POP DUP9 DUP1 PUSH2 0xB2C JUMP JUMPDEST PUSH1 0x2 DUP7 ADD DUP10 MSTORE DUP10 DUP10 KECCAK256 SWAP3 POP PUSH1 0x1F NOT DUP5 AND DUP10 JUMPDEST DUP12 DUP3 DUP3 LT PUSH2 0xDF0 JUMPI POP POP SWAP1 DUP5 PUSH1 0x1 SWAP6 SWAP5 SWAP4 SWAP3 LT PUSH2 0xDD7 JUMPI JUMPDEST POP POP POP DUP2 SHL ADD PUSH1 0x2 DUP4 ADD SSTORE PUSH2 0xB44 JUMP JUMPDEST ADD MLOAD PUSH1 0x0 NOT PUSH1 0xF8 DUP5 PUSH1 0x3 SHL AND SHR NOT AND SWAP1 SSTORE DUP9 DUP1 DUP1 PUSH2 0xDC7 JUMP JUMPDEST PUSH1 0x1 DUP6 SWAP7 DUP3 SWAP4 SWAP7 DUP7 ADD MLOAD DUP2 SSTORE ADD SWAP6 ADD SWAP4 ADD PUSH2 0xDAF JUMP JUMPDEST SWAP1 SWAP2 POP PUSH1 0x2 DUP6 ADD DUP9 MSTORE DUP9 DUP9 KECCAK256 PUSH1 0x1F DUP5 ADD PUSH1 0x5 SHR DUP2 ADD DUP11 DUP6 LT PUSH2 0xE4D JUMPI JUMPDEST SWAP1 DUP5 SWAP4 SWAP3 SWAP2 JUMPDEST PUSH1 0x1F DUP4 ADD PUSH1 0x5 SHR DUP3 ADD DUP2 LT PUSH2 0xE3F JUMPI POP POP PUSH2 0xB17 JUMP JUMPDEST DUP11 DUP2 SSTORE DUP6 SWAP5 POP PUSH1 0x1 ADD PUSH2 0xE29 JUMP JUMPDEST POP DUP1 PUSH2 0xE23 JUMP JUMPDEST PUSH4 0x4E487B71 PUSH1 0xE0 SHL DUP8 MSTORE PUSH1 0x41 PUSH1 0x4 MSTORE PUSH1 0x24 DUP8 REVERT JUMPDEST ADD MLOAD SWAP1 POP DUP9 DUP1 PUSH2 0xAAD JUMP JUMPDEST DUP6 DUP10 MSTORE DUP10 DUP10 KECCAK256 SWAP3 POP PUSH1 0x1F NOT DUP5 AND DUP10 JUMPDEST DUP12 DUP3 DUP3 LT PUSH2 0xEC0 JUMPI POP POP SWAP1 DUP5 PUSH1 0x1 SWAP6 SWAP5 SWAP4 SWAP3 LT PUSH2 0xEA7 JUMPI JUMPDEST POP POP POP DUP2 SHL ADD DUP3 SSTORE PUSH2 0xAC2 JUMP JUMPDEST ADD MLOAD PUSH1 0x0 NOT PUSH1 0xF8 DUP5 PUSH1 0x3 SHL AND SHR NOT AND SWAP1 SSTORE DUP9 DUP1 DUP1 PUSH2 0xE9A JUMP JUMPDEST PUSH1 0x1 DUP6 SWAP7 DUP3 SWAP4 SWAP7 DUP7 ADD MLOAD DUP2 SSTORE ADD SWAP6 ADD SWAP4 ADD PUSH2 0xE82 JUMP JUMPDEST SWAP1 SWAP2 POP DUP5 DUP9 MSTORE DUP9 DUP9 KECCAK256 PUSH1 0x1F DUP5 ADD PUSH1 0x5 SHR DUP2 ADD DUP11 DUP6 LT PUSH2 0xF1A JUMPI JUMPDEST SWAP1 DUP5 SWAP4 SWAP3 SWAP2 JUMPDEST PUSH1 0x1F DUP4 ADD PUSH1 0x5 SHR DUP3 ADD DUP2 LT PUSH2 0xF0C JUMPI POP POP PUSH2 0xA98 JUMP JUMPDEST DUP11 DUP2 SSTORE DUP6 SWAP5 POP PUSH1 0x1 ADD PUSH2 0xEF6 JUMP JUMPDEST POP DUP1 PUSH2 0xEF0 JUMP JUMPDEST PUSH1 0x80 DUP2 ADD SWAP1 DUP2 LT PUSH1 0x1 PUSH1 0x1 PUSH1 0x40 SHL SUB DUP3 GT OR PUSH2 0x581 JUMPI PUSH1 0x40 MSTORE JUMP JUMPDEST SWAP1 PUSH1 0x1F DUP1 NOT SWAP2 ADD AND DUP2 ADD SWAP1 DUP2 LT PUSH1 0x1 PUSH1 0x1 PUSH1 0x40 SHL SUB DUP3 GT OR PUSH2 0x581 JUMPI PUSH1 0x40 MSTORE JUMP JUMPDEST DUP2 PUSH1 0x1F DUP3 ADD SLT ISZERO PUSH2 0x1A6 JUMPI DUP1 CALLDATALOAD SWAP1 PUSH1 0x1 PUSH1 0x1 PUSH1 0x40 SHL SUB DUP3 GT PUSH2 0x581 JUMPI PUSH1 0x40 MLOAD SWAP3 PUSH2 0xF91 PUSH1 0x1F DUP5 ADD PUSH1 0x1F NOT AND PUSH1 0x20 ADD DUP6 PUSH2 0xF3C JUMP JUMPDEST DUP3 DUP5 MSTORE PUSH1 0x20 DUP4 DUP4 ADD ADD GT PUSH2 0x1A6 JUMPI DUP2 PUSH1 0x0 SWAP3 PUSH1 0x20 DUP1 SWAP4 ADD DUP4 DUP7 ADD CALLDATACOPY DUP4 ADD ADD MSTORE SWAP1 JUMP JUMPDEST PUSH1 0x4 CALLDATALOAD SWAP1 PUSH1 0x1 PUSH1 0x1 PUSH1 0xA0 SHL SUB DUP3 AND DUP3 SUB PUSH2 0x1A6 JUMPI JUMP JUMPDEST SWAP1 PUSH1 0x5 DUP3 LT ISZERO PUSH2 0x152 JUMPI MSTORE JUMP JUMPDEST PUSH1 0x0 JUMPDEST DUP4 DUP2 LT PUSH2 0xFE9 JUMPI POP POP PUSH1 0x0 SWAP2 ADD MSTORE JUMP JUMPDEST DUP2 DUP2 ADD MLOAD DUP4 DUP3 ADD MSTORE PUSH1 0x20 ADD PUSH2 0xFD9 JUMP JUMPDEST SWAP1 PUSH1 0x20 SWAP2 PUSH2 0x1012 DUP2 MLOAD DUP1 SWAP3 DUP2 DUP6 MSTORE DUP6 DUP1 DUP7 ADD SWAP2 ADD PUSH2 0xFD6 JUMP JUMPDEST PUSH1 0x1F ADD PUSH1 0x1F NOT AND ADD ADD SWAP1 JUMP JUMPDEST ISZERO PUSH2 0x1025 JUMPI JUMP JUMPDEST PUSH1 0x40 MLOAD PUSH3 0x461BCD PUSH1 0xE5 SHL DUP2 MSTORE PUSH1 0x20 PUSH1 0x4 DUP3 ADD MSTORE PUSH1 0x30 PUSH1 0x24 DUP3 ADD MSTORE PUSH32 0x536F7272792C20796F7520646F6E2774206861766520617574686F72697A6564 PUSH1 0x44 DUP3 ADD MSTORE PUSH16 0x20746F20616363657373207468697321 PUSH1 0x80 SHL PUSH1 0x64 DUP3 ADD MSTORE PUSH1 0x84 SWAP1 REVERT JUMPDEST SWAP1 PUSH1 0x1 DUP3 DUP2 SHR SWAP3 AND DUP1 ISZERO PUSH2 0x10B3 JUMPI JUMPDEST PUSH1 0x20 DUP4 LT EQ PUSH2 0x109D JUMPI JUMP JUMPDEST PUSH4 0x4E487B71 PUSH1 0xE0 SHL PUSH1 0x0 MSTORE PUSH1 0x22 PUSH1 0x4 MSTORE PUSH1 0x24 PUSH1 0x0 REVERT JUMPDEST SWAP2 PUSH1 0x7F AND SWAP2 PUSH2 0x1092 JUMP JUMPDEST PUSH1 0x0 SWAP3 SWAP2 DUP2 SLOAD SWAP2 PUSH2 0x10CD DUP4 PUSH2 0x1083 JUMP JUMPDEST DUP1 DUP4 MSTORE SWAP3 PUSH1 0x1 DUP2 AND SWAP1 DUP2 ISZERO PUSH2 0x1123 JUMPI POP PUSH1 0x1 EQ PUSH2 0x10E9 JUMPI POP POP POP JUMP JUMPDEST PUSH1 0x0 SWAP1 DUP2 MSTORE PUSH1 0x20 DUP2 KECCAK256 SWAP4 SWAP5 POP SWAP2 SWAP3 JUMPDEST DUP4 DUP4 LT PUSH2 0x1109 JUMPI POP PUSH1 0x20 SWAP3 POP ADD ADD SWAP1 JUMP JUMPDEST PUSH1 0x1 DUP2 PUSH1 0x20 SWAP3 SWAP5 SWAP4 SWAP5 SLOAD DUP4 DUP6 DUP8 ADD ADD MSTORE ADD SWAP2 ADD SWAP2 SWAP1 PUSH2 0x10F8 JUMP JUMPDEST SWAP2 POP POP PUSH1 0x20 SWAP4 SWAP5 POP PUSH1 0xFF SWAP3 SWAP2 SWAP3 NOT AND DUP4 DUP4 ADD MSTORE ISZERO ISZERO PUSH1 0x5 SHL ADD ADD SWAP1 JUMP JUMPDEST PUSH1 0x5 DUP3 LT ISZERO PUSH2 0x152 JUMPI MSTORE JUMP INVALID LOG2 PUSH5 0x6970667358 0x22 SLT KECCAK256 CALLVALUE PUSH17 0xB02420A62B9D7BCE1C58EA2964528F8C14 PUSH16 0xA68425DB7C756702DB8C9BA264736F6C PUSH4 0x4300081B STOP CALLER "},"methodIdentifiers":{"approveCpotb(string,string)":"26bfeb92","getRegisteredUser(address)":"e54a29bb","owner()":"8da5cb5b","registerUser(string,string,address,uint8)":"d1233672","requestCpotb(string,string,uint8)":"073f2554","userRoles(address)":"74d5e100"}}}}}