{"contracts/ObatCreator.sol":{"ObatCreator":{"abi":[{"inputs":[{"internalType":"string","name":"_obatId","type":"string"},{"internalType":"string","name":"_namaProduk","type":"string"},{"internalType":"string","name":"_batchName","type":"string"},{"internalType":"uint8","name":"_obatQuantity","type":"uint8"},{"internalType":"string[]","name":"_obatIpfsHash","type":"string[]"},{"internalType":"string","name":"_factoryInstance","type":"string"}],"name":"addBatchProduction","outputs":[],"stateMutability":"nonpayable","type":"function"},{"inputs":[{"internalType":"string","name":"_obatId","type":"string"}],"name":"getObatDetail","outputs":[{"components":[{"internalType":"string","name":"merk","type":"string"},{"internalType":"string","name":"namaProduk","type":"string"},{"internalType":"string[]","name":"klaim","type":"string[]"},{"internalType":"string[]","name":"komposisi","type":"string[]"},{"internalType":"string","name":"kemasan","type":"string"},{"internalType":"enum EnumsLibrary.TipeProduk","name":"tipeProduk","type":"uint8"},{"internalType":"string","name":"factoryInstance","type":"string"},{"internalType":"address","name":"factoryAddr","type":"address"}],"internalType":"struct ObatCreator.st_obatDetails","name":"","type":"tuple"}],"stateMutability":"view","type":"function"},{"inputs":[{"internalType":"string","name":"_obatId","type":"string"}],"name":"getObatProduction","outputs":[{"components":[{"internalType":"enum EnumsLibrary.ObatAvailability","name":"statusStok","type":"uint8"},{"internalType":"string","name":"namaProduk","type":"string"},{"internalType":"string","name":"batchName","type":"string"},{"internalType":"uint8","name":"obatQuantity","type":"uint8"},{"internalType":"string[]","name":"obatIpfs","type":"string[]"},{"internalType":"string","name":"factoryInstance","type":"string"}],"internalType":"struct ObatCreator.st_obatProduction[]","name":"","type":"tuple[]"}],"stateMutability":"view","type":"function"},{"inputs":[{"internalType":"string","name":"","type":"string"}],"name":"obatDetailsById","outputs":[{"internalType":"string","name":"merk","type":"string"},{"internalType":"string","name":"namaProduk","type":"string"},{"internalType":"string","name":"kemasan","type":"string"},{"internalType":"enum EnumsLibrary.TipeProduk","name":"tipeProduk","type":"uint8"},{"internalType":"string","name":"factoryInstance","type":"string"},{"internalType":"address","name":"factoryAddr","type":"address"}],"stateMutability":"view","type":"function"},{"inputs":[{"internalType":"string","name":"","type":"string"},{"internalType":"uint256","name":"","type":"uint256"}],"name":"obatProductionById","outputs":[{"internalType":"enum EnumsLibrary.ObatAvailability","name":"statusStok","type":"uint8"},{"internalType":"string","name":"namaProduk","type":"string"},{"internalType":"string","name":"batchName","type":"string"},{"internalType":"uint8","name":"obatQuantity","type":"uint8"},{"internalType":"string","name":"factoryInstance","type":"string"}],"stateMutability":"view","type":"function"},{"inputs":[{"internalType":"string","name":"_obatId","type":"string"},{"internalType":"string","name":"_merk","type":"string"},{"internalType":"string","name":"_namaProduk","type":"string"},{"internalType":"string[]","name":"_klaim","type":"string[]"},{"internalType":"string[]","name":"_komposisi","type":"string[]"},{"internalType":"string","name":"_kemasan","type":"string"},{"internalType":"enum EnumsLibrary.TipeProduk","name":"_tipeProduk","type":"uint8"},{"internalType":"string","name":"_factoryInstance","type":"string"},{"internalType":"address","name":"_factoryAddr","type":"address"}],"name":"setObatDetail","outputs":[],"stateMutability":"nonpayable","type":"function"}],"evm":{"bytecode":{"linkReferences":{},"object":"60808060405234601557611a2c908161001b8239f35b600080fdfe6080604052600436101561001257600080fd5b60003560e01c806327321837146115515780638d57ba0a1461137f578063a24f6509146109a2578063ba2ffe4c146108b5578063d6582672146106bc5763e521d5861461005e57600080fd5b346106b75760c03660031901126106b7576004356001600160401b0381116106b75761008e903690600401611692565b6024356001600160401b0381116106b7576100ad903690600401611692565b906044356001600160401b0381116106b7576100cd903690600401611692565b60643560ff81168091036106b7576084356001600160401b0381116106b7576100fa90369060040161189e565b9160a4356001600160401b0381116106b75761011a903690600401611692565b9461016660206040519661012d8861163a565b6000885281880193845260408801948552606088019586526080880196875260a0880198895281604051938285809451938492016116e8565b810160018152030190208054600160401b8110156103c35761018d9160018201815561191c565b9590956106a1575161019e8161180e565b6101a78161180e565b60ff801987541691161785556001850190518051906001600160401b0382116103c3576101d4835461170b565b601f811161066f575b50602090601f83116001146106085761020f929160009183610447575b50508160011b916000199060031b1c19161790565b90555b51805160028501916001600160401b0382116103c357610232835461170b565b601f81116105d6575b50602090601f831160011461056f5761026c9291600091836104475750508160011b916000199060031b1c19161790565b90555b60ff6003840191511660ff19825416179055600482019051805190600160401b82116103c35782548284558083106104f1575b50602001916000526020600020916000905b8282106103d9578551805160058701906001600160401b0381116103c3576102dc825461170b565b601f8111610386575b50602092601f8211600114610326576103179293829160009261031b5750508160011b916000199060031b1c19161790565b9055005b0151905084806101fa565b601f1982169383600052806000209160005b86811061036e5750836001959610610355575b505050811b019055005b015160001960f88460031b161c1916905583808061034b565b91926020600181928685015181550194019201610338565b6103b390836000526020600020601f840160051c810191602085106103b9575b601f0160051c01906119df565b836102e5565b90915081906103a6565b634e487b7160e01b600052604160045260246000fd5b80518051906001600160401b0382116103c3576103f6865461170b565b601f81116104bf575b50602090601f83116001146104525792610438836001959460209487966000926104475750508160011b916000199060031b1c19161790565b87555b019401910190926102b4565b0151905038806101fa565b90601f1983169187600052816000209260005b8181106104a7575093602093600196938796938388951061048e575b505050811b01875561043b565b015160001960f88460031b161c19169055388080610481565b92936020600181928786015181550195019301610465565b6104eb90876000526020600020601f850160051c810191602086106103b957601f0160051c01906119df565b386103ff565b8360005282602060002091820191015b81811061050e57506102a2565b8061051b6001925461170b565b80610528575b5001610501565b601f8111831461053e5750600081555b38610521565b61055c908260005283601f6020600020920160051c820191016119df565b8060005260006020812081835555610538565b90601f1983169184600052816000209260005b8181106105be57509084600195949392106105a5575b505050811b01905561026f565b015160001960f88460031b161c19169055388080610598565b92936020600181928786015181550195019301610582565b61060290846000526020600020601f850160051c810191602086106103b957601f0160051c01906119df565b3861023b565b90601f1983169184600052816000209260005b818110610657575090846001959493921061063e575b505050811b019055610212565b015160001960f88460031b161c19169055388080610631565b9293602060018192878601518155019501930161061b565b61069b90846000526020600020601f850160051c810191602086106103b957601f0160051c01906119df565b386101dd565b634e487b7160e01b600052600060045260246000fd5b600080fd5b346106b75760203660031901126106b7576004356001600160401b0381116106b75761012061075360206106f76108a0943690600401611692565b600060e060405161070781611655565b6060815260608582015260606040820152606080820152606060808201528260a0820152606060c082015201526107408151151561194e565b81604051938285809451938492016116e8565b8101600081520301902060405192839161076c83611655565b61077581611745565b83528261087e61078760018401611745565b6020830190815261086b61079d60028601611987565b604085019081526108586107b360038801611987565b91606087019283526108456107ca60048a01611745565b956080890196875260e060ff60058c0154169a60a08b019b6107eb8161180e565b8c5260c06107fb60068301611745565b9b019a8b52600760018060a01b03910154169c019b8c526108326040519e8f9e8f91602083525191610100602082015201906117e9565b90518d8203601f190160408f01526117e9565b90518b8203601f190160608d015261182e565b9051898203601f190160808b015261182e565b9051878203601f190160a08901526117e9565b91516108898161180e565b60c086015251848203601f190160e08601526117e9565b90516001600160a01b03166101008301520390f35b346106b75760403660031901126106b7576004356001600160401b0381116106b7576108e5903690600401611692565b61090160206024359281604051938285809451938492016116e8565b810160018152030190209081548110156106b75761091e9161191c565b5060ff81541661099e61093360018401611745565b9261094060028201611745565b61098b610957600560ff6003860154169401611745565b9161097d604051978761096a8a9961180e565b885260a0602089015260a08801906117e9565b9086820360408801526117e9565b91606085015283820360808501526117e9565b0390f35b346106b7576101203660031901126106b7576004356001600160401b0381116106b7576109d3903690600401611692565b6024356001600160401b0381116106b7576109f2903690600401611692565b906044356001600160401b0381116106b757610a12903690600401611692565b916064356001600160401b0381116106b757610a3290369060040161189e565b6084356001600160401b0381116106b757610a5190369060040161189e565b60a4356001600160401b0381116106b757610a70903690600401611692565b9060c4359260028410156106b75760e4356001600160401b0381116106b757610a9d903690600401611692565b96610104356001600160a01b03811697908890036106b7578051156113485781511561130f576020610b249160405198610ad68a611655565b895281890193845260408901948552606089019586526080890196875260a0890197610b018161180e565b885260c089019a8b5260e08901998a5281604051938285809451938492016116e8565b8101600081520301902095518051906001600160401b0382116103c357610b4b885461170b565b601f81116112dd575b50602090601f831160011461127657610b859291600091836111d25750508160011b916000199060031b1c19161790565b86555b51805160018701916001600160401b0382116103c357610ba8835461170b565b601f8111611244575b50602090601f83116001146111dd57610be29291600091836111d25750508160011b916000199060031b1c19161790565b90555b5180516002860191600160401b82116103c3578254828455808310611154575b50602001916000526020600020916000905b8282106110475750505050600384019051805190600160401b82116103c3578254828455808310610fc9575b50602001916000526020600020916000905b828210610eb157505050506004830190518051906001600160401b0382116103c357610c81835461170b565b601f8111610e7f575b50602090601f8311600114610e1857610cbb929160009183610e0d5750508160011b916000199060031b1c19161790565b90555b600582019051610ccd8161180e565b610cd68161180e565b60ff801983541691161790556006810192519283516001600160401b0381116103c357610d03825461170b565b601f8111610ddb575b506020601f8211600114610d72579080610d409260079697600092610d675750508160011b916000199060031b1c19161790565b90555b9151910180546001600160a01b0319166001600160a01b0392909216919091179055005b0151905087806101fa565b601f1982169583600052816000209660005b818110610dc35750916007969791846001959410610daa575b505050811b019055610d43565b015160001960f88460031b161c19169055868080610d9d565b83830151895560019098019760209384019301610d84565b610e0790836000526020600020601f840160051c810191602085106103b957601f0160051c01906119df565b85610d0c565b0151905088806101fa565b90601f1983169184600052816000209260005b818110610e675750908460019594939210610e4e575b505050811b019055610cbe565b015160001960f88460031b161c19169055878080610e41565b92936020600181928786015181550195019301610e2b565b610eab90846000526020600020601f850160051c810191602086106103b957601f0160051c01906119df565b87610c8a565b80518051906001600160401b0382116103c357610ece865461170b565b601f8111610f97575b50602090601f8311600114610f2a5792610f1083600195946020948796600092610f1f5750508160011b916000199060031b1c19161790565b87555b01940191019092610c55565b015190508f806101fa565b90601f1983169187600052816000209260005b818110610f7f5750936020936001969387969383889510610f66575b505050811b018755610f13565b015160001960f88460031b161c191690558e8080610f59565b92936020600181928786015181550195019301610f3d565b610fc390876000526020600020601f850160051c810191602086106103b957601f0160051c01906119df565b8b610ed7565b8360005282602060002091820191015b818110610fe65750610c43565b80610ff36001925461170b565b80611000575b5001610fd9565b601f811183146110165750600081555b8b610ff9565b611034908260005283601f6020600020920160051c820191016119df565b8060005260006020812081835555611010565b80518051906001600160401b0382116103c357611064865461170b565b601f8111611122575b50602090601f83116001146110b557926110a6836001959460209487966000926104475750508160011b916000199060031b1c19161790565b87555b01940191019092610c17565b90601f1983169187600052816000209260005b81811061110a57509360209360019693879693838895106110f1575b505050811b0187556110a9565b015160001960f88460031b161c191690558f80806110e4565b929360206001819287860151815501950193016110c8565b61114e90876000526020600020601f850160051c810191602086106103b957601f0160051c01906119df565b8c61106d565b8360005282602060002091820191015b8181106111715750610c05565b8061117e6001925461170b565b8061118b575b5001611164565b601f811183146111a15750600081555b8c611184565b6111bf908260005283601f6020600020920160051c820191016119df565b806000526000602081208183555561119b565b015190508b806101fa565b90601f1983169184600052816000209260005b81811061122c5750908460019594939210611213575b505050811b019055610be5565b015160001960f88460031b161c191690558a8080611206565b929360206001819287860151815501950193016111f0565b61127090846000526020600020601f850160051c810191602086106103b957601f0160051c01906119df565b8a610bb1565b90601f1983169189600052816000209260005b8181106112c557509084600195949392106112ac575b505050811b018655610b88565b015160001960f88460031b161c191690558a808061129f565b92936020600181928786015181550195019301611289565b61130990896000526020600020601f850160051c810191602086106103b957601f0160051c01906119df565b8a610b54565b60405162461bcd60e51b8152602060048201526011602482015270496e76616c6964204f626174204e616d6560781b6044820152606490fd5b60405162461bcd60e51b815260206004820152600f60248201526e125b9d985b1a590813d8985d081251608a1b6044820152606490fd5b346106b75760203660031901126106b7576004356001600160401b0381116106b75760206113b46113c0923690600401611692565b6107408151151561194e565b810160018152030190208054906113d682611887565b916113e46040519384611671565b80835260208301809260005260206000206000915b8383106114d157848660405191829160208301906020845251809152604083019060408160051b85010192916000905b82821061143857505050500390f35b919360019193955060206114c18192603f198a8203018652885190815161145e8161180e565b815260a06114b061149161147f8786015160c08987015260c08601906117e9565b604086015185820360408701526117e9565b60ff60608601511660608501526080850151848203608086015261182e565b9201519060a08184039101526117e9565b9601920192018594939192611429565b600660206001926040516114e48161163a565b60ff8654166114f28161180e565b81526114ff858701611745565b8382015261150f60028701611745565b604082015260ff600387015416606082015261152d60048701611987565b608082015261153e60058701611745565b60a08201528152019201920191906113f9565b346106b75760203660031901126106b7576004356001600160401b0381116106b75761158960206107406115f8933690600401611692565b8101600081520301902061159c81611745565b906116306115ac60018301611745565b916115b960048201611745565b9061161460ff600583015416926116066115d560068501611745565b93600760018060a01b039101541696604051998a9960c08b5260c08b01906117e9565b9089820360208b01526117e9565b9087820360408901526117e9565b9161161e8161180e565b606086015284820360808601526117e9565b9060a08301520390f35b60c081019081106001600160401b038211176103c357604052565b61010081019081106001600160401b038211176103c357604052565b90601f801991011681019081106001600160401b038211176103c357604052565b81601f820112156106b7578035906001600160401b0382116103c357604051926116c6601f8401601f191660200185611671565b828452602083830101116106b757816000926020809301838601378301015290565b60005b8381106116fb5750506000910152565b81810151838201526020016116eb565b90600182811c9216801561173b575b602083101461172557565b634e487b7160e01b600052602260045260246000fd5b91607f169161171a565b90604051918260008254926117598461170b565b80845293600181169081156117c75750600114611780575b5061177e92500383611671565b565b90506000929192526020600020906000915b8183106117ab57505090602061177e9282010138611771565b6020919350806001915483858901015201910190918492611792565b90506020925061177e94915060ff191682840152151560051b82010138611771565b90602091611802815180928185528580860191016116e8565b601f01601f1916010190565b6002111561181857565b634e487b7160e01b600052602160045260246000fd5b9080602083519182815201916020808360051b8301019401926000915b83831061185a57505050505090565b9091929394602080611878600193601f1986820301875289516117e9565b9701930193019193929061184b565b6001600160401b0381116103c35760051b60200190565b9080601f830112156106b75781356118b581611887565b926118c36040519485611671565b81845260208085019260051b820101918383116106b75760208201905b8382106118ef57505050505090565b81356001600160401b0381116106b75760209161191187848094880101611692565b8152019101906118e0565b8054821015611938576000526006602060002091020190600090565b634e487b7160e01b600052603260045260246000fd5b1561195557565b60405162461bcd60e51b815260206004820152600a602482015269125b9d985b1a5908125160b21b6044820152606490fd5b90815461199381611887565b926119a16040519485611671565b818452602084019060005260206000206000915b8383106119c25750505050565b6001602081926119d185611745565b8152019201920191906119b5565b8181106119ea575050565b600081556001016119df56fea2646970667358221220258005af380c983f4fe96539b5ae794401e48966490884ca9bedc3abad120a0364736f6c634300081b0033","opcodes":"PUSH1 0x80 DUP1 PUSH1 0x40 MSTORE CALLVALUE PUSH1 0x15 JUMPI PUSH2 0x1A2C SWAP1 DUP2 PUSH2 0x1B DUP3 CODECOPY RETURN JUMPDEST PUSH1 0x0 DUP1 REVERT INVALID PUSH1 0x80 PUSH1 0x40 MSTORE PUSH1 0x4 CALLDATASIZE LT ISZERO PUSH2 0x12 JUMPI PUSH1 0x0 DUP1 REVERT JUMPDEST PUSH1 0x0 CALLDATALOAD PUSH1 0xE0 SHR DUP1 PUSH4 0x27321837 EQ PUSH2 0x1551 JUMPI DUP1 PUSH4 0x8D57BA0A EQ PUSH2 0x137F JUMPI DUP1 PUSH4 0xA24F6509 EQ PUSH2 0x9A2 JUMPI DUP1 PUSH4 0xBA2FFE4C EQ PUSH2 0x8B5 JUMPI DUP1 PUSH4 0xD6582672 EQ PUSH2 0x6BC JUMPI PUSH4 0xE521D586 EQ PUSH2 0x5E JUMPI PUSH1 0x0 DUP1 REVERT JUMPDEST CALLVALUE PUSH2 0x6B7 JUMPI PUSH1 0xC0 CALLDATASIZE PUSH1 0x3 NOT ADD SLT PUSH2 0x6B7 JUMPI PUSH1 0x4 CALLDATALOAD PUSH1 0x1 PUSH1 0x1 PUSH1 0x40 SHL SUB DUP2 GT PUSH2 0x6B7 JUMPI PUSH2 0x8E SWAP1 CALLDATASIZE SWAP1 PUSH1 0x4 ADD PUSH2 0x1692 JUMP JUMPDEST PUSH1 0x24 CALLDATALOAD PUSH1 0x1 PUSH1 0x1 PUSH1 0x40 SHL SUB DUP2 GT PUSH2 0x6B7 JUMPI PUSH2 0xAD SWAP1 CALLDATASIZE SWAP1 PUSH1 0x4 ADD PUSH2 0x1692 JUMP JUMPDEST SWAP1 PUSH1 0x44 CALLDATALOAD PUSH1 0x1 PUSH1 0x1 PUSH1 0x40 SHL SUB DUP2 GT PUSH2 0x6B7 JUMPI PUSH2 0xCD SWAP1 CALLDATASIZE SWAP1 PUSH1 0x4 ADD PUSH2 0x1692 JUMP JUMPDEST PUSH1 0x64 CALLDATALOAD PUSH1 0xFF DUP2 AND DUP1 SWAP2 SUB PUSH2 0x6B7 JUMPI PUSH1 0x84 CALLDATALOAD PUSH1 0x1 PUSH1 0x1 PUSH1 0x40 SHL SUB DUP2 GT PUSH2 0x6B7 JUMPI PUSH2 0xFA SWAP1 CALLDATASIZE SWAP1 PUSH1 0x4 ADD PUSH2 0x189E JUMP JUMPDEST SWAP2 PUSH1 0xA4 CALLDATALOAD PUSH1 0x1 PUSH1 0x1 PUSH1 0x40 SHL SUB DUP2 GT PUSH2 0x6B7 JUMPI PUSH2 0x11A SWAP1 CALLDATASIZE SWAP1 PUSH1 0x4 ADD PUSH2 0x1692 JUMP JUMPDEST SWAP5 PUSH2 0x166 PUSH1 0x20 PUSH1 0x40 MLOAD SWAP7 PUSH2 0x12D DUP9 PUSH2 0x163A JUMP JUMPDEST PUSH1 0x0 DUP9 MSTORE DUP2 DUP9 ADD SWAP4 DUP5 MSTORE PUSH1 0x40 DUP9 ADD SWAP5 DUP6 MSTORE PUSH1 0x60 DUP9 ADD SWAP6 DUP7 MSTORE PUSH1 0x80 DUP9 ADD SWAP7 DUP8 MSTORE PUSH1 0xA0 DUP9 ADD SWAP9 DUP10 MSTORE DUP2 PUSH1 0x40 MLOAD SWAP4 DUP3 DUP6 DUP1 SWAP5 MLOAD SWAP4 DUP5 SWAP3 ADD PUSH2 0x16E8 JUMP JUMPDEST DUP2 ADD PUSH1 0x1 DUP2 MSTORE SUB ADD SWAP1 KECCAK256 DUP1 SLOAD PUSH1 0x1 PUSH1 0x40 SHL DUP2 LT ISZERO PUSH2 0x3C3 JUMPI PUSH2 0x18D SWAP2 PUSH1 0x1 DUP3 ADD DUP2 SSTORE PUSH2 0x191C JUMP JUMPDEST SWAP6 SWAP1 SWAP6 PUSH2 0x6A1 JUMPI MLOAD PUSH2 0x19E DUP2 PUSH2 0x180E JUMP JUMPDEST PUSH2 0x1A7 DUP2 PUSH2 0x180E JUMP JUMPDEST PUSH1 0xFF DUP1 NOT DUP8 SLOAD AND SWAP2 AND OR DUP6 SSTORE PUSH1 0x1 DUP6 ADD SWAP1 MLOAD DUP1 MLOAD SWAP1 PUSH1 0x1 PUSH1 0x1 PUSH1 0x40 SHL SUB DUP3 GT PUSH2 0x3C3 JUMPI PUSH2 0x1D4 DUP4 SLOAD PUSH2 0x170B JUMP JUMPDEST PUSH1 0x1F DUP2 GT PUSH2 0x66F JUMPI JUMPDEST POP PUSH1 0x20 SWAP1 PUSH1 0x1F DUP4 GT PUSH1 0x1 EQ PUSH2 0x608 JUMPI PUSH2 0x20F SWAP3 SWAP2 PUSH1 0x0 SWAP2 DUP4 PUSH2 0x447 JUMPI JUMPDEST POP POP DUP2 PUSH1 0x1 SHL SWAP2 PUSH1 0x0 NOT SWAP1 PUSH1 0x3 SHL SHR NOT AND OR SWAP1 JUMP JUMPDEST SWAP1 SSTORE JUMPDEST MLOAD DUP1 MLOAD PUSH1 0x2 DUP6 ADD SWAP2 PUSH1 0x1 PUSH1 0x1 PUSH1 0x40 SHL SUB DUP3 GT PUSH2 0x3C3 JUMPI PUSH2 0x232 DUP4 SLOAD PUSH2 0x170B JUMP JUMPDEST PUSH1 0x1F DUP2 GT PUSH2 0x5D6 JUMPI JUMPDEST POP PUSH1 0x20 SWAP1 PUSH1 0x1F DUP4 GT PUSH1 0x1 EQ PUSH2 0x56F JUMPI PUSH2 0x26C SWAP3 SWAP2 PUSH1 0x0 SWAP2 DUP4 PUSH2 0x447 JUMPI POP POP DUP2 PUSH1 0x1 SHL SWAP2 PUSH1 0x0 NOT SWAP1 PUSH1 0x3 SHL SHR NOT AND OR SWAP1 JUMP JUMPDEST SWAP1 SSTORE JUMPDEST PUSH1 0xFF PUSH1 0x3 DUP5 ADD SWAP2 MLOAD AND PUSH1 0xFF NOT DUP3 SLOAD AND OR SWAP1 SSTORE PUSH1 0x4 DUP3 ADD SWAP1 MLOAD DUP1 MLOAD SWAP1 PUSH1 0x1 PUSH1 0x40 SHL DUP3 GT PUSH2 0x3C3 JUMPI DUP3 SLOAD DUP3 DUP5 SSTORE DUP1 DUP4 LT PUSH2 0x4F1 JUMPI JUMPDEST POP PUSH1 0x20 ADD SWAP2 PUSH1 0x0 MSTORE PUSH1 0x20 PUSH1 0x0 KECCAK256 SWAP2 PUSH1 0x0 SWAP1 JUMPDEST DUP3 DUP3 LT PUSH2 0x3D9 JUMPI DUP6 MLOAD DUP1 MLOAD PUSH1 0x5 DUP8 ADD SWAP1 PUSH1 0x1 PUSH1 0x1 PUSH1 0x40 SHL SUB DUP2 GT PUSH2 0x3C3 JUMPI PUSH2 0x2DC DUP3 SLOAD PUSH2 0x170B JUMP JUMPDEST PUSH1 0x1F DUP2 GT PUSH2 0x386 JUMPI JUMPDEST POP PUSH1 0x20 SWAP3 PUSH1 0x1F DUP3 GT PUSH1 0x1 EQ PUSH2 0x326 JUMPI PUSH2 0x317 SWAP3 SWAP4 DUP3 SWAP2 PUSH1 0x0 SWAP3 PUSH2 0x31B JUMPI POP POP DUP2 PUSH1 0x1 SHL SWAP2 PUSH1 0x0 NOT SWAP1 PUSH1 0x3 SHL SHR NOT AND OR SWAP1 JUMP JUMPDEST SWAP1 SSTORE STOP JUMPDEST ADD MLOAD SWAP1 POP DUP5 DUP1 PUSH2 0x1FA JUMP JUMPDEST PUSH1 0x1F NOT DUP3 AND SWAP4 DUP4 PUSH1 0x0 MSTORE DUP1 PUSH1 0x0 KECCAK256 SWAP2 PUSH1 0x0 JUMPDEST DUP7 DUP2 LT PUSH2 0x36E JUMPI POP DUP4 PUSH1 0x1 SWAP6 SWAP7 LT PUSH2 0x355 JUMPI JUMPDEST POP POP POP DUP2 SHL ADD SWAP1 SSTORE STOP JUMPDEST ADD MLOAD PUSH1 0x0 NOT PUSH1 0xF8 DUP5 PUSH1 0x3 SHL AND SHR NOT AND SWAP1 SSTORE DUP4 DUP1 DUP1 PUSH2 0x34B JUMP JUMPDEST SWAP2 SWAP3 PUSH1 0x20 PUSH1 0x1 DUP2 SWAP3 DUP7 DUP6 ADD MLOAD DUP2 SSTORE ADD SWAP5 ADD SWAP3 ADD PUSH2 0x338 JUMP JUMPDEST PUSH2 0x3B3 SWAP1 DUP4 PUSH1 0x0 MSTORE PUSH1 0x20 PUSH1 0x0 KECCAK256 PUSH1 0x1F DUP5 ADD PUSH1 0x5 SHR DUP2 ADD SWAP2 PUSH1 0x20 DUP6 LT PUSH2 0x3B9 JUMPI JUMPDEST PUSH1 0x1F ADD PUSH1 0x5 SHR ADD SWAP1 PUSH2 0x19DF JUMP JUMPDEST DUP4 PUSH2 0x2E5 JUMP JUMPDEST SWAP1 SWAP2 POP DUP2 SWAP1 PUSH2 0x3A6 JUMP JUMPDEST PUSH4 0x4E487B71 PUSH1 0xE0 SHL PUSH1 0x0 MSTORE PUSH1 0x41 PUSH1 0x4 MSTORE PUSH1 0x24 PUSH1 0x0 REVERT JUMPDEST DUP1 MLOAD DUP1 MLOAD SWAP1 PUSH1 0x1 PUSH1 0x1 PUSH1 0x40 SHL SUB DUP3 GT PUSH2 0x3C3 JUMPI PUSH2 0x3F6 DUP7 SLOAD PUSH2 0x170B JUMP JUMPDEST PUSH1 0x1F DUP2 GT PUSH2 0x4BF JUMPI JUMPDEST POP PUSH1 0x20 SWAP1 PUSH1 0x1F DUP4 GT PUSH1 0x1 EQ PUSH2 0x452 JUMPI SWAP3 PUSH2 0x438 DUP4 PUSH1 0x1 SWAP6 SWAP5 PUSH1 0x20 SWAP5 DUP8 SWAP7 PUSH1 0x0 SWAP3 PUSH2 0x447 JUMPI POP POP DUP2 PUSH1 0x1 SHL SWAP2 PUSH1 0x0 NOT SWAP1 PUSH1 0x3 SHL SHR NOT AND OR SWAP1 JUMP JUMPDEST DUP8 SSTORE JUMPDEST ADD SWAP5 ADD SWAP2 ADD SWAP1 SWAP3 PUSH2 0x2B4 JUMP JUMPDEST ADD MLOAD SWAP1 POP CODESIZE DUP1 PUSH2 0x1FA JUMP JUMPDEST SWAP1 PUSH1 0x1F NOT DUP4 AND SWAP2 DUP8 PUSH1 0x0 MSTORE DUP2 PUSH1 0x0 KECCAK256 SWAP3 PUSH1 0x0 JUMPDEST DUP2 DUP2 LT PUSH2 0x4A7 JUMPI POP SWAP4 PUSH1 0x20 SWAP4 PUSH1 0x1 SWAP7 SWAP4 DUP8 SWAP7 SWAP4 DUP4 DUP9 SWAP6 LT PUSH2 0x48E JUMPI JUMPDEST POP POP POP DUP2 SHL ADD DUP8 SSTORE PUSH2 0x43B JUMP JUMPDEST ADD MLOAD PUSH1 0x0 NOT PUSH1 0xF8 DUP5 PUSH1 0x3 SHL AND SHR NOT AND SWAP1 SSTORE CODESIZE DUP1 DUP1 PUSH2 0x481 JUMP JUMPDEST SWAP3 SWAP4 PUSH1 0x20 PUSH1 0x1 DUP2 SWAP3 DUP8 DUP7 ADD MLOAD DUP2 SSTORE ADD SWAP6 ADD SWAP4 ADD PUSH2 0x465 JUMP JUMPDEST PUSH2 0x4EB SWAP1 DUP8 PUSH1 0x0 MSTORE PUSH1 0x20 PUSH1 0x0 KECCAK256 PUSH1 0x1F DUP6 ADD PUSH1 0x5 SHR DUP2 ADD SWAP2 PUSH1 0x20 DUP7 LT PUSH2 0x3B9 JUMPI PUSH1 0x1F ADD PUSH1 0x5 SHR ADD SWAP1 PUSH2 0x19DF JUMP JUMPDEST CODESIZE PUSH2 0x3FF JUMP JUMPDEST DUP4 PUSH1 0x0 MSTORE DUP3 PUSH1 0x20 PUSH1 0x0 KECCAK256 SWAP2 DUP3 ADD SWAP2 ADD JUMPDEST DUP2 DUP2 LT PUSH2 0x50E JUMPI POP PUSH2 0x2A2 JUMP JUMPDEST DUP1 PUSH2 0x51B PUSH1 0x1 SWAP3 SLOAD PUSH2 0x170B JUMP JUMPDEST DUP1 PUSH2 0x528 JUMPI JUMPDEST POP ADD PUSH2 0x501 JUMP JUMPDEST PUSH1 0x1F DUP2 GT DUP4 EQ PUSH2 0x53E JUMPI POP PUSH1 0x0 DUP2 SSTORE JUMPDEST CODESIZE PUSH2 0x521 JUMP JUMPDEST PUSH2 0x55C SWAP1 DUP3 PUSH1 0x0 MSTORE DUP4 PUSH1 0x1F PUSH1 0x20 PUSH1 0x0 KECCAK256 SWAP3 ADD PUSH1 0x5 SHR DUP3 ADD SWAP2 ADD PUSH2 0x19DF JUMP JUMPDEST DUP1 PUSH1 0x0 MSTORE PUSH1 0x0 PUSH1 0x20 DUP2 KECCAK256 DUP2 DUP4 SSTORE SSTORE PUSH2 0x538 JUMP JUMPDEST SWAP1 PUSH1 0x1F NOT DUP4 AND SWAP2 DUP5 PUSH1 0x0 MSTORE DUP2 PUSH1 0x0 KECCAK256 SWAP3 PUSH1 0x0 JUMPDEST DUP2 DUP2 LT PUSH2 0x5BE JUMPI POP SWAP1 DUP5 PUSH1 0x1 SWAP6 SWAP5 SWAP4 SWAP3 LT PUSH2 0x5A5 JUMPI JUMPDEST POP POP POP DUP2 SHL ADD SWAP1 SSTORE PUSH2 0x26F JUMP JUMPDEST ADD MLOAD PUSH1 0x0 NOT PUSH1 0xF8 DUP5 PUSH1 0x3 SHL AND SHR NOT AND SWAP1 SSTORE CODESIZE DUP1 DUP1 PUSH2 0x598 JUMP JUMPDEST SWAP3 SWAP4 PUSH1 0x20 PUSH1 0x1 DUP2 SWAP3 DUP8 DUP7 ADD MLOAD DUP2 SSTORE ADD SWAP6 ADD SWAP4 ADD PUSH2 0x582 JUMP JUMPDEST PUSH2 0x602 SWAP1 DUP5 PUSH1 0x0 MSTORE PUSH1 0x20 PUSH1 0x0 KECCAK256 PUSH1 0x1F DUP6 ADD PUSH1 0x5 SHR DUP2 ADD SWAP2 PUSH1 0x20 DUP7 LT PUSH2 0x3B9 JUMPI PUSH1 0x1F ADD PUSH1 0x5 SHR ADD SWAP1 PUSH2 0x19DF JUMP JUMPDEST CODESIZE PUSH2 0x23B JUMP JUMPDEST SWAP1 PUSH1 0x1F NOT DUP4 AND SWAP2 DUP5 PUSH1 0x0 MSTORE DUP2 PUSH1 0x0 KECCAK256 SWAP3 PUSH1 0x0 JUMPDEST DUP2 DUP2 LT PUSH2 0x657 JUMPI POP SWAP1 DUP5 PUSH1 0x1 SWAP6 SWAP5 SWAP4 SWAP3 LT PUSH2 0x63E JUMPI JUMPDEST POP POP POP DUP2 SHL ADD SWAP1 SSTORE PUSH2 0x212 JUMP JUMPDEST ADD MLOAD PUSH1 0x0 NOT PUSH1 0xF8 DUP5 PUSH1 0x3 SHL AND SHR NOT AND SWAP1 SSTORE CODESIZE DUP1 DUP1 PUSH2 0x631 JUMP JUMPDEST SWAP3 SWAP4 PUSH1 0x20 PUSH1 0x1 DUP2 SWAP3 DUP8 DUP7 ADD MLOAD DUP2 SSTORE ADD SWAP6 ADD SWAP4 ADD PUSH2 0x61B JUMP JUMPDEST PUSH2 0x69B SWAP1 DUP5 PUSH1 0x0 MSTORE PUSH1 0x20 PUSH1 0x0 KECCAK256 PUSH1 0x1F DUP6 ADD PUSH1 0x5 SHR DUP2 ADD SWAP2 PUSH1 0x20 DUP7 LT PUSH2 0x3B9 JUMPI PUSH1 0x1F ADD PUSH1 0x5 SHR ADD SWAP1 PUSH2 0x19DF JUMP JUMPDEST CODESIZE PUSH2 0x1DD JUMP JUMPDEST PUSH4 0x4E487B71 PUSH1 0xE0 SHL PUSH1 0x0 MSTORE PUSH1 0x0 PUSH1 0x4 MSTORE PUSH1 0x24 PUSH1 0x0 REVERT JUMPDEST PUSH1 0x0 DUP1 REVERT JUMPDEST CALLVALUE PUSH2 0x6B7 JUMPI PUSH1 0x20 CALLDATASIZE PUSH1 0x3 NOT ADD SLT PUSH2 0x6B7 JUMPI PUSH1 0x4 CALLDATALOAD PUSH1 0x1 PUSH1 0x1 PUSH1 0x40 SHL SUB DUP2 GT PUSH2 0x6B7 JUMPI PUSH2 0x120 PUSH2 0x753 PUSH1 0x20 PUSH2 0x6F7 PUSH2 0x8A0 SWAP5 CALLDATASIZE SWAP1 PUSH1 0x4 ADD PUSH2 0x1692 JUMP JUMPDEST PUSH1 0x0 PUSH1 0xE0 PUSH1 0x40 MLOAD PUSH2 0x707 DUP2 PUSH2 0x1655 JUMP JUMPDEST PUSH1 0x60 DUP2 MSTORE PUSH1 0x60 DUP6 DUP3 ADD MSTORE PUSH1 0x60 PUSH1 0x40 DUP3 ADD MSTORE PUSH1 0x60 DUP1 DUP3 ADD MSTORE PUSH1 0x60 PUSH1 0x80 DUP3 ADD MSTORE DUP3 PUSH1 0xA0 DUP3 ADD MSTORE PUSH1 0x60 PUSH1 0xC0 DUP3 ADD MSTORE ADD MSTORE PUSH2 0x740 DUP2 MLOAD ISZERO ISZERO PUSH2 0x194E JUMP JUMPDEST DUP2 PUSH1 0x40 MLOAD SWAP4 DUP3 DUP6 DUP1 SWAP5 MLOAD SWAP4 DUP5 SWAP3 ADD PUSH2 0x16E8 JUMP JUMPDEST DUP2 ADD PUSH1 0x0 DUP2 MSTORE SUB ADD SWAP1 KECCAK256 PUSH1 0x40 MLOAD SWAP3 DUP4 SWAP2 PUSH2 0x76C DUP4 PUSH2 0x1655 JUMP JUMPDEST PUSH2 0x775 DUP2 PUSH2 0x1745 JUMP JUMPDEST DUP4 MSTORE DUP3 PUSH2 0x87E PUSH2 0x787 PUSH1 0x1 DUP5 ADD PUSH2 0x1745 JUMP JUMPDEST PUSH1 0x20 DUP4 ADD SWAP1 DUP2 MSTORE PUSH2 0x86B PUSH2 0x79D PUSH1 0x2 DUP7 ADD PUSH2 0x1987 JUMP JUMPDEST PUSH1 0x40 DUP6 ADD SWAP1 DUP2 MSTORE PUSH2 0x858 PUSH2 0x7B3 PUSH1 0x3 DUP9 ADD PUSH2 0x1987 JUMP JUMPDEST SWAP2 PUSH1 0x60 DUP8 ADD SWAP3 DUP4 MSTORE PUSH2 0x845 PUSH2 0x7CA PUSH1 0x4 DUP11 ADD PUSH2 0x1745 JUMP JUMPDEST SWAP6 PUSH1 0x80 DUP10 ADD SWAP7 DUP8 MSTORE PUSH1 0xE0 PUSH1 0xFF PUSH1 0x5 DUP13 ADD SLOAD AND SWAP11 PUSH1 0xA0 DUP12 ADD SWAP12 PUSH2 0x7EB DUP2 PUSH2 0x180E JUMP JUMPDEST DUP13 MSTORE PUSH1 0xC0 PUSH2 0x7FB PUSH1 0x6 DUP4 ADD PUSH2 0x1745 JUMP JUMPDEST SWAP12 ADD SWAP11 DUP12 MSTORE PUSH1 0x7 PUSH1 0x1 DUP1 PUSH1 0xA0 SHL SUB SWAP2 ADD SLOAD AND SWAP13 ADD SWAP12 DUP13 MSTORE PUSH2 0x832 PUSH1 0x40 MLOAD SWAP15 DUP16 SWAP15 DUP16 SWAP2 PUSH1 0x20 DUP4 MSTORE MLOAD SWAP2 PUSH2 0x100 PUSH1 0x20 DUP3 ADD MSTORE ADD SWAP1 PUSH2 0x17E9 JUMP JUMPDEST SWAP1 MLOAD DUP14 DUP3 SUB PUSH1 0x1F NOT ADD PUSH1 0x40 DUP16 ADD MSTORE PUSH2 0x17E9 JUMP JUMPDEST SWAP1 MLOAD DUP12 DUP3 SUB PUSH1 0x1F NOT ADD PUSH1 0x60 DUP14 ADD MSTORE PUSH2 0x182E JUMP JUMPDEST SWAP1 MLOAD DUP10 DUP3 SUB PUSH1 0x1F NOT ADD PUSH1 0x80 DUP12 ADD MSTORE PUSH2 0x182E JUMP JUMPDEST SWAP1 MLOAD DUP8 DUP3 SUB PUSH1 0x1F NOT ADD PUSH1 0xA0 DUP10 ADD MSTORE PUSH2 0x17E9 JUMP JUMPDEST SWAP2 MLOAD PUSH2 0x889 DUP2 PUSH2 0x180E JUMP JUMPDEST PUSH1 0xC0 DUP7 ADD MSTORE MLOAD DUP5 DUP3 SUB PUSH1 0x1F NOT ADD PUSH1 0xE0 DUP7 ADD MSTORE PUSH2 0x17E9 JUMP JUMPDEST SWAP1 MLOAD PUSH1 0x1 PUSH1 0x1 PUSH1 0xA0 SHL SUB AND PUSH2 0x100 DUP4 ADD MSTORE SUB SWAP1 RETURN JUMPDEST CALLVALUE PUSH2 0x6B7 JUMPI PUSH1 0x40 CALLDATASIZE PUSH1 0x3 NOT ADD SLT PUSH2 0x6B7 JUMPI PUSH1 0x4 CALLDATALOAD PUSH1 0x1 PUSH1 0x1 PUSH1 0x40 SHL SUB DUP2 GT PUSH2 0x6B7 JUMPI PUSH2 0x8E5 SWAP1 CALLDATASIZE SWAP1 PUSH1 0x4 ADD PUSH2 0x1692 JUMP JUMPDEST PUSH2 0x901 PUSH1 0x20 PUSH1 0x24 CALLDATALOAD SWAP3 DUP2 PUSH1 0x40 MLOAD SWAP4 DUP3 DUP6 DUP1 SWAP5 MLOAD SWAP4 DUP5 SWAP3 ADD PUSH2 0x16E8 JUMP JUMPDEST DUP2 ADD PUSH1 0x1 DUP2 MSTORE SUB ADD SWAP1 KECCAK256 SWAP1 DUP2 SLOAD DUP2 LT ISZERO PUSH2 0x6B7 JUMPI PUSH2 0x91E SWAP2 PUSH2 0x191C JUMP JUMPDEST POP PUSH1 0xFF DUP2 SLOAD AND PUSH2 0x99E PUSH2 0x933 PUSH1 0x1 DUP5 ADD PUSH2 0x1745 JUMP JUMPDEST SWAP3 PUSH2 0x940 PUSH1 0x2 DUP3 ADD PUSH2 0x1745 JUMP JUMPDEST PUSH2 0x98B PUSH2 0x957 PUSH1 0x5 PUSH1 0xFF PUSH1 0x3 DUP7 ADD SLOAD AND SWAP5 ADD PUSH2 0x1745 JUMP JUMPDEST SWAP2 PUSH2 0x97D PUSH1 0x40 MLOAD SWAP8 DUP8 PUSH2 0x96A DUP11 SWAP10 PUSH2 0x180E JUMP JUMPDEST DUP9 MSTORE PUSH1 0xA0 PUSH1 0x20 DUP10 ADD MSTORE PUSH1 0xA0 DUP9 ADD SWAP1 PUSH2 0x17E9 JUMP JUMPDEST SWAP1 DUP7 DUP3 SUB PUSH1 0x40 DUP9 ADD MSTORE PUSH2 0x17E9 JUMP JUMPDEST SWAP2 PUSH1 0x60 DUP6 ADD MSTORE DUP4 DUP3 SUB PUSH1 0x80 DUP6 ADD MSTORE PUSH2 0x17E9 JUMP JUMPDEST SUB SWAP1 RETURN JUMPDEST CALLVALUE PUSH2 0x6B7 JUMPI PUSH2 0x120 CALLDATASIZE PUSH1 0x3 NOT ADD SLT PUSH2 0x6B7 JUMPI PUSH1 0x4 CALLDATALOAD PUSH1 0x1 PUSH1 0x1 PUSH1 0x40 SHL SUB DUP2 GT PUSH2 0x6B7 JUMPI PUSH2 0x9D3 SWAP1 CALLDATASIZE SWAP1 PUSH1 0x4 ADD PUSH2 0x1692 JUMP JUMPDEST PUSH1 0x24 CALLDATALOAD PUSH1 0x1 PUSH1 0x1 PUSH1 0x40 SHL SUB DUP2 GT PUSH2 0x6B7 JUMPI PUSH2 0x9F2 SWAP1 CALLDATASIZE SWAP1 PUSH1 0x4 ADD PUSH2 0x1692 JUMP JUMPDEST SWAP1 PUSH1 0x44 CALLDATALOAD PUSH1 0x1 PUSH1 0x1 PUSH1 0x40 SHL SUB DUP2 GT PUSH2 0x6B7 JUMPI PUSH2 0xA12 SWAP1 CALLDATASIZE SWAP1 PUSH1 0x4 ADD PUSH2 0x1692 JUMP JUMPDEST SWAP2 PUSH1 0x64 CALLDATALOAD PUSH1 0x1 PUSH1 0x1 PUSH1 0x40 SHL SUB DUP2 GT PUSH2 0x6B7 JUMPI PUSH2 0xA32 SWAP1 CALLDATASIZE SWAP1 PUSH1 0x4 ADD PUSH2 0x189E JUMP JUMPDEST PUSH1 0x84 CALLDATALOAD PUSH1 0x1 PUSH1 0x1 PUSH1 0x40 SHL SUB DUP2 GT PUSH2 0x6B7 JUMPI PUSH2 0xA51 SWAP1 CALLDATASIZE SWAP1 PUSH1 0x4 ADD PUSH2 0x189E JUMP JUMPDEST PUSH1 0xA4 CALLDATALOAD PUSH1 0x1 PUSH1 0x1 PUSH1 0x40 SHL SUB DUP2 GT PUSH2 0x6B7 JUMPI PUSH2 0xA70 SWAP1 CALLDATASIZE SWAP1 PUSH1 0x4 ADD PUSH2 0x1692 JUMP JUMPDEST SWAP1 PUSH1 0xC4 CALLDATALOAD SWAP3 PUSH1 0x2 DUP5 LT ISZERO PUSH2 0x6B7 JUMPI PUSH1 0xE4 CALLDATALOAD PUSH1 0x1 PUSH1 0x1 PUSH1 0x40 SHL SUB DUP2 GT PUSH2 0x6B7 JUMPI PUSH2 0xA9D SWAP1 CALLDATASIZE SWAP1 PUSH1 0x4 ADD PUSH2 0x1692 JUMP JUMPDEST SWAP7 PUSH2 0x104 CALLDATALOAD PUSH1 0x1 PUSH1 0x1 PUSH1 0xA0 SHL SUB DUP2 AND SWAP8 SWAP1 DUP9 SWAP1 SUB PUSH2 0x6B7 JUMPI DUP1 MLOAD ISZERO PUSH2 0x1348 JUMPI DUP2 MLOAD ISZERO PUSH2 0x130F JUMPI PUSH1 0x20 PUSH2 0xB24 SWAP2 PUSH1 0x40 MLOAD SWAP9 PUSH2 0xAD6 DUP11 PUSH2 0x1655 JUMP JUMPDEST DUP10 MSTORE DUP2 DUP10 ADD SWAP4 DUP5 MSTORE PUSH1 0x40 DUP10 ADD SWAP5 DUP6 MSTORE PUSH1 0x60 DUP10 ADD SWAP6 DUP7 MSTORE PUSH1 0x80 DUP10 ADD SWAP7 DUP8 MSTORE PUSH1 0xA0 DUP10 ADD SWAP8 PUSH2 0xB01 DUP2 PUSH2 0x180E JUMP JUMPDEST DUP9 MSTORE PUSH1 0xC0 DUP10 ADD SWAP11 DUP12 MSTORE PUSH1 0xE0 DUP10 ADD SWAP10 DUP11 MSTORE DUP2 PUSH1 0x40 MLOAD SWAP4 DUP3 DUP6 DUP1 SWAP5 MLOAD SWAP4 DUP5 SWAP3 ADD PUSH2 0x16E8 JUMP JUMPDEST DUP2 ADD PUSH1 0x0 DUP2 MSTORE SUB ADD SWAP1 KECCAK256 SWAP6 MLOAD DUP1 MLOAD SWAP1 PUSH1 0x1 PUSH1 0x1 PUSH1 0x40 SHL SUB DUP3 GT PUSH2 0x3C3 JUMPI PUSH2 0xB4B DUP9 SLOAD PUSH2 0x170B JUMP JUMPDEST PUSH1 0x1F DUP2 GT PUSH2 0x12DD JUMPI JUMPDEST POP PUSH1 0x20 SWAP1 PUSH1 0x1F DUP4 GT PUSH1 0x1 EQ PUSH2 0x1276 JUMPI PUSH2 0xB85 SWAP3 SWAP2 PUSH1 0x0 SWAP2 DUP4 PUSH2 0x11D2 JUMPI POP POP DUP2 PUSH1 0x1 SHL SWAP2 PUSH1 0x0 NOT SWAP1 PUSH1 0x3 SHL SHR NOT AND OR SWAP1 JUMP JUMPDEST DUP7 SSTORE JUMPDEST MLOAD DUP1 MLOAD PUSH1 0x1 DUP8 ADD SWAP2 PUSH1 0x1 PUSH1 0x1 PUSH1 0x40 SHL SUB DUP3 GT PUSH2 0x3C3 JUMPI PUSH2 0xBA8 DUP4 SLOAD PUSH2 0x170B JUMP JUMPDEST PUSH1 0x1F DUP2 GT PUSH2 0x1244 JUMPI JUMPDEST POP PUSH1 0x20 SWAP1 PUSH1 0x1F DUP4 GT PUSH1 0x1 EQ PUSH2 0x11DD JUMPI PUSH2 0xBE2 SWAP3 SWAP2 PUSH1 0x0 SWAP2 DUP4 PUSH2 0x11D2 JUMPI POP POP DUP2 PUSH1 0x1 SHL SWAP2 PUSH1 0x0 NOT SWAP1 PUSH1 0x3 SHL SHR NOT AND OR SWAP1 JUMP JUMPDEST SWAP1 SSTORE JUMPDEST MLOAD DUP1 MLOAD PUSH1 0x2 DUP7 ADD SWAP2 PUSH1 0x1 PUSH1 0x40 SHL DUP3 GT PUSH2 0x3C3 JUMPI DUP3 SLOAD DUP3 DUP5 SSTORE DUP1 DUP4 LT PUSH2 0x1154 JUMPI JUMPDEST POP PUSH1 0x20 ADD SWAP2 PUSH1 0x0 MSTORE PUSH1 0x20 PUSH1 0x0 KECCAK256 SWAP2 PUSH1 0x0 SWAP1 JUMPDEST DUP3 DUP3 LT PUSH2 0x1047 JUMPI POP POP POP POP PUSH1 0x3 DUP5 ADD SWAP1 MLOAD DUP1 MLOAD SWAP1 PUSH1 0x1 PUSH1 0x40 SHL DUP3 GT PUSH2 0x3C3 JUMPI DUP3 SLOAD DUP3 DUP5 SSTORE DUP1 DUP4 LT PUSH2 0xFC9 JUMPI JUMPDEST POP PUSH1 0x20 ADD SWAP2 PUSH1 0x0 MSTORE PUSH1 0x20 PUSH1 0x0 KECCAK256 SWAP2 PUSH1 0x0 SWAP1 JUMPDEST DUP3 DUP3 LT PUSH2 0xEB1 JUMPI POP POP POP POP PUSH1 0x4 DUP4 ADD SWAP1 MLOAD DUP1 MLOAD SWAP1 PUSH1 0x1 PUSH1 0x1 PUSH1 0x40 SHL SUB DUP3 GT PUSH2 0x3C3 JUMPI PUSH2 0xC81 DUP4 SLOAD PUSH2 0x170B JUMP JUMPDEST PUSH1 0x1F DUP2 GT PUSH2 0xE7F JUMPI JUMPDEST POP PUSH1 0x20 SWAP1 PUSH1 0x1F DUP4 GT PUSH1 0x1 EQ PUSH2 0xE18 JUMPI PUSH2 0xCBB SWAP3 SWAP2 PUSH1 0x0 SWAP2 DUP4 PUSH2 0xE0D JUMPI POP POP DUP2 PUSH1 0x1 SHL SWAP2 PUSH1 0x0 NOT SWAP1 PUSH1 0x3 SHL SHR NOT AND OR SWAP1 JUMP JUMPDEST SWAP1 SSTORE JUMPDEST PUSH1 0x5 DUP3 ADD SWAP1 MLOAD PUSH2 0xCCD DUP2 PUSH2 0x180E JUMP JUMPDEST PUSH2 0xCD6 DUP2 PUSH2 0x180E JUMP JUMPDEST PUSH1 0xFF DUP1 NOT DUP4 SLOAD AND SWAP2 AND OR SWAP1 SSTORE PUSH1 0x6 DUP2 ADD SWAP3 MLOAD SWAP3 DUP4 MLOAD PUSH1 0x1 PUSH1 0x1 PUSH1 0x40 SHL SUB DUP2 GT PUSH2 0x3C3 JUMPI PUSH2 0xD03 DUP3 SLOAD PUSH2 0x170B JUMP JUMPDEST PUSH1 0x1F DUP2 GT PUSH2 0xDDB JUMPI JUMPDEST POP PUSH1 0x20 PUSH1 0x1F DUP3 GT PUSH1 0x1 EQ PUSH2 0xD72 JUMPI SWAP1 DUP1 PUSH2 0xD40 SWAP3 PUSH1 0x7 SWAP7 SWAP8 PUSH1 0x0 SWAP3 PUSH2 0xD67 JUMPI POP POP DUP2 PUSH1 0x1 SHL SWAP2 PUSH1 0x0 NOT SWAP1 PUSH1 0x3 SHL SHR NOT AND OR SWAP1 JUMP JUMPDEST SWAP1 SSTORE JUMPDEST SWAP2 MLOAD SWAP2 ADD DUP1 SLOAD PUSH1 0x1 PUSH1 0x1 PUSH1 0xA0 SHL SUB NOT AND PUSH1 0x1 PUSH1 0x1 PUSH1 0xA0 SHL SUB SWAP3 SWAP1 SWAP3 AND SWAP2 SWAP1 SWAP2 OR SWAP1 SSTORE STOP JUMPDEST ADD MLOAD SWAP1 POP DUP8 DUP1 PUSH2 0x1FA JUMP JUMPDEST PUSH1 0x1F NOT DUP3 AND SWAP6 DUP4 PUSH1 0x0 MSTORE DUP2 PUSH1 0x0 KECCAK256 SWAP7 PUSH1 0x0 JUMPDEST DUP2 DUP2 LT PUSH2 0xDC3 JUMPI POP SWAP2 PUSH1 0x7 SWAP7 SWAP8 SWAP2 DUP5 PUSH1 0x1 SWAP6 SWAP5 LT PUSH2 0xDAA JUMPI JUMPDEST POP POP POP DUP2 SHL ADD SWAP1 SSTORE PUSH2 0xD43 JUMP JUMPDEST ADD MLOAD PUSH1 0x0 NOT PUSH1 0xF8 DUP5 PUSH1 0x3 SHL AND SHR NOT AND SWAP1 SSTORE DUP7 DUP1 DUP1 PUSH2 0xD9D JUMP JUMPDEST DUP4 DUP4 ADD MLOAD DUP10 SSTORE PUSH1 0x1 SWAP1 SWAP9 ADD SWAP8 PUSH1 0x20 SWAP4 DUP5 ADD SWAP4 ADD PUSH2 0xD84 JUMP JUMPDEST PUSH2 0xE07 SWAP1 DUP4 PUSH1 0x0 MSTORE PUSH1 0x20 PUSH1 0x0 KECCAK256 PUSH1 0x1F DUP5 ADD PUSH1 0x5 SHR DUP2 ADD SWAP2 PUSH1 0x20 DUP6 LT PUSH2 0x3B9 JUMPI PUSH1 0x1F ADD PUSH1 0x5 SHR ADD SWAP1 PUSH2 0x19DF JUMP JUMPDEST DUP6 PUSH2 0xD0C JUMP JUMPDEST ADD MLOAD SWAP1 POP DUP9 DUP1 PUSH2 0x1FA JUMP JUMPDEST SWAP1 PUSH1 0x1F NOT DUP4 AND SWAP2 DUP5 PUSH1 0x0 MSTORE DUP2 PUSH1 0x0 KECCAK256 SWAP3 PUSH1 0x0 JUMPDEST DUP2 DUP2 LT PUSH2 0xE67 JUMPI POP SWAP1 DUP5 PUSH1 0x1 SWAP6 SWAP5 SWAP4 SWAP3 LT PUSH2 0xE4E JUMPI JUMPDEST POP POP POP DUP2 SHL ADD SWAP1 SSTORE PUSH2 0xCBE JUMP JUMPDEST ADD MLOAD PUSH1 0x0 NOT PUSH1 0xF8 DUP5 PUSH1 0x3 SHL AND SHR NOT AND SWAP1 SSTORE DUP8 DUP1 DUP1 PUSH2 0xE41 JUMP JUMPDEST SWAP3 SWAP4 PUSH1 0x20 PUSH1 0x1 DUP2 SWAP3 DUP8 DUP7 ADD MLOAD DUP2 SSTORE ADD SWAP6 ADD SWAP4 ADD PUSH2 0xE2B JUMP JUMPDEST PUSH2 0xEAB SWAP1 DUP5 PUSH1 0x0 MSTORE PUSH1 0x20 PUSH1 0x0 KECCAK256 PUSH1 0x1F DUP6 ADD PUSH1 0x5 SHR DUP2 ADD SWAP2 PUSH1 0x20 DUP7 LT PUSH2 0x3B9 JUMPI PUSH1 0x1F ADD PUSH1 0x5 SHR ADD SWAP1 PUSH2 0x19DF JUMP JUMPDEST DUP8 PUSH2 0xC8A JUMP JUMPDEST DUP1 MLOAD DUP1 MLOAD SWAP1 PUSH1 0x1 PUSH1 0x1 PUSH1 0x40 SHL SUB DUP3 GT PUSH2 0x3C3 JUMPI PUSH2 0xECE DUP7 SLOAD PUSH2 0x170B JUMP JUMPDEST PUSH1 0x1F DUP2 GT PUSH2 0xF97 JUMPI JUMPDEST POP PUSH1 0x20 SWAP1 PUSH1 0x1F DUP4 GT PUSH1 0x1 EQ PUSH2 0xF2A JUMPI SWAP3 PUSH2 0xF10 DUP4 PUSH1 0x1 SWAP6 SWAP5 PUSH1 0x20 SWAP5 DUP8 SWAP7 PUSH1 0x0 SWAP3 PUSH2 0xF1F JUMPI POP POP DUP2 PUSH1 0x1 SHL SWAP2 PUSH1 0x0 NOT SWAP1 PUSH1 0x3 SHL SHR NOT AND OR SWAP1 JUMP JUMPDEST DUP8 SSTORE JUMPDEST ADD SWAP5 ADD SWAP2 ADD SWAP1 SWAP3 PUSH2 0xC55 JUMP JUMPDEST ADD MLOAD SWAP1 POP DUP16 DUP1 PUSH2 0x1FA JUMP JUMPDEST SWAP1 PUSH1 0x1F NOT DUP4 AND SWAP2 DUP8 PUSH1 0x0 MSTORE DUP2 PUSH1 0x0 KECCAK256 SWAP3 PUSH1 0x0 JUMPDEST DUP2 DUP2 LT PUSH2 0xF7F JUMPI POP SWAP4 PUSH1 0x20 SWAP4 PUSH1 0x1 SWAP7 SWAP4 DUP8 SWAP7 SWAP4 DUP4 DUP9 SWAP6 LT PUSH2 0xF66 JUMPI JUMPDEST POP POP POP DUP2 SHL ADD DUP8 SSTORE PUSH2 0xF13 JUMP JUMPDEST ADD MLOAD PUSH1 0x0 NOT PUSH1 0xF8 DUP5 PUSH1 0x3 SHL AND SHR NOT AND SWAP1 SSTORE DUP15 DUP1 DUP1 PUSH2 0xF59 JUMP JUMPDEST SWAP3 SWAP4 PUSH1 0x20 PUSH1 0x1 DUP2 SWAP3 DUP8 DUP7 ADD MLOAD DUP2 SSTORE ADD SWAP6 ADD SWAP4 ADD PUSH2 0xF3D JUMP JUMPDEST PUSH2 0xFC3 SWAP1 DUP8 PUSH1 0x0 MSTORE PUSH1 0x20 PUSH1 0x0 KECCAK256 PUSH1 0x1F DUP6 ADD PUSH1 0x5 SHR DUP2 ADD SWAP2 PUSH1 0x20 DUP7 LT PUSH2 0x3B9 JUMPI PUSH1 0x1F ADD PUSH1 0x5 SHR ADD SWAP1 PUSH2 0x19DF JUMP JUMPDEST DUP12 PUSH2 0xED7 JUMP JUMPDEST DUP4 PUSH1 0x0 MSTORE DUP3 PUSH1 0x20 PUSH1 0x0 KECCAK256 SWAP2 DUP3 ADD SWAP2 ADD JUMPDEST DUP2 DUP2 LT PUSH2 0xFE6 JUMPI POP PUSH2 0xC43 JUMP JUMPDEST DUP1 PUSH2 0xFF3 PUSH1 0x1 SWAP3 SLOAD PUSH2 0x170B JUMP JUMPDEST DUP1 PUSH2 0x1000 JUMPI JUMPDEST POP ADD PUSH2 0xFD9 JUMP JUMPDEST PUSH1 0x1F DUP2 GT DUP4 EQ PUSH2 0x1016 JUMPI POP PUSH1 0x0 DUP2 SSTORE JUMPDEST DUP12 PUSH2 0xFF9 JUMP JUMPDEST PUSH2 0x1034 SWAP1 DUP3 PUSH1 0x0 MSTORE DUP4 PUSH1 0x1F PUSH1 0x20 PUSH1 0x0 KECCAK256 SWAP3 ADD PUSH1 0x5 SHR DUP3 ADD SWAP2 ADD PUSH2 0x19DF JUMP JUMPDEST DUP1 PUSH1 0x0 MSTORE PUSH1 0x0 PUSH1 0x20 DUP2 KECCAK256 DUP2 DUP4 SSTORE SSTORE PUSH2 0x1010 JUMP JUMPDEST DUP1 MLOAD DUP1 MLOAD SWAP1 PUSH1 0x1 PUSH1 0x1 PUSH1 0x40 SHL SUB DUP3 GT PUSH2 0x3C3 JUMPI PUSH2 0x1064 DUP7 SLOAD PUSH2 0x170B JUMP JUMPDEST PUSH1 0x1F DUP2 GT PUSH2 0x1122 JUMPI JUMPDEST POP PUSH1 0x20 SWAP1 PUSH1 0x1F DUP4 GT PUSH1 0x1 EQ PUSH2 0x10B5 JUMPI SWAP3 PUSH2 0x10A6 DUP4 PUSH1 0x1 SWAP6 SWAP5 PUSH1 0x20 SWAP5 DUP8 SWAP7 PUSH1 0x0 SWAP3 PUSH2 0x447 JUMPI POP POP DUP2 PUSH1 0x1 SHL SWAP2 PUSH1 0x0 NOT SWAP1 PUSH1 0x3 SHL SHR NOT AND OR SWAP1 JUMP JUMPDEST DUP8 SSTORE JUMPDEST ADD SWAP5 ADD SWAP2 ADD SWAP1 SWAP3 PUSH2 0xC17 JUMP JUMPDEST SWAP1 PUSH1 0x1F NOT DUP4 AND SWAP2 DUP8 PUSH1 0x0 MSTORE DUP2 PUSH1 0x0 KECCAK256 SWAP3 PUSH1 0x0 JUMPDEST DUP2 DUP2 LT PUSH2 0x110A JUMPI POP SWAP4 PUSH1 0x20 SWAP4 PUSH1 0x1 SWAP7 SWAP4 DUP8 SWAP7 SWAP4 DUP4 DUP9 SWAP6 LT PUSH2 0x10F1 JUMPI JUMPDEST POP POP POP DUP2 SHL ADD DUP8 SSTORE PUSH2 0x10A9 JUMP JUMPDEST ADD MLOAD PUSH1 0x0 NOT PUSH1 0xF8 DUP5 PUSH1 0x3 SHL AND SHR NOT AND SWAP1 SSTORE DUP16 DUP1 DUP1 PUSH2 0x10E4 JUMP JUMPDEST SWAP3 SWAP4 PUSH1 0x20 PUSH1 0x1 DUP2 SWAP3 DUP8 DUP7 ADD MLOAD DUP2 SSTORE ADD SWAP6 ADD SWAP4 ADD PUSH2 0x10C8 JUMP JUMPDEST PUSH2 0x114E SWAP1 DUP8 PUSH1 0x0 MSTORE PUSH1 0x20 PUSH1 0x0 KECCAK256 PUSH1 0x1F DUP6 ADD PUSH1 0x5 SHR DUP2 ADD SWAP2 PUSH1 0x20 DUP7 LT PUSH2 0x3B9 JUMPI PUSH1 0x1F ADD PUSH1 0x5 SHR ADD SWAP1 PUSH2 0x19DF JUMP JUMPDEST DUP13 PUSH2 0x106D JUMP JUMPDEST DUP4 PUSH1 0x0 MSTORE DUP3 PUSH1 0x20 PUSH1 0x0 KECCAK256 SWAP2 DUP3 ADD SWAP2 ADD JUMPDEST DUP2 DUP2 LT PUSH2 0x1171 JUMPI POP PUSH2 0xC05 JUMP JUMPDEST DUP1 PUSH2 0x117E PUSH1 0x1 SWAP3 SLOAD PUSH2 0x170B JUMP JUMPDEST DUP1 PUSH2 0x118B JUMPI JUMPDEST POP ADD PUSH2 0x1164 JUMP JUMPDEST PUSH1 0x1F DUP2 GT DUP4 EQ PUSH2 0x11A1 JUMPI POP PUSH1 0x0 DUP2 SSTORE JUMPDEST DUP13 PUSH2 0x1184 JUMP JUMPDEST PUSH2 0x11BF SWAP1 DUP3 PUSH1 0x0 MSTORE DUP4 PUSH1 0x1F PUSH1 0x20 PUSH1 0x0 KECCAK256 SWAP3 ADD PUSH1 0x5 SHR DUP3 ADD SWAP2 ADD PUSH2 0x19DF JUMP JUMPDEST DUP1 PUSH1 0x0 MSTORE PUSH1 0x0 PUSH1 0x20 DUP2 KECCAK256 DUP2 DUP4 SSTORE SSTORE PUSH2 0x119B JUMP JUMPDEST ADD MLOAD SWAP1 POP DUP12 DUP1 PUSH2 0x1FA JUMP JUMPDEST SWAP1 PUSH1 0x1F NOT DUP4 AND SWAP2 DUP5 PUSH1 0x0 MSTORE DUP2 PUSH1 0x0 KECCAK256 SWAP3 PUSH1 0x0 JUMPDEST DUP2 DUP2 LT PUSH2 0x122C JUMPI POP SWAP1 DUP5 PUSH1 0x1 SWAP6 SWAP5 SWAP4 SWAP3 LT PUSH2 0x1213 JUMPI JUMPDEST POP POP POP DUP2 SHL ADD SWAP1 SSTORE PUSH2 0xBE5 JUMP JUMPDEST ADD MLOAD PUSH1 0x0 NOT PUSH1 0xF8 DUP5 PUSH1 0x3 SHL AND SHR NOT AND SWAP1 SSTORE DUP11 DUP1 DUP1 PUSH2 0x1206 JUMP JUMPDEST SWAP3 SWAP4 PUSH1 0x20 PUSH1 0x1 DUP2 SWAP3 DUP8 DUP7 ADD MLOAD DUP2 SSTORE ADD SWAP6 ADD SWAP4 ADD PUSH2 0x11F0 JUMP JUMPDEST PUSH2 0x1270 SWAP1 DUP5 PUSH1 0x0 MSTORE PUSH1 0x20 PUSH1 0x0 KECCAK256 PUSH1 0x1F DUP6 ADD PUSH1 0x5 SHR DUP2 ADD SWAP2 PUSH1 0x20 DUP7 LT PUSH2 0x3B9 JUMPI PUSH1 0x1F ADD PUSH1 0x5 SHR ADD SWAP1 PUSH2 0x19DF JUMP JUMPDEST DUP11 PUSH2 0xBB1 JUMP JUMPDEST SWAP1 PUSH1 0x1F NOT DUP4 AND SWAP2 DUP10 PUSH1 0x0 MSTORE DUP2 PUSH1 0x0 KECCAK256 SWAP3 PUSH1 0x0 JUMPDEST DUP2 DUP2 LT PUSH2 0x12C5 JUMPI POP SWAP1 DUP5 PUSH1 0x1 SWAP6 SWAP5 SWAP4 SWAP3 LT PUSH2 0x12AC JUMPI JUMPDEST POP POP POP DUP2 SHL ADD DUP7 SSTORE PUSH2 0xB88 JUMP JUMPDEST ADD MLOAD PUSH1 0x0 NOT PUSH1 0xF8 DUP5 PUSH1 0x3 SHL AND SHR NOT AND SWAP1 SSTORE DUP11 DUP1 DUP1 PUSH2 0x129F JUMP JUMPDEST SWAP3 SWAP4 PUSH1 0x20 PUSH1 0x1 DUP2 SWAP3 DUP8 DUP7 ADD MLOAD DUP2 SSTORE ADD SWAP6 ADD SWAP4 ADD PUSH2 0x1289 JUMP JUMPDEST PUSH2 0x1309 SWAP1 DUP10 PUSH1 0x0 MSTORE PUSH1 0x20 PUSH1 0x0 KECCAK256 PUSH1 0x1F DUP6 ADD PUSH1 0x5 SHR DUP2 ADD SWAP2 PUSH1 0x20 DUP7 LT PUSH2 0x3B9 JUMPI PUSH1 0x1F ADD PUSH1 0x5 SHR ADD SWAP1 PUSH2 0x19DF JUMP JUMPDEST DUP11 PUSH2 0xB54 JUMP JUMPDEST PUSH1 0x40 MLOAD PUSH3 0x461BCD PUSH1 0xE5 SHL DUP2 MSTORE PUSH1 0x20 PUSH1 0x4 DUP3 ADD MSTORE PUSH1 0x11 PUSH1 0x24 DUP3 ADD MSTORE PUSH17 0x496E76616C6964204F626174204E616D65 PUSH1 0x78 SHL PUSH1 0x44 DUP3 ADD MSTORE PUSH1 0x64 SWAP1 REVERT JUMPDEST PUSH1 0x40 MLOAD PUSH3 0x461BCD PUSH1 0xE5 SHL DUP2 MSTORE PUSH1 0x20 PUSH1 0x4 DUP3 ADD MSTORE PUSH1 0xF PUSH1 0x24 DUP3 ADD MSTORE PUSH15 0x125B9D985B1A590813D8985D081251 PUSH1 0x8A SHL PUSH1 0x44 DUP3 ADD MSTORE PUSH1 0x64 SWAP1 REVERT JUMPDEST CALLVALUE PUSH2 0x6B7 JUMPI PUSH1 0x20 CALLDATASIZE PUSH1 0x3 NOT ADD SLT PUSH2 0x6B7 JUMPI PUSH1 0x4 CALLDATALOAD PUSH1 0x1 PUSH1 0x1 PUSH1 0x40 SHL SUB DUP2 GT PUSH2 0x6B7 JUMPI PUSH1 0x20 PUSH2 0x13B4 PUSH2 0x13C0 SWAP3 CALLDATASIZE SWAP1 PUSH1 0x4 ADD PUSH2 0x1692 JUMP JUMPDEST PUSH2 0x740 DUP2 MLOAD ISZERO ISZERO PUSH2 0x194E JUMP JUMPDEST DUP2 ADD PUSH1 0x1 DUP2 MSTORE SUB ADD SWAP1 KECCAK256 DUP1 SLOAD SWAP1 PUSH2 0x13D6 DUP3 PUSH2 0x1887 JUMP JUMPDEST SWAP2 PUSH2 0x13E4 PUSH1 0x40 MLOAD SWAP4 DUP5 PUSH2 0x1671 JUMP JUMPDEST DUP1 DUP4 MSTORE PUSH1 0x20 DUP4 ADD DUP1 SWAP3 PUSH1 0x0 MSTORE PUSH1 0x20 PUSH1 0x0 KECCAK256 PUSH1 0x0 SWAP2 JUMPDEST DUP4 DUP4 LT PUSH2 0x14D1 JUMPI DUP5 DUP7 PUSH1 0x40 MLOAD SWAP2 DUP3 SWAP2 PUSH1 0x20 DUP4 ADD SWAP1 PUSH1 0x20 DUP5 MSTORE MLOAD DUP1 SWAP2 MSTORE PUSH1 0x40 DUP4 ADD SWAP1 PUSH1 0x40 DUP2 PUSH1 0x5 SHL DUP6 ADD ADD SWAP3 SWAP2 PUSH1 0x0 SWAP1 JUMPDEST DUP3 DUP3 LT PUSH2 0x1438 JUMPI POP POP POP POP SUB SWAP1 RETURN JUMPDEST SWAP2 SWAP4 PUSH1 0x1 SWAP2 SWAP4 SWAP6 POP PUSH1 0x20 PUSH2 0x14C1 DUP2 SWAP3 PUSH1 0x3F NOT DUP11 DUP3 SUB ADD DUP7 MSTORE DUP9 MLOAD SWAP1 DUP2 MLOAD PUSH2 0x145E DUP2 PUSH2 0x180E JUMP JUMPDEST DUP2 MSTORE PUSH1 0xA0 PUSH2 0x14B0 PUSH2 0x1491 PUSH2 0x147F DUP8 DUP7 ADD MLOAD PUSH1 0xC0 DUP10 DUP8 ADD MSTORE PUSH1 0xC0 DUP7 ADD SWAP1 PUSH2 0x17E9 JUMP JUMPDEST PUSH1 0x40 DUP7 ADD MLOAD DUP6 DUP3 SUB PUSH1 0x40 DUP8 ADD MSTORE PUSH2 0x17E9 JUMP JUMPDEST PUSH1 0xFF PUSH1 0x60 DUP7 ADD MLOAD AND PUSH1 0x60 DUP6 ADD MSTORE PUSH1 0x80 DUP6 ADD MLOAD DUP5 DUP3 SUB PUSH1 0x80 DUP7 ADD MSTORE PUSH2 0x182E JUMP JUMPDEST SWAP3 ADD MLOAD SWAP1 PUSH1 0xA0 DUP2 DUP5 SUB SWAP2 ADD MSTORE PUSH2 0x17E9 JUMP JUMPDEST SWAP7 ADD SWAP3 ADD SWAP3 ADD DUP6 SWAP5 SWAP4 SWAP2 SWAP3 PUSH2 0x1429 JUMP JUMPDEST PUSH1 0x6 PUSH1 0x20 PUSH1 0x1 SWAP3 PUSH1 0x40 MLOAD PUSH2 0x14E4 DUP2 PUSH2 0x163A JUMP JUMPDEST PUSH1 0xFF DUP7 SLOAD AND PUSH2 0x14F2 DUP2 PUSH2 0x180E JUMP JUMPDEST DUP2 MSTORE PUSH2 0x14FF DUP6 DUP8 ADD PUSH2 0x1745 JUMP JUMPDEST DUP4 DUP3 ADD MSTORE PUSH2 0x150F PUSH1 0x2 DUP8 ADD PUSH2 0x1745 JUMP JUMPDEST PUSH1 0x40 DUP3 ADD MSTORE PUSH1 0xFF PUSH1 0x3 DUP8 ADD SLOAD AND PUSH1 0x60 DUP3 ADD MSTORE PUSH2 0x152D PUSH1 0x4 DUP8 ADD PUSH2 0x1987 JUMP JUMPDEST PUSH1 0x80 DUP3 ADD MSTORE PUSH2 0x153E PUSH1 0x5 DUP8 ADD PUSH2 0x1745 JUMP JUMPDEST PUSH1 0xA0 DUP3 ADD MSTORE DUP2 MSTORE ADD SWAP3 ADD SWAP3 ADD SWAP2 SWAP1 PUSH2 0x13F9 JUMP JUMPDEST CALLVALUE PUSH2 0x6B7 JUMPI PUSH1 0x20 CALLDATASIZE PUSH1 0x3 NOT ADD SLT PUSH2 0x6B7 JUMPI PUSH1 0x4 CALLDATALOAD PUSH1 0x1 PUSH1 0x1 PUSH1 0x40 SHL SUB DUP2 GT PUSH2 0x6B7 JUMPI PUSH2 0x1589 PUSH1 0x20 PUSH2 0x740 PUSH2 0x15F8 SWAP4 CALLDATASIZE SWAP1 PUSH1 0x4 ADD PUSH2 0x1692 JUMP JUMPDEST DUP2 ADD PUSH1 0x0 DUP2 MSTORE SUB ADD SWAP1 KECCAK256 PUSH2 0x159C DUP2 PUSH2 0x1745 JUMP JUMPDEST SWAP1 PUSH2 0x1630 PUSH2 0x15AC PUSH1 0x1 DUP4 ADD PUSH2 0x1745 JUMP JUMPDEST SWAP2 PUSH2 0x15B9 PUSH1 0x4 DUP3 ADD PUSH2 0x1745 JUMP JUMPDEST SWAP1 PUSH2 0x1614 PUSH1 0xFF PUSH1 0x5 DUP4 ADD SLOAD AND SWAP3 PUSH2 0x1606 PUSH2 0x15D5 PUSH1 0x6 DUP6 ADD PUSH2 0x1745 JUMP JUMPDEST SWAP4 PUSH1 0x7 PUSH1 0x1 DUP1 PUSH1 0xA0 SHL SUB SWAP2 ADD SLOAD AND SWAP7 PUSH1 0x40 MLOAD SWAP10 DUP11 SWAP10 PUSH1 0xC0 DUP12 MSTORE PUSH1 0xC0 DUP12 ADD SWAP1 PUSH2 0x17E9 JUMP JUMPDEST SWAP1 DUP10 DUP3 SUB PUSH1 0x20 DUP12 ADD MSTORE PUSH2 0x17E9 JUMP JUMPDEST SWAP1 DUP8 DUP3 SUB PUSH1 0x40 DUP10 ADD MSTORE PUSH2 0x17E9 JUMP JUMPDEST SWAP2 PUSH2 0x161E DUP2 PUSH2 0x180E JUMP JUMPDEST PUSH1 0x60 DUP7 ADD MSTORE DUP5 DUP3 SUB PUSH1 0x80 DUP7 ADD MSTORE PUSH2 0x17E9 JUMP JUMPDEST SWAP1 PUSH1 0xA0 DUP4 ADD MSTORE SUB SWAP1 RETURN JUMPDEST PUSH1 0xC0 DUP2 ADD SWAP1 DUP2 LT PUSH1 0x1 PUSH1 0x1 PUSH1 0x40 SHL SUB DUP3 GT OR PUSH2 0x3C3 JUMPI PUSH1 0x40 MSTORE JUMP JUMPDEST PUSH2 0x100 DUP2 ADD SWAP1 DUP2 LT PUSH1 0x1 PUSH1 0x1 PUSH1 0x40 SHL SUB DUP3 GT OR PUSH2 0x3C3 JUMPI PUSH1 0x40 MSTORE JUMP JUMPDEST SWAP1 PUSH1 0x1F DUP1 NOT SWAP2 ADD AND DUP2 ADD SWAP1 DUP2 LT PUSH1 0x1 PUSH1 0x1 PUSH1 0x40 SHL SUB DUP3 GT OR PUSH2 0x3C3 JUMPI PUSH1 0x40 MSTORE JUMP JUMPDEST DUP2 PUSH1 0x1F DUP3 ADD SLT ISZERO PUSH2 0x6B7 JUMPI DUP1 CALLDATALOAD SWAP1 PUSH1 0x1 PUSH1 0x1 PUSH1 0x40 SHL SUB DUP3 GT PUSH2 0x3C3 JUMPI PUSH1 0x40 MLOAD SWAP3 PUSH2 0x16C6 PUSH1 0x1F DUP5 ADD PUSH1 0x1F NOT AND PUSH1 0x20 ADD DUP6 PUSH2 0x1671 JUMP JUMPDEST DUP3 DUP5 MSTORE PUSH1 0x20 DUP4 DUP4 ADD ADD GT PUSH2 0x6B7 JUMPI DUP2 PUSH1 0x0 SWAP3 PUSH1 0x20 DUP1 SWAP4 ADD DUP4 DUP7 ADD CALLDATACOPY DUP4 ADD ADD MSTORE SWAP1 JUMP JUMPDEST PUSH1 0x0 JUMPDEST DUP4 DUP2 LT PUSH2 0x16FB JUMPI POP POP PUSH1 0x0 SWAP2 ADD MSTORE JUMP JUMPDEST DUP2 DUP2 ADD MLOAD DUP4 DUP3 ADD MSTORE PUSH1 0x20 ADD PUSH2 0x16EB JUMP JUMPDEST SWAP1 PUSH1 0x1 DUP3 DUP2 SHR SWAP3 AND DUP1 ISZERO PUSH2 0x173B JUMPI JUMPDEST PUSH1 0x20 DUP4 LT EQ PUSH2 0x1725 JUMPI JUMP JUMPDEST PUSH4 0x4E487B71 PUSH1 0xE0 SHL PUSH1 0x0 MSTORE PUSH1 0x22 PUSH1 0x4 MSTORE PUSH1 0x24 PUSH1 0x0 REVERT JUMPDEST SWAP2 PUSH1 0x7F AND SWAP2 PUSH2 0x171A JUMP JUMPDEST SWAP1 PUSH1 0x40 MLOAD SWAP2 DUP3 PUSH1 0x0 DUP3 SLOAD SWAP3 PUSH2 0x1759 DUP5 PUSH2 0x170B JUMP JUMPDEST DUP1 DUP5 MSTORE SWAP4 PUSH1 0x1 DUP2 AND SWAP1 DUP2 ISZERO PUSH2 0x17C7 JUMPI POP PUSH1 0x1 EQ PUSH2 0x1780 JUMPI JUMPDEST POP PUSH2 0x177E SWAP3 POP SUB DUP4 PUSH2 0x1671 JUMP JUMPDEST JUMP JUMPDEST SWAP1 POP PUSH1 0x0 SWAP3 SWAP2 SWAP3 MSTORE PUSH1 0x20 PUSH1 0x0 KECCAK256 SWAP1 PUSH1 0x0 SWAP2 JUMPDEST DUP2 DUP4 LT PUSH2 0x17AB JUMPI POP POP SWAP1 PUSH1 0x20 PUSH2 0x177E SWAP3 DUP3 ADD ADD CODESIZE PUSH2 0x1771 JUMP JUMPDEST PUSH1 0x20 SWAP2 SWAP4 POP DUP1 PUSH1 0x1 SWAP2 SLOAD DUP4 DUP6 DUP10 ADD ADD MSTORE ADD SWAP2 ADD SWAP1 SWAP2 DUP5 SWAP3 PUSH2 0x1792 JUMP JUMPDEST SWAP1 POP PUSH1 0x20 SWAP3 POP PUSH2 0x177E SWAP5 SWAP2 POP PUSH1 0xFF NOT AND DUP3 DUP5 ADD MSTORE ISZERO ISZERO PUSH1 0x5 SHL DUP3 ADD ADD CODESIZE PUSH2 0x1771 JUMP JUMPDEST SWAP1 PUSH1 0x20 SWAP2 PUSH2 0x1802 DUP2 MLOAD DUP1 SWAP3 DUP2 DUP6 MSTORE DUP6 DUP1 DUP7 ADD SWAP2 ADD PUSH2 0x16E8 JUMP JUMPDEST PUSH1 0x1F ADD PUSH1 0x1F NOT AND ADD ADD SWAP1 JUMP JUMPDEST PUSH1 0x2 GT ISZERO PUSH2 0x1818 JUMPI JUMP JUMPDEST PUSH4 0x4E487B71 PUSH1 0xE0 SHL PUSH1 0x0 MSTORE PUSH1 0x21 PUSH1 0x4 MSTORE PUSH1 0x24 PUSH1 0x0 REVERT JUMPDEST SWAP1 DUP1 PUSH1 0x20 DUP4 MLOAD SWAP2 DUP3 DUP2 MSTORE ADD SWAP2 PUSH1 0x20 DUP1 DUP4 PUSH1 0x5 SHL DUP4 ADD ADD SWAP5 ADD SWAP3 PUSH1 0x0 SWAP2 JUMPDEST DUP4 DUP4 LT PUSH2 0x185A JUMPI POP POP POP POP POP SWAP1 JUMP JUMPDEST SWAP1 SWAP2 SWAP3 SWAP4 SWAP5 PUSH1 0x20 DUP1 PUSH2 0x1878 PUSH1 0x1 SWAP4 PUSH1 0x1F NOT DUP7 DUP3 SUB ADD DUP8 MSTORE DUP10 MLOAD PUSH2 0x17E9 JUMP JUMPDEST SWAP8 ADD SWAP4 ADD SWAP4 ADD SWAP2 SWAP4 SWAP3 SWAP1 PUSH2 0x184B JUMP JUMPDEST PUSH1 0x1 PUSH1 0x1 PUSH1 0x40 SHL SUB DUP2 GT PUSH2 0x3C3 JUMPI PUSH1 0x5 SHL PUSH1 0x20 ADD SWAP1 JUMP JUMPDEST SWAP1 DUP1 PUSH1 0x1F DUP4 ADD SLT ISZERO PUSH2 0x6B7 JUMPI DUP2 CALLDATALOAD PUSH2 0x18B5 DUP2 PUSH2 0x1887 JUMP JUMPDEST SWAP3 PUSH2 0x18C3 PUSH1 0x40 MLOAD SWAP5 DUP6 PUSH2 0x1671 JUMP JUMPDEST DUP2 DUP5 MSTORE PUSH1 0x20 DUP1 DUP6 ADD SWAP3 PUSH1 0x5 SHL DUP3 ADD ADD SWAP2 DUP4 DUP4 GT PUSH2 0x6B7 JUMPI PUSH1 0x20 DUP3 ADD SWAP1 JUMPDEST DUP4 DUP3 LT PUSH2 0x18EF JUMPI POP POP POP POP POP SWAP1 JUMP JUMPDEST DUP2 CALLDATALOAD PUSH1 0x1 PUSH1 0x1 PUSH1 0x40 SHL SUB DUP2 GT PUSH2 0x6B7 JUMPI PUSH1 0x20 SWAP2 PUSH2 0x1911 DUP8 DUP5 DUP1 SWAP5 DUP9 ADD ADD PUSH2 0x1692 JUMP JUMPDEST DUP2 MSTORE ADD SWAP2 ADD SWAP1 PUSH2 0x18E0 JUMP JUMPDEST DUP1 SLOAD DUP3 LT ISZERO PUSH2 0x1938 JUMPI PUSH1 0x0 MSTORE PUSH1 0x6 PUSH1 0x20 PUSH1 0x0 KECCAK256 SWAP2 MUL ADD SWAP1 PUSH1 0x0 SWAP1 JUMP JUMPDEST PUSH4 0x4E487B71 PUSH1 0xE0 SHL PUSH1 0x0 MSTORE PUSH1 0x32 PUSH1 0x4 MSTORE PUSH1 0x24 PUSH1 0x0 REVERT JUMPDEST ISZERO PUSH2 0x1955 JUMPI JUMP JUMPDEST PUSH1 0x40 MLOAD PUSH3 0x461BCD PUSH1 0xE5 SHL DUP2 MSTORE PUSH1 0x20 PUSH1 0x4 DUP3 ADD MSTORE PUSH1 0xA PUSH1 0x24 DUP3 ADD MSTORE PUSH10 0x125B9D985B1A59081251 PUSH1 0xB2 SHL PUSH1 0x44 DUP3 ADD MSTORE PUSH1 0x64 SWAP1 REVERT JUMPDEST SWAP1 DUP2 SLOAD PUSH2 0x1993 DUP2 PUSH2 0x1887 JUMP JUMPDEST SWAP3 PUSH2 0x19A1 PUSH1 0x40 MLOAD SWAP5 DUP6 PUSH2 0x1671 JUMP JUMPDEST DUP2 DUP5 MSTORE PUSH1 0x20 DUP5 ADD SWAP1 PUSH1 0x0 MSTORE PUSH1 0x20 PUSH1 0x0 KECCAK256 PUSH1 0x0 SWAP2 JUMPDEST DUP4 DUP4 LT PUSH2 0x19C2 JUMPI POP POP POP POP JUMP JUMPDEST PUSH1 0x1 PUSH1 0x20 DUP2 SWAP3 PUSH2 0x19D1 DUP6 PUSH2 0x1745 JUMP JUMPDEST DUP2 MSTORE ADD SWAP3 ADD SWAP3 ADD SWAP2 SWAP1 PUSH2 0x19B5 JUMP JUMPDEST DUP2 DUP2 LT PUSH2 0x19EA JUMPI POP POP JUMP JUMPDEST PUSH1 0x0 DUP2 SSTORE PUSH1 0x1 ADD PUSH2 0x19DF JUMP INVALID LOG2 PUSH5 0x6970667358 0x22 SLT KECCAK256 0x25 DUP1 SDIV 0xAF CODESIZE 0xC SWAP9 EXTCODEHASH 0x4F 0xE9 PUSH6 0x39B5AE794401 0xE4 DUP10 PUSH7 0x490884CA9BEDC3 0xAB 0xAD SLT EXP SUB PUSH5 0x736F6C6343 STOP ADDMOD SHL STOP CALLER "},"methodIdentifiers":{"addBatchProduction(string,string,string,uint8,string[],string)":"e521d586","getObatDetail(string)":"d6582672","getObatProduction(string)":"8d57ba0a","obatDetailsById(string)":"27321837","obatProductionById(string,uint256)":"ba2ffe4c","setObatDetail(string,string,string,string[],string[],string,uint8,string,address)":"a24f6509"}}}}}