{"contracts/MainSupplyChain.sol":{"MainSupplyChain":{"abi":[{"inputs":[],"stateMutability":"nonpayable","type":"constructor"},{"anonymous":false,"inputs":[{"indexed":false,"internalType":"address","name":"userAddr","type":"address"},{"indexed":false,"internalType":"string","name":"name","type":"string"},{"indexed":false,"internalType":"string","name":"instanceName","type":"string"},{"indexed":false,"internalType":"enum MainSupplyChain.en_roles","name":"role","type":"uint8"}],"name":"evt_UserRegistered","type":"event"},{"anonymous":false,"inputs":[{"indexed":false,"internalType":"address","name":"bpomAddr","type":"address"},{"indexed":false,"internalType":"string","name":"receiverName","type":"string"},{"indexed":false,"internalType":"string","name":"factoryName","type":"string"},{"indexed":false,"internalType":"string","name":"cpotbNumber","type":"string"},{"indexed":false,"internalType":"uint256","name":"timestampApprove","type":"uint256"}],"name":"evt_cpotbApproved","type":"event"},{"anonymous":false,"inputs":[{"indexed":false,"internalType":"string","name":"senderName","type":"string"},{"indexed":false,"internalType":"address","name":"factoryAddr","type":"address"},{"indexed":false,"internalType":"string","name":"factoryName","type":"string"},{"indexed":false,"internalType":"enum MainSupplyChain.en_jenisSediaan","name":"jenisSediaan","type":"uint8"},{"indexed":false,"internalType":"string","name":"cpotbId","type":"string"},{"indexed":false,"internalType":"uint256","name":"timestampRequest","type":"uint256"}],"name":"evt_cpotbRequested","type":"event"},{"inputs":[{"internalType":"uint256","name":"","type":"uint256"}],"name":"allCpotbData","outputs":[{"internalType":"string","name":"cpotbId","type":"string"},{"internalType":"string","name":"senderName","type":"string"},{"internalType":"address","name":"factoryAddr","type":"address"},{"internalType":"string","name":"factoryName","type":"string"},{"internalType":"enum MainSupplyChain.en_jenisSediaan","name":"jenisSediaan","type":"uint8"},{"internalType":"enum MainSupplyChain.en_statusCert","name":"status","type":"uint8"},{"internalType":"uint256","name":"timestampRequest","type":"uint256"},{"internalType":"uint256","name":"timestampApprove","type":"uint256"},{"internalType":"string","name":"cpotbNumber","type":"string"},{"internalType":"address","name":"bpomAddr","type":"address"},{"internalType":"string","name":"receiverName","type":"string"}],"stateMutability":"view","type":"function"},{"inputs":[{"internalType":"string","name":"_cpotbId","type":"string"},{"internalType":"string","name":"_cpotbNumber","type":"string"},{"internalType":"string","name":"_receiverName","type":"string"}],"name":"approveCpotb","outputs":[],"stateMutability":"nonpayable","type":"function"},{"inputs":[{"internalType":"string","name":"","type":"string"}],"name":"cpotbDataById","outputs":[{"internalType":"string","name":"cpotbId","type":"string"},{"internalType":"string","name":"senderName","type":"string"},{"internalType":"address","name":"factoryAddr","type":"address"},{"internalType":"string","name":"factoryName","type":"string"},{"internalType":"enum MainSupplyChain.en_jenisSediaan","name":"jenisSediaan","type":"uint8"},{"internalType":"enum MainSupplyChain.en_statusCert","name":"status","type":"uint8"},{"internalType":"uint256","name":"timestampRequest","type":"uint256"},{"internalType":"uint256","name":"timestampApprove","type":"uint256"},{"internalType":"string","name":"cpotbNumber","type":"string"},{"internalType":"address","name":"bpomAddr","type":"address"},{"internalType":"string","name":"receiverName","type":"string"}],"stateMutability":"view","type":"function"},{"inputs":[],"name":"getListAllCpotb","outputs":[{"internalType":"uint8[]","name":"","type":"uint8[]"},{"internalType":"string[]","name":"","type":"string[]"},{"internalType":"uint8[]","name":"","type":"uint8[]"},{"internalType":"uint256[]","name":"","type":"uint256[]"},{"internalType":"string[]","name":"","type":"string[]"}],"stateMutability":"view","type":"function"},{"inputs":[{"internalType":"string","name":"_instanceName","type":"string"}],"name":"getListCpotbByFactory","outputs":[{"internalType":"uint8[]","name":"","type":"uint8[]"},{"internalType":"uint8[]","name":"","type":"uint8[]"},{"internalType":"uint256[]","name":"","type":"uint256[]"},{"internalType":"string[]","name":"","type":"string[]"}],"stateMutability":"view","type":"function"},{"inputs":[{"internalType":"string","name":"_cpotbId","type":"string"}],"name":"getListCpotbById","outputs":[{"components":[{"internalType":"string","name":"cpotbId","type":"string"},{"internalType":"string","name":"senderName","type":"string"},{"internalType":"address","name":"factoryAddr","type":"address"},{"internalType":"string","name":"factoryName","type":"string"},{"internalType":"enum MainSupplyChain.en_jenisSediaan","name":"jenisSediaan","type":"uint8"},{"internalType":"enum MainSupplyChain.en_statusCert","name":"status","type":"uint8"},{"internalType":"uint256","name":"timestampRequest","type":"uint256"},{"internalType":"uint256","name":"timestampApprove","type":"uint256"},{"internalType":"string","name":"cpotbNumber","type":"string"},{"internalType":"address","name":"bpomAddr","type":"address"},{"internalType":"string","name":"receiverName","type":"string"}],"internalType":"struct MainSupplyChain.st_cpotbData","name":"","type":"tuple"}],"stateMutability":"view","type":"function"},{"inputs":[{"internalType":"address","name":"_userAddr","type":"address"}],"name":"getRegisteredUser","outputs":[{"internalType":"address","name":"","type":"address"},{"internalType":"string","name":"","type":"string"},{"internalType":"string","name":"","type":"string"},{"internalType":"uint8","name":"","type":"uint8"}],"stateMutability":"view","type":"function"},{"inputs":[{"internalType":"address","name":"user","type":"address"}],"name":"getRole","outputs":[{"internalType":"enum MainSupplyChain.en_roles","name":"","type":"uint8"},{"internalType":"address","name":"","type":"address"}],"stateMutability":"view","type":"function"},{"inputs":[],"name":"owner","outputs":[{"internalType":"address","name":"","type":"address"}],"stateMutability":"view","type":"function"},{"inputs":[{"internalType":"string","name":"_name","type":"string"},{"internalType":"string","name":"_instanceName","type":"string"},{"internalType":"address","name":"_userAddr","type":"address"},{"internalType":"uint8","name":"_userRole","type":"uint8"}],"name":"registerUser","outputs":[],"stateMutability":"nonpayable","type":"function"},{"inputs":[{"internalType":"string","name":"_instanceName","type":"string"},{"internalType":"string","name":"_cpotbId","type":"string"},{"internalType":"string","name":"_senderName","type":"string"},{"internalType":"enum MainSupplyChain.en_jenisSediaan","name":"_jenisSediaan","type":"uint8"}],"name":"requestCpotb","outputs":[],"stateMutability":"nonpayable","type":"function"},{"inputs":[{"internalType":"address","name":"","type":"address"}],"name":"userRoles","outputs":[{"internalType":"enum MainSupplyChain.en_roles","name":"","type":"uint8"}],"stateMutability":"view","type":"function"}],"evm":{"bytecode":{"linkReferences":{},"object":"60808060405234602757600080546001600160a01b0319163317905561244e908161002d8239f35b600080fdfe6080604052600436101561001257600080fd5b60003560e01c8063073a4cf81461109657806314fd887414610de65780634427673314610d9c5780636aa8129914610d3857806374d5e10014610cf25780637c4535e014610a9f5780638da5cb5b14610a76578063d123367214610679578063e54a29bb14610539578063ec17658714610361578063f02f5f231461026e5763fbe9a68e146100a057600080fd5b34610269576020366003190112610269576004356001600160401b038111610269576100d0903690600401611832565b6100d8611be3565b5060405190610105815192602081818501956100f58183896118f3565b81016004815203019020546119b4565b1561022457610128602061022093610137936040519384928392519283916118f3565b81016004815203019020611c4e565b604051918291602083526101406101f86101a661017b610165855161016060208a0152610180890190611916565b6020860151888203601f190160408a0152611916565b60408501516001600160a01b0316606088810191909152850151878203601f19016080890152611916565b60808401516101b4816119aa565b60a08701526101cb60a085015160c0880190611a71565b60c084015160e087015260e0840151610100870152610100840151601f1987830301610120880152611916565b6101208301516001600160a01b031685830152910151838203601f1901610160850152611916565b0390f35b60405162461bcd60e51b815260206004820152601a60248201527f4e6f206461746120666f756e6420666f7220746869732049442e0000000000006044820152606490fd5b600080fd5b34610269576020366003190112610269576004356005548110156102695761029590611b29565b50604051906102af826102a881846119ee565b0383611811565b6102206009604051926102d0846102c981600185016119ee565b0385611811565b60028101546040516001600160a01b03909116956102f5826102a881600387016119ee565b6004830154600584015490600685015492604051946103228661031b8160078b016119ee565b0387611811565b61034a60018060a01b0360088901541697610343604051809b8193016119ee565b0389611811565b6040519a8b9a60ff808660081c169516938c611a7e565b346102695760003660031901126102695760055461037e81611d4b565b61038782611d7d565b9161039181611d7d565b61039a82611d4b565b906103a483611d4b565b9260005b81811061040f576103d78661022089610401896103f38a6103e58b604051998a9960a08b5260a08b0190611888565b9089820360208b015261193b565b908782036040890152611888565b9085820360608701526118bf565b90838203608085015261193b565b60ff600461041c83611b29565b50015416610429816119aa565b6104338288611c3a565b5260ff600461044183611b29565b50015460081c169060028210156105235760019161045f8287611c3a565b52600361048661046e83611b29565b5061047f60405180948193016119ee565b0382611811565b6104908286611c3a565b5261049b8185611c3a565b5061047f6104b86104ab83611b29565b50604051928380926119ee565b6104c2828a611c3a565b526104cd8189611c3a565b5060066104d982611b29565b50015460056104e783611b29565b50015410156105105760066104fb82611b29565b5001545b6105098288611c3a565b52016103a8565b600561051b82611b29565b5001546104ff565b634e487b7160e01b600052602160045260246000fd5b34610269576020366003190112610269576001600160a01b0361055a611994565b1680600052600360205260ff604060002054161561063b576000526001602052604060002060405161058b816117f6565b60405161059c8161047f81866119ee565b81526002604051926105b5846102c981600185016119ee565b60208301938452015461063160ff604084019260018060a01b038116845260a01c16916105e1836119aa565b82606085015260018060a01b03905116925193516105fe836119aa565b610607836119aa565b6106236040519586958652608060208701526080860190611916565b908482036040860152611916565b9060608301520390f35b60405162461bcd60e51b8152602060048201526016602482015275155cd95c881a5cc81b9bdd081c9959da5cdd195c995960521b6044820152606490fd5b34610269576080366003190112610269576004356001600160401b038111610269576106a9903690600401611832565b6024356001600160401b038111610269576106c8903690600401611832565b906044356001600160a01b038116908190036102695760643560ff8116809103610269576106f5816119aa565b60405193610702856117f6565b838552602085019481865260408101908482526060810190610723856119aa565b848252856000526001602052604060002090518051906001600160401b03821161099d57819061075384546119b4565b601f8111610a23575b50602090601f83116001146109be576000926109b3575b50508160011b916000199060031b1c19161781555b6001810197519788516001600160401b03811161099d576107a982546119b4565b601f8111610955575b506020601f82116001146108c45791816108a597969594926002947f93b86cf0a1d8e18e724e08d47f7248859de317795be109ec2495f6fc7445b4e99d6000926108b9575b50508160011b916000199060031b1c19161790555b9251920180546001600160a01b0319166001600160a01b039390931692909217825551610838816119aa565b610841816119aa565b815460ff60a01b191660a09190911b60ff60a01b16179055610862836119aa565b8360005260026020526040600020610879846119aa565b8360ff198254161790558360005260036020526040600020600160ff19825416179055610607836119aa565b906108af816119aa565b60608301520390a1005b015190508d806107f7565b601f1982169a83600052816000209b60005b81811061093d5750927f93b86cf0a1d8e18e724e08d47f7248859de317795be109ec2495f6fc7445b4e99c60029593600193836108a59c9b9a999710610924575b505050811b01905561080c565b015160001960f88460031b161c191690558d8080610917565b838301518e556001909d019c602093840193016108d6565b826000526020600020601f830160051c81019160208410610993575b601f0160051c01905b81811061098757506107b2565b6000815560010161097a565b9091508190610971565b634e487b7160e01b600052604160045260246000fd5b015190508a80610773565b60008581528281209350601f198516905b818110610a0b57509084600195949392106109f2575b505050811b018155610788565b015160001960f88460031b161c191690558a80806109e5565b929360206001819287860151815501950193016109cf565b909150836000526020600020601f840160051c81019160208510610a6c575b90601f859493920160051c01905b818110610a5d575061075c565b60008155849350600101610a50565b9091508190610a42565b34610269576000366003190112610269576000546040516001600160a01b039091168152602090f35b34610269576080366003190112610269576004356001600160401b03811161026957610acf903690600401611832565b6024356001600160401b03811161026957610aee903690600401611832565b906044356001600160401b03811161026957610b0e903690600401611832565b60643560048110156102695733600052600260205260ff60406000205416610b35816119aa565b610ca35760405190610b46826117da565b848252826020830152336040830152836060830152610b64816119aa565b806080830152600060a08301524260c0830152600060e0830152602094604051610b8e8782611811565b600081526101008401526000610120840152604051610bad8782611811565b60008152610140840152610bde8360405188818551610bcf8183858a016118f3565b81016004815203019020611dc7565b6005546801000000000000000081101561099d57806001610c029201600555611b29565b939093610c8d577fe9b311c837d257b1f6982c63cbb418abca3880b67545d8ea67adc97e6626ef1e96610c5396610c3f610c6693610c8297611dc7565b60405197889760c0895260c0890190611916565b9133908801528682036040880152611916565b91610c70816119aa565b60608501528382036080850152611916565b4260a08301520390a1005b634e487b7160e01b600052600060045260246000fd5b60405162461bcd60e51b815260206004820152602160248201527f416363657373207265737472696374656420746f20466163746f727920726f6c6044820152606560f81b6064820152608490fd5b34610269576020366003190112610269576001600160a01b03610d13611994565b166000526002602052602060ff6040600020541660405190610d34816119aa565b8152f35b34610269576020366003190112610269576004356001600160401b038111610269576020610d6d610d80923690600401611832565b81604051938285809451938492016118f3565b81016004815203019020604051906102af826102a881846119ee565b34610269576020366003190112610269576001600160a01b03610dbd611994565b166000526002602052604060ff816000205416815190610ddc816119aa565b8152336020820152f35b34610269576020366003190112610269576004356001600160401b03811161026957610e16903690600401611832565b600554610e2281611bcc565b610e2f6040519182611811565b818152601f19610e3e83611bcc565b0160005b81811061107f5750506000928360208201905b848110610fbb578584610e6782611d4b565b91610e7181611d7d565b91610e7b82611d4b565b90610e8583611d4b565b9260005b818110610ede57610eb48761022088610ed089610ec28a604051978897608089526080890190611888565b908782036020890152611888565b9085820360408701526118bf565b90838203606085015261193b565b6080610eea8285611c3a565b510151610ef6816119aa565b610eff816119aa565b60ff610f0b838a611c3a565b9116905260a0610f1b8285611c3a565b5101519060028210156105235760019160009060ff610f3a8489611c3a565b91169052610f488286611c3a565b5151610f54838a611c3a565b52610f5f8289611c3a565b5060e0610f6c8387611c3a565b51015160c0610f7b8488611c3a565b51015110159050610fa75760e0610f928286611c3a565b5101515b610fa08288611c3a565b5201610e89565b60c0610fb38286611c3a565b510151610f96565b6003610fe0610fee610fcc84611b29565b506040519283916020830195869101611b5e565b03601f198101835282611811565b519020604051602081019061101d602082885161100c81878b6118f3565b81010301601f198101835282611811565b5190201461102e575b600101610e55565b9461104161103b87611b29565b50611c4e565b61104b8286611c3a565b526110568185611c3a565b5060001981146110695760010194611026565b634e487b7160e01b600052601160045260246000fd5b60209061108a611be3565b82828601015201610e42565b34610269576060366003190112610269576004356001600160401b038111610269576110c6903690600401611832565b6024356001600160401b038111610269576110e5903690600401611832565b6044356001600160401b03811161026957611104903690600401611832565b90336000526002602052600260ff60406000205416611122816119aa565b0361179557604051928051936020818184019661114081838a6118f3565b81016004815203019020906004820160ff815460081c166002811015610523576117505761010061ff00198254161790556007820183516001600160401b03811161099d5761118f82546119b4565b601f8111611708575b50806020601f82116001146116a55760009161169a575b508160011b916000199060031b1c19161790555b4260068301556008820180546001600160a01b03191633179055835160098301906001600160401b03811161099d576111fc82546119b4565b601f8111611652575b50806020601f82116001146115ef576000916115e4575b508160011b916000199060031b1c19161790555b60005b6005548110156115ae5761124681611b29565b5060405161125c81610fe0602082018095611b5e565b519020604051602081019061127c6020828461100c8d8a519283916118f3565b5190201461128c57600101611233565b945050600461129a85611b29565b5001805461ff00191661010017905560076112b485611b29565b5001938251946001600160401b03861161099d576112d281546119b4565b601f8111611566575b50602095601f81116001146114f957908161134593926009959697986000916114ee575b508160011b916000199060031b1c19161790555b61131c81611b29565b50600642910155600861132e82611b29565b500180546001600160a01b03191633179055611b29565b500183516001600160401b03811161099d5761136182546119b4565b601f81116114a6575b506020601f8211600114611414577fedc9920ea2d8611e7d985ecf390206409122b6df9a9c529063c5311531494be195936113fe93836113e197946113f094600091611409575b508160011b916000199060031b1c19161790555b600360405196879633885260a0602089015260a0880190611916565b918683036040880152016119ee565b908382036060850152611916565b4260808301520390a1005b90508701518a6113b1565b601f1982169083600052806000209160005b81811061148e5750936001846113f0947fedc9920ea2d8611e7d985ecf390206409122b6df9a9c529063c5311531494be19a98946113e19a976113fe9910611475575b5050811b0190556113c5565b89015160001960f88460031b161c191690558a80611469565b9192602060018192868c015181550194019201611426565b826000526020600020601f830160051c810191602084106114e4575b601f0160051c01905b8181106114d8575061136a565b600081556001016114cb565b90915081906114c2565b9050870151896112ff565b601f19811682600052876000209060005b81811061154e5750916001916009969798998261134597969510611535575b5050811b019055611313565b89015160001960f88460031b161c191690558980611529565b878a015183556020998a01996001909301920161150a565b816000526020600020601f880160051c810191602089106115a4575b601f0160051c01905b81811061159857506112db565b6000815560010161158b565b9091508190611582565b50507fedc9920ea2d8611e7d985ecf390206409122b6df9a9c529063c5311531494be193506113e192916113f06113fe926113c5565b90508601518861121c565b60008481528181209250601f198416905b81811061163a57509083600194939210611621575b5050811b019055611230565b88015160001960f88460031b161c191690558880611615565b9192602060018192868d015181550194019201611600565b826000526020600020601f830160051c81019160208410611690575b601f0160051c01905b8181106116845750611205565b60008155600101611677565b909150819061166e565b9050850151886111af565b60008481528181209250601f198416905b8181106116f0575090836001949392106116d7575b5050811b0190556111c3565b87015160001960f88460031b161c1916905588806116cb565b9192602060018192868c0151815501940192016116b6565b826000526020600020601f830160051c81019160208410611746575b601f0160051c01905b81811061173a5750611198565b6000815560010161172d565b9091508190611724565b60405162461bcd60e51b815260206004820152601d60248201527f43504f544220737461747573206d7573742062652070656e64696e67210000006044820152606490fd5b60405162461bcd60e51b815260206004820152601e60248201527f416363657373207265737472696374656420746f2042504f4d20726f6c6500006044820152606490fd5b61016081019081106001600160401b0382111761099d57604052565b608081019081106001600160401b0382111761099d57604052565b90601f801991011681019081106001600160401b0382111761099d57604052565b81601f82011215610269578035906001600160401b03821161099d5760405192611866601f8401601f191660200185611811565b8284526020838301011161026957816000926020809301838601378301015290565b906020808351928381520192019060005b8181106118a65750505090565b825160ff16845260209384019390920191600101611899565b906020808351928381520192019060005b8181106118dd5750505090565b82518452602093840193909201916001016118d0565b60005b8381106119065750506000910152565b81810151838201526020016118f6565b9060209161192f815180928185528580860191016118f3565b601f01601f1916010190565b9080602083519182815201916020808360051b8301019401926000915b83831061196757505050505090565b9091929394602080611985600193601f198682030187528951611916565b97019301930191939290611958565b600435906001600160a01b038216820361026957565b6004111561052357565b90600182811c921680156119e4575b60208310146119ce57565b634e487b7160e01b600052602260045260246000fd5b91607f16916119c3565b600092918154916119fe836119b4565b8083529260018116908115611a545750600114611a1a57505050565b60009081526020812093945091925b838310611a3a575060209250010190565b600181602092949394548385870101520191019190611a29565b915050602093945060ff929192191683830152151560051b010190565b9060028210156105235752565b9793611b069793611ad591611ab8611aee95611b269f9d999a95611aaa906101608f8181520190611916565b8d810360208f015290611916565b6001600160a01b0390921660408c01528a820360608c0152611916565b95611adf816119aa565b608089015260a0880190611a71565b60c086015260e0850152838203610100850152611916565b6001600160a01b0390931661012082015280830361014090910152611916565b90565b600554811015611b48576005600052600a602060002091020190600090565b634e487b7160e01b600052603260045260246000fd5b60009291815491611b6e836119b4565b9260018116908115611bb95750600114611b8757505050565b909192935060005260206000206000905b838210611ba55750500190565b600181602092548486015201910190611b98565b60ff191683525050811515909102019150565b6001600160401b03811161099d5760051b60200190565b60405190611bf0826117da565b60606101408382815282602082015260006040820152828082015260006080820152600060a0820152600060c0820152600060e08201528261010082015260006101208201520152565b8051821015611b485760209160051b010190565b90604051611c5b816117da565b8092604051611c6e8161047f81856119ee565b8252604051611c848161047f81600186016119ee565b602083015260028101546001600160a01b031660408084019190915251611cb28161047f81600386016119ee565b606083015260ff6004820154818116611cca816119aa565b608085015260081c1691600283101561052357611d476101409260099460a0840152600581015460c0840152600681015460e0840152604051611d148161047f81600786016119ee565b61010084015260088101546001600160a01b0316610120840152604051948591611d40918391016119ee565b0384611811565b0152565b90611d5582611bcc565b611d626040519182611811565b8281528092611d73601f1991611bcc565b0190602036910137565b90611d8782611bcc565b611d946040519182611811565b8281528092611da5601f1991611bcc565b019060005b828110611db657505050565b806060602080938501015201611daa565b909182519283516001600160401b03811161099d57611de684546119b4565b601f81116123d0575b50602094601f821160011461236b57948192939495600092612360575b50508160011b916000199060031b1c19161783555b6001830160208201518051906001600160401b03821161099d578190611e4784546119b4565b601f811161230d575b50602090601f83116001146122a85760009261229d575b50508160011b916000199060031b1c19161790555b60408101516002840180546001600160a01b0319166001600160a01b03929092169190911790556060810151805160038501916001600160401b03821161099d578190611ec984546119b4565b601f811161224a575b50602090601f83116001146121e5576000926121da575b50508160011b916000199060031b1c19161790555b60048301926080820151611f11816119aa565b611f1a816119aa565b60ff8019865416911617845560a08201519360028510156105235760009461ff0082549160081b169061ff00191617905560c0820151600582015560e08201516006820155600781016101008301518051906001600160401b0382116121c657611f8483546119b4565b601f8111612181575b50602090601f83116001146121175791806009949261014096948a9261210c575b50508160011b916000199060031b1c19161790555b6101208401516008820180546001600160a01b0319166001600160a01b039290921691909117905591909201518051909492909101916001600160401b0382116120f85761201183546119b4565b601f81116120b3575b50602090601f83116001146120555794829394959261204a575b50508160011b916000199060031b1c1916179055565b015190503880612034565b90601f198316848352818320925b81811061209b57509583600195969710612082575b505050811b019055565b015160001960f88460031b161c19169055388080612078565b9192602060018192868b015181550194019201612063565b83825260208220601f840160051c810191602085106120ee575b601f0160051c01905b8181106120e3575061201a565b8281556001016120d6565b90915081906120cd565b634e487b7160e01b81526041600452602490fd5b015190503880611fae565b8388528188209190601f198416895b818110612169575092600192859261014098966009989610612150575b505050811b019055611fc3565b015160001960f88460031b161c19169055388080612143565b92936020600181928786015181550195019301612126565b83885260208820601f840160051c810191602085106121bc575b601f0160051c01905b8181106121b15750611f8d565b8881556001016121a4565b909150819061219b565b634e487b7160e01b87526041600452602487fd5b015190503880611ee9565b60008581528281209350601f198516905b8181106122325750908460019594939210612219575b505050811b019055611efe565b015160001960f88460031b161c1916905538808061220c565b929360206001819287860151815501950193016121f6565b909150836000526020600020601f840160051c81019160208510612293575b90601f859493920160051c01905b8181106122845750611ed2565b60008155849350600101612277565b9091508190612269565b015190503880611e67565b60008581528281209350601f198516905b8181106122f557509084600195949392106122dc575b505050811b019055611e7c565b015160001960f88460031b161c191690553880806122cf565b929360206001819287860151815501950193016122b9565b909150836000526020600020601f840160051c81019160208510612356575b90601f859493920160051c01905b8181106123475750611e50565b6000815584935060010161233a565b909150819061232c565b015190503880611e0c565b601f1982169585600052806000209160005b8881106123b85750836001959697981061239f575b505050811b018355611e21565b015160001960f88460031b161c19169055388080612392565b9192602060018192868501518155019401920161237d565b846000526020600020601f830160051c8101916020841061240e575b601f0160051c01905b8181106124025750611def565b600081556001016123f5565b90915081906123ec56fea2646970667358221220796364d8777cf6a616e6432bc2ef9eb3aa12b37eaef5acaa4956f3d21b0a847464736f6c634300081b0033","opcodes":"PUSH1 0x80 DUP1 PUSH1 0x40 MSTORE CALLVALUE PUSH1 0x27 JUMPI PUSH1 0x0 DUP1 SLOAD PUSH1 0x1 PUSH1 0x1 PUSH1 0xA0 SHL SUB NOT AND CALLER OR SWAP1 SSTORE PUSH2 0x244E SWAP1 DUP2 PUSH2 0x2D DUP3 CODECOPY RETURN JUMPDEST PUSH1 0x0 DUP1 REVERT INVALID PUSH1 0x80 PUSH1 0x40 MSTORE PUSH1 0x4 CALLDATASIZE LT ISZERO PUSH2 0x12 JUMPI PUSH1 0x0 DUP1 REVERT JUMPDEST PUSH1 0x0 CALLDATALOAD PUSH1 0xE0 SHR DUP1 PUSH4 0x73A4CF8 EQ PUSH2 0x1096 JUMPI DUP1 PUSH4 0x14FD8874 EQ PUSH2 0xDE6 JUMPI DUP1 PUSH4 0x44276733 EQ PUSH2 0xD9C JUMPI DUP1 PUSH4 0x6AA81299 EQ PUSH2 0xD38 JUMPI DUP1 PUSH4 0x74D5E100 EQ PUSH2 0xCF2 JUMPI DUP1 PUSH4 0x7C4535E0 EQ PUSH2 0xA9F JUMPI DUP1 PUSH4 0x8DA5CB5B EQ PUSH2 0xA76 JUMPI DUP1 PUSH4 0xD1233672 EQ PUSH2 0x679 JUMPI DUP1 PUSH4 0xE54A29BB EQ PUSH2 0x539 JUMPI DUP1 PUSH4 0xEC176587 EQ PUSH2 0x361 JUMPI DUP1 PUSH4 0xF02F5F23 EQ PUSH2 0x26E JUMPI PUSH4 0xFBE9A68E EQ PUSH2 0xA0 JUMPI PUSH1 0x0 DUP1 REVERT JUMPDEST CALLVALUE PUSH2 0x269 JUMPI PUSH1 0x20 CALLDATASIZE PUSH1 0x3 NOT ADD SLT PUSH2 0x269 JUMPI PUSH1 0x4 CALLDATALOAD PUSH1 0x1 PUSH1 0x1 PUSH1 0x40 SHL SUB DUP2 GT PUSH2 0x269 JUMPI PUSH2 0xD0 SWAP1 CALLDATASIZE SWAP1 PUSH1 0x4 ADD PUSH2 0x1832 JUMP JUMPDEST PUSH2 0xD8 PUSH2 0x1BE3 JUMP JUMPDEST POP PUSH1 0x40 MLOAD SWAP1 PUSH2 0x105 DUP2 MLOAD SWAP3 PUSH1 0x20 DUP2 DUP2 DUP6 ADD SWAP6 PUSH2 0xF5 DUP2 DUP4 DUP10 PUSH2 0x18F3 JUMP JUMPDEST DUP2 ADD PUSH1 0x4 DUP2 MSTORE SUB ADD SWAP1 KECCAK256 SLOAD PUSH2 0x19B4 JUMP JUMPDEST ISZERO PUSH2 0x224 JUMPI PUSH2 0x128 PUSH1 0x20 PUSH2 0x220 SWAP4 PUSH2 0x137 SWAP4 PUSH1 0x40 MLOAD SWAP4 DUP5 SWAP3 DUP4 SWAP3 MLOAD SWAP3 DUP4 SWAP2 PUSH2 0x18F3 JUMP JUMPDEST DUP2 ADD PUSH1 0x4 DUP2 MSTORE SUB ADD SWAP1 KECCAK256 PUSH2 0x1C4E JUMP JUMPDEST PUSH1 0x40 MLOAD SWAP2 DUP3 SWAP2 PUSH1 0x20 DUP4 MSTORE PUSH2 0x140 PUSH2 0x1F8 PUSH2 0x1A6 PUSH2 0x17B PUSH2 0x165 DUP6 MLOAD PUSH2 0x160 PUSH1 0x20 DUP11 ADD MSTORE PUSH2 0x180 DUP10 ADD SWAP1 PUSH2 0x1916 JUMP JUMPDEST PUSH1 0x20 DUP7 ADD MLOAD DUP9 DUP3 SUB PUSH1 0x1F NOT ADD PUSH1 0x40 DUP11 ADD MSTORE PUSH2 0x1916 JUMP JUMPDEST PUSH1 0x40 DUP6 ADD MLOAD PUSH1 0x1 PUSH1 0x1 PUSH1 0xA0 SHL SUB AND PUSH1 0x60 DUP9 DUP2 ADD SWAP2 SWAP1 SWAP2 MSTORE DUP6 ADD MLOAD DUP8 DUP3 SUB PUSH1 0x1F NOT ADD PUSH1 0x80 DUP10 ADD MSTORE PUSH2 0x1916 JUMP JUMPDEST PUSH1 0x80 DUP5 ADD MLOAD PUSH2 0x1B4 DUP2 PUSH2 0x19AA JUMP JUMPDEST PUSH1 0xA0 DUP8 ADD MSTORE PUSH2 0x1CB PUSH1 0xA0 DUP6 ADD MLOAD PUSH1 0xC0 DUP9 ADD SWAP1 PUSH2 0x1A71 JUMP JUMPDEST PUSH1 0xC0 DUP5 ADD MLOAD PUSH1 0xE0 DUP8 ADD MSTORE PUSH1 0xE0 DUP5 ADD MLOAD PUSH2 0x100 DUP8 ADD MSTORE PUSH2 0x100 DUP5 ADD MLOAD PUSH1 0x1F NOT DUP8 DUP4 SUB ADD PUSH2 0x120 DUP9 ADD MSTORE PUSH2 0x1916 JUMP JUMPDEST PUSH2 0x120 DUP4 ADD MLOAD PUSH1 0x1 PUSH1 0x1 PUSH1 0xA0 SHL SUB AND DUP6 DUP4 ADD MSTORE SWAP2 ADD MLOAD DUP4 DUP3 SUB PUSH1 0x1F NOT ADD PUSH2 0x160 DUP6 ADD MSTORE PUSH2 0x1916 JUMP JUMPDEST SUB SWAP1 RETURN JUMPDEST PUSH1 0x40 MLOAD PUSH3 0x461BCD PUSH1 0xE5 SHL DUP2 MSTORE PUSH1 0x20 PUSH1 0x4 DUP3 ADD MSTORE PUSH1 0x1A PUSH1 0x24 DUP3 ADD MSTORE PUSH32 0x4E6F206461746120666F756E6420666F7220746869732049442E000000000000 PUSH1 0x44 DUP3 ADD MSTORE PUSH1 0x64 SWAP1 REVERT JUMPDEST PUSH1 0x0 DUP1 REVERT JUMPDEST CALLVALUE PUSH2 0x269 JUMPI PUSH1 0x20 CALLDATASIZE PUSH1 0x3 NOT ADD SLT PUSH2 0x269 JUMPI PUSH1 0x4 CALLDATALOAD PUSH1 0x5 SLOAD DUP2 LT ISZERO PUSH2 0x269 JUMPI PUSH2 0x295 SWAP1 PUSH2 0x1B29 JUMP JUMPDEST POP PUSH1 0x40 MLOAD SWAP1 PUSH2 0x2AF DUP3 PUSH2 0x2A8 DUP2 DUP5 PUSH2 0x19EE JUMP JUMPDEST SUB DUP4 PUSH2 0x1811 JUMP JUMPDEST PUSH2 0x220 PUSH1 0x9 PUSH1 0x40 MLOAD SWAP3 PUSH2 0x2D0 DUP5 PUSH2 0x2C9 DUP2 PUSH1 0x1 DUP6 ADD PUSH2 0x19EE JUMP JUMPDEST SUB DUP6 PUSH2 0x1811 JUMP JUMPDEST PUSH1 0x2 DUP2 ADD SLOAD PUSH1 0x40 MLOAD PUSH1 0x1 PUSH1 0x1 PUSH1 0xA0 SHL SUB SWAP1 SWAP2 AND SWAP6 PUSH2 0x2F5 DUP3 PUSH2 0x2A8 DUP2 PUSH1 0x3 DUP8 ADD PUSH2 0x19EE JUMP JUMPDEST PUSH1 0x4 DUP4 ADD SLOAD PUSH1 0x5 DUP5 ADD SLOAD SWAP1 PUSH1 0x6 DUP6 ADD SLOAD SWAP3 PUSH1 0x40 MLOAD SWAP5 PUSH2 0x322 DUP7 PUSH2 0x31B DUP2 PUSH1 0x7 DUP12 ADD PUSH2 0x19EE JUMP JUMPDEST SUB DUP8 PUSH2 0x1811 JUMP JUMPDEST PUSH2 0x34A PUSH1 0x1 DUP1 PUSH1 0xA0 SHL SUB PUSH1 0x8 DUP10 ADD SLOAD AND SWAP8 PUSH2 0x343 PUSH1 0x40 MLOAD DUP1 SWAP12 DUP2 SWAP4 ADD PUSH2 0x19EE JUMP JUMPDEST SUB DUP10 PUSH2 0x1811 JUMP JUMPDEST PUSH1 0x40 MLOAD SWAP11 DUP12 SWAP11 PUSH1 0xFF DUP1 DUP7 PUSH1 0x8 SHR AND SWAP6 AND SWAP4 DUP13 PUSH2 0x1A7E JUMP JUMPDEST CALLVALUE PUSH2 0x269 JUMPI PUSH1 0x0 CALLDATASIZE PUSH1 0x3 NOT ADD SLT PUSH2 0x269 JUMPI PUSH1 0x5 SLOAD PUSH2 0x37E DUP2 PUSH2 0x1D4B JUMP JUMPDEST PUSH2 0x387 DUP3 PUSH2 0x1D7D JUMP JUMPDEST SWAP2 PUSH2 0x391 DUP2 PUSH2 0x1D7D JUMP JUMPDEST PUSH2 0x39A DUP3 PUSH2 0x1D4B JUMP JUMPDEST SWAP1 PUSH2 0x3A4 DUP4 PUSH2 0x1D4B JUMP JUMPDEST SWAP3 PUSH1 0x0 JUMPDEST DUP2 DUP2 LT PUSH2 0x40F JUMPI PUSH2 0x3D7 DUP7 PUSH2 0x220 DUP10 PUSH2 0x401 DUP10 PUSH2 0x3F3 DUP11 PUSH2 0x3E5 DUP12 PUSH1 0x40 MLOAD SWAP10 DUP11 SWAP10 PUSH1 0xA0 DUP12 MSTORE PUSH1 0xA0 DUP12 ADD SWAP1 PUSH2 0x1888 JUMP JUMPDEST SWAP1 DUP10 DUP3 SUB PUSH1 0x20 DUP12 ADD MSTORE PUSH2 0x193B JUMP JUMPDEST SWAP1 DUP8 DUP3 SUB PUSH1 0x40 DUP10 ADD MSTORE PUSH2 0x1888 JUMP JUMPDEST SWAP1 DUP6 DUP3 SUB PUSH1 0x60 DUP8 ADD MSTORE PUSH2 0x18BF JUMP JUMPDEST SWAP1 DUP4 DUP3 SUB PUSH1 0x80 DUP6 ADD MSTORE PUSH2 0x193B JUMP JUMPDEST PUSH1 0xFF PUSH1 0x4 PUSH2 0x41C DUP4 PUSH2 0x1B29 JUMP JUMPDEST POP ADD SLOAD AND PUSH2 0x429 DUP2 PUSH2 0x19AA JUMP JUMPDEST PUSH2 0x433 DUP3 DUP9 PUSH2 0x1C3A JUMP JUMPDEST MSTORE PUSH1 0xFF PUSH1 0x4 PUSH2 0x441 DUP4 PUSH2 0x1B29 JUMP JUMPDEST POP ADD SLOAD PUSH1 0x8 SHR AND SWAP1 PUSH1 0x2 DUP3 LT ISZERO PUSH2 0x523 JUMPI PUSH1 0x1 SWAP2 PUSH2 0x45F DUP3 DUP8 PUSH2 0x1C3A JUMP JUMPDEST MSTORE PUSH1 0x3 PUSH2 0x486 PUSH2 0x46E DUP4 PUSH2 0x1B29 JUMP JUMPDEST POP PUSH2 0x47F PUSH1 0x40 MLOAD DUP1 SWAP5 DUP2 SWAP4 ADD PUSH2 0x19EE JUMP JUMPDEST SUB DUP3 PUSH2 0x1811 JUMP JUMPDEST PUSH2 0x490 DUP3 DUP7 PUSH2 0x1C3A JUMP JUMPDEST MSTORE PUSH2 0x49B DUP2 DUP6 PUSH2 0x1C3A JUMP JUMPDEST POP PUSH2 0x47F PUSH2 0x4B8 PUSH2 0x4AB DUP4 PUSH2 0x1B29 JUMP JUMPDEST POP PUSH1 0x40 MLOAD SWAP3 DUP4 DUP1 SWAP3 PUSH2 0x19EE JUMP JUMPDEST PUSH2 0x4C2 DUP3 DUP11 PUSH2 0x1C3A JUMP JUMPDEST MSTORE PUSH2 0x4CD DUP2 DUP10 PUSH2 0x1C3A JUMP JUMPDEST POP PUSH1 0x6 PUSH2 0x4D9 DUP3 PUSH2 0x1B29 JUMP JUMPDEST POP ADD SLOAD PUSH1 0x5 PUSH2 0x4E7 DUP4 PUSH2 0x1B29 JUMP JUMPDEST POP ADD SLOAD LT ISZERO PUSH2 0x510 JUMPI PUSH1 0x6 PUSH2 0x4FB DUP3 PUSH2 0x1B29 JUMP JUMPDEST POP ADD SLOAD JUMPDEST PUSH2 0x509 DUP3 DUP9 PUSH2 0x1C3A JUMP JUMPDEST MSTORE ADD PUSH2 0x3A8 JUMP JUMPDEST PUSH1 0x5 PUSH2 0x51B DUP3 PUSH2 0x1B29 JUMP JUMPDEST POP ADD SLOAD PUSH2 0x4FF JUMP JUMPDEST PUSH4 0x4E487B71 PUSH1 0xE0 SHL PUSH1 0x0 MSTORE PUSH1 0x21 PUSH1 0x4 MSTORE PUSH1 0x24 PUSH1 0x0 REVERT JUMPDEST CALLVALUE PUSH2 0x269 JUMPI PUSH1 0x20 CALLDATASIZE PUSH1 0x3 NOT ADD SLT PUSH2 0x269 JUMPI PUSH1 0x1 PUSH1 0x1 PUSH1 0xA0 SHL SUB PUSH2 0x55A PUSH2 0x1994 JUMP JUMPDEST AND DUP1 PUSH1 0x0 MSTORE PUSH1 0x3 PUSH1 0x20 MSTORE PUSH1 0xFF PUSH1 0x40 PUSH1 0x0 KECCAK256 SLOAD AND ISZERO PUSH2 0x63B JUMPI PUSH1 0x0 MSTORE PUSH1 0x1 PUSH1 0x20 MSTORE PUSH1 0x40 PUSH1 0x0 KECCAK256 PUSH1 0x40 MLOAD PUSH2 0x58B DUP2 PUSH2 0x17F6 JUMP JUMPDEST PUSH1 0x40 MLOAD PUSH2 0x59C DUP2 PUSH2 0x47F DUP2 DUP7 PUSH2 0x19EE JUMP JUMPDEST DUP2 MSTORE PUSH1 0x2 PUSH1 0x40 MLOAD SWAP3 PUSH2 0x5B5 DUP5 PUSH2 0x2C9 DUP2 PUSH1 0x1 DUP6 ADD PUSH2 0x19EE JUMP JUMPDEST PUSH1 0x20 DUP4 ADD SWAP4 DUP5 MSTORE ADD SLOAD PUSH2 0x631 PUSH1 0xFF PUSH1 0x40 DUP5 ADD SWAP3 PUSH1 0x1 DUP1 PUSH1 0xA0 SHL SUB DUP2 AND DUP5 MSTORE PUSH1 0xA0 SHR AND SWAP2 PUSH2 0x5E1 DUP4 PUSH2 0x19AA JUMP JUMPDEST DUP3 PUSH1 0x60 DUP6 ADD MSTORE PUSH1 0x1 DUP1 PUSH1 0xA0 SHL SUB SWAP1 MLOAD AND SWAP3 MLOAD SWAP4 MLOAD PUSH2 0x5FE DUP4 PUSH2 0x19AA JUMP JUMPDEST PUSH2 0x607 DUP4 PUSH2 0x19AA JUMP JUMPDEST PUSH2 0x623 PUSH1 0x40 MLOAD SWAP6 DUP7 SWAP6 DUP7 MSTORE PUSH1 0x80 PUSH1 0x20 DUP8 ADD MSTORE PUSH1 0x80 DUP7 ADD SWAP1 PUSH2 0x1916 JUMP JUMPDEST SWAP1 DUP5 DUP3 SUB PUSH1 0x40 DUP7 ADD MSTORE PUSH2 0x1916 JUMP JUMPDEST SWAP1 PUSH1 0x60 DUP4 ADD MSTORE SUB SWAP1 RETURN JUMPDEST PUSH1 0x40 MLOAD PUSH3 0x461BCD PUSH1 0xE5 SHL DUP2 MSTORE PUSH1 0x20 PUSH1 0x4 DUP3 ADD MSTORE PUSH1 0x16 PUSH1 0x24 DUP3 ADD MSTORE PUSH22 0x155CD95C881A5CC81B9BDD081C9959DA5CDD195C9959 PUSH1 0x52 SHL PUSH1 0x44 DUP3 ADD MSTORE PUSH1 0x64 SWAP1 REVERT JUMPDEST CALLVALUE PUSH2 0x269 JUMPI PUSH1 0x80 CALLDATASIZE PUSH1 0x3 NOT ADD SLT PUSH2 0x269 JUMPI PUSH1 0x4 CALLDATALOAD PUSH1 0x1 PUSH1 0x1 PUSH1 0x40 SHL SUB DUP2 GT PUSH2 0x269 JUMPI PUSH2 0x6A9 SWAP1 CALLDATASIZE SWAP1 PUSH1 0x4 ADD PUSH2 0x1832 JUMP JUMPDEST PUSH1 0x24 CALLDATALOAD PUSH1 0x1 PUSH1 0x1 PUSH1 0x40 SHL SUB DUP2 GT PUSH2 0x269 JUMPI PUSH2 0x6C8 SWAP1 CALLDATASIZE SWAP1 PUSH1 0x4 ADD PUSH2 0x1832 JUMP JUMPDEST SWAP1 PUSH1 0x44 CALLDATALOAD PUSH1 0x1 PUSH1 0x1 PUSH1 0xA0 SHL SUB DUP2 AND SWAP1 DUP2 SWAP1 SUB PUSH2 0x269 JUMPI PUSH1 0x64 CALLDATALOAD PUSH1 0xFF DUP2 AND DUP1 SWAP2 SUB PUSH2 0x269 JUMPI PUSH2 0x6F5 DUP2 PUSH2 0x19AA JUMP JUMPDEST PUSH1 0x40 MLOAD SWAP4 PUSH2 0x702 DUP6 PUSH2 0x17F6 JUMP JUMPDEST DUP4 DUP6 MSTORE PUSH1 0x20 DUP6 ADD SWAP5 DUP2 DUP7 MSTORE PUSH1 0x40 DUP2 ADD SWAP1 DUP5 DUP3 MSTORE PUSH1 0x60 DUP2 ADD SWAP1 PUSH2 0x723 DUP6 PUSH2 0x19AA JUMP JUMPDEST DUP5 DUP3 MSTORE DUP6 PUSH1 0x0 MSTORE PUSH1 0x1 PUSH1 0x20 MSTORE PUSH1 0x40 PUSH1 0x0 KECCAK256 SWAP1 MLOAD DUP1 MLOAD SWAP1 PUSH1 0x1 PUSH1 0x1 PUSH1 0x40 SHL SUB DUP3 GT PUSH2 0x99D JUMPI DUP2 SWAP1 PUSH2 0x753 DUP5 SLOAD PUSH2 0x19B4 JUMP JUMPDEST PUSH1 0x1F DUP2 GT PUSH2 0xA23 JUMPI JUMPDEST POP PUSH1 0x20 SWAP1 PUSH1 0x1F DUP4 GT PUSH1 0x1 EQ PUSH2 0x9BE JUMPI PUSH1 0x0 SWAP3 PUSH2 0x9B3 JUMPI JUMPDEST POP POP DUP2 PUSH1 0x1 SHL SWAP2 PUSH1 0x0 NOT SWAP1 PUSH1 0x3 SHL SHR NOT AND OR DUP2 SSTORE JUMPDEST PUSH1 0x1 DUP2 ADD SWAP8 MLOAD SWAP8 DUP9 MLOAD PUSH1 0x1 PUSH1 0x1 PUSH1 0x40 SHL SUB DUP2 GT PUSH2 0x99D JUMPI PUSH2 0x7A9 DUP3 SLOAD PUSH2 0x19B4 JUMP JUMPDEST PUSH1 0x1F DUP2 GT PUSH2 0x955 JUMPI JUMPDEST POP PUSH1 0x20 PUSH1 0x1F DUP3 GT PUSH1 0x1 EQ PUSH2 0x8C4 JUMPI SWAP2 DUP2 PUSH2 0x8A5 SWAP8 SWAP7 SWAP6 SWAP5 SWAP3 PUSH1 0x2 SWAP5 PUSH32 0x93B86CF0A1D8E18E724E08D47F7248859DE317795BE109EC2495F6FC7445B4E9 SWAP14 PUSH1 0x0 SWAP3 PUSH2 0x8B9 JUMPI JUMPDEST POP POP DUP2 PUSH1 0x1 SHL SWAP2 PUSH1 0x0 NOT SWAP1 PUSH1 0x3 SHL SHR NOT AND OR SWAP1 SSTORE JUMPDEST SWAP3 MLOAD SWAP3 ADD DUP1 SLOAD PUSH1 0x1 PUSH1 0x1 PUSH1 0xA0 SHL SUB NOT AND PUSH1 0x1 PUSH1 0x1 PUSH1 0xA0 SHL SUB SWAP4 SWAP1 SWAP4 AND SWAP3 SWAP1 SWAP3 OR DUP3 SSTORE MLOAD PUSH2 0x838 DUP2 PUSH2 0x19AA JUMP JUMPDEST PUSH2 0x841 DUP2 PUSH2 0x19AA JUMP JUMPDEST DUP2 SLOAD PUSH1 0xFF PUSH1 0xA0 SHL NOT AND PUSH1 0xA0 SWAP2 SWAP1 SWAP2 SHL PUSH1 0xFF PUSH1 0xA0 SHL AND OR SWAP1 SSTORE PUSH2 0x862 DUP4 PUSH2 0x19AA JUMP JUMPDEST DUP4 PUSH1 0x0 MSTORE PUSH1 0x2 PUSH1 0x20 MSTORE PUSH1 0x40 PUSH1 0x0 KECCAK256 PUSH2 0x879 DUP5 PUSH2 0x19AA JUMP JUMPDEST DUP4 PUSH1 0xFF NOT DUP3 SLOAD AND OR SWAP1 SSTORE DUP4 PUSH1 0x0 MSTORE PUSH1 0x3 PUSH1 0x20 MSTORE PUSH1 0x40 PUSH1 0x0 KECCAK256 PUSH1 0x1 PUSH1 0xFF NOT DUP3 SLOAD AND OR SWAP1 SSTORE PUSH2 0x607 DUP4 PUSH2 0x19AA JUMP JUMPDEST SWAP1 PUSH2 0x8AF DUP2 PUSH2 0x19AA JUMP JUMPDEST PUSH1 0x60 DUP4 ADD MSTORE SUB SWAP1 LOG1 STOP JUMPDEST ADD MLOAD SWAP1 POP DUP14 DUP1 PUSH2 0x7F7 JUMP JUMPDEST PUSH1 0x1F NOT DUP3 AND SWAP11 DUP4 PUSH1 0x0 MSTORE DUP2 PUSH1 0x0 KECCAK256 SWAP12 PUSH1 0x0 JUMPDEST DUP2 DUP2 LT PUSH2 0x93D JUMPI POP SWAP3 PUSH32 0x93B86CF0A1D8E18E724E08D47F7248859DE317795BE109EC2495F6FC7445B4E9 SWAP13 PUSH1 0x2 SWAP6 SWAP4 PUSH1 0x1 SWAP4 DUP4 PUSH2 0x8A5 SWAP13 SWAP12 SWAP11 SWAP10 SWAP8 LT PUSH2 0x924 JUMPI JUMPDEST POP POP POP DUP2 SHL ADD SWAP1 SSTORE PUSH2 0x80C JUMP JUMPDEST ADD MLOAD PUSH1 0x0 NOT PUSH1 0xF8 DUP5 PUSH1 0x3 SHL AND SHR NOT AND SWAP1 SSTORE DUP14 DUP1 DUP1 PUSH2 0x917 JUMP JUMPDEST DUP4 DUP4 ADD MLOAD DUP15 SSTORE PUSH1 0x1 SWAP1 SWAP14 ADD SWAP13 PUSH1 0x20 SWAP4 DUP5 ADD SWAP4 ADD PUSH2 0x8D6 JUMP JUMPDEST DUP3 PUSH1 0x0 MSTORE PUSH1 0x20 PUSH1 0x0 KECCAK256 PUSH1 0x1F DUP4 ADD PUSH1 0x5 SHR DUP2 ADD SWAP2 PUSH1 0x20 DUP5 LT PUSH2 0x993 JUMPI JUMPDEST PUSH1 0x1F ADD PUSH1 0x5 SHR ADD SWAP1 JUMPDEST DUP2 DUP2 LT PUSH2 0x987 JUMPI POP PUSH2 0x7B2 JUMP JUMPDEST PUSH1 0x0 DUP2 SSTORE PUSH1 0x1 ADD PUSH2 0x97A JUMP JUMPDEST SWAP1 SWAP2 POP DUP2 SWAP1 PUSH2 0x971 JUMP JUMPDEST PUSH4 0x4E487B71 PUSH1 0xE0 SHL PUSH1 0x0 MSTORE PUSH1 0x41 PUSH1 0x4 MSTORE PUSH1 0x24 PUSH1 0x0 REVERT JUMPDEST ADD MLOAD SWAP1 POP DUP11 DUP1 PUSH2 0x773 JUMP JUMPDEST PUSH1 0x0 DUP6 DUP2 MSTORE DUP3 DUP2 KECCAK256 SWAP4 POP PUSH1 0x1F NOT DUP6 AND SWAP1 JUMPDEST DUP2 DUP2 LT PUSH2 0xA0B JUMPI POP SWAP1 DUP5 PUSH1 0x1 SWAP6 SWAP5 SWAP4 SWAP3 LT PUSH2 0x9F2 JUMPI JUMPDEST POP POP POP DUP2 SHL ADD DUP2 SSTORE PUSH2 0x788 JUMP JUMPDEST ADD MLOAD PUSH1 0x0 NOT PUSH1 0xF8 DUP5 PUSH1 0x3 SHL AND SHR NOT AND SWAP1 SSTORE DUP11 DUP1 DUP1 PUSH2 0x9E5 JUMP JUMPDEST SWAP3 SWAP4 PUSH1 0x20 PUSH1 0x1 DUP2 SWAP3 DUP8 DUP7 ADD MLOAD DUP2 SSTORE ADD SWAP6 ADD SWAP4 ADD PUSH2 0x9CF JUMP JUMPDEST SWAP1 SWAP2 POP DUP4 PUSH1 0x0 MSTORE PUSH1 0x20 PUSH1 0x0 KECCAK256 PUSH1 0x1F DUP5 ADD PUSH1 0x5 SHR DUP2 ADD SWAP2 PUSH1 0x20 DUP6 LT PUSH2 0xA6C JUMPI JUMPDEST SWAP1 PUSH1 0x1F DUP6 SWAP5 SWAP4 SWAP3 ADD PUSH1 0x5 SHR ADD SWAP1 JUMPDEST DUP2 DUP2 LT PUSH2 0xA5D JUMPI POP PUSH2 0x75C JUMP JUMPDEST PUSH1 0x0 DUP2 SSTORE DUP5 SWAP4 POP PUSH1 0x1 ADD PUSH2 0xA50 JUMP JUMPDEST SWAP1 SWAP2 POP DUP2 SWAP1 PUSH2 0xA42 JUMP JUMPDEST CALLVALUE PUSH2 0x269 JUMPI PUSH1 0x0 CALLDATASIZE PUSH1 0x3 NOT ADD SLT PUSH2 0x269 JUMPI PUSH1 0x0 SLOAD PUSH1 0x40 MLOAD PUSH1 0x1 PUSH1 0x1 PUSH1 0xA0 SHL SUB SWAP1 SWAP2 AND DUP2 MSTORE PUSH1 0x20 SWAP1 RETURN JUMPDEST CALLVALUE PUSH2 0x269 JUMPI PUSH1 0x80 CALLDATASIZE PUSH1 0x3 NOT ADD SLT PUSH2 0x269 JUMPI PUSH1 0x4 CALLDATALOAD PUSH1 0x1 PUSH1 0x1 PUSH1 0x40 SHL SUB DUP2 GT PUSH2 0x269 JUMPI PUSH2 0xACF SWAP1 CALLDATASIZE SWAP1 PUSH1 0x4 ADD PUSH2 0x1832 JUMP JUMPDEST PUSH1 0x24 CALLDATALOAD PUSH1 0x1 PUSH1 0x1 PUSH1 0x40 SHL SUB DUP2 GT PUSH2 0x269 JUMPI PUSH2 0xAEE SWAP1 CALLDATASIZE SWAP1 PUSH1 0x4 ADD PUSH2 0x1832 JUMP JUMPDEST SWAP1 PUSH1 0x44 CALLDATALOAD PUSH1 0x1 PUSH1 0x1 PUSH1 0x40 SHL SUB DUP2 GT PUSH2 0x269 JUMPI PUSH2 0xB0E SWAP1 CALLDATASIZE SWAP1 PUSH1 0x4 ADD PUSH2 0x1832 JUMP JUMPDEST PUSH1 0x64 CALLDATALOAD PUSH1 0x4 DUP2 LT ISZERO PUSH2 0x269 JUMPI CALLER PUSH1 0x0 MSTORE PUSH1 0x2 PUSH1 0x20 MSTORE PUSH1 0xFF PUSH1 0x40 PUSH1 0x0 KECCAK256 SLOAD AND PUSH2 0xB35 DUP2 PUSH2 0x19AA JUMP JUMPDEST PUSH2 0xCA3 JUMPI PUSH1 0x40 MLOAD SWAP1 PUSH2 0xB46 DUP3 PUSH2 0x17DA JUMP JUMPDEST DUP5 DUP3 MSTORE DUP3 PUSH1 0x20 DUP4 ADD MSTORE CALLER PUSH1 0x40 DUP4 ADD MSTORE DUP4 PUSH1 0x60 DUP4 ADD MSTORE PUSH2 0xB64 DUP2 PUSH2 0x19AA JUMP JUMPDEST DUP1 PUSH1 0x80 DUP4 ADD MSTORE PUSH1 0x0 PUSH1 0xA0 DUP4 ADD MSTORE TIMESTAMP PUSH1 0xC0 DUP4 ADD MSTORE PUSH1 0x0 PUSH1 0xE0 DUP4 ADD MSTORE PUSH1 0x20 SWAP5 PUSH1 0x40 MLOAD PUSH2 0xB8E DUP8 DUP3 PUSH2 0x1811 JUMP JUMPDEST PUSH1 0x0 DUP2 MSTORE PUSH2 0x100 DUP5 ADD MSTORE PUSH1 0x0 PUSH2 0x120 DUP5 ADD MSTORE PUSH1 0x40 MLOAD PUSH2 0xBAD DUP8 DUP3 PUSH2 0x1811 JUMP JUMPDEST PUSH1 0x0 DUP2 MSTORE PUSH2 0x140 DUP5 ADD MSTORE PUSH2 0xBDE DUP4 PUSH1 0x40 MLOAD DUP9 DUP2 DUP6 MLOAD PUSH2 0xBCF DUP2 DUP4 DUP6 DUP11 ADD PUSH2 0x18F3 JUMP JUMPDEST DUP2 ADD PUSH1 0x4 DUP2 MSTORE SUB ADD SWAP1 KECCAK256 PUSH2 0x1DC7 JUMP JUMPDEST PUSH1 0x5 SLOAD PUSH9 0x10000000000000000 DUP2 LT ISZERO PUSH2 0x99D JUMPI DUP1 PUSH1 0x1 PUSH2 0xC02 SWAP3 ADD PUSH1 0x5 SSTORE PUSH2 0x1B29 JUMP JUMPDEST SWAP4 SWAP1 SWAP4 PUSH2 0xC8D JUMPI PUSH32 0xE9B311C837D257B1F6982C63CBB418ABCA3880B67545D8EA67ADC97E6626EF1E SWAP7 PUSH2 0xC53 SWAP7 PUSH2 0xC3F PUSH2 0xC66 SWAP4 PUSH2 0xC82 SWAP8 PUSH2 0x1DC7 JUMP JUMPDEST PUSH1 0x40 MLOAD SWAP8 DUP9 SWAP8 PUSH1 0xC0 DUP10 MSTORE PUSH1 0xC0 DUP10 ADD SWAP1 PUSH2 0x1916 JUMP JUMPDEST SWAP2 CALLER SWAP1 DUP9 ADD MSTORE DUP7 DUP3 SUB PUSH1 0x40 DUP9 ADD MSTORE PUSH2 0x1916 JUMP JUMPDEST SWAP2 PUSH2 0xC70 DUP2 PUSH2 0x19AA JUMP JUMPDEST PUSH1 0x60 DUP6 ADD MSTORE DUP4 DUP3 SUB PUSH1 0x80 DUP6 ADD MSTORE PUSH2 0x1916 JUMP JUMPDEST TIMESTAMP PUSH1 0xA0 DUP4 ADD MSTORE SUB SWAP1 LOG1 STOP JUMPDEST PUSH4 0x4E487B71 PUSH1 0xE0 SHL PUSH1 0x0 MSTORE PUSH1 0x0 PUSH1 0x4 MSTORE PUSH1 0x24 PUSH1 0x0 REVERT JUMPDEST PUSH1 0x40 MLOAD PUSH3 0x461BCD PUSH1 0xE5 SHL DUP2 MSTORE PUSH1 0x20 PUSH1 0x4 DUP3 ADD MSTORE PUSH1 0x21 PUSH1 0x24 DUP3 ADD MSTORE PUSH32 0x416363657373207265737472696374656420746F20466163746F727920726F6C PUSH1 0x44 DUP3 ADD MSTORE PUSH1 0x65 PUSH1 0xF8 SHL PUSH1 0x64 DUP3 ADD MSTORE PUSH1 0x84 SWAP1 REVERT JUMPDEST CALLVALUE PUSH2 0x269 JUMPI PUSH1 0x20 CALLDATASIZE PUSH1 0x3 NOT ADD SLT PUSH2 0x269 JUMPI PUSH1 0x1 PUSH1 0x1 PUSH1 0xA0 SHL SUB PUSH2 0xD13 PUSH2 0x1994 JUMP JUMPDEST AND PUSH1 0x0 MSTORE PUSH1 0x2 PUSH1 0x20 MSTORE PUSH1 0x20 PUSH1 0xFF PUSH1 0x40 PUSH1 0x0 KECCAK256 SLOAD AND PUSH1 0x40 MLOAD SWAP1 PUSH2 0xD34 DUP2 PUSH2 0x19AA JUMP JUMPDEST DUP2 MSTORE RETURN JUMPDEST CALLVALUE PUSH2 0x269 JUMPI PUSH1 0x20 CALLDATASIZE PUSH1 0x3 NOT ADD SLT PUSH2 0x269 JUMPI PUSH1 0x4 CALLDATALOAD PUSH1 0x1 PUSH1 0x1 PUSH1 0x40 SHL SUB DUP2 GT PUSH2 0x269 JUMPI PUSH1 0x20 PUSH2 0xD6D PUSH2 0xD80 SWAP3 CALLDATASIZE SWAP1 PUSH1 0x4 ADD PUSH2 0x1832 JUMP JUMPDEST DUP2 PUSH1 0x40 MLOAD SWAP4 DUP3 DUP6 DUP1 SWAP5 MLOAD SWAP4 DUP5 SWAP3 ADD PUSH2 0x18F3 JUMP JUMPDEST DUP2 ADD PUSH1 0x4 DUP2 MSTORE SUB ADD SWAP1 KECCAK256 PUSH1 0x40 MLOAD SWAP1 PUSH2 0x2AF DUP3 PUSH2 0x2A8 DUP2 DUP5 PUSH2 0x19EE JUMP JUMPDEST CALLVALUE PUSH2 0x269 JUMPI PUSH1 0x20 CALLDATASIZE PUSH1 0x3 NOT ADD SLT PUSH2 0x269 JUMPI PUSH1 0x1 PUSH1 0x1 PUSH1 0xA0 SHL SUB PUSH2 0xDBD PUSH2 0x1994 JUMP JUMPDEST AND PUSH1 0x0 MSTORE PUSH1 0x2 PUSH1 0x20 MSTORE PUSH1 0x40 PUSH1 0xFF DUP2 PUSH1 0x0 KECCAK256 SLOAD AND DUP2 MLOAD SWAP1 PUSH2 0xDDC DUP2 PUSH2 0x19AA JUMP JUMPDEST DUP2 MSTORE CALLER PUSH1 0x20 DUP3 ADD MSTORE RETURN JUMPDEST CALLVALUE PUSH2 0x269 JUMPI PUSH1 0x20 CALLDATASIZE PUSH1 0x3 NOT ADD SLT PUSH2 0x269 JUMPI PUSH1 0x4 CALLDATALOAD PUSH1 0x1 PUSH1 0x1 PUSH1 0x40 SHL SUB DUP2 GT PUSH2 0x269 JUMPI PUSH2 0xE16 SWAP1 CALLDATASIZE SWAP1 PUSH1 0x4 ADD PUSH2 0x1832 JUMP JUMPDEST PUSH1 0x5 SLOAD PUSH2 0xE22 DUP2 PUSH2 0x1BCC JUMP JUMPDEST PUSH2 0xE2F PUSH1 0x40 MLOAD SWAP2 DUP3 PUSH2 0x1811 JUMP JUMPDEST DUP2 DUP2 MSTORE PUSH1 0x1F NOT PUSH2 0xE3E DUP4 PUSH2 0x1BCC JUMP JUMPDEST ADD PUSH1 0x0 JUMPDEST DUP2 DUP2 LT PUSH2 0x107F JUMPI POP POP PUSH1 0x0 SWAP3 DUP4 PUSH1 0x20 DUP3 ADD SWAP1 JUMPDEST DUP5 DUP2 LT PUSH2 0xFBB JUMPI DUP6 DUP5 PUSH2 0xE67 DUP3 PUSH2 0x1D4B JUMP JUMPDEST SWAP2 PUSH2 0xE71 DUP2 PUSH2 0x1D7D JUMP JUMPDEST SWAP2 PUSH2 0xE7B DUP3 PUSH2 0x1D4B JUMP JUMPDEST SWAP1 PUSH2 0xE85 DUP4 PUSH2 0x1D4B JUMP JUMPDEST SWAP3 PUSH1 0x0 JUMPDEST DUP2 DUP2 LT PUSH2 0xEDE JUMPI PUSH2 0xEB4 DUP8 PUSH2 0x220 DUP9 PUSH2 0xED0 DUP10 PUSH2 0xEC2 DUP11 PUSH1 0x40 MLOAD SWAP8 DUP9 SWAP8 PUSH1 0x80 DUP10 MSTORE PUSH1 0x80 DUP10 ADD SWAP1 PUSH2 0x1888 JUMP JUMPDEST SWAP1 DUP8 DUP3 SUB PUSH1 0x20 DUP10 ADD MSTORE PUSH2 0x1888 JUMP JUMPDEST SWAP1 DUP6 DUP3 SUB PUSH1 0x40 DUP8 ADD MSTORE PUSH2 0x18BF JUMP JUMPDEST SWAP1 DUP4 DUP3 SUB PUSH1 0x60 DUP6 ADD MSTORE PUSH2 0x193B JUMP JUMPDEST PUSH1 0x80 PUSH2 0xEEA DUP3 DUP6 PUSH2 0x1C3A JUMP JUMPDEST MLOAD ADD MLOAD PUSH2 0xEF6 DUP2 PUSH2 0x19AA JUMP JUMPDEST PUSH2 0xEFF DUP2 PUSH2 0x19AA JUMP JUMPDEST PUSH1 0xFF PUSH2 0xF0B DUP4 DUP11 PUSH2 0x1C3A JUMP JUMPDEST SWAP2 AND SWAP1 MSTORE PUSH1 0xA0 PUSH2 0xF1B DUP3 DUP6 PUSH2 0x1C3A JUMP JUMPDEST MLOAD ADD MLOAD SWAP1 PUSH1 0x2 DUP3 LT ISZERO PUSH2 0x523 JUMPI PUSH1 0x1 SWAP2 PUSH1 0x0 SWAP1 PUSH1 0xFF PUSH2 0xF3A DUP5 DUP10 PUSH2 0x1C3A JUMP JUMPDEST SWAP2 AND SWAP1 MSTORE PUSH2 0xF48 DUP3 DUP7 PUSH2 0x1C3A JUMP JUMPDEST MLOAD MLOAD PUSH2 0xF54 DUP4 DUP11 PUSH2 0x1C3A JUMP JUMPDEST MSTORE PUSH2 0xF5F DUP3 DUP10 PUSH2 0x1C3A JUMP JUMPDEST POP PUSH1 0xE0 PUSH2 0xF6C DUP4 DUP8 PUSH2 0x1C3A JUMP JUMPDEST MLOAD ADD MLOAD PUSH1 0xC0 PUSH2 0xF7B DUP5 DUP9 PUSH2 0x1C3A JUMP JUMPDEST MLOAD ADD MLOAD LT ISZERO SWAP1 POP PUSH2 0xFA7 JUMPI PUSH1 0xE0 PUSH2 0xF92 DUP3 DUP7 PUSH2 0x1C3A JUMP JUMPDEST MLOAD ADD MLOAD JUMPDEST PUSH2 0xFA0 DUP3 DUP9 PUSH2 0x1C3A JUMP JUMPDEST MSTORE ADD PUSH2 0xE89 JUMP JUMPDEST PUSH1 0xC0 PUSH2 0xFB3 DUP3 DUP7 PUSH2 0x1C3A JUMP JUMPDEST MLOAD ADD MLOAD PUSH2 0xF96 JUMP JUMPDEST PUSH1 0x3 PUSH2 0xFE0 PUSH2 0xFEE PUSH2 0xFCC DUP5 PUSH2 0x1B29 JUMP JUMPDEST POP PUSH1 0x40 MLOAD SWAP3 DUP4 SWAP2 PUSH1 0x20 DUP4 ADD SWAP6 DUP7 SWAP2 ADD PUSH2 0x1B5E JUMP JUMPDEST SUB PUSH1 0x1F NOT DUP2 ADD DUP4 MSTORE DUP3 PUSH2 0x1811 JUMP JUMPDEST MLOAD SWAP1 KECCAK256 PUSH1 0x40 MLOAD PUSH1 0x20 DUP2 ADD SWAP1 PUSH2 0x101D PUSH1 0x20 DUP3 DUP9 MLOAD PUSH2 0x100C DUP2 DUP8 DUP12 PUSH2 0x18F3 JUMP JUMPDEST DUP2 ADD SUB ADD PUSH1 0x1F NOT DUP2 ADD DUP4 MSTORE DUP3 PUSH2 0x1811 JUMP JUMPDEST MLOAD SWAP1 KECCAK256 EQ PUSH2 0x102E JUMPI JUMPDEST PUSH1 0x1 ADD PUSH2 0xE55 JUMP JUMPDEST SWAP5 PUSH2 0x1041 PUSH2 0x103B DUP8 PUSH2 0x1B29 JUMP JUMPDEST POP PUSH2 0x1C4E JUMP JUMPDEST PUSH2 0x104B DUP3 DUP7 PUSH2 0x1C3A JUMP JUMPDEST MSTORE PUSH2 0x1056 DUP2 DUP6 PUSH2 0x1C3A JUMP JUMPDEST POP PUSH1 0x0 NOT DUP2 EQ PUSH2 0x1069 JUMPI PUSH1 0x1 ADD SWAP5 PUSH2 0x1026 JUMP JUMPDEST PUSH4 0x4E487B71 PUSH1 0xE0 SHL PUSH1 0x0 MSTORE PUSH1 0x11 PUSH1 0x4 MSTORE PUSH1 0x24 PUSH1 0x0 REVERT JUMPDEST PUSH1 0x20 SWAP1 PUSH2 0x108A PUSH2 0x1BE3 JUMP JUMPDEST DUP3 DUP3 DUP7 ADD ADD MSTORE ADD PUSH2 0xE42 JUMP JUMPDEST CALLVALUE PUSH2 0x269 JUMPI PUSH1 0x60 CALLDATASIZE PUSH1 0x3 NOT ADD SLT PUSH2 0x269 JUMPI PUSH1 0x4 CALLDATALOAD PUSH1 0x1 PUSH1 0x1 PUSH1 0x40 SHL SUB DUP2 GT PUSH2 0x269 JUMPI PUSH2 0x10C6 SWAP1 CALLDATASIZE SWAP1 PUSH1 0x4 ADD PUSH2 0x1832 JUMP JUMPDEST PUSH1 0x24 CALLDATALOAD PUSH1 0x1 PUSH1 0x1 PUSH1 0x40 SHL SUB DUP2 GT PUSH2 0x269 JUMPI PUSH2 0x10E5 SWAP1 CALLDATASIZE SWAP1 PUSH1 0x4 ADD PUSH2 0x1832 JUMP JUMPDEST PUSH1 0x44 CALLDATALOAD PUSH1 0x1 PUSH1 0x1 PUSH1 0x40 SHL SUB DUP2 GT PUSH2 0x269 JUMPI PUSH2 0x1104 SWAP1 CALLDATASIZE SWAP1 PUSH1 0x4 ADD PUSH2 0x1832 JUMP JUMPDEST SWAP1 CALLER PUSH1 0x0 MSTORE PUSH1 0x2 PUSH1 0x20 MSTORE PUSH1 0x2 PUSH1 0xFF PUSH1 0x40 PUSH1 0x0 KECCAK256 SLOAD AND PUSH2 0x1122 DUP2 PUSH2 0x19AA JUMP JUMPDEST SUB PUSH2 0x1795 JUMPI PUSH1 0x40 MLOAD SWAP3 DUP1 MLOAD SWAP4 PUSH1 0x20 DUP2 DUP2 DUP5 ADD SWAP7 PUSH2 0x1140 DUP2 DUP4 DUP11 PUSH2 0x18F3 JUMP JUMPDEST DUP2 ADD PUSH1 0x4 DUP2 MSTORE SUB ADD SWAP1 KECCAK256 SWAP1 PUSH1 0x4 DUP3 ADD PUSH1 0xFF DUP2 SLOAD PUSH1 0x8 SHR AND PUSH1 0x2 DUP2 LT ISZERO PUSH2 0x523 JUMPI PUSH2 0x1750 JUMPI PUSH2 0x100 PUSH2 0xFF00 NOT DUP3 SLOAD AND OR SWAP1 SSTORE PUSH1 0x7 DUP3 ADD DUP4 MLOAD PUSH1 0x1 PUSH1 0x1 PUSH1 0x40 SHL SUB DUP2 GT PUSH2 0x99D JUMPI PUSH2 0x118F DUP3 SLOAD PUSH2 0x19B4 JUMP JUMPDEST PUSH1 0x1F DUP2 GT PUSH2 0x1708 JUMPI JUMPDEST POP DUP1 PUSH1 0x20 PUSH1 0x1F DUP3 GT PUSH1 0x1 EQ PUSH2 0x16A5 JUMPI PUSH1 0x0 SWAP2 PUSH2 0x169A JUMPI JUMPDEST POP DUP2 PUSH1 0x1 SHL SWAP2 PUSH1 0x0 NOT SWAP1 PUSH1 0x3 SHL SHR NOT AND OR SWAP1 SSTORE JUMPDEST TIMESTAMP PUSH1 0x6 DUP4 ADD SSTORE PUSH1 0x8 DUP3 ADD DUP1 SLOAD PUSH1 0x1 PUSH1 0x1 PUSH1 0xA0 SHL SUB NOT AND CALLER OR SWAP1 SSTORE DUP4 MLOAD PUSH1 0x9 DUP4 ADD SWAP1 PUSH1 0x1 PUSH1 0x1 PUSH1 0x40 SHL SUB DUP2 GT PUSH2 0x99D JUMPI PUSH2 0x11FC DUP3 SLOAD PUSH2 0x19B4 JUMP JUMPDEST PUSH1 0x1F DUP2 GT PUSH2 0x1652 JUMPI JUMPDEST POP DUP1 PUSH1 0x20 PUSH1 0x1F DUP3 GT PUSH1 0x1 EQ PUSH2 0x15EF JUMPI PUSH1 0x0 SWAP2 PUSH2 0x15E4 JUMPI JUMPDEST POP DUP2 PUSH1 0x1 SHL SWAP2 PUSH1 0x0 NOT SWAP1 PUSH1 0x3 SHL SHR NOT AND OR SWAP1 SSTORE JUMPDEST PUSH1 0x0 JUMPDEST PUSH1 0x5 SLOAD DUP2 LT ISZERO PUSH2 0x15AE JUMPI PUSH2 0x1246 DUP2 PUSH2 0x1B29 JUMP JUMPDEST POP PUSH1 0x40 MLOAD PUSH2 0x125C DUP2 PUSH2 0xFE0 PUSH1 0x20 DUP3 ADD DUP1 SWAP6 PUSH2 0x1B5E JUMP JUMPDEST MLOAD SWAP1 KECCAK256 PUSH1 0x40 MLOAD PUSH1 0x20 DUP2 ADD SWAP1 PUSH2 0x127C PUSH1 0x20 DUP3 DUP5 PUSH2 0x100C DUP14 DUP11 MLOAD SWAP3 DUP4 SWAP2 PUSH2 0x18F3 JUMP JUMPDEST MLOAD SWAP1 KECCAK256 EQ PUSH2 0x128C JUMPI PUSH1 0x1 ADD PUSH2 0x1233 JUMP JUMPDEST SWAP5 POP POP PUSH1 0x4 PUSH2 0x129A DUP6 PUSH2 0x1B29 JUMP JUMPDEST POP ADD DUP1 SLOAD PUSH2 0xFF00 NOT AND PUSH2 0x100 OR SWAP1 SSTORE PUSH1 0x7 PUSH2 0x12B4 DUP6 PUSH2 0x1B29 JUMP JUMPDEST POP ADD SWAP4 DUP3 MLOAD SWAP5 PUSH1 0x1 PUSH1 0x1 PUSH1 0x40 SHL SUB DUP7 GT PUSH2 0x99D JUMPI PUSH2 0x12D2 DUP2 SLOAD PUSH2 0x19B4 JUMP JUMPDEST PUSH1 0x1F DUP2 GT PUSH2 0x1566 JUMPI JUMPDEST POP PUSH1 0x20 SWAP6 PUSH1 0x1F DUP2 GT PUSH1 0x1 EQ PUSH2 0x14F9 JUMPI SWAP1 DUP2 PUSH2 0x1345 SWAP4 SWAP3 PUSH1 0x9 SWAP6 SWAP7 SWAP8 SWAP9 PUSH1 0x0 SWAP2 PUSH2 0x14EE JUMPI JUMPDEST POP DUP2 PUSH1 0x1 SHL SWAP2 PUSH1 0x0 NOT SWAP1 PUSH1 0x3 SHL SHR NOT AND OR SWAP1 SSTORE JUMPDEST PUSH2 0x131C DUP2 PUSH2 0x1B29 JUMP JUMPDEST POP PUSH1 0x6 TIMESTAMP SWAP2 ADD SSTORE PUSH1 0x8 PUSH2 0x132E DUP3 PUSH2 0x1B29 JUMP JUMPDEST POP ADD DUP1 SLOAD PUSH1 0x1 PUSH1 0x1 PUSH1 0xA0 SHL SUB NOT AND CALLER OR SWAP1 SSTORE PUSH2 0x1B29 JUMP JUMPDEST POP ADD DUP4 MLOAD PUSH1 0x1 PUSH1 0x1 PUSH1 0x40 SHL SUB DUP2 GT PUSH2 0x99D JUMPI PUSH2 0x1361 DUP3 SLOAD PUSH2 0x19B4 JUMP JUMPDEST PUSH1 0x1F DUP2 GT PUSH2 0x14A6 JUMPI JUMPDEST POP PUSH1 0x20 PUSH1 0x1F DUP3 GT PUSH1 0x1 EQ PUSH2 0x1414 JUMPI PUSH32 0xEDC9920EA2D8611E7D985ECF390206409122B6DF9A9C529063C5311531494BE1 SWAP6 SWAP4 PUSH2 0x13FE SWAP4 DUP4 PUSH2 0x13E1 SWAP8 SWAP5 PUSH2 0x13F0 SWAP5 PUSH1 0x0 SWAP2 PUSH2 0x1409 JUMPI JUMPDEST POP DUP2 PUSH1 0x1 SHL SWAP2 PUSH1 0x0 NOT SWAP1 PUSH1 0x3 SHL SHR NOT AND OR SWAP1 SSTORE JUMPDEST PUSH1 0x3 PUSH1 0x40 MLOAD SWAP7 DUP8 SWAP7 CALLER DUP9 MSTORE PUSH1 0xA0 PUSH1 0x20 DUP10 ADD MSTORE PUSH1 0xA0 DUP9 ADD SWAP1 PUSH2 0x1916 JUMP JUMPDEST SWAP2 DUP7 DUP4 SUB PUSH1 0x40 DUP9 ADD MSTORE ADD PUSH2 0x19EE JUMP JUMPDEST SWAP1 DUP4 DUP3 SUB PUSH1 0x60 DUP6 ADD MSTORE PUSH2 0x1916 JUMP JUMPDEST TIMESTAMP PUSH1 0x80 DUP4 ADD MSTORE SUB SWAP1 LOG1 STOP JUMPDEST SWAP1 POP DUP8 ADD MLOAD DUP11 PUSH2 0x13B1 JUMP JUMPDEST PUSH1 0x1F NOT DUP3 AND SWAP1 DUP4 PUSH1 0x0 MSTORE DUP1 PUSH1 0x0 KECCAK256 SWAP2 PUSH1 0x0 JUMPDEST DUP2 DUP2 LT PUSH2 0x148E JUMPI POP SWAP4 PUSH1 0x1 DUP5 PUSH2 0x13F0 SWAP5 PUSH32 0xEDC9920EA2D8611E7D985ECF390206409122B6DF9A9C529063C5311531494BE1 SWAP11 SWAP9 SWAP5 PUSH2 0x13E1 SWAP11 SWAP8 PUSH2 0x13FE SWAP10 LT PUSH2 0x1475 JUMPI JUMPDEST POP POP DUP2 SHL ADD SWAP1 SSTORE PUSH2 0x13C5 JUMP JUMPDEST DUP10 ADD MLOAD PUSH1 0x0 NOT PUSH1 0xF8 DUP5 PUSH1 0x3 SHL AND SHR NOT AND SWAP1 SSTORE DUP11 DUP1 PUSH2 0x1469 JUMP JUMPDEST SWAP2 SWAP3 PUSH1 0x20 PUSH1 0x1 DUP2 SWAP3 DUP7 DUP13 ADD MLOAD DUP2 SSTORE ADD SWAP5 ADD SWAP3 ADD PUSH2 0x1426 JUMP JUMPDEST DUP3 PUSH1 0x0 MSTORE PUSH1 0x20 PUSH1 0x0 KECCAK256 PUSH1 0x1F DUP4 ADD PUSH1 0x5 SHR DUP2 ADD SWAP2 PUSH1 0x20 DUP5 LT PUSH2 0x14E4 JUMPI JUMPDEST PUSH1 0x1F ADD PUSH1 0x5 SHR ADD SWAP1 JUMPDEST DUP2 DUP2 LT PUSH2 0x14D8 JUMPI POP PUSH2 0x136A JUMP JUMPDEST PUSH1 0x0 DUP2 SSTORE PUSH1 0x1 ADD PUSH2 0x14CB JUMP JUMPDEST SWAP1 SWAP2 POP DUP2 SWAP1 PUSH2 0x14C2 JUMP JUMPDEST SWAP1 POP DUP8 ADD MLOAD DUP10 PUSH2 0x12FF JUMP JUMPDEST PUSH1 0x1F NOT DUP2 AND DUP3 PUSH1 0x0 MSTORE DUP8 PUSH1 0x0 KECCAK256 SWAP1 PUSH1 0x0 JUMPDEST DUP2 DUP2 LT PUSH2 0x154E JUMPI POP SWAP2 PUSH1 0x1 SWAP2 PUSH1 0x9 SWAP7 SWAP8 SWAP9 SWAP10 DUP3 PUSH2 0x1345 SWAP8 SWAP7 SWAP6 LT PUSH2 0x1535 JUMPI JUMPDEST POP POP DUP2 SHL ADD SWAP1 SSTORE PUSH2 0x1313 JUMP JUMPDEST DUP10 ADD MLOAD PUSH1 0x0 NOT PUSH1 0xF8 DUP5 PUSH1 0x3 SHL AND SHR NOT AND SWAP1 SSTORE DUP10 DUP1 PUSH2 0x1529 JUMP JUMPDEST DUP8 DUP11 ADD MLOAD DUP4 SSTORE PUSH1 0x20 SWAP10 DUP11 ADD SWAP10 PUSH1 0x1 SWAP1 SWAP4 ADD SWAP3 ADD PUSH2 0x150A JUMP JUMPDEST DUP2 PUSH1 0x0 MSTORE PUSH1 0x20 PUSH1 0x0 KECCAK256 PUSH1 0x1F DUP9 ADD PUSH1 0x5 SHR DUP2 ADD SWAP2 PUSH1 0x20 DUP10 LT PUSH2 0x15A4 JUMPI JUMPDEST PUSH1 0x1F ADD PUSH1 0x5 SHR ADD SWAP1 JUMPDEST DUP2 DUP2 LT PUSH2 0x1598 JUMPI POP PUSH2 0x12DB JUMP JUMPDEST PUSH1 0x0 DUP2 SSTORE PUSH1 0x1 ADD PUSH2 0x158B JUMP JUMPDEST SWAP1 SWAP2 POP DUP2 SWAP1 PUSH2 0x1582 JUMP JUMPDEST POP POP PUSH32 0xEDC9920EA2D8611E7D985ECF390206409122B6DF9A9C529063C5311531494BE1 SWAP4 POP PUSH2 0x13E1 SWAP3 SWAP2 PUSH2 0x13F0 PUSH2 0x13FE SWAP3 PUSH2 0x13C5 JUMP JUMPDEST SWAP1 POP DUP7 ADD MLOAD DUP9 PUSH2 0x121C JUMP JUMPDEST PUSH1 0x0 DUP5 DUP2 MSTORE DUP2 DUP2 KECCAK256 SWAP3 POP PUSH1 0x1F NOT DUP5 AND SWAP1 JUMPDEST DUP2 DUP2 LT PUSH2 0x163A JUMPI POP SWAP1 DUP4 PUSH1 0x1 SWAP5 SWAP4 SWAP3 LT PUSH2 0x1621 JUMPI JUMPDEST POP POP DUP2 SHL ADD SWAP1 SSTORE PUSH2 0x1230 JUMP JUMPDEST DUP9 ADD MLOAD PUSH1 0x0 NOT PUSH1 0xF8 DUP5 PUSH1 0x3 SHL AND SHR NOT AND SWAP1 SSTORE DUP9 DUP1 PUSH2 0x1615 JUMP JUMPDEST SWAP2 SWAP3 PUSH1 0x20 PUSH1 0x1 DUP2 SWAP3 DUP7 DUP14 ADD MLOAD DUP2 SSTORE ADD SWAP5 ADD SWAP3 ADD PUSH2 0x1600 JUMP JUMPDEST DUP3 PUSH1 0x0 MSTORE PUSH1 0x20 PUSH1 0x0 KECCAK256 PUSH1 0x1F DUP4 ADD PUSH1 0x5 SHR DUP2 ADD SWAP2 PUSH1 0x20 DUP5 LT PUSH2 0x1690 JUMPI JUMPDEST PUSH1 0x1F ADD PUSH1 0x5 SHR ADD SWAP1 JUMPDEST DUP2 DUP2 LT PUSH2 0x1684 JUMPI POP PUSH2 0x1205 JUMP JUMPDEST PUSH1 0x0 DUP2 SSTORE PUSH1 0x1 ADD PUSH2 0x1677 JUMP JUMPDEST SWAP1 SWAP2 POP DUP2 SWAP1 PUSH2 0x166E JUMP JUMPDEST SWAP1 POP DUP6 ADD MLOAD DUP9 PUSH2 0x11AF JUMP JUMPDEST PUSH1 0x0 DUP5 DUP2 MSTORE DUP2 DUP2 KECCAK256 SWAP3 POP PUSH1 0x1F NOT DUP5 AND SWAP1 JUMPDEST DUP2 DUP2 LT PUSH2 0x16F0 JUMPI POP SWAP1 DUP4 PUSH1 0x1 SWAP5 SWAP4 SWAP3 LT PUSH2 0x16D7 JUMPI JUMPDEST POP POP DUP2 SHL ADD SWAP1 SSTORE PUSH2 0x11C3 JUMP JUMPDEST DUP8 ADD MLOAD PUSH1 0x0 NOT PUSH1 0xF8 DUP5 PUSH1 0x3 SHL AND SHR NOT AND SWAP1 SSTORE DUP9 DUP1 PUSH2 0x16CB JUMP JUMPDEST SWAP2 SWAP3 PUSH1 0x20 PUSH1 0x1 DUP2 SWAP3 DUP7 DUP13 ADD MLOAD DUP2 SSTORE ADD SWAP5 ADD SWAP3 ADD PUSH2 0x16B6 JUMP JUMPDEST DUP3 PUSH1 0x0 MSTORE PUSH1 0x20 PUSH1 0x0 KECCAK256 PUSH1 0x1F DUP4 ADD PUSH1 0x5 SHR DUP2 ADD SWAP2 PUSH1 0x20 DUP5 LT PUSH2 0x1746 JUMPI JUMPDEST PUSH1 0x1F ADD PUSH1 0x5 SHR ADD SWAP1 JUMPDEST DUP2 DUP2 LT PUSH2 0x173A JUMPI POP PUSH2 0x1198 JUMP JUMPDEST PUSH1 0x0 DUP2 SSTORE PUSH1 0x1 ADD PUSH2 0x172D JUMP JUMPDEST SWAP1 SWAP2 POP DUP2 SWAP1 PUSH2 0x1724 JUMP JUMPDEST PUSH1 0x40 MLOAD PUSH3 0x461BCD PUSH1 0xE5 SHL DUP2 MSTORE PUSH1 0x20 PUSH1 0x4 DUP3 ADD MSTORE PUSH1 0x1D PUSH1 0x24 DUP3 ADD MSTORE PUSH32 0x43504F544220737461747573206D7573742062652070656E64696E6721000000 PUSH1 0x44 DUP3 ADD MSTORE PUSH1 0x64 SWAP1 REVERT JUMPDEST PUSH1 0x40 MLOAD PUSH3 0x461BCD PUSH1 0xE5 SHL DUP2 MSTORE PUSH1 0x20 PUSH1 0x4 DUP3 ADD MSTORE PUSH1 0x1E PUSH1 0x24 DUP3 ADD MSTORE PUSH32 0x416363657373207265737472696374656420746F2042504F4D20726F6C650000 PUSH1 0x44 DUP3 ADD MSTORE PUSH1 0x64 SWAP1 REVERT JUMPDEST PUSH2 0x160 DUP2 ADD SWAP1 DUP2 LT PUSH1 0x1 PUSH1 0x1 PUSH1 0x40 SHL SUB DUP3 GT OR PUSH2 0x99D JUMPI PUSH1 0x40 MSTORE JUMP JUMPDEST PUSH1 0x80 DUP2 ADD SWAP1 DUP2 LT PUSH1 0x1 PUSH1 0x1 PUSH1 0x40 SHL SUB DUP3 GT OR PUSH2 0x99D JUMPI PUSH1 0x40 MSTORE JUMP JUMPDEST SWAP1 PUSH1 0x1F DUP1 NOT SWAP2 ADD AND DUP2 ADD SWAP1 DUP2 LT PUSH1 0x1 PUSH1 0x1 PUSH1 0x40 SHL SUB DUP3 GT OR PUSH2 0x99D JUMPI PUSH1 0x40 MSTORE JUMP JUMPDEST DUP2 PUSH1 0x1F DUP3 ADD SLT ISZERO PUSH2 0x269 JUMPI DUP1 CALLDATALOAD SWAP1 PUSH1 0x1 PUSH1 0x1 PUSH1 0x40 SHL SUB DUP3 GT PUSH2 0x99D JUMPI PUSH1 0x40 MLOAD SWAP3 PUSH2 0x1866 PUSH1 0x1F DUP5 ADD PUSH1 0x1F NOT AND PUSH1 0x20 ADD DUP6 PUSH2 0x1811 JUMP JUMPDEST DUP3 DUP5 MSTORE PUSH1 0x20 DUP4 DUP4 ADD ADD GT PUSH2 0x269 JUMPI DUP2 PUSH1 0x0 SWAP3 PUSH1 0x20 DUP1 SWAP4 ADD DUP4 DUP7 ADD CALLDATACOPY DUP4 ADD ADD MSTORE SWAP1 JUMP JUMPDEST SWAP1 PUSH1 0x20 DUP1 DUP4 MLOAD SWAP3 DUP4 DUP2 MSTORE ADD SWAP3 ADD SWAP1 PUSH1 0x0 JUMPDEST DUP2 DUP2 LT PUSH2 0x18A6 JUMPI POP POP POP SWAP1 JUMP JUMPDEST DUP3 MLOAD PUSH1 0xFF AND DUP5 MSTORE PUSH1 0x20 SWAP4 DUP5 ADD SWAP4 SWAP1 SWAP3 ADD SWAP2 PUSH1 0x1 ADD PUSH2 0x1899 JUMP JUMPDEST SWAP1 PUSH1 0x20 DUP1 DUP4 MLOAD SWAP3 DUP4 DUP2 MSTORE ADD SWAP3 ADD SWAP1 PUSH1 0x0 JUMPDEST DUP2 DUP2 LT PUSH2 0x18DD JUMPI POP POP POP SWAP1 JUMP JUMPDEST DUP3 MLOAD DUP5 MSTORE PUSH1 0x20 SWAP4 DUP5 ADD SWAP4 SWAP1 SWAP3 ADD SWAP2 PUSH1 0x1 ADD PUSH2 0x18D0 JUMP JUMPDEST PUSH1 0x0 JUMPDEST DUP4 DUP2 LT PUSH2 0x1906 JUMPI POP POP PUSH1 0x0 SWAP2 ADD MSTORE JUMP JUMPDEST DUP2 DUP2 ADD MLOAD DUP4 DUP3 ADD MSTORE PUSH1 0x20 ADD PUSH2 0x18F6 JUMP JUMPDEST SWAP1 PUSH1 0x20 SWAP2 PUSH2 0x192F DUP2 MLOAD DUP1 SWAP3 DUP2 DUP6 MSTORE DUP6 DUP1 DUP7 ADD SWAP2 ADD PUSH2 0x18F3 JUMP JUMPDEST PUSH1 0x1F ADD PUSH1 0x1F NOT AND ADD ADD SWAP1 JUMP JUMPDEST SWAP1 DUP1 PUSH1 0x20 DUP4 MLOAD SWAP2 DUP3 DUP2 MSTORE ADD SWAP2 PUSH1 0x20 DUP1 DUP4 PUSH1 0x5 SHL DUP4 ADD ADD SWAP5 ADD SWAP3 PUSH1 0x0 SWAP2 JUMPDEST DUP4 DUP4 LT PUSH2 0x1967 JUMPI POP POP POP POP POP SWAP1 JUMP JUMPDEST SWAP1 SWAP2 SWAP3 SWAP4 SWAP5 PUSH1 0x20 DUP1 PUSH2 0x1985 PUSH1 0x1 SWAP4 PUSH1 0x1F NOT DUP7 DUP3 SUB ADD DUP8 MSTORE DUP10 MLOAD PUSH2 0x1916 JUMP JUMPDEST SWAP8 ADD SWAP4 ADD SWAP4 ADD SWAP2 SWAP4 SWAP3 SWAP1 PUSH2 0x1958 JUMP JUMPDEST PUSH1 0x4 CALLDATALOAD SWAP1 PUSH1 0x1 PUSH1 0x1 PUSH1 0xA0 SHL SUB DUP3 AND DUP3 SUB PUSH2 0x269 JUMPI JUMP JUMPDEST PUSH1 0x4 GT ISZERO PUSH2 0x523 JUMPI JUMP JUMPDEST SWAP1 PUSH1 0x1 DUP3 DUP2 SHR SWAP3 AND DUP1 ISZERO PUSH2 0x19E4 JUMPI JUMPDEST PUSH1 0x20 DUP4 LT EQ PUSH2 0x19CE JUMPI JUMP JUMPDEST PUSH4 0x4E487B71 PUSH1 0xE0 SHL PUSH1 0x0 MSTORE PUSH1 0x22 PUSH1 0x4 MSTORE PUSH1 0x24 PUSH1 0x0 REVERT JUMPDEST SWAP2 PUSH1 0x7F AND SWAP2 PUSH2 0x19C3 JUMP JUMPDEST PUSH1 0x0 SWAP3 SWAP2 DUP2 SLOAD SWAP2 PUSH2 0x19FE DUP4 PUSH2 0x19B4 JUMP JUMPDEST DUP1 DUP4 MSTORE SWAP3 PUSH1 0x1 DUP2 AND SWAP1 DUP2 ISZERO PUSH2 0x1A54 JUMPI POP PUSH1 0x1 EQ PUSH2 0x1A1A JUMPI POP POP POP JUMP JUMPDEST PUSH1 0x0 SWAP1 DUP2 MSTORE PUSH1 0x20 DUP2 KECCAK256 SWAP4 SWAP5 POP SWAP2 SWAP3 JUMPDEST DUP4 DUP4 LT PUSH2 0x1A3A JUMPI POP PUSH1 0x20 SWAP3 POP ADD ADD SWAP1 JUMP JUMPDEST PUSH1 0x1 DUP2 PUSH1 0x20 SWAP3 SWAP5 SWAP4 SWAP5 SLOAD DUP4 DUP6 DUP8 ADD ADD MSTORE ADD SWAP2 ADD SWAP2 SWAP1 PUSH2 0x1A29 JUMP JUMPDEST SWAP2 POP POP PUSH1 0x20 SWAP4 SWAP5 POP PUSH1 0xFF SWAP3 SWAP2 SWAP3 NOT AND DUP4 DUP4 ADD MSTORE ISZERO ISZERO PUSH1 0x5 SHL ADD ADD SWAP1 JUMP JUMPDEST SWAP1 PUSH1 0x2 DUP3 LT ISZERO PUSH2 0x523 JUMPI MSTORE JUMP JUMPDEST SWAP8 SWAP4 PUSH2 0x1B06 SWAP8 SWAP4 PUSH2 0x1AD5 SWAP2 PUSH2 0x1AB8 PUSH2 0x1AEE SWAP6 PUSH2 0x1B26 SWAP16 SWAP14 SWAP10 SWAP11 SWAP6 PUSH2 0x1AAA SWAP1 PUSH2 0x160 DUP16 DUP2 DUP2 MSTORE ADD SWAP1 PUSH2 0x1916 JUMP JUMPDEST DUP14 DUP2 SUB PUSH1 0x20 DUP16 ADD MSTORE SWAP1 PUSH2 0x1916 JUMP JUMPDEST PUSH1 0x1 PUSH1 0x1 PUSH1 0xA0 SHL SUB SWAP1 SWAP3 AND PUSH1 0x40 DUP13 ADD MSTORE DUP11 DUP3 SUB PUSH1 0x60 DUP13 ADD MSTORE PUSH2 0x1916 JUMP JUMPDEST SWAP6 PUSH2 0x1ADF DUP2 PUSH2 0x19AA JUMP JUMPDEST PUSH1 0x80 DUP10 ADD MSTORE PUSH1 0xA0 DUP9 ADD SWAP1 PUSH2 0x1A71 JUMP JUMPDEST PUSH1 0xC0 DUP7 ADD MSTORE PUSH1 0xE0 DUP6 ADD MSTORE DUP4 DUP3 SUB PUSH2 0x100 DUP6 ADD MSTORE PUSH2 0x1916 JUMP JUMPDEST PUSH1 0x1 PUSH1 0x1 PUSH1 0xA0 SHL SUB SWAP1 SWAP4 AND PUSH2 0x120 DUP3 ADD MSTORE DUP1 DUP4 SUB PUSH2 0x140 SWAP1 SWAP2 ADD MSTORE PUSH2 0x1916 JUMP JUMPDEST SWAP1 JUMP JUMPDEST PUSH1 0x5 SLOAD DUP2 LT ISZERO PUSH2 0x1B48 JUMPI PUSH1 0x5 PUSH1 0x0 MSTORE PUSH1 0xA PUSH1 0x20 PUSH1 0x0 KECCAK256 SWAP2 MUL ADD SWAP1 PUSH1 0x0 SWAP1 JUMP JUMPDEST PUSH4 0x4E487B71 PUSH1 0xE0 SHL PUSH1 0x0 MSTORE PUSH1 0x32 PUSH1 0x4 MSTORE PUSH1 0x24 PUSH1 0x0 REVERT JUMPDEST PUSH1 0x0 SWAP3 SWAP2 DUP2 SLOAD SWAP2 PUSH2 0x1B6E DUP4 PUSH2 0x19B4 JUMP JUMPDEST SWAP3 PUSH1 0x1 DUP2 AND SWAP1 DUP2 ISZERO PUSH2 0x1BB9 JUMPI POP PUSH1 0x1 EQ PUSH2 0x1B87 JUMPI POP POP POP JUMP JUMPDEST SWAP1 SWAP2 SWAP3 SWAP4 POP PUSH1 0x0 MSTORE PUSH1 0x20 PUSH1 0x0 KECCAK256 PUSH1 0x0 SWAP1 JUMPDEST DUP4 DUP3 LT PUSH2 0x1BA5 JUMPI POP POP ADD SWAP1 JUMP JUMPDEST PUSH1 0x1 DUP2 PUSH1 0x20 SWAP3 SLOAD DUP5 DUP7 ADD MSTORE ADD SWAP2 ADD SWAP1 PUSH2 0x1B98 JUMP JUMPDEST PUSH1 0xFF NOT AND DUP4 MSTORE POP POP DUP2 ISZERO ISZERO SWAP1 SWAP2 MUL ADD SWAP2 POP JUMP JUMPDEST PUSH1 0x1 PUSH1 0x1 PUSH1 0x40 SHL SUB DUP2 GT PUSH2 0x99D JUMPI PUSH1 0x5 SHL PUSH1 0x20 ADD SWAP1 JUMP JUMPDEST PUSH1 0x40 MLOAD SWAP1 PUSH2 0x1BF0 DUP3 PUSH2 0x17DA JUMP JUMPDEST PUSH1 0x60 PUSH2 0x140 DUP4 DUP3 DUP2 MSTORE DUP3 PUSH1 0x20 DUP3 ADD MSTORE PUSH1 0x0 PUSH1 0x40 DUP3 ADD MSTORE DUP3 DUP1 DUP3 ADD MSTORE PUSH1 0x0 PUSH1 0x80 DUP3 ADD MSTORE PUSH1 0x0 PUSH1 0xA0 DUP3 ADD MSTORE PUSH1 0x0 PUSH1 0xC0 DUP3 ADD MSTORE PUSH1 0x0 PUSH1 0xE0 DUP3 ADD MSTORE DUP3 PUSH2 0x100 DUP3 ADD MSTORE PUSH1 0x0 PUSH2 0x120 DUP3 ADD MSTORE ADD MSTORE JUMP JUMPDEST DUP1 MLOAD DUP3 LT ISZERO PUSH2 0x1B48 JUMPI PUSH1 0x20 SWAP2 PUSH1 0x5 SHL ADD ADD SWAP1 JUMP JUMPDEST SWAP1 PUSH1 0x40 MLOAD PUSH2 0x1C5B DUP2 PUSH2 0x17DA JUMP JUMPDEST DUP1 SWAP3 PUSH1 0x40 MLOAD PUSH2 0x1C6E DUP2 PUSH2 0x47F DUP2 DUP6 PUSH2 0x19EE JUMP JUMPDEST DUP3 MSTORE PUSH1 0x40 MLOAD PUSH2 0x1C84 DUP2 PUSH2 0x47F DUP2 PUSH1 0x1 DUP7 ADD PUSH2 0x19EE JUMP JUMPDEST PUSH1 0x20 DUP4 ADD MSTORE PUSH1 0x2 DUP2 ADD SLOAD PUSH1 0x1 PUSH1 0x1 PUSH1 0xA0 SHL SUB AND PUSH1 0x40 DUP1 DUP5 ADD SWAP2 SWAP1 SWAP2 MSTORE MLOAD PUSH2 0x1CB2 DUP2 PUSH2 0x47F DUP2 PUSH1 0x3 DUP7 ADD PUSH2 0x19EE JUMP JUMPDEST PUSH1 0x60 DUP4 ADD MSTORE PUSH1 0xFF PUSH1 0x4 DUP3 ADD SLOAD DUP2 DUP2 AND PUSH2 0x1CCA DUP2 PUSH2 0x19AA JUMP JUMPDEST PUSH1 0x80 DUP6 ADD MSTORE PUSH1 0x8 SHR AND SWAP2 PUSH1 0x2 DUP4 LT ISZERO PUSH2 0x523 JUMPI PUSH2 0x1D47 PUSH2 0x140 SWAP3 PUSH1 0x9 SWAP5 PUSH1 0xA0 DUP5 ADD MSTORE PUSH1 0x5 DUP2 ADD SLOAD PUSH1 0xC0 DUP5 ADD MSTORE PUSH1 0x6 DUP2 ADD SLOAD PUSH1 0xE0 DUP5 ADD MSTORE PUSH1 0x40 MLOAD PUSH2 0x1D14 DUP2 PUSH2 0x47F DUP2 PUSH1 0x7 DUP7 ADD PUSH2 0x19EE JUMP JUMPDEST PUSH2 0x100 DUP5 ADD MSTORE PUSH1 0x8 DUP2 ADD SLOAD PUSH1 0x1 PUSH1 0x1 PUSH1 0xA0 SHL SUB AND PUSH2 0x120 DUP5 ADD MSTORE PUSH1 0x40 MLOAD SWAP5 DUP6 SWAP2 PUSH2 0x1D40 SWAP2 DUP4 SWAP2 ADD PUSH2 0x19EE JUMP JUMPDEST SUB DUP5 PUSH2 0x1811 JUMP JUMPDEST ADD MSTORE JUMP JUMPDEST SWAP1 PUSH2 0x1D55 DUP3 PUSH2 0x1BCC JUMP JUMPDEST PUSH2 0x1D62 PUSH1 0x40 MLOAD SWAP2 DUP3 PUSH2 0x1811 JUMP JUMPDEST DUP3 DUP2 MSTORE DUP1 SWAP3 PUSH2 0x1D73 PUSH1 0x1F NOT SWAP2 PUSH2 0x1BCC JUMP JUMPDEST ADD SWAP1 PUSH1 0x20 CALLDATASIZE SWAP2 ADD CALLDATACOPY JUMP JUMPDEST SWAP1 PUSH2 0x1D87 DUP3 PUSH2 0x1BCC JUMP JUMPDEST PUSH2 0x1D94 PUSH1 0x40 MLOAD SWAP2 DUP3 PUSH2 0x1811 JUMP JUMPDEST DUP3 DUP2 MSTORE DUP1 SWAP3 PUSH2 0x1DA5 PUSH1 0x1F NOT SWAP2 PUSH2 0x1BCC JUMP JUMPDEST ADD SWAP1 PUSH1 0x0 JUMPDEST DUP3 DUP2 LT PUSH2 0x1DB6 JUMPI POP POP POP JUMP JUMPDEST DUP1 PUSH1 0x60 PUSH1 0x20 DUP1 SWAP4 DUP6 ADD ADD MSTORE ADD PUSH2 0x1DAA JUMP JUMPDEST SWAP1 SWAP2 DUP3 MLOAD SWAP3 DUP4 MLOAD PUSH1 0x1 PUSH1 0x1 PUSH1 0x40 SHL SUB DUP2 GT PUSH2 0x99D JUMPI PUSH2 0x1DE6 DUP5 SLOAD PUSH2 0x19B4 JUMP JUMPDEST PUSH1 0x1F DUP2 GT PUSH2 0x23D0 JUMPI JUMPDEST POP PUSH1 0x20 SWAP5 PUSH1 0x1F DUP3 GT PUSH1 0x1 EQ PUSH2 0x236B JUMPI SWAP5 DUP2 SWAP3 SWAP4 SWAP5 SWAP6 PUSH1 0x0 SWAP3 PUSH2 0x2360 JUMPI JUMPDEST POP POP DUP2 PUSH1 0x1 SHL SWAP2 PUSH1 0x0 NOT SWAP1 PUSH1 0x3 SHL SHR NOT AND OR DUP4 SSTORE JUMPDEST PUSH1 0x1 DUP4 ADD PUSH1 0x20 DUP3 ADD MLOAD DUP1 MLOAD SWAP1 PUSH1 0x1 PUSH1 0x1 PUSH1 0x40 SHL SUB DUP3 GT PUSH2 0x99D JUMPI DUP2 SWAP1 PUSH2 0x1E47 DUP5 SLOAD PUSH2 0x19B4 JUMP JUMPDEST PUSH1 0x1F DUP2 GT PUSH2 0x230D JUMPI JUMPDEST POP PUSH1 0x20 SWAP1 PUSH1 0x1F DUP4 GT PUSH1 0x1 EQ PUSH2 0x22A8 JUMPI PUSH1 0x0 SWAP3 PUSH2 0x229D JUMPI JUMPDEST POP POP DUP2 PUSH1 0x1 SHL SWAP2 PUSH1 0x0 NOT SWAP1 PUSH1 0x3 SHL SHR NOT AND OR SWAP1 SSTORE JUMPDEST PUSH1 0x40 DUP2 ADD MLOAD PUSH1 0x2 DUP5 ADD DUP1 SLOAD PUSH1 0x1 PUSH1 0x1 PUSH1 0xA0 SHL SUB NOT AND PUSH1 0x1 PUSH1 0x1 PUSH1 0xA0 SHL SUB SWAP3 SWAP1 SWAP3 AND SWAP2 SWAP1 SWAP2 OR SWAP1 SSTORE PUSH1 0x60 DUP2 ADD MLOAD DUP1 MLOAD PUSH1 0x3 DUP6 ADD SWAP2 PUSH1 0x1 PUSH1 0x1 PUSH1 0x40 SHL SUB DUP3 GT PUSH2 0x99D JUMPI DUP2 SWAP1 PUSH2 0x1EC9 DUP5 SLOAD PUSH2 0x19B4 JUMP JUMPDEST PUSH1 0x1F DUP2 GT PUSH2 0x224A JUMPI JUMPDEST POP PUSH1 0x20 SWAP1 PUSH1 0x1F DUP4 GT PUSH1 0x1 EQ PUSH2 0x21E5 JUMPI PUSH1 0x0 SWAP3 PUSH2 0x21DA JUMPI JUMPDEST POP POP DUP2 PUSH1 0x1 SHL SWAP2 PUSH1 0x0 NOT SWAP1 PUSH1 0x3 SHL SHR NOT AND OR SWAP1 SSTORE JUMPDEST PUSH1 0x4 DUP4 ADD SWAP3 PUSH1 0x80 DUP3 ADD MLOAD PUSH2 0x1F11 DUP2 PUSH2 0x19AA JUMP JUMPDEST PUSH2 0x1F1A DUP2 PUSH2 0x19AA JUMP JUMPDEST PUSH1 0xFF DUP1 NOT DUP7 SLOAD AND SWAP2 AND OR DUP5 SSTORE PUSH1 0xA0 DUP3 ADD MLOAD SWAP4 PUSH1 0x2 DUP6 LT ISZERO PUSH2 0x523 JUMPI PUSH1 0x0 SWAP5 PUSH2 0xFF00 DUP3 SLOAD SWAP2 PUSH1 0x8 SHL AND SWAP1 PUSH2 0xFF00 NOT AND OR SWAP1 SSTORE PUSH1 0xC0 DUP3 ADD MLOAD PUSH1 0x5 DUP3 ADD SSTORE PUSH1 0xE0 DUP3 ADD MLOAD PUSH1 0x6 DUP3 ADD SSTORE PUSH1 0x7 DUP2 ADD PUSH2 0x100 DUP4 ADD MLOAD DUP1 MLOAD SWAP1 PUSH1 0x1 PUSH1 0x1 PUSH1 0x40 SHL SUB DUP3 GT PUSH2 0x21C6 JUMPI PUSH2 0x1F84 DUP4 SLOAD PUSH2 0x19B4 JUMP JUMPDEST PUSH1 0x1F DUP2 GT PUSH2 0x2181 JUMPI JUMPDEST POP PUSH1 0x20 SWAP1 PUSH1 0x1F DUP4 GT PUSH1 0x1 EQ PUSH2 0x2117 JUMPI SWAP2 DUP1 PUSH1 0x9 SWAP5 SWAP3 PUSH2 0x140 SWAP7 SWAP5 DUP11 SWAP3 PUSH2 0x210C JUMPI JUMPDEST POP POP DUP2 PUSH1 0x1 SHL SWAP2 PUSH1 0x0 NOT SWAP1 PUSH1 0x3 SHL SHR NOT AND OR SWAP1 SSTORE JUMPDEST PUSH2 0x120 DUP5 ADD MLOAD PUSH1 0x8 DUP3 ADD DUP1 SLOAD PUSH1 0x1 PUSH1 0x1 PUSH1 0xA0 SHL SUB NOT AND PUSH1 0x1 PUSH1 0x1 PUSH1 0xA0 SHL SUB SWAP3 SWAP1 SWAP3 AND SWAP2 SWAP1 SWAP2 OR SWAP1 SSTORE SWAP2 SWAP1 SWAP3 ADD MLOAD DUP1 MLOAD SWAP1 SWAP5 SWAP3 SWAP1 SWAP2 ADD SWAP2 PUSH1 0x1 PUSH1 0x1 PUSH1 0x40 SHL SUB DUP3 GT PUSH2 0x20F8 JUMPI PUSH2 0x2011 DUP4 SLOAD PUSH2 0x19B4 JUMP JUMPDEST PUSH1 0x1F DUP2 GT PUSH2 0x20B3 JUMPI JUMPDEST POP PUSH1 0x20 SWAP1 PUSH1 0x1F DUP4 GT PUSH1 0x1 EQ PUSH2 0x2055 JUMPI SWAP5 DUP3 SWAP4 SWAP5 SWAP6 SWAP3 PUSH2 0x204A JUMPI JUMPDEST POP POP DUP2 PUSH1 0x1 SHL SWAP2 PUSH1 0x0 NOT SWAP1 PUSH1 0x3 SHL SHR NOT AND OR SWAP1 SSTORE JUMP JUMPDEST ADD MLOAD SWAP1 POP CODESIZE DUP1 PUSH2 0x2034 JUMP JUMPDEST SWAP1 PUSH1 0x1F NOT DUP4 AND DUP5 DUP4 MSTORE DUP2 DUP4 KECCAK256 SWAP3 JUMPDEST DUP2 DUP2 LT PUSH2 0x209B JUMPI POP SWAP6 DUP4 PUSH1 0x1 SWAP6 SWAP7 SWAP8 LT PUSH2 0x2082 JUMPI JUMPDEST POP POP POP DUP2 SHL ADD SWAP1 SSTORE JUMP JUMPDEST ADD MLOAD PUSH1 0x0 NOT PUSH1 0xF8 DUP5 PUSH1 0x3 SHL AND SHR NOT AND SWAP1 SSTORE CODESIZE DUP1 DUP1 PUSH2 0x2078 JUMP JUMPDEST SWAP2 SWAP3 PUSH1 0x20 PUSH1 0x1 DUP2 SWAP3 DUP7 DUP12 ADD MLOAD DUP2 SSTORE ADD SWAP5 ADD SWAP3 ADD PUSH2 0x2063 JUMP JUMPDEST DUP4 DUP3 MSTORE PUSH1 0x20 DUP3 KECCAK256 PUSH1 0x1F DUP5 ADD PUSH1 0x5 SHR DUP2 ADD SWAP2 PUSH1 0x20 DUP6 LT PUSH2 0x20EE JUMPI JUMPDEST PUSH1 0x1F ADD PUSH1 0x5 SHR ADD SWAP1 JUMPDEST DUP2 DUP2 LT PUSH2 0x20E3 JUMPI POP PUSH2 0x201A JUMP JUMPDEST DUP3 DUP2 SSTORE PUSH1 0x1 ADD PUSH2 0x20D6 JUMP JUMPDEST SWAP1 SWAP2 POP DUP2 SWAP1 PUSH2 0x20CD JUMP JUMPDEST PUSH4 0x4E487B71 PUSH1 0xE0 SHL DUP2 MSTORE PUSH1 0x41 PUSH1 0x4 MSTORE PUSH1 0x24 SWAP1 REVERT JUMPDEST ADD MLOAD SWAP1 POP CODESIZE DUP1 PUSH2 0x1FAE JUMP JUMPDEST DUP4 DUP9 MSTORE DUP2 DUP9 KECCAK256 SWAP2 SWAP1 PUSH1 0x1F NOT DUP5 AND DUP10 JUMPDEST DUP2 DUP2 LT PUSH2 0x2169 JUMPI POP SWAP3 PUSH1 0x1 SWAP3 DUP6 SWAP3 PUSH2 0x140 SWAP9 SWAP7 PUSH1 0x9 SWAP9 SWAP7 LT PUSH2 0x2150 JUMPI JUMPDEST POP POP POP DUP2 SHL ADD SWAP1 SSTORE PUSH2 0x1FC3 JUMP JUMPDEST ADD MLOAD PUSH1 0x0 NOT PUSH1 0xF8 DUP5 PUSH1 0x3 SHL AND SHR NOT AND SWAP1 SSTORE CODESIZE DUP1 DUP1 PUSH2 0x2143 JUMP JUMPDEST SWAP3 SWAP4 PUSH1 0x20 PUSH1 0x1 DUP2 SWAP3 DUP8 DUP7 ADD MLOAD DUP2 SSTORE ADD SWAP6 ADD SWAP4 ADD PUSH2 0x2126 JUMP JUMPDEST DUP4 DUP9 MSTORE PUSH1 0x20 DUP9 KECCAK256 PUSH1 0x1F DUP5 ADD PUSH1 0x5 SHR DUP2 ADD SWAP2 PUSH1 0x20 DUP6 LT PUSH2 0x21BC JUMPI JUMPDEST PUSH1 0x1F ADD PUSH1 0x5 SHR ADD SWAP1 JUMPDEST DUP2 DUP2 LT PUSH2 0x21B1 JUMPI POP PUSH2 0x1F8D JUMP JUMPDEST DUP9 DUP2 SSTORE PUSH1 0x1 ADD PUSH2 0x21A4 JUMP JUMPDEST SWAP1 SWAP2 POP DUP2 SWAP1 PUSH2 0x219B JUMP JUMPDEST PUSH4 0x4E487B71 PUSH1 0xE0 SHL DUP8 MSTORE PUSH1 0x41 PUSH1 0x4 MSTORE PUSH1 0x24 DUP8 REVERT JUMPDEST ADD MLOAD SWAP1 POP CODESIZE DUP1 PUSH2 0x1EE9 JUMP JUMPDEST PUSH1 0x0 DUP6 DUP2 MSTORE DUP3 DUP2 KECCAK256 SWAP4 POP PUSH1 0x1F NOT DUP6 AND SWAP1 JUMPDEST DUP2 DUP2 LT PUSH2 0x2232 JUMPI POP SWAP1 DUP5 PUSH1 0x1 SWAP6 SWAP5 SWAP4 SWAP3 LT PUSH2 0x2219 JUMPI JUMPDEST POP POP POP DUP2 SHL ADD SWAP1 SSTORE PUSH2 0x1EFE JUMP JUMPDEST ADD MLOAD PUSH1 0x0 NOT PUSH1 0xF8 DUP5 PUSH1 0x3 SHL AND SHR NOT AND SWAP1 SSTORE CODESIZE DUP1 DUP1 PUSH2 0x220C JUMP JUMPDEST SWAP3 SWAP4 PUSH1 0x20 PUSH1 0x1 DUP2 SWAP3 DUP8 DUP7 ADD MLOAD DUP2 SSTORE ADD SWAP6 ADD SWAP4 ADD PUSH2 0x21F6 JUMP JUMPDEST SWAP1 SWAP2 POP DUP4 PUSH1 0x0 MSTORE PUSH1 0x20 PUSH1 0x0 KECCAK256 PUSH1 0x1F DUP5 ADD PUSH1 0x5 SHR DUP2 ADD SWAP2 PUSH1 0x20 DUP6 LT PUSH2 0x2293 JUMPI JUMPDEST SWAP1 PUSH1 0x1F DUP6 SWAP5 SWAP4 SWAP3 ADD PUSH1 0x5 SHR ADD SWAP1 JUMPDEST DUP2 DUP2 LT PUSH2 0x2284 JUMPI POP PUSH2 0x1ED2 JUMP JUMPDEST PUSH1 0x0 DUP2 SSTORE DUP5 SWAP4 POP PUSH1 0x1 ADD PUSH2 0x2277 JUMP JUMPDEST SWAP1 SWAP2 POP DUP2 SWAP1 PUSH2 0x2269 JUMP JUMPDEST ADD MLOAD SWAP1 POP CODESIZE DUP1 PUSH2 0x1E67 JUMP JUMPDEST PUSH1 0x0 DUP6 DUP2 MSTORE DUP3 DUP2 KECCAK256 SWAP4 POP PUSH1 0x1F NOT DUP6 AND SWAP1 JUMPDEST DUP2 DUP2 LT PUSH2 0x22F5 JUMPI POP SWAP1 DUP5 PUSH1 0x1 SWAP6 SWAP5 SWAP4 SWAP3 LT PUSH2 0x22DC JUMPI JUMPDEST POP POP POP DUP2 SHL ADD SWAP1 SSTORE PUSH2 0x1E7C JUMP JUMPDEST ADD MLOAD PUSH1 0x0 NOT PUSH1 0xF8 DUP5 PUSH1 0x3 SHL AND SHR NOT AND SWAP1 SSTORE CODESIZE DUP1 DUP1 PUSH2 0x22CF JUMP JUMPDEST SWAP3 SWAP4 PUSH1 0x20 PUSH1 0x1 DUP2 SWAP3 DUP8 DUP7 ADD MLOAD DUP2 SSTORE ADD SWAP6 ADD SWAP4 ADD PUSH2 0x22B9 JUMP JUMPDEST SWAP1 SWAP2 POP DUP4 PUSH1 0x0 MSTORE PUSH1 0x20 PUSH1 0x0 KECCAK256 PUSH1 0x1F DUP5 ADD PUSH1 0x5 SHR DUP2 ADD SWAP2 PUSH1 0x20 DUP6 LT PUSH2 0x2356 JUMPI JUMPDEST SWAP1 PUSH1 0x1F DUP6 SWAP5 SWAP4 SWAP3 ADD PUSH1 0x5 SHR ADD SWAP1 JUMPDEST DUP2 DUP2 LT PUSH2 0x2347 JUMPI POP PUSH2 0x1E50 JUMP JUMPDEST PUSH1 0x0 DUP2 SSTORE DUP5 SWAP4 POP PUSH1 0x1 ADD PUSH2 0x233A JUMP JUMPDEST SWAP1 SWAP2 POP DUP2 SWAP1 PUSH2 0x232C JUMP JUMPDEST ADD MLOAD SWAP1 POP CODESIZE DUP1 PUSH2 0x1E0C JUMP JUMPDEST PUSH1 0x1F NOT DUP3 AND SWAP6 DUP6 PUSH1 0x0 MSTORE DUP1 PUSH1 0x0 KECCAK256 SWAP2 PUSH1 0x0 JUMPDEST DUP9 DUP2 LT PUSH2 0x23B8 JUMPI POP DUP4 PUSH1 0x1 SWAP6 SWAP7 SWAP8 SWAP9 LT PUSH2 0x239F JUMPI JUMPDEST POP POP POP DUP2 SHL ADD DUP4 SSTORE PUSH2 0x1E21 JUMP JUMPDEST ADD MLOAD PUSH1 0x0 NOT PUSH1 0xF8 DUP5 PUSH1 0x3 SHL AND SHR NOT AND SWAP1 SSTORE CODESIZE DUP1 DUP1 PUSH2 0x2392 JUMP JUMPDEST SWAP2 SWAP3 PUSH1 0x20 PUSH1 0x1 DUP2 SWAP3 DUP7 DUP6 ADD MLOAD DUP2 SSTORE ADD SWAP5 ADD SWAP3 ADD PUSH2 0x237D JUMP JUMPDEST DUP5 PUSH1 0x0 MSTORE PUSH1 0x20 PUSH1 0x0 KECCAK256 PUSH1 0x1F DUP4 ADD PUSH1 0x5 SHR DUP2 ADD SWAP2 PUSH1 0x20 DUP5 LT PUSH2 0x240E JUMPI JUMPDEST PUSH1 0x1F ADD PUSH1 0x5 SHR ADD SWAP1 JUMPDEST DUP2 DUP2 LT PUSH2 0x2402 JUMPI POP PUSH2 0x1DEF JUMP JUMPDEST PUSH1 0x0 DUP2 SSTORE PUSH1 0x1 ADD PUSH2 0x23F5 JUMP JUMPDEST SWAP1 SWAP2 POP DUP2 SWAP1 PUSH2 0x23EC JUMP INVALID LOG2 PUSH5 0x6970667358 0x22 SLT KECCAK256 PUSH26 0x6364D8777CF6A616E6432BC2EF9EB3AA12B37EAEF5ACAA4956F3 0xD2 SHL EXP DUP5 PUSH21 0x64736F6C634300081B003300000000000000000000 "},"methodIdentifiers":{"allCpotbData(uint256)":"f02f5f23","approveCpotb(string,string,string)":"073a4cf8","cpotbDataById(string)":"6aa81299","getListAllCpotb()":"ec176587","getListCpotbByFactory(string)":"14fd8874","getListCpotbById(string)":"fbe9a68e","getRegisteredUser(address)":"e54a29bb","getRole(address)":"44276733","owner()":"8da5cb5b","registerUser(string,string,address,uint8)":"d1233672","requestCpotb(string,string,string,uint8)":"7c4535e0","userRoles(address)":"74d5e100"}}}}}