{"contracts/ObatTradisional.sol":{"ObatTradisional":{"abi":[{"inputs":[{"internalType":"address","name":"_roleManagerAddr","type":"address"},{"internalType":"address","name":"_mainSupplyChainAddr","type":"address"}],"stateMutability":"nonpayable","type":"constructor"},{"anonymous":false,"inputs":[{"indexed":false,"internalType":"string","name":"nieNumber","type":"string"},{"indexed":false,"internalType":"string","name":"namaProduk","type":"string"}],"name":"evt_nieApproved","type":"event"},{"anonymous":false,"inputs":[{"indexed":false,"internalType":"string","name":"obatId","type":"string"},{"indexed":false,"internalType":"uint256","name":"timestampRequested","type":"uint256"},{"indexed":false,"internalType":"string","name":"namaProduk","type":"string"}],"name":"evt_nieRequested","type":"event"},{"anonymous":false,"inputs":[{"indexed":false,"internalType":"string","name":"namaProduk","type":"string"},{"indexed":false,"internalType":"string","name":"factoryInstanceNames","type":"string"},{"indexed":false,"internalType":"string","name":"factoryUserNames","type":"string"},{"indexed":false,"internalType":"address","name":"factoryAddresses","type":"address"},{"indexed":false,"internalType":"string","name":"kemasan","type":"string"},{"indexed":false,"internalType":"enum ObatTradisional.en_tipeProduk","name":"en_tipeProduk","type":"uint8"}],"name":"evt_obatCreated","type":"event"},{"anonymous":false,"inputs":[{"indexed":false,"internalType":"string","name":"namaProduk","type":"string"},{"indexed":false,"internalType":"uint8","name":"quantity","type":"uint8"},{"indexed":false,"internalType":"string","name":"orderId","type":"string"},{"indexed":false,"internalType":"string","name":"senderInstanceName","type":"string"},{"indexed":false,"internalType":"string","name":"targetInstanceName","type":"string"},{"indexed":false,"internalType":"uint256","name":"latestTimestamp","type":"uint256"}],"name":"evt_obatOrdered","type":"event"},{"anonymous":false,"inputs":[{"indexed":false,"internalType":"string","name":"namaProduk","type":"string"},{"indexed":false,"internalType":"uint8","name":"quantity","type":"uint8"},{"indexed":false,"internalType":"string","name":"batchNamee","type":"string"}],"name":"evt_obatProduced","type":"event"},{"anonymous":false,"inputs":[{"indexed":false,"internalType":"string","name":"namaProduk","type":"string"},{"indexed":false,"internalType":"string","name":"batchName","type":"string"},{"indexed":false,"internalType":"string","name":"targetInstance","type":"string"},{"indexed":false,"internalType":"string","name":"senderInstance","type":"string"},{"indexed":false,"internalType":"uint8","name":"quantity","type":"uint8"},{"indexed":false,"internalType":"uint256","name":"latestTimestamp","type":"uint256"}],"name":"evt_updateOrder","type":"event"},{"inputs":[{"internalType":"string","name":"_batchName","type":"string"},{"internalType":"string","name":"_orderId","type":"string"}],"name":"acceptOrder","outputs":[],"stateMutability":"nonpayable","type":"function"},{"inputs":[{"internalType":"string","name":"_namaProduk","type":"string"},{"internalType":"string","name":"_batchName","type":"string"},{"internalType":"string","name":"_obatId","type":"string"},{"internalType":"uint8","name":"_obatQuantity","type":"uint8"},{"internalType":"string","name":"_factoryInstanceName","type":"string"},{"internalType":"string[]","name":"_obatIpfsHash","type":"string[]"}],"name":"addQuantityObat","outputs":[],"stateMutability":"nonpayable","type":"function"},{"inputs":[{"internalType":"uint256","name":"","type":"uint256"}],"name":"allObatData","outputs":[{"internalType":"string","name":"obatId","type":"string"},{"internalType":"string","name":"merk","type":"string"},{"internalType":"string","name":"namaProduk","type":"string"},{"internalType":"string","name":"kemasan","type":"string"},{"internalType":"enum ObatTradisional.en_tipeProduk","name":"tipeProduk","type":"uint8"},{"internalType":"enum ObatTradisional.en_nieStatus","name":"obatStatus","type":"uint8"},{"internalType":"uint256","name":"nieRequestDate","type":"uint256"},{"internalType":"uint256","name":"nieApprovalDate","type":"uint256"},{"internalType":"string","name":"nieNumber","type":"string"}],"stateMutability":"view","type":"function"},{"inputs":[{"internalType":"uint256","name":"","type":"uint256"}],"name":"allOrderedObat","outputs":[{"internalType":"string","name":"orderId","type":"string"},{"internalType":"string","name":"namaProduk","type":"string"},{"internalType":"string","name":"obatIdProduk","type":"string"},{"internalType":"string","name":"batchName","type":"string"},{"internalType":"uint8","name":"orderQuantity","type":"uint8"},{"internalType":"string","name":"senderInstanceName","type":"string"},{"internalType":"string","name":"targetInstanceName","type":"string"},{"internalType":"enum ObatTradisional.en_orderStatus","name":"statusOrder","type":"uint8"},{"internalType":"uint256","name":"timestampOrder","type":"uint256"},{"internalType":"uint256","name":"timestampShipped","type":"uint256"},{"internalType":"uint256","name":"timestampComplete","type":"uint256"}],"stateMutability":"view","type":"function"},{"inputs":[{"internalType":"uint256","name":"","type":"uint256"}],"name":"allProducedObat","outputs":[{"internalType":"enum ObatTradisional.en_obatAvailability","name":"statusStok","type":"uint8"},{"internalType":"string","name":"batchName","type":"string"},{"internalType":"string","name":"obatId","type":"string"},{"internalType":"string","name":"namaProduk","type":"string"},{"internalType":"uint8","name":"obatQuantity","type":"uint8"},{"internalType":"string","name":"factoryInstanceNames","type":"string"}],"stateMutability":"view","type":"function"},{"inputs":[{"internalType":"string","name":"_obatId","type":"string"},{"internalType":"address","name":"_bpomAddr","type":"address"},{"internalType":"string","name":"_bpomInstanceName","type":"string"},{"internalType":"string","name":"_bpomUserName","type":"string"},{"internalType":"string","name":"_nieNumber","type":"string"}],"name":"approveNie","outputs":[],"stateMutability":"nonpayable","type":"function"},{"inputs":[{"internalType":"string","name":"","type":"string"}],"name":"bpomAddresses","outputs":[{"internalType":"address","name":"","type":"address"}],"stateMutability":"view","type":"function"},{"inputs":[{"internalType":"string","name":"","type":"string"}],"name":"bpomInstanceNames","outputs":[{"internalType":"string","name":"","type":"string"}],"stateMutability":"view","type":"function"},{"inputs":[{"internalType":"string","name":"","type":"string"}],"name":"bpomUserNames","outputs":[{"internalType":"string","name":"","type":"string"}],"stateMutability":"view","type":"function"},{"inputs":[{"internalType":"string","name":"_orderId","type":"string"}],"name":"completeOrder","outputs":[],"stateMutability":"nonpayable","type":"function"},{"inputs":[{"internalType":"string","name":"_obatId","type":"string"},{"internalType":"string","name":"_merk","type":"string"},{"internalType":"string","name":"_namaProduk","type":"string"},{"internalType":"string[]","name":"_klaim","type":"string[]"},{"internalType":"string","name":"_kemasan","type":"string"},{"internalType":"string[]","name":"_komposisi","type":"string[]"},{"internalType":"address","name":"_factoryAddr","type":"address"},{"internalType":"string","name":"_factoryInstanceName","type":"string"},{"internalType":"string","name":"_factoryUserName","type":"string"},{"internalType":"enum ObatTradisional.en_tipeProduk","name":"_tipeProduk","type":"uint8"}],"name":"createObat","outputs":[],"stateMutability":"nonpayable","type":"function"},{"inputs":[{"internalType":"string","name":"_obatIdProduk","type":"string"},{"internalType":"string","name":"_orderId","type":"string"},{"internalType":"string","name":"_namaProduk","type":"string"},{"internalType":"uint8","name":"_orderQuantity","type":"uint8"},{"internalType":"string","name":"_senderInstanceName","type":"string"},{"internalType":"string","name":"_targetInstanceName","type":"string"}],"name":"createOrder","outputs":[],"stateMutability":"nonpayable","type":"function"},{"inputs":[{"internalType":"string","name":"","type":"string"}],"name":"factoryAddresses","outputs":[{"internalType":"address","name":"","type":"address"}],"stateMutability":"view","type":"function"},{"inputs":[{"internalType":"string","name":"","type":"string"}],"name":"factoryInstanceNames","outputs":[{"internalType":"string","name":"","type":"string"}],"stateMutability":"view","type":"function"},{"inputs":[{"internalType":"string","name":"","type":"string"}],"name":"factoryUserNames","outputs":[{"internalType":"string","name":"","type":"string"}],"stateMutability":"view","type":"function"},{"inputs":[],"name":"getAllProducedObat","outputs":[{"components":[{"internalType":"enum ObatTradisional.en_obatAvailability","name":"statusStok","type":"uint8"},{"internalType":"string","name":"batchName","type":"string"},{"internalType":"string","name":"obatId","type":"string"},{"internalType":"string","name":"namaProduk","type":"string"},{"internalType":"uint8","name":"obatQuantity","type":"uint8"},{"internalType":"string","name":"factoryInstanceNames","type":"string"},{"internalType":"string[]","name":"obatIpfsHash","type":"string[]"}],"internalType":"struct ObatTradisional.st_obatProduction[]","name":"","type":"tuple[]"}],"stateMutability":"view","type":"function"},{"inputs":[{"internalType":"string","name":"_orderId","type":"string"}],"name":"getDetailOrderedObat","outputs":[{"internalType":"uint8","name":"orderQuantity","type":"uint8"},{"internalType":"string","name":"senderInstanceName","type":"string"},{"internalType":"uint8","name":"statusOrder","type":"uint8"},{"internalType":"string","name":"targetInstanceName","type":"string"},{"internalType":"string[]","name":"orderObatIpfsHash","type":"string[]"},{"internalType":"uint256","name":"timestampOrder","type":"uint256"},{"internalType":"uint256","name":"timestampShipped","type":"uint256"},{"internalType":"uint256","name":"timestampComplete","type":"uint256"}],"stateMutability":"view","type":"function"},{"inputs":[{"internalType":"string","name":"_batchName","type":"string"}],"name":"getDetailProducedObat","outputs":[{"internalType":"uint8","name":"obatQuantity","type":"uint8"},{"internalType":"string[]","name":"obatIpfsHash","type":"string[]"}],"stateMutability":"view","type":"function"},{"inputs":[{"internalType":"string","name":"_factoryInstanceName","type":"string"}],"name":"getJenisSediaanAvail","outputs":[{"internalType":"uint8[]","name":"","type":"uint8[]"}],"stateMutability":"view","type":"function"},{"inputs":[{"internalType":"string","name":"_senderInstanceName","type":"string"}],"name":"getListAllOrderedObatFromSender","outputs":[{"internalType":"string[]","name":"orderIdArray","type":"string[]"},{"internalType":"string[]","name":"namaProdukArray","type":"string[]"},{"internalType":"uint8[]","name":"statusOrderArray","type":"uint8[]"},{"internalType":"uint8[]","name":"obatQuantityArray","type":"uint8[]"},{"internalType":"string[]","name":"obatIdProdukArray","type":"string[]"},{"internalType":"string[]","name":"batchNameArray","type":"string[]"}],"stateMutability":"view","type":"function"},{"inputs":[{"internalType":"string","name":"_targetInstanceName","type":"string"}],"name":"getListAllOrderedObatFromTarget","outputs":[{"internalType":"string[]","name":"orderIdArray","type":"string[]"},{"internalType":"string[]","name":"namaProdukArray","type":"string[]"},{"internalType":"uint8[]","name":"statusOrderArray","type":"uint8[]"},{"internalType":"uint8[]","name":"obatQuantityArray","type":"uint8[]"},{"internalType":"string[]","name":"obatIdProdukArray","type":"string[]"},{"internalType":"string[]","name":"batchNameArray","type":"string[]"}],"stateMutability":"view","type":"function"},{"inputs":[{"internalType":"string","name":"_factoryInstanceName","type":"string"}],"name":"getListAllProducedObatByFactory","outputs":[{"internalType":"string[]","name":"obatIdArray","type":"string[]"},{"internalType":"string[]","name":"namaProdukArray","type":"string[]"},{"internalType":"uint8[]","name":"obatQuantityArray","type":"uint8[]"},{"internalType":"string[]","name":"batchNameArray","type":"string[]"}],"stateMutability":"view","type":"function"},{"inputs":[{"internalType":"string","name":"_factoryInstanceName","type":"string"}],"name":"getListObatByFactory","outputs":[{"internalType":"string[]","name":"","type":"string[]"},{"internalType":"string[]","name":"","type":"string[]"},{"internalType":"uint8[]","name":"","type":"uint8[]"},{"internalType":"uint8[]","name":"","type":"uint8[]"}],"stateMutability":"view","type":"function"},{"inputs":[{"internalType":"string","name":"_obatId","type":"string"}],"name":"getListObatById","outputs":[{"components":[{"internalType":"string","name":"obatId","type":"string"},{"internalType":"string","name":"merk","type":"string"},{"internalType":"string","name":"namaProduk","type":"string"},{"internalType":"string[]","name":"klaim","type":"string[]"},{"internalType":"string","name":"kemasan","type":"string"},{"internalType":"string[]","name":"komposisi","type":"string[]"},{"internalType":"enum ObatTradisional.en_tipeProduk","name":"tipeProduk","type":"uint8"},{"internalType":"enum ObatTradisional.en_nieStatus","name":"obatStatus","type":"uint8"},{"internalType":"uint256","name":"nieRequestDate","type":"uint256"},{"internalType":"uint256","name":"nieApprovalDate","type":"uint256"},{"internalType":"string","name":"nieNumber","type":"string"}],"internalType":"struct ObatTradisional.st_obatDetails","name":"obatDetails","type":"tuple"},{"internalType":"address","name":"factoryAddress","type":"address"},{"internalType":"string","name":"factoryInstanceName","type":"string"},{"internalType":"string","name":"factoryUserName","type":"string"},{"internalType":"address","name":"bpomAddress","type":"address"},{"internalType":"string","name":"bpomInstanceName","type":"string"},{"internalType":"string","name":"bpomUserName","type":"string"}],"stateMutability":"view","type":"function"},{"inputs":[{"internalType":"string","name":"_namaProduk","type":"string"}],"name":"getListObatByNameProduct","outputs":[{"components":[{"internalType":"string","name":"obatId","type":"string"},{"internalType":"string","name":"merk","type":"string"},{"internalType":"string","name":"namaProduk","type":"string"},{"internalType":"string[]","name":"klaim","type":"string[]"},{"internalType":"string","name":"kemasan","type":"string"},{"internalType":"string[]","name":"komposisi","type":"string[]"},{"internalType":"enum ObatTradisional.en_tipeProduk","name":"tipeProduk","type":"uint8"},{"internalType":"enum ObatTradisional.en_nieStatus","name":"obatStatus","type":"uint8"},{"internalType":"uint256","name":"nieRequestDate","type":"uint256"},{"internalType":"uint256","name":"nieApprovalDate","type":"uint256"},{"internalType":"string","name":"nieNumber","type":"string"}],"internalType":"struct ObatTradisional.st_obatDetails","name":"obatDetails","type":"tuple"},{"internalType":"address","name":"factoryAddress","type":"address"},{"internalType":"string","name":"factoryInstanceName","type":"string"},{"internalType":"string","name":"factoryUserName","type":"string"},{"internalType":"address","name":"bpomAddress","type":"address"},{"internalType":"string","name":"bpomInstanceName","type":"string"},{"internalType":"string","name":"bpomUserName","type":"string"}],"stateMutability":"view","type":"function"},{"inputs":[],"name":"mainSupplyChain","outputs":[{"internalType":"contract MainSupplyChain","name":"","type":"address"}],"stateMutability":"view","type":"function"},{"inputs":[{"internalType":"string","name":"","type":"string"}],"name":"obatDetailsById","outputs":[{"internalType":"string","name":"obatId","type":"string"},{"internalType":"string","name":"merk","type":"string"},{"internalType":"string","name":"namaProduk","type":"string"},{"internalType":"string","name":"kemasan","type":"string"},{"internalType":"enum ObatTradisional.en_tipeProduk","name":"tipeProduk","type":"uint8"},{"internalType":"enum ObatTradisional.en_nieStatus","name":"obatStatus","type":"uint8"},{"internalType":"uint256","name":"nieRequestDate","type":"uint256"},{"internalType":"uint256","name":"nieApprovalDate","type":"uint256"},{"internalType":"string","name":"nieNumber","type":"string"}],"stateMutability":"view","type":"function"},{"inputs":[{"internalType":"string","name":"","type":"string"}],"name":"obatDetailsByNameProduct","outputs":[{"internalType":"string","name":"obatId","type":"string"},{"internalType":"string","name":"merk","type":"string"},{"internalType":"string","name":"namaProduk","type":"string"},{"internalType":"string","name":"kemasan","type":"string"},{"internalType":"enum ObatTradisional.en_tipeProduk","name":"tipeProduk","type":"uint8"},{"internalType":"enum ObatTradisional.en_nieStatus","name":"obatStatus","type":"uint8"},{"internalType":"uint256","name":"nieRequestDate","type":"uint256"},{"internalType":"uint256","name":"nieApprovalDate","type":"uint256"},{"internalType":"string","name":"nieNumber","type":"string"}],"stateMutability":"view","type":"function"},{"inputs":[{"internalType":"string","name":"","type":"string"}],"name":"obatProductionDetailsByBatchName","outputs":[{"internalType":"enum ObatTradisional.en_obatAvailability","name":"statusStok","type":"uint8"},{"internalType":"string","name":"batchName","type":"string"},{"internalType":"string","name":"obatId","type":"string"},{"internalType":"string","name":"namaProduk","type":"string"},{"internalType":"uint8","name":"obatQuantity","type":"uint8"},{"internalType":"string","name":"factoryInstanceNames","type":"string"}],"stateMutability":"view","type":"function"},{"inputs":[{"internalType":"string","name":"","type":"string"}],"name":"orderObatById","outputs":[{"internalType":"string","name":"orderId","type":"string"},{"internalType":"string","name":"namaProduk","type":"string"},{"internalType":"string","name":"obatIdProduk","type":"string"},{"internalType":"string","name":"batchName","type":"string"},{"internalType":"uint8","name":"orderQuantity","type":"uint8"},{"internalType":"string","name":"senderInstanceName","type":"string"},{"internalType":"string","name":"targetInstanceName","type":"string"},{"internalType":"enum ObatTradisional.en_orderStatus","name":"statusOrder","type":"uint8"},{"internalType":"uint256","name":"timestampOrder","type":"uint256"},{"internalType":"uint256","name":"timestampShipped","type":"uint256"},{"internalType":"uint256","name":"timestampComplete","type":"uint256"}],"stateMutability":"view","type":"function"},{"inputs":[{"internalType":"string","name":"_obatId","type":"string"}],"name":"requestNie","outputs":[],"stateMutability":"nonpayable","type":"function"},{"inputs":[],"name":"roleManager","outputs":[{"internalType":"contract RoleManager","name":"","type":"address"}],"stateMutability":"view","type":"function"},{"inputs":[{"internalType":"address","name":"","type":"address"}],"name":"userRoles","outputs":[{"internalType":"enum ObatTradisional.en_roles","name":"","type":"uint8"}],"stateMutability":"view","type":"function"}],"evm":{"bytecode":{"linkReferences":{},"object":"608034608657601f615fa538819003918201601f19168301916001600160401b03831184841017608b578084926040948552833981010312608657604b602060458360a1565b920160a1565b600080546001600160a01b039384166001600160a01b03199182161790915560018054929093169116179055604051615ef090816100b58239f35b600080fd5b634e487b7160e01b600052604160045260246000fd5b51906001600160a01b038216820360865756fe608080604052600436101561001357600080fd5b60003560e01c908162435da514613c10575080630a04f9c814613bdf5780631a95e67214613ae05780631c0b203014613a785780631dce6e581461385457806325606bc3146137ba5780632732183714613772578063349a7a72146137375780634b87568a146136cf5780634e09fdbc146134fd5780635673fdf6146134b557806374d5e100146134555780637aad01bd146133c65780637ade51dd14612cf65780637d08414f14612cba57806386f5cea614612c025780638b7c9a87146125de57806390196039146123ca57806392b385c91461218f5780639413fcfd146121665780639d9315c21461212b578063a812536d146120f0578063b96c086614611f86578063bbf2698d14611dd8578063bc4a6f6c14611b84578063c2d48dca14611a38578063d0ff723d146119aa578063d19487e4146113c0578063d44faa631461128b578063d9d284dc14610692578063ef470b5514610437578063f1022862146103d55763fd42aefd1461018957600080fd5b346103d05760203660031901126103d0576004356001600160401b0381116103d0576101b9903690600401613ef5565b6101c16149c0565b506040516101f76101f0835192602081818701956101e0818389613d9f565b8101600d81520301902054613c69565b1515614a15565b6103cc604051602081855161020d818388613d9f565b8101600d815203019020916102d060096040519461022a86613ca3565b61023381613cfb565b865261024160018201613cfb565b602087015261025260028201613cfb565b60408701526102636003820161433b565b606087015261027460048201613cfb565b60808701526102856005820161433b565b60a087015260ff600682015481811661029d81613e92565b60c089015260081c166102af81613de7565b60e08701526007810154610100870152600881015461012087015201613cfb565b61014084015260405184516102e6818385613d9f565b8101906008825260208160018060a01b0393030190205416936103246040516020818451610315818389613d9f565b81016009815203019020613cfb565b9161034a604051602081855161033b818388613d9f565b8101600a815203019020613cfb565b6103bf6103b060206040518651610362818389613d9f565b81019060058252828160018060a01b03930301902054169461039e60405183818a5161038f818388613d9f565b81016006815203019020613cfb565b96604051938492839251928391613d9f565b81016007815203019020613cfb565b9360405197889788613f82565b0390f35b600080fd5b346103d05760203660031901126103d0576004356001600160401b0381116103d0576104236103b060206104106103cc943690600401613ef5565b8160405193828580945193849201613d9f565b604051918291602083526020830190613dc2565b346103d05760203660031901126103d0576004356001600160401b0381116103d057610467903690600401613ef5565b6000806004549260208101925b84811061063e5750610485826143ec565b9161048f816143ec565b936104998261498e565b956104a38361498e565b916104b66104b0856143ec565b946143ec565b94600091825b8481106104da5750505050506103cc93949560405196879687614221565b60066104ff61050d6104eb84613c34565b506040519283916020830195869101614920565b03601f198101835282613cda565b519020604051602081019061053c602082885161052b81878b613d9f565b81010301601f198101835282613cda565b5190201461054d575b6001016104bc565b9261063660019161056661056087613c34565b50613cfb565b610570828d61452b565b5261057b818c61452b565b508b61059b826105958661058e8b613c34565b5001613cfb565b9261452b565b526105a6818d61452b565b508c6105cc8260ff60076105b98b613c34565b50015416926105c784613de7565b61452b565b5260ff60046105da88613c34565b500154166105e8828a61452b565b526105f7600261058e88613c34565b610601828b61452b565b5261060c818a61452b565b5061061b600361058e88613c34565b610625828c61452b565b52610630818b61452b565b50614393565b939050610545565b60066104ff61064f6104eb84613c34565b519020604051602081019061066d602082875161052b81878d613d9f565b5190201461067e575b600101610474565b9161068a600191614393565b929050610676565b346103d0576101403660031901126103d0576004356001600160401b0381116103d0576106c3903690600401613ef5565b6024356001600160401b0381116103d0576106e2903690600401613ef5565b906044356001600160401b0381116103d057610702903690600401613ef5565b906064356001600160401b0381116103d0576107229036906004016142a5565b906084356001600160401b0381116103d057610742903690600401613ef5565b9060a4356001600160401b0381116103d0576107629036906004016142a5565b60c4356001600160a01b03811691908290036103d05760e4356001600160401b0381116103d057610797903690600401613ef5565b96610104356001600160401b0381116103d0576107b8903690600401613ef5565b91610124359660028810156103d057600080546040516395a8c58d60e01b81523360048201526024810192909252602090829060449082906001600160a01b03165afa801561127f5761081391600091611250575b50615361565b6040519261082084613ca3565b8684526020840152886040840152606083015285608083015260a082015261084786613e92565b8560c0820152600260e08201526000610100820152600061012082015260409081516108738382613cda565b60098152682a22aa29a22329a22360b91b60208201526101408201528151906108ba81875193602081818b01966108ab81838a613d9f565b8101600c815203019020615867565b6108e5816108d660208c81885193828580945193849201613d9f565b8101600d815203019020615867565b600254600160401b811015611139578060016109049201600255614173565b91909161123a5761091491615867565b81516020818751610926818387613d9f565b81016008815203019020846bffffffffffffffffffffffff60a01b82541617905581516020818751610959818387613d9f565b8101600981520301902089516001600160401b03811161113957610987816109818454613c69565b84614a78565b60208b601f83116001146111c957826109d39593602095936109c0936000926111be575b50508160011b916000199060031b1c19161790565b90555b8351809381928951928391613d9f565b8101600a81520301902082516001600160401b038111611139576109fb816109818454613c69565b6020601f821160011461115a579080610a2a9260009161114f575b508160011b916000199060031b1c19161790565b90555b805193610200610a3d8187613cda565b600f8652601f190160005b818110611128575050815190610a5d82613cbf565b60008252825190610a6e8483613cda565b60108252602082016f2127169918191a1899181916a2291b2b60811b9052602083019182528383015288606083015260808201600f90528960a083015260c082018681526060968451610ac18982613cda565b602e81527f516d5a706a516644654452505253724834573431334777443557626239554d4760208201526d1ab4b6b8b83338b9a839a0bc369960911b86820152610b0a82614436565b52610b1490614436565b5080518451610b238982613cda565b602e81527f516d585655454e637a666342617242745132776944744c6d5a5632506137386e60208201526d1935b6a3a238351cb2353298acb760911b86820152610b6c82614443565b52610b7690614443565b5080518451610b858982613cda565b602e81527f516d6436517662316f58616431777a5a75354a36587259646e477039466a337460208201526d145d59559cdcce589dd1d59214d560921b86820152610bce82614453565b52610bd890614453565b5080518451610be78982613cda565b602e81527f516d56553255784d724a657168726e5144504a6972617546735773364a37584c60208201526d446944514b69783848566445547360901b86820152610c3082614463565b52610c3a90614463565b5080518451610c498982613cda565b602e81527f516d646d523450666e6e35674344355861617776727669586d45334a7369617860208201526d524633654e727a6859314342553760901b86820152610c9282614473565b52610c9c90614473565b5080518451610cab8982613cda565b602e81527f516d517254726667674b5437366e525a563872426a6361546f576648434d7a5760208201526d715934795752705733534436596760901b86820152610cf482614483565b52610cfe90614483565b5080518451610d0d8982613cda565b602e81527f516d515848585145505032506e4662513636685367325a4d4e643653537a664660208201526d25a1a52420a2b4b9acba9c19192b60911b86820152610d5682614493565b52610d6090614493565b5080518451610d6f8982613cda565b602e81527f516d554543695837714869483868346b723275346836716169473866536a395a60208201526d135d18d091d9d15210d55e5b4c5360921b86820152610db8826144a3565b52610dc2906144a3565b5080518451610dd18982613cda565b602e81527f516d55775a727439624c6a6e684d4c43693443466361547659675a6157554a5260208201526d635a444b71733963336d7179487960901b86820152610e1a826144b4565b52610e24906144b4565b5080518451610e338982613cda565b602e81527f516d4e4e75775a415548366758386854636b366f6861344e6a4d68456337357860208201526d7679474371324c7046447459434760901b86820152610e7c826144c5565b52610e86906144c5565b5080518451610e958982613cda565b602e81527f516d6162687874624b796531656f47504d6664617a5743356d544a734b41745560208201526d31a33129b43319ad31b6b1b6aba760911b86820152610ede826144d6565b52610ee8906144d6565b5080518451610ef78982613cda565b602e81527f516d6552686f6b686b47363142693378656d443967635a41484b386b3663753860208201526d79434e415445637255677334547960901b86820152610f40826144e7565b52610f4a906144e7565b5080518451610f598982613cda565b602e81527f516d616d526b504e4d425874706e687558344573623852516d394e4e7077433360208201526d7a64414d5461725077577269536560901b86820152610fa2826144f8565b52610fac906144f8565b5080518451610fbb8982613cda565b602e81527f516d566b377467705573635047563267694b7779354b414a79434e506e53445360208201526d35644d4b43336d534639357a4e6f60901b8682015261100482614509565b5261100e90614509565b5051835161101c8882613cda565b602e81527f516d5464734a4e4437426450414b4a5a4438484a70703373544559374474675760208201526d379b3937aa3a35ba2538b439b91960911b858201526110658261451a565b5261106f9061451a565b50611079826157fe565b518251818180935160208193019161109092613d9f565b8101600e8152036020019020906110a6916153ac565b805197889760c0895260c089016110bc91613dc2565b88810360208a01526110cd91613dc2565b90878203908801526110de91613dc2565b9185015283810360808501526110f391613dc2565b906110fd81613e92565b60a0830152037f634ef467423c7b2abbaf26097bdddac4a495d36be69ca3d1555484b46e7899c791a1005b806060602080938a01015201610a48565b634e487b7160e01b600052604160045260246000fd5b90508501518c610a16565b601f1982169083600052806000209160005b8181106111a65750908360019493921061118d575b5050811b019055610a2d565b86015160001960f88460031b161c191690558b80611181565b9192602060018192868b01518155019401920161116c565b015190508f8f6109ab565b50601f19821690836000528c816000209260005b81811061122057509260019285926109d398966020989610611207575b505050811b0190556109c3565b015160001960f88460031b161c191690558e808f6111fa565b9183015184556001909301926020928301928f92016111dd565b634e487b7160e01b600052600060045260246000fd5b611272915060203d602011611278575b61126a8183613cda565b810190614323565b8c61080d565b503d611260565b6040513d6000823e3d90fd5b346103d05760203660031901126103d0576004356001600160401b0381116103d05760006112c06112ed923690600401613ef5565b60018060a01b03600154166040518080958194629a308760e31b8352602060048401526024830190613dc2565b03915afa90811561127f57600091611316575b604051602080825281906103cc90820185613f4b565b3d8083833e6113258183613cda565b8101906020818303126113b4578051906001600160401b0382116113bc57019080601f830112156113b45781519261135c8461428e565b9261136a6040519485613cda565b84845260208085019560051b8201019283116113b857602001935b82851061139a575050506103cc915090611300565b845160ff811681036113b457815260209485019401611385565b8280fd5b5080fd5b8380fd5b346103d05760c03660031901126103d0576004356001600160401b0381116103d0576113f0903690600401613ef5565b6024356001600160401b0381116103d05761140f903690600401613ef5565b6044356001600160401b0381116103d05761142e903690600401613ef5565b90611437614211565b906084356001600160401b0381116103d057611457903690600401613ef5565b60a4356001600160401b0381116103d0576114769036906004016142a5565b906044602060018060a01b0360005416604051928380926395a8c58d60e01b8252336004830152600060248301525afa801561127f576114bd9160009161198b5750615361565b60ff8251941693840361193457604051906003845192602081818801956114e5818389613d9f565b8101600e81520301902001604051611505816104ff602082018095614920565b519020876040516115266020828161052b8183019687815193849201613d9f565b5190200361189e5750611571602060069260046040518381895161154b818388613d9f565b8101600e815203019020018760ff19825416179055604051809381928851928391613d9f565b8101600e8152030190200181516115888183614b40565b602083019081926000526020600020916000905b8282106117be575050505060009460208101955b6003548110156117895760026104ff6115cb6104eb84614192565b51902061052b6040516115eb6020828c8282019586918a51928391613d9f565b519020146115fb576001016115b0565b60069293949596506116249150600461161382614192565b5001805460ff191688179055614192565b50019151906116338284614b40565b916000526020600020916000905b8282106116a357505050509161169e61168b927fabb6d08782df0e4c2ee63deacc72efc9c1a9422c00fc5d8075160d11eaa40b4a945b604051948594606086526060860190613dc2565b9160208501528382036040850152613dc2565b0390a1005b80518051906001600160401b038211611139576116ca826116c48854613c69565b88614a78565b602090601f831160011461171c5792611702836001959460209487966000926117115750508160011b916000199060031b1c19161790565b87555b01940191019092611641565b015190508d806109ab565b90601f1983169187600052816000209260005b8181106117715750936020936001969387969383889510611758575b505050811b018755611705565b015160001960f88460031b161c191690558c808061174b565b9293602060018192878601518155019501930161172f565b5050505061168b92507fabb6d08782df0e4c2ee63deacc72efc9c1a9422c00fc5d8075160d11eaa40b4a939161169e91611677565b80518051906001600160401b038211611139576117df826116c48854613c69565b602090601f83116001146118315792611817836001959460209487966000926118265750508160011b916000199060031b1c19161790565b87555b0194019101909261159c565b0151905038806109ab565b90601f1983169187600052816000209260005b818110611886575093602093600196938796938388951061186d575b505050811b01875561181a565b015160001960f88460031b161c191690558f8080611860565b92936020600181928786015181550195019301611844565b61192f9061192a61168b9761191b602061169e98967fabb6d08782df0e4c2ee63deacc72efc9c1a9422c00fc5d8075160d11eaa40b4a9c9a986040519687956118e687613cbf565b600087528a8588015260408701528c60608701528a608087015260a086015260c0850152604051809381928a51928391613d9f565b8101600e8152030190206153ac565b6157fe565b611677565b60405162461bcd60e51b815260206004820152602960248201527f5175616e7469747920646f6573206e6f74206d6174636820746865206e756d626044820152686572206f662049447360b81b6064820152608490fd5b6119a4915060203d6020116112785761126a8183613cda565b8861080d565b346103d05760203660031901126103d0576004356001600160401b0381116103d05760206104106119df923690600401613ef5565b8101600e81520301902060ff8154166103cc6119fd60018401613cfb565b92611a0a60028201613cfb565b90611a1760038201613cfb565b611a2b600560ff6004850154169301613cfb565b92604051968796876141b1565b346103d05760203660031901126103d0576004356001600160401b0381116103d057611a68903690600401613ef5565b6000806004549260208101925b848110611b305750611a86826143ec565b91611a90816143ec565b93611a9a8261498e565b95611aa48361498e565b91611ab16104b0856143ec565b94600091825b848110611ad55750505050506103cc93949560405196879687614221565b60056104ff611ae66104eb84613c34565b5190206040516020810190611b04602082885161052b81878b613d9f565b51902014611b15575b600101611ab7565b92611b2860019161056661056087613c34565b939050611b0d565b60056104ff611b416104eb84613c34565b5190206040516020810190611b5f602082875161052b81878d613d9f565b51902014611b70575b600101611a75565b91611b7c600191614393565b929050611b68565b346103d05760203660031901126103d0576004356001600160401b0381116103d057611bb4903690600401613ef5565b600080546040516395a8c58d60e01b81523360048201526024810192909252602090829060449082906001600160a01b03165afa801561127f57611bff91600091611db95750615361565b60405181519060208181850193611c17818387613d9f565b8101600c8152030190209160068301805460ff8160081c16611c3881613de7565b611d575742600786015561ff00191661010017905560005b600254811015611d2757611c6381614173565b50604051611c79816104ff602082018095614920565b5190206040516020810190611c97602082875161052b81878c613d9f565b51902014611ca757600101611c50565b611d1292507f854681db4b5190ceaacfe5894893f2e8d49873d9b8ed6c72b5618047cb3924e5936006611cec83611ce061169e95614173565b50600742910155614173565b5001805461ff0019166101001790555b6002604051948594606086526060860190613dc2565b91426020860152848303604086015201614abd565b50611d12915061169e7f854681db4b5190ceaacfe5894893f2e8d49873d9b8ed6c72b5618047cb3924e593611cfc565b60405162461bcd60e51b815260206004820152603460248201527f4f62617420547261646973696f6e616c20737461747573206d75737420626520604482015273696e206c6f63616c2070726f64756374696f6e2160601b6064820152608490fd5b611dd2915060203d6020116112785761126a8183613cda565b8361080d565b346103d05760203660031901126103d0576004356001600160401b0381116103d057611e08903690600401613ef5565b606090604051611e3c6101f0600284519360208181880196611e2b81838a613d9f565b8101600e8152030190200154613c69565b60ff60046040516020818651611e53818389613d9f565b8101600e8152030190200154169160018060a01b03600054166040516395a8c58d60e01b815233600482015260016024820152602081604481855afa90811561127f57600091611f67575b5015611ecf575050509050611eb16143b8565b905b6103cc6040519283928352604060208401526040830190613e9c565b6020604491604051928380926395a8c58d60e01b8252336004830152600060248301525afa90811561127f57600091611f48575b50611f10575b5050611eb3565b611f409293506020600692611f3092604051938492839251928391613d9f565b8101600e8152030190200161433b565b908280611f09565b611f61915060203d6020116112785761126a8183613cda565b85611f03565b611f80915060203d6020116112785761126a8183613cda565b86611e9e565b346103d05760203660031901126103d0576004356001600160401b0381116103d057611fb6903690600401613ef5565b60405190611fe56101f082519360208181860196611fd581838a613d9f565b8101600f81520301902054613c69565b6040516020818351611ff8818388613d9f565b8101600f8152030190209060078201600260ff1982541617905542600a83015560005b6004548110156120d85761202e81613c34565b50604051612044816104ff602082018095614920565b5190206040516020810190612062602082875161052b81878d613d9f565b519020146120725760010161201b565b600080516020615e9b83398151915293506120a59150600761209382613c34565b5001805460ff19166002179055613c34565b50600a429101555b60ff60048201541661169e604051928392429160058101906006810190600160038201910187614d09565b5050600080516020615e9b83398151915291506120ad565b346103d05760203660031901126103d0576004356001600160401b0381116103d05761042361031560206104106103cc943690600401613ef5565b346103d05760203660031901126103d0576004356001600160401b0381116103d05761042361038f60206104106103cc943690600401613ef5565b346103d05760003660031901126103d0576001546040516001600160a01b039091168152602090f35b346103d05760203660031901126103d0576004356001600160401b0381116103d0576121bf903690600401613ef5565b600080546040516395a8c58d60e01b81523360048201526024810192909252602090829060449082906001600160a01b03165afa801561127f5761220a91600091611db95750615361565b60035460208201916000805b8381106123745750612227816143ec565b92612231826143ec565b9461224461223e8461498e565b936143ec565b93600091825b84811061229f57612275886103cc896122918a6122838f604051978897608089526080890190613e9c565b908782036020890152613e9c565b908582036040870152613f4b565b908382036060850152613e9c565b60056104ff6122b06104eb84614192565b51902060405160208101906122ce602082885161052b81878b613d9f565b519020146122df575b60010161224a565b9261236c6001916122f4600261058e88614192565b6122fe828c61452b565b52612309818b61452b565b50612318600361058e88614192565b612322828d61452b565b5261232d818c61452b565b5060ff600461233b88614192565b50015416612349828a61452b565b526123578361058e88614192565b612361828b61452b565b52610630818a61452b565b9390506122d7565b60056104ff6123856104eb84614192565b51902060405160208101906123a56020828461052b8c8b51928391613d9f565b519020146123b6575b600101612216565b906123c2600191614393565b9190506123ae565b346103d05760c03660031901126103d0576004356001600160401b0381116103d0576123fa903690600401613ef5565b6024356001600160401b0381116103d057612419903690600401613ef5565b6044356001600160401b0381116103d057612438903690600401613ef5565b612440614211565b926084356001600160401b0381116103d057612460903690600401613ef5565b9060a4356001600160401b0381116103d057612480903690600401613ef5565b906124896143b8565b926040519161018083018381106001600160401b0382111761113957604052868352856020840152604083015260ff6020976040516124c88a82613cda565b60008152606085015216938460808401528160a08401528360c0840152600060e08401524261010084015260006101208401526000610140840152610160830152612532826040518981816125238c83815193849201613d9f565b8101600f815203019020614d65565b600454600160401b811015611139578060016125519201600455613c34565b92909261123a577f292bbb6d1836d1c84f14bc8632586c9cdc3b938748d1a94348313ce41a295199976125a6976125d3966125926125b7946125c597614d65565b604051998a9960c08b5260c08b0190613dc2565b928901528782036040890152613dc2565b908582036060870152613dc2565b908382036080850152613dc2565b4260a08301520390a1005b346103d05760403660031901126103d0576004356001600160401b0381116103d05761260e903690600401613ef5565b6024356001600160401b0381116103d05761262d903690600401613ef5565b906040519161264f6101f0600284519560208181880198611e2b81838c613d9f565b6040516020818451612662818389613d9f565b8101600e81520301902090604051928151936020818185019661268681838a613d9f565b8101600f8152030190209160068401906126a382600b8601614cb4565b6003840183516001600160401b038111611139576126c5816109818454613c69565b6020601f8211600114612b9e5790806126f392600091612b9357508160011b916000199060031b1c19161790565b90555b60078401805460ff191660011790554260098501556000600a85015561271a6143b8565b60208151916127298386614b40565b0190836000526020600020916000905b828210612abe575050505060048501805460ff1916905560005b600454811015612ab25761276681613c34565b5060405161277c816104ff602082018095614920565b51902061052b60405161279c6020828c8282019586918a51928391613d9f565b519020146127ac57600101612753565b9293949550506127c890600b6127c184613c34565b5001614cb4565b60036127d382613c34565b500182516001600160401b038111611139576127f3816109818454613c69565b6020601f8211600114612a465792600a9261282983612859946000978891612a3b57508160011b916000199060031b1c19161790565b90555b600761283782613c34565b5001805460ff1916600117905561284d81613c34565b50600942910155613c34565b5001555b60005b600354811015612a235760016104ff61287b6104eb84614192565b519020604051602081019061289b6020828461052b8c8a51928391613d9f565b519020146128ab57600101612860565b93505060046128b984614192565b5001805460ff1916905560066128d66128d06143b8565b94614192565b50019260208151916128e88387614b40565b01936000526020600020936000905b82821061293d57505050600080516020615e9b83398151915292505b61169e60ff6004830154169260405193849342926005820191600180600683019301910187614d09565b80518051906001600160401b038211611139576129648261295e8a54613c69565b8a614a78565b602090601f83116001146129b6579261299c836001959460209487966000926129ab5750508160011b916000199060031b1c19161790565b89555b019601910190946128f7565b015190508c806109ab565b90601f1983169189600052816000209260005b818110612a0b57509360209360019693879693838895106129f2575b505050811b01895561299f565b015160001960f88460031b161c191690558b80806129e5565b929360206001819287860151815501950193016129c9565b5050600080516020615e9b8339815191529250612913565b90508801518c610a16565b601f1982169083600052806000209160005b818110612a9a57508360009693600a96936128599660019410612a82575b5050811b01905561282c565b890151881960f88460031b161c191690558b80612a76565b9192602060018192868b015181550194019201612a58565b5050509091925061285d565b80518051906001600160401b03821161113957612adf826116c48854613c69565b602090601f8311600114612b265792612b17836001959460209487966000926118265750508160011b916000199060031b1c19161790565b87555b01940191019092612739565b90601f1983169187600052816000209260005b818110612b7b5750936020936001969387969383889510612b62575b505050811b018755612b1a565b015160001960f88460031b161c19169055388080612b55565b92936020600181928786015181550195019301612b39565b90508601518b610a16565b601f1982169083600052806000209160005b818110612bea57509083600194939210612bd1575b5050811b0190556126f6565b87015160001960f88460031b161c191690558a80612bc5565b9192602060018192868c015181550194019201612bb0565b346103d05760203660031901126103d0576004356001600160401b0381116103d0576020610410612c37923690600401613ef5565b8101600f815203019020612c4a81613cfb565b6103cc612c5960018401613cfb565b92612c6660028201613cfb565b90612c7360038201613cfb565b60ff600483015416612c8760058401613cfb565b612c9360068501613cfb565b9060ff60078601541692600886015494600a6009880154970154976040519b8c9b8c613df1565b346103d05760203660031901126103d0576004356003548110156103d057612ce190614192565b5060ff8154166103cc6119fd60018401613cfb565b346103d05760a03660031901126103d0576004356001600160401b0381116103d057612d26903690600401613ef5565b602435906001600160a01b03821682036103d0576044356001600160401b0381116103d057612d59903690600401613ef5565b906064356001600160401b0381116103d057612d79903690600401613ef5565b906084356001600160401b0381116103d057612d99903690600401613ef5565b6000546040516395a8c58d60e01b81523360048201526002602482015291939190602090829060449082906001600160a01b03165afa90811561127f576000916133a7575b5015613362576040519382519460208181860197612dfd81838b613d9f565b8101600c81520301902095600687018054600160ff8260081c16612e2081613de7565b03613307574260088a015561ff001916610200179055845160098801906001600160401b03811161113957612e59816109818454613c69565b6020601f82116001146132a1579080612e879260009161329657508160011b916000199060031b1c19161790565b90555b6040516020818651612e9d81838c613d9f565b810160058152030190209060018060a01b03166bffffffffffffffffffffffff60a01b8254161790556040516020818551612ed981838b613d9f565b81016006815203019020908051906001600160401b03821161113957612f0982612f038554613c69565b85614a78565b602090601f831160011461322f57612f399291600091836132245750508160011b916000199060031b1c19161790565b90555b6040516020818451612f4f81838a613d9f565b81016007815203019020908051906001600160401b03821161113957612f7982612f038554613c69565b602090601f83116001146131bd57612fa99291600091836131b25750508160011b916000199060031b1c19161790565b90555b60005b60025481101561318157612fc281614173565b50604051612fd8816104ff602082018095614920565b5190206040516020810190612ff6602082875161052b81878d613d9f565b5190201461300657600101612faf565b600992935061303f915061301981614173565b50600842910155600661302b82614173565b5001805461ff001916610200179055614173565b5001918151926001600160401b03841161113957613067846130618354613c69565b83614a78565b602093601f81116001146130f3579161169e916130c0846130d996957f489f165b733603cb0a992d8cafd6c42a0c13d169039003f751758b9f0019f26c986000916130e857508160011b916000199060031b1c19161790565b90555b6002604051948594604086526040860190613dc2565b91848303602086015201614abd565b905086015189610a16565b601f1981169482600052806000209560005b8181106131695750827f489f165b733603cb0a992d8cafd6c42a0c13d169039003f751758b9f0019f26c9761169e95936130d998979560019410613150575b5050811b0190556130c3565b87015160001960f88460031b161c191690558880613144565b86830151885560019097019660209283019201613105565b50506130d9915061169e7f489f165b733603cb0a992d8cafd6c42a0c13d169039003f751758b9f0019f26c936130c3565b0151905088806109ab565b90601f1983169184600052816000209260005b81811061320c57509084600195949392106131f3575b505050811b019055612fac565b015160001960f88460031b161c191690558780806131e6565b929360206001819287860151815501950193016131d0565b0151905089806109ab565b90601f1983169184600052816000209260005b81811061327e5750908460019594939210613265575b505050811b019055612f3c565b015160001960f88460031b161c19169055888080613258565b92936020600181928786015181550195019301613242565b90508801518b610a16565b601f1982169083600052806000209160005b8a8282106132ef57505090836001949392106132d6575b5050811b019055612e8a565b89015160001960f88460031b161c191690558a806132ca565b600184956020939584930151815501940192016132b3565b60405162461bcd60e51b815260206004820152602d60248201527f4f62617420547261646973696f6e616c20737461747573206d7573742062652060448201526c5265717565737465644e49452160981b6064820152608490fd5b60405162461bcd60e51b815260206004820152601e60248201527f416363657373207265737472696374656420746f2042504f4d20726f6c6500006044820152606490fd5b6133c0915060203d6020116112785761126a8183613cda565b86612dde565b346103d05760203660031901126103d0576004356002548110156103d0576133ed90614173565b506133f781613cfb565b6103cc61340660018401613cfb565b9161341360028501613cfb565b9361342060048201613cfb565b91600682015460078301549161343d600960088601549501613cfb565b9460405198899860ff808660081c169516938a6140ea565b346103d05760203660031901126103d0576004356001600160a01b038116908190036103d057600052600b60205260ff60406000205416604051600482101561349f576020918152f35b634e487b7160e01b600052602160045260246000fd5b346103d05760203660031901126103d0576004356001600160401b0381116103d05760206104106134ea923690600401613ef5565b8101600d8152030190206133f781613cfb565b346103d05760203660031901126103d0576004356001600160401b0381116103d05761352d903690600401613ef5565b60405161354b6101f083519260208181870195611fd5818389613d9f565b60ff60046040516020818651613562818389613d9f565b8101600f8152030190200154169061359860056040516020818751613588818389613d9f565b8101600f81520301902001613cfb565b926135b16006604051602081855161358881838a613d9f565b906136bb60ff600760405160208186516135cc81838c613d9f565b8101600f8152030190200154166135e281613de7565b6136ad61360f600b604051602081806135ff8c8b51928391613d9f565b8101600f8152030190200161433b565b91600a61366f60206008613630828c8b604051938492839251928391613d9f565b8101600f815203019020015499600960405183818c51613651818388613d9f565b8101600f815203019020015498604051938492839251928391613d9f565b8101600f81520301902001549561369a6040519a8b9a8b5261010060208c01526101008b0190613dc2565b9160408a015288820360608a0152613dc2565b908682036080880152613e9c565b9260a085015260c084015260e08301520390f35b346103d05760203660031901126103d0576004356001600160401b0381116103d0576137016020913690600401613ef5565b816137156040519283815193849201613d9f565b600890820190815281900382019020546040516001600160a01b039091168152f35b346103d05760203660031901126103d0576004356001600160401b0381116103d05761042361033b60206104106103cc943690600401613ef5565b346103d05760203660031901126103d0576004356001600160401b0381116103d05760206104106137a7923690600401613ef5565b8101600c8152030190206133f781613cfb565b346103d05760203660031901126103d0576004356001600160401b0381116103d0576137ea903690600401613ef5565b6137f26149c0565b506040516138216101f083519260208181870195613811818389613d9f565b8101600c81520301902054613c69565b6103cc6040516020818551613837818388613d9f565b8101600c815203019020916102d060096040519461022a86613ca3565b346103d05760203660031901126103d0576004356001600160401b0381116103d057613884903690600401613ef5565b600254600060208301815b838110613a0a57506138a0826143ec565b926138aa836143ec565b916138bd6138b78561498e565b9461498e565b95600091825b8481106138fc57612275886103cc8b6138ee8b6122838c604051978897608089526080890190613e9c565b908382036060850152613f4b565b613917602061390a83614173565b5060405192838092614920565b6009815203019020604051613934816104ff602082018095614920565b5190206040516020810190613952602082885161052b81878b613d9f565b51902014613963575b6001016138c3565b92613a0260019161397661056087614173565b613980828c61452b565b5261398b818b61452b565b5061399a600261058e88614173565b6139a4828a61452b565b526139af818961452b565b5060ff60066139bd88614173565b50015460081c166139cd81613de7565b6139d7828b61452b565b5260ff60066139e588614173565b500154166139f281613e92565b6139fc828d61452b565b52614393565b93905061395b565b613a18602061390a83614173565b6009815203019020604051613a35816104ff602082018095614920565b5190206040516020810190613a536020828a5161052b81878b613d9f565b51902014613a64575b60010161388f565b91613a70600191614393565b929050613a5c565b346103d05760203660031901126103d0576004356001600160401b0381116103d057613aaa6020913690600401613ef5565b81613abe6040519283815193849201613d9f565b600590820190815281900382019020546040516001600160a01b039091168152f35b346103d05760003660031901126103d057613af961453f565b6040518091602082016020835281518091526040830190602060408260051b8601019301916000905b828210613b3157505050500390f35b91936001919395506020613bcf8192603f198a82030186528851908151613b5781613e92565b815260c0613bbe613b9f613b8d613b7b8887015160e08a88015260e0870190613dc2565b60408701518682036040880152613dc2565b60608601518582036060870152613dc2565b60ff608086015116608085015260a085015184820360a0860152613dc2565b9201519060c0818403910152613e9c565b9601920192018594939192613b22565b346103d05760203660031901126103d0576004356004548110156103d057613c0690613c34565b50612c4a81613cfb565b346103d05760003660031901126103d0576000546001600160a01b03168152602090f35b600454811015613c53576004600052600c602060002091020190600090565b634e487b7160e01b600052603260045260246000fd5b90600182811c92168015613c99575b6020831014613c8357565b634e487b7160e01b600052602260045260246000fd5b91607f1691613c78565b61016081019081106001600160401b0382111761113957604052565b60e081019081106001600160401b0382111761113957604052565b90601f801991011681019081106001600160401b0382111761113957604052565b9060405191826000825492613d0f84613c69565b8084529360018116908115613d7d5750600114613d36575b50613d3492500383613cda565b565b90506000929192526020600020906000915b818310613d61575050906020613d349282010138613d27565b6020919350806001915483858901015201910190918492613d48565b905060209250613d3494915060ff191682840152151560051b82010138613d27565b60005b838110613db25750506000910152565b8181015183820152602001613da2565b90602091613ddb81518092818552858086019101613d9f565b601f01601f1916010190565b6003111561349f57565b979b9a999693613e5160ff91613e43613e6596613e358d6101409f9c9798613e27613e739d9a6101608452610160840190613dc2565b916020818403910152613dc2565b8d810360408f015290613dc2565b908b820360608d0152613dc2565b9216608089015287820360a0890152613dc2565b9085820360c0870152613dc2565b96613e7d81613de7565b60e08401526101008301526101208201520152565b6002111561349f57565b9080602083519182815201916020808360051b8301019401926000915b838310613ec857505050505090565b9091929394602080613ee6600193601f198682030187528951613dc2565b97019301930191939290613eb9565b81601f820112156103d0578035906001600160401b0382116111395760405192613f29601f8401601f191660200185613cda565b828452602083830101116103d057816000926020809301838601378301015290565b906020808351928381520192019060005b818110613f695750505090565b825160ff16845260209384019390920191600101613f5c565b9591936140ae6140d9956140e79997956140916140bc9560e08c5261014061403b8d61402261400b613ff6613fdf613fc8885161016060e0880152610240870190613dc2565b602089015186820360df1901610100880152613dc2565b604088015185820360df1901610120870152613dc2565b606087015184820360df190187860152613e9c565b608086015183820360df1901610160850152613dc2565b9060a08501519061018060df1982850301910152613e9c565b918d6101a060c08301519161404f83613e92565b015260e08101516101c08f61406383613de7565b01526101008101516101e08f01526101208101516102008f015201518c820360df19016102208e0152613dc2565b6001600160a01b0390921660208b015289820360408b0152613dc2565b908782036060890152613dc2565b6001600160a01b03909216608086015284820360a0860152613dc2565b9160c0818403910152613dc2565b90565b95926141309061412261413e946141146140e79d9b98959c999c6101208c526101208c0190613dc2565b908a820360208c0152613dc2565b9088820360408a0152613dc2565b908682036060880152613dc2565b9561414881613e92565b608085015261415681613de7565b60a084015260c083015260e0820152610100818403910152613dc2565b600254811015613c53576002600052600a602060002091020190600090565b600354811015613c535760036000526007602060002091020190600090565b92936141ef6140e797956141e160ff956141fd956141ce81613e92565b885260c0602089015260c0880190613dc2565b908682036040880152613dc2565b908482036060860152613dc2565b9316608082015260a0818403910152613dc2565b6064359060ff821682036103d057565b949193614264614280946142566140e799976142486142729660c08c5260c08c0190613e9c565b908a820360208c0152613e9c565b9088820360408a0152613f4b565b908682036060880152613f4b565b908482036080860152613e9c565b9160a0818403910152613e9c565b6001600160401b0381116111395760051b60200190565b9080601f830112156103d05781356142bc8161428e565b926142ca6040519485613cda565b81845260208085019260051b820101918383116103d05760208201905b8382106142f657505050505090565b81356001600160401b0381116103d05760209161431887848094880101613ef5565b8152019101906142e7565b908160209103126103d0575180151581036103d05790565b9081546143478161428e565b926143556040519485613cda565b818452602084019060005260206000206000915b8383106143765750505050565b60016020819261438585613cfb565b815201920192019190614369565b60001981146143a25760010190565b634e487b7160e01b600052601160045260246000fd5b604051906143c7602083613cda565b600080835282815b8281106143db57505050565b8060606020809385010152016143cf565b906143f68261428e565b6144036040519182613cda565b8281528092614414601f199161428e565b019060005b82811061442557505050565b806060602080938501015201614419565b805115613c535760200190565b805160011015613c535760400190565b805160021015613c535760600190565b805160031015613c535760800190565b805160041015613c535760a00190565b805160051015613c535760c00190565b805160061015613c535760e00190565b805160071015613c53576101000190565b805160081015613c53576101200190565b805160091015613c53576101400190565b8051600a1015613c53576101600190565b8051600b1015613c53576101800190565b8051600c1015613c53576101a00190565b8051600d1015613c53576101c00190565b8051600e1015613c53576101e00190565b8051821015613c535760209160051b010190565b6000546040516395a8c58d60e01b8152336004820152600160248201526060916001600160a01b031690602081604481855afa90811561127f57600091614901575b5015614756575050600080600354905b81811061471d57506145a28261428e565b916145b06040519384613cda565b8083526145bf601f199161428e565b0160005b8181106146d65750506000805b8281106145dd5750505090565b60ff6145e882614192565b5054166145f481613e92565b15614602575b6001016145d0565b906146ce60019160ff61461485614192565b50541661462085614192565b5061462a86614192565b50614693600388614688600260ff600461464d61464686614192565b5095614192565b500154169561467d8c61465e6143b8565b996040519b61466c8d613cbf565b61467581613e92565b8c5201613cfb565b60208a015201613cfb565b604087015201613cfb565b606084015260808301526040516146ab602082613cda565b6000815260a083015260c08201526146c3828861452b565b52610630818761452b565b9190506145fa565b6020906040516146e581613cbf565b600081526060838201526060604082015260608082015260006080820152606060a0820152606060c0820152828287010152016145c3565b60ff61472882614192565b50541661473481613e92565b15614742575b600101614591565b9161474e600191614393565b92905061473a565b6020604491604051928380926395a8c58d60e01b8252336004830152600060248301525afa90811561127f576000916148e2575b501561487b575060035461479d8161428e565b906147ab6040519283613cda565b8082526020820160036000527fc2575a0e9e593c00f959f8c92f12db2869c3395a3b0502d05e2516446f71f85b6000915b8383106147ea575050505090565b600760206001926040516147fd81613cbf565b60ff86541661480b81613e92565b8152614818858701613cfb565b8382015261482860028701613cfb565b604082015261483960038701613cfb565b606082015260ff600487015416608082015261485760058701613cfb565b60a08201526148686006870161433b565b60c08201528152019201920191906147dc565b60405190600061488c602084613cda565b8252600090815b8281106148a05750505090565b6020906040516148af81613cbf565b6000815283838201528360408201528380820152600060808201528360a08201528360c082015282828701015201614893565b6148fb915060203d6020116112785761126a8183613cda565b3861478a565b61491a915060203d6020116112785761126a8183613cda565b38614581565b6000929181549161493083613c69565b926001811690811561497b575060011461494957505050565b909192935060005260206000206000905b8382106149675750500190565b60018160209254848601520191019061495a565b60ff191683525050811515909102019150565b906149988261428e565b6149a56040519182613cda565b82815280926149b6601f199161428e565b0190602036910137565b604051906149cd82613ca3565b60606101408382815282602082015282604082015282808201528260808201528260a0820152600060c0820152600060e0820152600061010082015260006101208201520152565b15614a1c57565b60405162461bcd60e51b815260206004820152601b60248201527f4e6f206461746120666f756e64207769746820746869732049442e00000000006044820152606490fd5b818110614a6c575050565b60008155600101614a61565b9190601f8111614a8757505050565b613d34926000526020600020906020601f840160051c83019310614ab3575b601f0160051c0190614a61565b9091508190614aa6565b60009291815491614acd83613c69565b8083529260018116908115614b235750600114614ae957505050565b60009081526020812093945091925b838310614b09575060209250010190565b600181602092949394548385870101520191019190614af8565b915050602093945060ff929192191683830152151560051b010190565b90600160401b811161113957815491818155828210614b5e57505050565b600052602060002091820191015b818110614b77575050565b80614b8460019254613c69565b80614b91575b5001614b6c565b601f81118314614ba75750600081555b38614b8a565b614bc5908260005283601f6020600020920160051c82019101614a61565b8060005260006020812081835555614ba1565b919091828114614caf57614bec8354613c69565b6001600160401b03811161113957614c08816109818454613c69565b600093601f8211600114614c4957614c3a9293948291600092614c3e5750508160011b916000199060031b1c19161790565b9055565b0154905038806109ab565b845260208085208386529085209094601f198316815b818110614c9757509583600195969710614c7e575b505050811b019055565b015460001960f88460031b161c19169055388080614c74565b9192600180602092868b015481550194019201614c5f565b509050565b818114614d0557815491614cc88383614b40565b60005260206000209060005260206000206000915b838310614cea5750505050565b60018082614cf9829486614bd8565b01920192019190614cdd565b5050565b9293614d4c60a095614d3e60ff95614d30614d5a969c9b9a9c60c08a5260c08a0190614abd565b9088820360208a0152614abd565b908682036040880152614abd565b908482036060860152614abd565b951660808201520152565b919080519283516001600160401b03811161113957614d88816109818454613c69565b602094601f82116001146152fc57614dbb9293949582916000926118265750508160011b916000199060031b1c19161790565b81555b6001810160208301518051906001600160401b03821161113957614de682612f038554613c69565b602090601f831160011461529557614e169291600091836118265750508160011b916000199060031b1c19161790565b90555b6002810160408301518051906001600160401b03821161113957614e4182612f038554613c69565b602090601f831160011461522e57614e719291600091836118265750508160011b916000199060031b1c19161790565b90555b6003810160608301518051906001600160401b03821161113957614e9c82612f038554613c69565b602090601f83116001146151c757614ecc9291600091836118265750508160011b916000199060031b1c19161790565b90555b60ff60808301511660ff60048301911660ff198254161790556005810160a08301518051906001600160401b03821161113957614f1082612f038554613c69565b602090601f831160011461516057614f409291600091836118265750508160011b916000199060031b1c19161790565b90555b6006810160c08301518051906001600160401b03821161113957614f6b82612f038554613c69565b602090601f83116001146150f257826101609593600b9593614fa3936000926118265750508160011b916000199060031b1c19161790565b90555b6007810160e0850151614fb881613de7565b614fc181613de7565b60ff8019835416911617905561010084015160088201556101208401516009820155610140840151600a8201550191015160208151916150018385614b40565b01916000526020600020916000905b82821061501d5750505050565b80518051906001600160401b0382116111395761503e826116c48854613c69565b602090601f83116001146150855792615076836001959460209487966000926118265750508160011b916000199060031b1c19161790565b87555b01940191019092615010565b90601f1983169187600052816000209260005b8181106150da57509360209360019693879693838895106150c1575b505050811b018755615079565b015160001960f88460031b161c191690553880806150b4565b92936020600181928786015181550195019301615098565b90601f1983169184600052816000209260005b81811061514857509260019285926101609896600b98961061512f575b505050811b019055614fa6565b015160001960f88460031b161c19169055388080615122565b92936020600181928786015181550195019301615105565b90601f1983169184600052816000209260005b8181106151af5750908460019594939210615196575b505050811b019055614f43565b015160001960f88460031b161c19169055388080615189565b92936020600181928786015181550195019301615173565b90601f1983169184600052816000209260005b81811061521657509084600195949392106151fd575b505050811b019055614ecf565b015160001960f88460031b161c191690553880806151f0565b929360206001819287860151815501950193016151da565b90601f1983169184600052816000209260005b81811061527d5750908460019594939210615264575b505050811b019055614e74565b015160001960f88460031b161c19169055388080615257565b92936020600181928786015181550195019301615241565b90601f1983169184600052816000209260005b8181106152e457509084600195949392106152cb575b505050811b019055614e19565b015160001960f88460031b161c191690553880806152be565b929360206001819287860151815501950193016152a8565b601f1982169583600052806000209160005b88811061534957508360019596979810615330575b505050811b018155614dbe565b015160001960f88460031b161c19169055388080615323565b9192602060018192868501518155019401920161530e565b1561536857565b606460405162461bcd60e51b815260206004820152602060248201527f416363657373207265737472696374656420746f2050616272696b20726f6c656044820152fd5b81516153b781613e92565b6153c081613e92565b60ff801983541691161781556001810160208301518051906001600160401b038211611139576153f482612f038554613c69565b602090601f8311600114615797576154249291600091836118265750508160011b916000199060031b1c19161790565b90555b6002810160408301518051906001600160401b0382116111395761544f82612f038554613c69565b602090601f83116001146157305761547f9291600091836118265750508160011b916000199060031b1c19161790565b90555b6003810160608301518051906001600160401b038211611139576154aa82612f038554613c69565b602090601f83116001146156c9576154da9291600091836118265750508160011b916000199060031b1c19161790565b90555b60ff60808301511660ff60048301911660ff198254161790556005810160a08301518051906001600160401b0382116111395761551e82612f038554613c69565b602090601f831160011461565c578260c0959360069593615555936000926118265750508160011b916000199060031b1c19161790565b90555b01910151602081519161556b8385614b40565b01916000526020600020916000905b8282106155875750505050565b80518051906001600160401b038211611139576155a8826116c48854613c69565b602090601f83116001146155ef57926155e0836001959460209487966000926118265750508160011b916000199060031b1c19161790565b87555b0194019101909261557a565b90601f1983169187600052816000209260005b818110615644575093602093600196938796938388951061562b575b505050811b0187556155e3565b015160001960f88460031b161c1916905538808061561e565b92936020600181928786015181550195019301615602565b90601f1983169184600052816000209260005b8181106156b1575092600192859260c098966006989610615698575b505050811b019055615558565b015160001960f88460031b161c1916905538808061568b565b9293602060018192878601518155019501930161566f565b90601f1983169184600052816000209260005b81811061571857509084600195949392106156ff575b505050811b0190556154dd565b015160001960f88460031b161c191690553880806156f2565b929360206001819287860151815501950193016156dc565b90601f1983169184600052816000209260005b81811061577f5750908460019594939210615766575b505050811b019055615482565b015160001960f88460031b161c19169055388080615759565b92936020600181928786015181550195019301615743565b90601f1983169184600052816000209260005b8181106157e657509084600195949392106157cd575b505050811b019055615427565b015160001960f88460031b161c191690553880806157c0565b929360206001819287860151815501950193016157aa565b600354600160401b8110156111395760018101600355600060035482101561585357600390526007027fc2575a0e9e593c00f959f8c92f12db2869c3395a3b0502d05e2516446f71f85b0190613d34916153ac565b634e487b7160e01b81526032600452602490fd5b9181519283516001600160401b03811161113957615889816109818454613c69565b602094601f8211600114615e35576158bc9293949582916000926118265750508160011b916000199060031b1c19161790565b81555b6001810160208401518051906001600160401b038211611139576158e782612f038554613c69565b602090601f8311600114615dce576159179291600091836118265750508160011b916000199060031b1c19161790565b90555b6002810160408401518051906001600160401b0382116111395761594282612f038554613c69565b602090601f8311600114615d67576159729291600091836118265750508160011b916000199060031b1c19161790565b90555b600381016060840151602081519161598d8385614b40565b01916000526020600020916000905b828210615c9257505050506004810160808401518051906001600160401b038211611139576159cf82612f038554613c69565b602090601f8311600114615c2b576159ff9291600091836118265750508160011b916000199060031b1c19161790565b90555b6005810160a08401516020815191615a1a8385614b40565b01916000526020600020916000905b828210615b5657505050506009816006610140930160c0860151615a4c81613e92565b615a5581613e92565b60ff8019835416911617815560e0860151615a6f81613de7565b615a7881613de7565b61ff0082549160081b169061ff00191617905561010085015160078201556101208501516008820155019201519182516001600160401b03811161113957615ac4816109818454613c69565b6020601f8211600114615af5578190614c3a9394956000926118265750508160011b916000199060031b1c19161790565b601f1982169083600052806000209160005b818110615b3e57509583600195969710615b2557505050811b019055565b015160001960f88460031b161c19169055388080614c74565b9192602060018192868b015181550194019201615b07565b80518051906001600160401b03821161113957615b77826116c48854613c69565b602090601f8311600114615bbe5792615baf836001959460209487966000926118265750508160011b916000199060031b1c19161790565b87555b01940191019092615a29565b90601f1983169187600052816000209260005b818110615c135750936020936001969387969383889510615bfa575b505050811b018755615bb2565b015160001960f88460031b161c19169055388080615bed565b92936020600181928786015181550195019301615bd1565b90601f1983169184600052816000209260005b818110615c7a5750908460019594939210615c61575b505050811b019055615a02565b015160001960f88460031b161c19169055388080615c54565b92936020600181928786015181550195019301615c3e565b80518051906001600160401b03821161113957615cb3826116c48854613c69565b602090601f8311600114615cfa5792615ceb836001959460209487966000926118265750508160011b916000199060031b1c19161790565b87555b0194019101909261599c565b90601f1983169187600052816000209260005b818110615d4f5750936020936001969387969383889510615d36575b505050811b018755615cee565b015160001960f88460031b161c19169055388080615d29565b92936020600181928786015181550195019301615d0d565b90601f1983169184600052816000209260005b818110615db65750908460019594939210615d9d575b505050811b019055615975565b015160001960f88460031b161c19169055388080615d90565b92936020600181928786015181550195019301615d7a565b90601f1983169184600052816000209260005b818110615e1d5750908460019594939210615e04575b505050811b01905561591a565b015160001960f88460031b161c19169055388080615df7565b92936020600181928786015181550195019301615de1565b601f1982169583600052806000209160005b888110615e8257508360019596979810615e69575b505050811b0181556158bf565b015160001960f88460031b161c19169055388080615e5c565b91926020600181928685015181550194019201615e4756fe6185e892b495921d623cf19a02c2565e2522589cc1edae45bc123c650b0def61a2646970667358221220f004b6654848e245c778e565290b9e89b615c94e4d019b3fa9445a501332091b64736f6c634300081b0033","opcodes":"PUSH1 0x80 CALLVALUE PUSH1 0x86 JUMPI PUSH1 0x1F PUSH2 0x5FA5 CODESIZE DUP2 SWAP1 SUB SWAP2 DUP3 ADD PUSH1 0x1F NOT AND DUP4 ADD SWAP2 PUSH1 0x1 PUSH1 0x1 PUSH1 0x40 SHL SUB DUP4 GT DUP5 DUP5 LT OR PUSH1 0x8B JUMPI DUP1 DUP5 SWAP3 PUSH1 0x40 SWAP5 DUP6 MSTORE DUP4 CODECOPY DUP2 ADD SUB SLT PUSH1 0x86 JUMPI PUSH1 0x4B PUSH1 0x20 PUSH1 0x45 DUP4 PUSH1 0xA1 JUMP JUMPDEST SWAP3 ADD PUSH1 0xA1 JUMP JUMPDEST PUSH1 0x0 DUP1 SLOAD PUSH1 0x1 PUSH1 0x1 PUSH1 0xA0 SHL SUB SWAP4 DUP5 AND PUSH1 0x1 PUSH1 0x1 PUSH1 0xA0 SHL SUB NOT SWAP2 DUP3 AND OR SWAP1 SWAP2 SSTORE PUSH1 0x1 DUP1 SLOAD SWAP3 SWAP1 SWAP4 AND SWAP2 AND OR SWAP1 SSTORE PUSH1 0x40 MLOAD PUSH2 0x5EF0 SWAP1 DUP2 PUSH2 0xB5 DUP3 CODECOPY RETURN JUMPDEST PUSH1 0x0 DUP1 REVERT JUMPDEST PUSH4 0x4E487B71 PUSH1 0xE0 SHL PUSH1 0x0 MSTORE PUSH1 0x41 PUSH1 0x4 MSTORE PUSH1 0x24 PUSH1 0x0 REVERT JUMPDEST MLOAD SWAP1 PUSH1 0x1 PUSH1 0x1 PUSH1 0xA0 SHL SUB DUP3 AND DUP3 SUB PUSH1 0x86 JUMPI JUMP INVALID PUSH1 0x80 DUP1 PUSH1 0x40 MSTORE PUSH1 0x4 CALLDATASIZE LT ISZERO PUSH2 0x13 JUMPI PUSH1 0x0 DUP1 REVERT JUMPDEST PUSH1 0x0 CALLDATALOAD PUSH1 0xE0 SHR SWAP1 DUP2 PUSH3 0x435DA5 EQ PUSH2 0x3C10 JUMPI POP DUP1 PUSH4 0xA04F9C8 EQ PUSH2 0x3BDF JUMPI DUP1 PUSH4 0x1A95E672 EQ PUSH2 0x3AE0 JUMPI DUP1 PUSH4 0x1C0B2030 EQ PUSH2 0x3A78 JUMPI DUP1 PUSH4 0x1DCE6E58 EQ PUSH2 0x3854 JUMPI DUP1 PUSH4 0x25606BC3 EQ PUSH2 0x37BA JUMPI DUP1 PUSH4 0x27321837 EQ PUSH2 0x3772 JUMPI DUP1 PUSH4 0x349A7A72 EQ PUSH2 0x3737 JUMPI DUP1 PUSH4 0x4B87568A EQ PUSH2 0x36CF JUMPI DUP1 PUSH4 0x4E09FDBC EQ PUSH2 0x34FD JUMPI DUP1 PUSH4 0x5673FDF6 EQ PUSH2 0x34B5 JUMPI DUP1 PUSH4 0x74D5E100 EQ PUSH2 0x3455 JUMPI DUP1 PUSH4 0x7AAD01BD EQ PUSH2 0x33C6 JUMPI DUP1 PUSH4 0x7ADE51DD EQ PUSH2 0x2CF6 JUMPI DUP1 PUSH4 0x7D08414F EQ PUSH2 0x2CBA JUMPI DUP1 PUSH4 0x86F5CEA6 EQ PUSH2 0x2C02 JUMPI DUP1 PUSH4 0x8B7C9A87 EQ PUSH2 0x25DE JUMPI DUP1 PUSH4 0x90196039 EQ PUSH2 0x23CA JUMPI DUP1 PUSH4 0x92B385C9 EQ PUSH2 0x218F JUMPI DUP1 PUSH4 0x9413FCFD EQ PUSH2 0x2166 JUMPI DUP1 PUSH4 0x9D9315C2 EQ PUSH2 0x212B JUMPI DUP1 PUSH4 0xA812536D EQ PUSH2 0x20F0 JUMPI DUP1 PUSH4 0xB96C0866 EQ PUSH2 0x1F86 JUMPI DUP1 PUSH4 0xBBF2698D EQ PUSH2 0x1DD8 JUMPI DUP1 PUSH4 0xBC4A6F6C EQ PUSH2 0x1B84 JUMPI DUP1 PUSH4 0xC2D48DCA EQ PUSH2 0x1A38 JUMPI DUP1 PUSH4 0xD0FF723D EQ PUSH2 0x19AA JUMPI DUP1 PUSH4 0xD19487E4 EQ PUSH2 0x13C0 JUMPI DUP1 PUSH4 0xD44FAA63 EQ PUSH2 0x128B JUMPI DUP1 PUSH4 0xD9D284DC EQ PUSH2 0x692 JUMPI DUP1 PUSH4 0xEF470B55 EQ PUSH2 0x437 JUMPI DUP1 PUSH4 0xF1022862 EQ PUSH2 0x3D5 JUMPI PUSH4 0xFD42AEFD EQ PUSH2 0x189 JUMPI PUSH1 0x0 DUP1 REVERT JUMPDEST CALLVALUE PUSH2 0x3D0 JUMPI PUSH1 0x20 CALLDATASIZE PUSH1 0x3 NOT ADD SLT PUSH2 0x3D0 JUMPI PUSH1 0x4 CALLDATALOAD PUSH1 0x1 PUSH1 0x1 PUSH1 0x40 SHL SUB DUP2 GT PUSH2 0x3D0 JUMPI PUSH2 0x1B9 SWAP1 CALLDATASIZE SWAP1 PUSH1 0x4 ADD PUSH2 0x3EF5 JUMP JUMPDEST PUSH2 0x1C1 PUSH2 0x49C0 JUMP JUMPDEST POP PUSH1 0x40 MLOAD PUSH2 0x1F7 PUSH2 0x1F0 DUP4 MLOAD SWAP3 PUSH1 0x20 DUP2 DUP2 DUP8 ADD SWAP6 PUSH2 0x1E0 DUP2 DUP4 DUP10 PUSH2 0x3D9F JUMP JUMPDEST DUP2 ADD PUSH1 0xD DUP2 MSTORE SUB ADD SWAP1 KECCAK256 SLOAD PUSH2 0x3C69 JUMP JUMPDEST ISZERO ISZERO PUSH2 0x4A15 JUMP JUMPDEST PUSH2 0x3CC PUSH1 0x40 MLOAD PUSH1 0x20 DUP2 DUP6 MLOAD PUSH2 0x20D DUP2 DUP4 DUP9 PUSH2 0x3D9F JUMP JUMPDEST DUP2 ADD PUSH1 0xD DUP2 MSTORE SUB ADD SWAP1 KECCAK256 SWAP2 PUSH2 0x2D0 PUSH1 0x9 PUSH1 0x40 MLOAD SWAP5 PUSH2 0x22A DUP7 PUSH2 0x3CA3 JUMP JUMPDEST PUSH2 0x233 DUP2 PUSH2 0x3CFB JUMP JUMPDEST DUP7 MSTORE PUSH2 0x241 PUSH1 0x1 DUP3 ADD PUSH2 0x3CFB JUMP JUMPDEST PUSH1 0x20 DUP8 ADD MSTORE PUSH2 0x252 PUSH1 0x2 DUP3 ADD PUSH2 0x3CFB JUMP JUMPDEST PUSH1 0x40 DUP8 ADD MSTORE PUSH2 0x263 PUSH1 0x3 DUP3 ADD PUSH2 0x433B JUMP JUMPDEST PUSH1 0x60 DUP8 ADD MSTORE PUSH2 0x274 PUSH1 0x4 DUP3 ADD PUSH2 0x3CFB JUMP JUMPDEST PUSH1 0x80 DUP8 ADD MSTORE PUSH2 0x285 PUSH1 0x5 DUP3 ADD PUSH2 0x433B JUMP JUMPDEST PUSH1 0xA0 DUP8 ADD MSTORE PUSH1 0xFF PUSH1 0x6 DUP3 ADD SLOAD DUP2 DUP2 AND PUSH2 0x29D DUP2 PUSH2 0x3E92 JUMP JUMPDEST PUSH1 0xC0 DUP10 ADD MSTORE PUSH1 0x8 SHR AND PUSH2 0x2AF DUP2 PUSH2 0x3DE7 JUMP JUMPDEST PUSH1 0xE0 DUP8 ADD MSTORE PUSH1 0x7 DUP2 ADD SLOAD PUSH2 0x100 DUP8 ADD MSTORE PUSH1 0x8 DUP2 ADD SLOAD PUSH2 0x120 DUP8 ADD MSTORE ADD PUSH2 0x3CFB JUMP JUMPDEST PUSH2 0x140 DUP5 ADD MSTORE PUSH1 0x40 MLOAD DUP5 MLOAD PUSH2 0x2E6 DUP2 DUP4 DUP6 PUSH2 0x3D9F JUMP JUMPDEST DUP2 ADD SWAP1 PUSH1 0x8 DUP3 MSTORE PUSH1 0x20 DUP2 PUSH1 0x1 DUP1 PUSH1 0xA0 SHL SUB SWAP4 SUB ADD SWAP1 KECCAK256 SLOAD AND SWAP4 PUSH2 0x324 PUSH1 0x40 MLOAD PUSH1 0x20 DUP2 DUP5 MLOAD PUSH2 0x315 DUP2 DUP4 DUP10 PUSH2 0x3D9F JUMP JUMPDEST DUP2 ADD PUSH1 0x9 DUP2 MSTORE SUB ADD SWAP1 KECCAK256 PUSH2 0x3CFB JUMP JUMPDEST SWAP2 PUSH2 0x34A PUSH1 0x40 MLOAD PUSH1 0x20 DUP2 DUP6 MLOAD PUSH2 0x33B DUP2 DUP4 DUP9 PUSH2 0x3D9F JUMP JUMPDEST DUP2 ADD PUSH1 0xA DUP2 MSTORE SUB ADD SWAP1 KECCAK256 PUSH2 0x3CFB JUMP JUMPDEST PUSH2 0x3BF PUSH2 0x3B0 PUSH1 0x20 PUSH1 0x40 MLOAD DUP7 MLOAD PUSH2 0x362 DUP2 DUP4 DUP10 PUSH2 0x3D9F JUMP JUMPDEST DUP2 ADD SWAP1 PUSH1 0x5 DUP3 MSTORE DUP3 DUP2 PUSH1 0x1 DUP1 PUSH1 0xA0 SHL SUB SWAP4 SUB ADD SWAP1 KECCAK256 SLOAD AND SWAP5 PUSH2 0x39E PUSH1 0x40 MLOAD DUP4 DUP2 DUP11 MLOAD PUSH2 0x38F DUP2 DUP4 DUP9 PUSH2 0x3D9F JUMP JUMPDEST DUP2 ADD PUSH1 0x6 DUP2 MSTORE SUB ADD SWAP1 KECCAK256 PUSH2 0x3CFB JUMP JUMPDEST SWAP7 PUSH1 0x40 MLOAD SWAP4 DUP5 SWAP3 DUP4 SWAP3 MLOAD SWAP3 DUP4 SWAP2 PUSH2 0x3D9F JUMP JUMPDEST DUP2 ADD PUSH1 0x7 DUP2 MSTORE SUB ADD SWAP1 KECCAK256 PUSH2 0x3CFB JUMP JUMPDEST SWAP4 PUSH1 0x40 MLOAD SWAP8 DUP9 SWAP8 DUP9 PUSH2 0x3F82 JUMP JUMPDEST SUB SWAP1 RETURN JUMPDEST PUSH1 0x0 DUP1 REVERT JUMPDEST CALLVALUE PUSH2 0x3D0 JUMPI PUSH1 0x20 CALLDATASIZE PUSH1 0x3 NOT ADD SLT PUSH2 0x3D0 JUMPI PUSH1 0x4 CALLDATALOAD PUSH1 0x1 PUSH1 0x1 PUSH1 0x40 SHL SUB DUP2 GT PUSH2 0x3D0 JUMPI PUSH2 0x423 PUSH2 0x3B0 PUSH1 0x20 PUSH2 0x410 PUSH2 0x3CC SWAP5 CALLDATASIZE SWAP1 PUSH1 0x4 ADD PUSH2 0x3EF5 JUMP JUMPDEST DUP2 PUSH1 0x40 MLOAD SWAP4 DUP3 DUP6 DUP1 SWAP5 MLOAD SWAP4 DUP5 SWAP3 ADD PUSH2 0x3D9F JUMP JUMPDEST PUSH1 0x40 MLOAD SWAP2 DUP3 SWAP2 PUSH1 0x20 DUP4 MSTORE PUSH1 0x20 DUP4 ADD SWAP1 PUSH2 0x3DC2 JUMP JUMPDEST CALLVALUE PUSH2 0x3D0 JUMPI PUSH1 0x20 CALLDATASIZE PUSH1 0x3 NOT ADD SLT PUSH2 0x3D0 JUMPI PUSH1 0x4 CALLDATALOAD PUSH1 0x1 PUSH1 0x1 PUSH1 0x40 SHL SUB DUP2 GT PUSH2 0x3D0 JUMPI PUSH2 0x467 SWAP1 CALLDATASIZE SWAP1 PUSH1 0x4 ADD PUSH2 0x3EF5 JUMP JUMPDEST PUSH1 0x0 DUP1 PUSH1 0x4 SLOAD SWAP3 PUSH1 0x20 DUP2 ADD SWAP3 JUMPDEST DUP5 DUP2 LT PUSH2 0x63E JUMPI POP PUSH2 0x485 DUP3 PUSH2 0x43EC JUMP JUMPDEST SWAP2 PUSH2 0x48F DUP2 PUSH2 0x43EC JUMP JUMPDEST SWAP4 PUSH2 0x499 DUP3 PUSH2 0x498E JUMP JUMPDEST SWAP6 PUSH2 0x4A3 DUP4 PUSH2 0x498E JUMP JUMPDEST SWAP2 PUSH2 0x4B6 PUSH2 0x4B0 DUP6 PUSH2 0x43EC JUMP JUMPDEST SWAP5 PUSH2 0x43EC JUMP JUMPDEST SWAP5 PUSH1 0x0 SWAP2 DUP3 JUMPDEST DUP5 DUP2 LT PUSH2 0x4DA JUMPI POP POP POP POP POP PUSH2 0x3CC SWAP4 SWAP5 SWAP6 PUSH1 0x40 MLOAD SWAP7 DUP8 SWAP7 DUP8 PUSH2 0x4221 JUMP JUMPDEST PUSH1 0x6 PUSH2 0x4FF PUSH2 0x50D PUSH2 0x4EB DUP5 PUSH2 0x3C34 JUMP JUMPDEST POP PUSH1 0x40 MLOAD SWAP3 DUP4 SWAP2 PUSH1 0x20 DUP4 ADD SWAP6 DUP7 SWAP2 ADD PUSH2 0x4920 JUMP JUMPDEST SUB PUSH1 0x1F NOT DUP2 ADD DUP4 MSTORE DUP3 PUSH2 0x3CDA JUMP JUMPDEST MLOAD SWAP1 KECCAK256 PUSH1 0x40 MLOAD PUSH1 0x20 DUP2 ADD SWAP1 PUSH2 0x53C PUSH1 0x20 DUP3 DUP9 MLOAD PUSH2 0x52B DUP2 DUP8 DUP12 PUSH2 0x3D9F JUMP JUMPDEST DUP2 ADD SUB ADD PUSH1 0x1F NOT DUP2 ADD DUP4 MSTORE DUP3 PUSH2 0x3CDA JUMP JUMPDEST MLOAD SWAP1 KECCAK256 EQ PUSH2 0x54D JUMPI JUMPDEST PUSH1 0x1 ADD PUSH2 0x4BC JUMP JUMPDEST SWAP3 PUSH2 0x636 PUSH1 0x1 SWAP2 PUSH2 0x566 PUSH2 0x560 DUP8 PUSH2 0x3C34 JUMP JUMPDEST POP PUSH2 0x3CFB JUMP JUMPDEST PUSH2 0x570 DUP3 DUP14 PUSH2 0x452B JUMP JUMPDEST MSTORE PUSH2 0x57B DUP2 DUP13 PUSH2 0x452B JUMP JUMPDEST POP DUP12 PUSH2 0x59B DUP3 PUSH2 0x595 DUP7 PUSH2 0x58E DUP12 PUSH2 0x3C34 JUMP JUMPDEST POP ADD PUSH2 0x3CFB JUMP JUMPDEST SWAP3 PUSH2 0x452B JUMP JUMPDEST MSTORE PUSH2 0x5A6 DUP2 DUP14 PUSH2 0x452B JUMP JUMPDEST POP DUP13 PUSH2 0x5CC DUP3 PUSH1 0xFF PUSH1 0x7 PUSH2 0x5B9 DUP12 PUSH2 0x3C34 JUMP JUMPDEST POP ADD SLOAD AND SWAP3 PUSH2 0x5C7 DUP5 PUSH2 0x3DE7 JUMP JUMPDEST PUSH2 0x452B JUMP JUMPDEST MSTORE PUSH1 0xFF PUSH1 0x4 PUSH2 0x5DA DUP9 PUSH2 0x3C34 JUMP JUMPDEST POP ADD SLOAD AND PUSH2 0x5E8 DUP3 DUP11 PUSH2 0x452B JUMP JUMPDEST MSTORE PUSH2 0x5F7 PUSH1 0x2 PUSH2 0x58E DUP9 PUSH2 0x3C34 JUMP JUMPDEST PUSH2 0x601 DUP3 DUP12 PUSH2 0x452B JUMP JUMPDEST MSTORE PUSH2 0x60C DUP2 DUP11 PUSH2 0x452B JUMP JUMPDEST POP PUSH2 0x61B PUSH1 0x3 PUSH2 0x58E DUP9 PUSH2 0x3C34 JUMP JUMPDEST PUSH2 0x625 DUP3 DUP13 PUSH2 0x452B JUMP JUMPDEST MSTORE PUSH2 0x630 DUP2 DUP12 PUSH2 0x452B JUMP JUMPDEST POP PUSH2 0x4393 JUMP JUMPDEST SWAP4 SWAP1 POP PUSH2 0x545 JUMP JUMPDEST PUSH1 0x6 PUSH2 0x4FF PUSH2 0x64F PUSH2 0x4EB DUP5 PUSH2 0x3C34 JUMP JUMPDEST MLOAD SWAP1 KECCAK256 PUSH1 0x40 MLOAD PUSH1 0x20 DUP2 ADD SWAP1 PUSH2 0x66D PUSH1 0x20 DUP3 DUP8 MLOAD PUSH2 0x52B DUP2 DUP8 DUP14 PUSH2 0x3D9F JUMP JUMPDEST MLOAD SWAP1 KECCAK256 EQ PUSH2 0x67E JUMPI JUMPDEST PUSH1 0x1 ADD PUSH2 0x474 JUMP JUMPDEST SWAP2 PUSH2 0x68A PUSH1 0x1 SWAP2 PUSH2 0x4393 JUMP JUMPDEST SWAP3 SWAP1 POP PUSH2 0x676 JUMP JUMPDEST CALLVALUE PUSH2 0x3D0 JUMPI PUSH2 0x140 CALLDATASIZE PUSH1 0x3 NOT ADD SLT PUSH2 0x3D0 JUMPI PUSH1 0x4 CALLDATALOAD PUSH1 0x1 PUSH1 0x1 PUSH1 0x40 SHL SUB DUP2 GT PUSH2 0x3D0 JUMPI PUSH2 0x6C3 SWAP1 CALLDATASIZE SWAP1 PUSH1 0x4 ADD PUSH2 0x3EF5 JUMP JUMPDEST PUSH1 0x24 CALLDATALOAD PUSH1 0x1 PUSH1 0x1 PUSH1 0x40 SHL SUB DUP2 GT PUSH2 0x3D0 JUMPI PUSH2 0x6E2 SWAP1 CALLDATASIZE SWAP1 PUSH1 0x4 ADD PUSH2 0x3EF5 JUMP JUMPDEST SWAP1 PUSH1 0x44 CALLDATALOAD PUSH1 0x1 PUSH1 0x1 PUSH1 0x40 SHL SUB DUP2 GT PUSH2 0x3D0 JUMPI PUSH2 0x702 SWAP1 CALLDATASIZE SWAP1 PUSH1 0x4 ADD PUSH2 0x3EF5 JUMP JUMPDEST SWAP1 PUSH1 0x64 CALLDATALOAD PUSH1 0x1 PUSH1 0x1 PUSH1 0x40 SHL SUB DUP2 GT PUSH2 0x3D0 JUMPI PUSH2 0x722 SWAP1 CALLDATASIZE SWAP1 PUSH1 0x4 ADD PUSH2 0x42A5 JUMP JUMPDEST SWAP1 PUSH1 0x84 CALLDATALOAD PUSH1 0x1 PUSH1 0x1 PUSH1 0x40 SHL SUB DUP2 GT PUSH2 0x3D0 JUMPI PUSH2 0x742 SWAP1 CALLDATASIZE SWAP1 PUSH1 0x4 ADD PUSH2 0x3EF5 JUMP JUMPDEST SWAP1 PUSH1 0xA4 CALLDATALOAD PUSH1 0x1 PUSH1 0x1 PUSH1 0x40 SHL SUB DUP2 GT PUSH2 0x3D0 JUMPI PUSH2 0x762 SWAP1 CALLDATASIZE SWAP1 PUSH1 0x4 ADD PUSH2 0x42A5 JUMP JUMPDEST PUSH1 0xC4 CALLDATALOAD PUSH1 0x1 PUSH1 0x1 PUSH1 0xA0 SHL SUB DUP2 AND SWAP2 SWAP1 DUP3 SWAP1 SUB PUSH2 0x3D0 JUMPI PUSH1 0xE4 CALLDATALOAD PUSH1 0x1 PUSH1 0x1 PUSH1 0x40 SHL SUB DUP2 GT PUSH2 0x3D0 JUMPI PUSH2 0x797 SWAP1 CALLDATASIZE SWAP1 PUSH1 0x4 ADD PUSH2 0x3EF5 JUMP JUMPDEST SWAP7 PUSH2 0x104 CALLDATALOAD PUSH1 0x1 PUSH1 0x1 PUSH1 0x40 SHL SUB DUP2 GT PUSH2 0x3D0 JUMPI PUSH2 0x7B8 SWAP1 CALLDATASIZE SWAP1 PUSH1 0x4 ADD PUSH2 0x3EF5 JUMP JUMPDEST SWAP2 PUSH2 0x124 CALLDATALOAD SWAP7 PUSH1 0x2 DUP9 LT ISZERO PUSH2 0x3D0 JUMPI PUSH1 0x0 DUP1 SLOAD PUSH1 0x40 MLOAD PUSH4 0x95A8C58D PUSH1 0xE0 SHL DUP2 MSTORE CALLER PUSH1 0x4 DUP3 ADD MSTORE PUSH1 0x24 DUP2 ADD SWAP3 SWAP1 SWAP3 MSTORE PUSH1 0x20 SWAP1 DUP3 SWAP1 PUSH1 0x44 SWAP1 DUP3 SWAP1 PUSH1 0x1 PUSH1 0x1 PUSH1 0xA0 SHL SUB AND GAS STATICCALL DUP1 ISZERO PUSH2 0x127F JUMPI PUSH2 0x813 SWAP2 PUSH1 0x0 SWAP2 PUSH2 0x1250 JUMPI JUMPDEST POP PUSH2 0x5361 JUMP JUMPDEST PUSH1 0x40 MLOAD SWAP3 PUSH2 0x820 DUP5 PUSH2 0x3CA3 JUMP JUMPDEST DUP7 DUP5 MSTORE PUSH1 0x20 DUP5 ADD MSTORE DUP9 PUSH1 0x40 DUP5 ADD MSTORE PUSH1 0x60 DUP4 ADD MSTORE DUP6 PUSH1 0x80 DUP4 ADD MSTORE PUSH1 0xA0 DUP3 ADD MSTORE PUSH2 0x847 DUP7 PUSH2 0x3E92 JUMP JUMPDEST DUP6 PUSH1 0xC0 DUP3 ADD MSTORE PUSH1 0x2 PUSH1 0xE0 DUP3 ADD MSTORE PUSH1 0x0 PUSH2 0x100 DUP3 ADD MSTORE PUSH1 0x0 PUSH2 0x120 DUP3 ADD MSTORE PUSH1 0x40 SWAP1 DUP2 MLOAD PUSH2 0x873 DUP4 DUP3 PUSH2 0x3CDA JUMP JUMPDEST PUSH1 0x9 DUP2 MSTORE PUSH9 0x2A22AA29A22329A223 PUSH1 0xB9 SHL PUSH1 0x20 DUP3 ADD MSTORE PUSH2 0x140 DUP3 ADD MSTORE DUP2 MLOAD SWAP1 PUSH2 0x8BA DUP2 DUP8 MLOAD SWAP4 PUSH1 0x20 DUP2 DUP2 DUP12 ADD SWAP7 PUSH2 0x8AB DUP2 DUP4 DUP11 PUSH2 0x3D9F JUMP JUMPDEST DUP2 ADD PUSH1 0xC DUP2 MSTORE SUB ADD SWAP1 KECCAK256 PUSH2 0x5867 JUMP JUMPDEST PUSH2 0x8E5 DUP2 PUSH2 0x8D6 PUSH1 0x20 DUP13 DUP2 DUP9 MLOAD SWAP4 DUP3 DUP6 DUP1 SWAP5 MLOAD SWAP4 DUP5 SWAP3 ADD PUSH2 0x3D9F JUMP JUMPDEST DUP2 ADD PUSH1 0xD DUP2 MSTORE SUB ADD SWAP1 KECCAK256 PUSH2 0x5867 JUMP JUMPDEST PUSH1 0x2 SLOAD PUSH1 0x1 PUSH1 0x40 SHL DUP2 LT ISZERO PUSH2 0x1139 JUMPI DUP1 PUSH1 0x1 PUSH2 0x904 SWAP3 ADD PUSH1 0x2 SSTORE PUSH2 0x4173 JUMP JUMPDEST SWAP2 SWAP1 SWAP2 PUSH2 0x123A JUMPI PUSH2 0x914 SWAP2 PUSH2 0x5867 JUMP JUMPDEST DUP2 MLOAD PUSH1 0x20 DUP2 DUP8 MLOAD PUSH2 0x926 DUP2 DUP4 DUP8 PUSH2 0x3D9F JUMP JUMPDEST DUP2 ADD PUSH1 0x8 DUP2 MSTORE SUB ADD SWAP1 KECCAK256 DUP5 PUSH12 0xFFFFFFFFFFFFFFFFFFFFFFFF PUSH1 0xA0 SHL DUP3 SLOAD AND OR SWAP1 SSTORE DUP2 MLOAD PUSH1 0x20 DUP2 DUP8 MLOAD PUSH2 0x959 DUP2 DUP4 DUP8 PUSH2 0x3D9F JUMP JUMPDEST DUP2 ADD PUSH1 0x9 DUP2 MSTORE SUB ADD SWAP1 KECCAK256 DUP10 MLOAD PUSH1 0x1 PUSH1 0x1 PUSH1 0x40 SHL SUB DUP2 GT PUSH2 0x1139 JUMPI PUSH2 0x987 DUP2 PUSH2 0x981 DUP5 SLOAD PUSH2 0x3C69 JUMP JUMPDEST DUP5 PUSH2 0x4A78 JUMP JUMPDEST PUSH1 0x20 DUP12 PUSH1 0x1F DUP4 GT PUSH1 0x1 EQ PUSH2 0x11C9 JUMPI DUP3 PUSH2 0x9D3 SWAP6 SWAP4 PUSH1 0x20 SWAP6 SWAP4 PUSH2 0x9C0 SWAP4 PUSH1 0x0 SWAP3 PUSH2 0x11BE JUMPI JUMPDEST POP POP DUP2 PUSH1 0x1 SHL SWAP2 PUSH1 0x0 NOT SWAP1 PUSH1 0x3 SHL SHR NOT AND OR SWAP1 JUMP JUMPDEST SWAP1 SSTORE JUMPDEST DUP4 MLOAD DUP1 SWAP4 DUP2 SWAP3 DUP10 MLOAD SWAP3 DUP4 SWAP2 PUSH2 0x3D9F JUMP JUMPDEST DUP2 ADD PUSH1 0xA DUP2 MSTORE SUB ADD SWAP1 KECCAK256 DUP3 MLOAD PUSH1 0x1 PUSH1 0x1 PUSH1 0x40 SHL SUB DUP2 GT PUSH2 0x1139 JUMPI PUSH2 0x9FB DUP2 PUSH2 0x981 DUP5 SLOAD PUSH2 0x3C69 JUMP JUMPDEST PUSH1 0x20 PUSH1 0x1F DUP3 GT PUSH1 0x1 EQ PUSH2 0x115A JUMPI SWAP1 DUP1 PUSH2 0xA2A SWAP3 PUSH1 0x0 SWAP2 PUSH2 0x114F JUMPI JUMPDEST POP DUP2 PUSH1 0x1 SHL SWAP2 PUSH1 0x0 NOT SWAP1 PUSH1 0x3 SHL SHR NOT AND OR SWAP1 JUMP JUMPDEST SWAP1 SSTORE JUMPDEST DUP1 MLOAD SWAP4 PUSH2 0x200 PUSH2 0xA3D DUP2 DUP8 PUSH2 0x3CDA JUMP JUMPDEST PUSH1 0xF DUP7 MSTORE PUSH1 0x1F NOT ADD PUSH1 0x0 JUMPDEST DUP2 DUP2 LT PUSH2 0x1128 JUMPI POP POP DUP2 MLOAD SWAP1 PUSH2 0xA5D DUP3 PUSH2 0x3CBF JUMP JUMPDEST PUSH1 0x0 DUP3 MSTORE DUP3 MLOAD SWAP1 PUSH2 0xA6E DUP5 DUP4 PUSH2 0x3CDA JUMP JUMPDEST PUSH1 0x10 DUP3 MSTORE PUSH1 0x20 DUP3 ADD PUSH16 0x2127169918191A1899181916A2291B2B PUSH1 0x81 SHL SWAP1 MSTORE PUSH1 0x20 DUP4 ADD SWAP2 DUP3 MSTORE DUP4 DUP4 ADD MSTORE DUP9 PUSH1 0x60 DUP4 ADD MSTORE PUSH1 0x80 DUP3 ADD PUSH1 0xF SWAP1 MSTORE DUP10 PUSH1 0xA0 DUP4 ADD MSTORE PUSH1 0xC0 DUP3 ADD DUP7 DUP2 MSTORE PUSH1 0x60 SWAP7 DUP5 MLOAD PUSH2 0xAC1 DUP10 DUP3 PUSH2 0x3CDA JUMP JUMPDEST PUSH1 0x2E DUP2 MSTORE PUSH32 0x516D5A706A516644654452505253724834573431334777443557626239554D47 PUSH1 0x20 DUP3 ADD MSTORE PUSH14 0x1AB4B6B8B83338B9A839A0BC3699 PUSH1 0x91 SHL DUP7 DUP3 ADD MSTORE PUSH2 0xB0A DUP3 PUSH2 0x4436 JUMP JUMPDEST MSTORE PUSH2 0xB14 SWAP1 PUSH2 0x4436 JUMP JUMPDEST POP DUP1 MLOAD DUP5 MLOAD PUSH2 0xB23 DUP10 DUP3 PUSH2 0x3CDA JUMP JUMPDEST PUSH1 0x2E DUP2 MSTORE PUSH32 0x516D585655454E637A666342617242745132776944744C6D5A5632506137386E PUSH1 0x20 DUP3 ADD MSTORE PUSH14 0x1935B6A3A238351CB2353298ACB7 PUSH1 0x91 SHL DUP7 DUP3 ADD MSTORE PUSH2 0xB6C DUP3 PUSH2 0x4443 JUMP JUMPDEST MSTORE PUSH2 0xB76 SWAP1 PUSH2 0x4443 JUMP JUMPDEST POP DUP1 MLOAD DUP5 MLOAD PUSH2 0xB85 DUP10 DUP3 PUSH2 0x3CDA JUMP JUMPDEST PUSH1 0x2E DUP2 MSTORE PUSH32 0x516D6436517662316F58616431777A5A75354A36587259646E477039466A3374 PUSH1 0x20 DUP3 ADD MSTORE PUSH14 0x145D59559CDCCE589DD1D59214D5 PUSH1 0x92 SHL DUP7 DUP3 ADD MSTORE PUSH2 0xBCE DUP3 PUSH2 0x4453 JUMP JUMPDEST MSTORE PUSH2 0xBD8 SWAP1 PUSH2 0x4453 JUMP JUMPDEST POP DUP1 MLOAD DUP5 MLOAD PUSH2 0xBE7 DUP10 DUP3 PUSH2 0x3CDA JUMP JUMPDEST PUSH1 0x2E DUP2 MSTORE PUSH32 0x516D56553255784D724A657168726E5144504A6972617546735773364A37584C PUSH1 0x20 DUP3 ADD MSTORE PUSH14 0x446944514B697838485664455473 PUSH1 0x90 SHL DUP7 DUP3 ADD MSTORE PUSH2 0xC30 DUP3 PUSH2 0x4463 JUMP JUMPDEST MSTORE PUSH2 0xC3A SWAP1 PUSH2 0x4463 JUMP JUMPDEST POP DUP1 MLOAD DUP5 MLOAD PUSH2 0xC49 DUP10 DUP3 PUSH2 0x3CDA JUMP JUMPDEST PUSH1 0x2E DUP2 MSTORE PUSH32 0x516D646D523450666E6E35674344355861617776727669586D45334A73696178 PUSH1 0x20 DUP3 ADD MSTORE PUSH14 0x524633654E727A68593143425537 PUSH1 0x90 SHL DUP7 DUP3 ADD MSTORE PUSH2 0xC92 DUP3 PUSH2 0x4473 JUMP JUMPDEST MSTORE PUSH2 0xC9C SWAP1 PUSH2 0x4473 JUMP JUMPDEST POP DUP1 MLOAD DUP5 MLOAD PUSH2 0xCAB DUP10 DUP3 PUSH2 0x3CDA JUMP JUMPDEST PUSH1 0x2E DUP2 MSTORE PUSH32 0x516D517254726667674B5437366E525A563872426A6361546F576648434D7A57 PUSH1 0x20 DUP3 ADD MSTORE PUSH14 0x7159347957527057335344365967 PUSH1 0x90 SHL DUP7 DUP3 ADD MSTORE PUSH2 0xCF4 DUP3 PUSH2 0x4483 JUMP JUMPDEST MSTORE PUSH2 0xCFE SWAP1 PUSH2 0x4483 JUMP JUMPDEST POP DUP1 MLOAD DUP5 MLOAD PUSH2 0xD0D DUP10 DUP3 PUSH2 0x3CDA JUMP JUMPDEST PUSH1 0x2E DUP2 MSTORE PUSH32 0x516D515848585145505032506E4662513636685367325A4D4E643653537A6646 PUSH1 0x20 DUP3 ADD MSTORE PUSH14 0x25A1A52420A2B4B9ACBA9C19192B PUSH1 0x91 SHL DUP7 DUP3 ADD MSTORE PUSH2 0xD56 DUP3 PUSH2 0x4493 JUMP JUMPDEST MSTORE PUSH2 0xD60 SWAP1 PUSH2 0x4493 JUMP JUMPDEST POP DUP1 MLOAD DUP5 MLOAD PUSH2 0xD6F DUP10 DUP3 PUSH2 0x3CDA JUMP JUMPDEST PUSH1 0x2E DUP2 MSTORE PUSH32 0x516D554543695837714869483868346B723275346836716169473866536A395A PUSH1 0x20 DUP3 ADD MSTORE PUSH14 0x135D18D091D9D15210D55E5B4C53 PUSH1 0x92 SHL DUP7 DUP3 ADD MSTORE PUSH2 0xDB8 DUP3 PUSH2 0x44A3 JUMP JUMPDEST MSTORE PUSH2 0xDC2 SWAP1 PUSH2 0x44A3 JUMP JUMPDEST POP DUP1 MLOAD DUP5 MLOAD PUSH2 0xDD1 DUP10 DUP3 PUSH2 0x3CDA JUMP JUMPDEST PUSH1 0x2E DUP2 MSTORE PUSH32 0x516D55775A727439624C6A6E684D4C43693443466361547659675A6157554A52 PUSH1 0x20 DUP3 ADD MSTORE PUSH14 0x635A444B71733963336D71794879 PUSH1 0x90 SHL DUP7 DUP3 ADD MSTORE PUSH2 0xE1A DUP3 PUSH2 0x44B4 JUMP JUMPDEST MSTORE PUSH2 0xE24 SWAP1 PUSH2 0x44B4 JUMP JUMPDEST POP DUP1 MLOAD DUP5 MLOAD PUSH2 0xE33 DUP10 DUP3 PUSH2 0x3CDA JUMP JUMPDEST PUSH1 0x2E DUP2 MSTORE PUSH32 0x516D4E4E75775A415548366758386854636B366F6861344E6A4D684563373578 PUSH1 0x20 DUP3 ADD MSTORE PUSH14 0x7679474371324C70464474594347 PUSH1 0x90 SHL DUP7 DUP3 ADD MSTORE PUSH2 0xE7C DUP3 PUSH2 0x44C5 JUMP JUMPDEST MSTORE PUSH2 0xE86 SWAP1 PUSH2 0x44C5 JUMP JUMPDEST POP DUP1 MLOAD DUP5 MLOAD PUSH2 0xE95 DUP10 DUP3 PUSH2 0x3CDA JUMP JUMPDEST PUSH1 0x2E DUP2 MSTORE PUSH32 0x516D6162687874624B796531656F47504D6664617A5743356D544A734B417455 PUSH1 0x20 DUP3 ADD MSTORE PUSH14 0x31A33129B43319AD31B6B1B6ABA7 PUSH1 0x91 SHL DUP7 DUP3 ADD MSTORE PUSH2 0xEDE DUP3 PUSH2 0x44D6 JUMP JUMPDEST MSTORE PUSH2 0xEE8 SWAP1 PUSH2 0x44D6 JUMP JUMPDEST POP DUP1 MLOAD DUP5 MLOAD PUSH2 0xEF7 DUP10 DUP3 PUSH2 0x3CDA JUMP JUMPDEST PUSH1 0x2E DUP2 MSTORE PUSH32 0x516D6552686F6B686B47363142693378656D443967635A41484B386B36637538 PUSH1 0x20 DUP3 ADD MSTORE PUSH14 0x79434E4154456372556773345479 PUSH1 0x90 SHL DUP7 DUP3 ADD MSTORE PUSH2 0xF40 DUP3 PUSH2 0x44E7 JUMP JUMPDEST MSTORE PUSH2 0xF4A SWAP1 PUSH2 0x44E7 JUMP JUMPDEST POP DUP1 MLOAD DUP5 MLOAD PUSH2 0xF59 DUP10 DUP3 PUSH2 0x3CDA JUMP JUMPDEST PUSH1 0x2E DUP2 MSTORE PUSH32 0x516D616D526B504E4D425874706E687558344573623852516D394E4E70774333 PUSH1 0x20 DUP3 ADD MSTORE PUSH14 0x7A64414D54617250775772695365 PUSH1 0x90 SHL DUP7 DUP3 ADD MSTORE PUSH2 0xFA2 DUP3 PUSH2 0x44F8 JUMP JUMPDEST MSTORE PUSH2 0xFAC SWAP1 PUSH2 0x44F8 JUMP JUMPDEST POP DUP1 MLOAD DUP5 MLOAD PUSH2 0xFBB DUP10 DUP3 PUSH2 0x3CDA JUMP JUMPDEST PUSH1 0x2E DUP2 MSTORE PUSH32 0x516D566B377467705573635047563267694B7779354B414A79434E506E534453 PUSH1 0x20 DUP3 ADD MSTORE PUSH14 0x35644D4B43336D534639357A4E6F PUSH1 0x90 SHL DUP7 DUP3 ADD MSTORE PUSH2 0x1004 DUP3 PUSH2 0x4509 JUMP JUMPDEST MSTORE PUSH2 0x100E SWAP1 PUSH2 0x4509 JUMP JUMPDEST POP MLOAD DUP4 MLOAD PUSH2 0x101C DUP9 DUP3 PUSH2 0x3CDA JUMP JUMPDEST PUSH1 0x2E DUP2 MSTORE PUSH32 0x516D5464734A4E4437426450414B4A5A4438484A707033735445593744746757 PUSH1 0x20 DUP3 ADD MSTORE PUSH14 0x379B3937AA3A35BA2538B439B919 PUSH1 0x91 SHL DUP6 DUP3 ADD MSTORE PUSH2 0x1065 DUP3 PUSH2 0x451A JUMP JUMPDEST MSTORE PUSH2 0x106F SWAP1 PUSH2 0x451A JUMP JUMPDEST POP PUSH2 0x1079 DUP3 PUSH2 0x57FE JUMP JUMPDEST MLOAD DUP3 MLOAD DUP2 DUP2 DUP1 SWAP4 MLOAD PUSH1 0x20 DUP2 SWAP4 ADD SWAP2 PUSH2 0x1090 SWAP3 PUSH2 0x3D9F JUMP JUMPDEST DUP2 ADD PUSH1 0xE DUP2 MSTORE SUB PUSH1 0x20 ADD SWAP1 KECCAK256 SWAP1 PUSH2 0x10A6 SWAP2 PUSH2 0x53AC JUMP JUMPDEST DUP1 MLOAD SWAP8 DUP9 SWAP8 PUSH1 0xC0 DUP10 MSTORE PUSH1 0xC0 DUP10 ADD PUSH2 0x10BC SWAP2 PUSH2 0x3DC2 JUMP JUMPDEST DUP9 DUP2 SUB PUSH1 0x20 DUP11 ADD MSTORE PUSH2 0x10CD SWAP2 PUSH2 0x3DC2 JUMP JUMPDEST SWAP1 DUP8 DUP3 SUB SWAP1 DUP9 ADD MSTORE PUSH2 0x10DE SWAP2 PUSH2 0x3DC2 JUMP JUMPDEST SWAP2 DUP6 ADD MSTORE DUP4 DUP2 SUB PUSH1 0x80 DUP6 ADD MSTORE PUSH2 0x10F3 SWAP2 PUSH2 0x3DC2 JUMP JUMPDEST SWAP1 PUSH2 0x10FD DUP2 PUSH2 0x3E92 JUMP JUMPDEST PUSH1 0xA0 DUP4 ADD MSTORE SUB PUSH32 0x634EF467423C7B2ABBAF26097BDDDAC4A495D36BE69CA3D1555484B46E7899C7 SWAP2 LOG1 STOP JUMPDEST DUP1 PUSH1 0x60 PUSH1 0x20 DUP1 SWAP4 DUP11 ADD ADD MSTORE ADD PUSH2 0xA48 JUMP JUMPDEST PUSH4 0x4E487B71 PUSH1 0xE0 SHL PUSH1 0x0 MSTORE PUSH1 0x41 PUSH1 0x4 MSTORE PUSH1 0x24 PUSH1 0x0 REVERT JUMPDEST SWAP1 POP DUP6 ADD MLOAD DUP13 PUSH2 0xA16 JUMP JUMPDEST PUSH1 0x1F NOT DUP3 AND SWAP1 DUP4 PUSH1 0x0 MSTORE DUP1 PUSH1 0x0 KECCAK256 SWAP2 PUSH1 0x0 JUMPDEST DUP2 DUP2 LT PUSH2 0x11A6 JUMPI POP SWAP1 DUP4 PUSH1 0x1 SWAP5 SWAP4 SWAP3 LT PUSH2 0x118D JUMPI JUMPDEST POP POP DUP2 SHL ADD SWAP1 SSTORE PUSH2 0xA2D JUMP JUMPDEST DUP7 ADD MLOAD PUSH1 0x0 NOT PUSH1 0xF8 DUP5 PUSH1 0x3 SHL AND SHR NOT AND SWAP1 SSTORE DUP12 DUP1 PUSH2 0x1181 JUMP JUMPDEST SWAP2 SWAP3 PUSH1 0x20 PUSH1 0x1 DUP2 SWAP3 DUP7 DUP12 ADD MLOAD DUP2 SSTORE ADD SWAP5 ADD SWAP3 ADD PUSH2 0x116C JUMP JUMPDEST ADD MLOAD SWAP1 POP DUP16 DUP16 PUSH2 0x9AB JUMP JUMPDEST POP PUSH1 0x1F NOT DUP3 AND SWAP1 DUP4 PUSH1 0x0 MSTORE DUP13 DUP2 PUSH1 0x0 KECCAK256 SWAP3 PUSH1 0x0 JUMPDEST DUP2 DUP2 LT PUSH2 0x1220 JUMPI POP SWAP3 PUSH1 0x1 SWAP3 DUP6 SWAP3 PUSH2 0x9D3 SWAP9 SWAP7 PUSH1 0x20 SWAP9 SWAP7 LT PUSH2 0x1207 JUMPI JUMPDEST POP POP POP DUP2 SHL ADD SWAP1 SSTORE PUSH2 0x9C3 JUMP JUMPDEST ADD MLOAD PUSH1 0x0 NOT PUSH1 0xF8 DUP5 PUSH1 0x3 SHL AND SHR NOT AND SWAP1 SSTORE DUP15 DUP1 DUP16 PUSH2 0x11FA JUMP JUMPDEST SWAP2 DUP4 ADD MLOAD DUP5 SSTORE PUSH1 0x1 SWAP1 SWAP4 ADD SWAP3 PUSH1 0x20 SWAP3 DUP4 ADD SWAP3 DUP16 SWAP3 ADD PUSH2 0x11DD JUMP JUMPDEST PUSH4 0x4E487B71 PUSH1 0xE0 SHL PUSH1 0x0 MSTORE PUSH1 0x0 PUSH1 0x4 MSTORE PUSH1 0x24 PUSH1 0x0 REVERT JUMPDEST PUSH2 0x1272 SWAP2 POP PUSH1 0x20 RETURNDATASIZE PUSH1 0x20 GT PUSH2 0x1278 JUMPI JUMPDEST PUSH2 0x126A DUP2 DUP4 PUSH2 0x3CDA JUMP JUMPDEST DUP2 ADD SWAP1 PUSH2 0x4323 JUMP JUMPDEST DUP13 PUSH2 0x80D JUMP JUMPDEST POP RETURNDATASIZE PUSH2 0x1260 JUMP JUMPDEST PUSH1 0x40 MLOAD RETURNDATASIZE PUSH1 0x0 DUP3 RETURNDATACOPY RETURNDATASIZE SWAP1 REVERT JUMPDEST CALLVALUE PUSH2 0x3D0 JUMPI PUSH1 0x20 CALLDATASIZE PUSH1 0x3 NOT ADD SLT PUSH2 0x3D0 JUMPI PUSH1 0x4 CALLDATALOAD PUSH1 0x1 PUSH1 0x1 PUSH1 0x40 SHL SUB DUP2 GT PUSH2 0x3D0 JUMPI PUSH1 0x0 PUSH2 0x12C0 PUSH2 0x12ED SWAP3 CALLDATASIZE SWAP1 PUSH1 0x4 ADD PUSH2 0x3EF5 JUMP JUMPDEST PUSH1 0x1 DUP1 PUSH1 0xA0 SHL SUB PUSH1 0x1 SLOAD AND PUSH1 0x40 MLOAD DUP1 DUP1 SWAP6 DUP2 SWAP5 PUSH3 0x9A3087 PUSH1 0xE3 SHL DUP4 MSTORE PUSH1 0x20 PUSH1 0x4 DUP5 ADD MSTORE PUSH1 0x24 DUP4 ADD SWAP1 PUSH2 0x3DC2 JUMP JUMPDEST SUB SWAP2 GAS STATICCALL SWAP1 DUP2 ISZERO PUSH2 0x127F JUMPI PUSH1 0x0 SWAP2 PUSH2 0x1316 JUMPI JUMPDEST PUSH1 0x40 MLOAD PUSH1 0x20 DUP1 DUP3 MSTORE DUP2 SWAP1 PUSH2 0x3CC SWAP1 DUP3 ADD DUP6 PUSH2 0x3F4B JUMP JUMPDEST RETURNDATASIZE DUP1 DUP4 DUP4 RETURNDATACOPY PUSH2 0x1325 DUP2 DUP4 PUSH2 0x3CDA JUMP JUMPDEST DUP2 ADD SWAP1 PUSH1 0x20 DUP2 DUP4 SUB SLT PUSH2 0x13B4 JUMPI DUP1 MLOAD SWAP1 PUSH1 0x1 PUSH1 0x1 PUSH1 0x40 SHL SUB DUP3 GT PUSH2 0x13BC JUMPI ADD SWAP1 DUP1 PUSH1 0x1F DUP4 ADD SLT ISZERO PUSH2 0x13B4 JUMPI DUP2 MLOAD SWAP3 PUSH2 0x135C DUP5 PUSH2 0x428E JUMP JUMPDEST SWAP3 PUSH2 0x136A PUSH1 0x40 MLOAD SWAP5 DUP6 PUSH2 0x3CDA JUMP JUMPDEST DUP5 DUP5 MSTORE PUSH1 0x20 DUP1 DUP6 ADD SWAP6 PUSH1 0x5 SHL DUP3 ADD ADD SWAP3 DUP4 GT PUSH2 0x13B8 JUMPI PUSH1 0x20 ADD SWAP4 JUMPDEST DUP3 DUP6 LT PUSH2 0x139A JUMPI POP POP POP PUSH2 0x3CC SWAP2 POP SWAP1 PUSH2 0x1300 JUMP JUMPDEST DUP5 MLOAD PUSH1 0xFF DUP2 AND DUP2 SUB PUSH2 0x13B4 JUMPI DUP2 MSTORE PUSH1 0x20 SWAP5 DUP6 ADD SWAP5 ADD PUSH2 0x1385 JUMP JUMPDEST DUP3 DUP1 REVERT JUMPDEST POP DUP1 REVERT JUMPDEST DUP4 DUP1 REVERT JUMPDEST CALLVALUE PUSH2 0x3D0 JUMPI PUSH1 0xC0 CALLDATASIZE PUSH1 0x3 NOT ADD SLT PUSH2 0x3D0 JUMPI PUSH1 0x4 CALLDATALOAD PUSH1 0x1 PUSH1 0x1 PUSH1 0x40 SHL SUB DUP2 GT PUSH2 0x3D0 JUMPI PUSH2 0x13F0 SWAP1 CALLDATASIZE SWAP1 PUSH1 0x4 ADD PUSH2 0x3EF5 JUMP JUMPDEST PUSH1 0x24 CALLDATALOAD PUSH1 0x1 PUSH1 0x1 PUSH1 0x40 SHL SUB DUP2 GT PUSH2 0x3D0 JUMPI PUSH2 0x140F SWAP1 CALLDATASIZE SWAP1 PUSH1 0x4 ADD PUSH2 0x3EF5 JUMP JUMPDEST PUSH1 0x44 CALLDATALOAD PUSH1 0x1 PUSH1 0x1 PUSH1 0x40 SHL SUB DUP2 GT PUSH2 0x3D0 JUMPI PUSH2 0x142E SWAP1 CALLDATASIZE SWAP1 PUSH1 0x4 ADD PUSH2 0x3EF5 JUMP JUMPDEST SWAP1 PUSH2 0x1437 PUSH2 0x4211 JUMP JUMPDEST SWAP1 PUSH1 0x84 CALLDATALOAD PUSH1 0x1 PUSH1 0x1 PUSH1 0x40 SHL SUB DUP2 GT PUSH2 0x3D0 JUMPI PUSH2 0x1457 SWAP1 CALLDATASIZE SWAP1 PUSH1 0x4 ADD PUSH2 0x3EF5 JUMP JUMPDEST PUSH1 0xA4 CALLDATALOAD PUSH1 0x1 PUSH1 0x1 PUSH1 0x40 SHL SUB DUP2 GT PUSH2 0x3D0 JUMPI PUSH2 0x1476 SWAP1 CALLDATASIZE SWAP1 PUSH1 0x4 ADD PUSH2 0x42A5 JUMP JUMPDEST SWAP1 PUSH1 0x44 PUSH1 0x20 PUSH1 0x1 DUP1 PUSH1 0xA0 SHL SUB PUSH1 0x0 SLOAD AND PUSH1 0x40 MLOAD SWAP3 DUP4 DUP1 SWAP3 PUSH4 0x95A8C58D PUSH1 0xE0 SHL DUP3 MSTORE CALLER PUSH1 0x4 DUP4 ADD MSTORE PUSH1 0x0 PUSH1 0x24 DUP4 ADD MSTORE GAS STATICCALL DUP1 ISZERO PUSH2 0x127F JUMPI PUSH2 0x14BD SWAP2 PUSH1 0x0 SWAP2 PUSH2 0x198B JUMPI POP PUSH2 0x5361 JUMP JUMPDEST PUSH1 0xFF DUP3 MLOAD SWAP5 AND SWAP4 DUP5 SUB PUSH2 0x1934 JUMPI PUSH1 0x40 MLOAD SWAP1 PUSH1 0x3 DUP5 MLOAD SWAP3 PUSH1 0x20 DUP2 DUP2 DUP9 ADD SWAP6 PUSH2 0x14E5 DUP2 DUP4 DUP10 PUSH2 0x3D9F JUMP JUMPDEST DUP2 ADD PUSH1 0xE DUP2 MSTORE SUB ADD SWAP1 KECCAK256 ADD PUSH1 0x40 MLOAD PUSH2 0x1505 DUP2 PUSH2 0x4FF PUSH1 0x20 DUP3 ADD DUP1 SWAP6 PUSH2 0x4920 JUMP JUMPDEST MLOAD SWAP1 KECCAK256 DUP8 PUSH1 0x40 MLOAD PUSH2 0x1526 PUSH1 0x20 DUP3 DUP2 PUSH2 0x52B DUP2 DUP4 ADD SWAP7 DUP8 DUP2 MLOAD SWAP4 DUP5 SWAP3 ADD PUSH2 0x3D9F JUMP JUMPDEST MLOAD SWAP1 KECCAK256 SUB PUSH2 0x189E JUMPI POP PUSH2 0x1571 PUSH1 0x20 PUSH1 0x6 SWAP3 PUSH1 0x4 PUSH1 0x40 MLOAD DUP4 DUP2 DUP10 MLOAD PUSH2 0x154B DUP2 DUP4 DUP9 PUSH2 0x3D9F JUMP JUMPDEST DUP2 ADD PUSH1 0xE DUP2 MSTORE SUB ADD SWAP1 KECCAK256 ADD DUP8 PUSH1 0xFF NOT DUP3 SLOAD AND OR SWAP1 SSTORE PUSH1 0x40 MLOAD DUP1 SWAP4 DUP2 SWAP3 DUP9 MLOAD SWAP3 DUP4 SWAP2 PUSH2 0x3D9F JUMP JUMPDEST DUP2 ADD PUSH1 0xE DUP2 MSTORE SUB ADD SWAP1 KECCAK256 ADD DUP2 MLOAD PUSH2 0x1588 DUP2 DUP4 PUSH2 0x4B40 JUMP JUMPDEST PUSH1 0x20 DUP4 ADD SWAP1 DUP2 SWAP3 PUSH1 0x0 MSTORE PUSH1 0x20 PUSH1 0x0 KECCAK256 SWAP2 PUSH1 0x0 SWAP1 JUMPDEST DUP3 DUP3 LT PUSH2 0x17BE JUMPI POP POP POP POP PUSH1 0x0 SWAP5 PUSH1 0x20 DUP2 ADD SWAP6 JUMPDEST PUSH1 0x3 SLOAD DUP2 LT ISZERO PUSH2 0x1789 JUMPI PUSH1 0x2 PUSH2 0x4FF PUSH2 0x15CB PUSH2 0x4EB DUP5 PUSH2 0x4192 JUMP JUMPDEST MLOAD SWAP1 KECCAK256 PUSH2 0x52B PUSH1 0x40 MLOAD PUSH2 0x15EB PUSH1 0x20 DUP3 DUP13 DUP3 DUP3 ADD SWAP6 DUP7 SWAP2 DUP11 MLOAD SWAP3 DUP4 SWAP2 PUSH2 0x3D9F JUMP JUMPDEST MLOAD SWAP1 KECCAK256 EQ PUSH2 0x15FB JUMPI PUSH1 0x1 ADD PUSH2 0x15B0 JUMP JUMPDEST PUSH1 0x6 SWAP3 SWAP4 SWAP5 SWAP6 SWAP7 POP PUSH2 0x1624 SWAP2 POP PUSH1 0x4 PUSH2 0x1613 DUP3 PUSH2 0x4192 JUMP JUMPDEST POP ADD DUP1 SLOAD PUSH1 0xFF NOT AND DUP9 OR SWAP1 SSTORE PUSH2 0x4192 JUMP JUMPDEST POP ADD SWAP2 MLOAD SWAP1 PUSH2 0x1633 DUP3 DUP5 PUSH2 0x4B40 JUMP JUMPDEST SWAP2 PUSH1 0x0 MSTORE PUSH1 0x20 PUSH1 0x0 KECCAK256 SWAP2 PUSH1 0x0 SWAP1 JUMPDEST DUP3 DUP3 LT PUSH2 0x16A3 JUMPI POP POP POP POP SWAP2 PUSH2 0x169E PUSH2 0x168B SWAP3 PUSH32 0xABB6D08782DF0E4C2EE63DEACC72EFC9C1A9422C00FC5D8075160D11EAA40B4A SWAP5 JUMPDEST PUSH1 0x40 MLOAD SWAP5 DUP6 SWAP5 PUSH1 0x60 DUP7 MSTORE PUSH1 0x60 DUP7 ADD SWAP1 PUSH2 0x3DC2 JUMP JUMPDEST SWAP2 PUSH1 0x20 DUP6 ADD MSTORE DUP4 DUP3 SUB PUSH1 0x40 DUP6 ADD MSTORE PUSH2 0x3DC2 JUMP JUMPDEST SUB SWAP1 LOG1 STOP JUMPDEST DUP1 MLOAD DUP1 MLOAD SWAP1 PUSH1 0x1 PUSH1 0x1 PUSH1 0x40 SHL SUB DUP3 GT PUSH2 0x1139 JUMPI PUSH2 0x16CA DUP3 PUSH2 0x16C4 DUP9 SLOAD PUSH2 0x3C69 JUMP JUMPDEST DUP9 PUSH2 0x4A78 JUMP JUMPDEST PUSH1 0x20 SWAP1 PUSH1 0x1F DUP4 GT PUSH1 0x1 EQ PUSH2 0x171C JUMPI SWAP3 PUSH2 0x1702 DUP4 PUSH1 0x1 SWAP6 SWAP5 PUSH1 0x20 SWAP5 DUP8 SWAP7 PUSH1 0x0 SWAP3 PUSH2 0x1711 JUMPI POP POP DUP2 PUSH1 0x1 SHL SWAP2 PUSH1 0x0 NOT SWAP1 PUSH1 0x3 SHL SHR NOT AND OR SWAP1 JUMP JUMPDEST DUP8 SSTORE JUMPDEST ADD SWAP5 ADD SWAP2 ADD SWAP1 SWAP3 PUSH2 0x1641 JUMP JUMPDEST ADD MLOAD SWAP1 POP DUP14 DUP1 PUSH2 0x9AB JUMP JUMPDEST SWAP1 PUSH1 0x1F NOT DUP4 AND SWAP2 DUP8 PUSH1 0x0 MSTORE DUP2 PUSH1 0x0 KECCAK256 SWAP3 PUSH1 0x0 JUMPDEST DUP2 DUP2 LT PUSH2 0x1771 JUMPI POP SWAP4 PUSH1 0x20 SWAP4 PUSH1 0x1 SWAP7 SWAP4 DUP8 SWAP7 SWAP4 DUP4 DUP9 SWAP6 LT PUSH2 0x1758 JUMPI JUMPDEST POP POP POP DUP2 SHL ADD DUP8 SSTORE PUSH2 0x1705 JUMP JUMPDEST ADD MLOAD PUSH1 0x0 NOT PUSH1 0xF8 DUP5 PUSH1 0x3 SHL AND SHR NOT AND SWAP1 SSTORE DUP13 DUP1 DUP1 PUSH2 0x174B JUMP JUMPDEST SWAP3 SWAP4 PUSH1 0x20 PUSH1 0x1 DUP2 SWAP3 DUP8 DUP7 ADD MLOAD DUP2 SSTORE ADD SWAP6 ADD SWAP4 ADD PUSH2 0x172F JUMP JUMPDEST POP POP POP POP PUSH2 0x168B SWAP3 POP PUSH32 0xABB6D08782DF0E4C2EE63DEACC72EFC9C1A9422C00FC5D8075160D11EAA40B4A SWAP4 SWAP2 PUSH2 0x169E SWAP2 PUSH2 0x1677 JUMP JUMPDEST DUP1 MLOAD DUP1 MLOAD SWAP1 PUSH1 0x1 PUSH1 0x1 PUSH1 0x40 SHL SUB DUP3 GT PUSH2 0x1139 JUMPI PUSH2 0x17DF DUP3 PUSH2 0x16C4 DUP9 SLOAD PUSH2 0x3C69 JUMP JUMPDEST PUSH1 0x20 SWAP1 PUSH1 0x1F DUP4 GT PUSH1 0x1 EQ PUSH2 0x1831 JUMPI SWAP3 PUSH2 0x1817 DUP4 PUSH1 0x1 SWAP6 SWAP5 PUSH1 0x20 SWAP5 DUP8 SWAP7 PUSH1 0x0 SWAP3 PUSH2 0x1826 JUMPI POP POP DUP2 PUSH1 0x1 SHL SWAP2 PUSH1 0x0 NOT SWAP1 PUSH1 0x3 SHL SHR NOT AND OR SWAP1 JUMP JUMPDEST DUP8 SSTORE JUMPDEST ADD SWAP5 ADD SWAP2 ADD SWAP1 SWAP3 PUSH2 0x159C JUMP JUMPDEST ADD MLOAD SWAP1 POP CODESIZE DUP1 PUSH2 0x9AB JUMP JUMPDEST SWAP1 PUSH1 0x1F NOT DUP4 AND SWAP2 DUP8 PUSH1 0x0 MSTORE DUP2 PUSH1 0x0 KECCAK256 SWAP3 PUSH1 0x0 JUMPDEST DUP2 DUP2 LT PUSH2 0x1886 JUMPI POP SWAP4 PUSH1 0x20 SWAP4 PUSH1 0x1 SWAP7 SWAP4 DUP8 SWAP7 SWAP4 DUP4 DUP9 SWAP6 LT PUSH2 0x186D JUMPI JUMPDEST POP POP POP DUP2 SHL ADD DUP8 SSTORE PUSH2 0x181A JUMP JUMPDEST ADD MLOAD PUSH1 0x0 NOT PUSH1 0xF8 DUP5 PUSH1 0x3 SHL AND SHR NOT AND SWAP1 SSTORE DUP16 DUP1 DUP1 PUSH2 0x1860 JUMP JUMPDEST SWAP3 SWAP4 PUSH1 0x20 PUSH1 0x1 DUP2 SWAP3 DUP8 DUP7 ADD MLOAD DUP2 SSTORE ADD SWAP6 ADD SWAP4 ADD PUSH2 0x1844 JUMP JUMPDEST PUSH2 0x192F SWAP1 PUSH2 0x192A PUSH2 0x168B SWAP8 PUSH2 0x191B PUSH1 0x20 PUSH2 0x169E SWAP9 SWAP7 PUSH32 0xABB6D08782DF0E4C2EE63DEACC72EFC9C1A9422C00FC5D8075160D11EAA40B4A SWAP13 SWAP11 SWAP9 PUSH1 0x40 MLOAD SWAP7 DUP8 SWAP6 PUSH2 0x18E6 DUP8 PUSH2 0x3CBF JUMP JUMPDEST PUSH1 0x0 DUP8 MSTORE DUP11 DUP6 DUP9 ADD MSTORE PUSH1 0x40 DUP8 ADD MSTORE DUP13 PUSH1 0x60 DUP8 ADD MSTORE DUP11 PUSH1 0x80 DUP8 ADD MSTORE PUSH1 0xA0 DUP7 ADD MSTORE PUSH1 0xC0 DUP6 ADD MSTORE PUSH1 0x40 MLOAD DUP1 SWAP4 DUP2 SWAP3 DUP11 MLOAD SWAP3 DUP4 SWAP2 PUSH2 0x3D9F JUMP JUMPDEST DUP2 ADD PUSH1 0xE DUP2 MSTORE SUB ADD SWAP1 KECCAK256 PUSH2 0x53AC JUMP JUMPDEST PUSH2 0x57FE JUMP JUMPDEST PUSH2 0x1677 JUMP JUMPDEST PUSH1 0x40 MLOAD PUSH3 0x461BCD PUSH1 0xE5 SHL DUP2 MSTORE PUSH1 0x20 PUSH1 0x4 DUP3 ADD MSTORE PUSH1 0x29 PUSH1 0x24 DUP3 ADD MSTORE PUSH32 0x5175616E7469747920646F6573206E6F74206D6174636820746865206E756D62 PUSH1 0x44 DUP3 ADD MSTORE PUSH9 0x6572206F6620494473 PUSH1 0xB8 SHL PUSH1 0x64 DUP3 ADD MSTORE PUSH1 0x84 SWAP1 REVERT JUMPDEST PUSH2 0x19A4 SWAP2 POP PUSH1 0x20 RETURNDATASIZE PUSH1 0x20 GT PUSH2 0x1278 JUMPI PUSH2 0x126A DUP2 DUP4 PUSH2 0x3CDA JUMP JUMPDEST DUP9 PUSH2 0x80D JUMP JUMPDEST CALLVALUE PUSH2 0x3D0 JUMPI PUSH1 0x20 CALLDATASIZE PUSH1 0x3 NOT ADD SLT PUSH2 0x3D0 JUMPI PUSH1 0x4 CALLDATALOAD PUSH1 0x1 PUSH1 0x1 PUSH1 0x40 SHL SUB DUP2 GT PUSH2 0x3D0 JUMPI PUSH1 0x20 PUSH2 0x410 PUSH2 0x19DF SWAP3 CALLDATASIZE SWAP1 PUSH1 0x4 ADD PUSH2 0x3EF5 JUMP JUMPDEST DUP2 ADD PUSH1 0xE DUP2 MSTORE SUB ADD SWAP1 KECCAK256 PUSH1 0xFF DUP2 SLOAD AND PUSH2 0x3CC PUSH2 0x19FD PUSH1 0x1 DUP5 ADD PUSH2 0x3CFB JUMP JUMPDEST SWAP3 PUSH2 0x1A0A PUSH1 0x2 DUP3 ADD PUSH2 0x3CFB JUMP JUMPDEST SWAP1 PUSH2 0x1A17 PUSH1 0x3 DUP3 ADD PUSH2 0x3CFB JUMP JUMPDEST PUSH2 0x1A2B PUSH1 0x5 PUSH1 0xFF PUSH1 0x4 DUP6 ADD SLOAD AND SWAP4 ADD PUSH2 0x3CFB JUMP JUMPDEST SWAP3 PUSH1 0x40 MLOAD SWAP7 DUP8 SWAP7 DUP8 PUSH2 0x41B1 JUMP JUMPDEST CALLVALUE PUSH2 0x3D0 JUMPI PUSH1 0x20 CALLDATASIZE PUSH1 0x3 NOT ADD SLT PUSH2 0x3D0 JUMPI PUSH1 0x4 CALLDATALOAD PUSH1 0x1 PUSH1 0x1 PUSH1 0x40 SHL SUB DUP2 GT PUSH2 0x3D0 JUMPI PUSH2 0x1A68 SWAP1 CALLDATASIZE SWAP1 PUSH1 0x4 ADD PUSH2 0x3EF5 JUMP JUMPDEST PUSH1 0x0 DUP1 PUSH1 0x4 SLOAD SWAP3 PUSH1 0x20 DUP2 ADD SWAP3 JUMPDEST DUP5 DUP2 LT PUSH2 0x1B30 JUMPI POP PUSH2 0x1A86 DUP3 PUSH2 0x43EC JUMP JUMPDEST SWAP2 PUSH2 0x1A90 DUP2 PUSH2 0x43EC JUMP JUMPDEST SWAP4 PUSH2 0x1A9A DUP3 PUSH2 0x498E JUMP JUMPDEST SWAP6 PUSH2 0x1AA4 DUP4 PUSH2 0x498E JUMP JUMPDEST SWAP2 PUSH2 0x1AB1 PUSH2 0x4B0 DUP6 PUSH2 0x43EC JUMP JUMPDEST SWAP5 PUSH1 0x0 SWAP2 DUP3 JUMPDEST DUP5 DUP2 LT PUSH2 0x1AD5 JUMPI POP POP POP POP POP PUSH2 0x3CC SWAP4 SWAP5 SWAP6 PUSH1 0x40 MLOAD SWAP7 DUP8 SWAP7 DUP8 PUSH2 0x4221 JUMP JUMPDEST PUSH1 0x5 PUSH2 0x4FF PUSH2 0x1AE6 PUSH2 0x4EB DUP5 PUSH2 0x3C34 JUMP JUMPDEST MLOAD SWAP1 KECCAK256 PUSH1 0x40 MLOAD PUSH1 0x20 DUP2 ADD SWAP1 PUSH2 0x1B04 PUSH1 0x20 DUP3 DUP9 MLOAD PUSH2 0x52B DUP2 DUP8 DUP12 PUSH2 0x3D9F JUMP JUMPDEST MLOAD SWAP1 KECCAK256 EQ PUSH2 0x1B15 JUMPI JUMPDEST PUSH1 0x1 ADD PUSH2 0x1AB7 JUMP JUMPDEST SWAP3 PUSH2 0x1B28 PUSH1 0x1 SWAP2 PUSH2 0x566 PUSH2 0x560 DUP8 PUSH2 0x3C34 JUMP JUMPDEST SWAP4 SWAP1 POP PUSH2 0x1B0D JUMP JUMPDEST PUSH1 0x5 PUSH2 0x4FF PUSH2 0x1B41 PUSH2 0x4EB DUP5 PUSH2 0x3C34 JUMP JUMPDEST MLOAD SWAP1 KECCAK256 PUSH1 0x40 MLOAD PUSH1 0x20 DUP2 ADD SWAP1 PUSH2 0x1B5F PUSH1 0x20 DUP3 DUP8 MLOAD PUSH2 0x52B DUP2 DUP8 DUP14 PUSH2 0x3D9F JUMP JUMPDEST MLOAD SWAP1 KECCAK256 EQ PUSH2 0x1B70 JUMPI JUMPDEST PUSH1 0x1 ADD PUSH2 0x1A75 JUMP JUMPDEST SWAP2 PUSH2 0x1B7C PUSH1 0x1 SWAP2 PUSH2 0x4393 JUMP JUMPDEST SWAP3 SWAP1 POP PUSH2 0x1B68 JUMP JUMPDEST CALLVALUE PUSH2 0x3D0 JUMPI PUSH1 0x20 CALLDATASIZE PUSH1 0x3 NOT ADD SLT PUSH2 0x3D0 JUMPI PUSH1 0x4 CALLDATALOAD PUSH1 0x1 PUSH1 0x1 PUSH1 0x40 SHL SUB DUP2 GT PUSH2 0x3D0 JUMPI PUSH2 0x1BB4 SWAP1 CALLDATASIZE SWAP1 PUSH1 0x4 ADD PUSH2 0x3EF5 JUMP JUMPDEST PUSH1 0x0 DUP1 SLOAD PUSH1 0x40 MLOAD PUSH4 0x95A8C58D PUSH1 0xE0 SHL DUP2 MSTORE CALLER PUSH1 0x4 DUP3 ADD MSTORE PUSH1 0x24 DUP2 ADD SWAP3 SWAP1 SWAP3 MSTORE PUSH1 0x20 SWAP1 DUP3 SWAP1 PUSH1 0x44 SWAP1 DUP3 SWAP1 PUSH1 0x1 PUSH1 0x1 PUSH1 0xA0 SHL SUB AND GAS STATICCALL DUP1 ISZERO PUSH2 0x127F JUMPI PUSH2 0x1BFF SWAP2 PUSH1 0x0 SWAP2 PUSH2 0x1DB9 JUMPI POP PUSH2 0x5361 JUMP JUMPDEST PUSH1 0x40 MLOAD DUP2 MLOAD SWAP1 PUSH1 0x20 DUP2 DUP2 DUP6 ADD SWAP4 PUSH2 0x1C17 DUP2 DUP4 DUP8 PUSH2 0x3D9F JUMP JUMPDEST DUP2 ADD PUSH1 0xC DUP2 MSTORE SUB ADD SWAP1 KECCAK256 SWAP2 PUSH1 0x6 DUP4 ADD DUP1 SLOAD PUSH1 0xFF DUP2 PUSH1 0x8 SHR AND PUSH2 0x1C38 DUP2 PUSH2 0x3DE7 JUMP JUMPDEST PUSH2 0x1D57 JUMPI TIMESTAMP PUSH1 0x7 DUP7 ADD SSTORE PUSH2 0xFF00 NOT AND PUSH2 0x100 OR SWAP1 SSTORE PUSH1 0x0 JUMPDEST PUSH1 0x2 SLOAD DUP2 LT ISZERO PUSH2 0x1D27 JUMPI PUSH2 0x1C63 DUP2 PUSH2 0x4173 JUMP JUMPDEST POP PUSH1 0x40 MLOAD PUSH2 0x1C79 DUP2 PUSH2 0x4FF PUSH1 0x20 DUP3 ADD DUP1 SWAP6 PUSH2 0x4920 JUMP JUMPDEST MLOAD SWAP1 KECCAK256 PUSH1 0x40 MLOAD PUSH1 0x20 DUP2 ADD SWAP1 PUSH2 0x1C97 PUSH1 0x20 DUP3 DUP8 MLOAD PUSH2 0x52B DUP2 DUP8 DUP13 PUSH2 0x3D9F JUMP JUMPDEST MLOAD SWAP1 KECCAK256 EQ PUSH2 0x1CA7 JUMPI PUSH1 0x1 ADD PUSH2 0x1C50 JUMP JUMPDEST PUSH2 0x1D12 SWAP3 POP PUSH32 0x854681DB4B5190CEAACFE5894893F2E8D49873D9B8ED6C72B5618047CB3924E5 SWAP4 PUSH1 0x6 PUSH2 0x1CEC DUP4 PUSH2 0x1CE0 PUSH2 0x169E SWAP6 PUSH2 0x4173 JUMP JUMPDEST POP PUSH1 0x7 TIMESTAMP SWAP2 ADD SSTORE PUSH2 0x4173 JUMP JUMPDEST POP ADD DUP1 SLOAD PUSH2 0xFF00 NOT AND PUSH2 0x100 OR SWAP1 SSTORE JUMPDEST PUSH1 0x2 PUSH1 0x40 MLOAD SWAP5 DUP6 SWAP5 PUSH1 0x60 DUP7 MSTORE PUSH1 0x60 DUP7 ADD SWAP1 PUSH2 0x3DC2 JUMP JUMPDEST SWAP2 TIMESTAMP PUSH1 0x20 DUP7 ADD MSTORE DUP5 DUP4 SUB PUSH1 0x40 DUP7 ADD MSTORE ADD PUSH2 0x4ABD JUMP JUMPDEST POP PUSH2 0x1D12 SWAP2 POP PUSH2 0x169E PUSH32 0x854681DB4B5190CEAACFE5894893F2E8D49873D9B8ED6C72B5618047CB3924E5 SWAP4 PUSH2 0x1CFC JUMP JUMPDEST PUSH1 0x40 MLOAD PUSH3 0x461BCD PUSH1 0xE5 SHL DUP2 MSTORE PUSH1 0x20 PUSH1 0x4 DUP3 ADD MSTORE PUSH1 0x34 PUSH1 0x24 DUP3 ADD MSTORE PUSH32 0x4F62617420547261646973696F6E616C20737461747573206D75737420626520 PUSH1 0x44 DUP3 ADD MSTORE PUSH20 0x696E206C6F63616C2070726F64756374696F6E21 PUSH1 0x60 SHL PUSH1 0x64 DUP3 ADD MSTORE PUSH1 0x84 SWAP1 REVERT JUMPDEST PUSH2 0x1DD2 SWAP2 POP PUSH1 0x20 RETURNDATASIZE PUSH1 0x20 GT PUSH2 0x1278 JUMPI PUSH2 0x126A DUP2 DUP4 PUSH2 0x3CDA JUMP JUMPDEST DUP4 PUSH2 0x80D JUMP JUMPDEST CALLVALUE PUSH2 0x3D0 JUMPI PUSH1 0x20 CALLDATASIZE PUSH1 0x3 NOT ADD SLT PUSH2 0x3D0 JUMPI PUSH1 0x4 CALLDATALOAD PUSH1 0x1 PUSH1 0x1 PUSH1 0x40 SHL SUB DUP2 GT PUSH2 0x3D0 JUMPI PUSH2 0x1E08 SWAP1 CALLDATASIZE SWAP1 PUSH1 0x4 ADD PUSH2 0x3EF5 JUMP JUMPDEST PUSH1 0x60 SWAP1 PUSH1 0x40 MLOAD PUSH2 0x1E3C PUSH2 0x1F0 PUSH1 0x2 DUP5 MLOAD SWAP4 PUSH1 0x20 DUP2 DUP2 DUP9 ADD SWAP7 PUSH2 0x1E2B DUP2 DUP4 DUP11 PUSH2 0x3D9F JUMP JUMPDEST DUP2 ADD PUSH1 0xE DUP2 MSTORE SUB ADD SWAP1 KECCAK256 ADD SLOAD PUSH2 0x3C69 JUMP JUMPDEST PUSH1 0xFF PUSH1 0x4 PUSH1 0x40 MLOAD PUSH1 0x20 DUP2 DUP7 MLOAD PUSH2 0x1E53 DUP2 DUP4 DUP10 PUSH2 0x3D9F JUMP JUMPDEST DUP2 ADD PUSH1 0xE DUP2 MSTORE SUB ADD SWAP1 KECCAK256 ADD SLOAD AND SWAP2 PUSH1 0x1 DUP1 PUSH1 0xA0 SHL SUB PUSH1 0x0 SLOAD AND PUSH1 0x40 MLOAD PUSH4 0x95A8C58D PUSH1 0xE0 SHL DUP2 MSTORE CALLER PUSH1 0x4 DUP3 ADD MSTORE PUSH1 0x1 PUSH1 0x24 DUP3 ADD MSTORE PUSH1 0x20 DUP2 PUSH1 0x44 DUP2 DUP6 GAS STATICCALL SWAP1 DUP2 ISZERO PUSH2 0x127F JUMPI PUSH1 0x0 SWAP2 PUSH2 0x1F67 JUMPI JUMPDEST POP ISZERO PUSH2 0x1ECF JUMPI POP POP POP SWAP1 POP PUSH2 0x1EB1 PUSH2 0x43B8 JUMP JUMPDEST SWAP1 JUMPDEST PUSH2 0x3CC PUSH1 0x40 MLOAD SWAP3 DUP4 SWAP3 DUP4 MSTORE PUSH1 0x40 PUSH1 0x20 DUP5 ADD MSTORE PUSH1 0x40 DUP4 ADD SWAP1 PUSH2 0x3E9C JUMP JUMPDEST PUSH1 0x20 PUSH1 0x44 SWAP2 PUSH1 0x40 MLOAD SWAP3 DUP4 DUP1 SWAP3 PUSH4 0x95A8C58D PUSH1 0xE0 SHL DUP3 MSTORE CALLER PUSH1 0x4 DUP4 ADD MSTORE PUSH1 0x0 PUSH1 0x24 DUP4 ADD MSTORE GAS STATICCALL SWAP1 DUP2 ISZERO PUSH2 0x127F JUMPI PUSH1 0x0 SWAP2 PUSH2 0x1F48 JUMPI JUMPDEST POP PUSH2 0x1F10 JUMPI JUMPDEST POP POP PUSH2 0x1EB3 JUMP JUMPDEST PUSH2 0x1F40 SWAP3 SWAP4 POP PUSH1 0x20 PUSH1 0x6 SWAP3 PUSH2 0x1F30 SWAP3 PUSH1 0x40 MLOAD SWAP4 DUP5 SWAP3 DUP4 SWAP3 MLOAD SWAP3 DUP4 SWAP2 PUSH2 0x3D9F JUMP JUMPDEST DUP2 ADD PUSH1 0xE DUP2 MSTORE SUB ADD SWAP1 KECCAK256 ADD PUSH2 0x433B JUMP JUMPDEST SWAP1 DUP3 DUP1 PUSH2 0x1F09 JUMP JUMPDEST PUSH2 0x1F61 SWAP2 POP PUSH1 0x20 RETURNDATASIZE PUSH1 0x20 GT PUSH2 0x1278 JUMPI PUSH2 0x126A DUP2 DUP4 PUSH2 0x3CDA JUMP JUMPDEST DUP6 PUSH2 0x1F03 JUMP JUMPDEST PUSH2 0x1F80 SWAP2 POP PUSH1 0x20 RETURNDATASIZE PUSH1 0x20 GT PUSH2 0x1278 JUMPI PUSH2 0x126A DUP2 DUP4 PUSH2 0x3CDA JUMP JUMPDEST DUP7 PUSH2 0x1E9E JUMP JUMPDEST CALLVALUE PUSH2 0x3D0 JUMPI PUSH1 0x20 CALLDATASIZE PUSH1 0x3 NOT ADD SLT PUSH2 0x3D0 JUMPI PUSH1 0x4 CALLDATALOAD PUSH1 0x1 PUSH1 0x1 PUSH1 0x40 SHL SUB DUP2 GT PUSH2 0x3D0 JUMPI PUSH2 0x1FB6 SWAP1 CALLDATASIZE SWAP1 PUSH1 0x4 ADD PUSH2 0x3EF5 JUMP JUMPDEST PUSH1 0x40 MLOAD SWAP1 PUSH2 0x1FE5 PUSH2 0x1F0 DUP3 MLOAD SWAP4 PUSH1 0x20 DUP2 DUP2 DUP7 ADD SWAP7 PUSH2 0x1FD5 DUP2 DUP4 DUP11 PUSH2 0x3D9F JUMP JUMPDEST DUP2 ADD PUSH1 0xF DUP2 MSTORE SUB ADD SWAP1 KECCAK256 SLOAD PUSH2 0x3C69 JUMP JUMPDEST PUSH1 0x40 MLOAD PUSH1 0x20 DUP2 DUP4 MLOAD PUSH2 0x1FF8 DUP2 DUP4 DUP9 PUSH2 0x3D9F JUMP JUMPDEST DUP2 ADD PUSH1 0xF DUP2 MSTORE SUB ADD SWAP1 KECCAK256 SWAP1 PUSH1 0x7 DUP3 ADD PUSH1 0x2 PUSH1 0xFF NOT DUP3 SLOAD AND OR SWAP1 SSTORE TIMESTAMP PUSH1 0xA DUP4 ADD SSTORE PUSH1 0x0 JUMPDEST PUSH1 0x4 SLOAD DUP2 LT ISZERO PUSH2 0x20D8 JUMPI PUSH2 0x202E DUP2 PUSH2 0x3C34 JUMP JUMPDEST POP PUSH1 0x40 MLOAD PUSH2 0x2044 DUP2 PUSH2 0x4FF PUSH1 0x20 DUP3 ADD DUP1 SWAP6 PUSH2 0x4920 JUMP JUMPDEST MLOAD SWAP1 KECCAK256 PUSH1 0x40 MLOAD PUSH1 0x20 DUP2 ADD SWAP1 PUSH2 0x2062 PUSH1 0x20 DUP3 DUP8 MLOAD PUSH2 0x52B DUP2 DUP8 DUP14 PUSH2 0x3D9F JUMP JUMPDEST MLOAD SWAP1 KECCAK256 EQ PUSH2 0x2072 JUMPI PUSH1 0x1 ADD PUSH2 0x201B JUMP JUMPDEST PUSH1 0x0 DUP1 MLOAD PUSH1 0x20 PUSH2 0x5E9B DUP4 CODECOPY DUP2 MLOAD SWAP2 MSTORE SWAP4 POP PUSH2 0x20A5 SWAP2 POP PUSH1 0x7 PUSH2 0x2093 DUP3 PUSH2 0x3C34 JUMP JUMPDEST POP ADD DUP1 SLOAD PUSH1 0xFF NOT AND PUSH1 0x2 OR SWAP1 SSTORE PUSH2 0x3C34 JUMP JUMPDEST POP PUSH1 0xA TIMESTAMP SWAP2 ADD SSTORE JUMPDEST PUSH1 0xFF PUSH1 0x4 DUP3 ADD SLOAD AND PUSH2 0x169E PUSH1 0x40 MLOAD SWAP3 DUP4 SWAP3 TIMESTAMP SWAP2 PUSH1 0x5 DUP2 ADD SWAP1 PUSH1 0x6 DUP2 ADD SWAP1 PUSH1 0x1 PUSH1 0x3 DUP3 ADD SWAP2 ADD DUP8 PUSH2 0x4D09 JUMP JUMPDEST POP POP PUSH1 0x0 DUP1 MLOAD PUSH1 0x20 PUSH2 0x5E9B DUP4 CODECOPY DUP2 MLOAD SWAP2 MSTORE SWAP2 POP PUSH2 0x20AD JUMP JUMPDEST CALLVALUE PUSH2 0x3D0 JUMPI PUSH1 0x20 CALLDATASIZE PUSH1 0x3 NOT ADD SLT PUSH2 0x3D0 JUMPI PUSH1 0x4 CALLDATALOAD PUSH1 0x1 PUSH1 0x1 PUSH1 0x40 SHL SUB DUP2 GT PUSH2 0x3D0 JUMPI PUSH2 0x423 PUSH2 0x315 PUSH1 0x20 PUSH2 0x410 PUSH2 0x3CC SWAP5 CALLDATASIZE SWAP1 PUSH1 0x4 ADD PUSH2 0x3EF5 JUMP JUMPDEST CALLVALUE PUSH2 0x3D0 JUMPI PUSH1 0x20 CALLDATASIZE PUSH1 0x3 NOT ADD SLT PUSH2 0x3D0 JUMPI PUSH1 0x4 CALLDATALOAD PUSH1 0x1 PUSH1 0x1 PUSH1 0x40 SHL SUB DUP2 GT PUSH2 0x3D0 JUMPI PUSH2 0x423 PUSH2 0x38F PUSH1 0x20 PUSH2 0x410 PUSH2 0x3CC SWAP5 CALLDATASIZE SWAP1 PUSH1 0x4 ADD PUSH2 0x3EF5 JUMP JUMPDEST CALLVALUE PUSH2 0x3D0 JUMPI PUSH1 0x0 CALLDATASIZE PUSH1 0x3 NOT ADD SLT PUSH2 0x3D0 JUMPI PUSH1 0x1 SLOAD PUSH1 0x40 MLOAD PUSH1 0x1 PUSH1 0x1 PUSH1 0xA0 SHL SUB SWAP1 SWAP2 AND DUP2 MSTORE PUSH1 0x20 SWAP1 RETURN JUMPDEST CALLVALUE PUSH2 0x3D0 JUMPI PUSH1 0x20 CALLDATASIZE PUSH1 0x3 NOT ADD SLT PUSH2 0x3D0 JUMPI PUSH1 0x4 CALLDATALOAD PUSH1 0x1 PUSH1 0x1 PUSH1 0x40 SHL SUB DUP2 GT PUSH2 0x3D0 JUMPI PUSH2 0x21BF SWAP1 CALLDATASIZE SWAP1 PUSH1 0x4 ADD PUSH2 0x3EF5 JUMP JUMPDEST PUSH1 0x0 DUP1 SLOAD PUSH1 0x40 MLOAD PUSH4 0x95A8C58D PUSH1 0xE0 SHL DUP2 MSTORE CALLER PUSH1 0x4 DUP3 ADD MSTORE PUSH1 0x24 DUP2 ADD SWAP3 SWAP1 SWAP3 MSTORE PUSH1 0x20 SWAP1 DUP3 SWAP1 PUSH1 0x44 SWAP1 DUP3 SWAP1 PUSH1 0x1 PUSH1 0x1 PUSH1 0xA0 SHL SUB AND GAS STATICCALL DUP1 ISZERO PUSH2 0x127F JUMPI PUSH2 0x220A SWAP2 PUSH1 0x0 SWAP2 PUSH2 0x1DB9 JUMPI POP PUSH2 0x5361 JUMP JUMPDEST PUSH1 0x3 SLOAD PUSH1 0x20 DUP3 ADD SWAP2 PUSH1 0x0 DUP1 JUMPDEST DUP4 DUP2 LT PUSH2 0x2374 JUMPI POP PUSH2 0x2227 DUP2 PUSH2 0x43EC JUMP JUMPDEST SWAP3 PUSH2 0x2231 DUP3 PUSH2 0x43EC JUMP JUMPDEST SWAP5 PUSH2 0x2244 PUSH2 0x223E DUP5 PUSH2 0x498E JUMP JUMPDEST SWAP4 PUSH2 0x43EC JUMP JUMPDEST SWAP4 PUSH1 0x0 SWAP2 DUP3 JUMPDEST DUP5 DUP2 LT PUSH2 0x229F JUMPI PUSH2 0x2275 DUP9 PUSH2 0x3CC DUP10 PUSH2 0x2291 DUP11 PUSH2 0x2283 DUP16 PUSH1 0x40 MLOAD SWAP8 DUP9 SWAP8 PUSH1 0x80 DUP10 MSTORE PUSH1 0x80 DUP10 ADD SWAP1 PUSH2 0x3E9C JUMP JUMPDEST SWAP1 DUP8 DUP3 SUB PUSH1 0x20 DUP10 ADD MSTORE PUSH2 0x3E9C JUMP JUMPDEST SWAP1 DUP6 DUP3 SUB PUSH1 0x40 DUP8 ADD MSTORE PUSH2 0x3F4B JUMP JUMPDEST SWAP1 DUP4 DUP3 SUB PUSH1 0x60 DUP6 ADD MSTORE PUSH2 0x3E9C JUMP JUMPDEST PUSH1 0x5 PUSH2 0x4FF PUSH2 0x22B0 PUSH2 0x4EB DUP5 PUSH2 0x4192 JUMP JUMPDEST MLOAD SWAP1 KECCAK256 PUSH1 0x40 MLOAD PUSH1 0x20 DUP2 ADD SWAP1 PUSH2 0x22CE PUSH1 0x20 DUP3 DUP9 MLOAD PUSH2 0x52B DUP2 DUP8 DUP12 PUSH2 0x3D9F JUMP JUMPDEST MLOAD SWAP1 KECCAK256 EQ PUSH2 0x22DF JUMPI JUMPDEST PUSH1 0x1 ADD PUSH2 0x224A JUMP JUMPDEST SWAP3 PUSH2 0x236C PUSH1 0x1 SWAP2 PUSH2 0x22F4 PUSH1 0x2 PUSH2 0x58E DUP9 PUSH2 0x4192 JUMP JUMPDEST PUSH2 0x22FE DUP3 DUP13 PUSH2 0x452B JUMP JUMPDEST MSTORE PUSH2 0x2309 DUP2 DUP12 PUSH2 0x452B JUMP JUMPDEST POP PUSH2 0x2318 PUSH1 0x3 PUSH2 0x58E DUP9 PUSH2 0x4192 JUMP JUMPDEST PUSH2 0x2322 DUP3 DUP14 PUSH2 0x452B JUMP JUMPDEST MSTORE PUSH2 0x232D DUP2 DUP13 PUSH2 0x452B JUMP JUMPDEST POP PUSH1 0xFF PUSH1 0x4 PUSH2 0x233B DUP9 PUSH2 0x4192 JUMP JUMPDEST POP ADD SLOAD AND PUSH2 0x2349 DUP3 DUP11 PUSH2 0x452B JUMP JUMPDEST MSTORE PUSH2 0x2357 DUP4 PUSH2 0x58E DUP9 PUSH2 0x4192 JUMP JUMPDEST PUSH2 0x2361 DUP3 DUP12 PUSH2 0x452B JUMP JUMPDEST MSTORE PUSH2 0x630 DUP2 DUP11 PUSH2 0x452B JUMP JUMPDEST SWAP4 SWAP1 POP PUSH2 0x22D7 JUMP JUMPDEST PUSH1 0x5 PUSH2 0x4FF PUSH2 0x2385 PUSH2 0x4EB DUP5 PUSH2 0x4192 JUMP JUMPDEST MLOAD SWAP1 KECCAK256 PUSH1 0x40 MLOAD PUSH1 0x20 DUP2 ADD SWAP1 PUSH2 0x23A5 PUSH1 0x20 DUP3 DUP5 PUSH2 0x52B DUP13 DUP12 MLOAD SWAP3 DUP4 SWAP2 PUSH2 0x3D9F JUMP JUMPDEST MLOAD SWAP1 KECCAK256 EQ PUSH2 0x23B6 JUMPI JUMPDEST PUSH1 0x1 ADD PUSH2 0x2216 JUMP JUMPDEST SWAP1 PUSH2 0x23C2 PUSH1 0x1 SWAP2 PUSH2 0x4393 JUMP JUMPDEST SWAP2 SWAP1 POP PUSH2 0x23AE JUMP JUMPDEST CALLVALUE PUSH2 0x3D0 JUMPI PUSH1 0xC0 CALLDATASIZE PUSH1 0x3 NOT ADD SLT PUSH2 0x3D0 JUMPI PUSH1 0x4 CALLDATALOAD PUSH1 0x1 PUSH1 0x1 PUSH1 0x40 SHL SUB DUP2 GT PUSH2 0x3D0 JUMPI PUSH2 0x23FA SWAP1 CALLDATASIZE SWAP1 PUSH1 0x4 ADD PUSH2 0x3EF5 JUMP JUMPDEST PUSH1 0x24 CALLDATALOAD PUSH1 0x1 PUSH1 0x1 PUSH1 0x40 SHL SUB DUP2 GT PUSH2 0x3D0 JUMPI PUSH2 0x2419 SWAP1 CALLDATASIZE SWAP1 PUSH1 0x4 ADD PUSH2 0x3EF5 JUMP JUMPDEST PUSH1 0x44 CALLDATALOAD PUSH1 0x1 PUSH1 0x1 PUSH1 0x40 SHL SUB DUP2 GT PUSH2 0x3D0 JUMPI PUSH2 0x2438 SWAP1 CALLDATASIZE SWAP1 PUSH1 0x4 ADD PUSH2 0x3EF5 JUMP JUMPDEST PUSH2 0x2440 PUSH2 0x4211 JUMP JUMPDEST SWAP3 PUSH1 0x84 CALLDATALOAD PUSH1 0x1 PUSH1 0x1 PUSH1 0x40 SHL SUB DUP2 GT PUSH2 0x3D0 JUMPI PUSH2 0x2460 SWAP1 CALLDATASIZE SWAP1 PUSH1 0x4 ADD PUSH2 0x3EF5 JUMP JUMPDEST SWAP1 PUSH1 0xA4 CALLDATALOAD PUSH1 0x1 PUSH1 0x1 PUSH1 0x40 SHL SUB DUP2 GT PUSH2 0x3D0 JUMPI PUSH2 0x2480 SWAP1 CALLDATASIZE SWAP1 PUSH1 0x4 ADD PUSH2 0x3EF5 JUMP JUMPDEST SWAP1 PUSH2 0x2489 PUSH2 0x43B8 JUMP JUMPDEST SWAP3 PUSH1 0x40 MLOAD SWAP2 PUSH2 0x180 DUP4 ADD DUP4 DUP2 LT PUSH1 0x1 PUSH1 0x1 PUSH1 0x40 SHL SUB DUP3 GT OR PUSH2 0x1139 JUMPI PUSH1 0x40 MSTORE DUP7 DUP4 MSTORE DUP6 PUSH1 0x20 DUP5 ADD MSTORE PUSH1 0x40 DUP4 ADD MSTORE PUSH1 0xFF PUSH1 0x20 SWAP8 PUSH1 0x40 MLOAD PUSH2 0x24C8 DUP11 DUP3 PUSH2 0x3CDA JUMP JUMPDEST PUSH1 0x0 DUP2 MSTORE PUSH1 0x60 DUP6 ADD MSTORE AND SWAP4 DUP5 PUSH1 0x80 DUP5 ADD MSTORE DUP2 PUSH1 0xA0 DUP5 ADD MSTORE DUP4 PUSH1 0xC0 DUP5 ADD MSTORE PUSH1 0x0 PUSH1 0xE0 DUP5 ADD MSTORE TIMESTAMP PUSH2 0x100 DUP5 ADD MSTORE PUSH1 0x0 PUSH2 0x120 DUP5 ADD MSTORE PUSH1 0x0 PUSH2 0x140 DUP5 ADD MSTORE PUSH2 0x160 DUP4 ADD MSTORE PUSH2 0x2532 DUP3 PUSH1 0x40 MLOAD DUP10 DUP2 DUP2 PUSH2 0x2523 DUP13 DUP4 DUP2 MLOAD SWAP4 DUP5 SWAP3 ADD PUSH2 0x3D9F JUMP JUMPDEST DUP2 ADD PUSH1 0xF DUP2 MSTORE SUB ADD SWAP1 KECCAK256 PUSH2 0x4D65 JUMP JUMPDEST PUSH1 0x4 SLOAD PUSH1 0x1 PUSH1 0x40 SHL DUP2 LT ISZERO PUSH2 0x1139 JUMPI DUP1 PUSH1 0x1 PUSH2 0x2551 SWAP3 ADD PUSH1 0x4 SSTORE PUSH2 0x3C34 JUMP JUMPDEST SWAP3 SWAP1 SWAP3 PUSH2 0x123A JUMPI PUSH32 0x292BBB6D1836D1C84F14BC8632586C9CDC3B938748D1A94348313CE41A295199 SWAP8 PUSH2 0x25A6 SWAP8 PUSH2 0x25D3 SWAP7 PUSH2 0x2592 PUSH2 0x25B7 SWAP5 PUSH2 0x25C5 SWAP8 PUSH2 0x4D65 JUMP JUMPDEST PUSH1 0x40 MLOAD SWAP10 DUP11 SWAP10 PUSH1 0xC0 DUP12 MSTORE PUSH1 0xC0 DUP12 ADD SWAP1 PUSH2 0x3DC2 JUMP JUMPDEST SWAP3 DUP10 ADD MSTORE DUP8 DUP3 SUB PUSH1 0x40 DUP10 ADD MSTORE PUSH2 0x3DC2 JUMP JUMPDEST SWAP1 DUP6 DUP3 SUB PUSH1 0x60 DUP8 ADD MSTORE PUSH2 0x3DC2 JUMP JUMPDEST SWAP1 DUP4 DUP3 SUB PUSH1 0x80 DUP6 ADD MSTORE PUSH2 0x3DC2 JUMP JUMPDEST TIMESTAMP PUSH1 0xA0 DUP4 ADD MSTORE SUB SWAP1 LOG1 STOP JUMPDEST CALLVALUE PUSH2 0x3D0 JUMPI PUSH1 0x40 CALLDATASIZE PUSH1 0x3 NOT ADD SLT PUSH2 0x3D0 JUMPI PUSH1 0x4 CALLDATALOAD PUSH1 0x1 PUSH1 0x1 PUSH1 0x40 SHL SUB DUP2 GT PUSH2 0x3D0 JUMPI PUSH2 0x260E SWAP1 CALLDATASIZE SWAP1 PUSH1 0x4 ADD PUSH2 0x3EF5 JUMP JUMPDEST PUSH1 0x24 CALLDATALOAD PUSH1 0x1 PUSH1 0x1 PUSH1 0x40 SHL SUB DUP2 GT PUSH2 0x3D0 JUMPI PUSH2 0x262D SWAP1 CALLDATASIZE SWAP1 PUSH1 0x4 ADD PUSH2 0x3EF5 JUMP JUMPDEST SWAP1 PUSH1 0x40 MLOAD SWAP2 PUSH2 0x264F PUSH2 0x1F0 PUSH1 0x2 DUP5 MLOAD SWAP6 PUSH1 0x20 DUP2 DUP2 DUP9 ADD SWAP9 PUSH2 0x1E2B DUP2 DUP4 DUP13 PUSH2 0x3D9F JUMP JUMPDEST PUSH1 0x40 MLOAD PUSH1 0x20 DUP2 DUP5 MLOAD PUSH2 0x2662 DUP2 DUP4 DUP10 PUSH2 0x3D9F JUMP JUMPDEST DUP2 ADD PUSH1 0xE DUP2 MSTORE SUB ADD SWAP1 KECCAK256 SWAP1 PUSH1 0x40 MLOAD SWAP3 DUP2 MLOAD SWAP4 PUSH1 0x20 DUP2 DUP2 DUP6 ADD SWAP7 PUSH2 0x2686 DUP2 DUP4 DUP11 PUSH2 0x3D9F JUMP JUMPDEST DUP2 ADD PUSH1 0xF DUP2 MSTORE SUB ADD SWAP1 KECCAK256 SWAP2 PUSH1 0x6 DUP5 ADD SWAP1 PUSH2 0x26A3 DUP3 PUSH1 0xB DUP7 ADD PUSH2 0x4CB4 JUMP JUMPDEST PUSH1 0x3 DUP5 ADD DUP4 MLOAD PUSH1 0x1 PUSH1 0x1 PUSH1 0x40 SHL SUB DUP2 GT PUSH2 0x1139 JUMPI PUSH2 0x26C5 DUP2 PUSH2 0x981 DUP5 SLOAD PUSH2 0x3C69 JUMP JUMPDEST PUSH1 0x20 PUSH1 0x1F DUP3 GT PUSH1 0x1 EQ PUSH2 0x2B9E JUMPI SWAP1 DUP1 PUSH2 0x26F3 SWAP3 PUSH1 0x0 SWAP2 PUSH2 0x2B93 JUMPI POP DUP2 PUSH1 0x1 SHL SWAP2 PUSH1 0x0 NOT SWAP1 PUSH1 0x3 SHL SHR NOT AND OR SWAP1 JUMP JUMPDEST SWAP1 SSTORE JUMPDEST PUSH1 0x7 DUP5 ADD DUP1 SLOAD PUSH1 0xFF NOT AND PUSH1 0x1 OR SWAP1 SSTORE TIMESTAMP PUSH1 0x9 DUP6 ADD SSTORE PUSH1 0x0 PUSH1 0xA DUP6 ADD SSTORE PUSH2 0x271A PUSH2 0x43B8 JUMP JUMPDEST PUSH1 0x20 DUP2 MLOAD SWAP2 PUSH2 0x2729 DUP4 DUP7 PUSH2 0x4B40 JUMP JUMPDEST ADD SWAP1 DUP4 PUSH1 0x0 MSTORE PUSH1 0x20 PUSH1 0x0 KECCAK256 SWAP2 PUSH1 0x0 SWAP1 JUMPDEST DUP3 DUP3 LT PUSH2 0x2ABE JUMPI POP POP POP POP PUSH1 0x4 DUP6 ADD DUP1 SLOAD PUSH1 0xFF NOT AND SWAP1 SSTORE PUSH1 0x0 JUMPDEST PUSH1 0x4 SLOAD DUP2 LT ISZERO PUSH2 0x2AB2 JUMPI PUSH2 0x2766 DUP2 PUSH2 0x3C34 JUMP JUMPDEST POP PUSH1 0x40 MLOAD PUSH2 0x277C DUP2 PUSH2 0x4FF PUSH1 0x20 DUP3 ADD DUP1 SWAP6 PUSH2 0x4920 JUMP JUMPDEST MLOAD SWAP1 KECCAK256 PUSH2 0x52B PUSH1 0x40 MLOAD PUSH2 0x279C PUSH1 0x20 DUP3 DUP13 DUP3 DUP3 ADD SWAP6 DUP7 SWAP2 DUP11 MLOAD SWAP3 DUP4 SWAP2 PUSH2 0x3D9F JUMP JUMPDEST MLOAD SWAP1 KECCAK256 EQ PUSH2 0x27AC JUMPI PUSH1 0x1 ADD PUSH2 0x2753 JUMP JUMPDEST SWAP3 SWAP4 SWAP5 SWAP6 POP POP PUSH2 0x27C8 SWAP1 PUSH1 0xB PUSH2 0x27C1 DUP5 PUSH2 0x3C34 JUMP JUMPDEST POP ADD PUSH2 0x4CB4 JUMP JUMPDEST PUSH1 0x3 PUSH2 0x27D3 DUP3 PUSH2 0x3C34 JUMP JUMPDEST POP ADD DUP3 MLOAD PUSH1 0x1 PUSH1 0x1 PUSH1 0x40 SHL SUB DUP2 GT PUSH2 0x1139 JUMPI PUSH2 0x27F3 DUP2 PUSH2 0x981 DUP5 SLOAD PUSH2 0x3C69 JUMP JUMPDEST PUSH1 0x20 PUSH1 0x1F DUP3 GT PUSH1 0x1 EQ PUSH2 0x2A46 JUMPI SWAP3 PUSH1 0xA SWAP3 PUSH2 0x2829 DUP4 PUSH2 0x2859 SWAP5 PUSH1 0x0 SWAP8 DUP9 SWAP2 PUSH2 0x2A3B JUMPI POP DUP2 PUSH1 0x1 SHL SWAP2 PUSH1 0x0 NOT SWAP1 PUSH1 0x3 SHL SHR NOT AND OR SWAP1 JUMP JUMPDEST SWAP1 SSTORE JUMPDEST PUSH1 0x7 PUSH2 0x2837 DUP3 PUSH2 0x3C34 JUMP JUMPDEST POP ADD DUP1 SLOAD PUSH1 0xFF NOT AND PUSH1 0x1 OR SWAP1 SSTORE PUSH2 0x284D DUP2 PUSH2 0x3C34 JUMP JUMPDEST POP PUSH1 0x9 TIMESTAMP SWAP2 ADD SSTORE PUSH2 0x3C34 JUMP JUMPDEST POP ADD SSTORE JUMPDEST PUSH1 0x0 JUMPDEST PUSH1 0x3 SLOAD DUP2 LT ISZERO PUSH2 0x2A23 JUMPI PUSH1 0x1 PUSH2 0x4FF PUSH2 0x287B PUSH2 0x4EB DUP5 PUSH2 0x4192 JUMP JUMPDEST MLOAD SWAP1 KECCAK256 PUSH1 0x40 MLOAD PUSH1 0x20 DUP2 ADD SWAP1 PUSH2 0x289B PUSH1 0x20 DUP3 DUP5 PUSH2 0x52B DUP13 DUP11 MLOAD SWAP3 DUP4 SWAP2 PUSH2 0x3D9F JUMP JUMPDEST MLOAD SWAP1 KECCAK256 EQ PUSH2 0x28AB JUMPI PUSH1 0x1 ADD PUSH2 0x2860 JUMP JUMPDEST SWAP4 POP POP PUSH1 0x4 PUSH2 0x28B9 DUP5 PUSH2 0x4192 JUMP JUMPDEST POP ADD DUP1 SLOAD PUSH1 0xFF NOT AND SWAP1 SSTORE PUSH1 0x6 PUSH2 0x28D6 PUSH2 0x28D0 PUSH2 0x43B8 JUMP JUMPDEST SWAP5 PUSH2 0x4192 JUMP JUMPDEST POP ADD SWAP3 PUSH1 0x20 DUP2 MLOAD SWAP2 PUSH2 0x28E8 DUP4 DUP8 PUSH2 0x4B40 JUMP JUMPDEST ADD SWAP4 PUSH1 0x0 MSTORE PUSH1 0x20 PUSH1 0x0 KECCAK256 SWAP4 PUSH1 0x0 SWAP1 JUMPDEST DUP3 DUP3 LT PUSH2 0x293D JUMPI POP POP POP PUSH1 0x0 DUP1 MLOAD PUSH1 0x20 PUSH2 0x5E9B DUP4 CODECOPY DUP2 MLOAD SWAP2 MSTORE SWAP3 POP JUMPDEST PUSH2 0x169E PUSH1 0xFF PUSH1 0x4 DUP4 ADD SLOAD AND SWAP3 PUSH1 0x40 MLOAD SWAP4 DUP5 SWAP4 TIMESTAMP SWAP3 PUSH1 0x5 DUP3 ADD SWAP2 PUSH1 0x1 DUP1 PUSH1 0x6 DUP4 ADD SWAP4 ADD SWAP2 ADD DUP8 PUSH2 0x4D09 JUMP JUMPDEST DUP1 MLOAD DUP1 MLOAD SWAP1 PUSH1 0x1 PUSH1 0x1 PUSH1 0x40 SHL SUB DUP3 GT PUSH2 0x1139 JUMPI PUSH2 0x2964 DUP3 PUSH2 0x295E DUP11 SLOAD PUSH2 0x3C69 JUMP JUMPDEST DUP11 PUSH2 0x4A78 JUMP JUMPDEST PUSH1 0x20 SWAP1 PUSH1 0x1F DUP4 GT PUSH1 0x1 EQ PUSH2 0x29B6 JUMPI SWAP3 PUSH2 0x299C DUP4 PUSH1 0x1 SWAP6 SWAP5 PUSH1 0x20 SWAP5 DUP8 SWAP7 PUSH1 0x0 SWAP3 PUSH2 0x29AB JUMPI POP POP DUP2 PUSH1 0x1 SHL SWAP2 PUSH1 0x0 NOT SWAP1 PUSH1 0x3 SHL SHR NOT AND OR SWAP1 JUMP JUMPDEST DUP10 SSTORE JUMPDEST ADD SWAP7 ADD SWAP2 ADD SWAP1 SWAP5 PUSH2 0x28F7 JUMP JUMPDEST ADD MLOAD SWAP1 POP DUP13 DUP1 PUSH2 0x9AB JUMP JUMPDEST SWAP1 PUSH1 0x1F NOT DUP4 AND SWAP2 DUP10 PUSH1 0x0 MSTORE DUP2 PUSH1 0x0 KECCAK256 SWAP3 PUSH1 0x0 JUMPDEST DUP2 DUP2 LT PUSH2 0x2A0B JUMPI POP SWAP4 PUSH1 0x20 SWAP4 PUSH1 0x1 SWAP7 SWAP4 DUP8 SWAP7 SWAP4 DUP4 DUP9 SWAP6 LT PUSH2 0x29F2 JUMPI JUMPDEST POP POP POP DUP2 SHL ADD DUP10 SSTORE PUSH2 0x299F JUMP JUMPDEST ADD MLOAD PUSH1 0x0 NOT PUSH1 0xF8 DUP5 PUSH1 0x3 SHL AND SHR NOT AND SWAP1 SSTORE DUP12 DUP1 DUP1 PUSH2 0x29E5 JUMP JUMPDEST SWAP3 SWAP4 PUSH1 0x20 PUSH1 0x1 DUP2 SWAP3 DUP8 DUP7 ADD MLOAD DUP2 SSTORE ADD SWAP6 ADD SWAP4 ADD PUSH2 0x29C9 JUMP JUMPDEST POP POP PUSH1 0x0 DUP1 MLOAD PUSH1 0x20 PUSH2 0x5E9B DUP4 CODECOPY DUP2 MLOAD SWAP2 MSTORE SWAP3 POP PUSH2 0x2913 JUMP JUMPDEST SWAP1 POP DUP9 ADD MLOAD DUP13 PUSH2 0xA16 JUMP JUMPDEST PUSH1 0x1F NOT DUP3 AND SWAP1 DUP4 PUSH1 0x0 MSTORE DUP1 PUSH1 0x0 KECCAK256 SWAP2 PUSH1 0x0 JUMPDEST DUP2 DUP2 LT PUSH2 0x2A9A JUMPI POP DUP4 PUSH1 0x0 SWAP7 SWAP4 PUSH1 0xA SWAP7 SWAP4 PUSH2 0x2859 SWAP7 PUSH1 0x1 SWAP5 LT PUSH2 0x2A82 JUMPI JUMPDEST POP POP DUP2 SHL ADD SWAP1 SSTORE PUSH2 0x282C JUMP JUMPDEST DUP10 ADD MLOAD DUP9 NOT PUSH1 0xF8 DUP5 PUSH1 0x3 SHL AND SHR NOT AND SWAP1 SSTORE DUP12 DUP1 PUSH2 0x2A76 JUMP JUMPDEST SWAP2 SWAP3 PUSH1 0x20 PUSH1 0x1 DUP2 SWAP3 DUP7 DUP12 ADD MLOAD DUP2 SSTORE ADD SWAP5 ADD SWAP3 ADD PUSH2 0x2A58 JUMP JUMPDEST POP POP POP SWAP1 SWAP2 SWAP3 POP PUSH2 0x285D JUMP JUMPDEST DUP1 MLOAD DUP1 MLOAD SWAP1 PUSH1 0x1 PUSH1 0x1 PUSH1 0x40 SHL SUB DUP3 GT PUSH2 0x1139 JUMPI PUSH2 0x2ADF DUP3 PUSH2 0x16C4 DUP9 SLOAD PUSH2 0x3C69 JUMP JUMPDEST PUSH1 0x20 SWAP1 PUSH1 0x1F DUP4 GT PUSH1 0x1 EQ PUSH2 0x2B26 JUMPI SWAP3 PUSH2 0x2B17 DUP4 PUSH1 0x1 SWAP6 SWAP5 PUSH1 0x20 SWAP5 DUP8 SWAP7 PUSH1 0x0 SWAP3 PUSH2 0x1826 JUMPI POP POP DUP2 PUSH1 0x1 SHL SWAP2 PUSH1 0x0 NOT SWAP1 PUSH1 0x3 SHL SHR NOT AND OR SWAP1 JUMP JUMPDEST DUP8 SSTORE JUMPDEST ADD SWAP5 ADD SWAP2 ADD SWAP1 SWAP3 PUSH2 0x2739 JUMP JUMPDEST SWAP1 PUSH1 0x1F NOT DUP4 AND SWAP2 DUP8 PUSH1 0x0 MSTORE DUP2 PUSH1 0x0 KECCAK256 SWAP3 PUSH1 0x0 JUMPDEST DUP2 DUP2 LT PUSH2 0x2B7B JUMPI POP SWAP4 PUSH1 0x20 SWAP4 PUSH1 0x1 SWAP7 SWAP4 DUP8 SWAP7 SWAP4 DUP4 DUP9 SWAP6 LT PUSH2 0x2B62 JUMPI JUMPDEST POP POP POP DUP2 SHL ADD DUP8 SSTORE PUSH2 0x2B1A JUMP JUMPDEST ADD MLOAD PUSH1 0x0 NOT PUSH1 0xF8 DUP5 PUSH1 0x3 SHL AND SHR NOT AND SWAP1 SSTORE CODESIZE DUP1 DUP1 PUSH2 0x2B55 JUMP JUMPDEST SWAP3 SWAP4 PUSH1 0x20 PUSH1 0x1 DUP2 SWAP3 DUP8 DUP7 ADD MLOAD DUP2 SSTORE ADD SWAP6 ADD SWAP4 ADD PUSH2 0x2B39 JUMP JUMPDEST SWAP1 POP DUP7 ADD MLOAD DUP12 PUSH2 0xA16 JUMP JUMPDEST PUSH1 0x1F NOT DUP3 AND SWAP1 DUP4 PUSH1 0x0 MSTORE DUP1 PUSH1 0x0 KECCAK256 SWAP2 PUSH1 0x0 JUMPDEST DUP2 DUP2 LT PUSH2 0x2BEA JUMPI POP SWAP1 DUP4 PUSH1 0x1 SWAP5 SWAP4 SWAP3 LT PUSH2 0x2BD1 JUMPI JUMPDEST POP POP DUP2 SHL ADD SWAP1 SSTORE PUSH2 0x26F6 JUMP JUMPDEST DUP8 ADD MLOAD PUSH1 0x0 NOT PUSH1 0xF8 DUP5 PUSH1 0x3 SHL AND SHR NOT AND SWAP1 SSTORE DUP11 DUP1 PUSH2 0x2BC5 JUMP JUMPDEST SWAP2 SWAP3 PUSH1 0x20 PUSH1 0x1 DUP2 SWAP3 DUP7 DUP13 ADD MLOAD DUP2 SSTORE ADD SWAP5 ADD SWAP3 ADD PUSH2 0x2BB0 JUMP JUMPDEST CALLVALUE PUSH2 0x3D0 JUMPI PUSH1 0x20 CALLDATASIZE PUSH1 0x3 NOT ADD SLT PUSH2 0x3D0 JUMPI PUSH1 0x4 CALLDATALOAD PUSH1 0x1 PUSH1 0x1 PUSH1 0x40 SHL SUB DUP2 GT PUSH2 0x3D0 JUMPI PUSH1 0x20 PUSH2 0x410 PUSH2 0x2C37 SWAP3 CALLDATASIZE SWAP1 PUSH1 0x4 ADD PUSH2 0x3EF5 JUMP JUMPDEST DUP2 ADD PUSH1 0xF DUP2 MSTORE SUB ADD SWAP1 KECCAK256 PUSH2 0x2C4A DUP2 PUSH2 0x3CFB JUMP JUMPDEST PUSH2 0x3CC PUSH2 0x2C59 PUSH1 0x1 DUP5 ADD PUSH2 0x3CFB JUMP JUMPDEST SWAP3 PUSH2 0x2C66 PUSH1 0x2 DUP3 ADD PUSH2 0x3CFB JUMP JUMPDEST SWAP1 PUSH2 0x2C73 PUSH1 0x3 DUP3 ADD PUSH2 0x3CFB JUMP JUMPDEST PUSH1 0xFF PUSH1 0x4 DUP4 ADD SLOAD AND PUSH2 0x2C87 PUSH1 0x5 DUP5 ADD PUSH2 0x3CFB JUMP JUMPDEST PUSH2 0x2C93 PUSH1 0x6 DUP6 ADD PUSH2 0x3CFB JUMP JUMPDEST SWAP1 PUSH1 0xFF PUSH1 0x7 DUP7 ADD SLOAD AND SWAP3 PUSH1 0x8 DUP7 ADD SLOAD SWAP5 PUSH1 0xA PUSH1 0x9 DUP9 ADD SLOAD SWAP8 ADD SLOAD SWAP8 PUSH1 0x40 MLOAD SWAP12 DUP13 SWAP12 DUP13 PUSH2 0x3DF1 JUMP JUMPDEST CALLVALUE PUSH2 0x3D0 JUMPI PUSH1 0x20 CALLDATASIZE PUSH1 0x3 NOT ADD SLT PUSH2 0x3D0 JUMPI PUSH1 0x4 CALLDATALOAD PUSH1 0x3 SLOAD DUP2 LT ISZERO PUSH2 0x3D0 JUMPI PUSH2 0x2CE1 SWAP1 PUSH2 0x4192 JUMP JUMPDEST POP PUSH1 0xFF DUP2 SLOAD AND PUSH2 0x3CC PUSH2 0x19FD PUSH1 0x1 DUP5 ADD PUSH2 0x3CFB JUMP JUMPDEST CALLVALUE PUSH2 0x3D0 JUMPI PUSH1 0xA0 CALLDATASIZE PUSH1 0x3 NOT ADD SLT PUSH2 0x3D0 JUMPI PUSH1 0x4 CALLDATALOAD PUSH1 0x1 PUSH1 0x1 PUSH1 0x40 SHL SUB DUP2 GT PUSH2 0x3D0 JUMPI PUSH2 0x2D26 SWAP1 CALLDATASIZE SWAP1 PUSH1 0x4 ADD PUSH2 0x3EF5 JUMP JUMPDEST PUSH1 0x24 CALLDATALOAD SWAP1 PUSH1 0x1 PUSH1 0x1 PUSH1 0xA0 SHL SUB DUP3 AND DUP3 SUB PUSH2 0x3D0 JUMPI PUSH1 0x44 CALLDATALOAD PUSH1 0x1 PUSH1 0x1 PUSH1 0x40 SHL SUB DUP2 GT PUSH2 0x3D0 JUMPI PUSH2 0x2D59 SWAP1 CALLDATASIZE SWAP1 PUSH1 0x4 ADD PUSH2 0x3EF5 JUMP JUMPDEST SWAP1 PUSH1 0x64 CALLDATALOAD PUSH1 0x1 PUSH1 0x1 PUSH1 0x40 SHL SUB DUP2 GT PUSH2 0x3D0 JUMPI PUSH2 0x2D79 SWAP1 CALLDATASIZE SWAP1 PUSH1 0x4 ADD PUSH2 0x3EF5 JUMP JUMPDEST SWAP1 PUSH1 0x84 CALLDATALOAD PUSH1 0x1 PUSH1 0x1 PUSH1 0x40 SHL SUB DUP2 GT PUSH2 0x3D0 JUMPI PUSH2 0x2D99 SWAP1 CALLDATASIZE SWAP1 PUSH1 0x4 ADD PUSH2 0x3EF5 JUMP JUMPDEST PUSH1 0x0 SLOAD PUSH1 0x40 MLOAD PUSH4 0x95A8C58D PUSH1 0xE0 SHL DUP2 MSTORE CALLER PUSH1 0x4 DUP3 ADD MSTORE PUSH1 0x2 PUSH1 0x24 DUP3 ADD MSTORE SWAP2 SWAP4 SWAP2 SWAP1 PUSH1 0x20 SWAP1 DUP3 SWAP1 PUSH1 0x44 SWAP1 DUP3 SWAP1 PUSH1 0x1 PUSH1 0x1 PUSH1 0xA0 SHL SUB AND GAS STATICCALL SWAP1 DUP2 ISZERO PUSH2 0x127F JUMPI PUSH1 0x0 SWAP2 PUSH2 0x33A7 JUMPI JUMPDEST POP ISZERO PUSH2 0x3362 JUMPI PUSH1 0x40 MLOAD SWAP4 DUP3 MLOAD SWAP5 PUSH1 0x20 DUP2 DUP2 DUP7 ADD SWAP8 PUSH2 0x2DFD DUP2 DUP4 DUP12 PUSH2 0x3D9F JUMP JUMPDEST DUP2 ADD PUSH1 0xC DUP2 MSTORE SUB ADD SWAP1 KECCAK256 SWAP6 PUSH1 0x6 DUP8 ADD DUP1 SLOAD PUSH1 0x1 PUSH1 0xFF DUP3 PUSH1 0x8 SHR AND PUSH2 0x2E20 DUP2 PUSH2 0x3DE7 JUMP JUMPDEST SUB PUSH2 0x3307 JUMPI TIMESTAMP PUSH1 0x8 DUP11 ADD SSTORE PUSH2 0xFF00 NOT AND PUSH2 0x200 OR SWAP1 SSTORE DUP5 MLOAD PUSH1 0x9 DUP9 ADD SWAP1 PUSH1 0x1 PUSH1 0x1 PUSH1 0x40 SHL SUB DUP2 GT PUSH2 0x1139 JUMPI PUSH2 0x2E59 DUP2 PUSH2 0x981 DUP5 SLOAD PUSH2 0x3C69 JUMP JUMPDEST PUSH1 0x20 PUSH1 0x1F DUP3 GT PUSH1 0x1 EQ PUSH2 0x32A1 JUMPI SWAP1 DUP1 PUSH2 0x2E87 SWAP3 PUSH1 0x0 SWAP2 PUSH2 0x3296 JUMPI POP DUP2 PUSH1 0x1 SHL SWAP2 PUSH1 0x0 NOT SWAP1 PUSH1 0x3 SHL SHR NOT AND OR SWAP1 JUMP JUMPDEST SWAP1 SSTORE JUMPDEST PUSH1 0x40 MLOAD PUSH1 0x20 DUP2 DUP7 MLOAD PUSH2 0x2E9D DUP2 DUP4 DUP13 PUSH2 0x3D9F JUMP JUMPDEST DUP2 ADD PUSH1 0x5 DUP2 MSTORE SUB ADD SWAP1 KECCAK256 SWAP1 PUSH1 0x1 DUP1 PUSH1 0xA0 SHL SUB AND PUSH12 0xFFFFFFFFFFFFFFFFFFFFFFFF PUSH1 0xA0 SHL DUP3 SLOAD AND OR SWAP1 SSTORE PUSH1 0x40 MLOAD PUSH1 0x20 DUP2 DUP6 MLOAD PUSH2 0x2ED9 DUP2 DUP4 DUP12 PUSH2 0x3D9F JUMP JUMPDEST DUP2 ADD PUSH1 0x6 DUP2 MSTORE SUB ADD SWAP1 KECCAK256 SWAP1 DUP1 MLOAD SWAP1 PUSH1 0x1 PUSH1 0x1 PUSH1 0x40 SHL SUB DUP3 GT PUSH2 0x1139 JUMPI PUSH2 0x2F09 DUP3 PUSH2 0x2F03 DUP6 SLOAD PUSH2 0x3C69 JUMP JUMPDEST DUP6 PUSH2 0x4A78 JUMP JUMPDEST PUSH1 0x20 SWAP1 PUSH1 0x1F DUP4 GT PUSH1 0x1 EQ PUSH2 0x322F JUMPI PUSH2 0x2F39 SWAP3 SWAP2 PUSH1 0x0 SWAP2 DUP4 PUSH2 0x3224 JUMPI POP POP DUP2 PUSH1 0x1 SHL SWAP2 PUSH1 0x0 NOT SWAP1 PUSH1 0x3 SHL SHR NOT AND OR SWAP1 JUMP JUMPDEST SWAP1 SSTORE JUMPDEST PUSH1 0x40 MLOAD PUSH1 0x20 DUP2 DUP5 MLOAD PUSH2 0x2F4F DUP2 DUP4 DUP11 PUSH2 0x3D9F JUMP JUMPDEST DUP2 ADD PUSH1 0x7 DUP2 MSTORE SUB ADD SWAP1 KECCAK256 SWAP1 DUP1 MLOAD SWAP1 PUSH1 0x1 PUSH1 0x1 PUSH1 0x40 SHL SUB DUP3 GT PUSH2 0x1139 JUMPI PUSH2 0x2F79 DUP3 PUSH2 0x2F03 DUP6 SLOAD PUSH2 0x3C69 JUMP JUMPDEST PUSH1 0x20 SWAP1 PUSH1 0x1F DUP4 GT PUSH1 0x1 EQ PUSH2 0x31BD JUMPI PUSH2 0x2FA9 SWAP3 SWAP2 PUSH1 0x0 SWAP2 DUP4 PUSH2 0x31B2 JUMPI POP POP DUP2 PUSH1 0x1 SHL SWAP2 PUSH1 0x0 NOT SWAP1 PUSH1 0x3 SHL SHR NOT AND OR SWAP1 JUMP JUMPDEST SWAP1 SSTORE JUMPDEST PUSH1 0x0 JUMPDEST PUSH1 0x2 SLOAD DUP2 LT ISZERO PUSH2 0x3181 JUMPI PUSH2 0x2FC2 DUP2 PUSH2 0x4173 JUMP JUMPDEST POP PUSH1 0x40 MLOAD PUSH2 0x2FD8 DUP2 PUSH2 0x4FF PUSH1 0x20 DUP3 ADD DUP1 SWAP6 PUSH2 0x4920 JUMP JUMPDEST MLOAD SWAP1 KECCAK256 PUSH1 0x40 MLOAD PUSH1 0x20 DUP2 ADD SWAP1 PUSH2 0x2FF6 PUSH1 0x20 DUP3 DUP8 MLOAD PUSH2 0x52B DUP2 DUP8 DUP14 PUSH2 0x3D9F JUMP JUMPDEST MLOAD SWAP1 KECCAK256 EQ PUSH2 0x3006 JUMPI PUSH1 0x1 ADD PUSH2 0x2FAF JUMP JUMPDEST PUSH1 0x9 SWAP3 SWAP4 POP PUSH2 0x303F SWAP2 POP PUSH2 0x3019 DUP2 PUSH2 0x4173 JUMP JUMPDEST POP PUSH1 0x8 TIMESTAMP SWAP2 ADD SSTORE PUSH1 0x6 PUSH2 0x302B DUP3 PUSH2 0x4173 JUMP JUMPDEST POP ADD DUP1 SLOAD PUSH2 0xFF00 NOT AND PUSH2 0x200 OR SWAP1 SSTORE PUSH2 0x4173 JUMP JUMPDEST POP ADD SWAP2 DUP2 MLOAD SWAP3 PUSH1 0x1 PUSH1 0x1 PUSH1 0x40 SHL SUB DUP5 GT PUSH2 0x1139 JUMPI PUSH2 0x3067 DUP5 PUSH2 0x3061 DUP4 SLOAD PUSH2 0x3C69 JUMP JUMPDEST DUP4 PUSH2 0x4A78 JUMP JUMPDEST PUSH1 0x20 SWAP4 PUSH1 0x1F DUP2 GT PUSH1 0x1 EQ PUSH2 0x30F3 JUMPI SWAP2 PUSH2 0x169E SWAP2 PUSH2 0x30C0 DUP5 PUSH2 0x30D9 SWAP7 SWAP6 PUSH32 0x489F165B733603CB0A992D8CAFD6C42A0C13D169039003F751758B9F0019F26C SWAP9 PUSH1 0x0 SWAP2 PUSH2 0x30E8 JUMPI POP DUP2 PUSH1 0x1 SHL SWAP2 PUSH1 0x0 NOT SWAP1 PUSH1 0x3 SHL SHR NOT AND OR SWAP1 JUMP JUMPDEST SWAP1 SSTORE JUMPDEST PUSH1 0x2 PUSH1 0x40 MLOAD SWAP5 DUP6 SWAP5 PUSH1 0x40 DUP7 MSTORE PUSH1 0x40 DUP7 ADD SWAP1 PUSH2 0x3DC2 JUMP JUMPDEST SWAP2 DUP5 DUP4 SUB PUSH1 0x20 DUP7 ADD MSTORE ADD PUSH2 0x4ABD JUMP JUMPDEST SWAP1 POP DUP7 ADD MLOAD DUP10 PUSH2 0xA16 JUMP JUMPDEST PUSH1 0x1F NOT DUP2 AND SWAP5 DUP3 PUSH1 0x0 MSTORE DUP1 PUSH1 0x0 KECCAK256 SWAP6 PUSH1 0x0 JUMPDEST DUP2 DUP2 LT PUSH2 0x3169 JUMPI POP DUP3 PUSH32 0x489F165B733603CB0A992D8CAFD6C42A0C13D169039003F751758B9F0019F26C SWAP8 PUSH2 0x169E SWAP6 SWAP4 PUSH2 0x30D9 SWAP9 SWAP8 SWAP6 PUSH1 0x1 SWAP5 LT PUSH2 0x3150 JUMPI JUMPDEST POP POP DUP2 SHL ADD SWAP1 SSTORE PUSH2 0x30C3 JUMP JUMPDEST DUP8 ADD MLOAD PUSH1 0x0 NOT PUSH1 0xF8 DUP5 PUSH1 0x3 SHL AND SHR NOT AND SWAP1 SSTORE DUP9 DUP1 PUSH2 0x3144 JUMP JUMPDEST DUP7 DUP4 ADD MLOAD DUP9 SSTORE PUSH1 0x1 SWAP1 SWAP8 ADD SWAP7 PUSH1 0x20 SWAP3 DUP4 ADD SWAP3 ADD PUSH2 0x3105 JUMP JUMPDEST POP POP PUSH2 0x30D9 SWAP2 POP PUSH2 0x169E PUSH32 0x489F165B733603CB0A992D8CAFD6C42A0C13D169039003F751758B9F0019F26C SWAP4 PUSH2 0x30C3 JUMP JUMPDEST ADD MLOAD SWAP1 POP DUP9 DUP1 PUSH2 0x9AB JUMP JUMPDEST SWAP1 PUSH1 0x1F NOT DUP4 AND SWAP2 DUP5 PUSH1 0x0 MSTORE DUP2 PUSH1 0x0 KECCAK256 SWAP3 PUSH1 0x0 JUMPDEST DUP2 DUP2 LT PUSH2 0x320C JUMPI POP SWAP1 DUP5 PUSH1 0x1 SWAP6 SWAP5 SWAP4 SWAP3 LT PUSH2 0x31F3 JUMPI JUMPDEST POP POP POP DUP2 SHL ADD SWAP1 SSTORE PUSH2 0x2FAC JUMP JUMPDEST ADD MLOAD PUSH1 0x0 NOT PUSH1 0xF8 DUP5 PUSH1 0x3 SHL AND SHR NOT AND SWAP1 SSTORE DUP8 DUP1 DUP1 PUSH2 0x31E6 JUMP JUMPDEST SWAP3 SWAP4 PUSH1 0x20 PUSH1 0x1 DUP2 SWAP3 DUP8 DUP7 ADD MLOAD DUP2 SSTORE ADD SWAP6 ADD SWAP4 ADD PUSH2 0x31D0 JUMP JUMPDEST ADD MLOAD SWAP1 POP DUP10 DUP1 PUSH2 0x9AB JUMP JUMPDEST SWAP1 PUSH1 0x1F NOT DUP4 AND SWAP2 DUP5 PUSH1 0x0 MSTORE DUP2 PUSH1 0x0 KECCAK256 SWAP3 PUSH1 0x0 JUMPDEST DUP2 DUP2 LT PUSH2 0x327E JUMPI POP SWAP1 DUP5 PUSH1 0x1 SWAP6 SWAP5 SWAP4 SWAP3 LT PUSH2 0x3265 JUMPI JUMPDEST POP POP POP DUP2 SHL ADD SWAP1 SSTORE PUSH2 0x2F3C JUMP JUMPDEST ADD MLOAD PUSH1 0x0 NOT PUSH1 0xF8 DUP5 PUSH1 0x3 SHL AND SHR NOT AND SWAP1 SSTORE DUP9 DUP1 DUP1 PUSH2 0x3258 JUMP JUMPDEST SWAP3 SWAP4 PUSH1 0x20 PUSH1 0x1 DUP2 SWAP3 DUP8 DUP7 ADD MLOAD DUP2 SSTORE ADD SWAP6 ADD SWAP4 ADD PUSH2 0x3242 JUMP JUMPDEST SWAP1 POP DUP9 ADD MLOAD DUP12 PUSH2 0xA16 JUMP JUMPDEST PUSH1 0x1F NOT DUP3 AND SWAP1 DUP4 PUSH1 0x0 MSTORE DUP1 PUSH1 0x0 KECCAK256 SWAP2 PUSH1 0x0 JUMPDEST DUP11 DUP3 DUP3 LT PUSH2 0x32EF JUMPI POP POP SWAP1 DUP4 PUSH1 0x1 SWAP5 SWAP4 SWAP3 LT PUSH2 0x32D6 JUMPI JUMPDEST POP POP DUP2 SHL ADD SWAP1 SSTORE PUSH2 0x2E8A JUMP JUMPDEST DUP10 ADD MLOAD PUSH1 0x0 NOT PUSH1 0xF8 DUP5 PUSH1 0x3 SHL AND SHR NOT AND SWAP1 SSTORE DUP11 DUP1 PUSH2 0x32CA JUMP JUMPDEST PUSH1 0x1 DUP5 SWAP6 PUSH1 0x20 SWAP4 SWAP6 DUP5 SWAP4 ADD MLOAD DUP2 SSTORE ADD SWAP5 ADD SWAP3 ADD PUSH2 0x32B3 JUMP JUMPDEST PUSH1 0x40 MLOAD PUSH3 0x461BCD PUSH1 0xE5 SHL DUP2 MSTORE PUSH1 0x20 PUSH1 0x4 DUP3 ADD MSTORE PUSH1 0x2D PUSH1 0x24 DUP3 ADD MSTORE PUSH32 0x4F62617420547261646973696F6E616C20737461747573206D75737420626520 PUSH1 0x44 DUP3 ADD MSTORE PUSH13 0x5265717565737465644E494521 PUSH1 0x98 SHL PUSH1 0x64 DUP3 ADD MSTORE PUSH1 0x84 SWAP1 REVERT JUMPDEST PUSH1 0x40 MLOAD PUSH3 0x461BCD PUSH1 0xE5 SHL DUP2 MSTORE PUSH1 0x20 PUSH1 0x4 DUP3 ADD MSTORE PUSH1 0x1E PUSH1 0x24 DUP3 ADD MSTORE PUSH32 0x416363657373207265737472696374656420746F2042504F4D20726F6C650000 PUSH1 0x44 DUP3 ADD MSTORE PUSH1 0x64 SWAP1 REVERT JUMPDEST PUSH2 0x33C0 SWAP2 POP PUSH1 0x20 RETURNDATASIZE PUSH1 0x20 GT PUSH2 0x1278 JUMPI PUSH2 0x126A DUP2 DUP4 PUSH2 0x3CDA JUMP JUMPDEST DUP7 PUSH2 0x2DDE JUMP JUMPDEST CALLVALUE PUSH2 0x3D0 JUMPI PUSH1 0x20 CALLDATASIZE PUSH1 0x3 NOT ADD SLT PUSH2 0x3D0 JUMPI PUSH1 0x4 CALLDATALOAD PUSH1 0x2 SLOAD DUP2 LT ISZERO PUSH2 0x3D0 JUMPI PUSH2 0x33ED SWAP1 PUSH2 0x4173 JUMP JUMPDEST POP PUSH2 0x33F7 DUP2 PUSH2 0x3CFB JUMP JUMPDEST PUSH2 0x3CC PUSH2 0x3406 PUSH1 0x1 DUP5 ADD PUSH2 0x3CFB JUMP JUMPDEST SWAP2 PUSH2 0x3413 PUSH1 0x2 DUP6 ADD PUSH2 0x3CFB JUMP JUMPDEST SWAP4 PUSH2 0x3420 PUSH1 0x4 DUP3 ADD PUSH2 0x3CFB JUMP JUMPDEST SWAP2 PUSH1 0x6 DUP3 ADD SLOAD PUSH1 0x7 DUP4 ADD SLOAD SWAP2 PUSH2 0x343D PUSH1 0x9 PUSH1 0x8 DUP7 ADD SLOAD SWAP6 ADD PUSH2 0x3CFB JUMP JUMPDEST SWAP5 PUSH1 0x40 MLOAD SWAP9 DUP10 SWAP9 PUSH1 0xFF DUP1 DUP7 PUSH1 0x8 SHR AND SWAP6 AND SWAP4 DUP11 PUSH2 0x40EA JUMP JUMPDEST CALLVALUE PUSH2 0x3D0 JUMPI PUSH1 0x20 CALLDATASIZE PUSH1 0x3 NOT ADD SLT PUSH2 0x3D0 JUMPI PUSH1 0x4 CALLDATALOAD PUSH1 0x1 PUSH1 0x1 PUSH1 0xA0 SHL SUB DUP2 AND SWAP1 DUP2 SWAP1 SUB PUSH2 0x3D0 JUMPI PUSH1 0x0 MSTORE PUSH1 0xB PUSH1 0x20 MSTORE PUSH1 0xFF PUSH1 0x40 PUSH1 0x0 KECCAK256 SLOAD AND PUSH1 0x40 MLOAD PUSH1 0x4 DUP3 LT ISZERO PUSH2 0x349F JUMPI PUSH1 0x20 SWAP2 DUP2 MSTORE RETURN JUMPDEST PUSH4 0x4E487B71 PUSH1 0xE0 SHL PUSH1 0x0 MSTORE PUSH1 0x21 PUSH1 0x4 MSTORE PUSH1 0x24 PUSH1 0x0 REVERT JUMPDEST CALLVALUE PUSH2 0x3D0 JUMPI PUSH1 0x20 CALLDATASIZE PUSH1 0x3 NOT ADD SLT PUSH2 0x3D0 JUMPI PUSH1 0x4 CALLDATALOAD PUSH1 0x1 PUSH1 0x1 PUSH1 0x40 SHL SUB DUP2 GT PUSH2 0x3D0 JUMPI PUSH1 0x20 PUSH2 0x410 PUSH2 0x34EA SWAP3 CALLDATASIZE SWAP1 PUSH1 0x4 ADD PUSH2 0x3EF5 JUMP JUMPDEST DUP2 ADD PUSH1 0xD DUP2 MSTORE SUB ADD SWAP1 KECCAK256 PUSH2 0x33F7 DUP2 PUSH2 0x3CFB JUMP JUMPDEST CALLVALUE PUSH2 0x3D0 JUMPI PUSH1 0x20 CALLDATASIZE PUSH1 0x3 NOT ADD SLT PUSH2 0x3D0 JUMPI PUSH1 0x4 CALLDATALOAD PUSH1 0x1 PUSH1 0x1 PUSH1 0x40 SHL SUB DUP2 GT PUSH2 0x3D0 JUMPI PUSH2 0x352D SWAP1 CALLDATASIZE SWAP1 PUSH1 0x4 ADD PUSH2 0x3EF5 JUMP JUMPDEST PUSH1 0x40 MLOAD PUSH2 0x354B PUSH2 0x1F0 DUP4 MLOAD SWAP3 PUSH1 0x20 DUP2 DUP2 DUP8 ADD SWAP6 PUSH2 0x1FD5 DUP2 DUP4 DUP10 PUSH2 0x3D9F JUMP JUMPDEST PUSH1 0xFF PUSH1 0x4 PUSH1 0x40 MLOAD PUSH1 0x20 DUP2 DUP7 MLOAD PUSH2 0x3562 DUP2 DUP4 DUP10 PUSH2 0x3D9F JUMP JUMPDEST DUP2 ADD PUSH1 0xF DUP2 MSTORE SUB ADD SWAP1 KECCAK256 ADD SLOAD AND SWAP1 PUSH2 0x3598 PUSH1 0x5 PUSH1 0x40 MLOAD PUSH1 0x20 DUP2 DUP8 MLOAD PUSH2 0x3588 DUP2 DUP4 DUP10 PUSH2 0x3D9F JUMP JUMPDEST DUP2 ADD PUSH1 0xF DUP2 MSTORE SUB ADD SWAP1 KECCAK256 ADD PUSH2 0x3CFB JUMP JUMPDEST SWAP3 PUSH2 0x35B1 PUSH1 0x6 PUSH1 0x40 MLOAD PUSH1 0x20 DUP2 DUP6 MLOAD PUSH2 0x3588 DUP2 DUP4 DUP11 PUSH2 0x3D9F JUMP JUMPDEST SWAP1 PUSH2 0x36BB PUSH1 0xFF PUSH1 0x7 PUSH1 0x40 MLOAD PUSH1 0x20 DUP2 DUP7 MLOAD PUSH2 0x35CC DUP2 DUP4 DUP13 PUSH2 0x3D9F JUMP JUMPDEST DUP2 ADD PUSH1 0xF DUP2 MSTORE SUB ADD SWAP1 KECCAK256 ADD SLOAD AND PUSH2 0x35E2 DUP2 PUSH2 0x3DE7 JUMP JUMPDEST PUSH2 0x36AD PUSH2 0x360F PUSH1 0xB PUSH1 0x40 MLOAD PUSH1 0x20 DUP2 DUP1 PUSH2 0x35FF DUP13 DUP12 MLOAD SWAP3 DUP4 SWAP2 PUSH2 0x3D9F JUMP JUMPDEST DUP2 ADD PUSH1 0xF DUP2 MSTORE SUB ADD SWAP1 KECCAK256 ADD PUSH2 0x433B JUMP JUMPDEST SWAP2 PUSH1 0xA PUSH2 0x366F PUSH1 0x20 PUSH1 0x8 PUSH2 0x3630 DUP3 DUP13 DUP12 PUSH1 0x40 MLOAD SWAP4 DUP5 SWAP3 DUP4 SWAP3 MLOAD SWAP3 DUP4 SWAP2 PUSH2 0x3D9F JUMP JUMPDEST DUP2 ADD PUSH1 0xF DUP2 MSTORE SUB ADD SWAP1 KECCAK256 ADD SLOAD SWAP10 PUSH1 0x9 PUSH1 0x40 MLOAD DUP4 DUP2 DUP13 MLOAD PUSH2 0x3651 DUP2 DUP4 DUP9 PUSH2 0x3D9F JUMP JUMPDEST DUP2 ADD PUSH1 0xF DUP2 MSTORE SUB ADD SWAP1 KECCAK256 ADD SLOAD SWAP9 PUSH1 0x40 MLOAD SWAP4 DUP5 SWAP3 DUP4 SWAP3 MLOAD SWAP3 DUP4 SWAP2 PUSH2 0x3D9F JUMP JUMPDEST DUP2 ADD PUSH1 0xF DUP2 MSTORE SUB ADD SWAP1 KECCAK256 ADD SLOAD SWAP6 PUSH2 0x369A PUSH1 0x40 MLOAD SWAP11 DUP12 SWAP11 DUP12 MSTORE PUSH2 0x100 PUSH1 0x20 DUP13 ADD MSTORE PUSH2 0x100 DUP12 ADD SWAP1 PUSH2 0x3DC2 JUMP JUMPDEST SWAP2 PUSH1 0x40 DUP11 ADD MSTORE DUP9 DUP3 SUB PUSH1 0x60 DUP11 ADD MSTORE PUSH2 0x3DC2 JUMP JUMPDEST SWAP1 DUP7 DUP3 SUB PUSH1 0x80 DUP9 ADD MSTORE PUSH2 0x3E9C JUMP JUMPDEST SWAP3 PUSH1 0xA0 DUP6 ADD MSTORE PUSH1 0xC0 DUP5 ADD MSTORE PUSH1 0xE0 DUP4 ADD MSTORE SUB SWAP1 RETURN JUMPDEST CALLVALUE PUSH2 0x3D0 JUMPI PUSH1 0x20 CALLDATASIZE PUSH1 0x3 NOT ADD SLT PUSH2 0x3D0 JUMPI PUSH1 0x4 CALLDATALOAD PUSH1 0x1 PUSH1 0x1 PUSH1 0x40 SHL SUB DUP2 GT PUSH2 0x3D0 JUMPI PUSH2 0x3701 PUSH1 0x20 SWAP2 CALLDATASIZE SWAP1 PUSH1 0x4 ADD PUSH2 0x3EF5 JUMP JUMPDEST DUP2 PUSH2 0x3715 PUSH1 0x40 MLOAD SWAP3 DUP4 DUP2 MLOAD SWAP4 DUP5 SWAP3 ADD PUSH2 0x3D9F JUMP JUMPDEST PUSH1 0x8 SWAP1 DUP3 ADD SWAP1 DUP2 MSTORE DUP2 SWAP1 SUB DUP3 ADD SWAP1 KECCAK256 SLOAD PUSH1 0x40 MLOAD PUSH1 0x1 PUSH1 0x1 PUSH1 0xA0 SHL SUB SWAP1 SWAP2 AND DUP2 MSTORE RETURN JUMPDEST CALLVALUE PUSH2 0x3D0 JUMPI PUSH1 0x20 CALLDATASIZE PUSH1 0x3 NOT ADD SLT PUSH2 0x3D0 JUMPI PUSH1 0x4 CALLDATALOAD PUSH1 0x1 PUSH1 0x1 PUSH1 0x40 SHL SUB DUP2 GT PUSH2 0x3D0 JUMPI PUSH2 0x423 PUSH2 0x33B PUSH1 0x20 PUSH2 0x410 PUSH2 0x3CC SWAP5 CALLDATASIZE SWAP1 PUSH1 0x4 ADD PUSH2 0x3EF5 JUMP JUMPDEST CALLVALUE PUSH2 0x3D0 JUMPI PUSH1 0x20 CALLDATASIZE PUSH1 0x3 NOT ADD SLT PUSH2 0x3D0 JUMPI PUSH1 0x4 CALLDATALOAD PUSH1 0x1 PUSH1 0x1 PUSH1 0x40 SHL SUB DUP2 GT PUSH2 0x3D0 JUMPI PUSH1 0x20 PUSH2 0x410 PUSH2 0x37A7 SWAP3 CALLDATASIZE SWAP1 PUSH1 0x4 ADD PUSH2 0x3EF5 JUMP JUMPDEST DUP2 ADD PUSH1 0xC DUP2 MSTORE SUB ADD SWAP1 KECCAK256 PUSH2 0x33F7 DUP2 PUSH2 0x3CFB JUMP JUMPDEST CALLVALUE PUSH2 0x3D0 JUMPI PUSH1 0x20 CALLDATASIZE PUSH1 0x3 NOT ADD SLT PUSH2 0x3D0 JUMPI PUSH1 0x4 CALLDATALOAD PUSH1 0x1 PUSH1 0x1 PUSH1 0x40 SHL SUB DUP2 GT PUSH2 0x3D0 JUMPI PUSH2 0x37EA SWAP1 CALLDATASIZE SWAP1 PUSH1 0x4 ADD PUSH2 0x3EF5 JUMP JUMPDEST PUSH2 0x37F2 PUSH2 0x49C0 JUMP JUMPDEST POP PUSH1 0x40 MLOAD PUSH2 0x3821 PUSH2 0x1F0 DUP4 MLOAD SWAP3 PUSH1 0x20 DUP2 DUP2 DUP8 ADD SWAP6 PUSH2 0x3811 DUP2 DUP4 DUP10 PUSH2 0x3D9F JUMP JUMPDEST DUP2 ADD PUSH1 0xC DUP2 MSTORE SUB ADD SWAP1 KECCAK256 SLOAD PUSH2 0x3C69 JUMP JUMPDEST PUSH2 0x3CC PUSH1 0x40 MLOAD PUSH1 0x20 DUP2 DUP6 MLOAD PUSH2 0x3837 DUP2 DUP4 DUP9 PUSH2 0x3D9F JUMP JUMPDEST DUP2 ADD PUSH1 0xC DUP2 MSTORE SUB ADD SWAP1 KECCAK256 SWAP2 PUSH2 0x2D0 PUSH1 0x9 PUSH1 0x40 MLOAD SWAP5 PUSH2 0x22A DUP7 PUSH2 0x3CA3 JUMP JUMPDEST CALLVALUE PUSH2 0x3D0 JUMPI PUSH1 0x20 CALLDATASIZE PUSH1 0x3 NOT ADD SLT PUSH2 0x3D0 JUMPI PUSH1 0x4 CALLDATALOAD PUSH1 0x1 PUSH1 0x1 PUSH1 0x40 SHL SUB DUP2 GT PUSH2 0x3D0 JUMPI PUSH2 0x3884 SWAP1 CALLDATASIZE SWAP1 PUSH1 0x4 ADD PUSH2 0x3EF5 JUMP JUMPDEST PUSH1 0x2 SLOAD PUSH1 0x0 PUSH1 0x20 DUP4 ADD DUP2 JUMPDEST DUP4 DUP2 LT PUSH2 0x3A0A JUMPI POP PUSH2 0x38A0 DUP3 PUSH2 0x43EC JUMP JUMPDEST SWAP3 PUSH2 0x38AA DUP4 PUSH2 0x43EC JUMP JUMPDEST SWAP2 PUSH2 0x38BD PUSH2 0x38B7 DUP6 PUSH2 0x498E JUMP JUMPDEST SWAP5 PUSH2 0x498E JUMP JUMPDEST SWAP6 PUSH1 0x0 SWAP2 DUP3 JUMPDEST DUP5 DUP2 LT PUSH2 0x38FC JUMPI PUSH2 0x2275 DUP9 PUSH2 0x3CC DUP12 PUSH2 0x38EE DUP12 PUSH2 0x2283 DUP13 PUSH1 0x40 MLOAD SWAP8 DUP9 SWAP8 PUSH1 0x80 DUP10 MSTORE PUSH1 0x80 DUP10 ADD SWAP1 PUSH2 0x3E9C JUMP JUMPDEST SWAP1 DUP4 DUP3 SUB PUSH1 0x60 DUP6 ADD MSTORE PUSH2 0x3F4B JUMP JUMPDEST PUSH2 0x3917 PUSH1 0x20 PUSH2 0x390A DUP4 PUSH2 0x4173 JUMP JUMPDEST POP PUSH1 0x40 MLOAD SWAP3 DUP4 DUP1 SWAP3 PUSH2 0x4920 JUMP JUMPDEST PUSH1 0x9 DUP2 MSTORE SUB ADD SWAP1 KECCAK256 PUSH1 0x40 MLOAD PUSH2 0x3934 DUP2 PUSH2 0x4FF PUSH1 0x20 DUP3 ADD DUP1 SWAP6 PUSH2 0x4920 JUMP JUMPDEST MLOAD SWAP1 KECCAK256 PUSH1 0x40 MLOAD PUSH1 0x20 DUP2 ADD SWAP1 PUSH2 0x3952 PUSH1 0x20 DUP3 DUP9 MLOAD PUSH2 0x52B DUP2 DUP8 DUP12 PUSH2 0x3D9F JUMP JUMPDEST MLOAD SWAP1 KECCAK256 EQ PUSH2 0x3963 JUMPI JUMPDEST PUSH1 0x1 ADD PUSH2 0x38C3 JUMP JUMPDEST SWAP3 PUSH2 0x3A02 PUSH1 0x1 SWAP2 PUSH2 0x3976 PUSH2 0x560 DUP8 PUSH2 0x4173 JUMP JUMPDEST PUSH2 0x3980 DUP3 DUP13 PUSH2 0x452B JUMP JUMPDEST MSTORE PUSH2 0x398B DUP2 DUP12 PUSH2 0x452B JUMP JUMPDEST POP PUSH2 0x399A PUSH1 0x2 PUSH2 0x58E DUP9 PUSH2 0x4173 JUMP JUMPDEST PUSH2 0x39A4 DUP3 DUP11 PUSH2 0x452B JUMP JUMPDEST MSTORE PUSH2 0x39AF DUP2 DUP10 PUSH2 0x452B JUMP JUMPDEST POP PUSH1 0xFF PUSH1 0x6 PUSH2 0x39BD DUP9 PUSH2 0x4173 JUMP JUMPDEST POP ADD SLOAD PUSH1 0x8 SHR AND PUSH2 0x39CD DUP2 PUSH2 0x3DE7 JUMP JUMPDEST PUSH2 0x39D7 DUP3 DUP12 PUSH2 0x452B JUMP JUMPDEST MSTORE PUSH1 0xFF PUSH1 0x6 PUSH2 0x39E5 DUP9 PUSH2 0x4173 JUMP JUMPDEST POP ADD SLOAD AND PUSH2 0x39F2 DUP2 PUSH2 0x3E92 JUMP JUMPDEST PUSH2 0x39FC DUP3 DUP14 PUSH2 0x452B JUMP JUMPDEST MSTORE PUSH2 0x4393 JUMP JUMPDEST SWAP4 SWAP1 POP PUSH2 0x395B JUMP JUMPDEST PUSH2 0x3A18 PUSH1 0x20 PUSH2 0x390A DUP4 PUSH2 0x4173 JUMP JUMPDEST PUSH1 0x9 DUP2 MSTORE SUB ADD SWAP1 KECCAK256 PUSH1 0x40 MLOAD PUSH2 0x3A35 DUP2 PUSH2 0x4FF PUSH1 0x20 DUP3 ADD DUP1 SWAP6 PUSH2 0x4920 JUMP JUMPDEST MLOAD SWAP1 KECCAK256 PUSH1 0x40 MLOAD PUSH1 0x20 DUP2 ADD SWAP1 PUSH2 0x3A53 PUSH1 0x20 DUP3 DUP11 MLOAD PUSH2 0x52B DUP2 DUP8 DUP12 PUSH2 0x3D9F JUMP JUMPDEST MLOAD SWAP1 KECCAK256 EQ PUSH2 0x3A64 JUMPI JUMPDEST PUSH1 0x1 ADD PUSH2 0x388F JUMP JUMPDEST SWAP2 PUSH2 0x3A70 PUSH1 0x1 SWAP2 PUSH2 0x4393 JUMP JUMPDEST SWAP3 SWAP1 POP PUSH2 0x3A5C JUMP JUMPDEST CALLVALUE PUSH2 0x3D0 JUMPI PUSH1 0x20 CALLDATASIZE PUSH1 0x3 NOT ADD SLT PUSH2 0x3D0 JUMPI PUSH1 0x4 CALLDATALOAD PUSH1 0x1 PUSH1 0x1 PUSH1 0x40 SHL SUB DUP2 GT PUSH2 0x3D0 JUMPI PUSH2 0x3AAA PUSH1 0x20 SWAP2 CALLDATASIZE SWAP1 PUSH1 0x4 ADD PUSH2 0x3EF5 JUMP JUMPDEST DUP2 PUSH2 0x3ABE PUSH1 0x40 MLOAD SWAP3 DUP4 DUP2 MLOAD SWAP4 DUP5 SWAP3 ADD PUSH2 0x3D9F JUMP JUMPDEST PUSH1 0x5 SWAP1 DUP3 ADD SWAP1 DUP2 MSTORE DUP2 SWAP1 SUB DUP3 ADD SWAP1 KECCAK256 SLOAD PUSH1 0x40 MLOAD PUSH1 0x1 PUSH1 0x1 PUSH1 0xA0 SHL SUB SWAP1 SWAP2 AND DUP2 MSTORE RETURN JUMPDEST CALLVALUE PUSH2 0x3D0 JUMPI PUSH1 0x0 CALLDATASIZE PUSH1 0x3 NOT ADD SLT PUSH2 0x3D0 JUMPI PUSH2 0x3AF9 PUSH2 0x453F JUMP JUMPDEST PUSH1 0x40 MLOAD DUP1 SWAP2 PUSH1 0x20 DUP3 ADD PUSH1 0x20 DUP4 MSTORE DUP2 MLOAD DUP1 SWAP2 MSTORE PUSH1 0x40 DUP4 ADD SWAP1 PUSH1 0x20 PUSH1 0x40 DUP3 PUSH1 0x5 SHL DUP7 ADD ADD SWAP4 ADD SWAP2 PUSH1 0x0 SWAP1 JUMPDEST DUP3 DUP3 LT PUSH2 0x3B31 JUMPI POP POP POP POP SUB SWAP1 RETURN JUMPDEST SWAP2 SWAP4 PUSH1 0x1 SWAP2 SWAP4 SWAP6 POP PUSH1 0x20 PUSH2 0x3BCF DUP2 SWAP3 PUSH1 0x3F NOT DUP11 DUP3 SUB ADD DUP7 MSTORE DUP9 MLOAD SWAP1 DUP2 MLOAD PUSH2 0x3B57 DUP2 PUSH2 0x3E92 JUMP JUMPDEST DUP2 MSTORE PUSH1 0xC0 PUSH2 0x3BBE PUSH2 0x3B9F PUSH2 0x3B8D PUSH2 0x3B7B DUP9 DUP8 ADD MLOAD PUSH1 0xE0 DUP11 DUP9 ADD MSTORE PUSH1 0xE0 DUP8 ADD SWAP1 PUSH2 0x3DC2 JUMP JUMPDEST PUSH1 0x40 DUP8 ADD MLOAD DUP7 DUP3 SUB PUSH1 0x40 DUP9 ADD MSTORE PUSH2 0x3DC2 JUMP JUMPDEST PUSH1 0x60 DUP7 ADD MLOAD DUP6 DUP3 SUB PUSH1 0x60 DUP8 ADD MSTORE PUSH2 0x3DC2 JUMP JUMPDEST PUSH1 0xFF PUSH1 0x80 DUP7 ADD MLOAD AND PUSH1 0x80 DUP6 ADD MSTORE PUSH1 0xA0 DUP6 ADD MLOAD DUP5 DUP3 SUB PUSH1 0xA0 DUP7 ADD MSTORE PUSH2 0x3DC2 JUMP JUMPDEST SWAP3 ADD MLOAD SWAP1 PUSH1 0xC0 DUP2 DUP5 SUB SWAP2 ADD MSTORE PUSH2 0x3E9C JUMP JUMPDEST SWAP7 ADD SWAP3 ADD SWAP3 ADD DUP6 SWAP5 SWAP4 SWAP2 SWAP3 PUSH2 0x3B22 JUMP JUMPDEST CALLVALUE PUSH2 0x3D0 JUMPI PUSH1 0x20 CALLDATASIZE PUSH1 0x3 NOT ADD SLT PUSH2 0x3D0 JUMPI PUSH1 0x4 CALLDATALOAD PUSH1 0x4 SLOAD DUP2 LT ISZERO PUSH2 0x3D0 JUMPI PUSH2 0x3C06 SWAP1 PUSH2 0x3C34 JUMP JUMPDEST POP PUSH2 0x2C4A DUP2 PUSH2 0x3CFB JUMP JUMPDEST CALLVALUE PUSH2 0x3D0 JUMPI PUSH1 0x0 CALLDATASIZE PUSH1 0x3 NOT ADD SLT PUSH2 0x3D0 JUMPI PUSH1 0x0 SLOAD PUSH1 0x1 PUSH1 0x1 PUSH1 0xA0 SHL SUB AND DUP2 MSTORE PUSH1 0x20 SWAP1 RETURN JUMPDEST PUSH1 0x4 SLOAD DUP2 LT ISZERO PUSH2 0x3C53 JUMPI PUSH1 0x4 PUSH1 0x0 MSTORE PUSH1 0xC PUSH1 0x20 PUSH1 0x0 KECCAK256 SWAP2 MUL ADD SWAP1 PUSH1 0x0 SWAP1 JUMP JUMPDEST PUSH4 0x4E487B71 PUSH1 0xE0 SHL PUSH1 0x0 MSTORE PUSH1 0x32 PUSH1 0x4 MSTORE PUSH1 0x24 PUSH1 0x0 REVERT JUMPDEST SWAP1 PUSH1 0x1 DUP3 DUP2 SHR SWAP3 AND DUP1 ISZERO PUSH2 0x3C99 JUMPI JUMPDEST PUSH1 0x20 DUP4 LT EQ PUSH2 0x3C83 JUMPI JUMP JUMPDEST PUSH4 0x4E487B71 PUSH1 0xE0 SHL PUSH1 0x0 MSTORE PUSH1 0x22 PUSH1 0x4 MSTORE PUSH1 0x24 PUSH1 0x0 REVERT JUMPDEST SWAP2 PUSH1 0x7F AND SWAP2 PUSH2 0x3C78 JUMP JUMPDEST PUSH2 0x160 DUP2 ADD SWAP1 DUP2 LT PUSH1 0x1 PUSH1 0x1 PUSH1 0x40 SHL SUB DUP3 GT OR PUSH2 0x1139 JUMPI PUSH1 0x40 MSTORE JUMP JUMPDEST PUSH1 0xE0 DUP2 ADD SWAP1 DUP2 LT PUSH1 0x1 PUSH1 0x1 PUSH1 0x40 SHL SUB DUP3 GT OR PUSH2 0x1139 JUMPI PUSH1 0x40 MSTORE JUMP JUMPDEST SWAP1 PUSH1 0x1F DUP1 NOT SWAP2 ADD AND DUP2 ADD SWAP1 DUP2 LT PUSH1 0x1 PUSH1 0x1 PUSH1 0x40 SHL SUB DUP3 GT OR PUSH2 0x1139 JUMPI PUSH1 0x40 MSTORE JUMP JUMPDEST SWAP1 PUSH1 0x40 MLOAD SWAP2 DUP3 PUSH1 0x0 DUP3 SLOAD SWAP3 PUSH2 0x3D0F DUP5 PUSH2 0x3C69 JUMP JUMPDEST DUP1 DUP5 MSTORE SWAP4 PUSH1 0x1 DUP2 AND SWAP1 DUP2 ISZERO PUSH2 0x3D7D JUMPI POP PUSH1 0x1 EQ PUSH2 0x3D36 JUMPI JUMPDEST POP PUSH2 0x3D34 SWAP3 POP SUB DUP4 PUSH2 0x3CDA JUMP JUMPDEST JUMP JUMPDEST SWAP1 POP PUSH1 0x0 SWAP3 SWAP2 SWAP3 MSTORE PUSH1 0x20 PUSH1 0x0 KECCAK256 SWAP1 PUSH1 0x0 SWAP2 JUMPDEST DUP2 DUP4 LT PUSH2 0x3D61 JUMPI POP POP SWAP1 PUSH1 0x20 PUSH2 0x3D34 SWAP3 DUP3 ADD ADD CODESIZE PUSH2 0x3D27 JUMP JUMPDEST PUSH1 0x20 SWAP2 SWAP4 POP DUP1 PUSH1 0x1 SWAP2 SLOAD DUP4 DUP6 DUP10 ADD ADD MSTORE ADD SWAP2 ADD SWAP1 SWAP2 DUP5 SWAP3 PUSH2 0x3D48 JUMP JUMPDEST SWAP1 POP PUSH1 0x20 SWAP3 POP PUSH2 0x3D34 SWAP5 SWAP2 POP PUSH1 0xFF NOT AND DUP3 DUP5 ADD MSTORE ISZERO ISZERO PUSH1 0x5 SHL DUP3 ADD ADD CODESIZE PUSH2 0x3D27 JUMP JUMPDEST PUSH1 0x0 JUMPDEST DUP4 DUP2 LT PUSH2 0x3DB2 JUMPI POP POP PUSH1 0x0 SWAP2 ADD MSTORE JUMP JUMPDEST DUP2 DUP2 ADD MLOAD DUP4 DUP3 ADD MSTORE PUSH1 0x20 ADD PUSH2 0x3DA2 JUMP JUMPDEST SWAP1 PUSH1 0x20 SWAP2 PUSH2 0x3DDB DUP2 MLOAD DUP1 SWAP3 DUP2 DUP6 MSTORE DUP6 DUP1 DUP7 ADD SWAP2 ADD PUSH2 0x3D9F JUMP JUMPDEST PUSH1 0x1F ADD PUSH1 0x1F NOT AND ADD ADD SWAP1 JUMP JUMPDEST PUSH1 0x3 GT ISZERO PUSH2 0x349F JUMPI JUMP JUMPDEST SWAP8 SWAP12 SWAP11 SWAP10 SWAP7 SWAP4 PUSH2 0x3E51 PUSH1 0xFF SWAP2 PUSH2 0x3E43 PUSH2 0x3E65 SWAP7 PUSH2 0x3E35 DUP14 PUSH2 0x140 SWAP16 SWAP13 SWAP8 SWAP9 PUSH2 0x3E27 PUSH2 0x3E73 SWAP14 SWAP11 PUSH2 0x160 DUP5 MSTORE PUSH2 0x160 DUP5 ADD SWAP1 PUSH2 0x3DC2 JUMP JUMPDEST SWAP2 PUSH1 0x20 DUP2 DUP5 SUB SWAP2 ADD MSTORE PUSH2 0x3DC2 JUMP JUMPDEST DUP14 DUP2 SUB PUSH1 0x40 DUP16 ADD MSTORE SWAP1 PUSH2 0x3DC2 JUMP JUMPDEST SWAP1 DUP12 DUP3 SUB PUSH1 0x60 DUP14 ADD MSTORE PUSH2 0x3DC2 JUMP JUMPDEST SWAP3 AND PUSH1 0x80 DUP10 ADD MSTORE DUP8 DUP3 SUB PUSH1 0xA0 DUP10 ADD MSTORE PUSH2 0x3DC2 JUMP JUMPDEST SWAP1 DUP6 DUP3 SUB PUSH1 0xC0 DUP8 ADD MSTORE PUSH2 0x3DC2 JUMP JUMPDEST SWAP7 PUSH2 0x3E7D DUP2 PUSH2 0x3DE7 JUMP JUMPDEST PUSH1 0xE0 DUP5 ADD MSTORE PUSH2 0x100 DUP4 ADD MSTORE PUSH2 0x120 DUP3 ADD MSTORE ADD MSTORE JUMP JUMPDEST PUSH1 0x2 GT ISZERO PUSH2 0x349F JUMPI JUMP JUMPDEST SWAP1 DUP1 PUSH1 0x20 DUP4 MLOAD SWAP2 DUP3 DUP2 MSTORE ADD SWAP2 PUSH1 0x20 DUP1 DUP4 PUSH1 0x5 SHL DUP4 ADD ADD SWAP5 ADD SWAP3 PUSH1 0x0 SWAP2 JUMPDEST DUP4 DUP4 LT PUSH2 0x3EC8 JUMPI POP POP POP POP POP SWAP1 JUMP JUMPDEST SWAP1 SWAP2 SWAP3 SWAP4 SWAP5 PUSH1 0x20 DUP1 PUSH2 0x3EE6 PUSH1 0x1 SWAP4 PUSH1 0x1F NOT DUP7 DUP3 SUB ADD DUP8 MSTORE DUP10 MLOAD PUSH2 0x3DC2 JUMP JUMPDEST SWAP8 ADD SWAP4 ADD SWAP4 ADD SWAP2 SWAP4 SWAP3 SWAP1 PUSH2 0x3EB9 JUMP JUMPDEST DUP2 PUSH1 0x1F DUP3 ADD SLT ISZERO PUSH2 0x3D0 JUMPI DUP1 CALLDATALOAD SWAP1 PUSH1 0x1 PUSH1 0x1 PUSH1 0x40 SHL SUB DUP3 GT PUSH2 0x1139 JUMPI PUSH1 0x40 MLOAD SWAP3 PUSH2 0x3F29 PUSH1 0x1F DUP5 ADD PUSH1 0x1F NOT AND PUSH1 0x20 ADD DUP6 PUSH2 0x3CDA JUMP JUMPDEST DUP3 DUP5 MSTORE PUSH1 0x20 DUP4 DUP4 ADD ADD GT PUSH2 0x3D0 JUMPI DUP2 PUSH1 0x0 SWAP3 PUSH1 0x20 DUP1 SWAP4 ADD DUP4 DUP7 ADD CALLDATACOPY DUP4 ADD ADD MSTORE SWAP1 JUMP JUMPDEST SWAP1 PUSH1 0x20 DUP1 DUP4 MLOAD SWAP3 DUP4 DUP2 MSTORE ADD SWAP3 ADD SWAP1 PUSH1 0x0 JUMPDEST DUP2 DUP2 LT PUSH2 0x3F69 JUMPI POP POP POP SWAP1 JUMP JUMPDEST DUP3 MLOAD PUSH1 0xFF AND DUP5 MSTORE PUSH1 0x20 SWAP4 DUP5 ADD SWAP4 SWAP1 SWAP3 ADD SWAP2 PUSH1 0x1 ADD PUSH2 0x3F5C JUMP JUMPDEST SWAP6 SWAP2 SWAP4 PUSH2 0x40AE PUSH2 0x40D9 SWAP6 PUSH2 0x40E7 SWAP10 SWAP8 SWAP6 PUSH2 0x4091 PUSH2 0x40BC SWAP6 PUSH1 0xE0 DUP13 MSTORE PUSH2 0x140 PUSH2 0x403B DUP14 PUSH2 0x4022 PUSH2 0x400B PUSH2 0x3FF6 PUSH2 0x3FDF PUSH2 0x3FC8 DUP9 MLOAD PUSH2 0x160 PUSH1 0xE0 DUP9 ADD MSTORE PUSH2 0x240 DUP8 ADD SWAP1 PUSH2 0x3DC2 JUMP JUMPDEST PUSH1 0x20 DUP10 ADD MLOAD DUP7 DUP3 SUB PUSH1 0xDF NOT ADD PUSH2 0x100 DUP9 ADD MSTORE PUSH2 0x3DC2 JUMP JUMPDEST PUSH1 0x40 DUP9 ADD MLOAD DUP6 DUP3 SUB PUSH1 0xDF NOT ADD PUSH2 0x120 DUP8 ADD MSTORE PUSH2 0x3DC2 JUMP JUMPDEST PUSH1 0x60 DUP8 ADD MLOAD DUP5 DUP3 SUB PUSH1 0xDF NOT ADD DUP8 DUP7 ADD MSTORE PUSH2 0x3E9C JUMP JUMPDEST PUSH1 0x80 DUP7 ADD MLOAD DUP4 DUP3 SUB PUSH1 0xDF NOT ADD PUSH2 0x160 DUP6 ADD MSTORE PUSH2 0x3DC2 JUMP JUMPDEST SWAP1 PUSH1 0xA0 DUP6 ADD MLOAD SWAP1 PUSH2 0x180 PUSH1 0xDF NOT DUP3 DUP6 SUB ADD SWAP2 ADD MSTORE PUSH2 0x3E9C JUMP JUMPDEST SWAP2 DUP14 PUSH2 0x1A0 PUSH1 0xC0 DUP4 ADD MLOAD SWAP2 PUSH2 0x404F DUP4 PUSH2 0x3E92 JUMP JUMPDEST ADD MSTORE PUSH1 0xE0 DUP2 ADD MLOAD PUSH2 0x1C0 DUP16 PUSH2 0x4063 DUP4 PUSH2 0x3DE7 JUMP JUMPDEST ADD MSTORE PUSH2 0x100 DUP2 ADD MLOAD PUSH2 0x1E0 DUP16 ADD MSTORE PUSH2 0x120 DUP2 ADD MLOAD PUSH2 0x200 DUP16 ADD MSTORE ADD MLOAD DUP13 DUP3 SUB PUSH1 0xDF NOT ADD PUSH2 0x220 DUP15 ADD MSTORE PUSH2 0x3DC2 JUMP JUMPDEST PUSH1 0x1 PUSH1 0x1 PUSH1 0xA0 SHL SUB SWAP1 SWAP3 AND PUSH1 0x20 DUP12 ADD MSTORE DUP10 DUP3 SUB PUSH1 0x40 DUP12 ADD MSTORE PUSH2 0x3DC2 JUMP JUMPDEST SWAP1 DUP8 DUP3 SUB PUSH1 0x60 DUP10 ADD MSTORE PUSH2 0x3DC2 JUMP JUMPDEST PUSH1 0x1 PUSH1 0x1 PUSH1 0xA0 SHL SUB SWAP1 SWAP3 AND PUSH1 0x80 DUP7 ADD MSTORE DUP5 DUP3 SUB PUSH1 0xA0 DUP7 ADD MSTORE PUSH2 0x3DC2 JUMP JUMPDEST SWAP2 PUSH1 0xC0 DUP2 DUP5 SUB SWAP2 ADD MSTORE PUSH2 0x3DC2 JUMP JUMPDEST SWAP1 JUMP JUMPDEST SWAP6 SWAP3 PUSH2 0x4130 SWAP1 PUSH2 0x4122 PUSH2 0x413E SWAP5 PUSH2 0x4114 PUSH2 0x40E7 SWAP14 SWAP12 SWAP9 SWAP6 SWAP13 SWAP10 SWAP13 PUSH2 0x120 DUP13 MSTORE PUSH2 0x120 DUP13 ADD SWAP1 PUSH2 0x3DC2 JUMP JUMPDEST SWAP1 DUP11 DUP3 SUB PUSH1 0x20 DUP13 ADD MSTORE PUSH2 0x3DC2 JUMP JUMPDEST SWAP1 DUP9 DUP3 SUB PUSH1 0x40 DUP11 ADD MSTORE PUSH2 0x3DC2 JUMP JUMPDEST SWAP1 DUP7 DUP3 SUB PUSH1 0x60 DUP9 ADD MSTORE PUSH2 0x3DC2 JUMP JUMPDEST SWAP6 PUSH2 0x4148 DUP2 PUSH2 0x3E92 JUMP JUMPDEST PUSH1 0x80 DUP6 ADD MSTORE PUSH2 0x4156 DUP2 PUSH2 0x3DE7 JUMP JUMPDEST PUSH1 0xA0 DUP5 ADD MSTORE PUSH1 0xC0 DUP4 ADD MSTORE PUSH1 0xE0 DUP3 ADD MSTORE PUSH2 0x100 DUP2 DUP5 SUB SWAP2 ADD MSTORE PUSH2 0x3DC2 JUMP JUMPDEST PUSH1 0x2 SLOAD DUP2 LT ISZERO PUSH2 0x3C53 JUMPI PUSH1 0x2 PUSH1 0x0 MSTORE PUSH1 0xA PUSH1 0x20 PUSH1 0x0 KECCAK256 SWAP2 MUL ADD SWAP1 PUSH1 0x0 SWAP1 JUMP JUMPDEST PUSH1 0x3 SLOAD DUP2 LT ISZERO PUSH2 0x3C53 JUMPI PUSH1 0x3 PUSH1 0x0 MSTORE PUSH1 0x7 PUSH1 0x20 PUSH1 0x0 KECCAK256 SWAP2 MUL ADD SWAP1 PUSH1 0x0 SWAP1 JUMP JUMPDEST SWAP3 SWAP4 PUSH2 0x41EF PUSH2 0x40E7 SWAP8 SWAP6 PUSH2 0x41E1 PUSH1 0xFF SWAP6 PUSH2 0x41FD SWAP6 PUSH2 0x41CE DUP2 PUSH2 0x3E92 JUMP JUMPDEST DUP9 MSTORE PUSH1 0xC0 PUSH1 0x20 DUP10 ADD MSTORE PUSH1 0xC0 DUP9 ADD SWAP1 PUSH2 0x3DC2 JUMP JUMPDEST SWAP1 DUP7 DUP3 SUB PUSH1 0x40 DUP9 ADD MSTORE PUSH2 0x3DC2 JUMP JUMPDEST SWAP1 DUP5 DUP3 SUB PUSH1 0x60 DUP7 ADD MSTORE PUSH2 0x3DC2 JUMP JUMPDEST SWAP4 AND PUSH1 0x80 DUP3 ADD MSTORE PUSH1 0xA0 DUP2 DUP5 SUB SWAP2 ADD MSTORE PUSH2 0x3DC2 JUMP JUMPDEST PUSH1 0x64 CALLDATALOAD SWAP1 PUSH1 0xFF DUP3 AND DUP3 SUB PUSH2 0x3D0 JUMPI JUMP JUMPDEST SWAP5 SWAP2 SWAP4 PUSH2 0x4264 PUSH2 0x4280 SWAP5 PUSH2 0x4256 PUSH2 0x40E7 SWAP10 SWAP8 PUSH2 0x4248 PUSH2 0x4272 SWAP7 PUSH1 0xC0 DUP13 MSTORE PUSH1 0xC0 DUP13 ADD SWAP1 PUSH2 0x3E9C JUMP JUMPDEST SWAP1 DUP11 DUP3 SUB PUSH1 0x20 DUP13 ADD MSTORE PUSH2 0x3E9C JUMP JUMPDEST SWAP1 DUP9 DUP3 SUB PUSH1 0x40 DUP11 ADD MSTORE PUSH2 0x3F4B JUMP JUMPDEST SWAP1 DUP7 DUP3 SUB PUSH1 0x60 DUP9 ADD MSTORE PUSH2 0x3F4B JUMP JUMPDEST SWAP1 DUP5 DUP3 SUB PUSH1 0x80 DUP7 ADD MSTORE PUSH2 0x3E9C JUMP JUMPDEST SWAP2 PUSH1 0xA0 DUP2 DUP5 SUB SWAP2 ADD MSTORE PUSH2 0x3E9C JUMP JUMPDEST PUSH1 0x1 PUSH1 0x1 PUSH1 0x40 SHL SUB DUP2 GT PUSH2 0x1139 JUMPI PUSH1 0x5 SHL PUSH1 0x20 ADD SWAP1 JUMP JUMPDEST SWAP1 DUP1 PUSH1 0x1F DUP4 ADD SLT ISZERO PUSH2 0x3D0 JUMPI DUP2 CALLDATALOAD PUSH2 0x42BC DUP2 PUSH2 0x428E JUMP JUMPDEST SWAP3 PUSH2 0x42CA PUSH1 0x40 MLOAD SWAP5 DUP6 PUSH2 0x3CDA JUMP JUMPDEST DUP2 DUP5 MSTORE PUSH1 0x20 DUP1 DUP6 ADD SWAP3 PUSH1 0x5 SHL DUP3 ADD ADD SWAP2 DUP4 DUP4 GT PUSH2 0x3D0 JUMPI PUSH1 0x20 DUP3 ADD SWAP1 JUMPDEST DUP4 DUP3 LT PUSH2 0x42F6 JUMPI POP POP POP POP POP SWAP1 JUMP JUMPDEST DUP2 CALLDATALOAD PUSH1 0x1 PUSH1 0x1 PUSH1 0x40 SHL SUB DUP2 GT PUSH2 0x3D0 JUMPI PUSH1 0x20 SWAP2 PUSH2 0x4318 DUP8 DUP5 DUP1 SWAP5 DUP9 ADD ADD PUSH2 0x3EF5 JUMP JUMPDEST DUP2 MSTORE ADD SWAP2 ADD SWAP1 PUSH2 0x42E7 JUMP JUMPDEST SWAP1 DUP2 PUSH1 0x20 SWAP2 SUB SLT PUSH2 0x3D0 JUMPI MLOAD DUP1 ISZERO ISZERO DUP2 SUB PUSH2 0x3D0 JUMPI SWAP1 JUMP JUMPDEST SWAP1 DUP2 SLOAD PUSH2 0x4347 DUP2 PUSH2 0x428E JUMP JUMPDEST SWAP3 PUSH2 0x4355 PUSH1 0x40 MLOAD SWAP5 DUP6 PUSH2 0x3CDA JUMP JUMPDEST DUP2 DUP5 MSTORE PUSH1 0x20 DUP5 ADD SWAP1 PUSH1 0x0 MSTORE PUSH1 0x20 PUSH1 0x0 KECCAK256 PUSH1 0x0 SWAP2 JUMPDEST DUP4 DUP4 LT PUSH2 0x4376 JUMPI POP POP POP POP JUMP JUMPDEST PUSH1 0x1 PUSH1 0x20 DUP2 SWAP3 PUSH2 0x4385 DUP6 PUSH2 0x3CFB JUMP JUMPDEST DUP2 MSTORE ADD SWAP3 ADD SWAP3 ADD SWAP2 SWAP1 PUSH2 0x4369 JUMP JUMPDEST PUSH1 0x0 NOT DUP2 EQ PUSH2 0x43A2 JUMPI PUSH1 0x1 ADD SWAP1 JUMP JUMPDEST PUSH4 0x4E487B71 PUSH1 0xE0 SHL PUSH1 0x0 MSTORE PUSH1 0x11 PUSH1 0x4 MSTORE PUSH1 0x24 PUSH1 0x0 REVERT JUMPDEST PUSH1 0x40 MLOAD SWAP1 PUSH2 0x43C7 PUSH1 0x20 DUP4 PUSH2 0x3CDA JUMP JUMPDEST PUSH1 0x0 DUP1 DUP4 MSTORE DUP3 DUP2 JUMPDEST DUP3 DUP2 LT PUSH2 0x43DB JUMPI POP POP POP JUMP JUMPDEST DUP1 PUSH1 0x60 PUSH1 0x20 DUP1 SWAP4 DUP6 ADD ADD MSTORE ADD PUSH2 0x43CF JUMP JUMPDEST SWAP1 PUSH2 0x43F6 DUP3 PUSH2 0x428E JUMP JUMPDEST PUSH2 0x4403 PUSH1 0x40 MLOAD SWAP2 DUP3 PUSH2 0x3CDA JUMP JUMPDEST DUP3 DUP2 MSTORE DUP1 SWAP3 PUSH2 0x4414 PUSH1 0x1F NOT SWAP2 PUSH2 0x428E JUMP JUMPDEST ADD SWAP1 PUSH1 0x0 JUMPDEST DUP3 DUP2 LT PUSH2 0x4425 JUMPI POP POP POP JUMP JUMPDEST DUP1 PUSH1 0x60 PUSH1 0x20 DUP1 SWAP4 DUP6 ADD ADD MSTORE ADD PUSH2 0x4419 JUMP JUMPDEST DUP1 MLOAD ISZERO PUSH2 0x3C53 JUMPI PUSH1 0x20 ADD SWAP1 JUMP JUMPDEST DUP1 MLOAD PUSH1 0x1 LT ISZERO PUSH2 0x3C53 JUMPI PUSH1 0x40 ADD SWAP1 JUMP JUMPDEST DUP1 MLOAD PUSH1 0x2 LT ISZERO PUSH2 0x3C53 JUMPI PUSH1 0x60 ADD SWAP1 JUMP JUMPDEST DUP1 MLOAD PUSH1 0x3 LT ISZERO PUSH2 0x3C53 JUMPI PUSH1 0x80 ADD SWAP1 JUMP JUMPDEST DUP1 MLOAD PUSH1 0x4 LT ISZERO PUSH2 0x3C53 JUMPI PUSH1 0xA0 ADD SWAP1 JUMP JUMPDEST DUP1 MLOAD PUSH1 0x5 LT ISZERO PUSH2 0x3C53 JUMPI PUSH1 0xC0 ADD SWAP1 JUMP JUMPDEST DUP1 MLOAD PUSH1 0x6 LT ISZERO PUSH2 0x3C53 JUMPI PUSH1 0xE0 ADD SWAP1 JUMP JUMPDEST DUP1 MLOAD PUSH1 0x7 LT ISZERO PUSH2 0x3C53 JUMPI PUSH2 0x100 ADD SWAP1 JUMP JUMPDEST DUP1 MLOAD PUSH1 0x8 LT ISZERO PUSH2 0x3C53 JUMPI PUSH2 0x120 ADD SWAP1 JUMP JUMPDEST DUP1 MLOAD PUSH1 0x9 LT ISZERO PUSH2 0x3C53 JUMPI PUSH2 0x140 ADD SWAP1 JUMP JUMPDEST DUP1 MLOAD PUSH1 0xA LT ISZERO PUSH2 0x3C53 JUMPI PUSH2 0x160 ADD SWAP1 JUMP JUMPDEST DUP1 MLOAD PUSH1 0xB LT ISZERO PUSH2 0x3C53 JUMPI PUSH2 0x180 ADD SWAP1 JUMP JUMPDEST DUP1 MLOAD PUSH1 0xC LT ISZERO PUSH2 0x3C53 JUMPI PUSH2 0x1A0 ADD SWAP1 JUMP JUMPDEST DUP1 MLOAD PUSH1 0xD LT ISZERO PUSH2 0x3C53 JUMPI PUSH2 0x1C0 ADD SWAP1 JUMP JUMPDEST DUP1 MLOAD PUSH1 0xE LT ISZERO PUSH2 0x3C53 JUMPI PUSH2 0x1E0 ADD SWAP1 JUMP JUMPDEST DUP1 MLOAD DUP3 LT ISZERO PUSH2 0x3C53 JUMPI PUSH1 0x20 SWAP2 PUSH1 0x5 SHL ADD ADD SWAP1 JUMP JUMPDEST PUSH1 0x0 SLOAD PUSH1 0x40 MLOAD PUSH4 0x95A8C58D PUSH1 0xE0 SHL DUP2 MSTORE CALLER PUSH1 0x4 DUP3 ADD MSTORE PUSH1 0x1 PUSH1 0x24 DUP3 ADD MSTORE PUSH1 0x60 SWAP2 PUSH1 0x1 PUSH1 0x1 PUSH1 0xA0 SHL SUB AND SWAP1 PUSH1 0x20 DUP2 PUSH1 0x44 DUP2 DUP6 GAS STATICCALL SWAP1 DUP2 ISZERO PUSH2 0x127F JUMPI PUSH1 0x0 SWAP2 PUSH2 0x4901 JUMPI JUMPDEST POP ISZERO PUSH2 0x4756 JUMPI POP POP PUSH1 0x0 DUP1 PUSH1 0x3 SLOAD SWAP1 JUMPDEST DUP2 DUP2 LT PUSH2 0x471D JUMPI POP PUSH2 0x45A2 DUP3 PUSH2 0x428E JUMP JUMPDEST SWAP2 PUSH2 0x45B0 PUSH1 0x40 MLOAD SWAP4 DUP5 PUSH2 0x3CDA JUMP JUMPDEST DUP1 DUP4 MSTORE PUSH2 0x45BF PUSH1 0x1F NOT SWAP2 PUSH2 0x428E JUMP JUMPDEST ADD PUSH1 0x0 JUMPDEST DUP2 DUP2 LT PUSH2 0x46D6 JUMPI POP POP PUSH1 0x0 DUP1 JUMPDEST DUP3 DUP2 LT PUSH2 0x45DD JUMPI POP POP POP SWAP1 JUMP JUMPDEST PUSH1 0xFF PUSH2 0x45E8 DUP3 PUSH2 0x4192 JUMP JUMPDEST POP SLOAD AND PUSH2 0x45F4 DUP2 PUSH2 0x3E92 JUMP JUMPDEST ISZERO PUSH2 0x4602 JUMPI JUMPDEST PUSH1 0x1 ADD PUSH2 0x45D0 JUMP JUMPDEST SWAP1 PUSH2 0x46CE PUSH1 0x1 SWAP2 PUSH1 0xFF PUSH2 0x4614 DUP6 PUSH2 0x4192 JUMP JUMPDEST POP SLOAD AND PUSH2 0x4620 DUP6 PUSH2 0x4192 JUMP JUMPDEST POP PUSH2 0x462A DUP7 PUSH2 0x4192 JUMP JUMPDEST POP PUSH2 0x4693 PUSH1 0x3 DUP9 PUSH2 0x4688 PUSH1 0x2 PUSH1 0xFF PUSH1 0x4 PUSH2 0x464D PUSH2 0x4646 DUP7 PUSH2 0x4192 JUMP JUMPDEST POP SWAP6 PUSH2 0x4192 JUMP JUMPDEST POP ADD SLOAD AND SWAP6 PUSH2 0x467D DUP13 PUSH2 0x465E PUSH2 0x43B8 JUMP JUMPDEST SWAP10 PUSH1 0x40 MLOAD SWAP12 PUSH2 0x466C DUP14 PUSH2 0x3CBF JUMP JUMPDEST PUSH2 0x4675 DUP2 PUSH2 0x3E92 JUMP JUMPDEST DUP13 MSTORE ADD PUSH2 0x3CFB JUMP JUMPDEST PUSH1 0x20 DUP11 ADD MSTORE ADD PUSH2 0x3CFB JUMP JUMPDEST PUSH1 0x40 DUP8 ADD MSTORE ADD PUSH2 0x3CFB JUMP JUMPDEST PUSH1 0x60 DUP5 ADD MSTORE PUSH1 0x80 DUP4 ADD MSTORE PUSH1 0x40 MLOAD PUSH2 0x46AB PUSH1 0x20 DUP3 PUSH2 0x3CDA JUMP JUMPDEST PUSH1 0x0 DUP2 MSTORE PUSH1 0xA0 DUP4 ADD MSTORE PUSH1 0xC0 DUP3 ADD MSTORE PUSH2 0x46C3 DUP3 DUP9 PUSH2 0x452B JUMP JUMPDEST MSTORE PUSH2 0x630 DUP2 DUP8 PUSH2 0x452B JUMP JUMPDEST SWAP2 SWAP1 POP PUSH2 0x45FA JUMP JUMPDEST PUSH1 0x20 SWAP1 PUSH1 0x40 MLOAD PUSH2 0x46E5 DUP2 PUSH2 0x3CBF JUMP JUMPDEST PUSH1 0x0 DUP2 MSTORE PUSH1 0x60 DUP4 DUP3 ADD MSTORE PUSH1 0x60 PUSH1 0x40 DUP3 ADD MSTORE PUSH1 0x60 DUP1 DUP3 ADD MSTORE PUSH1 0x0 PUSH1 0x80 DUP3 ADD MSTORE PUSH1 0x60 PUSH1 0xA0 DUP3 ADD MSTORE PUSH1 0x60 PUSH1 0xC0 DUP3 ADD MSTORE DUP3 DUP3 DUP8 ADD ADD MSTORE ADD PUSH2 0x45C3 JUMP JUMPDEST PUSH1 0xFF PUSH2 0x4728 DUP3 PUSH2 0x4192 JUMP JUMPDEST POP SLOAD AND PUSH2 0x4734 DUP2 PUSH2 0x3E92 JUMP JUMPDEST ISZERO PUSH2 0x4742 JUMPI JUMPDEST PUSH1 0x1 ADD PUSH2 0x4591 JUMP JUMPDEST SWAP2 PUSH2 0x474E PUSH1 0x1 SWAP2 PUSH2 0x4393 JUMP JUMPDEST SWAP3 SWAP1 POP PUSH2 0x473A JUMP JUMPDEST PUSH1 0x20 PUSH1 0x44 SWAP2 PUSH1 0x40 MLOAD SWAP3 DUP4 DUP1 SWAP3 PUSH4 0x95A8C58D PUSH1 0xE0 SHL DUP3 MSTORE CALLER PUSH1 0x4 DUP4 ADD MSTORE PUSH1 0x0 PUSH1 0x24 DUP4 ADD MSTORE GAS STATICCALL SWAP1 DUP2 ISZERO PUSH2 0x127F JUMPI PUSH1 0x0 SWAP2 PUSH2 0x48E2 JUMPI JUMPDEST POP ISZERO PUSH2 0x487B JUMPI POP PUSH1 0x3 SLOAD PUSH2 0x479D DUP2 PUSH2 0x428E JUMP JUMPDEST SWAP1 PUSH2 0x47AB PUSH1 0x40 MLOAD SWAP3 DUP4 PUSH2 0x3CDA JUMP JUMPDEST DUP1 DUP3 MSTORE PUSH1 0x20 DUP3 ADD PUSH1 0x3 PUSH1 0x0 MSTORE PUSH32 0xC2575A0E9E593C00F959F8C92F12DB2869C3395A3B0502D05E2516446F71F85B PUSH1 0x0 SWAP2 JUMPDEST DUP4 DUP4 LT PUSH2 0x47EA JUMPI POP POP POP POP SWAP1 JUMP JUMPDEST PUSH1 0x7 PUSH1 0x20 PUSH1 0x1 SWAP3 PUSH1 0x40 MLOAD PUSH2 0x47FD DUP2 PUSH2 0x3CBF JUMP JUMPDEST PUSH1 0xFF DUP7 SLOAD AND PUSH2 0x480B DUP2 PUSH2 0x3E92 JUMP JUMPDEST DUP2 MSTORE PUSH2 0x4818 DUP6 DUP8 ADD PUSH2 0x3CFB JUMP JUMPDEST DUP4 DUP3 ADD MSTORE PUSH2 0x4828 PUSH1 0x2 DUP8 ADD PUSH2 0x3CFB JUMP JUMPDEST PUSH1 0x40 DUP3 ADD MSTORE PUSH2 0x4839 PUSH1 0x3 DUP8 ADD PUSH2 0x3CFB JUMP JUMPDEST PUSH1 0x60 DUP3 ADD MSTORE PUSH1 0xFF PUSH1 0x4 DUP8 ADD SLOAD AND PUSH1 0x80 DUP3 ADD MSTORE PUSH2 0x4857 PUSH1 0x5 DUP8 ADD PUSH2 0x3CFB JUMP JUMPDEST PUSH1 0xA0 DUP3 ADD MSTORE PUSH2 0x4868 PUSH1 0x6 DUP8 ADD PUSH2 0x433B JUMP JUMPDEST PUSH1 0xC0 DUP3 ADD MSTORE DUP2 MSTORE ADD SWAP3 ADD SWAP3 ADD SWAP2 SWAP1 PUSH2 0x47DC JUMP JUMPDEST PUSH1 0x40 MLOAD SWAP1 PUSH1 0x0 PUSH2 0x488C PUSH1 0x20 DUP5 PUSH2 0x3CDA JUMP JUMPDEST DUP3 MSTORE PUSH1 0x0 SWAP1 DUP2 JUMPDEST DUP3 DUP2 LT PUSH2 0x48A0 JUMPI POP POP POP SWAP1 JUMP JUMPDEST PUSH1 0x20 SWAP1 PUSH1 0x40 MLOAD PUSH2 0x48AF DUP2 PUSH2 0x3CBF JUMP JUMPDEST PUSH1 0x0 DUP2 MSTORE DUP4 DUP4 DUP3 ADD MSTORE DUP4 PUSH1 0x40 DUP3 ADD MSTORE DUP4 DUP1 DUP3 ADD MSTORE PUSH1 0x0 PUSH1 0x80 DUP3 ADD MSTORE DUP4 PUSH1 0xA0 DUP3 ADD MSTORE DUP4 PUSH1 0xC0 DUP3 ADD MSTORE DUP3 DUP3 DUP8 ADD ADD MSTORE ADD PUSH2 0x4893 JUMP JUMPDEST PUSH2 0x48FB SWAP2 POP PUSH1 0x20 RETURNDATASIZE PUSH1 0x20 GT PUSH2 0x1278 JUMPI PUSH2 0x126A DUP2 DUP4 PUSH2 0x3CDA JUMP JUMPDEST CODESIZE PUSH2 0x478A JUMP JUMPDEST PUSH2 0x491A SWAP2 POP PUSH1 0x20 RETURNDATASIZE PUSH1 0x20 GT PUSH2 0x1278 JUMPI PUSH2 0x126A DUP2 DUP4 PUSH2 0x3CDA JUMP JUMPDEST CODESIZE PUSH2 0x4581 JUMP JUMPDEST PUSH1 0x0 SWAP3 SWAP2 DUP2 SLOAD SWAP2 PUSH2 0x4930 DUP4 PUSH2 0x3C69 JUMP JUMPDEST SWAP3 PUSH1 0x1 DUP2 AND SWAP1 DUP2 ISZERO PUSH2 0x497B JUMPI POP PUSH1 0x1 EQ PUSH2 0x4949 JUMPI POP POP POP JUMP JUMPDEST SWAP1 SWAP2 SWAP3 SWAP4 POP PUSH1 0x0 MSTORE PUSH1 0x20 PUSH1 0x0 KECCAK256 PUSH1 0x0 SWAP1 JUMPDEST DUP4 DUP3 LT PUSH2 0x4967 JUMPI POP POP ADD SWAP1 JUMP JUMPDEST PUSH1 0x1 DUP2 PUSH1 0x20 SWAP3 SLOAD DUP5 DUP7 ADD MSTORE ADD SWAP2 ADD SWAP1 PUSH2 0x495A JUMP JUMPDEST PUSH1 0xFF NOT AND DUP4 MSTORE POP POP DUP2 ISZERO ISZERO SWAP1 SWAP2 MUL ADD SWAP2 POP JUMP JUMPDEST SWAP1 PUSH2 0x4998 DUP3 PUSH2 0x428E JUMP JUMPDEST PUSH2 0x49A5 PUSH1 0x40 MLOAD SWAP2 DUP3 PUSH2 0x3CDA JUMP JUMPDEST DUP3 DUP2 MSTORE DUP1 SWAP3 PUSH2 0x49B6 PUSH1 0x1F NOT SWAP2 PUSH2 0x428E JUMP JUMPDEST ADD SWAP1 PUSH1 0x20 CALLDATASIZE SWAP2 ADD CALLDATACOPY JUMP JUMPDEST PUSH1 0x40 MLOAD SWAP1 PUSH2 0x49CD DUP3 PUSH2 0x3CA3 JUMP JUMPDEST PUSH1 0x60 PUSH2 0x140 DUP4 DUP3 DUP2 MSTORE DUP3 PUSH1 0x20 DUP3 ADD MSTORE DUP3 PUSH1 0x40 DUP3 ADD MSTORE DUP3 DUP1 DUP3 ADD MSTORE DUP3 PUSH1 0x80 DUP3 ADD MSTORE DUP3 PUSH1 0xA0 DUP3 ADD MSTORE PUSH1 0x0 PUSH1 0xC0 DUP3 ADD MSTORE PUSH1 0x0 PUSH1 0xE0 DUP3 ADD MSTORE PUSH1 0x0 PUSH2 0x100 DUP3 ADD MSTORE PUSH1 0x0 PUSH2 0x120 DUP3 ADD MSTORE ADD MSTORE JUMP JUMPDEST ISZERO PUSH2 0x4A1C JUMPI JUMP JUMPDEST PUSH1 0x40 MLOAD PUSH3 0x461BCD PUSH1 0xE5 SHL DUP2 MSTORE PUSH1 0x20 PUSH1 0x4 DUP3 ADD MSTORE PUSH1 0x1B PUSH1 0x24 DUP3 ADD MSTORE PUSH32 0x4E6F206461746120666F756E64207769746820746869732049442E0000000000 PUSH1 0x44 DUP3 ADD MSTORE PUSH1 0x64 SWAP1 REVERT JUMPDEST DUP2 DUP2 LT PUSH2 0x4A6C JUMPI POP POP JUMP JUMPDEST PUSH1 0x0 DUP2 SSTORE PUSH1 0x1 ADD PUSH2 0x4A61 JUMP JUMPDEST SWAP2 SWAP1 PUSH1 0x1F DUP2 GT PUSH2 0x4A87 JUMPI POP POP POP JUMP JUMPDEST PUSH2 0x3D34 SWAP3 PUSH1 0x0 MSTORE PUSH1 0x20 PUSH1 0x0 KECCAK256 SWAP1 PUSH1 0x20 PUSH1 0x1F DUP5 ADD PUSH1 0x5 SHR DUP4 ADD SWAP4 LT PUSH2 0x4AB3 JUMPI JUMPDEST PUSH1 0x1F ADD PUSH1 0x5 SHR ADD SWAP1 PUSH2 0x4A61 JUMP JUMPDEST SWAP1 SWAP2 POP DUP2 SWAP1 PUSH2 0x4AA6 JUMP JUMPDEST PUSH1 0x0 SWAP3 SWAP2 DUP2 SLOAD SWAP2 PUSH2 0x4ACD DUP4 PUSH2 0x3C69 JUMP JUMPDEST DUP1 DUP4 MSTORE SWAP3 PUSH1 0x1 DUP2 AND SWAP1 DUP2 ISZERO PUSH2 0x4B23 JUMPI POP PUSH1 0x1 EQ PUSH2 0x4AE9 JUMPI POP POP POP JUMP JUMPDEST PUSH1 0x0 SWAP1 DUP2 MSTORE PUSH1 0x20 DUP2 KECCAK256 SWAP4 SWAP5 POP SWAP2 SWAP3 JUMPDEST DUP4 DUP4 LT PUSH2 0x4B09 JUMPI POP PUSH1 0x20 SWAP3 POP ADD ADD SWAP1 JUMP JUMPDEST PUSH1 0x1 DUP2 PUSH1 0x20 SWAP3 SWAP5 SWAP4 SWAP5 SLOAD DUP4 DUP6 DUP8 ADD ADD MSTORE ADD SWAP2 ADD SWAP2 SWAP1 PUSH2 0x4AF8 JUMP JUMPDEST SWAP2 POP POP PUSH1 0x20 SWAP4 SWAP5 POP PUSH1 0xFF SWAP3 SWAP2 SWAP3 NOT AND DUP4 DUP4 ADD MSTORE ISZERO ISZERO PUSH1 0x5 SHL ADD ADD SWAP1 JUMP JUMPDEST SWAP1 PUSH1 0x1 PUSH1 0x40 SHL DUP2 GT PUSH2 0x1139 JUMPI DUP2 SLOAD SWAP2 DUP2 DUP2 SSTORE DUP3 DUP3 LT PUSH2 0x4B5E JUMPI POP POP POP JUMP JUMPDEST PUSH1 0x0 MSTORE PUSH1 0x20 PUSH1 0x0 KECCAK256 SWAP2 DUP3 ADD SWAP2 ADD JUMPDEST DUP2 DUP2 LT PUSH2 0x4B77 JUMPI POP POP JUMP JUMPDEST DUP1 PUSH2 0x4B84 PUSH1 0x1 SWAP3 SLOAD PUSH2 0x3C69 JUMP JUMPDEST DUP1 PUSH2 0x4B91 JUMPI JUMPDEST POP ADD PUSH2 0x4B6C JUMP JUMPDEST PUSH1 0x1F DUP2 GT DUP4 EQ PUSH2 0x4BA7 JUMPI POP PUSH1 0x0 DUP2 SSTORE JUMPDEST CODESIZE PUSH2 0x4B8A JUMP JUMPDEST PUSH2 0x4BC5 SWAP1 DUP3 PUSH1 0x0 MSTORE DUP4 PUSH1 0x1F PUSH1 0x20 PUSH1 0x0 KECCAK256 SWAP3 ADD PUSH1 0x5 SHR DUP3 ADD SWAP2 ADD PUSH2 0x4A61 JUMP JUMPDEST DUP1 PUSH1 0x0 MSTORE PUSH1 0x0 PUSH1 0x20 DUP2 KECCAK256 DUP2 DUP4 SSTORE SSTORE PUSH2 0x4BA1 JUMP JUMPDEST SWAP2 SWAP1 SWAP2 DUP3 DUP2 EQ PUSH2 0x4CAF JUMPI PUSH2 0x4BEC DUP4 SLOAD PUSH2 0x3C69 JUMP JUMPDEST PUSH1 0x1 PUSH1 0x1 PUSH1 0x40 SHL SUB DUP2 GT PUSH2 0x1139 JUMPI PUSH2 0x4C08 DUP2 PUSH2 0x981 DUP5 SLOAD PUSH2 0x3C69 JUMP JUMPDEST PUSH1 0x0 SWAP4 PUSH1 0x1F DUP3 GT PUSH1 0x1 EQ PUSH2 0x4C49 JUMPI PUSH2 0x4C3A SWAP3 SWAP4 SWAP5 DUP3 SWAP2 PUSH1 0x0 SWAP3 PUSH2 0x4C3E JUMPI POP POP DUP2 PUSH1 0x1 SHL SWAP2 PUSH1 0x0 NOT SWAP1 PUSH1 0x3 SHL SHR NOT AND OR SWAP1 JUMP JUMPDEST SWAP1 SSTORE JUMP JUMPDEST ADD SLOAD SWAP1 POP CODESIZE DUP1 PUSH2 0x9AB JUMP JUMPDEST DUP5 MSTORE PUSH1 0x20 DUP1 DUP6 KECCAK256 DUP4 DUP7 MSTORE SWAP1 DUP6 KECCAK256 SWAP1 SWAP5 PUSH1 0x1F NOT DUP4 AND DUP2 JUMPDEST DUP2 DUP2 LT PUSH2 0x4C97 JUMPI POP SWAP6 DUP4 PUSH1 0x1 SWAP6 SWAP7 SWAP8 LT PUSH2 0x4C7E JUMPI JUMPDEST POP POP POP DUP2 SHL ADD SWAP1 SSTORE JUMP JUMPDEST ADD SLOAD PUSH1 0x0 NOT PUSH1 0xF8 DUP5 PUSH1 0x3 SHL AND SHR NOT AND SWAP1 SSTORE CODESIZE DUP1 DUP1 PUSH2 0x4C74 JUMP JUMPDEST SWAP2 SWAP3 PUSH1 0x1 DUP1 PUSH1 0x20 SWAP3 DUP7 DUP12 ADD SLOAD DUP2 SSTORE ADD SWAP5 ADD SWAP3 ADD PUSH2 0x4C5F JUMP JUMPDEST POP SWAP1 POP JUMP JUMPDEST DUP2 DUP2 EQ PUSH2 0x4D05 JUMPI DUP2 SLOAD SWAP2 PUSH2 0x4CC8 DUP4 DUP4 PUSH2 0x4B40 JUMP JUMPDEST PUSH1 0x0 MSTORE PUSH1 0x20 PUSH1 0x0 KECCAK256 SWAP1 PUSH1 0x0 MSTORE PUSH1 0x20 PUSH1 0x0 KECCAK256 PUSH1 0x0 SWAP2 JUMPDEST DUP4 DUP4 LT PUSH2 0x4CEA JUMPI POP POP POP POP JUMP JUMPDEST PUSH1 0x1 DUP1 DUP3 PUSH2 0x4CF9 DUP3 SWAP5 DUP7 PUSH2 0x4BD8 JUMP JUMPDEST ADD SWAP3 ADD SWAP3 ADD SWAP2 SWAP1 PUSH2 0x4CDD JUMP JUMPDEST POP POP JUMP JUMPDEST SWAP3 SWAP4 PUSH2 0x4D4C PUSH1 0xA0 SWAP6 PUSH2 0x4D3E PUSH1 0xFF SWAP6 PUSH2 0x4D30 PUSH2 0x4D5A SWAP7 SWAP13 SWAP12 SWAP11 SWAP13 PUSH1 0xC0 DUP11 MSTORE PUSH1 0xC0 DUP11 ADD SWAP1 PUSH2 0x4ABD JUMP JUMPDEST SWAP1 DUP9 DUP3 SUB PUSH1 0x20 DUP11 ADD MSTORE PUSH2 0x4ABD JUMP JUMPDEST SWAP1 DUP7 DUP3 SUB PUSH1 0x40 DUP9 ADD MSTORE PUSH2 0x4ABD JUMP JUMPDEST SWAP1 DUP5 DUP3 SUB PUSH1 0x60 DUP7 ADD MSTORE PUSH2 0x4ABD JUMP JUMPDEST SWAP6 AND PUSH1 0x80 DUP3 ADD MSTORE ADD MSTORE JUMP JUMPDEST SWAP2 SWAP1 DUP1 MLOAD SWAP3 DUP4 MLOAD PUSH1 0x1 PUSH1 0x1 PUSH1 0x40 SHL SUB DUP2 GT PUSH2 0x1139 JUMPI PUSH2 0x4D88 DUP2 PUSH2 0x981 DUP5 SLOAD PUSH2 0x3C69 JUMP JUMPDEST PUSH1 0x20 SWAP5 PUSH1 0x1F DUP3 GT PUSH1 0x1 EQ PUSH2 0x52FC JUMPI PUSH2 0x4DBB SWAP3 SWAP4 SWAP5 SWAP6 DUP3 SWAP2 PUSH1 0x0 SWAP3 PUSH2 0x1826 JUMPI POP POP DUP2 PUSH1 0x1 SHL SWAP2 PUSH1 0x0 NOT SWAP1 PUSH1 0x3 SHL SHR NOT AND OR SWAP1 JUMP JUMPDEST DUP2 SSTORE JUMPDEST PUSH1 0x1 DUP2 ADD PUSH1 0x20 DUP4 ADD MLOAD DUP1 MLOAD SWAP1 PUSH1 0x1 PUSH1 0x1 PUSH1 0x40 SHL SUB DUP3 GT PUSH2 0x1139 JUMPI PUSH2 0x4DE6 DUP3 PUSH2 0x2F03 DUP6 SLOAD PUSH2 0x3C69 JUMP JUMPDEST PUSH1 0x20 SWAP1 PUSH1 0x1F DUP4 GT PUSH1 0x1 EQ PUSH2 0x5295 JUMPI PUSH2 0x4E16 SWAP3 SWAP2 PUSH1 0x0 SWAP2 DUP4 PUSH2 0x1826 JUMPI POP POP DUP2 PUSH1 0x1 SHL SWAP2 PUSH1 0x0 NOT SWAP1 PUSH1 0x3 SHL SHR NOT AND OR SWAP1 JUMP JUMPDEST SWAP1 SSTORE JUMPDEST PUSH1 0x2 DUP2 ADD PUSH1 0x40 DUP4 ADD MLOAD DUP1 MLOAD SWAP1 PUSH1 0x1 PUSH1 0x1 PUSH1 0x40 SHL SUB DUP3 GT PUSH2 0x1139 JUMPI PUSH2 0x4E41 DUP3 PUSH2 0x2F03 DUP6 SLOAD PUSH2 0x3C69 JUMP JUMPDEST PUSH1 0x20 SWAP1 PUSH1 0x1F DUP4 GT PUSH1 0x1 EQ PUSH2 0x522E JUMPI PUSH2 0x4E71 SWAP3 SWAP2 PUSH1 0x0 SWAP2 DUP4 PUSH2 0x1826 JUMPI POP POP DUP2 PUSH1 0x1 SHL SWAP2 PUSH1 0x0 NOT SWAP1 PUSH1 0x3 SHL SHR NOT AND OR SWAP1 JUMP JUMPDEST SWAP1 SSTORE JUMPDEST PUSH1 0x3 DUP2 ADD PUSH1 0x60 DUP4 ADD MLOAD DUP1 MLOAD SWAP1 PUSH1 0x1 PUSH1 0x1 PUSH1 0x40 SHL SUB DUP3 GT PUSH2 0x1139 JUMPI PUSH2 0x4E9C DUP3 PUSH2 0x2F03 DUP6 SLOAD PUSH2 0x3C69 JUMP JUMPDEST PUSH1 0x20 SWAP1 PUSH1 0x1F DUP4 GT PUSH1 0x1 EQ PUSH2 0x51C7 JUMPI PUSH2 0x4ECC SWAP3 SWAP2 PUSH1 0x0 SWAP2 DUP4 PUSH2 0x1826 JUMPI POP POP DUP2 PUSH1 0x1 SHL SWAP2 PUSH1 0x0 NOT SWAP1 PUSH1 0x3 SHL SHR NOT AND OR SWAP1 JUMP JUMPDEST SWAP1 SSTORE JUMPDEST PUSH1 0xFF PUSH1 0x80 DUP4 ADD MLOAD AND PUSH1 0xFF PUSH1 0x4 DUP4 ADD SWAP2 AND PUSH1 0xFF NOT DUP3 SLOAD AND OR SWAP1 SSTORE PUSH1 0x5 DUP2 ADD PUSH1 0xA0 DUP4 ADD MLOAD DUP1 MLOAD SWAP1 PUSH1 0x1 PUSH1 0x1 PUSH1 0x40 SHL SUB DUP3 GT PUSH2 0x1139 JUMPI PUSH2 0x4F10 DUP3 PUSH2 0x2F03 DUP6 SLOAD PUSH2 0x3C69 JUMP JUMPDEST PUSH1 0x20 SWAP1 PUSH1 0x1F DUP4 GT PUSH1 0x1 EQ PUSH2 0x5160 JUMPI PUSH2 0x4F40 SWAP3 SWAP2 PUSH1 0x0 SWAP2 DUP4 PUSH2 0x1826 JUMPI POP POP DUP2 PUSH1 0x1 SHL SWAP2 PUSH1 0x0 NOT SWAP1 PUSH1 0x3 SHL SHR NOT AND OR SWAP1 JUMP JUMPDEST SWAP1 SSTORE JUMPDEST PUSH1 0x6 DUP2 ADD PUSH1 0xC0 DUP4 ADD MLOAD DUP1 MLOAD SWAP1 PUSH1 0x1 PUSH1 0x1 PUSH1 0x40 SHL SUB DUP3 GT PUSH2 0x1139 JUMPI PUSH2 0x4F6B DUP3 PUSH2 0x2F03 DUP6 SLOAD PUSH2 0x3C69 JUMP JUMPDEST PUSH1 0x20 SWAP1 PUSH1 0x1F DUP4 GT PUSH1 0x1 EQ PUSH2 0x50F2 JUMPI DUP3 PUSH2 0x160 SWAP6 SWAP4 PUSH1 0xB SWAP6 SWAP4 PUSH2 0x4FA3 SWAP4 PUSH1 0x0 SWAP3 PUSH2 0x1826 JUMPI POP POP DUP2 PUSH1 0x1 SHL SWAP2 PUSH1 0x0 NOT SWAP1 PUSH1 0x3 SHL SHR NOT AND OR SWAP1 JUMP JUMPDEST SWAP1 SSTORE JUMPDEST PUSH1 0x7 DUP2 ADD PUSH1 0xE0 DUP6 ADD MLOAD PUSH2 0x4FB8 DUP2 PUSH2 0x3DE7 JUMP JUMPDEST PUSH2 0x4FC1 DUP2 PUSH2 0x3DE7 JUMP JUMPDEST PUSH1 0xFF DUP1 NOT DUP4 SLOAD AND SWAP2 AND OR SWAP1 SSTORE PUSH2 0x100 DUP5 ADD MLOAD PUSH1 0x8 DUP3 ADD SSTORE PUSH2 0x120 DUP5 ADD MLOAD PUSH1 0x9 DUP3 ADD SSTORE PUSH2 0x140 DUP5 ADD MLOAD PUSH1 0xA DUP3 ADD SSTORE ADD SWAP2 ADD MLOAD PUSH1 0x20 DUP2 MLOAD SWAP2 PUSH2 0x5001 DUP4 DUP6 PUSH2 0x4B40 JUMP JUMPDEST ADD SWAP2 PUSH1 0x0 MSTORE PUSH1 0x20 PUSH1 0x0 KECCAK256 SWAP2 PUSH1 0x0 SWAP1 JUMPDEST DUP3 DUP3 LT PUSH2 0x501D JUMPI POP POP POP POP JUMP JUMPDEST DUP1 MLOAD DUP1 MLOAD SWAP1 PUSH1 0x1 PUSH1 0x1 PUSH1 0x40 SHL SUB DUP3 GT PUSH2 0x1139 JUMPI PUSH2 0x503E DUP3 PUSH2 0x16C4 DUP9 SLOAD PUSH2 0x3C69 JUMP JUMPDEST PUSH1 0x20 SWAP1 PUSH1 0x1F DUP4 GT PUSH1 0x1 EQ PUSH2 0x5085 JUMPI SWAP3 PUSH2 0x5076 DUP4 PUSH1 0x1 SWAP6 SWAP5 PUSH1 0x20 SWAP5 DUP8 SWAP7 PUSH1 0x0 SWAP3 PUSH2 0x1826 JUMPI POP POP DUP2 PUSH1 0x1 SHL SWAP2 PUSH1 0x0 NOT SWAP1 PUSH1 0x3 SHL SHR NOT AND OR SWAP1 JUMP JUMPDEST DUP8 SSTORE JUMPDEST ADD SWAP5 ADD SWAP2 ADD SWAP1 SWAP3 PUSH2 0x5010 JUMP JUMPDEST SWAP1 PUSH1 0x1F NOT DUP4 AND SWAP2 DUP8 PUSH1 0x0 MSTORE DUP2 PUSH1 0x0 KECCAK256 SWAP3 PUSH1 0x0 JUMPDEST DUP2 DUP2 LT PUSH2 0x50DA JUMPI POP SWAP4 PUSH1 0x20 SWAP4 PUSH1 0x1 SWAP7 SWAP4 DUP8 SWAP7 SWAP4 DUP4 DUP9 SWAP6 LT PUSH2 0x50C1 JUMPI JUMPDEST POP POP POP DUP2 SHL ADD DUP8 SSTORE PUSH2 0x5079 JUMP JUMPDEST ADD MLOAD PUSH1 0x0 NOT PUSH1 0xF8 DUP5 PUSH1 0x3 SHL AND SHR NOT AND SWAP1 SSTORE CODESIZE DUP1 DUP1 PUSH2 0x50B4 JUMP JUMPDEST SWAP3 SWAP4 PUSH1 0x20 PUSH1 0x1 DUP2 SWAP3 DUP8 DUP7 ADD MLOAD DUP2 SSTORE ADD SWAP6 ADD SWAP4 ADD PUSH2 0x5098 JUMP JUMPDEST SWAP1 PUSH1 0x1F NOT DUP4 AND SWAP2 DUP5 PUSH1 0x0 MSTORE DUP2 PUSH1 0x0 KECCAK256 SWAP3 PUSH1 0x0 JUMPDEST DUP2 DUP2 LT PUSH2 0x5148 JUMPI POP SWAP3 PUSH1 0x1 SWAP3 DUP6 SWAP3 PUSH2 0x160 SWAP9 SWAP7 PUSH1 0xB SWAP9 SWAP7 LT PUSH2 0x512F JUMPI JUMPDEST POP POP POP DUP2 SHL ADD SWAP1 SSTORE PUSH2 0x4FA6 JUMP JUMPDEST ADD MLOAD PUSH1 0x0 NOT PUSH1 0xF8 DUP5 PUSH1 0x3 SHL AND SHR NOT AND SWAP1 SSTORE CODESIZE DUP1 DUP1 PUSH2 0x5122 JUMP JUMPDEST SWAP3 SWAP4 PUSH1 0x20 PUSH1 0x1 DUP2 SWAP3 DUP8 DUP7 ADD MLOAD DUP2 SSTORE ADD SWAP6 ADD SWAP4 ADD PUSH2 0x5105 JUMP JUMPDEST SWAP1 PUSH1 0x1F NOT DUP4 AND SWAP2 DUP5 PUSH1 0x0 MSTORE DUP2 PUSH1 0x0 KECCAK256 SWAP3 PUSH1 0x0 JUMPDEST DUP2 DUP2 LT PUSH2 0x51AF JUMPI POP SWAP1 DUP5 PUSH1 0x1 SWAP6 SWAP5 SWAP4 SWAP3 LT PUSH2 0x5196 JUMPI JUMPDEST POP POP POP DUP2 SHL ADD SWAP1 SSTORE PUSH2 0x4F43 JUMP JUMPDEST ADD MLOAD PUSH1 0x0 NOT PUSH1 0xF8 DUP5 PUSH1 0x3 SHL AND SHR NOT AND SWAP1 SSTORE CODESIZE DUP1 DUP1 PUSH2 0x5189 JUMP JUMPDEST SWAP3 SWAP4 PUSH1 0x20 PUSH1 0x1 DUP2 SWAP3 DUP8 DUP7 ADD MLOAD DUP2 SSTORE ADD SWAP6 ADD SWAP4 ADD PUSH2 0x5173 JUMP JUMPDEST SWAP1 PUSH1 0x1F NOT DUP4 AND SWAP2 DUP5 PUSH1 0x0 MSTORE DUP2 PUSH1 0x0 KECCAK256 SWAP3 PUSH1 0x0 JUMPDEST DUP2 DUP2 LT PUSH2 0x5216 JUMPI POP SWAP1 DUP5 PUSH1 0x1 SWAP6 SWAP5 SWAP4 SWAP3 LT PUSH2 0x51FD JUMPI JUMPDEST POP POP POP DUP2 SHL ADD SWAP1 SSTORE PUSH2 0x4ECF JUMP JUMPDEST ADD MLOAD PUSH1 0x0 NOT PUSH1 0xF8 DUP5 PUSH1 0x3 SHL AND SHR NOT AND SWAP1 SSTORE CODESIZE DUP1 DUP1 PUSH2 0x51F0 JUMP JUMPDEST SWAP3 SWAP4 PUSH1 0x20 PUSH1 0x1 DUP2 SWAP3 DUP8 DUP7 ADD MLOAD DUP2 SSTORE ADD SWAP6 ADD SWAP4 ADD PUSH2 0x51DA JUMP JUMPDEST SWAP1 PUSH1 0x1F NOT DUP4 AND SWAP2 DUP5 PUSH1 0x0 MSTORE DUP2 PUSH1 0x0 KECCAK256 SWAP3 PUSH1 0x0 JUMPDEST DUP2 DUP2 LT PUSH2 0x527D JUMPI POP SWAP1 DUP5 PUSH1 0x1 SWAP6 SWAP5 SWAP4 SWAP3 LT PUSH2 0x5264 JUMPI JUMPDEST POP POP POP DUP2 SHL ADD SWAP1 SSTORE PUSH2 0x4E74 JUMP JUMPDEST ADD MLOAD PUSH1 0x0 NOT PUSH1 0xF8 DUP5 PUSH1 0x3 SHL AND SHR NOT AND SWAP1 SSTORE CODESIZE DUP1 DUP1 PUSH2 0x5257 JUMP JUMPDEST SWAP3 SWAP4 PUSH1 0x20 PUSH1 0x1 DUP2 SWAP3 DUP8 DUP7 ADD MLOAD DUP2 SSTORE ADD SWAP6 ADD SWAP4 ADD PUSH2 0x5241 JUMP JUMPDEST SWAP1 PUSH1 0x1F NOT DUP4 AND SWAP2 DUP5 PUSH1 0x0 MSTORE DUP2 PUSH1 0x0 KECCAK256 SWAP3 PUSH1 0x0 JUMPDEST DUP2 DUP2 LT PUSH2 0x52E4 JUMPI POP SWAP1 DUP5 PUSH1 0x1 SWAP6 SWAP5 SWAP4 SWAP3 LT PUSH2 0x52CB JUMPI JUMPDEST POP POP POP DUP2 SHL ADD SWAP1 SSTORE PUSH2 0x4E19 JUMP JUMPDEST ADD MLOAD PUSH1 0x0 NOT PUSH1 0xF8 DUP5 PUSH1 0x3 SHL AND SHR NOT AND SWAP1 SSTORE CODESIZE DUP1 DUP1 PUSH2 0x52BE JUMP JUMPDEST SWAP3 SWAP4 PUSH1 0x20 PUSH1 0x1 DUP2 SWAP3 DUP8 DUP7 ADD MLOAD DUP2 SSTORE ADD SWAP6 ADD SWAP4 ADD PUSH2 0x52A8 JUMP JUMPDEST PUSH1 0x1F NOT DUP3 AND SWAP6 DUP4 PUSH1 0x0 MSTORE DUP1 PUSH1 0x0 KECCAK256 SWAP2 PUSH1 0x0 JUMPDEST DUP9 DUP2 LT PUSH2 0x5349 JUMPI POP DUP4 PUSH1 0x1 SWAP6 SWAP7 SWAP8 SWAP9 LT PUSH2 0x5330 JUMPI JUMPDEST POP POP POP DUP2 SHL ADD DUP2 SSTORE PUSH2 0x4DBE JUMP JUMPDEST ADD MLOAD PUSH1 0x0 NOT PUSH1 0xF8 DUP5 PUSH1 0x3 SHL AND SHR NOT AND SWAP1 SSTORE CODESIZE DUP1 DUP1 PUSH2 0x5323 JUMP JUMPDEST SWAP2 SWAP3 PUSH1 0x20 PUSH1 0x1 DUP2 SWAP3 DUP7 DUP6 ADD MLOAD DUP2 SSTORE ADD SWAP5 ADD SWAP3 ADD PUSH2 0x530E JUMP JUMPDEST ISZERO PUSH2 0x5368 JUMPI JUMP JUMPDEST PUSH1 0x64 PUSH1 0x40 MLOAD PUSH3 0x461BCD PUSH1 0xE5 SHL DUP2 MSTORE PUSH1 0x20 PUSH1 0x4 DUP3 ADD MSTORE PUSH1 0x20 PUSH1 0x24 DUP3 ADD MSTORE PUSH32 0x416363657373207265737472696374656420746F2050616272696B20726F6C65 PUSH1 0x44 DUP3 ADD MSTORE REVERT JUMPDEST DUP2 MLOAD PUSH2 0x53B7 DUP2 PUSH2 0x3E92 JUMP JUMPDEST PUSH2 0x53C0 DUP2 PUSH2 0x3E92 JUMP JUMPDEST PUSH1 0xFF DUP1 NOT DUP4 SLOAD AND SWAP2 AND OR DUP2 SSTORE PUSH1 0x1 DUP2 ADD PUSH1 0x20 DUP4 ADD MLOAD DUP1 MLOAD SWAP1 PUSH1 0x1 PUSH1 0x1 PUSH1 0x40 SHL SUB DUP3 GT PUSH2 0x1139 JUMPI PUSH2 0x53F4 DUP3 PUSH2 0x2F03 DUP6 SLOAD PUSH2 0x3C69 JUMP JUMPDEST PUSH1 0x20 SWAP1 PUSH1 0x1F DUP4 GT PUSH1 0x1 EQ PUSH2 0x5797 JUMPI PUSH2 0x5424 SWAP3 SWAP2 PUSH1 0x0 SWAP2 DUP4 PUSH2 0x1826 JUMPI POP POP DUP2 PUSH1 0x1 SHL SWAP2 PUSH1 0x0 NOT SWAP1 PUSH1 0x3 SHL SHR NOT AND OR SWAP1 JUMP JUMPDEST SWAP1 SSTORE JUMPDEST PUSH1 0x2 DUP2 ADD PUSH1 0x40 DUP4 ADD MLOAD DUP1 MLOAD SWAP1 PUSH1 0x1 PUSH1 0x1 PUSH1 0x40 SHL SUB DUP3 GT PUSH2 0x1139 JUMPI PUSH2 0x544F DUP3 PUSH2 0x2F03 DUP6 SLOAD PUSH2 0x3C69 JUMP JUMPDEST PUSH1 0x20 SWAP1 PUSH1 0x1F DUP4 GT PUSH1 0x1 EQ PUSH2 0x5730 JUMPI PUSH2 0x547F SWAP3 SWAP2 PUSH1 0x0 SWAP2 DUP4 PUSH2 0x1826 JUMPI POP POP DUP2 PUSH1 0x1 SHL SWAP2 PUSH1 0x0 NOT SWAP1 PUSH1 0x3 SHL SHR NOT AND OR SWAP1 JUMP JUMPDEST SWAP1 SSTORE JUMPDEST PUSH1 0x3 DUP2 ADD PUSH1 0x60 DUP4 ADD MLOAD DUP1 MLOAD SWAP1 PUSH1 0x1 PUSH1 0x1 PUSH1 0x40 SHL SUB DUP3 GT PUSH2 0x1139 JUMPI PUSH2 0x54AA DUP3 PUSH2 0x2F03 DUP6 SLOAD PUSH2 0x3C69 JUMP JUMPDEST PUSH1 0x20 SWAP1 PUSH1 0x1F DUP4 GT PUSH1 0x1 EQ PUSH2 0x56C9 JUMPI PUSH2 0x54DA SWAP3 SWAP2 PUSH1 0x0 SWAP2 DUP4 PUSH2 0x1826 JUMPI POP POP DUP2 PUSH1 0x1 SHL SWAP2 PUSH1 0x0 NOT SWAP1 PUSH1 0x3 SHL SHR NOT AND OR SWAP1 JUMP JUMPDEST SWAP1 SSTORE JUMPDEST PUSH1 0xFF PUSH1 0x80 DUP4 ADD MLOAD AND PUSH1 0xFF PUSH1 0x4 DUP4 ADD SWAP2 AND PUSH1 0xFF NOT DUP3 SLOAD AND OR SWAP1 SSTORE PUSH1 0x5 DUP2 ADD PUSH1 0xA0 DUP4 ADD MLOAD DUP1 MLOAD SWAP1 PUSH1 0x1 PUSH1 0x1 PUSH1 0x40 SHL SUB DUP3 GT PUSH2 0x1139 JUMPI PUSH2 0x551E DUP3 PUSH2 0x2F03 DUP6 SLOAD PUSH2 0x3C69 JUMP JUMPDEST PUSH1 0x20 SWAP1 PUSH1 0x1F DUP4 GT PUSH1 0x1 EQ PUSH2 0x565C JUMPI DUP3 PUSH1 0xC0 SWAP6 SWAP4 PUSH1 0x6 SWAP6 SWAP4 PUSH2 0x5555 SWAP4 PUSH1 0x0 SWAP3 PUSH2 0x1826 JUMPI POP POP DUP2 PUSH1 0x1 SHL SWAP2 PUSH1 0x0 NOT SWAP1 PUSH1 0x3 SHL SHR NOT AND OR SWAP1 JUMP JUMPDEST SWAP1 SSTORE JUMPDEST ADD SWAP2 ADD MLOAD PUSH1 0x20 DUP2 MLOAD SWAP2 PUSH2 0x556B DUP4 DUP6 PUSH2 0x4B40 JUMP JUMPDEST ADD SWAP2 PUSH1 0x0 MSTORE PUSH1 0x20 PUSH1 0x0 KECCAK256 SWAP2 PUSH1 0x0 SWAP1 JUMPDEST DUP3 DUP3 LT PUSH2 0x5587 JUMPI POP POP POP POP JUMP JUMPDEST DUP1 MLOAD DUP1 MLOAD SWAP1 PUSH1 0x1 PUSH1 0x1 PUSH1 0x40 SHL SUB DUP3 GT PUSH2 0x1139 JUMPI PUSH2 0x55A8 DUP3 PUSH2 0x16C4 DUP9 SLOAD PUSH2 0x3C69 JUMP JUMPDEST PUSH1 0x20 SWAP1 PUSH1 0x1F DUP4 GT PUSH1 0x1 EQ PUSH2 0x55EF JUMPI SWAP3 PUSH2 0x55E0 DUP4 PUSH1 0x1 SWAP6 SWAP5 PUSH1 0x20 SWAP5 DUP8 SWAP7 PUSH1 0x0 SWAP3 PUSH2 0x1826 JUMPI POP POP DUP2 PUSH1 0x1 SHL SWAP2 PUSH1 0x0 NOT SWAP1 PUSH1 0x3 SHL SHR NOT AND OR SWAP1 JUMP JUMPDEST DUP8 SSTORE JUMPDEST ADD SWAP5 ADD SWAP2 ADD SWAP1 SWAP3 PUSH2 0x557A JUMP JUMPDEST SWAP1 PUSH1 0x1F NOT DUP4 AND SWAP2 DUP8 PUSH1 0x0 MSTORE DUP2 PUSH1 0x0 KECCAK256 SWAP3 PUSH1 0x0 JUMPDEST DUP2 DUP2 LT PUSH2 0x5644 JUMPI POP SWAP4 PUSH1 0x20 SWAP4 PUSH1 0x1 SWAP7 SWAP4 DUP8 SWAP7 SWAP4 DUP4 DUP9 SWAP6 LT PUSH2 0x562B JUMPI JUMPDEST POP POP POP DUP2 SHL ADD DUP8 SSTORE PUSH2 0x55E3 JUMP JUMPDEST ADD MLOAD PUSH1 0x0 NOT PUSH1 0xF8 DUP5 PUSH1 0x3 SHL AND SHR NOT AND SWAP1 SSTORE CODESIZE DUP1 DUP1 PUSH2 0x561E JUMP JUMPDEST SWAP3 SWAP4 PUSH1 0x20 PUSH1 0x1 DUP2 SWAP3 DUP8 DUP7 ADD MLOAD DUP2 SSTORE ADD SWAP6 ADD SWAP4 ADD PUSH2 0x5602 JUMP JUMPDEST SWAP1 PUSH1 0x1F NOT DUP4 AND SWAP2 DUP5 PUSH1 0x0 MSTORE DUP2 PUSH1 0x0 KECCAK256 SWAP3 PUSH1 0x0 JUMPDEST DUP2 DUP2 LT PUSH2 0x56B1 JUMPI POP SWAP3 PUSH1 0x1 SWAP3 DUP6 SWAP3 PUSH1 0xC0 SWAP9 SWAP7 PUSH1 0x6 SWAP9 SWAP7 LT PUSH2 0x5698 JUMPI JUMPDEST POP POP POP DUP2 SHL ADD SWAP1 SSTORE PUSH2 0x5558 JUMP JUMPDEST ADD MLOAD PUSH1 0x0 NOT PUSH1 0xF8 DUP5 PUSH1 0x3 SHL AND SHR NOT AND SWAP1 SSTORE CODESIZE DUP1 DUP1 PUSH2 0x568B JUMP JUMPDEST SWAP3 SWAP4 PUSH1 0x20 PUSH1 0x1 DUP2 SWAP3 DUP8 DUP7 ADD MLOAD DUP2 SSTORE ADD SWAP6 ADD SWAP4 ADD PUSH2 0x566F JUMP JUMPDEST SWAP1 PUSH1 0x1F NOT DUP4 AND SWAP2 DUP5 PUSH1 0x0 MSTORE DUP2 PUSH1 0x0 KECCAK256 SWAP3 PUSH1 0x0 JUMPDEST DUP2 DUP2 LT PUSH2 0x5718 JUMPI POP SWAP1 DUP5 PUSH1 0x1 SWAP6 SWAP5 SWAP4 SWAP3 LT PUSH2 0x56FF JUMPI JUMPDEST POP POP POP DUP2 SHL ADD SWAP1 SSTORE PUSH2 0x54DD JUMP JUMPDEST ADD MLOAD PUSH1 0x0 NOT PUSH1 0xF8 DUP5 PUSH1 0x3 SHL AND SHR NOT AND SWAP1 SSTORE CODESIZE DUP1 DUP1 PUSH2 0x56F2 JUMP JUMPDEST SWAP3 SWAP4 PUSH1 0x20 PUSH1 0x1 DUP2 SWAP3 DUP8 DUP7 ADD MLOAD DUP2 SSTORE ADD SWAP6 ADD SWAP4 ADD PUSH2 0x56DC JUMP JUMPDEST SWAP1 PUSH1 0x1F NOT DUP4 AND SWAP2 DUP5 PUSH1 0x0 MSTORE DUP2 PUSH1 0x0 KECCAK256 SWAP3 PUSH1 0x0 JUMPDEST DUP2 DUP2 LT PUSH2 0x577F JUMPI POP SWAP1 DUP5 PUSH1 0x1 SWAP6 SWAP5 SWAP4 SWAP3 LT PUSH2 0x5766 JUMPI JUMPDEST POP POP POP DUP2 SHL ADD SWAP1 SSTORE PUSH2 0x5482 JUMP JUMPDEST ADD MLOAD PUSH1 0x0 NOT PUSH1 0xF8 DUP5 PUSH1 0x3 SHL AND SHR NOT AND SWAP1 SSTORE CODESIZE DUP1 DUP1 PUSH2 0x5759 JUMP JUMPDEST SWAP3 SWAP4 PUSH1 0x20 PUSH1 0x1 DUP2 SWAP3 DUP8 DUP7 ADD MLOAD DUP2 SSTORE ADD SWAP6 ADD SWAP4 ADD PUSH2 0x5743 JUMP JUMPDEST SWAP1 PUSH1 0x1F NOT DUP4 AND SWAP2 DUP5 PUSH1 0x0 MSTORE DUP2 PUSH1 0x0 KECCAK256 SWAP3 PUSH1 0x0 JUMPDEST DUP2 DUP2 LT PUSH2 0x57E6 JUMPI POP SWAP1 DUP5 PUSH1 0x1 SWAP6 SWAP5 SWAP4 SWAP3 LT PUSH2 0x57CD JUMPI JUMPDEST POP POP POP DUP2 SHL ADD SWAP1 SSTORE PUSH2 0x5427 JUMP JUMPDEST ADD MLOAD PUSH1 0x0 NOT PUSH1 0xF8 DUP5 PUSH1 0x3 SHL AND SHR NOT AND SWAP1 SSTORE CODESIZE DUP1 DUP1 PUSH2 0x57C0 JUMP JUMPDEST SWAP3 SWAP4 PUSH1 0x20 PUSH1 0x1 DUP2 SWAP3 DUP8 DUP7 ADD MLOAD DUP2 SSTORE ADD SWAP6 ADD SWAP4 ADD PUSH2 0x57AA JUMP JUMPDEST PUSH1 0x3 SLOAD PUSH1 0x1 PUSH1 0x40 SHL DUP2 LT ISZERO PUSH2 0x1139 JUMPI PUSH1 0x1 DUP2 ADD PUSH1 0x3 SSTORE PUSH1 0x0 PUSH1 0x3 SLOAD DUP3 LT ISZERO PUSH2 0x5853 JUMPI PUSH1 0x3 SWAP1 MSTORE PUSH1 0x7 MUL PUSH32 0xC2575A0E9E593C00F959F8C92F12DB2869C3395A3B0502D05E2516446F71F85B ADD SWAP1 PUSH2 0x3D34 SWAP2 PUSH2 0x53AC JUMP JUMPDEST PUSH4 0x4E487B71 PUSH1 0xE0 SHL DUP2 MSTORE PUSH1 0x32 PUSH1 0x4 MSTORE PUSH1 0x24 SWAP1 REVERT JUMPDEST SWAP2 DUP2 MLOAD SWAP3 DUP4 MLOAD PUSH1 0x1 PUSH1 0x1 PUSH1 0x40 SHL SUB DUP2 GT PUSH2 0x1139 JUMPI PUSH2 0x5889 DUP2 PUSH2 0x981 DUP5 SLOAD PUSH2 0x3C69 JUMP JUMPDEST PUSH1 0x20 SWAP5 PUSH1 0x1F DUP3 GT PUSH1 0x1 EQ PUSH2 0x5E35 JUMPI PUSH2 0x58BC SWAP3 SWAP4 SWAP5 SWAP6 DUP3 SWAP2 PUSH1 0x0 SWAP3 PUSH2 0x1826 JUMPI POP POP DUP2 PUSH1 0x1 SHL SWAP2 PUSH1 0x0 NOT SWAP1 PUSH1 0x3 SHL SHR NOT AND OR SWAP1 JUMP JUMPDEST DUP2 SSTORE JUMPDEST PUSH1 0x1 DUP2 ADD PUSH1 0x20 DUP5 ADD MLOAD DUP1 MLOAD SWAP1 PUSH1 0x1 PUSH1 0x1 PUSH1 0x40 SHL SUB DUP3 GT PUSH2 0x1139 JUMPI PUSH2 0x58E7 DUP3 PUSH2 0x2F03 DUP6 SLOAD PUSH2 0x3C69 JUMP JUMPDEST PUSH1 0x20 SWAP1 PUSH1 0x1F DUP4 GT PUSH1 0x1 EQ PUSH2 0x5DCE JUMPI PUSH2 0x5917 SWAP3 SWAP2 PUSH1 0x0 SWAP2 DUP4 PUSH2 0x1826 JUMPI POP POP DUP2 PUSH1 0x1 SHL SWAP2 PUSH1 0x0 NOT SWAP1 PUSH1 0x3 SHL SHR NOT AND OR SWAP1 JUMP JUMPDEST SWAP1 SSTORE JUMPDEST PUSH1 0x2 DUP2 ADD PUSH1 0x40 DUP5 ADD MLOAD DUP1 MLOAD SWAP1 PUSH1 0x1 PUSH1 0x1 PUSH1 0x40 SHL SUB DUP3 GT PUSH2 0x1139 JUMPI PUSH2 0x5942 DUP3 PUSH2 0x2F03 DUP6 SLOAD PUSH2 0x3C69 JUMP JUMPDEST PUSH1 0x20 SWAP1 PUSH1 0x1F DUP4 GT PUSH1 0x1 EQ PUSH2 0x5D67 JUMPI PUSH2 0x5972 SWAP3 SWAP2 PUSH1 0x0 SWAP2 DUP4 PUSH2 0x1826 JUMPI POP POP DUP2 PUSH1 0x1 SHL SWAP2 PUSH1 0x0 NOT SWAP1 PUSH1 0x3 SHL SHR NOT AND OR SWAP1 JUMP JUMPDEST SWAP1 SSTORE JUMPDEST PUSH1 0x3 DUP2 ADD PUSH1 0x60 DUP5 ADD MLOAD PUSH1 0x20 DUP2 MLOAD SWAP2 PUSH2 0x598D DUP4 DUP6 PUSH2 0x4B40 JUMP JUMPDEST ADD SWAP2 PUSH1 0x0 MSTORE PUSH1 0x20 PUSH1 0x0 KECCAK256 SWAP2 PUSH1 0x0 SWAP1 JUMPDEST DUP3 DUP3 LT PUSH2 0x5C92 JUMPI POP POP POP POP PUSH1 0x4 DUP2 ADD PUSH1 0x80 DUP5 ADD MLOAD DUP1 MLOAD SWAP1 PUSH1 0x1 PUSH1 0x1 PUSH1 0x40 SHL SUB DUP3 GT PUSH2 0x1139 JUMPI PUSH2 0x59CF DUP3 PUSH2 0x2F03 DUP6 SLOAD PUSH2 0x3C69 JUMP JUMPDEST PUSH1 0x20 SWAP1 PUSH1 0x1F DUP4 GT PUSH1 0x1 EQ PUSH2 0x5C2B JUMPI PUSH2 0x59FF SWAP3 SWAP2 PUSH1 0x0 SWAP2 DUP4 PUSH2 0x1826 JUMPI POP POP DUP2 PUSH1 0x1 SHL SWAP2 PUSH1 0x0 NOT SWAP1 PUSH1 0x3 SHL SHR NOT AND OR SWAP1 JUMP JUMPDEST SWAP1 SSTORE JUMPDEST PUSH1 0x5 DUP2 ADD PUSH1 0xA0 DUP5 ADD MLOAD PUSH1 0x20 DUP2 MLOAD SWAP2 PUSH2 0x5A1A DUP4 DUP6 PUSH2 0x4B40 JUMP JUMPDEST ADD SWAP2 PUSH1 0x0 MSTORE PUSH1 0x20 PUSH1 0x0 KECCAK256 SWAP2 PUSH1 0x0 SWAP1 JUMPDEST DUP3 DUP3 LT PUSH2 0x5B56 JUMPI POP POP POP POP PUSH1 0x9 DUP2 PUSH1 0x6 PUSH2 0x140 SWAP4 ADD PUSH1 0xC0 DUP7 ADD MLOAD PUSH2 0x5A4C DUP2 PUSH2 0x3E92 JUMP JUMPDEST PUSH2 0x5A55 DUP2 PUSH2 0x3E92 JUMP JUMPDEST PUSH1 0xFF DUP1 NOT DUP4 SLOAD AND SWAP2 AND OR DUP2 SSTORE PUSH1 0xE0 DUP7 ADD MLOAD PUSH2 0x5A6F DUP2 PUSH2 0x3DE7 JUMP JUMPDEST PUSH2 0x5A78 DUP2 PUSH2 0x3DE7 JUMP JUMPDEST PUSH2 0xFF00 DUP3 SLOAD SWAP2 PUSH1 0x8 SHL AND SWAP1 PUSH2 0xFF00 NOT AND OR SWAP1 SSTORE PUSH2 0x100 DUP6 ADD MLOAD PUSH1 0x7 DUP3 ADD SSTORE PUSH2 0x120 DUP6 ADD MLOAD PUSH1 0x8 DUP3 ADD SSTORE ADD SWAP3 ADD MLOAD SWAP2 DUP3 MLOAD PUSH1 0x1 PUSH1 0x1 PUSH1 0x40 SHL SUB DUP2 GT PUSH2 0x1139 JUMPI PUSH2 0x5AC4 DUP2 PUSH2 0x981 DUP5 SLOAD PUSH2 0x3C69 JUMP JUMPDEST PUSH1 0x20 PUSH1 0x1F DUP3 GT PUSH1 0x1 EQ PUSH2 0x5AF5 JUMPI DUP2 SWAP1 PUSH2 0x4C3A SWAP4 SWAP5 SWAP6 PUSH1 0x0 SWAP3 PUSH2 0x1826 JUMPI POP POP DUP2 PUSH1 0x1 SHL SWAP2 PUSH1 0x0 NOT SWAP1 PUSH1 0x3 SHL SHR NOT AND OR SWAP1 JUMP JUMPDEST PUSH1 0x1F NOT DUP3 AND SWAP1 DUP4 PUSH1 0x0 MSTORE DUP1 PUSH1 0x0 KECCAK256 SWAP2 PUSH1 0x0 JUMPDEST DUP2 DUP2 LT PUSH2 0x5B3E JUMPI POP SWAP6 DUP4 PUSH1 0x1 SWAP6 SWAP7 SWAP8 LT PUSH2 0x5B25 JUMPI POP POP POP DUP2 SHL ADD SWAP1 SSTORE JUMP JUMPDEST ADD MLOAD PUSH1 0x0 NOT PUSH1 0xF8 DUP5 PUSH1 0x3 SHL AND SHR NOT AND SWAP1 SSTORE CODESIZE DUP1 DUP1 PUSH2 0x4C74 JUMP JUMPDEST SWAP2 SWAP3 PUSH1 0x20 PUSH1 0x1 DUP2 SWAP3 DUP7 DUP12 ADD MLOAD DUP2 SSTORE ADD SWAP5 ADD SWAP3 ADD PUSH2 0x5B07 JUMP JUMPDEST DUP1 MLOAD DUP1 MLOAD SWAP1 PUSH1 0x1 PUSH1 0x1 PUSH1 0x40 SHL SUB DUP3 GT PUSH2 0x1139 JUMPI PUSH2 0x5B77 DUP3 PUSH2 0x16C4 DUP9 SLOAD PUSH2 0x3C69 JUMP JUMPDEST PUSH1 0x20 SWAP1 PUSH1 0x1F DUP4 GT PUSH1 0x1 EQ PUSH2 0x5BBE JUMPI SWAP3 PUSH2 0x5BAF DUP4 PUSH1 0x1 SWAP6 SWAP5 PUSH1 0x20 SWAP5 DUP8 SWAP7 PUSH1 0x0 SWAP3 PUSH2 0x1826 JUMPI POP POP DUP2 PUSH1 0x1 SHL SWAP2 PUSH1 0x0 NOT SWAP1 PUSH1 0x3 SHL SHR NOT AND OR SWAP1 JUMP JUMPDEST DUP8 SSTORE JUMPDEST ADD SWAP5 ADD SWAP2 ADD SWAP1 SWAP3 PUSH2 0x5A29 JUMP JUMPDEST SWAP1 PUSH1 0x1F NOT DUP4 AND SWAP2 DUP8 PUSH1 0x0 MSTORE DUP2 PUSH1 0x0 KECCAK256 SWAP3 PUSH1 0x0 JUMPDEST DUP2 DUP2 LT PUSH2 0x5C13 JUMPI POP SWAP4 PUSH1 0x20 SWAP4 PUSH1 0x1 SWAP7 SWAP4 DUP8 SWAP7 SWAP4 DUP4 DUP9 SWAP6 LT PUSH2 0x5BFA JUMPI JUMPDEST POP POP POP DUP2 SHL ADD DUP8 SSTORE PUSH2 0x5BB2 JUMP JUMPDEST ADD MLOAD PUSH1 0x0 NOT PUSH1 0xF8 DUP5 PUSH1 0x3 SHL AND SHR NOT AND SWAP1 SSTORE CODESIZE DUP1 DUP1 PUSH2 0x5BED JUMP JUMPDEST SWAP3 SWAP4 PUSH1 0x20 PUSH1 0x1 DUP2 SWAP3 DUP8 DUP7 ADD MLOAD DUP2 SSTORE ADD SWAP6 ADD SWAP4 ADD PUSH2 0x5BD1 JUMP JUMPDEST SWAP1 PUSH1 0x1F NOT DUP4 AND SWAP2 DUP5 PUSH1 0x0 MSTORE DUP2 PUSH1 0x0 KECCAK256 SWAP3 PUSH1 0x0 JUMPDEST DUP2 DUP2 LT PUSH2 0x5C7A JUMPI POP SWAP1 DUP5 PUSH1 0x1 SWAP6 SWAP5 SWAP4 SWAP3 LT PUSH2 0x5C61 JUMPI JUMPDEST POP POP POP DUP2 SHL ADD SWAP1 SSTORE PUSH2 0x5A02 JUMP JUMPDEST ADD MLOAD PUSH1 0x0 NOT PUSH1 0xF8 DUP5 PUSH1 0x3 SHL AND SHR NOT AND SWAP1 SSTORE CODESIZE DUP1 DUP1 PUSH2 0x5C54 JUMP JUMPDEST SWAP3 SWAP4 PUSH1 0x20 PUSH1 0x1 DUP2 SWAP3 DUP8 DUP7 ADD MLOAD DUP2 SSTORE ADD SWAP6 ADD SWAP4 ADD PUSH2 0x5C3E JUMP JUMPDEST DUP1 MLOAD DUP1 MLOAD SWAP1 PUSH1 0x1 PUSH1 0x1 PUSH1 0x40 SHL SUB DUP3 GT PUSH2 0x1139 JUMPI PUSH2 0x5CB3 DUP3 PUSH2 0x16C4 DUP9 SLOAD PUSH2 0x3C69 JUMP JUMPDEST PUSH1 0x20 SWAP1 PUSH1 0x1F DUP4 GT PUSH1 0x1 EQ PUSH2 0x5CFA JUMPI SWAP3 PUSH2 0x5CEB DUP4 PUSH1 0x1 SWAP6 SWAP5 PUSH1 0x20 SWAP5 DUP8 SWAP7 PUSH1 0x0 SWAP3 PUSH2 0x1826 JUMPI POP POP DUP2 PUSH1 0x1 SHL SWAP2 PUSH1 0x0 NOT SWAP1 PUSH1 0x3 SHL SHR NOT AND OR SWAP1 JUMP JUMPDEST DUP8 SSTORE JUMPDEST ADD SWAP5 ADD SWAP2 ADD SWAP1 SWAP3 PUSH2 0x599C JUMP JUMPDEST SWAP1 PUSH1 0x1F NOT DUP4 AND SWAP2 DUP8 PUSH1 0x0 MSTORE DUP2 PUSH1 0x0 KECCAK256 SWAP3 PUSH1 0x0 JUMPDEST DUP2 DUP2 LT PUSH2 0x5D4F JUMPI POP SWAP4 PUSH1 0x20 SWAP4 PUSH1 0x1 SWAP7 SWAP4 DUP8 SWAP7 SWAP4 DUP4 DUP9 SWAP6 LT PUSH2 0x5D36 JUMPI JUMPDEST POP POP POP DUP2 SHL ADD DUP8 SSTORE PUSH2 0x5CEE JUMP JUMPDEST ADD MLOAD PUSH1 0x0 NOT PUSH1 0xF8 DUP5 PUSH1 0x3 SHL AND SHR NOT AND SWAP1 SSTORE CODESIZE DUP1 DUP1 PUSH2 0x5D29 JUMP JUMPDEST SWAP3 SWAP4 PUSH1 0x20 PUSH1 0x1 DUP2 SWAP3 DUP8 DUP7 ADD MLOAD DUP2 SSTORE ADD SWAP6 ADD SWAP4 ADD PUSH2 0x5D0D JUMP JUMPDEST SWAP1 PUSH1 0x1F NOT DUP4 AND SWAP2 DUP5 PUSH1 0x0 MSTORE DUP2 PUSH1 0x0 KECCAK256 SWAP3 PUSH1 0x0 JUMPDEST DUP2 DUP2 LT PUSH2 0x5DB6 JUMPI POP SWAP1 DUP5 PUSH1 0x1 SWAP6 SWAP5 SWAP4 SWAP3 LT PUSH2 0x5D9D JUMPI JUMPDEST POP POP POP DUP2 SHL ADD SWAP1 SSTORE PUSH2 0x5975 JUMP JUMPDEST ADD MLOAD PUSH1 0x0 NOT PUSH1 0xF8 DUP5 PUSH1 0x3 SHL AND SHR NOT AND SWAP1 SSTORE CODESIZE DUP1 DUP1 PUSH2 0x5D90 JUMP JUMPDEST SWAP3 SWAP4 PUSH1 0x20 PUSH1 0x1 DUP2 SWAP3 DUP8 DUP7 ADD MLOAD DUP2 SSTORE ADD SWAP6 ADD SWAP4 ADD PUSH2 0x5D7A JUMP JUMPDEST SWAP1 PUSH1 0x1F NOT DUP4 AND SWAP2 DUP5 PUSH1 0x0 MSTORE DUP2 PUSH1 0x0 KECCAK256 SWAP3 PUSH1 0x0 JUMPDEST DUP2 DUP2 LT PUSH2 0x5E1D JUMPI POP SWAP1 DUP5 PUSH1 0x1 SWAP6 SWAP5 SWAP4 SWAP3 LT PUSH2 0x5E04 JUMPI JUMPDEST POP POP POP DUP2 SHL ADD SWAP1 SSTORE PUSH2 0x591A JUMP JUMPDEST ADD MLOAD PUSH1 0x0 NOT PUSH1 0xF8 DUP5 PUSH1 0x3 SHL AND SHR NOT AND SWAP1 SSTORE CODESIZE DUP1 DUP1 PUSH2 0x5DF7 JUMP JUMPDEST SWAP3 SWAP4 PUSH1 0x20 PUSH1 0x1 DUP2 SWAP3 DUP8 DUP7 ADD MLOAD DUP2 SSTORE ADD SWAP6 ADD SWAP4 ADD PUSH2 0x5DE1 JUMP JUMPDEST PUSH1 0x1F NOT DUP3 AND SWAP6 DUP4 PUSH1 0x0 MSTORE DUP1 PUSH1 0x0 KECCAK256 SWAP2 PUSH1 0x0 JUMPDEST DUP9 DUP2 LT PUSH2 0x5E82 JUMPI POP DUP4 PUSH1 0x1 SWAP6 SWAP7 SWAP8 SWAP9 LT PUSH2 0x5E69 JUMPI JUMPDEST POP POP POP DUP2 SHL ADD DUP2 SSTORE PUSH2 0x58BF JUMP JUMPDEST ADD MLOAD PUSH1 0x0 NOT PUSH1 0xF8 DUP5 PUSH1 0x3 SHL AND SHR NOT AND SWAP1 SSTORE CODESIZE DUP1 DUP1 PUSH2 0x5E5C JUMP JUMPDEST SWAP2 SWAP3 PUSH1 0x20 PUSH1 0x1 DUP2 SWAP3 DUP7 DUP6 ADD MLOAD DUP2 SSTORE ADD SWAP5 ADD SWAP3 ADD PUSH2 0x5E47 JUMP INVALID PUSH2 0x85E8 SWAP3 0xB4 SWAP6 SWAP3 SAR PUSH3 0x3CF19A MUL 0xC2 JUMP MCOPY 0x25 0x22 PC SWAP13 0xC1 0xED 0xAE GASLIMIT 0xBC SLT EXTCODECOPY PUSH6 0xB0DEF61A264 PUSH10 0x70667358221220F004B6 PUSH6 0x4848E245C778 0xE5 PUSH6 0x290B9E89B615 0xC9 0x4E 0x4D ADD SWAP12 EXTCODEHASH 0xA9 PREVRANDAO GAS POP SGT ORIGIN MULMOD SHL PUSH5 0x736F6C6343 STOP ADDMOD SHL STOP CALLER "},"methodIdentifiers":{"acceptOrder(string,string)":"8b7c9a87","addQuantityObat(string,string,string,uint8,string,string[])":"d19487e4","allObatData(uint256)":"7aad01bd","allOrderedObat(uint256)":"0a04f9c8","allProducedObat(uint256)":"7d08414f","approveNie(string,address,string,string,string)":"7ade51dd","bpomAddresses(string)":"1c0b2030","bpomInstanceNames(string)":"9d9315c2","bpomUserNames(string)":"f1022862","completeOrder(string)":"b96c0866","createObat(string,string,string,string[],string,string[],address,string,string,uint8)":"d9d284dc","createOrder(string,string,string,uint8,string,string)":"90196039","factoryAddresses(string)":"4b87568a","factoryInstanceNames(string)":"a812536d","factoryUserNames(string)":"349a7a72","getAllProducedObat()":"1a95e672","getDetailOrderedObat(string)":"4e09fdbc","getDetailProducedObat(string)":"bbf2698d","getJenisSediaanAvail(string)":"d44faa63","getListAllOrderedObatFromSender(string)":"c2d48dca","getListAllOrderedObatFromTarget(string)":"ef470b55","getListAllProducedObatByFactory(string)":"92b385c9","getListObatByFactory(string)":"1dce6e58","getListObatById(string)":"25606bc3","getListObatByNameProduct(string)":"fd42aefd","mainSupplyChain()":"9413fcfd","obatDetailsById(string)":"27321837","obatDetailsByNameProduct(string)":"5673fdf6","obatProductionDetailsByBatchName(string)":"d0ff723d","orderObatById(string)":"86f5cea6","requestNie(string)":"bc4a6f6c","roleManager()":"00435da5","userRoles(address)":"74d5e100"}}}}}