{"contracts/CdobCertificate.sol":{"CdobCertificate":{"abi":[{"inputs":[{"internalType":"uint256","name":"","type":"uint256"}],"name":"allCdobData","outputs":[{"internalType":"string","name":"certId","type":"string"},{"internalType":"string","name":"certNumber","type":"string"},{"internalType":"string","name":"instanceName","type":"string"},{"internalType":"uint8","name":"tipePermohonan","type":"uint8"},{"internalType":"enum EnumsLibrary.StatusCertificate","name":"status","type":"uint8"},{"internalType":"string","name":"certHash","type":"string"},{"internalType":"uint256","name":"expiredTimestamp","type":"uint256"}],"stateMutability":"view","type":"function"},{"inputs":[{"internalType":"string","name":"certNumber","type":"string"},{"internalType":"string","name":"certId","type":"string"},{"internalType":"string","name":"bpomName","type":"string"},{"internalType":"string","name":"bpomInstance","type":"string"},{"internalType":"address","name":"bpomAddr","type":"address"},{"internalType":"string","name":"ipfsCert","type":"string"}],"name":"approveCdob","outputs":[],"stateMutability":"nonpayable","type":"function"},{"inputs":[{"internalType":"string","name":"certId","type":"string"},{"internalType":"string","name":"ipfsCert","type":"string"}],"name":"approveExtendCdob","outputs":[],"stateMutability":"nonpayable","type":"function"},{"inputs":[{"internalType":"string","name":"","type":"string"}],"name":"cdobDataById","outputs":[{"internalType":"string","name":"cdobId","type":"string"},{"internalType":"string","name":"cdobNumber","type":"string"},{"internalType":"uint8","name":"tipePermohonan","type":"uint8"}],"stateMutability":"view","type":"function"},{"inputs":[{"internalType":"string","name":"","type":"string"}],"name":"certDetailById","outputs":[{"internalType":"enum EnumsLibrary.StatusCertificate","name":"status","type":"uint8"},{"internalType":"uint256","name":"timestampRequest","type":"uint256"},{"internalType":"uint256","name":"timestampApprove","type":"uint256"},{"internalType":"uint256","name":"timestampRejected","type":"uint256"},{"internalType":"uint256","name":"timestampRenewRequest","type":"uint256"},{"internalType":"uint256","name":"timestampExpired","type":"uint256"},{"internalType":"uint256","name":"timestampExtendRequest","type":"uint256"},{"internalType":"uint256","name":"timestampExtendApprove","type":"uint256"},{"components":[{"internalType":"string","name":"userName","type":"string"},{"internalType":"string","name":"userInstance","type":"string"},{"internalType":"address","name":"userAddr","type":"address"}],"internalType":"struct BaseCertificate.UserCert","name":"sender","type":"tuple"},{"components":[{"internalType":"string","name":"userName","type":"string"},{"internalType":"string","name":"userInstance","type":"string"},{"internalType":"address","name":"userAddr","type":"address"}],"internalType":"struct BaseCertificate.UserCert","name":"bpom","type":"tuple"},{"internalType":"string","name":"ipfsCert","type":"string"}],"stateMutability":"view","type":"function"},{"inputs":[{"components":[{"internalType":"string","name":"userName","type":"string"},{"internalType":"string","name":"userInstance","type":"string"},{"internalType":"address","name":"userAddr","type":"address"}],"internalType":"struct BaseCertificate.UserCert","name":"senderData","type":"tuple"},{"components":[{"internalType":"string","name":"userName","type":"string"},{"internalType":"string","name":"userInstance","type":"string"},{"internalType":"address","name":"userAddr","type":"address"}],"internalType":"struct BaseCertificate.UserCert","name":"bpomData","type":"tuple"},{"internalType":"string","name":"certId","type":"string"}],"name":"createCertificateDetails","outputs":[],"stateMutability":"nonpayable","type":"function"},{"inputs":[{"internalType":"string","name":"userName","type":"string"},{"internalType":"string","name":"userInstance","type":"string"},{"internalType":"address","name":"userAddr","type":"address"}],"name":"createUserCertificate","outputs":[{"components":[{"internalType":"string","name":"userName","type":"string"},{"internalType":"string","name":"userInstance","type":"string"},{"internalType":"address","name":"userAddr","type":"address"}],"internalType":"struct BaseCertificate.UserCert","name":"","type":"tuple"}],"stateMutability":"pure","type":"function"},{"inputs":[{"internalType":"string","name":"","type":"string"}],"name":"dokuAdminById","outputs":[{"internalType":"string","name":"suratPermohonan","type":"string"},{"internalType":"string","name":"buktiPembayaranPajak","type":"string"}],"stateMutability":"view","type":"function"},{"inputs":[{"internalType":"string","name":"","type":"string"}],"name":"dokuReSertifikasiById","outputs":[{"internalType":"string","name":"suratPernyataanPimpinan","type":"string"},{"internalType":"string","name":"dokumenInspeksiDiri","type":"string"},{"internalType":"string","name":"dokumenPerbaikan","type":"string"}],"stateMutability":"view","type":"function"},{"inputs":[{"internalType":"string","name":"","type":"string"}],"name":"dokuTeknisById","outputs":[{"internalType":"string","name":"suratIzinCdob","type":"string"},{"internalType":"string","name":"denahBangunan","type":"string"},{"internalType":"string","name":"strukturOrganisasi","type":"string"},{"internalType":"string","name":"daftarPersonalia","type":"string"},{"internalType":"string","name":"daftarPeralatan","type":"string"},{"internalType":"string","name":"eksekutifQualityManagement","type":"string"},{"internalType":"string","name":"suratIzinApoteker","type":"string"},{"internalType":"string","name":"dokumenSelfAssesment","type":"string"}],"stateMutability":"view","type":"function"},{"inputs":[{"internalType":"string","name":"certId","type":"string"},{"internalType":"uint256","name":"expTimestamp","type":"uint256"},{"components":[{"internalType":"string","name":"suratPernyataanPimpinan","type":"string"},{"internalType":"string","name":"dokumenInspeksiDiri","type":"string"},{"internalType":"string","name":"dokumenPerbaikan","type":"string"}],"internalType":"struct CdobCertificate.DokumenReSertifikasi","name":"newDoku","type":"tuple"}],"name":"extendCdob","outputs":[],"stateMutability":"nonpayable","type":"function"},{"inputs":[],"name":"getAllCdob","outputs":[{"components":[{"internalType":"string","name":"certId","type":"string"},{"internalType":"string","name":"certNumber","type":"string"},{"internalType":"string","name":"instanceName","type":"string"},{"internalType":"uint8","name":"tipePermohonan","type":"uint8"},{"internalType":"enum EnumsLibrary.StatusCertificate","name":"status","type":"uint8"},{"internalType":"string","name":"certHash","type":"string"},{"internalType":"uint256","name":"expiredTimestamp","type":"uint256"}],"internalType":"struct CdobCertificate.CertificateList[]","name":"","type":"tuple[]"}],"stateMutability":"view","type":"function"},{"inputs":[{"internalType":"string","name":"instanceName","type":"string"}],"name":"getAllCdobByInstance","outputs":[{"components":[{"internalType":"string","name":"certId","type":"string"},{"internalType":"string","name":"certNumber","type":"string"},{"internalType":"string","name":"instanceName","type":"string"},{"internalType":"uint8","name":"tipePermohonan","type":"uint8"},{"internalType":"enum EnumsLibrary.StatusCertificate","name":"status","type":"uint8"},{"internalType":"string","name":"certHash","type":"string"},{"internalType":"uint256","name":"expiredTimestamp","type":"uint256"}],"internalType":"struct CdobCertificate.CertificateList[]","name":"","type":"tuple[]"}],"stateMutability":"view","type":"function"},{"inputs":[{"internalType":"string","name":"certId","type":"string"}],"name":"getCdobDetails","outputs":[{"components":[{"internalType":"string","name":"cdobId","type":"string"},{"internalType":"string","name":"cdobNumber","type":"string"},{"internalType":"uint8","name":"tipePermohonan","type":"uint8"}],"internalType":"struct CdobCertificate.CdobData","name":"","type":"tuple"},{"components":[{"internalType":"string","name":"suratPermohonan","type":"string"},{"internalType":"string","name":"buktiPembayaranPajak","type":"string"}],"internalType":"struct CdobCertificate.DokumenAdministrasi","name":"","type":"tuple"},{"components":[{"internalType":"string","name":"suratIzinCdob","type":"string"},{"internalType":"string","name":"denahBangunan","type":"string"},{"internalType":"string","name":"strukturOrganisasi","type":"string"},{"internalType":"string","name":"daftarPersonalia","type":"string"},{"internalType":"string","name":"daftarPeralatan","type":"string"},{"internalType":"string","name":"eksekutifQualityManagement","type":"string"},{"internalType":"string","name":"suratIzinApoteker","type":"string"},{"internalType":"string","name":"dokumenSelfAssesment","type":"string"}],"internalType":"struct CdobCertificate.DokumenTeknis","name":"","type":"tuple"},{"components":[{"internalType":"string","name":"suratPernyataanPimpinan","type":"string"},{"internalType":"string","name":"dokumenInspeksiDiri","type":"string"},{"internalType":"string","name":"dokumenPerbaikan","type":"string"}],"internalType":"struct CdobCertificate.DokumenReSertifikasi","name":"","type":"tuple"}],"stateMutability":"view","type":"function"},{"inputs":[{"internalType":"string","name":"certId","type":"string"}],"name":"getCertDetail","outputs":[{"components":[{"internalType":"enum EnumsLibrary.StatusCertificate","name":"status","type":"uint8"},{"internalType":"uint256","name":"timestampRequest","type":"uint256"},{"internalType":"uint256","name":"timestampApprove","type":"uint256"},{"internalType":"uint256","name":"timestampRejected","type":"uint256"},{"internalType":"uint256","name":"timestampRenewRequest","type":"uint256"},{"internalType":"uint256","name":"timestampExpired","type":"uint256"},{"internalType":"uint256","name":"timestampExtendRequest","type":"uint256"},{"internalType":"uint256","name":"timestampExtendApprove","type":"uint256"},{"components":[{"internalType":"string","name":"userName","type":"string"},{"internalType":"string","name":"userInstance","type":"string"},{"internalType":"address","name":"userAddr","type":"address"}],"internalType":"struct BaseCertificate.UserCert","name":"sender","type":"tuple"},{"components":[{"internalType":"string","name":"userName","type":"string"},{"internalType":"string","name":"userInstance","type":"string"},{"internalType":"address","name":"userAddr","type":"address"}],"internalType":"struct BaseCertificate.UserCert","name":"bpom","type":"tuple"},{"internalType":"string","name":"ipfsCert","type":"string"}],"internalType":"struct BaseCertificate.CertificateDetails","name":"","type":"tuple"}],"stateMutability":"view","type":"function"},{"inputs":[{"internalType":"string","name":"certId","type":"string"}],"name":"getCertDetails","outputs":[{"components":[{"internalType":"enum EnumsLibrary.StatusCertificate","name":"status","type":"uint8"},{"internalType":"uint256","name":"timestampRequest","type":"uint256"},{"internalType":"uint256","name":"timestampApprove","type":"uint256"},{"internalType":"uint256","name":"timestampRejected","type":"uint256"},{"internalType":"uint256","name":"timestampRenewRequest","type":"uint256"},{"internalType":"uint256","name":"timestampExpired","type":"uint256"},{"internalType":"uint256","name":"timestampExtendRequest","type":"uint256"},{"internalType":"uint256","name":"timestampExtendApprove","type":"uint256"},{"components":[{"internalType":"string","name":"userName","type":"string"},{"internalType":"string","name":"userInstance","type":"string"},{"internalType":"address","name":"userAddr","type":"address"}],"internalType":"struct BaseCertificate.UserCert","name":"sender","type":"tuple"},{"components":[{"internalType":"string","name":"userName","type":"string"},{"internalType":"string","name":"userInstance","type":"string"},{"internalType":"address","name":"userAddr","type":"address"}],"internalType":"struct BaseCertificate.UserCert","name":"bpom","type":"tuple"},{"internalType":"string","name":"ipfsCert","type":"string"}],"internalType":"struct BaseCertificate.CertificateDetails","name":"","type":"tuple"}],"stateMutability":"view","type":"function"},{"inputs":[{"internalType":"string","name":"certId","type":"string"}],"name":"getRejectMsg","outputs":[{"internalType":"string","name":"","type":"string"}],"stateMutability":"view","type":"function"},{"inputs":[{"internalType":"string","name":"certId","type":"string"}],"name":"getRejectsMsg","outputs":[{"internalType":"string","name":"","type":"string"}],"stateMutability":"view","type":"function"},{"inputs":[{"internalType":"string","name":"certId","type":"string"}],"name":"getSenderDetail","outputs":[{"components":[{"internalType":"string","name":"userName","type":"string"},{"internalType":"string","name":"userInstance","type":"string"},{"internalType":"address","name":"userAddr","type":"address"}],"internalType":"struct BaseCertificate.UserCert","name":"","type":"tuple"}],"stateMutability":"view","type":"function"},{"inputs":[{"internalType":"string","name":"certId","type":"string"},{"internalType":"string","name":"rejectMsg","type":"string"},{"internalType":"string","name":"bpomName","type":"string"},{"internalType":"string","name":"bpomInstance","type":"string"},{"internalType":"address","name":"bpomAddr","type":"address"}],"name":"rejectCdob","outputs":[],"stateMutability":"nonpayable","type":"function"},{"inputs":[{"internalType":"string","name":"","type":"string"}],"name":"rejectMsgById","outputs":[{"internalType":"string","name":"","type":"string"}],"stateMutability":"view","type":"function"},{"inputs":[{"internalType":"string","name":"certId","type":"string"},{"components":[{"internalType":"string","name":"suratPermohonan","type":"string"},{"internalType":"string","name":"buktiPembayaranPajak","type":"string"}],"internalType":"struct CdobCertificate.DokumenAdministrasi","name":"newDokuAdmin","type":"tuple"},{"components":[{"internalType":"string","name":"suratIzinCdob","type":"string"},{"internalType":"string","name":"denahBangunan","type":"string"},{"internalType":"string","name":"strukturOrganisasi","type":"string"},{"internalType":"string","name":"daftarPersonalia","type":"string"},{"internalType":"string","name":"daftarPeralatan","type":"string"},{"internalType":"string","name":"eksekutifQualityManagement","type":"string"},{"internalType":"string","name":"suratIzinApoteker","type":"string"},{"internalType":"string","name":"dokumenSelfAssesment","type":"string"}],"internalType":"struct CdobCertificate.DokumenTeknis","name":"newDokuTeknis","type":"tuple"}],"name":"renewRequestCdob","outputs":[],"stateMutability":"nonpayable","type":"function"},{"inputs":[{"internalType":"string","name":"certId","type":"string"},{"internalType":"string","name":"pbfName","type":"string"},{"internalType":"string","name":"pbfInstance","type":"string"},{"internalType":"address","name":"pbfAddr","type":"address"},{"internalType":"uint8","name":"tipePermohonan","type":"uint8"},{"components":[{"internalType":"string","name":"suratPermohonan","type":"string"},{"internalType":"string","name":"buktiPembayaranPajak","type":"string"}],"internalType":"struct CdobCertificate.DokumenAdministrasi","name":"dokuAdmin","type":"tuple"},{"components":[{"internalType":"string","name":"suratIzinCdob","type":"string"},{"internalType":"string","name":"denahBangunan","type":"string"},{"internalType":"string","name":"strukturOrganisasi","type":"string"},{"internalType":"string","name":"daftarPersonalia","type":"string"},{"internalType":"string","name":"daftarPeralatan","type":"string"},{"internalType":"string","name":"eksekutifQualityManagement","type":"string"},{"internalType":"string","name":"suratIzinApoteker","type":"string"},{"internalType":"string","name":"dokumenSelfAssesment","type":"string"}],"internalType":"struct CdobCertificate.DokumenTeknis","name":"dokuTeknis","type":"tuple"}],"name":"requestCdob","outputs":[],"stateMutability":"nonpayable","type":"function"},{"inputs":[{"internalType":"string","name":"certId","type":"string"},{"internalType":"string","name":"ipfsCert","type":"string"},{"components":[{"internalType":"string","name":"userName","type":"string"},{"internalType":"string","name":"userInstance","type":"string"},{"internalType":"address","name":"userAddr","type":"address"}],"internalType":"struct BaseCertificate.UserCert","name":"bpomData","type":"tuple"}],"name":"updateBpomApproveDetails","outputs":[],"stateMutability":"nonpayable","type":"function"},{"inputs":[{"internalType":"string","name":"certId","type":"string"},{"internalType":"string","name":"ipfsCert","type":"string"}],"name":"updateBpomApproveExtendCertificateDetails","outputs":[],"stateMutability":"nonpayable","type":"function"},{"inputs":[{"internalType":"string","name":"certId","type":"string"},{"internalType":"string","name":"ipfsCert","type":"string"}],"name":"updateBpomExtendCertificateDetails","outputs":[],"stateMutability":"nonpayable","type":"function"},{"inputs":[{"internalType":"string","name":"certId","type":"string"},{"internalType":"string","name":"rejectMsg","type":"string"},{"components":[{"internalType":"string","name":"userName","type":"string"},{"internalType":"string","name":"userInstance","type":"string"},{"internalType":"address","name":"userAddr","type":"address"}],"internalType":"struct BaseCertificate.UserCert","name":"bpomData","type":"tuple"}],"name":"updateBpomRejectDetails","outputs":[],"stateMutability":"nonpayable","type":"function"},{"inputs":[{"internalType":"string","name":"certId","type":"string"},{"internalType":"uint256","name":"expiredTimestamp","type":"uint256"}],"name":"updateExtendRenewDetails","outputs":[],"stateMutability":"nonpayable","type":"function"},{"inputs":[{"internalType":"string","name":"certId","type":"string"}],"name":"updateRenewDetails","outputs":[],"stateMutability":"nonpayable","type":"function"}],"evm":{"bytecode":{"linkReferences":{},"object":"60808060405234601557615571908161001a8239f35b5f80fdfe60806040526004361015610011575f80fd5b5f3560e01c806307b11c0b1461370457806317e68309146136a357806319859c871461366b5780631acf2500146135325780632b93f7f2146130845780632e9cf8271461300057806334a34f3014612ef557806343762aa814612e21578063500619d014612ce55780635691acf714612c45578063682053d9146118a35780636d1aa7d5146116695780636f12c2301461174057806372c17cb9146116a4578063761fb19a146116695780637ab09648146115e15780637e8f8da71461121e5780639740dbed146111e25780639aaa5d8b146111a75780639c6b1f10146110df578063a7226527146104c6578063be2e232514610476578063bf3f80ac1461040c578063d26196fd146103f5578063e9c260d7146103de578063f14261d214610366578063f5104ff11461034f578063f53ef126146101d75763fb5fb9a314610158575f80fd5b346101d35760603660031901126101d3576004356001600160401b0381116101d3576101889036906004016141e0565b6024356001600160401b0381116101d3576101a79036906004016141e0565b90604435916001600160401b0383116101d3576101cb6101d1933690600401613c63565b91614eec565b005b5f80fd5b346101d3576020806101e836614196565b9290604051928184925191829101835e81015f815203019020426002820155608242019081421161033b57600e916005820155600660ff198254161781550181516001600160401b038111610327576102418254613d30565b601f81116102e2575b50602092601f821160011461028657928192935f9261027b575b50505f19600383901b1c191660019190911b179055005b015190508380610264565b601f19821693835f52805f20915f5b8681106102ca57508360019596106102b2575b505050811b019055005b01515f1960f88460031b161c191690558380806102a8565b91926020600181928685015181550194019201610295565b825f5260205f20601f830160051c8101916020841061031d575b601f0160051c01905b818110610312575061024a565b5f8155600101610305565b90915081906102fc565b634e487b7160e01b5f52604160045260245ffd5b634e487b7160e01b5f52601160045260245ffd5b346101d3576101d161036036614258565b91614b7e565b346101d3575f3660031901126101d357600254610382816143ff565b905f805b82821061039f576040518061039b8682614016565b0390f35b6103d66001916103d06103ba6103b486613e54565b50614490565b60ff8316906103c9828a61447c565b528761447c565b506143d7565b910190610386565b346101d3576101d16103ef36614258565b916147e1565b346101d3576101d161040636614196565b9061469e565b346101d35760203660031901126101d3576004356001600160401b0381116101d35761046260208061044561039b943690600401613c63565b604051928184925191829101835e81016001815203019020613d68565b604051918291602083526020830190613cb8565b346101d35760203660031901126101d3576004356001600160401b0381116101d3576104ba6104ac61039b923690600401613c63565b6104b4614582565b506145e1565b604051918291826140e6565b346101d35760603660031901126101d3576004356001600160401b0381116101d3576104f6903690600401613c63565b6024356001600160401b0381116101d357610515903690600401613e84565b906044356001600160401b0381116101d357610535903690600401613ee3565b61053e8261434a565b6002549160208101905f5b84811061055257005b61055b81613e54565b5060405161057f816105716020820180956142c0565b03601f198101835282613c42565b51902060405160208101906105ac6020828751808a875e81015f838201520301601f198101835282613c42565b519020146105bd575b600101610549565b60036105c882613e54565b5001805461ff0019166103001790556105f260206105e583613e54565b50604051928380926142c0565b600481520301902086518051906001600160401b038211610327576106178354613d30565b601f811161109a575b50602090601f83116001146110345760019392915f9183611029575b50505f19600383901b1c191690831b1781555b0160208701518051906001600160401b0382116103275781906106728454613d30565b601f8111610fd9575b50602090601f8311600114610f76575f92610f6b575b50508160011b915f199060031b1c19161790555b6106b360206105e583613e54565b600581520301902084518051906001600160401b0382116103275781906106da8454613d30565b601f8111610f1b575b50602090601f8311600114610eb8575f92610ead575b50508160011b915f199060031b1c19161781555b6001810160208601518051906001600160401b0382116103275781906107338454613d30565b601f8111610e5d575b50602090601f8311600114610dfa575f92610def575b50508160011b915f199060031b1c19161790555b6002810160408601518051906001600160401b03821161032757819061078c8454613d30565b601f8111610d9f575b50602090601f8311600114610d3c575f92610d31575b50508160011b915f199060031b1c19161790555b6003810160608601518051906001600160401b0382116103275781906107e58454613d30565b601f8111610ce1575b50602090601f8311600114610c7e575f92610c73575b50508160011b915f199060031b1c19161790555b6004810160808601518051906001600160401b03821161032757819061083e8454613d30565b601f8111610c23575b50602090601f8311600114610bc0575f92610bb5575b50508160011b915f199060031b1c19161790555b6005810160a08601518051906001600160401b0382116103275781906108978454613d30565b601f8111610b65575b50602090601f8311600114610b02575f92610af7575b50508160011b915f199060031b1c19161790555b6006810160c08601518051906001600160401b038211610327576108ee8354613d30565b601f8111610ab2575b50602090601f8311600114610a4b576007949392915f9183610a40575b50508160011b915f199060031b1c19161790555b0160e08501518051906001600160401b038211610327576109498354613d30565b601f81116109fb575b50602090601f8311600114610994576001949392915f9183610989575b50505f19600383901b1c191690841b1790555b90506105b5565b015190508a8061096f565b90601f19831691845f52815f20925f5b8181106109e35750916001969594929183889593106109cb575b505050811b019055610982565b01515f1960f88460031b161c191690558a80806109be565b929360206001819287860151815501950193016109a4565b835f5260205f20601f840160051c81019160208510610a36575b601f0160051c01905b818110610a2b5750610952565b5f8155600101610a1e565b9091508190610a15565b015190508b80610914565b90601f19831691845f52815f20925f5b818110610a9a575091600193918560079897969410610a82575b505050811b019055610928565b01515f1960f88460031b161c191690558b8080610a75565b92936020600181928786015181550195019301610a5b565b835f5260205f20601f840160051c81019160208510610aed575b601f0160051c01905b818110610ae257506108f7565b5f8155600101610ad5565b9091508190610acc565b015190508a806108b6565b5f8581528281209350601f198516905b818110610b4d5750908460019594939210610b35575b505050811b0190556108ca565b01515f1960f88460031b161c191690558a8080610b28565b92936020600181928786015181550195019301610b12565b909150835f5260205f20601f840160051c81019160208510610bab575b90601f859493920160051c01905b818110610b9d57506108a0565b5f8155849350600101610b90565b9091508190610b82565b015190508a8061085d565b5f8581528281209350601f198516905b818110610c0b5750908460019594939210610bf3575b505050811b019055610871565b01515f1960f88460031b161c191690558a8080610be6565b92936020600181928786015181550195019301610bd0565b909150835f5260205f20601f840160051c81019160208510610c69575b90601f859493920160051c01905b818110610c5b5750610847565b5f8155849350600101610c4e565b9091508190610c40565b015190508a80610804565b5f8581528281209350601f198516905b818110610cc95750908460019594939210610cb1575b505050811b019055610818565b01515f1960f88460031b161c191690558a8080610ca4565b92936020600181928786015181550195019301610c8e565b909150835f5260205f20601f840160051c81019160208510610d27575b90601f859493920160051c01905b818110610d1957506107ee565b5f8155849350600101610d0c565b9091508190610cfe565b015190508a806107ab565b5f8581528281209350601f198516905b818110610d875750908460019594939210610d6f575b505050811b0190556107bf565b01515f1960f88460031b161c191690558a8080610d62565b92936020600181928786015181550195019301610d4c565b909150835f5260205f20601f840160051c81019160208510610de5575b90601f859493920160051c01905b818110610dd75750610795565b5f8155849350600101610dca565b9091508190610dbc565b015190508a80610752565b5f8581528281209350601f198516905b818110610e455750908460019594939210610e2d575b505050811b019055610766565b01515f1960f88460031b161c191690558a8080610e20565b92936020600181928786015181550195019301610e0a565b909150835f5260205f20601f840160051c81019160208510610ea3575b90601f859493920160051c01905b818110610e95575061073c565b5f8155849350600101610e88565b9091508190610e7a565b0151905089806106f9565b5f8581528281209350601f198516905b818110610f035750908460019594939210610eeb575b505050811b01815561070d565b01515f1960f88460031b161c19169055898080610ede565b92936020600181928786015181550195019301610ec8565b909150835f5260205f20601f840160051c81019160208510610f61575b90601f859493920160051c01905b818110610f5357506106e3565b5f8155849350600101610f46565b9091508190610f38565b015190508980610691565b5f8581528281209350601f198516905b818110610fc15750908460019594939210610fa9575b505050811b0190556106a5565b01515f1960f88460031b161c19169055898080610f9c565b92936020600181928786015181550195019301610f86565b909150835f5260205f20601f840160051c8101916020851061101f575b90601f859493920160051c01905b818110611011575061067b565b5f8155849350600101611004565b9091508190610ff6565b015190508a8061063c565b90601f19831691845f52815f20925f5b818110611082575091600195949291838795931061106a575b505050811b01815561064f565b01515f1960f88460031b161c191690558a808061105d565b92936020600181928786015181550195019301611044565b835f5260205f20601f840160051c810191602085106110d5575b601f0160051c01905b8181106110ca5750610620565b5f81556001016110bd565b90915081906110b4565b346101d3576110f86110f036614196565b81929161469e565b6002549060208101905f5b83811061110c57005b61111581613e54565b5060405161112b816105716020820180956142c0565b51902060405160208101906111586020828751808a875e81015f838201520301601f198101835282613c42565b51902014611169575b600101611103565b600361117482613e54565b500161060061ff0019825416179055608242019081421161033b57600191600561119d83613e54565b5001559050611161565b346101d35760203660031901126101d3576004356001600160401b0381116101d3576104ba6111dd61039b923690600401613c63565b6145e1565b346101d35760403660031901126101d3576004356001600160401b0381116101d3576112156101d1913690600401613c63565b60243590614507565b346101d35760203660031901126101d3576004356001600160401b0381116101d35761124e903690600401613c63565b61125661432a565b5060405161126381613bef565b606081526020016060905260405161127a81613c0a565b60608152602081016060905260408101606090526060810160609052608081016060905260a081016060905260c081016060905260e001606090526040516112c181613bb9565b60608152602081016060905260400160609052604051908051918060208301938085835e810160038152036020019020906040518082518086835e810160048152036020019020926040518083518084835e81016005815203602001902091604051918291518091835e810160068152036020019020906040519261134584613bb9565b61134e81613d68565b845261135c60018201613d68565b60208501526002015460ff1691604084019283526040519461137d86613bef565b61138681613d68565b865260010161139490613d68565b9160208601928352604051906113a982613c0a565b6113b281613d68565b82526113c060018201613d68565b60208301908152906113d460028201613d68565b604084019081526113e760038301613d68565b606085019081526113fa60048401613d68565b608086019081529061140e60058501613d68565b60a087019081529261142260068601613d68565b9460c0880195865260070161143690613d68565b9560e088019687526040519a61144b8c613bb9565b6114548a613d68565b8c5261146260018b01613d68565b9960208d019a8b5260020161147690613d68565b9a60408d019b8c526040519e8f9e8f90608082528051608083016060905260e083016114a191613cb8565b906020015190607f198382030160a08401526114bc91613cb8565b935160ff1660c082015280840390602001525160408352604083016114e091613cb8565b90519180820390602001526114f491613cb8565b978c808a039060400152516101008952610100890161151291613cb8565b90519088810360208a015261152691613cb8565b905190878103604089015261153a91613cb8565b905190868103606088015261154e91613cb8565b905190858103608087015261156291613cb8565b90519084810360a086015261157691613cb8565b90519083810360c085015261158a91613cb8565b9051918082039060e0015261159e91613cb8565b9284840360608601525160608452606084016115b991613cb8565b90519083810360208501526115cd91613cb8565b905191808203906040015261039b91613cb8565b346101d35760203660031901126101d3576004356001600160401b0381116101d35760208061161761165b933690600401613c63565b604051928184925191829101835e8101600481520301902061039b611647600161164084613d68565b9301613d68565b604051938493604085526040850190613cb8565b908382036020850152613cb8565b346101d35760203660031901126101d3576004356001600160401b0381116101d35761046261169f61039b923690600401613c63565b6143b4565b346101d35760203660031901126101d3576004356001600160401b0381116101d3576020806116da611728933690600401613c63565b604051928184925191829101835e810160038152030190206116fb81613d68565b9061173660ff600261170f60018501613d68565b9301541691604051948594606086526060860190613cb8565b908482036020860152613cb8565b9060408301520390f35b346101d35760203660031901126101d3576004356001600160401b0381116101d357611770903690600401613c63565b60025460208201915f805b838110611840575060ff61178f91166143ff565b925f915f5b8481106117a9576040518061039b8882614016565b60026105716117ce6117ba84613e54565b5060405192839160208301958691016142c0565b51902060405160208101906117fb6020828751808a875e81015f838201520301601f198101835282613c42565b5190201461180c575b600101611794565b926118386001916103d06118226103b488613e54565b60ff831690611831828c61447c565b528961447c565b939050611804565b60026105716118516117ba84613e54565b519020604051602081019061187e6020828851808c875e81015f838201520301601f198101835282613c42565b5190201461188f575b60010161177b565b9061189b6001916143d7565b919050611887565b346101d35760e03660031901126101d3576004356001600160401b0381116101d3576118d3903690600401613c63565b6024356001600160401b0381116101d3576118f2903690600401613c63565b6044356001600160401b0381116101d357611911903690600401613c63565b916064356001600160a01b03811681036101d3576084359360ff85168095036101d35760a4356001600160401b0381116101d357611953903690600401613e84565b9160c435906001600160401b0382116101d3578261197861197e933690600401613ee3565b96614378565b946119ce84602097604051906119948a83613c42565b5f82526040516119a48b82613c42565b5f81526119af61432a565b50604051926119bd84613bb9565b83528a8301525f6040830152614eec565b6040516119da81613bb9565b8481526040516119ea8882613c42565b5f815287820190815260408201908382526040518981895180838c01835e8101600381520301902092518051906001600160401b038211610327578190611a318654613d30565b601f8111612bf7575b508b90601f8311600114612b92575f92612b87575b50508160011b915f199060031b1c19161783555b51805160018401916001600160401b03821161032757611a838354613d30565b601f8111612b44575b508a90601f8311600114612ad757928260ff95929386946002965f92612acc575b50508160011b915f199060031b1c19161790555b51169201911660ff1982541617905560405190611add82613bd4565b84825260405192611aee8885613c42565b5f8452878301938452604083015260608201525f6080820152604051611b148782613c42565b5f815260a08201525f60c08201526002546801000000000000000081101561032757806001611b469201600255613e54565b929092612ab95781518051906001600160401b038211610327578190611b6c8654613d30565b601f8111612a6b575b508990601f8311600114612a08575f926129fd575b50508160011b915f199060031b1c19161783555b518051906001600160401b038211610327578190611bbf6001860154613d30565b601f81116129ac575b508890601f8311600114612942575f92612937575b50508160011b915f199060031b1c19161760018301555b6002820160408201518051906001600160401b038211610327578190611c1a8454613d30565b601f81116128e9575b508990601f8311600114612886575f9261287b575b50508160011b915f199060031b1c19161790555b6003820160ff806060840151161660ff19825416178155608082015160078110156128675761ff0082549160081b169061ff0019161790556004820160a08201518051906001600160401b03821161032757611ca88354613d30565b601f8111612824575b508890601f83116001146127bb57918060c09492600596945f926127b0575b50508160011b915f199060031b1c19161790555b01519101556040518481845180838701835e8101600481520301902081519081516001600160401b038111610327578692611d1f8354613d30565b601f811161275e575b508390601f83116001146126f85760019392915f91836126ed575b50505f19600383901b1c191690831b1781555b01910151918251916001600160401b038311610327578592611d788254613d30565b94601f8611612696575b8495508490601f831160011461262f575f919083612624575b50508160011b915f199060031b1c19161790555b604051928184925191829101835e810160058152030190209080519182516001600160401b03811161032757611de58254613d30565b601f81116125e1575b508493601f82116001146125815793819293945f92612576575b50508160011b915f199060031b1c19161781555b60018101838301518051906001600160401b038211610327578190611e418454613d30565b601f8111612528575b508690601f83116001146124c5575f926124ba575b50508160011b915f199060031b1c19161790555b6002810160408301518051906001600160401b038211610327578190611e998454613d30565b601f811161246c575b508690601f8311600114612409575f926123fe575b50508160011b915f199060031b1c19161790555b6003810160608301518051906001600160401b038211610327578190611ef18454613d30565b601f81116123b0575b508690601f831160011461234d575f92612342575b50508160011b915f199060031b1c19161790555b6004810160808301518051906001600160401b038211610327578190611f498454613d30565b601f81116122f4575b508690601f8311600114612291575f92612286575b50508160011b915f199060031b1c19161790555b6005810160a08301518051906001600160401b038211610327578190611fa18454613d30565b601f8111612238575b508690601f83116001146121d5575f926121ca575b50508160011b915f199060031b1c19161790555b6006810160c08301518051906001600160401b03821161032757611ff78354613d30565b601f8111612187575b508590601f831160011461211e5791806007949260e096945f92612113575b50508160011b915f199060031b1c19161790555b01910151918251906001600160401b038211610327576120538354613d30565b601f81116120d0575b5080601f831160011461208a57508192935f9261027b5750505f19600383901b1c191660019190911b179055005b90601f19831694845f52825f20925f905b8782106120b85750508360019596106102b257505050811b019055005b8060018596829496860151815501950193019061209b565b835f52815f20601f840160051c810191838510612109575b601f0160051c01905b8181106120fe575061205c565b5f81556001016120f1565b90915081906120e8565b01519050888061201f565b90601f19831691845f52875f20925f5b8982821061217157505092600192859260e098966007989610612159575b505050811b019055612033565b01515f1960f88460031b161c1916905588808061214c565b600185968293968601518155019501930161212e565b835f52865f20601f840160051c8101918885106121c0575b601f0160051c01905b8181106121b55750612000565b5f81556001016121a8565b909150819061219f565b015190508680611fbf565b5f8581528881209350601f198516905b8982821061222257505090846001959493921061220a575b505050811b019055611fd3565b01515f1960f88460031b161c191690558680806121fd565b60018596829396860151815501950193016121e5565b909150835f52865f20601f840160051c81019188851061227c575b90601f859493920160051c01905b81811061226e5750611faa565b5f8155849350600101612261565b9091508190612253565b015190508680611f67565b5f8581528881209350601f198516905b898282106122de5750509084600195949392106122c6575b505050811b019055611f7b565b01515f1960f88460031b161c191690558680806122b9565b60018596829396860151815501950193016122a1565b909150835f52865f20601f840160051c810191888510612338575b90601f859493920160051c01905b81811061232a5750611f52565b5f815584935060010161231d565b909150819061230f565b015190508680611f0f565b5f8581528881209350601f198516905b8982821061239a575050908460019594939210612382575b505050811b019055611f23565b01515f1960f88460031b161c19169055868080612375565b600185968293968601518155019501930161235d565b909150835f52865f20601f840160051c8101918885106123f4575b90601f859493920160051c01905b8181106123e65750611efa565b5f81558493506001016123d9565b90915081906123cb565b015190508680611eb7565b5f8581528881209350601f198516905b8982821061245657505090846001959493921061243e575b505050811b019055611ecb565b01515f1960f88460031b161c19169055868080612431565b6001859682939686015181550195019301612419565b909150835f52865f20601f840160051c8101918885106124b0575b90601f859493920160051c01905b8181106124a25750611ea2565b5f8155849350600101612495565b9091508190612487565b015190508680611e5f565b5f8581528881209350601f198516905b898282106125125750509084600195949392106124fa575b505050811b019055611e73565b01515f1960f88460031b161c191690558680806124ed565b60018596829396860151815501950193016124d5565b909150835f52865f20601f840160051c81019188851061256c575b90601f859493920160051c01905b81811061255e5750611e4a565b5f8155849350600101612551565b9091508190612543565b015190508580611e08565b601f19821694835f52865f20915f5b888882106125cb575050836001959697106125b3575b505050811b018155611e1c565b01515f1960f88460031b161c191690558580806125a6565b6001849582939585015181550194019201612590565b825f52855f20601f830160051c81019187841061261a575b601f0160051c01905b81811061260f5750611dee565b5f8155600101612602565b90915081906125f9565b015190508880611d9b565b601f95949392919519821695835f52855f20915f5b88811061267e57508360019596979810612666575b505050811b019055611daf565b01515f1960f88460031b161c19169055888080612659565b82820151845589976001909401939283019201612644565b918094505f9591939552865f20601f840160051c8101918885106126e3575b90601f899694979593920160051c01905b8181106126d557505084611d82565b5f81558895506001016126c6565b90915081906126b5565b015190508980611d43565b90601f19831691845f52855f20925f5b87828210612748575050916001959492918387959310612730575b505050811b018155611d56565b01515f1960f88460031b161c19169055898080612723565b6001859682939686015181550195019301612708565b9091928094505f52875f20601f840160051c8101918985106127a6575b90601f8a96959493920160051c01905b8181106127985750611d28565b5f815589955060010161278b565b909150819061277b565b015190508b80611cd0565b90601f19831691845f528a5f20925f5b8c82821061280e5750509260019285926005989660c09896106127f6575b505050811b019055611ce4565b01515f1960f88460031b161c191690558b80806127e9565b60018596829396860151815501950193016127cb565b835f52895f20601f840160051c8101918b851061285d575b601f0160051c01905b8181106128525750611cb1565b5f8155600101612845565b909150819061283c565b634e487b7160e01b5f52602160045260245ffd5b015190508980611c38565b5f8581528b81209350601f198516905b8c8282106128d35750509084600195949392106128bb575b505050811b019055611c4c565b01515f1960f88460031b161c191690558980806128ae565b6001859682939686015181550195019301612896565b909150835f52895f20601f840160051c8101918b851061292d575b90601f859493920160051c01905b81811061291f5750611c23565b5f8155849350600101612912565b9091508190612904565b015190508880611bdd565b600186015f9081528a81209350601f198516905b8b82821061299657505090846001959493921061297e575b505050811b016001830155611bf4565b01515f1960f88460031b161c1916905588808061296e565b6001859682939686015181550195019301612956565b909150600185015f52885f20601f840160051c8101918a85106129f3575b90601f859493920160051c01905b8181106129e55750611bc8565b5f81558493506001016129d8565b90915081906129ca565b015190508980611b8a565b5f8781528b81209350601f198516905b8c828210612a55575050908460019594939210612a3d575b505050811b018355611b9e565b01515f1960f88460031b161c19169055898080612a30565b6001859682939686015181550195019301612a18565b909150855f52895f20601f840160051c8101918b8510612aaf575b90601f859493920160051c01905b818110612aa15750611b75565b5f8155849350600101612a94565b9091508190612a86565b634e487b7160e01b5f525f60045260245ffd5b015190508e80611aad565b5f8481528c8120929190601f198516908e5b828210612b2c5750509360ff969360029693600193838a9810612b14575b505050811b019055611ac1565b01515f1960f88460031b161c191690558e8080612b07565b80600186978294978701518155019601940190612ae9565b835f528b5f20601f840160051c8101918d8510612b7d575b601f0160051c01905b818110612b725750611a8c565b5f8155600101612b65565b9091508190612b5c565b015190508b80611a4f565b5f8781528d81209350601f198516908e5b828210612bdf575050908460019594939210612bc7575b505050811b018355611a63565b01515f1960f88460031b161c191690558b8080612bba565b80600186978294978701518155019601940190612ba3565b909150855f528b5f20601f840160051c8101918d8510612c3b575b90601f859493920160051c01905b818110612c2d5750611a3a565b5f8155849350600101612c20565b9091508190612c12565b346101d35760203660031901126101d3576004356001600160401b0381116101d357602080612c7b612cc9933690600401613c63565b604051928184925191829101835e8101600681520301902061039b612c9f82613d68565b91612cd7612cb4600261164060018501613d68565b91604051958695606087526060870190613cb8565b908582036020870152613cb8565b908382036040850152613cb8565b346101d35760203660031901126101d3576004356001600160401b0381116101d357612d15903690600401613c63565b604051818192516020819201835e810160058152036020019020612d3881613d68565b612d4460018301613d68565b91612d5160028201613d68565b90612d5e60038201613d68565b612d6a60048301613d68565b612d7660058401613d68565b91612d8360068501613d68565b93600701612d9090613d68565b9460405197889761010089526101008901612daa91613cb8565b88810360208a0152612dbb91613cb8565b8781036040890152612dcc91613cb8565b8681036060880152612ddd91613cb8565b8581036080870152612dee91613cb8565b84810360a0860152612dff91613cb8565b83810360c0850152612e1091613cb8565b82810360e084015261039b91613cb8565b346101d35760203660031901126101d3576004356002548110156101d357612e4b612ea891613e54565b50612e5581613d68565b90612eeb612e6560018301613d68565b91612e7260028201613d68565b90612ede612ec4600383015493612eb66005612e9060048701613d68565b950154976040519a8b9a60e08c5260e08c0190613cb8565b908a820360208c0152613cb8565b9088820360408a0152613cb8565b9260ff8116606088015260ff608088019160081c16613e47565b84820360a0860152613cb8565b9060c08301520390f35b346101d35760203660031901126101d3576004356001600160401b0381116101d357612f25903690600401613c63565b604051818192516020819201835e81015f8152036020019020805460ff1660018201549160028101549060038101546004820154600583015460068401549060078501549260088601612f7790613e08565b94612f84600b8801613e08565b96600e01612f9190613d68565b976040519a612fa18c809c613e47565b60208b015260408a01526060890152608088015260a087015260c086015260e0850152610100840161016090526101608401612fdc91613cdc565b838103610120850152612fee91613cdc565b82810361014084015261039b91613cb8565b346101d35760603660031901126101d3576004356001600160401b0381116101d357613030903690600401613c63565b6024356001600160401b0381116101d35761304f903690600401613c63565b906044356001600160a01b03811681036101d35761039b9261307092614378565b604051918291602083526020830190613cdc565b346101d35760c03660031901126101d3576004356001600160401b0381116101d3576130b4903690600401613c63565b6024356001600160401b0381116101d3576130d3903690600401613c63565b6044356001600160401b0381116101d3576130f2903690600401613c63565b6064356001600160401b0381116101d357613111903690600401613c63565b613119613d1a565b60a435916001600160401b0383116101d35761313c613142933690600401613c63565b93614378565b604051906001845192602081818801958087835e810160038152030190200185516001600160401b0381116103275761317b8254613d30565b601f81116134ed575b506020601f82116001146134865790806131bb9493925f9161347b575b508160011b915f199060031b1c19161790555b8385614b7e565b600254925f5b8481106131ca57005b6131d381613e54565b506040516131e9816105716020820180956142c0565b51902060405160208101906132166020828751808a875e81015f838201520301601f198101835282613c42565b51902014613227575b6001016131c1565b600161323282613e54565b500186516001600160401b0381116103275761324e8254613d30565b601f8111613436575b50806020601f82116001146133d3575f916133c8575b508160011b915f199060031b1c19161790555b600361328b82613e54565b5001805461ff00191661010017905560046132a582613e54565b500184516001600160401b038111610327576132c18254613d30565b601f8111613383575b50806020601f8211600114613322575f91613317575b508160011b915f199060031b1c19161790555b608242019081421161033b57600191600561330d83613e54565b500155905061321f565b9050860151896132e0565b5f8481528181209250601f198416905b81811061336b57509083600194939210613353575b5050811b0190556132f3565b8801515f1960f88460031b161c191690558980613347565b9192602060018192868d015181550194019201613332565b825f5260205f20601f830160051c810191602084106133be575b601f0160051c01905b8181106133b357506132ca565b5f81556001016133a6565b909150819061339d565b90508801518961326d565b5f8481528181209250601f198416905b8b82821061341e5750509083600194939210613406575b5050811b019055613280565b8a01515f1960f88460031b161c1916905589806133fa565b600184956020939584930151815501940192016133e3565b825f5260205f20601f830160051c81019160208410613471575b601f0160051c01905b8181106134665750613257565b5f8155600101613459565b9091508190613450565b9050880151896131a1565b601f19821690835f52805f20915f5b8a8282106134d55750509183916131bb969594600194106134bd575b5050811b0190556131b4565b8a01515f1960f88460031b161c1916905589806134b1565b60018495602093958493015181550194019201613495565b825f5260205f20601f830160051c81019160208410613528575b601f0160051c01905b81811061351d5750613184565b5f8155600101613510565b9091508190613507565b346101d35760a03660031901126101d3576004356001600160401b0381116101d357613562903690600401613c63565b6024356001600160401b0381116101d357613581903690600401613c63565b6044356001600160401b0381116101d3576135a0903690600401613c63565b906064356001600160401b0381116101d3576135dc926135c76135d5923690600401613c63565b6135cf613d1a565b91614378565b90836147e1565b600254602082015f5b8281106135ee57005b806135fa600192613e54565b50604051613610816105716020820180956142c0565b519020604051602081019061363d6020828a51808a875e81015f838201520301601f198101835282613c42565b5190201461364c575b016135e5565b600361365782613e54565b5001805461ff001916610200179055613646565b346101d35760203660031901126101d3576004356001600160401b0381116101d35761369e6101d1913690600401613c63565b61434a565b346101d35760203660031901126101d3576004356001600160401b0381116101d35761307060086020806136de61039b953690600401613c63565b6136e661432a565b50604051928184925191829101835e81015f81520301902001613e08565b346101d35760603660031901126101d3576004356001600160401b0381116101d357613734903690600401613c63565b604435906001600160401b0382116101d357606060031983360301126101d3576040519161376183613bb9565b80600401356001600160401b0381116101d3576137849060043691840101613c63565b835260248101356001600160401b0381116101d3576137a99060043691840101613c63565b90602084019182526044810135906001600160401b0382116101d35760046137d49236920101613c63565b92604081019384526137e860243584614507565b60405191835192602081818701958087835e8101600681520301902091518051906001600160401b0382116103275781906138238554613d30565b601f8111613b69575b50602090601f8311600114613b06575f92613afb575b50508160011b915f199060031b1c19161782555b51805160018301916001600160401b038211610327576138768354613d30565b601f8111613ab6575b50602090601f8311600114613a4f576002949392915f9183613a44575b50508160011b915f199060031b1c19161790555b0192519283516001600160401b038111610327576138ce8254613d30565b601f81116139ff575b50602094601f821160011461399e579481929394955f92613993575b50508160011b915f199060031b1c19161790555b600254905f5b82811061391657005b80613922600192613e54565b50604051613938816105716020820180956142c0565b51902060405160208101906139656020828a51808a875e81015f838201520301601f198101835282613c42565b51902014613974575b0161390d565b600361397f82613e54565b5001805461ff00191661050017905561396e565b0151905085806138f3565b601f19821695835f52805f20915f5b8881106139e7575083600195969798106139cf575b505050811b019055613907565b01515f1960f88460031b161c191690558580806139c2565b919260206001819286850151815501940192016139ad565b825f5260205f20601f830160051c81019160208410613a3a575b601f0160051c01905b818110613a2f57506138d7565b5f8155600101613a22565b9091508190613a19565b01519050888061389c565b90601f19831691845f52815f20925f5b818110613a9e575091600193918560029897969410613a86575b505050811b0190556138b0565b01515f1960f88460031b161c19169055888080613a79565b92936020600181928786015181550195019301613a5f565b835f5260205f20601f840160051c81019160208510613af1575b601f0160051c01905b818110613ae6575061387f565b5f8155600101613ad9565b9091508190613ad0565b015190508780613842565b5f8681528281209350601f198516905b818110613b515750908460019594939210613b39575b505050811b018255613856565b01515f1960f88460031b161c19169055878080613b2c565b92936020600181928786015181550195019301613b16565b909150845f5260205f20601f840160051c81019160208510613baf575b90601f859493920160051c01905b818110613ba1575061382c565b5f8155849350600101613b94565b9091508190613b86565b606081019081106001600160401b0382111761032757604052565b60e081019081106001600160401b0382111761032757604052565b604081019081106001600160401b0382111761032757604052565b61010081019081106001600160401b0382111761032757604052565b61016081019081106001600160401b0382111761032757604052565b90601f801991011681019081106001600160401b0382111761032757604052565b81601f820112156101d3578035906001600160401b0382116103275760405192613c97601f8401601f191660200185613c42565b828452602083830101116101d357815f926020809301838601378301015290565b805180835260209291819084018484015e5f828201840152601f01601f1916010190565b906040613d07613cf58451606085526060850190613cb8565b60208501518482036020860152613cb8565b928101516001600160a01b031691015290565b608435906001600160a01b03821682036101d357565b90600182811c92168015613d5e575b6020831014613d4a57565b634e487b7160e01b5f52602260045260245ffd5b91607f1691613d3f565b9060405191825f825492613d7b84613d30565b8084529360018116908115613de65750600114613da2575b50613da092500383613c42565b565b90505f9291925260205f20905f915b818310613dca575050906020613da0928201015f613d93565b6020919350806001915483858901015201910190918492613db1565b905060209250613da094915060ff191682840152151560051b8201015f613d93565b90604051613e1581613bb9565b60408193613e2281613d68565b8352613e3060018201613d68565b6020840152600201546001600160a01b0316910152565b9060078210156128675752565b600254811015613e705760025f52600660205f20910201905f90565b634e487b7160e01b5f52603260045260245ffd5b91906040838203126101d35760405190613e9d82613bef565b819380356001600160401b0381116101d35782613ebb918301613c63565b83526020810135916001600160401b0383116101d357602092613ede9201613c63565b910152565b9190610100838203126101d35760405190613efd82613c0a565b819380356001600160401b0381116101d35782613f1b918301613c63565b835260208101356001600160401b0381116101d35782613f3c918301613c63565b602084015260408101356001600160401b0381116101d35782613f60918301613c63565b604084015260608101356001600160401b0381116101d35782613f84918301613c63565b606084015260808101356001600160401b0381116101d35782613fa8918301613c63565b608084015260a08101356001600160401b0381116101d35782613fcc918301613c63565b60a084015260c08101356001600160401b0381116101d35782613ff0918301613c63565b60c084015260e0810135916001600160401b0383116101d35760e092613ede9201613c63565b602081016020825282518091526040820191602060408360051b8301019401925f915b83831061404857505050505090565b9091929394602080600192603f1985820301865288519060c0806140d16140a061408e61407e875160e0885260e0880190613cb8565b888801518782038a890152613cb8565b60408701518682036040880152613cb8565b60ff60608701511660608601526140bf60808701516080870190613e47565b60a086015185820360a0870152613cb8565b93015191015297019301930191939290614039565b9061419391602081526140fd602082018351613e47565b602082015160408201526040820151606082015260608201516080820152608082015160a082015260a082015160c082015260c082015160e082015260e082015161010082015261014061417d614167610100850151610160610120860152610180850190613cdc565b610120850151848203601f190184860152613cdc565b92015190610160601f1982850301910152613cb8565b90565b9060406003198301126101d3576004356001600160401b0381116101d357826141c191600401613c63565b91602435906001600160401b0382116101d35761419391600401613c63565b91906060838203126101d357604051906141f982613bb9565b819380356001600160401b0381116101d35782614217918301613c63565b835260208101356001600160401b0381116101d35760409261423a918301613c63565b60208401520135906001600160a01b03821682036101d35760400152565b60606003198201126101d3576004356001600160401b0381116101d3578161428291600401613c63565b916024356001600160401b0381116101d357826142a191600401613c63565b91604435906001600160401b0382116101d357614193916004016141e0565b5f92918154916142cf83613d30565b926001811690811561431757506001146142e857505050565b90919293505f5260205f205f905b8382106143035750500190565b6001816020925484860152019101906142f6565b60ff191683525050811515909102019150565b6040519061433782613bb9565b5f60408360608152606060208201520152565b60208091604051928184925191829101835e81015f815203019020426004820155600360ff19825416179055565b919061438261432a565b506040519261439084613bb9565b835260208301526001600160a01b0316604082015290565b60078210156128675752565b604051815161419392602091839181908401835e81016001815203019020613d68565b60ff1660ff811461033b5760010190565b6001600160401b0381116103275760051b60200190565b90614409826143e8565b6144166040519182613c42565b8281528092614427601f19916143e8565b01905f5b82811061443757505050565b60209060405161444681613bd4565b60608152606083820152606060408201525f60608201525f6080820152606060a08201525f60c08201528282850101520161442b565b8051821015613e705760209160051b010190565b9060405161449d81613bd4565b60c0600582946144ac81613d68565b84526144ba60018201613d68565b60208501526144cb60028201613d68565b60408501526144ef60ff6003830154818116606088015260081c16608086016143a8565b6144fb60048201613d68565b60a08501520154910152565b9042111561453d5760208091604051928184925191829101835e81015f815203019020426006820155600560ff19825416179055565b60405162461bcd60e51b815260206004820152601860248201527f536572746966696b6174206d61736968206265726c616b7500000000000000006044820152606490fd5b6040519061458f82613c26565b6060610140835f81525f60208201525f60408201525f838201525f60808201525f60a08201525f60c08201525f60e08201526145c961432a565b6101008201526145d761432a565b6101208201520152565b602080916145ed614582565b50604051928184925191829101835e81015f815203019020614695600e6040519261461784613c26565b61462560ff825416856143a8565b60018101546020850152600281015460408501526003810154606085015260048101546080850152600581015460a0850152600681015460c0850152600781015460e085015261467760088201613e08565b610100850152614689600b8201613e08565b61012085015201613d68565b61014082015290565b60208091939293604051928184925191829101835e81015f815203019020426007820155608242019081421161033b57600e916005820155600660ff198254161781550182516001600160401b038111610327576146fc8254613d30565b601f811161479c575b506020601f821160011461473e57819293945f92614733575b50508160011b915f199060031b1c1916179055565b015190505f8061471e565b601f19821690835f52805f20915f5b8181106147845750958360019596971061476c575b505050811b019055565b01515f1960f88460031b161c191690555f8080614762565b9192602060018192868b01518155019401920161474d565b825f5260205f20601f830160051c810191602084106147d7575b601f0160051c01905b8181106147cc5750614705565b5f81556001016147bf565b90915081906147b6565b92919060405160208551918181818901948086835e81015f81520301902095604051928391518091835e81016001815203019020908051906001600160401b0382116103275781906148338454613d30565b601f8111614b2e575b50602090601f8311600114614acb575f92614ac0575b50508160011b915f199060031b1c19161790555b80518051600b8501916001600160401b038211610327576148878354613d30565b601f8111614a7b575b50602090601f8311600114614a14576020949392915f9183614a09575b50508160011b915f199060031b1c19161790555b6040810151600d850180546001600160a01b0319166001600160a01b039290921691909117905501518051909290600c8201906001600160401b0381116103275761490c8254613d30565b601f81116149c4575b50602094601f8211600114614963579481929394955f92614958575b50508160011b915f199060031b1c19161790555b426003820155805460ff19166002179055565b015190505f80614931565b601f19821695835f52805f20915f5b8881106149ac57508360019596979810614994575b505050811b019055614945565b01515f1960f88460031b161c191690555f8080614987565b91926020600181928685015181550194019201614972565b825f5260205f20601f830160051c810191602084106149ff575b601f0160051c01905b8181106149f45750614915565b5f81556001016149e7565b90915081906149de565b015190505f806148ad565b90601f19831691845f52815f20925f5b818110614a63575091600193918560209897969410614a4b575b505050811b0190556148c1565b01515f1960f88460031b161c191690555f8080614a3e565b92936020600181928786015181550195019301614a24565b835f5260205f20601f840160051c81019160208510614ab6575b601f0160051c01905b818110614aab5750614890565b5f8155600101614a9e565b9091508190614a95565b015190505f80614852565b5f8581528281209350601f198516905b818110614b165750908460019594939210614afe575b505050811b019055614866565b01515f1960f88460031b161c191690555f8080614af1565b92936020600181928786015181550195019301614adb565b909150835f5260205f20601f840160051c81019160208510614b74575b90601f859493920160051c01905b818110614b66575061483c565b5f8155849350600101614b59565b9091508190614b4b565b6020809194939294604051928184925191829101835e81015f815203019020908051600b8301908051906001600160401b03821161032757614bc08354613d30565b601f8111614ea7575b50602090601f8311600114614e40576020949392915f9183614e35575b50508160011b915f199060031b1c19161790555b6040810151600d840180546001600160a01b0319166001600160a01b039290921691909117905501518051600c8301916001600160401b038211610327578190614c448454613d30565b601f8111614de5575b50602090601f8311600114614d82575f92614d77575b50508160011b915f199060031b1c19161790555b426002820155608242019081421161033b57600e916005820155600160ff198254161781550182516001600160401b03811161032757614cb78254613d30565b601f8111614d32575b506020601f8211600114614ced57819293945f926147335750508160011b915f199060031b1c1916179055565b601f19821690835f52805f20915f5b818110614d1a5750958360019596971061476c57505050811b019055565b9192602060018192868b015181550194019201614cfc565b825f5260205f20601f830160051c81019160208410614d6d575b601f0160051c01905b818110614d625750614cc0565b5f8155600101614d55565b9091508190614d4c565b015190505f80614c63565b5f8581528281209350601f198516905b818110614dcd5750908460019594939210614db5575b505050811b019055614c77565b01515f1960f88460031b161c191690555f8080614da8565b92936020600181928786015181550195019301614d92565b909150835f5260205f20601f840160051c81019160208510614e2b575b90601f859493920160051c01905b818110614e1d5750614c4d565b5f8155849350600101614e10565b9091508190614e02565b015190505f80614be6565b90601f19831691845f52815f20925f5b818110614e8f575091600193918560209897969410614e77575b505050811b019055614bfa565b01515f1960f88460031b161c191690555f8080614e6a565b92936020600181928786015181550195019301614e50565b835f5260205f20601f840160051c81019160208510614ee2575b601f0160051c01905b818110614ed75750614bc9565b5f8155600101614eca565b9091508190614ec1565b929091604051614efb81613c26565b5f81526020810194428652604082015f8152606083015f8152608084015f815260a08501905f825260c08601925f845260e08701945f8652610100880196875261012088019a8b5260209b8c80809b614f576040519d8e613c42565b5f8d526101408c019c8d52604051928184925191829101835e81015f815203019020985160078110156128675760ff80198b541691161789555160018901555160028801555160038701555160048601555160058501555160068401555160078301556008820190519081518051906001600160401b038211610327578190614fe08454613d30565b601f81116154ed575b508990601f831160011461548a575f9261547f575b50508160011b915f199060031b1c19161790555b60098201868201518051906001600160401b0382116103275781906150378454613d30565b601f8111615431575b508990601f83116001146153ce575f926153c3575b50508160011b915f199060031b1c19161790555b60400151600a820180546001600160a01b0319166001600160a01b0392909216919091179055925180518051919491600b8301916001600160401b0382116103275781906150b78454613d30565b601f8111615375575b508890601f8311600114615312575f92615307575b50508160011b915f199060031b1c19161790555b600c81019385810151948551956001600160401b0387116103275761510e8254613d30565b601f81116152c4575b508790601f881160011461525d57968091600e9697985f92615252575b50508160011b915f199060031b1c19161790555b60400151600d820180546001600160a01b0319166001600160a01b03929092169190911790559151805190949190920191906001600160401b038211610327576151928354613d30565b601f811161520f575b5080601f83116001146151c85750819293945f926147335750508160011b915f199060031b1c1916179055565b90601f19831695845f52825f20925f905b8882106151f75750508360019596971061476c57505050811b019055565b806001859682949686015181550195019301906151d9565b835f52815f20601f840160051c810191838510615248575b601f0160051c01905b81811061523d575061519b565b5f8155600101615230565b9091508190615227565b015190505f80615134565b90601f19881691835f52895f20925f5b8b8282106152ae57505091600193918a600e999a9b9410615296575b505050811b019055615148565b01515f1960f88460031b161c191690555f8080615289565b600185968293968601518155019501930161526d565b825f52885f20601f890160051c8101918a8a106152fd575b601f0160051c01905b8181106152f25750615117565b5f81556001016152e5565b90915081906152dc565b015190505f806150d5565b5f8581528a81209350601f198516905b8b82821061535f575050908460019594939210615347575b505050811b0190556150e9565b01515f1960f88460031b161c191690555f808061533a565b6001859682939686015181550195019301615322565b909150835f52885f20601f840160051c8101918a85106153b9575b90601f859493920160051c01905b8181106153ab57506150c0565b5f815584935060010161539e565b9091508190615390565b015190505f80615055565b5f8581528b81209350601f198516905b8c82821061541b575050908460019594939210615403575b505050811b019055615069565b01515f1960f88460031b161c191690555f80806153f6565b60018596829396860151815501950193016153de565b909150835f52895f20601f840160051c8101918b8510615475575b90601f859493920160051c01905b8181106154675750615040565b5f815584935060010161545a565b909150819061544c565b015190505f80614ffe565b5f8581528b81209350601f198516905b8c8282106154d75750509084600195949392106154bf575b505050811b019055615012565b01515f1960f88460031b161c191690555f80806154b2565b600185968293968601518155019501930161549a565b909150835f52895f20601f840160051c8101918b8510615531575b90601f859493920160051c01905b8181106155235750614fe9565b5f8155849350600101615516565b909150819061550856fea2646970667358221220f842dab69ba41a55b2e1f4586353bcfee4e3bd8f6d545d96044c55b1447a671664736f6c634300081b0033","opcodes":"PUSH1 0x80 DUP1 PUSH1 0x40 MSTORE CALLVALUE PUSH1 0x15 JUMPI PUSH2 0x5571 SWAP1 DUP2 PUSH2 0x1A DUP3 CODECOPY RETURN JUMPDEST PUSH0 DUP1 REVERT INVALID PUSH1 0x80 PUSH1 0x40 MSTORE PUSH1 0x4 CALLDATASIZE LT ISZERO PUSH2 0x11 JUMPI PUSH0 DUP1 REVERT JUMPDEST PUSH0 CALLDATALOAD PUSH1 0xE0 SHR DUP1 PUSH4 0x7B11C0B EQ PUSH2 0x3704 JUMPI DUP1 PUSH4 0x17E68309 EQ PUSH2 0x36A3 JUMPI DUP1 PUSH4 0x19859C87 EQ PUSH2 0x366B JUMPI DUP1 PUSH4 0x1ACF2500 EQ PUSH2 0x3532 JUMPI DUP1 PUSH4 0x2B93F7F2 EQ PUSH2 0x3084 JUMPI DUP1 PUSH4 0x2E9CF827 EQ PUSH2 0x3000 JUMPI DUP1 PUSH4 0x34A34F30 EQ PUSH2 0x2EF5 JUMPI DUP1 PUSH4 0x43762AA8 EQ PUSH2 0x2E21 JUMPI DUP1 PUSH4 0x500619D0 EQ PUSH2 0x2CE5 JUMPI DUP1 PUSH4 0x5691ACF7 EQ PUSH2 0x2C45 JUMPI DUP1 PUSH4 0x682053D9 EQ PUSH2 0x18A3 JUMPI DUP1 PUSH4 0x6D1AA7D5 EQ PUSH2 0x1669 JUMPI DUP1 PUSH4 0x6F12C230 EQ PUSH2 0x1740 JUMPI DUP1 PUSH4 0x72C17CB9 EQ PUSH2 0x16A4 JUMPI DUP1 PUSH4 0x761FB19A EQ PUSH2 0x1669 JUMPI DUP1 PUSH4 0x7AB09648 EQ PUSH2 0x15E1 JUMPI DUP1 PUSH4 0x7E8F8DA7 EQ PUSH2 0x121E JUMPI DUP1 PUSH4 0x9740DBED EQ PUSH2 0x11E2 JUMPI DUP1 PUSH4 0x9AAA5D8B EQ PUSH2 0x11A7 JUMPI DUP1 PUSH4 0x9C6B1F10 EQ PUSH2 0x10DF JUMPI DUP1 PUSH4 0xA7226527 EQ PUSH2 0x4C6 JUMPI DUP1 PUSH4 0xBE2E2325 EQ PUSH2 0x476 JUMPI DUP1 PUSH4 0xBF3F80AC EQ PUSH2 0x40C JUMPI DUP1 PUSH4 0xD26196FD EQ PUSH2 0x3F5 JUMPI DUP1 PUSH4 0xE9C260D7 EQ PUSH2 0x3DE JUMPI DUP1 PUSH4 0xF14261D2 EQ PUSH2 0x366 JUMPI DUP1 PUSH4 0xF5104FF1 EQ PUSH2 0x34F JUMPI DUP1 PUSH4 0xF53EF126 EQ PUSH2 0x1D7 JUMPI PUSH4 0xFB5FB9A3 EQ PUSH2 0x158 JUMPI PUSH0 DUP1 REVERT JUMPDEST CALLVALUE PUSH2 0x1D3 JUMPI PUSH1 0x60 CALLDATASIZE PUSH1 0x3 NOT ADD SLT PUSH2 0x1D3 JUMPI PUSH1 0x4 CALLDATALOAD PUSH1 0x1 PUSH1 0x1 PUSH1 0x40 SHL SUB DUP2 GT PUSH2 0x1D3 JUMPI PUSH2 0x188 SWAP1 CALLDATASIZE SWAP1 PUSH1 0x4 ADD PUSH2 0x41E0 JUMP JUMPDEST PUSH1 0x24 CALLDATALOAD PUSH1 0x1 PUSH1 0x1 PUSH1 0x40 SHL SUB DUP2 GT PUSH2 0x1D3 JUMPI PUSH2 0x1A7 SWAP1 CALLDATASIZE SWAP1 PUSH1 0x4 ADD PUSH2 0x41E0 JUMP JUMPDEST SWAP1 PUSH1 0x44 CALLDATALOAD SWAP2 PUSH1 0x1 PUSH1 0x1 PUSH1 0x40 SHL SUB DUP4 GT PUSH2 0x1D3 JUMPI PUSH2 0x1CB PUSH2 0x1D1 SWAP4 CALLDATASIZE SWAP1 PUSH1 0x4 ADD PUSH2 0x3C63 JUMP JUMPDEST SWAP2 PUSH2 0x4EEC JUMP JUMPDEST STOP JUMPDEST PUSH0 DUP1 REVERT JUMPDEST CALLVALUE PUSH2 0x1D3 JUMPI PUSH1 0x20 DUP1 PUSH2 0x1E8 CALLDATASIZE PUSH2 0x4196 JUMP JUMPDEST SWAP3 SWAP1 PUSH1 0x40 MLOAD SWAP3 DUP2 DUP5 SWAP3 MLOAD SWAP2 DUP3 SWAP2 ADD DUP4 MCOPY DUP2 ADD PUSH0 DUP2 MSTORE SUB ADD SWAP1 KECCAK256 TIMESTAMP PUSH1 0x2 DUP3 ADD SSTORE PUSH1 0x82 TIMESTAMP ADD SWAP1 DUP2 TIMESTAMP GT PUSH2 0x33B JUMPI PUSH1 0xE SWAP2 PUSH1 0x5 DUP3 ADD SSTORE PUSH1 0x6 PUSH1 0xFF NOT DUP3 SLOAD AND OR DUP2 SSTORE ADD DUP2 MLOAD PUSH1 0x1 PUSH1 0x1 PUSH1 0x40 SHL SUB DUP2 GT PUSH2 0x327 JUMPI PUSH2 0x241 DUP3 SLOAD PUSH2 0x3D30 JUMP JUMPDEST PUSH1 0x1F DUP2 GT PUSH2 0x2E2 JUMPI JUMPDEST POP PUSH1 0x20 SWAP3 PUSH1 0x1F DUP3 GT PUSH1 0x1 EQ PUSH2 0x286 JUMPI SWAP3 DUP2 SWAP3 SWAP4 PUSH0 SWAP3 PUSH2 0x27B JUMPI JUMPDEST POP POP PUSH0 NOT PUSH1 0x3 DUP4 SWAP1 SHL SHR NOT AND PUSH1 0x1 SWAP2 SWAP1 SWAP2 SHL OR SWAP1 SSTORE STOP JUMPDEST ADD MLOAD SWAP1 POP DUP4 DUP1 PUSH2 0x264 JUMP JUMPDEST PUSH1 0x1F NOT DUP3 AND SWAP4 DUP4 PUSH0 MSTORE DUP1 PUSH0 KECCAK256 SWAP2 PUSH0 JUMPDEST DUP7 DUP2 LT PUSH2 0x2CA JUMPI POP DUP4 PUSH1 0x1 SWAP6 SWAP7 LT PUSH2 0x2B2 JUMPI JUMPDEST POP POP POP DUP2 SHL ADD SWAP1 SSTORE STOP JUMPDEST ADD MLOAD PUSH0 NOT PUSH1 0xF8 DUP5 PUSH1 0x3 SHL AND SHR NOT AND SWAP1 SSTORE DUP4 DUP1 DUP1 PUSH2 0x2A8 JUMP JUMPDEST SWAP2 SWAP3 PUSH1 0x20 PUSH1 0x1 DUP2 SWAP3 DUP7 DUP6 ADD MLOAD DUP2 SSTORE ADD SWAP5 ADD SWAP3 ADD PUSH2 0x295 JUMP JUMPDEST DUP3 PUSH0 MSTORE PUSH1 0x20 PUSH0 KECCAK256 PUSH1 0x1F DUP4 ADD PUSH1 0x5 SHR DUP2 ADD SWAP2 PUSH1 0x20 DUP5 LT PUSH2 0x31D JUMPI JUMPDEST PUSH1 0x1F ADD PUSH1 0x5 SHR ADD SWAP1 JUMPDEST DUP2 DUP2 LT PUSH2 0x312 JUMPI POP PUSH2 0x24A JUMP JUMPDEST PUSH0 DUP2 SSTORE PUSH1 0x1 ADD PUSH2 0x305 JUMP JUMPDEST SWAP1 SWAP2 POP DUP2 SWAP1 PUSH2 0x2FC JUMP JUMPDEST PUSH4 0x4E487B71 PUSH1 0xE0 SHL PUSH0 MSTORE PUSH1 0x41 PUSH1 0x4 MSTORE PUSH1 0x24 PUSH0 REVERT JUMPDEST PUSH4 0x4E487B71 PUSH1 0xE0 SHL PUSH0 MSTORE PUSH1 0x11 PUSH1 0x4 MSTORE PUSH1 0x24 PUSH0 REVERT JUMPDEST CALLVALUE PUSH2 0x1D3 JUMPI PUSH2 0x1D1 PUSH2 0x360 CALLDATASIZE PUSH2 0x4258 JUMP JUMPDEST SWAP2 PUSH2 0x4B7E JUMP JUMPDEST CALLVALUE PUSH2 0x1D3 JUMPI PUSH0 CALLDATASIZE PUSH1 0x3 NOT ADD SLT PUSH2 0x1D3 JUMPI PUSH1 0x2 SLOAD PUSH2 0x382 DUP2 PUSH2 0x43FF JUMP JUMPDEST SWAP1 PUSH0 DUP1 JUMPDEST DUP3 DUP3 LT PUSH2 0x39F JUMPI PUSH1 0x40 MLOAD DUP1 PUSH2 0x39B DUP7 DUP3 PUSH2 0x4016 JUMP JUMPDEST SUB SWAP1 RETURN JUMPDEST PUSH2 0x3D6 PUSH1 0x1 SWAP2 PUSH2 0x3D0 PUSH2 0x3BA PUSH2 0x3B4 DUP7 PUSH2 0x3E54 JUMP JUMPDEST POP PUSH2 0x4490 JUMP JUMPDEST PUSH1 0xFF DUP4 AND SWAP1 PUSH2 0x3C9 DUP3 DUP11 PUSH2 0x447C JUMP JUMPDEST MSTORE DUP8 PUSH2 0x447C JUMP JUMPDEST POP PUSH2 0x43D7 JUMP JUMPDEST SWAP2 ADD SWAP1 PUSH2 0x386 JUMP JUMPDEST CALLVALUE PUSH2 0x1D3 JUMPI PUSH2 0x1D1 PUSH2 0x3EF CALLDATASIZE PUSH2 0x4258 JUMP JUMPDEST SWAP2 PUSH2 0x47E1 JUMP JUMPDEST CALLVALUE PUSH2 0x1D3 JUMPI PUSH2 0x1D1 PUSH2 0x406 CALLDATASIZE PUSH2 0x4196 JUMP JUMPDEST SWAP1 PUSH2 0x469E JUMP JUMPDEST CALLVALUE PUSH2 0x1D3 JUMPI PUSH1 0x20 CALLDATASIZE PUSH1 0x3 NOT ADD SLT PUSH2 0x1D3 JUMPI PUSH1 0x4 CALLDATALOAD PUSH1 0x1 PUSH1 0x1 PUSH1 0x40 SHL SUB DUP2 GT PUSH2 0x1D3 JUMPI PUSH2 0x462 PUSH1 0x20 DUP1 PUSH2 0x445 PUSH2 0x39B SWAP5 CALLDATASIZE SWAP1 PUSH1 0x4 ADD PUSH2 0x3C63 JUMP JUMPDEST PUSH1 0x40 MLOAD SWAP3 DUP2 DUP5 SWAP3 MLOAD SWAP2 DUP3 SWAP2 ADD DUP4 MCOPY DUP2 ADD PUSH1 0x1 DUP2 MSTORE SUB ADD SWAP1 KECCAK256 PUSH2 0x3D68 JUMP JUMPDEST PUSH1 0x40 MLOAD SWAP2 DUP3 SWAP2 PUSH1 0x20 DUP4 MSTORE PUSH1 0x20 DUP4 ADD SWAP1 PUSH2 0x3CB8 JUMP JUMPDEST CALLVALUE PUSH2 0x1D3 JUMPI PUSH1 0x20 CALLDATASIZE PUSH1 0x3 NOT ADD SLT PUSH2 0x1D3 JUMPI PUSH1 0x4 CALLDATALOAD PUSH1 0x1 PUSH1 0x1 PUSH1 0x40 SHL SUB DUP2 GT PUSH2 0x1D3 JUMPI PUSH2 0x4BA PUSH2 0x4AC PUSH2 0x39B SWAP3 CALLDATASIZE SWAP1 PUSH1 0x4 ADD PUSH2 0x3C63 JUMP JUMPDEST PUSH2 0x4B4 PUSH2 0x4582 JUMP JUMPDEST POP PUSH2 0x45E1 JUMP JUMPDEST PUSH1 0x40 MLOAD SWAP2 DUP3 SWAP2 DUP3 PUSH2 0x40E6 JUMP JUMPDEST CALLVALUE PUSH2 0x1D3 JUMPI PUSH1 0x60 CALLDATASIZE PUSH1 0x3 NOT ADD SLT PUSH2 0x1D3 JUMPI PUSH1 0x4 CALLDATALOAD PUSH1 0x1 PUSH1 0x1 PUSH1 0x40 SHL SUB DUP2 GT PUSH2 0x1D3 JUMPI PUSH2 0x4F6 SWAP1 CALLDATASIZE SWAP1 PUSH1 0x4 ADD PUSH2 0x3C63 JUMP JUMPDEST PUSH1 0x24 CALLDATALOAD PUSH1 0x1 PUSH1 0x1 PUSH1 0x40 SHL SUB DUP2 GT PUSH2 0x1D3 JUMPI PUSH2 0x515 SWAP1 CALLDATASIZE SWAP1 PUSH1 0x4 ADD PUSH2 0x3E84 JUMP JUMPDEST SWAP1 PUSH1 0x44 CALLDATALOAD PUSH1 0x1 PUSH1 0x1 PUSH1 0x40 SHL SUB DUP2 GT PUSH2 0x1D3 JUMPI PUSH2 0x535 SWAP1 CALLDATASIZE SWAP1 PUSH1 0x4 ADD PUSH2 0x3EE3 JUMP JUMPDEST PUSH2 0x53E DUP3 PUSH2 0x434A JUMP JUMPDEST PUSH1 0x2 SLOAD SWAP2 PUSH1 0x20 DUP2 ADD SWAP1 PUSH0 JUMPDEST DUP5 DUP2 LT PUSH2 0x552 JUMPI STOP JUMPDEST PUSH2 0x55B DUP2 PUSH2 0x3E54 JUMP JUMPDEST POP PUSH1 0x40 MLOAD PUSH2 0x57F DUP2 PUSH2 0x571 PUSH1 0x20 DUP3 ADD DUP1 SWAP6 PUSH2 0x42C0 JUMP JUMPDEST SUB PUSH1 0x1F NOT DUP2 ADD DUP4 MSTORE DUP3 PUSH2 0x3C42 JUMP JUMPDEST MLOAD SWAP1 KECCAK256 PUSH1 0x40 MLOAD PUSH1 0x20 DUP2 ADD SWAP1 PUSH2 0x5AC PUSH1 0x20 DUP3 DUP8 MLOAD DUP1 DUP11 DUP8 MCOPY DUP2 ADD PUSH0 DUP4 DUP3 ADD MSTORE SUB ADD PUSH1 0x1F NOT DUP2 ADD DUP4 MSTORE DUP3 PUSH2 0x3C42 JUMP JUMPDEST MLOAD SWAP1 KECCAK256 EQ PUSH2 0x5BD JUMPI JUMPDEST PUSH1 0x1 ADD PUSH2 0x549 JUMP JUMPDEST PUSH1 0x3 PUSH2 0x5C8 DUP3 PUSH2 0x3E54 JUMP JUMPDEST POP ADD DUP1 SLOAD PUSH2 0xFF00 NOT AND PUSH2 0x300 OR SWAP1 SSTORE PUSH2 0x5F2 PUSH1 0x20 PUSH2 0x5E5 DUP4 PUSH2 0x3E54 JUMP JUMPDEST POP PUSH1 0x40 MLOAD SWAP3 DUP4 DUP1 SWAP3 PUSH2 0x42C0 JUMP JUMPDEST PUSH1 0x4 DUP2 MSTORE SUB ADD SWAP1 KECCAK256 DUP7 MLOAD DUP1 MLOAD SWAP1 PUSH1 0x1 PUSH1 0x1 PUSH1 0x40 SHL SUB DUP3 GT PUSH2 0x327 JUMPI PUSH2 0x617 DUP4 SLOAD PUSH2 0x3D30 JUMP JUMPDEST PUSH1 0x1F DUP2 GT PUSH2 0x109A JUMPI JUMPDEST POP PUSH1 0x20 SWAP1 PUSH1 0x1F DUP4 GT PUSH1 0x1 EQ PUSH2 0x1034 JUMPI PUSH1 0x1 SWAP4 SWAP3 SWAP2 PUSH0 SWAP2 DUP4 PUSH2 0x1029 JUMPI JUMPDEST POP POP PUSH0 NOT PUSH1 0x3 DUP4 SWAP1 SHL SHR NOT AND SWAP1 DUP4 SHL OR DUP2 SSTORE JUMPDEST ADD PUSH1 0x20 DUP8 ADD MLOAD DUP1 MLOAD SWAP1 PUSH1 0x1 PUSH1 0x1 PUSH1 0x40 SHL SUB DUP3 GT PUSH2 0x327 JUMPI DUP2 SWAP1 PUSH2 0x672 DUP5 SLOAD PUSH2 0x3D30 JUMP JUMPDEST PUSH1 0x1F DUP2 GT PUSH2 0xFD9 JUMPI JUMPDEST POP PUSH1 0x20 SWAP1 PUSH1 0x1F DUP4 GT PUSH1 0x1 EQ PUSH2 0xF76 JUMPI PUSH0 SWAP3 PUSH2 0xF6B JUMPI JUMPDEST POP POP DUP2 PUSH1 0x1 SHL SWAP2 PUSH0 NOT SWAP1 PUSH1 0x3 SHL SHR NOT AND OR SWAP1 SSTORE JUMPDEST PUSH2 0x6B3 PUSH1 0x20 PUSH2 0x5E5 DUP4 PUSH2 0x3E54 JUMP JUMPDEST PUSH1 0x5 DUP2 MSTORE SUB ADD SWAP1 KECCAK256 DUP5 MLOAD DUP1 MLOAD SWAP1 PUSH1 0x1 PUSH1 0x1 PUSH1 0x40 SHL SUB DUP3 GT PUSH2 0x327 JUMPI DUP2 SWAP1 PUSH2 0x6DA DUP5 SLOAD PUSH2 0x3D30 JUMP JUMPDEST PUSH1 0x1F DUP2 GT PUSH2 0xF1B JUMPI JUMPDEST POP PUSH1 0x20 SWAP1 PUSH1 0x1F DUP4 GT PUSH1 0x1 EQ PUSH2 0xEB8 JUMPI PUSH0 SWAP3 PUSH2 0xEAD JUMPI JUMPDEST POP POP DUP2 PUSH1 0x1 SHL SWAP2 PUSH0 NOT SWAP1 PUSH1 0x3 SHL SHR NOT AND OR DUP2 SSTORE JUMPDEST PUSH1 0x1 DUP2 ADD PUSH1 0x20 DUP7 ADD MLOAD DUP1 MLOAD SWAP1 PUSH1 0x1 PUSH1 0x1 PUSH1 0x40 SHL SUB DUP3 GT PUSH2 0x327 JUMPI DUP2 SWAP1 PUSH2 0x733 DUP5 SLOAD PUSH2 0x3D30 JUMP JUMPDEST PUSH1 0x1F DUP2 GT PUSH2 0xE5D JUMPI JUMPDEST POP PUSH1 0x20 SWAP1 PUSH1 0x1F DUP4 GT PUSH1 0x1 EQ PUSH2 0xDFA JUMPI PUSH0 SWAP3 PUSH2 0xDEF JUMPI JUMPDEST POP POP DUP2 PUSH1 0x1 SHL SWAP2 PUSH0 NOT SWAP1 PUSH1 0x3 SHL SHR NOT AND OR SWAP1 SSTORE JUMPDEST PUSH1 0x2 DUP2 ADD PUSH1 0x40 DUP7 ADD MLOAD DUP1 MLOAD SWAP1 PUSH1 0x1 PUSH1 0x1 PUSH1 0x40 SHL SUB DUP3 GT PUSH2 0x327 JUMPI DUP2 SWAP1 PUSH2 0x78C DUP5 SLOAD PUSH2 0x3D30 JUMP JUMPDEST PUSH1 0x1F DUP2 GT PUSH2 0xD9F JUMPI JUMPDEST POP PUSH1 0x20 SWAP1 PUSH1 0x1F DUP4 GT PUSH1 0x1 EQ PUSH2 0xD3C JUMPI PUSH0 SWAP3 PUSH2 0xD31 JUMPI JUMPDEST POP POP DUP2 PUSH1 0x1 SHL SWAP2 PUSH0 NOT SWAP1 PUSH1 0x3 SHL SHR NOT AND OR SWAP1 SSTORE JUMPDEST PUSH1 0x3 DUP2 ADD PUSH1 0x60 DUP7 ADD MLOAD DUP1 MLOAD SWAP1 PUSH1 0x1 PUSH1 0x1 PUSH1 0x40 SHL SUB DUP3 GT PUSH2 0x327 JUMPI DUP2 SWAP1 PUSH2 0x7E5 DUP5 SLOAD PUSH2 0x3D30 JUMP JUMPDEST PUSH1 0x1F DUP2 GT PUSH2 0xCE1 JUMPI JUMPDEST POP PUSH1 0x20 SWAP1 PUSH1 0x1F DUP4 GT PUSH1 0x1 EQ PUSH2 0xC7E JUMPI PUSH0 SWAP3 PUSH2 0xC73 JUMPI JUMPDEST POP POP DUP2 PUSH1 0x1 SHL SWAP2 PUSH0 NOT SWAP1 PUSH1 0x3 SHL SHR NOT AND OR SWAP1 SSTORE JUMPDEST PUSH1 0x4 DUP2 ADD PUSH1 0x80 DUP7 ADD MLOAD DUP1 MLOAD SWAP1 PUSH1 0x1 PUSH1 0x1 PUSH1 0x40 SHL SUB DUP3 GT PUSH2 0x327 JUMPI DUP2 SWAP1 PUSH2 0x83E DUP5 SLOAD PUSH2 0x3D30 JUMP JUMPDEST PUSH1 0x1F DUP2 GT PUSH2 0xC23 JUMPI JUMPDEST POP PUSH1 0x20 SWAP1 PUSH1 0x1F DUP4 GT PUSH1 0x1 EQ PUSH2 0xBC0 JUMPI PUSH0 SWAP3 PUSH2 0xBB5 JUMPI JUMPDEST POP POP DUP2 PUSH1 0x1 SHL SWAP2 PUSH0 NOT SWAP1 PUSH1 0x3 SHL SHR NOT AND OR SWAP1 SSTORE JUMPDEST PUSH1 0x5 DUP2 ADD PUSH1 0xA0 DUP7 ADD MLOAD DUP1 MLOAD SWAP1 PUSH1 0x1 PUSH1 0x1 PUSH1 0x40 SHL SUB DUP3 GT PUSH2 0x327 JUMPI DUP2 SWAP1 PUSH2 0x897 DUP5 SLOAD PUSH2 0x3D30 JUMP JUMPDEST PUSH1 0x1F DUP2 GT PUSH2 0xB65 JUMPI JUMPDEST POP PUSH1 0x20 SWAP1 PUSH1 0x1F DUP4 GT PUSH1 0x1 EQ PUSH2 0xB02 JUMPI PUSH0 SWAP3 PUSH2 0xAF7 JUMPI JUMPDEST POP POP DUP2 PUSH1 0x1 SHL SWAP2 PUSH0 NOT SWAP1 PUSH1 0x3 SHL SHR NOT AND OR SWAP1 SSTORE JUMPDEST PUSH1 0x6 DUP2 ADD PUSH1 0xC0 DUP7 ADD MLOAD DUP1 MLOAD SWAP1 PUSH1 0x1 PUSH1 0x1 PUSH1 0x40 SHL SUB DUP3 GT PUSH2 0x327 JUMPI PUSH2 0x8EE DUP4 SLOAD PUSH2 0x3D30 JUMP JUMPDEST PUSH1 0x1F DUP2 GT PUSH2 0xAB2 JUMPI JUMPDEST POP PUSH1 0x20 SWAP1 PUSH1 0x1F DUP4 GT PUSH1 0x1 EQ PUSH2 0xA4B JUMPI PUSH1 0x7 SWAP5 SWAP4 SWAP3 SWAP2 PUSH0 SWAP2 DUP4 PUSH2 0xA40 JUMPI JUMPDEST POP POP DUP2 PUSH1 0x1 SHL SWAP2 PUSH0 NOT SWAP1 PUSH1 0x3 SHL SHR NOT AND OR SWAP1 SSTORE JUMPDEST ADD PUSH1 0xE0 DUP6 ADD MLOAD DUP1 MLOAD SWAP1 PUSH1 0x1 PUSH1 0x1 PUSH1 0x40 SHL SUB DUP3 GT PUSH2 0x327 JUMPI PUSH2 0x949 DUP4 SLOAD PUSH2 0x3D30 JUMP JUMPDEST PUSH1 0x1F DUP2 GT PUSH2 0x9FB JUMPI JUMPDEST POP PUSH1 0x20 SWAP1 PUSH1 0x1F DUP4 GT PUSH1 0x1 EQ PUSH2 0x994 JUMPI PUSH1 0x1 SWAP5 SWAP4 SWAP3 SWAP2 PUSH0 SWAP2 DUP4 PUSH2 0x989 JUMPI JUMPDEST POP POP PUSH0 NOT PUSH1 0x3 DUP4 SWAP1 SHL SHR NOT AND SWAP1 DUP5 SHL OR SWAP1 SSTORE JUMPDEST SWAP1 POP PUSH2 0x5B5 JUMP JUMPDEST ADD MLOAD SWAP1 POP DUP11 DUP1 PUSH2 0x96F JUMP JUMPDEST SWAP1 PUSH1 0x1F NOT DUP4 AND SWAP2 DUP5 PUSH0 MSTORE DUP2 PUSH0 KECCAK256 SWAP3 PUSH0 JUMPDEST DUP2 DUP2 LT PUSH2 0x9E3 JUMPI POP SWAP2 PUSH1 0x1 SWAP7 SWAP6 SWAP5 SWAP3 SWAP2 DUP4 DUP9 SWAP6 SWAP4 LT PUSH2 0x9CB JUMPI JUMPDEST POP POP POP DUP2 SHL ADD SWAP1 SSTORE PUSH2 0x982 JUMP JUMPDEST ADD MLOAD PUSH0 NOT PUSH1 0xF8 DUP5 PUSH1 0x3 SHL AND SHR NOT AND SWAP1 SSTORE DUP11 DUP1 DUP1 PUSH2 0x9BE JUMP JUMPDEST SWAP3 SWAP4 PUSH1 0x20 PUSH1 0x1 DUP2 SWAP3 DUP8 DUP7 ADD MLOAD DUP2 SSTORE ADD SWAP6 ADD SWAP4 ADD PUSH2 0x9A4 JUMP JUMPDEST DUP4 PUSH0 MSTORE PUSH1 0x20 PUSH0 KECCAK256 PUSH1 0x1F DUP5 ADD PUSH1 0x5 SHR DUP2 ADD SWAP2 PUSH1 0x20 DUP6 LT PUSH2 0xA36 JUMPI JUMPDEST PUSH1 0x1F ADD PUSH1 0x5 SHR ADD SWAP1 JUMPDEST DUP2 DUP2 LT PUSH2 0xA2B JUMPI POP PUSH2 0x952 JUMP JUMPDEST PUSH0 DUP2 SSTORE PUSH1 0x1 ADD PUSH2 0xA1E JUMP JUMPDEST SWAP1 SWAP2 POP DUP2 SWAP1 PUSH2 0xA15 JUMP JUMPDEST ADD MLOAD SWAP1 POP DUP12 DUP1 PUSH2 0x914 JUMP JUMPDEST SWAP1 PUSH1 0x1F NOT DUP4 AND SWAP2 DUP5 PUSH0 MSTORE DUP2 PUSH0 KECCAK256 SWAP3 PUSH0 JUMPDEST DUP2 DUP2 LT PUSH2 0xA9A JUMPI POP SWAP2 PUSH1 0x1 SWAP4 SWAP2 DUP6 PUSH1 0x7 SWAP9 SWAP8 SWAP7 SWAP5 LT PUSH2 0xA82 JUMPI JUMPDEST POP POP POP DUP2 SHL ADD SWAP1 SSTORE PUSH2 0x928 JUMP JUMPDEST ADD MLOAD PUSH0 NOT PUSH1 0xF8 DUP5 PUSH1 0x3 SHL AND SHR NOT AND SWAP1 SSTORE DUP12 DUP1 DUP1 PUSH2 0xA75 JUMP JUMPDEST SWAP3 SWAP4 PUSH1 0x20 PUSH1 0x1 DUP2 SWAP3 DUP8 DUP7 ADD MLOAD DUP2 SSTORE ADD SWAP6 ADD SWAP4 ADD PUSH2 0xA5B JUMP JUMPDEST DUP4 PUSH0 MSTORE PUSH1 0x20 PUSH0 KECCAK256 PUSH1 0x1F DUP5 ADD PUSH1 0x5 SHR DUP2 ADD SWAP2 PUSH1 0x20 DUP6 LT PUSH2 0xAED JUMPI JUMPDEST PUSH1 0x1F ADD PUSH1 0x5 SHR ADD SWAP1 JUMPDEST DUP2 DUP2 LT PUSH2 0xAE2 JUMPI POP PUSH2 0x8F7 JUMP JUMPDEST PUSH0 DUP2 SSTORE PUSH1 0x1 ADD PUSH2 0xAD5 JUMP JUMPDEST SWAP1 SWAP2 POP DUP2 SWAP1 PUSH2 0xACC JUMP JUMPDEST ADD MLOAD SWAP1 POP DUP11 DUP1 PUSH2 0x8B6 JUMP JUMPDEST PUSH0 DUP6 DUP2 MSTORE DUP3 DUP2 KECCAK256 SWAP4 POP PUSH1 0x1F NOT DUP6 AND SWAP1 JUMPDEST DUP2 DUP2 LT PUSH2 0xB4D JUMPI POP SWAP1 DUP5 PUSH1 0x1 SWAP6 SWAP5 SWAP4 SWAP3 LT PUSH2 0xB35 JUMPI JUMPDEST POP POP POP DUP2 SHL ADD SWAP1 SSTORE PUSH2 0x8CA JUMP JUMPDEST ADD MLOAD PUSH0 NOT PUSH1 0xF8 DUP5 PUSH1 0x3 SHL AND SHR NOT AND SWAP1 SSTORE DUP11 DUP1 DUP1 PUSH2 0xB28 JUMP JUMPDEST SWAP3 SWAP4 PUSH1 0x20 PUSH1 0x1 DUP2 SWAP3 DUP8 DUP7 ADD MLOAD DUP2 SSTORE ADD SWAP6 ADD SWAP4 ADD PUSH2 0xB12 JUMP JUMPDEST SWAP1 SWAP2 POP DUP4 PUSH0 MSTORE PUSH1 0x20 PUSH0 KECCAK256 PUSH1 0x1F DUP5 ADD PUSH1 0x5 SHR DUP2 ADD SWAP2 PUSH1 0x20 DUP6 LT PUSH2 0xBAB JUMPI JUMPDEST SWAP1 PUSH1 0x1F DUP6 SWAP5 SWAP4 SWAP3 ADD PUSH1 0x5 SHR ADD SWAP1 JUMPDEST DUP2 DUP2 LT PUSH2 0xB9D JUMPI POP PUSH2 0x8A0 JUMP JUMPDEST PUSH0 DUP2 SSTORE DUP5 SWAP4 POP PUSH1 0x1 ADD PUSH2 0xB90 JUMP JUMPDEST SWAP1 SWAP2 POP DUP2 SWAP1 PUSH2 0xB82 JUMP JUMPDEST ADD MLOAD SWAP1 POP DUP11 DUP1 PUSH2 0x85D JUMP JUMPDEST PUSH0 DUP6 DUP2 MSTORE DUP3 DUP2 KECCAK256 SWAP4 POP PUSH1 0x1F NOT DUP6 AND SWAP1 JUMPDEST DUP2 DUP2 LT PUSH2 0xC0B JUMPI POP SWAP1 DUP5 PUSH1 0x1 SWAP6 SWAP5 SWAP4 SWAP3 LT PUSH2 0xBF3 JUMPI JUMPDEST POP POP POP DUP2 SHL ADD SWAP1 SSTORE PUSH2 0x871 JUMP JUMPDEST ADD MLOAD PUSH0 NOT PUSH1 0xF8 DUP5 PUSH1 0x3 SHL AND SHR NOT AND SWAP1 SSTORE DUP11 DUP1 DUP1 PUSH2 0xBE6 JUMP JUMPDEST SWAP3 SWAP4 PUSH1 0x20 PUSH1 0x1 DUP2 SWAP3 DUP8 DUP7 ADD MLOAD DUP2 SSTORE ADD SWAP6 ADD SWAP4 ADD PUSH2 0xBD0 JUMP JUMPDEST SWAP1 SWAP2 POP DUP4 PUSH0 MSTORE PUSH1 0x20 PUSH0 KECCAK256 PUSH1 0x1F DUP5 ADD PUSH1 0x5 SHR DUP2 ADD SWAP2 PUSH1 0x20 DUP6 LT PUSH2 0xC69 JUMPI JUMPDEST SWAP1 PUSH1 0x1F DUP6 SWAP5 SWAP4 SWAP3 ADD PUSH1 0x5 SHR ADD SWAP1 JUMPDEST DUP2 DUP2 LT PUSH2 0xC5B JUMPI POP PUSH2 0x847 JUMP JUMPDEST PUSH0 DUP2 SSTORE DUP5 SWAP4 POP PUSH1 0x1 ADD PUSH2 0xC4E JUMP JUMPDEST SWAP1 SWAP2 POP DUP2 SWAP1 PUSH2 0xC40 JUMP JUMPDEST ADD MLOAD SWAP1 POP DUP11 DUP1 PUSH2 0x804 JUMP JUMPDEST PUSH0 DUP6 DUP2 MSTORE DUP3 DUP2 KECCAK256 SWAP4 POP PUSH1 0x1F NOT DUP6 AND SWAP1 JUMPDEST DUP2 DUP2 LT PUSH2 0xCC9 JUMPI POP SWAP1 DUP5 PUSH1 0x1 SWAP6 SWAP5 SWAP4 SWAP3 LT PUSH2 0xCB1 JUMPI JUMPDEST POP POP POP DUP2 SHL ADD SWAP1 SSTORE PUSH2 0x818 JUMP JUMPDEST ADD MLOAD PUSH0 NOT PUSH1 0xF8 DUP5 PUSH1 0x3 SHL AND SHR NOT AND SWAP1 SSTORE DUP11 DUP1 DUP1 PUSH2 0xCA4 JUMP JUMPDEST SWAP3 SWAP4 PUSH1 0x20 PUSH1 0x1 DUP2 SWAP3 DUP8 DUP7 ADD MLOAD DUP2 SSTORE ADD SWAP6 ADD SWAP4 ADD PUSH2 0xC8E JUMP JUMPDEST SWAP1 SWAP2 POP DUP4 PUSH0 MSTORE PUSH1 0x20 PUSH0 KECCAK256 PUSH1 0x1F DUP5 ADD PUSH1 0x5 SHR DUP2 ADD SWAP2 PUSH1 0x20 DUP6 LT PUSH2 0xD27 JUMPI JUMPDEST SWAP1 PUSH1 0x1F DUP6 SWAP5 SWAP4 SWAP3 ADD PUSH1 0x5 SHR ADD SWAP1 JUMPDEST DUP2 DUP2 LT PUSH2 0xD19 JUMPI POP PUSH2 0x7EE JUMP JUMPDEST PUSH0 DUP2 SSTORE DUP5 SWAP4 POP PUSH1 0x1 ADD PUSH2 0xD0C JUMP JUMPDEST SWAP1 SWAP2 POP DUP2 SWAP1 PUSH2 0xCFE JUMP JUMPDEST ADD MLOAD SWAP1 POP DUP11 DUP1 PUSH2 0x7AB JUMP JUMPDEST PUSH0 DUP6 DUP2 MSTORE DUP3 DUP2 KECCAK256 SWAP4 POP PUSH1 0x1F NOT DUP6 AND SWAP1 JUMPDEST DUP2 DUP2 LT PUSH2 0xD87 JUMPI POP SWAP1 DUP5 PUSH1 0x1 SWAP6 SWAP5 SWAP4 SWAP3 LT PUSH2 0xD6F JUMPI JUMPDEST POP POP POP DUP2 SHL ADD SWAP1 SSTORE PUSH2 0x7BF JUMP JUMPDEST ADD MLOAD PUSH0 NOT PUSH1 0xF8 DUP5 PUSH1 0x3 SHL AND SHR NOT AND SWAP1 SSTORE DUP11 DUP1 DUP1 PUSH2 0xD62 JUMP JUMPDEST SWAP3 SWAP4 PUSH1 0x20 PUSH1 0x1 DUP2 SWAP3 DUP8 DUP7 ADD MLOAD DUP2 SSTORE ADD SWAP6 ADD SWAP4 ADD PUSH2 0xD4C JUMP JUMPDEST SWAP1 SWAP2 POP DUP4 PUSH0 MSTORE PUSH1 0x20 PUSH0 KECCAK256 PUSH1 0x1F DUP5 ADD PUSH1 0x5 SHR DUP2 ADD SWAP2 PUSH1 0x20 DUP6 LT PUSH2 0xDE5 JUMPI JUMPDEST SWAP1 PUSH1 0x1F DUP6 SWAP5 SWAP4 SWAP3 ADD PUSH1 0x5 SHR ADD SWAP1 JUMPDEST DUP2 DUP2 LT PUSH2 0xDD7 JUMPI POP PUSH2 0x795 JUMP JUMPDEST PUSH0 DUP2 SSTORE DUP5 SWAP4 POP PUSH1 0x1 ADD PUSH2 0xDCA JUMP JUMPDEST SWAP1 SWAP2 POP DUP2 SWAP1 PUSH2 0xDBC JUMP JUMPDEST ADD MLOAD SWAP1 POP DUP11 DUP1 PUSH2 0x752 JUMP JUMPDEST PUSH0 DUP6 DUP2 MSTORE DUP3 DUP2 KECCAK256 SWAP4 POP PUSH1 0x1F NOT DUP6 AND SWAP1 JUMPDEST DUP2 DUP2 LT PUSH2 0xE45 JUMPI POP SWAP1 DUP5 PUSH1 0x1 SWAP6 SWAP5 SWAP4 SWAP3 LT PUSH2 0xE2D JUMPI JUMPDEST POP POP POP DUP2 SHL ADD SWAP1 SSTORE PUSH2 0x766 JUMP JUMPDEST ADD MLOAD PUSH0 NOT PUSH1 0xF8 DUP5 PUSH1 0x3 SHL AND SHR NOT AND SWAP1 SSTORE DUP11 DUP1 DUP1 PUSH2 0xE20 JUMP JUMPDEST SWAP3 SWAP4 PUSH1 0x20 PUSH1 0x1 DUP2 SWAP3 DUP8 DUP7 ADD MLOAD DUP2 SSTORE ADD SWAP6 ADD SWAP4 ADD PUSH2 0xE0A JUMP JUMPDEST SWAP1 SWAP2 POP DUP4 PUSH0 MSTORE PUSH1 0x20 PUSH0 KECCAK256 PUSH1 0x1F DUP5 ADD PUSH1 0x5 SHR DUP2 ADD SWAP2 PUSH1 0x20 DUP6 LT PUSH2 0xEA3 JUMPI JUMPDEST SWAP1 PUSH1 0x1F DUP6 SWAP5 SWAP4 SWAP3 ADD PUSH1 0x5 SHR ADD SWAP1 JUMPDEST DUP2 DUP2 LT PUSH2 0xE95 JUMPI POP PUSH2 0x73C JUMP JUMPDEST PUSH0 DUP2 SSTORE DUP5 SWAP4 POP PUSH1 0x1 ADD PUSH2 0xE88 JUMP JUMPDEST SWAP1 SWAP2 POP DUP2 SWAP1 PUSH2 0xE7A JUMP JUMPDEST ADD MLOAD SWAP1 POP DUP10 DUP1 PUSH2 0x6F9 JUMP JUMPDEST PUSH0 DUP6 DUP2 MSTORE DUP3 DUP2 KECCAK256 SWAP4 POP PUSH1 0x1F NOT DUP6 AND SWAP1 JUMPDEST DUP2 DUP2 LT PUSH2 0xF03 JUMPI POP SWAP1 DUP5 PUSH1 0x1 SWAP6 SWAP5 SWAP4 SWAP3 LT PUSH2 0xEEB JUMPI JUMPDEST POP POP POP DUP2 SHL ADD DUP2 SSTORE PUSH2 0x70D JUMP JUMPDEST ADD MLOAD PUSH0 NOT PUSH1 0xF8 DUP5 PUSH1 0x3 SHL AND SHR NOT AND SWAP1 SSTORE DUP10 DUP1 DUP1 PUSH2 0xEDE JUMP JUMPDEST SWAP3 SWAP4 PUSH1 0x20 PUSH1 0x1 DUP2 SWAP3 DUP8 DUP7 ADD MLOAD DUP2 SSTORE ADD SWAP6 ADD SWAP4 ADD PUSH2 0xEC8 JUMP JUMPDEST SWAP1 SWAP2 POP DUP4 PUSH0 MSTORE PUSH1 0x20 PUSH0 KECCAK256 PUSH1 0x1F DUP5 ADD PUSH1 0x5 SHR DUP2 ADD SWAP2 PUSH1 0x20 DUP6 LT PUSH2 0xF61 JUMPI JUMPDEST SWAP1 PUSH1 0x1F DUP6 SWAP5 SWAP4 SWAP3 ADD PUSH1 0x5 SHR ADD SWAP1 JUMPDEST DUP2 DUP2 LT PUSH2 0xF53 JUMPI POP PUSH2 0x6E3 JUMP JUMPDEST PUSH0 DUP2 SSTORE DUP5 SWAP4 POP PUSH1 0x1 ADD PUSH2 0xF46 JUMP JUMPDEST SWAP1 SWAP2 POP DUP2 SWAP1 PUSH2 0xF38 JUMP JUMPDEST ADD MLOAD SWAP1 POP DUP10 DUP1 PUSH2 0x691 JUMP JUMPDEST PUSH0 DUP6 DUP2 MSTORE DUP3 DUP2 KECCAK256 SWAP4 POP PUSH1 0x1F NOT DUP6 AND SWAP1 JUMPDEST DUP2 DUP2 LT PUSH2 0xFC1 JUMPI POP SWAP1 DUP5 PUSH1 0x1 SWAP6 SWAP5 SWAP4 SWAP3 LT PUSH2 0xFA9 JUMPI JUMPDEST POP POP POP DUP2 SHL ADD SWAP1 SSTORE PUSH2 0x6A5 JUMP JUMPDEST ADD MLOAD PUSH0 NOT PUSH1 0xF8 DUP5 PUSH1 0x3 SHL AND SHR NOT AND SWAP1 SSTORE DUP10 DUP1 DUP1 PUSH2 0xF9C JUMP JUMPDEST SWAP3 SWAP4 PUSH1 0x20 PUSH1 0x1 DUP2 SWAP3 DUP8 DUP7 ADD MLOAD DUP2 SSTORE ADD SWAP6 ADD SWAP4 ADD PUSH2 0xF86 JUMP JUMPDEST SWAP1 SWAP2 POP DUP4 PUSH0 MSTORE PUSH1 0x20 PUSH0 KECCAK256 PUSH1 0x1F DUP5 ADD PUSH1 0x5 SHR DUP2 ADD SWAP2 PUSH1 0x20 DUP6 LT PUSH2 0x101F JUMPI JUMPDEST SWAP1 PUSH1 0x1F DUP6 SWAP5 SWAP4 SWAP3 ADD PUSH1 0x5 SHR ADD SWAP1 JUMPDEST DUP2 DUP2 LT PUSH2 0x1011 JUMPI POP PUSH2 0x67B JUMP JUMPDEST PUSH0 DUP2 SSTORE DUP5 SWAP4 POP PUSH1 0x1 ADD PUSH2 0x1004 JUMP JUMPDEST SWAP1 SWAP2 POP DUP2 SWAP1 PUSH2 0xFF6 JUMP JUMPDEST ADD MLOAD SWAP1 POP DUP11 DUP1 PUSH2 0x63C JUMP JUMPDEST SWAP1 PUSH1 0x1F NOT DUP4 AND SWAP2 DUP5 PUSH0 MSTORE DUP2 PUSH0 KECCAK256 SWAP3 PUSH0 JUMPDEST DUP2 DUP2 LT PUSH2 0x1082 JUMPI POP SWAP2 PUSH1 0x1 SWAP6 SWAP5 SWAP3 SWAP2 DUP4 DUP8 SWAP6 SWAP4 LT PUSH2 0x106A JUMPI JUMPDEST POP POP POP DUP2 SHL ADD DUP2 SSTORE PUSH2 0x64F JUMP JUMPDEST ADD MLOAD PUSH0 NOT PUSH1 0xF8 DUP5 PUSH1 0x3 SHL AND SHR NOT AND SWAP1 SSTORE DUP11 DUP1 DUP1 PUSH2 0x105D JUMP JUMPDEST SWAP3 SWAP4 PUSH1 0x20 PUSH1 0x1 DUP2 SWAP3 DUP8 DUP7 ADD MLOAD DUP2 SSTORE ADD SWAP6 ADD SWAP4 ADD PUSH2 0x1044 JUMP JUMPDEST DUP4 PUSH0 MSTORE PUSH1 0x20 PUSH0 KECCAK256 PUSH1 0x1F DUP5 ADD PUSH1 0x5 SHR DUP2 ADD SWAP2 PUSH1 0x20 DUP6 LT PUSH2 0x10D5 JUMPI JUMPDEST PUSH1 0x1F ADD PUSH1 0x5 SHR ADD SWAP1 JUMPDEST DUP2 DUP2 LT PUSH2 0x10CA JUMPI POP PUSH2 0x620 JUMP JUMPDEST PUSH0 DUP2 SSTORE PUSH1 0x1 ADD PUSH2 0x10BD JUMP JUMPDEST SWAP1 SWAP2 POP DUP2 SWAP1 PUSH2 0x10B4 JUMP JUMPDEST CALLVALUE PUSH2 0x1D3 JUMPI PUSH2 0x10F8 PUSH2 0x10F0 CALLDATASIZE PUSH2 0x4196 JUMP JUMPDEST DUP2 SWAP3 SWAP2 PUSH2 0x469E JUMP JUMPDEST PUSH1 0x2 SLOAD SWAP1 PUSH1 0x20 DUP2 ADD SWAP1 PUSH0 JUMPDEST DUP4 DUP2 LT PUSH2 0x110C JUMPI STOP JUMPDEST PUSH2 0x1115 DUP2 PUSH2 0x3E54 JUMP JUMPDEST POP PUSH1 0x40 MLOAD PUSH2 0x112B DUP2 PUSH2 0x571 PUSH1 0x20 DUP3 ADD DUP1 SWAP6 PUSH2 0x42C0 JUMP JUMPDEST MLOAD SWAP1 KECCAK256 PUSH1 0x40 MLOAD PUSH1 0x20 DUP2 ADD SWAP1 PUSH2 0x1158 PUSH1 0x20 DUP3 DUP8 MLOAD DUP1 DUP11 DUP8 MCOPY DUP2 ADD PUSH0 DUP4 DUP3 ADD MSTORE SUB ADD PUSH1 0x1F NOT DUP2 ADD DUP4 MSTORE DUP3 PUSH2 0x3C42 JUMP JUMPDEST MLOAD SWAP1 KECCAK256 EQ PUSH2 0x1169 JUMPI JUMPDEST PUSH1 0x1 ADD PUSH2 0x1103 JUMP JUMPDEST PUSH1 0x3 PUSH2 0x1174 DUP3 PUSH2 0x3E54 JUMP JUMPDEST POP ADD PUSH2 0x600 PUSH2 0xFF00 NOT DUP3 SLOAD AND OR SWAP1 SSTORE PUSH1 0x82 TIMESTAMP ADD SWAP1 DUP2 TIMESTAMP GT PUSH2 0x33B JUMPI PUSH1 0x1 SWAP2 PUSH1 0x5 PUSH2 0x119D DUP4 PUSH2 0x3E54 JUMP JUMPDEST POP ADD SSTORE SWAP1 POP PUSH2 0x1161 JUMP JUMPDEST CALLVALUE PUSH2 0x1D3 JUMPI PUSH1 0x20 CALLDATASIZE PUSH1 0x3 NOT ADD SLT PUSH2 0x1D3 JUMPI PUSH1 0x4 CALLDATALOAD PUSH1 0x1 PUSH1 0x1 PUSH1 0x40 SHL SUB DUP2 GT PUSH2 0x1D3 JUMPI PUSH2 0x4BA PUSH2 0x11DD PUSH2 0x39B SWAP3 CALLDATASIZE SWAP1 PUSH1 0x4 ADD PUSH2 0x3C63 JUMP JUMPDEST PUSH2 0x45E1 JUMP JUMPDEST CALLVALUE PUSH2 0x1D3 JUMPI PUSH1 0x40 CALLDATASIZE PUSH1 0x3 NOT ADD SLT PUSH2 0x1D3 JUMPI PUSH1 0x4 CALLDATALOAD PUSH1 0x1 PUSH1 0x1 PUSH1 0x40 SHL SUB DUP2 GT PUSH2 0x1D3 JUMPI PUSH2 0x1215 PUSH2 0x1D1 SWAP2 CALLDATASIZE SWAP1 PUSH1 0x4 ADD PUSH2 0x3C63 JUMP JUMPDEST PUSH1 0x24 CALLDATALOAD SWAP1 PUSH2 0x4507 JUMP JUMPDEST CALLVALUE PUSH2 0x1D3 JUMPI PUSH1 0x20 CALLDATASIZE PUSH1 0x3 NOT ADD SLT PUSH2 0x1D3 JUMPI PUSH1 0x4 CALLDATALOAD PUSH1 0x1 PUSH1 0x1 PUSH1 0x40 SHL SUB DUP2 GT PUSH2 0x1D3 JUMPI PUSH2 0x124E SWAP1 CALLDATASIZE SWAP1 PUSH1 0x4 ADD PUSH2 0x3C63 JUMP JUMPDEST PUSH2 0x1256 PUSH2 0x432A JUMP JUMPDEST POP PUSH1 0x40 MLOAD PUSH2 0x1263 DUP2 PUSH2 0x3BEF JUMP JUMPDEST PUSH1 0x60 DUP2 MSTORE PUSH1 0x20 ADD PUSH1 0x60 SWAP1 MSTORE PUSH1 0x40 MLOAD PUSH2 0x127A DUP2 PUSH2 0x3C0A JUMP JUMPDEST PUSH1 0x60 DUP2 MSTORE PUSH1 0x20 DUP2 ADD PUSH1 0x60 SWAP1 MSTORE PUSH1 0x40 DUP2 ADD PUSH1 0x60 SWAP1 MSTORE PUSH1 0x60 DUP2 ADD PUSH1 0x60 SWAP1 MSTORE PUSH1 0x80 DUP2 ADD PUSH1 0x60 SWAP1 MSTORE PUSH1 0xA0 DUP2 ADD PUSH1 0x60 SWAP1 MSTORE PUSH1 0xC0 DUP2 ADD PUSH1 0x60 SWAP1 MSTORE PUSH1 0xE0 ADD PUSH1 0x60 SWAP1 MSTORE PUSH1 0x40 MLOAD PUSH2 0x12C1 DUP2 PUSH2 0x3BB9 JUMP JUMPDEST PUSH1 0x60 DUP2 MSTORE PUSH1 0x20 DUP2 ADD PUSH1 0x60 SWAP1 MSTORE PUSH1 0x40 ADD PUSH1 0x60 SWAP1 MSTORE PUSH1 0x40 MLOAD SWAP1 DUP1 MLOAD SWAP2 DUP1 PUSH1 0x20 DUP4 ADD SWAP4 DUP1 DUP6 DUP4 MCOPY DUP2 ADD PUSH1 0x3 DUP2 MSTORE SUB PUSH1 0x20 ADD SWAP1 KECCAK256 SWAP1 PUSH1 0x40 MLOAD DUP1 DUP3 MLOAD DUP1 DUP7 DUP4 MCOPY DUP2 ADD PUSH1 0x4 DUP2 MSTORE SUB PUSH1 0x20 ADD SWAP1 KECCAK256 SWAP3 PUSH1 0x40 MLOAD DUP1 DUP4 MLOAD DUP1 DUP5 DUP4 MCOPY DUP2 ADD PUSH1 0x5 DUP2 MSTORE SUB PUSH1 0x20 ADD SWAP1 KECCAK256 SWAP2 PUSH1 0x40 MLOAD SWAP2 DUP3 SWAP2 MLOAD DUP1 SWAP2 DUP4 MCOPY DUP2 ADD PUSH1 0x6 DUP2 MSTORE SUB PUSH1 0x20 ADD SWAP1 KECCAK256 SWAP1 PUSH1 0x40 MLOAD SWAP3 PUSH2 0x1345 DUP5 PUSH2 0x3BB9 JUMP JUMPDEST PUSH2 0x134E DUP2 PUSH2 0x3D68 JUMP JUMPDEST DUP5 MSTORE PUSH2 0x135C PUSH1 0x1 DUP3 ADD PUSH2 0x3D68 JUMP JUMPDEST PUSH1 0x20 DUP6 ADD MSTORE PUSH1 0x2 ADD SLOAD PUSH1 0xFF AND SWAP2 PUSH1 0x40 DUP5 ADD SWAP3 DUP4 MSTORE PUSH1 0x40 MLOAD SWAP5 PUSH2 0x137D DUP7 PUSH2 0x3BEF JUMP JUMPDEST PUSH2 0x1386 DUP2 PUSH2 0x3D68 JUMP JUMPDEST DUP7 MSTORE PUSH1 0x1 ADD PUSH2 0x1394 SWAP1 PUSH2 0x3D68 JUMP JUMPDEST SWAP2 PUSH1 0x20 DUP7 ADD SWAP3 DUP4 MSTORE PUSH1 0x40 MLOAD SWAP1 PUSH2 0x13A9 DUP3 PUSH2 0x3C0A JUMP JUMPDEST PUSH2 0x13B2 DUP2 PUSH2 0x3D68 JUMP JUMPDEST DUP3 MSTORE PUSH2 0x13C0 PUSH1 0x1 DUP3 ADD PUSH2 0x3D68 JUMP JUMPDEST PUSH1 0x20 DUP4 ADD SWAP1 DUP2 MSTORE SWAP1 PUSH2 0x13D4 PUSH1 0x2 DUP3 ADD PUSH2 0x3D68 JUMP JUMPDEST PUSH1 0x40 DUP5 ADD SWAP1 DUP2 MSTORE PUSH2 0x13E7 PUSH1 0x3 DUP4 ADD PUSH2 0x3D68 JUMP JUMPDEST PUSH1 0x60 DUP6 ADD SWAP1 DUP2 MSTORE PUSH2 0x13FA PUSH1 0x4 DUP5 ADD PUSH2 0x3D68 JUMP JUMPDEST PUSH1 0x80 DUP7 ADD SWAP1 DUP2 MSTORE SWAP1 PUSH2 0x140E PUSH1 0x5 DUP6 ADD PUSH2 0x3D68 JUMP JUMPDEST PUSH1 0xA0 DUP8 ADD SWAP1 DUP2 MSTORE SWAP3 PUSH2 0x1422 PUSH1 0x6 DUP7 ADD PUSH2 0x3D68 JUMP JUMPDEST SWAP5 PUSH1 0xC0 DUP9 ADD SWAP6 DUP7 MSTORE PUSH1 0x7 ADD PUSH2 0x1436 SWAP1 PUSH2 0x3D68 JUMP JUMPDEST SWAP6 PUSH1 0xE0 DUP9 ADD SWAP7 DUP8 MSTORE PUSH1 0x40 MLOAD SWAP11 PUSH2 0x144B DUP13 PUSH2 0x3BB9 JUMP JUMPDEST PUSH2 0x1454 DUP11 PUSH2 0x3D68 JUMP JUMPDEST DUP13 MSTORE PUSH2 0x1462 PUSH1 0x1 DUP12 ADD PUSH2 0x3D68 JUMP JUMPDEST SWAP10 PUSH1 0x20 DUP14 ADD SWAP11 DUP12 MSTORE PUSH1 0x2 ADD PUSH2 0x1476 SWAP1 PUSH2 0x3D68 JUMP JUMPDEST SWAP11 PUSH1 0x40 DUP14 ADD SWAP12 DUP13 MSTORE PUSH1 0x40 MLOAD SWAP15 DUP16 SWAP15 DUP16 SWAP1 PUSH1 0x80 DUP3 MSTORE DUP1 MLOAD PUSH1 0x80 DUP4 ADD PUSH1 0x60 SWAP1 MSTORE PUSH1 0xE0 DUP4 ADD PUSH2 0x14A1 SWAP2 PUSH2 0x3CB8 JUMP JUMPDEST SWAP1 PUSH1 0x20 ADD MLOAD SWAP1 PUSH1 0x7F NOT DUP4 DUP3 SUB ADD PUSH1 0xA0 DUP5 ADD MSTORE PUSH2 0x14BC SWAP2 PUSH2 0x3CB8 JUMP JUMPDEST SWAP4 MLOAD PUSH1 0xFF AND PUSH1 0xC0 DUP3 ADD MSTORE DUP1 DUP5 SUB SWAP1 PUSH1 0x20 ADD MSTORE MLOAD PUSH1 0x40 DUP4 MSTORE PUSH1 0x40 DUP4 ADD PUSH2 0x14E0 SWAP2 PUSH2 0x3CB8 JUMP JUMPDEST SWAP1 MLOAD SWAP2 DUP1 DUP3 SUB SWAP1 PUSH1 0x20 ADD MSTORE PUSH2 0x14F4 SWAP2 PUSH2 0x3CB8 JUMP JUMPDEST SWAP8 DUP13 DUP1 DUP11 SUB SWAP1 PUSH1 0x40 ADD MSTORE MLOAD PUSH2 0x100 DUP10 MSTORE PUSH2 0x100 DUP10 ADD PUSH2 0x1512 SWAP2 PUSH2 0x3CB8 JUMP JUMPDEST SWAP1 MLOAD SWAP1 DUP9 DUP2 SUB PUSH1 0x20 DUP11 ADD MSTORE PUSH2 0x1526 SWAP2 PUSH2 0x3CB8 JUMP JUMPDEST SWAP1 MLOAD SWAP1 DUP8 DUP2 SUB PUSH1 0x40 DUP10 ADD MSTORE PUSH2 0x153A SWAP2 PUSH2 0x3CB8 JUMP JUMPDEST SWAP1 MLOAD SWAP1 DUP7 DUP2 SUB PUSH1 0x60 DUP9 ADD MSTORE PUSH2 0x154E SWAP2 PUSH2 0x3CB8 JUMP JUMPDEST SWAP1 MLOAD SWAP1 DUP6 DUP2 SUB PUSH1 0x80 DUP8 ADD MSTORE PUSH2 0x1562 SWAP2 PUSH2 0x3CB8 JUMP JUMPDEST SWAP1 MLOAD SWAP1 DUP5 DUP2 SUB PUSH1 0xA0 DUP7 ADD MSTORE PUSH2 0x1576 SWAP2 PUSH2 0x3CB8 JUMP JUMPDEST SWAP1 MLOAD SWAP1 DUP4 DUP2 SUB PUSH1 0xC0 DUP6 ADD MSTORE PUSH2 0x158A SWAP2 PUSH2 0x3CB8 JUMP JUMPDEST SWAP1 MLOAD SWAP2 DUP1 DUP3 SUB SWAP1 PUSH1 0xE0 ADD MSTORE PUSH2 0x159E SWAP2 PUSH2 0x3CB8 JUMP JUMPDEST SWAP3 DUP5 DUP5 SUB PUSH1 0x60 DUP7 ADD MSTORE MLOAD PUSH1 0x60 DUP5 MSTORE PUSH1 0x60 DUP5 ADD PUSH2 0x15B9 SWAP2 PUSH2 0x3CB8 JUMP JUMPDEST SWAP1 MLOAD SWAP1 DUP4 DUP2 SUB PUSH1 0x20 DUP6 ADD MSTORE PUSH2 0x15CD SWAP2 PUSH2 0x3CB8 JUMP JUMPDEST SWAP1 MLOAD SWAP2 DUP1 DUP3 SUB SWAP1 PUSH1 0x40 ADD MSTORE PUSH2 0x39B SWAP2 PUSH2 0x3CB8 JUMP JUMPDEST CALLVALUE PUSH2 0x1D3 JUMPI PUSH1 0x20 CALLDATASIZE PUSH1 0x3 NOT ADD SLT PUSH2 0x1D3 JUMPI PUSH1 0x4 CALLDATALOAD PUSH1 0x1 PUSH1 0x1 PUSH1 0x40 SHL SUB DUP2 GT PUSH2 0x1D3 JUMPI PUSH1 0x20 DUP1 PUSH2 0x1617 PUSH2 0x165B SWAP4 CALLDATASIZE SWAP1 PUSH1 0x4 ADD PUSH2 0x3C63 JUMP JUMPDEST PUSH1 0x40 MLOAD SWAP3 DUP2 DUP5 SWAP3 MLOAD SWAP2 DUP3 SWAP2 ADD DUP4 MCOPY DUP2 ADD PUSH1 0x4 DUP2 MSTORE SUB ADD SWAP1 KECCAK256 PUSH2 0x39B PUSH2 0x1647 PUSH1 0x1 PUSH2 0x1640 DUP5 PUSH2 0x3D68 JUMP JUMPDEST SWAP4 ADD PUSH2 0x3D68 JUMP JUMPDEST PUSH1 0x40 MLOAD SWAP4 DUP5 SWAP4 PUSH1 0x40 DUP6 MSTORE PUSH1 0x40 DUP6 ADD SWAP1 PUSH2 0x3CB8 JUMP JUMPDEST SWAP1 DUP4 DUP3 SUB PUSH1 0x20 DUP6 ADD MSTORE PUSH2 0x3CB8 JUMP JUMPDEST CALLVALUE PUSH2 0x1D3 JUMPI PUSH1 0x20 CALLDATASIZE PUSH1 0x3 NOT ADD SLT PUSH2 0x1D3 JUMPI PUSH1 0x4 CALLDATALOAD PUSH1 0x1 PUSH1 0x1 PUSH1 0x40 SHL SUB DUP2 GT PUSH2 0x1D3 JUMPI PUSH2 0x462 PUSH2 0x169F PUSH2 0x39B SWAP3 CALLDATASIZE SWAP1 PUSH1 0x4 ADD PUSH2 0x3C63 JUMP JUMPDEST PUSH2 0x43B4 JUMP JUMPDEST CALLVALUE PUSH2 0x1D3 JUMPI PUSH1 0x20 CALLDATASIZE PUSH1 0x3 NOT ADD SLT PUSH2 0x1D3 JUMPI PUSH1 0x4 CALLDATALOAD PUSH1 0x1 PUSH1 0x1 PUSH1 0x40 SHL SUB DUP2 GT PUSH2 0x1D3 JUMPI PUSH1 0x20 DUP1 PUSH2 0x16DA PUSH2 0x1728 SWAP4 CALLDATASIZE SWAP1 PUSH1 0x4 ADD PUSH2 0x3C63 JUMP JUMPDEST PUSH1 0x40 MLOAD SWAP3 DUP2 DUP5 SWAP3 MLOAD SWAP2 DUP3 SWAP2 ADD DUP4 MCOPY DUP2 ADD PUSH1 0x3 DUP2 MSTORE SUB ADD SWAP1 KECCAK256 PUSH2 0x16FB DUP2 PUSH2 0x3D68 JUMP JUMPDEST SWAP1 PUSH2 0x1736 PUSH1 0xFF PUSH1 0x2 PUSH2 0x170F PUSH1 0x1 DUP6 ADD PUSH2 0x3D68 JUMP JUMPDEST SWAP4 ADD SLOAD AND SWAP2 PUSH1 0x40 MLOAD SWAP5 DUP6 SWAP5 PUSH1 0x60 DUP7 MSTORE PUSH1 0x60 DUP7 ADD SWAP1 PUSH2 0x3CB8 JUMP JUMPDEST SWAP1 DUP5 DUP3 SUB PUSH1 0x20 DUP7 ADD MSTORE PUSH2 0x3CB8 JUMP JUMPDEST SWAP1 PUSH1 0x40 DUP4 ADD MSTORE SUB SWAP1 RETURN JUMPDEST CALLVALUE PUSH2 0x1D3 JUMPI PUSH1 0x20 CALLDATASIZE PUSH1 0x3 NOT ADD SLT PUSH2 0x1D3 JUMPI PUSH1 0x4 CALLDATALOAD PUSH1 0x1 PUSH1 0x1 PUSH1 0x40 SHL SUB DUP2 GT PUSH2 0x1D3 JUMPI PUSH2 0x1770 SWAP1 CALLDATASIZE SWAP1 PUSH1 0x4 ADD PUSH2 0x3C63 JUMP JUMPDEST PUSH1 0x2 SLOAD PUSH1 0x20 DUP3 ADD SWAP2 PUSH0 DUP1 JUMPDEST DUP4 DUP2 LT PUSH2 0x1840 JUMPI POP PUSH1 0xFF PUSH2 0x178F SWAP2 AND PUSH2 0x43FF JUMP JUMPDEST SWAP3 PUSH0 SWAP2 PUSH0 JUMPDEST DUP5 DUP2 LT PUSH2 0x17A9 JUMPI PUSH1 0x40 MLOAD DUP1 PUSH2 0x39B DUP9 DUP3 PUSH2 0x4016 JUMP JUMPDEST PUSH1 0x2 PUSH2 0x571 PUSH2 0x17CE PUSH2 0x17BA DUP5 PUSH2 0x3E54 JUMP JUMPDEST POP PUSH1 0x40 MLOAD SWAP3 DUP4 SWAP2 PUSH1 0x20 DUP4 ADD SWAP6 DUP7 SWAP2 ADD PUSH2 0x42C0 JUMP JUMPDEST MLOAD SWAP1 KECCAK256 PUSH1 0x40 MLOAD PUSH1 0x20 DUP2 ADD SWAP1 PUSH2 0x17FB PUSH1 0x20 DUP3 DUP8 MLOAD DUP1 DUP11 DUP8 MCOPY DUP2 ADD PUSH0 DUP4 DUP3 ADD MSTORE SUB ADD PUSH1 0x1F NOT DUP2 ADD DUP4 MSTORE DUP3 PUSH2 0x3C42 JUMP JUMPDEST MLOAD SWAP1 KECCAK256 EQ PUSH2 0x180C JUMPI JUMPDEST PUSH1 0x1 ADD PUSH2 0x1794 JUMP JUMPDEST SWAP3 PUSH2 0x1838 PUSH1 0x1 SWAP2 PUSH2 0x3D0 PUSH2 0x1822 PUSH2 0x3B4 DUP9 PUSH2 0x3E54 JUMP JUMPDEST PUSH1 0xFF DUP4 AND SWAP1 PUSH2 0x1831 DUP3 DUP13 PUSH2 0x447C JUMP JUMPDEST MSTORE DUP10 PUSH2 0x447C JUMP JUMPDEST SWAP4 SWAP1 POP PUSH2 0x1804 JUMP JUMPDEST PUSH1 0x2 PUSH2 0x571 PUSH2 0x1851 PUSH2 0x17BA DUP5 PUSH2 0x3E54 JUMP JUMPDEST MLOAD SWAP1 KECCAK256 PUSH1 0x40 MLOAD PUSH1 0x20 DUP2 ADD SWAP1 PUSH2 0x187E PUSH1 0x20 DUP3 DUP9 MLOAD DUP1 DUP13 DUP8 MCOPY DUP2 ADD PUSH0 DUP4 DUP3 ADD MSTORE SUB ADD PUSH1 0x1F NOT DUP2 ADD DUP4 MSTORE DUP3 PUSH2 0x3C42 JUMP JUMPDEST MLOAD SWAP1 KECCAK256 EQ PUSH2 0x188F JUMPI JUMPDEST PUSH1 0x1 ADD PUSH2 0x177B JUMP JUMPDEST SWAP1 PUSH2 0x189B PUSH1 0x1 SWAP2 PUSH2 0x43D7 JUMP JUMPDEST SWAP2 SWAP1 POP PUSH2 0x1887 JUMP JUMPDEST CALLVALUE PUSH2 0x1D3 JUMPI PUSH1 0xE0 CALLDATASIZE PUSH1 0x3 NOT ADD SLT PUSH2 0x1D3 JUMPI PUSH1 0x4 CALLDATALOAD PUSH1 0x1 PUSH1 0x1 PUSH1 0x40 SHL SUB DUP2 GT PUSH2 0x1D3 JUMPI PUSH2 0x18D3 SWAP1 CALLDATASIZE SWAP1 PUSH1 0x4 ADD PUSH2 0x3C63 JUMP JUMPDEST PUSH1 0x24 CALLDATALOAD PUSH1 0x1 PUSH1 0x1 PUSH1 0x40 SHL SUB DUP2 GT PUSH2 0x1D3 JUMPI PUSH2 0x18F2 SWAP1 CALLDATASIZE SWAP1 PUSH1 0x4 ADD PUSH2 0x3C63 JUMP JUMPDEST PUSH1 0x44 CALLDATALOAD PUSH1 0x1 PUSH1 0x1 PUSH1 0x40 SHL SUB DUP2 GT PUSH2 0x1D3 JUMPI PUSH2 0x1911 SWAP1 CALLDATASIZE SWAP1 PUSH1 0x4 ADD PUSH2 0x3C63 JUMP JUMPDEST SWAP2 PUSH1 0x64 CALLDATALOAD PUSH1 0x1 PUSH1 0x1 PUSH1 0xA0 SHL SUB DUP2 AND DUP2 SUB PUSH2 0x1D3 JUMPI PUSH1 0x84 CALLDATALOAD SWAP4 PUSH1 0xFF DUP6 AND DUP1 SWAP6 SUB PUSH2 0x1D3 JUMPI PUSH1 0xA4 CALLDATALOAD PUSH1 0x1 PUSH1 0x1 PUSH1 0x40 SHL SUB DUP2 GT PUSH2 0x1D3 JUMPI PUSH2 0x1953 SWAP1 CALLDATASIZE SWAP1 PUSH1 0x4 ADD PUSH2 0x3E84 JUMP JUMPDEST SWAP2 PUSH1 0xC4 CALLDATALOAD SWAP1 PUSH1 0x1 PUSH1 0x1 PUSH1 0x40 SHL SUB DUP3 GT PUSH2 0x1D3 JUMPI DUP3 PUSH2 0x1978 PUSH2 0x197E SWAP4 CALLDATASIZE SWAP1 PUSH1 0x4 ADD PUSH2 0x3EE3 JUMP JUMPDEST SWAP7 PUSH2 0x4378 JUMP JUMPDEST SWAP5 PUSH2 0x19CE DUP5 PUSH1 0x20 SWAP8 PUSH1 0x40 MLOAD SWAP1 PUSH2 0x1994 DUP11 DUP4 PUSH2 0x3C42 JUMP JUMPDEST PUSH0 DUP3 MSTORE PUSH1 0x40 MLOAD PUSH2 0x19A4 DUP12 DUP3 PUSH2 0x3C42 JUMP JUMPDEST PUSH0 DUP2 MSTORE PUSH2 0x19AF PUSH2 0x432A JUMP JUMPDEST POP PUSH1 0x40 MLOAD SWAP3 PUSH2 0x19BD DUP5 PUSH2 0x3BB9 JUMP JUMPDEST DUP4 MSTORE DUP11 DUP4 ADD MSTORE PUSH0 PUSH1 0x40 DUP4 ADD MSTORE PUSH2 0x4EEC JUMP JUMPDEST PUSH1 0x40 MLOAD PUSH2 0x19DA DUP2 PUSH2 0x3BB9 JUMP JUMPDEST DUP5 DUP2 MSTORE PUSH1 0x40 MLOAD PUSH2 0x19EA DUP9 DUP3 PUSH2 0x3C42 JUMP JUMPDEST PUSH0 DUP2 MSTORE DUP8 DUP3 ADD SWAP1 DUP2 MSTORE PUSH1 0x40 DUP3 ADD SWAP1 DUP4 DUP3 MSTORE PUSH1 0x40 MLOAD DUP10 DUP2 DUP10 MLOAD DUP1 DUP4 DUP13 ADD DUP4 MCOPY DUP2 ADD PUSH1 0x3 DUP2 MSTORE SUB ADD SWAP1 KECCAK256 SWAP3 MLOAD DUP1 MLOAD SWAP1 PUSH1 0x1 PUSH1 0x1 PUSH1 0x40 SHL SUB DUP3 GT PUSH2 0x327 JUMPI DUP2 SWAP1 PUSH2 0x1A31 DUP7 SLOAD PUSH2 0x3D30 JUMP JUMPDEST PUSH1 0x1F DUP2 GT PUSH2 0x2BF7 JUMPI JUMPDEST POP DUP12 SWAP1 PUSH1 0x1F DUP4 GT PUSH1 0x1 EQ PUSH2 0x2B92 JUMPI PUSH0 SWAP3 PUSH2 0x2B87 JUMPI JUMPDEST POP POP DUP2 PUSH1 0x1 SHL SWAP2 PUSH0 NOT SWAP1 PUSH1 0x3 SHL SHR NOT AND OR DUP4 SSTORE JUMPDEST MLOAD DUP1 MLOAD PUSH1 0x1 DUP5 ADD SWAP2 PUSH1 0x1 PUSH1 0x1 PUSH1 0x40 SHL SUB DUP3 GT PUSH2 0x327 JUMPI PUSH2 0x1A83 DUP4 SLOAD PUSH2 0x3D30 JUMP JUMPDEST PUSH1 0x1F DUP2 GT PUSH2 0x2B44 JUMPI JUMPDEST POP DUP11 SWAP1 PUSH1 0x1F DUP4 GT PUSH1 0x1 EQ PUSH2 0x2AD7 JUMPI SWAP3 DUP3 PUSH1 0xFF SWAP6 SWAP3 SWAP4 DUP7 SWAP5 PUSH1 0x2 SWAP7 PUSH0 SWAP3 PUSH2 0x2ACC JUMPI JUMPDEST POP POP DUP2 PUSH1 0x1 SHL SWAP2 PUSH0 NOT SWAP1 PUSH1 0x3 SHL SHR NOT AND OR SWAP1 SSTORE JUMPDEST MLOAD AND SWAP3 ADD SWAP2 AND PUSH1 0xFF NOT DUP3 SLOAD AND OR SWAP1 SSTORE PUSH1 0x40 MLOAD SWAP1 PUSH2 0x1ADD DUP3 PUSH2 0x3BD4 JUMP JUMPDEST DUP5 DUP3 MSTORE PUSH1 0x40 MLOAD SWAP3 PUSH2 0x1AEE DUP9 DUP6 PUSH2 0x3C42 JUMP JUMPDEST PUSH0 DUP5 MSTORE DUP8 DUP4 ADD SWAP4 DUP5 MSTORE PUSH1 0x40 DUP4 ADD MSTORE PUSH1 0x60 DUP3 ADD MSTORE PUSH0 PUSH1 0x80 DUP3 ADD MSTORE PUSH1 0x40 MLOAD PUSH2 0x1B14 DUP8 DUP3 PUSH2 0x3C42 JUMP JUMPDEST PUSH0 DUP2 MSTORE PUSH1 0xA0 DUP3 ADD MSTORE PUSH0 PUSH1 0xC0 DUP3 ADD MSTORE PUSH1 0x2 SLOAD PUSH9 0x10000000000000000 DUP2 LT ISZERO PUSH2 0x327 JUMPI DUP1 PUSH1 0x1 PUSH2 0x1B46 SWAP3 ADD PUSH1 0x2 SSTORE PUSH2 0x3E54 JUMP JUMPDEST SWAP3 SWAP1 SWAP3 PUSH2 0x2AB9 JUMPI DUP2 MLOAD DUP1 MLOAD SWAP1 PUSH1 0x1 PUSH1 0x1 PUSH1 0x40 SHL SUB DUP3 GT PUSH2 0x327 JUMPI DUP2 SWAP1 PUSH2 0x1B6C DUP7 SLOAD PUSH2 0x3D30 JUMP JUMPDEST PUSH1 0x1F DUP2 GT PUSH2 0x2A6B JUMPI JUMPDEST POP DUP10 SWAP1 PUSH1 0x1F DUP4 GT PUSH1 0x1 EQ PUSH2 0x2A08 JUMPI PUSH0 SWAP3 PUSH2 0x29FD JUMPI JUMPDEST POP POP DUP2 PUSH1 0x1 SHL SWAP2 PUSH0 NOT SWAP1 PUSH1 0x3 SHL SHR NOT AND OR DUP4 SSTORE JUMPDEST MLOAD DUP1 MLOAD SWAP1 PUSH1 0x1 PUSH1 0x1 PUSH1 0x40 SHL SUB DUP3 GT PUSH2 0x327 JUMPI DUP2 SWAP1 PUSH2 0x1BBF PUSH1 0x1 DUP7 ADD SLOAD PUSH2 0x3D30 JUMP JUMPDEST PUSH1 0x1F DUP2 GT PUSH2 0x29AC JUMPI JUMPDEST POP DUP9 SWAP1 PUSH1 0x1F DUP4 GT PUSH1 0x1 EQ PUSH2 0x2942 JUMPI PUSH0 SWAP3 PUSH2 0x2937 JUMPI JUMPDEST POP POP DUP2 PUSH1 0x1 SHL SWAP2 PUSH0 NOT SWAP1 PUSH1 0x3 SHL SHR NOT AND OR PUSH1 0x1 DUP4 ADD SSTORE JUMPDEST PUSH1 0x2 DUP3 ADD PUSH1 0x40 DUP3 ADD MLOAD DUP1 MLOAD SWAP1 PUSH1 0x1 PUSH1 0x1 PUSH1 0x40 SHL SUB DUP3 GT PUSH2 0x327 JUMPI DUP2 SWAP1 PUSH2 0x1C1A DUP5 SLOAD PUSH2 0x3D30 JUMP JUMPDEST PUSH1 0x1F DUP2 GT PUSH2 0x28E9 JUMPI JUMPDEST POP DUP10 SWAP1 PUSH1 0x1F DUP4 GT PUSH1 0x1 EQ PUSH2 0x2886 JUMPI PUSH0 SWAP3 PUSH2 0x287B JUMPI JUMPDEST POP POP DUP2 PUSH1 0x1 SHL SWAP2 PUSH0 NOT SWAP1 PUSH1 0x3 SHL SHR NOT AND OR SWAP1 SSTORE JUMPDEST PUSH1 0x3 DUP3 ADD PUSH1 0xFF DUP1 PUSH1 0x60 DUP5 ADD MLOAD AND AND PUSH1 0xFF NOT DUP3 SLOAD AND OR DUP2 SSTORE PUSH1 0x80 DUP3 ADD MLOAD PUSH1 0x7 DUP2 LT ISZERO PUSH2 0x2867 JUMPI PUSH2 0xFF00 DUP3 SLOAD SWAP2 PUSH1 0x8 SHL AND SWAP1 PUSH2 0xFF00 NOT AND OR SWAP1 SSTORE PUSH1 0x4 DUP3 ADD PUSH1 0xA0 DUP3 ADD MLOAD DUP1 MLOAD SWAP1 PUSH1 0x1 PUSH1 0x1 PUSH1 0x40 SHL SUB DUP3 GT PUSH2 0x327 JUMPI PUSH2 0x1CA8 DUP4 SLOAD PUSH2 0x3D30 JUMP JUMPDEST PUSH1 0x1F DUP2 GT PUSH2 0x2824 JUMPI JUMPDEST POP DUP9 SWAP1 PUSH1 0x1F DUP4 GT PUSH1 0x1 EQ PUSH2 0x27BB JUMPI SWAP2 DUP1 PUSH1 0xC0 SWAP5 SWAP3 PUSH1 0x5 SWAP7 SWAP5 PUSH0 SWAP3 PUSH2 0x27B0 JUMPI JUMPDEST POP POP DUP2 PUSH1 0x1 SHL SWAP2 PUSH0 NOT SWAP1 PUSH1 0x3 SHL SHR NOT AND OR SWAP1 SSTORE JUMPDEST ADD MLOAD SWAP2 ADD SSTORE PUSH1 0x40 MLOAD DUP5 DUP2 DUP5 MLOAD DUP1 DUP4 DUP8 ADD DUP4 MCOPY DUP2 ADD PUSH1 0x4 DUP2 MSTORE SUB ADD SWAP1 KECCAK256 DUP2 MLOAD SWAP1 DUP2 MLOAD PUSH1 0x1 PUSH1 0x1 PUSH1 0x40 SHL SUB DUP2 GT PUSH2 0x327 JUMPI DUP7 SWAP3 PUSH2 0x1D1F DUP4 SLOAD PUSH2 0x3D30 JUMP JUMPDEST PUSH1 0x1F DUP2 GT PUSH2 0x275E JUMPI JUMPDEST POP DUP4 SWAP1 PUSH1 0x1F DUP4 GT PUSH1 0x1 EQ PUSH2 0x26F8 JUMPI PUSH1 0x1 SWAP4 SWAP3 SWAP2 PUSH0 SWAP2 DUP4 PUSH2 0x26ED JUMPI JUMPDEST POP POP PUSH0 NOT PUSH1 0x3 DUP4 SWAP1 SHL SHR NOT AND SWAP1 DUP4 SHL OR DUP2 SSTORE JUMPDEST ADD SWAP2 ADD MLOAD SWAP2 DUP3 MLOAD SWAP2 PUSH1 0x1 PUSH1 0x1 PUSH1 0x40 SHL SUB DUP4 GT PUSH2 0x327 JUMPI DUP6 SWAP3 PUSH2 0x1D78 DUP3 SLOAD PUSH2 0x3D30 JUMP JUMPDEST SWAP5 PUSH1 0x1F DUP7 GT PUSH2 0x2696 JUMPI JUMPDEST DUP5 SWAP6 POP DUP5 SWAP1 PUSH1 0x1F DUP4 GT PUSH1 0x1 EQ PUSH2 0x262F JUMPI PUSH0 SWAP2 SWAP1 DUP4 PUSH2 0x2624 JUMPI JUMPDEST POP POP DUP2 PUSH1 0x1 SHL SWAP2 PUSH0 NOT SWAP1 PUSH1 0x3 SHL SHR NOT AND OR SWAP1 SSTORE JUMPDEST PUSH1 0x40 MLOAD SWAP3 DUP2 DUP5 SWAP3 MLOAD SWAP2 DUP3 SWAP2 ADD DUP4 MCOPY DUP2 ADD PUSH1 0x5 DUP2 MSTORE SUB ADD SWAP1 KECCAK256 SWAP1 DUP1 MLOAD SWAP2 DUP3 MLOAD PUSH1 0x1 PUSH1 0x1 PUSH1 0x40 SHL SUB DUP2 GT PUSH2 0x327 JUMPI PUSH2 0x1DE5 DUP3 SLOAD PUSH2 0x3D30 JUMP JUMPDEST PUSH1 0x1F DUP2 GT PUSH2 0x25E1 JUMPI JUMPDEST POP DUP5 SWAP4 PUSH1 0x1F DUP3 GT PUSH1 0x1 EQ PUSH2 0x2581 JUMPI SWAP4 DUP2 SWAP3 SWAP4 SWAP5 PUSH0 SWAP3 PUSH2 0x2576 JUMPI JUMPDEST POP POP DUP2 PUSH1 0x1 SHL SWAP2 PUSH0 NOT SWAP1 PUSH1 0x3 SHL SHR NOT AND OR DUP2 SSTORE JUMPDEST PUSH1 0x1 DUP2 ADD DUP4 DUP4 ADD MLOAD DUP1 MLOAD SWAP1 PUSH1 0x1 PUSH1 0x1 PUSH1 0x40 SHL SUB DUP3 GT PUSH2 0x327 JUMPI DUP2 SWAP1 PUSH2 0x1E41 DUP5 SLOAD PUSH2 0x3D30 JUMP JUMPDEST PUSH1 0x1F DUP2 GT PUSH2 0x2528 JUMPI JUMPDEST POP DUP7 SWAP1 PUSH1 0x1F DUP4 GT PUSH1 0x1 EQ PUSH2 0x24C5 JUMPI PUSH0 SWAP3 PUSH2 0x24BA JUMPI JUMPDEST POP POP DUP2 PUSH1 0x1 SHL SWAP2 PUSH0 NOT SWAP1 PUSH1 0x3 SHL SHR NOT AND OR SWAP1 SSTORE JUMPDEST PUSH1 0x2 DUP2 ADD PUSH1 0x40 DUP4 ADD MLOAD DUP1 MLOAD SWAP1 PUSH1 0x1 PUSH1 0x1 PUSH1 0x40 SHL SUB DUP3 GT PUSH2 0x327 JUMPI DUP2 SWAP1 PUSH2 0x1E99 DUP5 SLOAD PUSH2 0x3D30 JUMP JUMPDEST PUSH1 0x1F DUP2 GT PUSH2 0x246C JUMPI JUMPDEST POP DUP7 SWAP1 PUSH1 0x1F DUP4 GT PUSH1 0x1 EQ PUSH2 0x2409 JUMPI PUSH0 SWAP3 PUSH2 0x23FE JUMPI JUMPDEST POP POP DUP2 PUSH1 0x1 SHL SWAP2 PUSH0 NOT SWAP1 PUSH1 0x3 SHL SHR NOT AND OR SWAP1 SSTORE JUMPDEST PUSH1 0x3 DUP2 ADD PUSH1 0x60 DUP4 ADD MLOAD DUP1 MLOAD SWAP1 PUSH1 0x1 PUSH1 0x1 PUSH1 0x40 SHL SUB DUP3 GT PUSH2 0x327 JUMPI DUP2 SWAP1 PUSH2 0x1EF1 DUP5 SLOAD PUSH2 0x3D30 JUMP JUMPDEST PUSH1 0x1F DUP2 GT PUSH2 0x23B0 JUMPI JUMPDEST POP DUP7 SWAP1 PUSH1 0x1F DUP4 GT PUSH1 0x1 EQ PUSH2 0x234D JUMPI PUSH0 SWAP3 PUSH2 0x2342 JUMPI JUMPDEST POP POP DUP2 PUSH1 0x1 SHL SWAP2 PUSH0 NOT SWAP1 PUSH1 0x3 SHL SHR NOT AND OR SWAP1 SSTORE JUMPDEST PUSH1 0x4 DUP2 ADD PUSH1 0x80 DUP4 ADD MLOAD DUP1 MLOAD SWAP1 PUSH1 0x1 PUSH1 0x1 PUSH1 0x40 SHL SUB DUP3 GT PUSH2 0x327 JUMPI DUP2 SWAP1 PUSH2 0x1F49 DUP5 SLOAD PUSH2 0x3D30 JUMP JUMPDEST PUSH1 0x1F DUP2 GT PUSH2 0x22F4 JUMPI JUMPDEST POP DUP7 SWAP1 PUSH1 0x1F DUP4 GT PUSH1 0x1 EQ PUSH2 0x2291 JUMPI PUSH0 SWAP3 PUSH2 0x2286 JUMPI JUMPDEST POP POP DUP2 PUSH1 0x1 SHL SWAP2 PUSH0 NOT SWAP1 PUSH1 0x3 SHL SHR NOT AND OR SWAP1 SSTORE JUMPDEST PUSH1 0x5 DUP2 ADD PUSH1 0xA0 DUP4 ADD MLOAD DUP1 MLOAD SWAP1 PUSH1 0x1 PUSH1 0x1 PUSH1 0x40 SHL SUB DUP3 GT PUSH2 0x327 JUMPI DUP2 SWAP1 PUSH2 0x1FA1 DUP5 SLOAD PUSH2 0x3D30 JUMP JUMPDEST PUSH1 0x1F DUP2 GT PUSH2 0x2238 JUMPI JUMPDEST POP DUP7 SWAP1 PUSH1 0x1F DUP4 GT PUSH1 0x1 EQ PUSH2 0x21D5 JUMPI PUSH0 SWAP3 PUSH2 0x21CA JUMPI JUMPDEST POP POP DUP2 PUSH1 0x1 SHL SWAP2 PUSH0 NOT SWAP1 PUSH1 0x3 SHL SHR NOT AND OR SWAP1 SSTORE JUMPDEST PUSH1 0x6 DUP2 ADD PUSH1 0xC0 DUP4 ADD MLOAD DUP1 MLOAD SWAP1 PUSH1 0x1 PUSH1 0x1 PUSH1 0x40 SHL SUB DUP3 GT PUSH2 0x327 JUMPI PUSH2 0x1FF7 DUP4 SLOAD PUSH2 0x3D30 JUMP JUMPDEST PUSH1 0x1F DUP2 GT PUSH2 0x2187 JUMPI JUMPDEST POP DUP6 SWAP1 PUSH1 0x1F DUP4 GT PUSH1 0x1 EQ PUSH2 0x211E JUMPI SWAP2 DUP1 PUSH1 0x7 SWAP5 SWAP3 PUSH1 0xE0 SWAP7 SWAP5 PUSH0 SWAP3 PUSH2 0x2113 JUMPI JUMPDEST POP POP DUP2 PUSH1 0x1 SHL SWAP2 PUSH0 NOT SWAP1 PUSH1 0x3 SHL SHR NOT AND OR SWAP1 SSTORE JUMPDEST ADD SWAP2 ADD MLOAD SWAP2 DUP3 MLOAD SWAP1 PUSH1 0x1 PUSH1 0x1 PUSH1 0x40 SHL SUB DUP3 GT PUSH2 0x327 JUMPI PUSH2 0x2053 DUP4 SLOAD PUSH2 0x3D30 JUMP JUMPDEST PUSH1 0x1F DUP2 GT PUSH2 0x20D0 JUMPI JUMPDEST POP DUP1 PUSH1 0x1F DUP4 GT PUSH1 0x1 EQ PUSH2 0x208A JUMPI POP DUP2 SWAP3 SWAP4 PUSH0 SWAP3 PUSH2 0x27B JUMPI POP POP PUSH0 NOT PUSH1 0x3 DUP4 SWAP1 SHL SHR NOT AND PUSH1 0x1 SWAP2 SWAP1 SWAP2 SHL OR SWAP1 SSTORE STOP JUMPDEST SWAP1 PUSH1 0x1F NOT DUP4 AND SWAP5 DUP5 PUSH0 MSTORE DUP3 PUSH0 KECCAK256 SWAP3 PUSH0 SWAP1 JUMPDEST DUP8 DUP3 LT PUSH2 0x20B8 JUMPI POP POP DUP4 PUSH1 0x1 SWAP6 SWAP7 LT PUSH2 0x2B2 JUMPI POP POP POP DUP2 SHL ADD SWAP1 SSTORE STOP JUMPDEST DUP1 PUSH1 0x1 DUP6 SWAP7 DUP3 SWAP5 SWAP7 DUP7 ADD MLOAD DUP2 SSTORE ADD SWAP6 ADD SWAP4 ADD SWAP1 PUSH2 0x209B JUMP JUMPDEST DUP4 PUSH0 MSTORE DUP2 PUSH0 KECCAK256 PUSH1 0x1F DUP5 ADD PUSH1 0x5 SHR DUP2 ADD SWAP2 DUP4 DUP6 LT PUSH2 0x2109 JUMPI JUMPDEST PUSH1 0x1F ADD PUSH1 0x5 SHR ADD SWAP1 JUMPDEST DUP2 DUP2 LT PUSH2 0x20FE JUMPI POP PUSH2 0x205C JUMP JUMPDEST PUSH0 DUP2 SSTORE PUSH1 0x1 ADD PUSH2 0x20F1 JUMP JUMPDEST SWAP1 SWAP2 POP DUP2 SWAP1 PUSH2 0x20E8 JUMP JUMPDEST ADD MLOAD SWAP1 POP DUP9 DUP1 PUSH2 0x201F JUMP JUMPDEST SWAP1 PUSH1 0x1F NOT DUP4 AND SWAP2 DUP5 PUSH0 MSTORE DUP8 PUSH0 KECCAK256 SWAP3 PUSH0 JUMPDEST DUP10 DUP3 DUP3 LT PUSH2 0x2171 JUMPI POP POP SWAP3 PUSH1 0x1 SWAP3 DUP6 SWAP3 PUSH1 0xE0 SWAP9 SWAP7 PUSH1 0x7 SWAP9 SWAP7 LT PUSH2 0x2159 JUMPI JUMPDEST POP POP POP DUP2 SHL ADD SWAP1 SSTORE PUSH2 0x2033 JUMP JUMPDEST ADD MLOAD PUSH0 NOT PUSH1 0xF8 DUP5 PUSH1 0x3 SHL AND SHR NOT AND SWAP1 SSTORE DUP9 DUP1 DUP1 PUSH2 0x214C JUMP JUMPDEST PUSH1 0x1 DUP6 SWAP7 DUP3 SWAP4 SWAP7 DUP7 ADD MLOAD DUP2 SSTORE ADD SWAP6 ADD SWAP4 ADD PUSH2 0x212E JUMP JUMPDEST DUP4 PUSH0 MSTORE DUP7 PUSH0 KECCAK256 PUSH1 0x1F DUP5 ADD PUSH1 0x5 SHR DUP2 ADD SWAP2 DUP9 DUP6 LT PUSH2 0x21C0 JUMPI JUMPDEST PUSH1 0x1F ADD PUSH1 0x5 SHR ADD SWAP1 JUMPDEST DUP2 DUP2 LT PUSH2 0x21B5 JUMPI POP PUSH2 0x2000 JUMP JUMPDEST PUSH0 DUP2 SSTORE PUSH1 0x1 ADD PUSH2 0x21A8 JUMP JUMPDEST SWAP1 SWAP2 POP DUP2 SWAP1 PUSH2 0x219F JUMP JUMPDEST ADD MLOAD SWAP1 POP DUP7 DUP1 PUSH2 0x1FBF JUMP JUMPDEST PUSH0 DUP6 DUP2 MSTORE DUP9 DUP2 KECCAK256 SWAP4 POP PUSH1 0x1F NOT DUP6 AND SWAP1 JUMPDEST DUP10 DUP3 DUP3 LT PUSH2 0x2222 JUMPI POP POP SWAP1 DUP5 PUSH1 0x1 SWAP6 SWAP5 SWAP4 SWAP3 LT PUSH2 0x220A JUMPI JUMPDEST POP POP POP DUP2 SHL ADD SWAP1 SSTORE PUSH2 0x1FD3 JUMP JUMPDEST ADD MLOAD PUSH0 NOT PUSH1 0xF8 DUP5 PUSH1 0x3 SHL AND SHR NOT AND SWAP1 SSTORE DUP7 DUP1 DUP1 PUSH2 0x21FD JUMP JUMPDEST PUSH1 0x1 DUP6 SWAP7 DUP3 SWAP4 SWAP7 DUP7 ADD MLOAD DUP2 SSTORE ADD SWAP6 ADD SWAP4 ADD PUSH2 0x21E5 JUMP JUMPDEST SWAP1 SWAP2 POP DUP4 PUSH0 MSTORE DUP7 PUSH0 KECCAK256 PUSH1 0x1F DUP5 ADD PUSH1 0x5 SHR DUP2 ADD SWAP2 DUP9 DUP6 LT PUSH2 0x227C JUMPI JUMPDEST SWAP1 PUSH1 0x1F DUP6 SWAP5 SWAP4 SWAP3 ADD PUSH1 0x5 SHR ADD SWAP1 JUMPDEST DUP2 DUP2 LT PUSH2 0x226E JUMPI POP PUSH2 0x1FAA JUMP JUMPDEST PUSH0 DUP2 SSTORE DUP5 SWAP4 POP PUSH1 0x1 ADD PUSH2 0x2261 JUMP JUMPDEST SWAP1 SWAP2 POP DUP2 SWAP1 PUSH2 0x2253 JUMP JUMPDEST ADD MLOAD SWAP1 POP DUP7 DUP1 PUSH2 0x1F67 JUMP JUMPDEST PUSH0 DUP6 DUP2 MSTORE DUP9 DUP2 KECCAK256 SWAP4 POP PUSH1 0x1F NOT DUP6 AND SWAP1 JUMPDEST DUP10 DUP3 DUP3 LT PUSH2 0x22DE JUMPI POP POP SWAP1 DUP5 PUSH1 0x1 SWAP6 SWAP5 SWAP4 SWAP3 LT PUSH2 0x22C6 JUMPI JUMPDEST POP POP POP DUP2 SHL ADD SWAP1 SSTORE PUSH2 0x1F7B JUMP JUMPDEST ADD MLOAD PUSH0 NOT PUSH1 0xF8 DUP5 PUSH1 0x3 SHL AND SHR NOT AND SWAP1 SSTORE DUP7 DUP1 DUP1 PUSH2 0x22B9 JUMP JUMPDEST PUSH1 0x1 DUP6 SWAP7 DUP3 SWAP4 SWAP7 DUP7 ADD MLOAD DUP2 SSTORE ADD SWAP6 ADD SWAP4 ADD PUSH2 0x22A1 JUMP JUMPDEST SWAP1 SWAP2 POP DUP4 PUSH0 MSTORE DUP7 PUSH0 KECCAK256 PUSH1 0x1F DUP5 ADD PUSH1 0x5 SHR DUP2 ADD SWAP2 DUP9 DUP6 LT PUSH2 0x2338 JUMPI JUMPDEST SWAP1 PUSH1 0x1F DUP6 SWAP5 SWAP4 SWAP3 ADD PUSH1 0x5 SHR ADD SWAP1 JUMPDEST DUP2 DUP2 LT PUSH2 0x232A JUMPI POP PUSH2 0x1F52 JUMP JUMPDEST PUSH0 DUP2 SSTORE DUP5 SWAP4 POP PUSH1 0x1 ADD PUSH2 0x231D JUMP JUMPDEST SWAP1 SWAP2 POP DUP2 SWAP1 PUSH2 0x230F JUMP JUMPDEST ADD MLOAD SWAP1 POP DUP7 DUP1 PUSH2 0x1F0F JUMP JUMPDEST PUSH0 DUP6 DUP2 MSTORE DUP9 DUP2 KECCAK256 SWAP4 POP PUSH1 0x1F NOT DUP6 AND SWAP1 JUMPDEST DUP10 DUP3 DUP3 LT PUSH2 0x239A JUMPI POP POP SWAP1 DUP5 PUSH1 0x1 SWAP6 SWAP5 SWAP4 SWAP3 LT PUSH2 0x2382 JUMPI JUMPDEST POP POP POP DUP2 SHL ADD SWAP1 SSTORE PUSH2 0x1F23 JUMP JUMPDEST ADD MLOAD PUSH0 NOT PUSH1 0xF8 DUP5 PUSH1 0x3 SHL AND SHR NOT AND SWAP1 SSTORE DUP7 DUP1 DUP1 PUSH2 0x2375 JUMP JUMPDEST PUSH1 0x1 DUP6 SWAP7 DUP3 SWAP4 SWAP7 DUP7 ADD MLOAD DUP2 SSTORE ADD SWAP6 ADD SWAP4 ADD PUSH2 0x235D JUMP JUMPDEST SWAP1 SWAP2 POP DUP4 PUSH0 MSTORE DUP7 PUSH0 KECCAK256 PUSH1 0x1F DUP5 ADD PUSH1 0x5 SHR DUP2 ADD SWAP2 DUP9 DUP6 LT PUSH2 0x23F4 JUMPI JUMPDEST SWAP1 PUSH1 0x1F DUP6 SWAP5 SWAP4 SWAP3 ADD PUSH1 0x5 SHR ADD SWAP1 JUMPDEST DUP2 DUP2 LT PUSH2 0x23E6 JUMPI POP PUSH2 0x1EFA JUMP JUMPDEST PUSH0 DUP2 SSTORE DUP5 SWAP4 POP PUSH1 0x1 ADD PUSH2 0x23D9 JUMP JUMPDEST SWAP1 SWAP2 POP DUP2 SWAP1 PUSH2 0x23CB JUMP JUMPDEST ADD MLOAD SWAP1 POP DUP7 DUP1 PUSH2 0x1EB7 JUMP JUMPDEST PUSH0 DUP6 DUP2 MSTORE DUP9 DUP2 KECCAK256 SWAP4 POP PUSH1 0x1F NOT DUP6 AND SWAP1 JUMPDEST DUP10 DUP3 DUP3 LT PUSH2 0x2456 JUMPI POP POP SWAP1 DUP5 PUSH1 0x1 SWAP6 SWAP5 SWAP4 SWAP3 LT PUSH2 0x243E JUMPI JUMPDEST POP POP POP DUP2 SHL ADD SWAP1 SSTORE PUSH2 0x1ECB JUMP JUMPDEST ADD MLOAD PUSH0 NOT PUSH1 0xF8 DUP5 PUSH1 0x3 SHL AND SHR NOT AND SWAP1 SSTORE DUP7 DUP1 DUP1 PUSH2 0x2431 JUMP JUMPDEST PUSH1 0x1 DUP6 SWAP7 DUP3 SWAP4 SWAP7 DUP7 ADD MLOAD DUP2 SSTORE ADD SWAP6 ADD SWAP4 ADD PUSH2 0x2419 JUMP JUMPDEST SWAP1 SWAP2 POP DUP4 PUSH0 MSTORE DUP7 PUSH0 KECCAK256 PUSH1 0x1F DUP5 ADD PUSH1 0x5 SHR DUP2 ADD SWAP2 DUP9 DUP6 LT PUSH2 0x24B0 JUMPI JUMPDEST SWAP1 PUSH1 0x1F DUP6 SWAP5 SWAP4 SWAP3 ADD PUSH1 0x5 SHR ADD SWAP1 JUMPDEST DUP2 DUP2 LT PUSH2 0x24A2 JUMPI POP PUSH2 0x1EA2 JUMP JUMPDEST PUSH0 DUP2 SSTORE DUP5 SWAP4 POP PUSH1 0x1 ADD PUSH2 0x2495 JUMP JUMPDEST SWAP1 SWAP2 POP DUP2 SWAP1 PUSH2 0x2487 JUMP JUMPDEST ADD MLOAD SWAP1 POP DUP7 DUP1 PUSH2 0x1E5F JUMP JUMPDEST PUSH0 DUP6 DUP2 MSTORE DUP9 DUP2 KECCAK256 SWAP4 POP PUSH1 0x1F NOT DUP6 AND SWAP1 JUMPDEST DUP10 DUP3 DUP3 LT PUSH2 0x2512 JUMPI POP POP SWAP1 DUP5 PUSH1 0x1 SWAP6 SWAP5 SWAP4 SWAP3 LT PUSH2 0x24FA JUMPI JUMPDEST POP POP POP DUP2 SHL ADD SWAP1 SSTORE PUSH2 0x1E73 JUMP JUMPDEST ADD MLOAD PUSH0 NOT PUSH1 0xF8 DUP5 PUSH1 0x3 SHL AND SHR NOT AND SWAP1 SSTORE DUP7 DUP1 DUP1 PUSH2 0x24ED JUMP JUMPDEST PUSH1 0x1 DUP6 SWAP7 DUP3 SWAP4 SWAP7 DUP7 ADD MLOAD DUP2 SSTORE ADD SWAP6 ADD SWAP4 ADD PUSH2 0x24D5 JUMP JUMPDEST SWAP1 SWAP2 POP DUP4 PUSH0 MSTORE DUP7 PUSH0 KECCAK256 PUSH1 0x1F DUP5 ADD PUSH1 0x5 SHR DUP2 ADD SWAP2 DUP9 DUP6 LT PUSH2 0x256C JUMPI JUMPDEST SWAP1 PUSH1 0x1F DUP6 SWAP5 SWAP4 SWAP3 ADD PUSH1 0x5 SHR ADD SWAP1 JUMPDEST DUP2 DUP2 LT PUSH2 0x255E JUMPI POP PUSH2 0x1E4A JUMP JUMPDEST PUSH0 DUP2 SSTORE DUP5 SWAP4 POP PUSH1 0x1 ADD PUSH2 0x2551 JUMP JUMPDEST SWAP1 SWAP2 POP DUP2 SWAP1 PUSH2 0x2543 JUMP JUMPDEST ADD MLOAD SWAP1 POP DUP6 DUP1 PUSH2 0x1E08 JUMP JUMPDEST PUSH1 0x1F NOT DUP3 AND SWAP5 DUP4 PUSH0 MSTORE DUP7 PUSH0 KECCAK256 SWAP2 PUSH0 JUMPDEST DUP9 DUP9 DUP3 LT PUSH2 0x25CB JUMPI POP POP DUP4 PUSH1 0x1 SWAP6 SWAP7 SWAP8 LT PUSH2 0x25B3 JUMPI JUMPDEST POP POP POP DUP2 SHL ADD DUP2 SSTORE PUSH2 0x1E1C JUMP JUMPDEST ADD MLOAD PUSH0 NOT PUSH1 0xF8 DUP5 PUSH1 0x3 SHL AND SHR NOT AND SWAP1 SSTORE DUP6 DUP1 DUP1 PUSH2 0x25A6 JUMP JUMPDEST PUSH1 0x1 DUP5 SWAP6 DUP3 SWAP4 SWAP6 DUP6 ADD MLOAD DUP2 SSTORE ADD SWAP5 ADD SWAP3 ADD PUSH2 0x2590 JUMP JUMPDEST DUP3 PUSH0 MSTORE DUP6 PUSH0 KECCAK256 PUSH1 0x1F DUP4 ADD PUSH1 0x5 SHR DUP2 ADD SWAP2 DUP8 DUP5 LT PUSH2 0x261A JUMPI JUMPDEST PUSH1 0x1F ADD PUSH1 0x5 SHR ADD SWAP1 JUMPDEST DUP2 DUP2 LT PUSH2 0x260F JUMPI POP PUSH2 0x1DEE JUMP JUMPDEST PUSH0 DUP2 SSTORE PUSH1 0x1 ADD PUSH2 0x2602 JUMP JUMPDEST SWAP1 SWAP2 POP DUP2 SWAP1 PUSH2 0x25F9 JUMP JUMPDEST ADD MLOAD SWAP1 POP DUP9 DUP1 PUSH2 0x1D9B JUMP JUMPDEST PUSH1 0x1F SWAP6 SWAP5 SWAP4 SWAP3 SWAP2 SWAP6 NOT DUP3 AND SWAP6 DUP4 PUSH0 MSTORE DUP6 PUSH0 KECCAK256 SWAP2 PUSH0 JUMPDEST DUP9 DUP2 LT PUSH2 0x267E JUMPI POP DUP4 PUSH1 0x1 SWAP6 SWAP7 SWAP8 SWAP9 LT PUSH2 0x2666 JUMPI JUMPDEST POP POP POP DUP2 SHL ADD SWAP1 SSTORE PUSH2 0x1DAF JUMP JUMPDEST ADD MLOAD PUSH0 NOT PUSH1 0xF8 DUP5 PUSH1 0x3 SHL AND SHR NOT AND SWAP1 SSTORE DUP9 DUP1 DUP1 PUSH2 0x2659 JUMP JUMPDEST DUP3 DUP3 ADD MLOAD DUP5 SSTORE DUP10 SWAP8 PUSH1 0x1 SWAP1 SWAP5 ADD SWAP4 SWAP3 DUP4 ADD SWAP3 ADD PUSH2 0x2644 JUMP JUMPDEST SWAP2 DUP1 SWAP5 POP PUSH0 SWAP6 SWAP2 SWAP4 SWAP6 MSTORE DUP7 PUSH0 KECCAK256 PUSH1 0x1F DUP5 ADD PUSH1 0x5 SHR DUP2 ADD SWAP2 DUP9 DUP6 LT PUSH2 0x26E3 JUMPI JUMPDEST SWAP1 PUSH1 0x1F DUP10 SWAP7 SWAP5 SWAP8 SWAP6 SWAP4 SWAP3 ADD PUSH1 0x5 SHR ADD SWAP1 JUMPDEST DUP2 DUP2 LT PUSH2 0x26D5 JUMPI POP POP DUP5 PUSH2 0x1D82 JUMP JUMPDEST PUSH0 DUP2 SSTORE DUP9 SWAP6 POP PUSH1 0x1 ADD PUSH2 0x26C6 JUMP JUMPDEST SWAP1 SWAP2 POP DUP2 SWAP1 PUSH2 0x26B5 JUMP JUMPDEST ADD MLOAD SWAP1 POP DUP10 DUP1 PUSH2 0x1D43 JUMP JUMPDEST SWAP1 PUSH1 0x1F NOT DUP4 AND SWAP2 DUP5 PUSH0 MSTORE DUP6 PUSH0 KECCAK256 SWAP3 PUSH0 JUMPDEST DUP8 DUP3 DUP3 LT PUSH2 0x2748 JUMPI POP POP SWAP2 PUSH1 0x1 SWAP6 SWAP5 SWAP3 SWAP2 DUP4 DUP8 SWAP6 SWAP4 LT PUSH2 0x2730 JUMPI JUMPDEST POP POP POP DUP2 SHL ADD DUP2 SSTORE PUSH2 0x1D56 JUMP JUMPDEST ADD MLOAD PUSH0 NOT PUSH1 0xF8 DUP5 PUSH1 0x3 SHL AND SHR NOT AND SWAP1 SSTORE DUP10 DUP1 DUP1 PUSH2 0x2723 JUMP JUMPDEST PUSH1 0x1 DUP6 SWAP7 DUP3 SWAP4 SWAP7 DUP7 ADD MLOAD DUP2 SSTORE ADD SWAP6 ADD SWAP4 ADD PUSH2 0x2708 JUMP JUMPDEST SWAP1 SWAP2 SWAP3 DUP1 SWAP5 POP PUSH0 MSTORE DUP8 PUSH0 KECCAK256 PUSH1 0x1F DUP5 ADD PUSH1 0x5 SHR DUP2 ADD SWAP2 DUP10 DUP6 LT PUSH2 0x27A6 JUMPI JUMPDEST SWAP1 PUSH1 0x1F DUP11 SWAP7 SWAP6 SWAP5 SWAP4 SWAP3 ADD PUSH1 0x5 SHR ADD SWAP1 JUMPDEST DUP2 DUP2 LT PUSH2 0x2798 JUMPI POP PUSH2 0x1D28 JUMP JUMPDEST PUSH0 DUP2 SSTORE DUP10 SWAP6 POP PUSH1 0x1 ADD PUSH2 0x278B JUMP JUMPDEST SWAP1 SWAP2 POP DUP2 SWAP1 PUSH2 0x277B JUMP JUMPDEST ADD MLOAD SWAP1 POP DUP12 DUP1 PUSH2 0x1CD0 JUMP JUMPDEST SWAP1 PUSH1 0x1F NOT DUP4 AND SWAP2 DUP5 PUSH0 MSTORE DUP11 PUSH0 KECCAK256 SWAP3 PUSH0 JUMPDEST DUP13 DUP3 DUP3 LT PUSH2 0x280E JUMPI POP POP SWAP3 PUSH1 0x1 SWAP3 DUP6 SWAP3 PUSH1 0x5 SWAP9 SWAP7 PUSH1 0xC0 SWAP9 SWAP7 LT PUSH2 0x27F6 JUMPI JUMPDEST POP POP POP DUP2 SHL ADD SWAP1 SSTORE PUSH2 0x1CE4 JUMP JUMPDEST ADD MLOAD PUSH0 NOT PUSH1 0xF8 DUP5 PUSH1 0x3 SHL AND SHR NOT AND SWAP1 SSTORE DUP12 DUP1 DUP1 PUSH2 0x27E9 JUMP JUMPDEST PUSH1 0x1 DUP6 SWAP7 DUP3 SWAP4 SWAP7 DUP7 ADD MLOAD DUP2 SSTORE ADD SWAP6 ADD SWAP4 ADD PUSH2 0x27CB JUMP JUMPDEST DUP4 PUSH0 MSTORE DUP10 PUSH0 KECCAK256 PUSH1 0x1F DUP5 ADD PUSH1 0x5 SHR DUP2 ADD SWAP2 DUP12 DUP6 LT PUSH2 0x285D JUMPI JUMPDEST PUSH1 0x1F ADD PUSH1 0x5 SHR ADD SWAP1 JUMPDEST DUP2 DUP2 LT PUSH2 0x2852 JUMPI POP PUSH2 0x1CB1 JUMP JUMPDEST PUSH0 DUP2 SSTORE PUSH1 0x1 ADD PUSH2 0x2845 JUMP JUMPDEST SWAP1 SWAP2 POP DUP2 SWAP1 PUSH2 0x283C JUMP JUMPDEST PUSH4 0x4E487B71 PUSH1 0xE0 SHL PUSH0 MSTORE PUSH1 0x21 PUSH1 0x4 MSTORE PUSH1 0x24 PUSH0 REVERT JUMPDEST ADD MLOAD SWAP1 POP DUP10 DUP1 PUSH2 0x1C38 JUMP JUMPDEST PUSH0 DUP6 DUP2 MSTORE DUP12 DUP2 KECCAK256 SWAP4 POP PUSH1 0x1F NOT DUP6 AND SWAP1 JUMPDEST DUP13 DUP3 DUP3 LT PUSH2 0x28D3 JUMPI POP POP SWAP1 DUP5 PUSH1 0x1 SWAP6 SWAP5 SWAP4 SWAP3 LT PUSH2 0x28BB JUMPI JUMPDEST POP POP POP DUP2 SHL ADD SWAP1 SSTORE PUSH2 0x1C4C JUMP JUMPDEST ADD MLOAD PUSH0 NOT PUSH1 0xF8 DUP5 PUSH1 0x3 SHL AND SHR NOT AND SWAP1 SSTORE DUP10 DUP1 DUP1 PUSH2 0x28AE JUMP JUMPDEST PUSH1 0x1 DUP6 SWAP7 DUP3 SWAP4 SWAP7 DUP7 ADD MLOAD DUP2 SSTORE ADD SWAP6 ADD SWAP4 ADD PUSH2 0x2896 JUMP JUMPDEST SWAP1 SWAP2 POP DUP4 PUSH0 MSTORE DUP10 PUSH0 KECCAK256 PUSH1 0x1F DUP5 ADD PUSH1 0x5 SHR DUP2 ADD SWAP2 DUP12 DUP6 LT PUSH2 0x292D JUMPI JUMPDEST SWAP1 PUSH1 0x1F DUP6 SWAP5 SWAP4 SWAP3 ADD PUSH1 0x5 SHR ADD SWAP1 JUMPDEST DUP2 DUP2 LT PUSH2 0x291F JUMPI POP PUSH2 0x1C23 JUMP JUMPDEST PUSH0 DUP2 SSTORE DUP5 SWAP4 POP PUSH1 0x1 ADD PUSH2 0x2912 JUMP JUMPDEST SWAP1 SWAP2 POP DUP2 SWAP1 PUSH2 0x2904 JUMP JUMPDEST ADD MLOAD SWAP1 POP DUP9 DUP1 PUSH2 0x1BDD JUMP JUMPDEST PUSH1 0x1 DUP7 ADD PUSH0 SWAP1 DUP2 MSTORE DUP11 DUP2 KECCAK256 SWAP4 POP PUSH1 0x1F NOT DUP6 AND SWAP1 JUMPDEST DUP12 DUP3 DUP3 LT PUSH2 0x2996 JUMPI POP POP SWAP1 DUP5 PUSH1 0x1 SWAP6 SWAP5 SWAP4 SWAP3 LT PUSH2 0x297E JUMPI JUMPDEST POP POP POP DUP2 SHL ADD PUSH1 0x1 DUP4 ADD SSTORE PUSH2 0x1BF4 JUMP JUMPDEST ADD MLOAD PUSH0 NOT PUSH1 0xF8 DUP5 PUSH1 0x3 SHL AND SHR NOT AND SWAP1 SSTORE DUP9 DUP1 DUP1 PUSH2 0x296E JUMP JUMPDEST PUSH1 0x1 DUP6 SWAP7 DUP3 SWAP4 SWAP7 DUP7 ADD MLOAD DUP2 SSTORE ADD SWAP6 ADD SWAP4 ADD PUSH2 0x2956 JUMP JUMPDEST SWAP1 SWAP2 POP PUSH1 0x1 DUP6 ADD PUSH0 MSTORE DUP9 PUSH0 KECCAK256 PUSH1 0x1F DUP5 ADD PUSH1 0x5 SHR DUP2 ADD SWAP2 DUP11 DUP6 LT PUSH2 0x29F3 JUMPI JUMPDEST SWAP1 PUSH1 0x1F DUP6 SWAP5 SWAP4 SWAP3 ADD PUSH1 0x5 SHR ADD SWAP1 JUMPDEST DUP2 DUP2 LT PUSH2 0x29E5 JUMPI POP PUSH2 0x1BC8 JUMP JUMPDEST PUSH0 DUP2 SSTORE DUP5 SWAP4 POP PUSH1 0x1 ADD PUSH2 0x29D8 JUMP JUMPDEST SWAP1 SWAP2 POP DUP2 SWAP1 PUSH2 0x29CA JUMP JUMPDEST ADD MLOAD SWAP1 POP DUP10 DUP1 PUSH2 0x1B8A JUMP JUMPDEST PUSH0 DUP8 DUP2 MSTORE DUP12 DUP2 KECCAK256 SWAP4 POP PUSH1 0x1F NOT DUP6 AND SWAP1 JUMPDEST DUP13 DUP3 DUP3 LT PUSH2 0x2A55 JUMPI POP POP SWAP1 DUP5 PUSH1 0x1 SWAP6 SWAP5 SWAP4 SWAP3 LT PUSH2 0x2A3D JUMPI JUMPDEST POP POP POP DUP2 SHL ADD DUP4 SSTORE PUSH2 0x1B9E JUMP JUMPDEST ADD MLOAD PUSH0 NOT PUSH1 0xF8 DUP5 PUSH1 0x3 SHL AND SHR NOT AND SWAP1 SSTORE DUP10 DUP1 DUP1 PUSH2 0x2A30 JUMP JUMPDEST PUSH1 0x1 DUP6 SWAP7 DUP3 SWAP4 SWAP7 DUP7 ADD MLOAD DUP2 SSTORE ADD SWAP6 ADD SWAP4 ADD PUSH2 0x2A18 JUMP JUMPDEST SWAP1 SWAP2 POP DUP6 PUSH0 MSTORE DUP10 PUSH0 KECCAK256 PUSH1 0x1F DUP5 ADD PUSH1 0x5 SHR DUP2 ADD SWAP2 DUP12 DUP6 LT PUSH2 0x2AAF JUMPI JUMPDEST SWAP1 PUSH1 0x1F DUP6 SWAP5 SWAP4 SWAP3 ADD PUSH1 0x5 SHR ADD SWAP1 JUMPDEST DUP2 DUP2 LT PUSH2 0x2AA1 JUMPI POP PUSH2 0x1B75 JUMP JUMPDEST PUSH0 DUP2 SSTORE DUP5 SWAP4 POP PUSH1 0x1 ADD PUSH2 0x2A94 JUMP JUMPDEST SWAP1 SWAP2 POP DUP2 SWAP1 PUSH2 0x2A86 JUMP JUMPDEST PUSH4 0x4E487B71 PUSH1 0xE0 SHL PUSH0 MSTORE PUSH0 PUSH1 0x4 MSTORE PUSH1 0x24 PUSH0 REVERT JUMPDEST ADD MLOAD SWAP1 POP DUP15 DUP1 PUSH2 0x1AAD JUMP JUMPDEST PUSH0 DUP5 DUP2 MSTORE DUP13 DUP2 KECCAK256 SWAP3 SWAP2 SWAP1 PUSH1 0x1F NOT DUP6 AND SWAP1 DUP15 JUMPDEST DUP3 DUP3 LT PUSH2 0x2B2C JUMPI POP POP SWAP4 PUSH1 0xFF SWAP7 SWAP4 PUSH1 0x2 SWAP7 SWAP4 PUSH1 0x1 SWAP4 DUP4 DUP11 SWAP9 LT PUSH2 0x2B14 JUMPI JUMPDEST POP POP POP DUP2 SHL ADD SWAP1 SSTORE PUSH2 0x1AC1 JUMP JUMPDEST ADD MLOAD PUSH0 NOT PUSH1 0xF8 DUP5 PUSH1 0x3 SHL AND SHR NOT AND SWAP1 SSTORE DUP15 DUP1 DUP1 PUSH2 0x2B07 JUMP JUMPDEST DUP1 PUSH1 0x1 DUP7 SWAP8 DUP3 SWAP5 SWAP8 DUP8 ADD MLOAD DUP2 SSTORE ADD SWAP7 ADD SWAP5 ADD SWAP1 PUSH2 0x2AE9 JUMP JUMPDEST DUP4 PUSH0 MSTORE DUP12 PUSH0 KECCAK256 PUSH1 0x1F DUP5 ADD PUSH1 0x5 SHR DUP2 ADD SWAP2 DUP14 DUP6 LT PUSH2 0x2B7D JUMPI JUMPDEST PUSH1 0x1F ADD PUSH1 0x5 SHR ADD SWAP1 JUMPDEST DUP2 DUP2 LT PUSH2 0x2B72 JUMPI POP PUSH2 0x1A8C JUMP JUMPDEST PUSH0 DUP2 SSTORE PUSH1 0x1 ADD PUSH2 0x2B65 JUMP JUMPDEST SWAP1 SWAP2 POP DUP2 SWAP1 PUSH2 0x2B5C JUMP JUMPDEST ADD MLOAD SWAP1 POP DUP12 DUP1 PUSH2 0x1A4F JUMP JUMPDEST PUSH0 DUP8 DUP2 MSTORE DUP14 DUP2 KECCAK256 SWAP4 POP PUSH1 0x1F NOT DUP6 AND SWAP1 DUP15 JUMPDEST DUP3 DUP3 LT PUSH2 0x2BDF JUMPI POP POP SWAP1 DUP5 PUSH1 0x1 SWAP6 SWAP5 SWAP4 SWAP3 LT PUSH2 0x2BC7 JUMPI JUMPDEST POP POP POP DUP2 SHL ADD DUP4 SSTORE PUSH2 0x1A63 JUMP JUMPDEST ADD MLOAD PUSH0 NOT PUSH1 0xF8 DUP5 PUSH1 0x3 SHL AND SHR NOT AND SWAP1 SSTORE DUP12 DUP1 DUP1 PUSH2 0x2BBA JUMP JUMPDEST DUP1 PUSH1 0x1 DUP7 SWAP8 DUP3 SWAP5 SWAP8 DUP8 ADD MLOAD DUP2 SSTORE ADD SWAP7 ADD SWAP5 ADD SWAP1 PUSH2 0x2BA3 JUMP JUMPDEST SWAP1 SWAP2 POP DUP6 PUSH0 MSTORE DUP12 PUSH0 KECCAK256 PUSH1 0x1F DUP5 ADD PUSH1 0x5 SHR DUP2 ADD SWAP2 DUP14 DUP6 LT PUSH2 0x2C3B JUMPI JUMPDEST SWAP1 PUSH1 0x1F DUP6 SWAP5 SWAP4 SWAP3 ADD PUSH1 0x5 SHR ADD SWAP1 JUMPDEST DUP2 DUP2 LT PUSH2 0x2C2D JUMPI POP PUSH2 0x1A3A JUMP JUMPDEST PUSH0 DUP2 SSTORE DUP5 SWAP4 POP PUSH1 0x1 ADD PUSH2 0x2C20 JUMP JUMPDEST SWAP1 SWAP2 POP DUP2 SWAP1 PUSH2 0x2C12 JUMP JUMPDEST CALLVALUE PUSH2 0x1D3 JUMPI PUSH1 0x20 CALLDATASIZE PUSH1 0x3 NOT ADD SLT PUSH2 0x1D3 JUMPI PUSH1 0x4 CALLDATALOAD PUSH1 0x1 PUSH1 0x1 PUSH1 0x40 SHL SUB DUP2 GT PUSH2 0x1D3 JUMPI PUSH1 0x20 DUP1 PUSH2 0x2C7B PUSH2 0x2CC9 SWAP4 CALLDATASIZE SWAP1 PUSH1 0x4 ADD PUSH2 0x3C63 JUMP JUMPDEST PUSH1 0x40 MLOAD SWAP3 DUP2 DUP5 SWAP3 MLOAD SWAP2 DUP3 SWAP2 ADD DUP4 MCOPY DUP2 ADD PUSH1 0x6 DUP2 MSTORE SUB ADD SWAP1 KECCAK256 PUSH2 0x39B PUSH2 0x2C9F DUP3 PUSH2 0x3D68 JUMP JUMPDEST SWAP2 PUSH2 0x2CD7 PUSH2 0x2CB4 PUSH1 0x2 PUSH2 0x1640 PUSH1 0x1 DUP6 ADD PUSH2 0x3D68 JUMP JUMPDEST SWAP2 PUSH1 0x40 MLOAD SWAP6 DUP7 SWAP6 PUSH1 0x60 DUP8 MSTORE PUSH1 0x60 DUP8 ADD SWAP1 PUSH2 0x3CB8 JUMP JUMPDEST SWAP1 DUP6 DUP3 SUB PUSH1 0x20 DUP8 ADD MSTORE PUSH2 0x3CB8 JUMP JUMPDEST SWAP1 DUP4 DUP3 SUB PUSH1 0x40 DUP6 ADD MSTORE PUSH2 0x3CB8 JUMP JUMPDEST CALLVALUE PUSH2 0x1D3 JUMPI PUSH1 0x20 CALLDATASIZE PUSH1 0x3 NOT ADD SLT PUSH2 0x1D3 JUMPI PUSH1 0x4 CALLDATALOAD PUSH1 0x1 PUSH1 0x1 PUSH1 0x40 SHL SUB DUP2 GT PUSH2 0x1D3 JUMPI PUSH2 0x2D15 SWAP1 CALLDATASIZE SWAP1 PUSH1 0x4 ADD PUSH2 0x3C63 JUMP JUMPDEST PUSH1 0x40 MLOAD DUP2 DUP2 SWAP3 MLOAD PUSH1 0x20 DUP2 SWAP3 ADD DUP4 MCOPY DUP2 ADD PUSH1 0x5 DUP2 MSTORE SUB PUSH1 0x20 ADD SWAP1 KECCAK256 PUSH2 0x2D38 DUP2 PUSH2 0x3D68 JUMP JUMPDEST PUSH2 0x2D44 PUSH1 0x1 DUP4 ADD PUSH2 0x3D68 JUMP JUMPDEST SWAP2 PUSH2 0x2D51 PUSH1 0x2 DUP3 ADD PUSH2 0x3D68 JUMP JUMPDEST SWAP1 PUSH2 0x2D5E PUSH1 0x3 DUP3 ADD PUSH2 0x3D68 JUMP JUMPDEST PUSH2 0x2D6A PUSH1 0x4 DUP4 ADD PUSH2 0x3D68 JUMP JUMPDEST PUSH2 0x2D76 PUSH1 0x5 DUP5 ADD PUSH2 0x3D68 JUMP JUMPDEST SWAP2 PUSH2 0x2D83 PUSH1 0x6 DUP6 ADD PUSH2 0x3D68 JUMP JUMPDEST SWAP4 PUSH1 0x7 ADD PUSH2 0x2D90 SWAP1 PUSH2 0x3D68 JUMP JUMPDEST SWAP5 PUSH1 0x40 MLOAD SWAP8 DUP9 SWAP8 PUSH2 0x100 DUP10 MSTORE PUSH2 0x100 DUP10 ADD PUSH2 0x2DAA SWAP2 PUSH2 0x3CB8 JUMP JUMPDEST DUP9 DUP2 SUB PUSH1 0x20 DUP11 ADD MSTORE PUSH2 0x2DBB SWAP2 PUSH2 0x3CB8 JUMP JUMPDEST DUP8 DUP2 SUB PUSH1 0x40 DUP10 ADD MSTORE PUSH2 0x2DCC SWAP2 PUSH2 0x3CB8 JUMP JUMPDEST DUP7 DUP2 SUB PUSH1 0x60 DUP9 ADD MSTORE PUSH2 0x2DDD SWAP2 PUSH2 0x3CB8 JUMP JUMPDEST DUP6 DUP2 SUB PUSH1 0x80 DUP8 ADD MSTORE PUSH2 0x2DEE SWAP2 PUSH2 0x3CB8 JUMP JUMPDEST DUP5 DUP2 SUB PUSH1 0xA0 DUP7 ADD MSTORE PUSH2 0x2DFF SWAP2 PUSH2 0x3CB8 JUMP JUMPDEST DUP4 DUP2 SUB PUSH1 0xC0 DUP6 ADD MSTORE PUSH2 0x2E10 SWAP2 PUSH2 0x3CB8 JUMP JUMPDEST DUP3 DUP2 SUB PUSH1 0xE0 DUP5 ADD MSTORE PUSH2 0x39B SWAP2 PUSH2 0x3CB8 JUMP JUMPDEST CALLVALUE PUSH2 0x1D3 JUMPI PUSH1 0x20 CALLDATASIZE PUSH1 0x3 NOT ADD SLT PUSH2 0x1D3 JUMPI PUSH1 0x4 CALLDATALOAD PUSH1 0x2 SLOAD DUP2 LT ISZERO PUSH2 0x1D3 JUMPI PUSH2 0x2E4B PUSH2 0x2EA8 SWAP2 PUSH2 0x3E54 JUMP JUMPDEST POP PUSH2 0x2E55 DUP2 PUSH2 0x3D68 JUMP JUMPDEST SWAP1 PUSH2 0x2EEB PUSH2 0x2E65 PUSH1 0x1 DUP4 ADD PUSH2 0x3D68 JUMP JUMPDEST SWAP2 PUSH2 0x2E72 PUSH1 0x2 DUP3 ADD PUSH2 0x3D68 JUMP JUMPDEST SWAP1 PUSH2 0x2EDE PUSH2 0x2EC4 PUSH1 0x3 DUP4 ADD SLOAD SWAP4 PUSH2 0x2EB6 PUSH1 0x5 PUSH2 0x2E90 PUSH1 0x4 DUP8 ADD PUSH2 0x3D68 JUMP JUMPDEST SWAP6 ADD SLOAD SWAP8 PUSH1 0x40 MLOAD SWAP11 DUP12 SWAP11 PUSH1 0xE0 DUP13 MSTORE PUSH1 0xE0 DUP13 ADD SWAP1 PUSH2 0x3CB8 JUMP JUMPDEST SWAP1 DUP11 DUP3 SUB PUSH1 0x20 DUP13 ADD MSTORE PUSH2 0x3CB8 JUMP JUMPDEST SWAP1 DUP9 DUP3 SUB PUSH1 0x40 DUP11 ADD MSTORE PUSH2 0x3CB8 JUMP JUMPDEST SWAP3 PUSH1 0xFF DUP2 AND PUSH1 0x60 DUP9 ADD MSTORE PUSH1 0xFF PUSH1 0x80 DUP9 ADD SWAP2 PUSH1 0x8 SHR AND PUSH2 0x3E47 JUMP JUMPDEST DUP5 DUP3 SUB PUSH1 0xA0 DUP7 ADD MSTORE PUSH2 0x3CB8 JUMP JUMPDEST SWAP1 PUSH1 0xC0 DUP4 ADD MSTORE SUB SWAP1 RETURN JUMPDEST CALLVALUE PUSH2 0x1D3 JUMPI PUSH1 0x20 CALLDATASIZE PUSH1 0x3 NOT ADD SLT PUSH2 0x1D3 JUMPI PUSH1 0x4 CALLDATALOAD PUSH1 0x1 PUSH1 0x1 PUSH1 0x40 SHL SUB DUP2 GT PUSH2 0x1D3 JUMPI PUSH2 0x2F25 SWAP1 CALLDATASIZE SWAP1 PUSH1 0x4 ADD PUSH2 0x3C63 JUMP JUMPDEST PUSH1 0x40 MLOAD DUP2 DUP2 SWAP3 MLOAD PUSH1 0x20 DUP2 SWAP3 ADD DUP4 MCOPY DUP2 ADD PUSH0 DUP2 MSTORE SUB PUSH1 0x20 ADD SWAP1 KECCAK256 DUP1 SLOAD PUSH1 0xFF AND PUSH1 0x1 DUP3 ADD SLOAD SWAP2 PUSH1 0x2 DUP2 ADD SLOAD SWAP1 PUSH1 0x3 DUP2 ADD SLOAD PUSH1 0x4 DUP3 ADD SLOAD PUSH1 0x5 DUP4 ADD SLOAD PUSH1 0x6 DUP5 ADD SLOAD SWAP1 PUSH1 0x7 DUP6 ADD SLOAD SWAP3 PUSH1 0x8 DUP7 ADD PUSH2 0x2F77 SWAP1 PUSH2 0x3E08 JUMP JUMPDEST SWAP5 PUSH2 0x2F84 PUSH1 0xB DUP9 ADD PUSH2 0x3E08 JUMP JUMPDEST SWAP7 PUSH1 0xE ADD PUSH2 0x2F91 SWAP1 PUSH2 0x3D68 JUMP JUMPDEST SWAP8 PUSH1 0x40 MLOAD SWAP11 PUSH2 0x2FA1 DUP13 DUP1 SWAP13 PUSH2 0x3E47 JUMP JUMPDEST PUSH1 0x20 DUP12 ADD MSTORE PUSH1 0x40 DUP11 ADD MSTORE PUSH1 0x60 DUP10 ADD MSTORE PUSH1 0x80 DUP9 ADD MSTORE PUSH1 0xA0 DUP8 ADD MSTORE PUSH1 0xC0 DUP7 ADD MSTORE PUSH1 0xE0 DUP6 ADD MSTORE PUSH2 0x100 DUP5 ADD PUSH2 0x160 SWAP1 MSTORE PUSH2 0x160 DUP5 ADD PUSH2 0x2FDC SWAP2 PUSH2 0x3CDC JUMP JUMPDEST DUP4 DUP2 SUB PUSH2 0x120 DUP6 ADD MSTORE PUSH2 0x2FEE SWAP2 PUSH2 0x3CDC JUMP JUMPDEST DUP3 DUP2 SUB PUSH2 0x140 DUP5 ADD MSTORE PUSH2 0x39B SWAP2 PUSH2 0x3CB8 JUMP JUMPDEST CALLVALUE PUSH2 0x1D3 JUMPI PUSH1 0x60 CALLDATASIZE PUSH1 0x3 NOT ADD SLT PUSH2 0x1D3 JUMPI PUSH1 0x4 CALLDATALOAD PUSH1 0x1 PUSH1 0x1 PUSH1 0x40 SHL SUB DUP2 GT PUSH2 0x1D3 JUMPI PUSH2 0x3030 SWAP1 CALLDATASIZE SWAP1 PUSH1 0x4 ADD PUSH2 0x3C63 JUMP JUMPDEST PUSH1 0x24 CALLDATALOAD PUSH1 0x1 PUSH1 0x1 PUSH1 0x40 SHL SUB DUP2 GT PUSH2 0x1D3 JUMPI PUSH2 0x304F SWAP1 CALLDATASIZE SWAP1 PUSH1 0x4 ADD PUSH2 0x3C63 JUMP JUMPDEST SWAP1 PUSH1 0x44 CALLDATALOAD PUSH1 0x1 PUSH1 0x1 PUSH1 0xA0 SHL SUB DUP2 AND DUP2 SUB PUSH2 0x1D3 JUMPI PUSH2 0x39B SWAP3 PUSH2 0x3070 SWAP3 PUSH2 0x4378 JUMP JUMPDEST PUSH1 0x40 MLOAD SWAP2 DUP3 SWAP2 PUSH1 0x20 DUP4 MSTORE PUSH1 0x20 DUP4 ADD SWAP1 PUSH2 0x3CDC JUMP JUMPDEST CALLVALUE PUSH2 0x1D3 JUMPI PUSH1 0xC0 CALLDATASIZE PUSH1 0x3 NOT ADD SLT PUSH2 0x1D3 JUMPI PUSH1 0x4 CALLDATALOAD PUSH1 0x1 PUSH1 0x1 PUSH1 0x40 SHL SUB DUP2 GT PUSH2 0x1D3 JUMPI PUSH2 0x30B4 SWAP1 CALLDATASIZE SWAP1 PUSH1 0x4 ADD PUSH2 0x3C63 JUMP JUMPDEST PUSH1 0x24 CALLDATALOAD PUSH1 0x1 PUSH1 0x1 PUSH1 0x40 SHL SUB DUP2 GT PUSH2 0x1D3 JUMPI PUSH2 0x30D3 SWAP1 CALLDATASIZE SWAP1 PUSH1 0x4 ADD PUSH2 0x3C63 JUMP JUMPDEST PUSH1 0x44 CALLDATALOAD PUSH1 0x1 PUSH1 0x1 PUSH1 0x40 SHL SUB DUP2 GT PUSH2 0x1D3 JUMPI PUSH2 0x30F2 SWAP1 CALLDATASIZE SWAP1 PUSH1 0x4 ADD PUSH2 0x3C63 JUMP JUMPDEST PUSH1 0x64 CALLDATALOAD PUSH1 0x1 PUSH1 0x1 PUSH1 0x40 SHL SUB DUP2 GT PUSH2 0x1D3 JUMPI PUSH2 0x3111 SWAP1 CALLDATASIZE SWAP1 PUSH1 0x4 ADD PUSH2 0x3C63 JUMP JUMPDEST PUSH2 0x3119 PUSH2 0x3D1A JUMP JUMPDEST PUSH1 0xA4 CALLDATALOAD SWAP2 PUSH1 0x1 PUSH1 0x1 PUSH1 0x40 SHL SUB DUP4 GT PUSH2 0x1D3 JUMPI PUSH2 0x313C PUSH2 0x3142 SWAP4 CALLDATASIZE SWAP1 PUSH1 0x4 ADD PUSH2 0x3C63 JUMP JUMPDEST SWAP4 PUSH2 0x4378 JUMP JUMPDEST PUSH1 0x40 MLOAD SWAP1 PUSH1 0x1 DUP5 MLOAD SWAP3 PUSH1 0x20 DUP2 DUP2 DUP9 ADD SWAP6 DUP1 DUP8 DUP4 MCOPY DUP2 ADD PUSH1 0x3 DUP2 MSTORE SUB ADD SWAP1 KECCAK256 ADD DUP6 MLOAD PUSH1 0x1 PUSH1 0x1 PUSH1 0x40 SHL SUB DUP2 GT PUSH2 0x327 JUMPI PUSH2 0x317B DUP3 SLOAD PUSH2 0x3D30 JUMP JUMPDEST PUSH1 0x1F DUP2 GT PUSH2 0x34ED JUMPI JUMPDEST POP PUSH1 0x20 PUSH1 0x1F DUP3 GT PUSH1 0x1 EQ PUSH2 0x3486 JUMPI SWAP1 DUP1 PUSH2 0x31BB SWAP5 SWAP4 SWAP3 PUSH0 SWAP2 PUSH2 0x347B JUMPI JUMPDEST POP DUP2 PUSH1 0x1 SHL SWAP2 PUSH0 NOT SWAP1 PUSH1 0x3 SHL SHR NOT AND OR SWAP1 SSTORE JUMPDEST DUP4 DUP6 PUSH2 0x4B7E JUMP JUMPDEST PUSH1 0x2 SLOAD SWAP3 PUSH0 JUMPDEST DUP5 DUP2 LT PUSH2 0x31CA JUMPI STOP JUMPDEST PUSH2 0x31D3 DUP2 PUSH2 0x3E54 JUMP JUMPDEST POP PUSH1 0x40 MLOAD PUSH2 0x31E9 DUP2 PUSH2 0x571 PUSH1 0x20 DUP3 ADD DUP1 SWAP6 PUSH2 0x42C0 JUMP JUMPDEST MLOAD SWAP1 KECCAK256 PUSH1 0x40 MLOAD PUSH1 0x20 DUP2 ADD SWAP1 PUSH2 0x3216 PUSH1 0x20 DUP3 DUP8 MLOAD DUP1 DUP11 DUP8 MCOPY DUP2 ADD PUSH0 DUP4 DUP3 ADD MSTORE SUB ADD PUSH1 0x1F NOT DUP2 ADD DUP4 MSTORE DUP3 PUSH2 0x3C42 JUMP JUMPDEST MLOAD SWAP1 KECCAK256 EQ PUSH2 0x3227 JUMPI JUMPDEST PUSH1 0x1 ADD PUSH2 0x31C1 JUMP JUMPDEST PUSH1 0x1 PUSH2 0x3232 DUP3 PUSH2 0x3E54 JUMP JUMPDEST POP ADD DUP7 MLOAD PUSH1 0x1 PUSH1 0x1 PUSH1 0x40 SHL SUB DUP2 GT PUSH2 0x327 JUMPI PUSH2 0x324E DUP3 SLOAD PUSH2 0x3D30 JUMP JUMPDEST PUSH1 0x1F DUP2 GT PUSH2 0x3436 JUMPI JUMPDEST POP DUP1 PUSH1 0x20 PUSH1 0x1F DUP3 GT PUSH1 0x1 EQ PUSH2 0x33D3 JUMPI PUSH0 SWAP2 PUSH2 0x33C8 JUMPI JUMPDEST POP DUP2 PUSH1 0x1 SHL SWAP2 PUSH0 NOT SWAP1 PUSH1 0x3 SHL SHR NOT AND OR SWAP1 SSTORE JUMPDEST PUSH1 0x3 PUSH2 0x328B DUP3 PUSH2 0x3E54 JUMP JUMPDEST POP ADD DUP1 SLOAD PUSH2 0xFF00 NOT AND PUSH2 0x100 OR SWAP1 SSTORE PUSH1 0x4 PUSH2 0x32A5 DUP3 PUSH2 0x3E54 JUMP JUMPDEST POP ADD DUP5 MLOAD PUSH1 0x1 PUSH1 0x1 PUSH1 0x40 SHL SUB DUP2 GT PUSH2 0x327 JUMPI PUSH2 0x32C1 DUP3 SLOAD PUSH2 0x3D30 JUMP JUMPDEST PUSH1 0x1F DUP2 GT PUSH2 0x3383 JUMPI JUMPDEST POP DUP1 PUSH1 0x20 PUSH1 0x1F DUP3 GT PUSH1 0x1 EQ PUSH2 0x3322 JUMPI PUSH0 SWAP2 PUSH2 0x3317 JUMPI JUMPDEST POP DUP2 PUSH1 0x1 SHL SWAP2 PUSH0 NOT SWAP1 PUSH1 0x3 SHL SHR NOT AND OR SWAP1 SSTORE JUMPDEST PUSH1 0x82 TIMESTAMP ADD SWAP1 DUP2 TIMESTAMP GT PUSH2 0x33B JUMPI PUSH1 0x1 SWAP2 PUSH1 0x5 PUSH2 0x330D DUP4 PUSH2 0x3E54 JUMP JUMPDEST POP ADD SSTORE SWAP1 POP PUSH2 0x321F JUMP JUMPDEST SWAP1 POP DUP7 ADD MLOAD DUP10 PUSH2 0x32E0 JUMP JUMPDEST PUSH0 DUP5 DUP2 MSTORE DUP2 DUP2 KECCAK256 SWAP3 POP PUSH1 0x1F NOT DUP5 AND SWAP1 JUMPDEST DUP2 DUP2 LT PUSH2 0x336B JUMPI POP SWAP1 DUP4 PUSH1 0x1 SWAP5 SWAP4 SWAP3 LT PUSH2 0x3353 JUMPI JUMPDEST POP POP DUP2 SHL ADD SWAP1 SSTORE PUSH2 0x32F3 JUMP JUMPDEST DUP9 ADD MLOAD PUSH0 NOT PUSH1 0xF8 DUP5 PUSH1 0x3 SHL AND SHR NOT AND SWAP1 SSTORE DUP10 DUP1 PUSH2 0x3347 JUMP JUMPDEST SWAP2 SWAP3 PUSH1 0x20 PUSH1 0x1 DUP2 SWAP3 DUP7 DUP14 ADD MLOAD DUP2 SSTORE ADD SWAP5 ADD SWAP3 ADD PUSH2 0x3332 JUMP JUMPDEST DUP3 PUSH0 MSTORE PUSH1 0x20 PUSH0 KECCAK256 PUSH1 0x1F DUP4 ADD PUSH1 0x5 SHR DUP2 ADD SWAP2 PUSH1 0x20 DUP5 LT PUSH2 0x33BE JUMPI JUMPDEST PUSH1 0x1F ADD PUSH1 0x5 SHR ADD SWAP1 JUMPDEST DUP2 DUP2 LT PUSH2 0x33B3 JUMPI POP PUSH2 0x32CA JUMP JUMPDEST PUSH0 DUP2 SSTORE PUSH1 0x1 ADD PUSH2 0x33A6 JUMP JUMPDEST SWAP1 SWAP2 POP DUP2 SWAP1 PUSH2 0x339D JUMP JUMPDEST SWAP1 POP DUP9 ADD MLOAD DUP10 PUSH2 0x326D JUMP JUMPDEST PUSH0 DUP5 DUP2 MSTORE DUP2 DUP2 KECCAK256 SWAP3 POP PUSH1 0x1F NOT DUP5 AND SWAP1 JUMPDEST DUP12 DUP3 DUP3 LT PUSH2 0x341E JUMPI POP POP SWAP1 DUP4 PUSH1 0x1 SWAP5 SWAP4 SWAP3 LT PUSH2 0x3406 JUMPI JUMPDEST POP POP DUP2 SHL ADD SWAP1 SSTORE PUSH2 0x3280 JUMP JUMPDEST DUP11 ADD MLOAD PUSH0 NOT PUSH1 0xF8 DUP5 PUSH1 0x3 SHL AND SHR NOT AND SWAP1 SSTORE DUP10 DUP1 PUSH2 0x33FA JUMP JUMPDEST PUSH1 0x1 DUP5 SWAP6 PUSH1 0x20 SWAP4 SWAP6 DUP5 SWAP4 ADD MLOAD DUP2 SSTORE ADD SWAP5 ADD SWAP3 ADD PUSH2 0x33E3 JUMP JUMPDEST DUP3 PUSH0 MSTORE PUSH1 0x20 PUSH0 KECCAK256 PUSH1 0x1F DUP4 ADD PUSH1 0x5 SHR DUP2 ADD SWAP2 PUSH1 0x20 DUP5 LT PUSH2 0x3471 JUMPI JUMPDEST PUSH1 0x1F ADD PUSH1 0x5 SHR ADD SWAP1 JUMPDEST DUP2 DUP2 LT PUSH2 0x3466 JUMPI POP PUSH2 0x3257 JUMP JUMPDEST PUSH0 DUP2 SSTORE PUSH1 0x1 ADD PUSH2 0x3459 JUMP JUMPDEST SWAP1 SWAP2 POP DUP2 SWAP1 PUSH2 0x3450 JUMP JUMPDEST SWAP1 POP DUP9 ADD MLOAD DUP10 PUSH2 0x31A1 JUMP JUMPDEST PUSH1 0x1F NOT DUP3 AND SWAP1 DUP4 PUSH0 MSTORE DUP1 PUSH0 KECCAK256 SWAP2 PUSH0 JUMPDEST DUP11 DUP3 DUP3 LT PUSH2 0x34D5 JUMPI POP POP SWAP2 DUP4 SWAP2 PUSH2 0x31BB SWAP7 SWAP6 SWAP5 PUSH1 0x1 SWAP5 LT PUSH2 0x34BD JUMPI JUMPDEST POP POP DUP2 SHL ADD SWAP1 SSTORE PUSH2 0x31B4 JUMP JUMPDEST DUP11 ADD MLOAD PUSH0 NOT PUSH1 0xF8 DUP5 PUSH1 0x3 SHL AND SHR NOT AND SWAP1 SSTORE DUP10 DUP1 PUSH2 0x34B1 JUMP JUMPDEST PUSH1 0x1 DUP5 SWAP6 PUSH1 0x20 SWAP4 SWAP6 DUP5 SWAP4 ADD MLOAD DUP2 SSTORE ADD SWAP5 ADD SWAP3 ADD PUSH2 0x3495 JUMP JUMPDEST DUP3 PUSH0 MSTORE PUSH1 0x20 PUSH0 KECCAK256 PUSH1 0x1F DUP4 ADD PUSH1 0x5 SHR DUP2 ADD SWAP2 PUSH1 0x20 DUP5 LT PUSH2 0x3528 JUMPI JUMPDEST PUSH1 0x1F ADD PUSH1 0x5 SHR ADD SWAP1 JUMPDEST DUP2 DUP2 LT PUSH2 0x351D JUMPI POP PUSH2 0x3184 JUMP JUMPDEST PUSH0 DUP2 SSTORE PUSH1 0x1 ADD PUSH2 0x3510 JUMP JUMPDEST SWAP1 SWAP2 POP DUP2 SWAP1 PUSH2 0x3507 JUMP JUMPDEST CALLVALUE PUSH2 0x1D3 JUMPI PUSH1 0xA0 CALLDATASIZE PUSH1 0x3 NOT ADD SLT PUSH2 0x1D3 JUMPI PUSH1 0x4 CALLDATALOAD PUSH1 0x1 PUSH1 0x1 PUSH1 0x40 SHL SUB DUP2 GT PUSH2 0x1D3 JUMPI PUSH2 0x3562 SWAP1 CALLDATASIZE SWAP1 PUSH1 0x4 ADD PUSH2 0x3C63 JUMP JUMPDEST PUSH1 0x24 CALLDATALOAD PUSH1 0x1 PUSH1 0x1 PUSH1 0x40 SHL SUB DUP2 GT PUSH2 0x1D3 JUMPI PUSH2 0x3581 SWAP1 CALLDATASIZE SWAP1 PUSH1 0x4 ADD PUSH2 0x3C63 JUMP JUMPDEST PUSH1 0x44 CALLDATALOAD PUSH1 0x1 PUSH1 0x1 PUSH1 0x40 SHL SUB DUP2 GT PUSH2 0x1D3 JUMPI PUSH2 0x35A0 SWAP1 CALLDATASIZE SWAP1 PUSH1 0x4 ADD PUSH2 0x3C63 JUMP JUMPDEST SWAP1 PUSH1 0x64 CALLDATALOAD PUSH1 0x1 PUSH1 0x1 PUSH1 0x40 SHL SUB DUP2 GT PUSH2 0x1D3 JUMPI PUSH2 0x35DC SWAP3 PUSH2 0x35C7 PUSH2 0x35D5 SWAP3 CALLDATASIZE SWAP1 PUSH1 0x4 ADD PUSH2 0x3C63 JUMP JUMPDEST PUSH2 0x35CF PUSH2 0x3D1A JUMP JUMPDEST SWAP2 PUSH2 0x4378 JUMP JUMPDEST SWAP1 DUP4 PUSH2 0x47E1 JUMP JUMPDEST PUSH1 0x2 SLOAD PUSH1 0x20 DUP3 ADD PUSH0 JUMPDEST DUP3 DUP2 LT PUSH2 0x35EE JUMPI STOP JUMPDEST DUP1 PUSH2 0x35FA PUSH1 0x1 SWAP3 PUSH2 0x3E54 JUMP JUMPDEST POP PUSH1 0x40 MLOAD PUSH2 0x3610 DUP2 PUSH2 0x571 PUSH1 0x20 DUP3 ADD DUP1 SWAP6 PUSH2 0x42C0 JUMP JUMPDEST MLOAD SWAP1 KECCAK256 PUSH1 0x40 MLOAD PUSH1 0x20 DUP2 ADD SWAP1 PUSH2 0x363D PUSH1 0x20 DUP3 DUP11 MLOAD DUP1 DUP11 DUP8 MCOPY DUP2 ADD PUSH0 DUP4 DUP3 ADD MSTORE SUB ADD PUSH1 0x1F NOT DUP2 ADD DUP4 MSTORE DUP3 PUSH2 0x3C42 JUMP JUMPDEST MLOAD SWAP1 KECCAK256 EQ PUSH2 0x364C JUMPI JUMPDEST ADD PUSH2 0x35E5 JUMP JUMPDEST PUSH1 0x3 PUSH2 0x3657 DUP3 PUSH2 0x3E54 JUMP JUMPDEST POP ADD DUP1 SLOAD PUSH2 0xFF00 NOT AND PUSH2 0x200 OR SWAP1 SSTORE PUSH2 0x3646 JUMP JUMPDEST CALLVALUE PUSH2 0x1D3 JUMPI PUSH1 0x20 CALLDATASIZE PUSH1 0x3 NOT ADD SLT PUSH2 0x1D3 JUMPI PUSH1 0x4 CALLDATALOAD PUSH1 0x1 PUSH1 0x1 PUSH1 0x40 SHL SUB DUP2 GT PUSH2 0x1D3 JUMPI PUSH2 0x369E PUSH2 0x1D1 SWAP2 CALLDATASIZE SWAP1 PUSH1 0x4 ADD PUSH2 0x3C63 JUMP JUMPDEST PUSH2 0x434A JUMP JUMPDEST CALLVALUE PUSH2 0x1D3 JUMPI PUSH1 0x20 CALLDATASIZE PUSH1 0x3 NOT ADD SLT PUSH2 0x1D3 JUMPI PUSH1 0x4 CALLDATALOAD PUSH1 0x1 PUSH1 0x1 PUSH1 0x40 SHL SUB DUP2 GT PUSH2 0x1D3 JUMPI PUSH2 0x3070 PUSH1 0x8 PUSH1 0x20 DUP1 PUSH2 0x36DE PUSH2 0x39B SWAP6 CALLDATASIZE SWAP1 PUSH1 0x4 ADD PUSH2 0x3C63 JUMP JUMPDEST PUSH2 0x36E6 PUSH2 0x432A JUMP JUMPDEST POP PUSH1 0x40 MLOAD SWAP3 DUP2 DUP5 SWAP3 MLOAD SWAP2 DUP3 SWAP2 ADD DUP4 MCOPY DUP2 ADD PUSH0 DUP2 MSTORE SUB ADD SWAP1 KECCAK256 ADD PUSH2 0x3E08 JUMP JUMPDEST CALLVALUE PUSH2 0x1D3 JUMPI PUSH1 0x60 CALLDATASIZE PUSH1 0x3 NOT ADD SLT PUSH2 0x1D3 JUMPI PUSH1 0x4 CALLDATALOAD PUSH1 0x1 PUSH1 0x1 PUSH1 0x40 SHL SUB DUP2 GT PUSH2 0x1D3 JUMPI PUSH2 0x3734 SWAP1 CALLDATASIZE SWAP1 PUSH1 0x4 ADD PUSH2 0x3C63 JUMP JUMPDEST PUSH1 0x44 CALLDATALOAD SWAP1 PUSH1 0x1 PUSH1 0x1 PUSH1 0x40 SHL SUB DUP3 GT PUSH2 0x1D3 JUMPI PUSH1 0x60 PUSH1 0x3 NOT DUP4 CALLDATASIZE SUB ADD SLT PUSH2 0x1D3 JUMPI PUSH1 0x40 MLOAD SWAP2 PUSH2 0x3761 DUP4 PUSH2 0x3BB9 JUMP JUMPDEST DUP1 PUSH1 0x4 ADD CALLDATALOAD PUSH1 0x1 PUSH1 0x1 PUSH1 0x40 SHL SUB DUP2 GT PUSH2 0x1D3 JUMPI PUSH2 0x3784 SWAP1 PUSH1 0x4 CALLDATASIZE SWAP2 DUP5 ADD ADD PUSH2 0x3C63 JUMP JUMPDEST DUP4 MSTORE PUSH1 0x24 DUP2 ADD CALLDATALOAD PUSH1 0x1 PUSH1 0x1 PUSH1 0x40 SHL SUB DUP2 GT PUSH2 0x1D3 JUMPI PUSH2 0x37A9 SWAP1 PUSH1 0x4 CALLDATASIZE SWAP2 DUP5 ADD ADD PUSH2 0x3C63 JUMP JUMPDEST SWAP1 PUSH1 0x20 DUP5 ADD SWAP2 DUP3 MSTORE PUSH1 0x44 DUP2 ADD CALLDATALOAD SWAP1 PUSH1 0x1 PUSH1 0x1 PUSH1 0x40 SHL SUB DUP3 GT PUSH2 0x1D3 JUMPI PUSH1 0x4 PUSH2 0x37D4 SWAP3 CALLDATASIZE SWAP3 ADD ADD PUSH2 0x3C63 JUMP JUMPDEST SWAP3 PUSH1 0x40 DUP2 ADD SWAP4 DUP5 MSTORE PUSH2 0x37E8 PUSH1 0x24 CALLDATALOAD DUP5 PUSH2 0x4507 JUMP JUMPDEST PUSH1 0x40 MLOAD SWAP2 DUP4 MLOAD SWAP3 PUSH1 0x20 DUP2 DUP2 DUP8 ADD SWAP6 DUP1 DUP8 DUP4 MCOPY DUP2 ADD PUSH1 0x6 DUP2 MSTORE SUB ADD SWAP1 KECCAK256 SWAP2 MLOAD DUP1 MLOAD SWAP1 PUSH1 0x1 PUSH1 0x1 PUSH1 0x40 SHL SUB DUP3 GT PUSH2 0x327 JUMPI DUP2 SWAP1 PUSH2 0x3823 DUP6 SLOAD PUSH2 0x3D30 JUMP JUMPDEST PUSH1 0x1F DUP2 GT PUSH2 0x3B69 JUMPI JUMPDEST POP PUSH1 0x20 SWAP1 PUSH1 0x1F DUP4 GT PUSH1 0x1 EQ PUSH2 0x3B06 JUMPI PUSH0 SWAP3 PUSH2 0x3AFB JUMPI JUMPDEST POP POP DUP2 PUSH1 0x1 SHL SWAP2 PUSH0 NOT SWAP1 PUSH1 0x3 SHL SHR NOT AND OR DUP3 SSTORE JUMPDEST MLOAD DUP1 MLOAD PUSH1 0x1 DUP4 ADD SWAP2 PUSH1 0x1 PUSH1 0x1 PUSH1 0x40 SHL SUB DUP3 GT PUSH2 0x327 JUMPI PUSH2 0x3876 DUP4 SLOAD PUSH2 0x3D30 JUMP JUMPDEST PUSH1 0x1F DUP2 GT PUSH2 0x3AB6 JUMPI JUMPDEST POP PUSH1 0x20 SWAP1 PUSH1 0x1F DUP4 GT PUSH1 0x1 EQ PUSH2 0x3A4F JUMPI PUSH1 0x2 SWAP5 SWAP4 SWAP3 SWAP2 PUSH0 SWAP2 DUP4 PUSH2 0x3A44 JUMPI JUMPDEST POP POP DUP2 PUSH1 0x1 SHL SWAP2 PUSH0 NOT SWAP1 PUSH1 0x3 SHL SHR NOT AND OR SWAP1 SSTORE JUMPDEST ADD SWAP3 MLOAD SWAP3 DUP4 MLOAD PUSH1 0x1 PUSH1 0x1 PUSH1 0x40 SHL SUB DUP2 GT PUSH2 0x327 JUMPI PUSH2 0x38CE DUP3 SLOAD PUSH2 0x3D30 JUMP JUMPDEST PUSH1 0x1F DUP2 GT PUSH2 0x39FF JUMPI JUMPDEST POP PUSH1 0x20 SWAP5 PUSH1 0x1F DUP3 GT PUSH1 0x1 EQ PUSH2 0x399E JUMPI SWAP5 DUP2 SWAP3 SWAP4 SWAP5 SWAP6 PUSH0 SWAP3 PUSH2 0x3993 JUMPI JUMPDEST POP POP DUP2 PUSH1 0x1 SHL SWAP2 PUSH0 NOT SWAP1 PUSH1 0x3 SHL SHR NOT AND OR SWAP1 SSTORE JUMPDEST PUSH1 0x2 SLOAD SWAP1 PUSH0 JUMPDEST DUP3 DUP2 LT PUSH2 0x3916 JUMPI STOP JUMPDEST DUP1 PUSH2 0x3922 PUSH1 0x1 SWAP3 PUSH2 0x3E54 JUMP JUMPDEST POP PUSH1 0x40 MLOAD PUSH2 0x3938 DUP2 PUSH2 0x571 PUSH1 0x20 DUP3 ADD DUP1 SWAP6 PUSH2 0x42C0 JUMP JUMPDEST MLOAD SWAP1 KECCAK256 PUSH1 0x40 MLOAD PUSH1 0x20 DUP2 ADD SWAP1 PUSH2 0x3965 PUSH1 0x20 DUP3 DUP11 MLOAD DUP1 DUP11 DUP8 MCOPY DUP2 ADD PUSH0 DUP4 DUP3 ADD MSTORE SUB ADD PUSH1 0x1F NOT DUP2 ADD DUP4 MSTORE DUP3 PUSH2 0x3C42 JUMP JUMPDEST MLOAD SWAP1 KECCAK256 EQ PUSH2 0x3974 JUMPI JUMPDEST ADD PUSH2 0x390D JUMP JUMPDEST PUSH1 0x3 PUSH2 0x397F DUP3 PUSH2 0x3E54 JUMP JUMPDEST POP ADD DUP1 SLOAD PUSH2 0xFF00 NOT AND PUSH2 0x500 OR SWAP1 SSTORE PUSH2 0x396E JUMP JUMPDEST ADD MLOAD SWAP1 POP DUP6 DUP1 PUSH2 0x38F3 JUMP JUMPDEST PUSH1 0x1F NOT DUP3 AND SWAP6 DUP4 PUSH0 MSTORE DUP1 PUSH0 KECCAK256 SWAP2 PUSH0 JUMPDEST DUP9 DUP2 LT PUSH2 0x39E7 JUMPI POP DUP4 PUSH1 0x1 SWAP6 SWAP7 SWAP8 SWAP9 LT PUSH2 0x39CF JUMPI JUMPDEST POP POP POP DUP2 SHL ADD SWAP1 SSTORE PUSH2 0x3907 JUMP JUMPDEST ADD MLOAD PUSH0 NOT PUSH1 0xF8 DUP5 PUSH1 0x3 SHL AND SHR NOT AND SWAP1 SSTORE DUP6 DUP1 DUP1 PUSH2 0x39C2 JUMP JUMPDEST SWAP2 SWAP3 PUSH1 0x20 PUSH1 0x1 DUP2 SWAP3 DUP7 DUP6 ADD MLOAD DUP2 SSTORE ADD SWAP5 ADD SWAP3 ADD PUSH2 0x39AD JUMP JUMPDEST DUP3 PUSH0 MSTORE PUSH1 0x20 PUSH0 KECCAK256 PUSH1 0x1F DUP4 ADD PUSH1 0x5 SHR DUP2 ADD SWAP2 PUSH1 0x20 DUP5 LT PUSH2 0x3A3A JUMPI JUMPDEST PUSH1 0x1F ADD PUSH1 0x5 SHR ADD SWAP1 JUMPDEST DUP2 DUP2 LT PUSH2 0x3A2F JUMPI POP PUSH2 0x38D7 JUMP JUMPDEST PUSH0 DUP2 SSTORE PUSH1 0x1 ADD PUSH2 0x3A22 JUMP JUMPDEST SWAP1 SWAP2 POP DUP2 SWAP1 PUSH2 0x3A19 JUMP JUMPDEST ADD MLOAD SWAP1 POP DUP9 DUP1 PUSH2 0x389C JUMP JUMPDEST SWAP1 PUSH1 0x1F NOT DUP4 AND SWAP2 DUP5 PUSH0 MSTORE DUP2 PUSH0 KECCAK256 SWAP3 PUSH0 JUMPDEST DUP2 DUP2 LT PUSH2 0x3A9E JUMPI POP SWAP2 PUSH1 0x1 SWAP4 SWAP2 DUP6 PUSH1 0x2 SWAP9 SWAP8 SWAP7 SWAP5 LT PUSH2 0x3A86 JUMPI JUMPDEST POP POP POP DUP2 SHL ADD SWAP1 SSTORE PUSH2 0x38B0 JUMP JUMPDEST ADD MLOAD PUSH0 NOT PUSH1 0xF8 DUP5 PUSH1 0x3 SHL AND SHR NOT AND SWAP1 SSTORE DUP9 DUP1 DUP1 PUSH2 0x3A79 JUMP JUMPDEST SWAP3 SWAP4 PUSH1 0x20 PUSH1 0x1 DUP2 SWAP3 DUP8 DUP7 ADD MLOAD DUP2 SSTORE ADD SWAP6 ADD SWAP4 ADD PUSH2 0x3A5F JUMP JUMPDEST DUP4 PUSH0 MSTORE PUSH1 0x20 PUSH0 KECCAK256 PUSH1 0x1F DUP5 ADD PUSH1 0x5 SHR DUP2 ADD SWAP2 PUSH1 0x20 DUP6 LT PUSH2 0x3AF1 JUMPI JUMPDEST PUSH1 0x1F ADD PUSH1 0x5 SHR ADD SWAP1 JUMPDEST DUP2 DUP2 LT PUSH2 0x3AE6 JUMPI POP PUSH2 0x387F JUMP JUMPDEST PUSH0 DUP2 SSTORE PUSH1 0x1 ADD PUSH2 0x3AD9 JUMP JUMPDEST SWAP1 SWAP2 POP DUP2 SWAP1 PUSH2 0x3AD0 JUMP JUMPDEST ADD MLOAD SWAP1 POP DUP8 DUP1 PUSH2 0x3842 JUMP JUMPDEST PUSH0 DUP7 DUP2 MSTORE DUP3 DUP2 KECCAK256 SWAP4 POP PUSH1 0x1F NOT DUP6 AND SWAP1 JUMPDEST DUP2 DUP2 LT PUSH2 0x3B51 JUMPI POP SWAP1 DUP5 PUSH1 0x1 SWAP6 SWAP5 SWAP4 SWAP3 LT PUSH2 0x3B39 JUMPI JUMPDEST POP POP POP DUP2 SHL ADD DUP3 SSTORE PUSH2 0x3856 JUMP JUMPDEST ADD MLOAD PUSH0 NOT PUSH1 0xF8 DUP5 PUSH1 0x3 SHL AND SHR NOT AND SWAP1 SSTORE DUP8 DUP1 DUP1 PUSH2 0x3B2C JUMP JUMPDEST SWAP3 SWAP4 PUSH1 0x20 PUSH1 0x1 DUP2 SWAP3 DUP8 DUP7 ADD MLOAD DUP2 SSTORE ADD SWAP6 ADD SWAP4 ADD PUSH2 0x3B16 JUMP JUMPDEST SWAP1 SWAP2 POP DUP5 PUSH0 MSTORE PUSH1 0x20 PUSH0 KECCAK256 PUSH1 0x1F DUP5 ADD PUSH1 0x5 SHR DUP2 ADD SWAP2 PUSH1 0x20 DUP6 LT PUSH2 0x3BAF JUMPI JUMPDEST SWAP1 PUSH1 0x1F DUP6 SWAP5 SWAP4 SWAP3 ADD PUSH1 0x5 SHR ADD SWAP1 JUMPDEST DUP2 DUP2 LT PUSH2 0x3BA1 JUMPI POP PUSH2 0x382C JUMP JUMPDEST PUSH0 DUP2 SSTORE DUP5 SWAP4 POP PUSH1 0x1 ADD PUSH2 0x3B94 JUMP JUMPDEST SWAP1 SWAP2 POP DUP2 SWAP1 PUSH2 0x3B86 JUMP JUMPDEST PUSH1 0x60 DUP2 ADD SWAP1 DUP2 LT PUSH1 0x1 PUSH1 0x1 PUSH1 0x40 SHL SUB DUP3 GT OR PUSH2 0x327 JUMPI PUSH1 0x40 MSTORE JUMP JUMPDEST PUSH1 0xE0 DUP2 ADD SWAP1 DUP2 LT PUSH1 0x1 PUSH1 0x1 PUSH1 0x40 SHL SUB DUP3 GT OR PUSH2 0x327 JUMPI PUSH1 0x40 MSTORE JUMP JUMPDEST PUSH1 0x40 DUP2 ADD SWAP1 DUP2 LT PUSH1 0x1 PUSH1 0x1 PUSH1 0x40 SHL SUB DUP3 GT OR PUSH2 0x327 JUMPI PUSH1 0x40 MSTORE JUMP JUMPDEST PUSH2 0x100 DUP2 ADD SWAP1 DUP2 LT PUSH1 0x1 PUSH1 0x1 PUSH1 0x40 SHL SUB DUP3 GT OR PUSH2 0x327 JUMPI PUSH1 0x40 MSTORE JUMP JUMPDEST PUSH2 0x160 DUP2 ADD SWAP1 DUP2 LT PUSH1 0x1 PUSH1 0x1 PUSH1 0x40 SHL SUB DUP3 GT OR PUSH2 0x327 JUMPI PUSH1 0x40 MSTORE JUMP JUMPDEST SWAP1 PUSH1 0x1F DUP1 NOT SWAP2 ADD AND DUP2 ADD SWAP1 DUP2 LT PUSH1 0x1 PUSH1 0x1 PUSH1 0x40 SHL SUB DUP3 GT OR PUSH2 0x327 JUMPI PUSH1 0x40 MSTORE JUMP JUMPDEST DUP2 PUSH1 0x1F DUP3 ADD SLT ISZERO PUSH2 0x1D3 JUMPI DUP1 CALLDATALOAD SWAP1 PUSH1 0x1 PUSH1 0x1 PUSH1 0x40 SHL SUB DUP3 GT PUSH2 0x327 JUMPI PUSH1 0x40 MLOAD SWAP3 PUSH2 0x3C97 PUSH1 0x1F DUP5 ADD PUSH1 0x1F NOT AND PUSH1 0x20 ADD DUP6 PUSH2 0x3C42 JUMP JUMPDEST DUP3 DUP5 MSTORE PUSH1 0x20 DUP4 DUP4 ADD ADD GT PUSH2 0x1D3 JUMPI DUP2 PUSH0 SWAP3 PUSH1 0x20 DUP1 SWAP4 ADD DUP4 DUP7 ADD CALLDATACOPY DUP4 ADD ADD MSTORE SWAP1 JUMP JUMPDEST DUP1 MLOAD DUP1 DUP4 MSTORE PUSH1 0x20 SWAP3 SWAP2 DUP2 SWAP1 DUP5 ADD DUP5 DUP5 ADD MCOPY PUSH0 DUP3 DUP3 ADD DUP5 ADD MSTORE PUSH1 0x1F ADD PUSH1 0x1F NOT AND ADD ADD SWAP1 JUMP JUMPDEST SWAP1 PUSH1 0x40 PUSH2 0x3D07 PUSH2 0x3CF5 DUP5 MLOAD PUSH1 0x60 DUP6 MSTORE PUSH1 0x60 DUP6 ADD SWAP1 PUSH2 0x3CB8 JUMP JUMPDEST PUSH1 0x20 DUP6 ADD MLOAD DUP5 DUP3 SUB PUSH1 0x20 DUP7 ADD MSTORE PUSH2 0x3CB8 JUMP JUMPDEST SWAP3 DUP2 ADD MLOAD PUSH1 0x1 PUSH1 0x1 PUSH1 0xA0 SHL SUB AND SWAP2 ADD MSTORE SWAP1 JUMP JUMPDEST PUSH1 0x84 CALLDATALOAD SWAP1 PUSH1 0x1 PUSH1 0x1 PUSH1 0xA0 SHL SUB DUP3 AND DUP3 SUB PUSH2 0x1D3 JUMPI JUMP JUMPDEST SWAP1 PUSH1 0x1 DUP3 DUP2 SHR SWAP3 AND DUP1 ISZERO PUSH2 0x3D5E JUMPI JUMPDEST PUSH1 0x20 DUP4 LT EQ PUSH2 0x3D4A JUMPI JUMP JUMPDEST PUSH4 0x4E487B71 PUSH1 0xE0 SHL PUSH0 MSTORE PUSH1 0x22 PUSH1 0x4 MSTORE PUSH1 0x24 PUSH0 REVERT JUMPDEST SWAP2 PUSH1 0x7F AND SWAP2 PUSH2 0x3D3F JUMP JUMPDEST SWAP1 PUSH1 0x40 MLOAD SWAP2 DUP3 PUSH0 DUP3 SLOAD SWAP3 PUSH2 0x3D7B DUP5 PUSH2 0x3D30 JUMP JUMPDEST DUP1 DUP5 MSTORE SWAP4 PUSH1 0x1 DUP2 AND SWAP1 DUP2 ISZERO PUSH2 0x3DE6 JUMPI POP PUSH1 0x1 EQ PUSH2 0x3DA2 JUMPI JUMPDEST POP PUSH2 0x3DA0 SWAP3 POP SUB DUP4 PUSH2 0x3C42 JUMP JUMPDEST JUMP JUMPDEST SWAP1 POP PUSH0 SWAP3 SWAP2 SWAP3 MSTORE PUSH1 0x20 PUSH0 KECCAK256 SWAP1 PUSH0 SWAP2 JUMPDEST DUP2 DUP4 LT PUSH2 0x3DCA JUMPI POP POP SWAP1 PUSH1 0x20 PUSH2 0x3DA0 SWAP3 DUP3 ADD ADD PUSH0 PUSH2 0x3D93 JUMP JUMPDEST PUSH1 0x20 SWAP2 SWAP4 POP DUP1 PUSH1 0x1 SWAP2 SLOAD DUP4 DUP6 DUP10 ADD ADD MSTORE ADD SWAP2 ADD SWAP1 SWAP2 DUP5 SWAP3 PUSH2 0x3DB1 JUMP JUMPDEST SWAP1 POP PUSH1 0x20 SWAP3 POP PUSH2 0x3DA0 SWAP5 SWAP2 POP PUSH1 0xFF NOT AND DUP3 DUP5 ADD MSTORE ISZERO ISZERO PUSH1 0x5 SHL DUP3 ADD ADD PUSH0 PUSH2 0x3D93 JUMP JUMPDEST SWAP1 PUSH1 0x40 MLOAD PUSH2 0x3E15 DUP2 PUSH2 0x3BB9 JUMP JUMPDEST PUSH1 0x40 DUP2 SWAP4 PUSH2 0x3E22 DUP2 PUSH2 0x3D68 JUMP JUMPDEST DUP4 MSTORE PUSH2 0x3E30 PUSH1 0x1 DUP3 ADD PUSH2 0x3D68 JUMP JUMPDEST PUSH1 0x20 DUP5 ADD MSTORE PUSH1 0x2 ADD SLOAD PUSH1 0x1 PUSH1 0x1 PUSH1 0xA0 SHL SUB AND SWAP2 ADD MSTORE JUMP JUMPDEST SWAP1 PUSH1 0x7 DUP3 LT ISZERO PUSH2 0x2867 JUMPI MSTORE JUMP JUMPDEST PUSH1 0x2 SLOAD DUP2 LT ISZERO PUSH2 0x3E70 JUMPI PUSH1 0x2 PUSH0 MSTORE PUSH1 0x6 PUSH1 0x20 PUSH0 KECCAK256 SWAP2 MUL ADD SWAP1 PUSH0 SWAP1 JUMP JUMPDEST PUSH4 0x4E487B71 PUSH1 0xE0 SHL PUSH0 MSTORE PUSH1 0x32 PUSH1 0x4 MSTORE PUSH1 0x24 PUSH0 REVERT JUMPDEST SWAP2 SWAP1 PUSH1 0x40 DUP4 DUP3 SUB SLT PUSH2 0x1D3 JUMPI PUSH1 0x40 MLOAD SWAP1 PUSH2 0x3E9D DUP3 PUSH2 0x3BEF JUMP JUMPDEST DUP2 SWAP4 DUP1 CALLDATALOAD PUSH1 0x1 PUSH1 0x1 PUSH1 0x40 SHL SUB DUP2 GT PUSH2 0x1D3 JUMPI DUP3 PUSH2 0x3EBB SWAP2 DUP4 ADD PUSH2 0x3C63 JUMP JUMPDEST DUP4 MSTORE PUSH1 0x20 DUP2 ADD CALLDATALOAD SWAP2 PUSH1 0x1 PUSH1 0x1 PUSH1 0x40 SHL SUB DUP4 GT PUSH2 0x1D3 JUMPI PUSH1 0x20 SWAP3 PUSH2 0x3EDE SWAP3 ADD PUSH2 0x3C63 JUMP JUMPDEST SWAP2 ADD MSTORE JUMP JUMPDEST SWAP2 SWAP1 PUSH2 0x100 DUP4 DUP3 SUB SLT PUSH2 0x1D3 JUMPI PUSH1 0x40 MLOAD SWAP1 PUSH2 0x3EFD DUP3 PUSH2 0x3C0A JUMP JUMPDEST DUP2 SWAP4 DUP1 CALLDATALOAD PUSH1 0x1 PUSH1 0x1 PUSH1 0x40 SHL SUB DUP2 GT PUSH2 0x1D3 JUMPI DUP3 PUSH2 0x3F1B SWAP2 DUP4 ADD PUSH2 0x3C63 JUMP JUMPDEST DUP4 MSTORE PUSH1 0x20 DUP2 ADD CALLDATALOAD PUSH1 0x1 PUSH1 0x1 PUSH1 0x40 SHL SUB DUP2 GT PUSH2 0x1D3 JUMPI DUP3 PUSH2 0x3F3C SWAP2 DUP4 ADD PUSH2 0x3C63 JUMP JUMPDEST PUSH1 0x20 DUP5 ADD MSTORE PUSH1 0x40 DUP2 ADD CALLDATALOAD PUSH1 0x1 PUSH1 0x1 PUSH1 0x40 SHL SUB DUP2 GT PUSH2 0x1D3 JUMPI DUP3 PUSH2 0x3F60 SWAP2 DUP4 ADD PUSH2 0x3C63 JUMP JUMPDEST PUSH1 0x40 DUP5 ADD MSTORE PUSH1 0x60 DUP2 ADD CALLDATALOAD PUSH1 0x1 PUSH1 0x1 PUSH1 0x40 SHL SUB DUP2 GT PUSH2 0x1D3 JUMPI DUP3 PUSH2 0x3F84 SWAP2 DUP4 ADD PUSH2 0x3C63 JUMP JUMPDEST PUSH1 0x60 DUP5 ADD MSTORE PUSH1 0x80 DUP2 ADD CALLDATALOAD PUSH1 0x1 PUSH1 0x1 PUSH1 0x40 SHL SUB DUP2 GT PUSH2 0x1D3 JUMPI DUP3 PUSH2 0x3FA8 SWAP2 DUP4 ADD PUSH2 0x3C63 JUMP JUMPDEST PUSH1 0x80 DUP5 ADD MSTORE PUSH1 0xA0 DUP2 ADD CALLDATALOAD PUSH1 0x1 PUSH1 0x1 PUSH1 0x40 SHL SUB DUP2 GT PUSH2 0x1D3 JUMPI DUP3 PUSH2 0x3FCC SWAP2 DUP4 ADD PUSH2 0x3C63 JUMP JUMPDEST PUSH1 0xA0 DUP5 ADD MSTORE PUSH1 0xC0 DUP2 ADD CALLDATALOAD PUSH1 0x1 PUSH1 0x1 PUSH1 0x40 SHL SUB DUP2 GT PUSH2 0x1D3 JUMPI DUP3 PUSH2 0x3FF0 SWAP2 DUP4 ADD PUSH2 0x3C63 JUMP JUMPDEST PUSH1 0xC0 DUP5 ADD MSTORE PUSH1 0xE0 DUP2 ADD CALLDATALOAD SWAP2 PUSH1 0x1 PUSH1 0x1 PUSH1 0x40 SHL SUB DUP4 GT PUSH2 0x1D3 JUMPI PUSH1 0xE0 SWAP3 PUSH2 0x3EDE SWAP3 ADD PUSH2 0x3C63 JUMP JUMPDEST PUSH1 0x20 DUP2 ADD PUSH1 0x20 DUP3 MSTORE DUP3 MLOAD DUP1 SWAP2 MSTORE PUSH1 0x40 DUP3 ADD SWAP2 PUSH1 0x20 PUSH1 0x40 DUP4 PUSH1 0x5 SHL DUP4 ADD ADD SWAP5 ADD SWAP3 PUSH0 SWAP2 JUMPDEST DUP4 DUP4 LT PUSH2 0x4048 JUMPI POP POP POP POP POP SWAP1 JUMP JUMPDEST SWAP1 SWAP2 SWAP3 SWAP4 SWAP5 PUSH1 0x20 DUP1 PUSH1 0x1 SWAP3 PUSH1 0x3F NOT DUP6 DUP3 SUB ADD DUP7 MSTORE DUP9 MLOAD SWAP1 PUSH1 0xC0 DUP1 PUSH2 0x40D1 PUSH2 0x40A0 PUSH2 0x408E PUSH2 0x407E DUP8 MLOAD PUSH1 0xE0 DUP9 MSTORE PUSH1 0xE0 DUP9 ADD SWAP1 PUSH2 0x3CB8 JUMP JUMPDEST DUP9 DUP9 ADD MLOAD DUP8 DUP3 SUB DUP11 DUP10 ADD MSTORE PUSH2 0x3CB8 JUMP JUMPDEST PUSH1 0x40 DUP8 ADD MLOAD DUP7 DUP3 SUB PUSH1 0x40 DUP9 ADD MSTORE PUSH2 0x3CB8 JUMP JUMPDEST PUSH1 0xFF PUSH1 0x60 DUP8 ADD MLOAD AND PUSH1 0x60 DUP7 ADD MSTORE PUSH2 0x40BF PUSH1 0x80 DUP8 ADD MLOAD PUSH1 0x80 DUP8 ADD SWAP1 PUSH2 0x3E47 JUMP JUMPDEST PUSH1 0xA0 DUP7 ADD MLOAD DUP6 DUP3 SUB PUSH1 0xA0 DUP8 ADD MSTORE PUSH2 0x3CB8 JUMP JUMPDEST SWAP4 ADD MLOAD SWAP2 ADD MSTORE SWAP8 ADD SWAP4 ADD SWAP4 ADD SWAP2 SWAP4 SWAP3 SWAP1 PUSH2 0x4039 JUMP JUMPDEST SWAP1 PUSH2 0x4193 SWAP2 PUSH1 0x20 DUP2 MSTORE PUSH2 0x40FD PUSH1 0x20 DUP3 ADD DUP4 MLOAD PUSH2 0x3E47 JUMP JUMPDEST PUSH1 0x20 DUP3 ADD MLOAD PUSH1 0x40 DUP3 ADD MSTORE PUSH1 0x40 DUP3 ADD MLOAD PUSH1 0x60 DUP3 ADD MSTORE PUSH1 0x60 DUP3 ADD MLOAD PUSH1 0x80 DUP3 ADD MSTORE PUSH1 0x80 DUP3 ADD MLOAD PUSH1 0xA0 DUP3 ADD MSTORE PUSH1 0xA0 DUP3 ADD MLOAD PUSH1 0xC0 DUP3 ADD MSTORE PUSH1 0xC0 DUP3 ADD MLOAD PUSH1 0xE0 DUP3 ADD MSTORE PUSH1 0xE0 DUP3 ADD MLOAD PUSH2 0x100 DUP3 ADD MSTORE PUSH2 0x140 PUSH2 0x417D PUSH2 0x4167 PUSH2 0x100 DUP6 ADD MLOAD PUSH2 0x160 PUSH2 0x120 DUP7 ADD MSTORE PUSH2 0x180 DUP6 ADD SWAP1 PUSH2 0x3CDC JUMP JUMPDEST PUSH2 0x120 DUP6 ADD MLOAD DUP5 DUP3 SUB PUSH1 0x1F NOT ADD DUP5 DUP7 ADD MSTORE PUSH2 0x3CDC JUMP JUMPDEST SWAP3 ADD MLOAD SWAP1 PUSH2 0x160 PUSH1 0x1F NOT DUP3 DUP6 SUB ADD SWAP2 ADD MSTORE PUSH2 0x3CB8 JUMP JUMPDEST SWAP1 JUMP JUMPDEST SWAP1 PUSH1 0x40 PUSH1 0x3 NOT DUP4 ADD SLT PUSH2 0x1D3 JUMPI PUSH1 0x4 CALLDATALOAD PUSH1 0x1 PUSH1 0x1 PUSH1 0x40 SHL SUB DUP2 GT PUSH2 0x1D3 JUMPI DUP3 PUSH2 0x41C1 SWAP2 PUSH1 0x4 ADD PUSH2 0x3C63 JUMP JUMPDEST SWAP2 PUSH1 0x24 CALLDATALOAD SWAP1 PUSH1 0x1 PUSH1 0x1 PUSH1 0x40 SHL SUB DUP3 GT PUSH2 0x1D3 JUMPI PUSH2 0x4193 SWAP2 PUSH1 0x4 ADD PUSH2 0x3C63 JUMP JUMPDEST SWAP2 SWAP1 PUSH1 0x60 DUP4 DUP3 SUB SLT PUSH2 0x1D3 JUMPI PUSH1 0x40 MLOAD SWAP1 PUSH2 0x41F9 DUP3 PUSH2 0x3BB9 JUMP JUMPDEST DUP2 SWAP4 DUP1 CALLDATALOAD PUSH1 0x1 PUSH1 0x1 PUSH1 0x40 SHL SUB DUP2 GT PUSH2 0x1D3 JUMPI DUP3 PUSH2 0x4217 SWAP2 DUP4 ADD PUSH2 0x3C63 JUMP JUMPDEST DUP4 MSTORE PUSH1 0x20 DUP2 ADD CALLDATALOAD PUSH1 0x1 PUSH1 0x1 PUSH1 0x40 SHL SUB DUP2 GT PUSH2 0x1D3 JUMPI PUSH1 0x40 SWAP3 PUSH2 0x423A SWAP2 DUP4 ADD PUSH2 0x3C63 JUMP JUMPDEST PUSH1 0x20 DUP5 ADD MSTORE ADD CALLDATALOAD SWAP1 PUSH1 0x1 PUSH1 0x1 PUSH1 0xA0 SHL SUB DUP3 AND DUP3 SUB PUSH2 0x1D3 JUMPI PUSH1 0x40 ADD MSTORE JUMP JUMPDEST PUSH1 0x60 PUSH1 0x3 NOT DUP3 ADD SLT PUSH2 0x1D3 JUMPI PUSH1 0x4 CALLDATALOAD PUSH1 0x1 PUSH1 0x1 PUSH1 0x40 SHL SUB DUP2 GT PUSH2 0x1D3 JUMPI DUP2 PUSH2 0x4282 SWAP2 PUSH1 0x4 ADD PUSH2 0x3C63 JUMP JUMPDEST SWAP2 PUSH1 0x24 CALLDATALOAD PUSH1 0x1 PUSH1 0x1 PUSH1 0x40 SHL SUB DUP2 GT PUSH2 0x1D3 JUMPI DUP3 PUSH2 0x42A1 SWAP2 PUSH1 0x4 ADD PUSH2 0x3C63 JUMP JUMPDEST SWAP2 PUSH1 0x44 CALLDATALOAD SWAP1 PUSH1 0x1 PUSH1 0x1 PUSH1 0x40 SHL SUB DUP3 GT PUSH2 0x1D3 JUMPI PUSH2 0x4193 SWAP2 PUSH1 0x4 ADD PUSH2 0x41E0 JUMP JUMPDEST PUSH0 SWAP3 SWAP2 DUP2 SLOAD SWAP2 PUSH2 0x42CF DUP4 PUSH2 0x3D30 JUMP JUMPDEST SWAP3 PUSH1 0x1 DUP2 AND SWAP1 DUP2 ISZERO PUSH2 0x4317 JUMPI POP PUSH1 0x1 EQ PUSH2 0x42E8 JUMPI POP POP POP JUMP JUMPDEST SWAP1 SWAP2 SWAP3 SWAP4 POP PUSH0 MSTORE PUSH1 0x20 PUSH0 KECCAK256 PUSH0 SWAP1 JUMPDEST DUP4 DUP3 LT PUSH2 0x4303 JUMPI POP POP ADD SWAP1 JUMP JUMPDEST PUSH1 0x1 DUP2 PUSH1 0x20 SWAP3 SLOAD DUP5 DUP7 ADD MSTORE ADD SWAP2 ADD SWAP1 PUSH2 0x42F6 JUMP JUMPDEST PUSH1 0xFF NOT AND DUP4 MSTORE POP POP DUP2 ISZERO ISZERO SWAP1 SWAP2 MUL ADD SWAP2 POP JUMP JUMPDEST PUSH1 0x40 MLOAD SWAP1 PUSH2 0x4337 DUP3 PUSH2 0x3BB9 JUMP JUMPDEST PUSH0 PUSH1 0x40 DUP4 PUSH1 0x60 DUP2 MSTORE PUSH1 0x60 PUSH1 0x20 DUP3 ADD MSTORE ADD MSTORE JUMP JUMPDEST PUSH1 0x20 DUP1 SWAP2 PUSH1 0x40 MLOAD SWAP3 DUP2 DUP5 SWAP3 MLOAD SWAP2 DUP3 SWAP2 ADD DUP4 MCOPY DUP2 ADD PUSH0 DUP2 MSTORE SUB ADD SWAP1 KECCAK256 TIMESTAMP PUSH1 0x4 DUP3 ADD SSTORE PUSH1 0x3 PUSH1 0xFF NOT DUP3 SLOAD AND OR SWAP1 SSTORE JUMP JUMPDEST SWAP2 SWAP1 PUSH2 0x4382 PUSH2 0x432A JUMP JUMPDEST POP PUSH1 0x40 MLOAD SWAP3 PUSH2 0x4390 DUP5 PUSH2 0x3BB9 JUMP JUMPDEST DUP4 MSTORE PUSH1 0x20 DUP4 ADD MSTORE PUSH1 0x1 PUSH1 0x1 PUSH1 0xA0 SHL SUB AND PUSH1 0x40 DUP3 ADD MSTORE SWAP1 JUMP JUMPDEST PUSH1 0x7 DUP3 LT ISZERO PUSH2 0x2867 JUMPI MSTORE JUMP JUMPDEST PUSH1 0x40 MLOAD DUP2 MLOAD PUSH2 0x4193 SWAP3 PUSH1 0x20 SWAP2 DUP4 SWAP2 DUP2 SWAP1 DUP5 ADD DUP4 MCOPY DUP2 ADD PUSH1 0x1 DUP2 MSTORE SUB ADD SWAP1 KECCAK256 PUSH2 0x3D68 JUMP JUMPDEST PUSH1 0xFF AND PUSH1 0xFF DUP2 EQ PUSH2 0x33B JUMPI PUSH1 0x1 ADD SWAP1 JUMP JUMPDEST PUSH1 0x1 PUSH1 0x1 PUSH1 0x40 SHL SUB DUP2 GT PUSH2 0x327 JUMPI PUSH1 0x5 SHL PUSH1 0x20 ADD SWAP1 JUMP JUMPDEST SWAP1 PUSH2 0x4409 DUP3 PUSH2 0x43E8 JUMP JUMPDEST PUSH2 0x4416 PUSH1 0x40 MLOAD SWAP2 DUP3 PUSH2 0x3C42 JUMP JUMPDEST DUP3 DUP2 MSTORE DUP1 SWAP3 PUSH2 0x4427 PUSH1 0x1F NOT SWAP2 PUSH2 0x43E8 JUMP JUMPDEST ADD SWAP1 PUSH0 JUMPDEST DUP3 DUP2 LT PUSH2 0x4437 JUMPI POP POP POP JUMP JUMPDEST PUSH1 0x20 SWAP1 PUSH1 0x40 MLOAD PUSH2 0x4446 DUP2 PUSH2 0x3BD4 JUMP JUMPDEST PUSH1 0x60 DUP2 MSTORE PUSH1 0x60 DUP4 DUP3 ADD MSTORE PUSH1 0x60 PUSH1 0x40 DUP3 ADD MSTORE PUSH0 PUSH1 0x60 DUP3 ADD MSTORE PUSH0 PUSH1 0x80 DUP3 ADD MSTORE PUSH1 0x60 PUSH1 0xA0 DUP3 ADD MSTORE PUSH0 PUSH1 0xC0 DUP3 ADD MSTORE DUP3 DUP3 DUP6 ADD ADD MSTORE ADD PUSH2 0x442B JUMP JUMPDEST DUP1 MLOAD DUP3 LT ISZERO PUSH2 0x3E70 JUMPI PUSH1 0x20 SWAP2 PUSH1 0x5 SHL ADD ADD SWAP1 JUMP JUMPDEST SWAP1 PUSH1 0x40 MLOAD PUSH2 0x449D DUP2 PUSH2 0x3BD4 JUMP JUMPDEST PUSH1 0xC0 PUSH1 0x5 DUP3 SWAP5 PUSH2 0x44AC DUP2 PUSH2 0x3D68 JUMP JUMPDEST DUP5 MSTORE PUSH2 0x44BA PUSH1 0x1 DUP3 ADD PUSH2 0x3D68 JUMP JUMPDEST PUSH1 0x20 DUP6 ADD MSTORE PUSH2 0x44CB PUSH1 0x2 DUP3 ADD PUSH2 0x3D68 JUMP JUMPDEST PUSH1 0x40 DUP6 ADD MSTORE PUSH2 0x44EF PUSH1 0xFF PUSH1 0x3 DUP4 ADD SLOAD DUP2 DUP2 AND PUSH1 0x60 DUP9 ADD MSTORE PUSH1 0x8 SHR AND PUSH1 0x80 DUP7 ADD PUSH2 0x43A8 JUMP JUMPDEST PUSH2 0x44FB PUSH1 0x4 DUP3 ADD PUSH2 0x3D68 JUMP JUMPDEST PUSH1 0xA0 DUP6 ADD MSTORE ADD SLOAD SWAP2 ADD MSTORE JUMP JUMPDEST SWAP1 TIMESTAMP GT ISZERO PUSH2 0x453D JUMPI PUSH1 0x20 DUP1 SWAP2 PUSH1 0x40 MLOAD SWAP3 DUP2 DUP5 SWAP3 MLOAD SWAP2 DUP3 SWAP2 ADD DUP4 MCOPY DUP2 ADD PUSH0 DUP2 MSTORE SUB ADD SWAP1 KECCAK256 TIMESTAMP PUSH1 0x6 DUP3 ADD SSTORE PUSH1 0x5 PUSH1 0xFF NOT DUP3 SLOAD AND OR SWAP1 SSTORE JUMP JUMPDEST PUSH1 0x40 MLOAD PUSH3 0x461BCD PUSH1 0xE5 SHL DUP2 MSTORE PUSH1 0x20 PUSH1 0x4 DUP3 ADD MSTORE PUSH1 0x18 PUSH1 0x24 DUP3 ADD MSTORE PUSH32 0x536572746966696B6174206D61736968206265726C616B750000000000000000 PUSH1 0x44 DUP3 ADD MSTORE PUSH1 0x64 SWAP1 REVERT JUMPDEST PUSH1 0x40 MLOAD SWAP1 PUSH2 0x458F DUP3 PUSH2 0x3C26 JUMP JUMPDEST PUSH1 0x60 PUSH2 0x140 DUP4 PUSH0 DUP2 MSTORE PUSH0 PUSH1 0x20 DUP3 ADD MSTORE PUSH0 PUSH1 0x40 DUP3 ADD MSTORE PUSH0 DUP4 DUP3 ADD MSTORE PUSH0 PUSH1 0x80 DUP3 ADD MSTORE PUSH0 PUSH1 0xA0 DUP3 ADD MSTORE PUSH0 PUSH1 0xC0 DUP3 ADD MSTORE PUSH0 PUSH1 0xE0 DUP3 ADD MSTORE PUSH2 0x45C9 PUSH2 0x432A JUMP JUMPDEST PUSH2 0x100 DUP3 ADD MSTORE PUSH2 0x45D7 PUSH2 0x432A JUMP JUMPDEST PUSH2 0x120 DUP3 ADD MSTORE ADD MSTORE JUMP JUMPDEST PUSH1 0x20 DUP1 SWAP2 PUSH2 0x45ED PUSH2 0x4582 JUMP JUMPDEST POP PUSH1 0x40 MLOAD SWAP3 DUP2 DUP5 SWAP3 MLOAD SWAP2 DUP3 SWAP2 ADD DUP4 MCOPY DUP2 ADD PUSH0 DUP2 MSTORE SUB ADD SWAP1 KECCAK256 PUSH2 0x4695 PUSH1 0xE PUSH1 0x40 MLOAD SWAP3 PUSH2 0x4617 DUP5 PUSH2 0x3C26 JUMP JUMPDEST PUSH2 0x4625 PUSH1 0xFF DUP3 SLOAD AND DUP6 PUSH2 0x43A8 JUMP JUMPDEST PUSH1 0x1 DUP2 ADD SLOAD PUSH1 0x20 DUP6 ADD MSTORE PUSH1 0x2 DUP2 ADD SLOAD PUSH1 0x40 DUP6 ADD MSTORE PUSH1 0x3 DUP2 ADD SLOAD PUSH1 0x60 DUP6 ADD MSTORE PUSH1 0x4 DUP2 ADD SLOAD PUSH1 0x80 DUP6 ADD MSTORE PUSH1 0x5 DUP2 ADD SLOAD PUSH1 0xA0 DUP6 ADD MSTORE PUSH1 0x6 DUP2 ADD SLOAD PUSH1 0xC0 DUP6 ADD MSTORE PUSH1 0x7 DUP2 ADD SLOAD PUSH1 0xE0 DUP6 ADD MSTORE PUSH2 0x4677 PUSH1 0x8 DUP3 ADD PUSH2 0x3E08 JUMP JUMPDEST PUSH2 0x100 DUP6 ADD MSTORE PUSH2 0x4689 PUSH1 0xB DUP3 ADD PUSH2 0x3E08 JUMP JUMPDEST PUSH2 0x120 DUP6 ADD MSTORE ADD PUSH2 0x3D68 JUMP JUMPDEST PUSH2 0x140 DUP3 ADD MSTORE SWAP1 JUMP JUMPDEST PUSH1 0x20 DUP1 SWAP2 SWAP4 SWAP3 SWAP4 PUSH1 0x40 MLOAD SWAP3 DUP2 DUP5 SWAP3 MLOAD SWAP2 DUP3 SWAP2 ADD DUP4 MCOPY DUP2 ADD PUSH0 DUP2 MSTORE SUB ADD SWAP1 KECCAK256 TIMESTAMP PUSH1 0x7 DUP3 ADD SSTORE PUSH1 0x82 TIMESTAMP ADD SWAP1 DUP2 TIMESTAMP GT PUSH2 0x33B JUMPI PUSH1 0xE SWAP2 PUSH1 0x5 DUP3 ADD SSTORE PUSH1 0x6 PUSH1 0xFF NOT DUP3 SLOAD AND OR DUP2 SSTORE ADD DUP3 MLOAD PUSH1 0x1 PUSH1 0x1 PUSH1 0x40 SHL SUB DUP2 GT PUSH2 0x327 JUMPI PUSH2 0x46FC DUP3 SLOAD PUSH2 0x3D30 JUMP JUMPDEST PUSH1 0x1F DUP2 GT PUSH2 0x479C JUMPI JUMPDEST POP PUSH1 0x20 PUSH1 0x1F DUP3 GT PUSH1 0x1 EQ PUSH2 0x473E JUMPI DUP2 SWAP3 SWAP4 SWAP5 PUSH0 SWAP3 PUSH2 0x4733 JUMPI JUMPDEST POP POP DUP2 PUSH1 0x1 SHL SWAP2 PUSH0 NOT SWAP1 PUSH1 0x3 SHL SHR NOT AND OR SWAP1 SSTORE JUMP JUMPDEST ADD MLOAD SWAP1 POP PUSH0 DUP1 PUSH2 0x471E JUMP JUMPDEST PUSH1 0x1F NOT DUP3 AND SWAP1 DUP4 PUSH0 MSTORE DUP1 PUSH0 KECCAK256 SWAP2 PUSH0 JUMPDEST DUP2 DUP2 LT PUSH2 0x4784 JUMPI POP SWAP6 DUP4 PUSH1 0x1 SWAP6 SWAP7 SWAP8 LT PUSH2 0x476C JUMPI JUMPDEST POP POP POP DUP2 SHL ADD SWAP1 SSTORE JUMP JUMPDEST ADD MLOAD PUSH0 NOT PUSH1 0xF8 DUP5 PUSH1 0x3 SHL AND SHR NOT AND SWAP1 SSTORE PUSH0 DUP1 DUP1 PUSH2 0x4762 JUMP JUMPDEST SWAP2 SWAP3 PUSH1 0x20 PUSH1 0x1 DUP2 SWAP3 DUP7 DUP12 ADD MLOAD DUP2 SSTORE ADD SWAP5 ADD SWAP3 ADD PUSH2 0x474D JUMP JUMPDEST DUP3 PUSH0 MSTORE PUSH1 0x20 PUSH0 KECCAK256 PUSH1 0x1F DUP4 ADD PUSH1 0x5 SHR DUP2 ADD SWAP2 PUSH1 0x20 DUP5 LT PUSH2 0x47D7 JUMPI JUMPDEST PUSH1 0x1F ADD PUSH1 0x5 SHR ADD SWAP1 JUMPDEST DUP2 DUP2 LT PUSH2 0x47CC JUMPI POP PUSH2 0x4705 JUMP JUMPDEST PUSH0 DUP2 SSTORE PUSH1 0x1 ADD PUSH2 0x47BF JUMP JUMPDEST SWAP1 SWAP2 POP DUP2 SWAP1 PUSH2 0x47B6 JUMP JUMPDEST SWAP3 SWAP2 SWAP1 PUSH1 0x40 MLOAD PUSH1 0x20 DUP6 MLOAD SWAP2 DUP2 DUP2 DUP2 DUP10 ADD SWAP5 DUP1 DUP7 DUP4 MCOPY DUP2 ADD PUSH0 DUP2 MSTORE SUB ADD SWAP1 KECCAK256 SWAP6 PUSH1 0x40 MLOAD SWAP3 DUP4 SWAP2 MLOAD DUP1 SWAP2 DUP4 MCOPY DUP2 ADD PUSH1 0x1 DUP2 MSTORE SUB ADD SWAP1 KECCAK256 SWAP1 DUP1 MLOAD SWAP1 PUSH1 0x1 PUSH1 0x1 PUSH1 0x40 SHL SUB DUP3 GT PUSH2 0x327 JUMPI DUP2 SWAP1 PUSH2 0x4833 DUP5 SLOAD PUSH2 0x3D30 JUMP JUMPDEST PUSH1 0x1F DUP2 GT PUSH2 0x4B2E JUMPI JUMPDEST POP PUSH1 0x20 SWAP1 PUSH1 0x1F DUP4 GT PUSH1 0x1 EQ PUSH2 0x4ACB JUMPI PUSH0 SWAP3 PUSH2 0x4AC0 JUMPI JUMPDEST POP POP DUP2 PUSH1 0x1 SHL SWAP2 PUSH0 NOT SWAP1 PUSH1 0x3 SHL SHR NOT AND OR SWAP1 SSTORE JUMPDEST DUP1 MLOAD DUP1 MLOAD PUSH1 0xB DUP6 ADD SWAP2 PUSH1 0x1 PUSH1 0x1 PUSH1 0x40 SHL SUB DUP3 GT PUSH2 0x327 JUMPI PUSH2 0x4887 DUP4 SLOAD PUSH2 0x3D30 JUMP JUMPDEST PUSH1 0x1F DUP2 GT PUSH2 0x4A7B JUMPI JUMPDEST POP PUSH1 0x20 SWAP1 PUSH1 0x1F DUP4 GT PUSH1 0x1 EQ PUSH2 0x4A14 JUMPI PUSH1 0x20 SWAP5 SWAP4 SWAP3 SWAP2 PUSH0 SWAP2 DUP4 PUSH2 0x4A09 JUMPI JUMPDEST POP POP DUP2 PUSH1 0x1 SHL SWAP2 PUSH0 NOT SWAP1 PUSH1 0x3 SHL SHR NOT AND OR SWAP1 SSTORE JUMPDEST PUSH1 0x40 DUP2 ADD MLOAD PUSH1 0xD DUP6 ADD DUP1 SLOAD PUSH1 0x1 PUSH1 0x1 PUSH1 0xA0 SHL SUB NOT AND PUSH1 0x1 PUSH1 0x1 PUSH1 0xA0 SHL SUB SWAP3 SWAP1 SWAP3 AND SWAP2 SWAP1 SWAP2 OR SWAP1 SSTORE ADD MLOAD DUP1 MLOAD SWAP1 SWAP3 SWAP1 PUSH1 0xC DUP3 ADD SWAP1 PUSH1 0x1 PUSH1 0x1 PUSH1 0x40 SHL SUB DUP2 GT PUSH2 0x327 JUMPI PUSH2 0x490C DUP3 SLOAD PUSH2 0x3D30 JUMP JUMPDEST PUSH1 0x1F DUP2 GT PUSH2 0x49C4 JUMPI JUMPDEST POP PUSH1 0x20 SWAP5 PUSH1 0x1F DUP3 GT PUSH1 0x1 EQ PUSH2 0x4963 JUMPI SWAP5 DUP2 SWAP3 SWAP4 SWAP5 SWAP6 PUSH0 SWAP3 PUSH2 0x4958 JUMPI JUMPDEST POP POP DUP2 PUSH1 0x1 SHL SWAP2 PUSH0 NOT SWAP1 PUSH1 0x3 SHL SHR NOT AND OR SWAP1 SSTORE JUMPDEST TIMESTAMP PUSH1 0x3 DUP3 ADD SSTORE DUP1 SLOAD PUSH1 0xFF NOT AND PUSH1 0x2 OR SWAP1 SSTORE JUMP JUMPDEST ADD MLOAD SWAP1 POP PUSH0 DUP1 PUSH2 0x4931 JUMP JUMPDEST PUSH1 0x1F NOT DUP3 AND SWAP6 DUP4 PUSH0 MSTORE DUP1 PUSH0 KECCAK256 SWAP2 PUSH0 JUMPDEST DUP9 DUP2 LT PUSH2 0x49AC JUMPI POP DUP4 PUSH1 0x1 SWAP6 SWAP7 SWAP8 SWAP9 LT PUSH2 0x4994 JUMPI JUMPDEST POP POP POP DUP2 SHL ADD SWAP1 SSTORE PUSH2 0x4945 JUMP JUMPDEST ADD MLOAD PUSH0 NOT PUSH1 0xF8 DUP5 PUSH1 0x3 SHL AND SHR NOT AND SWAP1 SSTORE PUSH0 DUP1 DUP1 PUSH2 0x4987 JUMP JUMPDEST SWAP2 SWAP3 PUSH1 0x20 PUSH1 0x1 DUP2 SWAP3 DUP7 DUP6 ADD MLOAD DUP2 SSTORE ADD SWAP5 ADD SWAP3 ADD PUSH2 0x4972 JUMP JUMPDEST DUP3 PUSH0 MSTORE PUSH1 0x20 PUSH0 KECCAK256 PUSH1 0x1F DUP4 ADD PUSH1 0x5 SHR DUP2 ADD SWAP2 PUSH1 0x20 DUP5 LT PUSH2 0x49FF JUMPI JUMPDEST PUSH1 0x1F ADD PUSH1 0x5 SHR ADD SWAP1 JUMPDEST DUP2 DUP2 LT PUSH2 0x49F4 JUMPI POP PUSH2 0x4915 JUMP JUMPDEST PUSH0 DUP2 SSTORE PUSH1 0x1 ADD PUSH2 0x49E7 JUMP JUMPDEST SWAP1 SWAP2 POP DUP2 SWAP1 PUSH2 0x49DE JUMP JUMPDEST ADD MLOAD SWAP1 POP PUSH0 DUP1 PUSH2 0x48AD JUMP JUMPDEST SWAP1 PUSH1 0x1F NOT DUP4 AND SWAP2 DUP5 PUSH0 MSTORE DUP2 PUSH0 KECCAK256 SWAP3 PUSH0 JUMPDEST DUP2 DUP2 LT PUSH2 0x4A63 JUMPI POP SWAP2 PUSH1 0x1 SWAP4 SWAP2 DUP6 PUSH1 0x20 SWAP9 SWAP8 SWAP7 SWAP5 LT PUSH2 0x4A4B JUMPI JUMPDEST POP POP POP DUP2 SHL ADD SWAP1 SSTORE PUSH2 0x48C1 JUMP JUMPDEST ADD MLOAD PUSH0 NOT PUSH1 0xF8 DUP5 PUSH1 0x3 SHL AND SHR NOT AND SWAP1 SSTORE PUSH0 DUP1 DUP1 PUSH2 0x4A3E JUMP JUMPDEST SWAP3 SWAP4 PUSH1 0x20 PUSH1 0x1 DUP2 SWAP3 DUP8 DUP7 ADD MLOAD DUP2 SSTORE ADD SWAP6 ADD SWAP4 ADD PUSH2 0x4A24 JUMP JUMPDEST DUP4 PUSH0 MSTORE PUSH1 0x20 PUSH0 KECCAK256 PUSH1 0x1F DUP5 ADD PUSH1 0x5 SHR DUP2 ADD SWAP2 PUSH1 0x20 DUP6 LT PUSH2 0x4AB6 JUMPI JUMPDEST PUSH1 0x1F ADD PUSH1 0x5 SHR ADD SWAP1 JUMPDEST DUP2 DUP2 LT PUSH2 0x4AAB JUMPI POP PUSH2 0x4890 JUMP JUMPDEST PUSH0 DUP2 SSTORE PUSH1 0x1 ADD PUSH2 0x4A9E JUMP JUMPDEST SWAP1 SWAP2 POP DUP2 SWAP1 PUSH2 0x4A95 JUMP JUMPDEST ADD MLOAD SWAP1 POP PUSH0 DUP1 PUSH2 0x4852 JUMP JUMPDEST PUSH0 DUP6 DUP2 MSTORE DUP3 DUP2 KECCAK256 SWAP4 POP PUSH1 0x1F NOT DUP6 AND SWAP1 JUMPDEST DUP2 DUP2 LT PUSH2 0x4B16 JUMPI POP SWAP1 DUP5 PUSH1 0x1 SWAP6 SWAP5 SWAP4 SWAP3 LT PUSH2 0x4AFE JUMPI JUMPDEST POP POP POP DUP2 SHL ADD SWAP1 SSTORE PUSH2 0x4866 JUMP JUMPDEST ADD MLOAD PUSH0 NOT PUSH1 0xF8 DUP5 PUSH1 0x3 SHL AND SHR NOT AND SWAP1 SSTORE PUSH0 DUP1 DUP1 PUSH2 0x4AF1 JUMP JUMPDEST SWAP3 SWAP4 PUSH1 0x20 PUSH1 0x1 DUP2 SWAP3 DUP8 DUP7 ADD MLOAD DUP2 SSTORE ADD SWAP6 ADD SWAP4 ADD PUSH2 0x4ADB JUMP JUMPDEST SWAP1 SWAP2 POP DUP4 PUSH0 MSTORE PUSH1 0x20 PUSH0 KECCAK256 PUSH1 0x1F DUP5 ADD PUSH1 0x5 SHR DUP2 ADD SWAP2 PUSH1 0x20 DUP6 LT PUSH2 0x4B74 JUMPI JUMPDEST SWAP1 PUSH1 0x1F DUP6 SWAP5 SWAP4 SWAP3 ADD PUSH1 0x5 SHR ADD SWAP1 JUMPDEST DUP2 DUP2 LT PUSH2 0x4B66 JUMPI POP PUSH2 0x483C JUMP JUMPDEST PUSH0 DUP2 SSTORE DUP5 SWAP4 POP PUSH1 0x1 ADD PUSH2 0x4B59 JUMP JUMPDEST SWAP1 SWAP2 POP DUP2 SWAP1 PUSH2 0x4B4B JUMP JUMPDEST PUSH1 0x20 DUP1 SWAP2 SWAP5 SWAP4 SWAP3 SWAP5 PUSH1 0x40 MLOAD SWAP3 DUP2 DUP5 SWAP3 MLOAD SWAP2 DUP3 SWAP2 ADD DUP4 MCOPY DUP2 ADD PUSH0 DUP2 MSTORE SUB ADD SWAP1 KECCAK256 SWAP1 DUP1 MLOAD PUSH1 0xB DUP4 ADD SWAP1 DUP1 MLOAD SWAP1 PUSH1 0x1 PUSH1 0x1 PUSH1 0x40 SHL SUB DUP3 GT PUSH2 0x327 JUMPI PUSH2 0x4BC0 DUP4 SLOAD PUSH2 0x3D30 JUMP JUMPDEST PUSH1 0x1F DUP2 GT PUSH2 0x4EA7 JUMPI JUMPDEST POP PUSH1 0x20 SWAP1 PUSH1 0x1F DUP4 GT PUSH1 0x1 EQ PUSH2 0x4E40 JUMPI PUSH1 0x20 SWAP5 SWAP4 SWAP3 SWAP2 PUSH0 SWAP2 DUP4 PUSH2 0x4E35 JUMPI JUMPDEST POP POP DUP2 PUSH1 0x1 SHL SWAP2 PUSH0 NOT SWAP1 PUSH1 0x3 SHL SHR NOT AND OR SWAP1 SSTORE JUMPDEST PUSH1 0x40 DUP2 ADD MLOAD PUSH1 0xD DUP5 ADD DUP1 SLOAD PUSH1 0x1 PUSH1 0x1 PUSH1 0xA0 SHL SUB NOT AND PUSH1 0x1 PUSH1 0x1 PUSH1 0xA0 SHL SUB SWAP3 SWAP1 SWAP3 AND SWAP2 SWAP1 SWAP2 OR SWAP1 SSTORE ADD MLOAD DUP1 MLOAD PUSH1 0xC DUP4 ADD SWAP2 PUSH1 0x1 PUSH1 0x1 PUSH1 0x40 SHL SUB DUP3 GT PUSH2 0x327 JUMPI DUP2 SWAP1 PUSH2 0x4C44 DUP5 SLOAD PUSH2 0x3D30 JUMP JUMPDEST PUSH1 0x1F DUP2 GT PUSH2 0x4DE5 JUMPI JUMPDEST POP PUSH1 0x20 SWAP1 PUSH1 0x1F DUP4 GT PUSH1 0x1 EQ PUSH2 0x4D82 JUMPI PUSH0 SWAP3 PUSH2 0x4D77 JUMPI JUMPDEST POP POP DUP2 PUSH1 0x1 SHL SWAP2 PUSH0 NOT SWAP1 PUSH1 0x3 SHL SHR NOT AND OR SWAP1 SSTORE JUMPDEST TIMESTAMP PUSH1 0x2 DUP3 ADD SSTORE PUSH1 0x82 TIMESTAMP ADD SWAP1 DUP2 TIMESTAMP GT PUSH2 0x33B JUMPI PUSH1 0xE SWAP2 PUSH1 0x5 DUP3 ADD SSTORE PUSH1 0x1 PUSH1 0xFF NOT DUP3 SLOAD AND OR DUP2 SSTORE ADD DUP3 MLOAD PUSH1 0x1 PUSH1 0x1 PUSH1 0x40 SHL SUB DUP2 GT PUSH2 0x327 JUMPI PUSH2 0x4CB7 DUP3 SLOAD PUSH2 0x3D30 JUMP JUMPDEST PUSH1 0x1F DUP2 GT PUSH2 0x4D32 JUMPI JUMPDEST POP PUSH1 0x20 PUSH1 0x1F DUP3 GT PUSH1 0x1 EQ PUSH2 0x4CED JUMPI DUP2 SWAP3 SWAP4 SWAP5 PUSH0 SWAP3 PUSH2 0x4733 JUMPI POP POP DUP2 PUSH1 0x1 SHL SWAP2 PUSH0 NOT SWAP1 PUSH1 0x3 SHL SHR NOT AND OR SWAP1 SSTORE JUMP JUMPDEST PUSH1 0x1F NOT DUP3 AND SWAP1 DUP4 PUSH0 MSTORE DUP1 PUSH0 KECCAK256 SWAP2 PUSH0 JUMPDEST DUP2 DUP2 LT PUSH2 0x4D1A JUMPI POP SWAP6 DUP4 PUSH1 0x1 SWAP6 SWAP7 SWAP8 LT PUSH2 0x476C JUMPI POP POP POP DUP2 SHL ADD SWAP1 SSTORE JUMP JUMPDEST SWAP2 SWAP3 PUSH1 0x20 PUSH1 0x1 DUP2 SWAP3 DUP7 DUP12 ADD MLOAD DUP2 SSTORE ADD SWAP5 ADD SWAP3 ADD PUSH2 0x4CFC JUMP JUMPDEST DUP3 PUSH0 MSTORE PUSH1 0x20 PUSH0 KECCAK256 PUSH1 0x1F DUP4 ADD PUSH1 0x5 SHR DUP2 ADD SWAP2 PUSH1 0x20 DUP5 LT PUSH2 0x4D6D JUMPI JUMPDEST PUSH1 0x1F ADD PUSH1 0x5 SHR ADD SWAP1 JUMPDEST DUP2 DUP2 LT PUSH2 0x4D62 JUMPI POP PUSH2 0x4CC0 JUMP JUMPDEST PUSH0 DUP2 SSTORE PUSH1 0x1 ADD PUSH2 0x4D55 JUMP JUMPDEST SWAP1 SWAP2 POP DUP2 SWAP1 PUSH2 0x4D4C JUMP JUMPDEST ADD MLOAD SWAP1 POP PUSH0 DUP1 PUSH2 0x4C63 JUMP JUMPDEST PUSH0 DUP6 DUP2 MSTORE DUP3 DUP2 KECCAK256 SWAP4 POP PUSH1 0x1F NOT DUP6 AND SWAP1 JUMPDEST DUP2 DUP2 LT PUSH2 0x4DCD JUMPI POP SWAP1 DUP5 PUSH1 0x1 SWAP6 SWAP5 SWAP4 SWAP3 LT PUSH2 0x4DB5 JUMPI JUMPDEST POP POP POP DUP2 SHL ADD SWAP1 SSTORE PUSH2 0x4C77 JUMP JUMPDEST ADD MLOAD PUSH0 NOT PUSH1 0xF8 DUP5 PUSH1 0x3 SHL AND SHR NOT AND SWAP1 SSTORE PUSH0 DUP1 DUP1 PUSH2 0x4DA8 JUMP JUMPDEST SWAP3 SWAP4 PUSH1 0x20 PUSH1 0x1 DUP2 SWAP3 DUP8 DUP7 ADD MLOAD DUP2 SSTORE ADD SWAP6 ADD SWAP4 ADD PUSH2 0x4D92 JUMP JUMPDEST SWAP1 SWAP2 POP DUP4 PUSH0 MSTORE PUSH1 0x20 PUSH0 KECCAK256 PUSH1 0x1F DUP5 ADD PUSH1 0x5 SHR DUP2 ADD SWAP2 PUSH1 0x20 DUP6 LT PUSH2 0x4E2B JUMPI JUMPDEST SWAP1 PUSH1 0x1F DUP6 SWAP5 SWAP4 SWAP3 ADD PUSH1 0x5 SHR ADD SWAP1 JUMPDEST DUP2 DUP2 LT PUSH2 0x4E1D JUMPI POP PUSH2 0x4C4D JUMP JUMPDEST PUSH0 DUP2 SSTORE DUP5 SWAP4 POP PUSH1 0x1 ADD PUSH2 0x4E10 JUMP JUMPDEST SWAP1 SWAP2 POP DUP2 SWAP1 PUSH2 0x4E02 JUMP JUMPDEST ADD MLOAD SWAP1 POP PUSH0 DUP1 PUSH2 0x4BE6 JUMP JUMPDEST SWAP1 PUSH1 0x1F NOT DUP4 AND SWAP2 DUP5 PUSH0 MSTORE DUP2 PUSH0 KECCAK256 SWAP3 PUSH0 JUMPDEST DUP2 DUP2 LT PUSH2 0x4E8F JUMPI POP SWAP2 PUSH1 0x1 SWAP4 SWAP2 DUP6 PUSH1 0x20 SWAP9 SWAP8 SWAP7 SWAP5 LT PUSH2 0x4E77 JUMPI JUMPDEST POP POP POP DUP2 SHL ADD SWAP1 SSTORE PUSH2 0x4BFA JUMP JUMPDEST ADD MLOAD PUSH0 NOT PUSH1 0xF8 DUP5 PUSH1 0x3 SHL AND SHR NOT AND SWAP1 SSTORE PUSH0 DUP1 DUP1 PUSH2 0x4E6A JUMP JUMPDEST SWAP3 SWAP4 PUSH1 0x20 PUSH1 0x1 DUP2 SWAP3 DUP8 DUP7 ADD MLOAD DUP2 SSTORE ADD SWAP6 ADD SWAP4 ADD PUSH2 0x4E50 JUMP JUMPDEST DUP4 PUSH0 MSTORE PUSH1 0x20 PUSH0 KECCAK256 PUSH1 0x1F DUP5 ADD PUSH1 0x5 SHR DUP2 ADD SWAP2 PUSH1 0x20 DUP6 LT PUSH2 0x4EE2 JUMPI JUMPDEST PUSH1 0x1F ADD PUSH1 0x5 SHR ADD SWAP1 JUMPDEST DUP2 DUP2 LT PUSH2 0x4ED7 JUMPI POP PUSH2 0x4BC9 JUMP JUMPDEST PUSH0 DUP2 SSTORE PUSH1 0x1 ADD PUSH2 0x4ECA JUMP JUMPDEST SWAP1 SWAP2 POP DUP2 SWAP1 PUSH2 0x4EC1 JUMP JUMPDEST SWAP3 SWAP1 SWAP2 PUSH1 0x40 MLOAD PUSH2 0x4EFB DUP2 PUSH2 0x3C26 JUMP JUMPDEST PUSH0 DUP2 MSTORE PUSH1 0x20 DUP2 ADD SWAP5 TIMESTAMP DUP7 MSTORE PUSH1 0x40 DUP3 ADD PUSH0 DUP2 MSTORE PUSH1 0x60 DUP4 ADD PUSH0 DUP2 MSTORE PUSH1 0x80 DUP5 ADD PUSH0 DUP2 MSTORE PUSH1 0xA0 DUP6 ADD SWAP1 PUSH0 DUP3 MSTORE PUSH1 0xC0 DUP7 ADD SWAP3 PUSH0 DUP5 MSTORE PUSH1 0xE0 DUP8 ADD SWAP5 PUSH0 DUP7 MSTORE PUSH2 0x100 DUP9 ADD SWAP7 DUP8 MSTORE PUSH2 0x120 DUP9 ADD SWAP11 DUP12 MSTORE PUSH1 0x20 SWAP12 DUP13 DUP1 DUP1 SWAP12 PUSH2 0x4F57 PUSH1 0x40 MLOAD SWAP14 DUP15 PUSH2 0x3C42 JUMP JUMPDEST PUSH0 DUP14 MSTORE PUSH2 0x140 DUP13 ADD SWAP13 DUP14 MSTORE PUSH1 0x40 MLOAD SWAP3 DUP2 DUP5 SWAP3 MLOAD SWAP2 DUP3 SWAP2 ADD DUP4 MCOPY DUP2 ADD PUSH0 DUP2 MSTORE SUB ADD SWAP1 KECCAK256 SWAP9 MLOAD PUSH1 0x7 DUP2 LT ISZERO PUSH2 0x2867 JUMPI PUSH1 0xFF DUP1 NOT DUP12 SLOAD AND SWAP2 AND OR DUP10 SSTORE MLOAD PUSH1 0x1 DUP10 ADD SSTORE MLOAD PUSH1 0x2 DUP9 ADD SSTORE MLOAD PUSH1 0x3 DUP8 ADD SSTORE MLOAD PUSH1 0x4 DUP7 ADD SSTORE MLOAD PUSH1 0x5 DUP6 ADD SSTORE MLOAD PUSH1 0x6 DUP5 ADD SSTORE MLOAD PUSH1 0x7 DUP4 ADD SSTORE PUSH1 0x8 DUP3 ADD SWAP1 MLOAD SWAP1 DUP2 MLOAD DUP1 MLOAD SWAP1 PUSH1 0x1 PUSH1 0x1 PUSH1 0x40 SHL SUB DUP3 GT PUSH2 0x327 JUMPI DUP2 SWAP1 PUSH2 0x4FE0 DUP5 SLOAD PUSH2 0x3D30 JUMP JUMPDEST PUSH1 0x1F DUP2 GT PUSH2 0x54ED JUMPI JUMPDEST POP DUP10 SWAP1 PUSH1 0x1F DUP4 GT PUSH1 0x1 EQ PUSH2 0x548A JUMPI PUSH0 SWAP3 PUSH2 0x547F JUMPI JUMPDEST POP POP DUP2 PUSH1 0x1 SHL SWAP2 PUSH0 NOT SWAP1 PUSH1 0x3 SHL SHR NOT AND OR SWAP1 SSTORE JUMPDEST PUSH1 0x9 DUP3 ADD DUP7 DUP3 ADD MLOAD DUP1 MLOAD SWAP1 PUSH1 0x1 PUSH1 0x1 PUSH1 0x40 SHL SUB DUP3 GT PUSH2 0x327 JUMPI DUP2 SWAP1 PUSH2 0x5037 DUP5 SLOAD PUSH2 0x3D30 JUMP JUMPDEST PUSH1 0x1F DUP2 GT PUSH2 0x5431 JUMPI JUMPDEST POP DUP10 SWAP1 PUSH1 0x1F DUP4 GT PUSH1 0x1 EQ PUSH2 0x53CE JUMPI PUSH0 SWAP3 PUSH2 0x53C3 JUMPI JUMPDEST POP POP DUP2 PUSH1 0x1 SHL SWAP2 PUSH0 NOT SWAP1 PUSH1 0x3 SHL SHR NOT AND OR SWAP1 SSTORE JUMPDEST PUSH1 0x40 ADD MLOAD PUSH1 0xA DUP3 ADD DUP1 SLOAD PUSH1 0x1 PUSH1 0x1 PUSH1 0xA0 SHL SUB NOT AND PUSH1 0x1 PUSH1 0x1 PUSH1 0xA0 SHL SUB SWAP3 SWAP1 SWAP3 AND SWAP2 SWAP1 SWAP2 OR SWAP1 SSTORE SWAP3 MLOAD DUP1 MLOAD DUP1 MLOAD SWAP2 SWAP5 SWAP2 PUSH1 0xB DUP4 ADD SWAP2 PUSH1 0x1 PUSH1 0x1 PUSH1 0x40 SHL SUB DUP3 GT PUSH2 0x327 JUMPI DUP2 SWAP1 PUSH2 0x50B7 DUP5 SLOAD PUSH2 0x3D30 JUMP JUMPDEST PUSH1 0x1F DUP2 GT PUSH2 0x5375 JUMPI JUMPDEST POP DUP9 SWAP1 PUSH1 0x1F DUP4 GT PUSH1 0x1 EQ PUSH2 0x5312 JUMPI PUSH0 SWAP3 PUSH2 0x5307 JUMPI JUMPDEST POP POP DUP2 PUSH1 0x1 SHL SWAP2 PUSH0 NOT SWAP1 PUSH1 0x3 SHL SHR NOT AND OR SWAP1 SSTORE JUMPDEST PUSH1 0xC DUP2 ADD SWAP4 DUP6 DUP2 ADD MLOAD SWAP5 DUP6 MLOAD SWAP6 PUSH1 0x1 PUSH1 0x1 PUSH1 0x40 SHL SUB DUP8 GT PUSH2 0x327 JUMPI PUSH2 0x510E DUP3 SLOAD PUSH2 0x3D30 JUMP JUMPDEST PUSH1 0x1F DUP2 GT PUSH2 0x52C4 JUMPI JUMPDEST POP DUP8 SWAP1 PUSH1 0x1F DUP9 GT PUSH1 0x1 EQ PUSH2 0x525D JUMPI SWAP7 DUP1 SWAP2 PUSH1 0xE SWAP7 SWAP8 SWAP9 PUSH0 SWAP3 PUSH2 0x5252 JUMPI JUMPDEST POP POP DUP2 PUSH1 0x1 SHL SWAP2 PUSH0 NOT SWAP1 PUSH1 0x3 SHL SHR NOT AND OR SWAP1 SSTORE JUMPDEST PUSH1 0x40 ADD MLOAD PUSH1 0xD DUP3 ADD DUP1 SLOAD PUSH1 0x1 PUSH1 0x1 PUSH1 0xA0 SHL SUB NOT AND PUSH1 0x1 PUSH1 0x1 PUSH1 0xA0 SHL SUB SWAP3 SWAP1 SWAP3 AND SWAP2 SWAP1 SWAP2 OR SWAP1 SSTORE SWAP2 MLOAD DUP1 MLOAD SWAP1 SWAP5 SWAP2 SWAP1 SWAP3 ADD SWAP2 SWAP1 PUSH1 0x1 PUSH1 0x1 PUSH1 0x40 SHL SUB DUP3 GT PUSH2 0x327 JUMPI PUSH2 0x5192 DUP4 SLOAD PUSH2 0x3D30 JUMP JUMPDEST PUSH1 0x1F DUP2 GT PUSH2 0x520F JUMPI JUMPDEST POP DUP1 PUSH1 0x1F DUP4 GT PUSH1 0x1 EQ PUSH2 0x51C8 JUMPI POP DUP2 SWAP3 SWAP4 SWAP5 PUSH0 SWAP3 PUSH2 0x4733 JUMPI POP POP DUP2 PUSH1 0x1 SHL SWAP2 PUSH0 NOT SWAP1 PUSH1 0x3 SHL SHR NOT AND OR SWAP1 SSTORE JUMP JUMPDEST SWAP1 PUSH1 0x1F NOT DUP4 AND SWAP6 DUP5 PUSH0 MSTORE DUP3 PUSH0 KECCAK256 SWAP3 PUSH0 SWAP1 JUMPDEST DUP9 DUP3 LT PUSH2 0x51F7 JUMPI POP POP DUP4 PUSH1 0x1 SWAP6 SWAP7 SWAP8 LT PUSH2 0x476C JUMPI POP POP POP DUP2 SHL ADD SWAP1 SSTORE JUMP JUMPDEST DUP1 PUSH1 0x1 DUP6 SWAP7 DUP3 SWAP5 SWAP7 DUP7 ADD MLOAD DUP2 SSTORE ADD SWAP6 ADD SWAP4 ADD SWAP1 PUSH2 0x51D9 JUMP JUMPDEST DUP4 PUSH0 MSTORE DUP2 PUSH0 KECCAK256 PUSH1 0x1F DUP5 ADD PUSH1 0x5 SHR DUP2 ADD SWAP2 DUP4 DUP6 LT PUSH2 0x5248 JUMPI JUMPDEST PUSH1 0x1F ADD PUSH1 0x5 SHR ADD SWAP1 JUMPDEST DUP2 DUP2 LT PUSH2 0x523D JUMPI POP PUSH2 0x519B JUMP JUMPDEST PUSH0 DUP2 SSTORE PUSH1 0x1 ADD PUSH2 0x5230 JUMP JUMPDEST SWAP1 SWAP2 POP DUP2 SWAP1 PUSH2 0x5227 JUMP JUMPDEST ADD MLOAD SWAP1 POP PUSH0 DUP1 PUSH2 0x5134 JUMP JUMPDEST SWAP1 PUSH1 0x1F NOT DUP9 AND SWAP2 DUP4 PUSH0 MSTORE DUP10 PUSH0 KECCAK256 SWAP3 PUSH0 JUMPDEST DUP12 DUP3 DUP3 LT PUSH2 0x52AE JUMPI POP POP SWAP2 PUSH1 0x1 SWAP4 SWAP2 DUP11 PUSH1 0xE SWAP10 SWAP11 SWAP12 SWAP5 LT PUSH2 0x5296 JUMPI JUMPDEST POP POP POP DUP2 SHL ADD SWAP1 SSTORE PUSH2 0x5148 JUMP JUMPDEST ADD MLOAD PUSH0 NOT PUSH1 0xF8 DUP5 PUSH1 0x3 SHL AND SHR NOT AND SWAP1 SSTORE PUSH0 DUP1 DUP1 PUSH2 0x5289 JUMP JUMPDEST PUSH1 0x1 DUP6 SWAP7 DUP3 SWAP4 SWAP7 DUP7 ADD MLOAD DUP2 SSTORE ADD SWAP6 ADD SWAP4 ADD PUSH2 0x526D JUMP JUMPDEST DUP3 PUSH0 MSTORE DUP9 PUSH0 KECCAK256 PUSH1 0x1F DUP10 ADD PUSH1 0x5 SHR DUP2 ADD SWAP2 DUP11 DUP11 LT PUSH2 0x52FD JUMPI JUMPDEST PUSH1 0x1F ADD PUSH1 0x5 SHR ADD SWAP1 JUMPDEST DUP2 DUP2 LT PUSH2 0x52F2 JUMPI POP PUSH2 0x5117 JUMP JUMPDEST PUSH0 DUP2 SSTORE PUSH1 0x1 ADD PUSH2 0x52E5 JUMP JUMPDEST SWAP1 SWAP2 POP DUP2 SWAP1 PUSH2 0x52DC JUMP JUMPDEST ADD MLOAD SWAP1 POP PUSH0 DUP1 PUSH2 0x50D5 JUMP JUMPDEST PUSH0 DUP6 DUP2 MSTORE DUP11 DUP2 KECCAK256 SWAP4 POP PUSH1 0x1F NOT DUP6 AND SWAP1 JUMPDEST DUP12 DUP3 DUP3 LT PUSH2 0x535F JUMPI POP POP SWAP1 DUP5 PUSH1 0x1 SWAP6 SWAP5 SWAP4 SWAP3 LT PUSH2 0x5347 JUMPI JUMPDEST POP POP POP DUP2 SHL ADD SWAP1 SSTORE PUSH2 0x50E9 JUMP JUMPDEST ADD MLOAD PUSH0 NOT PUSH1 0xF8 DUP5 PUSH1 0x3 SHL AND SHR NOT AND SWAP1 SSTORE PUSH0 DUP1 DUP1 PUSH2 0x533A JUMP JUMPDEST PUSH1 0x1 DUP6 SWAP7 DUP3 SWAP4 SWAP7 DUP7 ADD MLOAD DUP2 SSTORE ADD SWAP6 ADD SWAP4 ADD PUSH2 0x5322 JUMP JUMPDEST SWAP1 SWAP2 POP DUP4 PUSH0 MSTORE DUP9 PUSH0 KECCAK256 PUSH1 0x1F DUP5 ADD PUSH1 0x5 SHR DUP2 ADD SWAP2 DUP11 DUP6 LT PUSH2 0x53B9 JUMPI JUMPDEST SWAP1 PUSH1 0x1F DUP6 SWAP5 SWAP4 SWAP3 ADD PUSH1 0x5 SHR ADD SWAP1 JUMPDEST DUP2 DUP2 LT PUSH2 0x53AB JUMPI POP PUSH2 0x50C0 JUMP JUMPDEST PUSH0 DUP2 SSTORE DUP5 SWAP4 POP PUSH1 0x1 ADD PUSH2 0x539E JUMP JUMPDEST SWAP1 SWAP2 POP DUP2 SWAP1 PUSH2 0x5390 JUMP JUMPDEST ADD MLOAD SWAP1 POP PUSH0 DUP1 PUSH2 0x5055 JUMP JUMPDEST PUSH0 DUP6 DUP2 MSTORE DUP12 DUP2 KECCAK256 SWAP4 POP PUSH1 0x1F NOT DUP6 AND SWAP1 JUMPDEST DUP13 DUP3 DUP3 LT PUSH2 0x541B JUMPI POP POP SWAP1 DUP5 PUSH1 0x1 SWAP6 SWAP5 SWAP4 SWAP3 LT PUSH2 0x5403 JUMPI JUMPDEST POP POP POP DUP2 SHL ADD SWAP1 SSTORE PUSH2 0x5069 JUMP JUMPDEST ADD MLOAD PUSH0 NOT PUSH1 0xF8 DUP5 PUSH1 0x3 SHL AND SHR NOT AND SWAP1 SSTORE PUSH0 DUP1 DUP1 PUSH2 0x53F6 JUMP JUMPDEST PUSH1 0x1 DUP6 SWAP7 DUP3 SWAP4 SWAP7 DUP7 ADD MLOAD DUP2 SSTORE ADD SWAP6 ADD SWAP4 ADD PUSH2 0x53DE JUMP JUMPDEST SWAP1 SWAP2 POP DUP4 PUSH0 MSTORE DUP10 PUSH0 KECCAK256 PUSH1 0x1F DUP5 ADD PUSH1 0x5 SHR DUP2 ADD SWAP2 DUP12 DUP6 LT PUSH2 0x5475 JUMPI JUMPDEST SWAP1 PUSH1 0x1F DUP6 SWAP5 SWAP4 SWAP3 ADD PUSH1 0x5 SHR ADD SWAP1 JUMPDEST DUP2 DUP2 LT PUSH2 0x5467 JUMPI POP PUSH2 0x5040 JUMP JUMPDEST PUSH0 DUP2 SSTORE DUP5 SWAP4 POP PUSH1 0x1 ADD PUSH2 0x545A JUMP JUMPDEST SWAP1 SWAP2 POP DUP2 SWAP1 PUSH2 0x544C JUMP JUMPDEST ADD MLOAD SWAP1 POP PUSH0 DUP1 PUSH2 0x4FFE JUMP JUMPDEST PUSH0 DUP6 DUP2 MSTORE DUP12 DUP2 KECCAK256 SWAP4 POP PUSH1 0x1F NOT DUP6 AND SWAP1 JUMPDEST DUP13 DUP3 DUP3 LT PUSH2 0x54D7 JUMPI POP POP SWAP1 DUP5 PUSH1 0x1 SWAP6 SWAP5 SWAP4 SWAP3 LT PUSH2 0x54BF JUMPI JUMPDEST POP POP POP DUP2 SHL ADD SWAP1 SSTORE PUSH2 0x5012 JUMP JUMPDEST ADD MLOAD PUSH0 NOT PUSH1 0xF8 DUP5 PUSH1 0x3 SHL AND SHR NOT AND SWAP1 SSTORE PUSH0 DUP1 DUP1 PUSH2 0x54B2 JUMP JUMPDEST PUSH1 0x1 DUP6 SWAP7 DUP3 SWAP4 SWAP7 DUP7 ADD MLOAD DUP2 SSTORE ADD SWAP6 ADD SWAP4 ADD PUSH2 0x549A JUMP JUMPDEST SWAP1 SWAP2 POP DUP4 PUSH0 MSTORE DUP10 PUSH0 KECCAK256 PUSH1 0x1F DUP5 ADD PUSH1 0x5 SHR DUP2 ADD SWAP2 DUP12 DUP6 LT PUSH2 0x5531 JUMPI JUMPDEST SWAP1 PUSH1 0x1F DUP6 SWAP5 SWAP4 SWAP3 ADD PUSH1 0x5 SHR ADD SWAP1 JUMPDEST DUP2 DUP2 LT PUSH2 0x5523 JUMPI POP PUSH2 0x4FE9 JUMP JUMPDEST PUSH0 DUP2 SSTORE DUP5 SWAP4 POP PUSH1 0x1 ADD PUSH2 0x5516 JUMP JUMPDEST SWAP1 SWAP2 POP DUP2 SWAP1 PUSH2 0x5508 JUMP INVALID LOG2 PUSH5 0x6970667358 0x22 SLT KECCAK256 0xF8 TIMESTAMP 0xDA 0xB6 SWAP12 LOG4 BYTE SSTORE 0xB2 0xE1 DELEGATECALL PC PUSH4 0x53BCFEE4 0xE3 0xBD DUP16 PUSH14 0x545D96044C55B1447A671664736F PUSH13 0x634300081B0033000000000000 "},"methodIdentifiers":{"allCdobData(uint256)":"43762aa8","approveCdob(string,string,string,string,address,string)":"2b93f7f2","approveExtendCdob(string,string)":"9c6b1f10","cdobDataById(string)":"72c17cb9","certDetailById(string)":"34a34f30","createCertificateDetails((string,string,address),(string,string,address),string)":"fb5fb9a3","createUserCertificate(string,string,address)":"2e9cf827","dokuAdminById(string)":"7ab09648","dokuReSertifikasiById(string)":"5691acf7","dokuTeknisById(string)":"500619d0","extendCdob(string,uint256,(string,string,string))":"07b11c0b","getAllCdob()":"f14261d2","getAllCdobByInstance(string)":"6f12c230","getCdobDetails(string)":"7e8f8da7","getCertDetail(string)":"9aaa5d8b","getCertDetails(string)":"be2e2325","getRejectMsg(string)":"6d1aa7d5","getRejectsMsg(string)":"761fb19a","getSenderDetail(string)":"17e68309","rejectCdob(string,string,string,string,address)":"1acf2500","rejectMsgById(string)":"bf3f80ac","renewRequestCdob(string,(string,string),(string,string,string,string,string,string,string,string))":"a7226527","requestCdob(string,string,string,address,uint8,(string,string),(string,string,string,string,string,string,string,string))":"682053d9","updateBpomApproveDetails(string,string,(string,string,address))":"f5104ff1","updateBpomApproveExtendCertificateDetails(string,string)":"d26196fd","updateBpomExtendCertificateDetails(string,string)":"f53ef126","updateBpomRejectDetails(string,string,(string,string,address))":"e9c260d7","updateExtendRenewDetails(string,uint256)":"9740dbed","updateRenewDetails(string)":"19859c87"}}}}}