{"contracts/CertificateManager.sol":{"CertificateManager":{"abi":[{"inputs":[{"internalType":"address","name":"roleManagerAddr","type":"address"},{"internalType":"address","name":"cpotbCertificateAddr","type":"address"},{"internalType":"address","name":"cdobCertificateAddr","type":"address"}],"stateMutability":"nonpayable","type":"constructor"},{"inputs":[],"name":"ReentrancyGuardReentrantCall","type":"error"},{"anonymous":false,"inputs":[{"indexed":false,"internalType":"string","name":"bpomInstance","type":"string"},{"indexed":false,"internalType":"address","name":"bpomAddr","type":"address"},{"indexed":false,"internalType":"uint8","name":"tipePermohonan","type":"uint8"},{"indexed":false,"internalType":"string","name":"certNumber","type":"string"},{"indexed":false,"internalType":"uint256","name":"timestamp","type":"uint256"}],"name":"CertApproved","type":"event"},{"anonymous":false,"inputs":[{"indexed":false,"internalType":"address","name":"bpomAddr","type":"address"},{"indexed":false,"internalType":"uint256","name":"timestamp","type":"uint256"}],"name":"CertApprovedExtendRequest","type":"event"},{"anonymous":false,"inputs":[{"indexed":false,"internalType":"address","name":"senderAddr","type":"address"},{"indexed":false,"internalType":"uint256","name":"timestamp","type":"uint256"}],"name":"CertExtendRequest","type":"event"},{"anonymous":false,"inputs":[{"indexed":false,"internalType":"string","name":"bpomInstance","type":"string"},{"indexed":false,"internalType":"address","name":"bpomAddr","type":"address"},{"indexed":false,"internalType":"uint8","name":"tipePermohonan","type":"uint8"},{"indexed":false,"internalType":"uint256","name":"timestamp","type":"uint256"},{"indexed":false,"internalType":"string","name":"rejectMsg","type":"string"}],"name":"CertRejected","type":"event"},{"anonymous":false,"inputs":[{"indexed":false,"internalType":"string","name":"senderInstance","type":"string"},{"indexed":false,"internalType":"address","name":"senderAddr","type":"address"},{"indexed":false,"internalType":"uint256","name":"timestamp","type":"uint256"}],"name":"CertRenewRequest","type":"event"},{"anonymous":false,"inputs":[{"indexed":false,"internalType":"string","name":"senderInstance","type":"string"},{"indexed":false,"internalType":"address","name":"senderAddr","type":"address"},{"indexed":false,"internalType":"uint8","name":"tipePermohonan","type":"uint8"},{"indexed":false,"internalType":"uint256","name":"timestamp","type":"uint256"}],"name":"CertRequested","type":"event"},{"inputs":[{"components":[{"internalType":"string","name":"certNumber","type":"string"},{"internalType":"string","name":"certId","type":"string"},{"internalType":"string","name":"bpomName","type":"string"},{"internalType":"string","name":"bpomInstance","type":"string"},{"internalType":"address","name":"bpomAddr","type":"address"}],"internalType":"struct CertificateManager.CertificateApproval","name":"approveData","type":"tuple"},{"internalType":"string","name":"ipfsCert","type":"string"},{"internalType":"uint8","name":"tipePermohonan","type":"uint8"}],"name":"approveCdob","outputs":[],"stateMutability":"nonpayable","type":"function"},{"inputs":[{"components":[{"internalType":"string","name":"certNumber","type":"string"},{"internalType":"string","name":"certId","type":"string"},{"internalType":"string","name":"bpomName","type":"string"},{"internalType":"string","name":"bpomInstance","type":"string"},{"internalType":"address","name":"bpomAddr","type":"address"}],"internalType":"struct CertificateManager.CertificateApproval","name":"approveData","type":"tuple"},{"internalType":"string","name":"ipfsCert","type":"string"},{"internalType":"uint8","name":"jenisSediaan","type":"uint8"}],"name":"approveCpotb","outputs":[],"stateMutability":"nonpayable","type":"function"},{"inputs":[{"internalType":"string","name":"cdobId","type":"string"},{"internalType":"string","name":"ipfsCert","type":"string"}],"name":"approveExtendCdob","outputs":[],"stateMutability":"nonpayable","type":"function"},{"inputs":[{"internalType":"string","name":"cpotbId","type":"string"},{"internalType":"string","name":"ipfsCert","type":"string"}],"name":"approveExtendCpotb","outputs":[],"stateMutability":"nonpayable","type":"function"},{"inputs":[],"name":"cdobCertificate","outputs":[{"internalType":"contract CdobCertificate","name":"","type":"address"}],"stateMutability":"view","type":"function"},{"inputs":[],"name":"cpotbCertificate","outputs":[{"internalType":"contract CpotbCertificate","name":"","type":"address"}],"stateMutability":"view","type":"function"},{"inputs":[{"internalType":"string","name":"cdobId","type":"string"},{"internalType":"uint256","name":"expTimestamp","type":"uint256"},{"components":[{"internalType":"string","name":"suratPernyataanPimpinan","type":"string"},{"internalType":"string","name":"dokumenInspeksiDiri","type":"string"},{"internalType":"string","name":"dokumenPerbaikan","type":"string"}],"internalType":"struct CdobCertificate.DokumenReSertifikasi","name":"newDokus","type":"tuple"}],"name":"extendCdob","outputs":[],"stateMutability":"nonpayable","type":"function"},{"inputs":[{"internalType":"string","name":"cpotbId","type":"string"},{"internalType":"uint256","name":"expTimestamp","type":"uint256"},{"components":[{"internalType":"string","name":"suratPermohonan","type":"string"},{"internalType":"string","name":"buktiPembayaranNegaraBukanPajak","type":"string"},{"internalType":"string","name":"denahBangunan","type":"string"},{"internalType":"string","name":"sistemMutu","type":"string"},{"internalType":"string","name":"cpotbIpfs","type":"string"},{"internalType":"string","name":"dokumenCapa","type":"string"}],"internalType":"struct CpotbCertificate.DokumenReSertifikasi","name":"newDoku","type":"tuple"}],"name":"extendCpotb","outputs":[],"stateMutability":"nonpayable","type":"function"},{"inputs":[],"name":"getAllCdob","outputs":[{"components":[{"internalType":"string","name":"certId","type":"string"},{"internalType":"string","name":"certNumber","type":"string"},{"internalType":"string","name":"instanceName","type":"string"},{"internalType":"uint8","name":"tipePermohonan","type":"uint8"},{"internalType":"enum EnumsLibrary.StatusCertificate","name":"status","type":"uint8"},{"internalType":"string","name":"certHash","type":"string"},{"internalType":"uint256","name":"expiredTimestamp","type":"uint256"}],"internalType":"struct CdobCertificate.CertificateList[]","name":"","type":"tuple[]"}],"stateMutability":"view","type":"function"},{"inputs":[],"name":"getAllCpotb","outputs":[{"components":[{"internalType":"string","name":"certId","type":"string"},{"internalType":"string","name":"certNumber","type":"string"},{"internalType":"string","name":"instanceName","type":"string"},{"internalType":"uint8","name":"tipePermohonan","type":"uint8"},{"internalType":"enum EnumsLibrary.StatusCertificate","name":"status","type":"uint8"},{"internalType":"string","name":"certHash","type":"string"},{"internalType":"uint256","name":"expiredTimestamp","type":"uint256"}],"internalType":"struct CpotbCertificate.CertificateList[]","name":"","type":"tuple[]"}],"stateMutability":"view","type":"function"},{"inputs":[{"internalType":"string","name":"instanceName","type":"string"}],"name":"getCdobByInstance","outputs":[{"components":[{"internalType":"string","name":"certId","type":"string"},{"internalType":"string","name":"certNumber","type":"string"},{"internalType":"string","name":"instanceName","type":"string"},{"internalType":"uint8","name":"tipePermohonan","type":"uint8"},{"internalType":"enum EnumsLibrary.StatusCertificate","name":"status","type":"uint8"},{"internalType":"string","name":"certHash","type":"string"},{"internalType":"uint256","name":"expiredTimestamp","type":"uint256"}],"internalType":"struct CdobCertificate.CertificateList[]","name":"","type":"tuple[]"}],"stateMutability":"view","type":"function"},{"inputs":[{"internalType":"string","name":"certId","type":"string"}],"name":"getCdobDetails","outputs":[{"components":[{"internalType":"enum EnumsLibrary.StatusCertificate","name":"status","type":"uint8"},{"internalType":"uint256","name":"timestampRequest","type":"uint256"},{"internalType":"uint256","name":"timestampApprove","type":"uint256"},{"internalType":"uint256","name":"timestampRejected","type":"uint256"},{"internalType":"uint256","name":"timestampRenewRequest","type":"uint256"},{"internalType":"uint256","name":"timestampExpired","type":"uint256"},{"internalType":"uint256","name":"timestampExtendRequest","type":"uint256"},{"internalType":"uint256","name":"timestampExtendApprove","type":"uint256"},{"components":[{"internalType":"string","name":"userName","type":"string"},{"internalType":"string","name":"userInstance","type":"string"},{"internalType":"address","name":"userAddr","type":"address"}],"internalType":"struct BaseCertificate.UserCert","name":"sender","type":"tuple"},{"components":[{"internalType":"string","name":"userName","type":"string"},{"internalType":"string","name":"userInstance","type":"string"},{"internalType":"address","name":"userAddr","type":"address"}],"internalType":"struct BaseCertificate.UserCert","name":"bpom","type":"tuple"},{"internalType":"string","name":"ipfsCert","type":"string"}],"internalType":"struct BaseCertificate.CertificateDetails","name":"","type":"tuple"},{"components":[{"internalType":"string","name":"cdobId","type":"string"},{"internalType":"string","name":"cdobNumber","type":"string"},{"internalType":"uint8","name":"tipePermohonan","type":"uint8"}],"internalType":"struct CdobCertificate.CdobData","name":"","type":"tuple"},{"components":[{"internalType":"string","name":"suratPermohonan","type":"string"},{"internalType":"string","name":"buktiPembayaranPajak","type":"string"}],"internalType":"struct CdobCertificate.DokumenAdministrasi","name":"","type":"tuple"},{"components":[{"internalType":"string","name":"suratIzinCdob","type":"string"},{"internalType":"string","name":"denahBangunan","type":"string"},{"internalType":"string","name":"strukturOrganisasi","type":"string"},{"internalType":"string","name":"daftarPersonalia","type":"string"},{"internalType":"string","name":"daftarPeralatan","type":"string"},{"internalType":"string","name":"eksekutifQualityManagement","type":"string"},{"internalType":"string","name":"suratIzinApoteker","type":"string"},{"internalType":"string","name":"dokumenSelfAssesment","type":"string"}],"internalType":"struct CdobCertificate.DokumenTeknis","name":"","type":"tuple"},{"components":[{"internalType":"string","name":"suratPernyataanPimpinan","type":"string"},{"internalType":"string","name":"dokumenInspeksiDiri","type":"string"},{"internalType":"string","name":"dokumenPerbaikan","type":"string"}],"internalType":"struct CdobCertificate.DokumenReSertifikasi","name":"","type":"tuple"}],"stateMutability":"view","type":"function"},{"inputs":[{"internalType":"string","name":"instanceName","type":"string"}],"name":"getCpotbByInstance","outputs":[{"components":[{"internalType":"string","name":"certId","type":"string"},{"internalType":"string","name":"certNumber","type":"string"},{"internalType":"string","name":"instanceName","type":"string"},{"internalType":"uint8","name":"tipePermohonan","type":"uint8"},{"internalType":"enum EnumsLibrary.StatusCertificate","name":"status","type":"uint8"},{"internalType":"string","name":"certHash","type":"string"},{"internalType":"uint256","name":"expiredTimestamp","type":"uint256"}],"internalType":"struct CpotbCertificate.CertificateList[]","name":"","type":"tuple[]"}],"stateMutability":"view","type":"function"},{"inputs":[{"internalType":"string","name":"certId","type":"string"}],"name":"getCpotbDetails","outputs":[{"components":[{"internalType":"enum EnumsLibrary.StatusCertificate","name":"status","type":"uint8"},{"internalType":"uint256","name":"timestampRequest","type":"uint256"},{"internalType":"uint256","name":"timestampApprove","type":"uint256"},{"internalType":"uint256","name":"timestampRejected","type":"uint256"},{"internalType":"uint256","name":"timestampRenewRequest","type":"uint256"},{"internalType":"uint256","name":"timestampExpired","type":"uint256"},{"internalType":"uint256","name":"timestampExtendRequest","type":"uint256"},{"internalType":"uint256","name":"timestampExtendApprove","type":"uint256"},{"components":[{"internalType":"string","name":"userName","type":"string"},{"internalType":"string","name":"userInstance","type":"string"},{"internalType":"address","name":"userAddr","type":"address"}],"internalType":"struct BaseCertificate.UserCert","name":"sender","type":"tuple"},{"components":[{"internalType":"string","name":"userName","type":"string"},{"internalType":"string","name":"userInstance","type":"string"},{"internalType":"address","name":"userAddr","type":"address"}],"internalType":"struct BaseCertificate.UserCert","name":"bpom","type":"tuple"},{"internalType":"string","name":"ipfsCert","type":"string"}],"internalType":"struct BaseCertificate.CertificateDetails","name":"","type":"tuple"},{"components":[{"internalType":"string","name":"cpotbId","type":"string"},{"internalType":"string","name":"cpotbNumber","type":"string"},{"internalType":"uint8","name":"tipePermohonan","type":"uint8"},{"internalType":"string","name":"factoryType","type":"string"}],"internalType":"struct CpotbCertificate.CpotbData","name":"","type":"tuple"},{"components":[{"internalType":"string","name":"suratPermohonan","type":"string"},{"internalType":"string","name":"buktiPembayaranNegaraBukanPajak","type":"string"},{"internalType":"string","name":"suratKomitmen","type":"string"}],"internalType":"struct CpotbCertificate.DokumenAdministrasi","name":"","type":"tuple"},{"components":[{"internalType":"string","name":"denahBangunan","type":"string"},{"internalType":"string","name":"sistemMutu","type":"string"}],"internalType":"struct CpotbCertificate.DokumenTeknis","name":"","type":"tuple"},{"components":[{"internalType":"string","name":"suratPermohonan","type":"string"},{"internalType":"string","name":"buktiPembayaranNegaraBukanPajak","type":"string"},{"internalType":"string","name":"denahBangunan","type":"string"},{"internalType":"string","name":"sistemMutu","type":"string"},{"internalType":"string","name":"cpotbIpfs","type":"string"},{"internalType":"string","name":"dokumenCapa","type":"string"}],"internalType":"struct CpotbCertificate.DokumenReSertifikasi","name":"","type":"tuple"}],"stateMutability":"view","type":"function"},{"inputs":[{"internalType":"string","name":"certId","type":"string"}],"name":"getRejectMsgCdob","outputs":[{"internalType":"string","name":"","type":"string"}],"stateMutability":"view","type":"function"},{"inputs":[{"internalType":"string","name":"certId","type":"string"}],"name":"getRejectMsgCpotb","outputs":[{"internalType":"string","name":"","type":"string"}],"stateMutability":"view","type":"function"},{"inputs":[{"internalType":"string","name":"certId","type":"string"},{"internalType":"string","name":"rejectMsg","type":"string"},{"internalType":"string","name":"bpomName","type":"string"},{"internalType":"string","name":"bpomInstance","type":"string"},{"internalType":"uint8","name":"tipePermohonan","type":"uint8"}],"name":"rejectCdob","outputs":[],"stateMutability":"nonpayable","type":"function"},{"inputs":[{"internalType":"string","name":"certId","type":"string"},{"internalType":"string","name":"rejectMsg","type":"string"},{"internalType":"string","name":"bpomName","type":"string"},{"internalType":"string","name":"bpomInstance","type":"string"},{"internalType":"uint8","name":"jenisSediaan","type":"uint8"}],"name":"rejectCpotb","outputs":[],"stateMutability":"nonpayable","type":"function"},{"inputs":[{"components":[{"internalType":"string","name":"certId","type":"string"},{"internalType":"string","name":"senderName","type":"string"},{"internalType":"string","name":"senderInstance","type":"string"},{"internalType":"address","name":"senderAddr","type":"address"}],"internalType":"struct CertificateManager.CertificateRequest","name":"reqData","type":"tuple"},{"components":[{"internalType":"string","name":"suratPermohonan","type":"string"},{"internalType":"string","name":"buktiPembayaranPajak","type":"string"}],"internalType":"struct CdobCertificate.DokumenAdministrasi","name":"newDokuAdmin","type":"tuple"},{"components":[{"internalType":"string","name":"suratIzinCdob","type":"string"},{"internalType":"string","name":"denahBangunan","type":"string"},{"internalType":"string","name":"strukturOrganisasi","type":"string"},{"internalType":"string","name":"daftarPersonalia","type":"string"},{"internalType":"string","name":"daftarPeralatan","type":"string"},{"internalType":"string","name":"eksekutifQualityManagement","type":"string"},{"internalType":"string","name":"suratIzinApoteker","type":"string"},{"internalType":"string","name":"dokumenSelfAssesment","type":"string"}],"internalType":"struct CdobCertificate.DokumenTeknis","name":"newDokuTeknis","type":"tuple"}],"name":"renewCdob","outputs":[],"stateMutability":"nonpayable","type":"function"},{"inputs":[{"components":[{"internalType":"string","name":"certId","type":"string"},{"internalType":"string","name":"senderName","type":"string"},{"internalType":"string","name":"senderInstance","type":"string"},{"internalType":"address","name":"senderAddr","type":"address"}],"internalType":"struct CertificateManager.CertificateRequest","name":"reqData","type":"tuple"},{"components":[{"internalType":"string","name":"suratPermohonan","type":"string"},{"internalType":"string","name":"buktiPembayaranNegaraBukanPajak","type":"string"},{"internalType":"string","name":"suratKomitmen","type":"string"}],"internalType":"struct CpotbCertificate.DokumenAdministrasi","name":"newDokuAdmin","type":"tuple"},{"components":[{"internalType":"string","name":"denahBangunan","type":"string"},{"internalType":"string","name":"sistemMutu","type":"string"}],"internalType":"struct CpotbCertificate.DokumenTeknis","name":"newDokuTeknis","type":"tuple"}],"name":"renewCpotb","outputs":[],"stateMutability":"nonpayable","type":"function"},{"inputs":[{"components":[{"internalType":"string","name":"certId","type":"string"},{"internalType":"string","name":"senderName","type":"string"},{"internalType":"string","name":"senderInstance","type":"string"},{"internalType":"address","name":"senderAddr","type":"address"}],"internalType":"struct CertificateManager.CertificateRequest","name":"reqData","type":"tuple"},{"internalType":"uint8","name":"tipePermohonan","type":"uint8"},{"components":[{"internalType":"string","name":"suratPermohonan","type":"string"},{"internalType":"string","name":"buktiPembayaranPajak","type":"string"}],"internalType":"struct CdobCertificate.DokumenAdministrasi","name":"dokuAdmin","type":"tuple"},{"components":[{"internalType":"string","name":"suratIzinCdob","type":"string"},{"internalType":"string","name":"denahBangunan","type":"string"},{"internalType":"string","name":"strukturOrganisasi","type":"string"},{"internalType":"string","name":"daftarPersonalia","type":"string"},{"internalType":"string","name":"daftarPeralatan","type":"string"},{"internalType":"string","name":"eksekutifQualityManagement","type":"string"},{"internalType":"string","name":"suratIzinApoteker","type":"string"},{"internalType":"string","name":"dokumenSelfAssesment","type":"string"}],"internalType":"struct CdobCertificate.DokumenTeknis","name":"dokuTeknis","type":"tuple"}],"name":"requestCdob","outputs":[],"stateMutability":"nonpayable","type":"function"},{"inputs":[{"components":[{"internalType":"string","name":"certId","type":"string"},{"internalType":"string","name":"senderName","type":"string"},{"internalType":"string","name":"senderInstance","type":"string"},{"internalType":"address","name":"senderAddr","type":"address"}],"internalType":"struct CertificateManager.CertificateRequest","name":"reqData","type":"tuple"},{"internalType":"uint8","name":"jenisSediaan","type":"uint8"},{"internalType":"string","name":"factoryType","type":"string"},{"components":[{"internalType":"string","name":"suratPermohonan","type":"string"},{"internalType":"string","name":"buktiPembayaranNegaraBukanPajak","type":"string"},{"internalType":"string","name":"suratKomitmen","type":"string"}],"internalType":"struct CpotbCertificate.DokumenAdministrasi","name":"dokuAdmin","type":"tuple"},{"components":[{"internalType":"string","name":"denahBangunan","type":"string"},{"internalType":"string","name":"sistemMutu","type":"string"}],"internalType":"struct CpotbCertificate.DokumenTeknis","name":"dokuTeknis","type":"tuple"}],"name":"requestCpotb","outputs":[],"stateMutability":"nonpayable","type":"function"},{"inputs":[],"name":"roleManager","outputs":[{"internalType":"contract RoleManager","name":"","type":"address"}],"stateMutability":"view","type":"function"}],"evm":{"bytecode":{"linkReferences":{},"object":"60e03461018657601f6133b838819003918201601f19168301916001600160401b0383118484101761018a57808492606094604052833981010312610186576100478161019e565b9061006060406100596020840161019e565b920161019e565b60015f556001600160a01b0392831660805290821660a0521660c05260405161320590816101b3823960805181818161033f015281816105620152818161068901528181610822015281816108fb01528181610ab80152818161160301528181611893015281816119f401528181611ac901528181611c2801528181611f1e0152612054015260a0518181816101d301528181610385015281816106cc0152818161093d01528181610b1b01528181611135015281816114da0152818161157e0152818161166f015281816118d50152611da2015260c05181818161013e0152818161025d015281816105a8015281816107b60152818161086401528181610cfe01528181611a3601528181611b3501528181611c8c01528181611e500152611f600152f35b5f80fd5b634e487b7160e01b5f52604160045260245ffd5b51906001600160a01b03821682036101865756fe6080806040526004361015610012575f80fd5b5f905f3560e01c908162435da5146120425750806307b11c0b14611ea157806317d9679714611e175780631a89804414611d475780631d43034914611b855780632dbcaf0f14611a8d57806341ee1495146119b05780634ad8f1a41461171e5780634e03317b146115c757806351c2d326146115235780635850607c146114b557806370c056b0146110945780637e8f8da714610c5a57806387fecd3e146109f45780639c0abfd8146108b75780639c6b1f10146107e5578063af3a1758146107a0578063b07304361461064c578063bbd0b8a9146104c8578063cb43b77f146102a6578063d0927b1914610202578063d369111d146101bd5763f14261d21461011a575f80fd5b346101ba57806003193601126101ba576040516378a130e960e11b815281816004817f00000000000000000000000000000000000000000000000000000000000000006001600160a01b03165afa9081156101af5782610188939261018c575b505060405191829182612701565b0390f35b6101a892503d8091833e6101a0818361213b565b810190612ce2565b5f8061017a565b6040513d84823e3d90fd5b80fd5b50346101ba57806003193601126101ba576040517f00000000000000000000000000000000000000000000000000000000000000006001600160a01b03168152602090f35b50346101ba5760203660031901126101ba57600435816001600160401b0382116101ba57610237610259923690600401612177565b604051809381926306f12c2360e41b8352602060048401526024830190612240565b03817f00000000000000000000000000000000000000000000000000000000000000006001600160a01b03165afa9081156101af5782610188939261018c57505060405191829182612701565b50346101ba5760603660031901126101ba576004356001600160401b038111610482576102d7903690600401612278565b816024356001600160401b038111610482576102f79036906004016121bd565b6044356001600160401b0381116104c457610316903690600401612319565b6040516395a8c58d60e01b81523360048201525f60248201526020816044816001600160a01b037f0000000000000000000000000000000000000000000000000000000000000000165afa80156104b95761037891859161048a575b50612c7a565b6103806131b1565b8351917f00000000000000000000000000000000000000000000000000000000000000006001600160a01b0316803b15610486576103e6856103f89561040a82966040519889978896879563e8002b2760e01b8752606060048801526064870190612240565b8581036003190160248701529061282d565b8381036003190160448501529061285a565b03925af180156101af5761046d575b50604080830151606084015191517fc77dd947ea8bfd0bd2706c8fad9b1178313fad6bd4cb678b9342239be4f8852892909182916104639142916001600160a01b03169084613185565b0390a16001815580f35b816104779161213b565b61048257815f610419565b5080fd5b8480fd5b6104ac915060203d6020116104b2575b6104a4818361213b565b8101906129c0565b5f610372565b503d61049a565b6040513d86823e3d90fd5b8280fd5b50346101ba5760603660031901126101ba576004356001600160401b038111610482576104f9903690600401612278565b816024356001600160401b03811161048257610519903690600401612319565b6044356001600160401b0381116104c457610538903690600401612373565b6040516395a8c58d60e01b8152336004820152600160248201526020816044816001600160a01b037f0000000000000000000000000000000000000000000000000000000000000000165afa80156104b95761059b91859161062d575b506129d8565b6105a36131b1565b8351917f00000000000000000000000000000000000000000000000000000000000000006001600160a01b0316803b15610486576106098561061b9561040a82966040519889978896879563a722652760e01b8752606060048801526064870190612240565b8581036003190160248701529061285a565b838103600319016044850152906128de565b610646915060203d6020116104b2576104a4818361213b565b5f610595565b50346101ba578061065c36612976565b6040516395a8c58d60e01b8152336004820152600260248201529091906020816044816001600160a01b037f0000000000000000000000000000000000000000000000000000000000000000165afa80156104b9576106c2918591610781575b50612ace565b6106ca6131b1565b7f00000000000000000000000000000000000000000000000000000000000000006001600160a01b031691823b1561077c5761071f92849283604051809681958294635839821b60e11b845260048401613160565b03925af180156101af57610767575b50604080513381524260208201527fea3baea71f890e421ddb5283439c0bec01bc071ddab39d723eefaba2009974469181908101610463565b816107719161213b565b6101ba57805f61072e565b505050fd5b61079a915060203d6020116104b2576104a4818361213b565b5f6106bc565b50346101ba57806003193601126101ba576040517f00000000000000000000000000000000000000000000000000000000000000006001600160a01b03168152602090f35b50346101ba57806107f536612976565b6040516395a8c58d60e01b8152336004820152600260248201529091906020816044816001600160a01b037f0000000000000000000000000000000000000000000000000000000000000000165afa80156104b95761085a9185916107815750612ace565b6108626131b1565b7f00000000000000000000000000000000000000000000000000000000000000006001600160a01b031691823b1561077c5761071f928492836040518096819582946309c6b1f160e41b845260048401613160565b50346101ba57806108c7366125c9565b6040516395a8c58d60e01b815233600482015260026024820152939591949093919290916020816044816001600160a01b037f0000000000000000000000000000000000000000000000000000000000000000165afa80156104b9576109339185916107815750612ace565b61093b6131b1565b7f00000000000000000000000000000000000000000000000000000000000000006001600160a01b031690813b156109f0578391869183896109956040519788968795869463e462dde560e01b8652339360048701612bd7565b03925af180156101af576109db575b50506104637fa4a4ed86dce7c96c7821a45fbbe8394915281a2a2fa758ab0465b199c571abfb936040519384934291339086612c35565b816109e59161213b565b6109f057835f6109a4565b8380fd5b50346101ba5760a03660031901126101ba576004356001600160401b03811161048257610a25903690600401612278565b610a2d612309565b826044356001600160401b03811161048257610a4d903690600401612177565b926064356001600160401b0381116104c457610a6d9036906004016121bd565b6084356001600160401b0381116109f057610a8c903690600401612319565b6040516395a8c58d60e01b81523360048201525f60248201529092906020816044816001600160a01b037f0000000000000000000000000000000000000000000000000000000000000000165afa8015610c4f57610af091869161048a5750612c7a565b610af86131b1565b8051602082015160408301805160609094015190986001600160a01b03918216967f0000000000000000000000000000000000000000000000000000000000000000909216939091843b15610c4b5788968793604051998a98899788966364b409ff60e01b88526004880161010090526101048801610b7691612240565b878103600319016024890152610b8b91612240565b868103600319016044880152610ba091612240565b90606486015260ff8d1660848601526003198582030160a4860152610bc491612240565b8381036003190160c4850152610bd99161282d565b8281036003190160e4840152610bee9161285a565b03925af180156101af57610c36575b50507ff52a0795d3c1a788d33423aa105be7a0aaa157621a984632251e0c2ed142d0409151906104636040519283924291339085612a99565b81610c409161213b565b6104c457825f610bfd565b8880fd5b6040513d87823e3d90fd5b50346101ba5760203660031901126101ba576004356001600160401b03811161048257610c8b903690600401612177565b610c93612e7f565b50610c9c612e5f565b50610ca5612efd565b50606060e0604051610cb6816120cd565b82815282602082015282604082015282808201528260808201528260a08201528260c08201520152610ce6612ede565b50604051637e8f8da760e01b815260206004820152907f00000000000000000000000000000000000000000000000000000000000000006001600160a01b0316838380610d366024820186612240565b0381845afa9081156104b9578485809481938295610e53575b610d78969750604051808098819463be2e232560e01b8352602060048401526024830190612240565b03915afa938415610e485786610db19795610e16575b505090610dfa610e0892610188959660405198899860a08a5260a08a019061278c565b88810360208a0152604060ff81610de6610dd48751606087526060870190612240565b60208801518682036020880152612240565b95015116910152878203604089015261285a565b9085820360608701526128de565b90838203608085015261282d565b610188955091610e3f610dfa92610e0895943d8091833e610e37818361213b565b810190613066565b95509192610d8e565b6040513d88823e3d90fd5b945094505050503d8085853e610e69818561213b565b8301916080848403126104865783516001600160401b038111611090578401906060828503126110905760405191610ea0836120e9565b80516001600160401b03811161108c5785610ebc918301612a2e565b835260208101516001600160401b03811161108c5781610ee387604093610eee9501612a2e565b602086015201612cd4565b60408301528560208601516001600160401b0381116104825785610f13918801612f94565b9160408701516001600160401b0381116104c457870196610100888803126104c45760405197610f42896120cd565b80516001600160401b0381116104865788610f5e918301612a2e565b895260208101516001600160401b0381116104865788610f7f918301612a2e565b60208a015260408101516001600160401b0381116104865788610fa3918301612a2e565b60408a015260608101516001600160401b0381116104865788610fc7918301612a2e565b60608a015260808101516001600160401b0381116104865788610feb918301612a2e565b60808a015260a08101516001600160401b038111610486578861100f918301612a2e565b60a08a015260c08101516001600160401b0381116104865788611033918301612a2e565b60c08a015260e0810151906001600160401b0382116104865761105891899101612a2e565b60e08901526060810151966001600160401b0388116109f057610d789761107f9201612f16565b9392969394879650610d4f565b8780fd5b8580fd5b50346101ba5760203660031901126101ba576004356001600160401b038111610482576110c5903690600401612177565b6110cd612e7f565b506060806040516110dd816120b2565b81815281602082015284604082015201526110f6612ede565b506110ff612efd565b50606060a060405161111081612083565b8281528260208201528260408201528280820152826080820152015260018060a01b037f00000000000000000000000000000000000000000000000000000000000000001660405163070c056b60e41b8152602060048201528381806111796024820187612240565b0381855afa9081156104b9578492858091819382956112a1575b50956111bd9596604051808098819463be2e232560e01b8352602060048401526024830190612240565b03915afa938415610e4857866111f99795611273575b505090611257611265926112496101889697604051998a9960a08b5260a08b019061278c565b89810360208b0152606061122b6112198451608085526080850190612240565b60208501518482036020860152612240565b9260ff60408201511660408401520151906060818403910152612240565b90878203604089015261282d565b90858203606087015261285a565b908382036080850152612884565b6101889550916112496112976112579361126596953d8091833e610e37818361213b565b96505091926111d3565b955093505050503d8085843e6112b7818461213b565b8201916080818403126104865780516001600160401b0381116110905781019060808285031261109057604051916112ee836120b2565b80516001600160401b03811161108c578561130a918301612a2e565b835260208101516001600160401b03811161108c578561132b918301612a2e565b602084015261133c60408201612cd4565b60408401526060810151906001600160401b03821161108c5761136191869101612a2e565b60608301528560208201516001600160401b0381116104825785611386918401612f16565b9560408301516001600160401b0381116104c457866113a6918501612f94565b926060810151906001600160401b0382116109f057019360c0858803126104c457604051946113d486612083565b80516001600160401b03811161048657886113f0918301612a2e565b865260208101516001600160401b0381116104865788611411918301612a2e565b602087015260408101516001600160401b0381116104865788611435918301612a2e565b604087015260608101516001600160401b0381116104865788611459918301612a2e565b606087015260808101516001600160401b038111610486578861147d918301612a2e565b608087015260a0810151976001600160401b038911610486576111bd986114a49201612a2e565b60a086015296929394909695611193565b50346101ba57806003193601126101ba57604051631614181f60e21b815281816004817f00000000000000000000000000000000000000000000000000000000000000006001600160a01b03165afa9081156101af5782610188939261018c57505060405191829182612701565b50346101ba5760203660031901126101ba57600435816001600160401b0382116101ba5761155861157a923690600401612177565b604051809381926381fc60a560e01b8352602060048401526024830190612240565b03817f00000000000000000000000000000000000000000000000000000000000000006001600160a01b03165afa9081156101af5782610188939261018c57505060405191829182612701565b50346101ba576115d6366124a6565b6040516395a8c58d60e01b8152336004820152600260248201529192916020816044816001600160a01b037f0000000000000000000000000000000000000000000000000000000000000000165afa8015610c4f5761163b9186916107815750612ace565b6116436131b1565b81516020830151604084015160608501805160808701519197899591946001600160a01b0393841694937f00000000000000000000000000000000000000000000000000000000000000001692909190833b1561108c576116bf8896928793604051998a9889978896630173c92160e71b885260048801612b25565b03925af180156101af57611709575b50506104637fc8c9ccc57ad2f7823680b448dd87b511b225eb0ac2e99e0aa88e7a26ebc6cbe593519251926040519384934292339086612b91565b816117139161213b565b6109f057835f6116ce565b50346101ba5760603660031901126101ba57806004356001600160401b0381116119ad57611750903690600401612177565b604435906001600160401b0382116119ab5760c060031983360301126119ab576040519161177d83612083565b80600401356001600160401b038111610486576117a09060043691840101612177565b835260248101356001600160401b038111610486576117c59060043691840101612177565b602084015260448101356001600160401b038111610486576117ed9060043691840101612177565b604084015260648101356001600160401b038111610486576118159060043691840101612177565b606084015260848101356001600160401b0381116104865761183d9060043691840101612177565b608084015260a4810135906001600160401b0382116104865760046118659236920101612177565b60a08301526040516395a8c58d60e01b81523360048201525f60248201526020816044816001600160a01b037f0000000000000000000000000000000000000000000000000000000000000000165afa80156104b9576118cb91859161048a5750612c7a565b6118d36131b1565b7f00000000000000000000000000000000000000000000000000000000000000006001600160a01b031691823b1561077c5761194e92611934858094604051968795869485936312b63c6960e21b8552606060048601526064850190612240565b906024356024850152600319848303016044850152612884565b03925af180156101af57611996575b50604080513381524260208201527f31f768961bf7d66fe1e61d4671b3cc2aa12b4dcab0587881c83f78c4e9ffa0d49181908101610463565b816119a09161213b565b6101ba57805f61195d565b505b50fd5b50346101ba57806119c0366125c9565b6040516395a8c58d60e01b815233600482015260026024820152939591949093919290916020816044816001600160a01b037f0000000000000000000000000000000000000000000000000000000000000000165afa80156104b957611a2c9185916107815750612ace565b611a346131b1565b7f00000000000000000000000000000000000000000000000000000000000000006001600160a01b031690813b156109f05783918691838961099560405197889687958694621acf2560e81b8652339360048701612bd7565b50346101ba57611a9c366124a6565b6040516395a8c58d60e01b8152336004820152600260248201529192916020816044816001600160a01b037f0000000000000000000000000000000000000000000000000000000000000000165afa8015610c4f57611b019186916107815750612ace565b611b096131b1565b81516020830151604084015160608501805160808701519197899591946001600160a01b0393841694937f00000000000000000000000000000000000000000000000000000000000000001692909190833b1561108c576116bf8896928793604051998a98899788966315c9fbf960e11b885260048801612b25565b50346101ba5760803660031901126101ba576004356001600160401b03811161048257611bb6903690600401612278565b611bbe612309565b826044356001600160401b03811161048257611bde903690600401612319565b926064356001600160401b0381116104c457611bfe903690600401612373565b6040516395a8c58d60e01b8152336004820152600160248201526020816044816001600160a01b037f0000000000000000000000000000000000000000000000000000000000000000165afa80156104b957611c6091859161062d57506129d8565b611c686131b1565b8151602083015160408401805160609095015190976001600160a01b0391821695937f00000000000000000000000000000000000000000000000000000000000000009092169291833b1561108c57879586926040519889978896879563682053d960e01b87526004870160e0905260e48701611ce491612240565b868103600319016024880152611cf991612240565b858103600319016044870152611d0e91612240565b90606485015260ff8c1660848501526003198482030160a4850152611d329161285a565b8281036003190160c4840152610bee916128de565b50346101ba5760203660031901126101ba57600435816001600160401b0382116101ba57611d7c611d9e923690600401612177565b60405180938192636d1aa7d560e01b8352602060048401526024830190612240565b03817f00000000000000000000000000000000000000000000000000000000000000006001600160a01b03165afa9081156101af57826101889392611df4575b5050604051918291602083526020830190612240565b611e1092503d8091833e611e08818361213b565b810190612a74565b5f80611dde565b50346101ba5760203660031901126101ba57600435816001600160401b0382116101ba57611d7c611e4c923690600401612177565b03817f00000000000000000000000000000000000000000000000000000000000000006001600160a01b03165afa9081156101af57826101889392611df4575050604051918291602083526020830190612240565b503461203e57606036600319011261203e576004356001600160401b03811161203e57611ed2903690600401612177565b6044356001600160401b03811161203e57611ef19036906004016121bd565b6040516395a8c58d60e01b8152336004820152600160248201529091906020816044816001600160a01b037f0000000000000000000000000000000000000000000000000000000000000000165afa801561203357611f56915f9161062d57506129d8565b611f5e6131b1565b7f00000000000000000000000000000000000000000000000000000000000000006001600160a01b031691823b1561203e57611fd992611fbf5f8094604051968795869485936307b11c0b60e01b8552606060048601526064850190612240565b90602435602485015260031984830301604485015261282d565b03925af18015612033576120205750604080513381524260208201527f31f768961bf7d66fe1e61d4671b3cc2aa12b4dcab0587881c83f78c4e9ffa0d49181908101610463565b61202c91505f9061213b565b5f5f61195d565b6040513d5f823e3d90fd5b5f80fd5b3461203e575f36600319011261203e577f00000000000000000000000000000000000000000000000000000000000000006001600160a01b03168152602090f35b60c081019081106001600160401b0382111761209e57604052565b634e487b7160e01b5f52604160045260245ffd5b608081019081106001600160401b0382111761209e57604052565b61010081019081106001600160401b0382111761209e57604052565b606081019081106001600160401b0382111761209e57604052565b604081019081106001600160401b0382111761209e57604052565b61016081019081106001600160401b0382111761209e57604052565b90601f801991011681019081106001600160401b0382111761209e57604052565b6001600160401b03811161209e57601f01601f191660200190565b81601f8201121561203e5780359061218e8261215c565b9261219c604051948561213b565b8284526020838301011161203e57815f926020809301838601378301015290565b919060608382031261203e57604051906121d6826120e9565b819380356001600160401b03811161203e57826121f4918301612177565b835260208101356001600160401b03811161203e5782612215918301612177565b60208401526040810135916001600160401b03831161203e5760409261223b9201612177565b910152565b805180835260209291819084018484015e5f828201840152601f01601f1916010190565b35906001600160a01b038216820361203e57565b91909160808184031261203e5760405190612292826120b2565b819381356001600160401b03811161203e57816122b0918401612177565b835260208201356001600160401b03811161203e57816122d1918401612177565b60208401526040820135906001600160401b03821161203e57826122fe6060949261223b94869401612177565b604086015201612264565b6024359060ff8216820361203e57565b919060408382031261203e576040519061233282612104565b819380356001600160401b03811161203e5782612350918301612177565b83526020810135916001600160401b03831161203e5760209261223b9201612177565b91906101008382031261203e576040519061238d826120cd565b819380356001600160401b03811161203e57826123ab918301612177565b835260208101356001600160401b03811161203e57826123cc918301612177565b602084015260408101356001600160401b03811161203e57826123f0918301612177565b604084015260608101356001600160401b03811161203e5782612414918301612177565b606084015260808101356001600160401b03811161203e5782612438918301612177565b608084015260a08101356001600160401b03811161203e578261245c918301612177565b60a084015260c08101356001600160401b03811161203e5782612480918301612177565b60c084015260e0810135916001600160401b03831161203e5760e09261223b9201612177565b90606060031983011261203e576004356001600160401b03811161203e5760a0818403600319011261203e576040519060a082018281106001600160401b0382111761209e5760405280600401356001600160401b03811161203e5784600461251192840101612177565b825260248101356001600160401b03811161203e5784600461253592840101612177565b602083015260448101356001600160401b03811161203e5784600461255c92840101612177565b604083015260648101356001600160401b03811161203e5781612589866004608494612594960101612177565b606085015201612264565b608082015291602435906001600160401b03821161203e576125b891600401612177565b9060443560ff8116810361203e5790565b9060a060031983011261203e576004356001600160401b03811161203e57826125f491600401612177565b916024356001600160401b03811161203e578161261391600401612177565b916044356001600160401b03811161203e578261263291600401612177565b91606435906001600160401b03821161203e5761265191600401612177565b9060843560ff8116810361203e5790565b90600782101561266f5752565b634e487b7160e01b5f52602160045260245ffd5b9060c0806126f86126c76126b56126a3875160e0885260e0880190612240565b60208801518782036020890152612240565b60408701518682036040880152612240565b60ff60608701511660608601526126e660808701516080870190612662565b60a086015185820360a0870152612240565b93015191015290565b602081016020825282518091526040820191602060408360051b8301019401925f915b83831061273357505050505090565b9091929394602080612751600193603f198682030187528951612683565b97019301930191939290612724565b9060406127796112198451606085526060850190612240565b928101516001600160a01b031691015290565b61282a9161279b818351612662565b6020820151602082015260408201516040820152606082015160608201526080820151608082015260a082015160a082015260c082015160c082015260e082015160e0820152610140612818612804610100850151610160610100860152610160850190612760565b610120850151848203610120860152612760565b92015190610140818403910152612240565b90565b61282a9160406128496112198451606085526060850190612240565b920151906040818403910152612240565b61282a9160206128738351604084526040840190612240565b920151906020818403910152612240565b61282a9160a06128cd6128bb6128a96126b56126a3875160c0885260c0880190612240565b60608601518582036060870152612240565b60808501518482036080860152612240565b9201519060a0818403910152612240565b61282a9160e06129656129536126e661294161292f61291d61290b89516101008a526101008a0190612240565b60208a015189820360208b0152612240565b604089015188820360408a0152612240565b60608801518782036060890152612240565b60808701518682036080880152612240565b60c085015184820360c0860152612240565b9201519060e0818403910152612240565b90604060031983011261203e576004356001600160401b03811161203e57826129a191600401612177565b91602435906001600160401b03821161203e5761282a91600401612177565b9081602091031261203e5751801515810361203e5790565b156129df57565b60405162461bcd60e51b815260206004820152602160248201527f4f6e6c79205042462063616e20646f2074686973207472616e73616374696f6e6044820152602160f81b6064820152608490fd5b81601f8201121561203e57805190612a458261215c565b92612a53604051948561213b565b8284526020838301011161203e57815f9260208093018386015e8301015290565b9060208282031261203e5781516001600160401b03811161203e5761282a9201612a2e565b90606092959493612ab460ff92608085526080850190612240565b6001600160a01b0390971660208401521660408201520152565b15612ad557565b60405162461bcd60e51b815260206004820152602260248201527f4f6e6c792042504f4d2063616e20646f2074686973207472616e73616374696f6044820152616e2160f01b6064820152608490fd5b92612b6490612b56612b7294612b4861282a9a989560c0895260c0890190612240565b908782036020890152612240565b908582036040870152612240565b908382036060850152612240565b6001600160a01b03909316608082015280830360a09190910152612240565b95949360ff608094612baf612bd2959460a08b5260a08b0190612240565b6001600160a01b0390941660208a01521660408801528682036060880152612240565b930152565b9390608093612c09612c2594612bfb612c17949a999a60a08a5260a08a0190612240565b9088820360208a0152612240565b908682036040880152612240565b908482036060860152612240565b6001600160a01b03909416910152565b91939061282a9593612c5160ff9260a0865260a0860190612240565b6001600160a01b0390961660208501521660408301526060820152808303608090910152612240565b15612c8157565b60405162461bcd60e51b815260206004820152602560248201527f4f6e6c7920466163746f72792063616e20646f2074686973207472616e73616360448201526474696f6e2160d81b6064820152608490fd5b519060ff8216820361203e57565b60208183031261203e578051906001600160401b03821161203e570181601f8201121561203e578051906001600160401b03821161209e5760208260051b0192612d2f604051948561213b565b82845260208085019360051b8301019181831161203e5760208101935b838510612d5b57505050505090565b84516001600160401b03811161203e5760209083010160e08185031261203e576040519160e083018381106001600160401b0382111761209e5760405281516001600160401b03811161203e5785612db4918401612a2e565b835260208201516001600160401b03811161203e5785612dd5918401612a2e565b602084015260408201516001600160401b03811161203e5785612df9918401612a2e565b6040840152612e0a60608301612cd4565b60608401526080820151600781101561203e57608084015260a0820151926001600160401b03841161203e5760c083612e4888602097889701612a2e565b60a0840152015160c0820152815201940193612d4c565b60405190612e6c826120e9565b5f60408360608152606060208201520152565b60405190612e8c8261211f565b6060610140835f81525f60208201525f60408201525f838201525f60808201525f60a08201525f60c08201525f60e0820152612ec6612e5f565b610100820152612ed4612e5f565b6101208201520152565b60405190612eeb826120e9565b60606040838281528260208201520152565b60405190612f0a82612104565b60606020838281520152565b919060608382031261203e5760405190612f2f826120e9565b819380516001600160401b03811161203e5782612f4d918301612a2e565b835260208101516001600160401b03811161203e5782612f6e918301612a2e565b60208401526040810151916001600160401b03831161203e5760409261223b9201612a2e565b919060408382031261203e5760405190612fad82612104565b819380516001600160401b03811161203e5782612fcb918301612a2e565b83526020810151916001600160401b03831161203e5760209261223b9201612a2e565b919060608382031261203e5760405190613007826120e9565b819380516001600160401b03811161203e5782613025918301612a2e565b835260208101516001600160401b03811161203e57604092613048918301612a2e565b60208401520151906001600160a01b038216820361203e5760400152565b60208183031261203e578051906001600160401b03821161203e57016101608183031261203e576040519161309a8361211f565b8151600781101561203e5783526020820151602084015260408201516040840152606082015160608401526080820151608084015260a082015160a084015260c082015160c084015260e082015160e08401526101008201516001600160401b03811161203e578161310d918401612fee565b6101008401526101208201516001600160401b03811161203e5781613133918401612fee565b6101208401526101408201516001600160401b03811161203e576131579201612a2e565b61014082015290565b909161317761282a93604084526040840190612240565b916020818403910152612240565b61319d60409295949395606083526060830190612240565b6001600160a01b0390951660208201520152565b60025f54146131c05760025f55565b633ee5aeb560e01b5f5260045ffdfea2646970667358221220e374f066a231adfb17b03c35b8c6aa9a53da6a5ac60d68d6ebf59def74d132db64736f6c634300081b0033","opcodes":"PUSH1 0xE0 CALLVALUE PUSH2 0x186 JUMPI PUSH1 0x1F PUSH2 0x33B8 CODESIZE DUP2 SWAP1 SUB SWAP2 DUP3 ADD PUSH1 0x1F NOT AND DUP4 ADD SWAP2 PUSH1 0x1 PUSH1 0x1 PUSH1 0x40 SHL SUB DUP4 GT DUP5 DUP5 LT OR PUSH2 0x18A JUMPI DUP1 DUP5 SWAP3 PUSH1 0x60 SWAP5 PUSH1 0x40 MSTORE DUP4 CODECOPY DUP2 ADD SUB SLT PUSH2 0x186 JUMPI PUSH2 0x47 DUP2 PUSH2 0x19E JUMP JUMPDEST SWAP1 PUSH2 0x60 PUSH1 0x40 PUSH2 0x59 PUSH1 0x20 DUP5 ADD PUSH2 0x19E JUMP JUMPDEST SWAP3 ADD PUSH2 0x19E JUMP JUMPDEST PUSH1 0x1 PUSH0 SSTORE PUSH1 0x1 PUSH1 0x1 PUSH1 0xA0 SHL SUB SWAP3 DUP4 AND PUSH1 0x80 MSTORE SWAP1 DUP3 AND PUSH1 0xA0 MSTORE AND PUSH1 0xC0 MSTORE PUSH1 0x40 MLOAD PUSH2 0x3205 SWAP1 DUP2 PUSH2 0x1B3 DUP3 CODECOPY PUSH1 0x80 MLOAD DUP2 DUP2 DUP2 PUSH2 0x33F ADD MSTORE DUP2 DUP2 PUSH2 0x562 ADD MSTORE DUP2 DUP2 PUSH2 0x689 ADD MSTORE DUP2 DUP2 PUSH2 0x822 ADD MSTORE DUP2 DUP2 PUSH2 0x8FB ADD MSTORE DUP2 DUP2 PUSH2 0xAB8 ADD MSTORE DUP2 DUP2 PUSH2 0x1603 ADD MSTORE DUP2 DUP2 PUSH2 0x1893 ADD MSTORE DUP2 DUP2 PUSH2 0x19F4 ADD MSTORE DUP2 DUP2 PUSH2 0x1AC9 ADD MSTORE DUP2 DUP2 PUSH2 0x1C28 ADD MSTORE DUP2 DUP2 PUSH2 0x1F1E ADD MSTORE PUSH2 0x2054 ADD MSTORE PUSH1 0xA0 MLOAD DUP2 DUP2 DUP2 PUSH2 0x1D3 ADD MSTORE DUP2 DUP2 PUSH2 0x385 ADD MSTORE DUP2 DUP2 PUSH2 0x6CC ADD MSTORE DUP2 DUP2 PUSH2 0x93D ADD MSTORE DUP2 DUP2 PUSH2 0xB1B ADD MSTORE DUP2 DUP2 PUSH2 0x1135 ADD MSTORE DUP2 DUP2 PUSH2 0x14DA ADD MSTORE DUP2 DUP2 PUSH2 0x157E ADD MSTORE DUP2 DUP2 PUSH2 0x166F ADD MSTORE DUP2 DUP2 PUSH2 0x18D5 ADD MSTORE PUSH2 0x1DA2 ADD MSTORE PUSH1 0xC0 MLOAD DUP2 DUP2 DUP2 PUSH2 0x13E ADD MSTORE DUP2 DUP2 PUSH2 0x25D ADD MSTORE DUP2 DUP2 PUSH2 0x5A8 ADD MSTORE DUP2 DUP2 PUSH2 0x7B6 ADD MSTORE DUP2 DUP2 PUSH2 0x864 ADD MSTORE DUP2 DUP2 PUSH2 0xCFE ADD MSTORE DUP2 DUP2 PUSH2 0x1A36 ADD MSTORE DUP2 DUP2 PUSH2 0x1B35 ADD MSTORE DUP2 DUP2 PUSH2 0x1C8C ADD MSTORE DUP2 DUP2 PUSH2 0x1E50 ADD MSTORE PUSH2 0x1F60 ADD MSTORE RETURN JUMPDEST PUSH0 DUP1 REVERT JUMPDEST PUSH4 0x4E487B71 PUSH1 0xE0 SHL PUSH0 MSTORE PUSH1 0x41 PUSH1 0x4 MSTORE PUSH1 0x24 PUSH0 REVERT JUMPDEST MLOAD SWAP1 PUSH1 0x1 PUSH1 0x1 PUSH1 0xA0 SHL SUB DUP3 AND DUP3 SUB PUSH2 0x186 JUMPI JUMP INVALID PUSH1 0x80 DUP1 PUSH1 0x40 MSTORE PUSH1 0x4 CALLDATASIZE LT ISZERO PUSH2 0x12 JUMPI PUSH0 DUP1 REVERT JUMPDEST PUSH0 SWAP1 PUSH0 CALLDATALOAD PUSH1 0xE0 SHR SWAP1 DUP2 PUSH3 0x435DA5 EQ PUSH2 0x2042 JUMPI POP DUP1 PUSH4 0x7B11C0B EQ PUSH2 0x1EA1 JUMPI DUP1 PUSH4 0x17D96797 EQ PUSH2 0x1E17 JUMPI DUP1 PUSH4 0x1A898044 EQ PUSH2 0x1D47 JUMPI DUP1 PUSH4 0x1D430349 EQ PUSH2 0x1B85 JUMPI DUP1 PUSH4 0x2DBCAF0F EQ PUSH2 0x1A8D JUMPI DUP1 PUSH4 0x41EE1495 EQ PUSH2 0x19B0 JUMPI DUP1 PUSH4 0x4AD8F1A4 EQ PUSH2 0x171E JUMPI DUP1 PUSH4 0x4E03317B EQ PUSH2 0x15C7 JUMPI DUP1 PUSH4 0x51C2D326 EQ PUSH2 0x1523 JUMPI DUP1 PUSH4 0x5850607C EQ PUSH2 0x14B5 JUMPI DUP1 PUSH4 0x70C056B0 EQ PUSH2 0x1094 JUMPI DUP1 PUSH4 0x7E8F8DA7 EQ PUSH2 0xC5A JUMPI DUP1 PUSH4 0x87FECD3E EQ PUSH2 0x9F4 JUMPI DUP1 PUSH4 0x9C0ABFD8 EQ PUSH2 0x8B7 JUMPI DUP1 PUSH4 0x9C6B1F10 EQ PUSH2 0x7E5 JUMPI DUP1 PUSH4 0xAF3A1758 EQ PUSH2 0x7A0 JUMPI DUP1 PUSH4 0xB0730436 EQ PUSH2 0x64C JUMPI DUP1 PUSH4 0xBBD0B8A9 EQ PUSH2 0x4C8 JUMPI DUP1 PUSH4 0xCB43B77F EQ PUSH2 0x2A6 JUMPI DUP1 PUSH4 0xD0927B19 EQ PUSH2 0x202 JUMPI DUP1 PUSH4 0xD369111D EQ PUSH2 0x1BD JUMPI PUSH4 0xF14261D2 EQ PUSH2 0x11A JUMPI PUSH0 DUP1 REVERT JUMPDEST CALLVALUE PUSH2 0x1BA JUMPI DUP1 PUSH1 0x3 NOT CALLDATASIZE ADD SLT PUSH2 0x1BA JUMPI PUSH1 0x40 MLOAD PUSH4 0x78A130E9 PUSH1 0xE1 SHL DUP2 MSTORE DUP2 DUP2 PUSH1 0x4 DUP2 PUSH32 0x0 PUSH1 0x1 PUSH1 0x1 PUSH1 0xA0 SHL SUB AND GAS STATICCALL SWAP1 DUP2 ISZERO PUSH2 0x1AF JUMPI DUP3 PUSH2 0x188 SWAP4 SWAP3 PUSH2 0x18C JUMPI JUMPDEST POP POP PUSH1 0x40 MLOAD SWAP2 DUP3 SWAP2 DUP3 PUSH2 0x2701 JUMP JUMPDEST SUB SWAP1 RETURN JUMPDEST PUSH2 0x1A8 SWAP3 POP RETURNDATASIZE DUP1 SWAP2 DUP4 RETURNDATACOPY PUSH2 0x1A0 DUP2 DUP4 PUSH2 0x213B JUMP JUMPDEST DUP2 ADD SWAP1 PUSH2 0x2CE2 JUMP JUMPDEST PUSH0 DUP1 PUSH2 0x17A JUMP JUMPDEST PUSH1 0x40 MLOAD RETURNDATASIZE DUP5 DUP3 RETURNDATACOPY RETURNDATASIZE SWAP1 REVERT JUMPDEST DUP1 REVERT JUMPDEST POP CALLVALUE PUSH2 0x1BA JUMPI DUP1 PUSH1 0x3 NOT CALLDATASIZE ADD SLT PUSH2 0x1BA JUMPI PUSH1 0x40 MLOAD PUSH32 0x0 PUSH1 0x1 PUSH1 0x1 PUSH1 0xA0 SHL SUB AND DUP2 MSTORE PUSH1 0x20 SWAP1 RETURN JUMPDEST POP CALLVALUE PUSH2 0x1BA JUMPI PUSH1 0x20 CALLDATASIZE PUSH1 0x3 NOT ADD SLT PUSH2 0x1BA JUMPI PUSH1 0x4 CALLDATALOAD DUP2 PUSH1 0x1 PUSH1 0x1 PUSH1 0x40 SHL SUB DUP3 GT PUSH2 0x1BA JUMPI PUSH2 0x237 PUSH2 0x259 SWAP3 CALLDATASIZE SWAP1 PUSH1 0x4 ADD PUSH2 0x2177 JUMP JUMPDEST PUSH1 0x40 MLOAD DUP1 SWAP4 DUP2 SWAP3 PUSH4 0x6F12C23 PUSH1 0xE4 SHL DUP4 MSTORE PUSH1 0x20 PUSH1 0x4 DUP5 ADD MSTORE PUSH1 0x24 DUP4 ADD SWAP1 PUSH2 0x2240 JUMP JUMPDEST SUB DUP2 PUSH32 0x0 PUSH1 0x1 PUSH1 0x1 PUSH1 0xA0 SHL SUB AND GAS STATICCALL SWAP1 DUP2 ISZERO PUSH2 0x1AF JUMPI DUP3 PUSH2 0x188 SWAP4 SWAP3 PUSH2 0x18C JUMPI POP POP PUSH1 0x40 MLOAD SWAP2 DUP3 SWAP2 DUP3 PUSH2 0x2701 JUMP JUMPDEST POP CALLVALUE PUSH2 0x1BA JUMPI PUSH1 0x60 CALLDATASIZE PUSH1 0x3 NOT ADD SLT PUSH2 0x1BA JUMPI PUSH1 0x4 CALLDATALOAD PUSH1 0x1 PUSH1 0x1 PUSH1 0x40 SHL SUB DUP2 GT PUSH2 0x482 JUMPI PUSH2 0x2D7 SWAP1 CALLDATASIZE SWAP1 PUSH1 0x4 ADD PUSH2 0x2278 JUMP JUMPDEST DUP2 PUSH1 0x24 CALLDATALOAD PUSH1 0x1 PUSH1 0x1 PUSH1 0x40 SHL SUB DUP2 GT PUSH2 0x482 JUMPI PUSH2 0x2F7 SWAP1 CALLDATASIZE SWAP1 PUSH1 0x4 ADD PUSH2 0x21BD JUMP JUMPDEST PUSH1 0x44 CALLDATALOAD PUSH1 0x1 PUSH1 0x1 PUSH1 0x40 SHL SUB DUP2 GT PUSH2 0x4C4 JUMPI PUSH2 0x316 SWAP1 CALLDATASIZE SWAP1 PUSH1 0x4 ADD PUSH2 0x2319 JUMP JUMPDEST PUSH1 0x40 MLOAD PUSH4 0x95A8C58D PUSH1 0xE0 SHL DUP2 MSTORE CALLER PUSH1 0x4 DUP3 ADD MSTORE PUSH0 PUSH1 0x24 DUP3 ADD MSTORE PUSH1 0x20 DUP2 PUSH1 0x44 DUP2 PUSH1 0x1 PUSH1 0x1 PUSH1 0xA0 SHL SUB PUSH32 0x0 AND GAS STATICCALL DUP1 ISZERO PUSH2 0x4B9 JUMPI PUSH2 0x378 SWAP2 DUP6 SWAP2 PUSH2 0x48A JUMPI JUMPDEST POP PUSH2 0x2C7A JUMP JUMPDEST PUSH2 0x380 PUSH2 0x31B1 JUMP JUMPDEST DUP4 MLOAD SWAP2 PUSH32 0x0 PUSH1 0x1 PUSH1 0x1 PUSH1 0xA0 SHL SUB AND DUP1 EXTCODESIZE ISZERO PUSH2 0x486 JUMPI PUSH2 0x3E6 DUP6 PUSH2 0x3F8 SWAP6 PUSH2 0x40A DUP3 SWAP7 PUSH1 0x40 MLOAD SWAP9 DUP10 SWAP8 DUP9 SWAP7 DUP8 SWAP6 PUSH4 0xE8002B27 PUSH1 0xE0 SHL DUP8 MSTORE PUSH1 0x60 PUSH1 0x4 DUP9 ADD MSTORE PUSH1 0x64 DUP8 ADD SWAP1 PUSH2 0x2240 JUMP JUMPDEST DUP6 DUP2 SUB PUSH1 0x3 NOT ADD PUSH1 0x24 DUP8 ADD MSTORE SWAP1 PUSH2 0x282D JUMP JUMPDEST DUP4 DUP2 SUB PUSH1 0x3 NOT ADD PUSH1 0x44 DUP6 ADD MSTORE SWAP1 PUSH2 0x285A JUMP JUMPDEST SUB SWAP3 GAS CALL DUP1 ISZERO PUSH2 0x1AF JUMPI PUSH2 0x46D JUMPI JUMPDEST POP PUSH1 0x40 DUP1 DUP4 ADD MLOAD PUSH1 0x60 DUP5 ADD MLOAD SWAP2 MLOAD PUSH32 0xC77DD947EA8BFD0BD2706C8FAD9B1178313FAD6BD4CB678B9342239BE4F88528 SWAP3 SWAP1 SWAP2 DUP3 SWAP2 PUSH2 0x463 SWAP2 TIMESTAMP SWAP2 PUSH1 0x1 PUSH1 0x1 PUSH1 0xA0 SHL SUB AND SWAP1 DUP5 PUSH2 0x3185 JUMP JUMPDEST SUB SWAP1 LOG1 PUSH1 0x1 DUP2 SSTORE DUP1 RETURN JUMPDEST DUP2 PUSH2 0x477 SWAP2 PUSH2 0x213B JUMP JUMPDEST PUSH2 0x482 JUMPI DUP2 PUSH0 PUSH2 0x419 JUMP JUMPDEST POP DUP1 REVERT JUMPDEST DUP5 DUP1 REVERT JUMPDEST PUSH2 0x4AC SWAP2 POP PUSH1 0x20 RETURNDATASIZE PUSH1 0x20 GT PUSH2 0x4B2 JUMPI JUMPDEST PUSH2 0x4A4 DUP2 DUP4 PUSH2 0x213B JUMP JUMPDEST DUP2 ADD SWAP1 PUSH2 0x29C0 JUMP JUMPDEST PUSH0 PUSH2 0x372 JUMP JUMPDEST POP RETURNDATASIZE PUSH2 0x49A JUMP JUMPDEST PUSH1 0x40 MLOAD RETURNDATASIZE DUP7 DUP3 RETURNDATACOPY RETURNDATASIZE SWAP1 REVERT JUMPDEST DUP3 DUP1 REVERT JUMPDEST POP CALLVALUE PUSH2 0x1BA JUMPI PUSH1 0x60 CALLDATASIZE PUSH1 0x3 NOT ADD SLT PUSH2 0x1BA JUMPI PUSH1 0x4 CALLDATALOAD PUSH1 0x1 PUSH1 0x1 PUSH1 0x40 SHL SUB DUP2 GT PUSH2 0x482 JUMPI PUSH2 0x4F9 SWAP1 CALLDATASIZE SWAP1 PUSH1 0x4 ADD PUSH2 0x2278 JUMP JUMPDEST DUP2 PUSH1 0x24 CALLDATALOAD PUSH1 0x1 PUSH1 0x1 PUSH1 0x40 SHL SUB DUP2 GT PUSH2 0x482 JUMPI PUSH2 0x519 SWAP1 CALLDATASIZE SWAP1 PUSH1 0x4 ADD PUSH2 0x2319 JUMP JUMPDEST PUSH1 0x44 CALLDATALOAD PUSH1 0x1 PUSH1 0x1 PUSH1 0x40 SHL SUB DUP2 GT PUSH2 0x4C4 JUMPI PUSH2 0x538 SWAP1 CALLDATASIZE SWAP1 PUSH1 0x4 ADD PUSH2 0x2373 JUMP JUMPDEST PUSH1 0x40 MLOAD PUSH4 0x95A8C58D PUSH1 0xE0 SHL DUP2 MSTORE CALLER PUSH1 0x4 DUP3 ADD MSTORE PUSH1 0x1 PUSH1 0x24 DUP3 ADD MSTORE PUSH1 0x20 DUP2 PUSH1 0x44 DUP2 PUSH1 0x1 PUSH1 0x1 PUSH1 0xA0 SHL SUB PUSH32 0x0 AND GAS STATICCALL DUP1 ISZERO PUSH2 0x4B9 JUMPI PUSH2 0x59B SWAP2 DUP6 SWAP2 PUSH2 0x62D JUMPI JUMPDEST POP PUSH2 0x29D8 JUMP JUMPDEST PUSH2 0x5A3 PUSH2 0x31B1 JUMP JUMPDEST DUP4 MLOAD SWAP2 PUSH32 0x0 PUSH1 0x1 PUSH1 0x1 PUSH1 0xA0 SHL SUB AND DUP1 EXTCODESIZE ISZERO PUSH2 0x486 JUMPI PUSH2 0x609 DUP6 PUSH2 0x61B SWAP6 PUSH2 0x40A DUP3 SWAP7 PUSH1 0x40 MLOAD SWAP9 DUP10 SWAP8 DUP9 SWAP7 DUP8 SWAP6 PUSH4 0xA7226527 PUSH1 0xE0 SHL DUP8 MSTORE PUSH1 0x60 PUSH1 0x4 DUP9 ADD MSTORE PUSH1 0x64 DUP8 ADD SWAP1 PUSH2 0x2240 JUMP JUMPDEST DUP6 DUP2 SUB PUSH1 0x3 NOT ADD PUSH1 0x24 DUP8 ADD MSTORE SWAP1 PUSH2 0x285A JUMP JUMPDEST DUP4 DUP2 SUB PUSH1 0x3 NOT ADD PUSH1 0x44 DUP6 ADD MSTORE SWAP1 PUSH2 0x28DE JUMP JUMPDEST PUSH2 0x646 SWAP2 POP PUSH1 0x20 RETURNDATASIZE PUSH1 0x20 GT PUSH2 0x4B2 JUMPI PUSH2 0x4A4 DUP2 DUP4 PUSH2 0x213B JUMP JUMPDEST PUSH0 PUSH2 0x595 JUMP JUMPDEST POP CALLVALUE PUSH2 0x1BA JUMPI DUP1 PUSH2 0x65C CALLDATASIZE PUSH2 0x2976 JUMP JUMPDEST PUSH1 0x40 MLOAD PUSH4 0x95A8C58D PUSH1 0xE0 SHL DUP2 MSTORE CALLER PUSH1 0x4 DUP3 ADD MSTORE PUSH1 0x2 PUSH1 0x24 DUP3 ADD MSTORE SWAP1 SWAP2 SWAP1 PUSH1 0x20 DUP2 PUSH1 0x44 DUP2 PUSH1 0x1 PUSH1 0x1 PUSH1 0xA0 SHL SUB PUSH32 0x0 AND GAS STATICCALL DUP1 ISZERO PUSH2 0x4B9 JUMPI PUSH2 0x6C2 SWAP2 DUP6 SWAP2 PUSH2 0x781 JUMPI JUMPDEST POP PUSH2 0x2ACE JUMP JUMPDEST PUSH2 0x6CA PUSH2 0x31B1 JUMP JUMPDEST PUSH32 0x0 PUSH1 0x1 PUSH1 0x1 PUSH1 0xA0 SHL SUB AND SWAP2 DUP3 EXTCODESIZE ISZERO PUSH2 0x77C JUMPI PUSH2 0x71F SWAP3 DUP5 SWAP3 DUP4 PUSH1 0x40 MLOAD DUP1 SWAP7 DUP2 SWAP6 DUP3 SWAP5 PUSH4 0x5839821B PUSH1 0xE1 SHL DUP5 MSTORE PUSH1 0x4 DUP5 ADD PUSH2 0x3160 JUMP JUMPDEST SUB SWAP3 GAS CALL DUP1 ISZERO PUSH2 0x1AF JUMPI PUSH2 0x767 JUMPI JUMPDEST POP PUSH1 0x40 DUP1 MLOAD CALLER DUP2 MSTORE TIMESTAMP PUSH1 0x20 DUP3 ADD MSTORE PUSH32 0xEA3BAEA71F890E421DDB5283439C0BEC01BC071DDAB39D723EEFABA200997446 SWAP2 DUP2 SWAP1 DUP2 ADD PUSH2 0x463 JUMP JUMPDEST DUP2 PUSH2 0x771 SWAP2 PUSH2 0x213B JUMP JUMPDEST PUSH2 0x1BA JUMPI DUP1 PUSH0 PUSH2 0x72E JUMP JUMPDEST POP POP POP REVERT JUMPDEST PUSH2 0x79A SWAP2 POP PUSH1 0x20 RETURNDATASIZE PUSH1 0x20 GT PUSH2 0x4B2 JUMPI PUSH2 0x4A4 DUP2 DUP4 PUSH2 0x213B JUMP JUMPDEST PUSH0 PUSH2 0x6BC JUMP JUMPDEST POP CALLVALUE PUSH2 0x1BA JUMPI DUP1 PUSH1 0x3 NOT CALLDATASIZE ADD SLT PUSH2 0x1BA JUMPI PUSH1 0x40 MLOAD PUSH32 0x0 PUSH1 0x1 PUSH1 0x1 PUSH1 0xA0 SHL SUB AND DUP2 MSTORE PUSH1 0x20 SWAP1 RETURN JUMPDEST POP CALLVALUE PUSH2 0x1BA JUMPI DUP1 PUSH2 0x7F5 CALLDATASIZE PUSH2 0x2976 JUMP JUMPDEST PUSH1 0x40 MLOAD PUSH4 0x95A8C58D PUSH1 0xE0 SHL DUP2 MSTORE CALLER PUSH1 0x4 DUP3 ADD MSTORE PUSH1 0x2 PUSH1 0x24 DUP3 ADD MSTORE SWAP1 SWAP2 SWAP1 PUSH1 0x20 DUP2 PUSH1 0x44 DUP2 PUSH1 0x1 PUSH1 0x1 PUSH1 0xA0 SHL SUB PUSH32 0x0 AND GAS STATICCALL DUP1 ISZERO PUSH2 0x4B9 JUMPI PUSH2 0x85A SWAP2 DUP6 SWAP2 PUSH2 0x781 JUMPI POP PUSH2 0x2ACE JUMP JUMPDEST PUSH2 0x862 PUSH2 0x31B1 JUMP JUMPDEST PUSH32 0x0 PUSH1 0x1 PUSH1 0x1 PUSH1 0xA0 SHL SUB AND SWAP2 DUP3 EXTCODESIZE ISZERO PUSH2 0x77C JUMPI PUSH2 0x71F SWAP3 DUP5 SWAP3 DUP4 PUSH1 0x40 MLOAD DUP1 SWAP7 DUP2 SWAP6 DUP3 SWAP5 PUSH4 0x9C6B1F1 PUSH1 0xE4 SHL DUP5 MSTORE PUSH1 0x4 DUP5 ADD PUSH2 0x3160 JUMP JUMPDEST POP CALLVALUE PUSH2 0x1BA JUMPI DUP1 PUSH2 0x8C7 CALLDATASIZE PUSH2 0x25C9 JUMP JUMPDEST PUSH1 0x40 MLOAD PUSH4 0x95A8C58D PUSH1 0xE0 SHL DUP2 MSTORE CALLER PUSH1 0x4 DUP3 ADD MSTORE PUSH1 0x2 PUSH1 0x24 DUP3 ADD MSTORE SWAP4 SWAP6 SWAP2 SWAP5 SWAP1 SWAP4 SWAP2 SWAP3 SWAP1 SWAP2 PUSH1 0x20 DUP2 PUSH1 0x44 DUP2 PUSH1 0x1 PUSH1 0x1 PUSH1 0xA0 SHL SUB PUSH32 0x0 AND GAS STATICCALL DUP1 ISZERO PUSH2 0x4B9 JUMPI PUSH2 0x933 SWAP2 DUP6 SWAP2 PUSH2 0x781 JUMPI POP PUSH2 0x2ACE JUMP JUMPDEST PUSH2 0x93B PUSH2 0x31B1 JUMP JUMPDEST PUSH32 0x0 PUSH1 0x1 PUSH1 0x1 PUSH1 0xA0 SHL SUB AND SWAP1 DUP2 EXTCODESIZE ISZERO PUSH2 0x9F0 JUMPI DUP4 SWAP2 DUP7 SWAP2 DUP4 DUP10 PUSH2 0x995 PUSH1 0x40 MLOAD SWAP8 DUP9 SWAP7 DUP8 SWAP6 DUP7 SWAP5 PUSH4 0xE462DDE5 PUSH1 0xE0 SHL DUP7 MSTORE CALLER SWAP4 PUSH1 0x4 DUP8 ADD PUSH2 0x2BD7 JUMP JUMPDEST SUB SWAP3 GAS CALL DUP1 ISZERO PUSH2 0x1AF JUMPI PUSH2 0x9DB JUMPI JUMPDEST POP POP PUSH2 0x463 PUSH32 0xA4A4ED86DCE7C96C7821A45FBBE8394915281A2A2FA758AB0465B199C571ABFB SWAP4 PUSH1 0x40 MLOAD SWAP4 DUP5 SWAP4 TIMESTAMP SWAP2 CALLER SWAP1 DUP7 PUSH2 0x2C35 JUMP JUMPDEST DUP2 PUSH2 0x9E5 SWAP2 PUSH2 0x213B JUMP JUMPDEST PUSH2 0x9F0 JUMPI DUP4 PUSH0 PUSH2 0x9A4 JUMP JUMPDEST DUP4 DUP1 REVERT JUMPDEST POP CALLVALUE PUSH2 0x1BA JUMPI PUSH1 0xA0 CALLDATASIZE PUSH1 0x3 NOT ADD SLT PUSH2 0x1BA JUMPI PUSH1 0x4 CALLDATALOAD PUSH1 0x1 PUSH1 0x1 PUSH1 0x40 SHL SUB DUP2 GT PUSH2 0x482 JUMPI PUSH2 0xA25 SWAP1 CALLDATASIZE SWAP1 PUSH1 0x4 ADD PUSH2 0x2278 JUMP JUMPDEST PUSH2 0xA2D PUSH2 0x2309 JUMP JUMPDEST DUP3 PUSH1 0x44 CALLDATALOAD PUSH1 0x1 PUSH1 0x1 PUSH1 0x40 SHL SUB DUP2 GT PUSH2 0x482 JUMPI PUSH2 0xA4D SWAP1 CALLDATASIZE SWAP1 PUSH1 0x4 ADD PUSH2 0x2177 JUMP JUMPDEST SWAP3 PUSH1 0x64 CALLDATALOAD PUSH1 0x1 PUSH1 0x1 PUSH1 0x40 SHL SUB DUP2 GT PUSH2 0x4C4 JUMPI PUSH2 0xA6D SWAP1 CALLDATASIZE SWAP1 PUSH1 0x4 ADD PUSH2 0x21BD JUMP JUMPDEST PUSH1 0x84 CALLDATALOAD PUSH1 0x1 PUSH1 0x1 PUSH1 0x40 SHL SUB DUP2 GT PUSH2 0x9F0 JUMPI PUSH2 0xA8C SWAP1 CALLDATASIZE SWAP1 PUSH1 0x4 ADD PUSH2 0x2319 JUMP JUMPDEST PUSH1 0x40 MLOAD PUSH4 0x95A8C58D PUSH1 0xE0 SHL DUP2 MSTORE CALLER PUSH1 0x4 DUP3 ADD MSTORE PUSH0 PUSH1 0x24 DUP3 ADD MSTORE SWAP1 SWAP3 SWAP1 PUSH1 0x20 DUP2 PUSH1 0x44 DUP2 PUSH1 0x1 PUSH1 0x1 PUSH1 0xA0 SHL SUB PUSH32 0x0 AND GAS STATICCALL DUP1 ISZERO PUSH2 0xC4F JUMPI PUSH2 0xAF0 SWAP2 DUP7 SWAP2 PUSH2 0x48A JUMPI POP PUSH2 0x2C7A JUMP JUMPDEST PUSH2 0xAF8 PUSH2 0x31B1 JUMP JUMPDEST DUP1 MLOAD PUSH1 0x20 DUP3 ADD MLOAD PUSH1 0x40 DUP4 ADD DUP1 MLOAD PUSH1 0x60 SWAP1 SWAP5 ADD MLOAD SWAP1 SWAP9 PUSH1 0x1 PUSH1 0x1 PUSH1 0xA0 SHL SUB SWAP2 DUP3 AND SWAP7 PUSH32 0x0 SWAP1 SWAP3 AND SWAP4 SWAP1 SWAP2 DUP5 EXTCODESIZE ISZERO PUSH2 0xC4B JUMPI DUP9 SWAP7 DUP8 SWAP4 PUSH1 0x40 MLOAD SWAP10 DUP11 SWAP9 DUP10 SWAP8 DUP9 SWAP7 PUSH4 0x64B409FF PUSH1 0xE0 SHL DUP9 MSTORE PUSH1 0x4 DUP9 ADD PUSH2 0x100 SWAP1 MSTORE PUSH2 0x104 DUP9 ADD PUSH2 0xB76 SWAP2 PUSH2 0x2240 JUMP JUMPDEST DUP8 DUP2 SUB PUSH1 0x3 NOT ADD PUSH1 0x24 DUP10 ADD MSTORE PUSH2 0xB8B SWAP2 PUSH2 0x2240 JUMP JUMPDEST DUP7 DUP2 SUB PUSH1 0x3 NOT ADD PUSH1 0x44 DUP9 ADD MSTORE PUSH2 0xBA0 SWAP2 PUSH2 0x2240 JUMP JUMPDEST SWAP1 PUSH1 0x64 DUP7 ADD MSTORE PUSH1 0xFF DUP14 AND PUSH1 0x84 DUP7 ADD MSTORE PUSH1 0x3 NOT DUP6 DUP3 SUB ADD PUSH1 0xA4 DUP7 ADD MSTORE PUSH2 0xBC4 SWAP2 PUSH2 0x2240 JUMP JUMPDEST DUP4 DUP2 SUB PUSH1 0x3 NOT ADD PUSH1 0xC4 DUP6 ADD MSTORE PUSH2 0xBD9 SWAP2 PUSH2 0x282D JUMP JUMPDEST DUP3 DUP2 SUB PUSH1 0x3 NOT ADD PUSH1 0xE4 DUP5 ADD MSTORE PUSH2 0xBEE SWAP2 PUSH2 0x285A JUMP JUMPDEST SUB SWAP3 GAS CALL DUP1 ISZERO PUSH2 0x1AF JUMPI PUSH2 0xC36 JUMPI JUMPDEST POP POP PUSH32 0xF52A0795D3C1A788D33423AA105BE7A0AAA157621A984632251E0C2ED142D040 SWAP2 MLOAD SWAP1 PUSH2 0x463 PUSH1 0x40 MLOAD SWAP3 DUP4 SWAP3 TIMESTAMP SWAP2 CALLER SWAP1 DUP6 PUSH2 0x2A99 JUMP JUMPDEST DUP2 PUSH2 0xC40 SWAP2 PUSH2 0x213B JUMP JUMPDEST PUSH2 0x4C4 JUMPI DUP3 PUSH0 PUSH2 0xBFD JUMP JUMPDEST DUP9 DUP1 REVERT JUMPDEST PUSH1 0x40 MLOAD RETURNDATASIZE DUP8 DUP3 RETURNDATACOPY RETURNDATASIZE SWAP1 REVERT JUMPDEST POP CALLVALUE PUSH2 0x1BA JUMPI PUSH1 0x20 CALLDATASIZE PUSH1 0x3 NOT ADD SLT PUSH2 0x1BA JUMPI PUSH1 0x4 CALLDATALOAD PUSH1 0x1 PUSH1 0x1 PUSH1 0x40 SHL SUB DUP2 GT PUSH2 0x482 JUMPI PUSH2 0xC8B SWAP1 CALLDATASIZE SWAP1 PUSH1 0x4 ADD PUSH2 0x2177 JUMP JUMPDEST PUSH2 0xC93 PUSH2 0x2E7F JUMP JUMPDEST POP PUSH2 0xC9C PUSH2 0x2E5F JUMP JUMPDEST POP PUSH2 0xCA5 PUSH2 0x2EFD JUMP JUMPDEST POP PUSH1 0x60 PUSH1 0xE0 PUSH1 0x40 MLOAD PUSH2 0xCB6 DUP2 PUSH2 0x20CD JUMP JUMPDEST DUP3 DUP2 MSTORE DUP3 PUSH1 0x20 DUP3 ADD MSTORE DUP3 PUSH1 0x40 DUP3 ADD MSTORE DUP3 DUP1 DUP3 ADD MSTORE DUP3 PUSH1 0x80 DUP3 ADD MSTORE DUP3 PUSH1 0xA0 DUP3 ADD MSTORE DUP3 PUSH1 0xC0 DUP3 ADD MSTORE ADD MSTORE PUSH2 0xCE6 PUSH2 0x2EDE JUMP JUMPDEST POP PUSH1 0x40 MLOAD PUSH4 0x7E8F8DA7 PUSH1 0xE0 SHL DUP2 MSTORE PUSH1 0x20 PUSH1 0x4 DUP3 ADD MSTORE SWAP1 PUSH32 0x0 PUSH1 0x1 PUSH1 0x1 PUSH1 0xA0 SHL SUB AND DUP4 DUP4 DUP1 PUSH2 0xD36 PUSH1 0x24 DUP3 ADD DUP7 PUSH2 0x2240 JUMP JUMPDEST SUB DUP2 DUP5 GAS STATICCALL SWAP1 DUP2 ISZERO PUSH2 0x4B9 JUMPI DUP5 DUP6 DUP1 SWAP5 DUP2 SWAP4 DUP3 SWAP6 PUSH2 0xE53 JUMPI JUMPDEST PUSH2 0xD78 SWAP7 SWAP8 POP PUSH1 0x40 MLOAD DUP1 DUP1 SWAP9 DUP2 SWAP5 PUSH4 0xBE2E2325 PUSH1 0xE0 SHL DUP4 MSTORE PUSH1 0x20 PUSH1 0x4 DUP5 ADD MSTORE PUSH1 0x24 DUP4 ADD SWAP1 PUSH2 0x2240 JUMP JUMPDEST SUB SWAP2 GAS STATICCALL SWAP4 DUP5 ISZERO PUSH2 0xE48 JUMPI DUP7 PUSH2 0xDB1 SWAP8 SWAP6 PUSH2 0xE16 JUMPI JUMPDEST POP POP SWAP1 PUSH2 0xDFA PUSH2 0xE08 SWAP3 PUSH2 0x188 SWAP6 SWAP7 PUSH1 0x40 MLOAD SWAP9 DUP10 SWAP9 PUSH1 0xA0 DUP11 MSTORE PUSH1 0xA0 DUP11 ADD SWAP1 PUSH2 0x278C JUMP JUMPDEST DUP9 DUP2 SUB PUSH1 0x20 DUP11 ADD MSTORE PUSH1 0x40 PUSH1 0xFF DUP2 PUSH2 0xDE6 PUSH2 0xDD4 DUP8 MLOAD PUSH1 0x60 DUP8 MSTORE PUSH1 0x60 DUP8 ADD SWAP1 PUSH2 0x2240 JUMP JUMPDEST PUSH1 0x20 DUP9 ADD MLOAD DUP7 DUP3 SUB PUSH1 0x20 DUP9 ADD MSTORE PUSH2 0x2240 JUMP JUMPDEST SWAP6 ADD MLOAD AND SWAP2 ADD MSTORE DUP8 DUP3 SUB PUSH1 0x40 DUP10 ADD MSTORE PUSH2 0x285A JUMP JUMPDEST SWAP1 DUP6 DUP3 SUB PUSH1 0x60 DUP8 ADD MSTORE PUSH2 0x28DE JUMP JUMPDEST SWAP1 DUP4 DUP3 SUB PUSH1 0x80 DUP6 ADD MSTORE PUSH2 0x282D JUMP JUMPDEST PUSH2 0x188 SWAP6 POP SWAP2 PUSH2 0xE3F PUSH2 0xDFA SWAP3 PUSH2 0xE08 SWAP6 SWAP5 RETURNDATASIZE DUP1 SWAP2 DUP4 RETURNDATACOPY PUSH2 0xE37 DUP2 DUP4 PUSH2 0x213B JUMP JUMPDEST DUP2 ADD SWAP1 PUSH2 0x3066 JUMP JUMPDEST SWAP6 POP SWAP2 SWAP3 PUSH2 0xD8E JUMP JUMPDEST PUSH1 0x40 MLOAD RETURNDATASIZE DUP9 DUP3 RETURNDATACOPY RETURNDATASIZE SWAP1 REVERT JUMPDEST SWAP5 POP SWAP5 POP POP POP POP RETURNDATASIZE DUP1 DUP6 DUP6 RETURNDATACOPY PUSH2 0xE69 DUP2 DUP6 PUSH2 0x213B JUMP JUMPDEST DUP4 ADD SWAP2 PUSH1 0x80 DUP5 DUP5 SUB SLT PUSH2 0x486 JUMPI DUP4 MLOAD PUSH1 0x1 PUSH1 0x1 PUSH1 0x40 SHL SUB DUP2 GT PUSH2 0x1090 JUMPI DUP5 ADD SWAP1 PUSH1 0x60 DUP3 DUP6 SUB SLT PUSH2 0x1090 JUMPI PUSH1 0x40 MLOAD SWAP2 PUSH2 0xEA0 DUP4 PUSH2 0x20E9 JUMP JUMPDEST DUP1 MLOAD PUSH1 0x1 PUSH1 0x1 PUSH1 0x40 SHL SUB DUP2 GT PUSH2 0x108C JUMPI DUP6 PUSH2 0xEBC SWAP2 DUP4 ADD PUSH2 0x2A2E JUMP JUMPDEST DUP4 MSTORE PUSH1 0x20 DUP2 ADD MLOAD PUSH1 0x1 PUSH1 0x1 PUSH1 0x40 SHL SUB DUP2 GT PUSH2 0x108C JUMPI DUP2 PUSH2 0xEE3 DUP8 PUSH1 0x40 SWAP4 PUSH2 0xEEE SWAP6 ADD PUSH2 0x2A2E JUMP JUMPDEST PUSH1 0x20 DUP7 ADD MSTORE ADD PUSH2 0x2CD4 JUMP JUMPDEST PUSH1 0x40 DUP4 ADD MSTORE DUP6 PUSH1 0x20 DUP7 ADD MLOAD PUSH1 0x1 PUSH1 0x1 PUSH1 0x40 SHL SUB DUP2 GT PUSH2 0x482 JUMPI DUP6 PUSH2 0xF13 SWAP2 DUP9 ADD PUSH2 0x2F94 JUMP JUMPDEST SWAP2 PUSH1 0x40 DUP8 ADD MLOAD PUSH1 0x1 PUSH1 0x1 PUSH1 0x40 SHL SUB DUP2 GT PUSH2 0x4C4 JUMPI DUP8 ADD SWAP7 PUSH2 0x100 DUP9 DUP9 SUB SLT PUSH2 0x4C4 JUMPI PUSH1 0x40 MLOAD SWAP8 PUSH2 0xF42 DUP10 PUSH2 0x20CD JUMP JUMPDEST DUP1 MLOAD PUSH1 0x1 PUSH1 0x1 PUSH1 0x40 SHL SUB DUP2 GT PUSH2 0x486 JUMPI DUP9 PUSH2 0xF5E SWAP2 DUP4 ADD PUSH2 0x2A2E JUMP JUMPDEST DUP10 MSTORE PUSH1 0x20 DUP2 ADD MLOAD PUSH1 0x1 PUSH1 0x1 PUSH1 0x40 SHL SUB DUP2 GT PUSH2 0x486 JUMPI DUP9 PUSH2 0xF7F SWAP2 DUP4 ADD PUSH2 0x2A2E JUMP JUMPDEST PUSH1 0x20 DUP11 ADD MSTORE PUSH1 0x40 DUP2 ADD MLOAD PUSH1 0x1 PUSH1 0x1 PUSH1 0x40 SHL SUB DUP2 GT PUSH2 0x486 JUMPI DUP9 PUSH2 0xFA3 SWAP2 DUP4 ADD PUSH2 0x2A2E JUMP JUMPDEST PUSH1 0x40 DUP11 ADD MSTORE PUSH1 0x60 DUP2 ADD MLOAD PUSH1 0x1 PUSH1 0x1 PUSH1 0x40 SHL SUB DUP2 GT PUSH2 0x486 JUMPI DUP9 PUSH2 0xFC7 SWAP2 DUP4 ADD PUSH2 0x2A2E JUMP JUMPDEST PUSH1 0x60 DUP11 ADD MSTORE PUSH1 0x80 DUP2 ADD MLOAD PUSH1 0x1 PUSH1 0x1 PUSH1 0x40 SHL SUB DUP2 GT PUSH2 0x486 JUMPI DUP9 PUSH2 0xFEB SWAP2 DUP4 ADD PUSH2 0x2A2E JUMP JUMPDEST PUSH1 0x80 DUP11 ADD MSTORE PUSH1 0xA0 DUP2 ADD MLOAD PUSH1 0x1 PUSH1 0x1 PUSH1 0x40 SHL SUB DUP2 GT PUSH2 0x486 JUMPI DUP9 PUSH2 0x100F SWAP2 DUP4 ADD PUSH2 0x2A2E JUMP JUMPDEST PUSH1 0xA0 DUP11 ADD MSTORE PUSH1 0xC0 DUP2 ADD MLOAD PUSH1 0x1 PUSH1 0x1 PUSH1 0x40 SHL SUB DUP2 GT PUSH2 0x486 JUMPI DUP9 PUSH2 0x1033 SWAP2 DUP4 ADD PUSH2 0x2A2E JUMP JUMPDEST PUSH1 0xC0 DUP11 ADD MSTORE PUSH1 0xE0 DUP2 ADD MLOAD SWAP1 PUSH1 0x1 PUSH1 0x1 PUSH1 0x40 SHL SUB DUP3 GT PUSH2 0x486 JUMPI PUSH2 0x1058 SWAP2 DUP10 SWAP2 ADD PUSH2 0x2A2E JUMP JUMPDEST PUSH1 0xE0 DUP10 ADD MSTORE PUSH1 0x60 DUP2 ADD MLOAD SWAP7 PUSH1 0x1 PUSH1 0x1 PUSH1 0x40 SHL SUB DUP9 GT PUSH2 0x9F0 JUMPI PUSH2 0xD78 SWAP8 PUSH2 0x107F SWAP3 ADD PUSH2 0x2F16 JUMP JUMPDEST SWAP4 SWAP3 SWAP7 SWAP4 SWAP5 DUP8 SWAP7 POP PUSH2 0xD4F JUMP JUMPDEST DUP8 DUP1 REVERT JUMPDEST DUP6 DUP1 REVERT JUMPDEST POP CALLVALUE PUSH2 0x1BA JUMPI PUSH1 0x20 CALLDATASIZE PUSH1 0x3 NOT ADD SLT PUSH2 0x1BA JUMPI PUSH1 0x4 CALLDATALOAD PUSH1 0x1 PUSH1 0x1 PUSH1 0x40 SHL SUB DUP2 GT PUSH2 0x482 JUMPI PUSH2 0x10C5 SWAP1 CALLDATASIZE SWAP1 PUSH1 0x4 ADD PUSH2 0x2177 JUMP JUMPDEST PUSH2 0x10CD PUSH2 0x2E7F JUMP JUMPDEST POP PUSH1 0x60 DUP1 PUSH1 0x40 MLOAD PUSH2 0x10DD DUP2 PUSH2 0x20B2 JUMP JUMPDEST DUP2 DUP2 MSTORE DUP2 PUSH1 0x20 DUP3 ADD MSTORE DUP5 PUSH1 0x40 DUP3 ADD MSTORE ADD MSTORE PUSH2 0x10F6 PUSH2 0x2EDE JUMP JUMPDEST POP PUSH2 0x10FF PUSH2 0x2EFD JUMP JUMPDEST POP PUSH1 0x60 PUSH1 0xA0 PUSH1 0x40 MLOAD PUSH2 0x1110 DUP2 PUSH2 0x2083 JUMP JUMPDEST DUP3 DUP2 MSTORE DUP3 PUSH1 0x20 DUP3 ADD MSTORE DUP3 PUSH1 0x40 DUP3 ADD MSTORE DUP3 DUP1 DUP3 ADD MSTORE DUP3 PUSH1 0x80 DUP3 ADD MSTORE ADD MSTORE PUSH1 0x1 DUP1 PUSH1 0xA0 SHL SUB PUSH32 0x0 AND PUSH1 0x40 MLOAD PUSH4 0x70C056B PUSH1 0xE4 SHL DUP2 MSTORE PUSH1 0x20 PUSH1 0x4 DUP3 ADD MSTORE DUP4 DUP2 DUP1 PUSH2 0x1179 PUSH1 0x24 DUP3 ADD DUP8 PUSH2 0x2240 JUMP JUMPDEST SUB DUP2 DUP6 GAS STATICCALL SWAP1 DUP2 ISZERO PUSH2 0x4B9 JUMPI DUP5 SWAP3 DUP6 DUP1 SWAP2 DUP2 SWAP4 DUP3 SWAP6 PUSH2 0x12A1 JUMPI JUMPDEST POP SWAP6 PUSH2 0x11BD SWAP6 SWAP7 PUSH1 0x40 MLOAD DUP1 DUP1 SWAP9 DUP2 SWAP5 PUSH4 0xBE2E2325 PUSH1 0xE0 SHL DUP4 MSTORE PUSH1 0x20 PUSH1 0x4 DUP5 ADD MSTORE PUSH1 0x24 DUP4 ADD SWAP1 PUSH2 0x2240 JUMP JUMPDEST SUB SWAP2 GAS STATICCALL SWAP4 DUP5 ISZERO PUSH2 0xE48 JUMPI DUP7 PUSH2 0x11F9 SWAP8 SWAP6 PUSH2 0x1273 JUMPI JUMPDEST POP POP SWAP1 PUSH2 0x1257 PUSH2 0x1265 SWAP3 PUSH2 0x1249 PUSH2 0x188 SWAP7 SWAP8 PUSH1 0x40 MLOAD SWAP10 DUP11 SWAP10 PUSH1 0xA0 DUP12 MSTORE PUSH1 0xA0 DUP12 ADD SWAP1 PUSH2 0x278C JUMP JUMPDEST DUP10 DUP2 SUB PUSH1 0x20 DUP12 ADD MSTORE PUSH1 0x60 PUSH2 0x122B PUSH2 0x1219 DUP5 MLOAD PUSH1 0x80 DUP6 MSTORE PUSH1 0x80 DUP6 ADD SWAP1 PUSH2 0x2240 JUMP JUMPDEST PUSH1 0x20 DUP6 ADD MLOAD DUP5 DUP3 SUB PUSH1 0x20 DUP7 ADD MSTORE PUSH2 0x2240 JUMP JUMPDEST SWAP3 PUSH1 0xFF PUSH1 0x40 DUP3 ADD MLOAD AND PUSH1 0x40 DUP5 ADD MSTORE ADD MLOAD SWAP1 PUSH1 0x60 DUP2 DUP5 SUB SWAP2 ADD MSTORE PUSH2 0x2240 JUMP JUMPDEST SWAP1 DUP8 DUP3 SUB PUSH1 0x40 DUP10 ADD MSTORE PUSH2 0x282D JUMP JUMPDEST SWAP1 DUP6 DUP3 SUB PUSH1 0x60 DUP8 ADD MSTORE PUSH2 0x285A JUMP JUMPDEST SWAP1 DUP4 DUP3 SUB PUSH1 0x80 DUP6 ADD MSTORE PUSH2 0x2884 JUMP JUMPDEST PUSH2 0x188 SWAP6 POP SWAP2 PUSH2 0x1249 PUSH2 0x1297 PUSH2 0x1257 SWAP4 PUSH2 0x1265 SWAP7 SWAP6 RETURNDATASIZE DUP1 SWAP2 DUP4 RETURNDATACOPY PUSH2 0xE37 DUP2 DUP4 PUSH2 0x213B JUMP JUMPDEST SWAP7 POP POP SWAP2 SWAP3 PUSH2 0x11D3 JUMP JUMPDEST SWAP6 POP SWAP4 POP POP POP POP RETURNDATASIZE DUP1 DUP6 DUP5 RETURNDATACOPY PUSH2 0x12B7 DUP2 DUP5 PUSH2 0x213B JUMP JUMPDEST DUP3 ADD SWAP2 PUSH1 0x80 DUP2 DUP5 SUB SLT PUSH2 0x486 JUMPI DUP1 MLOAD PUSH1 0x1 PUSH1 0x1 PUSH1 0x40 SHL SUB DUP2 GT PUSH2 0x1090 JUMPI DUP2 ADD SWAP1 PUSH1 0x80 DUP3 DUP6 SUB SLT PUSH2 0x1090 JUMPI PUSH1 0x40 MLOAD SWAP2 PUSH2 0x12EE DUP4 PUSH2 0x20B2 JUMP JUMPDEST DUP1 MLOAD PUSH1 0x1 PUSH1 0x1 PUSH1 0x40 SHL SUB DUP2 GT PUSH2 0x108C JUMPI DUP6 PUSH2 0x130A SWAP2 DUP4 ADD PUSH2 0x2A2E JUMP JUMPDEST DUP4 MSTORE PUSH1 0x20 DUP2 ADD MLOAD PUSH1 0x1 PUSH1 0x1 PUSH1 0x40 SHL SUB DUP2 GT PUSH2 0x108C JUMPI DUP6 PUSH2 0x132B SWAP2 DUP4 ADD PUSH2 0x2A2E JUMP JUMPDEST PUSH1 0x20 DUP5 ADD MSTORE PUSH2 0x133C PUSH1 0x40 DUP3 ADD PUSH2 0x2CD4 JUMP JUMPDEST PUSH1 0x40 DUP5 ADD MSTORE PUSH1 0x60 DUP2 ADD MLOAD SWAP1 PUSH1 0x1 PUSH1 0x1 PUSH1 0x40 SHL SUB DUP3 GT PUSH2 0x108C JUMPI PUSH2 0x1361 SWAP2 DUP7 SWAP2 ADD PUSH2 0x2A2E JUMP JUMPDEST PUSH1 0x60 DUP4 ADD MSTORE DUP6 PUSH1 0x20 DUP3 ADD MLOAD PUSH1 0x1 PUSH1 0x1 PUSH1 0x40 SHL SUB DUP2 GT PUSH2 0x482 JUMPI DUP6 PUSH2 0x1386 SWAP2 DUP5 ADD PUSH2 0x2F16 JUMP JUMPDEST SWAP6 PUSH1 0x40 DUP4 ADD MLOAD PUSH1 0x1 PUSH1 0x1 PUSH1 0x40 SHL SUB DUP2 GT PUSH2 0x4C4 JUMPI DUP7 PUSH2 0x13A6 SWAP2 DUP6 ADD PUSH2 0x2F94 JUMP JUMPDEST SWAP3 PUSH1 0x60 DUP2 ADD MLOAD SWAP1 PUSH1 0x1 PUSH1 0x1 PUSH1 0x40 SHL SUB DUP3 GT PUSH2 0x9F0 JUMPI ADD SWAP4 PUSH1 0xC0 DUP6 DUP9 SUB SLT PUSH2 0x4C4 JUMPI PUSH1 0x40 MLOAD SWAP5 PUSH2 0x13D4 DUP7 PUSH2 0x2083 JUMP JUMPDEST DUP1 MLOAD PUSH1 0x1 PUSH1 0x1 PUSH1 0x40 SHL SUB DUP2 GT PUSH2 0x486 JUMPI DUP9 PUSH2 0x13F0 SWAP2 DUP4 ADD PUSH2 0x2A2E JUMP JUMPDEST DUP7 MSTORE PUSH1 0x20 DUP2 ADD MLOAD PUSH1 0x1 PUSH1 0x1 PUSH1 0x40 SHL SUB DUP2 GT PUSH2 0x486 JUMPI DUP9 PUSH2 0x1411 SWAP2 DUP4 ADD PUSH2 0x2A2E JUMP JUMPDEST PUSH1 0x20 DUP8 ADD MSTORE PUSH1 0x40 DUP2 ADD MLOAD PUSH1 0x1 PUSH1 0x1 PUSH1 0x40 SHL SUB DUP2 GT PUSH2 0x486 JUMPI DUP9 PUSH2 0x1435 SWAP2 DUP4 ADD PUSH2 0x2A2E JUMP JUMPDEST PUSH1 0x40 DUP8 ADD MSTORE PUSH1 0x60 DUP2 ADD MLOAD PUSH1 0x1 PUSH1 0x1 PUSH1 0x40 SHL SUB DUP2 GT PUSH2 0x486 JUMPI DUP9 PUSH2 0x1459 SWAP2 DUP4 ADD PUSH2 0x2A2E JUMP JUMPDEST PUSH1 0x60 DUP8 ADD MSTORE PUSH1 0x80 DUP2 ADD MLOAD PUSH1 0x1 PUSH1 0x1 PUSH1 0x40 SHL SUB DUP2 GT PUSH2 0x486 JUMPI DUP9 PUSH2 0x147D SWAP2 DUP4 ADD PUSH2 0x2A2E JUMP JUMPDEST PUSH1 0x80 DUP8 ADD MSTORE PUSH1 0xA0 DUP2 ADD MLOAD SWAP8 PUSH1 0x1 PUSH1 0x1 PUSH1 0x40 SHL SUB DUP10 GT PUSH2 0x486 JUMPI PUSH2 0x11BD SWAP9 PUSH2 0x14A4 SWAP3 ADD PUSH2 0x2A2E JUMP JUMPDEST PUSH1 0xA0 DUP7 ADD MSTORE SWAP7 SWAP3 SWAP4 SWAP5 SWAP1 SWAP7 SWAP6 PUSH2 0x1193 JUMP JUMPDEST POP CALLVALUE PUSH2 0x1BA JUMPI DUP1 PUSH1 0x3 NOT CALLDATASIZE ADD SLT PUSH2 0x1BA JUMPI PUSH1 0x40 MLOAD PUSH4 0x1614181F PUSH1 0xE2 SHL DUP2 MSTORE DUP2 DUP2 PUSH1 0x4 DUP2 PUSH32 0x0 PUSH1 0x1 PUSH1 0x1 PUSH1 0xA0 SHL SUB AND GAS STATICCALL SWAP1 DUP2 ISZERO PUSH2 0x1AF JUMPI DUP3 PUSH2 0x188 SWAP4 SWAP3 PUSH2 0x18C JUMPI POP POP PUSH1 0x40 MLOAD SWAP2 DUP3 SWAP2 DUP3 PUSH2 0x2701 JUMP JUMPDEST POP CALLVALUE PUSH2 0x1BA JUMPI PUSH1 0x20 CALLDATASIZE PUSH1 0x3 NOT ADD SLT PUSH2 0x1BA JUMPI PUSH1 0x4 CALLDATALOAD DUP2 PUSH1 0x1 PUSH1 0x1 PUSH1 0x40 SHL SUB DUP3 GT PUSH2 0x1BA JUMPI PUSH2 0x1558 PUSH2 0x157A SWAP3 CALLDATASIZE SWAP1 PUSH1 0x4 ADD PUSH2 0x2177 JUMP JUMPDEST PUSH1 0x40 MLOAD DUP1 SWAP4 DUP2 SWAP3 PUSH4 0x81FC60A5 PUSH1 0xE0 SHL DUP4 MSTORE PUSH1 0x20 PUSH1 0x4 DUP5 ADD MSTORE PUSH1 0x24 DUP4 ADD SWAP1 PUSH2 0x2240 JUMP JUMPDEST SUB DUP2 PUSH32 0x0 PUSH1 0x1 PUSH1 0x1 PUSH1 0xA0 SHL SUB AND GAS STATICCALL SWAP1 DUP2 ISZERO PUSH2 0x1AF JUMPI DUP3 PUSH2 0x188 SWAP4 SWAP3 PUSH2 0x18C JUMPI POP POP PUSH1 0x40 MLOAD SWAP2 DUP3 SWAP2 DUP3 PUSH2 0x2701 JUMP JUMPDEST POP CALLVALUE PUSH2 0x1BA JUMPI PUSH2 0x15D6 CALLDATASIZE PUSH2 0x24A6 JUMP JUMPDEST PUSH1 0x40 MLOAD PUSH4 0x95A8C58D PUSH1 0xE0 SHL DUP2 MSTORE CALLER PUSH1 0x4 DUP3 ADD MSTORE PUSH1 0x2 PUSH1 0x24 DUP3 ADD MSTORE SWAP2 SWAP3 SWAP2 PUSH1 0x20 DUP2 PUSH1 0x44 DUP2 PUSH1 0x1 PUSH1 0x1 PUSH1 0xA0 SHL SUB PUSH32 0x0 AND GAS STATICCALL DUP1 ISZERO PUSH2 0xC4F JUMPI PUSH2 0x163B SWAP2 DUP7 SWAP2 PUSH2 0x781 JUMPI POP PUSH2 0x2ACE JUMP JUMPDEST PUSH2 0x1643 PUSH2 0x31B1 JUMP JUMPDEST DUP2 MLOAD PUSH1 0x20 DUP4 ADD MLOAD PUSH1 0x40 DUP5 ADD MLOAD PUSH1 0x60 DUP6 ADD DUP1 MLOAD PUSH1 0x80 DUP8 ADD MLOAD SWAP2 SWAP8 DUP10 SWAP6 SWAP2 SWAP5 PUSH1 0x1 PUSH1 0x1 PUSH1 0xA0 SHL SUB SWAP4 DUP5 AND SWAP5 SWAP4 PUSH32 0x0 AND SWAP3 SWAP1 SWAP2 SWAP1 DUP4 EXTCODESIZE ISZERO PUSH2 0x108C JUMPI PUSH2 0x16BF DUP9 SWAP7 SWAP3 DUP8 SWAP4 PUSH1 0x40 MLOAD SWAP10 DUP11 SWAP9 DUP10 SWAP8 DUP9 SWAP7 PUSH4 0x173C921 PUSH1 0xE7 SHL DUP9 MSTORE PUSH1 0x4 DUP9 ADD PUSH2 0x2B25 JUMP JUMPDEST SUB SWAP3 GAS CALL DUP1 ISZERO PUSH2 0x1AF JUMPI PUSH2 0x1709 JUMPI JUMPDEST POP POP PUSH2 0x463 PUSH32 0xC8C9CCC57AD2F7823680B448DD87B511B225EB0AC2E99E0AA88E7A26EBC6CBE5 SWAP4 MLOAD SWAP3 MLOAD SWAP3 PUSH1 0x40 MLOAD SWAP4 DUP5 SWAP4 TIMESTAMP SWAP3 CALLER SWAP1 DUP7 PUSH2 0x2B91 JUMP JUMPDEST DUP2 PUSH2 0x1713 SWAP2 PUSH2 0x213B JUMP JUMPDEST PUSH2 0x9F0 JUMPI DUP4 PUSH0 PUSH2 0x16CE JUMP JUMPDEST POP CALLVALUE PUSH2 0x1BA JUMPI PUSH1 0x60 CALLDATASIZE PUSH1 0x3 NOT ADD SLT PUSH2 0x1BA JUMPI DUP1 PUSH1 0x4 CALLDATALOAD PUSH1 0x1 PUSH1 0x1 PUSH1 0x40 SHL SUB DUP2 GT PUSH2 0x19AD JUMPI PUSH2 0x1750 SWAP1 CALLDATASIZE SWAP1 PUSH1 0x4 ADD PUSH2 0x2177 JUMP JUMPDEST PUSH1 0x44 CALLDATALOAD SWAP1 PUSH1 0x1 PUSH1 0x1 PUSH1 0x40 SHL SUB DUP3 GT PUSH2 0x19AB JUMPI PUSH1 0xC0 PUSH1 0x3 NOT DUP4 CALLDATASIZE SUB ADD SLT PUSH2 0x19AB JUMPI PUSH1 0x40 MLOAD SWAP2 PUSH2 0x177D DUP4 PUSH2 0x2083 JUMP JUMPDEST DUP1 PUSH1 0x4 ADD CALLDATALOAD PUSH1 0x1 PUSH1 0x1 PUSH1 0x40 SHL SUB DUP2 GT PUSH2 0x486 JUMPI PUSH2 0x17A0 SWAP1 PUSH1 0x4 CALLDATASIZE SWAP2 DUP5 ADD ADD PUSH2 0x2177 JUMP JUMPDEST DUP4 MSTORE PUSH1 0x24 DUP2 ADD CALLDATALOAD PUSH1 0x1 PUSH1 0x1 PUSH1 0x40 SHL SUB DUP2 GT PUSH2 0x486 JUMPI PUSH2 0x17C5 SWAP1 PUSH1 0x4 CALLDATASIZE SWAP2 DUP5 ADD ADD PUSH2 0x2177 JUMP JUMPDEST PUSH1 0x20 DUP5 ADD MSTORE PUSH1 0x44 DUP2 ADD CALLDATALOAD PUSH1 0x1 PUSH1 0x1 PUSH1 0x40 SHL SUB DUP2 GT PUSH2 0x486 JUMPI PUSH2 0x17ED SWAP1 PUSH1 0x4 CALLDATASIZE SWAP2 DUP5 ADD ADD PUSH2 0x2177 JUMP JUMPDEST PUSH1 0x40 DUP5 ADD MSTORE PUSH1 0x64 DUP2 ADD CALLDATALOAD PUSH1 0x1 PUSH1 0x1 PUSH1 0x40 SHL SUB DUP2 GT PUSH2 0x486 JUMPI PUSH2 0x1815 SWAP1 PUSH1 0x4 CALLDATASIZE SWAP2 DUP5 ADD ADD PUSH2 0x2177 JUMP JUMPDEST PUSH1 0x60 DUP5 ADD MSTORE PUSH1 0x84 DUP2 ADD CALLDATALOAD PUSH1 0x1 PUSH1 0x1 PUSH1 0x40 SHL SUB DUP2 GT PUSH2 0x486 JUMPI PUSH2 0x183D SWAP1 PUSH1 0x4 CALLDATASIZE SWAP2 DUP5 ADD ADD PUSH2 0x2177 JUMP JUMPDEST PUSH1 0x80 DUP5 ADD MSTORE PUSH1 0xA4 DUP2 ADD CALLDATALOAD SWAP1 PUSH1 0x1 PUSH1 0x1 PUSH1 0x40 SHL SUB DUP3 GT PUSH2 0x486 JUMPI PUSH1 0x4 PUSH2 0x1865 SWAP3 CALLDATASIZE SWAP3 ADD ADD PUSH2 0x2177 JUMP JUMPDEST PUSH1 0xA0 DUP4 ADD MSTORE PUSH1 0x40 MLOAD PUSH4 0x95A8C58D PUSH1 0xE0 SHL DUP2 MSTORE CALLER PUSH1 0x4 DUP3 ADD MSTORE PUSH0 PUSH1 0x24 DUP3 ADD MSTORE PUSH1 0x20 DUP2 PUSH1 0x44 DUP2 PUSH1 0x1 PUSH1 0x1 PUSH1 0xA0 SHL SUB PUSH32 0x0 AND GAS STATICCALL DUP1 ISZERO PUSH2 0x4B9 JUMPI PUSH2 0x18CB SWAP2 DUP6 SWAP2 PUSH2 0x48A JUMPI POP PUSH2 0x2C7A JUMP JUMPDEST PUSH2 0x18D3 PUSH2 0x31B1 JUMP JUMPDEST PUSH32 0x0 PUSH1 0x1 PUSH1 0x1 PUSH1 0xA0 SHL SUB AND SWAP2 DUP3 EXTCODESIZE ISZERO PUSH2 0x77C JUMPI PUSH2 0x194E SWAP3 PUSH2 0x1934 DUP6 DUP1 SWAP5 PUSH1 0x40 MLOAD SWAP7 DUP8 SWAP6 DUP7 SWAP5 DUP6 SWAP4 PUSH4 0x12B63C69 PUSH1 0xE2 SHL DUP6 MSTORE PUSH1 0x60 PUSH1 0x4 DUP7 ADD MSTORE PUSH1 0x64 DUP6 ADD SWAP1 PUSH2 0x2240 JUMP JUMPDEST SWAP1 PUSH1 0x24 CALLDATALOAD PUSH1 0x24 DUP6 ADD MSTORE PUSH1 0x3 NOT DUP5 DUP4 SUB ADD PUSH1 0x44 DUP6 ADD MSTORE PUSH2 0x2884 JUMP JUMPDEST SUB SWAP3 GAS CALL DUP1 ISZERO PUSH2 0x1AF JUMPI PUSH2 0x1996 JUMPI JUMPDEST POP PUSH1 0x40 DUP1 MLOAD CALLER DUP2 MSTORE TIMESTAMP PUSH1 0x20 DUP3 ADD MSTORE PUSH32 0x31F768961BF7D66FE1E61D4671B3CC2AA12B4DCAB0587881C83F78C4E9FFA0D4 SWAP2 DUP2 SWAP1 DUP2 ADD PUSH2 0x463 JUMP JUMPDEST DUP2 PUSH2 0x19A0 SWAP2 PUSH2 0x213B JUMP JUMPDEST PUSH2 0x1BA JUMPI DUP1 PUSH0 PUSH2 0x195D JUMP JUMPDEST POP JUMPDEST POP REVERT JUMPDEST POP CALLVALUE PUSH2 0x1BA JUMPI DUP1 PUSH2 0x19C0 CALLDATASIZE PUSH2 0x25C9 JUMP JUMPDEST PUSH1 0x40 MLOAD PUSH4 0x95A8C58D PUSH1 0xE0 SHL DUP2 MSTORE CALLER PUSH1 0x4 DUP3 ADD MSTORE PUSH1 0x2 PUSH1 0x24 DUP3 ADD MSTORE SWAP4 SWAP6 SWAP2 SWAP5 SWAP1 SWAP4 SWAP2 SWAP3 SWAP1 SWAP2 PUSH1 0x20 DUP2 PUSH1 0x44 DUP2 PUSH1 0x1 PUSH1 0x1 PUSH1 0xA0 SHL SUB PUSH32 0x0 AND GAS STATICCALL DUP1 ISZERO PUSH2 0x4B9 JUMPI PUSH2 0x1A2C SWAP2 DUP6 SWAP2 PUSH2 0x781 JUMPI POP PUSH2 0x2ACE JUMP JUMPDEST PUSH2 0x1A34 PUSH2 0x31B1 JUMP JUMPDEST PUSH32 0x0 PUSH1 0x1 PUSH1 0x1 PUSH1 0xA0 SHL SUB AND SWAP1 DUP2 EXTCODESIZE ISZERO PUSH2 0x9F0 JUMPI DUP4 SWAP2 DUP7 SWAP2 DUP4 DUP10 PUSH2 0x995 PUSH1 0x40 MLOAD SWAP8 DUP9 SWAP7 DUP8 SWAP6 DUP7 SWAP5 PUSH3 0x1ACF25 PUSH1 0xE8 SHL DUP7 MSTORE CALLER SWAP4 PUSH1 0x4 DUP8 ADD PUSH2 0x2BD7 JUMP JUMPDEST POP CALLVALUE PUSH2 0x1BA JUMPI PUSH2 0x1A9C CALLDATASIZE PUSH2 0x24A6 JUMP JUMPDEST PUSH1 0x40 MLOAD PUSH4 0x95A8C58D PUSH1 0xE0 SHL DUP2 MSTORE CALLER PUSH1 0x4 DUP3 ADD MSTORE PUSH1 0x2 PUSH1 0x24 DUP3 ADD MSTORE SWAP2 SWAP3 SWAP2 PUSH1 0x20 DUP2 PUSH1 0x44 DUP2 PUSH1 0x1 PUSH1 0x1 PUSH1 0xA0 SHL SUB PUSH32 0x0 AND GAS STATICCALL DUP1 ISZERO PUSH2 0xC4F JUMPI PUSH2 0x1B01 SWAP2 DUP7 SWAP2 PUSH2 0x781 JUMPI POP PUSH2 0x2ACE JUMP JUMPDEST PUSH2 0x1B09 PUSH2 0x31B1 JUMP JUMPDEST DUP2 MLOAD PUSH1 0x20 DUP4 ADD MLOAD PUSH1 0x40 DUP5 ADD MLOAD PUSH1 0x60 DUP6 ADD DUP1 MLOAD PUSH1 0x80 DUP8 ADD MLOAD SWAP2 SWAP8 DUP10 SWAP6 SWAP2 SWAP5 PUSH1 0x1 PUSH1 0x1 PUSH1 0xA0 SHL SUB SWAP4 DUP5 AND SWAP5 SWAP4 PUSH32 0x0 AND SWAP3 SWAP1 SWAP2 SWAP1 DUP4 EXTCODESIZE ISZERO PUSH2 0x108C JUMPI PUSH2 0x16BF DUP9 SWAP7 SWAP3 DUP8 SWAP4 PUSH1 0x40 MLOAD SWAP10 DUP11 SWAP9 DUP10 SWAP8 DUP9 SWAP7 PUSH4 0x15C9FBF9 PUSH1 0xE1 SHL DUP9 MSTORE PUSH1 0x4 DUP9 ADD PUSH2 0x2B25 JUMP JUMPDEST POP CALLVALUE PUSH2 0x1BA JUMPI PUSH1 0x80 CALLDATASIZE PUSH1 0x3 NOT ADD SLT PUSH2 0x1BA JUMPI PUSH1 0x4 CALLDATALOAD PUSH1 0x1 PUSH1 0x1 PUSH1 0x40 SHL SUB DUP2 GT PUSH2 0x482 JUMPI PUSH2 0x1BB6 SWAP1 CALLDATASIZE SWAP1 PUSH1 0x4 ADD PUSH2 0x2278 JUMP JUMPDEST PUSH2 0x1BBE PUSH2 0x2309 JUMP JUMPDEST DUP3 PUSH1 0x44 CALLDATALOAD PUSH1 0x1 PUSH1 0x1 PUSH1 0x40 SHL SUB DUP2 GT PUSH2 0x482 JUMPI PUSH2 0x1BDE SWAP1 CALLDATASIZE SWAP1 PUSH1 0x4 ADD PUSH2 0x2319 JUMP JUMPDEST SWAP3 PUSH1 0x64 CALLDATALOAD PUSH1 0x1 PUSH1 0x1 PUSH1 0x40 SHL SUB DUP2 GT PUSH2 0x4C4 JUMPI PUSH2 0x1BFE SWAP1 CALLDATASIZE SWAP1 PUSH1 0x4 ADD PUSH2 0x2373 JUMP JUMPDEST PUSH1 0x40 MLOAD PUSH4 0x95A8C58D PUSH1 0xE0 SHL DUP2 MSTORE CALLER PUSH1 0x4 DUP3 ADD MSTORE PUSH1 0x1 PUSH1 0x24 DUP3 ADD MSTORE PUSH1 0x20 DUP2 PUSH1 0x44 DUP2 PUSH1 0x1 PUSH1 0x1 PUSH1 0xA0 SHL SUB PUSH32 0x0 AND GAS STATICCALL DUP1 ISZERO PUSH2 0x4B9 JUMPI PUSH2 0x1C60 SWAP2 DUP6 SWAP2 PUSH2 0x62D JUMPI POP PUSH2 0x29D8 JUMP JUMPDEST PUSH2 0x1C68 PUSH2 0x31B1 JUMP JUMPDEST DUP2 MLOAD PUSH1 0x20 DUP4 ADD MLOAD PUSH1 0x40 DUP5 ADD DUP1 MLOAD PUSH1 0x60 SWAP1 SWAP6 ADD MLOAD SWAP1 SWAP8 PUSH1 0x1 PUSH1 0x1 PUSH1 0xA0 SHL SUB SWAP2 DUP3 AND SWAP6 SWAP4 PUSH32 0x0 SWAP1 SWAP3 AND SWAP3 SWAP2 DUP4 EXTCODESIZE ISZERO PUSH2 0x108C JUMPI DUP8 SWAP6 DUP7 SWAP3 PUSH1 0x40 MLOAD SWAP9 DUP10 SWAP8 DUP9 SWAP7 DUP8 SWAP6 PUSH4 0x682053D9 PUSH1 0xE0 SHL DUP8 MSTORE PUSH1 0x4 DUP8 ADD PUSH1 0xE0 SWAP1 MSTORE PUSH1 0xE4 DUP8 ADD PUSH2 0x1CE4 SWAP2 PUSH2 0x2240 JUMP JUMPDEST DUP7 DUP2 SUB PUSH1 0x3 NOT ADD PUSH1 0x24 DUP9 ADD MSTORE PUSH2 0x1CF9 SWAP2 PUSH2 0x2240 JUMP JUMPDEST DUP6 DUP2 SUB PUSH1 0x3 NOT ADD PUSH1 0x44 DUP8 ADD MSTORE PUSH2 0x1D0E SWAP2 PUSH2 0x2240 JUMP JUMPDEST SWAP1 PUSH1 0x64 DUP6 ADD MSTORE PUSH1 0xFF DUP13 AND PUSH1 0x84 DUP6 ADD MSTORE PUSH1 0x3 NOT DUP5 DUP3 SUB ADD PUSH1 0xA4 DUP6 ADD MSTORE PUSH2 0x1D32 SWAP2 PUSH2 0x285A JUMP JUMPDEST DUP3 DUP2 SUB PUSH1 0x3 NOT ADD PUSH1 0xC4 DUP5 ADD MSTORE PUSH2 0xBEE SWAP2 PUSH2 0x28DE JUMP JUMPDEST POP CALLVALUE PUSH2 0x1BA JUMPI PUSH1 0x20 CALLDATASIZE PUSH1 0x3 NOT ADD SLT PUSH2 0x1BA JUMPI PUSH1 0x4 CALLDATALOAD DUP2 PUSH1 0x1 PUSH1 0x1 PUSH1 0x40 SHL SUB DUP3 GT PUSH2 0x1BA JUMPI PUSH2 0x1D7C PUSH2 0x1D9E SWAP3 CALLDATASIZE SWAP1 PUSH1 0x4 ADD PUSH2 0x2177 JUMP JUMPDEST PUSH1 0x40 MLOAD DUP1 SWAP4 DUP2 SWAP3 PUSH4 0x6D1AA7D5 PUSH1 0xE0 SHL DUP4 MSTORE PUSH1 0x20 PUSH1 0x4 DUP5 ADD MSTORE PUSH1 0x24 DUP4 ADD SWAP1 PUSH2 0x2240 JUMP JUMPDEST SUB DUP2 PUSH32 0x0 PUSH1 0x1 PUSH1 0x1 PUSH1 0xA0 SHL SUB AND GAS STATICCALL SWAP1 DUP2 ISZERO PUSH2 0x1AF JUMPI DUP3 PUSH2 0x188 SWAP4 SWAP3 PUSH2 0x1DF4 JUMPI JUMPDEST POP POP PUSH1 0x40 MLOAD SWAP2 DUP3 SWAP2 PUSH1 0x20 DUP4 MSTORE PUSH1 0x20 DUP4 ADD SWAP1 PUSH2 0x2240 JUMP JUMPDEST PUSH2 0x1E10 SWAP3 POP RETURNDATASIZE DUP1 SWAP2 DUP4 RETURNDATACOPY PUSH2 0x1E08 DUP2 DUP4 PUSH2 0x213B JUMP JUMPDEST DUP2 ADD SWAP1 PUSH2 0x2A74 JUMP JUMPDEST PUSH0 DUP1 PUSH2 0x1DDE JUMP JUMPDEST POP CALLVALUE PUSH2 0x1BA JUMPI PUSH1 0x20 CALLDATASIZE PUSH1 0x3 NOT ADD SLT PUSH2 0x1BA JUMPI PUSH1 0x4 CALLDATALOAD DUP2 PUSH1 0x1 PUSH1 0x1 PUSH1 0x40 SHL SUB DUP3 GT PUSH2 0x1BA JUMPI PUSH2 0x1D7C PUSH2 0x1E4C SWAP3 CALLDATASIZE SWAP1 PUSH1 0x4 ADD PUSH2 0x2177 JUMP JUMPDEST SUB DUP2 PUSH32 0x0 PUSH1 0x1 PUSH1 0x1 PUSH1 0xA0 SHL SUB AND GAS STATICCALL SWAP1 DUP2 ISZERO PUSH2 0x1AF JUMPI DUP3 PUSH2 0x188 SWAP4 SWAP3 PUSH2 0x1DF4 JUMPI POP POP PUSH1 0x40 MLOAD SWAP2 DUP3 SWAP2 PUSH1 0x20 DUP4 MSTORE PUSH1 0x20 DUP4 ADD SWAP1 PUSH2 0x2240 JUMP JUMPDEST POP CALLVALUE PUSH2 0x203E JUMPI PUSH1 0x60 CALLDATASIZE PUSH1 0x3 NOT ADD SLT PUSH2 0x203E JUMPI PUSH1 0x4 CALLDATALOAD PUSH1 0x1 PUSH1 0x1 PUSH1 0x40 SHL SUB DUP2 GT PUSH2 0x203E JUMPI PUSH2 0x1ED2 SWAP1 CALLDATASIZE SWAP1 PUSH1 0x4 ADD PUSH2 0x2177 JUMP JUMPDEST PUSH1 0x44 CALLDATALOAD PUSH1 0x1 PUSH1 0x1 PUSH1 0x40 SHL SUB DUP2 GT PUSH2 0x203E JUMPI PUSH2 0x1EF1 SWAP1 CALLDATASIZE SWAP1 PUSH1 0x4 ADD PUSH2 0x21BD JUMP JUMPDEST PUSH1 0x40 MLOAD PUSH4 0x95A8C58D PUSH1 0xE0 SHL DUP2 MSTORE CALLER PUSH1 0x4 DUP3 ADD MSTORE PUSH1 0x1 PUSH1 0x24 DUP3 ADD MSTORE SWAP1 SWAP2 SWAP1 PUSH1 0x20 DUP2 PUSH1 0x44 DUP2 PUSH1 0x1 PUSH1 0x1 PUSH1 0xA0 SHL SUB PUSH32 0x0 AND GAS STATICCALL DUP1 ISZERO PUSH2 0x2033 JUMPI PUSH2 0x1F56 SWAP2 PUSH0 SWAP2 PUSH2 0x62D JUMPI POP PUSH2 0x29D8 JUMP JUMPDEST PUSH2 0x1F5E PUSH2 0x31B1 JUMP JUMPDEST PUSH32 0x0 PUSH1 0x1 PUSH1 0x1 PUSH1 0xA0 SHL SUB AND SWAP2 DUP3 EXTCODESIZE ISZERO PUSH2 0x203E JUMPI PUSH2 0x1FD9 SWAP3 PUSH2 0x1FBF PUSH0 DUP1 SWAP5 PUSH1 0x40 MLOAD SWAP7 DUP8 SWAP6 DUP7 SWAP5 DUP6 SWAP4 PUSH4 0x7B11C0B PUSH1 0xE0 SHL DUP6 MSTORE PUSH1 0x60 PUSH1 0x4 DUP7 ADD MSTORE PUSH1 0x64 DUP6 ADD SWAP1 PUSH2 0x2240 JUMP JUMPDEST SWAP1 PUSH1 0x24 CALLDATALOAD PUSH1 0x24 DUP6 ADD MSTORE PUSH1 0x3 NOT DUP5 DUP4 SUB ADD PUSH1 0x44 DUP6 ADD MSTORE PUSH2 0x282D JUMP JUMPDEST SUB SWAP3 GAS CALL DUP1 ISZERO PUSH2 0x2033 JUMPI PUSH2 0x2020 JUMPI POP PUSH1 0x40 DUP1 MLOAD CALLER DUP2 MSTORE TIMESTAMP PUSH1 0x20 DUP3 ADD MSTORE PUSH32 0x31F768961BF7D66FE1E61D4671B3CC2AA12B4DCAB0587881C83F78C4E9FFA0D4 SWAP2 DUP2 SWAP1 DUP2 ADD PUSH2 0x463 JUMP JUMPDEST PUSH2 0x202C SWAP2 POP PUSH0 SWAP1 PUSH2 0x213B JUMP JUMPDEST PUSH0 PUSH0 PUSH2 0x195D JUMP JUMPDEST PUSH1 0x40 MLOAD RETURNDATASIZE PUSH0 DUP3 RETURNDATACOPY RETURNDATASIZE SWAP1 REVERT JUMPDEST PUSH0 DUP1 REVERT JUMPDEST CALLVALUE PUSH2 0x203E JUMPI PUSH0 CALLDATASIZE PUSH1 0x3 NOT ADD SLT PUSH2 0x203E JUMPI PUSH32 0x0 PUSH1 0x1 PUSH1 0x1 PUSH1 0xA0 SHL SUB AND DUP2 MSTORE PUSH1 0x20 SWAP1 RETURN JUMPDEST PUSH1 0xC0 DUP2 ADD SWAP1 DUP2 LT PUSH1 0x1 PUSH1 0x1 PUSH1 0x40 SHL SUB DUP3 GT OR PUSH2 0x209E JUMPI PUSH1 0x40 MSTORE JUMP JUMPDEST PUSH4 0x4E487B71 PUSH1 0xE0 SHL PUSH0 MSTORE PUSH1 0x41 PUSH1 0x4 MSTORE PUSH1 0x24 PUSH0 REVERT JUMPDEST PUSH1 0x80 DUP2 ADD SWAP1 DUP2 LT PUSH1 0x1 PUSH1 0x1 PUSH1 0x40 SHL SUB DUP3 GT OR PUSH2 0x209E JUMPI PUSH1 0x40 MSTORE JUMP JUMPDEST PUSH2 0x100 DUP2 ADD SWAP1 DUP2 LT PUSH1 0x1 PUSH1 0x1 PUSH1 0x40 SHL SUB DUP3 GT OR PUSH2 0x209E JUMPI PUSH1 0x40 MSTORE JUMP JUMPDEST PUSH1 0x60 DUP2 ADD SWAP1 DUP2 LT PUSH1 0x1 PUSH1 0x1 PUSH1 0x40 SHL SUB DUP3 GT OR PUSH2 0x209E JUMPI PUSH1 0x40 MSTORE JUMP JUMPDEST PUSH1 0x40 DUP2 ADD SWAP1 DUP2 LT PUSH1 0x1 PUSH1 0x1 PUSH1 0x40 SHL SUB DUP3 GT OR PUSH2 0x209E JUMPI PUSH1 0x40 MSTORE JUMP JUMPDEST PUSH2 0x160 DUP2 ADD SWAP1 DUP2 LT PUSH1 0x1 PUSH1 0x1 PUSH1 0x40 SHL SUB DUP3 GT OR PUSH2 0x209E JUMPI PUSH1 0x40 MSTORE JUMP JUMPDEST SWAP1 PUSH1 0x1F DUP1 NOT SWAP2 ADD AND DUP2 ADD SWAP1 DUP2 LT PUSH1 0x1 PUSH1 0x1 PUSH1 0x40 SHL SUB DUP3 GT OR PUSH2 0x209E JUMPI PUSH1 0x40 MSTORE JUMP JUMPDEST PUSH1 0x1 PUSH1 0x1 PUSH1 0x40 SHL SUB DUP2 GT PUSH2 0x209E JUMPI PUSH1 0x1F ADD PUSH1 0x1F NOT AND PUSH1 0x20 ADD SWAP1 JUMP JUMPDEST DUP2 PUSH1 0x1F DUP3 ADD SLT ISZERO PUSH2 0x203E JUMPI DUP1 CALLDATALOAD SWAP1 PUSH2 0x218E DUP3 PUSH2 0x215C JUMP JUMPDEST SWAP3 PUSH2 0x219C PUSH1 0x40 MLOAD SWAP5 DUP6 PUSH2 0x213B JUMP JUMPDEST DUP3 DUP5 MSTORE PUSH1 0x20 DUP4 DUP4 ADD ADD GT PUSH2 0x203E JUMPI DUP2 PUSH0 SWAP3 PUSH1 0x20 DUP1 SWAP4 ADD DUP4 DUP7 ADD CALLDATACOPY DUP4 ADD ADD MSTORE SWAP1 JUMP JUMPDEST SWAP2 SWAP1 PUSH1 0x60 DUP4 DUP3 SUB SLT PUSH2 0x203E JUMPI PUSH1 0x40 MLOAD SWAP1 PUSH2 0x21D6 DUP3 PUSH2 0x20E9 JUMP JUMPDEST DUP2 SWAP4 DUP1 CALLDATALOAD PUSH1 0x1 PUSH1 0x1 PUSH1 0x40 SHL SUB DUP2 GT PUSH2 0x203E JUMPI DUP3 PUSH2 0x21F4 SWAP2 DUP4 ADD PUSH2 0x2177 JUMP JUMPDEST DUP4 MSTORE PUSH1 0x20 DUP2 ADD CALLDATALOAD PUSH1 0x1 PUSH1 0x1 PUSH1 0x40 SHL SUB DUP2 GT PUSH2 0x203E JUMPI DUP3 PUSH2 0x2215 SWAP2 DUP4 ADD PUSH2 0x2177 JUMP JUMPDEST PUSH1 0x20 DUP5 ADD MSTORE PUSH1 0x40 DUP2 ADD CALLDATALOAD SWAP2 PUSH1 0x1 PUSH1 0x1 PUSH1 0x40 SHL SUB DUP4 GT PUSH2 0x203E JUMPI PUSH1 0x40 SWAP3 PUSH2 0x223B SWAP3 ADD PUSH2 0x2177 JUMP JUMPDEST SWAP2 ADD MSTORE JUMP JUMPDEST DUP1 MLOAD DUP1 DUP4 MSTORE PUSH1 0x20 SWAP3 SWAP2 DUP2 SWAP1 DUP5 ADD DUP5 DUP5 ADD MCOPY PUSH0 DUP3 DUP3 ADD DUP5 ADD MSTORE PUSH1 0x1F ADD PUSH1 0x1F NOT AND ADD ADD SWAP1 JUMP JUMPDEST CALLDATALOAD SWAP1 PUSH1 0x1 PUSH1 0x1 PUSH1 0xA0 SHL SUB DUP3 AND DUP3 SUB PUSH2 0x203E JUMPI JUMP JUMPDEST SWAP2 SWAP1 SWAP2 PUSH1 0x80 DUP2 DUP5 SUB SLT PUSH2 0x203E JUMPI PUSH1 0x40 MLOAD SWAP1 PUSH2 0x2292 DUP3 PUSH2 0x20B2 JUMP JUMPDEST DUP2 SWAP4 DUP2 CALLDATALOAD PUSH1 0x1 PUSH1 0x1 PUSH1 0x40 SHL SUB DUP2 GT PUSH2 0x203E JUMPI DUP2 PUSH2 0x22B0 SWAP2 DUP5 ADD PUSH2 0x2177 JUMP JUMPDEST DUP4 MSTORE PUSH1 0x20 DUP3 ADD CALLDATALOAD PUSH1 0x1 PUSH1 0x1 PUSH1 0x40 SHL SUB DUP2 GT PUSH2 0x203E JUMPI DUP2 PUSH2 0x22D1 SWAP2 DUP5 ADD PUSH2 0x2177 JUMP JUMPDEST PUSH1 0x20 DUP5 ADD MSTORE PUSH1 0x40 DUP3 ADD CALLDATALOAD SWAP1 PUSH1 0x1 PUSH1 0x1 PUSH1 0x40 SHL SUB DUP3 GT PUSH2 0x203E JUMPI DUP3 PUSH2 0x22FE PUSH1 0x60 SWAP5 SWAP3 PUSH2 0x223B SWAP5 DUP7 SWAP5 ADD PUSH2 0x2177 JUMP JUMPDEST PUSH1 0x40 DUP7 ADD MSTORE ADD PUSH2 0x2264 JUMP JUMPDEST PUSH1 0x24 CALLDATALOAD SWAP1 PUSH1 0xFF DUP3 AND DUP3 SUB PUSH2 0x203E JUMPI JUMP JUMPDEST SWAP2 SWAP1 PUSH1 0x40 DUP4 DUP3 SUB SLT PUSH2 0x203E JUMPI PUSH1 0x40 MLOAD SWAP1 PUSH2 0x2332 DUP3 PUSH2 0x2104 JUMP JUMPDEST DUP2 SWAP4 DUP1 CALLDATALOAD PUSH1 0x1 PUSH1 0x1 PUSH1 0x40 SHL SUB DUP2 GT PUSH2 0x203E JUMPI DUP3 PUSH2 0x2350 SWAP2 DUP4 ADD PUSH2 0x2177 JUMP JUMPDEST DUP4 MSTORE PUSH1 0x20 DUP2 ADD CALLDATALOAD SWAP2 PUSH1 0x1 PUSH1 0x1 PUSH1 0x40 SHL SUB DUP4 GT PUSH2 0x203E JUMPI PUSH1 0x20 SWAP3 PUSH2 0x223B SWAP3 ADD PUSH2 0x2177 JUMP JUMPDEST SWAP2 SWAP1 PUSH2 0x100 DUP4 DUP3 SUB SLT PUSH2 0x203E JUMPI PUSH1 0x40 MLOAD SWAP1 PUSH2 0x238D DUP3 PUSH2 0x20CD JUMP JUMPDEST DUP2 SWAP4 DUP1 CALLDATALOAD PUSH1 0x1 PUSH1 0x1 PUSH1 0x40 SHL SUB DUP2 GT PUSH2 0x203E JUMPI DUP3 PUSH2 0x23AB SWAP2 DUP4 ADD PUSH2 0x2177 JUMP JUMPDEST DUP4 MSTORE PUSH1 0x20 DUP2 ADD CALLDATALOAD PUSH1 0x1 PUSH1 0x1 PUSH1 0x40 SHL SUB DUP2 GT PUSH2 0x203E JUMPI DUP3 PUSH2 0x23CC SWAP2 DUP4 ADD PUSH2 0x2177 JUMP JUMPDEST PUSH1 0x20 DUP5 ADD MSTORE PUSH1 0x40 DUP2 ADD CALLDATALOAD PUSH1 0x1 PUSH1 0x1 PUSH1 0x40 SHL SUB DUP2 GT PUSH2 0x203E JUMPI DUP3 PUSH2 0x23F0 SWAP2 DUP4 ADD PUSH2 0x2177 JUMP JUMPDEST PUSH1 0x40 DUP5 ADD MSTORE PUSH1 0x60 DUP2 ADD CALLDATALOAD PUSH1 0x1 PUSH1 0x1 PUSH1 0x40 SHL SUB DUP2 GT PUSH2 0x203E JUMPI DUP3 PUSH2 0x2414 SWAP2 DUP4 ADD PUSH2 0x2177 JUMP JUMPDEST PUSH1 0x60 DUP5 ADD MSTORE PUSH1 0x80 DUP2 ADD CALLDATALOAD PUSH1 0x1 PUSH1 0x1 PUSH1 0x40 SHL SUB DUP2 GT PUSH2 0x203E JUMPI DUP3 PUSH2 0x2438 SWAP2 DUP4 ADD PUSH2 0x2177 JUMP JUMPDEST PUSH1 0x80 DUP5 ADD MSTORE PUSH1 0xA0 DUP2 ADD CALLDATALOAD PUSH1 0x1 PUSH1 0x1 PUSH1 0x40 SHL SUB DUP2 GT PUSH2 0x203E JUMPI DUP3 PUSH2 0x245C SWAP2 DUP4 ADD PUSH2 0x2177 JUMP JUMPDEST PUSH1 0xA0 DUP5 ADD MSTORE PUSH1 0xC0 DUP2 ADD CALLDATALOAD PUSH1 0x1 PUSH1 0x1 PUSH1 0x40 SHL SUB DUP2 GT PUSH2 0x203E JUMPI DUP3 PUSH2 0x2480 SWAP2 DUP4 ADD PUSH2 0x2177 JUMP JUMPDEST PUSH1 0xC0 DUP5 ADD MSTORE PUSH1 0xE0 DUP2 ADD CALLDATALOAD SWAP2 PUSH1 0x1 PUSH1 0x1 PUSH1 0x40 SHL SUB DUP4 GT PUSH2 0x203E JUMPI PUSH1 0xE0 SWAP3 PUSH2 0x223B SWAP3 ADD PUSH2 0x2177 JUMP JUMPDEST SWAP1 PUSH1 0x60 PUSH1 0x3 NOT DUP4 ADD SLT PUSH2 0x203E JUMPI PUSH1 0x4 CALLDATALOAD PUSH1 0x1 PUSH1 0x1 PUSH1 0x40 SHL SUB DUP2 GT PUSH2 0x203E JUMPI PUSH1 0xA0 DUP2 DUP5 SUB PUSH1 0x3 NOT ADD SLT PUSH2 0x203E JUMPI PUSH1 0x40 MLOAD SWAP1 PUSH1 0xA0 DUP3 ADD DUP3 DUP2 LT PUSH1 0x1 PUSH1 0x1 PUSH1 0x40 SHL SUB DUP3 GT OR PUSH2 0x209E JUMPI PUSH1 0x40 MSTORE DUP1 PUSH1 0x4 ADD CALLDATALOAD PUSH1 0x1 PUSH1 0x1 PUSH1 0x40 SHL SUB DUP2 GT PUSH2 0x203E JUMPI DUP5 PUSH1 0x4 PUSH2 0x2511 SWAP3 DUP5 ADD ADD PUSH2 0x2177 JUMP JUMPDEST DUP3 MSTORE PUSH1 0x24 DUP2 ADD CALLDATALOAD PUSH1 0x1 PUSH1 0x1 PUSH1 0x40 SHL SUB DUP2 GT PUSH2 0x203E JUMPI DUP5 PUSH1 0x4 PUSH2 0x2535 SWAP3 DUP5 ADD ADD PUSH2 0x2177 JUMP JUMPDEST PUSH1 0x20 DUP4 ADD MSTORE PUSH1 0x44 DUP2 ADD CALLDATALOAD PUSH1 0x1 PUSH1 0x1 PUSH1 0x40 SHL SUB DUP2 GT PUSH2 0x203E JUMPI DUP5 PUSH1 0x4 PUSH2 0x255C SWAP3 DUP5 ADD ADD PUSH2 0x2177 JUMP JUMPDEST PUSH1 0x40 DUP4 ADD MSTORE PUSH1 0x64 DUP2 ADD CALLDATALOAD PUSH1 0x1 PUSH1 0x1 PUSH1 0x40 SHL SUB DUP2 GT PUSH2 0x203E JUMPI DUP2 PUSH2 0x2589 DUP7 PUSH1 0x4 PUSH1 0x84 SWAP5 PUSH2 0x2594 SWAP7 ADD ADD PUSH2 0x2177 JUMP JUMPDEST PUSH1 0x60 DUP6 ADD MSTORE ADD PUSH2 0x2264 JUMP JUMPDEST PUSH1 0x80 DUP3 ADD MSTORE SWAP2 PUSH1 0x24 CALLDATALOAD SWAP1 PUSH1 0x1 PUSH1 0x1 PUSH1 0x40 SHL SUB DUP3 GT PUSH2 0x203E JUMPI PUSH2 0x25B8 SWAP2 PUSH1 0x4 ADD PUSH2 0x2177 JUMP JUMPDEST SWAP1 PUSH1 0x44 CALLDATALOAD PUSH1 0xFF DUP2 AND DUP2 SUB PUSH2 0x203E JUMPI SWAP1 JUMP JUMPDEST SWAP1 PUSH1 0xA0 PUSH1 0x3 NOT DUP4 ADD SLT PUSH2 0x203E JUMPI PUSH1 0x4 CALLDATALOAD PUSH1 0x1 PUSH1 0x1 PUSH1 0x40 SHL SUB DUP2 GT PUSH2 0x203E JUMPI DUP3 PUSH2 0x25F4 SWAP2 PUSH1 0x4 ADD PUSH2 0x2177 JUMP JUMPDEST SWAP2 PUSH1 0x24 CALLDATALOAD PUSH1 0x1 PUSH1 0x1 PUSH1 0x40 SHL SUB DUP2 GT PUSH2 0x203E JUMPI DUP2 PUSH2 0x2613 SWAP2 PUSH1 0x4 ADD PUSH2 0x2177 JUMP JUMPDEST SWAP2 PUSH1 0x44 CALLDATALOAD PUSH1 0x1 PUSH1 0x1 PUSH1 0x40 SHL SUB DUP2 GT PUSH2 0x203E JUMPI DUP3 PUSH2 0x2632 SWAP2 PUSH1 0x4 ADD PUSH2 0x2177 JUMP JUMPDEST SWAP2 PUSH1 0x64 CALLDATALOAD SWAP1 PUSH1 0x1 PUSH1 0x1 PUSH1 0x40 SHL SUB DUP3 GT PUSH2 0x203E JUMPI PUSH2 0x2651 SWAP2 PUSH1 0x4 ADD PUSH2 0x2177 JUMP JUMPDEST SWAP1 PUSH1 0x84 CALLDATALOAD PUSH1 0xFF DUP2 AND DUP2 SUB PUSH2 0x203E JUMPI SWAP1 JUMP JUMPDEST SWAP1 PUSH1 0x7 DUP3 LT ISZERO PUSH2 0x266F JUMPI MSTORE JUMP JUMPDEST PUSH4 0x4E487B71 PUSH1 0xE0 SHL PUSH0 MSTORE PUSH1 0x21 PUSH1 0x4 MSTORE PUSH1 0x24 PUSH0 REVERT JUMPDEST SWAP1 PUSH1 0xC0 DUP1 PUSH2 0x26F8 PUSH2 0x26C7 PUSH2 0x26B5 PUSH2 0x26A3 DUP8 MLOAD PUSH1 0xE0 DUP9 MSTORE PUSH1 0xE0 DUP9 ADD SWAP1 PUSH2 0x2240 JUMP JUMPDEST PUSH1 0x20 DUP9 ADD MLOAD DUP8 DUP3 SUB PUSH1 0x20 DUP10 ADD MSTORE PUSH2 0x2240 JUMP JUMPDEST PUSH1 0x40 DUP8 ADD MLOAD DUP7 DUP3 SUB PUSH1 0x40 DUP9 ADD MSTORE PUSH2 0x2240 JUMP JUMPDEST PUSH1 0xFF PUSH1 0x60 DUP8 ADD MLOAD AND PUSH1 0x60 DUP7 ADD MSTORE PUSH2 0x26E6 PUSH1 0x80 DUP8 ADD MLOAD PUSH1 0x80 DUP8 ADD SWAP1 PUSH2 0x2662 JUMP JUMPDEST PUSH1 0xA0 DUP7 ADD MLOAD DUP6 DUP3 SUB PUSH1 0xA0 DUP8 ADD MSTORE PUSH2 0x2240 JUMP JUMPDEST SWAP4 ADD MLOAD SWAP2 ADD MSTORE SWAP1 JUMP JUMPDEST PUSH1 0x20 DUP2 ADD PUSH1 0x20 DUP3 MSTORE DUP3 MLOAD DUP1 SWAP2 MSTORE PUSH1 0x40 DUP3 ADD SWAP2 PUSH1 0x20 PUSH1 0x40 DUP4 PUSH1 0x5 SHL DUP4 ADD ADD SWAP5 ADD SWAP3 PUSH0 SWAP2 JUMPDEST DUP4 DUP4 LT PUSH2 0x2733 JUMPI POP POP POP POP POP SWAP1 JUMP JUMPDEST SWAP1 SWAP2 SWAP3 SWAP4 SWAP5 PUSH1 0x20 DUP1 PUSH2 0x2751 PUSH1 0x1 SWAP4 PUSH1 0x3F NOT DUP7 DUP3 SUB ADD DUP8 MSTORE DUP10 MLOAD PUSH2 0x2683 JUMP JUMPDEST SWAP8 ADD SWAP4 ADD SWAP4 ADD SWAP2 SWAP4 SWAP3 SWAP1 PUSH2 0x2724 JUMP JUMPDEST SWAP1 PUSH1 0x40 PUSH2 0x2779 PUSH2 0x1219 DUP5 MLOAD PUSH1 0x60 DUP6 MSTORE PUSH1 0x60 DUP6 ADD SWAP1 PUSH2 0x2240 JUMP JUMPDEST SWAP3 DUP2 ADD MLOAD PUSH1 0x1 PUSH1 0x1 PUSH1 0xA0 SHL SUB AND SWAP2 ADD MSTORE SWAP1 JUMP JUMPDEST PUSH2 0x282A SWAP2 PUSH2 0x279B DUP2 DUP4 MLOAD PUSH2 0x2662 JUMP JUMPDEST PUSH1 0x20 DUP3 ADD MLOAD PUSH1 0x20 DUP3 ADD MSTORE PUSH1 0x40 DUP3 ADD MLOAD PUSH1 0x40 DUP3 ADD MSTORE PUSH1 0x60 DUP3 ADD MLOAD PUSH1 0x60 DUP3 ADD MSTORE PUSH1 0x80 DUP3 ADD MLOAD PUSH1 0x80 DUP3 ADD MSTORE PUSH1 0xA0 DUP3 ADD MLOAD PUSH1 0xA0 DUP3 ADD MSTORE PUSH1 0xC0 DUP3 ADD MLOAD PUSH1 0xC0 DUP3 ADD MSTORE PUSH1 0xE0 DUP3 ADD MLOAD PUSH1 0xE0 DUP3 ADD MSTORE PUSH2 0x140 PUSH2 0x2818 PUSH2 0x2804 PUSH2 0x100 DUP6 ADD MLOAD PUSH2 0x160 PUSH2 0x100 DUP7 ADD MSTORE PUSH2 0x160 DUP6 ADD SWAP1 PUSH2 0x2760 JUMP JUMPDEST PUSH2 0x120 DUP6 ADD MLOAD DUP5 DUP3 SUB PUSH2 0x120 DUP7 ADD MSTORE PUSH2 0x2760 JUMP JUMPDEST SWAP3 ADD MLOAD SWAP1 PUSH2 0x140 DUP2 DUP5 SUB SWAP2 ADD MSTORE PUSH2 0x2240 JUMP JUMPDEST SWAP1 JUMP JUMPDEST PUSH2 0x282A SWAP2 PUSH1 0x40 PUSH2 0x2849 PUSH2 0x1219 DUP5 MLOAD PUSH1 0x60 DUP6 MSTORE PUSH1 0x60 DUP6 ADD SWAP1 PUSH2 0x2240 JUMP JUMPDEST SWAP3 ADD MLOAD SWAP1 PUSH1 0x40 DUP2 DUP5 SUB SWAP2 ADD MSTORE PUSH2 0x2240 JUMP JUMPDEST PUSH2 0x282A SWAP2 PUSH1 0x20 PUSH2 0x2873 DUP4 MLOAD PUSH1 0x40 DUP5 MSTORE PUSH1 0x40 DUP5 ADD SWAP1 PUSH2 0x2240 JUMP JUMPDEST SWAP3 ADD MLOAD SWAP1 PUSH1 0x20 DUP2 DUP5 SUB SWAP2 ADD MSTORE PUSH2 0x2240 JUMP JUMPDEST PUSH2 0x282A SWAP2 PUSH1 0xA0 PUSH2 0x28CD PUSH2 0x28BB PUSH2 0x28A9 PUSH2 0x26B5 PUSH2 0x26A3 DUP8 MLOAD PUSH1 0xC0 DUP9 MSTORE PUSH1 0xC0 DUP9 ADD SWAP1 PUSH2 0x2240 JUMP JUMPDEST PUSH1 0x60 DUP7 ADD MLOAD DUP6 DUP3 SUB PUSH1 0x60 DUP8 ADD MSTORE PUSH2 0x2240 JUMP JUMPDEST PUSH1 0x80 DUP6 ADD MLOAD DUP5 DUP3 SUB PUSH1 0x80 DUP7 ADD MSTORE PUSH2 0x2240 JUMP JUMPDEST SWAP3 ADD MLOAD SWAP1 PUSH1 0xA0 DUP2 DUP5 SUB SWAP2 ADD MSTORE PUSH2 0x2240 JUMP JUMPDEST PUSH2 0x282A SWAP2 PUSH1 0xE0 PUSH2 0x2965 PUSH2 0x2953 PUSH2 0x26E6 PUSH2 0x2941 PUSH2 0x292F PUSH2 0x291D PUSH2 0x290B DUP10 MLOAD PUSH2 0x100 DUP11 MSTORE PUSH2 0x100 DUP11 ADD SWAP1 PUSH2 0x2240 JUMP JUMPDEST PUSH1 0x20 DUP11 ADD MLOAD DUP10 DUP3 SUB PUSH1 0x20 DUP12 ADD MSTORE PUSH2 0x2240 JUMP JUMPDEST PUSH1 0x40 DUP10 ADD MLOAD DUP9 DUP3 SUB PUSH1 0x40 DUP11 ADD MSTORE PUSH2 0x2240 JUMP JUMPDEST PUSH1 0x60 DUP9 ADD MLOAD DUP8 DUP3 SUB PUSH1 0x60 DUP10 ADD MSTORE PUSH2 0x2240 JUMP JUMPDEST PUSH1 0x80 DUP8 ADD MLOAD DUP7 DUP3 SUB PUSH1 0x80 DUP9 ADD MSTORE PUSH2 0x2240 JUMP JUMPDEST PUSH1 0xC0 DUP6 ADD MLOAD DUP5 DUP3 SUB PUSH1 0xC0 DUP7 ADD MSTORE PUSH2 0x2240 JUMP JUMPDEST SWAP3 ADD MLOAD SWAP1 PUSH1 0xE0 DUP2 DUP5 SUB SWAP2 ADD MSTORE PUSH2 0x2240 JUMP JUMPDEST SWAP1 PUSH1 0x40 PUSH1 0x3 NOT DUP4 ADD SLT PUSH2 0x203E JUMPI PUSH1 0x4 CALLDATALOAD PUSH1 0x1 PUSH1 0x1 PUSH1 0x40 SHL SUB DUP2 GT PUSH2 0x203E JUMPI DUP3 PUSH2 0x29A1 SWAP2 PUSH1 0x4 ADD PUSH2 0x2177 JUMP JUMPDEST SWAP2 PUSH1 0x24 CALLDATALOAD SWAP1 PUSH1 0x1 PUSH1 0x1 PUSH1 0x40 SHL SUB DUP3 GT PUSH2 0x203E JUMPI PUSH2 0x282A SWAP2 PUSH1 0x4 ADD PUSH2 0x2177 JUMP JUMPDEST SWAP1 DUP2 PUSH1 0x20 SWAP2 SUB SLT PUSH2 0x203E JUMPI MLOAD DUP1 ISZERO ISZERO DUP2 SUB PUSH2 0x203E JUMPI SWAP1 JUMP JUMPDEST ISZERO PUSH2 0x29DF JUMPI JUMP JUMPDEST PUSH1 0x40 MLOAD PUSH3 0x461BCD PUSH1 0xE5 SHL DUP2 MSTORE PUSH1 0x20 PUSH1 0x4 DUP3 ADD MSTORE PUSH1 0x21 PUSH1 0x24 DUP3 ADD MSTORE PUSH32 0x4F6E6C79205042462063616E20646F2074686973207472616E73616374696F6E PUSH1 0x44 DUP3 ADD MSTORE PUSH1 0x21 PUSH1 0xF8 SHL PUSH1 0x64 DUP3 ADD MSTORE PUSH1 0x84 SWAP1 REVERT JUMPDEST DUP2 PUSH1 0x1F DUP3 ADD SLT ISZERO PUSH2 0x203E JUMPI DUP1 MLOAD SWAP1 PUSH2 0x2A45 DUP3 PUSH2 0x215C JUMP JUMPDEST SWAP3 PUSH2 0x2A53 PUSH1 0x40 MLOAD SWAP5 DUP6 PUSH2 0x213B JUMP JUMPDEST DUP3 DUP5 MSTORE PUSH1 0x20 DUP4 DUP4 ADD ADD GT PUSH2 0x203E JUMPI DUP2 PUSH0 SWAP3 PUSH1 0x20 DUP1 SWAP4 ADD DUP4 DUP7 ADD MCOPY DUP4 ADD ADD MSTORE SWAP1 JUMP JUMPDEST SWAP1 PUSH1 0x20 DUP3 DUP3 SUB SLT PUSH2 0x203E JUMPI DUP2 MLOAD PUSH1 0x1 PUSH1 0x1 PUSH1 0x40 SHL SUB DUP2 GT PUSH2 0x203E JUMPI PUSH2 0x282A SWAP3 ADD PUSH2 0x2A2E JUMP JUMPDEST SWAP1 PUSH1 0x60 SWAP3 SWAP6 SWAP5 SWAP4 PUSH2 0x2AB4 PUSH1 0xFF SWAP3 PUSH1 0x80 DUP6 MSTORE PUSH1 0x80 DUP6 ADD SWAP1 PUSH2 0x2240 JUMP JUMPDEST PUSH1 0x1 PUSH1 0x1 PUSH1 0xA0 SHL SUB SWAP1 SWAP8 AND PUSH1 0x20 DUP5 ADD MSTORE AND PUSH1 0x40 DUP3 ADD MSTORE ADD MSTORE JUMP JUMPDEST ISZERO PUSH2 0x2AD5 JUMPI JUMP JUMPDEST PUSH1 0x40 MLOAD PUSH3 0x461BCD PUSH1 0xE5 SHL DUP2 MSTORE PUSH1 0x20 PUSH1 0x4 DUP3 ADD MSTORE PUSH1 0x22 PUSH1 0x24 DUP3 ADD MSTORE PUSH32 0x4F6E6C792042504F4D2063616E20646F2074686973207472616E73616374696F PUSH1 0x44 DUP3 ADD MSTORE PUSH2 0x6E21 PUSH1 0xF0 SHL PUSH1 0x64 DUP3 ADD MSTORE PUSH1 0x84 SWAP1 REVERT JUMPDEST SWAP3 PUSH2 0x2B64 SWAP1 PUSH2 0x2B56 PUSH2 0x2B72 SWAP5 PUSH2 0x2B48 PUSH2 0x282A SWAP11 SWAP9 SWAP6 PUSH1 0xC0 DUP10 MSTORE PUSH1 0xC0 DUP10 ADD SWAP1 PUSH2 0x2240 JUMP JUMPDEST SWAP1 DUP8 DUP3 SUB PUSH1 0x20 DUP10 ADD MSTORE PUSH2 0x2240 JUMP JUMPDEST SWAP1 DUP6 DUP3 SUB PUSH1 0x40 DUP8 ADD MSTORE PUSH2 0x2240 JUMP JUMPDEST SWAP1 DUP4 DUP3 SUB PUSH1 0x60 DUP6 ADD MSTORE PUSH2 0x2240 JUMP JUMPDEST PUSH1 0x1 PUSH1 0x1 PUSH1 0xA0 SHL SUB SWAP1 SWAP4 AND PUSH1 0x80 DUP3 ADD MSTORE DUP1 DUP4 SUB PUSH1 0xA0 SWAP2 SWAP1 SWAP2 ADD MSTORE PUSH2 0x2240 JUMP JUMPDEST SWAP6 SWAP5 SWAP4 PUSH1 0xFF PUSH1 0x80 SWAP5 PUSH2 0x2BAF PUSH2 0x2BD2 SWAP6 SWAP5 PUSH1 0xA0 DUP12 MSTORE PUSH1 0xA0 DUP12 ADD SWAP1 PUSH2 0x2240 JUMP JUMPDEST PUSH1 0x1 PUSH1 0x1 PUSH1 0xA0 SHL SUB SWAP1 SWAP5 AND PUSH1 0x20 DUP11 ADD MSTORE AND PUSH1 0x40 DUP9 ADD MSTORE DUP7 DUP3 SUB PUSH1 0x60 DUP9 ADD MSTORE PUSH2 0x2240 JUMP JUMPDEST SWAP4 ADD MSTORE JUMP JUMPDEST SWAP4 SWAP1 PUSH1 0x80 SWAP4 PUSH2 0x2C09 PUSH2 0x2C25 SWAP5 PUSH2 0x2BFB PUSH2 0x2C17 SWAP5 SWAP11 SWAP10 SWAP11 PUSH1 0xA0 DUP11 MSTORE PUSH1 0xA0 DUP11 ADD SWAP1 PUSH2 0x2240 JUMP JUMPDEST SWAP1 DUP9 DUP3 SUB PUSH1 0x20 DUP11 ADD MSTORE PUSH2 0x2240 JUMP JUMPDEST SWAP1 DUP7 DUP3 SUB PUSH1 0x40 DUP9 ADD MSTORE PUSH2 0x2240 JUMP JUMPDEST SWAP1 DUP5 DUP3 SUB PUSH1 0x60 DUP7 ADD MSTORE PUSH2 0x2240 JUMP JUMPDEST PUSH1 0x1 PUSH1 0x1 PUSH1 0xA0 SHL SUB SWAP1 SWAP5 AND SWAP2 ADD MSTORE JUMP JUMPDEST SWAP2 SWAP4 SWAP1 PUSH2 0x282A SWAP6 SWAP4 PUSH2 0x2C51 PUSH1 0xFF SWAP3 PUSH1 0xA0 DUP7 MSTORE PUSH1 0xA0 DUP7 ADD SWAP1 PUSH2 0x2240 JUMP JUMPDEST PUSH1 0x1 PUSH1 0x1 PUSH1 0xA0 SHL SUB SWAP1 SWAP7 AND PUSH1 0x20 DUP6 ADD MSTORE AND PUSH1 0x40 DUP4 ADD MSTORE PUSH1 0x60 DUP3 ADD MSTORE DUP1 DUP4 SUB PUSH1 0x80 SWAP1 SWAP2 ADD MSTORE PUSH2 0x2240 JUMP JUMPDEST ISZERO PUSH2 0x2C81 JUMPI JUMP JUMPDEST PUSH1 0x40 MLOAD PUSH3 0x461BCD PUSH1 0xE5 SHL DUP2 MSTORE PUSH1 0x20 PUSH1 0x4 DUP3 ADD MSTORE PUSH1 0x25 PUSH1 0x24 DUP3 ADD MSTORE PUSH32 0x4F6E6C7920466163746F72792063616E20646F2074686973207472616E736163 PUSH1 0x44 DUP3 ADD MSTORE PUSH5 0x74696F6E21 PUSH1 0xD8 SHL PUSH1 0x64 DUP3 ADD MSTORE PUSH1 0x84 SWAP1 REVERT JUMPDEST MLOAD SWAP1 PUSH1 0xFF DUP3 AND DUP3 SUB PUSH2 0x203E JUMPI JUMP JUMPDEST PUSH1 0x20 DUP2 DUP4 SUB SLT PUSH2 0x203E JUMPI DUP1 MLOAD SWAP1 PUSH1 0x1 PUSH1 0x1 PUSH1 0x40 SHL SUB DUP3 GT PUSH2 0x203E JUMPI ADD DUP2 PUSH1 0x1F DUP3 ADD SLT ISZERO PUSH2 0x203E JUMPI DUP1 MLOAD SWAP1 PUSH1 0x1 PUSH1 0x1 PUSH1 0x40 SHL SUB DUP3 GT PUSH2 0x209E JUMPI PUSH1 0x20 DUP3 PUSH1 0x5 SHL ADD SWAP3 PUSH2 0x2D2F PUSH1 0x40 MLOAD SWAP5 DUP6 PUSH2 0x213B JUMP JUMPDEST DUP3 DUP5 MSTORE PUSH1 0x20 DUP1 DUP6 ADD SWAP4 PUSH1 0x5 SHL DUP4 ADD ADD SWAP2 DUP2 DUP4 GT PUSH2 0x203E JUMPI PUSH1 0x20 DUP2 ADD SWAP4 JUMPDEST DUP4 DUP6 LT PUSH2 0x2D5B JUMPI POP POP POP POP POP SWAP1 JUMP JUMPDEST DUP5 MLOAD PUSH1 0x1 PUSH1 0x1 PUSH1 0x40 SHL SUB DUP2 GT PUSH2 0x203E JUMPI PUSH1 0x20 SWAP1 DUP4 ADD ADD PUSH1 0xE0 DUP2 DUP6 SUB SLT PUSH2 0x203E JUMPI PUSH1 0x40 MLOAD SWAP2 PUSH1 0xE0 DUP4 ADD DUP4 DUP2 LT PUSH1 0x1 PUSH1 0x1 PUSH1 0x40 SHL SUB DUP3 GT OR PUSH2 0x209E JUMPI PUSH1 0x40 MSTORE DUP2 MLOAD PUSH1 0x1 PUSH1 0x1 PUSH1 0x40 SHL SUB DUP2 GT PUSH2 0x203E JUMPI DUP6 PUSH2 0x2DB4 SWAP2 DUP5 ADD PUSH2 0x2A2E JUMP JUMPDEST DUP4 MSTORE PUSH1 0x20 DUP3 ADD MLOAD PUSH1 0x1 PUSH1 0x1 PUSH1 0x40 SHL SUB DUP2 GT PUSH2 0x203E JUMPI DUP6 PUSH2 0x2DD5 SWAP2 DUP5 ADD PUSH2 0x2A2E JUMP JUMPDEST PUSH1 0x20 DUP5 ADD MSTORE PUSH1 0x40 DUP3 ADD MLOAD PUSH1 0x1 PUSH1 0x1 PUSH1 0x40 SHL SUB DUP2 GT PUSH2 0x203E JUMPI DUP6 PUSH2 0x2DF9 SWAP2 DUP5 ADD PUSH2 0x2A2E JUMP JUMPDEST PUSH1 0x40 DUP5 ADD MSTORE PUSH2 0x2E0A PUSH1 0x60 DUP4 ADD PUSH2 0x2CD4 JUMP JUMPDEST PUSH1 0x60 DUP5 ADD MSTORE PUSH1 0x80 DUP3 ADD MLOAD PUSH1 0x7 DUP2 LT ISZERO PUSH2 0x203E JUMPI PUSH1 0x80 DUP5 ADD MSTORE PUSH1 0xA0 DUP3 ADD MLOAD SWAP3 PUSH1 0x1 PUSH1 0x1 PUSH1 0x40 SHL SUB DUP5 GT PUSH2 0x203E JUMPI PUSH1 0xC0 DUP4 PUSH2 0x2E48 DUP9 PUSH1 0x20 SWAP8 DUP9 SWAP8 ADD PUSH2 0x2A2E JUMP JUMPDEST PUSH1 0xA0 DUP5 ADD MSTORE ADD MLOAD PUSH1 0xC0 DUP3 ADD MSTORE DUP2 MSTORE ADD SWAP5 ADD SWAP4 PUSH2 0x2D4C JUMP JUMPDEST PUSH1 0x40 MLOAD SWAP1 PUSH2 0x2E6C DUP3 PUSH2 0x20E9 JUMP JUMPDEST PUSH0 PUSH1 0x40 DUP4 PUSH1 0x60 DUP2 MSTORE PUSH1 0x60 PUSH1 0x20 DUP3 ADD MSTORE ADD MSTORE JUMP JUMPDEST PUSH1 0x40 MLOAD SWAP1 PUSH2 0x2E8C DUP3 PUSH2 0x211F JUMP JUMPDEST PUSH1 0x60 PUSH2 0x140 DUP4 PUSH0 DUP2 MSTORE PUSH0 PUSH1 0x20 DUP3 ADD MSTORE PUSH0 PUSH1 0x40 DUP3 ADD MSTORE PUSH0 DUP4 DUP3 ADD MSTORE PUSH0 PUSH1 0x80 DUP3 ADD MSTORE PUSH0 PUSH1 0xA0 DUP3 ADD MSTORE PUSH0 PUSH1 0xC0 DUP3 ADD MSTORE PUSH0 PUSH1 0xE0 DUP3 ADD MSTORE PUSH2 0x2EC6 PUSH2 0x2E5F JUMP JUMPDEST PUSH2 0x100 DUP3 ADD MSTORE PUSH2 0x2ED4 PUSH2 0x2E5F JUMP JUMPDEST PUSH2 0x120 DUP3 ADD MSTORE ADD MSTORE JUMP JUMPDEST PUSH1 0x40 MLOAD SWAP1 PUSH2 0x2EEB DUP3 PUSH2 0x20E9 JUMP JUMPDEST PUSH1 0x60 PUSH1 0x40 DUP4 DUP3 DUP2 MSTORE DUP3 PUSH1 0x20 DUP3 ADD MSTORE ADD MSTORE JUMP JUMPDEST PUSH1 0x40 MLOAD SWAP1 PUSH2 0x2F0A DUP3 PUSH2 0x2104 JUMP JUMPDEST PUSH1 0x60 PUSH1 0x20 DUP4 DUP3 DUP2 MSTORE ADD MSTORE JUMP JUMPDEST SWAP2 SWAP1 PUSH1 0x60 DUP4 DUP3 SUB SLT PUSH2 0x203E JUMPI PUSH1 0x40 MLOAD SWAP1 PUSH2 0x2F2F DUP3 PUSH2 0x20E9 JUMP JUMPDEST DUP2 SWAP4 DUP1 MLOAD PUSH1 0x1 PUSH1 0x1 PUSH1 0x40 SHL SUB DUP2 GT PUSH2 0x203E JUMPI DUP3 PUSH2 0x2F4D SWAP2 DUP4 ADD PUSH2 0x2A2E JUMP JUMPDEST DUP4 MSTORE PUSH1 0x20 DUP2 ADD MLOAD PUSH1 0x1 PUSH1 0x1 PUSH1 0x40 SHL SUB DUP2 GT PUSH2 0x203E JUMPI DUP3 PUSH2 0x2F6E SWAP2 DUP4 ADD PUSH2 0x2A2E JUMP JUMPDEST PUSH1 0x20 DUP5 ADD MSTORE PUSH1 0x40 DUP2 ADD MLOAD SWAP2 PUSH1 0x1 PUSH1 0x1 PUSH1 0x40 SHL SUB DUP4 GT PUSH2 0x203E JUMPI PUSH1 0x40 SWAP3 PUSH2 0x223B SWAP3 ADD PUSH2 0x2A2E JUMP JUMPDEST SWAP2 SWAP1 PUSH1 0x40 DUP4 DUP3 SUB SLT PUSH2 0x203E JUMPI PUSH1 0x40 MLOAD SWAP1 PUSH2 0x2FAD DUP3 PUSH2 0x2104 JUMP JUMPDEST DUP2 SWAP4 DUP1 MLOAD PUSH1 0x1 PUSH1 0x1 PUSH1 0x40 SHL SUB DUP2 GT PUSH2 0x203E JUMPI DUP3 PUSH2 0x2FCB SWAP2 DUP4 ADD PUSH2 0x2A2E JUMP JUMPDEST DUP4 MSTORE PUSH1 0x20 DUP2 ADD MLOAD SWAP2 PUSH1 0x1 PUSH1 0x1 PUSH1 0x40 SHL SUB DUP4 GT PUSH2 0x203E JUMPI PUSH1 0x20 SWAP3 PUSH2 0x223B SWAP3 ADD PUSH2 0x2A2E JUMP JUMPDEST SWAP2 SWAP1 PUSH1 0x60 DUP4 DUP3 SUB SLT PUSH2 0x203E JUMPI PUSH1 0x40 MLOAD SWAP1 PUSH2 0x3007 DUP3 PUSH2 0x20E9 JUMP JUMPDEST DUP2 SWAP4 DUP1 MLOAD PUSH1 0x1 PUSH1 0x1 PUSH1 0x40 SHL SUB DUP2 GT PUSH2 0x203E JUMPI DUP3 PUSH2 0x3025 SWAP2 DUP4 ADD PUSH2 0x2A2E JUMP JUMPDEST DUP4 MSTORE PUSH1 0x20 DUP2 ADD MLOAD PUSH1 0x1 PUSH1 0x1 PUSH1 0x40 SHL SUB DUP2 GT PUSH2 0x203E JUMPI PUSH1 0x40 SWAP3 PUSH2 0x3048 SWAP2 DUP4 ADD PUSH2 0x2A2E JUMP JUMPDEST PUSH1 0x20 DUP5 ADD MSTORE ADD MLOAD SWAP1 PUSH1 0x1 PUSH1 0x1 PUSH1 0xA0 SHL SUB DUP3 AND DUP3 SUB PUSH2 0x203E JUMPI PUSH1 0x40 ADD MSTORE JUMP JUMPDEST PUSH1 0x20 DUP2 DUP4 SUB SLT PUSH2 0x203E JUMPI DUP1 MLOAD SWAP1 PUSH1 0x1 PUSH1 0x1 PUSH1 0x40 SHL SUB DUP3 GT PUSH2 0x203E JUMPI ADD PUSH2 0x160 DUP2 DUP4 SUB SLT PUSH2 0x203E JUMPI PUSH1 0x40 MLOAD SWAP2 PUSH2 0x309A DUP4 PUSH2 0x211F JUMP JUMPDEST DUP2 MLOAD PUSH1 0x7 DUP2 LT ISZERO PUSH2 0x203E JUMPI DUP4 MSTORE PUSH1 0x20 DUP3 ADD MLOAD PUSH1 0x20 DUP5 ADD MSTORE PUSH1 0x40 DUP3 ADD MLOAD PUSH1 0x40 DUP5 ADD MSTORE PUSH1 0x60 DUP3 ADD MLOAD PUSH1 0x60 DUP5 ADD MSTORE PUSH1 0x80 DUP3 ADD MLOAD PUSH1 0x80 DUP5 ADD MSTORE PUSH1 0xA0 DUP3 ADD MLOAD PUSH1 0xA0 DUP5 ADD MSTORE PUSH1 0xC0 DUP3 ADD MLOAD PUSH1 0xC0 DUP5 ADD MSTORE PUSH1 0xE0 DUP3 ADD MLOAD PUSH1 0xE0 DUP5 ADD MSTORE PUSH2 0x100 DUP3 ADD MLOAD PUSH1 0x1 PUSH1 0x1 PUSH1 0x40 SHL SUB DUP2 GT PUSH2 0x203E JUMPI DUP2 PUSH2 0x310D SWAP2 DUP5 ADD PUSH2 0x2FEE JUMP JUMPDEST PUSH2 0x100 DUP5 ADD MSTORE PUSH2 0x120 DUP3 ADD MLOAD PUSH1 0x1 PUSH1 0x1 PUSH1 0x40 SHL SUB DUP2 GT PUSH2 0x203E JUMPI DUP2 PUSH2 0x3133 SWAP2 DUP5 ADD PUSH2 0x2FEE JUMP JUMPDEST PUSH2 0x120 DUP5 ADD MSTORE PUSH2 0x140 DUP3 ADD MLOAD PUSH1 0x1 PUSH1 0x1 PUSH1 0x40 SHL SUB DUP2 GT PUSH2 0x203E JUMPI PUSH2 0x3157 SWAP3 ADD PUSH2 0x2A2E JUMP JUMPDEST PUSH2 0x140 DUP3 ADD MSTORE SWAP1 JUMP JUMPDEST SWAP1 SWAP2 PUSH2 0x3177 PUSH2 0x282A SWAP4 PUSH1 0x40 DUP5 MSTORE PUSH1 0x40 DUP5 ADD SWAP1 PUSH2 0x2240 JUMP JUMPDEST SWAP2 PUSH1 0x20 DUP2 DUP5 SUB SWAP2 ADD MSTORE PUSH2 0x2240 JUMP JUMPDEST PUSH2 0x319D PUSH1 0x40 SWAP3 SWAP6 SWAP5 SWAP4 SWAP6 PUSH1 0x60 DUP4 MSTORE PUSH1 0x60 DUP4 ADD SWAP1 PUSH2 0x2240 JUMP JUMPDEST PUSH1 0x1 PUSH1 0x1 PUSH1 0xA0 SHL SUB SWAP1 SWAP6 AND PUSH1 0x20 DUP3 ADD MSTORE ADD MSTORE JUMP JUMPDEST PUSH1 0x2 PUSH0 SLOAD EQ PUSH2 0x31C0 JUMPI PUSH1 0x2 PUSH0 SSTORE JUMP JUMPDEST PUSH4 0x3EE5AEB5 PUSH1 0xE0 SHL PUSH0 MSTORE PUSH1 0x4 PUSH0 REVERT INVALID LOG2 PUSH5 0x6970667358 0x22 SLT KECCAK256 0xE3 PUSH21 0xF066A231ADFB17B03C35B8C6AA9A53DA6A5AC60D68 0xD6 0xEB CREATE2 SWAP14 0xEF PUSH21 0xD132DB64736F6C634300081B003300000000000000 "},"methodIdentifiers":{"approveCdob((string,string,string,string,address),string,uint8)":"2dbcaf0f","approveCpotb((string,string,string,string,address),string,uint8)":"4e03317b","approveExtendCdob(string,string)":"9c6b1f10","approveExtendCpotb(string,string)":"b0730436","cdobCertificate()":"af3a1758","cpotbCertificate()":"d369111d","extendCdob(string,uint256,(string,string,string))":"07b11c0b","extendCpotb(string,uint256,(string,string,string,string,string,string))":"4ad8f1a4","getAllCdob()":"f14261d2","getAllCpotb()":"5850607c","getCdobByInstance(string)":"d0927b19","getCdobDetails(string)":"7e8f8da7","getCpotbByInstance(string)":"51c2d326","getCpotbDetails(string)":"70c056b0","getRejectMsgCdob(string)":"17d96797","getRejectMsgCpotb(string)":"1a898044","rejectCdob(string,string,string,string,uint8)":"41ee1495","rejectCpotb(string,string,string,string,uint8)":"9c0abfd8","renewCdob((string,string,string,address),(string,string),(string,string,string,string,string,string,string,string))":"bbd0b8a9","renewCpotb((string,string,string,address),(string,string,string),(string,string))":"cb43b77f","requestCdob((string,string,string,address),uint8,(string,string),(string,string,string,string,string,string,string,string))":"1d430349","requestCpotb((string,string,string,address),uint8,string,(string,string,string),(string,string))":"87fecd3e","roleManager()":"00435da5"}}}}}