{"contracts/BaseCertificate.sol":{"BaseCertificate":{"abi":[{"inputs":[{"internalType":"string","name":"","type":"string"}],"name":"certDetailById","outputs":[{"internalType":"enum EnumsLibrary.StatusCertificate","name":"status","type":"uint8"},{"internalType":"uint256","name":"timestampRequest","type":"uint256"},{"internalType":"uint256","name":"timestampApprove","type":"uint256"},{"internalType":"uint256","name":"timestampRejected","type":"uint256"},{"internalType":"uint256","name":"timestampRenewRequest","type":"uint256"},{"internalType":"uint256","name":"timestampExpired","type":"uint256"},{"internalType":"uint256","name":"timestampExtendRequest","type":"uint256"},{"internalType":"uint256","name":"timestampExtendApprove","type":"uint256"},{"components":[{"internalType":"string","name":"userName","type":"string"},{"internalType":"string","name":"userInstance","type":"string"},{"internalType":"address","name":"userAddr","type":"address"}],"internalType":"struct BaseCertificate.UserCert","name":"sender","type":"tuple"},{"components":[{"internalType":"string","name":"userName","type":"string"},{"internalType":"string","name":"userInstance","type":"string"},{"internalType":"address","name":"userAddr","type":"address"}],"internalType":"struct BaseCertificate.UserCert","name":"bpom","type":"tuple"},{"internalType":"string","name":"ipfsCert","type":"string"}],"stateMutability":"view","type":"function"},{"inputs":[{"components":[{"internalType":"string","name":"userName","type":"string"},{"internalType":"string","name":"userInstance","type":"string"},{"internalType":"address","name":"userAddr","type":"address"}],"internalType":"struct BaseCertificate.UserCert","name":"senderData","type":"tuple"},{"components":[{"internalType":"string","name":"userName","type":"string"},{"internalType":"string","name":"userInstance","type":"string"},{"internalType":"address","name":"userAddr","type":"address"}],"internalType":"struct BaseCertificate.UserCert","name":"bpomData","type":"tuple"},{"internalType":"string","name":"certId","type":"string"}],"name":"createCertificateDetails","outputs":[],"stateMutability":"nonpayable","type":"function"},{"inputs":[{"internalType":"string","name":"userName","type":"string"},{"internalType":"string","name":"userInstance","type":"string"},{"internalType":"address","name":"userAddr","type":"address"}],"name":"createUserCertificate","outputs":[{"components":[{"internalType":"string","name":"userName","type":"string"},{"internalType":"string","name":"userInstance","type":"string"},{"internalType":"address","name":"userAddr","type":"address"}],"internalType":"struct BaseCertificate.UserCert","name":"","type":"tuple"}],"stateMutability":"pure","type":"function"},{"inputs":[{"internalType":"string","name":"certId","type":"string"}],"name":"getCertDetail","outputs":[{"components":[{"internalType":"enum EnumsLibrary.StatusCertificate","name":"status","type":"uint8"},{"internalType":"uint256","name":"timestampRequest","type":"uint256"},{"internalType":"uint256","name":"timestampApprove","type":"uint256"},{"internalType":"uint256","name":"timestampRejected","type":"uint256"},{"internalType":"uint256","name":"timestampRenewRequest","type":"uint256"},{"internalType":"uint256","name":"timestampExpired","type":"uint256"},{"internalType":"uint256","name":"timestampExtendRequest","type":"uint256"},{"internalType":"uint256","name":"timestampExtendApprove","type":"uint256"},{"components":[{"internalType":"string","name":"userName","type":"string"},{"internalType":"string","name":"userInstance","type":"string"},{"internalType":"address","name":"userAddr","type":"address"}],"internalType":"struct BaseCertificate.UserCert","name":"sender","type":"tuple"},{"components":[{"internalType":"string","name":"userName","type":"string"},{"internalType":"string","name":"userInstance","type":"string"},{"internalType":"address","name":"userAddr","type":"address"}],"internalType":"struct BaseCertificate.UserCert","name":"bpom","type":"tuple"},{"internalType":"string","name":"ipfsCert","type":"string"}],"internalType":"struct BaseCertificate.CertificateDetails","name":"","type":"tuple"}],"stateMutability":"view","type":"function"},{"inputs":[{"internalType":"string","name":"certId","type":"string"}],"name":"getRejectMsg","outputs":[{"internalType":"string","name":"","type":"string"}],"stateMutability":"view","type":"function"},{"inputs":[{"internalType":"string","name":"certId","type":"string"}],"name":"getSenderDetail","outputs":[{"components":[{"internalType":"string","name":"userName","type":"string"},{"internalType":"string","name":"userInstance","type":"string"},{"internalType":"address","name":"userAddr","type":"address"}],"internalType":"struct BaseCertificate.UserCert","name":"","type":"tuple"}],"stateMutability":"view","type":"function"},{"inputs":[{"internalType":"string","name":"","type":"string"}],"name":"rejectMsgById","outputs":[{"internalType":"string","name":"","type":"string"}],"stateMutability":"view","type":"function"},{"inputs":[{"internalType":"string","name":"certId","type":"string"},{"internalType":"string","name":"ipfsCert","type":"string"},{"components":[{"internalType":"string","name":"userName","type":"string"},{"internalType":"string","name":"userInstance","type":"string"},{"internalType":"address","name":"userAddr","type":"address"}],"internalType":"struct BaseCertificate.UserCert","name":"bpomData","type":"tuple"}],"name":"updateBpomApproveDetails","outputs":[],"stateMutability":"nonpayable","type":"function"},{"inputs":[{"internalType":"string","name":"certId","type":"string"},{"internalType":"string","name":"ipfsCert","type":"string"}],"name":"updateBpomApproveExtendCertificateDetails","outputs":[],"stateMutability":"nonpayable","type":"function"},{"inputs":[{"internalType":"string","name":"certId","type":"string"},{"internalType":"string","name":"ipfsCert","type":"string"}],"name":"updateBpomExtendCertificateDetails","outputs":[],"stateMutability":"nonpayable","type":"function"},{"inputs":[{"internalType":"string","name":"certId","type":"string"},{"internalType":"string","name":"rejectMsg","type":"string"},{"components":[{"internalType":"string","name":"userName","type":"string"},{"internalType":"string","name":"userInstance","type":"string"},{"internalType":"address","name":"userAddr","type":"address"}],"internalType":"struct BaseCertificate.UserCert","name":"bpomData","type":"tuple"}],"name":"updateBpomRejectDetails","outputs":[],"stateMutability":"nonpayable","type":"function"},{"inputs":[{"internalType":"string","name":"certId","type":"string"},{"internalType":"uint256","name":"expiredTimestamp","type":"uint256"}],"name":"updateExtendRenewDetails","outputs":[],"stateMutability":"nonpayable","type":"function"},{"inputs":[{"internalType":"string","name":"certId","type":"string"}],"name":"updateRenewDetails","outputs":[],"stateMutability":"nonpayable","type":"function"}],"evm":{"bytecode":{"linkReferences":{},"object":"60808060405234601557611a86908161001a8239f35b5f80fdfe60806040526004361015610011575f80fd5b5f3560e01c806317e683091461165b57806319859c87146115fc5780632e9cf8271461155d57806334a34f30146114525780636d1aa7d51461114d5780639740dbed146113a35780639aaa5d8b146111bb578063bf3f80ac1461114d578063d26196fd14611022578063e9c260d714610c8a578063f5104ff114610913578063f53ef126146107b15763fb5fb9a3146100a8575f80fd5b346107ad5760603660031901126107ad576004356001600160401b0381116107ad576100d8903690600401611950565b6024356001600160401b0381116107ad576100f7903690600401611950565b6044356001600160401b0381116107ad57610116903690600401611728565b604051610122816116eb565b5f81526020810193428552604082015f8152606083015f8152608084015f815260a08501905f825260c08601925f845260e08701945f865261010088019687526101208801998a5260209a8b80809b61017e6040519d8e611707565b5f8d526101408c019c8d52604051928184925191829101835e81015f815203019020985160078110156107995760ff80198b541691161789555160018901555160028801555160038701555160048601555160058501555160068401555160078301556008820190519081518051906001600160401b03821161049d57819061020784546117df565b601f811161074b575b508890601f83116001146106e8575f926106dd575b50508160011b915f199060031b1c19161790555b60098201858201518051906001600160401b03821161049d57819061025e84546117df565b601f811161068f575b508890601f831160011461062c575f92610621575b50508160011b915f199060031b1c19161790555b60400151600a820180546001600160a01b0319166001600160a01b0392909216919091179055915180518051919391600b8301916001600160401b03821161049d5781906102de84546117df565b601f81116105d3575b508790601f8311600114610570575f92610565575b50508160011b915f199060031b1c19161790555b600c81019284810151938451946001600160401b03861161049d5761033582546117df565b601f8111610522575b508690601f87116001146104bc57958091600e96975f926104b1575b50508160011b915f199060031b1c19161790555b60400151600d820180546001600160a01b0319166001600160a01b03929092169190911790559151805190939190920191906001600160401b03821161049d576103b883546117df565b601f811161045a575b5080601f83116001146103fb57508192935f926103f0575b50505f19600383901b1c191660019190911b179055005b015190505f806103d9565b90601f19831694845f52825f20925f905b87821061044257505083600195961061042a575b505050811b019055005b01515f1960f88460031b161c191690555f8080610420565b8060018596829496860151815501950193019061040c565b835f52815f20601f840160051c810191838510610493575b601f0160051c01905b81811061048857506103c1565b5f815560010161047b565b9091508190610472565b634e487b7160e01b5f52604160045260245ffd5b015190505f8061035a565b90601f19871691835f52885f20925f5b8a82821061050c575050916001939189600e999a94106104f4575b505050811b01905561036e565b01515f1960f88460031b161c191690555f80806104e7565b60018596829396860151815501950193016104cc565b825f52875f20601f880160051c81019189891061055b575b601f0160051c01905b818110610550575061033e565b5f8155600101610543565b909150819061053a565b015190505f806102fc565b5f8581528981209350601f198516905b8a8282106105bd5750509084600195949392106105a5575b505050811b019055610310565b01515f1960f88460031b161c191690555f8080610598565b6001859682939686015181550195019301610580565b909150835f52875f20601f840160051c810191898510610617575b90601f859493920160051c01905b81811061060957506102e7565b5f81558493506001016105fc565b90915081906105ee565b015190505f8061027c565b5f8581528a81209350601f198516905b8b828210610679575050908460019594939210610661575b505050811b019055610290565b01515f1960f88460031b161c191690555f8080610654565b600185968293968601518155019501930161063c565b909150835f52885f20601f840160051c8101918a85106106d3575b90601f859493920160051c01905b8181106106c55750610267565b5f81558493506001016106b8565b90915081906106aa565b015190505f80610225565b5f8581528a81209350601f198516905b8b82821061073557505090846001959493921061071d575b505050811b019055610239565b01515f1960f88460031b161c191690555f8080610710565b60018596829396860151815501950193016106f8565b909150835f52885f20601f840160051c8101918a851061078f575b90601f859493920160051c01905b8181106107815750610210565b5f8155849350600101610774565b9091508190610766565b634e487b7160e01b5f52602160045260245ffd5b5f80fd5b346107ad576020806107c236611903565b9290604051928184925191829101835e81015f81520301902042600282015560824201908142116108ff57600e916005820155600660ff198254161781550181516001600160401b03811161049d5761081b82546117df565b601f81116108ba575b50602092601f821160011461085f57928192935f926108545750505f19600383901b1c191660019190911b179055005b0151905083806103d9565b601f19821693835f52805f20915f5b8681106108a2575083600195961061088a57505050811b019055005b01515f1960f88460031b161c19169055838080610420565b9192602060018192868501518155019401920161086e565b825f5260205f20601f830160051c810191602084106108f5575b601f0160051c01905b8181106108ea5750610824565b5f81556001016108dd565b90915081906108d4565b634e487b7160e01b5f52601160045260245ffd5b346107ad57602080610924366119c8565b9391604093919351928184925191829101835e81015f815203019020918051600b8401908051906001600160401b03821161049d5761096383546117df565b601f8111610c45575b50602090601f8311600114610bde576020949392915f9183610bd3575b50508160011b915f199060031b1c19161790555b6040810151600d850180546001600160a01b0319166001600160a01b039290921691909117905501518051909290600c8201906001600160401b03811161049d576109e882546117df565b601f8111610b8e575b50602094601f8211600114610b2d579481929394955f92610b22575b50508160011b915f199060031b1c19161790555b42600282015560824201908142116108ff57600e916005820155600160ff198254161781550181516001600160401b03811161049d57610a6182546117df565b601f8111610add575b50602092601f8211600114610a9a57928192935f926108545750505f19600383901b1c191660019190911b179055005b601f19821693835f52805f20915f5b868110610ac5575083600195961061088a57505050811b019055005b91926020600181928685015181550194019201610aa9565b825f5260205f20601f830160051c81019160208410610b18575b601f0160051c01905b818110610b0d5750610a6a565b5f8155600101610b00565b9091508190610af7565b015190508580610a0d565b601f19821695835f52805f20915f5b888110610b7657508360019596979810610b5e575b505050811b019055610a21565b01515f1960f88460031b161c19169055858080610b51565b91926020600181928685015181550194019201610b3c565b825f5260205f20601f830160051c81019160208410610bc9575b601f0160051c01905b818110610bbe57506109f1565b5f8155600101610bb1565b9091508190610ba8565b015190508780610989565b90601f19831691845f52815f20925f5b818110610c2d575091600193918560209897969410610c15575b505050811b01905561099d565b01515f1960f88460031b161c19169055878080610c08565b92936020600181928786015181550195019301610bee565b835f5260205f20601f840160051c81019160208510610c80575b601f0160051c01905b818110610c75575061096c565b5f8155600101610c68565b9091508190610c5f565b346107ad57610c98366119c8565b909160405160208251918181818601948086835e81015f81520301902092604051928391518091835e8101600181520301902083516001600160401b03811161049d57610ce582546117df565b601f8111610fdd575b50602094601f8211600114610f7c579481929394955f92610f71575b50508160011b915f199060031b1c19161790555b815191600b820183516001600160401b03811161049d57610d3f82546117df565b601f8111610f2c575b506020601f8211600114610ec7578190602095965f92610ebc575b50508160011b915f199060031b1c19161790555b6040810151600d840180546001600160a01b0319166001600160a01b039290921691909117905501518051909190600c8201906001600160401b03811161049d57610dc282546117df565b601f8111610e77575b506020601f8211600114610e1657819293945f92610e0b575b50508160011b915f199060031b1c19161790555b426003820155805460ff19166002179055005b015190508480610de4565b601f19821690835f52805f20915f5b818110610e5f57509583600195969710610e47575b505050811b019055610df8565b01515f1960f88460031b161c19169055848080610e3a565b9192602060018192868b015181550194019201610e25565b825f5260205f20601f830160051c81019160208410610eb2575b601f0160051c01905b818110610ea75750610dcb565b5f8155600101610e9a565b9091508190610e91565b015190508680610d63565b601f19821695835f52815f20965f5b818110610f145750916020969791846001959410610efc575b505050811b019055610d77565b01515f1960f88460031b161c19169055868080610eef565b83830151895560019098019760209384019301610ed6565b825f5260205f20601f830160051c81019160208410610f67575b601f0160051c01905b818110610f5c5750610d48565b5f8155600101610f4f565b9091508190610f46565b015190508580610d0a565b601f19821695835f52805f20915f5b888110610fc557508360019596979810610fad575b505050811b019055610d1e565b01515f1960f88460031b161c19169055858080610fa0565b91926020600181928685015181550194019201610f8b565b825f5260205f20601f830160051c81019160208410611018575b601f0160051c01905b81811061100d5750610cee565b5f8155600101611000565b9091508190610ff7565b346107ad5760208061103336611903565b9290604051928184925191829101835e81015f81520301902042600782015560824201908142116108ff57600e916005820155600660ff198254161781550181516001600160401b03811161049d5761108c82546117df565b601f8111611108575b50602092601f82116001146110c557928192935f926108545750505f19600383901b1c191660019190911b179055005b601f19821693835f52805f20915f5b8681106110f0575083600195961061088a57505050811b019055005b919260206001819286850151815501940192016110d4565b825f5260205f20601f830160051c81019160208410611143575b601f0160051c01905b8181106111385750611095565b5f815560010161112b565b9091508190611122565b346107ad5760203660031901126107ad576004356001600160401b0381116107ad576111a36020806111866111b7943690600401611728565b604051928184925191829101835e81016001815203019020611817565b60405191829160208352602083019061177d565b0390f35b346107ad5760203660031901126107ad576004356001600160401b0381116107ad5760206111ee81923690600401611728565b60606101406040516111ff816116eb565b5f81525f858201525f60408201525f838201525f60808201525f60a08201525f60c08201525f60e0820152611232611a30565b610100820152611240611a30565b6101208201520152604051928184925191829101835e81015f81520301902060405161126b816116eb565b60ff82541660078110156107995781526001820154916020820192835260028101549060408301918252600381015460608401908152600482015460808501908152600583015460a0860190815260068401549060c0870191825260078501549260e08801938452600886016112e0906118b7565b6101008901908152946112f5600b88016118b7565b966101208a01978852600e0161130a90611817565b976101408a019889526040519a8b9a60208c5260208c0190519061132d916118f6565b5160408b01525160608a01525160808901525160a08801525160c08701525160e08601525161010085015251610120840161016090526101808401611371916117a1565b9051838203601f190161014085015261138a91906117a1565b9051828203601f19016101608401526111b7919061177d565b346107ad5760403660031901126107ad576004356001600160401b0381116107ad576113d3903690600401611728565b60243542111561140d5760208091604051928184925191829101835e5f90820190815203019020426006820155805460ff19166005179055005b60405162461bcd60e51b815260206004820152601860248201527f536572746966696b6174206d61736968206265726c616b7500000000000000006044820152606490fd5b346107ad5760203660031901126107ad576004356001600160401b0381116107ad57611482903690600401611728565b604051818192516020819201835e81015f8152036020019020805460ff16600182015491600281015490600381015460048201546005830154600684015490600785015492600886016114d4906118b7565b946114e1600b88016118b7565b96600e016114ee90611817565b976040519a6114fe8c809c6118f6565b60208b015260408a01526060890152608088015260a087015260c086015260e0850152610100840161016090526101608401611539916117a1565b83810361012085015261154b916117a1565b8281036101408401526111b79161177d565b346107ad5760603660031901126107ad576004356001600160401b0381116107ad5761158d903690600401611728565b6024356001600160401b0381116107ad576115ac903690600401611728565b906044356001600160a01b038116908190036107ad576111b7926115ce611a30565b50604051926115dc846116d0565b8352602083015260408201526040519182916020835260208301906117a1565b346107ad5760203660031901126107ad576004356001600160401b0381116107ad57602061162f81923690600401611728565b604051928184925191829101835e5f90820190815203019020426004820155805460ff19166003179055005b346107ad5760203660031901126107ad576004356001600160401b0381116107ad576116bc60086020806116966111b7953690600401611728565b61169e611a30565b50604051928184925191829101835e81015f815203019020016118b7565b6040519182916020835260208301906117a1565b606081019081106001600160401b0382111761049d57604052565b61016081019081106001600160401b0382111761049d57604052565b90601f801991011681019081106001600160401b0382111761049d57604052565b81601f820112156107ad578035906001600160401b03821161049d576040519261175c601f8401601f191660200185611707565b828452602083830101116107ad57815f926020809301838601378301015290565b805180835260209291819084018484015e5f828201840152601f01601f1916010190565b9060406117cc6117ba845160608552606085019061177d565b6020850151848203602086015261177d565b928101516001600160a01b031691015290565b90600182811c9216801561180d575b60208310146117f957565b634e487b7160e01b5f52602260045260245ffd5b91607f16916117ee565b9060405191825f82549261182a846117df565b80845293600181169081156118955750600114611851575b5061184f92500383611707565b565b90505f9291925260205f20905f915b81831061187957505090602061184f928201015f611842565b6020919350806001915483858901015201910190918492611860565b90506020925061184f94915060ff191682840152151560051b8201015f611842565b906040516118c4816116d0565b604081936118d181611817565b83526118df60018201611817565b6020840152600201546001600160a01b0316910152565b9060078210156107995752565b9060406003198301126107ad576004356001600160401b0381116107ad578261192e91600401611728565b91602435906001600160401b0382116107ad5761194d91600401611728565b90565b91906060838203126107ad5760405190611969826116d0565b819380356001600160401b0381116107ad5782611987918301611728565b835260208101356001600160401b0381116107ad576040926119aa918301611728565b60208401520135906001600160a01b03821682036107ad5760400152565b60606003198201126107ad576004356001600160401b0381116107ad57816119f291600401611728565b916024356001600160401b0381116107ad5782611a1191600401611728565b91604435906001600160401b0382116107ad5761194d91600401611950565b60405190611a3d826116d0565b5f6040836060815260606020820152015256fea2646970667358221220cd2b5477e3942b32a47a20f724f67df771667876a04d0da2ef30c5cb064406dd64736f6c634300081b0033","opcodes":"PUSH1 0x80 DUP1 PUSH1 0x40 MSTORE CALLVALUE PUSH1 0x15 JUMPI PUSH2 0x1A86 SWAP1 DUP2 PUSH2 0x1A DUP3 CODECOPY RETURN JUMPDEST PUSH0 DUP1 REVERT INVALID PUSH1 0x80 PUSH1 0x40 MSTORE PUSH1 0x4 CALLDATASIZE LT ISZERO PUSH2 0x11 JUMPI PUSH0 DUP1 REVERT JUMPDEST PUSH0 CALLDATALOAD PUSH1 0xE0 SHR DUP1 PUSH4 0x17E68309 EQ PUSH2 0x165B JUMPI DUP1 PUSH4 0x19859C87 EQ PUSH2 0x15FC JUMPI DUP1 PUSH4 0x2E9CF827 EQ PUSH2 0x155D JUMPI DUP1 PUSH4 0x34A34F30 EQ PUSH2 0x1452 JUMPI DUP1 PUSH4 0x6D1AA7D5 EQ PUSH2 0x114D JUMPI DUP1 PUSH4 0x9740DBED EQ PUSH2 0x13A3 JUMPI DUP1 PUSH4 0x9AAA5D8B EQ PUSH2 0x11BB JUMPI DUP1 PUSH4 0xBF3F80AC EQ PUSH2 0x114D JUMPI DUP1 PUSH4 0xD26196FD EQ PUSH2 0x1022 JUMPI DUP1 PUSH4 0xE9C260D7 EQ PUSH2 0xC8A JUMPI DUP1 PUSH4 0xF5104FF1 EQ PUSH2 0x913 JUMPI DUP1 PUSH4 0xF53EF126 EQ PUSH2 0x7B1 JUMPI PUSH4 0xFB5FB9A3 EQ PUSH2 0xA8 JUMPI PUSH0 DUP1 REVERT JUMPDEST CALLVALUE PUSH2 0x7AD JUMPI PUSH1 0x60 CALLDATASIZE PUSH1 0x3 NOT ADD SLT PUSH2 0x7AD JUMPI PUSH1 0x4 CALLDATALOAD PUSH1 0x1 PUSH1 0x1 PUSH1 0x40 SHL SUB DUP2 GT PUSH2 0x7AD JUMPI PUSH2 0xD8 SWAP1 CALLDATASIZE SWAP1 PUSH1 0x4 ADD PUSH2 0x1950 JUMP JUMPDEST PUSH1 0x24 CALLDATALOAD PUSH1 0x1 PUSH1 0x1 PUSH1 0x40 SHL SUB DUP2 GT PUSH2 0x7AD JUMPI PUSH2 0xF7 SWAP1 CALLDATASIZE SWAP1 PUSH1 0x4 ADD PUSH2 0x1950 JUMP JUMPDEST PUSH1 0x44 CALLDATALOAD PUSH1 0x1 PUSH1 0x1 PUSH1 0x40 SHL SUB DUP2 GT PUSH2 0x7AD JUMPI PUSH2 0x116 SWAP1 CALLDATASIZE SWAP1 PUSH1 0x4 ADD PUSH2 0x1728 JUMP JUMPDEST PUSH1 0x40 MLOAD PUSH2 0x122 DUP2 PUSH2 0x16EB JUMP JUMPDEST PUSH0 DUP2 MSTORE PUSH1 0x20 DUP2 ADD SWAP4 TIMESTAMP DUP6 MSTORE PUSH1 0x40 DUP3 ADD PUSH0 DUP2 MSTORE PUSH1 0x60 DUP4 ADD PUSH0 DUP2 MSTORE PUSH1 0x80 DUP5 ADD PUSH0 DUP2 MSTORE PUSH1 0xA0 DUP6 ADD SWAP1 PUSH0 DUP3 MSTORE PUSH1 0xC0 DUP7 ADD SWAP3 PUSH0 DUP5 MSTORE PUSH1 0xE0 DUP8 ADD SWAP5 PUSH0 DUP7 MSTORE PUSH2 0x100 DUP9 ADD SWAP7 DUP8 MSTORE PUSH2 0x120 DUP9 ADD SWAP10 DUP11 MSTORE PUSH1 0x20 SWAP11 DUP12 DUP1 DUP1 SWAP12 PUSH2 0x17E PUSH1 0x40 MLOAD SWAP14 DUP15 PUSH2 0x1707 JUMP JUMPDEST PUSH0 DUP14 MSTORE PUSH2 0x140 DUP13 ADD SWAP13 DUP14 MSTORE PUSH1 0x40 MLOAD SWAP3 DUP2 DUP5 SWAP3 MLOAD SWAP2 DUP3 SWAP2 ADD DUP4 MCOPY DUP2 ADD PUSH0 DUP2 MSTORE SUB ADD SWAP1 KECCAK256 SWAP9 MLOAD PUSH1 0x7 DUP2 LT ISZERO PUSH2 0x799 JUMPI PUSH1 0xFF DUP1 NOT DUP12 SLOAD AND SWAP2 AND OR DUP10 SSTORE MLOAD PUSH1 0x1 DUP10 ADD SSTORE MLOAD PUSH1 0x2 DUP9 ADD SSTORE MLOAD PUSH1 0x3 DUP8 ADD SSTORE MLOAD PUSH1 0x4 DUP7 ADD SSTORE MLOAD PUSH1 0x5 DUP6 ADD SSTORE MLOAD PUSH1 0x6 DUP5 ADD SSTORE MLOAD PUSH1 0x7 DUP4 ADD SSTORE PUSH1 0x8 DUP3 ADD SWAP1 MLOAD SWAP1 DUP2 MLOAD DUP1 MLOAD SWAP1 PUSH1 0x1 PUSH1 0x1 PUSH1 0x40 SHL SUB DUP3 GT PUSH2 0x49D JUMPI DUP2 SWAP1 PUSH2 0x207 DUP5 SLOAD PUSH2 0x17DF JUMP JUMPDEST PUSH1 0x1F DUP2 GT PUSH2 0x74B JUMPI JUMPDEST POP DUP9 SWAP1 PUSH1 0x1F DUP4 GT PUSH1 0x1 EQ PUSH2 0x6E8 JUMPI PUSH0 SWAP3 PUSH2 0x6DD JUMPI JUMPDEST POP POP DUP2 PUSH1 0x1 SHL SWAP2 PUSH0 NOT SWAP1 PUSH1 0x3 SHL SHR NOT AND OR SWAP1 SSTORE JUMPDEST PUSH1 0x9 DUP3 ADD DUP6 DUP3 ADD MLOAD DUP1 MLOAD SWAP1 PUSH1 0x1 PUSH1 0x1 PUSH1 0x40 SHL SUB DUP3 GT PUSH2 0x49D JUMPI DUP2 SWAP1 PUSH2 0x25E DUP5 SLOAD PUSH2 0x17DF JUMP JUMPDEST PUSH1 0x1F DUP2 GT PUSH2 0x68F JUMPI JUMPDEST POP DUP9 SWAP1 PUSH1 0x1F DUP4 GT PUSH1 0x1 EQ PUSH2 0x62C JUMPI PUSH0 SWAP3 PUSH2 0x621 JUMPI JUMPDEST POP POP DUP2 PUSH1 0x1 SHL SWAP2 PUSH0 NOT SWAP1 PUSH1 0x3 SHL SHR NOT AND OR SWAP1 SSTORE JUMPDEST PUSH1 0x40 ADD MLOAD PUSH1 0xA DUP3 ADD DUP1 SLOAD PUSH1 0x1 PUSH1 0x1 PUSH1 0xA0 SHL SUB NOT AND PUSH1 0x1 PUSH1 0x1 PUSH1 0xA0 SHL SUB SWAP3 SWAP1 SWAP3 AND SWAP2 SWAP1 SWAP2 OR SWAP1 SSTORE SWAP2 MLOAD DUP1 MLOAD DUP1 MLOAD SWAP2 SWAP4 SWAP2 PUSH1 0xB DUP4 ADD SWAP2 PUSH1 0x1 PUSH1 0x1 PUSH1 0x40 SHL SUB DUP3 GT PUSH2 0x49D JUMPI DUP2 SWAP1 PUSH2 0x2DE DUP5 SLOAD PUSH2 0x17DF JUMP JUMPDEST PUSH1 0x1F DUP2 GT PUSH2 0x5D3 JUMPI JUMPDEST POP DUP8 SWAP1 PUSH1 0x1F DUP4 GT PUSH1 0x1 EQ PUSH2 0x570 JUMPI PUSH0 SWAP3 PUSH2 0x565 JUMPI JUMPDEST POP POP DUP2 PUSH1 0x1 SHL SWAP2 PUSH0 NOT SWAP1 PUSH1 0x3 SHL SHR NOT AND OR SWAP1 SSTORE JUMPDEST PUSH1 0xC DUP2 ADD SWAP3 DUP5 DUP2 ADD MLOAD SWAP4 DUP5 MLOAD SWAP5 PUSH1 0x1 PUSH1 0x1 PUSH1 0x40 SHL SUB DUP7 GT PUSH2 0x49D JUMPI PUSH2 0x335 DUP3 SLOAD PUSH2 0x17DF JUMP JUMPDEST PUSH1 0x1F DUP2 GT PUSH2 0x522 JUMPI JUMPDEST POP DUP7 SWAP1 PUSH1 0x1F DUP8 GT PUSH1 0x1 EQ PUSH2 0x4BC JUMPI SWAP6 DUP1 SWAP2 PUSH1 0xE SWAP7 SWAP8 PUSH0 SWAP3 PUSH2 0x4B1 JUMPI JUMPDEST POP POP DUP2 PUSH1 0x1 SHL SWAP2 PUSH0 NOT SWAP1 PUSH1 0x3 SHL SHR NOT AND OR SWAP1 SSTORE JUMPDEST PUSH1 0x40 ADD MLOAD PUSH1 0xD DUP3 ADD DUP1 SLOAD PUSH1 0x1 PUSH1 0x1 PUSH1 0xA0 SHL SUB NOT AND PUSH1 0x1 PUSH1 0x1 PUSH1 0xA0 SHL SUB SWAP3 SWAP1 SWAP3 AND SWAP2 SWAP1 SWAP2 OR SWAP1 SSTORE SWAP2 MLOAD DUP1 MLOAD SWAP1 SWAP4 SWAP2 SWAP1 SWAP3 ADD SWAP2 SWAP1 PUSH1 0x1 PUSH1 0x1 PUSH1 0x40 SHL SUB DUP3 GT PUSH2 0x49D JUMPI PUSH2 0x3B8 DUP4 SLOAD PUSH2 0x17DF JUMP JUMPDEST PUSH1 0x1F DUP2 GT PUSH2 0x45A JUMPI JUMPDEST POP DUP1 PUSH1 0x1F DUP4 GT PUSH1 0x1 EQ PUSH2 0x3FB JUMPI POP DUP2 SWAP3 SWAP4 PUSH0 SWAP3 PUSH2 0x3F0 JUMPI JUMPDEST POP POP PUSH0 NOT PUSH1 0x3 DUP4 SWAP1 SHL SHR NOT AND PUSH1 0x1 SWAP2 SWAP1 SWAP2 SHL OR SWAP1 SSTORE STOP JUMPDEST ADD MLOAD SWAP1 POP PUSH0 DUP1 PUSH2 0x3D9 JUMP JUMPDEST SWAP1 PUSH1 0x1F NOT DUP4 AND SWAP5 DUP5 PUSH0 MSTORE DUP3 PUSH0 KECCAK256 SWAP3 PUSH0 SWAP1 JUMPDEST DUP8 DUP3 LT PUSH2 0x442 JUMPI POP POP DUP4 PUSH1 0x1 SWAP6 SWAP7 LT PUSH2 0x42A JUMPI JUMPDEST POP POP POP DUP2 SHL ADD SWAP1 SSTORE STOP JUMPDEST ADD MLOAD PUSH0 NOT PUSH1 0xF8 DUP5 PUSH1 0x3 SHL AND SHR NOT AND SWAP1 SSTORE PUSH0 DUP1 DUP1 PUSH2 0x420 JUMP JUMPDEST DUP1 PUSH1 0x1 DUP6 SWAP7 DUP3 SWAP5 SWAP7 DUP7 ADD MLOAD DUP2 SSTORE ADD SWAP6 ADD SWAP4 ADD SWAP1 PUSH2 0x40C JUMP JUMPDEST DUP4 PUSH0 MSTORE DUP2 PUSH0 KECCAK256 PUSH1 0x1F DUP5 ADD PUSH1 0x5 SHR DUP2 ADD SWAP2 DUP4 DUP6 LT PUSH2 0x493 JUMPI JUMPDEST PUSH1 0x1F ADD PUSH1 0x5 SHR ADD SWAP1 JUMPDEST DUP2 DUP2 LT PUSH2 0x488 JUMPI POP PUSH2 0x3C1 JUMP JUMPDEST PUSH0 DUP2 SSTORE PUSH1 0x1 ADD PUSH2 0x47B JUMP JUMPDEST SWAP1 SWAP2 POP DUP2 SWAP1 PUSH2 0x472 JUMP JUMPDEST PUSH4 0x4E487B71 PUSH1 0xE0 SHL PUSH0 MSTORE PUSH1 0x41 PUSH1 0x4 MSTORE PUSH1 0x24 PUSH0 REVERT JUMPDEST ADD MLOAD SWAP1 POP PUSH0 DUP1 PUSH2 0x35A JUMP JUMPDEST SWAP1 PUSH1 0x1F NOT DUP8 AND SWAP2 DUP4 PUSH0 MSTORE DUP9 PUSH0 KECCAK256 SWAP3 PUSH0 JUMPDEST DUP11 DUP3 DUP3 LT PUSH2 0x50C JUMPI POP POP SWAP2 PUSH1 0x1 SWAP4 SWAP2 DUP10 PUSH1 0xE SWAP10 SWAP11 SWAP5 LT PUSH2 0x4F4 JUMPI JUMPDEST POP POP POP DUP2 SHL ADD SWAP1 SSTORE PUSH2 0x36E JUMP JUMPDEST ADD MLOAD PUSH0 NOT PUSH1 0xF8 DUP5 PUSH1 0x3 SHL AND SHR NOT AND SWAP1 SSTORE PUSH0 DUP1 DUP1 PUSH2 0x4E7 JUMP JUMPDEST PUSH1 0x1 DUP6 SWAP7 DUP3 SWAP4 SWAP7 DUP7 ADD MLOAD DUP2 SSTORE ADD SWAP6 ADD SWAP4 ADD PUSH2 0x4CC JUMP JUMPDEST DUP3 PUSH0 MSTORE DUP8 PUSH0 KECCAK256 PUSH1 0x1F DUP9 ADD PUSH1 0x5 SHR DUP2 ADD SWAP2 DUP10 DUP10 LT PUSH2 0x55B JUMPI JUMPDEST PUSH1 0x1F ADD PUSH1 0x5 SHR ADD SWAP1 JUMPDEST DUP2 DUP2 LT PUSH2 0x550 JUMPI POP PUSH2 0x33E JUMP JUMPDEST PUSH0 DUP2 SSTORE PUSH1 0x1 ADD PUSH2 0x543 JUMP JUMPDEST SWAP1 SWAP2 POP DUP2 SWAP1 PUSH2 0x53A JUMP JUMPDEST ADD MLOAD SWAP1 POP PUSH0 DUP1 PUSH2 0x2FC JUMP JUMPDEST PUSH0 DUP6 DUP2 MSTORE DUP10 DUP2 KECCAK256 SWAP4 POP PUSH1 0x1F NOT DUP6 AND SWAP1 JUMPDEST DUP11 DUP3 DUP3 LT PUSH2 0x5BD JUMPI POP POP SWAP1 DUP5 PUSH1 0x1 SWAP6 SWAP5 SWAP4 SWAP3 LT PUSH2 0x5A5 JUMPI JUMPDEST POP POP POP DUP2 SHL ADD SWAP1 SSTORE PUSH2 0x310 JUMP JUMPDEST ADD MLOAD PUSH0 NOT PUSH1 0xF8 DUP5 PUSH1 0x3 SHL AND SHR NOT AND SWAP1 SSTORE PUSH0 DUP1 DUP1 PUSH2 0x598 JUMP JUMPDEST PUSH1 0x1 DUP6 SWAP7 DUP3 SWAP4 SWAP7 DUP7 ADD MLOAD DUP2 SSTORE ADD SWAP6 ADD SWAP4 ADD PUSH2 0x580 JUMP JUMPDEST SWAP1 SWAP2 POP DUP4 PUSH0 MSTORE DUP8 PUSH0 KECCAK256 PUSH1 0x1F DUP5 ADD PUSH1 0x5 SHR DUP2 ADD SWAP2 DUP10 DUP6 LT PUSH2 0x617 JUMPI JUMPDEST SWAP1 PUSH1 0x1F DUP6 SWAP5 SWAP4 SWAP3 ADD PUSH1 0x5 SHR ADD SWAP1 JUMPDEST DUP2 DUP2 LT PUSH2 0x609 JUMPI POP PUSH2 0x2E7 JUMP JUMPDEST PUSH0 DUP2 SSTORE DUP5 SWAP4 POP PUSH1 0x1 ADD PUSH2 0x5FC JUMP JUMPDEST SWAP1 SWAP2 POP DUP2 SWAP1 PUSH2 0x5EE JUMP JUMPDEST ADD MLOAD SWAP1 POP PUSH0 DUP1 PUSH2 0x27C JUMP JUMPDEST PUSH0 DUP6 DUP2 MSTORE DUP11 DUP2 KECCAK256 SWAP4 POP PUSH1 0x1F NOT DUP6 AND SWAP1 JUMPDEST DUP12 DUP3 DUP3 LT PUSH2 0x679 JUMPI POP POP SWAP1 DUP5 PUSH1 0x1 SWAP6 SWAP5 SWAP4 SWAP3 LT PUSH2 0x661 JUMPI JUMPDEST POP POP POP DUP2 SHL ADD SWAP1 SSTORE PUSH2 0x290 JUMP JUMPDEST ADD MLOAD PUSH0 NOT PUSH1 0xF8 DUP5 PUSH1 0x3 SHL AND SHR NOT AND SWAP1 SSTORE PUSH0 DUP1 DUP1 PUSH2 0x654 JUMP JUMPDEST PUSH1 0x1 DUP6 SWAP7 DUP3 SWAP4 SWAP7 DUP7 ADD MLOAD DUP2 SSTORE ADD SWAP6 ADD SWAP4 ADD PUSH2 0x63C JUMP JUMPDEST SWAP1 SWAP2 POP DUP4 PUSH0 MSTORE DUP9 PUSH0 KECCAK256 PUSH1 0x1F DUP5 ADD PUSH1 0x5 SHR DUP2 ADD SWAP2 DUP11 DUP6 LT PUSH2 0x6D3 JUMPI JUMPDEST SWAP1 PUSH1 0x1F DUP6 SWAP5 SWAP4 SWAP3 ADD PUSH1 0x5 SHR ADD SWAP1 JUMPDEST DUP2 DUP2 LT PUSH2 0x6C5 JUMPI POP PUSH2 0x267 JUMP JUMPDEST PUSH0 DUP2 SSTORE DUP5 SWAP4 POP PUSH1 0x1 ADD PUSH2 0x6B8 JUMP JUMPDEST SWAP1 SWAP2 POP DUP2 SWAP1 PUSH2 0x6AA JUMP JUMPDEST ADD MLOAD SWAP1 POP PUSH0 DUP1 PUSH2 0x225 JUMP JUMPDEST PUSH0 DUP6 DUP2 MSTORE DUP11 DUP2 KECCAK256 SWAP4 POP PUSH1 0x1F NOT DUP6 AND SWAP1 JUMPDEST DUP12 DUP3 DUP3 LT PUSH2 0x735 JUMPI POP POP SWAP1 DUP5 PUSH1 0x1 SWAP6 SWAP5 SWAP4 SWAP3 LT PUSH2 0x71D JUMPI JUMPDEST POP POP POP DUP2 SHL ADD SWAP1 SSTORE PUSH2 0x239 JUMP JUMPDEST ADD MLOAD PUSH0 NOT PUSH1 0xF8 DUP5 PUSH1 0x3 SHL AND SHR NOT AND SWAP1 SSTORE PUSH0 DUP1 DUP1 PUSH2 0x710 JUMP JUMPDEST PUSH1 0x1 DUP6 SWAP7 DUP3 SWAP4 SWAP7 DUP7 ADD MLOAD DUP2 SSTORE ADD SWAP6 ADD SWAP4 ADD PUSH2 0x6F8 JUMP JUMPDEST SWAP1 SWAP2 POP DUP4 PUSH0 MSTORE DUP9 PUSH0 KECCAK256 PUSH1 0x1F DUP5 ADD PUSH1 0x5 SHR DUP2 ADD SWAP2 DUP11 DUP6 LT PUSH2 0x78F JUMPI JUMPDEST SWAP1 PUSH1 0x1F DUP6 SWAP5 SWAP4 SWAP3 ADD PUSH1 0x5 SHR ADD SWAP1 JUMPDEST DUP2 DUP2 LT PUSH2 0x781 JUMPI POP PUSH2 0x210 JUMP JUMPDEST PUSH0 DUP2 SSTORE DUP5 SWAP4 POP PUSH1 0x1 ADD PUSH2 0x774 JUMP JUMPDEST SWAP1 SWAP2 POP DUP2 SWAP1 PUSH2 0x766 JUMP JUMPDEST PUSH4 0x4E487B71 PUSH1 0xE0 SHL PUSH0 MSTORE PUSH1 0x21 PUSH1 0x4 MSTORE PUSH1 0x24 PUSH0 REVERT JUMPDEST PUSH0 DUP1 REVERT JUMPDEST CALLVALUE PUSH2 0x7AD JUMPI PUSH1 0x20 DUP1 PUSH2 0x7C2 CALLDATASIZE PUSH2 0x1903 JUMP JUMPDEST SWAP3 SWAP1 PUSH1 0x40 MLOAD SWAP3 DUP2 DUP5 SWAP3 MLOAD SWAP2 DUP3 SWAP2 ADD DUP4 MCOPY DUP2 ADD PUSH0 DUP2 MSTORE SUB ADD SWAP1 KECCAK256 TIMESTAMP PUSH1 0x2 DUP3 ADD SSTORE PUSH1 0x82 TIMESTAMP ADD SWAP1 DUP2 TIMESTAMP GT PUSH2 0x8FF JUMPI PUSH1 0xE SWAP2 PUSH1 0x5 DUP3 ADD SSTORE PUSH1 0x6 PUSH1 0xFF NOT DUP3 SLOAD AND OR DUP2 SSTORE ADD DUP2 MLOAD PUSH1 0x1 PUSH1 0x1 PUSH1 0x40 SHL SUB DUP2 GT PUSH2 0x49D JUMPI PUSH2 0x81B DUP3 SLOAD PUSH2 0x17DF JUMP JUMPDEST PUSH1 0x1F DUP2 GT PUSH2 0x8BA JUMPI JUMPDEST POP PUSH1 0x20 SWAP3 PUSH1 0x1F DUP3 GT PUSH1 0x1 EQ PUSH2 0x85F JUMPI SWAP3 DUP2 SWAP3 SWAP4 PUSH0 SWAP3 PUSH2 0x854 JUMPI POP POP PUSH0 NOT PUSH1 0x3 DUP4 SWAP1 SHL SHR NOT AND PUSH1 0x1 SWAP2 SWAP1 SWAP2 SHL OR SWAP1 SSTORE STOP JUMPDEST ADD MLOAD SWAP1 POP DUP4 DUP1 PUSH2 0x3D9 JUMP JUMPDEST PUSH1 0x1F NOT DUP3 AND SWAP4 DUP4 PUSH0 MSTORE DUP1 PUSH0 KECCAK256 SWAP2 PUSH0 JUMPDEST DUP7 DUP2 LT PUSH2 0x8A2 JUMPI POP DUP4 PUSH1 0x1 SWAP6 SWAP7 LT PUSH2 0x88A JUMPI POP POP POP DUP2 SHL ADD SWAP1 SSTORE STOP JUMPDEST ADD MLOAD PUSH0 NOT PUSH1 0xF8 DUP5 PUSH1 0x3 SHL AND SHR NOT AND SWAP1 SSTORE DUP4 DUP1 DUP1 PUSH2 0x420 JUMP JUMPDEST SWAP2 SWAP3 PUSH1 0x20 PUSH1 0x1 DUP2 SWAP3 DUP7 DUP6 ADD MLOAD DUP2 SSTORE ADD SWAP5 ADD SWAP3 ADD PUSH2 0x86E JUMP JUMPDEST DUP3 PUSH0 MSTORE PUSH1 0x20 PUSH0 KECCAK256 PUSH1 0x1F DUP4 ADD PUSH1 0x5 SHR DUP2 ADD SWAP2 PUSH1 0x20 DUP5 LT PUSH2 0x8F5 JUMPI JUMPDEST PUSH1 0x1F ADD PUSH1 0x5 SHR ADD SWAP1 JUMPDEST DUP2 DUP2 LT PUSH2 0x8EA JUMPI POP PUSH2 0x824 JUMP JUMPDEST PUSH0 DUP2 SSTORE PUSH1 0x1 ADD PUSH2 0x8DD JUMP JUMPDEST SWAP1 SWAP2 POP DUP2 SWAP1 PUSH2 0x8D4 JUMP JUMPDEST PUSH4 0x4E487B71 PUSH1 0xE0 SHL PUSH0 MSTORE PUSH1 0x11 PUSH1 0x4 MSTORE PUSH1 0x24 PUSH0 REVERT JUMPDEST CALLVALUE PUSH2 0x7AD JUMPI PUSH1 0x20 DUP1 PUSH2 0x924 CALLDATASIZE PUSH2 0x19C8 JUMP JUMPDEST SWAP4 SWAP2 PUSH1 0x40 SWAP4 SWAP2 SWAP4 MLOAD SWAP3 DUP2 DUP5 SWAP3 MLOAD SWAP2 DUP3 SWAP2 ADD DUP4 MCOPY DUP2 ADD PUSH0 DUP2 MSTORE SUB ADD SWAP1 KECCAK256 SWAP2 DUP1 MLOAD PUSH1 0xB DUP5 ADD SWAP1 DUP1 MLOAD SWAP1 PUSH1 0x1 PUSH1 0x1 PUSH1 0x40 SHL SUB DUP3 GT PUSH2 0x49D JUMPI PUSH2 0x963 DUP4 SLOAD PUSH2 0x17DF JUMP JUMPDEST PUSH1 0x1F DUP2 GT PUSH2 0xC45 JUMPI JUMPDEST POP PUSH1 0x20 SWAP1 PUSH1 0x1F DUP4 GT PUSH1 0x1 EQ PUSH2 0xBDE JUMPI PUSH1 0x20 SWAP5 SWAP4 SWAP3 SWAP2 PUSH0 SWAP2 DUP4 PUSH2 0xBD3 JUMPI JUMPDEST POP POP DUP2 PUSH1 0x1 SHL SWAP2 PUSH0 NOT SWAP1 PUSH1 0x3 SHL SHR NOT AND OR SWAP1 SSTORE JUMPDEST PUSH1 0x40 DUP2 ADD MLOAD PUSH1 0xD DUP6 ADD DUP1 SLOAD PUSH1 0x1 PUSH1 0x1 PUSH1 0xA0 SHL SUB NOT AND PUSH1 0x1 PUSH1 0x1 PUSH1 0xA0 SHL SUB SWAP3 SWAP1 SWAP3 AND SWAP2 SWAP1 SWAP2 OR SWAP1 SSTORE ADD MLOAD DUP1 MLOAD SWAP1 SWAP3 SWAP1 PUSH1 0xC DUP3 ADD SWAP1 PUSH1 0x1 PUSH1 0x1 PUSH1 0x40 SHL SUB DUP2 GT PUSH2 0x49D JUMPI PUSH2 0x9E8 DUP3 SLOAD PUSH2 0x17DF JUMP JUMPDEST PUSH1 0x1F DUP2 GT PUSH2 0xB8E JUMPI JUMPDEST POP PUSH1 0x20 SWAP5 PUSH1 0x1F DUP3 GT PUSH1 0x1 EQ PUSH2 0xB2D JUMPI SWAP5 DUP2 SWAP3 SWAP4 SWAP5 SWAP6 PUSH0 SWAP3 PUSH2 0xB22 JUMPI JUMPDEST POP POP DUP2 PUSH1 0x1 SHL SWAP2 PUSH0 NOT SWAP1 PUSH1 0x3 SHL SHR NOT AND OR SWAP1 SSTORE JUMPDEST TIMESTAMP PUSH1 0x2 DUP3 ADD SSTORE PUSH1 0x82 TIMESTAMP ADD SWAP1 DUP2 TIMESTAMP GT PUSH2 0x8FF JUMPI PUSH1 0xE SWAP2 PUSH1 0x5 DUP3 ADD SSTORE PUSH1 0x1 PUSH1 0xFF NOT DUP3 SLOAD AND OR DUP2 SSTORE ADD DUP2 MLOAD PUSH1 0x1 PUSH1 0x1 PUSH1 0x40 SHL SUB DUP2 GT PUSH2 0x49D JUMPI PUSH2 0xA61 DUP3 SLOAD PUSH2 0x17DF JUMP JUMPDEST PUSH1 0x1F DUP2 GT PUSH2 0xADD JUMPI JUMPDEST POP PUSH1 0x20 SWAP3 PUSH1 0x1F DUP3 GT PUSH1 0x1 EQ PUSH2 0xA9A JUMPI SWAP3 DUP2 SWAP3 SWAP4 PUSH0 SWAP3 PUSH2 0x854 JUMPI POP POP PUSH0 NOT PUSH1 0x3 DUP4 SWAP1 SHL SHR NOT AND PUSH1 0x1 SWAP2 SWAP1 SWAP2 SHL OR SWAP1 SSTORE STOP JUMPDEST PUSH1 0x1F NOT DUP3 AND SWAP4 DUP4 PUSH0 MSTORE DUP1 PUSH0 KECCAK256 SWAP2 PUSH0 JUMPDEST DUP7 DUP2 LT PUSH2 0xAC5 JUMPI POP DUP4 PUSH1 0x1 SWAP6 SWAP7 LT PUSH2 0x88A JUMPI POP POP POP DUP2 SHL ADD SWAP1 SSTORE STOP JUMPDEST SWAP2 SWAP3 PUSH1 0x20 PUSH1 0x1 DUP2 SWAP3 DUP7 DUP6 ADD MLOAD DUP2 SSTORE ADD SWAP5 ADD SWAP3 ADD PUSH2 0xAA9 JUMP JUMPDEST DUP3 PUSH0 MSTORE PUSH1 0x20 PUSH0 KECCAK256 PUSH1 0x1F DUP4 ADD PUSH1 0x5 SHR DUP2 ADD SWAP2 PUSH1 0x20 DUP5 LT PUSH2 0xB18 JUMPI JUMPDEST PUSH1 0x1F ADD PUSH1 0x5 SHR ADD SWAP1 JUMPDEST DUP2 DUP2 LT PUSH2 0xB0D JUMPI POP PUSH2 0xA6A JUMP JUMPDEST PUSH0 DUP2 SSTORE PUSH1 0x1 ADD PUSH2 0xB00 JUMP JUMPDEST SWAP1 SWAP2 POP DUP2 SWAP1 PUSH2 0xAF7 JUMP JUMPDEST ADD MLOAD SWAP1 POP DUP6 DUP1 PUSH2 0xA0D JUMP JUMPDEST PUSH1 0x1F NOT DUP3 AND SWAP6 DUP4 PUSH0 MSTORE DUP1 PUSH0 KECCAK256 SWAP2 PUSH0 JUMPDEST DUP9 DUP2 LT PUSH2 0xB76 JUMPI POP DUP4 PUSH1 0x1 SWAP6 SWAP7 SWAP8 SWAP9 LT PUSH2 0xB5E JUMPI JUMPDEST POP POP POP DUP2 SHL ADD SWAP1 SSTORE PUSH2 0xA21 JUMP JUMPDEST ADD MLOAD PUSH0 NOT PUSH1 0xF8 DUP5 PUSH1 0x3 SHL AND SHR NOT AND SWAP1 SSTORE DUP6 DUP1 DUP1 PUSH2 0xB51 JUMP JUMPDEST SWAP2 SWAP3 PUSH1 0x20 PUSH1 0x1 DUP2 SWAP3 DUP7 DUP6 ADD MLOAD DUP2 SSTORE ADD SWAP5 ADD SWAP3 ADD PUSH2 0xB3C JUMP JUMPDEST DUP3 PUSH0 MSTORE PUSH1 0x20 PUSH0 KECCAK256 PUSH1 0x1F DUP4 ADD PUSH1 0x5 SHR DUP2 ADD SWAP2 PUSH1 0x20 DUP5 LT PUSH2 0xBC9 JUMPI JUMPDEST PUSH1 0x1F ADD PUSH1 0x5 SHR ADD SWAP1 JUMPDEST DUP2 DUP2 LT PUSH2 0xBBE JUMPI POP PUSH2 0x9F1 JUMP JUMPDEST PUSH0 DUP2 SSTORE PUSH1 0x1 ADD PUSH2 0xBB1 JUMP JUMPDEST SWAP1 SWAP2 POP DUP2 SWAP1 PUSH2 0xBA8 JUMP JUMPDEST ADD MLOAD SWAP1 POP DUP8 DUP1 PUSH2 0x989 JUMP JUMPDEST SWAP1 PUSH1 0x1F NOT DUP4 AND SWAP2 DUP5 PUSH0 MSTORE DUP2 PUSH0 KECCAK256 SWAP3 PUSH0 JUMPDEST DUP2 DUP2 LT PUSH2 0xC2D JUMPI POP SWAP2 PUSH1 0x1 SWAP4 SWAP2 DUP6 PUSH1 0x20 SWAP9 SWAP8 SWAP7 SWAP5 LT PUSH2 0xC15 JUMPI JUMPDEST POP POP POP DUP2 SHL ADD SWAP1 SSTORE PUSH2 0x99D JUMP JUMPDEST ADD MLOAD PUSH0 NOT PUSH1 0xF8 DUP5 PUSH1 0x3 SHL AND SHR NOT AND SWAP1 SSTORE DUP8 DUP1 DUP1 PUSH2 0xC08 JUMP JUMPDEST SWAP3 SWAP4 PUSH1 0x20 PUSH1 0x1 DUP2 SWAP3 DUP8 DUP7 ADD MLOAD DUP2 SSTORE ADD SWAP6 ADD SWAP4 ADD PUSH2 0xBEE JUMP JUMPDEST DUP4 PUSH0 MSTORE PUSH1 0x20 PUSH0 KECCAK256 PUSH1 0x1F DUP5 ADD PUSH1 0x5 SHR DUP2 ADD SWAP2 PUSH1 0x20 DUP6 LT PUSH2 0xC80 JUMPI JUMPDEST PUSH1 0x1F ADD PUSH1 0x5 SHR ADD SWAP1 JUMPDEST DUP2 DUP2 LT PUSH2 0xC75 JUMPI POP PUSH2 0x96C JUMP JUMPDEST PUSH0 DUP2 SSTORE PUSH1 0x1 ADD PUSH2 0xC68 JUMP JUMPDEST SWAP1 SWAP2 POP DUP2 SWAP1 PUSH2 0xC5F JUMP JUMPDEST CALLVALUE PUSH2 0x7AD JUMPI PUSH2 0xC98 CALLDATASIZE PUSH2 0x19C8 JUMP JUMPDEST SWAP1 SWAP2 PUSH1 0x40 MLOAD PUSH1 0x20 DUP3 MLOAD SWAP2 DUP2 DUP2 DUP2 DUP7 ADD SWAP5 DUP1 DUP7 DUP4 MCOPY DUP2 ADD PUSH0 DUP2 MSTORE SUB ADD SWAP1 KECCAK256 SWAP3 PUSH1 0x40 MLOAD SWAP3 DUP4 SWAP2 MLOAD DUP1 SWAP2 DUP4 MCOPY DUP2 ADD PUSH1 0x1 DUP2 MSTORE SUB ADD SWAP1 KECCAK256 DUP4 MLOAD PUSH1 0x1 PUSH1 0x1 PUSH1 0x40 SHL SUB DUP2 GT PUSH2 0x49D JUMPI PUSH2 0xCE5 DUP3 SLOAD PUSH2 0x17DF JUMP JUMPDEST PUSH1 0x1F DUP2 GT PUSH2 0xFDD JUMPI JUMPDEST POP PUSH1 0x20 SWAP5 PUSH1 0x1F DUP3 GT PUSH1 0x1 EQ PUSH2 0xF7C JUMPI SWAP5 DUP2 SWAP3 SWAP4 SWAP5 SWAP6 PUSH0 SWAP3 PUSH2 0xF71 JUMPI JUMPDEST POP POP DUP2 PUSH1 0x1 SHL SWAP2 PUSH0 NOT SWAP1 PUSH1 0x3 SHL SHR NOT AND OR SWAP1 SSTORE JUMPDEST DUP2 MLOAD SWAP2 PUSH1 0xB DUP3 ADD DUP4 MLOAD PUSH1 0x1 PUSH1 0x1 PUSH1 0x40 SHL SUB DUP2 GT PUSH2 0x49D JUMPI PUSH2 0xD3F DUP3 SLOAD PUSH2 0x17DF JUMP JUMPDEST PUSH1 0x1F DUP2 GT PUSH2 0xF2C JUMPI JUMPDEST POP PUSH1 0x20 PUSH1 0x1F DUP3 GT PUSH1 0x1 EQ PUSH2 0xEC7 JUMPI DUP2 SWAP1 PUSH1 0x20 SWAP6 SWAP7 PUSH0 SWAP3 PUSH2 0xEBC JUMPI JUMPDEST POP POP DUP2 PUSH1 0x1 SHL SWAP2 PUSH0 NOT SWAP1 PUSH1 0x3 SHL SHR NOT AND OR SWAP1 SSTORE JUMPDEST PUSH1 0x40 DUP2 ADD MLOAD PUSH1 0xD DUP5 ADD DUP1 SLOAD PUSH1 0x1 PUSH1 0x1 PUSH1 0xA0 SHL SUB NOT AND PUSH1 0x1 PUSH1 0x1 PUSH1 0xA0 SHL SUB SWAP3 SWAP1 SWAP3 AND SWAP2 SWAP1 SWAP2 OR SWAP1 SSTORE ADD MLOAD DUP1 MLOAD SWAP1 SWAP2 SWAP1 PUSH1 0xC DUP3 ADD SWAP1 PUSH1 0x1 PUSH1 0x1 PUSH1 0x40 SHL SUB DUP2 GT PUSH2 0x49D JUMPI PUSH2 0xDC2 DUP3 SLOAD PUSH2 0x17DF JUMP JUMPDEST PUSH1 0x1F DUP2 GT PUSH2 0xE77 JUMPI JUMPDEST POP PUSH1 0x20 PUSH1 0x1F DUP3 GT PUSH1 0x1 EQ PUSH2 0xE16 JUMPI DUP2 SWAP3 SWAP4 SWAP5 PUSH0 SWAP3 PUSH2 0xE0B JUMPI JUMPDEST POP POP DUP2 PUSH1 0x1 SHL SWAP2 PUSH0 NOT SWAP1 PUSH1 0x3 SHL SHR NOT AND OR SWAP1 SSTORE JUMPDEST TIMESTAMP PUSH1 0x3 DUP3 ADD SSTORE DUP1 SLOAD PUSH1 0xFF NOT AND PUSH1 0x2 OR SWAP1 SSTORE STOP JUMPDEST ADD MLOAD SWAP1 POP DUP5 DUP1 PUSH2 0xDE4 JUMP JUMPDEST PUSH1 0x1F NOT DUP3 AND SWAP1 DUP4 PUSH0 MSTORE DUP1 PUSH0 KECCAK256 SWAP2 PUSH0 JUMPDEST DUP2 DUP2 LT PUSH2 0xE5F JUMPI POP SWAP6 DUP4 PUSH1 0x1 SWAP6 SWAP7 SWAP8 LT PUSH2 0xE47 JUMPI JUMPDEST POP POP POP DUP2 SHL ADD SWAP1 SSTORE PUSH2 0xDF8 JUMP JUMPDEST ADD MLOAD PUSH0 NOT PUSH1 0xF8 DUP5 PUSH1 0x3 SHL AND SHR NOT AND SWAP1 SSTORE DUP5 DUP1 DUP1 PUSH2 0xE3A JUMP JUMPDEST SWAP2 SWAP3 PUSH1 0x20 PUSH1 0x1 DUP2 SWAP3 DUP7 DUP12 ADD MLOAD DUP2 SSTORE ADD SWAP5 ADD SWAP3 ADD PUSH2 0xE25 JUMP JUMPDEST DUP3 PUSH0 MSTORE PUSH1 0x20 PUSH0 KECCAK256 PUSH1 0x1F DUP4 ADD PUSH1 0x5 SHR DUP2 ADD SWAP2 PUSH1 0x20 DUP5 LT PUSH2 0xEB2 JUMPI JUMPDEST PUSH1 0x1F ADD PUSH1 0x5 SHR ADD SWAP1 JUMPDEST DUP2 DUP2 LT PUSH2 0xEA7 JUMPI POP PUSH2 0xDCB JUMP JUMPDEST PUSH0 DUP2 SSTORE PUSH1 0x1 ADD PUSH2 0xE9A JUMP JUMPDEST SWAP1 SWAP2 POP DUP2 SWAP1 PUSH2 0xE91 JUMP JUMPDEST ADD MLOAD SWAP1 POP DUP7 DUP1 PUSH2 0xD63 JUMP JUMPDEST PUSH1 0x1F NOT DUP3 AND SWAP6 DUP4 PUSH0 MSTORE DUP2 PUSH0 KECCAK256 SWAP7 PUSH0 JUMPDEST DUP2 DUP2 LT PUSH2 0xF14 JUMPI POP SWAP2 PUSH1 0x20 SWAP7 SWAP8 SWAP2 DUP5 PUSH1 0x1 SWAP6 SWAP5 LT PUSH2 0xEFC JUMPI JUMPDEST POP POP POP DUP2 SHL ADD SWAP1 SSTORE PUSH2 0xD77 JUMP JUMPDEST ADD MLOAD PUSH0 NOT PUSH1 0xF8 DUP5 PUSH1 0x3 SHL AND SHR NOT AND SWAP1 SSTORE DUP7 DUP1 DUP1 PUSH2 0xEEF JUMP JUMPDEST DUP4 DUP4 ADD MLOAD DUP10 SSTORE PUSH1 0x1 SWAP1 SWAP9 ADD SWAP8 PUSH1 0x20 SWAP4 DUP5 ADD SWAP4 ADD PUSH2 0xED6 JUMP JUMPDEST DUP3 PUSH0 MSTORE PUSH1 0x20 PUSH0 KECCAK256 PUSH1 0x1F DUP4 ADD PUSH1 0x5 SHR DUP2 ADD SWAP2 PUSH1 0x20 DUP5 LT PUSH2 0xF67 JUMPI JUMPDEST PUSH1 0x1F ADD PUSH1 0x5 SHR ADD SWAP1 JUMPDEST DUP2 DUP2 LT PUSH2 0xF5C JUMPI POP PUSH2 0xD48 JUMP JUMPDEST PUSH0 DUP2 SSTORE PUSH1 0x1 ADD PUSH2 0xF4F JUMP JUMPDEST SWAP1 SWAP2 POP DUP2 SWAP1 PUSH2 0xF46 JUMP JUMPDEST ADD MLOAD SWAP1 POP DUP6 DUP1 PUSH2 0xD0A JUMP JUMPDEST PUSH1 0x1F NOT DUP3 AND SWAP6 DUP4 PUSH0 MSTORE DUP1 PUSH0 KECCAK256 SWAP2 PUSH0 JUMPDEST DUP9 DUP2 LT PUSH2 0xFC5 JUMPI POP DUP4 PUSH1 0x1 SWAP6 SWAP7 SWAP8 SWAP9 LT PUSH2 0xFAD JUMPI JUMPDEST POP POP POP DUP2 SHL ADD SWAP1 SSTORE PUSH2 0xD1E JUMP JUMPDEST ADD MLOAD PUSH0 NOT PUSH1 0xF8 DUP5 PUSH1 0x3 SHL AND SHR NOT AND SWAP1 SSTORE DUP6 DUP1 DUP1 PUSH2 0xFA0 JUMP JUMPDEST SWAP2 SWAP3 PUSH1 0x20 PUSH1 0x1 DUP2 SWAP3 DUP7 DUP6 ADD MLOAD DUP2 SSTORE ADD SWAP5 ADD SWAP3 ADD PUSH2 0xF8B JUMP JUMPDEST DUP3 PUSH0 MSTORE PUSH1 0x20 PUSH0 KECCAK256 PUSH1 0x1F DUP4 ADD PUSH1 0x5 SHR DUP2 ADD SWAP2 PUSH1 0x20 DUP5 LT PUSH2 0x1018 JUMPI JUMPDEST PUSH1 0x1F ADD PUSH1 0x5 SHR ADD SWAP1 JUMPDEST DUP2 DUP2 LT PUSH2 0x100D JUMPI POP PUSH2 0xCEE JUMP JUMPDEST PUSH0 DUP2 SSTORE PUSH1 0x1 ADD PUSH2 0x1000 JUMP JUMPDEST SWAP1 SWAP2 POP DUP2 SWAP1 PUSH2 0xFF7 JUMP JUMPDEST CALLVALUE PUSH2 0x7AD JUMPI PUSH1 0x20 DUP1 PUSH2 0x1033 CALLDATASIZE PUSH2 0x1903 JUMP JUMPDEST SWAP3 SWAP1 PUSH1 0x40 MLOAD SWAP3 DUP2 DUP5 SWAP3 MLOAD SWAP2 DUP3 SWAP2 ADD DUP4 MCOPY DUP2 ADD PUSH0 DUP2 MSTORE SUB ADD SWAP1 KECCAK256 TIMESTAMP PUSH1 0x7 DUP3 ADD SSTORE PUSH1 0x82 TIMESTAMP ADD SWAP1 DUP2 TIMESTAMP GT PUSH2 0x8FF JUMPI PUSH1 0xE SWAP2 PUSH1 0x5 DUP3 ADD SSTORE PUSH1 0x6 PUSH1 0xFF NOT DUP3 SLOAD AND OR DUP2 SSTORE ADD DUP2 MLOAD PUSH1 0x1 PUSH1 0x1 PUSH1 0x40 SHL SUB DUP2 GT PUSH2 0x49D JUMPI PUSH2 0x108C DUP3 SLOAD PUSH2 0x17DF JUMP JUMPDEST PUSH1 0x1F DUP2 GT PUSH2 0x1108 JUMPI JUMPDEST POP PUSH1 0x20 SWAP3 PUSH1 0x1F DUP3 GT PUSH1 0x1 EQ PUSH2 0x10C5 JUMPI SWAP3 DUP2 SWAP3 SWAP4 PUSH0 SWAP3 PUSH2 0x854 JUMPI POP POP PUSH0 NOT PUSH1 0x3 DUP4 SWAP1 SHL SHR NOT AND PUSH1 0x1 SWAP2 SWAP1 SWAP2 SHL OR SWAP1 SSTORE STOP JUMPDEST PUSH1 0x1F NOT DUP3 AND SWAP4 DUP4 PUSH0 MSTORE DUP1 PUSH0 KECCAK256 SWAP2 PUSH0 JUMPDEST DUP7 DUP2 LT PUSH2 0x10F0 JUMPI POP DUP4 PUSH1 0x1 SWAP6 SWAP7 LT PUSH2 0x88A JUMPI POP POP POP DUP2 SHL ADD SWAP1 SSTORE STOP JUMPDEST SWAP2 SWAP3 PUSH1 0x20 PUSH1 0x1 DUP2 SWAP3 DUP7 DUP6 ADD MLOAD DUP2 SSTORE ADD SWAP5 ADD SWAP3 ADD PUSH2 0x10D4 JUMP JUMPDEST DUP3 PUSH0 MSTORE PUSH1 0x20 PUSH0 KECCAK256 PUSH1 0x1F DUP4 ADD PUSH1 0x5 SHR DUP2 ADD SWAP2 PUSH1 0x20 DUP5 LT PUSH2 0x1143 JUMPI JUMPDEST PUSH1 0x1F ADD PUSH1 0x5 SHR ADD SWAP1 JUMPDEST DUP2 DUP2 LT PUSH2 0x1138 JUMPI POP PUSH2 0x1095 JUMP JUMPDEST PUSH0 DUP2 SSTORE PUSH1 0x1 ADD PUSH2 0x112B JUMP JUMPDEST SWAP1 SWAP2 POP DUP2 SWAP1 PUSH2 0x1122 JUMP JUMPDEST CALLVALUE PUSH2 0x7AD JUMPI PUSH1 0x20 CALLDATASIZE PUSH1 0x3 NOT ADD SLT PUSH2 0x7AD JUMPI PUSH1 0x4 CALLDATALOAD PUSH1 0x1 PUSH1 0x1 PUSH1 0x40 SHL SUB DUP2 GT PUSH2 0x7AD JUMPI PUSH2 0x11A3 PUSH1 0x20 DUP1 PUSH2 0x1186 PUSH2 0x11B7 SWAP5 CALLDATASIZE SWAP1 PUSH1 0x4 ADD PUSH2 0x1728 JUMP JUMPDEST PUSH1 0x40 MLOAD SWAP3 DUP2 DUP5 SWAP3 MLOAD SWAP2 DUP3 SWAP2 ADD DUP4 MCOPY DUP2 ADD PUSH1 0x1 DUP2 MSTORE SUB ADD SWAP1 KECCAK256 PUSH2 0x1817 JUMP JUMPDEST PUSH1 0x40 MLOAD SWAP2 DUP3 SWAP2 PUSH1 0x20 DUP4 MSTORE PUSH1 0x20 DUP4 ADD SWAP1 PUSH2 0x177D JUMP JUMPDEST SUB SWAP1 RETURN JUMPDEST CALLVALUE PUSH2 0x7AD JUMPI PUSH1 0x20 CALLDATASIZE PUSH1 0x3 NOT ADD SLT PUSH2 0x7AD JUMPI PUSH1 0x4 CALLDATALOAD PUSH1 0x1 PUSH1 0x1 PUSH1 0x40 SHL SUB DUP2 GT PUSH2 0x7AD JUMPI PUSH1 0x20 PUSH2 0x11EE DUP2 SWAP3 CALLDATASIZE SWAP1 PUSH1 0x4 ADD PUSH2 0x1728 JUMP JUMPDEST PUSH1 0x60 PUSH2 0x140 PUSH1 0x40 MLOAD PUSH2 0x11FF DUP2 PUSH2 0x16EB JUMP JUMPDEST PUSH0 DUP2 MSTORE PUSH0 DUP6 DUP3 ADD MSTORE PUSH0 PUSH1 0x40 DUP3 ADD MSTORE PUSH0 DUP4 DUP3 ADD MSTORE PUSH0 PUSH1 0x80 DUP3 ADD MSTORE PUSH0 PUSH1 0xA0 DUP3 ADD MSTORE PUSH0 PUSH1 0xC0 DUP3 ADD MSTORE PUSH0 PUSH1 0xE0 DUP3 ADD MSTORE PUSH2 0x1232 PUSH2 0x1A30 JUMP JUMPDEST PUSH2 0x100 DUP3 ADD MSTORE PUSH2 0x1240 PUSH2 0x1A30 JUMP JUMPDEST PUSH2 0x120 DUP3 ADD MSTORE ADD MSTORE PUSH1 0x40 MLOAD SWAP3 DUP2 DUP5 SWAP3 MLOAD SWAP2 DUP3 SWAP2 ADD DUP4 MCOPY DUP2 ADD PUSH0 DUP2 MSTORE SUB ADD SWAP1 KECCAK256 PUSH1 0x40 MLOAD PUSH2 0x126B DUP2 PUSH2 0x16EB JUMP JUMPDEST PUSH1 0xFF DUP3 SLOAD AND PUSH1 0x7 DUP2 LT ISZERO PUSH2 0x799 JUMPI DUP2 MSTORE PUSH1 0x1 DUP3 ADD SLOAD SWAP2 PUSH1 0x20 DUP3 ADD SWAP3 DUP4 MSTORE PUSH1 0x2 DUP2 ADD SLOAD SWAP1 PUSH1 0x40 DUP4 ADD SWAP2 DUP3 MSTORE PUSH1 0x3 DUP2 ADD SLOAD PUSH1 0x60 DUP5 ADD SWAP1 DUP2 MSTORE PUSH1 0x4 DUP3 ADD SLOAD PUSH1 0x80 DUP6 ADD SWAP1 DUP2 MSTORE PUSH1 0x5 DUP4 ADD SLOAD PUSH1 0xA0 DUP7 ADD SWAP1 DUP2 MSTORE PUSH1 0x6 DUP5 ADD SLOAD SWAP1 PUSH1 0xC0 DUP8 ADD SWAP2 DUP3 MSTORE PUSH1 0x7 DUP6 ADD SLOAD SWAP3 PUSH1 0xE0 DUP9 ADD SWAP4 DUP5 MSTORE PUSH1 0x8 DUP7 ADD PUSH2 0x12E0 SWAP1 PUSH2 0x18B7 JUMP JUMPDEST PUSH2 0x100 DUP10 ADD SWAP1 DUP2 MSTORE SWAP5 PUSH2 0x12F5 PUSH1 0xB DUP9 ADD PUSH2 0x18B7 JUMP JUMPDEST SWAP7 PUSH2 0x120 DUP11 ADD SWAP8 DUP9 MSTORE PUSH1 0xE ADD PUSH2 0x130A SWAP1 PUSH2 0x1817 JUMP JUMPDEST SWAP8 PUSH2 0x140 DUP11 ADD SWAP9 DUP10 MSTORE PUSH1 0x40 MLOAD SWAP11 DUP12 SWAP11 PUSH1 0x20 DUP13 MSTORE PUSH1 0x20 DUP13 ADD SWAP1 MLOAD SWAP1 PUSH2 0x132D SWAP2 PUSH2 0x18F6 JUMP JUMPDEST MLOAD PUSH1 0x40 DUP12 ADD MSTORE MLOAD PUSH1 0x60 DUP11 ADD MSTORE MLOAD PUSH1 0x80 DUP10 ADD MSTORE MLOAD PUSH1 0xA0 DUP9 ADD MSTORE MLOAD PUSH1 0xC0 DUP8 ADD MSTORE MLOAD PUSH1 0xE0 DUP7 ADD MSTORE MLOAD PUSH2 0x100 DUP6 ADD MSTORE MLOAD PUSH2 0x120 DUP5 ADD PUSH2 0x160 SWAP1 MSTORE PUSH2 0x180 DUP5 ADD PUSH2 0x1371 SWAP2 PUSH2 0x17A1 JUMP JUMPDEST SWAP1 MLOAD DUP4 DUP3 SUB PUSH1 0x1F NOT ADD PUSH2 0x140 DUP6 ADD MSTORE PUSH2 0x138A SWAP2 SWAP1 PUSH2 0x17A1 JUMP JUMPDEST SWAP1 MLOAD DUP3 DUP3 SUB PUSH1 0x1F NOT ADD PUSH2 0x160 DUP5 ADD MSTORE PUSH2 0x11B7 SWAP2 SWAP1 PUSH2 0x177D JUMP JUMPDEST CALLVALUE PUSH2 0x7AD JUMPI PUSH1 0x40 CALLDATASIZE PUSH1 0x3 NOT ADD SLT PUSH2 0x7AD JUMPI PUSH1 0x4 CALLDATALOAD PUSH1 0x1 PUSH1 0x1 PUSH1 0x40 SHL SUB DUP2 GT PUSH2 0x7AD JUMPI PUSH2 0x13D3 SWAP1 CALLDATASIZE SWAP1 PUSH1 0x4 ADD PUSH2 0x1728 JUMP JUMPDEST PUSH1 0x24 CALLDATALOAD TIMESTAMP GT ISZERO PUSH2 0x140D JUMPI PUSH1 0x20 DUP1 SWAP2 PUSH1 0x40 MLOAD SWAP3 DUP2 DUP5 SWAP3 MLOAD SWAP2 DUP3 SWAP2 ADD DUP4 MCOPY PUSH0 SWAP1 DUP3 ADD SWAP1 DUP2 MSTORE SUB ADD SWAP1 KECCAK256 TIMESTAMP PUSH1 0x6 DUP3 ADD SSTORE DUP1 SLOAD PUSH1 0xFF NOT AND PUSH1 0x5 OR SWAP1 SSTORE STOP JUMPDEST PUSH1 0x40 MLOAD PUSH3 0x461BCD PUSH1 0xE5 SHL DUP2 MSTORE PUSH1 0x20 PUSH1 0x4 DUP3 ADD MSTORE PUSH1 0x18 PUSH1 0x24 DUP3 ADD MSTORE PUSH32 0x536572746966696B6174206D61736968206265726C616B750000000000000000 PUSH1 0x44 DUP3 ADD MSTORE PUSH1 0x64 SWAP1 REVERT JUMPDEST CALLVALUE PUSH2 0x7AD JUMPI PUSH1 0x20 CALLDATASIZE PUSH1 0x3 NOT ADD SLT PUSH2 0x7AD JUMPI PUSH1 0x4 CALLDATALOAD PUSH1 0x1 PUSH1 0x1 PUSH1 0x40 SHL SUB DUP2 GT PUSH2 0x7AD JUMPI PUSH2 0x1482 SWAP1 CALLDATASIZE SWAP1 PUSH1 0x4 ADD PUSH2 0x1728 JUMP JUMPDEST PUSH1 0x40 MLOAD DUP2 DUP2 SWAP3 MLOAD PUSH1 0x20 DUP2 SWAP3 ADD DUP4 MCOPY DUP2 ADD PUSH0 DUP2 MSTORE SUB PUSH1 0x20 ADD SWAP1 KECCAK256 DUP1 SLOAD PUSH1 0xFF AND PUSH1 0x1 DUP3 ADD SLOAD SWAP2 PUSH1 0x2 DUP2 ADD SLOAD SWAP1 PUSH1 0x3 DUP2 ADD SLOAD PUSH1 0x4 DUP3 ADD SLOAD PUSH1 0x5 DUP4 ADD SLOAD PUSH1 0x6 DUP5 ADD SLOAD SWAP1 PUSH1 0x7 DUP6 ADD SLOAD SWAP3 PUSH1 0x8 DUP7 ADD PUSH2 0x14D4 SWAP1 PUSH2 0x18B7 JUMP JUMPDEST SWAP5 PUSH2 0x14E1 PUSH1 0xB DUP9 ADD PUSH2 0x18B7 JUMP JUMPDEST SWAP7 PUSH1 0xE ADD PUSH2 0x14EE SWAP1 PUSH2 0x1817 JUMP JUMPDEST SWAP8 PUSH1 0x40 MLOAD SWAP11 PUSH2 0x14FE DUP13 DUP1 SWAP13 PUSH2 0x18F6 JUMP JUMPDEST PUSH1 0x20 DUP12 ADD MSTORE PUSH1 0x40 DUP11 ADD MSTORE PUSH1 0x60 DUP10 ADD MSTORE PUSH1 0x80 DUP9 ADD MSTORE PUSH1 0xA0 DUP8 ADD MSTORE PUSH1 0xC0 DUP7 ADD MSTORE PUSH1 0xE0 DUP6 ADD MSTORE PUSH2 0x100 DUP5 ADD PUSH2 0x160 SWAP1 MSTORE PUSH2 0x160 DUP5 ADD PUSH2 0x1539 SWAP2 PUSH2 0x17A1 JUMP JUMPDEST DUP4 DUP2 SUB PUSH2 0x120 DUP6 ADD MSTORE PUSH2 0x154B SWAP2 PUSH2 0x17A1 JUMP JUMPDEST DUP3 DUP2 SUB PUSH2 0x140 DUP5 ADD MSTORE PUSH2 0x11B7 SWAP2 PUSH2 0x177D JUMP JUMPDEST CALLVALUE PUSH2 0x7AD JUMPI PUSH1 0x60 CALLDATASIZE PUSH1 0x3 NOT ADD SLT PUSH2 0x7AD JUMPI PUSH1 0x4 CALLDATALOAD PUSH1 0x1 PUSH1 0x1 PUSH1 0x40 SHL SUB DUP2 GT PUSH2 0x7AD JUMPI PUSH2 0x158D SWAP1 CALLDATASIZE SWAP1 PUSH1 0x4 ADD PUSH2 0x1728 JUMP JUMPDEST PUSH1 0x24 CALLDATALOAD PUSH1 0x1 PUSH1 0x1 PUSH1 0x40 SHL SUB DUP2 GT PUSH2 0x7AD JUMPI PUSH2 0x15AC SWAP1 CALLDATASIZE SWAP1 PUSH1 0x4 ADD PUSH2 0x1728 JUMP JUMPDEST SWAP1 PUSH1 0x44 CALLDATALOAD PUSH1 0x1 PUSH1 0x1 PUSH1 0xA0 SHL SUB DUP2 AND SWAP1 DUP2 SWAP1 SUB PUSH2 0x7AD JUMPI PUSH2 0x11B7 SWAP3 PUSH2 0x15CE PUSH2 0x1A30 JUMP JUMPDEST POP PUSH1 0x40 MLOAD SWAP3 PUSH2 0x15DC DUP5 PUSH2 0x16D0 JUMP JUMPDEST DUP4 MSTORE PUSH1 0x20 DUP4 ADD MSTORE PUSH1 0x40 DUP3 ADD MSTORE PUSH1 0x40 MLOAD SWAP2 DUP3 SWAP2 PUSH1 0x20 DUP4 MSTORE PUSH1 0x20 DUP4 ADD SWAP1 PUSH2 0x17A1 JUMP JUMPDEST CALLVALUE PUSH2 0x7AD JUMPI PUSH1 0x20 CALLDATASIZE PUSH1 0x3 NOT ADD SLT PUSH2 0x7AD JUMPI PUSH1 0x4 CALLDATALOAD PUSH1 0x1 PUSH1 0x1 PUSH1 0x40 SHL SUB DUP2 GT PUSH2 0x7AD JUMPI PUSH1 0x20 PUSH2 0x162F DUP2 SWAP3 CALLDATASIZE SWAP1 PUSH1 0x4 ADD PUSH2 0x1728 JUMP JUMPDEST PUSH1 0x40 MLOAD SWAP3 DUP2 DUP5 SWAP3 MLOAD SWAP2 DUP3 SWAP2 ADD DUP4 MCOPY PUSH0 SWAP1 DUP3 ADD SWAP1 DUP2 MSTORE SUB ADD SWAP1 KECCAK256 TIMESTAMP PUSH1 0x4 DUP3 ADD SSTORE DUP1 SLOAD PUSH1 0xFF NOT AND PUSH1 0x3 OR SWAP1 SSTORE STOP JUMPDEST CALLVALUE PUSH2 0x7AD JUMPI PUSH1 0x20 CALLDATASIZE PUSH1 0x3 NOT ADD SLT PUSH2 0x7AD JUMPI PUSH1 0x4 CALLDATALOAD PUSH1 0x1 PUSH1 0x1 PUSH1 0x40 SHL SUB DUP2 GT PUSH2 0x7AD JUMPI PUSH2 0x16BC PUSH1 0x8 PUSH1 0x20 DUP1 PUSH2 0x1696 PUSH2 0x11B7 SWAP6 CALLDATASIZE SWAP1 PUSH1 0x4 ADD PUSH2 0x1728 JUMP JUMPDEST PUSH2 0x169E PUSH2 0x1A30 JUMP JUMPDEST POP PUSH1 0x40 MLOAD SWAP3 DUP2 DUP5 SWAP3 MLOAD SWAP2 DUP3 SWAP2 ADD DUP4 MCOPY DUP2 ADD PUSH0 DUP2 MSTORE SUB ADD SWAP1 KECCAK256 ADD PUSH2 0x18B7 JUMP JUMPDEST PUSH1 0x40 MLOAD SWAP2 DUP3 SWAP2 PUSH1 0x20 DUP4 MSTORE PUSH1 0x20 DUP4 ADD SWAP1 PUSH2 0x17A1 JUMP JUMPDEST PUSH1 0x60 DUP2 ADD SWAP1 DUP2 LT PUSH1 0x1 PUSH1 0x1 PUSH1 0x40 SHL SUB DUP3 GT OR PUSH2 0x49D JUMPI PUSH1 0x40 MSTORE JUMP JUMPDEST PUSH2 0x160 DUP2 ADD SWAP1 DUP2 LT PUSH1 0x1 PUSH1 0x1 PUSH1 0x40 SHL SUB DUP3 GT OR PUSH2 0x49D JUMPI PUSH1 0x40 MSTORE JUMP JUMPDEST SWAP1 PUSH1 0x1F DUP1 NOT SWAP2 ADD AND DUP2 ADD SWAP1 DUP2 LT PUSH1 0x1 PUSH1 0x1 PUSH1 0x40 SHL SUB DUP3 GT OR PUSH2 0x49D JUMPI PUSH1 0x40 MSTORE JUMP JUMPDEST DUP2 PUSH1 0x1F DUP3 ADD SLT ISZERO PUSH2 0x7AD JUMPI DUP1 CALLDATALOAD SWAP1 PUSH1 0x1 PUSH1 0x1 PUSH1 0x40 SHL SUB DUP3 GT PUSH2 0x49D JUMPI PUSH1 0x40 MLOAD SWAP3 PUSH2 0x175C PUSH1 0x1F DUP5 ADD PUSH1 0x1F NOT AND PUSH1 0x20 ADD DUP6 PUSH2 0x1707 JUMP JUMPDEST DUP3 DUP5 MSTORE PUSH1 0x20 DUP4 DUP4 ADD ADD GT PUSH2 0x7AD JUMPI DUP2 PUSH0 SWAP3 PUSH1 0x20 DUP1 SWAP4 ADD DUP4 DUP7 ADD CALLDATACOPY DUP4 ADD ADD MSTORE SWAP1 JUMP JUMPDEST DUP1 MLOAD DUP1 DUP4 MSTORE PUSH1 0x20 SWAP3 SWAP2 DUP2 SWAP1 DUP5 ADD DUP5 DUP5 ADD MCOPY PUSH0 DUP3 DUP3 ADD DUP5 ADD MSTORE PUSH1 0x1F ADD PUSH1 0x1F NOT AND ADD ADD SWAP1 JUMP JUMPDEST SWAP1 PUSH1 0x40 PUSH2 0x17CC PUSH2 0x17BA DUP5 MLOAD PUSH1 0x60 DUP6 MSTORE PUSH1 0x60 DUP6 ADD SWAP1 PUSH2 0x177D JUMP JUMPDEST PUSH1 0x20 DUP6 ADD MLOAD DUP5 DUP3 SUB PUSH1 0x20 DUP7 ADD MSTORE PUSH2 0x177D JUMP JUMPDEST SWAP3 DUP2 ADD MLOAD PUSH1 0x1 PUSH1 0x1 PUSH1 0xA0 SHL SUB AND SWAP2 ADD MSTORE SWAP1 JUMP JUMPDEST SWAP1 PUSH1 0x1 DUP3 DUP2 SHR SWAP3 AND DUP1 ISZERO PUSH2 0x180D JUMPI JUMPDEST PUSH1 0x20 DUP4 LT EQ PUSH2 0x17F9 JUMPI JUMP JUMPDEST PUSH4 0x4E487B71 PUSH1 0xE0 SHL PUSH0 MSTORE PUSH1 0x22 PUSH1 0x4 MSTORE PUSH1 0x24 PUSH0 REVERT JUMPDEST SWAP2 PUSH1 0x7F AND SWAP2 PUSH2 0x17EE JUMP JUMPDEST SWAP1 PUSH1 0x40 MLOAD SWAP2 DUP3 PUSH0 DUP3 SLOAD SWAP3 PUSH2 0x182A DUP5 PUSH2 0x17DF JUMP JUMPDEST DUP1 DUP5 MSTORE SWAP4 PUSH1 0x1 DUP2 AND SWAP1 DUP2 ISZERO PUSH2 0x1895 JUMPI POP PUSH1 0x1 EQ PUSH2 0x1851 JUMPI JUMPDEST POP PUSH2 0x184F SWAP3 POP SUB DUP4 PUSH2 0x1707 JUMP JUMPDEST JUMP JUMPDEST SWAP1 POP PUSH0 SWAP3 SWAP2 SWAP3 MSTORE PUSH1 0x20 PUSH0 KECCAK256 SWAP1 PUSH0 SWAP2 JUMPDEST DUP2 DUP4 LT PUSH2 0x1879 JUMPI POP POP SWAP1 PUSH1 0x20 PUSH2 0x184F SWAP3 DUP3 ADD ADD PUSH0 PUSH2 0x1842 JUMP JUMPDEST PUSH1 0x20 SWAP2 SWAP4 POP DUP1 PUSH1 0x1 SWAP2 SLOAD DUP4 DUP6 DUP10 ADD ADD MSTORE ADD SWAP2 ADD SWAP1 SWAP2 DUP5 SWAP3 PUSH2 0x1860 JUMP JUMPDEST SWAP1 POP PUSH1 0x20 SWAP3 POP PUSH2 0x184F SWAP5 SWAP2 POP PUSH1 0xFF NOT AND DUP3 DUP5 ADD MSTORE ISZERO ISZERO PUSH1 0x5 SHL DUP3 ADD ADD PUSH0 PUSH2 0x1842 JUMP JUMPDEST SWAP1 PUSH1 0x40 MLOAD PUSH2 0x18C4 DUP2 PUSH2 0x16D0 JUMP JUMPDEST PUSH1 0x40 DUP2 SWAP4 PUSH2 0x18D1 DUP2 PUSH2 0x1817 JUMP JUMPDEST DUP4 MSTORE PUSH2 0x18DF PUSH1 0x1 DUP3 ADD PUSH2 0x1817 JUMP JUMPDEST PUSH1 0x20 DUP5 ADD MSTORE PUSH1 0x2 ADD SLOAD PUSH1 0x1 PUSH1 0x1 PUSH1 0xA0 SHL SUB AND SWAP2 ADD MSTORE JUMP JUMPDEST SWAP1 PUSH1 0x7 DUP3 LT ISZERO PUSH2 0x799 JUMPI MSTORE JUMP JUMPDEST SWAP1 PUSH1 0x40 PUSH1 0x3 NOT DUP4 ADD SLT PUSH2 0x7AD JUMPI PUSH1 0x4 CALLDATALOAD PUSH1 0x1 PUSH1 0x1 PUSH1 0x40 SHL SUB DUP2 GT PUSH2 0x7AD JUMPI DUP3 PUSH2 0x192E SWAP2 PUSH1 0x4 ADD PUSH2 0x1728 JUMP JUMPDEST SWAP2 PUSH1 0x24 CALLDATALOAD SWAP1 PUSH1 0x1 PUSH1 0x1 PUSH1 0x40 SHL SUB DUP3 GT PUSH2 0x7AD JUMPI PUSH2 0x194D SWAP2 PUSH1 0x4 ADD PUSH2 0x1728 JUMP JUMPDEST SWAP1 JUMP JUMPDEST SWAP2 SWAP1 PUSH1 0x60 DUP4 DUP3 SUB SLT PUSH2 0x7AD JUMPI PUSH1 0x40 MLOAD SWAP1 PUSH2 0x1969 DUP3 PUSH2 0x16D0 JUMP JUMPDEST DUP2 SWAP4 DUP1 CALLDATALOAD PUSH1 0x1 PUSH1 0x1 PUSH1 0x40 SHL SUB DUP2 GT PUSH2 0x7AD JUMPI DUP3 PUSH2 0x1987 SWAP2 DUP4 ADD PUSH2 0x1728 JUMP JUMPDEST DUP4 MSTORE PUSH1 0x20 DUP2 ADD CALLDATALOAD PUSH1 0x1 PUSH1 0x1 PUSH1 0x40 SHL SUB DUP2 GT PUSH2 0x7AD JUMPI PUSH1 0x40 SWAP3 PUSH2 0x19AA SWAP2 DUP4 ADD PUSH2 0x1728 JUMP JUMPDEST PUSH1 0x20 DUP5 ADD MSTORE ADD CALLDATALOAD SWAP1 PUSH1 0x1 PUSH1 0x1 PUSH1 0xA0 SHL SUB DUP3 AND DUP3 SUB PUSH2 0x7AD JUMPI PUSH1 0x40 ADD MSTORE JUMP JUMPDEST PUSH1 0x60 PUSH1 0x3 NOT DUP3 ADD SLT PUSH2 0x7AD JUMPI PUSH1 0x4 CALLDATALOAD PUSH1 0x1 PUSH1 0x1 PUSH1 0x40 SHL SUB DUP2 GT PUSH2 0x7AD JUMPI DUP2 PUSH2 0x19F2 SWAP2 PUSH1 0x4 ADD PUSH2 0x1728 JUMP JUMPDEST SWAP2 PUSH1 0x24 CALLDATALOAD PUSH1 0x1 PUSH1 0x1 PUSH1 0x40 SHL SUB DUP2 GT PUSH2 0x7AD JUMPI DUP3 PUSH2 0x1A11 SWAP2 PUSH1 0x4 ADD PUSH2 0x1728 JUMP JUMPDEST SWAP2 PUSH1 0x44 CALLDATALOAD SWAP1 PUSH1 0x1 PUSH1 0x1 PUSH1 0x40 SHL SUB DUP3 GT PUSH2 0x7AD JUMPI PUSH2 0x194D SWAP2 PUSH1 0x4 ADD PUSH2 0x1950 JUMP JUMPDEST PUSH1 0x40 MLOAD SWAP1 PUSH2 0x1A3D DUP3 PUSH2 0x16D0 JUMP JUMPDEST PUSH0 PUSH1 0x40 DUP4 PUSH1 0x60 DUP2 MSTORE PUSH1 0x60 PUSH1 0x20 DUP3 ADD MSTORE ADD MSTORE JUMP INVALID LOG2 PUSH5 0x6970667358 0x22 SLT KECCAK256 0xCD 0x2B SLOAD PUSH24 0xE3942B32A47A20F724F67DF771667876A04D0DA2EF30C5CB MOD PREVRANDAO MOD 0xDD PUSH5 0x736F6C6343 STOP ADDMOD SHL STOP CALLER "},"methodIdentifiers":{"certDetailById(string)":"34a34f30","createCertificateDetails((string,string,address),(string,string,address),string)":"fb5fb9a3","createUserCertificate(string,string,address)":"2e9cf827","getCertDetail(string)":"9aaa5d8b","getRejectMsg(string)":"6d1aa7d5","getSenderDetail(string)":"17e68309","rejectMsgById(string)":"bf3f80ac","updateBpomApproveDetails(string,string,(string,string,address))":"f5104ff1","updateBpomApproveExtendCertificateDetails(string,string)":"d26196fd","updateBpomExtendCertificateDetails(string,string)":"f53ef126","updateBpomRejectDetails(string,string,(string,string,address))":"e9c260d7","updateExtendRenewDetails(string,uint256)":"9740dbed","updateRenewDetails(string)":"19859c87"}}}}}