{"contracts/CertificateManager.sol":{"CertificateManager":{"abi":[{"inputs":[{"internalType":"address","name":"roleManagerAddr","type":"address"},{"internalType":"address","name":"cpotbCertificateAddr","type":"address"},{"internalType":"address","name":"cdobCertificateAddr","type":"address"}],"stateMutability":"nonpayable","type":"constructor"},{"inputs":[],"name":"ReentrancyGuardReentrantCall","type":"error"},{"anonymous":false,"inputs":[{"indexed":false,"internalType":"string","name":"bpomInstance","type":"string"},{"indexed":false,"internalType":"address","name":"bpomAddr","type":"address"},{"indexed":false,"internalType":"uint8","name":"tipePermohonan","type":"uint8"},{"indexed":false,"internalType":"string","name":"certNumber","type":"string"},{"indexed":false,"internalType":"uint256","name":"timestamp","type":"uint256"}],"name":"CertApproved","type":"event"},{"anonymous":false,"inputs":[{"indexed":false,"internalType":"address","name":"bpomAddr","type":"address"},{"indexed":false,"internalType":"uint256","name":"timestamp","type":"uint256"}],"name":"CertApprovedExtendRequest","type":"event"},{"anonymous":false,"inputs":[{"indexed":false,"internalType":"address","name":"senderAddr","type":"address"},{"indexed":false,"internalType":"uint256","name":"timestamp","type":"uint256"}],"name":"CertExtendRequest","type":"event"},{"anonymous":false,"inputs":[{"indexed":false,"internalType":"string","name":"bpomInstance","type":"string"},{"indexed":false,"internalType":"address","name":"bpomAddr","type":"address"},{"indexed":false,"internalType":"uint8","name":"tipePermohonan","type":"uint8"},{"indexed":false,"internalType":"uint256","name":"timestamp","type":"uint256"},{"indexed":false,"internalType":"string","name":"rejectMsg","type":"string"}],"name":"CertRejected","type":"event"},{"anonymous":false,"inputs":[{"indexed":false,"internalType":"string","name":"senderInstance","type":"string"},{"indexed":false,"internalType":"address","name":"senderAddr","type":"address"},{"indexed":false,"internalType":"uint256","name":"timestamp","type":"uint256"}],"name":"CertRenewRequest","type":"event"},{"anonymous":false,"inputs":[{"indexed":false,"internalType":"string","name":"senderInstance","type":"string"},{"indexed":false,"internalType":"address","name":"senderAddr","type":"address"},{"indexed":false,"internalType":"uint8","name":"tipePermohonan","type":"uint8"},{"indexed":false,"internalType":"uint256","name":"timestamp","type":"uint256"}],"name":"CertRequested","type":"event"},{"inputs":[{"components":[{"internalType":"string","name":"certNumber","type":"string"},{"internalType":"string","name":"certId","type":"string"},{"internalType":"string","name":"bpomName","type":"string"},{"internalType":"string","name":"bpomInstance","type":"string"},{"internalType":"address","name":"bpomAddr","type":"address"}],"internalType":"struct CertificateManager.CertificateApproval","name":"approveData","type":"tuple"},{"internalType":"string","name":"ipfsCert","type":"string"},{"internalType":"uint8","name":"tipePermohonan","type":"uint8"}],"name":"approveCdob","outputs":[],"stateMutability":"nonpayable","type":"function"},{"inputs":[{"components":[{"internalType":"string","name":"certNumber","type":"string"},{"internalType":"string","name":"certId","type":"string"},{"internalType":"string","name":"bpomName","type":"string"},{"internalType":"string","name":"bpomInstance","type":"string"},{"internalType":"address","name":"bpomAddr","type":"address"}],"internalType":"struct CertificateManager.CertificateApproval","name":"approveData","type":"tuple"},{"internalType":"string","name":"ipfsCert","type":"string"},{"internalType":"uint8","name":"jenisSediaan","type":"uint8"}],"name":"approveCpotb","outputs":[],"stateMutability":"nonpayable","type":"function"},{"inputs":[{"internalType":"string","name":"cdobId","type":"string"},{"internalType":"string","name":"ipfsCert","type":"string"}],"name":"approveExtendCdob","outputs":[],"stateMutability":"nonpayable","type":"function"},{"inputs":[{"internalType":"string","name":"cpotbId","type":"string"},{"internalType":"string","name":"ipfsCert","type":"string"}],"name":"approveExtendCpotb","outputs":[],"stateMutability":"nonpayable","type":"function"},{"inputs":[],"name":"cdobCertificate","outputs":[{"internalType":"contract CdobCertificate","name":"","type":"address"}],"stateMutability":"view","type":"function"},{"inputs":[],"name":"cpotbCertificate","outputs":[{"internalType":"contract CpotbCertificate","name":"","type":"address"}],"stateMutability":"view","type":"function"},{"inputs":[{"internalType":"string","name":"cdobId","type":"string"},{"internalType":"uint256","name":"expTimestamp","type":"uint256"}],"name":"extendCdob","outputs":[],"stateMutability":"nonpayable","type":"function"},{"inputs":[{"internalType":"string","name":"cpotbId","type":"string"},{"internalType":"uint256","name":"expTimestamp","type":"uint256"},{"components":[{"internalType":"string","name":"suratPermohonan","type":"string"},{"internalType":"string","name":"buktiPembayaranNegaraBukanPajak","type":"string"},{"internalType":"string","name":"denahBangunan","type":"string"},{"internalType":"string","name":"sistemMutu","type":"string"},{"internalType":"string","name":"cpotbIpfs","type":"string"},{"internalType":"string","name":"dokumenCapa","type":"string"}],"internalType":"struct CpotbCertificate.DokumenReSertifikasi","name":"newDoku","type":"tuple"}],"name":"extendCpotb","outputs":[],"stateMutability":"nonpayable","type":"function"},{"inputs":[],"name":"getAllCdob","outputs":[{"components":[{"internalType":"string","name":"certId","type":"string"},{"internalType":"string","name":"certNumber","type":"string"},{"internalType":"string","name":"instanceName","type":"string"},{"internalType":"uint8","name":"tipePermohonan","type":"uint8"},{"internalType":"enum EnumsLibrary.StatusCertificate","name":"status","type":"uint8"},{"internalType":"string","name":"certHash","type":"string"},{"internalType":"uint256","name":"expiredTimestamp","type":"uint256"}],"internalType":"struct CdobCertificate.CertificateList[]","name":"","type":"tuple[]"}],"stateMutability":"view","type":"function"},{"inputs":[],"name":"getAllCpotb","outputs":[{"components":[{"internalType":"string","name":"certId","type":"string"},{"internalType":"string","name":"certNumber","type":"string"},{"internalType":"string","name":"instanceName","type":"string"},{"internalType":"uint8","name":"tipePermohonan","type":"uint8"},{"internalType":"enum EnumsLibrary.StatusCertificate","name":"status","type":"uint8"},{"internalType":"string","name":"certHash","type":"string"},{"internalType":"uint256","name":"expiredTimestamp","type":"uint256"}],"internalType":"struct CpotbCertificate.CertificateList[]","name":"","type":"tuple[]"}],"stateMutability":"view","type":"function"},{"inputs":[{"internalType":"string","name":"instanceName","type":"string"}],"name":"getCdobByInstance","outputs":[{"components":[{"internalType":"string","name":"certId","type":"string"},{"internalType":"string","name":"certNumber","type":"string"},{"internalType":"string","name":"instanceName","type":"string"},{"internalType":"uint8","name":"tipePermohonan","type":"uint8"},{"internalType":"enum EnumsLibrary.StatusCertificate","name":"status","type":"uint8"},{"internalType":"string","name":"certHash","type":"string"},{"internalType":"uint256","name":"expiredTimestamp","type":"uint256"}],"internalType":"struct CdobCertificate.CertificateList[]","name":"","type":"tuple[]"}],"stateMutability":"view","type":"function"},{"inputs":[{"internalType":"string","name":"certId","type":"string"}],"name":"getCdobDetails","outputs":[{"components":[{"internalType":"enum EnumsLibrary.StatusCertificate","name":"status","type":"uint8"},{"internalType":"uint256","name":"timestampRequest","type":"uint256"},{"internalType":"uint256","name":"timestampApprove","type":"uint256"},{"internalType":"uint256","name":"timestampRejected","type":"uint256"},{"internalType":"uint256","name":"timestampRenewRequest","type":"uint256"},{"internalType":"uint256","name":"timestampExpired","type":"uint256"},{"internalType":"uint256","name":"timestampExtendRequest","type":"uint256"},{"internalType":"uint256","name":"timestampExtendApprove","type":"uint256"},{"components":[{"internalType":"string","name":"userName","type":"string"},{"internalType":"string","name":"userInstance","type":"string"},{"internalType":"address","name":"userAddr","type":"address"}],"internalType":"struct BaseCertificate.UserCert","name":"sender","type":"tuple"},{"components":[{"internalType":"string","name":"userName","type":"string"},{"internalType":"string","name":"userInstance","type":"string"},{"internalType":"address","name":"userAddr","type":"address"}],"internalType":"struct BaseCertificate.UserCert","name":"bpom","type":"tuple"},{"internalType":"string","name":"ipfsCert","type":"string"}],"internalType":"struct BaseCertificate.CertificateDetails","name":"","type":"tuple"},{"components":[{"internalType":"string","name":"cdobId","type":"string"},{"internalType":"string","name":"cdobNumber","type":"string"},{"internalType":"uint8","name":"tipePermohonan","type":"uint8"}],"internalType":"struct CdobCertificate.CdobData","name":"","type":"tuple"},{"components":[{"internalType":"string","name":"suratPermohonan","type":"string"},{"internalType":"string","name":"buktiPembayaranPajak","type":"string"}],"internalType":"struct CdobCertificate.DokumenAdministrasi","name":"","type":"tuple"},{"components":[{"internalType":"string","name":"suratIzinCdob","type":"string"},{"internalType":"string","name":"denahBangunan","type":"string"},{"internalType":"string","name":"strukturOrganisasi","type":"string"},{"internalType":"string","name":"daftarPersonalia","type":"string"},{"internalType":"string","name":"daftarPeralatan","type":"string"},{"internalType":"string","name":"eksekutifQualityManagement","type":"string"},{"internalType":"string","name":"suratIzinApoteker","type":"string"},{"internalType":"string","name":"dokumenSelfAssesment","type":"string"}],"internalType":"struct CdobCertificate.DokumenTeknis","name":"","type":"tuple"}],"stateMutability":"view","type":"function"},{"inputs":[{"internalType":"string","name":"instanceName","type":"string"}],"name":"getCpotbByInstance","outputs":[{"components":[{"internalType":"string","name":"certId","type":"string"},{"internalType":"string","name":"certNumber","type":"string"},{"internalType":"string","name":"instanceName","type":"string"},{"internalType":"uint8","name":"tipePermohonan","type":"uint8"},{"internalType":"enum EnumsLibrary.StatusCertificate","name":"status","type":"uint8"},{"internalType":"string","name":"certHash","type":"string"},{"internalType":"uint256","name":"expiredTimestamp","type":"uint256"}],"internalType":"struct CpotbCertificate.CertificateList[]","name":"","type":"tuple[]"}],"stateMutability":"view","type":"function"},{"inputs":[{"internalType":"string","name":"certId","type":"string"}],"name":"getCpotbDetails","outputs":[{"components":[{"internalType":"enum EnumsLibrary.StatusCertificate","name":"status","type":"uint8"},{"internalType":"uint256","name":"timestampRequest","type":"uint256"},{"internalType":"uint256","name":"timestampApprove","type":"uint256"},{"internalType":"uint256","name":"timestampRejected","type":"uint256"},{"internalType":"uint256","name":"timestampRenewRequest","type":"uint256"},{"internalType":"uint256","name":"timestampExpired","type":"uint256"},{"internalType":"uint256","name":"timestampExtendRequest","type":"uint256"},{"internalType":"uint256","name":"timestampExtendApprove","type":"uint256"},{"components":[{"internalType":"string","name":"userName","type":"string"},{"internalType":"string","name":"userInstance","type":"string"},{"internalType":"address","name":"userAddr","type":"address"}],"internalType":"struct BaseCertificate.UserCert","name":"sender","type":"tuple"},{"components":[{"internalType":"string","name":"userName","type":"string"},{"internalType":"string","name":"userInstance","type":"string"},{"internalType":"address","name":"userAddr","type":"address"}],"internalType":"struct BaseCertificate.UserCert","name":"bpom","type":"tuple"},{"internalType":"string","name":"ipfsCert","type":"string"}],"internalType":"struct BaseCertificate.CertificateDetails","name":"","type":"tuple"},{"components":[{"internalType":"string","name":"cpotbId","type":"string"},{"internalType":"string","name":"cpotbNumber","type":"string"},{"internalType":"uint8","name":"tipePermohonan","type":"uint8"},{"internalType":"string","name":"factoryType","type":"string"}],"internalType":"struct CpotbCertificate.CpotbData","name":"","type":"tuple"},{"components":[{"internalType":"string","name":"suratPermohonan","type":"string"},{"internalType":"string","name":"buktiPembayaranNegaraBukanPajak","type":"string"},{"internalType":"string","name":"suratKomitmen","type":"string"}],"internalType":"struct CpotbCertificate.DokumenAdministrasi","name":"","type":"tuple"},{"components":[{"internalType":"string","name":"denahBangunan","type":"string"},{"internalType":"string","name":"sistemMutu","type":"string"}],"internalType":"struct CpotbCertificate.DokumenTeknis","name":"","type":"tuple"},{"components":[{"internalType":"string","name":"suratPermohonan","type":"string"},{"internalType":"string","name":"buktiPembayaranNegaraBukanPajak","type":"string"},{"internalType":"string","name":"denahBangunan","type":"string"},{"internalType":"string","name":"sistemMutu","type":"string"},{"internalType":"string","name":"cpotbIpfs","type":"string"},{"internalType":"string","name":"dokumenCapa","type":"string"}],"internalType":"struct CpotbCertificate.DokumenReSertifikasi","name":"","type":"tuple"}],"stateMutability":"view","type":"function"},{"inputs":[{"internalType":"string","name":"certId","type":"string"}],"name":"getRejectMsgCdob","outputs":[{"internalType":"string","name":"","type":"string"}],"stateMutability":"view","type":"function"},{"inputs":[{"internalType":"string","name":"certId","type":"string"}],"name":"getRejectMsgCpotb","outputs":[{"internalType":"string","name":"","type":"string"}],"stateMutability":"view","type":"function"},{"inputs":[{"internalType":"string","name":"certId","type":"string"},{"internalType":"string","name":"rejectMsg","type":"string"},{"internalType":"string","name":"bpomName","type":"string"},{"internalType":"string","name":"bpomInstance","type":"string"},{"internalType":"uint8","name":"tipePermohonan","type":"uint8"}],"name":"rejectCdob","outputs":[],"stateMutability":"nonpayable","type":"function"},{"inputs":[{"internalType":"string","name":"certId","type":"string"},{"internalType":"string","name":"rejectMsg","type":"string"},{"internalType":"string","name":"bpomName","type":"string"},{"internalType":"string","name":"bpomInstance","type":"string"},{"internalType":"uint8","name":"jenisSediaan","type":"uint8"}],"name":"rejectCpotb","outputs":[],"stateMutability":"nonpayable","type":"function"},{"inputs":[{"components":[{"internalType":"string","name":"certId","type":"string"},{"internalType":"string","name":"senderName","type":"string"},{"internalType":"string","name":"senderInstance","type":"string"},{"internalType":"address","name":"senderAddr","type":"address"}],"internalType":"struct CertificateManager.CertificateRequest","name":"reqData","type":"tuple"},{"components":[{"internalType":"string","name":"suratPermohonan","type":"string"},{"internalType":"string","name":"buktiPembayaranPajak","type":"string"}],"internalType":"struct CdobCertificate.DokumenAdministrasi","name":"newDokuAdmin","type":"tuple"},{"components":[{"internalType":"string","name":"suratIzinCdob","type":"string"},{"internalType":"string","name":"denahBangunan","type":"string"},{"internalType":"string","name":"strukturOrganisasi","type":"string"},{"internalType":"string","name":"daftarPersonalia","type":"string"},{"internalType":"string","name":"daftarPeralatan","type":"string"},{"internalType":"string","name":"eksekutifQualityManagement","type":"string"},{"internalType":"string","name":"suratIzinApoteker","type":"string"},{"internalType":"string","name":"dokumenSelfAssesment","type":"string"}],"internalType":"struct CdobCertificate.DokumenTeknis","name":"newDokuTeknis","type":"tuple"}],"name":"renewCdob","outputs":[],"stateMutability":"nonpayable","type":"function"},{"inputs":[{"components":[{"internalType":"string","name":"certId","type":"string"},{"internalType":"string","name":"senderName","type":"string"},{"internalType":"string","name":"senderInstance","type":"string"},{"internalType":"address","name":"senderAddr","type":"address"}],"internalType":"struct CertificateManager.CertificateRequest","name":"reqData","type":"tuple"},{"components":[{"internalType":"string","name":"suratPermohonan","type":"string"},{"internalType":"string","name":"buktiPembayaranNegaraBukanPajak","type":"string"},{"internalType":"string","name":"suratKomitmen","type":"string"}],"internalType":"struct CpotbCertificate.DokumenAdministrasi","name":"newDokuAdmin","type":"tuple"},{"components":[{"internalType":"string","name":"denahBangunan","type":"string"},{"internalType":"string","name":"sistemMutu","type":"string"}],"internalType":"struct CpotbCertificate.DokumenTeknis","name":"newDokuTeknis","type":"tuple"}],"name":"renewCpotb","outputs":[],"stateMutability":"nonpayable","type":"function"},{"inputs":[{"components":[{"internalType":"string","name":"certId","type":"string"},{"internalType":"string","name":"senderName","type":"string"},{"internalType":"string","name":"senderInstance","type":"string"},{"internalType":"address","name":"senderAddr","type":"address"}],"internalType":"struct CertificateManager.CertificateRequest","name":"reqData","type":"tuple"},{"internalType":"uint8","name":"tipePermohonan","type":"uint8"},{"components":[{"internalType":"string","name":"suratPermohonan","type":"string"},{"internalType":"string","name":"buktiPembayaranPajak","type":"string"}],"internalType":"struct CdobCertificate.DokumenAdministrasi","name":"dokuAdmin","type":"tuple"},{"components":[{"internalType":"string","name":"suratIzinCdob","type":"string"},{"internalType":"string","name":"denahBangunan","type":"string"},{"internalType":"string","name":"strukturOrganisasi","type":"string"},{"internalType":"string","name":"daftarPersonalia","type":"string"},{"internalType":"string","name":"daftarPeralatan","type":"string"},{"internalType":"string","name":"eksekutifQualityManagement","type":"string"},{"internalType":"string","name":"suratIzinApoteker","type":"string"},{"internalType":"string","name":"dokumenSelfAssesment","type":"string"}],"internalType":"struct CdobCertificate.DokumenTeknis","name":"dokuTeknis","type":"tuple"}],"name":"requestCdob","outputs":[],"stateMutability":"nonpayable","type":"function"},{"inputs":[{"components":[{"internalType":"string","name":"certId","type":"string"},{"internalType":"string","name":"senderName","type":"string"},{"internalType":"string","name":"senderInstance","type":"string"},{"internalType":"address","name":"senderAddr","type":"address"}],"internalType":"struct CertificateManager.CertificateRequest","name":"reqData","type":"tuple"},{"internalType":"uint8","name":"jenisSediaan","type":"uint8"},{"internalType":"string","name":"factoryType","type":"string"},{"components":[{"internalType":"string","name":"suratPermohonan","type":"string"},{"internalType":"string","name":"buktiPembayaranNegaraBukanPajak","type":"string"},{"internalType":"string","name":"suratKomitmen","type":"string"}],"internalType":"struct CpotbCertificate.DokumenAdministrasi","name":"dokuAdmin","type":"tuple"},{"components":[{"internalType":"string","name":"denahBangunan","type":"string"},{"internalType":"string","name":"sistemMutu","type":"string"}],"internalType":"struct CpotbCertificate.DokumenTeknis","name":"dokuTeknis","type":"tuple"}],"name":"requestCpotb","outputs":[],"stateMutability":"nonpayable","type":"function"},{"inputs":[],"name":"roleManager","outputs":[{"internalType":"contract RoleManager","name":"","type":"address"}],"stateMutability":"view","type":"function"}],"evm":{"bytecode":{"linkReferences":{},"object":"60e03461018657601f61339238819003918201601f19168301916001600160401b0383118484101761018a57808492606094604052833981010312610186576100478161019e565b9061006060406100596020840161019e565b920161019e565b60015f556001600160a01b0392831660805290821660a0521660c0526040516131df90816101b3823960805181818161033f015281816105620152818161068901528181610822015281816108fb01528181610a5001528181610c28015281816117b501528181611a4501528181611b8b01528181611c6001528181611dbe01526120cb015260a0518181816101d301528181610385015281816106cc0152818161093d01528181610c8b015281816112600152818161168c015281816117300152818161182101528181611a870152611fc0015260c05181818161013e0152818161025d015281816105a8015281816107b60152818161086401528181610a9201528181610e5701528181611bcd01528181611ccc01528181611e1f015261206a0152f35b5f80fd5b634e487b7160e01b5f52604160045260245ffd5b51906001600160a01b03821682036101865756fe6080806040526004361015610012575f80fd5b5f905f3560e01c908162435da5146120b95750806317d96797146120325780631a89804414611f665780631d43034914611d1c5780632dbcaf0f14611c2457806341ee149514611b475780634ad8f1a4146118d05780634e03317b1461177957806351c2d326146116d55780635850607c1461166757806370c056b0146111ae5780637e8f8da714610dca57806387fecd3e14610b6457806393b73ba2146109f45780639c0abfd8146108b75780639c6b1f10146107e5578063af3a1758146107a0578063b07304361461064c578063bbd0b8a9146104c8578063cb43b77f146102a6578063d0927b1914610202578063d369111d146101bd5763f14261d21461011a575f80fd5b346101ba57806003193601126101ba576040516378a130e960e11b815281816004817f00000000000000000000000000000000000000000000000000000000000000006001600160a01b03165afa9081156101af5782610188939261018c575b5050604051918291826126fa565b0390f35b6101a892503d8091833e6101a081836121b2565b810190612d59565b5f8061017a565b6040513d84823e3d90fd5b80fd5b50346101ba57806003193601126101ba576040517f00000000000000000000000000000000000000000000000000000000000000006001600160a01b03168152602090f35b50346101ba5760203660031901126101ba57600435816001600160401b0382116101ba576102376102599236906004016121ee565b604051809381926306f12c2360e41b8352602060048401526024830190612234565b03817f00000000000000000000000000000000000000000000000000000000000000006001600160a01b03165afa9081156101af5782610188939261018c575050604051918291826126fa565b50346101ba5760603660031901126101ba576004356001600160401b038111610482576102d790369060040161226c565b816024356001600160401b038111610482576102f790369060040161296f565b6044356001600160401b0381116104c457610316903690600401612312565b6040516395a8c58d60e01b81523360048201525f60248201526020816044816001600160a01b037f0000000000000000000000000000000000000000000000000000000000000000165afa80156104b95761037891859161048a575b50612cf1565b61038061318b565b8351917f00000000000000000000000000000000000000000000000000000000000000006001600160a01b0316803b15610486576103e6856103f89561040a82966040519889978896879563e8002b2760e01b8752606060048801526064870190612234565b85810360031901602487015290612826565b83810360031901604485015290612853565b03925af180156101af5761046d575b50604080830151606084015191517fc77dd947ea8bfd0bd2706c8fad9b1178313fad6bd4cb678b9342239be4f8852892909182916104639142916001600160a01b0316908461315f565b0390a16001815580f35b81610477916121b2565b61048257815f610419565b5080fd5b8480fd5b6104ac915060203d6020116104b2575b6104a481836121b2565b810190612aa2565b5f610372565b503d61049a565b6040513d86823e3d90fd5b8280fd5b50346101ba5760603660031901126101ba576004356001600160401b038111610482576104f990369060040161226c565b816024356001600160401b03811161048257610519903690600401612312565b6044356001600160401b0381116104c45761053890369060040161236c565b6040516395a8c58d60e01b8152336004820152600160248201526020816044816001600160a01b037f0000000000000000000000000000000000000000000000000000000000000000165afa80156104b95761059b91859161062d575b50612aba565b6105a361318b565b8351917f00000000000000000000000000000000000000000000000000000000000000006001600160a01b0316803b15610486576106098561061b9561040a82966040519889978896879563a722652760e01b8752606060048801526064870190612234565b85810360031901602487015290612853565b838103600319016044850152906128d7565b610646915060203d6020116104b2576104a481836121b2565b5f610595565b50346101ba578061065c366129ed565b6040516395a8c58d60e01b8152336004820152600260248201529091906020816044816001600160a01b037f0000000000000000000000000000000000000000000000000000000000000000165afa80156104b9576106c2918591610781575b50612b45565b6106ca61318b565b7f00000000000000000000000000000000000000000000000000000000000000006001600160a01b031691823b1561077c5761071f92849283604051809681958294635839821b60e11b84526004840161313a565b03925af180156101af57610767575b50604080513381524260208201527fea3baea71f890e421ddb5283439c0bec01bc071ddab39d723eefaba2009974469181908101610463565b81610771916121b2565b6101ba57805f61072e565b505050fd5b61079a915060203d6020116104b2576104a481836121b2565b5f6106bc565b50346101ba57806003193601126101ba576040517f00000000000000000000000000000000000000000000000000000000000000006001600160a01b03168152602090f35b50346101ba57806107f5366129ed565b6040516395a8c58d60e01b8152336004820152600260248201529091906020816044816001600160a01b037f0000000000000000000000000000000000000000000000000000000000000000165afa80156104b95761085a9185916107815750612b45565b61086261318b565b7f00000000000000000000000000000000000000000000000000000000000000006001600160a01b031691823b1561077c5761071f928492836040518096819582946309c6b1f160e41b84526004840161313a565b50346101ba57806108c7366125c2565b6040516395a8c58d60e01b815233600482015260026024820152939591949093919290916020816044816001600160a01b037f0000000000000000000000000000000000000000000000000000000000000000165afa80156104b9576109339185916107815750612b45565b61093b61318b565b7f00000000000000000000000000000000000000000000000000000000000000006001600160a01b031690813b156109f0578391869183896109956040519788968795869463e462dde560e01b8652339360048701612c4e565b03925af180156101af576109db575b50506104637fa4a4ed86dce7c96c7821a45fbbe8394915281a2a2fa758ab0465b199c571abfb936040519384934291339086612cac565b816109e5916121b2565b6109f057835f6109a4565b8380fd5b50346101ba5760403660031901126101ba57806004356001600160401b038111610b6157610a269036906004016121ee565b6040516395a8c58d60e01b8152336004820152600160248201526020816044816001600160a01b037f0000000000000000000000000000000000000000000000000000000000000000165afa8015610b5657610a8891849161062d5750612aba565b610a9061318b565b7f00000000000000000000000000000000000000000000000000000000000000006001600160a01b0316803b15610b5257610aed83929183926040519485809481936349db9dd160e11b8352604060048401526044830190612234565b602435602483015203925af180156101af57610b3d575b50604080513381524260208201527f31f768961bf7d66fe1e61d4671b3cc2aa12b4dcab0587881c83f78c4e9ffa0d49181908101610463565b81610b47916121b2565b6101ba57805f610b04565b5050fd5b6040513d85823e3d90fd5b50fd5b50346101ba5760a03660031901126101ba576004356001600160401b03811161048257610b9590369060040161226c565b610b9d612302565b826044356001600160401b03811161048257610bbd9036906004016121ee565b926064356001600160401b0381116104c457610bdd90369060040161296f565b6084356001600160401b0381116109f057610bfc903690600401612312565b6040516395a8c58d60e01b81523360048201525f60248201529092906020816044816001600160a01b037f0000000000000000000000000000000000000000000000000000000000000000165afa8015610dbf57610c6091869161048a5750612cf1565b610c6861318b565b8051602082015160408301805160609094015190986001600160a01b03918216967f0000000000000000000000000000000000000000000000000000000000000000909216939091843b15610dbb5788968793604051998a98899788966364b409ff60e01b88526004880161010090526101048801610ce691612234565b878103600319016024890152610cfb91612234565b868103600319016044880152610d1091612234565b90606486015260ff8d1660848601526003198582030160a4860152610d3491612234565b8381036003190160c4850152610d4991612826565b8281036003190160e4840152610d5e91612853565b03925af180156101af57610da6575b50507ff52a0795d3c1a788d33423aa105be7a0aaa157621a984632251e0c2ed142d0409151906104636040519283924291339085612b10565b81610db0916121b2565b6104c457825f610d6d565b8880fd5b6040513d87823e3d90fd5b50346101ba5760203660031901126101ba576004356001600160401b03811161048257610dfb9036906004016121ee565b610e03612ef6565b50610e0c612ed6565b50610e15612f55565b50606060e0604051610e268161215f565b82815282602082015282604082015282808201528260808201528260a08201528260c0820152015260018060a01b037f00000000000000000000000000000000000000000000000000000000000000001660405190637e8f8da760e01b825260206004830152838280610e9c6024820187612234565b0381845afa9081156104b95784809181948294610f98575b5094610ede9495604051808097819463be2e232560e01b8352602060048401526024830190612234565b03915afa928315610dbf5785610f139694610f6a575b5050610f5c906101889394604051968796608088526080880190612785565b8681036020880152604060ff81610f48610f368751606087526060870190612234565b60208801518682036020880152612234565b950151169101528582036040870152612853565b9083820360608501526128d7565b6101889450610f5c9291610f8f913d8091833e610f8781836121b2565b810190613040565b93819250610ef4565b9450925050503d8085843e610fad81846121b2565b820191606081840312610486578481516001600160401b038111610482578201946060868603126104825760405195610fe587612144565b80516001600160401b0381116109f05786611001918301612a37565b875260208101516001600160401b0381116109f05781611028886040936110339501612a37565b60208a015201612d4b565b604087015260208301516001600160401b0381116104c45785611057918501612f6e565b926040810151906001600160401b0382116109f0570195610100878703126104c457604051966110868861215f565b80516001600160401b03811161048657876110a2918301612a37565b885260208101516001600160401b03811161048657876110c3918301612a37565b602089015260408101516001600160401b03811161048657876110e7918301612a37565b604089015260608101516001600160401b038111610486578761110b918301612a37565b606089015260808101516001600160401b038111610486578761112f918301612a37565b608089015260a08101516001600160401b0381116104865787611153918301612a37565b60a089015260c08101516001600160401b0381116104865787611177918301612a37565b60c089015260e0810151966001600160401b03881161048657610ede9761119e9201612a37565b60e0880152929593909594610eb4565b50346101ba5760203660031901126101ba576004356001600160401b038111610482576111df9036906004016121ee565b6111e7612ef6565b506060806040516111f781612129565b818152816020820152846040820152015260606040805161121781612144565b828152826020820152015261122a612f55565b50606060a060405161123b816120fa565b8281528260208201528260408201528280820152826080820152015260018060a01b037f00000000000000000000000000000000000000000000000000000000000000001660405163070c056b60e41b8152602060048201528381806112a46024820187612234565b0381855afa9081156104b9578492858091819382956113d7575b50956112e89596604051808098819463be2e232560e01b8352602060048401526024830190612234565b03915afa9384156113cc5786611324979561139e575b505090611382611390926113746101889697604051998a9960a08b5260a08b0190612785565b89810360208b015260606113566113448451608085526080850190612234565b60208501518482036020860152612234565b9260ff60408201511660408401520151906060818403910152612234565b908782036040890152612826565b908582036060870152612853565b90838203608085015261287d565b6101889550916113746113c26113829361139096953d8091833e610f8781836121b2565b96505091926112fe565b6040513d88823e3d90fd5b955093505050503d8085843e6113ed81846121b2565b8201916080818403126104865780516001600160401b03811161166357810190608082850312611663576040519161142483612129565b80516001600160401b03811161165f5785611440918301612a37565b835260208101516001600160401b03811161165f5785611461918301612a37565b602084015261147260408201612d4b565b60408401526060810151906001600160401b03821161165f5761149791869101612a37565b60608301528560208201516001600160401b0381116104825782019560608787031261048257604051966114ca88612144565b80516001600160401b0381116109f057876114e6918301612a37565b885260208101516001600160401b0381116109f05787611507918301612a37565b60208901526040810151906001600160401b0382116109f05761152c91889101612a37565b604088015260408301516001600160401b0381116104c45786611550918501612f6e565b926060810151906001600160401b0382116109f057019360c0858803126104c4576040519461157e866120fa565b80516001600160401b038111610486578861159a918301612a37565b865260208101516001600160401b03811161048657886115bb918301612a37565b602087015260408101516001600160401b03811161048657886115df918301612a37565b604087015260608101516001600160401b0381116104865788611603918301612a37565b606087015260808101516001600160401b0381116104865788611627918301612a37565b608087015260a0810151976001600160401b038911610486576112e89861164e9201612a37565b60a0860152969293949096956112be565b8780fd5b8580fd5b50346101ba57806003193601126101ba57604051631614181f60e21b815281816004817f00000000000000000000000000000000000000000000000000000000000000006001600160a01b03165afa9081156101af5782610188939261018c575050604051918291826126fa565b50346101ba5760203660031901126101ba57600435816001600160401b0382116101ba5761170a61172c9236906004016121ee565b604051809381926381fc60a560e01b8352602060048401526024830190612234565b03817f00000000000000000000000000000000000000000000000000000000000000006001600160a01b03165afa9081156101af5782610188939261018c575050604051918291826126fa565b50346101ba576117883661249f565b6040516395a8c58d60e01b8152336004820152600260248201529192916020816044816001600160a01b037f0000000000000000000000000000000000000000000000000000000000000000165afa8015610dbf576117ed9186916107815750612b45565b6117f561318b565b81516020830151604084015160608501805160808701519197899591946001600160a01b0393841694937f00000000000000000000000000000000000000000000000000000000000000001692909190833b1561165f576118718896928793604051998a9889978896630173c92160e71b885260048801612b9c565b03925af180156101af576118bb575b50506104637fc8c9ccc57ad2f7823680b448dd87b511b225eb0ac2e99e0aa88e7a26ebc6cbe593519251926040519384934292339086612c08565b816118c5916121b2565b6109f057835f611880565b50346101ba5760603660031901126101ba57806004356001600160401b038111610b61576119029036906004016121ee565b604435906001600160401b038211610b525760c06003198336030112610b52576040519161192f836120fa565b80600401356001600160401b0381116104865761195290600436918401016121ee565b835260248101356001600160401b0381116104865761197790600436918401016121ee565b602084015260448101356001600160401b0381116104865761199f90600436918401016121ee565b604084015260648101356001600160401b038111610486576119c790600436918401016121ee565b606084015260848101356001600160401b038111610486576119ef90600436918401016121ee565b608084015260a4810135906001600160401b038211610486576004611a1792369201016121ee565b60a08301526040516395a8c58d60e01b81523360048201525f60248201526020816044816001600160a01b037f0000000000000000000000000000000000000000000000000000000000000000165afa80156104b957611a7d91859161048a5750612cf1565b611a8561318b565b7f00000000000000000000000000000000000000000000000000000000000000006001600160a01b031691823b1561077c57611b0092611ae6858094604051968795869485936312b63c6960e21b8552606060048601526064850190612234565b90602435602485015260031984830301604485015261287d565b03925af180156101af57610b3d5750604080513381524260208201527f31f768961bf7d66fe1e61d4671b3cc2aa12b4dcab0587881c83f78c4e9ffa0d49181908101610463565b50346101ba5780611b57366125c2565b6040516395a8c58d60e01b815233600482015260026024820152939591949093919290916020816044816001600160a01b037f0000000000000000000000000000000000000000000000000000000000000000165afa80156104b957611bc39185916107815750612b45565b611bcb61318b565b7f00000000000000000000000000000000000000000000000000000000000000006001600160a01b031690813b156109f05783918691838961099560405197889687958694621acf2560e81b8652339360048701612c4e565b50346101ba57611c333661249f565b6040516395a8c58d60e01b8152336004820152600260248201529192916020816044816001600160a01b037f0000000000000000000000000000000000000000000000000000000000000000165afa8015610dbf57611c989186916107815750612b45565b611ca061318b565b81516020830151604084015160608501805160808701519197899591946001600160a01b0393841694937f00000000000000000000000000000000000000000000000000000000000000001692909190833b1561165f576118718896928793604051998a98899788966315c9fbf960e11b885260048801612b9c565b5034611f62576080366003190112611f62576004356001600160401b038111611f6257611d4d90369060040161226c565b90611d56612302565b6044356001600160401b038111611f6257611d75903690600401612312565b6064356001600160401b038111611f6257611d9490369060040161236c565b6040516395a8c58d60e01b8152336004820152600160248201526020816044816001600160a01b037f0000000000000000000000000000000000000000000000000000000000000000165afa8015611f5757611df6915f9161062d5750612aba565b611dfe61318b565b84516020860151604087018051606090980151909791926001600160a01b037f0000000000000000000000000000000000000000000000000000000000000000811693921690833b15611f6257611edb5f96611ec98894611e979a611ea9611e85986040519d8e9c8d9b8c9a63682053d960e01b8c5260e060048d015260e48c0190612234565b8a81036003190160248c015290612234565b8881036003190160448a015290612234565b91606487015260ff8d1660848701526003198683030160a4870152612853565b8381036003190160c4850152906128d7565b03925af18015611f5757611f23575b507ff52a0795d3c1a788d33423aa105be7a0aaa157621a984632251e0c2ed142d040919251906104636040519283924291339085612b10565b7ff52a0795d3c1a788d33423aa105be7a0aaa157621a984632251e0c2ed142d04092505f611f50916121b2565b5f91611eea565b6040513d5f823e3d90fd5b5f80fd5b34611f62576020366003190112611f62576004356001600160401b038111611f62575f611f9a611fbc9236906004016121ee565b60405180938192636d1aa7d560e01b8352602060048401526024830190612234565b03817f00000000000000000000000000000000000000000000000000000000000000006001600160a01b03165afa8015611f5757610188915f91612010575b50604051918291602083526020830190612234565b61202c91503d805f833e61202481836121b2565b810190612a7d565b82611ffb565b34611f62576020366003190112611f62576004356001600160401b038111611f62575f611f9a6120669236906004016121ee565b03817f00000000000000000000000000000000000000000000000000000000000000006001600160a01b03165afa8015611f5757610188915f916120105750604051918291602083526020830190612234565b34611f62575f366003190112611f62577f00000000000000000000000000000000000000000000000000000000000000006001600160a01b03168152602090f35b60c081019081106001600160401b0382111761211557604052565b634e487b7160e01b5f52604160045260245ffd5b608081019081106001600160401b0382111761211557604052565b606081019081106001600160401b0382111761211557604052565b61010081019081106001600160401b0382111761211557604052565b604081019081106001600160401b0382111761211557604052565b61016081019081106001600160401b0382111761211557604052565b90601f801991011681019081106001600160401b0382111761211557604052565b6001600160401b03811161211557601f01601f191660200190565b81601f82011215611f6257803590612205826121d3565b9261221360405194856121b2565b82845260208383010111611f6257815f926020809301838601378301015290565b805180835260209291819084018484015e5f828201840152601f01601f1916010190565b35906001600160a01b0382168203611f6257565b919091608081840312611f62576040519061228682612129565b819381356001600160401b038111611f6257816122a49184016121ee565b835260208201356001600160401b038111611f6257816122c59184016121ee565b60208401526040820135906001600160401b038211611f6257826122f2606094926122fd948694016121ee565b604086015201612258565b910152565b6024359060ff82168203611f6257565b9190604083820312611f62576040519061232b8261217b565b819380356001600160401b038111611f6257826123499183016121ee565b83526020810135916001600160401b038311611f62576020926122fd92016121ee565b919061010083820312611f6257604051906123868261215f565b819380356001600160401b038111611f6257826123a49183016121ee565b835260208101356001600160401b038111611f6257826123c59183016121ee565b602084015260408101356001600160401b038111611f6257826123e99183016121ee565b604084015260608101356001600160401b038111611f62578261240d9183016121ee565b606084015260808101356001600160401b038111611f6257826124319183016121ee565b608084015260a08101356001600160401b038111611f6257826124559183016121ee565b60a084015260c08101356001600160401b038111611f6257826124799183016121ee565b60c084015260e0810135916001600160401b038311611f625760e0926122fd92016121ee565b906060600319830112611f62576004356001600160401b038111611f625760a08184036003190112611f62576040519060a082018281106001600160401b038211176121155760405280600401356001600160401b038111611f625784600461250a928401016121ee565b825260248101356001600160401b038111611f625784600461252e928401016121ee565b602083015260448101356001600160401b038111611f6257846004612555928401016121ee565b604083015260648101356001600160401b038111611f62578161258286600460849461258d9601016121ee565b606085015201612258565b608082015291602435906001600160401b038211611f62576125b1916004016121ee565b9060443560ff81168103611f625790565b9060a0600319830112611f62576004356001600160401b038111611f6257826125ed916004016121ee565b916024356001600160401b038111611f62578161260c916004016121ee565b916044356001600160401b038111611f62578261262b916004016121ee565b91606435906001600160401b038211611f625761264a916004016121ee565b9060843560ff81168103611f625790565b9060078210156126685752565b634e487b7160e01b5f52602160045260245ffd5b9060c0806126f16126c06126ae61269c875160e0885260e0880190612234565b60208801518782036020890152612234565b60408701518682036040880152612234565b60ff60608701511660608601526126df6080870151608087019061265b565b60a086015185820360a0870152612234565b93015191015290565b602081016020825282518091526040820191602060408360051b8301019401925f915b83831061272c57505050505090565b909192939460208061274a600193603f19868203018752895161267c565b9701930193019193929061271d565b9060406127726113448451606085526060850190612234565b928101516001600160a01b031691015290565b6128239161279481835161265b565b6020820151602082015260408201516040820152606082015160608201526080820151608082015260a082015160a082015260c082015160c082015260e082015160e08201526101406128116127fd610100850151610160610100860152610160850190612759565b610120850151848203610120860152612759565b92015190610140818403910152612234565b90565b6128239160406128426113448451606085526060850190612234565b920151906040818403910152612234565b61282391602061286c8351604084526040840190612234565b920151906020818403910152612234565b6128239160a06128c66128b46128a26126ae61269c875160c0885260c0880190612234565b60608601518582036060870152612234565b60808501518482036080860152612234565b9201519060a0818403910152612234565b6128239160e061295e61294c6126df61293a61292861291661290489516101008a526101008a0190612234565b60208a015189820360208b0152612234565b604089015188820360408a0152612234565b60608801518782036060890152612234565b60808701518682036080880152612234565b60c085015184820360c0860152612234565b9201519060e0818403910152612234565b9190606083820312611f62576040519061298882612144565b819380356001600160401b038111611f6257826129a69183016121ee565b835260208101356001600160401b038111611f6257826129c79183016121ee565b60208401526040810135916001600160401b038311611f62576040926122fd92016121ee565b906040600319830112611f62576004356001600160401b038111611f625782612a18916004016121ee565b91602435906001600160401b038211611f6257612823916004016121ee565b81601f82011215611f6257805190612a4e826121d3565b92612a5c60405194856121b2565b82845260208383010111611f6257815f9260208093018386015e8301015290565b90602082820312611f625781516001600160401b038111611f62576128239201612a37565b90816020910312611f6257518015158103611f625790565b15612ac157565b60405162461bcd60e51b815260206004820152602160248201527f4f6e6c79205042462063616e20646f2074686973207472616e73616374696f6e6044820152602160f81b6064820152608490fd5b90606092959493612b2b60ff92608085526080850190612234565b6001600160a01b0390971660208401521660408201520152565b15612b4c57565b60405162461bcd60e51b815260206004820152602260248201527f4f6e6c792042504f4d2063616e20646f2074686973207472616e73616374696f6044820152616e2160f01b6064820152608490fd5b92612bdb90612bcd612be994612bbf6128239a989560c0895260c0890190612234565b908782036020890152612234565b908582036040870152612234565b908382036060850152612234565b6001600160a01b03909316608082015280830360a09190910152612234565b95949360ff608094612c26612c49959460a08b5260a08b0190612234565b6001600160a01b0390941660208a01521660408801528682036060880152612234565b930152565b9390608093612c80612c9c94612c72612c8e949a999a60a08a5260a08a0190612234565b9088820360208a0152612234565b908682036040880152612234565b908482036060860152612234565b6001600160a01b03909416910152565b9193906128239593612cc860ff9260a0865260a0860190612234565b6001600160a01b0390961660208501521660408301526060820152808303608090910152612234565b15612cf857565b60405162461bcd60e51b815260206004820152602560248201527f4f6e6c7920466163746f72792063616e20646f2074686973207472616e73616360448201526474696f6e2160d81b6064820152608490fd5b519060ff82168203611f6257565b602081830312611f62578051906001600160401b038211611f62570181601f82011215611f62578051906001600160401b0382116121155760208260051b0192612da660405194856121b2565b82845260208085019360051b83010191818311611f625760208101935b838510612dd257505050505090565b84516001600160401b038111611f625760209083010160e081850312611f62576040519160e083018381106001600160401b038211176121155760405281516001600160401b038111611f625785612e2b918401612a37565b835260208201516001600160401b038111611f625785612e4c918401612a37565b602084015260408201516001600160401b038111611f625785612e70918401612a37565b6040840152612e8160608301612d4b565b606084015260808201516007811015611f6257608084015260a0820151926001600160401b038411611f625760c083612ebf88602097889701612a37565b60a0840152015160c0820152815201940193612dc3565b60405190612ee382612144565b5f60408360608152606060208201520152565b60405190612f0382612196565b6060610140835f81525f60208201525f60408201525f838201525f60808201525f60a08201525f60c08201525f60e0820152612f3d612ed6565b610100820152612f4b612ed6565b6101208201520152565b60405190612f628261217b565b60606020838281520152565b9190604083820312611f625760405190612f878261217b565b819380516001600160401b038111611f625782612fa5918301612a37565b83526020810151916001600160401b038311611f62576020926122fd9201612a37565b9190606083820312611f625760405190612fe182612144565b819380516001600160401b038111611f625782612fff918301612a37565b835260208101516001600160401b038111611f6257604092613022918301612a37565b60208401520151906001600160a01b0382168203611f625760400152565b602081830312611f62578051906001600160401b038211611f62570161016081830312611f62576040519161307483612196565b81516007811015611f625783526020820151602084015260408201516040840152606082015160608401526080820151608084015260a082015160a084015260c082015160c084015260e082015160e08401526101008201516001600160401b038111611f6257816130e7918401612fc8565b6101008401526101208201516001600160401b038111611f62578161310d918401612fc8565b6101208401526101408201516001600160401b038111611f62576131319201612a37565b61014082015290565b909161315161282393604084526040840190612234565b916020818403910152612234565b61317760409295949395606083526060830190612234565b6001600160a01b0390951660208201520152565b60025f541461319a5760025f55565b633ee5aeb560e01b5f5260045ffdfea26469706673582212206c4154b98e025f110a0b78aff46e60b901d69e3c65b7b4ddcae6b570658fdf7664736f6c634300081b0033","opcodes":"PUSH1 0xE0 CALLVALUE PUSH2 0x186 JUMPI PUSH1 0x1F PUSH2 0x3392 CODESIZE DUP2 SWAP1 SUB SWAP2 DUP3 ADD PUSH1 0x1F NOT AND DUP4 ADD SWAP2 PUSH1 0x1 PUSH1 0x1 PUSH1 0x40 SHL SUB DUP4 GT DUP5 DUP5 LT OR PUSH2 0x18A JUMPI DUP1 DUP5 SWAP3 PUSH1 0x60 SWAP5 PUSH1 0x40 MSTORE DUP4 CODECOPY DUP2 ADD SUB SLT PUSH2 0x186 JUMPI PUSH2 0x47 DUP2 PUSH2 0x19E JUMP JUMPDEST SWAP1 PUSH2 0x60 PUSH1 0x40 PUSH2 0x59 PUSH1 0x20 DUP5 ADD PUSH2 0x19E JUMP JUMPDEST SWAP3 ADD PUSH2 0x19E JUMP JUMPDEST PUSH1 0x1 PUSH0 SSTORE PUSH1 0x1 PUSH1 0x1 PUSH1 0xA0 SHL SUB SWAP3 DUP4 AND PUSH1 0x80 MSTORE SWAP1 DUP3 AND PUSH1 0xA0 MSTORE AND PUSH1 0xC0 MSTORE PUSH1 0x40 MLOAD PUSH2 0x31DF SWAP1 DUP2 PUSH2 0x1B3 DUP3 CODECOPY PUSH1 0x80 MLOAD DUP2 DUP2 DUP2 PUSH2 0x33F ADD MSTORE DUP2 DUP2 PUSH2 0x562 ADD MSTORE DUP2 DUP2 PUSH2 0x689 ADD MSTORE DUP2 DUP2 PUSH2 0x822 ADD MSTORE DUP2 DUP2 PUSH2 0x8FB ADD MSTORE DUP2 DUP2 PUSH2 0xA50 ADD MSTORE DUP2 DUP2 PUSH2 0xC28 ADD MSTORE DUP2 DUP2 PUSH2 0x17B5 ADD MSTORE DUP2 DUP2 PUSH2 0x1A45 ADD MSTORE DUP2 DUP2 PUSH2 0x1B8B ADD MSTORE DUP2 DUP2 PUSH2 0x1C60 ADD MSTORE DUP2 DUP2 PUSH2 0x1DBE ADD MSTORE PUSH2 0x20CB ADD MSTORE PUSH1 0xA0 MLOAD DUP2 DUP2 DUP2 PUSH2 0x1D3 ADD MSTORE DUP2 DUP2 PUSH2 0x385 ADD MSTORE DUP2 DUP2 PUSH2 0x6CC ADD MSTORE DUP2 DUP2 PUSH2 0x93D ADD MSTORE DUP2 DUP2 PUSH2 0xC8B ADD MSTORE DUP2 DUP2 PUSH2 0x1260 ADD MSTORE DUP2 DUP2 PUSH2 0x168C ADD MSTORE DUP2 DUP2 PUSH2 0x1730 ADD MSTORE DUP2 DUP2 PUSH2 0x1821 ADD MSTORE DUP2 DUP2 PUSH2 0x1A87 ADD MSTORE PUSH2 0x1FC0 ADD MSTORE PUSH1 0xC0 MLOAD DUP2 DUP2 DUP2 PUSH2 0x13E ADD MSTORE DUP2 DUP2 PUSH2 0x25D ADD MSTORE DUP2 DUP2 PUSH2 0x5A8 ADD MSTORE DUP2 DUP2 PUSH2 0x7B6 ADD MSTORE DUP2 DUP2 PUSH2 0x864 ADD MSTORE DUP2 DUP2 PUSH2 0xA92 ADD MSTORE DUP2 DUP2 PUSH2 0xE57 ADD MSTORE DUP2 DUP2 PUSH2 0x1BCD ADD MSTORE DUP2 DUP2 PUSH2 0x1CCC ADD MSTORE DUP2 DUP2 PUSH2 0x1E1F ADD MSTORE PUSH2 0x206A ADD MSTORE RETURN JUMPDEST PUSH0 DUP1 REVERT JUMPDEST PUSH4 0x4E487B71 PUSH1 0xE0 SHL PUSH0 MSTORE PUSH1 0x41 PUSH1 0x4 MSTORE PUSH1 0x24 PUSH0 REVERT JUMPDEST MLOAD SWAP1 PUSH1 0x1 PUSH1 0x1 PUSH1 0xA0 SHL SUB DUP3 AND DUP3 SUB PUSH2 0x186 JUMPI JUMP INVALID PUSH1 0x80 DUP1 PUSH1 0x40 MSTORE PUSH1 0x4 CALLDATASIZE LT ISZERO PUSH2 0x12 JUMPI PUSH0 DUP1 REVERT JUMPDEST PUSH0 SWAP1 PUSH0 CALLDATALOAD PUSH1 0xE0 SHR SWAP1 DUP2 PUSH3 0x435DA5 EQ PUSH2 0x20B9 JUMPI POP DUP1 PUSH4 0x17D96797 EQ PUSH2 0x2032 JUMPI DUP1 PUSH4 0x1A898044 EQ PUSH2 0x1F66 JUMPI DUP1 PUSH4 0x1D430349 EQ PUSH2 0x1D1C JUMPI DUP1 PUSH4 0x2DBCAF0F EQ PUSH2 0x1C24 JUMPI DUP1 PUSH4 0x41EE1495 EQ PUSH2 0x1B47 JUMPI DUP1 PUSH4 0x4AD8F1A4 EQ PUSH2 0x18D0 JUMPI DUP1 PUSH4 0x4E03317B EQ PUSH2 0x1779 JUMPI DUP1 PUSH4 0x51C2D326 EQ PUSH2 0x16D5 JUMPI DUP1 PUSH4 0x5850607C EQ PUSH2 0x1667 JUMPI DUP1 PUSH4 0x70C056B0 EQ PUSH2 0x11AE JUMPI DUP1 PUSH4 0x7E8F8DA7 EQ PUSH2 0xDCA JUMPI DUP1 PUSH4 0x87FECD3E EQ PUSH2 0xB64 JUMPI DUP1 PUSH4 0x93B73BA2 EQ PUSH2 0x9F4 JUMPI DUP1 PUSH4 0x9C0ABFD8 EQ PUSH2 0x8B7 JUMPI DUP1 PUSH4 0x9C6B1F10 EQ PUSH2 0x7E5 JUMPI DUP1 PUSH4 0xAF3A1758 EQ PUSH2 0x7A0 JUMPI DUP1 PUSH4 0xB0730436 EQ PUSH2 0x64C JUMPI DUP1 PUSH4 0xBBD0B8A9 EQ PUSH2 0x4C8 JUMPI DUP1 PUSH4 0xCB43B77F EQ PUSH2 0x2A6 JUMPI DUP1 PUSH4 0xD0927B19 EQ PUSH2 0x202 JUMPI DUP1 PUSH4 0xD369111D EQ PUSH2 0x1BD JUMPI PUSH4 0xF14261D2 EQ PUSH2 0x11A JUMPI PUSH0 DUP1 REVERT JUMPDEST CALLVALUE PUSH2 0x1BA JUMPI DUP1 PUSH1 0x3 NOT CALLDATASIZE ADD SLT PUSH2 0x1BA JUMPI PUSH1 0x40 MLOAD PUSH4 0x78A130E9 PUSH1 0xE1 SHL DUP2 MSTORE DUP2 DUP2 PUSH1 0x4 DUP2 PUSH32 0x0 PUSH1 0x1 PUSH1 0x1 PUSH1 0xA0 SHL SUB AND GAS STATICCALL SWAP1 DUP2 ISZERO PUSH2 0x1AF JUMPI DUP3 PUSH2 0x188 SWAP4 SWAP3 PUSH2 0x18C JUMPI JUMPDEST POP POP PUSH1 0x40 MLOAD SWAP2 DUP3 SWAP2 DUP3 PUSH2 0x26FA JUMP JUMPDEST SUB SWAP1 RETURN JUMPDEST PUSH2 0x1A8 SWAP3 POP RETURNDATASIZE DUP1 SWAP2 DUP4 RETURNDATACOPY PUSH2 0x1A0 DUP2 DUP4 PUSH2 0x21B2 JUMP JUMPDEST DUP2 ADD SWAP1 PUSH2 0x2D59 JUMP JUMPDEST PUSH0 DUP1 PUSH2 0x17A JUMP JUMPDEST PUSH1 0x40 MLOAD RETURNDATASIZE DUP5 DUP3 RETURNDATACOPY RETURNDATASIZE SWAP1 REVERT JUMPDEST DUP1 REVERT JUMPDEST POP CALLVALUE PUSH2 0x1BA JUMPI DUP1 PUSH1 0x3 NOT CALLDATASIZE ADD SLT PUSH2 0x1BA JUMPI PUSH1 0x40 MLOAD PUSH32 0x0 PUSH1 0x1 PUSH1 0x1 PUSH1 0xA0 SHL SUB AND DUP2 MSTORE PUSH1 0x20 SWAP1 RETURN JUMPDEST POP CALLVALUE PUSH2 0x1BA JUMPI PUSH1 0x20 CALLDATASIZE PUSH1 0x3 NOT ADD SLT PUSH2 0x1BA JUMPI PUSH1 0x4 CALLDATALOAD DUP2 PUSH1 0x1 PUSH1 0x1 PUSH1 0x40 SHL SUB DUP3 GT PUSH2 0x1BA JUMPI PUSH2 0x237 PUSH2 0x259 SWAP3 CALLDATASIZE SWAP1 PUSH1 0x4 ADD PUSH2 0x21EE JUMP JUMPDEST PUSH1 0x40 MLOAD DUP1 SWAP4 DUP2 SWAP3 PUSH4 0x6F12C23 PUSH1 0xE4 SHL DUP4 MSTORE PUSH1 0x20 PUSH1 0x4 DUP5 ADD MSTORE PUSH1 0x24 DUP4 ADD SWAP1 PUSH2 0x2234 JUMP JUMPDEST SUB DUP2 PUSH32 0x0 PUSH1 0x1 PUSH1 0x1 PUSH1 0xA0 SHL SUB AND GAS STATICCALL SWAP1 DUP2 ISZERO PUSH2 0x1AF JUMPI DUP3 PUSH2 0x188 SWAP4 SWAP3 PUSH2 0x18C JUMPI POP POP PUSH1 0x40 MLOAD SWAP2 DUP3 SWAP2 DUP3 PUSH2 0x26FA JUMP JUMPDEST POP CALLVALUE PUSH2 0x1BA JUMPI PUSH1 0x60 CALLDATASIZE PUSH1 0x3 NOT ADD SLT PUSH2 0x1BA JUMPI PUSH1 0x4 CALLDATALOAD PUSH1 0x1 PUSH1 0x1 PUSH1 0x40 SHL SUB DUP2 GT PUSH2 0x482 JUMPI PUSH2 0x2D7 SWAP1 CALLDATASIZE SWAP1 PUSH1 0x4 ADD PUSH2 0x226C JUMP JUMPDEST DUP2 PUSH1 0x24 CALLDATALOAD PUSH1 0x1 PUSH1 0x1 PUSH1 0x40 SHL SUB DUP2 GT PUSH2 0x482 JUMPI PUSH2 0x2F7 SWAP1 CALLDATASIZE SWAP1 PUSH1 0x4 ADD PUSH2 0x296F JUMP JUMPDEST PUSH1 0x44 CALLDATALOAD PUSH1 0x1 PUSH1 0x1 PUSH1 0x40 SHL SUB DUP2 GT PUSH2 0x4C4 JUMPI PUSH2 0x316 SWAP1 CALLDATASIZE SWAP1 PUSH1 0x4 ADD PUSH2 0x2312 JUMP JUMPDEST PUSH1 0x40 MLOAD PUSH4 0x95A8C58D PUSH1 0xE0 SHL DUP2 MSTORE CALLER PUSH1 0x4 DUP3 ADD MSTORE PUSH0 PUSH1 0x24 DUP3 ADD MSTORE PUSH1 0x20 DUP2 PUSH1 0x44 DUP2 PUSH1 0x1 PUSH1 0x1 PUSH1 0xA0 SHL SUB PUSH32 0x0 AND GAS STATICCALL DUP1 ISZERO PUSH2 0x4B9 JUMPI PUSH2 0x378 SWAP2 DUP6 SWAP2 PUSH2 0x48A JUMPI JUMPDEST POP PUSH2 0x2CF1 JUMP JUMPDEST PUSH2 0x380 PUSH2 0x318B JUMP JUMPDEST DUP4 MLOAD SWAP2 PUSH32 0x0 PUSH1 0x1 PUSH1 0x1 PUSH1 0xA0 SHL SUB AND DUP1 EXTCODESIZE ISZERO PUSH2 0x486 JUMPI PUSH2 0x3E6 DUP6 PUSH2 0x3F8 SWAP6 PUSH2 0x40A DUP3 SWAP7 PUSH1 0x40 MLOAD SWAP9 DUP10 SWAP8 DUP9 SWAP7 DUP8 SWAP6 PUSH4 0xE8002B27 PUSH1 0xE0 SHL DUP8 MSTORE PUSH1 0x60 PUSH1 0x4 DUP9 ADD MSTORE PUSH1 0x64 DUP8 ADD SWAP1 PUSH2 0x2234 JUMP JUMPDEST DUP6 DUP2 SUB PUSH1 0x3 NOT ADD PUSH1 0x24 DUP8 ADD MSTORE SWAP1 PUSH2 0x2826 JUMP JUMPDEST DUP4 DUP2 SUB PUSH1 0x3 NOT ADD PUSH1 0x44 DUP6 ADD MSTORE SWAP1 PUSH2 0x2853 JUMP JUMPDEST SUB SWAP3 GAS CALL DUP1 ISZERO PUSH2 0x1AF JUMPI PUSH2 0x46D JUMPI JUMPDEST POP PUSH1 0x40 DUP1 DUP4 ADD MLOAD PUSH1 0x60 DUP5 ADD MLOAD SWAP2 MLOAD PUSH32 0xC77DD947EA8BFD0BD2706C8FAD9B1178313FAD6BD4CB678B9342239BE4F88528 SWAP3 SWAP1 SWAP2 DUP3 SWAP2 PUSH2 0x463 SWAP2 TIMESTAMP SWAP2 PUSH1 0x1 PUSH1 0x1 PUSH1 0xA0 SHL SUB AND SWAP1 DUP5 PUSH2 0x315F JUMP JUMPDEST SUB SWAP1 LOG1 PUSH1 0x1 DUP2 SSTORE DUP1 RETURN JUMPDEST DUP2 PUSH2 0x477 SWAP2 PUSH2 0x21B2 JUMP JUMPDEST PUSH2 0x482 JUMPI DUP2 PUSH0 PUSH2 0x419 JUMP JUMPDEST POP DUP1 REVERT JUMPDEST DUP5 DUP1 REVERT JUMPDEST PUSH2 0x4AC SWAP2 POP PUSH1 0x20 RETURNDATASIZE PUSH1 0x20 GT PUSH2 0x4B2 JUMPI JUMPDEST PUSH2 0x4A4 DUP2 DUP4 PUSH2 0x21B2 JUMP JUMPDEST DUP2 ADD SWAP1 PUSH2 0x2AA2 JUMP JUMPDEST PUSH0 PUSH2 0x372 JUMP JUMPDEST POP RETURNDATASIZE PUSH2 0x49A JUMP JUMPDEST PUSH1 0x40 MLOAD RETURNDATASIZE DUP7 DUP3 RETURNDATACOPY RETURNDATASIZE SWAP1 REVERT JUMPDEST DUP3 DUP1 REVERT JUMPDEST POP CALLVALUE PUSH2 0x1BA JUMPI PUSH1 0x60 CALLDATASIZE PUSH1 0x3 NOT ADD SLT PUSH2 0x1BA JUMPI PUSH1 0x4 CALLDATALOAD PUSH1 0x1 PUSH1 0x1 PUSH1 0x40 SHL SUB DUP2 GT PUSH2 0x482 JUMPI PUSH2 0x4F9 SWAP1 CALLDATASIZE SWAP1 PUSH1 0x4 ADD PUSH2 0x226C JUMP JUMPDEST DUP2 PUSH1 0x24 CALLDATALOAD PUSH1 0x1 PUSH1 0x1 PUSH1 0x40 SHL SUB DUP2 GT PUSH2 0x482 JUMPI PUSH2 0x519 SWAP1 CALLDATASIZE SWAP1 PUSH1 0x4 ADD PUSH2 0x2312 JUMP JUMPDEST PUSH1 0x44 CALLDATALOAD PUSH1 0x1 PUSH1 0x1 PUSH1 0x40 SHL SUB DUP2 GT PUSH2 0x4C4 JUMPI PUSH2 0x538 SWAP1 CALLDATASIZE SWAP1 PUSH1 0x4 ADD PUSH2 0x236C JUMP JUMPDEST PUSH1 0x40 MLOAD PUSH4 0x95A8C58D PUSH1 0xE0 SHL DUP2 MSTORE CALLER PUSH1 0x4 DUP3 ADD MSTORE PUSH1 0x1 PUSH1 0x24 DUP3 ADD MSTORE PUSH1 0x20 DUP2 PUSH1 0x44 DUP2 PUSH1 0x1 PUSH1 0x1 PUSH1 0xA0 SHL SUB PUSH32 0x0 AND GAS STATICCALL DUP1 ISZERO PUSH2 0x4B9 JUMPI PUSH2 0x59B SWAP2 DUP6 SWAP2 PUSH2 0x62D JUMPI JUMPDEST POP PUSH2 0x2ABA JUMP JUMPDEST PUSH2 0x5A3 PUSH2 0x318B JUMP JUMPDEST DUP4 MLOAD SWAP2 PUSH32 0x0 PUSH1 0x1 PUSH1 0x1 PUSH1 0xA0 SHL SUB AND DUP1 EXTCODESIZE ISZERO PUSH2 0x486 JUMPI PUSH2 0x609 DUP6 PUSH2 0x61B SWAP6 PUSH2 0x40A DUP3 SWAP7 PUSH1 0x40 MLOAD SWAP9 DUP10 SWAP8 DUP9 SWAP7 DUP8 SWAP6 PUSH4 0xA7226527 PUSH1 0xE0 SHL DUP8 MSTORE PUSH1 0x60 PUSH1 0x4 DUP9 ADD MSTORE PUSH1 0x64 DUP8 ADD SWAP1 PUSH2 0x2234 JUMP JUMPDEST DUP6 DUP2 SUB PUSH1 0x3 NOT ADD PUSH1 0x24 DUP8 ADD MSTORE SWAP1 PUSH2 0x2853 JUMP JUMPDEST DUP4 DUP2 SUB PUSH1 0x3 NOT ADD PUSH1 0x44 DUP6 ADD MSTORE SWAP1 PUSH2 0x28D7 JUMP JUMPDEST PUSH2 0x646 SWAP2 POP PUSH1 0x20 RETURNDATASIZE PUSH1 0x20 GT PUSH2 0x4B2 JUMPI PUSH2 0x4A4 DUP2 DUP4 PUSH2 0x21B2 JUMP JUMPDEST PUSH0 PUSH2 0x595 JUMP JUMPDEST POP CALLVALUE PUSH2 0x1BA JUMPI DUP1 PUSH2 0x65C CALLDATASIZE PUSH2 0x29ED JUMP JUMPDEST PUSH1 0x40 MLOAD PUSH4 0x95A8C58D PUSH1 0xE0 SHL DUP2 MSTORE CALLER PUSH1 0x4 DUP3 ADD MSTORE PUSH1 0x2 PUSH1 0x24 DUP3 ADD MSTORE SWAP1 SWAP2 SWAP1 PUSH1 0x20 DUP2 PUSH1 0x44 DUP2 PUSH1 0x1 PUSH1 0x1 PUSH1 0xA0 SHL SUB PUSH32 0x0 AND GAS STATICCALL DUP1 ISZERO PUSH2 0x4B9 JUMPI PUSH2 0x6C2 SWAP2 DUP6 SWAP2 PUSH2 0x781 JUMPI JUMPDEST POP PUSH2 0x2B45 JUMP JUMPDEST PUSH2 0x6CA PUSH2 0x318B JUMP JUMPDEST PUSH32 0x0 PUSH1 0x1 PUSH1 0x1 PUSH1 0xA0 SHL SUB AND SWAP2 DUP3 EXTCODESIZE ISZERO PUSH2 0x77C JUMPI PUSH2 0x71F SWAP3 DUP5 SWAP3 DUP4 PUSH1 0x40 MLOAD DUP1 SWAP7 DUP2 SWAP6 DUP3 SWAP5 PUSH4 0x5839821B PUSH1 0xE1 SHL DUP5 MSTORE PUSH1 0x4 DUP5 ADD PUSH2 0x313A JUMP JUMPDEST SUB SWAP3 GAS CALL DUP1 ISZERO PUSH2 0x1AF JUMPI PUSH2 0x767 JUMPI JUMPDEST POP PUSH1 0x40 DUP1 MLOAD CALLER DUP2 MSTORE TIMESTAMP PUSH1 0x20 DUP3 ADD MSTORE PUSH32 0xEA3BAEA71F890E421DDB5283439C0BEC01BC071DDAB39D723EEFABA200997446 SWAP2 DUP2 SWAP1 DUP2 ADD PUSH2 0x463 JUMP JUMPDEST DUP2 PUSH2 0x771 SWAP2 PUSH2 0x21B2 JUMP JUMPDEST PUSH2 0x1BA JUMPI DUP1 PUSH0 PUSH2 0x72E JUMP JUMPDEST POP POP POP REVERT JUMPDEST PUSH2 0x79A SWAP2 POP PUSH1 0x20 RETURNDATASIZE PUSH1 0x20 GT PUSH2 0x4B2 JUMPI PUSH2 0x4A4 DUP2 DUP4 PUSH2 0x21B2 JUMP JUMPDEST PUSH0 PUSH2 0x6BC JUMP JUMPDEST POP CALLVALUE PUSH2 0x1BA JUMPI DUP1 PUSH1 0x3 NOT CALLDATASIZE ADD SLT PUSH2 0x1BA JUMPI PUSH1 0x40 MLOAD PUSH32 0x0 PUSH1 0x1 PUSH1 0x1 PUSH1 0xA0 SHL SUB AND DUP2 MSTORE PUSH1 0x20 SWAP1 RETURN JUMPDEST POP CALLVALUE PUSH2 0x1BA JUMPI DUP1 PUSH2 0x7F5 CALLDATASIZE PUSH2 0x29ED JUMP JUMPDEST PUSH1 0x40 MLOAD PUSH4 0x95A8C58D PUSH1 0xE0 SHL DUP2 MSTORE CALLER PUSH1 0x4 DUP3 ADD MSTORE PUSH1 0x2 PUSH1 0x24 DUP3 ADD MSTORE SWAP1 SWAP2 SWAP1 PUSH1 0x20 DUP2 PUSH1 0x44 DUP2 PUSH1 0x1 PUSH1 0x1 PUSH1 0xA0 SHL SUB PUSH32 0x0 AND GAS STATICCALL DUP1 ISZERO PUSH2 0x4B9 JUMPI PUSH2 0x85A SWAP2 DUP6 SWAP2 PUSH2 0x781 JUMPI POP PUSH2 0x2B45 JUMP JUMPDEST PUSH2 0x862 PUSH2 0x318B JUMP JUMPDEST PUSH32 0x0 PUSH1 0x1 PUSH1 0x1 PUSH1 0xA0 SHL SUB AND SWAP2 DUP3 EXTCODESIZE ISZERO PUSH2 0x77C JUMPI PUSH2 0x71F SWAP3 DUP5 SWAP3 DUP4 PUSH1 0x40 MLOAD DUP1 SWAP7 DUP2 SWAP6 DUP3 SWAP5 PUSH4 0x9C6B1F1 PUSH1 0xE4 SHL DUP5 MSTORE PUSH1 0x4 DUP5 ADD PUSH2 0x313A JUMP JUMPDEST POP CALLVALUE PUSH2 0x1BA JUMPI DUP1 PUSH2 0x8C7 CALLDATASIZE PUSH2 0x25C2 JUMP JUMPDEST PUSH1 0x40 MLOAD PUSH4 0x95A8C58D PUSH1 0xE0 SHL DUP2 MSTORE CALLER PUSH1 0x4 DUP3 ADD MSTORE PUSH1 0x2 PUSH1 0x24 DUP3 ADD MSTORE SWAP4 SWAP6 SWAP2 SWAP5 SWAP1 SWAP4 SWAP2 SWAP3 SWAP1 SWAP2 PUSH1 0x20 DUP2 PUSH1 0x44 DUP2 PUSH1 0x1 PUSH1 0x1 PUSH1 0xA0 SHL SUB PUSH32 0x0 AND GAS STATICCALL DUP1 ISZERO PUSH2 0x4B9 JUMPI PUSH2 0x933 SWAP2 DUP6 SWAP2 PUSH2 0x781 JUMPI POP PUSH2 0x2B45 JUMP JUMPDEST PUSH2 0x93B PUSH2 0x318B JUMP JUMPDEST PUSH32 0x0 PUSH1 0x1 PUSH1 0x1 PUSH1 0xA0 SHL SUB AND SWAP1 DUP2 EXTCODESIZE ISZERO PUSH2 0x9F0 JUMPI DUP4 SWAP2 DUP7 SWAP2 DUP4 DUP10 PUSH2 0x995 PUSH1 0x40 MLOAD SWAP8 DUP9 SWAP7 DUP8 SWAP6 DUP7 SWAP5 PUSH4 0xE462DDE5 PUSH1 0xE0 SHL DUP7 MSTORE CALLER SWAP4 PUSH1 0x4 DUP8 ADD PUSH2 0x2C4E JUMP JUMPDEST SUB SWAP3 GAS CALL DUP1 ISZERO PUSH2 0x1AF JUMPI PUSH2 0x9DB JUMPI JUMPDEST POP POP PUSH2 0x463 PUSH32 0xA4A4ED86DCE7C96C7821A45FBBE8394915281A2A2FA758AB0465B199C571ABFB SWAP4 PUSH1 0x40 MLOAD SWAP4 DUP5 SWAP4 TIMESTAMP SWAP2 CALLER SWAP1 DUP7 PUSH2 0x2CAC JUMP JUMPDEST DUP2 PUSH2 0x9E5 SWAP2 PUSH2 0x21B2 JUMP JUMPDEST PUSH2 0x9F0 JUMPI DUP4 PUSH0 PUSH2 0x9A4 JUMP JUMPDEST DUP4 DUP1 REVERT JUMPDEST POP CALLVALUE PUSH2 0x1BA JUMPI PUSH1 0x40 CALLDATASIZE PUSH1 0x3 NOT ADD SLT PUSH2 0x1BA JUMPI DUP1 PUSH1 0x4 CALLDATALOAD PUSH1 0x1 PUSH1 0x1 PUSH1 0x40 SHL SUB DUP2 GT PUSH2 0xB61 JUMPI PUSH2 0xA26 SWAP1 CALLDATASIZE SWAP1 PUSH1 0x4 ADD PUSH2 0x21EE JUMP JUMPDEST PUSH1 0x40 MLOAD PUSH4 0x95A8C58D PUSH1 0xE0 SHL DUP2 MSTORE CALLER PUSH1 0x4 DUP3 ADD MSTORE PUSH1 0x1 PUSH1 0x24 DUP3 ADD MSTORE PUSH1 0x20 DUP2 PUSH1 0x44 DUP2 PUSH1 0x1 PUSH1 0x1 PUSH1 0xA0 SHL SUB PUSH32 0x0 AND GAS STATICCALL DUP1 ISZERO PUSH2 0xB56 JUMPI PUSH2 0xA88 SWAP2 DUP5 SWAP2 PUSH2 0x62D JUMPI POP PUSH2 0x2ABA JUMP JUMPDEST PUSH2 0xA90 PUSH2 0x318B JUMP JUMPDEST PUSH32 0x0 PUSH1 0x1 PUSH1 0x1 PUSH1 0xA0 SHL SUB AND DUP1 EXTCODESIZE ISZERO PUSH2 0xB52 JUMPI PUSH2 0xAED DUP4 SWAP3 SWAP2 DUP4 SWAP3 PUSH1 0x40 MLOAD SWAP5 DUP6 DUP1 SWAP5 DUP2 SWAP4 PUSH4 0x49DB9DD1 PUSH1 0xE1 SHL DUP4 MSTORE PUSH1 0x40 PUSH1 0x4 DUP5 ADD MSTORE PUSH1 0x44 DUP4 ADD SWAP1 PUSH2 0x2234 JUMP JUMPDEST PUSH1 0x24 CALLDATALOAD PUSH1 0x24 DUP4 ADD MSTORE SUB SWAP3 GAS CALL DUP1 ISZERO PUSH2 0x1AF JUMPI PUSH2 0xB3D JUMPI JUMPDEST POP PUSH1 0x40 DUP1 MLOAD CALLER DUP2 MSTORE TIMESTAMP PUSH1 0x20 DUP3 ADD MSTORE PUSH32 0x31F768961BF7D66FE1E61D4671B3CC2AA12B4DCAB0587881C83F78C4E9FFA0D4 SWAP2 DUP2 SWAP1 DUP2 ADD PUSH2 0x463 JUMP JUMPDEST DUP2 PUSH2 0xB47 SWAP2 PUSH2 0x21B2 JUMP JUMPDEST PUSH2 0x1BA JUMPI DUP1 PUSH0 PUSH2 0xB04 JUMP JUMPDEST POP POP REVERT JUMPDEST PUSH1 0x40 MLOAD RETURNDATASIZE DUP6 DUP3 RETURNDATACOPY RETURNDATASIZE SWAP1 REVERT JUMPDEST POP REVERT JUMPDEST POP CALLVALUE PUSH2 0x1BA JUMPI PUSH1 0xA0 CALLDATASIZE PUSH1 0x3 NOT ADD SLT PUSH2 0x1BA JUMPI PUSH1 0x4 CALLDATALOAD PUSH1 0x1 PUSH1 0x1 PUSH1 0x40 SHL SUB DUP2 GT PUSH2 0x482 JUMPI PUSH2 0xB95 SWAP1 CALLDATASIZE SWAP1 PUSH1 0x4 ADD PUSH2 0x226C JUMP JUMPDEST PUSH2 0xB9D PUSH2 0x2302 JUMP JUMPDEST DUP3 PUSH1 0x44 CALLDATALOAD PUSH1 0x1 PUSH1 0x1 PUSH1 0x40 SHL SUB DUP2 GT PUSH2 0x482 JUMPI PUSH2 0xBBD SWAP1 CALLDATASIZE SWAP1 PUSH1 0x4 ADD PUSH2 0x21EE JUMP JUMPDEST SWAP3 PUSH1 0x64 CALLDATALOAD PUSH1 0x1 PUSH1 0x1 PUSH1 0x40 SHL SUB DUP2 GT PUSH2 0x4C4 JUMPI PUSH2 0xBDD SWAP1 CALLDATASIZE SWAP1 PUSH1 0x4 ADD PUSH2 0x296F JUMP JUMPDEST PUSH1 0x84 CALLDATALOAD PUSH1 0x1 PUSH1 0x1 PUSH1 0x40 SHL SUB DUP2 GT PUSH2 0x9F0 JUMPI PUSH2 0xBFC SWAP1 CALLDATASIZE SWAP1 PUSH1 0x4 ADD PUSH2 0x2312 JUMP JUMPDEST PUSH1 0x40 MLOAD PUSH4 0x95A8C58D PUSH1 0xE0 SHL DUP2 MSTORE CALLER PUSH1 0x4 DUP3 ADD MSTORE PUSH0 PUSH1 0x24 DUP3 ADD MSTORE SWAP1 SWAP3 SWAP1 PUSH1 0x20 DUP2 PUSH1 0x44 DUP2 PUSH1 0x1 PUSH1 0x1 PUSH1 0xA0 SHL SUB PUSH32 0x0 AND GAS STATICCALL DUP1 ISZERO PUSH2 0xDBF JUMPI PUSH2 0xC60 SWAP2 DUP7 SWAP2 PUSH2 0x48A JUMPI POP PUSH2 0x2CF1 JUMP JUMPDEST PUSH2 0xC68 PUSH2 0x318B JUMP JUMPDEST DUP1 MLOAD PUSH1 0x20 DUP3 ADD MLOAD PUSH1 0x40 DUP4 ADD DUP1 MLOAD PUSH1 0x60 SWAP1 SWAP5 ADD MLOAD SWAP1 SWAP9 PUSH1 0x1 PUSH1 0x1 PUSH1 0xA0 SHL SUB SWAP2 DUP3 AND SWAP7 PUSH32 0x0 SWAP1 SWAP3 AND SWAP4 SWAP1 SWAP2 DUP5 EXTCODESIZE ISZERO PUSH2 0xDBB JUMPI DUP9 SWAP7 DUP8 SWAP4 PUSH1 0x40 MLOAD SWAP10 DUP11 SWAP9 DUP10 SWAP8 DUP9 SWAP7 PUSH4 0x64B409FF PUSH1 0xE0 SHL DUP9 MSTORE PUSH1 0x4 DUP9 ADD PUSH2 0x100 SWAP1 MSTORE PUSH2 0x104 DUP9 ADD PUSH2 0xCE6 SWAP2 PUSH2 0x2234 JUMP JUMPDEST DUP8 DUP2 SUB PUSH1 0x3 NOT ADD PUSH1 0x24 DUP10 ADD MSTORE PUSH2 0xCFB SWAP2 PUSH2 0x2234 JUMP JUMPDEST DUP7 DUP2 SUB PUSH1 0x3 NOT ADD PUSH1 0x44 DUP9 ADD MSTORE PUSH2 0xD10 SWAP2 PUSH2 0x2234 JUMP JUMPDEST SWAP1 PUSH1 0x64 DUP7 ADD MSTORE PUSH1 0xFF DUP14 AND PUSH1 0x84 DUP7 ADD MSTORE PUSH1 0x3 NOT DUP6 DUP3 SUB ADD PUSH1 0xA4 DUP7 ADD MSTORE PUSH2 0xD34 SWAP2 PUSH2 0x2234 JUMP JUMPDEST DUP4 DUP2 SUB PUSH1 0x3 NOT ADD PUSH1 0xC4 DUP6 ADD MSTORE PUSH2 0xD49 SWAP2 PUSH2 0x2826 JUMP JUMPDEST DUP3 DUP2 SUB PUSH1 0x3 NOT ADD PUSH1 0xE4 DUP5 ADD MSTORE PUSH2 0xD5E SWAP2 PUSH2 0x2853 JUMP JUMPDEST SUB SWAP3 GAS CALL DUP1 ISZERO PUSH2 0x1AF JUMPI PUSH2 0xDA6 JUMPI JUMPDEST POP POP PUSH32 0xF52A0795D3C1A788D33423AA105BE7A0AAA157621A984632251E0C2ED142D040 SWAP2 MLOAD SWAP1 PUSH2 0x463 PUSH1 0x40 MLOAD SWAP3 DUP4 SWAP3 TIMESTAMP SWAP2 CALLER SWAP1 DUP6 PUSH2 0x2B10 JUMP JUMPDEST DUP2 PUSH2 0xDB0 SWAP2 PUSH2 0x21B2 JUMP JUMPDEST PUSH2 0x4C4 JUMPI DUP3 PUSH0 PUSH2 0xD6D JUMP JUMPDEST DUP9 DUP1 REVERT JUMPDEST PUSH1 0x40 MLOAD RETURNDATASIZE DUP8 DUP3 RETURNDATACOPY RETURNDATASIZE SWAP1 REVERT JUMPDEST POP CALLVALUE PUSH2 0x1BA JUMPI PUSH1 0x20 CALLDATASIZE PUSH1 0x3 NOT ADD SLT PUSH2 0x1BA JUMPI PUSH1 0x4 CALLDATALOAD PUSH1 0x1 PUSH1 0x1 PUSH1 0x40 SHL SUB DUP2 GT PUSH2 0x482 JUMPI PUSH2 0xDFB SWAP1 CALLDATASIZE SWAP1 PUSH1 0x4 ADD PUSH2 0x21EE JUMP JUMPDEST PUSH2 0xE03 PUSH2 0x2EF6 JUMP JUMPDEST POP PUSH2 0xE0C PUSH2 0x2ED6 JUMP JUMPDEST POP PUSH2 0xE15 PUSH2 0x2F55 JUMP JUMPDEST POP PUSH1 0x60 PUSH1 0xE0 PUSH1 0x40 MLOAD PUSH2 0xE26 DUP2 PUSH2 0x215F JUMP JUMPDEST DUP3 DUP2 MSTORE DUP3 PUSH1 0x20 DUP3 ADD MSTORE DUP3 PUSH1 0x40 DUP3 ADD MSTORE DUP3 DUP1 DUP3 ADD MSTORE DUP3 PUSH1 0x80 DUP3 ADD MSTORE DUP3 PUSH1 0xA0 DUP3 ADD MSTORE DUP3 PUSH1 0xC0 DUP3 ADD MSTORE ADD MSTORE PUSH1 0x1 DUP1 PUSH1 0xA0 SHL SUB PUSH32 0x0 AND PUSH1 0x40 MLOAD SWAP1 PUSH4 0x7E8F8DA7 PUSH1 0xE0 SHL DUP3 MSTORE PUSH1 0x20 PUSH1 0x4 DUP4 ADD MSTORE DUP4 DUP3 DUP1 PUSH2 0xE9C PUSH1 0x24 DUP3 ADD DUP8 PUSH2 0x2234 JUMP JUMPDEST SUB DUP2 DUP5 GAS STATICCALL SWAP1 DUP2 ISZERO PUSH2 0x4B9 JUMPI DUP5 DUP1 SWAP2 DUP2 SWAP5 DUP3 SWAP5 PUSH2 0xF98 JUMPI JUMPDEST POP SWAP5 PUSH2 0xEDE SWAP5 SWAP6 PUSH1 0x40 MLOAD DUP1 DUP1 SWAP8 DUP2 SWAP5 PUSH4 0xBE2E2325 PUSH1 0xE0 SHL DUP4 MSTORE PUSH1 0x20 PUSH1 0x4 DUP5 ADD MSTORE PUSH1 0x24 DUP4 ADD SWAP1 PUSH2 0x2234 JUMP JUMPDEST SUB SWAP2 GAS STATICCALL SWAP3 DUP4 ISZERO PUSH2 0xDBF JUMPI DUP6 PUSH2 0xF13 SWAP7 SWAP5 PUSH2 0xF6A JUMPI JUMPDEST POP POP PUSH2 0xF5C SWAP1 PUSH2 0x188 SWAP4 SWAP5 PUSH1 0x40 MLOAD SWAP7 DUP8 SWAP7 PUSH1 0x80 DUP9 MSTORE PUSH1 0x80 DUP9 ADD SWAP1 PUSH2 0x2785 JUMP JUMPDEST DUP7 DUP2 SUB PUSH1 0x20 DUP9 ADD MSTORE PUSH1 0x40 PUSH1 0xFF DUP2 PUSH2 0xF48 PUSH2 0xF36 DUP8 MLOAD PUSH1 0x60 DUP8 MSTORE PUSH1 0x60 DUP8 ADD SWAP1 PUSH2 0x2234 JUMP JUMPDEST PUSH1 0x20 DUP9 ADD MLOAD DUP7 DUP3 SUB PUSH1 0x20 DUP9 ADD MSTORE PUSH2 0x2234 JUMP JUMPDEST SWAP6 ADD MLOAD AND SWAP2 ADD MSTORE DUP6 DUP3 SUB PUSH1 0x40 DUP8 ADD MSTORE PUSH2 0x2853 JUMP JUMPDEST SWAP1 DUP4 DUP3 SUB PUSH1 0x60 DUP6 ADD MSTORE PUSH2 0x28D7 JUMP JUMPDEST PUSH2 0x188 SWAP5 POP PUSH2 0xF5C SWAP3 SWAP2 PUSH2 0xF8F SWAP2 RETURNDATASIZE DUP1 SWAP2 DUP4 RETURNDATACOPY PUSH2 0xF87 DUP2 DUP4 PUSH2 0x21B2 JUMP JUMPDEST DUP2 ADD SWAP1 PUSH2 0x3040 JUMP JUMPDEST SWAP4 DUP2 SWAP3 POP PUSH2 0xEF4 JUMP JUMPDEST SWAP5 POP SWAP3 POP POP POP RETURNDATASIZE DUP1 DUP6 DUP5 RETURNDATACOPY PUSH2 0xFAD DUP2 DUP5 PUSH2 0x21B2 JUMP JUMPDEST DUP3 ADD SWAP2 PUSH1 0x60 DUP2 DUP5 SUB SLT PUSH2 0x486 JUMPI DUP5 DUP2 MLOAD PUSH1 0x1 PUSH1 0x1 PUSH1 0x40 SHL SUB DUP2 GT PUSH2 0x482 JUMPI DUP3 ADD SWAP5 PUSH1 0x60 DUP7 DUP7 SUB SLT PUSH2 0x482 JUMPI PUSH1 0x40 MLOAD SWAP6 PUSH2 0xFE5 DUP8 PUSH2 0x2144 JUMP JUMPDEST DUP1 MLOAD PUSH1 0x1 PUSH1 0x1 PUSH1 0x40 SHL SUB DUP2 GT PUSH2 0x9F0 JUMPI DUP7 PUSH2 0x1001 SWAP2 DUP4 ADD PUSH2 0x2A37 JUMP JUMPDEST DUP8 MSTORE PUSH1 0x20 DUP2 ADD MLOAD PUSH1 0x1 PUSH1 0x1 PUSH1 0x40 SHL SUB DUP2 GT PUSH2 0x9F0 JUMPI DUP2 PUSH2 0x1028 DUP9 PUSH1 0x40 SWAP4 PUSH2 0x1033 SWAP6 ADD PUSH2 0x2A37 JUMP JUMPDEST PUSH1 0x20 DUP11 ADD MSTORE ADD PUSH2 0x2D4B JUMP JUMPDEST PUSH1 0x40 DUP8 ADD MSTORE PUSH1 0x20 DUP4 ADD MLOAD PUSH1 0x1 PUSH1 0x1 PUSH1 0x40 SHL SUB DUP2 GT PUSH2 0x4C4 JUMPI DUP6 PUSH2 0x1057 SWAP2 DUP6 ADD PUSH2 0x2F6E JUMP JUMPDEST SWAP3 PUSH1 0x40 DUP2 ADD MLOAD SWAP1 PUSH1 0x1 PUSH1 0x1 PUSH1 0x40 SHL SUB DUP3 GT PUSH2 0x9F0 JUMPI ADD SWAP6 PUSH2 0x100 DUP8 DUP8 SUB SLT PUSH2 0x4C4 JUMPI PUSH1 0x40 MLOAD SWAP7 PUSH2 0x1086 DUP9 PUSH2 0x215F JUMP JUMPDEST DUP1 MLOAD PUSH1 0x1 PUSH1 0x1 PUSH1 0x40 SHL SUB DUP2 GT PUSH2 0x486 JUMPI DUP8 PUSH2 0x10A2 SWAP2 DUP4 ADD PUSH2 0x2A37 JUMP JUMPDEST DUP9 MSTORE PUSH1 0x20 DUP2 ADD MLOAD PUSH1 0x1 PUSH1 0x1 PUSH1 0x40 SHL SUB DUP2 GT PUSH2 0x486 JUMPI DUP8 PUSH2 0x10C3 SWAP2 DUP4 ADD PUSH2 0x2A37 JUMP JUMPDEST PUSH1 0x20 DUP10 ADD MSTORE PUSH1 0x40 DUP2 ADD MLOAD PUSH1 0x1 PUSH1 0x1 PUSH1 0x40 SHL SUB DUP2 GT PUSH2 0x486 JUMPI DUP8 PUSH2 0x10E7 SWAP2 DUP4 ADD PUSH2 0x2A37 JUMP JUMPDEST PUSH1 0x40 DUP10 ADD MSTORE PUSH1 0x60 DUP2 ADD MLOAD PUSH1 0x1 PUSH1 0x1 PUSH1 0x40 SHL SUB DUP2 GT PUSH2 0x486 JUMPI DUP8 PUSH2 0x110B SWAP2 DUP4 ADD PUSH2 0x2A37 JUMP JUMPDEST PUSH1 0x60 DUP10 ADD MSTORE PUSH1 0x80 DUP2 ADD MLOAD PUSH1 0x1 PUSH1 0x1 PUSH1 0x40 SHL SUB DUP2 GT PUSH2 0x486 JUMPI DUP8 PUSH2 0x112F SWAP2 DUP4 ADD PUSH2 0x2A37 JUMP JUMPDEST PUSH1 0x80 DUP10 ADD MSTORE PUSH1 0xA0 DUP2 ADD MLOAD PUSH1 0x1 PUSH1 0x1 PUSH1 0x40 SHL SUB DUP2 GT PUSH2 0x486 JUMPI DUP8 PUSH2 0x1153 SWAP2 DUP4 ADD PUSH2 0x2A37 JUMP JUMPDEST PUSH1 0xA0 DUP10 ADD MSTORE PUSH1 0xC0 DUP2 ADD MLOAD PUSH1 0x1 PUSH1 0x1 PUSH1 0x40 SHL SUB DUP2 GT PUSH2 0x486 JUMPI DUP8 PUSH2 0x1177 SWAP2 DUP4 ADD PUSH2 0x2A37 JUMP JUMPDEST PUSH1 0xC0 DUP10 ADD MSTORE PUSH1 0xE0 DUP2 ADD MLOAD SWAP7 PUSH1 0x1 PUSH1 0x1 PUSH1 0x40 SHL SUB DUP9 GT PUSH2 0x486 JUMPI PUSH2 0xEDE SWAP8 PUSH2 0x119E SWAP3 ADD PUSH2 0x2A37 JUMP JUMPDEST PUSH1 0xE0 DUP9 ADD MSTORE SWAP3 SWAP6 SWAP4 SWAP1 SWAP6 SWAP5 PUSH2 0xEB4 JUMP JUMPDEST POP CALLVALUE PUSH2 0x1BA JUMPI PUSH1 0x20 CALLDATASIZE PUSH1 0x3 NOT ADD SLT PUSH2 0x1BA JUMPI PUSH1 0x4 CALLDATALOAD PUSH1 0x1 PUSH1 0x1 PUSH1 0x40 SHL SUB DUP2 GT PUSH2 0x482 JUMPI PUSH2 0x11DF SWAP1 CALLDATASIZE SWAP1 PUSH1 0x4 ADD PUSH2 0x21EE JUMP JUMPDEST PUSH2 0x11E7 PUSH2 0x2EF6 JUMP JUMPDEST POP PUSH1 0x60 DUP1 PUSH1 0x40 MLOAD PUSH2 0x11F7 DUP2 PUSH2 0x2129 JUMP JUMPDEST DUP2 DUP2 MSTORE DUP2 PUSH1 0x20 DUP3 ADD MSTORE DUP5 PUSH1 0x40 DUP3 ADD MSTORE ADD MSTORE PUSH1 0x60 PUSH1 0x40 DUP1 MLOAD PUSH2 0x1217 DUP2 PUSH2 0x2144 JUMP JUMPDEST DUP3 DUP2 MSTORE DUP3 PUSH1 0x20 DUP3 ADD MSTORE ADD MSTORE PUSH2 0x122A PUSH2 0x2F55 JUMP JUMPDEST POP PUSH1 0x60 PUSH1 0xA0 PUSH1 0x40 MLOAD PUSH2 0x123B DUP2 PUSH2 0x20FA JUMP JUMPDEST DUP3 DUP2 MSTORE DUP3 PUSH1 0x20 DUP3 ADD MSTORE DUP3 PUSH1 0x40 DUP3 ADD MSTORE DUP3 DUP1 DUP3 ADD MSTORE DUP3 PUSH1 0x80 DUP3 ADD MSTORE ADD MSTORE PUSH1 0x1 DUP1 PUSH1 0xA0 SHL SUB PUSH32 0x0 AND PUSH1 0x40 MLOAD PUSH4 0x70C056B PUSH1 0xE4 SHL DUP2 MSTORE PUSH1 0x20 PUSH1 0x4 DUP3 ADD MSTORE DUP4 DUP2 DUP1 PUSH2 0x12A4 PUSH1 0x24 DUP3 ADD DUP8 PUSH2 0x2234 JUMP JUMPDEST SUB DUP2 DUP6 GAS STATICCALL SWAP1 DUP2 ISZERO PUSH2 0x4B9 JUMPI DUP5 SWAP3 DUP6 DUP1 SWAP2 DUP2 SWAP4 DUP3 SWAP6 PUSH2 0x13D7 JUMPI JUMPDEST POP SWAP6 PUSH2 0x12E8 SWAP6 SWAP7 PUSH1 0x40 MLOAD DUP1 DUP1 SWAP9 DUP2 SWAP5 PUSH4 0xBE2E2325 PUSH1 0xE0 SHL DUP4 MSTORE PUSH1 0x20 PUSH1 0x4 DUP5 ADD MSTORE PUSH1 0x24 DUP4 ADD SWAP1 PUSH2 0x2234 JUMP JUMPDEST SUB SWAP2 GAS STATICCALL SWAP4 DUP5 ISZERO PUSH2 0x13CC JUMPI DUP7 PUSH2 0x1324 SWAP8 SWAP6 PUSH2 0x139E JUMPI JUMPDEST POP POP SWAP1 PUSH2 0x1382 PUSH2 0x1390 SWAP3 PUSH2 0x1374 PUSH2 0x188 SWAP7 SWAP8 PUSH1 0x40 MLOAD SWAP10 DUP11 SWAP10 PUSH1 0xA0 DUP12 MSTORE PUSH1 0xA0 DUP12 ADD SWAP1 PUSH2 0x2785 JUMP JUMPDEST DUP10 DUP2 SUB PUSH1 0x20 DUP12 ADD MSTORE PUSH1 0x60 PUSH2 0x1356 PUSH2 0x1344 DUP5 MLOAD PUSH1 0x80 DUP6 MSTORE PUSH1 0x80 DUP6 ADD SWAP1 PUSH2 0x2234 JUMP JUMPDEST PUSH1 0x20 DUP6 ADD MLOAD DUP5 DUP3 SUB PUSH1 0x20 DUP7 ADD MSTORE PUSH2 0x2234 JUMP JUMPDEST SWAP3 PUSH1 0xFF PUSH1 0x40 DUP3 ADD MLOAD AND PUSH1 0x40 DUP5 ADD MSTORE ADD MLOAD SWAP1 PUSH1 0x60 DUP2 DUP5 SUB SWAP2 ADD MSTORE PUSH2 0x2234 JUMP JUMPDEST SWAP1 DUP8 DUP3 SUB PUSH1 0x40 DUP10 ADD MSTORE PUSH2 0x2826 JUMP JUMPDEST SWAP1 DUP6 DUP3 SUB PUSH1 0x60 DUP8 ADD MSTORE PUSH2 0x2853 JUMP JUMPDEST SWAP1 DUP4 DUP3 SUB PUSH1 0x80 DUP6 ADD MSTORE PUSH2 0x287D JUMP JUMPDEST PUSH2 0x188 SWAP6 POP SWAP2 PUSH2 0x1374 PUSH2 0x13C2 PUSH2 0x1382 SWAP4 PUSH2 0x1390 SWAP7 SWAP6 RETURNDATASIZE DUP1 SWAP2 DUP4 RETURNDATACOPY PUSH2 0xF87 DUP2 DUP4 PUSH2 0x21B2 JUMP JUMPDEST SWAP7 POP POP SWAP2 SWAP3 PUSH2 0x12FE JUMP JUMPDEST PUSH1 0x40 MLOAD RETURNDATASIZE DUP9 DUP3 RETURNDATACOPY RETURNDATASIZE SWAP1 REVERT JUMPDEST SWAP6 POP SWAP4 POP POP POP POP RETURNDATASIZE DUP1 DUP6 DUP5 RETURNDATACOPY PUSH2 0x13ED DUP2 DUP5 PUSH2 0x21B2 JUMP JUMPDEST DUP3 ADD SWAP2 PUSH1 0x80 DUP2 DUP5 SUB SLT PUSH2 0x486 JUMPI DUP1 MLOAD PUSH1 0x1 PUSH1 0x1 PUSH1 0x40 SHL SUB DUP2 GT PUSH2 0x1663 JUMPI DUP2 ADD SWAP1 PUSH1 0x80 DUP3 DUP6 SUB SLT PUSH2 0x1663 JUMPI PUSH1 0x40 MLOAD SWAP2 PUSH2 0x1424 DUP4 PUSH2 0x2129 JUMP JUMPDEST DUP1 MLOAD PUSH1 0x1 PUSH1 0x1 PUSH1 0x40 SHL SUB DUP2 GT PUSH2 0x165F JUMPI DUP6 PUSH2 0x1440 SWAP2 DUP4 ADD PUSH2 0x2A37 JUMP JUMPDEST DUP4 MSTORE PUSH1 0x20 DUP2 ADD MLOAD PUSH1 0x1 PUSH1 0x1 PUSH1 0x40 SHL SUB DUP2 GT PUSH2 0x165F JUMPI DUP6 PUSH2 0x1461 SWAP2 DUP4 ADD PUSH2 0x2A37 JUMP JUMPDEST PUSH1 0x20 DUP5 ADD MSTORE PUSH2 0x1472 PUSH1 0x40 DUP3 ADD PUSH2 0x2D4B JUMP JUMPDEST PUSH1 0x40 DUP5 ADD MSTORE PUSH1 0x60 DUP2 ADD MLOAD SWAP1 PUSH1 0x1 PUSH1 0x1 PUSH1 0x40 SHL SUB DUP3 GT PUSH2 0x165F JUMPI PUSH2 0x1497 SWAP2 DUP7 SWAP2 ADD PUSH2 0x2A37 JUMP JUMPDEST PUSH1 0x60 DUP4 ADD MSTORE DUP6 PUSH1 0x20 DUP3 ADD MLOAD PUSH1 0x1 PUSH1 0x1 PUSH1 0x40 SHL SUB DUP2 GT PUSH2 0x482 JUMPI DUP3 ADD SWAP6 PUSH1 0x60 DUP8 DUP8 SUB SLT PUSH2 0x482 JUMPI PUSH1 0x40 MLOAD SWAP7 PUSH2 0x14CA DUP9 PUSH2 0x2144 JUMP JUMPDEST DUP1 MLOAD PUSH1 0x1 PUSH1 0x1 PUSH1 0x40 SHL SUB DUP2 GT PUSH2 0x9F0 JUMPI DUP8 PUSH2 0x14E6 SWAP2 DUP4 ADD PUSH2 0x2A37 JUMP JUMPDEST DUP9 MSTORE PUSH1 0x20 DUP2 ADD MLOAD PUSH1 0x1 PUSH1 0x1 PUSH1 0x40 SHL SUB DUP2 GT PUSH2 0x9F0 JUMPI DUP8 PUSH2 0x1507 SWAP2 DUP4 ADD PUSH2 0x2A37 JUMP JUMPDEST PUSH1 0x20 DUP10 ADD MSTORE PUSH1 0x40 DUP2 ADD MLOAD SWAP1 PUSH1 0x1 PUSH1 0x1 PUSH1 0x40 SHL SUB DUP3 GT PUSH2 0x9F0 JUMPI PUSH2 0x152C SWAP2 DUP9 SWAP2 ADD PUSH2 0x2A37 JUMP JUMPDEST PUSH1 0x40 DUP9 ADD MSTORE PUSH1 0x40 DUP4 ADD MLOAD PUSH1 0x1 PUSH1 0x1 PUSH1 0x40 SHL SUB DUP2 GT PUSH2 0x4C4 JUMPI DUP7 PUSH2 0x1550 SWAP2 DUP6 ADD PUSH2 0x2F6E JUMP JUMPDEST SWAP3 PUSH1 0x60 DUP2 ADD MLOAD SWAP1 PUSH1 0x1 PUSH1 0x1 PUSH1 0x40 SHL SUB DUP3 GT PUSH2 0x9F0 JUMPI ADD SWAP4 PUSH1 0xC0 DUP6 DUP9 SUB SLT PUSH2 0x4C4 JUMPI PUSH1 0x40 MLOAD SWAP5 PUSH2 0x157E DUP7 PUSH2 0x20FA JUMP JUMPDEST DUP1 MLOAD PUSH1 0x1 PUSH1 0x1 PUSH1 0x40 SHL SUB DUP2 GT PUSH2 0x486 JUMPI DUP9 PUSH2 0x159A SWAP2 DUP4 ADD PUSH2 0x2A37 JUMP JUMPDEST DUP7 MSTORE PUSH1 0x20 DUP2 ADD MLOAD PUSH1 0x1 PUSH1 0x1 PUSH1 0x40 SHL SUB DUP2 GT PUSH2 0x486 JUMPI DUP9 PUSH2 0x15BB SWAP2 DUP4 ADD PUSH2 0x2A37 JUMP JUMPDEST PUSH1 0x20 DUP8 ADD MSTORE PUSH1 0x40 DUP2 ADD MLOAD PUSH1 0x1 PUSH1 0x1 PUSH1 0x40 SHL SUB DUP2 GT PUSH2 0x486 JUMPI DUP9 PUSH2 0x15DF SWAP2 DUP4 ADD PUSH2 0x2A37 JUMP JUMPDEST PUSH1 0x40 DUP8 ADD MSTORE PUSH1 0x60 DUP2 ADD MLOAD PUSH1 0x1 PUSH1 0x1 PUSH1 0x40 SHL SUB DUP2 GT PUSH2 0x486 JUMPI DUP9 PUSH2 0x1603 SWAP2 DUP4 ADD PUSH2 0x2A37 JUMP JUMPDEST PUSH1 0x60 DUP8 ADD MSTORE PUSH1 0x80 DUP2 ADD MLOAD PUSH1 0x1 PUSH1 0x1 PUSH1 0x40 SHL SUB DUP2 GT PUSH2 0x486 JUMPI DUP9 PUSH2 0x1627 SWAP2 DUP4 ADD PUSH2 0x2A37 JUMP JUMPDEST PUSH1 0x80 DUP8 ADD MSTORE PUSH1 0xA0 DUP2 ADD MLOAD SWAP8 PUSH1 0x1 PUSH1 0x1 PUSH1 0x40 SHL SUB DUP10 GT PUSH2 0x486 JUMPI PUSH2 0x12E8 SWAP9 PUSH2 0x164E SWAP3 ADD PUSH2 0x2A37 JUMP JUMPDEST PUSH1 0xA0 DUP7 ADD MSTORE SWAP7 SWAP3 SWAP4 SWAP5 SWAP1 SWAP7 SWAP6 PUSH2 0x12BE JUMP JUMPDEST DUP8 DUP1 REVERT JUMPDEST DUP6 DUP1 REVERT JUMPDEST POP CALLVALUE PUSH2 0x1BA JUMPI DUP1 PUSH1 0x3 NOT CALLDATASIZE ADD SLT PUSH2 0x1BA JUMPI PUSH1 0x40 MLOAD PUSH4 0x1614181F PUSH1 0xE2 SHL DUP2 MSTORE DUP2 DUP2 PUSH1 0x4 DUP2 PUSH32 0x0 PUSH1 0x1 PUSH1 0x1 PUSH1 0xA0 SHL SUB AND GAS STATICCALL SWAP1 DUP2 ISZERO PUSH2 0x1AF JUMPI DUP3 PUSH2 0x188 SWAP4 SWAP3 PUSH2 0x18C JUMPI POP POP PUSH1 0x40 MLOAD SWAP2 DUP3 SWAP2 DUP3 PUSH2 0x26FA JUMP JUMPDEST POP CALLVALUE PUSH2 0x1BA JUMPI PUSH1 0x20 CALLDATASIZE PUSH1 0x3 NOT ADD SLT PUSH2 0x1BA JUMPI PUSH1 0x4 CALLDATALOAD DUP2 PUSH1 0x1 PUSH1 0x1 PUSH1 0x40 SHL SUB DUP3 GT PUSH2 0x1BA JUMPI PUSH2 0x170A PUSH2 0x172C SWAP3 CALLDATASIZE SWAP1 PUSH1 0x4 ADD PUSH2 0x21EE JUMP JUMPDEST PUSH1 0x40 MLOAD DUP1 SWAP4 DUP2 SWAP3 PUSH4 0x81FC60A5 PUSH1 0xE0 SHL DUP4 MSTORE PUSH1 0x20 PUSH1 0x4 DUP5 ADD MSTORE PUSH1 0x24 DUP4 ADD SWAP1 PUSH2 0x2234 JUMP JUMPDEST SUB DUP2 PUSH32 0x0 PUSH1 0x1 PUSH1 0x1 PUSH1 0xA0 SHL SUB AND GAS STATICCALL SWAP1 DUP2 ISZERO PUSH2 0x1AF JUMPI DUP3 PUSH2 0x188 SWAP4 SWAP3 PUSH2 0x18C JUMPI POP POP PUSH1 0x40 MLOAD SWAP2 DUP3 SWAP2 DUP3 PUSH2 0x26FA JUMP JUMPDEST POP CALLVALUE PUSH2 0x1BA JUMPI PUSH2 0x1788 CALLDATASIZE PUSH2 0x249F JUMP JUMPDEST PUSH1 0x40 MLOAD PUSH4 0x95A8C58D PUSH1 0xE0 SHL DUP2 MSTORE CALLER PUSH1 0x4 DUP3 ADD MSTORE PUSH1 0x2 PUSH1 0x24 DUP3 ADD MSTORE SWAP2 SWAP3 SWAP2 PUSH1 0x20 DUP2 PUSH1 0x44 DUP2 PUSH1 0x1 PUSH1 0x1 PUSH1 0xA0 SHL SUB PUSH32 0x0 AND GAS STATICCALL DUP1 ISZERO PUSH2 0xDBF JUMPI PUSH2 0x17ED SWAP2 DUP7 SWAP2 PUSH2 0x781 JUMPI POP PUSH2 0x2B45 JUMP JUMPDEST PUSH2 0x17F5 PUSH2 0x318B JUMP JUMPDEST DUP2 MLOAD PUSH1 0x20 DUP4 ADD MLOAD PUSH1 0x40 DUP5 ADD MLOAD PUSH1 0x60 DUP6 ADD DUP1 MLOAD PUSH1 0x80 DUP8 ADD MLOAD SWAP2 SWAP8 DUP10 SWAP6 SWAP2 SWAP5 PUSH1 0x1 PUSH1 0x1 PUSH1 0xA0 SHL SUB SWAP4 DUP5 AND SWAP5 SWAP4 PUSH32 0x0 AND SWAP3 SWAP1 SWAP2 SWAP1 DUP4 EXTCODESIZE ISZERO PUSH2 0x165F JUMPI PUSH2 0x1871 DUP9 SWAP7 SWAP3 DUP8 SWAP4 PUSH1 0x40 MLOAD SWAP10 DUP11 SWAP9 DUP10 SWAP8 DUP9 SWAP7 PUSH4 0x173C921 PUSH1 0xE7 SHL DUP9 MSTORE PUSH1 0x4 DUP9 ADD PUSH2 0x2B9C JUMP JUMPDEST SUB SWAP3 GAS CALL DUP1 ISZERO PUSH2 0x1AF JUMPI PUSH2 0x18BB JUMPI JUMPDEST POP POP PUSH2 0x463 PUSH32 0xC8C9CCC57AD2F7823680B448DD87B511B225EB0AC2E99E0AA88E7A26EBC6CBE5 SWAP4 MLOAD SWAP3 MLOAD SWAP3 PUSH1 0x40 MLOAD SWAP4 DUP5 SWAP4 TIMESTAMP SWAP3 CALLER SWAP1 DUP7 PUSH2 0x2C08 JUMP JUMPDEST DUP2 PUSH2 0x18C5 SWAP2 PUSH2 0x21B2 JUMP JUMPDEST PUSH2 0x9F0 JUMPI DUP4 PUSH0 PUSH2 0x1880 JUMP JUMPDEST POP CALLVALUE PUSH2 0x1BA JUMPI PUSH1 0x60 CALLDATASIZE PUSH1 0x3 NOT ADD SLT PUSH2 0x1BA JUMPI DUP1 PUSH1 0x4 CALLDATALOAD PUSH1 0x1 PUSH1 0x1 PUSH1 0x40 SHL SUB DUP2 GT PUSH2 0xB61 JUMPI PUSH2 0x1902 SWAP1 CALLDATASIZE SWAP1 PUSH1 0x4 ADD PUSH2 0x21EE JUMP JUMPDEST PUSH1 0x44 CALLDATALOAD SWAP1 PUSH1 0x1 PUSH1 0x1 PUSH1 0x40 SHL SUB DUP3 GT PUSH2 0xB52 JUMPI PUSH1 0xC0 PUSH1 0x3 NOT DUP4 CALLDATASIZE SUB ADD SLT PUSH2 0xB52 JUMPI PUSH1 0x40 MLOAD SWAP2 PUSH2 0x192F DUP4 PUSH2 0x20FA JUMP JUMPDEST DUP1 PUSH1 0x4 ADD CALLDATALOAD PUSH1 0x1 PUSH1 0x1 PUSH1 0x40 SHL SUB DUP2 GT PUSH2 0x486 JUMPI PUSH2 0x1952 SWAP1 PUSH1 0x4 CALLDATASIZE SWAP2 DUP5 ADD ADD PUSH2 0x21EE JUMP JUMPDEST DUP4 MSTORE PUSH1 0x24 DUP2 ADD CALLDATALOAD PUSH1 0x1 PUSH1 0x1 PUSH1 0x40 SHL SUB DUP2 GT PUSH2 0x486 JUMPI PUSH2 0x1977 SWAP1 PUSH1 0x4 CALLDATASIZE SWAP2 DUP5 ADD ADD PUSH2 0x21EE JUMP JUMPDEST PUSH1 0x20 DUP5 ADD MSTORE PUSH1 0x44 DUP2 ADD CALLDATALOAD PUSH1 0x1 PUSH1 0x1 PUSH1 0x40 SHL SUB DUP2 GT PUSH2 0x486 JUMPI PUSH2 0x199F SWAP1 PUSH1 0x4 CALLDATASIZE SWAP2 DUP5 ADD ADD PUSH2 0x21EE JUMP JUMPDEST PUSH1 0x40 DUP5 ADD MSTORE PUSH1 0x64 DUP2 ADD CALLDATALOAD PUSH1 0x1 PUSH1 0x1 PUSH1 0x40 SHL SUB DUP2 GT PUSH2 0x486 JUMPI PUSH2 0x19C7 SWAP1 PUSH1 0x4 CALLDATASIZE SWAP2 DUP5 ADD ADD PUSH2 0x21EE JUMP JUMPDEST PUSH1 0x60 DUP5 ADD MSTORE PUSH1 0x84 DUP2 ADD CALLDATALOAD PUSH1 0x1 PUSH1 0x1 PUSH1 0x40 SHL SUB DUP2 GT PUSH2 0x486 JUMPI PUSH2 0x19EF SWAP1 PUSH1 0x4 CALLDATASIZE SWAP2 DUP5 ADD ADD PUSH2 0x21EE JUMP JUMPDEST PUSH1 0x80 DUP5 ADD MSTORE PUSH1 0xA4 DUP2 ADD CALLDATALOAD SWAP1 PUSH1 0x1 PUSH1 0x1 PUSH1 0x40 SHL SUB DUP3 GT PUSH2 0x486 JUMPI PUSH1 0x4 PUSH2 0x1A17 SWAP3 CALLDATASIZE SWAP3 ADD ADD PUSH2 0x21EE JUMP JUMPDEST PUSH1 0xA0 DUP4 ADD MSTORE PUSH1 0x40 MLOAD PUSH4 0x95A8C58D PUSH1 0xE0 SHL DUP2 MSTORE CALLER PUSH1 0x4 DUP3 ADD MSTORE PUSH0 PUSH1 0x24 DUP3 ADD MSTORE PUSH1 0x20 DUP2 PUSH1 0x44 DUP2 PUSH1 0x1 PUSH1 0x1 PUSH1 0xA0 SHL SUB PUSH32 0x0 AND GAS STATICCALL DUP1 ISZERO PUSH2 0x4B9 JUMPI PUSH2 0x1A7D SWAP2 DUP6 SWAP2 PUSH2 0x48A JUMPI POP PUSH2 0x2CF1 JUMP JUMPDEST PUSH2 0x1A85 PUSH2 0x318B JUMP JUMPDEST PUSH32 0x0 PUSH1 0x1 PUSH1 0x1 PUSH1 0xA0 SHL SUB AND SWAP2 DUP3 EXTCODESIZE ISZERO PUSH2 0x77C JUMPI PUSH2 0x1B00 SWAP3 PUSH2 0x1AE6 DUP6 DUP1 SWAP5 PUSH1 0x40 MLOAD SWAP7 DUP8 SWAP6 DUP7 SWAP5 DUP6 SWAP4 PUSH4 0x12B63C69 PUSH1 0xE2 SHL DUP6 MSTORE PUSH1 0x60 PUSH1 0x4 DUP7 ADD MSTORE PUSH1 0x64 DUP6 ADD SWAP1 PUSH2 0x2234 JUMP JUMPDEST SWAP1 PUSH1 0x24 CALLDATALOAD PUSH1 0x24 DUP6 ADD MSTORE PUSH1 0x3 NOT DUP5 DUP4 SUB ADD PUSH1 0x44 DUP6 ADD MSTORE PUSH2 0x287D JUMP JUMPDEST SUB SWAP3 GAS CALL DUP1 ISZERO PUSH2 0x1AF JUMPI PUSH2 0xB3D JUMPI POP PUSH1 0x40 DUP1 MLOAD CALLER DUP2 MSTORE TIMESTAMP PUSH1 0x20 DUP3 ADD MSTORE PUSH32 0x31F768961BF7D66FE1E61D4671B3CC2AA12B4DCAB0587881C83F78C4E9FFA0D4 SWAP2 DUP2 SWAP1 DUP2 ADD PUSH2 0x463 JUMP JUMPDEST POP CALLVALUE PUSH2 0x1BA JUMPI DUP1 PUSH2 0x1B57 CALLDATASIZE PUSH2 0x25C2 JUMP JUMPDEST PUSH1 0x40 MLOAD PUSH4 0x95A8C58D PUSH1 0xE0 SHL DUP2 MSTORE CALLER PUSH1 0x4 DUP3 ADD MSTORE PUSH1 0x2 PUSH1 0x24 DUP3 ADD MSTORE SWAP4 SWAP6 SWAP2 SWAP5 SWAP1 SWAP4 SWAP2 SWAP3 SWAP1 SWAP2 PUSH1 0x20 DUP2 PUSH1 0x44 DUP2 PUSH1 0x1 PUSH1 0x1 PUSH1 0xA0 SHL SUB PUSH32 0x0 AND GAS STATICCALL DUP1 ISZERO PUSH2 0x4B9 JUMPI PUSH2 0x1BC3 SWAP2 DUP6 SWAP2 PUSH2 0x781 JUMPI POP PUSH2 0x2B45 JUMP JUMPDEST PUSH2 0x1BCB PUSH2 0x318B JUMP JUMPDEST PUSH32 0x0 PUSH1 0x1 PUSH1 0x1 PUSH1 0xA0 SHL SUB AND SWAP1 DUP2 EXTCODESIZE ISZERO PUSH2 0x9F0 JUMPI DUP4 SWAP2 DUP7 SWAP2 DUP4 DUP10 PUSH2 0x995 PUSH1 0x40 MLOAD SWAP8 DUP9 SWAP7 DUP8 SWAP6 DUP7 SWAP5 PUSH3 0x1ACF25 PUSH1 0xE8 SHL DUP7 MSTORE CALLER SWAP4 PUSH1 0x4 DUP8 ADD PUSH2 0x2C4E JUMP JUMPDEST POP CALLVALUE PUSH2 0x1BA JUMPI PUSH2 0x1C33 CALLDATASIZE PUSH2 0x249F JUMP JUMPDEST PUSH1 0x40 MLOAD PUSH4 0x95A8C58D PUSH1 0xE0 SHL DUP2 MSTORE CALLER PUSH1 0x4 DUP3 ADD MSTORE PUSH1 0x2 PUSH1 0x24 DUP3 ADD MSTORE SWAP2 SWAP3 SWAP2 PUSH1 0x20 DUP2 PUSH1 0x44 DUP2 PUSH1 0x1 PUSH1 0x1 PUSH1 0xA0 SHL SUB PUSH32 0x0 AND GAS STATICCALL DUP1 ISZERO PUSH2 0xDBF JUMPI PUSH2 0x1C98 SWAP2 DUP7 SWAP2 PUSH2 0x781 JUMPI POP PUSH2 0x2B45 JUMP JUMPDEST PUSH2 0x1CA0 PUSH2 0x318B JUMP JUMPDEST DUP2 MLOAD PUSH1 0x20 DUP4 ADD MLOAD PUSH1 0x40 DUP5 ADD MLOAD PUSH1 0x60 DUP6 ADD DUP1 MLOAD PUSH1 0x80 DUP8 ADD MLOAD SWAP2 SWAP8 DUP10 SWAP6 SWAP2 SWAP5 PUSH1 0x1 PUSH1 0x1 PUSH1 0xA0 SHL SUB SWAP4 DUP5 AND SWAP5 SWAP4 PUSH32 0x0 AND SWAP3 SWAP1 SWAP2 SWAP1 DUP4 EXTCODESIZE ISZERO PUSH2 0x165F JUMPI PUSH2 0x1871 DUP9 SWAP7 SWAP3 DUP8 SWAP4 PUSH1 0x40 MLOAD SWAP10 DUP11 SWAP9 DUP10 SWAP8 DUP9 SWAP7 PUSH4 0x15C9FBF9 PUSH1 0xE1 SHL DUP9 MSTORE PUSH1 0x4 DUP9 ADD PUSH2 0x2B9C JUMP JUMPDEST POP CALLVALUE PUSH2 0x1F62 JUMPI PUSH1 0x80 CALLDATASIZE PUSH1 0x3 NOT ADD SLT PUSH2 0x1F62 JUMPI PUSH1 0x4 CALLDATALOAD PUSH1 0x1 PUSH1 0x1 PUSH1 0x40 SHL SUB DUP2 GT PUSH2 0x1F62 JUMPI PUSH2 0x1D4D SWAP1 CALLDATASIZE SWAP1 PUSH1 0x4 ADD PUSH2 0x226C JUMP JUMPDEST SWAP1 PUSH2 0x1D56 PUSH2 0x2302 JUMP JUMPDEST PUSH1 0x44 CALLDATALOAD PUSH1 0x1 PUSH1 0x1 PUSH1 0x40 SHL SUB DUP2 GT PUSH2 0x1F62 JUMPI PUSH2 0x1D75 SWAP1 CALLDATASIZE SWAP1 PUSH1 0x4 ADD PUSH2 0x2312 JUMP JUMPDEST PUSH1 0x64 CALLDATALOAD PUSH1 0x1 PUSH1 0x1 PUSH1 0x40 SHL SUB DUP2 GT PUSH2 0x1F62 JUMPI PUSH2 0x1D94 SWAP1 CALLDATASIZE SWAP1 PUSH1 0x4 ADD PUSH2 0x236C JUMP JUMPDEST PUSH1 0x40 MLOAD PUSH4 0x95A8C58D PUSH1 0xE0 SHL DUP2 MSTORE CALLER PUSH1 0x4 DUP3 ADD MSTORE PUSH1 0x1 PUSH1 0x24 DUP3 ADD MSTORE PUSH1 0x20 DUP2 PUSH1 0x44 DUP2 PUSH1 0x1 PUSH1 0x1 PUSH1 0xA0 SHL SUB PUSH32 0x0 AND GAS STATICCALL DUP1 ISZERO PUSH2 0x1F57 JUMPI PUSH2 0x1DF6 SWAP2 PUSH0 SWAP2 PUSH2 0x62D JUMPI POP PUSH2 0x2ABA JUMP JUMPDEST PUSH2 0x1DFE PUSH2 0x318B JUMP JUMPDEST DUP5 MLOAD PUSH1 0x20 DUP7 ADD MLOAD PUSH1 0x40 DUP8 ADD DUP1 MLOAD PUSH1 0x60 SWAP1 SWAP9 ADD MLOAD SWAP1 SWAP8 SWAP2 SWAP3 PUSH1 0x1 PUSH1 0x1 PUSH1 0xA0 SHL SUB PUSH32 0x0 DUP2 AND SWAP4 SWAP3 AND SWAP1 DUP4 EXTCODESIZE ISZERO PUSH2 0x1F62 JUMPI PUSH2 0x1EDB PUSH0 SWAP7 PUSH2 0x1EC9 DUP9 SWAP5 PUSH2 0x1E97 SWAP11 PUSH2 0x1EA9 PUSH2 0x1E85 SWAP9 PUSH1 0x40 MLOAD SWAP14 DUP15 SWAP13 DUP14 SWAP12 DUP13 SWAP11 PUSH4 0x682053D9 PUSH1 0xE0 SHL DUP13 MSTORE PUSH1 0xE0 PUSH1 0x4 DUP14 ADD MSTORE PUSH1 0xE4 DUP13 ADD SWAP1 PUSH2 0x2234 JUMP JUMPDEST DUP11 DUP2 SUB PUSH1 0x3 NOT ADD PUSH1 0x24 DUP13 ADD MSTORE SWAP1 PUSH2 0x2234 JUMP JUMPDEST DUP9 DUP2 SUB PUSH1 0x3 NOT ADD PUSH1 0x44 DUP11 ADD MSTORE SWAP1 PUSH2 0x2234 JUMP JUMPDEST SWAP2 PUSH1 0x64 DUP8 ADD MSTORE PUSH1 0xFF DUP14 AND PUSH1 0x84 DUP8 ADD MSTORE PUSH1 0x3 NOT DUP7 DUP4 SUB ADD PUSH1 0xA4 DUP8 ADD MSTORE PUSH2 0x2853 JUMP JUMPDEST DUP4 DUP2 SUB PUSH1 0x3 NOT ADD PUSH1 0xC4 DUP6 ADD MSTORE SWAP1 PUSH2 0x28D7 JUMP JUMPDEST SUB SWAP3 GAS CALL DUP1 ISZERO PUSH2 0x1F57 JUMPI PUSH2 0x1F23 JUMPI JUMPDEST POP PUSH32 0xF52A0795D3C1A788D33423AA105BE7A0AAA157621A984632251E0C2ED142D040 SWAP2 SWAP3 MLOAD SWAP1 PUSH2 0x463 PUSH1 0x40 MLOAD SWAP3 DUP4 SWAP3 TIMESTAMP SWAP2 CALLER SWAP1 DUP6 PUSH2 0x2B10 JUMP JUMPDEST PUSH32 0xF52A0795D3C1A788D33423AA105BE7A0AAA157621A984632251E0C2ED142D040 SWAP3 POP PUSH0 PUSH2 0x1F50 SWAP2 PUSH2 0x21B2 JUMP JUMPDEST PUSH0 SWAP2 PUSH2 0x1EEA JUMP JUMPDEST PUSH1 0x40 MLOAD RETURNDATASIZE PUSH0 DUP3 RETURNDATACOPY RETURNDATASIZE SWAP1 REVERT JUMPDEST PUSH0 DUP1 REVERT JUMPDEST CALLVALUE PUSH2 0x1F62 JUMPI PUSH1 0x20 CALLDATASIZE PUSH1 0x3 NOT ADD SLT PUSH2 0x1F62 JUMPI PUSH1 0x4 CALLDATALOAD PUSH1 0x1 PUSH1 0x1 PUSH1 0x40 SHL SUB DUP2 GT PUSH2 0x1F62 JUMPI PUSH0 PUSH2 0x1F9A PUSH2 0x1FBC SWAP3 CALLDATASIZE SWAP1 PUSH1 0x4 ADD PUSH2 0x21EE JUMP JUMPDEST PUSH1 0x40 MLOAD DUP1 SWAP4 DUP2 SWAP3 PUSH4 0x6D1AA7D5 PUSH1 0xE0 SHL DUP4 MSTORE PUSH1 0x20 PUSH1 0x4 DUP5 ADD MSTORE PUSH1 0x24 DUP4 ADD SWAP1 PUSH2 0x2234 JUMP JUMPDEST SUB DUP2 PUSH32 0x0 PUSH1 0x1 PUSH1 0x1 PUSH1 0xA0 SHL SUB AND GAS STATICCALL DUP1 ISZERO PUSH2 0x1F57 JUMPI PUSH2 0x188 SWAP2 PUSH0 SWAP2 PUSH2 0x2010 JUMPI JUMPDEST POP PUSH1 0x40 MLOAD SWAP2 DUP3 SWAP2 PUSH1 0x20 DUP4 MSTORE PUSH1 0x20 DUP4 ADD SWAP1 PUSH2 0x2234 JUMP JUMPDEST PUSH2 0x202C SWAP2 POP RETURNDATASIZE DUP1 PUSH0 DUP4 RETURNDATACOPY PUSH2 0x2024 DUP2 DUP4 PUSH2 0x21B2 JUMP JUMPDEST DUP2 ADD SWAP1 PUSH2 0x2A7D JUMP JUMPDEST DUP3 PUSH2 0x1FFB JUMP JUMPDEST CALLVALUE PUSH2 0x1F62 JUMPI PUSH1 0x20 CALLDATASIZE PUSH1 0x3 NOT ADD SLT PUSH2 0x1F62 JUMPI PUSH1 0x4 CALLDATALOAD PUSH1 0x1 PUSH1 0x1 PUSH1 0x40 SHL SUB DUP2 GT PUSH2 0x1F62 JUMPI PUSH0 PUSH2 0x1F9A PUSH2 0x2066 SWAP3 CALLDATASIZE SWAP1 PUSH1 0x4 ADD PUSH2 0x21EE JUMP JUMPDEST SUB DUP2 PUSH32 0x0 PUSH1 0x1 PUSH1 0x1 PUSH1 0xA0 SHL SUB AND GAS STATICCALL DUP1 ISZERO PUSH2 0x1F57 JUMPI PUSH2 0x188 SWAP2 PUSH0 SWAP2 PUSH2 0x2010 JUMPI POP PUSH1 0x40 MLOAD SWAP2 DUP3 SWAP2 PUSH1 0x20 DUP4 MSTORE PUSH1 0x20 DUP4 ADD SWAP1 PUSH2 0x2234 JUMP JUMPDEST CALLVALUE PUSH2 0x1F62 JUMPI PUSH0 CALLDATASIZE PUSH1 0x3 NOT ADD SLT PUSH2 0x1F62 JUMPI PUSH32 0x0 PUSH1 0x1 PUSH1 0x1 PUSH1 0xA0 SHL SUB AND DUP2 MSTORE PUSH1 0x20 SWAP1 RETURN JUMPDEST PUSH1 0xC0 DUP2 ADD SWAP1 DUP2 LT PUSH1 0x1 PUSH1 0x1 PUSH1 0x40 SHL SUB DUP3 GT OR PUSH2 0x2115 JUMPI PUSH1 0x40 MSTORE JUMP JUMPDEST PUSH4 0x4E487B71 PUSH1 0xE0 SHL PUSH0 MSTORE PUSH1 0x41 PUSH1 0x4 MSTORE PUSH1 0x24 PUSH0 REVERT JUMPDEST PUSH1 0x80 DUP2 ADD SWAP1 DUP2 LT PUSH1 0x1 PUSH1 0x1 PUSH1 0x40 SHL SUB DUP3 GT OR PUSH2 0x2115 JUMPI PUSH1 0x40 MSTORE JUMP JUMPDEST PUSH1 0x60 DUP2 ADD SWAP1 DUP2 LT PUSH1 0x1 PUSH1 0x1 PUSH1 0x40 SHL SUB DUP3 GT OR PUSH2 0x2115 JUMPI PUSH1 0x40 MSTORE JUMP JUMPDEST PUSH2 0x100 DUP2 ADD SWAP1 DUP2 LT PUSH1 0x1 PUSH1 0x1 PUSH1 0x40 SHL SUB DUP3 GT OR PUSH2 0x2115 JUMPI PUSH1 0x40 MSTORE JUMP JUMPDEST PUSH1 0x40 DUP2 ADD SWAP1 DUP2 LT PUSH1 0x1 PUSH1 0x1 PUSH1 0x40 SHL SUB DUP3 GT OR PUSH2 0x2115 JUMPI PUSH1 0x40 MSTORE JUMP JUMPDEST PUSH2 0x160 DUP2 ADD SWAP1 DUP2 LT PUSH1 0x1 PUSH1 0x1 PUSH1 0x40 SHL SUB DUP3 GT OR PUSH2 0x2115 JUMPI PUSH1 0x40 MSTORE JUMP JUMPDEST SWAP1 PUSH1 0x1F DUP1 NOT SWAP2 ADD AND DUP2 ADD SWAP1 DUP2 LT PUSH1 0x1 PUSH1 0x1 PUSH1 0x40 SHL SUB DUP3 GT OR PUSH2 0x2115 JUMPI PUSH1 0x40 MSTORE JUMP JUMPDEST PUSH1 0x1 PUSH1 0x1 PUSH1 0x40 SHL SUB DUP2 GT PUSH2 0x2115 JUMPI PUSH1 0x1F ADD PUSH1 0x1F NOT AND PUSH1 0x20 ADD SWAP1 JUMP JUMPDEST DUP2 PUSH1 0x1F DUP3 ADD SLT ISZERO PUSH2 0x1F62 JUMPI DUP1 CALLDATALOAD SWAP1 PUSH2 0x2205 DUP3 PUSH2 0x21D3 JUMP JUMPDEST SWAP3 PUSH2 0x2213 PUSH1 0x40 MLOAD SWAP5 DUP6 PUSH2 0x21B2 JUMP JUMPDEST DUP3 DUP5 MSTORE PUSH1 0x20 DUP4 DUP4 ADD ADD GT PUSH2 0x1F62 JUMPI DUP2 PUSH0 SWAP3 PUSH1 0x20 DUP1 SWAP4 ADD DUP4 DUP7 ADD CALLDATACOPY DUP4 ADD ADD MSTORE SWAP1 JUMP JUMPDEST DUP1 MLOAD DUP1 DUP4 MSTORE PUSH1 0x20 SWAP3 SWAP2 DUP2 SWAP1 DUP5 ADD DUP5 DUP5 ADD MCOPY PUSH0 DUP3 DUP3 ADD DUP5 ADD MSTORE PUSH1 0x1F ADD PUSH1 0x1F NOT AND ADD ADD SWAP1 JUMP JUMPDEST CALLDATALOAD SWAP1 PUSH1 0x1 PUSH1 0x1 PUSH1 0xA0 SHL SUB DUP3 AND DUP3 SUB PUSH2 0x1F62 JUMPI JUMP JUMPDEST SWAP2 SWAP1 SWAP2 PUSH1 0x80 DUP2 DUP5 SUB SLT PUSH2 0x1F62 JUMPI PUSH1 0x40 MLOAD SWAP1 PUSH2 0x2286 DUP3 PUSH2 0x2129 JUMP JUMPDEST DUP2 SWAP4 DUP2 CALLDATALOAD PUSH1 0x1 PUSH1 0x1 PUSH1 0x40 SHL SUB DUP2 GT PUSH2 0x1F62 JUMPI DUP2 PUSH2 0x22A4 SWAP2 DUP5 ADD PUSH2 0x21EE JUMP JUMPDEST DUP4 MSTORE PUSH1 0x20 DUP3 ADD CALLDATALOAD PUSH1 0x1 PUSH1 0x1 PUSH1 0x40 SHL SUB DUP2 GT PUSH2 0x1F62 JUMPI DUP2 PUSH2 0x22C5 SWAP2 DUP5 ADD PUSH2 0x21EE JUMP JUMPDEST PUSH1 0x20 DUP5 ADD MSTORE PUSH1 0x40 DUP3 ADD CALLDATALOAD SWAP1 PUSH1 0x1 PUSH1 0x1 PUSH1 0x40 SHL SUB DUP3 GT PUSH2 0x1F62 JUMPI DUP3 PUSH2 0x22F2 PUSH1 0x60 SWAP5 SWAP3 PUSH2 0x22FD SWAP5 DUP7 SWAP5 ADD PUSH2 0x21EE JUMP JUMPDEST PUSH1 0x40 DUP7 ADD MSTORE ADD PUSH2 0x2258 JUMP JUMPDEST SWAP2 ADD MSTORE JUMP JUMPDEST PUSH1 0x24 CALLDATALOAD SWAP1 PUSH1 0xFF DUP3 AND DUP3 SUB PUSH2 0x1F62 JUMPI JUMP JUMPDEST SWAP2 SWAP1 PUSH1 0x40 DUP4 DUP3 SUB SLT PUSH2 0x1F62 JUMPI PUSH1 0x40 MLOAD SWAP1 PUSH2 0x232B DUP3 PUSH2 0x217B JUMP JUMPDEST DUP2 SWAP4 DUP1 CALLDATALOAD PUSH1 0x1 PUSH1 0x1 PUSH1 0x40 SHL SUB DUP2 GT PUSH2 0x1F62 JUMPI DUP3 PUSH2 0x2349 SWAP2 DUP4 ADD PUSH2 0x21EE JUMP JUMPDEST DUP4 MSTORE PUSH1 0x20 DUP2 ADD CALLDATALOAD SWAP2 PUSH1 0x1 PUSH1 0x1 PUSH1 0x40 SHL SUB DUP4 GT PUSH2 0x1F62 JUMPI PUSH1 0x20 SWAP3 PUSH2 0x22FD SWAP3 ADD PUSH2 0x21EE JUMP JUMPDEST SWAP2 SWAP1 PUSH2 0x100 DUP4 DUP3 SUB SLT PUSH2 0x1F62 JUMPI PUSH1 0x40 MLOAD SWAP1 PUSH2 0x2386 DUP3 PUSH2 0x215F JUMP JUMPDEST DUP2 SWAP4 DUP1 CALLDATALOAD PUSH1 0x1 PUSH1 0x1 PUSH1 0x40 SHL SUB DUP2 GT PUSH2 0x1F62 JUMPI DUP3 PUSH2 0x23A4 SWAP2 DUP4 ADD PUSH2 0x21EE JUMP JUMPDEST DUP4 MSTORE PUSH1 0x20 DUP2 ADD CALLDATALOAD PUSH1 0x1 PUSH1 0x1 PUSH1 0x40 SHL SUB DUP2 GT PUSH2 0x1F62 JUMPI DUP3 PUSH2 0x23C5 SWAP2 DUP4 ADD PUSH2 0x21EE JUMP JUMPDEST PUSH1 0x20 DUP5 ADD MSTORE PUSH1 0x40 DUP2 ADD CALLDATALOAD PUSH1 0x1 PUSH1 0x1 PUSH1 0x40 SHL SUB DUP2 GT PUSH2 0x1F62 JUMPI DUP3 PUSH2 0x23E9 SWAP2 DUP4 ADD PUSH2 0x21EE JUMP JUMPDEST PUSH1 0x40 DUP5 ADD MSTORE PUSH1 0x60 DUP2 ADD CALLDATALOAD PUSH1 0x1 PUSH1 0x1 PUSH1 0x40 SHL SUB DUP2 GT PUSH2 0x1F62 JUMPI DUP3 PUSH2 0x240D SWAP2 DUP4 ADD PUSH2 0x21EE JUMP JUMPDEST PUSH1 0x60 DUP5 ADD MSTORE PUSH1 0x80 DUP2 ADD CALLDATALOAD PUSH1 0x1 PUSH1 0x1 PUSH1 0x40 SHL SUB DUP2 GT PUSH2 0x1F62 JUMPI DUP3 PUSH2 0x2431 SWAP2 DUP4 ADD PUSH2 0x21EE JUMP JUMPDEST PUSH1 0x80 DUP5 ADD MSTORE PUSH1 0xA0 DUP2 ADD CALLDATALOAD PUSH1 0x1 PUSH1 0x1 PUSH1 0x40 SHL SUB DUP2 GT PUSH2 0x1F62 JUMPI DUP3 PUSH2 0x2455 SWAP2 DUP4 ADD PUSH2 0x21EE JUMP JUMPDEST PUSH1 0xA0 DUP5 ADD MSTORE PUSH1 0xC0 DUP2 ADD CALLDATALOAD PUSH1 0x1 PUSH1 0x1 PUSH1 0x40 SHL SUB DUP2 GT PUSH2 0x1F62 JUMPI DUP3 PUSH2 0x2479 SWAP2 DUP4 ADD PUSH2 0x21EE JUMP JUMPDEST PUSH1 0xC0 DUP5 ADD MSTORE PUSH1 0xE0 DUP2 ADD CALLDATALOAD SWAP2 PUSH1 0x1 PUSH1 0x1 PUSH1 0x40 SHL SUB DUP4 GT PUSH2 0x1F62 JUMPI PUSH1 0xE0 SWAP3 PUSH2 0x22FD SWAP3 ADD PUSH2 0x21EE JUMP JUMPDEST SWAP1 PUSH1 0x60 PUSH1 0x3 NOT DUP4 ADD SLT PUSH2 0x1F62 JUMPI PUSH1 0x4 CALLDATALOAD PUSH1 0x1 PUSH1 0x1 PUSH1 0x40 SHL SUB DUP2 GT PUSH2 0x1F62 JUMPI PUSH1 0xA0 DUP2 DUP5 SUB PUSH1 0x3 NOT ADD SLT PUSH2 0x1F62 JUMPI PUSH1 0x40 MLOAD SWAP1 PUSH1 0xA0 DUP3 ADD DUP3 DUP2 LT PUSH1 0x1 PUSH1 0x1 PUSH1 0x40 SHL SUB DUP3 GT OR PUSH2 0x2115 JUMPI PUSH1 0x40 MSTORE DUP1 PUSH1 0x4 ADD CALLDATALOAD PUSH1 0x1 PUSH1 0x1 PUSH1 0x40 SHL SUB DUP2 GT PUSH2 0x1F62 JUMPI DUP5 PUSH1 0x4 PUSH2 0x250A SWAP3 DUP5 ADD ADD PUSH2 0x21EE JUMP JUMPDEST DUP3 MSTORE PUSH1 0x24 DUP2 ADD CALLDATALOAD PUSH1 0x1 PUSH1 0x1 PUSH1 0x40 SHL SUB DUP2 GT PUSH2 0x1F62 JUMPI DUP5 PUSH1 0x4 PUSH2 0x252E SWAP3 DUP5 ADD ADD PUSH2 0x21EE JUMP JUMPDEST PUSH1 0x20 DUP4 ADD MSTORE PUSH1 0x44 DUP2 ADD CALLDATALOAD PUSH1 0x1 PUSH1 0x1 PUSH1 0x40 SHL SUB DUP2 GT PUSH2 0x1F62 JUMPI DUP5 PUSH1 0x4 PUSH2 0x2555 SWAP3 DUP5 ADD ADD PUSH2 0x21EE JUMP JUMPDEST PUSH1 0x40 DUP4 ADD MSTORE PUSH1 0x64 DUP2 ADD CALLDATALOAD PUSH1 0x1 PUSH1 0x1 PUSH1 0x40 SHL SUB DUP2 GT PUSH2 0x1F62 JUMPI DUP2 PUSH2 0x2582 DUP7 PUSH1 0x4 PUSH1 0x84 SWAP5 PUSH2 0x258D SWAP7 ADD ADD PUSH2 0x21EE JUMP JUMPDEST PUSH1 0x60 DUP6 ADD MSTORE ADD PUSH2 0x2258 JUMP JUMPDEST PUSH1 0x80 DUP3 ADD MSTORE SWAP2 PUSH1 0x24 CALLDATALOAD SWAP1 PUSH1 0x1 PUSH1 0x1 PUSH1 0x40 SHL SUB DUP3 GT PUSH2 0x1F62 JUMPI PUSH2 0x25B1 SWAP2 PUSH1 0x4 ADD PUSH2 0x21EE JUMP JUMPDEST SWAP1 PUSH1 0x44 CALLDATALOAD PUSH1 0xFF DUP2 AND DUP2 SUB PUSH2 0x1F62 JUMPI SWAP1 JUMP JUMPDEST SWAP1 PUSH1 0xA0 PUSH1 0x3 NOT DUP4 ADD SLT PUSH2 0x1F62 JUMPI PUSH1 0x4 CALLDATALOAD PUSH1 0x1 PUSH1 0x1 PUSH1 0x40 SHL SUB DUP2 GT PUSH2 0x1F62 JUMPI DUP3 PUSH2 0x25ED SWAP2 PUSH1 0x4 ADD PUSH2 0x21EE JUMP JUMPDEST SWAP2 PUSH1 0x24 CALLDATALOAD PUSH1 0x1 PUSH1 0x1 PUSH1 0x40 SHL SUB DUP2 GT PUSH2 0x1F62 JUMPI DUP2 PUSH2 0x260C SWAP2 PUSH1 0x4 ADD PUSH2 0x21EE JUMP JUMPDEST SWAP2 PUSH1 0x44 CALLDATALOAD PUSH1 0x1 PUSH1 0x1 PUSH1 0x40 SHL SUB DUP2 GT PUSH2 0x1F62 JUMPI DUP3 PUSH2 0x262B SWAP2 PUSH1 0x4 ADD PUSH2 0x21EE JUMP JUMPDEST SWAP2 PUSH1 0x64 CALLDATALOAD SWAP1 PUSH1 0x1 PUSH1 0x1 PUSH1 0x40 SHL SUB DUP3 GT PUSH2 0x1F62 JUMPI PUSH2 0x264A SWAP2 PUSH1 0x4 ADD PUSH2 0x21EE JUMP JUMPDEST SWAP1 PUSH1 0x84 CALLDATALOAD PUSH1 0xFF DUP2 AND DUP2 SUB PUSH2 0x1F62 JUMPI SWAP1 JUMP JUMPDEST SWAP1 PUSH1 0x7 DUP3 LT ISZERO PUSH2 0x2668 JUMPI MSTORE JUMP JUMPDEST PUSH4 0x4E487B71 PUSH1 0xE0 SHL PUSH0 MSTORE PUSH1 0x21 PUSH1 0x4 MSTORE PUSH1 0x24 PUSH0 REVERT JUMPDEST SWAP1 PUSH1 0xC0 DUP1 PUSH2 0x26F1 PUSH2 0x26C0 PUSH2 0x26AE PUSH2 0x269C DUP8 MLOAD PUSH1 0xE0 DUP9 MSTORE PUSH1 0xE0 DUP9 ADD SWAP1 PUSH2 0x2234 JUMP JUMPDEST PUSH1 0x20 DUP9 ADD MLOAD DUP8 DUP3 SUB PUSH1 0x20 DUP10 ADD MSTORE PUSH2 0x2234 JUMP JUMPDEST PUSH1 0x40 DUP8 ADD MLOAD DUP7 DUP3 SUB PUSH1 0x40 DUP9 ADD MSTORE PUSH2 0x2234 JUMP JUMPDEST PUSH1 0xFF PUSH1 0x60 DUP8 ADD MLOAD AND PUSH1 0x60 DUP7 ADD MSTORE PUSH2 0x26DF PUSH1 0x80 DUP8 ADD MLOAD PUSH1 0x80 DUP8 ADD SWAP1 PUSH2 0x265B JUMP JUMPDEST PUSH1 0xA0 DUP7 ADD MLOAD DUP6 DUP3 SUB PUSH1 0xA0 DUP8 ADD MSTORE PUSH2 0x2234 JUMP JUMPDEST SWAP4 ADD MLOAD SWAP2 ADD MSTORE SWAP1 JUMP JUMPDEST PUSH1 0x20 DUP2 ADD PUSH1 0x20 DUP3 MSTORE DUP3 MLOAD DUP1 SWAP2 MSTORE PUSH1 0x40 DUP3 ADD SWAP2 PUSH1 0x20 PUSH1 0x40 DUP4 PUSH1 0x5 SHL DUP4 ADD ADD SWAP5 ADD SWAP3 PUSH0 SWAP2 JUMPDEST DUP4 DUP4 LT PUSH2 0x272C JUMPI POP POP POP POP POP SWAP1 JUMP JUMPDEST SWAP1 SWAP2 SWAP3 SWAP4 SWAP5 PUSH1 0x20 DUP1 PUSH2 0x274A PUSH1 0x1 SWAP4 PUSH1 0x3F NOT DUP7 DUP3 SUB ADD DUP8 MSTORE DUP10 MLOAD PUSH2 0x267C JUMP JUMPDEST SWAP8 ADD SWAP4 ADD SWAP4 ADD SWAP2 SWAP4 SWAP3 SWAP1 PUSH2 0x271D JUMP JUMPDEST SWAP1 PUSH1 0x40 PUSH2 0x2772 PUSH2 0x1344 DUP5 MLOAD PUSH1 0x60 DUP6 MSTORE PUSH1 0x60 DUP6 ADD SWAP1 PUSH2 0x2234 JUMP JUMPDEST SWAP3 DUP2 ADD MLOAD PUSH1 0x1 PUSH1 0x1 PUSH1 0xA0 SHL SUB AND SWAP2 ADD MSTORE SWAP1 JUMP JUMPDEST PUSH2 0x2823 SWAP2 PUSH2 0x2794 DUP2 DUP4 MLOAD PUSH2 0x265B JUMP JUMPDEST PUSH1 0x20 DUP3 ADD MLOAD PUSH1 0x20 DUP3 ADD MSTORE PUSH1 0x40 DUP3 ADD MLOAD PUSH1 0x40 DUP3 ADD MSTORE PUSH1 0x60 DUP3 ADD MLOAD PUSH1 0x60 DUP3 ADD MSTORE PUSH1 0x80 DUP3 ADD MLOAD PUSH1 0x80 DUP3 ADD MSTORE PUSH1 0xA0 DUP3 ADD MLOAD PUSH1 0xA0 DUP3 ADD MSTORE PUSH1 0xC0 DUP3 ADD MLOAD PUSH1 0xC0 DUP3 ADD MSTORE PUSH1 0xE0 DUP3 ADD MLOAD PUSH1 0xE0 DUP3 ADD MSTORE PUSH2 0x140 PUSH2 0x2811 PUSH2 0x27FD PUSH2 0x100 DUP6 ADD MLOAD PUSH2 0x160 PUSH2 0x100 DUP7 ADD MSTORE PUSH2 0x160 DUP6 ADD SWAP1 PUSH2 0x2759 JUMP JUMPDEST PUSH2 0x120 DUP6 ADD MLOAD DUP5 DUP3 SUB PUSH2 0x120 DUP7 ADD MSTORE PUSH2 0x2759 JUMP JUMPDEST SWAP3 ADD MLOAD SWAP1 PUSH2 0x140 DUP2 DUP5 SUB SWAP2 ADD MSTORE PUSH2 0x2234 JUMP JUMPDEST SWAP1 JUMP JUMPDEST PUSH2 0x2823 SWAP2 PUSH1 0x40 PUSH2 0x2842 PUSH2 0x1344 DUP5 MLOAD PUSH1 0x60 DUP6 MSTORE PUSH1 0x60 DUP6 ADD SWAP1 PUSH2 0x2234 JUMP JUMPDEST SWAP3 ADD MLOAD SWAP1 PUSH1 0x40 DUP2 DUP5 SUB SWAP2 ADD MSTORE PUSH2 0x2234 JUMP JUMPDEST PUSH2 0x2823 SWAP2 PUSH1 0x20 PUSH2 0x286C DUP4 MLOAD PUSH1 0x40 DUP5 MSTORE PUSH1 0x40 DUP5 ADD SWAP1 PUSH2 0x2234 JUMP JUMPDEST SWAP3 ADD MLOAD SWAP1 PUSH1 0x20 DUP2 DUP5 SUB SWAP2 ADD MSTORE PUSH2 0x2234 JUMP JUMPDEST PUSH2 0x2823 SWAP2 PUSH1 0xA0 PUSH2 0x28C6 PUSH2 0x28B4 PUSH2 0x28A2 PUSH2 0x26AE PUSH2 0x269C DUP8 MLOAD PUSH1 0xC0 DUP9 MSTORE PUSH1 0xC0 DUP9 ADD SWAP1 PUSH2 0x2234 JUMP JUMPDEST PUSH1 0x60 DUP7 ADD MLOAD DUP6 DUP3 SUB PUSH1 0x60 DUP8 ADD MSTORE PUSH2 0x2234 JUMP JUMPDEST PUSH1 0x80 DUP6 ADD MLOAD DUP5 DUP3 SUB PUSH1 0x80 DUP7 ADD MSTORE PUSH2 0x2234 JUMP JUMPDEST SWAP3 ADD MLOAD SWAP1 PUSH1 0xA0 DUP2 DUP5 SUB SWAP2 ADD MSTORE PUSH2 0x2234 JUMP JUMPDEST PUSH2 0x2823 SWAP2 PUSH1 0xE0 PUSH2 0x295E PUSH2 0x294C PUSH2 0x26DF PUSH2 0x293A PUSH2 0x2928 PUSH2 0x2916 PUSH2 0x2904 DUP10 MLOAD PUSH2 0x100 DUP11 MSTORE PUSH2 0x100 DUP11 ADD SWAP1 PUSH2 0x2234 JUMP JUMPDEST PUSH1 0x20 DUP11 ADD MLOAD DUP10 DUP3 SUB PUSH1 0x20 DUP12 ADD MSTORE PUSH2 0x2234 JUMP JUMPDEST PUSH1 0x40 DUP10 ADD MLOAD DUP9 DUP3 SUB PUSH1 0x40 DUP11 ADD MSTORE PUSH2 0x2234 JUMP JUMPDEST PUSH1 0x60 DUP9 ADD MLOAD DUP8 DUP3 SUB PUSH1 0x60 DUP10 ADD MSTORE PUSH2 0x2234 JUMP JUMPDEST PUSH1 0x80 DUP8 ADD MLOAD DUP7 DUP3 SUB PUSH1 0x80 DUP9 ADD MSTORE PUSH2 0x2234 JUMP JUMPDEST PUSH1 0xC0 DUP6 ADD MLOAD DUP5 DUP3 SUB PUSH1 0xC0 DUP7 ADD MSTORE PUSH2 0x2234 JUMP JUMPDEST SWAP3 ADD MLOAD SWAP1 PUSH1 0xE0 DUP2 DUP5 SUB SWAP2 ADD MSTORE PUSH2 0x2234 JUMP JUMPDEST SWAP2 SWAP1 PUSH1 0x60 DUP4 DUP3 SUB SLT PUSH2 0x1F62 JUMPI PUSH1 0x40 MLOAD SWAP1 PUSH2 0x2988 DUP3 PUSH2 0x2144 JUMP JUMPDEST DUP2 SWAP4 DUP1 CALLDATALOAD PUSH1 0x1 PUSH1 0x1 PUSH1 0x40 SHL SUB DUP2 GT PUSH2 0x1F62 JUMPI DUP3 PUSH2 0x29A6 SWAP2 DUP4 ADD PUSH2 0x21EE JUMP JUMPDEST DUP4 MSTORE PUSH1 0x20 DUP2 ADD CALLDATALOAD PUSH1 0x1 PUSH1 0x1 PUSH1 0x40 SHL SUB DUP2 GT PUSH2 0x1F62 JUMPI DUP3 PUSH2 0x29C7 SWAP2 DUP4 ADD PUSH2 0x21EE JUMP JUMPDEST PUSH1 0x20 DUP5 ADD MSTORE PUSH1 0x40 DUP2 ADD CALLDATALOAD SWAP2 PUSH1 0x1 PUSH1 0x1 PUSH1 0x40 SHL SUB DUP4 GT PUSH2 0x1F62 JUMPI PUSH1 0x40 SWAP3 PUSH2 0x22FD SWAP3 ADD PUSH2 0x21EE JUMP JUMPDEST SWAP1 PUSH1 0x40 PUSH1 0x3 NOT DUP4 ADD SLT PUSH2 0x1F62 JUMPI PUSH1 0x4 CALLDATALOAD PUSH1 0x1 PUSH1 0x1 PUSH1 0x40 SHL SUB DUP2 GT PUSH2 0x1F62 JUMPI DUP3 PUSH2 0x2A18 SWAP2 PUSH1 0x4 ADD PUSH2 0x21EE JUMP JUMPDEST SWAP2 PUSH1 0x24 CALLDATALOAD SWAP1 PUSH1 0x1 PUSH1 0x1 PUSH1 0x40 SHL SUB DUP3 GT PUSH2 0x1F62 JUMPI PUSH2 0x2823 SWAP2 PUSH1 0x4 ADD PUSH2 0x21EE JUMP JUMPDEST DUP2 PUSH1 0x1F DUP3 ADD SLT ISZERO PUSH2 0x1F62 JUMPI DUP1 MLOAD SWAP1 PUSH2 0x2A4E DUP3 PUSH2 0x21D3 JUMP JUMPDEST SWAP3 PUSH2 0x2A5C PUSH1 0x40 MLOAD SWAP5 DUP6 PUSH2 0x21B2 JUMP JUMPDEST DUP3 DUP5 MSTORE PUSH1 0x20 DUP4 DUP4 ADD ADD GT PUSH2 0x1F62 JUMPI DUP2 PUSH0 SWAP3 PUSH1 0x20 DUP1 SWAP4 ADD DUP4 DUP7 ADD MCOPY DUP4 ADD ADD MSTORE SWAP1 JUMP JUMPDEST SWAP1 PUSH1 0x20 DUP3 DUP3 SUB SLT PUSH2 0x1F62 JUMPI DUP2 MLOAD PUSH1 0x1 PUSH1 0x1 PUSH1 0x40 SHL SUB DUP2 GT PUSH2 0x1F62 JUMPI PUSH2 0x2823 SWAP3 ADD PUSH2 0x2A37 JUMP JUMPDEST SWAP1 DUP2 PUSH1 0x20 SWAP2 SUB SLT PUSH2 0x1F62 JUMPI MLOAD DUP1 ISZERO ISZERO DUP2 SUB PUSH2 0x1F62 JUMPI SWAP1 JUMP JUMPDEST ISZERO PUSH2 0x2AC1 JUMPI JUMP JUMPDEST PUSH1 0x40 MLOAD PUSH3 0x461BCD PUSH1 0xE5 SHL DUP2 MSTORE PUSH1 0x20 PUSH1 0x4 DUP3 ADD MSTORE PUSH1 0x21 PUSH1 0x24 DUP3 ADD MSTORE PUSH32 0x4F6E6C79205042462063616E20646F2074686973207472616E73616374696F6E PUSH1 0x44 DUP3 ADD MSTORE PUSH1 0x21 PUSH1 0xF8 SHL PUSH1 0x64 DUP3 ADD MSTORE PUSH1 0x84 SWAP1 REVERT JUMPDEST SWAP1 PUSH1 0x60 SWAP3 SWAP6 SWAP5 SWAP4 PUSH2 0x2B2B PUSH1 0xFF SWAP3 PUSH1 0x80 DUP6 MSTORE PUSH1 0x80 DUP6 ADD SWAP1 PUSH2 0x2234 JUMP JUMPDEST PUSH1 0x1 PUSH1 0x1 PUSH1 0xA0 SHL SUB SWAP1 SWAP8 AND PUSH1 0x20 DUP5 ADD MSTORE AND PUSH1 0x40 DUP3 ADD MSTORE ADD MSTORE JUMP JUMPDEST ISZERO PUSH2 0x2B4C JUMPI JUMP JUMPDEST PUSH1 0x40 MLOAD PUSH3 0x461BCD PUSH1 0xE5 SHL DUP2 MSTORE PUSH1 0x20 PUSH1 0x4 DUP3 ADD MSTORE PUSH1 0x22 PUSH1 0x24 DUP3 ADD MSTORE PUSH32 0x4F6E6C792042504F4D2063616E20646F2074686973207472616E73616374696F PUSH1 0x44 DUP3 ADD MSTORE PUSH2 0x6E21 PUSH1 0xF0 SHL PUSH1 0x64 DUP3 ADD MSTORE PUSH1 0x84 SWAP1 REVERT JUMPDEST SWAP3 PUSH2 0x2BDB SWAP1 PUSH2 0x2BCD PUSH2 0x2BE9 SWAP5 PUSH2 0x2BBF PUSH2 0x2823 SWAP11 SWAP9 SWAP6 PUSH1 0xC0 DUP10 MSTORE PUSH1 0xC0 DUP10 ADD SWAP1 PUSH2 0x2234 JUMP JUMPDEST SWAP1 DUP8 DUP3 SUB PUSH1 0x20 DUP10 ADD MSTORE PUSH2 0x2234 JUMP JUMPDEST SWAP1 DUP6 DUP3 SUB PUSH1 0x40 DUP8 ADD MSTORE PUSH2 0x2234 JUMP JUMPDEST SWAP1 DUP4 DUP3 SUB PUSH1 0x60 DUP6 ADD MSTORE PUSH2 0x2234 JUMP JUMPDEST PUSH1 0x1 PUSH1 0x1 PUSH1 0xA0 SHL SUB SWAP1 SWAP4 AND PUSH1 0x80 DUP3 ADD MSTORE DUP1 DUP4 SUB PUSH1 0xA0 SWAP2 SWAP1 SWAP2 ADD MSTORE PUSH2 0x2234 JUMP JUMPDEST SWAP6 SWAP5 SWAP4 PUSH1 0xFF PUSH1 0x80 SWAP5 PUSH2 0x2C26 PUSH2 0x2C49 SWAP6 SWAP5 PUSH1 0xA0 DUP12 MSTORE PUSH1 0xA0 DUP12 ADD SWAP1 PUSH2 0x2234 JUMP JUMPDEST PUSH1 0x1 PUSH1 0x1 PUSH1 0xA0 SHL SUB SWAP1 SWAP5 AND PUSH1 0x20 DUP11 ADD MSTORE AND PUSH1 0x40 DUP9 ADD MSTORE DUP7 DUP3 SUB PUSH1 0x60 DUP9 ADD MSTORE PUSH2 0x2234 JUMP JUMPDEST SWAP4 ADD MSTORE JUMP JUMPDEST SWAP4 SWAP1 PUSH1 0x80 SWAP4 PUSH2 0x2C80 PUSH2 0x2C9C SWAP5 PUSH2 0x2C72 PUSH2 0x2C8E SWAP5 SWAP11 SWAP10 SWAP11 PUSH1 0xA0 DUP11 MSTORE PUSH1 0xA0 DUP11 ADD SWAP1 PUSH2 0x2234 JUMP JUMPDEST SWAP1 DUP9 DUP3 SUB PUSH1 0x20 DUP11 ADD MSTORE PUSH2 0x2234 JUMP JUMPDEST SWAP1 DUP7 DUP3 SUB PUSH1 0x40 DUP9 ADD MSTORE PUSH2 0x2234 JUMP JUMPDEST SWAP1 DUP5 DUP3 SUB PUSH1 0x60 DUP7 ADD MSTORE PUSH2 0x2234 JUMP JUMPDEST PUSH1 0x1 PUSH1 0x1 PUSH1 0xA0 SHL SUB SWAP1 SWAP5 AND SWAP2 ADD MSTORE JUMP JUMPDEST SWAP2 SWAP4 SWAP1 PUSH2 0x2823 SWAP6 SWAP4 PUSH2 0x2CC8 PUSH1 0xFF SWAP3 PUSH1 0xA0 DUP7 MSTORE PUSH1 0xA0 DUP7 ADD SWAP1 PUSH2 0x2234 JUMP JUMPDEST PUSH1 0x1 PUSH1 0x1 PUSH1 0xA0 SHL SUB SWAP1 SWAP7 AND PUSH1 0x20 DUP6 ADD MSTORE AND PUSH1 0x40 DUP4 ADD MSTORE PUSH1 0x60 DUP3 ADD MSTORE DUP1 DUP4 SUB PUSH1 0x80 SWAP1 SWAP2 ADD MSTORE PUSH2 0x2234 JUMP JUMPDEST ISZERO PUSH2 0x2CF8 JUMPI JUMP JUMPDEST PUSH1 0x40 MLOAD PUSH3 0x461BCD PUSH1 0xE5 SHL DUP2 MSTORE PUSH1 0x20 PUSH1 0x4 DUP3 ADD MSTORE PUSH1 0x25 PUSH1 0x24 DUP3 ADD MSTORE PUSH32 0x4F6E6C7920466163746F72792063616E20646F2074686973207472616E736163 PUSH1 0x44 DUP3 ADD MSTORE PUSH5 0x74696F6E21 PUSH1 0xD8 SHL PUSH1 0x64 DUP3 ADD MSTORE PUSH1 0x84 SWAP1 REVERT JUMPDEST MLOAD SWAP1 PUSH1 0xFF DUP3 AND DUP3 SUB PUSH2 0x1F62 JUMPI JUMP JUMPDEST PUSH1 0x20 DUP2 DUP4 SUB SLT PUSH2 0x1F62 JUMPI DUP1 MLOAD SWAP1 PUSH1 0x1 PUSH1 0x1 PUSH1 0x40 SHL SUB DUP3 GT PUSH2 0x1F62 JUMPI ADD DUP2 PUSH1 0x1F DUP3 ADD SLT ISZERO PUSH2 0x1F62 JUMPI DUP1 MLOAD SWAP1 PUSH1 0x1 PUSH1 0x1 PUSH1 0x40 SHL SUB DUP3 GT PUSH2 0x2115 JUMPI PUSH1 0x20 DUP3 PUSH1 0x5 SHL ADD SWAP3 PUSH2 0x2DA6 PUSH1 0x40 MLOAD SWAP5 DUP6 PUSH2 0x21B2 JUMP JUMPDEST DUP3 DUP5 MSTORE PUSH1 0x20 DUP1 DUP6 ADD SWAP4 PUSH1 0x5 SHL DUP4 ADD ADD SWAP2 DUP2 DUP4 GT PUSH2 0x1F62 JUMPI PUSH1 0x20 DUP2 ADD SWAP4 JUMPDEST DUP4 DUP6 LT PUSH2 0x2DD2 JUMPI POP POP POP POP POP SWAP1 JUMP JUMPDEST DUP5 MLOAD PUSH1 0x1 PUSH1 0x1 PUSH1 0x40 SHL SUB DUP2 GT PUSH2 0x1F62 JUMPI PUSH1 0x20 SWAP1 DUP4 ADD ADD PUSH1 0xE0 DUP2 DUP6 SUB SLT PUSH2 0x1F62 JUMPI PUSH1 0x40 MLOAD SWAP2 PUSH1 0xE0 DUP4 ADD DUP4 DUP2 LT PUSH1 0x1 PUSH1 0x1 PUSH1 0x40 SHL SUB DUP3 GT OR PUSH2 0x2115 JUMPI PUSH1 0x40 MSTORE DUP2 MLOAD PUSH1 0x1 PUSH1 0x1 PUSH1 0x40 SHL SUB DUP2 GT PUSH2 0x1F62 JUMPI DUP6 PUSH2 0x2E2B SWAP2 DUP5 ADD PUSH2 0x2A37 JUMP JUMPDEST DUP4 MSTORE PUSH1 0x20 DUP3 ADD MLOAD PUSH1 0x1 PUSH1 0x1 PUSH1 0x40 SHL SUB DUP2 GT PUSH2 0x1F62 JUMPI DUP6 PUSH2 0x2E4C SWAP2 DUP5 ADD PUSH2 0x2A37 JUMP JUMPDEST PUSH1 0x20 DUP5 ADD MSTORE PUSH1 0x40 DUP3 ADD MLOAD PUSH1 0x1 PUSH1 0x1 PUSH1 0x40 SHL SUB DUP2 GT PUSH2 0x1F62 JUMPI DUP6 PUSH2 0x2E70 SWAP2 DUP5 ADD PUSH2 0x2A37 JUMP JUMPDEST PUSH1 0x40 DUP5 ADD MSTORE PUSH2 0x2E81 PUSH1 0x60 DUP4 ADD PUSH2 0x2D4B JUMP JUMPDEST PUSH1 0x60 DUP5 ADD MSTORE PUSH1 0x80 DUP3 ADD MLOAD PUSH1 0x7 DUP2 LT ISZERO PUSH2 0x1F62 JUMPI PUSH1 0x80 DUP5 ADD MSTORE PUSH1 0xA0 DUP3 ADD MLOAD SWAP3 PUSH1 0x1 PUSH1 0x1 PUSH1 0x40 SHL SUB DUP5 GT PUSH2 0x1F62 JUMPI PUSH1 0xC0 DUP4 PUSH2 0x2EBF DUP9 PUSH1 0x20 SWAP8 DUP9 SWAP8 ADD PUSH2 0x2A37 JUMP JUMPDEST PUSH1 0xA0 DUP5 ADD MSTORE ADD MLOAD PUSH1 0xC0 DUP3 ADD MSTORE DUP2 MSTORE ADD SWAP5 ADD SWAP4 PUSH2 0x2DC3 JUMP JUMPDEST PUSH1 0x40 MLOAD SWAP1 PUSH2 0x2EE3 DUP3 PUSH2 0x2144 JUMP JUMPDEST PUSH0 PUSH1 0x40 DUP4 PUSH1 0x60 DUP2 MSTORE PUSH1 0x60 PUSH1 0x20 DUP3 ADD MSTORE ADD MSTORE JUMP JUMPDEST PUSH1 0x40 MLOAD SWAP1 PUSH2 0x2F03 DUP3 PUSH2 0x2196 JUMP JUMPDEST PUSH1 0x60 PUSH2 0x140 DUP4 PUSH0 DUP2 MSTORE PUSH0 PUSH1 0x20 DUP3 ADD MSTORE PUSH0 PUSH1 0x40 DUP3 ADD MSTORE PUSH0 DUP4 DUP3 ADD MSTORE PUSH0 PUSH1 0x80 DUP3 ADD MSTORE PUSH0 PUSH1 0xA0 DUP3 ADD MSTORE PUSH0 PUSH1 0xC0 DUP3 ADD MSTORE PUSH0 PUSH1 0xE0 DUP3 ADD MSTORE PUSH2 0x2F3D PUSH2 0x2ED6 JUMP JUMPDEST PUSH2 0x100 DUP3 ADD MSTORE PUSH2 0x2F4B PUSH2 0x2ED6 JUMP JUMPDEST PUSH2 0x120 DUP3 ADD MSTORE ADD MSTORE JUMP JUMPDEST PUSH1 0x40 MLOAD SWAP1 PUSH2 0x2F62 DUP3 PUSH2 0x217B JUMP JUMPDEST PUSH1 0x60 PUSH1 0x20 DUP4 DUP3 DUP2 MSTORE ADD MSTORE JUMP JUMPDEST SWAP2 SWAP1 PUSH1 0x40 DUP4 DUP3 SUB SLT PUSH2 0x1F62 JUMPI PUSH1 0x40 MLOAD SWAP1 PUSH2 0x2F87 DUP3 PUSH2 0x217B JUMP JUMPDEST DUP2 SWAP4 DUP1 MLOAD PUSH1 0x1 PUSH1 0x1 PUSH1 0x40 SHL SUB DUP2 GT PUSH2 0x1F62 JUMPI DUP3 PUSH2 0x2FA5 SWAP2 DUP4 ADD PUSH2 0x2A37 JUMP JUMPDEST DUP4 MSTORE PUSH1 0x20 DUP2 ADD MLOAD SWAP2 PUSH1 0x1 PUSH1 0x1 PUSH1 0x40 SHL SUB DUP4 GT PUSH2 0x1F62 JUMPI PUSH1 0x20 SWAP3 PUSH2 0x22FD SWAP3 ADD PUSH2 0x2A37 JUMP JUMPDEST SWAP2 SWAP1 PUSH1 0x60 DUP4 DUP3 SUB SLT PUSH2 0x1F62 JUMPI PUSH1 0x40 MLOAD SWAP1 PUSH2 0x2FE1 DUP3 PUSH2 0x2144 JUMP JUMPDEST DUP2 SWAP4 DUP1 MLOAD PUSH1 0x1 PUSH1 0x1 PUSH1 0x40 SHL SUB DUP2 GT PUSH2 0x1F62 JUMPI DUP3 PUSH2 0x2FFF SWAP2 DUP4 ADD PUSH2 0x2A37 JUMP JUMPDEST DUP4 MSTORE PUSH1 0x20 DUP2 ADD MLOAD PUSH1 0x1 PUSH1 0x1 PUSH1 0x40 SHL SUB DUP2 GT PUSH2 0x1F62 JUMPI PUSH1 0x40 SWAP3 PUSH2 0x3022 SWAP2 DUP4 ADD PUSH2 0x2A37 JUMP JUMPDEST PUSH1 0x20 DUP5 ADD MSTORE ADD MLOAD SWAP1 PUSH1 0x1 PUSH1 0x1 PUSH1 0xA0 SHL SUB DUP3 AND DUP3 SUB PUSH2 0x1F62 JUMPI PUSH1 0x40 ADD MSTORE JUMP JUMPDEST PUSH1 0x20 DUP2 DUP4 SUB SLT PUSH2 0x1F62 JUMPI DUP1 MLOAD SWAP1 PUSH1 0x1 PUSH1 0x1 PUSH1 0x40 SHL SUB DUP3 GT PUSH2 0x1F62 JUMPI ADD PUSH2 0x160 DUP2 DUP4 SUB SLT PUSH2 0x1F62 JUMPI PUSH1 0x40 MLOAD SWAP2 PUSH2 0x3074 DUP4 PUSH2 0x2196 JUMP JUMPDEST DUP2 MLOAD PUSH1 0x7 DUP2 LT ISZERO PUSH2 0x1F62 JUMPI DUP4 MSTORE PUSH1 0x20 DUP3 ADD MLOAD PUSH1 0x20 DUP5 ADD MSTORE PUSH1 0x40 DUP3 ADD MLOAD PUSH1 0x40 DUP5 ADD MSTORE PUSH1 0x60 DUP3 ADD MLOAD PUSH1 0x60 DUP5 ADD MSTORE PUSH1 0x80 DUP3 ADD MLOAD PUSH1 0x80 DUP5 ADD MSTORE PUSH1 0xA0 DUP3 ADD MLOAD PUSH1 0xA0 DUP5 ADD MSTORE PUSH1 0xC0 DUP3 ADD MLOAD PUSH1 0xC0 DUP5 ADD MSTORE PUSH1 0xE0 DUP3 ADD MLOAD PUSH1 0xE0 DUP5 ADD MSTORE PUSH2 0x100 DUP3 ADD MLOAD PUSH1 0x1 PUSH1 0x1 PUSH1 0x40 SHL SUB DUP2 GT PUSH2 0x1F62 JUMPI DUP2 PUSH2 0x30E7 SWAP2 DUP5 ADD PUSH2 0x2FC8 JUMP JUMPDEST PUSH2 0x100 DUP5 ADD MSTORE PUSH2 0x120 DUP3 ADD MLOAD PUSH1 0x1 PUSH1 0x1 PUSH1 0x40 SHL SUB DUP2 GT PUSH2 0x1F62 JUMPI DUP2 PUSH2 0x310D SWAP2 DUP5 ADD PUSH2 0x2FC8 JUMP JUMPDEST PUSH2 0x120 DUP5 ADD MSTORE PUSH2 0x140 DUP3 ADD MLOAD PUSH1 0x1 PUSH1 0x1 PUSH1 0x40 SHL SUB DUP2 GT PUSH2 0x1F62 JUMPI PUSH2 0x3131 SWAP3 ADD PUSH2 0x2A37 JUMP JUMPDEST PUSH2 0x140 DUP3 ADD MSTORE SWAP1 JUMP JUMPDEST SWAP1 SWAP2 PUSH2 0x3151 PUSH2 0x2823 SWAP4 PUSH1 0x40 DUP5 MSTORE PUSH1 0x40 DUP5 ADD SWAP1 PUSH2 0x2234 JUMP JUMPDEST SWAP2 PUSH1 0x20 DUP2 DUP5 SUB SWAP2 ADD MSTORE PUSH2 0x2234 JUMP JUMPDEST PUSH2 0x3177 PUSH1 0x40 SWAP3 SWAP6 SWAP5 SWAP4 SWAP6 PUSH1 0x60 DUP4 MSTORE PUSH1 0x60 DUP4 ADD SWAP1 PUSH2 0x2234 JUMP JUMPDEST PUSH1 0x1 PUSH1 0x1 PUSH1 0xA0 SHL SUB SWAP1 SWAP6 AND PUSH1 0x20 DUP3 ADD MSTORE ADD MSTORE JUMP JUMPDEST PUSH1 0x2 PUSH0 SLOAD EQ PUSH2 0x319A JUMPI PUSH1 0x2 PUSH0 SSTORE JUMP JUMPDEST PUSH4 0x3EE5AEB5 PUSH1 0xE0 SHL PUSH0 MSTORE PUSH1 0x4 PUSH0 REVERT INVALID LOG2 PUSH5 0x6970667358 0x22 SLT KECCAK256 PUSH13 0x4154B98E025F110A0B78AFF46E PUSH1 0xB9 ADD 0xD6 SWAP15 EXTCODECOPY PUSH6 0xB7B4DDCAE6B5 PUSH17 0x658FDF7664736F6C634300081B00330000 "},"methodIdentifiers":{"approveCdob((string,string,string,string,address),string,uint8)":"2dbcaf0f","approveCpotb((string,string,string,string,address),string,uint8)":"4e03317b","approveExtendCdob(string,string)":"9c6b1f10","approveExtendCpotb(string,string)":"b0730436","cdobCertificate()":"af3a1758","cpotbCertificate()":"d369111d","extendCdob(string,uint256)":"93b73ba2","extendCpotb(string,uint256,(string,string,string,string,string,string))":"4ad8f1a4","getAllCdob()":"f14261d2","getAllCpotb()":"5850607c","getCdobByInstance(string)":"d0927b19","getCdobDetails(string)":"7e8f8da7","getCpotbByInstance(string)":"51c2d326","getCpotbDetails(string)":"70c056b0","getRejectMsgCdob(string)":"17d96797","getRejectMsgCpotb(string)":"1a898044","rejectCdob(string,string,string,string,uint8)":"41ee1495","rejectCpotb(string,string,string,string,uint8)":"9c0abfd8","renewCdob((string,string,string,address),(string,string),(string,string,string,string,string,string,string,string))":"bbd0b8a9","renewCpotb((string,string,string,address),(string,string,string),(string,string))":"cb43b77f","requestCdob((string,string,string,address),uint8,(string,string),(string,string,string,string,string,string,string,string))":"1d430349","requestCpotb((string,string,string,address),uint8,string,(string,string,string),(string,string))":"87fecd3e","roleManager()":"00435da5"}}}}}