{"contracts/CpotbCertificate.sol":{"CpotbCertificate":{"abi":[{"inputs":[{"internalType":"uint256","name":"","type":"uint256"}],"name":"allCpotbData","outputs":[{"internalType":"string","name":"certId","type":"string"},{"internalType":"string","name":"certNumber","type":"string"},{"internalType":"string","name":"instanceName","type":"string"},{"internalType":"uint8","name":"tipePermohonan","type":"uint8"},{"internalType":"enum EnumsLibrary.StatusCertificate","name":"status","type":"uint8"},{"internalType":"string","name":"certHash","type":"string"},{"internalType":"uint256","name":"expiredTimestamp","type":"uint256"}],"stateMutability":"view","type":"function"},{"inputs":[{"internalType":"string","name":"certNumber","type":"string"},{"internalType":"string","name":"certId","type":"string"},{"internalType":"string","name":"bpomName","type":"string"},{"internalType":"string","name":"bpomInstance","type":"string"},{"internalType":"address","name":"bpomAddr","type":"address"},{"internalType":"string","name":"ipfsCert","type":"string"}],"name":"approveCpotb","outputs":[],"stateMutability":"nonpayable","type":"function"},{"inputs":[{"internalType":"string","name":"certId","type":"string"},{"internalType":"string","name":"ipfsCert","type":"string"}],"name":"approveExtendCpotb","outputs":[],"stateMutability":"nonpayable","type":"function"},{"inputs":[{"internalType":"string","name":"","type":"string"}],"name":"certDetailById","outputs":[{"internalType":"enum EnumsLibrary.StatusCertificate","name":"status","type":"uint8"},{"internalType":"uint256","name":"timestampRequest","type":"uint256"},{"internalType":"uint256","name":"timestampApprove","type":"uint256"},{"internalType":"uint256","name":"timestampRejected","type":"uint256"},{"internalType":"uint256","name":"timestampRenewRequest","type":"uint256"},{"internalType":"uint256","name":"timestampExpired","type":"uint256"},{"internalType":"uint256","name":"timestampExtendRequest","type":"uint256"},{"internalType":"uint256","name":"timestampExtendApprove","type":"uint256"},{"components":[{"internalType":"string","name":"userName","type":"string"},{"internalType":"string","name":"userInstance","type":"string"},{"internalType":"address","name":"userAddr","type":"address"}],"internalType":"struct BaseCertificate.UserCert","name":"sender","type":"tuple"},{"components":[{"internalType":"string","name":"userName","type":"string"},{"internalType":"string","name":"userInstance","type":"string"},{"internalType":"address","name":"userAddr","type":"address"}],"internalType":"struct BaseCertificate.UserCert","name":"bpom","type":"tuple"},{"internalType":"string","name":"ipfsCert","type":"string"}],"stateMutability":"view","type":"function"},{"inputs":[{"internalType":"string","name":"","type":"string"}],"name":"cpotbDataById","outputs":[{"internalType":"string","name":"cpotbId","type":"string"},{"internalType":"string","name":"cpotbNumber","type":"string"},{"internalType":"uint8","name":"tipePermohonan","type":"uint8"},{"internalType":"string","name":"factoryType","type":"string"}],"stateMutability":"view","type":"function"},{"inputs":[{"components":[{"internalType":"string","name":"userName","type":"string"},{"internalType":"string","name":"userInstance","type":"string"},{"internalType":"address","name":"userAddr","type":"address"}],"internalType":"struct BaseCertificate.UserCert","name":"senderData","type":"tuple"},{"components":[{"internalType":"string","name":"userName","type":"string"},{"internalType":"string","name":"userInstance","type":"string"},{"internalType":"address","name":"userAddr","type":"address"}],"internalType":"struct BaseCertificate.UserCert","name":"bpomData","type":"tuple"},{"internalType":"string","name":"certId","type":"string"}],"name":"createCertificateDetails","outputs":[],"stateMutability":"nonpayable","type":"function"},{"inputs":[{"internalType":"string","name":"userName","type":"string"},{"internalType":"string","name":"userInstance","type":"string"},{"internalType":"address","name":"userAddr","type":"address"}],"name":"createUserCertificate","outputs":[{"components":[{"internalType":"string","name":"userName","type":"string"},{"internalType":"string","name":"userInstance","type":"string"},{"internalType":"address","name":"userAddr","type":"address"}],"internalType":"struct BaseCertificate.UserCert","name":"","type":"tuple"}],"stateMutability":"pure","type":"function"},{"inputs":[{"internalType":"string","name":"","type":"string"}],"name":"dokuAdminById","outputs":[{"internalType":"string","name":"suratPermohonan","type":"string"},{"internalType":"string","name":"buktiPembayaranNegaraBukanPajak","type":"string"},{"internalType":"string","name":"suratKomitmen","type":"string"}],"stateMutability":"view","type":"function"},{"inputs":[{"internalType":"string","name":"","type":"string"}],"name":"dokuReSertifikasiById","outputs":[{"internalType":"string","name":"suratPermohonan","type":"string"},{"internalType":"string","name":"buktiPembayaranNegaraBukanPajak","type":"string"},{"internalType":"string","name":"denahBangunan","type":"string"},{"internalType":"string","name":"sistemMutu","type":"string"},{"internalType":"string","name":"cpotbIpfs","type":"string"},{"internalType":"string","name":"dokumenCapa","type":"string"}],"stateMutability":"view","type":"function"},{"inputs":[{"internalType":"string","name":"","type":"string"}],"name":"dokuTeknisById","outputs":[{"internalType":"string","name":"denahBangunan","type":"string"},{"internalType":"string","name":"sistemMutu","type":"string"}],"stateMutability":"view","type":"function"},{"inputs":[{"internalType":"string","name":"certId","type":"string"},{"internalType":"uint256","name":"expTimestamp","type":"uint256"},{"components":[{"internalType":"string","name":"suratPermohonan","type":"string"},{"internalType":"string","name":"buktiPembayaranNegaraBukanPajak","type":"string"},{"internalType":"string","name":"denahBangunan","type":"string"},{"internalType":"string","name":"sistemMutu","type":"string"},{"internalType":"string","name":"cpotbIpfs","type":"string"},{"internalType":"string","name":"dokumenCapa","type":"string"}],"internalType":"struct CpotbCertificate.DokumenReSertifikasi","name":"newDoku","type":"tuple"}],"name":"extendCpotb","outputs":[],"stateMutability":"nonpayable","type":"function"},{"inputs":[],"name":"getAllCpotb","outputs":[{"components":[{"internalType":"string","name":"certId","type":"string"},{"internalType":"string","name":"certNumber","type":"string"},{"internalType":"string","name":"instanceName","type":"string"},{"internalType":"uint8","name":"tipePermohonan","type":"uint8"},{"internalType":"enum EnumsLibrary.StatusCertificate","name":"status","type":"uint8"},{"internalType":"string","name":"certHash","type":"string"},{"internalType":"uint256","name":"expiredTimestamp","type":"uint256"}],"internalType":"struct CpotbCertificate.CertificateList[]","name":"","type":"tuple[]"}],"stateMutability":"view","type":"function"},{"inputs":[{"internalType":"string","name":"instanceName","type":"string"}],"name":"getAllCpotbByInstance","outputs":[{"components":[{"internalType":"string","name":"certId","type":"string"},{"internalType":"string","name":"certNumber","type":"string"},{"internalType":"string","name":"instanceName","type":"string"},{"internalType":"uint8","name":"tipePermohonan","type":"uint8"},{"internalType":"enum EnumsLibrary.StatusCertificate","name":"status","type":"uint8"},{"internalType":"string","name":"certHash","type":"string"},{"internalType":"uint256","name":"expiredTimestamp","type":"uint256"}],"internalType":"struct CpotbCertificate.CertificateList[]","name":"","type":"tuple[]"}],"stateMutability":"view","type":"function"},{"inputs":[{"internalType":"string","name":"certId","type":"string"}],"name":"getCertDetail","outputs":[{"components":[{"internalType":"enum EnumsLibrary.StatusCertificate","name":"status","type":"uint8"},{"internalType":"uint256","name":"timestampRequest","type":"uint256"},{"internalType":"uint256","name":"timestampApprove","type":"uint256"},{"internalType":"uint256","name":"timestampRejected","type":"uint256"},{"internalType":"uint256","name":"timestampRenewRequest","type":"uint256"},{"internalType":"uint256","name":"timestampExpired","type":"uint256"},{"internalType":"uint256","name":"timestampExtendRequest","type":"uint256"},{"internalType":"uint256","name":"timestampExtendApprove","type":"uint256"},{"components":[{"internalType":"string","name":"userName","type":"string"},{"internalType":"string","name":"userInstance","type":"string"},{"internalType":"address","name":"userAddr","type":"address"}],"internalType":"struct BaseCertificate.UserCert","name":"sender","type":"tuple"},{"components":[{"internalType":"string","name":"userName","type":"string"},{"internalType":"string","name":"userInstance","type":"string"},{"internalType":"address","name":"userAddr","type":"address"}],"internalType":"struct BaseCertificate.UserCert","name":"bpom","type":"tuple"},{"internalType":"string","name":"ipfsCert","type":"string"}],"internalType":"struct BaseCertificate.CertificateDetails","name":"","type":"tuple"}],"stateMutability":"view","type":"function"},{"inputs":[{"internalType":"string","name":"certId","type":"string"}],"name":"getCertDetails","outputs":[{"components":[{"internalType":"enum EnumsLibrary.StatusCertificate","name":"status","type":"uint8"},{"internalType":"uint256","name":"timestampRequest","type":"uint256"},{"internalType":"uint256","name":"timestampApprove","type":"uint256"},{"internalType":"uint256","name":"timestampRejected","type":"uint256"},{"internalType":"uint256","name":"timestampRenewRequest","type":"uint256"},{"internalType":"uint256","name":"timestampExpired","type":"uint256"},{"internalType":"uint256","name":"timestampExtendRequest","type":"uint256"},{"internalType":"uint256","name":"timestampExtendApprove","type":"uint256"},{"components":[{"internalType":"string","name":"userName","type":"string"},{"internalType":"string","name":"userInstance","type":"string"},{"internalType":"address","name":"userAddr","type":"address"}],"internalType":"struct BaseCertificate.UserCert","name":"sender","type":"tuple"},{"components":[{"internalType":"string","name":"userName","type":"string"},{"internalType":"string","name":"userInstance","type":"string"},{"internalType":"address","name":"userAddr","type":"address"}],"internalType":"struct BaseCertificate.UserCert","name":"bpom","type":"tuple"},{"internalType":"string","name":"ipfsCert","type":"string"}],"internalType":"struct BaseCertificate.CertificateDetails","name":"","type":"tuple"}],"stateMutability":"view","type":"function"},{"inputs":[{"internalType":"string","name":"certId","type":"string"}],"name":"getCpotbDetails","outputs":[{"components":[{"internalType":"string","name":"cpotbId","type":"string"},{"internalType":"string","name":"cpotbNumber","type":"string"},{"internalType":"uint8","name":"tipePermohonan","type":"uint8"},{"internalType":"string","name":"factoryType","type":"string"}],"internalType":"struct CpotbCertificate.CpotbData","name":"","type":"tuple"},{"components":[{"internalType":"string","name":"suratPermohonan","type":"string"},{"internalType":"string","name":"buktiPembayaranNegaraBukanPajak","type":"string"},{"internalType":"string","name":"suratKomitmen","type":"string"}],"internalType":"struct CpotbCertificate.DokumenAdministrasi","name":"","type":"tuple"},{"components":[{"internalType":"string","name":"denahBangunan","type":"string"},{"internalType":"string","name":"sistemMutu","type":"string"}],"internalType":"struct CpotbCertificate.DokumenTeknis","name":"","type":"tuple"},{"components":[{"internalType":"string","name":"suratPermohonan","type":"string"},{"internalType":"string","name":"buktiPembayaranNegaraBukanPajak","type":"string"},{"internalType":"string","name":"denahBangunan","type":"string"},{"internalType":"string","name":"sistemMutu","type":"string"},{"internalType":"string","name":"cpotbIpfs","type":"string"},{"internalType":"string","name":"dokumenCapa","type":"string"}],"internalType":"struct CpotbCertificate.DokumenReSertifikasi","name":"","type":"tuple"}],"stateMutability":"view","type":"function"},{"inputs":[{"internalType":"string","name":"certId","type":"string"}],"name":"getRejectMsg","outputs":[{"internalType":"string","name":"","type":"string"}],"stateMutability":"view","type":"function"},{"inputs":[{"internalType":"string","name":"certId","type":"string"}],"name":"getRejectsMsg","outputs":[{"internalType":"string","name":"","type":"string"}],"stateMutability":"view","type":"function"},{"inputs":[{"internalType":"string","name":"certId","type":"string"}],"name":"getSenderDetail","outputs":[{"components":[{"internalType":"string","name":"userName","type":"string"},{"internalType":"string","name":"userInstance","type":"string"},{"internalType":"address","name":"userAddr","type":"address"}],"internalType":"struct BaseCertificate.UserCert","name":"","type":"tuple"}],"stateMutability":"view","type":"function"},{"inputs":[{"internalType":"string","name":"certId","type":"string"},{"internalType":"string","name":"rejectMsg","type":"string"},{"internalType":"string","name":"bpomName","type":"string"},{"internalType":"string","name":"bpomInstance","type":"string"},{"internalType":"address","name":"bpomAddr","type":"address"}],"name":"rejectCpotb","outputs":[],"stateMutability":"nonpayable","type":"function"},{"inputs":[{"internalType":"string","name":"","type":"string"}],"name":"rejectMsgById","outputs":[{"internalType":"string","name":"","type":"string"}],"stateMutability":"view","type":"function"},{"inputs":[{"internalType":"string","name":"certId","type":"string"},{"components":[{"internalType":"string","name":"suratPermohonan","type":"string"},{"internalType":"string","name":"buktiPembayaranNegaraBukanPajak","type":"string"},{"internalType":"string","name":"suratKomitmen","type":"string"}],"internalType":"struct CpotbCertificate.DokumenAdministrasi","name":"newDokuAdmin","type":"tuple"},{"components":[{"internalType":"string","name":"denahBangunan","type":"string"},{"internalType":"string","name":"sistemMutu","type":"string"}],"internalType":"struct CpotbCertificate.DokumenTeknis","name":"newDokuTeknis","type":"tuple"}],"name":"renewRequestCpotb","outputs":[],"stateMutability":"nonpayable","type":"function"},{"inputs":[{"internalType":"string","name":"certId","type":"string"},{"internalType":"string","name":"factoryName","type":"string"},{"internalType":"string","name":"factoryInstance","type":"string"},{"internalType":"address","name":"factoryAddr","type":"address"},{"internalType":"uint8","name":"jenisSediaan","type":"uint8"},{"internalType":"string","name":"factoryType","type":"string"},{"components":[{"internalType":"string","name":"suratPermohonan","type":"string"},{"internalType":"string","name":"buktiPembayaranNegaraBukanPajak","type":"string"},{"internalType":"string","name":"suratKomitmen","type":"string"}],"internalType":"struct CpotbCertificate.DokumenAdministrasi","name":"dokuAdmin","type":"tuple"},{"components":[{"internalType":"string","name":"denahBangunan","type":"string"},{"internalType":"string","name":"sistemMutu","type":"string"}],"internalType":"struct CpotbCertificate.DokumenTeknis","name":"dokuTeknis","type":"tuple"}],"name":"requestCpotb","outputs":[],"stateMutability":"nonpayable","type":"function"},{"inputs":[{"internalType":"string","name":"certId","type":"string"},{"internalType":"string","name":"ipfsCert","type":"string"},{"components":[{"internalType":"string","name":"userName","type":"string"},{"internalType":"string","name":"userInstance","type":"string"},{"internalType":"address","name":"userAddr","type":"address"}],"internalType":"struct BaseCertificate.UserCert","name":"bpomData","type":"tuple"}],"name":"updateBpomApproveDetails","outputs":[],"stateMutability":"nonpayable","type":"function"},{"inputs":[{"internalType":"string","name":"certId","type":"string"},{"internalType":"string","name":"ipfsCert","type":"string"}],"name":"updateBpomApproveExtendCertificateDetails","outputs":[],"stateMutability":"nonpayable","type":"function"},{"inputs":[{"internalType":"string","name":"certId","type":"string"},{"internalType":"string","name":"ipfsCert","type":"string"}],"name":"updateBpomExtendCertificateDetails","outputs":[],"stateMutability":"nonpayable","type":"function"},{"inputs":[{"internalType":"string","name":"certId","type":"string"},{"internalType":"string","name":"rejectMsg","type":"string"},{"components":[{"internalType":"string","name":"userName","type":"string"},{"internalType":"string","name":"userInstance","type":"string"},{"internalType":"address","name":"userAddr","type":"address"}],"internalType":"struct BaseCertificate.UserCert","name":"bpomData","type":"tuple"}],"name":"updateBpomRejectDetails","outputs":[],"stateMutability":"nonpayable","type":"function"},{"inputs":[{"internalType":"string","name":"certId","type":"string"},{"internalType":"uint256","name":"expiredTimestamp","type":"uint256"}],"name":"updateExtendRenewDetails","outputs":[],"stateMutability":"nonpayable","type":"function"},{"inputs":[{"internalType":"string","name":"certId","type":"string"}],"name":"updateRenewDetails","outputs":[],"stateMutability":"nonpayable","type":"function"}],"evm":{"bytecode":{"linkReferences":{},"object":"60808060405234601557614ed3908161001a8239f35b5f80fdfe60806040526004361015610011575f80fd5b5f3560e01c806317e683091461355557806319859c871461351d5780632e9cf8271461349957806334a34f301461338e5780634ad8f1a414612b17578063500619d014612a965780635691acf7146129965780635850607c1461292e57806364b409ff146119a45780636aa81299146118f05780636d1aa7d51461150857806370c056b014611543578063761fb19a146115085780637ab096481461146157806381fc60a5146112f25780639740dbed146112b65780639aaa5d8b1461127b578063b0730436146111b3578063b9e4908014610d05578063be2e232514610cb5578063bf3f80ac14610c47578063d26196fd14610c30578063e462dde514610af7578063e8002b2714610451578063e9c260d71461043a578063f02f5f2314610366578063f5104ff11461034f578063f53ef126146101d75763fb5fb9a314610158575f80fd5b346101d35760603660031901126101d3576004356001600160401b0381116101d357610188903690600401613b12565b6024356001600160401b0381116101d3576101a7903690600401613b12565b90604435916001600160401b0383116101d3576101cb6101d193369060040161367a565b9161484e565b005b5f80fd5b346101d3576020806101e836613ac8565b9290604051928184925191829101835e81015f815203019020426002820155608242019081421161033b57600e916005820155600660ff198254161781550181516001600160401b038111610327576102418254613747565b601f81116102e2575b50602092601f821160011461028657928192935f9261027b575b50505f19600383901b1c191660019190911b179055005b015190508380610264565b601f19821693835f52805f20915f5b8681106102ca57508360019596106102b2575b505050811b019055005b01515f1960f88460031b161c191690558380806102a8565b91926020600181928685015181550194019201610295565b825f5260205f20601f830160051c8101916020841061031d575b601f0160051c01905b818110610312575061024a565b5f8155600101610305565b90915081906102fc565b634e487b7160e01b5f52604160045260245ffd5b634e487b7160e01b5f52601160045260245ffd5b346101d3576101d161036036613b8a565b916144e0565b346101d35760203660031901126101d3576004356002548110156101d3576103906103ed91613bf2565b5061039a8161377f565b906104306103aa6001830161377f565b916103b76002820161377f565b906104236104096003830154936103fb60056103d56004870161377f565b950154976040519a8b9a60e08c5260e08c01906136cf565b908a820360208c01526136cf565b9088820360408a01526136cf565b9260ff8116606088015260ff608088019160081c1661385e565b84820360a08601526136cf565b9060c08301520390f35b346101d3576101d161044b36613b8a565b91614143565b346101d35760603660031901126101d3576004356001600160401b0381116101d35761048190369060040161367a565b6024356001600160401b0381116101d3576104a090369060040161393b565b906044356001600160401b0381116101d3576104c09036906004016139be565b6104c982613c42565b6002549160208101905f5b8481106104dd57005b6104e681613bf2565b5060405161050a816104fc602082018095613ca0565b03601f198101835282613659565b51902060405160208101906105376020828751808a875e81015f838201520301601f198101835282613659565b51902014610548575b6001016104d4565b600361055382613bf2565b5001805461ff00191661030017905561057d602061057083613bf2565b5060405192838092613ca0565b600481520301902086518051906001600160401b0382116103275781906105a48454613747565b601f8111610aa7575b50602090601f8311600114610a44575f92610a39575b50508160011b915f199060031b1c19161781555b6001810160208801518051906001600160401b038211610327576105fb8354613747565b601f81116109f4575b50602090601f831160011461098d576002949392915f9183610982575b50508160011b915f199060031b1c19161790555b0160408701518051906001600160401b0382116103275781906106588454613747565b601f8111610932575b50602090601f83116001146108cf575f926108c4575b50508160011b915f199060031b1c19161790555b610699602061057083613bf2565b600581520301902084518051906001600160401b038211610327576106be8354613747565b601f811161087f575b50602090601f83116001146108195760019392915f918361080e575b50505f19600383901b1c191690831b1781555b0160208501518051906001600160401b038211610327576107178354613747565b601f81116107c9575b50602090601f8311600114610762576001949392915f9183610757575b50505f19600383901b1c191690841b1790555b9050610540565b015190508a8061073d565b90601f19831691845f52815f20925f5b8181106107b1575091600196959492918388959310610799575b505050811b019055610750565b01515f1960f88460031b161c191690558a808061078c565b92936020600181928786015181550195019301610772565b835f5260205f20601f840160051c81019160208510610804575b601f0160051c01905b8181106107f95750610720565b5f81556001016107ec565b90915081906107e3565b015190508a806106e3565b90601f19831691845f52815f20925f5b818110610867575091600195949291838795931061084f575b505050811b0181556106f6565b01515f1960f88460031b161c191690558a8080610842565b92936020600181928786015181550195019301610829565b835f5260205f20601f840160051c810191602085106108ba575b601f0160051c01905b8181106108af57506106c7565b5f81556001016108a2565b9091508190610899565b015190508980610677565b5f8581528281209350601f198516905b81811061091a5750908460019594939210610902575b505050811b01905561068b565b01515f1960f88460031b161c191690558980806108f5565b929360206001819287860151815501950193016108df565b909150835f5260205f20601f840160051c81019160208510610978575b90601f859493920160051c01905b81811061096a5750610661565b5f815584935060010161095d565b909150819061094f565b015190508b80610621565b90601f19831691845f52815f20925f5b8181106109dc5750916001939185600298979694106109c4575b505050811b019055610635565b01515f1960f88460031b161c191690558b80806109b7565b9293602060018192878601518155019501930161099d565b835f5260205f20601f840160051c81019160208510610a2f575b601f0160051c01905b818110610a245750610604565b5f8155600101610a17565b9091508190610a0e565b0151905089806105c3565b5f8581528281209350601f198516905b818110610a8f5750908460019594939210610a77575b505050811b0181556105d7565b01515f1960f88460031b161c19169055898080610a6a565b92936020600181928786015181550195019301610a54565b909150835f5260205f20601f840160051c81019160208510610aed575b90601f859493920160051c01905b818110610adf57506105ad565b5f8155849350600101610ad2565b9091508190610ac4565b346101d35760a03660031901126101d3576004356001600160401b0381116101d357610b2790369060040161367a565b6024356001600160401b0381116101d357610b4690369060040161367a565b6044356001600160401b0381116101d357610b6590369060040161367a565b906064356001600160401b0381116101d357610ba192610b8c610b9a92369060040161367a565b610b94613731565b91613c70565b9083614143565b600254602082015f5b828110610bb357005b80610bbf600192613bf2565b50604051610bd5816104fc602082018095613ca0565b5190206040516020810190610c026020828a51808a875e81015f838201520301601f198101835282613659565b51902014610c11575b01610baa565b6003610c1c82613bf2565b5001805461ff001916610200179055610c0b565b346101d3576101d1610c4136613ac8565b90614000565b346101d35760203660031901126101d3576004356001600160401b0381116101d357610c9d602080610c80610cb194369060040161367a565b604051928184925191829101835e8101600181520301902061377f565b6040519182916020835260208301906136cf565b0390f35b346101d35760203660031901126101d3576004356001600160401b0381116101d357610cf9610ceb610cb192369060040161367a565b610cf3613ee4565b50613f43565b60405191829182613a18565b346101d35760c03660031901126101d3576004356001600160401b0381116101d357610d3590369060040161367a565b6024356001600160401b0381116101d357610d5490369060040161367a565b6044356001600160401b0381116101d357610d7390369060040161367a565b6064356001600160401b0381116101d357610d9290369060040161367a565b610d9a613731565b60a435916001600160401b0383116101d357610dbd610dc393369060040161367a565b93613c70565b604051906001845192602081818801958087835e810160038152030190200185516001600160401b03811161032757610dfc8254613747565b601f811161116e575b506020601f8211600114611107579080610e3c9493925f916110fc575b508160011b915f199060031b1c19161790555b83856144e0565b600254925f5b848110610e4b57005b610e5481613bf2565b50604051610e6a816104fc602082018095613ca0565b5190206040516020810190610e976020828751808a875e81015f838201520301601f198101835282613659565b51902014610ea8575b600101610e42565b6001610eb382613bf2565b500186516001600160401b03811161032757610ecf8254613747565b601f81116110b7575b50806020601f8211600114611054575f91611049575b508160011b915f199060031b1c19161790555b6003610f0c82613bf2565b5001805461ff0019166101001790556004610f2682613bf2565b500184516001600160401b03811161032757610f428254613747565b601f8111611004575b50806020601f8211600114610fa3575f91610f98575b508160011b915f199060031b1c19161790555b608242019081421161033b576001916005610f8e83613bf2565b5001559050610ea0565b905086015189610f61565b5f8481528181209250601f198416905b818110610fec57509083600194939210610fd4575b5050811b019055610f74565b8801515f1960f88460031b161c191690558980610fc8565b9192602060018192868d015181550194019201610fb3565b825f5260205f20601f830160051c8101916020841061103f575b601f0160051c01905b8181106110345750610f4b565b5f8155600101611027565b909150819061101e565b905088015189610eee565b5f8481528181209250601f198416905b8b82821061109f5750509083600194939210611087575b5050811b019055610f01565b8a01515f1960f88460031b161c19169055898061107b565b60018495602093958493015181550194019201611064565b825f5260205f20601f830160051c810191602084106110f2575b601f0160051c01905b8181106110e75750610ed8565b5f81556001016110da565b90915081906110d1565b905088015189610e22565b601f19821690835f52805f20915f5b8a828210611156575050918391610e3c9695946001941061113e575b5050811b019055610e35565b8a01515f1960f88460031b161c191690558980611132565b60018495602093958493015181550194019201611116565b825f5260205f20601f830160051c810191602084106111a9575b601f0160051c01905b81811061119e5750610e05565b5f8155600101611191565b9091508190611188565b346101d3576111cc6111c436613ac8565b819291614000565b6002549060208101905f5b8381106111e057005b6111e981613bf2565b506040516111ff816104fc602082018095613ca0565b519020604051602081019061122c6020828751808a875e81015f838201520301601f198101835282613659565b5190201461123d575b6001016111d7565b600361124882613bf2565b500161060061ff0019825416179055608242019081421161033b57600191600561127183613bf2565b5001559050611235565b346101d35760203660031901126101d3576004356001600160401b0381116101d357610cf96112b1610cb192369060040161367a565b613f43565b346101d35760403660031901126101d3576004356001600160401b0381116101d3576112e96101d191369060040161367a565b60243590613e69565b346101d35760203660031901126101d3576004356001600160401b0381116101d35761132290369060040161367a565b60025460208201915f805b8381106113fe575060ff6113419116613d21565b925f915f5b84811061135b5760405180610cb1888261386b565b60026104fc61138061136c84613bf2565b506040519283916020830195869101613ca0565b51902060405160208101906113ad6020828751808a875e81015f838201520301601f198101835282613659565b519020146113be575b600101611346565b926113f66001916113f06113da6113d488613bf2565b50613dbe565b60ff8316906113e9828c613d9e565b5289613d9e565b50613e35565b9390506113b6565b60026104fc61140f61136c84613bf2565b519020604051602081019061143c6020828851808c875e81015f838201520301601f198101835282613659565b5190201461144d575b60010161132d565b90611459600191613e35565b919050611445565b346101d35760203660031901126101d3576004356001600160401b0381116101d3576020806114976114ec93369060040161367a565b604051928184925191829101835e81016004815203019020610cb16114bb8261377f565b916114fa6114d760026114d06001850161377f565b930161377f565b916040519586956060875260608701906136cf565b9085820360208701526136cf565b9083820360408501526136cf565b346101d35760203660031901126101d3576004356001600160401b0381116101d357610c9d61153e610cb192369060040161367a565b613e46565b346101d35760203660031901126101d3576004356001600160401b0381116101d35761157390369060040161367a565b60405161157f816135d1565b606081526020810160609052604081015f9052606001606090526040516115a581613607565b606081526020810160609052604001606090526040516115c481613622565b60608152602001606090526040516115db816135b6565b60608152602081016060905260408101606090526060810160609052608081016060905260a00160609052604051908051918060208301938085835e810160038152036020019020906040518082518086835e810160048152036020019020926040518083518084835e81016005815203602001902091604051918291518091835e8101600681520360200190209260405193611677856135d1565b6116808461377f565b855261168e6001850161377f565b9360208601948552600281015460ff1690604087019182526003016116b29061377f565b9260608701938452604051946116c786613607565b6116d08261377f565b86526116de6001830161377f565b91602087019283526002016116f29061377f565b90604087019182526040519061170782613622565b6117108161377f565b825260010161171e9061377f565b6020820190815260405197611732896135b6565b61173b8761377f565b89526117496001880161377f565b60208a019081529361175d6002890161377f565b60408b019081529561177160038a0161377f565b60608c019081529761178560048b0161377f565b9960808d019a8b526005016117999061377f565b9a60a08d019b8c526040519e8f9e8f916080835251608083016080905261010083016117c4916136cf565b9051828203607f190160a08401526117dc91906136cf565b925160ff1660c090910152518d8203607f190160e08f01526117fe91906136cf565b928c808503906020015251606084526060840161181a916136cf565b905190838103602085015261182e916136cf565b9051918082039060400152611842916136cf565b9189830360408b015251604083526040830161185d916136cf565b9051918082039060200152611871916136cf565b9587870360608901525160c0875260c0870161188c916136cf565b90519086810360208801526118a0916136cf565b90519085810360408701526118b4916136cf565b90519084810360608601526118c8916136cf565b90519083810360808501526118dc916136cf565b9051918082039060a00152610cb1916136cf565b346101d35760203660031901126101d3576004356001600160401b0381116101d35760208061192661198393369060040161367a565b604051928184925191829101835e81016003815203019020610cb161194a8261377f565b916119576001820161377f565b61199161196e600360ff600286015416940161377f565b916040519687966080885260808801906136cf565b9086820360208801526136cf565b91604085015283820360608501526136cf565b346101d3576101003660031901126101d3576004356001600160401b0381116101d3576119d590369060040161367a565b6024356001600160401b0381116101d3576119f490369060040161367a565b6044356001600160401b0381116101d357611a1390369060040161367a565b916064356001600160a01b03811681036101d3576084359360ff85168095036101d35760a4356001600160401b0381116101d357611a5590369060040161367a565b9460c4356001600160401b0381116101d357611a7590369060040161393b565b9260e435906001600160401b0382116101d35783611a9a611aa09336906004016139be565b97613c70565b95611af08560209860405190611ab68b83613659565b5f8252604051611ac68c82613659565b5f8152611ad1613c22565b5060405192611adf84613607565b83528b8301525f604083015261484e565b604051611afc816135d1565b858152604051611b0c8982613659565b5f81528882019081526040820190848252606083019384526040518a818a5180838d01835e8101600381520301902092518051906001600160401b0382116103275781908c611b5b8754613747565b601f81116128dd575b50508c908d601f841160011461287957505f9261286e575b50508160011b915f199060031b1c19161783555b51805160018401916001600160401b038211610327578b611bb18454613747565b601f8111612829575b50508b908c601f84116001146127be5750918060ff949260039796945f926127b3575b50508160011b915f1990881b1c19161790555b511660ff60028301911660ff198254161790550190518051906001600160401b038211610327578190611c238454613747565b601f8111612765575b508990601f8311600114612702575f926126f7575b50508160011b915f199060031b1c19161790555b60405190611c62826135ec565b84825260405192611c738885613659565b5f8452878301938452604083015260608201525f6080820152604051611c998782613659565b5f815260a08201525f60c08201526002546801000000000000000081101561032757806001611ccb9201600255613bf2565b9290926126e45781518051906001600160401b038211610327578190611cf18654613747565b601f8111612696575b508990601f8311600114612633575f92612628575b50508160011b915f199060031b1c19161783555b518051906001600160401b038211610327578190611d446001860154613747565b601f81116125d7575b508890601f831160011461256d575f92612562575b50508160011b915f199060031b1c19161760018301555b6002820160408201518051906001600160401b038211610327578190611d9f8454613747565b601f8111612514575b508990601f83116001146124b1575f926124a6575b50508160011b915f199060031b1c19161790555b6003820160ff806060840151161660ff19825416178155608082015160078110156124925761ff0082549160081b169061ff0019161790556004820160a08201518051906001600160401b03821161032757611e2d8354613747565b601f811161244f575b508890601f83116001146123e657918060c09492600596945f926123db575b50508160011b915f199060031b1c19161790555b01519101556040518481845180838701835e8101600481520301902081518051906001600160401b038211610327578190611ea48454613747565b601f811161238d575b508790601f831160011461232a575f9261231f575b50508160011b915f199060031b1c19161781555b60018101858301518051906001600160401b03821161032757611ef98354613747565b601f81116122dc575b508790601f831160011461227357918060029492604096945f92612268575b50508160011b915f199060031b1c19161790555b01910151918251916001600160401b038311610327578592611f578254613747565b94601f8611612211575b8495508490601f83116001146121aa575f91908361219f575b50508160011b915f199060031b1c19161790555b604051928184925191829101835e8101600581520301902081519081516001600160401b038111610327578492611fc58354613747565b601f811161214d575b508390601f83116001146120e75760019392915f91836120dc575b50505f19600383901b1c191690831b1781555b01910151918251906001600160401b0382116103275761201c8354613747565b601f8111612099575b5080601f831160011461205357508192935f9261027b5750505f19600383901b1c191660019190911b179055005b90601f19831694845f52825f20925f905b8782106120815750508360019596106102b257505050811b019055005b80600185968294968601518155019501930190612064565b835f52815f20601f840160051c8101918385106120d2575b601f0160051c01905b8181106120c75750612025565b5f81556001016120ba565b90915081906120b1565b015190508780611fe9565b90601f19831691845f52855f20925f5b8782821061213757505091600195949291838795931061211f575b505050811b018155611ffc565b01515f1960f88460031b161c19169055878080612112565b60018596829396860151815501950193016120f7565b9091928094505f52855f20601f840160051c810191878510612195575b90601f8896959493920160051c01905b8181106121875750611fce565b5f815587955060010161217a565b909150819061216a565b015190508880611f7a565b601f95949392919519821695835f52855f20915f5b8881106121f9575083600195969798106121e1575b505050811b019055611f8e565b01515f1960f88460031b161c191690558880806121d4565b828201518455899760019094019392830192016121bf565b918094505f9591939552865f20601f840160051c81019188851061225e575b90601f899694979593920160051c01905b81811061225057505084611f61565b5f8155889550600101612241565b9091508190612230565b015190508a80611f21565b90601f19831691845f52895f20925f5b8b8282106122c65750509260019285926040989660029896106122ae575b505050811b019055611f35565b01515f1960f88460031b161c191690558a80806122a1565b6001859682939686015181550195019301612283565b835f52885f20601f840160051c8101918a8510612315575b601f0160051c01905b81811061230a5750611f02565b5f81556001016122fd565b90915081906122f4565b015190508780611ec2565b5f8581528981209350601f198516905b8a82821061237757505090846001959493921061235f575b505050811b018155611ed6565b01515f1960f88460031b161c19169055878080612352565b600185968293968601518155019501930161233a565b909150835f52875f20601f840160051c8101918985106123d1575b90601f859493920160051c01905b8181106123c35750611ead565b5f81558493506001016123b6565b90915081906123a8565b015190508b80611e55565b90601f19831691845f528a5f20925f5b8c8282106124395750509260019285926005989660c0989610612421575b505050811b019055611e69565b01515f1960f88460031b161c191690558b8080612414565b60018596829396860151815501950193016123f6565b835f52895f20601f840160051c8101918b8510612488575b601f0160051c01905b81811061247d5750611e36565b5f8155600101612470565b9091508190612467565b634e487b7160e01b5f52602160045260245ffd5b015190508980611dbd565b5f8581528b81209350601f198516905b8c8282106124fe5750509084600195949392106124e6575b505050811b019055611dd1565b01515f1960f88460031b161c191690558980806124d9565b60018596829396860151815501950193016124c1565b909150835f52895f20601f840160051c8101918b8510612558575b90601f859493920160051c01905b81811061254a5750611da8565b5f815584935060010161253d565b909150819061252f565b015190508880611d62565b600186015f9081528a81209350601f198516905b8b8282106125c15750509084600195949392106125a9575b505050811b016001830155611d79565b01515f1960f88460031b161c19169055888080612599565b6001859682939686015181550195019301612581565b909150600185015f52885f20601f840160051c8101918a851061261e575b90601f859493920160051c01905b8181106126105750611d4d565b5f8155849350600101612603565b90915081906125f5565b015190508980611d0f565b5f8781528b81209350601f198516905b8c828210612680575050908460019594939210612668575b505050811b018355611d23565b01515f1960f88460031b161c1916905589808061265b565b6001859682939686015181550195019301612643565b909150855f52895f20601f840160051c8101918b85106126da575b90601f859493920160051c01905b8181106126cc5750611cfa565b5f81558493506001016126bf565b90915081906126b1565b634e487b7160e01b5f525f60045260245ffd5b015190508980611c41565b5f8581528b81209350601f198516905b8c82821061274f575050908460019594939210612737575b505050811b019055611c55565b01515f1960f88460031b161c1916905589808061272a565b6001859682939686015181550195019301612712565b909150835f52895f20601f840160051c8101918b85106127a9575b90601f859493920160051c01905b81811061279b5750611c2c565b5f815584935060010161278e565b9091508190612780565b015190508e80611bdd565b9190601f198416855f52835f20935f905b828210612811575050926001928592600399989660ff9896106127fa575b505050811b019055611bf0565b01515f19838a1b60f8161c191690558e80806127ed565b806001869782949787015181550196019401906127cf565b845f52815f2090601f850160051c8201928510612864575b601f0160051c01905b818110612859578d9150611bba565b5f815560010161284a565b9091508190612841565b015190508c80611b7c565b5f8881528181209450601f198616915b8282106128c55750509084600195949392106128ad575b505050811b018355611b90565b01515f1960f88460031b161c191690558c80806128a0565b80600186978294978701518155019601940190612889565b90919250865f52815f2090601f850160051c8201928510612924575b90601f859493920160051c01905b818110612916578e9150611b64565b5f8155849350600101612907565b90915081906128f9565b346101d3575f3660031901126101d35760025461294a81613d21565b905f805b8282106129635760405180610cb1868261386b565b61298e6001916113f06129786113d486613bf2565b60ff831690612987828a613d9e565b5287613d9e565b91019061294e565b346101d35760203660031901126101d3576004356001600160401b0381116101d3576020806129cc612a5093369060040161367a565b604051928184925191829101835e81016006815203019020610cb16129f08261377f565b91612a88612a006001830161377f565b91612a7a612a106002830161377f565b612a6c612a1f6003850161377f565b91612a5e612a3b6005612a346004890161377f565b970161377f565b976040519b8c9b60c08d5260c08d01906136cf565b908b820360208d01526136cf565b9089820360408b01526136cf565b9087820360608901526136cf565b9085820360808701526136cf565b9083820360a08501526136cf565b346101d35760203660031901126101d3576004356001600160401b0381116101d357602080612acc612b0993369060040161367a565b604051928184925191829101835e81016005815203019020610cb1612af560016114d08461377f565b6040519384936040855260408501906136cf565b9083820360208501526136cf565b346101d35760603660031901126101d3576004356001600160401b0381116101d357612b4790369060040161367a565b6044356001600160401b0381116101d35760c060031982360301126101d35760405190612b73826135b6565b80600401356001600160401b0381116101d357612b96906004369184010161367a565b825260248101356001600160401b0381116101d357612bbb906004369184010161367a565b906020830191825260448101356001600160401b0381116101d357612be6906004369184010161367a565b926040810193845260648201356001600160401b0381116101d357612c11906004369185010161367a565b916060820192835260848101356001600160401b0381116101d357612c3c906004369184010161367a565b906080830191825260a4810135906001600160401b0382116101d3576004612c67923692010161367a565b9260a08301938452612c7b60243588613e69565b6002549560405195885196602081818c0199808b835e8101600681520301902094518051906001600160401b038211610327578190612cba8854613747565b601f811161333e575b50602090601f83116001146132db575f926132d0575b50508160011b915f199060031b1c19161785555b51805160018601916001600160401b038211610327578190612d0f8454613747565b601f8111613280575b50602090601f831160011461321d575f92613212575b50508160011b915f199060031b1c19161790555b51805160028501916001600160401b038211610327578190612d648454613747565b601f81116131c2575b50602090601f831160011461315f575f92613154575b50508160011b915f199060031b1c19161790555b51805160038401916001600160401b038211610327578190612db98454613747565b601f8111613104575b50602090601f83116001146130a1575f92613096575b50508160011b915f199060031b1c19161790555b51805160048301916001600160401b03821161032757612e0c8354613747565b601f8111613051575b50602090601f8311600114612fea576005949392915f9183612fdf575b50508160011b915f199060031b1c19161790555b0190518051906001600160401b038211610327578190612e668454613747565b601f8111612f8f575b50602090601f8311600114612f2c575f92612f21575b50508160011b915f199060031b1c19161790555b5f5b828110612ea457005b80612eb0600192613bf2565b50604051612ec6816104fc602082018095613ca0565b5190206040516020810190612ef36020828a51808a875e81015f838201520301601f198101835282613659565b51902014612f02575b01612e9b565b6003612f0d82613bf2565b5001805461ff001916610500179055612efc565b015190508680612e85565b5f8581528281209350601f198516905b818110612f775750908460019594939210612f5f575b505050811b019055612e99565b01515f1960f88460031b161c19169055868080612f52565b92936020600181928786015181550195019301612f3c565b909150835f5260205f20601f840160051c81019160208510612fd5575b90601f859493920160051c01905b818110612fc75750612e6f565b5f8155849350600101612fba565b9091508190612fac565b015190508980612e32565b90601f19831691845f52815f20925f5b818110613039575091600193918560059897969410613021575b505050811b019055612e46565b01515f1960f88460031b161c19169055898080613014565b92936020600181928786015181550195019301612ffa565b835f5260205f20601f840160051c8101916020851061308c575b601f0160051c01905b8181106130815750612e15565b5f8155600101613074565b909150819061306b565b015190508980612dd8565b5f8581528281209350601f198516905b8181106130ec57509084600195949392106130d4575b505050811b019055612dec565b01515f1960f88460031b161c191690558980806130c7565b929360206001819287860151815501950193016130b1565b909150835f5260205f20601f840160051c8101916020851061314a575b90601f859493920160051c01905b81811061313c5750612dc2565b5f815584935060010161312f565b9091508190613121565b015190508a80612d83565b5f8581528281209350601f198516905b8181106131aa5750908460019594939210613192575b505050811b019055612d97565b01515f1960f88460031b161c191690558a8080613185565b9293602060018192878601518155019501930161316f565b909150835f5260205f20601f840160051c81019160208510613208575b90601f859493920160051c01905b8181106131fa5750612d6d565b5f81558493506001016131ed565b90915081906131df565b015190508b80612d2e565b5f8581528281209350601f198516905b8181106132685750908460019594939210613250575b505050811b019055612d42565b01515f1960f88460031b161c191690558b8080613243565b9293602060018192878601518155019501930161322d565b909150835f5260205f20601f840160051c810191602085106132c6575b90601f859493920160051c01905b8181106132b85750612d18565b5f81558493506001016132ab565b909150819061329d565b015190508b80612cd9565b5f8981528281209350601f198516905b818110613326575090846001959493921061330e575b505050811b018555612ced565b01515f1960f88460031b161c191690558b8080613301565b929360206001819287860151815501950193016132eb565b909150875f5260205f20601f840160051c81019160208510613384575b90601f859493920160051c01905b8181106133765750612cc3565b5f8155849350600101613369565b909150819061335b565b346101d35760203660031901126101d3576004356001600160401b0381116101d3576133be90369060040161367a565b604051818192516020819201835e81015f8152036020019020805460ff16600182015491600281015490600381015460048201546005830154600684015490600785015492600886016134109061381f565b9461341d600b880161381f565b96600e0161342a9061377f565b976040519a61343a8c809c61385e565b60208b015260408a01526060890152608088015260a087015260c086015260e0850152610100840161016090526101608401613475916136f3565b838103610120850152613487916136f3565b828103610140840152610cb1916136cf565b346101d35760603660031901126101d3576004356001600160401b0381116101d3576134c990369060040161367a565b6024356001600160401b0381116101d3576134e890369060040161367a565b906044356001600160a01b03811681036101d357610cb19261350992613c70565b6040519182916020835260208301906136f3565b346101d35760203660031901126101d3576004356001600160401b0381116101d3576135506101d191369060040161367a565b613c42565b346101d35760203660031901126101d3576004356001600160401b0381116101d3576135096008602080613590610cb195369060040161367a565b613598613c22565b50604051928184925191829101835e81015f8152030190200161381f565b60c081019081106001600160401b0382111761032757604052565b608081019081106001600160401b0382111761032757604052565b60e081019081106001600160401b0382111761032757604052565b606081019081106001600160401b0382111761032757604052565b604081019081106001600160401b0382111761032757604052565b61016081019081106001600160401b0382111761032757604052565b90601f801991011681019081106001600160401b0382111761032757604052565b81601f820112156101d3578035906001600160401b03821161032757604051926136ae601f8401601f191660200185613659565b828452602083830101116101d357815f926020809301838601378301015290565b805180835260209291819084018484015e5f828201840152601f01601f1916010190565b90604061371e61370c84516060855260608501906136cf565b602085015184820360208601526136cf565b928101516001600160a01b031691015290565b608435906001600160a01b03821682036101d357565b90600182811c92168015613775575b602083101461376157565b634e487b7160e01b5f52602260045260245ffd5b91607f1691613756565b9060405191825f82549261379284613747565b80845293600181169081156137fd57506001146137b9575b506137b792500383613659565b565b90505f9291925260205f20905f915b8183106137e15750509060206137b7928201015f6137aa565b60209193508060019154838589010152019101909184926137c8565b9050602092506137b794915060ff191682840152151560051b8201015f6137aa565b9060405161382c81613607565b604081936138398161377f565b83526138476001820161377f565b6020840152600201546001600160a01b0316910152565b9060078210156124925752565b602081016020825282518091526040820191602060408360051b8301019401925f915b83831061389d57505050505090565b9091929394602080600192603f1985820301865288519060c0806139266138f56138e36138d3875160e0885260e08801906136cf565b888801518782038a8901526136cf565b604087015186820360408801526136cf565b60ff60608701511660608601526139146080870151608087019061385e565b60a086015185820360a08701526136cf565b9301519101529701930193019193929061388e565b91906060838203126101d3576040519061395482613607565b819380356001600160401b0381116101d3578261397291830161367a565b835260208101356001600160401b0381116101d3578261399391830161367a565b60208401526040810135916001600160401b0383116101d3576040926139b9920161367a565b910152565b91906040838203126101d357604051906139d782613622565b819380356001600160401b0381116101d357826139f591830161367a565b83526020810135916001600160401b0383116101d3576020926139b9920161367a565b90613ac59160208152613a2f60208201835161385e565b602082015160408201526040820151606082015260608201516080820152608082015160a082015260a082015160c082015260c082015160e082015260e0820151610100820152610140613aaf613a996101008501516101606101208601526101808501906136f3565b610120850151848203601f1901848601526136f3565b92015190610160601f19828503019101526136cf565b90565b9060406003198301126101d3576004356001600160401b0381116101d35782613af39160040161367a565b91602435906001600160401b0382116101d357613ac59160040161367a565b91906060838203126101d35760405190613b2b82613607565b819380356001600160401b0381116101d35782613b4991830161367a565b835260208101356001600160401b0381116101d357604092613b6c91830161367a565b60208401520135906001600160a01b03821682036101d35760400152565b60606003198201126101d3576004356001600160401b0381116101d35781613bb49160040161367a565b916024356001600160401b0381116101d35782613bd39160040161367a565b91604435906001600160401b0382116101d357613ac591600401613b12565b600254811015613c0e5760025f52600660205f20910201905f90565b634e487b7160e01b5f52603260045260245ffd5b60405190613c2f82613607565b5f60408360608152606060208201520152565b60208091604051928184925191829101835e81015f815203019020426004820155600360ff19825416179055565b9190613c7a613c22565b5060405192613c8884613607565b835260208301526001600160a01b0316604082015290565b5f9291815491613caf83613747565b9260018116908115613cf75750600114613cc857505050565b90919293505f5260205f205f905b838210613ce35750500190565b600181602092548486015201910190613cd6565b60ff191683525050811515909102019150565b6001600160401b0381116103275760051b60200190565b90613d2b82613d0a565b613d386040519182613659565b8281528092613d49601f1991613d0a565b01905f5b828110613d5957505050565b602090604051613d68816135ec565b60608152606083820152606060408201525f60608201525f6080820152606060a08201525f60c082015282828501015201613d4d565b8051821015613c0e5760209160051b010190565b60078210156124925752565b90604051613dcb816135ec565b60c060058294613dda8161377f565b8452613de86001820161377f565b6020850152613df96002820161377f565b6040850152613e1d60ff6003830154818116606088015260081c1660808601613db2565b613e296004820161377f565b60a08501520154910152565b60ff1660ff811461033b5760010190565b6040518151613ac592602091839181908401835e8101600181520301902061377f565b90421115613e9f5760208091604051928184925191829101835e81015f815203019020426006820155600560ff19825416179055565b60405162461bcd60e51b815260206004820152601860248201527f536572746966696b6174206d61736968206265726c616b7500000000000000006044820152606490fd5b60405190613ef18261363d565b6060610140835f81525f60208201525f60408201525f838201525f60808201525f60a08201525f60c08201525f60e0820152613f2b613c22565b610100820152613f39613c22565b6101208201520152565b60208091613f4f613ee4565b50604051928184925191829101835e81015f815203019020613ff7600e60405192613f798461363d565b613f8760ff82541685613db2565b60018101546020850152600281015460408501526003810154606085015260048101546080850152600581015460a0850152600681015460c0850152600781015460e0850152613fd96008820161381f565b610100850152613feb600b820161381f565b6101208501520161377f565b61014082015290565b60208091939293604051928184925191829101835e81015f815203019020426007820155608242019081421161033b57600e916005820155600660ff198254161781550182516001600160401b0381116103275761405e8254613747565b601f81116140fe575b506020601f82116001146140a057819293945f92614095575b50508160011b915f199060031b1c1916179055565b015190505f80614080565b601f19821690835f52805f20915f5b8181106140e6575095836001959697106140ce575b505050811b019055565b01515f1960f88460031b161c191690555f80806140c4565b9192602060018192868b0151815501940192016140af565b825f5260205f20601f830160051c81019160208410614139575b601f0160051c01905b81811061412e5750614067565b5f8155600101614121565b9091508190614118565b92919060405160208551918181818901948086835e81015f81520301902095604051928391518091835e81016001815203019020908051906001600160401b0382116103275781906141958454613747565b601f8111614490575b50602090601f831160011461442d575f92614422575b50508160011b915f199060031b1c19161790555b80518051600b8501916001600160401b038211610327576141e98354613747565b601f81116143dd575b50602090601f8311600114614376576020949392915f918361436b575b50508160011b915f199060031b1c19161790555b6040810151600d850180546001600160a01b0319166001600160a01b039290921691909117905501518051909290600c8201906001600160401b0381116103275761426e8254613747565b601f8111614326575b50602094601f82116001146142c5579481929394955f926142ba575b50508160011b915f199060031b1c19161790555b426003820155805460ff19166002179055565b015190505f80614293565b601f19821695835f52805f20915f5b88811061430e575083600195969798106142f6575b505050811b0190556142a7565b01515f1960f88460031b161c191690555f80806142e9565b919260206001819286850151815501940192016142d4565b825f5260205f20601f830160051c81019160208410614361575b601f0160051c01905b8181106143565750614277565b5f8155600101614349565b9091508190614340565b015190505f8061420f565b90601f19831691845f52815f20925f5b8181106143c55750916001939185602098979694106143ad575b505050811b019055614223565b01515f1960f88460031b161c191690555f80806143a0565b92936020600181928786015181550195019301614386565b835f5260205f20601f840160051c81019160208510614418575b601f0160051c01905b81811061440d57506141f2565b5f8155600101614400565b90915081906143f7565b015190505f806141b4565b5f8581528281209350601f198516905b8181106144785750908460019594939210614460575b505050811b0190556141c8565b01515f1960f88460031b161c191690555f8080614453565b9293602060018192878601518155019501930161443d565b909150835f5260205f20601f840160051c810191602085106144d6575b90601f859493920160051c01905b8181106144c8575061419e565b5f81558493506001016144bb565b90915081906144ad565b6020809194939294604051928184925191829101835e81015f815203019020908051600b8301908051906001600160401b038211610327576145228354613747565b601f8111614809575b50602090601f83116001146147a2576020949392915f9183614797575b50508160011b915f199060031b1c19161790555b6040810151600d840180546001600160a01b0319166001600160a01b039290921691909117905501518051600c8301916001600160401b0382116103275781906145a68454613747565b601f8111614747575b50602090601f83116001146146e4575f926146d9575b50508160011b915f199060031b1c19161790555b426002820155608242019081421161033b57600e916005820155600160ff198254161781550182516001600160401b038111610327576146198254613747565b601f8111614694575b506020601f821160011461464f57819293945f926140955750508160011b915f199060031b1c1916179055565b601f19821690835f52805f20915f5b81811061467c575095836001959697106140ce57505050811b019055565b9192602060018192868b01518155019401920161465e565b825f5260205f20601f830160051c810191602084106146cf575b601f0160051c01905b8181106146c45750614622565b5f81556001016146b7565b90915081906146ae565b015190505f806145c5565b5f8581528281209350601f198516905b81811061472f5750908460019594939210614717575b505050811b0190556145d9565b01515f1960f88460031b161c191690555f808061470a565b929360206001819287860151815501950193016146f4565b909150835f5260205f20601f840160051c8101916020851061478d575b90601f859493920160051c01905b81811061477f57506145af565b5f8155849350600101614772565b9091508190614764565b015190505f80614548565b90601f19831691845f52815f20925f5b8181106147f15750916001939185602098979694106147d9575b505050811b01905561455c565b01515f1960f88460031b161c191690555f80806147cc565b929360206001819287860151815501950193016147b2565b835f5260205f20601f840160051c81019160208510614844575b601f0160051c01905b818110614839575061452b565b5f815560010161482c565b9091508190614823565b92909160405161485d8161363d565b5f81526020810194428652604082015f8152606083015f8152608084015f815260a08501905f825260c08601925f845260e08701945f8652610100880196875261012088019a8b5260209b8c80809b6148b96040519d8e613659565b5f8d526101408c019c8d52604051928184925191829101835e81015f815203019020985160078110156124925760ff80198b541691161789555160018901555160028801555160038701555160048601555160058501555160068401555160078301556008820190519081518051906001600160401b0382116103275781906149428454613747565b601f8111614e4f575b508990601f8311600114614dec575f92614de1575b50508160011b915f199060031b1c19161790555b60098201868201518051906001600160401b0382116103275781906149998454613747565b601f8111614d93575b508990601f8311600114614d30575f92614d25575b50508160011b915f199060031b1c19161790555b60400151600a820180546001600160a01b0319166001600160a01b0392909216919091179055925180518051919491600b8301916001600160401b038211610327578190614a198454613747565b601f8111614cd7575b508890601f8311600114614c74575f92614c69575b50508160011b915f199060031b1c19161790555b600c81019385810151948551956001600160401b03871161032757614a708254613747565b601f8111614c26575b508790601f8811600114614bbf57968091600e9697985f92614bb4575b50508160011b915f199060031b1c19161790555b60400151600d820180546001600160a01b0319166001600160a01b03929092169190911790559151805190949190920191906001600160401b03821161032757614af48354613747565b601f8111614b71575b5080601f8311600114614b2a5750819293945f926140955750508160011b915f199060031b1c1916179055565b90601f19831695845f52825f20925f905b888210614b59575050836001959697106140ce57505050811b019055565b80600185968294968601518155019501930190614b3b565b835f52815f20601f840160051c810191838510614baa575b601f0160051c01905b818110614b9f5750614afd565b5f8155600101614b92565b9091508190614b89565b015190505f80614a96565b90601f19881691835f52895f20925f5b8b828210614c1057505091600193918a600e999a9b9410614bf8575b505050811b019055614aaa565b01515f1960f88460031b161c191690555f8080614beb565b6001859682939686015181550195019301614bcf565b825f52885f20601f890160051c8101918a8a10614c5f575b601f0160051c01905b818110614c545750614a79565b5f8155600101614c47565b9091508190614c3e565b015190505f80614a37565b5f8581528a81209350601f198516905b8b828210614cc1575050908460019594939210614ca9575b505050811b019055614a4b565b01515f1960f88460031b161c191690555f8080614c9c565b6001859682939686015181550195019301614c84565b909150835f52885f20601f840160051c8101918a8510614d1b575b90601f859493920160051c01905b818110614d0d5750614a22565b5f8155849350600101614d00565b9091508190614cf2565b015190505f806149b7565b5f8581528b81209350601f198516905b8c828210614d7d575050908460019594939210614d65575b505050811b0190556149cb565b01515f1960f88460031b161c191690555f8080614d58565b6001859682939686015181550195019301614d40565b909150835f52895f20601f840160051c8101918b8510614dd7575b90601f859493920160051c01905b818110614dc957506149a2565b5f8155849350600101614dbc565b9091508190614dae565b015190505f80614960565b5f8581528b81209350601f198516905b8c828210614e39575050908460019594939210614e21575b505050811b019055614974565b01515f1960f88460031b161c191690555f8080614e14565b6001859682939686015181550195019301614dfc565b909150835f52895f20601f840160051c8101918b8510614e93575b90601f859493920160051c01905b818110614e85575061494b565b5f8155849350600101614e78565b9091508190614e6a56fea2646970667358221220bbe19c3de4ab3abd00f70241702907154870ab11b761c7b02e6fe507ad6e80ec64736f6c634300081b0033","opcodes":"PUSH1 0x80 DUP1 PUSH1 0x40 MSTORE CALLVALUE PUSH1 0x15 JUMPI PUSH2 0x4ED3 SWAP1 DUP2 PUSH2 0x1A DUP3 CODECOPY RETURN JUMPDEST PUSH0 DUP1 REVERT INVALID PUSH1 0x80 PUSH1 0x40 MSTORE PUSH1 0x4 CALLDATASIZE LT ISZERO PUSH2 0x11 JUMPI PUSH0 DUP1 REVERT JUMPDEST PUSH0 CALLDATALOAD PUSH1 0xE0 SHR DUP1 PUSH4 0x17E68309 EQ PUSH2 0x3555 JUMPI DUP1 PUSH4 0x19859C87 EQ PUSH2 0x351D JUMPI DUP1 PUSH4 0x2E9CF827 EQ PUSH2 0x3499 JUMPI DUP1 PUSH4 0x34A34F30 EQ PUSH2 0x338E JUMPI DUP1 PUSH4 0x4AD8F1A4 EQ PUSH2 0x2B17 JUMPI DUP1 PUSH4 0x500619D0 EQ PUSH2 0x2A96 JUMPI DUP1 PUSH4 0x5691ACF7 EQ PUSH2 0x2996 JUMPI DUP1 PUSH4 0x5850607C EQ PUSH2 0x292E JUMPI DUP1 PUSH4 0x64B409FF EQ PUSH2 0x19A4 JUMPI DUP1 PUSH4 0x6AA81299 EQ PUSH2 0x18F0 JUMPI DUP1 PUSH4 0x6D1AA7D5 EQ PUSH2 0x1508 JUMPI DUP1 PUSH4 0x70C056B0 EQ PUSH2 0x1543 JUMPI DUP1 PUSH4 0x761FB19A EQ PUSH2 0x1508 JUMPI DUP1 PUSH4 0x7AB09648 EQ PUSH2 0x1461 JUMPI DUP1 PUSH4 0x81FC60A5 EQ PUSH2 0x12F2 JUMPI DUP1 PUSH4 0x9740DBED EQ PUSH2 0x12B6 JUMPI DUP1 PUSH4 0x9AAA5D8B EQ PUSH2 0x127B JUMPI DUP1 PUSH4 0xB0730436 EQ PUSH2 0x11B3 JUMPI DUP1 PUSH4 0xB9E49080 EQ PUSH2 0xD05 JUMPI DUP1 PUSH4 0xBE2E2325 EQ PUSH2 0xCB5 JUMPI DUP1 PUSH4 0xBF3F80AC EQ PUSH2 0xC47 JUMPI DUP1 PUSH4 0xD26196FD EQ PUSH2 0xC30 JUMPI DUP1 PUSH4 0xE462DDE5 EQ PUSH2 0xAF7 JUMPI DUP1 PUSH4 0xE8002B27 EQ PUSH2 0x451 JUMPI DUP1 PUSH4 0xE9C260D7 EQ PUSH2 0x43A JUMPI DUP1 PUSH4 0xF02F5F23 EQ PUSH2 0x366 JUMPI DUP1 PUSH4 0xF5104FF1 EQ PUSH2 0x34F JUMPI DUP1 PUSH4 0xF53EF126 EQ PUSH2 0x1D7 JUMPI PUSH4 0xFB5FB9A3 EQ PUSH2 0x158 JUMPI PUSH0 DUP1 REVERT JUMPDEST CALLVALUE PUSH2 0x1D3 JUMPI PUSH1 0x60 CALLDATASIZE PUSH1 0x3 NOT ADD SLT PUSH2 0x1D3 JUMPI PUSH1 0x4 CALLDATALOAD PUSH1 0x1 PUSH1 0x1 PUSH1 0x40 SHL SUB DUP2 GT PUSH2 0x1D3 JUMPI PUSH2 0x188 SWAP1 CALLDATASIZE SWAP1 PUSH1 0x4 ADD PUSH2 0x3B12 JUMP JUMPDEST PUSH1 0x24 CALLDATALOAD PUSH1 0x1 PUSH1 0x1 PUSH1 0x40 SHL SUB DUP2 GT PUSH2 0x1D3 JUMPI PUSH2 0x1A7 SWAP1 CALLDATASIZE SWAP1 PUSH1 0x4 ADD PUSH2 0x3B12 JUMP JUMPDEST SWAP1 PUSH1 0x44 CALLDATALOAD SWAP2 PUSH1 0x1 PUSH1 0x1 PUSH1 0x40 SHL SUB DUP4 GT PUSH2 0x1D3 JUMPI PUSH2 0x1CB PUSH2 0x1D1 SWAP4 CALLDATASIZE SWAP1 PUSH1 0x4 ADD PUSH2 0x367A JUMP JUMPDEST SWAP2 PUSH2 0x484E JUMP JUMPDEST STOP JUMPDEST PUSH0 DUP1 REVERT JUMPDEST CALLVALUE PUSH2 0x1D3 JUMPI PUSH1 0x20 DUP1 PUSH2 0x1E8 CALLDATASIZE PUSH2 0x3AC8 JUMP JUMPDEST SWAP3 SWAP1 PUSH1 0x40 MLOAD SWAP3 DUP2 DUP5 SWAP3 MLOAD SWAP2 DUP3 SWAP2 ADD DUP4 MCOPY DUP2 ADD PUSH0 DUP2 MSTORE SUB ADD SWAP1 KECCAK256 TIMESTAMP PUSH1 0x2 DUP3 ADD SSTORE PUSH1 0x82 TIMESTAMP ADD SWAP1 DUP2 TIMESTAMP GT PUSH2 0x33B JUMPI PUSH1 0xE SWAP2 PUSH1 0x5 DUP3 ADD SSTORE PUSH1 0x6 PUSH1 0xFF NOT DUP3 SLOAD AND OR DUP2 SSTORE ADD DUP2 MLOAD PUSH1 0x1 PUSH1 0x1 PUSH1 0x40 SHL SUB DUP2 GT PUSH2 0x327 JUMPI PUSH2 0x241 DUP3 SLOAD PUSH2 0x3747 JUMP JUMPDEST PUSH1 0x1F DUP2 GT PUSH2 0x2E2 JUMPI JUMPDEST POP PUSH1 0x20 SWAP3 PUSH1 0x1F DUP3 GT PUSH1 0x1 EQ PUSH2 0x286 JUMPI SWAP3 DUP2 SWAP3 SWAP4 PUSH0 SWAP3 PUSH2 0x27B JUMPI JUMPDEST POP POP PUSH0 NOT PUSH1 0x3 DUP4 SWAP1 SHL SHR NOT AND PUSH1 0x1 SWAP2 SWAP1 SWAP2 SHL OR SWAP1 SSTORE STOP JUMPDEST ADD MLOAD SWAP1 POP DUP4 DUP1 PUSH2 0x264 JUMP JUMPDEST PUSH1 0x1F NOT DUP3 AND SWAP4 DUP4 PUSH0 MSTORE DUP1 PUSH0 KECCAK256 SWAP2 PUSH0 JUMPDEST DUP7 DUP2 LT PUSH2 0x2CA JUMPI POP DUP4 PUSH1 0x1 SWAP6 SWAP7 LT PUSH2 0x2B2 JUMPI JUMPDEST POP POP POP DUP2 SHL ADD SWAP1 SSTORE STOP JUMPDEST ADD MLOAD PUSH0 NOT PUSH1 0xF8 DUP5 PUSH1 0x3 SHL AND SHR NOT AND SWAP1 SSTORE DUP4 DUP1 DUP1 PUSH2 0x2A8 JUMP JUMPDEST SWAP2 SWAP3 PUSH1 0x20 PUSH1 0x1 DUP2 SWAP3 DUP7 DUP6 ADD MLOAD DUP2 SSTORE ADD SWAP5 ADD SWAP3 ADD PUSH2 0x295 JUMP JUMPDEST DUP3 PUSH0 MSTORE PUSH1 0x20 PUSH0 KECCAK256 PUSH1 0x1F DUP4 ADD PUSH1 0x5 SHR DUP2 ADD SWAP2 PUSH1 0x20 DUP5 LT PUSH2 0x31D JUMPI JUMPDEST PUSH1 0x1F ADD PUSH1 0x5 SHR ADD SWAP1 JUMPDEST DUP2 DUP2 LT PUSH2 0x312 JUMPI POP PUSH2 0x24A JUMP JUMPDEST PUSH0 DUP2 SSTORE PUSH1 0x1 ADD PUSH2 0x305 JUMP JUMPDEST SWAP1 SWAP2 POP DUP2 SWAP1 PUSH2 0x2FC JUMP JUMPDEST PUSH4 0x4E487B71 PUSH1 0xE0 SHL PUSH0 MSTORE PUSH1 0x41 PUSH1 0x4 MSTORE PUSH1 0x24 PUSH0 REVERT JUMPDEST PUSH4 0x4E487B71 PUSH1 0xE0 SHL PUSH0 MSTORE PUSH1 0x11 PUSH1 0x4 MSTORE PUSH1 0x24 PUSH0 REVERT JUMPDEST CALLVALUE PUSH2 0x1D3 JUMPI PUSH2 0x1D1 PUSH2 0x360 CALLDATASIZE PUSH2 0x3B8A JUMP JUMPDEST SWAP2 PUSH2 0x44E0 JUMP JUMPDEST CALLVALUE PUSH2 0x1D3 JUMPI PUSH1 0x20 CALLDATASIZE PUSH1 0x3 NOT ADD SLT PUSH2 0x1D3 JUMPI PUSH1 0x4 CALLDATALOAD PUSH1 0x2 SLOAD DUP2 LT ISZERO PUSH2 0x1D3 JUMPI PUSH2 0x390 PUSH2 0x3ED SWAP2 PUSH2 0x3BF2 JUMP JUMPDEST POP PUSH2 0x39A DUP2 PUSH2 0x377F JUMP JUMPDEST SWAP1 PUSH2 0x430 PUSH2 0x3AA PUSH1 0x1 DUP4 ADD PUSH2 0x377F JUMP JUMPDEST SWAP2 PUSH2 0x3B7 PUSH1 0x2 DUP3 ADD PUSH2 0x377F JUMP JUMPDEST SWAP1 PUSH2 0x423 PUSH2 0x409 PUSH1 0x3 DUP4 ADD SLOAD SWAP4 PUSH2 0x3FB PUSH1 0x5 PUSH2 0x3D5 PUSH1 0x4 DUP8 ADD PUSH2 0x377F JUMP JUMPDEST SWAP6 ADD SLOAD SWAP8 PUSH1 0x40 MLOAD SWAP11 DUP12 SWAP11 PUSH1 0xE0 DUP13 MSTORE PUSH1 0xE0 DUP13 ADD SWAP1 PUSH2 0x36CF JUMP JUMPDEST SWAP1 DUP11 DUP3 SUB PUSH1 0x20 DUP13 ADD MSTORE PUSH2 0x36CF JUMP JUMPDEST SWAP1 DUP9 DUP3 SUB PUSH1 0x40 DUP11 ADD MSTORE PUSH2 0x36CF JUMP JUMPDEST SWAP3 PUSH1 0xFF DUP2 AND PUSH1 0x60 DUP9 ADD MSTORE PUSH1 0xFF PUSH1 0x80 DUP9 ADD SWAP2 PUSH1 0x8 SHR AND PUSH2 0x385E JUMP JUMPDEST DUP5 DUP3 SUB PUSH1 0xA0 DUP7 ADD MSTORE PUSH2 0x36CF JUMP JUMPDEST SWAP1 PUSH1 0xC0 DUP4 ADD MSTORE SUB SWAP1 RETURN JUMPDEST CALLVALUE PUSH2 0x1D3 JUMPI PUSH2 0x1D1 PUSH2 0x44B CALLDATASIZE PUSH2 0x3B8A JUMP JUMPDEST SWAP2 PUSH2 0x4143 JUMP JUMPDEST CALLVALUE PUSH2 0x1D3 JUMPI PUSH1 0x60 CALLDATASIZE PUSH1 0x3 NOT ADD SLT PUSH2 0x1D3 JUMPI PUSH1 0x4 CALLDATALOAD PUSH1 0x1 PUSH1 0x1 PUSH1 0x40 SHL SUB DUP2 GT PUSH2 0x1D3 JUMPI PUSH2 0x481 SWAP1 CALLDATASIZE SWAP1 PUSH1 0x4 ADD PUSH2 0x367A JUMP JUMPDEST PUSH1 0x24 CALLDATALOAD PUSH1 0x1 PUSH1 0x1 PUSH1 0x40 SHL SUB DUP2 GT PUSH2 0x1D3 JUMPI PUSH2 0x4A0 SWAP1 CALLDATASIZE SWAP1 PUSH1 0x4 ADD PUSH2 0x393B JUMP JUMPDEST SWAP1 PUSH1 0x44 CALLDATALOAD PUSH1 0x1 PUSH1 0x1 PUSH1 0x40 SHL SUB DUP2 GT PUSH2 0x1D3 JUMPI PUSH2 0x4C0 SWAP1 CALLDATASIZE SWAP1 PUSH1 0x4 ADD PUSH2 0x39BE JUMP JUMPDEST PUSH2 0x4C9 DUP3 PUSH2 0x3C42 JUMP JUMPDEST PUSH1 0x2 SLOAD SWAP2 PUSH1 0x20 DUP2 ADD SWAP1 PUSH0 JUMPDEST DUP5 DUP2 LT PUSH2 0x4DD JUMPI STOP JUMPDEST PUSH2 0x4E6 DUP2 PUSH2 0x3BF2 JUMP JUMPDEST POP PUSH1 0x40 MLOAD PUSH2 0x50A DUP2 PUSH2 0x4FC PUSH1 0x20 DUP3 ADD DUP1 SWAP6 PUSH2 0x3CA0 JUMP JUMPDEST SUB PUSH1 0x1F NOT DUP2 ADD DUP4 MSTORE DUP3 PUSH2 0x3659 JUMP JUMPDEST MLOAD SWAP1 KECCAK256 PUSH1 0x40 MLOAD PUSH1 0x20 DUP2 ADD SWAP1 PUSH2 0x537 PUSH1 0x20 DUP3 DUP8 MLOAD DUP1 DUP11 DUP8 MCOPY DUP2 ADD PUSH0 DUP4 DUP3 ADD MSTORE SUB ADD PUSH1 0x1F NOT DUP2 ADD DUP4 MSTORE DUP3 PUSH2 0x3659 JUMP JUMPDEST MLOAD SWAP1 KECCAK256 EQ PUSH2 0x548 JUMPI JUMPDEST PUSH1 0x1 ADD PUSH2 0x4D4 JUMP JUMPDEST PUSH1 0x3 PUSH2 0x553 DUP3 PUSH2 0x3BF2 JUMP JUMPDEST POP ADD DUP1 SLOAD PUSH2 0xFF00 NOT AND PUSH2 0x300 OR SWAP1 SSTORE PUSH2 0x57D PUSH1 0x20 PUSH2 0x570 DUP4 PUSH2 0x3BF2 JUMP JUMPDEST POP PUSH1 0x40 MLOAD SWAP3 DUP4 DUP1 SWAP3 PUSH2 0x3CA0 JUMP JUMPDEST PUSH1 0x4 DUP2 MSTORE SUB ADD SWAP1 KECCAK256 DUP7 MLOAD DUP1 MLOAD SWAP1 PUSH1 0x1 PUSH1 0x1 PUSH1 0x40 SHL SUB DUP3 GT PUSH2 0x327 JUMPI DUP2 SWAP1 PUSH2 0x5A4 DUP5 SLOAD PUSH2 0x3747 JUMP JUMPDEST PUSH1 0x1F DUP2 GT PUSH2 0xAA7 JUMPI JUMPDEST POP PUSH1 0x20 SWAP1 PUSH1 0x1F DUP4 GT PUSH1 0x1 EQ PUSH2 0xA44 JUMPI PUSH0 SWAP3 PUSH2 0xA39 JUMPI JUMPDEST POP POP DUP2 PUSH1 0x1 SHL SWAP2 PUSH0 NOT SWAP1 PUSH1 0x3 SHL SHR NOT AND OR DUP2 SSTORE JUMPDEST PUSH1 0x1 DUP2 ADD PUSH1 0x20 DUP9 ADD MLOAD DUP1 MLOAD SWAP1 PUSH1 0x1 PUSH1 0x1 PUSH1 0x40 SHL SUB DUP3 GT PUSH2 0x327 JUMPI PUSH2 0x5FB DUP4 SLOAD PUSH2 0x3747 JUMP JUMPDEST PUSH1 0x1F DUP2 GT PUSH2 0x9F4 JUMPI JUMPDEST POP PUSH1 0x20 SWAP1 PUSH1 0x1F DUP4 GT PUSH1 0x1 EQ PUSH2 0x98D JUMPI PUSH1 0x2 SWAP5 SWAP4 SWAP3 SWAP2 PUSH0 SWAP2 DUP4 PUSH2 0x982 JUMPI JUMPDEST POP POP DUP2 PUSH1 0x1 SHL SWAP2 PUSH0 NOT SWAP1 PUSH1 0x3 SHL SHR NOT AND OR SWAP1 SSTORE JUMPDEST ADD PUSH1 0x40 DUP8 ADD MLOAD DUP1 MLOAD SWAP1 PUSH1 0x1 PUSH1 0x1 PUSH1 0x40 SHL SUB DUP3 GT PUSH2 0x327 JUMPI DUP2 SWAP1 PUSH2 0x658 DUP5 SLOAD PUSH2 0x3747 JUMP JUMPDEST PUSH1 0x1F DUP2 GT PUSH2 0x932 JUMPI JUMPDEST POP PUSH1 0x20 SWAP1 PUSH1 0x1F DUP4 GT PUSH1 0x1 EQ PUSH2 0x8CF JUMPI PUSH0 SWAP3 PUSH2 0x8C4 JUMPI JUMPDEST POP POP DUP2 PUSH1 0x1 SHL SWAP2 PUSH0 NOT SWAP1 PUSH1 0x3 SHL SHR NOT AND OR SWAP1 SSTORE JUMPDEST PUSH2 0x699 PUSH1 0x20 PUSH2 0x570 DUP4 PUSH2 0x3BF2 JUMP JUMPDEST PUSH1 0x5 DUP2 MSTORE SUB ADD SWAP1 KECCAK256 DUP5 MLOAD DUP1 MLOAD SWAP1 PUSH1 0x1 PUSH1 0x1 PUSH1 0x40 SHL SUB DUP3 GT PUSH2 0x327 JUMPI PUSH2 0x6BE DUP4 SLOAD PUSH2 0x3747 JUMP JUMPDEST PUSH1 0x1F DUP2 GT PUSH2 0x87F JUMPI JUMPDEST POP PUSH1 0x20 SWAP1 PUSH1 0x1F DUP4 GT PUSH1 0x1 EQ PUSH2 0x819 JUMPI PUSH1 0x1 SWAP4 SWAP3 SWAP2 PUSH0 SWAP2 DUP4 PUSH2 0x80E JUMPI JUMPDEST POP POP PUSH0 NOT PUSH1 0x3 DUP4 SWAP1 SHL SHR NOT AND SWAP1 DUP4 SHL OR DUP2 SSTORE JUMPDEST ADD PUSH1 0x20 DUP6 ADD MLOAD DUP1 MLOAD SWAP1 PUSH1 0x1 PUSH1 0x1 PUSH1 0x40 SHL SUB DUP3 GT PUSH2 0x327 JUMPI PUSH2 0x717 DUP4 SLOAD PUSH2 0x3747 JUMP JUMPDEST PUSH1 0x1F DUP2 GT PUSH2 0x7C9 JUMPI JUMPDEST POP PUSH1 0x20 SWAP1 PUSH1 0x1F DUP4 GT PUSH1 0x1 EQ PUSH2 0x762 JUMPI PUSH1 0x1 SWAP5 SWAP4 SWAP3 SWAP2 PUSH0 SWAP2 DUP4 PUSH2 0x757 JUMPI JUMPDEST POP POP PUSH0 NOT PUSH1 0x3 DUP4 SWAP1 SHL SHR NOT AND SWAP1 DUP5 SHL OR SWAP1 SSTORE JUMPDEST SWAP1 POP PUSH2 0x540 JUMP JUMPDEST ADD MLOAD SWAP1 POP DUP11 DUP1 PUSH2 0x73D JUMP JUMPDEST SWAP1 PUSH1 0x1F NOT DUP4 AND SWAP2 DUP5 PUSH0 MSTORE DUP2 PUSH0 KECCAK256 SWAP3 PUSH0 JUMPDEST DUP2 DUP2 LT PUSH2 0x7B1 JUMPI POP SWAP2 PUSH1 0x1 SWAP7 SWAP6 SWAP5 SWAP3 SWAP2 DUP4 DUP9 SWAP6 SWAP4 LT PUSH2 0x799 JUMPI JUMPDEST POP POP POP DUP2 SHL ADD SWAP1 SSTORE PUSH2 0x750 JUMP JUMPDEST ADD MLOAD PUSH0 NOT PUSH1 0xF8 DUP5 PUSH1 0x3 SHL AND SHR NOT AND SWAP1 SSTORE DUP11 DUP1 DUP1 PUSH2 0x78C JUMP JUMPDEST SWAP3 SWAP4 PUSH1 0x20 PUSH1 0x1 DUP2 SWAP3 DUP8 DUP7 ADD MLOAD DUP2 SSTORE ADD SWAP6 ADD SWAP4 ADD PUSH2 0x772 JUMP JUMPDEST DUP4 PUSH0 MSTORE PUSH1 0x20 PUSH0 KECCAK256 PUSH1 0x1F DUP5 ADD PUSH1 0x5 SHR DUP2 ADD SWAP2 PUSH1 0x20 DUP6 LT PUSH2 0x804 JUMPI JUMPDEST PUSH1 0x1F ADD PUSH1 0x5 SHR ADD SWAP1 JUMPDEST DUP2 DUP2 LT PUSH2 0x7F9 JUMPI POP PUSH2 0x720 JUMP JUMPDEST PUSH0 DUP2 SSTORE PUSH1 0x1 ADD PUSH2 0x7EC JUMP JUMPDEST SWAP1 SWAP2 POP DUP2 SWAP1 PUSH2 0x7E3 JUMP JUMPDEST ADD MLOAD SWAP1 POP DUP11 DUP1 PUSH2 0x6E3 JUMP JUMPDEST SWAP1 PUSH1 0x1F NOT DUP4 AND SWAP2 DUP5 PUSH0 MSTORE DUP2 PUSH0 KECCAK256 SWAP3 PUSH0 JUMPDEST DUP2 DUP2 LT PUSH2 0x867 JUMPI POP SWAP2 PUSH1 0x1 SWAP6 SWAP5 SWAP3 SWAP2 DUP4 DUP8 SWAP6 SWAP4 LT PUSH2 0x84F JUMPI JUMPDEST POP POP POP DUP2 SHL ADD DUP2 SSTORE PUSH2 0x6F6 JUMP JUMPDEST ADD MLOAD PUSH0 NOT PUSH1 0xF8 DUP5 PUSH1 0x3 SHL AND SHR NOT AND SWAP1 SSTORE DUP11 DUP1 DUP1 PUSH2 0x842 JUMP JUMPDEST SWAP3 SWAP4 PUSH1 0x20 PUSH1 0x1 DUP2 SWAP3 DUP8 DUP7 ADD MLOAD DUP2 SSTORE ADD SWAP6 ADD SWAP4 ADD PUSH2 0x829 JUMP JUMPDEST DUP4 PUSH0 MSTORE PUSH1 0x20 PUSH0 KECCAK256 PUSH1 0x1F DUP5 ADD PUSH1 0x5 SHR DUP2 ADD SWAP2 PUSH1 0x20 DUP6 LT PUSH2 0x8BA JUMPI JUMPDEST PUSH1 0x1F ADD PUSH1 0x5 SHR ADD SWAP1 JUMPDEST DUP2 DUP2 LT PUSH2 0x8AF JUMPI POP PUSH2 0x6C7 JUMP JUMPDEST PUSH0 DUP2 SSTORE PUSH1 0x1 ADD PUSH2 0x8A2 JUMP JUMPDEST SWAP1 SWAP2 POP DUP2 SWAP1 PUSH2 0x899 JUMP JUMPDEST ADD MLOAD SWAP1 POP DUP10 DUP1 PUSH2 0x677 JUMP JUMPDEST PUSH0 DUP6 DUP2 MSTORE DUP3 DUP2 KECCAK256 SWAP4 POP PUSH1 0x1F NOT DUP6 AND SWAP1 JUMPDEST DUP2 DUP2 LT PUSH2 0x91A JUMPI POP SWAP1 DUP5 PUSH1 0x1 SWAP6 SWAP5 SWAP4 SWAP3 LT PUSH2 0x902 JUMPI JUMPDEST POP POP POP DUP2 SHL ADD SWAP1 SSTORE PUSH2 0x68B JUMP JUMPDEST ADD MLOAD PUSH0 NOT PUSH1 0xF8 DUP5 PUSH1 0x3 SHL AND SHR NOT AND SWAP1 SSTORE DUP10 DUP1 DUP1 PUSH2 0x8F5 JUMP JUMPDEST SWAP3 SWAP4 PUSH1 0x20 PUSH1 0x1 DUP2 SWAP3 DUP8 DUP7 ADD MLOAD DUP2 SSTORE ADD SWAP6 ADD SWAP4 ADD PUSH2 0x8DF JUMP JUMPDEST SWAP1 SWAP2 POP DUP4 PUSH0 MSTORE PUSH1 0x20 PUSH0 KECCAK256 PUSH1 0x1F DUP5 ADD PUSH1 0x5 SHR DUP2 ADD SWAP2 PUSH1 0x20 DUP6 LT PUSH2 0x978 JUMPI JUMPDEST SWAP1 PUSH1 0x1F DUP6 SWAP5 SWAP4 SWAP3 ADD PUSH1 0x5 SHR ADD SWAP1 JUMPDEST DUP2 DUP2 LT PUSH2 0x96A JUMPI POP PUSH2 0x661 JUMP JUMPDEST PUSH0 DUP2 SSTORE DUP5 SWAP4 POP PUSH1 0x1 ADD PUSH2 0x95D JUMP JUMPDEST SWAP1 SWAP2 POP DUP2 SWAP1 PUSH2 0x94F JUMP JUMPDEST ADD MLOAD SWAP1 POP DUP12 DUP1 PUSH2 0x621 JUMP JUMPDEST SWAP1 PUSH1 0x1F NOT DUP4 AND SWAP2 DUP5 PUSH0 MSTORE DUP2 PUSH0 KECCAK256 SWAP3 PUSH0 JUMPDEST DUP2 DUP2 LT PUSH2 0x9DC JUMPI POP SWAP2 PUSH1 0x1 SWAP4 SWAP2 DUP6 PUSH1 0x2 SWAP9 SWAP8 SWAP7 SWAP5 LT PUSH2 0x9C4 JUMPI JUMPDEST POP POP POP DUP2 SHL ADD SWAP1 SSTORE PUSH2 0x635 JUMP JUMPDEST ADD MLOAD PUSH0 NOT PUSH1 0xF8 DUP5 PUSH1 0x3 SHL AND SHR NOT AND SWAP1 SSTORE DUP12 DUP1 DUP1 PUSH2 0x9B7 JUMP JUMPDEST SWAP3 SWAP4 PUSH1 0x20 PUSH1 0x1 DUP2 SWAP3 DUP8 DUP7 ADD MLOAD DUP2 SSTORE ADD SWAP6 ADD SWAP4 ADD PUSH2 0x99D JUMP JUMPDEST DUP4 PUSH0 MSTORE PUSH1 0x20 PUSH0 KECCAK256 PUSH1 0x1F DUP5 ADD PUSH1 0x5 SHR DUP2 ADD SWAP2 PUSH1 0x20 DUP6 LT PUSH2 0xA2F JUMPI JUMPDEST PUSH1 0x1F ADD PUSH1 0x5 SHR ADD SWAP1 JUMPDEST DUP2 DUP2 LT PUSH2 0xA24 JUMPI POP PUSH2 0x604 JUMP JUMPDEST PUSH0 DUP2 SSTORE PUSH1 0x1 ADD PUSH2 0xA17 JUMP JUMPDEST SWAP1 SWAP2 POP DUP2 SWAP1 PUSH2 0xA0E JUMP JUMPDEST ADD MLOAD SWAP1 POP DUP10 DUP1 PUSH2 0x5C3 JUMP JUMPDEST PUSH0 DUP6 DUP2 MSTORE DUP3 DUP2 KECCAK256 SWAP4 POP PUSH1 0x1F NOT DUP6 AND SWAP1 JUMPDEST DUP2 DUP2 LT PUSH2 0xA8F JUMPI POP SWAP1 DUP5 PUSH1 0x1 SWAP6 SWAP5 SWAP4 SWAP3 LT PUSH2 0xA77 JUMPI JUMPDEST POP POP POP DUP2 SHL ADD DUP2 SSTORE PUSH2 0x5D7 JUMP JUMPDEST ADD MLOAD PUSH0 NOT PUSH1 0xF8 DUP5 PUSH1 0x3 SHL AND SHR NOT AND SWAP1 SSTORE DUP10 DUP1 DUP1 PUSH2 0xA6A JUMP JUMPDEST SWAP3 SWAP4 PUSH1 0x20 PUSH1 0x1 DUP2 SWAP3 DUP8 DUP7 ADD MLOAD DUP2 SSTORE ADD SWAP6 ADD SWAP4 ADD PUSH2 0xA54 JUMP JUMPDEST SWAP1 SWAP2 POP DUP4 PUSH0 MSTORE PUSH1 0x20 PUSH0 KECCAK256 PUSH1 0x1F DUP5 ADD PUSH1 0x5 SHR DUP2 ADD SWAP2 PUSH1 0x20 DUP6 LT PUSH2 0xAED JUMPI JUMPDEST SWAP1 PUSH1 0x1F DUP6 SWAP5 SWAP4 SWAP3 ADD PUSH1 0x5 SHR ADD SWAP1 JUMPDEST DUP2 DUP2 LT PUSH2 0xADF JUMPI POP PUSH2 0x5AD JUMP JUMPDEST PUSH0 DUP2 SSTORE DUP5 SWAP4 POP PUSH1 0x1 ADD PUSH2 0xAD2 JUMP JUMPDEST SWAP1 SWAP2 POP DUP2 SWAP1 PUSH2 0xAC4 JUMP JUMPDEST CALLVALUE PUSH2 0x1D3 JUMPI PUSH1 0xA0 CALLDATASIZE PUSH1 0x3 NOT ADD SLT PUSH2 0x1D3 JUMPI PUSH1 0x4 CALLDATALOAD PUSH1 0x1 PUSH1 0x1 PUSH1 0x40 SHL SUB DUP2 GT PUSH2 0x1D3 JUMPI PUSH2 0xB27 SWAP1 CALLDATASIZE SWAP1 PUSH1 0x4 ADD PUSH2 0x367A JUMP JUMPDEST PUSH1 0x24 CALLDATALOAD PUSH1 0x1 PUSH1 0x1 PUSH1 0x40 SHL SUB DUP2 GT PUSH2 0x1D3 JUMPI PUSH2 0xB46 SWAP1 CALLDATASIZE SWAP1 PUSH1 0x4 ADD PUSH2 0x367A JUMP JUMPDEST PUSH1 0x44 CALLDATALOAD PUSH1 0x1 PUSH1 0x1 PUSH1 0x40 SHL SUB DUP2 GT PUSH2 0x1D3 JUMPI PUSH2 0xB65 SWAP1 CALLDATASIZE SWAP1 PUSH1 0x4 ADD PUSH2 0x367A JUMP JUMPDEST SWAP1 PUSH1 0x64 CALLDATALOAD PUSH1 0x1 PUSH1 0x1 PUSH1 0x40 SHL SUB DUP2 GT PUSH2 0x1D3 JUMPI PUSH2 0xBA1 SWAP3 PUSH2 0xB8C PUSH2 0xB9A SWAP3 CALLDATASIZE SWAP1 PUSH1 0x4 ADD PUSH2 0x367A JUMP JUMPDEST PUSH2 0xB94 PUSH2 0x3731 JUMP JUMPDEST SWAP2 PUSH2 0x3C70 JUMP JUMPDEST SWAP1 DUP4 PUSH2 0x4143 JUMP JUMPDEST PUSH1 0x2 SLOAD PUSH1 0x20 DUP3 ADD PUSH0 JUMPDEST DUP3 DUP2 LT PUSH2 0xBB3 JUMPI STOP JUMPDEST DUP1 PUSH2 0xBBF PUSH1 0x1 SWAP3 PUSH2 0x3BF2 JUMP JUMPDEST POP PUSH1 0x40 MLOAD PUSH2 0xBD5 DUP2 PUSH2 0x4FC PUSH1 0x20 DUP3 ADD DUP1 SWAP6 PUSH2 0x3CA0 JUMP JUMPDEST MLOAD SWAP1 KECCAK256 PUSH1 0x40 MLOAD PUSH1 0x20 DUP2 ADD SWAP1 PUSH2 0xC02 PUSH1 0x20 DUP3 DUP11 MLOAD DUP1 DUP11 DUP8 MCOPY DUP2 ADD PUSH0 DUP4 DUP3 ADD MSTORE SUB ADD PUSH1 0x1F NOT DUP2 ADD DUP4 MSTORE DUP3 PUSH2 0x3659 JUMP JUMPDEST MLOAD SWAP1 KECCAK256 EQ PUSH2 0xC11 JUMPI JUMPDEST ADD PUSH2 0xBAA JUMP JUMPDEST PUSH1 0x3 PUSH2 0xC1C DUP3 PUSH2 0x3BF2 JUMP JUMPDEST POP ADD DUP1 SLOAD PUSH2 0xFF00 NOT AND PUSH2 0x200 OR SWAP1 SSTORE PUSH2 0xC0B JUMP JUMPDEST CALLVALUE PUSH2 0x1D3 JUMPI PUSH2 0x1D1 PUSH2 0xC41 CALLDATASIZE PUSH2 0x3AC8 JUMP JUMPDEST SWAP1 PUSH2 0x4000 JUMP JUMPDEST CALLVALUE PUSH2 0x1D3 JUMPI PUSH1 0x20 CALLDATASIZE PUSH1 0x3 NOT ADD SLT PUSH2 0x1D3 JUMPI PUSH1 0x4 CALLDATALOAD PUSH1 0x1 PUSH1 0x1 PUSH1 0x40 SHL SUB DUP2 GT PUSH2 0x1D3 JUMPI PUSH2 0xC9D PUSH1 0x20 DUP1 PUSH2 0xC80 PUSH2 0xCB1 SWAP5 CALLDATASIZE SWAP1 PUSH1 0x4 ADD PUSH2 0x367A JUMP JUMPDEST PUSH1 0x40 MLOAD SWAP3 DUP2 DUP5 SWAP3 MLOAD SWAP2 DUP3 SWAP2 ADD DUP4 MCOPY DUP2 ADD PUSH1 0x1 DUP2 MSTORE SUB ADD SWAP1 KECCAK256 PUSH2 0x377F JUMP JUMPDEST PUSH1 0x40 MLOAD SWAP2 DUP3 SWAP2 PUSH1 0x20 DUP4 MSTORE PUSH1 0x20 DUP4 ADD SWAP1 PUSH2 0x36CF JUMP JUMPDEST SUB SWAP1 RETURN JUMPDEST CALLVALUE PUSH2 0x1D3 JUMPI PUSH1 0x20 CALLDATASIZE PUSH1 0x3 NOT ADD SLT PUSH2 0x1D3 JUMPI PUSH1 0x4 CALLDATALOAD PUSH1 0x1 PUSH1 0x1 PUSH1 0x40 SHL SUB DUP2 GT PUSH2 0x1D3 JUMPI PUSH2 0xCF9 PUSH2 0xCEB PUSH2 0xCB1 SWAP3 CALLDATASIZE SWAP1 PUSH1 0x4 ADD PUSH2 0x367A JUMP JUMPDEST PUSH2 0xCF3 PUSH2 0x3EE4 JUMP JUMPDEST POP PUSH2 0x3F43 JUMP JUMPDEST PUSH1 0x40 MLOAD SWAP2 DUP3 SWAP2 DUP3 PUSH2 0x3A18 JUMP JUMPDEST CALLVALUE PUSH2 0x1D3 JUMPI PUSH1 0xC0 CALLDATASIZE PUSH1 0x3 NOT ADD SLT PUSH2 0x1D3 JUMPI PUSH1 0x4 CALLDATALOAD PUSH1 0x1 PUSH1 0x1 PUSH1 0x40 SHL SUB DUP2 GT PUSH2 0x1D3 JUMPI PUSH2 0xD35 SWAP1 CALLDATASIZE SWAP1 PUSH1 0x4 ADD PUSH2 0x367A JUMP JUMPDEST PUSH1 0x24 CALLDATALOAD PUSH1 0x1 PUSH1 0x1 PUSH1 0x40 SHL SUB DUP2 GT PUSH2 0x1D3 JUMPI PUSH2 0xD54 SWAP1 CALLDATASIZE SWAP1 PUSH1 0x4 ADD PUSH2 0x367A JUMP JUMPDEST PUSH1 0x44 CALLDATALOAD PUSH1 0x1 PUSH1 0x1 PUSH1 0x40 SHL SUB DUP2 GT PUSH2 0x1D3 JUMPI PUSH2 0xD73 SWAP1 CALLDATASIZE SWAP1 PUSH1 0x4 ADD PUSH2 0x367A JUMP JUMPDEST PUSH1 0x64 CALLDATALOAD PUSH1 0x1 PUSH1 0x1 PUSH1 0x40 SHL SUB DUP2 GT PUSH2 0x1D3 JUMPI PUSH2 0xD92 SWAP1 CALLDATASIZE SWAP1 PUSH1 0x4 ADD PUSH2 0x367A JUMP JUMPDEST PUSH2 0xD9A PUSH2 0x3731 JUMP JUMPDEST PUSH1 0xA4 CALLDATALOAD SWAP2 PUSH1 0x1 PUSH1 0x1 PUSH1 0x40 SHL SUB DUP4 GT PUSH2 0x1D3 JUMPI PUSH2 0xDBD PUSH2 0xDC3 SWAP4 CALLDATASIZE SWAP1 PUSH1 0x4 ADD PUSH2 0x367A JUMP JUMPDEST SWAP4 PUSH2 0x3C70 JUMP JUMPDEST PUSH1 0x40 MLOAD SWAP1 PUSH1 0x1 DUP5 MLOAD SWAP3 PUSH1 0x20 DUP2 DUP2 DUP9 ADD SWAP6 DUP1 DUP8 DUP4 MCOPY DUP2 ADD PUSH1 0x3 DUP2 MSTORE SUB ADD SWAP1 KECCAK256 ADD DUP6 MLOAD PUSH1 0x1 PUSH1 0x1 PUSH1 0x40 SHL SUB DUP2 GT PUSH2 0x327 JUMPI PUSH2 0xDFC DUP3 SLOAD PUSH2 0x3747 JUMP JUMPDEST PUSH1 0x1F DUP2 GT PUSH2 0x116E JUMPI JUMPDEST POP PUSH1 0x20 PUSH1 0x1F DUP3 GT PUSH1 0x1 EQ PUSH2 0x1107 JUMPI SWAP1 DUP1 PUSH2 0xE3C SWAP5 SWAP4 SWAP3 PUSH0 SWAP2 PUSH2 0x10FC JUMPI JUMPDEST POP DUP2 PUSH1 0x1 SHL SWAP2 PUSH0 NOT SWAP1 PUSH1 0x3 SHL SHR NOT AND OR SWAP1 SSTORE JUMPDEST DUP4 DUP6 PUSH2 0x44E0 JUMP JUMPDEST PUSH1 0x2 SLOAD SWAP3 PUSH0 JUMPDEST DUP5 DUP2 LT PUSH2 0xE4B JUMPI STOP JUMPDEST PUSH2 0xE54 DUP2 PUSH2 0x3BF2 JUMP JUMPDEST POP PUSH1 0x40 MLOAD PUSH2 0xE6A DUP2 PUSH2 0x4FC PUSH1 0x20 DUP3 ADD DUP1 SWAP6 PUSH2 0x3CA0 JUMP JUMPDEST MLOAD SWAP1 KECCAK256 PUSH1 0x40 MLOAD PUSH1 0x20 DUP2 ADD SWAP1 PUSH2 0xE97 PUSH1 0x20 DUP3 DUP8 MLOAD DUP1 DUP11 DUP8 MCOPY DUP2 ADD PUSH0 DUP4 DUP3 ADD MSTORE SUB ADD PUSH1 0x1F NOT DUP2 ADD DUP4 MSTORE DUP3 PUSH2 0x3659 JUMP JUMPDEST MLOAD SWAP1 KECCAK256 EQ PUSH2 0xEA8 JUMPI JUMPDEST PUSH1 0x1 ADD PUSH2 0xE42 JUMP JUMPDEST PUSH1 0x1 PUSH2 0xEB3 DUP3 PUSH2 0x3BF2 JUMP JUMPDEST POP ADD DUP7 MLOAD PUSH1 0x1 PUSH1 0x1 PUSH1 0x40 SHL SUB DUP2 GT PUSH2 0x327 JUMPI PUSH2 0xECF DUP3 SLOAD PUSH2 0x3747 JUMP JUMPDEST PUSH1 0x1F DUP2 GT PUSH2 0x10B7 JUMPI JUMPDEST POP DUP1 PUSH1 0x20 PUSH1 0x1F DUP3 GT PUSH1 0x1 EQ PUSH2 0x1054 JUMPI PUSH0 SWAP2 PUSH2 0x1049 JUMPI JUMPDEST POP DUP2 PUSH1 0x1 SHL SWAP2 PUSH0 NOT SWAP1 PUSH1 0x3 SHL SHR NOT AND OR SWAP1 SSTORE JUMPDEST PUSH1 0x3 PUSH2 0xF0C DUP3 PUSH2 0x3BF2 JUMP JUMPDEST POP ADD DUP1 SLOAD PUSH2 0xFF00 NOT AND PUSH2 0x100 OR SWAP1 SSTORE PUSH1 0x4 PUSH2 0xF26 DUP3 PUSH2 0x3BF2 JUMP JUMPDEST POP ADD DUP5 MLOAD PUSH1 0x1 PUSH1 0x1 PUSH1 0x40 SHL SUB DUP2 GT PUSH2 0x327 JUMPI PUSH2 0xF42 DUP3 SLOAD PUSH2 0x3747 JUMP JUMPDEST PUSH1 0x1F DUP2 GT PUSH2 0x1004 JUMPI JUMPDEST POP DUP1 PUSH1 0x20 PUSH1 0x1F DUP3 GT PUSH1 0x1 EQ PUSH2 0xFA3 JUMPI PUSH0 SWAP2 PUSH2 0xF98 JUMPI JUMPDEST POP DUP2 PUSH1 0x1 SHL SWAP2 PUSH0 NOT SWAP1 PUSH1 0x3 SHL SHR NOT AND OR SWAP1 SSTORE JUMPDEST PUSH1 0x82 TIMESTAMP ADD SWAP1 DUP2 TIMESTAMP GT PUSH2 0x33B JUMPI PUSH1 0x1 SWAP2 PUSH1 0x5 PUSH2 0xF8E DUP4 PUSH2 0x3BF2 JUMP JUMPDEST POP ADD SSTORE SWAP1 POP PUSH2 0xEA0 JUMP JUMPDEST SWAP1 POP DUP7 ADD MLOAD DUP10 PUSH2 0xF61 JUMP JUMPDEST PUSH0 DUP5 DUP2 MSTORE DUP2 DUP2 KECCAK256 SWAP3 POP PUSH1 0x1F NOT DUP5 AND SWAP1 JUMPDEST DUP2 DUP2 LT PUSH2 0xFEC JUMPI POP SWAP1 DUP4 PUSH1 0x1 SWAP5 SWAP4 SWAP3 LT PUSH2 0xFD4 JUMPI JUMPDEST POP POP DUP2 SHL ADD SWAP1 SSTORE PUSH2 0xF74 JUMP JUMPDEST DUP9 ADD MLOAD PUSH0 NOT PUSH1 0xF8 DUP5 PUSH1 0x3 SHL AND SHR NOT AND SWAP1 SSTORE DUP10 DUP1 PUSH2 0xFC8 JUMP JUMPDEST SWAP2 SWAP3 PUSH1 0x20 PUSH1 0x1 DUP2 SWAP3 DUP7 DUP14 ADD MLOAD DUP2 SSTORE ADD SWAP5 ADD SWAP3 ADD PUSH2 0xFB3 JUMP JUMPDEST DUP3 PUSH0 MSTORE PUSH1 0x20 PUSH0 KECCAK256 PUSH1 0x1F DUP4 ADD PUSH1 0x5 SHR DUP2 ADD SWAP2 PUSH1 0x20 DUP5 LT PUSH2 0x103F JUMPI JUMPDEST PUSH1 0x1F ADD PUSH1 0x5 SHR ADD SWAP1 JUMPDEST DUP2 DUP2 LT PUSH2 0x1034 JUMPI POP PUSH2 0xF4B JUMP JUMPDEST PUSH0 DUP2 SSTORE PUSH1 0x1 ADD PUSH2 0x1027 JUMP JUMPDEST SWAP1 SWAP2 POP DUP2 SWAP1 PUSH2 0x101E JUMP JUMPDEST SWAP1 POP DUP9 ADD MLOAD DUP10 PUSH2 0xEEE JUMP JUMPDEST PUSH0 DUP5 DUP2 MSTORE DUP2 DUP2 KECCAK256 SWAP3 POP PUSH1 0x1F NOT DUP5 AND SWAP1 JUMPDEST DUP12 DUP3 DUP3 LT PUSH2 0x109F JUMPI POP POP SWAP1 DUP4 PUSH1 0x1 SWAP5 SWAP4 SWAP3 LT PUSH2 0x1087 JUMPI JUMPDEST POP POP DUP2 SHL ADD SWAP1 SSTORE PUSH2 0xF01 JUMP JUMPDEST DUP11 ADD MLOAD PUSH0 NOT PUSH1 0xF8 DUP5 PUSH1 0x3 SHL AND SHR NOT AND SWAP1 SSTORE DUP10 DUP1 PUSH2 0x107B JUMP JUMPDEST PUSH1 0x1 DUP5 SWAP6 PUSH1 0x20 SWAP4 SWAP6 DUP5 SWAP4 ADD MLOAD DUP2 SSTORE ADD SWAP5 ADD SWAP3 ADD PUSH2 0x1064 JUMP JUMPDEST DUP3 PUSH0 MSTORE PUSH1 0x20 PUSH0 KECCAK256 PUSH1 0x1F DUP4 ADD PUSH1 0x5 SHR DUP2 ADD SWAP2 PUSH1 0x20 DUP5 LT PUSH2 0x10F2 JUMPI JUMPDEST PUSH1 0x1F ADD PUSH1 0x5 SHR ADD SWAP1 JUMPDEST DUP2 DUP2 LT PUSH2 0x10E7 JUMPI POP PUSH2 0xED8 JUMP JUMPDEST PUSH0 DUP2 SSTORE PUSH1 0x1 ADD PUSH2 0x10DA JUMP JUMPDEST SWAP1 SWAP2 POP DUP2 SWAP1 PUSH2 0x10D1 JUMP JUMPDEST SWAP1 POP DUP9 ADD MLOAD DUP10 PUSH2 0xE22 JUMP JUMPDEST PUSH1 0x1F NOT DUP3 AND SWAP1 DUP4 PUSH0 MSTORE DUP1 PUSH0 KECCAK256 SWAP2 PUSH0 JUMPDEST DUP11 DUP3 DUP3 LT PUSH2 0x1156 JUMPI POP POP SWAP2 DUP4 SWAP2 PUSH2 0xE3C SWAP7 SWAP6 SWAP5 PUSH1 0x1 SWAP5 LT PUSH2 0x113E JUMPI JUMPDEST POP POP DUP2 SHL ADD SWAP1 SSTORE PUSH2 0xE35 JUMP JUMPDEST DUP11 ADD MLOAD PUSH0 NOT PUSH1 0xF8 DUP5 PUSH1 0x3 SHL AND SHR NOT AND SWAP1 SSTORE DUP10 DUP1 PUSH2 0x1132 JUMP JUMPDEST PUSH1 0x1 DUP5 SWAP6 PUSH1 0x20 SWAP4 SWAP6 DUP5 SWAP4 ADD MLOAD DUP2 SSTORE ADD SWAP5 ADD SWAP3 ADD PUSH2 0x1116 JUMP JUMPDEST DUP3 PUSH0 MSTORE PUSH1 0x20 PUSH0 KECCAK256 PUSH1 0x1F DUP4 ADD PUSH1 0x5 SHR DUP2 ADD SWAP2 PUSH1 0x20 DUP5 LT PUSH2 0x11A9 JUMPI JUMPDEST PUSH1 0x1F ADD PUSH1 0x5 SHR ADD SWAP1 JUMPDEST DUP2 DUP2 LT PUSH2 0x119E JUMPI POP PUSH2 0xE05 JUMP JUMPDEST PUSH0 DUP2 SSTORE PUSH1 0x1 ADD PUSH2 0x1191 JUMP JUMPDEST SWAP1 SWAP2 POP DUP2 SWAP1 PUSH2 0x1188 JUMP JUMPDEST CALLVALUE PUSH2 0x1D3 JUMPI PUSH2 0x11CC PUSH2 0x11C4 CALLDATASIZE PUSH2 0x3AC8 JUMP JUMPDEST DUP2 SWAP3 SWAP2 PUSH2 0x4000 JUMP JUMPDEST PUSH1 0x2 SLOAD SWAP1 PUSH1 0x20 DUP2 ADD SWAP1 PUSH0 JUMPDEST DUP4 DUP2 LT PUSH2 0x11E0 JUMPI STOP JUMPDEST PUSH2 0x11E9 DUP2 PUSH2 0x3BF2 JUMP JUMPDEST POP PUSH1 0x40 MLOAD PUSH2 0x11FF DUP2 PUSH2 0x4FC PUSH1 0x20 DUP3 ADD DUP1 SWAP6 PUSH2 0x3CA0 JUMP JUMPDEST MLOAD SWAP1 KECCAK256 PUSH1 0x40 MLOAD PUSH1 0x20 DUP2 ADD SWAP1 PUSH2 0x122C PUSH1 0x20 DUP3 DUP8 MLOAD DUP1 DUP11 DUP8 MCOPY DUP2 ADD PUSH0 DUP4 DUP3 ADD MSTORE SUB ADD PUSH1 0x1F NOT DUP2 ADD DUP4 MSTORE DUP3 PUSH2 0x3659 JUMP JUMPDEST MLOAD SWAP1 KECCAK256 EQ PUSH2 0x123D JUMPI JUMPDEST PUSH1 0x1 ADD PUSH2 0x11D7 JUMP JUMPDEST PUSH1 0x3 PUSH2 0x1248 DUP3 PUSH2 0x3BF2 JUMP JUMPDEST POP ADD PUSH2 0x600 PUSH2 0xFF00 NOT DUP3 SLOAD AND OR SWAP1 SSTORE PUSH1 0x82 TIMESTAMP ADD SWAP1 DUP2 TIMESTAMP GT PUSH2 0x33B JUMPI PUSH1 0x1 SWAP2 PUSH1 0x5 PUSH2 0x1271 DUP4 PUSH2 0x3BF2 JUMP JUMPDEST POP ADD SSTORE SWAP1 POP PUSH2 0x1235 JUMP JUMPDEST CALLVALUE PUSH2 0x1D3 JUMPI PUSH1 0x20 CALLDATASIZE PUSH1 0x3 NOT ADD SLT PUSH2 0x1D3 JUMPI PUSH1 0x4 CALLDATALOAD PUSH1 0x1 PUSH1 0x1 PUSH1 0x40 SHL SUB DUP2 GT PUSH2 0x1D3 JUMPI PUSH2 0xCF9 PUSH2 0x12B1 PUSH2 0xCB1 SWAP3 CALLDATASIZE SWAP1 PUSH1 0x4 ADD PUSH2 0x367A JUMP JUMPDEST PUSH2 0x3F43 JUMP JUMPDEST CALLVALUE PUSH2 0x1D3 JUMPI PUSH1 0x40 CALLDATASIZE PUSH1 0x3 NOT ADD SLT PUSH2 0x1D3 JUMPI PUSH1 0x4 CALLDATALOAD PUSH1 0x1 PUSH1 0x1 PUSH1 0x40 SHL SUB DUP2 GT PUSH2 0x1D3 JUMPI PUSH2 0x12E9 PUSH2 0x1D1 SWAP2 CALLDATASIZE SWAP1 PUSH1 0x4 ADD PUSH2 0x367A JUMP JUMPDEST PUSH1 0x24 CALLDATALOAD SWAP1 PUSH2 0x3E69 JUMP JUMPDEST CALLVALUE PUSH2 0x1D3 JUMPI PUSH1 0x20 CALLDATASIZE PUSH1 0x3 NOT ADD SLT PUSH2 0x1D3 JUMPI PUSH1 0x4 CALLDATALOAD PUSH1 0x1 PUSH1 0x1 PUSH1 0x40 SHL SUB DUP2 GT PUSH2 0x1D3 JUMPI PUSH2 0x1322 SWAP1 CALLDATASIZE SWAP1 PUSH1 0x4 ADD PUSH2 0x367A JUMP JUMPDEST PUSH1 0x2 SLOAD PUSH1 0x20 DUP3 ADD SWAP2 PUSH0 DUP1 JUMPDEST DUP4 DUP2 LT PUSH2 0x13FE JUMPI POP PUSH1 0xFF PUSH2 0x1341 SWAP2 AND PUSH2 0x3D21 JUMP JUMPDEST SWAP3 PUSH0 SWAP2 PUSH0 JUMPDEST DUP5 DUP2 LT PUSH2 0x135B JUMPI PUSH1 0x40 MLOAD DUP1 PUSH2 0xCB1 DUP9 DUP3 PUSH2 0x386B JUMP JUMPDEST PUSH1 0x2 PUSH2 0x4FC PUSH2 0x1380 PUSH2 0x136C DUP5 PUSH2 0x3BF2 JUMP JUMPDEST POP PUSH1 0x40 MLOAD SWAP3 DUP4 SWAP2 PUSH1 0x20 DUP4 ADD SWAP6 DUP7 SWAP2 ADD PUSH2 0x3CA0 JUMP JUMPDEST MLOAD SWAP1 KECCAK256 PUSH1 0x40 MLOAD PUSH1 0x20 DUP2 ADD SWAP1 PUSH2 0x13AD PUSH1 0x20 DUP3 DUP8 MLOAD DUP1 DUP11 DUP8 MCOPY DUP2 ADD PUSH0 DUP4 DUP3 ADD MSTORE SUB ADD PUSH1 0x1F NOT DUP2 ADD DUP4 MSTORE DUP3 PUSH2 0x3659 JUMP JUMPDEST MLOAD SWAP1 KECCAK256 EQ PUSH2 0x13BE JUMPI JUMPDEST PUSH1 0x1 ADD PUSH2 0x1346 JUMP JUMPDEST SWAP3 PUSH2 0x13F6 PUSH1 0x1 SWAP2 PUSH2 0x13F0 PUSH2 0x13DA PUSH2 0x13D4 DUP9 PUSH2 0x3BF2 JUMP JUMPDEST POP PUSH2 0x3DBE JUMP JUMPDEST PUSH1 0xFF DUP4 AND SWAP1 PUSH2 0x13E9 DUP3 DUP13 PUSH2 0x3D9E JUMP JUMPDEST MSTORE DUP10 PUSH2 0x3D9E JUMP JUMPDEST POP PUSH2 0x3E35 JUMP JUMPDEST SWAP4 SWAP1 POP PUSH2 0x13B6 JUMP JUMPDEST PUSH1 0x2 PUSH2 0x4FC PUSH2 0x140F PUSH2 0x136C DUP5 PUSH2 0x3BF2 JUMP JUMPDEST MLOAD SWAP1 KECCAK256 PUSH1 0x40 MLOAD PUSH1 0x20 DUP2 ADD SWAP1 PUSH2 0x143C PUSH1 0x20 DUP3 DUP9 MLOAD DUP1 DUP13 DUP8 MCOPY DUP2 ADD PUSH0 DUP4 DUP3 ADD MSTORE SUB ADD PUSH1 0x1F NOT DUP2 ADD DUP4 MSTORE DUP3 PUSH2 0x3659 JUMP JUMPDEST MLOAD SWAP1 KECCAK256 EQ PUSH2 0x144D JUMPI JUMPDEST PUSH1 0x1 ADD PUSH2 0x132D JUMP JUMPDEST SWAP1 PUSH2 0x1459 PUSH1 0x1 SWAP2 PUSH2 0x3E35 JUMP JUMPDEST SWAP2 SWAP1 POP PUSH2 0x1445 JUMP JUMPDEST CALLVALUE PUSH2 0x1D3 JUMPI PUSH1 0x20 CALLDATASIZE PUSH1 0x3 NOT ADD SLT PUSH2 0x1D3 JUMPI PUSH1 0x4 CALLDATALOAD PUSH1 0x1 PUSH1 0x1 PUSH1 0x40 SHL SUB DUP2 GT PUSH2 0x1D3 JUMPI PUSH1 0x20 DUP1 PUSH2 0x1497 PUSH2 0x14EC SWAP4 CALLDATASIZE SWAP1 PUSH1 0x4 ADD PUSH2 0x367A JUMP JUMPDEST PUSH1 0x40 MLOAD SWAP3 DUP2 DUP5 SWAP3 MLOAD SWAP2 DUP3 SWAP2 ADD DUP4 MCOPY DUP2 ADD PUSH1 0x4 DUP2 MSTORE SUB ADD SWAP1 KECCAK256 PUSH2 0xCB1 PUSH2 0x14BB DUP3 PUSH2 0x377F JUMP JUMPDEST SWAP2 PUSH2 0x14FA PUSH2 0x14D7 PUSH1 0x2 PUSH2 0x14D0 PUSH1 0x1 DUP6 ADD PUSH2 0x377F JUMP JUMPDEST SWAP4 ADD PUSH2 0x377F JUMP JUMPDEST SWAP2 PUSH1 0x40 MLOAD SWAP6 DUP7 SWAP6 PUSH1 0x60 DUP8 MSTORE PUSH1 0x60 DUP8 ADD SWAP1 PUSH2 0x36CF JUMP JUMPDEST SWAP1 DUP6 DUP3 SUB PUSH1 0x20 DUP8 ADD MSTORE PUSH2 0x36CF JUMP JUMPDEST SWAP1 DUP4 DUP3 SUB PUSH1 0x40 DUP6 ADD MSTORE PUSH2 0x36CF JUMP JUMPDEST CALLVALUE PUSH2 0x1D3 JUMPI PUSH1 0x20 CALLDATASIZE PUSH1 0x3 NOT ADD SLT PUSH2 0x1D3 JUMPI PUSH1 0x4 CALLDATALOAD PUSH1 0x1 PUSH1 0x1 PUSH1 0x40 SHL SUB DUP2 GT PUSH2 0x1D3 JUMPI PUSH2 0xC9D PUSH2 0x153E PUSH2 0xCB1 SWAP3 CALLDATASIZE SWAP1 PUSH1 0x4 ADD PUSH2 0x367A JUMP JUMPDEST PUSH2 0x3E46 JUMP JUMPDEST CALLVALUE PUSH2 0x1D3 JUMPI PUSH1 0x20 CALLDATASIZE PUSH1 0x3 NOT ADD SLT PUSH2 0x1D3 JUMPI PUSH1 0x4 CALLDATALOAD PUSH1 0x1 PUSH1 0x1 PUSH1 0x40 SHL SUB DUP2 GT PUSH2 0x1D3 JUMPI PUSH2 0x1573 SWAP1 CALLDATASIZE SWAP1 PUSH1 0x4 ADD PUSH2 0x367A JUMP JUMPDEST PUSH1 0x40 MLOAD PUSH2 0x157F DUP2 PUSH2 0x35D1 JUMP JUMPDEST PUSH1 0x60 DUP2 MSTORE PUSH1 0x20 DUP2 ADD PUSH1 0x60 SWAP1 MSTORE PUSH1 0x40 DUP2 ADD PUSH0 SWAP1 MSTORE PUSH1 0x60 ADD PUSH1 0x60 SWAP1 MSTORE PUSH1 0x40 MLOAD PUSH2 0x15A5 DUP2 PUSH2 0x3607 JUMP JUMPDEST PUSH1 0x60 DUP2 MSTORE PUSH1 0x20 DUP2 ADD PUSH1 0x60 SWAP1 MSTORE PUSH1 0x40 ADD PUSH1 0x60 SWAP1 MSTORE PUSH1 0x40 MLOAD PUSH2 0x15C4 DUP2 PUSH2 0x3622 JUMP JUMPDEST PUSH1 0x60 DUP2 MSTORE PUSH1 0x20 ADD PUSH1 0x60 SWAP1 MSTORE PUSH1 0x40 MLOAD PUSH2 0x15DB DUP2 PUSH2 0x35B6 JUMP JUMPDEST PUSH1 0x60 DUP2 MSTORE PUSH1 0x20 DUP2 ADD PUSH1 0x60 SWAP1 MSTORE PUSH1 0x40 DUP2 ADD PUSH1 0x60 SWAP1 MSTORE PUSH1 0x60 DUP2 ADD PUSH1 0x60 SWAP1 MSTORE PUSH1 0x80 DUP2 ADD PUSH1 0x60 SWAP1 MSTORE PUSH1 0xA0 ADD PUSH1 0x60 SWAP1 MSTORE PUSH1 0x40 MLOAD SWAP1 DUP1 MLOAD SWAP2 DUP1 PUSH1 0x20 DUP4 ADD SWAP4 DUP1 DUP6 DUP4 MCOPY DUP2 ADD PUSH1 0x3 DUP2 MSTORE SUB PUSH1 0x20 ADD SWAP1 KECCAK256 SWAP1 PUSH1 0x40 MLOAD DUP1 DUP3 MLOAD DUP1 DUP7 DUP4 MCOPY DUP2 ADD PUSH1 0x4 DUP2 MSTORE SUB PUSH1 0x20 ADD SWAP1 KECCAK256 SWAP3 PUSH1 0x40 MLOAD DUP1 DUP4 MLOAD DUP1 DUP5 DUP4 MCOPY DUP2 ADD PUSH1 0x5 DUP2 MSTORE SUB PUSH1 0x20 ADD SWAP1 KECCAK256 SWAP2 PUSH1 0x40 MLOAD SWAP2 DUP3 SWAP2 MLOAD DUP1 SWAP2 DUP4 MCOPY DUP2 ADD PUSH1 0x6 DUP2 MSTORE SUB PUSH1 0x20 ADD SWAP1 KECCAK256 SWAP3 PUSH1 0x40 MLOAD SWAP4 PUSH2 0x1677 DUP6 PUSH2 0x35D1 JUMP JUMPDEST PUSH2 0x1680 DUP5 PUSH2 0x377F JUMP JUMPDEST DUP6 MSTORE PUSH2 0x168E PUSH1 0x1 DUP6 ADD PUSH2 0x377F JUMP JUMPDEST SWAP4 PUSH1 0x20 DUP7 ADD SWAP5 DUP6 MSTORE PUSH1 0x2 DUP2 ADD SLOAD PUSH1 0xFF AND SWAP1 PUSH1 0x40 DUP8 ADD SWAP2 DUP3 MSTORE PUSH1 0x3 ADD PUSH2 0x16B2 SWAP1 PUSH2 0x377F JUMP JUMPDEST SWAP3 PUSH1 0x60 DUP8 ADD SWAP4 DUP5 MSTORE PUSH1 0x40 MLOAD SWAP5 PUSH2 0x16C7 DUP7 PUSH2 0x3607 JUMP JUMPDEST PUSH2 0x16D0 DUP3 PUSH2 0x377F JUMP JUMPDEST DUP7 MSTORE PUSH2 0x16DE PUSH1 0x1 DUP4 ADD PUSH2 0x377F JUMP JUMPDEST SWAP2 PUSH1 0x20 DUP8 ADD SWAP3 DUP4 MSTORE PUSH1 0x2 ADD PUSH2 0x16F2 SWAP1 PUSH2 0x377F JUMP JUMPDEST SWAP1 PUSH1 0x40 DUP8 ADD SWAP2 DUP3 MSTORE PUSH1 0x40 MLOAD SWAP1 PUSH2 0x1707 DUP3 PUSH2 0x3622 JUMP JUMPDEST PUSH2 0x1710 DUP2 PUSH2 0x377F JUMP JUMPDEST DUP3 MSTORE PUSH1 0x1 ADD PUSH2 0x171E SWAP1 PUSH2 0x377F JUMP JUMPDEST PUSH1 0x20 DUP3 ADD SWAP1 DUP2 MSTORE PUSH1 0x40 MLOAD SWAP8 PUSH2 0x1732 DUP10 PUSH2 0x35B6 JUMP JUMPDEST PUSH2 0x173B DUP8 PUSH2 0x377F JUMP JUMPDEST DUP10 MSTORE PUSH2 0x1749 PUSH1 0x1 DUP9 ADD PUSH2 0x377F JUMP JUMPDEST PUSH1 0x20 DUP11 ADD SWAP1 DUP2 MSTORE SWAP4 PUSH2 0x175D PUSH1 0x2 DUP10 ADD PUSH2 0x377F JUMP JUMPDEST PUSH1 0x40 DUP12 ADD SWAP1 DUP2 MSTORE SWAP6 PUSH2 0x1771 PUSH1 0x3 DUP11 ADD PUSH2 0x377F JUMP JUMPDEST PUSH1 0x60 DUP13 ADD SWAP1 DUP2 MSTORE SWAP8 PUSH2 0x1785 PUSH1 0x4 DUP12 ADD PUSH2 0x377F JUMP JUMPDEST SWAP10 PUSH1 0x80 DUP14 ADD SWAP11 DUP12 MSTORE PUSH1 0x5 ADD PUSH2 0x1799 SWAP1 PUSH2 0x377F JUMP JUMPDEST SWAP11 PUSH1 0xA0 DUP14 ADD SWAP12 DUP13 MSTORE PUSH1 0x40 MLOAD SWAP15 DUP16 SWAP15 DUP16 SWAP2 PUSH1 0x80 DUP4 MSTORE MLOAD PUSH1 0x80 DUP4 ADD PUSH1 0x80 SWAP1 MSTORE PUSH2 0x100 DUP4 ADD PUSH2 0x17C4 SWAP2 PUSH2 0x36CF JUMP JUMPDEST SWAP1 MLOAD DUP3 DUP3 SUB PUSH1 0x7F NOT ADD PUSH1 0xA0 DUP5 ADD MSTORE PUSH2 0x17DC SWAP2 SWAP1 PUSH2 0x36CF JUMP JUMPDEST SWAP3 MLOAD PUSH1 0xFF AND PUSH1 0xC0 SWAP1 SWAP2 ADD MSTORE MLOAD DUP14 DUP3 SUB PUSH1 0x7F NOT ADD PUSH1 0xE0 DUP16 ADD MSTORE PUSH2 0x17FE SWAP2 SWAP1 PUSH2 0x36CF JUMP JUMPDEST SWAP3 DUP13 DUP1 DUP6 SUB SWAP1 PUSH1 0x20 ADD MSTORE MLOAD PUSH1 0x60 DUP5 MSTORE PUSH1 0x60 DUP5 ADD PUSH2 0x181A SWAP2 PUSH2 0x36CF JUMP JUMPDEST SWAP1 MLOAD SWAP1 DUP4 DUP2 SUB PUSH1 0x20 DUP6 ADD MSTORE PUSH2 0x182E SWAP2 PUSH2 0x36CF JUMP JUMPDEST SWAP1 MLOAD SWAP2 DUP1 DUP3 SUB SWAP1 PUSH1 0x40 ADD MSTORE PUSH2 0x1842 SWAP2 PUSH2 0x36CF JUMP JUMPDEST SWAP2 DUP10 DUP4 SUB PUSH1 0x40 DUP12 ADD MSTORE MLOAD PUSH1 0x40 DUP4 MSTORE PUSH1 0x40 DUP4 ADD PUSH2 0x185D SWAP2 PUSH2 0x36CF JUMP JUMPDEST SWAP1 MLOAD SWAP2 DUP1 DUP3 SUB SWAP1 PUSH1 0x20 ADD MSTORE PUSH2 0x1871 SWAP2 PUSH2 0x36CF JUMP JUMPDEST SWAP6 DUP8 DUP8 SUB PUSH1 0x60 DUP10 ADD MSTORE MLOAD PUSH1 0xC0 DUP8 MSTORE PUSH1 0xC0 DUP8 ADD PUSH2 0x188C SWAP2 PUSH2 0x36CF JUMP JUMPDEST SWAP1 MLOAD SWAP1 DUP7 DUP2 SUB PUSH1 0x20 DUP9 ADD MSTORE PUSH2 0x18A0 SWAP2 PUSH2 0x36CF JUMP JUMPDEST SWAP1 MLOAD SWAP1 DUP6 DUP2 SUB PUSH1 0x40 DUP8 ADD MSTORE PUSH2 0x18B4 SWAP2 PUSH2 0x36CF JUMP JUMPDEST SWAP1 MLOAD SWAP1 DUP5 DUP2 SUB PUSH1 0x60 DUP7 ADD MSTORE PUSH2 0x18C8 SWAP2 PUSH2 0x36CF JUMP JUMPDEST SWAP1 MLOAD SWAP1 DUP4 DUP2 SUB PUSH1 0x80 DUP6 ADD MSTORE PUSH2 0x18DC SWAP2 PUSH2 0x36CF JUMP JUMPDEST SWAP1 MLOAD SWAP2 DUP1 DUP3 SUB SWAP1 PUSH1 0xA0 ADD MSTORE PUSH2 0xCB1 SWAP2 PUSH2 0x36CF JUMP JUMPDEST CALLVALUE PUSH2 0x1D3 JUMPI PUSH1 0x20 CALLDATASIZE PUSH1 0x3 NOT ADD SLT PUSH2 0x1D3 JUMPI PUSH1 0x4 CALLDATALOAD PUSH1 0x1 PUSH1 0x1 PUSH1 0x40 SHL SUB DUP2 GT PUSH2 0x1D3 JUMPI PUSH1 0x20 DUP1 PUSH2 0x1926 PUSH2 0x1983 SWAP4 CALLDATASIZE SWAP1 PUSH1 0x4 ADD PUSH2 0x367A JUMP JUMPDEST PUSH1 0x40 MLOAD SWAP3 DUP2 DUP5 SWAP3 MLOAD SWAP2 DUP3 SWAP2 ADD DUP4 MCOPY DUP2 ADD PUSH1 0x3 DUP2 MSTORE SUB ADD SWAP1 KECCAK256 PUSH2 0xCB1 PUSH2 0x194A DUP3 PUSH2 0x377F JUMP JUMPDEST SWAP2 PUSH2 0x1957 PUSH1 0x1 DUP3 ADD PUSH2 0x377F JUMP JUMPDEST PUSH2 0x1991 PUSH2 0x196E PUSH1 0x3 PUSH1 0xFF PUSH1 0x2 DUP7 ADD SLOAD AND SWAP5 ADD PUSH2 0x377F JUMP JUMPDEST SWAP2 PUSH1 0x40 MLOAD SWAP7 DUP8 SWAP7 PUSH1 0x80 DUP9 MSTORE PUSH1 0x80 DUP9 ADD SWAP1 PUSH2 0x36CF JUMP JUMPDEST SWAP1 DUP7 DUP3 SUB PUSH1 0x20 DUP9 ADD MSTORE PUSH2 0x36CF JUMP JUMPDEST SWAP2 PUSH1 0x40 DUP6 ADD MSTORE DUP4 DUP3 SUB PUSH1 0x60 DUP6 ADD MSTORE PUSH2 0x36CF JUMP JUMPDEST CALLVALUE PUSH2 0x1D3 JUMPI PUSH2 0x100 CALLDATASIZE PUSH1 0x3 NOT ADD SLT PUSH2 0x1D3 JUMPI PUSH1 0x4 CALLDATALOAD PUSH1 0x1 PUSH1 0x1 PUSH1 0x40 SHL SUB DUP2 GT PUSH2 0x1D3 JUMPI PUSH2 0x19D5 SWAP1 CALLDATASIZE SWAP1 PUSH1 0x4 ADD PUSH2 0x367A JUMP JUMPDEST PUSH1 0x24 CALLDATALOAD PUSH1 0x1 PUSH1 0x1 PUSH1 0x40 SHL SUB DUP2 GT PUSH2 0x1D3 JUMPI PUSH2 0x19F4 SWAP1 CALLDATASIZE SWAP1 PUSH1 0x4 ADD PUSH2 0x367A JUMP JUMPDEST PUSH1 0x44 CALLDATALOAD PUSH1 0x1 PUSH1 0x1 PUSH1 0x40 SHL SUB DUP2 GT PUSH2 0x1D3 JUMPI PUSH2 0x1A13 SWAP1 CALLDATASIZE SWAP1 PUSH1 0x4 ADD PUSH2 0x367A JUMP JUMPDEST SWAP2 PUSH1 0x64 CALLDATALOAD PUSH1 0x1 PUSH1 0x1 PUSH1 0xA0 SHL SUB DUP2 AND DUP2 SUB PUSH2 0x1D3 JUMPI PUSH1 0x84 CALLDATALOAD SWAP4 PUSH1 0xFF DUP6 AND DUP1 SWAP6 SUB PUSH2 0x1D3 JUMPI PUSH1 0xA4 CALLDATALOAD PUSH1 0x1 PUSH1 0x1 PUSH1 0x40 SHL SUB DUP2 GT PUSH2 0x1D3 JUMPI PUSH2 0x1A55 SWAP1 CALLDATASIZE SWAP1 PUSH1 0x4 ADD PUSH2 0x367A JUMP JUMPDEST SWAP5 PUSH1 0xC4 CALLDATALOAD PUSH1 0x1 PUSH1 0x1 PUSH1 0x40 SHL SUB DUP2 GT PUSH2 0x1D3 JUMPI PUSH2 0x1A75 SWAP1 CALLDATASIZE SWAP1 PUSH1 0x4 ADD PUSH2 0x393B JUMP JUMPDEST SWAP3 PUSH1 0xE4 CALLDATALOAD SWAP1 PUSH1 0x1 PUSH1 0x1 PUSH1 0x40 SHL SUB DUP3 GT PUSH2 0x1D3 JUMPI DUP4 PUSH2 0x1A9A PUSH2 0x1AA0 SWAP4 CALLDATASIZE SWAP1 PUSH1 0x4 ADD PUSH2 0x39BE JUMP JUMPDEST SWAP8 PUSH2 0x3C70 JUMP JUMPDEST SWAP6 PUSH2 0x1AF0 DUP6 PUSH1 0x20 SWAP9 PUSH1 0x40 MLOAD SWAP1 PUSH2 0x1AB6 DUP12 DUP4 PUSH2 0x3659 JUMP JUMPDEST PUSH0 DUP3 MSTORE PUSH1 0x40 MLOAD PUSH2 0x1AC6 DUP13 DUP3 PUSH2 0x3659 JUMP JUMPDEST PUSH0 DUP2 MSTORE PUSH2 0x1AD1 PUSH2 0x3C22 JUMP JUMPDEST POP PUSH1 0x40 MLOAD SWAP3 PUSH2 0x1ADF DUP5 PUSH2 0x3607 JUMP JUMPDEST DUP4 MSTORE DUP12 DUP4 ADD MSTORE PUSH0 PUSH1 0x40 DUP4 ADD MSTORE PUSH2 0x484E JUMP JUMPDEST PUSH1 0x40 MLOAD PUSH2 0x1AFC DUP2 PUSH2 0x35D1 JUMP JUMPDEST DUP6 DUP2 MSTORE PUSH1 0x40 MLOAD PUSH2 0x1B0C DUP10 DUP3 PUSH2 0x3659 JUMP JUMPDEST PUSH0 DUP2 MSTORE DUP9 DUP3 ADD SWAP1 DUP2 MSTORE PUSH1 0x40 DUP3 ADD SWAP1 DUP5 DUP3 MSTORE PUSH1 0x60 DUP4 ADD SWAP4 DUP5 MSTORE PUSH1 0x40 MLOAD DUP11 DUP2 DUP11 MLOAD DUP1 DUP4 DUP14 ADD DUP4 MCOPY DUP2 ADD PUSH1 0x3 DUP2 MSTORE SUB ADD SWAP1 KECCAK256 SWAP3 MLOAD DUP1 MLOAD SWAP1 PUSH1 0x1 PUSH1 0x1 PUSH1 0x40 SHL SUB DUP3 GT PUSH2 0x327 JUMPI DUP2 SWAP1 DUP13 PUSH2 0x1B5B DUP8 SLOAD PUSH2 0x3747 JUMP JUMPDEST PUSH1 0x1F DUP2 GT PUSH2 0x28DD JUMPI JUMPDEST POP POP DUP13 SWAP1 DUP14 PUSH1 0x1F DUP5 GT PUSH1 0x1 EQ PUSH2 0x2879 JUMPI POP PUSH0 SWAP3 PUSH2 0x286E JUMPI JUMPDEST POP POP DUP2 PUSH1 0x1 SHL SWAP2 PUSH0 NOT SWAP1 PUSH1 0x3 SHL SHR NOT AND OR DUP4 SSTORE JUMPDEST MLOAD DUP1 MLOAD PUSH1 0x1 DUP5 ADD SWAP2 PUSH1 0x1 PUSH1 0x1 PUSH1 0x40 SHL SUB DUP3 GT PUSH2 0x327 JUMPI DUP12 PUSH2 0x1BB1 DUP5 SLOAD PUSH2 0x3747 JUMP JUMPDEST PUSH1 0x1F DUP2 GT PUSH2 0x2829 JUMPI JUMPDEST POP POP DUP12 SWAP1 DUP13 PUSH1 0x1F DUP5 GT PUSH1 0x1 EQ PUSH2 0x27BE JUMPI POP SWAP2 DUP1 PUSH1 0xFF SWAP5 SWAP3 PUSH1 0x3 SWAP8 SWAP7 SWAP5 PUSH0 SWAP3 PUSH2 0x27B3 JUMPI JUMPDEST POP POP DUP2 PUSH1 0x1 SHL SWAP2 PUSH0 NOT SWAP1 DUP9 SHL SHR NOT AND OR SWAP1 SSTORE JUMPDEST MLOAD AND PUSH1 0xFF PUSH1 0x2 DUP4 ADD SWAP2 AND PUSH1 0xFF NOT DUP3 SLOAD AND OR SWAP1 SSTORE ADD SWAP1 MLOAD DUP1 MLOAD SWAP1 PUSH1 0x1 PUSH1 0x1 PUSH1 0x40 SHL SUB DUP3 GT PUSH2 0x327 JUMPI DUP2 SWAP1 PUSH2 0x1C23 DUP5 SLOAD PUSH2 0x3747 JUMP JUMPDEST PUSH1 0x1F DUP2 GT PUSH2 0x2765 JUMPI JUMPDEST POP DUP10 SWAP1 PUSH1 0x1F DUP4 GT PUSH1 0x1 EQ PUSH2 0x2702 JUMPI PUSH0 SWAP3 PUSH2 0x26F7 JUMPI JUMPDEST POP POP DUP2 PUSH1 0x1 SHL SWAP2 PUSH0 NOT SWAP1 PUSH1 0x3 SHL SHR NOT AND OR SWAP1 SSTORE JUMPDEST PUSH1 0x40 MLOAD SWAP1 PUSH2 0x1C62 DUP3 PUSH2 0x35EC JUMP JUMPDEST DUP5 DUP3 MSTORE PUSH1 0x40 MLOAD SWAP3 PUSH2 0x1C73 DUP9 DUP6 PUSH2 0x3659 JUMP JUMPDEST PUSH0 DUP5 MSTORE DUP8 DUP4 ADD SWAP4 DUP5 MSTORE PUSH1 0x40 DUP4 ADD MSTORE PUSH1 0x60 DUP3 ADD MSTORE PUSH0 PUSH1 0x80 DUP3 ADD MSTORE PUSH1 0x40 MLOAD PUSH2 0x1C99 DUP8 DUP3 PUSH2 0x3659 JUMP JUMPDEST PUSH0 DUP2 MSTORE PUSH1 0xA0 DUP3 ADD MSTORE PUSH0 PUSH1 0xC0 DUP3 ADD MSTORE PUSH1 0x2 SLOAD PUSH9 0x10000000000000000 DUP2 LT ISZERO PUSH2 0x327 JUMPI DUP1 PUSH1 0x1 PUSH2 0x1CCB SWAP3 ADD PUSH1 0x2 SSTORE PUSH2 0x3BF2 JUMP JUMPDEST SWAP3 SWAP1 SWAP3 PUSH2 0x26E4 JUMPI DUP2 MLOAD DUP1 MLOAD SWAP1 PUSH1 0x1 PUSH1 0x1 PUSH1 0x40 SHL SUB DUP3 GT PUSH2 0x327 JUMPI DUP2 SWAP1 PUSH2 0x1CF1 DUP7 SLOAD PUSH2 0x3747 JUMP JUMPDEST PUSH1 0x1F DUP2 GT PUSH2 0x2696 JUMPI JUMPDEST POP DUP10 SWAP1 PUSH1 0x1F DUP4 GT PUSH1 0x1 EQ PUSH2 0x2633 JUMPI PUSH0 SWAP3 PUSH2 0x2628 JUMPI JUMPDEST POP POP DUP2 PUSH1 0x1 SHL SWAP2 PUSH0 NOT SWAP1 PUSH1 0x3 SHL SHR NOT AND OR DUP4 SSTORE JUMPDEST MLOAD DUP1 MLOAD SWAP1 PUSH1 0x1 PUSH1 0x1 PUSH1 0x40 SHL SUB DUP3 GT PUSH2 0x327 JUMPI DUP2 SWAP1 PUSH2 0x1D44 PUSH1 0x1 DUP7 ADD SLOAD PUSH2 0x3747 JUMP JUMPDEST PUSH1 0x1F DUP2 GT PUSH2 0x25D7 JUMPI JUMPDEST POP DUP9 SWAP1 PUSH1 0x1F DUP4 GT PUSH1 0x1 EQ PUSH2 0x256D JUMPI PUSH0 SWAP3 PUSH2 0x2562 JUMPI JUMPDEST POP POP DUP2 PUSH1 0x1 SHL SWAP2 PUSH0 NOT SWAP1 PUSH1 0x3 SHL SHR NOT AND OR PUSH1 0x1 DUP4 ADD SSTORE JUMPDEST PUSH1 0x2 DUP3 ADD PUSH1 0x40 DUP3 ADD MLOAD DUP1 MLOAD SWAP1 PUSH1 0x1 PUSH1 0x1 PUSH1 0x40 SHL SUB DUP3 GT PUSH2 0x327 JUMPI DUP2 SWAP1 PUSH2 0x1D9F DUP5 SLOAD PUSH2 0x3747 JUMP JUMPDEST PUSH1 0x1F DUP2 GT PUSH2 0x2514 JUMPI JUMPDEST POP DUP10 SWAP1 PUSH1 0x1F DUP4 GT PUSH1 0x1 EQ PUSH2 0x24B1 JUMPI PUSH0 SWAP3 PUSH2 0x24A6 JUMPI JUMPDEST POP POP DUP2 PUSH1 0x1 SHL SWAP2 PUSH0 NOT SWAP1 PUSH1 0x3 SHL SHR NOT AND OR SWAP1 SSTORE JUMPDEST PUSH1 0x3 DUP3 ADD PUSH1 0xFF DUP1 PUSH1 0x60 DUP5 ADD MLOAD AND AND PUSH1 0xFF NOT DUP3 SLOAD AND OR DUP2 SSTORE PUSH1 0x80 DUP3 ADD MLOAD PUSH1 0x7 DUP2 LT ISZERO PUSH2 0x2492 JUMPI PUSH2 0xFF00 DUP3 SLOAD SWAP2 PUSH1 0x8 SHL AND SWAP1 PUSH2 0xFF00 NOT AND OR SWAP1 SSTORE PUSH1 0x4 DUP3 ADD PUSH1 0xA0 DUP3 ADD MLOAD DUP1 MLOAD SWAP1 PUSH1 0x1 PUSH1 0x1 PUSH1 0x40 SHL SUB DUP3 GT PUSH2 0x327 JUMPI PUSH2 0x1E2D DUP4 SLOAD PUSH2 0x3747 JUMP JUMPDEST PUSH1 0x1F DUP2 GT PUSH2 0x244F JUMPI JUMPDEST POP DUP9 SWAP1 PUSH1 0x1F DUP4 GT PUSH1 0x1 EQ PUSH2 0x23E6 JUMPI SWAP2 DUP1 PUSH1 0xC0 SWAP5 SWAP3 PUSH1 0x5 SWAP7 SWAP5 PUSH0 SWAP3 PUSH2 0x23DB JUMPI JUMPDEST POP POP DUP2 PUSH1 0x1 SHL SWAP2 PUSH0 NOT SWAP1 PUSH1 0x3 SHL SHR NOT AND OR SWAP1 SSTORE JUMPDEST ADD MLOAD SWAP2 ADD SSTORE PUSH1 0x40 MLOAD DUP5 DUP2 DUP5 MLOAD DUP1 DUP4 DUP8 ADD DUP4 MCOPY DUP2 ADD PUSH1 0x4 DUP2 MSTORE SUB ADD SWAP1 KECCAK256 DUP2 MLOAD DUP1 MLOAD SWAP1 PUSH1 0x1 PUSH1 0x1 PUSH1 0x40 SHL SUB DUP3 GT PUSH2 0x327 JUMPI DUP2 SWAP1 PUSH2 0x1EA4 DUP5 SLOAD PUSH2 0x3747 JUMP JUMPDEST PUSH1 0x1F DUP2 GT PUSH2 0x238D JUMPI JUMPDEST POP DUP8 SWAP1 PUSH1 0x1F DUP4 GT PUSH1 0x1 EQ PUSH2 0x232A JUMPI PUSH0 SWAP3 PUSH2 0x231F JUMPI JUMPDEST POP POP DUP2 PUSH1 0x1 SHL SWAP2 PUSH0 NOT SWAP1 PUSH1 0x3 SHL SHR NOT AND OR DUP2 SSTORE JUMPDEST PUSH1 0x1 DUP2 ADD DUP6 DUP4 ADD MLOAD DUP1 MLOAD SWAP1 PUSH1 0x1 PUSH1 0x1 PUSH1 0x40 SHL SUB DUP3 GT PUSH2 0x327 JUMPI PUSH2 0x1EF9 DUP4 SLOAD PUSH2 0x3747 JUMP JUMPDEST PUSH1 0x1F DUP2 GT PUSH2 0x22DC JUMPI JUMPDEST POP DUP8 SWAP1 PUSH1 0x1F DUP4 GT PUSH1 0x1 EQ PUSH2 0x2273 JUMPI SWAP2 DUP1 PUSH1 0x2 SWAP5 SWAP3 PUSH1 0x40 SWAP7 SWAP5 PUSH0 SWAP3 PUSH2 0x2268 JUMPI JUMPDEST POP POP DUP2 PUSH1 0x1 SHL SWAP2 PUSH0 NOT SWAP1 PUSH1 0x3 SHL SHR NOT AND OR SWAP1 SSTORE JUMPDEST ADD SWAP2 ADD MLOAD SWAP2 DUP3 MLOAD SWAP2 PUSH1 0x1 PUSH1 0x1 PUSH1 0x40 SHL SUB DUP4 GT PUSH2 0x327 JUMPI DUP6 SWAP3 PUSH2 0x1F57 DUP3 SLOAD PUSH2 0x3747 JUMP JUMPDEST SWAP5 PUSH1 0x1F DUP7 GT PUSH2 0x2211 JUMPI JUMPDEST DUP5 SWAP6 POP DUP5 SWAP1 PUSH1 0x1F DUP4 GT PUSH1 0x1 EQ PUSH2 0x21AA JUMPI PUSH0 SWAP2 SWAP1 DUP4 PUSH2 0x219F JUMPI JUMPDEST POP POP DUP2 PUSH1 0x1 SHL SWAP2 PUSH0 NOT SWAP1 PUSH1 0x3 SHL SHR NOT AND OR SWAP1 SSTORE JUMPDEST PUSH1 0x40 MLOAD SWAP3 DUP2 DUP5 SWAP3 MLOAD SWAP2 DUP3 SWAP2 ADD DUP4 MCOPY DUP2 ADD PUSH1 0x5 DUP2 MSTORE SUB ADD SWAP1 KECCAK256 DUP2 MLOAD SWAP1 DUP2 MLOAD PUSH1 0x1 PUSH1 0x1 PUSH1 0x40 SHL SUB DUP2 GT PUSH2 0x327 JUMPI DUP5 SWAP3 PUSH2 0x1FC5 DUP4 SLOAD PUSH2 0x3747 JUMP JUMPDEST PUSH1 0x1F DUP2 GT PUSH2 0x214D JUMPI JUMPDEST POP DUP4 SWAP1 PUSH1 0x1F DUP4 GT PUSH1 0x1 EQ PUSH2 0x20E7 JUMPI PUSH1 0x1 SWAP4 SWAP3 SWAP2 PUSH0 SWAP2 DUP4 PUSH2 0x20DC JUMPI JUMPDEST POP POP PUSH0 NOT PUSH1 0x3 DUP4 SWAP1 SHL SHR NOT AND SWAP1 DUP4 SHL OR DUP2 SSTORE JUMPDEST ADD SWAP2 ADD MLOAD SWAP2 DUP3 MLOAD SWAP1 PUSH1 0x1 PUSH1 0x1 PUSH1 0x40 SHL SUB DUP3 GT PUSH2 0x327 JUMPI PUSH2 0x201C DUP4 SLOAD PUSH2 0x3747 JUMP JUMPDEST PUSH1 0x1F DUP2 GT PUSH2 0x2099 JUMPI JUMPDEST POP DUP1 PUSH1 0x1F DUP4 GT PUSH1 0x1 EQ PUSH2 0x2053 JUMPI POP DUP2 SWAP3 SWAP4 PUSH0 SWAP3 PUSH2 0x27B JUMPI POP POP PUSH0 NOT PUSH1 0x3 DUP4 SWAP1 SHL SHR NOT AND PUSH1 0x1 SWAP2 SWAP1 SWAP2 SHL OR SWAP1 SSTORE STOP JUMPDEST SWAP1 PUSH1 0x1F NOT DUP4 AND SWAP5 DUP5 PUSH0 MSTORE DUP3 PUSH0 KECCAK256 SWAP3 PUSH0 SWAP1 JUMPDEST DUP8 DUP3 LT PUSH2 0x2081 JUMPI POP POP DUP4 PUSH1 0x1 SWAP6 SWAP7 LT PUSH2 0x2B2 JUMPI POP POP POP DUP2 SHL ADD SWAP1 SSTORE STOP JUMPDEST DUP1 PUSH1 0x1 DUP6 SWAP7 DUP3 SWAP5 SWAP7 DUP7 ADD MLOAD DUP2 SSTORE ADD SWAP6 ADD SWAP4 ADD SWAP1 PUSH2 0x2064 JUMP JUMPDEST DUP4 PUSH0 MSTORE DUP2 PUSH0 KECCAK256 PUSH1 0x1F DUP5 ADD PUSH1 0x5 SHR DUP2 ADD SWAP2 DUP4 DUP6 LT PUSH2 0x20D2 JUMPI JUMPDEST PUSH1 0x1F ADD PUSH1 0x5 SHR ADD SWAP1 JUMPDEST DUP2 DUP2 LT PUSH2 0x20C7 JUMPI POP PUSH2 0x2025 JUMP JUMPDEST PUSH0 DUP2 SSTORE PUSH1 0x1 ADD PUSH2 0x20BA JUMP JUMPDEST SWAP1 SWAP2 POP DUP2 SWAP1 PUSH2 0x20B1 JUMP JUMPDEST ADD MLOAD SWAP1 POP DUP8 DUP1 PUSH2 0x1FE9 JUMP JUMPDEST SWAP1 PUSH1 0x1F NOT DUP4 AND SWAP2 DUP5 PUSH0 MSTORE DUP6 PUSH0 KECCAK256 SWAP3 PUSH0 JUMPDEST DUP8 DUP3 DUP3 LT PUSH2 0x2137 JUMPI POP POP SWAP2 PUSH1 0x1 SWAP6 SWAP5 SWAP3 SWAP2 DUP4 DUP8 SWAP6 SWAP4 LT PUSH2 0x211F JUMPI JUMPDEST POP POP POP DUP2 SHL ADD DUP2 SSTORE PUSH2 0x1FFC JUMP JUMPDEST ADD MLOAD PUSH0 NOT PUSH1 0xF8 DUP5 PUSH1 0x3 SHL AND SHR NOT AND SWAP1 SSTORE DUP8 DUP1 DUP1 PUSH2 0x2112 JUMP JUMPDEST PUSH1 0x1 DUP6 SWAP7 DUP3 SWAP4 SWAP7 DUP7 ADD MLOAD DUP2 SSTORE ADD SWAP6 ADD SWAP4 ADD PUSH2 0x20F7 JUMP JUMPDEST SWAP1 SWAP2 SWAP3 DUP1 SWAP5 POP PUSH0 MSTORE DUP6 PUSH0 KECCAK256 PUSH1 0x1F DUP5 ADD PUSH1 0x5 SHR DUP2 ADD SWAP2 DUP8 DUP6 LT PUSH2 0x2195 JUMPI JUMPDEST SWAP1 PUSH1 0x1F DUP9 SWAP7 SWAP6 SWAP5 SWAP4 SWAP3 ADD PUSH1 0x5 SHR ADD SWAP1 JUMPDEST DUP2 DUP2 LT PUSH2 0x2187 JUMPI POP PUSH2 0x1FCE JUMP JUMPDEST PUSH0 DUP2 SSTORE DUP8 SWAP6 POP PUSH1 0x1 ADD PUSH2 0x217A JUMP JUMPDEST SWAP1 SWAP2 POP DUP2 SWAP1 PUSH2 0x216A JUMP JUMPDEST ADD MLOAD SWAP1 POP DUP9 DUP1 PUSH2 0x1F7A JUMP JUMPDEST PUSH1 0x1F SWAP6 SWAP5 SWAP4 SWAP3 SWAP2 SWAP6 NOT DUP3 AND SWAP6 DUP4 PUSH0 MSTORE DUP6 PUSH0 KECCAK256 SWAP2 PUSH0 JUMPDEST DUP9 DUP2 LT PUSH2 0x21F9 JUMPI POP DUP4 PUSH1 0x1 SWAP6 SWAP7 SWAP8 SWAP9 LT PUSH2 0x21E1 JUMPI JUMPDEST POP POP POP DUP2 SHL ADD SWAP1 SSTORE PUSH2 0x1F8E JUMP JUMPDEST ADD MLOAD PUSH0 NOT PUSH1 0xF8 DUP5 PUSH1 0x3 SHL AND SHR NOT AND SWAP1 SSTORE DUP9 DUP1 DUP1 PUSH2 0x21D4 JUMP JUMPDEST DUP3 DUP3 ADD MLOAD DUP5 SSTORE DUP10 SWAP8 PUSH1 0x1 SWAP1 SWAP5 ADD SWAP4 SWAP3 DUP4 ADD SWAP3 ADD PUSH2 0x21BF JUMP JUMPDEST SWAP2 DUP1 SWAP5 POP PUSH0 SWAP6 SWAP2 SWAP4 SWAP6 MSTORE DUP7 PUSH0 KECCAK256 PUSH1 0x1F DUP5 ADD PUSH1 0x5 SHR DUP2 ADD SWAP2 DUP9 DUP6 LT PUSH2 0x225E JUMPI JUMPDEST SWAP1 PUSH1 0x1F DUP10 SWAP7 SWAP5 SWAP8 SWAP6 SWAP4 SWAP3 ADD PUSH1 0x5 SHR ADD SWAP1 JUMPDEST DUP2 DUP2 LT PUSH2 0x2250 JUMPI POP POP DUP5 PUSH2 0x1F61 JUMP JUMPDEST PUSH0 DUP2 SSTORE DUP9 SWAP6 POP PUSH1 0x1 ADD PUSH2 0x2241 JUMP JUMPDEST SWAP1 SWAP2 POP DUP2 SWAP1 PUSH2 0x2230 JUMP JUMPDEST ADD MLOAD SWAP1 POP DUP11 DUP1 PUSH2 0x1F21 JUMP JUMPDEST SWAP1 PUSH1 0x1F NOT DUP4 AND SWAP2 DUP5 PUSH0 MSTORE DUP10 PUSH0 KECCAK256 SWAP3 PUSH0 JUMPDEST DUP12 DUP3 DUP3 LT PUSH2 0x22C6 JUMPI POP POP SWAP3 PUSH1 0x1 SWAP3 DUP6 SWAP3 PUSH1 0x40 SWAP9 SWAP7 PUSH1 0x2 SWAP9 SWAP7 LT PUSH2 0x22AE JUMPI JUMPDEST POP POP POP DUP2 SHL ADD SWAP1 SSTORE PUSH2 0x1F35 JUMP JUMPDEST ADD MLOAD PUSH0 NOT PUSH1 0xF8 DUP5 PUSH1 0x3 SHL AND SHR NOT AND SWAP1 SSTORE DUP11 DUP1 DUP1 PUSH2 0x22A1 JUMP JUMPDEST PUSH1 0x1 DUP6 SWAP7 DUP3 SWAP4 SWAP7 DUP7 ADD MLOAD DUP2 SSTORE ADD SWAP6 ADD SWAP4 ADD PUSH2 0x2283 JUMP JUMPDEST DUP4 PUSH0 MSTORE DUP9 PUSH0 KECCAK256 PUSH1 0x1F DUP5 ADD PUSH1 0x5 SHR DUP2 ADD SWAP2 DUP11 DUP6 LT PUSH2 0x2315 JUMPI JUMPDEST PUSH1 0x1F ADD PUSH1 0x5 SHR ADD SWAP1 JUMPDEST DUP2 DUP2 LT PUSH2 0x230A JUMPI POP PUSH2 0x1F02 JUMP JUMPDEST PUSH0 DUP2 SSTORE PUSH1 0x1 ADD PUSH2 0x22FD JUMP JUMPDEST SWAP1 SWAP2 POP DUP2 SWAP1 PUSH2 0x22F4 JUMP JUMPDEST ADD MLOAD SWAP1 POP DUP8 DUP1 PUSH2 0x1EC2 JUMP JUMPDEST PUSH0 DUP6 DUP2 MSTORE DUP10 DUP2 KECCAK256 SWAP4 POP PUSH1 0x1F NOT DUP6 AND SWAP1 JUMPDEST DUP11 DUP3 DUP3 LT PUSH2 0x2377 JUMPI POP POP SWAP1 DUP5 PUSH1 0x1 SWAP6 SWAP5 SWAP4 SWAP3 LT PUSH2 0x235F JUMPI JUMPDEST POP POP POP DUP2 SHL ADD DUP2 SSTORE PUSH2 0x1ED6 JUMP JUMPDEST ADD MLOAD PUSH0 NOT PUSH1 0xF8 DUP5 PUSH1 0x3 SHL AND SHR NOT AND SWAP1 SSTORE DUP8 DUP1 DUP1 PUSH2 0x2352 JUMP JUMPDEST PUSH1 0x1 DUP6 SWAP7 DUP3 SWAP4 SWAP7 DUP7 ADD MLOAD DUP2 SSTORE ADD SWAP6 ADD SWAP4 ADD PUSH2 0x233A JUMP JUMPDEST SWAP1 SWAP2 POP DUP4 PUSH0 MSTORE DUP8 PUSH0 KECCAK256 PUSH1 0x1F DUP5 ADD PUSH1 0x5 SHR DUP2 ADD SWAP2 DUP10 DUP6 LT PUSH2 0x23D1 JUMPI JUMPDEST SWAP1 PUSH1 0x1F DUP6 SWAP5 SWAP4 SWAP3 ADD PUSH1 0x5 SHR ADD SWAP1 JUMPDEST DUP2 DUP2 LT PUSH2 0x23C3 JUMPI POP PUSH2 0x1EAD JUMP JUMPDEST PUSH0 DUP2 SSTORE DUP5 SWAP4 POP PUSH1 0x1 ADD PUSH2 0x23B6 JUMP JUMPDEST SWAP1 SWAP2 POP DUP2 SWAP1 PUSH2 0x23A8 JUMP JUMPDEST ADD MLOAD SWAP1 POP DUP12 DUP1 PUSH2 0x1E55 JUMP JUMPDEST SWAP1 PUSH1 0x1F NOT DUP4 AND SWAP2 DUP5 PUSH0 MSTORE DUP11 PUSH0 KECCAK256 SWAP3 PUSH0 JUMPDEST DUP13 DUP3 DUP3 LT PUSH2 0x2439 JUMPI POP POP SWAP3 PUSH1 0x1 SWAP3 DUP6 SWAP3 PUSH1 0x5 SWAP9 SWAP7 PUSH1 0xC0 SWAP9 SWAP7 LT PUSH2 0x2421 JUMPI JUMPDEST POP POP POP DUP2 SHL ADD SWAP1 SSTORE PUSH2 0x1E69 JUMP JUMPDEST ADD MLOAD PUSH0 NOT PUSH1 0xF8 DUP5 PUSH1 0x3 SHL AND SHR NOT AND SWAP1 SSTORE DUP12 DUP1 DUP1 PUSH2 0x2414 JUMP JUMPDEST PUSH1 0x1 DUP6 SWAP7 DUP3 SWAP4 SWAP7 DUP7 ADD MLOAD DUP2 SSTORE ADD SWAP6 ADD SWAP4 ADD PUSH2 0x23F6 JUMP JUMPDEST DUP4 PUSH0 MSTORE DUP10 PUSH0 KECCAK256 PUSH1 0x1F DUP5 ADD PUSH1 0x5 SHR DUP2 ADD SWAP2 DUP12 DUP6 LT PUSH2 0x2488 JUMPI JUMPDEST PUSH1 0x1F ADD PUSH1 0x5 SHR ADD SWAP1 JUMPDEST DUP2 DUP2 LT PUSH2 0x247D JUMPI POP PUSH2 0x1E36 JUMP JUMPDEST PUSH0 DUP2 SSTORE PUSH1 0x1 ADD PUSH2 0x2470 JUMP JUMPDEST SWAP1 SWAP2 POP DUP2 SWAP1 PUSH2 0x2467 JUMP JUMPDEST PUSH4 0x4E487B71 PUSH1 0xE0 SHL PUSH0 MSTORE PUSH1 0x21 PUSH1 0x4 MSTORE PUSH1 0x24 PUSH0 REVERT JUMPDEST ADD MLOAD SWAP1 POP DUP10 DUP1 PUSH2 0x1DBD JUMP JUMPDEST PUSH0 DUP6 DUP2 MSTORE DUP12 DUP2 KECCAK256 SWAP4 POP PUSH1 0x1F NOT DUP6 AND SWAP1 JUMPDEST DUP13 DUP3 DUP3 LT PUSH2 0x24FE JUMPI POP POP SWAP1 DUP5 PUSH1 0x1 SWAP6 SWAP5 SWAP4 SWAP3 LT PUSH2 0x24E6 JUMPI JUMPDEST POP POP POP DUP2 SHL ADD SWAP1 SSTORE PUSH2 0x1DD1 JUMP JUMPDEST ADD MLOAD PUSH0 NOT PUSH1 0xF8 DUP5 PUSH1 0x3 SHL AND SHR NOT AND SWAP1 SSTORE DUP10 DUP1 DUP1 PUSH2 0x24D9 JUMP JUMPDEST PUSH1 0x1 DUP6 SWAP7 DUP3 SWAP4 SWAP7 DUP7 ADD MLOAD DUP2 SSTORE ADD SWAP6 ADD SWAP4 ADD PUSH2 0x24C1 JUMP JUMPDEST SWAP1 SWAP2 POP DUP4 PUSH0 MSTORE DUP10 PUSH0 KECCAK256 PUSH1 0x1F DUP5 ADD PUSH1 0x5 SHR DUP2 ADD SWAP2 DUP12 DUP6 LT PUSH2 0x2558 JUMPI JUMPDEST SWAP1 PUSH1 0x1F DUP6 SWAP5 SWAP4 SWAP3 ADD PUSH1 0x5 SHR ADD SWAP1 JUMPDEST DUP2 DUP2 LT PUSH2 0x254A JUMPI POP PUSH2 0x1DA8 JUMP JUMPDEST PUSH0 DUP2 SSTORE DUP5 SWAP4 POP PUSH1 0x1 ADD PUSH2 0x253D JUMP JUMPDEST SWAP1 SWAP2 POP DUP2 SWAP1 PUSH2 0x252F JUMP JUMPDEST ADD MLOAD SWAP1 POP DUP9 DUP1 PUSH2 0x1D62 JUMP JUMPDEST PUSH1 0x1 DUP7 ADD PUSH0 SWAP1 DUP2 MSTORE DUP11 DUP2 KECCAK256 SWAP4 POP PUSH1 0x1F NOT DUP6 AND SWAP1 JUMPDEST DUP12 DUP3 DUP3 LT PUSH2 0x25C1 JUMPI POP POP SWAP1 DUP5 PUSH1 0x1 SWAP6 SWAP5 SWAP4 SWAP3 LT PUSH2 0x25A9 JUMPI JUMPDEST POP POP POP DUP2 SHL ADD PUSH1 0x1 DUP4 ADD SSTORE PUSH2 0x1D79 JUMP JUMPDEST ADD MLOAD PUSH0 NOT PUSH1 0xF8 DUP5 PUSH1 0x3 SHL AND SHR NOT AND SWAP1 SSTORE DUP9 DUP1 DUP1 PUSH2 0x2599 JUMP JUMPDEST PUSH1 0x1 DUP6 SWAP7 DUP3 SWAP4 SWAP7 DUP7 ADD MLOAD DUP2 SSTORE ADD SWAP6 ADD SWAP4 ADD PUSH2 0x2581 JUMP JUMPDEST SWAP1 SWAP2 POP PUSH1 0x1 DUP6 ADD PUSH0 MSTORE DUP9 PUSH0 KECCAK256 PUSH1 0x1F DUP5 ADD PUSH1 0x5 SHR DUP2 ADD SWAP2 DUP11 DUP6 LT PUSH2 0x261E JUMPI JUMPDEST SWAP1 PUSH1 0x1F DUP6 SWAP5 SWAP4 SWAP3 ADD PUSH1 0x5 SHR ADD SWAP1 JUMPDEST DUP2 DUP2 LT PUSH2 0x2610 JUMPI POP PUSH2 0x1D4D JUMP JUMPDEST PUSH0 DUP2 SSTORE DUP5 SWAP4 POP PUSH1 0x1 ADD PUSH2 0x2603 JUMP JUMPDEST SWAP1 SWAP2 POP DUP2 SWAP1 PUSH2 0x25F5 JUMP JUMPDEST ADD MLOAD SWAP1 POP DUP10 DUP1 PUSH2 0x1D0F JUMP JUMPDEST PUSH0 DUP8 DUP2 MSTORE DUP12 DUP2 KECCAK256 SWAP4 POP PUSH1 0x1F NOT DUP6 AND SWAP1 JUMPDEST DUP13 DUP3 DUP3 LT PUSH2 0x2680 JUMPI POP POP SWAP1 DUP5 PUSH1 0x1 SWAP6 SWAP5 SWAP4 SWAP3 LT PUSH2 0x2668 JUMPI JUMPDEST POP POP POP DUP2 SHL ADD DUP4 SSTORE PUSH2 0x1D23 JUMP JUMPDEST ADD MLOAD PUSH0 NOT PUSH1 0xF8 DUP5 PUSH1 0x3 SHL AND SHR NOT AND SWAP1 SSTORE DUP10 DUP1 DUP1 PUSH2 0x265B JUMP JUMPDEST PUSH1 0x1 DUP6 SWAP7 DUP3 SWAP4 SWAP7 DUP7 ADD MLOAD DUP2 SSTORE ADD SWAP6 ADD SWAP4 ADD PUSH2 0x2643 JUMP JUMPDEST SWAP1 SWAP2 POP DUP6 PUSH0 MSTORE DUP10 PUSH0 KECCAK256 PUSH1 0x1F DUP5 ADD PUSH1 0x5 SHR DUP2 ADD SWAP2 DUP12 DUP6 LT PUSH2 0x26DA JUMPI JUMPDEST SWAP1 PUSH1 0x1F DUP6 SWAP5 SWAP4 SWAP3 ADD PUSH1 0x5 SHR ADD SWAP1 JUMPDEST DUP2 DUP2 LT PUSH2 0x26CC JUMPI POP PUSH2 0x1CFA JUMP JUMPDEST PUSH0 DUP2 SSTORE DUP5 SWAP4 POP PUSH1 0x1 ADD PUSH2 0x26BF JUMP JUMPDEST SWAP1 SWAP2 POP DUP2 SWAP1 PUSH2 0x26B1 JUMP JUMPDEST PUSH4 0x4E487B71 PUSH1 0xE0 SHL PUSH0 MSTORE PUSH0 PUSH1 0x4 MSTORE PUSH1 0x24 PUSH0 REVERT JUMPDEST ADD MLOAD SWAP1 POP DUP10 DUP1 PUSH2 0x1C41 JUMP JUMPDEST PUSH0 DUP6 DUP2 MSTORE DUP12 DUP2 KECCAK256 SWAP4 POP PUSH1 0x1F NOT DUP6 AND SWAP1 JUMPDEST DUP13 DUP3 DUP3 LT PUSH2 0x274F JUMPI POP POP SWAP1 DUP5 PUSH1 0x1 SWAP6 SWAP5 SWAP4 SWAP3 LT PUSH2 0x2737 JUMPI JUMPDEST POP POP POP DUP2 SHL ADD SWAP1 SSTORE PUSH2 0x1C55 JUMP JUMPDEST ADD MLOAD PUSH0 NOT PUSH1 0xF8 DUP5 PUSH1 0x3 SHL AND SHR NOT AND SWAP1 SSTORE DUP10 DUP1 DUP1 PUSH2 0x272A JUMP JUMPDEST PUSH1 0x1 DUP6 SWAP7 DUP3 SWAP4 SWAP7 DUP7 ADD MLOAD DUP2 SSTORE ADD SWAP6 ADD SWAP4 ADD PUSH2 0x2712 JUMP JUMPDEST SWAP1 SWAP2 POP DUP4 PUSH0 MSTORE DUP10 PUSH0 KECCAK256 PUSH1 0x1F DUP5 ADD PUSH1 0x5 SHR DUP2 ADD SWAP2 DUP12 DUP6 LT PUSH2 0x27A9 JUMPI JUMPDEST SWAP1 PUSH1 0x1F DUP6 SWAP5 SWAP4 SWAP3 ADD PUSH1 0x5 SHR ADD SWAP1 JUMPDEST DUP2 DUP2 LT PUSH2 0x279B JUMPI POP PUSH2 0x1C2C JUMP JUMPDEST PUSH0 DUP2 SSTORE DUP5 SWAP4 POP PUSH1 0x1 ADD PUSH2 0x278E JUMP JUMPDEST SWAP1 SWAP2 POP DUP2 SWAP1 PUSH2 0x2780 JUMP JUMPDEST ADD MLOAD SWAP1 POP DUP15 DUP1 PUSH2 0x1BDD JUMP JUMPDEST SWAP2 SWAP1 PUSH1 0x1F NOT DUP5 AND DUP6 PUSH0 MSTORE DUP4 PUSH0 KECCAK256 SWAP4 PUSH0 SWAP1 JUMPDEST DUP3 DUP3 LT PUSH2 0x2811 JUMPI POP POP SWAP3 PUSH1 0x1 SWAP3 DUP6 SWAP3 PUSH1 0x3 SWAP10 SWAP9 SWAP7 PUSH1 0xFF SWAP9 SWAP7 LT PUSH2 0x27FA JUMPI JUMPDEST POP POP POP DUP2 SHL ADD SWAP1 SSTORE PUSH2 0x1BF0 JUMP JUMPDEST ADD MLOAD PUSH0 NOT DUP4 DUP11 SHL PUSH1 0xF8 AND SHR NOT AND SWAP1 SSTORE DUP15 DUP1 DUP1 PUSH2 0x27ED JUMP JUMPDEST DUP1 PUSH1 0x1 DUP7 SWAP8 DUP3 SWAP5 SWAP8 DUP8 ADD MLOAD DUP2 SSTORE ADD SWAP7 ADD SWAP5 ADD SWAP1 PUSH2 0x27CF JUMP JUMPDEST DUP5 PUSH0 MSTORE DUP2 PUSH0 KECCAK256 SWAP1 PUSH1 0x1F DUP6 ADD PUSH1 0x5 SHR DUP3 ADD SWAP3 DUP6 LT PUSH2 0x2864 JUMPI JUMPDEST PUSH1 0x1F ADD PUSH1 0x5 SHR ADD SWAP1 JUMPDEST DUP2 DUP2 LT PUSH2 0x2859 JUMPI DUP14 SWAP2 POP PUSH2 0x1BBA JUMP JUMPDEST PUSH0 DUP2 SSTORE PUSH1 0x1 ADD PUSH2 0x284A JUMP JUMPDEST SWAP1 SWAP2 POP DUP2 SWAP1 PUSH2 0x2841 JUMP JUMPDEST ADD MLOAD SWAP1 POP DUP13 DUP1 PUSH2 0x1B7C JUMP JUMPDEST PUSH0 DUP9 DUP2 MSTORE DUP2 DUP2 KECCAK256 SWAP5 POP PUSH1 0x1F NOT DUP7 AND SWAP2 JUMPDEST DUP3 DUP3 LT PUSH2 0x28C5 JUMPI POP POP SWAP1 DUP5 PUSH1 0x1 SWAP6 SWAP5 SWAP4 SWAP3 LT PUSH2 0x28AD JUMPI JUMPDEST POP POP POP DUP2 SHL ADD DUP4 SSTORE PUSH2 0x1B90 JUMP JUMPDEST ADD MLOAD PUSH0 NOT PUSH1 0xF8 DUP5 PUSH1 0x3 SHL AND SHR NOT AND SWAP1 SSTORE DUP13 DUP1 DUP1 PUSH2 0x28A0 JUMP JUMPDEST DUP1 PUSH1 0x1 DUP7 SWAP8 DUP3 SWAP5 SWAP8 DUP8 ADD MLOAD DUP2 SSTORE ADD SWAP7 ADD SWAP5 ADD SWAP1 PUSH2 0x2889 JUMP JUMPDEST SWAP1 SWAP2 SWAP3 POP DUP7 PUSH0 MSTORE DUP2 PUSH0 KECCAK256 SWAP1 PUSH1 0x1F DUP6 ADD PUSH1 0x5 SHR DUP3 ADD SWAP3 DUP6 LT PUSH2 0x2924 JUMPI JUMPDEST SWAP1 PUSH1 0x1F DUP6 SWAP5 SWAP4 SWAP3 ADD PUSH1 0x5 SHR ADD SWAP1 JUMPDEST DUP2 DUP2 LT PUSH2 0x2916 JUMPI DUP15 SWAP2 POP PUSH2 0x1B64 JUMP JUMPDEST PUSH0 DUP2 SSTORE DUP5 SWAP4 POP PUSH1 0x1 ADD PUSH2 0x2907 JUMP JUMPDEST SWAP1 SWAP2 POP DUP2 SWAP1 PUSH2 0x28F9 JUMP JUMPDEST CALLVALUE PUSH2 0x1D3 JUMPI PUSH0 CALLDATASIZE PUSH1 0x3 NOT ADD SLT PUSH2 0x1D3 JUMPI PUSH1 0x2 SLOAD PUSH2 0x294A DUP2 PUSH2 0x3D21 JUMP JUMPDEST SWAP1 PUSH0 DUP1 JUMPDEST DUP3 DUP3 LT PUSH2 0x2963 JUMPI PUSH1 0x40 MLOAD DUP1 PUSH2 0xCB1 DUP7 DUP3 PUSH2 0x386B JUMP JUMPDEST PUSH2 0x298E PUSH1 0x1 SWAP2 PUSH2 0x13F0 PUSH2 0x2978 PUSH2 0x13D4 DUP7 PUSH2 0x3BF2 JUMP JUMPDEST PUSH1 0xFF DUP4 AND SWAP1 PUSH2 0x2987 DUP3 DUP11 PUSH2 0x3D9E JUMP JUMPDEST MSTORE DUP8 PUSH2 0x3D9E JUMP JUMPDEST SWAP2 ADD SWAP1 PUSH2 0x294E JUMP JUMPDEST CALLVALUE PUSH2 0x1D3 JUMPI PUSH1 0x20 CALLDATASIZE PUSH1 0x3 NOT ADD SLT PUSH2 0x1D3 JUMPI PUSH1 0x4 CALLDATALOAD PUSH1 0x1 PUSH1 0x1 PUSH1 0x40 SHL SUB DUP2 GT PUSH2 0x1D3 JUMPI PUSH1 0x20 DUP1 PUSH2 0x29CC PUSH2 0x2A50 SWAP4 CALLDATASIZE SWAP1 PUSH1 0x4 ADD PUSH2 0x367A JUMP JUMPDEST PUSH1 0x40 MLOAD SWAP3 DUP2 DUP5 SWAP3 MLOAD SWAP2 DUP3 SWAP2 ADD DUP4 MCOPY DUP2 ADD PUSH1 0x6 DUP2 MSTORE SUB ADD SWAP1 KECCAK256 PUSH2 0xCB1 PUSH2 0x29F0 DUP3 PUSH2 0x377F JUMP JUMPDEST SWAP2 PUSH2 0x2A88 PUSH2 0x2A00 PUSH1 0x1 DUP4 ADD PUSH2 0x377F JUMP JUMPDEST SWAP2 PUSH2 0x2A7A PUSH2 0x2A10 PUSH1 0x2 DUP4 ADD PUSH2 0x377F JUMP JUMPDEST PUSH2 0x2A6C PUSH2 0x2A1F PUSH1 0x3 DUP6 ADD PUSH2 0x377F JUMP JUMPDEST SWAP2 PUSH2 0x2A5E PUSH2 0x2A3B PUSH1 0x5 PUSH2 0x2A34 PUSH1 0x4 DUP10 ADD PUSH2 0x377F JUMP JUMPDEST SWAP8 ADD PUSH2 0x377F JUMP JUMPDEST SWAP8 PUSH1 0x40 MLOAD SWAP12 DUP13 SWAP12 PUSH1 0xC0 DUP14 MSTORE PUSH1 0xC0 DUP14 ADD SWAP1 PUSH2 0x36CF JUMP JUMPDEST SWAP1 DUP12 DUP3 SUB PUSH1 0x20 DUP14 ADD MSTORE PUSH2 0x36CF JUMP JUMPDEST SWAP1 DUP10 DUP3 SUB PUSH1 0x40 DUP12 ADD MSTORE PUSH2 0x36CF JUMP JUMPDEST SWAP1 DUP8 DUP3 SUB PUSH1 0x60 DUP10 ADD MSTORE PUSH2 0x36CF JUMP JUMPDEST SWAP1 DUP6 DUP3 SUB PUSH1 0x80 DUP8 ADD MSTORE PUSH2 0x36CF JUMP JUMPDEST SWAP1 DUP4 DUP3 SUB PUSH1 0xA0 DUP6 ADD MSTORE PUSH2 0x36CF JUMP JUMPDEST CALLVALUE PUSH2 0x1D3 JUMPI PUSH1 0x20 CALLDATASIZE PUSH1 0x3 NOT ADD SLT PUSH2 0x1D3 JUMPI PUSH1 0x4 CALLDATALOAD PUSH1 0x1 PUSH1 0x1 PUSH1 0x40 SHL SUB DUP2 GT PUSH2 0x1D3 JUMPI PUSH1 0x20 DUP1 PUSH2 0x2ACC PUSH2 0x2B09 SWAP4 CALLDATASIZE SWAP1 PUSH1 0x4 ADD PUSH2 0x367A JUMP JUMPDEST PUSH1 0x40 MLOAD SWAP3 DUP2 DUP5 SWAP3 MLOAD SWAP2 DUP3 SWAP2 ADD DUP4 MCOPY DUP2 ADD PUSH1 0x5 DUP2 MSTORE SUB ADD SWAP1 KECCAK256 PUSH2 0xCB1 PUSH2 0x2AF5 PUSH1 0x1 PUSH2 0x14D0 DUP5 PUSH2 0x377F JUMP JUMPDEST PUSH1 0x40 MLOAD SWAP4 DUP5 SWAP4 PUSH1 0x40 DUP6 MSTORE PUSH1 0x40 DUP6 ADD SWAP1 PUSH2 0x36CF JUMP JUMPDEST SWAP1 DUP4 DUP3 SUB PUSH1 0x20 DUP6 ADD MSTORE PUSH2 0x36CF JUMP JUMPDEST CALLVALUE PUSH2 0x1D3 JUMPI PUSH1 0x60 CALLDATASIZE PUSH1 0x3 NOT ADD SLT PUSH2 0x1D3 JUMPI PUSH1 0x4 CALLDATALOAD PUSH1 0x1 PUSH1 0x1 PUSH1 0x40 SHL SUB DUP2 GT PUSH2 0x1D3 JUMPI PUSH2 0x2B47 SWAP1 CALLDATASIZE SWAP1 PUSH1 0x4 ADD PUSH2 0x367A JUMP JUMPDEST PUSH1 0x44 CALLDATALOAD PUSH1 0x1 PUSH1 0x1 PUSH1 0x40 SHL SUB DUP2 GT PUSH2 0x1D3 JUMPI PUSH1 0xC0 PUSH1 0x3 NOT DUP3 CALLDATASIZE SUB ADD SLT PUSH2 0x1D3 JUMPI PUSH1 0x40 MLOAD SWAP1 PUSH2 0x2B73 DUP3 PUSH2 0x35B6 JUMP JUMPDEST DUP1 PUSH1 0x4 ADD CALLDATALOAD PUSH1 0x1 PUSH1 0x1 PUSH1 0x40 SHL SUB DUP2 GT PUSH2 0x1D3 JUMPI PUSH2 0x2B96 SWAP1 PUSH1 0x4 CALLDATASIZE SWAP2 DUP5 ADD ADD PUSH2 0x367A JUMP JUMPDEST DUP3 MSTORE PUSH1 0x24 DUP2 ADD CALLDATALOAD PUSH1 0x1 PUSH1 0x1 PUSH1 0x40 SHL SUB DUP2 GT PUSH2 0x1D3 JUMPI PUSH2 0x2BBB SWAP1 PUSH1 0x4 CALLDATASIZE SWAP2 DUP5 ADD ADD PUSH2 0x367A JUMP JUMPDEST SWAP1 PUSH1 0x20 DUP4 ADD SWAP2 DUP3 MSTORE PUSH1 0x44 DUP2 ADD CALLDATALOAD PUSH1 0x1 PUSH1 0x1 PUSH1 0x40 SHL SUB DUP2 GT PUSH2 0x1D3 JUMPI PUSH2 0x2BE6 SWAP1 PUSH1 0x4 CALLDATASIZE SWAP2 DUP5 ADD ADD PUSH2 0x367A JUMP JUMPDEST SWAP3 PUSH1 0x40 DUP2 ADD SWAP4 DUP5 MSTORE PUSH1 0x64 DUP3 ADD CALLDATALOAD PUSH1 0x1 PUSH1 0x1 PUSH1 0x40 SHL SUB DUP2 GT PUSH2 0x1D3 JUMPI PUSH2 0x2C11 SWAP1 PUSH1 0x4 CALLDATASIZE SWAP2 DUP6 ADD ADD PUSH2 0x367A JUMP JUMPDEST SWAP2 PUSH1 0x60 DUP3 ADD SWAP3 DUP4 MSTORE PUSH1 0x84 DUP2 ADD CALLDATALOAD PUSH1 0x1 PUSH1 0x1 PUSH1 0x40 SHL SUB DUP2 GT PUSH2 0x1D3 JUMPI PUSH2 0x2C3C SWAP1 PUSH1 0x4 CALLDATASIZE SWAP2 DUP5 ADD ADD PUSH2 0x367A JUMP JUMPDEST SWAP1 PUSH1 0x80 DUP4 ADD SWAP2 DUP3 MSTORE PUSH1 0xA4 DUP2 ADD CALLDATALOAD SWAP1 PUSH1 0x1 PUSH1 0x1 PUSH1 0x40 SHL SUB DUP3 GT PUSH2 0x1D3 JUMPI PUSH1 0x4 PUSH2 0x2C67 SWAP3 CALLDATASIZE SWAP3 ADD ADD PUSH2 0x367A JUMP JUMPDEST SWAP3 PUSH1 0xA0 DUP4 ADD SWAP4 DUP5 MSTORE PUSH2 0x2C7B PUSH1 0x24 CALLDATALOAD DUP9 PUSH2 0x3E69 JUMP JUMPDEST PUSH1 0x2 SLOAD SWAP6 PUSH1 0x40 MLOAD SWAP6 DUP9 MLOAD SWAP7 PUSH1 0x20 DUP2 DUP2 DUP13 ADD SWAP10 DUP1 DUP12 DUP4 MCOPY DUP2 ADD PUSH1 0x6 DUP2 MSTORE SUB ADD SWAP1 KECCAK256 SWAP5 MLOAD DUP1 MLOAD SWAP1 PUSH1 0x1 PUSH1 0x1 PUSH1 0x40 SHL SUB DUP3 GT PUSH2 0x327 JUMPI DUP2 SWAP1 PUSH2 0x2CBA DUP9 SLOAD PUSH2 0x3747 JUMP JUMPDEST PUSH1 0x1F DUP2 GT PUSH2 0x333E JUMPI JUMPDEST POP PUSH1 0x20 SWAP1 PUSH1 0x1F DUP4 GT PUSH1 0x1 EQ PUSH2 0x32DB JUMPI PUSH0 SWAP3 PUSH2 0x32D0 JUMPI JUMPDEST POP POP DUP2 PUSH1 0x1 SHL SWAP2 PUSH0 NOT SWAP1 PUSH1 0x3 SHL SHR NOT AND OR DUP6 SSTORE JUMPDEST MLOAD DUP1 MLOAD PUSH1 0x1 DUP7 ADD SWAP2 PUSH1 0x1 PUSH1 0x1 PUSH1 0x40 SHL SUB DUP3 GT PUSH2 0x327 JUMPI DUP2 SWAP1 PUSH2 0x2D0F DUP5 SLOAD PUSH2 0x3747 JUMP JUMPDEST PUSH1 0x1F DUP2 GT PUSH2 0x3280 JUMPI JUMPDEST POP PUSH1 0x20 SWAP1 PUSH1 0x1F DUP4 GT PUSH1 0x1 EQ PUSH2 0x321D JUMPI PUSH0 SWAP3 PUSH2 0x3212 JUMPI JUMPDEST POP POP DUP2 PUSH1 0x1 SHL SWAP2 PUSH0 NOT SWAP1 PUSH1 0x3 SHL SHR NOT AND OR SWAP1 SSTORE JUMPDEST MLOAD DUP1 MLOAD PUSH1 0x2 DUP6 ADD SWAP2 PUSH1 0x1 PUSH1 0x1 PUSH1 0x40 SHL SUB DUP3 GT PUSH2 0x327 JUMPI DUP2 SWAP1 PUSH2 0x2D64 DUP5 SLOAD PUSH2 0x3747 JUMP JUMPDEST PUSH1 0x1F DUP2 GT PUSH2 0x31C2 JUMPI JUMPDEST POP PUSH1 0x20 SWAP1 PUSH1 0x1F DUP4 GT PUSH1 0x1 EQ PUSH2 0x315F JUMPI PUSH0 SWAP3 PUSH2 0x3154 JUMPI JUMPDEST POP POP DUP2 PUSH1 0x1 SHL SWAP2 PUSH0 NOT SWAP1 PUSH1 0x3 SHL SHR NOT AND OR SWAP1 SSTORE JUMPDEST MLOAD DUP1 MLOAD PUSH1 0x3 DUP5 ADD SWAP2 PUSH1 0x1 PUSH1 0x1 PUSH1 0x40 SHL SUB DUP3 GT PUSH2 0x327 JUMPI DUP2 SWAP1 PUSH2 0x2DB9 DUP5 SLOAD PUSH2 0x3747 JUMP JUMPDEST PUSH1 0x1F DUP2 GT PUSH2 0x3104 JUMPI JUMPDEST POP PUSH1 0x20 SWAP1 PUSH1 0x1F DUP4 GT PUSH1 0x1 EQ PUSH2 0x30A1 JUMPI PUSH0 SWAP3 PUSH2 0x3096 JUMPI JUMPDEST POP POP DUP2 PUSH1 0x1 SHL SWAP2 PUSH0 NOT SWAP1 PUSH1 0x3 SHL SHR NOT AND OR SWAP1 SSTORE JUMPDEST MLOAD DUP1 MLOAD PUSH1 0x4 DUP4 ADD SWAP2 PUSH1 0x1 PUSH1 0x1 PUSH1 0x40 SHL SUB DUP3 GT PUSH2 0x327 JUMPI PUSH2 0x2E0C DUP4 SLOAD PUSH2 0x3747 JUMP JUMPDEST PUSH1 0x1F DUP2 GT PUSH2 0x3051 JUMPI JUMPDEST POP PUSH1 0x20 SWAP1 PUSH1 0x1F DUP4 GT PUSH1 0x1 EQ PUSH2 0x2FEA JUMPI PUSH1 0x5 SWAP5 SWAP4 SWAP3 SWAP2 PUSH0 SWAP2 DUP4 PUSH2 0x2FDF JUMPI JUMPDEST POP POP DUP2 PUSH1 0x1 SHL SWAP2 PUSH0 NOT SWAP1 PUSH1 0x3 SHL SHR NOT AND OR SWAP1 SSTORE JUMPDEST ADD SWAP1 MLOAD DUP1 MLOAD SWAP1 PUSH1 0x1 PUSH1 0x1 PUSH1 0x40 SHL SUB DUP3 GT PUSH2 0x327 JUMPI DUP2 SWAP1 PUSH2 0x2E66 DUP5 SLOAD PUSH2 0x3747 JUMP JUMPDEST PUSH1 0x1F DUP2 GT PUSH2 0x2F8F JUMPI JUMPDEST POP PUSH1 0x20 SWAP1 PUSH1 0x1F DUP4 GT PUSH1 0x1 EQ PUSH2 0x2F2C JUMPI PUSH0 SWAP3 PUSH2 0x2F21 JUMPI JUMPDEST POP POP DUP2 PUSH1 0x1 SHL SWAP2 PUSH0 NOT SWAP1 PUSH1 0x3 SHL SHR NOT AND OR SWAP1 SSTORE JUMPDEST PUSH0 JUMPDEST DUP3 DUP2 LT PUSH2 0x2EA4 JUMPI STOP JUMPDEST DUP1 PUSH2 0x2EB0 PUSH1 0x1 SWAP3 PUSH2 0x3BF2 JUMP JUMPDEST POP PUSH1 0x40 MLOAD PUSH2 0x2EC6 DUP2 PUSH2 0x4FC PUSH1 0x20 DUP3 ADD DUP1 SWAP6 PUSH2 0x3CA0 JUMP JUMPDEST MLOAD SWAP1 KECCAK256 PUSH1 0x40 MLOAD PUSH1 0x20 DUP2 ADD SWAP1 PUSH2 0x2EF3 PUSH1 0x20 DUP3 DUP11 MLOAD DUP1 DUP11 DUP8 MCOPY DUP2 ADD PUSH0 DUP4 DUP3 ADD MSTORE SUB ADD PUSH1 0x1F NOT DUP2 ADD DUP4 MSTORE DUP3 PUSH2 0x3659 JUMP JUMPDEST MLOAD SWAP1 KECCAK256 EQ PUSH2 0x2F02 JUMPI JUMPDEST ADD PUSH2 0x2E9B JUMP JUMPDEST PUSH1 0x3 PUSH2 0x2F0D DUP3 PUSH2 0x3BF2 JUMP JUMPDEST POP ADD DUP1 SLOAD PUSH2 0xFF00 NOT AND PUSH2 0x500 OR SWAP1 SSTORE PUSH2 0x2EFC JUMP JUMPDEST ADD MLOAD SWAP1 POP DUP7 DUP1 PUSH2 0x2E85 JUMP JUMPDEST PUSH0 DUP6 DUP2 MSTORE DUP3 DUP2 KECCAK256 SWAP4 POP PUSH1 0x1F NOT DUP6 AND SWAP1 JUMPDEST DUP2 DUP2 LT PUSH2 0x2F77 JUMPI POP SWAP1 DUP5 PUSH1 0x1 SWAP6 SWAP5 SWAP4 SWAP3 LT PUSH2 0x2F5F JUMPI JUMPDEST POP POP POP DUP2 SHL ADD SWAP1 SSTORE PUSH2 0x2E99 JUMP JUMPDEST ADD MLOAD PUSH0 NOT PUSH1 0xF8 DUP5 PUSH1 0x3 SHL AND SHR NOT AND SWAP1 SSTORE DUP7 DUP1 DUP1 PUSH2 0x2F52 JUMP JUMPDEST SWAP3 SWAP4 PUSH1 0x20 PUSH1 0x1 DUP2 SWAP3 DUP8 DUP7 ADD MLOAD DUP2 SSTORE ADD SWAP6 ADD SWAP4 ADD PUSH2 0x2F3C JUMP JUMPDEST SWAP1 SWAP2 POP DUP4 PUSH0 MSTORE PUSH1 0x20 PUSH0 KECCAK256 PUSH1 0x1F DUP5 ADD PUSH1 0x5 SHR DUP2 ADD SWAP2 PUSH1 0x20 DUP6 LT PUSH2 0x2FD5 JUMPI JUMPDEST SWAP1 PUSH1 0x1F DUP6 SWAP5 SWAP4 SWAP3 ADD PUSH1 0x5 SHR ADD SWAP1 JUMPDEST DUP2 DUP2 LT PUSH2 0x2FC7 JUMPI POP PUSH2 0x2E6F JUMP JUMPDEST PUSH0 DUP2 SSTORE DUP5 SWAP4 POP PUSH1 0x1 ADD PUSH2 0x2FBA JUMP JUMPDEST SWAP1 SWAP2 POP DUP2 SWAP1 PUSH2 0x2FAC JUMP JUMPDEST ADD MLOAD SWAP1 POP DUP10 DUP1 PUSH2 0x2E32 JUMP JUMPDEST SWAP1 PUSH1 0x1F NOT DUP4 AND SWAP2 DUP5 PUSH0 MSTORE DUP2 PUSH0 KECCAK256 SWAP3 PUSH0 JUMPDEST DUP2 DUP2 LT PUSH2 0x3039 JUMPI POP SWAP2 PUSH1 0x1 SWAP4 SWAP2 DUP6 PUSH1 0x5 SWAP9 SWAP8 SWAP7 SWAP5 LT PUSH2 0x3021 JUMPI JUMPDEST POP POP POP DUP2 SHL ADD SWAP1 SSTORE PUSH2 0x2E46 JUMP JUMPDEST ADD MLOAD PUSH0 NOT PUSH1 0xF8 DUP5 PUSH1 0x3 SHL AND SHR NOT AND SWAP1 SSTORE DUP10 DUP1 DUP1 PUSH2 0x3014 JUMP JUMPDEST SWAP3 SWAP4 PUSH1 0x20 PUSH1 0x1 DUP2 SWAP3 DUP8 DUP7 ADD MLOAD DUP2 SSTORE ADD SWAP6 ADD SWAP4 ADD PUSH2 0x2FFA JUMP JUMPDEST DUP4 PUSH0 MSTORE PUSH1 0x20 PUSH0 KECCAK256 PUSH1 0x1F DUP5 ADD PUSH1 0x5 SHR DUP2 ADD SWAP2 PUSH1 0x20 DUP6 LT PUSH2 0x308C JUMPI JUMPDEST PUSH1 0x1F ADD PUSH1 0x5 SHR ADD SWAP1 JUMPDEST DUP2 DUP2 LT PUSH2 0x3081 JUMPI POP PUSH2 0x2E15 JUMP JUMPDEST PUSH0 DUP2 SSTORE PUSH1 0x1 ADD PUSH2 0x3074 JUMP JUMPDEST SWAP1 SWAP2 POP DUP2 SWAP1 PUSH2 0x306B JUMP JUMPDEST ADD MLOAD SWAP1 POP DUP10 DUP1 PUSH2 0x2DD8 JUMP JUMPDEST PUSH0 DUP6 DUP2 MSTORE DUP3 DUP2 KECCAK256 SWAP4 POP PUSH1 0x1F NOT DUP6 AND SWAP1 JUMPDEST DUP2 DUP2 LT PUSH2 0x30EC JUMPI POP SWAP1 DUP5 PUSH1 0x1 SWAP6 SWAP5 SWAP4 SWAP3 LT PUSH2 0x30D4 JUMPI JUMPDEST POP POP POP DUP2 SHL ADD SWAP1 SSTORE PUSH2 0x2DEC JUMP JUMPDEST ADD MLOAD PUSH0 NOT PUSH1 0xF8 DUP5 PUSH1 0x3 SHL AND SHR NOT AND SWAP1 SSTORE DUP10 DUP1 DUP1 PUSH2 0x30C7 JUMP JUMPDEST SWAP3 SWAP4 PUSH1 0x20 PUSH1 0x1 DUP2 SWAP3 DUP8 DUP7 ADD MLOAD DUP2 SSTORE ADD SWAP6 ADD SWAP4 ADD PUSH2 0x30B1 JUMP JUMPDEST SWAP1 SWAP2 POP DUP4 PUSH0 MSTORE PUSH1 0x20 PUSH0 KECCAK256 PUSH1 0x1F DUP5 ADD PUSH1 0x5 SHR DUP2 ADD SWAP2 PUSH1 0x20 DUP6 LT PUSH2 0x314A JUMPI JUMPDEST SWAP1 PUSH1 0x1F DUP6 SWAP5 SWAP4 SWAP3 ADD PUSH1 0x5 SHR ADD SWAP1 JUMPDEST DUP2 DUP2 LT PUSH2 0x313C JUMPI POP PUSH2 0x2DC2 JUMP JUMPDEST PUSH0 DUP2 SSTORE DUP5 SWAP4 POP PUSH1 0x1 ADD PUSH2 0x312F JUMP JUMPDEST SWAP1 SWAP2 POP DUP2 SWAP1 PUSH2 0x3121 JUMP JUMPDEST ADD MLOAD SWAP1 POP DUP11 DUP1 PUSH2 0x2D83 JUMP JUMPDEST PUSH0 DUP6 DUP2 MSTORE DUP3 DUP2 KECCAK256 SWAP4 POP PUSH1 0x1F NOT DUP6 AND SWAP1 JUMPDEST DUP2 DUP2 LT PUSH2 0x31AA JUMPI POP SWAP1 DUP5 PUSH1 0x1 SWAP6 SWAP5 SWAP4 SWAP3 LT PUSH2 0x3192 JUMPI JUMPDEST POP POP POP DUP2 SHL ADD SWAP1 SSTORE PUSH2 0x2D97 JUMP JUMPDEST ADD MLOAD PUSH0 NOT PUSH1 0xF8 DUP5 PUSH1 0x3 SHL AND SHR NOT AND SWAP1 SSTORE DUP11 DUP1 DUP1 PUSH2 0x3185 JUMP JUMPDEST SWAP3 SWAP4 PUSH1 0x20 PUSH1 0x1 DUP2 SWAP3 DUP8 DUP7 ADD MLOAD DUP2 SSTORE ADD SWAP6 ADD SWAP4 ADD PUSH2 0x316F JUMP JUMPDEST SWAP1 SWAP2 POP DUP4 PUSH0 MSTORE PUSH1 0x20 PUSH0 KECCAK256 PUSH1 0x1F DUP5 ADD PUSH1 0x5 SHR DUP2 ADD SWAP2 PUSH1 0x20 DUP6 LT PUSH2 0x3208 JUMPI JUMPDEST SWAP1 PUSH1 0x1F DUP6 SWAP5 SWAP4 SWAP3 ADD PUSH1 0x5 SHR ADD SWAP1 JUMPDEST DUP2 DUP2 LT PUSH2 0x31FA JUMPI POP PUSH2 0x2D6D JUMP JUMPDEST PUSH0 DUP2 SSTORE DUP5 SWAP4 POP PUSH1 0x1 ADD PUSH2 0x31ED JUMP JUMPDEST SWAP1 SWAP2 POP DUP2 SWAP1 PUSH2 0x31DF JUMP JUMPDEST ADD MLOAD SWAP1 POP DUP12 DUP1 PUSH2 0x2D2E JUMP JUMPDEST PUSH0 DUP6 DUP2 MSTORE DUP3 DUP2 KECCAK256 SWAP4 POP PUSH1 0x1F NOT DUP6 AND SWAP1 JUMPDEST DUP2 DUP2 LT PUSH2 0x3268 JUMPI POP SWAP1 DUP5 PUSH1 0x1 SWAP6 SWAP5 SWAP4 SWAP3 LT PUSH2 0x3250 JUMPI JUMPDEST POP POP POP DUP2 SHL ADD SWAP1 SSTORE PUSH2 0x2D42 JUMP JUMPDEST ADD MLOAD PUSH0 NOT PUSH1 0xF8 DUP5 PUSH1 0x3 SHL AND SHR NOT AND SWAP1 SSTORE DUP12 DUP1 DUP1 PUSH2 0x3243 JUMP JUMPDEST SWAP3 SWAP4 PUSH1 0x20 PUSH1 0x1 DUP2 SWAP3 DUP8 DUP7 ADD MLOAD DUP2 SSTORE ADD SWAP6 ADD SWAP4 ADD PUSH2 0x322D JUMP JUMPDEST SWAP1 SWAP2 POP DUP4 PUSH0 MSTORE PUSH1 0x20 PUSH0 KECCAK256 PUSH1 0x1F DUP5 ADD PUSH1 0x5 SHR DUP2 ADD SWAP2 PUSH1 0x20 DUP6 LT PUSH2 0x32C6 JUMPI JUMPDEST SWAP1 PUSH1 0x1F DUP6 SWAP5 SWAP4 SWAP3 ADD PUSH1 0x5 SHR ADD SWAP1 JUMPDEST DUP2 DUP2 LT PUSH2 0x32B8 JUMPI POP PUSH2 0x2D18 JUMP JUMPDEST PUSH0 DUP2 SSTORE DUP5 SWAP4 POP PUSH1 0x1 ADD PUSH2 0x32AB JUMP JUMPDEST SWAP1 SWAP2 POP DUP2 SWAP1 PUSH2 0x329D JUMP JUMPDEST ADD MLOAD SWAP1 POP DUP12 DUP1 PUSH2 0x2CD9 JUMP JUMPDEST PUSH0 DUP10 DUP2 MSTORE DUP3 DUP2 KECCAK256 SWAP4 POP PUSH1 0x1F NOT DUP6 AND SWAP1 JUMPDEST DUP2 DUP2 LT PUSH2 0x3326 JUMPI POP SWAP1 DUP5 PUSH1 0x1 SWAP6 SWAP5 SWAP4 SWAP3 LT PUSH2 0x330E JUMPI JUMPDEST POP POP POP DUP2 SHL ADD DUP6 SSTORE PUSH2 0x2CED JUMP JUMPDEST ADD MLOAD PUSH0 NOT PUSH1 0xF8 DUP5 PUSH1 0x3 SHL AND SHR NOT AND SWAP1 SSTORE DUP12 DUP1 DUP1 PUSH2 0x3301 JUMP JUMPDEST SWAP3 SWAP4 PUSH1 0x20 PUSH1 0x1 DUP2 SWAP3 DUP8 DUP7 ADD MLOAD DUP2 SSTORE ADD SWAP6 ADD SWAP4 ADD PUSH2 0x32EB JUMP JUMPDEST SWAP1 SWAP2 POP DUP8 PUSH0 MSTORE PUSH1 0x20 PUSH0 KECCAK256 PUSH1 0x1F DUP5 ADD PUSH1 0x5 SHR DUP2 ADD SWAP2 PUSH1 0x20 DUP6 LT PUSH2 0x3384 JUMPI JUMPDEST SWAP1 PUSH1 0x1F DUP6 SWAP5 SWAP4 SWAP3 ADD PUSH1 0x5 SHR ADD SWAP1 JUMPDEST DUP2 DUP2 LT PUSH2 0x3376 JUMPI POP PUSH2 0x2CC3 JUMP JUMPDEST PUSH0 DUP2 SSTORE DUP5 SWAP4 POP PUSH1 0x1 ADD PUSH2 0x3369 JUMP JUMPDEST SWAP1 SWAP2 POP DUP2 SWAP1 PUSH2 0x335B JUMP JUMPDEST CALLVALUE PUSH2 0x1D3 JUMPI PUSH1 0x20 CALLDATASIZE PUSH1 0x3 NOT ADD SLT PUSH2 0x1D3 JUMPI PUSH1 0x4 CALLDATALOAD PUSH1 0x1 PUSH1 0x1 PUSH1 0x40 SHL SUB DUP2 GT PUSH2 0x1D3 JUMPI PUSH2 0x33BE SWAP1 CALLDATASIZE SWAP1 PUSH1 0x4 ADD PUSH2 0x367A JUMP JUMPDEST PUSH1 0x40 MLOAD DUP2 DUP2 SWAP3 MLOAD PUSH1 0x20 DUP2 SWAP3 ADD DUP4 MCOPY DUP2 ADD PUSH0 DUP2 MSTORE SUB PUSH1 0x20 ADD SWAP1 KECCAK256 DUP1 SLOAD PUSH1 0xFF AND PUSH1 0x1 DUP3 ADD SLOAD SWAP2 PUSH1 0x2 DUP2 ADD SLOAD SWAP1 PUSH1 0x3 DUP2 ADD SLOAD PUSH1 0x4 DUP3 ADD SLOAD PUSH1 0x5 DUP4 ADD SLOAD PUSH1 0x6 DUP5 ADD SLOAD SWAP1 PUSH1 0x7 DUP6 ADD SLOAD SWAP3 PUSH1 0x8 DUP7 ADD PUSH2 0x3410 SWAP1 PUSH2 0x381F JUMP JUMPDEST SWAP5 PUSH2 0x341D PUSH1 0xB DUP9 ADD PUSH2 0x381F JUMP JUMPDEST SWAP7 PUSH1 0xE ADD PUSH2 0x342A SWAP1 PUSH2 0x377F JUMP JUMPDEST SWAP8 PUSH1 0x40 MLOAD SWAP11 PUSH2 0x343A DUP13 DUP1 SWAP13 PUSH2 0x385E JUMP JUMPDEST PUSH1 0x20 DUP12 ADD MSTORE PUSH1 0x40 DUP11 ADD MSTORE PUSH1 0x60 DUP10 ADD MSTORE PUSH1 0x80 DUP9 ADD MSTORE PUSH1 0xA0 DUP8 ADD MSTORE PUSH1 0xC0 DUP7 ADD MSTORE PUSH1 0xE0 DUP6 ADD MSTORE PUSH2 0x100 DUP5 ADD PUSH2 0x160 SWAP1 MSTORE PUSH2 0x160 DUP5 ADD PUSH2 0x3475 SWAP2 PUSH2 0x36F3 JUMP JUMPDEST DUP4 DUP2 SUB PUSH2 0x120 DUP6 ADD MSTORE PUSH2 0x3487 SWAP2 PUSH2 0x36F3 JUMP JUMPDEST DUP3 DUP2 SUB PUSH2 0x140 DUP5 ADD MSTORE PUSH2 0xCB1 SWAP2 PUSH2 0x36CF JUMP JUMPDEST CALLVALUE PUSH2 0x1D3 JUMPI PUSH1 0x60 CALLDATASIZE PUSH1 0x3 NOT ADD SLT PUSH2 0x1D3 JUMPI PUSH1 0x4 CALLDATALOAD PUSH1 0x1 PUSH1 0x1 PUSH1 0x40 SHL SUB DUP2 GT PUSH2 0x1D3 JUMPI PUSH2 0x34C9 SWAP1 CALLDATASIZE SWAP1 PUSH1 0x4 ADD PUSH2 0x367A JUMP JUMPDEST PUSH1 0x24 CALLDATALOAD PUSH1 0x1 PUSH1 0x1 PUSH1 0x40 SHL SUB DUP2 GT PUSH2 0x1D3 JUMPI PUSH2 0x34E8 SWAP1 CALLDATASIZE SWAP1 PUSH1 0x4 ADD PUSH2 0x367A JUMP JUMPDEST SWAP1 PUSH1 0x44 CALLDATALOAD PUSH1 0x1 PUSH1 0x1 PUSH1 0xA0 SHL SUB DUP2 AND DUP2 SUB PUSH2 0x1D3 JUMPI PUSH2 0xCB1 SWAP3 PUSH2 0x3509 SWAP3 PUSH2 0x3C70 JUMP JUMPDEST PUSH1 0x40 MLOAD SWAP2 DUP3 SWAP2 PUSH1 0x20 DUP4 MSTORE PUSH1 0x20 DUP4 ADD SWAP1 PUSH2 0x36F3 JUMP JUMPDEST CALLVALUE PUSH2 0x1D3 JUMPI PUSH1 0x20 CALLDATASIZE PUSH1 0x3 NOT ADD SLT PUSH2 0x1D3 JUMPI PUSH1 0x4 CALLDATALOAD PUSH1 0x1 PUSH1 0x1 PUSH1 0x40 SHL SUB DUP2 GT PUSH2 0x1D3 JUMPI PUSH2 0x3550 PUSH2 0x1D1 SWAP2 CALLDATASIZE SWAP1 PUSH1 0x4 ADD PUSH2 0x367A JUMP JUMPDEST PUSH2 0x3C42 JUMP JUMPDEST CALLVALUE PUSH2 0x1D3 JUMPI PUSH1 0x20 CALLDATASIZE PUSH1 0x3 NOT ADD SLT PUSH2 0x1D3 JUMPI PUSH1 0x4 CALLDATALOAD PUSH1 0x1 PUSH1 0x1 PUSH1 0x40 SHL SUB DUP2 GT PUSH2 0x1D3 JUMPI PUSH2 0x3509 PUSH1 0x8 PUSH1 0x20 DUP1 PUSH2 0x3590 PUSH2 0xCB1 SWAP6 CALLDATASIZE SWAP1 PUSH1 0x4 ADD PUSH2 0x367A JUMP JUMPDEST PUSH2 0x3598 PUSH2 0x3C22 JUMP JUMPDEST POP PUSH1 0x40 MLOAD SWAP3 DUP2 DUP5 SWAP3 MLOAD SWAP2 DUP3 SWAP2 ADD DUP4 MCOPY DUP2 ADD PUSH0 DUP2 MSTORE SUB ADD SWAP1 KECCAK256 ADD PUSH2 0x381F JUMP JUMPDEST PUSH1 0xC0 DUP2 ADD SWAP1 DUP2 LT PUSH1 0x1 PUSH1 0x1 PUSH1 0x40 SHL SUB DUP3 GT OR PUSH2 0x327 JUMPI PUSH1 0x40 MSTORE JUMP JUMPDEST PUSH1 0x80 DUP2 ADD SWAP1 DUP2 LT PUSH1 0x1 PUSH1 0x1 PUSH1 0x40 SHL SUB DUP3 GT OR PUSH2 0x327 JUMPI PUSH1 0x40 MSTORE JUMP JUMPDEST PUSH1 0xE0 DUP2 ADD SWAP1 DUP2 LT PUSH1 0x1 PUSH1 0x1 PUSH1 0x40 SHL SUB DUP3 GT OR PUSH2 0x327 JUMPI PUSH1 0x40 MSTORE JUMP JUMPDEST PUSH1 0x60 DUP2 ADD SWAP1 DUP2 LT PUSH1 0x1 PUSH1 0x1 PUSH1 0x40 SHL SUB DUP3 GT OR PUSH2 0x327 JUMPI PUSH1 0x40 MSTORE JUMP JUMPDEST PUSH1 0x40 DUP2 ADD SWAP1 DUP2 LT PUSH1 0x1 PUSH1 0x1 PUSH1 0x40 SHL SUB DUP3 GT OR PUSH2 0x327 JUMPI PUSH1 0x40 MSTORE JUMP JUMPDEST PUSH2 0x160 DUP2 ADD SWAP1 DUP2 LT PUSH1 0x1 PUSH1 0x1 PUSH1 0x40 SHL SUB DUP3 GT OR PUSH2 0x327 JUMPI PUSH1 0x40 MSTORE JUMP JUMPDEST SWAP1 PUSH1 0x1F DUP1 NOT SWAP2 ADD AND DUP2 ADD SWAP1 DUP2 LT PUSH1 0x1 PUSH1 0x1 PUSH1 0x40 SHL SUB DUP3 GT OR PUSH2 0x327 JUMPI PUSH1 0x40 MSTORE JUMP JUMPDEST DUP2 PUSH1 0x1F DUP3 ADD SLT ISZERO PUSH2 0x1D3 JUMPI DUP1 CALLDATALOAD SWAP1 PUSH1 0x1 PUSH1 0x1 PUSH1 0x40 SHL SUB DUP3 GT PUSH2 0x327 JUMPI PUSH1 0x40 MLOAD SWAP3 PUSH2 0x36AE PUSH1 0x1F DUP5 ADD PUSH1 0x1F NOT AND PUSH1 0x20 ADD DUP6 PUSH2 0x3659 JUMP JUMPDEST DUP3 DUP5 MSTORE PUSH1 0x20 DUP4 DUP4 ADD ADD GT PUSH2 0x1D3 JUMPI DUP2 PUSH0 SWAP3 PUSH1 0x20 DUP1 SWAP4 ADD DUP4 DUP7 ADD CALLDATACOPY DUP4 ADD ADD MSTORE SWAP1 JUMP JUMPDEST DUP1 MLOAD DUP1 DUP4 MSTORE PUSH1 0x20 SWAP3 SWAP2 DUP2 SWAP1 DUP5 ADD DUP5 DUP5 ADD MCOPY PUSH0 DUP3 DUP3 ADD DUP5 ADD MSTORE PUSH1 0x1F ADD PUSH1 0x1F NOT AND ADD ADD SWAP1 JUMP JUMPDEST SWAP1 PUSH1 0x40 PUSH2 0x371E PUSH2 0x370C DUP5 MLOAD PUSH1 0x60 DUP6 MSTORE PUSH1 0x60 DUP6 ADD SWAP1 PUSH2 0x36CF JUMP JUMPDEST PUSH1 0x20 DUP6 ADD MLOAD DUP5 DUP3 SUB PUSH1 0x20 DUP7 ADD MSTORE PUSH2 0x36CF JUMP JUMPDEST SWAP3 DUP2 ADD MLOAD PUSH1 0x1 PUSH1 0x1 PUSH1 0xA0 SHL SUB AND SWAP2 ADD MSTORE SWAP1 JUMP JUMPDEST PUSH1 0x84 CALLDATALOAD SWAP1 PUSH1 0x1 PUSH1 0x1 PUSH1 0xA0 SHL SUB DUP3 AND DUP3 SUB PUSH2 0x1D3 JUMPI JUMP JUMPDEST SWAP1 PUSH1 0x1 DUP3 DUP2 SHR SWAP3 AND DUP1 ISZERO PUSH2 0x3775 JUMPI JUMPDEST PUSH1 0x20 DUP4 LT EQ PUSH2 0x3761 JUMPI JUMP JUMPDEST PUSH4 0x4E487B71 PUSH1 0xE0 SHL PUSH0 MSTORE PUSH1 0x22 PUSH1 0x4 MSTORE PUSH1 0x24 PUSH0 REVERT JUMPDEST SWAP2 PUSH1 0x7F AND SWAP2 PUSH2 0x3756 JUMP JUMPDEST SWAP1 PUSH1 0x40 MLOAD SWAP2 DUP3 PUSH0 DUP3 SLOAD SWAP3 PUSH2 0x3792 DUP5 PUSH2 0x3747 JUMP JUMPDEST DUP1 DUP5 MSTORE SWAP4 PUSH1 0x1 DUP2 AND SWAP1 DUP2 ISZERO PUSH2 0x37FD JUMPI POP PUSH1 0x1 EQ PUSH2 0x37B9 JUMPI JUMPDEST POP PUSH2 0x37B7 SWAP3 POP SUB DUP4 PUSH2 0x3659 JUMP JUMPDEST JUMP JUMPDEST SWAP1 POP PUSH0 SWAP3 SWAP2 SWAP3 MSTORE PUSH1 0x20 PUSH0 KECCAK256 SWAP1 PUSH0 SWAP2 JUMPDEST DUP2 DUP4 LT PUSH2 0x37E1 JUMPI POP POP SWAP1 PUSH1 0x20 PUSH2 0x37B7 SWAP3 DUP3 ADD ADD PUSH0 PUSH2 0x37AA JUMP JUMPDEST PUSH1 0x20 SWAP2 SWAP4 POP DUP1 PUSH1 0x1 SWAP2 SLOAD DUP4 DUP6 DUP10 ADD ADD MSTORE ADD SWAP2 ADD SWAP1 SWAP2 DUP5 SWAP3 PUSH2 0x37C8 JUMP JUMPDEST SWAP1 POP PUSH1 0x20 SWAP3 POP PUSH2 0x37B7 SWAP5 SWAP2 POP PUSH1 0xFF NOT AND DUP3 DUP5 ADD MSTORE ISZERO ISZERO PUSH1 0x5 SHL DUP3 ADD ADD PUSH0 PUSH2 0x37AA JUMP JUMPDEST SWAP1 PUSH1 0x40 MLOAD PUSH2 0x382C DUP2 PUSH2 0x3607 JUMP JUMPDEST PUSH1 0x40 DUP2 SWAP4 PUSH2 0x3839 DUP2 PUSH2 0x377F JUMP JUMPDEST DUP4 MSTORE PUSH2 0x3847 PUSH1 0x1 DUP3 ADD PUSH2 0x377F JUMP JUMPDEST PUSH1 0x20 DUP5 ADD MSTORE PUSH1 0x2 ADD SLOAD PUSH1 0x1 PUSH1 0x1 PUSH1 0xA0 SHL SUB AND SWAP2 ADD MSTORE JUMP JUMPDEST SWAP1 PUSH1 0x7 DUP3 LT ISZERO PUSH2 0x2492 JUMPI MSTORE JUMP JUMPDEST PUSH1 0x20 DUP2 ADD PUSH1 0x20 DUP3 MSTORE DUP3 MLOAD DUP1 SWAP2 MSTORE PUSH1 0x40 DUP3 ADD SWAP2 PUSH1 0x20 PUSH1 0x40 DUP4 PUSH1 0x5 SHL DUP4 ADD ADD SWAP5 ADD SWAP3 PUSH0 SWAP2 JUMPDEST DUP4 DUP4 LT PUSH2 0x389D JUMPI POP POP POP POP POP SWAP1 JUMP JUMPDEST SWAP1 SWAP2 SWAP3 SWAP4 SWAP5 PUSH1 0x20 DUP1 PUSH1 0x1 SWAP3 PUSH1 0x3F NOT DUP6 DUP3 SUB ADD DUP7 MSTORE DUP9 MLOAD SWAP1 PUSH1 0xC0 DUP1 PUSH2 0x3926 PUSH2 0x38F5 PUSH2 0x38E3 PUSH2 0x38D3 DUP8 MLOAD PUSH1 0xE0 DUP9 MSTORE PUSH1 0xE0 DUP9 ADD SWAP1 PUSH2 0x36CF JUMP JUMPDEST DUP9 DUP9 ADD MLOAD DUP8 DUP3 SUB DUP11 DUP10 ADD MSTORE PUSH2 0x36CF JUMP JUMPDEST PUSH1 0x40 DUP8 ADD MLOAD DUP7 DUP3 SUB PUSH1 0x40 DUP9 ADD MSTORE PUSH2 0x36CF JUMP JUMPDEST PUSH1 0xFF PUSH1 0x60 DUP8 ADD MLOAD AND PUSH1 0x60 DUP7 ADD MSTORE PUSH2 0x3914 PUSH1 0x80 DUP8 ADD MLOAD PUSH1 0x80 DUP8 ADD SWAP1 PUSH2 0x385E JUMP JUMPDEST PUSH1 0xA0 DUP7 ADD MLOAD DUP6 DUP3 SUB PUSH1 0xA0 DUP8 ADD MSTORE PUSH2 0x36CF JUMP JUMPDEST SWAP4 ADD MLOAD SWAP2 ADD MSTORE SWAP8 ADD SWAP4 ADD SWAP4 ADD SWAP2 SWAP4 SWAP3 SWAP1 PUSH2 0x388E JUMP JUMPDEST SWAP2 SWAP1 PUSH1 0x60 DUP4 DUP3 SUB SLT PUSH2 0x1D3 JUMPI PUSH1 0x40 MLOAD SWAP1 PUSH2 0x3954 DUP3 PUSH2 0x3607 JUMP JUMPDEST DUP2 SWAP4 DUP1 CALLDATALOAD PUSH1 0x1 PUSH1 0x1 PUSH1 0x40 SHL SUB DUP2 GT PUSH2 0x1D3 JUMPI DUP3 PUSH2 0x3972 SWAP2 DUP4 ADD PUSH2 0x367A JUMP JUMPDEST DUP4 MSTORE PUSH1 0x20 DUP2 ADD CALLDATALOAD PUSH1 0x1 PUSH1 0x1 PUSH1 0x40 SHL SUB DUP2 GT PUSH2 0x1D3 JUMPI DUP3 PUSH2 0x3993 SWAP2 DUP4 ADD PUSH2 0x367A JUMP JUMPDEST PUSH1 0x20 DUP5 ADD MSTORE PUSH1 0x40 DUP2 ADD CALLDATALOAD SWAP2 PUSH1 0x1 PUSH1 0x1 PUSH1 0x40 SHL SUB DUP4 GT PUSH2 0x1D3 JUMPI PUSH1 0x40 SWAP3 PUSH2 0x39B9 SWAP3 ADD PUSH2 0x367A JUMP JUMPDEST SWAP2 ADD MSTORE JUMP JUMPDEST SWAP2 SWAP1 PUSH1 0x40 DUP4 DUP3 SUB SLT PUSH2 0x1D3 JUMPI PUSH1 0x40 MLOAD SWAP1 PUSH2 0x39D7 DUP3 PUSH2 0x3622 JUMP JUMPDEST DUP2 SWAP4 DUP1 CALLDATALOAD PUSH1 0x1 PUSH1 0x1 PUSH1 0x40 SHL SUB DUP2 GT PUSH2 0x1D3 JUMPI DUP3 PUSH2 0x39F5 SWAP2 DUP4 ADD PUSH2 0x367A JUMP JUMPDEST DUP4 MSTORE PUSH1 0x20 DUP2 ADD CALLDATALOAD SWAP2 PUSH1 0x1 PUSH1 0x1 PUSH1 0x40 SHL SUB DUP4 GT PUSH2 0x1D3 JUMPI PUSH1 0x20 SWAP3 PUSH2 0x39B9 SWAP3 ADD PUSH2 0x367A JUMP JUMPDEST SWAP1 PUSH2 0x3AC5 SWAP2 PUSH1 0x20 DUP2 MSTORE PUSH2 0x3A2F PUSH1 0x20 DUP3 ADD DUP4 MLOAD PUSH2 0x385E JUMP JUMPDEST PUSH1 0x20 DUP3 ADD MLOAD PUSH1 0x40 DUP3 ADD MSTORE PUSH1 0x40 DUP3 ADD MLOAD PUSH1 0x60 DUP3 ADD MSTORE PUSH1 0x60 DUP3 ADD MLOAD PUSH1 0x80 DUP3 ADD MSTORE PUSH1 0x80 DUP3 ADD MLOAD PUSH1 0xA0 DUP3 ADD MSTORE PUSH1 0xA0 DUP3 ADD MLOAD PUSH1 0xC0 DUP3 ADD MSTORE PUSH1 0xC0 DUP3 ADD MLOAD PUSH1 0xE0 DUP3 ADD MSTORE PUSH1 0xE0 DUP3 ADD MLOAD PUSH2 0x100 DUP3 ADD MSTORE PUSH2 0x140 PUSH2 0x3AAF PUSH2 0x3A99 PUSH2 0x100 DUP6 ADD MLOAD PUSH2 0x160 PUSH2 0x120 DUP7 ADD MSTORE PUSH2 0x180 DUP6 ADD SWAP1 PUSH2 0x36F3 JUMP JUMPDEST PUSH2 0x120 DUP6 ADD MLOAD DUP5 DUP3 SUB PUSH1 0x1F NOT ADD DUP5 DUP7 ADD MSTORE PUSH2 0x36F3 JUMP JUMPDEST SWAP3 ADD MLOAD SWAP1 PUSH2 0x160 PUSH1 0x1F NOT DUP3 DUP6 SUB ADD SWAP2 ADD MSTORE PUSH2 0x36CF JUMP JUMPDEST SWAP1 JUMP JUMPDEST SWAP1 PUSH1 0x40 PUSH1 0x3 NOT DUP4 ADD SLT PUSH2 0x1D3 JUMPI PUSH1 0x4 CALLDATALOAD PUSH1 0x1 PUSH1 0x1 PUSH1 0x40 SHL SUB DUP2 GT PUSH2 0x1D3 JUMPI DUP3 PUSH2 0x3AF3 SWAP2 PUSH1 0x4 ADD PUSH2 0x367A JUMP JUMPDEST SWAP2 PUSH1 0x24 CALLDATALOAD SWAP1 PUSH1 0x1 PUSH1 0x1 PUSH1 0x40 SHL SUB DUP3 GT PUSH2 0x1D3 JUMPI PUSH2 0x3AC5 SWAP2 PUSH1 0x4 ADD PUSH2 0x367A JUMP JUMPDEST SWAP2 SWAP1 PUSH1 0x60 DUP4 DUP3 SUB SLT PUSH2 0x1D3 JUMPI PUSH1 0x40 MLOAD SWAP1 PUSH2 0x3B2B DUP3 PUSH2 0x3607 JUMP JUMPDEST DUP2 SWAP4 DUP1 CALLDATALOAD PUSH1 0x1 PUSH1 0x1 PUSH1 0x40 SHL SUB DUP2 GT PUSH2 0x1D3 JUMPI DUP3 PUSH2 0x3B49 SWAP2 DUP4 ADD PUSH2 0x367A JUMP JUMPDEST DUP4 MSTORE PUSH1 0x20 DUP2 ADD CALLDATALOAD PUSH1 0x1 PUSH1 0x1 PUSH1 0x40 SHL SUB DUP2 GT PUSH2 0x1D3 JUMPI PUSH1 0x40 SWAP3 PUSH2 0x3B6C SWAP2 DUP4 ADD PUSH2 0x367A JUMP JUMPDEST PUSH1 0x20 DUP5 ADD MSTORE ADD CALLDATALOAD SWAP1 PUSH1 0x1 PUSH1 0x1 PUSH1 0xA0 SHL SUB DUP3 AND DUP3 SUB PUSH2 0x1D3 JUMPI PUSH1 0x40 ADD MSTORE JUMP JUMPDEST PUSH1 0x60 PUSH1 0x3 NOT DUP3 ADD SLT PUSH2 0x1D3 JUMPI PUSH1 0x4 CALLDATALOAD PUSH1 0x1 PUSH1 0x1 PUSH1 0x40 SHL SUB DUP2 GT PUSH2 0x1D3 JUMPI DUP2 PUSH2 0x3BB4 SWAP2 PUSH1 0x4 ADD PUSH2 0x367A JUMP JUMPDEST SWAP2 PUSH1 0x24 CALLDATALOAD PUSH1 0x1 PUSH1 0x1 PUSH1 0x40 SHL SUB DUP2 GT PUSH2 0x1D3 JUMPI DUP3 PUSH2 0x3BD3 SWAP2 PUSH1 0x4 ADD PUSH2 0x367A JUMP JUMPDEST SWAP2 PUSH1 0x44 CALLDATALOAD SWAP1 PUSH1 0x1 PUSH1 0x1 PUSH1 0x40 SHL SUB DUP3 GT PUSH2 0x1D3 JUMPI PUSH2 0x3AC5 SWAP2 PUSH1 0x4 ADD PUSH2 0x3B12 JUMP JUMPDEST PUSH1 0x2 SLOAD DUP2 LT ISZERO PUSH2 0x3C0E JUMPI PUSH1 0x2 PUSH0 MSTORE PUSH1 0x6 PUSH1 0x20 PUSH0 KECCAK256 SWAP2 MUL ADD SWAP1 PUSH0 SWAP1 JUMP JUMPDEST PUSH4 0x4E487B71 PUSH1 0xE0 SHL PUSH0 MSTORE PUSH1 0x32 PUSH1 0x4 MSTORE PUSH1 0x24 PUSH0 REVERT JUMPDEST PUSH1 0x40 MLOAD SWAP1 PUSH2 0x3C2F DUP3 PUSH2 0x3607 JUMP JUMPDEST PUSH0 PUSH1 0x40 DUP4 PUSH1 0x60 DUP2 MSTORE PUSH1 0x60 PUSH1 0x20 DUP3 ADD MSTORE ADD MSTORE JUMP JUMPDEST PUSH1 0x20 DUP1 SWAP2 PUSH1 0x40 MLOAD SWAP3 DUP2 DUP5 SWAP3 MLOAD SWAP2 DUP3 SWAP2 ADD DUP4 MCOPY DUP2 ADD PUSH0 DUP2 MSTORE SUB ADD SWAP1 KECCAK256 TIMESTAMP PUSH1 0x4 DUP3 ADD SSTORE PUSH1 0x3 PUSH1 0xFF NOT DUP3 SLOAD AND OR SWAP1 SSTORE JUMP JUMPDEST SWAP2 SWAP1 PUSH2 0x3C7A PUSH2 0x3C22 JUMP JUMPDEST POP PUSH1 0x40 MLOAD SWAP3 PUSH2 0x3C88 DUP5 PUSH2 0x3607 JUMP JUMPDEST DUP4 MSTORE PUSH1 0x20 DUP4 ADD MSTORE PUSH1 0x1 PUSH1 0x1 PUSH1 0xA0 SHL SUB AND PUSH1 0x40 DUP3 ADD MSTORE SWAP1 JUMP JUMPDEST PUSH0 SWAP3 SWAP2 DUP2 SLOAD SWAP2 PUSH2 0x3CAF DUP4 PUSH2 0x3747 JUMP JUMPDEST SWAP3 PUSH1 0x1 DUP2 AND SWAP1 DUP2 ISZERO PUSH2 0x3CF7 JUMPI POP PUSH1 0x1 EQ PUSH2 0x3CC8 JUMPI POP POP POP JUMP JUMPDEST SWAP1 SWAP2 SWAP3 SWAP4 POP PUSH0 MSTORE PUSH1 0x20 PUSH0 KECCAK256 PUSH0 SWAP1 JUMPDEST DUP4 DUP3 LT PUSH2 0x3CE3 JUMPI POP POP ADD SWAP1 JUMP JUMPDEST PUSH1 0x1 DUP2 PUSH1 0x20 SWAP3 SLOAD DUP5 DUP7 ADD MSTORE ADD SWAP2 ADD SWAP1 PUSH2 0x3CD6 JUMP JUMPDEST PUSH1 0xFF NOT AND DUP4 MSTORE POP POP DUP2 ISZERO ISZERO SWAP1 SWAP2 MUL ADD SWAP2 POP JUMP JUMPDEST PUSH1 0x1 PUSH1 0x1 PUSH1 0x40 SHL SUB DUP2 GT PUSH2 0x327 JUMPI PUSH1 0x5 SHL PUSH1 0x20 ADD SWAP1 JUMP JUMPDEST SWAP1 PUSH2 0x3D2B DUP3 PUSH2 0x3D0A JUMP JUMPDEST PUSH2 0x3D38 PUSH1 0x40 MLOAD SWAP2 DUP3 PUSH2 0x3659 JUMP JUMPDEST DUP3 DUP2 MSTORE DUP1 SWAP3 PUSH2 0x3D49 PUSH1 0x1F NOT SWAP2 PUSH2 0x3D0A JUMP JUMPDEST ADD SWAP1 PUSH0 JUMPDEST DUP3 DUP2 LT PUSH2 0x3D59 JUMPI POP POP POP JUMP JUMPDEST PUSH1 0x20 SWAP1 PUSH1 0x40 MLOAD PUSH2 0x3D68 DUP2 PUSH2 0x35EC JUMP JUMPDEST PUSH1 0x60 DUP2 MSTORE PUSH1 0x60 DUP4 DUP3 ADD MSTORE PUSH1 0x60 PUSH1 0x40 DUP3 ADD MSTORE PUSH0 PUSH1 0x60 DUP3 ADD MSTORE PUSH0 PUSH1 0x80 DUP3 ADD MSTORE PUSH1 0x60 PUSH1 0xA0 DUP3 ADD MSTORE PUSH0 PUSH1 0xC0 DUP3 ADD MSTORE DUP3 DUP3 DUP6 ADD ADD MSTORE ADD PUSH2 0x3D4D JUMP JUMPDEST DUP1 MLOAD DUP3 LT ISZERO PUSH2 0x3C0E JUMPI PUSH1 0x20 SWAP2 PUSH1 0x5 SHL ADD ADD SWAP1 JUMP JUMPDEST PUSH1 0x7 DUP3 LT ISZERO PUSH2 0x2492 JUMPI MSTORE JUMP JUMPDEST SWAP1 PUSH1 0x40 MLOAD PUSH2 0x3DCB DUP2 PUSH2 0x35EC JUMP JUMPDEST PUSH1 0xC0 PUSH1 0x5 DUP3 SWAP5 PUSH2 0x3DDA DUP2 PUSH2 0x377F JUMP JUMPDEST DUP5 MSTORE PUSH2 0x3DE8 PUSH1 0x1 DUP3 ADD PUSH2 0x377F JUMP JUMPDEST PUSH1 0x20 DUP6 ADD MSTORE PUSH2 0x3DF9 PUSH1 0x2 DUP3 ADD PUSH2 0x377F JUMP JUMPDEST PUSH1 0x40 DUP6 ADD MSTORE PUSH2 0x3E1D PUSH1 0xFF PUSH1 0x3 DUP4 ADD SLOAD DUP2 DUP2 AND PUSH1 0x60 DUP9 ADD MSTORE PUSH1 0x8 SHR AND PUSH1 0x80 DUP7 ADD PUSH2 0x3DB2 JUMP JUMPDEST PUSH2 0x3E29 PUSH1 0x4 DUP3 ADD PUSH2 0x377F JUMP JUMPDEST PUSH1 0xA0 DUP6 ADD MSTORE ADD SLOAD SWAP2 ADD MSTORE JUMP JUMPDEST PUSH1 0xFF AND PUSH1 0xFF DUP2 EQ PUSH2 0x33B JUMPI PUSH1 0x1 ADD SWAP1 JUMP JUMPDEST PUSH1 0x40 MLOAD DUP2 MLOAD PUSH2 0x3AC5 SWAP3 PUSH1 0x20 SWAP2 DUP4 SWAP2 DUP2 SWAP1 DUP5 ADD DUP4 MCOPY DUP2 ADD PUSH1 0x1 DUP2 MSTORE SUB ADD SWAP1 KECCAK256 PUSH2 0x377F JUMP JUMPDEST SWAP1 TIMESTAMP GT ISZERO PUSH2 0x3E9F JUMPI PUSH1 0x20 DUP1 SWAP2 PUSH1 0x40 MLOAD SWAP3 DUP2 DUP5 SWAP3 MLOAD SWAP2 DUP3 SWAP2 ADD DUP4 MCOPY DUP2 ADD PUSH0 DUP2 MSTORE SUB ADD SWAP1 KECCAK256 TIMESTAMP PUSH1 0x6 DUP3 ADD SSTORE PUSH1 0x5 PUSH1 0xFF NOT DUP3 SLOAD AND OR SWAP1 SSTORE JUMP JUMPDEST PUSH1 0x40 MLOAD PUSH3 0x461BCD PUSH1 0xE5 SHL DUP2 MSTORE PUSH1 0x20 PUSH1 0x4 DUP3 ADD MSTORE PUSH1 0x18 PUSH1 0x24 DUP3 ADD MSTORE PUSH32 0x536572746966696B6174206D61736968206265726C616B750000000000000000 PUSH1 0x44 DUP3 ADD MSTORE PUSH1 0x64 SWAP1 REVERT JUMPDEST PUSH1 0x40 MLOAD SWAP1 PUSH2 0x3EF1 DUP3 PUSH2 0x363D JUMP JUMPDEST PUSH1 0x60 PUSH2 0x140 DUP4 PUSH0 DUP2 MSTORE PUSH0 PUSH1 0x20 DUP3 ADD MSTORE PUSH0 PUSH1 0x40 DUP3 ADD MSTORE PUSH0 DUP4 DUP3 ADD MSTORE PUSH0 PUSH1 0x80 DUP3 ADD MSTORE PUSH0 PUSH1 0xA0 DUP3 ADD MSTORE PUSH0 PUSH1 0xC0 DUP3 ADD MSTORE PUSH0 PUSH1 0xE0 DUP3 ADD MSTORE PUSH2 0x3F2B PUSH2 0x3C22 JUMP JUMPDEST PUSH2 0x100 DUP3 ADD MSTORE PUSH2 0x3F39 PUSH2 0x3C22 JUMP JUMPDEST PUSH2 0x120 DUP3 ADD MSTORE ADD MSTORE JUMP JUMPDEST PUSH1 0x20 DUP1 SWAP2 PUSH2 0x3F4F PUSH2 0x3EE4 JUMP JUMPDEST POP PUSH1 0x40 MLOAD SWAP3 DUP2 DUP5 SWAP3 MLOAD SWAP2 DUP3 SWAP2 ADD DUP4 MCOPY DUP2 ADD PUSH0 DUP2 MSTORE SUB ADD SWAP1 KECCAK256 PUSH2 0x3FF7 PUSH1 0xE PUSH1 0x40 MLOAD SWAP3 PUSH2 0x3F79 DUP5 PUSH2 0x363D JUMP JUMPDEST PUSH2 0x3F87 PUSH1 0xFF DUP3 SLOAD AND DUP6 PUSH2 0x3DB2 JUMP JUMPDEST PUSH1 0x1 DUP2 ADD SLOAD PUSH1 0x20 DUP6 ADD MSTORE PUSH1 0x2 DUP2 ADD SLOAD PUSH1 0x40 DUP6 ADD MSTORE PUSH1 0x3 DUP2 ADD SLOAD PUSH1 0x60 DUP6 ADD MSTORE PUSH1 0x4 DUP2 ADD SLOAD PUSH1 0x80 DUP6 ADD MSTORE PUSH1 0x5 DUP2 ADD SLOAD PUSH1 0xA0 DUP6 ADD MSTORE PUSH1 0x6 DUP2 ADD SLOAD PUSH1 0xC0 DUP6 ADD MSTORE PUSH1 0x7 DUP2 ADD SLOAD PUSH1 0xE0 DUP6 ADD MSTORE PUSH2 0x3FD9 PUSH1 0x8 DUP3 ADD PUSH2 0x381F JUMP JUMPDEST PUSH2 0x100 DUP6 ADD MSTORE PUSH2 0x3FEB PUSH1 0xB DUP3 ADD PUSH2 0x381F JUMP JUMPDEST PUSH2 0x120 DUP6 ADD MSTORE ADD PUSH2 0x377F JUMP JUMPDEST PUSH2 0x140 DUP3 ADD MSTORE SWAP1 JUMP JUMPDEST PUSH1 0x20 DUP1 SWAP2 SWAP4 SWAP3 SWAP4 PUSH1 0x40 MLOAD SWAP3 DUP2 DUP5 SWAP3 MLOAD SWAP2 DUP3 SWAP2 ADD DUP4 MCOPY DUP2 ADD PUSH0 DUP2 MSTORE SUB ADD SWAP1 KECCAK256 TIMESTAMP PUSH1 0x7 DUP3 ADD SSTORE PUSH1 0x82 TIMESTAMP ADD SWAP1 DUP2 TIMESTAMP GT PUSH2 0x33B JUMPI PUSH1 0xE SWAP2 PUSH1 0x5 DUP3 ADD SSTORE PUSH1 0x6 PUSH1 0xFF NOT DUP3 SLOAD AND OR DUP2 SSTORE ADD DUP3 MLOAD PUSH1 0x1 PUSH1 0x1 PUSH1 0x40 SHL SUB DUP2 GT PUSH2 0x327 JUMPI PUSH2 0x405E DUP3 SLOAD PUSH2 0x3747 JUMP JUMPDEST PUSH1 0x1F DUP2 GT PUSH2 0x40FE JUMPI JUMPDEST POP PUSH1 0x20 PUSH1 0x1F DUP3 GT PUSH1 0x1 EQ PUSH2 0x40A0 JUMPI DUP2 SWAP3 SWAP4 SWAP5 PUSH0 SWAP3 PUSH2 0x4095 JUMPI JUMPDEST POP POP DUP2 PUSH1 0x1 SHL SWAP2 PUSH0 NOT SWAP1 PUSH1 0x3 SHL SHR NOT AND OR SWAP1 SSTORE JUMP JUMPDEST ADD MLOAD SWAP1 POP PUSH0 DUP1 PUSH2 0x4080 JUMP JUMPDEST PUSH1 0x1F NOT DUP3 AND SWAP1 DUP4 PUSH0 MSTORE DUP1 PUSH0 KECCAK256 SWAP2 PUSH0 JUMPDEST DUP2 DUP2 LT PUSH2 0x40E6 JUMPI POP SWAP6 DUP4 PUSH1 0x1 SWAP6 SWAP7 SWAP8 LT PUSH2 0x40CE JUMPI JUMPDEST POP POP POP DUP2 SHL ADD SWAP1 SSTORE JUMP JUMPDEST ADD MLOAD PUSH0 NOT PUSH1 0xF8 DUP5 PUSH1 0x3 SHL AND SHR NOT AND SWAP1 SSTORE PUSH0 DUP1 DUP1 PUSH2 0x40C4 JUMP JUMPDEST SWAP2 SWAP3 PUSH1 0x20 PUSH1 0x1 DUP2 SWAP3 DUP7 DUP12 ADD MLOAD DUP2 SSTORE ADD SWAP5 ADD SWAP3 ADD PUSH2 0x40AF JUMP JUMPDEST DUP3 PUSH0 MSTORE PUSH1 0x20 PUSH0 KECCAK256 PUSH1 0x1F DUP4 ADD PUSH1 0x5 SHR DUP2 ADD SWAP2 PUSH1 0x20 DUP5 LT PUSH2 0x4139 JUMPI JUMPDEST PUSH1 0x1F ADD PUSH1 0x5 SHR ADD SWAP1 JUMPDEST DUP2 DUP2 LT PUSH2 0x412E JUMPI POP PUSH2 0x4067 JUMP JUMPDEST PUSH0 DUP2 SSTORE PUSH1 0x1 ADD PUSH2 0x4121 JUMP JUMPDEST SWAP1 SWAP2 POP DUP2 SWAP1 PUSH2 0x4118 JUMP JUMPDEST SWAP3 SWAP2 SWAP1 PUSH1 0x40 MLOAD PUSH1 0x20 DUP6 MLOAD SWAP2 DUP2 DUP2 DUP2 DUP10 ADD SWAP5 DUP1 DUP7 DUP4 MCOPY DUP2 ADD PUSH0 DUP2 MSTORE SUB ADD SWAP1 KECCAK256 SWAP6 PUSH1 0x40 MLOAD SWAP3 DUP4 SWAP2 MLOAD DUP1 SWAP2 DUP4 MCOPY DUP2 ADD PUSH1 0x1 DUP2 MSTORE SUB ADD SWAP1 KECCAK256 SWAP1 DUP1 MLOAD SWAP1 PUSH1 0x1 PUSH1 0x1 PUSH1 0x40 SHL SUB DUP3 GT PUSH2 0x327 JUMPI DUP2 SWAP1 PUSH2 0x4195 DUP5 SLOAD PUSH2 0x3747 JUMP JUMPDEST PUSH1 0x1F DUP2 GT PUSH2 0x4490 JUMPI JUMPDEST POP PUSH1 0x20 SWAP1 PUSH1 0x1F DUP4 GT PUSH1 0x1 EQ PUSH2 0x442D JUMPI PUSH0 SWAP3 PUSH2 0x4422 JUMPI JUMPDEST POP POP DUP2 PUSH1 0x1 SHL SWAP2 PUSH0 NOT SWAP1 PUSH1 0x3 SHL SHR NOT AND OR SWAP1 SSTORE JUMPDEST DUP1 MLOAD DUP1 MLOAD PUSH1 0xB DUP6 ADD SWAP2 PUSH1 0x1 PUSH1 0x1 PUSH1 0x40 SHL SUB DUP3 GT PUSH2 0x327 JUMPI PUSH2 0x41E9 DUP4 SLOAD PUSH2 0x3747 JUMP JUMPDEST PUSH1 0x1F DUP2 GT PUSH2 0x43DD JUMPI JUMPDEST POP PUSH1 0x20 SWAP1 PUSH1 0x1F DUP4 GT PUSH1 0x1 EQ PUSH2 0x4376 JUMPI PUSH1 0x20 SWAP5 SWAP4 SWAP3 SWAP2 PUSH0 SWAP2 DUP4 PUSH2 0x436B JUMPI JUMPDEST POP POP DUP2 PUSH1 0x1 SHL SWAP2 PUSH0 NOT SWAP1 PUSH1 0x3 SHL SHR NOT AND OR SWAP1 SSTORE JUMPDEST PUSH1 0x40 DUP2 ADD MLOAD PUSH1 0xD DUP6 ADD DUP1 SLOAD PUSH1 0x1 PUSH1 0x1 PUSH1 0xA0 SHL SUB NOT AND PUSH1 0x1 PUSH1 0x1 PUSH1 0xA0 SHL SUB SWAP3 SWAP1 SWAP3 AND SWAP2 SWAP1 SWAP2 OR SWAP1 SSTORE ADD MLOAD DUP1 MLOAD SWAP1 SWAP3 SWAP1 PUSH1 0xC DUP3 ADD SWAP1 PUSH1 0x1 PUSH1 0x1 PUSH1 0x40 SHL SUB DUP2 GT PUSH2 0x327 JUMPI PUSH2 0x426E DUP3 SLOAD PUSH2 0x3747 JUMP JUMPDEST PUSH1 0x1F DUP2 GT PUSH2 0x4326 JUMPI JUMPDEST POP PUSH1 0x20 SWAP5 PUSH1 0x1F DUP3 GT PUSH1 0x1 EQ PUSH2 0x42C5 JUMPI SWAP5 DUP2 SWAP3 SWAP4 SWAP5 SWAP6 PUSH0 SWAP3 PUSH2 0x42BA JUMPI JUMPDEST POP POP DUP2 PUSH1 0x1 SHL SWAP2 PUSH0 NOT SWAP1 PUSH1 0x3 SHL SHR NOT AND OR SWAP1 SSTORE JUMPDEST TIMESTAMP PUSH1 0x3 DUP3 ADD SSTORE DUP1 SLOAD PUSH1 0xFF NOT AND PUSH1 0x2 OR SWAP1 SSTORE JUMP JUMPDEST ADD MLOAD SWAP1 POP PUSH0 DUP1 PUSH2 0x4293 JUMP JUMPDEST PUSH1 0x1F NOT DUP3 AND SWAP6 DUP4 PUSH0 MSTORE DUP1 PUSH0 KECCAK256 SWAP2 PUSH0 JUMPDEST DUP9 DUP2 LT PUSH2 0x430E JUMPI POP DUP4 PUSH1 0x1 SWAP6 SWAP7 SWAP8 SWAP9 LT PUSH2 0x42F6 JUMPI JUMPDEST POP POP POP DUP2 SHL ADD SWAP1 SSTORE PUSH2 0x42A7 JUMP JUMPDEST ADD MLOAD PUSH0 NOT PUSH1 0xF8 DUP5 PUSH1 0x3 SHL AND SHR NOT AND SWAP1 SSTORE PUSH0 DUP1 DUP1 PUSH2 0x42E9 JUMP JUMPDEST SWAP2 SWAP3 PUSH1 0x20 PUSH1 0x1 DUP2 SWAP3 DUP7 DUP6 ADD MLOAD DUP2 SSTORE ADD SWAP5 ADD SWAP3 ADD PUSH2 0x42D4 JUMP JUMPDEST DUP3 PUSH0 MSTORE PUSH1 0x20 PUSH0 KECCAK256 PUSH1 0x1F DUP4 ADD PUSH1 0x5 SHR DUP2 ADD SWAP2 PUSH1 0x20 DUP5 LT PUSH2 0x4361 JUMPI JUMPDEST PUSH1 0x1F ADD PUSH1 0x5 SHR ADD SWAP1 JUMPDEST DUP2 DUP2 LT PUSH2 0x4356 JUMPI POP PUSH2 0x4277 JUMP JUMPDEST PUSH0 DUP2 SSTORE PUSH1 0x1 ADD PUSH2 0x4349 JUMP JUMPDEST SWAP1 SWAP2 POP DUP2 SWAP1 PUSH2 0x4340 JUMP JUMPDEST ADD MLOAD SWAP1 POP PUSH0 DUP1 PUSH2 0x420F JUMP JUMPDEST SWAP1 PUSH1 0x1F NOT DUP4 AND SWAP2 DUP5 PUSH0 MSTORE DUP2 PUSH0 KECCAK256 SWAP3 PUSH0 JUMPDEST DUP2 DUP2 LT PUSH2 0x43C5 JUMPI POP SWAP2 PUSH1 0x1 SWAP4 SWAP2 DUP6 PUSH1 0x20 SWAP9 SWAP8 SWAP7 SWAP5 LT PUSH2 0x43AD JUMPI JUMPDEST POP POP POP DUP2 SHL ADD SWAP1 SSTORE PUSH2 0x4223 JUMP JUMPDEST ADD MLOAD PUSH0 NOT PUSH1 0xF8 DUP5 PUSH1 0x3 SHL AND SHR NOT AND SWAP1 SSTORE PUSH0 DUP1 DUP1 PUSH2 0x43A0 JUMP JUMPDEST SWAP3 SWAP4 PUSH1 0x20 PUSH1 0x1 DUP2 SWAP3 DUP8 DUP7 ADD MLOAD DUP2 SSTORE ADD SWAP6 ADD SWAP4 ADD PUSH2 0x4386 JUMP JUMPDEST DUP4 PUSH0 MSTORE PUSH1 0x20 PUSH0 KECCAK256 PUSH1 0x1F DUP5 ADD PUSH1 0x5 SHR DUP2 ADD SWAP2 PUSH1 0x20 DUP6 LT PUSH2 0x4418 JUMPI JUMPDEST PUSH1 0x1F ADD PUSH1 0x5 SHR ADD SWAP1 JUMPDEST DUP2 DUP2 LT PUSH2 0x440D JUMPI POP PUSH2 0x41F2 JUMP JUMPDEST PUSH0 DUP2 SSTORE PUSH1 0x1 ADD PUSH2 0x4400 JUMP JUMPDEST SWAP1 SWAP2 POP DUP2 SWAP1 PUSH2 0x43F7 JUMP JUMPDEST ADD MLOAD SWAP1 POP PUSH0 DUP1 PUSH2 0x41B4 JUMP JUMPDEST PUSH0 DUP6 DUP2 MSTORE DUP3 DUP2 KECCAK256 SWAP4 POP PUSH1 0x1F NOT DUP6 AND SWAP1 JUMPDEST DUP2 DUP2 LT PUSH2 0x4478 JUMPI POP SWAP1 DUP5 PUSH1 0x1 SWAP6 SWAP5 SWAP4 SWAP3 LT PUSH2 0x4460 JUMPI JUMPDEST POP POP POP DUP2 SHL ADD SWAP1 SSTORE PUSH2 0x41C8 JUMP JUMPDEST ADD MLOAD PUSH0 NOT PUSH1 0xF8 DUP5 PUSH1 0x3 SHL AND SHR NOT AND SWAP1 SSTORE PUSH0 DUP1 DUP1 PUSH2 0x4453 JUMP JUMPDEST SWAP3 SWAP4 PUSH1 0x20 PUSH1 0x1 DUP2 SWAP3 DUP8 DUP7 ADD MLOAD DUP2 SSTORE ADD SWAP6 ADD SWAP4 ADD PUSH2 0x443D JUMP JUMPDEST SWAP1 SWAP2 POP DUP4 PUSH0 MSTORE PUSH1 0x20 PUSH0 KECCAK256 PUSH1 0x1F DUP5 ADD PUSH1 0x5 SHR DUP2 ADD SWAP2 PUSH1 0x20 DUP6 LT PUSH2 0x44D6 JUMPI JUMPDEST SWAP1 PUSH1 0x1F DUP6 SWAP5 SWAP4 SWAP3 ADD PUSH1 0x5 SHR ADD SWAP1 JUMPDEST DUP2 DUP2 LT PUSH2 0x44C8 JUMPI POP PUSH2 0x419E JUMP JUMPDEST PUSH0 DUP2 SSTORE DUP5 SWAP4 POP PUSH1 0x1 ADD PUSH2 0x44BB JUMP JUMPDEST SWAP1 SWAP2 POP DUP2 SWAP1 PUSH2 0x44AD JUMP JUMPDEST PUSH1 0x20 DUP1 SWAP2 SWAP5 SWAP4 SWAP3 SWAP5 PUSH1 0x40 MLOAD SWAP3 DUP2 DUP5 SWAP3 MLOAD SWAP2 DUP3 SWAP2 ADD DUP4 MCOPY DUP2 ADD PUSH0 DUP2 MSTORE SUB ADD SWAP1 KECCAK256 SWAP1 DUP1 MLOAD PUSH1 0xB DUP4 ADD SWAP1 DUP1 MLOAD SWAP1 PUSH1 0x1 PUSH1 0x1 PUSH1 0x40 SHL SUB DUP3 GT PUSH2 0x327 JUMPI PUSH2 0x4522 DUP4 SLOAD PUSH2 0x3747 JUMP JUMPDEST PUSH1 0x1F DUP2 GT PUSH2 0x4809 JUMPI JUMPDEST POP PUSH1 0x20 SWAP1 PUSH1 0x1F DUP4 GT PUSH1 0x1 EQ PUSH2 0x47A2 JUMPI PUSH1 0x20 SWAP5 SWAP4 SWAP3 SWAP2 PUSH0 SWAP2 DUP4 PUSH2 0x4797 JUMPI JUMPDEST POP POP DUP2 PUSH1 0x1 SHL SWAP2 PUSH0 NOT SWAP1 PUSH1 0x3 SHL SHR NOT AND OR SWAP1 SSTORE JUMPDEST PUSH1 0x40 DUP2 ADD MLOAD PUSH1 0xD DUP5 ADD DUP1 SLOAD PUSH1 0x1 PUSH1 0x1 PUSH1 0xA0 SHL SUB NOT AND PUSH1 0x1 PUSH1 0x1 PUSH1 0xA0 SHL SUB SWAP3 SWAP1 SWAP3 AND SWAP2 SWAP1 SWAP2 OR SWAP1 SSTORE ADD MLOAD DUP1 MLOAD PUSH1 0xC DUP4 ADD SWAP2 PUSH1 0x1 PUSH1 0x1 PUSH1 0x40 SHL SUB DUP3 GT PUSH2 0x327 JUMPI DUP2 SWAP1 PUSH2 0x45A6 DUP5 SLOAD PUSH2 0x3747 JUMP JUMPDEST PUSH1 0x1F DUP2 GT PUSH2 0x4747 JUMPI JUMPDEST POP PUSH1 0x20 SWAP1 PUSH1 0x1F DUP4 GT PUSH1 0x1 EQ PUSH2 0x46E4 JUMPI PUSH0 SWAP3 PUSH2 0x46D9 JUMPI JUMPDEST POP POP DUP2 PUSH1 0x1 SHL SWAP2 PUSH0 NOT SWAP1 PUSH1 0x3 SHL SHR NOT AND OR SWAP1 SSTORE JUMPDEST TIMESTAMP PUSH1 0x2 DUP3 ADD SSTORE PUSH1 0x82 TIMESTAMP ADD SWAP1 DUP2 TIMESTAMP GT PUSH2 0x33B JUMPI PUSH1 0xE SWAP2 PUSH1 0x5 DUP3 ADD SSTORE PUSH1 0x1 PUSH1 0xFF NOT DUP3 SLOAD AND OR DUP2 SSTORE ADD DUP3 MLOAD PUSH1 0x1 PUSH1 0x1 PUSH1 0x40 SHL SUB DUP2 GT PUSH2 0x327 JUMPI PUSH2 0x4619 DUP3 SLOAD PUSH2 0x3747 JUMP JUMPDEST PUSH1 0x1F DUP2 GT PUSH2 0x4694 JUMPI JUMPDEST POP PUSH1 0x20 PUSH1 0x1F DUP3 GT PUSH1 0x1 EQ PUSH2 0x464F JUMPI DUP2 SWAP3 SWAP4 SWAP5 PUSH0 SWAP3 PUSH2 0x4095 JUMPI POP POP DUP2 PUSH1 0x1 SHL SWAP2 PUSH0 NOT SWAP1 PUSH1 0x3 SHL SHR NOT AND OR SWAP1 SSTORE JUMP JUMPDEST PUSH1 0x1F NOT DUP3 AND SWAP1 DUP4 PUSH0 MSTORE DUP1 PUSH0 KECCAK256 SWAP2 PUSH0 JUMPDEST DUP2 DUP2 LT PUSH2 0x467C JUMPI POP SWAP6 DUP4 PUSH1 0x1 SWAP6 SWAP7 SWAP8 LT PUSH2 0x40CE JUMPI POP POP POP DUP2 SHL ADD SWAP1 SSTORE JUMP JUMPDEST SWAP2 SWAP3 PUSH1 0x20 PUSH1 0x1 DUP2 SWAP3 DUP7 DUP12 ADD MLOAD DUP2 SSTORE ADD SWAP5 ADD SWAP3 ADD PUSH2 0x465E JUMP JUMPDEST DUP3 PUSH0 MSTORE PUSH1 0x20 PUSH0 KECCAK256 PUSH1 0x1F DUP4 ADD PUSH1 0x5 SHR DUP2 ADD SWAP2 PUSH1 0x20 DUP5 LT PUSH2 0x46CF JUMPI JUMPDEST PUSH1 0x1F ADD PUSH1 0x5 SHR ADD SWAP1 JUMPDEST DUP2 DUP2 LT PUSH2 0x46C4 JUMPI POP PUSH2 0x4622 JUMP JUMPDEST PUSH0 DUP2 SSTORE PUSH1 0x1 ADD PUSH2 0x46B7 JUMP JUMPDEST SWAP1 SWAP2 POP DUP2 SWAP1 PUSH2 0x46AE JUMP JUMPDEST ADD MLOAD SWAP1 POP PUSH0 DUP1 PUSH2 0x45C5 JUMP JUMPDEST PUSH0 DUP6 DUP2 MSTORE DUP3 DUP2 KECCAK256 SWAP4 POP PUSH1 0x1F NOT DUP6 AND SWAP1 JUMPDEST DUP2 DUP2 LT PUSH2 0x472F JUMPI POP SWAP1 DUP5 PUSH1 0x1 SWAP6 SWAP5 SWAP4 SWAP3 LT PUSH2 0x4717 JUMPI JUMPDEST POP POP POP DUP2 SHL ADD SWAP1 SSTORE PUSH2 0x45D9 JUMP JUMPDEST ADD MLOAD PUSH0 NOT PUSH1 0xF8 DUP5 PUSH1 0x3 SHL AND SHR NOT AND SWAP1 SSTORE PUSH0 DUP1 DUP1 PUSH2 0x470A JUMP JUMPDEST SWAP3 SWAP4 PUSH1 0x20 PUSH1 0x1 DUP2 SWAP3 DUP8 DUP7 ADD MLOAD DUP2 SSTORE ADD SWAP6 ADD SWAP4 ADD PUSH2 0x46F4 JUMP JUMPDEST SWAP1 SWAP2 POP DUP4 PUSH0 MSTORE PUSH1 0x20 PUSH0 KECCAK256 PUSH1 0x1F DUP5 ADD PUSH1 0x5 SHR DUP2 ADD SWAP2 PUSH1 0x20 DUP6 LT PUSH2 0x478D JUMPI JUMPDEST SWAP1 PUSH1 0x1F DUP6 SWAP5 SWAP4 SWAP3 ADD PUSH1 0x5 SHR ADD SWAP1 JUMPDEST DUP2 DUP2 LT PUSH2 0x477F JUMPI POP PUSH2 0x45AF JUMP JUMPDEST PUSH0 DUP2 SSTORE DUP5 SWAP4 POP PUSH1 0x1 ADD PUSH2 0x4772 JUMP JUMPDEST SWAP1 SWAP2 POP DUP2 SWAP1 PUSH2 0x4764 JUMP JUMPDEST ADD MLOAD SWAP1 POP PUSH0 DUP1 PUSH2 0x4548 JUMP JUMPDEST SWAP1 PUSH1 0x1F NOT DUP4 AND SWAP2 DUP5 PUSH0 MSTORE DUP2 PUSH0 KECCAK256 SWAP3 PUSH0 JUMPDEST DUP2 DUP2 LT PUSH2 0x47F1 JUMPI POP SWAP2 PUSH1 0x1 SWAP4 SWAP2 DUP6 PUSH1 0x20 SWAP9 SWAP8 SWAP7 SWAP5 LT PUSH2 0x47D9 JUMPI JUMPDEST POP POP POP DUP2 SHL ADD SWAP1 SSTORE PUSH2 0x455C JUMP JUMPDEST ADD MLOAD PUSH0 NOT PUSH1 0xF8 DUP5 PUSH1 0x3 SHL AND SHR NOT AND SWAP1 SSTORE PUSH0 DUP1 DUP1 PUSH2 0x47CC JUMP JUMPDEST SWAP3 SWAP4 PUSH1 0x20 PUSH1 0x1 DUP2 SWAP3 DUP8 DUP7 ADD MLOAD DUP2 SSTORE ADD SWAP6 ADD SWAP4 ADD PUSH2 0x47B2 JUMP JUMPDEST DUP4 PUSH0 MSTORE PUSH1 0x20 PUSH0 KECCAK256 PUSH1 0x1F DUP5 ADD PUSH1 0x5 SHR DUP2 ADD SWAP2 PUSH1 0x20 DUP6 LT PUSH2 0x4844 JUMPI JUMPDEST PUSH1 0x1F ADD PUSH1 0x5 SHR ADD SWAP1 JUMPDEST DUP2 DUP2 LT PUSH2 0x4839 JUMPI POP PUSH2 0x452B JUMP JUMPDEST PUSH0 DUP2 SSTORE PUSH1 0x1 ADD PUSH2 0x482C JUMP JUMPDEST SWAP1 SWAP2 POP DUP2 SWAP1 PUSH2 0x4823 JUMP JUMPDEST SWAP3 SWAP1 SWAP2 PUSH1 0x40 MLOAD PUSH2 0x485D DUP2 PUSH2 0x363D JUMP JUMPDEST PUSH0 DUP2 MSTORE PUSH1 0x20 DUP2 ADD SWAP5 TIMESTAMP DUP7 MSTORE PUSH1 0x40 DUP3 ADD PUSH0 DUP2 MSTORE PUSH1 0x60 DUP4 ADD PUSH0 DUP2 MSTORE PUSH1 0x80 DUP5 ADD PUSH0 DUP2 MSTORE PUSH1 0xA0 DUP6 ADD SWAP1 PUSH0 DUP3 MSTORE PUSH1 0xC0 DUP7 ADD SWAP3 PUSH0 DUP5 MSTORE PUSH1 0xE0 DUP8 ADD SWAP5 PUSH0 DUP7 MSTORE PUSH2 0x100 DUP9 ADD SWAP7 DUP8 MSTORE PUSH2 0x120 DUP9 ADD SWAP11 DUP12 MSTORE PUSH1 0x20 SWAP12 DUP13 DUP1 DUP1 SWAP12 PUSH2 0x48B9 PUSH1 0x40 MLOAD SWAP14 DUP15 PUSH2 0x3659 JUMP JUMPDEST PUSH0 DUP14 MSTORE PUSH2 0x140 DUP13 ADD SWAP13 DUP14 MSTORE PUSH1 0x40 MLOAD SWAP3 DUP2 DUP5 SWAP3 MLOAD SWAP2 DUP3 SWAP2 ADD DUP4 MCOPY DUP2 ADD PUSH0 DUP2 MSTORE SUB ADD SWAP1 KECCAK256 SWAP9 MLOAD PUSH1 0x7 DUP2 LT ISZERO PUSH2 0x2492 JUMPI PUSH1 0xFF DUP1 NOT DUP12 SLOAD AND SWAP2 AND OR DUP10 SSTORE MLOAD PUSH1 0x1 DUP10 ADD SSTORE MLOAD PUSH1 0x2 DUP9 ADD SSTORE MLOAD PUSH1 0x3 DUP8 ADD SSTORE MLOAD PUSH1 0x4 DUP7 ADD SSTORE MLOAD PUSH1 0x5 DUP6 ADD SSTORE MLOAD PUSH1 0x6 DUP5 ADD SSTORE MLOAD PUSH1 0x7 DUP4 ADD SSTORE PUSH1 0x8 DUP3 ADD SWAP1 MLOAD SWAP1 DUP2 MLOAD DUP1 MLOAD SWAP1 PUSH1 0x1 PUSH1 0x1 PUSH1 0x40 SHL SUB DUP3 GT PUSH2 0x327 JUMPI DUP2 SWAP1 PUSH2 0x4942 DUP5 SLOAD PUSH2 0x3747 JUMP JUMPDEST PUSH1 0x1F DUP2 GT PUSH2 0x4E4F JUMPI JUMPDEST POP DUP10 SWAP1 PUSH1 0x1F DUP4 GT PUSH1 0x1 EQ PUSH2 0x4DEC JUMPI PUSH0 SWAP3 PUSH2 0x4DE1 JUMPI JUMPDEST POP POP DUP2 PUSH1 0x1 SHL SWAP2 PUSH0 NOT SWAP1 PUSH1 0x3 SHL SHR NOT AND OR SWAP1 SSTORE JUMPDEST PUSH1 0x9 DUP3 ADD DUP7 DUP3 ADD MLOAD DUP1 MLOAD SWAP1 PUSH1 0x1 PUSH1 0x1 PUSH1 0x40 SHL SUB DUP3 GT PUSH2 0x327 JUMPI DUP2 SWAP1 PUSH2 0x4999 DUP5 SLOAD PUSH2 0x3747 JUMP JUMPDEST PUSH1 0x1F DUP2 GT PUSH2 0x4D93 JUMPI JUMPDEST POP DUP10 SWAP1 PUSH1 0x1F DUP4 GT PUSH1 0x1 EQ PUSH2 0x4D30 JUMPI PUSH0 SWAP3 PUSH2 0x4D25 JUMPI JUMPDEST POP POP DUP2 PUSH1 0x1 SHL SWAP2 PUSH0 NOT SWAP1 PUSH1 0x3 SHL SHR NOT AND OR SWAP1 SSTORE JUMPDEST PUSH1 0x40 ADD MLOAD PUSH1 0xA DUP3 ADD DUP1 SLOAD PUSH1 0x1 PUSH1 0x1 PUSH1 0xA0 SHL SUB NOT AND PUSH1 0x1 PUSH1 0x1 PUSH1 0xA0 SHL SUB SWAP3 SWAP1 SWAP3 AND SWAP2 SWAP1 SWAP2 OR SWAP1 SSTORE SWAP3 MLOAD DUP1 MLOAD DUP1 MLOAD SWAP2 SWAP5 SWAP2 PUSH1 0xB DUP4 ADD SWAP2 PUSH1 0x1 PUSH1 0x1 PUSH1 0x40 SHL SUB DUP3 GT PUSH2 0x327 JUMPI DUP2 SWAP1 PUSH2 0x4A19 DUP5 SLOAD PUSH2 0x3747 JUMP JUMPDEST PUSH1 0x1F DUP2 GT PUSH2 0x4CD7 JUMPI JUMPDEST POP DUP9 SWAP1 PUSH1 0x1F DUP4 GT PUSH1 0x1 EQ PUSH2 0x4C74 JUMPI PUSH0 SWAP3 PUSH2 0x4C69 JUMPI JUMPDEST POP POP DUP2 PUSH1 0x1 SHL SWAP2 PUSH0 NOT SWAP1 PUSH1 0x3 SHL SHR NOT AND OR SWAP1 SSTORE JUMPDEST PUSH1 0xC DUP2 ADD SWAP4 DUP6 DUP2 ADD MLOAD SWAP5 DUP6 MLOAD SWAP6 PUSH1 0x1 PUSH1 0x1 PUSH1 0x40 SHL SUB DUP8 GT PUSH2 0x327 JUMPI PUSH2 0x4A70 DUP3 SLOAD PUSH2 0x3747 JUMP JUMPDEST PUSH1 0x1F DUP2 GT PUSH2 0x4C26 JUMPI JUMPDEST POP DUP8 SWAP1 PUSH1 0x1F DUP9 GT PUSH1 0x1 EQ PUSH2 0x4BBF JUMPI SWAP7 DUP1 SWAP2 PUSH1 0xE SWAP7 SWAP8 SWAP9 PUSH0 SWAP3 PUSH2 0x4BB4 JUMPI JUMPDEST POP POP DUP2 PUSH1 0x1 SHL SWAP2 PUSH0 NOT SWAP1 PUSH1 0x3 SHL SHR NOT AND OR SWAP1 SSTORE JUMPDEST PUSH1 0x40 ADD MLOAD PUSH1 0xD DUP3 ADD DUP1 SLOAD PUSH1 0x1 PUSH1 0x1 PUSH1 0xA0 SHL SUB NOT AND PUSH1 0x1 PUSH1 0x1 PUSH1 0xA0 SHL SUB SWAP3 SWAP1 SWAP3 AND SWAP2 SWAP1 SWAP2 OR SWAP1 SSTORE SWAP2 MLOAD DUP1 MLOAD SWAP1 SWAP5 SWAP2 SWAP1 SWAP3 ADD SWAP2 SWAP1 PUSH1 0x1 PUSH1 0x1 PUSH1 0x40 SHL SUB DUP3 GT PUSH2 0x327 JUMPI PUSH2 0x4AF4 DUP4 SLOAD PUSH2 0x3747 JUMP JUMPDEST PUSH1 0x1F DUP2 GT PUSH2 0x4B71 JUMPI JUMPDEST POP DUP1 PUSH1 0x1F DUP4 GT PUSH1 0x1 EQ PUSH2 0x4B2A JUMPI POP DUP2 SWAP3 SWAP4 SWAP5 PUSH0 SWAP3 PUSH2 0x4095 JUMPI POP POP DUP2 PUSH1 0x1 SHL SWAP2 PUSH0 NOT SWAP1 PUSH1 0x3 SHL SHR NOT AND OR SWAP1 SSTORE JUMP JUMPDEST SWAP1 PUSH1 0x1F NOT DUP4 AND SWAP6 DUP5 PUSH0 MSTORE DUP3 PUSH0 KECCAK256 SWAP3 PUSH0 SWAP1 JUMPDEST DUP9 DUP3 LT PUSH2 0x4B59 JUMPI POP POP DUP4 PUSH1 0x1 SWAP6 SWAP7 SWAP8 LT PUSH2 0x40CE JUMPI POP POP POP DUP2 SHL ADD SWAP1 SSTORE JUMP JUMPDEST DUP1 PUSH1 0x1 DUP6 SWAP7 DUP3 SWAP5 SWAP7 DUP7 ADD MLOAD DUP2 SSTORE ADD SWAP6 ADD SWAP4 ADD SWAP1 PUSH2 0x4B3B JUMP JUMPDEST DUP4 PUSH0 MSTORE DUP2 PUSH0 KECCAK256 PUSH1 0x1F DUP5 ADD PUSH1 0x5 SHR DUP2 ADD SWAP2 DUP4 DUP6 LT PUSH2 0x4BAA JUMPI JUMPDEST PUSH1 0x1F ADD PUSH1 0x5 SHR ADD SWAP1 JUMPDEST DUP2 DUP2 LT PUSH2 0x4B9F JUMPI POP PUSH2 0x4AFD JUMP JUMPDEST PUSH0 DUP2 SSTORE PUSH1 0x1 ADD PUSH2 0x4B92 JUMP JUMPDEST SWAP1 SWAP2 POP DUP2 SWAP1 PUSH2 0x4B89 JUMP JUMPDEST ADD MLOAD SWAP1 POP PUSH0 DUP1 PUSH2 0x4A96 JUMP JUMPDEST SWAP1 PUSH1 0x1F NOT DUP9 AND SWAP2 DUP4 PUSH0 MSTORE DUP10 PUSH0 KECCAK256 SWAP3 PUSH0 JUMPDEST DUP12 DUP3 DUP3 LT PUSH2 0x4C10 JUMPI POP POP SWAP2 PUSH1 0x1 SWAP4 SWAP2 DUP11 PUSH1 0xE SWAP10 SWAP11 SWAP12 SWAP5 LT PUSH2 0x4BF8 JUMPI JUMPDEST POP POP POP DUP2 SHL ADD SWAP1 SSTORE PUSH2 0x4AAA JUMP JUMPDEST ADD MLOAD PUSH0 NOT PUSH1 0xF8 DUP5 PUSH1 0x3 SHL AND SHR NOT AND SWAP1 SSTORE PUSH0 DUP1 DUP1 PUSH2 0x4BEB JUMP JUMPDEST PUSH1 0x1 DUP6 SWAP7 DUP3 SWAP4 SWAP7 DUP7 ADD MLOAD DUP2 SSTORE ADD SWAP6 ADD SWAP4 ADD PUSH2 0x4BCF JUMP JUMPDEST DUP3 PUSH0 MSTORE DUP9 PUSH0 KECCAK256 PUSH1 0x1F DUP10 ADD PUSH1 0x5 SHR DUP2 ADD SWAP2 DUP11 DUP11 LT PUSH2 0x4C5F JUMPI JUMPDEST PUSH1 0x1F ADD PUSH1 0x5 SHR ADD SWAP1 JUMPDEST DUP2 DUP2 LT PUSH2 0x4C54 JUMPI POP PUSH2 0x4A79 JUMP JUMPDEST PUSH0 DUP2 SSTORE PUSH1 0x1 ADD PUSH2 0x4C47 JUMP JUMPDEST SWAP1 SWAP2 POP DUP2 SWAP1 PUSH2 0x4C3E JUMP JUMPDEST ADD MLOAD SWAP1 POP PUSH0 DUP1 PUSH2 0x4A37 JUMP JUMPDEST PUSH0 DUP6 DUP2 MSTORE DUP11 DUP2 KECCAK256 SWAP4 POP PUSH1 0x1F NOT DUP6 AND SWAP1 JUMPDEST DUP12 DUP3 DUP3 LT PUSH2 0x4CC1 JUMPI POP POP SWAP1 DUP5 PUSH1 0x1 SWAP6 SWAP5 SWAP4 SWAP3 LT PUSH2 0x4CA9 JUMPI JUMPDEST POP POP POP DUP2 SHL ADD SWAP1 SSTORE PUSH2 0x4A4B JUMP JUMPDEST ADD MLOAD PUSH0 NOT PUSH1 0xF8 DUP5 PUSH1 0x3 SHL AND SHR NOT AND SWAP1 SSTORE PUSH0 DUP1 DUP1 PUSH2 0x4C9C JUMP JUMPDEST PUSH1 0x1 DUP6 SWAP7 DUP3 SWAP4 SWAP7 DUP7 ADD MLOAD DUP2 SSTORE ADD SWAP6 ADD SWAP4 ADD PUSH2 0x4C84 JUMP JUMPDEST SWAP1 SWAP2 POP DUP4 PUSH0 MSTORE DUP9 PUSH0 KECCAK256 PUSH1 0x1F DUP5 ADD PUSH1 0x5 SHR DUP2 ADD SWAP2 DUP11 DUP6 LT PUSH2 0x4D1B JUMPI JUMPDEST SWAP1 PUSH1 0x1F DUP6 SWAP5 SWAP4 SWAP3 ADD PUSH1 0x5 SHR ADD SWAP1 JUMPDEST DUP2 DUP2 LT PUSH2 0x4D0D JUMPI POP PUSH2 0x4A22 JUMP JUMPDEST PUSH0 DUP2 SSTORE DUP5 SWAP4 POP PUSH1 0x1 ADD PUSH2 0x4D00 JUMP JUMPDEST SWAP1 SWAP2 POP DUP2 SWAP1 PUSH2 0x4CF2 JUMP JUMPDEST ADD MLOAD SWAP1 POP PUSH0 DUP1 PUSH2 0x49B7 JUMP JUMPDEST PUSH0 DUP6 DUP2 MSTORE DUP12 DUP2 KECCAK256 SWAP4 POP PUSH1 0x1F NOT DUP6 AND SWAP1 JUMPDEST DUP13 DUP3 DUP3 LT PUSH2 0x4D7D JUMPI POP POP SWAP1 DUP5 PUSH1 0x1 SWAP6 SWAP5 SWAP4 SWAP3 LT PUSH2 0x4D65 JUMPI JUMPDEST POP POP POP DUP2 SHL ADD SWAP1 SSTORE PUSH2 0x49CB JUMP JUMPDEST ADD MLOAD PUSH0 NOT PUSH1 0xF8 DUP5 PUSH1 0x3 SHL AND SHR NOT AND SWAP1 SSTORE PUSH0 DUP1 DUP1 PUSH2 0x4D58 JUMP JUMPDEST PUSH1 0x1 DUP6 SWAP7 DUP3 SWAP4 SWAP7 DUP7 ADD MLOAD DUP2 SSTORE ADD SWAP6 ADD SWAP4 ADD PUSH2 0x4D40 JUMP JUMPDEST SWAP1 SWAP2 POP DUP4 PUSH0 MSTORE DUP10 PUSH0 KECCAK256 PUSH1 0x1F DUP5 ADD PUSH1 0x5 SHR DUP2 ADD SWAP2 DUP12 DUP6 LT PUSH2 0x4DD7 JUMPI JUMPDEST SWAP1 PUSH1 0x1F DUP6 SWAP5 SWAP4 SWAP3 ADD PUSH1 0x5 SHR ADD SWAP1 JUMPDEST DUP2 DUP2 LT PUSH2 0x4DC9 JUMPI POP PUSH2 0x49A2 JUMP JUMPDEST PUSH0 DUP2 SSTORE DUP5 SWAP4 POP PUSH1 0x1 ADD PUSH2 0x4DBC JUMP JUMPDEST SWAP1 SWAP2 POP DUP2 SWAP1 PUSH2 0x4DAE JUMP JUMPDEST ADD MLOAD SWAP1 POP PUSH0 DUP1 PUSH2 0x4960 JUMP JUMPDEST PUSH0 DUP6 DUP2 MSTORE DUP12 DUP2 KECCAK256 SWAP4 POP PUSH1 0x1F NOT DUP6 AND SWAP1 JUMPDEST DUP13 DUP3 DUP3 LT PUSH2 0x4E39 JUMPI POP POP SWAP1 DUP5 PUSH1 0x1 SWAP6 SWAP5 SWAP4 SWAP3 LT PUSH2 0x4E21 JUMPI JUMPDEST POP POP POP DUP2 SHL ADD SWAP1 SSTORE PUSH2 0x4974 JUMP JUMPDEST ADD MLOAD PUSH0 NOT PUSH1 0xF8 DUP5 PUSH1 0x3 SHL AND SHR NOT AND SWAP1 SSTORE PUSH0 DUP1 DUP1 PUSH2 0x4E14 JUMP JUMPDEST PUSH1 0x1 DUP6 SWAP7 DUP3 SWAP4 SWAP7 DUP7 ADD MLOAD DUP2 SSTORE ADD SWAP6 ADD SWAP4 ADD PUSH2 0x4DFC JUMP JUMPDEST SWAP1 SWAP2 POP DUP4 PUSH0 MSTORE DUP10 PUSH0 KECCAK256 PUSH1 0x1F DUP5 ADD PUSH1 0x5 SHR DUP2 ADD SWAP2 DUP12 DUP6 LT PUSH2 0x4E93 JUMPI JUMPDEST SWAP1 PUSH1 0x1F DUP6 SWAP5 SWAP4 SWAP3 ADD PUSH1 0x5 SHR ADD SWAP1 JUMPDEST DUP2 DUP2 LT PUSH2 0x4E85 JUMPI POP PUSH2 0x494B JUMP JUMPDEST PUSH0 DUP2 SSTORE DUP5 SWAP4 POP PUSH1 0x1 ADD PUSH2 0x4E78 JUMP JUMPDEST SWAP1 SWAP2 POP DUP2 SWAP1 PUSH2 0x4E6A JUMP INVALID LOG2 PUSH5 0x6970667358 0x22 SLT KECCAK256 0xBB 0xE1 SWAP13 RETURNDATASIZE 0xE4 0xAB GASPRICE 0xBD STOP 0xF7 MUL COINBASE PUSH17 0x2907154870AB11B761C7B02E6FE507AD6E DUP1 0xEC PUSH5 0x736F6C6343 STOP ADDMOD SHL STOP CALLER "},"methodIdentifiers":{"allCpotbData(uint256)":"f02f5f23","approveCpotb(string,string,string,string,address,string)":"b9e49080","approveExtendCpotb(string,string)":"b0730436","certDetailById(string)":"34a34f30","cpotbDataById(string)":"6aa81299","createCertificateDetails((string,string,address),(string,string,address),string)":"fb5fb9a3","createUserCertificate(string,string,address)":"2e9cf827","dokuAdminById(string)":"7ab09648","dokuReSertifikasiById(string)":"5691acf7","dokuTeknisById(string)":"500619d0","extendCpotb(string,uint256,(string,string,string,string,string,string))":"4ad8f1a4","getAllCpotb()":"5850607c","getAllCpotbByInstance(string)":"81fc60a5","getCertDetail(string)":"9aaa5d8b","getCertDetails(string)":"be2e2325","getCpotbDetails(string)":"70c056b0","getRejectMsg(string)":"6d1aa7d5","getRejectsMsg(string)":"761fb19a","getSenderDetail(string)":"17e68309","rejectCpotb(string,string,string,string,address)":"e462dde5","rejectMsgById(string)":"bf3f80ac","renewRequestCpotb(string,(string,string,string),(string,string))":"e8002b27","requestCpotb(string,string,string,address,uint8,string,(string,string,string),(string,string))":"64b409ff","updateBpomApproveDetails(string,string,(string,string,address))":"f5104ff1","updateBpomApproveExtendCertificateDetails(string,string)":"d26196fd","updateBpomExtendCertificateDetails(string,string)":"f53ef126","updateBpomRejectDetails(string,string,(string,string,address))":"e9c260d7","updateExtendRenewDetails(string,uint256)":"9740dbed","updateRenewDetails(string)":"19859c87"}}}}}