{"contracts/CdobCertificate.sol":{"CdobCertificate":{"abi":[{"inputs":[{"internalType":"uint256","name":"","type":"uint256"}],"name":"allCdobData","outputs":[{"internalType":"string","name":"certId","type":"string"},{"internalType":"string","name":"certNumber","type":"string"},{"internalType":"string","name":"instanceName","type":"string"},{"internalType":"uint8","name":"tipePermohonan","type":"uint8"},{"internalType":"enum EnumsLibrary.StatusCertificate","name":"status","type":"uint8"},{"internalType":"string","name":"certHash","type":"string"},{"internalType":"uint256","name":"expiredTimestamp","type":"uint256"}],"stateMutability":"view","type":"function"},{"inputs":[{"internalType":"string","name":"certNumber","type":"string"},{"internalType":"string","name":"certId","type":"string"},{"internalType":"string","name":"bpomName","type":"string"},{"internalType":"string","name":"bpomInstance","type":"string"},{"internalType":"address","name":"bpomAddr","type":"address"},{"internalType":"string","name":"ipfsCert","type":"string"}],"name":"approveCdob","outputs":[],"stateMutability":"nonpayable","type":"function"},{"inputs":[{"internalType":"string","name":"certId","type":"string"},{"internalType":"string","name":"ipfsCert","type":"string"}],"name":"approveExtendCdob","outputs":[],"stateMutability":"nonpayable","type":"function"},{"inputs":[{"internalType":"string","name":"","type":"string"}],"name":"cdobDataById","outputs":[{"internalType":"string","name":"cdobId","type":"string"},{"internalType":"string","name":"cdobNumber","type":"string"},{"internalType":"uint8","name":"tipePermohonan","type":"uint8"}],"stateMutability":"view","type":"function"},{"inputs":[{"internalType":"string","name":"","type":"string"}],"name":"certDetailById","outputs":[{"internalType":"enum EnumsLibrary.StatusCertificate","name":"status","type":"uint8"},{"internalType":"uint256","name":"timestampRequest","type":"uint256"},{"internalType":"uint256","name":"timestampApprove","type":"uint256"},{"internalType":"uint256","name":"timestampRejected","type":"uint256"},{"internalType":"uint256","name":"timestampRenewRequest","type":"uint256"},{"internalType":"uint256","name":"timestampExpired","type":"uint256"},{"internalType":"uint256","name":"timestampExtendRequest","type":"uint256"},{"internalType":"uint256","name":"timestampExtendApprove","type":"uint256"},{"components":[{"internalType":"string","name":"userName","type":"string"},{"internalType":"string","name":"userInstance","type":"string"},{"internalType":"address","name":"userAddr","type":"address"}],"internalType":"struct BaseCertificate.UserCert","name":"sender","type":"tuple"},{"components":[{"internalType":"string","name":"userName","type":"string"},{"internalType":"string","name":"userInstance","type":"string"},{"internalType":"address","name":"userAddr","type":"address"}],"internalType":"struct BaseCertificate.UserCert","name":"bpom","type":"tuple"},{"internalType":"string","name":"ipfsCert","type":"string"}],"stateMutability":"view","type":"function"},{"inputs":[{"components":[{"internalType":"string","name":"userName","type":"string"},{"internalType":"string","name":"userInstance","type":"string"},{"internalType":"address","name":"userAddr","type":"address"}],"internalType":"struct BaseCertificate.UserCert","name":"senderData","type":"tuple"},{"components":[{"internalType":"string","name":"userName","type":"string"},{"internalType":"string","name":"userInstance","type":"string"},{"internalType":"address","name":"userAddr","type":"address"}],"internalType":"struct BaseCertificate.UserCert","name":"bpomData","type":"tuple"},{"internalType":"string","name":"certId","type":"string"}],"name":"createCertificateDetails","outputs":[],"stateMutability":"nonpayable","type":"function"},{"inputs":[{"internalType":"string","name":"userName","type":"string"},{"internalType":"string","name":"userInstance","type":"string"},{"internalType":"address","name":"userAddr","type":"address"}],"name":"createUserCertificate","outputs":[{"components":[{"internalType":"string","name":"userName","type":"string"},{"internalType":"string","name":"userInstance","type":"string"},{"internalType":"address","name":"userAddr","type":"address"}],"internalType":"struct BaseCertificate.UserCert","name":"","type":"tuple"}],"stateMutability":"pure","type":"function"},{"inputs":[{"internalType":"string","name":"","type":"string"}],"name":"dokuAdminById","outputs":[{"internalType":"string","name":"suratPermohonan","type":"string"},{"internalType":"string","name":"buktiPembayaranPajak","type":"string"}],"stateMutability":"view","type":"function"},{"inputs":[{"internalType":"string","name":"","type":"string"}],"name":"dokuTeknisById","outputs":[{"internalType":"string","name":"suratIzinCdob","type":"string"},{"internalType":"string","name":"denahBangunan","type":"string"},{"internalType":"string","name":"strukturOrganisasi","type":"string"},{"internalType":"string","name":"daftarPersonalia","type":"string"},{"internalType":"string","name":"daftarPeralatan","type":"string"},{"internalType":"string","name":"eksekutifQualityManagement","type":"string"},{"internalType":"string","name":"suratIzinApoteker","type":"string"},{"internalType":"string","name":"dokumenSelfAssesment","type":"string"}],"stateMutability":"view","type":"function"},{"inputs":[{"internalType":"string","name":"certId","type":"string"},{"internalType":"uint256","name":"expTimestamp","type":"uint256"}],"name":"extendCdob","outputs":[],"stateMutability":"nonpayable","type":"function"},{"inputs":[],"name":"getAllCdob","outputs":[{"components":[{"internalType":"string","name":"certId","type":"string"},{"internalType":"string","name":"certNumber","type":"string"},{"internalType":"string","name":"instanceName","type":"string"},{"internalType":"uint8","name":"tipePermohonan","type":"uint8"},{"internalType":"enum EnumsLibrary.StatusCertificate","name":"status","type":"uint8"},{"internalType":"string","name":"certHash","type":"string"},{"internalType":"uint256","name":"expiredTimestamp","type":"uint256"}],"internalType":"struct CdobCertificate.CertificateList[]","name":"","type":"tuple[]"}],"stateMutability":"view","type":"function"},{"inputs":[{"internalType":"string","name":"instanceName","type":"string"}],"name":"getAllCdobByInstance","outputs":[{"components":[{"internalType":"string","name":"certId","type":"string"},{"internalType":"string","name":"certNumber","type":"string"},{"internalType":"string","name":"instanceName","type":"string"},{"internalType":"uint8","name":"tipePermohonan","type":"uint8"},{"internalType":"enum EnumsLibrary.StatusCertificate","name":"status","type":"uint8"},{"internalType":"string","name":"certHash","type":"string"},{"internalType":"uint256","name":"expiredTimestamp","type":"uint256"}],"internalType":"struct CdobCertificate.CertificateList[]","name":"","type":"tuple[]"}],"stateMutability":"view","type":"function"},{"inputs":[{"internalType":"string","name":"certId","type":"string"}],"name":"getCdobDetails","outputs":[{"components":[{"internalType":"string","name":"cdobId","type":"string"},{"internalType":"string","name":"cdobNumber","type":"string"},{"internalType":"uint8","name":"tipePermohonan","type":"uint8"}],"internalType":"struct CdobCertificate.CdobData","name":"","type":"tuple"},{"components":[{"internalType":"string","name":"suratPermohonan","type":"string"},{"internalType":"string","name":"buktiPembayaranPajak","type":"string"}],"internalType":"struct CdobCertificate.DokumenAdministrasi","name":"","type":"tuple"},{"components":[{"internalType":"string","name":"suratIzinCdob","type":"string"},{"internalType":"string","name":"denahBangunan","type":"string"},{"internalType":"string","name":"strukturOrganisasi","type":"string"},{"internalType":"string","name":"daftarPersonalia","type":"string"},{"internalType":"string","name":"daftarPeralatan","type":"string"},{"internalType":"string","name":"eksekutifQualityManagement","type":"string"},{"internalType":"string","name":"suratIzinApoteker","type":"string"},{"internalType":"string","name":"dokumenSelfAssesment","type":"string"}],"internalType":"struct CdobCertificate.DokumenTeknis","name":"","type":"tuple"}],"stateMutability":"view","type":"function"},{"inputs":[{"internalType":"string","name":"certId","type":"string"}],"name":"getCertDetail","outputs":[{"components":[{"internalType":"enum EnumsLibrary.StatusCertificate","name":"status","type":"uint8"},{"internalType":"uint256","name":"timestampRequest","type":"uint256"},{"internalType":"uint256","name":"timestampApprove","type":"uint256"},{"internalType":"uint256","name":"timestampRejected","type":"uint256"},{"internalType":"uint256","name":"timestampRenewRequest","type":"uint256"},{"internalType":"uint256","name":"timestampExpired","type":"uint256"},{"internalType":"uint256","name":"timestampExtendRequest","type":"uint256"},{"internalType":"uint256","name":"timestampExtendApprove","type":"uint256"},{"components":[{"internalType":"string","name":"userName","type":"string"},{"internalType":"string","name":"userInstance","type":"string"},{"internalType":"address","name":"userAddr","type":"address"}],"internalType":"struct BaseCertificate.UserCert","name":"sender","type":"tuple"},{"components":[{"internalType":"string","name":"userName","type":"string"},{"internalType":"string","name":"userInstance","type":"string"},{"internalType":"address","name":"userAddr","type":"address"}],"internalType":"struct BaseCertificate.UserCert","name":"bpom","type":"tuple"},{"internalType":"string","name":"ipfsCert","type":"string"}],"internalType":"struct BaseCertificate.CertificateDetails","name":"","type":"tuple"}],"stateMutability":"view","type":"function"},{"inputs":[{"internalType":"string","name":"certId","type":"string"}],"name":"getCertDetails","outputs":[{"components":[{"internalType":"enum EnumsLibrary.StatusCertificate","name":"status","type":"uint8"},{"internalType":"uint256","name":"timestampRequest","type":"uint256"},{"internalType":"uint256","name":"timestampApprove","type":"uint256"},{"internalType":"uint256","name":"timestampRejected","type":"uint256"},{"internalType":"uint256","name":"timestampRenewRequest","type":"uint256"},{"internalType":"uint256","name":"timestampExpired","type":"uint256"},{"internalType":"uint256","name":"timestampExtendRequest","type":"uint256"},{"internalType":"uint256","name":"timestampExtendApprove","type":"uint256"},{"components":[{"internalType":"string","name":"userName","type":"string"},{"internalType":"string","name":"userInstance","type":"string"},{"internalType":"address","name":"userAddr","type":"address"}],"internalType":"struct BaseCertificate.UserCert","name":"sender","type":"tuple"},{"components":[{"internalType":"string","name":"userName","type":"string"},{"internalType":"string","name":"userInstance","type":"string"},{"internalType":"address","name":"userAddr","type":"address"}],"internalType":"struct BaseCertificate.UserCert","name":"bpom","type":"tuple"},{"internalType":"string","name":"ipfsCert","type":"string"}],"internalType":"struct BaseCertificate.CertificateDetails","name":"","type":"tuple"}],"stateMutability":"view","type":"function"},{"inputs":[{"internalType":"string","name":"certId","type":"string"}],"name":"getRejectMsg","outputs":[{"internalType":"string","name":"","type":"string"}],"stateMutability":"view","type":"function"},{"inputs":[{"internalType":"string","name":"certId","type":"string"}],"name":"getRejectsMsg","outputs":[{"internalType":"string","name":"","type":"string"}],"stateMutability":"view","type":"function"},{"inputs":[{"internalType":"string","name":"certId","type":"string"}],"name":"getSenderDetail","outputs":[{"components":[{"internalType":"string","name":"userName","type":"string"},{"internalType":"string","name":"userInstance","type":"string"},{"internalType":"address","name":"userAddr","type":"address"}],"internalType":"struct BaseCertificate.UserCert","name":"","type":"tuple"}],"stateMutability":"view","type":"function"},{"inputs":[{"internalType":"string","name":"certId","type":"string"},{"internalType":"string","name":"rejectMsg","type":"string"},{"internalType":"string","name":"bpomName","type":"string"},{"internalType":"string","name":"bpomInstance","type":"string"},{"internalType":"address","name":"bpomAddr","type":"address"}],"name":"rejectCdob","outputs":[],"stateMutability":"nonpayable","type":"function"},{"inputs":[{"internalType":"string","name":"","type":"string"}],"name":"rejectMsgById","outputs":[{"internalType":"string","name":"","type":"string"}],"stateMutability":"view","type":"function"},{"inputs":[{"internalType":"string","name":"certId","type":"string"},{"components":[{"internalType":"string","name":"suratPermohonan","type":"string"},{"internalType":"string","name":"buktiPembayaranPajak","type":"string"}],"internalType":"struct CdobCertificate.DokumenAdministrasi","name":"newDokuAdmin","type":"tuple"},{"components":[{"internalType":"string","name":"suratIzinCdob","type":"string"},{"internalType":"string","name":"denahBangunan","type":"string"},{"internalType":"string","name":"strukturOrganisasi","type":"string"},{"internalType":"string","name":"daftarPersonalia","type":"string"},{"internalType":"string","name":"daftarPeralatan","type":"string"},{"internalType":"string","name":"eksekutifQualityManagement","type":"string"},{"internalType":"string","name":"suratIzinApoteker","type":"string"},{"internalType":"string","name":"dokumenSelfAssesment","type":"string"}],"internalType":"struct CdobCertificate.DokumenTeknis","name":"newDokuTeknis","type":"tuple"}],"name":"renewRequestCdob","outputs":[],"stateMutability":"nonpayable","type":"function"},{"inputs":[{"internalType":"string","name":"certId","type":"string"},{"internalType":"string","name":"pbfName","type":"string"},{"internalType":"string","name":"pbfInstance","type":"string"},{"internalType":"address","name":"pbfAddr","type":"address"},{"internalType":"uint8","name":"tipePermohonan","type":"uint8"},{"components":[{"internalType":"string","name":"suratPermohonan","type":"string"},{"internalType":"string","name":"buktiPembayaranPajak","type":"string"}],"internalType":"struct CdobCertificate.DokumenAdministrasi","name":"dokuAdmin","type":"tuple"},{"components":[{"internalType":"string","name":"suratIzinCdob","type":"string"},{"internalType":"string","name":"denahBangunan","type":"string"},{"internalType":"string","name":"strukturOrganisasi","type":"string"},{"internalType":"string","name":"daftarPersonalia","type":"string"},{"internalType":"string","name":"daftarPeralatan","type":"string"},{"internalType":"string","name":"eksekutifQualityManagement","type":"string"},{"internalType":"string","name":"suratIzinApoteker","type":"string"},{"internalType":"string","name":"dokumenSelfAssesment","type":"string"}],"internalType":"struct CdobCertificate.DokumenTeknis","name":"dokuTeknis","type":"tuple"}],"name":"requestCdob","outputs":[],"stateMutability":"nonpayable","type":"function"},{"inputs":[{"internalType":"string","name":"certId","type":"string"},{"internalType":"string","name":"ipfsCert","type":"string"},{"components":[{"internalType":"string","name":"userName","type":"string"},{"internalType":"string","name":"userInstance","type":"string"},{"internalType":"address","name":"userAddr","type":"address"}],"internalType":"struct BaseCertificate.UserCert","name":"bpomData","type":"tuple"}],"name":"updateBpomApproveDetails","outputs":[],"stateMutability":"nonpayable","type":"function"},{"inputs":[{"internalType":"string","name":"certId","type":"string"},{"internalType":"string","name":"ipfsCert","type":"string"}],"name":"updateBpomApproveExtendCertificateDetails","outputs":[],"stateMutability":"nonpayable","type":"function"},{"inputs":[{"internalType":"string","name":"certId","type":"string"},{"internalType":"string","name":"ipfsCert","type":"string"}],"name":"updateBpomExtendCertificateDetails","outputs":[],"stateMutability":"nonpayable","type":"function"},{"inputs":[{"internalType":"string","name":"certId","type":"string"},{"internalType":"string","name":"rejectMsg","type":"string"},{"components":[{"internalType":"string","name":"userName","type":"string"},{"internalType":"string","name":"userInstance","type":"string"},{"internalType":"address","name":"userAddr","type":"address"}],"internalType":"struct BaseCertificate.UserCert","name":"bpomData","type":"tuple"}],"name":"updateBpomRejectDetails","outputs":[],"stateMutability":"nonpayable","type":"function"},{"inputs":[{"internalType":"string","name":"certId","type":"string"},{"internalType":"uint256","name":"expiredTimestamp","type":"uint256"}],"name":"updateExtendRenewDetails","outputs":[],"stateMutability":"nonpayable","type":"function"},{"inputs":[{"internalType":"string","name":"certId","type":"string"}],"name":"updateRenewDetails","outputs":[],"stateMutability":"nonpayable","type":"function"}],"evm":{"bytecode":{"linkReferences":{},"object":"60808060405234601557615006908161001a8239f35b5f80fdfe60806040526004361015610011575f80fd5b5f3560e01c806317e68309146135bc57806319859c87146135845780631acf25001461344b5780632b93f7f214612f9d5780632e9cf82714612f1957806334a34f3014612e0e57806343762aa814612d3a578063500619d014612bfe578063682053d91461185c5780636d1aa7d5146116225780636f12c230146116f957806372c17cb91461165d578063761fb19a146116225780637ab096481461159a5780637e8f8da71461129657806393b73ba2146111ee5780639740dbed146111d75780639aaa5d8b1461119c5780639c6b1f10146110d4578063a7226527146104bb578063be2e23251461046b578063bf3f80ac14610401578063d26196fd146103ea578063e9c260d7146103d3578063f14261d21461035b578063f5104ff114610344578063f53ef126146101cc5763fb5fb9a31461014d575f80fd5b346101c85760603660031901126101c8576004356001600160401b0381116101c85761017d903690600401613c75565b6024356001600160401b0381116101c85761019c903690600401613c75565b90604435916001600160401b0383116101c8576101c06101c69336906004016136c7565b91614981565b005b5f80fd5b346101c8576020806101dd36613c2b565b9290604051928184925191829101835e81015f815203019020426002820155608242019081421161033057600e916005820155600660ff198254161781550181516001600160401b03811161031c576102368254613794565b601f81116102d7575b50602092601f821160011461027b57928192935f92610270575b50505f19600383901b1c191660019190911b179055005b015190508380610259565b601f19821693835f52805f20915f5b8681106102bf57508360019596106102a7575b505050811b019055005b01515f1960f88460031b161c1916905583808061029d565b9192602060018192868501518155019401920161028a565b825f5260205f20601f830160051c81019160208410610312575b601f0160051c01905b818110610307575061023f565b5f81556001016102fa565b90915081906102f1565b634e487b7160e01b5f52604160045260245ffd5b634e487b7160e01b5f52601160045260245ffd5b346101c8576101c661035536613ced565b91614613565b346101c8575f3660031901126101c85760025461037781613e94565b905f805b82821061039457604051806103908682613a7a565b0390f35b6103cb6001916103c56103af6103a9866138b8565b50613f25565b60ff8316906103be828a613f11565b5287613f11565b50613e6c565b91019061037b565b346101c8576101c66103e436613ced565b91614276565b346101c8576101c66103fb36613c2b565b90614133565b346101c85760203660031901126101c8576004356001600160401b0381116101c85761045760208061043a6103909436906004016136c7565b604051928184925191829101835e810160018152030190206137cc565b60405191829160208352602083019061371c565b346101c85760203660031901126101c8576004356001600160401b0381116101c8576104af6104a16103909236906004016136c7565b6104a9614017565b50614076565b60405191829182613b7b565b346101c85760603660031901126101c8576004356001600160401b0381116101c8576104eb9036906004016136c7565b6024356001600160401b0381116101c85761050a9036906004016138e8565b906044356001600160401b0381116101c85761052a903690600401613947565b61053382613d75565b6002549160208101905f5b84811061054757005b610550816138b8565b5060405161057481610566602082018095613da3565b03601f1981018352826136a6565b51902060405160208101906105a16020828751808a875e81015f838201520301601f1981018352826136a6565b519020146105b2575b60010161053e565b60036105bd826138b8565b5001805461ff0019166103001790556105e760206105da836138b8565b5060405192838092613da3565b600481520301902086518051906001600160401b03821161031c5761060c8354613794565b601f811161108f575b50602090601f83116001146110295760019392915f918361101e575b50505f19600383901b1c191690831b1781555b0160208701518051906001600160401b03821161031c5781906106678454613794565b601f8111610fce575b50602090601f8311600114610f6b575f92610f60575b50508160011b915f199060031b1c19161790555b6106a860206105da836138b8565b600581520301902084518051906001600160401b03821161031c5781906106cf8454613794565b601f8111610f10575b50602090601f8311600114610ead575f92610ea2575b50508160011b915f199060031b1c19161781555b6001810160208601518051906001600160401b03821161031c5781906107288454613794565b601f8111610e52575b50602090601f8311600114610def575f92610de4575b50508160011b915f199060031b1c19161790555b6002810160408601518051906001600160401b03821161031c5781906107818454613794565b601f8111610d94575b50602090601f8311600114610d31575f92610d26575b50508160011b915f199060031b1c19161790555b6003810160608601518051906001600160401b03821161031c5781906107da8454613794565b601f8111610cd6575b50602090601f8311600114610c73575f92610c68575b50508160011b915f199060031b1c19161790555b6004810160808601518051906001600160401b03821161031c5781906108338454613794565b601f8111610c18575b50602090601f8311600114610bb5575f92610baa575b50508160011b915f199060031b1c19161790555b6005810160a08601518051906001600160401b03821161031c57819061088c8454613794565b601f8111610b5a575b50602090601f8311600114610af7575f92610aec575b50508160011b915f199060031b1c19161790555b6006810160c08601518051906001600160401b03821161031c576108e38354613794565b601f8111610aa7575b50602090601f8311600114610a40576007949392915f9183610a35575b50508160011b915f199060031b1c19161790555b0160e08501518051906001600160401b03821161031c5761093e8354613794565b601f81116109f0575b50602090601f8311600114610989576001949392915f918361097e575b50505f19600383901b1c191690841b1790555b90506105aa565b015190508a80610964565b90601f19831691845f52815f20925f5b8181106109d85750916001969594929183889593106109c0575b505050811b019055610977565b01515f1960f88460031b161c191690558a80806109b3565b92936020600181928786015181550195019301610999565b835f5260205f20601f840160051c81019160208510610a2b575b601f0160051c01905b818110610a205750610947565b5f8155600101610a13565b9091508190610a0a565b015190508b80610909565b90601f19831691845f52815f20925f5b818110610a8f575091600193918560079897969410610a77575b505050811b01905561091d565b01515f1960f88460031b161c191690558b8080610a6a565b92936020600181928786015181550195019301610a50565b835f5260205f20601f840160051c81019160208510610ae2575b601f0160051c01905b818110610ad757506108ec565b5f8155600101610aca565b9091508190610ac1565b015190508a806108ab565b5f8581528281209350601f198516905b818110610b425750908460019594939210610b2a575b505050811b0190556108bf565b01515f1960f88460031b161c191690558a8080610b1d565b92936020600181928786015181550195019301610b07565b909150835f5260205f20601f840160051c81019160208510610ba0575b90601f859493920160051c01905b818110610b925750610895565b5f8155849350600101610b85565b9091508190610b77565b015190508a80610852565b5f8581528281209350601f198516905b818110610c005750908460019594939210610be8575b505050811b019055610866565b01515f1960f88460031b161c191690558a8080610bdb565b92936020600181928786015181550195019301610bc5565b909150835f5260205f20601f840160051c81019160208510610c5e575b90601f859493920160051c01905b818110610c50575061083c565b5f8155849350600101610c43565b9091508190610c35565b015190508a806107f9565b5f8581528281209350601f198516905b818110610cbe5750908460019594939210610ca6575b505050811b01905561080d565b01515f1960f88460031b161c191690558a8080610c99565b92936020600181928786015181550195019301610c83565b909150835f5260205f20601f840160051c81019160208510610d1c575b90601f859493920160051c01905b818110610d0e57506107e3565b5f8155849350600101610d01565b9091508190610cf3565b015190508a806107a0565b5f8581528281209350601f198516905b818110610d7c5750908460019594939210610d64575b505050811b0190556107b4565b01515f1960f88460031b161c191690558a8080610d57565b92936020600181928786015181550195019301610d41565b909150835f5260205f20601f840160051c81019160208510610dda575b90601f859493920160051c01905b818110610dcc575061078a565b5f8155849350600101610dbf565b9091508190610db1565b015190508a80610747565b5f8581528281209350601f198516905b818110610e3a5750908460019594939210610e22575b505050811b01905561075b565b01515f1960f88460031b161c191690558a8080610e15565b92936020600181928786015181550195019301610dff565b909150835f5260205f20601f840160051c81019160208510610e98575b90601f859493920160051c01905b818110610e8a5750610731565b5f8155849350600101610e7d565b9091508190610e6f565b0151905089806106ee565b5f8581528281209350601f198516905b818110610ef85750908460019594939210610ee0575b505050811b018155610702565b01515f1960f88460031b161c19169055898080610ed3565b92936020600181928786015181550195019301610ebd565b909150835f5260205f20601f840160051c81019160208510610f56575b90601f859493920160051c01905b818110610f4857506106d8565b5f8155849350600101610f3b565b9091508190610f2d565b015190508980610686565b5f8581528281209350601f198516905b818110610fb65750908460019594939210610f9e575b505050811b01905561069a565b01515f1960f88460031b161c19169055898080610f91565b92936020600181928786015181550195019301610f7b565b909150835f5260205f20601f840160051c81019160208510611014575b90601f859493920160051c01905b8181106110065750610670565b5f8155849350600101610ff9565b9091508190610feb565b015190508a80610631565b90601f19831691845f52815f20925f5b818110611077575091600195949291838795931061105f575b505050811b018155610644565b01515f1960f88460031b161c191690558a8080611052565b92936020600181928786015181550195019301611039565b835f5260205f20601f840160051c810191602085106110ca575b601f0160051c01905b8181106110bf5750610615565b5f81556001016110b2565b90915081906110a9565b346101c8576110ed6110e536613c2b565b819291614133565b6002549060208101905f5b83811061110157005b61110a816138b8565b5060405161112081610566602082018095613da3565b519020604051602081019061114d6020828751808a875e81015f838201520301601f1981018352826136a6565b5190201461115e575b6001016110f8565b6003611169826138b8565b500161060061ff00198254161790556082420190814211610330576001916005611192836138b8565b5001559050611156565b346101c85760203660031901126101c8576004356001600160401b0381116101c8576104af6111d26103909236906004016136c7565b614076565b346101c8576101c66111e836613b4a565b90613f9c565b346101c8576112076111ff36613b4a565b819291613f9c565b600254602082015f5b82811061121957005b806112256001926138b8565b5060405161123b81610566602082018095613da3565b51902060405160208101906112686020828a51808a875e81015f838201520301601f1981018352826136a6565b51902014611277575b01611210565b6003611282826138b8565b5001805461ff001916610500179055611271565b346101c85760203660031901126101c8576004356001600160401b0381116101c8576112c69036906004016136c7565b6112ce613d55565b506040516112db81613653565b60608152602001606090526040516112f28161366e565b60608152602081016060905260408101606090526060810160609052608081016060905260a081016060905260c081016060905260e00160609052604051908051918060208301938085835e810160038152036020019020916040518083518084835e81016004815203602001902091604051918291518091835e810160058152036020019020604051916113868361361d565b61138f846137cc565b835261139d600185016137cc565b93602084019485526002015460ff169160408401928352604051916113c183613653565b6113ca816137cc565b83526001016113d8906137cc565b60208301908152604051936113ec8561366e565b6113f5836137cc565b8552611403600184016137cc565b60208601908152611416600285016137cc565b60408701908152611429600386016137cc565b606088019081529161143d600487016137cc565b6080890190815293611451600588016137cc565b60a08a0190815295611465600689016137cc565b9760c08b01988952600701611479906137cc565b9860e08b01998a526040519c8d9c60608e52518d606081016060905260c0016114a19161371c565b90518d8203605f190160808f01526114b9919061371c565b925160ff1660a08d01528b830360208d01525160408352604083016114dd9161371c565b90519180820390602001526114f19161371c565b9789890360408b0152516101008952610100890161150e9161371c565b90519088810360208a01526115229161371c565b90519087810360408901526115369161371c565b905190868103606088015261154a9161371c565b905190858103608087015261155e9161371c565b90519084810360a08601526115729161371c565b90519083810360c08501526115869161371c565b9051918082039060e001526103909161371c565b346101c85760203660031901126101c8576004356001600160401b0381116101c8576020806115d06116149336906004016136c7565b604051928184925191829101835e8101600481520301902061039061160060016115f9846137cc565b93016137cc565b60405193849360408552604085019061371c565b90838203602085015261371c565b346101c85760203660031901126101c8576004356001600160401b0381116101c8576104576116586103909236906004016136c7565b613e49565b346101c85760203660031901126101c8576004356001600160401b0381116101c8576020806116936116e19336906004016136c7565b604051928184925191829101835e810160038152030190206116b4816137cc565b906116ef60ff60026116c8600185016137cc565b930154169160405194859460608652606086019061371c565b90848203602086015261371c565b9060408301520390f35b346101c85760203660031901126101c8576004356001600160401b0381116101c8576117299036906004016136c7565b60025460208201915f805b8381106117f9575060ff6117489116613e94565b925f915f5b84811061176257604051806103908882613a7a565b6002610566611787611773846138b8565b506040519283916020830195869101613da3565b51902060405160208101906117b46020828751808a875e81015f838201520301601f1981018352826136a6565b519020146117c5575b60010161174d565b926117f16001916103c56117db6103a9886138b8565b60ff8316906117ea828c613f11565b5289613f11565b9390506117bd565b600261056661180a611773846138b8565b51902060405160208101906118376020828851808c875e81015f838201520301601f1981018352826136a6565b51902014611848575b600101611734565b90611854600191613e6c565b919050611840565b346101c85760e03660031901126101c8576004356001600160401b0381116101c85761188c9036906004016136c7565b6024356001600160401b0381116101c8576118ab9036906004016136c7565b6044356001600160401b0381116101c8576118ca9036906004016136c7565b916064356001600160a01b03811681036101c8576084359360ff85168095036101c85760a4356001600160401b0381116101c85761190c9036906004016138e8565b9160c435906001600160401b0382116101c85782611931611937933690600401613947565b96613e0d565b94611987846020976040519061194d8a836136a6565b5f825260405161195d8b826136a6565b5f8152611968613d55565b50604051926119768461361d565b83528a8301525f6040830152614981565b6040516119938161361d565b8481526040516119a388826136a6565b5f815287820190815260408201908382526040518981895180838c01835e8101600381520301902092518051906001600160401b03821161031c5781906119ea8654613794565b601f8111612bb0575b508b90601f8311600114612b4b575f92612b40575b50508160011b915f199060031b1c19161783555b51805160018401916001600160401b03821161031c57611a3c8354613794565b601f8111612afd575b508a90601f8311600114612a9057928260ff95929386946002965f92612a85575b50508160011b915f199060031b1c19161790555b51169201911660ff1982541617905560405190611a9682613638565b84825260405192611aa788856136a6565b5f8452878301938452604083015260608201525f6080820152604051611acd87826136a6565b5f815260a08201525f60c08201526002546801000000000000000081101561031c57806001611aff92016002556138b8565b929092612a725781518051906001600160401b03821161031c578190611b258654613794565b601f8111612a24575b508990601f83116001146129c1575f926129b6575b50508160011b915f199060031b1c19161783555b518051906001600160401b03821161031c578190611b786001860154613794565b601f8111612965575b508890601f83116001146128fb575f926128f0575b50508160011b915f199060031b1c19161760018301555b6002820160408201518051906001600160401b03821161031c578190611bd38454613794565b601f81116128a2575b508990601f831160011461283f575f92612834575b50508160011b915f199060031b1c19161790555b6003820160ff806060840151161660ff19825416178155608082015160078110156128205761ff0082549160081b169061ff0019161790556004820160a08201518051906001600160401b03821161031c57611c618354613794565b601f81116127dd575b508890601f831160011461277457918060c09492600596945f92612769575b50508160011b915f199060031b1c19161790555b01519101556040518481845180838701835e8101600481520301902081519081516001600160401b03811161031c578692611cd88354613794565b601f8111612717575b508390601f83116001146126b15760019392915f91836126a6575b50505f19600383901b1c191690831b1781555b01910151918251916001600160401b03831161031c578592611d318254613794565b94601f861161264f575b8495508490601f83116001146125e8575f9190836125dd575b50508160011b915f199060031b1c19161790555b604051928184925191829101835e810160058152030190209080519182516001600160401b03811161031c57611d9e8254613794565b601f811161259a575b508493601f821160011461253a5793819293945f9261252f575b50508160011b915f199060031b1c19161781555b60018101838301518051906001600160401b03821161031c578190611dfa8454613794565b601f81116124e1575b508690601f831160011461247e575f92612473575b50508160011b915f199060031b1c19161790555b6002810160408301518051906001600160401b03821161031c578190611e528454613794565b601f8111612425575b508690601f83116001146123c2575f926123b7575b50508160011b915f199060031b1c19161790555b6003810160608301518051906001600160401b03821161031c578190611eaa8454613794565b601f8111612369575b508690601f8311600114612306575f926122fb575b50508160011b915f199060031b1c19161790555b6004810160808301518051906001600160401b03821161031c578190611f028454613794565b601f81116122ad575b508690601f831160011461224a575f9261223f575b50508160011b915f199060031b1c19161790555b6005810160a08301518051906001600160401b03821161031c578190611f5a8454613794565b601f81116121f1575b508690601f831160011461218e575f92612183575b50508160011b915f199060031b1c19161790555b6006810160c08301518051906001600160401b03821161031c57611fb08354613794565b601f8111612140575b508590601f83116001146120d75791806007949260e096945f926120cc575b50508160011b915f199060031b1c19161790555b01910151918251906001600160401b03821161031c5761200c8354613794565b601f8111612089575b5080601f831160011461204357508192935f926102705750505f19600383901b1c191660019190911b179055005b90601f19831694845f52825f20925f905b8782106120715750508360019596106102a757505050811b019055005b80600185968294968601518155019501930190612054565b835f52815f20601f840160051c8101918385106120c2575b601f0160051c01905b8181106120b75750612015565b5f81556001016120aa565b90915081906120a1565b015190508880611fd8565b90601f19831691845f52875f20925f5b8982821061212a57505092600192859260e098966007989610612112575b505050811b019055611fec565b01515f1960f88460031b161c19169055888080612105565b60018596829396860151815501950193016120e7565b835f52865f20601f840160051c810191888510612179575b601f0160051c01905b81811061216e5750611fb9565b5f8155600101612161565b9091508190612158565b015190508680611f78565b5f8581528881209350601f198516905b898282106121db5750509084600195949392106121c3575b505050811b019055611f8c565b01515f1960f88460031b161c191690558680806121b6565b600185968293968601518155019501930161219e565b909150835f52865f20601f840160051c810191888510612235575b90601f859493920160051c01905b8181106122275750611f63565b5f815584935060010161221a565b909150819061220c565b015190508680611f20565b5f8581528881209350601f198516905b8982821061229757505090846001959493921061227f575b505050811b019055611f34565b01515f1960f88460031b161c19169055868080612272565b600185968293968601518155019501930161225a565b909150835f52865f20601f840160051c8101918885106122f1575b90601f859493920160051c01905b8181106122e35750611f0b565b5f81558493506001016122d6565b90915081906122c8565b015190508680611ec8565b5f8581528881209350601f198516905b8982821061235357505090846001959493921061233b575b505050811b019055611edc565b01515f1960f88460031b161c1916905586808061232e565b6001859682939686015181550195019301612316565b909150835f52865f20601f840160051c8101918885106123ad575b90601f859493920160051c01905b81811061239f5750611eb3565b5f8155849350600101612392565b9091508190612384565b015190508680611e70565b5f8581528881209350601f198516905b8982821061240f5750509084600195949392106123f7575b505050811b019055611e84565b01515f1960f88460031b161c191690558680806123ea565b60018596829396860151815501950193016123d2565b909150835f52865f20601f840160051c810191888510612469575b90601f859493920160051c01905b81811061245b5750611e5b565b5f815584935060010161244e565b9091508190612440565b015190508680611e18565b5f8581528881209350601f198516905b898282106124cb5750509084600195949392106124b3575b505050811b019055611e2c565b01515f1960f88460031b161c191690558680806124a6565b600185968293968601518155019501930161248e565b909150835f52865f20601f840160051c810191888510612525575b90601f859493920160051c01905b8181106125175750611e03565b5f815584935060010161250a565b90915081906124fc565b015190508580611dc1565b601f19821694835f52865f20915f5b888882106125845750508360019596971061256c575b505050811b018155611dd5565b01515f1960f88460031b161c1916905585808061255f565b6001849582939585015181550194019201612549565b825f52855f20601f830160051c8101918784106125d3575b601f0160051c01905b8181106125c85750611da7565b5f81556001016125bb565b90915081906125b2565b015190508880611d54565b601f95949392919519821695835f52855f20915f5b8881106126375750836001959697981061261f575b505050811b019055611d68565b01515f1960f88460031b161c19169055888080612612565b828201518455899760019094019392830192016125fd565b918094505f9591939552865f20601f840160051c81019188851061269c575b90601f899694979593920160051c01905b81811061268e57505084611d3b565b5f815588955060010161267f565b909150819061266e565b015190508980611cfc565b90601f19831691845f52855f20925f5b878282106127015750509160019594929183879593106126e9575b505050811b018155611d0f565b01515f1960f88460031b161c191690558980806126dc565b60018596829396860151815501950193016126c1565b9091928094505f52875f20601f840160051c81019189851061275f575b90601f8a96959493920160051c01905b8181106127515750611ce1565b5f8155899550600101612744565b9091508190612734565b015190508b80611c89565b90601f19831691845f528a5f20925f5b8c8282106127c75750509260019285926005989660c09896106127af575b505050811b019055611c9d565b01515f1960f88460031b161c191690558b80806127a2565b6001859682939686015181550195019301612784565b835f52895f20601f840160051c8101918b8510612816575b601f0160051c01905b81811061280b5750611c6a565b5f81556001016127fe565b90915081906127f5565b634e487b7160e01b5f52602160045260245ffd5b015190508980611bf1565b5f8581528b81209350601f198516905b8c82821061288c575050908460019594939210612874575b505050811b019055611c05565b01515f1960f88460031b161c19169055898080612867565b600185968293968601518155019501930161284f565b909150835f52895f20601f840160051c8101918b85106128e6575b90601f859493920160051c01905b8181106128d85750611bdc565b5f81558493506001016128cb565b90915081906128bd565b015190508880611b96565b600186015f9081528a81209350601f198516905b8b82821061294f575050908460019594939210612937575b505050811b016001830155611bad565b01515f1960f88460031b161c19169055888080612927565b600185968293968601518155019501930161290f565b909150600185015f52885f20601f840160051c8101918a85106129ac575b90601f859493920160051c01905b81811061299e5750611b81565b5f8155849350600101612991565b9091508190612983565b015190508980611b43565b5f8781528b81209350601f198516905b8c828210612a0e5750509084600195949392106129f6575b505050811b018355611b57565b01515f1960f88460031b161c191690558980806129e9565b60018596829396860151815501950193016129d1565b909150855f52895f20601f840160051c8101918b8510612a68575b90601f859493920160051c01905b818110612a5a5750611b2e565b5f8155849350600101612a4d565b9091508190612a3f565b634e487b7160e01b5f525f60045260245ffd5b015190508e80611a66565b5f8481528c8120929190601f198516908e5b828210612ae55750509360ff969360029693600193838a9810612acd575b505050811b019055611a7a565b01515f1960f88460031b161c191690558e8080612ac0565b80600186978294978701518155019601940190612aa2565b835f528b5f20601f840160051c8101918d8510612b36575b601f0160051c01905b818110612b2b5750611a45565b5f8155600101612b1e565b9091508190612b15565b015190508b80611a08565b5f8781528d81209350601f198516908e5b828210612b98575050908460019594939210612b80575b505050811b018355611a1c565b01515f1960f88460031b161c191690558b8080612b73565b80600186978294978701518155019601940190612b5c565b909150855f528b5f20601f840160051c8101918d8510612bf4575b90601f859493920160051c01905b818110612be657506119f3565b5f8155849350600101612bd9565b9091508190612bcb565b346101c85760203660031901126101c8576004356001600160401b0381116101c857612c2e9036906004016136c7565b604051818192516020819201835e810160058152036020019020612c51816137cc565b612c5d600183016137cc565b91612c6a600282016137cc565b90612c77600382016137cc565b612c83600483016137cc565b612c8f600584016137cc565b91612c9c600685016137cc565b93600701612ca9906137cc565b9460405197889761010089526101008901612cc39161371c565b88810360208a0152612cd49161371c565b8781036040890152612ce59161371c565b8681036060880152612cf69161371c565b8581036080870152612d079161371c565b84810360a0860152612d189161371c565b83810360c0850152612d299161371c565b82810360e08401526103909161371c565b346101c85760203660031901126101c8576004356002548110156101c857612d64612dc1916138b8565b50612d6e816137cc565b90612e04612d7e600183016137cc565b91612d8b600282016137cc565b90612df7612ddd600383015493612dcf6005612da9600487016137cc565b950154976040519a8b9a60e08c5260e08c019061371c565b908a820360208c015261371c565b9088820360408a015261371c565b9260ff8116606088015260ff608088019160081c166138ab565b84820360a086015261371c565b9060c08301520390f35b346101c85760203660031901126101c8576004356001600160401b0381116101c857612e3e9036906004016136c7565b604051818192516020819201835e81015f8152036020019020805460ff1660018201549160028101549060038101546004820154600583015460068401549060078501549260088601612e909061386c565b94612e9d600b880161386c565b96600e01612eaa906137cc565b976040519a612eba8c809c6138ab565b60208b015260408a01526060890152608088015260a087015260c086015260e0850152610100840161016090526101608401612ef591613740565b838103610120850152612f0791613740565b8281036101408401526103909161371c565b346101c85760603660031901126101c8576004356001600160401b0381116101c857612f499036906004016136c7565b6024356001600160401b0381116101c857612f689036906004016136c7565b906044356001600160a01b03811681036101c85761039092612f8992613e0d565b604051918291602083526020830190613740565b346101c85760c03660031901126101c8576004356001600160401b0381116101c857612fcd9036906004016136c7565b6024356001600160401b0381116101c857612fec9036906004016136c7565b6044356001600160401b0381116101c85761300b9036906004016136c7565b6064356001600160401b0381116101c85761302a9036906004016136c7565b61303261377e565b60a435916001600160401b0383116101c85761305561305b9336906004016136c7565b93613e0d565b604051906001845192602081818801958087835e810160038152030190200185516001600160401b03811161031c576130948254613794565b601f8111613406575b506020601f821160011461339f5790806130d49493925f91613394575b508160011b915f199060031b1c19161790555b8385614613565b600254925f5b8481106130e357005b6130ec816138b8565b5060405161310281610566602082018095613da3565b519020604051602081019061312f6020828751808a875e81015f838201520301601f1981018352826136a6565b51902014613140575b6001016130da565b600161314b826138b8565b500186516001600160401b03811161031c576131678254613794565b601f811161334f575b50806020601f82116001146132ec575f916132e1575b508160011b915f199060031b1c19161790555b60036131a4826138b8565b5001805461ff00191661010017905560046131be826138b8565b500184516001600160401b03811161031c576131da8254613794565b601f811161329c575b50806020601f821160011461323b575f91613230575b508160011b915f199060031b1c19161790555b6082420190814211610330576001916005613226836138b8565b5001559050613138565b9050860151896131f9565b5f8481528181209250601f198416905b8181106132845750908360019493921061326c575b5050811b01905561320c565b8801515f1960f88460031b161c191690558980613260565b9192602060018192868d01518155019401920161324b565b825f5260205f20601f830160051c810191602084106132d7575b601f0160051c01905b8181106132cc57506131e3565b5f81556001016132bf565b90915081906132b6565b905088015189613186565b5f8481528181209250601f198416905b8b828210613337575050908360019493921061331f575b5050811b019055613199565b8a01515f1960f88460031b161c191690558980613313565b600184956020939584930151815501940192016132fc565b825f5260205f20601f830160051c8101916020841061338a575b601f0160051c01905b81811061337f5750613170565b5f8155600101613372565b9091508190613369565b9050880151896130ba565b601f19821690835f52805f20915f5b8a8282106133ee5750509183916130d4969594600194106133d6575b5050811b0190556130cd565b8a01515f1960f88460031b161c1916905589806133ca565b600184956020939584930151815501940192016133ae565b825f5260205f20601f830160051c81019160208410613441575b601f0160051c01905b818110613436575061309d565b5f8155600101613429565b9091508190613420565b346101c85760a03660031901126101c8576004356001600160401b0381116101c85761347b9036906004016136c7565b6024356001600160401b0381116101c85761349a9036906004016136c7565b6044356001600160401b0381116101c8576134b99036906004016136c7565b906064356001600160401b0381116101c8576134f5926134e06134ee9236906004016136c7565b6134e861377e565b91613e0d565b9083614276565b600254602082015f5b82811061350757005b806135136001926138b8565b5060405161352981610566602082018095613da3565b51902060405160208101906135566020828a51808a875e81015f838201520301601f1981018352826136a6565b51902014613565575b016134fe565b6003613570826138b8565b5001805461ff00191661020017905561355f565b346101c85760203660031901126101c8576004356001600160401b0381116101c8576135b76101c69136906004016136c7565b613d75565b346101c85760203660031901126101c8576004356001600160401b0381116101c857612f8960086020806135f76103909536906004016136c7565b6135ff613d55565b50604051928184925191829101835e81015f8152030190200161386c565b606081019081106001600160401b0382111761031c57604052565b60e081019081106001600160401b0382111761031c57604052565b604081019081106001600160401b0382111761031c57604052565b61010081019081106001600160401b0382111761031c57604052565b61016081019081106001600160401b0382111761031c57604052565b90601f801991011681019081106001600160401b0382111761031c57604052565b81601f820112156101c8578035906001600160401b03821161031c57604051926136fb601f8401601f1916602001856136a6565b828452602083830101116101c857815f926020809301838601378301015290565b805180835260209291819084018484015e5f828201840152601f01601f1916010190565b90604061376b613759845160608552606085019061371c565b6020850151848203602086015261371c565b928101516001600160a01b031691015290565b608435906001600160a01b03821682036101c857565b90600182811c921680156137c2575b60208310146137ae57565b634e487b7160e01b5f52602260045260245ffd5b91607f16916137a3565b9060405191825f8254926137df84613794565b808452936001811690811561384a5750600114613806575b50613804925003836136a6565b565b90505f9291925260205f20905f915b81831061382e575050906020613804928201015f6137f7565b6020919350806001915483858901015201910190918492613815565b90506020925061380494915060ff191682840152151560051b8201015f6137f7565b906040516138798161361d565b60408193613886816137cc565b8352613894600182016137cc565b6020840152600201546001600160a01b0316910152565b9060078210156128205752565b6002548110156138d45760025f52600660205f20910201905f90565b634e487b7160e01b5f52603260045260245ffd5b91906040838203126101c8576040519061390182613653565b819380356001600160401b0381116101c8578261391f9183016136c7565b83526020810135916001600160401b0383116101c85760209261394292016136c7565b910152565b9190610100838203126101c857604051906139618261366e565b819380356001600160401b0381116101c8578261397f9183016136c7565b835260208101356001600160401b0381116101c857826139a09183016136c7565b602084015260408101356001600160401b0381116101c857826139c49183016136c7565b604084015260608101356001600160401b0381116101c857826139e89183016136c7565b606084015260808101356001600160401b0381116101c85782613a0c9183016136c7565b608084015260a08101356001600160401b0381116101c85782613a309183016136c7565b60a084015260c08101356001600160401b0381116101c85782613a549183016136c7565b60c084015260e0810135916001600160401b0383116101c85760e09261394292016136c7565b602081016020825282518091526040820191602060408360051b8301019401925f915b838310613aac57505050505090565b9091929394602080600192603f1985820301865288519060c080613b35613b04613af2613ae2875160e0885260e088019061371c565b888801518782038a89015261371c565b6040870151868203604088015261371c565b60ff6060870151166060860152613b23608087015160808701906138ab565b60a086015185820360a087015261371c565b93015191015297019301930191939290613a9d565b60406003198201126101c857600435906001600160401b0382116101c857613b74916004016136c7565b9060243590565b90613c289160208152613b926020820183516138ab565b602082015160408201526040820151606082015260608201516080820152608082015160a082015260a082015160c082015260c082015160e082015260e0820151610100820152610140613c12613bfc610100850151610160610120860152610180850190613740565b610120850151848203601f190184860152613740565b92015190610160601f198285030191015261371c565b90565b9060406003198301126101c8576004356001600160401b0381116101c85782613c56916004016136c7565b91602435906001600160401b0382116101c857613c28916004016136c7565b91906060838203126101c85760405190613c8e8261361d565b819380356001600160401b0381116101c85782613cac9183016136c7565b835260208101356001600160401b0381116101c857604092613ccf9183016136c7565b60208401520135906001600160a01b03821682036101c85760400152565b60606003198201126101c8576004356001600160401b0381116101c85781613d17916004016136c7565b916024356001600160401b0381116101c85782613d36916004016136c7565b91604435906001600160401b0382116101c857613c2891600401613c75565b60405190613d628261361d565b5f60408360608152606060208201520152565b60208091604051928184925191829101835e81015f815203019020426004820155600360ff19825416179055565b5f9291815491613db283613794565b9260018116908115613dfa5750600114613dcb57505050565b90919293505f5260205f205f905b838210613de65750500190565b600181602092548486015201910190613dd9565b60ff191683525050811515909102019150565b9190613e17613d55565b5060405192613e258461361d565b835260208301526001600160a01b0316604082015290565b60078210156128205752565b6040518151613c2892602091839181908401835e810160018152030190206137cc565b60ff1660ff81146103305760010190565b6001600160401b03811161031c5760051b60200190565b90613e9e82613e7d565b613eab60405191826136a6565b8281528092613ebc601f1991613e7d565b01905f5b828110613ecc57505050565b602090604051613edb81613638565b60608152606083820152606060408201525f60608201525f6080820152606060a08201525f60c082015282828501015201613ec0565b80518210156138d45760209160051b010190565b90604051613f3281613638565b60c060058294613f41816137cc565b8452613f4f600182016137cc565b6020850152613f60600282016137cc565b6040850152613f8460ff6003830154818116606088015260081c1660808601613e3d565b613f90600482016137cc565b60a08501520154910152565b90421115613fd25760208091604051928184925191829101835e81015f815203019020426006820155600560ff19825416179055565b60405162461bcd60e51b815260206004820152601860248201527f536572746966696b6174206d61736968206265726c616b7500000000000000006044820152606490fd5b604051906140248261368a565b6060610140835f81525f60208201525f60408201525f838201525f60808201525f60a08201525f60c08201525f60e082015261405e613d55565b61010082015261406c613d55565b6101208201520152565b60208091614082614017565b50604051928184925191829101835e81015f81520301902061412a600e604051926140ac8461368a565b6140ba60ff82541685613e3d565b60018101546020850152600281015460408501526003810154606085015260048101546080850152600581015460a0850152600681015460c0850152600781015460e085015261410c6008820161386c565b61010085015261411e600b820161386c565b610120850152016137cc565b61014082015290565b60208091939293604051928184925191829101835e81015f815203019020426007820155608242019081421161033057600e916005820155600660ff198254161781550182516001600160401b03811161031c576141918254613794565b601f8111614231575b506020601f82116001146141d357819293945f926141c8575b50508160011b915f199060031b1c1916179055565b015190505f806141b3565b601f19821690835f52805f20915f5b81811061421957509583600195969710614201575b505050811b019055565b01515f1960f88460031b161c191690555f80806141f7565b9192602060018192868b0151815501940192016141e2565b825f5260205f20601f830160051c8101916020841061426c575b601f0160051c01905b818110614261575061419a565b5f8155600101614254565b909150819061424b565b92919060405160208551918181818901948086835e81015f81520301902095604051928391518091835e81016001815203019020908051906001600160401b03821161031c5781906142c88454613794565b601f81116145c3575b50602090601f8311600114614560575f92614555575b50508160011b915f199060031b1c19161790555b80518051600b8501916001600160401b03821161031c5761431c8354613794565b601f8111614510575b50602090601f83116001146144a9576020949392915f918361449e575b50508160011b915f199060031b1c19161790555b6040810151600d850180546001600160a01b0319166001600160a01b039290921691909117905501518051909290600c8201906001600160401b03811161031c576143a18254613794565b601f8111614459575b50602094601f82116001146143f8579481929394955f926143ed575b50508160011b915f199060031b1c19161790555b426003820155805460ff19166002179055565b015190505f806143c6565b601f19821695835f52805f20915f5b88811061444157508360019596979810614429575b505050811b0190556143da565b01515f1960f88460031b161c191690555f808061441c565b91926020600181928685015181550194019201614407565b825f5260205f20601f830160051c81019160208410614494575b601f0160051c01905b81811061448957506143aa565b5f815560010161447c565b9091508190614473565b015190505f80614342565b90601f19831691845f52815f20925f5b8181106144f85750916001939185602098979694106144e0575b505050811b019055614356565b01515f1960f88460031b161c191690555f80806144d3565b929360206001819287860151815501950193016144b9565b835f5260205f20601f840160051c8101916020851061454b575b601f0160051c01905b8181106145405750614325565b5f8155600101614533565b909150819061452a565b015190505f806142e7565b5f8581528281209350601f198516905b8181106145ab5750908460019594939210614593575b505050811b0190556142fb565b01515f1960f88460031b161c191690555f8080614586565b92936020600181928786015181550195019301614570565b909150835f5260205f20601f840160051c81019160208510614609575b90601f859493920160051c01905b8181106145fb57506142d1565b5f81558493506001016145ee565b90915081906145e0565b6020809194939294604051928184925191829101835e81015f815203019020908051600b8301908051906001600160401b03821161031c576146558354613794565b601f811161493c575b50602090601f83116001146148d5576020949392915f91836148ca575b50508160011b915f199060031b1c19161790555b6040810151600d840180546001600160a01b0319166001600160a01b039290921691909117905501518051600c8301916001600160401b03821161031c5781906146d98454613794565b601f811161487a575b50602090601f8311600114614817575f9261480c575b50508160011b915f199060031b1c19161790555b426002820155608242019081421161033057600e916005820155600160ff198254161781550182516001600160401b03811161031c5761474c8254613794565b601f81116147c7575b506020601f821160011461478257819293945f926141c85750508160011b915f199060031b1c1916179055565b601f19821690835f52805f20915f5b8181106147af5750958360019596971061420157505050811b019055565b9192602060018192868b015181550194019201614791565b825f5260205f20601f830160051c81019160208410614802575b601f0160051c01905b8181106147f75750614755565b5f81556001016147ea565b90915081906147e1565b015190505f806146f8565b5f8581528281209350601f198516905b818110614862575090846001959493921061484a575b505050811b01905561470c565b01515f1960f88460031b161c191690555f808061483d565b92936020600181928786015181550195019301614827565b909150835f5260205f20601f840160051c810191602085106148c0575b90601f859493920160051c01905b8181106148b257506146e2565b5f81558493506001016148a5565b9091508190614897565b015190505f8061467b565b90601f19831691845f52815f20925f5b81811061492457509160019391856020989796941061490c575b505050811b01905561468f565b01515f1960f88460031b161c191690555f80806148ff565b929360206001819287860151815501950193016148e5565b835f5260205f20601f840160051c81019160208510614977575b601f0160051c01905b81811061496c575061465e565b5f815560010161495f565b9091508190614956565b9290916040516149908161368a565b5f81526020810194428652604082015f8152606083015f8152608084015f815260a08501905f825260c08601925f845260e08701945f8652610100880196875261012088019a8b5260209b8c80809b6149ec6040519d8e6136a6565b5f8d526101408c019c8d52604051928184925191829101835e81015f815203019020985160078110156128205760ff80198b541691161789555160018901555160028801555160038701555160048601555160058501555160068401555160078301556008820190519081518051906001600160401b03821161031c578190614a758454613794565b601f8111614f82575b508990601f8311600114614f1f575f92614f14575b50508160011b915f199060031b1c19161790555b60098201868201518051906001600160401b03821161031c578190614acc8454613794565b601f8111614ec6575b508990601f8311600114614e63575f92614e58575b50508160011b915f199060031b1c19161790555b60400151600a820180546001600160a01b0319166001600160a01b0392909216919091179055925180518051919491600b8301916001600160401b03821161031c578190614b4c8454613794565b601f8111614e0a575b508890601f8311600114614da7575f92614d9c575b50508160011b915f199060031b1c19161790555b600c81019385810151948551956001600160401b03871161031c57614ba38254613794565b601f8111614d59575b508790601f8811600114614cf257968091600e9697985f92614ce7575b50508160011b915f199060031b1c19161790555b60400151600d820180546001600160a01b0319166001600160a01b03929092169190911790559151805190949190920191906001600160401b03821161031c57614c278354613794565b601f8111614ca4575b5080601f8311600114614c5d5750819293945f926141c85750508160011b915f199060031b1c1916179055565b90601f19831695845f52825f20925f905b888210614c8c5750508360019596971061420157505050811b019055565b80600185968294968601518155019501930190614c6e565b835f52815f20601f840160051c810191838510614cdd575b601f0160051c01905b818110614cd25750614c30565b5f8155600101614cc5565b9091508190614cbc565b015190505f80614bc9565b90601f19881691835f52895f20925f5b8b828210614d4357505091600193918a600e999a9b9410614d2b575b505050811b019055614bdd565b01515f1960f88460031b161c191690555f8080614d1e565b6001859682939686015181550195019301614d02565b825f52885f20601f890160051c8101918a8a10614d92575b601f0160051c01905b818110614d875750614bac565b5f8155600101614d7a565b9091508190614d71565b015190505f80614b6a565b5f8581528a81209350601f198516905b8b828210614df4575050908460019594939210614ddc575b505050811b019055614b7e565b01515f1960f88460031b161c191690555f8080614dcf565b6001859682939686015181550195019301614db7565b909150835f52885f20601f840160051c8101918a8510614e4e575b90601f859493920160051c01905b818110614e405750614b55565b5f8155849350600101614e33565b9091508190614e25565b015190505f80614aea565b5f8581528b81209350601f198516905b8c828210614eb0575050908460019594939210614e98575b505050811b019055614afe565b01515f1960f88460031b161c191690555f8080614e8b565b6001859682939686015181550195019301614e73565b909150835f52895f20601f840160051c8101918b8510614f0a575b90601f859493920160051c01905b818110614efc5750614ad5565b5f8155849350600101614eef565b9091508190614ee1565b015190505f80614a93565b5f8581528b81209350601f198516905b8c828210614f6c575050908460019594939210614f54575b505050811b019055614aa7565b01515f1960f88460031b161c191690555f8080614f47565b6001859682939686015181550195019301614f2f565b909150835f52895f20601f840160051c8101918b8510614fc6575b90601f859493920160051c01905b818110614fb85750614a7e565b5f8155849350600101614fab565b9091508190614f9d56fea264697066735822122083f39ae5b677f7b561b7eb8c91da55c6f5285b15231f1825f6f645910127c2b164736f6c634300081b0033","opcodes":"PUSH1 0x80 DUP1 PUSH1 0x40 MSTORE CALLVALUE PUSH1 0x15 JUMPI PUSH2 0x5006 SWAP1 DUP2 PUSH2 0x1A DUP3 CODECOPY RETURN JUMPDEST PUSH0 DUP1 REVERT INVALID PUSH1 0x80 PUSH1 0x40 MSTORE PUSH1 0x4 CALLDATASIZE LT ISZERO PUSH2 0x11 JUMPI PUSH0 DUP1 REVERT JUMPDEST PUSH0 CALLDATALOAD PUSH1 0xE0 SHR DUP1 PUSH4 0x17E68309 EQ PUSH2 0x35BC JUMPI DUP1 PUSH4 0x19859C87 EQ PUSH2 0x3584 JUMPI DUP1 PUSH4 0x1ACF2500 EQ PUSH2 0x344B JUMPI DUP1 PUSH4 0x2B93F7F2 EQ PUSH2 0x2F9D JUMPI DUP1 PUSH4 0x2E9CF827 EQ PUSH2 0x2F19 JUMPI DUP1 PUSH4 0x34A34F30 EQ PUSH2 0x2E0E JUMPI DUP1 PUSH4 0x43762AA8 EQ PUSH2 0x2D3A JUMPI DUP1 PUSH4 0x500619D0 EQ PUSH2 0x2BFE JUMPI DUP1 PUSH4 0x682053D9 EQ PUSH2 0x185C JUMPI DUP1 PUSH4 0x6D1AA7D5 EQ PUSH2 0x1622 JUMPI DUP1 PUSH4 0x6F12C230 EQ PUSH2 0x16F9 JUMPI DUP1 PUSH4 0x72C17CB9 EQ PUSH2 0x165D JUMPI DUP1 PUSH4 0x761FB19A EQ PUSH2 0x1622 JUMPI DUP1 PUSH4 0x7AB09648 EQ PUSH2 0x159A JUMPI DUP1 PUSH4 0x7E8F8DA7 EQ PUSH2 0x1296 JUMPI DUP1 PUSH4 0x93B73BA2 EQ PUSH2 0x11EE JUMPI DUP1 PUSH4 0x9740DBED EQ PUSH2 0x11D7 JUMPI DUP1 PUSH4 0x9AAA5D8B EQ PUSH2 0x119C JUMPI DUP1 PUSH4 0x9C6B1F10 EQ PUSH2 0x10D4 JUMPI DUP1 PUSH4 0xA7226527 EQ PUSH2 0x4BB JUMPI DUP1 PUSH4 0xBE2E2325 EQ PUSH2 0x46B JUMPI DUP1 PUSH4 0xBF3F80AC EQ PUSH2 0x401 JUMPI DUP1 PUSH4 0xD26196FD EQ PUSH2 0x3EA JUMPI DUP1 PUSH4 0xE9C260D7 EQ PUSH2 0x3D3 JUMPI DUP1 PUSH4 0xF14261D2 EQ PUSH2 0x35B JUMPI DUP1 PUSH4 0xF5104FF1 EQ PUSH2 0x344 JUMPI DUP1 PUSH4 0xF53EF126 EQ PUSH2 0x1CC JUMPI PUSH4 0xFB5FB9A3 EQ PUSH2 0x14D JUMPI PUSH0 DUP1 REVERT JUMPDEST CALLVALUE PUSH2 0x1C8 JUMPI PUSH1 0x60 CALLDATASIZE PUSH1 0x3 NOT ADD SLT PUSH2 0x1C8 JUMPI PUSH1 0x4 CALLDATALOAD PUSH1 0x1 PUSH1 0x1 PUSH1 0x40 SHL SUB DUP2 GT PUSH2 0x1C8 JUMPI PUSH2 0x17D SWAP1 CALLDATASIZE SWAP1 PUSH1 0x4 ADD PUSH2 0x3C75 JUMP JUMPDEST PUSH1 0x24 CALLDATALOAD PUSH1 0x1 PUSH1 0x1 PUSH1 0x40 SHL SUB DUP2 GT PUSH2 0x1C8 JUMPI PUSH2 0x19C SWAP1 CALLDATASIZE SWAP1 PUSH1 0x4 ADD PUSH2 0x3C75 JUMP JUMPDEST SWAP1 PUSH1 0x44 CALLDATALOAD SWAP2 PUSH1 0x1 PUSH1 0x1 PUSH1 0x40 SHL SUB DUP4 GT PUSH2 0x1C8 JUMPI PUSH2 0x1C0 PUSH2 0x1C6 SWAP4 CALLDATASIZE SWAP1 PUSH1 0x4 ADD PUSH2 0x36C7 JUMP JUMPDEST SWAP2 PUSH2 0x4981 JUMP JUMPDEST STOP JUMPDEST PUSH0 DUP1 REVERT JUMPDEST CALLVALUE PUSH2 0x1C8 JUMPI PUSH1 0x20 DUP1 PUSH2 0x1DD CALLDATASIZE PUSH2 0x3C2B JUMP JUMPDEST SWAP3 SWAP1 PUSH1 0x40 MLOAD SWAP3 DUP2 DUP5 SWAP3 MLOAD SWAP2 DUP3 SWAP2 ADD DUP4 MCOPY DUP2 ADD PUSH0 DUP2 MSTORE SUB ADD SWAP1 KECCAK256 TIMESTAMP PUSH1 0x2 DUP3 ADD SSTORE PUSH1 0x82 TIMESTAMP ADD SWAP1 DUP2 TIMESTAMP GT PUSH2 0x330 JUMPI PUSH1 0xE SWAP2 PUSH1 0x5 DUP3 ADD SSTORE PUSH1 0x6 PUSH1 0xFF NOT DUP3 SLOAD AND OR DUP2 SSTORE ADD DUP2 MLOAD PUSH1 0x1 PUSH1 0x1 PUSH1 0x40 SHL SUB DUP2 GT PUSH2 0x31C JUMPI PUSH2 0x236 DUP3 SLOAD PUSH2 0x3794 JUMP JUMPDEST PUSH1 0x1F DUP2 GT PUSH2 0x2D7 JUMPI JUMPDEST POP PUSH1 0x20 SWAP3 PUSH1 0x1F DUP3 GT PUSH1 0x1 EQ PUSH2 0x27B JUMPI SWAP3 DUP2 SWAP3 SWAP4 PUSH0 SWAP3 PUSH2 0x270 JUMPI JUMPDEST POP POP PUSH0 NOT PUSH1 0x3 DUP4 SWAP1 SHL SHR NOT AND PUSH1 0x1 SWAP2 SWAP1 SWAP2 SHL OR SWAP1 SSTORE STOP JUMPDEST ADD MLOAD SWAP1 POP DUP4 DUP1 PUSH2 0x259 JUMP JUMPDEST PUSH1 0x1F NOT DUP3 AND SWAP4 DUP4 PUSH0 MSTORE DUP1 PUSH0 KECCAK256 SWAP2 PUSH0 JUMPDEST DUP7 DUP2 LT PUSH2 0x2BF JUMPI POP DUP4 PUSH1 0x1 SWAP6 SWAP7 LT PUSH2 0x2A7 JUMPI JUMPDEST POP POP POP DUP2 SHL ADD SWAP1 SSTORE STOP JUMPDEST ADD MLOAD PUSH0 NOT PUSH1 0xF8 DUP5 PUSH1 0x3 SHL AND SHR NOT AND SWAP1 SSTORE DUP4 DUP1 DUP1 PUSH2 0x29D JUMP JUMPDEST SWAP2 SWAP3 PUSH1 0x20 PUSH1 0x1 DUP2 SWAP3 DUP7 DUP6 ADD MLOAD DUP2 SSTORE ADD SWAP5 ADD SWAP3 ADD PUSH2 0x28A JUMP JUMPDEST DUP3 PUSH0 MSTORE PUSH1 0x20 PUSH0 KECCAK256 PUSH1 0x1F DUP4 ADD PUSH1 0x5 SHR DUP2 ADD SWAP2 PUSH1 0x20 DUP5 LT PUSH2 0x312 JUMPI JUMPDEST PUSH1 0x1F ADD PUSH1 0x5 SHR ADD SWAP1 JUMPDEST DUP2 DUP2 LT PUSH2 0x307 JUMPI POP PUSH2 0x23F JUMP JUMPDEST PUSH0 DUP2 SSTORE PUSH1 0x1 ADD PUSH2 0x2FA JUMP JUMPDEST SWAP1 SWAP2 POP DUP2 SWAP1 PUSH2 0x2F1 JUMP JUMPDEST PUSH4 0x4E487B71 PUSH1 0xE0 SHL PUSH0 MSTORE PUSH1 0x41 PUSH1 0x4 MSTORE PUSH1 0x24 PUSH0 REVERT JUMPDEST PUSH4 0x4E487B71 PUSH1 0xE0 SHL PUSH0 MSTORE PUSH1 0x11 PUSH1 0x4 MSTORE PUSH1 0x24 PUSH0 REVERT JUMPDEST CALLVALUE PUSH2 0x1C8 JUMPI PUSH2 0x1C6 PUSH2 0x355 CALLDATASIZE PUSH2 0x3CED JUMP JUMPDEST SWAP2 PUSH2 0x4613 JUMP JUMPDEST CALLVALUE PUSH2 0x1C8 JUMPI PUSH0 CALLDATASIZE PUSH1 0x3 NOT ADD SLT PUSH2 0x1C8 JUMPI PUSH1 0x2 SLOAD PUSH2 0x377 DUP2 PUSH2 0x3E94 JUMP JUMPDEST SWAP1 PUSH0 DUP1 JUMPDEST DUP3 DUP3 LT PUSH2 0x394 JUMPI PUSH1 0x40 MLOAD DUP1 PUSH2 0x390 DUP7 DUP3 PUSH2 0x3A7A JUMP JUMPDEST SUB SWAP1 RETURN JUMPDEST PUSH2 0x3CB PUSH1 0x1 SWAP2 PUSH2 0x3C5 PUSH2 0x3AF PUSH2 0x3A9 DUP7 PUSH2 0x38B8 JUMP JUMPDEST POP PUSH2 0x3F25 JUMP JUMPDEST PUSH1 0xFF DUP4 AND SWAP1 PUSH2 0x3BE DUP3 DUP11 PUSH2 0x3F11 JUMP JUMPDEST MSTORE DUP8 PUSH2 0x3F11 JUMP JUMPDEST POP PUSH2 0x3E6C JUMP JUMPDEST SWAP2 ADD SWAP1 PUSH2 0x37B JUMP JUMPDEST CALLVALUE PUSH2 0x1C8 JUMPI PUSH2 0x1C6 PUSH2 0x3E4 CALLDATASIZE PUSH2 0x3CED JUMP JUMPDEST SWAP2 PUSH2 0x4276 JUMP JUMPDEST CALLVALUE PUSH2 0x1C8 JUMPI PUSH2 0x1C6 PUSH2 0x3FB CALLDATASIZE PUSH2 0x3C2B JUMP JUMPDEST SWAP1 PUSH2 0x4133 JUMP JUMPDEST CALLVALUE PUSH2 0x1C8 JUMPI PUSH1 0x20 CALLDATASIZE PUSH1 0x3 NOT ADD SLT PUSH2 0x1C8 JUMPI PUSH1 0x4 CALLDATALOAD PUSH1 0x1 PUSH1 0x1 PUSH1 0x40 SHL SUB DUP2 GT PUSH2 0x1C8 JUMPI PUSH2 0x457 PUSH1 0x20 DUP1 PUSH2 0x43A PUSH2 0x390 SWAP5 CALLDATASIZE SWAP1 PUSH1 0x4 ADD PUSH2 0x36C7 JUMP JUMPDEST PUSH1 0x40 MLOAD SWAP3 DUP2 DUP5 SWAP3 MLOAD SWAP2 DUP3 SWAP2 ADD DUP4 MCOPY DUP2 ADD PUSH1 0x1 DUP2 MSTORE SUB ADD SWAP1 KECCAK256 PUSH2 0x37CC JUMP JUMPDEST PUSH1 0x40 MLOAD SWAP2 DUP3 SWAP2 PUSH1 0x20 DUP4 MSTORE PUSH1 0x20 DUP4 ADD SWAP1 PUSH2 0x371C JUMP JUMPDEST CALLVALUE PUSH2 0x1C8 JUMPI PUSH1 0x20 CALLDATASIZE PUSH1 0x3 NOT ADD SLT PUSH2 0x1C8 JUMPI PUSH1 0x4 CALLDATALOAD PUSH1 0x1 PUSH1 0x1 PUSH1 0x40 SHL SUB DUP2 GT PUSH2 0x1C8 JUMPI PUSH2 0x4AF PUSH2 0x4A1 PUSH2 0x390 SWAP3 CALLDATASIZE SWAP1 PUSH1 0x4 ADD PUSH2 0x36C7 JUMP JUMPDEST PUSH2 0x4A9 PUSH2 0x4017 JUMP JUMPDEST POP PUSH2 0x4076 JUMP JUMPDEST PUSH1 0x40 MLOAD SWAP2 DUP3 SWAP2 DUP3 PUSH2 0x3B7B JUMP JUMPDEST CALLVALUE PUSH2 0x1C8 JUMPI PUSH1 0x60 CALLDATASIZE PUSH1 0x3 NOT ADD SLT PUSH2 0x1C8 JUMPI PUSH1 0x4 CALLDATALOAD PUSH1 0x1 PUSH1 0x1 PUSH1 0x40 SHL SUB DUP2 GT PUSH2 0x1C8 JUMPI PUSH2 0x4EB SWAP1 CALLDATASIZE SWAP1 PUSH1 0x4 ADD PUSH2 0x36C7 JUMP JUMPDEST PUSH1 0x24 CALLDATALOAD PUSH1 0x1 PUSH1 0x1 PUSH1 0x40 SHL SUB DUP2 GT PUSH2 0x1C8 JUMPI PUSH2 0x50A SWAP1 CALLDATASIZE SWAP1 PUSH1 0x4 ADD PUSH2 0x38E8 JUMP JUMPDEST SWAP1 PUSH1 0x44 CALLDATALOAD PUSH1 0x1 PUSH1 0x1 PUSH1 0x40 SHL SUB DUP2 GT PUSH2 0x1C8 JUMPI PUSH2 0x52A SWAP1 CALLDATASIZE SWAP1 PUSH1 0x4 ADD PUSH2 0x3947 JUMP JUMPDEST PUSH2 0x533 DUP3 PUSH2 0x3D75 JUMP JUMPDEST PUSH1 0x2 SLOAD SWAP2 PUSH1 0x20 DUP2 ADD SWAP1 PUSH0 JUMPDEST DUP5 DUP2 LT PUSH2 0x547 JUMPI STOP JUMPDEST PUSH2 0x550 DUP2 PUSH2 0x38B8 JUMP JUMPDEST POP PUSH1 0x40 MLOAD PUSH2 0x574 DUP2 PUSH2 0x566 PUSH1 0x20 DUP3 ADD DUP1 SWAP6 PUSH2 0x3DA3 JUMP JUMPDEST SUB PUSH1 0x1F NOT DUP2 ADD DUP4 MSTORE DUP3 PUSH2 0x36A6 JUMP JUMPDEST MLOAD SWAP1 KECCAK256 PUSH1 0x40 MLOAD PUSH1 0x20 DUP2 ADD SWAP1 PUSH2 0x5A1 PUSH1 0x20 DUP3 DUP8 MLOAD DUP1 DUP11 DUP8 MCOPY DUP2 ADD PUSH0 DUP4 DUP3 ADD MSTORE SUB ADD PUSH1 0x1F NOT DUP2 ADD DUP4 MSTORE DUP3 PUSH2 0x36A6 JUMP JUMPDEST MLOAD SWAP1 KECCAK256 EQ PUSH2 0x5B2 JUMPI JUMPDEST PUSH1 0x1 ADD PUSH2 0x53E JUMP JUMPDEST PUSH1 0x3 PUSH2 0x5BD DUP3 PUSH2 0x38B8 JUMP JUMPDEST POP ADD DUP1 SLOAD PUSH2 0xFF00 NOT AND PUSH2 0x300 OR SWAP1 SSTORE PUSH2 0x5E7 PUSH1 0x20 PUSH2 0x5DA DUP4 PUSH2 0x38B8 JUMP JUMPDEST POP PUSH1 0x40 MLOAD SWAP3 DUP4 DUP1 SWAP3 PUSH2 0x3DA3 JUMP JUMPDEST PUSH1 0x4 DUP2 MSTORE SUB ADD SWAP1 KECCAK256 DUP7 MLOAD DUP1 MLOAD SWAP1 PUSH1 0x1 PUSH1 0x1 PUSH1 0x40 SHL SUB DUP3 GT PUSH2 0x31C JUMPI PUSH2 0x60C DUP4 SLOAD PUSH2 0x3794 JUMP JUMPDEST PUSH1 0x1F DUP2 GT PUSH2 0x108F JUMPI JUMPDEST POP PUSH1 0x20 SWAP1 PUSH1 0x1F DUP4 GT PUSH1 0x1 EQ PUSH2 0x1029 JUMPI PUSH1 0x1 SWAP4 SWAP3 SWAP2 PUSH0 SWAP2 DUP4 PUSH2 0x101E JUMPI JUMPDEST POP POP PUSH0 NOT PUSH1 0x3 DUP4 SWAP1 SHL SHR NOT AND SWAP1 DUP4 SHL OR DUP2 SSTORE JUMPDEST ADD PUSH1 0x20 DUP8 ADD MLOAD DUP1 MLOAD SWAP1 PUSH1 0x1 PUSH1 0x1 PUSH1 0x40 SHL SUB DUP3 GT PUSH2 0x31C JUMPI DUP2 SWAP1 PUSH2 0x667 DUP5 SLOAD PUSH2 0x3794 JUMP JUMPDEST PUSH1 0x1F DUP2 GT PUSH2 0xFCE JUMPI JUMPDEST POP PUSH1 0x20 SWAP1 PUSH1 0x1F DUP4 GT PUSH1 0x1 EQ PUSH2 0xF6B JUMPI PUSH0 SWAP3 PUSH2 0xF60 JUMPI JUMPDEST POP POP DUP2 PUSH1 0x1 SHL SWAP2 PUSH0 NOT SWAP1 PUSH1 0x3 SHL SHR NOT AND OR SWAP1 SSTORE JUMPDEST PUSH2 0x6A8 PUSH1 0x20 PUSH2 0x5DA DUP4 PUSH2 0x38B8 JUMP JUMPDEST PUSH1 0x5 DUP2 MSTORE SUB ADD SWAP1 KECCAK256 DUP5 MLOAD DUP1 MLOAD SWAP1 PUSH1 0x1 PUSH1 0x1 PUSH1 0x40 SHL SUB DUP3 GT PUSH2 0x31C JUMPI DUP2 SWAP1 PUSH2 0x6CF DUP5 SLOAD PUSH2 0x3794 JUMP JUMPDEST PUSH1 0x1F DUP2 GT PUSH2 0xF10 JUMPI JUMPDEST POP PUSH1 0x20 SWAP1 PUSH1 0x1F DUP4 GT PUSH1 0x1 EQ PUSH2 0xEAD JUMPI PUSH0 SWAP3 PUSH2 0xEA2 JUMPI JUMPDEST POP POP DUP2 PUSH1 0x1 SHL SWAP2 PUSH0 NOT SWAP1 PUSH1 0x3 SHL SHR NOT AND OR DUP2 SSTORE JUMPDEST PUSH1 0x1 DUP2 ADD PUSH1 0x20 DUP7 ADD MLOAD DUP1 MLOAD SWAP1 PUSH1 0x1 PUSH1 0x1 PUSH1 0x40 SHL SUB DUP3 GT PUSH2 0x31C JUMPI DUP2 SWAP1 PUSH2 0x728 DUP5 SLOAD PUSH2 0x3794 JUMP JUMPDEST PUSH1 0x1F DUP2 GT PUSH2 0xE52 JUMPI JUMPDEST POP PUSH1 0x20 SWAP1 PUSH1 0x1F DUP4 GT PUSH1 0x1 EQ PUSH2 0xDEF JUMPI PUSH0 SWAP3 PUSH2 0xDE4 JUMPI JUMPDEST POP POP DUP2 PUSH1 0x1 SHL SWAP2 PUSH0 NOT SWAP1 PUSH1 0x3 SHL SHR NOT AND OR SWAP1 SSTORE JUMPDEST PUSH1 0x2 DUP2 ADD PUSH1 0x40 DUP7 ADD MLOAD DUP1 MLOAD SWAP1 PUSH1 0x1 PUSH1 0x1 PUSH1 0x40 SHL SUB DUP3 GT PUSH2 0x31C JUMPI DUP2 SWAP1 PUSH2 0x781 DUP5 SLOAD PUSH2 0x3794 JUMP JUMPDEST PUSH1 0x1F DUP2 GT PUSH2 0xD94 JUMPI JUMPDEST POP PUSH1 0x20 SWAP1 PUSH1 0x1F DUP4 GT PUSH1 0x1 EQ PUSH2 0xD31 JUMPI PUSH0 SWAP3 PUSH2 0xD26 JUMPI JUMPDEST POP POP DUP2 PUSH1 0x1 SHL SWAP2 PUSH0 NOT SWAP1 PUSH1 0x3 SHL SHR NOT AND OR SWAP1 SSTORE JUMPDEST PUSH1 0x3 DUP2 ADD PUSH1 0x60 DUP7 ADD MLOAD DUP1 MLOAD SWAP1 PUSH1 0x1 PUSH1 0x1 PUSH1 0x40 SHL SUB DUP3 GT PUSH2 0x31C JUMPI DUP2 SWAP1 PUSH2 0x7DA DUP5 SLOAD PUSH2 0x3794 JUMP JUMPDEST PUSH1 0x1F DUP2 GT PUSH2 0xCD6 JUMPI JUMPDEST POP PUSH1 0x20 SWAP1 PUSH1 0x1F DUP4 GT PUSH1 0x1 EQ PUSH2 0xC73 JUMPI PUSH0 SWAP3 PUSH2 0xC68 JUMPI JUMPDEST POP POP DUP2 PUSH1 0x1 SHL SWAP2 PUSH0 NOT SWAP1 PUSH1 0x3 SHL SHR NOT AND OR SWAP1 SSTORE JUMPDEST PUSH1 0x4 DUP2 ADD PUSH1 0x80 DUP7 ADD MLOAD DUP1 MLOAD SWAP1 PUSH1 0x1 PUSH1 0x1 PUSH1 0x40 SHL SUB DUP3 GT PUSH2 0x31C JUMPI DUP2 SWAP1 PUSH2 0x833 DUP5 SLOAD PUSH2 0x3794 JUMP JUMPDEST PUSH1 0x1F DUP2 GT PUSH2 0xC18 JUMPI JUMPDEST POP PUSH1 0x20 SWAP1 PUSH1 0x1F DUP4 GT PUSH1 0x1 EQ PUSH2 0xBB5 JUMPI PUSH0 SWAP3 PUSH2 0xBAA JUMPI JUMPDEST POP POP DUP2 PUSH1 0x1 SHL SWAP2 PUSH0 NOT SWAP1 PUSH1 0x3 SHL SHR NOT AND OR SWAP1 SSTORE JUMPDEST PUSH1 0x5 DUP2 ADD PUSH1 0xA0 DUP7 ADD MLOAD DUP1 MLOAD SWAP1 PUSH1 0x1 PUSH1 0x1 PUSH1 0x40 SHL SUB DUP3 GT PUSH2 0x31C JUMPI DUP2 SWAP1 PUSH2 0x88C DUP5 SLOAD PUSH2 0x3794 JUMP JUMPDEST PUSH1 0x1F DUP2 GT PUSH2 0xB5A JUMPI JUMPDEST POP PUSH1 0x20 SWAP1 PUSH1 0x1F DUP4 GT PUSH1 0x1 EQ PUSH2 0xAF7 JUMPI PUSH0 SWAP3 PUSH2 0xAEC JUMPI JUMPDEST POP POP DUP2 PUSH1 0x1 SHL SWAP2 PUSH0 NOT SWAP1 PUSH1 0x3 SHL SHR NOT AND OR SWAP1 SSTORE JUMPDEST PUSH1 0x6 DUP2 ADD PUSH1 0xC0 DUP7 ADD MLOAD DUP1 MLOAD SWAP1 PUSH1 0x1 PUSH1 0x1 PUSH1 0x40 SHL SUB DUP3 GT PUSH2 0x31C JUMPI PUSH2 0x8E3 DUP4 SLOAD PUSH2 0x3794 JUMP JUMPDEST PUSH1 0x1F DUP2 GT PUSH2 0xAA7 JUMPI JUMPDEST POP PUSH1 0x20 SWAP1 PUSH1 0x1F DUP4 GT PUSH1 0x1 EQ PUSH2 0xA40 JUMPI PUSH1 0x7 SWAP5 SWAP4 SWAP3 SWAP2 PUSH0 SWAP2 DUP4 PUSH2 0xA35 JUMPI JUMPDEST POP POP DUP2 PUSH1 0x1 SHL SWAP2 PUSH0 NOT SWAP1 PUSH1 0x3 SHL SHR NOT AND OR SWAP1 SSTORE JUMPDEST ADD PUSH1 0xE0 DUP6 ADD MLOAD DUP1 MLOAD SWAP1 PUSH1 0x1 PUSH1 0x1 PUSH1 0x40 SHL SUB DUP3 GT PUSH2 0x31C JUMPI PUSH2 0x93E DUP4 SLOAD PUSH2 0x3794 JUMP JUMPDEST PUSH1 0x1F DUP2 GT PUSH2 0x9F0 JUMPI JUMPDEST POP PUSH1 0x20 SWAP1 PUSH1 0x1F DUP4 GT PUSH1 0x1 EQ PUSH2 0x989 JUMPI PUSH1 0x1 SWAP5 SWAP4 SWAP3 SWAP2 PUSH0 SWAP2 DUP4 PUSH2 0x97E JUMPI JUMPDEST POP POP PUSH0 NOT PUSH1 0x3 DUP4 SWAP1 SHL SHR NOT AND SWAP1 DUP5 SHL OR SWAP1 SSTORE JUMPDEST SWAP1 POP PUSH2 0x5AA JUMP JUMPDEST ADD MLOAD SWAP1 POP DUP11 DUP1 PUSH2 0x964 JUMP JUMPDEST SWAP1 PUSH1 0x1F NOT DUP4 AND SWAP2 DUP5 PUSH0 MSTORE DUP2 PUSH0 KECCAK256 SWAP3 PUSH0 JUMPDEST DUP2 DUP2 LT PUSH2 0x9D8 JUMPI POP SWAP2 PUSH1 0x1 SWAP7 SWAP6 SWAP5 SWAP3 SWAP2 DUP4 DUP9 SWAP6 SWAP4 LT PUSH2 0x9C0 JUMPI JUMPDEST POP POP POP DUP2 SHL ADD SWAP1 SSTORE PUSH2 0x977 JUMP JUMPDEST ADD MLOAD PUSH0 NOT PUSH1 0xF8 DUP5 PUSH1 0x3 SHL AND SHR NOT AND SWAP1 SSTORE DUP11 DUP1 DUP1 PUSH2 0x9B3 JUMP JUMPDEST SWAP3 SWAP4 PUSH1 0x20 PUSH1 0x1 DUP2 SWAP3 DUP8 DUP7 ADD MLOAD DUP2 SSTORE ADD SWAP6 ADD SWAP4 ADD PUSH2 0x999 JUMP JUMPDEST DUP4 PUSH0 MSTORE PUSH1 0x20 PUSH0 KECCAK256 PUSH1 0x1F DUP5 ADD PUSH1 0x5 SHR DUP2 ADD SWAP2 PUSH1 0x20 DUP6 LT PUSH2 0xA2B JUMPI JUMPDEST PUSH1 0x1F ADD PUSH1 0x5 SHR ADD SWAP1 JUMPDEST DUP2 DUP2 LT PUSH2 0xA20 JUMPI POP PUSH2 0x947 JUMP JUMPDEST PUSH0 DUP2 SSTORE PUSH1 0x1 ADD PUSH2 0xA13 JUMP JUMPDEST SWAP1 SWAP2 POP DUP2 SWAP1 PUSH2 0xA0A JUMP JUMPDEST ADD MLOAD SWAP1 POP DUP12 DUP1 PUSH2 0x909 JUMP JUMPDEST SWAP1 PUSH1 0x1F NOT DUP4 AND SWAP2 DUP5 PUSH0 MSTORE DUP2 PUSH0 KECCAK256 SWAP3 PUSH0 JUMPDEST DUP2 DUP2 LT PUSH2 0xA8F JUMPI POP SWAP2 PUSH1 0x1 SWAP4 SWAP2 DUP6 PUSH1 0x7 SWAP9 SWAP8 SWAP7 SWAP5 LT PUSH2 0xA77 JUMPI JUMPDEST POP POP POP DUP2 SHL ADD SWAP1 SSTORE PUSH2 0x91D JUMP JUMPDEST ADD MLOAD PUSH0 NOT PUSH1 0xF8 DUP5 PUSH1 0x3 SHL AND SHR NOT AND SWAP1 SSTORE DUP12 DUP1 DUP1 PUSH2 0xA6A JUMP JUMPDEST SWAP3 SWAP4 PUSH1 0x20 PUSH1 0x1 DUP2 SWAP3 DUP8 DUP7 ADD MLOAD DUP2 SSTORE ADD SWAP6 ADD SWAP4 ADD PUSH2 0xA50 JUMP JUMPDEST DUP4 PUSH0 MSTORE PUSH1 0x20 PUSH0 KECCAK256 PUSH1 0x1F DUP5 ADD PUSH1 0x5 SHR DUP2 ADD SWAP2 PUSH1 0x20 DUP6 LT PUSH2 0xAE2 JUMPI JUMPDEST PUSH1 0x1F ADD PUSH1 0x5 SHR ADD SWAP1 JUMPDEST DUP2 DUP2 LT PUSH2 0xAD7 JUMPI POP PUSH2 0x8EC JUMP JUMPDEST PUSH0 DUP2 SSTORE PUSH1 0x1 ADD PUSH2 0xACA JUMP JUMPDEST SWAP1 SWAP2 POP DUP2 SWAP1 PUSH2 0xAC1 JUMP JUMPDEST ADD MLOAD SWAP1 POP DUP11 DUP1 PUSH2 0x8AB JUMP JUMPDEST PUSH0 DUP6 DUP2 MSTORE DUP3 DUP2 KECCAK256 SWAP4 POP PUSH1 0x1F NOT DUP6 AND SWAP1 JUMPDEST DUP2 DUP2 LT PUSH2 0xB42 JUMPI POP SWAP1 DUP5 PUSH1 0x1 SWAP6 SWAP5 SWAP4 SWAP3 LT PUSH2 0xB2A JUMPI JUMPDEST POP POP POP DUP2 SHL ADD SWAP1 SSTORE PUSH2 0x8BF JUMP JUMPDEST ADD MLOAD PUSH0 NOT PUSH1 0xF8 DUP5 PUSH1 0x3 SHL AND SHR NOT AND SWAP1 SSTORE DUP11 DUP1 DUP1 PUSH2 0xB1D JUMP JUMPDEST SWAP3 SWAP4 PUSH1 0x20 PUSH1 0x1 DUP2 SWAP3 DUP8 DUP7 ADD MLOAD DUP2 SSTORE ADD SWAP6 ADD SWAP4 ADD PUSH2 0xB07 JUMP JUMPDEST SWAP1 SWAP2 POP DUP4 PUSH0 MSTORE PUSH1 0x20 PUSH0 KECCAK256 PUSH1 0x1F DUP5 ADD PUSH1 0x5 SHR DUP2 ADD SWAP2 PUSH1 0x20 DUP6 LT PUSH2 0xBA0 JUMPI JUMPDEST SWAP1 PUSH1 0x1F DUP6 SWAP5 SWAP4 SWAP3 ADD PUSH1 0x5 SHR ADD SWAP1 JUMPDEST DUP2 DUP2 LT PUSH2 0xB92 JUMPI POP PUSH2 0x895 JUMP JUMPDEST PUSH0 DUP2 SSTORE DUP5 SWAP4 POP PUSH1 0x1 ADD PUSH2 0xB85 JUMP JUMPDEST SWAP1 SWAP2 POP DUP2 SWAP1 PUSH2 0xB77 JUMP JUMPDEST ADD MLOAD SWAP1 POP DUP11 DUP1 PUSH2 0x852 JUMP JUMPDEST PUSH0 DUP6 DUP2 MSTORE DUP3 DUP2 KECCAK256 SWAP4 POP PUSH1 0x1F NOT DUP6 AND SWAP1 JUMPDEST DUP2 DUP2 LT PUSH2 0xC00 JUMPI POP SWAP1 DUP5 PUSH1 0x1 SWAP6 SWAP5 SWAP4 SWAP3 LT PUSH2 0xBE8 JUMPI JUMPDEST POP POP POP DUP2 SHL ADD SWAP1 SSTORE PUSH2 0x866 JUMP JUMPDEST ADD MLOAD PUSH0 NOT PUSH1 0xF8 DUP5 PUSH1 0x3 SHL AND SHR NOT AND SWAP1 SSTORE DUP11 DUP1 DUP1 PUSH2 0xBDB JUMP JUMPDEST SWAP3 SWAP4 PUSH1 0x20 PUSH1 0x1 DUP2 SWAP3 DUP8 DUP7 ADD MLOAD DUP2 SSTORE ADD SWAP6 ADD SWAP4 ADD PUSH2 0xBC5 JUMP JUMPDEST SWAP1 SWAP2 POP DUP4 PUSH0 MSTORE PUSH1 0x20 PUSH0 KECCAK256 PUSH1 0x1F DUP5 ADD PUSH1 0x5 SHR DUP2 ADD SWAP2 PUSH1 0x20 DUP6 LT PUSH2 0xC5E JUMPI JUMPDEST SWAP1 PUSH1 0x1F DUP6 SWAP5 SWAP4 SWAP3 ADD PUSH1 0x5 SHR ADD SWAP1 JUMPDEST DUP2 DUP2 LT PUSH2 0xC50 JUMPI POP PUSH2 0x83C JUMP JUMPDEST PUSH0 DUP2 SSTORE DUP5 SWAP4 POP PUSH1 0x1 ADD PUSH2 0xC43 JUMP JUMPDEST SWAP1 SWAP2 POP DUP2 SWAP1 PUSH2 0xC35 JUMP JUMPDEST ADD MLOAD SWAP1 POP DUP11 DUP1 PUSH2 0x7F9 JUMP JUMPDEST PUSH0 DUP6 DUP2 MSTORE DUP3 DUP2 KECCAK256 SWAP4 POP PUSH1 0x1F NOT DUP6 AND SWAP1 JUMPDEST DUP2 DUP2 LT PUSH2 0xCBE JUMPI POP SWAP1 DUP5 PUSH1 0x1 SWAP6 SWAP5 SWAP4 SWAP3 LT PUSH2 0xCA6 JUMPI JUMPDEST POP POP POP DUP2 SHL ADD SWAP1 SSTORE PUSH2 0x80D JUMP JUMPDEST ADD MLOAD PUSH0 NOT PUSH1 0xF8 DUP5 PUSH1 0x3 SHL AND SHR NOT AND SWAP1 SSTORE DUP11 DUP1 DUP1 PUSH2 0xC99 JUMP JUMPDEST SWAP3 SWAP4 PUSH1 0x20 PUSH1 0x1 DUP2 SWAP3 DUP8 DUP7 ADD MLOAD DUP2 SSTORE ADD SWAP6 ADD SWAP4 ADD PUSH2 0xC83 JUMP JUMPDEST SWAP1 SWAP2 POP DUP4 PUSH0 MSTORE PUSH1 0x20 PUSH0 KECCAK256 PUSH1 0x1F DUP5 ADD PUSH1 0x5 SHR DUP2 ADD SWAP2 PUSH1 0x20 DUP6 LT PUSH2 0xD1C JUMPI JUMPDEST SWAP1 PUSH1 0x1F DUP6 SWAP5 SWAP4 SWAP3 ADD PUSH1 0x5 SHR ADD SWAP1 JUMPDEST DUP2 DUP2 LT PUSH2 0xD0E JUMPI POP PUSH2 0x7E3 JUMP JUMPDEST PUSH0 DUP2 SSTORE DUP5 SWAP4 POP PUSH1 0x1 ADD PUSH2 0xD01 JUMP JUMPDEST SWAP1 SWAP2 POP DUP2 SWAP1 PUSH2 0xCF3 JUMP JUMPDEST ADD MLOAD SWAP1 POP DUP11 DUP1 PUSH2 0x7A0 JUMP JUMPDEST PUSH0 DUP6 DUP2 MSTORE DUP3 DUP2 KECCAK256 SWAP4 POP PUSH1 0x1F NOT DUP6 AND SWAP1 JUMPDEST DUP2 DUP2 LT PUSH2 0xD7C JUMPI POP SWAP1 DUP5 PUSH1 0x1 SWAP6 SWAP5 SWAP4 SWAP3 LT PUSH2 0xD64 JUMPI JUMPDEST POP POP POP DUP2 SHL ADD SWAP1 SSTORE PUSH2 0x7B4 JUMP JUMPDEST ADD MLOAD PUSH0 NOT PUSH1 0xF8 DUP5 PUSH1 0x3 SHL AND SHR NOT AND SWAP1 SSTORE DUP11 DUP1 DUP1 PUSH2 0xD57 JUMP JUMPDEST SWAP3 SWAP4 PUSH1 0x20 PUSH1 0x1 DUP2 SWAP3 DUP8 DUP7 ADD MLOAD DUP2 SSTORE ADD SWAP6 ADD SWAP4 ADD PUSH2 0xD41 JUMP JUMPDEST SWAP1 SWAP2 POP DUP4 PUSH0 MSTORE PUSH1 0x20 PUSH0 KECCAK256 PUSH1 0x1F DUP5 ADD PUSH1 0x5 SHR DUP2 ADD SWAP2 PUSH1 0x20 DUP6 LT PUSH2 0xDDA JUMPI JUMPDEST SWAP1 PUSH1 0x1F DUP6 SWAP5 SWAP4 SWAP3 ADD PUSH1 0x5 SHR ADD SWAP1 JUMPDEST DUP2 DUP2 LT PUSH2 0xDCC JUMPI POP PUSH2 0x78A JUMP JUMPDEST PUSH0 DUP2 SSTORE DUP5 SWAP4 POP PUSH1 0x1 ADD PUSH2 0xDBF JUMP JUMPDEST SWAP1 SWAP2 POP DUP2 SWAP1 PUSH2 0xDB1 JUMP JUMPDEST ADD MLOAD SWAP1 POP DUP11 DUP1 PUSH2 0x747 JUMP JUMPDEST PUSH0 DUP6 DUP2 MSTORE DUP3 DUP2 KECCAK256 SWAP4 POP PUSH1 0x1F NOT DUP6 AND SWAP1 JUMPDEST DUP2 DUP2 LT PUSH2 0xE3A JUMPI POP SWAP1 DUP5 PUSH1 0x1 SWAP6 SWAP5 SWAP4 SWAP3 LT PUSH2 0xE22 JUMPI JUMPDEST POP POP POP DUP2 SHL ADD SWAP1 SSTORE PUSH2 0x75B JUMP JUMPDEST ADD MLOAD PUSH0 NOT PUSH1 0xF8 DUP5 PUSH1 0x3 SHL AND SHR NOT AND SWAP1 SSTORE DUP11 DUP1 DUP1 PUSH2 0xE15 JUMP JUMPDEST SWAP3 SWAP4 PUSH1 0x20 PUSH1 0x1 DUP2 SWAP3 DUP8 DUP7 ADD MLOAD DUP2 SSTORE ADD SWAP6 ADD SWAP4 ADD PUSH2 0xDFF JUMP JUMPDEST SWAP1 SWAP2 POP DUP4 PUSH0 MSTORE PUSH1 0x20 PUSH0 KECCAK256 PUSH1 0x1F DUP5 ADD PUSH1 0x5 SHR DUP2 ADD SWAP2 PUSH1 0x20 DUP6 LT PUSH2 0xE98 JUMPI JUMPDEST SWAP1 PUSH1 0x1F DUP6 SWAP5 SWAP4 SWAP3 ADD PUSH1 0x5 SHR ADD SWAP1 JUMPDEST DUP2 DUP2 LT PUSH2 0xE8A JUMPI POP PUSH2 0x731 JUMP JUMPDEST PUSH0 DUP2 SSTORE DUP5 SWAP4 POP PUSH1 0x1 ADD PUSH2 0xE7D JUMP JUMPDEST SWAP1 SWAP2 POP DUP2 SWAP1 PUSH2 0xE6F JUMP JUMPDEST ADD MLOAD SWAP1 POP DUP10 DUP1 PUSH2 0x6EE JUMP JUMPDEST PUSH0 DUP6 DUP2 MSTORE DUP3 DUP2 KECCAK256 SWAP4 POP PUSH1 0x1F NOT DUP6 AND SWAP1 JUMPDEST DUP2 DUP2 LT PUSH2 0xEF8 JUMPI POP SWAP1 DUP5 PUSH1 0x1 SWAP6 SWAP5 SWAP4 SWAP3 LT PUSH2 0xEE0 JUMPI JUMPDEST POP POP POP DUP2 SHL ADD DUP2 SSTORE PUSH2 0x702 JUMP JUMPDEST ADD MLOAD PUSH0 NOT PUSH1 0xF8 DUP5 PUSH1 0x3 SHL AND SHR NOT AND SWAP1 SSTORE DUP10 DUP1 DUP1 PUSH2 0xED3 JUMP JUMPDEST SWAP3 SWAP4 PUSH1 0x20 PUSH1 0x1 DUP2 SWAP3 DUP8 DUP7 ADD MLOAD DUP2 SSTORE ADD SWAP6 ADD SWAP4 ADD PUSH2 0xEBD JUMP JUMPDEST SWAP1 SWAP2 POP DUP4 PUSH0 MSTORE PUSH1 0x20 PUSH0 KECCAK256 PUSH1 0x1F DUP5 ADD PUSH1 0x5 SHR DUP2 ADD SWAP2 PUSH1 0x20 DUP6 LT PUSH2 0xF56 JUMPI JUMPDEST SWAP1 PUSH1 0x1F DUP6 SWAP5 SWAP4 SWAP3 ADD PUSH1 0x5 SHR ADD SWAP1 JUMPDEST DUP2 DUP2 LT PUSH2 0xF48 JUMPI POP PUSH2 0x6D8 JUMP JUMPDEST PUSH0 DUP2 SSTORE DUP5 SWAP4 POP PUSH1 0x1 ADD PUSH2 0xF3B JUMP JUMPDEST SWAP1 SWAP2 POP DUP2 SWAP1 PUSH2 0xF2D JUMP JUMPDEST ADD MLOAD SWAP1 POP DUP10 DUP1 PUSH2 0x686 JUMP JUMPDEST PUSH0 DUP6 DUP2 MSTORE DUP3 DUP2 KECCAK256 SWAP4 POP PUSH1 0x1F NOT DUP6 AND SWAP1 JUMPDEST DUP2 DUP2 LT PUSH2 0xFB6 JUMPI POP SWAP1 DUP5 PUSH1 0x1 SWAP6 SWAP5 SWAP4 SWAP3 LT PUSH2 0xF9E JUMPI JUMPDEST POP POP POP DUP2 SHL ADD SWAP1 SSTORE PUSH2 0x69A JUMP JUMPDEST ADD MLOAD PUSH0 NOT PUSH1 0xF8 DUP5 PUSH1 0x3 SHL AND SHR NOT AND SWAP1 SSTORE DUP10 DUP1 DUP1 PUSH2 0xF91 JUMP JUMPDEST SWAP3 SWAP4 PUSH1 0x20 PUSH1 0x1 DUP2 SWAP3 DUP8 DUP7 ADD MLOAD DUP2 SSTORE ADD SWAP6 ADD SWAP4 ADD PUSH2 0xF7B JUMP JUMPDEST SWAP1 SWAP2 POP DUP4 PUSH0 MSTORE PUSH1 0x20 PUSH0 KECCAK256 PUSH1 0x1F DUP5 ADD PUSH1 0x5 SHR DUP2 ADD SWAP2 PUSH1 0x20 DUP6 LT PUSH2 0x1014 JUMPI JUMPDEST SWAP1 PUSH1 0x1F DUP6 SWAP5 SWAP4 SWAP3 ADD PUSH1 0x5 SHR ADD SWAP1 JUMPDEST DUP2 DUP2 LT PUSH2 0x1006 JUMPI POP PUSH2 0x670 JUMP JUMPDEST PUSH0 DUP2 SSTORE DUP5 SWAP4 POP PUSH1 0x1 ADD PUSH2 0xFF9 JUMP JUMPDEST SWAP1 SWAP2 POP DUP2 SWAP1 PUSH2 0xFEB JUMP JUMPDEST ADD MLOAD SWAP1 POP DUP11 DUP1 PUSH2 0x631 JUMP JUMPDEST SWAP1 PUSH1 0x1F NOT DUP4 AND SWAP2 DUP5 PUSH0 MSTORE DUP2 PUSH0 KECCAK256 SWAP3 PUSH0 JUMPDEST DUP2 DUP2 LT PUSH2 0x1077 JUMPI POP SWAP2 PUSH1 0x1 SWAP6 SWAP5 SWAP3 SWAP2 DUP4 DUP8 SWAP6 SWAP4 LT PUSH2 0x105F JUMPI JUMPDEST POP POP POP DUP2 SHL ADD DUP2 SSTORE PUSH2 0x644 JUMP JUMPDEST ADD MLOAD PUSH0 NOT PUSH1 0xF8 DUP5 PUSH1 0x3 SHL AND SHR NOT AND SWAP1 SSTORE DUP11 DUP1 DUP1 PUSH2 0x1052 JUMP JUMPDEST SWAP3 SWAP4 PUSH1 0x20 PUSH1 0x1 DUP2 SWAP3 DUP8 DUP7 ADD MLOAD DUP2 SSTORE ADD SWAP6 ADD SWAP4 ADD PUSH2 0x1039 JUMP JUMPDEST DUP4 PUSH0 MSTORE PUSH1 0x20 PUSH0 KECCAK256 PUSH1 0x1F DUP5 ADD PUSH1 0x5 SHR DUP2 ADD SWAP2 PUSH1 0x20 DUP6 LT PUSH2 0x10CA JUMPI JUMPDEST PUSH1 0x1F ADD PUSH1 0x5 SHR ADD SWAP1 JUMPDEST DUP2 DUP2 LT PUSH2 0x10BF JUMPI POP PUSH2 0x615 JUMP JUMPDEST PUSH0 DUP2 SSTORE PUSH1 0x1 ADD PUSH2 0x10B2 JUMP JUMPDEST SWAP1 SWAP2 POP DUP2 SWAP1 PUSH2 0x10A9 JUMP JUMPDEST CALLVALUE PUSH2 0x1C8 JUMPI PUSH2 0x10ED PUSH2 0x10E5 CALLDATASIZE PUSH2 0x3C2B JUMP JUMPDEST DUP2 SWAP3 SWAP2 PUSH2 0x4133 JUMP JUMPDEST PUSH1 0x2 SLOAD SWAP1 PUSH1 0x20 DUP2 ADD SWAP1 PUSH0 JUMPDEST DUP4 DUP2 LT PUSH2 0x1101 JUMPI STOP JUMPDEST PUSH2 0x110A DUP2 PUSH2 0x38B8 JUMP JUMPDEST POP PUSH1 0x40 MLOAD PUSH2 0x1120 DUP2 PUSH2 0x566 PUSH1 0x20 DUP3 ADD DUP1 SWAP6 PUSH2 0x3DA3 JUMP JUMPDEST MLOAD SWAP1 KECCAK256 PUSH1 0x40 MLOAD PUSH1 0x20 DUP2 ADD SWAP1 PUSH2 0x114D PUSH1 0x20 DUP3 DUP8 MLOAD DUP1 DUP11 DUP8 MCOPY DUP2 ADD PUSH0 DUP4 DUP3 ADD MSTORE SUB ADD PUSH1 0x1F NOT DUP2 ADD DUP4 MSTORE DUP3 PUSH2 0x36A6 JUMP JUMPDEST MLOAD SWAP1 KECCAK256 EQ PUSH2 0x115E JUMPI JUMPDEST PUSH1 0x1 ADD PUSH2 0x10F8 JUMP JUMPDEST PUSH1 0x3 PUSH2 0x1169 DUP3 PUSH2 0x38B8 JUMP JUMPDEST POP ADD PUSH2 0x600 PUSH2 0xFF00 NOT DUP3 SLOAD AND OR SWAP1 SSTORE PUSH1 0x82 TIMESTAMP ADD SWAP1 DUP2 TIMESTAMP GT PUSH2 0x330 JUMPI PUSH1 0x1 SWAP2 PUSH1 0x5 PUSH2 0x1192 DUP4 PUSH2 0x38B8 JUMP JUMPDEST POP ADD SSTORE SWAP1 POP PUSH2 0x1156 JUMP JUMPDEST CALLVALUE PUSH2 0x1C8 JUMPI PUSH1 0x20 CALLDATASIZE PUSH1 0x3 NOT ADD SLT PUSH2 0x1C8 JUMPI PUSH1 0x4 CALLDATALOAD PUSH1 0x1 PUSH1 0x1 PUSH1 0x40 SHL SUB DUP2 GT PUSH2 0x1C8 JUMPI PUSH2 0x4AF PUSH2 0x11D2 PUSH2 0x390 SWAP3 CALLDATASIZE SWAP1 PUSH1 0x4 ADD PUSH2 0x36C7 JUMP JUMPDEST PUSH2 0x4076 JUMP JUMPDEST CALLVALUE PUSH2 0x1C8 JUMPI PUSH2 0x1C6 PUSH2 0x11E8 CALLDATASIZE PUSH2 0x3B4A JUMP JUMPDEST SWAP1 PUSH2 0x3F9C JUMP JUMPDEST CALLVALUE PUSH2 0x1C8 JUMPI PUSH2 0x1207 PUSH2 0x11FF CALLDATASIZE PUSH2 0x3B4A JUMP JUMPDEST DUP2 SWAP3 SWAP2 PUSH2 0x3F9C JUMP JUMPDEST PUSH1 0x2 SLOAD PUSH1 0x20 DUP3 ADD PUSH0 JUMPDEST DUP3 DUP2 LT PUSH2 0x1219 JUMPI STOP JUMPDEST DUP1 PUSH2 0x1225 PUSH1 0x1 SWAP3 PUSH2 0x38B8 JUMP JUMPDEST POP PUSH1 0x40 MLOAD PUSH2 0x123B DUP2 PUSH2 0x566 PUSH1 0x20 DUP3 ADD DUP1 SWAP6 PUSH2 0x3DA3 JUMP JUMPDEST MLOAD SWAP1 KECCAK256 PUSH1 0x40 MLOAD PUSH1 0x20 DUP2 ADD SWAP1 PUSH2 0x1268 PUSH1 0x20 DUP3 DUP11 MLOAD DUP1 DUP11 DUP8 MCOPY DUP2 ADD PUSH0 DUP4 DUP3 ADD MSTORE SUB ADD PUSH1 0x1F NOT DUP2 ADD DUP4 MSTORE DUP3 PUSH2 0x36A6 JUMP JUMPDEST MLOAD SWAP1 KECCAK256 EQ PUSH2 0x1277 JUMPI JUMPDEST ADD PUSH2 0x1210 JUMP JUMPDEST PUSH1 0x3 PUSH2 0x1282 DUP3 PUSH2 0x38B8 JUMP JUMPDEST POP ADD DUP1 SLOAD PUSH2 0xFF00 NOT AND PUSH2 0x500 OR SWAP1 SSTORE PUSH2 0x1271 JUMP JUMPDEST CALLVALUE PUSH2 0x1C8 JUMPI PUSH1 0x20 CALLDATASIZE PUSH1 0x3 NOT ADD SLT PUSH2 0x1C8 JUMPI PUSH1 0x4 CALLDATALOAD PUSH1 0x1 PUSH1 0x1 PUSH1 0x40 SHL SUB DUP2 GT PUSH2 0x1C8 JUMPI PUSH2 0x12C6 SWAP1 CALLDATASIZE SWAP1 PUSH1 0x4 ADD PUSH2 0x36C7 JUMP JUMPDEST PUSH2 0x12CE PUSH2 0x3D55 JUMP JUMPDEST POP PUSH1 0x40 MLOAD PUSH2 0x12DB DUP2 PUSH2 0x3653 JUMP JUMPDEST PUSH1 0x60 DUP2 MSTORE PUSH1 0x20 ADD PUSH1 0x60 SWAP1 MSTORE PUSH1 0x40 MLOAD PUSH2 0x12F2 DUP2 PUSH2 0x366E JUMP JUMPDEST PUSH1 0x60 DUP2 MSTORE PUSH1 0x20 DUP2 ADD PUSH1 0x60 SWAP1 MSTORE PUSH1 0x40 DUP2 ADD PUSH1 0x60 SWAP1 MSTORE PUSH1 0x60 DUP2 ADD PUSH1 0x60 SWAP1 MSTORE PUSH1 0x80 DUP2 ADD PUSH1 0x60 SWAP1 MSTORE PUSH1 0xA0 DUP2 ADD PUSH1 0x60 SWAP1 MSTORE PUSH1 0xC0 DUP2 ADD PUSH1 0x60 SWAP1 MSTORE PUSH1 0xE0 ADD PUSH1 0x60 SWAP1 MSTORE PUSH1 0x40 MLOAD SWAP1 DUP1 MLOAD SWAP2 DUP1 PUSH1 0x20 DUP4 ADD SWAP4 DUP1 DUP6 DUP4 MCOPY DUP2 ADD PUSH1 0x3 DUP2 MSTORE SUB PUSH1 0x20 ADD SWAP1 KECCAK256 SWAP2 PUSH1 0x40 MLOAD DUP1 DUP4 MLOAD DUP1 DUP5 DUP4 MCOPY DUP2 ADD PUSH1 0x4 DUP2 MSTORE SUB PUSH1 0x20 ADD SWAP1 KECCAK256 SWAP2 PUSH1 0x40 MLOAD SWAP2 DUP3 SWAP2 MLOAD DUP1 SWAP2 DUP4 MCOPY DUP2 ADD PUSH1 0x5 DUP2 MSTORE SUB PUSH1 0x20 ADD SWAP1 KECCAK256 PUSH1 0x40 MLOAD SWAP2 PUSH2 0x1386 DUP4 PUSH2 0x361D JUMP JUMPDEST PUSH2 0x138F DUP5 PUSH2 0x37CC JUMP JUMPDEST DUP4 MSTORE PUSH2 0x139D PUSH1 0x1 DUP6 ADD PUSH2 0x37CC JUMP JUMPDEST SWAP4 PUSH1 0x20 DUP5 ADD SWAP5 DUP6 MSTORE PUSH1 0x2 ADD SLOAD PUSH1 0xFF AND SWAP2 PUSH1 0x40 DUP5 ADD SWAP3 DUP4 MSTORE PUSH1 0x40 MLOAD SWAP2 PUSH2 0x13C1 DUP4 PUSH2 0x3653 JUMP JUMPDEST PUSH2 0x13CA DUP2 PUSH2 0x37CC JUMP JUMPDEST DUP4 MSTORE PUSH1 0x1 ADD PUSH2 0x13D8 SWAP1 PUSH2 0x37CC JUMP JUMPDEST PUSH1 0x20 DUP4 ADD SWAP1 DUP2 MSTORE PUSH1 0x40 MLOAD SWAP4 PUSH2 0x13EC DUP6 PUSH2 0x366E JUMP JUMPDEST PUSH2 0x13F5 DUP4 PUSH2 0x37CC JUMP JUMPDEST DUP6 MSTORE PUSH2 0x1403 PUSH1 0x1 DUP5 ADD PUSH2 0x37CC JUMP JUMPDEST PUSH1 0x20 DUP7 ADD SWAP1 DUP2 MSTORE PUSH2 0x1416 PUSH1 0x2 DUP6 ADD PUSH2 0x37CC JUMP JUMPDEST PUSH1 0x40 DUP8 ADD SWAP1 DUP2 MSTORE PUSH2 0x1429 PUSH1 0x3 DUP7 ADD PUSH2 0x37CC JUMP JUMPDEST PUSH1 0x60 DUP9 ADD SWAP1 DUP2 MSTORE SWAP2 PUSH2 0x143D PUSH1 0x4 DUP8 ADD PUSH2 0x37CC JUMP JUMPDEST PUSH1 0x80 DUP10 ADD SWAP1 DUP2 MSTORE SWAP4 PUSH2 0x1451 PUSH1 0x5 DUP9 ADD PUSH2 0x37CC JUMP JUMPDEST PUSH1 0xA0 DUP11 ADD SWAP1 DUP2 MSTORE SWAP6 PUSH2 0x1465 PUSH1 0x6 DUP10 ADD PUSH2 0x37CC JUMP JUMPDEST SWAP8 PUSH1 0xC0 DUP12 ADD SWAP9 DUP10 MSTORE PUSH1 0x7 ADD PUSH2 0x1479 SWAP1 PUSH2 0x37CC JUMP JUMPDEST SWAP9 PUSH1 0xE0 DUP12 ADD SWAP10 DUP11 MSTORE PUSH1 0x40 MLOAD SWAP13 DUP14 SWAP13 PUSH1 0x60 DUP15 MSTORE MLOAD DUP14 PUSH1 0x60 DUP2 ADD PUSH1 0x60 SWAP1 MSTORE PUSH1 0xC0 ADD PUSH2 0x14A1 SWAP2 PUSH2 0x371C JUMP JUMPDEST SWAP1 MLOAD DUP14 DUP3 SUB PUSH1 0x5F NOT ADD PUSH1 0x80 DUP16 ADD MSTORE PUSH2 0x14B9 SWAP2 SWAP1 PUSH2 0x371C JUMP JUMPDEST SWAP3 MLOAD PUSH1 0xFF AND PUSH1 0xA0 DUP14 ADD MSTORE DUP12 DUP4 SUB PUSH1 0x20 DUP14 ADD MSTORE MLOAD PUSH1 0x40 DUP4 MSTORE PUSH1 0x40 DUP4 ADD PUSH2 0x14DD SWAP2 PUSH2 0x371C JUMP JUMPDEST SWAP1 MLOAD SWAP2 DUP1 DUP3 SUB SWAP1 PUSH1 0x20 ADD MSTORE PUSH2 0x14F1 SWAP2 PUSH2 0x371C JUMP JUMPDEST SWAP8 DUP10 DUP10 SUB PUSH1 0x40 DUP12 ADD MSTORE MLOAD PUSH2 0x100 DUP10 MSTORE PUSH2 0x100 DUP10 ADD PUSH2 0x150E SWAP2 PUSH2 0x371C JUMP JUMPDEST SWAP1 MLOAD SWAP1 DUP9 DUP2 SUB PUSH1 0x20 DUP11 ADD MSTORE PUSH2 0x1522 SWAP2 PUSH2 0x371C JUMP JUMPDEST SWAP1 MLOAD SWAP1 DUP8 DUP2 SUB PUSH1 0x40 DUP10 ADD MSTORE PUSH2 0x1536 SWAP2 PUSH2 0x371C JUMP JUMPDEST SWAP1 MLOAD SWAP1 DUP7 DUP2 SUB PUSH1 0x60 DUP9 ADD MSTORE PUSH2 0x154A SWAP2 PUSH2 0x371C JUMP JUMPDEST SWAP1 MLOAD SWAP1 DUP6 DUP2 SUB PUSH1 0x80 DUP8 ADD MSTORE PUSH2 0x155E SWAP2 PUSH2 0x371C JUMP JUMPDEST SWAP1 MLOAD SWAP1 DUP5 DUP2 SUB PUSH1 0xA0 DUP7 ADD MSTORE PUSH2 0x1572 SWAP2 PUSH2 0x371C JUMP JUMPDEST SWAP1 MLOAD SWAP1 DUP4 DUP2 SUB PUSH1 0xC0 DUP6 ADD MSTORE PUSH2 0x1586 SWAP2 PUSH2 0x371C JUMP JUMPDEST SWAP1 MLOAD SWAP2 DUP1 DUP3 SUB SWAP1 PUSH1 0xE0 ADD MSTORE PUSH2 0x390 SWAP2 PUSH2 0x371C JUMP JUMPDEST CALLVALUE PUSH2 0x1C8 JUMPI PUSH1 0x20 CALLDATASIZE PUSH1 0x3 NOT ADD SLT PUSH2 0x1C8 JUMPI PUSH1 0x4 CALLDATALOAD PUSH1 0x1 PUSH1 0x1 PUSH1 0x40 SHL SUB DUP2 GT PUSH2 0x1C8 JUMPI PUSH1 0x20 DUP1 PUSH2 0x15D0 PUSH2 0x1614 SWAP4 CALLDATASIZE SWAP1 PUSH1 0x4 ADD PUSH2 0x36C7 JUMP JUMPDEST PUSH1 0x40 MLOAD SWAP3 DUP2 DUP5 SWAP3 MLOAD SWAP2 DUP3 SWAP2 ADD DUP4 MCOPY DUP2 ADD PUSH1 0x4 DUP2 MSTORE SUB ADD SWAP1 KECCAK256 PUSH2 0x390 PUSH2 0x1600 PUSH1 0x1 PUSH2 0x15F9 DUP5 PUSH2 0x37CC JUMP JUMPDEST SWAP4 ADD PUSH2 0x37CC JUMP JUMPDEST PUSH1 0x40 MLOAD SWAP4 DUP5 SWAP4 PUSH1 0x40 DUP6 MSTORE PUSH1 0x40 DUP6 ADD SWAP1 PUSH2 0x371C JUMP JUMPDEST SWAP1 DUP4 DUP3 SUB PUSH1 0x20 DUP6 ADD MSTORE PUSH2 0x371C JUMP JUMPDEST CALLVALUE PUSH2 0x1C8 JUMPI PUSH1 0x20 CALLDATASIZE PUSH1 0x3 NOT ADD SLT PUSH2 0x1C8 JUMPI PUSH1 0x4 CALLDATALOAD PUSH1 0x1 PUSH1 0x1 PUSH1 0x40 SHL SUB DUP2 GT PUSH2 0x1C8 JUMPI PUSH2 0x457 PUSH2 0x1658 PUSH2 0x390 SWAP3 CALLDATASIZE SWAP1 PUSH1 0x4 ADD PUSH2 0x36C7 JUMP JUMPDEST PUSH2 0x3E49 JUMP JUMPDEST CALLVALUE PUSH2 0x1C8 JUMPI PUSH1 0x20 CALLDATASIZE PUSH1 0x3 NOT ADD SLT PUSH2 0x1C8 JUMPI PUSH1 0x4 CALLDATALOAD PUSH1 0x1 PUSH1 0x1 PUSH1 0x40 SHL SUB DUP2 GT PUSH2 0x1C8 JUMPI PUSH1 0x20 DUP1 PUSH2 0x1693 PUSH2 0x16E1 SWAP4 CALLDATASIZE SWAP1 PUSH1 0x4 ADD PUSH2 0x36C7 JUMP JUMPDEST PUSH1 0x40 MLOAD SWAP3 DUP2 DUP5 SWAP3 MLOAD SWAP2 DUP3 SWAP2 ADD DUP4 MCOPY DUP2 ADD PUSH1 0x3 DUP2 MSTORE SUB ADD SWAP1 KECCAK256 PUSH2 0x16B4 DUP2 PUSH2 0x37CC JUMP JUMPDEST SWAP1 PUSH2 0x16EF PUSH1 0xFF PUSH1 0x2 PUSH2 0x16C8 PUSH1 0x1 DUP6 ADD PUSH2 0x37CC JUMP JUMPDEST SWAP4 ADD SLOAD AND SWAP2 PUSH1 0x40 MLOAD SWAP5 DUP6 SWAP5 PUSH1 0x60 DUP7 MSTORE PUSH1 0x60 DUP7 ADD SWAP1 PUSH2 0x371C JUMP JUMPDEST SWAP1 DUP5 DUP3 SUB PUSH1 0x20 DUP7 ADD MSTORE PUSH2 0x371C JUMP JUMPDEST SWAP1 PUSH1 0x40 DUP4 ADD MSTORE SUB SWAP1 RETURN JUMPDEST CALLVALUE PUSH2 0x1C8 JUMPI PUSH1 0x20 CALLDATASIZE PUSH1 0x3 NOT ADD SLT PUSH2 0x1C8 JUMPI PUSH1 0x4 CALLDATALOAD PUSH1 0x1 PUSH1 0x1 PUSH1 0x40 SHL SUB DUP2 GT PUSH2 0x1C8 JUMPI PUSH2 0x1729 SWAP1 CALLDATASIZE SWAP1 PUSH1 0x4 ADD PUSH2 0x36C7 JUMP JUMPDEST PUSH1 0x2 SLOAD PUSH1 0x20 DUP3 ADD SWAP2 PUSH0 DUP1 JUMPDEST DUP4 DUP2 LT PUSH2 0x17F9 JUMPI POP PUSH1 0xFF PUSH2 0x1748 SWAP2 AND PUSH2 0x3E94 JUMP JUMPDEST SWAP3 PUSH0 SWAP2 PUSH0 JUMPDEST DUP5 DUP2 LT PUSH2 0x1762 JUMPI PUSH1 0x40 MLOAD DUP1 PUSH2 0x390 DUP9 DUP3 PUSH2 0x3A7A JUMP JUMPDEST PUSH1 0x2 PUSH2 0x566 PUSH2 0x1787 PUSH2 0x1773 DUP5 PUSH2 0x38B8 JUMP JUMPDEST POP PUSH1 0x40 MLOAD SWAP3 DUP4 SWAP2 PUSH1 0x20 DUP4 ADD SWAP6 DUP7 SWAP2 ADD PUSH2 0x3DA3 JUMP JUMPDEST MLOAD SWAP1 KECCAK256 PUSH1 0x40 MLOAD PUSH1 0x20 DUP2 ADD SWAP1 PUSH2 0x17B4 PUSH1 0x20 DUP3 DUP8 MLOAD DUP1 DUP11 DUP8 MCOPY DUP2 ADD PUSH0 DUP4 DUP3 ADD MSTORE SUB ADD PUSH1 0x1F NOT DUP2 ADD DUP4 MSTORE DUP3 PUSH2 0x36A6 JUMP JUMPDEST MLOAD SWAP1 KECCAK256 EQ PUSH2 0x17C5 JUMPI JUMPDEST PUSH1 0x1 ADD PUSH2 0x174D JUMP JUMPDEST SWAP3 PUSH2 0x17F1 PUSH1 0x1 SWAP2 PUSH2 0x3C5 PUSH2 0x17DB PUSH2 0x3A9 DUP9 PUSH2 0x38B8 JUMP JUMPDEST PUSH1 0xFF DUP4 AND SWAP1 PUSH2 0x17EA DUP3 DUP13 PUSH2 0x3F11 JUMP JUMPDEST MSTORE DUP10 PUSH2 0x3F11 JUMP JUMPDEST SWAP4 SWAP1 POP PUSH2 0x17BD JUMP JUMPDEST PUSH1 0x2 PUSH2 0x566 PUSH2 0x180A PUSH2 0x1773 DUP5 PUSH2 0x38B8 JUMP JUMPDEST MLOAD SWAP1 KECCAK256 PUSH1 0x40 MLOAD PUSH1 0x20 DUP2 ADD SWAP1 PUSH2 0x1837 PUSH1 0x20 DUP3 DUP9 MLOAD DUP1 DUP13 DUP8 MCOPY DUP2 ADD PUSH0 DUP4 DUP3 ADD MSTORE SUB ADD PUSH1 0x1F NOT DUP2 ADD DUP4 MSTORE DUP3 PUSH2 0x36A6 JUMP JUMPDEST MLOAD SWAP1 KECCAK256 EQ PUSH2 0x1848 JUMPI JUMPDEST PUSH1 0x1 ADD PUSH2 0x1734 JUMP JUMPDEST SWAP1 PUSH2 0x1854 PUSH1 0x1 SWAP2 PUSH2 0x3E6C JUMP JUMPDEST SWAP2 SWAP1 POP PUSH2 0x1840 JUMP JUMPDEST CALLVALUE PUSH2 0x1C8 JUMPI PUSH1 0xE0 CALLDATASIZE PUSH1 0x3 NOT ADD SLT PUSH2 0x1C8 JUMPI PUSH1 0x4 CALLDATALOAD PUSH1 0x1 PUSH1 0x1 PUSH1 0x40 SHL SUB DUP2 GT PUSH2 0x1C8 JUMPI PUSH2 0x188C SWAP1 CALLDATASIZE SWAP1 PUSH1 0x4 ADD PUSH2 0x36C7 JUMP JUMPDEST PUSH1 0x24 CALLDATALOAD PUSH1 0x1 PUSH1 0x1 PUSH1 0x40 SHL SUB DUP2 GT PUSH2 0x1C8 JUMPI PUSH2 0x18AB SWAP1 CALLDATASIZE SWAP1 PUSH1 0x4 ADD PUSH2 0x36C7 JUMP JUMPDEST PUSH1 0x44 CALLDATALOAD PUSH1 0x1 PUSH1 0x1 PUSH1 0x40 SHL SUB DUP2 GT PUSH2 0x1C8 JUMPI PUSH2 0x18CA SWAP1 CALLDATASIZE SWAP1 PUSH1 0x4 ADD PUSH2 0x36C7 JUMP JUMPDEST SWAP2 PUSH1 0x64 CALLDATALOAD PUSH1 0x1 PUSH1 0x1 PUSH1 0xA0 SHL SUB DUP2 AND DUP2 SUB PUSH2 0x1C8 JUMPI PUSH1 0x84 CALLDATALOAD SWAP4 PUSH1 0xFF DUP6 AND DUP1 SWAP6 SUB PUSH2 0x1C8 JUMPI PUSH1 0xA4 CALLDATALOAD PUSH1 0x1 PUSH1 0x1 PUSH1 0x40 SHL SUB DUP2 GT PUSH2 0x1C8 JUMPI PUSH2 0x190C SWAP1 CALLDATASIZE SWAP1 PUSH1 0x4 ADD PUSH2 0x38E8 JUMP JUMPDEST SWAP2 PUSH1 0xC4 CALLDATALOAD SWAP1 PUSH1 0x1 PUSH1 0x1 PUSH1 0x40 SHL SUB DUP3 GT PUSH2 0x1C8 JUMPI DUP3 PUSH2 0x1931 PUSH2 0x1937 SWAP4 CALLDATASIZE SWAP1 PUSH1 0x4 ADD PUSH2 0x3947 JUMP JUMPDEST SWAP7 PUSH2 0x3E0D JUMP JUMPDEST SWAP5 PUSH2 0x1987 DUP5 PUSH1 0x20 SWAP8 PUSH1 0x40 MLOAD SWAP1 PUSH2 0x194D DUP11 DUP4 PUSH2 0x36A6 JUMP JUMPDEST PUSH0 DUP3 MSTORE PUSH1 0x40 MLOAD PUSH2 0x195D DUP12 DUP3 PUSH2 0x36A6 JUMP JUMPDEST PUSH0 DUP2 MSTORE PUSH2 0x1968 PUSH2 0x3D55 JUMP JUMPDEST POP PUSH1 0x40 MLOAD SWAP3 PUSH2 0x1976 DUP5 PUSH2 0x361D JUMP JUMPDEST DUP4 MSTORE DUP11 DUP4 ADD MSTORE PUSH0 PUSH1 0x40 DUP4 ADD MSTORE PUSH2 0x4981 JUMP JUMPDEST PUSH1 0x40 MLOAD PUSH2 0x1993 DUP2 PUSH2 0x361D JUMP JUMPDEST DUP5 DUP2 MSTORE PUSH1 0x40 MLOAD PUSH2 0x19A3 DUP9 DUP3 PUSH2 0x36A6 JUMP JUMPDEST PUSH0 DUP2 MSTORE DUP8 DUP3 ADD SWAP1 DUP2 MSTORE PUSH1 0x40 DUP3 ADD SWAP1 DUP4 DUP3 MSTORE PUSH1 0x40 MLOAD DUP10 DUP2 DUP10 MLOAD DUP1 DUP4 DUP13 ADD DUP4 MCOPY DUP2 ADD PUSH1 0x3 DUP2 MSTORE SUB ADD SWAP1 KECCAK256 SWAP3 MLOAD DUP1 MLOAD SWAP1 PUSH1 0x1 PUSH1 0x1 PUSH1 0x40 SHL SUB DUP3 GT PUSH2 0x31C JUMPI DUP2 SWAP1 PUSH2 0x19EA DUP7 SLOAD PUSH2 0x3794 JUMP JUMPDEST PUSH1 0x1F DUP2 GT PUSH2 0x2BB0 JUMPI JUMPDEST POP DUP12 SWAP1 PUSH1 0x1F DUP4 GT PUSH1 0x1 EQ PUSH2 0x2B4B JUMPI PUSH0 SWAP3 PUSH2 0x2B40 JUMPI JUMPDEST POP POP DUP2 PUSH1 0x1 SHL SWAP2 PUSH0 NOT SWAP1 PUSH1 0x3 SHL SHR NOT AND OR DUP4 SSTORE JUMPDEST MLOAD DUP1 MLOAD PUSH1 0x1 DUP5 ADD SWAP2 PUSH1 0x1 PUSH1 0x1 PUSH1 0x40 SHL SUB DUP3 GT PUSH2 0x31C JUMPI PUSH2 0x1A3C DUP4 SLOAD PUSH2 0x3794 JUMP JUMPDEST PUSH1 0x1F DUP2 GT PUSH2 0x2AFD JUMPI JUMPDEST POP DUP11 SWAP1 PUSH1 0x1F DUP4 GT PUSH1 0x1 EQ PUSH2 0x2A90 JUMPI SWAP3 DUP3 PUSH1 0xFF SWAP6 SWAP3 SWAP4 DUP7 SWAP5 PUSH1 0x2 SWAP7 PUSH0 SWAP3 PUSH2 0x2A85 JUMPI JUMPDEST POP POP DUP2 PUSH1 0x1 SHL SWAP2 PUSH0 NOT SWAP1 PUSH1 0x3 SHL SHR NOT AND OR SWAP1 SSTORE JUMPDEST MLOAD AND SWAP3 ADD SWAP2 AND PUSH1 0xFF NOT DUP3 SLOAD AND OR SWAP1 SSTORE PUSH1 0x40 MLOAD SWAP1 PUSH2 0x1A96 DUP3 PUSH2 0x3638 JUMP JUMPDEST DUP5 DUP3 MSTORE PUSH1 0x40 MLOAD SWAP3 PUSH2 0x1AA7 DUP9 DUP6 PUSH2 0x36A6 JUMP JUMPDEST PUSH0 DUP5 MSTORE DUP8 DUP4 ADD SWAP4 DUP5 MSTORE PUSH1 0x40 DUP4 ADD MSTORE PUSH1 0x60 DUP3 ADD MSTORE PUSH0 PUSH1 0x80 DUP3 ADD MSTORE PUSH1 0x40 MLOAD PUSH2 0x1ACD DUP8 DUP3 PUSH2 0x36A6 JUMP JUMPDEST PUSH0 DUP2 MSTORE PUSH1 0xA0 DUP3 ADD MSTORE PUSH0 PUSH1 0xC0 DUP3 ADD MSTORE PUSH1 0x2 SLOAD PUSH9 0x10000000000000000 DUP2 LT ISZERO PUSH2 0x31C JUMPI DUP1 PUSH1 0x1 PUSH2 0x1AFF SWAP3 ADD PUSH1 0x2 SSTORE PUSH2 0x38B8 JUMP JUMPDEST SWAP3 SWAP1 SWAP3 PUSH2 0x2A72 JUMPI DUP2 MLOAD DUP1 MLOAD SWAP1 PUSH1 0x1 PUSH1 0x1 PUSH1 0x40 SHL SUB DUP3 GT PUSH2 0x31C JUMPI DUP2 SWAP1 PUSH2 0x1B25 DUP7 SLOAD PUSH2 0x3794 JUMP JUMPDEST PUSH1 0x1F DUP2 GT PUSH2 0x2A24 JUMPI JUMPDEST POP DUP10 SWAP1 PUSH1 0x1F DUP4 GT PUSH1 0x1 EQ PUSH2 0x29C1 JUMPI PUSH0 SWAP3 PUSH2 0x29B6 JUMPI JUMPDEST POP POP DUP2 PUSH1 0x1 SHL SWAP2 PUSH0 NOT SWAP1 PUSH1 0x3 SHL SHR NOT AND OR DUP4 SSTORE JUMPDEST MLOAD DUP1 MLOAD SWAP1 PUSH1 0x1 PUSH1 0x1 PUSH1 0x40 SHL SUB DUP3 GT PUSH2 0x31C JUMPI DUP2 SWAP1 PUSH2 0x1B78 PUSH1 0x1 DUP7 ADD SLOAD PUSH2 0x3794 JUMP JUMPDEST PUSH1 0x1F DUP2 GT PUSH2 0x2965 JUMPI JUMPDEST POP DUP9 SWAP1 PUSH1 0x1F DUP4 GT PUSH1 0x1 EQ PUSH2 0x28FB JUMPI PUSH0 SWAP3 PUSH2 0x28F0 JUMPI JUMPDEST POP POP DUP2 PUSH1 0x1 SHL SWAP2 PUSH0 NOT SWAP1 PUSH1 0x3 SHL SHR NOT AND OR PUSH1 0x1 DUP4 ADD SSTORE JUMPDEST PUSH1 0x2 DUP3 ADD PUSH1 0x40 DUP3 ADD MLOAD DUP1 MLOAD SWAP1 PUSH1 0x1 PUSH1 0x1 PUSH1 0x40 SHL SUB DUP3 GT PUSH2 0x31C JUMPI DUP2 SWAP1 PUSH2 0x1BD3 DUP5 SLOAD PUSH2 0x3794 JUMP JUMPDEST PUSH1 0x1F DUP2 GT PUSH2 0x28A2 JUMPI JUMPDEST POP DUP10 SWAP1 PUSH1 0x1F DUP4 GT PUSH1 0x1 EQ PUSH2 0x283F JUMPI PUSH0 SWAP3 PUSH2 0x2834 JUMPI JUMPDEST POP POP DUP2 PUSH1 0x1 SHL SWAP2 PUSH0 NOT SWAP1 PUSH1 0x3 SHL SHR NOT AND OR SWAP1 SSTORE JUMPDEST PUSH1 0x3 DUP3 ADD PUSH1 0xFF DUP1 PUSH1 0x60 DUP5 ADD MLOAD AND AND PUSH1 0xFF NOT DUP3 SLOAD AND OR DUP2 SSTORE PUSH1 0x80 DUP3 ADD MLOAD PUSH1 0x7 DUP2 LT ISZERO PUSH2 0x2820 JUMPI PUSH2 0xFF00 DUP3 SLOAD SWAP2 PUSH1 0x8 SHL AND SWAP1 PUSH2 0xFF00 NOT AND OR SWAP1 SSTORE PUSH1 0x4 DUP3 ADD PUSH1 0xA0 DUP3 ADD MLOAD DUP1 MLOAD SWAP1 PUSH1 0x1 PUSH1 0x1 PUSH1 0x40 SHL SUB DUP3 GT PUSH2 0x31C JUMPI PUSH2 0x1C61 DUP4 SLOAD PUSH2 0x3794 JUMP JUMPDEST PUSH1 0x1F DUP2 GT PUSH2 0x27DD JUMPI JUMPDEST POP DUP9 SWAP1 PUSH1 0x1F DUP4 GT PUSH1 0x1 EQ PUSH2 0x2774 JUMPI SWAP2 DUP1 PUSH1 0xC0 SWAP5 SWAP3 PUSH1 0x5 SWAP7 SWAP5 PUSH0 SWAP3 PUSH2 0x2769 JUMPI JUMPDEST POP POP DUP2 PUSH1 0x1 SHL SWAP2 PUSH0 NOT SWAP1 PUSH1 0x3 SHL SHR NOT AND OR SWAP1 SSTORE JUMPDEST ADD MLOAD SWAP2 ADD SSTORE PUSH1 0x40 MLOAD DUP5 DUP2 DUP5 MLOAD DUP1 DUP4 DUP8 ADD DUP4 MCOPY DUP2 ADD PUSH1 0x4 DUP2 MSTORE SUB ADD SWAP1 KECCAK256 DUP2 MLOAD SWAP1 DUP2 MLOAD PUSH1 0x1 PUSH1 0x1 PUSH1 0x40 SHL SUB DUP2 GT PUSH2 0x31C JUMPI DUP7 SWAP3 PUSH2 0x1CD8 DUP4 SLOAD PUSH2 0x3794 JUMP JUMPDEST PUSH1 0x1F DUP2 GT PUSH2 0x2717 JUMPI JUMPDEST POP DUP4 SWAP1 PUSH1 0x1F DUP4 GT PUSH1 0x1 EQ PUSH2 0x26B1 JUMPI PUSH1 0x1 SWAP4 SWAP3 SWAP2 PUSH0 SWAP2 DUP4 PUSH2 0x26A6 JUMPI JUMPDEST POP POP PUSH0 NOT PUSH1 0x3 DUP4 SWAP1 SHL SHR NOT AND SWAP1 DUP4 SHL OR DUP2 SSTORE JUMPDEST ADD SWAP2 ADD MLOAD SWAP2 DUP3 MLOAD SWAP2 PUSH1 0x1 PUSH1 0x1 PUSH1 0x40 SHL SUB DUP4 GT PUSH2 0x31C JUMPI DUP6 SWAP3 PUSH2 0x1D31 DUP3 SLOAD PUSH2 0x3794 JUMP JUMPDEST SWAP5 PUSH1 0x1F DUP7 GT PUSH2 0x264F JUMPI JUMPDEST DUP5 SWAP6 POP DUP5 SWAP1 PUSH1 0x1F DUP4 GT PUSH1 0x1 EQ PUSH2 0x25E8 JUMPI PUSH0 SWAP2 SWAP1 DUP4 PUSH2 0x25DD JUMPI JUMPDEST POP POP DUP2 PUSH1 0x1 SHL SWAP2 PUSH0 NOT SWAP1 PUSH1 0x3 SHL SHR NOT AND OR SWAP1 SSTORE JUMPDEST PUSH1 0x40 MLOAD SWAP3 DUP2 DUP5 SWAP3 MLOAD SWAP2 DUP3 SWAP2 ADD DUP4 MCOPY DUP2 ADD PUSH1 0x5 DUP2 MSTORE SUB ADD SWAP1 KECCAK256 SWAP1 DUP1 MLOAD SWAP2 DUP3 MLOAD PUSH1 0x1 PUSH1 0x1 PUSH1 0x40 SHL SUB DUP2 GT PUSH2 0x31C JUMPI PUSH2 0x1D9E DUP3 SLOAD PUSH2 0x3794 JUMP JUMPDEST PUSH1 0x1F DUP2 GT PUSH2 0x259A JUMPI JUMPDEST POP DUP5 SWAP4 PUSH1 0x1F DUP3 GT PUSH1 0x1 EQ PUSH2 0x253A JUMPI SWAP4 DUP2 SWAP3 SWAP4 SWAP5 PUSH0 SWAP3 PUSH2 0x252F JUMPI JUMPDEST POP POP DUP2 PUSH1 0x1 SHL SWAP2 PUSH0 NOT SWAP1 PUSH1 0x3 SHL SHR NOT AND OR DUP2 SSTORE JUMPDEST PUSH1 0x1 DUP2 ADD DUP4 DUP4 ADD MLOAD DUP1 MLOAD SWAP1 PUSH1 0x1 PUSH1 0x1 PUSH1 0x40 SHL SUB DUP3 GT PUSH2 0x31C JUMPI DUP2 SWAP1 PUSH2 0x1DFA DUP5 SLOAD PUSH2 0x3794 JUMP JUMPDEST PUSH1 0x1F DUP2 GT PUSH2 0x24E1 JUMPI JUMPDEST POP DUP7 SWAP1 PUSH1 0x1F DUP4 GT PUSH1 0x1 EQ PUSH2 0x247E JUMPI PUSH0 SWAP3 PUSH2 0x2473 JUMPI JUMPDEST POP POP DUP2 PUSH1 0x1 SHL SWAP2 PUSH0 NOT SWAP1 PUSH1 0x3 SHL SHR NOT AND OR SWAP1 SSTORE JUMPDEST PUSH1 0x2 DUP2 ADD PUSH1 0x40 DUP4 ADD MLOAD DUP1 MLOAD SWAP1 PUSH1 0x1 PUSH1 0x1 PUSH1 0x40 SHL SUB DUP3 GT PUSH2 0x31C JUMPI DUP2 SWAP1 PUSH2 0x1E52 DUP5 SLOAD PUSH2 0x3794 JUMP JUMPDEST PUSH1 0x1F DUP2 GT PUSH2 0x2425 JUMPI JUMPDEST POP DUP7 SWAP1 PUSH1 0x1F DUP4 GT PUSH1 0x1 EQ PUSH2 0x23C2 JUMPI PUSH0 SWAP3 PUSH2 0x23B7 JUMPI JUMPDEST POP POP DUP2 PUSH1 0x1 SHL SWAP2 PUSH0 NOT SWAP1 PUSH1 0x3 SHL SHR NOT AND OR SWAP1 SSTORE JUMPDEST PUSH1 0x3 DUP2 ADD PUSH1 0x60 DUP4 ADD MLOAD DUP1 MLOAD SWAP1 PUSH1 0x1 PUSH1 0x1 PUSH1 0x40 SHL SUB DUP3 GT PUSH2 0x31C JUMPI DUP2 SWAP1 PUSH2 0x1EAA DUP5 SLOAD PUSH2 0x3794 JUMP JUMPDEST PUSH1 0x1F DUP2 GT PUSH2 0x2369 JUMPI JUMPDEST POP DUP7 SWAP1 PUSH1 0x1F DUP4 GT PUSH1 0x1 EQ PUSH2 0x2306 JUMPI PUSH0 SWAP3 PUSH2 0x22FB JUMPI JUMPDEST POP POP DUP2 PUSH1 0x1 SHL SWAP2 PUSH0 NOT SWAP1 PUSH1 0x3 SHL SHR NOT AND OR SWAP1 SSTORE JUMPDEST PUSH1 0x4 DUP2 ADD PUSH1 0x80 DUP4 ADD MLOAD DUP1 MLOAD SWAP1 PUSH1 0x1 PUSH1 0x1 PUSH1 0x40 SHL SUB DUP3 GT PUSH2 0x31C JUMPI DUP2 SWAP1 PUSH2 0x1F02 DUP5 SLOAD PUSH2 0x3794 JUMP JUMPDEST PUSH1 0x1F DUP2 GT PUSH2 0x22AD JUMPI JUMPDEST POP DUP7 SWAP1 PUSH1 0x1F DUP4 GT PUSH1 0x1 EQ PUSH2 0x224A JUMPI PUSH0 SWAP3 PUSH2 0x223F JUMPI JUMPDEST POP POP DUP2 PUSH1 0x1 SHL SWAP2 PUSH0 NOT SWAP1 PUSH1 0x3 SHL SHR NOT AND OR SWAP1 SSTORE JUMPDEST PUSH1 0x5 DUP2 ADD PUSH1 0xA0 DUP4 ADD MLOAD DUP1 MLOAD SWAP1 PUSH1 0x1 PUSH1 0x1 PUSH1 0x40 SHL SUB DUP3 GT PUSH2 0x31C JUMPI DUP2 SWAP1 PUSH2 0x1F5A DUP5 SLOAD PUSH2 0x3794 JUMP JUMPDEST PUSH1 0x1F DUP2 GT PUSH2 0x21F1 JUMPI JUMPDEST POP DUP7 SWAP1 PUSH1 0x1F DUP4 GT PUSH1 0x1 EQ PUSH2 0x218E JUMPI PUSH0 SWAP3 PUSH2 0x2183 JUMPI JUMPDEST POP POP DUP2 PUSH1 0x1 SHL SWAP2 PUSH0 NOT SWAP1 PUSH1 0x3 SHL SHR NOT AND OR SWAP1 SSTORE JUMPDEST PUSH1 0x6 DUP2 ADD PUSH1 0xC0 DUP4 ADD MLOAD DUP1 MLOAD SWAP1 PUSH1 0x1 PUSH1 0x1 PUSH1 0x40 SHL SUB DUP3 GT PUSH2 0x31C JUMPI PUSH2 0x1FB0 DUP4 SLOAD PUSH2 0x3794 JUMP JUMPDEST PUSH1 0x1F DUP2 GT PUSH2 0x2140 JUMPI JUMPDEST POP DUP6 SWAP1 PUSH1 0x1F DUP4 GT PUSH1 0x1 EQ PUSH2 0x20D7 JUMPI SWAP2 DUP1 PUSH1 0x7 SWAP5 SWAP3 PUSH1 0xE0 SWAP7 SWAP5 PUSH0 SWAP3 PUSH2 0x20CC JUMPI JUMPDEST POP POP DUP2 PUSH1 0x1 SHL SWAP2 PUSH0 NOT SWAP1 PUSH1 0x3 SHL SHR NOT AND OR SWAP1 SSTORE JUMPDEST ADD SWAP2 ADD MLOAD SWAP2 DUP3 MLOAD SWAP1 PUSH1 0x1 PUSH1 0x1 PUSH1 0x40 SHL SUB DUP3 GT PUSH2 0x31C JUMPI PUSH2 0x200C DUP4 SLOAD PUSH2 0x3794 JUMP JUMPDEST PUSH1 0x1F DUP2 GT PUSH2 0x2089 JUMPI JUMPDEST POP DUP1 PUSH1 0x1F DUP4 GT PUSH1 0x1 EQ PUSH2 0x2043 JUMPI POP DUP2 SWAP3 SWAP4 PUSH0 SWAP3 PUSH2 0x270 JUMPI POP POP PUSH0 NOT PUSH1 0x3 DUP4 SWAP1 SHL SHR NOT AND PUSH1 0x1 SWAP2 SWAP1 SWAP2 SHL OR SWAP1 SSTORE STOP JUMPDEST SWAP1 PUSH1 0x1F NOT DUP4 AND SWAP5 DUP5 PUSH0 MSTORE DUP3 PUSH0 KECCAK256 SWAP3 PUSH0 SWAP1 JUMPDEST DUP8 DUP3 LT PUSH2 0x2071 JUMPI POP POP DUP4 PUSH1 0x1 SWAP6 SWAP7 LT PUSH2 0x2A7 JUMPI POP POP POP DUP2 SHL ADD SWAP1 SSTORE STOP JUMPDEST DUP1 PUSH1 0x1 DUP6 SWAP7 DUP3 SWAP5 SWAP7 DUP7 ADD MLOAD DUP2 SSTORE ADD SWAP6 ADD SWAP4 ADD SWAP1 PUSH2 0x2054 JUMP JUMPDEST DUP4 PUSH0 MSTORE DUP2 PUSH0 KECCAK256 PUSH1 0x1F DUP5 ADD PUSH1 0x5 SHR DUP2 ADD SWAP2 DUP4 DUP6 LT PUSH2 0x20C2 JUMPI JUMPDEST PUSH1 0x1F ADD PUSH1 0x5 SHR ADD SWAP1 JUMPDEST DUP2 DUP2 LT PUSH2 0x20B7 JUMPI POP PUSH2 0x2015 JUMP JUMPDEST PUSH0 DUP2 SSTORE PUSH1 0x1 ADD PUSH2 0x20AA JUMP JUMPDEST SWAP1 SWAP2 POP DUP2 SWAP1 PUSH2 0x20A1 JUMP JUMPDEST ADD MLOAD SWAP1 POP DUP9 DUP1 PUSH2 0x1FD8 JUMP JUMPDEST SWAP1 PUSH1 0x1F NOT DUP4 AND SWAP2 DUP5 PUSH0 MSTORE DUP8 PUSH0 KECCAK256 SWAP3 PUSH0 JUMPDEST DUP10 DUP3 DUP3 LT PUSH2 0x212A JUMPI POP POP SWAP3 PUSH1 0x1 SWAP3 DUP6 SWAP3 PUSH1 0xE0 SWAP9 SWAP7 PUSH1 0x7 SWAP9 SWAP7 LT PUSH2 0x2112 JUMPI JUMPDEST POP POP POP DUP2 SHL ADD SWAP1 SSTORE PUSH2 0x1FEC JUMP JUMPDEST ADD MLOAD PUSH0 NOT PUSH1 0xF8 DUP5 PUSH1 0x3 SHL AND SHR NOT AND SWAP1 SSTORE DUP9 DUP1 DUP1 PUSH2 0x2105 JUMP JUMPDEST PUSH1 0x1 DUP6 SWAP7 DUP3 SWAP4 SWAP7 DUP7 ADD MLOAD DUP2 SSTORE ADD SWAP6 ADD SWAP4 ADD PUSH2 0x20E7 JUMP JUMPDEST DUP4 PUSH0 MSTORE DUP7 PUSH0 KECCAK256 PUSH1 0x1F DUP5 ADD PUSH1 0x5 SHR DUP2 ADD SWAP2 DUP9 DUP6 LT PUSH2 0x2179 JUMPI JUMPDEST PUSH1 0x1F ADD PUSH1 0x5 SHR ADD SWAP1 JUMPDEST DUP2 DUP2 LT PUSH2 0x216E JUMPI POP PUSH2 0x1FB9 JUMP JUMPDEST PUSH0 DUP2 SSTORE PUSH1 0x1 ADD PUSH2 0x2161 JUMP JUMPDEST SWAP1 SWAP2 POP DUP2 SWAP1 PUSH2 0x2158 JUMP JUMPDEST ADD MLOAD SWAP1 POP DUP7 DUP1 PUSH2 0x1F78 JUMP JUMPDEST PUSH0 DUP6 DUP2 MSTORE DUP9 DUP2 KECCAK256 SWAP4 POP PUSH1 0x1F NOT DUP6 AND SWAP1 JUMPDEST DUP10 DUP3 DUP3 LT PUSH2 0x21DB JUMPI POP POP SWAP1 DUP5 PUSH1 0x1 SWAP6 SWAP5 SWAP4 SWAP3 LT PUSH2 0x21C3 JUMPI JUMPDEST POP POP POP DUP2 SHL ADD SWAP1 SSTORE PUSH2 0x1F8C JUMP JUMPDEST ADD MLOAD PUSH0 NOT PUSH1 0xF8 DUP5 PUSH1 0x3 SHL AND SHR NOT AND SWAP1 SSTORE DUP7 DUP1 DUP1 PUSH2 0x21B6 JUMP JUMPDEST PUSH1 0x1 DUP6 SWAP7 DUP3 SWAP4 SWAP7 DUP7 ADD MLOAD DUP2 SSTORE ADD SWAP6 ADD SWAP4 ADD PUSH2 0x219E JUMP JUMPDEST SWAP1 SWAP2 POP DUP4 PUSH0 MSTORE DUP7 PUSH0 KECCAK256 PUSH1 0x1F DUP5 ADD PUSH1 0x5 SHR DUP2 ADD SWAP2 DUP9 DUP6 LT PUSH2 0x2235 JUMPI JUMPDEST SWAP1 PUSH1 0x1F DUP6 SWAP5 SWAP4 SWAP3 ADD PUSH1 0x5 SHR ADD SWAP1 JUMPDEST DUP2 DUP2 LT PUSH2 0x2227 JUMPI POP PUSH2 0x1F63 JUMP JUMPDEST PUSH0 DUP2 SSTORE DUP5 SWAP4 POP PUSH1 0x1 ADD PUSH2 0x221A JUMP JUMPDEST SWAP1 SWAP2 POP DUP2 SWAP1 PUSH2 0x220C JUMP JUMPDEST ADD MLOAD SWAP1 POP DUP7 DUP1 PUSH2 0x1F20 JUMP JUMPDEST PUSH0 DUP6 DUP2 MSTORE DUP9 DUP2 KECCAK256 SWAP4 POP PUSH1 0x1F NOT DUP6 AND SWAP1 JUMPDEST DUP10 DUP3 DUP3 LT PUSH2 0x2297 JUMPI POP POP SWAP1 DUP5 PUSH1 0x1 SWAP6 SWAP5 SWAP4 SWAP3 LT PUSH2 0x227F JUMPI JUMPDEST POP POP POP DUP2 SHL ADD SWAP1 SSTORE PUSH2 0x1F34 JUMP JUMPDEST ADD MLOAD PUSH0 NOT PUSH1 0xF8 DUP5 PUSH1 0x3 SHL AND SHR NOT AND SWAP1 SSTORE DUP7 DUP1 DUP1 PUSH2 0x2272 JUMP JUMPDEST PUSH1 0x1 DUP6 SWAP7 DUP3 SWAP4 SWAP7 DUP7 ADD MLOAD DUP2 SSTORE ADD SWAP6 ADD SWAP4 ADD PUSH2 0x225A JUMP JUMPDEST SWAP1 SWAP2 POP DUP4 PUSH0 MSTORE DUP7 PUSH0 KECCAK256 PUSH1 0x1F DUP5 ADD PUSH1 0x5 SHR DUP2 ADD SWAP2 DUP9 DUP6 LT PUSH2 0x22F1 JUMPI JUMPDEST SWAP1 PUSH1 0x1F DUP6 SWAP5 SWAP4 SWAP3 ADD PUSH1 0x5 SHR ADD SWAP1 JUMPDEST DUP2 DUP2 LT PUSH2 0x22E3 JUMPI POP PUSH2 0x1F0B JUMP JUMPDEST PUSH0 DUP2 SSTORE DUP5 SWAP4 POP PUSH1 0x1 ADD PUSH2 0x22D6 JUMP JUMPDEST SWAP1 SWAP2 POP DUP2 SWAP1 PUSH2 0x22C8 JUMP JUMPDEST ADD MLOAD SWAP1 POP DUP7 DUP1 PUSH2 0x1EC8 JUMP JUMPDEST PUSH0 DUP6 DUP2 MSTORE DUP9 DUP2 KECCAK256 SWAP4 POP PUSH1 0x1F NOT DUP6 AND SWAP1 JUMPDEST DUP10 DUP3 DUP3 LT PUSH2 0x2353 JUMPI POP POP SWAP1 DUP5 PUSH1 0x1 SWAP6 SWAP5 SWAP4 SWAP3 LT PUSH2 0x233B JUMPI JUMPDEST POP POP POP DUP2 SHL ADD SWAP1 SSTORE PUSH2 0x1EDC JUMP JUMPDEST ADD MLOAD PUSH0 NOT PUSH1 0xF8 DUP5 PUSH1 0x3 SHL AND SHR NOT AND SWAP1 SSTORE DUP7 DUP1 DUP1 PUSH2 0x232E JUMP JUMPDEST PUSH1 0x1 DUP6 SWAP7 DUP3 SWAP4 SWAP7 DUP7 ADD MLOAD DUP2 SSTORE ADD SWAP6 ADD SWAP4 ADD PUSH2 0x2316 JUMP JUMPDEST SWAP1 SWAP2 POP DUP4 PUSH0 MSTORE DUP7 PUSH0 KECCAK256 PUSH1 0x1F DUP5 ADD PUSH1 0x5 SHR DUP2 ADD SWAP2 DUP9 DUP6 LT PUSH2 0x23AD JUMPI JUMPDEST SWAP1 PUSH1 0x1F DUP6 SWAP5 SWAP4 SWAP3 ADD PUSH1 0x5 SHR ADD SWAP1 JUMPDEST DUP2 DUP2 LT PUSH2 0x239F JUMPI POP PUSH2 0x1EB3 JUMP JUMPDEST PUSH0 DUP2 SSTORE DUP5 SWAP4 POP PUSH1 0x1 ADD PUSH2 0x2392 JUMP JUMPDEST SWAP1 SWAP2 POP DUP2 SWAP1 PUSH2 0x2384 JUMP JUMPDEST ADD MLOAD SWAP1 POP DUP7 DUP1 PUSH2 0x1E70 JUMP JUMPDEST PUSH0 DUP6 DUP2 MSTORE DUP9 DUP2 KECCAK256 SWAP4 POP PUSH1 0x1F NOT DUP6 AND SWAP1 JUMPDEST DUP10 DUP3 DUP3 LT PUSH2 0x240F JUMPI POP POP SWAP1 DUP5 PUSH1 0x1 SWAP6 SWAP5 SWAP4 SWAP3 LT PUSH2 0x23F7 JUMPI JUMPDEST POP POP POP DUP2 SHL ADD SWAP1 SSTORE PUSH2 0x1E84 JUMP JUMPDEST ADD MLOAD PUSH0 NOT PUSH1 0xF8 DUP5 PUSH1 0x3 SHL AND SHR NOT AND SWAP1 SSTORE DUP7 DUP1 DUP1 PUSH2 0x23EA JUMP JUMPDEST PUSH1 0x1 DUP6 SWAP7 DUP3 SWAP4 SWAP7 DUP7 ADD MLOAD DUP2 SSTORE ADD SWAP6 ADD SWAP4 ADD PUSH2 0x23D2 JUMP JUMPDEST SWAP1 SWAP2 POP DUP4 PUSH0 MSTORE DUP7 PUSH0 KECCAK256 PUSH1 0x1F DUP5 ADD PUSH1 0x5 SHR DUP2 ADD SWAP2 DUP9 DUP6 LT PUSH2 0x2469 JUMPI JUMPDEST SWAP1 PUSH1 0x1F DUP6 SWAP5 SWAP4 SWAP3 ADD PUSH1 0x5 SHR ADD SWAP1 JUMPDEST DUP2 DUP2 LT PUSH2 0x245B JUMPI POP PUSH2 0x1E5B JUMP JUMPDEST PUSH0 DUP2 SSTORE DUP5 SWAP4 POP PUSH1 0x1 ADD PUSH2 0x244E JUMP JUMPDEST SWAP1 SWAP2 POP DUP2 SWAP1 PUSH2 0x2440 JUMP JUMPDEST ADD MLOAD SWAP1 POP DUP7 DUP1 PUSH2 0x1E18 JUMP JUMPDEST PUSH0 DUP6 DUP2 MSTORE DUP9 DUP2 KECCAK256 SWAP4 POP PUSH1 0x1F NOT DUP6 AND SWAP1 JUMPDEST DUP10 DUP3 DUP3 LT PUSH2 0x24CB JUMPI POP POP SWAP1 DUP5 PUSH1 0x1 SWAP6 SWAP5 SWAP4 SWAP3 LT PUSH2 0x24B3 JUMPI JUMPDEST POP POP POP DUP2 SHL ADD SWAP1 SSTORE PUSH2 0x1E2C JUMP JUMPDEST ADD MLOAD PUSH0 NOT PUSH1 0xF8 DUP5 PUSH1 0x3 SHL AND SHR NOT AND SWAP1 SSTORE DUP7 DUP1 DUP1 PUSH2 0x24A6 JUMP JUMPDEST PUSH1 0x1 DUP6 SWAP7 DUP3 SWAP4 SWAP7 DUP7 ADD MLOAD DUP2 SSTORE ADD SWAP6 ADD SWAP4 ADD PUSH2 0x248E JUMP JUMPDEST SWAP1 SWAP2 POP DUP4 PUSH0 MSTORE DUP7 PUSH0 KECCAK256 PUSH1 0x1F DUP5 ADD PUSH1 0x5 SHR DUP2 ADD SWAP2 DUP9 DUP6 LT PUSH2 0x2525 JUMPI JUMPDEST SWAP1 PUSH1 0x1F DUP6 SWAP5 SWAP4 SWAP3 ADD PUSH1 0x5 SHR ADD SWAP1 JUMPDEST DUP2 DUP2 LT PUSH2 0x2517 JUMPI POP PUSH2 0x1E03 JUMP JUMPDEST PUSH0 DUP2 SSTORE DUP5 SWAP4 POP PUSH1 0x1 ADD PUSH2 0x250A JUMP JUMPDEST SWAP1 SWAP2 POP DUP2 SWAP1 PUSH2 0x24FC JUMP JUMPDEST ADD MLOAD SWAP1 POP DUP6 DUP1 PUSH2 0x1DC1 JUMP JUMPDEST PUSH1 0x1F NOT DUP3 AND SWAP5 DUP4 PUSH0 MSTORE DUP7 PUSH0 KECCAK256 SWAP2 PUSH0 JUMPDEST DUP9 DUP9 DUP3 LT PUSH2 0x2584 JUMPI POP POP DUP4 PUSH1 0x1 SWAP6 SWAP7 SWAP8 LT PUSH2 0x256C JUMPI JUMPDEST POP POP POP DUP2 SHL ADD DUP2 SSTORE PUSH2 0x1DD5 JUMP JUMPDEST ADD MLOAD PUSH0 NOT PUSH1 0xF8 DUP5 PUSH1 0x3 SHL AND SHR NOT AND SWAP1 SSTORE DUP6 DUP1 DUP1 PUSH2 0x255F JUMP JUMPDEST PUSH1 0x1 DUP5 SWAP6 DUP3 SWAP4 SWAP6 DUP6 ADD MLOAD DUP2 SSTORE ADD SWAP5 ADD SWAP3 ADD PUSH2 0x2549 JUMP JUMPDEST DUP3 PUSH0 MSTORE DUP6 PUSH0 KECCAK256 PUSH1 0x1F DUP4 ADD PUSH1 0x5 SHR DUP2 ADD SWAP2 DUP8 DUP5 LT PUSH2 0x25D3 JUMPI JUMPDEST PUSH1 0x1F ADD PUSH1 0x5 SHR ADD SWAP1 JUMPDEST DUP2 DUP2 LT PUSH2 0x25C8 JUMPI POP PUSH2 0x1DA7 JUMP JUMPDEST PUSH0 DUP2 SSTORE PUSH1 0x1 ADD PUSH2 0x25BB JUMP JUMPDEST SWAP1 SWAP2 POP DUP2 SWAP1 PUSH2 0x25B2 JUMP JUMPDEST ADD MLOAD SWAP1 POP DUP9 DUP1 PUSH2 0x1D54 JUMP JUMPDEST PUSH1 0x1F SWAP6 SWAP5 SWAP4 SWAP3 SWAP2 SWAP6 NOT DUP3 AND SWAP6 DUP4 PUSH0 MSTORE DUP6 PUSH0 KECCAK256 SWAP2 PUSH0 JUMPDEST DUP9 DUP2 LT PUSH2 0x2637 JUMPI POP DUP4 PUSH1 0x1 SWAP6 SWAP7 SWAP8 SWAP9 LT PUSH2 0x261F JUMPI JUMPDEST POP POP POP DUP2 SHL ADD SWAP1 SSTORE PUSH2 0x1D68 JUMP JUMPDEST ADD MLOAD PUSH0 NOT PUSH1 0xF8 DUP5 PUSH1 0x3 SHL AND SHR NOT AND SWAP1 SSTORE DUP9 DUP1 DUP1 PUSH2 0x2612 JUMP JUMPDEST DUP3 DUP3 ADD MLOAD DUP5 SSTORE DUP10 SWAP8 PUSH1 0x1 SWAP1 SWAP5 ADD SWAP4 SWAP3 DUP4 ADD SWAP3 ADD PUSH2 0x25FD JUMP JUMPDEST SWAP2 DUP1 SWAP5 POP PUSH0 SWAP6 SWAP2 SWAP4 SWAP6 MSTORE DUP7 PUSH0 KECCAK256 PUSH1 0x1F DUP5 ADD PUSH1 0x5 SHR DUP2 ADD SWAP2 DUP9 DUP6 LT PUSH2 0x269C JUMPI JUMPDEST SWAP1 PUSH1 0x1F DUP10 SWAP7 SWAP5 SWAP8 SWAP6 SWAP4 SWAP3 ADD PUSH1 0x5 SHR ADD SWAP1 JUMPDEST DUP2 DUP2 LT PUSH2 0x268E JUMPI POP POP DUP5 PUSH2 0x1D3B JUMP JUMPDEST PUSH0 DUP2 SSTORE DUP9 SWAP6 POP PUSH1 0x1 ADD PUSH2 0x267F JUMP JUMPDEST SWAP1 SWAP2 POP DUP2 SWAP1 PUSH2 0x266E JUMP JUMPDEST ADD MLOAD SWAP1 POP DUP10 DUP1 PUSH2 0x1CFC JUMP JUMPDEST SWAP1 PUSH1 0x1F NOT DUP4 AND SWAP2 DUP5 PUSH0 MSTORE DUP6 PUSH0 KECCAK256 SWAP3 PUSH0 JUMPDEST DUP8 DUP3 DUP3 LT PUSH2 0x2701 JUMPI POP POP SWAP2 PUSH1 0x1 SWAP6 SWAP5 SWAP3 SWAP2 DUP4 DUP8 SWAP6 SWAP4 LT PUSH2 0x26E9 JUMPI JUMPDEST POP POP POP DUP2 SHL ADD DUP2 SSTORE PUSH2 0x1D0F JUMP JUMPDEST ADD MLOAD PUSH0 NOT PUSH1 0xF8 DUP5 PUSH1 0x3 SHL AND SHR NOT AND SWAP1 SSTORE DUP10 DUP1 DUP1 PUSH2 0x26DC JUMP JUMPDEST PUSH1 0x1 DUP6 SWAP7 DUP3 SWAP4 SWAP7 DUP7 ADD MLOAD DUP2 SSTORE ADD SWAP6 ADD SWAP4 ADD PUSH2 0x26C1 JUMP JUMPDEST SWAP1 SWAP2 SWAP3 DUP1 SWAP5 POP PUSH0 MSTORE DUP8 PUSH0 KECCAK256 PUSH1 0x1F DUP5 ADD PUSH1 0x5 SHR DUP2 ADD SWAP2 DUP10 DUP6 LT PUSH2 0x275F JUMPI JUMPDEST SWAP1 PUSH1 0x1F DUP11 SWAP7 SWAP6 SWAP5 SWAP4 SWAP3 ADD PUSH1 0x5 SHR ADD SWAP1 JUMPDEST DUP2 DUP2 LT PUSH2 0x2751 JUMPI POP PUSH2 0x1CE1 JUMP JUMPDEST PUSH0 DUP2 SSTORE DUP10 SWAP6 POP PUSH1 0x1 ADD PUSH2 0x2744 JUMP JUMPDEST SWAP1 SWAP2 POP DUP2 SWAP1 PUSH2 0x2734 JUMP JUMPDEST ADD MLOAD SWAP1 POP DUP12 DUP1 PUSH2 0x1C89 JUMP JUMPDEST SWAP1 PUSH1 0x1F NOT DUP4 AND SWAP2 DUP5 PUSH0 MSTORE DUP11 PUSH0 KECCAK256 SWAP3 PUSH0 JUMPDEST DUP13 DUP3 DUP3 LT PUSH2 0x27C7 JUMPI POP POP SWAP3 PUSH1 0x1 SWAP3 DUP6 SWAP3 PUSH1 0x5 SWAP9 SWAP7 PUSH1 0xC0 SWAP9 SWAP7 LT PUSH2 0x27AF JUMPI JUMPDEST POP POP POP DUP2 SHL ADD SWAP1 SSTORE PUSH2 0x1C9D JUMP JUMPDEST ADD MLOAD PUSH0 NOT PUSH1 0xF8 DUP5 PUSH1 0x3 SHL AND SHR NOT AND SWAP1 SSTORE DUP12 DUP1 DUP1 PUSH2 0x27A2 JUMP JUMPDEST PUSH1 0x1 DUP6 SWAP7 DUP3 SWAP4 SWAP7 DUP7 ADD MLOAD DUP2 SSTORE ADD SWAP6 ADD SWAP4 ADD PUSH2 0x2784 JUMP JUMPDEST DUP4 PUSH0 MSTORE DUP10 PUSH0 KECCAK256 PUSH1 0x1F DUP5 ADD PUSH1 0x5 SHR DUP2 ADD SWAP2 DUP12 DUP6 LT PUSH2 0x2816 JUMPI JUMPDEST PUSH1 0x1F ADD PUSH1 0x5 SHR ADD SWAP1 JUMPDEST DUP2 DUP2 LT PUSH2 0x280B JUMPI POP PUSH2 0x1C6A JUMP JUMPDEST PUSH0 DUP2 SSTORE PUSH1 0x1 ADD PUSH2 0x27FE JUMP JUMPDEST SWAP1 SWAP2 POP DUP2 SWAP1 PUSH2 0x27F5 JUMP JUMPDEST PUSH4 0x4E487B71 PUSH1 0xE0 SHL PUSH0 MSTORE PUSH1 0x21 PUSH1 0x4 MSTORE PUSH1 0x24 PUSH0 REVERT JUMPDEST ADD MLOAD SWAP1 POP DUP10 DUP1 PUSH2 0x1BF1 JUMP JUMPDEST PUSH0 DUP6 DUP2 MSTORE DUP12 DUP2 KECCAK256 SWAP4 POP PUSH1 0x1F NOT DUP6 AND SWAP1 JUMPDEST DUP13 DUP3 DUP3 LT PUSH2 0x288C JUMPI POP POP SWAP1 DUP5 PUSH1 0x1 SWAP6 SWAP5 SWAP4 SWAP3 LT PUSH2 0x2874 JUMPI JUMPDEST POP POP POP DUP2 SHL ADD SWAP1 SSTORE PUSH2 0x1C05 JUMP JUMPDEST ADD MLOAD PUSH0 NOT PUSH1 0xF8 DUP5 PUSH1 0x3 SHL AND SHR NOT AND SWAP1 SSTORE DUP10 DUP1 DUP1 PUSH2 0x2867 JUMP JUMPDEST PUSH1 0x1 DUP6 SWAP7 DUP3 SWAP4 SWAP7 DUP7 ADD MLOAD DUP2 SSTORE ADD SWAP6 ADD SWAP4 ADD PUSH2 0x284F JUMP JUMPDEST SWAP1 SWAP2 POP DUP4 PUSH0 MSTORE DUP10 PUSH0 KECCAK256 PUSH1 0x1F DUP5 ADD PUSH1 0x5 SHR DUP2 ADD SWAP2 DUP12 DUP6 LT PUSH2 0x28E6 JUMPI JUMPDEST SWAP1 PUSH1 0x1F DUP6 SWAP5 SWAP4 SWAP3 ADD PUSH1 0x5 SHR ADD SWAP1 JUMPDEST DUP2 DUP2 LT PUSH2 0x28D8 JUMPI POP PUSH2 0x1BDC JUMP JUMPDEST PUSH0 DUP2 SSTORE DUP5 SWAP4 POP PUSH1 0x1 ADD PUSH2 0x28CB JUMP JUMPDEST SWAP1 SWAP2 POP DUP2 SWAP1 PUSH2 0x28BD JUMP JUMPDEST ADD MLOAD SWAP1 POP DUP9 DUP1 PUSH2 0x1B96 JUMP JUMPDEST PUSH1 0x1 DUP7 ADD PUSH0 SWAP1 DUP2 MSTORE DUP11 DUP2 KECCAK256 SWAP4 POP PUSH1 0x1F NOT DUP6 AND SWAP1 JUMPDEST DUP12 DUP3 DUP3 LT PUSH2 0x294F JUMPI POP POP SWAP1 DUP5 PUSH1 0x1 SWAP6 SWAP5 SWAP4 SWAP3 LT PUSH2 0x2937 JUMPI JUMPDEST POP POP POP DUP2 SHL ADD PUSH1 0x1 DUP4 ADD SSTORE PUSH2 0x1BAD JUMP JUMPDEST ADD MLOAD PUSH0 NOT PUSH1 0xF8 DUP5 PUSH1 0x3 SHL AND SHR NOT AND SWAP1 SSTORE DUP9 DUP1 DUP1 PUSH2 0x2927 JUMP JUMPDEST PUSH1 0x1 DUP6 SWAP7 DUP3 SWAP4 SWAP7 DUP7 ADD MLOAD DUP2 SSTORE ADD SWAP6 ADD SWAP4 ADD PUSH2 0x290F JUMP JUMPDEST SWAP1 SWAP2 POP PUSH1 0x1 DUP6 ADD PUSH0 MSTORE DUP9 PUSH0 KECCAK256 PUSH1 0x1F DUP5 ADD PUSH1 0x5 SHR DUP2 ADD SWAP2 DUP11 DUP6 LT PUSH2 0x29AC JUMPI JUMPDEST SWAP1 PUSH1 0x1F DUP6 SWAP5 SWAP4 SWAP3 ADD PUSH1 0x5 SHR ADD SWAP1 JUMPDEST DUP2 DUP2 LT PUSH2 0x299E JUMPI POP PUSH2 0x1B81 JUMP JUMPDEST PUSH0 DUP2 SSTORE DUP5 SWAP4 POP PUSH1 0x1 ADD PUSH2 0x2991 JUMP JUMPDEST SWAP1 SWAP2 POP DUP2 SWAP1 PUSH2 0x2983 JUMP JUMPDEST ADD MLOAD SWAP1 POP DUP10 DUP1 PUSH2 0x1B43 JUMP JUMPDEST PUSH0 DUP8 DUP2 MSTORE DUP12 DUP2 KECCAK256 SWAP4 POP PUSH1 0x1F NOT DUP6 AND SWAP1 JUMPDEST DUP13 DUP3 DUP3 LT PUSH2 0x2A0E JUMPI POP POP SWAP1 DUP5 PUSH1 0x1 SWAP6 SWAP5 SWAP4 SWAP3 LT PUSH2 0x29F6 JUMPI JUMPDEST POP POP POP DUP2 SHL ADD DUP4 SSTORE PUSH2 0x1B57 JUMP JUMPDEST ADD MLOAD PUSH0 NOT PUSH1 0xF8 DUP5 PUSH1 0x3 SHL AND SHR NOT AND SWAP1 SSTORE DUP10 DUP1 DUP1 PUSH2 0x29E9 JUMP JUMPDEST PUSH1 0x1 DUP6 SWAP7 DUP3 SWAP4 SWAP7 DUP7 ADD MLOAD DUP2 SSTORE ADD SWAP6 ADD SWAP4 ADD PUSH2 0x29D1 JUMP JUMPDEST SWAP1 SWAP2 POP DUP6 PUSH0 MSTORE DUP10 PUSH0 KECCAK256 PUSH1 0x1F DUP5 ADD PUSH1 0x5 SHR DUP2 ADD SWAP2 DUP12 DUP6 LT PUSH2 0x2A68 JUMPI JUMPDEST SWAP1 PUSH1 0x1F DUP6 SWAP5 SWAP4 SWAP3 ADD PUSH1 0x5 SHR ADD SWAP1 JUMPDEST DUP2 DUP2 LT PUSH2 0x2A5A JUMPI POP PUSH2 0x1B2E JUMP JUMPDEST PUSH0 DUP2 SSTORE DUP5 SWAP4 POP PUSH1 0x1 ADD PUSH2 0x2A4D JUMP JUMPDEST SWAP1 SWAP2 POP DUP2 SWAP1 PUSH2 0x2A3F JUMP JUMPDEST PUSH4 0x4E487B71 PUSH1 0xE0 SHL PUSH0 MSTORE PUSH0 PUSH1 0x4 MSTORE PUSH1 0x24 PUSH0 REVERT JUMPDEST ADD MLOAD SWAP1 POP DUP15 DUP1 PUSH2 0x1A66 JUMP JUMPDEST PUSH0 DUP5 DUP2 MSTORE DUP13 DUP2 KECCAK256 SWAP3 SWAP2 SWAP1 PUSH1 0x1F NOT DUP6 AND SWAP1 DUP15 JUMPDEST DUP3 DUP3 LT PUSH2 0x2AE5 JUMPI POP POP SWAP4 PUSH1 0xFF SWAP7 SWAP4 PUSH1 0x2 SWAP7 SWAP4 PUSH1 0x1 SWAP4 DUP4 DUP11 SWAP9 LT PUSH2 0x2ACD JUMPI JUMPDEST POP POP POP DUP2 SHL ADD SWAP1 SSTORE PUSH2 0x1A7A JUMP JUMPDEST ADD MLOAD PUSH0 NOT PUSH1 0xF8 DUP5 PUSH1 0x3 SHL AND SHR NOT AND SWAP1 SSTORE DUP15 DUP1 DUP1 PUSH2 0x2AC0 JUMP JUMPDEST DUP1 PUSH1 0x1 DUP7 SWAP8 DUP3 SWAP5 SWAP8 DUP8 ADD MLOAD DUP2 SSTORE ADD SWAP7 ADD SWAP5 ADD SWAP1 PUSH2 0x2AA2 JUMP JUMPDEST DUP4 PUSH0 MSTORE DUP12 PUSH0 KECCAK256 PUSH1 0x1F DUP5 ADD PUSH1 0x5 SHR DUP2 ADD SWAP2 DUP14 DUP6 LT PUSH2 0x2B36 JUMPI JUMPDEST PUSH1 0x1F ADD PUSH1 0x5 SHR ADD SWAP1 JUMPDEST DUP2 DUP2 LT PUSH2 0x2B2B JUMPI POP PUSH2 0x1A45 JUMP JUMPDEST PUSH0 DUP2 SSTORE PUSH1 0x1 ADD PUSH2 0x2B1E JUMP JUMPDEST SWAP1 SWAP2 POP DUP2 SWAP1 PUSH2 0x2B15 JUMP JUMPDEST ADD MLOAD SWAP1 POP DUP12 DUP1 PUSH2 0x1A08 JUMP JUMPDEST PUSH0 DUP8 DUP2 MSTORE DUP14 DUP2 KECCAK256 SWAP4 POP PUSH1 0x1F NOT DUP6 AND SWAP1 DUP15 JUMPDEST DUP3 DUP3 LT PUSH2 0x2B98 JUMPI POP POP SWAP1 DUP5 PUSH1 0x1 SWAP6 SWAP5 SWAP4 SWAP3 LT PUSH2 0x2B80 JUMPI JUMPDEST POP POP POP DUP2 SHL ADD DUP4 SSTORE PUSH2 0x1A1C JUMP JUMPDEST ADD MLOAD PUSH0 NOT PUSH1 0xF8 DUP5 PUSH1 0x3 SHL AND SHR NOT AND SWAP1 SSTORE DUP12 DUP1 DUP1 PUSH2 0x2B73 JUMP JUMPDEST DUP1 PUSH1 0x1 DUP7 SWAP8 DUP3 SWAP5 SWAP8 DUP8 ADD MLOAD DUP2 SSTORE ADD SWAP7 ADD SWAP5 ADD SWAP1 PUSH2 0x2B5C JUMP JUMPDEST SWAP1 SWAP2 POP DUP6 PUSH0 MSTORE DUP12 PUSH0 KECCAK256 PUSH1 0x1F DUP5 ADD PUSH1 0x5 SHR DUP2 ADD SWAP2 DUP14 DUP6 LT PUSH2 0x2BF4 JUMPI JUMPDEST SWAP1 PUSH1 0x1F DUP6 SWAP5 SWAP4 SWAP3 ADD PUSH1 0x5 SHR ADD SWAP1 JUMPDEST DUP2 DUP2 LT PUSH2 0x2BE6 JUMPI POP PUSH2 0x19F3 JUMP JUMPDEST PUSH0 DUP2 SSTORE DUP5 SWAP4 POP PUSH1 0x1 ADD PUSH2 0x2BD9 JUMP JUMPDEST SWAP1 SWAP2 POP DUP2 SWAP1 PUSH2 0x2BCB JUMP JUMPDEST CALLVALUE PUSH2 0x1C8 JUMPI PUSH1 0x20 CALLDATASIZE PUSH1 0x3 NOT ADD SLT PUSH2 0x1C8 JUMPI PUSH1 0x4 CALLDATALOAD PUSH1 0x1 PUSH1 0x1 PUSH1 0x40 SHL SUB DUP2 GT PUSH2 0x1C8 JUMPI PUSH2 0x2C2E SWAP1 CALLDATASIZE SWAP1 PUSH1 0x4 ADD PUSH2 0x36C7 JUMP JUMPDEST PUSH1 0x40 MLOAD DUP2 DUP2 SWAP3 MLOAD PUSH1 0x20 DUP2 SWAP3 ADD DUP4 MCOPY DUP2 ADD PUSH1 0x5 DUP2 MSTORE SUB PUSH1 0x20 ADD SWAP1 KECCAK256 PUSH2 0x2C51 DUP2 PUSH2 0x37CC JUMP JUMPDEST PUSH2 0x2C5D PUSH1 0x1 DUP4 ADD PUSH2 0x37CC JUMP JUMPDEST SWAP2 PUSH2 0x2C6A PUSH1 0x2 DUP3 ADD PUSH2 0x37CC JUMP JUMPDEST SWAP1 PUSH2 0x2C77 PUSH1 0x3 DUP3 ADD PUSH2 0x37CC JUMP JUMPDEST PUSH2 0x2C83 PUSH1 0x4 DUP4 ADD PUSH2 0x37CC JUMP JUMPDEST PUSH2 0x2C8F PUSH1 0x5 DUP5 ADD PUSH2 0x37CC JUMP JUMPDEST SWAP2 PUSH2 0x2C9C PUSH1 0x6 DUP6 ADD PUSH2 0x37CC JUMP JUMPDEST SWAP4 PUSH1 0x7 ADD PUSH2 0x2CA9 SWAP1 PUSH2 0x37CC JUMP JUMPDEST SWAP5 PUSH1 0x40 MLOAD SWAP8 DUP9 SWAP8 PUSH2 0x100 DUP10 MSTORE PUSH2 0x100 DUP10 ADD PUSH2 0x2CC3 SWAP2 PUSH2 0x371C JUMP JUMPDEST DUP9 DUP2 SUB PUSH1 0x20 DUP11 ADD MSTORE PUSH2 0x2CD4 SWAP2 PUSH2 0x371C JUMP JUMPDEST DUP8 DUP2 SUB PUSH1 0x40 DUP10 ADD MSTORE PUSH2 0x2CE5 SWAP2 PUSH2 0x371C JUMP JUMPDEST DUP7 DUP2 SUB PUSH1 0x60 DUP9 ADD MSTORE PUSH2 0x2CF6 SWAP2 PUSH2 0x371C JUMP JUMPDEST DUP6 DUP2 SUB PUSH1 0x80 DUP8 ADD MSTORE PUSH2 0x2D07 SWAP2 PUSH2 0x371C JUMP JUMPDEST DUP5 DUP2 SUB PUSH1 0xA0 DUP7 ADD MSTORE PUSH2 0x2D18 SWAP2 PUSH2 0x371C JUMP JUMPDEST DUP4 DUP2 SUB PUSH1 0xC0 DUP6 ADD MSTORE PUSH2 0x2D29 SWAP2 PUSH2 0x371C JUMP JUMPDEST DUP3 DUP2 SUB PUSH1 0xE0 DUP5 ADD MSTORE PUSH2 0x390 SWAP2 PUSH2 0x371C JUMP JUMPDEST CALLVALUE PUSH2 0x1C8 JUMPI PUSH1 0x20 CALLDATASIZE PUSH1 0x3 NOT ADD SLT PUSH2 0x1C8 JUMPI PUSH1 0x4 CALLDATALOAD PUSH1 0x2 SLOAD DUP2 LT ISZERO PUSH2 0x1C8 JUMPI PUSH2 0x2D64 PUSH2 0x2DC1 SWAP2 PUSH2 0x38B8 JUMP JUMPDEST POP PUSH2 0x2D6E DUP2 PUSH2 0x37CC JUMP JUMPDEST SWAP1 PUSH2 0x2E04 PUSH2 0x2D7E PUSH1 0x1 DUP4 ADD PUSH2 0x37CC JUMP JUMPDEST SWAP2 PUSH2 0x2D8B PUSH1 0x2 DUP3 ADD PUSH2 0x37CC JUMP JUMPDEST SWAP1 PUSH2 0x2DF7 PUSH2 0x2DDD PUSH1 0x3 DUP4 ADD SLOAD SWAP4 PUSH2 0x2DCF PUSH1 0x5 PUSH2 0x2DA9 PUSH1 0x4 DUP8 ADD PUSH2 0x37CC JUMP JUMPDEST SWAP6 ADD SLOAD SWAP8 PUSH1 0x40 MLOAD SWAP11 DUP12 SWAP11 PUSH1 0xE0 DUP13 MSTORE PUSH1 0xE0 DUP13 ADD SWAP1 PUSH2 0x371C JUMP JUMPDEST SWAP1 DUP11 DUP3 SUB PUSH1 0x20 DUP13 ADD MSTORE PUSH2 0x371C JUMP JUMPDEST SWAP1 DUP9 DUP3 SUB PUSH1 0x40 DUP11 ADD MSTORE PUSH2 0x371C JUMP JUMPDEST SWAP3 PUSH1 0xFF DUP2 AND PUSH1 0x60 DUP9 ADD MSTORE PUSH1 0xFF PUSH1 0x80 DUP9 ADD SWAP2 PUSH1 0x8 SHR AND PUSH2 0x38AB JUMP JUMPDEST DUP5 DUP3 SUB PUSH1 0xA0 DUP7 ADD MSTORE PUSH2 0x371C JUMP JUMPDEST SWAP1 PUSH1 0xC0 DUP4 ADD MSTORE SUB SWAP1 RETURN JUMPDEST CALLVALUE PUSH2 0x1C8 JUMPI PUSH1 0x20 CALLDATASIZE PUSH1 0x3 NOT ADD SLT PUSH2 0x1C8 JUMPI PUSH1 0x4 CALLDATALOAD PUSH1 0x1 PUSH1 0x1 PUSH1 0x40 SHL SUB DUP2 GT PUSH2 0x1C8 JUMPI PUSH2 0x2E3E SWAP1 CALLDATASIZE SWAP1 PUSH1 0x4 ADD PUSH2 0x36C7 JUMP JUMPDEST PUSH1 0x40 MLOAD DUP2 DUP2 SWAP3 MLOAD PUSH1 0x20 DUP2 SWAP3 ADD DUP4 MCOPY DUP2 ADD PUSH0 DUP2 MSTORE SUB PUSH1 0x20 ADD SWAP1 KECCAK256 DUP1 SLOAD PUSH1 0xFF AND PUSH1 0x1 DUP3 ADD SLOAD SWAP2 PUSH1 0x2 DUP2 ADD SLOAD SWAP1 PUSH1 0x3 DUP2 ADD SLOAD PUSH1 0x4 DUP3 ADD SLOAD PUSH1 0x5 DUP4 ADD SLOAD PUSH1 0x6 DUP5 ADD SLOAD SWAP1 PUSH1 0x7 DUP6 ADD SLOAD SWAP3 PUSH1 0x8 DUP7 ADD PUSH2 0x2E90 SWAP1 PUSH2 0x386C JUMP JUMPDEST SWAP5 PUSH2 0x2E9D PUSH1 0xB DUP9 ADD PUSH2 0x386C JUMP JUMPDEST SWAP7 PUSH1 0xE ADD PUSH2 0x2EAA SWAP1 PUSH2 0x37CC JUMP JUMPDEST SWAP8 PUSH1 0x40 MLOAD SWAP11 PUSH2 0x2EBA DUP13 DUP1 SWAP13 PUSH2 0x38AB JUMP JUMPDEST PUSH1 0x20 DUP12 ADD MSTORE PUSH1 0x40 DUP11 ADD MSTORE PUSH1 0x60 DUP10 ADD MSTORE PUSH1 0x80 DUP9 ADD MSTORE PUSH1 0xA0 DUP8 ADD MSTORE PUSH1 0xC0 DUP7 ADD MSTORE PUSH1 0xE0 DUP6 ADD MSTORE PUSH2 0x100 DUP5 ADD PUSH2 0x160 SWAP1 MSTORE PUSH2 0x160 DUP5 ADD PUSH2 0x2EF5 SWAP2 PUSH2 0x3740 JUMP JUMPDEST DUP4 DUP2 SUB PUSH2 0x120 DUP6 ADD MSTORE PUSH2 0x2F07 SWAP2 PUSH2 0x3740 JUMP JUMPDEST DUP3 DUP2 SUB PUSH2 0x140 DUP5 ADD MSTORE PUSH2 0x390 SWAP2 PUSH2 0x371C JUMP JUMPDEST CALLVALUE PUSH2 0x1C8 JUMPI PUSH1 0x60 CALLDATASIZE PUSH1 0x3 NOT ADD SLT PUSH2 0x1C8 JUMPI PUSH1 0x4 CALLDATALOAD PUSH1 0x1 PUSH1 0x1 PUSH1 0x40 SHL SUB DUP2 GT PUSH2 0x1C8 JUMPI PUSH2 0x2F49 SWAP1 CALLDATASIZE SWAP1 PUSH1 0x4 ADD PUSH2 0x36C7 JUMP JUMPDEST PUSH1 0x24 CALLDATALOAD PUSH1 0x1 PUSH1 0x1 PUSH1 0x40 SHL SUB DUP2 GT PUSH2 0x1C8 JUMPI PUSH2 0x2F68 SWAP1 CALLDATASIZE SWAP1 PUSH1 0x4 ADD PUSH2 0x36C7 JUMP JUMPDEST SWAP1 PUSH1 0x44 CALLDATALOAD PUSH1 0x1 PUSH1 0x1 PUSH1 0xA0 SHL SUB DUP2 AND DUP2 SUB PUSH2 0x1C8 JUMPI PUSH2 0x390 SWAP3 PUSH2 0x2F89 SWAP3 PUSH2 0x3E0D JUMP JUMPDEST PUSH1 0x40 MLOAD SWAP2 DUP3 SWAP2 PUSH1 0x20 DUP4 MSTORE PUSH1 0x20 DUP4 ADD SWAP1 PUSH2 0x3740 JUMP JUMPDEST CALLVALUE PUSH2 0x1C8 JUMPI PUSH1 0xC0 CALLDATASIZE PUSH1 0x3 NOT ADD SLT PUSH2 0x1C8 JUMPI PUSH1 0x4 CALLDATALOAD PUSH1 0x1 PUSH1 0x1 PUSH1 0x40 SHL SUB DUP2 GT PUSH2 0x1C8 JUMPI PUSH2 0x2FCD SWAP1 CALLDATASIZE SWAP1 PUSH1 0x4 ADD PUSH2 0x36C7 JUMP JUMPDEST PUSH1 0x24 CALLDATALOAD PUSH1 0x1 PUSH1 0x1 PUSH1 0x40 SHL SUB DUP2 GT PUSH2 0x1C8 JUMPI PUSH2 0x2FEC SWAP1 CALLDATASIZE SWAP1 PUSH1 0x4 ADD PUSH2 0x36C7 JUMP JUMPDEST PUSH1 0x44 CALLDATALOAD PUSH1 0x1 PUSH1 0x1 PUSH1 0x40 SHL SUB DUP2 GT PUSH2 0x1C8 JUMPI PUSH2 0x300B SWAP1 CALLDATASIZE SWAP1 PUSH1 0x4 ADD PUSH2 0x36C7 JUMP JUMPDEST PUSH1 0x64 CALLDATALOAD PUSH1 0x1 PUSH1 0x1 PUSH1 0x40 SHL SUB DUP2 GT PUSH2 0x1C8 JUMPI PUSH2 0x302A SWAP1 CALLDATASIZE SWAP1 PUSH1 0x4 ADD PUSH2 0x36C7 JUMP JUMPDEST PUSH2 0x3032 PUSH2 0x377E JUMP JUMPDEST PUSH1 0xA4 CALLDATALOAD SWAP2 PUSH1 0x1 PUSH1 0x1 PUSH1 0x40 SHL SUB DUP4 GT PUSH2 0x1C8 JUMPI PUSH2 0x3055 PUSH2 0x305B SWAP4 CALLDATASIZE SWAP1 PUSH1 0x4 ADD PUSH2 0x36C7 JUMP JUMPDEST SWAP4 PUSH2 0x3E0D JUMP JUMPDEST PUSH1 0x40 MLOAD SWAP1 PUSH1 0x1 DUP5 MLOAD SWAP3 PUSH1 0x20 DUP2 DUP2 DUP9 ADD SWAP6 DUP1 DUP8 DUP4 MCOPY DUP2 ADD PUSH1 0x3 DUP2 MSTORE SUB ADD SWAP1 KECCAK256 ADD DUP6 MLOAD PUSH1 0x1 PUSH1 0x1 PUSH1 0x40 SHL SUB DUP2 GT PUSH2 0x31C JUMPI PUSH2 0x3094 DUP3 SLOAD PUSH2 0x3794 JUMP JUMPDEST PUSH1 0x1F DUP2 GT PUSH2 0x3406 JUMPI JUMPDEST POP PUSH1 0x20 PUSH1 0x1F DUP3 GT PUSH1 0x1 EQ PUSH2 0x339F JUMPI SWAP1 DUP1 PUSH2 0x30D4 SWAP5 SWAP4 SWAP3 PUSH0 SWAP2 PUSH2 0x3394 JUMPI JUMPDEST POP DUP2 PUSH1 0x1 SHL SWAP2 PUSH0 NOT SWAP1 PUSH1 0x3 SHL SHR NOT AND OR SWAP1 SSTORE JUMPDEST DUP4 DUP6 PUSH2 0x4613 JUMP JUMPDEST PUSH1 0x2 SLOAD SWAP3 PUSH0 JUMPDEST DUP5 DUP2 LT PUSH2 0x30E3 JUMPI STOP JUMPDEST PUSH2 0x30EC DUP2 PUSH2 0x38B8 JUMP JUMPDEST POP PUSH1 0x40 MLOAD PUSH2 0x3102 DUP2 PUSH2 0x566 PUSH1 0x20 DUP3 ADD DUP1 SWAP6 PUSH2 0x3DA3 JUMP JUMPDEST MLOAD SWAP1 KECCAK256 PUSH1 0x40 MLOAD PUSH1 0x20 DUP2 ADD SWAP1 PUSH2 0x312F PUSH1 0x20 DUP3 DUP8 MLOAD DUP1 DUP11 DUP8 MCOPY DUP2 ADD PUSH0 DUP4 DUP3 ADD MSTORE SUB ADD PUSH1 0x1F NOT DUP2 ADD DUP4 MSTORE DUP3 PUSH2 0x36A6 JUMP JUMPDEST MLOAD SWAP1 KECCAK256 EQ PUSH2 0x3140 JUMPI JUMPDEST PUSH1 0x1 ADD PUSH2 0x30DA JUMP JUMPDEST PUSH1 0x1 PUSH2 0x314B DUP3 PUSH2 0x38B8 JUMP JUMPDEST POP ADD DUP7 MLOAD PUSH1 0x1 PUSH1 0x1 PUSH1 0x40 SHL SUB DUP2 GT PUSH2 0x31C JUMPI PUSH2 0x3167 DUP3 SLOAD PUSH2 0x3794 JUMP JUMPDEST PUSH1 0x1F DUP2 GT PUSH2 0x334F JUMPI JUMPDEST POP DUP1 PUSH1 0x20 PUSH1 0x1F DUP3 GT PUSH1 0x1 EQ PUSH2 0x32EC JUMPI PUSH0 SWAP2 PUSH2 0x32E1 JUMPI JUMPDEST POP DUP2 PUSH1 0x1 SHL SWAP2 PUSH0 NOT SWAP1 PUSH1 0x3 SHL SHR NOT AND OR SWAP1 SSTORE JUMPDEST PUSH1 0x3 PUSH2 0x31A4 DUP3 PUSH2 0x38B8 JUMP JUMPDEST POP ADD DUP1 SLOAD PUSH2 0xFF00 NOT AND PUSH2 0x100 OR SWAP1 SSTORE PUSH1 0x4 PUSH2 0x31BE DUP3 PUSH2 0x38B8 JUMP JUMPDEST POP ADD DUP5 MLOAD PUSH1 0x1 PUSH1 0x1 PUSH1 0x40 SHL SUB DUP2 GT PUSH2 0x31C JUMPI PUSH2 0x31DA DUP3 SLOAD PUSH2 0x3794 JUMP JUMPDEST PUSH1 0x1F DUP2 GT PUSH2 0x329C JUMPI JUMPDEST POP DUP1 PUSH1 0x20 PUSH1 0x1F DUP3 GT PUSH1 0x1 EQ PUSH2 0x323B JUMPI PUSH0 SWAP2 PUSH2 0x3230 JUMPI JUMPDEST POP DUP2 PUSH1 0x1 SHL SWAP2 PUSH0 NOT SWAP1 PUSH1 0x3 SHL SHR NOT AND OR SWAP1 SSTORE JUMPDEST PUSH1 0x82 TIMESTAMP ADD SWAP1 DUP2 TIMESTAMP GT PUSH2 0x330 JUMPI PUSH1 0x1 SWAP2 PUSH1 0x5 PUSH2 0x3226 DUP4 PUSH2 0x38B8 JUMP JUMPDEST POP ADD SSTORE SWAP1 POP PUSH2 0x3138 JUMP JUMPDEST SWAP1 POP DUP7 ADD MLOAD DUP10 PUSH2 0x31F9 JUMP JUMPDEST PUSH0 DUP5 DUP2 MSTORE DUP2 DUP2 KECCAK256 SWAP3 POP PUSH1 0x1F NOT DUP5 AND SWAP1 JUMPDEST DUP2 DUP2 LT PUSH2 0x3284 JUMPI POP SWAP1 DUP4 PUSH1 0x1 SWAP5 SWAP4 SWAP3 LT PUSH2 0x326C JUMPI JUMPDEST POP POP DUP2 SHL ADD SWAP1 SSTORE PUSH2 0x320C JUMP JUMPDEST DUP9 ADD MLOAD PUSH0 NOT PUSH1 0xF8 DUP5 PUSH1 0x3 SHL AND SHR NOT AND SWAP1 SSTORE DUP10 DUP1 PUSH2 0x3260 JUMP JUMPDEST SWAP2 SWAP3 PUSH1 0x20 PUSH1 0x1 DUP2 SWAP3 DUP7 DUP14 ADD MLOAD DUP2 SSTORE ADD SWAP5 ADD SWAP3 ADD PUSH2 0x324B JUMP JUMPDEST DUP3 PUSH0 MSTORE PUSH1 0x20 PUSH0 KECCAK256 PUSH1 0x1F DUP4 ADD PUSH1 0x5 SHR DUP2 ADD SWAP2 PUSH1 0x20 DUP5 LT PUSH2 0x32D7 JUMPI JUMPDEST PUSH1 0x1F ADD PUSH1 0x5 SHR ADD SWAP1 JUMPDEST DUP2 DUP2 LT PUSH2 0x32CC JUMPI POP PUSH2 0x31E3 JUMP JUMPDEST PUSH0 DUP2 SSTORE PUSH1 0x1 ADD PUSH2 0x32BF JUMP JUMPDEST SWAP1 SWAP2 POP DUP2 SWAP1 PUSH2 0x32B6 JUMP JUMPDEST SWAP1 POP DUP9 ADD MLOAD DUP10 PUSH2 0x3186 JUMP JUMPDEST PUSH0 DUP5 DUP2 MSTORE DUP2 DUP2 KECCAK256 SWAP3 POP PUSH1 0x1F NOT DUP5 AND SWAP1 JUMPDEST DUP12 DUP3 DUP3 LT PUSH2 0x3337 JUMPI POP POP SWAP1 DUP4 PUSH1 0x1 SWAP5 SWAP4 SWAP3 LT PUSH2 0x331F JUMPI JUMPDEST POP POP DUP2 SHL ADD SWAP1 SSTORE PUSH2 0x3199 JUMP JUMPDEST DUP11 ADD MLOAD PUSH0 NOT PUSH1 0xF8 DUP5 PUSH1 0x3 SHL AND SHR NOT AND SWAP1 SSTORE DUP10 DUP1 PUSH2 0x3313 JUMP JUMPDEST PUSH1 0x1 DUP5 SWAP6 PUSH1 0x20 SWAP4 SWAP6 DUP5 SWAP4 ADD MLOAD DUP2 SSTORE ADD SWAP5 ADD SWAP3 ADD PUSH2 0x32FC JUMP JUMPDEST DUP3 PUSH0 MSTORE PUSH1 0x20 PUSH0 KECCAK256 PUSH1 0x1F DUP4 ADD PUSH1 0x5 SHR DUP2 ADD SWAP2 PUSH1 0x20 DUP5 LT PUSH2 0x338A JUMPI JUMPDEST PUSH1 0x1F ADD PUSH1 0x5 SHR ADD SWAP1 JUMPDEST DUP2 DUP2 LT PUSH2 0x337F JUMPI POP PUSH2 0x3170 JUMP JUMPDEST PUSH0 DUP2 SSTORE PUSH1 0x1 ADD PUSH2 0x3372 JUMP JUMPDEST SWAP1 SWAP2 POP DUP2 SWAP1 PUSH2 0x3369 JUMP JUMPDEST SWAP1 POP DUP9 ADD MLOAD DUP10 PUSH2 0x30BA JUMP JUMPDEST PUSH1 0x1F NOT DUP3 AND SWAP1 DUP4 PUSH0 MSTORE DUP1 PUSH0 KECCAK256 SWAP2 PUSH0 JUMPDEST DUP11 DUP3 DUP3 LT PUSH2 0x33EE JUMPI POP POP SWAP2 DUP4 SWAP2 PUSH2 0x30D4 SWAP7 SWAP6 SWAP5 PUSH1 0x1 SWAP5 LT PUSH2 0x33D6 JUMPI JUMPDEST POP POP DUP2 SHL ADD SWAP1 SSTORE PUSH2 0x30CD JUMP JUMPDEST DUP11 ADD MLOAD PUSH0 NOT PUSH1 0xF8 DUP5 PUSH1 0x3 SHL AND SHR NOT AND SWAP1 SSTORE DUP10 DUP1 PUSH2 0x33CA JUMP JUMPDEST PUSH1 0x1 DUP5 SWAP6 PUSH1 0x20 SWAP4 SWAP6 DUP5 SWAP4 ADD MLOAD DUP2 SSTORE ADD SWAP5 ADD SWAP3 ADD PUSH2 0x33AE JUMP JUMPDEST DUP3 PUSH0 MSTORE PUSH1 0x20 PUSH0 KECCAK256 PUSH1 0x1F DUP4 ADD PUSH1 0x5 SHR DUP2 ADD SWAP2 PUSH1 0x20 DUP5 LT PUSH2 0x3441 JUMPI JUMPDEST PUSH1 0x1F ADD PUSH1 0x5 SHR ADD SWAP1 JUMPDEST DUP2 DUP2 LT PUSH2 0x3436 JUMPI POP PUSH2 0x309D JUMP JUMPDEST PUSH0 DUP2 SSTORE PUSH1 0x1 ADD PUSH2 0x3429 JUMP JUMPDEST SWAP1 SWAP2 POP DUP2 SWAP1 PUSH2 0x3420 JUMP JUMPDEST CALLVALUE PUSH2 0x1C8 JUMPI PUSH1 0xA0 CALLDATASIZE PUSH1 0x3 NOT ADD SLT PUSH2 0x1C8 JUMPI PUSH1 0x4 CALLDATALOAD PUSH1 0x1 PUSH1 0x1 PUSH1 0x40 SHL SUB DUP2 GT PUSH2 0x1C8 JUMPI PUSH2 0x347B SWAP1 CALLDATASIZE SWAP1 PUSH1 0x4 ADD PUSH2 0x36C7 JUMP JUMPDEST PUSH1 0x24 CALLDATALOAD PUSH1 0x1 PUSH1 0x1 PUSH1 0x40 SHL SUB DUP2 GT PUSH2 0x1C8 JUMPI PUSH2 0x349A SWAP1 CALLDATASIZE SWAP1 PUSH1 0x4 ADD PUSH2 0x36C7 JUMP JUMPDEST PUSH1 0x44 CALLDATALOAD PUSH1 0x1 PUSH1 0x1 PUSH1 0x40 SHL SUB DUP2 GT PUSH2 0x1C8 JUMPI PUSH2 0x34B9 SWAP1 CALLDATASIZE SWAP1 PUSH1 0x4 ADD PUSH2 0x36C7 JUMP JUMPDEST SWAP1 PUSH1 0x64 CALLDATALOAD PUSH1 0x1 PUSH1 0x1 PUSH1 0x40 SHL SUB DUP2 GT PUSH2 0x1C8 JUMPI PUSH2 0x34F5 SWAP3 PUSH2 0x34E0 PUSH2 0x34EE SWAP3 CALLDATASIZE SWAP1 PUSH1 0x4 ADD PUSH2 0x36C7 JUMP JUMPDEST PUSH2 0x34E8 PUSH2 0x377E JUMP JUMPDEST SWAP2 PUSH2 0x3E0D JUMP JUMPDEST SWAP1 DUP4 PUSH2 0x4276 JUMP JUMPDEST PUSH1 0x2 SLOAD PUSH1 0x20 DUP3 ADD PUSH0 JUMPDEST DUP3 DUP2 LT PUSH2 0x3507 JUMPI STOP JUMPDEST DUP1 PUSH2 0x3513 PUSH1 0x1 SWAP3 PUSH2 0x38B8 JUMP JUMPDEST POP PUSH1 0x40 MLOAD PUSH2 0x3529 DUP2 PUSH2 0x566 PUSH1 0x20 DUP3 ADD DUP1 SWAP6 PUSH2 0x3DA3 JUMP JUMPDEST MLOAD SWAP1 KECCAK256 PUSH1 0x40 MLOAD PUSH1 0x20 DUP2 ADD SWAP1 PUSH2 0x3556 PUSH1 0x20 DUP3 DUP11 MLOAD DUP1 DUP11 DUP8 MCOPY DUP2 ADD PUSH0 DUP4 DUP3 ADD MSTORE SUB ADD PUSH1 0x1F NOT DUP2 ADD DUP4 MSTORE DUP3 PUSH2 0x36A6 JUMP JUMPDEST MLOAD SWAP1 KECCAK256 EQ PUSH2 0x3565 JUMPI JUMPDEST ADD PUSH2 0x34FE JUMP JUMPDEST PUSH1 0x3 PUSH2 0x3570 DUP3 PUSH2 0x38B8 JUMP JUMPDEST POP ADD DUP1 SLOAD PUSH2 0xFF00 NOT AND PUSH2 0x200 OR SWAP1 SSTORE PUSH2 0x355F JUMP JUMPDEST CALLVALUE PUSH2 0x1C8 JUMPI PUSH1 0x20 CALLDATASIZE PUSH1 0x3 NOT ADD SLT PUSH2 0x1C8 JUMPI PUSH1 0x4 CALLDATALOAD PUSH1 0x1 PUSH1 0x1 PUSH1 0x40 SHL SUB DUP2 GT PUSH2 0x1C8 JUMPI PUSH2 0x35B7 PUSH2 0x1C6 SWAP2 CALLDATASIZE SWAP1 PUSH1 0x4 ADD PUSH2 0x36C7 JUMP JUMPDEST PUSH2 0x3D75 JUMP JUMPDEST CALLVALUE PUSH2 0x1C8 JUMPI PUSH1 0x20 CALLDATASIZE PUSH1 0x3 NOT ADD SLT PUSH2 0x1C8 JUMPI PUSH1 0x4 CALLDATALOAD PUSH1 0x1 PUSH1 0x1 PUSH1 0x40 SHL SUB DUP2 GT PUSH2 0x1C8 JUMPI PUSH2 0x2F89 PUSH1 0x8 PUSH1 0x20 DUP1 PUSH2 0x35F7 PUSH2 0x390 SWAP6 CALLDATASIZE SWAP1 PUSH1 0x4 ADD PUSH2 0x36C7 JUMP JUMPDEST PUSH2 0x35FF PUSH2 0x3D55 JUMP JUMPDEST POP PUSH1 0x40 MLOAD SWAP3 DUP2 DUP5 SWAP3 MLOAD SWAP2 DUP3 SWAP2 ADD DUP4 MCOPY DUP2 ADD PUSH0 DUP2 MSTORE SUB ADD SWAP1 KECCAK256 ADD PUSH2 0x386C JUMP JUMPDEST PUSH1 0x60 DUP2 ADD SWAP1 DUP2 LT PUSH1 0x1 PUSH1 0x1 PUSH1 0x40 SHL SUB DUP3 GT OR PUSH2 0x31C JUMPI PUSH1 0x40 MSTORE JUMP JUMPDEST PUSH1 0xE0 DUP2 ADD SWAP1 DUP2 LT PUSH1 0x1 PUSH1 0x1 PUSH1 0x40 SHL SUB DUP3 GT OR PUSH2 0x31C JUMPI PUSH1 0x40 MSTORE JUMP JUMPDEST PUSH1 0x40 DUP2 ADD SWAP1 DUP2 LT PUSH1 0x1 PUSH1 0x1 PUSH1 0x40 SHL SUB DUP3 GT OR PUSH2 0x31C JUMPI PUSH1 0x40 MSTORE JUMP JUMPDEST PUSH2 0x100 DUP2 ADD SWAP1 DUP2 LT PUSH1 0x1 PUSH1 0x1 PUSH1 0x40 SHL SUB DUP3 GT OR PUSH2 0x31C JUMPI PUSH1 0x40 MSTORE JUMP JUMPDEST PUSH2 0x160 DUP2 ADD SWAP1 DUP2 LT PUSH1 0x1 PUSH1 0x1 PUSH1 0x40 SHL SUB DUP3 GT OR PUSH2 0x31C JUMPI PUSH1 0x40 MSTORE JUMP JUMPDEST SWAP1 PUSH1 0x1F DUP1 NOT SWAP2 ADD AND DUP2 ADD SWAP1 DUP2 LT PUSH1 0x1 PUSH1 0x1 PUSH1 0x40 SHL SUB DUP3 GT OR PUSH2 0x31C JUMPI PUSH1 0x40 MSTORE JUMP JUMPDEST DUP2 PUSH1 0x1F DUP3 ADD SLT ISZERO PUSH2 0x1C8 JUMPI DUP1 CALLDATALOAD SWAP1 PUSH1 0x1 PUSH1 0x1 PUSH1 0x40 SHL SUB DUP3 GT PUSH2 0x31C JUMPI PUSH1 0x40 MLOAD SWAP3 PUSH2 0x36FB PUSH1 0x1F DUP5 ADD PUSH1 0x1F NOT AND PUSH1 0x20 ADD DUP6 PUSH2 0x36A6 JUMP JUMPDEST DUP3 DUP5 MSTORE PUSH1 0x20 DUP4 DUP4 ADD ADD GT PUSH2 0x1C8 JUMPI DUP2 PUSH0 SWAP3 PUSH1 0x20 DUP1 SWAP4 ADD DUP4 DUP7 ADD CALLDATACOPY DUP4 ADD ADD MSTORE SWAP1 JUMP JUMPDEST DUP1 MLOAD DUP1 DUP4 MSTORE PUSH1 0x20 SWAP3 SWAP2 DUP2 SWAP1 DUP5 ADD DUP5 DUP5 ADD MCOPY PUSH0 DUP3 DUP3 ADD DUP5 ADD MSTORE PUSH1 0x1F ADD PUSH1 0x1F NOT AND ADD ADD SWAP1 JUMP JUMPDEST SWAP1 PUSH1 0x40 PUSH2 0x376B PUSH2 0x3759 DUP5 MLOAD PUSH1 0x60 DUP6 MSTORE PUSH1 0x60 DUP6 ADD SWAP1 PUSH2 0x371C JUMP JUMPDEST PUSH1 0x20 DUP6 ADD MLOAD DUP5 DUP3 SUB PUSH1 0x20 DUP7 ADD MSTORE PUSH2 0x371C JUMP JUMPDEST SWAP3 DUP2 ADD MLOAD PUSH1 0x1 PUSH1 0x1 PUSH1 0xA0 SHL SUB AND SWAP2 ADD MSTORE SWAP1 JUMP JUMPDEST PUSH1 0x84 CALLDATALOAD SWAP1 PUSH1 0x1 PUSH1 0x1 PUSH1 0xA0 SHL SUB DUP3 AND DUP3 SUB PUSH2 0x1C8 JUMPI JUMP JUMPDEST SWAP1 PUSH1 0x1 DUP3 DUP2 SHR SWAP3 AND DUP1 ISZERO PUSH2 0x37C2 JUMPI JUMPDEST PUSH1 0x20 DUP4 LT EQ PUSH2 0x37AE JUMPI JUMP JUMPDEST PUSH4 0x4E487B71 PUSH1 0xE0 SHL PUSH0 MSTORE PUSH1 0x22 PUSH1 0x4 MSTORE PUSH1 0x24 PUSH0 REVERT JUMPDEST SWAP2 PUSH1 0x7F AND SWAP2 PUSH2 0x37A3 JUMP JUMPDEST SWAP1 PUSH1 0x40 MLOAD SWAP2 DUP3 PUSH0 DUP3 SLOAD SWAP3 PUSH2 0x37DF DUP5 PUSH2 0x3794 JUMP JUMPDEST DUP1 DUP5 MSTORE SWAP4 PUSH1 0x1 DUP2 AND SWAP1 DUP2 ISZERO PUSH2 0x384A JUMPI POP PUSH1 0x1 EQ PUSH2 0x3806 JUMPI JUMPDEST POP PUSH2 0x3804 SWAP3 POP SUB DUP4 PUSH2 0x36A6 JUMP JUMPDEST JUMP JUMPDEST SWAP1 POP PUSH0 SWAP3 SWAP2 SWAP3 MSTORE PUSH1 0x20 PUSH0 KECCAK256 SWAP1 PUSH0 SWAP2 JUMPDEST DUP2 DUP4 LT PUSH2 0x382E JUMPI POP POP SWAP1 PUSH1 0x20 PUSH2 0x3804 SWAP3 DUP3 ADD ADD PUSH0 PUSH2 0x37F7 JUMP JUMPDEST PUSH1 0x20 SWAP2 SWAP4 POP DUP1 PUSH1 0x1 SWAP2 SLOAD DUP4 DUP6 DUP10 ADD ADD MSTORE ADD SWAP2 ADD SWAP1 SWAP2 DUP5 SWAP3 PUSH2 0x3815 JUMP JUMPDEST SWAP1 POP PUSH1 0x20 SWAP3 POP PUSH2 0x3804 SWAP5 SWAP2 POP PUSH1 0xFF NOT AND DUP3 DUP5 ADD MSTORE ISZERO ISZERO PUSH1 0x5 SHL DUP3 ADD ADD PUSH0 PUSH2 0x37F7 JUMP JUMPDEST SWAP1 PUSH1 0x40 MLOAD PUSH2 0x3879 DUP2 PUSH2 0x361D JUMP JUMPDEST PUSH1 0x40 DUP2 SWAP4 PUSH2 0x3886 DUP2 PUSH2 0x37CC JUMP JUMPDEST DUP4 MSTORE PUSH2 0x3894 PUSH1 0x1 DUP3 ADD PUSH2 0x37CC JUMP JUMPDEST PUSH1 0x20 DUP5 ADD MSTORE PUSH1 0x2 ADD SLOAD PUSH1 0x1 PUSH1 0x1 PUSH1 0xA0 SHL SUB AND SWAP2 ADD MSTORE JUMP JUMPDEST SWAP1 PUSH1 0x7 DUP3 LT ISZERO PUSH2 0x2820 JUMPI MSTORE JUMP JUMPDEST PUSH1 0x2 SLOAD DUP2 LT ISZERO PUSH2 0x38D4 JUMPI PUSH1 0x2 PUSH0 MSTORE PUSH1 0x6 PUSH1 0x20 PUSH0 KECCAK256 SWAP2 MUL ADD SWAP1 PUSH0 SWAP1 JUMP JUMPDEST PUSH4 0x4E487B71 PUSH1 0xE0 SHL PUSH0 MSTORE PUSH1 0x32 PUSH1 0x4 MSTORE PUSH1 0x24 PUSH0 REVERT JUMPDEST SWAP2 SWAP1 PUSH1 0x40 DUP4 DUP3 SUB SLT PUSH2 0x1C8 JUMPI PUSH1 0x40 MLOAD SWAP1 PUSH2 0x3901 DUP3 PUSH2 0x3653 JUMP JUMPDEST DUP2 SWAP4 DUP1 CALLDATALOAD PUSH1 0x1 PUSH1 0x1 PUSH1 0x40 SHL SUB DUP2 GT PUSH2 0x1C8 JUMPI DUP3 PUSH2 0x391F SWAP2 DUP4 ADD PUSH2 0x36C7 JUMP JUMPDEST DUP4 MSTORE PUSH1 0x20 DUP2 ADD CALLDATALOAD SWAP2 PUSH1 0x1 PUSH1 0x1 PUSH1 0x40 SHL SUB DUP4 GT PUSH2 0x1C8 JUMPI PUSH1 0x20 SWAP3 PUSH2 0x3942 SWAP3 ADD PUSH2 0x36C7 JUMP JUMPDEST SWAP2 ADD MSTORE JUMP JUMPDEST SWAP2 SWAP1 PUSH2 0x100 DUP4 DUP3 SUB SLT PUSH2 0x1C8 JUMPI PUSH1 0x40 MLOAD SWAP1 PUSH2 0x3961 DUP3 PUSH2 0x366E JUMP JUMPDEST DUP2 SWAP4 DUP1 CALLDATALOAD PUSH1 0x1 PUSH1 0x1 PUSH1 0x40 SHL SUB DUP2 GT PUSH2 0x1C8 JUMPI DUP3 PUSH2 0x397F SWAP2 DUP4 ADD PUSH2 0x36C7 JUMP JUMPDEST DUP4 MSTORE PUSH1 0x20 DUP2 ADD CALLDATALOAD PUSH1 0x1 PUSH1 0x1 PUSH1 0x40 SHL SUB DUP2 GT PUSH2 0x1C8 JUMPI DUP3 PUSH2 0x39A0 SWAP2 DUP4 ADD PUSH2 0x36C7 JUMP JUMPDEST PUSH1 0x20 DUP5 ADD MSTORE PUSH1 0x40 DUP2 ADD CALLDATALOAD PUSH1 0x1 PUSH1 0x1 PUSH1 0x40 SHL SUB DUP2 GT PUSH2 0x1C8 JUMPI DUP3 PUSH2 0x39C4 SWAP2 DUP4 ADD PUSH2 0x36C7 JUMP JUMPDEST PUSH1 0x40 DUP5 ADD MSTORE PUSH1 0x60 DUP2 ADD CALLDATALOAD PUSH1 0x1 PUSH1 0x1 PUSH1 0x40 SHL SUB DUP2 GT PUSH2 0x1C8 JUMPI DUP3 PUSH2 0x39E8 SWAP2 DUP4 ADD PUSH2 0x36C7 JUMP JUMPDEST PUSH1 0x60 DUP5 ADD MSTORE PUSH1 0x80 DUP2 ADD CALLDATALOAD PUSH1 0x1 PUSH1 0x1 PUSH1 0x40 SHL SUB DUP2 GT PUSH2 0x1C8 JUMPI DUP3 PUSH2 0x3A0C SWAP2 DUP4 ADD PUSH2 0x36C7 JUMP JUMPDEST PUSH1 0x80 DUP5 ADD MSTORE PUSH1 0xA0 DUP2 ADD CALLDATALOAD PUSH1 0x1 PUSH1 0x1 PUSH1 0x40 SHL SUB DUP2 GT PUSH2 0x1C8 JUMPI DUP3 PUSH2 0x3A30 SWAP2 DUP4 ADD PUSH2 0x36C7 JUMP JUMPDEST PUSH1 0xA0 DUP5 ADD MSTORE PUSH1 0xC0 DUP2 ADD CALLDATALOAD PUSH1 0x1 PUSH1 0x1 PUSH1 0x40 SHL SUB DUP2 GT PUSH2 0x1C8 JUMPI DUP3 PUSH2 0x3A54 SWAP2 DUP4 ADD PUSH2 0x36C7 JUMP JUMPDEST PUSH1 0xC0 DUP5 ADD MSTORE PUSH1 0xE0 DUP2 ADD CALLDATALOAD SWAP2 PUSH1 0x1 PUSH1 0x1 PUSH1 0x40 SHL SUB DUP4 GT PUSH2 0x1C8 JUMPI PUSH1 0xE0 SWAP3 PUSH2 0x3942 SWAP3 ADD PUSH2 0x36C7 JUMP JUMPDEST PUSH1 0x20 DUP2 ADD PUSH1 0x20 DUP3 MSTORE DUP3 MLOAD DUP1 SWAP2 MSTORE PUSH1 0x40 DUP3 ADD SWAP2 PUSH1 0x20 PUSH1 0x40 DUP4 PUSH1 0x5 SHL DUP4 ADD ADD SWAP5 ADD SWAP3 PUSH0 SWAP2 JUMPDEST DUP4 DUP4 LT PUSH2 0x3AAC JUMPI POP POP POP POP POP SWAP1 JUMP JUMPDEST SWAP1 SWAP2 SWAP3 SWAP4 SWAP5 PUSH1 0x20 DUP1 PUSH1 0x1 SWAP3 PUSH1 0x3F NOT DUP6 DUP3 SUB ADD DUP7 MSTORE DUP9 MLOAD SWAP1 PUSH1 0xC0 DUP1 PUSH2 0x3B35 PUSH2 0x3B04 PUSH2 0x3AF2 PUSH2 0x3AE2 DUP8 MLOAD PUSH1 0xE0 DUP9 MSTORE PUSH1 0xE0 DUP9 ADD SWAP1 PUSH2 0x371C JUMP JUMPDEST DUP9 DUP9 ADD MLOAD DUP8 DUP3 SUB DUP11 DUP10 ADD MSTORE PUSH2 0x371C JUMP JUMPDEST PUSH1 0x40 DUP8 ADD MLOAD DUP7 DUP3 SUB PUSH1 0x40 DUP9 ADD MSTORE PUSH2 0x371C JUMP JUMPDEST PUSH1 0xFF PUSH1 0x60 DUP8 ADD MLOAD AND PUSH1 0x60 DUP7 ADD MSTORE PUSH2 0x3B23 PUSH1 0x80 DUP8 ADD MLOAD PUSH1 0x80 DUP8 ADD SWAP1 PUSH2 0x38AB JUMP JUMPDEST PUSH1 0xA0 DUP7 ADD MLOAD DUP6 DUP3 SUB PUSH1 0xA0 DUP8 ADD MSTORE PUSH2 0x371C JUMP JUMPDEST SWAP4 ADD MLOAD SWAP2 ADD MSTORE SWAP8 ADD SWAP4 ADD SWAP4 ADD SWAP2 SWAP4 SWAP3 SWAP1 PUSH2 0x3A9D JUMP JUMPDEST PUSH1 0x40 PUSH1 0x3 NOT DUP3 ADD SLT PUSH2 0x1C8 JUMPI PUSH1 0x4 CALLDATALOAD SWAP1 PUSH1 0x1 PUSH1 0x1 PUSH1 0x40 SHL SUB DUP3 GT PUSH2 0x1C8 JUMPI PUSH2 0x3B74 SWAP2 PUSH1 0x4 ADD PUSH2 0x36C7 JUMP JUMPDEST SWAP1 PUSH1 0x24 CALLDATALOAD SWAP1 JUMP JUMPDEST SWAP1 PUSH2 0x3C28 SWAP2 PUSH1 0x20 DUP2 MSTORE PUSH2 0x3B92 PUSH1 0x20 DUP3 ADD DUP4 MLOAD PUSH2 0x38AB JUMP JUMPDEST PUSH1 0x20 DUP3 ADD MLOAD PUSH1 0x40 DUP3 ADD MSTORE PUSH1 0x40 DUP3 ADD MLOAD PUSH1 0x60 DUP3 ADD MSTORE PUSH1 0x60 DUP3 ADD MLOAD PUSH1 0x80 DUP3 ADD MSTORE PUSH1 0x80 DUP3 ADD MLOAD PUSH1 0xA0 DUP3 ADD MSTORE PUSH1 0xA0 DUP3 ADD MLOAD PUSH1 0xC0 DUP3 ADD MSTORE PUSH1 0xC0 DUP3 ADD MLOAD PUSH1 0xE0 DUP3 ADD MSTORE PUSH1 0xE0 DUP3 ADD MLOAD PUSH2 0x100 DUP3 ADD MSTORE PUSH2 0x140 PUSH2 0x3C12 PUSH2 0x3BFC PUSH2 0x100 DUP6 ADD MLOAD PUSH2 0x160 PUSH2 0x120 DUP7 ADD MSTORE PUSH2 0x180 DUP6 ADD SWAP1 PUSH2 0x3740 JUMP JUMPDEST PUSH2 0x120 DUP6 ADD MLOAD DUP5 DUP3 SUB PUSH1 0x1F NOT ADD DUP5 DUP7 ADD MSTORE PUSH2 0x3740 JUMP JUMPDEST SWAP3 ADD MLOAD SWAP1 PUSH2 0x160 PUSH1 0x1F NOT DUP3 DUP6 SUB ADD SWAP2 ADD MSTORE PUSH2 0x371C JUMP JUMPDEST SWAP1 JUMP JUMPDEST SWAP1 PUSH1 0x40 PUSH1 0x3 NOT DUP4 ADD SLT PUSH2 0x1C8 JUMPI PUSH1 0x4 CALLDATALOAD PUSH1 0x1 PUSH1 0x1 PUSH1 0x40 SHL SUB DUP2 GT PUSH2 0x1C8 JUMPI DUP3 PUSH2 0x3C56 SWAP2 PUSH1 0x4 ADD PUSH2 0x36C7 JUMP JUMPDEST SWAP2 PUSH1 0x24 CALLDATALOAD SWAP1 PUSH1 0x1 PUSH1 0x1 PUSH1 0x40 SHL SUB DUP3 GT PUSH2 0x1C8 JUMPI PUSH2 0x3C28 SWAP2 PUSH1 0x4 ADD PUSH2 0x36C7 JUMP JUMPDEST SWAP2 SWAP1 PUSH1 0x60 DUP4 DUP3 SUB SLT PUSH2 0x1C8 JUMPI PUSH1 0x40 MLOAD SWAP1 PUSH2 0x3C8E DUP3 PUSH2 0x361D JUMP JUMPDEST DUP2 SWAP4 DUP1 CALLDATALOAD PUSH1 0x1 PUSH1 0x1 PUSH1 0x40 SHL SUB DUP2 GT PUSH2 0x1C8 JUMPI DUP3 PUSH2 0x3CAC SWAP2 DUP4 ADD PUSH2 0x36C7 JUMP JUMPDEST DUP4 MSTORE PUSH1 0x20 DUP2 ADD CALLDATALOAD PUSH1 0x1 PUSH1 0x1 PUSH1 0x40 SHL SUB DUP2 GT PUSH2 0x1C8 JUMPI PUSH1 0x40 SWAP3 PUSH2 0x3CCF SWAP2 DUP4 ADD PUSH2 0x36C7 JUMP JUMPDEST PUSH1 0x20 DUP5 ADD MSTORE ADD CALLDATALOAD SWAP1 PUSH1 0x1 PUSH1 0x1 PUSH1 0xA0 SHL SUB DUP3 AND DUP3 SUB PUSH2 0x1C8 JUMPI PUSH1 0x40 ADD MSTORE JUMP JUMPDEST PUSH1 0x60 PUSH1 0x3 NOT DUP3 ADD SLT PUSH2 0x1C8 JUMPI PUSH1 0x4 CALLDATALOAD PUSH1 0x1 PUSH1 0x1 PUSH1 0x40 SHL SUB DUP2 GT PUSH2 0x1C8 JUMPI DUP2 PUSH2 0x3D17 SWAP2 PUSH1 0x4 ADD PUSH2 0x36C7 JUMP JUMPDEST SWAP2 PUSH1 0x24 CALLDATALOAD PUSH1 0x1 PUSH1 0x1 PUSH1 0x40 SHL SUB DUP2 GT PUSH2 0x1C8 JUMPI DUP3 PUSH2 0x3D36 SWAP2 PUSH1 0x4 ADD PUSH2 0x36C7 JUMP JUMPDEST SWAP2 PUSH1 0x44 CALLDATALOAD SWAP1 PUSH1 0x1 PUSH1 0x1 PUSH1 0x40 SHL SUB DUP3 GT PUSH2 0x1C8 JUMPI PUSH2 0x3C28 SWAP2 PUSH1 0x4 ADD PUSH2 0x3C75 JUMP JUMPDEST PUSH1 0x40 MLOAD SWAP1 PUSH2 0x3D62 DUP3 PUSH2 0x361D JUMP JUMPDEST PUSH0 PUSH1 0x40 DUP4 PUSH1 0x60 DUP2 MSTORE PUSH1 0x60 PUSH1 0x20 DUP3 ADD MSTORE ADD MSTORE JUMP JUMPDEST PUSH1 0x20 DUP1 SWAP2 PUSH1 0x40 MLOAD SWAP3 DUP2 DUP5 SWAP3 MLOAD SWAP2 DUP3 SWAP2 ADD DUP4 MCOPY DUP2 ADD PUSH0 DUP2 MSTORE SUB ADD SWAP1 KECCAK256 TIMESTAMP PUSH1 0x4 DUP3 ADD SSTORE PUSH1 0x3 PUSH1 0xFF NOT DUP3 SLOAD AND OR SWAP1 SSTORE JUMP JUMPDEST PUSH0 SWAP3 SWAP2 DUP2 SLOAD SWAP2 PUSH2 0x3DB2 DUP4 PUSH2 0x3794 JUMP JUMPDEST SWAP3 PUSH1 0x1 DUP2 AND SWAP1 DUP2 ISZERO PUSH2 0x3DFA JUMPI POP PUSH1 0x1 EQ PUSH2 0x3DCB JUMPI POP POP POP JUMP JUMPDEST SWAP1 SWAP2 SWAP3 SWAP4 POP PUSH0 MSTORE PUSH1 0x20 PUSH0 KECCAK256 PUSH0 SWAP1 JUMPDEST DUP4 DUP3 LT PUSH2 0x3DE6 JUMPI POP POP ADD SWAP1 JUMP JUMPDEST PUSH1 0x1 DUP2 PUSH1 0x20 SWAP3 SLOAD DUP5 DUP7 ADD MSTORE ADD SWAP2 ADD SWAP1 PUSH2 0x3DD9 JUMP JUMPDEST PUSH1 0xFF NOT AND DUP4 MSTORE POP POP DUP2 ISZERO ISZERO SWAP1 SWAP2 MUL ADD SWAP2 POP JUMP JUMPDEST SWAP2 SWAP1 PUSH2 0x3E17 PUSH2 0x3D55 JUMP JUMPDEST POP PUSH1 0x40 MLOAD SWAP3 PUSH2 0x3E25 DUP5 PUSH2 0x361D JUMP JUMPDEST DUP4 MSTORE PUSH1 0x20 DUP4 ADD MSTORE PUSH1 0x1 PUSH1 0x1 PUSH1 0xA0 SHL SUB AND PUSH1 0x40 DUP3 ADD MSTORE SWAP1 JUMP JUMPDEST PUSH1 0x7 DUP3 LT ISZERO PUSH2 0x2820 JUMPI MSTORE JUMP JUMPDEST PUSH1 0x40 MLOAD DUP2 MLOAD PUSH2 0x3C28 SWAP3 PUSH1 0x20 SWAP2 DUP4 SWAP2 DUP2 SWAP1 DUP5 ADD DUP4 MCOPY DUP2 ADD PUSH1 0x1 DUP2 MSTORE SUB ADD SWAP1 KECCAK256 PUSH2 0x37CC JUMP JUMPDEST PUSH1 0xFF AND PUSH1 0xFF DUP2 EQ PUSH2 0x330 JUMPI PUSH1 0x1 ADD SWAP1 JUMP JUMPDEST PUSH1 0x1 PUSH1 0x1 PUSH1 0x40 SHL SUB DUP2 GT PUSH2 0x31C JUMPI PUSH1 0x5 SHL PUSH1 0x20 ADD SWAP1 JUMP JUMPDEST SWAP1 PUSH2 0x3E9E DUP3 PUSH2 0x3E7D JUMP JUMPDEST PUSH2 0x3EAB PUSH1 0x40 MLOAD SWAP2 DUP3 PUSH2 0x36A6 JUMP JUMPDEST DUP3 DUP2 MSTORE DUP1 SWAP3 PUSH2 0x3EBC PUSH1 0x1F NOT SWAP2 PUSH2 0x3E7D JUMP JUMPDEST ADD SWAP1 PUSH0 JUMPDEST DUP3 DUP2 LT PUSH2 0x3ECC JUMPI POP POP POP JUMP JUMPDEST PUSH1 0x20 SWAP1 PUSH1 0x40 MLOAD PUSH2 0x3EDB DUP2 PUSH2 0x3638 JUMP JUMPDEST PUSH1 0x60 DUP2 MSTORE PUSH1 0x60 DUP4 DUP3 ADD MSTORE PUSH1 0x60 PUSH1 0x40 DUP3 ADD MSTORE PUSH0 PUSH1 0x60 DUP3 ADD MSTORE PUSH0 PUSH1 0x80 DUP3 ADD MSTORE PUSH1 0x60 PUSH1 0xA0 DUP3 ADD MSTORE PUSH0 PUSH1 0xC0 DUP3 ADD MSTORE DUP3 DUP3 DUP6 ADD ADD MSTORE ADD PUSH2 0x3EC0 JUMP JUMPDEST DUP1 MLOAD DUP3 LT ISZERO PUSH2 0x38D4 JUMPI PUSH1 0x20 SWAP2 PUSH1 0x5 SHL ADD ADD SWAP1 JUMP JUMPDEST SWAP1 PUSH1 0x40 MLOAD PUSH2 0x3F32 DUP2 PUSH2 0x3638 JUMP JUMPDEST PUSH1 0xC0 PUSH1 0x5 DUP3 SWAP5 PUSH2 0x3F41 DUP2 PUSH2 0x37CC JUMP JUMPDEST DUP5 MSTORE PUSH2 0x3F4F PUSH1 0x1 DUP3 ADD PUSH2 0x37CC JUMP JUMPDEST PUSH1 0x20 DUP6 ADD MSTORE PUSH2 0x3F60 PUSH1 0x2 DUP3 ADD PUSH2 0x37CC JUMP JUMPDEST PUSH1 0x40 DUP6 ADD MSTORE PUSH2 0x3F84 PUSH1 0xFF PUSH1 0x3 DUP4 ADD SLOAD DUP2 DUP2 AND PUSH1 0x60 DUP9 ADD MSTORE PUSH1 0x8 SHR AND PUSH1 0x80 DUP7 ADD PUSH2 0x3E3D JUMP JUMPDEST PUSH2 0x3F90 PUSH1 0x4 DUP3 ADD PUSH2 0x37CC JUMP JUMPDEST PUSH1 0xA0 DUP6 ADD MSTORE ADD SLOAD SWAP2 ADD MSTORE JUMP JUMPDEST SWAP1 TIMESTAMP GT ISZERO PUSH2 0x3FD2 JUMPI PUSH1 0x20 DUP1 SWAP2 PUSH1 0x40 MLOAD SWAP3 DUP2 DUP5 SWAP3 MLOAD SWAP2 DUP3 SWAP2 ADD DUP4 MCOPY DUP2 ADD PUSH0 DUP2 MSTORE SUB ADD SWAP1 KECCAK256 TIMESTAMP PUSH1 0x6 DUP3 ADD SSTORE PUSH1 0x5 PUSH1 0xFF NOT DUP3 SLOAD AND OR SWAP1 SSTORE JUMP JUMPDEST PUSH1 0x40 MLOAD PUSH3 0x461BCD PUSH1 0xE5 SHL DUP2 MSTORE PUSH1 0x20 PUSH1 0x4 DUP3 ADD MSTORE PUSH1 0x18 PUSH1 0x24 DUP3 ADD MSTORE PUSH32 0x536572746966696B6174206D61736968206265726C616B750000000000000000 PUSH1 0x44 DUP3 ADD MSTORE PUSH1 0x64 SWAP1 REVERT JUMPDEST PUSH1 0x40 MLOAD SWAP1 PUSH2 0x4024 DUP3 PUSH2 0x368A JUMP JUMPDEST PUSH1 0x60 PUSH2 0x140 DUP4 PUSH0 DUP2 MSTORE PUSH0 PUSH1 0x20 DUP3 ADD MSTORE PUSH0 PUSH1 0x40 DUP3 ADD MSTORE PUSH0 DUP4 DUP3 ADD MSTORE PUSH0 PUSH1 0x80 DUP3 ADD MSTORE PUSH0 PUSH1 0xA0 DUP3 ADD MSTORE PUSH0 PUSH1 0xC0 DUP3 ADD MSTORE PUSH0 PUSH1 0xE0 DUP3 ADD MSTORE PUSH2 0x405E PUSH2 0x3D55 JUMP JUMPDEST PUSH2 0x100 DUP3 ADD MSTORE PUSH2 0x406C PUSH2 0x3D55 JUMP JUMPDEST PUSH2 0x120 DUP3 ADD MSTORE ADD MSTORE JUMP JUMPDEST PUSH1 0x20 DUP1 SWAP2 PUSH2 0x4082 PUSH2 0x4017 JUMP JUMPDEST POP PUSH1 0x40 MLOAD SWAP3 DUP2 DUP5 SWAP3 MLOAD SWAP2 DUP3 SWAP2 ADD DUP4 MCOPY DUP2 ADD PUSH0 DUP2 MSTORE SUB ADD SWAP1 KECCAK256 PUSH2 0x412A PUSH1 0xE PUSH1 0x40 MLOAD SWAP3 PUSH2 0x40AC DUP5 PUSH2 0x368A JUMP JUMPDEST PUSH2 0x40BA PUSH1 0xFF DUP3 SLOAD AND DUP6 PUSH2 0x3E3D JUMP JUMPDEST PUSH1 0x1 DUP2 ADD SLOAD PUSH1 0x20 DUP6 ADD MSTORE PUSH1 0x2 DUP2 ADD SLOAD PUSH1 0x40 DUP6 ADD MSTORE PUSH1 0x3 DUP2 ADD SLOAD PUSH1 0x60 DUP6 ADD MSTORE PUSH1 0x4 DUP2 ADD SLOAD PUSH1 0x80 DUP6 ADD MSTORE PUSH1 0x5 DUP2 ADD SLOAD PUSH1 0xA0 DUP6 ADD MSTORE PUSH1 0x6 DUP2 ADD SLOAD PUSH1 0xC0 DUP6 ADD MSTORE PUSH1 0x7 DUP2 ADD SLOAD PUSH1 0xE0 DUP6 ADD MSTORE PUSH2 0x410C PUSH1 0x8 DUP3 ADD PUSH2 0x386C JUMP JUMPDEST PUSH2 0x100 DUP6 ADD MSTORE PUSH2 0x411E PUSH1 0xB DUP3 ADD PUSH2 0x386C JUMP JUMPDEST PUSH2 0x120 DUP6 ADD MSTORE ADD PUSH2 0x37CC JUMP JUMPDEST PUSH2 0x140 DUP3 ADD MSTORE SWAP1 JUMP JUMPDEST PUSH1 0x20 DUP1 SWAP2 SWAP4 SWAP3 SWAP4 PUSH1 0x40 MLOAD SWAP3 DUP2 DUP5 SWAP3 MLOAD SWAP2 DUP3 SWAP2 ADD DUP4 MCOPY DUP2 ADD PUSH0 DUP2 MSTORE SUB ADD SWAP1 KECCAK256 TIMESTAMP PUSH1 0x7 DUP3 ADD SSTORE PUSH1 0x82 TIMESTAMP ADD SWAP1 DUP2 TIMESTAMP GT PUSH2 0x330 JUMPI PUSH1 0xE SWAP2 PUSH1 0x5 DUP3 ADD SSTORE PUSH1 0x6 PUSH1 0xFF NOT DUP3 SLOAD AND OR DUP2 SSTORE ADD DUP3 MLOAD PUSH1 0x1 PUSH1 0x1 PUSH1 0x40 SHL SUB DUP2 GT PUSH2 0x31C JUMPI PUSH2 0x4191 DUP3 SLOAD PUSH2 0x3794 JUMP JUMPDEST PUSH1 0x1F DUP2 GT PUSH2 0x4231 JUMPI JUMPDEST POP PUSH1 0x20 PUSH1 0x1F DUP3 GT PUSH1 0x1 EQ PUSH2 0x41D3 JUMPI DUP2 SWAP3 SWAP4 SWAP5 PUSH0 SWAP3 PUSH2 0x41C8 JUMPI JUMPDEST POP POP DUP2 PUSH1 0x1 SHL SWAP2 PUSH0 NOT SWAP1 PUSH1 0x3 SHL SHR NOT AND OR SWAP1 SSTORE JUMP JUMPDEST ADD MLOAD SWAP1 POP PUSH0 DUP1 PUSH2 0x41B3 JUMP JUMPDEST PUSH1 0x1F NOT DUP3 AND SWAP1 DUP4 PUSH0 MSTORE DUP1 PUSH0 KECCAK256 SWAP2 PUSH0 JUMPDEST DUP2 DUP2 LT PUSH2 0x4219 JUMPI POP SWAP6 DUP4 PUSH1 0x1 SWAP6 SWAP7 SWAP8 LT PUSH2 0x4201 JUMPI JUMPDEST POP POP POP DUP2 SHL ADD SWAP1 SSTORE JUMP JUMPDEST ADD MLOAD PUSH0 NOT PUSH1 0xF8 DUP5 PUSH1 0x3 SHL AND SHR NOT AND SWAP1 SSTORE PUSH0 DUP1 DUP1 PUSH2 0x41F7 JUMP JUMPDEST SWAP2 SWAP3 PUSH1 0x20 PUSH1 0x1 DUP2 SWAP3 DUP7 DUP12 ADD MLOAD DUP2 SSTORE ADD SWAP5 ADD SWAP3 ADD PUSH2 0x41E2 JUMP JUMPDEST DUP3 PUSH0 MSTORE PUSH1 0x20 PUSH0 KECCAK256 PUSH1 0x1F DUP4 ADD PUSH1 0x5 SHR DUP2 ADD SWAP2 PUSH1 0x20 DUP5 LT PUSH2 0x426C JUMPI JUMPDEST PUSH1 0x1F ADD PUSH1 0x5 SHR ADD SWAP1 JUMPDEST DUP2 DUP2 LT PUSH2 0x4261 JUMPI POP PUSH2 0x419A JUMP JUMPDEST PUSH0 DUP2 SSTORE PUSH1 0x1 ADD PUSH2 0x4254 JUMP JUMPDEST SWAP1 SWAP2 POP DUP2 SWAP1 PUSH2 0x424B JUMP JUMPDEST SWAP3 SWAP2 SWAP1 PUSH1 0x40 MLOAD PUSH1 0x20 DUP6 MLOAD SWAP2 DUP2 DUP2 DUP2 DUP10 ADD SWAP5 DUP1 DUP7 DUP4 MCOPY DUP2 ADD PUSH0 DUP2 MSTORE SUB ADD SWAP1 KECCAK256 SWAP6 PUSH1 0x40 MLOAD SWAP3 DUP4 SWAP2 MLOAD DUP1 SWAP2 DUP4 MCOPY DUP2 ADD PUSH1 0x1 DUP2 MSTORE SUB ADD SWAP1 KECCAK256 SWAP1 DUP1 MLOAD SWAP1 PUSH1 0x1 PUSH1 0x1 PUSH1 0x40 SHL SUB DUP3 GT PUSH2 0x31C JUMPI DUP2 SWAP1 PUSH2 0x42C8 DUP5 SLOAD PUSH2 0x3794 JUMP JUMPDEST PUSH1 0x1F DUP2 GT PUSH2 0x45C3 JUMPI JUMPDEST POP PUSH1 0x20 SWAP1 PUSH1 0x1F DUP4 GT PUSH1 0x1 EQ PUSH2 0x4560 JUMPI PUSH0 SWAP3 PUSH2 0x4555 JUMPI JUMPDEST POP POP DUP2 PUSH1 0x1 SHL SWAP2 PUSH0 NOT SWAP1 PUSH1 0x3 SHL SHR NOT AND OR SWAP1 SSTORE JUMPDEST DUP1 MLOAD DUP1 MLOAD PUSH1 0xB DUP6 ADD SWAP2 PUSH1 0x1 PUSH1 0x1 PUSH1 0x40 SHL SUB DUP3 GT PUSH2 0x31C JUMPI PUSH2 0x431C DUP4 SLOAD PUSH2 0x3794 JUMP JUMPDEST PUSH1 0x1F DUP2 GT PUSH2 0x4510 JUMPI JUMPDEST POP PUSH1 0x20 SWAP1 PUSH1 0x1F DUP4 GT PUSH1 0x1 EQ PUSH2 0x44A9 JUMPI PUSH1 0x20 SWAP5 SWAP4 SWAP3 SWAP2 PUSH0 SWAP2 DUP4 PUSH2 0x449E JUMPI JUMPDEST POP POP DUP2 PUSH1 0x1 SHL SWAP2 PUSH0 NOT SWAP1 PUSH1 0x3 SHL SHR NOT AND OR SWAP1 SSTORE JUMPDEST PUSH1 0x40 DUP2 ADD MLOAD PUSH1 0xD DUP6 ADD DUP1 SLOAD PUSH1 0x1 PUSH1 0x1 PUSH1 0xA0 SHL SUB NOT AND PUSH1 0x1 PUSH1 0x1 PUSH1 0xA0 SHL SUB SWAP3 SWAP1 SWAP3 AND SWAP2 SWAP1 SWAP2 OR SWAP1 SSTORE ADD MLOAD DUP1 MLOAD SWAP1 SWAP3 SWAP1 PUSH1 0xC DUP3 ADD SWAP1 PUSH1 0x1 PUSH1 0x1 PUSH1 0x40 SHL SUB DUP2 GT PUSH2 0x31C JUMPI PUSH2 0x43A1 DUP3 SLOAD PUSH2 0x3794 JUMP JUMPDEST PUSH1 0x1F DUP2 GT PUSH2 0x4459 JUMPI JUMPDEST POP PUSH1 0x20 SWAP5 PUSH1 0x1F DUP3 GT PUSH1 0x1 EQ PUSH2 0x43F8 JUMPI SWAP5 DUP2 SWAP3 SWAP4 SWAP5 SWAP6 PUSH0 SWAP3 PUSH2 0x43ED JUMPI JUMPDEST POP POP DUP2 PUSH1 0x1 SHL SWAP2 PUSH0 NOT SWAP1 PUSH1 0x3 SHL SHR NOT AND OR SWAP1 SSTORE JUMPDEST TIMESTAMP PUSH1 0x3 DUP3 ADD SSTORE DUP1 SLOAD PUSH1 0xFF NOT AND PUSH1 0x2 OR SWAP1 SSTORE JUMP JUMPDEST ADD MLOAD SWAP1 POP PUSH0 DUP1 PUSH2 0x43C6 JUMP JUMPDEST PUSH1 0x1F NOT DUP3 AND SWAP6 DUP4 PUSH0 MSTORE DUP1 PUSH0 KECCAK256 SWAP2 PUSH0 JUMPDEST DUP9 DUP2 LT PUSH2 0x4441 JUMPI POP DUP4 PUSH1 0x1 SWAP6 SWAP7 SWAP8 SWAP9 LT PUSH2 0x4429 JUMPI JUMPDEST POP POP POP DUP2 SHL ADD SWAP1 SSTORE PUSH2 0x43DA JUMP JUMPDEST ADD MLOAD PUSH0 NOT PUSH1 0xF8 DUP5 PUSH1 0x3 SHL AND SHR NOT AND SWAP1 SSTORE PUSH0 DUP1 DUP1 PUSH2 0x441C JUMP JUMPDEST SWAP2 SWAP3 PUSH1 0x20 PUSH1 0x1 DUP2 SWAP3 DUP7 DUP6 ADD MLOAD DUP2 SSTORE ADD SWAP5 ADD SWAP3 ADD PUSH2 0x4407 JUMP JUMPDEST DUP3 PUSH0 MSTORE PUSH1 0x20 PUSH0 KECCAK256 PUSH1 0x1F DUP4 ADD PUSH1 0x5 SHR DUP2 ADD SWAP2 PUSH1 0x20 DUP5 LT PUSH2 0x4494 JUMPI JUMPDEST PUSH1 0x1F ADD PUSH1 0x5 SHR ADD SWAP1 JUMPDEST DUP2 DUP2 LT PUSH2 0x4489 JUMPI POP PUSH2 0x43AA JUMP JUMPDEST PUSH0 DUP2 SSTORE PUSH1 0x1 ADD PUSH2 0x447C JUMP JUMPDEST SWAP1 SWAP2 POP DUP2 SWAP1 PUSH2 0x4473 JUMP JUMPDEST ADD MLOAD SWAP1 POP PUSH0 DUP1 PUSH2 0x4342 JUMP JUMPDEST SWAP1 PUSH1 0x1F NOT DUP4 AND SWAP2 DUP5 PUSH0 MSTORE DUP2 PUSH0 KECCAK256 SWAP3 PUSH0 JUMPDEST DUP2 DUP2 LT PUSH2 0x44F8 JUMPI POP SWAP2 PUSH1 0x1 SWAP4 SWAP2 DUP6 PUSH1 0x20 SWAP9 SWAP8 SWAP7 SWAP5 LT PUSH2 0x44E0 JUMPI JUMPDEST POP POP POP DUP2 SHL ADD SWAP1 SSTORE PUSH2 0x4356 JUMP JUMPDEST ADD MLOAD PUSH0 NOT PUSH1 0xF8 DUP5 PUSH1 0x3 SHL AND SHR NOT AND SWAP1 SSTORE PUSH0 DUP1 DUP1 PUSH2 0x44D3 JUMP JUMPDEST SWAP3 SWAP4 PUSH1 0x20 PUSH1 0x1 DUP2 SWAP3 DUP8 DUP7 ADD MLOAD DUP2 SSTORE ADD SWAP6 ADD SWAP4 ADD PUSH2 0x44B9 JUMP JUMPDEST DUP4 PUSH0 MSTORE PUSH1 0x20 PUSH0 KECCAK256 PUSH1 0x1F DUP5 ADD PUSH1 0x5 SHR DUP2 ADD SWAP2 PUSH1 0x20 DUP6 LT PUSH2 0x454B JUMPI JUMPDEST PUSH1 0x1F ADD PUSH1 0x5 SHR ADD SWAP1 JUMPDEST DUP2 DUP2 LT PUSH2 0x4540 JUMPI POP PUSH2 0x4325 JUMP JUMPDEST PUSH0 DUP2 SSTORE PUSH1 0x1 ADD PUSH2 0x4533 JUMP JUMPDEST SWAP1 SWAP2 POP DUP2 SWAP1 PUSH2 0x452A JUMP JUMPDEST ADD MLOAD SWAP1 POP PUSH0 DUP1 PUSH2 0x42E7 JUMP JUMPDEST PUSH0 DUP6 DUP2 MSTORE DUP3 DUP2 KECCAK256 SWAP4 POP PUSH1 0x1F NOT DUP6 AND SWAP1 JUMPDEST DUP2 DUP2 LT PUSH2 0x45AB JUMPI POP SWAP1 DUP5 PUSH1 0x1 SWAP6 SWAP5 SWAP4 SWAP3 LT PUSH2 0x4593 JUMPI JUMPDEST POP POP POP DUP2 SHL ADD SWAP1 SSTORE PUSH2 0x42FB JUMP JUMPDEST ADD MLOAD PUSH0 NOT PUSH1 0xF8 DUP5 PUSH1 0x3 SHL AND SHR NOT AND SWAP1 SSTORE PUSH0 DUP1 DUP1 PUSH2 0x4586 JUMP JUMPDEST SWAP3 SWAP4 PUSH1 0x20 PUSH1 0x1 DUP2 SWAP3 DUP8 DUP7 ADD MLOAD DUP2 SSTORE ADD SWAP6 ADD SWAP4 ADD PUSH2 0x4570 JUMP JUMPDEST SWAP1 SWAP2 POP DUP4 PUSH0 MSTORE PUSH1 0x20 PUSH0 KECCAK256 PUSH1 0x1F DUP5 ADD PUSH1 0x5 SHR DUP2 ADD SWAP2 PUSH1 0x20 DUP6 LT PUSH2 0x4609 JUMPI JUMPDEST SWAP1 PUSH1 0x1F DUP6 SWAP5 SWAP4 SWAP3 ADD PUSH1 0x5 SHR ADD SWAP1 JUMPDEST DUP2 DUP2 LT PUSH2 0x45FB JUMPI POP PUSH2 0x42D1 JUMP JUMPDEST PUSH0 DUP2 SSTORE DUP5 SWAP4 POP PUSH1 0x1 ADD PUSH2 0x45EE JUMP JUMPDEST SWAP1 SWAP2 POP DUP2 SWAP1 PUSH2 0x45E0 JUMP JUMPDEST PUSH1 0x20 DUP1 SWAP2 SWAP5 SWAP4 SWAP3 SWAP5 PUSH1 0x40 MLOAD SWAP3 DUP2 DUP5 SWAP3 MLOAD SWAP2 DUP3 SWAP2 ADD DUP4 MCOPY DUP2 ADD PUSH0 DUP2 MSTORE SUB ADD SWAP1 KECCAK256 SWAP1 DUP1 MLOAD PUSH1 0xB DUP4 ADD SWAP1 DUP1 MLOAD SWAP1 PUSH1 0x1 PUSH1 0x1 PUSH1 0x40 SHL SUB DUP3 GT PUSH2 0x31C JUMPI PUSH2 0x4655 DUP4 SLOAD PUSH2 0x3794 JUMP JUMPDEST PUSH1 0x1F DUP2 GT PUSH2 0x493C JUMPI JUMPDEST POP PUSH1 0x20 SWAP1 PUSH1 0x1F DUP4 GT PUSH1 0x1 EQ PUSH2 0x48D5 JUMPI PUSH1 0x20 SWAP5 SWAP4 SWAP3 SWAP2 PUSH0 SWAP2 DUP4 PUSH2 0x48CA JUMPI JUMPDEST POP POP DUP2 PUSH1 0x1 SHL SWAP2 PUSH0 NOT SWAP1 PUSH1 0x3 SHL SHR NOT AND OR SWAP1 SSTORE JUMPDEST PUSH1 0x40 DUP2 ADD MLOAD PUSH1 0xD DUP5 ADD DUP1 SLOAD PUSH1 0x1 PUSH1 0x1 PUSH1 0xA0 SHL SUB NOT AND PUSH1 0x1 PUSH1 0x1 PUSH1 0xA0 SHL SUB SWAP3 SWAP1 SWAP3 AND SWAP2 SWAP1 SWAP2 OR SWAP1 SSTORE ADD MLOAD DUP1 MLOAD PUSH1 0xC DUP4 ADD SWAP2 PUSH1 0x1 PUSH1 0x1 PUSH1 0x40 SHL SUB DUP3 GT PUSH2 0x31C JUMPI DUP2 SWAP1 PUSH2 0x46D9 DUP5 SLOAD PUSH2 0x3794 JUMP JUMPDEST PUSH1 0x1F DUP2 GT PUSH2 0x487A JUMPI JUMPDEST POP PUSH1 0x20 SWAP1 PUSH1 0x1F DUP4 GT PUSH1 0x1 EQ PUSH2 0x4817 JUMPI PUSH0 SWAP3 PUSH2 0x480C JUMPI JUMPDEST POP POP DUP2 PUSH1 0x1 SHL SWAP2 PUSH0 NOT SWAP1 PUSH1 0x3 SHL SHR NOT AND OR SWAP1 SSTORE JUMPDEST TIMESTAMP PUSH1 0x2 DUP3 ADD SSTORE PUSH1 0x82 TIMESTAMP ADD SWAP1 DUP2 TIMESTAMP GT PUSH2 0x330 JUMPI PUSH1 0xE SWAP2 PUSH1 0x5 DUP3 ADD SSTORE PUSH1 0x1 PUSH1 0xFF NOT DUP3 SLOAD AND OR DUP2 SSTORE ADD DUP3 MLOAD PUSH1 0x1 PUSH1 0x1 PUSH1 0x40 SHL SUB DUP2 GT PUSH2 0x31C JUMPI PUSH2 0x474C DUP3 SLOAD PUSH2 0x3794 JUMP JUMPDEST PUSH1 0x1F DUP2 GT PUSH2 0x47C7 JUMPI JUMPDEST POP PUSH1 0x20 PUSH1 0x1F DUP3 GT PUSH1 0x1 EQ PUSH2 0x4782 JUMPI DUP2 SWAP3 SWAP4 SWAP5 PUSH0 SWAP3 PUSH2 0x41C8 JUMPI POP POP DUP2 PUSH1 0x1 SHL SWAP2 PUSH0 NOT SWAP1 PUSH1 0x3 SHL SHR NOT AND OR SWAP1 SSTORE JUMP JUMPDEST PUSH1 0x1F NOT DUP3 AND SWAP1 DUP4 PUSH0 MSTORE DUP1 PUSH0 KECCAK256 SWAP2 PUSH0 JUMPDEST DUP2 DUP2 LT PUSH2 0x47AF JUMPI POP SWAP6 DUP4 PUSH1 0x1 SWAP6 SWAP7 SWAP8 LT PUSH2 0x4201 JUMPI POP POP POP DUP2 SHL ADD SWAP1 SSTORE JUMP JUMPDEST SWAP2 SWAP3 PUSH1 0x20 PUSH1 0x1 DUP2 SWAP3 DUP7 DUP12 ADD MLOAD DUP2 SSTORE ADD SWAP5 ADD SWAP3 ADD PUSH2 0x4791 JUMP JUMPDEST DUP3 PUSH0 MSTORE PUSH1 0x20 PUSH0 KECCAK256 PUSH1 0x1F DUP4 ADD PUSH1 0x5 SHR DUP2 ADD SWAP2 PUSH1 0x20 DUP5 LT PUSH2 0x4802 JUMPI JUMPDEST PUSH1 0x1F ADD PUSH1 0x5 SHR ADD SWAP1 JUMPDEST DUP2 DUP2 LT PUSH2 0x47F7 JUMPI POP PUSH2 0x4755 JUMP JUMPDEST PUSH0 DUP2 SSTORE PUSH1 0x1 ADD PUSH2 0x47EA JUMP JUMPDEST SWAP1 SWAP2 POP DUP2 SWAP1 PUSH2 0x47E1 JUMP JUMPDEST ADD MLOAD SWAP1 POP PUSH0 DUP1 PUSH2 0x46F8 JUMP JUMPDEST PUSH0 DUP6 DUP2 MSTORE DUP3 DUP2 KECCAK256 SWAP4 POP PUSH1 0x1F NOT DUP6 AND SWAP1 JUMPDEST DUP2 DUP2 LT PUSH2 0x4862 JUMPI POP SWAP1 DUP5 PUSH1 0x1 SWAP6 SWAP5 SWAP4 SWAP3 LT PUSH2 0x484A JUMPI JUMPDEST POP POP POP DUP2 SHL ADD SWAP1 SSTORE PUSH2 0x470C JUMP JUMPDEST ADD MLOAD PUSH0 NOT PUSH1 0xF8 DUP5 PUSH1 0x3 SHL AND SHR NOT AND SWAP1 SSTORE PUSH0 DUP1 DUP1 PUSH2 0x483D JUMP JUMPDEST SWAP3 SWAP4 PUSH1 0x20 PUSH1 0x1 DUP2 SWAP3 DUP8 DUP7 ADD MLOAD DUP2 SSTORE ADD SWAP6 ADD SWAP4 ADD PUSH2 0x4827 JUMP JUMPDEST SWAP1 SWAP2 POP DUP4 PUSH0 MSTORE PUSH1 0x20 PUSH0 KECCAK256 PUSH1 0x1F DUP5 ADD PUSH1 0x5 SHR DUP2 ADD SWAP2 PUSH1 0x20 DUP6 LT PUSH2 0x48C0 JUMPI JUMPDEST SWAP1 PUSH1 0x1F DUP6 SWAP5 SWAP4 SWAP3 ADD PUSH1 0x5 SHR ADD SWAP1 JUMPDEST DUP2 DUP2 LT PUSH2 0x48B2 JUMPI POP PUSH2 0x46E2 JUMP JUMPDEST PUSH0 DUP2 SSTORE DUP5 SWAP4 POP PUSH1 0x1 ADD PUSH2 0x48A5 JUMP JUMPDEST SWAP1 SWAP2 POP DUP2 SWAP1 PUSH2 0x4897 JUMP JUMPDEST ADD MLOAD SWAP1 POP PUSH0 DUP1 PUSH2 0x467B JUMP JUMPDEST SWAP1 PUSH1 0x1F NOT DUP4 AND SWAP2 DUP5 PUSH0 MSTORE DUP2 PUSH0 KECCAK256 SWAP3 PUSH0 JUMPDEST DUP2 DUP2 LT PUSH2 0x4924 JUMPI POP SWAP2 PUSH1 0x1 SWAP4 SWAP2 DUP6 PUSH1 0x20 SWAP9 SWAP8 SWAP7 SWAP5 LT PUSH2 0x490C JUMPI JUMPDEST POP POP POP DUP2 SHL ADD SWAP1 SSTORE PUSH2 0x468F JUMP JUMPDEST ADD MLOAD PUSH0 NOT PUSH1 0xF8 DUP5 PUSH1 0x3 SHL AND SHR NOT AND SWAP1 SSTORE PUSH0 DUP1 DUP1 PUSH2 0x48FF JUMP JUMPDEST SWAP3 SWAP4 PUSH1 0x20 PUSH1 0x1 DUP2 SWAP3 DUP8 DUP7 ADD MLOAD DUP2 SSTORE ADD SWAP6 ADD SWAP4 ADD PUSH2 0x48E5 JUMP JUMPDEST DUP4 PUSH0 MSTORE PUSH1 0x20 PUSH0 KECCAK256 PUSH1 0x1F DUP5 ADD PUSH1 0x5 SHR DUP2 ADD SWAP2 PUSH1 0x20 DUP6 LT PUSH2 0x4977 JUMPI JUMPDEST PUSH1 0x1F ADD PUSH1 0x5 SHR ADD SWAP1 JUMPDEST DUP2 DUP2 LT PUSH2 0x496C JUMPI POP PUSH2 0x465E JUMP JUMPDEST PUSH0 DUP2 SSTORE PUSH1 0x1 ADD PUSH2 0x495F JUMP JUMPDEST SWAP1 SWAP2 POP DUP2 SWAP1 PUSH2 0x4956 JUMP JUMPDEST SWAP3 SWAP1 SWAP2 PUSH1 0x40 MLOAD PUSH2 0x4990 DUP2 PUSH2 0x368A JUMP JUMPDEST PUSH0 DUP2 MSTORE PUSH1 0x20 DUP2 ADD SWAP5 TIMESTAMP DUP7 MSTORE PUSH1 0x40 DUP3 ADD PUSH0 DUP2 MSTORE PUSH1 0x60 DUP4 ADD PUSH0 DUP2 MSTORE PUSH1 0x80 DUP5 ADD PUSH0 DUP2 MSTORE PUSH1 0xA0 DUP6 ADD SWAP1 PUSH0 DUP3 MSTORE PUSH1 0xC0 DUP7 ADD SWAP3 PUSH0 DUP5 MSTORE PUSH1 0xE0 DUP8 ADD SWAP5 PUSH0 DUP7 MSTORE PUSH2 0x100 DUP9 ADD SWAP7 DUP8 MSTORE PUSH2 0x120 DUP9 ADD SWAP11 DUP12 MSTORE PUSH1 0x20 SWAP12 DUP13 DUP1 DUP1 SWAP12 PUSH2 0x49EC PUSH1 0x40 MLOAD SWAP14 DUP15 PUSH2 0x36A6 JUMP JUMPDEST PUSH0 DUP14 MSTORE PUSH2 0x140 DUP13 ADD SWAP13 DUP14 MSTORE PUSH1 0x40 MLOAD SWAP3 DUP2 DUP5 SWAP3 MLOAD SWAP2 DUP3 SWAP2 ADD DUP4 MCOPY DUP2 ADD PUSH0 DUP2 MSTORE SUB ADD SWAP1 KECCAK256 SWAP9 MLOAD PUSH1 0x7 DUP2 LT ISZERO PUSH2 0x2820 JUMPI PUSH1 0xFF DUP1 NOT DUP12 SLOAD AND SWAP2 AND OR DUP10 SSTORE MLOAD PUSH1 0x1 DUP10 ADD SSTORE MLOAD PUSH1 0x2 DUP9 ADD SSTORE MLOAD PUSH1 0x3 DUP8 ADD SSTORE MLOAD PUSH1 0x4 DUP7 ADD SSTORE MLOAD PUSH1 0x5 DUP6 ADD SSTORE MLOAD PUSH1 0x6 DUP5 ADD SSTORE MLOAD PUSH1 0x7 DUP4 ADD SSTORE PUSH1 0x8 DUP3 ADD SWAP1 MLOAD SWAP1 DUP2 MLOAD DUP1 MLOAD SWAP1 PUSH1 0x1 PUSH1 0x1 PUSH1 0x40 SHL SUB DUP3 GT PUSH2 0x31C JUMPI DUP2 SWAP1 PUSH2 0x4A75 DUP5 SLOAD PUSH2 0x3794 JUMP JUMPDEST PUSH1 0x1F DUP2 GT PUSH2 0x4F82 JUMPI JUMPDEST POP DUP10 SWAP1 PUSH1 0x1F DUP4 GT PUSH1 0x1 EQ PUSH2 0x4F1F JUMPI PUSH0 SWAP3 PUSH2 0x4F14 JUMPI JUMPDEST POP POP DUP2 PUSH1 0x1 SHL SWAP2 PUSH0 NOT SWAP1 PUSH1 0x3 SHL SHR NOT AND OR SWAP1 SSTORE JUMPDEST PUSH1 0x9 DUP3 ADD DUP7 DUP3 ADD MLOAD DUP1 MLOAD SWAP1 PUSH1 0x1 PUSH1 0x1 PUSH1 0x40 SHL SUB DUP3 GT PUSH2 0x31C JUMPI DUP2 SWAP1 PUSH2 0x4ACC DUP5 SLOAD PUSH2 0x3794 JUMP JUMPDEST PUSH1 0x1F DUP2 GT PUSH2 0x4EC6 JUMPI JUMPDEST POP DUP10 SWAP1 PUSH1 0x1F DUP4 GT PUSH1 0x1 EQ PUSH2 0x4E63 JUMPI PUSH0 SWAP3 PUSH2 0x4E58 JUMPI JUMPDEST POP POP DUP2 PUSH1 0x1 SHL SWAP2 PUSH0 NOT SWAP1 PUSH1 0x3 SHL SHR NOT AND OR SWAP1 SSTORE JUMPDEST PUSH1 0x40 ADD MLOAD PUSH1 0xA DUP3 ADD DUP1 SLOAD PUSH1 0x1 PUSH1 0x1 PUSH1 0xA0 SHL SUB NOT AND PUSH1 0x1 PUSH1 0x1 PUSH1 0xA0 SHL SUB SWAP3 SWAP1 SWAP3 AND SWAP2 SWAP1 SWAP2 OR SWAP1 SSTORE SWAP3 MLOAD DUP1 MLOAD DUP1 MLOAD SWAP2 SWAP5 SWAP2 PUSH1 0xB DUP4 ADD SWAP2 PUSH1 0x1 PUSH1 0x1 PUSH1 0x40 SHL SUB DUP3 GT PUSH2 0x31C JUMPI DUP2 SWAP1 PUSH2 0x4B4C DUP5 SLOAD PUSH2 0x3794 JUMP JUMPDEST PUSH1 0x1F DUP2 GT PUSH2 0x4E0A JUMPI JUMPDEST POP DUP9 SWAP1 PUSH1 0x1F DUP4 GT PUSH1 0x1 EQ PUSH2 0x4DA7 JUMPI PUSH0 SWAP3 PUSH2 0x4D9C JUMPI JUMPDEST POP POP DUP2 PUSH1 0x1 SHL SWAP2 PUSH0 NOT SWAP1 PUSH1 0x3 SHL SHR NOT AND OR SWAP1 SSTORE JUMPDEST PUSH1 0xC DUP2 ADD SWAP4 DUP6 DUP2 ADD MLOAD SWAP5 DUP6 MLOAD SWAP6 PUSH1 0x1 PUSH1 0x1 PUSH1 0x40 SHL SUB DUP8 GT PUSH2 0x31C JUMPI PUSH2 0x4BA3 DUP3 SLOAD PUSH2 0x3794 JUMP JUMPDEST PUSH1 0x1F DUP2 GT PUSH2 0x4D59 JUMPI JUMPDEST POP DUP8 SWAP1 PUSH1 0x1F DUP9 GT PUSH1 0x1 EQ PUSH2 0x4CF2 JUMPI SWAP7 DUP1 SWAP2 PUSH1 0xE SWAP7 SWAP8 SWAP9 PUSH0 SWAP3 PUSH2 0x4CE7 JUMPI JUMPDEST POP POP DUP2 PUSH1 0x1 SHL SWAP2 PUSH0 NOT SWAP1 PUSH1 0x3 SHL SHR NOT AND OR SWAP1 SSTORE JUMPDEST PUSH1 0x40 ADD MLOAD PUSH1 0xD DUP3 ADD DUP1 SLOAD PUSH1 0x1 PUSH1 0x1 PUSH1 0xA0 SHL SUB NOT AND PUSH1 0x1 PUSH1 0x1 PUSH1 0xA0 SHL SUB SWAP3 SWAP1 SWAP3 AND SWAP2 SWAP1 SWAP2 OR SWAP1 SSTORE SWAP2 MLOAD DUP1 MLOAD SWAP1 SWAP5 SWAP2 SWAP1 SWAP3 ADD SWAP2 SWAP1 PUSH1 0x1 PUSH1 0x1 PUSH1 0x40 SHL SUB DUP3 GT PUSH2 0x31C JUMPI PUSH2 0x4C27 DUP4 SLOAD PUSH2 0x3794 JUMP JUMPDEST PUSH1 0x1F DUP2 GT PUSH2 0x4CA4 JUMPI JUMPDEST POP DUP1 PUSH1 0x1F DUP4 GT PUSH1 0x1 EQ PUSH2 0x4C5D JUMPI POP DUP2 SWAP3 SWAP4 SWAP5 PUSH0 SWAP3 PUSH2 0x41C8 JUMPI POP POP DUP2 PUSH1 0x1 SHL SWAP2 PUSH0 NOT SWAP1 PUSH1 0x3 SHL SHR NOT AND OR SWAP1 SSTORE JUMP JUMPDEST SWAP1 PUSH1 0x1F NOT DUP4 AND SWAP6 DUP5 PUSH0 MSTORE DUP3 PUSH0 KECCAK256 SWAP3 PUSH0 SWAP1 JUMPDEST DUP9 DUP3 LT PUSH2 0x4C8C JUMPI POP POP DUP4 PUSH1 0x1 SWAP6 SWAP7 SWAP8 LT PUSH2 0x4201 JUMPI POP POP POP DUP2 SHL ADD SWAP1 SSTORE JUMP JUMPDEST DUP1 PUSH1 0x1 DUP6 SWAP7 DUP3 SWAP5 SWAP7 DUP7 ADD MLOAD DUP2 SSTORE ADD SWAP6 ADD SWAP4 ADD SWAP1 PUSH2 0x4C6E JUMP JUMPDEST DUP4 PUSH0 MSTORE DUP2 PUSH0 KECCAK256 PUSH1 0x1F DUP5 ADD PUSH1 0x5 SHR DUP2 ADD SWAP2 DUP4 DUP6 LT PUSH2 0x4CDD JUMPI JUMPDEST PUSH1 0x1F ADD PUSH1 0x5 SHR ADD SWAP1 JUMPDEST DUP2 DUP2 LT PUSH2 0x4CD2 JUMPI POP PUSH2 0x4C30 JUMP JUMPDEST PUSH0 DUP2 SSTORE PUSH1 0x1 ADD PUSH2 0x4CC5 JUMP JUMPDEST SWAP1 SWAP2 POP DUP2 SWAP1 PUSH2 0x4CBC JUMP JUMPDEST ADD MLOAD SWAP1 POP PUSH0 DUP1 PUSH2 0x4BC9 JUMP JUMPDEST SWAP1 PUSH1 0x1F NOT DUP9 AND SWAP2 DUP4 PUSH0 MSTORE DUP10 PUSH0 KECCAK256 SWAP3 PUSH0 JUMPDEST DUP12 DUP3 DUP3 LT PUSH2 0x4D43 JUMPI POP POP SWAP2 PUSH1 0x1 SWAP4 SWAP2 DUP11 PUSH1 0xE SWAP10 SWAP11 SWAP12 SWAP5 LT PUSH2 0x4D2B JUMPI JUMPDEST POP POP POP DUP2 SHL ADD SWAP1 SSTORE PUSH2 0x4BDD JUMP JUMPDEST ADD MLOAD PUSH0 NOT PUSH1 0xF8 DUP5 PUSH1 0x3 SHL AND SHR NOT AND SWAP1 SSTORE PUSH0 DUP1 DUP1 PUSH2 0x4D1E JUMP JUMPDEST PUSH1 0x1 DUP6 SWAP7 DUP3 SWAP4 SWAP7 DUP7 ADD MLOAD DUP2 SSTORE ADD SWAP6 ADD SWAP4 ADD PUSH2 0x4D02 JUMP JUMPDEST DUP3 PUSH0 MSTORE DUP9 PUSH0 KECCAK256 PUSH1 0x1F DUP10 ADD PUSH1 0x5 SHR DUP2 ADD SWAP2 DUP11 DUP11 LT PUSH2 0x4D92 JUMPI JUMPDEST PUSH1 0x1F ADD PUSH1 0x5 SHR ADD SWAP1 JUMPDEST DUP2 DUP2 LT PUSH2 0x4D87 JUMPI POP PUSH2 0x4BAC JUMP JUMPDEST PUSH0 DUP2 SSTORE PUSH1 0x1 ADD PUSH2 0x4D7A JUMP JUMPDEST SWAP1 SWAP2 POP DUP2 SWAP1 PUSH2 0x4D71 JUMP JUMPDEST ADD MLOAD SWAP1 POP PUSH0 DUP1 PUSH2 0x4B6A JUMP JUMPDEST PUSH0 DUP6 DUP2 MSTORE DUP11 DUP2 KECCAK256 SWAP4 POP PUSH1 0x1F NOT DUP6 AND SWAP1 JUMPDEST DUP12 DUP3 DUP3 LT PUSH2 0x4DF4 JUMPI POP POP SWAP1 DUP5 PUSH1 0x1 SWAP6 SWAP5 SWAP4 SWAP3 LT PUSH2 0x4DDC JUMPI JUMPDEST POP POP POP DUP2 SHL ADD SWAP1 SSTORE PUSH2 0x4B7E JUMP JUMPDEST ADD MLOAD PUSH0 NOT PUSH1 0xF8 DUP5 PUSH1 0x3 SHL AND SHR NOT AND SWAP1 SSTORE PUSH0 DUP1 DUP1 PUSH2 0x4DCF JUMP JUMPDEST PUSH1 0x1 DUP6 SWAP7 DUP3 SWAP4 SWAP7 DUP7 ADD MLOAD DUP2 SSTORE ADD SWAP6 ADD SWAP4 ADD PUSH2 0x4DB7 JUMP JUMPDEST SWAP1 SWAP2 POP DUP4 PUSH0 MSTORE DUP9 PUSH0 KECCAK256 PUSH1 0x1F DUP5 ADD PUSH1 0x5 SHR DUP2 ADD SWAP2 DUP11 DUP6 LT PUSH2 0x4E4E JUMPI JUMPDEST SWAP1 PUSH1 0x1F DUP6 SWAP5 SWAP4 SWAP3 ADD PUSH1 0x5 SHR ADD SWAP1 JUMPDEST DUP2 DUP2 LT PUSH2 0x4E40 JUMPI POP PUSH2 0x4B55 JUMP JUMPDEST PUSH0 DUP2 SSTORE DUP5 SWAP4 POP PUSH1 0x1 ADD PUSH2 0x4E33 JUMP JUMPDEST SWAP1 SWAP2 POP DUP2 SWAP1 PUSH2 0x4E25 JUMP JUMPDEST ADD MLOAD SWAP1 POP PUSH0 DUP1 PUSH2 0x4AEA JUMP JUMPDEST PUSH0 DUP6 DUP2 MSTORE DUP12 DUP2 KECCAK256 SWAP4 POP PUSH1 0x1F NOT DUP6 AND SWAP1 JUMPDEST DUP13 DUP3 DUP3 LT PUSH2 0x4EB0 JUMPI POP POP SWAP1 DUP5 PUSH1 0x1 SWAP6 SWAP5 SWAP4 SWAP3 LT PUSH2 0x4E98 JUMPI JUMPDEST POP POP POP DUP2 SHL ADD SWAP1 SSTORE PUSH2 0x4AFE JUMP JUMPDEST ADD MLOAD PUSH0 NOT PUSH1 0xF8 DUP5 PUSH1 0x3 SHL AND SHR NOT AND SWAP1 SSTORE PUSH0 DUP1 DUP1 PUSH2 0x4E8B JUMP JUMPDEST PUSH1 0x1 DUP6 SWAP7 DUP3 SWAP4 SWAP7 DUP7 ADD MLOAD DUP2 SSTORE ADD SWAP6 ADD SWAP4 ADD PUSH2 0x4E73 JUMP JUMPDEST SWAP1 SWAP2 POP DUP4 PUSH0 MSTORE DUP10 PUSH0 KECCAK256 PUSH1 0x1F DUP5 ADD PUSH1 0x5 SHR DUP2 ADD SWAP2 DUP12 DUP6 LT PUSH2 0x4F0A JUMPI JUMPDEST SWAP1 PUSH1 0x1F DUP6 SWAP5 SWAP4 SWAP3 ADD PUSH1 0x5 SHR ADD SWAP1 JUMPDEST DUP2 DUP2 LT PUSH2 0x4EFC JUMPI POP PUSH2 0x4AD5 JUMP JUMPDEST PUSH0 DUP2 SSTORE DUP5 SWAP4 POP PUSH1 0x1 ADD PUSH2 0x4EEF JUMP JUMPDEST SWAP1 SWAP2 POP DUP2 SWAP1 PUSH2 0x4EE1 JUMP JUMPDEST ADD MLOAD SWAP1 POP PUSH0 DUP1 PUSH2 0x4A93 JUMP JUMPDEST PUSH0 DUP6 DUP2 MSTORE DUP12 DUP2 KECCAK256 SWAP4 POP PUSH1 0x1F NOT DUP6 AND SWAP1 JUMPDEST DUP13 DUP3 DUP3 LT PUSH2 0x4F6C JUMPI POP POP SWAP1 DUP5 PUSH1 0x1 SWAP6 SWAP5 SWAP4 SWAP3 LT PUSH2 0x4F54 JUMPI JUMPDEST POP POP POP DUP2 SHL ADD SWAP1 SSTORE PUSH2 0x4AA7 JUMP JUMPDEST ADD MLOAD PUSH0 NOT PUSH1 0xF8 DUP5 PUSH1 0x3 SHL AND SHR NOT AND SWAP1 SSTORE PUSH0 DUP1 DUP1 PUSH2 0x4F47 JUMP JUMPDEST PUSH1 0x1 DUP6 SWAP7 DUP3 SWAP4 SWAP7 DUP7 ADD MLOAD DUP2 SSTORE ADD SWAP6 ADD SWAP4 ADD PUSH2 0x4F2F JUMP JUMPDEST SWAP1 SWAP2 POP DUP4 PUSH0 MSTORE DUP10 PUSH0 KECCAK256 PUSH1 0x1F DUP5 ADD PUSH1 0x5 SHR DUP2 ADD SWAP2 DUP12 DUP6 LT PUSH2 0x4FC6 JUMPI JUMPDEST SWAP1 PUSH1 0x1F DUP6 SWAP5 SWAP4 SWAP3 ADD PUSH1 0x5 SHR ADD SWAP1 JUMPDEST DUP2 DUP2 LT PUSH2 0x4FB8 JUMPI POP PUSH2 0x4A7E JUMP JUMPDEST PUSH0 DUP2 SSTORE DUP5 SWAP4 POP PUSH1 0x1 ADD PUSH2 0x4FAB JUMP JUMPDEST SWAP1 SWAP2 POP DUP2 SWAP1 PUSH2 0x4F9D JUMP INVALID LOG2 PUSH5 0x6970667358 0x22 SLT KECCAK256 DUP4 RETURN SWAP11 0xE5 0xB6 PUSH24 0xF7B561B7EB8C91DA55C6F5285B15231F1825F6F645910127 0xC2 0xB1 PUSH5 0x736F6C6343 STOP ADDMOD SHL STOP CALLER "},"methodIdentifiers":{"allCdobData(uint256)":"43762aa8","approveCdob(string,string,string,string,address,string)":"2b93f7f2","approveExtendCdob(string,string)":"9c6b1f10","cdobDataById(string)":"72c17cb9","certDetailById(string)":"34a34f30","createCertificateDetails((string,string,address),(string,string,address),string)":"fb5fb9a3","createUserCertificate(string,string,address)":"2e9cf827","dokuAdminById(string)":"7ab09648","dokuTeknisById(string)":"500619d0","extendCdob(string,uint256)":"93b73ba2","getAllCdob()":"f14261d2","getAllCdobByInstance(string)":"6f12c230","getCdobDetails(string)":"7e8f8da7","getCertDetail(string)":"9aaa5d8b","getCertDetails(string)":"be2e2325","getRejectMsg(string)":"6d1aa7d5","getRejectsMsg(string)":"761fb19a","getSenderDetail(string)":"17e68309","rejectCdob(string,string,string,string,address)":"1acf2500","rejectMsgById(string)":"bf3f80ac","renewRequestCdob(string,(string,string),(string,string,string,string,string,string,string,string))":"a7226527","requestCdob(string,string,string,address,uint8,(string,string),(string,string,string,string,string,string,string,string))":"682053d9","updateBpomApproveDetails(string,string,(string,string,address))":"f5104ff1","updateBpomApproveExtendCertificateDetails(string,string)":"d26196fd","updateBpomExtendCertificateDetails(string,string)":"f53ef126","updateBpomRejectDetails(string,string,(string,string,address))":"e9c260d7","updateExtendRenewDetails(string,uint256)":"9740dbed","updateRenewDetails(string)":"19859c87"}}}}}