{"contracts/ObatShared.sol":{"ObatShared":{"abi":[{"inputs":[{"internalType":"string","name":"obatId","type":"string"},{"internalType":"string","name":"namaProduk","type":"string"},{"internalType":"string","name":"batchName","type":"string"},{"internalType":"uint8","name":"obatQuantity","type":"uint8"},{"internalType":"string[]","name":"obatIpfs","type":"string[]"},{"internalType":"string","name":"factoryInstance","type":"string"}],"name":"addBatchProduction","outputs":[],"stateMutability":"nonpayable","type":"function"},{"inputs":[{"internalType":"string","name":"obatId","type":"string"},{"internalType":"string","name":"cdobHash","type":"string"}],"name":"addCdobId","outputs":[],"stateMutability":"nonpayable","type":"function"},{"inputs":[{"internalType":"string","name":"obatId","type":"string"},{"internalType":"string","name":"orderId","type":"string"},{"internalType":"string","name":"namaProduk","type":"string"},{"internalType":"string","name":"batchName","type":"string"},{"internalType":"uint8","name":"obatQuantity","type":"uint8"},{"internalType":"string","name":"pbfInstance","type":"string"}],"name":"addObatPbf","outputs":[],"stateMutability":"nonpayable","type":"function"},{"inputs":[{"internalType":"string","name":"obatId","type":"string"},{"internalType":"string","name":"orderId","type":"string"},{"internalType":"string","name":"namaProduk","type":"string"},{"internalType":"string","name":"batchName","type":"string"},{"internalType":"uint8","name":"obatQuantity","type":"uint8"},{"internalType":"string","name":"retailerInstance","type":"string"}],"name":"addObatRetailer","outputs":[],"stateMutability":"nonpayable","type":"function"},{"inputs":[{"internalType":"string","name":"pbfInstance","type":"string"}],"name":"getAllObatPbfByInstance","outputs":[{"components":[{"internalType":"string","name":"orderId","type":"string"},{"internalType":"string","name":"obatId","type":"string"},{"internalType":"string","name":"namaProduk","type":"string"},{"internalType":"string","name":"batchName","type":"string"},{"internalType":"uint8","name":"obatQuantity","type":"uint8"},{"internalType":"enum EnumsLibrary.ObatAvailability","name":"statusStok","type":"uint8"},{"internalType":"string","name":"ownerInstance","type":"string"}],"internalType":"struct ObatShared.ObatOutputStok[]","name":"","type":"tuple[]"}],"stateMutability":"view","type":"function"},{"inputs":[],"name":"getAllObatPbfReadyStock","outputs":[{"components":[{"internalType":"string","name":"orderId","type":"string"},{"internalType":"string","name":"obatId","type":"string"},{"internalType":"string","name":"namaProduk","type":"string"},{"internalType":"string","name":"batchName","type":"string"},{"internalType":"uint8","name":"obatQuantity","type":"uint8"},{"internalType":"enum EnumsLibrary.ObatAvailability","name":"statusStok","type":"uint8"},{"internalType":"string","name":"ownerInstance","type":"string"}],"internalType":"struct ObatShared.ObatOutputStok[]","name":"","type":"tuple[]"}],"stateMutability":"view","type":"function"},{"inputs":[{"internalType":"string","name":"retailerInstance","type":"string"}],"name":"getAllObatRetailerByInstance","outputs":[{"components":[{"internalType":"string","name":"orderId","type":"string"},{"internalType":"string","name":"obatId","type":"string"},{"internalType":"string","name":"namaProduk","type":"string"},{"internalType":"string","name":"batchName","type":"string"},{"internalType":"uint8","name":"obatQuantity","type":"uint8"},{"internalType":"enum EnumsLibrary.ObatAvailability","name":"statusStok","type":"uint8"},{"internalType":"string","name":"ownerInstance","type":"string"}],"internalType":"struct ObatShared.ObatOutputStok[]","name":"","type":"tuple[]"}],"stateMutability":"view","type":"function"},{"inputs":[{"internalType":"string","name":"obatId","type":"string"}],"name":"getObatDetail","outputs":[{"components":[{"internalType":"string","name":"merk","type":"string"},{"internalType":"string","name":"namaProduk","type":"string"},{"internalType":"string[]","name":"klaim","type":"string[]"},{"internalType":"string[]","name":"komposisi","type":"string[]"},{"internalType":"string","name":"kemasan","type":"string"},{"internalType":"string","name":"factoryInstance","type":"string"},{"internalType":"address","name":"factoryAddr","type":"address"},{"internalType":"enum EnumsLibrary.TipePermohonanCdob","name":"tipeObat","type":"uint8"},{"internalType":"string","name":"cpotbHash","type":"string"},{"internalType":"string","name":"cdobHash","type":"string"},{"internalType":"string","name":"jenisObat","type":"string"}],"internalType":"struct ObatShared.ObatDetail","name":"","type":"tuple"}],"stateMutability":"view","type":"function"},{"inputs":[{"internalType":"string","name":"batchName","type":"string"}],"name":"getObatIpfsByBatchName","outputs":[{"internalType":"string[]","name":"","type":"string[]"}],"stateMutability":"view","type":"function"},{"inputs":[{"internalType":"string","name":"obatId","type":"string"}],"name":"getObatProduction","outputs":[{"components":[{"internalType":"enum EnumsLibrary.ObatAvailability","name":"statusStok","type":"uint8"},{"internalType":"string","name":"namaProduk","type":"string"},{"internalType":"string","name":"batchName","type":"string"},{"internalType":"uint8","name":"obatQuantity","type":"uint8"},{"internalType":"string","name":"factoryInstance","type":"string"}],"internalType":"struct ObatShared.ObatProduction[]","name":"","type":"tuple[]"}],"stateMutability":"view","type":"function"},{"inputs":[{"internalType":"string","name":"","type":"string"}],"name":"obatDetailById","outputs":[{"internalType":"string","name":"merk","type":"string"},{"internalType":"string","name":"namaProduk","type":"string"},{"internalType":"string","name":"kemasan","type":"string"},{"internalType":"string","name":"factoryInstance","type":"string"},{"internalType":"address","name":"factoryAddr","type":"address"},{"internalType":"enum EnumsLibrary.TipePermohonanCdob","name":"tipeObat","type":"uint8"},{"internalType":"string","name":"cpotbHash","type":"string"},{"internalType":"string","name":"cdobHash","type":"string"},{"internalType":"string","name":"jenisObat","type":"string"}],"stateMutability":"view","type":"function"},{"inputs":[{"internalType":"string","name":"","type":"string"},{"internalType":"uint256","name":"","type":"uint256"}],"name":"obatIpfsByBatchName","outputs":[{"internalType":"string","name":"","type":"string"}],"stateMutability":"view","type":"function"},{"inputs":[{"internalType":"string","name":"","type":"string"}],"name":"obatPbfByBatchName","outputs":[{"internalType":"enum EnumsLibrary.ObatAvailability","name":"statusStok","type":"uint8"},{"internalType":"string","name":"obatId","type":"string"},{"internalType":"string","name":"orderId","type":"string"},{"internalType":"string","name":"namaProduk","type":"string"},{"internalType":"string","name":"batchName","type":"string"},{"internalType":"uint8","name":"obatQuantity","type":"uint8"},{"internalType":"string","name":"pbfInstance","type":"string"}],"stateMutability":"view","type":"function"},{"inputs":[{"internalType":"string","name":"","type":"string"},{"internalType":"uint256","name":"","type":"uint256"}],"name":"obatProductionById","outputs":[{"internalType":"enum EnumsLibrary.ObatAvailability","name":"statusStok","type":"uint8"},{"internalType":"string","name":"namaProduk","type":"string"},{"internalType":"string","name":"batchName","type":"string"},{"internalType":"uint8","name":"obatQuantity","type":"uint8"},{"internalType":"string","name":"factoryInstance","type":"string"}],"stateMutability":"view","type":"function"},{"inputs":[{"internalType":"string","name":"","type":"string"}],"name":"obatRetailerByBatchName","outputs":[{"internalType":"enum EnumsLibrary.ObatAvailability","name":"statusStok","type":"uint8"},{"internalType":"string","name":"obatId","type":"string"},{"internalType":"string","name":"orderId","type":"string"},{"internalType":"string","name":"namaProduk","type":"string"},{"internalType":"string","name":"batchName","type":"string"},{"internalType":"uint8","name":"obatQuantity","type":"uint8"},{"internalType":"string","name":"retailerInstance","type":"string"}],"stateMutability":"view","type":"function"},{"inputs":[{"internalType":"string","name":"obatId","type":"string"},{"internalType":"string","name":"merk","type":"string"},{"internalType":"string","name":"namaProduk","type":"string"},{"internalType":"string[]","name":"klaim","type":"string[]"},{"internalType":"string[]","name":"komposisi","type":"string[]"},{"internalType":"string","name":"kemasan","type":"string"},{"internalType":"string","name":"factoryInstance","type":"string"},{"internalType":"address","name":"factoryAddr","type":"address"},{"internalType":"enum EnumsLibrary.TipePermohonanCdob","name":"tipeObat","type":"uint8"},{"internalType":"string","name":"cpotbHash","type":"string"},{"internalType":"string","name":"jenisObat","type":"string"}],"name":"setObatDetail","outputs":[],"stateMutability":"nonpayable","type":"function"},{"inputs":[{"internalType":"string","name":"obatId","type":"string"},{"internalType":"string","name":"batchName","type":"string"},{"internalType":"enum EnumsLibrary.ObatAvailability","name":"newStatus","type":"uint8"}],"name":"updateBatchProduction","outputs":[],"stateMutability":"nonpayable","type":"function"},{"inputs":[{"internalType":"string","name":"batchName","type":"string"},{"internalType":"string[]","name":"obatIpfs","type":"string[]"}],"name":"updateObatIpfs","outputs":[],"stateMutability":"nonpayable","type":"function"},{"inputs":[{"internalType":"string","name":"batchName","type":"string"},{"internalType":"enum EnumsLibrary.ObatAvailability","name":"newStatus","type":"uint8"}],"name":"updateObatPbf","outputs":[],"stateMutability":"nonpayable","type":"function"}],"evm":{"bytecode":{"linkReferences":{},"object":"608080604052346015576121ba908161001a8239f35b5f80fdfe60806040526004361015610011575f80fd5b5f3560e01c80633a16d05a146116c35780634bea11a0146116275780635345584e1461155c57806361009862146114f2578063871811f1146113f25780638b8df23e146110c95780638d57ba0a14610f15578063906ce01714610dc5578063ba2ffe4c14610d07578063bd2dd01914610ca8578063bf09451a14610c01578063c2cf83bc14610ba2578063c72c731414610b1f578063c8e3b172146109d4578063d33d8a131461093b578063d658267214610698578063e1336da514610510578063e521d586146102e65763f07b2c7a146100ea575f80fd5b346102e25760203660031901126102e2576004356001600160401b0381116102e25761011a903690600401611798565b5f545f9160405161014a6020828180820195805191829101875e81015f838201520301601f198101835282611777565b519020915f5b828110610280575061016190612071565b915f905f5b83811061017f576040518061017b8782611b34565b0390f35b6101aa61019d60206101908461181e565b5060405192838092611fac565b60048152030190206120ee565b60c08101908382516040516101de6020828180820195805191829101875e81015f838201520301601f198101835282611777565b519020146101f1575b5050600101610166565b936102789185604060019597015191602082015191606081015160808201519060ff60a08401511692519361022585611b16565b51946040519661023488611725565b8752602087015260408601526060850152608084015261025381611b16565b60a083015260c08201526102678289612170565b526102728188612170565b5061204f565b92905f6101e7565b83600661029160206101908561181e565b6004815203019020016040516102bd816102af602082018095611fac565b03601f198101835282611777565b519020146102ce575b600101610150565b906102da60019161204f565b9190506102c6565b5f80fd5b346102e25760c03660031901126102e2576004356001600160401b0381116102e257610316903690600401611798565b6024356001600160401b0381116102e257610335903690600401611798565b906044356001600160401b0381116102e257610355903690600401611798565b6064359060ff82168092036102e2576084356001600160401b0381116102e257610383903690600401611a40565b9360a4356001600160401b0381116102e2576103a3903690600401611798565b92604051936103b18561175c565b5f85526020850192835260408501908482526060860192835260808601908152604051956103f5865197602081818a019a808c835e81016006815203019020611e45565b5f5b895181101561047d576040516020818951808c835e8101600681520301902090610421818c612170565b51918054600160401b8110156104695761044091600182018155611860565b6104565760019261045091611cb3565b016103f7565b634e487b7160e01b5f525f60045260245ffd5b634e487b7160e01b5f52604160045260245ffd5b5060405188516020908290808c8401835e810160038152030190208054600160401b811015610469576104b591600182018155611c12565b949094610456576104f36004946104e961050e986104df60ff96516104d981611b16565b8a611dab565b5160018901611cb3565b5160028701611cb3565b511660ff60038501911660ff19825416179055519101611cb3565b005b346102e25760203660031901126102e2576004356001600160401b0381116102e257610540903690600401611798565b5f9060405161056e6020828180820195805191829101875e81015f838201520301601f198101835282611777565b51902090600154905f5b828110610644575061058990612071565b915f905f5b8381106105a3576040518061017b8782611b34565b6105c16105b4602061019084611848565b60058152030190206120ee565b60c08101908382516040516105f56020828180820195805191829101875e81015f838201520301601f198101835282611777565b51902014610608575b505060010161058e565b9361063c9185604060019597015191602082015191606081015160808201519060ff60a08401511692519361022585611b16565b9290866105fe565b836006610655602061019085611848565b600581520301902001604051610673816102af602082018095611fac565b51902014610684575b600101610578565b9061069060019161204f565b91905061067c565b346102e25760203660031901126102e2576004356001600160401b0381116102e2576106c8903690600401611798565b6040516106d481611740565b60608152602081016060905260408101606090526060810160609052608081016060905260a081016060905260c081015f905260e081015f905261010081016060905261012081016060905261014001606090528051151561073590612016565b604051818192516020819201835e81016002815203602001902060405161075b81611740565b610764826118ad565b8152610772600183016118ad565b602082019081529161078660028201611f57565b604083019081529061079a60038201611f57565b606084019081526107ad600483016118ad565b60808501908152906107c1600584016118ad565b60a086810191825260068501546001600160a01b03811660c089019081529460e089019392909160ff911c166107f681611b16565b8352610804600787016118ad565b610100890190815293610819600888016118ad565b966101208a0197885260090161082e906118ad565b976101408a019889526040519a8b9a60208c525160208c0161016090526101808c016108599161194d565b90518b8203601f190160408d0152610871919061194d565b90518a8203601f190160608c01526108899190611abe565b9051898203601f190160808b01526108a19190611abe565b9051888203601f190160a08a01526108b9919061194d565b9051878203601f190160c08901526108d1919061194d565b92516001600160a01b031660e0870152516108eb81611b16565b61010086015251848203601f1901610120860152610909919061194d565b9051838203601f1901610140850152610922919061194d565b9051828203601f190161016084015261017b919061194d565b346102e25760ff61094b36611971565b9360409693919296519561095e87611725565b5f87526020870152604086015260608501528460808501521660a083015260c08201525f54600160401b8110156104695780600161099f92015f555f611860565b929092610456576020816109b7829361050e96611cb3565b604051928184925191829101835e81016004815203019020611dc3565b346102e25760203660031901126102e2576004356001600160401b0381116102e257610a04903690600401611798565b604051818192516020819201835e810160028152036020019020610a27816118ad565b610a33600183016118ad565b91610a40600482016118ad565b90610a4d600582016118ad565b60068201548060a01c60ff1660078401610a66906118ad565b92610a73600886016118ad565b94600901610a80906118ad565b956040519889986101208a526101208a01610a9a9161194d565b89810360208b0152610aab9161194d565b88810360408a0152610abc9161194d565b8781036060890152610acd9161194d565b6001600160a01b039092166080870152610ae681611b16565b60a086015284810360c0860152610afc9161194d565b83810360e0850152610b0d9161194d565b82810361010084015261017b9161194d565b346102e25760403660031901126102e2576004356001600160401b0381116102e257610b4f903690600401611798565b602435906001600160401b0382116102e2576008602080610b7761050e953690600401611798565b93610b8481511515612016565b604051928184925191829101835e8101600281520301902001611cb3565b346102e25760403660031901126102e2576004356001600160401b0381116102e257610bd2903690600401611798565b60243560028110156102e257604051825161050e93602091839181908401835e81016004815203019020611dab565b346102e25760203660031901126102e2576004356001600160401b0381116102e2576020610c3481923690600401611798565b604051928184925191829101835e8101600481520301902060ff81541661017b610c60600184016118ad565b92610c6d600282016118ad565b90610c7a600382016118ad565b610c86600483016118ad565b90610c9b600660ff60058601541694016118ad565b9360405197889788611c2b565b346102e25760203660031901126102e2576004356001600160401b0381116102e2576020610cdb81923690600401611798565b604051928184925191829101835e8101600581520301902060ff81541661017b610c60600184016118ad565b346102e257602080610d18366117ed565b9290604051928184925191829101835e810160038152030190209081548110156102e257610d4591611c12565b5060ff81541661017b610d5a600184016118ad565b92610d67600282016118ad565b610db2610d7e600460ff60038601541694016118ad565b91610da46040519787610d918a99611b16565b885260a0602089015260a088019061194d565b90868203604088015261194d565b916060850152838203608085015261194d565b346102e2575f3660031901126102e2575f545f5f5b828110610ed05750610deb90612071565b905f5f5b828110610e04576040518061017b8682611b34565b60ff610e1460206101908461181e565b60048152030190205416610e2781611b16565b15610e35575b600101610def565b90610ec8600191610e4d61019d60206101908761181e565b6040810151906020810151906060810151608082015160ff60a0840151169160c0845194610e7a86611b16565b01519460405196610e8a88611725565b87526020870152604086015260608501526080840152610ea981611b16565b60a083015260c0820152610ebd8288612170565b526102728187612170565b919050610e2d565b60ff610ee060206101908461181e565b60048152030190205416610ef381611b16565b15610f01575b600101610dda565b90610f0d60019161204f565b919050610ef9565b346102e25760203660031901126102e2576004356001600160401b0381116102e2576020610f4881923690600401611798565b610f5481511515612016565b604051928184925191829101835e81016003815203019020805490610f7882611a29565b91610f866040519384611777565b8083526020830180925f5260205f205f915b83831061105a57848660405191829160208301906020845251809152604083019060408160051b85010192915f905b828210610fd657505050500390f35b9193600191939550602061104a8192603f198a82030186528851908151610ffc81611b16565b8152608061102c61101a8685015160a08886015260a085019061194d565b6040850151848203604086015261194d565b9260ff6060820151166060840152015190608081840391015261194d565b9601920192018594939192610fc7565b6005602060019260405161106d8161175c565b60ff86541661107b81611b16565b81526110888587016118ad565b83820152611098600287016118ad565b604082015260ff60038701541660608201526110b6600487016118ad565b6080820152815201920192019190610f98565b346102e2576101603660031901126102e2576004356001600160401b0381116102e2576110fa903690600401611798565b6024356001600160401b0381116102e257611119903690600401611798565b6044356001600160401b0381116102e257611138903690600401611798565b6064356001600160401b0381116102e257611157903690600401611a40565b926084356001600160401b0381116102e257611177903690600401611a40565b9060a4356001600160401b0381116102e257611197903690600401611798565b9060c4356001600160401b0381116102e2576111b7903690600401611798565b60e4356001600160a01b03811693908490036102e257610104359260028410156102e257610124356001600160401b0381116102e2576111fb903690600401611798565b95610144356001600160401b0381116102e25761121c903690600401611798565b998251151561122a90612016565b604051996112378b611740565b8a5260208a0198895260408a0190815260608a0191825260808a0193845260a08a0194855260c08a0196875260e08a019561127181611b16565b86526101008a01978852602098898080956040519c611290908e611777565b5f8d528d61012081019d8e52610140019e8f52604051928184925191829101835e810160028152030190209a516112c7908c611cb3565b516112d59060018c01611cb3565b60028a01905190838251926112ea8484611ec6565b01905f52835f20845f925b8484106113d457505050505060038901905191808351936113168585611ec6565b01915f52805f205f925b8484106113b85750505061050e8960098c6113b08c6113a68d8d8d6113578e61134d8f5160048d01611cb3565b5160058b01611cb3565b905160068901805492519092916001600160a01b03169061137781611b16565b61138081611b16565b6001600160a81b03199092161760a09190911b60ff60a01b161790555160078701611cb3565b5160088501611cb3565b519101611cb3565b600183826113c883945186611cb3565b01920193019290611320565b600191816113e484935186611cb3565b0192019201919085906112f5565b346102e25760603660031901126102e2576004356001600160401b0381116102e257611422903690600401611798565b6024356001600160401b0381116102e257611441903690600401611798565b906044359060028210156102e25760208091604051928184925191829101835e81016003815203019020916040516114986020828180820195805191829101875e81015f838201520301601f198101835282611777565b519020915f5b815481101561050e578360026102af6114ce6114ba8587611c12565b506040519283916020830195869101611fac565b519020146114de5760010161149e565b61050e93506114ec91611c12565b50611dab565b346102e25760203660031901126102e2576004356001600160401b0381116102e25761154860208061152b61017b943690600401611798565b604051928184925191829101835e81016006815203019020611f57565b604051918291602083526020830190611abe565b346102e25760403660031901126102e2576004356001600160401b0381116102e25761158c903690600401611798565b6024356001600160401b0381116102e2576115ab903690600401611a40565b906020604051916115d18151938381818501968088835e81016006815203019020611e45565b604051928391518091835e810160068152030190209060208151916115f68385611ec6565b01915f5260205f205f925b82841061160a57005b600160208261161b83945186611cb3565b01920193019290611601565b346102e25760ff61163736611971565b9360409693919296519561164a87611725565b5f87526020870152604086015260608501528460808501521660a083015260c0820152600154600160401b8110156104695780600161168e92016001556001611860565b929092610456576020816116a6829361050e96611cb3565b604051928184925191829101835e81016005815203019020611dc3565b346102e2576020806116d4366117ed565b9290604051928184925191829101835e810160068152030190209081548110156102e25761170191611860565b6104565761171161017b916118ad565b60405191829160208352602083019061194d565b60e081019081106001600160401b0382111761046957604052565b61016081019081106001600160401b0382111761046957604052565b60a081019081106001600160401b0382111761046957604052565b90601f801991011681019081106001600160401b0382111761046957604052565b81601f820112156102e2578035906001600160401b03821161046957604051926117cc601f8401601f191660200185611777565b828452602083830101116102e257815f926020809301838601378301015290565b60406003198201126102e257600435906001600160401b0382116102e25761181791600401611798565b9060243590565b5f54811015611834575f805260205f2001905f90565b634e487b7160e01b5f52603260045260245ffd5b6001548110156118345760015f5260205f2001905f90565b8054821015611834575f5260205f2001905f90565b90600182811c921680156118a3575b602083101461188f57565b634e487b7160e01b5f52602260045260245ffd5b91607f1691611884565b9060405191825f8254926118c084611875565b808452936001811690811561192b57506001146118e7575b506118e592500383611777565b565b90505f9291925260205f20905f915b81831061190f5750509060206118e5928201015f6118d8565b60209193508060019154838589010152019101909184926118f6565b9050602092506118e594915060ff191682840152151560051b8201015f6118d8565b805180835260209291819084018484015e5f828201840152601f01601f1916010190565b9060c06003198301126102e2576004356001600160401b0381116102e2578261199c91600401611798565b916024356001600160401b0381116102e257816119bb91600401611798565b916044356001600160401b0381116102e257826119da91600401611798565b916064356001600160401b0381116102e257816119f991600401611798565b9160843560ff811681036102e2579160a435906001600160401b0382116102e257611a2691600401611798565b90565b6001600160401b0381116104695760051b60200190565b9080601f830112156102e2578135611a5781611a29565b92611a656040519485611777565b81845260208085019260051b820101918383116102e25760208201905b838210611a9157505050505090565b81356001600160401b0381116102e257602091611ab387848094880101611798565b815201910190611a82565b9080602083519182815201916020808360051b8301019401925f915b838310611ae957505050505090565b9091929394602080611b07600193601f19868203018752895161194d565b97019301930191939290611ada565b60021115611b2057565b634e487b7160e01b5f52602160045260245ffd5b602081016020825282518091526040820191602060408360051b8301019401925f915b838310611b6657505050505090565b9091929394602080611c03600193603f1986820301875289519060c0611bd2611bc0611bae611b9e865160e0875260e087019061194d565b888701518682038a88015261194d565b6040860151858203604087015261194d565b6060850151848203606086015261194d565b9260ff608082015116608084015260a0810151611bee81611b16565b60a084015201519060c081840391015261194d565b97019301930191939290611b57565b8054821015611834575f52600560205f20910201905f90565b93611c7b90611c6d60ff95611c5f611c8996611a269c9a96611c4c81611b16565b8a5260e060208b015260e08a019061194d565b9088820360408a015261194d565b90868203606088015261194d565b90848203608086015261194d565b931660a082015260c081840391015261194d565b818110611ca8575050565b5f8155600101611c9d565b91909182516001600160401b03811161046957611cd08254611875565b601f8111611d70575b506020601f8211600114611d1257819293945f92611d07575b50508160011b915f199060031b1c1916179055565b015190505f80611cf2565b601f19821690835f52805f20915f5b818110611d5857509583600195969710611d40575b505050811b019055565b01515f1960f88460031b161c191690555f8080611d36565b9192602060018192868b015181550194019201611d21565b611d9b90835f5260205f20601f840160051c81019160208510611da1575b601f0160051c0190611c9d565b5f611cd9565b9091508190611d8e565b90611db581611b16565b60ff80198354169116179055565b600660c06118e593611ddf8151611dd981611b16565b85611dab565b611df0602082015160018601611cb3565b611e01604082015160028601611cb3565b611e12606082015160038601611cb3565b611e23608082015160048601611cb3565b60ff60a08201511660ff60058601911660ff1982541617905501519101611cb3565b8054905f815581611e54575050565b5f5260205f20908101905b818110611e6a575050565b80611e7760019254611875565b80611e84575b5001611e5f565b601f81118314611e9957505f81555b5f611e7d565b611eb590825f5283601f60205f20920160051c82019101611c9d565b805f525f6020812081835555611e93565b90600160401b811161046957815491818155828210611ee457505050565b5f5260205f2091820191015b818110611efb575050565b80611f0860019254611875565b80611f15575b5001611ef0565b601f81118314611f2a57505f81555b5f611f0e565b611f4690825f5283601f60205f20920160051c82019101611c9d565b805f525f6020812081835555611f24565b908154611f6381611a29565b92611f716040519485611777565b81845260208401905f5260205f205f915b838310611f8f5750505050565b600160208192611f9e856118ad565b815201920192019190611f82565b5f9291815491611fbb83611875565b92600181169081156120035750600114611fd457505050565b90919293505f5260205f205f905b838210611fef5750500190565b600181602092548486015201910190611fe2565b60ff191683525050811515909102019150565b1561201d57565b60405162461bcd60e51b815260206004820152600a602482015269125b9d985b1a5908125160b21b6044820152606490fd5b5f19811461205d5760010190565b634e487b7160e01b5f52601160045260245ffd5b9061207b82611a29565b6120886040519182611777565b8281528092612099601f1991611a29565b01905f5b8281106120a957505050565b6020906040516120b881611725565b60608152606083820152606060408201526060808201525f60808201525f60a0820152606060c08201528282850101520161209d565b906040516120fb81611725565b60c061216b6006839560ff81541661211281611b16565b8552612120600182016118ad565b6020860152612131600282016118ad565b6040860152612142600382016118ad565b6060860152612153600482016118ad565b608086015260ff60058201541660a0860152016118ad565b910152565b80518210156118345760209160051b01019056fea26469706673582212205e979b1d36fe5bfeae981fd16b5a5a8ec83c91f8f013eb2d609fff40226709a664736f6c634300081b0033","opcodes":"PUSH1 0x80 DUP1 PUSH1 0x40 MSTORE CALLVALUE PUSH1 0x15 JUMPI PUSH2 0x21BA SWAP1 DUP2 PUSH2 0x1A DUP3 CODECOPY RETURN JUMPDEST PUSH0 DUP1 REVERT INVALID PUSH1 0x80 PUSH1 0x40 MSTORE PUSH1 0x4 CALLDATASIZE LT ISZERO PUSH2 0x11 JUMPI PUSH0 DUP1 REVERT JUMPDEST PUSH0 CALLDATALOAD PUSH1 0xE0 SHR DUP1 PUSH4 0x3A16D05A EQ PUSH2 0x16C3 JUMPI DUP1 PUSH4 0x4BEA11A0 EQ PUSH2 0x1627 JUMPI DUP1 PUSH4 0x5345584E EQ PUSH2 0x155C JUMPI DUP1 PUSH4 0x61009862 EQ PUSH2 0x14F2 JUMPI DUP1 PUSH4 0x871811F1 EQ PUSH2 0x13F2 JUMPI DUP1 PUSH4 0x8B8DF23E EQ PUSH2 0x10C9 JUMPI DUP1 PUSH4 0x8D57BA0A EQ PUSH2 0xF15 JUMPI DUP1 PUSH4 0x906CE017 EQ PUSH2 0xDC5 JUMPI DUP1 PUSH4 0xBA2FFE4C EQ PUSH2 0xD07 JUMPI DUP1 PUSH4 0xBD2DD019 EQ PUSH2 0xCA8 JUMPI DUP1 PUSH4 0xBF09451A EQ PUSH2 0xC01 JUMPI DUP1 PUSH4 0xC2CF83BC EQ PUSH2 0xBA2 JUMPI DUP1 PUSH4 0xC72C7314 EQ PUSH2 0xB1F JUMPI DUP1 PUSH4 0xC8E3B172 EQ PUSH2 0x9D4 JUMPI DUP1 PUSH4 0xD33D8A13 EQ PUSH2 0x93B JUMPI DUP1 PUSH4 0xD6582672 EQ PUSH2 0x698 JUMPI DUP1 PUSH4 0xE1336DA5 EQ PUSH2 0x510 JUMPI DUP1 PUSH4 0xE521D586 EQ PUSH2 0x2E6 JUMPI PUSH4 0xF07B2C7A EQ PUSH2 0xEA JUMPI PUSH0 DUP1 REVERT JUMPDEST CALLVALUE PUSH2 0x2E2 JUMPI PUSH1 0x20 CALLDATASIZE PUSH1 0x3 NOT ADD SLT PUSH2 0x2E2 JUMPI PUSH1 0x4 CALLDATALOAD PUSH1 0x1 PUSH1 0x1 PUSH1 0x40 SHL SUB DUP2 GT PUSH2 0x2E2 JUMPI PUSH2 0x11A SWAP1 CALLDATASIZE SWAP1 PUSH1 0x4 ADD PUSH2 0x1798 JUMP JUMPDEST PUSH0 SLOAD PUSH0 SWAP2 PUSH1 0x40 MLOAD PUSH2 0x14A PUSH1 0x20 DUP3 DUP2 DUP1 DUP3 ADD SWAP6 DUP1 MLOAD SWAP2 DUP3 SWAP2 ADD DUP8 MCOPY DUP2 ADD PUSH0 DUP4 DUP3 ADD MSTORE SUB ADD PUSH1 0x1F NOT DUP2 ADD DUP4 MSTORE DUP3 PUSH2 0x1777 JUMP JUMPDEST MLOAD SWAP1 KECCAK256 SWAP2 PUSH0 JUMPDEST DUP3 DUP2 LT PUSH2 0x280 JUMPI POP PUSH2 0x161 SWAP1 PUSH2 0x2071 JUMP JUMPDEST SWAP2 PUSH0 SWAP1 PUSH0 JUMPDEST DUP4 DUP2 LT PUSH2 0x17F JUMPI PUSH1 0x40 MLOAD DUP1 PUSH2 0x17B DUP8 DUP3 PUSH2 0x1B34 JUMP JUMPDEST SUB SWAP1 RETURN JUMPDEST PUSH2 0x1AA PUSH2 0x19D PUSH1 0x20 PUSH2 0x190 DUP5 PUSH2 0x181E JUMP JUMPDEST POP PUSH1 0x40 MLOAD SWAP3 DUP4 DUP1 SWAP3 PUSH2 0x1FAC JUMP JUMPDEST PUSH1 0x4 DUP2 MSTORE SUB ADD SWAP1 KECCAK256 PUSH2 0x20EE JUMP JUMPDEST PUSH1 0xC0 DUP2 ADD SWAP1 DUP4 DUP3 MLOAD PUSH1 0x40 MLOAD PUSH2 0x1DE PUSH1 0x20 DUP3 DUP2 DUP1 DUP3 ADD SWAP6 DUP1 MLOAD SWAP2 DUP3 SWAP2 ADD DUP8 MCOPY DUP2 ADD PUSH0 DUP4 DUP3 ADD MSTORE SUB ADD PUSH1 0x1F NOT DUP2 ADD DUP4 MSTORE DUP3 PUSH2 0x1777 JUMP JUMPDEST MLOAD SWAP1 KECCAK256 EQ PUSH2 0x1F1 JUMPI JUMPDEST POP POP PUSH1 0x1 ADD PUSH2 0x166 JUMP JUMPDEST SWAP4 PUSH2 0x278 SWAP2 DUP6 PUSH1 0x40 PUSH1 0x1 SWAP6 SWAP8 ADD MLOAD SWAP2 PUSH1 0x20 DUP3 ADD MLOAD SWAP2 PUSH1 0x60 DUP2 ADD MLOAD PUSH1 0x80 DUP3 ADD MLOAD SWAP1 PUSH1 0xFF PUSH1 0xA0 DUP5 ADD MLOAD AND SWAP3 MLOAD SWAP4 PUSH2 0x225 DUP6 PUSH2 0x1B16 JUMP JUMPDEST MLOAD SWAP5 PUSH1 0x40 MLOAD SWAP7 PUSH2 0x234 DUP9 PUSH2 0x1725 JUMP JUMPDEST DUP8 MSTORE PUSH1 0x20 DUP8 ADD MSTORE PUSH1 0x40 DUP7 ADD MSTORE PUSH1 0x60 DUP6 ADD MSTORE PUSH1 0x80 DUP5 ADD MSTORE PUSH2 0x253 DUP2 PUSH2 0x1B16 JUMP JUMPDEST PUSH1 0xA0 DUP4 ADD MSTORE PUSH1 0xC0 DUP3 ADD MSTORE PUSH2 0x267 DUP3 DUP10 PUSH2 0x2170 JUMP JUMPDEST MSTORE PUSH2 0x272 DUP2 DUP9 PUSH2 0x2170 JUMP JUMPDEST POP PUSH2 0x204F JUMP JUMPDEST SWAP3 SWAP1 PUSH0 PUSH2 0x1E7 JUMP JUMPDEST DUP4 PUSH1 0x6 PUSH2 0x291 PUSH1 0x20 PUSH2 0x190 DUP6 PUSH2 0x181E JUMP JUMPDEST PUSH1 0x4 DUP2 MSTORE SUB ADD SWAP1 KECCAK256 ADD PUSH1 0x40 MLOAD PUSH2 0x2BD DUP2 PUSH2 0x2AF PUSH1 0x20 DUP3 ADD DUP1 SWAP6 PUSH2 0x1FAC JUMP JUMPDEST SUB PUSH1 0x1F NOT DUP2 ADD DUP4 MSTORE DUP3 PUSH2 0x1777 JUMP JUMPDEST MLOAD SWAP1 KECCAK256 EQ PUSH2 0x2CE JUMPI JUMPDEST PUSH1 0x1 ADD PUSH2 0x150 JUMP JUMPDEST SWAP1 PUSH2 0x2DA PUSH1 0x1 SWAP2 PUSH2 0x204F JUMP JUMPDEST SWAP2 SWAP1 POP PUSH2 0x2C6 JUMP JUMPDEST PUSH0 DUP1 REVERT JUMPDEST CALLVALUE PUSH2 0x2E2 JUMPI PUSH1 0xC0 CALLDATASIZE PUSH1 0x3 NOT ADD SLT PUSH2 0x2E2 JUMPI PUSH1 0x4 CALLDATALOAD PUSH1 0x1 PUSH1 0x1 PUSH1 0x40 SHL SUB DUP2 GT PUSH2 0x2E2 JUMPI PUSH2 0x316 SWAP1 CALLDATASIZE SWAP1 PUSH1 0x4 ADD PUSH2 0x1798 JUMP JUMPDEST PUSH1 0x24 CALLDATALOAD PUSH1 0x1 PUSH1 0x1 PUSH1 0x40 SHL SUB DUP2 GT PUSH2 0x2E2 JUMPI PUSH2 0x335 SWAP1 CALLDATASIZE SWAP1 PUSH1 0x4 ADD PUSH2 0x1798 JUMP JUMPDEST SWAP1 PUSH1 0x44 CALLDATALOAD PUSH1 0x1 PUSH1 0x1 PUSH1 0x40 SHL SUB DUP2 GT PUSH2 0x2E2 JUMPI PUSH2 0x355 SWAP1 CALLDATASIZE SWAP1 PUSH1 0x4 ADD PUSH2 0x1798 JUMP JUMPDEST PUSH1 0x64 CALLDATALOAD SWAP1 PUSH1 0xFF DUP3 AND DUP1 SWAP3 SUB PUSH2 0x2E2 JUMPI PUSH1 0x84 CALLDATALOAD PUSH1 0x1 PUSH1 0x1 PUSH1 0x40 SHL SUB DUP2 GT PUSH2 0x2E2 JUMPI PUSH2 0x383 SWAP1 CALLDATASIZE SWAP1 PUSH1 0x4 ADD PUSH2 0x1A40 JUMP JUMPDEST SWAP4 PUSH1 0xA4 CALLDATALOAD PUSH1 0x1 PUSH1 0x1 PUSH1 0x40 SHL SUB DUP2 GT PUSH2 0x2E2 JUMPI PUSH2 0x3A3 SWAP1 CALLDATASIZE SWAP1 PUSH1 0x4 ADD PUSH2 0x1798 JUMP JUMPDEST SWAP3 PUSH1 0x40 MLOAD SWAP4 PUSH2 0x3B1 DUP6 PUSH2 0x175C JUMP JUMPDEST PUSH0 DUP6 MSTORE PUSH1 0x20 DUP6 ADD SWAP3 DUP4 MSTORE PUSH1 0x40 DUP6 ADD SWAP1 DUP5 DUP3 MSTORE PUSH1 0x60 DUP7 ADD SWAP3 DUP4 MSTORE PUSH1 0x80 DUP7 ADD SWAP1 DUP2 MSTORE PUSH1 0x40 MLOAD SWAP6 PUSH2 0x3F5 DUP7 MLOAD SWAP8 PUSH1 0x20 DUP2 DUP2 DUP11 ADD SWAP11 DUP1 DUP13 DUP4 MCOPY DUP2 ADD PUSH1 0x6 DUP2 MSTORE SUB ADD SWAP1 KECCAK256 PUSH2 0x1E45 JUMP JUMPDEST PUSH0 JUMPDEST DUP10 MLOAD DUP2 LT ISZERO PUSH2 0x47D JUMPI PUSH1 0x40 MLOAD PUSH1 0x20 DUP2 DUP10 MLOAD DUP1 DUP13 DUP4 MCOPY DUP2 ADD PUSH1 0x6 DUP2 MSTORE SUB ADD SWAP1 KECCAK256 SWAP1 PUSH2 0x421 DUP2 DUP13 PUSH2 0x2170 JUMP JUMPDEST MLOAD SWAP2 DUP1 SLOAD PUSH1 0x1 PUSH1 0x40 SHL DUP2 LT ISZERO PUSH2 0x469 JUMPI PUSH2 0x440 SWAP2 PUSH1 0x1 DUP3 ADD DUP2 SSTORE PUSH2 0x1860 JUMP JUMPDEST PUSH2 0x456 JUMPI PUSH1 0x1 SWAP3 PUSH2 0x450 SWAP2 PUSH2 0x1CB3 JUMP JUMPDEST ADD PUSH2 0x3F7 JUMP JUMPDEST PUSH4 0x4E487B71 PUSH1 0xE0 SHL PUSH0 MSTORE PUSH0 PUSH1 0x4 MSTORE PUSH1 0x24 PUSH0 REVERT JUMPDEST PUSH4 0x4E487B71 PUSH1 0xE0 SHL PUSH0 MSTORE PUSH1 0x41 PUSH1 0x4 MSTORE PUSH1 0x24 PUSH0 REVERT JUMPDEST POP PUSH1 0x40 MLOAD DUP9 MLOAD PUSH1 0x20 SWAP1 DUP3 SWAP1 DUP1 DUP13 DUP5 ADD DUP4 MCOPY DUP2 ADD PUSH1 0x3 DUP2 MSTORE SUB ADD SWAP1 KECCAK256 DUP1 SLOAD PUSH1 0x1 PUSH1 0x40 SHL DUP2 LT ISZERO PUSH2 0x469 JUMPI PUSH2 0x4B5 SWAP2 PUSH1 0x1 DUP3 ADD DUP2 SSTORE PUSH2 0x1C12 JUMP JUMPDEST SWAP5 SWAP1 SWAP5 PUSH2 0x456 JUMPI PUSH2 0x4F3 PUSH1 0x4 SWAP5 PUSH2 0x4E9 PUSH2 0x50E SWAP9 PUSH2 0x4DF PUSH1 0xFF SWAP7 MLOAD PUSH2 0x4D9 DUP2 PUSH2 0x1B16 JUMP JUMPDEST DUP11 PUSH2 0x1DAB JUMP JUMPDEST MLOAD PUSH1 0x1 DUP10 ADD PUSH2 0x1CB3 JUMP JUMPDEST MLOAD PUSH1 0x2 DUP8 ADD PUSH2 0x1CB3 JUMP JUMPDEST MLOAD AND PUSH1 0xFF PUSH1 0x3 DUP6 ADD SWAP2 AND PUSH1 0xFF NOT DUP3 SLOAD AND OR SWAP1 SSTORE MLOAD SWAP2 ADD PUSH2 0x1CB3 JUMP JUMPDEST STOP JUMPDEST CALLVALUE PUSH2 0x2E2 JUMPI PUSH1 0x20 CALLDATASIZE PUSH1 0x3 NOT ADD SLT PUSH2 0x2E2 JUMPI PUSH1 0x4 CALLDATALOAD PUSH1 0x1 PUSH1 0x1 PUSH1 0x40 SHL SUB DUP2 GT PUSH2 0x2E2 JUMPI PUSH2 0x540 SWAP1 CALLDATASIZE SWAP1 PUSH1 0x4 ADD PUSH2 0x1798 JUMP JUMPDEST PUSH0 SWAP1 PUSH1 0x40 MLOAD PUSH2 0x56E PUSH1 0x20 DUP3 DUP2 DUP1 DUP3 ADD SWAP6 DUP1 MLOAD SWAP2 DUP3 SWAP2 ADD DUP8 MCOPY DUP2 ADD PUSH0 DUP4 DUP3 ADD MSTORE SUB ADD PUSH1 0x1F NOT DUP2 ADD DUP4 MSTORE DUP3 PUSH2 0x1777 JUMP JUMPDEST MLOAD SWAP1 KECCAK256 SWAP1 PUSH1 0x1 SLOAD SWAP1 PUSH0 JUMPDEST DUP3 DUP2 LT PUSH2 0x644 JUMPI POP PUSH2 0x589 SWAP1 PUSH2 0x2071 JUMP JUMPDEST SWAP2 PUSH0 SWAP1 PUSH0 JUMPDEST DUP4 DUP2 LT PUSH2 0x5A3 JUMPI PUSH1 0x40 MLOAD DUP1 PUSH2 0x17B DUP8 DUP3 PUSH2 0x1B34 JUMP JUMPDEST PUSH2 0x5C1 PUSH2 0x5B4 PUSH1 0x20 PUSH2 0x190 DUP5 PUSH2 0x1848 JUMP JUMPDEST PUSH1 0x5 DUP2 MSTORE SUB ADD SWAP1 KECCAK256 PUSH2 0x20EE JUMP JUMPDEST PUSH1 0xC0 DUP2 ADD SWAP1 DUP4 DUP3 MLOAD PUSH1 0x40 MLOAD PUSH2 0x5F5 PUSH1 0x20 DUP3 DUP2 DUP1 DUP3 ADD SWAP6 DUP1 MLOAD SWAP2 DUP3 SWAP2 ADD DUP8 MCOPY DUP2 ADD PUSH0 DUP4 DUP3 ADD MSTORE SUB ADD PUSH1 0x1F NOT DUP2 ADD DUP4 MSTORE DUP3 PUSH2 0x1777 JUMP JUMPDEST MLOAD SWAP1 KECCAK256 EQ PUSH2 0x608 JUMPI JUMPDEST POP POP PUSH1 0x1 ADD PUSH2 0x58E JUMP JUMPDEST SWAP4 PUSH2 0x63C SWAP2 DUP6 PUSH1 0x40 PUSH1 0x1 SWAP6 SWAP8 ADD MLOAD SWAP2 PUSH1 0x20 DUP3 ADD MLOAD SWAP2 PUSH1 0x60 DUP2 ADD MLOAD PUSH1 0x80 DUP3 ADD MLOAD SWAP1 PUSH1 0xFF PUSH1 0xA0 DUP5 ADD MLOAD AND SWAP3 MLOAD SWAP4 PUSH2 0x225 DUP6 PUSH2 0x1B16 JUMP JUMPDEST SWAP3 SWAP1 DUP7 PUSH2 0x5FE JUMP JUMPDEST DUP4 PUSH1 0x6 PUSH2 0x655 PUSH1 0x20 PUSH2 0x190 DUP6 PUSH2 0x1848 JUMP JUMPDEST PUSH1 0x5 DUP2 MSTORE SUB ADD SWAP1 KECCAK256 ADD PUSH1 0x40 MLOAD PUSH2 0x673 DUP2 PUSH2 0x2AF PUSH1 0x20 DUP3 ADD DUP1 SWAP6 PUSH2 0x1FAC JUMP JUMPDEST MLOAD SWAP1 KECCAK256 EQ PUSH2 0x684 JUMPI JUMPDEST PUSH1 0x1 ADD PUSH2 0x578 JUMP JUMPDEST SWAP1 PUSH2 0x690 PUSH1 0x1 SWAP2 PUSH2 0x204F JUMP JUMPDEST SWAP2 SWAP1 POP PUSH2 0x67C JUMP JUMPDEST CALLVALUE PUSH2 0x2E2 JUMPI PUSH1 0x20 CALLDATASIZE PUSH1 0x3 NOT ADD SLT PUSH2 0x2E2 JUMPI PUSH1 0x4 CALLDATALOAD PUSH1 0x1 PUSH1 0x1 PUSH1 0x40 SHL SUB DUP2 GT PUSH2 0x2E2 JUMPI PUSH2 0x6C8 SWAP1 CALLDATASIZE SWAP1 PUSH1 0x4 ADD PUSH2 0x1798 JUMP JUMPDEST PUSH1 0x40 MLOAD PUSH2 0x6D4 DUP2 PUSH2 0x1740 JUMP JUMPDEST PUSH1 0x60 DUP2 MSTORE PUSH1 0x20 DUP2 ADD PUSH1 0x60 SWAP1 MSTORE PUSH1 0x40 DUP2 ADD PUSH1 0x60 SWAP1 MSTORE PUSH1 0x60 DUP2 ADD PUSH1 0x60 SWAP1 MSTORE PUSH1 0x80 DUP2 ADD PUSH1 0x60 SWAP1 MSTORE PUSH1 0xA0 DUP2 ADD PUSH1 0x60 SWAP1 MSTORE PUSH1 0xC0 DUP2 ADD PUSH0 SWAP1 MSTORE PUSH1 0xE0 DUP2 ADD PUSH0 SWAP1 MSTORE PUSH2 0x100 DUP2 ADD PUSH1 0x60 SWAP1 MSTORE PUSH2 0x120 DUP2 ADD PUSH1 0x60 SWAP1 MSTORE PUSH2 0x140 ADD PUSH1 0x60 SWAP1 MSTORE DUP1 MLOAD ISZERO ISZERO PUSH2 0x735 SWAP1 PUSH2 0x2016 JUMP JUMPDEST PUSH1 0x40 MLOAD DUP2 DUP2 SWAP3 MLOAD PUSH1 0x20 DUP2 SWAP3 ADD DUP4 MCOPY DUP2 ADD PUSH1 0x2 DUP2 MSTORE SUB PUSH1 0x20 ADD SWAP1 KECCAK256 PUSH1 0x40 MLOAD PUSH2 0x75B DUP2 PUSH2 0x1740 JUMP JUMPDEST PUSH2 0x764 DUP3 PUSH2 0x18AD JUMP JUMPDEST DUP2 MSTORE PUSH2 0x772 PUSH1 0x1 DUP4 ADD PUSH2 0x18AD JUMP JUMPDEST PUSH1 0x20 DUP3 ADD SWAP1 DUP2 MSTORE SWAP2 PUSH2 0x786 PUSH1 0x2 DUP3 ADD PUSH2 0x1F57 JUMP JUMPDEST PUSH1 0x40 DUP4 ADD SWAP1 DUP2 MSTORE SWAP1 PUSH2 0x79A PUSH1 0x3 DUP3 ADD PUSH2 0x1F57 JUMP JUMPDEST PUSH1 0x60 DUP5 ADD SWAP1 DUP2 MSTORE PUSH2 0x7AD PUSH1 0x4 DUP4 ADD PUSH2 0x18AD JUMP JUMPDEST PUSH1 0x80 DUP6 ADD SWAP1 DUP2 MSTORE SWAP1 PUSH2 0x7C1 PUSH1 0x5 DUP5 ADD PUSH2 0x18AD JUMP JUMPDEST PUSH1 0xA0 DUP7 DUP2 ADD SWAP2 DUP3 MSTORE PUSH1 0x6 DUP6 ADD SLOAD PUSH1 0x1 PUSH1 0x1 PUSH1 0xA0 SHL SUB DUP2 AND PUSH1 0xC0 DUP10 ADD SWAP1 DUP2 MSTORE SWAP5 PUSH1 0xE0 DUP10 ADD SWAP4 SWAP3 SWAP1 SWAP2 PUSH1 0xFF SWAP2 SHR AND PUSH2 0x7F6 DUP2 PUSH2 0x1B16 JUMP JUMPDEST DUP4 MSTORE PUSH2 0x804 PUSH1 0x7 DUP8 ADD PUSH2 0x18AD JUMP JUMPDEST PUSH2 0x100 DUP10 ADD SWAP1 DUP2 MSTORE SWAP4 PUSH2 0x819 PUSH1 0x8 DUP9 ADD PUSH2 0x18AD JUMP JUMPDEST SWAP7 PUSH2 0x120 DUP11 ADD SWAP8 DUP9 MSTORE PUSH1 0x9 ADD PUSH2 0x82E SWAP1 PUSH2 0x18AD JUMP JUMPDEST SWAP8 PUSH2 0x140 DUP11 ADD SWAP9 DUP10 MSTORE PUSH1 0x40 MLOAD SWAP11 DUP12 SWAP11 PUSH1 0x20 DUP13 MSTORE MLOAD PUSH1 0x20 DUP13 ADD PUSH2 0x160 SWAP1 MSTORE PUSH2 0x180 DUP13 ADD PUSH2 0x859 SWAP2 PUSH2 0x194D JUMP JUMPDEST SWAP1 MLOAD DUP12 DUP3 SUB PUSH1 0x1F NOT ADD PUSH1 0x40 DUP14 ADD MSTORE PUSH2 0x871 SWAP2 SWAP1 PUSH2 0x194D JUMP JUMPDEST SWAP1 MLOAD DUP11 DUP3 SUB PUSH1 0x1F NOT ADD PUSH1 0x60 DUP13 ADD MSTORE PUSH2 0x889 SWAP2 SWAP1 PUSH2 0x1ABE JUMP JUMPDEST SWAP1 MLOAD DUP10 DUP3 SUB PUSH1 0x1F NOT ADD PUSH1 0x80 DUP12 ADD MSTORE PUSH2 0x8A1 SWAP2 SWAP1 PUSH2 0x1ABE JUMP JUMPDEST SWAP1 MLOAD DUP9 DUP3 SUB PUSH1 0x1F NOT ADD PUSH1 0xA0 DUP11 ADD MSTORE PUSH2 0x8B9 SWAP2 SWAP1 PUSH2 0x194D JUMP JUMPDEST SWAP1 MLOAD DUP8 DUP3 SUB PUSH1 0x1F NOT ADD PUSH1 0xC0 DUP10 ADD MSTORE PUSH2 0x8D1 SWAP2 SWAP1 PUSH2 0x194D JUMP JUMPDEST SWAP3 MLOAD PUSH1 0x1 PUSH1 0x1 PUSH1 0xA0 SHL SUB AND PUSH1 0xE0 DUP8 ADD MSTORE MLOAD PUSH2 0x8EB DUP2 PUSH2 0x1B16 JUMP JUMPDEST PUSH2 0x100 DUP7 ADD MSTORE MLOAD DUP5 DUP3 SUB PUSH1 0x1F NOT ADD PUSH2 0x120 DUP7 ADD MSTORE PUSH2 0x909 SWAP2 SWAP1 PUSH2 0x194D JUMP JUMPDEST SWAP1 MLOAD DUP4 DUP3 SUB PUSH1 0x1F NOT ADD PUSH2 0x140 DUP6 ADD MSTORE PUSH2 0x922 SWAP2 SWAP1 PUSH2 0x194D JUMP JUMPDEST SWAP1 MLOAD DUP3 DUP3 SUB PUSH1 0x1F NOT ADD PUSH2 0x160 DUP5 ADD MSTORE PUSH2 0x17B SWAP2 SWAP1 PUSH2 0x194D JUMP JUMPDEST CALLVALUE PUSH2 0x2E2 JUMPI PUSH1 0xFF PUSH2 0x94B CALLDATASIZE PUSH2 0x1971 JUMP JUMPDEST SWAP4 PUSH1 0x40 SWAP7 SWAP4 SWAP2 SWAP3 SWAP7 MLOAD SWAP6 PUSH2 0x95E DUP8 PUSH2 0x1725 JUMP JUMPDEST PUSH0 DUP8 MSTORE PUSH1 0x20 DUP8 ADD MSTORE PUSH1 0x40 DUP7 ADD MSTORE PUSH1 0x60 DUP6 ADD MSTORE DUP5 PUSH1 0x80 DUP6 ADD MSTORE AND PUSH1 0xA0 DUP4 ADD MSTORE PUSH1 0xC0 DUP3 ADD MSTORE PUSH0 SLOAD PUSH1 0x1 PUSH1 0x40 SHL DUP2 LT ISZERO PUSH2 0x469 JUMPI DUP1 PUSH1 0x1 PUSH2 0x99F SWAP3 ADD PUSH0 SSTORE PUSH0 PUSH2 0x1860 JUMP JUMPDEST SWAP3 SWAP1 SWAP3 PUSH2 0x456 JUMPI PUSH1 0x20 DUP2 PUSH2 0x9B7 DUP3 SWAP4 PUSH2 0x50E SWAP7 PUSH2 0x1CB3 JUMP JUMPDEST PUSH1 0x40 MLOAD SWAP3 DUP2 DUP5 SWAP3 MLOAD SWAP2 DUP3 SWAP2 ADD DUP4 MCOPY DUP2 ADD PUSH1 0x4 DUP2 MSTORE SUB ADD SWAP1 KECCAK256 PUSH2 0x1DC3 JUMP JUMPDEST CALLVALUE PUSH2 0x2E2 JUMPI PUSH1 0x20 CALLDATASIZE PUSH1 0x3 NOT ADD SLT PUSH2 0x2E2 JUMPI PUSH1 0x4 CALLDATALOAD PUSH1 0x1 PUSH1 0x1 PUSH1 0x40 SHL SUB DUP2 GT PUSH2 0x2E2 JUMPI PUSH2 0xA04 SWAP1 CALLDATASIZE SWAP1 PUSH1 0x4 ADD PUSH2 0x1798 JUMP JUMPDEST PUSH1 0x40 MLOAD DUP2 DUP2 SWAP3 MLOAD PUSH1 0x20 DUP2 SWAP3 ADD DUP4 MCOPY DUP2 ADD PUSH1 0x2 DUP2 MSTORE SUB PUSH1 0x20 ADD SWAP1 KECCAK256 PUSH2 0xA27 DUP2 PUSH2 0x18AD JUMP JUMPDEST PUSH2 0xA33 PUSH1 0x1 DUP4 ADD PUSH2 0x18AD JUMP JUMPDEST SWAP2 PUSH2 0xA40 PUSH1 0x4 DUP3 ADD PUSH2 0x18AD JUMP JUMPDEST SWAP1 PUSH2 0xA4D PUSH1 0x5 DUP3 ADD PUSH2 0x18AD JUMP JUMPDEST PUSH1 0x6 DUP3 ADD SLOAD DUP1 PUSH1 0xA0 SHR PUSH1 0xFF AND PUSH1 0x7 DUP5 ADD PUSH2 0xA66 SWAP1 PUSH2 0x18AD JUMP JUMPDEST SWAP3 PUSH2 0xA73 PUSH1 0x8 DUP7 ADD PUSH2 0x18AD JUMP JUMPDEST SWAP5 PUSH1 0x9 ADD PUSH2 0xA80 SWAP1 PUSH2 0x18AD JUMP JUMPDEST SWAP6 PUSH1 0x40 MLOAD SWAP9 DUP10 SWAP9 PUSH2 0x120 DUP11 MSTORE PUSH2 0x120 DUP11 ADD PUSH2 0xA9A SWAP2 PUSH2 0x194D JUMP JUMPDEST DUP10 DUP2 SUB PUSH1 0x20 DUP12 ADD MSTORE PUSH2 0xAAB SWAP2 PUSH2 0x194D JUMP JUMPDEST DUP9 DUP2 SUB PUSH1 0x40 DUP11 ADD MSTORE PUSH2 0xABC SWAP2 PUSH2 0x194D JUMP JUMPDEST DUP8 DUP2 SUB PUSH1 0x60 DUP10 ADD MSTORE PUSH2 0xACD SWAP2 PUSH2 0x194D JUMP JUMPDEST PUSH1 0x1 PUSH1 0x1 PUSH1 0xA0 SHL SUB SWAP1 SWAP3 AND PUSH1 0x80 DUP8 ADD MSTORE PUSH2 0xAE6 DUP2 PUSH2 0x1B16 JUMP JUMPDEST PUSH1 0xA0 DUP7 ADD MSTORE DUP5 DUP2 SUB PUSH1 0xC0 DUP7 ADD MSTORE PUSH2 0xAFC SWAP2 PUSH2 0x194D JUMP JUMPDEST DUP4 DUP2 SUB PUSH1 0xE0 DUP6 ADD MSTORE PUSH2 0xB0D SWAP2 PUSH2 0x194D JUMP JUMPDEST DUP3 DUP2 SUB PUSH2 0x100 DUP5 ADD MSTORE PUSH2 0x17B SWAP2 PUSH2 0x194D JUMP JUMPDEST CALLVALUE PUSH2 0x2E2 JUMPI PUSH1 0x40 CALLDATASIZE PUSH1 0x3 NOT ADD SLT PUSH2 0x2E2 JUMPI PUSH1 0x4 CALLDATALOAD PUSH1 0x1 PUSH1 0x1 PUSH1 0x40 SHL SUB DUP2 GT PUSH2 0x2E2 JUMPI PUSH2 0xB4F SWAP1 CALLDATASIZE SWAP1 PUSH1 0x4 ADD PUSH2 0x1798 JUMP JUMPDEST PUSH1 0x24 CALLDATALOAD SWAP1 PUSH1 0x1 PUSH1 0x1 PUSH1 0x40 SHL SUB DUP3 GT PUSH2 0x2E2 JUMPI PUSH1 0x8 PUSH1 0x20 DUP1 PUSH2 0xB77 PUSH2 0x50E SWAP6 CALLDATASIZE SWAP1 PUSH1 0x4 ADD PUSH2 0x1798 JUMP JUMPDEST SWAP4 PUSH2 0xB84 DUP2 MLOAD ISZERO ISZERO PUSH2 0x2016 JUMP JUMPDEST PUSH1 0x40 MLOAD SWAP3 DUP2 DUP5 SWAP3 MLOAD SWAP2 DUP3 SWAP2 ADD DUP4 MCOPY DUP2 ADD PUSH1 0x2 DUP2 MSTORE SUB ADD SWAP1 KECCAK256 ADD PUSH2 0x1CB3 JUMP JUMPDEST CALLVALUE PUSH2 0x2E2 JUMPI PUSH1 0x40 CALLDATASIZE PUSH1 0x3 NOT ADD SLT PUSH2 0x2E2 JUMPI PUSH1 0x4 CALLDATALOAD PUSH1 0x1 PUSH1 0x1 PUSH1 0x40 SHL SUB DUP2 GT PUSH2 0x2E2 JUMPI PUSH2 0xBD2 SWAP1 CALLDATASIZE SWAP1 PUSH1 0x4 ADD PUSH2 0x1798 JUMP JUMPDEST PUSH1 0x24 CALLDATALOAD PUSH1 0x2 DUP2 LT ISZERO PUSH2 0x2E2 JUMPI PUSH1 0x40 MLOAD DUP3 MLOAD PUSH2 0x50E SWAP4 PUSH1 0x20 SWAP2 DUP4 SWAP2 DUP2 SWAP1 DUP5 ADD DUP4 MCOPY DUP2 ADD PUSH1 0x4 DUP2 MSTORE SUB ADD SWAP1 KECCAK256 PUSH2 0x1DAB JUMP JUMPDEST CALLVALUE PUSH2 0x2E2 JUMPI PUSH1 0x20 CALLDATASIZE PUSH1 0x3 NOT ADD SLT PUSH2 0x2E2 JUMPI PUSH1 0x4 CALLDATALOAD PUSH1 0x1 PUSH1 0x1 PUSH1 0x40 SHL SUB DUP2 GT PUSH2 0x2E2 JUMPI PUSH1 0x20 PUSH2 0xC34 DUP2 SWAP3 CALLDATASIZE SWAP1 PUSH1 0x4 ADD PUSH2 0x1798 JUMP JUMPDEST PUSH1 0x40 MLOAD SWAP3 DUP2 DUP5 SWAP3 MLOAD SWAP2 DUP3 SWAP2 ADD DUP4 MCOPY DUP2 ADD PUSH1 0x4 DUP2 MSTORE SUB ADD SWAP1 KECCAK256 PUSH1 0xFF DUP2 SLOAD AND PUSH2 0x17B PUSH2 0xC60 PUSH1 0x1 DUP5 ADD PUSH2 0x18AD JUMP JUMPDEST SWAP3 PUSH2 0xC6D PUSH1 0x2 DUP3 ADD PUSH2 0x18AD JUMP JUMPDEST SWAP1 PUSH2 0xC7A PUSH1 0x3 DUP3 ADD PUSH2 0x18AD JUMP JUMPDEST PUSH2 0xC86 PUSH1 0x4 DUP4 ADD PUSH2 0x18AD JUMP JUMPDEST SWAP1 PUSH2 0xC9B PUSH1 0x6 PUSH1 0xFF PUSH1 0x5 DUP7 ADD SLOAD AND SWAP5 ADD PUSH2 0x18AD JUMP JUMPDEST SWAP4 PUSH1 0x40 MLOAD SWAP8 DUP9 SWAP8 DUP9 PUSH2 0x1C2B JUMP JUMPDEST CALLVALUE PUSH2 0x2E2 JUMPI PUSH1 0x20 CALLDATASIZE PUSH1 0x3 NOT ADD SLT PUSH2 0x2E2 JUMPI PUSH1 0x4 CALLDATALOAD PUSH1 0x1 PUSH1 0x1 PUSH1 0x40 SHL SUB DUP2 GT PUSH2 0x2E2 JUMPI PUSH1 0x20 PUSH2 0xCDB DUP2 SWAP3 CALLDATASIZE SWAP1 PUSH1 0x4 ADD PUSH2 0x1798 JUMP JUMPDEST PUSH1 0x40 MLOAD SWAP3 DUP2 DUP5 SWAP3 MLOAD SWAP2 DUP3 SWAP2 ADD DUP4 MCOPY DUP2 ADD PUSH1 0x5 DUP2 MSTORE SUB ADD SWAP1 KECCAK256 PUSH1 0xFF DUP2 SLOAD AND PUSH2 0x17B PUSH2 0xC60 PUSH1 0x1 DUP5 ADD PUSH2 0x18AD JUMP JUMPDEST CALLVALUE PUSH2 0x2E2 JUMPI PUSH1 0x20 DUP1 PUSH2 0xD18 CALLDATASIZE PUSH2 0x17ED JUMP JUMPDEST SWAP3 SWAP1 PUSH1 0x40 MLOAD SWAP3 DUP2 DUP5 SWAP3 MLOAD SWAP2 DUP3 SWAP2 ADD DUP4 MCOPY DUP2 ADD PUSH1 0x3 DUP2 MSTORE SUB ADD SWAP1 KECCAK256 SWAP1 DUP2 SLOAD DUP2 LT ISZERO PUSH2 0x2E2 JUMPI PUSH2 0xD45 SWAP2 PUSH2 0x1C12 JUMP JUMPDEST POP PUSH1 0xFF DUP2 SLOAD AND PUSH2 0x17B PUSH2 0xD5A PUSH1 0x1 DUP5 ADD PUSH2 0x18AD JUMP JUMPDEST SWAP3 PUSH2 0xD67 PUSH1 0x2 DUP3 ADD PUSH2 0x18AD JUMP JUMPDEST PUSH2 0xDB2 PUSH2 0xD7E PUSH1 0x4 PUSH1 0xFF PUSH1 0x3 DUP7 ADD SLOAD AND SWAP5 ADD PUSH2 0x18AD JUMP JUMPDEST SWAP2 PUSH2 0xDA4 PUSH1 0x40 MLOAD SWAP8 DUP8 PUSH2 0xD91 DUP11 SWAP10 PUSH2 0x1B16 JUMP JUMPDEST DUP9 MSTORE PUSH1 0xA0 PUSH1 0x20 DUP10 ADD MSTORE PUSH1 0xA0 DUP9 ADD SWAP1 PUSH2 0x194D JUMP JUMPDEST SWAP1 DUP7 DUP3 SUB PUSH1 0x40 DUP9 ADD MSTORE PUSH2 0x194D JUMP JUMPDEST SWAP2 PUSH1 0x60 DUP6 ADD MSTORE DUP4 DUP3 SUB PUSH1 0x80 DUP6 ADD MSTORE PUSH2 0x194D JUMP JUMPDEST CALLVALUE PUSH2 0x2E2 JUMPI PUSH0 CALLDATASIZE PUSH1 0x3 NOT ADD SLT PUSH2 0x2E2 JUMPI PUSH0 SLOAD PUSH0 PUSH0 JUMPDEST DUP3 DUP2 LT PUSH2 0xED0 JUMPI POP PUSH2 0xDEB SWAP1 PUSH2 0x2071 JUMP JUMPDEST SWAP1 PUSH0 PUSH0 JUMPDEST DUP3 DUP2 LT PUSH2 0xE04 JUMPI PUSH1 0x40 MLOAD DUP1 PUSH2 0x17B DUP7 DUP3 PUSH2 0x1B34 JUMP JUMPDEST PUSH1 0xFF PUSH2 0xE14 PUSH1 0x20 PUSH2 0x190 DUP5 PUSH2 0x181E JUMP JUMPDEST PUSH1 0x4 DUP2 MSTORE SUB ADD SWAP1 KECCAK256 SLOAD AND PUSH2 0xE27 DUP2 PUSH2 0x1B16 JUMP JUMPDEST ISZERO PUSH2 0xE35 JUMPI JUMPDEST PUSH1 0x1 ADD PUSH2 0xDEF JUMP JUMPDEST SWAP1 PUSH2 0xEC8 PUSH1 0x1 SWAP2 PUSH2 0xE4D PUSH2 0x19D PUSH1 0x20 PUSH2 0x190 DUP8 PUSH2 0x181E JUMP JUMPDEST PUSH1 0x40 DUP2 ADD MLOAD SWAP1 PUSH1 0x20 DUP2 ADD MLOAD SWAP1 PUSH1 0x60 DUP2 ADD MLOAD PUSH1 0x80 DUP3 ADD MLOAD PUSH1 0xFF PUSH1 0xA0 DUP5 ADD MLOAD AND SWAP2 PUSH1 0xC0 DUP5 MLOAD SWAP5 PUSH2 0xE7A DUP7 PUSH2 0x1B16 JUMP JUMPDEST ADD MLOAD SWAP5 PUSH1 0x40 MLOAD SWAP7 PUSH2 0xE8A DUP9 PUSH2 0x1725 JUMP JUMPDEST DUP8 MSTORE PUSH1 0x20 DUP8 ADD MSTORE PUSH1 0x40 DUP7 ADD MSTORE PUSH1 0x60 DUP6 ADD MSTORE PUSH1 0x80 DUP5 ADD MSTORE PUSH2 0xEA9 DUP2 PUSH2 0x1B16 JUMP JUMPDEST PUSH1 0xA0 DUP4 ADD MSTORE PUSH1 0xC0 DUP3 ADD MSTORE PUSH2 0xEBD DUP3 DUP9 PUSH2 0x2170 JUMP JUMPDEST MSTORE PUSH2 0x272 DUP2 DUP8 PUSH2 0x2170 JUMP JUMPDEST SWAP2 SWAP1 POP PUSH2 0xE2D JUMP JUMPDEST PUSH1 0xFF PUSH2 0xEE0 PUSH1 0x20 PUSH2 0x190 DUP5 PUSH2 0x181E JUMP JUMPDEST PUSH1 0x4 DUP2 MSTORE SUB ADD SWAP1 KECCAK256 SLOAD AND PUSH2 0xEF3 DUP2 PUSH2 0x1B16 JUMP JUMPDEST ISZERO PUSH2 0xF01 JUMPI JUMPDEST PUSH1 0x1 ADD PUSH2 0xDDA JUMP JUMPDEST SWAP1 PUSH2 0xF0D PUSH1 0x1 SWAP2 PUSH2 0x204F JUMP JUMPDEST SWAP2 SWAP1 POP PUSH2 0xEF9 JUMP JUMPDEST CALLVALUE PUSH2 0x2E2 JUMPI PUSH1 0x20 CALLDATASIZE PUSH1 0x3 NOT ADD SLT PUSH2 0x2E2 JUMPI PUSH1 0x4 CALLDATALOAD PUSH1 0x1 PUSH1 0x1 PUSH1 0x40 SHL SUB DUP2 GT PUSH2 0x2E2 JUMPI PUSH1 0x20 PUSH2 0xF48 DUP2 SWAP3 CALLDATASIZE SWAP1 PUSH1 0x4 ADD PUSH2 0x1798 JUMP JUMPDEST PUSH2 0xF54 DUP2 MLOAD ISZERO ISZERO PUSH2 0x2016 JUMP JUMPDEST PUSH1 0x40 MLOAD SWAP3 DUP2 DUP5 SWAP3 MLOAD SWAP2 DUP3 SWAP2 ADD DUP4 MCOPY DUP2 ADD PUSH1 0x3 DUP2 MSTORE SUB ADD SWAP1 KECCAK256 DUP1 SLOAD SWAP1 PUSH2 0xF78 DUP3 PUSH2 0x1A29 JUMP JUMPDEST SWAP2 PUSH2 0xF86 PUSH1 0x40 MLOAD SWAP4 DUP5 PUSH2 0x1777 JUMP JUMPDEST DUP1 DUP4 MSTORE PUSH1 0x20 DUP4 ADD DUP1 SWAP3 PUSH0 MSTORE PUSH1 0x20 PUSH0 KECCAK256 PUSH0 SWAP2 JUMPDEST DUP4 DUP4 LT PUSH2 0x105A JUMPI DUP5 DUP7 PUSH1 0x40 MLOAD SWAP2 DUP3 SWAP2 PUSH1 0x20 DUP4 ADD SWAP1 PUSH1 0x20 DUP5 MSTORE MLOAD DUP1 SWAP2 MSTORE PUSH1 0x40 DUP4 ADD SWAP1 PUSH1 0x40 DUP2 PUSH1 0x5 SHL DUP6 ADD ADD SWAP3 SWAP2 PUSH0 SWAP1 JUMPDEST DUP3 DUP3 LT PUSH2 0xFD6 JUMPI POP POP POP POP SUB SWAP1 RETURN JUMPDEST SWAP2 SWAP4 PUSH1 0x1 SWAP2 SWAP4 SWAP6 POP PUSH1 0x20 PUSH2 0x104A DUP2 SWAP3 PUSH1 0x3F NOT DUP11 DUP3 SUB ADD DUP7 MSTORE DUP9 MLOAD SWAP1 DUP2 MLOAD PUSH2 0xFFC DUP2 PUSH2 0x1B16 JUMP JUMPDEST DUP2 MSTORE PUSH1 0x80 PUSH2 0x102C PUSH2 0x101A DUP7 DUP6 ADD MLOAD PUSH1 0xA0 DUP9 DUP7 ADD MSTORE PUSH1 0xA0 DUP6 ADD SWAP1 PUSH2 0x194D JUMP JUMPDEST PUSH1 0x40 DUP6 ADD MLOAD DUP5 DUP3 SUB PUSH1 0x40 DUP7 ADD MSTORE PUSH2 0x194D JUMP JUMPDEST SWAP3 PUSH1 0xFF PUSH1 0x60 DUP3 ADD MLOAD AND PUSH1 0x60 DUP5 ADD MSTORE ADD MLOAD SWAP1 PUSH1 0x80 DUP2 DUP5 SUB SWAP2 ADD MSTORE PUSH2 0x194D JUMP JUMPDEST SWAP7 ADD SWAP3 ADD SWAP3 ADD DUP6 SWAP5 SWAP4 SWAP2 SWAP3 PUSH2 0xFC7 JUMP JUMPDEST PUSH1 0x5 PUSH1 0x20 PUSH1 0x1 SWAP3 PUSH1 0x40 MLOAD PUSH2 0x106D DUP2 PUSH2 0x175C JUMP JUMPDEST PUSH1 0xFF DUP7 SLOAD AND PUSH2 0x107B DUP2 PUSH2 0x1B16 JUMP JUMPDEST DUP2 MSTORE PUSH2 0x1088 DUP6 DUP8 ADD PUSH2 0x18AD JUMP JUMPDEST DUP4 DUP3 ADD MSTORE PUSH2 0x1098 PUSH1 0x2 DUP8 ADD PUSH2 0x18AD JUMP JUMPDEST PUSH1 0x40 DUP3 ADD MSTORE PUSH1 0xFF PUSH1 0x3 DUP8 ADD SLOAD AND PUSH1 0x60 DUP3 ADD MSTORE PUSH2 0x10B6 PUSH1 0x4 DUP8 ADD PUSH2 0x18AD JUMP JUMPDEST PUSH1 0x80 DUP3 ADD MSTORE DUP2 MSTORE ADD SWAP3 ADD SWAP3 ADD SWAP2 SWAP1 PUSH2 0xF98 JUMP JUMPDEST CALLVALUE PUSH2 0x2E2 JUMPI PUSH2 0x160 CALLDATASIZE PUSH1 0x3 NOT ADD SLT PUSH2 0x2E2 JUMPI PUSH1 0x4 CALLDATALOAD PUSH1 0x1 PUSH1 0x1 PUSH1 0x40 SHL SUB DUP2 GT PUSH2 0x2E2 JUMPI PUSH2 0x10FA SWAP1 CALLDATASIZE SWAP1 PUSH1 0x4 ADD PUSH2 0x1798 JUMP JUMPDEST PUSH1 0x24 CALLDATALOAD PUSH1 0x1 PUSH1 0x1 PUSH1 0x40 SHL SUB DUP2 GT PUSH2 0x2E2 JUMPI PUSH2 0x1119 SWAP1 CALLDATASIZE SWAP1 PUSH1 0x4 ADD PUSH2 0x1798 JUMP JUMPDEST PUSH1 0x44 CALLDATALOAD PUSH1 0x1 PUSH1 0x1 PUSH1 0x40 SHL SUB DUP2 GT PUSH2 0x2E2 JUMPI PUSH2 0x1138 SWAP1 CALLDATASIZE SWAP1 PUSH1 0x4 ADD PUSH2 0x1798 JUMP JUMPDEST PUSH1 0x64 CALLDATALOAD PUSH1 0x1 PUSH1 0x1 PUSH1 0x40 SHL SUB DUP2 GT PUSH2 0x2E2 JUMPI PUSH2 0x1157 SWAP1 CALLDATASIZE SWAP1 PUSH1 0x4 ADD PUSH2 0x1A40 JUMP JUMPDEST SWAP3 PUSH1 0x84 CALLDATALOAD PUSH1 0x1 PUSH1 0x1 PUSH1 0x40 SHL SUB DUP2 GT PUSH2 0x2E2 JUMPI PUSH2 0x1177 SWAP1 CALLDATASIZE SWAP1 PUSH1 0x4 ADD PUSH2 0x1A40 JUMP JUMPDEST SWAP1 PUSH1 0xA4 CALLDATALOAD PUSH1 0x1 PUSH1 0x1 PUSH1 0x40 SHL SUB DUP2 GT PUSH2 0x2E2 JUMPI PUSH2 0x1197 SWAP1 CALLDATASIZE SWAP1 PUSH1 0x4 ADD PUSH2 0x1798 JUMP JUMPDEST SWAP1 PUSH1 0xC4 CALLDATALOAD PUSH1 0x1 PUSH1 0x1 PUSH1 0x40 SHL SUB DUP2 GT PUSH2 0x2E2 JUMPI PUSH2 0x11B7 SWAP1 CALLDATASIZE SWAP1 PUSH1 0x4 ADD PUSH2 0x1798 JUMP JUMPDEST PUSH1 0xE4 CALLDATALOAD PUSH1 0x1 PUSH1 0x1 PUSH1 0xA0 SHL SUB DUP2 AND SWAP4 SWAP1 DUP5 SWAP1 SUB PUSH2 0x2E2 JUMPI PUSH2 0x104 CALLDATALOAD SWAP3 PUSH1 0x2 DUP5 LT ISZERO PUSH2 0x2E2 JUMPI PUSH2 0x124 CALLDATALOAD PUSH1 0x1 PUSH1 0x1 PUSH1 0x40 SHL SUB DUP2 GT PUSH2 0x2E2 JUMPI PUSH2 0x11FB SWAP1 CALLDATASIZE SWAP1 PUSH1 0x4 ADD PUSH2 0x1798 JUMP JUMPDEST SWAP6 PUSH2 0x144 CALLDATALOAD PUSH1 0x1 PUSH1 0x1 PUSH1 0x40 SHL SUB DUP2 GT PUSH2 0x2E2 JUMPI PUSH2 0x121C SWAP1 CALLDATASIZE SWAP1 PUSH1 0x4 ADD PUSH2 0x1798 JUMP JUMPDEST SWAP10 DUP3 MLOAD ISZERO ISZERO PUSH2 0x122A SWAP1 PUSH2 0x2016 JUMP JUMPDEST PUSH1 0x40 MLOAD SWAP10 PUSH2 0x1237 DUP12 PUSH2 0x1740 JUMP JUMPDEST DUP11 MSTORE PUSH1 0x20 DUP11 ADD SWAP9 DUP10 MSTORE PUSH1 0x40 DUP11 ADD SWAP1 DUP2 MSTORE PUSH1 0x60 DUP11 ADD SWAP2 DUP3 MSTORE PUSH1 0x80 DUP11 ADD SWAP4 DUP5 MSTORE PUSH1 0xA0 DUP11 ADD SWAP5 DUP6 MSTORE PUSH1 0xC0 DUP11 ADD SWAP7 DUP8 MSTORE PUSH1 0xE0 DUP11 ADD SWAP6 PUSH2 0x1271 DUP2 PUSH2 0x1B16 JUMP JUMPDEST DUP7 MSTORE PUSH2 0x100 DUP11 ADD SWAP8 DUP9 MSTORE PUSH1 0x20 SWAP9 DUP10 DUP1 DUP1 SWAP6 PUSH1 0x40 MLOAD SWAP13 PUSH2 0x1290 SWAP1 DUP15 PUSH2 0x1777 JUMP JUMPDEST PUSH0 DUP14 MSTORE DUP14 PUSH2 0x120 DUP2 ADD SWAP14 DUP15 MSTORE PUSH2 0x140 ADD SWAP15 DUP16 MSTORE PUSH1 0x40 MLOAD SWAP3 DUP2 DUP5 SWAP3 MLOAD SWAP2 DUP3 SWAP2 ADD DUP4 MCOPY DUP2 ADD PUSH1 0x2 DUP2 MSTORE SUB ADD SWAP1 KECCAK256 SWAP11 MLOAD PUSH2 0x12C7 SWAP1 DUP13 PUSH2 0x1CB3 JUMP JUMPDEST MLOAD PUSH2 0x12D5 SWAP1 PUSH1 0x1 DUP13 ADD PUSH2 0x1CB3 JUMP JUMPDEST PUSH1 0x2 DUP11 ADD SWAP1 MLOAD SWAP1 DUP4 DUP3 MLOAD SWAP3 PUSH2 0x12EA DUP5 DUP5 PUSH2 0x1EC6 JUMP JUMPDEST ADD SWAP1 PUSH0 MSTORE DUP4 PUSH0 KECCAK256 DUP5 PUSH0 SWAP3 JUMPDEST DUP5 DUP5 LT PUSH2 0x13D4 JUMPI POP POP POP POP POP PUSH1 0x3 DUP10 ADD SWAP1 MLOAD SWAP2 DUP1 DUP4 MLOAD SWAP4 PUSH2 0x1316 DUP6 DUP6 PUSH2 0x1EC6 JUMP JUMPDEST ADD SWAP2 PUSH0 MSTORE DUP1 PUSH0 KECCAK256 PUSH0 SWAP3 JUMPDEST DUP5 DUP5 LT PUSH2 0x13B8 JUMPI POP POP POP PUSH2 0x50E DUP10 PUSH1 0x9 DUP13 PUSH2 0x13B0 DUP13 PUSH2 0x13A6 DUP14 DUP14 DUP14 PUSH2 0x1357 DUP15 PUSH2 0x134D DUP16 MLOAD PUSH1 0x4 DUP14 ADD PUSH2 0x1CB3 JUMP JUMPDEST MLOAD PUSH1 0x5 DUP12 ADD PUSH2 0x1CB3 JUMP JUMPDEST SWAP1 MLOAD PUSH1 0x6 DUP10 ADD DUP1 SLOAD SWAP3 MLOAD SWAP1 SWAP3 SWAP2 PUSH1 0x1 PUSH1 0x1 PUSH1 0xA0 SHL SUB AND SWAP1 PUSH2 0x1377 DUP2 PUSH2 0x1B16 JUMP JUMPDEST PUSH2 0x1380 DUP2 PUSH2 0x1B16 JUMP JUMPDEST PUSH1 0x1 PUSH1 0x1 PUSH1 0xA8 SHL SUB NOT SWAP1 SWAP3 AND OR PUSH1 0xA0 SWAP2 SWAP1 SWAP2 SHL PUSH1 0xFF PUSH1 0xA0 SHL AND OR SWAP1 SSTORE MLOAD PUSH1 0x7 DUP8 ADD PUSH2 0x1CB3 JUMP JUMPDEST MLOAD PUSH1 0x8 DUP6 ADD PUSH2 0x1CB3 JUMP JUMPDEST MLOAD SWAP2 ADD PUSH2 0x1CB3 JUMP JUMPDEST PUSH1 0x1 DUP4 DUP3 PUSH2 0x13C8 DUP4 SWAP5 MLOAD DUP7 PUSH2 0x1CB3 JUMP JUMPDEST ADD SWAP3 ADD SWAP4 ADD SWAP3 SWAP1 PUSH2 0x1320 JUMP JUMPDEST PUSH1 0x1 SWAP2 DUP2 PUSH2 0x13E4 DUP5 SWAP4 MLOAD DUP7 PUSH2 0x1CB3 JUMP JUMPDEST ADD SWAP3 ADD SWAP3 ADD SWAP2 SWAP1 DUP6 SWAP1 PUSH2 0x12F5 JUMP JUMPDEST CALLVALUE PUSH2 0x2E2 JUMPI PUSH1 0x60 CALLDATASIZE PUSH1 0x3 NOT ADD SLT PUSH2 0x2E2 JUMPI PUSH1 0x4 CALLDATALOAD PUSH1 0x1 PUSH1 0x1 PUSH1 0x40 SHL SUB DUP2 GT PUSH2 0x2E2 JUMPI PUSH2 0x1422 SWAP1 CALLDATASIZE SWAP1 PUSH1 0x4 ADD PUSH2 0x1798 JUMP JUMPDEST PUSH1 0x24 CALLDATALOAD PUSH1 0x1 PUSH1 0x1 PUSH1 0x40 SHL SUB DUP2 GT PUSH2 0x2E2 JUMPI PUSH2 0x1441 SWAP1 CALLDATASIZE SWAP1 PUSH1 0x4 ADD PUSH2 0x1798 JUMP JUMPDEST SWAP1 PUSH1 0x44 CALLDATALOAD SWAP1 PUSH1 0x2 DUP3 LT ISZERO PUSH2 0x2E2 JUMPI PUSH1 0x20 DUP1 SWAP2 PUSH1 0x40 MLOAD SWAP3 DUP2 DUP5 SWAP3 MLOAD SWAP2 DUP3 SWAP2 ADD DUP4 MCOPY DUP2 ADD PUSH1 0x3 DUP2 MSTORE SUB ADD SWAP1 KECCAK256 SWAP2 PUSH1 0x40 MLOAD PUSH2 0x1498 PUSH1 0x20 DUP3 DUP2 DUP1 DUP3 ADD SWAP6 DUP1 MLOAD SWAP2 DUP3 SWAP2 ADD DUP8 MCOPY DUP2 ADD PUSH0 DUP4 DUP3 ADD MSTORE SUB ADD PUSH1 0x1F NOT DUP2 ADD DUP4 MSTORE DUP3 PUSH2 0x1777 JUMP JUMPDEST MLOAD SWAP1 KECCAK256 SWAP2 PUSH0 JUMPDEST DUP2 SLOAD DUP2 LT ISZERO PUSH2 0x50E JUMPI DUP4 PUSH1 0x2 PUSH2 0x2AF PUSH2 0x14CE PUSH2 0x14BA DUP6 DUP8 PUSH2 0x1C12 JUMP JUMPDEST POP PUSH1 0x40 MLOAD SWAP3 DUP4 SWAP2 PUSH1 0x20 DUP4 ADD SWAP6 DUP7 SWAP2 ADD PUSH2 0x1FAC JUMP JUMPDEST MLOAD SWAP1 KECCAK256 EQ PUSH2 0x14DE JUMPI PUSH1 0x1 ADD PUSH2 0x149E JUMP JUMPDEST PUSH2 0x50E SWAP4 POP PUSH2 0x14EC SWAP2 PUSH2 0x1C12 JUMP JUMPDEST POP PUSH2 0x1DAB JUMP JUMPDEST CALLVALUE PUSH2 0x2E2 JUMPI PUSH1 0x20 CALLDATASIZE PUSH1 0x3 NOT ADD SLT PUSH2 0x2E2 JUMPI PUSH1 0x4 CALLDATALOAD PUSH1 0x1 PUSH1 0x1 PUSH1 0x40 SHL SUB DUP2 GT PUSH2 0x2E2 JUMPI PUSH2 0x1548 PUSH1 0x20 DUP1 PUSH2 0x152B PUSH2 0x17B SWAP5 CALLDATASIZE SWAP1 PUSH1 0x4 ADD PUSH2 0x1798 JUMP JUMPDEST PUSH1 0x40 MLOAD SWAP3 DUP2 DUP5 SWAP3 MLOAD SWAP2 DUP3 SWAP2 ADD DUP4 MCOPY DUP2 ADD PUSH1 0x6 DUP2 MSTORE SUB ADD SWAP1 KECCAK256 PUSH2 0x1F57 JUMP JUMPDEST PUSH1 0x40 MLOAD SWAP2 DUP3 SWAP2 PUSH1 0x20 DUP4 MSTORE PUSH1 0x20 DUP4 ADD SWAP1 PUSH2 0x1ABE JUMP JUMPDEST CALLVALUE PUSH2 0x2E2 JUMPI PUSH1 0x40 CALLDATASIZE PUSH1 0x3 NOT ADD SLT PUSH2 0x2E2 JUMPI PUSH1 0x4 CALLDATALOAD PUSH1 0x1 PUSH1 0x1 PUSH1 0x40 SHL SUB DUP2 GT PUSH2 0x2E2 JUMPI PUSH2 0x158C SWAP1 CALLDATASIZE SWAP1 PUSH1 0x4 ADD PUSH2 0x1798 JUMP JUMPDEST PUSH1 0x24 CALLDATALOAD PUSH1 0x1 PUSH1 0x1 PUSH1 0x40 SHL SUB DUP2 GT PUSH2 0x2E2 JUMPI PUSH2 0x15AB SWAP1 CALLDATASIZE SWAP1 PUSH1 0x4 ADD PUSH2 0x1A40 JUMP JUMPDEST SWAP1 PUSH1 0x20 PUSH1 0x40 MLOAD SWAP2 PUSH2 0x15D1 DUP2 MLOAD SWAP4 DUP4 DUP2 DUP2 DUP6 ADD SWAP7 DUP1 DUP9 DUP4 MCOPY DUP2 ADD PUSH1 0x6 DUP2 MSTORE SUB ADD SWAP1 KECCAK256 PUSH2 0x1E45 JUMP JUMPDEST PUSH1 0x40 MLOAD SWAP3 DUP4 SWAP2 MLOAD DUP1 SWAP2 DUP4 MCOPY DUP2 ADD PUSH1 0x6 DUP2 MSTORE SUB ADD SWAP1 KECCAK256 SWAP1 PUSH1 0x20 DUP2 MLOAD SWAP2 PUSH2 0x15F6 DUP4 DUP6 PUSH2 0x1EC6 JUMP JUMPDEST ADD SWAP2 PUSH0 MSTORE PUSH1 0x20 PUSH0 KECCAK256 PUSH0 SWAP3 JUMPDEST DUP3 DUP5 LT PUSH2 0x160A JUMPI STOP JUMPDEST PUSH1 0x1 PUSH1 0x20 DUP3 PUSH2 0x161B DUP4 SWAP5 MLOAD DUP7 PUSH2 0x1CB3 JUMP JUMPDEST ADD SWAP3 ADD SWAP4 ADD SWAP3 SWAP1 PUSH2 0x1601 JUMP JUMPDEST CALLVALUE PUSH2 0x2E2 JUMPI PUSH1 0xFF PUSH2 0x1637 CALLDATASIZE PUSH2 0x1971 JUMP JUMPDEST SWAP4 PUSH1 0x40 SWAP7 SWAP4 SWAP2 SWAP3 SWAP7 MLOAD SWAP6 PUSH2 0x164A DUP8 PUSH2 0x1725 JUMP JUMPDEST PUSH0 DUP8 MSTORE PUSH1 0x20 DUP8 ADD MSTORE PUSH1 0x40 DUP7 ADD MSTORE PUSH1 0x60 DUP6 ADD MSTORE DUP5 PUSH1 0x80 DUP6 ADD MSTORE AND PUSH1 0xA0 DUP4 ADD MSTORE PUSH1 0xC0 DUP3 ADD MSTORE PUSH1 0x1 SLOAD PUSH1 0x1 PUSH1 0x40 SHL DUP2 LT ISZERO PUSH2 0x469 JUMPI DUP1 PUSH1 0x1 PUSH2 0x168E SWAP3 ADD PUSH1 0x1 SSTORE PUSH1 0x1 PUSH2 0x1860 JUMP JUMPDEST SWAP3 SWAP1 SWAP3 PUSH2 0x456 JUMPI PUSH1 0x20 DUP2 PUSH2 0x16A6 DUP3 SWAP4 PUSH2 0x50E SWAP7 PUSH2 0x1CB3 JUMP JUMPDEST PUSH1 0x40 MLOAD SWAP3 DUP2 DUP5 SWAP3 MLOAD SWAP2 DUP3 SWAP2 ADD DUP4 MCOPY DUP2 ADD PUSH1 0x5 DUP2 MSTORE SUB ADD SWAP1 KECCAK256 PUSH2 0x1DC3 JUMP JUMPDEST CALLVALUE PUSH2 0x2E2 JUMPI PUSH1 0x20 DUP1 PUSH2 0x16D4 CALLDATASIZE PUSH2 0x17ED JUMP JUMPDEST SWAP3 SWAP1 PUSH1 0x40 MLOAD SWAP3 DUP2 DUP5 SWAP3 MLOAD SWAP2 DUP3 SWAP2 ADD DUP4 MCOPY DUP2 ADD PUSH1 0x6 DUP2 MSTORE SUB ADD SWAP1 KECCAK256 SWAP1 DUP2 SLOAD DUP2 LT ISZERO PUSH2 0x2E2 JUMPI PUSH2 0x1701 SWAP2 PUSH2 0x1860 JUMP JUMPDEST PUSH2 0x456 JUMPI PUSH2 0x1711 PUSH2 0x17B SWAP2 PUSH2 0x18AD JUMP JUMPDEST PUSH1 0x40 MLOAD SWAP2 DUP3 SWAP2 PUSH1 0x20 DUP4 MSTORE PUSH1 0x20 DUP4 ADD SWAP1 PUSH2 0x194D JUMP JUMPDEST PUSH1 0xE0 DUP2 ADD SWAP1 DUP2 LT PUSH1 0x1 PUSH1 0x1 PUSH1 0x40 SHL SUB DUP3 GT OR PUSH2 0x469 JUMPI PUSH1 0x40 MSTORE JUMP JUMPDEST PUSH2 0x160 DUP2 ADD SWAP1 DUP2 LT PUSH1 0x1 PUSH1 0x1 PUSH1 0x40 SHL SUB DUP3 GT OR PUSH2 0x469 JUMPI PUSH1 0x40 MSTORE JUMP JUMPDEST PUSH1 0xA0 DUP2 ADD SWAP1 DUP2 LT PUSH1 0x1 PUSH1 0x1 PUSH1 0x40 SHL SUB DUP3 GT OR PUSH2 0x469 JUMPI PUSH1 0x40 MSTORE JUMP JUMPDEST SWAP1 PUSH1 0x1F DUP1 NOT SWAP2 ADD AND DUP2 ADD SWAP1 DUP2 LT PUSH1 0x1 PUSH1 0x1 PUSH1 0x40 SHL SUB DUP3 GT OR PUSH2 0x469 JUMPI PUSH1 0x40 MSTORE JUMP JUMPDEST DUP2 PUSH1 0x1F DUP3 ADD SLT ISZERO PUSH2 0x2E2 JUMPI DUP1 CALLDATALOAD SWAP1 PUSH1 0x1 PUSH1 0x1 PUSH1 0x40 SHL SUB DUP3 GT PUSH2 0x469 JUMPI PUSH1 0x40 MLOAD SWAP3 PUSH2 0x17CC PUSH1 0x1F DUP5 ADD PUSH1 0x1F NOT AND PUSH1 0x20 ADD DUP6 PUSH2 0x1777 JUMP JUMPDEST DUP3 DUP5 MSTORE PUSH1 0x20 DUP4 DUP4 ADD ADD GT PUSH2 0x2E2 JUMPI DUP2 PUSH0 SWAP3 PUSH1 0x20 DUP1 SWAP4 ADD DUP4 DUP7 ADD CALLDATACOPY DUP4 ADD ADD MSTORE SWAP1 JUMP JUMPDEST PUSH1 0x40 PUSH1 0x3 NOT DUP3 ADD SLT PUSH2 0x2E2 JUMPI PUSH1 0x4 CALLDATALOAD SWAP1 PUSH1 0x1 PUSH1 0x1 PUSH1 0x40 SHL SUB DUP3 GT PUSH2 0x2E2 JUMPI PUSH2 0x1817 SWAP2 PUSH1 0x4 ADD PUSH2 0x1798 JUMP JUMPDEST SWAP1 PUSH1 0x24 CALLDATALOAD SWAP1 JUMP JUMPDEST PUSH0 SLOAD DUP2 LT ISZERO PUSH2 0x1834 JUMPI PUSH0 DUP1 MSTORE PUSH1 0x20 PUSH0 KECCAK256 ADD SWAP1 PUSH0 SWAP1 JUMP JUMPDEST PUSH4 0x4E487B71 PUSH1 0xE0 SHL PUSH0 MSTORE PUSH1 0x32 PUSH1 0x4 MSTORE PUSH1 0x24 PUSH0 REVERT JUMPDEST PUSH1 0x1 SLOAD DUP2 LT ISZERO PUSH2 0x1834 JUMPI PUSH1 0x1 PUSH0 MSTORE PUSH1 0x20 PUSH0 KECCAK256 ADD SWAP1 PUSH0 SWAP1 JUMP JUMPDEST DUP1 SLOAD DUP3 LT ISZERO PUSH2 0x1834 JUMPI PUSH0 MSTORE PUSH1 0x20 PUSH0 KECCAK256 ADD SWAP1 PUSH0 SWAP1 JUMP JUMPDEST SWAP1 PUSH1 0x1 DUP3 DUP2 SHR SWAP3 AND DUP1 ISZERO PUSH2 0x18A3 JUMPI JUMPDEST PUSH1 0x20 DUP4 LT EQ PUSH2 0x188F JUMPI JUMP JUMPDEST PUSH4 0x4E487B71 PUSH1 0xE0 SHL PUSH0 MSTORE PUSH1 0x22 PUSH1 0x4 MSTORE PUSH1 0x24 PUSH0 REVERT JUMPDEST SWAP2 PUSH1 0x7F AND SWAP2 PUSH2 0x1884 JUMP JUMPDEST SWAP1 PUSH1 0x40 MLOAD SWAP2 DUP3 PUSH0 DUP3 SLOAD SWAP3 PUSH2 0x18C0 DUP5 PUSH2 0x1875 JUMP JUMPDEST DUP1 DUP5 MSTORE SWAP4 PUSH1 0x1 DUP2 AND SWAP1 DUP2 ISZERO PUSH2 0x192B JUMPI POP PUSH1 0x1 EQ PUSH2 0x18E7 JUMPI JUMPDEST POP PUSH2 0x18E5 SWAP3 POP SUB DUP4 PUSH2 0x1777 JUMP JUMPDEST JUMP JUMPDEST SWAP1 POP PUSH0 SWAP3 SWAP2 SWAP3 MSTORE PUSH1 0x20 PUSH0 KECCAK256 SWAP1 PUSH0 SWAP2 JUMPDEST DUP2 DUP4 LT PUSH2 0x190F JUMPI POP POP SWAP1 PUSH1 0x20 PUSH2 0x18E5 SWAP3 DUP3 ADD ADD PUSH0 PUSH2 0x18D8 JUMP JUMPDEST PUSH1 0x20 SWAP2 SWAP4 POP DUP1 PUSH1 0x1 SWAP2 SLOAD DUP4 DUP6 DUP10 ADD ADD MSTORE ADD SWAP2 ADD SWAP1 SWAP2 DUP5 SWAP3 PUSH2 0x18F6 JUMP JUMPDEST SWAP1 POP PUSH1 0x20 SWAP3 POP PUSH2 0x18E5 SWAP5 SWAP2 POP PUSH1 0xFF NOT AND DUP3 DUP5 ADD MSTORE ISZERO ISZERO PUSH1 0x5 SHL DUP3 ADD ADD PUSH0 PUSH2 0x18D8 JUMP JUMPDEST DUP1 MLOAD DUP1 DUP4 MSTORE PUSH1 0x20 SWAP3 SWAP2 DUP2 SWAP1 DUP5 ADD DUP5 DUP5 ADD MCOPY PUSH0 DUP3 DUP3 ADD DUP5 ADD MSTORE PUSH1 0x1F ADD PUSH1 0x1F NOT AND ADD ADD SWAP1 JUMP JUMPDEST SWAP1 PUSH1 0xC0 PUSH1 0x3 NOT DUP4 ADD SLT PUSH2 0x2E2 JUMPI PUSH1 0x4 CALLDATALOAD PUSH1 0x1 PUSH1 0x1 PUSH1 0x40 SHL SUB DUP2 GT PUSH2 0x2E2 JUMPI DUP3 PUSH2 0x199C SWAP2 PUSH1 0x4 ADD PUSH2 0x1798 JUMP JUMPDEST SWAP2 PUSH1 0x24 CALLDATALOAD PUSH1 0x1 PUSH1 0x1 PUSH1 0x40 SHL SUB DUP2 GT PUSH2 0x2E2 JUMPI DUP2 PUSH2 0x19BB SWAP2 PUSH1 0x4 ADD PUSH2 0x1798 JUMP JUMPDEST SWAP2 PUSH1 0x44 CALLDATALOAD PUSH1 0x1 PUSH1 0x1 PUSH1 0x40 SHL SUB DUP2 GT PUSH2 0x2E2 JUMPI DUP3 PUSH2 0x19DA SWAP2 PUSH1 0x4 ADD PUSH2 0x1798 JUMP JUMPDEST SWAP2 PUSH1 0x64 CALLDATALOAD PUSH1 0x1 PUSH1 0x1 PUSH1 0x40 SHL SUB DUP2 GT PUSH2 0x2E2 JUMPI DUP2 PUSH2 0x19F9 SWAP2 PUSH1 0x4 ADD PUSH2 0x1798 JUMP JUMPDEST SWAP2 PUSH1 0x84 CALLDATALOAD PUSH1 0xFF DUP2 AND DUP2 SUB PUSH2 0x2E2 JUMPI SWAP2 PUSH1 0xA4 CALLDATALOAD SWAP1 PUSH1 0x1 PUSH1 0x1 PUSH1 0x40 SHL SUB DUP3 GT PUSH2 0x2E2 JUMPI PUSH2 0x1A26 SWAP2 PUSH1 0x4 ADD PUSH2 0x1798 JUMP JUMPDEST SWAP1 JUMP JUMPDEST PUSH1 0x1 PUSH1 0x1 PUSH1 0x40 SHL SUB DUP2 GT PUSH2 0x469 JUMPI PUSH1 0x5 SHL PUSH1 0x20 ADD SWAP1 JUMP JUMPDEST SWAP1 DUP1 PUSH1 0x1F DUP4 ADD SLT ISZERO PUSH2 0x2E2 JUMPI DUP2 CALLDATALOAD PUSH2 0x1A57 DUP2 PUSH2 0x1A29 JUMP JUMPDEST SWAP3 PUSH2 0x1A65 PUSH1 0x40 MLOAD SWAP5 DUP6 PUSH2 0x1777 JUMP JUMPDEST DUP2 DUP5 MSTORE PUSH1 0x20 DUP1 DUP6 ADD SWAP3 PUSH1 0x5 SHL DUP3 ADD ADD SWAP2 DUP4 DUP4 GT PUSH2 0x2E2 JUMPI PUSH1 0x20 DUP3 ADD SWAP1 JUMPDEST DUP4 DUP3 LT PUSH2 0x1A91 JUMPI POP POP POP POP POP SWAP1 JUMP JUMPDEST DUP2 CALLDATALOAD PUSH1 0x1 PUSH1 0x1 PUSH1 0x40 SHL SUB DUP2 GT PUSH2 0x2E2 JUMPI PUSH1 0x20 SWAP2 PUSH2 0x1AB3 DUP8 DUP5 DUP1 SWAP5 DUP9 ADD ADD PUSH2 0x1798 JUMP JUMPDEST DUP2 MSTORE ADD SWAP2 ADD SWAP1 PUSH2 0x1A82 JUMP JUMPDEST SWAP1 DUP1 PUSH1 0x20 DUP4 MLOAD SWAP2 DUP3 DUP2 MSTORE ADD SWAP2 PUSH1 0x20 DUP1 DUP4 PUSH1 0x5 SHL DUP4 ADD ADD SWAP5 ADD SWAP3 PUSH0 SWAP2 JUMPDEST DUP4 DUP4 LT PUSH2 0x1AE9 JUMPI POP POP POP POP POP SWAP1 JUMP JUMPDEST SWAP1 SWAP2 SWAP3 SWAP4 SWAP5 PUSH1 0x20 DUP1 PUSH2 0x1B07 PUSH1 0x1 SWAP4 PUSH1 0x1F NOT DUP7 DUP3 SUB ADD DUP8 MSTORE DUP10 MLOAD PUSH2 0x194D JUMP JUMPDEST SWAP8 ADD SWAP4 ADD SWAP4 ADD SWAP2 SWAP4 SWAP3 SWAP1 PUSH2 0x1ADA JUMP JUMPDEST PUSH1 0x2 GT ISZERO PUSH2 0x1B20 JUMPI JUMP JUMPDEST PUSH4 0x4E487B71 PUSH1 0xE0 SHL PUSH0 MSTORE PUSH1 0x21 PUSH1 0x4 MSTORE PUSH1 0x24 PUSH0 REVERT JUMPDEST PUSH1 0x20 DUP2 ADD PUSH1 0x20 DUP3 MSTORE DUP3 MLOAD DUP1 SWAP2 MSTORE PUSH1 0x40 DUP3 ADD SWAP2 PUSH1 0x20 PUSH1 0x40 DUP4 PUSH1 0x5 SHL DUP4 ADD ADD SWAP5 ADD SWAP3 PUSH0 SWAP2 JUMPDEST DUP4 DUP4 LT PUSH2 0x1B66 JUMPI POP POP POP POP POP SWAP1 JUMP JUMPDEST SWAP1 SWAP2 SWAP3 SWAP4 SWAP5 PUSH1 0x20 DUP1 PUSH2 0x1C03 PUSH1 0x1 SWAP4 PUSH1 0x3F NOT DUP7 DUP3 SUB ADD DUP8 MSTORE DUP10 MLOAD SWAP1 PUSH1 0xC0 PUSH2 0x1BD2 PUSH2 0x1BC0 PUSH2 0x1BAE PUSH2 0x1B9E DUP7 MLOAD PUSH1 0xE0 DUP8 MSTORE PUSH1 0xE0 DUP8 ADD SWAP1 PUSH2 0x194D JUMP JUMPDEST DUP9 DUP8 ADD MLOAD DUP7 DUP3 SUB DUP11 DUP9 ADD MSTORE PUSH2 0x194D JUMP JUMPDEST PUSH1 0x40 DUP7 ADD MLOAD DUP6 DUP3 SUB PUSH1 0x40 DUP8 ADD MSTORE PUSH2 0x194D JUMP JUMPDEST PUSH1 0x60 DUP6 ADD MLOAD DUP5 DUP3 SUB PUSH1 0x60 DUP7 ADD MSTORE PUSH2 0x194D JUMP JUMPDEST SWAP3 PUSH1 0xFF PUSH1 0x80 DUP3 ADD MLOAD AND PUSH1 0x80 DUP5 ADD MSTORE PUSH1 0xA0 DUP2 ADD MLOAD PUSH2 0x1BEE DUP2 PUSH2 0x1B16 JUMP JUMPDEST PUSH1 0xA0 DUP5 ADD MSTORE ADD MLOAD SWAP1 PUSH1 0xC0 DUP2 DUP5 SUB SWAP2 ADD MSTORE PUSH2 0x194D JUMP JUMPDEST SWAP8 ADD SWAP4 ADD SWAP4 ADD SWAP2 SWAP4 SWAP3 SWAP1 PUSH2 0x1B57 JUMP JUMPDEST DUP1 SLOAD DUP3 LT ISZERO PUSH2 0x1834 JUMPI PUSH0 MSTORE PUSH1 0x5 PUSH1 0x20 PUSH0 KECCAK256 SWAP2 MUL ADD SWAP1 PUSH0 SWAP1 JUMP JUMPDEST SWAP4 PUSH2 0x1C7B SWAP1 PUSH2 0x1C6D PUSH1 0xFF SWAP6 PUSH2 0x1C5F PUSH2 0x1C89 SWAP7 PUSH2 0x1A26 SWAP13 SWAP11 SWAP7 PUSH2 0x1C4C DUP2 PUSH2 0x1B16 JUMP JUMPDEST DUP11 MSTORE PUSH1 0xE0 PUSH1 0x20 DUP12 ADD MSTORE PUSH1 0xE0 DUP11 ADD SWAP1 PUSH2 0x194D JUMP JUMPDEST SWAP1 DUP9 DUP3 SUB PUSH1 0x40 DUP11 ADD MSTORE PUSH2 0x194D JUMP JUMPDEST SWAP1 DUP7 DUP3 SUB PUSH1 0x60 DUP9 ADD MSTORE PUSH2 0x194D JUMP JUMPDEST SWAP1 DUP5 DUP3 SUB PUSH1 0x80 DUP7 ADD MSTORE PUSH2 0x194D JUMP JUMPDEST SWAP4 AND PUSH1 0xA0 DUP3 ADD MSTORE PUSH1 0xC0 DUP2 DUP5 SUB SWAP2 ADD MSTORE PUSH2 0x194D JUMP JUMPDEST DUP2 DUP2 LT PUSH2 0x1CA8 JUMPI POP POP JUMP JUMPDEST PUSH0 DUP2 SSTORE PUSH1 0x1 ADD PUSH2 0x1C9D JUMP JUMPDEST SWAP2 SWAP1 SWAP2 DUP3 MLOAD PUSH1 0x1 PUSH1 0x1 PUSH1 0x40 SHL SUB DUP2 GT PUSH2 0x469 JUMPI PUSH2 0x1CD0 DUP3 SLOAD PUSH2 0x1875 JUMP JUMPDEST PUSH1 0x1F DUP2 GT PUSH2 0x1D70 JUMPI JUMPDEST POP PUSH1 0x20 PUSH1 0x1F DUP3 GT PUSH1 0x1 EQ PUSH2 0x1D12 JUMPI DUP2 SWAP3 SWAP4 SWAP5 PUSH0 SWAP3 PUSH2 0x1D07 JUMPI JUMPDEST POP POP DUP2 PUSH1 0x1 SHL SWAP2 PUSH0 NOT SWAP1 PUSH1 0x3 SHL SHR NOT AND OR SWAP1 SSTORE JUMP JUMPDEST ADD MLOAD SWAP1 POP PUSH0 DUP1 PUSH2 0x1CF2 JUMP JUMPDEST PUSH1 0x1F NOT DUP3 AND SWAP1 DUP4 PUSH0 MSTORE DUP1 PUSH0 KECCAK256 SWAP2 PUSH0 JUMPDEST DUP2 DUP2 LT PUSH2 0x1D58 JUMPI POP SWAP6 DUP4 PUSH1 0x1 SWAP6 SWAP7 SWAP8 LT PUSH2 0x1D40 JUMPI JUMPDEST POP POP POP DUP2 SHL ADD SWAP1 SSTORE JUMP JUMPDEST ADD MLOAD PUSH0 NOT PUSH1 0xF8 DUP5 PUSH1 0x3 SHL AND SHR NOT AND SWAP1 SSTORE PUSH0 DUP1 DUP1 PUSH2 0x1D36 JUMP JUMPDEST SWAP2 SWAP3 PUSH1 0x20 PUSH1 0x1 DUP2 SWAP3 DUP7 DUP12 ADD MLOAD DUP2 SSTORE ADD SWAP5 ADD SWAP3 ADD PUSH2 0x1D21 JUMP JUMPDEST PUSH2 0x1D9B SWAP1 DUP4 PUSH0 MSTORE PUSH1 0x20 PUSH0 KECCAK256 PUSH1 0x1F DUP5 ADD PUSH1 0x5 SHR DUP2 ADD SWAP2 PUSH1 0x20 DUP6 LT PUSH2 0x1DA1 JUMPI JUMPDEST PUSH1 0x1F ADD PUSH1 0x5 SHR ADD SWAP1 PUSH2 0x1C9D JUMP JUMPDEST PUSH0 PUSH2 0x1CD9 JUMP JUMPDEST SWAP1 SWAP2 POP DUP2 SWAP1 PUSH2 0x1D8E JUMP JUMPDEST SWAP1 PUSH2 0x1DB5 DUP2 PUSH2 0x1B16 JUMP JUMPDEST PUSH1 0xFF DUP1 NOT DUP4 SLOAD AND SWAP2 AND OR SWAP1 SSTORE JUMP JUMPDEST PUSH1 0x6 PUSH1 0xC0 PUSH2 0x18E5 SWAP4 PUSH2 0x1DDF DUP2 MLOAD PUSH2 0x1DD9 DUP2 PUSH2 0x1B16 JUMP JUMPDEST DUP6 PUSH2 0x1DAB JUMP JUMPDEST PUSH2 0x1DF0 PUSH1 0x20 DUP3 ADD MLOAD PUSH1 0x1 DUP7 ADD PUSH2 0x1CB3 JUMP JUMPDEST PUSH2 0x1E01 PUSH1 0x40 DUP3 ADD MLOAD PUSH1 0x2 DUP7 ADD PUSH2 0x1CB3 JUMP JUMPDEST PUSH2 0x1E12 PUSH1 0x60 DUP3 ADD MLOAD PUSH1 0x3 DUP7 ADD PUSH2 0x1CB3 JUMP JUMPDEST PUSH2 0x1E23 PUSH1 0x80 DUP3 ADD MLOAD PUSH1 0x4 DUP7 ADD PUSH2 0x1CB3 JUMP JUMPDEST PUSH1 0xFF PUSH1 0xA0 DUP3 ADD MLOAD AND PUSH1 0xFF PUSH1 0x5 DUP7 ADD SWAP2 AND PUSH1 0xFF NOT DUP3 SLOAD AND OR SWAP1 SSTORE ADD MLOAD SWAP2 ADD PUSH2 0x1CB3 JUMP JUMPDEST DUP1 SLOAD SWAP1 PUSH0 DUP2 SSTORE DUP2 PUSH2 0x1E54 JUMPI POP POP JUMP JUMPDEST PUSH0 MSTORE PUSH1 0x20 PUSH0 KECCAK256 SWAP1 DUP2 ADD SWAP1 JUMPDEST DUP2 DUP2 LT PUSH2 0x1E6A JUMPI POP POP JUMP JUMPDEST DUP1 PUSH2 0x1E77 PUSH1 0x1 SWAP3 SLOAD PUSH2 0x1875 JUMP JUMPDEST DUP1 PUSH2 0x1E84 JUMPI JUMPDEST POP ADD PUSH2 0x1E5F JUMP JUMPDEST PUSH1 0x1F DUP2 GT DUP4 EQ PUSH2 0x1E99 JUMPI POP PUSH0 DUP2 SSTORE JUMPDEST PUSH0 PUSH2 0x1E7D JUMP JUMPDEST PUSH2 0x1EB5 SWAP1 DUP3 PUSH0 MSTORE DUP4 PUSH1 0x1F PUSH1 0x20 PUSH0 KECCAK256 SWAP3 ADD PUSH1 0x5 SHR DUP3 ADD SWAP2 ADD PUSH2 0x1C9D JUMP JUMPDEST DUP1 PUSH0 MSTORE PUSH0 PUSH1 0x20 DUP2 KECCAK256 DUP2 DUP4 SSTORE SSTORE PUSH2 0x1E93 JUMP JUMPDEST SWAP1 PUSH1 0x1 PUSH1 0x40 SHL DUP2 GT PUSH2 0x469 JUMPI DUP2 SLOAD SWAP2 DUP2 DUP2 SSTORE DUP3 DUP3 LT PUSH2 0x1EE4 JUMPI POP POP POP JUMP JUMPDEST PUSH0 MSTORE PUSH1 0x20 PUSH0 KECCAK256 SWAP2 DUP3 ADD SWAP2 ADD JUMPDEST DUP2 DUP2 LT PUSH2 0x1EFB JUMPI POP POP JUMP JUMPDEST DUP1 PUSH2 0x1F08 PUSH1 0x1 SWAP3 SLOAD PUSH2 0x1875 JUMP JUMPDEST DUP1 PUSH2 0x1F15 JUMPI JUMPDEST POP ADD PUSH2 0x1EF0 JUMP JUMPDEST PUSH1 0x1F DUP2 GT DUP4 EQ PUSH2 0x1F2A JUMPI POP PUSH0 DUP2 SSTORE JUMPDEST PUSH0 PUSH2 0x1F0E JUMP JUMPDEST PUSH2 0x1F46 SWAP1 DUP3 PUSH0 MSTORE DUP4 PUSH1 0x1F PUSH1 0x20 PUSH0 KECCAK256 SWAP3 ADD PUSH1 0x5 SHR DUP3 ADD SWAP2 ADD PUSH2 0x1C9D JUMP JUMPDEST DUP1 PUSH0 MSTORE PUSH0 PUSH1 0x20 DUP2 KECCAK256 DUP2 DUP4 SSTORE SSTORE PUSH2 0x1F24 JUMP JUMPDEST SWAP1 DUP2 SLOAD PUSH2 0x1F63 DUP2 PUSH2 0x1A29 JUMP JUMPDEST SWAP3 PUSH2 0x1F71 PUSH1 0x40 MLOAD SWAP5 DUP6 PUSH2 0x1777 JUMP JUMPDEST DUP2 DUP5 MSTORE PUSH1 0x20 DUP5 ADD SWAP1 PUSH0 MSTORE PUSH1 0x20 PUSH0 KECCAK256 PUSH0 SWAP2 JUMPDEST DUP4 DUP4 LT PUSH2 0x1F8F JUMPI POP POP POP POP JUMP JUMPDEST PUSH1 0x1 PUSH1 0x20 DUP2 SWAP3 PUSH2 0x1F9E DUP6 PUSH2 0x18AD JUMP JUMPDEST DUP2 MSTORE ADD SWAP3 ADD SWAP3 ADD SWAP2 SWAP1 PUSH2 0x1F82 JUMP JUMPDEST PUSH0 SWAP3 SWAP2 DUP2 SLOAD SWAP2 PUSH2 0x1FBB DUP4 PUSH2 0x1875 JUMP JUMPDEST SWAP3 PUSH1 0x1 DUP2 AND SWAP1 DUP2 ISZERO PUSH2 0x2003 JUMPI POP PUSH1 0x1 EQ PUSH2 0x1FD4 JUMPI POP POP POP JUMP JUMPDEST SWAP1 SWAP2 SWAP3 SWAP4 POP PUSH0 MSTORE PUSH1 0x20 PUSH0 KECCAK256 PUSH0 SWAP1 JUMPDEST DUP4 DUP3 LT PUSH2 0x1FEF JUMPI POP POP ADD SWAP1 JUMP JUMPDEST PUSH1 0x1 DUP2 PUSH1 0x20 SWAP3 SLOAD DUP5 DUP7 ADD MSTORE ADD SWAP2 ADD SWAP1 PUSH2 0x1FE2 JUMP JUMPDEST PUSH1 0xFF NOT AND DUP4 MSTORE POP POP DUP2 ISZERO ISZERO SWAP1 SWAP2 MUL ADD SWAP2 POP JUMP JUMPDEST ISZERO PUSH2 0x201D JUMPI JUMP JUMPDEST PUSH1 0x40 MLOAD PUSH3 0x461BCD PUSH1 0xE5 SHL DUP2 MSTORE PUSH1 0x20 PUSH1 0x4 DUP3 ADD MSTORE PUSH1 0xA PUSH1 0x24 DUP3 ADD MSTORE PUSH10 0x125B9D985B1A59081251 PUSH1 0xB2 SHL PUSH1 0x44 DUP3 ADD MSTORE PUSH1 0x64 SWAP1 REVERT JUMPDEST PUSH0 NOT DUP2 EQ PUSH2 0x205D JUMPI PUSH1 0x1 ADD SWAP1 JUMP JUMPDEST PUSH4 0x4E487B71 PUSH1 0xE0 SHL PUSH0 MSTORE PUSH1 0x11 PUSH1 0x4 MSTORE PUSH1 0x24 PUSH0 REVERT JUMPDEST SWAP1 PUSH2 0x207B DUP3 PUSH2 0x1A29 JUMP JUMPDEST PUSH2 0x2088 PUSH1 0x40 MLOAD SWAP2 DUP3 PUSH2 0x1777 JUMP JUMPDEST DUP3 DUP2 MSTORE DUP1 SWAP3 PUSH2 0x2099 PUSH1 0x1F NOT SWAP2 PUSH2 0x1A29 JUMP JUMPDEST ADD SWAP1 PUSH0 JUMPDEST DUP3 DUP2 LT PUSH2 0x20A9 JUMPI POP POP POP JUMP JUMPDEST PUSH1 0x20 SWAP1 PUSH1 0x40 MLOAD PUSH2 0x20B8 DUP2 PUSH2 0x1725 JUMP JUMPDEST PUSH1 0x60 DUP2 MSTORE PUSH1 0x60 DUP4 DUP3 ADD MSTORE PUSH1 0x60 PUSH1 0x40 DUP3 ADD MSTORE PUSH1 0x60 DUP1 DUP3 ADD MSTORE PUSH0 PUSH1 0x80 DUP3 ADD MSTORE PUSH0 PUSH1 0xA0 DUP3 ADD MSTORE PUSH1 0x60 PUSH1 0xC0 DUP3 ADD MSTORE DUP3 DUP3 DUP6 ADD ADD MSTORE ADD PUSH2 0x209D JUMP JUMPDEST SWAP1 PUSH1 0x40 MLOAD PUSH2 0x20FB DUP2 PUSH2 0x1725 JUMP JUMPDEST PUSH1 0xC0 PUSH2 0x216B PUSH1 0x6 DUP4 SWAP6 PUSH1 0xFF DUP2 SLOAD AND PUSH2 0x2112 DUP2 PUSH2 0x1B16 JUMP JUMPDEST DUP6 MSTORE PUSH2 0x2120 PUSH1 0x1 DUP3 ADD PUSH2 0x18AD JUMP JUMPDEST PUSH1 0x20 DUP7 ADD MSTORE PUSH2 0x2131 PUSH1 0x2 DUP3 ADD PUSH2 0x18AD JUMP JUMPDEST PUSH1 0x40 DUP7 ADD MSTORE PUSH2 0x2142 PUSH1 0x3 DUP3 ADD PUSH2 0x18AD JUMP JUMPDEST PUSH1 0x60 DUP7 ADD MSTORE PUSH2 0x2153 PUSH1 0x4 DUP3 ADD PUSH2 0x18AD JUMP JUMPDEST PUSH1 0x80 DUP7 ADD MSTORE PUSH1 0xFF PUSH1 0x5 DUP3 ADD SLOAD AND PUSH1 0xA0 DUP7 ADD MSTORE ADD PUSH2 0x18AD JUMP JUMPDEST SWAP2 ADD MSTORE JUMP JUMPDEST DUP1 MLOAD DUP3 LT ISZERO PUSH2 0x1834 JUMPI PUSH1 0x20 SWAP2 PUSH1 0x5 SHL ADD ADD SWAP1 JUMP INVALID LOG2 PUSH5 0x6970667358 0x22 SLT KECCAK256 MCOPY SWAP8 SWAP12 SAR CALLDATASIZE INVALID JUMPDEST INVALID 0xAE SWAP9 0x1F 0xD1 PUSH12 0x5A5A8EC83C91F8F013EB2D60 SWAP16 SELFDESTRUCT BLOCKHASH 0x22 PUSH8 0x9A664736F6C6343 STOP ADDMOD SHL STOP CALLER "},"methodIdentifiers":{"addBatchProduction(string,string,string,uint8,string[],string)":"e521d586","addCdobId(string,string)":"c72c7314","addObatPbf(string,string,string,string,uint8,string)":"d33d8a13","addObatRetailer(string,string,string,string,uint8,string)":"4bea11a0","getAllObatPbfByInstance(string)":"f07b2c7a","getAllObatPbfReadyStock()":"906ce017","getAllObatRetailerByInstance(string)":"e1336da5","getObatDetail(string)":"d6582672","getObatIpfsByBatchName(string)":"61009862","getObatProduction(string)":"8d57ba0a","obatDetailById(string)":"c8e3b172","obatIpfsByBatchName(string,uint256)":"3a16d05a","obatPbfByBatchName(string)":"bf09451a","obatProductionById(string,uint256)":"ba2ffe4c","obatRetailerByBatchName(string)":"bd2dd019","setObatDetail(string,string,string,string[],string[],string,string,address,uint8,string,string)":"8b8df23e","updateBatchProduction(string,string,uint8)":"871811f1","updateObatIpfs(string,string[])":"5345584e","updateObatPbf(string,uint8)":"c2cf83bc"}}}}}