{"contracts/ObatTradisional.sol":{"ObatTradisional":{"abi":[{"inputs":[],"stateMutability":"nonpayable","type":"constructor"},{"anonymous":false,"inputs":[{"indexed":false,"internalType":"string","name":"nieNumber","type":"string"},{"indexed":false,"internalType":"uint256","name":"timestampApprove","type":"uint256"},{"indexed":false,"internalType":"string","name":"namaProduk","type":"string"}],"name":"evt_nieApproved","type":"event"},{"anonymous":false,"inputs":[{"indexed":false,"internalType":"string","name":"obatId","type":"string"},{"indexed":false,"internalType":"uint256","name":"timestampRequested","type":"uint256"},{"indexed":false,"internalType":"string","name":"namaProduk","type":"string"}],"name":"evt_nieRequested","type":"event"},{"anonymous":false,"inputs":[{"indexed":false,"internalType":"string","name":"namaProduk","type":"string"},{"indexed":false,"internalType":"string","name":"factoryInstanceNames","type":"string"},{"indexed":false,"internalType":"string","name":"factoryUserNames","type":"string"},{"indexed":false,"internalType":"address","name":"factoryAddresses","type":"address"},{"indexed":false,"internalType":"string","name":"kemasan","type":"string"},{"indexed":false,"internalType":"enum ObatTradisional.en_tipeProduk","name":"en_tipeProduk","type":"uint8"}],"name":"evt_obatCreated","type":"event"},{"inputs":[{"internalType":"uint256","name":"","type":"uint256"}],"name":"allObatData","outputs":[{"internalType":"string","name":"obatId","type":"string"},{"internalType":"string","name":"merk","type":"string"},{"internalType":"string","name":"namaProduk","type":"string"},{"internalType":"string","name":"kemasan","type":"string"},{"internalType":"enum ObatTradisional.en_tipeProduk","name":"tipeProduk","type":"uint8"},{"internalType":"enum ObatTradisional.en_obatStatus","name":"obatStatus","type":"uint8"},{"internalType":"uint256","name":"nieRequestDate","type":"uint256"},{"internalType":"uint256","name":"nieApprovalDate","type":"uint256"},{"internalType":"string","name":"nieNumber","type":"string"}],"stateMutability":"view","type":"function"},{"inputs":[{"internalType":"string","name":"_obatId","type":"string"},{"internalType":"address","name":"_bpomAddr","type":"address"},{"internalType":"string","name":"_bpomInstanceName","type":"string"},{"internalType":"string","name":"_bpomUserName","type":"string"},{"internalType":"string","name":"_nieNumber","type":"string"}],"name":"approveNie","outputs":[],"stateMutability":"nonpayable","type":"function"},{"inputs":[{"internalType":"string","name":"","type":"string"}],"name":"bpomAddresses","outputs":[{"internalType":"address","name":"","type":"address"}],"stateMutability":"view","type":"function"},{"inputs":[{"internalType":"string","name":"","type":"string"}],"name":"bpomInstanceNames","outputs":[{"internalType":"string","name":"","type":"string"}],"stateMutability":"view","type":"function"},{"inputs":[{"internalType":"string","name":"","type":"string"}],"name":"bpomUserNames","outputs":[{"internalType":"string","name":"","type":"string"}],"stateMutability":"view","type":"function"},{"inputs":[{"internalType":"string","name":"_obatId","type":"string"},{"internalType":"string","name":"_merk","type":"string"},{"internalType":"string","name":"_namaProduk","type":"string"},{"internalType":"string[]","name":"_klaim","type":"string[]"},{"internalType":"string","name":"_kemasan","type":"string"},{"internalType":"string[]","name":"_komposisi","type":"string[]"},{"internalType":"address","name":"_factoryAddr","type":"address"},{"internalType":"string","name":"_factoryInstanceName","type":"string"},{"internalType":"string","name":"_factoryUserName","type":"string"},{"internalType":"enum ObatTradisional.en_tipeProduk","name":"_tipeProduk","type":"uint8"}],"name":"createObat","outputs":[],"stateMutability":"nonpayable","type":"function"},{"inputs":[{"internalType":"string","name":"","type":"string"}],"name":"factoryAddresses","outputs":[{"internalType":"address","name":"","type":"address"}],"stateMutability":"view","type":"function"},{"inputs":[{"internalType":"string","name":"","type":"string"}],"name":"factoryInstanceNames","outputs":[{"internalType":"string","name":"","type":"string"}],"stateMutability":"view","type":"function"},{"inputs":[{"internalType":"string","name":"","type":"string"}],"name":"factoryUserNames","outputs":[{"internalType":"string","name":"","type":"string"}],"stateMutability":"view","type":"function"},{"inputs":[],"name":"getListAllObat","outputs":[{"internalType":"string[]","name":"","type":"string[]"},{"internalType":"string[]","name":"","type":"string[]"},{"internalType":"string[]","name":"","type":"string[]"},{"internalType":"uint8[]","name":"","type":"uint8[]"}],"stateMutability":"view","type":"function"},{"inputs":[{"internalType":"string","name":"_factoryInstanceName","type":"string"}],"name":"getListObatByFactory","outputs":[{"internalType":"string[]","name":"","type":"string[]"},{"internalType":"string[]","name":"","type":"string[]"},{"internalType":"uint8[]","name":"","type":"uint8[]"},{"internalType":"uint8[]","name":"","type":"uint8[]"}],"stateMutability":"view","type":"function"},{"inputs":[{"internalType":"string","name":"_obatId","type":"string"}],"name":"getListObatById","outputs":[{"components":[{"internalType":"string","name":"obatId","type":"string"},{"internalType":"string","name":"merk","type":"string"},{"internalType":"string","name":"namaProduk","type":"string"},{"internalType":"string[]","name":"klaim","type":"string[]"},{"internalType":"string","name":"kemasan","type":"string"},{"internalType":"string[]","name":"komposisi","type":"string[]"},{"internalType":"enum ObatTradisional.en_tipeProduk","name":"tipeProduk","type":"uint8"},{"internalType":"enum ObatTradisional.en_obatStatus","name":"obatStatus","type":"uint8"},{"internalType":"uint256","name":"nieRequestDate","type":"uint256"},{"internalType":"uint256","name":"nieApprovalDate","type":"uint256"},{"internalType":"string","name":"nieNumber","type":"string"}],"internalType":"struct ObatTradisional.st_obatDetails","name":"obatDetails","type":"tuple"},{"internalType":"address","name":"factoryAddress","type":"address"},{"internalType":"string","name":"factoryInstanceName","type":"string"},{"internalType":"string","name":"factoryUserName","type":"string"},{"internalType":"address","name":"bpomAddress","type":"address"},{"internalType":"string","name":"bpomInstanceName","type":"string"},{"internalType":"string","name":"bpomUserName","type":"string"}],"stateMutability":"view","type":"function"},{"inputs":[{"internalType":"string","name":"","type":"string"}],"name":"obatDetailsById","outputs":[{"internalType":"string","name":"obatId","type":"string"},{"internalType":"string","name":"merk","type":"string"},{"internalType":"string","name":"namaProduk","type":"string"},{"internalType":"string","name":"kemasan","type":"string"},{"internalType":"enum ObatTradisional.en_tipeProduk","name":"tipeProduk","type":"uint8"},{"internalType":"enum ObatTradisional.en_obatStatus","name":"obatStatus","type":"uint8"},{"internalType":"uint256","name":"nieRequestDate","type":"uint256"},{"internalType":"uint256","name":"nieApprovalDate","type":"uint256"},{"internalType":"string","name":"nieNumber","type":"string"}],"stateMutability":"view","type":"function"},{"inputs":[],"name":"owner","outputs":[{"internalType":"address","name":"","type":"address"}],"stateMutability":"view","type":"function"},{"inputs":[{"internalType":"string","name":"_obatId","type":"string"}],"name":"requestNie","outputs":[],"stateMutability":"nonpayable","type":"function"},{"inputs":[{"internalType":"address","name":"","type":"address"}],"name":"userRoles","outputs":[{"internalType":"enum ObatTradisional.en_roles","name":"","type":"uint8"}],"stateMutability":"view","type":"function"}],"evm":{"bytecode":{"linkReferences":{},"object":"60808060405234602757600080546001600160a01b031916331790556127e4908161002d8239f35b600080fdfe6080604052600436101561001257600080fd5b60003560e01c80631c0b2030146118a05780631dce6e581461166357806325606bc31461120157806327321837146111b0578063349a7a721461115c5780634b87568a146110f457806374d5e100146110aa5780637aad01bd14610fdb5780637ade51dd14610a5f5780638da5cb5b14610a365780639d4edfe1146108c05780639d9315c21461086c578063a812536d14610818578063bc4a6f6c146106dc578063d9d284dc146101575763f1022862146100cc57600080fd5b34610152576020366003190112610152576004356001600160401b0381116101525761013361013a61011d602061010a61014e953690600401611945565b816040519382858094519384920161199b565b8101600681520301902060405192838092611ac7565b0382611924565b6040519182916020835260208301906119be565b0390f35b600080fd5b3461015257610140366003190112610152576004356001600160401b03811161015257610188903690600401611945565b6024356001600160401b038111610152576101a7903690600401611945565b6044356001600160401b038111610152576101c6903690600401611945565b916064356001600160401b038111610152576101e6903690600401611c10565b916084356001600160401b03811161015257610206903690600401611945565b9060a4356001600160401b03811161015257610226903690600401611c10565b9060c4359360018060a01b0385168095036101525760e4356001600160401b0381116101525761025a903690600401611945565b90610104356001600160401b0381116101525761027b903690600401611945565b93610124359760028910156101525733600052600260205260ff6040600020541660048110156106c6576102af9015611e5d565b604051946102bc86611908565b8386526020860152896040860152606085015285608085015260a08401526102e78760c08501611e11565b600060e08401526000610100840152600061012084015260209260405161030e8582611924565b60008152610140820152604051906103438184519387818188019661033481838a61199b565b81016003815203019020611eb3565b600154600160401b8110156105f8578060016103629201600155611bc4565b9190916106b05761037291611eb3565b6040518481845161038481838761199b565b81016007815203019020876bffffffffffffffffffffffff60a01b825416179055604051848184516103b781838761199b565b81016008815203019020908351926001600160401b0384116105f857826103df879454611a8d565b601f8111610680575b508394601f8111600114610619578061041b9161042f9760009161060e575b508160011b916000199060031b1c19161790565b90555b60405193849283925192839161199b565b8101600981520301902083516001600160401b0381116105f8576104538254611a8d565b601f81116105bd575b5083601f821160011461052257946104e6610507957f634ef467423c7b2abbaf26097bdddac4a495d36be69ca3d1555484b46e7899c79b99956104d99b99956104c2866104f4976105129c60009161051757508160011b916000199060031b1c19161790565b90555b6040519b8c9b60c08d5260c08d01906119be565b918b8303908c01526119be565b9088820360408a01526119be565b91606087015285820360808701526119be565b9160a0840190611a73565b0390a1005b905087015138610407565b601f1982169083600052856000209160005b8181106105a65750957f634ef467423c7b2abbaf26097bdddac4a495d36be69ca3d1555484b46e7899c79b99956104d99b99956001866105129b966104e6966104f4996105079d1061058d575b5050811b0190556104c5565b88015160001960f88460031b161c191690553880610581565b91928760018192868c015181550194019201610534565b6105e8908360005285600020601f840160051c8101918785106105ee575b601f0160051c0190611e1d565b8961045c565b90915081906105db565b634e487b7160e01b600052604160045260246000fd5b90508801518f610407565b601f1981169582600052856000209660005b818110610668575096829160019361042f991061064f575b5050811b01905561041e565b89015160001960f88460031b161c191690558e80610643565b828a015189556001909801978a97928301920161062b565b6106aa908260005285600020601f880160051c8101918789106105ee57601f0160051c0190611e1d565b8c6103e8565b634e487b7160e01b600052600060045260246000fd5b634e487b7160e01b600052602160045260246000fd5b34610152576020366003190112610152576004356001600160401b0381116101525761070c903690600401611945565b33600052600260205260ff6040600020541660048110156106c6576107319015611e5d565b6040516020818351610746818385880161199b565b8101600381520301902090600682019160ff835460081c1660038110156106c6576107b6576105126002927f854681db4b5190ceaacfe5894893f2e8d49873d9b8ed6c72b5618047cb3924e59442600785015561010061ff00198254161790556040519384930190429084611e34565b60405162461bcd60e51b815260206004820152603460248201527f4f62617420547261646973696f6e616c20737461747573206d75737420626520604482015273696e206c6f63616c2070726f64756374696f6e2160601b6064820152608490fd5b34610152576020366003190112610152576004356001600160401b0381116101525761013361013a610856602061010a61014e953690600401611945565b8101600881520301902060405192838092611ac7565b34610152576020366003190112610152576004356001600160401b0381116101525761013361013a6108aa602061010a61014e953690600401611945565b8101600581520301902060405192838092611ac7565b34610152576000366003190112610152576001546108dd81611d6b565b6108e682611d21565b916108f081611d21565b6108f982611d21565b9160005b818110610952576109288661014e8761094488610936896040519788976080895260808901906119e3565b9087820360208901526119e3565b9085820360408701526119e3565b908382036060850152611a3c565b60ff600661095f83611bc4565b50015460081c169060038210156106c65760019161097d8288611d9d565b5261013361099a61098d83611bc4565b5060405192838092611ac7565b6109a48289611d9d565b526109af8188611d9d565b5060026109cf6109be83611bc4565b506101336040518094819301611ac7565b6109d98286611d9d565b526109e48185611d9d565b50610133610a1a610a0660206109f985611bc4565b5060405192838092611c8e565b600881520301902060405192838092611ac7565b610a248287611d9d565b52610a2f8186611d9d565b50016108fd565b34610152576000366003190112610152576000546040516001600160a01b039091168152602090f35b346101525760a0366003190112610152576004356001600160401b03811161015257610a8f903690600401611945565b6024356001600160a01b0381168103610152576044356001600160401b03811161015257610ac1903690600401611945565b916064356001600160401b03811161015257610ae1903690600401611945565b926084356001600160401b03811161015257610b01903690600401611945565b9133600052600260205260ff6040600020541660048110156106c657600203610f96576040519181519260208181850195610b3d81838961199b565b81016003815203019020946006860160ff815460081c1660038110156106c657600103610f3e5742600888015561020061ff00198254161790556009860185516001600160401b0381116105f857610b958254611a8d565b601f8111610f0c575b506020601f8211600114610ea6579080610bcd92600091610e9b57508160011b916000199060031b1c19161790565b90555b6040516020818551610be381838a61199b565b810160048152030190209060018060a01b03166bffffffffffffffffffffffff60a01b8254161790556040516020818451610c1f81838961199b565b81016005815203019020908051906001600160401b0382116105f857610c458354611a8d565b601f8111610e69575b50602090601f8311600114610dfa578260209593610c8997959361041b93600092610def575b50508160011b916000199060031b1c19161790565b8101600681520301902083516001600160401b0381116105f857610cad8254611a8d565b601f8111610dbd575b506020601f8211600114610d2e5791610d10826002969593610512957fd40bb83004f253a064fc3f847543dfacdf7bcf19bffefb66451b4fa5852a42f499600092610d235750508160011b916000199060031b1c19161790565b90555b6040519384930190429084611e34565b015190508980610c74565b601f1982169583600052816000209660005b818110610da55750927fd40bb83004f253a064fc3f847543dfacdf7bcf19bffefb66451b4fa5852a42f49761051295936001938360029a999710610d8c575b505050811b019055610d13565b015160001960f88460031b161c19169055888080610d7f565b83830151895560019098019760209384019301610d40565b610de990836000526020600020601f840160051c810191602085106105ee57601f0160051c0190611e1d565b85610cb6565b015190508b80610c74565b90601f1983169184600052816000209260005b818110610e51575092600192859260209896610c899a989610610e38575b505050811b01905561041e565b015160001960f88460031b161c191690558a8080610e2b565b92936020600181928786015181550195019301610e0d565b610e9590846000526020600020601f850160051c810191602086106105ee57601f0160051c0190611e1d565b88610c4e565b90508801518b610407565b601f1982169083600052806000209160005b8a828210610ef45750509083600194939210610edb575b5050811b019055610bd0565b89015160001960f88460031b161c191690558a80610ecf565b60018495602093958493015181550194019201610eb8565b610f3890836000526020600020601f840160051c810191602085106105ee57601f0160051c0190611e1d565b89610b9e565b60405162461bcd60e51b815260206004820152602a60248201527f4f62617420547261646973696f6e616c20737461747573206d757374206265206044820152697265717565737465642160b01b6064820152608490fd5b60405162461bcd60e51b815260206004820152601e60248201527f416363657373207265737472696374656420746f2042504f4d20726f6c6500006044820152606490fd5b34610152576020366003190112610152576004356001548110156101525761100290611bc4565b506040519061101c826110158184611ac7565b0383611924565b61014e60096040519261103d846110368160018501611ac7565b0385611924565b60405194611059866110528160028601611ac7565b0387611924565b6040519061106e826110158160048701611ac7565b6006830154906007840154926110936008860154956110526040518099819301611ac7565b60405198899860ff808660081c169516938a611b4a565b34610152576020366003190112610152576004356001600160a01b0381169081900361015257600052600260205260ff6040600020541660405160048210156106c6576020918152f35b34610152576020366003190112610152576004356001600160401b038111610152576111266020913690600401611945565b8161113a604051928381519384920161199b565b600790820190815281900382019020546040516001600160a01b039091168152f35b34610152576020366003190112610152576004356001600160401b0381116101525761013361013a61119a602061010a61014e953690600401611945565b8101600981520301902060405192838092611ac7565b34610152576020366003190112610152576004356001600160401b03811161015257602061010a6111e5923690600401611945565b810160038152030190206040519061101c826110158184611ac7565b34610152576020366003190112610152576004356001600160401b03811161015257611231903690600401611945565b606061014060405161124281611908565b82815282602082015282604082015282808201528260808201528260a0820152600060c0820152600060e08201526000610100820152600061012082015201526040516112ad8251916020818186019461129d81838861199b565b8101600381520301902054611a8d565b1561161e5760405160208184516112c581838761199b565b81016003815203019020604051916112dc83611908565b6040516112ed816101338186611ac7565b8352604051611303816101338160018701611ac7565b602084015260405161131c816101338160028701611ac7565b604084015261132d60038301611db1565b6060840152604051611346816101338160048701611ac7565b608084015261135760058301611db1565b60a084015260ff600683015461137282821660c08701611e11565b60081c169160038310156106c657610140946114be6115fd6114646115ef6114db9660096113ce6116109861014e9b60e08e01528c61010060078301549101528c61012060088301549101526101336040518094819301611ac7565b8b8b01526114316114e26114c560206040518a516113ed81838961199b565b81019060078252828160018060a01b0393030190205416946114388b8360405180925161141b81838861199b565b8101600881520301902060405196878092611ac7565b0386611924565b61146b8b8360405180925161144e81838861199b565b81016009815203019020604051998a8092611ac7565b0389611924565b6040518b5161147b81838561199b565b81019060048252838160018060a01b03930301902054169a61041e604051848184516114a881838961199b565b810160058152030190206040519c8d8092611ac7565b038c611924565b810160068152030190206040519a8b8092611ac7565b038a611924565b6115dc604051809d819d60e0835261158861157161155a61154561152e611517865161016060e08b01526102408a01906119be565b602087015189820360df19016101008b01526119be565b604086015188820360df19016101208a01526119be565b606085015187820360df1901878901526119e3565b608084015186820360df19016101608801526119be565b60a083015185820360df19016101808701526119e3565b9261159c60c08301516101a0830190611a73565b6115af60e08301516101c0830190611a80565b6101008201516101e08201526101208201516102009091015201518d820360df19016102208f01526119be565b9160208c01528a820360408c01526119be565b9088820360608a01526119be565b91608087015285820360a08701526119be565b9083820360c08501526119be565b60405162461bcd60e51b815260206004820152601b60248201527f4e6f206461746120666f756e64207769746820746869732049442e00000000006044820152606490fd5b34610152576020366003190112610152576004356001600160401b03811161015257611693903690600401611945565b60015460208201916000805b83811061183057506116b081611d21565b926116ba82611d21565b906116cd6116c784611d6b565b93611d6b565b93600096875b83811061170c576109288861014e896109448a6116fe8b6040519788976080895260808901906119e3565b908582036040870152611a3c565b61171a60206109f983611bc4565b600881520301902060405161174581611737602082018095611c8e565b03601f198101835282611924565b5190206040516020810190611774602082885161176381878b61199b565b81010301601f198101835282611924565b51902014611785575b6001016116d3565b9761013361179561098d8b611bc4565b61179f828a611d9d565b526117aa8189611d9d565b5060026117b96109be8b611bc4565b6117c38287611d9d565b526117ce8186611d9d565b5060ff60066117dc8b611bc4565b50015460081c1660038110156106c6576117f68288611d9d565b5260ff60066118048b611bc4565b5001541660028110156106c65781611828916118226001948b611d9d565b52611cfc565b98905061177d565b61183e60206109f983611bc4565b600881520301902060405161185b81611737602082018095611c8e565b519020604051602081019061187b602082846117638c8b5192839161199b565b5190201461188c575b60010161169f565b90611898600191611cfc565b919050611884565b34610152576020366003190112610152576004356001600160401b038111610152576118d26020913690600401611945565b816118e6604051928381519384920161199b565b600490820190815281900382019020546040516001600160a01b039091168152f35b61016081019081106001600160401b038211176105f857604052565b90601f801991011681019081106001600160401b038211176105f857604052565b81601f82011215610152578035906001600160401b0382116105f85760405192611979601f8401601f191660200185611924565b8284526020838301011161015257816000926020809301838601378301015290565b60005b8381106119ae5750506000910152565b818101518382015260200161199e565b906020916119d78151809281855285808601910161199b565b601f01601f1916010190565b9080602083519182815201916020808360051b8301019401926000915b838310611a0f57505050505090565b9091929394602080611a2d600193601f1986820301875289516119be565b97019301930191939290611a00565b906020808351928381520192019060005b818110611a5a5750505090565b825160ff16845260209384019390920191600101611a4d565b9060028210156106c65752565b9060038210156106c65752565b90600182811c92168015611abd575b6020831014611aa757565b634e487b7160e01b600052602260045260246000fd5b91607f1691611a9c565b60009291815491611ad783611a8d565b8083529260018116908115611b2d5750600114611af357505050565b60009081526020812093945091925b838310611b13575060209250010190565b600181602092949394548385870101520191019190611b02565b915050602093945060ff929192191683830152151560051b010190565b9591611bc19997946115ef611ba995611b86611b9494611b78611b9f979b9e9b6101208e81815201906119be565b8c810360208e0152906119be565b908a820360408c01526119be565b976080870190611a73565b60a0850190611a80565b60c083015260e08201526101008184039101526119be565b90565b600154811015611be3576001600052600a602060002091020190600090565b634e487b7160e01b600052603260045260246000fd5b6001600160401b0381116105f85760051b60200190565b9080601f83011215610152578135611c2781611bf9565b92611c356040519485611924565b81845260208085019260051b820101918383116101525760208201905b838210611c6157505050505090565b81356001600160401b03811161015257602091611c8387848094880101611945565b815201910190611c52565b60009291815491611c9e83611a8d565b9260018116908115611ce95750600114611cb757505050565b909192935060005260206000206000905b838210611cd55750500190565b600181602092548486015201910190611cc8565b60ff191683525050811515909102019150565b6000198114611d0b5760010190565b634e487b7160e01b600052601160045260246000fd5b90611d2b82611bf9565b611d386040519182611924565b8281528092611d49601f1991611bf9565b019060005b828110611d5a57505050565b806060602080938501015201611d4e565b90611d7582611bf9565b611d826040519182611924565b8281528092611d93601f1991611bf9565b0190602036910137565b8051821015611be35760209160051b010190565b908154611dbd81611bf9565b92611dcb6040519485611924565b818452602084019060005260206000206000915b838310611dec5750505050565b600160208192604051611e03816101338189611ac7565b815201920192019190611ddf565b60028210156106c65752565b818110611e28575050565b60008155600101611e1d565b611e4a611bc194926060835260608301906119be565b9260208201526040818403910152611ac7565b15611e6457565b60405162461bcd60e51b815260206004820152602160248201527f416363657373207265737472696374656420746f20466163746f727920726f6c6044820152606560f81b6064820152608490fd5b909182519283516001600160401b0381116105f857611ed28454611a8d565b601f811161277c575b50602094601f821160011461271757611f0f9293949582916000926121755750508160011b916000199060031b1c19161790565b83555b6001830160208201518051906001600160401b0382116105f857611f368354611a8d565b601f81116126e5575b50602090601f831160011461267e57611f709291600091836121755750508160011b916000199060031b1c19161790565b90555b6002830160408201518051906001600160401b0382116105f857611f978354611a8d565b601f811161264c575b50602090601f83116001146125e557611fd19291600091836121755750508160011b916000199060031b1c19161790565b90555b600383016060820151805190600160401b82116105f8578254828455808310612567575b50602001916000526020600020916000905b82821061245a57505050506004830160808201518051906001600160401b0382116105f8576120398354611a8d565b601f8111612428575b50602090601f83116001146123c1576120739291600091836121755750508160011b916000199060031b1c19161790565b90555b6005830160a0820151805190600160401b82116105f8578254828455808310612343575b50602001916000526020600020916000905b828210612236575050505060c0810151926006810160028510156106c65760009460ff8019835416911617815560e0830151600381101561222257916009916101409361ff0082549160081b169061ff0019161790556101008401516007820155610120840151600882015501910151928351906001600160401b03821161220e576121388354611a8d565b601f81116121de575b50602090601f83116001146121805790612171939495836121755750508160011b916000199060031b1c19161790565b9055565b015190503880610c74565b90601f198316848352818320925b8181106121c6575095836001959697106121ad575b505050811b019055565b015160001960f88460031b161c191690553880806121a3565b9192602060018192868b01518155019401920161218e565b6122089084835260208320601f850160051c810191602086106105ee57601f0160051c0190611e1d565b38612141565b634e487b7160e01b81526041600452602490fd5b634e487b7160e01b86526021600452602486fd5b80518051906001600160401b0382116105f8576122538654611a8d565b601f8111612311575b50602090601f83116001146122a45792612295836001959460209487966000926121755750508160011b916000199060031b1c19161790565b87555b019401910190926120ac565b90601f1983169187600052816000209260005b8181106122f957509360209360019693879693838895106122e0575b505050811b018755612298565b015160001960f88460031b161c191690553880806122d3565b929360206001819287860151815501950193016122b7565b61233d90876000526020600020601f850160051c810191602086106105ee57601f0160051c0190611e1d565b3861225c565b8360005282602060002091820191015b818110612360575061209a565b8061236d60019254611a8d565b8061237a575b5001612353565b601f811183146123905750600081555b38612373565b6123ae908260005283601f6020600020920160051c82019101611e1d565b806000526000602081208183555561238a565b90601f1983169184600052816000209260005b81811061241057509084600195949392106123f7575b505050811b019055612076565b015160001960f88460031b161c191690553880806123ea565b929360206001819287860151815501950193016123d4565b61245490846000526020600020601f850160051c810191602086106105ee57601f0160051c0190611e1d565b38612042565b80518051906001600160401b0382116105f8576124778654611a8d565b601f8111612535575b50602090601f83116001146124c857926124b9836001959460209487966000926121755750508160011b916000199060031b1c19161790565b87555b0194019101909261200a565b90601f1983169187600052816000209260005b81811061251d5750936020936001969387969383889510612504575b505050811b0187556124bc565b015160001960f88460031b161c191690553880806124f7565b929360206001819287860151815501950193016124db565b61256190876000526020600020601f850160051c810191602086106105ee57601f0160051c0190611e1d565b38612480565b8360005282602060002091820191015b8181106125845750611ff8565b8061259160019254611a8d565b8061259e575b5001612577565b601f811183146125b45750600081555b38612597565b6125d2908260005283601f6020600020920160051c82019101611e1d565b80600052600060208120818355556125ae565b90601f1983169184600052816000209260005b818110612634575090846001959493921061261b575b505050811b019055611fd4565b015160001960f88460031b161c1916905538808061260e565b929360206001819287860151815501950193016125f8565b61267890846000526020600020601f850160051c810191602086106105ee57601f0160051c0190611e1d565b38611fa0565b90601f1983169184600052816000209260005b8181106126cd57509084600195949392106126b4575b505050811b019055611f73565b015160001960f88460031b161c191690553880806126a7565b92936020600181928786015181550195019301612691565b61271190846000526020600020601f850160051c810191602086106105ee57601f0160051c0190611e1d565b38611f3f565b601f1982169585600052806000209160005b8881106127645750836001959697981061274b575b505050811b018355611f12565b015160001960f88460031b161c1916905538808061273e565b91926020600181928685015181550194019201612729565b6127a890856000526020600020601f840160051c810191602085106105ee57601f0160051c0190611e1d565b38611edb56fea2646970667358221220fdc74311c17f6e375905f30d6db079b6ff6fe5bac2d163d7d6f8df897ab86a4364736f6c634300081b0033","opcodes":"PUSH1 0x80 DUP1 PUSH1 0x40 MSTORE CALLVALUE PUSH1 0x27 JUMPI PUSH1 0x0 DUP1 SLOAD PUSH1 0x1 PUSH1 0x1 PUSH1 0xA0 SHL SUB NOT AND CALLER OR SWAP1 SSTORE PUSH2 0x27E4 SWAP1 DUP2 PUSH2 0x2D DUP3 CODECOPY RETURN JUMPDEST PUSH1 0x0 DUP1 REVERT INVALID PUSH1 0x80 PUSH1 0x40 MSTORE PUSH1 0x4 CALLDATASIZE LT ISZERO PUSH2 0x12 JUMPI PUSH1 0x0 DUP1 REVERT JUMPDEST PUSH1 0x0 CALLDATALOAD PUSH1 0xE0 SHR DUP1 PUSH4 0x1C0B2030 EQ PUSH2 0x18A0 JUMPI DUP1 PUSH4 0x1DCE6E58 EQ PUSH2 0x1663 JUMPI DUP1 PUSH4 0x25606BC3 EQ PUSH2 0x1201 JUMPI DUP1 PUSH4 0x27321837 EQ PUSH2 0x11B0 JUMPI DUP1 PUSH4 0x349A7A72 EQ PUSH2 0x115C JUMPI DUP1 PUSH4 0x4B87568A EQ PUSH2 0x10F4 JUMPI DUP1 PUSH4 0x74D5E100 EQ PUSH2 0x10AA JUMPI DUP1 PUSH4 0x7AAD01BD EQ PUSH2 0xFDB JUMPI DUP1 PUSH4 0x7ADE51DD EQ PUSH2 0xA5F JUMPI DUP1 PUSH4 0x8DA5CB5B EQ PUSH2 0xA36 JUMPI DUP1 PUSH4 0x9D4EDFE1 EQ PUSH2 0x8C0 JUMPI DUP1 PUSH4 0x9D9315C2 EQ PUSH2 0x86C JUMPI DUP1 PUSH4 0xA812536D EQ PUSH2 0x818 JUMPI DUP1 PUSH4 0xBC4A6F6C EQ PUSH2 0x6DC JUMPI DUP1 PUSH4 0xD9D284DC EQ PUSH2 0x157 JUMPI PUSH4 0xF1022862 EQ PUSH2 0xCC JUMPI PUSH1 0x0 DUP1 REVERT JUMPDEST CALLVALUE PUSH2 0x152 JUMPI PUSH1 0x20 CALLDATASIZE PUSH1 0x3 NOT ADD SLT PUSH2 0x152 JUMPI PUSH1 0x4 CALLDATALOAD PUSH1 0x1 PUSH1 0x1 PUSH1 0x40 SHL SUB DUP2 GT PUSH2 0x152 JUMPI PUSH2 0x133 PUSH2 0x13A PUSH2 0x11D PUSH1 0x20 PUSH2 0x10A PUSH2 0x14E SWAP6 CALLDATASIZE SWAP1 PUSH1 0x4 ADD PUSH2 0x1945 JUMP JUMPDEST DUP2 PUSH1 0x40 MLOAD SWAP4 DUP3 DUP6 DUP1 SWAP5 MLOAD SWAP4 DUP5 SWAP3 ADD PUSH2 0x199B JUMP JUMPDEST DUP2 ADD PUSH1 0x6 DUP2 MSTORE SUB ADD SWAP1 KECCAK256 PUSH1 0x40 MLOAD SWAP3 DUP4 DUP1 SWAP3 PUSH2 0x1AC7 JUMP JUMPDEST SUB DUP3 PUSH2 0x1924 JUMP JUMPDEST PUSH1 0x40 MLOAD SWAP2 DUP3 SWAP2 PUSH1 0x20 DUP4 MSTORE PUSH1 0x20 DUP4 ADD SWAP1 PUSH2 0x19BE JUMP JUMPDEST SUB SWAP1 RETURN JUMPDEST PUSH1 0x0 DUP1 REVERT JUMPDEST CALLVALUE PUSH2 0x152 JUMPI PUSH2 0x140 CALLDATASIZE PUSH1 0x3 NOT ADD SLT PUSH2 0x152 JUMPI PUSH1 0x4 CALLDATALOAD PUSH1 0x1 PUSH1 0x1 PUSH1 0x40 SHL SUB DUP2 GT PUSH2 0x152 JUMPI PUSH2 0x188 SWAP1 CALLDATASIZE SWAP1 PUSH1 0x4 ADD PUSH2 0x1945 JUMP JUMPDEST PUSH1 0x24 CALLDATALOAD PUSH1 0x1 PUSH1 0x1 PUSH1 0x40 SHL SUB DUP2 GT PUSH2 0x152 JUMPI PUSH2 0x1A7 SWAP1 CALLDATASIZE SWAP1 PUSH1 0x4 ADD PUSH2 0x1945 JUMP JUMPDEST PUSH1 0x44 CALLDATALOAD PUSH1 0x1 PUSH1 0x1 PUSH1 0x40 SHL SUB DUP2 GT PUSH2 0x152 JUMPI PUSH2 0x1C6 SWAP1 CALLDATASIZE SWAP1 PUSH1 0x4 ADD PUSH2 0x1945 JUMP JUMPDEST SWAP2 PUSH1 0x64 CALLDATALOAD PUSH1 0x1 PUSH1 0x1 PUSH1 0x40 SHL SUB DUP2 GT PUSH2 0x152 JUMPI PUSH2 0x1E6 SWAP1 CALLDATASIZE SWAP1 PUSH1 0x4 ADD PUSH2 0x1C10 JUMP JUMPDEST SWAP2 PUSH1 0x84 CALLDATALOAD PUSH1 0x1 PUSH1 0x1 PUSH1 0x40 SHL SUB DUP2 GT PUSH2 0x152 JUMPI PUSH2 0x206 SWAP1 CALLDATASIZE SWAP1 PUSH1 0x4 ADD PUSH2 0x1945 JUMP JUMPDEST SWAP1 PUSH1 0xA4 CALLDATALOAD PUSH1 0x1 PUSH1 0x1 PUSH1 0x40 SHL SUB DUP2 GT PUSH2 0x152 JUMPI PUSH2 0x226 SWAP1 CALLDATASIZE SWAP1 PUSH1 0x4 ADD PUSH2 0x1C10 JUMP JUMPDEST SWAP1 PUSH1 0xC4 CALLDATALOAD SWAP4 PUSH1 0x1 DUP1 PUSH1 0xA0 SHL SUB DUP6 AND DUP1 SWAP6 SUB PUSH2 0x152 JUMPI PUSH1 0xE4 CALLDATALOAD PUSH1 0x1 PUSH1 0x1 PUSH1 0x40 SHL SUB DUP2 GT PUSH2 0x152 JUMPI PUSH2 0x25A SWAP1 CALLDATASIZE SWAP1 PUSH1 0x4 ADD PUSH2 0x1945 JUMP JUMPDEST SWAP1 PUSH2 0x104 CALLDATALOAD PUSH1 0x1 PUSH1 0x1 PUSH1 0x40 SHL SUB DUP2 GT PUSH2 0x152 JUMPI PUSH2 0x27B SWAP1 CALLDATASIZE SWAP1 PUSH1 0x4 ADD PUSH2 0x1945 JUMP JUMPDEST SWAP4 PUSH2 0x124 CALLDATALOAD SWAP8 PUSH1 0x2 DUP10 LT ISZERO PUSH2 0x152 JUMPI CALLER PUSH1 0x0 MSTORE PUSH1 0x2 PUSH1 0x20 MSTORE PUSH1 0xFF PUSH1 0x40 PUSH1 0x0 KECCAK256 SLOAD AND PUSH1 0x4 DUP2 LT ISZERO PUSH2 0x6C6 JUMPI PUSH2 0x2AF SWAP1 ISZERO PUSH2 0x1E5D JUMP JUMPDEST PUSH1 0x40 MLOAD SWAP5 PUSH2 0x2BC DUP7 PUSH2 0x1908 JUMP JUMPDEST DUP4 DUP7 MSTORE PUSH1 0x20 DUP7 ADD MSTORE DUP10 PUSH1 0x40 DUP7 ADD MSTORE PUSH1 0x60 DUP6 ADD MSTORE DUP6 PUSH1 0x80 DUP6 ADD MSTORE PUSH1 0xA0 DUP5 ADD MSTORE PUSH2 0x2E7 DUP8 PUSH1 0xC0 DUP6 ADD PUSH2 0x1E11 JUMP JUMPDEST PUSH1 0x0 PUSH1 0xE0 DUP5 ADD MSTORE PUSH1 0x0 PUSH2 0x100 DUP5 ADD MSTORE PUSH1 0x0 PUSH2 0x120 DUP5 ADD MSTORE PUSH1 0x20 SWAP3 PUSH1 0x40 MLOAD PUSH2 0x30E DUP6 DUP3 PUSH2 0x1924 JUMP JUMPDEST PUSH1 0x0 DUP2 MSTORE PUSH2 0x140 DUP3 ADD MSTORE PUSH1 0x40 MLOAD SWAP1 PUSH2 0x343 DUP2 DUP5 MLOAD SWAP4 DUP8 DUP2 DUP2 DUP9 ADD SWAP7 PUSH2 0x334 DUP2 DUP4 DUP11 PUSH2 0x199B JUMP JUMPDEST DUP2 ADD PUSH1 0x3 DUP2 MSTORE SUB ADD SWAP1 KECCAK256 PUSH2 0x1EB3 JUMP JUMPDEST PUSH1 0x1 SLOAD PUSH1 0x1 PUSH1 0x40 SHL DUP2 LT ISZERO PUSH2 0x5F8 JUMPI DUP1 PUSH1 0x1 PUSH2 0x362 SWAP3 ADD PUSH1 0x1 SSTORE PUSH2 0x1BC4 JUMP JUMPDEST SWAP2 SWAP1 SWAP2 PUSH2 0x6B0 JUMPI PUSH2 0x372 SWAP2 PUSH2 0x1EB3 JUMP JUMPDEST PUSH1 0x40 MLOAD DUP5 DUP2 DUP5 MLOAD PUSH2 0x384 DUP2 DUP4 DUP8 PUSH2 0x199B JUMP JUMPDEST DUP2 ADD PUSH1 0x7 DUP2 MSTORE SUB ADD SWAP1 KECCAK256 DUP8 PUSH12 0xFFFFFFFFFFFFFFFFFFFFFFFF PUSH1 0xA0 SHL DUP3 SLOAD AND OR SWAP1 SSTORE PUSH1 0x40 MLOAD DUP5 DUP2 DUP5 MLOAD PUSH2 0x3B7 DUP2 DUP4 DUP8 PUSH2 0x199B JUMP JUMPDEST DUP2 ADD PUSH1 0x8 DUP2 MSTORE SUB ADD SWAP1 KECCAK256 SWAP1 DUP4 MLOAD SWAP3 PUSH1 0x1 PUSH1 0x1 PUSH1 0x40 SHL SUB DUP5 GT PUSH2 0x5F8 JUMPI DUP3 PUSH2 0x3DF DUP8 SWAP5 SLOAD PUSH2 0x1A8D JUMP JUMPDEST PUSH1 0x1F DUP2 GT PUSH2 0x680 JUMPI JUMPDEST POP DUP4 SWAP5 PUSH1 0x1F DUP2 GT PUSH1 0x1 EQ PUSH2 0x619 JUMPI DUP1 PUSH2 0x41B SWAP2 PUSH2 0x42F SWAP8 PUSH1 0x0 SWAP2 PUSH2 0x60E JUMPI JUMPDEST POP DUP2 PUSH1 0x1 SHL SWAP2 PUSH1 0x0 NOT SWAP1 PUSH1 0x3 SHL SHR NOT AND OR SWAP1 JUMP JUMPDEST SWAP1 SSTORE JUMPDEST PUSH1 0x40 MLOAD SWAP4 DUP5 SWAP3 DUP4 SWAP3 MLOAD SWAP3 DUP4 SWAP2 PUSH2 0x199B JUMP JUMPDEST DUP2 ADD PUSH1 0x9 DUP2 MSTORE SUB ADD SWAP1 KECCAK256 DUP4 MLOAD PUSH1 0x1 PUSH1 0x1 PUSH1 0x40 SHL SUB DUP2 GT PUSH2 0x5F8 JUMPI PUSH2 0x453 DUP3 SLOAD PUSH2 0x1A8D JUMP JUMPDEST PUSH1 0x1F DUP2 GT PUSH2 0x5BD JUMPI JUMPDEST POP DUP4 PUSH1 0x1F DUP3 GT PUSH1 0x1 EQ PUSH2 0x522 JUMPI SWAP5 PUSH2 0x4E6 PUSH2 0x507 SWAP6 PUSH32 0x634EF467423C7B2ABBAF26097BDDDAC4A495D36BE69CA3D1555484B46E7899C7 SWAP12 SWAP10 SWAP6 PUSH2 0x4D9 SWAP12 SWAP10 SWAP6 PUSH2 0x4C2 DUP7 PUSH2 0x4F4 SWAP8 PUSH2 0x512 SWAP13 PUSH1 0x0 SWAP2 PUSH2 0x517 JUMPI POP DUP2 PUSH1 0x1 SHL SWAP2 PUSH1 0x0 NOT SWAP1 PUSH1 0x3 SHL SHR NOT AND OR SWAP1 JUMP JUMPDEST SWAP1 SSTORE JUMPDEST PUSH1 0x40 MLOAD SWAP12 DUP13 SWAP12 PUSH1 0xC0 DUP14 MSTORE PUSH1 0xC0 DUP14 ADD SWAP1 PUSH2 0x19BE JUMP JUMPDEST SWAP2 DUP12 DUP4 SUB SWAP1 DUP13 ADD MSTORE PUSH2 0x19BE JUMP JUMPDEST SWAP1 DUP9 DUP3 SUB PUSH1 0x40 DUP11 ADD MSTORE PUSH2 0x19BE JUMP JUMPDEST SWAP2 PUSH1 0x60 DUP8 ADD MSTORE DUP6 DUP3 SUB PUSH1 0x80 DUP8 ADD MSTORE PUSH2 0x19BE JUMP JUMPDEST SWAP2 PUSH1 0xA0 DUP5 ADD SWAP1 PUSH2 0x1A73 JUMP JUMPDEST SUB SWAP1 LOG1 STOP JUMPDEST SWAP1 POP DUP8 ADD MLOAD CODESIZE PUSH2 0x407 JUMP JUMPDEST PUSH1 0x1F NOT DUP3 AND SWAP1 DUP4 PUSH1 0x0 MSTORE DUP6 PUSH1 0x0 KECCAK256 SWAP2 PUSH1 0x0 JUMPDEST DUP2 DUP2 LT PUSH2 0x5A6 JUMPI POP SWAP6 PUSH32 0x634EF467423C7B2ABBAF26097BDDDAC4A495D36BE69CA3D1555484B46E7899C7 SWAP12 SWAP10 SWAP6 PUSH2 0x4D9 SWAP12 SWAP10 SWAP6 PUSH1 0x1 DUP7 PUSH2 0x512 SWAP12 SWAP7 PUSH2 0x4E6 SWAP7 PUSH2 0x4F4 SWAP10 PUSH2 0x507 SWAP14 LT PUSH2 0x58D JUMPI JUMPDEST POP POP DUP2 SHL ADD SWAP1 SSTORE PUSH2 0x4C5 JUMP JUMPDEST DUP9 ADD MLOAD PUSH1 0x0 NOT PUSH1 0xF8 DUP5 PUSH1 0x3 SHL AND SHR NOT AND SWAP1 SSTORE CODESIZE DUP1 PUSH2 0x581 JUMP JUMPDEST SWAP2 SWAP3 DUP8 PUSH1 0x1 DUP2 SWAP3 DUP7 DUP13 ADD MLOAD DUP2 SSTORE ADD SWAP5 ADD SWAP3 ADD PUSH2 0x534 JUMP JUMPDEST PUSH2 0x5E8 SWAP1 DUP4 PUSH1 0x0 MSTORE DUP6 PUSH1 0x0 KECCAK256 PUSH1 0x1F DUP5 ADD PUSH1 0x5 SHR DUP2 ADD SWAP2 DUP8 DUP6 LT PUSH2 0x5EE JUMPI JUMPDEST PUSH1 0x1F ADD PUSH1 0x5 SHR ADD SWAP1 PUSH2 0x1E1D JUMP JUMPDEST DUP10 PUSH2 0x45C JUMP JUMPDEST SWAP1 SWAP2 POP DUP2 SWAP1 PUSH2 0x5DB JUMP JUMPDEST PUSH4 0x4E487B71 PUSH1 0xE0 SHL PUSH1 0x0 MSTORE PUSH1 0x41 PUSH1 0x4 MSTORE PUSH1 0x24 PUSH1 0x0 REVERT JUMPDEST SWAP1 POP DUP9 ADD MLOAD DUP16 PUSH2 0x407 JUMP JUMPDEST PUSH1 0x1F NOT DUP2 AND SWAP6 DUP3 PUSH1 0x0 MSTORE DUP6 PUSH1 0x0 KECCAK256 SWAP7 PUSH1 0x0 JUMPDEST DUP2 DUP2 LT PUSH2 0x668 JUMPI POP SWAP7 DUP3 SWAP2 PUSH1 0x1 SWAP4 PUSH2 0x42F SWAP10 LT PUSH2 0x64F JUMPI JUMPDEST POP POP DUP2 SHL ADD SWAP1 SSTORE PUSH2 0x41E JUMP JUMPDEST DUP10 ADD MLOAD PUSH1 0x0 NOT PUSH1 0xF8 DUP5 PUSH1 0x3 SHL AND SHR NOT AND SWAP1 SSTORE DUP15 DUP1 PUSH2 0x643 JUMP JUMPDEST DUP3 DUP11 ADD MLOAD DUP10 SSTORE PUSH1 0x1 SWAP1 SWAP9 ADD SWAP8 DUP11 SWAP8 SWAP3 DUP4 ADD SWAP3 ADD PUSH2 0x62B JUMP JUMPDEST PUSH2 0x6AA SWAP1 DUP3 PUSH1 0x0 MSTORE DUP6 PUSH1 0x0 KECCAK256 PUSH1 0x1F DUP9 ADD PUSH1 0x5 SHR DUP2 ADD SWAP2 DUP8 DUP10 LT PUSH2 0x5EE JUMPI PUSH1 0x1F ADD PUSH1 0x5 SHR ADD SWAP1 PUSH2 0x1E1D JUMP JUMPDEST DUP13 PUSH2 0x3E8 JUMP JUMPDEST PUSH4 0x4E487B71 PUSH1 0xE0 SHL PUSH1 0x0 MSTORE PUSH1 0x0 PUSH1 0x4 MSTORE PUSH1 0x24 PUSH1 0x0 REVERT JUMPDEST PUSH4 0x4E487B71 PUSH1 0xE0 SHL PUSH1 0x0 MSTORE PUSH1 0x21 PUSH1 0x4 MSTORE PUSH1 0x24 PUSH1 0x0 REVERT JUMPDEST CALLVALUE PUSH2 0x152 JUMPI PUSH1 0x20 CALLDATASIZE PUSH1 0x3 NOT ADD SLT PUSH2 0x152 JUMPI PUSH1 0x4 CALLDATALOAD PUSH1 0x1 PUSH1 0x1 PUSH1 0x40 SHL SUB DUP2 GT PUSH2 0x152 JUMPI PUSH2 0x70C SWAP1 CALLDATASIZE SWAP1 PUSH1 0x4 ADD PUSH2 0x1945 JUMP JUMPDEST CALLER PUSH1 0x0 MSTORE PUSH1 0x2 PUSH1 0x20 MSTORE PUSH1 0xFF PUSH1 0x40 PUSH1 0x0 KECCAK256 SLOAD AND PUSH1 0x4 DUP2 LT ISZERO PUSH2 0x6C6 JUMPI PUSH2 0x731 SWAP1 ISZERO PUSH2 0x1E5D JUMP JUMPDEST PUSH1 0x40 MLOAD PUSH1 0x20 DUP2 DUP4 MLOAD PUSH2 0x746 DUP2 DUP4 DUP6 DUP9 ADD PUSH2 0x199B JUMP JUMPDEST DUP2 ADD PUSH1 0x3 DUP2 MSTORE SUB ADD SWAP1 KECCAK256 SWAP1 PUSH1 0x6 DUP3 ADD SWAP2 PUSH1 0xFF DUP4 SLOAD PUSH1 0x8 SHR AND PUSH1 0x3 DUP2 LT ISZERO PUSH2 0x6C6 JUMPI PUSH2 0x7B6 JUMPI PUSH2 0x512 PUSH1 0x2 SWAP3 PUSH32 0x854681DB4B5190CEAACFE5894893F2E8D49873D9B8ED6C72B5618047CB3924E5 SWAP5 TIMESTAMP PUSH1 0x7 DUP6 ADD SSTORE PUSH2 0x100 PUSH2 0xFF00 NOT DUP3 SLOAD AND OR SWAP1 SSTORE PUSH1 0x40 MLOAD SWAP4 DUP5 SWAP4 ADD SWAP1 TIMESTAMP SWAP1 DUP5 PUSH2 0x1E34 JUMP JUMPDEST PUSH1 0x40 MLOAD PUSH3 0x461BCD PUSH1 0xE5 SHL DUP2 MSTORE PUSH1 0x20 PUSH1 0x4 DUP3 ADD MSTORE PUSH1 0x34 PUSH1 0x24 DUP3 ADD MSTORE PUSH32 0x4F62617420547261646973696F6E616C20737461747573206D75737420626520 PUSH1 0x44 DUP3 ADD MSTORE PUSH20 0x696E206C6F63616C2070726F64756374696F6E21 PUSH1 0x60 SHL PUSH1 0x64 DUP3 ADD MSTORE PUSH1 0x84 SWAP1 REVERT JUMPDEST CALLVALUE PUSH2 0x152 JUMPI PUSH1 0x20 CALLDATASIZE PUSH1 0x3 NOT ADD SLT PUSH2 0x152 JUMPI PUSH1 0x4 CALLDATALOAD PUSH1 0x1 PUSH1 0x1 PUSH1 0x40 SHL SUB DUP2 GT PUSH2 0x152 JUMPI PUSH2 0x133 PUSH2 0x13A PUSH2 0x856 PUSH1 0x20 PUSH2 0x10A PUSH2 0x14E SWAP6 CALLDATASIZE SWAP1 PUSH1 0x4 ADD PUSH2 0x1945 JUMP JUMPDEST DUP2 ADD PUSH1 0x8 DUP2 MSTORE SUB ADD SWAP1 KECCAK256 PUSH1 0x40 MLOAD SWAP3 DUP4 DUP1 SWAP3 PUSH2 0x1AC7 JUMP JUMPDEST CALLVALUE PUSH2 0x152 JUMPI PUSH1 0x20 CALLDATASIZE PUSH1 0x3 NOT ADD SLT PUSH2 0x152 JUMPI PUSH1 0x4 CALLDATALOAD PUSH1 0x1 PUSH1 0x1 PUSH1 0x40 SHL SUB DUP2 GT PUSH2 0x152 JUMPI PUSH2 0x133 PUSH2 0x13A PUSH2 0x8AA PUSH1 0x20 PUSH2 0x10A PUSH2 0x14E SWAP6 CALLDATASIZE SWAP1 PUSH1 0x4 ADD PUSH2 0x1945 JUMP JUMPDEST DUP2 ADD PUSH1 0x5 DUP2 MSTORE SUB ADD SWAP1 KECCAK256 PUSH1 0x40 MLOAD SWAP3 DUP4 DUP1 SWAP3 PUSH2 0x1AC7 JUMP JUMPDEST CALLVALUE PUSH2 0x152 JUMPI PUSH1 0x0 CALLDATASIZE PUSH1 0x3 NOT ADD SLT PUSH2 0x152 JUMPI PUSH1 0x1 SLOAD PUSH2 0x8DD DUP2 PUSH2 0x1D6B JUMP JUMPDEST PUSH2 0x8E6 DUP3 PUSH2 0x1D21 JUMP JUMPDEST SWAP2 PUSH2 0x8F0 DUP2 PUSH2 0x1D21 JUMP JUMPDEST PUSH2 0x8F9 DUP3 PUSH2 0x1D21 JUMP JUMPDEST SWAP2 PUSH1 0x0 JUMPDEST DUP2 DUP2 LT PUSH2 0x952 JUMPI PUSH2 0x928 DUP7 PUSH2 0x14E DUP8 PUSH2 0x944 DUP9 PUSH2 0x936 DUP10 PUSH1 0x40 MLOAD SWAP8 DUP9 SWAP8 PUSH1 0x80 DUP10 MSTORE PUSH1 0x80 DUP10 ADD SWAP1 PUSH2 0x19E3 JUMP JUMPDEST SWAP1 DUP8 DUP3 SUB PUSH1 0x20 DUP10 ADD MSTORE PUSH2 0x19E3 JUMP JUMPDEST SWAP1 DUP6 DUP3 SUB PUSH1 0x40 DUP8 ADD MSTORE PUSH2 0x19E3 JUMP JUMPDEST SWAP1 DUP4 DUP3 SUB PUSH1 0x60 DUP6 ADD MSTORE PUSH2 0x1A3C JUMP JUMPDEST PUSH1 0xFF PUSH1 0x6 PUSH2 0x95F DUP4 PUSH2 0x1BC4 JUMP JUMPDEST POP ADD SLOAD PUSH1 0x8 SHR AND SWAP1 PUSH1 0x3 DUP3 LT ISZERO PUSH2 0x6C6 JUMPI PUSH1 0x1 SWAP2 PUSH2 0x97D DUP3 DUP9 PUSH2 0x1D9D JUMP JUMPDEST MSTORE PUSH2 0x133 PUSH2 0x99A PUSH2 0x98D DUP4 PUSH2 0x1BC4 JUMP JUMPDEST POP PUSH1 0x40 MLOAD SWAP3 DUP4 DUP1 SWAP3 PUSH2 0x1AC7 JUMP JUMPDEST PUSH2 0x9A4 DUP3 DUP10 PUSH2 0x1D9D JUMP JUMPDEST MSTORE PUSH2 0x9AF DUP2 DUP9 PUSH2 0x1D9D JUMP JUMPDEST POP PUSH1 0x2 PUSH2 0x9CF PUSH2 0x9BE DUP4 PUSH2 0x1BC4 JUMP JUMPDEST POP PUSH2 0x133 PUSH1 0x40 MLOAD DUP1 SWAP5 DUP2 SWAP4 ADD PUSH2 0x1AC7 JUMP JUMPDEST PUSH2 0x9D9 DUP3 DUP7 PUSH2 0x1D9D JUMP JUMPDEST MSTORE PUSH2 0x9E4 DUP2 DUP6 PUSH2 0x1D9D JUMP JUMPDEST POP PUSH2 0x133 PUSH2 0xA1A PUSH2 0xA06 PUSH1 0x20 PUSH2 0x9F9 DUP6 PUSH2 0x1BC4 JUMP JUMPDEST POP PUSH1 0x40 MLOAD SWAP3 DUP4 DUP1 SWAP3 PUSH2 0x1C8E JUMP JUMPDEST PUSH1 0x8 DUP2 MSTORE SUB ADD SWAP1 KECCAK256 PUSH1 0x40 MLOAD SWAP3 DUP4 DUP1 SWAP3 PUSH2 0x1AC7 JUMP JUMPDEST PUSH2 0xA24 DUP3 DUP8 PUSH2 0x1D9D JUMP JUMPDEST MSTORE PUSH2 0xA2F DUP2 DUP7 PUSH2 0x1D9D JUMP JUMPDEST POP ADD PUSH2 0x8FD JUMP JUMPDEST CALLVALUE PUSH2 0x152 JUMPI PUSH1 0x0 CALLDATASIZE PUSH1 0x3 NOT ADD SLT PUSH2 0x152 JUMPI PUSH1 0x0 SLOAD PUSH1 0x40 MLOAD PUSH1 0x1 PUSH1 0x1 PUSH1 0xA0 SHL SUB SWAP1 SWAP2 AND DUP2 MSTORE PUSH1 0x20 SWAP1 RETURN JUMPDEST CALLVALUE PUSH2 0x152 JUMPI PUSH1 0xA0 CALLDATASIZE PUSH1 0x3 NOT ADD SLT PUSH2 0x152 JUMPI PUSH1 0x4 CALLDATALOAD PUSH1 0x1 PUSH1 0x1 PUSH1 0x40 SHL SUB DUP2 GT PUSH2 0x152 JUMPI PUSH2 0xA8F SWAP1 CALLDATASIZE SWAP1 PUSH1 0x4 ADD PUSH2 0x1945 JUMP JUMPDEST PUSH1 0x24 CALLDATALOAD PUSH1 0x1 PUSH1 0x1 PUSH1 0xA0 SHL SUB DUP2 AND DUP2 SUB PUSH2 0x152 JUMPI PUSH1 0x44 CALLDATALOAD PUSH1 0x1 PUSH1 0x1 PUSH1 0x40 SHL SUB DUP2 GT PUSH2 0x152 JUMPI PUSH2 0xAC1 SWAP1 CALLDATASIZE SWAP1 PUSH1 0x4 ADD PUSH2 0x1945 JUMP JUMPDEST SWAP2 PUSH1 0x64 CALLDATALOAD PUSH1 0x1 PUSH1 0x1 PUSH1 0x40 SHL SUB DUP2 GT PUSH2 0x152 JUMPI PUSH2 0xAE1 SWAP1 CALLDATASIZE SWAP1 PUSH1 0x4 ADD PUSH2 0x1945 JUMP JUMPDEST SWAP3 PUSH1 0x84 CALLDATALOAD PUSH1 0x1 PUSH1 0x1 PUSH1 0x40 SHL SUB DUP2 GT PUSH2 0x152 JUMPI PUSH2 0xB01 SWAP1 CALLDATASIZE SWAP1 PUSH1 0x4 ADD PUSH2 0x1945 JUMP JUMPDEST SWAP2 CALLER PUSH1 0x0 MSTORE PUSH1 0x2 PUSH1 0x20 MSTORE PUSH1 0xFF PUSH1 0x40 PUSH1 0x0 KECCAK256 SLOAD AND PUSH1 0x4 DUP2 LT ISZERO PUSH2 0x6C6 JUMPI PUSH1 0x2 SUB PUSH2 0xF96 JUMPI PUSH1 0x40 MLOAD SWAP2 DUP2 MLOAD SWAP3 PUSH1 0x20 DUP2 DUP2 DUP6 ADD SWAP6 PUSH2 0xB3D DUP2 DUP4 DUP10 PUSH2 0x199B JUMP JUMPDEST DUP2 ADD PUSH1 0x3 DUP2 MSTORE SUB ADD SWAP1 KECCAK256 SWAP5 PUSH1 0x6 DUP7 ADD PUSH1 0xFF DUP2 SLOAD PUSH1 0x8 SHR AND PUSH1 0x3 DUP2 LT ISZERO PUSH2 0x6C6 JUMPI PUSH1 0x1 SUB PUSH2 0xF3E JUMPI TIMESTAMP PUSH1 0x8 DUP9 ADD SSTORE PUSH2 0x200 PUSH2 0xFF00 NOT DUP3 SLOAD AND OR SWAP1 SSTORE PUSH1 0x9 DUP7 ADD DUP6 MLOAD PUSH1 0x1 PUSH1 0x1 PUSH1 0x40 SHL SUB DUP2 GT PUSH2 0x5F8 JUMPI PUSH2 0xB95 DUP3 SLOAD PUSH2 0x1A8D JUMP JUMPDEST PUSH1 0x1F DUP2 GT PUSH2 0xF0C JUMPI JUMPDEST POP PUSH1 0x20 PUSH1 0x1F DUP3 GT PUSH1 0x1 EQ PUSH2 0xEA6 JUMPI SWAP1 DUP1 PUSH2 0xBCD SWAP3 PUSH1 0x0 SWAP2 PUSH2 0xE9B JUMPI POP DUP2 PUSH1 0x1 SHL SWAP2 PUSH1 0x0 NOT SWAP1 PUSH1 0x3 SHL SHR NOT AND OR SWAP1 JUMP JUMPDEST SWAP1 SSTORE JUMPDEST PUSH1 0x40 MLOAD PUSH1 0x20 DUP2 DUP6 MLOAD PUSH2 0xBE3 DUP2 DUP4 DUP11 PUSH2 0x199B JUMP JUMPDEST DUP2 ADD PUSH1 0x4 DUP2 MSTORE SUB ADD SWAP1 KECCAK256 SWAP1 PUSH1 0x1 DUP1 PUSH1 0xA0 SHL SUB AND PUSH12 0xFFFFFFFFFFFFFFFFFFFFFFFF PUSH1 0xA0 SHL DUP3 SLOAD AND OR SWAP1 SSTORE PUSH1 0x40 MLOAD PUSH1 0x20 DUP2 DUP5 MLOAD PUSH2 0xC1F DUP2 DUP4 DUP10 PUSH2 0x199B JUMP JUMPDEST DUP2 ADD PUSH1 0x5 DUP2 MSTORE SUB ADD SWAP1 KECCAK256 SWAP1 DUP1 MLOAD SWAP1 PUSH1 0x1 PUSH1 0x1 PUSH1 0x40 SHL SUB DUP3 GT PUSH2 0x5F8 JUMPI PUSH2 0xC45 DUP4 SLOAD PUSH2 0x1A8D JUMP JUMPDEST PUSH1 0x1F DUP2 GT PUSH2 0xE69 JUMPI JUMPDEST POP PUSH1 0x20 SWAP1 PUSH1 0x1F DUP4 GT PUSH1 0x1 EQ PUSH2 0xDFA JUMPI DUP3 PUSH1 0x20 SWAP6 SWAP4 PUSH2 0xC89 SWAP8 SWAP6 SWAP4 PUSH2 0x41B SWAP4 PUSH1 0x0 SWAP3 PUSH2 0xDEF JUMPI JUMPDEST POP POP DUP2 PUSH1 0x1 SHL SWAP2 PUSH1 0x0 NOT SWAP1 PUSH1 0x3 SHL SHR NOT AND OR SWAP1 JUMP JUMPDEST DUP2 ADD PUSH1 0x6 DUP2 MSTORE SUB ADD SWAP1 KECCAK256 DUP4 MLOAD PUSH1 0x1 PUSH1 0x1 PUSH1 0x40 SHL SUB DUP2 GT PUSH2 0x5F8 JUMPI PUSH2 0xCAD DUP3 SLOAD PUSH2 0x1A8D JUMP JUMPDEST PUSH1 0x1F DUP2 GT PUSH2 0xDBD JUMPI JUMPDEST POP PUSH1 0x20 PUSH1 0x1F DUP3 GT PUSH1 0x1 EQ PUSH2 0xD2E JUMPI SWAP2 PUSH2 0xD10 DUP3 PUSH1 0x2 SWAP7 SWAP6 SWAP4 PUSH2 0x512 SWAP6 PUSH32 0xD40BB83004F253A064FC3F847543DFACDF7BCF19BFFEFB66451B4FA5852A42F4 SWAP10 PUSH1 0x0 SWAP3 PUSH2 0xD23 JUMPI POP POP DUP2 PUSH1 0x1 SHL SWAP2 PUSH1 0x0 NOT SWAP1 PUSH1 0x3 SHL SHR NOT AND OR SWAP1 JUMP JUMPDEST SWAP1 SSTORE JUMPDEST PUSH1 0x40 MLOAD SWAP4 DUP5 SWAP4 ADD SWAP1 TIMESTAMP SWAP1 DUP5 PUSH2 0x1E34 JUMP JUMPDEST ADD MLOAD SWAP1 POP DUP10 DUP1 PUSH2 0xC74 JUMP JUMPDEST PUSH1 0x1F NOT DUP3 AND SWAP6 DUP4 PUSH1 0x0 MSTORE DUP2 PUSH1 0x0 KECCAK256 SWAP7 PUSH1 0x0 JUMPDEST DUP2 DUP2 LT PUSH2 0xDA5 JUMPI POP SWAP3 PUSH32 0xD40BB83004F253A064FC3F847543DFACDF7BCF19BFFEFB66451B4FA5852A42F4 SWAP8 PUSH2 0x512 SWAP6 SWAP4 PUSH1 0x1 SWAP4 DUP4 PUSH1 0x2 SWAP11 SWAP10 SWAP8 LT PUSH2 0xD8C JUMPI JUMPDEST POP POP POP DUP2 SHL ADD SWAP1 SSTORE PUSH2 0xD13 JUMP JUMPDEST ADD MLOAD PUSH1 0x0 NOT PUSH1 0xF8 DUP5 PUSH1 0x3 SHL AND SHR NOT AND SWAP1 SSTORE DUP9 DUP1 DUP1 PUSH2 0xD7F JUMP JUMPDEST DUP4 DUP4 ADD MLOAD DUP10 SSTORE PUSH1 0x1 SWAP1 SWAP9 ADD SWAP8 PUSH1 0x20 SWAP4 DUP5 ADD SWAP4 ADD PUSH2 0xD40 JUMP JUMPDEST PUSH2 0xDE9 SWAP1 DUP4 PUSH1 0x0 MSTORE PUSH1 0x20 PUSH1 0x0 KECCAK256 PUSH1 0x1F DUP5 ADD PUSH1 0x5 SHR DUP2 ADD SWAP2 PUSH1 0x20 DUP6 LT PUSH2 0x5EE JUMPI PUSH1 0x1F ADD PUSH1 0x5 SHR ADD SWAP1 PUSH2 0x1E1D JUMP JUMPDEST DUP6 PUSH2 0xCB6 JUMP JUMPDEST ADD MLOAD SWAP1 POP DUP12 DUP1 PUSH2 0xC74 JUMP JUMPDEST SWAP1 PUSH1 0x1F NOT DUP4 AND SWAP2 DUP5 PUSH1 0x0 MSTORE DUP2 PUSH1 0x0 KECCAK256 SWAP3 PUSH1 0x0 JUMPDEST DUP2 DUP2 LT PUSH2 0xE51 JUMPI POP SWAP3 PUSH1 0x1 SWAP3 DUP6 SWAP3 PUSH1 0x20 SWAP9 SWAP7 PUSH2 0xC89 SWAP11 SWAP9 SWAP7 LT PUSH2 0xE38 JUMPI JUMPDEST POP POP POP DUP2 SHL ADD SWAP1 SSTORE PUSH2 0x41E JUMP JUMPDEST ADD MLOAD PUSH1 0x0 NOT PUSH1 0xF8 DUP5 PUSH1 0x3 SHL AND SHR NOT AND SWAP1 SSTORE DUP11 DUP1 DUP1 PUSH2 0xE2B JUMP JUMPDEST SWAP3 SWAP4 PUSH1 0x20 PUSH1 0x1 DUP2 SWAP3 DUP8 DUP7 ADD MLOAD DUP2 SSTORE ADD SWAP6 ADD SWAP4 ADD PUSH2 0xE0D JUMP JUMPDEST PUSH2 0xE95 SWAP1 DUP5 PUSH1 0x0 MSTORE PUSH1 0x20 PUSH1 0x0 KECCAK256 PUSH1 0x1F DUP6 ADD PUSH1 0x5 SHR DUP2 ADD SWAP2 PUSH1 0x20 DUP7 LT PUSH2 0x5EE JUMPI PUSH1 0x1F ADD PUSH1 0x5 SHR ADD SWAP1 PUSH2 0x1E1D JUMP JUMPDEST DUP9 PUSH2 0xC4E JUMP JUMPDEST SWAP1 POP DUP9 ADD MLOAD DUP12 PUSH2 0x407 JUMP JUMPDEST PUSH1 0x1F NOT DUP3 AND SWAP1 DUP4 PUSH1 0x0 MSTORE DUP1 PUSH1 0x0 KECCAK256 SWAP2 PUSH1 0x0 JUMPDEST DUP11 DUP3 DUP3 LT PUSH2 0xEF4 JUMPI POP POP SWAP1 DUP4 PUSH1 0x1 SWAP5 SWAP4 SWAP3 LT PUSH2 0xEDB JUMPI JUMPDEST POP POP DUP2 SHL ADD SWAP1 SSTORE PUSH2 0xBD0 JUMP JUMPDEST DUP10 ADD MLOAD PUSH1 0x0 NOT PUSH1 0xF8 DUP5 PUSH1 0x3 SHL AND SHR NOT AND SWAP1 SSTORE DUP11 DUP1 PUSH2 0xECF JUMP JUMPDEST PUSH1 0x1 DUP5 SWAP6 PUSH1 0x20 SWAP4 SWAP6 DUP5 SWAP4 ADD MLOAD DUP2 SSTORE ADD SWAP5 ADD SWAP3 ADD PUSH2 0xEB8 JUMP JUMPDEST PUSH2 0xF38 SWAP1 DUP4 PUSH1 0x0 MSTORE PUSH1 0x20 PUSH1 0x0 KECCAK256 PUSH1 0x1F DUP5 ADD PUSH1 0x5 SHR DUP2 ADD SWAP2 PUSH1 0x20 DUP6 LT PUSH2 0x5EE JUMPI PUSH1 0x1F ADD PUSH1 0x5 SHR ADD SWAP1 PUSH2 0x1E1D JUMP JUMPDEST DUP10 PUSH2 0xB9E JUMP JUMPDEST PUSH1 0x40 MLOAD PUSH3 0x461BCD PUSH1 0xE5 SHL DUP2 MSTORE PUSH1 0x20 PUSH1 0x4 DUP3 ADD MSTORE PUSH1 0x2A PUSH1 0x24 DUP3 ADD MSTORE PUSH32 0x4F62617420547261646973696F6E616C20737461747573206D75737420626520 PUSH1 0x44 DUP3 ADD MSTORE PUSH10 0x72657175657374656421 PUSH1 0xB0 SHL PUSH1 0x64 DUP3 ADD MSTORE PUSH1 0x84 SWAP1 REVERT JUMPDEST PUSH1 0x40 MLOAD PUSH3 0x461BCD PUSH1 0xE5 SHL DUP2 MSTORE PUSH1 0x20 PUSH1 0x4 DUP3 ADD MSTORE PUSH1 0x1E PUSH1 0x24 DUP3 ADD MSTORE PUSH32 0x416363657373207265737472696374656420746F2042504F4D20726F6C650000 PUSH1 0x44 DUP3 ADD MSTORE PUSH1 0x64 SWAP1 REVERT JUMPDEST CALLVALUE PUSH2 0x152 JUMPI PUSH1 0x20 CALLDATASIZE PUSH1 0x3 NOT ADD SLT PUSH2 0x152 JUMPI PUSH1 0x4 CALLDATALOAD PUSH1 0x1 SLOAD DUP2 LT ISZERO PUSH2 0x152 JUMPI PUSH2 0x1002 SWAP1 PUSH2 0x1BC4 JUMP JUMPDEST POP PUSH1 0x40 MLOAD SWAP1 PUSH2 0x101C DUP3 PUSH2 0x1015 DUP2 DUP5 PUSH2 0x1AC7 JUMP JUMPDEST SUB DUP4 PUSH2 0x1924 JUMP JUMPDEST PUSH2 0x14E PUSH1 0x9 PUSH1 0x40 MLOAD SWAP3 PUSH2 0x103D DUP5 PUSH2 0x1036 DUP2 PUSH1 0x1 DUP6 ADD PUSH2 0x1AC7 JUMP JUMPDEST SUB DUP6 PUSH2 0x1924 JUMP JUMPDEST PUSH1 0x40 MLOAD SWAP5 PUSH2 0x1059 DUP7 PUSH2 0x1052 DUP2 PUSH1 0x2 DUP7 ADD PUSH2 0x1AC7 JUMP JUMPDEST SUB DUP8 PUSH2 0x1924 JUMP JUMPDEST PUSH1 0x40 MLOAD SWAP1 PUSH2 0x106E DUP3 PUSH2 0x1015 DUP2 PUSH1 0x4 DUP8 ADD PUSH2 0x1AC7 JUMP JUMPDEST PUSH1 0x6 DUP4 ADD SLOAD SWAP1 PUSH1 0x7 DUP5 ADD SLOAD SWAP3 PUSH2 0x1093 PUSH1 0x8 DUP7 ADD SLOAD SWAP6 PUSH2 0x1052 PUSH1 0x40 MLOAD DUP1 SWAP10 DUP2 SWAP4 ADD PUSH2 0x1AC7 JUMP JUMPDEST PUSH1 0x40 MLOAD SWAP9 DUP10 SWAP9 PUSH1 0xFF DUP1 DUP7 PUSH1 0x8 SHR AND SWAP6 AND SWAP4 DUP11 PUSH2 0x1B4A JUMP JUMPDEST CALLVALUE PUSH2 0x152 JUMPI PUSH1 0x20 CALLDATASIZE PUSH1 0x3 NOT ADD SLT PUSH2 0x152 JUMPI PUSH1 0x4 CALLDATALOAD PUSH1 0x1 PUSH1 0x1 PUSH1 0xA0 SHL SUB DUP2 AND SWAP1 DUP2 SWAP1 SUB PUSH2 0x152 JUMPI PUSH1 0x0 MSTORE PUSH1 0x2 PUSH1 0x20 MSTORE PUSH1 0xFF PUSH1 0x40 PUSH1 0x0 KECCAK256 SLOAD AND PUSH1 0x40 MLOAD PUSH1 0x4 DUP3 LT ISZERO PUSH2 0x6C6 JUMPI PUSH1 0x20 SWAP2 DUP2 MSTORE RETURN JUMPDEST CALLVALUE PUSH2 0x152 JUMPI PUSH1 0x20 CALLDATASIZE PUSH1 0x3 NOT ADD SLT PUSH2 0x152 JUMPI PUSH1 0x4 CALLDATALOAD PUSH1 0x1 PUSH1 0x1 PUSH1 0x40 SHL SUB DUP2 GT PUSH2 0x152 JUMPI PUSH2 0x1126 PUSH1 0x20 SWAP2 CALLDATASIZE SWAP1 PUSH1 0x4 ADD PUSH2 0x1945 JUMP JUMPDEST DUP2 PUSH2 0x113A PUSH1 0x40 MLOAD SWAP3 DUP4 DUP2 MLOAD SWAP4 DUP5 SWAP3 ADD PUSH2 0x199B JUMP JUMPDEST PUSH1 0x7 SWAP1 DUP3 ADD SWAP1 DUP2 MSTORE DUP2 SWAP1 SUB DUP3 ADD SWAP1 KECCAK256 SLOAD PUSH1 0x40 MLOAD PUSH1 0x1 PUSH1 0x1 PUSH1 0xA0 SHL SUB SWAP1 SWAP2 AND DUP2 MSTORE RETURN JUMPDEST CALLVALUE PUSH2 0x152 JUMPI PUSH1 0x20 CALLDATASIZE PUSH1 0x3 NOT ADD SLT PUSH2 0x152 JUMPI PUSH1 0x4 CALLDATALOAD PUSH1 0x1 PUSH1 0x1 PUSH1 0x40 SHL SUB DUP2 GT PUSH2 0x152 JUMPI PUSH2 0x133 PUSH2 0x13A PUSH2 0x119A PUSH1 0x20 PUSH2 0x10A PUSH2 0x14E SWAP6 CALLDATASIZE SWAP1 PUSH1 0x4 ADD PUSH2 0x1945 JUMP JUMPDEST DUP2 ADD PUSH1 0x9 DUP2 MSTORE SUB ADD SWAP1 KECCAK256 PUSH1 0x40 MLOAD SWAP3 DUP4 DUP1 SWAP3 PUSH2 0x1AC7 JUMP JUMPDEST CALLVALUE PUSH2 0x152 JUMPI PUSH1 0x20 CALLDATASIZE PUSH1 0x3 NOT ADD SLT PUSH2 0x152 JUMPI PUSH1 0x4 CALLDATALOAD PUSH1 0x1 PUSH1 0x1 PUSH1 0x40 SHL SUB DUP2 GT PUSH2 0x152 JUMPI PUSH1 0x20 PUSH2 0x10A PUSH2 0x11E5 SWAP3 CALLDATASIZE SWAP1 PUSH1 0x4 ADD PUSH2 0x1945 JUMP JUMPDEST DUP2 ADD PUSH1 0x3 DUP2 MSTORE SUB ADD SWAP1 KECCAK256 PUSH1 0x40 MLOAD SWAP1 PUSH2 0x101C DUP3 PUSH2 0x1015 DUP2 DUP5 PUSH2 0x1AC7 JUMP JUMPDEST CALLVALUE PUSH2 0x152 JUMPI PUSH1 0x20 CALLDATASIZE PUSH1 0x3 NOT ADD SLT PUSH2 0x152 JUMPI PUSH1 0x4 CALLDATALOAD PUSH1 0x1 PUSH1 0x1 PUSH1 0x40 SHL SUB DUP2 GT PUSH2 0x152 JUMPI PUSH2 0x1231 SWAP1 CALLDATASIZE SWAP1 PUSH1 0x4 ADD PUSH2 0x1945 JUMP JUMPDEST PUSH1 0x60 PUSH2 0x140 PUSH1 0x40 MLOAD PUSH2 0x1242 DUP2 PUSH2 0x1908 JUMP JUMPDEST DUP3 DUP2 MSTORE DUP3 PUSH1 0x20 DUP3 ADD MSTORE DUP3 PUSH1 0x40 DUP3 ADD MSTORE DUP3 DUP1 DUP3 ADD MSTORE DUP3 PUSH1 0x80 DUP3 ADD MSTORE DUP3 PUSH1 0xA0 DUP3 ADD MSTORE PUSH1 0x0 PUSH1 0xC0 DUP3 ADD MSTORE PUSH1 0x0 PUSH1 0xE0 DUP3 ADD MSTORE PUSH1 0x0 PUSH2 0x100 DUP3 ADD MSTORE PUSH1 0x0 PUSH2 0x120 DUP3 ADD MSTORE ADD MSTORE PUSH1 0x40 MLOAD PUSH2 0x12AD DUP3 MLOAD SWAP2 PUSH1 0x20 DUP2 DUP2 DUP7 ADD SWAP5 PUSH2 0x129D DUP2 DUP4 DUP9 PUSH2 0x199B JUMP JUMPDEST DUP2 ADD PUSH1 0x3 DUP2 MSTORE SUB ADD SWAP1 KECCAK256 SLOAD PUSH2 0x1A8D JUMP JUMPDEST ISZERO PUSH2 0x161E JUMPI PUSH1 0x40 MLOAD PUSH1 0x20 DUP2 DUP5 MLOAD PUSH2 0x12C5 DUP2 DUP4 DUP8 PUSH2 0x199B JUMP JUMPDEST DUP2 ADD PUSH1 0x3 DUP2 MSTORE SUB ADD SWAP1 KECCAK256 PUSH1 0x40 MLOAD SWAP2 PUSH2 0x12DC DUP4 PUSH2 0x1908 JUMP JUMPDEST PUSH1 0x40 MLOAD PUSH2 0x12ED DUP2 PUSH2 0x133 DUP2 DUP7 PUSH2 0x1AC7 JUMP JUMPDEST DUP4 MSTORE PUSH1 0x40 MLOAD PUSH2 0x1303 DUP2 PUSH2 0x133 DUP2 PUSH1 0x1 DUP8 ADD PUSH2 0x1AC7 JUMP JUMPDEST PUSH1 0x20 DUP5 ADD MSTORE PUSH1 0x40 MLOAD PUSH2 0x131C DUP2 PUSH2 0x133 DUP2 PUSH1 0x2 DUP8 ADD PUSH2 0x1AC7 JUMP JUMPDEST PUSH1 0x40 DUP5 ADD MSTORE PUSH2 0x132D PUSH1 0x3 DUP4 ADD PUSH2 0x1DB1 JUMP JUMPDEST PUSH1 0x60 DUP5 ADD MSTORE PUSH1 0x40 MLOAD PUSH2 0x1346 DUP2 PUSH2 0x133 DUP2 PUSH1 0x4 DUP8 ADD PUSH2 0x1AC7 JUMP JUMPDEST PUSH1 0x80 DUP5 ADD MSTORE PUSH2 0x1357 PUSH1 0x5 DUP4 ADD PUSH2 0x1DB1 JUMP JUMPDEST PUSH1 0xA0 DUP5 ADD MSTORE PUSH1 0xFF PUSH1 0x6 DUP4 ADD SLOAD PUSH2 0x1372 DUP3 DUP3 AND PUSH1 0xC0 DUP8 ADD PUSH2 0x1E11 JUMP JUMPDEST PUSH1 0x8 SHR AND SWAP2 PUSH1 0x3 DUP4 LT ISZERO PUSH2 0x6C6 JUMPI PUSH2 0x140 SWAP5 PUSH2 0x14BE PUSH2 0x15FD PUSH2 0x1464 PUSH2 0x15EF PUSH2 0x14DB SWAP7 PUSH1 0x9 PUSH2 0x13CE PUSH2 0x1610 SWAP9 PUSH2 0x14E SWAP12 PUSH1 0xE0 DUP15 ADD MSTORE DUP13 PUSH2 0x100 PUSH1 0x7 DUP4 ADD SLOAD SWAP2 ADD MSTORE DUP13 PUSH2 0x120 PUSH1 0x8 DUP4 ADD SLOAD SWAP2 ADD MSTORE PUSH2 0x133 PUSH1 0x40 MLOAD DUP1 SWAP5 DUP2 SWAP4 ADD PUSH2 0x1AC7 JUMP JUMPDEST DUP12 DUP12 ADD MSTORE PUSH2 0x1431 PUSH2 0x14E2 PUSH2 0x14C5 PUSH1 0x20 PUSH1 0x40 MLOAD DUP11 MLOAD PUSH2 0x13ED DUP2 DUP4 DUP10 PUSH2 0x199B JUMP JUMPDEST DUP2 ADD SWAP1 PUSH1 0x7 DUP3 MSTORE DUP3 DUP2 PUSH1 0x1 DUP1 PUSH1 0xA0 SHL SUB SWAP4 SUB ADD SWAP1 KECCAK256 SLOAD AND SWAP5 PUSH2 0x1438 DUP12 DUP4 PUSH1 0x40 MLOAD DUP1 SWAP3 MLOAD PUSH2 0x141B DUP2 DUP4 DUP9 PUSH2 0x199B JUMP JUMPDEST DUP2 ADD PUSH1 0x8 DUP2 MSTORE SUB ADD SWAP1 KECCAK256 PUSH1 0x40 MLOAD SWAP7 DUP8 DUP1 SWAP3 PUSH2 0x1AC7 JUMP JUMPDEST SUB DUP7 PUSH2 0x1924 JUMP JUMPDEST PUSH2 0x146B DUP12 DUP4 PUSH1 0x40 MLOAD DUP1 SWAP3 MLOAD PUSH2 0x144E DUP2 DUP4 DUP9 PUSH2 0x199B JUMP JUMPDEST DUP2 ADD PUSH1 0x9 DUP2 MSTORE SUB ADD SWAP1 KECCAK256 PUSH1 0x40 MLOAD SWAP10 DUP11 DUP1 SWAP3 PUSH2 0x1AC7 JUMP JUMPDEST SUB DUP10 PUSH2 0x1924 JUMP JUMPDEST PUSH1 0x40 MLOAD DUP12 MLOAD PUSH2 0x147B DUP2 DUP4 DUP6 PUSH2 0x199B JUMP JUMPDEST DUP2 ADD SWAP1 PUSH1 0x4 DUP3 MSTORE DUP4 DUP2 PUSH1 0x1 DUP1 PUSH1 0xA0 SHL SUB SWAP4 SUB ADD SWAP1 KECCAK256 SLOAD AND SWAP11 PUSH2 0x41E PUSH1 0x40 MLOAD DUP5 DUP2 DUP5 MLOAD PUSH2 0x14A8 DUP2 DUP4 DUP10 PUSH2 0x199B JUMP JUMPDEST DUP2 ADD PUSH1 0x5 DUP2 MSTORE SUB ADD SWAP1 KECCAK256 PUSH1 0x40 MLOAD SWAP13 DUP14 DUP1 SWAP3 PUSH2 0x1AC7 JUMP JUMPDEST SUB DUP13 PUSH2 0x1924 JUMP JUMPDEST DUP2 ADD PUSH1 0x6 DUP2 MSTORE SUB ADD SWAP1 KECCAK256 PUSH1 0x40 MLOAD SWAP11 DUP12 DUP1 SWAP3 PUSH2 0x1AC7 JUMP JUMPDEST SUB DUP11 PUSH2 0x1924 JUMP JUMPDEST PUSH2 0x15DC PUSH1 0x40 MLOAD DUP1 SWAP14 DUP2 SWAP14 PUSH1 0xE0 DUP4 MSTORE PUSH2 0x1588 PUSH2 0x1571 PUSH2 0x155A PUSH2 0x1545 PUSH2 0x152E PUSH2 0x1517 DUP7 MLOAD PUSH2 0x160 PUSH1 0xE0 DUP12 ADD MSTORE PUSH2 0x240 DUP11 ADD SWAP1 PUSH2 0x19BE JUMP JUMPDEST PUSH1 0x20 DUP8 ADD MLOAD DUP10 DUP3 SUB PUSH1 0xDF NOT ADD PUSH2 0x100 DUP12 ADD MSTORE PUSH2 0x19BE JUMP JUMPDEST PUSH1 0x40 DUP7 ADD MLOAD DUP9 DUP3 SUB PUSH1 0xDF NOT ADD PUSH2 0x120 DUP11 ADD MSTORE PUSH2 0x19BE JUMP JUMPDEST PUSH1 0x60 DUP6 ADD MLOAD DUP8 DUP3 SUB PUSH1 0xDF NOT ADD DUP8 DUP10 ADD MSTORE PUSH2 0x19E3 JUMP JUMPDEST PUSH1 0x80 DUP5 ADD MLOAD DUP7 DUP3 SUB PUSH1 0xDF NOT ADD PUSH2 0x160 DUP9 ADD MSTORE PUSH2 0x19BE JUMP JUMPDEST PUSH1 0xA0 DUP4 ADD MLOAD DUP6 DUP3 SUB PUSH1 0xDF NOT ADD PUSH2 0x180 DUP8 ADD MSTORE PUSH2 0x19E3 JUMP JUMPDEST SWAP3 PUSH2 0x159C PUSH1 0xC0 DUP4 ADD MLOAD PUSH2 0x1A0 DUP4 ADD SWAP1 PUSH2 0x1A73 JUMP JUMPDEST PUSH2 0x15AF PUSH1 0xE0 DUP4 ADD MLOAD PUSH2 0x1C0 DUP4 ADD SWAP1 PUSH2 0x1A80 JUMP JUMPDEST PUSH2 0x100 DUP3 ADD MLOAD PUSH2 0x1E0 DUP3 ADD MSTORE PUSH2 0x120 DUP3 ADD MLOAD PUSH2 0x200 SWAP1 SWAP2 ADD MSTORE ADD MLOAD DUP14 DUP3 SUB PUSH1 0xDF NOT ADD PUSH2 0x220 DUP16 ADD MSTORE PUSH2 0x19BE JUMP JUMPDEST SWAP2 PUSH1 0x20 DUP13 ADD MSTORE DUP11 DUP3 SUB PUSH1 0x40 DUP13 ADD MSTORE PUSH2 0x19BE JUMP JUMPDEST SWAP1 DUP9 DUP3 SUB PUSH1 0x60 DUP11 ADD MSTORE PUSH2 0x19BE JUMP JUMPDEST SWAP2 PUSH1 0x80 DUP8 ADD MSTORE DUP6 DUP3 SUB PUSH1 0xA0 DUP8 ADD MSTORE PUSH2 0x19BE JUMP JUMPDEST SWAP1 DUP4 DUP3 SUB PUSH1 0xC0 DUP6 ADD MSTORE PUSH2 0x19BE JUMP JUMPDEST PUSH1 0x40 MLOAD PUSH3 0x461BCD PUSH1 0xE5 SHL DUP2 MSTORE PUSH1 0x20 PUSH1 0x4 DUP3 ADD MSTORE PUSH1 0x1B PUSH1 0x24 DUP3 ADD MSTORE PUSH32 0x4E6F206461746120666F756E64207769746820746869732049442E0000000000 PUSH1 0x44 DUP3 ADD MSTORE PUSH1 0x64 SWAP1 REVERT JUMPDEST CALLVALUE PUSH2 0x152 JUMPI PUSH1 0x20 CALLDATASIZE PUSH1 0x3 NOT ADD SLT PUSH2 0x152 JUMPI PUSH1 0x4 CALLDATALOAD PUSH1 0x1 PUSH1 0x1 PUSH1 0x40 SHL SUB DUP2 GT PUSH2 0x152 JUMPI PUSH2 0x1693 SWAP1 CALLDATASIZE SWAP1 PUSH1 0x4 ADD PUSH2 0x1945 JUMP JUMPDEST PUSH1 0x1 SLOAD PUSH1 0x20 DUP3 ADD SWAP2 PUSH1 0x0 DUP1 JUMPDEST DUP4 DUP2 LT PUSH2 0x1830 JUMPI POP PUSH2 0x16B0 DUP2 PUSH2 0x1D21 JUMP JUMPDEST SWAP3 PUSH2 0x16BA DUP3 PUSH2 0x1D21 JUMP JUMPDEST SWAP1 PUSH2 0x16CD PUSH2 0x16C7 DUP5 PUSH2 0x1D6B JUMP JUMPDEST SWAP4 PUSH2 0x1D6B JUMP JUMPDEST SWAP4 PUSH1 0x0 SWAP7 DUP8 JUMPDEST DUP4 DUP2 LT PUSH2 0x170C JUMPI PUSH2 0x928 DUP9 PUSH2 0x14E DUP10 PUSH2 0x944 DUP11 PUSH2 0x16FE DUP12 PUSH1 0x40 MLOAD SWAP8 DUP9 SWAP8 PUSH1 0x80 DUP10 MSTORE PUSH1 0x80 DUP10 ADD SWAP1 PUSH2 0x19E3 JUMP JUMPDEST SWAP1 DUP6 DUP3 SUB PUSH1 0x40 DUP8 ADD MSTORE PUSH2 0x1A3C JUMP JUMPDEST PUSH2 0x171A PUSH1 0x20 PUSH2 0x9F9 DUP4 PUSH2 0x1BC4 JUMP JUMPDEST PUSH1 0x8 DUP2 MSTORE SUB ADD SWAP1 KECCAK256 PUSH1 0x40 MLOAD PUSH2 0x1745 DUP2 PUSH2 0x1737 PUSH1 0x20 DUP3 ADD DUP1 SWAP6 PUSH2 0x1C8E JUMP JUMPDEST SUB PUSH1 0x1F NOT DUP2 ADD DUP4 MSTORE DUP3 PUSH2 0x1924 JUMP JUMPDEST MLOAD SWAP1 KECCAK256 PUSH1 0x40 MLOAD PUSH1 0x20 DUP2 ADD SWAP1 PUSH2 0x1774 PUSH1 0x20 DUP3 DUP9 MLOAD PUSH2 0x1763 DUP2 DUP8 DUP12 PUSH2 0x199B JUMP JUMPDEST DUP2 ADD SUB ADD PUSH1 0x1F NOT DUP2 ADD DUP4 MSTORE DUP3 PUSH2 0x1924 JUMP JUMPDEST MLOAD SWAP1 KECCAK256 EQ PUSH2 0x1785 JUMPI JUMPDEST PUSH1 0x1 ADD PUSH2 0x16D3 JUMP JUMPDEST SWAP8 PUSH2 0x133 PUSH2 0x1795 PUSH2 0x98D DUP12 PUSH2 0x1BC4 JUMP JUMPDEST PUSH2 0x179F DUP3 DUP11 PUSH2 0x1D9D JUMP JUMPDEST MSTORE PUSH2 0x17AA DUP2 DUP10 PUSH2 0x1D9D JUMP JUMPDEST POP PUSH1 0x2 PUSH2 0x17B9 PUSH2 0x9BE DUP12 PUSH2 0x1BC4 JUMP JUMPDEST PUSH2 0x17C3 DUP3 DUP8 PUSH2 0x1D9D JUMP JUMPDEST MSTORE PUSH2 0x17CE DUP2 DUP7 PUSH2 0x1D9D JUMP JUMPDEST POP PUSH1 0xFF PUSH1 0x6 PUSH2 0x17DC DUP12 PUSH2 0x1BC4 JUMP JUMPDEST POP ADD SLOAD PUSH1 0x8 SHR AND PUSH1 0x3 DUP2 LT ISZERO PUSH2 0x6C6 JUMPI PUSH2 0x17F6 DUP3 DUP9 PUSH2 0x1D9D JUMP JUMPDEST MSTORE PUSH1 0xFF PUSH1 0x6 PUSH2 0x1804 DUP12 PUSH2 0x1BC4 JUMP JUMPDEST POP ADD SLOAD AND PUSH1 0x2 DUP2 LT ISZERO PUSH2 0x6C6 JUMPI DUP2 PUSH2 0x1828 SWAP2 PUSH2 0x1822 PUSH1 0x1 SWAP5 DUP12 PUSH2 0x1D9D JUMP JUMPDEST MSTORE PUSH2 0x1CFC JUMP JUMPDEST SWAP9 SWAP1 POP PUSH2 0x177D JUMP JUMPDEST PUSH2 0x183E PUSH1 0x20 PUSH2 0x9F9 DUP4 PUSH2 0x1BC4 JUMP JUMPDEST PUSH1 0x8 DUP2 MSTORE SUB ADD SWAP1 KECCAK256 PUSH1 0x40 MLOAD PUSH2 0x185B DUP2 PUSH2 0x1737 PUSH1 0x20 DUP3 ADD DUP1 SWAP6 PUSH2 0x1C8E JUMP JUMPDEST MLOAD SWAP1 KECCAK256 PUSH1 0x40 MLOAD PUSH1 0x20 DUP2 ADD SWAP1 PUSH2 0x187B PUSH1 0x20 DUP3 DUP5 PUSH2 0x1763 DUP13 DUP12 MLOAD SWAP3 DUP4 SWAP2 PUSH2 0x199B JUMP JUMPDEST MLOAD SWAP1 KECCAK256 EQ PUSH2 0x188C JUMPI JUMPDEST PUSH1 0x1 ADD PUSH2 0x169F JUMP JUMPDEST SWAP1 PUSH2 0x1898 PUSH1 0x1 SWAP2 PUSH2 0x1CFC JUMP JUMPDEST SWAP2 SWAP1 POP PUSH2 0x1884 JUMP JUMPDEST CALLVALUE PUSH2 0x152 JUMPI PUSH1 0x20 CALLDATASIZE PUSH1 0x3 NOT ADD SLT PUSH2 0x152 JUMPI PUSH1 0x4 CALLDATALOAD PUSH1 0x1 PUSH1 0x1 PUSH1 0x40 SHL SUB DUP2 GT PUSH2 0x152 JUMPI PUSH2 0x18D2 PUSH1 0x20 SWAP2 CALLDATASIZE SWAP1 PUSH1 0x4 ADD PUSH2 0x1945 JUMP JUMPDEST DUP2 PUSH2 0x18E6 PUSH1 0x40 MLOAD SWAP3 DUP4 DUP2 MLOAD SWAP4 DUP5 SWAP3 ADD PUSH2 0x199B JUMP JUMPDEST PUSH1 0x4 SWAP1 DUP3 ADD SWAP1 DUP2 MSTORE DUP2 SWAP1 SUB DUP3 ADD SWAP1 KECCAK256 SLOAD PUSH1 0x40 MLOAD PUSH1 0x1 PUSH1 0x1 PUSH1 0xA0 SHL SUB SWAP1 SWAP2 AND DUP2 MSTORE RETURN JUMPDEST PUSH2 0x160 DUP2 ADD SWAP1 DUP2 LT PUSH1 0x1 PUSH1 0x1 PUSH1 0x40 SHL SUB DUP3 GT OR PUSH2 0x5F8 JUMPI PUSH1 0x40 MSTORE JUMP JUMPDEST SWAP1 PUSH1 0x1F DUP1 NOT SWAP2 ADD AND DUP2 ADD SWAP1 DUP2 LT PUSH1 0x1 PUSH1 0x1 PUSH1 0x40 SHL SUB DUP3 GT OR PUSH2 0x5F8 JUMPI PUSH1 0x40 MSTORE JUMP JUMPDEST DUP2 PUSH1 0x1F DUP3 ADD SLT ISZERO PUSH2 0x152 JUMPI DUP1 CALLDATALOAD SWAP1 PUSH1 0x1 PUSH1 0x1 PUSH1 0x40 SHL SUB DUP3 GT PUSH2 0x5F8 JUMPI PUSH1 0x40 MLOAD SWAP3 PUSH2 0x1979 PUSH1 0x1F DUP5 ADD PUSH1 0x1F NOT AND PUSH1 0x20 ADD DUP6 PUSH2 0x1924 JUMP JUMPDEST DUP3 DUP5 MSTORE PUSH1 0x20 DUP4 DUP4 ADD ADD GT PUSH2 0x152 JUMPI DUP2 PUSH1 0x0 SWAP3 PUSH1 0x20 DUP1 SWAP4 ADD DUP4 DUP7 ADD CALLDATACOPY DUP4 ADD ADD MSTORE SWAP1 JUMP JUMPDEST PUSH1 0x0 JUMPDEST DUP4 DUP2 LT PUSH2 0x19AE JUMPI POP POP PUSH1 0x0 SWAP2 ADD MSTORE JUMP JUMPDEST DUP2 DUP2 ADD MLOAD DUP4 DUP3 ADD MSTORE PUSH1 0x20 ADD PUSH2 0x199E JUMP JUMPDEST SWAP1 PUSH1 0x20 SWAP2 PUSH2 0x19D7 DUP2 MLOAD DUP1 SWAP3 DUP2 DUP6 MSTORE DUP6 DUP1 DUP7 ADD SWAP2 ADD PUSH2 0x199B JUMP JUMPDEST PUSH1 0x1F ADD PUSH1 0x1F NOT AND ADD ADD SWAP1 JUMP JUMPDEST SWAP1 DUP1 PUSH1 0x20 DUP4 MLOAD SWAP2 DUP3 DUP2 MSTORE ADD SWAP2 PUSH1 0x20 DUP1 DUP4 PUSH1 0x5 SHL DUP4 ADD ADD SWAP5 ADD SWAP3 PUSH1 0x0 SWAP2 JUMPDEST DUP4 DUP4 LT PUSH2 0x1A0F JUMPI POP POP POP POP POP SWAP1 JUMP JUMPDEST SWAP1 SWAP2 SWAP3 SWAP4 SWAP5 PUSH1 0x20 DUP1 PUSH2 0x1A2D PUSH1 0x1 SWAP4 PUSH1 0x1F NOT DUP7 DUP3 SUB ADD DUP8 MSTORE DUP10 MLOAD PUSH2 0x19BE JUMP JUMPDEST SWAP8 ADD SWAP4 ADD SWAP4 ADD SWAP2 SWAP4 SWAP3 SWAP1 PUSH2 0x1A00 JUMP JUMPDEST SWAP1 PUSH1 0x20 DUP1 DUP4 MLOAD SWAP3 DUP4 DUP2 MSTORE ADD SWAP3 ADD SWAP1 PUSH1 0x0 JUMPDEST DUP2 DUP2 LT PUSH2 0x1A5A JUMPI POP POP POP SWAP1 JUMP JUMPDEST DUP3 MLOAD PUSH1 0xFF AND DUP5 MSTORE PUSH1 0x20 SWAP4 DUP5 ADD SWAP4 SWAP1 SWAP3 ADD SWAP2 PUSH1 0x1 ADD PUSH2 0x1A4D JUMP JUMPDEST SWAP1 PUSH1 0x2 DUP3 LT ISZERO PUSH2 0x6C6 JUMPI MSTORE JUMP JUMPDEST SWAP1 PUSH1 0x3 DUP3 LT ISZERO PUSH2 0x6C6 JUMPI MSTORE JUMP JUMPDEST SWAP1 PUSH1 0x1 DUP3 DUP2 SHR SWAP3 AND DUP1 ISZERO PUSH2 0x1ABD JUMPI JUMPDEST PUSH1 0x20 DUP4 LT EQ PUSH2 0x1AA7 JUMPI JUMP JUMPDEST PUSH4 0x4E487B71 PUSH1 0xE0 SHL PUSH1 0x0 MSTORE PUSH1 0x22 PUSH1 0x4 MSTORE PUSH1 0x24 PUSH1 0x0 REVERT JUMPDEST SWAP2 PUSH1 0x7F AND SWAP2 PUSH2 0x1A9C JUMP JUMPDEST PUSH1 0x0 SWAP3 SWAP2 DUP2 SLOAD SWAP2 PUSH2 0x1AD7 DUP4 PUSH2 0x1A8D JUMP JUMPDEST DUP1 DUP4 MSTORE SWAP3 PUSH1 0x1 DUP2 AND SWAP1 DUP2 ISZERO PUSH2 0x1B2D JUMPI POP PUSH1 0x1 EQ PUSH2 0x1AF3 JUMPI POP POP POP JUMP JUMPDEST PUSH1 0x0 SWAP1 DUP2 MSTORE PUSH1 0x20 DUP2 KECCAK256 SWAP4 SWAP5 POP SWAP2 SWAP3 JUMPDEST DUP4 DUP4 LT PUSH2 0x1B13 JUMPI POP PUSH1 0x20 SWAP3 POP ADD ADD SWAP1 JUMP JUMPDEST PUSH1 0x1 DUP2 PUSH1 0x20 SWAP3 SWAP5 SWAP4 SWAP5 SLOAD DUP4 DUP6 DUP8 ADD ADD MSTORE ADD SWAP2 ADD SWAP2 SWAP1 PUSH2 0x1B02 JUMP JUMPDEST SWAP2 POP POP PUSH1 0x20 SWAP4 SWAP5 POP PUSH1 0xFF SWAP3 SWAP2 SWAP3 NOT AND DUP4 DUP4 ADD MSTORE ISZERO ISZERO PUSH1 0x5 SHL ADD ADD SWAP1 JUMP JUMPDEST SWAP6 SWAP2 PUSH2 0x1BC1 SWAP10 SWAP8 SWAP5 PUSH2 0x15EF PUSH2 0x1BA9 SWAP6 PUSH2 0x1B86 PUSH2 0x1B94 SWAP5 PUSH2 0x1B78 PUSH2 0x1B9F SWAP8 SWAP12 SWAP15 SWAP12 PUSH2 0x120 DUP15 DUP2 DUP2 MSTORE ADD SWAP1 PUSH2 0x19BE JUMP JUMPDEST DUP13 DUP2 SUB PUSH1 0x20 DUP15 ADD MSTORE SWAP1 PUSH2 0x19BE JUMP JUMPDEST SWAP1 DUP11 DUP3 SUB PUSH1 0x40 DUP13 ADD MSTORE PUSH2 0x19BE JUMP JUMPDEST SWAP8 PUSH1 0x80 DUP8 ADD SWAP1 PUSH2 0x1A73 JUMP JUMPDEST PUSH1 0xA0 DUP6 ADD SWAP1 PUSH2 0x1A80 JUMP JUMPDEST PUSH1 0xC0 DUP4 ADD MSTORE PUSH1 0xE0 DUP3 ADD MSTORE PUSH2 0x100 DUP2 DUP5 SUB SWAP2 ADD MSTORE PUSH2 0x19BE JUMP JUMPDEST SWAP1 JUMP JUMPDEST PUSH1 0x1 SLOAD DUP2 LT ISZERO PUSH2 0x1BE3 JUMPI PUSH1 0x1 PUSH1 0x0 MSTORE PUSH1 0xA PUSH1 0x20 PUSH1 0x0 KECCAK256 SWAP2 MUL ADD SWAP1 PUSH1 0x0 SWAP1 JUMP JUMPDEST PUSH4 0x4E487B71 PUSH1 0xE0 SHL PUSH1 0x0 MSTORE PUSH1 0x32 PUSH1 0x4 MSTORE PUSH1 0x24 PUSH1 0x0 REVERT JUMPDEST PUSH1 0x1 PUSH1 0x1 PUSH1 0x40 SHL SUB DUP2 GT PUSH2 0x5F8 JUMPI PUSH1 0x5 SHL PUSH1 0x20 ADD SWAP1 JUMP JUMPDEST SWAP1 DUP1 PUSH1 0x1F DUP4 ADD SLT ISZERO PUSH2 0x152 JUMPI DUP2 CALLDATALOAD PUSH2 0x1C27 DUP2 PUSH2 0x1BF9 JUMP JUMPDEST SWAP3 PUSH2 0x1C35 PUSH1 0x40 MLOAD SWAP5 DUP6 PUSH2 0x1924 JUMP JUMPDEST DUP2 DUP5 MSTORE PUSH1 0x20 DUP1 DUP6 ADD SWAP3 PUSH1 0x5 SHL DUP3 ADD ADD SWAP2 DUP4 DUP4 GT PUSH2 0x152 JUMPI PUSH1 0x20 DUP3 ADD SWAP1 JUMPDEST DUP4 DUP3 LT PUSH2 0x1C61 JUMPI POP POP POP POP POP SWAP1 JUMP JUMPDEST DUP2 CALLDATALOAD PUSH1 0x1 PUSH1 0x1 PUSH1 0x40 SHL SUB DUP2 GT PUSH2 0x152 JUMPI PUSH1 0x20 SWAP2 PUSH2 0x1C83 DUP8 DUP5 DUP1 SWAP5 DUP9 ADD ADD PUSH2 0x1945 JUMP JUMPDEST DUP2 MSTORE ADD SWAP2 ADD SWAP1 PUSH2 0x1C52 JUMP JUMPDEST PUSH1 0x0 SWAP3 SWAP2 DUP2 SLOAD SWAP2 PUSH2 0x1C9E DUP4 PUSH2 0x1A8D JUMP JUMPDEST SWAP3 PUSH1 0x1 DUP2 AND SWAP1 DUP2 ISZERO PUSH2 0x1CE9 JUMPI POP PUSH1 0x1 EQ PUSH2 0x1CB7 JUMPI POP POP POP JUMP JUMPDEST SWAP1 SWAP2 SWAP3 SWAP4 POP PUSH1 0x0 MSTORE PUSH1 0x20 PUSH1 0x0 KECCAK256 PUSH1 0x0 SWAP1 JUMPDEST DUP4 DUP3 LT PUSH2 0x1CD5 JUMPI POP POP ADD SWAP1 JUMP JUMPDEST PUSH1 0x1 DUP2 PUSH1 0x20 SWAP3 SLOAD DUP5 DUP7 ADD MSTORE ADD SWAP2 ADD SWAP1 PUSH2 0x1CC8 JUMP JUMPDEST PUSH1 0xFF NOT AND DUP4 MSTORE POP POP DUP2 ISZERO ISZERO SWAP1 SWAP2 MUL ADD SWAP2 POP JUMP JUMPDEST PUSH1 0x0 NOT DUP2 EQ PUSH2 0x1D0B JUMPI PUSH1 0x1 ADD SWAP1 JUMP JUMPDEST PUSH4 0x4E487B71 PUSH1 0xE0 SHL PUSH1 0x0 MSTORE PUSH1 0x11 PUSH1 0x4 MSTORE PUSH1 0x24 PUSH1 0x0 REVERT JUMPDEST SWAP1 PUSH2 0x1D2B DUP3 PUSH2 0x1BF9 JUMP JUMPDEST PUSH2 0x1D38 PUSH1 0x40 MLOAD SWAP2 DUP3 PUSH2 0x1924 JUMP JUMPDEST DUP3 DUP2 MSTORE DUP1 SWAP3 PUSH2 0x1D49 PUSH1 0x1F NOT SWAP2 PUSH2 0x1BF9 JUMP JUMPDEST ADD SWAP1 PUSH1 0x0 JUMPDEST DUP3 DUP2 LT PUSH2 0x1D5A JUMPI POP POP POP JUMP JUMPDEST DUP1 PUSH1 0x60 PUSH1 0x20 DUP1 SWAP4 DUP6 ADD ADD MSTORE ADD PUSH2 0x1D4E JUMP JUMPDEST SWAP1 PUSH2 0x1D75 DUP3 PUSH2 0x1BF9 JUMP JUMPDEST PUSH2 0x1D82 PUSH1 0x40 MLOAD SWAP2 DUP3 PUSH2 0x1924 JUMP JUMPDEST DUP3 DUP2 MSTORE DUP1 SWAP3 PUSH2 0x1D93 PUSH1 0x1F NOT SWAP2 PUSH2 0x1BF9 JUMP JUMPDEST ADD SWAP1 PUSH1 0x20 CALLDATASIZE SWAP2 ADD CALLDATACOPY JUMP JUMPDEST DUP1 MLOAD DUP3 LT ISZERO PUSH2 0x1BE3 JUMPI PUSH1 0x20 SWAP2 PUSH1 0x5 SHL ADD ADD SWAP1 JUMP JUMPDEST SWAP1 DUP2 SLOAD PUSH2 0x1DBD DUP2 PUSH2 0x1BF9 JUMP JUMPDEST SWAP3 PUSH2 0x1DCB PUSH1 0x40 MLOAD SWAP5 DUP6 PUSH2 0x1924 JUMP JUMPDEST DUP2 DUP5 MSTORE PUSH1 0x20 DUP5 ADD SWAP1 PUSH1 0x0 MSTORE PUSH1 0x20 PUSH1 0x0 KECCAK256 PUSH1 0x0 SWAP2 JUMPDEST DUP4 DUP4 LT PUSH2 0x1DEC JUMPI POP POP POP POP JUMP JUMPDEST PUSH1 0x1 PUSH1 0x20 DUP2 SWAP3 PUSH1 0x40 MLOAD PUSH2 0x1E03 DUP2 PUSH2 0x133 DUP2 DUP10 PUSH2 0x1AC7 JUMP JUMPDEST DUP2 MSTORE ADD SWAP3 ADD SWAP3 ADD SWAP2 SWAP1 PUSH2 0x1DDF JUMP JUMPDEST PUSH1 0x2 DUP3 LT ISZERO PUSH2 0x6C6 JUMPI MSTORE JUMP JUMPDEST DUP2 DUP2 LT PUSH2 0x1E28 JUMPI POP POP JUMP JUMPDEST PUSH1 0x0 DUP2 SSTORE PUSH1 0x1 ADD PUSH2 0x1E1D JUMP JUMPDEST PUSH2 0x1E4A PUSH2 0x1BC1 SWAP5 SWAP3 PUSH1 0x60 DUP4 MSTORE PUSH1 0x60 DUP4 ADD SWAP1 PUSH2 0x19BE JUMP JUMPDEST SWAP3 PUSH1 0x20 DUP3 ADD MSTORE PUSH1 0x40 DUP2 DUP5 SUB SWAP2 ADD MSTORE PUSH2 0x1AC7 JUMP JUMPDEST ISZERO PUSH2 0x1E64 JUMPI JUMP JUMPDEST PUSH1 0x40 MLOAD PUSH3 0x461BCD PUSH1 0xE5 SHL DUP2 MSTORE PUSH1 0x20 PUSH1 0x4 DUP3 ADD MSTORE PUSH1 0x21 PUSH1 0x24 DUP3 ADD MSTORE PUSH32 0x416363657373207265737472696374656420746F20466163746F727920726F6C PUSH1 0x44 DUP3 ADD MSTORE PUSH1 0x65 PUSH1 0xF8 SHL PUSH1 0x64 DUP3 ADD MSTORE PUSH1 0x84 SWAP1 REVERT JUMPDEST SWAP1 SWAP2 DUP3 MLOAD SWAP3 DUP4 MLOAD PUSH1 0x1 PUSH1 0x1 PUSH1 0x40 SHL SUB DUP2 GT PUSH2 0x5F8 JUMPI PUSH2 0x1ED2 DUP5 SLOAD PUSH2 0x1A8D JUMP JUMPDEST PUSH1 0x1F DUP2 GT PUSH2 0x277C JUMPI JUMPDEST POP PUSH1 0x20 SWAP5 PUSH1 0x1F DUP3 GT PUSH1 0x1 EQ PUSH2 0x2717 JUMPI PUSH2 0x1F0F SWAP3 SWAP4 SWAP5 SWAP6 DUP3 SWAP2 PUSH1 0x0 SWAP3 PUSH2 0x2175 JUMPI POP POP DUP2 PUSH1 0x1 SHL SWAP2 PUSH1 0x0 NOT SWAP1 PUSH1 0x3 SHL SHR NOT AND OR SWAP1 JUMP JUMPDEST DUP4 SSTORE JUMPDEST PUSH1 0x1 DUP4 ADD PUSH1 0x20 DUP3 ADD MLOAD DUP1 MLOAD SWAP1 PUSH1 0x1 PUSH1 0x1 PUSH1 0x40 SHL SUB DUP3 GT PUSH2 0x5F8 JUMPI PUSH2 0x1F36 DUP4 SLOAD PUSH2 0x1A8D JUMP JUMPDEST PUSH1 0x1F DUP2 GT PUSH2 0x26E5 JUMPI JUMPDEST POP PUSH1 0x20 SWAP1 PUSH1 0x1F DUP4 GT PUSH1 0x1 EQ PUSH2 0x267E JUMPI PUSH2 0x1F70 SWAP3 SWAP2 PUSH1 0x0 SWAP2 DUP4 PUSH2 0x2175 JUMPI POP POP DUP2 PUSH1 0x1 SHL SWAP2 PUSH1 0x0 NOT SWAP1 PUSH1 0x3 SHL SHR NOT AND OR SWAP1 JUMP JUMPDEST SWAP1 SSTORE JUMPDEST PUSH1 0x2 DUP4 ADD PUSH1 0x40 DUP3 ADD MLOAD DUP1 MLOAD SWAP1 PUSH1 0x1 PUSH1 0x1 PUSH1 0x40 SHL SUB DUP3 GT PUSH2 0x5F8 JUMPI PUSH2 0x1F97 DUP4 SLOAD PUSH2 0x1A8D JUMP JUMPDEST PUSH1 0x1F DUP2 GT PUSH2 0x264C JUMPI JUMPDEST POP PUSH1 0x20 SWAP1 PUSH1 0x1F DUP4 GT PUSH1 0x1 EQ PUSH2 0x25E5 JUMPI PUSH2 0x1FD1 SWAP3 SWAP2 PUSH1 0x0 SWAP2 DUP4 PUSH2 0x2175 JUMPI POP POP DUP2 PUSH1 0x1 SHL SWAP2 PUSH1 0x0 NOT SWAP1 PUSH1 0x3 SHL SHR NOT AND OR SWAP1 JUMP JUMPDEST SWAP1 SSTORE JUMPDEST PUSH1 0x3 DUP4 ADD PUSH1 0x60 DUP3 ADD MLOAD DUP1 MLOAD SWAP1 PUSH1 0x1 PUSH1 0x40 SHL DUP3 GT PUSH2 0x5F8 JUMPI DUP3 SLOAD DUP3 DUP5 SSTORE DUP1 DUP4 LT PUSH2 0x2567 JUMPI JUMPDEST POP PUSH1 0x20 ADD SWAP2 PUSH1 0x0 MSTORE PUSH1 0x20 PUSH1 0x0 KECCAK256 SWAP2 PUSH1 0x0 SWAP1 JUMPDEST DUP3 DUP3 LT PUSH2 0x245A JUMPI POP POP POP POP PUSH1 0x4 DUP4 ADD PUSH1 0x80 DUP3 ADD MLOAD DUP1 MLOAD SWAP1 PUSH1 0x1 PUSH1 0x1 PUSH1 0x40 SHL SUB DUP3 GT PUSH2 0x5F8 JUMPI PUSH2 0x2039 DUP4 SLOAD PUSH2 0x1A8D JUMP JUMPDEST PUSH1 0x1F DUP2 GT PUSH2 0x2428 JUMPI JUMPDEST POP PUSH1 0x20 SWAP1 PUSH1 0x1F DUP4 GT PUSH1 0x1 EQ PUSH2 0x23C1 JUMPI PUSH2 0x2073 SWAP3 SWAP2 PUSH1 0x0 SWAP2 DUP4 PUSH2 0x2175 JUMPI POP POP DUP2 PUSH1 0x1 SHL SWAP2 PUSH1 0x0 NOT SWAP1 PUSH1 0x3 SHL SHR NOT AND OR SWAP1 JUMP JUMPDEST SWAP1 SSTORE JUMPDEST PUSH1 0x5 DUP4 ADD PUSH1 0xA0 DUP3 ADD MLOAD DUP1 MLOAD SWAP1 PUSH1 0x1 PUSH1 0x40 SHL DUP3 GT PUSH2 0x5F8 JUMPI DUP3 SLOAD DUP3 DUP5 SSTORE DUP1 DUP4 LT PUSH2 0x2343 JUMPI JUMPDEST POP PUSH1 0x20 ADD SWAP2 PUSH1 0x0 MSTORE PUSH1 0x20 PUSH1 0x0 KECCAK256 SWAP2 PUSH1 0x0 SWAP1 JUMPDEST DUP3 DUP3 LT PUSH2 0x2236 JUMPI POP POP POP POP PUSH1 0xC0 DUP2 ADD MLOAD SWAP3 PUSH1 0x6 DUP2 ADD PUSH1 0x2 DUP6 LT ISZERO PUSH2 0x6C6 JUMPI PUSH1 0x0 SWAP5 PUSH1 0xFF DUP1 NOT DUP4 SLOAD AND SWAP2 AND OR DUP2 SSTORE PUSH1 0xE0 DUP4 ADD MLOAD PUSH1 0x3 DUP2 LT ISZERO PUSH2 0x2222 JUMPI SWAP2 PUSH1 0x9 SWAP2 PUSH2 0x140 SWAP4 PUSH2 0xFF00 DUP3 SLOAD SWAP2 PUSH1 0x8 SHL AND SWAP1 PUSH2 0xFF00 NOT AND OR SWAP1 SSTORE PUSH2 0x100 DUP5 ADD MLOAD PUSH1 0x7 DUP3 ADD SSTORE PUSH2 0x120 DUP5 ADD MLOAD PUSH1 0x8 DUP3 ADD SSTORE ADD SWAP2 ADD MLOAD SWAP3 DUP4 MLOAD SWAP1 PUSH1 0x1 PUSH1 0x1 PUSH1 0x40 SHL SUB DUP3 GT PUSH2 0x220E JUMPI PUSH2 0x2138 DUP4 SLOAD PUSH2 0x1A8D JUMP JUMPDEST PUSH1 0x1F DUP2 GT PUSH2 0x21DE JUMPI JUMPDEST POP PUSH1 0x20 SWAP1 PUSH1 0x1F DUP4 GT PUSH1 0x1 EQ PUSH2 0x2180 JUMPI SWAP1 PUSH2 0x2171 SWAP4 SWAP5 SWAP6 DUP4 PUSH2 0x2175 JUMPI POP POP DUP2 PUSH1 0x1 SHL SWAP2 PUSH1 0x0 NOT SWAP1 PUSH1 0x3 SHL SHR NOT AND OR SWAP1 JUMP JUMPDEST SWAP1 SSTORE JUMP JUMPDEST ADD MLOAD SWAP1 POP CODESIZE DUP1 PUSH2 0xC74 JUMP JUMPDEST SWAP1 PUSH1 0x1F NOT DUP4 AND DUP5 DUP4 MSTORE DUP2 DUP4 KECCAK256 SWAP3 JUMPDEST DUP2 DUP2 LT PUSH2 0x21C6 JUMPI POP SWAP6 DUP4 PUSH1 0x1 SWAP6 SWAP7 SWAP8 LT PUSH2 0x21AD JUMPI JUMPDEST POP POP POP DUP2 SHL ADD SWAP1 SSTORE JUMP JUMPDEST ADD MLOAD PUSH1 0x0 NOT PUSH1 0xF8 DUP5 PUSH1 0x3 SHL AND SHR NOT AND SWAP1 SSTORE CODESIZE DUP1 DUP1 PUSH2 0x21A3 JUMP JUMPDEST SWAP2 SWAP3 PUSH1 0x20 PUSH1 0x1 DUP2 SWAP3 DUP7 DUP12 ADD MLOAD DUP2 SSTORE ADD SWAP5 ADD SWAP3 ADD PUSH2 0x218E JUMP JUMPDEST PUSH2 0x2208 SWAP1 DUP5 DUP4 MSTORE PUSH1 0x20 DUP4 KECCAK256 PUSH1 0x1F DUP6 ADD PUSH1 0x5 SHR DUP2 ADD SWAP2 PUSH1 0x20 DUP7 LT PUSH2 0x5EE JUMPI PUSH1 0x1F ADD PUSH1 0x5 SHR ADD SWAP1 PUSH2 0x1E1D JUMP JUMPDEST CODESIZE PUSH2 0x2141 JUMP JUMPDEST PUSH4 0x4E487B71 PUSH1 0xE0 SHL DUP2 MSTORE PUSH1 0x41 PUSH1 0x4 MSTORE PUSH1 0x24 SWAP1 REVERT JUMPDEST PUSH4 0x4E487B71 PUSH1 0xE0 SHL DUP7 MSTORE PUSH1 0x21 PUSH1 0x4 MSTORE PUSH1 0x24 DUP7 REVERT JUMPDEST DUP1 MLOAD DUP1 MLOAD SWAP1 PUSH1 0x1 PUSH1 0x1 PUSH1 0x40 SHL SUB DUP3 GT PUSH2 0x5F8 JUMPI PUSH2 0x2253 DUP7 SLOAD PUSH2 0x1A8D JUMP JUMPDEST PUSH1 0x1F DUP2 GT PUSH2 0x2311 JUMPI JUMPDEST POP PUSH1 0x20 SWAP1 PUSH1 0x1F DUP4 GT PUSH1 0x1 EQ PUSH2 0x22A4 JUMPI SWAP3 PUSH2 0x2295 DUP4 PUSH1 0x1 SWAP6 SWAP5 PUSH1 0x20 SWAP5 DUP8 SWAP7 PUSH1 0x0 SWAP3 PUSH2 0x2175 JUMPI POP POP DUP2 PUSH1 0x1 SHL SWAP2 PUSH1 0x0 NOT SWAP1 PUSH1 0x3 SHL SHR NOT AND OR SWAP1 JUMP JUMPDEST DUP8 SSTORE JUMPDEST ADD SWAP5 ADD SWAP2 ADD SWAP1 SWAP3 PUSH2 0x20AC JUMP JUMPDEST SWAP1 PUSH1 0x1F NOT DUP4 AND SWAP2 DUP8 PUSH1 0x0 MSTORE DUP2 PUSH1 0x0 KECCAK256 SWAP3 PUSH1 0x0 JUMPDEST DUP2 DUP2 LT PUSH2 0x22F9 JUMPI POP SWAP4 PUSH1 0x20 SWAP4 PUSH1 0x1 SWAP7 SWAP4 DUP8 SWAP7 SWAP4 DUP4 DUP9 SWAP6 LT PUSH2 0x22E0 JUMPI JUMPDEST POP POP POP DUP2 SHL ADD DUP8 SSTORE PUSH2 0x2298 JUMP JUMPDEST ADD MLOAD PUSH1 0x0 NOT PUSH1 0xF8 DUP5 PUSH1 0x3 SHL AND SHR NOT AND SWAP1 SSTORE CODESIZE DUP1 DUP1 PUSH2 0x22D3 JUMP JUMPDEST SWAP3 SWAP4 PUSH1 0x20 PUSH1 0x1 DUP2 SWAP3 DUP8 DUP7 ADD MLOAD DUP2 SSTORE ADD SWAP6 ADD SWAP4 ADD PUSH2 0x22B7 JUMP JUMPDEST PUSH2 0x233D SWAP1 DUP8 PUSH1 0x0 MSTORE PUSH1 0x20 PUSH1 0x0 KECCAK256 PUSH1 0x1F DUP6 ADD PUSH1 0x5 SHR DUP2 ADD SWAP2 PUSH1 0x20 DUP7 LT PUSH2 0x5EE JUMPI PUSH1 0x1F ADD PUSH1 0x5 SHR ADD SWAP1 PUSH2 0x1E1D JUMP JUMPDEST CODESIZE PUSH2 0x225C JUMP JUMPDEST DUP4 PUSH1 0x0 MSTORE DUP3 PUSH1 0x20 PUSH1 0x0 KECCAK256 SWAP2 DUP3 ADD SWAP2 ADD JUMPDEST DUP2 DUP2 LT PUSH2 0x2360 JUMPI POP PUSH2 0x209A JUMP JUMPDEST DUP1 PUSH2 0x236D PUSH1 0x1 SWAP3 SLOAD PUSH2 0x1A8D JUMP JUMPDEST DUP1 PUSH2 0x237A JUMPI JUMPDEST POP ADD PUSH2 0x2353 JUMP JUMPDEST PUSH1 0x1F DUP2 GT DUP4 EQ PUSH2 0x2390 JUMPI POP PUSH1 0x0 DUP2 SSTORE JUMPDEST CODESIZE PUSH2 0x2373 JUMP JUMPDEST PUSH2 0x23AE SWAP1 DUP3 PUSH1 0x0 MSTORE DUP4 PUSH1 0x1F PUSH1 0x20 PUSH1 0x0 KECCAK256 SWAP3 ADD PUSH1 0x5 SHR DUP3 ADD SWAP2 ADD PUSH2 0x1E1D JUMP JUMPDEST DUP1 PUSH1 0x0 MSTORE PUSH1 0x0 PUSH1 0x20 DUP2 KECCAK256 DUP2 DUP4 SSTORE SSTORE PUSH2 0x238A JUMP JUMPDEST SWAP1 PUSH1 0x1F NOT DUP4 AND SWAP2 DUP5 PUSH1 0x0 MSTORE DUP2 PUSH1 0x0 KECCAK256 SWAP3 PUSH1 0x0 JUMPDEST DUP2 DUP2 LT PUSH2 0x2410 JUMPI POP SWAP1 DUP5 PUSH1 0x1 SWAP6 SWAP5 SWAP4 SWAP3 LT PUSH2 0x23F7 JUMPI JUMPDEST POP POP POP DUP2 SHL ADD SWAP1 SSTORE PUSH2 0x2076 JUMP JUMPDEST ADD MLOAD PUSH1 0x0 NOT PUSH1 0xF8 DUP5 PUSH1 0x3 SHL AND SHR NOT AND SWAP1 SSTORE CODESIZE DUP1 DUP1 PUSH2 0x23EA JUMP JUMPDEST SWAP3 SWAP4 PUSH1 0x20 PUSH1 0x1 DUP2 SWAP3 DUP8 DUP7 ADD MLOAD DUP2 SSTORE ADD SWAP6 ADD SWAP4 ADD PUSH2 0x23D4 JUMP JUMPDEST PUSH2 0x2454 SWAP1 DUP5 PUSH1 0x0 MSTORE PUSH1 0x20 PUSH1 0x0 KECCAK256 PUSH1 0x1F DUP6 ADD PUSH1 0x5 SHR DUP2 ADD SWAP2 PUSH1 0x20 DUP7 LT PUSH2 0x5EE JUMPI PUSH1 0x1F ADD PUSH1 0x5 SHR ADD SWAP1 PUSH2 0x1E1D JUMP JUMPDEST CODESIZE PUSH2 0x2042 JUMP JUMPDEST DUP1 MLOAD DUP1 MLOAD SWAP1 PUSH1 0x1 PUSH1 0x1 PUSH1 0x40 SHL SUB DUP3 GT PUSH2 0x5F8 JUMPI PUSH2 0x2477 DUP7 SLOAD PUSH2 0x1A8D JUMP JUMPDEST PUSH1 0x1F DUP2 GT PUSH2 0x2535 JUMPI JUMPDEST POP PUSH1 0x20 SWAP1 PUSH1 0x1F DUP4 GT PUSH1 0x1 EQ PUSH2 0x24C8 JUMPI SWAP3 PUSH2 0x24B9 DUP4 PUSH1 0x1 SWAP6 SWAP5 PUSH1 0x20 SWAP5 DUP8 SWAP7 PUSH1 0x0 SWAP3 PUSH2 0x2175 JUMPI POP POP DUP2 PUSH1 0x1 SHL SWAP2 PUSH1 0x0 NOT SWAP1 PUSH1 0x3 SHL SHR NOT AND OR SWAP1 JUMP JUMPDEST DUP8 SSTORE JUMPDEST ADD SWAP5 ADD SWAP2 ADD SWAP1 SWAP3 PUSH2 0x200A JUMP JUMPDEST SWAP1 PUSH1 0x1F NOT DUP4 AND SWAP2 DUP8 PUSH1 0x0 MSTORE DUP2 PUSH1 0x0 KECCAK256 SWAP3 PUSH1 0x0 JUMPDEST DUP2 DUP2 LT PUSH2 0x251D JUMPI POP SWAP4 PUSH1 0x20 SWAP4 PUSH1 0x1 SWAP7 SWAP4 DUP8 SWAP7 SWAP4 DUP4 DUP9 SWAP6 LT PUSH2 0x2504 JUMPI JUMPDEST POP POP POP DUP2 SHL ADD DUP8 SSTORE PUSH2 0x24BC JUMP JUMPDEST ADD MLOAD PUSH1 0x0 NOT PUSH1 0xF8 DUP5 PUSH1 0x3 SHL AND SHR NOT AND SWAP1 SSTORE CODESIZE DUP1 DUP1 PUSH2 0x24F7 JUMP JUMPDEST SWAP3 SWAP4 PUSH1 0x20 PUSH1 0x1 DUP2 SWAP3 DUP8 DUP7 ADD MLOAD DUP2 SSTORE ADD SWAP6 ADD SWAP4 ADD PUSH2 0x24DB JUMP JUMPDEST PUSH2 0x2561 SWAP1 DUP8 PUSH1 0x0 MSTORE PUSH1 0x20 PUSH1 0x0 KECCAK256 PUSH1 0x1F DUP6 ADD PUSH1 0x5 SHR DUP2 ADD SWAP2 PUSH1 0x20 DUP7 LT PUSH2 0x5EE JUMPI PUSH1 0x1F ADD PUSH1 0x5 SHR ADD SWAP1 PUSH2 0x1E1D JUMP JUMPDEST CODESIZE PUSH2 0x2480 JUMP JUMPDEST DUP4 PUSH1 0x0 MSTORE DUP3 PUSH1 0x20 PUSH1 0x0 KECCAK256 SWAP2 DUP3 ADD SWAP2 ADD JUMPDEST DUP2 DUP2 LT PUSH2 0x2584 JUMPI POP PUSH2 0x1FF8 JUMP JUMPDEST DUP1 PUSH2 0x2591 PUSH1 0x1 SWAP3 SLOAD PUSH2 0x1A8D JUMP JUMPDEST DUP1 PUSH2 0x259E JUMPI JUMPDEST POP ADD PUSH2 0x2577 JUMP JUMPDEST PUSH1 0x1F DUP2 GT DUP4 EQ PUSH2 0x25B4 JUMPI POP PUSH1 0x0 DUP2 SSTORE JUMPDEST CODESIZE PUSH2 0x2597 JUMP JUMPDEST PUSH2 0x25D2 SWAP1 DUP3 PUSH1 0x0 MSTORE DUP4 PUSH1 0x1F PUSH1 0x20 PUSH1 0x0 KECCAK256 SWAP3 ADD PUSH1 0x5 SHR DUP3 ADD SWAP2 ADD PUSH2 0x1E1D JUMP JUMPDEST DUP1 PUSH1 0x0 MSTORE PUSH1 0x0 PUSH1 0x20 DUP2 KECCAK256 DUP2 DUP4 SSTORE SSTORE PUSH2 0x25AE JUMP JUMPDEST SWAP1 PUSH1 0x1F NOT DUP4 AND SWAP2 DUP5 PUSH1 0x0 MSTORE DUP2 PUSH1 0x0 KECCAK256 SWAP3 PUSH1 0x0 JUMPDEST DUP2 DUP2 LT PUSH2 0x2634 JUMPI POP SWAP1 DUP5 PUSH1 0x1 SWAP6 SWAP5 SWAP4 SWAP3 LT PUSH2 0x261B JUMPI JUMPDEST POP POP POP DUP2 SHL ADD SWAP1 SSTORE PUSH2 0x1FD4 JUMP JUMPDEST ADD MLOAD PUSH1 0x0 NOT PUSH1 0xF8 DUP5 PUSH1 0x3 SHL AND SHR NOT AND SWAP1 SSTORE CODESIZE DUP1 DUP1 PUSH2 0x260E JUMP JUMPDEST SWAP3 SWAP4 PUSH1 0x20 PUSH1 0x1 DUP2 SWAP3 DUP8 DUP7 ADD MLOAD DUP2 SSTORE ADD SWAP6 ADD SWAP4 ADD PUSH2 0x25F8 JUMP JUMPDEST PUSH2 0x2678 SWAP1 DUP5 PUSH1 0x0 MSTORE PUSH1 0x20 PUSH1 0x0 KECCAK256 PUSH1 0x1F DUP6 ADD PUSH1 0x5 SHR DUP2 ADD SWAP2 PUSH1 0x20 DUP7 LT PUSH2 0x5EE JUMPI PUSH1 0x1F ADD PUSH1 0x5 SHR ADD SWAP1 PUSH2 0x1E1D JUMP JUMPDEST CODESIZE PUSH2 0x1FA0 JUMP JUMPDEST SWAP1 PUSH1 0x1F NOT DUP4 AND SWAP2 DUP5 PUSH1 0x0 MSTORE DUP2 PUSH1 0x0 KECCAK256 SWAP3 PUSH1 0x0 JUMPDEST DUP2 DUP2 LT PUSH2 0x26CD JUMPI POP SWAP1 DUP5 PUSH1 0x1 SWAP6 SWAP5 SWAP4 SWAP3 LT PUSH2 0x26B4 JUMPI JUMPDEST POP POP POP DUP2 SHL ADD SWAP1 SSTORE PUSH2 0x1F73 JUMP JUMPDEST ADD MLOAD PUSH1 0x0 NOT PUSH1 0xF8 DUP5 PUSH1 0x3 SHL AND SHR NOT AND SWAP1 SSTORE CODESIZE DUP1 DUP1 PUSH2 0x26A7 JUMP JUMPDEST SWAP3 SWAP4 PUSH1 0x20 PUSH1 0x1 DUP2 SWAP3 DUP8 DUP7 ADD MLOAD DUP2 SSTORE ADD SWAP6 ADD SWAP4 ADD PUSH2 0x2691 JUMP JUMPDEST PUSH2 0x2711 SWAP1 DUP5 PUSH1 0x0 MSTORE PUSH1 0x20 PUSH1 0x0 KECCAK256 PUSH1 0x1F DUP6 ADD PUSH1 0x5 SHR DUP2 ADD SWAP2 PUSH1 0x20 DUP7 LT PUSH2 0x5EE JUMPI PUSH1 0x1F ADD PUSH1 0x5 SHR ADD SWAP1 PUSH2 0x1E1D JUMP JUMPDEST CODESIZE PUSH2 0x1F3F JUMP JUMPDEST PUSH1 0x1F NOT DUP3 AND SWAP6 DUP6 PUSH1 0x0 MSTORE DUP1 PUSH1 0x0 KECCAK256 SWAP2 PUSH1 0x0 JUMPDEST DUP9 DUP2 LT PUSH2 0x2764 JUMPI POP DUP4 PUSH1 0x1 SWAP6 SWAP7 SWAP8 SWAP9 LT PUSH2 0x274B JUMPI JUMPDEST POP POP POP DUP2 SHL ADD DUP4 SSTORE PUSH2 0x1F12 JUMP JUMPDEST ADD MLOAD PUSH1 0x0 NOT PUSH1 0xF8 DUP5 PUSH1 0x3 SHL AND SHR NOT AND SWAP1 SSTORE CODESIZE DUP1 DUP1 PUSH2 0x273E JUMP JUMPDEST SWAP2 SWAP3 PUSH1 0x20 PUSH1 0x1 DUP2 SWAP3 DUP7 DUP6 ADD MLOAD DUP2 SSTORE ADD SWAP5 ADD SWAP3 ADD PUSH2 0x2729 JUMP JUMPDEST PUSH2 0x27A8 SWAP1 DUP6 PUSH1 0x0 MSTORE PUSH1 0x20 PUSH1 0x0 KECCAK256 PUSH1 0x1F DUP5 ADD PUSH1 0x5 SHR DUP2 ADD SWAP2 PUSH1 0x20 DUP6 LT PUSH2 0x5EE JUMPI PUSH1 0x1F ADD PUSH1 0x5 SHR ADD SWAP1 PUSH2 0x1E1D JUMP JUMPDEST CODESIZE PUSH2 0x1EDB JUMP INVALID LOG2 PUSH5 0x6970667358 0x22 SLT KECCAK256 REVERT 0xC7 NUMBER GT 0xC1 PUSH32 0x6E375905F30D6DB079B6FF6FE5BAC2D163D7D6F8DF897AB86A4364736F6C6343 STOP ADDMOD SHL STOP CALLER "},"methodIdentifiers":{"allObatData(uint256)":"7aad01bd","approveNie(string,address,string,string,string)":"7ade51dd","bpomAddresses(string)":"1c0b2030","bpomInstanceNames(string)":"9d9315c2","bpomUserNames(string)":"f1022862","createObat(string,string,string,string[],string,string[],address,string,string,uint8)":"d9d284dc","factoryAddresses(string)":"4b87568a","factoryInstanceNames(string)":"a812536d","factoryUserNames(string)":"349a7a72","getListAllObat()":"9d4edfe1","getListObatByFactory(string)":"1dce6e58","getListObatById(string)":"25606bc3","obatDetailsById(string)":"27321837","owner()":"8da5cb5b","requestNie(string)":"bc4a6f6c","userRoles(address)":"74d5e100"}}}}}