{"contracts/OrderManagement.sol":{"OrderManagement":{"abi":[{"inputs":[{"internalType":"address","name":"_obatTradisionalAddr","type":"address"},{"internalType":"address","name":"_roleManagerAddr","type":"address"},{"internalType":"address","name":"_obatSharedAddr","type":"address"},{"internalType":"address","name":"_cdobCertificateAddr","type":"address"}],"stateMutability":"nonpayable","type":"constructor"},{"anonymous":false,"inputs":[{"indexed":false,"internalType":"string","name":"batchName","type":"string"},{"indexed":false,"internalType":"string","name":"namaProduk","type":"string"},{"indexed":false,"internalType":"string","name":"buyerInstanceName","type":"string"},{"indexed":false,"internalType":"string","name":"sellerInstanceName","type":"string"},{"indexed":false,"internalType":"uint8","name":"orderQuantity","type":"uint8"},{"indexed":false,"internalType":"uint256","name":"timestamp","type":"uint256"}],"name":"OrderUpdate","type":"event"},{"inputs":[{"internalType":"uint256","name":"","type":"uint256"}],"name":"AllOrderIds","outputs":[{"internalType":"string","name":"","type":"string"}],"stateMutability":"view","type":"function"},{"inputs":[{"internalType":"string","name":"_orderId","type":"string"},{"internalType":"string[]","name":"_orderObatIpfs","type":"string[]"}],"name":"acceptOrderPbf","outputs":[],"stateMutability":"nonpayable","type":"function"},{"inputs":[{"internalType":"string","name":"_orderId","type":"string"},{"internalType":"string[]","name":"_orderObatIpfs","type":"string[]"}],"name":"acceptOrderRetailer","outputs":[],"stateMutability":"nonpayable","type":"function"},{"inputs":[],"name":"cdobCertificate","outputs":[{"internalType":"contract CdobCertificate","name":"","type":"address"}],"stateMutability":"view","type":"function"},{"inputs":[{"internalType":"string","name":"_orderId","type":"string"},{"internalType":"string[]","name":"_orderObatIpfs","type":"string[]"}],"name":"completeOrderPbf","outputs":[],"stateMutability":"nonpayable","type":"function"},{"inputs":[{"internalType":"string","name":"_orderId","type":"string"},{"internalType":"string[]","name":"_orderObatIpfs","type":"string[]"}],"name":"completeOrderRetailer","outputs":[],"stateMutability":"nonpayable","type":"function"},{"inputs":[{"internalType":"string","name":"_prevOrderIdPbf","type":"string"},{"internalType":"string","name":"_orderId","type":"string"},{"internalType":"string","name":"_obatId","type":"string"},{"internalType":"string","name":"_batchName","type":"string"},{"internalType":"string","name":"_namaProduk","type":"string"},{"internalType":"string","name":"_buyerInstance","type":"string"},{"internalType":"string","name":"_sellerInstance","type":"string"},{"internalType":"uint8","name":"_orderQuantity","type":"uint8"},{"internalType":"string","name":"_cdobHash","type":"string"}],"name":"createOrder","outputs":[],"stateMutability":"nonpayable","type":"function"},{"inputs":[{"internalType":"string","name":"_orderId","type":"string"}],"name":"detailOrder","outputs":[{"components":[{"internalType":"string","name":"orderId","type":"string"},{"internalType":"string","name":"obatId","type":"string"},{"internalType":"string","name":"namaProduk","type":"string"},{"internalType":"string","name":"batchName","type":"string"},{"internalType":"uint8","name":"orderQuantity","type":"uint8"},{"components":[{"internalType":"string","name":"instanceName","type":"string"},{"internalType":"address","name":"instanceAddr","type":"address"}],"internalType":"struct OrderManagement.OrderUser","name":"buyerUser","type":"tuple"},{"components":[{"internalType":"string","name":"instanceName","type":"string"},{"internalType":"address","name":"instanceAddr","type":"address"}],"internalType":"struct OrderManagement.OrderUser","name":"sellerUser","type":"tuple"},{"internalType":"enum EnumsLibrary.OrderStatus","name":"statusOrder","type":"uint8"},{"internalType":"string","name":"prevOrderIdPbf","type":"string"}],"internalType":"struct OrderManagement.OrderDetail","name":"","type":"tuple"}],"stateMutability":"view","type":"function"},{"inputs":[{"internalType":"string","name":"_instanceName","type":"string"}],"name":"getAllObatPbfByInstance","outputs":[{"components":[{"internalType":"string","name":"orderId","type":"string"},{"internalType":"string","name":"obatId","type":"string"},{"internalType":"string","name":"namaProduk","type":"string"},{"internalType":"string","name":"batchName","type":"string"},{"internalType":"uint8","name":"obatQuantity","type":"uint8"},{"internalType":"enum EnumsLibrary.ObatAvailability","name":"statusStok","type":"uint8"},{"internalType":"string","name":"ownerInstance","type":"string"}],"internalType":"struct ObatShared.ObatOutputStok[]","name":"","type":"tuple[]"}],"stateMutability":"view","type":"function"},{"inputs":[],"name":"getAllObatPbfReadyStock","outputs":[{"components":[{"internalType":"string","name":"orderId","type":"string"},{"internalType":"string","name":"obatId","type":"string"},{"internalType":"string","name":"namaProduk","type":"string"},{"internalType":"string","name":"batchName","type":"string"},{"internalType":"uint8","name":"obatQuantity","type":"uint8"},{"internalType":"enum EnumsLibrary.ObatAvailability","name":"statusStok","type":"uint8"},{"internalType":"string","name":"ownerInstance","type":"string"}],"internalType":"struct ObatShared.ObatOutputStok[]","name":"","type":"tuple[]"}],"stateMutability":"view","type":"function"},{"inputs":[{"internalType":"string","name":"_instanceName","type":"string"}],"name":"getAllObatRetailerByInstance","outputs":[{"components":[{"internalType":"string","name":"orderId","type":"string"},{"internalType":"string","name":"obatId","type":"string"},{"internalType":"string","name":"namaProduk","type":"string"},{"internalType":"string","name":"batchName","type":"string"},{"internalType":"uint8","name":"obatQuantity","type":"uint8"},{"internalType":"enum EnumsLibrary.ObatAvailability","name":"statusStok","type":"uint8"},{"internalType":"string","name":"ownerInstance","type":"string"}],"internalType":"struct ObatShared.ObatOutputStok[]","name":"","type":"tuple[]"}],"stateMutability":"view","type":"function"},{"inputs":[{"internalType":"string","name":"_buyerInstance","type":"string"}],"name":"getAllOrderFromBuyer","outputs":[{"components":[{"internalType":"string","name":"orderId","type":"string"},{"internalType":"string","name":"obatId","type":"string"},{"internalType":"string","name":"namaProduk","type":"string"},{"internalType":"string","name":"batchName","type":"string"},{"internalType":"uint8","name":"orderQuantity","type":"uint8"},{"components":[{"internalType":"string","name":"instanceName","type":"string"},{"internalType":"address","name":"instanceAddr","type":"address"}],"internalType":"struct OrderManagement.OrderUser","name":"buyerUser","type":"tuple"},{"components":[{"internalType":"string","name":"instanceName","type":"string"},{"internalType":"address","name":"instanceAddr","type":"address"}],"internalType":"struct OrderManagement.OrderUser","name":"sellerUser","type":"tuple"},{"internalType":"enum EnumsLibrary.OrderStatus","name":"statusOrder","type":"uint8"},{"internalType":"string","name":"prevOrderIdPbf","type":"string"}],"internalType":"struct OrderManagement.OrderDetail[]","name":"","type":"tuple[]"}],"stateMutability":"view","type":"function"},{"inputs":[{"internalType":"string","name":"_sellerInstance","type":"string"}],"name":"getAllOrderFromSeller","outputs":[{"components":[{"internalType":"string","name":"orderId","type":"string"},{"internalType":"string","name":"obatId","type":"string"},{"internalType":"string","name":"namaProduk","type":"string"},{"internalType":"string","name":"batchName","type":"string"},{"internalType":"uint8","name":"orderQuantity","type":"uint8"},{"components":[{"internalType":"string","name":"instanceName","type":"string"},{"internalType":"address","name":"instanceAddr","type":"address"}],"internalType":"struct OrderManagement.OrderUser","name":"buyerUser","type":"tuple"},{"components":[{"internalType":"string","name":"instanceName","type":"string"},{"internalType":"address","name":"instanceAddr","type":"address"}],"internalType":"struct OrderManagement.OrderUser","name":"sellerUser","type":"tuple"},{"internalType":"enum EnumsLibrary.OrderStatus","name":"statusOrder","type":"uint8"},{"internalType":"string","name":"prevOrderIdPbf","type":"string"}],"internalType":"struct OrderManagement.OrderDetail[]","name":"","type":"tuple[]"}],"stateMutability":"view","type":"function"},{"inputs":[{"internalType":"string","name":"_orderId","type":"string"}],"name":"obatIpfs","outputs":[{"internalType":"string[]","name":"","type":"string[]"}],"stateMutability":"view","type":"function"},{"inputs":[],"name":"obatShared","outputs":[{"internalType":"contract ObatShared","name":"","type":"address"}],"stateMutability":"view","type":"function"},{"inputs":[],"name":"obatTradisional","outputs":[{"internalType":"contract ObatTradisional","name":"","type":"address"}],"stateMutability":"view","type":"function"},{"inputs":[{"internalType":"string","name":"_orderId","type":"string"}],"name":"orderTimestamp","outputs":[{"components":[{"internalType":"uint256","name":"timestampOrder","type":"uint256"},{"internalType":"uint256","name":"timestampShipped","type":"uint256"},{"internalType":"uint256","name":"timestampComplete","type":"uint256"}],"internalType":"struct OrderManagement.OrderTimestamp","name":"","type":"tuple"}],"stateMutability":"view","type":"function"},{"inputs":[],"name":"roleManager","outputs":[{"internalType":"contract RoleManager","name":"","type":"address"}],"stateMutability":"view","type":"function"}],"evm":{"bytecode":{"linkReferences":{},"object":"60803460bd57601f61247e38819003918201601f19168301916001600160401b0383118484101760c15780849260809460405283398101031260bd5760428160d5565b90604d6020820160d5565b9160626060605c6040850160d5565b930160d5565b600180546001600160a01b03199081166001600160a01b03968716179091555f805482169386169390931790925560028054831693851693909317909255600380549091169190921617905560405161239590816100e98239f35b5f80fd5b634e487b7160e01b5f52604160045260245ffd5b51906001600160a01b038216820360bd5756fe6080806040526004361015610012575f80fd5b5f905f3560e01c908162435da51461167a575080631c2fc292146115ad578063271962d4146114f65780633fca88cb146114ce5780635a5f578f1461145b57806360e4b3cf1461135657806364484ac9146110da578063756b460f14610e1a578063906ce01714610dc5578063986a079014610c89578063af3a175814610c60578063af9bf53d14610a1a578063b711e82b14610975578063e1336da514610912578063ea020d59146108eb578063ee399ed414610677578063f07b2c7a146105c95763fc0e6523146100e3575f80fd5b346105c6576101203660031901126105c6576004356001600160401b0381116105c45761011490369060040161173f565b906024356001600160401b0381116105c45761013490369060040161173f565b6044356001600160401b0381116105465761015390369060040161173f565b6064356001600160401b0381116105c05761017290369060040161173f565b936084356001600160401b0381116105bc5761019290369060040161173f565b60a4356001600160401b0381116105b8576101b190369060040161173f565b9060c4356001600160401b0381116105b4576101d190369060040161173f565b9660e4359060ff82168092036105b057610104356001600160401b0381116105ac5761020190369060040161173f565b9261020a611c00565b5060405193610218856116e8565b858552336020860152610229611c00565b5060405195610237876116e8565b8b87528a6020880152600454600160401b8110156105985780600161026192016004556004611959565b61058457998b9c81809d949361027a82809d9e9f611e86565b604051818192516020819201835e8101600881520360200190209061029e91611f7e565b604051818192516020819201835e810160098152036020019020906102c291611f7e565b6040516102ce816116cd565b428152602081018381526040820190848252604051808c516020819e019d8e835e60079082019081520360200190209251835551600180840191909155905160029092019190915580546040516395a8c58d60e01b815233600482015260248101929092526001600160a01b0316816044815a93602094fa90811561057957839161054a575b506104be575b5050604051976103698961169d565b8989526020890190815260408901918252606089019283526080890193845260a0890194855260c0890195865260e08901968b88526101008a0198895260405180918c518091835e81016006815203602001902098516103c9908a611e86565b516103d79060018a01611e86565b516103e59060028901611e86565b516103f39060038801611e86565b60048601905160ff1660ff19825416179055518051600586019061041691611e86565b602001516006850180546001600160a01b0319166001600160a01b039290921691909117905551805161044c9060078601611e86565b602001516008840180546001600160a01b0319166001600160a01b039290921691909117905551600983019060038110156104aa576104a2926104a7959492600a9260ff80198354169116179055519101611e86565b6121cd565b80f35b634e487b7160e01b86526021600452602486fd5b6002546001600160a01b0316803b1561054657610513918391610501838e604051968795869485936331cb1cc560e21b8552604060048601526044850190611785565b83810360031901602485015290611785565b03925af1801561053b571561035a578161052c91611703565b61053757895f61035a565b8980fd5b6040513d84823e3d90fd5b8280fd5b61056c915060203d602011610572575b6105648183611703565b810190611d0f565b5f610354565b503d61055a565b6040513d85823e3d90fd5b634e487b7160e01b8c5260048c905260248cfd5b634e487b7160e01b8c52604160045260248cfd5b8880fd5b8780fd5b8680fd5b8580fd5b8480fd5b8380fd5b505b80fd5b50346105c65760203660031901126105c657600435816001600160401b0382116105c6576105fe61062c92369060040161173f565b60018060a01b0360025416604051808095819463783d963d60e11b8352602060048401526024830190611785565b03915afa90811561053b57826106509392610654575b505060405191829182611afe565b0390f35b61067092503d8091833e6106688183611703565b81019061202b565b5f80610642565b50346105c65761068636611a3e565b91906044602060018060a01b0360015416604051928380926395a8c58d60e01b82523360048301528760248301525afa9081156105795783916108cc575b50156108925760405190805191602081818401948086835e81016006815203019020926008840160018060a01b0333166bffffffffffffffffffffffff60a01b82541617905560098401600160ff19825416179055604051600183518086845e82019160078352602081429403019020015561075460405160208185518088835e81016005815203019020611e05565b805b85518110156107925760019061078c6040516020818751808a835e81016005815203019020610785838a611cb9565b5190611f7e565b01610756565b509081858560018060a01b0360025416906003810191803b156105bc576107e085916107f2938360405180968195829463871811f160e01b84526060600485015260016064850191016119a6565b828103600319016024840152896119a6565b6001604483015203925af1908115610887578491610872575b50506002546001600160a01b031691823b156105c057610844928492836040518096819582946329a2ac2760e11b845260048401611fc0565b03925af1801561053b5761085d575b506104a7826121cd565b8161086791611703565b6105c4578183610853565b8161087c91611703565b61054657828661080b565b6040513d86823e3d90fd5b60405162461bcd60e51b815260206004820152601260248201527150616272696b20616363657373206f6e6c7960701b6044820152606490fd5b6108e5915060203d602011610572576105648183611703565b5f6106c4565b50346105c657806003193601126105c657546040516001600160a01b039091168152602090f35b50346105c65760203660031901126105c657600435816001600160401b0382116105c65761094761062c92369060040161173f565b60018060a01b0360025416604051808095819463e1336da560e01b8352602060048401526024830190611785565b50346105c65760203660031901126105c6576004356001600160401b0381116105c45760206060926109ac8293369060040161173f565b90604080516109ba816116cd565b82815282858201520152604051928184925191829101835e810160078152030190206040516109e8816116cd565b815491828252604060026001830154926020850193845201549201918252604051928352516020830152516040820152f35b50346105c657610a2936611a3e565b6001546040516395a8c58d60e01b8152336004820152600360248201529193929190602090829060449082906001600160a01b03165afa908115610579578391610c41575b5015610c055760405190805191602081818401948086835e810160068152030190209260098401600260ff19825416179055604051600283518086845e820191600783526020814294030190200155600a840190610ad3610ace83611d65565b611e05565b610af160405160208186518089835e81016005815203019020611e05565b805b8651811015610b3e57600190610b15610b0b85611d65565b610785838b611cb9565b610b386040516020818851808b835e81016005815203019020610785838b611cb9565b01610af3565b50600254839082908890600389019089906001600160a01b0316803b156105bc578460405180926330b3e0ef60e21b825260406004830152818381610b86604482018a6119a6565b6001602483015203925af1908115610bfa578591610be5575b50506002546001600160a01b0316803b156105bc576107e085916107f2938360405180968195829463871811f160e01b84526060600485015260016064850191016119a6565b81610bef91611703565b6105c0578387610b9f565b6040513d87823e3d90fd5b60405162461bcd60e51b815260206004820152601460248201527352657461696c657220616363657373206f6e6c7960601b6044820152606490fd5b610c5a915060203d602011610572576105648183611703565b5f610a6e565b50346105c657806003193601126105c6576003546040516001600160a01b039091168152602090f35b50346105c65760203660031901126105c657600435906001600160401b0382116105c657610650602080610cc0366004870161173f565b610cc8611c19565b50604051928184925191829101835e81016006815203019020600a610dab60405192610cf38461169d565b604051610d0b81610d0481856119a6565b0382611703565b8452604051610d2181610d0481600186016119a6565b6020850152604051610d3a81610d0481600286016119a6565b6040850152604051610d5381610d0481600386016119a6565b606085015260ff6004820154166080850152610d7160058201611ccd565b60a0850152610d8260078201611ccd565b60c0850152610d9b60ff60098301541660e08601611d03565b610d0460405180948193016119a6565b6101008201526040519182916020835260208301906117d2565b50346105c657806003193601126105c65760025460405163906ce01760e01b8152908290829060049082906001600160a01b03165afa90811561053b5782610650939261065457505060405191829182611afe565b50346105c657610e2936611a3e565b600180546040516395a8c58d60e01b8152336004820152602481019290925291939291602090829060449082906001600160a01b03165afa9081156105795790610e7a9184916110bb575b50611d27565b60405190805191602081818401948086835e810160068152030190209260098401600260ff19825416179055604051600283518086845e820191600783526020814294030190200155610ee160405160208185518088835e81016005815203019020611e05565b805b8551811015610f1857600190610f126040516020818751808a835e81016005815203019020610785838a611cb9565b01610ee3565b509081848660018060a01b03600254169160018101916003820193803b156105b85785604051809263871811f160e01b825260606004830152818381610f76610f64606483018c6119a6565b8281036003190160248401528c6119a6565b6001604483015203925af19081156110b057869161109b575b50506002546001600160a01b0316803b156105b8576040516329a2ac2760e11b81529186918391829084908290610fca908b60048401611fc0565b03925af1908115610bfa578591611086575b505060018060a01b036002541660ff600483015416813b156105b8578580946108446110359360058b9761106e6110479b61105c6040519d8e9c8d9b8c9a63d33d8a1360e01b8c5260c060048d015260c48c01906119a6565b8a81036003190160248c015290611785565b8881036003190160448a0152600285016119a6565b878103600319016064890152906119a6565b9260848601526003198584030160a4860152016119a6565b8161109091611703565b6105c0578387610fdc565b816110a591611703565b6105bc578488610f8f565b6040513d88823e3d90fd5b6110d4915060203d602011610572576105648183611703565b5f610e74565b50346105c6576110e936611a3e565b600180546040516395a8c58d60e01b81523360048201526024810192909252929392602090829060449082906001600160a01b03165afa90811561057957906111389184916110bb5750611d27565b60405192805193602081818401968088835e81016006815203019020926008840160018060a01b0333166bffffffffffffffffffffffff60a01b82541617905560098401600160ff19825416179055604051600183518088845e8201916007835260208142940301902001556111c8610ace600a6040516020818751808c835e8101600681520301902001611d65565b6111e66040516020818551808a835e81016005815203019020611e05565b805b835181101561124c57600190611223611219600a6040516020818c8a518091835e8101600681520301902001611d65565b6107858388611cb9565b6112466040516020818751808c835e810160058152030190206107858388611cb9565b016111e8565b5060025490929060038501906001600160a01b03168486823b156105c45761129a926107e0918360405180968195829463871811f160e01b84526060600485015260016064850191016119a6565b6001604483015203925af18015610bfa57611340575b50600254849291906001600160a01b0316803b156105c0578360405180926330b3e0ef60e21b8252604060048301528183816112ef60448201896119a6565b6001602483015203925af19081156108875784916108725750506002546001600160a01b031691823b156105c057610844928492836040518096819582946329a2ac2760e11b845260048401611fc0565b8461134e9195929395611703565b9290846112b0565b50346105c65760203660031901126105c6576004356001600160401b0381116105c45761138790369060040161173f565b604051815190602081818501938085835e8101600881520301902054916113ad83611c6a565b935b8381106113c4576040518061065087826118a2565b80611401610d046113fc6113ef6001956040516020818a51808d835e81016008815203019020611959565b50604051928380926119a6565b611be1565b600a611439604051926114138461169d565b60405161142481610d0481856119a6565b8452604051610d2181610d04818a86016119a6565b6101008201526114498288611cb9565b526114548187611cb9565b50016113af565b346114ca5760203660031901126114ca576004356004548110156114ca576004548110156114b657610d046114a26106509260045f5260205f2001604051928380926119a6565b604051918291602083526020830190611785565b634e487b7160e01b5f52603260045260245ffd5b5f80fd5b346114ca575f3660031901126114ca576002546040516001600160a01b039091168152602090f35b346114ca5760203660031901126114ca576004356001600160401b0381116114ca5760206115298192369060040161173f565b604051928184925191829101835e81016005815203019020805461154c81611a27565b9161155a6040519384611703565b81835260208301905f5260205f205f915b838310611588576040516020808252819061065090820188611901565b60016020819260405161159f81610d0481896119a6565b81520192019201919061156b565b346114ca5760203660031901126114ca576004356001600160401b0381116114ca576115dd90369060040161173f565b604051815190602081818501938085835e81016009815203019020549061160382611c6a565b925f5b83811061161b576040518061065087826118a2565b80611646610d046113fc6113ef6001956040516020818a51808d835e81016009815203019020611959565b600a611658604051926114138461169d565b6101008201526116688288611cb9565b526116738187611cb9565b5001611606565b346114ca575f3660031901126114ca576001546001600160a01b03168152602090f35b61012081019081106001600160401b038211176116b957604052565b634e487b7160e01b5f52604160045260245ffd5b606081019081106001600160401b038211176116b957604052565b604081019081106001600160401b038211176116b957604052565b90601f801991011681019081106001600160401b038211176116b957604052565b6001600160401b0381116116b957601f01601f191660200190565b81601f820112156114ca5780359061175682611724565b926117646040519485611703565b828452602083830101116114ca57815f926020809301838601378301015290565b805180835260209291819084018484015e5f828201840152601f01601f1916010190565b9060206117bf8351604084526040840190611785565b928101516001600160a01b031691015290565b9061185e61184c61182d61181b6118096117f787516101208852610120880190611785565b60208801518782036020890152611785565b60408701518682036040880152611785565b60608601518582036060870152611785565b60ff608086015116608085015260a085015184820360a08601526117a9565b60c084015183820360c08501526117a9565b9060e0830151600381101561188e5761188b936101009160e0840152015190610100818403910152611785565b90565b634e487b7160e01b5f52602160045260245ffd5b602081016020825282518091526040820191602060408360051b8301019401925f915b8383106118d457505050505090565b90919293946020806118f2600193603f1986820301875289516117d2565b970193019301919392906118c5565b9080602083519182815201916020808360051b8301019401925f915b83831061192c57505050505090565b909192939460208061194a600193601f198682030187528951611785565b9701930193019193929061191d565b80548210156114b6575f5260205f2001905f90565b90600182811c9216801561199c575b602083101461198857565b634e487b7160e01b5f52602260045260245ffd5b91607f169161197d565b5f92918154916119b58361196e565b8083529260018116908115611a0a57506001146119d157505050565b5f9081526020812093945091925b8383106119f0575060209250010190565b6001816020929493945483858701015201910191906119df565b915050602093945060ff929192191683830152151560051b010190565b6001600160401b0381116116b95760051b60200190565b9060406003198301126114ca576004356001600160401b0381116114ca5782611a699160040161173f565b91602435906001600160401b0382116114ca57806023830112156114ca578160040135611a9581611a27565b92611aa36040519485611703565b8184526024602085019260051b820101918383116114ca5760248201905b838210611ad057505050505090565b81356001600160401b0381116114ca57602091611af3876024859488010161173f565b815201910190611ac1565b602081016020825282518091526040820190602060408260051b8501019401925f905b828210611b3057505050505090565b9091929394603f19828203018552855190611b93611b81611b6f611b5d855160e0865260e0860190611785565b60208601518582036020870152611785565b60408501518482036040860152611785565b60608401518382036060850152611785565b9160ff608082015116608083015260a081015190600282101561188e576001938360c0611bd4936020969560a08897015201519060c0818403910152611785565b9701950193920190611b21565b60208091604051928184925191829101835e8101600681520301902090565b60405190611c0d826116e8565b5f602083606081520152565b60405190611c268261169d565b60606101008382815282602082015282604082015282808201525f6080820152611c4e611c00565b60a0820152611c5b611c00565b60c08201525f60e08201520152565b90611c7482611a27565b611c816040519182611703565b8281528092611c92601f1991611a27565b01905f5b828110611ca257505050565b602090611cad611c19565b82828501015201611c96565b80518210156114b65760209160051b010190565b90604051611cda816116e8565b60208193604051611cef81610d0481856119a6565b8352600101546001600160a01b0316910152565b600382101561188e5752565b908160209103126114ca575180151581036114ca5790565b15611d2e57565b60405162461bcd60e51b815260206004820152600f60248201526e50424620616363657373206f6e6c7960881b6044820152606490fd5b60405190815f825492611d778461196e565b9360018116908115611dd55750600114611d9c575b5060209250600581520301902090565b9150505f528160205f205f905b838210611dbd57505060209181015f611d8c565b60209192508060019154848701520191018391611da9565b60ff191684525060209380151502830191505f9050611d8c565b818110611dfa575050565b5f8155600101611def565b8054905f815581611e14575050565b5f5260205f20908101905b818110611e2a575050565b80611e376001925461196e565b80611e44575b5001611e1f565b601f81118314611e5957505f81555b5f611e3d565b611e7590825f5283601f60205f20920160051c82019101611def565b805f525f6020812081835555611e53565b91909182516001600160401b0381116116b957611ea3825461196e565b601f8111611f43575b506020601f8211600114611ee557819293945f92611eda575b50508160011b915f199060031b1c1916179055565b015190505f80611ec5565b601f19821690835f52805f20915f5b818110611f2b57509583600195969710611f13575b505050811b019055565b01515f1960f88460031b161c191690555f8080611f09565b9192602060018192868b015181550194019201611ef4565b611f6e90835f5260205f20601f840160051c81019160208510611f74575b601f0160051c0190611def565b5f611eac565b9091508190611f61565b8054600160401b8110156116b957611f9b91600182018155611959565b919091611fad57611fab91611e86565b565b634e487b7160e01b5f525f60045260245ffd5b9091611fd761188b936040845260408401906119a6565b916020818403910152611901565b81601f820112156114ca57805190611ffc82611724565b9261200a6040519485611703565b828452602083830101116114ca57815f9260208093018386015e8301015290565b6020818303126114ca578051906001600160401b0382116114ca57019080601f830112156114ca5781519161205f83611a27565b9261206d6040519485611703565b80845260208085019160051b830101918383116114ca5760208101915b83831061209957505050505090565b82516001600160401b0381116114ca5782019060e0828703601f1901126114ca576040519060e082018281106001600160401b038211176116b95760405260208301516001600160401b0381116114ca578760206120f992860101611fe5565b825260408301516001600160401b0381116114ca5787602061211d92860101611fe5565b602083015260608301516001600160401b0381116114ca5787602061214492860101611fe5565b604083015260808301516001600160401b0381116114ca5787602061216b92860101611fe5565b606083015260a083015160ff811681036114ca57608083015260c083015160028110156114ca5760a083015260e0830151916001600160401b0383116114ca576121bd88602080969581960101611fe5565b60c082015281520192019161208a565b6123246020807f1d1b0398fce0e5341c30c157d9d5b2976f5dcce30f83882d674ebcd6839ce24f936121fd611c19565b50604051928184925191829101835e810160068152030190206040516122228161169d565b60405161223381610d0481866119a6565b815260405161224981610d0481600187016119a6565b602082015261234e6040519261226d8461226681600285016119a6565b0385611703565b60408301938452612340604051916122938361228c81600385016119a6565b0384611703565b6060850192835261233260ff806004840154169460808801958652600a6101006122bf60058701611ccd565b9960a081019a8b526123016122d660078901611ccd565b9760c083019889526122f18760098301541660e08501611d03565b61228c60405180968193016119a6565b01525197519651519251519451169560405198899860c08a5260c08a0190611785565b9088820360208a0152611785565b908682036040880152611785565b908482036060860152611785565b9060808301524260a08301520390a156fea264697066735822122032a24bf9e301dc5edb538e44349736838e5685f3d892ff53dd2be4bb0fa32a7b64736f6c634300081b0033","opcodes":"PUSH1 0x80 CALLVALUE PUSH1 0xBD JUMPI PUSH1 0x1F PUSH2 0x247E CODESIZE DUP2 SWAP1 SUB SWAP2 DUP3 ADD PUSH1 0x1F NOT AND DUP4 ADD SWAP2 PUSH1 0x1 PUSH1 0x1 PUSH1 0x40 SHL SUB DUP4 GT DUP5 DUP5 LT OR PUSH1 0xC1 JUMPI DUP1 DUP5 SWAP3 PUSH1 0x80 SWAP5 PUSH1 0x40 MSTORE DUP4 CODECOPY DUP2 ADD SUB SLT PUSH1 0xBD JUMPI PUSH1 0x42 DUP2 PUSH1 0xD5 JUMP JUMPDEST SWAP1 PUSH1 0x4D PUSH1 0x20 DUP3 ADD PUSH1 0xD5 JUMP JUMPDEST SWAP2 PUSH1 0x62 PUSH1 0x60 PUSH1 0x5C PUSH1 0x40 DUP6 ADD PUSH1 0xD5 JUMP JUMPDEST SWAP4 ADD PUSH1 0xD5 JUMP JUMPDEST PUSH1 0x1 DUP1 SLOAD PUSH1 0x1 PUSH1 0x1 PUSH1 0xA0 SHL SUB NOT SWAP1 DUP2 AND PUSH1 0x1 PUSH1 0x1 PUSH1 0xA0 SHL SUB SWAP7 DUP8 AND OR SWAP1 SWAP2 SSTORE PUSH0 DUP1 SLOAD DUP3 AND SWAP4 DUP7 AND SWAP4 SWAP1 SWAP4 OR SWAP1 SWAP3 SSTORE PUSH1 0x2 DUP1 SLOAD DUP4 AND SWAP4 DUP6 AND SWAP4 SWAP1 SWAP4 OR SWAP1 SWAP3 SSTORE PUSH1 0x3 DUP1 SLOAD SWAP1 SWAP2 AND SWAP2 SWAP1 SWAP3 AND OR SWAP1 SSTORE PUSH1 0x40 MLOAD PUSH2 0x2395 SWAP1 DUP2 PUSH2 0xE9 DUP3 CODECOPY RETURN JUMPDEST PUSH0 DUP1 REVERT JUMPDEST PUSH4 0x4E487B71 PUSH1 0xE0 SHL PUSH0 MSTORE PUSH1 0x41 PUSH1 0x4 MSTORE PUSH1 0x24 PUSH0 REVERT JUMPDEST MLOAD SWAP1 PUSH1 0x1 PUSH1 0x1 PUSH1 0xA0 SHL SUB DUP3 AND DUP3 SUB PUSH1 0xBD JUMPI JUMP INVALID PUSH1 0x80 DUP1 PUSH1 0x40 MSTORE PUSH1 0x4 CALLDATASIZE LT ISZERO PUSH2 0x12 JUMPI PUSH0 DUP1 REVERT JUMPDEST PUSH0 SWAP1 PUSH0 CALLDATALOAD PUSH1 0xE0 SHR SWAP1 DUP2 PUSH3 0x435DA5 EQ PUSH2 0x167A JUMPI POP DUP1 PUSH4 0x1C2FC292 EQ PUSH2 0x15AD JUMPI DUP1 PUSH4 0x271962D4 EQ PUSH2 0x14F6 JUMPI DUP1 PUSH4 0x3FCA88CB EQ PUSH2 0x14CE JUMPI DUP1 PUSH4 0x5A5F578F EQ PUSH2 0x145B JUMPI DUP1 PUSH4 0x60E4B3CF EQ PUSH2 0x1356 JUMPI DUP1 PUSH4 0x64484AC9 EQ PUSH2 0x10DA JUMPI DUP1 PUSH4 0x756B460F EQ PUSH2 0xE1A JUMPI DUP1 PUSH4 0x906CE017 EQ PUSH2 0xDC5 JUMPI DUP1 PUSH4 0x986A0790 EQ PUSH2 0xC89 JUMPI DUP1 PUSH4 0xAF3A1758 EQ PUSH2 0xC60 JUMPI DUP1 PUSH4 0xAF9BF53D EQ PUSH2 0xA1A JUMPI DUP1 PUSH4 0xB711E82B EQ PUSH2 0x975 JUMPI DUP1 PUSH4 0xE1336DA5 EQ PUSH2 0x912 JUMPI DUP1 PUSH4 0xEA020D59 EQ PUSH2 0x8EB JUMPI DUP1 PUSH4 0xEE399ED4 EQ PUSH2 0x677 JUMPI DUP1 PUSH4 0xF07B2C7A EQ PUSH2 0x5C9 JUMPI PUSH4 0xFC0E6523 EQ PUSH2 0xE3 JUMPI PUSH0 DUP1 REVERT JUMPDEST CALLVALUE PUSH2 0x5C6 JUMPI PUSH2 0x120 CALLDATASIZE PUSH1 0x3 NOT ADD SLT PUSH2 0x5C6 JUMPI PUSH1 0x4 CALLDATALOAD PUSH1 0x1 PUSH1 0x1 PUSH1 0x40 SHL SUB DUP2 GT PUSH2 0x5C4 JUMPI PUSH2 0x114 SWAP1 CALLDATASIZE SWAP1 PUSH1 0x4 ADD PUSH2 0x173F JUMP JUMPDEST SWAP1 PUSH1 0x24 CALLDATALOAD PUSH1 0x1 PUSH1 0x1 PUSH1 0x40 SHL SUB DUP2 GT PUSH2 0x5C4 JUMPI PUSH2 0x134 SWAP1 CALLDATASIZE SWAP1 PUSH1 0x4 ADD PUSH2 0x173F JUMP JUMPDEST PUSH1 0x44 CALLDATALOAD PUSH1 0x1 PUSH1 0x1 PUSH1 0x40 SHL SUB DUP2 GT PUSH2 0x546 JUMPI PUSH2 0x153 SWAP1 CALLDATASIZE SWAP1 PUSH1 0x4 ADD PUSH2 0x173F JUMP JUMPDEST PUSH1 0x64 CALLDATALOAD PUSH1 0x1 PUSH1 0x1 PUSH1 0x40 SHL SUB DUP2 GT PUSH2 0x5C0 JUMPI PUSH2 0x172 SWAP1 CALLDATASIZE SWAP1 PUSH1 0x4 ADD PUSH2 0x173F JUMP JUMPDEST SWAP4 PUSH1 0x84 CALLDATALOAD PUSH1 0x1 PUSH1 0x1 PUSH1 0x40 SHL SUB DUP2 GT PUSH2 0x5BC JUMPI PUSH2 0x192 SWAP1 CALLDATASIZE SWAP1 PUSH1 0x4 ADD PUSH2 0x173F JUMP JUMPDEST PUSH1 0xA4 CALLDATALOAD PUSH1 0x1 PUSH1 0x1 PUSH1 0x40 SHL SUB DUP2 GT PUSH2 0x5B8 JUMPI PUSH2 0x1B1 SWAP1 CALLDATASIZE SWAP1 PUSH1 0x4 ADD PUSH2 0x173F JUMP JUMPDEST SWAP1 PUSH1 0xC4 CALLDATALOAD PUSH1 0x1 PUSH1 0x1 PUSH1 0x40 SHL SUB DUP2 GT PUSH2 0x5B4 JUMPI PUSH2 0x1D1 SWAP1 CALLDATASIZE SWAP1 PUSH1 0x4 ADD PUSH2 0x173F JUMP JUMPDEST SWAP7 PUSH1 0xE4 CALLDATALOAD SWAP1 PUSH1 0xFF DUP3 AND DUP1 SWAP3 SUB PUSH2 0x5B0 JUMPI PUSH2 0x104 CALLDATALOAD PUSH1 0x1 PUSH1 0x1 PUSH1 0x40 SHL SUB DUP2 GT PUSH2 0x5AC JUMPI PUSH2 0x201 SWAP1 CALLDATASIZE SWAP1 PUSH1 0x4 ADD PUSH2 0x173F JUMP JUMPDEST SWAP3 PUSH2 0x20A PUSH2 0x1C00 JUMP JUMPDEST POP PUSH1 0x40 MLOAD SWAP4 PUSH2 0x218 DUP6 PUSH2 0x16E8 JUMP JUMPDEST DUP6 DUP6 MSTORE CALLER PUSH1 0x20 DUP7 ADD MSTORE PUSH2 0x229 PUSH2 0x1C00 JUMP JUMPDEST POP PUSH1 0x40 MLOAD SWAP6 PUSH2 0x237 DUP8 PUSH2 0x16E8 JUMP JUMPDEST DUP12 DUP8 MSTORE DUP11 PUSH1 0x20 DUP9 ADD MSTORE PUSH1 0x4 SLOAD PUSH1 0x1 PUSH1 0x40 SHL DUP2 LT ISZERO PUSH2 0x598 JUMPI DUP1 PUSH1 0x1 PUSH2 0x261 SWAP3 ADD PUSH1 0x4 SSTORE PUSH1 0x4 PUSH2 0x1959 JUMP JUMPDEST PUSH2 0x584 JUMPI SWAP10 DUP12 SWAP13 DUP2 DUP1 SWAP14 SWAP5 SWAP4 PUSH2 0x27A DUP3 DUP1 SWAP14 SWAP15 SWAP16 PUSH2 0x1E86 JUMP JUMPDEST PUSH1 0x40 MLOAD DUP2 DUP2 SWAP3 MLOAD PUSH1 0x20 DUP2 SWAP3 ADD DUP4 MCOPY DUP2 ADD PUSH1 0x8 DUP2 MSTORE SUB PUSH1 0x20 ADD SWAP1 KECCAK256 SWAP1 PUSH2 0x29E SWAP2 PUSH2 0x1F7E JUMP JUMPDEST PUSH1 0x40 MLOAD DUP2 DUP2 SWAP3 MLOAD PUSH1 0x20 DUP2 SWAP3 ADD DUP4 MCOPY DUP2 ADD PUSH1 0x9 DUP2 MSTORE SUB PUSH1 0x20 ADD SWAP1 KECCAK256 SWAP1 PUSH2 0x2C2 SWAP2 PUSH2 0x1F7E JUMP JUMPDEST PUSH1 0x40 MLOAD PUSH2 0x2CE DUP2 PUSH2 0x16CD JUMP JUMPDEST TIMESTAMP DUP2 MSTORE PUSH1 0x20 DUP2 ADD DUP4 DUP2 MSTORE PUSH1 0x40 DUP3 ADD SWAP1 DUP5 DUP3 MSTORE PUSH1 0x40 MLOAD DUP1 DUP13 MLOAD PUSH1 0x20 DUP2 SWAP15 ADD SWAP14 DUP15 DUP4 MCOPY PUSH1 0x7 SWAP1 DUP3 ADD SWAP1 DUP2 MSTORE SUB PUSH1 0x20 ADD SWAP1 KECCAK256 SWAP3 MLOAD DUP4 SSTORE MLOAD PUSH1 0x1 DUP1 DUP5 ADD SWAP2 SWAP1 SWAP2 SSTORE SWAP1 MLOAD PUSH1 0x2 SWAP1 SWAP3 ADD SWAP2 SWAP1 SWAP2 SSTORE DUP1 SLOAD PUSH1 0x40 MLOAD PUSH4 0x95A8C58D PUSH1 0xE0 SHL DUP2 MSTORE CALLER PUSH1 0x4 DUP3 ADD MSTORE PUSH1 0x24 DUP2 ADD SWAP3 SWAP1 SWAP3 MSTORE PUSH1 0x1 PUSH1 0x1 PUSH1 0xA0 SHL SUB AND DUP2 PUSH1 0x44 DUP2 GAS SWAP4 PUSH1 0x20 SWAP5 STATICCALL SWAP1 DUP2 ISZERO PUSH2 0x579 JUMPI DUP4 SWAP2 PUSH2 0x54A JUMPI JUMPDEST POP PUSH2 0x4BE JUMPI JUMPDEST POP POP PUSH1 0x40 MLOAD SWAP8 PUSH2 0x369 DUP10 PUSH2 0x169D JUMP JUMPDEST DUP10 DUP10 MSTORE PUSH1 0x20 DUP10 ADD SWAP1 DUP2 MSTORE PUSH1 0x40 DUP10 ADD SWAP2 DUP3 MSTORE PUSH1 0x60 DUP10 ADD SWAP3 DUP4 MSTORE PUSH1 0x80 DUP10 ADD SWAP4 DUP5 MSTORE PUSH1 0xA0 DUP10 ADD SWAP5 DUP6 MSTORE PUSH1 0xC0 DUP10 ADD SWAP6 DUP7 MSTORE PUSH1 0xE0 DUP10 ADD SWAP7 DUP12 DUP9 MSTORE PUSH2 0x100 DUP11 ADD SWAP9 DUP10 MSTORE PUSH1 0x40 MLOAD DUP1 SWAP2 DUP13 MLOAD DUP1 SWAP2 DUP4 MCOPY DUP2 ADD PUSH1 0x6 DUP2 MSTORE SUB PUSH1 0x20 ADD SWAP1 KECCAK256 SWAP9 MLOAD PUSH2 0x3C9 SWAP1 DUP11 PUSH2 0x1E86 JUMP JUMPDEST MLOAD PUSH2 0x3D7 SWAP1 PUSH1 0x1 DUP11 ADD PUSH2 0x1E86 JUMP JUMPDEST MLOAD PUSH2 0x3E5 SWAP1 PUSH1 0x2 DUP10 ADD PUSH2 0x1E86 JUMP JUMPDEST MLOAD PUSH2 0x3F3 SWAP1 PUSH1 0x3 DUP9 ADD PUSH2 0x1E86 JUMP JUMPDEST PUSH1 0x4 DUP7 ADD SWAP1 MLOAD PUSH1 0xFF AND PUSH1 0xFF NOT DUP3 SLOAD AND OR SWAP1 SSTORE MLOAD DUP1 MLOAD PUSH1 0x5 DUP7 ADD SWAP1 PUSH2 0x416 SWAP2 PUSH2 0x1E86 JUMP JUMPDEST PUSH1 0x20 ADD MLOAD PUSH1 0x6 DUP6 ADD DUP1 SLOAD PUSH1 0x1 PUSH1 0x1 PUSH1 0xA0 SHL SUB NOT AND PUSH1 0x1 PUSH1 0x1 PUSH1 0xA0 SHL SUB SWAP3 SWAP1 SWAP3 AND SWAP2 SWAP1 SWAP2 OR SWAP1 SSTORE MLOAD DUP1 MLOAD PUSH2 0x44C SWAP1 PUSH1 0x7 DUP7 ADD PUSH2 0x1E86 JUMP JUMPDEST PUSH1 0x20 ADD MLOAD PUSH1 0x8 DUP5 ADD DUP1 SLOAD PUSH1 0x1 PUSH1 0x1 PUSH1 0xA0 SHL SUB NOT AND PUSH1 0x1 PUSH1 0x1 PUSH1 0xA0 SHL SUB SWAP3 SWAP1 SWAP3 AND SWAP2 SWAP1 SWAP2 OR SWAP1 SSTORE MLOAD PUSH1 0x9 DUP4 ADD SWAP1 PUSH1 0x3 DUP2 LT ISZERO PUSH2 0x4AA JUMPI PUSH2 0x4A2 SWAP3 PUSH2 0x4A7 SWAP6 SWAP5 SWAP3 PUSH1 0xA SWAP3 PUSH1 0xFF DUP1 NOT DUP4 SLOAD AND SWAP2 AND OR SWAP1 SSTORE MLOAD SWAP2 ADD PUSH2 0x1E86 JUMP JUMPDEST PUSH2 0x21CD JUMP JUMPDEST DUP1 RETURN JUMPDEST PUSH4 0x4E487B71 PUSH1 0xE0 SHL DUP7 MSTORE PUSH1 0x21 PUSH1 0x4 MSTORE PUSH1 0x24 DUP7 REVERT JUMPDEST PUSH1 0x2 SLOAD PUSH1 0x1 PUSH1 0x1 PUSH1 0xA0 SHL SUB AND DUP1 EXTCODESIZE ISZERO PUSH2 0x546 JUMPI PUSH2 0x513 SWAP2 DUP4 SWAP2 PUSH2 0x501 DUP4 DUP15 PUSH1 0x40 MLOAD SWAP7 DUP8 SWAP6 DUP7 SWAP5 DUP6 SWAP4 PUSH4 0x31CB1CC5 PUSH1 0xE2 SHL DUP6 MSTORE PUSH1 0x40 PUSH1 0x4 DUP7 ADD MSTORE PUSH1 0x44 DUP6 ADD SWAP1 PUSH2 0x1785 JUMP JUMPDEST DUP4 DUP2 SUB PUSH1 0x3 NOT ADD PUSH1 0x24 DUP6 ADD MSTORE SWAP1 PUSH2 0x1785 JUMP JUMPDEST SUB SWAP3 GAS CALL DUP1 ISZERO PUSH2 0x53B JUMPI ISZERO PUSH2 0x35A JUMPI DUP2 PUSH2 0x52C SWAP2 PUSH2 0x1703 JUMP JUMPDEST PUSH2 0x537 JUMPI DUP10 PUSH0 PUSH2 0x35A JUMP JUMPDEST DUP10 DUP1 REVERT JUMPDEST PUSH1 0x40 MLOAD RETURNDATASIZE DUP5 DUP3 RETURNDATACOPY RETURNDATASIZE SWAP1 REVERT JUMPDEST DUP3 DUP1 REVERT JUMPDEST PUSH2 0x56C SWAP2 POP PUSH1 0x20 RETURNDATASIZE PUSH1 0x20 GT PUSH2 0x572 JUMPI JUMPDEST PUSH2 0x564 DUP2 DUP4 PUSH2 0x1703 JUMP JUMPDEST DUP2 ADD SWAP1 PUSH2 0x1D0F JUMP JUMPDEST PUSH0 PUSH2 0x354 JUMP JUMPDEST POP RETURNDATASIZE PUSH2 0x55A JUMP JUMPDEST PUSH1 0x40 MLOAD RETURNDATASIZE DUP6 DUP3 RETURNDATACOPY RETURNDATASIZE SWAP1 REVERT JUMPDEST PUSH4 0x4E487B71 PUSH1 0xE0 SHL DUP13 MSTORE PUSH1 0x4 DUP13 SWAP1 MSTORE PUSH1 0x24 DUP13 REVERT JUMPDEST PUSH4 0x4E487B71 PUSH1 0xE0 SHL DUP13 MSTORE PUSH1 0x41 PUSH1 0x4 MSTORE PUSH1 0x24 DUP13 REVERT JUMPDEST DUP9 DUP1 REVERT JUMPDEST DUP8 DUP1 REVERT JUMPDEST DUP7 DUP1 REVERT JUMPDEST DUP6 DUP1 REVERT JUMPDEST DUP5 DUP1 REVERT JUMPDEST DUP4 DUP1 REVERT JUMPDEST POP JUMPDEST DUP1 REVERT JUMPDEST POP CALLVALUE PUSH2 0x5C6 JUMPI PUSH1 0x20 CALLDATASIZE PUSH1 0x3 NOT ADD SLT PUSH2 0x5C6 JUMPI PUSH1 0x4 CALLDATALOAD DUP2 PUSH1 0x1 PUSH1 0x1 PUSH1 0x40 SHL SUB DUP3 GT PUSH2 0x5C6 JUMPI PUSH2 0x5FE PUSH2 0x62C SWAP3 CALLDATASIZE SWAP1 PUSH1 0x4 ADD PUSH2 0x173F JUMP JUMPDEST PUSH1 0x1 DUP1 PUSH1 0xA0 SHL SUB PUSH1 0x2 SLOAD AND PUSH1 0x40 MLOAD DUP1 DUP1 SWAP6 DUP2 SWAP5 PUSH4 0x783D963D PUSH1 0xE1 SHL DUP4 MSTORE PUSH1 0x20 PUSH1 0x4 DUP5 ADD MSTORE PUSH1 0x24 DUP4 ADD SWAP1 PUSH2 0x1785 JUMP JUMPDEST SUB SWAP2 GAS STATICCALL SWAP1 DUP2 ISZERO PUSH2 0x53B JUMPI DUP3 PUSH2 0x650 SWAP4 SWAP3 PUSH2 0x654 JUMPI JUMPDEST POP POP PUSH1 0x40 MLOAD SWAP2 DUP3 SWAP2 DUP3 PUSH2 0x1AFE JUMP JUMPDEST SUB SWAP1 RETURN JUMPDEST PUSH2 0x670 SWAP3 POP RETURNDATASIZE DUP1 SWAP2 DUP4 RETURNDATACOPY PUSH2 0x668 DUP2 DUP4 PUSH2 0x1703 JUMP JUMPDEST DUP2 ADD SWAP1 PUSH2 0x202B JUMP JUMPDEST PUSH0 DUP1 PUSH2 0x642 JUMP JUMPDEST POP CALLVALUE PUSH2 0x5C6 JUMPI PUSH2 0x686 CALLDATASIZE PUSH2 0x1A3E JUMP JUMPDEST SWAP2 SWAP1 PUSH1 0x44 PUSH1 0x20 PUSH1 0x1 DUP1 PUSH1 0xA0 SHL SUB PUSH1 0x1 SLOAD AND PUSH1 0x40 MLOAD SWAP3 DUP4 DUP1 SWAP3 PUSH4 0x95A8C58D PUSH1 0xE0 SHL DUP3 MSTORE CALLER PUSH1 0x4 DUP4 ADD MSTORE DUP8 PUSH1 0x24 DUP4 ADD MSTORE GAS STATICCALL SWAP1 DUP2 ISZERO PUSH2 0x579 JUMPI DUP4 SWAP2 PUSH2 0x8CC JUMPI JUMPDEST POP ISZERO PUSH2 0x892 JUMPI PUSH1 0x40 MLOAD SWAP1 DUP1 MLOAD SWAP2 PUSH1 0x20 DUP2 DUP2 DUP5 ADD SWAP5 DUP1 DUP7 DUP4 MCOPY DUP2 ADD PUSH1 0x6 DUP2 MSTORE SUB ADD SWAP1 KECCAK256 SWAP3 PUSH1 0x8 DUP5 ADD PUSH1 0x1 DUP1 PUSH1 0xA0 SHL SUB CALLER AND PUSH12 0xFFFFFFFFFFFFFFFFFFFFFFFF PUSH1 0xA0 SHL DUP3 SLOAD AND OR SWAP1 SSTORE PUSH1 0x9 DUP5 ADD PUSH1 0x1 PUSH1 0xFF NOT DUP3 SLOAD AND OR SWAP1 SSTORE PUSH1 0x40 MLOAD PUSH1 0x1 DUP4 MLOAD DUP1 DUP7 DUP5 MCOPY DUP3 ADD SWAP2 PUSH1 0x7 DUP4 MSTORE PUSH1 0x20 DUP2 TIMESTAMP SWAP5 SUB ADD SWAP1 KECCAK256 ADD SSTORE PUSH2 0x754 PUSH1 0x40 MLOAD PUSH1 0x20 DUP2 DUP6 MLOAD DUP1 DUP9 DUP4 MCOPY DUP2 ADD PUSH1 0x5 DUP2 MSTORE SUB ADD SWAP1 KECCAK256 PUSH2 0x1E05 JUMP JUMPDEST DUP1 JUMPDEST DUP6 MLOAD DUP2 LT ISZERO PUSH2 0x792 JUMPI PUSH1 0x1 SWAP1 PUSH2 0x78C PUSH1 0x40 MLOAD PUSH1 0x20 DUP2 DUP8 MLOAD DUP1 DUP11 DUP4 MCOPY DUP2 ADD PUSH1 0x5 DUP2 MSTORE SUB ADD SWAP1 KECCAK256 PUSH2 0x785 DUP4 DUP11 PUSH2 0x1CB9 JUMP JUMPDEST MLOAD SWAP1 PUSH2 0x1F7E JUMP JUMPDEST ADD PUSH2 0x756 JUMP JUMPDEST POP SWAP1 DUP2 DUP6 DUP6 PUSH1 0x1 DUP1 PUSH1 0xA0 SHL SUB PUSH1 0x2 SLOAD AND SWAP1 PUSH1 0x3 DUP2 ADD SWAP2 DUP1 EXTCODESIZE ISZERO PUSH2 0x5BC JUMPI PUSH2 0x7E0 DUP6 SWAP2 PUSH2 0x7F2 SWAP4 DUP4 PUSH1 0x40 MLOAD DUP1 SWAP7 DUP2 SWAP6 DUP3 SWAP5 PUSH4 0x871811F1 PUSH1 0xE0 SHL DUP5 MSTORE PUSH1 0x60 PUSH1 0x4 DUP6 ADD MSTORE PUSH1 0x1 PUSH1 0x64 DUP6 ADD SWAP2 ADD PUSH2 0x19A6 JUMP JUMPDEST DUP3 DUP2 SUB PUSH1 0x3 NOT ADD PUSH1 0x24 DUP5 ADD MSTORE DUP10 PUSH2 0x19A6 JUMP JUMPDEST PUSH1 0x1 PUSH1 0x44 DUP4 ADD MSTORE SUB SWAP3 GAS CALL SWAP1 DUP2 ISZERO PUSH2 0x887 JUMPI DUP5 SWAP2 PUSH2 0x872 JUMPI JUMPDEST POP POP PUSH1 0x2 SLOAD PUSH1 0x1 PUSH1 0x1 PUSH1 0xA0 SHL SUB AND SWAP2 DUP3 EXTCODESIZE ISZERO PUSH2 0x5C0 JUMPI PUSH2 0x844 SWAP3 DUP5 SWAP3 DUP4 PUSH1 0x40 MLOAD DUP1 SWAP7 DUP2 SWAP6 DUP3 SWAP5 PUSH4 0x29A2AC27 PUSH1 0xE1 SHL DUP5 MSTORE PUSH1 0x4 DUP5 ADD PUSH2 0x1FC0 JUMP JUMPDEST SUB SWAP3 GAS CALL DUP1 ISZERO PUSH2 0x53B JUMPI PUSH2 0x85D JUMPI JUMPDEST POP PUSH2 0x4A7 DUP3 PUSH2 0x21CD JUMP JUMPDEST DUP2 PUSH2 0x867 SWAP2 PUSH2 0x1703 JUMP JUMPDEST PUSH2 0x5C4 JUMPI DUP2 DUP4 PUSH2 0x853 JUMP JUMPDEST DUP2 PUSH2 0x87C SWAP2 PUSH2 0x1703 JUMP JUMPDEST PUSH2 0x546 JUMPI DUP3 DUP7 PUSH2 0x80B JUMP JUMPDEST PUSH1 0x40 MLOAD RETURNDATASIZE DUP7 DUP3 RETURNDATACOPY RETURNDATASIZE SWAP1 REVERT JUMPDEST PUSH1 0x40 MLOAD PUSH3 0x461BCD PUSH1 0xE5 SHL DUP2 MSTORE PUSH1 0x20 PUSH1 0x4 DUP3 ADD MSTORE PUSH1 0x12 PUSH1 0x24 DUP3 ADD MSTORE PUSH18 0x50616272696B20616363657373206F6E6C79 PUSH1 0x70 SHL PUSH1 0x44 DUP3 ADD MSTORE PUSH1 0x64 SWAP1 REVERT JUMPDEST PUSH2 0x8E5 SWAP2 POP PUSH1 0x20 RETURNDATASIZE PUSH1 0x20 GT PUSH2 0x572 JUMPI PUSH2 0x564 DUP2 DUP4 PUSH2 0x1703 JUMP JUMPDEST PUSH0 PUSH2 0x6C4 JUMP JUMPDEST POP CALLVALUE PUSH2 0x5C6 JUMPI DUP1 PUSH1 0x3 NOT CALLDATASIZE ADD SLT PUSH2 0x5C6 JUMPI SLOAD PUSH1 0x40 MLOAD PUSH1 0x1 PUSH1 0x1 PUSH1 0xA0 SHL SUB SWAP1 SWAP2 AND DUP2 MSTORE PUSH1 0x20 SWAP1 RETURN JUMPDEST POP CALLVALUE PUSH2 0x5C6 JUMPI PUSH1 0x20 CALLDATASIZE PUSH1 0x3 NOT ADD SLT PUSH2 0x5C6 JUMPI PUSH1 0x4 CALLDATALOAD DUP2 PUSH1 0x1 PUSH1 0x1 PUSH1 0x40 SHL SUB DUP3 GT PUSH2 0x5C6 JUMPI PUSH2 0x947 PUSH2 0x62C SWAP3 CALLDATASIZE SWAP1 PUSH1 0x4 ADD PUSH2 0x173F JUMP JUMPDEST PUSH1 0x1 DUP1 PUSH1 0xA0 SHL SUB PUSH1 0x2 SLOAD AND PUSH1 0x40 MLOAD DUP1 DUP1 SWAP6 DUP2 SWAP5 PUSH4 0xE1336DA5 PUSH1 0xE0 SHL DUP4 MSTORE PUSH1 0x20 PUSH1 0x4 DUP5 ADD MSTORE PUSH1 0x24 DUP4 ADD SWAP1 PUSH2 0x1785 JUMP JUMPDEST POP CALLVALUE PUSH2 0x5C6 JUMPI PUSH1 0x20 CALLDATASIZE PUSH1 0x3 NOT ADD SLT PUSH2 0x5C6 JUMPI PUSH1 0x4 CALLDATALOAD PUSH1 0x1 PUSH1 0x1 PUSH1 0x40 SHL SUB DUP2 GT PUSH2 0x5C4 JUMPI PUSH1 0x20 PUSH1 0x60 SWAP3 PUSH2 0x9AC DUP3 SWAP4 CALLDATASIZE SWAP1 PUSH1 0x4 ADD PUSH2 0x173F JUMP JUMPDEST SWAP1 PUSH1 0x40 DUP1 MLOAD PUSH2 0x9BA DUP2 PUSH2 0x16CD JUMP JUMPDEST DUP3 DUP2 MSTORE DUP3 DUP6 DUP3 ADD MSTORE ADD MSTORE PUSH1 0x40 MLOAD SWAP3 DUP2 DUP5 SWAP3 MLOAD SWAP2 DUP3 SWAP2 ADD DUP4 MCOPY DUP2 ADD PUSH1 0x7 DUP2 MSTORE SUB ADD SWAP1 KECCAK256 PUSH1 0x40 MLOAD PUSH2 0x9E8 DUP2 PUSH2 0x16CD JUMP JUMPDEST DUP2 SLOAD SWAP2 DUP3 DUP3 MSTORE PUSH1 0x40 PUSH1 0x2 PUSH1 0x1 DUP4 ADD SLOAD SWAP3 PUSH1 0x20 DUP6 ADD SWAP4 DUP5 MSTORE ADD SLOAD SWAP3 ADD SWAP2 DUP3 MSTORE PUSH1 0x40 MLOAD SWAP3 DUP4 MSTORE MLOAD PUSH1 0x20 DUP4 ADD MSTORE MLOAD PUSH1 0x40 DUP3 ADD MSTORE RETURN JUMPDEST POP CALLVALUE PUSH2 0x5C6 JUMPI PUSH2 0xA29 CALLDATASIZE PUSH2 0x1A3E JUMP JUMPDEST PUSH1 0x1 SLOAD PUSH1 0x40 MLOAD PUSH4 0x95A8C58D PUSH1 0xE0 SHL DUP2 MSTORE CALLER PUSH1 0x4 DUP3 ADD MSTORE PUSH1 0x3 PUSH1 0x24 DUP3 ADD MSTORE SWAP2 SWAP4 SWAP3 SWAP2 SWAP1 PUSH1 0x20 SWAP1 DUP3 SWAP1 PUSH1 0x44 SWAP1 DUP3 SWAP1 PUSH1 0x1 PUSH1 0x1 PUSH1 0xA0 SHL SUB AND GAS STATICCALL SWAP1 DUP2 ISZERO PUSH2 0x579 JUMPI DUP4 SWAP2 PUSH2 0xC41 JUMPI JUMPDEST POP ISZERO PUSH2 0xC05 JUMPI PUSH1 0x40 MLOAD SWAP1 DUP1 MLOAD SWAP2 PUSH1 0x20 DUP2 DUP2 DUP5 ADD SWAP5 DUP1 DUP7 DUP4 MCOPY DUP2 ADD PUSH1 0x6 DUP2 MSTORE SUB ADD SWAP1 KECCAK256 SWAP3 PUSH1 0x9 DUP5 ADD PUSH1 0x2 PUSH1 0xFF NOT DUP3 SLOAD AND OR SWAP1 SSTORE PUSH1 0x40 MLOAD PUSH1 0x2 DUP4 MLOAD DUP1 DUP7 DUP5 MCOPY DUP3 ADD SWAP2 PUSH1 0x7 DUP4 MSTORE PUSH1 0x20 DUP2 TIMESTAMP SWAP5 SUB ADD SWAP1 KECCAK256 ADD SSTORE PUSH1 0xA DUP5 ADD SWAP1 PUSH2 0xAD3 PUSH2 0xACE DUP4 PUSH2 0x1D65 JUMP JUMPDEST PUSH2 0x1E05 JUMP JUMPDEST PUSH2 0xAF1 PUSH1 0x40 MLOAD PUSH1 0x20 DUP2 DUP7 MLOAD DUP1 DUP10 DUP4 MCOPY DUP2 ADD PUSH1 0x5 DUP2 MSTORE SUB ADD SWAP1 KECCAK256 PUSH2 0x1E05 JUMP JUMPDEST DUP1 JUMPDEST DUP7 MLOAD DUP2 LT ISZERO PUSH2 0xB3E JUMPI PUSH1 0x1 SWAP1 PUSH2 0xB15 PUSH2 0xB0B DUP6 PUSH2 0x1D65 JUMP JUMPDEST PUSH2 0x785 DUP4 DUP12 PUSH2 0x1CB9 JUMP JUMPDEST PUSH2 0xB38 PUSH1 0x40 MLOAD PUSH1 0x20 DUP2 DUP9 MLOAD DUP1 DUP12 DUP4 MCOPY DUP2 ADD PUSH1 0x5 DUP2 MSTORE SUB ADD SWAP1 KECCAK256 PUSH2 0x785 DUP4 DUP12 PUSH2 0x1CB9 JUMP JUMPDEST ADD PUSH2 0xAF3 JUMP JUMPDEST POP PUSH1 0x2 SLOAD DUP4 SWAP1 DUP3 SWAP1 DUP9 SWAP1 PUSH1 0x3 DUP10 ADD SWAP1 DUP10 SWAP1 PUSH1 0x1 PUSH1 0x1 PUSH1 0xA0 SHL SUB AND DUP1 EXTCODESIZE ISZERO PUSH2 0x5BC JUMPI DUP5 PUSH1 0x40 MLOAD DUP1 SWAP3 PUSH4 0x30B3E0EF PUSH1 0xE2 SHL DUP3 MSTORE PUSH1 0x40 PUSH1 0x4 DUP4 ADD MSTORE DUP2 DUP4 DUP2 PUSH2 0xB86 PUSH1 0x44 DUP3 ADD DUP11 PUSH2 0x19A6 JUMP JUMPDEST PUSH1 0x1 PUSH1 0x24 DUP4 ADD MSTORE SUB SWAP3 GAS CALL SWAP1 DUP2 ISZERO PUSH2 0xBFA JUMPI DUP6 SWAP2 PUSH2 0xBE5 JUMPI JUMPDEST POP POP PUSH1 0x2 SLOAD PUSH1 0x1 PUSH1 0x1 PUSH1 0xA0 SHL SUB AND DUP1 EXTCODESIZE ISZERO PUSH2 0x5BC JUMPI PUSH2 0x7E0 DUP6 SWAP2 PUSH2 0x7F2 SWAP4 DUP4 PUSH1 0x40 MLOAD DUP1 SWAP7 DUP2 SWAP6 DUP3 SWAP5 PUSH4 0x871811F1 PUSH1 0xE0 SHL DUP5 MSTORE PUSH1 0x60 PUSH1 0x4 DUP6 ADD MSTORE PUSH1 0x1 PUSH1 0x64 DUP6 ADD SWAP2 ADD PUSH2 0x19A6 JUMP JUMPDEST DUP2 PUSH2 0xBEF SWAP2 PUSH2 0x1703 JUMP JUMPDEST PUSH2 0x5C0 JUMPI DUP4 DUP8 PUSH2 0xB9F JUMP JUMPDEST PUSH1 0x40 MLOAD RETURNDATASIZE DUP8 DUP3 RETURNDATACOPY RETURNDATASIZE SWAP1 REVERT JUMPDEST PUSH1 0x40 MLOAD PUSH3 0x461BCD PUSH1 0xE5 SHL DUP2 MSTORE PUSH1 0x20 PUSH1 0x4 DUP3 ADD MSTORE PUSH1 0x14 PUSH1 0x24 DUP3 ADD MSTORE PUSH20 0x52657461696C657220616363657373206F6E6C79 PUSH1 0x60 SHL PUSH1 0x44 DUP3 ADD MSTORE PUSH1 0x64 SWAP1 REVERT JUMPDEST PUSH2 0xC5A SWAP2 POP PUSH1 0x20 RETURNDATASIZE PUSH1 0x20 GT PUSH2 0x572 JUMPI PUSH2 0x564 DUP2 DUP4 PUSH2 0x1703 JUMP JUMPDEST PUSH0 PUSH2 0xA6E JUMP JUMPDEST POP CALLVALUE PUSH2 0x5C6 JUMPI DUP1 PUSH1 0x3 NOT CALLDATASIZE ADD SLT PUSH2 0x5C6 JUMPI PUSH1 0x3 SLOAD PUSH1 0x40 MLOAD PUSH1 0x1 PUSH1 0x1 PUSH1 0xA0 SHL SUB SWAP1 SWAP2 AND DUP2 MSTORE PUSH1 0x20 SWAP1 RETURN JUMPDEST POP CALLVALUE PUSH2 0x5C6 JUMPI PUSH1 0x20 CALLDATASIZE PUSH1 0x3 NOT ADD SLT PUSH2 0x5C6 JUMPI PUSH1 0x4 CALLDATALOAD SWAP1 PUSH1 0x1 PUSH1 0x1 PUSH1 0x40 SHL SUB DUP3 GT PUSH2 0x5C6 JUMPI PUSH2 0x650 PUSH1 0x20 DUP1 PUSH2 0xCC0 CALLDATASIZE PUSH1 0x4 DUP8 ADD PUSH2 0x173F JUMP JUMPDEST PUSH2 0xCC8 PUSH2 0x1C19 JUMP JUMPDEST POP PUSH1 0x40 MLOAD SWAP3 DUP2 DUP5 SWAP3 MLOAD SWAP2 DUP3 SWAP2 ADD DUP4 MCOPY DUP2 ADD PUSH1 0x6 DUP2 MSTORE SUB ADD SWAP1 KECCAK256 PUSH1 0xA PUSH2 0xDAB PUSH1 0x40 MLOAD SWAP3 PUSH2 0xCF3 DUP5 PUSH2 0x169D JUMP JUMPDEST PUSH1 0x40 MLOAD PUSH2 0xD0B DUP2 PUSH2 0xD04 DUP2 DUP6 PUSH2 0x19A6 JUMP JUMPDEST SUB DUP3 PUSH2 0x1703 JUMP JUMPDEST DUP5 MSTORE PUSH1 0x40 MLOAD PUSH2 0xD21 DUP2 PUSH2 0xD04 DUP2 PUSH1 0x1 DUP7 ADD PUSH2 0x19A6 JUMP JUMPDEST PUSH1 0x20 DUP6 ADD MSTORE PUSH1 0x40 MLOAD PUSH2 0xD3A DUP2 PUSH2 0xD04 DUP2 PUSH1 0x2 DUP7 ADD PUSH2 0x19A6 JUMP JUMPDEST PUSH1 0x40 DUP6 ADD MSTORE PUSH1 0x40 MLOAD PUSH2 0xD53 DUP2 PUSH2 0xD04 DUP2 PUSH1 0x3 DUP7 ADD PUSH2 0x19A6 JUMP JUMPDEST PUSH1 0x60 DUP6 ADD MSTORE PUSH1 0xFF PUSH1 0x4 DUP3 ADD SLOAD AND PUSH1 0x80 DUP6 ADD MSTORE PUSH2 0xD71 PUSH1 0x5 DUP3 ADD PUSH2 0x1CCD JUMP JUMPDEST PUSH1 0xA0 DUP6 ADD MSTORE PUSH2 0xD82 PUSH1 0x7 DUP3 ADD PUSH2 0x1CCD JUMP JUMPDEST PUSH1 0xC0 DUP6 ADD MSTORE PUSH2 0xD9B PUSH1 0xFF PUSH1 0x9 DUP4 ADD SLOAD AND PUSH1 0xE0 DUP7 ADD PUSH2 0x1D03 JUMP JUMPDEST PUSH2 0xD04 PUSH1 0x40 MLOAD DUP1 SWAP5 DUP2 SWAP4 ADD PUSH2 0x19A6 JUMP JUMPDEST PUSH2 0x100 DUP3 ADD MSTORE PUSH1 0x40 MLOAD SWAP2 DUP3 SWAP2 PUSH1 0x20 DUP4 MSTORE PUSH1 0x20 DUP4 ADD SWAP1 PUSH2 0x17D2 JUMP JUMPDEST POP CALLVALUE PUSH2 0x5C6 JUMPI DUP1 PUSH1 0x3 NOT CALLDATASIZE ADD SLT PUSH2 0x5C6 JUMPI PUSH1 0x2 SLOAD PUSH1 0x40 MLOAD PUSH4 0x906CE017 PUSH1 0xE0 SHL DUP2 MSTORE SWAP1 DUP3 SWAP1 DUP3 SWAP1 PUSH1 0x4 SWAP1 DUP3 SWAP1 PUSH1 0x1 PUSH1 0x1 PUSH1 0xA0 SHL SUB AND GAS STATICCALL SWAP1 DUP2 ISZERO PUSH2 0x53B JUMPI DUP3 PUSH2 0x650 SWAP4 SWAP3 PUSH2 0x654 JUMPI POP POP PUSH1 0x40 MLOAD SWAP2 DUP3 SWAP2 DUP3 PUSH2 0x1AFE JUMP JUMPDEST POP CALLVALUE PUSH2 0x5C6 JUMPI PUSH2 0xE29 CALLDATASIZE PUSH2 0x1A3E JUMP JUMPDEST PUSH1 0x1 DUP1 SLOAD PUSH1 0x40 MLOAD PUSH4 0x95A8C58D PUSH1 0xE0 SHL DUP2 MSTORE CALLER PUSH1 0x4 DUP3 ADD MSTORE PUSH1 0x24 DUP2 ADD SWAP3 SWAP1 SWAP3 MSTORE SWAP2 SWAP4 SWAP3 SWAP2 PUSH1 0x20 SWAP1 DUP3 SWAP1 PUSH1 0x44 SWAP1 DUP3 SWAP1 PUSH1 0x1 PUSH1 0x1 PUSH1 0xA0 SHL SUB AND GAS STATICCALL SWAP1 DUP2 ISZERO PUSH2 0x579 JUMPI SWAP1 PUSH2 0xE7A SWAP2 DUP5 SWAP2 PUSH2 0x10BB JUMPI JUMPDEST POP PUSH2 0x1D27 JUMP JUMPDEST PUSH1 0x40 MLOAD SWAP1 DUP1 MLOAD SWAP2 PUSH1 0x20 DUP2 DUP2 DUP5 ADD SWAP5 DUP1 DUP7 DUP4 MCOPY DUP2 ADD PUSH1 0x6 DUP2 MSTORE SUB ADD SWAP1 KECCAK256 SWAP3 PUSH1 0x9 DUP5 ADD PUSH1 0x2 PUSH1 0xFF NOT DUP3 SLOAD AND OR SWAP1 SSTORE PUSH1 0x40 MLOAD PUSH1 0x2 DUP4 MLOAD DUP1 DUP7 DUP5 MCOPY DUP3 ADD SWAP2 PUSH1 0x7 DUP4 MSTORE PUSH1 0x20 DUP2 TIMESTAMP SWAP5 SUB ADD SWAP1 KECCAK256 ADD SSTORE PUSH2 0xEE1 PUSH1 0x40 MLOAD PUSH1 0x20 DUP2 DUP6 MLOAD DUP1 DUP9 DUP4 MCOPY DUP2 ADD PUSH1 0x5 DUP2 MSTORE SUB ADD SWAP1 KECCAK256 PUSH2 0x1E05 JUMP JUMPDEST DUP1 JUMPDEST DUP6 MLOAD DUP2 LT ISZERO PUSH2 0xF18 JUMPI PUSH1 0x1 SWAP1 PUSH2 0xF12 PUSH1 0x40 MLOAD PUSH1 0x20 DUP2 DUP8 MLOAD DUP1 DUP11 DUP4 MCOPY DUP2 ADD PUSH1 0x5 DUP2 MSTORE SUB ADD SWAP1 KECCAK256 PUSH2 0x785 DUP4 DUP11 PUSH2 0x1CB9 JUMP JUMPDEST ADD PUSH2 0xEE3 JUMP JUMPDEST POP SWAP1 DUP2 DUP5 DUP7 PUSH1 0x1 DUP1 PUSH1 0xA0 SHL SUB PUSH1 0x2 SLOAD AND SWAP2 PUSH1 0x1 DUP2 ADD SWAP2 PUSH1 0x3 DUP3 ADD SWAP4 DUP1 EXTCODESIZE ISZERO PUSH2 0x5B8 JUMPI DUP6 PUSH1 0x40 MLOAD DUP1 SWAP3 PUSH4 0x871811F1 PUSH1 0xE0 SHL DUP3 MSTORE PUSH1 0x60 PUSH1 0x4 DUP4 ADD MSTORE DUP2 DUP4 DUP2 PUSH2 0xF76 PUSH2 0xF64 PUSH1 0x64 DUP4 ADD DUP13 PUSH2 0x19A6 JUMP JUMPDEST DUP3 DUP2 SUB PUSH1 0x3 NOT ADD PUSH1 0x24 DUP5 ADD MSTORE DUP13 PUSH2 0x19A6 JUMP JUMPDEST PUSH1 0x1 PUSH1 0x44 DUP4 ADD MSTORE SUB SWAP3 GAS CALL SWAP1 DUP2 ISZERO PUSH2 0x10B0 JUMPI DUP7 SWAP2 PUSH2 0x109B JUMPI JUMPDEST POP POP PUSH1 0x2 SLOAD PUSH1 0x1 PUSH1 0x1 PUSH1 0xA0 SHL SUB AND DUP1 EXTCODESIZE ISZERO PUSH2 0x5B8 JUMPI PUSH1 0x40 MLOAD PUSH4 0x29A2AC27 PUSH1 0xE1 SHL DUP2 MSTORE SWAP2 DUP7 SWAP2 DUP4 SWAP2 DUP3 SWAP1 DUP5 SWAP1 DUP3 SWAP1 PUSH2 0xFCA SWAP1 DUP12 PUSH1 0x4 DUP5 ADD PUSH2 0x1FC0 JUMP JUMPDEST SUB SWAP3 GAS CALL SWAP1 DUP2 ISZERO PUSH2 0xBFA JUMPI DUP6 SWAP2 PUSH2 0x1086 JUMPI JUMPDEST POP POP PUSH1 0x1 DUP1 PUSH1 0xA0 SHL SUB PUSH1 0x2 SLOAD AND PUSH1 0xFF PUSH1 0x4 DUP4 ADD SLOAD AND DUP2 EXTCODESIZE ISZERO PUSH2 0x5B8 JUMPI DUP6 DUP1 SWAP5 PUSH2 0x844 PUSH2 0x1035 SWAP4 PUSH1 0x5 DUP12 SWAP8 PUSH2 0x106E PUSH2 0x1047 SWAP12 PUSH2 0x105C PUSH1 0x40 MLOAD SWAP14 DUP15 SWAP13 DUP14 SWAP12 DUP13 SWAP11 PUSH4 0xD33D8A13 PUSH1 0xE0 SHL DUP13 MSTORE PUSH1 0xC0 PUSH1 0x4 DUP14 ADD MSTORE PUSH1 0xC4 DUP13 ADD SWAP1 PUSH2 0x19A6 JUMP JUMPDEST DUP11 DUP2 SUB PUSH1 0x3 NOT ADD PUSH1 0x24 DUP13 ADD MSTORE SWAP1 PUSH2 0x1785 JUMP JUMPDEST DUP9 DUP2 SUB PUSH1 0x3 NOT ADD PUSH1 0x44 DUP11 ADD MSTORE PUSH1 0x2 DUP6 ADD PUSH2 0x19A6 JUMP JUMPDEST DUP8 DUP2 SUB PUSH1 0x3 NOT ADD PUSH1 0x64 DUP10 ADD MSTORE SWAP1 PUSH2 0x19A6 JUMP JUMPDEST SWAP3 PUSH1 0x84 DUP7 ADD MSTORE PUSH1 0x3 NOT DUP6 DUP5 SUB ADD PUSH1 0xA4 DUP7 ADD MSTORE ADD PUSH2 0x19A6 JUMP JUMPDEST DUP2 PUSH2 0x1090 SWAP2 PUSH2 0x1703 JUMP JUMPDEST PUSH2 0x5C0 JUMPI DUP4 DUP8 PUSH2 0xFDC JUMP JUMPDEST DUP2 PUSH2 0x10A5 SWAP2 PUSH2 0x1703 JUMP JUMPDEST PUSH2 0x5BC JUMPI DUP5 DUP9 PUSH2 0xF8F JUMP JUMPDEST PUSH1 0x40 MLOAD RETURNDATASIZE DUP9 DUP3 RETURNDATACOPY RETURNDATASIZE SWAP1 REVERT JUMPDEST PUSH2 0x10D4 SWAP2 POP PUSH1 0x20 RETURNDATASIZE PUSH1 0x20 GT PUSH2 0x572 JUMPI PUSH2 0x564 DUP2 DUP4 PUSH2 0x1703 JUMP JUMPDEST PUSH0 PUSH2 0xE74 JUMP JUMPDEST POP CALLVALUE PUSH2 0x5C6 JUMPI PUSH2 0x10E9 CALLDATASIZE PUSH2 0x1A3E JUMP JUMPDEST PUSH1 0x1 DUP1 SLOAD PUSH1 0x40 MLOAD PUSH4 0x95A8C58D PUSH1 0xE0 SHL DUP2 MSTORE CALLER PUSH1 0x4 DUP3 ADD MSTORE PUSH1 0x24 DUP2 ADD SWAP3 SWAP1 SWAP3 MSTORE SWAP3 SWAP4 SWAP3 PUSH1 0x20 SWAP1 DUP3 SWAP1 PUSH1 0x44 SWAP1 DUP3 SWAP1 PUSH1 0x1 PUSH1 0x1 PUSH1 0xA0 SHL SUB AND GAS STATICCALL SWAP1 DUP2 ISZERO PUSH2 0x579 JUMPI SWAP1 PUSH2 0x1138 SWAP2 DUP5 SWAP2 PUSH2 0x10BB JUMPI POP PUSH2 0x1D27 JUMP JUMPDEST PUSH1 0x40 MLOAD SWAP3 DUP1 MLOAD SWAP4 PUSH1 0x20 DUP2 DUP2 DUP5 ADD SWAP7 DUP1 DUP9 DUP4 MCOPY DUP2 ADD PUSH1 0x6 DUP2 MSTORE SUB ADD SWAP1 KECCAK256 SWAP3 PUSH1 0x8 DUP5 ADD PUSH1 0x1 DUP1 PUSH1 0xA0 SHL SUB CALLER AND PUSH12 0xFFFFFFFFFFFFFFFFFFFFFFFF PUSH1 0xA0 SHL DUP3 SLOAD AND OR SWAP1 SSTORE PUSH1 0x9 DUP5 ADD PUSH1 0x1 PUSH1 0xFF NOT DUP3 SLOAD AND OR SWAP1 SSTORE PUSH1 0x40 MLOAD PUSH1 0x1 DUP4 MLOAD DUP1 DUP9 DUP5 MCOPY DUP3 ADD SWAP2 PUSH1 0x7 DUP4 MSTORE PUSH1 0x20 DUP2 TIMESTAMP SWAP5 SUB ADD SWAP1 KECCAK256 ADD SSTORE PUSH2 0x11C8 PUSH2 0xACE PUSH1 0xA PUSH1 0x40 MLOAD PUSH1 0x20 DUP2 DUP8 MLOAD DUP1 DUP13 DUP4 MCOPY DUP2 ADD PUSH1 0x6 DUP2 MSTORE SUB ADD SWAP1 KECCAK256 ADD PUSH2 0x1D65 JUMP JUMPDEST PUSH2 0x11E6 PUSH1 0x40 MLOAD PUSH1 0x20 DUP2 DUP6 MLOAD DUP1 DUP11 DUP4 MCOPY DUP2 ADD PUSH1 0x5 DUP2 MSTORE SUB ADD SWAP1 KECCAK256 PUSH2 0x1E05 JUMP JUMPDEST DUP1 JUMPDEST DUP4 MLOAD DUP2 LT ISZERO PUSH2 0x124C JUMPI PUSH1 0x1 SWAP1 PUSH2 0x1223 PUSH2 0x1219 PUSH1 0xA PUSH1 0x40 MLOAD PUSH1 0x20 DUP2 DUP13 DUP11 MLOAD DUP1 SWAP2 DUP4 MCOPY DUP2 ADD PUSH1 0x6 DUP2 MSTORE SUB ADD SWAP1 KECCAK256 ADD PUSH2 0x1D65 JUMP JUMPDEST PUSH2 0x785 DUP4 DUP9 PUSH2 0x1CB9 JUMP JUMPDEST PUSH2 0x1246 PUSH1 0x40 MLOAD PUSH1 0x20 DUP2 DUP8 MLOAD DUP1 DUP13 DUP4 MCOPY DUP2 ADD PUSH1 0x5 DUP2 MSTORE SUB ADD SWAP1 KECCAK256 PUSH2 0x785 DUP4 DUP9 PUSH2 0x1CB9 JUMP JUMPDEST ADD PUSH2 0x11E8 JUMP JUMPDEST POP PUSH1 0x2 SLOAD SWAP1 SWAP3 SWAP1 PUSH1 0x3 DUP6 ADD SWAP1 PUSH1 0x1 PUSH1 0x1 PUSH1 0xA0 SHL SUB AND DUP5 DUP7 DUP3 EXTCODESIZE ISZERO PUSH2 0x5C4 JUMPI PUSH2 0x129A SWAP3 PUSH2 0x7E0 SWAP2 DUP4 PUSH1 0x40 MLOAD DUP1 SWAP7 DUP2 SWAP6 DUP3 SWAP5 PUSH4 0x871811F1 PUSH1 0xE0 SHL DUP5 MSTORE PUSH1 0x60 PUSH1 0x4 DUP6 ADD MSTORE PUSH1 0x1 PUSH1 0x64 DUP6 ADD SWAP2 ADD PUSH2 0x19A6 JUMP JUMPDEST PUSH1 0x1 PUSH1 0x44 DUP4 ADD MSTORE SUB SWAP3 GAS CALL DUP1 ISZERO PUSH2 0xBFA JUMPI PUSH2 0x1340 JUMPI JUMPDEST POP PUSH1 0x2 SLOAD DUP5 SWAP3 SWAP2 SWAP1 PUSH1 0x1 PUSH1 0x1 PUSH1 0xA0 SHL SUB AND DUP1 EXTCODESIZE ISZERO PUSH2 0x5C0 JUMPI DUP4 PUSH1 0x40 MLOAD DUP1 SWAP3 PUSH4 0x30B3E0EF PUSH1 0xE2 SHL DUP3 MSTORE PUSH1 0x40 PUSH1 0x4 DUP4 ADD MSTORE DUP2 DUP4 DUP2 PUSH2 0x12EF PUSH1 0x44 DUP3 ADD DUP10 PUSH2 0x19A6 JUMP JUMPDEST PUSH1 0x1 PUSH1 0x24 DUP4 ADD MSTORE SUB SWAP3 GAS CALL SWAP1 DUP2 ISZERO PUSH2 0x887 JUMPI DUP5 SWAP2 PUSH2 0x872 JUMPI POP POP PUSH1 0x2 SLOAD PUSH1 0x1 PUSH1 0x1 PUSH1 0xA0 SHL SUB AND SWAP2 DUP3 EXTCODESIZE ISZERO PUSH2 0x5C0 JUMPI PUSH2 0x844 SWAP3 DUP5 SWAP3 DUP4 PUSH1 0x40 MLOAD DUP1 SWAP7 DUP2 SWAP6 DUP3 SWAP5 PUSH4 0x29A2AC27 PUSH1 0xE1 SHL DUP5 MSTORE PUSH1 0x4 DUP5 ADD PUSH2 0x1FC0 JUMP JUMPDEST DUP5 PUSH2 0x134E SWAP2 SWAP6 SWAP3 SWAP4 SWAP6 PUSH2 0x1703 JUMP JUMPDEST SWAP3 SWAP1 DUP5 PUSH2 0x12B0 JUMP JUMPDEST POP CALLVALUE PUSH2 0x5C6 JUMPI PUSH1 0x20 CALLDATASIZE PUSH1 0x3 NOT ADD SLT PUSH2 0x5C6 JUMPI PUSH1 0x4 CALLDATALOAD PUSH1 0x1 PUSH1 0x1 PUSH1 0x40 SHL SUB DUP2 GT PUSH2 0x5C4 JUMPI PUSH2 0x1387 SWAP1 CALLDATASIZE SWAP1 PUSH1 0x4 ADD PUSH2 0x173F JUMP JUMPDEST PUSH1 0x40 MLOAD DUP2 MLOAD SWAP1 PUSH1 0x20 DUP2 DUP2 DUP6 ADD SWAP4 DUP1 DUP6 DUP4 MCOPY DUP2 ADD PUSH1 0x8 DUP2 MSTORE SUB ADD SWAP1 KECCAK256 SLOAD SWAP2 PUSH2 0x13AD DUP4 PUSH2 0x1C6A JUMP JUMPDEST SWAP4 JUMPDEST DUP4 DUP2 LT PUSH2 0x13C4 JUMPI PUSH1 0x40 MLOAD DUP1 PUSH2 0x650 DUP8 DUP3 PUSH2 0x18A2 JUMP JUMPDEST DUP1 PUSH2 0x1401 PUSH2 0xD04 PUSH2 0x13FC PUSH2 0x13EF PUSH1 0x1 SWAP6 PUSH1 0x40 MLOAD PUSH1 0x20 DUP2 DUP11 MLOAD DUP1 DUP14 DUP4 MCOPY DUP2 ADD PUSH1 0x8 DUP2 MSTORE SUB ADD SWAP1 KECCAK256 PUSH2 0x1959 JUMP JUMPDEST POP PUSH1 0x40 MLOAD SWAP3 DUP4 DUP1 SWAP3 PUSH2 0x19A6 JUMP JUMPDEST PUSH2 0x1BE1 JUMP JUMPDEST PUSH1 0xA PUSH2 0x1439 PUSH1 0x40 MLOAD SWAP3 PUSH2 0x1413 DUP5 PUSH2 0x169D JUMP JUMPDEST PUSH1 0x40 MLOAD PUSH2 0x1424 DUP2 PUSH2 0xD04 DUP2 DUP6 PUSH2 0x19A6 JUMP JUMPDEST DUP5 MSTORE PUSH1 0x40 MLOAD PUSH2 0xD21 DUP2 PUSH2 0xD04 DUP2 DUP11 DUP7 ADD PUSH2 0x19A6 JUMP JUMPDEST PUSH2 0x100 DUP3 ADD MSTORE PUSH2 0x1449 DUP3 DUP9 PUSH2 0x1CB9 JUMP JUMPDEST MSTORE PUSH2 0x1454 DUP2 DUP8 PUSH2 0x1CB9 JUMP JUMPDEST POP ADD PUSH2 0x13AF JUMP JUMPDEST CALLVALUE PUSH2 0x14CA JUMPI PUSH1 0x20 CALLDATASIZE PUSH1 0x3 NOT ADD SLT PUSH2 0x14CA JUMPI PUSH1 0x4 CALLDATALOAD PUSH1 0x4 SLOAD DUP2 LT ISZERO PUSH2 0x14CA JUMPI PUSH1 0x4 SLOAD DUP2 LT ISZERO PUSH2 0x14B6 JUMPI PUSH2 0xD04 PUSH2 0x14A2 PUSH2 0x650 SWAP3 PUSH1 0x4 PUSH0 MSTORE PUSH1 0x20 PUSH0 KECCAK256 ADD PUSH1 0x40 MLOAD SWAP3 DUP4 DUP1 SWAP3 PUSH2 0x19A6 JUMP JUMPDEST PUSH1 0x40 MLOAD SWAP2 DUP3 SWAP2 PUSH1 0x20 DUP4 MSTORE PUSH1 0x20 DUP4 ADD SWAP1 PUSH2 0x1785 JUMP JUMPDEST PUSH4 0x4E487B71 PUSH1 0xE0 SHL PUSH0 MSTORE PUSH1 0x32 PUSH1 0x4 MSTORE PUSH1 0x24 PUSH0 REVERT JUMPDEST PUSH0 DUP1 REVERT JUMPDEST CALLVALUE PUSH2 0x14CA JUMPI PUSH0 CALLDATASIZE PUSH1 0x3 NOT ADD SLT PUSH2 0x14CA JUMPI PUSH1 0x2 SLOAD PUSH1 0x40 MLOAD PUSH1 0x1 PUSH1 0x1 PUSH1 0xA0 SHL SUB SWAP1 SWAP2 AND DUP2 MSTORE PUSH1 0x20 SWAP1 RETURN JUMPDEST CALLVALUE PUSH2 0x14CA JUMPI PUSH1 0x20 CALLDATASIZE PUSH1 0x3 NOT ADD SLT PUSH2 0x14CA JUMPI PUSH1 0x4 CALLDATALOAD PUSH1 0x1 PUSH1 0x1 PUSH1 0x40 SHL SUB DUP2 GT PUSH2 0x14CA JUMPI PUSH1 0x20 PUSH2 0x1529 DUP2 SWAP3 CALLDATASIZE SWAP1 PUSH1 0x4 ADD PUSH2 0x173F JUMP JUMPDEST PUSH1 0x40 MLOAD SWAP3 DUP2 DUP5 SWAP3 MLOAD SWAP2 DUP3 SWAP2 ADD DUP4 MCOPY DUP2 ADD PUSH1 0x5 DUP2 MSTORE SUB ADD SWAP1 KECCAK256 DUP1 SLOAD PUSH2 0x154C DUP2 PUSH2 0x1A27 JUMP JUMPDEST SWAP2 PUSH2 0x155A PUSH1 0x40 MLOAD SWAP4 DUP5 PUSH2 0x1703 JUMP JUMPDEST DUP2 DUP4 MSTORE PUSH1 0x20 DUP4 ADD SWAP1 PUSH0 MSTORE PUSH1 0x20 PUSH0 KECCAK256 PUSH0 SWAP2 JUMPDEST DUP4 DUP4 LT PUSH2 0x1588 JUMPI PUSH1 0x40 MLOAD PUSH1 0x20 DUP1 DUP3 MSTORE DUP2 SWAP1 PUSH2 0x650 SWAP1 DUP3 ADD DUP9 PUSH2 0x1901 JUMP JUMPDEST PUSH1 0x1 PUSH1 0x20 DUP2 SWAP3 PUSH1 0x40 MLOAD PUSH2 0x159F DUP2 PUSH2 0xD04 DUP2 DUP10 PUSH2 0x19A6 JUMP JUMPDEST DUP2 MSTORE ADD SWAP3 ADD SWAP3 ADD SWAP2 SWAP1 PUSH2 0x156B JUMP JUMPDEST CALLVALUE PUSH2 0x14CA JUMPI PUSH1 0x20 CALLDATASIZE PUSH1 0x3 NOT ADD SLT PUSH2 0x14CA JUMPI PUSH1 0x4 CALLDATALOAD PUSH1 0x1 PUSH1 0x1 PUSH1 0x40 SHL SUB DUP2 GT PUSH2 0x14CA JUMPI PUSH2 0x15DD SWAP1 CALLDATASIZE SWAP1 PUSH1 0x4 ADD PUSH2 0x173F JUMP JUMPDEST PUSH1 0x40 MLOAD DUP2 MLOAD SWAP1 PUSH1 0x20 DUP2 DUP2 DUP6 ADD SWAP4 DUP1 DUP6 DUP4 MCOPY DUP2 ADD PUSH1 0x9 DUP2 MSTORE SUB ADD SWAP1 KECCAK256 SLOAD SWAP1 PUSH2 0x1603 DUP3 PUSH2 0x1C6A JUMP JUMPDEST SWAP3 PUSH0 JUMPDEST DUP4 DUP2 LT PUSH2 0x161B JUMPI PUSH1 0x40 MLOAD DUP1 PUSH2 0x650 DUP8 DUP3 PUSH2 0x18A2 JUMP JUMPDEST DUP1 PUSH2 0x1646 PUSH2 0xD04 PUSH2 0x13FC PUSH2 0x13EF PUSH1 0x1 SWAP6 PUSH1 0x40 MLOAD PUSH1 0x20 DUP2 DUP11 MLOAD DUP1 DUP14 DUP4 MCOPY DUP2 ADD PUSH1 0x9 DUP2 MSTORE SUB ADD SWAP1 KECCAK256 PUSH2 0x1959 JUMP JUMPDEST PUSH1 0xA PUSH2 0x1658 PUSH1 0x40 MLOAD SWAP3 PUSH2 0x1413 DUP5 PUSH2 0x169D JUMP JUMPDEST PUSH2 0x100 DUP3 ADD MSTORE PUSH2 0x1668 DUP3 DUP9 PUSH2 0x1CB9 JUMP JUMPDEST MSTORE PUSH2 0x1673 DUP2 DUP8 PUSH2 0x1CB9 JUMP JUMPDEST POP ADD PUSH2 0x1606 JUMP JUMPDEST CALLVALUE PUSH2 0x14CA JUMPI PUSH0 CALLDATASIZE PUSH1 0x3 NOT ADD SLT PUSH2 0x14CA JUMPI PUSH1 0x1 SLOAD PUSH1 0x1 PUSH1 0x1 PUSH1 0xA0 SHL SUB AND DUP2 MSTORE PUSH1 0x20 SWAP1 RETURN JUMPDEST PUSH2 0x120 DUP2 ADD SWAP1 DUP2 LT PUSH1 0x1 PUSH1 0x1 PUSH1 0x40 SHL SUB DUP3 GT OR PUSH2 0x16B9 JUMPI PUSH1 0x40 MSTORE JUMP JUMPDEST PUSH4 0x4E487B71 PUSH1 0xE0 SHL PUSH0 MSTORE PUSH1 0x41 PUSH1 0x4 MSTORE PUSH1 0x24 PUSH0 REVERT JUMPDEST PUSH1 0x60 DUP2 ADD SWAP1 DUP2 LT PUSH1 0x1 PUSH1 0x1 PUSH1 0x40 SHL SUB DUP3 GT OR PUSH2 0x16B9 JUMPI PUSH1 0x40 MSTORE JUMP JUMPDEST PUSH1 0x40 DUP2 ADD SWAP1 DUP2 LT PUSH1 0x1 PUSH1 0x1 PUSH1 0x40 SHL SUB DUP3 GT OR PUSH2 0x16B9 JUMPI PUSH1 0x40 MSTORE JUMP JUMPDEST SWAP1 PUSH1 0x1F DUP1 NOT SWAP2 ADD AND DUP2 ADD SWAP1 DUP2 LT PUSH1 0x1 PUSH1 0x1 PUSH1 0x40 SHL SUB DUP3 GT OR PUSH2 0x16B9 JUMPI PUSH1 0x40 MSTORE JUMP JUMPDEST PUSH1 0x1 PUSH1 0x1 PUSH1 0x40 SHL SUB DUP2 GT PUSH2 0x16B9 JUMPI PUSH1 0x1F ADD PUSH1 0x1F NOT AND PUSH1 0x20 ADD SWAP1 JUMP JUMPDEST DUP2 PUSH1 0x1F DUP3 ADD SLT ISZERO PUSH2 0x14CA JUMPI DUP1 CALLDATALOAD SWAP1 PUSH2 0x1756 DUP3 PUSH2 0x1724 JUMP JUMPDEST SWAP3 PUSH2 0x1764 PUSH1 0x40 MLOAD SWAP5 DUP6 PUSH2 0x1703 JUMP JUMPDEST DUP3 DUP5 MSTORE PUSH1 0x20 DUP4 DUP4 ADD ADD GT PUSH2 0x14CA JUMPI DUP2 PUSH0 SWAP3 PUSH1 0x20 DUP1 SWAP4 ADD DUP4 DUP7 ADD CALLDATACOPY DUP4 ADD ADD MSTORE SWAP1 JUMP JUMPDEST DUP1 MLOAD DUP1 DUP4 MSTORE PUSH1 0x20 SWAP3 SWAP2 DUP2 SWAP1 DUP5 ADD DUP5 DUP5 ADD MCOPY PUSH0 DUP3 DUP3 ADD DUP5 ADD MSTORE PUSH1 0x1F ADD PUSH1 0x1F NOT AND ADD ADD SWAP1 JUMP JUMPDEST SWAP1 PUSH1 0x20 PUSH2 0x17BF DUP4 MLOAD PUSH1 0x40 DUP5 MSTORE PUSH1 0x40 DUP5 ADD SWAP1 PUSH2 0x1785 JUMP JUMPDEST SWAP3 DUP2 ADD MLOAD PUSH1 0x1 PUSH1 0x1 PUSH1 0xA0 SHL SUB AND SWAP2 ADD MSTORE SWAP1 JUMP JUMPDEST SWAP1 PUSH2 0x185E PUSH2 0x184C PUSH2 0x182D PUSH2 0x181B PUSH2 0x1809 PUSH2 0x17F7 DUP8 MLOAD PUSH2 0x120 DUP9 MSTORE PUSH2 0x120 DUP9 ADD SWAP1 PUSH2 0x1785 JUMP JUMPDEST PUSH1 0x20 DUP9 ADD MLOAD DUP8 DUP3 SUB PUSH1 0x20 DUP10 ADD MSTORE PUSH2 0x1785 JUMP JUMPDEST PUSH1 0x40 DUP8 ADD MLOAD DUP7 DUP3 SUB PUSH1 0x40 DUP9 ADD MSTORE PUSH2 0x1785 JUMP JUMPDEST PUSH1 0x60 DUP7 ADD MLOAD DUP6 DUP3 SUB PUSH1 0x60 DUP8 ADD MSTORE PUSH2 0x1785 JUMP JUMPDEST PUSH1 0xFF PUSH1 0x80 DUP7 ADD MLOAD AND PUSH1 0x80 DUP6 ADD MSTORE PUSH1 0xA0 DUP6 ADD MLOAD DUP5 DUP3 SUB PUSH1 0xA0 DUP7 ADD MSTORE PUSH2 0x17A9 JUMP JUMPDEST PUSH1 0xC0 DUP5 ADD MLOAD DUP4 DUP3 SUB PUSH1 0xC0 DUP6 ADD MSTORE PUSH2 0x17A9 JUMP JUMPDEST SWAP1 PUSH1 0xE0 DUP4 ADD MLOAD PUSH1 0x3 DUP2 LT ISZERO PUSH2 0x188E JUMPI PUSH2 0x188B SWAP4 PUSH2 0x100 SWAP2 PUSH1 0xE0 DUP5 ADD MSTORE ADD MLOAD SWAP1 PUSH2 0x100 DUP2 DUP5 SUB SWAP2 ADD MSTORE PUSH2 0x1785 JUMP JUMPDEST SWAP1 JUMP JUMPDEST PUSH4 0x4E487B71 PUSH1 0xE0 SHL PUSH0 MSTORE PUSH1 0x21 PUSH1 0x4 MSTORE PUSH1 0x24 PUSH0 REVERT JUMPDEST PUSH1 0x20 DUP2 ADD PUSH1 0x20 DUP3 MSTORE DUP3 MLOAD DUP1 SWAP2 MSTORE PUSH1 0x40 DUP3 ADD SWAP2 PUSH1 0x20 PUSH1 0x40 DUP4 PUSH1 0x5 SHL DUP4 ADD ADD SWAP5 ADD SWAP3 PUSH0 SWAP2 JUMPDEST DUP4 DUP4 LT PUSH2 0x18D4 JUMPI POP POP POP POP POP SWAP1 JUMP JUMPDEST SWAP1 SWAP2 SWAP3 SWAP4 SWAP5 PUSH1 0x20 DUP1 PUSH2 0x18F2 PUSH1 0x1 SWAP4 PUSH1 0x3F NOT DUP7 DUP3 SUB ADD DUP8 MSTORE DUP10 MLOAD PUSH2 0x17D2 JUMP JUMPDEST SWAP8 ADD SWAP4 ADD SWAP4 ADD SWAP2 SWAP4 SWAP3 SWAP1 PUSH2 0x18C5 JUMP JUMPDEST SWAP1 DUP1 PUSH1 0x20 DUP4 MLOAD SWAP2 DUP3 DUP2 MSTORE ADD SWAP2 PUSH1 0x20 DUP1 DUP4 PUSH1 0x5 SHL DUP4 ADD ADD SWAP5 ADD SWAP3 PUSH0 SWAP2 JUMPDEST DUP4 DUP4 LT PUSH2 0x192C JUMPI POP POP POP POP POP SWAP1 JUMP JUMPDEST SWAP1 SWAP2 SWAP3 SWAP4 SWAP5 PUSH1 0x20 DUP1 PUSH2 0x194A PUSH1 0x1 SWAP4 PUSH1 0x1F NOT DUP7 DUP3 SUB ADD DUP8 MSTORE DUP10 MLOAD PUSH2 0x1785 JUMP JUMPDEST SWAP8 ADD SWAP4 ADD SWAP4 ADD SWAP2 SWAP4 SWAP3 SWAP1 PUSH2 0x191D JUMP JUMPDEST DUP1 SLOAD DUP3 LT ISZERO PUSH2 0x14B6 JUMPI PUSH0 MSTORE PUSH1 0x20 PUSH0 KECCAK256 ADD SWAP1 PUSH0 SWAP1 JUMP JUMPDEST SWAP1 PUSH1 0x1 DUP3 DUP2 SHR SWAP3 AND DUP1 ISZERO PUSH2 0x199C JUMPI JUMPDEST PUSH1 0x20 DUP4 LT EQ PUSH2 0x1988 JUMPI JUMP JUMPDEST PUSH4 0x4E487B71 PUSH1 0xE0 SHL PUSH0 MSTORE PUSH1 0x22 PUSH1 0x4 MSTORE PUSH1 0x24 PUSH0 REVERT JUMPDEST SWAP2 PUSH1 0x7F AND SWAP2 PUSH2 0x197D JUMP JUMPDEST PUSH0 SWAP3 SWAP2 DUP2 SLOAD SWAP2 PUSH2 0x19B5 DUP4 PUSH2 0x196E JUMP JUMPDEST DUP1 DUP4 MSTORE SWAP3 PUSH1 0x1 DUP2 AND SWAP1 DUP2 ISZERO PUSH2 0x1A0A JUMPI POP PUSH1 0x1 EQ PUSH2 0x19D1 JUMPI POP POP POP JUMP JUMPDEST PUSH0 SWAP1 DUP2 MSTORE PUSH1 0x20 DUP2 KECCAK256 SWAP4 SWAP5 POP SWAP2 SWAP3 JUMPDEST DUP4 DUP4 LT PUSH2 0x19F0 JUMPI POP PUSH1 0x20 SWAP3 POP ADD ADD SWAP1 JUMP JUMPDEST PUSH1 0x1 DUP2 PUSH1 0x20 SWAP3 SWAP5 SWAP4 SWAP5 SLOAD DUP4 DUP6 DUP8 ADD ADD MSTORE ADD SWAP2 ADD SWAP2 SWAP1 PUSH2 0x19DF JUMP JUMPDEST SWAP2 POP POP PUSH1 0x20 SWAP4 SWAP5 POP PUSH1 0xFF SWAP3 SWAP2 SWAP3 NOT AND DUP4 DUP4 ADD MSTORE ISZERO ISZERO PUSH1 0x5 SHL ADD ADD SWAP1 JUMP JUMPDEST PUSH1 0x1 PUSH1 0x1 PUSH1 0x40 SHL SUB DUP2 GT PUSH2 0x16B9 JUMPI PUSH1 0x5 SHL PUSH1 0x20 ADD SWAP1 JUMP JUMPDEST SWAP1 PUSH1 0x40 PUSH1 0x3 NOT DUP4 ADD SLT PUSH2 0x14CA JUMPI PUSH1 0x4 CALLDATALOAD PUSH1 0x1 PUSH1 0x1 PUSH1 0x40 SHL SUB DUP2 GT PUSH2 0x14CA JUMPI DUP3 PUSH2 0x1A69 SWAP2 PUSH1 0x4 ADD PUSH2 0x173F JUMP JUMPDEST SWAP2 PUSH1 0x24 CALLDATALOAD SWAP1 PUSH1 0x1 PUSH1 0x1 PUSH1 0x40 SHL SUB DUP3 GT PUSH2 0x14CA JUMPI DUP1 PUSH1 0x23 DUP4 ADD SLT ISZERO PUSH2 0x14CA JUMPI DUP2 PUSH1 0x4 ADD CALLDATALOAD PUSH2 0x1A95 DUP2 PUSH2 0x1A27 JUMP JUMPDEST SWAP3 PUSH2 0x1AA3 PUSH1 0x40 MLOAD SWAP5 DUP6 PUSH2 0x1703 JUMP JUMPDEST DUP2 DUP5 MSTORE PUSH1 0x24 PUSH1 0x20 DUP6 ADD SWAP3 PUSH1 0x5 SHL DUP3 ADD ADD SWAP2 DUP4 DUP4 GT PUSH2 0x14CA JUMPI PUSH1 0x24 DUP3 ADD SWAP1 JUMPDEST DUP4 DUP3 LT PUSH2 0x1AD0 JUMPI POP POP POP POP POP SWAP1 JUMP JUMPDEST DUP2 CALLDATALOAD PUSH1 0x1 PUSH1 0x1 PUSH1 0x40 SHL SUB DUP2 GT PUSH2 0x14CA JUMPI PUSH1 0x20 SWAP2 PUSH2 0x1AF3 DUP8 PUSH1 0x24 DUP6 SWAP5 DUP9 ADD ADD PUSH2 0x173F JUMP JUMPDEST DUP2 MSTORE ADD SWAP2 ADD SWAP1 PUSH2 0x1AC1 JUMP JUMPDEST PUSH1 0x20 DUP2 ADD PUSH1 0x20 DUP3 MSTORE DUP3 MLOAD DUP1 SWAP2 MSTORE PUSH1 0x40 DUP3 ADD SWAP1 PUSH1 0x20 PUSH1 0x40 DUP3 PUSH1 0x5 SHL DUP6 ADD ADD SWAP5 ADD SWAP3 PUSH0 SWAP1 JUMPDEST DUP3 DUP3 LT PUSH2 0x1B30 JUMPI POP POP POP POP POP SWAP1 JUMP JUMPDEST SWAP1 SWAP2 SWAP3 SWAP4 SWAP5 PUSH1 0x3F NOT DUP3 DUP3 SUB ADD DUP6 MSTORE DUP6 MLOAD SWAP1 PUSH2 0x1B93 PUSH2 0x1B81 PUSH2 0x1B6F PUSH2 0x1B5D DUP6 MLOAD PUSH1 0xE0 DUP7 MSTORE PUSH1 0xE0 DUP7 ADD SWAP1 PUSH2 0x1785 JUMP JUMPDEST PUSH1 0x20 DUP7 ADD MLOAD DUP6 DUP3 SUB PUSH1 0x20 DUP8 ADD MSTORE PUSH2 0x1785 JUMP JUMPDEST PUSH1 0x40 DUP6 ADD MLOAD DUP5 DUP3 SUB PUSH1 0x40 DUP7 ADD MSTORE PUSH2 0x1785 JUMP JUMPDEST PUSH1 0x60 DUP5 ADD MLOAD DUP4 DUP3 SUB PUSH1 0x60 DUP6 ADD MSTORE PUSH2 0x1785 JUMP JUMPDEST SWAP2 PUSH1 0xFF PUSH1 0x80 DUP3 ADD MLOAD AND PUSH1 0x80 DUP4 ADD MSTORE PUSH1 0xA0 DUP2 ADD MLOAD SWAP1 PUSH1 0x2 DUP3 LT ISZERO PUSH2 0x188E JUMPI PUSH1 0x1 SWAP4 DUP4 PUSH1 0xC0 PUSH2 0x1BD4 SWAP4 PUSH1 0x20 SWAP7 SWAP6 PUSH1 0xA0 DUP9 SWAP8 ADD MSTORE ADD MLOAD SWAP1 PUSH1 0xC0 DUP2 DUP5 SUB SWAP2 ADD MSTORE PUSH2 0x1785 JUMP JUMPDEST SWAP8 ADD SWAP6 ADD SWAP4 SWAP3 ADD SWAP1 PUSH2 0x1B21 JUMP JUMPDEST PUSH1 0x20 DUP1 SWAP2 PUSH1 0x40 MLOAD SWAP3 DUP2 DUP5 SWAP3 MLOAD SWAP2 DUP3 SWAP2 ADD DUP4 MCOPY DUP2 ADD PUSH1 0x6 DUP2 MSTORE SUB ADD SWAP1 KECCAK256 SWAP1 JUMP JUMPDEST PUSH1 0x40 MLOAD SWAP1 PUSH2 0x1C0D DUP3 PUSH2 0x16E8 JUMP JUMPDEST PUSH0 PUSH1 0x20 DUP4 PUSH1 0x60 DUP2 MSTORE ADD MSTORE JUMP JUMPDEST PUSH1 0x40 MLOAD SWAP1 PUSH2 0x1C26 DUP3 PUSH2 0x169D JUMP JUMPDEST PUSH1 0x60 PUSH2 0x100 DUP4 DUP3 DUP2 MSTORE DUP3 PUSH1 0x20 DUP3 ADD MSTORE DUP3 PUSH1 0x40 DUP3 ADD MSTORE DUP3 DUP1 DUP3 ADD MSTORE PUSH0 PUSH1 0x80 DUP3 ADD MSTORE PUSH2 0x1C4E PUSH2 0x1C00 JUMP JUMPDEST PUSH1 0xA0 DUP3 ADD MSTORE PUSH2 0x1C5B PUSH2 0x1C00 JUMP JUMPDEST PUSH1 0xC0 DUP3 ADD MSTORE PUSH0 PUSH1 0xE0 DUP3 ADD MSTORE ADD MSTORE JUMP JUMPDEST SWAP1 PUSH2 0x1C74 DUP3 PUSH2 0x1A27 JUMP JUMPDEST PUSH2 0x1C81 PUSH1 0x40 MLOAD SWAP2 DUP3 PUSH2 0x1703 JUMP JUMPDEST DUP3 DUP2 MSTORE DUP1 SWAP3 PUSH2 0x1C92 PUSH1 0x1F NOT SWAP2 PUSH2 0x1A27 JUMP JUMPDEST ADD SWAP1 PUSH0 JUMPDEST DUP3 DUP2 LT PUSH2 0x1CA2 JUMPI POP POP POP JUMP JUMPDEST PUSH1 0x20 SWAP1 PUSH2 0x1CAD PUSH2 0x1C19 JUMP JUMPDEST DUP3 DUP3 DUP6 ADD ADD MSTORE ADD PUSH2 0x1C96 JUMP JUMPDEST DUP1 MLOAD DUP3 LT ISZERO PUSH2 0x14B6 JUMPI PUSH1 0x20 SWAP2 PUSH1 0x5 SHL ADD ADD SWAP1 JUMP JUMPDEST SWAP1 PUSH1 0x40 MLOAD PUSH2 0x1CDA DUP2 PUSH2 0x16E8 JUMP JUMPDEST PUSH1 0x20 DUP2 SWAP4 PUSH1 0x40 MLOAD PUSH2 0x1CEF DUP2 PUSH2 0xD04 DUP2 DUP6 PUSH2 0x19A6 JUMP JUMPDEST DUP4 MSTORE PUSH1 0x1 ADD SLOAD PUSH1 0x1 PUSH1 0x1 PUSH1 0xA0 SHL SUB AND SWAP2 ADD MSTORE JUMP JUMPDEST PUSH1 0x3 DUP3 LT ISZERO PUSH2 0x188E JUMPI MSTORE JUMP JUMPDEST SWAP1 DUP2 PUSH1 0x20 SWAP2 SUB SLT PUSH2 0x14CA JUMPI MLOAD DUP1 ISZERO ISZERO DUP2 SUB PUSH2 0x14CA JUMPI SWAP1 JUMP JUMPDEST ISZERO PUSH2 0x1D2E JUMPI JUMP JUMPDEST PUSH1 0x40 MLOAD PUSH3 0x461BCD PUSH1 0xE5 SHL DUP2 MSTORE PUSH1 0x20 PUSH1 0x4 DUP3 ADD MSTORE PUSH1 0xF PUSH1 0x24 DUP3 ADD MSTORE PUSH15 0x50424620616363657373206F6E6C79 PUSH1 0x88 SHL PUSH1 0x44 DUP3 ADD MSTORE PUSH1 0x64 SWAP1 REVERT JUMPDEST PUSH1 0x40 MLOAD SWAP1 DUP2 PUSH0 DUP3 SLOAD SWAP3 PUSH2 0x1D77 DUP5 PUSH2 0x196E JUMP JUMPDEST SWAP4 PUSH1 0x1 DUP2 AND SWAP1 DUP2 ISZERO PUSH2 0x1DD5 JUMPI POP PUSH1 0x1 EQ PUSH2 0x1D9C JUMPI JUMPDEST POP PUSH1 0x20 SWAP3 POP PUSH1 0x5 DUP2 MSTORE SUB ADD SWAP1 KECCAK256 SWAP1 JUMP JUMPDEST SWAP2 POP POP PUSH0 MSTORE DUP2 PUSH1 0x20 PUSH0 KECCAK256 PUSH0 SWAP1 JUMPDEST DUP4 DUP3 LT PUSH2 0x1DBD JUMPI POP POP PUSH1 0x20 SWAP2 DUP2 ADD PUSH0 PUSH2 0x1D8C JUMP JUMPDEST PUSH1 0x20 SWAP2 SWAP3 POP DUP1 PUSH1 0x1 SWAP2 SLOAD DUP5 DUP8 ADD MSTORE ADD SWAP2 ADD DUP4 SWAP2 PUSH2 0x1DA9 JUMP JUMPDEST PUSH1 0xFF NOT AND DUP5 MSTORE POP PUSH1 0x20 SWAP4 DUP1 ISZERO ISZERO MUL DUP4 ADD SWAP2 POP PUSH0 SWAP1 POP PUSH2 0x1D8C JUMP JUMPDEST DUP2 DUP2 LT PUSH2 0x1DFA JUMPI POP POP JUMP JUMPDEST PUSH0 DUP2 SSTORE PUSH1 0x1 ADD PUSH2 0x1DEF JUMP JUMPDEST DUP1 SLOAD SWAP1 PUSH0 DUP2 SSTORE DUP2 PUSH2 0x1E14 JUMPI POP POP JUMP JUMPDEST PUSH0 MSTORE PUSH1 0x20 PUSH0 KECCAK256 SWAP1 DUP2 ADD SWAP1 JUMPDEST DUP2 DUP2 LT PUSH2 0x1E2A JUMPI POP POP JUMP JUMPDEST DUP1 PUSH2 0x1E37 PUSH1 0x1 SWAP3 SLOAD PUSH2 0x196E JUMP JUMPDEST DUP1 PUSH2 0x1E44 JUMPI JUMPDEST POP ADD PUSH2 0x1E1F JUMP JUMPDEST PUSH1 0x1F DUP2 GT DUP4 EQ PUSH2 0x1E59 JUMPI POP PUSH0 DUP2 SSTORE JUMPDEST PUSH0 PUSH2 0x1E3D JUMP JUMPDEST PUSH2 0x1E75 SWAP1 DUP3 PUSH0 MSTORE DUP4 PUSH1 0x1F PUSH1 0x20 PUSH0 KECCAK256 SWAP3 ADD PUSH1 0x5 SHR DUP3 ADD SWAP2 ADD PUSH2 0x1DEF JUMP JUMPDEST DUP1 PUSH0 MSTORE PUSH0 PUSH1 0x20 DUP2 KECCAK256 DUP2 DUP4 SSTORE SSTORE PUSH2 0x1E53 JUMP JUMPDEST SWAP2 SWAP1 SWAP2 DUP3 MLOAD PUSH1 0x1 PUSH1 0x1 PUSH1 0x40 SHL SUB DUP2 GT PUSH2 0x16B9 JUMPI PUSH2 0x1EA3 DUP3 SLOAD PUSH2 0x196E JUMP JUMPDEST PUSH1 0x1F DUP2 GT PUSH2 0x1F43 JUMPI JUMPDEST POP PUSH1 0x20 PUSH1 0x1F DUP3 GT PUSH1 0x1 EQ PUSH2 0x1EE5 JUMPI DUP2 SWAP3 SWAP4 SWAP5 PUSH0 SWAP3 PUSH2 0x1EDA JUMPI JUMPDEST POP POP DUP2 PUSH1 0x1 SHL SWAP2 PUSH0 NOT SWAP1 PUSH1 0x3 SHL SHR NOT AND OR SWAP1 SSTORE JUMP JUMPDEST ADD MLOAD SWAP1 POP PUSH0 DUP1 PUSH2 0x1EC5 JUMP JUMPDEST PUSH1 0x1F NOT DUP3 AND SWAP1 DUP4 PUSH0 MSTORE DUP1 PUSH0 KECCAK256 SWAP2 PUSH0 JUMPDEST DUP2 DUP2 LT PUSH2 0x1F2B JUMPI POP SWAP6 DUP4 PUSH1 0x1 SWAP6 SWAP7 SWAP8 LT PUSH2 0x1F13 JUMPI JUMPDEST POP POP POP DUP2 SHL ADD SWAP1 SSTORE JUMP JUMPDEST ADD MLOAD PUSH0 NOT PUSH1 0xF8 DUP5 PUSH1 0x3 SHL AND SHR NOT AND SWAP1 SSTORE PUSH0 DUP1 DUP1 PUSH2 0x1F09 JUMP JUMPDEST SWAP2 SWAP3 PUSH1 0x20 PUSH1 0x1 DUP2 SWAP3 DUP7 DUP12 ADD MLOAD DUP2 SSTORE ADD SWAP5 ADD SWAP3 ADD PUSH2 0x1EF4 JUMP JUMPDEST PUSH2 0x1F6E SWAP1 DUP4 PUSH0 MSTORE PUSH1 0x20 PUSH0 KECCAK256 PUSH1 0x1F DUP5 ADD PUSH1 0x5 SHR DUP2 ADD SWAP2 PUSH1 0x20 DUP6 LT PUSH2 0x1F74 JUMPI JUMPDEST PUSH1 0x1F ADD PUSH1 0x5 SHR ADD SWAP1 PUSH2 0x1DEF JUMP JUMPDEST PUSH0 PUSH2 0x1EAC JUMP JUMPDEST SWAP1 SWAP2 POP DUP2 SWAP1 PUSH2 0x1F61 JUMP JUMPDEST DUP1 SLOAD PUSH1 0x1 PUSH1 0x40 SHL DUP2 LT ISZERO PUSH2 0x16B9 JUMPI PUSH2 0x1F9B SWAP2 PUSH1 0x1 DUP3 ADD DUP2 SSTORE PUSH2 0x1959 JUMP JUMPDEST SWAP2 SWAP1 SWAP2 PUSH2 0x1FAD JUMPI PUSH2 0x1FAB SWAP2 PUSH2 0x1E86 JUMP JUMPDEST JUMP JUMPDEST PUSH4 0x4E487B71 PUSH1 0xE0 SHL PUSH0 MSTORE PUSH0 PUSH1 0x4 MSTORE PUSH1 0x24 PUSH0 REVERT JUMPDEST SWAP1 SWAP2 PUSH2 0x1FD7 PUSH2 0x188B SWAP4 PUSH1 0x40 DUP5 MSTORE PUSH1 0x40 DUP5 ADD SWAP1 PUSH2 0x19A6 JUMP JUMPDEST SWAP2 PUSH1 0x20 DUP2 DUP5 SUB SWAP2 ADD MSTORE PUSH2 0x1901 JUMP JUMPDEST DUP2 PUSH1 0x1F DUP3 ADD SLT ISZERO PUSH2 0x14CA JUMPI DUP1 MLOAD SWAP1 PUSH2 0x1FFC DUP3 PUSH2 0x1724 JUMP JUMPDEST SWAP3 PUSH2 0x200A PUSH1 0x40 MLOAD SWAP5 DUP6 PUSH2 0x1703 JUMP JUMPDEST DUP3 DUP5 MSTORE PUSH1 0x20 DUP4 DUP4 ADD ADD GT PUSH2 0x14CA JUMPI DUP2 PUSH0 SWAP3 PUSH1 0x20 DUP1 SWAP4 ADD DUP4 DUP7 ADD MCOPY DUP4 ADD ADD MSTORE SWAP1 JUMP JUMPDEST PUSH1 0x20 DUP2 DUP4 SUB SLT PUSH2 0x14CA JUMPI DUP1 MLOAD SWAP1 PUSH1 0x1 PUSH1 0x1 PUSH1 0x40 SHL SUB DUP3 GT PUSH2 0x14CA JUMPI ADD SWAP1 DUP1 PUSH1 0x1F DUP4 ADD SLT ISZERO PUSH2 0x14CA JUMPI DUP2 MLOAD SWAP2 PUSH2 0x205F DUP4 PUSH2 0x1A27 JUMP JUMPDEST SWAP3 PUSH2 0x206D PUSH1 0x40 MLOAD SWAP5 DUP6 PUSH2 0x1703 JUMP JUMPDEST DUP1 DUP5 MSTORE PUSH1 0x20 DUP1 DUP6 ADD SWAP2 PUSH1 0x5 SHL DUP4 ADD ADD SWAP2 DUP4 DUP4 GT PUSH2 0x14CA JUMPI PUSH1 0x20 DUP2 ADD SWAP2 JUMPDEST DUP4 DUP4 LT PUSH2 0x2099 JUMPI POP POP POP POP POP SWAP1 JUMP JUMPDEST DUP3 MLOAD PUSH1 0x1 PUSH1 0x1 PUSH1 0x40 SHL SUB DUP2 GT PUSH2 0x14CA JUMPI DUP3 ADD SWAP1 PUSH1 0xE0 DUP3 DUP8 SUB PUSH1 0x1F NOT ADD SLT PUSH2 0x14CA JUMPI PUSH1 0x40 MLOAD SWAP1 PUSH1 0xE0 DUP3 ADD DUP3 DUP2 LT PUSH1 0x1 PUSH1 0x1 PUSH1 0x40 SHL SUB DUP3 GT OR PUSH2 0x16B9 JUMPI PUSH1 0x40 MSTORE PUSH1 0x20 DUP4 ADD MLOAD PUSH1 0x1 PUSH1 0x1 PUSH1 0x40 SHL SUB DUP2 GT PUSH2 0x14CA JUMPI DUP8 PUSH1 0x20 PUSH2 0x20F9 SWAP3 DUP7 ADD ADD PUSH2 0x1FE5 JUMP JUMPDEST DUP3 MSTORE PUSH1 0x40 DUP4 ADD MLOAD PUSH1 0x1 PUSH1 0x1 PUSH1 0x40 SHL SUB DUP2 GT PUSH2 0x14CA JUMPI DUP8 PUSH1 0x20 PUSH2 0x211D SWAP3 DUP7 ADD ADD PUSH2 0x1FE5 JUMP JUMPDEST PUSH1 0x20 DUP4 ADD MSTORE PUSH1 0x60 DUP4 ADD MLOAD PUSH1 0x1 PUSH1 0x1 PUSH1 0x40 SHL SUB DUP2 GT PUSH2 0x14CA JUMPI DUP8 PUSH1 0x20 PUSH2 0x2144 SWAP3 DUP7 ADD ADD PUSH2 0x1FE5 JUMP JUMPDEST PUSH1 0x40 DUP4 ADD MSTORE PUSH1 0x80 DUP4 ADD MLOAD PUSH1 0x1 PUSH1 0x1 PUSH1 0x40 SHL SUB DUP2 GT PUSH2 0x14CA JUMPI DUP8 PUSH1 0x20 PUSH2 0x216B SWAP3 DUP7 ADD ADD PUSH2 0x1FE5 JUMP JUMPDEST PUSH1 0x60 DUP4 ADD MSTORE PUSH1 0xA0 DUP4 ADD MLOAD PUSH1 0xFF DUP2 AND DUP2 SUB PUSH2 0x14CA JUMPI PUSH1 0x80 DUP4 ADD MSTORE PUSH1 0xC0 DUP4 ADD MLOAD PUSH1 0x2 DUP2 LT ISZERO PUSH2 0x14CA JUMPI PUSH1 0xA0 DUP4 ADD MSTORE PUSH1 0xE0 DUP4 ADD MLOAD SWAP2 PUSH1 0x1 PUSH1 0x1 PUSH1 0x40 SHL SUB DUP4 GT PUSH2 0x14CA JUMPI PUSH2 0x21BD DUP9 PUSH1 0x20 DUP1 SWAP7 SWAP6 DUP2 SWAP7 ADD ADD PUSH2 0x1FE5 JUMP JUMPDEST PUSH1 0xC0 DUP3 ADD MSTORE DUP2 MSTORE ADD SWAP3 ADD SWAP2 PUSH2 0x208A JUMP JUMPDEST PUSH2 0x2324 PUSH1 0x20 DUP1 PUSH32 0x1D1B0398FCE0E5341C30C157D9D5B2976F5DCCE30F83882D674EBCD6839CE24F SWAP4 PUSH2 0x21FD PUSH2 0x1C19 JUMP JUMPDEST POP PUSH1 0x40 MLOAD SWAP3 DUP2 DUP5 SWAP3 MLOAD SWAP2 DUP3 SWAP2 ADD DUP4 MCOPY DUP2 ADD PUSH1 0x6 DUP2 MSTORE SUB ADD SWAP1 KECCAK256 PUSH1 0x40 MLOAD PUSH2 0x2222 DUP2 PUSH2 0x169D JUMP JUMPDEST PUSH1 0x40 MLOAD PUSH2 0x2233 DUP2 PUSH2 0xD04 DUP2 DUP7 PUSH2 0x19A6 JUMP JUMPDEST DUP2 MSTORE PUSH1 0x40 MLOAD PUSH2 0x2249 DUP2 PUSH2 0xD04 DUP2 PUSH1 0x1 DUP8 ADD PUSH2 0x19A6 JUMP JUMPDEST PUSH1 0x20 DUP3 ADD MSTORE PUSH2 0x234E PUSH1 0x40 MLOAD SWAP3 PUSH2 0x226D DUP5 PUSH2 0x2266 DUP2 PUSH1 0x2 DUP6 ADD PUSH2 0x19A6 JUMP JUMPDEST SUB DUP6 PUSH2 0x1703 JUMP JUMPDEST PUSH1 0x40 DUP4 ADD SWAP4 DUP5 MSTORE PUSH2 0x2340 PUSH1 0x40 MLOAD SWAP2 PUSH2 0x2293 DUP4 PUSH2 0x228C DUP2 PUSH1 0x3 DUP6 ADD PUSH2 0x19A6 JUMP JUMPDEST SUB DUP5 PUSH2 0x1703 JUMP JUMPDEST PUSH1 0x60 DUP6 ADD SWAP3 DUP4 MSTORE PUSH2 0x2332 PUSH1 0xFF DUP1 PUSH1 0x4 DUP5 ADD SLOAD AND SWAP5 PUSH1 0x80 DUP9 ADD SWAP6 DUP7 MSTORE PUSH1 0xA PUSH2 0x100 PUSH2 0x22BF PUSH1 0x5 DUP8 ADD PUSH2 0x1CCD JUMP JUMPDEST SWAP10 PUSH1 0xA0 DUP2 ADD SWAP11 DUP12 MSTORE PUSH2 0x2301 PUSH2 0x22D6 PUSH1 0x7 DUP10 ADD PUSH2 0x1CCD JUMP JUMPDEST SWAP8 PUSH1 0xC0 DUP4 ADD SWAP9 DUP10 MSTORE PUSH2 0x22F1 DUP8 PUSH1 0x9 DUP4 ADD SLOAD AND PUSH1 0xE0 DUP6 ADD PUSH2 0x1D03 JUMP JUMPDEST PUSH2 0x228C PUSH1 0x40 MLOAD DUP1 SWAP7 DUP2 SWAP4 ADD PUSH2 0x19A6 JUMP JUMPDEST ADD MSTORE MLOAD SWAP8 MLOAD SWAP7 MLOAD MLOAD SWAP3 MLOAD MLOAD SWAP5 MLOAD AND SWAP6 PUSH1 0x40 MLOAD SWAP9 DUP10 SWAP9 PUSH1 0xC0 DUP11 MSTORE PUSH1 0xC0 DUP11 ADD SWAP1 PUSH2 0x1785 JUMP JUMPDEST SWAP1 DUP9 DUP3 SUB PUSH1 0x20 DUP11 ADD MSTORE PUSH2 0x1785 JUMP JUMPDEST SWAP1 DUP7 DUP3 SUB PUSH1 0x40 DUP9 ADD MSTORE PUSH2 0x1785 JUMP JUMPDEST SWAP1 DUP5 DUP3 SUB PUSH1 0x60 DUP7 ADD MSTORE PUSH2 0x1785 JUMP JUMPDEST SWAP1 PUSH1 0x80 DUP4 ADD MSTORE TIMESTAMP PUSH1 0xA0 DUP4 ADD MSTORE SUB SWAP1 LOG1 JUMP INVALID LOG2 PUSH5 0x6970667358 0x22 SLT KECCAK256 ORIGIN LOG2 0x4B 0xF9 0xE3 ADD 0xDC MCOPY 0xDB MSTORE8 DUP15 PREVRANDAO CALLVALUE SWAP8 CALLDATASIZE DUP4 DUP15 JUMP DUP6 RETURN 0xD8 SWAP3 SELFDESTRUCT MSTORE8 0xDD 0x2B 0xE4 0xBB 0xF LOG3 0x2A PUSH28 0x64736F6C634300081B00330000000000000000000000000000000000 "},"methodIdentifiers":{"AllOrderIds(uint256)":"5a5f578f","acceptOrderPbf(string,string[])":"ee399ed4","acceptOrderRetailer(string,string[])":"64484ac9","cdobCertificate()":"af3a1758","completeOrderPbf(string,string[])":"756b460f","completeOrderRetailer(string,string[])":"af9bf53d","createOrder(string,string,string,string,string,string,string,uint8,string)":"fc0e6523","detailOrder(string)":"986a0790","getAllObatPbfByInstance(string)":"f07b2c7a","getAllObatPbfReadyStock()":"906ce017","getAllObatRetailerByInstance(string)":"e1336da5","getAllOrderFromBuyer(string)":"60e4b3cf","getAllOrderFromSeller(string)":"1c2fc292","obatIpfs(string)":"271962d4","obatShared()":"3fca88cb","obatTradisional()":"ea020d59","orderTimestamp(string)":"b711e82b","roleManager()":"00435da5"}}}}}