{"contracts/ObatTradisional.sol":{"ObatTradisional":{"abi":[{"inputs":[{"internalType":"address","name":"_roleManagerAddr","type":"address"}],"stateMutability":"nonpayable","type":"constructor"},{"anonymous":false,"inputs":[{"indexed":false,"internalType":"string","name":"nieNumber","type":"string"},{"indexed":false,"internalType":"string","name":"namaProduk","type":"string"}],"name":"evt_nieApproved","type":"event"},{"anonymous":false,"inputs":[{"indexed":false,"internalType":"string","name":"obatId","type":"string"},{"indexed":false,"internalType":"uint256","name":"timestampRequested","type":"uint256"},{"indexed":false,"internalType":"string","name":"namaProduk","type":"string"}],"name":"evt_nieRequested","type":"event"},{"anonymous":false,"inputs":[{"indexed":false,"internalType":"string","name":"namaProduk","type":"string"},{"indexed":false,"internalType":"string","name":"factoryInstanceNames","type":"string"},{"indexed":false,"internalType":"string","name":"factoryUserNames","type":"string"},{"indexed":false,"internalType":"address","name":"factoryAddresses","type":"address"},{"indexed":false,"internalType":"string","name":"kemasan","type":"string"},{"indexed":false,"internalType":"enum ObatTradisional.en_tipeProduk","name":"en_tipeProduk","type":"uint8"}],"name":"evt_obatCreated","type":"event"},{"inputs":[{"internalType":"uint256","name":"","type":"uint256"}],"name":"allObatData","outputs":[{"internalType":"string","name":"obatId","type":"string"},{"internalType":"string","name":"merk","type":"string"},{"internalType":"string","name":"namaProduk","type":"string"},{"internalType":"string","name":"kemasan","type":"string"},{"internalType":"enum ObatTradisional.en_tipeProduk","name":"tipeProduk","type":"uint8"},{"internalType":"enum ObatTradisional.en_obatStatus","name":"obatStatus","type":"uint8"},{"internalType":"uint256","name":"nieRequestDate","type":"uint256"},{"internalType":"uint256","name":"nieApprovalDate","type":"uint256"},{"internalType":"string","name":"nieNumber","type":"string"}],"stateMutability":"view","type":"function"},{"inputs":[{"internalType":"string","name":"_obatId","type":"string"},{"internalType":"address","name":"_bpomAddr","type":"address"},{"internalType":"string","name":"_bpomInstanceName","type":"string"},{"internalType":"string","name":"_bpomUserName","type":"string"},{"internalType":"string","name":"_nieNumber","type":"string"}],"name":"approveNie","outputs":[],"stateMutability":"nonpayable","type":"function"},{"inputs":[{"internalType":"string","name":"","type":"string"}],"name":"bpomAddresses","outputs":[{"internalType":"address","name":"","type":"address"}],"stateMutability":"view","type":"function"},{"inputs":[{"internalType":"string","name":"","type":"string"}],"name":"bpomInstanceNames","outputs":[{"internalType":"string","name":"","type":"string"}],"stateMutability":"view","type":"function"},{"inputs":[{"internalType":"string","name":"","type":"string"}],"name":"bpomUserNames","outputs":[{"internalType":"string","name":"","type":"string"}],"stateMutability":"view","type":"function"},{"inputs":[{"internalType":"string","name":"_obatId","type":"string"},{"internalType":"string","name":"_merk","type":"string"},{"internalType":"string","name":"_namaProduk","type":"string"},{"internalType":"string[]","name":"_klaim","type":"string[]"},{"internalType":"string","name":"_kemasan","type":"string"},{"internalType":"string[]","name":"_komposisi","type":"string[]"},{"internalType":"address","name":"_factoryAddr","type":"address"},{"internalType":"string","name":"_factoryInstanceName","type":"string"},{"internalType":"string","name":"_factoryUserName","type":"string"},{"internalType":"enum ObatTradisional.en_tipeProduk","name":"_tipeProduk","type":"uint8"}],"name":"createObat","outputs":[],"stateMutability":"nonpayable","type":"function"},{"inputs":[{"internalType":"string","name":"","type":"string"}],"name":"factoryAddresses","outputs":[{"internalType":"address","name":"","type":"address"}],"stateMutability":"view","type":"function"},{"inputs":[{"internalType":"string","name":"","type":"string"}],"name":"factoryInstanceNames","outputs":[{"internalType":"string","name":"","type":"string"}],"stateMutability":"view","type":"function"},{"inputs":[{"internalType":"string","name":"","type":"string"}],"name":"factoryUserNames","outputs":[{"internalType":"string","name":"","type":"string"}],"stateMutability":"view","type":"function"},{"inputs":[],"name":"getListAllObatNie","outputs":[{"internalType":"string[]","name":"","type":"string[]"},{"internalType":"string[]","name":"","type":"string[]"},{"internalType":"string[]","name":"","type":"string[]"},{"internalType":"uint256[]","name":"","type":"uint256[]"},{"internalType":"uint8[]","name":"","type":"uint8[]"}],"stateMutability":"view","type":"function"},{"inputs":[{"internalType":"string","name":"_factoryInstanceName","type":"string"}],"name":"getListObatByFactory","outputs":[{"internalType":"string[]","name":"","type":"string[]"},{"internalType":"string[]","name":"","type":"string[]"},{"internalType":"uint8[]","name":"","type":"uint8[]"},{"internalType":"uint8[]","name":"","type":"uint8[]"}],"stateMutability":"view","type":"function"},{"inputs":[{"internalType":"string","name":"_obatId","type":"string"}],"name":"getListObatById","outputs":[{"components":[{"internalType":"string","name":"obatId","type":"string"},{"internalType":"string","name":"merk","type":"string"},{"internalType":"string","name":"namaProduk","type":"string"},{"internalType":"string[]","name":"klaim","type":"string[]"},{"internalType":"string","name":"kemasan","type":"string"},{"internalType":"string[]","name":"komposisi","type":"string[]"},{"internalType":"enum ObatTradisional.en_tipeProduk","name":"tipeProduk","type":"uint8"},{"internalType":"enum ObatTradisional.en_obatStatus","name":"obatStatus","type":"uint8"},{"internalType":"uint256","name":"nieRequestDate","type":"uint256"},{"internalType":"uint256","name":"nieApprovalDate","type":"uint256"},{"internalType":"string","name":"nieNumber","type":"string"}],"internalType":"struct ObatTradisional.st_obatDetails","name":"obatDetails","type":"tuple"},{"internalType":"address","name":"factoryAddress","type":"address"},{"internalType":"string","name":"factoryInstanceName","type":"string"},{"internalType":"string","name":"factoryUserName","type":"string"},{"internalType":"address","name":"bpomAddress","type":"address"},{"internalType":"string","name":"bpomInstanceName","type":"string"},{"internalType":"string","name":"bpomUserName","type":"string"}],"stateMutability":"view","type":"function"},{"inputs":[{"internalType":"address","name":"user","type":"address"}],"name":"getRole","outputs":[{"internalType":"enum ObatTradisional.en_roles","name":"","type":"uint8"},{"internalType":"address","name":"","type":"address"}],"stateMutability":"view","type":"function"},{"inputs":[{"internalType":"string","name":"","type":"string"}],"name":"obatDetailsById","outputs":[{"internalType":"string","name":"obatId","type":"string"},{"internalType":"string","name":"merk","type":"string"},{"internalType":"string","name":"namaProduk","type":"string"},{"internalType":"string","name":"kemasan","type":"string"},{"internalType":"enum ObatTradisional.en_tipeProduk","name":"tipeProduk","type":"uint8"},{"internalType":"enum ObatTradisional.en_obatStatus","name":"obatStatus","type":"uint8"},{"internalType":"uint256","name":"nieRequestDate","type":"uint256"},{"internalType":"uint256","name":"nieApprovalDate","type":"uint256"},{"internalType":"string","name":"nieNumber","type":"string"}],"stateMutability":"view","type":"function"},{"inputs":[{"internalType":"string","name":"_obatId","type":"string"}],"name":"requestNie","outputs":[],"stateMutability":"nonpayable","type":"function"},{"inputs":[{"internalType":"address","name":"","type":"address"}],"name":"userRoles","outputs":[{"internalType":"enum ObatTradisional.en_roles","name":"","type":"uint8"}],"stateMutability":"view","type":"function"}],"evm":{"bytecode":{"linkReferences":{},"object":"608034607057601f612cce38819003918201601f19168301916001600160401b03831184841017607557808492602094604052833981010312607057516001600160a01b03811690819003607057600080546001600160a01b031916919091179055604051612c42908161008c8239f35b600080fd5b634e487b7160e01b600052604160045260246000fdfe6080604052600436101561001257600080fd5b60003560e01c80631c0b203014611cfa5780631dce6e5814611ac657806325606bc3146116645780632732183714611613578063349a7a72146115bf57806344276733146115755780634b87568a1461150d57806374d5e100146114c75780637aad01bd146113f85780637ade51dd14610d045780639d9315c214610cb0578063a812536d14610c5c578063bc4a6f6c146109e8578063d9d284dc14610417578063e06749ba146101575763f1022862146100cc57600080fd5b34610152576020366003190112610152576004356001600160401b0381116101525761013361013a61011d602061010a61014e953690600401611d9f565b8160405193828580945193849201611df5565b8101600681520301902060405192838092611f21565b0382611d7e565b604051918291602083526020830190611e18565b0390f35b600080fd5b3461015257600036600319011261015257600080600154905b8181106103d957506101818261219b565b9061018b8361219b565b6101948461219b565b61019d85612073565b916101ab6040519384611d7e565b8583526101cc6101ba87612073565b602085019790601f19013689376121e5565b93600090815b81811061025b57505050602091610208610216926101fb6040519860a08a5260a08a0190611e3d565b90888203868a0152611e3d565b908682036040880152611e3d565b918483036060860152519182815201939060005b81811061024557848061014e88878382036080850152611e96565b825186526020958601959092019160010161022a565b60ff60066102688361203e565b50015460081c1660038110156103b057610285575b6001016101d2565b916101336102a26102958561203e565b5060405192838092611f21565b6102ac828a612217565b526102b78189612217565b5060026102d76102c68561203e565b506101336040518094819301611f21565b6102e18286612217565b526102ec8185612217565b5061013361032261030e60206103018761203e565b5060405192838092612108565b600881520301902060405192838092611f21565b61032c8287612217565b526103378186612217565b5060086103438461203e565b50015460076103518561203e565b50015410156103c65760086103658461203e565b5001545b6103738288612217565b5260ff60066103818561203e565b50015460081c1660038110156103b057816103a8916103a26001948b612217565b52612176565b92905061027d565b634e487b7160e01b600052602160045260246000fd5b60076103d18461203e565b500154610369565b60ff60066103e68361203e565b50015460081c1660038110156103b057610403575b600101610170565b9161040f600191612176565b9290506103fb565b3461015257610140366003190112610152576004356001600160401b03811161015257610448903690600401611d9f565b6024356001600160401b03811161015257610467903690600401611d9f565b6044356001600160401b03811161015257610486903690600401611d9f565b916064356001600160401b038111610152576104a690369060040161208a565b916084356001600160401b038111610152576104c6903690600401611d9f565b9060a4356001600160401b038111610152576104e690369060040161208a565b9060c4359360018060a01b0385168095036101525760e4356001600160401b0381116101525761051a903690600401611d9f565b90610104356001600160401b0381116101525761053b903690600401611d9f565b936101243597600289101561015257600080546040516395a8c58d60e01b81523360048201526024810192909252602090829060449082906001600160a01b03165afa80156109dc57610596916000916109ad575b506122c6565b604051946105a386611d62565b8386526020860152896040860152606085015285608085015260a08401526105ce8760c0850161228b565b600060e0840152600061010084015260006101208401526020926040516105f58582611d7e565b600081526101408201526040519061062a8184519387818188019661061b81838a611df5565b81016003815203019020612311565b600154600160401b8110156108df57806001610649920160015561203e565b9190916109975761065991612311565b6040518481845161066b818387611df5565b81016007815203019020876bffffffffffffffffffffffff60a01b8254161790556040518481845161069e818387611df5565b81016008815203019020908351926001600160401b0384116108df57826106c6879454611ee7565b601f8111610967575b508394601f8111600114610900578061070291610716976000916108f5575b508160011b916000199060031b1c19161790565b90555b604051938492839251928391611df5565b8101600981520301902083516001600160401b0381116108df5761073a8254611ee7565b601f81116108a4575b5083601f821160011461080957946107cd6107ee957f634ef467423c7b2abbaf26097bdddac4a495d36be69ca3d1555484b46e7899c79b99956107c09b99956107a9866107db976107f99c6000916107fe57508160011b916000199060031b1c19161790565b90555b6040519b8c9b60c08d5260c08d0190611e18565b918b8303908c0152611e18565b9088820360408a0152611e18565b9160608701528582036080870152611e18565b9160a0840190611ecd565b0390a1005b9050870151386106ee565b601f1982169083600052856000209160005b81811061088d5750957f634ef467423c7b2abbaf26097bdddac4a495d36be69ca3d1555484b46e7899c79b99956107c09b99956001866107f99b966107cd966107db996107ee9d10610874575b5050811b0190556107ac565b88015160001960f88460031b161c191690553880610868565b91928760018192868c01518155019401920161081b565b6108cf908360005285600020601f840160051c8101918785106108d5575b601f0160051c0190612297565b89610743565b90915081906108c2565b634e487b7160e01b600052604160045260246000fd5b90508801518f6106ee565b601f1981169582600052856000209660005b81811061094f57509682916001936107169910610936575b5050811b019055610705565b89015160001960f88460031b161c191690558e8061092a565b828a015189556001909801978a979283019201610912565b610991908260005285600020601f880160051c8101918789106108d557601f0160051c0190612297565b8c6106cf565b634e487b7160e01b600052600060045260246000fd5b6109cf915060203d6020116109d5575b6109c78183611d7e565b8101906122ae565b8c610590565b503d6109bd565b6040513d6000823e3d90fd5b34610152576020366003190112610152576004356001600160401b03811161015257610a18903690600401611d9f565b600080546040516395a8c58d60e01b81523360048201526024810192909252602090829060449082906001600160a01b03165afa80156109dc57610a6391600091610c3d57506122c6565b60405181519060208181850193610a7b818387611df5565b81016003815203019020916006830160ff815460081c1660038110156103b057610bdb57426007850155805461ff00191661010017905560005b600154811015610bab57610ac88161203e565b50604051610aec81610ade602082018095612108565b03601f198101835282611d7e565b5190206040516020810190610b1b6020828751610b0a81878c611df5565b81010301601f198101835282611d7e565b51902014610b2b57600101610ab5565b610b9692507f854681db4b5190ceaacfe5894893f2e8d49873d9b8ed6c72b5618047cb3924e5936006610b7083610b646107f99561203e565b5060074291015561203e565b5001805461ff0019166101001790555b6002604051948594606086526060860190611e18565b91426020860152848303604086015201611f21565b50610b9691506107f97f854681db4b5190ceaacfe5894893f2e8d49873d9b8ed6c72b5618047cb3924e593610b80565b60405162461bcd60e51b815260206004820152603460248201527f4f62617420547261646973696f6e616c20737461747573206d75737420626520604482015273696e206c6f63616c2070726f64756374696f6e2160601b6064820152608490fd5b610c56915060203d6020116109d5576109c78183611d7e565b83610590565b34610152576020366003190112610152576004356001600160401b0381116101525761013361013a610c9a602061010a61014e953690600401611d9f565b8101600881520301902060405192838092611f21565b34610152576020366003190112610152576004356001600160401b0381116101525761013361013a610cee602061010a61014e953690600401611d9f565b8101600581520301902060405192838092611f21565b346101525760a0366003190112610152576004356001600160401b03811161015257610d34903690600401611d9f565b602435906001600160a01b0382168203610152576044356001600160401b03811161015257610d67903690600401611d9f565b906064356001600160401b03811161015257610d87903690600401611d9f565b906084356001600160401b03811161015257610da7903690600401611d9f565b916040519382519460208181860197610dc181838b611df5565b81016003815203019020956006870160ff815460081c1660038110156103b0576001036113a05742600889015561020061ff00198254161790556009870185516001600160401b0381116108df57610e198254611ee7565b601f811161136e575b506020601f8211600114611308579080610e51926000916112fd57508160011b916000199060031b1c19161790565b90555b6040516020818651610e6781838c611df5565b810160048152030190209060018060a01b03166bffffffffffffffffffffffff60a01b8254161790556040516020818551610ea381838b611df5565b81016005815203019020908051906001600160401b0382116108df57610ec98354611ee7565b601f81116112cb575b50602090601f831160011461126457610f04929160009183611259575b50508160011b916000199060031b1c19161790565b90555b6040516020818451610f1a81838a611df5565b81016006815203019020908051906001600160401b0382116108df57610f408354611ee7565b601f8111611227575b50602090601f83116001146111c057610f7a9291600091836111b55750508160011b916000199060031b1c19161790565b90555b60005b60015481101561118457610f938161203e565b50604051610fa981610ade602082018095612108565b5190206040516020810190610fc76020828751610b0a81878d611df5565b51902014610fd757600101610f80565b60099293506110109150610fea8161203e565b506008429101556006610ffc8261203e565b5001805461ff00191661020017905561203e565b5001918151926001600160401b0384116108df5761102e8154611ee7565b601f8111611152575b50602093601f81116001146110c457916107f991611091846110aa96957f489f165b733603cb0a992d8cafd6c42a0c13d169039003f751758b9f0019f26c986000916110b957508160011b916000199060031b1c19161790565b90555b6002604051948594604086526040860190611e18565b91848303602086015201611f21565b9050860151896106ee565b601f1981169482600052806000209560005b81811061113a5750827f489f165b733603cb0a992d8cafd6c42a0c13d169039003f751758b9f0019f26c976107f995936110aa98979560019410611121575b5050811b019055611094565b87015160001960f88460031b161c191690558880611115565b868301518855600190970196602092830192016110d6565b61117e90826000526020600020601f870160051c810191602088106108d557601f0160051c0190612297565b84611037565b50506110aa91506107f97f489f165b733603cb0a992d8cafd6c42a0c13d169039003f751758b9f0019f26c93611094565b015190508880610eef565b90601f1983169184600052816000209260005b81811061120f57509084600195949392106111f6575b505050811b019055610f7d565b015160001960f88460031b161c191690558780806111e9565b929360206001819287860151815501950193016111d3565b61125390846000526020600020601f850160051c810191602086106108d557601f0160051c0190612297565b87610f49565b015190508980610eef565b90601f1983169184600052816000209260005b8181106112b3575090846001959493921061129a575b505050811b019055610f07565b015160001960f88460031b161c1916905588808061128d565b92936020600181928786015181550195019301611277565b6112f790846000526020600020601f850160051c810191602086106108d557601f0160051c0190612297565b88610ed2565b90508801518b6106ee565b601f1982169083600052806000209160005b8a828210611356575050908360019493921061133d575b5050811b019055610e54565b89015160001960f88460031b161c191690558a80611331565b6001849560209395849301518155019401920161131a565b61139a90836000526020600020601f840160051c810191602085106108d557601f0160051c0190612297565b89610e22565b60405162461bcd60e51b815260206004820152602a60248201527f4f62617420547261646973696f6e616c20737461747573206d757374206265206044820152697265717565737465642160b01b6064820152608490fd5b34610152576020366003190112610152576004356001548110156101525761141f9061203e565b5060405190611439826114328184611f21565b0383611d7e565b61014e60096040519261145a846114538160018501611f21565b0385611d7e565b604051946114768661146f8160028601611f21565b0387611d7e565b6040519061148b826114328160048701611f21565b6006830154906007840154926114b060088601549561146f6040518099819301611f21565b60405198899860ff808660081c169516938a611fa4565b34610152576020366003190112610152576001600160a01b036114e861201e565b166000526002602052602060ff604060002054166040519061150981612034565b8152f35b34610152576020366003190112610152576004356001600160401b0381116101525761153f6020913690600401611d9f565b816115536040519283815193849201611df5565b600790820190815281900382019020546040516001600160a01b039091168152f35b34610152576020366003190112610152576001600160a01b0361159661201e565b166000526002602052604060ff8160002054168151906115b581612034565b8152336020820152f35b34610152576020366003190112610152576004356001600160401b0381116101525761013361013a6115fd602061010a61014e953690600401611d9f565b8101600981520301902060405192838092611f21565b34610152576020366003190112610152576004356001600160401b03811161015257602061010a611648923690600401611d9f565b8101600381520301902060405190611439826114328184611f21565b34610152576020366003190112610152576004356001600160401b03811161015257611694903690600401611d9f565b60606101406040516116a581611d62565b82815282602082015282604082015282808201528260808201528260a0820152600060c0820152600060e082015260006101008201526000610120820152015260405161171082519160208181860194611700818388611df5565b8101600381520301902054611ee7565b15611a81576040516020818451611728818387611df5565b810160038152030190206040519161173f83611d62565b604051611750816101338186611f21565b8352604051611766816101338160018701611f21565b602084015260405161177f816101338160028701611f21565b60408401526117906003830161222b565b60608401526040516117a9816101338160048701611f21565b60808401526117ba6005830161222b565b60a084015260ff60068301546117d582821660c0870161228b565b60081c169160038310156103b05761014094611921611a606118c7611a5261193e966009611831611a739861014e9b60e08e01528c61010060078301549101528c61012060088301549101526101336040518094819301611f21565b8b8b015261189461194561192860206040518a51611850818389611df5565b81019060078252828160018060a01b03930301902054169461189b8b8360405180925161187e818388611df5565b8101600881520301902060405196878092611f21565b0386611d7e565b6118ce8b836040518092516118b1818388611df5565b81016009815203019020604051998a8092611f21565b0389611d7e565b6040518b516118de818385611df5565b81019060048252838160018060a01b03930301902054169a6107056040518481845161190b818389611df5565b810160058152030190206040519c8d8092611f21565b038c611d7e565b810160068152030190206040519a8b8092611f21565b038a611d7e565b611a3f604051809d819d60e083526119eb6119d46119bd6119a861199161197a865161016060e08b01526102408a0190611e18565b602087015189820360df19016101008b0152611e18565b604086015188820360df19016101208a0152611e18565b606085015187820360df190187890152611e3d565b608084015186820360df1901610160880152611e18565b60a083015185820360df1901610180870152611e3d565b926119ff60c08301516101a0830190611ecd565b611a1260e08301516101c0830190611eda565b6101008201516101e08201526101208201516102009091015201518d820360df19016102208f0152611e18565b9160208c01528a820360408c0152611e18565b9088820360608a0152611e18565b91608087015285820360a0870152611e18565b9083820360c0850152611e18565b60405162461bcd60e51b815260206004820152601b60248201527f4e6f206461746120666f756e64207769746820746869732049442e00000000006044820152606490fd5b34610152576020366003190112610152576004356001600160401b03811161015257611af6903690600401611d9f565b60015460208201916000805b838110611c8a5750611b138161219b565b92611b1d8261219b565b90611b30611b2a846121e5565b936121e5565b93600096875b838110611b8b57611b618861014e89611b7d8a611b6f8b604051978897608089526080890190611e3d565b908782036020890152611e3d565b908582036040870152611e96565b908382036060850152611e96565b611b9960206103018361203e565b6008815203019020604051611bb681610ade602082018095612108565b5190206040516020810190611bd46020828851610b0a81878b611df5565b51902014611be5575b600101611b36565b97610133611bf56102958b61203e565b611bff828a612217565b52611c0a8189612217565b506002611c196102c68b61203e565b611c238287612217565b52611c2e8186612217565b5060ff6006611c3c8b61203e565b50015460081c1660038110156103b057611c568288612217565b5260ff6006611c648b61203e565b5001541660028110156103b05781611c82916103a26001948b612217565b989050611bdd565b611c9860206103018361203e565b6008815203019020604051611cb581610ade602082018095612108565b5190206040516020810190611cd560208284610b0a8c8b51928391611df5565b51902014611ce6575b600101611b02565b90611cf2600191612176565b919050611cde565b34610152576020366003190112610152576004356001600160401b03811161015257611d2c6020913690600401611d9f565b81611d406040519283815193849201611df5565b600490820190815281900382019020546040516001600160a01b039091168152f35b61016081019081106001600160401b038211176108df57604052565b90601f801991011681019081106001600160401b038211176108df57604052565b81601f82011215610152578035906001600160401b0382116108df5760405192611dd3601f8401601f191660200185611d7e565b8284526020838301011161015257816000926020809301838601378301015290565b60005b838110611e085750506000910152565b8181015183820152602001611df8565b90602091611e3181518092818552858086019101611df5565b601f01601f1916010190565b9080602083519182815201916020808360051b8301019401926000915b838310611e6957505050505090565b9091929394602080611e87600193601f198682030187528951611e18565b97019301930191939290611e5a565b906020808351928381520192019060005b818110611eb45750505090565b825160ff16845260209384019390920191600101611ea7565b9060028210156103b05752565b9060038210156103b05752565b90600182811c92168015611f17575b6020831014611f0157565b634e487b7160e01b600052602260045260246000fd5b91607f1691611ef6565b60009291815491611f3183611ee7565b8083529260018116908115611f875750600114611f4d57505050565b60009081526020812093945091925b838310611f6d575060209250010190565b600181602092949394548385870101520191019190611f5c565b915050602093945060ff929192191683830152151560051b010190565b959161201b999794611a5261200395611fe0611fee94611fd2611ff9979b9e9b6101208e8181520190611e18565b8c810360208e015290611e18565b908a820360408c0152611e18565b976080870190611ecd565b60a0850190611eda565b60c083015260e0820152610100818403910152611e18565b90565b600435906001600160a01b038216820361015257565b600411156103b057565b60015481101561205d576001600052600a602060002091020190600090565b634e487b7160e01b600052603260045260246000fd5b6001600160401b0381116108df5760051b60200190565b9080601f830112156101525781356120a181612073565b926120af6040519485611d7e565b81845260208085019260051b820101918383116101525760208201905b8382106120db57505050505090565b81356001600160401b038111610152576020916120fd87848094880101611d9f565b8152019101906120cc565b6000929181549161211883611ee7565b9260018116908115612163575060011461213157505050565b909192935060005260206000206000905b83821061214f5750500190565b600181602092548486015201910190612142565b60ff191683525050811515909102019150565b60001981146121855760010190565b634e487b7160e01b600052601160045260246000fd5b906121a582612073565b6121b26040519182611d7e565b82815280926121c3601f1991612073565b019060005b8281106121d457505050565b8060606020809385010152016121c8565b906121ef82612073565b6121fc6040519182611d7e565b828152809261220d601f1991612073565b0190602036910137565b805182101561205d5760209160051b010190565b90815461223781612073565b926122456040519485611d7e565b818452602084019060005260206000206000915b8383106122665750505050565b60016020819260405161227d816101338189611f21565b815201920192019190612259565b60028210156103b05752565b8181106122a2575050565b60008155600101612297565b90816020910312610152575180151581036101525790565b156122cd57565b606460405162461bcd60e51b815260206004820152602060248201527f416363657373207265737472696374656420746f2050616272696b20726f6c656044820152fd5b909182519283516001600160401b0381116108df576123308454611ee7565b601f8111612bda575b50602094601f8211600114612b755761236d9293949582916000926125d35750508160011b916000199060031b1c19161790565b83555b6001830160208201518051906001600160401b0382116108df576123948354611ee7565b601f8111612b43575b50602090601f8311600114612adc576123ce9291600091836125d35750508160011b916000199060031b1c19161790565b90555b6002830160408201518051906001600160401b0382116108df576123f58354611ee7565b601f8111612aaa575b50602090601f8311600114612a435761242f9291600091836125d35750508160011b916000199060031b1c19161790565b90555b600383016060820151805190600160401b82116108df5782548284558083106129c5575b50602001916000526020600020916000905b8282106128b857505050506004830160808201518051906001600160401b0382116108df576124978354611ee7565b601f8111612886575b50602090601f831160011461281f576124d19291600091836125d35750508160011b916000199060031b1c19161790565b90555b6005830160a0820151805190600160401b82116108df5782548284558083106127a1575b50602001916000526020600020916000905b828210612694575050505060c0810151926006810160028510156103b05760009460ff8019835416911617815560e0830151600381101561268057916009916101409361ff0082549160081b169061ff0019161790556101008401516007820155610120840151600882015501910151928351906001600160401b03821161266c576125968354611ee7565b601f811161263c575b50602090601f83116001146125de57906125cf939495836125d35750508160011b916000199060031b1c19161790565b9055565b015190503880610eef565b90601f198316848352818320925b8181106126245750958360019596971061260b575b505050811b019055565b015160001960f88460031b161c19169055388080612601565b9192602060018192868b0151815501940192016125ec565b6126669084835260208320601f850160051c810191602086106108d557601f0160051c0190612297565b3861259f565b634e487b7160e01b81526041600452602490fd5b634e487b7160e01b86526021600452602486fd5b80518051906001600160401b0382116108df576126b18654611ee7565b601f811161276f575b50602090601f831160011461270257926126f3836001959460209487966000926125d35750508160011b916000199060031b1c19161790565b87555b0194019101909261250a565b90601f1983169187600052816000209260005b818110612757575093602093600196938796938388951061273e575b505050811b0187556126f6565b015160001960f88460031b161c19169055388080612731565b92936020600181928786015181550195019301612715565b61279b90876000526020600020601f850160051c810191602086106108d557601f0160051c0190612297565b386126ba565b8360005282602060002091820191015b8181106127be57506124f8565b806127cb60019254611ee7565b806127d8575b50016127b1565b601f811183146127ee5750600081555b386127d1565b61280c908260005283601f6020600020920160051c82019101612297565b80600052600060208120818355556127e8565b90601f1983169184600052816000209260005b81811061286e5750908460019594939210612855575b505050811b0190556124d4565b015160001960f88460031b161c19169055388080612848565b92936020600181928786015181550195019301612832565b6128b290846000526020600020601f850160051c810191602086106108d557601f0160051c0190612297565b386124a0565b80518051906001600160401b0382116108df576128d58654611ee7565b601f8111612993575b50602090601f83116001146129265792612917836001959460209487966000926125d35750508160011b916000199060031b1c19161790565b87555b01940191019092612468565b90601f1983169187600052816000209260005b81811061297b5750936020936001969387969383889510612962575b505050811b01875561291a565b015160001960f88460031b161c19169055388080612955565b92936020600181928786015181550195019301612939565b6129bf90876000526020600020601f850160051c810191602086106108d557601f0160051c0190612297565b386128de565b8360005282602060002091820191015b8181106129e25750612456565b806129ef60019254611ee7565b806129fc575b50016129d5565b601f81118314612a125750600081555b386129f5565b612a30908260005283601f6020600020920160051c82019101612297565b8060005260006020812081835555612a0c565b90601f1983169184600052816000209260005b818110612a925750908460019594939210612a79575b505050811b019055612432565b015160001960f88460031b161c19169055388080612a6c565b92936020600181928786015181550195019301612a56565b612ad690846000526020600020601f850160051c810191602086106108d557601f0160051c0190612297565b386123fe565b90601f1983169184600052816000209260005b818110612b2b5750908460019594939210612b12575b505050811b0190556123d1565b015160001960f88460031b161c19169055388080612b05565b92936020600181928786015181550195019301612aef565b612b6f90846000526020600020601f850160051c810191602086106108d557601f0160051c0190612297565b3861239d565b601f1982169585600052806000209160005b888110612bc257508360019596979810612ba9575b505050811b018355612370565b015160001960f88460031b161c19169055388080612b9c565b91926020600181928685015181550194019201612b87565b612c0690856000526020600020601f840160051c810191602085106108d557601f0160051c0190612297565b3861233956fea26469706673582212208c273917822042ee793a96b23a8efe97eb7202af89a4488420888fd5c73aace464736f6c634300081b0033","opcodes":"PUSH1 0x80 CALLVALUE PUSH1 0x70 JUMPI PUSH1 0x1F PUSH2 0x2CCE CODESIZE DUP2 SWAP1 SUB SWAP2 DUP3 ADD PUSH1 0x1F NOT AND DUP4 ADD SWAP2 PUSH1 0x1 PUSH1 0x1 PUSH1 0x40 SHL SUB DUP4 GT DUP5 DUP5 LT OR PUSH1 0x75 JUMPI DUP1 DUP5 SWAP3 PUSH1 0x20 SWAP5 PUSH1 0x40 MSTORE DUP4 CODECOPY DUP2 ADD SUB SLT PUSH1 0x70 JUMPI MLOAD PUSH1 0x1 PUSH1 0x1 PUSH1 0xA0 SHL SUB DUP2 AND SWAP1 DUP2 SWAP1 SUB PUSH1 0x70 JUMPI PUSH1 0x0 DUP1 SLOAD PUSH1 0x1 PUSH1 0x1 PUSH1 0xA0 SHL SUB NOT AND SWAP2 SWAP1 SWAP2 OR SWAP1 SSTORE PUSH1 0x40 MLOAD PUSH2 0x2C42 SWAP1 DUP2 PUSH2 0x8C DUP3 CODECOPY RETURN JUMPDEST PUSH1 0x0 DUP1 REVERT JUMPDEST PUSH4 0x4E487B71 PUSH1 0xE0 SHL PUSH1 0x0 MSTORE PUSH1 0x41 PUSH1 0x4 MSTORE PUSH1 0x24 PUSH1 0x0 REVERT INVALID PUSH1 0x80 PUSH1 0x40 MSTORE PUSH1 0x4 CALLDATASIZE LT ISZERO PUSH2 0x12 JUMPI PUSH1 0x0 DUP1 REVERT JUMPDEST PUSH1 0x0 CALLDATALOAD PUSH1 0xE0 SHR DUP1 PUSH4 0x1C0B2030 EQ PUSH2 0x1CFA JUMPI DUP1 PUSH4 0x1DCE6E58 EQ PUSH2 0x1AC6 JUMPI DUP1 PUSH4 0x25606BC3 EQ PUSH2 0x1664 JUMPI DUP1 PUSH4 0x27321837 EQ PUSH2 0x1613 JUMPI DUP1 PUSH4 0x349A7A72 EQ PUSH2 0x15BF JUMPI DUP1 PUSH4 0x44276733 EQ PUSH2 0x1575 JUMPI DUP1 PUSH4 0x4B87568A EQ PUSH2 0x150D JUMPI DUP1 PUSH4 0x74D5E100 EQ PUSH2 0x14C7 JUMPI DUP1 PUSH4 0x7AAD01BD EQ PUSH2 0x13F8 JUMPI DUP1 PUSH4 0x7ADE51DD EQ PUSH2 0xD04 JUMPI DUP1 PUSH4 0x9D9315C2 EQ PUSH2 0xCB0 JUMPI DUP1 PUSH4 0xA812536D EQ PUSH2 0xC5C JUMPI DUP1 PUSH4 0xBC4A6F6C EQ PUSH2 0x9E8 JUMPI DUP1 PUSH4 0xD9D284DC EQ PUSH2 0x417 JUMPI DUP1 PUSH4 0xE06749BA EQ PUSH2 0x157 JUMPI PUSH4 0xF1022862 EQ PUSH2 0xCC JUMPI PUSH1 0x0 DUP1 REVERT JUMPDEST CALLVALUE PUSH2 0x152 JUMPI PUSH1 0x20 CALLDATASIZE PUSH1 0x3 NOT ADD SLT PUSH2 0x152 JUMPI PUSH1 0x4 CALLDATALOAD PUSH1 0x1 PUSH1 0x1 PUSH1 0x40 SHL SUB DUP2 GT PUSH2 0x152 JUMPI PUSH2 0x133 PUSH2 0x13A PUSH2 0x11D PUSH1 0x20 PUSH2 0x10A PUSH2 0x14E SWAP6 CALLDATASIZE SWAP1 PUSH1 0x4 ADD PUSH2 0x1D9F JUMP JUMPDEST DUP2 PUSH1 0x40 MLOAD SWAP4 DUP3 DUP6 DUP1 SWAP5 MLOAD SWAP4 DUP5 SWAP3 ADD PUSH2 0x1DF5 JUMP JUMPDEST DUP2 ADD PUSH1 0x6 DUP2 MSTORE SUB ADD SWAP1 KECCAK256 PUSH1 0x40 MLOAD SWAP3 DUP4 DUP1 SWAP3 PUSH2 0x1F21 JUMP JUMPDEST SUB DUP3 PUSH2 0x1D7E JUMP JUMPDEST PUSH1 0x40 MLOAD SWAP2 DUP3 SWAP2 PUSH1 0x20 DUP4 MSTORE PUSH1 0x20 DUP4 ADD SWAP1 PUSH2 0x1E18 JUMP JUMPDEST SUB SWAP1 RETURN JUMPDEST PUSH1 0x0 DUP1 REVERT JUMPDEST CALLVALUE PUSH2 0x152 JUMPI PUSH1 0x0 CALLDATASIZE PUSH1 0x3 NOT ADD SLT PUSH2 0x152 JUMPI PUSH1 0x0 DUP1 PUSH1 0x1 SLOAD SWAP1 JUMPDEST DUP2 DUP2 LT PUSH2 0x3D9 JUMPI POP PUSH2 0x181 DUP3 PUSH2 0x219B JUMP JUMPDEST SWAP1 PUSH2 0x18B DUP4 PUSH2 0x219B JUMP JUMPDEST PUSH2 0x194 DUP5 PUSH2 0x219B JUMP JUMPDEST PUSH2 0x19D DUP6 PUSH2 0x2073 JUMP JUMPDEST SWAP2 PUSH2 0x1AB PUSH1 0x40 MLOAD SWAP4 DUP5 PUSH2 0x1D7E JUMP JUMPDEST DUP6 DUP4 MSTORE PUSH2 0x1CC PUSH2 0x1BA DUP8 PUSH2 0x2073 JUMP JUMPDEST PUSH1 0x20 DUP6 ADD SWAP8 SWAP1 PUSH1 0x1F NOT ADD CALLDATASIZE DUP10 CALLDATACOPY PUSH2 0x21E5 JUMP JUMPDEST SWAP4 PUSH1 0x0 SWAP1 DUP2 JUMPDEST DUP2 DUP2 LT PUSH2 0x25B JUMPI POP POP POP PUSH1 0x20 SWAP2 PUSH2 0x208 PUSH2 0x216 SWAP3 PUSH2 0x1FB PUSH1 0x40 MLOAD SWAP9 PUSH1 0xA0 DUP11 MSTORE PUSH1 0xA0 DUP11 ADD SWAP1 PUSH2 0x1E3D JUMP JUMPDEST SWAP1 DUP9 DUP3 SUB DUP7 DUP11 ADD MSTORE PUSH2 0x1E3D JUMP JUMPDEST SWAP1 DUP7 DUP3 SUB PUSH1 0x40 DUP9 ADD MSTORE PUSH2 0x1E3D JUMP JUMPDEST SWAP2 DUP5 DUP4 SUB PUSH1 0x60 DUP7 ADD MSTORE MLOAD SWAP2 DUP3 DUP2 MSTORE ADD SWAP4 SWAP1 PUSH1 0x0 JUMPDEST DUP2 DUP2 LT PUSH2 0x245 JUMPI DUP5 DUP1 PUSH2 0x14E DUP9 DUP8 DUP4 DUP3 SUB PUSH1 0x80 DUP6 ADD MSTORE PUSH2 0x1E96 JUMP JUMPDEST DUP3 MLOAD DUP7 MSTORE PUSH1 0x20 SWAP6 DUP7 ADD SWAP6 SWAP1 SWAP3 ADD SWAP2 PUSH1 0x1 ADD PUSH2 0x22A JUMP JUMPDEST PUSH1 0xFF PUSH1 0x6 PUSH2 0x268 DUP4 PUSH2 0x203E JUMP JUMPDEST POP ADD SLOAD PUSH1 0x8 SHR AND PUSH1 0x3 DUP2 LT ISZERO PUSH2 0x3B0 JUMPI PUSH2 0x285 JUMPI JUMPDEST PUSH1 0x1 ADD PUSH2 0x1D2 JUMP JUMPDEST SWAP2 PUSH2 0x133 PUSH2 0x2A2 PUSH2 0x295 DUP6 PUSH2 0x203E JUMP JUMPDEST POP PUSH1 0x40 MLOAD SWAP3 DUP4 DUP1 SWAP3 PUSH2 0x1F21 JUMP JUMPDEST PUSH2 0x2AC DUP3 DUP11 PUSH2 0x2217 JUMP JUMPDEST MSTORE PUSH2 0x2B7 DUP2 DUP10 PUSH2 0x2217 JUMP JUMPDEST POP PUSH1 0x2 PUSH2 0x2D7 PUSH2 0x2C6 DUP6 PUSH2 0x203E JUMP JUMPDEST POP PUSH2 0x133 PUSH1 0x40 MLOAD DUP1 SWAP5 DUP2 SWAP4 ADD PUSH2 0x1F21 JUMP JUMPDEST PUSH2 0x2E1 DUP3 DUP7 PUSH2 0x2217 JUMP JUMPDEST MSTORE PUSH2 0x2EC DUP2 DUP6 PUSH2 0x2217 JUMP JUMPDEST POP PUSH2 0x133 PUSH2 0x322 PUSH2 0x30E PUSH1 0x20 PUSH2 0x301 DUP8 PUSH2 0x203E JUMP JUMPDEST POP PUSH1 0x40 MLOAD SWAP3 DUP4 DUP1 SWAP3 PUSH2 0x2108 JUMP JUMPDEST PUSH1 0x8 DUP2 MSTORE SUB ADD SWAP1 KECCAK256 PUSH1 0x40 MLOAD SWAP3 DUP4 DUP1 SWAP3 PUSH2 0x1F21 JUMP JUMPDEST PUSH2 0x32C DUP3 DUP8 PUSH2 0x2217 JUMP JUMPDEST MSTORE PUSH2 0x337 DUP2 DUP7 PUSH2 0x2217 JUMP JUMPDEST POP PUSH1 0x8 PUSH2 0x343 DUP5 PUSH2 0x203E JUMP JUMPDEST POP ADD SLOAD PUSH1 0x7 PUSH2 0x351 DUP6 PUSH2 0x203E JUMP JUMPDEST POP ADD SLOAD LT ISZERO PUSH2 0x3C6 JUMPI PUSH1 0x8 PUSH2 0x365 DUP5 PUSH2 0x203E JUMP JUMPDEST POP ADD SLOAD JUMPDEST PUSH2 0x373 DUP3 DUP9 PUSH2 0x2217 JUMP JUMPDEST MSTORE PUSH1 0xFF PUSH1 0x6 PUSH2 0x381 DUP6 PUSH2 0x203E JUMP JUMPDEST POP ADD SLOAD PUSH1 0x8 SHR AND PUSH1 0x3 DUP2 LT ISZERO PUSH2 0x3B0 JUMPI DUP2 PUSH2 0x3A8 SWAP2 PUSH2 0x3A2 PUSH1 0x1 SWAP5 DUP12 PUSH2 0x2217 JUMP JUMPDEST MSTORE PUSH2 0x2176 JUMP JUMPDEST SWAP3 SWAP1 POP PUSH2 0x27D JUMP JUMPDEST PUSH4 0x4E487B71 PUSH1 0xE0 SHL PUSH1 0x0 MSTORE PUSH1 0x21 PUSH1 0x4 MSTORE PUSH1 0x24 PUSH1 0x0 REVERT JUMPDEST PUSH1 0x7 PUSH2 0x3D1 DUP5 PUSH2 0x203E JUMP JUMPDEST POP ADD SLOAD PUSH2 0x369 JUMP JUMPDEST PUSH1 0xFF PUSH1 0x6 PUSH2 0x3E6 DUP4 PUSH2 0x203E JUMP JUMPDEST POP ADD SLOAD PUSH1 0x8 SHR AND PUSH1 0x3 DUP2 LT ISZERO PUSH2 0x3B0 JUMPI PUSH2 0x403 JUMPI JUMPDEST PUSH1 0x1 ADD PUSH2 0x170 JUMP JUMPDEST SWAP2 PUSH2 0x40F PUSH1 0x1 SWAP2 PUSH2 0x2176 JUMP JUMPDEST SWAP3 SWAP1 POP PUSH2 0x3FB JUMP JUMPDEST CALLVALUE PUSH2 0x152 JUMPI PUSH2 0x140 CALLDATASIZE PUSH1 0x3 NOT ADD SLT PUSH2 0x152 JUMPI PUSH1 0x4 CALLDATALOAD PUSH1 0x1 PUSH1 0x1 PUSH1 0x40 SHL SUB DUP2 GT PUSH2 0x152 JUMPI PUSH2 0x448 SWAP1 CALLDATASIZE SWAP1 PUSH1 0x4 ADD PUSH2 0x1D9F JUMP JUMPDEST PUSH1 0x24 CALLDATALOAD PUSH1 0x1 PUSH1 0x1 PUSH1 0x40 SHL SUB DUP2 GT PUSH2 0x152 JUMPI PUSH2 0x467 SWAP1 CALLDATASIZE SWAP1 PUSH1 0x4 ADD PUSH2 0x1D9F JUMP JUMPDEST PUSH1 0x44 CALLDATALOAD PUSH1 0x1 PUSH1 0x1 PUSH1 0x40 SHL SUB DUP2 GT PUSH2 0x152 JUMPI PUSH2 0x486 SWAP1 CALLDATASIZE SWAP1 PUSH1 0x4 ADD PUSH2 0x1D9F JUMP JUMPDEST SWAP2 PUSH1 0x64 CALLDATALOAD PUSH1 0x1 PUSH1 0x1 PUSH1 0x40 SHL SUB DUP2 GT PUSH2 0x152 JUMPI PUSH2 0x4A6 SWAP1 CALLDATASIZE SWAP1 PUSH1 0x4 ADD PUSH2 0x208A JUMP JUMPDEST SWAP2 PUSH1 0x84 CALLDATALOAD PUSH1 0x1 PUSH1 0x1 PUSH1 0x40 SHL SUB DUP2 GT PUSH2 0x152 JUMPI PUSH2 0x4C6 SWAP1 CALLDATASIZE SWAP1 PUSH1 0x4 ADD PUSH2 0x1D9F JUMP JUMPDEST SWAP1 PUSH1 0xA4 CALLDATALOAD PUSH1 0x1 PUSH1 0x1 PUSH1 0x40 SHL SUB DUP2 GT PUSH2 0x152 JUMPI PUSH2 0x4E6 SWAP1 CALLDATASIZE SWAP1 PUSH1 0x4 ADD PUSH2 0x208A JUMP JUMPDEST SWAP1 PUSH1 0xC4 CALLDATALOAD SWAP4 PUSH1 0x1 DUP1 PUSH1 0xA0 SHL SUB DUP6 AND DUP1 SWAP6 SUB PUSH2 0x152 JUMPI PUSH1 0xE4 CALLDATALOAD PUSH1 0x1 PUSH1 0x1 PUSH1 0x40 SHL SUB DUP2 GT PUSH2 0x152 JUMPI PUSH2 0x51A SWAP1 CALLDATASIZE SWAP1 PUSH1 0x4 ADD PUSH2 0x1D9F JUMP JUMPDEST SWAP1 PUSH2 0x104 CALLDATALOAD PUSH1 0x1 PUSH1 0x1 PUSH1 0x40 SHL SUB DUP2 GT PUSH2 0x152 JUMPI PUSH2 0x53B SWAP1 CALLDATASIZE SWAP1 PUSH1 0x4 ADD PUSH2 0x1D9F JUMP JUMPDEST SWAP4 PUSH2 0x124 CALLDATALOAD SWAP8 PUSH1 0x2 DUP10 LT ISZERO PUSH2 0x152 JUMPI PUSH1 0x0 DUP1 SLOAD PUSH1 0x40 MLOAD PUSH4 0x95A8C58D PUSH1 0xE0 SHL DUP2 MSTORE CALLER PUSH1 0x4 DUP3 ADD MSTORE PUSH1 0x24 DUP2 ADD SWAP3 SWAP1 SWAP3 MSTORE PUSH1 0x20 SWAP1 DUP3 SWAP1 PUSH1 0x44 SWAP1 DUP3 SWAP1 PUSH1 0x1 PUSH1 0x1 PUSH1 0xA0 SHL SUB AND GAS STATICCALL DUP1 ISZERO PUSH2 0x9DC JUMPI PUSH2 0x596 SWAP2 PUSH1 0x0 SWAP2 PUSH2 0x9AD JUMPI JUMPDEST POP PUSH2 0x22C6 JUMP JUMPDEST PUSH1 0x40 MLOAD SWAP5 PUSH2 0x5A3 DUP7 PUSH2 0x1D62 JUMP JUMPDEST DUP4 DUP7 MSTORE PUSH1 0x20 DUP7 ADD MSTORE DUP10 PUSH1 0x40 DUP7 ADD MSTORE PUSH1 0x60 DUP6 ADD MSTORE DUP6 PUSH1 0x80 DUP6 ADD MSTORE PUSH1 0xA0 DUP5 ADD MSTORE PUSH2 0x5CE DUP8 PUSH1 0xC0 DUP6 ADD PUSH2 0x228B JUMP JUMPDEST PUSH1 0x0 PUSH1 0xE0 DUP5 ADD MSTORE PUSH1 0x0 PUSH2 0x100 DUP5 ADD MSTORE PUSH1 0x0 PUSH2 0x120 DUP5 ADD MSTORE PUSH1 0x20 SWAP3 PUSH1 0x40 MLOAD PUSH2 0x5F5 DUP6 DUP3 PUSH2 0x1D7E JUMP JUMPDEST PUSH1 0x0 DUP2 MSTORE PUSH2 0x140 DUP3 ADD MSTORE PUSH1 0x40 MLOAD SWAP1 PUSH2 0x62A DUP2 DUP5 MLOAD SWAP4 DUP8 DUP2 DUP2 DUP9 ADD SWAP7 PUSH2 0x61B DUP2 DUP4 DUP11 PUSH2 0x1DF5 JUMP JUMPDEST DUP2 ADD PUSH1 0x3 DUP2 MSTORE SUB ADD SWAP1 KECCAK256 PUSH2 0x2311 JUMP JUMPDEST PUSH1 0x1 SLOAD PUSH1 0x1 PUSH1 0x40 SHL DUP2 LT ISZERO PUSH2 0x8DF JUMPI DUP1 PUSH1 0x1 PUSH2 0x649 SWAP3 ADD PUSH1 0x1 SSTORE PUSH2 0x203E JUMP JUMPDEST SWAP2 SWAP1 SWAP2 PUSH2 0x997 JUMPI PUSH2 0x659 SWAP2 PUSH2 0x2311 JUMP JUMPDEST PUSH1 0x40 MLOAD DUP5 DUP2 DUP5 MLOAD PUSH2 0x66B DUP2 DUP4 DUP8 PUSH2 0x1DF5 JUMP JUMPDEST DUP2 ADD PUSH1 0x7 DUP2 MSTORE SUB ADD SWAP1 KECCAK256 DUP8 PUSH12 0xFFFFFFFFFFFFFFFFFFFFFFFF PUSH1 0xA0 SHL DUP3 SLOAD AND OR SWAP1 SSTORE PUSH1 0x40 MLOAD DUP5 DUP2 DUP5 MLOAD PUSH2 0x69E DUP2 DUP4 DUP8 PUSH2 0x1DF5 JUMP JUMPDEST DUP2 ADD PUSH1 0x8 DUP2 MSTORE SUB ADD SWAP1 KECCAK256 SWAP1 DUP4 MLOAD SWAP3 PUSH1 0x1 PUSH1 0x1 PUSH1 0x40 SHL SUB DUP5 GT PUSH2 0x8DF JUMPI DUP3 PUSH2 0x6C6 DUP8 SWAP5 SLOAD PUSH2 0x1EE7 JUMP JUMPDEST PUSH1 0x1F DUP2 GT PUSH2 0x967 JUMPI JUMPDEST POP DUP4 SWAP5 PUSH1 0x1F DUP2 GT PUSH1 0x1 EQ PUSH2 0x900 JUMPI DUP1 PUSH2 0x702 SWAP2 PUSH2 0x716 SWAP8 PUSH1 0x0 SWAP2 PUSH2 0x8F5 JUMPI JUMPDEST POP DUP2 PUSH1 0x1 SHL SWAP2 PUSH1 0x0 NOT SWAP1 PUSH1 0x3 SHL SHR NOT AND OR SWAP1 JUMP JUMPDEST SWAP1 SSTORE JUMPDEST PUSH1 0x40 MLOAD SWAP4 DUP5 SWAP3 DUP4 SWAP3 MLOAD SWAP3 DUP4 SWAP2 PUSH2 0x1DF5 JUMP JUMPDEST DUP2 ADD PUSH1 0x9 DUP2 MSTORE SUB ADD SWAP1 KECCAK256 DUP4 MLOAD PUSH1 0x1 PUSH1 0x1 PUSH1 0x40 SHL SUB DUP2 GT PUSH2 0x8DF JUMPI PUSH2 0x73A DUP3 SLOAD PUSH2 0x1EE7 JUMP JUMPDEST PUSH1 0x1F DUP2 GT PUSH2 0x8A4 JUMPI JUMPDEST POP DUP4 PUSH1 0x1F DUP3 GT PUSH1 0x1 EQ PUSH2 0x809 JUMPI SWAP5 PUSH2 0x7CD PUSH2 0x7EE SWAP6 PUSH32 0x634EF467423C7B2ABBAF26097BDDDAC4A495D36BE69CA3D1555484B46E7899C7 SWAP12 SWAP10 SWAP6 PUSH2 0x7C0 SWAP12 SWAP10 SWAP6 PUSH2 0x7A9 DUP7 PUSH2 0x7DB SWAP8 PUSH2 0x7F9 SWAP13 PUSH1 0x0 SWAP2 PUSH2 0x7FE JUMPI POP DUP2 PUSH1 0x1 SHL SWAP2 PUSH1 0x0 NOT SWAP1 PUSH1 0x3 SHL SHR NOT AND OR SWAP1 JUMP JUMPDEST SWAP1 SSTORE JUMPDEST PUSH1 0x40 MLOAD SWAP12 DUP13 SWAP12 PUSH1 0xC0 DUP14 MSTORE PUSH1 0xC0 DUP14 ADD SWAP1 PUSH2 0x1E18 JUMP JUMPDEST SWAP2 DUP12 DUP4 SUB SWAP1 DUP13 ADD MSTORE PUSH2 0x1E18 JUMP JUMPDEST SWAP1 DUP9 DUP3 SUB PUSH1 0x40 DUP11 ADD MSTORE PUSH2 0x1E18 JUMP JUMPDEST SWAP2 PUSH1 0x60 DUP8 ADD MSTORE DUP6 DUP3 SUB PUSH1 0x80 DUP8 ADD MSTORE PUSH2 0x1E18 JUMP JUMPDEST SWAP2 PUSH1 0xA0 DUP5 ADD SWAP1 PUSH2 0x1ECD JUMP JUMPDEST SUB SWAP1 LOG1 STOP JUMPDEST SWAP1 POP DUP8 ADD MLOAD CODESIZE PUSH2 0x6EE JUMP JUMPDEST PUSH1 0x1F NOT DUP3 AND SWAP1 DUP4 PUSH1 0x0 MSTORE DUP6 PUSH1 0x0 KECCAK256 SWAP2 PUSH1 0x0 JUMPDEST DUP2 DUP2 LT PUSH2 0x88D JUMPI POP SWAP6 PUSH32 0x634EF467423C7B2ABBAF26097BDDDAC4A495D36BE69CA3D1555484B46E7899C7 SWAP12 SWAP10 SWAP6 PUSH2 0x7C0 SWAP12 SWAP10 SWAP6 PUSH1 0x1 DUP7 PUSH2 0x7F9 SWAP12 SWAP7 PUSH2 0x7CD SWAP7 PUSH2 0x7DB SWAP10 PUSH2 0x7EE SWAP14 LT PUSH2 0x874 JUMPI JUMPDEST POP POP DUP2 SHL ADD SWAP1 SSTORE PUSH2 0x7AC JUMP JUMPDEST DUP9 ADD MLOAD PUSH1 0x0 NOT PUSH1 0xF8 DUP5 PUSH1 0x3 SHL AND SHR NOT AND SWAP1 SSTORE CODESIZE DUP1 PUSH2 0x868 JUMP JUMPDEST SWAP2 SWAP3 DUP8 PUSH1 0x1 DUP2 SWAP3 DUP7 DUP13 ADD MLOAD DUP2 SSTORE ADD SWAP5 ADD SWAP3 ADD PUSH2 0x81B JUMP JUMPDEST PUSH2 0x8CF SWAP1 DUP4 PUSH1 0x0 MSTORE DUP6 PUSH1 0x0 KECCAK256 PUSH1 0x1F DUP5 ADD PUSH1 0x5 SHR DUP2 ADD SWAP2 DUP8 DUP6 LT PUSH2 0x8D5 JUMPI JUMPDEST PUSH1 0x1F ADD PUSH1 0x5 SHR ADD SWAP1 PUSH2 0x2297 JUMP JUMPDEST DUP10 PUSH2 0x743 JUMP JUMPDEST SWAP1 SWAP2 POP DUP2 SWAP1 PUSH2 0x8C2 JUMP JUMPDEST PUSH4 0x4E487B71 PUSH1 0xE0 SHL PUSH1 0x0 MSTORE PUSH1 0x41 PUSH1 0x4 MSTORE PUSH1 0x24 PUSH1 0x0 REVERT JUMPDEST SWAP1 POP DUP9 ADD MLOAD DUP16 PUSH2 0x6EE JUMP JUMPDEST PUSH1 0x1F NOT DUP2 AND SWAP6 DUP3 PUSH1 0x0 MSTORE DUP6 PUSH1 0x0 KECCAK256 SWAP7 PUSH1 0x0 JUMPDEST DUP2 DUP2 LT PUSH2 0x94F JUMPI POP SWAP7 DUP3 SWAP2 PUSH1 0x1 SWAP4 PUSH2 0x716 SWAP10 LT PUSH2 0x936 JUMPI JUMPDEST POP POP DUP2 SHL ADD SWAP1 SSTORE PUSH2 0x705 JUMP JUMPDEST DUP10 ADD MLOAD PUSH1 0x0 NOT PUSH1 0xF8 DUP5 PUSH1 0x3 SHL AND SHR NOT AND SWAP1 SSTORE DUP15 DUP1 PUSH2 0x92A JUMP JUMPDEST DUP3 DUP11 ADD MLOAD DUP10 SSTORE PUSH1 0x1 SWAP1 SWAP9 ADD SWAP8 DUP11 SWAP8 SWAP3 DUP4 ADD SWAP3 ADD PUSH2 0x912 JUMP JUMPDEST PUSH2 0x991 SWAP1 DUP3 PUSH1 0x0 MSTORE DUP6 PUSH1 0x0 KECCAK256 PUSH1 0x1F DUP9 ADD PUSH1 0x5 SHR DUP2 ADD SWAP2 DUP8 DUP10 LT PUSH2 0x8D5 JUMPI PUSH1 0x1F ADD PUSH1 0x5 SHR ADD SWAP1 PUSH2 0x2297 JUMP JUMPDEST DUP13 PUSH2 0x6CF JUMP JUMPDEST PUSH4 0x4E487B71 PUSH1 0xE0 SHL PUSH1 0x0 MSTORE PUSH1 0x0 PUSH1 0x4 MSTORE PUSH1 0x24 PUSH1 0x0 REVERT JUMPDEST PUSH2 0x9CF SWAP2 POP PUSH1 0x20 RETURNDATASIZE PUSH1 0x20 GT PUSH2 0x9D5 JUMPI JUMPDEST PUSH2 0x9C7 DUP2 DUP4 PUSH2 0x1D7E JUMP JUMPDEST DUP2 ADD SWAP1 PUSH2 0x22AE JUMP JUMPDEST DUP13 PUSH2 0x590 JUMP JUMPDEST POP RETURNDATASIZE PUSH2 0x9BD JUMP JUMPDEST PUSH1 0x40 MLOAD RETURNDATASIZE PUSH1 0x0 DUP3 RETURNDATACOPY RETURNDATASIZE SWAP1 REVERT JUMPDEST CALLVALUE PUSH2 0x152 JUMPI PUSH1 0x20 CALLDATASIZE PUSH1 0x3 NOT ADD SLT PUSH2 0x152 JUMPI PUSH1 0x4 CALLDATALOAD PUSH1 0x1 PUSH1 0x1 PUSH1 0x40 SHL SUB DUP2 GT PUSH2 0x152 JUMPI PUSH2 0xA18 SWAP1 CALLDATASIZE SWAP1 PUSH1 0x4 ADD PUSH2 0x1D9F JUMP JUMPDEST PUSH1 0x0 DUP1 SLOAD PUSH1 0x40 MLOAD PUSH4 0x95A8C58D PUSH1 0xE0 SHL DUP2 MSTORE CALLER PUSH1 0x4 DUP3 ADD MSTORE PUSH1 0x24 DUP2 ADD SWAP3 SWAP1 SWAP3 MSTORE PUSH1 0x20 SWAP1 DUP3 SWAP1 PUSH1 0x44 SWAP1 DUP3 SWAP1 PUSH1 0x1 PUSH1 0x1 PUSH1 0xA0 SHL SUB AND GAS STATICCALL DUP1 ISZERO PUSH2 0x9DC JUMPI PUSH2 0xA63 SWAP2 PUSH1 0x0 SWAP2 PUSH2 0xC3D JUMPI POP PUSH2 0x22C6 JUMP JUMPDEST PUSH1 0x40 MLOAD DUP2 MLOAD SWAP1 PUSH1 0x20 DUP2 DUP2 DUP6 ADD SWAP4 PUSH2 0xA7B DUP2 DUP4 DUP8 PUSH2 0x1DF5 JUMP JUMPDEST DUP2 ADD PUSH1 0x3 DUP2 MSTORE SUB ADD SWAP1 KECCAK256 SWAP2 PUSH1 0x6 DUP4 ADD PUSH1 0xFF DUP2 SLOAD PUSH1 0x8 SHR AND PUSH1 0x3 DUP2 LT ISZERO PUSH2 0x3B0 JUMPI PUSH2 0xBDB JUMPI TIMESTAMP PUSH1 0x7 DUP6 ADD SSTORE DUP1 SLOAD PUSH2 0xFF00 NOT AND PUSH2 0x100 OR SWAP1 SSTORE PUSH1 0x0 JUMPDEST PUSH1 0x1 SLOAD DUP2 LT ISZERO PUSH2 0xBAB JUMPI PUSH2 0xAC8 DUP2 PUSH2 0x203E JUMP JUMPDEST POP PUSH1 0x40 MLOAD PUSH2 0xAEC DUP2 PUSH2 0xADE PUSH1 0x20 DUP3 ADD DUP1 SWAP6 PUSH2 0x2108 JUMP JUMPDEST SUB PUSH1 0x1F NOT DUP2 ADD DUP4 MSTORE DUP3 PUSH2 0x1D7E JUMP JUMPDEST MLOAD SWAP1 KECCAK256 PUSH1 0x40 MLOAD PUSH1 0x20 DUP2 ADD SWAP1 PUSH2 0xB1B PUSH1 0x20 DUP3 DUP8 MLOAD PUSH2 0xB0A DUP2 DUP8 DUP13 PUSH2 0x1DF5 JUMP JUMPDEST DUP2 ADD SUB ADD PUSH1 0x1F NOT DUP2 ADD DUP4 MSTORE DUP3 PUSH2 0x1D7E JUMP JUMPDEST MLOAD SWAP1 KECCAK256 EQ PUSH2 0xB2B JUMPI PUSH1 0x1 ADD PUSH2 0xAB5 JUMP JUMPDEST PUSH2 0xB96 SWAP3 POP PUSH32 0x854681DB4B5190CEAACFE5894893F2E8D49873D9B8ED6C72B5618047CB3924E5 SWAP4 PUSH1 0x6 PUSH2 0xB70 DUP4 PUSH2 0xB64 PUSH2 0x7F9 SWAP6 PUSH2 0x203E JUMP JUMPDEST POP PUSH1 0x7 TIMESTAMP SWAP2 ADD SSTORE PUSH2 0x203E JUMP JUMPDEST POP ADD DUP1 SLOAD PUSH2 0xFF00 NOT AND PUSH2 0x100 OR SWAP1 SSTORE JUMPDEST PUSH1 0x2 PUSH1 0x40 MLOAD SWAP5 DUP6 SWAP5 PUSH1 0x60 DUP7 MSTORE PUSH1 0x60 DUP7 ADD SWAP1 PUSH2 0x1E18 JUMP JUMPDEST SWAP2 TIMESTAMP PUSH1 0x20 DUP7 ADD MSTORE DUP5 DUP4 SUB PUSH1 0x40 DUP7 ADD MSTORE ADD PUSH2 0x1F21 JUMP JUMPDEST POP PUSH2 0xB96 SWAP2 POP PUSH2 0x7F9 PUSH32 0x854681DB4B5190CEAACFE5894893F2E8D49873D9B8ED6C72B5618047CB3924E5 SWAP4 PUSH2 0xB80 JUMP JUMPDEST PUSH1 0x40 MLOAD PUSH3 0x461BCD PUSH1 0xE5 SHL DUP2 MSTORE PUSH1 0x20 PUSH1 0x4 DUP3 ADD MSTORE PUSH1 0x34 PUSH1 0x24 DUP3 ADD MSTORE PUSH32 0x4F62617420547261646973696F6E616C20737461747573206D75737420626520 PUSH1 0x44 DUP3 ADD MSTORE PUSH20 0x696E206C6F63616C2070726F64756374696F6E21 PUSH1 0x60 SHL PUSH1 0x64 DUP3 ADD MSTORE PUSH1 0x84 SWAP1 REVERT JUMPDEST PUSH2 0xC56 SWAP2 POP PUSH1 0x20 RETURNDATASIZE PUSH1 0x20 GT PUSH2 0x9D5 JUMPI PUSH2 0x9C7 DUP2 DUP4 PUSH2 0x1D7E JUMP JUMPDEST DUP4 PUSH2 0x590 JUMP JUMPDEST CALLVALUE PUSH2 0x152 JUMPI PUSH1 0x20 CALLDATASIZE PUSH1 0x3 NOT ADD SLT PUSH2 0x152 JUMPI PUSH1 0x4 CALLDATALOAD PUSH1 0x1 PUSH1 0x1 PUSH1 0x40 SHL SUB DUP2 GT PUSH2 0x152 JUMPI PUSH2 0x133 PUSH2 0x13A PUSH2 0xC9A PUSH1 0x20 PUSH2 0x10A PUSH2 0x14E SWAP6 CALLDATASIZE SWAP1 PUSH1 0x4 ADD PUSH2 0x1D9F JUMP JUMPDEST DUP2 ADD PUSH1 0x8 DUP2 MSTORE SUB ADD SWAP1 KECCAK256 PUSH1 0x40 MLOAD SWAP3 DUP4 DUP1 SWAP3 PUSH2 0x1F21 JUMP JUMPDEST CALLVALUE PUSH2 0x152 JUMPI PUSH1 0x20 CALLDATASIZE PUSH1 0x3 NOT ADD SLT PUSH2 0x152 JUMPI PUSH1 0x4 CALLDATALOAD PUSH1 0x1 PUSH1 0x1 PUSH1 0x40 SHL SUB DUP2 GT PUSH2 0x152 JUMPI PUSH2 0x133 PUSH2 0x13A PUSH2 0xCEE PUSH1 0x20 PUSH2 0x10A PUSH2 0x14E SWAP6 CALLDATASIZE SWAP1 PUSH1 0x4 ADD PUSH2 0x1D9F JUMP JUMPDEST DUP2 ADD PUSH1 0x5 DUP2 MSTORE SUB ADD SWAP1 KECCAK256 PUSH1 0x40 MLOAD SWAP3 DUP4 DUP1 SWAP3 PUSH2 0x1F21 JUMP JUMPDEST CALLVALUE PUSH2 0x152 JUMPI PUSH1 0xA0 CALLDATASIZE PUSH1 0x3 NOT ADD SLT PUSH2 0x152 JUMPI PUSH1 0x4 CALLDATALOAD PUSH1 0x1 PUSH1 0x1 PUSH1 0x40 SHL SUB DUP2 GT PUSH2 0x152 JUMPI PUSH2 0xD34 SWAP1 CALLDATASIZE SWAP1 PUSH1 0x4 ADD PUSH2 0x1D9F JUMP JUMPDEST PUSH1 0x24 CALLDATALOAD SWAP1 PUSH1 0x1 PUSH1 0x1 PUSH1 0xA0 SHL SUB DUP3 AND DUP3 SUB PUSH2 0x152 JUMPI PUSH1 0x44 CALLDATALOAD PUSH1 0x1 PUSH1 0x1 PUSH1 0x40 SHL SUB DUP2 GT PUSH2 0x152 JUMPI PUSH2 0xD67 SWAP1 CALLDATASIZE SWAP1 PUSH1 0x4 ADD PUSH2 0x1D9F JUMP JUMPDEST SWAP1 PUSH1 0x64 CALLDATALOAD PUSH1 0x1 PUSH1 0x1 PUSH1 0x40 SHL SUB DUP2 GT PUSH2 0x152 JUMPI PUSH2 0xD87 SWAP1 CALLDATASIZE SWAP1 PUSH1 0x4 ADD PUSH2 0x1D9F JUMP JUMPDEST SWAP1 PUSH1 0x84 CALLDATALOAD PUSH1 0x1 PUSH1 0x1 PUSH1 0x40 SHL SUB DUP2 GT PUSH2 0x152 JUMPI PUSH2 0xDA7 SWAP1 CALLDATASIZE SWAP1 PUSH1 0x4 ADD PUSH2 0x1D9F JUMP JUMPDEST SWAP2 PUSH1 0x40 MLOAD SWAP4 DUP3 MLOAD SWAP5 PUSH1 0x20 DUP2 DUP2 DUP7 ADD SWAP8 PUSH2 0xDC1 DUP2 DUP4 DUP12 PUSH2 0x1DF5 JUMP JUMPDEST DUP2 ADD PUSH1 0x3 DUP2 MSTORE SUB ADD SWAP1 KECCAK256 SWAP6 PUSH1 0x6 DUP8 ADD PUSH1 0xFF DUP2 SLOAD PUSH1 0x8 SHR AND PUSH1 0x3 DUP2 LT ISZERO PUSH2 0x3B0 JUMPI PUSH1 0x1 SUB PUSH2 0x13A0 JUMPI TIMESTAMP PUSH1 0x8 DUP10 ADD SSTORE PUSH2 0x200 PUSH2 0xFF00 NOT DUP3 SLOAD AND OR SWAP1 SSTORE PUSH1 0x9 DUP8 ADD DUP6 MLOAD PUSH1 0x1 PUSH1 0x1 PUSH1 0x40 SHL SUB DUP2 GT PUSH2 0x8DF JUMPI PUSH2 0xE19 DUP3 SLOAD PUSH2 0x1EE7 JUMP JUMPDEST PUSH1 0x1F DUP2 GT PUSH2 0x136E JUMPI JUMPDEST POP PUSH1 0x20 PUSH1 0x1F DUP3 GT PUSH1 0x1 EQ PUSH2 0x1308 JUMPI SWAP1 DUP1 PUSH2 0xE51 SWAP3 PUSH1 0x0 SWAP2 PUSH2 0x12FD JUMPI POP DUP2 PUSH1 0x1 SHL SWAP2 PUSH1 0x0 NOT SWAP1 PUSH1 0x3 SHL SHR NOT AND OR SWAP1 JUMP JUMPDEST SWAP1 SSTORE JUMPDEST PUSH1 0x40 MLOAD PUSH1 0x20 DUP2 DUP7 MLOAD PUSH2 0xE67 DUP2 DUP4 DUP13 PUSH2 0x1DF5 JUMP JUMPDEST DUP2 ADD PUSH1 0x4 DUP2 MSTORE SUB ADD SWAP1 KECCAK256 SWAP1 PUSH1 0x1 DUP1 PUSH1 0xA0 SHL SUB AND PUSH12 0xFFFFFFFFFFFFFFFFFFFFFFFF PUSH1 0xA0 SHL DUP3 SLOAD AND OR SWAP1 SSTORE PUSH1 0x40 MLOAD PUSH1 0x20 DUP2 DUP6 MLOAD PUSH2 0xEA3 DUP2 DUP4 DUP12 PUSH2 0x1DF5 JUMP JUMPDEST DUP2 ADD PUSH1 0x5 DUP2 MSTORE SUB ADD SWAP1 KECCAK256 SWAP1 DUP1 MLOAD SWAP1 PUSH1 0x1 PUSH1 0x1 PUSH1 0x40 SHL SUB DUP3 GT PUSH2 0x8DF JUMPI PUSH2 0xEC9 DUP4 SLOAD PUSH2 0x1EE7 JUMP JUMPDEST PUSH1 0x1F DUP2 GT PUSH2 0x12CB JUMPI JUMPDEST POP PUSH1 0x20 SWAP1 PUSH1 0x1F DUP4 GT PUSH1 0x1 EQ PUSH2 0x1264 JUMPI PUSH2 0xF04 SWAP3 SWAP2 PUSH1 0x0 SWAP2 DUP4 PUSH2 0x1259 JUMPI JUMPDEST POP POP DUP2 PUSH1 0x1 SHL SWAP2 PUSH1 0x0 NOT SWAP1 PUSH1 0x3 SHL SHR NOT AND OR SWAP1 JUMP JUMPDEST SWAP1 SSTORE JUMPDEST PUSH1 0x40 MLOAD PUSH1 0x20 DUP2 DUP5 MLOAD PUSH2 0xF1A DUP2 DUP4 DUP11 PUSH2 0x1DF5 JUMP JUMPDEST DUP2 ADD PUSH1 0x6 DUP2 MSTORE SUB ADD SWAP1 KECCAK256 SWAP1 DUP1 MLOAD SWAP1 PUSH1 0x1 PUSH1 0x1 PUSH1 0x40 SHL SUB DUP3 GT PUSH2 0x8DF JUMPI PUSH2 0xF40 DUP4 SLOAD PUSH2 0x1EE7 JUMP JUMPDEST PUSH1 0x1F DUP2 GT PUSH2 0x1227 JUMPI JUMPDEST POP PUSH1 0x20 SWAP1 PUSH1 0x1F DUP4 GT PUSH1 0x1 EQ PUSH2 0x11C0 JUMPI PUSH2 0xF7A SWAP3 SWAP2 PUSH1 0x0 SWAP2 DUP4 PUSH2 0x11B5 JUMPI POP POP DUP2 PUSH1 0x1 SHL SWAP2 PUSH1 0x0 NOT SWAP1 PUSH1 0x3 SHL SHR NOT AND OR SWAP1 JUMP JUMPDEST SWAP1 SSTORE JUMPDEST PUSH1 0x0 JUMPDEST PUSH1 0x1 SLOAD DUP2 LT ISZERO PUSH2 0x1184 JUMPI PUSH2 0xF93 DUP2 PUSH2 0x203E JUMP JUMPDEST POP PUSH1 0x40 MLOAD PUSH2 0xFA9 DUP2 PUSH2 0xADE PUSH1 0x20 DUP3 ADD DUP1 SWAP6 PUSH2 0x2108 JUMP JUMPDEST MLOAD SWAP1 KECCAK256 PUSH1 0x40 MLOAD PUSH1 0x20 DUP2 ADD SWAP1 PUSH2 0xFC7 PUSH1 0x20 DUP3 DUP8 MLOAD PUSH2 0xB0A DUP2 DUP8 DUP14 PUSH2 0x1DF5 JUMP JUMPDEST MLOAD SWAP1 KECCAK256 EQ PUSH2 0xFD7 JUMPI PUSH1 0x1 ADD PUSH2 0xF80 JUMP JUMPDEST PUSH1 0x9 SWAP3 SWAP4 POP PUSH2 0x1010 SWAP2 POP PUSH2 0xFEA DUP2 PUSH2 0x203E JUMP JUMPDEST POP PUSH1 0x8 TIMESTAMP SWAP2 ADD SSTORE PUSH1 0x6 PUSH2 0xFFC DUP3 PUSH2 0x203E JUMP JUMPDEST POP ADD DUP1 SLOAD PUSH2 0xFF00 NOT AND PUSH2 0x200 OR SWAP1 SSTORE PUSH2 0x203E JUMP JUMPDEST POP ADD SWAP2 DUP2 MLOAD SWAP3 PUSH1 0x1 PUSH1 0x1 PUSH1 0x40 SHL SUB DUP5 GT PUSH2 0x8DF JUMPI PUSH2 0x102E DUP2 SLOAD PUSH2 0x1EE7 JUMP JUMPDEST PUSH1 0x1F DUP2 GT PUSH2 0x1152 JUMPI JUMPDEST POP PUSH1 0x20 SWAP4 PUSH1 0x1F DUP2 GT PUSH1 0x1 EQ PUSH2 0x10C4 JUMPI SWAP2 PUSH2 0x7F9 SWAP2 PUSH2 0x1091 DUP5 PUSH2 0x10AA SWAP7 SWAP6 PUSH32 0x489F165B733603CB0A992D8CAFD6C42A0C13D169039003F751758B9F0019F26C SWAP9 PUSH1 0x0 SWAP2 PUSH2 0x10B9 JUMPI POP DUP2 PUSH1 0x1 SHL SWAP2 PUSH1 0x0 NOT SWAP1 PUSH1 0x3 SHL SHR NOT AND OR SWAP1 JUMP JUMPDEST SWAP1 SSTORE JUMPDEST PUSH1 0x2 PUSH1 0x40 MLOAD SWAP5 DUP6 SWAP5 PUSH1 0x40 DUP7 MSTORE PUSH1 0x40 DUP7 ADD SWAP1 PUSH2 0x1E18 JUMP JUMPDEST SWAP2 DUP5 DUP4 SUB PUSH1 0x20 DUP7 ADD MSTORE ADD PUSH2 0x1F21 JUMP JUMPDEST SWAP1 POP DUP7 ADD MLOAD DUP10 PUSH2 0x6EE JUMP JUMPDEST PUSH1 0x1F NOT DUP2 AND SWAP5 DUP3 PUSH1 0x0 MSTORE DUP1 PUSH1 0x0 KECCAK256 SWAP6 PUSH1 0x0 JUMPDEST DUP2 DUP2 LT PUSH2 0x113A JUMPI POP DUP3 PUSH32 0x489F165B733603CB0A992D8CAFD6C42A0C13D169039003F751758B9F0019F26C SWAP8 PUSH2 0x7F9 SWAP6 SWAP4 PUSH2 0x10AA SWAP9 SWAP8 SWAP6 PUSH1 0x1 SWAP5 LT PUSH2 0x1121 JUMPI JUMPDEST POP POP DUP2 SHL ADD SWAP1 SSTORE PUSH2 0x1094 JUMP JUMPDEST DUP8 ADD MLOAD PUSH1 0x0 NOT PUSH1 0xF8 DUP5 PUSH1 0x3 SHL AND SHR NOT AND SWAP1 SSTORE DUP9 DUP1 PUSH2 0x1115 JUMP JUMPDEST DUP7 DUP4 ADD MLOAD DUP9 SSTORE PUSH1 0x1 SWAP1 SWAP8 ADD SWAP7 PUSH1 0x20 SWAP3 DUP4 ADD SWAP3 ADD PUSH2 0x10D6 JUMP JUMPDEST PUSH2 0x117E SWAP1 DUP3 PUSH1 0x0 MSTORE PUSH1 0x20 PUSH1 0x0 KECCAK256 PUSH1 0x1F DUP8 ADD PUSH1 0x5 SHR DUP2 ADD SWAP2 PUSH1 0x20 DUP9 LT PUSH2 0x8D5 JUMPI PUSH1 0x1F ADD PUSH1 0x5 SHR ADD SWAP1 PUSH2 0x2297 JUMP JUMPDEST DUP5 PUSH2 0x1037 JUMP JUMPDEST POP POP PUSH2 0x10AA SWAP2 POP PUSH2 0x7F9 PUSH32 0x489F165B733603CB0A992D8CAFD6C42A0C13D169039003F751758B9F0019F26C SWAP4 PUSH2 0x1094 JUMP JUMPDEST ADD MLOAD SWAP1 POP DUP9 DUP1 PUSH2 0xEEF JUMP JUMPDEST SWAP1 PUSH1 0x1F NOT DUP4 AND SWAP2 DUP5 PUSH1 0x0 MSTORE DUP2 PUSH1 0x0 KECCAK256 SWAP3 PUSH1 0x0 JUMPDEST DUP2 DUP2 LT PUSH2 0x120F JUMPI POP SWAP1 DUP5 PUSH1 0x1 SWAP6 SWAP5 SWAP4 SWAP3 LT PUSH2 0x11F6 JUMPI JUMPDEST POP POP POP DUP2 SHL ADD SWAP1 SSTORE PUSH2 0xF7D JUMP JUMPDEST ADD MLOAD PUSH1 0x0 NOT PUSH1 0xF8 DUP5 PUSH1 0x3 SHL AND SHR NOT AND SWAP1 SSTORE DUP8 DUP1 DUP1 PUSH2 0x11E9 JUMP JUMPDEST SWAP3 SWAP4 PUSH1 0x20 PUSH1 0x1 DUP2 SWAP3 DUP8 DUP7 ADD MLOAD DUP2 SSTORE ADD SWAP6 ADD SWAP4 ADD PUSH2 0x11D3 JUMP JUMPDEST PUSH2 0x1253 SWAP1 DUP5 PUSH1 0x0 MSTORE PUSH1 0x20 PUSH1 0x0 KECCAK256 PUSH1 0x1F DUP6 ADD PUSH1 0x5 SHR DUP2 ADD SWAP2 PUSH1 0x20 DUP7 LT PUSH2 0x8D5 JUMPI PUSH1 0x1F ADD PUSH1 0x5 SHR ADD SWAP1 PUSH2 0x2297 JUMP JUMPDEST DUP8 PUSH2 0xF49 JUMP JUMPDEST ADD MLOAD SWAP1 POP DUP10 DUP1 PUSH2 0xEEF JUMP JUMPDEST SWAP1 PUSH1 0x1F NOT DUP4 AND SWAP2 DUP5 PUSH1 0x0 MSTORE DUP2 PUSH1 0x0 KECCAK256 SWAP3 PUSH1 0x0 JUMPDEST DUP2 DUP2 LT PUSH2 0x12B3 JUMPI POP SWAP1 DUP5 PUSH1 0x1 SWAP6 SWAP5 SWAP4 SWAP3 LT PUSH2 0x129A JUMPI JUMPDEST POP POP POP DUP2 SHL ADD SWAP1 SSTORE PUSH2 0xF07 JUMP JUMPDEST ADD MLOAD PUSH1 0x0 NOT PUSH1 0xF8 DUP5 PUSH1 0x3 SHL AND SHR NOT AND SWAP1 SSTORE DUP9 DUP1 DUP1 PUSH2 0x128D JUMP JUMPDEST SWAP3 SWAP4 PUSH1 0x20 PUSH1 0x1 DUP2 SWAP3 DUP8 DUP7 ADD MLOAD DUP2 SSTORE ADD SWAP6 ADD SWAP4 ADD PUSH2 0x1277 JUMP JUMPDEST PUSH2 0x12F7 SWAP1 DUP5 PUSH1 0x0 MSTORE PUSH1 0x20 PUSH1 0x0 KECCAK256 PUSH1 0x1F DUP6 ADD PUSH1 0x5 SHR DUP2 ADD SWAP2 PUSH1 0x20 DUP7 LT PUSH2 0x8D5 JUMPI PUSH1 0x1F ADD PUSH1 0x5 SHR ADD SWAP1 PUSH2 0x2297 JUMP JUMPDEST DUP9 PUSH2 0xED2 JUMP JUMPDEST SWAP1 POP DUP9 ADD MLOAD DUP12 PUSH2 0x6EE JUMP JUMPDEST PUSH1 0x1F NOT DUP3 AND SWAP1 DUP4 PUSH1 0x0 MSTORE DUP1 PUSH1 0x0 KECCAK256 SWAP2 PUSH1 0x0 JUMPDEST DUP11 DUP3 DUP3 LT PUSH2 0x1356 JUMPI POP POP SWAP1 DUP4 PUSH1 0x1 SWAP5 SWAP4 SWAP3 LT PUSH2 0x133D JUMPI JUMPDEST POP POP DUP2 SHL ADD SWAP1 SSTORE PUSH2 0xE54 JUMP JUMPDEST DUP10 ADD MLOAD PUSH1 0x0 NOT PUSH1 0xF8 DUP5 PUSH1 0x3 SHL AND SHR NOT AND SWAP1 SSTORE DUP11 DUP1 PUSH2 0x1331 JUMP JUMPDEST PUSH1 0x1 DUP5 SWAP6 PUSH1 0x20 SWAP4 SWAP6 DUP5 SWAP4 ADD MLOAD DUP2 SSTORE ADD SWAP5 ADD SWAP3 ADD PUSH2 0x131A JUMP JUMPDEST PUSH2 0x139A SWAP1 DUP4 PUSH1 0x0 MSTORE PUSH1 0x20 PUSH1 0x0 KECCAK256 PUSH1 0x1F DUP5 ADD PUSH1 0x5 SHR DUP2 ADD SWAP2 PUSH1 0x20 DUP6 LT PUSH2 0x8D5 JUMPI PUSH1 0x1F ADD PUSH1 0x5 SHR ADD SWAP1 PUSH2 0x2297 JUMP JUMPDEST DUP10 PUSH2 0xE22 JUMP JUMPDEST PUSH1 0x40 MLOAD PUSH3 0x461BCD PUSH1 0xE5 SHL DUP2 MSTORE PUSH1 0x20 PUSH1 0x4 DUP3 ADD MSTORE PUSH1 0x2A PUSH1 0x24 DUP3 ADD MSTORE PUSH32 0x4F62617420547261646973696F6E616C20737461747573206D75737420626520 PUSH1 0x44 DUP3 ADD MSTORE PUSH10 0x72657175657374656421 PUSH1 0xB0 SHL PUSH1 0x64 DUP3 ADD MSTORE PUSH1 0x84 SWAP1 REVERT JUMPDEST CALLVALUE PUSH2 0x152 JUMPI PUSH1 0x20 CALLDATASIZE PUSH1 0x3 NOT ADD SLT PUSH2 0x152 JUMPI PUSH1 0x4 CALLDATALOAD PUSH1 0x1 SLOAD DUP2 LT ISZERO PUSH2 0x152 JUMPI PUSH2 0x141F SWAP1 PUSH2 0x203E JUMP JUMPDEST POP PUSH1 0x40 MLOAD SWAP1 PUSH2 0x1439 DUP3 PUSH2 0x1432 DUP2 DUP5 PUSH2 0x1F21 JUMP JUMPDEST SUB DUP4 PUSH2 0x1D7E JUMP JUMPDEST PUSH2 0x14E PUSH1 0x9 PUSH1 0x40 MLOAD SWAP3 PUSH2 0x145A DUP5 PUSH2 0x1453 DUP2 PUSH1 0x1 DUP6 ADD PUSH2 0x1F21 JUMP JUMPDEST SUB DUP6 PUSH2 0x1D7E JUMP JUMPDEST PUSH1 0x40 MLOAD SWAP5 PUSH2 0x1476 DUP7 PUSH2 0x146F DUP2 PUSH1 0x2 DUP7 ADD PUSH2 0x1F21 JUMP JUMPDEST SUB DUP8 PUSH2 0x1D7E JUMP JUMPDEST PUSH1 0x40 MLOAD SWAP1 PUSH2 0x148B DUP3 PUSH2 0x1432 DUP2 PUSH1 0x4 DUP8 ADD PUSH2 0x1F21 JUMP JUMPDEST PUSH1 0x6 DUP4 ADD SLOAD SWAP1 PUSH1 0x7 DUP5 ADD SLOAD SWAP3 PUSH2 0x14B0 PUSH1 0x8 DUP7 ADD SLOAD SWAP6 PUSH2 0x146F PUSH1 0x40 MLOAD DUP1 SWAP10 DUP2 SWAP4 ADD PUSH2 0x1F21 JUMP JUMPDEST PUSH1 0x40 MLOAD SWAP9 DUP10 SWAP9 PUSH1 0xFF DUP1 DUP7 PUSH1 0x8 SHR AND SWAP6 AND SWAP4 DUP11 PUSH2 0x1FA4 JUMP JUMPDEST CALLVALUE PUSH2 0x152 JUMPI PUSH1 0x20 CALLDATASIZE PUSH1 0x3 NOT ADD SLT PUSH2 0x152 JUMPI PUSH1 0x1 PUSH1 0x1 PUSH1 0xA0 SHL SUB PUSH2 0x14E8 PUSH2 0x201E JUMP JUMPDEST AND PUSH1 0x0 MSTORE PUSH1 0x2 PUSH1 0x20 MSTORE PUSH1 0x20 PUSH1 0xFF PUSH1 0x40 PUSH1 0x0 KECCAK256 SLOAD AND PUSH1 0x40 MLOAD SWAP1 PUSH2 0x1509 DUP2 PUSH2 0x2034 JUMP JUMPDEST DUP2 MSTORE RETURN JUMPDEST CALLVALUE PUSH2 0x152 JUMPI PUSH1 0x20 CALLDATASIZE PUSH1 0x3 NOT ADD SLT PUSH2 0x152 JUMPI PUSH1 0x4 CALLDATALOAD PUSH1 0x1 PUSH1 0x1 PUSH1 0x40 SHL SUB DUP2 GT PUSH2 0x152 JUMPI PUSH2 0x153F PUSH1 0x20 SWAP2 CALLDATASIZE SWAP1 PUSH1 0x4 ADD PUSH2 0x1D9F JUMP JUMPDEST DUP2 PUSH2 0x1553 PUSH1 0x40 MLOAD SWAP3 DUP4 DUP2 MLOAD SWAP4 DUP5 SWAP3 ADD PUSH2 0x1DF5 JUMP JUMPDEST PUSH1 0x7 SWAP1 DUP3 ADD SWAP1 DUP2 MSTORE DUP2 SWAP1 SUB DUP3 ADD SWAP1 KECCAK256 SLOAD PUSH1 0x40 MLOAD PUSH1 0x1 PUSH1 0x1 PUSH1 0xA0 SHL SUB SWAP1 SWAP2 AND DUP2 MSTORE RETURN JUMPDEST CALLVALUE PUSH2 0x152 JUMPI PUSH1 0x20 CALLDATASIZE PUSH1 0x3 NOT ADD SLT PUSH2 0x152 JUMPI PUSH1 0x1 PUSH1 0x1 PUSH1 0xA0 SHL SUB PUSH2 0x1596 PUSH2 0x201E JUMP JUMPDEST AND PUSH1 0x0 MSTORE PUSH1 0x2 PUSH1 0x20 MSTORE PUSH1 0x40 PUSH1 0xFF DUP2 PUSH1 0x0 KECCAK256 SLOAD AND DUP2 MLOAD SWAP1 PUSH2 0x15B5 DUP2 PUSH2 0x2034 JUMP JUMPDEST DUP2 MSTORE CALLER PUSH1 0x20 DUP3 ADD MSTORE RETURN JUMPDEST CALLVALUE PUSH2 0x152 JUMPI PUSH1 0x20 CALLDATASIZE PUSH1 0x3 NOT ADD SLT PUSH2 0x152 JUMPI PUSH1 0x4 CALLDATALOAD PUSH1 0x1 PUSH1 0x1 PUSH1 0x40 SHL SUB DUP2 GT PUSH2 0x152 JUMPI PUSH2 0x133 PUSH2 0x13A PUSH2 0x15FD PUSH1 0x20 PUSH2 0x10A PUSH2 0x14E SWAP6 CALLDATASIZE SWAP1 PUSH1 0x4 ADD PUSH2 0x1D9F JUMP JUMPDEST DUP2 ADD PUSH1 0x9 DUP2 MSTORE SUB ADD SWAP1 KECCAK256 PUSH1 0x40 MLOAD SWAP3 DUP4 DUP1 SWAP3 PUSH2 0x1F21 JUMP JUMPDEST CALLVALUE PUSH2 0x152 JUMPI PUSH1 0x20 CALLDATASIZE PUSH1 0x3 NOT ADD SLT PUSH2 0x152 JUMPI PUSH1 0x4 CALLDATALOAD PUSH1 0x1 PUSH1 0x1 PUSH1 0x40 SHL SUB DUP2 GT PUSH2 0x152 JUMPI PUSH1 0x20 PUSH2 0x10A PUSH2 0x1648 SWAP3 CALLDATASIZE SWAP1 PUSH1 0x4 ADD PUSH2 0x1D9F JUMP JUMPDEST DUP2 ADD PUSH1 0x3 DUP2 MSTORE SUB ADD SWAP1 KECCAK256 PUSH1 0x40 MLOAD SWAP1 PUSH2 0x1439 DUP3 PUSH2 0x1432 DUP2 DUP5 PUSH2 0x1F21 JUMP JUMPDEST CALLVALUE PUSH2 0x152 JUMPI PUSH1 0x20 CALLDATASIZE PUSH1 0x3 NOT ADD SLT PUSH2 0x152 JUMPI PUSH1 0x4 CALLDATALOAD PUSH1 0x1 PUSH1 0x1 PUSH1 0x40 SHL SUB DUP2 GT PUSH2 0x152 JUMPI PUSH2 0x1694 SWAP1 CALLDATASIZE SWAP1 PUSH1 0x4 ADD PUSH2 0x1D9F JUMP JUMPDEST PUSH1 0x60 PUSH2 0x140 PUSH1 0x40 MLOAD PUSH2 0x16A5 DUP2 PUSH2 0x1D62 JUMP JUMPDEST DUP3 DUP2 MSTORE DUP3 PUSH1 0x20 DUP3 ADD MSTORE DUP3 PUSH1 0x40 DUP3 ADD MSTORE DUP3 DUP1 DUP3 ADD MSTORE DUP3 PUSH1 0x80 DUP3 ADD MSTORE DUP3 PUSH1 0xA0 DUP3 ADD MSTORE PUSH1 0x0 PUSH1 0xC0 DUP3 ADD MSTORE PUSH1 0x0 PUSH1 0xE0 DUP3 ADD MSTORE PUSH1 0x0 PUSH2 0x100 DUP3 ADD MSTORE PUSH1 0x0 PUSH2 0x120 DUP3 ADD MSTORE ADD MSTORE PUSH1 0x40 MLOAD PUSH2 0x1710 DUP3 MLOAD SWAP2 PUSH1 0x20 DUP2 DUP2 DUP7 ADD SWAP5 PUSH2 0x1700 DUP2 DUP4 DUP9 PUSH2 0x1DF5 JUMP JUMPDEST DUP2 ADD PUSH1 0x3 DUP2 MSTORE SUB ADD SWAP1 KECCAK256 SLOAD PUSH2 0x1EE7 JUMP JUMPDEST ISZERO PUSH2 0x1A81 JUMPI PUSH1 0x40 MLOAD PUSH1 0x20 DUP2 DUP5 MLOAD PUSH2 0x1728 DUP2 DUP4 DUP8 PUSH2 0x1DF5 JUMP JUMPDEST DUP2 ADD PUSH1 0x3 DUP2 MSTORE SUB ADD SWAP1 KECCAK256 PUSH1 0x40 MLOAD SWAP2 PUSH2 0x173F DUP4 PUSH2 0x1D62 JUMP JUMPDEST PUSH1 0x40 MLOAD PUSH2 0x1750 DUP2 PUSH2 0x133 DUP2 DUP7 PUSH2 0x1F21 JUMP JUMPDEST DUP4 MSTORE PUSH1 0x40 MLOAD PUSH2 0x1766 DUP2 PUSH2 0x133 DUP2 PUSH1 0x1 DUP8 ADD PUSH2 0x1F21 JUMP JUMPDEST PUSH1 0x20 DUP5 ADD MSTORE PUSH1 0x40 MLOAD PUSH2 0x177F DUP2 PUSH2 0x133 DUP2 PUSH1 0x2 DUP8 ADD PUSH2 0x1F21 JUMP JUMPDEST PUSH1 0x40 DUP5 ADD MSTORE PUSH2 0x1790 PUSH1 0x3 DUP4 ADD PUSH2 0x222B JUMP JUMPDEST PUSH1 0x60 DUP5 ADD MSTORE PUSH1 0x40 MLOAD PUSH2 0x17A9 DUP2 PUSH2 0x133 DUP2 PUSH1 0x4 DUP8 ADD PUSH2 0x1F21 JUMP JUMPDEST PUSH1 0x80 DUP5 ADD MSTORE PUSH2 0x17BA PUSH1 0x5 DUP4 ADD PUSH2 0x222B JUMP JUMPDEST PUSH1 0xA0 DUP5 ADD MSTORE PUSH1 0xFF PUSH1 0x6 DUP4 ADD SLOAD PUSH2 0x17D5 DUP3 DUP3 AND PUSH1 0xC0 DUP8 ADD PUSH2 0x228B JUMP JUMPDEST PUSH1 0x8 SHR AND SWAP2 PUSH1 0x3 DUP4 LT ISZERO PUSH2 0x3B0 JUMPI PUSH2 0x140 SWAP5 PUSH2 0x1921 PUSH2 0x1A60 PUSH2 0x18C7 PUSH2 0x1A52 PUSH2 0x193E SWAP7 PUSH1 0x9 PUSH2 0x1831 PUSH2 0x1A73 SWAP9 PUSH2 0x14E SWAP12 PUSH1 0xE0 DUP15 ADD MSTORE DUP13 PUSH2 0x100 PUSH1 0x7 DUP4 ADD SLOAD SWAP2 ADD MSTORE DUP13 PUSH2 0x120 PUSH1 0x8 DUP4 ADD SLOAD SWAP2 ADD MSTORE PUSH2 0x133 PUSH1 0x40 MLOAD DUP1 SWAP5 DUP2 SWAP4 ADD PUSH2 0x1F21 JUMP JUMPDEST DUP12 DUP12 ADD MSTORE PUSH2 0x1894 PUSH2 0x1945 PUSH2 0x1928 PUSH1 0x20 PUSH1 0x40 MLOAD DUP11 MLOAD PUSH2 0x1850 DUP2 DUP4 DUP10 PUSH2 0x1DF5 JUMP JUMPDEST DUP2 ADD SWAP1 PUSH1 0x7 DUP3 MSTORE DUP3 DUP2 PUSH1 0x1 DUP1 PUSH1 0xA0 SHL SUB SWAP4 SUB ADD SWAP1 KECCAK256 SLOAD AND SWAP5 PUSH2 0x189B DUP12 DUP4 PUSH1 0x40 MLOAD DUP1 SWAP3 MLOAD PUSH2 0x187E DUP2 DUP4 DUP9 PUSH2 0x1DF5 JUMP JUMPDEST DUP2 ADD PUSH1 0x8 DUP2 MSTORE SUB ADD SWAP1 KECCAK256 PUSH1 0x40 MLOAD SWAP7 DUP8 DUP1 SWAP3 PUSH2 0x1F21 JUMP JUMPDEST SUB DUP7 PUSH2 0x1D7E JUMP JUMPDEST PUSH2 0x18CE DUP12 DUP4 PUSH1 0x40 MLOAD DUP1 SWAP3 MLOAD PUSH2 0x18B1 DUP2 DUP4 DUP9 PUSH2 0x1DF5 JUMP JUMPDEST DUP2 ADD PUSH1 0x9 DUP2 MSTORE SUB ADD SWAP1 KECCAK256 PUSH1 0x40 MLOAD SWAP10 DUP11 DUP1 SWAP3 PUSH2 0x1F21 JUMP JUMPDEST SUB DUP10 PUSH2 0x1D7E JUMP JUMPDEST PUSH1 0x40 MLOAD DUP12 MLOAD PUSH2 0x18DE DUP2 DUP4 DUP6 PUSH2 0x1DF5 JUMP JUMPDEST DUP2 ADD SWAP1 PUSH1 0x4 DUP3 MSTORE DUP4 DUP2 PUSH1 0x1 DUP1 PUSH1 0xA0 SHL SUB SWAP4 SUB ADD SWAP1 KECCAK256 SLOAD AND SWAP11 PUSH2 0x705 PUSH1 0x40 MLOAD DUP5 DUP2 DUP5 MLOAD PUSH2 0x190B DUP2 DUP4 DUP10 PUSH2 0x1DF5 JUMP JUMPDEST DUP2 ADD PUSH1 0x5 DUP2 MSTORE SUB ADD SWAP1 KECCAK256 PUSH1 0x40 MLOAD SWAP13 DUP14 DUP1 SWAP3 PUSH2 0x1F21 JUMP JUMPDEST SUB DUP13 PUSH2 0x1D7E JUMP JUMPDEST DUP2 ADD PUSH1 0x6 DUP2 MSTORE SUB ADD SWAP1 KECCAK256 PUSH1 0x40 MLOAD SWAP11 DUP12 DUP1 SWAP3 PUSH2 0x1F21 JUMP JUMPDEST SUB DUP11 PUSH2 0x1D7E JUMP JUMPDEST PUSH2 0x1A3F PUSH1 0x40 MLOAD DUP1 SWAP14 DUP2 SWAP14 PUSH1 0xE0 DUP4 MSTORE PUSH2 0x19EB PUSH2 0x19D4 PUSH2 0x19BD PUSH2 0x19A8 PUSH2 0x1991 PUSH2 0x197A DUP7 MLOAD PUSH2 0x160 PUSH1 0xE0 DUP12 ADD MSTORE PUSH2 0x240 DUP11 ADD SWAP1 PUSH2 0x1E18 JUMP JUMPDEST PUSH1 0x20 DUP8 ADD MLOAD DUP10 DUP3 SUB PUSH1 0xDF NOT ADD PUSH2 0x100 DUP12 ADD MSTORE PUSH2 0x1E18 JUMP JUMPDEST PUSH1 0x40 DUP7 ADD MLOAD DUP9 DUP3 SUB PUSH1 0xDF NOT ADD PUSH2 0x120 DUP11 ADD MSTORE PUSH2 0x1E18 JUMP JUMPDEST PUSH1 0x60 DUP6 ADD MLOAD DUP8 DUP3 SUB PUSH1 0xDF NOT ADD DUP8 DUP10 ADD MSTORE PUSH2 0x1E3D JUMP JUMPDEST PUSH1 0x80 DUP5 ADD MLOAD DUP7 DUP3 SUB PUSH1 0xDF NOT ADD PUSH2 0x160 DUP9 ADD MSTORE PUSH2 0x1E18 JUMP JUMPDEST PUSH1 0xA0 DUP4 ADD MLOAD DUP6 DUP3 SUB PUSH1 0xDF NOT ADD PUSH2 0x180 DUP8 ADD MSTORE PUSH2 0x1E3D JUMP JUMPDEST SWAP3 PUSH2 0x19FF PUSH1 0xC0 DUP4 ADD MLOAD PUSH2 0x1A0 DUP4 ADD SWAP1 PUSH2 0x1ECD JUMP JUMPDEST PUSH2 0x1A12 PUSH1 0xE0 DUP4 ADD MLOAD PUSH2 0x1C0 DUP4 ADD SWAP1 PUSH2 0x1EDA JUMP JUMPDEST PUSH2 0x100 DUP3 ADD MLOAD PUSH2 0x1E0 DUP3 ADD MSTORE PUSH2 0x120 DUP3 ADD MLOAD PUSH2 0x200 SWAP1 SWAP2 ADD MSTORE ADD MLOAD DUP14 DUP3 SUB PUSH1 0xDF NOT ADD PUSH2 0x220 DUP16 ADD MSTORE PUSH2 0x1E18 JUMP JUMPDEST SWAP2 PUSH1 0x20 DUP13 ADD MSTORE DUP11 DUP3 SUB PUSH1 0x40 DUP13 ADD MSTORE PUSH2 0x1E18 JUMP JUMPDEST SWAP1 DUP9 DUP3 SUB PUSH1 0x60 DUP11 ADD MSTORE PUSH2 0x1E18 JUMP JUMPDEST SWAP2 PUSH1 0x80 DUP8 ADD MSTORE DUP6 DUP3 SUB PUSH1 0xA0 DUP8 ADD MSTORE PUSH2 0x1E18 JUMP JUMPDEST SWAP1 DUP4 DUP3 SUB PUSH1 0xC0 DUP6 ADD MSTORE PUSH2 0x1E18 JUMP JUMPDEST PUSH1 0x40 MLOAD PUSH3 0x461BCD PUSH1 0xE5 SHL DUP2 MSTORE PUSH1 0x20 PUSH1 0x4 DUP3 ADD MSTORE PUSH1 0x1B PUSH1 0x24 DUP3 ADD MSTORE PUSH32 0x4E6F206461746120666F756E64207769746820746869732049442E0000000000 PUSH1 0x44 DUP3 ADD MSTORE PUSH1 0x64 SWAP1 REVERT JUMPDEST CALLVALUE PUSH2 0x152 JUMPI PUSH1 0x20 CALLDATASIZE PUSH1 0x3 NOT ADD SLT PUSH2 0x152 JUMPI PUSH1 0x4 CALLDATALOAD PUSH1 0x1 PUSH1 0x1 PUSH1 0x40 SHL SUB DUP2 GT PUSH2 0x152 JUMPI PUSH2 0x1AF6 SWAP1 CALLDATASIZE SWAP1 PUSH1 0x4 ADD PUSH2 0x1D9F JUMP JUMPDEST PUSH1 0x1 SLOAD PUSH1 0x20 DUP3 ADD SWAP2 PUSH1 0x0 DUP1 JUMPDEST DUP4 DUP2 LT PUSH2 0x1C8A JUMPI POP PUSH2 0x1B13 DUP2 PUSH2 0x219B JUMP JUMPDEST SWAP3 PUSH2 0x1B1D DUP3 PUSH2 0x219B JUMP JUMPDEST SWAP1 PUSH2 0x1B30 PUSH2 0x1B2A DUP5 PUSH2 0x21E5 JUMP JUMPDEST SWAP4 PUSH2 0x21E5 JUMP JUMPDEST SWAP4 PUSH1 0x0 SWAP7 DUP8 JUMPDEST DUP4 DUP2 LT PUSH2 0x1B8B JUMPI PUSH2 0x1B61 DUP9 PUSH2 0x14E DUP10 PUSH2 0x1B7D DUP11 PUSH2 0x1B6F DUP12 PUSH1 0x40 MLOAD SWAP8 DUP9 SWAP8 PUSH1 0x80 DUP10 MSTORE PUSH1 0x80 DUP10 ADD SWAP1 PUSH2 0x1E3D JUMP JUMPDEST SWAP1 DUP8 DUP3 SUB PUSH1 0x20 DUP10 ADD MSTORE PUSH2 0x1E3D JUMP JUMPDEST SWAP1 DUP6 DUP3 SUB PUSH1 0x40 DUP8 ADD MSTORE PUSH2 0x1E96 JUMP JUMPDEST SWAP1 DUP4 DUP3 SUB PUSH1 0x60 DUP6 ADD MSTORE PUSH2 0x1E96 JUMP JUMPDEST PUSH2 0x1B99 PUSH1 0x20 PUSH2 0x301 DUP4 PUSH2 0x203E JUMP JUMPDEST PUSH1 0x8 DUP2 MSTORE SUB ADD SWAP1 KECCAK256 PUSH1 0x40 MLOAD PUSH2 0x1BB6 DUP2 PUSH2 0xADE PUSH1 0x20 DUP3 ADD DUP1 SWAP6 PUSH2 0x2108 JUMP JUMPDEST MLOAD SWAP1 KECCAK256 PUSH1 0x40 MLOAD PUSH1 0x20 DUP2 ADD SWAP1 PUSH2 0x1BD4 PUSH1 0x20 DUP3 DUP9 MLOAD PUSH2 0xB0A DUP2 DUP8 DUP12 PUSH2 0x1DF5 JUMP JUMPDEST MLOAD SWAP1 KECCAK256 EQ PUSH2 0x1BE5 JUMPI JUMPDEST PUSH1 0x1 ADD PUSH2 0x1B36 JUMP JUMPDEST SWAP8 PUSH2 0x133 PUSH2 0x1BF5 PUSH2 0x295 DUP12 PUSH2 0x203E JUMP JUMPDEST PUSH2 0x1BFF DUP3 DUP11 PUSH2 0x2217 JUMP JUMPDEST MSTORE PUSH2 0x1C0A DUP2 DUP10 PUSH2 0x2217 JUMP JUMPDEST POP PUSH1 0x2 PUSH2 0x1C19 PUSH2 0x2C6 DUP12 PUSH2 0x203E JUMP JUMPDEST PUSH2 0x1C23 DUP3 DUP8 PUSH2 0x2217 JUMP JUMPDEST MSTORE PUSH2 0x1C2E DUP2 DUP7 PUSH2 0x2217 JUMP JUMPDEST POP PUSH1 0xFF PUSH1 0x6 PUSH2 0x1C3C DUP12 PUSH2 0x203E JUMP JUMPDEST POP ADD SLOAD PUSH1 0x8 SHR AND PUSH1 0x3 DUP2 LT ISZERO PUSH2 0x3B0 JUMPI PUSH2 0x1C56 DUP3 DUP9 PUSH2 0x2217 JUMP JUMPDEST MSTORE PUSH1 0xFF PUSH1 0x6 PUSH2 0x1C64 DUP12 PUSH2 0x203E JUMP JUMPDEST POP ADD SLOAD AND PUSH1 0x2 DUP2 LT ISZERO PUSH2 0x3B0 JUMPI DUP2 PUSH2 0x1C82 SWAP2 PUSH2 0x3A2 PUSH1 0x1 SWAP5 DUP12 PUSH2 0x2217 JUMP JUMPDEST SWAP9 SWAP1 POP PUSH2 0x1BDD JUMP JUMPDEST PUSH2 0x1C98 PUSH1 0x20 PUSH2 0x301 DUP4 PUSH2 0x203E JUMP JUMPDEST PUSH1 0x8 DUP2 MSTORE SUB ADD SWAP1 KECCAK256 PUSH1 0x40 MLOAD PUSH2 0x1CB5 DUP2 PUSH2 0xADE PUSH1 0x20 DUP3 ADD DUP1 SWAP6 PUSH2 0x2108 JUMP JUMPDEST MLOAD SWAP1 KECCAK256 PUSH1 0x40 MLOAD PUSH1 0x20 DUP2 ADD SWAP1 PUSH2 0x1CD5 PUSH1 0x20 DUP3 DUP5 PUSH2 0xB0A DUP13 DUP12 MLOAD SWAP3 DUP4 SWAP2 PUSH2 0x1DF5 JUMP JUMPDEST MLOAD SWAP1 KECCAK256 EQ PUSH2 0x1CE6 JUMPI JUMPDEST PUSH1 0x1 ADD PUSH2 0x1B02 JUMP JUMPDEST SWAP1 PUSH2 0x1CF2 PUSH1 0x1 SWAP2 PUSH2 0x2176 JUMP JUMPDEST SWAP2 SWAP1 POP PUSH2 0x1CDE JUMP JUMPDEST CALLVALUE PUSH2 0x152 JUMPI PUSH1 0x20 CALLDATASIZE PUSH1 0x3 NOT ADD SLT PUSH2 0x152 JUMPI PUSH1 0x4 CALLDATALOAD PUSH1 0x1 PUSH1 0x1 PUSH1 0x40 SHL SUB DUP2 GT PUSH2 0x152 JUMPI PUSH2 0x1D2C PUSH1 0x20 SWAP2 CALLDATASIZE SWAP1 PUSH1 0x4 ADD PUSH2 0x1D9F JUMP JUMPDEST DUP2 PUSH2 0x1D40 PUSH1 0x40 MLOAD SWAP3 DUP4 DUP2 MLOAD SWAP4 DUP5 SWAP3 ADD PUSH2 0x1DF5 JUMP JUMPDEST PUSH1 0x4 SWAP1 DUP3 ADD SWAP1 DUP2 MSTORE DUP2 SWAP1 SUB DUP3 ADD SWAP1 KECCAK256 SLOAD PUSH1 0x40 MLOAD PUSH1 0x1 PUSH1 0x1 PUSH1 0xA0 SHL SUB SWAP1 SWAP2 AND DUP2 MSTORE RETURN JUMPDEST PUSH2 0x160 DUP2 ADD SWAP1 DUP2 LT PUSH1 0x1 PUSH1 0x1 PUSH1 0x40 SHL SUB DUP3 GT OR PUSH2 0x8DF JUMPI PUSH1 0x40 MSTORE JUMP JUMPDEST SWAP1 PUSH1 0x1F DUP1 NOT SWAP2 ADD AND DUP2 ADD SWAP1 DUP2 LT PUSH1 0x1 PUSH1 0x1 PUSH1 0x40 SHL SUB DUP3 GT OR PUSH2 0x8DF JUMPI PUSH1 0x40 MSTORE JUMP JUMPDEST DUP2 PUSH1 0x1F DUP3 ADD SLT ISZERO PUSH2 0x152 JUMPI DUP1 CALLDATALOAD SWAP1 PUSH1 0x1 PUSH1 0x1 PUSH1 0x40 SHL SUB DUP3 GT PUSH2 0x8DF JUMPI PUSH1 0x40 MLOAD SWAP3 PUSH2 0x1DD3 PUSH1 0x1F DUP5 ADD PUSH1 0x1F NOT AND PUSH1 0x20 ADD DUP6 PUSH2 0x1D7E JUMP JUMPDEST DUP3 DUP5 MSTORE PUSH1 0x20 DUP4 DUP4 ADD ADD GT PUSH2 0x152 JUMPI DUP2 PUSH1 0x0 SWAP3 PUSH1 0x20 DUP1 SWAP4 ADD DUP4 DUP7 ADD CALLDATACOPY DUP4 ADD ADD MSTORE SWAP1 JUMP JUMPDEST PUSH1 0x0 JUMPDEST DUP4 DUP2 LT PUSH2 0x1E08 JUMPI POP POP PUSH1 0x0 SWAP2 ADD MSTORE JUMP JUMPDEST DUP2 DUP2 ADD MLOAD DUP4 DUP3 ADD MSTORE PUSH1 0x20 ADD PUSH2 0x1DF8 JUMP JUMPDEST SWAP1 PUSH1 0x20 SWAP2 PUSH2 0x1E31 DUP2 MLOAD DUP1 SWAP3 DUP2 DUP6 MSTORE DUP6 DUP1 DUP7 ADD SWAP2 ADD PUSH2 0x1DF5 JUMP JUMPDEST PUSH1 0x1F ADD PUSH1 0x1F NOT AND ADD ADD SWAP1 JUMP JUMPDEST SWAP1 DUP1 PUSH1 0x20 DUP4 MLOAD SWAP2 DUP3 DUP2 MSTORE ADD SWAP2 PUSH1 0x20 DUP1 DUP4 PUSH1 0x5 SHL DUP4 ADD ADD SWAP5 ADD SWAP3 PUSH1 0x0 SWAP2 JUMPDEST DUP4 DUP4 LT PUSH2 0x1E69 JUMPI POP POP POP POP POP SWAP1 JUMP JUMPDEST SWAP1 SWAP2 SWAP3 SWAP4 SWAP5 PUSH1 0x20 DUP1 PUSH2 0x1E87 PUSH1 0x1 SWAP4 PUSH1 0x1F NOT DUP7 DUP3 SUB ADD DUP8 MSTORE DUP10 MLOAD PUSH2 0x1E18 JUMP JUMPDEST SWAP8 ADD SWAP4 ADD SWAP4 ADD SWAP2 SWAP4 SWAP3 SWAP1 PUSH2 0x1E5A JUMP JUMPDEST SWAP1 PUSH1 0x20 DUP1 DUP4 MLOAD SWAP3 DUP4 DUP2 MSTORE ADD SWAP3 ADD SWAP1 PUSH1 0x0 JUMPDEST DUP2 DUP2 LT PUSH2 0x1EB4 JUMPI POP POP POP SWAP1 JUMP JUMPDEST DUP3 MLOAD PUSH1 0xFF AND DUP5 MSTORE PUSH1 0x20 SWAP4 DUP5 ADD SWAP4 SWAP1 SWAP3 ADD SWAP2 PUSH1 0x1 ADD PUSH2 0x1EA7 JUMP JUMPDEST SWAP1 PUSH1 0x2 DUP3 LT ISZERO PUSH2 0x3B0 JUMPI MSTORE JUMP JUMPDEST SWAP1 PUSH1 0x3 DUP3 LT ISZERO PUSH2 0x3B0 JUMPI MSTORE JUMP JUMPDEST SWAP1 PUSH1 0x1 DUP3 DUP2 SHR SWAP3 AND DUP1 ISZERO PUSH2 0x1F17 JUMPI JUMPDEST PUSH1 0x20 DUP4 LT EQ PUSH2 0x1F01 JUMPI JUMP JUMPDEST PUSH4 0x4E487B71 PUSH1 0xE0 SHL PUSH1 0x0 MSTORE PUSH1 0x22 PUSH1 0x4 MSTORE PUSH1 0x24 PUSH1 0x0 REVERT JUMPDEST SWAP2 PUSH1 0x7F AND SWAP2 PUSH2 0x1EF6 JUMP JUMPDEST PUSH1 0x0 SWAP3 SWAP2 DUP2 SLOAD SWAP2 PUSH2 0x1F31 DUP4 PUSH2 0x1EE7 JUMP JUMPDEST DUP1 DUP4 MSTORE SWAP3 PUSH1 0x1 DUP2 AND SWAP1 DUP2 ISZERO PUSH2 0x1F87 JUMPI POP PUSH1 0x1 EQ PUSH2 0x1F4D JUMPI POP POP POP JUMP JUMPDEST PUSH1 0x0 SWAP1 DUP2 MSTORE PUSH1 0x20 DUP2 KECCAK256 SWAP4 SWAP5 POP SWAP2 SWAP3 JUMPDEST DUP4 DUP4 LT PUSH2 0x1F6D JUMPI POP PUSH1 0x20 SWAP3 POP ADD ADD SWAP1 JUMP JUMPDEST PUSH1 0x1 DUP2 PUSH1 0x20 SWAP3 SWAP5 SWAP4 SWAP5 SLOAD DUP4 DUP6 DUP8 ADD ADD MSTORE ADD SWAP2 ADD SWAP2 SWAP1 PUSH2 0x1F5C JUMP JUMPDEST SWAP2 POP POP PUSH1 0x20 SWAP4 SWAP5 POP PUSH1 0xFF SWAP3 SWAP2 SWAP3 NOT AND DUP4 DUP4 ADD MSTORE ISZERO ISZERO PUSH1 0x5 SHL ADD ADD SWAP1 JUMP JUMPDEST SWAP6 SWAP2 PUSH2 0x201B SWAP10 SWAP8 SWAP5 PUSH2 0x1A52 PUSH2 0x2003 SWAP6 PUSH2 0x1FE0 PUSH2 0x1FEE SWAP5 PUSH2 0x1FD2 PUSH2 0x1FF9 SWAP8 SWAP12 SWAP15 SWAP12 PUSH2 0x120 DUP15 DUP2 DUP2 MSTORE ADD SWAP1 PUSH2 0x1E18 JUMP JUMPDEST DUP13 DUP2 SUB PUSH1 0x20 DUP15 ADD MSTORE SWAP1 PUSH2 0x1E18 JUMP JUMPDEST SWAP1 DUP11 DUP3 SUB PUSH1 0x40 DUP13 ADD MSTORE PUSH2 0x1E18 JUMP JUMPDEST SWAP8 PUSH1 0x80 DUP8 ADD SWAP1 PUSH2 0x1ECD JUMP JUMPDEST PUSH1 0xA0 DUP6 ADD SWAP1 PUSH2 0x1EDA JUMP JUMPDEST PUSH1 0xC0 DUP4 ADD MSTORE PUSH1 0xE0 DUP3 ADD MSTORE PUSH2 0x100 DUP2 DUP5 SUB SWAP2 ADD MSTORE PUSH2 0x1E18 JUMP JUMPDEST SWAP1 JUMP JUMPDEST PUSH1 0x4 CALLDATALOAD SWAP1 PUSH1 0x1 PUSH1 0x1 PUSH1 0xA0 SHL SUB DUP3 AND DUP3 SUB PUSH2 0x152 JUMPI JUMP JUMPDEST PUSH1 0x4 GT ISZERO PUSH2 0x3B0 JUMPI JUMP JUMPDEST PUSH1 0x1 SLOAD DUP2 LT ISZERO PUSH2 0x205D JUMPI PUSH1 0x1 PUSH1 0x0 MSTORE PUSH1 0xA PUSH1 0x20 PUSH1 0x0 KECCAK256 SWAP2 MUL ADD SWAP1 PUSH1 0x0 SWAP1 JUMP JUMPDEST PUSH4 0x4E487B71 PUSH1 0xE0 SHL PUSH1 0x0 MSTORE PUSH1 0x32 PUSH1 0x4 MSTORE PUSH1 0x24 PUSH1 0x0 REVERT JUMPDEST PUSH1 0x1 PUSH1 0x1 PUSH1 0x40 SHL SUB DUP2 GT PUSH2 0x8DF JUMPI PUSH1 0x5 SHL PUSH1 0x20 ADD SWAP1 JUMP JUMPDEST SWAP1 DUP1 PUSH1 0x1F DUP4 ADD SLT ISZERO PUSH2 0x152 JUMPI DUP2 CALLDATALOAD PUSH2 0x20A1 DUP2 PUSH2 0x2073 JUMP JUMPDEST SWAP3 PUSH2 0x20AF PUSH1 0x40 MLOAD SWAP5 DUP6 PUSH2 0x1D7E JUMP JUMPDEST DUP2 DUP5 MSTORE PUSH1 0x20 DUP1 DUP6 ADD SWAP3 PUSH1 0x5 SHL DUP3 ADD ADD SWAP2 DUP4 DUP4 GT PUSH2 0x152 JUMPI PUSH1 0x20 DUP3 ADD SWAP1 JUMPDEST DUP4 DUP3 LT PUSH2 0x20DB JUMPI POP POP POP POP POP SWAP1 JUMP JUMPDEST DUP2 CALLDATALOAD PUSH1 0x1 PUSH1 0x1 PUSH1 0x40 SHL SUB DUP2 GT PUSH2 0x152 JUMPI PUSH1 0x20 SWAP2 PUSH2 0x20FD DUP8 DUP5 DUP1 SWAP5 DUP9 ADD ADD PUSH2 0x1D9F JUMP JUMPDEST DUP2 MSTORE ADD SWAP2 ADD SWAP1 PUSH2 0x20CC JUMP JUMPDEST PUSH1 0x0 SWAP3 SWAP2 DUP2 SLOAD SWAP2 PUSH2 0x2118 DUP4 PUSH2 0x1EE7 JUMP JUMPDEST SWAP3 PUSH1 0x1 DUP2 AND SWAP1 DUP2 ISZERO PUSH2 0x2163 JUMPI POP PUSH1 0x1 EQ PUSH2 0x2131 JUMPI POP POP POP JUMP JUMPDEST SWAP1 SWAP2 SWAP3 SWAP4 POP PUSH1 0x0 MSTORE PUSH1 0x20 PUSH1 0x0 KECCAK256 PUSH1 0x0 SWAP1 JUMPDEST DUP4 DUP3 LT PUSH2 0x214F JUMPI POP POP ADD SWAP1 JUMP JUMPDEST PUSH1 0x1 DUP2 PUSH1 0x20 SWAP3 SLOAD DUP5 DUP7 ADD MSTORE ADD SWAP2 ADD SWAP1 PUSH2 0x2142 JUMP JUMPDEST PUSH1 0xFF NOT AND DUP4 MSTORE POP POP DUP2 ISZERO ISZERO SWAP1 SWAP2 MUL ADD SWAP2 POP JUMP JUMPDEST PUSH1 0x0 NOT DUP2 EQ PUSH2 0x2185 JUMPI PUSH1 0x1 ADD SWAP1 JUMP JUMPDEST PUSH4 0x4E487B71 PUSH1 0xE0 SHL PUSH1 0x0 MSTORE PUSH1 0x11 PUSH1 0x4 MSTORE PUSH1 0x24 PUSH1 0x0 REVERT JUMPDEST SWAP1 PUSH2 0x21A5 DUP3 PUSH2 0x2073 JUMP JUMPDEST PUSH2 0x21B2 PUSH1 0x40 MLOAD SWAP2 DUP3 PUSH2 0x1D7E JUMP JUMPDEST DUP3 DUP2 MSTORE DUP1 SWAP3 PUSH2 0x21C3 PUSH1 0x1F NOT SWAP2 PUSH2 0x2073 JUMP JUMPDEST ADD SWAP1 PUSH1 0x0 JUMPDEST DUP3 DUP2 LT PUSH2 0x21D4 JUMPI POP POP POP JUMP JUMPDEST DUP1 PUSH1 0x60 PUSH1 0x20 DUP1 SWAP4 DUP6 ADD ADD MSTORE ADD PUSH2 0x21C8 JUMP JUMPDEST SWAP1 PUSH2 0x21EF DUP3 PUSH2 0x2073 JUMP JUMPDEST PUSH2 0x21FC PUSH1 0x40 MLOAD SWAP2 DUP3 PUSH2 0x1D7E JUMP JUMPDEST DUP3 DUP2 MSTORE DUP1 SWAP3 PUSH2 0x220D PUSH1 0x1F NOT SWAP2 PUSH2 0x2073 JUMP JUMPDEST ADD SWAP1 PUSH1 0x20 CALLDATASIZE SWAP2 ADD CALLDATACOPY JUMP JUMPDEST DUP1 MLOAD DUP3 LT ISZERO PUSH2 0x205D JUMPI PUSH1 0x20 SWAP2 PUSH1 0x5 SHL ADD ADD SWAP1 JUMP JUMPDEST SWAP1 DUP2 SLOAD PUSH2 0x2237 DUP2 PUSH2 0x2073 JUMP JUMPDEST SWAP3 PUSH2 0x2245 PUSH1 0x40 MLOAD SWAP5 DUP6 PUSH2 0x1D7E JUMP JUMPDEST DUP2 DUP5 MSTORE PUSH1 0x20 DUP5 ADD SWAP1 PUSH1 0x0 MSTORE PUSH1 0x20 PUSH1 0x0 KECCAK256 PUSH1 0x0 SWAP2 JUMPDEST DUP4 DUP4 LT PUSH2 0x2266 JUMPI POP POP POP POP JUMP JUMPDEST PUSH1 0x1 PUSH1 0x20 DUP2 SWAP3 PUSH1 0x40 MLOAD PUSH2 0x227D DUP2 PUSH2 0x133 DUP2 DUP10 PUSH2 0x1F21 JUMP JUMPDEST DUP2 MSTORE ADD SWAP3 ADD SWAP3 ADD SWAP2 SWAP1 PUSH2 0x2259 JUMP JUMPDEST PUSH1 0x2 DUP3 LT ISZERO PUSH2 0x3B0 JUMPI MSTORE JUMP JUMPDEST DUP2 DUP2 LT PUSH2 0x22A2 JUMPI POP POP JUMP JUMPDEST PUSH1 0x0 DUP2 SSTORE PUSH1 0x1 ADD PUSH2 0x2297 JUMP JUMPDEST SWAP1 DUP2 PUSH1 0x20 SWAP2 SUB SLT PUSH2 0x152 JUMPI MLOAD DUP1 ISZERO ISZERO DUP2 SUB PUSH2 0x152 JUMPI SWAP1 JUMP JUMPDEST ISZERO PUSH2 0x22CD JUMPI JUMP JUMPDEST PUSH1 0x64 PUSH1 0x40 MLOAD PUSH3 0x461BCD PUSH1 0xE5 SHL DUP2 MSTORE PUSH1 0x20 PUSH1 0x4 DUP3 ADD MSTORE PUSH1 0x20 PUSH1 0x24 DUP3 ADD MSTORE PUSH32 0x416363657373207265737472696374656420746F2050616272696B20726F6C65 PUSH1 0x44 DUP3 ADD MSTORE REVERT JUMPDEST SWAP1 SWAP2 DUP3 MLOAD SWAP3 DUP4 MLOAD PUSH1 0x1 PUSH1 0x1 PUSH1 0x40 SHL SUB DUP2 GT PUSH2 0x8DF JUMPI PUSH2 0x2330 DUP5 SLOAD PUSH2 0x1EE7 JUMP JUMPDEST PUSH1 0x1F DUP2 GT PUSH2 0x2BDA JUMPI JUMPDEST POP PUSH1 0x20 SWAP5 PUSH1 0x1F DUP3 GT PUSH1 0x1 EQ PUSH2 0x2B75 JUMPI PUSH2 0x236D SWAP3 SWAP4 SWAP5 SWAP6 DUP3 SWAP2 PUSH1 0x0 SWAP3 PUSH2 0x25D3 JUMPI POP POP DUP2 PUSH1 0x1 SHL SWAP2 PUSH1 0x0 NOT SWAP1 PUSH1 0x3 SHL SHR NOT AND OR SWAP1 JUMP JUMPDEST DUP4 SSTORE JUMPDEST PUSH1 0x1 DUP4 ADD PUSH1 0x20 DUP3 ADD MLOAD DUP1 MLOAD SWAP1 PUSH1 0x1 PUSH1 0x1 PUSH1 0x40 SHL SUB DUP3 GT PUSH2 0x8DF JUMPI PUSH2 0x2394 DUP4 SLOAD PUSH2 0x1EE7 JUMP JUMPDEST PUSH1 0x1F DUP2 GT PUSH2 0x2B43 JUMPI JUMPDEST POP PUSH1 0x20 SWAP1 PUSH1 0x1F DUP4 GT PUSH1 0x1 EQ PUSH2 0x2ADC JUMPI PUSH2 0x23CE SWAP3 SWAP2 PUSH1 0x0 SWAP2 DUP4 PUSH2 0x25D3 JUMPI POP POP DUP2 PUSH1 0x1 SHL SWAP2 PUSH1 0x0 NOT SWAP1 PUSH1 0x3 SHL SHR NOT AND OR SWAP1 JUMP JUMPDEST SWAP1 SSTORE JUMPDEST PUSH1 0x2 DUP4 ADD PUSH1 0x40 DUP3 ADD MLOAD DUP1 MLOAD SWAP1 PUSH1 0x1 PUSH1 0x1 PUSH1 0x40 SHL SUB DUP3 GT PUSH2 0x8DF JUMPI PUSH2 0x23F5 DUP4 SLOAD PUSH2 0x1EE7 JUMP JUMPDEST PUSH1 0x1F DUP2 GT PUSH2 0x2AAA JUMPI JUMPDEST POP PUSH1 0x20 SWAP1 PUSH1 0x1F DUP4 GT PUSH1 0x1 EQ PUSH2 0x2A43 JUMPI PUSH2 0x242F SWAP3 SWAP2 PUSH1 0x0 SWAP2 DUP4 PUSH2 0x25D3 JUMPI POP POP DUP2 PUSH1 0x1 SHL SWAP2 PUSH1 0x0 NOT SWAP1 PUSH1 0x3 SHL SHR NOT AND OR SWAP1 JUMP JUMPDEST SWAP1 SSTORE JUMPDEST PUSH1 0x3 DUP4 ADD PUSH1 0x60 DUP3 ADD MLOAD DUP1 MLOAD SWAP1 PUSH1 0x1 PUSH1 0x40 SHL DUP3 GT PUSH2 0x8DF JUMPI DUP3 SLOAD DUP3 DUP5 SSTORE DUP1 DUP4 LT PUSH2 0x29C5 JUMPI JUMPDEST POP PUSH1 0x20 ADD SWAP2 PUSH1 0x0 MSTORE PUSH1 0x20 PUSH1 0x0 KECCAK256 SWAP2 PUSH1 0x0 SWAP1 JUMPDEST DUP3 DUP3 LT PUSH2 0x28B8 JUMPI POP POP POP POP PUSH1 0x4 DUP4 ADD PUSH1 0x80 DUP3 ADD MLOAD DUP1 MLOAD SWAP1 PUSH1 0x1 PUSH1 0x1 PUSH1 0x40 SHL SUB DUP3 GT PUSH2 0x8DF JUMPI PUSH2 0x2497 DUP4 SLOAD PUSH2 0x1EE7 JUMP JUMPDEST PUSH1 0x1F DUP2 GT PUSH2 0x2886 JUMPI JUMPDEST POP PUSH1 0x20 SWAP1 PUSH1 0x1F DUP4 GT PUSH1 0x1 EQ PUSH2 0x281F JUMPI PUSH2 0x24D1 SWAP3 SWAP2 PUSH1 0x0 SWAP2 DUP4 PUSH2 0x25D3 JUMPI POP POP DUP2 PUSH1 0x1 SHL SWAP2 PUSH1 0x0 NOT SWAP1 PUSH1 0x3 SHL SHR NOT AND OR SWAP1 JUMP JUMPDEST SWAP1 SSTORE JUMPDEST PUSH1 0x5 DUP4 ADD PUSH1 0xA0 DUP3 ADD MLOAD DUP1 MLOAD SWAP1 PUSH1 0x1 PUSH1 0x40 SHL DUP3 GT PUSH2 0x8DF JUMPI DUP3 SLOAD DUP3 DUP5 SSTORE DUP1 DUP4 LT PUSH2 0x27A1 JUMPI JUMPDEST POP PUSH1 0x20 ADD SWAP2 PUSH1 0x0 MSTORE PUSH1 0x20 PUSH1 0x0 KECCAK256 SWAP2 PUSH1 0x0 SWAP1 JUMPDEST DUP3 DUP3 LT PUSH2 0x2694 JUMPI POP POP POP POP PUSH1 0xC0 DUP2 ADD MLOAD SWAP3 PUSH1 0x6 DUP2 ADD PUSH1 0x2 DUP6 LT ISZERO PUSH2 0x3B0 JUMPI PUSH1 0x0 SWAP5 PUSH1 0xFF DUP1 NOT DUP4 SLOAD AND SWAP2 AND OR DUP2 SSTORE PUSH1 0xE0 DUP4 ADD MLOAD PUSH1 0x3 DUP2 LT ISZERO PUSH2 0x2680 JUMPI SWAP2 PUSH1 0x9 SWAP2 PUSH2 0x140 SWAP4 PUSH2 0xFF00 DUP3 SLOAD SWAP2 PUSH1 0x8 SHL AND SWAP1 PUSH2 0xFF00 NOT AND OR SWAP1 SSTORE PUSH2 0x100 DUP5 ADD MLOAD PUSH1 0x7 DUP3 ADD SSTORE PUSH2 0x120 DUP5 ADD MLOAD PUSH1 0x8 DUP3 ADD SSTORE ADD SWAP2 ADD MLOAD SWAP3 DUP4 MLOAD SWAP1 PUSH1 0x1 PUSH1 0x1 PUSH1 0x40 SHL SUB DUP3 GT PUSH2 0x266C JUMPI PUSH2 0x2596 DUP4 SLOAD PUSH2 0x1EE7 JUMP JUMPDEST PUSH1 0x1F DUP2 GT PUSH2 0x263C JUMPI JUMPDEST POP PUSH1 0x20 SWAP1 PUSH1 0x1F DUP4 GT PUSH1 0x1 EQ PUSH2 0x25DE JUMPI SWAP1 PUSH2 0x25CF SWAP4 SWAP5 SWAP6 DUP4 PUSH2 0x25D3 JUMPI POP POP DUP2 PUSH1 0x1 SHL SWAP2 PUSH1 0x0 NOT SWAP1 PUSH1 0x3 SHL SHR NOT AND OR SWAP1 JUMP JUMPDEST SWAP1 SSTORE JUMP JUMPDEST ADD MLOAD SWAP1 POP CODESIZE DUP1 PUSH2 0xEEF JUMP JUMPDEST SWAP1 PUSH1 0x1F NOT DUP4 AND DUP5 DUP4 MSTORE DUP2 DUP4 KECCAK256 SWAP3 JUMPDEST DUP2 DUP2 LT PUSH2 0x2624 JUMPI POP SWAP6 DUP4 PUSH1 0x1 SWAP6 SWAP7 SWAP8 LT PUSH2 0x260B JUMPI JUMPDEST POP POP POP DUP2 SHL ADD SWAP1 SSTORE JUMP JUMPDEST ADD MLOAD PUSH1 0x0 NOT PUSH1 0xF8 DUP5 PUSH1 0x3 SHL AND SHR NOT AND SWAP1 SSTORE CODESIZE DUP1 DUP1 PUSH2 0x2601 JUMP JUMPDEST SWAP2 SWAP3 PUSH1 0x20 PUSH1 0x1 DUP2 SWAP3 DUP7 DUP12 ADD MLOAD DUP2 SSTORE ADD SWAP5 ADD SWAP3 ADD PUSH2 0x25EC JUMP JUMPDEST PUSH2 0x2666 SWAP1 DUP5 DUP4 MSTORE PUSH1 0x20 DUP4 KECCAK256 PUSH1 0x1F DUP6 ADD PUSH1 0x5 SHR DUP2 ADD SWAP2 PUSH1 0x20 DUP7 LT PUSH2 0x8D5 JUMPI PUSH1 0x1F ADD PUSH1 0x5 SHR ADD SWAP1 PUSH2 0x2297 JUMP JUMPDEST CODESIZE PUSH2 0x259F JUMP JUMPDEST PUSH4 0x4E487B71 PUSH1 0xE0 SHL DUP2 MSTORE PUSH1 0x41 PUSH1 0x4 MSTORE PUSH1 0x24 SWAP1 REVERT JUMPDEST PUSH4 0x4E487B71 PUSH1 0xE0 SHL DUP7 MSTORE PUSH1 0x21 PUSH1 0x4 MSTORE PUSH1 0x24 DUP7 REVERT JUMPDEST DUP1 MLOAD DUP1 MLOAD SWAP1 PUSH1 0x1 PUSH1 0x1 PUSH1 0x40 SHL SUB DUP3 GT PUSH2 0x8DF JUMPI PUSH2 0x26B1 DUP7 SLOAD PUSH2 0x1EE7 JUMP JUMPDEST PUSH1 0x1F DUP2 GT PUSH2 0x276F JUMPI JUMPDEST POP PUSH1 0x20 SWAP1 PUSH1 0x1F DUP4 GT PUSH1 0x1 EQ PUSH2 0x2702 JUMPI SWAP3 PUSH2 0x26F3 DUP4 PUSH1 0x1 SWAP6 SWAP5 PUSH1 0x20 SWAP5 DUP8 SWAP7 PUSH1 0x0 SWAP3 PUSH2 0x25D3 JUMPI POP POP DUP2 PUSH1 0x1 SHL SWAP2 PUSH1 0x0 NOT SWAP1 PUSH1 0x3 SHL SHR NOT AND OR SWAP1 JUMP JUMPDEST DUP8 SSTORE JUMPDEST ADD SWAP5 ADD SWAP2 ADD SWAP1 SWAP3 PUSH2 0x250A JUMP JUMPDEST SWAP1 PUSH1 0x1F NOT DUP4 AND SWAP2 DUP8 PUSH1 0x0 MSTORE DUP2 PUSH1 0x0 KECCAK256 SWAP3 PUSH1 0x0 JUMPDEST DUP2 DUP2 LT PUSH2 0x2757 JUMPI POP SWAP4 PUSH1 0x20 SWAP4 PUSH1 0x1 SWAP7 SWAP4 DUP8 SWAP7 SWAP4 DUP4 DUP9 SWAP6 LT PUSH2 0x273E JUMPI JUMPDEST POP POP POP DUP2 SHL ADD DUP8 SSTORE PUSH2 0x26F6 JUMP JUMPDEST ADD MLOAD PUSH1 0x0 NOT PUSH1 0xF8 DUP5 PUSH1 0x3 SHL AND SHR NOT AND SWAP1 SSTORE CODESIZE DUP1 DUP1 PUSH2 0x2731 JUMP JUMPDEST SWAP3 SWAP4 PUSH1 0x20 PUSH1 0x1 DUP2 SWAP3 DUP8 DUP7 ADD MLOAD DUP2 SSTORE ADD SWAP6 ADD SWAP4 ADD PUSH2 0x2715 JUMP JUMPDEST PUSH2 0x279B SWAP1 DUP8 PUSH1 0x0 MSTORE PUSH1 0x20 PUSH1 0x0 KECCAK256 PUSH1 0x1F DUP6 ADD PUSH1 0x5 SHR DUP2 ADD SWAP2 PUSH1 0x20 DUP7 LT PUSH2 0x8D5 JUMPI PUSH1 0x1F ADD PUSH1 0x5 SHR ADD SWAP1 PUSH2 0x2297 JUMP JUMPDEST CODESIZE PUSH2 0x26BA JUMP JUMPDEST DUP4 PUSH1 0x0 MSTORE DUP3 PUSH1 0x20 PUSH1 0x0 KECCAK256 SWAP2 DUP3 ADD SWAP2 ADD JUMPDEST DUP2 DUP2 LT PUSH2 0x27BE JUMPI POP PUSH2 0x24F8 JUMP JUMPDEST DUP1 PUSH2 0x27CB PUSH1 0x1 SWAP3 SLOAD PUSH2 0x1EE7 JUMP JUMPDEST DUP1 PUSH2 0x27D8 JUMPI JUMPDEST POP ADD PUSH2 0x27B1 JUMP JUMPDEST PUSH1 0x1F DUP2 GT DUP4 EQ PUSH2 0x27EE JUMPI POP PUSH1 0x0 DUP2 SSTORE JUMPDEST CODESIZE PUSH2 0x27D1 JUMP JUMPDEST PUSH2 0x280C SWAP1 DUP3 PUSH1 0x0 MSTORE DUP4 PUSH1 0x1F PUSH1 0x20 PUSH1 0x0 KECCAK256 SWAP3 ADD PUSH1 0x5 SHR DUP3 ADD SWAP2 ADD PUSH2 0x2297 JUMP JUMPDEST DUP1 PUSH1 0x0 MSTORE PUSH1 0x0 PUSH1 0x20 DUP2 KECCAK256 DUP2 DUP4 SSTORE SSTORE PUSH2 0x27E8 JUMP JUMPDEST SWAP1 PUSH1 0x1F NOT DUP4 AND SWAP2 DUP5 PUSH1 0x0 MSTORE DUP2 PUSH1 0x0 KECCAK256 SWAP3 PUSH1 0x0 JUMPDEST DUP2 DUP2 LT PUSH2 0x286E JUMPI POP SWAP1 DUP5 PUSH1 0x1 SWAP6 SWAP5 SWAP4 SWAP3 LT PUSH2 0x2855 JUMPI JUMPDEST POP POP POP DUP2 SHL ADD SWAP1 SSTORE PUSH2 0x24D4 JUMP JUMPDEST ADD MLOAD PUSH1 0x0 NOT PUSH1 0xF8 DUP5 PUSH1 0x3 SHL AND SHR NOT AND SWAP1 SSTORE CODESIZE DUP1 DUP1 PUSH2 0x2848 JUMP JUMPDEST SWAP3 SWAP4 PUSH1 0x20 PUSH1 0x1 DUP2 SWAP3 DUP8 DUP7 ADD MLOAD DUP2 SSTORE ADD SWAP6 ADD SWAP4 ADD PUSH2 0x2832 JUMP JUMPDEST PUSH2 0x28B2 SWAP1 DUP5 PUSH1 0x0 MSTORE PUSH1 0x20 PUSH1 0x0 KECCAK256 PUSH1 0x1F DUP6 ADD PUSH1 0x5 SHR DUP2 ADD SWAP2 PUSH1 0x20 DUP7 LT PUSH2 0x8D5 JUMPI PUSH1 0x1F ADD PUSH1 0x5 SHR ADD SWAP1 PUSH2 0x2297 JUMP JUMPDEST CODESIZE PUSH2 0x24A0 JUMP JUMPDEST DUP1 MLOAD DUP1 MLOAD SWAP1 PUSH1 0x1 PUSH1 0x1 PUSH1 0x40 SHL SUB DUP3 GT PUSH2 0x8DF JUMPI PUSH2 0x28D5 DUP7 SLOAD PUSH2 0x1EE7 JUMP JUMPDEST PUSH1 0x1F DUP2 GT PUSH2 0x2993 JUMPI JUMPDEST POP PUSH1 0x20 SWAP1 PUSH1 0x1F DUP4 GT PUSH1 0x1 EQ PUSH2 0x2926 JUMPI SWAP3 PUSH2 0x2917 DUP4 PUSH1 0x1 SWAP6 SWAP5 PUSH1 0x20 SWAP5 DUP8 SWAP7 PUSH1 0x0 SWAP3 PUSH2 0x25D3 JUMPI POP POP DUP2 PUSH1 0x1 SHL SWAP2 PUSH1 0x0 NOT SWAP1 PUSH1 0x3 SHL SHR NOT AND OR SWAP1 JUMP JUMPDEST DUP8 SSTORE JUMPDEST ADD SWAP5 ADD SWAP2 ADD SWAP1 SWAP3 PUSH2 0x2468 JUMP JUMPDEST SWAP1 PUSH1 0x1F NOT DUP4 AND SWAP2 DUP8 PUSH1 0x0 MSTORE DUP2 PUSH1 0x0 KECCAK256 SWAP3 PUSH1 0x0 JUMPDEST DUP2 DUP2 LT PUSH2 0x297B JUMPI POP SWAP4 PUSH1 0x20 SWAP4 PUSH1 0x1 SWAP7 SWAP4 DUP8 SWAP7 SWAP4 DUP4 DUP9 SWAP6 LT PUSH2 0x2962 JUMPI JUMPDEST POP POP POP DUP2 SHL ADD DUP8 SSTORE PUSH2 0x291A JUMP JUMPDEST ADD MLOAD PUSH1 0x0 NOT PUSH1 0xF8 DUP5 PUSH1 0x3 SHL AND SHR NOT AND SWAP1 SSTORE CODESIZE DUP1 DUP1 PUSH2 0x2955 JUMP JUMPDEST SWAP3 SWAP4 PUSH1 0x20 PUSH1 0x1 DUP2 SWAP3 DUP8 DUP7 ADD MLOAD DUP2 SSTORE ADD SWAP6 ADD SWAP4 ADD PUSH2 0x2939 JUMP JUMPDEST PUSH2 0x29BF SWAP1 DUP8 PUSH1 0x0 MSTORE PUSH1 0x20 PUSH1 0x0 KECCAK256 PUSH1 0x1F DUP6 ADD PUSH1 0x5 SHR DUP2 ADD SWAP2 PUSH1 0x20 DUP7 LT PUSH2 0x8D5 JUMPI PUSH1 0x1F ADD PUSH1 0x5 SHR ADD SWAP1 PUSH2 0x2297 JUMP JUMPDEST CODESIZE PUSH2 0x28DE JUMP JUMPDEST DUP4 PUSH1 0x0 MSTORE DUP3 PUSH1 0x20 PUSH1 0x0 KECCAK256 SWAP2 DUP3 ADD SWAP2 ADD JUMPDEST DUP2 DUP2 LT PUSH2 0x29E2 JUMPI POP PUSH2 0x2456 JUMP JUMPDEST DUP1 PUSH2 0x29EF PUSH1 0x1 SWAP3 SLOAD PUSH2 0x1EE7 JUMP JUMPDEST DUP1 PUSH2 0x29FC JUMPI JUMPDEST POP ADD PUSH2 0x29D5 JUMP JUMPDEST PUSH1 0x1F DUP2 GT DUP4 EQ PUSH2 0x2A12 JUMPI POP PUSH1 0x0 DUP2 SSTORE JUMPDEST CODESIZE PUSH2 0x29F5 JUMP JUMPDEST PUSH2 0x2A30 SWAP1 DUP3 PUSH1 0x0 MSTORE DUP4 PUSH1 0x1F PUSH1 0x20 PUSH1 0x0 KECCAK256 SWAP3 ADD PUSH1 0x5 SHR DUP3 ADD SWAP2 ADD PUSH2 0x2297 JUMP JUMPDEST DUP1 PUSH1 0x0 MSTORE PUSH1 0x0 PUSH1 0x20 DUP2 KECCAK256 DUP2 DUP4 SSTORE SSTORE PUSH2 0x2A0C JUMP JUMPDEST SWAP1 PUSH1 0x1F NOT DUP4 AND SWAP2 DUP5 PUSH1 0x0 MSTORE DUP2 PUSH1 0x0 KECCAK256 SWAP3 PUSH1 0x0 JUMPDEST DUP2 DUP2 LT PUSH2 0x2A92 JUMPI POP SWAP1 DUP5 PUSH1 0x1 SWAP6 SWAP5 SWAP4 SWAP3 LT PUSH2 0x2A79 JUMPI JUMPDEST POP POP POP DUP2 SHL ADD SWAP1 SSTORE PUSH2 0x2432 JUMP JUMPDEST ADD MLOAD PUSH1 0x0 NOT PUSH1 0xF8 DUP5 PUSH1 0x3 SHL AND SHR NOT AND SWAP1 SSTORE CODESIZE DUP1 DUP1 PUSH2 0x2A6C JUMP JUMPDEST SWAP3 SWAP4 PUSH1 0x20 PUSH1 0x1 DUP2 SWAP3 DUP8 DUP7 ADD MLOAD DUP2 SSTORE ADD SWAP6 ADD SWAP4 ADD PUSH2 0x2A56 JUMP JUMPDEST PUSH2 0x2AD6 SWAP1 DUP5 PUSH1 0x0 MSTORE PUSH1 0x20 PUSH1 0x0 KECCAK256 PUSH1 0x1F DUP6 ADD PUSH1 0x5 SHR DUP2 ADD SWAP2 PUSH1 0x20 DUP7 LT PUSH2 0x8D5 JUMPI PUSH1 0x1F ADD PUSH1 0x5 SHR ADD SWAP1 PUSH2 0x2297 JUMP JUMPDEST CODESIZE PUSH2 0x23FE JUMP JUMPDEST SWAP1 PUSH1 0x1F NOT DUP4 AND SWAP2 DUP5 PUSH1 0x0 MSTORE DUP2 PUSH1 0x0 KECCAK256 SWAP3 PUSH1 0x0 JUMPDEST DUP2 DUP2 LT PUSH2 0x2B2B JUMPI POP SWAP1 DUP5 PUSH1 0x1 SWAP6 SWAP5 SWAP4 SWAP3 LT PUSH2 0x2B12 JUMPI JUMPDEST POP POP POP DUP2 SHL ADD SWAP1 SSTORE PUSH2 0x23D1 JUMP JUMPDEST ADD MLOAD PUSH1 0x0 NOT PUSH1 0xF8 DUP5 PUSH1 0x3 SHL AND SHR NOT AND SWAP1 SSTORE CODESIZE DUP1 DUP1 PUSH2 0x2B05 JUMP JUMPDEST SWAP3 SWAP4 PUSH1 0x20 PUSH1 0x1 DUP2 SWAP3 DUP8 DUP7 ADD MLOAD DUP2 SSTORE ADD SWAP6 ADD SWAP4 ADD PUSH2 0x2AEF JUMP JUMPDEST PUSH2 0x2B6F SWAP1 DUP5 PUSH1 0x0 MSTORE PUSH1 0x20 PUSH1 0x0 KECCAK256 PUSH1 0x1F DUP6 ADD PUSH1 0x5 SHR DUP2 ADD SWAP2 PUSH1 0x20 DUP7 LT PUSH2 0x8D5 JUMPI PUSH1 0x1F ADD PUSH1 0x5 SHR ADD SWAP1 PUSH2 0x2297 JUMP JUMPDEST CODESIZE PUSH2 0x239D JUMP JUMPDEST PUSH1 0x1F NOT DUP3 AND SWAP6 DUP6 PUSH1 0x0 MSTORE DUP1 PUSH1 0x0 KECCAK256 SWAP2 PUSH1 0x0 JUMPDEST DUP9 DUP2 LT PUSH2 0x2BC2 JUMPI POP DUP4 PUSH1 0x1 SWAP6 SWAP7 SWAP8 SWAP9 LT PUSH2 0x2BA9 JUMPI JUMPDEST POP POP POP DUP2 SHL ADD DUP4 SSTORE PUSH2 0x2370 JUMP JUMPDEST ADD MLOAD PUSH1 0x0 NOT PUSH1 0xF8 DUP5 PUSH1 0x3 SHL AND SHR NOT AND SWAP1 SSTORE CODESIZE DUP1 DUP1 PUSH2 0x2B9C JUMP JUMPDEST SWAP2 SWAP3 PUSH1 0x20 PUSH1 0x1 DUP2 SWAP3 DUP7 DUP6 ADD MLOAD DUP2 SSTORE ADD SWAP5 ADD SWAP3 ADD PUSH2 0x2B87 JUMP JUMPDEST PUSH2 0x2C06 SWAP1 DUP6 PUSH1 0x0 MSTORE PUSH1 0x20 PUSH1 0x0 KECCAK256 PUSH1 0x1F DUP5 ADD PUSH1 0x5 SHR DUP2 ADD SWAP2 PUSH1 0x20 DUP6 LT PUSH2 0x8D5 JUMPI PUSH1 0x1F ADD PUSH1 0x5 SHR ADD SWAP1 PUSH2 0x2297 JUMP JUMPDEST CODESIZE PUSH2 0x2339 JUMP INVALID LOG2 PUSH5 0x6970667358 0x22 SLT KECCAK256 DUP13 0x27 CODECOPY OR DUP3 KECCAK256 TIMESTAMP 0xEE PUSH26 0x3A96B23A8EFE97EB7202AF89A4488420888FD5C73AACE464736F PUSH13 0x634300081B0033000000000000 "},"methodIdentifiers":{"allObatData(uint256)":"7aad01bd","approveNie(string,address,string,string,string)":"7ade51dd","bpomAddresses(string)":"1c0b2030","bpomInstanceNames(string)":"9d9315c2","bpomUserNames(string)":"f1022862","createObat(string,string,string,string[],string,string[],address,string,string,uint8)":"d9d284dc","factoryAddresses(string)":"4b87568a","factoryInstanceNames(string)":"a812536d","factoryUserNames(string)":"349a7a72","getListAllObatNie()":"e06749ba","getListObatByFactory(string)":"1dce6e58","getListObatById(string)":"25606bc3","getRole(address)":"44276733","obatDetailsById(string)":"27321837","requestNie(string)":"bc4a6f6c","userRoles(address)":"74d5e100"}}}}}