{"contracts/OrderManagement.sol":{"OrderManagement":{"abi":[{"inputs":[{"internalType":"address","name":"_obatTradisionalAddr","type":"address"},{"internalType":"address","name":"_roleManagerAddr","type":"address"},{"internalType":"address","name":"_obatSharedAddr","type":"address"}],"stateMutability":"nonpayable","type":"constructor"},{"anonymous":false,"inputs":[{"indexed":false,"internalType":"string","name":"namaProduk","type":"string"},{"indexed":false,"internalType":"string","name":"buyerInstanceName","type":"string"},{"indexed":false,"internalType":"string","name":"sellerInstanceName","type":"string"},{"indexed":false,"internalType":"uint8","name":"orderQuantity","type":"uint8"},{"indexed":false,"internalType":"uint256","name":"timestamp","type":"uint256"}],"name":"evt_orderUpdate","type":"event"},{"inputs":[{"internalType":"string","name":"_orderId","type":"string"},{"internalType":"string[]","name":"_orderObatIpfs","type":"string[]"}],"name":"acceptOrder","outputs":[],"stateMutability":"nonpayable","type":"function"},{"inputs":[{"internalType":"uint256","name":"","type":"uint256"}],"name":"allOrderId","outputs":[{"internalType":"string","name":"","type":"string"}],"stateMutability":"view","type":"function"},{"inputs":[{"internalType":"string","name":"_orderId","type":"string"},{"internalType":"string[]","name":"_orderObatIpfs","type":"string[]"}],"name":"completeOrder","outputs":[],"stateMutability":"nonpayable","type":"function"},{"inputs":[{"internalType":"string","name":"_orderId","type":"string"},{"internalType":"string","name":"_obatId","type":"string"},{"internalType":"string","name":"_batchName","type":"string"},{"internalType":"string","name":"_namaProduk","type":"string"},{"internalType":"string","name":"_buyerInstance","type":"string"},{"internalType":"string","name":"_sellerInstance","type":"string"},{"internalType":"uint8","name":"_orderQuantity","type":"uint8"}],"name":"createOrder","outputs":[],"stateMutability":"nonpayable","type":"function"},{"inputs":[{"internalType":"string","name":"_orderId","type":"string"}],"name":"detailOrder","outputs":[{"components":[{"internalType":"string","name":"orderId","type":"string"},{"internalType":"string","name":"obatId","type":"string"},{"internalType":"string","name":"namaProduk","type":"string"},{"internalType":"string","name":"batchName","type":"string"},{"internalType":"uint8","name":"orderQuantity","type":"uint8"},{"components":[{"internalType":"string","name":"instanceName","type":"string"},{"internalType":"address","name":"instanceAddr","type":"address"}],"internalType":"struct OrderManagement.st_orderUser","name":"buyerUser","type":"tuple"},{"components":[{"internalType":"string","name":"instanceName","type":"string"},{"internalType":"address","name":"instanceAddr","type":"address"}],"internalType":"struct OrderManagement.st_orderUser","name":"sellerUser","type":"tuple"},{"internalType":"enum EnumsLibrary.OrderStatus","name":"statusOrder","type":"uint8"}],"internalType":"struct OrderManagement.st_obatOrder","name":"","type":"tuple"},{"components":[{"internalType":"uint256","name":"timestampOrder","type":"uint256"},{"internalType":"uint256","name":"timestampShipped","type":"uint256"},{"internalType":"uint256","name":"timestampComplete","type":"uint256"}],"internalType":"struct OrderManagement.st_orderTimestamp","name":"","type":"tuple"},{"internalType":"string[]","name":"","type":"string[]"}],"stateMutability":"view","type":"function"},{"inputs":[],"name":"getAllObatPbfReadyStock","outputs":[{"components":[{"internalType":"string","name":"obatId","type":"string"},{"internalType":"string","name":"namaProduk","type":"string"},{"internalType":"string","name":"batchName","type":"string"},{"internalType":"uint8","name":"obatQuantity","type":"uint8"},{"internalType":"enum EnumsLibrary.ObatAvailability","name":"statusStok","type":"uint8"},{"internalType":"string","name":"ownerInstance","type":"string"}],"internalType":"struct ObatShared.st_obatOutputStock[]","name":"","type":"tuple[]"}],"stateMutability":"view","type":"function"},{"inputs":[{"internalType":"string","name":"_buyerInstance","type":"string"}],"name":"getAllOrderFromBuyer","outputs":[{"components":[{"internalType":"string","name":"orderId","type":"string"},{"internalType":"string","name":"obatId","type":"string"},{"internalType":"string","name":"namaProduk","type":"string"},{"internalType":"string","name":"batchName","type":"string"},{"internalType":"uint8","name":"orderQuantity","type":"uint8"},{"components":[{"internalType":"string","name":"instanceName","type":"string"},{"internalType":"address","name":"instanceAddr","type":"address"}],"internalType":"struct OrderManagement.st_orderUser","name":"buyerUser","type":"tuple"},{"components":[{"internalType":"string","name":"instanceName","type":"string"},{"internalType":"address","name":"instanceAddr","type":"address"}],"internalType":"struct OrderManagement.st_orderUser","name":"sellerUser","type":"tuple"},{"internalType":"enum EnumsLibrary.OrderStatus","name":"statusOrder","type":"uint8"}],"internalType":"struct OrderManagement.st_obatOrder[]","name":"","type":"tuple[]"}],"stateMutability":"view","type":"function"},{"inputs":[{"internalType":"string","name":"_sellerInstance","type":"string"}],"name":"getAllOrderFromSeller","outputs":[{"components":[{"internalType":"string","name":"orderId","type":"string"},{"internalType":"string","name":"obatId","type":"string"},{"internalType":"string","name":"namaProduk","type":"string"},{"internalType":"string","name":"batchName","type":"string"},{"internalType":"uint8","name":"orderQuantity","type":"uint8"},{"components":[{"internalType":"string","name":"instanceName","type":"string"},{"internalType":"address","name":"instanceAddr","type":"address"}],"internalType":"struct OrderManagement.st_orderUser","name":"buyerUser","type":"tuple"},{"components":[{"internalType":"string","name":"instanceName","type":"string"},{"internalType":"address","name":"instanceAddr","type":"address"}],"internalType":"struct OrderManagement.st_orderUser","name":"sellerUser","type":"tuple"},{"internalType":"enum EnumsLibrary.OrderStatus","name":"statusOrder","type":"uint8"}],"internalType":"struct OrderManagement.st_obatOrder[]","name":"","type":"tuple[]"}],"stateMutability":"view","type":"function"},{"inputs":[],"name":"getAvailableObatFromFactory","outputs":[{"components":[{"internalType":"string","name":"obatId","type":"string"},{"internalType":"string","name":"namaProduk","type":"string"},{"internalType":"string","name":"batchName","type":"string"},{"internalType":"uint8","name":"obatQuantity","type":"uint8"},{"internalType":"enum EnumsLibrary.ObatAvailability","name":"statusStok","type":"uint8"},{"internalType":"string","name":"ownerInstance","type":"string"}],"internalType":"struct ObatTradisional.st_obatOutputBatch[]","name":"","type":"tuple[]"}],"stateMutability":"view","type":"function"},{"inputs":[],"name":"obatShared","outputs":[{"internalType":"contract ObatShared","name":"","type":"address"}],"stateMutability":"view","type":"function"},{"inputs":[],"name":"obatTradisional","outputs":[{"internalType":"contract ObatTradisional","name":"","type":"address"}],"stateMutability":"view","type":"function"},{"inputs":[],"name":"roleManager","outputs":[{"internalType":"contract RoleManager","name":"","type":"address"}],"stateMutability":"view","type":"function"}],"evm":{"bytecode":{"linkReferences":{},"object":"60803460a257601f611c2c38819003918201601f19168301916001600160401b0383118484101760a75780849260609460405283398101031260a25760428160bd565b6056604060506020850160bd565b930160bd565b600180546001600160a01b039485166001600160a01b031991821617909155600080549385169382169390931790925560028054919093169116179055604051611b5b90816100d18239f35b600080fd5b634e487b7160e01b600052604160045260246000fd5b51906001600160a01b038216820360a25756fe608080604052600436101561001357600080fd5b600090813560e01c908162435da514610fc3575080631c2fc29214610ef85780633fca88cb14610ecf57806357b347bd14610cc157806360e4b3cf14610bdf578063906ce01714610ae4578063986a0790146109685780639aa34050146106ae578063cb855d5c14610342578063ce7ab1c714610182578063dd5739ae146100cd5763ea020d59146100a457600080fd5b346100ca57806003193601126100ca57546040516001600160a01b039091168152602090f35b80fd5b50346100ca5760203660031901126100ca5760043560035481101561017e5760035481101561016a57600382527fc2575a0e9e593c00f959f8c92f12db2869c3395a3b0502d05e2516446f71f85b019080610156576040516101529061013e816101378187611472565b0382611050565b6040519182916020835260208301906110fb565b0390f35b634e487b7160e01b81526004819052602490fd5b634e487b7160e01b82526032600452602482fd5b5080fd5b50346100ca57806003193601126100ca57600180546040516395a8c58d60e01b81523360048201526024810192909252602090829060449082906001600160a01b03165afa9081156102cc578291610307575b50156102d7578054604051630a1e0a4b60e41b8152908290829060049082906001600160a01b03165afa9081156102cc578291610274575b50906040519182916020830160208452825180915260408401602060408360051b870101940192905b82821061024557505050500390f35b919360019193955060206102648192603f198a82030186528851611338565b9601920192018594939192610236565b90503d8083833e6102858183611050565b8101906020818303126102c4578051906001600160401b0382116102c857019080601f830112156102c45781516102be9260200161192f565b3861020d565b8280fd5b8380fd5b6040513d84823e3d90fd5b60405162461bcd60e51b815260206004820152600860248201526727b7363c9028212360c11b6044820152606490fd5b90506020813d60201161033a575b8161032260209383611050565b8101031261017e5751801515810361017e57386101d5565b3d9150610315565b50346100ca5760e03660031901126100ca576004356001600160401b03811161017e5761037390369060040161108c565b906024356001600160401b03811161017e5761039390369060040161108c565b916044356001600160401b0381116102c4576103b390369060040161108c565b926064356001600160401b0381116102c8576103d390369060040161108c565b6084356001600160401b0381116106aa576103f290369060040161108c565b9060a4356001600160401b0381116106a65761041290369060040161108c565b9560c43560ff81168091036106a25761042961151b565b5060405161043681611035565b84815233602082015261044761151b565b506040519161045583611035565b8983528860208401526040519361046b85611019565b8885526020850197885260408501958652606085019081526080850191825260a0850192835260c0850193845260e08501958a87526040519889808c80519c60208e92019d6104ba918f6110d8565b81016005815203602001902096516104d290886117a8565b516104e090600188016117a8565b516104ee90600287016117a8565b516104fc90600386016117a8565b60048401905160ff1660ff19825416179055518051600584019061051f916117a8565b602001516006830180546001600160a01b0319166001600160a01b039290921691909117905551805161055590600784016117a8565b602001516008820180546001600160a01b0319166001600160a01b03929092169190911790559051600990910190600381101561068e5760ff80198354169116179055600354600160401b81101561067a578060016105b99201600355600361140a565b61066657610600602061066396976105de876105f18461060f986105de84809a6117a8565b81604051938285809451938492016110d8565b810160078152030190206118a8565b810160088152030190206118a8565b60026040519161061e83610fe8565b4283526020830186815261064660206040860193898552604051809381928a519283916110d8565b810160068152030190209351845551600184015551910155611a82565b80f35b634e487b7160e01b85526004859052602485fd5b634e487b7160e01b85526041600452602485fd5b634e487b7160e01b86526021600452602486fd5b8680fd5b8580fd5b8480fd5b50346100ca576106bd36611278565b9190604051906106f56106ee825193602081818601966106de81838a6110d8565b8101600581520301902054611438565b15156116cf565b61071a604051602081845161070b8183896110d8565b8101600581520301902061161d565b926009604051602081855161073081838a6110d8565b8101600581520301902001600260ff19825416179055604051600283516107588184886110d8565b82019160068352602081429403019020015561078f604051602081855161078081838a6110d8565b8101600481520301902061171f565b805b85518110156107d4576001906107ce60405160208187516107b381838c6110d8565b810160048152030190206107c7838a6115d3565b51906118a8565b01610791565b509081858560018060a01b03600254166020820180519160608401928351823b156109445761083d9261082b89809461084f60405197889687958694631d38299760e31b86526060600487015260648601906110fb565b848103600319016024860152906110fb565b8281036003190160448401528c6113b1565b03925af190811561095d578691610948575b505060018060a01b0360025416905192604081015192519060a060ff6080830151169101515194833b1561094457610916889661090488946108db9a6108ed6108c9986040519d8e9c8d9b8c9a63431f0b5d60e11b8c5260c060048d015260c48c01906110fb565b8a81036003190160248c0152906110fb565b8881036003190160448a0152906110fb565b9160648701526003198683030160848701526113b1565b8381036003190160a4850152906110fb565b03925af180156102cc5761092f575b5061066382611a82565b8161093991611050565b61017e578183610925565b8780fd5b8161095291611050565b6106aa578488610861565b6040513d88823e3d90fd5b50346100ca5760203660031901126100ca576004356001600160401b03811161017e5761099990369060040161108c565b906109a2611535565b5080604080516109b181610fe8565b828152826020820152015260405190610a25610a1560208551948181818901976109dc81838b6110d8565b8101600581520301902094604051828189516109f98183876110d8565b81016006815203019020966040519384928392519283916110d8565b810160048152030190209261161d565b9160405193610a3385610fe8565b8054855260026001820154916020870192835201549160408601928352805490610a5c82611261565b94610a6a6040519687611050565b82865290815260208082209086015b838310610abf57610a9f886101528b8a8a8a60405196879660a0885260a0880190611149565b9351602087015251604086015251606085015283820360808501526113b1565b600160208192604051610ad6816101378189611472565b815201920192019190610a79565b50346100ca57806003193601126100ca5760025460405163906ce01760e01b8152908290829060049082906001600160a01b03165afa9081156102cc578291610b8f575b50906040519182916020830160208452825180915260408401602060408360051b870101940192905b828210610b6057505050500390f35b91936001919395506020610b7f8192603f198a82030186528851611338565b9601920192018594939192610b51565b90503d8083833e610ba08183611050565b8101906020818303126102c4578051906001600160401b0382116102c857019080601f830112156102c4578151610bd99260200161192f565b38610b28565b50346100ca5760203660031901126100ca576004356001600160401b03811161017e57610c1090369060040161108c565b60405181519060208181850193610c288183876110d8565b810160078152030190205491610c3d83611583565b935b838110610c5457604051806101528782611201565b80610ca5610ca0610137610c9b610c8e600196610c7f60208b8b6040519384928392519283916110d8565b8101600781520301902061140a565b5060405192838092611472565b6114f5565b61161d565b610caf82886115d3565b52610cba81876115d3565b5001610c3f565b50346100ca57610d22610cd336611278565b9060405193610cf36106ee835196602081818701996106de81838d6110d8565b610d2960016040516020818651610d0b81838d6110d8565b810160058152030190200160405195868092611472565b0385611050565b60086040516020818551610d3e81838c6110d8565b6005908201908152030190200180546001600160a01b031916331790556040518251600991906020908290610d7481838c6110d8565b8101600581520301902001600160ff1982541617905560405160018351610d9c81848a6110d8565b820191600683526020814294030190200155610dc4604051602081855161078081838c6110d8565b805b8351811015610e0457600190610dfe60405160208180610dea8c8a519283916110d8565b810160048152030190206107c783886115d3565b01610dc6565b50918284866003610e2d602060018060a01b036002541693604051809381928b519283916110d8565b810160058152030190200191813b156102c85783610e7191610e95610e839760405198899788968795631d38299760e31b87526060600488015260648701906110fb565b85810360031901602487015290611472565b838103600319016044850152906113b1565b03925af18015610ec457610eae575b5061066390611a82565b91610ebd816106639394611050565b9190610ea4565b6040513d85823e3d90fd5b50346100ca57806003193601126100ca576002546040516001600160a01b039091168152602090f35b50346100ca5760203660031901126100ca576004356001600160401b03811161017e57610f2990369060040161108c565b60405181519060208181850193610f418183876110d8565b810160088152030190205491610f5683611583565b935b838110610f6d57604051806101528782611201565b80610fa7610ca0610137610c9b610c8e600196610f9860208b8b6040519384928392519283916110d8565b8101600881520301902061140a565b610fb182886115d3565b52610fbc81876115d3565b5001610f58565b90503461017e578160031936011261017e576001546001600160a01b03168152602090f35b606081019081106001600160401b0382111761100357604052565b634e487b7160e01b600052604160045260246000fd5b61010081019081106001600160401b0382111761100357604052565b604081019081106001600160401b0382111761100357604052565b90601f801991011681019081106001600160401b0382111761100357604052565b6001600160401b03811161100357601f01601f191660200190565b81601f820112156110d3578035906110a382611071565b926110b16040519485611050565b828452602083830101116110d357816000926020809301838601378301015290565b600080fd5b60005b8381106110eb5750506000910152565b81810151838201526020016110db565b90602091611114815180928185528580860191016110d8565b601f01601f1916010190565b90602061113683516040845260408401906110fb565b928101516001600160a01b031691015290565b9060e06111d76111c56111a6611194611182611170885161010089526101008901906110fb565b602089015188820360208a01526110fb565b604088015187820360408901526110fb565b606087015186820360608801526110fb565b60ff608087015116608086015260a086015185820360a0870152611120565b60c085015184820360c0860152611120565b9201519060038210156111eb5760e0015290565b634e487b7160e01b600052602160045260246000fd5b602081016020825282518091526040820191602060408360051b8301019401926000915b83831061123457505050505090565b9091929394602080611252600193603f198682030187528951611149565b97019301930191939290611225565b6001600160401b0381116110035760051b60200190565b9060406003198301126110d3576004356001600160401b0381116110d357826112a39160040161108c565b91602435906001600160401b0382116110d357806023830112156110d35781600401356112cf81611261565b926112dd6040519485611050565b8184526024602085019260051b820101918383116110d35760248201905b83821061130a57505050505090565b81356001600160401b0381116110d35760209161132d876024859488010161108c565b8152019101906112fb565b90611376611364611352845160c0855260c08501906110fb565b602085015184820360208601526110fb565b604084015183820360408501526110fb565b9060ff6060840151166060820152608083015160028110156111eb576113ae9360a091608084015201519060a08184039101526110fb565b90565b9080602083519182815201916020808360051b8301019401926000915b8383106113dd57505050505090565b90919293946020806113fb600193601f1986820301875289516110fb565b970193019301919392906113ce565b80548210156114225760005260206000200190600090565b634e487b7160e01b600052603260045260246000fd5b90600182811c92168015611468575b602083101461145257565b634e487b7160e01b600052602260045260246000fd5b91607f1691611447565b6000929181549161148283611438565b80835292600181169081156114d8575060011461149e57505050565b60009081526020812093945091925b8383106114be575060209250010190565b6001816020929493945483858701015201910191906114ad565b915050602093945060ff929192191683830152151560051b010190565b602061150e9181604051938285809451938492016110d8565b8101600581520301902090565b6040519061152882611035565b6000602083606081520152565b6040519061154282611019565b600060e08360608152606060208201526060604082015260608082015282608082015261156d61151b565b60a082015261157a61151b565b60c08201520152565b9061158d82611261565b61159a6040519182611050565b82815280926115ab601f1991611261565b019060005b8281106115bc57505050565b6020906115c7611535565b828285010152016115b0565b80518210156114225760209160051b010190565b906040516115f481611035565b60208193604051611609816101378185611472565b8352600101546001600160a01b0316910152565b9060405161162a81611019565b60ff60098294604051611641816101378185611472565b8452604051611657816101378160018601611472565b6020850152604051611670816101378160028601611472565b6040850152604051611689816101378160038601611472565b60608501528260048201541660808501526116a6600582016115e7565b60a08501526116b7600782016115e7565b60c08501520154169060038210156111eb5760e00152565b156116d657565b60405162461bcd60e51b815260206004820152600a602482015269125108125b9d985b1a5960b21b6044820152606490fd5b818110611713575050565b60008155600101611708565b805490600081558161172f575050565b6000526020600020908101905b818110611747575050565b8061175460019254611438565b80611761575b500161173c565b601f811183146117775750600081555b3861175a565b611795908260005283601f6020600020920160051c82019101611708565b8060005260006020812081835555611771565b91909182516001600160401b038111611003576117c58254611438565b601f811161186b575b506020601f821160011461180957819293946000926117fe575b50508160011b916000199060031b1c1916179055565b0151905038806117e8565b601f1982169083600052806000209160005b8181106118535750958360019596971061183a575b505050811b019055565b015160001960f88460031b161c19169055388080611830565b9192602060018192868b01518155019401920161181b565b61189890836000526020600020601f840160051c8101916020851061189e575b601f0160051c0190611708565b386117ce565b909150819061188b565b8054600160401b811015611003576118c59160018201815561140a565b9190916118d7576118d5916117a8565b565b634e487b7160e01b600052600060045260246000fd5b81601f820112156110d357805161190381611071565b926119116040519485611050565b818452602082840101116110d3576113ae91602080850191016110d8565b9291909261193c84611261565b9361194a6040519586611050565b602085828152019060051b8201918383116110d35780915b838310611970575050505050565b82516001600160401b0381116110d357820160009160c0828803126102c4576040519260c08401908482106001600160401b03831117611a6e575060405281516001600160401b0381116110d357876119ca9184016118ed565b835260208201516001600160401b0381116110d357876119eb9184016118ed565b602084015260408201516001600160401b0381116110d35787611a0f9184016118ed565b6040840152606082015160ff811681036110d3576060840152608082015160028110156110d357608084015260a0820151926001600160401b0384116110d357611a5e886020958695016118ed565b60a0820152815201920191611962565b634e487b7160e01b81526041600452602490fd5b611af8611ac261070b60207f51442564a7c47c90ee6057daec7dada1d5132c3a496854bbc4c003de6f7113369481604051938285809451938492016110d8565b604081015190611b1460a08201515191611b0660ff608060c084015151930151169360405196879660a0885260a08801906110fb565b9086820360208801526110fb565b9084820360408601526110fb565b9060608301524260808301520390a156fea26469706673582212206f4f23fc67e50fba6c2705d3958e55d861e346a2211477d403d8906f6c01eb8664736f6c634300081b0033","opcodes":"PUSH1 0x80 CALLVALUE PUSH1 0xA2 JUMPI PUSH1 0x1F PUSH2 0x1C2C CODESIZE DUP2 SWAP1 SUB SWAP2 DUP3 ADD PUSH1 0x1F NOT AND DUP4 ADD SWAP2 PUSH1 0x1 PUSH1 0x1 PUSH1 0x40 SHL SUB DUP4 GT DUP5 DUP5 LT OR PUSH1 0xA7 JUMPI DUP1 DUP5 SWAP3 PUSH1 0x60 SWAP5 PUSH1 0x40 MSTORE DUP4 CODECOPY DUP2 ADD SUB SLT PUSH1 0xA2 JUMPI PUSH1 0x42 DUP2 PUSH1 0xBD JUMP JUMPDEST PUSH1 0x56 PUSH1 0x40 PUSH1 0x50 PUSH1 0x20 DUP6 ADD PUSH1 0xBD JUMP JUMPDEST SWAP4 ADD PUSH1 0xBD JUMP JUMPDEST PUSH1 0x1 DUP1 SLOAD PUSH1 0x1 PUSH1 0x1 PUSH1 0xA0 SHL SUB SWAP5 DUP6 AND PUSH1 0x1 PUSH1 0x1 PUSH1 0xA0 SHL SUB NOT SWAP2 DUP3 AND OR SWAP1 SWAP2 SSTORE PUSH1 0x0 DUP1 SLOAD SWAP4 DUP6 AND SWAP4 DUP3 AND SWAP4 SWAP1 SWAP4 OR SWAP1 SWAP3 SSTORE PUSH1 0x2 DUP1 SLOAD SWAP2 SWAP1 SWAP4 AND SWAP2 AND OR SWAP1 SSTORE PUSH1 0x40 MLOAD PUSH2 0x1B5B SWAP1 DUP2 PUSH2 0xD1 DUP3 CODECOPY RETURN JUMPDEST PUSH1 0x0 DUP1 REVERT JUMPDEST PUSH4 0x4E487B71 PUSH1 0xE0 SHL PUSH1 0x0 MSTORE PUSH1 0x41 PUSH1 0x4 MSTORE PUSH1 0x24 PUSH1 0x0 REVERT JUMPDEST MLOAD SWAP1 PUSH1 0x1 PUSH1 0x1 PUSH1 0xA0 SHL SUB DUP3 AND DUP3 SUB PUSH1 0xA2 JUMPI JUMP INVALID PUSH1 0x80 DUP1 PUSH1 0x40 MSTORE PUSH1 0x4 CALLDATASIZE LT ISZERO PUSH2 0x13 JUMPI PUSH1 0x0 DUP1 REVERT JUMPDEST PUSH1 0x0 SWAP1 DUP2 CALLDATALOAD PUSH1 0xE0 SHR SWAP1 DUP2 PUSH3 0x435DA5 EQ PUSH2 0xFC3 JUMPI POP DUP1 PUSH4 0x1C2FC292 EQ PUSH2 0xEF8 JUMPI DUP1 PUSH4 0x3FCA88CB EQ PUSH2 0xECF JUMPI DUP1 PUSH4 0x57B347BD EQ PUSH2 0xCC1 JUMPI DUP1 PUSH4 0x60E4B3CF EQ PUSH2 0xBDF JUMPI DUP1 PUSH4 0x906CE017 EQ PUSH2 0xAE4 JUMPI DUP1 PUSH4 0x986A0790 EQ PUSH2 0x968 JUMPI DUP1 PUSH4 0x9AA34050 EQ PUSH2 0x6AE JUMPI DUP1 PUSH4 0xCB855D5C EQ PUSH2 0x342 JUMPI DUP1 PUSH4 0xCE7AB1C7 EQ PUSH2 0x182 JUMPI DUP1 PUSH4 0xDD5739AE EQ PUSH2 0xCD JUMPI PUSH4 0xEA020D59 EQ PUSH2 0xA4 JUMPI PUSH1 0x0 DUP1 REVERT JUMPDEST CALLVALUE PUSH2 0xCA JUMPI DUP1 PUSH1 0x3 NOT CALLDATASIZE ADD SLT PUSH2 0xCA JUMPI SLOAD PUSH1 0x40 MLOAD PUSH1 0x1 PUSH1 0x1 PUSH1 0xA0 SHL SUB SWAP1 SWAP2 AND DUP2 MSTORE PUSH1 0x20 SWAP1 RETURN JUMPDEST DUP1 REVERT JUMPDEST POP CALLVALUE PUSH2 0xCA JUMPI PUSH1 0x20 CALLDATASIZE PUSH1 0x3 NOT ADD SLT PUSH2 0xCA JUMPI PUSH1 0x4 CALLDATALOAD PUSH1 0x3 SLOAD DUP2 LT ISZERO PUSH2 0x17E JUMPI PUSH1 0x3 SLOAD DUP2 LT ISZERO PUSH2 0x16A JUMPI PUSH1 0x3 DUP3 MSTORE PUSH32 0xC2575A0E9E593C00F959F8C92F12DB2869C3395A3B0502D05E2516446F71F85B ADD SWAP1 DUP1 PUSH2 0x156 JUMPI PUSH1 0x40 MLOAD PUSH2 0x152 SWAP1 PUSH2 0x13E DUP2 PUSH2 0x137 DUP2 DUP8 PUSH2 0x1472 JUMP JUMPDEST SUB DUP3 PUSH2 0x1050 JUMP JUMPDEST PUSH1 0x40 MLOAD SWAP2 DUP3 SWAP2 PUSH1 0x20 DUP4 MSTORE PUSH1 0x20 DUP4 ADD SWAP1 PUSH2 0x10FB JUMP JUMPDEST SUB SWAP1 RETURN JUMPDEST PUSH4 0x4E487B71 PUSH1 0xE0 SHL DUP2 MSTORE PUSH1 0x4 DUP2 SWAP1 MSTORE PUSH1 0x24 SWAP1 REVERT JUMPDEST PUSH4 0x4E487B71 PUSH1 0xE0 SHL DUP3 MSTORE PUSH1 0x32 PUSH1 0x4 MSTORE PUSH1 0x24 DUP3 REVERT JUMPDEST POP DUP1 REVERT JUMPDEST POP CALLVALUE PUSH2 0xCA JUMPI DUP1 PUSH1 0x3 NOT CALLDATASIZE ADD SLT PUSH2 0xCA JUMPI PUSH1 0x1 DUP1 SLOAD PUSH1 0x40 MLOAD PUSH4 0x95A8C58D PUSH1 0xE0 SHL DUP2 MSTORE CALLER PUSH1 0x4 DUP3 ADD MSTORE PUSH1 0x24 DUP2 ADD SWAP3 SWAP1 SWAP3 MSTORE PUSH1 0x20 SWAP1 DUP3 SWAP1 PUSH1 0x44 SWAP1 DUP3 SWAP1 PUSH1 0x1 PUSH1 0x1 PUSH1 0xA0 SHL SUB AND GAS STATICCALL SWAP1 DUP2 ISZERO PUSH2 0x2CC JUMPI DUP3 SWAP2 PUSH2 0x307 JUMPI JUMPDEST POP ISZERO PUSH2 0x2D7 JUMPI DUP1 SLOAD PUSH1 0x40 MLOAD PUSH4 0xA1E0A4B PUSH1 0xE4 SHL DUP2 MSTORE SWAP1 DUP3 SWAP1 DUP3 SWAP1 PUSH1 0x4 SWAP1 DUP3 SWAP1 PUSH1 0x1 PUSH1 0x1 PUSH1 0xA0 SHL SUB AND GAS STATICCALL SWAP1 DUP2 ISZERO PUSH2 0x2CC JUMPI DUP3 SWAP2 PUSH2 0x274 JUMPI JUMPDEST POP SWAP1 PUSH1 0x40 MLOAD SWAP2 DUP3 SWAP2 PUSH1 0x20 DUP4 ADD PUSH1 0x20 DUP5 MSTORE DUP3 MLOAD DUP1 SWAP2 MSTORE PUSH1 0x40 DUP5 ADD PUSH1 0x20 PUSH1 0x40 DUP4 PUSH1 0x5 SHL DUP8 ADD ADD SWAP5 ADD SWAP3 SWAP1 JUMPDEST DUP3 DUP3 LT PUSH2 0x245 JUMPI POP POP POP POP SUB SWAP1 RETURN JUMPDEST SWAP2 SWAP4 PUSH1 0x1 SWAP2 SWAP4 SWAP6 POP PUSH1 0x20 PUSH2 0x264 DUP2 SWAP3 PUSH1 0x3F NOT DUP11 DUP3 SUB ADD DUP7 MSTORE DUP9 MLOAD PUSH2 0x1338 JUMP JUMPDEST SWAP7 ADD SWAP3 ADD SWAP3 ADD DUP6 SWAP5 SWAP4 SWAP2 SWAP3 PUSH2 0x236 JUMP JUMPDEST SWAP1 POP RETURNDATASIZE DUP1 DUP4 DUP4 RETURNDATACOPY PUSH2 0x285 DUP2 DUP4 PUSH2 0x1050 JUMP JUMPDEST DUP2 ADD SWAP1 PUSH1 0x20 DUP2 DUP4 SUB SLT PUSH2 0x2C4 JUMPI DUP1 MLOAD SWAP1 PUSH1 0x1 PUSH1 0x1 PUSH1 0x40 SHL SUB DUP3 GT PUSH2 0x2C8 JUMPI ADD SWAP1 DUP1 PUSH1 0x1F DUP4 ADD SLT ISZERO PUSH2 0x2C4 JUMPI DUP2 MLOAD PUSH2 0x2BE SWAP3 PUSH1 0x20 ADD PUSH2 0x192F JUMP JUMPDEST CODESIZE PUSH2 0x20D JUMP JUMPDEST DUP3 DUP1 REVERT JUMPDEST DUP4 DUP1 REVERT JUMPDEST PUSH1 0x40 MLOAD RETURNDATASIZE DUP5 DUP3 RETURNDATACOPY RETURNDATASIZE SWAP1 REVERT JUMPDEST PUSH1 0x40 MLOAD PUSH3 0x461BCD PUSH1 0xE5 SHL DUP2 MSTORE PUSH1 0x20 PUSH1 0x4 DUP3 ADD MSTORE PUSH1 0x8 PUSH1 0x24 DUP3 ADD MSTORE PUSH8 0x27B7363C90282123 PUSH1 0xC1 SHL PUSH1 0x44 DUP3 ADD MSTORE PUSH1 0x64 SWAP1 REVERT JUMPDEST SWAP1 POP PUSH1 0x20 DUP2 RETURNDATASIZE PUSH1 0x20 GT PUSH2 0x33A JUMPI JUMPDEST DUP2 PUSH2 0x322 PUSH1 0x20 SWAP4 DUP4 PUSH2 0x1050 JUMP JUMPDEST DUP2 ADD SUB SLT PUSH2 0x17E JUMPI MLOAD DUP1 ISZERO ISZERO DUP2 SUB PUSH2 0x17E JUMPI CODESIZE PUSH2 0x1D5 JUMP JUMPDEST RETURNDATASIZE SWAP2 POP PUSH2 0x315 JUMP JUMPDEST POP CALLVALUE PUSH2 0xCA JUMPI PUSH1 0xE0 CALLDATASIZE PUSH1 0x3 NOT ADD SLT PUSH2 0xCA JUMPI PUSH1 0x4 CALLDATALOAD PUSH1 0x1 PUSH1 0x1 PUSH1 0x40 SHL SUB DUP2 GT PUSH2 0x17E JUMPI PUSH2 0x373 SWAP1 CALLDATASIZE SWAP1 PUSH1 0x4 ADD PUSH2 0x108C JUMP JUMPDEST SWAP1 PUSH1 0x24 CALLDATALOAD PUSH1 0x1 PUSH1 0x1 PUSH1 0x40 SHL SUB DUP2 GT PUSH2 0x17E JUMPI PUSH2 0x393 SWAP1 CALLDATASIZE SWAP1 PUSH1 0x4 ADD PUSH2 0x108C JUMP JUMPDEST SWAP2 PUSH1 0x44 CALLDATALOAD PUSH1 0x1 PUSH1 0x1 PUSH1 0x40 SHL SUB DUP2 GT PUSH2 0x2C4 JUMPI PUSH2 0x3B3 SWAP1 CALLDATASIZE SWAP1 PUSH1 0x4 ADD PUSH2 0x108C JUMP JUMPDEST SWAP3 PUSH1 0x64 CALLDATALOAD PUSH1 0x1 PUSH1 0x1 PUSH1 0x40 SHL SUB DUP2 GT PUSH2 0x2C8 JUMPI PUSH2 0x3D3 SWAP1 CALLDATASIZE SWAP1 PUSH1 0x4 ADD PUSH2 0x108C JUMP JUMPDEST PUSH1 0x84 CALLDATALOAD PUSH1 0x1 PUSH1 0x1 PUSH1 0x40 SHL SUB DUP2 GT PUSH2 0x6AA JUMPI PUSH2 0x3F2 SWAP1 CALLDATASIZE SWAP1 PUSH1 0x4 ADD PUSH2 0x108C JUMP JUMPDEST SWAP1 PUSH1 0xA4 CALLDATALOAD PUSH1 0x1 PUSH1 0x1 PUSH1 0x40 SHL SUB DUP2 GT PUSH2 0x6A6 JUMPI PUSH2 0x412 SWAP1 CALLDATASIZE SWAP1 PUSH1 0x4 ADD PUSH2 0x108C JUMP JUMPDEST SWAP6 PUSH1 0xC4 CALLDATALOAD PUSH1 0xFF DUP2 AND DUP1 SWAP2 SUB PUSH2 0x6A2 JUMPI PUSH2 0x429 PUSH2 0x151B JUMP JUMPDEST POP PUSH1 0x40 MLOAD PUSH2 0x436 DUP2 PUSH2 0x1035 JUMP JUMPDEST DUP5 DUP2 MSTORE CALLER PUSH1 0x20 DUP3 ADD MSTORE PUSH2 0x447 PUSH2 0x151B JUMP JUMPDEST POP PUSH1 0x40 MLOAD SWAP2 PUSH2 0x455 DUP4 PUSH2 0x1035 JUMP JUMPDEST DUP10 DUP4 MSTORE DUP9 PUSH1 0x20 DUP5 ADD MSTORE PUSH1 0x40 MLOAD SWAP4 PUSH2 0x46B DUP6 PUSH2 0x1019 JUMP JUMPDEST DUP9 DUP6 MSTORE PUSH1 0x20 DUP6 ADD SWAP8 DUP9 MSTORE PUSH1 0x40 DUP6 ADD SWAP6 DUP7 MSTORE PUSH1 0x60 DUP6 ADD SWAP1 DUP2 MSTORE PUSH1 0x80 DUP6 ADD SWAP2 DUP3 MSTORE PUSH1 0xA0 DUP6 ADD SWAP3 DUP4 MSTORE PUSH1 0xC0 DUP6 ADD SWAP4 DUP5 MSTORE PUSH1 0xE0 DUP6 ADD SWAP6 DUP11 DUP8 MSTORE PUSH1 0x40 MLOAD SWAP9 DUP10 DUP1 DUP13 DUP1 MLOAD SWAP13 PUSH1 0x20 DUP15 SWAP3 ADD SWAP14 PUSH2 0x4BA SWAP2 DUP16 PUSH2 0x10D8 JUMP JUMPDEST DUP2 ADD PUSH1 0x5 DUP2 MSTORE SUB PUSH1 0x20 ADD SWAP1 KECCAK256 SWAP7 MLOAD PUSH2 0x4D2 SWAP1 DUP9 PUSH2 0x17A8 JUMP JUMPDEST MLOAD PUSH2 0x4E0 SWAP1 PUSH1 0x1 DUP9 ADD PUSH2 0x17A8 JUMP JUMPDEST MLOAD PUSH2 0x4EE SWAP1 PUSH1 0x2 DUP8 ADD PUSH2 0x17A8 JUMP JUMPDEST MLOAD PUSH2 0x4FC SWAP1 PUSH1 0x3 DUP7 ADD PUSH2 0x17A8 JUMP JUMPDEST PUSH1 0x4 DUP5 ADD SWAP1 MLOAD PUSH1 0xFF AND PUSH1 0xFF NOT DUP3 SLOAD AND OR SWAP1 SSTORE MLOAD DUP1 MLOAD PUSH1 0x5 DUP5 ADD SWAP1 PUSH2 0x51F SWAP2 PUSH2 0x17A8 JUMP JUMPDEST PUSH1 0x20 ADD MLOAD PUSH1 0x6 DUP4 ADD DUP1 SLOAD PUSH1 0x1 PUSH1 0x1 PUSH1 0xA0 SHL SUB NOT AND PUSH1 0x1 PUSH1 0x1 PUSH1 0xA0 SHL SUB SWAP3 SWAP1 SWAP3 AND SWAP2 SWAP1 SWAP2 OR SWAP1 SSTORE MLOAD DUP1 MLOAD PUSH2 0x555 SWAP1 PUSH1 0x7 DUP5 ADD PUSH2 0x17A8 JUMP JUMPDEST PUSH1 0x20 ADD MLOAD PUSH1 0x8 DUP3 ADD DUP1 SLOAD PUSH1 0x1 PUSH1 0x1 PUSH1 0xA0 SHL SUB NOT AND PUSH1 0x1 PUSH1 0x1 PUSH1 0xA0 SHL SUB SWAP3 SWAP1 SWAP3 AND SWAP2 SWAP1 SWAP2 OR SWAP1 SSTORE SWAP1 MLOAD PUSH1 0x9 SWAP1 SWAP2 ADD SWAP1 PUSH1 0x3 DUP2 LT ISZERO PUSH2 0x68E JUMPI PUSH1 0xFF DUP1 NOT DUP4 SLOAD AND SWAP2 AND OR SWAP1 SSTORE PUSH1 0x3 SLOAD PUSH1 0x1 PUSH1 0x40 SHL DUP2 LT ISZERO PUSH2 0x67A JUMPI DUP1 PUSH1 0x1 PUSH2 0x5B9 SWAP3 ADD PUSH1 0x3 SSTORE PUSH1 0x3 PUSH2 0x140A JUMP JUMPDEST PUSH2 0x666 JUMPI PUSH2 0x600 PUSH1 0x20 PUSH2 0x663 SWAP7 SWAP8 PUSH2 0x5DE DUP8 PUSH2 0x5F1 DUP5 PUSH2 0x60F SWAP9 PUSH2 0x5DE DUP5 DUP1 SWAP11 PUSH2 0x17A8 JUMP JUMPDEST DUP2 PUSH1 0x40 MLOAD SWAP4 DUP3 DUP6 DUP1 SWAP5 MLOAD SWAP4 DUP5 SWAP3 ADD PUSH2 0x10D8 JUMP JUMPDEST DUP2 ADD PUSH1 0x7 DUP2 MSTORE SUB ADD SWAP1 KECCAK256 PUSH2 0x18A8 JUMP JUMPDEST DUP2 ADD PUSH1 0x8 DUP2 MSTORE SUB ADD SWAP1 KECCAK256 PUSH2 0x18A8 JUMP JUMPDEST PUSH1 0x2 PUSH1 0x40 MLOAD SWAP2 PUSH2 0x61E DUP4 PUSH2 0xFE8 JUMP JUMPDEST TIMESTAMP DUP4 MSTORE PUSH1 0x20 DUP4 ADD DUP7 DUP2 MSTORE PUSH2 0x646 PUSH1 0x20 PUSH1 0x40 DUP7 ADD SWAP4 DUP10 DUP6 MSTORE PUSH1 0x40 MLOAD DUP1 SWAP4 DUP2 SWAP3 DUP11 MLOAD SWAP3 DUP4 SWAP2 PUSH2 0x10D8 JUMP JUMPDEST DUP2 ADD PUSH1 0x6 DUP2 MSTORE SUB ADD SWAP1 KECCAK256 SWAP4 MLOAD DUP5 SSTORE MLOAD PUSH1 0x1 DUP5 ADD SSTORE MLOAD SWAP2 ADD SSTORE PUSH2 0x1A82 JUMP JUMPDEST DUP1 RETURN JUMPDEST PUSH4 0x4E487B71 PUSH1 0xE0 SHL DUP6 MSTORE PUSH1 0x4 DUP6 SWAP1 MSTORE PUSH1 0x24 DUP6 REVERT JUMPDEST PUSH4 0x4E487B71 PUSH1 0xE0 SHL DUP6 MSTORE PUSH1 0x41 PUSH1 0x4 MSTORE PUSH1 0x24 DUP6 REVERT JUMPDEST PUSH4 0x4E487B71 PUSH1 0xE0 SHL DUP7 MSTORE PUSH1 0x21 PUSH1 0x4 MSTORE PUSH1 0x24 DUP7 REVERT JUMPDEST DUP7 DUP1 REVERT JUMPDEST DUP6 DUP1 REVERT JUMPDEST DUP5 DUP1 REVERT JUMPDEST POP CALLVALUE PUSH2 0xCA JUMPI PUSH2 0x6BD CALLDATASIZE PUSH2 0x1278 JUMP JUMPDEST SWAP2 SWAP1 PUSH1 0x40 MLOAD SWAP1 PUSH2 0x6F5 PUSH2 0x6EE DUP3 MLOAD SWAP4 PUSH1 0x20 DUP2 DUP2 DUP7 ADD SWAP7 PUSH2 0x6DE DUP2 DUP4 DUP11 PUSH2 0x10D8 JUMP JUMPDEST DUP2 ADD PUSH1 0x5 DUP2 MSTORE SUB ADD SWAP1 KECCAK256 SLOAD PUSH2 0x1438 JUMP JUMPDEST ISZERO ISZERO PUSH2 0x16CF JUMP JUMPDEST PUSH2 0x71A PUSH1 0x40 MLOAD PUSH1 0x20 DUP2 DUP5 MLOAD PUSH2 0x70B DUP2 DUP4 DUP10 PUSH2 0x10D8 JUMP JUMPDEST DUP2 ADD PUSH1 0x5 DUP2 MSTORE SUB ADD SWAP1 KECCAK256 PUSH2 0x161D JUMP JUMPDEST SWAP3 PUSH1 0x9 PUSH1 0x40 MLOAD PUSH1 0x20 DUP2 DUP6 MLOAD PUSH2 0x730 DUP2 DUP4 DUP11 PUSH2 0x10D8 JUMP JUMPDEST DUP2 ADD PUSH1 0x5 DUP2 MSTORE SUB ADD SWAP1 KECCAK256 ADD PUSH1 0x2 PUSH1 0xFF NOT DUP3 SLOAD AND OR SWAP1 SSTORE PUSH1 0x40 MLOAD PUSH1 0x2 DUP4 MLOAD PUSH2 0x758 DUP2 DUP5 DUP9 PUSH2 0x10D8 JUMP JUMPDEST DUP3 ADD SWAP2 PUSH1 0x6 DUP4 MSTORE PUSH1 0x20 DUP2 TIMESTAMP SWAP5 SUB ADD SWAP1 KECCAK256 ADD SSTORE PUSH2 0x78F PUSH1 0x40 MLOAD PUSH1 0x20 DUP2 DUP6 MLOAD PUSH2 0x780 DUP2 DUP4 DUP11 PUSH2 0x10D8 JUMP JUMPDEST DUP2 ADD PUSH1 0x4 DUP2 MSTORE SUB ADD SWAP1 KECCAK256 PUSH2 0x171F JUMP JUMPDEST DUP1 JUMPDEST DUP6 MLOAD DUP2 LT ISZERO PUSH2 0x7D4 JUMPI PUSH1 0x1 SWAP1 PUSH2 0x7CE PUSH1 0x40 MLOAD PUSH1 0x20 DUP2 DUP8 MLOAD PUSH2 0x7B3 DUP2 DUP4 DUP13 PUSH2 0x10D8 JUMP JUMPDEST DUP2 ADD PUSH1 0x4 DUP2 MSTORE SUB ADD SWAP1 KECCAK256 PUSH2 0x7C7 DUP4 DUP11 PUSH2 0x15D3 JUMP JUMPDEST MLOAD SWAP1 PUSH2 0x18A8 JUMP JUMPDEST ADD PUSH2 0x791 JUMP JUMPDEST POP SWAP1 DUP2 DUP6 DUP6 PUSH1 0x1 DUP1 PUSH1 0xA0 SHL SUB PUSH1 0x2 SLOAD AND PUSH1 0x20 DUP3 ADD DUP1 MLOAD SWAP2 PUSH1 0x60 DUP5 ADD SWAP3 DUP4 MLOAD DUP3 EXTCODESIZE ISZERO PUSH2 0x944 JUMPI PUSH2 0x83D SWAP3 PUSH2 0x82B DUP10 DUP1 SWAP5 PUSH2 0x84F PUSH1 0x40 MLOAD SWAP8 DUP9 SWAP7 DUP8 SWAP6 DUP7 SWAP5 PUSH4 0x1D382997 PUSH1 0xE3 SHL DUP7 MSTORE PUSH1 0x60 PUSH1 0x4 DUP8 ADD MSTORE PUSH1 0x64 DUP7 ADD SWAP1 PUSH2 0x10FB JUMP JUMPDEST DUP5 DUP2 SUB PUSH1 0x3 NOT ADD PUSH1 0x24 DUP7 ADD MSTORE SWAP1 PUSH2 0x10FB JUMP JUMPDEST DUP3 DUP2 SUB PUSH1 0x3 NOT ADD PUSH1 0x44 DUP5 ADD MSTORE DUP13 PUSH2 0x13B1 JUMP JUMPDEST SUB SWAP3 GAS CALL SWAP1 DUP2 ISZERO PUSH2 0x95D JUMPI DUP7 SWAP2 PUSH2 0x948 JUMPI JUMPDEST POP POP PUSH1 0x1 DUP1 PUSH1 0xA0 SHL SUB PUSH1 0x2 SLOAD AND SWAP1 MLOAD SWAP3 PUSH1 0x40 DUP2 ADD MLOAD SWAP3 MLOAD SWAP1 PUSH1 0xA0 PUSH1 0xFF PUSH1 0x80 DUP4 ADD MLOAD AND SWAP2 ADD MLOAD MLOAD SWAP5 DUP4 EXTCODESIZE ISZERO PUSH2 0x944 JUMPI PUSH2 0x916 DUP9 SWAP7 PUSH2 0x904 DUP9 SWAP5 PUSH2 0x8DB SWAP11 PUSH2 0x8ED PUSH2 0x8C9 SWAP9 PUSH1 0x40 MLOAD SWAP14 DUP15 SWAP13 DUP14 SWAP12 DUP13 SWAP11 PUSH4 0x431F0B5D PUSH1 0xE1 SHL DUP13 MSTORE PUSH1 0xC0 PUSH1 0x4 DUP14 ADD MSTORE PUSH1 0xC4 DUP13 ADD SWAP1 PUSH2 0x10FB JUMP JUMPDEST DUP11 DUP2 SUB PUSH1 0x3 NOT ADD PUSH1 0x24 DUP13 ADD MSTORE SWAP1 PUSH2 0x10FB JUMP JUMPDEST DUP9 DUP2 SUB PUSH1 0x3 NOT ADD PUSH1 0x44 DUP11 ADD MSTORE SWAP1 PUSH2 0x10FB JUMP JUMPDEST SWAP2 PUSH1 0x64 DUP8 ADD MSTORE PUSH1 0x3 NOT DUP7 DUP4 SUB ADD PUSH1 0x84 DUP8 ADD MSTORE PUSH2 0x13B1 JUMP JUMPDEST DUP4 DUP2 SUB PUSH1 0x3 NOT ADD PUSH1 0xA4 DUP6 ADD MSTORE SWAP1 PUSH2 0x10FB JUMP JUMPDEST SUB SWAP3 GAS CALL DUP1 ISZERO PUSH2 0x2CC JUMPI PUSH2 0x92F JUMPI JUMPDEST POP PUSH2 0x663 DUP3 PUSH2 0x1A82 JUMP JUMPDEST DUP2 PUSH2 0x939 SWAP2 PUSH2 0x1050 JUMP JUMPDEST PUSH2 0x17E JUMPI DUP2 DUP4 PUSH2 0x925 JUMP JUMPDEST DUP8 DUP1 REVERT JUMPDEST DUP2 PUSH2 0x952 SWAP2 PUSH2 0x1050 JUMP JUMPDEST PUSH2 0x6AA JUMPI DUP5 DUP9 PUSH2 0x861 JUMP JUMPDEST PUSH1 0x40 MLOAD RETURNDATASIZE DUP9 DUP3 RETURNDATACOPY RETURNDATASIZE SWAP1 REVERT JUMPDEST POP CALLVALUE PUSH2 0xCA JUMPI PUSH1 0x20 CALLDATASIZE PUSH1 0x3 NOT ADD SLT PUSH2 0xCA JUMPI PUSH1 0x4 CALLDATALOAD PUSH1 0x1 PUSH1 0x1 PUSH1 0x40 SHL SUB DUP2 GT PUSH2 0x17E JUMPI PUSH2 0x999 SWAP1 CALLDATASIZE SWAP1 PUSH1 0x4 ADD PUSH2 0x108C JUMP JUMPDEST SWAP1 PUSH2 0x9A2 PUSH2 0x1535 JUMP JUMPDEST POP DUP1 PUSH1 0x40 DUP1 MLOAD PUSH2 0x9B1 DUP2 PUSH2 0xFE8 JUMP JUMPDEST DUP3 DUP2 MSTORE DUP3 PUSH1 0x20 DUP3 ADD MSTORE ADD MSTORE PUSH1 0x40 MLOAD SWAP1 PUSH2 0xA25 PUSH2 0xA15 PUSH1 0x20 DUP6 MLOAD SWAP5 DUP2 DUP2 DUP2 DUP10 ADD SWAP8 PUSH2 0x9DC DUP2 DUP4 DUP12 PUSH2 0x10D8 JUMP JUMPDEST DUP2 ADD PUSH1 0x5 DUP2 MSTORE SUB ADD SWAP1 KECCAK256 SWAP5 PUSH1 0x40 MLOAD DUP3 DUP2 DUP10 MLOAD PUSH2 0x9F9 DUP2 DUP4 DUP8 PUSH2 0x10D8 JUMP JUMPDEST DUP2 ADD PUSH1 0x6 DUP2 MSTORE SUB ADD SWAP1 KECCAK256 SWAP7 PUSH1 0x40 MLOAD SWAP4 DUP5 SWAP3 DUP4 SWAP3 MLOAD SWAP3 DUP4 SWAP2 PUSH2 0x10D8 JUMP JUMPDEST DUP2 ADD PUSH1 0x4 DUP2 MSTORE SUB ADD SWAP1 KECCAK256 SWAP3 PUSH2 0x161D JUMP JUMPDEST SWAP2 PUSH1 0x40 MLOAD SWAP4 PUSH2 0xA33 DUP6 PUSH2 0xFE8 JUMP JUMPDEST DUP1 SLOAD DUP6 MSTORE PUSH1 0x2 PUSH1 0x1 DUP3 ADD SLOAD SWAP2 PUSH1 0x20 DUP8 ADD SWAP3 DUP4 MSTORE ADD SLOAD SWAP2 PUSH1 0x40 DUP7 ADD SWAP3 DUP4 MSTORE DUP1 SLOAD SWAP1 PUSH2 0xA5C DUP3 PUSH2 0x1261 JUMP JUMPDEST SWAP5 PUSH2 0xA6A PUSH1 0x40 MLOAD SWAP7 DUP8 PUSH2 0x1050 JUMP JUMPDEST DUP3 DUP7 MSTORE SWAP1 DUP2 MSTORE PUSH1 0x20 DUP1 DUP3 KECCAK256 SWAP1 DUP7 ADD JUMPDEST DUP4 DUP4 LT PUSH2 0xABF JUMPI PUSH2 0xA9F DUP9 PUSH2 0x152 DUP12 DUP11 DUP11 DUP11 PUSH1 0x40 MLOAD SWAP7 DUP8 SWAP7 PUSH1 0xA0 DUP9 MSTORE PUSH1 0xA0 DUP9 ADD SWAP1 PUSH2 0x1149 JUMP JUMPDEST SWAP4 MLOAD PUSH1 0x20 DUP8 ADD MSTORE MLOAD PUSH1 0x40 DUP7 ADD MSTORE MLOAD PUSH1 0x60 DUP6 ADD MSTORE DUP4 DUP3 SUB PUSH1 0x80 DUP6 ADD MSTORE PUSH2 0x13B1 JUMP JUMPDEST PUSH1 0x1 PUSH1 0x20 DUP2 SWAP3 PUSH1 0x40 MLOAD PUSH2 0xAD6 DUP2 PUSH2 0x137 DUP2 DUP10 PUSH2 0x1472 JUMP JUMPDEST DUP2 MSTORE ADD SWAP3 ADD SWAP3 ADD SWAP2 SWAP1 PUSH2 0xA79 JUMP JUMPDEST POP CALLVALUE PUSH2 0xCA JUMPI DUP1 PUSH1 0x3 NOT CALLDATASIZE ADD SLT PUSH2 0xCA JUMPI PUSH1 0x2 SLOAD PUSH1 0x40 MLOAD PUSH4 0x906CE017 PUSH1 0xE0 SHL DUP2 MSTORE SWAP1 DUP3 SWAP1 DUP3 SWAP1 PUSH1 0x4 SWAP1 DUP3 SWAP1 PUSH1 0x1 PUSH1 0x1 PUSH1 0xA0 SHL SUB AND GAS STATICCALL SWAP1 DUP2 ISZERO PUSH2 0x2CC JUMPI DUP3 SWAP2 PUSH2 0xB8F JUMPI JUMPDEST POP SWAP1 PUSH1 0x40 MLOAD SWAP2 DUP3 SWAP2 PUSH1 0x20 DUP4 ADD PUSH1 0x20 DUP5 MSTORE DUP3 MLOAD DUP1 SWAP2 MSTORE PUSH1 0x40 DUP5 ADD PUSH1 0x20 PUSH1 0x40 DUP4 PUSH1 0x5 SHL DUP8 ADD ADD SWAP5 ADD SWAP3 SWAP1 JUMPDEST DUP3 DUP3 LT PUSH2 0xB60 JUMPI POP POP POP POP SUB SWAP1 RETURN JUMPDEST SWAP2 SWAP4 PUSH1 0x1 SWAP2 SWAP4 SWAP6 POP PUSH1 0x20 PUSH2 0xB7F DUP2 SWAP3 PUSH1 0x3F NOT DUP11 DUP3 SUB ADD DUP7 MSTORE DUP9 MLOAD PUSH2 0x1338 JUMP JUMPDEST SWAP7 ADD SWAP3 ADD SWAP3 ADD DUP6 SWAP5 SWAP4 SWAP2 SWAP3 PUSH2 0xB51 JUMP JUMPDEST SWAP1 POP RETURNDATASIZE DUP1 DUP4 DUP4 RETURNDATACOPY PUSH2 0xBA0 DUP2 DUP4 PUSH2 0x1050 JUMP JUMPDEST DUP2 ADD SWAP1 PUSH1 0x20 DUP2 DUP4 SUB SLT PUSH2 0x2C4 JUMPI DUP1 MLOAD SWAP1 PUSH1 0x1 PUSH1 0x1 PUSH1 0x40 SHL SUB DUP3 GT PUSH2 0x2C8 JUMPI ADD SWAP1 DUP1 PUSH1 0x1F DUP4 ADD SLT ISZERO PUSH2 0x2C4 JUMPI DUP2 MLOAD PUSH2 0xBD9 SWAP3 PUSH1 0x20 ADD PUSH2 0x192F JUMP JUMPDEST CODESIZE PUSH2 0xB28 JUMP JUMPDEST POP CALLVALUE PUSH2 0xCA JUMPI PUSH1 0x20 CALLDATASIZE PUSH1 0x3 NOT ADD SLT PUSH2 0xCA JUMPI PUSH1 0x4 CALLDATALOAD PUSH1 0x1 PUSH1 0x1 PUSH1 0x40 SHL SUB DUP2 GT PUSH2 0x17E JUMPI PUSH2 0xC10 SWAP1 CALLDATASIZE SWAP1 PUSH1 0x4 ADD PUSH2 0x108C JUMP JUMPDEST PUSH1 0x40 MLOAD DUP2 MLOAD SWAP1 PUSH1 0x20 DUP2 DUP2 DUP6 ADD SWAP4 PUSH2 0xC28 DUP2 DUP4 DUP8 PUSH2 0x10D8 JUMP JUMPDEST DUP2 ADD PUSH1 0x7 DUP2 MSTORE SUB ADD SWAP1 KECCAK256 SLOAD SWAP2 PUSH2 0xC3D DUP4 PUSH2 0x1583 JUMP JUMPDEST SWAP4 JUMPDEST DUP4 DUP2 LT PUSH2 0xC54 JUMPI PUSH1 0x40 MLOAD DUP1 PUSH2 0x152 DUP8 DUP3 PUSH2 0x1201 JUMP JUMPDEST DUP1 PUSH2 0xCA5 PUSH2 0xCA0 PUSH2 0x137 PUSH2 0xC9B PUSH2 0xC8E PUSH1 0x1 SWAP7 PUSH2 0xC7F PUSH1 0x20 DUP12 DUP12 PUSH1 0x40 MLOAD SWAP4 DUP5 SWAP3 DUP4 SWAP3 MLOAD SWAP3 DUP4 SWAP2 PUSH2 0x10D8 JUMP JUMPDEST DUP2 ADD PUSH1 0x7 DUP2 MSTORE SUB ADD SWAP1 KECCAK256 PUSH2 0x140A JUMP JUMPDEST POP PUSH1 0x40 MLOAD SWAP3 DUP4 DUP1 SWAP3 PUSH2 0x1472 JUMP JUMPDEST PUSH2 0x14F5 JUMP JUMPDEST PUSH2 0x161D JUMP JUMPDEST PUSH2 0xCAF DUP3 DUP9 PUSH2 0x15D3 JUMP JUMPDEST MSTORE PUSH2 0xCBA DUP2 DUP8 PUSH2 0x15D3 JUMP JUMPDEST POP ADD PUSH2 0xC3F JUMP JUMPDEST POP CALLVALUE PUSH2 0xCA JUMPI PUSH2 0xD22 PUSH2 0xCD3 CALLDATASIZE PUSH2 0x1278 JUMP JUMPDEST SWAP1 PUSH1 0x40 MLOAD SWAP4 PUSH2 0xCF3 PUSH2 0x6EE DUP4 MLOAD SWAP7 PUSH1 0x20 DUP2 DUP2 DUP8 ADD SWAP10 PUSH2 0x6DE DUP2 DUP4 DUP14 PUSH2 0x10D8 JUMP JUMPDEST PUSH2 0xD29 PUSH1 0x1 PUSH1 0x40 MLOAD PUSH1 0x20 DUP2 DUP7 MLOAD PUSH2 0xD0B DUP2 DUP4 DUP14 PUSH2 0x10D8 JUMP JUMPDEST DUP2 ADD PUSH1 0x5 DUP2 MSTORE SUB ADD SWAP1 KECCAK256 ADD PUSH1 0x40 MLOAD SWAP6 DUP7 DUP1 SWAP3 PUSH2 0x1472 JUMP JUMPDEST SUB DUP6 PUSH2 0x1050 JUMP JUMPDEST PUSH1 0x8 PUSH1 0x40 MLOAD PUSH1 0x20 DUP2 DUP6 MLOAD PUSH2 0xD3E DUP2 DUP4 DUP13 PUSH2 0x10D8 JUMP JUMPDEST PUSH1 0x5 SWAP1 DUP3 ADD SWAP1 DUP2 MSTORE SUB ADD SWAP1 KECCAK256 ADD DUP1 SLOAD PUSH1 0x1 PUSH1 0x1 PUSH1 0xA0 SHL SUB NOT AND CALLER OR SWAP1 SSTORE PUSH1 0x40 MLOAD DUP3 MLOAD PUSH1 0x9 SWAP2 SWAP1 PUSH1 0x20 SWAP1 DUP3 SWAP1 PUSH2 0xD74 DUP2 DUP4 DUP13 PUSH2 0x10D8 JUMP JUMPDEST DUP2 ADD PUSH1 0x5 DUP2 MSTORE SUB ADD SWAP1 KECCAK256 ADD PUSH1 0x1 PUSH1 0xFF NOT DUP3 SLOAD AND OR SWAP1 SSTORE PUSH1 0x40 MLOAD PUSH1 0x1 DUP4 MLOAD PUSH2 0xD9C DUP2 DUP5 DUP11 PUSH2 0x10D8 JUMP JUMPDEST DUP3 ADD SWAP2 PUSH1 0x6 DUP4 MSTORE PUSH1 0x20 DUP2 TIMESTAMP SWAP5 SUB ADD SWAP1 KECCAK256 ADD SSTORE PUSH2 0xDC4 PUSH1 0x40 MLOAD PUSH1 0x20 DUP2 DUP6 MLOAD PUSH2 0x780 DUP2 DUP4 DUP13 PUSH2 0x10D8 JUMP JUMPDEST DUP1 JUMPDEST DUP4 MLOAD DUP2 LT ISZERO PUSH2 0xE04 JUMPI PUSH1 0x1 SWAP1 PUSH2 0xDFE PUSH1 0x40 MLOAD PUSH1 0x20 DUP2 DUP1 PUSH2 0xDEA DUP13 DUP11 MLOAD SWAP3 DUP4 SWAP2 PUSH2 0x10D8 JUMP JUMPDEST DUP2 ADD PUSH1 0x4 DUP2 MSTORE SUB ADD SWAP1 KECCAK256 PUSH2 0x7C7 DUP4 DUP9 PUSH2 0x15D3 JUMP JUMPDEST ADD PUSH2 0xDC6 JUMP JUMPDEST POP SWAP2 DUP3 DUP5 DUP7 PUSH1 0x3 PUSH2 0xE2D PUSH1 0x20 PUSH1 0x1 DUP1 PUSH1 0xA0 SHL SUB PUSH1 0x2 SLOAD AND SWAP4 PUSH1 0x40 MLOAD DUP1 SWAP4 DUP2 SWAP3 DUP12 MLOAD SWAP3 DUP4 SWAP2 PUSH2 0x10D8 JUMP JUMPDEST DUP2 ADD PUSH1 0x5 DUP2 MSTORE SUB ADD SWAP1 KECCAK256 ADD SWAP2 DUP2 EXTCODESIZE ISZERO PUSH2 0x2C8 JUMPI DUP4 PUSH2 0xE71 SWAP2 PUSH2 0xE95 PUSH2 0xE83 SWAP8 PUSH1 0x40 MLOAD SWAP9 DUP10 SWAP8 DUP9 SWAP7 DUP8 SWAP6 PUSH4 0x1D382997 PUSH1 0xE3 SHL DUP8 MSTORE PUSH1 0x60 PUSH1 0x4 DUP9 ADD MSTORE PUSH1 0x64 DUP8 ADD SWAP1 PUSH2 0x10FB JUMP JUMPDEST DUP6 DUP2 SUB PUSH1 0x3 NOT ADD PUSH1 0x24 DUP8 ADD MSTORE SWAP1 PUSH2 0x1472 JUMP JUMPDEST DUP4 DUP2 SUB PUSH1 0x3 NOT ADD PUSH1 0x44 DUP6 ADD MSTORE SWAP1 PUSH2 0x13B1 JUMP JUMPDEST SUB SWAP3 GAS CALL DUP1 ISZERO PUSH2 0xEC4 JUMPI PUSH2 0xEAE JUMPI JUMPDEST POP PUSH2 0x663 SWAP1 PUSH2 0x1A82 JUMP JUMPDEST SWAP2 PUSH2 0xEBD DUP2 PUSH2 0x663 SWAP4 SWAP5 PUSH2 0x1050 JUMP JUMPDEST SWAP2 SWAP1 PUSH2 0xEA4 JUMP JUMPDEST PUSH1 0x40 MLOAD RETURNDATASIZE DUP6 DUP3 RETURNDATACOPY RETURNDATASIZE SWAP1 REVERT JUMPDEST POP CALLVALUE PUSH2 0xCA JUMPI DUP1 PUSH1 0x3 NOT CALLDATASIZE ADD SLT PUSH2 0xCA JUMPI PUSH1 0x2 SLOAD PUSH1 0x40 MLOAD PUSH1 0x1 PUSH1 0x1 PUSH1 0xA0 SHL SUB SWAP1 SWAP2 AND DUP2 MSTORE PUSH1 0x20 SWAP1 RETURN JUMPDEST POP CALLVALUE PUSH2 0xCA JUMPI PUSH1 0x20 CALLDATASIZE PUSH1 0x3 NOT ADD SLT PUSH2 0xCA JUMPI PUSH1 0x4 CALLDATALOAD PUSH1 0x1 PUSH1 0x1 PUSH1 0x40 SHL SUB DUP2 GT PUSH2 0x17E JUMPI PUSH2 0xF29 SWAP1 CALLDATASIZE SWAP1 PUSH1 0x4 ADD PUSH2 0x108C JUMP JUMPDEST PUSH1 0x40 MLOAD DUP2 MLOAD SWAP1 PUSH1 0x20 DUP2 DUP2 DUP6 ADD SWAP4 PUSH2 0xF41 DUP2 DUP4 DUP8 PUSH2 0x10D8 JUMP JUMPDEST DUP2 ADD PUSH1 0x8 DUP2 MSTORE SUB ADD SWAP1 KECCAK256 SLOAD SWAP2 PUSH2 0xF56 DUP4 PUSH2 0x1583 JUMP JUMPDEST SWAP4 JUMPDEST DUP4 DUP2 LT PUSH2 0xF6D JUMPI PUSH1 0x40 MLOAD DUP1 PUSH2 0x152 DUP8 DUP3 PUSH2 0x1201 JUMP JUMPDEST DUP1 PUSH2 0xFA7 PUSH2 0xCA0 PUSH2 0x137 PUSH2 0xC9B PUSH2 0xC8E PUSH1 0x1 SWAP7 PUSH2 0xF98 PUSH1 0x20 DUP12 DUP12 PUSH1 0x40 MLOAD SWAP4 DUP5 SWAP3 DUP4 SWAP3 MLOAD SWAP3 DUP4 SWAP2 PUSH2 0x10D8 JUMP JUMPDEST DUP2 ADD PUSH1 0x8 DUP2 MSTORE SUB ADD SWAP1 KECCAK256 PUSH2 0x140A JUMP JUMPDEST PUSH2 0xFB1 DUP3 DUP9 PUSH2 0x15D3 JUMP JUMPDEST MSTORE PUSH2 0xFBC DUP2 DUP8 PUSH2 0x15D3 JUMP JUMPDEST POP ADD PUSH2 0xF58 JUMP JUMPDEST SWAP1 POP CALLVALUE PUSH2 0x17E JUMPI DUP2 PUSH1 0x3 NOT CALLDATASIZE ADD SLT PUSH2 0x17E JUMPI PUSH1 0x1 SLOAD PUSH1 0x1 PUSH1 0x1 PUSH1 0xA0 SHL SUB AND DUP2 MSTORE PUSH1 0x20 SWAP1 RETURN JUMPDEST PUSH1 0x60 DUP2 ADD SWAP1 DUP2 LT PUSH1 0x1 PUSH1 0x1 PUSH1 0x40 SHL SUB DUP3 GT OR PUSH2 0x1003 JUMPI PUSH1 0x40 MSTORE JUMP JUMPDEST PUSH4 0x4E487B71 PUSH1 0xE0 SHL PUSH1 0x0 MSTORE PUSH1 0x41 PUSH1 0x4 MSTORE PUSH1 0x24 PUSH1 0x0 REVERT JUMPDEST PUSH2 0x100 DUP2 ADD SWAP1 DUP2 LT PUSH1 0x1 PUSH1 0x1 PUSH1 0x40 SHL SUB DUP3 GT OR PUSH2 0x1003 JUMPI PUSH1 0x40 MSTORE JUMP JUMPDEST PUSH1 0x40 DUP2 ADD SWAP1 DUP2 LT PUSH1 0x1 PUSH1 0x1 PUSH1 0x40 SHL SUB DUP3 GT OR PUSH2 0x1003 JUMPI PUSH1 0x40 MSTORE JUMP JUMPDEST SWAP1 PUSH1 0x1F DUP1 NOT SWAP2 ADD AND DUP2 ADD SWAP1 DUP2 LT PUSH1 0x1 PUSH1 0x1 PUSH1 0x40 SHL SUB DUP3 GT OR PUSH2 0x1003 JUMPI PUSH1 0x40 MSTORE JUMP JUMPDEST PUSH1 0x1 PUSH1 0x1 PUSH1 0x40 SHL SUB DUP2 GT PUSH2 0x1003 JUMPI PUSH1 0x1F ADD PUSH1 0x1F NOT AND PUSH1 0x20 ADD SWAP1 JUMP JUMPDEST DUP2 PUSH1 0x1F DUP3 ADD SLT ISZERO PUSH2 0x10D3 JUMPI DUP1 CALLDATALOAD SWAP1 PUSH2 0x10A3 DUP3 PUSH2 0x1071 JUMP JUMPDEST SWAP3 PUSH2 0x10B1 PUSH1 0x40 MLOAD SWAP5 DUP6 PUSH2 0x1050 JUMP JUMPDEST DUP3 DUP5 MSTORE PUSH1 0x20 DUP4 DUP4 ADD ADD GT PUSH2 0x10D3 JUMPI DUP2 PUSH1 0x0 SWAP3 PUSH1 0x20 DUP1 SWAP4 ADD DUP4 DUP7 ADD CALLDATACOPY DUP4 ADD ADD MSTORE SWAP1 JUMP JUMPDEST PUSH1 0x0 DUP1 REVERT JUMPDEST PUSH1 0x0 JUMPDEST DUP4 DUP2 LT PUSH2 0x10EB JUMPI POP POP PUSH1 0x0 SWAP2 ADD MSTORE JUMP JUMPDEST DUP2 DUP2 ADD MLOAD DUP4 DUP3 ADD MSTORE PUSH1 0x20 ADD PUSH2 0x10DB JUMP JUMPDEST SWAP1 PUSH1 0x20 SWAP2 PUSH2 0x1114 DUP2 MLOAD DUP1 SWAP3 DUP2 DUP6 MSTORE DUP6 DUP1 DUP7 ADD SWAP2 ADD PUSH2 0x10D8 JUMP JUMPDEST PUSH1 0x1F ADD PUSH1 0x1F NOT AND ADD ADD SWAP1 JUMP JUMPDEST SWAP1 PUSH1 0x20 PUSH2 0x1136 DUP4 MLOAD PUSH1 0x40 DUP5 MSTORE PUSH1 0x40 DUP5 ADD SWAP1 PUSH2 0x10FB JUMP JUMPDEST SWAP3 DUP2 ADD MLOAD PUSH1 0x1 PUSH1 0x1 PUSH1 0xA0 SHL SUB AND SWAP2 ADD MSTORE SWAP1 JUMP JUMPDEST SWAP1 PUSH1 0xE0 PUSH2 0x11D7 PUSH2 0x11C5 PUSH2 0x11A6 PUSH2 0x1194 PUSH2 0x1182 PUSH2 0x1170 DUP9 MLOAD PUSH2 0x100 DUP10 MSTORE PUSH2 0x100 DUP10 ADD SWAP1 PUSH2 0x10FB JUMP JUMPDEST PUSH1 0x20 DUP10 ADD MLOAD DUP9 DUP3 SUB PUSH1 0x20 DUP11 ADD MSTORE PUSH2 0x10FB JUMP JUMPDEST PUSH1 0x40 DUP9 ADD MLOAD DUP8 DUP3 SUB PUSH1 0x40 DUP10 ADD MSTORE PUSH2 0x10FB JUMP JUMPDEST PUSH1 0x60 DUP8 ADD MLOAD DUP7 DUP3 SUB PUSH1 0x60 DUP9 ADD MSTORE PUSH2 0x10FB JUMP JUMPDEST PUSH1 0xFF PUSH1 0x80 DUP8 ADD MLOAD AND PUSH1 0x80 DUP7 ADD MSTORE PUSH1 0xA0 DUP7 ADD MLOAD DUP6 DUP3 SUB PUSH1 0xA0 DUP8 ADD MSTORE PUSH2 0x1120 JUMP JUMPDEST PUSH1 0xC0 DUP6 ADD MLOAD DUP5 DUP3 SUB PUSH1 0xC0 DUP7 ADD MSTORE PUSH2 0x1120 JUMP JUMPDEST SWAP3 ADD MLOAD SWAP1 PUSH1 0x3 DUP3 LT ISZERO PUSH2 0x11EB JUMPI PUSH1 0xE0 ADD MSTORE SWAP1 JUMP JUMPDEST PUSH4 0x4E487B71 PUSH1 0xE0 SHL PUSH1 0x0 MSTORE PUSH1 0x21 PUSH1 0x4 MSTORE PUSH1 0x24 PUSH1 0x0 REVERT JUMPDEST PUSH1 0x20 DUP2 ADD PUSH1 0x20 DUP3 MSTORE DUP3 MLOAD DUP1 SWAP2 MSTORE PUSH1 0x40 DUP3 ADD SWAP2 PUSH1 0x20 PUSH1 0x40 DUP4 PUSH1 0x5 SHL DUP4 ADD ADD SWAP5 ADD SWAP3 PUSH1 0x0 SWAP2 JUMPDEST DUP4 DUP4 LT PUSH2 0x1234 JUMPI POP POP POP POP POP SWAP1 JUMP JUMPDEST SWAP1 SWAP2 SWAP3 SWAP4 SWAP5 PUSH1 0x20 DUP1 PUSH2 0x1252 PUSH1 0x1 SWAP4 PUSH1 0x3F NOT DUP7 DUP3 SUB ADD DUP8 MSTORE DUP10 MLOAD PUSH2 0x1149 JUMP JUMPDEST SWAP8 ADD SWAP4 ADD SWAP4 ADD SWAP2 SWAP4 SWAP3 SWAP1 PUSH2 0x1225 JUMP JUMPDEST PUSH1 0x1 PUSH1 0x1 PUSH1 0x40 SHL SUB DUP2 GT PUSH2 0x1003 JUMPI PUSH1 0x5 SHL PUSH1 0x20 ADD SWAP1 JUMP JUMPDEST SWAP1 PUSH1 0x40 PUSH1 0x3 NOT DUP4 ADD SLT PUSH2 0x10D3 JUMPI PUSH1 0x4 CALLDATALOAD PUSH1 0x1 PUSH1 0x1 PUSH1 0x40 SHL SUB DUP2 GT PUSH2 0x10D3 JUMPI DUP3 PUSH2 0x12A3 SWAP2 PUSH1 0x4 ADD PUSH2 0x108C JUMP JUMPDEST SWAP2 PUSH1 0x24 CALLDATALOAD SWAP1 PUSH1 0x1 PUSH1 0x1 PUSH1 0x40 SHL SUB DUP3 GT PUSH2 0x10D3 JUMPI DUP1 PUSH1 0x23 DUP4 ADD SLT ISZERO PUSH2 0x10D3 JUMPI DUP2 PUSH1 0x4 ADD CALLDATALOAD PUSH2 0x12CF DUP2 PUSH2 0x1261 JUMP JUMPDEST SWAP3 PUSH2 0x12DD PUSH1 0x40 MLOAD SWAP5 DUP6 PUSH2 0x1050 JUMP JUMPDEST DUP2 DUP5 MSTORE PUSH1 0x24 PUSH1 0x20 DUP6 ADD SWAP3 PUSH1 0x5 SHL DUP3 ADD ADD SWAP2 DUP4 DUP4 GT PUSH2 0x10D3 JUMPI PUSH1 0x24 DUP3 ADD SWAP1 JUMPDEST DUP4 DUP3 LT PUSH2 0x130A JUMPI POP POP POP POP POP SWAP1 JUMP JUMPDEST DUP2 CALLDATALOAD PUSH1 0x1 PUSH1 0x1 PUSH1 0x40 SHL SUB DUP2 GT PUSH2 0x10D3 JUMPI PUSH1 0x20 SWAP2 PUSH2 0x132D DUP8 PUSH1 0x24 DUP6 SWAP5 DUP9 ADD ADD PUSH2 0x108C JUMP JUMPDEST DUP2 MSTORE ADD SWAP2 ADD SWAP1 PUSH2 0x12FB JUMP JUMPDEST SWAP1 PUSH2 0x1376 PUSH2 0x1364 PUSH2 0x1352 DUP5 MLOAD PUSH1 0xC0 DUP6 MSTORE PUSH1 0xC0 DUP6 ADD SWAP1 PUSH2 0x10FB JUMP JUMPDEST PUSH1 0x20 DUP6 ADD MLOAD DUP5 DUP3 SUB PUSH1 0x20 DUP7 ADD MSTORE PUSH2 0x10FB JUMP JUMPDEST PUSH1 0x40 DUP5 ADD MLOAD DUP4 DUP3 SUB PUSH1 0x40 DUP6 ADD MSTORE PUSH2 0x10FB JUMP JUMPDEST SWAP1 PUSH1 0xFF PUSH1 0x60 DUP5 ADD MLOAD AND PUSH1 0x60 DUP3 ADD MSTORE PUSH1 0x80 DUP4 ADD MLOAD PUSH1 0x2 DUP2 LT ISZERO PUSH2 0x11EB JUMPI PUSH2 0x13AE SWAP4 PUSH1 0xA0 SWAP2 PUSH1 0x80 DUP5 ADD MSTORE ADD MLOAD SWAP1 PUSH1 0xA0 DUP2 DUP5 SUB SWAP2 ADD MSTORE PUSH2 0x10FB JUMP JUMPDEST SWAP1 JUMP JUMPDEST SWAP1 DUP1 PUSH1 0x20 DUP4 MLOAD SWAP2 DUP3 DUP2 MSTORE ADD SWAP2 PUSH1 0x20 DUP1 DUP4 PUSH1 0x5 SHL DUP4 ADD ADD SWAP5 ADD SWAP3 PUSH1 0x0 SWAP2 JUMPDEST DUP4 DUP4 LT PUSH2 0x13DD JUMPI POP POP POP POP POP SWAP1 JUMP JUMPDEST SWAP1 SWAP2 SWAP3 SWAP4 SWAP5 PUSH1 0x20 DUP1 PUSH2 0x13FB PUSH1 0x1 SWAP4 PUSH1 0x1F NOT DUP7 DUP3 SUB ADD DUP8 MSTORE DUP10 MLOAD PUSH2 0x10FB JUMP JUMPDEST SWAP8 ADD SWAP4 ADD SWAP4 ADD SWAP2 SWAP4 SWAP3 SWAP1 PUSH2 0x13CE JUMP JUMPDEST DUP1 SLOAD DUP3 LT ISZERO PUSH2 0x1422 JUMPI PUSH1 0x0 MSTORE PUSH1 0x20 PUSH1 0x0 KECCAK256 ADD SWAP1 PUSH1 0x0 SWAP1 JUMP JUMPDEST PUSH4 0x4E487B71 PUSH1 0xE0 SHL PUSH1 0x0 MSTORE PUSH1 0x32 PUSH1 0x4 MSTORE PUSH1 0x24 PUSH1 0x0 REVERT JUMPDEST SWAP1 PUSH1 0x1 DUP3 DUP2 SHR SWAP3 AND DUP1 ISZERO PUSH2 0x1468 JUMPI JUMPDEST PUSH1 0x20 DUP4 LT EQ PUSH2 0x1452 JUMPI JUMP JUMPDEST PUSH4 0x4E487B71 PUSH1 0xE0 SHL PUSH1 0x0 MSTORE PUSH1 0x22 PUSH1 0x4 MSTORE PUSH1 0x24 PUSH1 0x0 REVERT JUMPDEST SWAP2 PUSH1 0x7F AND SWAP2 PUSH2 0x1447 JUMP JUMPDEST PUSH1 0x0 SWAP3 SWAP2 DUP2 SLOAD SWAP2 PUSH2 0x1482 DUP4 PUSH2 0x1438 JUMP JUMPDEST DUP1 DUP4 MSTORE SWAP3 PUSH1 0x1 DUP2 AND SWAP1 DUP2 ISZERO PUSH2 0x14D8 JUMPI POP PUSH1 0x1 EQ PUSH2 0x149E JUMPI POP POP POP JUMP JUMPDEST PUSH1 0x0 SWAP1 DUP2 MSTORE PUSH1 0x20 DUP2 KECCAK256 SWAP4 SWAP5 POP SWAP2 SWAP3 JUMPDEST DUP4 DUP4 LT PUSH2 0x14BE JUMPI POP PUSH1 0x20 SWAP3 POP ADD ADD SWAP1 JUMP JUMPDEST PUSH1 0x1 DUP2 PUSH1 0x20 SWAP3 SWAP5 SWAP4 SWAP5 SLOAD DUP4 DUP6 DUP8 ADD ADD MSTORE ADD SWAP2 ADD SWAP2 SWAP1 PUSH2 0x14AD JUMP JUMPDEST SWAP2 POP POP PUSH1 0x20 SWAP4 SWAP5 POP PUSH1 0xFF SWAP3 SWAP2 SWAP3 NOT AND DUP4 DUP4 ADD MSTORE ISZERO ISZERO PUSH1 0x5 SHL ADD ADD SWAP1 JUMP JUMPDEST PUSH1 0x20 PUSH2 0x150E SWAP2 DUP2 PUSH1 0x40 MLOAD SWAP4 DUP3 DUP6 DUP1 SWAP5 MLOAD SWAP4 DUP5 SWAP3 ADD PUSH2 0x10D8 JUMP JUMPDEST DUP2 ADD PUSH1 0x5 DUP2 MSTORE SUB ADD SWAP1 KECCAK256 SWAP1 JUMP JUMPDEST PUSH1 0x40 MLOAD SWAP1 PUSH2 0x1528 DUP3 PUSH2 0x1035 JUMP JUMPDEST PUSH1 0x0 PUSH1 0x20 DUP4 PUSH1 0x60 DUP2 MSTORE ADD MSTORE JUMP JUMPDEST PUSH1 0x40 MLOAD SWAP1 PUSH2 0x1542 DUP3 PUSH2 0x1019 JUMP JUMPDEST PUSH1 0x0 PUSH1 0xE0 DUP4 PUSH1 0x60 DUP2 MSTORE PUSH1 0x60 PUSH1 0x20 DUP3 ADD MSTORE PUSH1 0x60 PUSH1 0x40 DUP3 ADD MSTORE PUSH1 0x60 DUP1 DUP3 ADD MSTORE DUP3 PUSH1 0x80 DUP3 ADD MSTORE PUSH2 0x156D PUSH2 0x151B JUMP JUMPDEST PUSH1 0xA0 DUP3 ADD MSTORE PUSH2 0x157A PUSH2 0x151B JUMP JUMPDEST PUSH1 0xC0 DUP3 ADD MSTORE ADD MSTORE JUMP JUMPDEST SWAP1 PUSH2 0x158D DUP3 PUSH2 0x1261 JUMP JUMPDEST PUSH2 0x159A PUSH1 0x40 MLOAD SWAP2 DUP3 PUSH2 0x1050 JUMP JUMPDEST DUP3 DUP2 MSTORE DUP1 SWAP3 PUSH2 0x15AB PUSH1 0x1F NOT SWAP2 PUSH2 0x1261 JUMP JUMPDEST ADD SWAP1 PUSH1 0x0 JUMPDEST DUP3 DUP2 LT PUSH2 0x15BC JUMPI POP POP POP JUMP JUMPDEST PUSH1 0x20 SWAP1 PUSH2 0x15C7 PUSH2 0x1535 JUMP JUMPDEST DUP3 DUP3 DUP6 ADD ADD MSTORE ADD PUSH2 0x15B0 JUMP JUMPDEST DUP1 MLOAD DUP3 LT ISZERO PUSH2 0x1422 JUMPI PUSH1 0x20 SWAP2 PUSH1 0x5 SHL ADD ADD SWAP1 JUMP JUMPDEST SWAP1 PUSH1 0x40 MLOAD PUSH2 0x15F4 DUP2 PUSH2 0x1035 JUMP JUMPDEST PUSH1 0x20 DUP2 SWAP4 PUSH1 0x40 MLOAD PUSH2 0x1609 DUP2 PUSH2 0x137 DUP2 DUP6 PUSH2 0x1472 JUMP JUMPDEST DUP4 MSTORE PUSH1 0x1 ADD SLOAD PUSH1 0x1 PUSH1 0x1 PUSH1 0xA0 SHL SUB AND SWAP2 ADD MSTORE JUMP JUMPDEST SWAP1 PUSH1 0x40 MLOAD PUSH2 0x162A DUP2 PUSH2 0x1019 JUMP JUMPDEST PUSH1 0xFF PUSH1 0x9 DUP3 SWAP5 PUSH1 0x40 MLOAD PUSH2 0x1641 DUP2 PUSH2 0x137 DUP2 DUP6 PUSH2 0x1472 JUMP JUMPDEST DUP5 MSTORE PUSH1 0x40 MLOAD PUSH2 0x1657 DUP2 PUSH2 0x137 DUP2 PUSH1 0x1 DUP7 ADD PUSH2 0x1472 JUMP JUMPDEST PUSH1 0x20 DUP6 ADD MSTORE PUSH1 0x40 MLOAD PUSH2 0x1670 DUP2 PUSH2 0x137 DUP2 PUSH1 0x2 DUP7 ADD PUSH2 0x1472 JUMP JUMPDEST PUSH1 0x40 DUP6 ADD MSTORE PUSH1 0x40 MLOAD PUSH2 0x1689 DUP2 PUSH2 0x137 DUP2 PUSH1 0x3 DUP7 ADD PUSH2 0x1472 JUMP JUMPDEST PUSH1 0x60 DUP6 ADD MSTORE DUP3 PUSH1 0x4 DUP3 ADD SLOAD AND PUSH1 0x80 DUP6 ADD MSTORE PUSH2 0x16A6 PUSH1 0x5 DUP3 ADD PUSH2 0x15E7 JUMP JUMPDEST PUSH1 0xA0 DUP6 ADD MSTORE PUSH2 0x16B7 PUSH1 0x7 DUP3 ADD PUSH2 0x15E7 JUMP JUMPDEST PUSH1 0xC0 DUP6 ADD MSTORE ADD SLOAD AND SWAP1 PUSH1 0x3 DUP3 LT ISZERO PUSH2 0x11EB JUMPI PUSH1 0xE0 ADD MSTORE JUMP JUMPDEST ISZERO PUSH2 0x16D6 JUMPI JUMP JUMPDEST PUSH1 0x40 MLOAD PUSH3 0x461BCD PUSH1 0xE5 SHL DUP2 MSTORE PUSH1 0x20 PUSH1 0x4 DUP3 ADD MSTORE PUSH1 0xA PUSH1 0x24 DUP3 ADD MSTORE PUSH10 0x125108125B9D985B1A59 PUSH1 0xB2 SHL PUSH1 0x44 DUP3 ADD MSTORE PUSH1 0x64 SWAP1 REVERT JUMPDEST DUP2 DUP2 LT PUSH2 0x1713 JUMPI POP POP JUMP JUMPDEST PUSH1 0x0 DUP2 SSTORE PUSH1 0x1 ADD PUSH2 0x1708 JUMP JUMPDEST DUP1 SLOAD SWAP1 PUSH1 0x0 DUP2 SSTORE DUP2 PUSH2 0x172F JUMPI POP POP JUMP JUMPDEST PUSH1 0x0 MSTORE PUSH1 0x20 PUSH1 0x0 KECCAK256 SWAP1 DUP2 ADD SWAP1 JUMPDEST DUP2 DUP2 LT PUSH2 0x1747 JUMPI POP POP JUMP JUMPDEST DUP1 PUSH2 0x1754 PUSH1 0x1 SWAP3 SLOAD PUSH2 0x1438 JUMP JUMPDEST DUP1 PUSH2 0x1761 JUMPI JUMPDEST POP ADD PUSH2 0x173C JUMP JUMPDEST PUSH1 0x1F DUP2 GT DUP4 EQ PUSH2 0x1777 JUMPI POP PUSH1 0x0 DUP2 SSTORE JUMPDEST CODESIZE PUSH2 0x175A JUMP JUMPDEST PUSH2 0x1795 SWAP1 DUP3 PUSH1 0x0 MSTORE DUP4 PUSH1 0x1F PUSH1 0x20 PUSH1 0x0 KECCAK256 SWAP3 ADD PUSH1 0x5 SHR DUP3 ADD SWAP2 ADD PUSH2 0x1708 JUMP JUMPDEST DUP1 PUSH1 0x0 MSTORE PUSH1 0x0 PUSH1 0x20 DUP2 KECCAK256 DUP2 DUP4 SSTORE SSTORE PUSH2 0x1771 JUMP JUMPDEST SWAP2 SWAP1 SWAP2 DUP3 MLOAD PUSH1 0x1 PUSH1 0x1 PUSH1 0x40 SHL SUB DUP2 GT PUSH2 0x1003 JUMPI PUSH2 0x17C5 DUP3 SLOAD PUSH2 0x1438 JUMP JUMPDEST PUSH1 0x1F DUP2 GT PUSH2 0x186B JUMPI JUMPDEST POP PUSH1 0x20 PUSH1 0x1F DUP3 GT PUSH1 0x1 EQ PUSH2 0x1809 JUMPI DUP2 SWAP3 SWAP4 SWAP5 PUSH1 0x0 SWAP3 PUSH2 0x17FE JUMPI JUMPDEST POP POP DUP2 PUSH1 0x1 SHL SWAP2 PUSH1 0x0 NOT SWAP1 PUSH1 0x3 SHL SHR NOT AND OR SWAP1 SSTORE JUMP JUMPDEST ADD MLOAD SWAP1 POP CODESIZE DUP1 PUSH2 0x17E8 JUMP JUMPDEST PUSH1 0x1F NOT DUP3 AND SWAP1 DUP4 PUSH1 0x0 MSTORE DUP1 PUSH1 0x0 KECCAK256 SWAP2 PUSH1 0x0 JUMPDEST DUP2 DUP2 LT PUSH2 0x1853 JUMPI POP SWAP6 DUP4 PUSH1 0x1 SWAP6 SWAP7 SWAP8 LT PUSH2 0x183A JUMPI JUMPDEST POP POP POP DUP2 SHL ADD SWAP1 SSTORE JUMP JUMPDEST ADD MLOAD PUSH1 0x0 NOT PUSH1 0xF8 DUP5 PUSH1 0x3 SHL AND SHR NOT AND SWAP1 SSTORE CODESIZE DUP1 DUP1 PUSH2 0x1830 JUMP JUMPDEST SWAP2 SWAP3 PUSH1 0x20 PUSH1 0x1 DUP2 SWAP3 DUP7 DUP12 ADD MLOAD DUP2 SSTORE ADD SWAP5 ADD SWAP3 ADD PUSH2 0x181B JUMP JUMPDEST PUSH2 0x1898 SWAP1 DUP4 PUSH1 0x0 MSTORE PUSH1 0x20 PUSH1 0x0 KECCAK256 PUSH1 0x1F DUP5 ADD PUSH1 0x5 SHR DUP2 ADD SWAP2 PUSH1 0x20 DUP6 LT PUSH2 0x189E JUMPI JUMPDEST PUSH1 0x1F ADD PUSH1 0x5 SHR ADD SWAP1 PUSH2 0x1708 JUMP JUMPDEST CODESIZE PUSH2 0x17CE JUMP JUMPDEST SWAP1 SWAP2 POP DUP2 SWAP1 PUSH2 0x188B JUMP JUMPDEST DUP1 SLOAD PUSH1 0x1 PUSH1 0x40 SHL DUP2 LT ISZERO PUSH2 0x1003 JUMPI PUSH2 0x18C5 SWAP2 PUSH1 0x1 DUP3 ADD DUP2 SSTORE PUSH2 0x140A JUMP JUMPDEST SWAP2 SWAP1 SWAP2 PUSH2 0x18D7 JUMPI PUSH2 0x18D5 SWAP2 PUSH2 0x17A8 JUMP JUMPDEST JUMP JUMPDEST PUSH4 0x4E487B71 PUSH1 0xE0 SHL PUSH1 0x0 MSTORE PUSH1 0x0 PUSH1 0x4 MSTORE PUSH1 0x24 PUSH1 0x0 REVERT JUMPDEST DUP2 PUSH1 0x1F DUP3 ADD SLT ISZERO PUSH2 0x10D3 JUMPI DUP1 MLOAD PUSH2 0x1903 DUP2 PUSH2 0x1071 JUMP JUMPDEST SWAP3 PUSH2 0x1911 PUSH1 0x40 MLOAD SWAP5 DUP6 PUSH2 0x1050 JUMP JUMPDEST DUP2 DUP5 MSTORE PUSH1 0x20 DUP3 DUP5 ADD ADD GT PUSH2 0x10D3 JUMPI PUSH2 0x13AE SWAP2 PUSH1 0x20 DUP1 DUP6 ADD SWAP2 ADD PUSH2 0x10D8 JUMP JUMPDEST SWAP3 SWAP2 SWAP1 SWAP3 PUSH2 0x193C DUP5 PUSH2 0x1261 JUMP JUMPDEST SWAP4 PUSH2 0x194A PUSH1 0x40 MLOAD SWAP6 DUP7 PUSH2 0x1050 JUMP JUMPDEST PUSH1 0x20 DUP6 DUP3 DUP2 MSTORE ADD SWAP1 PUSH1 0x5 SHL DUP3 ADD SWAP2 DUP4 DUP4 GT PUSH2 0x10D3 JUMPI DUP1 SWAP2 JUMPDEST DUP4 DUP4 LT PUSH2 0x1970 JUMPI POP POP POP POP POP JUMP JUMPDEST DUP3 MLOAD PUSH1 0x1 PUSH1 0x1 PUSH1 0x40 SHL SUB DUP2 GT PUSH2 0x10D3 JUMPI DUP3 ADD PUSH1 0x0 SWAP2 PUSH1 0xC0 DUP3 DUP9 SUB SLT PUSH2 0x2C4 JUMPI PUSH1 0x40 MLOAD SWAP3 PUSH1 0xC0 DUP5 ADD SWAP1 DUP5 DUP3 LT PUSH1 0x1 PUSH1 0x1 PUSH1 0x40 SHL SUB DUP4 GT OR PUSH2 0x1A6E JUMPI POP PUSH1 0x40 MSTORE DUP2 MLOAD PUSH1 0x1 PUSH1 0x1 PUSH1 0x40 SHL SUB DUP2 GT PUSH2 0x10D3 JUMPI DUP8 PUSH2 0x19CA SWAP2 DUP5 ADD PUSH2 0x18ED JUMP JUMPDEST DUP4 MSTORE PUSH1 0x20 DUP3 ADD MLOAD PUSH1 0x1 PUSH1 0x1 PUSH1 0x40 SHL SUB DUP2 GT PUSH2 0x10D3 JUMPI DUP8 PUSH2 0x19EB SWAP2 DUP5 ADD PUSH2 0x18ED JUMP JUMPDEST PUSH1 0x20 DUP5 ADD MSTORE PUSH1 0x40 DUP3 ADD MLOAD PUSH1 0x1 PUSH1 0x1 PUSH1 0x40 SHL SUB DUP2 GT PUSH2 0x10D3 JUMPI DUP8 PUSH2 0x1A0F SWAP2 DUP5 ADD PUSH2 0x18ED JUMP JUMPDEST PUSH1 0x40 DUP5 ADD MSTORE PUSH1 0x60 DUP3 ADD MLOAD PUSH1 0xFF DUP2 AND DUP2 SUB PUSH2 0x10D3 JUMPI PUSH1 0x60 DUP5 ADD MSTORE PUSH1 0x80 DUP3 ADD MLOAD PUSH1 0x2 DUP2 LT ISZERO PUSH2 0x10D3 JUMPI PUSH1 0x80 DUP5 ADD MSTORE PUSH1 0xA0 DUP3 ADD MLOAD SWAP3 PUSH1 0x1 PUSH1 0x1 PUSH1 0x40 SHL SUB DUP5 GT PUSH2 0x10D3 JUMPI PUSH2 0x1A5E DUP9 PUSH1 0x20 SWAP6 DUP7 SWAP6 ADD PUSH2 0x18ED JUMP JUMPDEST PUSH1 0xA0 DUP3 ADD MSTORE DUP2 MSTORE ADD SWAP3 ADD SWAP2 PUSH2 0x1962 JUMP JUMPDEST PUSH4 0x4E487B71 PUSH1 0xE0 SHL DUP2 MSTORE PUSH1 0x41 PUSH1 0x4 MSTORE PUSH1 0x24 SWAP1 REVERT JUMPDEST PUSH2 0x1AF8 PUSH2 0x1AC2 PUSH2 0x70B PUSH1 0x20 PUSH32 0x51442564A7C47C90EE6057DAEC7DADA1D5132C3A496854BBC4C003DE6F711336 SWAP5 DUP2 PUSH1 0x40 MLOAD SWAP4 DUP3 DUP6 DUP1 SWAP5 MLOAD SWAP4 DUP5 SWAP3 ADD PUSH2 0x10D8 JUMP JUMPDEST PUSH1 0x40 DUP2 ADD MLOAD SWAP1 PUSH2 0x1B14 PUSH1 0xA0 DUP3 ADD MLOAD MLOAD SWAP2 PUSH2 0x1B06 PUSH1 0xFF PUSH1 0x80 PUSH1 0xC0 DUP5 ADD MLOAD MLOAD SWAP4 ADD MLOAD AND SWAP4 PUSH1 0x40 MLOAD SWAP7 DUP8 SWAP7 PUSH1 0xA0 DUP9 MSTORE PUSH1 0xA0 DUP9 ADD SWAP1 PUSH2 0x10FB JUMP JUMPDEST SWAP1 DUP7 DUP3 SUB PUSH1 0x20 DUP9 ADD MSTORE PUSH2 0x10FB JUMP JUMPDEST SWAP1 DUP5 DUP3 SUB PUSH1 0x40 DUP7 ADD MSTORE PUSH2 0x10FB JUMP JUMPDEST SWAP1 PUSH1 0x60 DUP4 ADD MSTORE TIMESTAMP PUSH1 0x80 DUP4 ADD MSTORE SUB SWAP1 LOG1 JUMP INVALID LOG2 PUSH5 0x6970667358 0x22 SLT KECCAK256 PUSH16 0x4F23FC67E50FBA6C2705D3958E55D861 0xE3 CHAINID LOG2 0x21 EQ PUSH24 0xD403D8906F6C01EB8664736F6C634300081B003300000000 "},"methodIdentifiers":{"acceptOrder(string,string[])":"57b347bd","allOrderId(uint256)":"dd5739ae","completeOrder(string,string[])":"9aa34050","createOrder(string,string,string,string,string,string,uint8)":"cb855d5c","detailOrder(string)":"986a0790","getAllObatPbfReadyStock()":"906ce017","getAllOrderFromBuyer(string)":"60e4b3cf","getAllOrderFromSeller(string)":"1c2fc292","getAvailableObatFromFactory()":"ce7ab1c7","obatShared()":"3fca88cb","obatTradisional()":"ea020d59","roleManager()":"00435da5"}}}}}