{"contracts/CertificateManager.sol":{"CertificateManager":{"abi":[{"inputs":[{"internalType":"address","name":"roleManagerAddr","type":"address"},{"internalType":"address","name":"cpotbCertificateAddr","type":"address"},{"internalType":"address","name":"cdobCertificateAddr","type":"address"}],"stateMutability":"nonpayable","type":"constructor"},{"inputs":[],"name":"ReentrancyGuardReentrantCall","type":"error"},{"anonymous":false,"inputs":[{"indexed":false,"internalType":"string","name":"bpomInstance","type":"string"},{"indexed":false,"internalType":"address","name":"bpomAddr","type":"address"},{"indexed":false,"internalType":"uint8","name":"tipePermohonan","type":"uint8"},{"indexed":false,"internalType":"string","name":"certNumber","type":"string"},{"indexed":false,"internalType":"uint256","name":"timestamp","type":"uint256"}],"name":"CertApproved","type":"event"},{"anonymous":false,"inputs":[{"indexed":false,"internalType":"address","name":"senderAddr","type":"address"},{"indexed":false,"internalType":"uint256","name":"timestamp","type":"uint256"}],"name":"CertExtend","type":"event"},{"anonymous":false,"inputs":[{"indexed":false,"internalType":"address","name":"bpomAddr","type":"address"},{"indexed":false,"internalType":"string","name":"rejectMsgExt","type":"string"},{"indexed":false,"internalType":"uint256","name":"timestamp","type":"uint256"}],"name":"CertExtendReject","type":"event"},{"anonymous":false,"inputs":[{"indexed":false,"internalType":"string","name":"bpomInstance","type":"string"},{"indexed":false,"internalType":"address","name":"bpomAddr","type":"address"},{"indexed":false,"internalType":"uint8","name":"tipePermohonan","type":"uint8"},{"indexed":false,"internalType":"uint256","name":"timestamp","type":"uint256"},{"indexed":false,"internalType":"string","name":"rejectMsg","type":"string"}],"name":"CertRejected","type":"event"},{"anonymous":false,"inputs":[{"indexed":false,"internalType":"string","name":"senderInstance","type":"string"},{"indexed":false,"internalType":"address","name":"senderAddr","type":"address"},{"indexed":false,"internalType":"uint256","name":"timestamp","type":"uint256"}],"name":"CertRenewRequest","type":"event"},{"anonymous":false,"inputs":[{"indexed":false,"internalType":"string","name":"senderInstance","type":"string"},{"indexed":false,"internalType":"address","name":"senderAddr","type":"address"},{"indexed":false,"internalType":"uint8","name":"tipePermohonan","type":"uint8"},{"indexed":false,"internalType":"uint256","name":"timestamp","type":"uint256"}],"name":"CertRequested","type":"event"},{"inputs":[{"components":[{"internalType":"string","name":"certNumber","type":"string"},{"internalType":"string","name":"certId","type":"string"},{"internalType":"string","name":"bpomName","type":"string"},{"internalType":"string","name":"bpomInstance","type":"string"},{"internalType":"address","name":"bpomAddr","type":"address"}],"internalType":"struct CertificateManager.CertificateApproval","name":"approveData","type":"tuple"},{"internalType":"string","name":"ipfsCert","type":"string"},{"internalType":"uint8","name":"tipePermohonan","type":"uint8"}],"name":"approveCdob","outputs":[],"stateMutability":"nonpayable","type":"function"},{"inputs":[{"components":[{"internalType":"string","name":"certNumber","type":"string"},{"internalType":"string","name":"certId","type":"string"},{"internalType":"string","name":"bpomName","type":"string"},{"internalType":"string","name":"bpomInstance","type":"string"},{"internalType":"address","name":"bpomAddr","type":"address"}],"internalType":"struct CertificateManager.CertificateApproval","name":"approveData","type":"tuple"},{"internalType":"string","name":"ipfsCert","type":"string"},{"internalType":"uint8","name":"jenisSediaan","type":"uint8"}],"name":"approveCpotb","outputs":[],"stateMutability":"nonpayable","type":"function"},{"inputs":[{"internalType":"string","name":"cdobId","type":"string"},{"internalType":"string","name":"ipfsCert","type":"string"}],"name":"approveExtendCdob","outputs":[],"stateMutability":"nonpayable","type":"function"},{"inputs":[{"internalType":"string","name":"cpotbId","type":"string"},{"internalType":"string","name":"ipfsCert","type":"string"}],"name":"approveExtendCpotb","outputs":[],"stateMutability":"nonpayable","type":"function"},{"inputs":[],"name":"cdobCertificate","outputs":[{"internalType":"contract CdobCertificate","name":"","type":"address"}],"stateMutability":"view","type":"function"},{"inputs":[],"name":"cpotbCertificate","outputs":[{"internalType":"contract CpotbCertificate","name":"","type":"address"}],"stateMutability":"view","type":"function"},{"inputs":[{"internalType":"string","name":"cdobId","type":"string"},{"internalType":"uint256","name":"expTimestamp","type":"uint256"},{"components":[{"internalType":"string","name":"suratPernyataanPimpinan","type":"string"},{"internalType":"string","name":"dokumenInspeksiDiri","type":"string"},{"internalType":"string","name":"dokumenPerbaikan","type":"string"}],"internalType":"struct CdobCertificate.DokumenReSertifikasi","name":"newDokus","type":"tuple"}],"name":"extendCdob","outputs":[],"stateMutability":"nonpayable","type":"function"},{"inputs":[{"internalType":"string","name":"cpotbId","type":"string"},{"internalType":"uint256","name":"expTimestamp","type":"uint256"},{"components":[{"internalType":"string","name":"suratPermohonan","type":"string"},{"internalType":"string","name":"buktiPembayaranNegaraBukanPajak","type":"string"},{"internalType":"string","name":"denahBangunan","type":"string"},{"internalType":"string","name":"sistemMutu","type":"string"},{"internalType":"string","name":"cpotbIpfs","type":"string"},{"internalType":"string","name":"dokumenCapa","type":"string"}],"internalType":"struct CpotbCertificate.DokumenReSertifikasi","name":"newDoku","type":"tuple"}],"name":"extendCpotb","outputs":[],"stateMutability":"nonpayable","type":"function"},{"inputs":[],"name":"getAllCdob","outputs":[{"components":[{"internalType":"string","name":"certId","type":"string"},{"internalType":"string","name":"certNumber","type":"string"},{"internalType":"string","name":"instanceName","type":"string"},{"internalType":"uint8","name":"tipePermohonan","type":"uint8"},{"internalType":"enum EnumsLibrary.StatusCertificate","name":"status","type":"uint8"},{"internalType":"string","name":"certHash","type":"string"},{"internalType":"uint256","name":"expiredTimestamp","type":"uint256"}],"internalType":"struct CdobCertificate.CertificateList[]","name":"","type":"tuple[]"}],"stateMutability":"view","type":"function"},{"inputs":[],"name":"getAllCpotb","outputs":[{"components":[{"internalType":"string","name":"certId","type":"string"},{"internalType":"string","name":"certNumber","type":"string"},{"internalType":"string","name":"instanceName","type":"string"},{"internalType":"uint8","name":"tipePermohonan","type":"uint8"},{"internalType":"enum EnumsLibrary.StatusCertificate","name":"status","type":"uint8"},{"internalType":"string","name":"certHash","type":"string"},{"internalType":"uint256","name":"expiredTimestamp","type":"uint256"}],"internalType":"struct CpotbCertificate.CertificateList[]","name":"","type":"tuple[]"}],"stateMutability":"view","type":"function"},{"inputs":[{"internalType":"string","name":"instanceName","type":"string"}],"name":"getCdobByInstance","outputs":[{"components":[{"internalType":"string","name":"certId","type":"string"},{"internalType":"string","name":"certNumber","type":"string"},{"internalType":"string","name":"instanceName","type":"string"},{"internalType":"uint8","name":"tipePermohonan","type":"uint8"},{"internalType":"enum EnumsLibrary.StatusCertificate","name":"status","type":"uint8"},{"internalType":"string","name":"certHash","type":"string"},{"internalType":"uint256","name":"expiredTimestamp","type":"uint256"}],"internalType":"struct CdobCertificate.CertificateList[]","name":"","type":"tuple[]"}],"stateMutability":"view","type":"function"},{"inputs":[{"internalType":"string","name":"certId","type":"string"}],"name":"getCdobDetails","outputs":[{"components":[{"internalType":"enum EnumsLibrary.StatusCertificate","name":"status","type":"uint8"},{"internalType":"uint256","name":"timestampRequest","type":"uint256"},{"internalType":"uint256","name":"timestampApprove","type":"uint256"},{"internalType":"uint256","name":"timestampRejected","type":"uint256"},{"internalType":"uint256","name":"timestampRenewRequest","type":"uint256"},{"internalType":"uint256","name":"timestampExpired","type":"uint256"},{"internalType":"uint256","name":"timestampExtendRequest","type":"uint256"},{"internalType":"uint256","name":"timestampExtendApprove","type":"uint256"},{"internalType":"uint256","name":"timestampExtendReject","type":"uint256"},{"internalType":"uint256","name":"timestampExtendRenew","type":"uint256"},{"components":[{"internalType":"string","name":"userName","type":"string"},{"internalType":"string","name":"userInstance","type":"string"},{"internalType":"address","name":"userAddr","type":"address"}],"internalType":"struct BaseCertificate.UserCert","name":"sender","type":"tuple"},{"components":[{"internalType":"string","name":"userName","type":"string"},{"internalType":"string","name":"userInstance","type":"string"},{"internalType":"address","name":"userAddr","type":"address"}],"internalType":"struct BaseCertificate.UserCert","name":"bpom","type":"tuple"},{"internalType":"string","name":"ipfsCert","type":"string"}],"internalType":"struct BaseCertificate.CertificateDetails","name":"","type":"tuple"},{"components":[{"internalType":"string","name":"cdobId","type":"string"},{"internalType":"string","name":"cdobNumber","type":"string"},{"internalType":"uint8","name":"tipePermohonan","type":"uint8"}],"internalType":"struct CdobCertificate.CdobData","name":"","type":"tuple"},{"components":[{"internalType":"string","name":"suratPermohonan","type":"string"},{"internalType":"string","name":"buktiPembayaranPajak","type":"string"}],"internalType":"struct CdobCertificate.DokumenAdministrasi","name":"","type":"tuple"},{"components":[{"internalType":"string","name":"suratIzinCdob","type":"string"},{"internalType":"string","name":"denahBangunan","type":"string"},{"internalType":"string","name":"strukturOrganisasi","type":"string"},{"internalType":"string","name":"daftarPersonalia","type":"string"},{"internalType":"string","name":"daftarPeralatan","type":"string"},{"internalType":"string","name":"eksekutifQualityManagement","type":"string"},{"internalType":"string","name":"suratIzinApoteker","type":"string"},{"internalType":"string","name":"dokumenSelfAssesment","type":"string"}],"internalType":"struct CdobCertificate.DokumenTeknis","name":"","type":"tuple"},{"components":[{"internalType":"string","name":"suratPernyataanPimpinan","type":"string"},{"internalType":"string","name":"dokumenInspeksiDiri","type":"string"},{"internalType":"string","name":"dokumenPerbaikan","type":"string"}],"internalType":"struct CdobCertificate.DokumenReSertifikasi","name":"","type":"tuple"}],"stateMutability":"view","type":"function"},{"inputs":[{"internalType":"string","name":"instanceName","type":"string"}],"name":"getCpotbByInstance","outputs":[{"components":[{"internalType":"string","name":"certId","type":"string"},{"internalType":"string","name":"certNumber","type":"string"},{"internalType":"string","name":"instanceName","type":"string"},{"internalType":"uint8","name":"tipePermohonan","type":"uint8"},{"internalType":"enum EnumsLibrary.StatusCertificate","name":"status","type":"uint8"},{"internalType":"string","name":"certHash","type":"string"},{"internalType":"uint256","name":"expiredTimestamp","type":"uint256"}],"internalType":"struct CpotbCertificate.CertificateList[]","name":"","type":"tuple[]"}],"stateMutability":"view","type":"function"},{"inputs":[{"internalType":"string","name":"certId","type":"string"}],"name":"getCpotbDetails","outputs":[{"components":[{"internalType":"enum EnumsLibrary.StatusCertificate","name":"status","type":"uint8"},{"internalType":"uint256","name":"timestampRequest","type":"uint256"},{"internalType":"uint256","name":"timestampApprove","type":"uint256"},{"internalType":"uint256","name":"timestampRejected","type":"uint256"},{"internalType":"uint256","name":"timestampRenewRequest","type":"uint256"},{"internalType":"uint256","name":"timestampExpired","type":"uint256"},{"internalType":"uint256","name":"timestampExtendRequest","type":"uint256"},{"internalType":"uint256","name":"timestampExtendApprove","type":"uint256"},{"internalType":"uint256","name":"timestampExtendReject","type":"uint256"},{"internalType":"uint256","name":"timestampExtendRenew","type":"uint256"},{"components":[{"internalType":"string","name":"userName","type":"string"},{"internalType":"string","name":"userInstance","type":"string"},{"internalType":"address","name":"userAddr","type":"address"}],"internalType":"struct BaseCertificate.UserCert","name":"sender","type":"tuple"},{"components":[{"internalType":"string","name":"userName","type":"string"},{"internalType":"string","name":"userInstance","type":"string"},{"internalType":"address","name":"userAddr","type":"address"}],"internalType":"struct BaseCertificate.UserCert","name":"bpom","type":"tuple"},{"internalType":"string","name":"ipfsCert","type":"string"}],"internalType":"struct BaseCertificate.CertificateDetails","name":"","type":"tuple"},{"components":[{"internalType":"string","name":"cpotbId","type":"string"},{"internalType":"string","name":"cpotbNumber","type":"string"},{"internalType":"uint8","name":"tipePermohonan","type":"uint8"},{"internalType":"string","name":"factoryType","type":"string"}],"internalType":"struct CpotbCertificate.CpotbData","name":"","type":"tuple"},{"components":[{"internalType":"string","name":"suratPermohonan","type":"string"},{"internalType":"string","name":"buktiPembayaranNegaraBukanPajak","type":"string"},{"internalType":"string","name":"suratKomitmen","type":"string"}],"internalType":"struct CpotbCertificate.DokumenAdministrasi","name":"","type":"tuple"},{"components":[{"internalType":"string","name":"denahBangunan","type":"string"},{"internalType":"string","name":"sistemMutu","type":"string"}],"internalType":"struct CpotbCertificate.DokumenTeknis","name":"","type":"tuple"},{"components":[{"internalType":"string","name":"suratPermohonan","type":"string"},{"internalType":"string","name":"buktiPembayaranNegaraBukanPajak","type":"string"},{"internalType":"string","name":"denahBangunan","type":"string"},{"internalType":"string","name":"sistemMutu","type":"string"},{"internalType":"string","name":"cpotbIpfs","type":"string"},{"internalType":"string","name":"dokumenCapa","type":"string"}],"internalType":"struct CpotbCertificate.DokumenReSertifikasi","name":"","type":"tuple"}],"stateMutability":"view","type":"function"},{"inputs":[{"internalType":"string","name":"certId","type":"string"}],"name":"getRejectMsgCdob","outputs":[{"internalType":"string","name":"","type":"string"},{"internalType":"string","name":"","type":"string"}],"stateMutability":"view","type":"function"},{"inputs":[{"internalType":"string","name":"certId","type":"string"}],"name":"getRejectMsgCpotb","outputs":[{"internalType":"string","name":"","type":"string"},{"internalType":"string","name":"","type":"string"}],"stateMutability":"view","type":"function"},{"inputs":[{"internalType":"string","name":"certId","type":"string"},{"internalType":"string","name":"rejectMsg","type":"string"},{"internalType":"string","name":"bpomName","type":"string"},{"internalType":"string","name":"bpomInstance","type":"string"},{"internalType":"uint8","name":"tipePermohonan","type":"uint8"}],"name":"rejectCdob","outputs":[],"stateMutability":"nonpayable","type":"function"},{"inputs":[{"internalType":"string","name":"certId","type":"string"},{"internalType":"string","name":"rejectMsg","type":"string"},{"internalType":"string","name":"bpomName","type":"string"},{"internalType":"string","name":"bpomInstance","type":"string"},{"internalType":"uint8","name":"jenisSediaan","type":"uint8"}],"name":"rejectCpotb","outputs":[],"stateMutability":"nonpayable","type":"function"},{"inputs":[{"internalType":"string","name":"cdobId","type":"string"},{"internalType":"string","name":"ipfsCert","type":"string"}],"name":"rejectExtendCdob","outputs":[],"stateMutability":"nonpayable","type":"function"},{"inputs":[{"internalType":"string","name":"cpotbId","type":"string"},{"internalType":"string","name":"ipfsCert","type":"string"}],"name":"rejectExtendCpotb","outputs":[],"stateMutability":"nonpayable","type":"function"},{"inputs":[{"components":[{"internalType":"string","name":"certId","type":"string"},{"internalType":"string","name":"senderName","type":"string"},{"internalType":"string","name":"senderInstance","type":"string"},{"internalType":"address","name":"senderAddr","type":"address"}],"internalType":"struct CertificateManager.CertificateRequest","name":"reqData","type":"tuple"},{"components":[{"internalType":"string","name":"suratPermohonan","type":"string"},{"internalType":"string","name":"buktiPembayaranPajak","type":"string"}],"internalType":"struct CdobCertificate.DokumenAdministrasi","name":"newDokuAdmin","type":"tuple"},{"components":[{"internalType":"string","name":"suratIzinCdob","type":"string"},{"internalType":"string","name":"denahBangunan","type":"string"},{"internalType":"string","name":"strukturOrganisasi","type":"string"},{"internalType":"string","name":"daftarPersonalia","type":"string"},{"internalType":"string","name":"daftarPeralatan","type":"string"},{"internalType":"string","name":"eksekutifQualityManagement","type":"string"},{"internalType":"string","name":"suratIzinApoteker","type":"string"},{"internalType":"string","name":"dokumenSelfAssesment","type":"string"}],"internalType":"struct CdobCertificate.DokumenTeknis","name":"newDokuTeknis","type":"tuple"}],"name":"renewCdob","outputs":[],"stateMutability":"nonpayable","type":"function"},{"inputs":[{"components":[{"internalType":"string","name":"certId","type":"string"},{"internalType":"string","name":"senderName","type":"string"},{"internalType":"string","name":"senderInstance","type":"string"},{"internalType":"address","name":"senderAddr","type":"address"}],"internalType":"struct CertificateManager.CertificateRequest","name":"reqData","type":"tuple"},{"components":[{"internalType":"string","name":"suratPermohonan","type":"string"},{"internalType":"string","name":"buktiPembayaranNegaraBukanPajak","type":"string"},{"internalType":"string","name":"suratKomitmen","type":"string"}],"internalType":"struct CpotbCertificate.DokumenAdministrasi","name":"newDokuAdmin","type":"tuple"},{"components":[{"internalType":"string","name":"denahBangunan","type":"string"},{"internalType":"string","name":"sistemMutu","type":"string"}],"internalType":"struct CpotbCertificate.DokumenTeknis","name":"newDokuTeknis","type":"tuple"}],"name":"renewCpotb","outputs":[],"stateMutability":"nonpayable","type":"function"},{"inputs":[{"internalType":"string","name":"cdobId","type":"string"}],"name":"renewExtendCdob","outputs":[],"stateMutability":"nonpayable","type":"function"},{"inputs":[{"internalType":"string","name":"cpotbId","type":"string"}],"name":"renewExtendCpotb","outputs":[],"stateMutability":"nonpayable","type":"function"},{"inputs":[{"components":[{"internalType":"string","name":"certId","type":"string"},{"internalType":"string","name":"senderName","type":"string"},{"internalType":"string","name":"senderInstance","type":"string"},{"internalType":"address","name":"senderAddr","type":"address"}],"internalType":"struct CertificateManager.CertificateRequest","name":"reqData","type":"tuple"},{"internalType":"uint8","name":"tipePermohonan","type":"uint8"},{"components":[{"internalType":"string","name":"suratPermohonan","type":"string"},{"internalType":"string","name":"buktiPembayaranPajak","type":"string"}],"internalType":"struct CdobCertificate.DokumenAdministrasi","name":"dokuAdmin","type":"tuple"},{"components":[{"internalType":"string","name":"suratIzinCdob","type":"string"},{"internalType":"string","name":"denahBangunan","type":"string"},{"internalType":"string","name":"strukturOrganisasi","type":"string"},{"internalType":"string","name":"daftarPersonalia","type":"string"},{"internalType":"string","name":"daftarPeralatan","type":"string"},{"internalType":"string","name":"eksekutifQualityManagement","type":"string"},{"internalType":"string","name":"suratIzinApoteker","type":"string"},{"internalType":"string","name":"dokumenSelfAssesment","type":"string"}],"internalType":"struct CdobCertificate.DokumenTeknis","name":"dokuTeknis","type":"tuple"}],"name":"requestCdob","outputs":[],"stateMutability":"nonpayable","type":"function"},{"inputs":[{"components":[{"internalType":"string","name":"certId","type":"string"},{"internalType":"string","name":"senderName","type":"string"},{"internalType":"string","name":"senderInstance","type":"string"},{"internalType":"address","name":"senderAddr","type":"address"}],"internalType":"struct CertificateManager.CertificateRequest","name":"reqData","type":"tuple"},{"internalType":"uint8","name":"jenisSediaan","type":"uint8"},{"internalType":"string","name":"factoryType","type":"string"},{"components":[{"internalType":"string","name":"suratPermohonan","type":"string"},{"internalType":"string","name":"buktiPembayaranNegaraBukanPajak","type":"string"},{"internalType":"string","name":"suratKomitmen","type":"string"}],"internalType":"struct CpotbCertificate.DokumenAdministrasi","name":"dokuAdmin","type":"tuple"},{"components":[{"internalType":"string","name":"denahBangunan","type":"string"},{"internalType":"string","name":"sistemMutu","type":"string"}],"internalType":"struct CpotbCertificate.DokumenTeknis","name":"dokuTeknis","type":"tuple"}],"name":"requestCpotb","outputs":[],"stateMutability":"nonpayable","type":"function"},{"inputs":[],"name":"roleManager","outputs":[{"internalType":"contract RoleManager","name":"","type":"address"}],"stateMutability":"view","type":"function"}],"evm":{"bytecode":{"linkReferences":{},"object":"60e0346101be57601f61385c38819003918201601f19168301916001600160401b038311848410176101c2578084926060946040528339810103126101be57610047816101d6565b906100606040610059602084016101d6565b92016101d6565b60015f556001600160a01b0392831660805290821660a0521660c05260405161367190816101eb823960805181818161036b0152818161058e015281816106b50152818161084e0152818161092701528181610ae40152818161162f015281816118bf015281816119c301528181611a9a01528181611bec01528181611cc601528181611dde01528181611eba01528181611ff2015281816122eb0152612421015260a0518181816101ff015281816103b1015281816106f80152818161096901528181610b470152818161116101528181611506015281816115aa0152818161169b0152818161190101528181611adc01528181611c2e015261216d015260c05181818161016a01528181610289015281816105d4015281816107e20152818161089001528181610d2a01528181611a0501528181611d3201528181611e2001528181611efc0152818161205601528181612225015261232d0152f35b5f80fd5b634e487b7160e01b5f52604160045260245ffd5b51906001600160a01b03821682036101be5756fe6080806040526004361015610012575f80fd5b5f905f3560e01c908162435da51461240f5750806307b11c0b1461226e57806317d96797146121eb5780631a898044146121115780631d43034914611f4f578063252006af14611e7c578063278b94ce14611d825780632dbcaf0f14611c8a57806335d8c34114611b915780633bb6ff3f14611a5c57806341ee14951461197f5780634ad8f1a41461174a5780634e03317b146115f357806351c2d3261461154f5780635850607c146114e157806370c056b0146110c05780637e8f8da714610c8657806387fecd3e14610a205780639c0abfd8146108e35780639c6b1f1014610811578063af3a1758146107cc578063b073043614610678578063bbd0b8a9146104f4578063cb43b77f146102d2578063d0927b191461022e578063d369111d146101e95763f14261d214610146575f80fd5b346101e657806003193601126101e6576040516378a130e960e11b815281816004817f00000000000000000000000000000000000000000000000000000000000000006001600160a01b03165afa9081156101db57826101b493926101b8575b505060405191829182612b40565b0390f35b6101d492503d8091833e6101cc8183612508565b810190613230565b5f806101a6565b6040513d84823e3d90fd5b80fd5b50346101e657806003193601126101e6576040517f00000000000000000000000000000000000000000000000000000000000000006001600160a01b03168152602090f35b50346101e65760203660031901126101e657600435816001600160401b0382116101e657610263610285923690600401612544565b604051809381926306f12c2360e41b835260206004840152602483019061260d565b03817f00000000000000000000000000000000000000000000000000000000000000006001600160a01b03165afa9081156101db57826101b493926101b857505060405191829182612b40565b50346101e65760603660031901126101e6576004356001600160401b0381116104ae5761030390369060040161266d565b816024356001600160401b0381116104ae5761032390369060040161258a565b6044356001600160401b0381116104f05761034290369060040161270e565b6040516395a8c58d60e01b81523360048201525f60248201526020816044816001600160a01b037f0000000000000000000000000000000000000000000000000000000000000000165afa80156104e5576103a49185916104b6575b50613028565b6103ac61361d565b8351917f00000000000000000000000000000000000000000000000000000000000000006001600160a01b0316803b156104b257610412856104249561043682966040519889978896879563e8002b2760e01b875260606004880152606487019061260d565b85810360031901602487015290612c81565b83810360031901604485015290612cae565b03925af180156101db57610499575b50604080830151606084015191517fc77dd947ea8bfd0bd2706c8fad9b1178313fad6bd4cb678b9342239be4f88528929091829161048f9142916001600160a01b031690846135f1565b0390a16001815580f35b816104a391612508565b6104ae57815f610445565b5080fd5b8480fd5b6104d8915060203d6020116104de575b6104d08183612508565b810190612dca565b5f61039e565b503d6104c6565b6040513d86823e3d90fd5b8280fd5b50346101e65760603660031901126101e6576004356001600160401b0381116104ae5761052590369060040161266d565b816024356001600160401b0381116104ae5761054590369060040161270e565b6044356001600160401b0381116104f057610564903690600401612768565b6040516395a8c58d60e01b8152336004820152600160248201526020816044816001600160a01b037f0000000000000000000000000000000000000000000000000000000000000000165afa80156104e5576105c7918591610659575b50612de2565b6105cf61361d565b8351917f00000000000000000000000000000000000000000000000000000000000000006001600160a01b0316803b156104b257610635856106479561043682966040519889978896879563a722652760e01b875260606004880152606487019061260d565b85810360031901602487015290612cae565b83810360031901604485015290612d32565b610672915060203d6020116104de576104d08183612508565b5f6105c1565b50346101e657806106883661289b565b6040516395a8c58d60e01b8152336004820152600260248201529091906020816044816001600160a01b037f0000000000000000000000000000000000000000000000000000000000000000165afa80156104e5576106ee9185916107ad575b50612efa565b6106f661361d565b7f00000000000000000000000000000000000000000000000000000000000000006001600160a01b031691823b156107a85761074b92849283604051809681958294635839821b60e11b845260048401612631565b03925af180156101db57610793575b50604080513381524260208201527f80de2ba789f34a9f5f409d6572f1528526684b7c6d144f87b8f0bab593656b76918190810161048f565b8161079d91612508565b6101e657805f61075a565b505050fd5b6107c6915060203d6020116104de576104d08183612508565b5f6106e8565b50346101e657806003193601126101e6576040517f00000000000000000000000000000000000000000000000000000000000000006001600160a01b03168152602090f35b50346101e657806108213661289b565b6040516395a8c58d60e01b8152336004820152600260248201529091906020816044816001600160a01b037f0000000000000000000000000000000000000000000000000000000000000000165afa80156104e5576108869185916107ad5750612efa565b61088e61361d565b7f00000000000000000000000000000000000000000000000000000000000000006001600160a01b031691823b156107a85761074b928492836040518096819582946309c6b1f160e41b845260048401612631565b50346101e657806108f336612a08565b6040516395a8c58d60e01b815233600482015260026024820152939591949093919290916020816044816001600160a01b037f0000000000000000000000000000000000000000000000000000000000000000165afa80156104e55761095f9185916107ad5750612efa565b61096761361d565b7f00000000000000000000000000000000000000000000000000000000000000006001600160a01b031690813b15610a1c578391869183896109c16040519788968795869463e462dde560e01b8652339360048701613082565b03925af180156101db57610a07575b505061048f7fa4a4ed86dce7c96c7821a45fbbe8394915281a2a2fa758ab0465b199c571abfb9360405193849342913390866130e0565b81610a1191612508565b610a1c57835f6109d0565b8380fd5b50346101e65760a03660031901126101e6576004356001600160401b0381116104ae57610a5190369060040161266d565b610a596126fe565b826044356001600160401b0381116104ae57610a79903690600401612544565b926064356001600160401b0381116104f057610a9990369060040161258a565b6084356001600160401b038111610a1c57610ab890369060040161270e565b6040516395a8c58d60e01b81523360048201525f60248201529092906020816044816001600160a01b037f0000000000000000000000000000000000000000000000000000000000000000165afa8015610c7b57610b1c9186916104b65750613028565b610b2461361d565b8051602082015160408301805160609094015190986001600160a01b03918216967f0000000000000000000000000000000000000000000000000000000000000000909216939091843b15610c775788968793604051998a98899788966364b409ff60e01b88526004880161010090526101048801610ba29161260d565b878103600319016024890152610bb79161260d565b868103600319016044880152610bcc9161260d565b90606486015260ff8d1660848601526003198582030160a4860152610bf09161260d565b8381036003190160c4850152610c0591612c81565b8281036003190160e4840152610c1a91612cae565b03925af180156101db57610c62575b50507ff52a0795d3c1a788d33423aa105be7a0aaa157621a984632251e0c2ed142d04091519061048f6040519283924291339085612ec5565b81610c6c91612508565b6104f057825f610c29565b8880fd5b6040513d87823e3d90fd5b50346101e65760203660031901126101e6576004356001600160401b0381116104ae57610cb7903690600401612544565b610cbf6132ea565b50610cc86132ca565b50610cd1613376565b50606060e0604051610ce28161249a565b82815282602082015282604082015282808201528260808201528260a08201528260c08201520152610d12613357565b50604051637e8f8da760e01b815260206004820152907f00000000000000000000000000000000000000000000000000000000000000006001600160a01b0316838380610d62602482018661260d565b0381845afa9081156104e5578485809481938295610e7f575b610da4969750604051808098819463be2e232560e01b835260206004840152602483019061260d565b03915afa938415610e745786610ddd9795610e42575b505090610e26610e34926101b4959660405198899860a08a5260a08a0190612bcb565b88810360208a0152604060ff81610e12610e00875160608752606087019061260d565b6020880151868203602088015261260d565b950151169101528782036040890152612cae565b908582036060870152612d32565b908382036080850152612c81565b6101b4955091610e6b610e2692610e3495943d8091833e610e638183612508565b8101906134df565b95509192610dba565b6040513d88823e3d90fd5b945094505050503d8085853e610e958185612508565b8301916080848403126104b25783516001600160401b0381116110bc578401906060828503126110bc5760405191610ecc836124b6565b80516001600160401b0381116110b85785610ee8918301612e38565b835260208101516001600160401b0381116110b85781610f0f87604093610f1a9501612e38565b60208601520161313c565b60408301528560208601516001600160401b0381116104ae5785610f3f91880161340d565b9160408701516001600160401b0381116104f057870196610100888803126104f05760405197610f6e8961249a565b80516001600160401b0381116104b25788610f8a918301612e38565b895260208101516001600160401b0381116104b25788610fab918301612e38565b60208a015260408101516001600160401b0381116104b25788610fcf918301612e38565b60408a015260608101516001600160401b0381116104b25788610ff3918301612e38565b60608a015260808101516001600160401b0381116104b25788611017918301612e38565b60808a015260a08101516001600160401b0381116104b2578861103b918301612e38565b60a08a015260c08101516001600160401b0381116104b2578861105f918301612e38565b60c08a015260e0810151906001600160401b0382116104b25761108491899101612e38565b60e08901526060810151966001600160401b038811610a1c57610da4976110ab920161338f565b9392969394879650610d7b565b8780fd5b8580fd5b50346101e65760203660031901126101e6576004356001600160401b0381116104ae576110f1903690600401612544565b6110f96132ea565b506060806040516111098161247f565b8181528160208201528460408201520152611122613357565b5061112b613376565b50606060a060405161113c81612450565b8281528260208201528260408201528280820152826080820152015260018060a01b037f00000000000000000000000000000000000000000000000000000000000000001660405163070c056b60e41b8152602060048201528381806111a5602482018761260d565b0381855afa9081156104e5578492858091819382956112cd575b50956111e99596604051808098819463be2e232560e01b835260206004840152602483019061260d565b03915afa938415610e745786611225979561129f575b505090611283611291926112756101b49697604051998a9960a08b5260a08b0190612bcb565b89810360208b01526060611257611245845160808552608085019061260d565b6020850151848203602086015261260d565b9260ff6040820151166040840152015190606081840391015261260d565b908782036040890152612c81565b908582036060870152612cae565b908382036080850152612cd8565b6101b49550916112756112c36112839361129196953d8091833e610e638183612508565b96505091926111ff565b955093505050503d8085843e6112e38184612508565b8201916080818403126104b25780516001600160401b0381116110bc578101906080828503126110bc576040519161131a8361247f565b80516001600160401b0381116110b85785611336918301612e38565b835260208101516001600160401b0381116110b85785611357918301612e38565b60208401526113686040820161313c565b60408401526060810151906001600160401b0382116110b85761138d91869101612e38565b60608301528560208201516001600160401b0381116104ae57856113b291840161338f565b9560408301516001600160401b0381116104f057866113d291850161340d565b926060810151906001600160401b038211610a1c57019360c0858803126104f0576040519461140086612450565b80516001600160401b0381116104b2578861141c918301612e38565b865260208101516001600160401b0381116104b2578861143d918301612e38565b602087015260408101516001600160401b0381116104b25788611461918301612e38565b604087015260608101516001600160401b0381116104b25788611485918301612e38565b606087015260808101516001600160401b0381116104b257886114a9918301612e38565b608087015260a0810151976001600160401b0389116104b2576111e9986114d09201612e38565b60a0860152969293949096956111bf565b50346101e657806003193601126101e657604051631614181f60e21b815281816004817f00000000000000000000000000000000000000000000000000000000000000006001600160a01b03165afa9081156101db57826101b493926101b857505060405191829182612b40565b50346101e65760203660031901126101e657600435816001600160401b0382116101e6576115846115a6923690600401612544565b604051809381926381fc60a560e01b835260206004840152602483019061260d565b03817f00000000000000000000000000000000000000000000000000000000000000006001600160a01b03165afa9081156101db57826101b493926101b857505060405191829182612b40565b50346101e657611602366128e5565b6040516395a8c58d60e01b8152336004820152600260248201529192916020816044816001600160a01b037f0000000000000000000000000000000000000000000000000000000000000000165afa8015610c7b576116679186916107ad5750612efa565b61166f61361d565b81516020830151604084015160608501805160808701519197899591946001600160a01b0393841694937f00000000000000000000000000000000000000000000000000000000000000001692909190833b156110b8576116eb8896928793604051998a9889978896630173c92160e71b885260048801612f7b565b03925af180156101db57611735575b505061048f7fc8c9ccc57ad2f7823680b448dd87b511b225eb0ac2e99e0aa88e7a26ebc6cbe593519251926040519384934292339086612fe7565b8161173f91612508565b610a1c57835f6116fa565b50346101e65760603660031901126101e657806004356001600160401b03811161197c5761177c903690600401612544565b604435906001600160401b03821161197a5760c0600319833603011261197a57604051916117a983612450565b80600401356001600160401b0381116104b2576117cc9060043691840101612544565b835260248101356001600160401b0381116104b2576117f19060043691840101612544565b602084015260448101356001600160401b0381116104b2576118199060043691840101612544565b604084015260648101356001600160401b0381116104b2576118419060043691840101612544565b606084015260848101356001600160401b0381116104b2576118699060043691840101612544565b608084015260a4810135906001600160401b0382116104b25760046118919236920101612544565b60a08301526040516395a8c58d60e01b81523360048201525f60248201526020816044816001600160a01b037f0000000000000000000000000000000000000000000000000000000000000000165afa80156104e5576118f79185916104b65750613028565b6118ff61361d565b7f00000000000000000000000000000000000000000000000000000000000000006001600160a01b031691823b156107a85761074b92611960858094604051968795869485936312b63c6960e21b855260606004860152606485019061260d565b906024356024850152600319848303016044850152612cd8565b505b50fd5b50346101e6578061198f36612a08565b6040516395a8c58d60e01b815233600482015260026024820152939591949093919290916020816044816001600160a01b037f0000000000000000000000000000000000000000000000000000000000000000165afa80156104e5576119fb9185916107ad5750612efa565b611a0361361d565b7f00000000000000000000000000000000000000000000000000000000000000006001600160a01b031690813b15610a1c578391869183896109c160405197889687958694621acf2560e81b8652339360048701613082565b50346101e65780611a6c3661289b565b6040516395a8c58d60e01b815233600482015260026024820152909291906020816044816001600160a01b037f0000000000000000000000000000000000000000000000000000000000000000165afa8015611b8657611ad29184916107ad5750612efa565b611ada61361d565b7f00000000000000000000000000000000000000000000000000000000000000006001600160a01b0316803b156104f057838391611b2f9383604051809681958294633bb6ff3f60e01b845260048401612631565b03925af180156101db57611b71575b506040517f22c98a0f9900e3db134c94b13ad7aa1f97d90ff9ed2330b80daedf57c6fb1708908061048f42863384612f51565b81611b7b91612508565b6104ae57815f611b3e565b6040513d85823e3d90fd5b50346101e65760203660031901126101e657806004356001600160401b03811161197c57611bc3903690600401612544565b6040516395a8c58d60e01b81523360048201525f60248201526020816044816001600160a01b037f0000000000000000000000000000000000000000000000000000000000000000165afa8015611b8657611c249184916104b65750613028565b611c2c61361d565b7f00000000000000000000000000000000000000000000000000000000000000006001600160a01b0316803b1561197a576040516335d8c34160e01b815260206004820152918391839182908490829061074b90602483019061260d565b50346101e657611c99366128e5565b6040516395a8c58d60e01b8152336004820152600260248201529192916020816044816001600160a01b037f0000000000000000000000000000000000000000000000000000000000000000165afa8015610c7b57611cfe9186916107ad5750612efa565b611d0661361d565b81516020830151604084015160608501805160808701519197899591946001600160a01b0393841694937f00000000000000000000000000000000000000000000000000000000000000001692909190833b156110b8576116eb8896928793604051998a98899788966315c9fbf960e11b885260048801612f7b565b50346101e65760203660031901126101e657806004356001600160401b03811161197c57611db4903690600401612544565b6040516395a8c58d60e01b8152336004820152600160248201526020816044816001600160a01b037f0000000000000000000000000000000000000000000000000000000000000000165afa8015611b8657611e169184916106595750612de2565b611e1e61361d565b7f00000000000000000000000000000000000000000000000000000000000000006001600160a01b0316803b1561197a576040516313c5ca6760e11b815260206004820152918391839182908490829061074b90602483019061260d565b50346101e65780611e8c3661289b565b6040516395a8c58d60e01b815233600482015260026024820152909291906020816044816001600160a01b037f0000000000000000000000000000000000000000000000000000000000000000165afa8015611b8657611ef29184916107ad5750612efa565b611efa61361d565b7f00000000000000000000000000000000000000000000000000000000000000006001600160a01b0316803b156104f057838391611b2f938360405180968195829463252006af60e01b845260048401612631565b50346101e65760803660031901126101e6576004356001600160401b0381116104ae57611f8090369060040161266d565b611f886126fe565b826044356001600160401b0381116104ae57611fa890369060040161270e565b926064356001600160401b0381116104f057611fc8903690600401612768565b6040516395a8c58d60e01b8152336004820152600160248201526020816044816001600160a01b037f0000000000000000000000000000000000000000000000000000000000000000165afa80156104e55761202a9185916106595750612de2565b61203261361d565b8151602083015160408401805160609095015190976001600160a01b0391821695937f00000000000000000000000000000000000000000000000000000000000000009092169291833b156110b857879586926040519889978896879563682053d960e01b87526004870160e0905260e487016120ae9161260d565b8681036003190160248801526120c39161260d565b8581036003190160448701526120d89161260d565b90606485015260ff8c1660848501526003198482030160a48501526120fc91612cae565b8281036003190160c4840152610c1a91612d32565b50346101e65760203660031901126101e6576004356001600160401b0381116104ae579080612147612169933690600401612544565b60405180948192636d1aa7d560e01b835260206004840152602483019061260d565b03817f00000000000000000000000000000000000000000000000000000000000000006001600160a01b03165afa9182156121de578180936121b7575b50506101b460405192839283612631565b9091506121d692503d8091833e6121ce8183612508565b810190612e7e565b905f806121a6565b50604051903d90823e3d90fd5b50346101e65760203660031901126101e6576004356001600160401b0381116104ae579080612147612221933690600401612544565b03817f00000000000000000000000000000000000000000000000000000000000000006001600160a01b03165afa9182156121de578180936121b75750506101b460405192839283612631565b503461240b57606036600319011261240b576004356001600160401b03811161240b5761229f903690600401612544565b6044356001600160401b03811161240b576122be90369060040161258a565b6040516395a8c58d60e01b8152336004820152600160248201529091906020816044816001600160a01b037f0000000000000000000000000000000000000000000000000000000000000000165afa801561240057612323915f916106595750612de2565b61232b61361d565b7f00000000000000000000000000000000000000000000000000000000000000006001600160a01b031691823b1561240b576123a69261238c5f8094604051968795869485936307b11c0b60e01b855260606004860152606485019061260d565b906024356024850152600319848303016044850152612c81565b03925af18015612400576123ed5750604080513381524260208201527f80de2ba789f34a9f5f409d6572f1528526684b7c6d144f87b8f0bab593656b76918190810161048f565b6123f991505f90612508565b5f5f61075a565b6040513d5f823e3d90fd5b5f80fd5b3461240b575f36600319011261240b577f00000000000000000000000000000000000000000000000000000000000000006001600160a01b03168152602090f35b60c081019081106001600160401b0382111761246b57604052565b634e487b7160e01b5f52604160045260245ffd5b608081019081106001600160401b0382111761246b57604052565b61010081019081106001600160401b0382111761246b57604052565b606081019081106001600160401b0382111761246b57604052565b604081019081106001600160401b0382111761246b57604052565b6101a081019081106001600160401b0382111761246b57604052565b90601f801991011681019081106001600160401b0382111761246b57604052565b6001600160401b03811161246b57601f01601f191660200190565b81601f8201121561240b5780359061255b82612529565b926125696040519485612508565b8284526020838301011161240b57815f926020809301838601378301015290565b919060608382031261240b57604051906125a3826124b6565b819380356001600160401b03811161240b57826125c1918301612544565b835260208101356001600160401b03811161240b57826125e2918301612544565b60208401526040810135916001600160401b03831161240b576040926126089201612544565b910152565b805180835260209291819084018484015e5f828201840152601f01601f1916010190565b90916126486126569360408452604084019061260d565b91602081840391015261260d565b90565b35906001600160a01b038216820361240b57565b91909160808184031261240b57604051906126878261247f565b819381356001600160401b03811161240b57816126a5918401612544565b835260208201356001600160401b03811161240b57816126c6918401612544565b60208401526040820135906001600160401b03821161240b57826126f36060949261260894869401612544565b604086015201612659565b6024359060ff8216820361240b57565b919060408382031261240b5760405190612727826124d1565b819380356001600160401b03811161240b5782612745918301612544565b83526020810135916001600160401b03831161240b576020926126089201612544565b91906101008382031261240b57604051906127828261249a565b819380356001600160401b03811161240b57826127a0918301612544565b835260208101356001600160401b03811161240b57826127c1918301612544565b602084015260408101356001600160401b03811161240b57826127e5918301612544565b604084015260608101356001600160401b03811161240b5782612809918301612544565b606084015260808101356001600160401b03811161240b578261282d918301612544565b608084015260a08101356001600160401b03811161240b5782612851918301612544565b60a084015260c08101356001600160401b03811161240b5782612875918301612544565b60c084015260e0810135916001600160401b03831161240b5760e0926126089201612544565b90604060031983011261240b576004356001600160401b03811161240b57826128c691600401612544565b91602435906001600160401b03821161240b5761265691600401612544565b90606060031983011261240b576004356001600160401b03811161240b5760a0818403600319011261240b576040519060a082018281106001600160401b0382111761246b5760405280600401356001600160401b03811161240b5784600461295092840101612544565b825260248101356001600160401b03811161240b5784600461297492840101612544565b602083015260448101356001600160401b03811161240b5784600461299b92840101612544565b604083015260648101356001600160401b03811161240b57816129c88660046084946129d3960101612544565b606085015201612659565b608082015291602435906001600160401b03821161240b576129f791600401612544565b9060443560ff8116810361240b5790565b9060a060031983011261240b576004356001600160401b03811161240b5782612a3391600401612544565b916024356001600160401b03811161240b5781612a5291600401612544565b916044356001600160401b03811161240b5782612a7191600401612544565b91606435906001600160401b03821161240b57612a9091600401612544565b9060843560ff8116810361240b5790565b906009821015612aae5752565b634e487b7160e01b5f52602160045260245ffd5b9060c080612b37612b06612af4612ae2875160e0885260e088019061260d565b6020880151878203602089015261260d565b6040870151868203604088015261260d565b60ff6060870151166060860152612b2560808701516080870190612aa1565b60a086015185820360a087015261260d565b93015191015290565b602081016020825282518091526040820191602060408360051b8301019401925f915b838310612b7257505050505090565b9091929394602080612b90600193603f198682030187528951612ac2565b97019301930191939290612b63565b906040612bb8611245845160608552606085019061260d565b928101516001600160a01b031691015290565b61265691612bda818351612aa1565b6020820151602082015260408201516040820152606082015160608201526080820151608082015260a082015160a082015260c082015160c082015260e082015160e0820152610100820151610100820152610120820151610120820152610180612c6f612c5b6101408501516101a06101408601526101a0850190612b9f565b610160850151848203610160860152612b9f565b9201519061018081840391015261260d565b612656916040612c9d611245845160608552606085019061260d565b92015190604081840391015261260d565b612656916020612cc7835160408452604084019061260d565b92015190602081840391015261260d565b6126569160a0612d21612d0f612cfd612af4612ae2875160c0885260c088019061260d565b6060860151858203606087015261260d565b6080850151848203608086015261260d565b9201519060a081840391015261260d565b6126569160e0612db9612da7612b25612d95612d83612d71612d5f89516101008a526101008a019061260d565b60208a015189820360208b015261260d565b604089015188820360408a015261260d565b6060880151878203606089015261260d565b6080870151868203608088015261260d565b60c085015184820360c086015261260d565b9201519060e081840391015261260d565b9081602091031261240b5751801515810361240b5790565b15612de957565b60405162461bcd60e51b815260206004820152602160248201527f4f6e6c79205042462063616e20646f2074686973207472616e73616374696f6e6044820152602160f81b6064820152608490fd5b81601f8201121561240b57805190612e4f82612529565b92612e5d6040519485612508565b8284526020838301011161240b57815f9260208093018386015e8301015290565b91909160408184031261240b5780516001600160401b03811161240b5783612ea7918301612e38565b9260208201516001600160401b03811161240b576126569201612e38565b90606092959493612ee060ff9260808552608085019061260d565b6001600160a01b0390971660208401521660408201520152565b15612f0157565b60405162461bcd60e51b815260206004820152602260248201527f4f6e6c792042504f4d2063616e20646f2074686973207472616e73616374696f6044820152616e2160f01b6064820152608490fd5b939291612f769060409260018060a01b0316865260606020870152606086019061260d565b930152565b92612fba90612fac612fc894612f9e6126569a989560c0895260c089019061260d565b90878203602089015261260d565b90858203604087015261260d565b90838203606085015261260d565b6001600160a01b03909316608082015280830360a0919091015261260d565b95949360ff608094613005612f76959460a08b5260a08b019061260d565b6001600160a01b0390941660208a0152166040880152868203606088015261260d565b1561302f57565b60405162461bcd60e51b815260206004820152602560248201527f4f6e6c7920466163746f72792063616e20646f2074686973207472616e73616360448201526474696f6e2160d81b6064820152608490fd5b93906080936130b46130d0946130a66130c2949a999a60a08a5260a08a019061260d565b9088820360208a015261260d565b90868203604088015261260d565b90848203606086015261260d565b6001600160a01b03909416910152565b91939061265695936130fc60ff9260a0865260a086019061260d565b6001600160a01b039096166020850152166040830152606082015280830360809091015261260d565b6001600160401b03811161246b5760051b60200190565b519060ff8216820361240b57565b91909160e08184031261240b576040519060e082018281106001600160401b0382111761246b57604052819381516001600160401b03811161240b5781613192918401612e38565b835260208201516001600160401b03811161240b57816131b3918401612e38565b602084015260408201516001600160401b03811161240b57816131d7918401612e38565b60408401526131e86060830161313c565b60608401526080820151600981101561240b57608084015260a0820151916001600160401b03831161240b5761322460c0939284938301612e38565b60a08501520151910152565b60208183031261240b578051906001600160401b03821161240b57019080601f8301121561240b57815161326381613125565b926132716040519485612508565b81845260208085019260051b8201019183831161240b5760208201905b83821061329d57505050505090565b81516001600160401b03811161240b576020916132bf8784809488010161314a565b81520191019061328e565b604051906132d7826124b6565b5f60408360608152606060208201520152565b604051906132f7826124ec565b6060610180835f81525f60208201525f60408201525f838201525f60808201525f60a08201525f60c08201525f60e08201525f6101008201525f61012082015261333f6132ca565b61014082015261334d6132ca565b6101608201520152565b60405190613364826124b6565b60606040838281528260208201520152565b60405190613383826124d1565b60606020838281520152565b919060608382031261240b57604051906133a8826124b6565b819380516001600160401b03811161240b57826133c6918301612e38565b835260208101516001600160401b03811161240b57826133e7918301612e38565b60208401526040810151916001600160401b03831161240b576040926126089201612e38565b919060408382031261240b5760405190613426826124d1565b819380516001600160401b03811161240b5782613444918301612e38565b83526020810151916001600160401b03831161240b576020926126089201612e38565b919060608382031261240b5760405190613480826124b6565b819380516001600160401b03811161240b578261349e918301612e38565b835260208101516001600160401b03811161240b576040926134c1918301612e38565b60208401520151906001600160a01b038216820361240b5760400152565b60208183031261240b578051906001600160401b03821161240b57016101a08183031261240b5760405191613513836124ec565b8151600981101561240b5783526020820151602084015260408201516040840152606082015160608401526080820151608084015260a082015160a084015260c082015160c084015260e082015160e08401526101008201516101008401526101208201516101208401526101408201516001600160401b03811161240b578161359e918401613467565b6101408401526101608201516001600160401b03811161240b57816135c4918401613467565b6101608401526101808201516001600160401b03811161240b576135e89201612e38565b61018082015290565b6136096040929594939560608352606083019061260d565b6001600160a01b0390951660208201520152565b60025f541461362c5760025f55565b633ee5aeb560e01b5f5260045ffdfea2646970667358221220853ff7d5065557593d76a12a23784a9e7cf39b9cfa19c494cb4dc2e70b24c8c964736f6c634300081b0033","opcodes":"PUSH1 0xE0 CALLVALUE PUSH2 0x1BE JUMPI PUSH1 0x1F PUSH2 0x385C CODESIZE DUP2 SWAP1 SUB SWAP2 DUP3 ADD PUSH1 0x1F NOT AND DUP4 ADD SWAP2 PUSH1 0x1 PUSH1 0x1 PUSH1 0x40 SHL SUB DUP4 GT DUP5 DUP5 LT OR PUSH2 0x1C2 JUMPI DUP1 DUP5 SWAP3 PUSH1 0x60 SWAP5 PUSH1 0x40 MSTORE DUP4 CODECOPY DUP2 ADD SUB SLT PUSH2 0x1BE JUMPI PUSH2 0x47 DUP2 PUSH2 0x1D6 JUMP JUMPDEST SWAP1 PUSH2 0x60 PUSH1 0x40 PUSH2 0x59 PUSH1 0x20 DUP5 ADD PUSH2 0x1D6 JUMP JUMPDEST SWAP3 ADD PUSH2 0x1D6 JUMP JUMPDEST PUSH1 0x1 PUSH0 SSTORE PUSH1 0x1 PUSH1 0x1 PUSH1 0xA0 SHL SUB SWAP3 DUP4 AND PUSH1 0x80 MSTORE SWAP1 DUP3 AND PUSH1 0xA0 MSTORE AND PUSH1 0xC0 MSTORE PUSH1 0x40 MLOAD PUSH2 0x3671 SWAP1 DUP2 PUSH2 0x1EB DUP3 CODECOPY PUSH1 0x80 MLOAD DUP2 DUP2 DUP2 PUSH2 0x36B ADD MSTORE DUP2 DUP2 PUSH2 0x58E ADD MSTORE DUP2 DUP2 PUSH2 0x6B5 ADD MSTORE DUP2 DUP2 PUSH2 0x84E ADD MSTORE DUP2 DUP2 PUSH2 0x927 ADD MSTORE DUP2 DUP2 PUSH2 0xAE4 ADD MSTORE DUP2 DUP2 PUSH2 0x162F ADD MSTORE DUP2 DUP2 PUSH2 0x18BF ADD MSTORE DUP2 DUP2 PUSH2 0x19C3 ADD MSTORE DUP2 DUP2 PUSH2 0x1A9A ADD MSTORE DUP2 DUP2 PUSH2 0x1BEC ADD MSTORE DUP2 DUP2 PUSH2 0x1CC6 ADD MSTORE DUP2 DUP2 PUSH2 0x1DDE ADD MSTORE DUP2 DUP2 PUSH2 0x1EBA ADD MSTORE DUP2 DUP2 PUSH2 0x1FF2 ADD MSTORE DUP2 DUP2 PUSH2 0x22EB ADD MSTORE PUSH2 0x2421 ADD MSTORE PUSH1 0xA0 MLOAD DUP2 DUP2 DUP2 PUSH2 0x1FF ADD MSTORE DUP2 DUP2 PUSH2 0x3B1 ADD MSTORE DUP2 DUP2 PUSH2 0x6F8 ADD MSTORE DUP2 DUP2 PUSH2 0x969 ADD MSTORE DUP2 DUP2 PUSH2 0xB47 ADD MSTORE DUP2 DUP2 PUSH2 0x1161 ADD MSTORE DUP2 DUP2 PUSH2 0x1506 ADD MSTORE DUP2 DUP2 PUSH2 0x15AA ADD MSTORE DUP2 DUP2 PUSH2 0x169B ADD MSTORE DUP2 DUP2 PUSH2 0x1901 ADD MSTORE DUP2 DUP2 PUSH2 0x1ADC ADD MSTORE DUP2 DUP2 PUSH2 0x1C2E ADD MSTORE PUSH2 0x216D ADD MSTORE PUSH1 0xC0 MLOAD DUP2 DUP2 DUP2 PUSH2 0x16A ADD MSTORE DUP2 DUP2 PUSH2 0x289 ADD MSTORE DUP2 DUP2 PUSH2 0x5D4 ADD MSTORE DUP2 DUP2 PUSH2 0x7E2 ADD MSTORE DUP2 DUP2 PUSH2 0x890 ADD MSTORE DUP2 DUP2 PUSH2 0xD2A ADD MSTORE DUP2 DUP2 PUSH2 0x1A05 ADD MSTORE DUP2 DUP2 PUSH2 0x1D32 ADD MSTORE DUP2 DUP2 PUSH2 0x1E20 ADD MSTORE DUP2 DUP2 PUSH2 0x1EFC ADD MSTORE DUP2 DUP2 PUSH2 0x2056 ADD MSTORE DUP2 DUP2 PUSH2 0x2225 ADD MSTORE PUSH2 0x232D ADD MSTORE RETURN JUMPDEST PUSH0 DUP1 REVERT JUMPDEST PUSH4 0x4E487B71 PUSH1 0xE0 SHL PUSH0 MSTORE PUSH1 0x41 PUSH1 0x4 MSTORE PUSH1 0x24 PUSH0 REVERT JUMPDEST MLOAD SWAP1 PUSH1 0x1 PUSH1 0x1 PUSH1 0xA0 SHL SUB DUP3 AND DUP3 SUB PUSH2 0x1BE JUMPI JUMP INVALID PUSH1 0x80 DUP1 PUSH1 0x40 MSTORE PUSH1 0x4 CALLDATASIZE LT ISZERO PUSH2 0x12 JUMPI PUSH0 DUP1 REVERT JUMPDEST PUSH0 SWAP1 PUSH0 CALLDATALOAD PUSH1 0xE0 SHR SWAP1 DUP2 PUSH3 0x435DA5 EQ PUSH2 0x240F JUMPI POP DUP1 PUSH4 0x7B11C0B EQ PUSH2 0x226E JUMPI DUP1 PUSH4 0x17D96797 EQ PUSH2 0x21EB JUMPI DUP1 PUSH4 0x1A898044 EQ PUSH2 0x2111 JUMPI DUP1 PUSH4 0x1D430349 EQ PUSH2 0x1F4F JUMPI DUP1 PUSH4 0x252006AF EQ PUSH2 0x1E7C JUMPI DUP1 PUSH4 0x278B94CE EQ PUSH2 0x1D82 JUMPI DUP1 PUSH4 0x2DBCAF0F EQ PUSH2 0x1C8A JUMPI DUP1 PUSH4 0x35D8C341 EQ PUSH2 0x1B91 JUMPI DUP1 PUSH4 0x3BB6FF3F EQ PUSH2 0x1A5C JUMPI DUP1 PUSH4 0x41EE1495 EQ PUSH2 0x197F JUMPI DUP1 PUSH4 0x4AD8F1A4 EQ PUSH2 0x174A JUMPI DUP1 PUSH4 0x4E03317B EQ PUSH2 0x15F3 JUMPI DUP1 PUSH4 0x51C2D326 EQ PUSH2 0x154F JUMPI DUP1 PUSH4 0x5850607C EQ PUSH2 0x14E1 JUMPI DUP1 PUSH4 0x70C056B0 EQ PUSH2 0x10C0 JUMPI DUP1 PUSH4 0x7E8F8DA7 EQ PUSH2 0xC86 JUMPI DUP1 PUSH4 0x87FECD3E EQ PUSH2 0xA20 JUMPI DUP1 PUSH4 0x9C0ABFD8 EQ PUSH2 0x8E3 JUMPI DUP1 PUSH4 0x9C6B1F10 EQ PUSH2 0x811 JUMPI DUP1 PUSH4 0xAF3A1758 EQ PUSH2 0x7CC JUMPI DUP1 PUSH4 0xB0730436 EQ PUSH2 0x678 JUMPI DUP1 PUSH4 0xBBD0B8A9 EQ PUSH2 0x4F4 JUMPI DUP1 PUSH4 0xCB43B77F EQ PUSH2 0x2D2 JUMPI DUP1 PUSH4 0xD0927B19 EQ PUSH2 0x22E JUMPI DUP1 PUSH4 0xD369111D EQ PUSH2 0x1E9 JUMPI PUSH4 0xF14261D2 EQ PUSH2 0x146 JUMPI PUSH0 DUP1 REVERT JUMPDEST CALLVALUE PUSH2 0x1E6 JUMPI DUP1 PUSH1 0x3 NOT CALLDATASIZE ADD SLT PUSH2 0x1E6 JUMPI PUSH1 0x40 MLOAD PUSH4 0x78A130E9 PUSH1 0xE1 SHL DUP2 MSTORE DUP2 DUP2 PUSH1 0x4 DUP2 PUSH32 0x0 PUSH1 0x1 PUSH1 0x1 PUSH1 0xA0 SHL SUB AND GAS STATICCALL SWAP1 DUP2 ISZERO PUSH2 0x1DB JUMPI DUP3 PUSH2 0x1B4 SWAP4 SWAP3 PUSH2 0x1B8 JUMPI JUMPDEST POP POP PUSH1 0x40 MLOAD SWAP2 DUP3 SWAP2 DUP3 PUSH2 0x2B40 JUMP JUMPDEST SUB SWAP1 RETURN JUMPDEST PUSH2 0x1D4 SWAP3 POP RETURNDATASIZE DUP1 SWAP2 DUP4 RETURNDATACOPY PUSH2 0x1CC DUP2 DUP4 PUSH2 0x2508 JUMP JUMPDEST DUP2 ADD SWAP1 PUSH2 0x3230 JUMP JUMPDEST PUSH0 DUP1 PUSH2 0x1A6 JUMP JUMPDEST PUSH1 0x40 MLOAD RETURNDATASIZE DUP5 DUP3 RETURNDATACOPY RETURNDATASIZE SWAP1 REVERT JUMPDEST DUP1 REVERT JUMPDEST POP CALLVALUE PUSH2 0x1E6 JUMPI DUP1 PUSH1 0x3 NOT CALLDATASIZE ADD SLT PUSH2 0x1E6 JUMPI PUSH1 0x40 MLOAD PUSH32 0x0 PUSH1 0x1 PUSH1 0x1 PUSH1 0xA0 SHL SUB AND DUP2 MSTORE PUSH1 0x20 SWAP1 RETURN JUMPDEST POP CALLVALUE PUSH2 0x1E6 JUMPI PUSH1 0x20 CALLDATASIZE PUSH1 0x3 NOT ADD SLT PUSH2 0x1E6 JUMPI PUSH1 0x4 CALLDATALOAD DUP2 PUSH1 0x1 PUSH1 0x1 PUSH1 0x40 SHL SUB DUP3 GT PUSH2 0x1E6 JUMPI PUSH2 0x263 PUSH2 0x285 SWAP3 CALLDATASIZE SWAP1 PUSH1 0x4 ADD PUSH2 0x2544 JUMP JUMPDEST PUSH1 0x40 MLOAD DUP1 SWAP4 DUP2 SWAP3 PUSH4 0x6F12C23 PUSH1 0xE4 SHL DUP4 MSTORE PUSH1 0x20 PUSH1 0x4 DUP5 ADD MSTORE PUSH1 0x24 DUP4 ADD SWAP1 PUSH2 0x260D JUMP JUMPDEST SUB DUP2 PUSH32 0x0 PUSH1 0x1 PUSH1 0x1 PUSH1 0xA0 SHL SUB AND GAS STATICCALL SWAP1 DUP2 ISZERO PUSH2 0x1DB JUMPI DUP3 PUSH2 0x1B4 SWAP4 SWAP3 PUSH2 0x1B8 JUMPI POP POP PUSH1 0x40 MLOAD SWAP2 DUP3 SWAP2 DUP3 PUSH2 0x2B40 JUMP JUMPDEST POP CALLVALUE PUSH2 0x1E6 JUMPI PUSH1 0x60 CALLDATASIZE PUSH1 0x3 NOT ADD SLT PUSH2 0x1E6 JUMPI PUSH1 0x4 CALLDATALOAD PUSH1 0x1 PUSH1 0x1 PUSH1 0x40 SHL SUB DUP2 GT PUSH2 0x4AE JUMPI PUSH2 0x303 SWAP1 CALLDATASIZE SWAP1 PUSH1 0x4 ADD PUSH2 0x266D JUMP JUMPDEST DUP2 PUSH1 0x24 CALLDATALOAD PUSH1 0x1 PUSH1 0x1 PUSH1 0x40 SHL SUB DUP2 GT PUSH2 0x4AE JUMPI PUSH2 0x323 SWAP1 CALLDATASIZE SWAP1 PUSH1 0x4 ADD PUSH2 0x258A JUMP JUMPDEST PUSH1 0x44 CALLDATALOAD PUSH1 0x1 PUSH1 0x1 PUSH1 0x40 SHL SUB DUP2 GT PUSH2 0x4F0 JUMPI PUSH2 0x342 SWAP1 CALLDATASIZE SWAP1 PUSH1 0x4 ADD PUSH2 0x270E JUMP JUMPDEST PUSH1 0x40 MLOAD PUSH4 0x95A8C58D PUSH1 0xE0 SHL DUP2 MSTORE CALLER PUSH1 0x4 DUP3 ADD MSTORE PUSH0 PUSH1 0x24 DUP3 ADD MSTORE PUSH1 0x20 DUP2 PUSH1 0x44 DUP2 PUSH1 0x1 PUSH1 0x1 PUSH1 0xA0 SHL SUB PUSH32 0x0 AND GAS STATICCALL DUP1 ISZERO PUSH2 0x4E5 JUMPI PUSH2 0x3A4 SWAP2 DUP6 SWAP2 PUSH2 0x4B6 JUMPI JUMPDEST POP PUSH2 0x3028 JUMP JUMPDEST PUSH2 0x3AC PUSH2 0x361D JUMP JUMPDEST DUP4 MLOAD SWAP2 PUSH32 0x0 PUSH1 0x1 PUSH1 0x1 PUSH1 0xA0 SHL SUB AND DUP1 EXTCODESIZE ISZERO PUSH2 0x4B2 JUMPI PUSH2 0x412 DUP6 PUSH2 0x424 SWAP6 PUSH2 0x436 DUP3 SWAP7 PUSH1 0x40 MLOAD SWAP9 DUP10 SWAP8 DUP9 SWAP7 DUP8 SWAP6 PUSH4 0xE8002B27 PUSH1 0xE0 SHL DUP8 MSTORE PUSH1 0x60 PUSH1 0x4 DUP9 ADD MSTORE PUSH1 0x64 DUP8 ADD SWAP1 PUSH2 0x260D JUMP JUMPDEST DUP6 DUP2 SUB PUSH1 0x3 NOT ADD PUSH1 0x24 DUP8 ADD MSTORE SWAP1 PUSH2 0x2C81 JUMP JUMPDEST DUP4 DUP2 SUB PUSH1 0x3 NOT ADD PUSH1 0x44 DUP6 ADD MSTORE SWAP1 PUSH2 0x2CAE JUMP JUMPDEST SUB SWAP3 GAS CALL DUP1 ISZERO PUSH2 0x1DB JUMPI PUSH2 0x499 JUMPI JUMPDEST POP PUSH1 0x40 DUP1 DUP4 ADD MLOAD PUSH1 0x60 DUP5 ADD MLOAD SWAP2 MLOAD PUSH32 0xC77DD947EA8BFD0BD2706C8FAD9B1178313FAD6BD4CB678B9342239BE4F88528 SWAP3 SWAP1 SWAP2 DUP3 SWAP2 PUSH2 0x48F SWAP2 TIMESTAMP SWAP2 PUSH1 0x1 PUSH1 0x1 PUSH1 0xA0 SHL SUB AND SWAP1 DUP5 PUSH2 0x35F1 JUMP JUMPDEST SUB SWAP1 LOG1 PUSH1 0x1 DUP2 SSTORE DUP1 RETURN JUMPDEST DUP2 PUSH2 0x4A3 SWAP2 PUSH2 0x2508 JUMP JUMPDEST PUSH2 0x4AE JUMPI DUP2 PUSH0 PUSH2 0x445 JUMP JUMPDEST POP DUP1 REVERT JUMPDEST DUP5 DUP1 REVERT JUMPDEST PUSH2 0x4D8 SWAP2 POP PUSH1 0x20 RETURNDATASIZE PUSH1 0x20 GT PUSH2 0x4DE JUMPI JUMPDEST PUSH2 0x4D0 DUP2 DUP4 PUSH2 0x2508 JUMP JUMPDEST DUP2 ADD SWAP1 PUSH2 0x2DCA JUMP JUMPDEST PUSH0 PUSH2 0x39E JUMP JUMPDEST POP RETURNDATASIZE PUSH2 0x4C6 JUMP JUMPDEST PUSH1 0x40 MLOAD RETURNDATASIZE DUP7 DUP3 RETURNDATACOPY RETURNDATASIZE SWAP1 REVERT JUMPDEST DUP3 DUP1 REVERT JUMPDEST POP CALLVALUE PUSH2 0x1E6 JUMPI PUSH1 0x60 CALLDATASIZE PUSH1 0x3 NOT ADD SLT PUSH2 0x1E6 JUMPI PUSH1 0x4 CALLDATALOAD PUSH1 0x1 PUSH1 0x1 PUSH1 0x40 SHL SUB DUP2 GT PUSH2 0x4AE JUMPI PUSH2 0x525 SWAP1 CALLDATASIZE SWAP1 PUSH1 0x4 ADD PUSH2 0x266D JUMP JUMPDEST DUP2 PUSH1 0x24 CALLDATALOAD PUSH1 0x1 PUSH1 0x1 PUSH1 0x40 SHL SUB DUP2 GT PUSH2 0x4AE JUMPI PUSH2 0x545 SWAP1 CALLDATASIZE SWAP1 PUSH1 0x4 ADD PUSH2 0x270E JUMP JUMPDEST PUSH1 0x44 CALLDATALOAD PUSH1 0x1 PUSH1 0x1 PUSH1 0x40 SHL SUB DUP2 GT PUSH2 0x4F0 JUMPI PUSH2 0x564 SWAP1 CALLDATASIZE SWAP1 PUSH1 0x4 ADD PUSH2 0x2768 JUMP JUMPDEST PUSH1 0x40 MLOAD PUSH4 0x95A8C58D PUSH1 0xE0 SHL DUP2 MSTORE CALLER PUSH1 0x4 DUP3 ADD MSTORE PUSH1 0x1 PUSH1 0x24 DUP3 ADD MSTORE PUSH1 0x20 DUP2 PUSH1 0x44 DUP2 PUSH1 0x1 PUSH1 0x1 PUSH1 0xA0 SHL SUB PUSH32 0x0 AND GAS STATICCALL DUP1 ISZERO PUSH2 0x4E5 JUMPI PUSH2 0x5C7 SWAP2 DUP6 SWAP2 PUSH2 0x659 JUMPI JUMPDEST POP PUSH2 0x2DE2 JUMP JUMPDEST PUSH2 0x5CF PUSH2 0x361D JUMP JUMPDEST DUP4 MLOAD SWAP2 PUSH32 0x0 PUSH1 0x1 PUSH1 0x1 PUSH1 0xA0 SHL SUB AND DUP1 EXTCODESIZE ISZERO PUSH2 0x4B2 JUMPI PUSH2 0x635 DUP6 PUSH2 0x647 SWAP6 PUSH2 0x436 DUP3 SWAP7 PUSH1 0x40 MLOAD SWAP9 DUP10 SWAP8 DUP9 SWAP7 DUP8 SWAP6 PUSH4 0xA7226527 PUSH1 0xE0 SHL DUP8 MSTORE PUSH1 0x60 PUSH1 0x4 DUP9 ADD MSTORE PUSH1 0x64 DUP8 ADD SWAP1 PUSH2 0x260D JUMP JUMPDEST DUP6 DUP2 SUB PUSH1 0x3 NOT ADD PUSH1 0x24 DUP8 ADD MSTORE SWAP1 PUSH2 0x2CAE JUMP JUMPDEST DUP4 DUP2 SUB PUSH1 0x3 NOT ADD PUSH1 0x44 DUP6 ADD MSTORE SWAP1 PUSH2 0x2D32 JUMP JUMPDEST PUSH2 0x672 SWAP2 POP PUSH1 0x20 RETURNDATASIZE PUSH1 0x20 GT PUSH2 0x4DE JUMPI PUSH2 0x4D0 DUP2 DUP4 PUSH2 0x2508 JUMP JUMPDEST PUSH0 PUSH2 0x5C1 JUMP JUMPDEST POP CALLVALUE PUSH2 0x1E6 JUMPI DUP1 PUSH2 0x688 CALLDATASIZE PUSH2 0x289B JUMP JUMPDEST PUSH1 0x40 MLOAD PUSH4 0x95A8C58D PUSH1 0xE0 SHL DUP2 MSTORE CALLER PUSH1 0x4 DUP3 ADD MSTORE PUSH1 0x2 PUSH1 0x24 DUP3 ADD MSTORE SWAP1 SWAP2 SWAP1 PUSH1 0x20 DUP2 PUSH1 0x44 DUP2 PUSH1 0x1 PUSH1 0x1 PUSH1 0xA0 SHL SUB PUSH32 0x0 AND GAS STATICCALL DUP1 ISZERO PUSH2 0x4E5 JUMPI PUSH2 0x6EE SWAP2 DUP6 SWAP2 PUSH2 0x7AD JUMPI JUMPDEST POP PUSH2 0x2EFA JUMP JUMPDEST PUSH2 0x6F6 PUSH2 0x361D JUMP JUMPDEST PUSH32 0x0 PUSH1 0x1 PUSH1 0x1 PUSH1 0xA0 SHL SUB AND SWAP2 DUP3 EXTCODESIZE ISZERO PUSH2 0x7A8 JUMPI PUSH2 0x74B SWAP3 DUP5 SWAP3 DUP4 PUSH1 0x40 MLOAD DUP1 SWAP7 DUP2 SWAP6 DUP3 SWAP5 PUSH4 0x5839821B PUSH1 0xE1 SHL DUP5 MSTORE PUSH1 0x4 DUP5 ADD PUSH2 0x2631 JUMP JUMPDEST SUB SWAP3 GAS CALL DUP1 ISZERO PUSH2 0x1DB JUMPI PUSH2 0x793 JUMPI JUMPDEST POP PUSH1 0x40 DUP1 MLOAD CALLER DUP2 MSTORE TIMESTAMP PUSH1 0x20 DUP3 ADD MSTORE PUSH32 0x80DE2BA789F34A9F5F409D6572F1528526684B7C6D144F87B8F0BAB593656B76 SWAP2 DUP2 SWAP1 DUP2 ADD PUSH2 0x48F JUMP JUMPDEST DUP2 PUSH2 0x79D SWAP2 PUSH2 0x2508 JUMP JUMPDEST PUSH2 0x1E6 JUMPI DUP1 PUSH0 PUSH2 0x75A JUMP JUMPDEST POP POP POP REVERT JUMPDEST PUSH2 0x7C6 SWAP2 POP PUSH1 0x20 RETURNDATASIZE PUSH1 0x20 GT PUSH2 0x4DE JUMPI PUSH2 0x4D0 DUP2 DUP4 PUSH2 0x2508 JUMP JUMPDEST PUSH0 PUSH2 0x6E8 JUMP JUMPDEST POP CALLVALUE PUSH2 0x1E6 JUMPI DUP1 PUSH1 0x3 NOT CALLDATASIZE ADD SLT PUSH2 0x1E6 JUMPI PUSH1 0x40 MLOAD PUSH32 0x0 PUSH1 0x1 PUSH1 0x1 PUSH1 0xA0 SHL SUB AND DUP2 MSTORE PUSH1 0x20 SWAP1 RETURN JUMPDEST POP CALLVALUE PUSH2 0x1E6 JUMPI DUP1 PUSH2 0x821 CALLDATASIZE PUSH2 0x289B JUMP JUMPDEST PUSH1 0x40 MLOAD PUSH4 0x95A8C58D PUSH1 0xE0 SHL DUP2 MSTORE CALLER PUSH1 0x4 DUP3 ADD MSTORE PUSH1 0x2 PUSH1 0x24 DUP3 ADD MSTORE SWAP1 SWAP2 SWAP1 PUSH1 0x20 DUP2 PUSH1 0x44 DUP2 PUSH1 0x1 PUSH1 0x1 PUSH1 0xA0 SHL SUB PUSH32 0x0 AND GAS STATICCALL DUP1 ISZERO PUSH2 0x4E5 JUMPI PUSH2 0x886 SWAP2 DUP6 SWAP2 PUSH2 0x7AD JUMPI POP PUSH2 0x2EFA JUMP JUMPDEST PUSH2 0x88E PUSH2 0x361D JUMP JUMPDEST PUSH32 0x0 PUSH1 0x1 PUSH1 0x1 PUSH1 0xA0 SHL SUB AND SWAP2 DUP3 EXTCODESIZE ISZERO PUSH2 0x7A8 JUMPI PUSH2 0x74B SWAP3 DUP5 SWAP3 DUP4 PUSH1 0x40 MLOAD DUP1 SWAP7 DUP2 SWAP6 DUP3 SWAP5 PUSH4 0x9C6B1F1 PUSH1 0xE4 SHL DUP5 MSTORE PUSH1 0x4 DUP5 ADD PUSH2 0x2631 JUMP JUMPDEST POP CALLVALUE PUSH2 0x1E6 JUMPI DUP1 PUSH2 0x8F3 CALLDATASIZE PUSH2 0x2A08 JUMP JUMPDEST PUSH1 0x40 MLOAD PUSH4 0x95A8C58D PUSH1 0xE0 SHL DUP2 MSTORE CALLER PUSH1 0x4 DUP3 ADD MSTORE PUSH1 0x2 PUSH1 0x24 DUP3 ADD MSTORE SWAP4 SWAP6 SWAP2 SWAP5 SWAP1 SWAP4 SWAP2 SWAP3 SWAP1 SWAP2 PUSH1 0x20 DUP2 PUSH1 0x44 DUP2 PUSH1 0x1 PUSH1 0x1 PUSH1 0xA0 SHL SUB PUSH32 0x0 AND GAS STATICCALL DUP1 ISZERO PUSH2 0x4E5 JUMPI PUSH2 0x95F SWAP2 DUP6 SWAP2 PUSH2 0x7AD JUMPI POP PUSH2 0x2EFA JUMP JUMPDEST PUSH2 0x967 PUSH2 0x361D JUMP JUMPDEST PUSH32 0x0 PUSH1 0x1 PUSH1 0x1 PUSH1 0xA0 SHL SUB AND SWAP1 DUP2 EXTCODESIZE ISZERO PUSH2 0xA1C JUMPI DUP4 SWAP2 DUP7 SWAP2 DUP4 DUP10 PUSH2 0x9C1 PUSH1 0x40 MLOAD SWAP8 DUP9 SWAP7 DUP8 SWAP6 DUP7 SWAP5 PUSH4 0xE462DDE5 PUSH1 0xE0 SHL DUP7 MSTORE CALLER SWAP4 PUSH1 0x4 DUP8 ADD PUSH2 0x3082 JUMP JUMPDEST SUB SWAP3 GAS CALL DUP1 ISZERO PUSH2 0x1DB JUMPI PUSH2 0xA07 JUMPI JUMPDEST POP POP PUSH2 0x48F PUSH32 0xA4A4ED86DCE7C96C7821A45FBBE8394915281A2A2FA758AB0465B199C571ABFB SWAP4 PUSH1 0x40 MLOAD SWAP4 DUP5 SWAP4 TIMESTAMP SWAP2 CALLER SWAP1 DUP7 PUSH2 0x30E0 JUMP JUMPDEST DUP2 PUSH2 0xA11 SWAP2 PUSH2 0x2508 JUMP JUMPDEST PUSH2 0xA1C JUMPI DUP4 PUSH0 PUSH2 0x9D0 JUMP JUMPDEST DUP4 DUP1 REVERT JUMPDEST POP CALLVALUE PUSH2 0x1E6 JUMPI PUSH1 0xA0 CALLDATASIZE PUSH1 0x3 NOT ADD SLT PUSH2 0x1E6 JUMPI PUSH1 0x4 CALLDATALOAD PUSH1 0x1 PUSH1 0x1 PUSH1 0x40 SHL SUB DUP2 GT PUSH2 0x4AE JUMPI PUSH2 0xA51 SWAP1 CALLDATASIZE SWAP1 PUSH1 0x4 ADD PUSH2 0x266D JUMP JUMPDEST PUSH2 0xA59 PUSH2 0x26FE JUMP JUMPDEST DUP3 PUSH1 0x44 CALLDATALOAD PUSH1 0x1 PUSH1 0x1 PUSH1 0x40 SHL SUB DUP2 GT PUSH2 0x4AE JUMPI PUSH2 0xA79 SWAP1 CALLDATASIZE SWAP1 PUSH1 0x4 ADD PUSH2 0x2544 JUMP JUMPDEST SWAP3 PUSH1 0x64 CALLDATALOAD PUSH1 0x1 PUSH1 0x1 PUSH1 0x40 SHL SUB DUP2 GT PUSH2 0x4F0 JUMPI PUSH2 0xA99 SWAP1 CALLDATASIZE SWAP1 PUSH1 0x4 ADD PUSH2 0x258A JUMP JUMPDEST PUSH1 0x84 CALLDATALOAD PUSH1 0x1 PUSH1 0x1 PUSH1 0x40 SHL SUB DUP2 GT PUSH2 0xA1C JUMPI PUSH2 0xAB8 SWAP1 CALLDATASIZE SWAP1 PUSH1 0x4 ADD PUSH2 0x270E JUMP JUMPDEST PUSH1 0x40 MLOAD PUSH4 0x95A8C58D PUSH1 0xE0 SHL DUP2 MSTORE CALLER PUSH1 0x4 DUP3 ADD MSTORE PUSH0 PUSH1 0x24 DUP3 ADD MSTORE SWAP1 SWAP3 SWAP1 PUSH1 0x20 DUP2 PUSH1 0x44 DUP2 PUSH1 0x1 PUSH1 0x1 PUSH1 0xA0 SHL SUB PUSH32 0x0 AND GAS STATICCALL DUP1 ISZERO PUSH2 0xC7B JUMPI PUSH2 0xB1C SWAP2 DUP7 SWAP2 PUSH2 0x4B6 JUMPI POP PUSH2 0x3028 JUMP JUMPDEST PUSH2 0xB24 PUSH2 0x361D JUMP JUMPDEST DUP1 MLOAD PUSH1 0x20 DUP3 ADD MLOAD PUSH1 0x40 DUP4 ADD DUP1 MLOAD PUSH1 0x60 SWAP1 SWAP5 ADD MLOAD SWAP1 SWAP9 PUSH1 0x1 PUSH1 0x1 PUSH1 0xA0 SHL SUB SWAP2 DUP3 AND SWAP7 PUSH32 0x0 SWAP1 SWAP3 AND SWAP4 SWAP1 SWAP2 DUP5 EXTCODESIZE ISZERO PUSH2 0xC77 JUMPI DUP9 SWAP7 DUP8 SWAP4 PUSH1 0x40 MLOAD SWAP10 DUP11 SWAP9 DUP10 SWAP8 DUP9 SWAP7 PUSH4 0x64B409FF PUSH1 0xE0 SHL DUP9 MSTORE PUSH1 0x4 DUP9 ADD PUSH2 0x100 SWAP1 MSTORE PUSH2 0x104 DUP9 ADD PUSH2 0xBA2 SWAP2 PUSH2 0x260D JUMP JUMPDEST DUP8 DUP2 SUB PUSH1 0x3 NOT ADD PUSH1 0x24 DUP10 ADD MSTORE PUSH2 0xBB7 SWAP2 PUSH2 0x260D JUMP JUMPDEST DUP7 DUP2 SUB PUSH1 0x3 NOT ADD PUSH1 0x44 DUP9 ADD MSTORE PUSH2 0xBCC SWAP2 PUSH2 0x260D JUMP JUMPDEST SWAP1 PUSH1 0x64 DUP7 ADD MSTORE PUSH1 0xFF DUP14 AND PUSH1 0x84 DUP7 ADD MSTORE PUSH1 0x3 NOT DUP6 DUP3 SUB ADD PUSH1 0xA4 DUP7 ADD MSTORE PUSH2 0xBF0 SWAP2 PUSH2 0x260D JUMP JUMPDEST DUP4 DUP2 SUB PUSH1 0x3 NOT ADD PUSH1 0xC4 DUP6 ADD MSTORE PUSH2 0xC05 SWAP2 PUSH2 0x2C81 JUMP JUMPDEST DUP3 DUP2 SUB PUSH1 0x3 NOT ADD PUSH1 0xE4 DUP5 ADD MSTORE PUSH2 0xC1A SWAP2 PUSH2 0x2CAE JUMP JUMPDEST SUB SWAP3 GAS CALL DUP1 ISZERO PUSH2 0x1DB JUMPI PUSH2 0xC62 JUMPI JUMPDEST POP POP PUSH32 0xF52A0795D3C1A788D33423AA105BE7A0AAA157621A984632251E0C2ED142D040 SWAP2 MLOAD SWAP1 PUSH2 0x48F PUSH1 0x40 MLOAD SWAP3 DUP4 SWAP3 TIMESTAMP SWAP2 CALLER SWAP1 DUP6 PUSH2 0x2EC5 JUMP JUMPDEST DUP2 PUSH2 0xC6C SWAP2 PUSH2 0x2508 JUMP JUMPDEST PUSH2 0x4F0 JUMPI DUP3 PUSH0 PUSH2 0xC29 JUMP JUMPDEST DUP9 DUP1 REVERT JUMPDEST PUSH1 0x40 MLOAD RETURNDATASIZE DUP8 DUP3 RETURNDATACOPY RETURNDATASIZE SWAP1 REVERT JUMPDEST POP CALLVALUE PUSH2 0x1E6 JUMPI PUSH1 0x20 CALLDATASIZE PUSH1 0x3 NOT ADD SLT PUSH2 0x1E6 JUMPI PUSH1 0x4 CALLDATALOAD PUSH1 0x1 PUSH1 0x1 PUSH1 0x40 SHL SUB DUP2 GT PUSH2 0x4AE JUMPI PUSH2 0xCB7 SWAP1 CALLDATASIZE SWAP1 PUSH1 0x4 ADD PUSH2 0x2544 JUMP JUMPDEST PUSH2 0xCBF PUSH2 0x32EA JUMP JUMPDEST POP PUSH2 0xCC8 PUSH2 0x32CA JUMP JUMPDEST POP PUSH2 0xCD1 PUSH2 0x3376 JUMP JUMPDEST POP PUSH1 0x60 PUSH1 0xE0 PUSH1 0x40 MLOAD PUSH2 0xCE2 DUP2 PUSH2 0x249A JUMP JUMPDEST DUP3 DUP2 MSTORE DUP3 PUSH1 0x20 DUP3 ADD MSTORE DUP3 PUSH1 0x40 DUP3 ADD MSTORE DUP3 DUP1 DUP3 ADD MSTORE DUP3 PUSH1 0x80 DUP3 ADD MSTORE DUP3 PUSH1 0xA0 DUP3 ADD MSTORE DUP3 PUSH1 0xC0 DUP3 ADD MSTORE ADD MSTORE PUSH2 0xD12 PUSH2 0x3357 JUMP JUMPDEST POP PUSH1 0x40 MLOAD PUSH4 0x7E8F8DA7 PUSH1 0xE0 SHL DUP2 MSTORE PUSH1 0x20 PUSH1 0x4 DUP3 ADD MSTORE SWAP1 PUSH32 0x0 PUSH1 0x1 PUSH1 0x1 PUSH1 0xA0 SHL SUB AND DUP4 DUP4 DUP1 PUSH2 0xD62 PUSH1 0x24 DUP3 ADD DUP7 PUSH2 0x260D JUMP JUMPDEST SUB DUP2 DUP5 GAS STATICCALL SWAP1 DUP2 ISZERO PUSH2 0x4E5 JUMPI DUP5 DUP6 DUP1 SWAP5 DUP2 SWAP4 DUP3 SWAP6 PUSH2 0xE7F JUMPI JUMPDEST PUSH2 0xDA4 SWAP7 SWAP8 POP PUSH1 0x40 MLOAD DUP1 DUP1 SWAP9 DUP2 SWAP5 PUSH4 0xBE2E2325 PUSH1 0xE0 SHL DUP4 MSTORE PUSH1 0x20 PUSH1 0x4 DUP5 ADD MSTORE PUSH1 0x24 DUP4 ADD SWAP1 PUSH2 0x260D JUMP JUMPDEST SUB SWAP2 GAS STATICCALL SWAP4 DUP5 ISZERO PUSH2 0xE74 JUMPI DUP7 PUSH2 0xDDD SWAP8 SWAP6 PUSH2 0xE42 JUMPI JUMPDEST POP POP SWAP1 PUSH2 0xE26 PUSH2 0xE34 SWAP3 PUSH2 0x1B4 SWAP6 SWAP7 PUSH1 0x40 MLOAD SWAP9 DUP10 SWAP9 PUSH1 0xA0 DUP11 MSTORE PUSH1 0xA0 DUP11 ADD SWAP1 PUSH2 0x2BCB JUMP JUMPDEST DUP9 DUP2 SUB PUSH1 0x20 DUP11 ADD MSTORE PUSH1 0x40 PUSH1 0xFF DUP2 PUSH2 0xE12 PUSH2 0xE00 DUP8 MLOAD PUSH1 0x60 DUP8 MSTORE PUSH1 0x60 DUP8 ADD SWAP1 PUSH2 0x260D JUMP JUMPDEST PUSH1 0x20 DUP9 ADD MLOAD DUP7 DUP3 SUB PUSH1 0x20 DUP9 ADD MSTORE PUSH2 0x260D JUMP JUMPDEST SWAP6 ADD MLOAD AND SWAP2 ADD MSTORE DUP8 DUP3 SUB PUSH1 0x40 DUP10 ADD MSTORE PUSH2 0x2CAE JUMP JUMPDEST SWAP1 DUP6 DUP3 SUB PUSH1 0x60 DUP8 ADD MSTORE PUSH2 0x2D32 JUMP JUMPDEST SWAP1 DUP4 DUP3 SUB PUSH1 0x80 DUP6 ADD MSTORE PUSH2 0x2C81 JUMP JUMPDEST PUSH2 0x1B4 SWAP6 POP SWAP2 PUSH2 0xE6B PUSH2 0xE26 SWAP3 PUSH2 0xE34 SWAP6 SWAP5 RETURNDATASIZE DUP1 SWAP2 DUP4 RETURNDATACOPY PUSH2 0xE63 DUP2 DUP4 PUSH2 0x2508 JUMP JUMPDEST DUP2 ADD SWAP1 PUSH2 0x34DF JUMP JUMPDEST SWAP6 POP SWAP2 SWAP3 PUSH2 0xDBA JUMP JUMPDEST PUSH1 0x40 MLOAD RETURNDATASIZE DUP9 DUP3 RETURNDATACOPY RETURNDATASIZE SWAP1 REVERT JUMPDEST SWAP5 POP SWAP5 POP POP POP POP RETURNDATASIZE DUP1 DUP6 DUP6 RETURNDATACOPY PUSH2 0xE95 DUP2 DUP6 PUSH2 0x2508 JUMP JUMPDEST DUP4 ADD SWAP2 PUSH1 0x80 DUP5 DUP5 SUB SLT PUSH2 0x4B2 JUMPI DUP4 MLOAD PUSH1 0x1 PUSH1 0x1 PUSH1 0x40 SHL SUB DUP2 GT PUSH2 0x10BC JUMPI DUP5 ADD SWAP1 PUSH1 0x60 DUP3 DUP6 SUB SLT PUSH2 0x10BC JUMPI PUSH1 0x40 MLOAD SWAP2 PUSH2 0xECC DUP4 PUSH2 0x24B6 JUMP JUMPDEST DUP1 MLOAD PUSH1 0x1 PUSH1 0x1 PUSH1 0x40 SHL SUB DUP2 GT PUSH2 0x10B8 JUMPI DUP6 PUSH2 0xEE8 SWAP2 DUP4 ADD PUSH2 0x2E38 JUMP JUMPDEST DUP4 MSTORE PUSH1 0x20 DUP2 ADD MLOAD PUSH1 0x1 PUSH1 0x1 PUSH1 0x40 SHL SUB DUP2 GT PUSH2 0x10B8 JUMPI DUP2 PUSH2 0xF0F DUP8 PUSH1 0x40 SWAP4 PUSH2 0xF1A SWAP6 ADD PUSH2 0x2E38 JUMP JUMPDEST PUSH1 0x20 DUP7 ADD MSTORE ADD PUSH2 0x313C JUMP JUMPDEST PUSH1 0x40 DUP4 ADD MSTORE DUP6 PUSH1 0x20 DUP7 ADD MLOAD PUSH1 0x1 PUSH1 0x1 PUSH1 0x40 SHL SUB DUP2 GT PUSH2 0x4AE JUMPI DUP6 PUSH2 0xF3F SWAP2 DUP9 ADD PUSH2 0x340D JUMP JUMPDEST SWAP2 PUSH1 0x40 DUP8 ADD MLOAD PUSH1 0x1 PUSH1 0x1 PUSH1 0x40 SHL SUB DUP2 GT PUSH2 0x4F0 JUMPI DUP8 ADD SWAP7 PUSH2 0x100 DUP9 DUP9 SUB SLT PUSH2 0x4F0 JUMPI PUSH1 0x40 MLOAD SWAP8 PUSH2 0xF6E DUP10 PUSH2 0x249A JUMP JUMPDEST DUP1 MLOAD PUSH1 0x1 PUSH1 0x1 PUSH1 0x40 SHL SUB DUP2 GT PUSH2 0x4B2 JUMPI DUP9 PUSH2 0xF8A SWAP2 DUP4 ADD PUSH2 0x2E38 JUMP JUMPDEST DUP10 MSTORE PUSH1 0x20 DUP2 ADD MLOAD PUSH1 0x1 PUSH1 0x1 PUSH1 0x40 SHL SUB DUP2 GT PUSH2 0x4B2 JUMPI DUP9 PUSH2 0xFAB SWAP2 DUP4 ADD PUSH2 0x2E38 JUMP JUMPDEST PUSH1 0x20 DUP11 ADD MSTORE PUSH1 0x40 DUP2 ADD MLOAD PUSH1 0x1 PUSH1 0x1 PUSH1 0x40 SHL SUB DUP2 GT PUSH2 0x4B2 JUMPI DUP9 PUSH2 0xFCF SWAP2 DUP4 ADD PUSH2 0x2E38 JUMP JUMPDEST PUSH1 0x40 DUP11 ADD MSTORE PUSH1 0x60 DUP2 ADD MLOAD PUSH1 0x1 PUSH1 0x1 PUSH1 0x40 SHL SUB DUP2 GT PUSH2 0x4B2 JUMPI DUP9 PUSH2 0xFF3 SWAP2 DUP4 ADD PUSH2 0x2E38 JUMP JUMPDEST PUSH1 0x60 DUP11 ADD MSTORE PUSH1 0x80 DUP2 ADD MLOAD PUSH1 0x1 PUSH1 0x1 PUSH1 0x40 SHL SUB DUP2 GT PUSH2 0x4B2 JUMPI DUP9 PUSH2 0x1017 SWAP2 DUP4 ADD PUSH2 0x2E38 JUMP JUMPDEST PUSH1 0x80 DUP11 ADD MSTORE PUSH1 0xA0 DUP2 ADD MLOAD PUSH1 0x1 PUSH1 0x1 PUSH1 0x40 SHL SUB DUP2 GT PUSH2 0x4B2 JUMPI DUP9 PUSH2 0x103B SWAP2 DUP4 ADD PUSH2 0x2E38 JUMP JUMPDEST PUSH1 0xA0 DUP11 ADD MSTORE PUSH1 0xC0 DUP2 ADD MLOAD PUSH1 0x1 PUSH1 0x1 PUSH1 0x40 SHL SUB DUP2 GT PUSH2 0x4B2 JUMPI DUP9 PUSH2 0x105F SWAP2 DUP4 ADD PUSH2 0x2E38 JUMP JUMPDEST PUSH1 0xC0 DUP11 ADD MSTORE PUSH1 0xE0 DUP2 ADD MLOAD SWAP1 PUSH1 0x1 PUSH1 0x1 PUSH1 0x40 SHL SUB DUP3 GT PUSH2 0x4B2 JUMPI PUSH2 0x1084 SWAP2 DUP10 SWAP2 ADD PUSH2 0x2E38 JUMP JUMPDEST PUSH1 0xE0 DUP10 ADD MSTORE PUSH1 0x60 DUP2 ADD MLOAD SWAP7 PUSH1 0x1 PUSH1 0x1 PUSH1 0x40 SHL SUB DUP9 GT PUSH2 0xA1C JUMPI PUSH2 0xDA4 SWAP8 PUSH2 0x10AB SWAP3 ADD PUSH2 0x338F JUMP JUMPDEST SWAP4 SWAP3 SWAP7 SWAP4 SWAP5 DUP8 SWAP7 POP PUSH2 0xD7B JUMP JUMPDEST DUP8 DUP1 REVERT JUMPDEST DUP6 DUP1 REVERT JUMPDEST POP CALLVALUE PUSH2 0x1E6 JUMPI PUSH1 0x20 CALLDATASIZE PUSH1 0x3 NOT ADD SLT PUSH2 0x1E6 JUMPI PUSH1 0x4 CALLDATALOAD PUSH1 0x1 PUSH1 0x1 PUSH1 0x40 SHL SUB DUP2 GT PUSH2 0x4AE JUMPI PUSH2 0x10F1 SWAP1 CALLDATASIZE SWAP1 PUSH1 0x4 ADD PUSH2 0x2544 JUMP JUMPDEST PUSH2 0x10F9 PUSH2 0x32EA JUMP JUMPDEST POP PUSH1 0x60 DUP1 PUSH1 0x40 MLOAD PUSH2 0x1109 DUP2 PUSH2 0x247F JUMP JUMPDEST DUP2 DUP2 MSTORE DUP2 PUSH1 0x20 DUP3 ADD MSTORE DUP5 PUSH1 0x40 DUP3 ADD MSTORE ADD MSTORE PUSH2 0x1122 PUSH2 0x3357 JUMP JUMPDEST POP PUSH2 0x112B PUSH2 0x3376 JUMP JUMPDEST POP PUSH1 0x60 PUSH1 0xA0 PUSH1 0x40 MLOAD PUSH2 0x113C DUP2 PUSH2 0x2450 JUMP JUMPDEST DUP3 DUP2 MSTORE DUP3 PUSH1 0x20 DUP3 ADD MSTORE DUP3 PUSH1 0x40 DUP3 ADD MSTORE DUP3 DUP1 DUP3 ADD MSTORE DUP3 PUSH1 0x80 DUP3 ADD MSTORE ADD MSTORE PUSH1 0x1 DUP1 PUSH1 0xA0 SHL SUB PUSH32 0x0 AND PUSH1 0x40 MLOAD PUSH4 0x70C056B PUSH1 0xE4 SHL DUP2 MSTORE PUSH1 0x20 PUSH1 0x4 DUP3 ADD MSTORE DUP4 DUP2 DUP1 PUSH2 0x11A5 PUSH1 0x24 DUP3 ADD DUP8 PUSH2 0x260D JUMP JUMPDEST SUB DUP2 DUP6 GAS STATICCALL SWAP1 DUP2 ISZERO PUSH2 0x4E5 JUMPI DUP5 SWAP3 DUP6 DUP1 SWAP2 DUP2 SWAP4 DUP3 SWAP6 PUSH2 0x12CD JUMPI JUMPDEST POP SWAP6 PUSH2 0x11E9 SWAP6 SWAP7 PUSH1 0x40 MLOAD DUP1 DUP1 SWAP9 DUP2 SWAP5 PUSH4 0xBE2E2325 PUSH1 0xE0 SHL DUP4 MSTORE PUSH1 0x20 PUSH1 0x4 DUP5 ADD MSTORE PUSH1 0x24 DUP4 ADD SWAP1 PUSH2 0x260D JUMP JUMPDEST SUB SWAP2 GAS STATICCALL SWAP4 DUP5 ISZERO PUSH2 0xE74 JUMPI DUP7 PUSH2 0x1225 SWAP8 SWAP6 PUSH2 0x129F JUMPI JUMPDEST POP POP SWAP1 PUSH2 0x1283 PUSH2 0x1291 SWAP3 PUSH2 0x1275 PUSH2 0x1B4 SWAP7 SWAP8 PUSH1 0x40 MLOAD SWAP10 DUP11 SWAP10 PUSH1 0xA0 DUP12 MSTORE PUSH1 0xA0 DUP12 ADD SWAP1 PUSH2 0x2BCB JUMP JUMPDEST DUP10 DUP2 SUB PUSH1 0x20 DUP12 ADD MSTORE PUSH1 0x60 PUSH2 0x1257 PUSH2 0x1245 DUP5 MLOAD PUSH1 0x80 DUP6 MSTORE PUSH1 0x80 DUP6 ADD SWAP1 PUSH2 0x260D JUMP JUMPDEST PUSH1 0x20 DUP6 ADD MLOAD DUP5 DUP3 SUB PUSH1 0x20 DUP7 ADD MSTORE PUSH2 0x260D JUMP JUMPDEST SWAP3 PUSH1 0xFF PUSH1 0x40 DUP3 ADD MLOAD AND PUSH1 0x40 DUP5 ADD MSTORE ADD MLOAD SWAP1 PUSH1 0x60 DUP2 DUP5 SUB SWAP2 ADD MSTORE PUSH2 0x260D JUMP JUMPDEST SWAP1 DUP8 DUP3 SUB PUSH1 0x40 DUP10 ADD MSTORE PUSH2 0x2C81 JUMP JUMPDEST SWAP1 DUP6 DUP3 SUB PUSH1 0x60 DUP8 ADD MSTORE PUSH2 0x2CAE JUMP JUMPDEST SWAP1 DUP4 DUP3 SUB PUSH1 0x80 DUP6 ADD MSTORE PUSH2 0x2CD8 JUMP JUMPDEST PUSH2 0x1B4 SWAP6 POP SWAP2 PUSH2 0x1275 PUSH2 0x12C3 PUSH2 0x1283 SWAP4 PUSH2 0x1291 SWAP7 SWAP6 RETURNDATASIZE DUP1 SWAP2 DUP4 RETURNDATACOPY PUSH2 0xE63 DUP2 DUP4 PUSH2 0x2508 JUMP JUMPDEST SWAP7 POP POP SWAP2 SWAP3 PUSH2 0x11FF JUMP JUMPDEST SWAP6 POP SWAP4 POP POP POP POP RETURNDATASIZE DUP1 DUP6 DUP5 RETURNDATACOPY PUSH2 0x12E3 DUP2 DUP5 PUSH2 0x2508 JUMP JUMPDEST DUP3 ADD SWAP2 PUSH1 0x80 DUP2 DUP5 SUB SLT PUSH2 0x4B2 JUMPI DUP1 MLOAD PUSH1 0x1 PUSH1 0x1 PUSH1 0x40 SHL SUB DUP2 GT PUSH2 0x10BC JUMPI DUP2 ADD SWAP1 PUSH1 0x80 DUP3 DUP6 SUB SLT PUSH2 0x10BC JUMPI PUSH1 0x40 MLOAD SWAP2 PUSH2 0x131A DUP4 PUSH2 0x247F JUMP JUMPDEST DUP1 MLOAD PUSH1 0x1 PUSH1 0x1 PUSH1 0x40 SHL SUB DUP2 GT PUSH2 0x10B8 JUMPI DUP6 PUSH2 0x1336 SWAP2 DUP4 ADD PUSH2 0x2E38 JUMP JUMPDEST DUP4 MSTORE PUSH1 0x20 DUP2 ADD MLOAD PUSH1 0x1 PUSH1 0x1 PUSH1 0x40 SHL SUB DUP2 GT PUSH2 0x10B8 JUMPI DUP6 PUSH2 0x1357 SWAP2 DUP4 ADD PUSH2 0x2E38 JUMP JUMPDEST PUSH1 0x20 DUP5 ADD MSTORE PUSH2 0x1368 PUSH1 0x40 DUP3 ADD PUSH2 0x313C JUMP JUMPDEST PUSH1 0x40 DUP5 ADD MSTORE PUSH1 0x60 DUP2 ADD MLOAD SWAP1 PUSH1 0x1 PUSH1 0x1 PUSH1 0x40 SHL SUB DUP3 GT PUSH2 0x10B8 JUMPI PUSH2 0x138D SWAP2 DUP7 SWAP2 ADD PUSH2 0x2E38 JUMP JUMPDEST PUSH1 0x60 DUP4 ADD MSTORE DUP6 PUSH1 0x20 DUP3 ADD MLOAD PUSH1 0x1 PUSH1 0x1 PUSH1 0x40 SHL SUB DUP2 GT PUSH2 0x4AE JUMPI DUP6 PUSH2 0x13B2 SWAP2 DUP5 ADD PUSH2 0x338F JUMP JUMPDEST SWAP6 PUSH1 0x40 DUP4 ADD MLOAD PUSH1 0x1 PUSH1 0x1 PUSH1 0x40 SHL SUB DUP2 GT PUSH2 0x4F0 JUMPI DUP7 PUSH2 0x13D2 SWAP2 DUP6 ADD PUSH2 0x340D JUMP JUMPDEST SWAP3 PUSH1 0x60 DUP2 ADD MLOAD SWAP1 PUSH1 0x1 PUSH1 0x1 PUSH1 0x40 SHL SUB DUP3 GT PUSH2 0xA1C JUMPI ADD SWAP4 PUSH1 0xC0 DUP6 DUP9 SUB SLT PUSH2 0x4F0 JUMPI PUSH1 0x40 MLOAD SWAP5 PUSH2 0x1400 DUP7 PUSH2 0x2450 JUMP JUMPDEST DUP1 MLOAD PUSH1 0x1 PUSH1 0x1 PUSH1 0x40 SHL SUB DUP2 GT PUSH2 0x4B2 JUMPI DUP9 PUSH2 0x141C SWAP2 DUP4 ADD PUSH2 0x2E38 JUMP JUMPDEST DUP7 MSTORE PUSH1 0x20 DUP2 ADD MLOAD PUSH1 0x1 PUSH1 0x1 PUSH1 0x40 SHL SUB DUP2 GT PUSH2 0x4B2 JUMPI DUP9 PUSH2 0x143D SWAP2 DUP4 ADD PUSH2 0x2E38 JUMP JUMPDEST PUSH1 0x20 DUP8 ADD MSTORE PUSH1 0x40 DUP2 ADD MLOAD PUSH1 0x1 PUSH1 0x1 PUSH1 0x40 SHL SUB DUP2 GT PUSH2 0x4B2 JUMPI DUP9 PUSH2 0x1461 SWAP2 DUP4 ADD PUSH2 0x2E38 JUMP JUMPDEST PUSH1 0x40 DUP8 ADD MSTORE PUSH1 0x60 DUP2 ADD MLOAD PUSH1 0x1 PUSH1 0x1 PUSH1 0x40 SHL SUB DUP2 GT PUSH2 0x4B2 JUMPI DUP9 PUSH2 0x1485 SWAP2 DUP4 ADD PUSH2 0x2E38 JUMP JUMPDEST PUSH1 0x60 DUP8 ADD MSTORE PUSH1 0x80 DUP2 ADD MLOAD PUSH1 0x1 PUSH1 0x1 PUSH1 0x40 SHL SUB DUP2 GT PUSH2 0x4B2 JUMPI DUP9 PUSH2 0x14A9 SWAP2 DUP4 ADD PUSH2 0x2E38 JUMP JUMPDEST PUSH1 0x80 DUP8 ADD MSTORE PUSH1 0xA0 DUP2 ADD MLOAD SWAP8 PUSH1 0x1 PUSH1 0x1 PUSH1 0x40 SHL SUB DUP10 GT PUSH2 0x4B2 JUMPI PUSH2 0x11E9 SWAP9 PUSH2 0x14D0 SWAP3 ADD PUSH2 0x2E38 JUMP JUMPDEST PUSH1 0xA0 DUP7 ADD MSTORE SWAP7 SWAP3 SWAP4 SWAP5 SWAP1 SWAP7 SWAP6 PUSH2 0x11BF JUMP JUMPDEST POP CALLVALUE PUSH2 0x1E6 JUMPI DUP1 PUSH1 0x3 NOT CALLDATASIZE ADD SLT PUSH2 0x1E6 JUMPI PUSH1 0x40 MLOAD PUSH4 0x1614181F PUSH1 0xE2 SHL DUP2 MSTORE DUP2 DUP2 PUSH1 0x4 DUP2 PUSH32 0x0 PUSH1 0x1 PUSH1 0x1 PUSH1 0xA0 SHL SUB AND GAS STATICCALL SWAP1 DUP2 ISZERO PUSH2 0x1DB JUMPI DUP3 PUSH2 0x1B4 SWAP4 SWAP3 PUSH2 0x1B8 JUMPI POP POP PUSH1 0x40 MLOAD SWAP2 DUP3 SWAP2 DUP3 PUSH2 0x2B40 JUMP JUMPDEST POP CALLVALUE PUSH2 0x1E6 JUMPI PUSH1 0x20 CALLDATASIZE PUSH1 0x3 NOT ADD SLT PUSH2 0x1E6 JUMPI PUSH1 0x4 CALLDATALOAD DUP2 PUSH1 0x1 PUSH1 0x1 PUSH1 0x40 SHL SUB DUP3 GT PUSH2 0x1E6 JUMPI PUSH2 0x1584 PUSH2 0x15A6 SWAP3 CALLDATASIZE SWAP1 PUSH1 0x4 ADD PUSH2 0x2544 JUMP JUMPDEST PUSH1 0x40 MLOAD DUP1 SWAP4 DUP2 SWAP3 PUSH4 0x81FC60A5 PUSH1 0xE0 SHL DUP4 MSTORE PUSH1 0x20 PUSH1 0x4 DUP5 ADD MSTORE PUSH1 0x24 DUP4 ADD SWAP1 PUSH2 0x260D JUMP JUMPDEST SUB DUP2 PUSH32 0x0 PUSH1 0x1 PUSH1 0x1 PUSH1 0xA0 SHL SUB AND GAS STATICCALL SWAP1 DUP2 ISZERO PUSH2 0x1DB JUMPI DUP3 PUSH2 0x1B4 SWAP4 SWAP3 PUSH2 0x1B8 JUMPI POP POP PUSH1 0x40 MLOAD SWAP2 DUP3 SWAP2 DUP3 PUSH2 0x2B40 JUMP JUMPDEST POP CALLVALUE PUSH2 0x1E6 JUMPI PUSH2 0x1602 CALLDATASIZE PUSH2 0x28E5 JUMP JUMPDEST PUSH1 0x40 MLOAD PUSH4 0x95A8C58D PUSH1 0xE0 SHL DUP2 MSTORE CALLER PUSH1 0x4 DUP3 ADD MSTORE PUSH1 0x2 PUSH1 0x24 DUP3 ADD MSTORE SWAP2 SWAP3 SWAP2 PUSH1 0x20 DUP2 PUSH1 0x44 DUP2 PUSH1 0x1 PUSH1 0x1 PUSH1 0xA0 SHL SUB PUSH32 0x0 AND GAS STATICCALL DUP1 ISZERO PUSH2 0xC7B JUMPI PUSH2 0x1667 SWAP2 DUP7 SWAP2 PUSH2 0x7AD JUMPI POP PUSH2 0x2EFA JUMP JUMPDEST PUSH2 0x166F PUSH2 0x361D JUMP JUMPDEST DUP2 MLOAD PUSH1 0x20 DUP4 ADD MLOAD PUSH1 0x40 DUP5 ADD MLOAD PUSH1 0x60 DUP6 ADD DUP1 MLOAD PUSH1 0x80 DUP8 ADD MLOAD SWAP2 SWAP8 DUP10 SWAP6 SWAP2 SWAP5 PUSH1 0x1 PUSH1 0x1 PUSH1 0xA0 SHL SUB SWAP4 DUP5 AND SWAP5 SWAP4 PUSH32 0x0 AND SWAP3 SWAP1 SWAP2 SWAP1 DUP4 EXTCODESIZE ISZERO PUSH2 0x10B8 JUMPI PUSH2 0x16EB DUP9 SWAP7 SWAP3 DUP8 SWAP4 PUSH1 0x40 MLOAD SWAP10 DUP11 SWAP9 DUP10 SWAP8 DUP9 SWAP7 PUSH4 0x173C921 PUSH1 0xE7 SHL DUP9 MSTORE PUSH1 0x4 DUP9 ADD PUSH2 0x2F7B JUMP JUMPDEST SUB SWAP3 GAS CALL DUP1 ISZERO PUSH2 0x1DB JUMPI PUSH2 0x1735 JUMPI JUMPDEST POP POP PUSH2 0x48F PUSH32 0xC8C9CCC57AD2F7823680B448DD87B511B225EB0AC2E99E0AA88E7A26EBC6CBE5 SWAP4 MLOAD SWAP3 MLOAD SWAP3 PUSH1 0x40 MLOAD SWAP4 DUP5 SWAP4 TIMESTAMP SWAP3 CALLER SWAP1 DUP7 PUSH2 0x2FE7 JUMP JUMPDEST DUP2 PUSH2 0x173F SWAP2 PUSH2 0x2508 JUMP JUMPDEST PUSH2 0xA1C JUMPI DUP4 PUSH0 PUSH2 0x16FA JUMP JUMPDEST POP CALLVALUE PUSH2 0x1E6 JUMPI PUSH1 0x60 CALLDATASIZE PUSH1 0x3 NOT ADD SLT PUSH2 0x1E6 JUMPI DUP1 PUSH1 0x4 CALLDATALOAD PUSH1 0x1 PUSH1 0x1 PUSH1 0x40 SHL SUB DUP2 GT PUSH2 0x197C JUMPI PUSH2 0x177C SWAP1 CALLDATASIZE SWAP1 PUSH1 0x4 ADD PUSH2 0x2544 JUMP JUMPDEST PUSH1 0x44 CALLDATALOAD SWAP1 PUSH1 0x1 PUSH1 0x1 PUSH1 0x40 SHL SUB DUP3 GT PUSH2 0x197A JUMPI PUSH1 0xC0 PUSH1 0x3 NOT DUP4 CALLDATASIZE SUB ADD SLT PUSH2 0x197A JUMPI PUSH1 0x40 MLOAD SWAP2 PUSH2 0x17A9 DUP4 PUSH2 0x2450 JUMP JUMPDEST DUP1 PUSH1 0x4 ADD CALLDATALOAD PUSH1 0x1 PUSH1 0x1 PUSH1 0x40 SHL SUB DUP2 GT PUSH2 0x4B2 JUMPI PUSH2 0x17CC SWAP1 PUSH1 0x4 CALLDATASIZE SWAP2 DUP5 ADD ADD PUSH2 0x2544 JUMP JUMPDEST DUP4 MSTORE PUSH1 0x24 DUP2 ADD CALLDATALOAD PUSH1 0x1 PUSH1 0x1 PUSH1 0x40 SHL SUB DUP2 GT PUSH2 0x4B2 JUMPI PUSH2 0x17F1 SWAP1 PUSH1 0x4 CALLDATASIZE SWAP2 DUP5 ADD ADD PUSH2 0x2544 JUMP JUMPDEST PUSH1 0x20 DUP5 ADD MSTORE PUSH1 0x44 DUP2 ADD CALLDATALOAD PUSH1 0x1 PUSH1 0x1 PUSH1 0x40 SHL SUB DUP2 GT PUSH2 0x4B2 JUMPI PUSH2 0x1819 SWAP1 PUSH1 0x4 CALLDATASIZE SWAP2 DUP5 ADD ADD PUSH2 0x2544 JUMP JUMPDEST PUSH1 0x40 DUP5 ADD MSTORE PUSH1 0x64 DUP2 ADD CALLDATALOAD PUSH1 0x1 PUSH1 0x1 PUSH1 0x40 SHL SUB DUP2 GT PUSH2 0x4B2 JUMPI PUSH2 0x1841 SWAP1 PUSH1 0x4 CALLDATASIZE SWAP2 DUP5 ADD ADD PUSH2 0x2544 JUMP JUMPDEST PUSH1 0x60 DUP5 ADD MSTORE PUSH1 0x84 DUP2 ADD CALLDATALOAD PUSH1 0x1 PUSH1 0x1 PUSH1 0x40 SHL SUB DUP2 GT PUSH2 0x4B2 JUMPI PUSH2 0x1869 SWAP1 PUSH1 0x4 CALLDATASIZE SWAP2 DUP5 ADD ADD PUSH2 0x2544 JUMP JUMPDEST PUSH1 0x80 DUP5 ADD MSTORE PUSH1 0xA4 DUP2 ADD CALLDATALOAD SWAP1 PUSH1 0x1 PUSH1 0x1 PUSH1 0x40 SHL SUB DUP3 GT PUSH2 0x4B2 JUMPI PUSH1 0x4 PUSH2 0x1891 SWAP3 CALLDATASIZE SWAP3 ADD ADD PUSH2 0x2544 JUMP JUMPDEST PUSH1 0xA0 DUP4 ADD MSTORE PUSH1 0x40 MLOAD PUSH4 0x95A8C58D PUSH1 0xE0 SHL DUP2 MSTORE CALLER PUSH1 0x4 DUP3 ADD MSTORE PUSH0 PUSH1 0x24 DUP3 ADD MSTORE PUSH1 0x20 DUP2 PUSH1 0x44 DUP2 PUSH1 0x1 PUSH1 0x1 PUSH1 0xA0 SHL SUB PUSH32 0x0 AND GAS STATICCALL DUP1 ISZERO PUSH2 0x4E5 JUMPI PUSH2 0x18F7 SWAP2 DUP6 SWAP2 PUSH2 0x4B6 JUMPI POP PUSH2 0x3028 JUMP JUMPDEST PUSH2 0x18FF PUSH2 0x361D JUMP JUMPDEST PUSH32 0x0 PUSH1 0x1 PUSH1 0x1 PUSH1 0xA0 SHL SUB AND SWAP2 DUP3 EXTCODESIZE ISZERO PUSH2 0x7A8 JUMPI PUSH2 0x74B SWAP3 PUSH2 0x1960 DUP6 DUP1 SWAP5 PUSH1 0x40 MLOAD SWAP7 DUP8 SWAP6 DUP7 SWAP5 DUP6 SWAP4 PUSH4 0x12B63C69 PUSH1 0xE2 SHL DUP6 MSTORE PUSH1 0x60 PUSH1 0x4 DUP7 ADD MSTORE PUSH1 0x64 DUP6 ADD SWAP1 PUSH2 0x260D JUMP JUMPDEST SWAP1 PUSH1 0x24 CALLDATALOAD PUSH1 0x24 DUP6 ADD MSTORE PUSH1 0x3 NOT DUP5 DUP4 SUB ADD PUSH1 0x44 DUP6 ADD MSTORE PUSH2 0x2CD8 JUMP JUMPDEST POP JUMPDEST POP REVERT JUMPDEST POP CALLVALUE PUSH2 0x1E6 JUMPI DUP1 PUSH2 0x198F CALLDATASIZE PUSH2 0x2A08 JUMP JUMPDEST PUSH1 0x40 MLOAD PUSH4 0x95A8C58D PUSH1 0xE0 SHL DUP2 MSTORE CALLER PUSH1 0x4 DUP3 ADD MSTORE PUSH1 0x2 PUSH1 0x24 DUP3 ADD MSTORE SWAP4 SWAP6 SWAP2 SWAP5 SWAP1 SWAP4 SWAP2 SWAP3 SWAP1 SWAP2 PUSH1 0x20 DUP2 PUSH1 0x44 DUP2 PUSH1 0x1 PUSH1 0x1 PUSH1 0xA0 SHL SUB PUSH32 0x0 AND GAS STATICCALL DUP1 ISZERO PUSH2 0x4E5 JUMPI PUSH2 0x19FB SWAP2 DUP6 SWAP2 PUSH2 0x7AD JUMPI POP PUSH2 0x2EFA JUMP JUMPDEST PUSH2 0x1A03 PUSH2 0x361D JUMP JUMPDEST PUSH32 0x0 PUSH1 0x1 PUSH1 0x1 PUSH1 0xA0 SHL SUB AND SWAP1 DUP2 EXTCODESIZE ISZERO PUSH2 0xA1C JUMPI DUP4 SWAP2 DUP7 SWAP2 DUP4 DUP10 PUSH2 0x9C1 PUSH1 0x40 MLOAD SWAP8 DUP9 SWAP7 DUP8 SWAP6 DUP7 SWAP5 PUSH3 0x1ACF25 PUSH1 0xE8 SHL DUP7 MSTORE CALLER SWAP4 PUSH1 0x4 DUP8 ADD PUSH2 0x3082 JUMP JUMPDEST POP CALLVALUE PUSH2 0x1E6 JUMPI DUP1 PUSH2 0x1A6C CALLDATASIZE PUSH2 0x289B JUMP JUMPDEST PUSH1 0x40 MLOAD PUSH4 0x95A8C58D PUSH1 0xE0 SHL DUP2 MSTORE CALLER PUSH1 0x4 DUP3 ADD MSTORE PUSH1 0x2 PUSH1 0x24 DUP3 ADD MSTORE SWAP1 SWAP3 SWAP2 SWAP1 PUSH1 0x20 DUP2 PUSH1 0x44 DUP2 PUSH1 0x1 PUSH1 0x1 PUSH1 0xA0 SHL SUB PUSH32 0x0 AND GAS STATICCALL DUP1 ISZERO PUSH2 0x1B86 JUMPI PUSH2 0x1AD2 SWAP2 DUP5 SWAP2 PUSH2 0x7AD JUMPI POP PUSH2 0x2EFA JUMP JUMPDEST PUSH2 0x1ADA PUSH2 0x361D JUMP JUMPDEST PUSH32 0x0 PUSH1 0x1 PUSH1 0x1 PUSH1 0xA0 SHL SUB AND DUP1 EXTCODESIZE ISZERO PUSH2 0x4F0 JUMPI DUP4 DUP4 SWAP2 PUSH2 0x1B2F SWAP4 DUP4 PUSH1 0x40 MLOAD DUP1 SWAP7 DUP2 SWAP6 DUP3 SWAP5 PUSH4 0x3BB6FF3F PUSH1 0xE0 SHL DUP5 MSTORE PUSH1 0x4 DUP5 ADD PUSH2 0x2631 JUMP JUMPDEST SUB SWAP3 GAS CALL DUP1 ISZERO PUSH2 0x1DB JUMPI PUSH2 0x1B71 JUMPI JUMPDEST POP PUSH1 0x40 MLOAD PUSH32 0x22C98A0F9900E3DB134C94B13AD7AA1F97D90FF9ED2330B80DAEDF57C6FB1708 SWAP1 DUP1 PUSH2 0x48F TIMESTAMP DUP7 CALLER DUP5 PUSH2 0x2F51 JUMP JUMPDEST DUP2 PUSH2 0x1B7B SWAP2 PUSH2 0x2508 JUMP JUMPDEST PUSH2 0x4AE JUMPI DUP2 PUSH0 PUSH2 0x1B3E JUMP JUMPDEST PUSH1 0x40 MLOAD RETURNDATASIZE DUP6 DUP3 RETURNDATACOPY RETURNDATASIZE SWAP1 REVERT JUMPDEST POP CALLVALUE PUSH2 0x1E6 JUMPI PUSH1 0x20 CALLDATASIZE PUSH1 0x3 NOT ADD SLT PUSH2 0x1E6 JUMPI DUP1 PUSH1 0x4 CALLDATALOAD PUSH1 0x1 PUSH1 0x1 PUSH1 0x40 SHL SUB DUP2 GT PUSH2 0x197C JUMPI PUSH2 0x1BC3 SWAP1 CALLDATASIZE SWAP1 PUSH1 0x4 ADD PUSH2 0x2544 JUMP JUMPDEST PUSH1 0x40 MLOAD PUSH4 0x95A8C58D PUSH1 0xE0 SHL DUP2 MSTORE CALLER PUSH1 0x4 DUP3 ADD MSTORE PUSH0 PUSH1 0x24 DUP3 ADD MSTORE PUSH1 0x20 DUP2 PUSH1 0x44 DUP2 PUSH1 0x1 PUSH1 0x1 PUSH1 0xA0 SHL SUB PUSH32 0x0 AND GAS STATICCALL DUP1 ISZERO PUSH2 0x1B86 JUMPI PUSH2 0x1C24 SWAP2 DUP5 SWAP2 PUSH2 0x4B6 JUMPI POP PUSH2 0x3028 JUMP JUMPDEST PUSH2 0x1C2C PUSH2 0x361D JUMP JUMPDEST PUSH32 0x0 PUSH1 0x1 PUSH1 0x1 PUSH1 0xA0 SHL SUB AND DUP1 EXTCODESIZE ISZERO PUSH2 0x197A JUMPI PUSH1 0x40 MLOAD PUSH4 0x35D8C341 PUSH1 0xE0 SHL DUP2 MSTORE PUSH1 0x20 PUSH1 0x4 DUP3 ADD MSTORE SWAP2 DUP4 SWAP2 DUP4 SWAP2 DUP3 SWAP1 DUP5 SWAP1 DUP3 SWAP1 PUSH2 0x74B SWAP1 PUSH1 0x24 DUP4 ADD SWAP1 PUSH2 0x260D JUMP JUMPDEST POP CALLVALUE PUSH2 0x1E6 JUMPI PUSH2 0x1C99 CALLDATASIZE PUSH2 0x28E5 JUMP JUMPDEST PUSH1 0x40 MLOAD PUSH4 0x95A8C58D PUSH1 0xE0 SHL DUP2 MSTORE CALLER PUSH1 0x4 DUP3 ADD MSTORE PUSH1 0x2 PUSH1 0x24 DUP3 ADD MSTORE SWAP2 SWAP3 SWAP2 PUSH1 0x20 DUP2 PUSH1 0x44 DUP2 PUSH1 0x1 PUSH1 0x1 PUSH1 0xA0 SHL SUB PUSH32 0x0 AND GAS STATICCALL DUP1 ISZERO PUSH2 0xC7B JUMPI PUSH2 0x1CFE SWAP2 DUP7 SWAP2 PUSH2 0x7AD JUMPI POP PUSH2 0x2EFA JUMP JUMPDEST PUSH2 0x1D06 PUSH2 0x361D JUMP JUMPDEST DUP2 MLOAD PUSH1 0x20 DUP4 ADD MLOAD PUSH1 0x40 DUP5 ADD MLOAD PUSH1 0x60 DUP6 ADD DUP1 MLOAD PUSH1 0x80 DUP8 ADD MLOAD SWAP2 SWAP8 DUP10 SWAP6 SWAP2 SWAP5 PUSH1 0x1 PUSH1 0x1 PUSH1 0xA0 SHL SUB SWAP4 DUP5 AND SWAP5 SWAP4 PUSH32 0x0 AND SWAP3 SWAP1 SWAP2 SWAP1 DUP4 EXTCODESIZE ISZERO PUSH2 0x10B8 JUMPI PUSH2 0x16EB DUP9 SWAP7 SWAP3 DUP8 SWAP4 PUSH1 0x40 MLOAD SWAP10 DUP11 SWAP9 DUP10 SWAP8 DUP9 SWAP7 PUSH4 0x15C9FBF9 PUSH1 0xE1 SHL DUP9 MSTORE PUSH1 0x4 DUP9 ADD PUSH2 0x2F7B JUMP JUMPDEST POP CALLVALUE PUSH2 0x1E6 JUMPI PUSH1 0x20 CALLDATASIZE PUSH1 0x3 NOT ADD SLT PUSH2 0x1E6 JUMPI DUP1 PUSH1 0x4 CALLDATALOAD PUSH1 0x1 PUSH1 0x1 PUSH1 0x40 SHL SUB DUP2 GT PUSH2 0x197C JUMPI PUSH2 0x1DB4 SWAP1 CALLDATASIZE SWAP1 PUSH1 0x4 ADD PUSH2 0x2544 JUMP JUMPDEST PUSH1 0x40 MLOAD PUSH4 0x95A8C58D PUSH1 0xE0 SHL DUP2 MSTORE CALLER PUSH1 0x4 DUP3 ADD MSTORE PUSH1 0x1 PUSH1 0x24 DUP3 ADD MSTORE PUSH1 0x20 DUP2 PUSH1 0x44 DUP2 PUSH1 0x1 PUSH1 0x1 PUSH1 0xA0 SHL SUB PUSH32 0x0 AND GAS STATICCALL DUP1 ISZERO PUSH2 0x1B86 JUMPI PUSH2 0x1E16 SWAP2 DUP5 SWAP2 PUSH2 0x659 JUMPI POP PUSH2 0x2DE2 JUMP JUMPDEST PUSH2 0x1E1E PUSH2 0x361D JUMP JUMPDEST PUSH32 0x0 PUSH1 0x1 PUSH1 0x1 PUSH1 0xA0 SHL SUB AND DUP1 EXTCODESIZE ISZERO PUSH2 0x197A JUMPI PUSH1 0x40 MLOAD PUSH4 0x13C5CA67 PUSH1 0xE1 SHL DUP2 MSTORE PUSH1 0x20 PUSH1 0x4 DUP3 ADD MSTORE SWAP2 DUP4 SWAP2 DUP4 SWAP2 DUP3 SWAP1 DUP5 SWAP1 DUP3 SWAP1 PUSH2 0x74B SWAP1 PUSH1 0x24 DUP4 ADD SWAP1 PUSH2 0x260D JUMP JUMPDEST POP CALLVALUE PUSH2 0x1E6 JUMPI DUP1 PUSH2 0x1E8C CALLDATASIZE PUSH2 0x289B JUMP JUMPDEST PUSH1 0x40 MLOAD PUSH4 0x95A8C58D PUSH1 0xE0 SHL DUP2 MSTORE CALLER PUSH1 0x4 DUP3 ADD MSTORE PUSH1 0x2 PUSH1 0x24 DUP3 ADD MSTORE SWAP1 SWAP3 SWAP2 SWAP1 PUSH1 0x20 DUP2 PUSH1 0x44 DUP2 PUSH1 0x1 PUSH1 0x1 PUSH1 0xA0 SHL SUB PUSH32 0x0 AND GAS STATICCALL DUP1 ISZERO PUSH2 0x1B86 JUMPI PUSH2 0x1EF2 SWAP2 DUP5 SWAP2 PUSH2 0x7AD JUMPI POP PUSH2 0x2EFA JUMP JUMPDEST PUSH2 0x1EFA PUSH2 0x361D JUMP JUMPDEST PUSH32 0x0 PUSH1 0x1 PUSH1 0x1 PUSH1 0xA0 SHL SUB AND DUP1 EXTCODESIZE ISZERO PUSH2 0x4F0 JUMPI DUP4 DUP4 SWAP2 PUSH2 0x1B2F SWAP4 DUP4 PUSH1 0x40 MLOAD DUP1 SWAP7 DUP2 SWAP6 DUP3 SWAP5 PUSH4 0x252006AF PUSH1 0xE0 SHL DUP5 MSTORE PUSH1 0x4 DUP5 ADD PUSH2 0x2631 JUMP JUMPDEST POP CALLVALUE PUSH2 0x1E6 JUMPI PUSH1 0x80 CALLDATASIZE PUSH1 0x3 NOT ADD SLT PUSH2 0x1E6 JUMPI PUSH1 0x4 CALLDATALOAD PUSH1 0x1 PUSH1 0x1 PUSH1 0x40 SHL SUB DUP2 GT PUSH2 0x4AE JUMPI PUSH2 0x1F80 SWAP1 CALLDATASIZE SWAP1 PUSH1 0x4 ADD PUSH2 0x266D JUMP JUMPDEST PUSH2 0x1F88 PUSH2 0x26FE JUMP JUMPDEST DUP3 PUSH1 0x44 CALLDATALOAD PUSH1 0x1 PUSH1 0x1 PUSH1 0x40 SHL SUB DUP2 GT PUSH2 0x4AE JUMPI PUSH2 0x1FA8 SWAP1 CALLDATASIZE SWAP1 PUSH1 0x4 ADD PUSH2 0x270E JUMP JUMPDEST SWAP3 PUSH1 0x64 CALLDATALOAD PUSH1 0x1 PUSH1 0x1 PUSH1 0x40 SHL SUB DUP2 GT PUSH2 0x4F0 JUMPI PUSH2 0x1FC8 SWAP1 CALLDATASIZE SWAP1 PUSH1 0x4 ADD PUSH2 0x2768 JUMP JUMPDEST PUSH1 0x40 MLOAD PUSH4 0x95A8C58D PUSH1 0xE0 SHL DUP2 MSTORE CALLER PUSH1 0x4 DUP3 ADD MSTORE PUSH1 0x1 PUSH1 0x24 DUP3 ADD MSTORE PUSH1 0x20 DUP2 PUSH1 0x44 DUP2 PUSH1 0x1 PUSH1 0x1 PUSH1 0xA0 SHL SUB PUSH32 0x0 AND GAS STATICCALL DUP1 ISZERO PUSH2 0x4E5 JUMPI PUSH2 0x202A SWAP2 DUP6 SWAP2 PUSH2 0x659 JUMPI POP PUSH2 0x2DE2 JUMP JUMPDEST PUSH2 0x2032 PUSH2 0x361D JUMP JUMPDEST DUP2 MLOAD PUSH1 0x20 DUP4 ADD MLOAD PUSH1 0x40 DUP5 ADD DUP1 MLOAD PUSH1 0x60 SWAP1 SWAP6 ADD MLOAD SWAP1 SWAP8 PUSH1 0x1 PUSH1 0x1 PUSH1 0xA0 SHL SUB SWAP2 DUP3 AND SWAP6 SWAP4 PUSH32 0x0 SWAP1 SWAP3 AND SWAP3 SWAP2 DUP4 EXTCODESIZE ISZERO PUSH2 0x10B8 JUMPI DUP8 SWAP6 DUP7 SWAP3 PUSH1 0x40 MLOAD SWAP9 DUP10 SWAP8 DUP9 SWAP7 DUP8 SWAP6 PUSH4 0x682053D9 PUSH1 0xE0 SHL DUP8 MSTORE PUSH1 0x4 DUP8 ADD PUSH1 0xE0 SWAP1 MSTORE PUSH1 0xE4 DUP8 ADD PUSH2 0x20AE SWAP2 PUSH2 0x260D JUMP JUMPDEST DUP7 DUP2 SUB PUSH1 0x3 NOT ADD PUSH1 0x24 DUP9 ADD MSTORE PUSH2 0x20C3 SWAP2 PUSH2 0x260D JUMP JUMPDEST DUP6 DUP2 SUB PUSH1 0x3 NOT ADD PUSH1 0x44 DUP8 ADD MSTORE PUSH2 0x20D8 SWAP2 PUSH2 0x260D JUMP JUMPDEST SWAP1 PUSH1 0x64 DUP6 ADD MSTORE PUSH1 0xFF DUP13 AND PUSH1 0x84 DUP6 ADD MSTORE PUSH1 0x3 NOT DUP5 DUP3 SUB ADD PUSH1 0xA4 DUP6 ADD MSTORE PUSH2 0x20FC SWAP2 PUSH2 0x2CAE JUMP JUMPDEST DUP3 DUP2 SUB PUSH1 0x3 NOT ADD PUSH1 0xC4 DUP5 ADD MSTORE PUSH2 0xC1A SWAP2 PUSH2 0x2D32 JUMP JUMPDEST POP CALLVALUE PUSH2 0x1E6 JUMPI PUSH1 0x20 CALLDATASIZE PUSH1 0x3 NOT ADD SLT PUSH2 0x1E6 JUMPI PUSH1 0x4 CALLDATALOAD PUSH1 0x1 PUSH1 0x1 PUSH1 0x40 SHL SUB DUP2 GT PUSH2 0x4AE JUMPI SWAP1 DUP1 PUSH2 0x2147 PUSH2 0x2169 SWAP4 CALLDATASIZE SWAP1 PUSH1 0x4 ADD PUSH2 0x2544 JUMP JUMPDEST PUSH1 0x40 MLOAD DUP1 SWAP5 DUP2 SWAP3 PUSH4 0x6D1AA7D5 PUSH1 0xE0 SHL DUP4 MSTORE PUSH1 0x20 PUSH1 0x4 DUP5 ADD MSTORE PUSH1 0x24 DUP4 ADD SWAP1 PUSH2 0x260D JUMP JUMPDEST SUB DUP2 PUSH32 0x0 PUSH1 0x1 PUSH1 0x1 PUSH1 0xA0 SHL SUB AND GAS STATICCALL SWAP2 DUP3 ISZERO PUSH2 0x21DE JUMPI DUP2 DUP1 SWAP4 PUSH2 0x21B7 JUMPI JUMPDEST POP POP PUSH2 0x1B4 PUSH1 0x40 MLOAD SWAP3 DUP4 SWAP3 DUP4 PUSH2 0x2631 JUMP JUMPDEST SWAP1 SWAP2 POP PUSH2 0x21D6 SWAP3 POP RETURNDATASIZE DUP1 SWAP2 DUP4 RETURNDATACOPY PUSH2 0x21CE DUP2 DUP4 PUSH2 0x2508 JUMP JUMPDEST DUP2 ADD SWAP1 PUSH2 0x2E7E JUMP JUMPDEST SWAP1 PUSH0 DUP1 PUSH2 0x21A6 JUMP JUMPDEST POP PUSH1 0x40 MLOAD SWAP1 RETURNDATASIZE SWAP1 DUP3 RETURNDATACOPY RETURNDATASIZE SWAP1 REVERT JUMPDEST POP CALLVALUE PUSH2 0x1E6 JUMPI PUSH1 0x20 CALLDATASIZE PUSH1 0x3 NOT ADD SLT PUSH2 0x1E6 JUMPI PUSH1 0x4 CALLDATALOAD PUSH1 0x1 PUSH1 0x1 PUSH1 0x40 SHL SUB DUP2 GT PUSH2 0x4AE JUMPI SWAP1 DUP1 PUSH2 0x2147 PUSH2 0x2221 SWAP4 CALLDATASIZE SWAP1 PUSH1 0x4 ADD PUSH2 0x2544 JUMP JUMPDEST SUB DUP2 PUSH32 0x0 PUSH1 0x1 PUSH1 0x1 PUSH1 0xA0 SHL SUB AND GAS STATICCALL SWAP2 DUP3 ISZERO PUSH2 0x21DE JUMPI DUP2 DUP1 SWAP4 PUSH2 0x21B7 JUMPI POP POP PUSH2 0x1B4 PUSH1 0x40 MLOAD SWAP3 DUP4 SWAP3 DUP4 PUSH2 0x2631 JUMP JUMPDEST POP CALLVALUE PUSH2 0x240B JUMPI PUSH1 0x60 CALLDATASIZE PUSH1 0x3 NOT ADD SLT PUSH2 0x240B JUMPI PUSH1 0x4 CALLDATALOAD PUSH1 0x1 PUSH1 0x1 PUSH1 0x40 SHL SUB DUP2 GT PUSH2 0x240B JUMPI PUSH2 0x229F SWAP1 CALLDATASIZE SWAP1 PUSH1 0x4 ADD PUSH2 0x2544 JUMP JUMPDEST PUSH1 0x44 CALLDATALOAD PUSH1 0x1 PUSH1 0x1 PUSH1 0x40 SHL SUB DUP2 GT PUSH2 0x240B JUMPI PUSH2 0x22BE SWAP1 CALLDATASIZE SWAP1 PUSH1 0x4 ADD PUSH2 0x258A JUMP JUMPDEST PUSH1 0x40 MLOAD PUSH4 0x95A8C58D PUSH1 0xE0 SHL DUP2 MSTORE CALLER PUSH1 0x4 DUP3 ADD MSTORE PUSH1 0x1 PUSH1 0x24 DUP3 ADD MSTORE SWAP1 SWAP2 SWAP1 PUSH1 0x20 DUP2 PUSH1 0x44 DUP2 PUSH1 0x1 PUSH1 0x1 PUSH1 0xA0 SHL SUB PUSH32 0x0 AND GAS STATICCALL DUP1 ISZERO PUSH2 0x2400 JUMPI PUSH2 0x2323 SWAP2 PUSH0 SWAP2 PUSH2 0x659 JUMPI POP PUSH2 0x2DE2 JUMP JUMPDEST PUSH2 0x232B PUSH2 0x361D JUMP JUMPDEST PUSH32 0x0 PUSH1 0x1 PUSH1 0x1 PUSH1 0xA0 SHL SUB AND SWAP2 DUP3 EXTCODESIZE ISZERO PUSH2 0x240B JUMPI PUSH2 0x23A6 SWAP3 PUSH2 0x238C PUSH0 DUP1 SWAP5 PUSH1 0x40 MLOAD SWAP7 DUP8 SWAP6 DUP7 SWAP5 DUP6 SWAP4 PUSH4 0x7B11C0B PUSH1 0xE0 SHL DUP6 MSTORE PUSH1 0x60 PUSH1 0x4 DUP7 ADD MSTORE PUSH1 0x64 DUP6 ADD SWAP1 PUSH2 0x260D JUMP JUMPDEST SWAP1 PUSH1 0x24 CALLDATALOAD PUSH1 0x24 DUP6 ADD MSTORE PUSH1 0x3 NOT DUP5 DUP4 SUB ADD PUSH1 0x44 DUP6 ADD MSTORE PUSH2 0x2C81 JUMP JUMPDEST SUB SWAP3 GAS CALL DUP1 ISZERO PUSH2 0x2400 JUMPI PUSH2 0x23ED JUMPI POP PUSH1 0x40 DUP1 MLOAD CALLER DUP2 MSTORE TIMESTAMP PUSH1 0x20 DUP3 ADD MSTORE PUSH32 0x80DE2BA789F34A9F5F409D6572F1528526684B7C6D144F87B8F0BAB593656B76 SWAP2 DUP2 SWAP1 DUP2 ADD PUSH2 0x48F JUMP JUMPDEST PUSH2 0x23F9 SWAP2 POP PUSH0 SWAP1 PUSH2 0x2508 JUMP JUMPDEST PUSH0 PUSH0 PUSH2 0x75A JUMP JUMPDEST PUSH1 0x40 MLOAD RETURNDATASIZE PUSH0 DUP3 RETURNDATACOPY RETURNDATASIZE SWAP1 REVERT JUMPDEST PUSH0 DUP1 REVERT JUMPDEST CALLVALUE PUSH2 0x240B JUMPI PUSH0 CALLDATASIZE PUSH1 0x3 NOT ADD SLT PUSH2 0x240B JUMPI PUSH32 0x0 PUSH1 0x1 PUSH1 0x1 PUSH1 0xA0 SHL SUB AND DUP2 MSTORE PUSH1 0x20 SWAP1 RETURN JUMPDEST PUSH1 0xC0 DUP2 ADD SWAP1 DUP2 LT PUSH1 0x1 PUSH1 0x1 PUSH1 0x40 SHL SUB DUP3 GT OR PUSH2 0x246B JUMPI PUSH1 0x40 MSTORE JUMP JUMPDEST PUSH4 0x4E487B71 PUSH1 0xE0 SHL PUSH0 MSTORE PUSH1 0x41 PUSH1 0x4 MSTORE PUSH1 0x24 PUSH0 REVERT JUMPDEST PUSH1 0x80 DUP2 ADD SWAP1 DUP2 LT PUSH1 0x1 PUSH1 0x1 PUSH1 0x40 SHL SUB DUP3 GT OR PUSH2 0x246B JUMPI PUSH1 0x40 MSTORE JUMP JUMPDEST PUSH2 0x100 DUP2 ADD SWAP1 DUP2 LT PUSH1 0x1 PUSH1 0x1 PUSH1 0x40 SHL SUB DUP3 GT OR PUSH2 0x246B JUMPI PUSH1 0x40 MSTORE JUMP JUMPDEST PUSH1 0x60 DUP2 ADD SWAP1 DUP2 LT PUSH1 0x1 PUSH1 0x1 PUSH1 0x40 SHL SUB DUP3 GT OR PUSH2 0x246B JUMPI PUSH1 0x40 MSTORE JUMP JUMPDEST PUSH1 0x40 DUP2 ADD SWAP1 DUP2 LT PUSH1 0x1 PUSH1 0x1 PUSH1 0x40 SHL SUB DUP3 GT OR PUSH2 0x246B JUMPI PUSH1 0x40 MSTORE JUMP JUMPDEST PUSH2 0x1A0 DUP2 ADD SWAP1 DUP2 LT PUSH1 0x1 PUSH1 0x1 PUSH1 0x40 SHL SUB DUP3 GT OR PUSH2 0x246B JUMPI PUSH1 0x40 MSTORE JUMP JUMPDEST SWAP1 PUSH1 0x1F DUP1 NOT SWAP2 ADD AND DUP2 ADD SWAP1 DUP2 LT PUSH1 0x1 PUSH1 0x1 PUSH1 0x40 SHL SUB DUP3 GT OR PUSH2 0x246B JUMPI PUSH1 0x40 MSTORE JUMP JUMPDEST PUSH1 0x1 PUSH1 0x1 PUSH1 0x40 SHL SUB DUP2 GT PUSH2 0x246B JUMPI PUSH1 0x1F ADD PUSH1 0x1F NOT AND PUSH1 0x20 ADD SWAP1 JUMP JUMPDEST DUP2 PUSH1 0x1F DUP3 ADD SLT ISZERO PUSH2 0x240B JUMPI DUP1 CALLDATALOAD SWAP1 PUSH2 0x255B DUP3 PUSH2 0x2529 JUMP JUMPDEST SWAP3 PUSH2 0x2569 PUSH1 0x40 MLOAD SWAP5 DUP6 PUSH2 0x2508 JUMP JUMPDEST DUP3 DUP5 MSTORE PUSH1 0x20 DUP4 DUP4 ADD ADD GT PUSH2 0x240B JUMPI DUP2 PUSH0 SWAP3 PUSH1 0x20 DUP1 SWAP4 ADD DUP4 DUP7 ADD CALLDATACOPY DUP4 ADD ADD MSTORE SWAP1 JUMP JUMPDEST SWAP2 SWAP1 PUSH1 0x60 DUP4 DUP3 SUB SLT PUSH2 0x240B JUMPI PUSH1 0x40 MLOAD SWAP1 PUSH2 0x25A3 DUP3 PUSH2 0x24B6 JUMP JUMPDEST DUP2 SWAP4 DUP1 CALLDATALOAD PUSH1 0x1 PUSH1 0x1 PUSH1 0x40 SHL SUB DUP2 GT PUSH2 0x240B JUMPI DUP3 PUSH2 0x25C1 SWAP2 DUP4 ADD PUSH2 0x2544 JUMP JUMPDEST DUP4 MSTORE PUSH1 0x20 DUP2 ADD CALLDATALOAD PUSH1 0x1 PUSH1 0x1 PUSH1 0x40 SHL SUB DUP2 GT PUSH2 0x240B JUMPI DUP3 PUSH2 0x25E2 SWAP2 DUP4 ADD PUSH2 0x2544 JUMP JUMPDEST PUSH1 0x20 DUP5 ADD MSTORE PUSH1 0x40 DUP2 ADD CALLDATALOAD SWAP2 PUSH1 0x1 PUSH1 0x1 PUSH1 0x40 SHL SUB DUP4 GT PUSH2 0x240B JUMPI PUSH1 0x40 SWAP3 PUSH2 0x2608 SWAP3 ADD PUSH2 0x2544 JUMP JUMPDEST SWAP2 ADD MSTORE JUMP JUMPDEST DUP1 MLOAD DUP1 DUP4 MSTORE PUSH1 0x20 SWAP3 SWAP2 DUP2 SWAP1 DUP5 ADD DUP5 DUP5 ADD MCOPY PUSH0 DUP3 DUP3 ADD DUP5 ADD MSTORE PUSH1 0x1F ADD PUSH1 0x1F NOT AND ADD ADD SWAP1 JUMP JUMPDEST SWAP1 SWAP2 PUSH2 0x2648 PUSH2 0x2656 SWAP4 PUSH1 0x40 DUP5 MSTORE PUSH1 0x40 DUP5 ADD SWAP1 PUSH2 0x260D JUMP JUMPDEST SWAP2 PUSH1 0x20 DUP2 DUP5 SUB SWAP2 ADD MSTORE PUSH2 0x260D JUMP JUMPDEST SWAP1 JUMP JUMPDEST CALLDATALOAD SWAP1 PUSH1 0x1 PUSH1 0x1 PUSH1 0xA0 SHL SUB DUP3 AND DUP3 SUB PUSH2 0x240B JUMPI JUMP JUMPDEST SWAP2 SWAP1 SWAP2 PUSH1 0x80 DUP2 DUP5 SUB SLT PUSH2 0x240B JUMPI PUSH1 0x40 MLOAD SWAP1 PUSH2 0x2687 DUP3 PUSH2 0x247F JUMP JUMPDEST DUP2 SWAP4 DUP2 CALLDATALOAD PUSH1 0x1 PUSH1 0x1 PUSH1 0x40 SHL SUB DUP2 GT PUSH2 0x240B JUMPI DUP2 PUSH2 0x26A5 SWAP2 DUP5 ADD PUSH2 0x2544 JUMP JUMPDEST DUP4 MSTORE PUSH1 0x20 DUP3 ADD CALLDATALOAD PUSH1 0x1 PUSH1 0x1 PUSH1 0x40 SHL SUB DUP2 GT PUSH2 0x240B JUMPI DUP2 PUSH2 0x26C6 SWAP2 DUP5 ADD PUSH2 0x2544 JUMP JUMPDEST PUSH1 0x20 DUP5 ADD MSTORE PUSH1 0x40 DUP3 ADD CALLDATALOAD SWAP1 PUSH1 0x1 PUSH1 0x1 PUSH1 0x40 SHL SUB DUP3 GT PUSH2 0x240B JUMPI DUP3 PUSH2 0x26F3 PUSH1 0x60 SWAP5 SWAP3 PUSH2 0x2608 SWAP5 DUP7 SWAP5 ADD PUSH2 0x2544 JUMP JUMPDEST PUSH1 0x40 DUP7 ADD MSTORE ADD PUSH2 0x2659 JUMP JUMPDEST PUSH1 0x24 CALLDATALOAD SWAP1 PUSH1 0xFF DUP3 AND DUP3 SUB PUSH2 0x240B JUMPI JUMP JUMPDEST SWAP2 SWAP1 PUSH1 0x40 DUP4 DUP3 SUB SLT PUSH2 0x240B JUMPI PUSH1 0x40 MLOAD SWAP1 PUSH2 0x2727 DUP3 PUSH2 0x24D1 JUMP JUMPDEST DUP2 SWAP4 DUP1 CALLDATALOAD PUSH1 0x1 PUSH1 0x1 PUSH1 0x40 SHL SUB DUP2 GT PUSH2 0x240B JUMPI DUP3 PUSH2 0x2745 SWAP2 DUP4 ADD PUSH2 0x2544 JUMP JUMPDEST DUP4 MSTORE PUSH1 0x20 DUP2 ADD CALLDATALOAD SWAP2 PUSH1 0x1 PUSH1 0x1 PUSH1 0x40 SHL SUB DUP4 GT PUSH2 0x240B JUMPI PUSH1 0x20 SWAP3 PUSH2 0x2608 SWAP3 ADD PUSH2 0x2544 JUMP JUMPDEST SWAP2 SWAP1 PUSH2 0x100 DUP4 DUP3 SUB SLT PUSH2 0x240B JUMPI PUSH1 0x40 MLOAD SWAP1 PUSH2 0x2782 DUP3 PUSH2 0x249A JUMP JUMPDEST DUP2 SWAP4 DUP1 CALLDATALOAD PUSH1 0x1 PUSH1 0x1 PUSH1 0x40 SHL SUB DUP2 GT PUSH2 0x240B JUMPI DUP3 PUSH2 0x27A0 SWAP2 DUP4 ADD PUSH2 0x2544 JUMP JUMPDEST DUP4 MSTORE PUSH1 0x20 DUP2 ADD CALLDATALOAD PUSH1 0x1 PUSH1 0x1 PUSH1 0x40 SHL SUB DUP2 GT PUSH2 0x240B JUMPI DUP3 PUSH2 0x27C1 SWAP2 DUP4 ADD PUSH2 0x2544 JUMP JUMPDEST PUSH1 0x20 DUP5 ADD MSTORE PUSH1 0x40 DUP2 ADD CALLDATALOAD PUSH1 0x1 PUSH1 0x1 PUSH1 0x40 SHL SUB DUP2 GT PUSH2 0x240B JUMPI DUP3 PUSH2 0x27E5 SWAP2 DUP4 ADD PUSH2 0x2544 JUMP JUMPDEST PUSH1 0x40 DUP5 ADD MSTORE PUSH1 0x60 DUP2 ADD CALLDATALOAD PUSH1 0x1 PUSH1 0x1 PUSH1 0x40 SHL SUB DUP2 GT PUSH2 0x240B JUMPI DUP3 PUSH2 0x2809 SWAP2 DUP4 ADD PUSH2 0x2544 JUMP JUMPDEST PUSH1 0x60 DUP5 ADD MSTORE PUSH1 0x80 DUP2 ADD CALLDATALOAD PUSH1 0x1 PUSH1 0x1 PUSH1 0x40 SHL SUB DUP2 GT PUSH2 0x240B JUMPI DUP3 PUSH2 0x282D SWAP2 DUP4 ADD PUSH2 0x2544 JUMP JUMPDEST PUSH1 0x80 DUP5 ADD MSTORE PUSH1 0xA0 DUP2 ADD CALLDATALOAD PUSH1 0x1 PUSH1 0x1 PUSH1 0x40 SHL SUB DUP2 GT PUSH2 0x240B JUMPI DUP3 PUSH2 0x2851 SWAP2 DUP4 ADD PUSH2 0x2544 JUMP JUMPDEST PUSH1 0xA0 DUP5 ADD MSTORE PUSH1 0xC0 DUP2 ADD CALLDATALOAD PUSH1 0x1 PUSH1 0x1 PUSH1 0x40 SHL SUB DUP2 GT PUSH2 0x240B JUMPI DUP3 PUSH2 0x2875 SWAP2 DUP4 ADD PUSH2 0x2544 JUMP JUMPDEST PUSH1 0xC0 DUP5 ADD MSTORE PUSH1 0xE0 DUP2 ADD CALLDATALOAD SWAP2 PUSH1 0x1 PUSH1 0x1 PUSH1 0x40 SHL SUB DUP4 GT PUSH2 0x240B JUMPI PUSH1 0xE0 SWAP3 PUSH2 0x2608 SWAP3 ADD PUSH2 0x2544 JUMP JUMPDEST SWAP1 PUSH1 0x40 PUSH1 0x3 NOT DUP4 ADD SLT PUSH2 0x240B JUMPI PUSH1 0x4 CALLDATALOAD PUSH1 0x1 PUSH1 0x1 PUSH1 0x40 SHL SUB DUP2 GT PUSH2 0x240B JUMPI DUP3 PUSH2 0x28C6 SWAP2 PUSH1 0x4 ADD PUSH2 0x2544 JUMP JUMPDEST SWAP2 PUSH1 0x24 CALLDATALOAD SWAP1 PUSH1 0x1 PUSH1 0x1 PUSH1 0x40 SHL SUB DUP3 GT PUSH2 0x240B JUMPI PUSH2 0x2656 SWAP2 PUSH1 0x4 ADD PUSH2 0x2544 JUMP JUMPDEST SWAP1 PUSH1 0x60 PUSH1 0x3 NOT DUP4 ADD SLT PUSH2 0x240B JUMPI PUSH1 0x4 CALLDATALOAD PUSH1 0x1 PUSH1 0x1 PUSH1 0x40 SHL SUB DUP2 GT PUSH2 0x240B JUMPI PUSH1 0xA0 DUP2 DUP5 SUB PUSH1 0x3 NOT ADD SLT PUSH2 0x240B JUMPI PUSH1 0x40 MLOAD SWAP1 PUSH1 0xA0 DUP3 ADD DUP3 DUP2 LT PUSH1 0x1 PUSH1 0x1 PUSH1 0x40 SHL SUB DUP3 GT OR PUSH2 0x246B JUMPI PUSH1 0x40 MSTORE DUP1 PUSH1 0x4 ADD CALLDATALOAD PUSH1 0x1 PUSH1 0x1 PUSH1 0x40 SHL SUB DUP2 GT PUSH2 0x240B JUMPI DUP5 PUSH1 0x4 PUSH2 0x2950 SWAP3 DUP5 ADD ADD PUSH2 0x2544 JUMP JUMPDEST DUP3 MSTORE PUSH1 0x24 DUP2 ADD CALLDATALOAD PUSH1 0x1 PUSH1 0x1 PUSH1 0x40 SHL SUB DUP2 GT PUSH2 0x240B JUMPI DUP5 PUSH1 0x4 PUSH2 0x2974 SWAP3 DUP5 ADD ADD PUSH2 0x2544 JUMP JUMPDEST PUSH1 0x20 DUP4 ADD MSTORE PUSH1 0x44 DUP2 ADD CALLDATALOAD PUSH1 0x1 PUSH1 0x1 PUSH1 0x40 SHL SUB DUP2 GT PUSH2 0x240B JUMPI DUP5 PUSH1 0x4 PUSH2 0x299B SWAP3 DUP5 ADD ADD PUSH2 0x2544 JUMP JUMPDEST PUSH1 0x40 DUP4 ADD MSTORE PUSH1 0x64 DUP2 ADD CALLDATALOAD PUSH1 0x1 PUSH1 0x1 PUSH1 0x40 SHL SUB DUP2 GT PUSH2 0x240B JUMPI DUP2 PUSH2 0x29C8 DUP7 PUSH1 0x4 PUSH1 0x84 SWAP5 PUSH2 0x29D3 SWAP7 ADD ADD PUSH2 0x2544 JUMP JUMPDEST PUSH1 0x60 DUP6 ADD MSTORE ADD PUSH2 0x2659 JUMP JUMPDEST PUSH1 0x80 DUP3 ADD MSTORE SWAP2 PUSH1 0x24 CALLDATALOAD SWAP1 PUSH1 0x1 PUSH1 0x1 PUSH1 0x40 SHL SUB DUP3 GT PUSH2 0x240B JUMPI PUSH2 0x29F7 SWAP2 PUSH1 0x4 ADD PUSH2 0x2544 JUMP JUMPDEST SWAP1 PUSH1 0x44 CALLDATALOAD PUSH1 0xFF DUP2 AND DUP2 SUB PUSH2 0x240B JUMPI SWAP1 JUMP JUMPDEST SWAP1 PUSH1 0xA0 PUSH1 0x3 NOT DUP4 ADD SLT PUSH2 0x240B JUMPI PUSH1 0x4 CALLDATALOAD PUSH1 0x1 PUSH1 0x1 PUSH1 0x40 SHL SUB DUP2 GT PUSH2 0x240B JUMPI DUP3 PUSH2 0x2A33 SWAP2 PUSH1 0x4 ADD PUSH2 0x2544 JUMP JUMPDEST SWAP2 PUSH1 0x24 CALLDATALOAD PUSH1 0x1 PUSH1 0x1 PUSH1 0x40 SHL SUB DUP2 GT PUSH2 0x240B JUMPI DUP2 PUSH2 0x2A52 SWAP2 PUSH1 0x4 ADD PUSH2 0x2544 JUMP JUMPDEST SWAP2 PUSH1 0x44 CALLDATALOAD PUSH1 0x1 PUSH1 0x1 PUSH1 0x40 SHL SUB DUP2 GT PUSH2 0x240B JUMPI DUP3 PUSH2 0x2A71 SWAP2 PUSH1 0x4 ADD PUSH2 0x2544 JUMP JUMPDEST SWAP2 PUSH1 0x64 CALLDATALOAD SWAP1 PUSH1 0x1 PUSH1 0x1 PUSH1 0x40 SHL SUB DUP3 GT PUSH2 0x240B JUMPI PUSH2 0x2A90 SWAP2 PUSH1 0x4 ADD PUSH2 0x2544 JUMP JUMPDEST SWAP1 PUSH1 0x84 CALLDATALOAD PUSH1 0xFF DUP2 AND DUP2 SUB PUSH2 0x240B JUMPI SWAP1 JUMP JUMPDEST SWAP1 PUSH1 0x9 DUP3 LT ISZERO PUSH2 0x2AAE JUMPI MSTORE JUMP JUMPDEST PUSH4 0x4E487B71 PUSH1 0xE0 SHL PUSH0 MSTORE PUSH1 0x21 PUSH1 0x4 MSTORE PUSH1 0x24 PUSH0 REVERT JUMPDEST SWAP1 PUSH1 0xC0 DUP1 PUSH2 0x2B37 PUSH2 0x2B06 PUSH2 0x2AF4 PUSH2 0x2AE2 DUP8 MLOAD PUSH1 0xE0 DUP9 MSTORE PUSH1 0xE0 DUP9 ADD SWAP1 PUSH2 0x260D JUMP JUMPDEST PUSH1 0x20 DUP9 ADD MLOAD DUP8 DUP3 SUB PUSH1 0x20 DUP10 ADD MSTORE PUSH2 0x260D JUMP JUMPDEST PUSH1 0x40 DUP8 ADD MLOAD DUP7 DUP3 SUB PUSH1 0x40 DUP9 ADD MSTORE PUSH2 0x260D JUMP JUMPDEST PUSH1 0xFF PUSH1 0x60 DUP8 ADD MLOAD AND PUSH1 0x60 DUP7 ADD MSTORE PUSH2 0x2B25 PUSH1 0x80 DUP8 ADD MLOAD PUSH1 0x80 DUP8 ADD SWAP1 PUSH2 0x2AA1 JUMP JUMPDEST PUSH1 0xA0 DUP7 ADD MLOAD DUP6 DUP3 SUB PUSH1 0xA0 DUP8 ADD MSTORE PUSH2 0x260D JUMP JUMPDEST SWAP4 ADD MLOAD SWAP2 ADD MSTORE SWAP1 JUMP JUMPDEST PUSH1 0x20 DUP2 ADD PUSH1 0x20 DUP3 MSTORE DUP3 MLOAD DUP1 SWAP2 MSTORE PUSH1 0x40 DUP3 ADD SWAP2 PUSH1 0x20 PUSH1 0x40 DUP4 PUSH1 0x5 SHL DUP4 ADD ADD SWAP5 ADD SWAP3 PUSH0 SWAP2 JUMPDEST DUP4 DUP4 LT PUSH2 0x2B72 JUMPI POP POP POP POP POP SWAP1 JUMP JUMPDEST SWAP1 SWAP2 SWAP3 SWAP4 SWAP5 PUSH1 0x20 DUP1 PUSH2 0x2B90 PUSH1 0x1 SWAP4 PUSH1 0x3F NOT DUP7 DUP3 SUB ADD DUP8 MSTORE DUP10 MLOAD PUSH2 0x2AC2 JUMP JUMPDEST SWAP8 ADD SWAP4 ADD SWAP4 ADD SWAP2 SWAP4 SWAP3 SWAP1 PUSH2 0x2B63 JUMP JUMPDEST SWAP1 PUSH1 0x40 PUSH2 0x2BB8 PUSH2 0x1245 DUP5 MLOAD PUSH1 0x60 DUP6 MSTORE PUSH1 0x60 DUP6 ADD SWAP1 PUSH2 0x260D JUMP JUMPDEST SWAP3 DUP2 ADD MLOAD PUSH1 0x1 PUSH1 0x1 PUSH1 0xA0 SHL SUB AND SWAP2 ADD MSTORE SWAP1 JUMP JUMPDEST PUSH2 0x2656 SWAP2 PUSH2 0x2BDA DUP2 DUP4 MLOAD PUSH2 0x2AA1 JUMP JUMPDEST PUSH1 0x20 DUP3 ADD MLOAD PUSH1 0x20 DUP3 ADD MSTORE PUSH1 0x40 DUP3 ADD MLOAD PUSH1 0x40 DUP3 ADD MSTORE PUSH1 0x60 DUP3 ADD MLOAD PUSH1 0x60 DUP3 ADD MSTORE PUSH1 0x80 DUP3 ADD MLOAD PUSH1 0x80 DUP3 ADD MSTORE PUSH1 0xA0 DUP3 ADD MLOAD PUSH1 0xA0 DUP3 ADD MSTORE PUSH1 0xC0 DUP3 ADD MLOAD PUSH1 0xC0 DUP3 ADD MSTORE PUSH1 0xE0 DUP3 ADD MLOAD PUSH1 0xE0 DUP3 ADD MSTORE PUSH2 0x100 DUP3 ADD MLOAD PUSH2 0x100 DUP3 ADD MSTORE PUSH2 0x120 DUP3 ADD MLOAD PUSH2 0x120 DUP3 ADD MSTORE PUSH2 0x180 PUSH2 0x2C6F PUSH2 0x2C5B PUSH2 0x140 DUP6 ADD MLOAD PUSH2 0x1A0 PUSH2 0x140 DUP7 ADD MSTORE PUSH2 0x1A0 DUP6 ADD SWAP1 PUSH2 0x2B9F JUMP JUMPDEST PUSH2 0x160 DUP6 ADD MLOAD DUP5 DUP3 SUB PUSH2 0x160 DUP7 ADD MSTORE PUSH2 0x2B9F JUMP JUMPDEST SWAP3 ADD MLOAD SWAP1 PUSH2 0x180 DUP2 DUP5 SUB SWAP2 ADD MSTORE PUSH2 0x260D JUMP JUMPDEST PUSH2 0x2656 SWAP2 PUSH1 0x40 PUSH2 0x2C9D PUSH2 0x1245 DUP5 MLOAD PUSH1 0x60 DUP6 MSTORE PUSH1 0x60 DUP6 ADD SWAP1 PUSH2 0x260D JUMP JUMPDEST SWAP3 ADD MLOAD SWAP1 PUSH1 0x40 DUP2 DUP5 SUB SWAP2 ADD MSTORE PUSH2 0x260D JUMP JUMPDEST PUSH2 0x2656 SWAP2 PUSH1 0x20 PUSH2 0x2CC7 DUP4 MLOAD PUSH1 0x40 DUP5 MSTORE PUSH1 0x40 DUP5 ADD SWAP1 PUSH2 0x260D JUMP JUMPDEST SWAP3 ADD MLOAD SWAP1 PUSH1 0x20 DUP2 DUP5 SUB SWAP2 ADD MSTORE PUSH2 0x260D JUMP JUMPDEST PUSH2 0x2656 SWAP2 PUSH1 0xA0 PUSH2 0x2D21 PUSH2 0x2D0F PUSH2 0x2CFD PUSH2 0x2AF4 PUSH2 0x2AE2 DUP8 MLOAD PUSH1 0xC0 DUP9 MSTORE PUSH1 0xC0 DUP9 ADD SWAP1 PUSH2 0x260D JUMP JUMPDEST PUSH1 0x60 DUP7 ADD MLOAD DUP6 DUP3 SUB PUSH1 0x60 DUP8 ADD MSTORE PUSH2 0x260D JUMP JUMPDEST PUSH1 0x80 DUP6 ADD MLOAD DUP5 DUP3 SUB PUSH1 0x80 DUP7 ADD MSTORE PUSH2 0x260D JUMP JUMPDEST SWAP3 ADD MLOAD SWAP1 PUSH1 0xA0 DUP2 DUP5 SUB SWAP2 ADD MSTORE PUSH2 0x260D JUMP JUMPDEST PUSH2 0x2656 SWAP2 PUSH1 0xE0 PUSH2 0x2DB9 PUSH2 0x2DA7 PUSH2 0x2B25 PUSH2 0x2D95 PUSH2 0x2D83 PUSH2 0x2D71 PUSH2 0x2D5F DUP10 MLOAD PUSH2 0x100 DUP11 MSTORE PUSH2 0x100 DUP11 ADD SWAP1 PUSH2 0x260D JUMP JUMPDEST PUSH1 0x20 DUP11 ADD MLOAD DUP10 DUP3 SUB PUSH1 0x20 DUP12 ADD MSTORE PUSH2 0x260D JUMP JUMPDEST PUSH1 0x40 DUP10 ADD MLOAD DUP9 DUP3 SUB PUSH1 0x40 DUP11 ADD MSTORE PUSH2 0x260D JUMP JUMPDEST PUSH1 0x60 DUP9 ADD MLOAD DUP8 DUP3 SUB PUSH1 0x60 DUP10 ADD MSTORE PUSH2 0x260D JUMP JUMPDEST PUSH1 0x80 DUP8 ADD MLOAD DUP7 DUP3 SUB PUSH1 0x80 DUP9 ADD MSTORE PUSH2 0x260D JUMP JUMPDEST PUSH1 0xC0 DUP6 ADD MLOAD DUP5 DUP3 SUB PUSH1 0xC0 DUP7 ADD MSTORE PUSH2 0x260D JUMP JUMPDEST SWAP3 ADD MLOAD SWAP1 PUSH1 0xE0 DUP2 DUP5 SUB SWAP2 ADD MSTORE PUSH2 0x260D JUMP JUMPDEST SWAP1 DUP2 PUSH1 0x20 SWAP2 SUB SLT PUSH2 0x240B JUMPI MLOAD DUP1 ISZERO ISZERO DUP2 SUB PUSH2 0x240B JUMPI SWAP1 JUMP JUMPDEST ISZERO PUSH2 0x2DE9 JUMPI JUMP JUMPDEST PUSH1 0x40 MLOAD PUSH3 0x461BCD PUSH1 0xE5 SHL DUP2 MSTORE PUSH1 0x20 PUSH1 0x4 DUP3 ADD MSTORE PUSH1 0x21 PUSH1 0x24 DUP3 ADD MSTORE PUSH32 0x4F6E6C79205042462063616E20646F2074686973207472616E73616374696F6E PUSH1 0x44 DUP3 ADD MSTORE PUSH1 0x21 PUSH1 0xF8 SHL PUSH1 0x64 DUP3 ADD MSTORE PUSH1 0x84 SWAP1 REVERT JUMPDEST DUP2 PUSH1 0x1F DUP3 ADD SLT ISZERO PUSH2 0x240B JUMPI DUP1 MLOAD SWAP1 PUSH2 0x2E4F DUP3 PUSH2 0x2529 JUMP JUMPDEST SWAP3 PUSH2 0x2E5D PUSH1 0x40 MLOAD SWAP5 DUP6 PUSH2 0x2508 JUMP JUMPDEST DUP3 DUP5 MSTORE PUSH1 0x20 DUP4 DUP4 ADD ADD GT PUSH2 0x240B JUMPI DUP2 PUSH0 SWAP3 PUSH1 0x20 DUP1 SWAP4 ADD DUP4 DUP7 ADD MCOPY DUP4 ADD ADD MSTORE SWAP1 JUMP JUMPDEST SWAP2 SWAP1 SWAP2 PUSH1 0x40 DUP2 DUP5 SUB SLT PUSH2 0x240B JUMPI DUP1 MLOAD PUSH1 0x1 PUSH1 0x1 PUSH1 0x40 SHL SUB DUP2 GT PUSH2 0x240B JUMPI DUP4 PUSH2 0x2EA7 SWAP2 DUP4 ADD PUSH2 0x2E38 JUMP JUMPDEST SWAP3 PUSH1 0x20 DUP3 ADD MLOAD PUSH1 0x1 PUSH1 0x1 PUSH1 0x40 SHL SUB DUP2 GT PUSH2 0x240B JUMPI PUSH2 0x2656 SWAP3 ADD PUSH2 0x2E38 JUMP JUMPDEST SWAP1 PUSH1 0x60 SWAP3 SWAP6 SWAP5 SWAP4 PUSH2 0x2EE0 PUSH1 0xFF SWAP3 PUSH1 0x80 DUP6 MSTORE PUSH1 0x80 DUP6 ADD SWAP1 PUSH2 0x260D JUMP JUMPDEST PUSH1 0x1 PUSH1 0x1 PUSH1 0xA0 SHL SUB SWAP1 SWAP8 AND PUSH1 0x20 DUP5 ADD MSTORE AND PUSH1 0x40 DUP3 ADD MSTORE ADD MSTORE JUMP JUMPDEST ISZERO PUSH2 0x2F01 JUMPI JUMP JUMPDEST PUSH1 0x40 MLOAD PUSH3 0x461BCD PUSH1 0xE5 SHL DUP2 MSTORE PUSH1 0x20 PUSH1 0x4 DUP3 ADD MSTORE PUSH1 0x22 PUSH1 0x24 DUP3 ADD MSTORE PUSH32 0x4F6E6C792042504F4D2063616E20646F2074686973207472616E73616374696F PUSH1 0x44 DUP3 ADD MSTORE PUSH2 0x6E21 PUSH1 0xF0 SHL PUSH1 0x64 DUP3 ADD MSTORE PUSH1 0x84 SWAP1 REVERT JUMPDEST SWAP4 SWAP3 SWAP2 PUSH2 0x2F76 SWAP1 PUSH1 0x40 SWAP3 PUSH1 0x1 DUP1 PUSH1 0xA0 SHL SUB AND DUP7 MSTORE PUSH1 0x60 PUSH1 0x20 DUP8 ADD MSTORE PUSH1 0x60 DUP7 ADD SWAP1 PUSH2 0x260D JUMP JUMPDEST SWAP4 ADD MSTORE JUMP JUMPDEST SWAP3 PUSH2 0x2FBA SWAP1 PUSH2 0x2FAC PUSH2 0x2FC8 SWAP5 PUSH2 0x2F9E PUSH2 0x2656 SWAP11 SWAP9 SWAP6 PUSH1 0xC0 DUP10 MSTORE PUSH1 0xC0 DUP10 ADD SWAP1 PUSH2 0x260D JUMP JUMPDEST SWAP1 DUP8 DUP3 SUB PUSH1 0x20 DUP10 ADD MSTORE PUSH2 0x260D JUMP JUMPDEST SWAP1 DUP6 DUP3 SUB PUSH1 0x40 DUP8 ADD MSTORE PUSH2 0x260D JUMP JUMPDEST SWAP1 DUP4 DUP3 SUB PUSH1 0x60 DUP6 ADD MSTORE PUSH2 0x260D JUMP JUMPDEST PUSH1 0x1 PUSH1 0x1 PUSH1 0xA0 SHL SUB SWAP1 SWAP4 AND PUSH1 0x80 DUP3 ADD MSTORE DUP1 DUP4 SUB PUSH1 0xA0 SWAP2 SWAP1 SWAP2 ADD MSTORE PUSH2 0x260D JUMP JUMPDEST SWAP6 SWAP5 SWAP4 PUSH1 0xFF PUSH1 0x80 SWAP5 PUSH2 0x3005 PUSH2 0x2F76 SWAP6 SWAP5 PUSH1 0xA0 DUP12 MSTORE PUSH1 0xA0 DUP12 ADD SWAP1 PUSH2 0x260D JUMP JUMPDEST PUSH1 0x1 PUSH1 0x1 PUSH1 0xA0 SHL SUB SWAP1 SWAP5 AND PUSH1 0x20 DUP11 ADD MSTORE AND PUSH1 0x40 DUP9 ADD MSTORE DUP7 DUP3 SUB PUSH1 0x60 DUP9 ADD MSTORE PUSH2 0x260D JUMP JUMPDEST ISZERO PUSH2 0x302F JUMPI JUMP JUMPDEST PUSH1 0x40 MLOAD PUSH3 0x461BCD PUSH1 0xE5 SHL DUP2 MSTORE PUSH1 0x20 PUSH1 0x4 DUP3 ADD MSTORE PUSH1 0x25 PUSH1 0x24 DUP3 ADD MSTORE PUSH32 0x4F6E6C7920466163746F72792063616E20646F2074686973207472616E736163 PUSH1 0x44 DUP3 ADD MSTORE PUSH5 0x74696F6E21 PUSH1 0xD8 SHL PUSH1 0x64 DUP3 ADD MSTORE PUSH1 0x84 SWAP1 REVERT JUMPDEST SWAP4 SWAP1 PUSH1 0x80 SWAP4 PUSH2 0x30B4 PUSH2 0x30D0 SWAP5 PUSH2 0x30A6 PUSH2 0x30C2 SWAP5 SWAP11 SWAP10 SWAP11 PUSH1 0xA0 DUP11 MSTORE PUSH1 0xA0 DUP11 ADD SWAP1 PUSH2 0x260D JUMP JUMPDEST SWAP1 DUP9 DUP3 SUB PUSH1 0x20 DUP11 ADD MSTORE PUSH2 0x260D JUMP JUMPDEST SWAP1 DUP7 DUP3 SUB PUSH1 0x40 DUP9 ADD MSTORE PUSH2 0x260D JUMP JUMPDEST SWAP1 DUP5 DUP3 SUB PUSH1 0x60 DUP7 ADD MSTORE PUSH2 0x260D JUMP JUMPDEST PUSH1 0x1 PUSH1 0x1 PUSH1 0xA0 SHL SUB SWAP1 SWAP5 AND SWAP2 ADD MSTORE JUMP JUMPDEST SWAP2 SWAP4 SWAP1 PUSH2 0x2656 SWAP6 SWAP4 PUSH2 0x30FC PUSH1 0xFF SWAP3 PUSH1 0xA0 DUP7 MSTORE PUSH1 0xA0 DUP7 ADD SWAP1 PUSH2 0x260D JUMP JUMPDEST PUSH1 0x1 PUSH1 0x1 PUSH1 0xA0 SHL SUB SWAP1 SWAP7 AND PUSH1 0x20 DUP6 ADD MSTORE AND PUSH1 0x40 DUP4 ADD MSTORE PUSH1 0x60 DUP3 ADD MSTORE DUP1 DUP4 SUB PUSH1 0x80 SWAP1 SWAP2 ADD MSTORE PUSH2 0x260D JUMP JUMPDEST PUSH1 0x1 PUSH1 0x1 PUSH1 0x40 SHL SUB DUP2 GT PUSH2 0x246B JUMPI PUSH1 0x5 SHL PUSH1 0x20 ADD SWAP1 JUMP JUMPDEST MLOAD SWAP1 PUSH1 0xFF DUP3 AND DUP3 SUB PUSH2 0x240B JUMPI JUMP JUMPDEST SWAP2 SWAP1 SWAP2 PUSH1 0xE0 DUP2 DUP5 SUB SLT PUSH2 0x240B JUMPI PUSH1 0x40 MLOAD SWAP1 PUSH1 0xE0 DUP3 ADD DUP3 DUP2 LT PUSH1 0x1 PUSH1 0x1 PUSH1 0x40 SHL SUB DUP3 GT OR PUSH2 0x246B JUMPI PUSH1 0x40 MSTORE DUP2 SWAP4 DUP2 MLOAD PUSH1 0x1 PUSH1 0x1 PUSH1 0x40 SHL SUB DUP2 GT PUSH2 0x240B JUMPI DUP2 PUSH2 0x3192 SWAP2 DUP5 ADD PUSH2 0x2E38 JUMP JUMPDEST DUP4 MSTORE PUSH1 0x20 DUP3 ADD MLOAD PUSH1 0x1 PUSH1 0x1 PUSH1 0x40 SHL SUB DUP2 GT PUSH2 0x240B JUMPI DUP2 PUSH2 0x31B3 SWAP2 DUP5 ADD PUSH2 0x2E38 JUMP JUMPDEST PUSH1 0x20 DUP5 ADD MSTORE PUSH1 0x40 DUP3 ADD MLOAD PUSH1 0x1 PUSH1 0x1 PUSH1 0x40 SHL SUB DUP2 GT PUSH2 0x240B JUMPI DUP2 PUSH2 0x31D7 SWAP2 DUP5 ADD PUSH2 0x2E38 JUMP JUMPDEST PUSH1 0x40 DUP5 ADD MSTORE PUSH2 0x31E8 PUSH1 0x60 DUP4 ADD PUSH2 0x313C JUMP JUMPDEST PUSH1 0x60 DUP5 ADD MSTORE PUSH1 0x80 DUP3 ADD MLOAD PUSH1 0x9 DUP2 LT ISZERO PUSH2 0x240B JUMPI PUSH1 0x80 DUP5 ADD MSTORE PUSH1 0xA0 DUP3 ADD MLOAD SWAP2 PUSH1 0x1 PUSH1 0x1 PUSH1 0x40 SHL SUB DUP4 GT PUSH2 0x240B JUMPI PUSH2 0x3224 PUSH1 0xC0 SWAP4 SWAP3 DUP5 SWAP4 DUP4 ADD PUSH2 0x2E38 JUMP JUMPDEST PUSH1 0xA0 DUP6 ADD MSTORE ADD MLOAD SWAP2 ADD MSTORE JUMP JUMPDEST PUSH1 0x20 DUP2 DUP4 SUB SLT PUSH2 0x240B JUMPI DUP1 MLOAD SWAP1 PUSH1 0x1 PUSH1 0x1 PUSH1 0x40 SHL SUB DUP3 GT PUSH2 0x240B JUMPI ADD SWAP1 DUP1 PUSH1 0x1F DUP4 ADD SLT ISZERO PUSH2 0x240B JUMPI DUP2 MLOAD PUSH2 0x3263 DUP2 PUSH2 0x3125 JUMP JUMPDEST SWAP3 PUSH2 0x3271 PUSH1 0x40 MLOAD SWAP5 DUP6 PUSH2 0x2508 JUMP JUMPDEST DUP2 DUP5 MSTORE PUSH1 0x20 DUP1 DUP6 ADD SWAP3 PUSH1 0x5 SHL DUP3 ADD ADD SWAP2 DUP4 DUP4 GT PUSH2 0x240B JUMPI PUSH1 0x20 DUP3 ADD SWAP1 JUMPDEST DUP4 DUP3 LT PUSH2 0x329D JUMPI POP POP POP POP POP SWAP1 JUMP JUMPDEST DUP2 MLOAD PUSH1 0x1 PUSH1 0x1 PUSH1 0x40 SHL SUB DUP2 GT PUSH2 0x240B JUMPI PUSH1 0x20 SWAP2 PUSH2 0x32BF DUP8 DUP5 DUP1 SWAP5 DUP9 ADD ADD PUSH2 0x314A JUMP JUMPDEST DUP2 MSTORE ADD SWAP2 ADD SWAP1 PUSH2 0x328E JUMP JUMPDEST PUSH1 0x40 MLOAD SWAP1 PUSH2 0x32D7 DUP3 PUSH2 0x24B6 JUMP JUMPDEST PUSH0 PUSH1 0x40 DUP4 PUSH1 0x60 DUP2 MSTORE PUSH1 0x60 PUSH1 0x20 DUP3 ADD MSTORE ADD MSTORE JUMP JUMPDEST PUSH1 0x40 MLOAD SWAP1 PUSH2 0x32F7 DUP3 PUSH2 0x24EC JUMP JUMPDEST PUSH1 0x60 PUSH2 0x180 DUP4 PUSH0 DUP2 MSTORE PUSH0 PUSH1 0x20 DUP3 ADD MSTORE PUSH0 PUSH1 0x40 DUP3 ADD MSTORE PUSH0 DUP4 DUP3 ADD MSTORE PUSH0 PUSH1 0x80 DUP3 ADD MSTORE PUSH0 PUSH1 0xA0 DUP3 ADD MSTORE PUSH0 PUSH1 0xC0 DUP3 ADD MSTORE PUSH0 PUSH1 0xE0 DUP3 ADD MSTORE PUSH0 PUSH2 0x100 DUP3 ADD MSTORE PUSH0 PUSH2 0x120 DUP3 ADD MSTORE PUSH2 0x333F PUSH2 0x32CA JUMP JUMPDEST PUSH2 0x140 DUP3 ADD MSTORE PUSH2 0x334D PUSH2 0x32CA JUMP JUMPDEST PUSH2 0x160 DUP3 ADD MSTORE ADD MSTORE JUMP JUMPDEST PUSH1 0x40 MLOAD SWAP1 PUSH2 0x3364 DUP3 PUSH2 0x24B6 JUMP JUMPDEST PUSH1 0x60 PUSH1 0x40 DUP4 DUP3 DUP2 MSTORE DUP3 PUSH1 0x20 DUP3 ADD MSTORE ADD MSTORE JUMP JUMPDEST PUSH1 0x40 MLOAD SWAP1 PUSH2 0x3383 DUP3 PUSH2 0x24D1 JUMP JUMPDEST PUSH1 0x60 PUSH1 0x20 DUP4 DUP3 DUP2 MSTORE ADD MSTORE JUMP JUMPDEST SWAP2 SWAP1 PUSH1 0x60 DUP4 DUP3 SUB SLT PUSH2 0x240B JUMPI PUSH1 0x40 MLOAD SWAP1 PUSH2 0x33A8 DUP3 PUSH2 0x24B6 JUMP JUMPDEST DUP2 SWAP4 DUP1 MLOAD PUSH1 0x1 PUSH1 0x1 PUSH1 0x40 SHL SUB DUP2 GT PUSH2 0x240B JUMPI DUP3 PUSH2 0x33C6 SWAP2 DUP4 ADD PUSH2 0x2E38 JUMP JUMPDEST DUP4 MSTORE PUSH1 0x20 DUP2 ADD MLOAD PUSH1 0x1 PUSH1 0x1 PUSH1 0x40 SHL SUB DUP2 GT PUSH2 0x240B JUMPI DUP3 PUSH2 0x33E7 SWAP2 DUP4 ADD PUSH2 0x2E38 JUMP JUMPDEST PUSH1 0x20 DUP5 ADD MSTORE PUSH1 0x40 DUP2 ADD MLOAD SWAP2 PUSH1 0x1 PUSH1 0x1 PUSH1 0x40 SHL SUB DUP4 GT PUSH2 0x240B JUMPI PUSH1 0x40 SWAP3 PUSH2 0x2608 SWAP3 ADD PUSH2 0x2E38 JUMP JUMPDEST SWAP2 SWAP1 PUSH1 0x40 DUP4 DUP3 SUB SLT PUSH2 0x240B JUMPI PUSH1 0x40 MLOAD SWAP1 PUSH2 0x3426 DUP3 PUSH2 0x24D1 JUMP JUMPDEST DUP2 SWAP4 DUP1 MLOAD PUSH1 0x1 PUSH1 0x1 PUSH1 0x40 SHL SUB DUP2 GT PUSH2 0x240B JUMPI DUP3 PUSH2 0x3444 SWAP2 DUP4 ADD PUSH2 0x2E38 JUMP JUMPDEST DUP4 MSTORE PUSH1 0x20 DUP2 ADD MLOAD SWAP2 PUSH1 0x1 PUSH1 0x1 PUSH1 0x40 SHL SUB DUP4 GT PUSH2 0x240B JUMPI PUSH1 0x20 SWAP3 PUSH2 0x2608 SWAP3 ADD PUSH2 0x2E38 JUMP JUMPDEST SWAP2 SWAP1 PUSH1 0x60 DUP4 DUP3 SUB SLT PUSH2 0x240B JUMPI PUSH1 0x40 MLOAD SWAP1 PUSH2 0x3480 DUP3 PUSH2 0x24B6 JUMP JUMPDEST DUP2 SWAP4 DUP1 MLOAD PUSH1 0x1 PUSH1 0x1 PUSH1 0x40 SHL SUB DUP2 GT PUSH2 0x240B JUMPI DUP3 PUSH2 0x349E SWAP2 DUP4 ADD PUSH2 0x2E38 JUMP JUMPDEST DUP4 MSTORE PUSH1 0x20 DUP2 ADD MLOAD PUSH1 0x1 PUSH1 0x1 PUSH1 0x40 SHL SUB DUP2 GT PUSH2 0x240B JUMPI PUSH1 0x40 SWAP3 PUSH2 0x34C1 SWAP2 DUP4 ADD PUSH2 0x2E38 JUMP JUMPDEST PUSH1 0x20 DUP5 ADD MSTORE ADD MLOAD SWAP1 PUSH1 0x1 PUSH1 0x1 PUSH1 0xA0 SHL SUB DUP3 AND DUP3 SUB PUSH2 0x240B JUMPI PUSH1 0x40 ADD MSTORE JUMP JUMPDEST PUSH1 0x20 DUP2 DUP4 SUB SLT PUSH2 0x240B JUMPI DUP1 MLOAD SWAP1 PUSH1 0x1 PUSH1 0x1 PUSH1 0x40 SHL SUB DUP3 GT PUSH2 0x240B JUMPI ADD PUSH2 0x1A0 DUP2 DUP4 SUB SLT PUSH2 0x240B JUMPI PUSH1 0x40 MLOAD SWAP2 PUSH2 0x3513 DUP4 PUSH2 0x24EC JUMP JUMPDEST DUP2 MLOAD PUSH1 0x9 DUP2 LT ISZERO PUSH2 0x240B JUMPI DUP4 MSTORE PUSH1 0x20 DUP3 ADD MLOAD PUSH1 0x20 DUP5 ADD MSTORE PUSH1 0x40 DUP3 ADD MLOAD PUSH1 0x40 DUP5 ADD MSTORE PUSH1 0x60 DUP3 ADD MLOAD PUSH1 0x60 DUP5 ADD MSTORE PUSH1 0x80 DUP3 ADD MLOAD PUSH1 0x80 DUP5 ADD MSTORE PUSH1 0xA0 DUP3 ADD MLOAD PUSH1 0xA0 DUP5 ADD MSTORE PUSH1 0xC0 DUP3 ADD MLOAD PUSH1 0xC0 DUP5 ADD MSTORE PUSH1 0xE0 DUP3 ADD MLOAD PUSH1 0xE0 DUP5 ADD MSTORE PUSH2 0x100 DUP3 ADD MLOAD PUSH2 0x100 DUP5 ADD MSTORE PUSH2 0x120 DUP3 ADD MLOAD PUSH2 0x120 DUP5 ADD MSTORE PUSH2 0x140 DUP3 ADD MLOAD PUSH1 0x1 PUSH1 0x1 PUSH1 0x40 SHL SUB DUP2 GT PUSH2 0x240B JUMPI DUP2 PUSH2 0x359E SWAP2 DUP5 ADD PUSH2 0x3467 JUMP JUMPDEST PUSH2 0x140 DUP5 ADD MSTORE PUSH2 0x160 DUP3 ADD MLOAD PUSH1 0x1 PUSH1 0x1 PUSH1 0x40 SHL SUB DUP2 GT PUSH2 0x240B JUMPI DUP2 PUSH2 0x35C4 SWAP2 DUP5 ADD PUSH2 0x3467 JUMP JUMPDEST PUSH2 0x160 DUP5 ADD MSTORE PUSH2 0x180 DUP3 ADD MLOAD PUSH1 0x1 PUSH1 0x1 PUSH1 0x40 SHL SUB DUP2 GT PUSH2 0x240B JUMPI PUSH2 0x35E8 SWAP3 ADD PUSH2 0x2E38 JUMP JUMPDEST PUSH2 0x180 DUP3 ADD MSTORE SWAP1 JUMP JUMPDEST PUSH2 0x3609 PUSH1 0x40 SWAP3 SWAP6 SWAP5 SWAP4 SWAP6 PUSH1 0x60 DUP4 MSTORE PUSH1 0x60 DUP4 ADD SWAP1 PUSH2 0x260D JUMP JUMPDEST PUSH1 0x1 PUSH1 0x1 PUSH1 0xA0 SHL SUB SWAP1 SWAP6 AND PUSH1 0x20 DUP3 ADD MSTORE ADD MSTORE JUMP JUMPDEST PUSH1 0x2 PUSH0 SLOAD EQ PUSH2 0x362C JUMPI PUSH1 0x2 PUSH0 SSTORE JUMP JUMPDEST PUSH4 0x3EE5AEB5 PUSH1 0xE0 SHL PUSH0 MSTORE PUSH1 0x4 PUSH0 REVERT INVALID LOG2 PUSH5 0x6970667358 0x22 SLT KECCAK256 DUP6 EXTCODEHASH 0xF7 0xD5 MOD SSTORE JUMPI MSIZE RETURNDATASIZE PUSH23 0xA12A23784A9E7CF39B9CFA19C494CB4DC2E70B24C8C964 PUSH20 0x6F6C634300081B00330000000000000000000000 "},"methodIdentifiers":{"approveCdob((string,string,string,string,address),string,uint8)":"2dbcaf0f","approveCpotb((string,string,string,string,address),string,uint8)":"4e03317b","approveExtendCdob(string,string)":"9c6b1f10","approveExtendCpotb(string,string)":"b0730436","cdobCertificate()":"af3a1758","cpotbCertificate()":"d369111d","extendCdob(string,uint256,(string,string,string))":"07b11c0b","extendCpotb(string,uint256,(string,string,string,string,string,string))":"4ad8f1a4","getAllCdob()":"f14261d2","getAllCpotb()":"5850607c","getCdobByInstance(string)":"d0927b19","getCdobDetails(string)":"7e8f8da7","getCpotbByInstance(string)":"51c2d326","getCpotbDetails(string)":"70c056b0","getRejectMsgCdob(string)":"17d96797","getRejectMsgCpotb(string)":"1a898044","rejectCdob(string,string,string,string,uint8)":"41ee1495","rejectCpotb(string,string,string,string,uint8)":"9c0abfd8","rejectExtendCdob(string,string)":"252006af","rejectExtendCpotb(string,string)":"3bb6ff3f","renewCdob((string,string,string,address),(string,string),(string,string,string,string,string,string,string,string))":"bbd0b8a9","renewCpotb((string,string,string,address),(string,string,string),(string,string))":"cb43b77f","renewExtendCdob(string)":"278b94ce","renewExtendCpotb(string)":"35d8c341","requestCdob((string,string,string,address),uint8,(string,string),(string,string,string,string,string,string,string,string))":"1d430349","requestCpotb((string,string,string,address),uint8,string,(string,string,string),(string,string))":"87fecd3e","roleManager()":"00435da5"}}}}}