{"contracts/CdobCertificate.sol":{"CdobCertificate":{"abi":[{"inputs":[{"internalType":"uint256","name":"","type":"uint256"}],"name":"allCdobData","outputs":[{"internalType":"string","name":"certId","type":"string"},{"internalType":"string","name":"certNumber","type":"string"},{"internalType":"string","name":"instanceName","type":"string"},{"internalType":"uint8","name":"tipePermohonan","type":"uint8"},{"internalType":"enum EnumsLibrary.StatusCertificate","name":"status","type":"uint8"},{"internalType":"string","name":"certHash","type":"string"},{"internalType":"uint256","name":"expiredTimestamp","type":"uint256"}],"stateMutability":"view","type":"function"},{"inputs":[{"internalType":"string","name":"certNumber","type":"string"},{"internalType":"string","name":"certId","type":"string"},{"internalType":"string","name":"bpomName","type":"string"},{"internalType":"string","name":"bpomInstance","type":"string"},{"internalType":"address","name":"bpomAddr","type":"address"},{"internalType":"string","name":"ipfsCert","type":"string"}],"name":"approveCdob","outputs":[],"stateMutability":"nonpayable","type":"function"},{"inputs":[{"internalType":"string","name":"certId","type":"string"},{"internalType":"string","name":"ipfsCert","type":"string"}],"name":"approveExtendCdob","outputs":[],"stateMutability":"nonpayable","type":"function"},{"inputs":[{"internalType":"string","name":"","type":"string"}],"name":"cdobDataById","outputs":[{"internalType":"string","name":"cdobId","type":"string"},{"internalType":"string","name":"cdobNumber","type":"string"},{"internalType":"uint8","name":"tipePermohonan","type":"uint8"}],"stateMutability":"view","type":"function"},{"inputs":[{"internalType":"string","name":"","type":"string"}],"name":"certDetailById","outputs":[{"internalType":"enum EnumsLibrary.StatusCertificate","name":"status","type":"uint8"},{"internalType":"uint256","name":"timestampRequest","type":"uint256"},{"internalType":"uint256","name":"timestampApprove","type":"uint256"},{"internalType":"uint256","name":"timestampRejected","type":"uint256"},{"internalType":"uint256","name":"timestampRenewRequest","type":"uint256"},{"internalType":"uint256","name":"timestampExpired","type":"uint256"},{"internalType":"uint256","name":"timestampExtendRequest","type":"uint256"},{"internalType":"uint256","name":"timestampExtendApprove","type":"uint256"},{"internalType":"uint256","name":"timestampExtendReject","type":"uint256"},{"internalType":"uint256","name":"timestampExtendRenew","type":"uint256"},{"components":[{"internalType":"string","name":"userName","type":"string"},{"internalType":"string","name":"userInstance","type":"string"},{"internalType":"address","name":"userAddr","type":"address"}],"internalType":"struct BaseCertificate.UserCert","name":"sender","type":"tuple"},{"components":[{"internalType":"string","name":"userName","type":"string"},{"internalType":"string","name":"userInstance","type":"string"},{"internalType":"address","name":"userAddr","type":"address"}],"internalType":"struct BaseCertificate.UserCert","name":"bpom","type":"tuple"},{"internalType":"string","name":"ipfsCert","type":"string"}],"stateMutability":"view","type":"function"},{"inputs":[{"components":[{"internalType":"string","name":"userName","type":"string"},{"internalType":"string","name":"userInstance","type":"string"},{"internalType":"address","name":"userAddr","type":"address"}],"internalType":"struct BaseCertificate.UserCert","name":"senderData","type":"tuple"},{"components":[{"internalType":"string","name":"userName","type":"string"},{"internalType":"string","name":"userInstance","type":"string"},{"internalType":"address","name":"userAddr","type":"address"}],"internalType":"struct BaseCertificate.UserCert","name":"bpomData","type":"tuple"},{"internalType":"string","name":"certId","type":"string"}],"name":"createCertificateDetails","outputs":[],"stateMutability":"nonpayable","type":"function"},{"inputs":[{"internalType":"string","name":"userName","type":"string"},{"internalType":"string","name":"userInstance","type":"string"},{"internalType":"address","name":"userAddr","type":"address"}],"name":"createUserCertificate","outputs":[{"components":[{"internalType":"string","name":"userName","type":"string"},{"internalType":"string","name":"userInstance","type":"string"},{"internalType":"address","name":"userAddr","type":"address"}],"internalType":"struct BaseCertificate.UserCert","name":"","type":"tuple"}],"stateMutability":"pure","type":"function"},{"inputs":[{"internalType":"string","name":"","type":"string"}],"name":"dokuAdminById","outputs":[{"internalType":"string","name":"suratPermohonan","type":"string"},{"internalType":"string","name":"buktiPembayaranPajak","type":"string"}],"stateMutability":"view","type":"function"},{"inputs":[{"internalType":"string","name":"","type":"string"}],"name":"dokuReSertifikasiById","outputs":[{"internalType":"string","name":"suratPernyataanPimpinan","type":"string"},{"internalType":"string","name":"dokumenInspeksiDiri","type":"string"},{"internalType":"string","name":"dokumenPerbaikan","type":"string"}],"stateMutability":"view","type":"function"},{"inputs":[{"internalType":"string","name":"","type":"string"}],"name":"dokuTeknisById","outputs":[{"internalType":"string","name":"suratIzinCdob","type":"string"},{"internalType":"string","name":"denahBangunan","type":"string"},{"internalType":"string","name":"strukturOrganisasi","type":"string"},{"internalType":"string","name":"daftarPersonalia","type":"string"},{"internalType":"string","name":"daftarPeralatan","type":"string"},{"internalType":"string","name":"eksekutifQualityManagement","type":"string"},{"internalType":"string","name":"suratIzinApoteker","type":"string"},{"internalType":"string","name":"dokumenSelfAssesment","type":"string"}],"stateMutability":"view","type":"function"},{"inputs":[{"internalType":"string","name":"certId","type":"string"},{"internalType":"uint256","name":"expTimestamp","type":"uint256"},{"components":[{"internalType":"string","name":"suratPernyataanPimpinan","type":"string"},{"internalType":"string","name":"dokumenInspeksiDiri","type":"string"},{"internalType":"string","name":"dokumenPerbaikan","type":"string"}],"internalType":"struct CdobCertificate.DokumenReSertifikasi","name":"newDoku","type":"tuple"}],"name":"extendCdob","outputs":[],"stateMutability":"nonpayable","type":"function"},{"inputs":[],"name":"getAllCdob","outputs":[{"components":[{"internalType":"string","name":"certId","type":"string"},{"internalType":"string","name":"certNumber","type":"string"},{"internalType":"string","name":"instanceName","type":"string"},{"internalType":"uint8","name":"tipePermohonan","type":"uint8"},{"internalType":"enum EnumsLibrary.StatusCertificate","name":"status","type":"uint8"},{"internalType":"string","name":"certHash","type":"string"},{"internalType":"uint256","name":"expiredTimestamp","type":"uint256"}],"internalType":"struct CdobCertificate.CertificateList[]","name":"","type":"tuple[]"}],"stateMutability":"view","type":"function"},{"inputs":[{"internalType":"string","name":"instanceName","type":"string"}],"name":"getAllCdobByInstance","outputs":[{"components":[{"internalType":"string","name":"certId","type":"string"},{"internalType":"string","name":"certNumber","type":"string"},{"internalType":"string","name":"instanceName","type":"string"},{"internalType":"uint8","name":"tipePermohonan","type":"uint8"},{"internalType":"enum EnumsLibrary.StatusCertificate","name":"status","type":"uint8"},{"internalType":"string","name":"certHash","type":"string"},{"internalType":"uint256","name":"expiredTimestamp","type":"uint256"}],"internalType":"struct CdobCertificate.CertificateList[]","name":"","type":"tuple[]"}],"stateMutability":"view","type":"function"},{"inputs":[{"internalType":"string","name":"certId","type":"string"}],"name":"getCdobDetails","outputs":[{"components":[{"internalType":"string","name":"cdobId","type":"string"},{"internalType":"string","name":"cdobNumber","type":"string"},{"internalType":"uint8","name":"tipePermohonan","type":"uint8"}],"internalType":"struct CdobCertificate.CdobData","name":"","type":"tuple"},{"components":[{"internalType":"string","name":"suratPermohonan","type":"string"},{"internalType":"string","name":"buktiPembayaranPajak","type":"string"}],"internalType":"struct CdobCertificate.DokumenAdministrasi","name":"","type":"tuple"},{"components":[{"internalType":"string","name":"suratIzinCdob","type":"string"},{"internalType":"string","name":"denahBangunan","type":"string"},{"internalType":"string","name":"strukturOrganisasi","type":"string"},{"internalType":"string","name":"daftarPersonalia","type":"string"},{"internalType":"string","name":"daftarPeralatan","type":"string"},{"internalType":"string","name":"eksekutifQualityManagement","type":"string"},{"internalType":"string","name":"suratIzinApoteker","type":"string"},{"internalType":"string","name":"dokumenSelfAssesment","type":"string"}],"internalType":"struct CdobCertificate.DokumenTeknis","name":"","type":"tuple"},{"components":[{"internalType":"string","name":"suratPernyataanPimpinan","type":"string"},{"internalType":"string","name":"dokumenInspeksiDiri","type":"string"},{"internalType":"string","name":"dokumenPerbaikan","type":"string"}],"internalType":"struct CdobCertificate.DokumenReSertifikasi","name":"","type":"tuple"}],"stateMutability":"view","type":"function"},{"inputs":[{"internalType":"string","name":"certId","type":"string"}],"name":"getCertDetail","outputs":[{"components":[{"internalType":"enum EnumsLibrary.StatusCertificate","name":"status","type":"uint8"},{"internalType":"uint256","name":"timestampRequest","type":"uint256"},{"internalType":"uint256","name":"timestampApprove","type":"uint256"},{"internalType":"uint256","name":"timestampRejected","type":"uint256"},{"internalType":"uint256","name":"timestampRenewRequest","type":"uint256"},{"internalType":"uint256","name":"timestampExpired","type":"uint256"},{"internalType":"uint256","name":"timestampExtendRequest","type":"uint256"},{"internalType":"uint256","name":"timestampExtendApprove","type":"uint256"},{"internalType":"uint256","name":"timestampExtendReject","type":"uint256"},{"internalType":"uint256","name":"timestampExtendRenew","type":"uint256"},{"components":[{"internalType":"string","name":"userName","type":"string"},{"internalType":"string","name":"userInstance","type":"string"},{"internalType":"address","name":"userAddr","type":"address"}],"internalType":"struct BaseCertificate.UserCert","name":"sender","type":"tuple"},{"components":[{"internalType":"string","name":"userName","type":"string"},{"internalType":"string","name":"userInstance","type":"string"},{"internalType":"address","name":"userAddr","type":"address"}],"internalType":"struct BaseCertificate.UserCert","name":"bpom","type":"tuple"},{"internalType":"string","name":"ipfsCert","type":"string"}],"internalType":"struct BaseCertificate.CertificateDetails","name":"","type":"tuple"}],"stateMutability":"view","type":"function"},{"inputs":[{"internalType":"string","name":"certId","type":"string"}],"name":"getCertDetails","outputs":[{"components":[{"internalType":"enum EnumsLibrary.StatusCertificate","name":"status","type":"uint8"},{"internalType":"uint256","name":"timestampRequest","type":"uint256"},{"internalType":"uint256","name":"timestampApprove","type":"uint256"},{"internalType":"uint256","name":"timestampRejected","type":"uint256"},{"internalType":"uint256","name":"timestampRenewRequest","type":"uint256"},{"internalType":"uint256","name":"timestampExpired","type":"uint256"},{"internalType":"uint256","name":"timestampExtendRequest","type":"uint256"},{"internalType":"uint256","name":"timestampExtendApprove","type":"uint256"},{"internalType":"uint256","name":"timestampExtendReject","type":"uint256"},{"internalType":"uint256","name":"timestampExtendRenew","type":"uint256"},{"components":[{"internalType":"string","name":"userName","type":"string"},{"internalType":"string","name":"userInstance","type":"string"},{"internalType":"address","name":"userAddr","type":"address"}],"internalType":"struct BaseCertificate.UserCert","name":"sender","type":"tuple"},{"components":[{"internalType":"string","name":"userName","type":"string"},{"internalType":"string","name":"userInstance","type":"string"},{"internalType":"address","name":"userAddr","type":"address"}],"internalType":"struct BaseCertificate.UserCert","name":"bpom","type":"tuple"},{"internalType":"string","name":"ipfsCert","type":"string"}],"internalType":"struct BaseCertificate.CertificateDetails","name":"","type":"tuple"}],"stateMutability":"view","type":"function"},{"inputs":[{"internalType":"string","name":"certId","type":"string"}],"name":"getRejectMsg","outputs":[{"internalType":"string","name":"","type":"string"},{"internalType":"string","name":"","type":"string"}],"stateMutability":"view","type":"function"},{"inputs":[{"internalType":"string","name":"certId","type":"string"}],"name":"getRejectsMsg","outputs":[{"internalType":"string","name":"","type":"string"},{"internalType":"string","name":"","type":"string"}],"stateMutability":"view","type":"function"},{"inputs":[{"internalType":"string","name":"certId","type":"string"}],"name":"getSenderDetail","outputs":[{"components":[{"internalType":"string","name":"userName","type":"string"},{"internalType":"string","name":"userInstance","type":"string"},{"internalType":"address","name":"userAddr","type":"address"}],"internalType":"struct BaseCertificate.UserCert","name":"","type":"tuple"}],"stateMutability":"view","type":"function"},{"inputs":[{"internalType":"string","name":"certId","type":"string"},{"internalType":"string","name":"rejectMsg","type":"string"},{"internalType":"string","name":"bpomName","type":"string"},{"internalType":"string","name":"bpomInstance","type":"string"},{"internalType":"address","name":"bpomAddr","type":"address"}],"name":"rejectCdob","outputs":[],"stateMutability":"nonpayable","type":"function"},{"inputs":[{"internalType":"string","name":"certId","type":"string"},{"internalType":"string","name":"rejectExtendMsg","type":"string"}],"name":"rejectExtendCdob","outputs":[],"stateMutability":"nonpayable","type":"function"},{"inputs":[{"internalType":"string","name":"","type":"string"}],"name":"rejectMsgById","outputs":[{"internalType":"string","name":"","type":"string"}],"stateMutability":"view","type":"function"},{"inputs":[{"internalType":"string","name":"","type":"string"}],"name":"rejectMsgExtendById","outputs":[{"internalType":"string","name":"","type":"string"}],"stateMutability":"view","type":"function"},{"inputs":[{"internalType":"string","name":"certId","type":"string"}],"name":"renewExtendCdob","outputs":[],"stateMutability":"nonpayable","type":"function"},{"inputs":[{"internalType":"string","name":"certId","type":"string"},{"components":[{"internalType":"string","name":"suratPermohonan","type":"string"},{"internalType":"string","name":"buktiPembayaranPajak","type":"string"}],"internalType":"struct CdobCertificate.DokumenAdministrasi","name":"newDokuAdmin","type":"tuple"},{"components":[{"internalType":"string","name":"suratIzinCdob","type":"string"},{"internalType":"string","name":"denahBangunan","type":"string"},{"internalType":"string","name":"strukturOrganisasi","type":"string"},{"internalType":"string","name":"daftarPersonalia","type":"string"},{"internalType":"string","name":"daftarPeralatan","type":"string"},{"internalType":"string","name":"eksekutifQualityManagement","type":"string"},{"internalType":"string","name":"suratIzinApoteker","type":"string"},{"internalType":"string","name":"dokumenSelfAssesment","type":"string"}],"internalType":"struct CdobCertificate.DokumenTeknis","name":"newDokuTeknis","type":"tuple"}],"name":"renewRequestCdob","outputs":[],"stateMutability":"nonpayable","type":"function"},{"inputs":[{"internalType":"string","name":"certId","type":"string"},{"internalType":"string","name":"pbfName","type":"string"},{"internalType":"string","name":"pbfInstance","type":"string"},{"internalType":"address","name":"pbfAddr","type":"address"},{"internalType":"uint8","name":"tipePermohonan","type":"uint8"},{"components":[{"internalType":"string","name":"suratPermohonan","type":"string"},{"internalType":"string","name":"buktiPembayaranPajak","type":"string"}],"internalType":"struct CdobCertificate.DokumenAdministrasi","name":"dokuAdmin","type":"tuple"},{"components":[{"internalType":"string","name":"suratIzinCdob","type":"string"},{"internalType":"string","name":"denahBangunan","type":"string"},{"internalType":"string","name":"strukturOrganisasi","type":"string"},{"internalType":"string","name":"daftarPersonalia","type":"string"},{"internalType":"string","name":"daftarPeralatan","type":"string"},{"internalType":"string","name":"eksekutifQualityManagement","type":"string"},{"internalType":"string","name":"suratIzinApoteker","type":"string"},{"internalType":"string","name":"dokumenSelfAssesment","type":"string"}],"internalType":"struct CdobCertificate.DokumenTeknis","name":"dokuTeknis","type":"tuple"}],"name":"requestCdob","outputs":[],"stateMutability":"nonpayable","type":"function"},{"inputs":[{"internalType":"string","name":"certId","type":"string"},{"internalType":"string","name":"ipfsCert","type":"string"},{"components":[{"internalType":"string","name":"userName","type":"string"},{"internalType":"string","name":"userInstance","type":"string"},{"internalType":"address","name":"userAddr","type":"address"}],"internalType":"struct BaseCertificate.UserCert","name":"bpomData","type":"tuple"}],"name":"updateBpomApproveDetails","outputs":[],"stateMutability":"nonpayable","type":"function"},{"inputs":[{"internalType":"string","name":"certId","type":"string"},{"internalType":"string","name":"ipfsCert","type":"string"}],"name":"updateBpomApproveExtendCertificateDetails","outputs":[],"stateMutability":"nonpayable","type":"function"},{"inputs":[{"internalType":"string","name":"certId","type":"string"},{"internalType":"string","name":"ipfsCert","type":"string"}],"name":"updateBpomExtendCertificateDetails","outputs":[],"stateMutability":"nonpayable","type":"function"},{"inputs":[{"internalType":"string","name":"certId","type":"string"},{"internalType":"string","name":"rejectMsg","type":"string"},{"components":[{"internalType":"string","name":"userName","type":"string"},{"internalType":"string","name":"userInstance","type":"string"},{"internalType":"address","name":"userAddr","type":"address"}],"internalType":"struct BaseCertificate.UserCert","name":"bpomData","type":"tuple"}],"name":"updateBpomRejectDetails","outputs":[],"stateMutability":"nonpayable","type":"function"},{"inputs":[{"internalType":"string","name":"certId","type":"string"},{"internalType":"string","name":"rejectMsg","type":"string"}],"name":"updateBpomRejectExtendCertificateDetails","outputs":[],"stateMutability":"nonpayable","type":"function"},{"inputs":[{"internalType":"string","name":"certId","type":"string"},{"internalType":"uint256","name":"expiredTimestamp","type":"uint256"}],"name":"updateExtendRenewDetails","outputs":[],"stateMutability":"nonpayable","type":"function"},{"inputs":[{"internalType":"string","name":"certId","type":"string"}],"name":"updateRenewDetails","outputs":[],"stateMutability":"nonpayable","type":"function"},{"inputs":[{"internalType":"string","name":"certId","type":"string"}],"name":"updateRenewExtendCertificateDetails","outputs":[],"stateMutability":"nonpayable","type":"function"}],"evm":{"bytecode":{"linkReferences":{},"object":"608080604052346015576159db908161001a8239f35b5f80fdfe60806040526004361015610011575f80fd5b5f3560e01c806307b11c0b1461395357806317e68309146138f257806319859c87146138ba5780631acf250014613781578063252006af146136d957806326c6d4c514613683578063278b94ce146135bb5780632b93f7f21461310d5780632e9cf8271461308957806334a34f3014612f675780633a947f1a14612f2f57806343762aa814612e5b578063500619d014612d1f5780635691acf714612c78578063682053d9146118d65780636d1aa7d51461169f5780636f12c2301461177357806372c17cb9146116d7578063761fb19a1461169f5780637ab096481461162f5780637e8f8da71461126c5780639740dbed146112305780639aaa5d8b146111f55780639c6b1f101461112d578063a722652714610514578063be2e2325146104c4578063bf3f80ac1461045a578063ceee106714610443578063d26196fd1461042c578063e9c260d714610415578063f14261d21461039d578063f5104ff114610386578063f53ef1261461020e5763fb5fb9a31461018f575f80fd5b3461020a57606036600319011261020a576004356001600160401b03811161020a576101bf90369060040161446c565b6024356001600160401b03811161020a576101de90369060040161446c565b90604435916001600160401b03831161020a57610202610208933690600401613eb2565b91615337565b005b5f80fd5b3461020a5760208061021f36613f7f565b9290604051928184925191829101835e81015f8152030190204260028201556082420190814211610372576010916005820155600660ff198254161781550181516001600160401b03811161035e576102788254613fcc565b601f8111610319575b50602092601f82116001146102bd57928192935f926102b2575b50505f19600383901b1c191660019190911b179055005b01519050838061029b565b601f19821693835f52805f20915f5b86811061030157508360019596106102e9575b505050811b019055005b01515f1960f88460031b161c191690558380806102df565b919260206001819286850151815501940192016102cc565b825f5260205f20601f830160051c81019160208410610354575b601f0160051c01905b8181106103495750610281565b5f815560010161033c565b9091508190610333565b634e487b7160e01b5f52604160045260245ffd5b634e487b7160e01b5f52601160045260245ffd5b3461020a57610208610397366144e4565b91614fc9565b3461020a575f36600319011261020a576003546103b9816146db565b905f805b8282106103d657604051806103d286826142d7565b0390f35b61040d6001916104076103f16103eb866140f0565b5061476c565b60ff831690610400828a614758565b5287614758565b506146b3565b9101906103bd565b3461020a57610208610426366144e4565b91614c2c565b3461020a5761020861043d36613f7f565b90614ae9565b3461020a5761020861045436613f7f565b9061499e565b3461020a57602036600319011261020a576004356001600160401b03811161020a576104b06020806104936103d2943690600401613eb2565b604051928184925191829101835e81016001815203019020614004565b604051918291602083526020830190613f07565b3461020a57602036600319011261020a576004356001600160401b03811161020a576105086104fa6103d2923690600401613eb2565b61050261485e565b506148cb565b604051918291826143a7565b3461020a57606036600319011261020a576004356001600160401b03811161020a57610544903690600401613eb2565b6024356001600160401b03811161020a57610563903690600401614120565b906044356001600160401b03811161020a5761058390369060040161417f565b61058c826145d6565b6003549160208101905f5b8481106105a057005b6105a9816140f0565b506040516105cd816105bf60208201809561454c565b03601f198101835282613e91565b51902060405160208101906105fa6020828751808a875e81015f838201520301601f198101835282613e91565b5190201461060b575b600101610597565b6003610616826140f0565b5001805461ff0019166103001790556106406020610633836140f0565b506040519283809261454c565b600581520301902086518051906001600160401b03821161035e576106658354613fcc565b601f81116110e8575b50602090601f83116001146110825760019392915f9183611077575b50505f19600383901b1c191690831b1781555b0160208701518051906001600160401b03821161035e5781906106c08454613fcc565b601f8111611027575b50602090601f8311600114610fc4575f92610fb9575b50508160011b915f199060031b1c19161790555b6107016020610633836140f0565b600681520301902084518051906001600160401b03821161035e5781906107288454613fcc565b601f8111610f69575b50602090601f8311600114610f06575f92610efb575b50508160011b915f199060031b1c19161781555b6001810160208601518051906001600160401b03821161035e5781906107818454613fcc565b601f8111610eab575b50602090601f8311600114610e48575f92610e3d575b50508160011b915f199060031b1c19161790555b6002810160408601518051906001600160401b03821161035e5781906107da8454613fcc565b601f8111610ded575b50602090601f8311600114610d8a575f92610d7f575b50508160011b915f199060031b1c19161790555b6003810160608601518051906001600160401b03821161035e5781906108338454613fcc565b601f8111610d2f575b50602090601f8311600114610ccc575f92610cc1575b50508160011b915f199060031b1c19161790555b6004810160808601518051906001600160401b03821161035e57819061088c8454613fcc565b601f8111610c71575b50602090601f8311600114610c0e575f92610c03575b50508160011b915f199060031b1c19161790555b6005810160a08601518051906001600160401b03821161035e5781906108e58454613fcc565b601f8111610bb3575b50602090601f8311600114610b50575f92610b45575b50508160011b915f199060031b1c19161790555b6006810160c08601518051906001600160401b03821161035e5761093c8354613fcc565b601f8111610b00575b50602090601f8311600114610a99576007949392915f9183610a8e575b50508160011b915f199060031b1c19161790555b0160e08501518051906001600160401b03821161035e576109978354613fcc565b601f8111610a49575b50602090601f83116001146109e2576001949392915f91836109d7575b50505f19600383901b1c191690841b1790555b9050610603565b015190508a806109bd565b90601f19831691845f52815f20925f5b818110610a31575091600196959492918388959310610a19575b505050811b0190556109d0565b01515f1960f88460031b161c191690558a8080610a0c565b929360206001819287860151815501950193016109f2565b835f5260205f20601f840160051c81019160208510610a84575b601f0160051c01905b818110610a7957506109a0565b5f8155600101610a6c565b9091508190610a63565b015190508b80610962565b90601f19831691845f52815f20925f5b818110610ae8575091600193918560079897969410610ad0575b505050811b019055610976565b01515f1960f88460031b161c191690558b8080610ac3565b92936020600181928786015181550195019301610aa9565b835f5260205f20601f840160051c81019160208510610b3b575b601f0160051c01905b818110610b305750610945565b5f8155600101610b23565b9091508190610b1a565b015190508a80610904565b5f8581528281209350601f198516905b818110610b9b5750908460019594939210610b83575b505050811b019055610918565b01515f1960f88460031b161c191690558a8080610b76565b92936020600181928786015181550195019301610b60565b909150835f5260205f20601f840160051c81019160208510610bf9575b90601f859493920160051c01905b818110610beb57506108ee565b5f8155849350600101610bde565b9091508190610bd0565b015190508a806108ab565b5f8581528281209350601f198516905b818110610c595750908460019594939210610c41575b505050811b0190556108bf565b01515f1960f88460031b161c191690558a8080610c34565b92936020600181928786015181550195019301610c1e565b909150835f5260205f20601f840160051c81019160208510610cb7575b90601f859493920160051c01905b818110610ca95750610895565b5f8155849350600101610c9c565b9091508190610c8e565b015190508a80610852565b5f8581528281209350601f198516905b818110610d175750908460019594939210610cff575b505050811b019055610866565b01515f1960f88460031b161c191690558a8080610cf2565b92936020600181928786015181550195019301610cdc565b909150835f5260205f20601f840160051c81019160208510610d75575b90601f859493920160051c01905b818110610d67575061083c565b5f8155849350600101610d5a565b9091508190610d4c565b015190508a806107f9565b5f8581528281209350601f198516905b818110610dd55750908460019594939210610dbd575b505050811b01905561080d565b01515f1960f88460031b161c191690558a8080610db0565b92936020600181928786015181550195019301610d9a565b909150835f5260205f20601f840160051c81019160208510610e33575b90601f859493920160051c01905b818110610e2557506107e3565b5f8155849350600101610e18565b9091508190610e0a565b015190508a806107a0565b5f8581528281209350601f198516905b818110610e935750908460019594939210610e7b575b505050811b0190556107b4565b01515f1960f88460031b161c191690558a8080610e6e565b92936020600181928786015181550195019301610e58565b909150835f5260205f20601f840160051c81019160208510610ef1575b90601f859493920160051c01905b818110610ee3575061078a565b5f8155849350600101610ed6565b9091508190610ec8565b015190508980610747565b5f8581528281209350601f198516905b818110610f515750908460019594939210610f39575b505050811b01815561075b565b01515f1960f88460031b161c19169055898080610f2c565b92936020600181928786015181550195019301610f16565b909150835f5260205f20601f840160051c81019160208510610faf575b90601f859493920160051c01905b818110610fa15750610731565b5f8155849350600101610f94565b9091508190610f86565b0151905089806106df565b5f8581528281209350601f198516905b81811061100f5750908460019594939210610ff7575b505050811b0190556106f3565b01515f1960f88460031b161c19169055898080610fea565b92936020600181928786015181550195019301610fd4565b909150835f5260205f20601f840160051c8101916020851061106d575b90601f859493920160051c01905b81811061105f57506106c9565b5f8155849350600101611052565b9091508190611044565b015190508a8061068a565b90601f19831691845f52815f20925f5b8181106110d057509160019594929183879593106110b8575b505050811b01815561069d565b01515f1960f88460031b161c191690558a80806110ab565b92936020600181928786015181550195019301611092565b835f5260205f20601f840160051c81019160208510611123575b601f0160051c01905b818110611118575061066e565b5f815560010161110b565b9091508190611102565b3461020a5761114661113e36613f7f565b819291614ae9565b6003549060208101905f5b83811061115a57005b611163816140f0565b50604051611179816105bf60208201809561454c565b51902060405160208101906111a66020828751808a875e81015f838201520301601f198101835282613e91565b519020146111b7575b600101611151565b60036111c2826140f0565b500161060061ff001982541617905560824201908142116103725760019160056111eb836140f0565b50015590506111af565b3461020a57602036600319011261020a576004356001600160401b03811161020a5761050861122b6103d2923690600401613eb2565b6148cb565b3461020a57604036600319011261020a576004356001600160401b03811161020a57611263610208913690600401613eb2565b602435906147e3565b3461020a57602036600319011261020a576004356001600160401b03811161020a5761129c903690600401613eb2565b6112a46145b6565b506040516112b181613e3e565b60608152602001606090526040516112c881613e59565b60608152602081016060905260408101606090526060810160609052608081016060905260a081016060905260c081016060905260e0016060905260405161130f81613e08565b60608152602081016060905260400160609052604051908051918060208301938085835e810160048152036020019020906040518082518086835e810160058152036020019020926040518083518084835e81016006815203602001902091604051918291518091835e810160078152036020019020906040519261139384613e08565b61139c81614004565b84526113aa60018201614004565b60208501526002015460ff169160408401928352604051946113cb86613e3e565b6113d481614004565b86526001016113e290614004565b9160208601928352604051906113f782613e59565b61140081614004565b825261140e60018201614004565b602083019081529061142260028201614004565b6040840190815261143560038301614004565b6060850190815261144860048401614004565b608086019081529061145c60058501614004565b60a087019081529261147060068601614004565b9460c0880195865260070161148490614004565b9560e088019687526040519a6114998c613e08565b6114a28a614004565b8c526114b060018b01614004565b9960208d019a8b526002016114c490614004565b9a60408d019b8c526040519e8f9e8f90608082528051608083016060905260e083016114ef91613f07565b906020015190607f198382030160a084015261150a91613f07565b935160ff1660c0820152808403906020015251604083526040830161152e91613f07565b905191808203906020015261154291613f07565b978c808a039060400152516101008952610100890161156091613f07565b90519088810360208a015261157491613f07565b905190878103604089015261158891613f07565b905190868103606088015261159c91613f07565b90519085810360808701526115b091613f07565b90519084810360a08601526115c491613f07565b90519083810360c08501526115d891613f07565b9051918082039060e001526115ec91613f07565b92848403606086015251606084526060840161160791613f07565b905190838103602085015261161b91613f07565b90519180820390604001526103d291613f07565b3461020a57602036600319011261020a576004356001600160401b03811161020a57602061166281923690600401613eb2565b604051928184925191829101835e8101600581520301902061168f600161168883614004565b9201614004565b906103d2604051928392836142b2565b3461020a57602036600319011261020a576004356001600160401b03811161020a576116d261168f913690600401613eb2565b61466e565b3461020a57602036600319011261020a576004356001600160401b03811161020a5760208061170d61175b933690600401613eb2565b604051928184925191829101835e8101600481520301902061172e81614004565b9061176960ff600261174260018501614004565b9301541691604051948594606086526060860190613f07565b908482036020860152613f07565b9060408301520390f35b3461020a57602036600319011261020a576004356001600160401b03811161020a576117a3903690600401613eb2565b60035460208201915f805b838110611873575060ff6117c291166146db565b925f915f5b8481106117dc57604051806103d288826142d7565b60026105bf6118016117ed846140f0565b50604051928391602083019586910161454c565b519020604051602081019061182e6020828751808a875e81015f838201520301601f198101835282613e91565b5190201461183f575b6001016117c7565b9261186b6001916104076118556103eb886140f0565b60ff831690611864828c614758565b5289614758565b939050611837565b60026105bf6118846117ed846140f0565b51902060405160208101906118b16020828851808c875e81015f838201520301601f198101835282613e91565b519020146118c2575b6001016117ae565b906118ce6001916146b3565b9190506118ba565b3461020a5760e036600319011261020a576004356001600160401b03811161020a57611906903690600401613eb2565b6024356001600160401b03811161020a57611925903690600401613eb2565b6044356001600160401b03811161020a57611944903690600401613eb2565b916064356001600160a01b038116810361020a576084359360ff851680950361020a5760a4356001600160401b03811161020a57611986903690600401614120565b9160c435906001600160401b03821161020a57826119ab6119b193369060040161417f565b96614604565b94611a0184602097604051906119c78a83613e91565b5f82526040516119d78b82613e91565b5f81526119e26145b6565b50604051926119f084613e08565b83528a8301525f6040830152615337565b604051611a0d81613e08565b848152604051611a1d8882613e91565b5f815287820190815260408201908382526040518981895180838c01835e8101600481520301902092518051906001600160401b03821161035e578190611a648654613fcc565b601f8111612c2a575b508b90601f8311600114612bc5575f92612bba575b50508160011b915f199060031b1c19161783555b51805160018401916001600160401b03821161035e57611ab68354613fcc565b601f8111612b77575b508a90601f8311600114612b0a57928260ff95929386946002965f92612aff575b50508160011b915f199060031b1c19161790555b51169201911660ff1982541617905560405190611b1082613e23565b84825260405192611b218885613e91565b5f8452878301938452604083015260608201525f6080820152604051611b478782613e91565b5f815260a08201525f60c08201526003546801000000000000000081101561035e57806001611b7992016003556140f0565b929092612aec5781518051906001600160401b03821161035e578190611b9f8654613fcc565b601f8111612a9e575b508990601f8311600114612a3b575f92612a30575b50508160011b915f199060031b1c19161783555b518051906001600160401b03821161035e578190611bf26001860154613fcc565b601f81116129df575b508890601f8311600114612975575f9261296a575b50508160011b915f199060031b1c19161760018301555b6002820160408201518051906001600160401b03821161035e578190611c4d8454613fcc565b601f811161291c575b508990601f83116001146128b9575f926128ae575b50508160011b915f199060031b1c19161790555b6003820160ff806060840151161660ff198254161781556080820151600981101561289a5761ff0082549160081b169061ff0019161790556004820160a08201518051906001600160401b03821161035e57611cdb8354613fcc565b601f8111612857575b508890601f83116001146127ee57918060c09492600596945f926127e3575b50508160011b915f199060031b1c19161790555b01519101556040518481845180838701835e8101600581520301902081519081516001600160401b03811161035e578692611d528354613fcc565b601f8111612791575b508390601f831160011461272b5760019392915f9183612720575b50505f19600383901b1c191690831b1781555b01910151918251916001600160401b03831161035e578592611dab8254613fcc565b94601f86116126c9575b8495508490601f8311600114612662575f919083612657575b50508160011b915f199060031b1c19161790555b604051928184925191829101835e810160068152030190209080519182516001600160401b03811161035e57611e188254613fcc565b601f8111612614575b508493601f82116001146125b45793819293945f926125a9575b50508160011b915f199060031b1c19161781555b60018101838301518051906001600160401b03821161035e578190611e748454613fcc565b601f811161255b575b508690601f83116001146124f8575f926124ed575b50508160011b915f199060031b1c19161790555b6002810160408301518051906001600160401b03821161035e578190611ecc8454613fcc565b601f811161249f575b508690601f831160011461243c575f92612431575b50508160011b915f199060031b1c19161790555b6003810160608301518051906001600160401b03821161035e578190611f248454613fcc565b601f81116123e3575b508690601f8311600114612380575f92612375575b50508160011b915f199060031b1c19161790555b6004810160808301518051906001600160401b03821161035e578190611f7c8454613fcc565b601f8111612327575b508690601f83116001146122c4575f926122b9575b50508160011b915f199060031b1c19161790555b6005810160a08301518051906001600160401b03821161035e578190611fd48454613fcc565b601f811161226b575b508690601f8311600114612208575f926121fd575b50508160011b915f199060031b1c19161790555b6006810160c08301518051906001600160401b03821161035e5761202a8354613fcc565b601f81116121ba575b508590601f83116001146121515791806007949260e096945f92612146575b50508160011b915f199060031b1c19161790555b01910151918251906001600160401b03821161035e576120868354613fcc565b601f8111612103575b5080601f83116001146120bd57508192935f926102b25750505f19600383901b1c191660019190911b179055005b90601f19831694845f52825f20925f905b8782106120eb5750508360019596106102e957505050811b019055005b806001859682949686015181550195019301906120ce565b835f52815f20601f840160051c81019183851061213c575b601f0160051c01905b818110612131575061208f565b5f8155600101612124565b909150819061211b565b015190508880612052565b90601f19831691845f52875f20925f5b898282106121a457505092600192859260e09896600798961061218c575b505050811b019055612066565b01515f1960f88460031b161c1916905588808061217f565b6001859682939686015181550195019301612161565b835f52865f20601f840160051c8101918885106121f3575b601f0160051c01905b8181106121e85750612033565b5f81556001016121db565b90915081906121d2565b015190508680611ff2565b5f8581528881209350601f198516905b8982821061225557505090846001959493921061223d575b505050811b019055612006565b01515f1960f88460031b161c19169055868080612230565b6001859682939686015181550195019301612218565b909150835f52865f20601f840160051c8101918885106122af575b90601f859493920160051c01905b8181106122a15750611fdd565b5f8155849350600101612294565b9091508190612286565b015190508680611f9a565b5f8581528881209350601f198516905b898282106123115750509084600195949392106122f9575b505050811b019055611fae565b01515f1960f88460031b161c191690558680806122ec565b60018596829396860151815501950193016122d4565b909150835f52865f20601f840160051c81019188851061236b575b90601f859493920160051c01905b81811061235d5750611f85565b5f8155849350600101612350565b9091508190612342565b015190508680611f42565b5f8581528881209350601f198516905b898282106123cd5750509084600195949392106123b5575b505050811b019055611f56565b01515f1960f88460031b161c191690558680806123a8565b6001859682939686015181550195019301612390565b909150835f52865f20601f840160051c810191888510612427575b90601f859493920160051c01905b8181106124195750611f2d565b5f815584935060010161240c565b90915081906123fe565b015190508680611eea565b5f8581528881209350601f198516905b89828210612489575050908460019594939210612471575b505050811b019055611efe565b01515f1960f88460031b161c19169055868080612464565b600185968293968601518155019501930161244c565b909150835f52865f20601f840160051c8101918885106124e3575b90601f859493920160051c01905b8181106124d55750611ed5565b5f81558493506001016124c8565b90915081906124ba565b015190508680611e92565b5f8581528881209350601f198516905b8982821061254557505090846001959493921061252d575b505050811b019055611ea6565b01515f1960f88460031b161c19169055868080612520565b6001859682939686015181550195019301612508565b909150835f52865f20601f840160051c81019188851061259f575b90601f859493920160051c01905b8181106125915750611e7d565b5f8155849350600101612584565b9091508190612576565b015190508580611e3b565b601f19821694835f52865f20915f5b888882106125fe575050836001959697106125e6575b505050811b018155611e4f565b01515f1960f88460031b161c191690558580806125d9565b60018495829395850151815501940192016125c3565b825f52855f20601f830160051c81019187841061264d575b601f0160051c01905b8181106126425750611e21565b5f8155600101612635565b909150819061262c565b015190508880611dce565b601f95949392919519821695835f52855f20915f5b8881106126b157508360019596979810612699575b505050811b019055611de2565b01515f1960f88460031b161c1916905588808061268c565b82820151845589976001909401939283019201612677565b918094505f9591939552865f20601f840160051c810191888510612716575b90601f899694979593920160051c01905b81811061270857505084611db5565b5f81558895506001016126f9565b90915081906126e8565b015190508980611d76565b90601f19831691845f52855f20925f5b8782821061277b575050916001959492918387959310612763575b505050811b018155611d89565b01515f1960f88460031b161c19169055898080612756565b600185968293968601518155019501930161273b565b9091928094505f52875f20601f840160051c8101918985106127d9575b90601f8a96959493920160051c01905b8181106127cb5750611d5b565b5f81558995506001016127be565b90915081906127ae565b015190508b80611d03565b90601f19831691845f528a5f20925f5b8c8282106128415750509260019285926005989660c0989610612829575b505050811b019055611d17565b01515f1960f88460031b161c191690558b808061281c565b60018596829396860151815501950193016127fe565b835f52895f20601f840160051c8101918b8510612890575b601f0160051c01905b8181106128855750611ce4565b5f8155600101612878565b909150819061286f565b634e487b7160e01b5f52602160045260245ffd5b015190508980611c6b565b5f8581528b81209350601f198516905b8c8282106129065750509084600195949392106128ee575b505050811b019055611c7f565b01515f1960f88460031b161c191690558980806128e1565b60018596829396860151815501950193016128c9565b909150835f52895f20601f840160051c8101918b8510612960575b90601f859493920160051c01905b8181106129525750611c56565b5f8155849350600101612945565b9091508190612937565b015190508880611c10565b600186015f9081528a81209350601f198516905b8b8282106129c95750509084600195949392106129b1575b505050811b016001830155611c27565b01515f1960f88460031b161c191690558880806129a1565b6001859682939686015181550195019301612989565b909150600185015f52885f20601f840160051c8101918a8510612a26575b90601f859493920160051c01905b818110612a185750611bfb565b5f8155849350600101612a0b565b90915081906129fd565b015190508980611bbd565b5f8781528b81209350601f198516905b8c828210612a88575050908460019594939210612a70575b505050811b018355611bd1565b01515f1960f88460031b161c19169055898080612a63565b6001859682939686015181550195019301612a4b565b909150855f52895f20601f840160051c8101918b8510612ae2575b90601f859493920160051c01905b818110612ad45750611ba8565b5f8155849350600101612ac7565b9091508190612ab9565b634e487b7160e01b5f525f60045260245ffd5b015190508e80611ae0565b5f8481528c8120929190601f198516908e5b828210612b5f5750509360ff969360029693600193838a9810612b47575b505050811b019055611af4565b01515f1960f88460031b161c191690558e8080612b3a565b80600186978294978701518155019601940190612b1c565b835f528b5f20601f840160051c8101918d8510612bb0575b601f0160051c01905b818110612ba55750611abf565b5f8155600101612b98565b9091508190612b8f565b015190508b80611a82565b5f8781528d81209350601f198516908e5b828210612c12575050908460019594939210612bfa575b505050811b018355611a96565b01515f1960f88460031b161c191690558b8080612bed565b80600186978294978701518155019601940190612bd6565b909150855f528b5f20601f840160051c8101918d8510612c6e575b90601f859493920160051c01905b818110612c605750611a6d565b5f8155849350600101612c53565b9091508190612c45565b3461020a57602036600319011261020a576004356001600160401b03811161020a57602080612cae612d03933690600401613eb2565b604051928184925191829101835e810160078152030190206103d2612cd282614004565b91612d11612cee6002612ce760018501614004565b9301614004565b91604051958695606087526060870190613f07565b908582036020870152613f07565b908382036040850152613f07565b3461020a57602036600319011261020a576004356001600160401b03811161020a57612d4f903690600401613eb2565b604051818192516020819201835e810160068152036020019020612d7281614004565b612d7e60018301614004565b91612d8b60028201614004565b90612d9860038201614004565b612da460048301614004565b612db060058401614004565b91612dbd60068501614004565b93600701612dca90614004565b9460405197889761010089526101008901612de491613f07565b88810360208a0152612df591613f07565b8781036040890152612e0691613f07565b8681036060880152612e1791613f07565b8581036080870152612e2891613f07565b84810360a0860152612e3991613f07565b83810360c0850152612e4a91613f07565b82810360e08401526103d291613f07565b3461020a57602036600319011261020a5760043560035481101561020a57612e85612ee2916140f0565b50612e8f81614004565b90612f25612e9f60018301614004565b91612eac60028201614004565b90612f18612efe600383015493612ef06005612eca60048701614004565b950154976040519a8b9a60e08c5260e08c0190613f07565b908a820360208c0152613f07565b9088820360408a0152613f07565b9260ff8116606088015260ff608088019160081c166140e3565b84820360a0860152613f07565b9060c08301520390f35b3461020a57602036600319011261020a576004356001600160401b03811161020a57612f62610208913690600401613eb2565b614634565b3461020a57602036600319011261020a576004356001600160401b03811161020a57612f97903690600401613eb2565b604051818192516020819201835e81015f8152036020019020805460ff166001820154916002810154906003810154600482015460058301546006840154600785015490600886015492600987015494600a8801612ff4906140a4565b96613001600d8a016140a4565b9860100161300e90614004565b996040519c61301e8e809e6140e3565b60208d015260408c015260608b015260808a015260a089015260c088015260e087015261010086015261012085015261014084016101a090526101a0840161306591613f2b565b83810361016085015261307791613f2b565b8281036101808401526103d291613f07565b3461020a57606036600319011261020a576004356001600160401b03811161020a576130b9903690600401613eb2565b6024356001600160401b03811161020a576130d8903690600401613eb2565b906044356001600160a01b038116810361020a576103d2926130f992614604565b604051918291602083526020830190613f2b565b3461020a5760c036600319011261020a576004356001600160401b03811161020a5761313d903690600401613eb2565b6024356001600160401b03811161020a5761315c903690600401613eb2565b6044356001600160401b03811161020a5761317b903690600401613eb2565b6064356001600160401b03811161020a5761319a903690600401613eb2565b6131a2613f69565b60a435916001600160401b03831161020a576131c56131cb933690600401613eb2565b93614604565b604051906001845192602081818801958087835e810160048152030190200185516001600160401b03811161035e576132048254613fcc565b601f8111613576575b506020601f821160011461350f5790806132449493925f91613504575b508160011b915f199060031b1c19161790555b8385614fc9565b600354925f5b84811061325357005b61325c816140f0565b50604051613272816105bf60208201809561454c565b519020604051602081019061329f6020828751808a875e81015f838201520301601f198101835282613e91565b519020146132b0575b60010161324a565b60016132bb826140f0565b500186516001600160401b03811161035e576132d78254613fcc565b601f81116134bf575b50806020601f821160011461345c575f91613451575b508160011b915f199060031b1c19161790555b6003613314826140f0565b5001805461ff001916610100179055600461332e826140f0565b500184516001600160401b03811161035e5761334a8254613fcc565b601f811161340c575b50806020601f82116001146133ab575f916133a0575b508160011b915f199060031b1c19161790555b6082420190814211610372576001916005613396836140f0565b50015590506132a8565b905086015189613369565b5f8481528181209250601f198416905b8181106133f4575090836001949392106133dc575b5050811b01905561337c565b8801515f1960f88460031b161c1916905589806133d0565b9192602060018192868d0151815501940192016133bb565b825f5260205f20601f830160051c81019160208410613447575b601f0160051c01905b81811061343c5750613353565b5f815560010161342f565b9091508190613426565b9050880151896132f6565b5f8481528181209250601f198416905b8b8282106134a7575050908360019493921061348f575b5050811b019055613309565b8a01515f1960f88460031b161c191690558980613483565b6001849560209395849301518155019401920161346c565b825f5260205f20601f830160051c810191602084106134fa575b601f0160051c01905b8181106134ef57506132e0565b5f81556001016134e2565b90915081906134d9565b90508801518961322a565b601f19821690835f52805f20915f5b8a82821061355e57505091839161324496959460019410613546575b5050811b01905561323d565b8a01515f1960f88460031b161c19169055898061353a565b6001849560209395849301518155019401920161351e565b825f5260205f20601f830160051c810191602084106135b1575b601f0160051c01905b8181106135a6575061320d565b5f8155600101613599565b9091508190613590565b3461020a57602036600319011261020a576004356001600160401b03811161020a576135eb903690600401613eb2565b6135f481614634565b600354602082015f5b82811061360657005b806136126001926140f0565b50604051613628816105bf60208201809561454c565b51902060405160208101906136556020828a51808a875e81015f838201520301601f198101835282613e91565b51902014613664575b016135fd565b600361366f826140f0565b5001805461ff00191661080017905561365e565b3461020a57602036600319011261020a576004356001600160401b03811161020a576104b06020806136bc6103d2943690600401613eb2565b604051928184925191829101835e81016002815203019020614004565b3461020a576136f26136ea36613f7f565b81929161499e565b600354602082015f5b82811061370457005b806137106001926140f0565b50604051613726816105bf60208201809561454c565b51902060405160208101906137536020828a51808a875e81015f838201520301601f198101835282613e91565b51902014613762575b016136fb565b600361376d826140f0565b5001805461ff00191661070017905561375c565b3461020a5760a036600319011261020a576004356001600160401b03811161020a576137b1903690600401613eb2565b6024356001600160401b03811161020a576137d0903690600401613eb2565b6044356001600160401b03811161020a576137ef903690600401613eb2565b906064356001600160401b03811161020a5761382b92613816613824923690600401613eb2565b61381e613f69565b91614604565b9083614c2c565b600354602082015f5b82811061383d57005b806138496001926140f0565b5060405161385f816105bf60208201809561454c565b519020604051602081019061388c6020828a51808a875e81015f838201520301601f198101835282613e91565b5190201461389b575b01613834565b60036138a6826140f0565b5001805461ff001916610200179055613895565b3461020a57602036600319011261020a576004356001600160401b03811161020a576138ed610208913690600401613eb2565b6145d6565b3461020a57602036600319011261020a576004356001600160401b03811161020a576130f9600a60208061392d6103d2953690600401613eb2565b6139356145b6565b50604051928184925191829101835e81015f815203019020016140a4565b3461020a57606036600319011261020a576004356001600160401b03811161020a57613983903690600401613eb2565b604435906001600160401b03821161020a576060600319833603011261020a57604051916139b083613e08565b80600401356001600160401b03811161020a576139d39060043691840101613eb2565b835260248101356001600160401b03811161020a576139f89060043691840101613eb2565b90602084019182526044810135906001600160401b03821161020a576004613a239236920101613eb2565b9260408101938452613a37602435846147e3565b60405191835192602081818701958087835e8101600781520301902091518051906001600160401b03821161035e578190613a728554613fcc565b601f8111613db8575b50602090601f8311600114613d55575f92613d4a575b50508160011b915f199060031b1c19161782555b51805160018301916001600160401b03821161035e57613ac58354613fcc565b601f8111613d05575b50602090601f8311600114613c9e576002949392915f9183613c93575b50508160011b915f199060031b1c19161790555b0192519283516001600160401b03811161035e57613b1d8254613fcc565b601f8111613c4e575b50602094601f8211600114613bed579481929394955f92613be2575b50508160011b915f199060031b1c19161790555b600354905f5b828110613b6557005b80613b716001926140f0565b50604051613b87816105bf60208201809561454c565b5190206040516020810190613bb46020828a51808a875e81015f838201520301601f198101835282613e91565b51902014613bc3575b01613b5c565b6003613bce826140f0565b5001805461ff001916610500179055613bbd565b015190508580613b42565b601f19821695835f52805f20915f5b888110613c3657508360019596979810613c1e575b505050811b019055613b56565b01515f1960f88460031b161c19169055858080613c11565b91926020600181928685015181550194019201613bfc565b825f5260205f20601f830160051c81019160208410613c89575b601f0160051c01905b818110613c7e5750613b26565b5f8155600101613c71565b9091508190613c68565b015190508880613aeb565b90601f19831691845f52815f20925f5b818110613ced575091600193918560029897969410613cd5575b505050811b019055613aff565b01515f1960f88460031b161c19169055888080613cc8565b92936020600181928786015181550195019301613cae565b835f5260205f20601f840160051c81019160208510613d40575b601f0160051c01905b818110613d355750613ace565b5f8155600101613d28565b9091508190613d1f565b015190508780613a91565b5f8681528281209350601f198516905b818110613da05750908460019594939210613d88575b505050811b018255613aa5565b01515f1960f88460031b161c19169055878080613d7b565b92936020600181928786015181550195019301613d65565b909150845f5260205f20601f840160051c81019160208510613dfe575b90601f859493920160051c01905b818110613df05750613a7b565b5f8155849350600101613de3565b9091508190613dd5565b606081019081106001600160401b0382111761035e57604052565b60e081019081106001600160401b0382111761035e57604052565b604081019081106001600160401b0382111761035e57604052565b61010081019081106001600160401b0382111761035e57604052565b6101a081019081106001600160401b0382111761035e57604052565b90601f801991011681019081106001600160401b0382111761035e57604052565b81601f8201121561020a578035906001600160401b03821161035e5760405192613ee6601f8401601f191660200185613e91565b8284526020838301011161020a57815f926020809301838601378301015290565b805180835260209291819084018484015e5f828201840152601f01601f1916010190565b906040613f56613f448451606085526060850190613f07565b60208501518482036020860152613f07565b928101516001600160a01b031691015290565b608435906001600160a01b038216820361020a57565b90604060031983011261020a576004356001600160401b03811161020a5782613faa91600401613eb2565b91602435906001600160401b03821161020a57613fc991600401613eb2565b90565b90600182811c92168015613ffa575b6020831014613fe657565b634e487b7160e01b5f52602260045260245ffd5b91607f1691613fdb565b9060405191825f82549261401784613fcc565b8084529360018116908115614082575060011461403e575b5061403c92500383613e91565b565b90505f9291925260205f20905f915b81831061406657505090602061403c928201015f61402f565b602091935080600191548385890101520191019091849261404d565b90506020925061403c94915060ff191682840152151560051b8201015f61402f565b906040516140b181613e08565b604081936140be81614004565b83526140cc60018201614004565b6020840152600201546001600160a01b0316910152565b90600982101561289a5752565b60035481101561410c5760035f52600660205f20910201905f90565b634e487b7160e01b5f52603260045260245ffd5b919060408382031261020a576040519061413982613e3e565b819380356001600160401b03811161020a5782614157918301613eb2565b83526020810135916001600160401b03831161020a5760209261417a9201613eb2565b910152565b91906101008382031261020a576040519061419982613e59565b819380356001600160401b03811161020a57826141b7918301613eb2565b835260208101356001600160401b03811161020a57826141d8918301613eb2565b602084015260408101356001600160401b03811161020a57826141fc918301613eb2565b604084015260608101356001600160401b03811161020a5782614220918301613eb2565b606084015260808101356001600160401b03811161020a5782614244918301613eb2565b608084015260a08101356001600160401b03811161020a5782614268918301613eb2565b60a084015260c08101356001600160401b03811161020a578261428c918301613eb2565b60c084015260e0810135916001600160401b03831161020a5760e09261417a9201613eb2565b90916142c9613fc993604084526040840190613f07565b916020818403910152613f07565b602081016020825282518091526040820191602060408360051b8301019401925f915b83831061430957505050505090565b9091929394602080600192603f1985820301865288519060c08061439261436161434f61433f875160e0885260e0880190613f07565b888801518782038a890152613f07565b60408701518682036040880152613f07565b60ff6060870151166060860152614380608087015160808701906140e3565b60a086015185820360a0870152613f07565b930151910152970193019301919392906142fa565b90613fc991602081526143be6020820183516140e3565b602082015160408201526040820151606082015260608201516080820152608082015160a082015260a082015160c082015260c082015160e082015260e08201516101008201526101008201516101208201526101208201516101408201526101806144566144406101408501516101a06101608601526101c0850190613f2b565b610160850151848203601f190184860152613f2b565b920151906101a0601f1982850301910152613f07565b919060608382031261020a576040519061448582613e08565b819380356001600160401b03811161020a57826144a3918301613eb2565b835260208101356001600160401b03811161020a576040926144c6918301613eb2565b60208401520135906001600160a01b038216820361020a5760400152565b606060031982011261020a576004356001600160401b03811161020a578161450e91600401613eb2565b916024356001600160401b03811161020a578261452d91600401613eb2565b91604435906001600160401b03821161020a57613fc99160040161446c565b5f929181549161455b83613fcc565b92600181169081156145a3575060011461457457505050565b90919293505f5260205f205f905b83821061458f5750500190565b600181602092548486015201910190614582565b60ff191683525050811515909102019150565b604051906145c382613e08565b5f60408360608152606060208201520152565b60208091604051928184925191829101835e81015f815203019020426004820155600360ff19825416179055565b919061460e6145b6565b506040519261461c84613e08565b835260208301526001600160a01b0316604082015290565b60208091604051928184925191829101835e81015f815203019020426009820155600860ff19825416179055565b600982101561289a5752565b90613fc96146ad60405160208551918181818901948086835e8101600181520301902095604051928391518091835e8101600281520301902093614004565b92614004565b60ff1660ff81146103725760010190565b6001600160401b03811161035e5760051b60200190565b906146e5826146c4565b6146f26040519182613e91565b8281528092614703601f19916146c4565b01905f5b82811061471357505050565b60209060405161472281613e23565b60608152606083820152606060408201525f60608201525f6080820152606060a08201525f60c082015282828501015201614707565b805182101561410c5760209160051b010190565b9060405161477981613e23565b60c06005829461478881614004565b845261479660018201614004565b60208501526147a760028201614004565b60408501526147cb60ff6003830154818116606088015260081c1660808601614662565b6147d760048201614004565b60a08501520154910152565b904211156148195760208091604051928184925191829101835e81015f815203019020426006820155600560ff19825416179055565b60405162461bcd60e51b815260206004820152601860248201527f536572746966696b6174206d61736968206265726c616b7500000000000000006044820152606490fd5b6040519061486b82613e75565b6060610180835f81525f60208201525f60408201525f838201525f60808201525f60a08201525f60c08201525f60e08201525f6101008201525f6101208201526148b36145b6565b6101408201526148c16145b6565b6101608201520152565b602080916148d761485e565b50604051928184925191829101835e81015f81520301902061499560106040519261490184613e75565b61490f60ff82541685614662565b60018101546020850152600281015460408501526003810154606085015260048101546080850152600581015460a0850152600681015460c0850152600781015460e085015260088101546101008501526009810154610120850152614977600a82016140a4565b610140850152614989600d82016140a4565b61016085015201614004565b61018082015290565b91909160405160208251918181818601948086835e81015f81520301902092604051928391518091835e8101600281520301902083516001600160401b03811161035e576149ec8254613fcc565b601f8111614aa4575b50602094601f8211600114614a43579481929394955f92614a38575b50508160011b915f199060031b1c19161790555b426008820155805460ff19166007179055565b015190505f80614a11565b601f19821695835f52805f20915f5b888110614a8c57508360019596979810614a74575b505050811b019055614a25565b01515f1960f88460031b161c191690555f8080614a67565b91926020600181928685015181550194019201614a52565b825f5260205f20601f830160051c81019160208410614adf575b601f0160051c01905b818110614ad457506149f5565b5f8155600101614ac7565b9091508190614abe565b60208091939293604051928184925191829101835e81015f8152030190204260078201556082420190814211610372576010916005820155600660ff198254161781550182516001600160401b03811161035e57614b478254613fcc565b601f8111614be7575b506020601f8211600114614b8957819293945f92614b7e575b50508160011b915f199060031b1c1916179055565b015190505f80614b69565b601f19821690835f52805f20915f5b818110614bcf57509583600195969710614bb7575b505050811b019055565b01515f1960f88460031b161c191690555f8080614bad565b9192602060018192868b015181550194019201614b98565b825f5260205f20601f830160051c81019160208410614c22575b601f0160051c01905b818110614c175750614b50565b5f8155600101614c0a565b9091508190614c01565b92919060405160208551918181818901948086835e81015f81520301902095604051928391518091835e81016001815203019020908051906001600160401b03821161035e578190614c7e8454613fcc565b601f8111614f79575b50602090601f8311600114614f16575f92614f0b575b50508160011b915f199060031b1c19161790555b80518051600d8501916001600160401b03821161035e57614cd28354613fcc565b601f8111614ec6575b50602090601f8311600114614e5f576020949392915f9183614e54575b50508160011b915f199060031b1c19161790555b6040810151600f850180546001600160a01b0319166001600160a01b039290921691909117905501518051909290600e8201906001600160401b03811161035e57614d578254613fcc565b601f8111614e0f575b50602094601f8211600114614dae579481929394955f92614da3575b50508160011b915f199060031b1c19161790555b426003820155805460ff19166002179055565b015190505f80614d7c565b601f19821695835f52805f20915f5b888110614df757508360019596979810614ddf575b505050811b019055614d90565b01515f1960f88460031b161c191690555f8080614dd2565b91926020600181928685015181550194019201614dbd565b825f5260205f20601f830160051c81019160208410614e4a575b601f0160051c01905b818110614e3f5750614d60565b5f8155600101614e32565b9091508190614e29565b015190505f80614cf8565b90601f19831691845f52815f20925f5b818110614eae575091600193918560209897969410614e96575b505050811b019055614d0c565b01515f1960f88460031b161c191690555f8080614e89565b92936020600181928786015181550195019301614e6f565b835f5260205f20601f840160051c81019160208510614f01575b601f0160051c01905b818110614ef65750614cdb565b5f8155600101614ee9565b9091508190614ee0565b015190505f80614c9d565b5f8581528281209350601f198516905b818110614f615750908460019594939210614f49575b505050811b019055614cb1565b01515f1960f88460031b161c191690555f8080614f3c565b92936020600181928786015181550195019301614f26565b909150835f5260205f20601f840160051c81019160208510614fbf575b90601f859493920160051c01905b818110614fb15750614c87565b5f8155849350600101614fa4565b9091508190614f96565b6020809194939294604051928184925191829101835e81015f815203019020908051600d8301908051906001600160401b03821161035e5761500b8354613fcc565b601f81116152f2575b50602090601f831160011461528b576020949392915f9183615280575b50508160011b915f199060031b1c19161790555b6040810151600f840180546001600160a01b0319166001600160a01b039290921691909117905501518051600e8301916001600160401b03821161035e57819061508f8454613fcc565b601f8111615230575b50602090601f83116001146151cd575f926151c2575b50508160011b915f199060031b1c19161790555b4260028201556082420190814211610372576010916005820155600160ff198254161781550182516001600160401b03811161035e576151028254613fcc565b601f811161517d575b506020601f821160011461513857819293945f92614b7e5750508160011b915f199060031b1c1916179055565b601f19821690835f52805f20915f5b81811061516557509583600195969710614bb757505050811b019055565b9192602060018192868b015181550194019201615147565b825f5260205f20601f830160051c810191602084106151b8575b601f0160051c01905b8181106151ad575061510b565b5f81556001016151a0565b9091508190615197565b015190505f806150ae565b5f8581528281209350601f198516905b8181106152185750908460019594939210615200575b505050811b0190556150c2565b01515f1960f88460031b161c191690555f80806151f3565b929360206001819287860151815501950193016151dd565b909150835f5260205f20601f840160051c81019160208510615276575b90601f859493920160051c01905b8181106152685750615098565b5f815584935060010161525b565b909150819061524d565b015190505f80615031565b90601f19831691845f52815f20925f5b8181106152da5750916001939185602098979694106152c2575b505050811b019055615045565b01515f1960f88460031b161c191690555f80806152b5565b9293602060018192878601518155019501930161529b565b835f5260205f20601f840160051c8101916020851061532d575b601f0160051c01905b8181106153225750615014565b5f8155600101615315565b909150819061530c565b92909192604051809161534982613e75565b5f825260208201428152604083015f8152606084015f8152608085015f815260a086015f815260c08701915f835260e08801935f85526101008901955f87526101208a01975f89526101408b01998a526101608b019d8e5260209e8f80916040519e8f6153b68482613e91565b5f9052610180019e8f52604051928184925191829101835e81015f8152030190209a51600981101561289a5760ff80198d54169116178b555160018b01555160028a0155516003890155516004880155516005870155516006860155516007850155516008840155516009830155600a820190519081518051906001600160401b03821161035e57819061544a8454613fcc565b601f8111615957575b508990601f83116001146158f4575f926158e9575b50508160011b915f199060031b1c19161790555b600b8201868201518051906001600160401b03821161035e5781906154a18454613fcc565b601f811161589b575b508990601f8311600114615838575f9261582d575b50508160011b915f199060031b1c19161790555b60400151600c820180546001600160a01b0319166001600160a01b0392909216919091179055925180518051919491600d8301916001600160401b03821161035e5781906155218454613fcc565b601f81116157df575b508890601f831160011461577c575f92615771575b50508160011b915f199060031b1c19161790555b600e81019385810151948551956001600160401b03871161035e576155788254613fcc565b601f811161572e575b508790601f88116001146156c75796809160109697985f926156bc575b50508160011b915f199060031b1c19161790555b60400151600f820180546001600160a01b0319166001600160a01b03929092169190911790559151805190949190920191906001600160401b03821161035e576155fc8354613fcc565b601f8111615679575b5080601f83116001146156325750819293945f92614b7e5750508160011b915f199060031b1c1916179055565b90601f19831695845f52825f20925f905b88821061566157505083600195969710614bb757505050811b019055565b80600185968294968601518155019501930190615643565b835f52815f20601f840160051c8101918385106156b2575b601f0160051c01905b8181106156a75750615605565b5f815560010161569a565b9091508190615691565b015190505f8061559e565b90601f19881691835f52895f20925f5b8b82821061571857505091600193918a6010999a9b9410615700575b505050811b0190556155b2565b01515f1960f88460031b161c191690555f80806156f3565b60018596829396860151815501950193016156d7565b825f52885f20601f890160051c8101918a8a10615767575b601f0160051c01905b81811061575c5750615581565b5f815560010161574f565b9091508190615746565b015190505f8061553f565b5f8581528a81209350601f198516905b8b8282106157c95750509084600195949392106157b1575b505050811b019055615553565b01515f1960f88460031b161c191690555f80806157a4565b600185968293968601518155019501930161578c565b909150835f52885f20601f840160051c8101918a8510615823575b90601f859493920160051c01905b818110615815575061552a565b5f8155849350600101615808565b90915081906157fa565b015190505f806154bf565b5f8581528b81209350601f198516905b8c82821061588557505090846001959493921061586d575b505050811b0190556154d3565b01515f1960f88460031b161c191690555f8080615860565b6001859682939686015181550195019301615848565b909150835f52895f20601f840160051c8101918b85106158df575b90601f859493920160051c01905b8181106158d157506154aa565b5f81558493506001016158c4565b90915081906158b6565b015190505f80615468565b5f8581528b81209350601f198516905b8c828210615941575050908460019594939210615929575b505050811b01905561547c565b01515f1960f88460031b161c191690555f808061591c565b6001859682939686015181550195019301615904565b909150835f52895f20601f840160051c8101918b851061599b575b90601f859493920160051c01905b81811061598d5750615453565b5f8155849350600101615980565b909150819061597256fea2646970667358221220d7819df3e3dba1456b8478946625dd0cee7c16093905cbc511fc50e69274e4ce64736f6c634300081b0033","opcodes":"PUSH1 0x80 DUP1 PUSH1 0x40 MSTORE CALLVALUE PUSH1 0x15 JUMPI PUSH2 0x59DB SWAP1 DUP2 PUSH2 0x1A DUP3 CODECOPY RETURN JUMPDEST PUSH0 DUP1 REVERT INVALID PUSH1 0x80 PUSH1 0x40 MSTORE PUSH1 0x4 CALLDATASIZE LT ISZERO PUSH2 0x11 JUMPI PUSH0 DUP1 REVERT JUMPDEST PUSH0 CALLDATALOAD PUSH1 0xE0 SHR DUP1 PUSH4 0x7B11C0B EQ PUSH2 0x3953 JUMPI DUP1 PUSH4 0x17E68309 EQ PUSH2 0x38F2 JUMPI DUP1 PUSH4 0x19859C87 EQ PUSH2 0x38BA JUMPI DUP1 PUSH4 0x1ACF2500 EQ PUSH2 0x3781 JUMPI DUP1 PUSH4 0x252006AF EQ PUSH2 0x36D9 JUMPI DUP1 PUSH4 0x26C6D4C5 EQ PUSH2 0x3683 JUMPI DUP1 PUSH4 0x278B94CE EQ PUSH2 0x35BB JUMPI DUP1 PUSH4 0x2B93F7F2 EQ PUSH2 0x310D JUMPI DUP1 PUSH4 0x2E9CF827 EQ PUSH2 0x3089 JUMPI DUP1 PUSH4 0x34A34F30 EQ PUSH2 0x2F67 JUMPI DUP1 PUSH4 0x3A947F1A EQ PUSH2 0x2F2F JUMPI DUP1 PUSH4 0x43762AA8 EQ PUSH2 0x2E5B JUMPI DUP1 PUSH4 0x500619D0 EQ PUSH2 0x2D1F JUMPI DUP1 PUSH4 0x5691ACF7 EQ PUSH2 0x2C78 JUMPI DUP1 PUSH4 0x682053D9 EQ PUSH2 0x18D6 JUMPI DUP1 PUSH4 0x6D1AA7D5 EQ PUSH2 0x169F JUMPI DUP1 PUSH4 0x6F12C230 EQ PUSH2 0x1773 JUMPI DUP1 PUSH4 0x72C17CB9 EQ PUSH2 0x16D7 JUMPI DUP1 PUSH4 0x761FB19A EQ PUSH2 0x169F JUMPI DUP1 PUSH4 0x7AB09648 EQ PUSH2 0x162F JUMPI DUP1 PUSH4 0x7E8F8DA7 EQ PUSH2 0x126C JUMPI DUP1 PUSH4 0x9740DBED EQ PUSH2 0x1230 JUMPI DUP1 PUSH4 0x9AAA5D8B EQ PUSH2 0x11F5 JUMPI DUP1 PUSH4 0x9C6B1F10 EQ PUSH2 0x112D JUMPI DUP1 PUSH4 0xA7226527 EQ PUSH2 0x514 JUMPI DUP1 PUSH4 0xBE2E2325 EQ PUSH2 0x4C4 JUMPI DUP1 PUSH4 0xBF3F80AC EQ PUSH2 0x45A JUMPI DUP1 PUSH4 0xCEEE1067 EQ PUSH2 0x443 JUMPI DUP1 PUSH4 0xD26196FD EQ PUSH2 0x42C JUMPI DUP1 PUSH4 0xE9C260D7 EQ PUSH2 0x415 JUMPI DUP1 PUSH4 0xF14261D2 EQ PUSH2 0x39D JUMPI DUP1 PUSH4 0xF5104FF1 EQ PUSH2 0x386 JUMPI DUP1 PUSH4 0xF53EF126 EQ PUSH2 0x20E JUMPI PUSH4 0xFB5FB9A3 EQ PUSH2 0x18F JUMPI PUSH0 DUP1 REVERT JUMPDEST CALLVALUE PUSH2 0x20A JUMPI PUSH1 0x60 CALLDATASIZE PUSH1 0x3 NOT ADD SLT PUSH2 0x20A JUMPI PUSH1 0x4 CALLDATALOAD PUSH1 0x1 PUSH1 0x1 PUSH1 0x40 SHL SUB DUP2 GT PUSH2 0x20A JUMPI PUSH2 0x1BF SWAP1 CALLDATASIZE SWAP1 PUSH1 0x4 ADD PUSH2 0x446C JUMP JUMPDEST PUSH1 0x24 CALLDATALOAD PUSH1 0x1 PUSH1 0x1 PUSH1 0x40 SHL SUB DUP2 GT PUSH2 0x20A JUMPI PUSH2 0x1DE SWAP1 CALLDATASIZE SWAP1 PUSH1 0x4 ADD PUSH2 0x446C JUMP JUMPDEST SWAP1 PUSH1 0x44 CALLDATALOAD SWAP2 PUSH1 0x1 PUSH1 0x1 PUSH1 0x40 SHL SUB DUP4 GT PUSH2 0x20A JUMPI PUSH2 0x202 PUSH2 0x208 SWAP4 CALLDATASIZE SWAP1 PUSH1 0x4 ADD PUSH2 0x3EB2 JUMP JUMPDEST SWAP2 PUSH2 0x5337 JUMP JUMPDEST STOP JUMPDEST PUSH0 DUP1 REVERT JUMPDEST CALLVALUE PUSH2 0x20A JUMPI PUSH1 0x20 DUP1 PUSH2 0x21F CALLDATASIZE PUSH2 0x3F7F JUMP JUMPDEST SWAP3 SWAP1 PUSH1 0x40 MLOAD SWAP3 DUP2 DUP5 SWAP3 MLOAD SWAP2 DUP3 SWAP2 ADD DUP4 MCOPY DUP2 ADD PUSH0 DUP2 MSTORE SUB ADD SWAP1 KECCAK256 TIMESTAMP PUSH1 0x2 DUP3 ADD SSTORE PUSH1 0x82 TIMESTAMP ADD SWAP1 DUP2 TIMESTAMP GT PUSH2 0x372 JUMPI PUSH1 0x10 SWAP2 PUSH1 0x5 DUP3 ADD SSTORE PUSH1 0x6 PUSH1 0xFF NOT DUP3 SLOAD AND OR DUP2 SSTORE ADD DUP2 MLOAD PUSH1 0x1 PUSH1 0x1 PUSH1 0x40 SHL SUB DUP2 GT PUSH2 0x35E JUMPI PUSH2 0x278 DUP3 SLOAD PUSH2 0x3FCC JUMP JUMPDEST PUSH1 0x1F DUP2 GT PUSH2 0x319 JUMPI JUMPDEST POP PUSH1 0x20 SWAP3 PUSH1 0x1F DUP3 GT PUSH1 0x1 EQ PUSH2 0x2BD JUMPI SWAP3 DUP2 SWAP3 SWAP4 PUSH0 SWAP3 PUSH2 0x2B2 JUMPI JUMPDEST POP POP PUSH0 NOT PUSH1 0x3 DUP4 SWAP1 SHL SHR NOT AND PUSH1 0x1 SWAP2 SWAP1 SWAP2 SHL OR SWAP1 SSTORE STOP JUMPDEST ADD MLOAD SWAP1 POP DUP4 DUP1 PUSH2 0x29B JUMP JUMPDEST PUSH1 0x1F NOT DUP3 AND SWAP4 DUP4 PUSH0 MSTORE DUP1 PUSH0 KECCAK256 SWAP2 PUSH0 JUMPDEST DUP7 DUP2 LT PUSH2 0x301 JUMPI POP DUP4 PUSH1 0x1 SWAP6 SWAP7 LT PUSH2 0x2E9 JUMPI JUMPDEST POP POP POP DUP2 SHL ADD SWAP1 SSTORE STOP JUMPDEST ADD MLOAD PUSH0 NOT PUSH1 0xF8 DUP5 PUSH1 0x3 SHL AND SHR NOT AND SWAP1 SSTORE DUP4 DUP1 DUP1 PUSH2 0x2DF JUMP JUMPDEST SWAP2 SWAP3 PUSH1 0x20 PUSH1 0x1 DUP2 SWAP3 DUP7 DUP6 ADD MLOAD DUP2 SSTORE ADD SWAP5 ADD SWAP3 ADD PUSH2 0x2CC JUMP JUMPDEST DUP3 PUSH0 MSTORE PUSH1 0x20 PUSH0 KECCAK256 PUSH1 0x1F DUP4 ADD PUSH1 0x5 SHR DUP2 ADD SWAP2 PUSH1 0x20 DUP5 LT PUSH2 0x354 JUMPI JUMPDEST PUSH1 0x1F ADD PUSH1 0x5 SHR ADD SWAP1 JUMPDEST DUP2 DUP2 LT PUSH2 0x349 JUMPI POP PUSH2 0x281 JUMP JUMPDEST PUSH0 DUP2 SSTORE PUSH1 0x1 ADD PUSH2 0x33C JUMP JUMPDEST SWAP1 SWAP2 POP DUP2 SWAP1 PUSH2 0x333 JUMP JUMPDEST PUSH4 0x4E487B71 PUSH1 0xE0 SHL PUSH0 MSTORE PUSH1 0x41 PUSH1 0x4 MSTORE PUSH1 0x24 PUSH0 REVERT JUMPDEST PUSH4 0x4E487B71 PUSH1 0xE0 SHL PUSH0 MSTORE PUSH1 0x11 PUSH1 0x4 MSTORE PUSH1 0x24 PUSH0 REVERT JUMPDEST CALLVALUE PUSH2 0x20A JUMPI PUSH2 0x208 PUSH2 0x397 CALLDATASIZE PUSH2 0x44E4 JUMP JUMPDEST SWAP2 PUSH2 0x4FC9 JUMP JUMPDEST CALLVALUE PUSH2 0x20A JUMPI PUSH0 CALLDATASIZE PUSH1 0x3 NOT ADD SLT PUSH2 0x20A JUMPI PUSH1 0x3 SLOAD PUSH2 0x3B9 DUP2 PUSH2 0x46DB JUMP JUMPDEST SWAP1 PUSH0 DUP1 JUMPDEST DUP3 DUP3 LT PUSH2 0x3D6 JUMPI PUSH1 0x40 MLOAD DUP1 PUSH2 0x3D2 DUP7 DUP3 PUSH2 0x42D7 JUMP JUMPDEST SUB SWAP1 RETURN JUMPDEST PUSH2 0x40D PUSH1 0x1 SWAP2 PUSH2 0x407 PUSH2 0x3F1 PUSH2 0x3EB DUP7 PUSH2 0x40F0 JUMP JUMPDEST POP PUSH2 0x476C JUMP JUMPDEST PUSH1 0xFF DUP4 AND SWAP1 PUSH2 0x400 DUP3 DUP11 PUSH2 0x4758 JUMP JUMPDEST MSTORE DUP8 PUSH2 0x4758 JUMP JUMPDEST POP PUSH2 0x46B3 JUMP JUMPDEST SWAP2 ADD SWAP1 PUSH2 0x3BD JUMP JUMPDEST CALLVALUE PUSH2 0x20A JUMPI PUSH2 0x208 PUSH2 0x426 CALLDATASIZE PUSH2 0x44E4 JUMP JUMPDEST SWAP2 PUSH2 0x4C2C JUMP JUMPDEST CALLVALUE PUSH2 0x20A JUMPI PUSH2 0x208 PUSH2 0x43D CALLDATASIZE PUSH2 0x3F7F JUMP JUMPDEST SWAP1 PUSH2 0x4AE9 JUMP JUMPDEST CALLVALUE PUSH2 0x20A JUMPI PUSH2 0x208 PUSH2 0x454 CALLDATASIZE PUSH2 0x3F7F JUMP JUMPDEST SWAP1 PUSH2 0x499E JUMP JUMPDEST CALLVALUE PUSH2 0x20A JUMPI PUSH1 0x20 CALLDATASIZE PUSH1 0x3 NOT ADD SLT PUSH2 0x20A JUMPI PUSH1 0x4 CALLDATALOAD PUSH1 0x1 PUSH1 0x1 PUSH1 0x40 SHL SUB DUP2 GT PUSH2 0x20A JUMPI PUSH2 0x4B0 PUSH1 0x20 DUP1 PUSH2 0x493 PUSH2 0x3D2 SWAP5 CALLDATASIZE SWAP1 PUSH1 0x4 ADD PUSH2 0x3EB2 JUMP JUMPDEST PUSH1 0x40 MLOAD SWAP3 DUP2 DUP5 SWAP3 MLOAD SWAP2 DUP3 SWAP2 ADD DUP4 MCOPY DUP2 ADD PUSH1 0x1 DUP2 MSTORE SUB ADD SWAP1 KECCAK256 PUSH2 0x4004 JUMP JUMPDEST PUSH1 0x40 MLOAD SWAP2 DUP3 SWAP2 PUSH1 0x20 DUP4 MSTORE PUSH1 0x20 DUP4 ADD SWAP1 PUSH2 0x3F07 JUMP JUMPDEST CALLVALUE PUSH2 0x20A JUMPI PUSH1 0x20 CALLDATASIZE PUSH1 0x3 NOT ADD SLT PUSH2 0x20A JUMPI PUSH1 0x4 CALLDATALOAD PUSH1 0x1 PUSH1 0x1 PUSH1 0x40 SHL SUB DUP2 GT PUSH2 0x20A JUMPI PUSH2 0x508 PUSH2 0x4FA PUSH2 0x3D2 SWAP3 CALLDATASIZE SWAP1 PUSH1 0x4 ADD PUSH2 0x3EB2 JUMP JUMPDEST PUSH2 0x502 PUSH2 0x485E JUMP JUMPDEST POP PUSH2 0x48CB JUMP JUMPDEST PUSH1 0x40 MLOAD SWAP2 DUP3 SWAP2 DUP3 PUSH2 0x43A7 JUMP JUMPDEST CALLVALUE PUSH2 0x20A JUMPI PUSH1 0x60 CALLDATASIZE PUSH1 0x3 NOT ADD SLT PUSH2 0x20A JUMPI PUSH1 0x4 CALLDATALOAD PUSH1 0x1 PUSH1 0x1 PUSH1 0x40 SHL SUB DUP2 GT PUSH2 0x20A JUMPI PUSH2 0x544 SWAP1 CALLDATASIZE SWAP1 PUSH1 0x4 ADD PUSH2 0x3EB2 JUMP JUMPDEST PUSH1 0x24 CALLDATALOAD PUSH1 0x1 PUSH1 0x1 PUSH1 0x40 SHL SUB DUP2 GT PUSH2 0x20A JUMPI PUSH2 0x563 SWAP1 CALLDATASIZE SWAP1 PUSH1 0x4 ADD PUSH2 0x4120 JUMP JUMPDEST SWAP1 PUSH1 0x44 CALLDATALOAD PUSH1 0x1 PUSH1 0x1 PUSH1 0x40 SHL SUB DUP2 GT PUSH2 0x20A JUMPI PUSH2 0x583 SWAP1 CALLDATASIZE SWAP1 PUSH1 0x4 ADD PUSH2 0x417F JUMP JUMPDEST PUSH2 0x58C DUP3 PUSH2 0x45D6 JUMP JUMPDEST PUSH1 0x3 SLOAD SWAP2 PUSH1 0x20 DUP2 ADD SWAP1 PUSH0 JUMPDEST DUP5 DUP2 LT PUSH2 0x5A0 JUMPI STOP JUMPDEST PUSH2 0x5A9 DUP2 PUSH2 0x40F0 JUMP JUMPDEST POP PUSH1 0x40 MLOAD PUSH2 0x5CD DUP2 PUSH2 0x5BF PUSH1 0x20 DUP3 ADD DUP1 SWAP6 PUSH2 0x454C JUMP JUMPDEST SUB PUSH1 0x1F NOT DUP2 ADD DUP4 MSTORE DUP3 PUSH2 0x3E91 JUMP JUMPDEST MLOAD SWAP1 KECCAK256 PUSH1 0x40 MLOAD PUSH1 0x20 DUP2 ADD SWAP1 PUSH2 0x5FA PUSH1 0x20 DUP3 DUP8 MLOAD DUP1 DUP11 DUP8 MCOPY DUP2 ADD PUSH0 DUP4 DUP3 ADD MSTORE SUB ADD PUSH1 0x1F NOT DUP2 ADD DUP4 MSTORE DUP3 PUSH2 0x3E91 JUMP JUMPDEST MLOAD SWAP1 KECCAK256 EQ PUSH2 0x60B JUMPI JUMPDEST PUSH1 0x1 ADD PUSH2 0x597 JUMP JUMPDEST PUSH1 0x3 PUSH2 0x616 DUP3 PUSH2 0x40F0 JUMP JUMPDEST POP ADD DUP1 SLOAD PUSH2 0xFF00 NOT AND PUSH2 0x300 OR SWAP1 SSTORE PUSH2 0x640 PUSH1 0x20 PUSH2 0x633 DUP4 PUSH2 0x40F0 JUMP JUMPDEST POP PUSH1 0x40 MLOAD SWAP3 DUP4 DUP1 SWAP3 PUSH2 0x454C JUMP JUMPDEST PUSH1 0x5 DUP2 MSTORE SUB ADD SWAP1 KECCAK256 DUP7 MLOAD DUP1 MLOAD SWAP1 PUSH1 0x1 PUSH1 0x1 PUSH1 0x40 SHL SUB DUP3 GT PUSH2 0x35E JUMPI PUSH2 0x665 DUP4 SLOAD PUSH2 0x3FCC JUMP JUMPDEST PUSH1 0x1F DUP2 GT PUSH2 0x10E8 JUMPI JUMPDEST POP PUSH1 0x20 SWAP1 PUSH1 0x1F DUP4 GT PUSH1 0x1 EQ PUSH2 0x1082 JUMPI PUSH1 0x1 SWAP4 SWAP3 SWAP2 PUSH0 SWAP2 DUP4 PUSH2 0x1077 JUMPI JUMPDEST POP POP PUSH0 NOT PUSH1 0x3 DUP4 SWAP1 SHL SHR NOT AND SWAP1 DUP4 SHL OR DUP2 SSTORE JUMPDEST ADD PUSH1 0x20 DUP8 ADD MLOAD DUP1 MLOAD SWAP1 PUSH1 0x1 PUSH1 0x1 PUSH1 0x40 SHL SUB DUP3 GT PUSH2 0x35E JUMPI DUP2 SWAP1 PUSH2 0x6C0 DUP5 SLOAD PUSH2 0x3FCC JUMP JUMPDEST PUSH1 0x1F DUP2 GT PUSH2 0x1027 JUMPI JUMPDEST POP PUSH1 0x20 SWAP1 PUSH1 0x1F DUP4 GT PUSH1 0x1 EQ PUSH2 0xFC4 JUMPI PUSH0 SWAP3 PUSH2 0xFB9 JUMPI JUMPDEST POP POP DUP2 PUSH1 0x1 SHL SWAP2 PUSH0 NOT SWAP1 PUSH1 0x3 SHL SHR NOT AND OR SWAP1 SSTORE JUMPDEST PUSH2 0x701 PUSH1 0x20 PUSH2 0x633 DUP4 PUSH2 0x40F0 JUMP JUMPDEST PUSH1 0x6 DUP2 MSTORE SUB ADD SWAP1 KECCAK256 DUP5 MLOAD DUP1 MLOAD SWAP1 PUSH1 0x1 PUSH1 0x1 PUSH1 0x40 SHL SUB DUP3 GT PUSH2 0x35E JUMPI DUP2 SWAP1 PUSH2 0x728 DUP5 SLOAD PUSH2 0x3FCC JUMP JUMPDEST PUSH1 0x1F DUP2 GT PUSH2 0xF69 JUMPI JUMPDEST POP PUSH1 0x20 SWAP1 PUSH1 0x1F DUP4 GT PUSH1 0x1 EQ PUSH2 0xF06 JUMPI PUSH0 SWAP3 PUSH2 0xEFB JUMPI JUMPDEST POP POP DUP2 PUSH1 0x1 SHL SWAP2 PUSH0 NOT SWAP1 PUSH1 0x3 SHL SHR NOT AND OR DUP2 SSTORE JUMPDEST PUSH1 0x1 DUP2 ADD PUSH1 0x20 DUP7 ADD MLOAD DUP1 MLOAD SWAP1 PUSH1 0x1 PUSH1 0x1 PUSH1 0x40 SHL SUB DUP3 GT PUSH2 0x35E JUMPI DUP2 SWAP1 PUSH2 0x781 DUP5 SLOAD PUSH2 0x3FCC JUMP JUMPDEST PUSH1 0x1F DUP2 GT PUSH2 0xEAB JUMPI JUMPDEST POP PUSH1 0x20 SWAP1 PUSH1 0x1F DUP4 GT PUSH1 0x1 EQ PUSH2 0xE48 JUMPI PUSH0 SWAP3 PUSH2 0xE3D JUMPI JUMPDEST POP POP DUP2 PUSH1 0x1 SHL SWAP2 PUSH0 NOT SWAP1 PUSH1 0x3 SHL SHR NOT AND OR SWAP1 SSTORE JUMPDEST PUSH1 0x2 DUP2 ADD PUSH1 0x40 DUP7 ADD MLOAD DUP1 MLOAD SWAP1 PUSH1 0x1 PUSH1 0x1 PUSH1 0x40 SHL SUB DUP3 GT PUSH2 0x35E JUMPI DUP2 SWAP1 PUSH2 0x7DA DUP5 SLOAD PUSH2 0x3FCC JUMP JUMPDEST PUSH1 0x1F DUP2 GT PUSH2 0xDED JUMPI JUMPDEST POP PUSH1 0x20 SWAP1 PUSH1 0x1F DUP4 GT PUSH1 0x1 EQ PUSH2 0xD8A JUMPI PUSH0 SWAP3 PUSH2 0xD7F JUMPI JUMPDEST POP POP DUP2 PUSH1 0x1 SHL SWAP2 PUSH0 NOT SWAP1 PUSH1 0x3 SHL SHR NOT AND OR SWAP1 SSTORE JUMPDEST PUSH1 0x3 DUP2 ADD PUSH1 0x60 DUP7 ADD MLOAD DUP1 MLOAD SWAP1 PUSH1 0x1 PUSH1 0x1 PUSH1 0x40 SHL SUB DUP3 GT PUSH2 0x35E JUMPI DUP2 SWAP1 PUSH2 0x833 DUP5 SLOAD PUSH2 0x3FCC JUMP JUMPDEST PUSH1 0x1F DUP2 GT PUSH2 0xD2F JUMPI JUMPDEST POP PUSH1 0x20 SWAP1 PUSH1 0x1F DUP4 GT PUSH1 0x1 EQ PUSH2 0xCCC JUMPI PUSH0 SWAP3 PUSH2 0xCC1 JUMPI JUMPDEST POP POP DUP2 PUSH1 0x1 SHL SWAP2 PUSH0 NOT SWAP1 PUSH1 0x3 SHL SHR NOT AND OR SWAP1 SSTORE JUMPDEST PUSH1 0x4 DUP2 ADD PUSH1 0x80 DUP7 ADD MLOAD DUP1 MLOAD SWAP1 PUSH1 0x1 PUSH1 0x1 PUSH1 0x40 SHL SUB DUP3 GT PUSH2 0x35E JUMPI DUP2 SWAP1 PUSH2 0x88C DUP5 SLOAD PUSH2 0x3FCC JUMP JUMPDEST PUSH1 0x1F DUP2 GT PUSH2 0xC71 JUMPI JUMPDEST POP PUSH1 0x20 SWAP1 PUSH1 0x1F DUP4 GT PUSH1 0x1 EQ PUSH2 0xC0E JUMPI PUSH0 SWAP3 PUSH2 0xC03 JUMPI JUMPDEST POP POP DUP2 PUSH1 0x1 SHL SWAP2 PUSH0 NOT SWAP1 PUSH1 0x3 SHL SHR NOT AND OR SWAP1 SSTORE JUMPDEST PUSH1 0x5 DUP2 ADD PUSH1 0xA0 DUP7 ADD MLOAD DUP1 MLOAD SWAP1 PUSH1 0x1 PUSH1 0x1 PUSH1 0x40 SHL SUB DUP3 GT PUSH2 0x35E JUMPI DUP2 SWAP1 PUSH2 0x8E5 DUP5 SLOAD PUSH2 0x3FCC JUMP JUMPDEST PUSH1 0x1F DUP2 GT PUSH2 0xBB3 JUMPI JUMPDEST POP PUSH1 0x20 SWAP1 PUSH1 0x1F DUP4 GT PUSH1 0x1 EQ PUSH2 0xB50 JUMPI PUSH0 SWAP3 PUSH2 0xB45 JUMPI JUMPDEST POP POP DUP2 PUSH1 0x1 SHL SWAP2 PUSH0 NOT SWAP1 PUSH1 0x3 SHL SHR NOT AND OR SWAP1 SSTORE JUMPDEST PUSH1 0x6 DUP2 ADD PUSH1 0xC0 DUP7 ADD MLOAD DUP1 MLOAD SWAP1 PUSH1 0x1 PUSH1 0x1 PUSH1 0x40 SHL SUB DUP3 GT PUSH2 0x35E JUMPI PUSH2 0x93C DUP4 SLOAD PUSH2 0x3FCC JUMP JUMPDEST PUSH1 0x1F DUP2 GT PUSH2 0xB00 JUMPI JUMPDEST POP PUSH1 0x20 SWAP1 PUSH1 0x1F DUP4 GT PUSH1 0x1 EQ PUSH2 0xA99 JUMPI PUSH1 0x7 SWAP5 SWAP4 SWAP3 SWAP2 PUSH0 SWAP2 DUP4 PUSH2 0xA8E JUMPI JUMPDEST POP POP DUP2 PUSH1 0x1 SHL SWAP2 PUSH0 NOT SWAP1 PUSH1 0x3 SHL SHR NOT AND OR SWAP1 SSTORE JUMPDEST ADD PUSH1 0xE0 DUP6 ADD MLOAD DUP1 MLOAD SWAP1 PUSH1 0x1 PUSH1 0x1 PUSH1 0x40 SHL SUB DUP3 GT PUSH2 0x35E JUMPI PUSH2 0x997 DUP4 SLOAD PUSH2 0x3FCC JUMP JUMPDEST PUSH1 0x1F DUP2 GT PUSH2 0xA49 JUMPI JUMPDEST POP PUSH1 0x20 SWAP1 PUSH1 0x1F DUP4 GT PUSH1 0x1 EQ PUSH2 0x9E2 JUMPI PUSH1 0x1 SWAP5 SWAP4 SWAP3 SWAP2 PUSH0 SWAP2 DUP4 PUSH2 0x9D7 JUMPI JUMPDEST POP POP PUSH0 NOT PUSH1 0x3 DUP4 SWAP1 SHL SHR NOT AND SWAP1 DUP5 SHL OR SWAP1 SSTORE JUMPDEST SWAP1 POP PUSH2 0x603 JUMP JUMPDEST ADD MLOAD SWAP1 POP DUP11 DUP1 PUSH2 0x9BD JUMP JUMPDEST SWAP1 PUSH1 0x1F NOT DUP4 AND SWAP2 DUP5 PUSH0 MSTORE DUP2 PUSH0 KECCAK256 SWAP3 PUSH0 JUMPDEST DUP2 DUP2 LT PUSH2 0xA31 JUMPI POP SWAP2 PUSH1 0x1 SWAP7 SWAP6 SWAP5 SWAP3 SWAP2 DUP4 DUP9 SWAP6 SWAP4 LT PUSH2 0xA19 JUMPI JUMPDEST POP POP POP DUP2 SHL ADD SWAP1 SSTORE PUSH2 0x9D0 JUMP JUMPDEST ADD MLOAD PUSH0 NOT PUSH1 0xF8 DUP5 PUSH1 0x3 SHL AND SHR NOT AND SWAP1 SSTORE DUP11 DUP1 DUP1 PUSH2 0xA0C JUMP JUMPDEST SWAP3 SWAP4 PUSH1 0x20 PUSH1 0x1 DUP2 SWAP3 DUP8 DUP7 ADD MLOAD DUP2 SSTORE ADD SWAP6 ADD SWAP4 ADD PUSH2 0x9F2 JUMP JUMPDEST DUP4 PUSH0 MSTORE PUSH1 0x20 PUSH0 KECCAK256 PUSH1 0x1F DUP5 ADD PUSH1 0x5 SHR DUP2 ADD SWAP2 PUSH1 0x20 DUP6 LT PUSH2 0xA84 JUMPI JUMPDEST PUSH1 0x1F ADD PUSH1 0x5 SHR ADD SWAP1 JUMPDEST DUP2 DUP2 LT PUSH2 0xA79 JUMPI POP PUSH2 0x9A0 JUMP JUMPDEST PUSH0 DUP2 SSTORE PUSH1 0x1 ADD PUSH2 0xA6C JUMP JUMPDEST SWAP1 SWAP2 POP DUP2 SWAP1 PUSH2 0xA63 JUMP JUMPDEST ADD MLOAD SWAP1 POP DUP12 DUP1 PUSH2 0x962 JUMP JUMPDEST SWAP1 PUSH1 0x1F NOT DUP4 AND SWAP2 DUP5 PUSH0 MSTORE DUP2 PUSH0 KECCAK256 SWAP3 PUSH0 JUMPDEST DUP2 DUP2 LT PUSH2 0xAE8 JUMPI POP SWAP2 PUSH1 0x1 SWAP4 SWAP2 DUP6 PUSH1 0x7 SWAP9 SWAP8 SWAP7 SWAP5 LT PUSH2 0xAD0 JUMPI JUMPDEST POP POP POP DUP2 SHL ADD SWAP1 SSTORE PUSH2 0x976 JUMP JUMPDEST ADD MLOAD PUSH0 NOT PUSH1 0xF8 DUP5 PUSH1 0x3 SHL AND SHR NOT AND SWAP1 SSTORE DUP12 DUP1 DUP1 PUSH2 0xAC3 JUMP JUMPDEST SWAP3 SWAP4 PUSH1 0x20 PUSH1 0x1 DUP2 SWAP3 DUP8 DUP7 ADD MLOAD DUP2 SSTORE ADD SWAP6 ADD SWAP4 ADD PUSH2 0xAA9 JUMP JUMPDEST DUP4 PUSH0 MSTORE PUSH1 0x20 PUSH0 KECCAK256 PUSH1 0x1F DUP5 ADD PUSH1 0x5 SHR DUP2 ADD SWAP2 PUSH1 0x20 DUP6 LT PUSH2 0xB3B JUMPI JUMPDEST PUSH1 0x1F ADD PUSH1 0x5 SHR ADD SWAP1 JUMPDEST DUP2 DUP2 LT PUSH2 0xB30 JUMPI POP PUSH2 0x945 JUMP JUMPDEST PUSH0 DUP2 SSTORE PUSH1 0x1 ADD PUSH2 0xB23 JUMP JUMPDEST SWAP1 SWAP2 POP DUP2 SWAP1 PUSH2 0xB1A JUMP JUMPDEST ADD MLOAD SWAP1 POP DUP11 DUP1 PUSH2 0x904 JUMP JUMPDEST PUSH0 DUP6 DUP2 MSTORE DUP3 DUP2 KECCAK256 SWAP4 POP PUSH1 0x1F NOT DUP6 AND SWAP1 JUMPDEST DUP2 DUP2 LT PUSH2 0xB9B JUMPI POP SWAP1 DUP5 PUSH1 0x1 SWAP6 SWAP5 SWAP4 SWAP3 LT PUSH2 0xB83 JUMPI JUMPDEST POP POP POP DUP2 SHL ADD SWAP1 SSTORE PUSH2 0x918 JUMP JUMPDEST ADD MLOAD PUSH0 NOT PUSH1 0xF8 DUP5 PUSH1 0x3 SHL AND SHR NOT AND SWAP1 SSTORE DUP11 DUP1 DUP1 PUSH2 0xB76 JUMP JUMPDEST SWAP3 SWAP4 PUSH1 0x20 PUSH1 0x1 DUP2 SWAP3 DUP8 DUP7 ADD MLOAD DUP2 SSTORE ADD SWAP6 ADD SWAP4 ADD PUSH2 0xB60 JUMP JUMPDEST SWAP1 SWAP2 POP DUP4 PUSH0 MSTORE PUSH1 0x20 PUSH0 KECCAK256 PUSH1 0x1F DUP5 ADD PUSH1 0x5 SHR DUP2 ADD SWAP2 PUSH1 0x20 DUP6 LT PUSH2 0xBF9 JUMPI JUMPDEST SWAP1 PUSH1 0x1F DUP6 SWAP5 SWAP4 SWAP3 ADD PUSH1 0x5 SHR ADD SWAP1 JUMPDEST DUP2 DUP2 LT PUSH2 0xBEB JUMPI POP PUSH2 0x8EE JUMP JUMPDEST PUSH0 DUP2 SSTORE DUP5 SWAP4 POP PUSH1 0x1 ADD PUSH2 0xBDE JUMP JUMPDEST SWAP1 SWAP2 POP DUP2 SWAP1 PUSH2 0xBD0 JUMP JUMPDEST ADD MLOAD SWAP1 POP DUP11 DUP1 PUSH2 0x8AB JUMP JUMPDEST PUSH0 DUP6 DUP2 MSTORE DUP3 DUP2 KECCAK256 SWAP4 POP PUSH1 0x1F NOT DUP6 AND SWAP1 JUMPDEST DUP2 DUP2 LT PUSH2 0xC59 JUMPI POP SWAP1 DUP5 PUSH1 0x1 SWAP6 SWAP5 SWAP4 SWAP3 LT PUSH2 0xC41 JUMPI JUMPDEST POP POP POP DUP2 SHL ADD SWAP1 SSTORE PUSH2 0x8BF JUMP JUMPDEST ADD MLOAD PUSH0 NOT PUSH1 0xF8 DUP5 PUSH1 0x3 SHL AND SHR NOT AND SWAP1 SSTORE DUP11 DUP1 DUP1 PUSH2 0xC34 JUMP JUMPDEST SWAP3 SWAP4 PUSH1 0x20 PUSH1 0x1 DUP2 SWAP3 DUP8 DUP7 ADD MLOAD DUP2 SSTORE ADD SWAP6 ADD SWAP4 ADD PUSH2 0xC1E JUMP JUMPDEST SWAP1 SWAP2 POP DUP4 PUSH0 MSTORE PUSH1 0x20 PUSH0 KECCAK256 PUSH1 0x1F DUP5 ADD PUSH1 0x5 SHR DUP2 ADD SWAP2 PUSH1 0x20 DUP6 LT PUSH2 0xCB7 JUMPI JUMPDEST SWAP1 PUSH1 0x1F DUP6 SWAP5 SWAP4 SWAP3 ADD PUSH1 0x5 SHR ADD SWAP1 JUMPDEST DUP2 DUP2 LT PUSH2 0xCA9 JUMPI POP PUSH2 0x895 JUMP JUMPDEST PUSH0 DUP2 SSTORE DUP5 SWAP4 POP PUSH1 0x1 ADD PUSH2 0xC9C JUMP JUMPDEST SWAP1 SWAP2 POP DUP2 SWAP1 PUSH2 0xC8E JUMP JUMPDEST ADD MLOAD SWAP1 POP DUP11 DUP1 PUSH2 0x852 JUMP JUMPDEST PUSH0 DUP6 DUP2 MSTORE DUP3 DUP2 KECCAK256 SWAP4 POP PUSH1 0x1F NOT DUP6 AND SWAP1 JUMPDEST DUP2 DUP2 LT PUSH2 0xD17 JUMPI POP SWAP1 DUP5 PUSH1 0x1 SWAP6 SWAP5 SWAP4 SWAP3 LT PUSH2 0xCFF JUMPI JUMPDEST POP POP POP DUP2 SHL ADD SWAP1 SSTORE PUSH2 0x866 JUMP JUMPDEST ADD MLOAD PUSH0 NOT PUSH1 0xF8 DUP5 PUSH1 0x3 SHL AND SHR NOT AND SWAP1 SSTORE DUP11 DUP1 DUP1 PUSH2 0xCF2 JUMP JUMPDEST SWAP3 SWAP4 PUSH1 0x20 PUSH1 0x1 DUP2 SWAP3 DUP8 DUP7 ADD MLOAD DUP2 SSTORE ADD SWAP6 ADD SWAP4 ADD PUSH2 0xCDC JUMP JUMPDEST SWAP1 SWAP2 POP DUP4 PUSH0 MSTORE PUSH1 0x20 PUSH0 KECCAK256 PUSH1 0x1F DUP5 ADD PUSH1 0x5 SHR DUP2 ADD SWAP2 PUSH1 0x20 DUP6 LT PUSH2 0xD75 JUMPI JUMPDEST SWAP1 PUSH1 0x1F DUP6 SWAP5 SWAP4 SWAP3 ADD PUSH1 0x5 SHR ADD SWAP1 JUMPDEST DUP2 DUP2 LT PUSH2 0xD67 JUMPI POP PUSH2 0x83C JUMP JUMPDEST PUSH0 DUP2 SSTORE DUP5 SWAP4 POP PUSH1 0x1 ADD PUSH2 0xD5A JUMP JUMPDEST SWAP1 SWAP2 POP DUP2 SWAP1 PUSH2 0xD4C JUMP JUMPDEST ADD MLOAD SWAP1 POP DUP11 DUP1 PUSH2 0x7F9 JUMP JUMPDEST PUSH0 DUP6 DUP2 MSTORE DUP3 DUP2 KECCAK256 SWAP4 POP PUSH1 0x1F NOT DUP6 AND SWAP1 JUMPDEST DUP2 DUP2 LT PUSH2 0xDD5 JUMPI POP SWAP1 DUP5 PUSH1 0x1 SWAP6 SWAP5 SWAP4 SWAP3 LT PUSH2 0xDBD JUMPI JUMPDEST POP POP POP DUP2 SHL ADD SWAP1 SSTORE PUSH2 0x80D JUMP JUMPDEST ADD MLOAD PUSH0 NOT PUSH1 0xF8 DUP5 PUSH1 0x3 SHL AND SHR NOT AND SWAP1 SSTORE DUP11 DUP1 DUP1 PUSH2 0xDB0 JUMP JUMPDEST SWAP3 SWAP4 PUSH1 0x20 PUSH1 0x1 DUP2 SWAP3 DUP8 DUP7 ADD MLOAD DUP2 SSTORE ADD SWAP6 ADD SWAP4 ADD PUSH2 0xD9A JUMP JUMPDEST SWAP1 SWAP2 POP DUP4 PUSH0 MSTORE PUSH1 0x20 PUSH0 KECCAK256 PUSH1 0x1F DUP5 ADD PUSH1 0x5 SHR DUP2 ADD SWAP2 PUSH1 0x20 DUP6 LT PUSH2 0xE33 JUMPI JUMPDEST SWAP1 PUSH1 0x1F DUP6 SWAP5 SWAP4 SWAP3 ADD PUSH1 0x5 SHR ADD SWAP1 JUMPDEST DUP2 DUP2 LT PUSH2 0xE25 JUMPI POP PUSH2 0x7E3 JUMP JUMPDEST PUSH0 DUP2 SSTORE DUP5 SWAP4 POP PUSH1 0x1 ADD PUSH2 0xE18 JUMP JUMPDEST SWAP1 SWAP2 POP DUP2 SWAP1 PUSH2 0xE0A JUMP JUMPDEST ADD MLOAD SWAP1 POP DUP11 DUP1 PUSH2 0x7A0 JUMP JUMPDEST PUSH0 DUP6 DUP2 MSTORE DUP3 DUP2 KECCAK256 SWAP4 POP PUSH1 0x1F NOT DUP6 AND SWAP1 JUMPDEST DUP2 DUP2 LT PUSH2 0xE93 JUMPI POP SWAP1 DUP5 PUSH1 0x1 SWAP6 SWAP5 SWAP4 SWAP3 LT PUSH2 0xE7B JUMPI JUMPDEST POP POP POP DUP2 SHL ADD SWAP1 SSTORE PUSH2 0x7B4 JUMP JUMPDEST ADD MLOAD PUSH0 NOT PUSH1 0xF8 DUP5 PUSH1 0x3 SHL AND SHR NOT AND SWAP1 SSTORE DUP11 DUP1 DUP1 PUSH2 0xE6E JUMP JUMPDEST SWAP3 SWAP4 PUSH1 0x20 PUSH1 0x1 DUP2 SWAP3 DUP8 DUP7 ADD MLOAD DUP2 SSTORE ADD SWAP6 ADD SWAP4 ADD PUSH2 0xE58 JUMP JUMPDEST SWAP1 SWAP2 POP DUP4 PUSH0 MSTORE PUSH1 0x20 PUSH0 KECCAK256 PUSH1 0x1F DUP5 ADD PUSH1 0x5 SHR DUP2 ADD SWAP2 PUSH1 0x20 DUP6 LT PUSH2 0xEF1 JUMPI JUMPDEST SWAP1 PUSH1 0x1F DUP6 SWAP5 SWAP4 SWAP3 ADD PUSH1 0x5 SHR ADD SWAP1 JUMPDEST DUP2 DUP2 LT PUSH2 0xEE3 JUMPI POP PUSH2 0x78A JUMP JUMPDEST PUSH0 DUP2 SSTORE DUP5 SWAP4 POP PUSH1 0x1 ADD PUSH2 0xED6 JUMP JUMPDEST SWAP1 SWAP2 POP DUP2 SWAP1 PUSH2 0xEC8 JUMP JUMPDEST ADD MLOAD SWAP1 POP DUP10 DUP1 PUSH2 0x747 JUMP JUMPDEST PUSH0 DUP6 DUP2 MSTORE DUP3 DUP2 KECCAK256 SWAP4 POP PUSH1 0x1F NOT DUP6 AND SWAP1 JUMPDEST DUP2 DUP2 LT PUSH2 0xF51 JUMPI POP SWAP1 DUP5 PUSH1 0x1 SWAP6 SWAP5 SWAP4 SWAP3 LT PUSH2 0xF39 JUMPI JUMPDEST POP POP POP DUP2 SHL ADD DUP2 SSTORE PUSH2 0x75B JUMP JUMPDEST ADD MLOAD PUSH0 NOT PUSH1 0xF8 DUP5 PUSH1 0x3 SHL AND SHR NOT AND SWAP1 SSTORE DUP10 DUP1 DUP1 PUSH2 0xF2C JUMP JUMPDEST SWAP3 SWAP4 PUSH1 0x20 PUSH1 0x1 DUP2 SWAP3 DUP8 DUP7 ADD MLOAD DUP2 SSTORE ADD SWAP6 ADD SWAP4 ADD PUSH2 0xF16 JUMP JUMPDEST SWAP1 SWAP2 POP DUP4 PUSH0 MSTORE PUSH1 0x20 PUSH0 KECCAK256 PUSH1 0x1F DUP5 ADD PUSH1 0x5 SHR DUP2 ADD SWAP2 PUSH1 0x20 DUP6 LT PUSH2 0xFAF JUMPI JUMPDEST SWAP1 PUSH1 0x1F DUP6 SWAP5 SWAP4 SWAP3 ADD PUSH1 0x5 SHR ADD SWAP1 JUMPDEST DUP2 DUP2 LT PUSH2 0xFA1 JUMPI POP PUSH2 0x731 JUMP JUMPDEST PUSH0 DUP2 SSTORE DUP5 SWAP4 POP PUSH1 0x1 ADD PUSH2 0xF94 JUMP JUMPDEST SWAP1 SWAP2 POP DUP2 SWAP1 PUSH2 0xF86 JUMP JUMPDEST ADD MLOAD SWAP1 POP DUP10 DUP1 PUSH2 0x6DF JUMP JUMPDEST PUSH0 DUP6 DUP2 MSTORE DUP3 DUP2 KECCAK256 SWAP4 POP PUSH1 0x1F NOT DUP6 AND SWAP1 JUMPDEST DUP2 DUP2 LT PUSH2 0x100F JUMPI POP SWAP1 DUP5 PUSH1 0x1 SWAP6 SWAP5 SWAP4 SWAP3 LT PUSH2 0xFF7 JUMPI JUMPDEST POP POP POP DUP2 SHL ADD SWAP1 SSTORE PUSH2 0x6F3 JUMP JUMPDEST ADD MLOAD PUSH0 NOT PUSH1 0xF8 DUP5 PUSH1 0x3 SHL AND SHR NOT AND SWAP1 SSTORE DUP10 DUP1 DUP1 PUSH2 0xFEA JUMP JUMPDEST SWAP3 SWAP4 PUSH1 0x20 PUSH1 0x1 DUP2 SWAP3 DUP8 DUP7 ADD MLOAD DUP2 SSTORE ADD SWAP6 ADD SWAP4 ADD PUSH2 0xFD4 JUMP JUMPDEST SWAP1 SWAP2 POP DUP4 PUSH0 MSTORE PUSH1 0x20 PUSH0 KECCAK256 PUSH1 0x1F DUP5 ADD PUSH1 0x5 SHR DUP2 ADD SWAP2 PUSH1 0x20 DUP6 LT PUSH2 0x106D JUMPI JUMPDEST SWAP1 PUSH1 0x1F DUP6 SWAP5 SWAP4 SWAP3 ADD PUSH1 0x5 SHR ADD SWAP1 JUMPDEST DUP2 DUP2 LT PUSH2 0x105F JUMPI POP PUSH2 0x6C9 JUMP JUMPDEST PUSH0 DUP2 SSTORE DUP5 SWAP4 POP PUSH1 0x1 ADD PUSH2 0x1052 JUMP JUMPDEST SWAP1 SWAP2 POP DUP2 SWAP1 PUSH2 0x1044 JUMP JUMPDEST ADD MLOAD SWAP1 POP DUP11 DUP1 PUSH2 0x68A JUMP JUMPDEST SWAP1 PUSH1 0x1F NOT DUP4 AND SWAP2 DUP5 PUSH0 MSTORE DUP2 PUSH0 KECCAK256 SWAP3 PUSH0 JUMPDEST DUP2 DUP2 LT PUSH2 0x10D0 JUMPI POP SWAP2 PUSH1 0x1 SWAP6 SWAP5 SWAP3 SWAP2 DUP4 DUP8 SWAP6 SWAP4 LT PUSH2 0x10B8 JUMPI JUMPDEST POP POP POP DUP2 SHL ADD DUP2 SSTORE PUSH2 0x69D JUMP JUMPDEST ADD MLOAD PUSH0 NOT PUSH1 0xF8 DUP5 PUSH1 0x3 SHL AND SHR NOT AND SWAP1 SSTORE DUP11 DUP1 DUP1 PUSH2 0x10AB JUMP JUMPDEST SWAP3 SWAP4 PUSH1 0x20 PUSH1 0x1 DUP2 SWAP3 DUP8 DUP7 ADD MLOAD DUP2 SSTORE ADD SWAP6 ADD SWAP4 ADD PUSH2 0x1092 JUMP JUMPDEST DUP4 PUSH0 MSTORE PUSH1 0x20 PUSH0 KECCAK256 PUSH1 0x1F DUP5 ADD PUSH1 0x5 SHR DUP2 ADD SWAP2 PUSH1 0x20 DUP6 LT PUSH2 0x1123 JUMPI JUMPDEST PUSH1 0x1F ADD PUSH1 0x5 SHR ADD SWAP1 JUMPDEST DUP2 DUP2 LT PUSH2 0x1118 JUMPI POP PUSH2 0x66E JUMP JUMPDEST PUSH0 DUP2 SSTORE PUSH1 0x1 ADD PUSH2 0x110B JUMP JUMPDEST SWAP1 SWAP2 POP DUP2 SWAP1 PUSH2 0x1102 JUMP JUMPDEST CALLVALUE PUSH2 0x20A JUMPI PUSH2 0x1146 PUSH2 0x113E CALLDATASIZE PUSH2 0x3F7F JUMP JUMPDEST DUP2 SWAP3 SWAP2 PUSH2 0x4AE9 JUMP JUMPDEST PUSH1 0x3 SLOAD SWAP1 PUSH1 0x20 DUP2 ADD SWAP1 PUSH0 JUMPDEST DUP4 DUP2 LT PUSH2 0x115A JUMPI STOP JUMPDEST PUSH2 0x1163 DUP2 PUSH2 0x40F0 JUMP JUMPDEST POP PUSH1 0x40 MLOAD PUSH2 0x1179 DUP2 PUSH2 0x5BF PUSH1 0x20 DUP3 ADD DUP1 SWAP6 PUSH2 0x454C JUMP JUMPDEST MLOAD SWAP1 KECCAK256 PUSH1 0x40 MLOAD PUSH1 0x20 DUP2 ADD SWAP1 PUSH2 0x11A6 PUSH1 0x20 DUP3 DUP8 MLOAD DUP1 DUP11 DUP8 MCOPY DUP2 ADD PUSH0 DUP4 DUP3 ADD MSTORE SUB ADD PUSH1 0x1F NOT DUP2 ADD DUP4 MSTORE DUP3 PUSH2 0x3E91 JUMP JUMPDEST MLOAD SWAP1 KECCAK256 EQ PUSH2 0x11B7 JUMPI JUMPDEST PUSH1 0x1 ADD PUSH2 0x1151 JUMP JUMPDEST PUSH1 0x3 PUSH2 0x11C2 DUP3 PUSH2 0x40F0 JUMP JUMPDEST POP ADD PUSH2 0x600 PUSH2 0xFF00 NOT DUP3 SLOAD AND OR SWAP1 SSTORE PUSH1 0x82 TIMESTAMP ADD SWAP1 DUP2 TIMESTAMP GT PUSH2 0x372 JUMPI PUSH1 0x1 SWAP2 PUSH1 0x5 PUSH2 0x11EB DUP4 PUSH2 0x40F0 JUMP JUMPDEST POP ADD SSTORE SWAP1 POP PUSH2 0x11AF JUMP JUMPDEST CALLVALUE PUSH2 0x20A JUMPI PUSH1 0x20 CALLDATASIZE PUSH1 0x3 NOT ADD SLT PUSH2 0x20A JUMPI PUSH1 0x4 CALLDATALOAD PUSH1 0x1 PUSH1 0x1 PUSH1 0x40 SHL SUB DUP2 GT PUSH2 0x20A JUMPI PUSH2 0x508 PUSH2 0x122B PUSH2 0x3D2 SWAP3 CALLDATASIZE SWAP1 PUSH1 0x4 ADD PUSH2 0x3EB2 JUMP JUMPDEST PUSH2 0x48CB JUMP JUMPDEST CALLVALUE PUSH2 0x20A JUMPI PUSH1 0x40 CALLDATASIZE PUSH1 0x3 NOT ADD SLT PUSH2 0x20A JUMPI PUSH1 0x4 CALLDATALOAD PUSH1 0x1 PUSH1 0x1 PUSH1 0x40 SHL SUB DUP2 GT PUSH2 0x20A JUMPI PUSH2 0x1263 PUSH2 0x208 SWAP2 CALLDATASIZE SWAP1 PUSH1 0x4 ADD PUSH2 0x3EB2 JUMP JUMPDEST PUSH1 0x24 CALLDATALOAD SWAP1 PUSH2 0x47E3 JUMP JUMPDEST CALLVALUE PUSH2 0x20A JUMPI PUSH1 0x20 CALLDATASIZE PUSH1 0x3 NOT ADD SLT PUSH2 0x20A JUMPI PUSH1 0x4 CALLDATALOAD PUSH1 0x1 PUSH1 0x1 PUSH1 0x40 SHL SUB DUP2 GT PUSH2 0x20A JUMPI PUSH2 0x129C SWAP1 CALLDATASIZE SWAP1 PUSH1 0x4 ADD PUSH2 0x3EB2 JUMP JUMPDEST PUSH2 0x12A4 PUSH2 0x45B6 JUMP JUMPDEST POP PUSH1 0x40 MLOAD PUSH2 0x12B1 DUP2 PUSH2 0x3E3E JUMP JUMPDEST PUSH1 0x60 DUP2 MSTORE PUSH1 0x20 ADD PUSH1 0x60 SWAP1 MSTORE PUSH1 0x40 MLOAD PUSH2 0x12C8 DUP2 PUSH2 0x3E59 JUMP JUMPDEST PUSH1 0x60 DUP2 MSTORE PUSH1 0x20 DUP2 ADD PUSH1 0x60 SWAP1 MSTORE PUSH1 0x40 DUP2 ADD PUSH1 0x60 SWAP1 MSTORE PUSH1 0x60 DUP2 ADD PUSH1 0x60 SWAP1 MSTORE PUSH1 0x80 DUP2 ADD PUSH1 0x60 SWAP1 MSTORE PUSH1 0xA0 DUP2 ADD PUSH1 0x60 SWAP1 MSTORE PUSH1 0xC0 DUP2 ADD PUSH1 0x60 SWAP1 MSTORE PUSH1 0xE0 ADD PUSH1 0x60 SWAP1 MSTORE PUSH1 0x40 MLOAD PUSH2 0x130F DUP2 PUSH2 0x3E08 JUMP JUMPDEST PUSH1 0x60 DUP2 MSTORE PUSH1 0x20 DUP2 ADD PUSH1 0x60 SWAP1 MSTORE PUSH1 0x40 ADD PUSH1 0x60 SWAP1 MSTORE PUSH1 0x40 MLOAD SWAP1 DUP1 MLOAD SWAP2 DUP1 PUSH1 0x20 DUP4 ADD SWAP4 DUP1 DUP6 DUP4 MCOPY DUP2 ADD PUSH1 0x4 DUP2 MSTORE SUB PUSH1 0x20 ADD SWAP1 KECCAK256 SWAP1 PUSH1 0x40 MLOAD DUP1 DUP3 MLOAD DUP1 DUP7 DUP4 MCOPY DUP2 ADD PUSH1 0x5 DUP2 MSTORE SUB PUSH1 0x20 ADD SWAP1 KECCAK256 SWAP3 PUSH1 0x40 MLOAD DUP1 DUP4 MLOAD DUP1 DUP5 DUP4 MCOPY DUP2 ADD PUSH1 0x6 DUP2 MSTORE SUB PUSH1 0x20 ADD SWAP1 KECCAK256 SWAP2 PUSH1 0x40 MLOAD SWAP2 DUP3 SWAP2 MLOAD DUP1 SWAP2 DUP4 MCOPY DUP2 ADD PUSH1 0x7 DUP2 MSTORE SUB PUSH1 0x20 ADD SWAP1 KECCAK256 SWAP1 PUSH1 0x40 MLOAD SWAP3 PUSH2 0x1393 DUP5 PUSH2 0x3E08 JUMP JUMPDEST PUSH2 0x139C DUP2 PUSH2 0x4004 JUMP JUMPDEST DUP5 MSTORE PUSH2 0x13AA PUSH1 0x1 DUP3 ADD PUSH2 0x4004 JUMP JUMPDEST PUSH1 0x20 DUP6 ADD MSTORE PUSH1 0x2 ADD SLOAD PUSH1 0xFF AND SWAP2 PUSH1 0x40 DUP5 ADD SWAP3 DUP4 MSTORE PUSH1 0x40 MLOAD SWAP5 PUSH2 0x13CB DUP7 PUSH2 0x3E3E JUMP JUMPDEST PUSH2 0x13D4 DUP2 PUSH2 0x4004 JUMP JUMPDEST DUP7 MSTORE PUSH1 0x1 ADD PUSH2 0x13E2 SWAP1 PUSH2 0x4004 JUMP JUMPDEST SWAP2 PUSH1 0x20 DUP7 ADD SWAP3 DUP4 MSTORE PUSH1 0x40 MLOAD SWAP1 PUSH2 0x13F7 DUP3 PUSH2 0x3E59 JUMP JUMPDEST PUSH2 0x1400 DUP2 PUSH2 0x4004 JUMP JUMPDEST DUP3 MSTORE PUSH2 0x140E PUSH1 0x1 DUP3 ADD PUSH2 0x4004 JUMP JUMPDEST PUSH1 0x20 DUP4 ADD SWAP1 DUP2 MSTORE SWAP1 PUSH2 0x1422 PUSH1 0x2 DUP3 ADD PUSH2 0x4004 JUMP JUMPDEST PUSH1 0x40 DUP5 ADD SWAP1 DUP2 MSTORE PUSH2 0x1435 PUSH1 0x3 DUP4 ADD PUSH2 0x4004 JUMP JUMPDEST PUSH1 0x60 DUP6 ADD SWAP1 DUP2 MSTORE PUSH2 0x1448 PUSH1 0x4 DUP5 ADD PUSH2 0x4004 JUMP JUMPDEST PUSH1 0x80 DUP7 ADD SWAP1 DUP2 MSTORE SWAP1 PUSH2 0x145C PUSH1 0x5 DUP6 ADD PUSH2 0x4004 JUMP JUMPDEST PUSH1 0xA0 DUP8 ADD SWAP1 DUP2 MSTORE SWAP3 PUSH2 0x1470 PUSH1 0x6 DUP7 ADD PUSH2 0x4004 JUMP JUMPDEST SWAP5 PUSH1 0xC0 DUP9 ADD SWAP6 DUP7 MSTORE PUSH1 0x7 ADD PUSH2 0x1484 SWAP1 PUSH2 0x4004 JUMP JUMPDEST SWAP6 PUSH1 0xE0 DUP9 ADD SWAP7 DUP8 MSTORE PUSH1 0x40 MLOAD SWAP11 PUSH2 0x1499 DUP13 PUSH2 0x3E08 JUMP JUMPDEST PUSH2 0x14A2 DUP11 PUSH2 0x4004 JUMP JUMPDEST DUP13 MSTORE PUSH2 0x14B0 PUSH1 0x1 DUP12 ADD PUSH2 0x4004 JUMP JUMPDEST SWAP10 PUSH1 0x20 DUP14 ADD SWAP11 DUP12 MSTORE PUSH1 0x2 ADD PUSH2 0x14C4 SWAP1 PUSH2 0x4004 JUMP JUMPDEST SWAP11 PUSH1 0x40 DUP14 ADD SWAP12 DUP13 MSTORE PUSH1 0x40 MLOAD SWAP15 DUP16 SWAP15 DUP16 SWAP1 PUSH1 0x80 DUP3 MSTORE DUP1 MLOAD PUSH1 0x80 DUP4 ADD PUSH1 0x60 SWAP1 MSTORE PUSH1 0xE0 DUP4 ADD PUSH2 0x14EF SWAP2 PUSH2 0x3F07 JUMP JUMPDEST SWAP1 PUSH1 0x20 ADD MLOAD SWAP1 PUSH1 0x7F NOT DUP4 DUP3 SUB ADD PUSH1 0xA0 DUP5 ADD MSTORE PUSH2 0x150A SWAP2 PUSH2 0x3F07 JUMP JUMPDEST SWAP4 MLOAD PUSH1 0xFF AND PUSH1 0xC0 DUP3 ADD MSTORE DUP1 DUP5 SUB SWAP1 PUSH1 0x20 ADD MSTORE MLOAD PUSH1 0x40 DUP4 MSTORE PUSH1 0x40 DUP4 ADD PUSH2 0x152E SWAP2 PUSH2 0x3F07 JUMP JUMPDEST SWAP1 MLOAD SWAP2 DUP1 DUP3 SUB SWAP1 PUSH1 0x20 ADD MSTORE PUSH2 0x1542 SWAP2 PUSH2 0x3F07 JUMP JUMPDEST SWAP8 DUP13 DUP1 DUP11 SUB SWAP1 PUSH1 0x40 ADD MSTORE MLOAD PUSH2 0x100 DUP10 MSTORE PUSH2 0x100 DUP10 ADD PUSH2 0x1560 SWAP2 PUSH2 0x3F07 JUMP JUMPDEST SWAP1 MLOAD SWAP1 DUP9 DUP2 SUB PUSH1 0x20 DUP11 ADD MSTORE PUSH2 0x1574 SWAP2 PUSH2 0x3F07 JUMP JUMPDEST SWAP1 MLOAD SWAP1 DUP8 DUP2 SUB PUSH1 0x40 DUP10 ADD MSTORE PUSH2 0x1588 SWAP2 PUSH2 0x3F07 JUMP JUMPDEST SWAP1 MLOAD SWAP1 DUP7 DUP2 SUB PUSH1 0x60 DUP9 ADD MSTORE PUSH2 0x159C SWAP2 PUSH2 0x3F07 JUMP JUMPDEST SWAP1 MLOAD SWAP1 DUP6 DUP2 SUB PUSH1 0x80 DUP8 ADD MSTORE PUSH2 0x15B0 SWAP2 PUSH2 0x3F07 JUMP JUMPDEST SWAP1 MLOAD SWAP1 DUP5 DUP2 SUB PUSH1 0xA0 DUP7 ADD MSTORE PUSH2 0x15C4 SWAP2 PUSH2 0x3F07 JUMP JUMPDEST SWAP1 MLOAD SWAP1 DUP4 DUP2 SUB PUSH1 0xC0 DUP6 ADD MSTORE PUSH2 0x15D8 SWAP2 PUSH2 0x3F07 JUMP JUMPDEST SWAP1 MLOAD SWAP2 DUP1 DUP3 SUB SWAP1 PUSH1 0xE0 ADD MSTORE PUSH2 0x15EC SWAP2 PUSH2 0x3F07 JUMP JUMPDEST SWAP3 DUP5 DUP5 SUB PUSH1 0x60 DUP7 ADD MSTORE MLOAD PUSH1 0x60 DUP5 MSTORE PUSH1 0x60 DUP5 ADD PUSH2 0x1607 SWAP2 PUSH2 0x3F07 JUMP JUMPDEST SWAP1 MLOAD SWAP1 DUP4 DUP2 SUB PUSH1 0x20 DUP6 ADD MSTORE PUSH2 0x161B SWAP2 PUSH2 0x3F07 JUMP JUMPDEST SWAP1 MLOAD SWAP2 DUP1 DUP3 SUB SWAP1 PUSH1 0x40 ADD MSTORE PUSH2 0x3D2 SWAP2 PUSH2 0x3F07 JUMP JUMPDEST CALLVALUE PUSH2 0x20A JUMPI PUSH1 0x20 CALLDATASIZE PUSH1 0x3 NOT ADD SLT PUSH2 0x20A JUMPI PUSH1 0x4 CALLDATALOAD PUSH1 0x1 PUSH1 0x1 PUSH1 0x40 SHL SUB DUP2 GT PUSH2 0x20A JUMPI PUSH1 0x20 PUSH2 0x1662 DUP2 SWAP3 CALLDATASIZE SWAP1 PUSH1 0x4 ADD PUSH2 0x3EB2 JUMP JUMPDEST PUSH1 0x40 MLOAD SWAP3 DUP2 DUP5 SWAP3 MLOAD SWAP2 DUP3 SWAP2 ADD DUP4 MCOPY DUP2 ADD PUSH1 0x5 DUP2 MSTORE SUB ADD SWAP1 KECCAK256 PUSH2 0x168F PUSH1 0x1 PUSH2 0x1688 DUP4 PUSH2 0x4004 JUMP JUMPDEST SWAP3 ADD PUSH2 0x4004 JUMP JUMPDEST SWAP1 PUSH2 0x3D2 PUSH1 0x40 MLOAD SWAP3 DUP4 SWAP3 DUP4 PUSH2 0x42B2 JUMP JUMPDEST CALLVALUE PUSH2 0x20A JUMPI PUSH1 0x20 CALLDATASIZE PUSH1 0x3 NOT ADD SLT PUSH2 0x20A JUMPI PUSH1 0x4 CALLDATALOAD PUSH1 0x1 PUSH1 0x1 PUSH1 0x40 SHL SUB DUP2 GT PUSH2 0x20A JUMPI PUSH2 0x16D2 PUSH2 0x168F SWAP2 CALLDATASIZE SWAP1 PUSH1 0x4 ADD PUSH2 0x3EB2 JUMP JUMPDEST PUSH2 0x466E JUMP JUMPDEST CALLVALUE PUSH2 0x20A JUMPI PUSH1 0x20 CALLDATASIZE PUSH1 0x3 NOT ADD SLT PUSH2 0x20A JUMPI PUSH1 0x4 CALLDATALOAD PUSH1 0x1 PUSH1 0x1 PUSH1 0x40 SHL SUB DUP2 GT PUSH2 0x20A JUMPI PUSH1 0x20 DUP1 PUSH2 0x170D PUSH2 0x175B SWAP4 CALLDATASIZE SWAP1 PUSH1 0x4 ADD PUSH2 0x3EB2 JUMP JUMPDEST PUSH1 0x40 MLOAD SWAP3 DUP2 DUP5 SWAP3 MLOAD SWAP2 DUP3 SWAP2 ADD DUP4 MCOPY DUP2 ADD PUSH1 0x4 DUP2 MSTORE SUB ADD SWAP1 KECCAK256 PUSH2 0x172E DUP2 PUSH2 0x4004 JUMP JUMPDEST SWAP1 PUSH2 0x1769 PUSH1 0xFF PUSH1 0x2 PUSH2 0x1742 PUSH1 0x1 DUP6 ADD PUSH2 0x4004 JUMP JUMPDEST SWAP4 ADD SLOAD AND SWAP2 PUSH1 0x40 MLOAD SWAP5 DUP6 SWAP5 PUSH1 0x60 DUP7 MSTORE PUSH1 0x60 DUP7 ADD SWAP1 PUSH2 0x3F07 JUMP JUMPDEST SWAP1 DUP5 DUP3 SUB PUSH1 0x20 DUP7 ADD MSTORE PUSH2 0x3F07 JUMP JUMPDEST SWAP1 PUSH1 0x40 DUP4 ADD MSTORE SUB SWAP1 RETURN JUMPDEST CALLVALUE PUSH2 0x20A JUMPI PUSH1 0x20 CALLDATASIZE PUSH1 0x3 NOT ADD SLT PUSH2 0x20A JUMPI PUSH1 0x4 CALLDATALOAD PUSH1 0x1 PUSH1 0x1 PUSH1 0x40 SHL SUB DUP2 GT PUSH2 0x20A JUMPI PUSH2 0x17A3 SWAP1 CALLDATASIZE SWAP1 PUSH1 0x4 ADD PUSH2 0x3EB2 JUMP JUMPDEST PUSH1 0x3 SLOAD PUSH1 0x20 DUP3 ADD SWAP2 PUSH0 DUP1 JUMPDEST DUP4 DUP2 LT PUSH2 0x1873 JUMPI POP PUSH1 0xFF PUSH2 0x17C2 SWAP2 AND PUSH2 0x46DB JUMP JUMPDEST SWAP3 PUSH0 SWAP2 PUSH0 JUMPDEST DUP5 DUP2 LT PUSH2 0x17DC JUMPI PUSH1 0x40 MLOAD DUP1 PUSH2 0x3D2 DUP9 DUP3 PUSH2 0x42D7 JUMP JUMPDEST PUSH1 0x2 PUSH2 0x5BF PUSH2 0x1801 PUSH2 0x17ED DUP5 PUSH2 0x40F0 JUMP JUMPDEST POP PUSH1 0x40 MLOAD SWAP3 DUP4 SWAP2 PUSH1 0x20 DUP4 ADD SWAP6 DUP7 SWAP2 ADD PUSH2 0x454C JUMP JUMPDEST MLOAD SWAP1 KECCAK256 PUSH1 0x40 MLOAD PUSH1 0x20 DUP2 ADD SWAP1 PUSH2 0x182E PUSH1 0x20 DUP3 DUP8 MLOAD DUP1 DUP11 DUP8 MCOPY DUP2 ADD PUSH0 DUP4 DUP3 ADD MSTORE SUB ADD PUSH1 0x1F NOT DUP2 ADD DUP4 MSTORE DUP3 PUSH2 0x3E91 JUMP JUMPDEST MLOAD SWAP1 KECCAK256 EQ PUSH2 0x183F JUMPI JUMPDEST PUSH1 0x1 ADD PUSH2 0x17C7 JUMP JUMPDEST SWAP3 PUSH2 0x186B PUSH1 0x1 SWAP2 PUSH2 0x407 PUSH2 0x1855 PUSH2 0x3EB DUP9 PUSH2 0x40F0 JUMP JUMPDEST PUSH1 0xFF DUP4 AND SWAP1 PUSH2 0x1864 DUP3 DUP13 PUSH2 0x4758 JUMP JUMPDEST MSTORE DUP10 PUSH2 0x4758 JUMP JUMPDEST SWAP4 SWAP1 POP PUSH2 0x1837 JUMP JUMPDEST PUSH1 0x2 PUSH2 0x5BF PUSH2 0x1884 PUSH2 0x17ED DUP5 PUSH2 0x40F0 JUMP JUMPDEST MLOAD SWAP1 KECCAK256 PUSH1 0x40 MLOAD PUSH1 0x20 DUP2 ADD SWAP1 PUSH2 0x18B1 PUSH1 0x20 DUP3 DUP9 MLOAD DUP1 DUP13 DUP8 MCOPY DUP2 ADD PUSH0 DUP4 DUP3 ADD MSTORE SUB ADD PUSH1 0x1F NOT DUP2 ADD DUP4 MSTORE DUP3 PUSH2 0x3E91 JUMP JUMPDEST MLOAD SWAP1 KECCAK256 EQ PUSH2 0x18C2 JUMPI JUMPDEST PUSH1 0x1 ADD PUSH2 0x17AE JUMP JUMPDEST SWAP1 PUSH2 0x18CE PUSH1 0x1 SWAP2 PUSH2 0x46B3 JUMP JUMPDEST SWAP2 SWAP1 POP PUSH2 0x18BA JUMP JUMPDEST CALLVALUE PUSH2 0x20A JUMPI PUSH1 0xE0 CALLDATASIZE PUSH1 0x3 NOT ADD SLT PUSH2 0x20A JUMPI PUSH1 0x4 CALLDATALOAD PUSH1 0x1 PUSH1 0x1 PUSH1 0x40 SHL SUB DUP2 GT PUSH2 0x20A JUMPI PUSH2 0x1906 SWAP1 CALLDATASIZE SWAP1 PUSH1 0x4 ADD PUSH2 0x3EB2 JUMP JUMPDEST PUSH1 0x24 CALLDATALOAD PUSH1 0x1 PUSH1 0x1 PUSH1 0x40 SHL SUB DUP2 GT PUSH2 0x20A JUMPI PUSH2 0x1925 SWAP1 CALLDATASIZE SWAP1 PUSH1 0x4 ADD PUSH2 0x3EB2 JUMP JUMPDEST PUSH1 0x44 CALLDATALOAD PUSH1 0x1 PUSH1 0x1 PUSH1 0x40 SHL SUB DUP2 GT PUSH2 0x20A JUMPI PUSH2 0x1944 SWAP1 CALLDATASIZE SWAP1 PUSH1 0x4 ADD PUSH2 0x3EB2 JUMP JUMPDEST SWAP2 PUSH1 0x64 CALLDATALOAD PUSH1 0x1 PUSH1 0x1 PUSH1 0xA0 SHL SUB DUP2 AND DUP2 SUB PUSH2 0x20A JUMPI PUSH1 0x84 CALLDATALOAD SWAP4 PUSH1 0xFF DUP6 AND DUP1 SWAP6 SUB PUSH2 0x20A JUMPI PUSH1 0xA4 CALLDATALOAD PUSH1 0x1 PUSH1 0x1 PUSH1 0x40 SHL SUB DUP2 GT PUSH2 0x20A JUMPI PUSH2 0x1986 SWAP1 CALLDATASIZE SWAP1 PUSH1 0x4 ADD PUSH2 0x4120 JUMP JUMPDEST SWAP2 PUSH1 0xC4 CALLDATALOAD SWAP1 PUSH1 0x1 PUSH1 0x1 PUSH1 0x40 SHL SUB DUP3 GT PUSH2 0x20A JUMPI DUP3 PUSH2 0x19AB PUSH2 0x19B1 SWAP4 CALLDATASIZE SWAP1 PUSH1 0x4 ADD PUSH2 0x417F JUMP JUMPDEST SWAP7 PUSH2 0x4604 JUMP JUMPDEST SWAP5 PUSH2 0x1A01 DUP5 PUSH1 0x20 SWAP8 PUSH1 0x40 MLOAD SWAP1 PUSH2 0x19C7 DUP11 DUP4 PUSH2 0x3E91 JUMP JUMPDEST PUSH0 DUP3 MSTORE PUSH1 0x40 MLOAD PUSH2 0x19D7 DUP12 DUP3 PUSH2 0x3E91 JUMP JUMPDEST PUSH0 DUP2 MSTORE PUSH2 0x19E2 PUSH2 0x45B6 JUMP JUMPDEST POP PUSH1 0x40 MLOAD SWAP3 PUSH2 0x19F0 DUP5 PUSH2 0x3E08 JUMP JUMPDEST DUP4 MSTORE DUP11 DUP4 ADD MSTORE PUSH0 PUSH1 0x40 DUP4 ADD MSTORE PUSH2 0x5337 JUMP JUMPDEST PUSH1 0x40 MLOAD PUSH2 0x1A0D DUP2 PUSH2 0x3E08 JUMP JUMPDEST DUP5 DUP2 MSTORE PUSH1 0x40 MLOAD PUSH2 0x1A1D DUP9 DUP3 PUSH2 0x3E91 JUMP JUMPDEST PUSH0 DUP2 MSTORE DUP8 DUP3 ADD SWAP1 DUP2 MSTORE PUSH1 0x40 DUP3 ADD SWAP1 DUP4 DUP3 MSTORE PUSH1 0x40 MLOAD DUP10 DUP2 DUP10 MLOAD DUP1 DUP4 DUP13 ADD DUP4 MCOPY DUP2 ADD PUSH1 0x4 DUP2 MSTORE SUB ADD SWAP1 KECCAK256 SWAP3 MLOAD DUP1 MLOAD SWAP1 PUSH1 0x1 PUSH1 0x1 PUSH1 0x40 SHL SUB DUP3 GT PUSH2 0x35E JUMPI DUP2 SWAP1 PUSH2 0x1A64 DUP7 SLOAD PUSH2 0x3FCC JUMP JUMPDEST PUSH1 0x1F DUP2 GT PUSH2 0x2C2A JUMPI JUMPDEST POP DUP12 SWAP1 PUSH1 0x1F DUP4 GT PUSH1 0x1 EQ PUSH2 0x2BC5 JUMPI PUSH0 SWAP3 PUSH2 0x2BBA JUMPI JUMPDEST POP POP DUP2 PUSH1 0x1 SHL SWAP2 PUSH0 NOT SWAP1 PUSH1 0x3 SHL SHR NOT AND OR DUP4 SSTORE JUMPDEST MLOAD DUP1 MLOAD PUSH1 0x1 DUP5 ADD SWAP2 PUSH1 0x1 PUSH1 0x1 PUSH1 0x40 SHL SUB DUP3 GT PUSH2 0x35E JUMPI PUSH2 0x1AB6 DUP4 SLOAD PUSH2 0x3FCC JUMP JUMPDEST PUSH1 0x1F DUP2 GT PUSH2 0x2B77 JUMPI JUMPDEST POP DUP11 SWAP1 PUSH1 0x1F DUP4 GT PUSH1 0x1 EQ PUSH2 0x2B0A JUMPI SWAP3 DUP3 PUSH1 0xFF SWAP6 SWAP3 SWAP4 DUP7 SWAP5 PUSH1 0x2 SWAP7 PUSH0 SWAP3 PUSH2 0x2AFF JUMPI JUMPDEST POP POP DUP2 PUSH1 0x1 SHL SWAP2 PUSH0 NOT SWAP1 PUSH1 0x3 SHL SHR NOT AND OR SWAP1 SSTORE JUMPDEST MLOAD AND SWAP3 ADD SWAP2 AND PUSH1 0xFF NOT DUP3 SLOAD AND OR SWAP1 SSTORE PUSH1 0x40 MLOAD SWAP1 PUSH2 0x1B10 DUP3 PUSH2 0x3E23 JUMP JUMPDEST DUP5 DUP3 MSTORE PUSH1 0x40 MLOAD SWAP3 PUSH2 0x1B21 DUP9 DUP6 PUSH2 0x3E91 JUMP JUMPDEST PUSH0 DUP5 MSTORE DUP8 DUP4 ADD SWAP4 DUP5 MSTORE PUSH1 0x40 DUP4 ADD MSTORE PUSH1 0x60 DUP3 ADD MSTORE PUSH0 PUSH1 0x80 DUP3 ADD MSTORE PUSH1 0x40 MLOAD PUSH2 0x1B47 DUP8 DUP3 PUSH2 0x3E91 JUMP JUMPDEST PUSH0 DUP2 MSTORE PUSH1 0xA0 DUP3 ADD MSTORE PUSH0 PUSH1 0xC0 DUP3 ADD MSTORE PUSH1 0x3 SLOAD PUSH9 0x10000000000000000 DUP2 LT ISZERO PUSH2 0x35E JUMPI DUP1 PUSH1 0x1 PUSH2 0x1B79 SWAP3 ADD PUSH1 0x3 SSTORE PUSH2 0x40F0 JUMP JUMPDEST SWAP3 SWAP1 SWAP3 PUSH2 0x2AEC JUMPI DUP2 MLOAD DUP1 MLOAD SWAP1 PUSH1 0x1 PUSH1 0x1 PUSH1 0x40 SHL SUB DUP3 GT PUSH2 0x35E JUMPI DUP2 SWAP1 PUSH2 0x1B9F DUP7 SLOAD PUSH2 0x3FCC JUMP JUMPDEST PUSH1 0x1F DUP2 GT PUSH2 0x2A9E JUMPI JUMPDEST POP DUP10 SWAP1 PUSH1 0x1F DUP4 GT PUSH1 0x1 EQ PUSH2 0x2A3B JUMPI PUSH0 SWAP3 PUSH2 0x2A30 JUMPI JUMPDEST POP POP DUP2 PUSH1 0x1 SHL SWAP2 PUSH0 NOT SWAP1 PUSH1 0x3 SHL SHR NOT AND OR DUP4 SSTORE JUMPDEST MLOAD DUP1 MLOAD SWAP1 PUSH1 0x1 PUSH1 0x1 PUSH1 0x40 SHL SUB DUP3 GT PUSH2 0x35E JUMPI DUP2 SWAP1 PUSH2 0x1BF2 PUSH1 0x1 DUP7 ADD SLOAD PUSH2 0x3FCC JUMP JUMPDEST PUSH1 0x1F DUP2 GT PUSH2 0x29DF JUMPI JUMPDEST POP DUP9 SWAP1 PUSH1 0x1F DUP4 GT PUSH1 0x1 EQ PUSH2 0x2975 JUMPI PUSH0 SWAP3 PUSH2 0x296A JUMPI JUMPDEST POP POP DUP2 PUSH1 0x1 SHL SWAP2 PUSH0 NOT SWAP1 PUSH1 0x3 SHL SHR NOT AND OR PUSH1 0x1 DUP4 ADD SSTORE JUMPDEST PUSH1 0x2 DUP3 ADD PUSH1 0x40 DUP3 ADD MLOAD DUP1 MLOAD SWAP1 PUSH1 0x1 PUSH1 0x1 PUSH1 0x40 SHL SUB DUP3 GT PUSH2 0x35E JUMPI DUP2 SWAP1 PUSH2 0x1C4D DUP5 SLOAD PUSH2 0x3FCC JUMP JUMPDEST PUSH1 0x1F DUP2 GT PUSH2 0x291C JUMPI JUMPDEST POP DUP10 SWAP1 PUSH1 0x1F DUP4 GT PUSH1 0x1 EQ PUSH2 0x28B9 JUMPI PUSH0 SWAP3 PUSH2 0x28AE JUMPI JUMPDEST POP POP DUP2 PUSH1 0x1 SHL SWAP2 PUSH0 NOT SWAP1 PUSH1 0x3 SHL SHR NOT AND OR SWAP1 SSTORE JUMPDEST PUSH1 0x3 DUP3 ADD PUSH1 0xFF DUP1 PUSH1 0x60 DUP5 ADD MLOAD AND AND PUSH1 0xFF NOT DUP3 SLOAD AND OR DUP2 SSTORE PUSH1 0x80 DUP3 ADD MLOAD PUSH1 0x9 DUP2 LT ISZERO PUSH2 0x289A JUMPI PUSH2 0xFF00 DUP3 SLOAD SWAP2 PUSH1 0x8 SHL AND SWAP1 PUSH2 0xFF00 NOT AND OR SWAP1 SSTORE PUSH1 0x4 DUP3 ADD PUSH1 0xA0 DUP3 ADD MLOAD DUP1 MLOAD SWAP1 PUSH1 0x1 PUSH1 0x1 PUSH1 0x40 SHL SUB DUP3 GT PUSH2 0x35E JUMPI PUSH2 0x1CDB DUP4 SLOAD PUSH2 0x3FCC JUMP JUMPDEST PUSH1 0x1F DUP2 GT PUSH2 0x2857 JUMPI JUMPDEST POP DUP9 SWAP1 PUSH1 0x1F DUP4 GT PUSH1 0x1 EQ PUSH2 0x27EE JUMPI SWAP2 DUP1 PUSH1 0xC0 SWAP5 SWAP3 PUSH1 0x5 SWAP7 SWAP5 PUSH0 SWAP3 PUSH2 0x27E3 JUMPI JUMPDEST POP POP DUP2 PUSH1 0x1 SHL SWAP2 PUSH0 NOT SWAP1 PUSH1 0x3 SHL SHR NOT AND OR SWAP1 SSTORE JUMPDEST ADD MLOAD SWAP2 ADD SSTORE PUSH1 0x40 MLOAD DUP5 DUP2 DUP5 MLOAD DUP1 DUP4 DUP8 ADD DUP4 MCOPY DUP2 ADD PUSH1 0x5 DUP2 MSTORE SUB ADD SWAP1 KECCAK256 DUP2 MLOAD SWAP1 DUP2 MLOAD PUSH1 0x1 PUSH1 0x1 PUSH1 0x40 SHL SUB DUP2 GT PUSH2 0x35E JUMPI DUP7 SWAP3 PUSH2 0x1D52 DUP4 SLOAD PUSH2 0x3FCC JUMP JUMPDEST PUSH1 0x1F DUP2 GT PUSH2 0x2791 JUMPI JUMPDEST POP DUP4 SWAP1 PUSH1 0x1F DUP4 GT PUSH1 0x1 EQ PUSH2 0x272B JUMPI PUSH1 0x1 SWAP4 SWAP3 SWAP2 PUSH0 SWAP2 DUP4 PUSH2 0x2720 JUMPI JUMPDEST POP POP PUSH0 NOT PUSH1 0x3 DUP4 SWAP1 SHL SHR NOT AND SWAP1 DUP4 SHL OR DUP2 SSTORE JUMPDEST ADD SWAP2 ADD MLOAD SWAP2 DUP3 MLOAD SWAP2 PUSH1 0x1 PUSH1 0x1 PUSH1 0x40 SHL SUB DUP4 GT PUSH2 0x35E JUMPI DUP6 SWAP3 PUSH2 0x1DAB DUP3 SLOAD PUSH2 0x3FCC JUMP JUMPDEST SWAP5 PUSH1 0x1F DUP7 GT PUSH2 0x26C9 JUMPI JUMPDEST DUP5 SWAP6 POP DUP5 SWAP1 PUSH1 0x1F DUP4 GT PUSH1 0x1 EQ PUSH2 0x2662 JUMPI PUSH0 SWAP2 SWAP1 DUP4 PUSH2 0x2657 JUMPI JUMPDEST POP POP DUP2 PUSH1 0x1 SHL SWAP2 PUSH0 NOT SWAP1 PUSH1 0x3 SHL SHR NOT AND OR SWAP1 SSTORE JUMPDEST PUSH1 0x40 MLOAD SWAP3 DUP2 DUP5 SWAP3 MLOAD SWAP2 DUP3 SWAP2 ADD DUP4 MCOPY DUP2 ADD PUSH1 0x6 DUP2 MSTORE SUB ADD SWAP1 KECCAK256 SWAP1 DUP1 MLOAD SWAP2 DUP3 MLOAD PUSH1 0x1 PUSH1 0x1 PUSH1 0x40 SHL SUB DUP2 GT PUSH2 0x35E JUMPI PUSH2 0x1E18 DUP3 SLOAD PUSH2 0x3FCC JUMP JUMPDEST PUSH1 0x1F DUP2 GT PUSH2 0x2614 JUMPI JUMPDEST POP DUP5 SWAP4 PUSH1 0x1F DUP3 GT PUSH1 0x1 EQ PUSH2 0x25B4 JUMPI SWAP4 DUP2 SWAP3 SWAP4 SWAP5 PUSH0 SWAP3 PUSH2 0x25A9 JUMPI JUMPDEST POP POP DUP2 PUSH1 0x1 SHL SWAP2 PUSH0 NOT SWAP1 PUSH1 0x3 SHL SHR NOT AND OR DUP2 SSTORE JUMPDEST PUSH1 0x1 DUP2 ADD DUP4 DUP4 ADD MLOAD DUP1 MLOAD SWAP1 PUSH1 0x1 PUSH1 0x1 PUSH1 0x40 SHL SUB DUP3 GT PUSH2 0x35E JUMPI DUP2 SWAP1 PUSH2 0x1E74 DUP5 SLOAD PUSH2 0x3FCC JUMP JUMPDEST PUSH1 0x1F DUP2 GT PUSH2 0x255B JUMPI JUMPDEST POP DUP7 SWAP1 PUSH1 0x1F DUP4 GT PUSH1 0x1 EQ PUSH2 0x24F8 JUMPI PUSH0 SWAP3 PUSH2 0x24ED JUMPI JUMPDEST POP POP DUP2 PUSH1 0x1 SHL SWAP2 PUSH0 NOT SWAP1 PUSH1 0x3 SHL SHR NOT AND OR SWAP1 SSTORE JUMPDEST PUSH1 0x2 DUP2 ADD PUSH1 0x40 DUP4 ADD MLOAD DUP1 MLOAD SWAP1 PUSH1 0x1 PUSH1 0x1 PUSH1 0x40 SHL SUB DUP3 GT PUSH2 0x35E JUMPI DUP2 SWAP1 PUSH2 0x1ECC DUP5 SLOAD PUSH2 0x3FCC JUMP JUMPDEST PUSH1 0x1F DUP2 GT PUSH2 0x249F JUMPI JUMPDEST POP DUP7 SWAP1 PUSH1 0x1F DUP4 GT PUSH1 0x1 EQ PUSH2 0x243C JUMPI PUSH0 SWAP3 PUSH2 0x2431 JUMPI JUMPDEST POP POP DUP2 PUSH1 0x1 SHL SWAP2 PUSH0 NOT SWAP1 PUSH1 0x3 SHL SHR NOT AND OR SWAP1 SSTORE JUMPDEST PUSH1 0x3 DUP2 ADD PUSH1 0x60 DUP4 ADD MLOAD DUP1 MLOAD SWAP1 PUSH1 0x1 PUSH1 0x1 PUSH1 0x40 SHL SUB DUP3 GT PUSH2 0x35E JUMPI DUP2 SWAP1 PUSH2 0x1F24 DUP5 SLOAD PUSH2 0x3FCC JUMP JUMPDEST PUSH1 0x1F DUP2 GT PUSH2 0x23E3 JUMPI JUMPDEST POP DUP7 SWAP1 PUSH1 0x1F DUP4 GT PUSH1 0x1 EQ PUSH2 0x2380 JUMPI PUSH0 SWAP3 PUSH2 0x2375 JUMPI JUMPDEST POP POP DUP2 PUSH1 0x1 SHL SWAP2 PUSH0 NOT SWAP1 PUSH1 0x3 SHL SHR NOT AND OR SWAP1 SSTORE JUMPDEST PUSH1 0x4 DUP2 ADD PUSH1 0x80 DUP4 ADD MLOAD DUP1 MLOAD SWAP1 PUSH1 0x1 PUSH1 0x1 PUSH1 0x40 SHL SUB DUP3 GT PUSH2 0x35E JUMPI DUP2 SWAP1 PUSH2 0x1F7C DUP5 SLOAD PUSH2 0x3FCC JUMP JUMPDEST PUSH1 0x1F DUP2 GT PUSH2 0x2327 JUMPI JUMPDEST POP DUP7 SWAP1 PUSH1 0x1F DUP4 GT PUSH1 0x1 EQ PUSH2 0x22C4 JUMPI PUSH0 SWAP3 PUSH2 0x22B9 JUMPI JUMPDEST POP POP DUP2 PUSH1 0x1 SHL SWAP2 PUSH0 NOT SWAP1 PUSH1 0x3 SHL SHR NOT AND OR SWAP1 SSTORE JUMPDEST PUSH1 0x5 DUP2 ADD PUSH1 0xA0 DUP4 ADD MLOAD DUP1 MLOAD SWAP1 PUSH1 0x1 PUSH1 0x1 PUSH1 0x40 SHL SUB DUP3 GT PUSH2 0x35E JUMPI DUP2 SWAP1 PUSH2 0x1FD4 DUP5 SLOAD PUSH2 0x3FCC JUMP JUMPDEST PUSH1 0x1F DUP2 GT PUSH2 0x226B JUMPI JUMPDEST POP DUP7 SWAP1 PUSH1 0x1F DUP4 GT PUSH1 0x1 EQ PUSH2 0x2208 JUMPI PUSH0 SWAP3 PUSH2 0x21FD JUMPI JUMPDEST POP POP DUP2 PUSH1 0x1 SHL SWAP2 PUSH0 NOT SWAP1 PUSH1 0x3 SHL SHR NOT AND OR SWAP1 SSTORE JUMPDEST PUSH1 0x6 DUP2 ADD PUSH1 0xC0 DUP4 ADD MLOAD DUP1 MLOAD SWAP1 PUSH1 0x1 PUSH1 0x1 PUSH1 0x40 SHL SUB DUP3 GT PUSH2 0x35E JUMPI PUSH2 0x202A DUP4 SLOAD PUSH2 0x3FCC JUMP JUMPDEST PUSH1 0x1F DUP2 GT PUSH2 0x21BA JUMPI JUMPDEST POP DUP6 SWAP1 PUSH1 0x1F DUP4 GT PUSH1 0x1 EQ PUSH2 0x2151 JUMPI SWAP2 DUP1 PUSH1 0x7 SWAP5 SWAP3 PUSH1 0xE0 SWAP7 SWAP5 PUSH0 SWAP3 PUSH2 0x2146 JUMPI JUMPDEST POP POP DUP2 PUSH1 0x1 SHL SWAP2 PUSH0 NOT SWAP1 PUSH1 0x3 SHL SHR NOT AND OR SWAP1 SSTORE JUMPDEST ADD SWAP2 ADD MLOAD SWAP2 DUP3 MLOAD SWAP1 PUSH1 0x1 PUSH1 0x1 PUSH1 0x40 SHL SUB DUP3 GT PUSH2 0x35E JUMPI PUSH2 0x2086 DUP4 SLOAD PUSH2 0x3FCC JUMP JUMPDEST PUSH1 0x1F DUP2 GT PUSH2 0x2103 JUMPI JUMPDEST POP DUP1 PUSH1 0x1F DUP4 GT PUSH1 0x1 EQ PUSH2 0x20BD JUMPI POP DUP2 SWAP3 SWAP4 PUSH0 SWAP3 PUSH2 0x2B2 JUMPI POP POP PUSH0 NOT PUSH1 0x3 DUP4 SWAP1 SHL SHR NOT AND PUSH1 0x1 SWAP2 SWAP1 SWAP2 SHL OR SWAP1 SSTORE STOP JUMPDEST SWAP1 PUSH1 0x1F NOT DUP4 AND SWAP5 DUP5 PUSH0 MSTORE DUP3 PUSH0 KECCAK256 SWAP3 PUSH0 SWAP1 JUMPDEST DUP8 DUP3 LT PUSH2 0x20EB JUMPI POP POP DUP4 PUSH1 0x1 SWAP6 SWAP7 LT PUSH2 0x2E9 JUMPI POP POP POP DUP2 SHL ADD SWAP1 SSTORE STOP JUMPDEST DUP1 PUSH1 0x1 DUP6 SWAP7 DUP3 SWAP5 SWAP7 DUP7 ADD MLOAD DUP2 SSTORE ADD SWAP6 ADD SWAP4 ADD SWAP1 PUSH2 0x20CE JUMP JUMPDEST DUP4 PUSH0 MSTORE DUP2 PUSH0 KECCAK256 PUSH1 0x1F DUP5 ADD PUSH1 0x5 SHR DUP2 ADD SWAP2 DUP4 DUP6 LT PUSH2 0x213C JUMPI JUMPDEST PUSH1 0x1F ADD PUSH1 0x5 SHR ADD SWAP1 JUMPDEST DUP2 DUP2 LT PUSH2 0x2131 JUMPI POP PUSH2 0x208F JUMP JUMPDEST PUSH0 DUP2 SSTORE PUSH1 0x1 ADD PUSH2 0x2124 JUMP JUMPDEST SWAP1 SWAP2 POP DUP2 SWAP1 PUSH2 0x211B JUMP JUMPDEST ADD MLOAD SWAP1 POP DUP9 DUP1 PUSH2 0x2052 JUMP JUMPDEST SWAP1 PUSH1 0x1F NOT DUP4 AND SWAP2 DUP5 PUSH0 MSTORE DUP8 PUSH0 KECCAK256 SWAP3 PUSH0 JUMPDEST DUP10 DUP3 DUP3 LT PUSH2 0x21A4 JUMPI POP POP SWAP3 PUSH1 0x1 SWAP3 DUP6 SWAP3 PUSH1 0xE0 SWAP9 SWAP7 PUSH1 0x7 SWAP9 SWAP7 LT PUSH2 0x218C JUMPI JUMPDEST POP POP POP DUP2 SHL ADD SWAP1 SSTORE PUSH2 0x2066 JUMP JUMPDEST ADD MLOAD PUSH0 NOT PUSH1 0xF8 DUP5 PUSH1 0x3 SHL AND SHR NOT AND SWAP1 SSTORE DUP9 DUP1 DUP1 PUSH2 0x217F JUMP JUMPDEST PUSH1 0x1 DUP6 SWAP7 DUP3 SWAP4 SWAP7 DUP7 ADD MLOAD DUP2 SSTORE ADD SWAP6 ADD SWAP4 ADD PUSH2 0x2161 JUMP JUMPDEST DUP4 PUSH0 MSTORE DUP7 PUSH0 KECCAK256 PUSH1 0x1F DUP5 ADD PUSH1 0x5 SHR DUP2 ADD SWAP2 DUP9 DUP6 LT PUSH2 0x21F3 JUMPI JUMPDEST PUSH1 0x1F ADD PUSH1 0x5 SHR ADD SWAP1 JUMPDEST DUP2 DUP2 LT PUSH2 0x21E8 JUMPI POP PUSH2 0x2033 JUMP JUMPDEST PUSH0 DUP2 SSTORE PUSH1 0x1 ADD PUSH2 0x21DB JUMP JUMPDEST SWAP1 SWAP2 POP DUP2 SWAP1 PUSH2 0x21D2 JUMP JUMPDEST ADD MLOAD SWAP1 POP DUP7 DUP1 PUSH2 0x1FF2 JUMP JUMPDEST PUSH0 DUP6 DUP2 MSTORE DUP9 DUP2 KECCAK256 SWAP4 POP PUSH1 0x1F NOT DUP6 AND SWAP1 JUMPDEST DUP10 DUP3 DUP3 LT PUSH2 0x2255 JUMPI POP POP SWAP1 DUP5 PUSH1 0x1 SWAP6 SWAP5 SWAP4 SWAP3 LT PUSH2 0x223D JUMPI JUMPDEST POP POP POP DUP2 SHL ADD SWAP1 SSTORE PUSH2 0x2006 JUMP JUMPDEST ADD MLOAD PUSH0 NOT PUSH1 0xF8 DUP5 PUSH1 0x3 SHL AND SHR NOT AND SWAP1 SSTORE DUP7 DUP1 DUP1 PUSH2 0x2230 JUMP JUMPDEST PUSH1 0x1 DUP6 SWAP7 DUP3 SWAP4 SWAP7 DUP7 ADD MLOAD DUP2 SSTORE ADD SWAP6 ADD SWAP4 ADD PUSH2 0x2218 JUMP JUMPDEST SWAP1 SWAP2 POP DUP4 PUSH0 MSTORE DUP7 PUSH0 KECCAK256 PUSH1 0x1F DUP5 ADD PUSH1 0x5 SHR DUP2 ADD SWAP2 DUP9 DUP6 LT PUSH2 0x22AF JUMPI JUMPDEST SWAP1 PUSH1 0x1F DUP6 SWAP5 SWAP4 SWAP3 ADD PUSH1 0x5 SHR ADD SWAP1 JUMPDEST DUP2 DUP2 LT PUSH2 0x22A1 JUMPI POP PUSH2 0x1FDD JUMP JUMPDEST PUSH0 DUP2 SSTORE DUP5 SWAP4 POP PUSH1 0x1 ADD PUSH2 0x2294 JUMP JUMPDEST SWAP1 SWAP2 POP DUP2 SWAP1 PUSH2 0x2286 JUMP JUMPDEST ADD MLOAD SWAP1 POP DUP7 DUP1 PUSH2 0x1F9A JUMP JUMPDEST PUSH0 DUP6 DUP2 MSTORE DUP9 DUP2 KECCAK256 SWAP4 POP PUSH1 0x1F NOT DUP6 AND SWAP1 JUMPDEST DUP10 DUP3 DUP3 LT PUSH2 0x2311 JUMPI POP POP SWAP1 DUP5 PUSH1 0x1 SWAP6 SWAP5 SWAP4 SWAP3 LT PUSH2 0x22F9 JUMPI JUMPDEST POP POP POP DUP2 SHL ADD SWAP1 SSTORE PUSH2 0x1FAE JUMP JUMPDEST ADD MLOAD PUSH0 NOT PUSH1 0xF8 DUP5 PUSH1 0x3 SHL AND SHR NOT AND SWAP1 SSTORE DUP7 DUP1 DUP1 PUSH2 0x22EC JUMP JUMPDEST PUSH1 0x1 DUP6 SWAP7 DUP3 SWAP4 SWAP7 DUP7 ADD MLOAD DUP2 SSTORE ADD SWAP6 ADD SWAP4 ADD PUSH2 0x22D4 JUMP JUMPDEST SWAP1 SWAP2 POP DUP4 PUSH0 MSTORE DUP7 PUSH0 KECCAK256 PUSH1 0x1F DUP5 ADD PUSH1 0x5 SHR DUP2 ADD SWAP2 DUP9 DUP6 LT PUSH2 0x236B JUMPI JUMPDEST SWAP1 PUSH1 0x1F DUP6 SWAP5 SWAP4 SWAP3 ADD PUSH1 0x5 SHR ADD SWAP1 JUMPDEST DUP2 DUP2 LT PUSH2 0x235D JUMPI POP PUSH2 0x1F85 JUMP JUMPDEST PUSH0 DUP2 SSTORE DUP5 SWAP4 POP PUSH1 0x1 ADD PUSH2 0x2350 JUMP JUMPDEST SWAP1 SWAP2 POP DUP2 SWAP1 PUSH2 0x2342 JUMP JUMPDEST ADD MLOAD SWAP1 POP DUP7 DUP1 PUSH2 0x1F42 JUMP JUMPDEST PUSH0 DUP6 DUP2 MSTORE DUP9 DUP2 KECCAK256 SWAP4 POP PUSH1 0x1F NOT DUP6 AND SWAP1 JUMPDEST DUP10 DUP3 DUP3 LT PUSH2 0x23CD JUMPI POP POP SWAP1 DUP5 PUSH1 0x1 SWAP6 SWAP5 SWAP4 SWAP3 LT PUSH2 0x23B5 JUMPI JUMPDEST POP POP POP DUP2 SHL ADD SWAP1 SSTORE PUSH2 0x1F56 JUMP JUMPDEST ADD MLOAD PUSH0 NOT PUSH1 0xF8 DUP5 PUSH1 0x3 SHL AND SHR NOT AND SWAP1 SSTORE DUP7 DUP1 DUP1 PUSH2 0x23A8 JUMP JUMPDEST PUSH1 0x1 DUP6 SWAP7 DUP3 SWAP4 SWAP7 DUP7 ADD MLOAD DUP2 SSTORE ADD SWAP6 ADD SWAP4 ADD PUSH2 0x2390 JUMP JUMPDEST SWAP1 SWAP2 POP DUP4 PUSH0 MSTORE DUP7 PUSH0 KECCAK256 PUSH1 0x1F DUP5 ADD PUSH1 0x5 SHR DUP2 ADD SWAP2 DUP9 DUP6 LT PUSH2 0x2427 JUMPI JUMPDEST SWAP1 PUSH1 0x1F DUP6 SWAP5 SWAP4 SWAP3 ADD PUSH1 0x5 SHR ADD SWAP1 JUMPDEST DUP2 DUP2 LT PUSH2 0x2419 JUMPI POP PUSH2 0x1F2D JUMP JUMPDEST PUSH0 DUP2 SSTORE DUP5 SWAP4 POP PUSH1 0x1 ADD PUSH2 0x240C JUMP JUMPDEST SWAP1 SWAP2 POP DUP2 SWAP1 PUSH2 0x23FE JUMP JUMPDEST ADD MLOAD SWAP1 POP DUP7 DUP1 PUSH2 0x1EEA JUMP JUMPDEST PUSH0 DUP6 DUP2 MSTORE DUP9 DUP2 KECCAK256 SWAP4 POP PUSH1 0x1F NOT DUP6 AND SWAP1 JUMPDEST DUP10 DUP3 DUP3 LT PUSH2 0x2489 JUMPI POP POP SWAP1 DUP5 PUSH1 0x1 SWAP6 SWAP5 SWAP4 SWAP3 LT PUSH2 0x2471 JUMPI JUMPDEST POP POP POP DUP2 SHL ADD SWAP1 SSTORE PUSH2 0x1EFE JUMP JUMPDEST ADD MLOAD PUSH0 NOT PUSH1 0xF8 DUP5 PUSH1 0x3 SHL AND SHR NOT AND SWAP1 SSTORE DUP7 DUP1 DUP1 PUSH2 0x2464 JUMP JUMPDEST PUSH1 0x1 DUP6 SWAP7 DUP3 SWAP4 SWAP7 DUP7 ADD MLOAD DUP2 SSTORE ADD SWAP6 ADD SWAP4 ADD PUSH2 0x244C JUMP JUMPDEST SWAP1 SWAP2 POP DUP4 PUSH0 MSTORE DUP7 PUSH0 KECCAK256 PUSH1 0x1F DUP5 ADD PUSH1 0x5 SHR DUP2 ADD SWAP2 DUP9 DUP6 LT PUSH2 0x24E3 JUMPI JUMPDEST SWAP1 PUSH1 0x1F DUP6 SWAP5 SWAP4 SWAP3 ADD PUSH1 0x5 SHR ADD SWAP1 JUMPDEST DUP2 DUP2 LT PUSH2 0x24D5 JUMPI POP PUSH2 0x1ED5 JUMP JUMPDEST PUSH0 DUP2 SSTORE DUP5 SWAP4 POP PUSH1 0x1 ADD PUSH2 0x24C8 JUMP JUMPDEST SWAP1 SWAP2 POP DUP2 SWAP1 PUSH2 0x24BA JUMP JUMPDEST ADD MLOAD SWAP1 POP DUP7 DUP1 PUSH2 0x1E92 JUMP JUMPDEST PUSH0 DUP6 DUP2 MSTORE DUP9 DUP2 KECCAK256 SWAP4 POP PUSH1 0x1F NOT DUP6 AND SWAP1 JUMPDEST DUP10 DUP3 DUP3 LT PUSH2 0x2545 JUMPI POP POP SWAP1 DUP5 PUSH1 0x1 SWAP6 SWAP5 SWAP4 SWAP3 LT PUSH2 0x252D JUMPI JUMPDEST POP POP POP DUP2 SHL ADD SWAP1 SSTORE PUSH2 0x1EA6 JUMP JUMPDEST ADD MLOAD PUSH0 NOT PUSH1 0xF8 DUP5 PUSH1 0x3 SHL AND SHR NOT AND SWAP1 SSTORE DUP7 DUP1 DUP1 PUSH2 0x2520 JUMP JUMPDEST PUSH1 0x1 DUP6 SWAP7 DUP3 SWAP4 SWAP7 DUP7 ADD MLOAD DUP2 SSTORE ADD SWAP6 ADD SWAP4 ADD PUSH2 0x2508 JUMP JUMPDEST SWAP1 SWAP2 POP DUP4 PUSH0 MSTORE DUP7 PUSH0 KECCAK256 PUSH1 0x1F DUP5 ADD PUSH1 0x5 SHR DUP2 ADD SWAP2 DUP9 DUP6 LT PUSH2 0x259F JUMPI JUMPDEST SWAP1 PUSH1 0x1F DUP6 SWAP5 SWAP4 SWAP3 ADD PUSH1 0x5 SHR ADD SWAP1 JUMPDEST DUP2 DUP2 LT PUSH2 0x2591 JUMPI POP PUSH2 0x1E7D JUMP JUMPDEST PUSH0 DUP2 SSTORE DUP5 SWAP4 POP PUSH1 0x1 ADD PUSH2 0x2584 JUMP JUMPDEST SWAP1 SWAP2 POP DUP2 SWAP1 PUSH2 0x2576 JUMP JUMPDEST ADD MLOAD SWAP1 POP DUP6 DUP1 PUSH2 0x1E3B JUMP JUMPDEST PUSH1 0x1F NOT DUP3 AND SWAP5 DUP4 PUSH0 MSTORE DUP7 PUSH0 KECCAK256 SWAP2 PUSH0 JUMPDEST DUP9 DUP9 DUP3 LT PUSH2 0x25FE JUMPI POP POP DUP4 PUSH1 0x1 SWAP6 SWAP7 SWAP8 LT PUSH2 0x25E6 JUMPI JUMPDEST POP POP POP DUP2 SHL ADD DUP2 SSTORE PUSH2 0x1E4F JUMP JUMPDEST ADD MLOAD PUSH0 NOT PUSH1 0xF8 DUP5 PUSH1 0x3 SHL AND SHR NOT AND SWAP1 SSTORE DUP6 DUP1 DUP1 PUSH2 0x25D9 JUMP JUMPDEST PUSH1 0x1 DUP5 SWAP6 DUP3 SWAP4 SWAP6 DUP6 ADD MLOAD DUP2 SSTORE ADD SWAP5 ADD SWAP3 ADD PUSH2 0x25C3 JUMP JUMPDEST DUP3 PUSH0 MSTORE DUP6 PUSH0 KECCAK256 PUSH1 0x1F DUP4 ADD PUSH1 0x5 SHR DUP2 ADD SWAP2 DUP8 DUP5 LT PUSH2 0x264D JUMPI JUMPDEST PUSH1 0x1F ADD PUSH1 0x5 SHR ADD SWAP1 JUMPDEST DUP2 DUP2 LT PUSH2 0x2642 JUMPI POP PUSH2 0x1E21 JUMP JUMPDEST PUSH0 DUP2 SSTORE PUSH1 0x1 ADD PUSH2 0x2635 JUMP JUMPDEST SWAP1 SWAP2 POP DUP2 SWAP1 PUSH2 0x262C JUMP JUMPDEST ADD MLOAD SWAP1 POP DUP9 DUP1 PUSH2 0x1DCE JUMP JUMPDEST PUSH1 0x1F SWAP6 SWAP5 SWAP4 SWAP3 SWAP2 SWAP6 NOT DUP3 AND SWAP6 DUP4 PUSH0 MSTORE DUP6 PUSH0 KECCAK256 SWAP2 PUSH0 JUMPDEST DUP9 DUP2 LT PUSH2 0x26B1 JUMPI POP DUP4 PUSH1 0x1 SWAP6 SWAP7 SWAP8 SWAP9 LT PUSH2 0x2699 JUMPI JUMPDEST POP POP POP DUP2 SHL ADD SWAP1 SSTORE PUSH2 0x1DE2 JUMP JUMPDEST ADD MLOAD PUSH0 NOT PUSH1 0xF8 DUP5 PUSH1 0x3 SHL AND SHR NOT AND SWAP1 SSTORE DUP9 DUP1 DUP1 PUSH2 0x268C JUMP JUMPDEST DUP3 DUP3 ADD MLOAD DUP5 SSTORE DUP10 SWAP8 PUSH1 0x1 SWAP1 SWAP5 ADD SWAP4 SWAP3 DUP4 ADD SWAP3 ADD PUSH2 0x2677 JUMP JUMPDEST SWAP2 DUP1 SWAP5 POP PUSH0 SWAP6 SWAP2 SWAP4 SWAP6 MSTORE DUP7 PUSH0 KECCAK256 PUSH1 0x1F DUP5 ADD PUSH1 0x5 SHR DUP2 ADD SWAP2 DUP9 DUP6 LT PUSH2 0x2716 JUMPI JUMPDEST SWAP1 PUSH1 0x1F DUP10 SWAP7 SWAP5 SWAP8 SWAP6 SWAP4 SWAP3 ADD PUSH1 0x5 SHR ADD SWAP1 JUMPDEST DUP2 DUP2 LT PUSH2 0x2708 JUMPI POP POP DUP5 PUSH2 0x1DB5 JUMP JUMPDEST PUSH0 DUP2 SSTORE DUP9 SWAP6 POP PUSH1 0x1 ADD PUSH2 0x26F9 JUMP JUMPDEST SWAP1 SWAP2 POP DUP2 SWAP1 PUSH2 0x26E8 JUMP JUMPDEST ADD MLOAD SWAP1 POP DUP10 DUP1 PUSH2 0x1D76 JUMP JUMPDEST SWAP1 PUSH1 0x1F NOT DUP4 AND SWAP2 DUP5 PUSH0 MSTORE DUP6 PUSH0 KECCAK256 SWAP3 PUSH0 JUMPDEST DUP8 DUP3 DUP3 LT PUSH2 0x277B JUMPI POP POP SWAP2 PUSH1 0x1 SWAP6 SWAP5 SWAP3 SWAP2 DUP4 DUP8 SWAP6 SWAP4 LT PUSH2 0x2763 JUMPI JUMPDEST POP POP POP DUP2 SHL ADD DUP2 SSTORE PUSH2 0x1D89 JUMP JUMPDEST ADD MLOAD PUSH0 NOT PUSH1 0xF8 DUP5 PUSH1 0x3 SHL AND SHR NOT AND SWAP1 SSTORE DUP10 DUP1 DUP1 PUSH2 0x2756 JUMP JUMPDEST PUSH1 0x1 DUP6 SWAP7 DUP3 SWAP4 SWAP7 DUP7 ADD MLOAD DUP2 SSTORE ADD SWAP6 ADD SWAP4 ADD PUSH2 0x273B JUMP JUMPDEST SWAP1 SWAP2 SWAP3 DUP1 SWAP5 POP PUSH0 MSTORE DUP8 PUSH0 KECCAK256 PUSH1 0x1F DUP5 ADD PUSH1 0x5 SHR DUP2 ADD SWAP2 DUP10 DUP6 LT PUSH2 0x27D9 JUMPI JUMPDEST SWAP1 PUSH1 0x1F DUP11 SWAP7 SWAP6 SWAP5 SWAP4 SWAP3 ADD PUSH1 0x5 SHR ADD SWAP1 JUMPDEST DUP2 DUP2 LT PUSH2 0x27CB JUMPI POP PUSH2 0x1D5B JUMP JUMPDEST PUSH0 DUP2 SSTORE DUP10 SWAP6 POP PUSH1 0x1 ADD PUSH2 0x27BE JUMP JUMPDEST SWAP1 SWAP2 POP DUP2 SWAP1 PUSH2 0x27AE JUMP JUMPDEST ADD MLOAD SWAP1 POP DUP12 DUP1 PUSH2 0x1D03 JUMP JUMPDEST SWAP1 PUSH1 0x1F NOT DUP4 AND SWAP2 DUP5 PUSH0 MSTORE DUP11 PUSH0 KECCAK256 SWAP3 PUSH0 JUMPDEST DUP13 DUP3 DUP3 LT PUSH2 0x2841 JUMPI POP POP SWAP3 PUSH1 0x1 SWAP3 DUP6 SWAP3 PUSH1 0x5 SWAP9 SWAP7 PUSH1 0xC0 SWAP9 SWAP7 LT PUSH2 0x2829 JUMPI JUMPDEST POP POP POP DUP2 SHL ADD SWAP1 SSTORE PUSH2 0x1D17 JUMP JUMPDEST ADD MLOAD PUSH0 NOT PUSH1 0xF8 DUP5 PUSH1 0x3 SHL AND SHR NOT AND SWAP1 SSTORE DUP12 DUP1 DUP1 PUSH2 0x281C JUMP JUMPDEST PUSH1 0x1 DUP6 SWAP7 DUP3 SWAP4 SWAP7 DUP7 ADD MLOAD DUP2 SSTORE ADD SWAP6 ADD SWAP4 ADD PUSH2 0x27FE JUMP JUMPDEST DUP4 PUSH0 MSTORE DUP10 PUSH0 KECCAK256 PUSH1 0x1F DUP5 ADD PUSH1 0x5 SHR DUP2 ADD SWAP2 DUP12 DUP6 LT PUSH2 0x2890 JUMPI JUMPDEST PUSH1 0x1F ADD PUSH1 0x5 SHR ADD SWAP1 JUMPDEST DUP2 DUP2 LT PUSH2 0x2885 JUMPI POP PUSH2 0x1CE4 JUMP JUMPDEST PUSH0 DUP2 SSTORE PUSH1 0x1 ADD PUSH2 0x2878 JUMP JUMPDEST SWAP1 SWAP2 POP DUP2 SWAP1 PUSH2 0x286F JUMP JUMPDEST PUSH4 0x4E487B71 PUSH1 0xE0 SHL PUSH0 MSTORE PUSH1 0x21 PUSH1 0x4 MSTORE PUSH1 0x24 PUSH0 REVERT JUMPDEST ADD MLOAD SWAP1 POP DUP10 DUP1 PUSH2 0x1C6B JUMP JUMPDEST PUSH0 DUP6 DUP2 MSTORE DUP12 DUP2 KECCAK256 SWAP4 POP PUSH1 0x1F NOT DUP6 AND SWAP1 JUMPDEST DUP13 DUP3 DUP3 LT PUSH2 0x2906 JUMPI POP POP SWAP1 DUP5 PUSH1 0x1 SWAP6 SWAP5 SWAP4 SWAP3 LT PUSH2 0x28EE JUMPI JUMPDEST POP POP POP DUP2 SHL ADD SWAP1 SSTORE PUSH2 0x1C7F JUMP JUMPDEST ADD MLOAD PUSH0 NOT PUSH1 0xF8 DUP5 PUSH1 0x3 SHL AND SHR NOT AND SWAP1 SSTORE DUP10 DUP1 DUP1 PUSH2 0x28E1 JUMP JUMPDEST PUSH1 0x1 DUP6 SWAP7 DUP3 SWAP4 SWAP7 DUP7 ADD MLOAD DUP2 SSTORE ADD SWAP6 ADD SWAP4 ADD PUSH2 0x28C9 JUMP JUMPDEST SWAP1 SWAP2 POP DUP4 PUSH0 MSTORE DUP10 PUSH0 KECCAK256 PUSH1 0x1F DUP5 ADD PUSH1 0x5 SHR DUP2 ADD SWAP2 DUP12 DUP6 LT PUSH2 0x2960 JUMPI JUMPDEST SWAP1 PUSH1 0x1F DUP6 SWAP5 SWAP4 SWAP3 ADD PUSH1 0x5 SHR ADD SWAP1 JUMPDEST DUP2 DUP2 LT PUSH2 0x2952 JUMPI POP PUSH2 0x1C56 JUMP JUMPDEST PUSH0 DUP2 SSTORE DUP5 SWAP4 POP PUSH1 0x1 ADD PUSH2 0x2945 JUMP JUMPDEST SWAP1 SWAP2 POP DUP2 SWAP1 PUSH2 0x2937 JUMP JUMPDEST ADD MLOAD SWAP1 POP DUP9 DUP1 PUSH2 0x1C10 JUMP JUMPDEST PUSH1 0x1 DUP7 ADD PUSH0 SWAP1 DUP2 MSTORE DUP11 DUP2 KECCAK256 SWAP4 POP PUSH1 0x1F NOT DUP6 AND SWAP1 JUMPDEST DUP12 DUP3 DUP3 LT PUSH2 0x29C9 JUMPI POP POP SWAP1 DUP5 PUSH1 0x1 SWAP6 SWAP5 SWAP4 SWAP3 LT PUSH2 0x29B1 JUMPI JUMPDEST POP POP POP DUP2 SHL ADD PUSH1 0x1 DUP4 ADD SSTORE PUSH2 0x1C27 JUMP JUMPDEST ADD MLOAD PUSH0 NOT PUSH1 0xF8 DUP5 PUSH1 0x3 SHL AND SHR NOT AND SWAP1 SSTORE DUP9 DUP1 DUP1 PUSH2 0x29A1 JUMP JUMPDEST PUSH1 0x1 DUP6 SWAP7 DUP3 SWAP4 SWAP7 DUP7 ADD MLOAD DUP2 SSTORE ADD SWAP6 ADD SWAP4 ADD PUSH2 0x2989 JUMP JUMPDEST SWAP1 SWAP2 POP PUSH1 0x1 DUP6 ADD PUSH0 MSTORE DUP9 PUSH0 KECCAK256 PUSH1 0x1F DUP5 ADD PUSH1 0x5 SHR DUP2 ADD SWAP2 DUP11 DUP6 LT PUSH2 0x2A26 JUMPI JUMPDEST SWAP1 PUSH1 0x1F DUP6 SWAP5 SWAP4 SWAP3 ADD PUSH1 0x5 SHR ADD SWAP1 JUMPDEST DUP2 DUP2 LT PUSH2 0x2A18 JUMPI POP PUSH2 0x1BFB JUMP JUMPDEST PUSH0 DUP2 SSTORE DUP5 SWAP4 POP PUSH1 0x1 ADD PUSH2 0x2A0B JUMP JUMPDEST SWAP1 SWAP2 POP DUP2 SWAP1 PUSH2 0x29FD JUMP JUMPDEST ADD MLOAD SWAP1 POP DUP10 DUP1 PUSH2 0x1BBD JUMP JUMPDEST PUSH0 DUP8 DUP2 MSTORE DUP12 DUP2 KECCAK256 SWAP4 POP PUSH1 0x1F NOT DUP6 AND SWAP1 JUMPDEST DUP13 DUP3 DUP3 LT PUSH2 0x2A88 JUMPI POP POP SWAP1 DUP5 PUSH1 0x1 SWAP6 SWAP5 SWAP4 SWAP3 LT PUSH2 0x2A70 JUMPI JUMPDEST POP POP POP DUP2 SHL ADD DUP4 SSTORE PUSH2 0x1BD1 JUMP JUMPDEST ADD MLOAD PUSH0 NOT PUSH1 0xF8 DUP5 PUSH1 0x3 SHL AND SHR NOT AND SWAP1 SSTORE DUP10 DUP1 DUP1 PUSH2 0x2A63 JUMP JUMPDEST PUSH1 0x1 DUP6 SWAP7 DUP3 SWAP4 SWAP7 DUP7 ADD MLOAD DUP2 SSTORE ADD SWAP6 ADD SWAP4 ADD PUSH2 0x2A4B JUMP JUMPDEST SWAP1 SWAP2 POP DUP6 PUSH0 MSTORE DUP10 PUSH0 KECCAK256 PUSH1 0x1F DUP5 ADD PUSH1 0x5 SHR DUP2 ADD SWAP2 DUP12 DUP6 LT PUSH2 0x2AE2 JUMPI JUMPDEST SWAP1 PUSH1 0x1F DUP6 SWAP5 SWAP4 SWAP3 ADD PUSH1 0x5 SHR ADD SWAP1 JUMPDEST DUP2 DUP2 LT PUSH2 0x2AD4 JUMPI POP PUSH2 0x1BA8 JUMP JUMPDEST PUSH0 DUP2 SSTORE DUP5 SWAP4 POP PUSH1 0x1 ADD PUSH2 0x2AC7 JUMP JUMPDEST SWAP1 SWAP2 POP DUP2 SWAP1 PUSH2 0x2AB9 JUMP JUMPDEST PUSH4 0x4E487B71 PUSH1 0xE0 SHL PUSH0 MSTORE PUSH0 PUSH1 0x4 MSTORE PUSH1 0x24 PUSH0 REVERT JUMPDEST ADD MLOAD SWAP1 POP DUP15 DUP1 PUSH2 0x1AE0 JUMP JUMPDEST PUSH0 DUP5 DUP2 MSTORE DUP13 DUP2 KECCAK256 SWAP3 SWAP2 SWAP1 PUSH1 0x1F NOT DUP6 AND SWAP1 DUP15 JUMPDEST DUP3 DUP3 LT PUSH2 0x2B5F JUMPI POP POP SWAP4 PUSH1 0xFF SWAP7 SWAP4 PUSH1 0x2 SWAP7 SWAP4 PUSH1 0x1 SWAP4 DUP4 DUP11 SWAP9 LT PUSH2 0x2B47 JUMPI JUMPDEST POP POP POP DUP2 SHL ADD SWAP1 SSTORE PUSH2 0x1AF4 JUMP JUMPDEST ADD MLOAD PUSH0 NOT PUSH1 0xF8 DUP5 PUSH1 0x3 SHL AND SHR NOT AND SWAP1 SSTORE DUP15 DUP1 DUP1 PUSH2 0x2B3A JUMP JUMPDEST DUP1 PUSH1 0x1 DUP7 SWAP8 DUP3 SWAP5 SWAP8 DUP8 ADD MLOAD DUP2 SSTORE ADD SWAP7 ADD SWAP5 ADD SWAP1 PUSH2 0x2B1C JUMP JUMPDEST DUP4 PUSH0 MSTORE DUP12 PUSH0 KECCAK256 PUSH1 0x1F DUP5 ADD PUSH1 0x5 SHR DUP2 ADD SWAP2 DUP14 DUP6 LT PUSH2 0x2BB0 JUMPI JUMPDEST PUSH1 0x1F ADD PUSH1 0x5 SHR ADD SWAP1 JUMPDEST DUP2 DUP2 LT PUSH2 0x2BA5 JUMPI POP PUSH2 0x1ABF JUMP JUMPDEST PUSH0 DUP2 SSTORE PUSH1 0x1 ADD PUSH2 0x2B98 JUMP JUMPDEST SWAP1 SWAP2 POP DUP2 SWAP1 PUSH2 0x2B8F JUMP JUMPDEST ADD MLOAD SWAP1 POP DUP12 DUP1 PUSH2 0x1A82 JUMP JUMPDEST PUSH0 DUP8 DUP2 MSTORE DUP14 DUP2 KECCAK256 SWAP4 POP PUSH1 0x1F NOT DUP6 AND SWAP1 DUP15 JUMPDEST DUP3 DUP3 LT PUSH2 0x2C12 JUMPI POP POP SWAP1 DUP5 PUSH1 0x1 SWAP6 SWAP5 SWAP4 SWAP3 LT PUSH2 0x2BFA JUMPI JUMPDEST POP POP POP DUP2 SHL ADD DUP4 SSTORE PUSH2 0x1A96 JUMP JUMPDEST ADD MLOAD PUSH0 NOT PUSH1 0xF8 DUP5 PUSH1 0x3 SHL AND SHR NOT AND SWAP1 SSTORE DUP12 DUP1 DUP1 PUSH2 0x2BED JUMP JUMPDEST DUP1 PUSH1 0x1 DUP7 SWAP8 DUP3 SWAP5 SWAP8 DUP8 ADD MLOAD DUP2 SSTORE ADD SWAP7 ADD SWAP5 ADD SWAP1 PUSH2 0x2BD6 JUMP JUMPDEST SWAP1 SWAP2 POP DUP6 PUSH0 MSTORE DUP12 PUSH0 KECCAK256 PUSH1 0x1F DUP5 ADD PUSH1 0x5 SHR DUP2 ADD SWAP2 DUP14 DUP6 LT PUSH2 0x2C6E JUMPI JUMPDEST SWAP1 PUSH1 0x1F DUP6 SWAP5 SWAP4 SWAP3 ADD PUSH1 0x5 SHR ADD SWAP1 JUMPDEST DUP2 DUP2 LT PUSH2 0x2C60 JUMPI POP PUSH2 0x1A6D JUMP JUMPDEST PUSH0 DUP2 SSTORE DUP5 SWAP4 POP PUSH1 0x1 ADD PUSH2 0x2C53 JUMP JUMPDEST SWAP1 SWAP2 POP DUP2 SWAP1 PUSH2 0x2C45 JUMP JUMPDEST CALLVALUE PUSH2 0x20A JUMPI PUSH1 0x20 CALLDATASIZE PUSH1 0x3 NOT ADD SLT PUSH2 0x20A JUMPI PUSH1 0x4 CALLDATALOAD PUSH1 0x1 PUSH1 0x1 PUSH1 0x40 SHL SUB DUP2 GT PUSH2 0x20A JUMPI PUSH1 0x20 DUP1 PUSH2 0x2CAE PUSH2 0x2D03 SWAP4 CALLDATASIZE SWAP1 PUSH1 0x4 ADD PUSH2 0x3EB2 JUMP JUMPDEST PUSH1 0x40 MLOAD SWAP3 DUP2 DUP5 SWAP3 MLOAD SWAP2 DUP3 SWAP2 ADD DUP4 MCOPY DUP2 ADD PUSH1 0x7 DUP2 MSTORE SUB ADD SWAP1 KECCAK256 PUSH2 0x3D2 PUSH2 0x2CD2 DUP3 PUSH2 0x4004 JUMP JUMPDEST SWAP2 PUSH2 0x2D11 PUSH2 0x2CEE PUSH1 0x2 PUSH2 0x2CE7 PUSH1 0x1 DUP6 ADD PUSH2 0x4004 JUMP JUMPDEST SWAP4 ADD PUSH2 0x4004 JUMP JUMPDEST SWAP2 PUSH1 0x40 MLOAD SWAP6 DUP7 SWAP6 PUSH1 0x60 DUP8 MSTORE PUSH1 0x60 DUP8 ADD SWAP1 PUSH2 0x3F07 JUMP JUMPDEST SWAP1 DUP6 DUP3 SUB PUSH1 0x20 DUP8 ADD MSTORE PUSH2 0x3F07 JUMP JUMPDEST SWAP1 DUP4 DUP3 SUB PUSH1 0x40 DUP6 ADD MSTORE PUSH2 0x3F07 JUMP JUMPDEST CALLVALUE PUSH2 0x20A JUMPI PUSH1 0x20 CALLDATASIZE PUSH1 0x3 NOT ADD SLT PUSH2 0x20A JUMPI PUSH1 0x4 CALLDATALOAD PUSH1 0x1 PUSH1 0x1 PUSH1 0x40 SHL SUB DUP2 GT PUSH2 0x20A JUMPI PUSH2 0x2D4F SWAP1 CALLDATASIZE SWAP1 PUSH1 0x4 ADD PUSH2 0x3EB2 JUMP JUMPDEST PUSH1 0x40 MLOAD DUP2 DUP2 SWAP3 MLOAD PUSH1 0x20 DUP2 SWAP3 ADD DUP4 MCOPY DUP2 ADD PUSH1 0x6 DUP2 MSTORE SUB PUSH1 0x20 ADD SWAP1 KECCAK256 PUSH2 0x2D72 DUP2 PUSH2 0x4004 JUMP JUMPDEST PUSH2 0x2D7E PUSH1 0x1 DUP4 ADD PUSH2 0x4004 JUMP JUMPDEST SWAP2 PUSH2 0x2D8B PUSH1 0x2 DUP3 ADD PUSH2 0x4004 JUMP JUMPDEST SWAP1 PUSH2 0x2D98 PUSH1 0x3 DUP3 ADD PUSH2 0x4004 JUMP JUMPDEST PUSH2 0x2DA4 PUSH1 0x4 DUP4 ADD PUSH2 0x4004 JUMP JUMPDEST PUSH2 0x2DB0 PUSH1 0x5 DUP5 ADD PUSH2 0x4004 JUMP JUMPDEST SWAP2 PUSH2 0x2DBD PUSH1 0x6 DUP6 ADD PUSH2 0x4004 JUMP JUMPDEST SWAP4 PUSH1 0x7 ADD PUSH2 0x2DCA SWAP1 PUSH2 0x4004 JUMP JUMPDEST SWAP5 PUSH1 0x40 MLOAD SWAP8 DUP9 SWAP8 PUSH2 0x100 DUP10 MSTORE PUSH2 0x100 DUP10 ADD PUSH2 0x2DE4 SWAP2 PUSH2 0x3F07 JUMP JUMPDEST DUP9 DUP2 SUB PUSH1 0x20 DUP11 ADD MSTORE PUSH2 0x2DF5 SWAP2 PUSH2 0x3F07 JUMP JUMPDEST DUP8 DUP2 SUB PUSH1 0x40 DUP10 ADD MSTORE PUSH2 0x2E06 SWAP2 PUSH2 0x3F07 JUMP JUMPDEST DUP7 DUP2 SUB PUSH1 0x60 DUP9 ADD MSTORE PUSH2 0x2E17 SWAP2 PUSH2 0x3F07 JUMP JUMPDEST DUP6 DUP2 SUB PUSH1 0x80 DUP8 ADD MSTORE PUSH2 0x2E28 SWAP2 PUSH2 0x3F07 JUMP JUMPDEST DUP5 DUP2 SUB PUSH1 0xA0 DUP7 ADD MSTORE PUSH2 0x2E39 SWAP2 PUSH2 0x3F07 JUMP JUMPDEST DUP4 DUP2 SUB PUSH1 0xC0 DUP6 ADD MSTORE PUSH2 0x2E4A SWAP2 PUSH2 0x3F07 JUMP JUMPDEST DUP3 DUP2 SUB PUSH1 0xE0 DUP5 ADD MSTORE PUSH2 0x3D2 SWAP2 PUSH2 0x3F07 JUMP JUMPDEST CALLVALUE PUSH2 0x20A JUMPI PUSH1 0x20 CALLDATASIZE PUSH1 0x3 NOT ADD SLT PUSH2 0x20A JUMPI PUSH1 0x4 CALLDATALOAD PUSH1 0x3 SLOAD DUP2 LT ISZERO PUSH2 0x20A JUMPI PUSH2 0x2E85 PUSH2 0x2EE2 SWAP2 PUSH2 0x40F0 JUMP JUMPDEST POP PUSH2 0x2E8F DUP2 PUSH2 0x4004 JUMP JUMPDEST SWAP1 PUSH2 0x2F25 PUSH2 0x2E9F PUSH1 0x1 DUP4 ADD PUSH2 0x4004 JUMP JUMPDEST SWAP2 PUSH2 0x2EAC PUSH1 0x2 DUP3 ADD PUSH2 0x4004 JUMP JUMPDEST SWAP1 PUSH2 0x2F18 PUSH2 0x2EFE PUSH1 0x3 DUP4 ADD SLOAD SWAP4 PUSH2 0x2EF0 PUSH1 0x5 PUSH2 0x2ECA PUSH1 0x4 DUP8 ADD PUSH2 0x4004 JUMP JUMPDEST SWAP6 ADD SLOAD SWAP8 PUSH1 0x40 MLOAD SWAP11 DUP12 SWAP11 PUSH1 0xE0 DUP13 MSTORE PUSH1 0xE0 DUP13 ADD SWAP1 PUSH2 0x3F07 JUMP JUMPDEST SWAP1 DUP11 DUP3 SUB PUSH1 0x20 DUP13 ADD MSTORE PUSH2 0x3F07 JUMP JUMPDEST SWAP1 DUP9 DUP3 SUB PUSH1 0x40 DUP11 ADD MSTORE PUSH2 0x3F07 JUMP JUMPDEST SWAP3 PUSH1 0xFF DUP2 AND PUSH1 0x60 DUP9 ADD MSTORE PUSH1 0xFF PUSH1 0x80 DUP9 ADD SWAP2 PUSH1 0x8 SHR AND PUSH2 0x40E3 JUMP JUMPDEST DUP5 DUP3 SUB PUSH1 0xA0 DUP7 ADD MSTORE PUSH2 0x3F07 JUMP JUMPDEST SWAP1 PUSH1 0xC0 DUP4 ADD MSTORE SUB SWAP1 RETURN JUMPDEST CALLVALUE PUSH2 0x20A JUMPI PUSH1 0x20 CALLDATASIZE PUSH1 0x3 NOT ADD SLT PUSH2 0x20A JUMPI PUSH1 0x4 CALLDATALOAD PUSH1 0x1 PUSH1 0x1 PUSH1 0x40 SHL SUB DUP2 GT PUSH2 0x20A JUMPI PUSH2 0x2F62 PUSH2 0x208 SWAP2 CALLDATASIZE SWAP1 PUSH1 0x4 ADD PUSH2 0x3EB2 JUMP JUMPDEST PUSH2 0x4634 JUMP JUMPDEST CALLVALUE PUSH2 0x20A JUMPI PUSH1 0x20 CALLDATASIZE PUSH1 0x3 NOT ADD SLT PUSH2 0x20A JUMPI PUSH1 0x4 CALLDATALOAD PUSH1 0x1 PUSH1 0x1 PUSH1 0x40 SHL SUB DUP2 GT PUSH2 0x20A JUMPI PUSH2 0x2F97 SWAP1 CALLDATASIZE SWAP1 PUSH1 0x4 ADD PUSH2 0x3EB2 JUMP JUMPDEST PUSH1 0x40 MLOAD DUP2 DUP2 SWAP3 MLOAD PUSH1 0x20 DUP2 SWAP3 ADD DUP4 MCOPY DUP2 ADD PUSH0 DUP2 MSTORE SUB PUSH1 0x20 ADD SWAP1 KECCAK256 DUP1 SLOAD PUSH1 0xFF AND PUSH1 0x1 DUP3 ADD SLOAD SWAP2 PUSH1 0x2 DUP2 ADD SLOAD SWAP1 PUSH1 0x3 DUP2 ADD SLOAD PUSH1 0x4 DUP3 ADD SLOAD PUSH1 0x5 DUP4 ADD SLOAD PUSH1 0x6 DUP5 ADD SLOAD PUSH1 0x7 DUP6 ADD SLOAD SWAP1 PUSH1 0x8 DUP7 ADD SLOAD SWAP3 PUSH1 0x9 DUP8 ADD SLOAD SWAP5 PUSH1 0xA DUP9 ADD PUSH2 0x2FF4 SWAP1 PUSH2 0x40A4 JUMP JUMPDEST SWAP7 PUSH2 0x3001 PUSH1 0xD DUP11 ADD PUSH2 0x40A4 JUMP JUMPDEST SWAP9 PUSH1 0x10 ADD PUSH2 0x300E SWAP1 PUSH2 0x4004 JUMP JUMPDEST SWAP10 PUSH1 0x40 MLOAD SWAP13 PUSH2 0x301E DUP15 DUP1 SWAP15 PUSH2 0x40E3 JUMP JUMPDEST PUSH1 0x20 DUP14 ADD MSTORE PUSH1 0x40 DUP13 ADD MSTORE PUSH1 0x60 DUP12 ADD MSTORE PUSH1 0x80 DUP11 ADD MSTORE PUSH1 0xA0 DUP10 ADD MSTORE PUSH1 0xC0 DUP9 ADD MSTORE PUSH1 0xE0 DUP8 ADD MSTORE PUSH2 0x100 DUP7 ADD MSTORE PUSH2 0x120 DUP6 ADD MSTORE PUSH2 0x140 DUP5 ADD PUSH2 0x1A0 SWAP1 MSTORE PUSH2 0x1A0 DUP5 ADD PUSH2 0x3065 SWAP2 PUSH2 0x3F2B JUMP JUMPDEST DUP4 DUP2 SUB PUSH2 0x160 DUP6 ADD MSTORE PUSH2 0x3077 SWAP2 PUSH2 0x3F2B JUMP JUMPDEST DUP3 DUP2 SUB PUSH2 0x180 DUP5 ADD MSTORE PUSH2 0x3D2 SWAP2 PUSH2 0x3F07 JUMP JUMPDEST CALLVALUE PUSH2 0x20A JUMPI PUSH1 0x60 CALLDATASIZE PUSH1 0x3 NOT ADD SLT PUSH2 0x20A JUMPI PUSH1 0x4 CALLDATALOAD PUSH1 0x1 PUSH1 0x1 PUSH1 0x40 SHL SUB DUP2 GT PUSH2 0x20A JUMPI PUSH2 0x30B9 SWAP1 CALLDATASIZE SWAP1 PUSH1 0x4 ADD PUSH2 0x3EB2 JUMP JUMPDEST PUSH1 0x24 CALLDATALOAD PUSH1 0x1 PUSH1 0x1 PUSH1 0x40 SHL SUB DUP2 GT PUSH2 0x20A JUMPI PUSH2 0x30D8 SWAP1 CALLDATASIZE SWAP1 PUSH1 0x4 ADD PUSH2 0x3EB2 JUMP JUMPDEST SWAP1 PUSH1 0x44 CALLDATALOAD PUSH1 0x1 PUSH1 0x1 PUSH1 0xA0 SHL SUB DUP2 AND DUP2 SUB PUSH2 0x20A JUMPI PUSH2 0x3D2 SWAP3 PUSH2 0x30F9 SWAP3 PUSH2 0x4604 JUMP JUMPDEST PUSH1 0x40 MLOAD SWAP2 DUP3 SWAP2 PUSH1 0x20 DUP4 MSTORE PUSH1 0x20 DUP4 ADD SWAP1 PUSH2 0x3F2B JUMP JUMPDEST CALLVALUE PUSH2 0x20A JUMPI PUSH1 0xC0 CALLDATASIZE PUSH1 0x3 NOT ADD SLT PUSH2 0x20A JUMPI PUSH1 0x4 CALLDATALOAD PUSH1 0x1 PUSH1 0x1 PUSH1 0x40 SHL SUB DUP2 GT PUSH2 0x20A JUMPI PUSH2 0x313D SWAP1 CALLDATASIZE SWAP1 PUSH1 0x4 ADD PUSH2 0x3EB2 JUMP JUMPDEST PUSH1 0x24 CALLDATALOAD PUSH1 0x1 PUSH1 0x1 PUSH1 0x40 SHL SUB DUP2 GT PUSH2 0x20A JUMPI PUSH2 0x315C SWAP1 CALLDATASIZE SWAP1 PUSH1 0x4 ADD PUSH2 0x3EB2 JUMP JUMPDEST PUSH1 0x44 CALLDATALOAD PUSH1 0x1 PUSH1 0x1 PUSH1 0x40 SHL SUB DUP2 GT PUSH2 0x20A JUMPI PUSH2 0x317B SWAP1 CALLDATASIZE SWAP1 PUSH1 0x4 ADD PUSH2 0x3EB2 JUMP JUMPDEST PUSH1 0x64 CALLDATALOAD PUSH1 0x1 PUSH1 0x1 PUSH1 0x40 SHL SUB DUP2 GT PUSH2 0x20A JUMPI PUSH2 0x319A SWAP1 CALLDATASIZE SWAP1 PUSH1 0x4 ADD PUSH2 0x3EB2 JUMP JUMPDEST PUSH2 0x31A2 PUSH2 0x3F69 JUMP JUMPDEST PUSH1 0xA4 CALLDATALOAD SWAP2 PUSH1 0x1 PUSH1 0x1 PUSH1 0x40 SHL SUB DUP4 GT PUSH2 0x20A JUMPI PUSH2 0x31C5 PUSH2 0x31CB SWAP4 CALLDATASIZE SWAP1 PUSH1 0x4 ADD PUSH2 0x3EB2 JUMP JUMPDEST SWAP4 PUSH2 0x4604 JUMP JUMPDEST PUSH1 0x40 MLOAD SWAP1 PUSH1 0x1 DUP5 MLOAD SWAP3 PUSH1 0x20 DUP2 DUP2 DUP9 ADD SWAP6 DUP1 DUP8 DUP4 MCOPY DUP2 ADD PUSH1 0x4 DUP2 MSTORE SUB ADD SWAP1 KECCAK256 ADD DUP6 MLOAD PUSH1 0x1 PUSH1 0x1 PUSH1 0x40 SHL SUB DUP2 GT PUSH2 0x35E JUMPI PUSH2 0x3204 DUP3 SLOAD PUSH2 0x3FCC JUMP JUMPDEST PUSH1 0x1F DUP2 GT PUSH2 0x3576 JUMPI JUMPDEST POP PUSH1 0x20 PUSH1 0x1F DUP3 GT PUSH1 0x1 EQ PUSH2 0x350F JUMPI SWAP1 DUP1 PUSH2 0x3244 SWAP5 SWAP4 SWAP3 PUSH0 SWAP2 PUSH2 0x3504 JUMPI JUMPDEST POP DUP2 PUSH1 0x1 SHL SWAP2 PUSH0 NOT SWAP1 PUSH1 0x3 SHL SHR NOT AND OR SWAP1 SSTORE JUMPDEST DUP4 DUP6 PUSH2 0x4FC9 JUMP JUMPDEST PUSH1 0x3 SLOAD SWAP3 PUSH0 JUMPDEST DUP5 DUP2 LT PUSH2 0x3253 JUMPI STOP JUMPDEST PUSH2 0x325C DUP2 PUSH2 0x40F0 JUMP JUMPDEST POP PUSH1 0x40 MLOAD PUSH2 0x3272 DUP2 PUSH2 0x5BF PUSH1 0x20 DUP3 ADD DUP1 SWAP6 PUSH2 0x454C JUMP JUMPDEST MLOAD SWAP1 KECCAK256 PUSH1 0x40 MLOAD PUSH1 0x20 DUP2 ADD SWAP1 PUSH2 0x329F PUSH1 0x20 DUP3 DUP8 MLOAD DUP1 DUP11 DUP8 MCOPY DUP2 ADD PUSH0 DUP4 DUP3 ADD MSTORE SUB ADD PUSH1 0x1F NOT DUP2 ADD DUP4 MSTORE DUP3 PUSH2 0x3E91 JUMP JUMPDEST MLOAD SWAP1 KECCAK256 EQ PUSH2 0x32B0 JUMPI JUMPDEST PUSH1 0x1 ADD PUSH2 0x324A JUMP JUMPDEST PUSH1 0x1 PUSH2 0x32BB DUP3 PUSH2 0x40F0 JUMP JUMPDEST POP ADD DUP7 MLOAD PUSH1 0x1 PUSH1 0x1 PUSH1 0x40 SHL SUB DUP2 GT PUSH2 0x35E JUMPI PUSH2 0x32D7 DUP3 SLOAD PUSH2 0x3FCC JUMP JUMPDEST PUSH1 0x1F DUP2 GT PUSH2 0x34BF JUMPI JUMPDEST POP DUP1 PUSH1 0x20 PUSH1 0x1F DUP3 GT PUSH1 0x1 EQ PUSH2 0x345C JUMPI PUSH0 SWAP2 PUSH2 0x3451 JUMPI JUMPDEST POP DUP2 PUSH1 0x1 SHL SWAP2 PUSH0 NOT SWAP1 PUSH1 0x3 SHL SHR NOT AND OR SWAP1 SSTORE JUMPDEST PUSH1 0x3 PUSH2 0x3314 DUP3 PUSH2 0x40F0 JUMP JUMPDEST POP ADD DUP1 SLOAD PUSH2 0xFF00 NOT AND PUSH2 0x100 OR SWAP1 SSTORE PUSH1 0x4 PUSH2 0x332E DUP3 PUSH2 0x40F0 JUMP JUMPDEST POP ADD DUP5 MLOAD PUSH1 0x1 PUSH1 0x1 PUSH1 0x40 SHL SUB DUP2 GT PUSH2 0x35E JUMPI PUSH2 0x334A DUP3 SLOAD PUSH2 0x3FCC JUMP JUMPDEST PUSH1 0x1F DUP2 GT PUSH2 0x340C JUMPI JUMPDEST POP DUP1 PUSH1 0x20 PUSH1 0x1F DUP3 GT PUSH1 0x1 EQ PUSH2 0x33AB JUMPI PUSH0 SWAP2 PUSH2 0x33A0 JUMPI JUMPDEST POP DUP2 PUSH1 0x1 SHL SWAP2 PUSH0 NOT SWAP1 PUSH1 0x3 SHL SHR NOT AND OR SWAP1 SSTORE JUMPDEST PUSH1 0x82 TIMESTAMP ADD SWAP1 DUP2 TIMESTAMP GT PUSH2 0x372 JUMPI PUSH1 0x1 SWAP2 PUSH1 0x5 PUSH2 0x3396 DUP4 PUSH2 0x40F0 JUMP JUMPDEST POP ADD SSTORE SWAP1 POP PUSH2 0x32A8 JUMP JUMPDEST SWAP1 POP DUP7 ADD MLOAD DUP10 PUSH2 0x3369 JUMP JUMPDEST PUSH0 DUP5 DUP2 MSTORE DUP2 DUP2 KECCAK256 SWAP3 POP PUSH1 0x1F NOT DUP5 AND SWAP1 JUMPDEST DUP2 DUP2 LT PUSH2 0x33F4 JUMPI POP SWAP1 DUP4 PUSH1 0x1 SWAP5 SWAP4 SWAP3 LT PUSH2 0x33DC JUMPI JUMPDEST POP POP DUP2 SHL ADD SWAP1 SSTORE PUSH2 0x337C JUMP JUMPDEST DUP9 ADD MLOAD PUSH0 NOT PUSH1 0xF8 DUP5 PUSH1 0x3 SHL AND SHR NOT AND SWAP1 SSTORE DUP10 DUP1 PUSH2 0x33D0 JUMP JUMPDEST SWAP2 SWAP3 PUSH1 0x20 PUSH1 0x1 DUP2 SWAP3 DUP7 DUP14 ADD MLOAD DUP2 SSTORE ADD SWAP5 ADD SWAP3 ADD PUSH2 0x33BB JUMP JUMPDEST DUP3 PUSH0 MSTORE PUSH1 0x20 PUSH0 KECCAK256 PUSH1 0x1F DUP4 ADD PUSH1 0x5 SHR DUP2 ADD SWAP2 PUSH1 0x20 DUP5 LT PUSH2 0x3447 JUMPI JUMPDEST PUSH1 0x1F ADD PUSH1 0x5 SHR ADD SWAP1 JUMPDEST DUP2 DUP2 LT PUSH2 0x343C JUMPI POP PUSH2 0x3353 JUMP JUMPDEST PUSH0 DUP2 SSTORE PUSH1 0x1 ADD PUSH2 0x342F JUMP JUMPDEST SWAP1 SWAP2 POP DUP2 SWAP1 PUSH2 0x3426 JUMP JUMPDEST SWAP1 POP DUP9 ADD MLOAD DUP10 PUSH2 0x32F6 JUMP JUMPDEST PUSH0 DUP5 DUP2 MSTORE DUP2 DUP2 KECCAK256 SWAP3 POP PUSH1 0x1F NOT DUP5 AND SWAP1 JUMPDEST DUP12 DUP3 DUP3 LT PUSH2 0x34A7 JUMPI POP POP SWAP1 DUP4 PUSH1 0x1 SWAP5 SWAP4 SWAP3 LT PUSH2 0x348F JUMPI JUMPDEST POP POP DUP2 SHL ADD SWAP1 SSTORE PUSH2 0x3309 JUMP JUMPDEST DUP11 ADD MLOAD PUSH0 NOT PUSH1 0xF8 DUP5 PUSH1 0x3 SHL AND SHR NOT AND SWAP1 SSTORE DUP10 DUP1 PUSH2 0x3483 JUMP JUMPDEST PUSH1 0x1 DUP5 SWAP6 PUSH1 0x20 SWAP4 SWAP6 DUP5 SWAP4 ADD MLOAD DUP2 SSTORE ADD SWAP5 ADD SWAP3 ADD PUSH2 0x346C JUMP JUMPDEST DUP3 PUSH0 MSTORE PUSH1 0x20 PUSH0 KECCAK256 PUSH1 0x1F DUP4 ADD PUSH1 0x5 SHR DUP2 ADD SWAP2 PUSH1 0x20 DUP5 LT PUSH2 0x34FA JUMPI JUMPDEST PUSH1 0x1F ADD PUSH1 0x5 SHR ADD SWAP1 JUMPDEST DUP2 DUP2 LT PUSH2 0x34EF JUMPI POP PUSH2 0x32E0 JUMP JUMPDEST PUSH0 DUP2 SSTORE PUSH1 0x1 ADD PUSH2 0x34E2 JUMP JUMPDEST SWAP1 SWAP2 POP DUP2 SWAP1 PUSH2 0x34D9 JUMP JUMPDEST SWAP1 POP DUP9 ADD MLOAD DUP10 PUSH2 0x322A JUMP JUMPDEST PUSH1 0x1F NOT DUP3 AND SWAP1 DUP4 PUSH0 MSTORE DUP1 PUSH0 KECCAK256 SWAP2 PUSH0 JUMPDEST DUP11 DUP3 DUP3 LT PUSH2 0x355E JUMPI POP POP SWAP2 DUP4 SWAP2 PUSH2 0x3244 SWAP7 SWAP6 SWAP5 PUSH1 0x1 SWAP5 LT PUSH2 0x3546 JUMPI JUMPDEST POP POP DUP2 SHL ADD SWAP1 SSTORE PUSH2 0x323D JUMP JUMPDEST DUP11 ADD MLOAD PUSH0 NOT PUSH1 0xF8 DUP5 PUSH1 0x3 SHL AND SHR NOT AND SWAP1 SSTORE DUP10 DUP1 PUSH2 0x353A JUMP JUMPDEST PUSH1 0x1 DUP5 SWAP6 PUSH1 0x20 SWAP4 SWAP6 DUP5 SWAP4 ADD MLOAD DUP2 SSTORE ADD SWAP5 ADD SWAP3 ADD PUSH2 0x351E JUMP JUMPDEST DUP3 PUSH0 MSTORE PUSH1 0x20 PUSH0 KECCAK256 PUSH1 0x1F DUP4 ADD PUSH1 0x5 SHR DUP2 ADD SWAP2 PUSH1 0x20 DUP5 LT PUSH2 0x35B1 JUMPI JUMPDEST PUSH1 0x1F ADD PUSH1 0x5 SHR ADD SWAP1 JUMPDEST DUP2 DUP2 LT PUSH2 0x35A6 JUMPI POP PUSH2 0x320D JUMP JUMPDEST PUSH0 DUP2 SSTORE PUSH1 0x1 ADD PUSH2 0x3599 JUMP JUMPDEST SWAP1 SWAP2 POP DUP2 SWAP1 PUSH2 0x3590 JUMP JUMPDEST CALLVALUE PUSH2 0x20A JUMPI PUSH1 0x20 CALLDATASIZE PUSH1 0x3 NOT ADD SLT PUSH2 0x20A JUMPI PUSH1 0x4 CALLDATALOAD PUSH1 0x1 PUSH1 0x1 PUSH1 0x40 SHL SUB DUP2 GT PUSH2 0x20A JUMPI PUSH2 0x35EB SWAP1 CALLDATASIZE SWAP1 PUSH1 0x4 ADD PUSH2 0x3EB2 JUMP JUMPDEST PUSH2 0x35F4 DUP2 PUSH2 0x4634 JUMP JUMPDEST PUSH1 0x3 SLOAD PUSH1 0x20 DUP3 ADD PUSH0 JUMPDEST DUP3 DUP2 LT PUSH2 0x3606 JUMPI STOP JUMPDEST DUP1 PUSH2 0x3612 PUSH1 0x1 SWAP3 PUSH2 0x40F0 JUMP JUMPDEST POP PUSH1 0x40 MLOAD PUSH2 0x3628 DUP2 PUSH2 0x5BF PUSH1 0x20 DUP3 ADD DUP1 SWAP6 PUSH2 0x454C JUMP JUMPDEST MLOAD SWAP1 KECCAK256 PUSH1 0x40 MLOAD PUSH1 0x20 DUP2 ADD SWAP1 PUSH2 0x3655 PUSH1 0x20 DUP3 DUP11 MLOAD DUP1 DUP11 DUP8 MCOPY DUP2 ADD PUSH0 DUP4 DUP3 ADD MSTORE SUB ADD PUSH1 0x1F NOT DUP2 ADD DUP4 MSTORE DUP3 PUSH2 0x3E91 JUMP JUMPDEST MLOAD SWAP1 KECCAK256 EQ PUSH2 0x3664 JUMPI JUMPDEST ADD PUSH2 0x35FD JUMP JUMPDEST PUSH1 0x3 PUSH2 0x366F DUP3 PUSH2 0x40F0 JUMP JUMPDEST POP ADD DUP1 SLOAD PUSH2 0xFF00 NOT AND PUSH2 0x800 OR SWAP1 SSTORE PUSH2 0x365E JUMP JUMPDEST CALLVALUE PUSH2 0x20A JUMPI PUSH1 0x20 CALLDATASIZE PUSH1 0x3 NOT ADD SLT PUSH2 0x20A JUMPI PUSH1 0x4 CALLDATALOAD PUSH1 0x1 PUSH1 0x1 PUSH1 0x40 SHL SUB DUP2 GT PUSH2 0x20A JUMPI PUSH2 0x4B0 PUSH1 0x20 DUP1 PUSH2 0x36BC PUSH2 0x3D2 SWAP5 CALLDATASIZE SWAP1 PUSH1 0x4 ADD PUSH2 0x3EB2 JUMP JUMPDEST PUSH1 0x40 MLOAD SWAP3 DUP2 DUP5 SWAP3 MLOAD SWAP2 DUP3 SWAP2 ADD DUP4 MCOPY DUP2 ADD PUSH1 0x2 DUP2 MSTORE SUB ADD SWAP1 KECCAK256 PUSH2 0x4004 JUMP JUMPDEST CALLVALUE PUSH2 0x20A JUMPI PUSH2 0x36F2 PUSH2 0x36EA CALLDATASIZE PUSH2 0x3F7F JUMP JUMPDEST DUP2 SWAP3 SWAP2 PUSH2 0x499E JUMP JUMPDEST PUSH1 0x3 SLOAD PUSH1 0x20 DUP3 ADD PUSH0 JUMPDEST DUP3 DUP2 LT PUSH2 0x3704 JUMPI STOP JUMPDEST DUP1 PUSH2 0x3710 PUSH1 0x1 SWAP3 PUSH2 0x40F0 JUMP JUMPDEST POP PUSH1 0x40 MLOAD PUSH2 0x3726 DUP2 PUSH2 0x5BF PUSH1 0x20 DUP3 ADD DUP1 SWAP6 PUSH2 0x454C JUMP JUMPDEST MLOAD SWAP1 KECCAK256 PUSH1 0x40 MLOAD PUSH1 0x20 DUP2 ADD SWAP1 PUSH2 0x3753 PUSH1 0x20 DUP3 DUP11 MLOAD DUP1 DUP11 DUP8 MCOPY DUP2 ADD PUSH0 DUP4 DUP3 ADD MSTORE SUB ADD PUSH1 0x1F NOT DUP2 ADD DUP4 MSTORE DUP3 PUSH2 0x3E91 JUMP JUMPDEST MLOAD SWAP1 KECCAK256 EQ PUSH2 0x3762 JUMPI JUMPDEST ADD PUSH2 0x36FB JUMP JUMPDEST PUSH1 0x3 PUSH2 0x376D DUP3 PUSH2 0x40F0 JUMP JUMPDEST POP ADD DUP1 SLOAD PUSH2 0xFF00 NOT AND PUSH2 0x700 OR SWAP1 SSTORE PUSH2 0x375C JUMP JUMPDEST CALLVALUE PUSH2 0x20A JUMPI PUSH1 0xA0 CALLDATASIZE PUSH1 0x3 NOT ADD SLT PUSH2 0x20A JUMPI PUSH1 0x4 CALLDATALOAD PUSH1 0x1 PUSH1 0x1 PUSH1 0x40 SHL SUB DUP2 GT PUSH2 0x20A JUMPI PUSH2 0x37B1 SWAP1 CALLDATASIZE SWAP1 PUSH1 0x4 ADD PUSH2 0x3EB2 JUMP JUMPDEST PUSH1 0x24 CALLDATALOAD PUSH1 0x1 PUSH1 0x1 PUSH1 0x40 SHL SUB DUP2 GT PUSH2 0x20A JUMPI PUSH2 0x37D0 SWAP1 CALLDATASIZE SWAP1 PUSH1 0x4 ADD PUSH2 0x3EB2 JUMP JUMPDEST PUSH1 0x44 CALLDATALOAD PUSH1 0x1 PUSH1 0x1 PUSH1 0x40 SHL SUB DUP2 GT PUSH2 0x20A JUMPI PUSH2 0x37EF SWAP1 CALLDATASIZE SWAP1 PUSH1 0x4 ADD PUSH2 0x3EB2 JUMP JUMPDEST SWAP1 PUSH1 0x64 CALLDATALOAD PUSH1 0x1 PUSH1 0x1 PUSH1 0x40 SHL SUB DUP2 GT PUSH2 0x20A JUMPI PUSH2 0x382B SWAP3 PUSH2 0x3816 PUSH2 0x3824 SWAP3 CALLDATASIZE SWAP1 PUSH1 0x4 ADD PUSH2 0x3EB2 JUMP JUMPDEST PUSH2 0x381E PUSH2 0x3F69 JUMP JUMPDEST SWAP2 PUSH2 0x4604 JUMP JUMPDEST SWAP1 DUP4 PUSH2 0x4C2C JUMP JUMPDEST PUSH1 0x3 SLOAD PUSH1 0x20 DUP3 ADD PUSH0 JUMPDEST DUP3 DUP2 LT PUSH2 0x383D JUMPI STOP JUMPDEST DUP1 PUSH2 0x3849 PUSH1 0x1 SWAP3 PUSH2 0x40F0 JUMP JUMPDEST POP PUSH1 0x40 MLOAD PUSH2 0x385F DUP2 PUSH2 0x5BF PUSH1 0x20 DUP3 ADD DUP1 SWAP6 PUSH2 0x454C JUMP JUMPDEST MLOAD SWAP1 KECCAK256 PUSH1 0x40 MLOAD PUSH1 0x20 DUP2 ADD SWAP1 PUSH2 0x388C PUSH1 0x20 DUP3 DUP11 MLOAD DUP1 DUP11 DUP8 MCOPY DUP2 ADD PUSH0 DUP4 DUP3 ADD MSTORE SUB ADD PUSH1 0x1F NOT DUP2 ADD DUP4 MSTORE DUP3 PUSH2 0x3E91 JUMP JUMPDEST MLOAD SWAP1 KECCAK256 EQ PUSH2 0x389B JUMPI JUMPDEST ADD PUSH2 0x3834 JUMP JUMPDEST PUSH1 0x3 PUSH2 0x38A6 DUP3 PUSH2 0x40F0 JUMP JUMPDEST POP ADD DUP1 SLOAD PUSH2 0xFF00 NOT AND PUSH2 0x200 OR SWAP1 SSTORE PUSH2 0x3895 JUMP JUMPDEST CALLVALUE PUSH2 0x20A JUMPI PUSH1 0x20 CALLDATASIZE PUSH1 0x3 NOT ADD SLT PUSH2 0x20A JUMPI PUSH1 0x4 CALLDATALOAD PUSH1 0x1 PUSH1 0x1 PUSH1 0x40 SHL SUB DUP2 GT PUSH2 0x20A JUMPI PUSH2 0x38ED PUSH2 0x208 SWAP2 CALLDATASIZE SWAP1 PUSH1 0x4 ADD PUSH2 0x3EB2 JUMP JUMPDEST PUSH2 0x45D6 JUMP JUMPDEST CALLVALUE PUSH2 0x20A JUMPI PUSH1 0x20 CALLDATASIZE PUSH1 0x3 NOT ADD SLT PUSH2 0x20A JUMPI PUSH1 0x4 CALLDATALOAD PUSH1 0x1 PUSH1 0x1 PUSH1 0x40 SHL SUB DUP2 GT PUSH2 0x20A JUMPI PUSH2 0x30F9 PUSH1 0xA PUSH1 0x20 DUP1 PUSH2 0x392D PUSH2 0x3D2 SWAP6 CALLDATASIZE SWAP1 PUSH1 0x4 ADD PUSH2 0x3EB2 JUMP JUMPDEST PUSH2 0x3935 PUSH2 0x45B6 JUMP JUMPDEST POP PUSH1 0x40 MLOAD SWAP3 DUP2 DUP5 SWAP3 MLOAD SWAP2 DUP3 SWAP2 ADD DUP4 MCOPY DUP2 ADD PUSH0 DUP2 MSTORE SUB ADD SWAP1 KECCAK256 ADD PUSH2 0x40A4 JUMP JUMPDEST CALLVALUE PUSH2 0x20A JUMPI PUSH1 0x60 CALLDATASIZE PUSH1 0x3 NOT ADD SLT PUSH2 0x20A JUMPI PUSH1 0x4 CALLDATALOAD PUSH1 0x1 PUSH1 0x1 PUSH1 0x40 SHL SUB DUP2 GT PUSH2 0x20A JUMPI PUSH2 0x3983 SWAP1 CALLDATASIZE SWAP1 PUSH1 0x4 ADD PUSH2 0x3EB2 JUMP JUMPDEST PUSH1 0x44 CALLDATALOAD SWAP1 PUSH1 0x1 PUSH1 0x1 PUSH1 0x40 SHL SUB DUP3 GT PUSH2 0x20A JUMPI PUSH1 0x60 PUSH1 0x3 NOT DUP4 CALLDATASIZE SUB ADD SLT PUSH2 0x20A JUMPI PUSH1 0x40 MLOAD SWAP2 PUSH2 0x39B0 DUP4 PUSH2 0x3E08 JUMP JUMPDEST DUP1 PUSH1 0x4 ADD CALLDATALOAD PUSH1 0x1 PUSH1 0x1 PUSH1 0x40 SHL SUB DUP2 GT PUSH2 0x20A JUMPI PUSH2 0x39D3 SWAP1 PUSH1 0x4 CALLDATASIZE SWAP2 DUP5 ADD ADD PUSH2 0x3EB2 JUMP JUMPDEST DUP4 MSTORE PUSH1 0x24 DUP2 ADD CALLDATALOAD PUSH1 0x1 PUSH1 0x1 PUSH1 0x40 SHL SUB DUP2 GT PUSH2 0x20A JUMPI PUSH2 0x39F8 SWAP1 PUSH1 0x4 CALLDATASIZE SWAP2 DUP5 ADD ADD PUSH2 0x3EB2 JUMP JUMPDEST SWAP1 PUSH1 0x20 DUP5 ADD SWAP2 DUP3 MSTORE PUSH1 0x44 DUP2 ADD CALLDATALOAD SWAP1 PUSH1 0x1 PUSH1 0x1 PUSH1 0x40 SHL SUB DUP3 GT PUSH2 0x20A JUMPI PUSH1 0x4 PUSH2 0x3A23 SWAP3 CALLDATASIZE SWAP3 ADD ADD PUSH2 0x3EB2 JUMP JUMPDEST SWAP3 PUSH1 0x40 DUP2 ADD SWAP4 DUP5 MSTORE PUSH2 0x3A37 PUSH1 0x24 CALLDATALOAD DUP5 PUSH2 0x47E3 JUMP JUMPDEST PUSH1 0x40 MLOAD SWAP2 DUP4 MLOAD SWAP3 PUSH1 0x20 DUP2 DUP2 DUP8 ADD SWAP6 DUP1 DUP8 DUP4 MCOPY DUP2 ADD PUSH1 0x7 DUP2 MSTORE SUB ADD SWAP1 KECCAK256 SWAP2 MLOAD DUP1 MLOAD SWAP1 PUSH1 0x1 PUSH1 0x1 PUSH1 0x40 SHL SUB DUP3 GT PUSH2 0x35E JUMPI DUP2 SWAP1 PUSH2 0x3A72 DUP6 SLOAD PUSH2 0x3FCC JUMP JUMPDEST PUSH1 0x1F DUP2 GT PUSH2 0x3DB8 JUMPI JUMPDEST POP PUSH1 0x20 SWAP1 PUSH1 0x1F DUP4 GT PUSH1 0x1 EQ PUSH2 0x3D55 JUMPI PUSH0 SWAP3 PUSH2 0x3D4A JUMPI JUMPDEST POP POP DUP2 PUSH1 0x1 SHL SWAP2 PUSH0 NOT SWAP1 PUSH1 0x3 SHL SHR NOT AND OR DUP3 SSTORE JUMPDEST MLOAD DUP1 MLOAD PUSH1 0x1 DUP4 ADD SWAP2 PUSH1 0x1 PUSH1 0x1 PUSH1 0x40 SHL SUB DUP3 GT PUSH2 0x35E JUMPI PUSH2 0x3AC5 DUP4 SLOAD PUSH2 0x3FCC JUMP JUMPDEST PUSH1 0x1F DUP2 GT PUSH2 0x3D05 JUMPI JUMPDEST POP PUSH1 0x20 SWAP1 PUSH1 0x1F DUP4 GT PUSH1 0x1 EQ PUSH2 0x3C9E JUMPI PUSH1 0x2 SWAP5 SWAP4 SWAP3 SWAP2 PUSH0 SWAP2 DUP4 PUSH2 0x3C93 JUMPI JUMPDEST POP POP DUP2 PUSH1 0x1 SHL SWAP2 PUSH0 NOT SWAP1 PUSH1 0x3 SHL SHR NOT AND OR SWAP1 SSTORE JUMPDEST ADD SWAP3 MLOAD SWAP3 DUP4 MLOAD PUSH1 0x1 PUSH1 0x1 PUSH1 0x40 SHL SUB DUP2 GT PUSH2 0x35E JUMPI PUSH2 0x3B1D DUP3 SLOAD PUSH2 0x3FCC JUMP JUMPDEST PUSH1 0x1F DUP2 GT PUSH2 0x3C4E JUMPI JUMPDEST POP PUSH1 0x20 SWAP5 PUSH1 0x1F DUP3 GT PUSH1 0x1 EQ PUSH2 0x3BED JUMPI SWAP5 DUP2 SWAP3 SWAP4 SWAP5 SWAP6 PUSH0 SWAP3 PUSH2 0x3BE2 JUMPI JUMPDEST POP POP DUP2 PUSH1 0x1 SHL SWAP2 PUSH0 NOT SWAP1 PUSH1 0x3 SHL SHR NOT AND OR SWAP1 SSTORE JUMPDEST PUSH1 0x3 SLOAD SWAP1 PUSH0 JUMPDEST DUP3 DUP2 LT PUSH2 0x3B65 JUMPI STOP JUMPDEST DUP1 PUSH2 0x3B71 PUSH1 0x1 SWAP3 PUSH2 0x40F0 JUMP JUMPDEST POP PUSH1 0x40 MLOAD PUSH2 0x3B87 DUP2 PUSH2 0x5BF PUSH1 0x20 DUP3 ADD DUP1 SWAP6 PUSH2 0x454C JUMP JUMPDEST MLOAD SWAP1 KECCAK256 PUSH1 0x40 MLOAD PUSH1 0x20 DUP2 ADD SWAP1 PUSH2 0x3BB4 PUSH1 0x20 DUP3 DUP11 MLOAD DUP1 DUP11 DUP8 MCOPY DUP2 ADD PUSH0 DUP4 DUP3 ADD MSTORE SUB ADD PUSH1 0x1F NOT DUP2 ADD DUP4 MSTORE DUP3 PUSH2 0x3E91 JUMP JUMPDEST MLOAD SWAP1 KECCAK256 EQ PUSH2 0x3BC3 JUMPI JUMPDEST ADD PUSH2 0x3B5C JUMP JUMPDEST PUSH1 0x3 PUSH2 0x3BCE DUP3 PUSH2 0x40F0 JUMP JUMPDEST POP ADD DUP1 SLOAD PUSH2 0xFF00 NOT AND PUSH2 0x500 OR SWAP1 SSTORE PUSH2 0x3BBD JUMP JUMPDEST ADD MLOAD SWAP1 POP DUP6 DUP1 PUSH2 0x3B42 JUMP JUMPDEST PUSH1 0x1F NOT DUP3 AND SWAP6 DUP4 PUSH0 MSTORE DUP1 PUSH0 KECCAK256 SWAP2 PUSH0 JUMPDEST DUP9 DUP2 LT PUSH2 0x3C36 JUMPI POP DUP4 PUSH1 0x1 SWAP6 SWAP7 SWAP8 SWAP9 LT PUSH2 0x3C1E JUMPI JUMPDEST POP POP POP DUP2 SHL ADD SWAP1 SSTORE PUSH2 0x3B56 JUMP JUMPDEST ADD MLOAD PUSH0 NOT PUSH1 0xF8 DUP5 PUSH1 0x3 SHL AND SHR NOT AND SWAP1 SSTORE DUP6 DUP1 DUP1 PUSH2 0x3C11 JUMP JUMPDEST SWAP2 SWAP3 PUSH1 0x20 PUSH1 0x1 DUP2 SWAP3 DUP7 DUP6 ADD MLOAD DUP2 SSTORE ADD SWAP5 ADD SWAP3 ADD PUSH2 0x3BFC JUMP JUMPDEST DUP3 PUSH0 MSTORE PUSH1 0x20 PUSH0 KECCAK256 PUSH1 0x1F DUP4 ADD PUSH1 0x5 SHR DUP2 ADD SWAP2 PUSH1 0x20 DUP5 LT PUSH2 0x3C89 JUMPI JUMPDEST PUSH1 0x1F ADD PUSH1 0x5 SHR ADD SWAP1 JUMPDEST DUP2 DUP2 LT PUSH2 0x3C7E JUMPI POP PUSH2 0x3B26 JUMP JUMPDEST PUSH0 DUP2 SSTORE PUSH1 0x1 ADD PUSH2 0x3C71 JUMP JUMPDEST SWAP1 SWAP2 POP DUP2 SWAP1 PUSH2 0x3C68 JUMP JUMPDEST ADD MLOAD SWAP1 POP DUP9 DUP1 PUSH2 0x3AEB JUMP JUMPDEST SWAP1 PUSH1 0x1F NOT DUP4 AND SWAP2 DUP5 PUSH0 MSTORE DUP2 PUSH0 KECCAK256 SWAP3 PUSH0 JUMPDEST DUP2 DUP2 LT PUSH2 0x3CED JUMPI POP SWAP2 PUSH1 0x1 SWAP4 SWAP2 DUP6 PUSH1 0x2 SWAP9 SWAP8 SWAP7 SWAP5 LT PUSH2 0x3CD5 JUMPI JUMPDEST POP POP POP DUP2 SHL ADD SWAP1 SSTORE PUSH2 0x3AFF JUMP JUMPDEST ADD MLOAD PUSH0 NOT PUSH1 0xF8 DUP5 PUSH1 0x3 SHL AND SHR NOT AND SWAP1 SSTORE DUP9 DUP1 DUP1 PUSH2 0x3CC8 JUMP JUMPDEST SWAP3 SWAP4 PUSH1 0x20 PUSH1 0x1 DUP2 SWAP3 DUP8 DUP7 ADD MLOAD DUP2 SSTORE ADD SWAP6 ADD SWAP4 ADD PUSH2 0x3CAE JUMP JUMPDEST DUP4 PUSH0 MSTORE PUSH1 0x20 PUSH0 KECCAK256 PUSH1 0x1F DUP5 ADD PUSH1 0x5 SHR DUP2 ADD SWAP2 PUSH1 0x20 DUP6 LT PUSH2 0x3D40 JUMPI JUMPDEST PUSH1 0x1F ADD PUSH1 0x5 SHR ADD SWAP1 JUMPDEST DUP2 DUP2 LT PUSH2 0x3D35 JUMPI POP PUSH2 0x3ACE JUMP JUMPDEST PUSH0 DUP2 SSTORE PUSH1 0x1 ADD PUSH2 0x3D28 JUMP JUMPDEST SWAP1 SWAP2 POP DUP2 SWAP1 PUSH2 0x3D1F JUMP JUMPDEST ADD MLOAD SWAP1 POP DUP8 DUP1 PUSH2 0x3A91 JUMP JUMPDEST PUSH0 DUP7 DUP2 MSTORE DUP3 DUP2 KECCAK256 SWAP4 POP PUSH1 0x1F NOT DUP6 AND SWAP1 JUMPDEST DUP2 DUP2 LT PUSH2 0x3DA0 JUMPI POP SWAP1 DUP5 PUSH1 0x1 SWAP6 SWAP5 SWAP4 SWAP3 LT PUSH2 0x3D88 JUMPI JUMPDEST POP POP POP DUP2 SHL ADD DUP3 SSTORE PUSH2 0x3AA5 JUMP JUMPDEST ADD MLOAD PUSH0 NOT PUSH1 0xF8 DUP5 PUSH1 0x3 SHL AND SHR NOT AND SWAP1 SSTORE DUP8 DUP1 DUP1 PUSH2 0x3D7B JUMP JUMPDEST SWAP3 SWAP4 PUSH1 0x20 PUSH1 0x1 DUP2 SWAP3 DUP8 DUP7 ADD MLOAD DUP2 SSTORE ADD SWAP6 ADD SWAP4 ADD PUSH2 0x3D65 JUMP JUMPDEST SWAP1 SWAP2 POP DUP5 PUSH0 MSTORE PUSH1 0x20 PUSH0 KECCAK256 PUSH1 0x1F DUP5 ADD PUSH1 0x5 SHR DUP2 ADD SWAP2 PUSH1 0x20 DUP6 LT PUSH2 0x3DFE JUMPI JUMPDEST SWAP1 PUSH1 0x1F DUP6 SWAP5 SWAP4 SWAP3 ADD PUSH1 0x5 SHR ADD SWAP1 JUMPDEST DUP2 DUP2 LT PUSH2 0x3DF0 JUMPI POP PUSH2 0x3A7B JUMP JUMPDEST PUSH0 DUP2 SSTORE DUP5 SWAP4 POP PUSH1 0x1 ADD PUSH2 0x3DE3 JUMP JUMPDEST SWAP1 SWAP2 POP DUP2 SWAP1 PUSH2 0x3DD5 JUMP JUMPDEST PUSH1 0x60 DUP2 ADD SWAP1 DUP2 LT PUSH1 0x1 PUSH1 0x1 PUSH1 0x40 SHL SUB DUP3 GT OR PUSH2 0x35E JUMPI PUSH1 0x40 MSTORE JUMP JUMPDEST PUSH1 0xE0 DUP2 ADD SWAP1 DUP2 LT PUSH1 0x1 PUSH1 0x1 PUSH1 0x40 SHL SUB DUP3 GT OR PUSH2 0x35E JUMPI PUSH1 0x40 MSTORE JUMP JUMPDEST PUSH1 0x40 DUP2 ADD SWAP1 DUP2 LT PUSH1 0x1 PUSH1 0x1 PUSH1 0x40 SHL SUB DUP3 GT OR PUSH2 0x35E JUMPI PUSH1 0x40 MSTORE JUMP JUMPDEST PUSH2 0x100 DUP2 ADD SWAP1 DUP2 LT PUSH1 0x1 PUSH1 0x1 PUSH1 0x40 SHL SUB DUP3 GT OR PUSH2 0x35E JUMPI PUSH1 0x40 MSTORE JUMP JUMPDEST PUSH2 0x1A0 DUP2 ADD SWAP1 DUP2 LT PUSH1 0x1 PUSH1 0x1 PUSH1 0x40 SHL SUB DUP3 GT OR PUSH2 0x35E JUMPI PUSH1 0x40 MSTORE JUMP JUMPDEST SWAP1 PUSH1 0x1F DUP1 NOT SWAP2 ADD AND DUP2 ADD SWAP1 DUP2 LT PUSH1 0x1 PUSH1 0x1 PUSH1 0x40 SHL SUB DUP3 GT OR PUSH2 0x35E JUMPI PUSH1 0x40 MSTORE JUMP JUMPDEST DUP2 PUSH1 0x1F DUP3 ADD SLT ISZERO PUSH2 0x20A JUMPI DUP1 CALLDATALOAD SWAP1 PUSH1 0x1 PUSH1 0x1 PUSH1 0x40 SHL SUB DUP3 GT PUSH2 0x35E JUMPI PUSH1 0x40 MLOAD SWAP3 PUSH2 0x3EE6 PUSH1 0x1F DUP5 ADD PUSH1 0x1F NOT AND PUSH1 0x20 ADD DUP6 PUSH2 0x3E91 JUMP JUMPDEST DUP3 DUP5 MSTORE PUSH1 0x20 DUP4 DUP4 ADD ADD GT PUSH2 0x20A JUMPI DUP2 PUSH0 SWAP3 PUSH1 0x20 DUP1 SWAP4 ADD DUP4 DUP7 ADD CALLDATACOPY DUP4 ADD ADD MSTORE SWAP1 JUMP JUMPDEST DUP1 MLOAD DUP1 DUP4 MSTORE PUSH1 0x20 SWAP3 SWAP2 DUP2 SWAP1 DUP5 ADD DUP5 DUP5 ADD MCOPY PUSH0 DUP3 DUP3 ADD DUP5 ADD MSTORE PUSH1 0x1F ADD PUSH1 0x1F NOT AND ADD ADD SWAP1 JUMP JUMPDEST SWAP1 PUSH1 0x40 PUSH2 0x3F56 PUSH2 0x3F44 DUP5 MLOAD PUSH1 0x60 DUP6 MSTORE PUSH1 0x60 DUP6 ADD SWAP1 PUSH2 0x3F07 JUMP JUMPDEST PUSH1 0x20 DUP6 ADD MLOAD DUP5 DUP3 SUB PUSH1 0x20 DUP7 ADD MSTORE PUSH2 0x3F07 JUMP JUMPDEST SWAP3 DUP2 ADD MLOAD PUSH1 0x1 PUSH1 0x1 PUSH1 0xA0 SHL SUB AND SWAP2 ADD MSTORE SWAP1 JUMP JUMPDEST PUSH1 0x84 CALLDATALOAD SWAP1 PUSH1 0x1 PUSH1 0x1 PUSH1 0xA0 SHL SUB DUP3 AND DUP3 SUB PUSH2 0x20A JUMPI JUMP JUMPDEST SWAP1 PUSH1 0x40 PUSH1 0x3 NOT DUP4 ADD SLT PUSH2 0x20A JUMPI PUSH1 0x4 CALLDATALOAD PUSH1 0x1 PUSH1 0x1 PUSH1 0x40 SHL SUB DUP2 GT PUSH2 0x20A JUMPI DUP3 PUSH2 0x3FAA SWAP2 PUSH1 0x4 ADD PUSH2 0x3EB2 JUMP JUMPDEST SWAP2 PUSH1 0x24 CALLDATALOAD SWAP1 PUSH1 0x1 PUSH1 0x1 PUSH1 0x40 SHL SUB DUP3 GT PUSH2 0x20A JUMPI PUSH2 0x3FC9 SWAP2 PUSH1 0x4 ADD PUSH2 0x3EB2 JUMP JUMPDEST SWAP1 JUMP JUMPDEST SWAP1 PUSH1 0x1 DUP3 DUP2 SHR SWAP3 AND DUP1 ISZERO PUSH2 0x3FFA JUMPI JUMPDEST PUSH1 0x20 DUP4 LT EQ PUSH2 0x3FE6 JUMPI JUMP JUMPDEST PUSH4 0x4E487B71 PUSH1 0xE0 SHL PUSH0 MSTORE PUSH1 0x22 PUSH1 0x4 MSTORE PUSH1 0x24 PUSH0 REVERT JUMPDEST SWAP2 PUSH1 0x7F AND SWAP2 PUSH2 0x3FDB JUMP JUMPDEST SWAP1 PUSH1 0x40 MLOAD SWAP2 DUP3 PUSH0 DUP3 SLOAD SWAP3 PUSH2 0x4017 DUP5 PUSH2 0x3FCC JUMP JUMPDEST DUP1 DUP5 MSTORE SWAP4 PUSH1 0x1 DUP2 AND SWAP1 DUP2 ISZERO PUSH2 0x4082 JUMPI POP PUSH1 0x1 EQ PUSH2 0x403E JUMPI JUMPDEST POP PUSH2 0x403C SWAP3 POP SUB DUP4 PUSH2 0x3E91 JUMP JUMPDEST JUMP JUMPDEST SWAP1 POP PUSH0 SWAP3 SWAP2 SWAP3 MSTORE PUSH1 0x20 PUSH0 KECCAK256 SWAP1 PUSH0 SWAP2 JUMPDEST DUP2 DUP4 LT PUSH2 0x4066 JUMPI POP POP SWAP1 PUSH1 0x20 PUSH2 0x403C SWAP3 DUP3 ADD ADD PUSH0 PUSH2 0x402F JUMP JUMPDEST PUSH1 0x20 SWAP2 SWAP4 POP DUP1 PUSH1 0x1 SWAP2 SLOAD DUP4 DUP6 DUP10 ADD ADD MSTORE ADD SWAP2 ADD SWAP1 SWAP2 DUP5 SWAP3 PUSH2 0x404D JUMP JUMPDEST SWAP1 POP PUSH1 0x20 SWAP3 POP PUSH2 0x403C SWAP5 SWAP2 POP PUSH1 0xFF NOT AND DUP3 DUP5 ADD MSTORE ISZERO ISZERO PUSH1 0x5 SHL DUP3 ADD ADD PUSH0 PUSH2 0x402F JUMP JUMPDEST SWAP1 PUSH1 0x40 MLOAD PUSH2 0x40B1 DUP2 PUSH2 0x3E08 JUMP JUMPDEST PUSH1 0x40 DUP2 SWAP4 PUSH2 0x40BE DUP2 PUSH2 0x4004 JUMP JUMPDEST DUP4 MSTORE PUSH2 0x40CC PUSH1 0x1 DUP3 ADD PUSH2 0x4004 JUMP JUMPDEST PUSH1 0x20 DUP5 ADD MSTORE PUSH1 0x2 ADD SLOAD PUSH1 0x1 PUSH1 0x1 PUSH1 0xA0 SHL SUB AND SWAP2 ADD MSTORE JUMP JUMPDEST SWAP1 PUSH1 0x9 DUP3 LT ISZERO PUSH2 0x289A JUMPI MSTORE JUMP JUMPDEST PUSH1 0x3 SLOAD DUP2 LT ISZERO PUSH2 0x410C JUMPI PUSH1 0x3 PUSH0 MSTORE PUSH1 0x6 PUSH1 0x20 PUSH0 KECCAK256 SWAP2 MUL ADD SWAP1 PUSH0 SWAP1 JUMP JUMPDEST PUSH4 0x4E487B71 PUSH1 0xE0 SHL PUSH0 MSTORE PUSH1 0x32 PUSH1 0x4 MSTORE PUSH1 0x24 PUSH0 REVERT JUMPDEST SWAP2 SWAP1 PUSH1 0x40 DUP4 DUP3 SUB SLT PUSH2 0x20A JUMPI PUSH1 0x40 MLOAD SWAP1 PUSH2 0x4139 DUP3 PUSH2 0x3E3E JUMP JUMPDEST DUP2 SWAP4 DUP1 CALLDATALOAD PUSH1 0x1 PUSH1 0x1 PUSH1 0x40 SHL SUB DUP2 GT PUSH2 0x20A JUMPI DUP3 PUSH2 0x4157 SWAP2 DUP4 ADD PUSH2 0x3EB2 JUMP JUMPDEST DUP4 MSTORE PUSH1 0x20 DUP2 ADD CALLDATALOAD SWAP2 PUSH1 0x1 PUSH1 0x1 PUSH1 0x40 SHL SUB DUP4 GT PUSH2 0x20A JUMPI PUSH1 0x20 SWAP3 PUSH2 0x417A SWAP3 ADD PUSH2 0x3EB2 JUMP JUMPDEST SWAP2 ADD MSTORE JUMP JUMPDEST SWAP2 SWAP1 PUSH2 0x100 DUP4 DUP3 SUB SLT PUSH2 0x20A JUMPI PUSH1 0x40 MLOAD SWAP1 PUSH2 0x4199 DUP3 PUSH2 0x3E59 JUMP JUMPDEST DUP2 SWAP4 DUP1 CALLDATALOAD PUSH1 0x1 PUSH1 0x1 PUSH1 0x40 SHL SUB DUP2 GT PUSH2 0x20A JUMPI DUP3 PUSH2 0x41B7 SWAP2 DUP4 ADD PUSH2 0x3EB2 JUMP JUMPDEST DUP4 MSTORE PUSH1 0x20 DUP2 ADD CALLDATALOAD PUSH1 0x1 PUSH1 0x1 PUSH1 0x40 SHL SUB DUP2 GT PUSH2 0x20A JUMPI DUP3 PUSH2 0x41D8 SWAP2 DUP4 ADD PUSH2 0x3EB2 JUMP JUMPDEST PUSH1 0x20 DUP5 ADD MSTORE PUSH1 0x40 DUP2 ADD CALLDATALOAD PUSH1 0x1 PUSH1 0x1 PUSH1 0x40 SHL SUB DUP2 GT PUSH2 0x20A JUMPI DUP3 PUSH2 0x41FC SWAP2 DUP4 ADD PUSH2 0x3EB2 JUMP JUMPDEST PUSH1 0x40 DUP5 ADD MSTORE PUSH1 0x60 DUP2 ADD CALLDATALOAD PUSH1 0x1 PUSH1 0x1 PUSH1 0x40 SHL SUB DUP2 GT PUSH2 0x20A JUMPI DUP3 PUSH2 0x4220 SWAP2 DUP4 ADD PUSH2 0x3EB2 JUMP JUMPDEST PUSH1 0x60 DUP5 ADD MSTORE PUSH1 0x80 DUP2 ADD CALLDATALOAD PUSH1 0x1 PUSH1 0x1 PUSH1 0x40 SHL SUB DUP2 GT PUSH2 0x20A JUMPI DUP3 PUSH2 0x4244 SWAP2 DUP4 ADD PUSH2 0x3EB2 JUMP JUMPDEST PUSH1 0x80 DUP5 ADD MSTORE PUSH1 0xA0 DUP2 ADD CALLDATALOAD PUSH1 0x1 PUSH1 0x1 PUSH1 0x40 SHL SUB DUP2 GT PUSH2 0x20A JUMPI DUP3 PUSH2 0x4268 SWAP2 DUP4 ADD PUSH2 0x3EB2 JUMP JUMPDEST PUSH1 0xA0 DUP5 ADD MSTORE PUSH1 0xC0 DUP2 ADD CALLDATALOAD PUSH1 0x1 PUSH1 0x1 PUSH1 0x40 SHL SUB DUP2 GT PUSH2 0x20A JUMPI DUP3 PUSH2 0x428C SWAP2 DUP4 ADD PUSH2 0x3EB2 JUMP JUMPDEST PUSH1 0xC0 DUP5 ADD MSTORE PUSH1 0xE0 DUP2 ADD CALLDATALOAD SWAP2 PUSH1 0x1 PUSH1 0x1 PUSH1 0x40 SHL SUB DUP4 GT PUSH2 0x20A JUMPI PUSH1 0xE0 SWAP3 PUSH2 0x417A SWAP3 ADD PUSH2 0x3EB2 JUMP JUMPDEST SWAP1 SWAP2 PUSH2 0x42C9 PUSH2 0x3FC9 SWAP4 PUSH1 0x40 DUP5 MSTORE PUSH1 0x40 DUP5 ADD SWAP1 PUSH2 0x3F07 JUMP JUMPDEST SWAP2 PUSH1 0x20 DUP2 DUP5 SUB SWAP2 ADD MSTORE PUSH2 0x3F07 JUMP JUMPDEST PUSH1 0x20 DUP2 ADD PUSH1 0x20 DUP3 MSTORE DUP3 MLOAD DUP1 SWAP2 MSTORE PUSH1 0x40 DUP3 ADD SWAP2 PUSH1 0x20 PUSH1 0x40 DUP4 PUSH1 0x5 SHL DUP4 ADD ADD SWAP5 ADD SWAP3 PUSH0 SWAP2 JUMPDEST DUP4 DUP4 LT PUSH2 0x4309 JUMPI POP POP POP POP POP SWAP1 JUMP JUMPDEST SWAP1 SWAP2 SWAP3 SWAP4 SWAP5 PUSH1 0x20 DUP1 PUSH1 0x1 SWAP3 PUSH1 0x3F NOT DUP6 DUP3 SUB ADD DUP7 MSTORE DUP9 MLOAD SWAP1 PUSH1 0xC0 DUP1 PUSH2 0x4392 PUSH2 0x4361 PUSH2 0x434F PUSH2 0x433F DUP8 MLOAD PUSH1 0xE0 DUP9 MSTORE PUSH1 0xE0 DUP9 ADD SWAP1 PUSH2 0x3F07 JUMP JUMPDEST DUP9 DUP9 ADD MLOAD DUP8 DUP3 SUB DUP11 DUP10 ADD MSTORE PUSH2 0x3F07 JUMP JUMPDEST PUSH1 0x40 DUP8 ADD MLOAD DUP7 DUP3 SUB PUSH1 0x40 DUP9 ADD MSTORE PUSH2 0x3F07 JUMP JUMPDEST PUSH1 0xFF PUSH1 0x60 DUP8 ADD MLOAD AND PUSH1 0x60 DUP7 ADD MSTORE PUSH2 0x4380 PUSH1 0x80 DUP8 ADD MLOAD PUSH1 0x80 DUP8 ADD SWAP1 PUSH2 0x40E3 JUMP JUMPDEST PUSH1 0xA0 DUP7 ADD MLOAD DUP6 DUP3 SUB PUSH1 0xA0 DUP8 ADD MSTORE PUSH2 0x3F07 JUMP JUMPDEST SWAP4 ADD MLOAD SWAP2 ADD MSTORE SWAP8 ADD SWAP4 ADD SWAP4 ADD SWAP2 SWAP4 SWAP3 SWAP1 PUSH2 0x42FA JUMP JUMPDEST SWAP1 PUSH2 0x3FC9 SWAP2 PUSH1 0x20 DUP2 MSTORE PUSH2 0x43BE PUSH1 0x20 DUP3 ADD DUP4 MLOAD PUSH2 0x40E3 JUMP JUMPDEST PUSH1 0x20 DUP3 ADD MLOAD PUSH1 0x40 DUP3 ADD MSTORE PUSH1 0x40 DUP3 ADD MLOAD PUSH1 0x60 DUP3 ADD MSTORE PUSH1 0x60 DUP3 ADD MLOAD PUSH1 0x80 DUP3 ADD MSTORE PUSH1 0x80 DUP3 ADD MLOAD PUSH1 0xA0 DUP3 ADD MSTORE PUSH1 0xA0 DUP3 ADD MLOAD PUSH1 0xC0 DUP3 ADD MSTORE PUSH1 0xC0 DUP3 ADD MLOAD PUSH1 0xE0 DUP3 ADD MSTORE PUSH1 0xE0 DUP3 ADD MLOAD PUSH2 0x100 DUP3 ADD MSTORE PUSH2 0x100 DUP3 ADD MLOAD PUSH2 0x120 DUP3 ADD MSTORE PUSH2 0x120 DUP3 ADD MLOAD PUSH2 0x140 DUP3 ADD MSTORE PUSH2 0x180 PUSH2 0x4456 PUSH2 0x4440 PUSH2 0x140 DUP6 ADD MLOAD PUSH2 0x1A0 PUSH2 0x160 DUP7 ADD MSTORE PUSH2 0x1C0 DUP6 ADD SWAP1 PUSH2 0x3F2B JUMP JUMPDEST PUSH2 0x160 DUP6 ADD MLOAD DUP5 DUP3 SUB PUSH1 0x1F NOT ADD DUP5 DUP7 ADD MSTORE PUSH2 0x3F2B JUMP JUMPDEST SWAP3 ADD MLOAD SWAP1 PUSH2 0x1A0 PUSH1 0x1F NOT DUP3 DUP6 SUB ADD SWAP2 ADD MSTORE PUSH2 0x3F07 JUMP JUMPDEST SWAP2 SWAP1 PUSH1 0x60 DUP4 DUP3 SUB SLT PUSH2 0x20A JUMPI PUSH1 0x40 MLOAD SWAP1 PUSH2 0x4485 DUP3 PUSH2 0x3E08 JUMP JUMPDEST DUP2 SWAP4 DUP1 CALLDATALOAD PUSH1 0x1 PUSH1 0x1 PUSH1 0x40 SHL SUB DUP2 GT PUSH2 0x20A JUMPI DUP3 PUSH2 0x44A3 SWAP2 DUP4 ADD PUSH2 0x3EB2 JUMP JUMPDEST DUP4 MSTORE PUSH1 0x20 DUP2 ADD CALLDATALOAD PUSH1 0x1 PUSH1 0x1 PUSH1 0x40 SHL SUB DUP2 GT PUSH2 0x20A JUMPI PUSH1 0x40 SWAP3 PUSH2 0x44C6 SWAP2 DUP4 ADD PUSH2 0x3EB2 JUMP JUMPDEST PUSH1 0x20 DUP5 ADD MSTORE ADD CALLDATALOAD SWAP1 PUSH1 0x1 PUSH1 0x1 PUSH1 0xA0 SHL SUB DUP3 AND DUP3 SUB PUSH2 0x20A JUMPI PUSH1 0x40 ADD MSTORE JUMP JUMPDEST PUSH1 0x60 PUSH1 0x3 NOT DUP3 ADD SLT PUSH2 0x20A JUMPI PUSH1 0x4 CALLDATALOAD PUSH1 0x1 PUSH1 0x1 PUSH1 0x40 SHL SUB DUP2 GT PUSH2 0x20A JUMPI DUP2 PUSH2 0x450E SWAP2 PUSH1 0x4 ADD PUSH2 0x3EB2 JUMP JUMPDEST SWAP2 PUSH1 0x24 CALLDATALOAD PUSH1 0x1 PUSH1 0x1 PUSH1 0x40 SHL SUB DUP2 GT PUSH2 0x20A JUMPI DUP3 PUSH2 0x452D SWAP2 PUSH1 0x4 ADD PUSH2 0x3EB2 JUMP JUMPDEST SWAP2 PUSH1 0x44 CALLDATALOAD SWAP1 PUSH1 0x1 PUSH1 0x1 PUSH1 0x40 SHL SUB DUP3 GT PUSH2 0x20A JUMPI PUSH2 0x3FC9 SWAP2 PUSH1 0x4 ADD PUSH2 0x446C JUMP JUMPDEST PUSH0 SWAP3 SWAP2 DUP2 SLOAD SWAP2 PUSH2 0x455B DUP4 PUSH2 0x3FCC JUMP JUMPDEST SWAP3 PUSH1 0x1 DUP2 AND SWAP1 DUP2 ISZERO PUSH2 0x45A3 JUMPI POP PUSH1 0x1 EQ PUSH2 0x4574 JUMPI POP POP POP JUMP JUMPDEST SWAP1 SWAP2 SWAP3 SWAP4 POP PUSH0 MSTORE PUSH1 0x20 PUSH0 KECCAK256 PUSH0 SWAP1 JUMPDEST DUP4 DUP3 LT PUSH2 0x458F JUMPI POP POP ADD SWAP1 JUMP JUMPDEST PUSH1 0x1 DUP2 PUSH1 0x20 SWAP3 SLOAD DUP5 DUP7 ADD MSTORE ADD SWAP2 ADD SWAP1 PUSH2 0x4582 JUMP JUMPDEST PUSH1 0xFF NOT AND DUP4 MSTORE POP POP DUP2 ISZERO ISZERO SWAP1 SWAP2 MUL ADD SWAP2 POP JUMP JUMPDEST PUSH1 0x40 MLOAD SWAP1 PUSH2 0x45C3 DUP3 PUSH2 0x3E08 JUMP JUMPDEST PUSH0 PUSH1 0x40 DUP4 PUSH1 0x60 DUP2 MSTORE PUSH1 0x60 PUSH1 0x20 DUP3 ADD MSTORE ADD MSTORE JUMP JUMPDEST PUSH1 0x20 DUP1 SWAP2 PUSH1 0x40 MLOAD SWAP3 DUP2 DUP5 SWAP3 MLOAD SWAP2 DUP3 SWAP2 ADD DUP4 MCOPY DUP2 ADD PUSH0 DUP2 MSTORE SUB ADD SWAP1 KECCAK256 TIMESTAMP PUSH1 0x4 DUP3 ADD SSTORE PUSH1 0x3 PUSH1 0xFF NOT DUP3 SLOAD AND OR SWAP1 SSTORE JUMP JUMPDEST SWAP2 SWAP1 PUSH2 0x460E PUSH2 0x45B6 JUMP JUMPDEST POP PUSH1 0x40 MLOAD SWAP3 PUSH2 0x461C DUP5 PUSH2 0x3E08 JUMP JUMPDEST DUP4 MSTORE PUSH1 0x20 DUP4 ADD MSTORE PUSH1 0x1 PUSH1 0x1 PUSH1 0xA0 SHL SUB AND PUSH1 0x40 DUP3 ADD MSTORE SWAP1 JUMP JUMPDEST PUSH1 0x20 DUP1 SWAP2 PUSH1 0x40 MLOAD SWAP3 DUP2 DUP5 SWAP3 MLOAD SWAP2 DUP3 SWAP2 ADD DUP4 MCOPY DUP2 ADD PUSH0 DUP2 MSTORE SUB ADD SWAP1 KECCAK256 TIMESTAMP PUSH1 0x9 DUP3 ADD SSTORE PUSH1 0x8 PUSH1 0xFF NOT DUP3 SLOAD AND OR SWAP1 SSTORE JUMP JUMPDEST PUSH1 0x9 DUP3 LT ISZERO PUSH2 0x289A JUMPI MSTORE JUMP JUMPDEST SWAP1 PUSH2 0x3FC9 PUSH2 0x46AD PUSH1 0x40 MLOAD PUSH1 0x20 DUP6 MLOAD SWAP2 DUP2 DUP2 DUP2 DUP10 ADD SWAP5 DUP1 DUP7 DUP4 MCOPY DUP2 ADD PUSH1 0x1 DUP2 MSTORE SUB ADD SWAP1 KECCAK256 SWAP6 PUSH1 0x40 MLOAD SWAP3 DUP4 SWAP2 MLOAD DUP1 SWAP2 DUP4 MCOPY DUP2 ADD PUSH1 0x2 DUP2 MSTORE SUB ADD SWAP1 KECCAK256 SWAP4 PUSH2 0x4004 JUMP JUMPDEST SWAP3 PUSH2 0x4004 JUMP JUMPDEST PUSH1 0xFF AND PUSH1 0xFF DUP2 EQ PUSH2 0x372 JUMPI PUSH1 0x1 ADD SWAP1 JUMP JUMPDEST PUSH1 0x1 PUSH1 0x1 PUSH1 0x40 SHL SUB DUP2 GT PUSH2 0x35E JUMPI PUSH1 0x5 SHL PUSH1 0x20 ADD SWAP1 JUMP JUMPDEST SWAP1 PUSH2 0x46E5 DUP3 PUSH2 0x46C4 JUMP JUMPDEST PUSH2 0x46F2 PUSH1 0x40 MLOAD SWAP2 DUP3 PUSH2 0x3E91 JUMP JUMPDEST DUP3 DUP2 MSTORE DUP1 SWAP3 PUSH2 0x4703 PUSH1 0x1F NOT SWAP2 PUSH2 0x46C4 JUMP JUMPDEST ADD SWAP1 PUSH0 JUMPDEST DUP3 DUP2 LT PUSH2 0x4713 JUMPI POP POP POP JUMP JUMPDEST PUSH1 0x20 SWAP1 PUSH1 0x40 MLOAD PUSH2 0x4722 DUP2 PUSH2 0x3E23 JUMP JUMPDEST PUSH1 0x60 DUP2 MSTORE PUSH1 0x60 DUP4 DUP3 ADD MSTORE PUSH1 0x60 PUSH1 0x40 DUP3 ADD MSTORE PUSH0 PUSH1 0x60 DUP3 ADD MSTORE PUSH0 PUSH1 0x80 DUP3 ADD MSTORE PUSH1 0x60 PUSH1 0xA0 DUP3 ADD MSTORE PUSH0 PUSH1 0xC0 DUP3 ADD MSTORE DUP3 DUP3 DUP6 ADD ADD MSTORE ADD PUSH2 0x4707 JUMP JUMPDEST DUP1 MLOAD DUP3 LT ISZERO PUSH2 0x410C JUMPI PUSH1 0x20 SWAP2 PUSH1 0x5 SHL ADD ADD SWAP1 JUMP JUMPDEST SWAP1 PUSH1 0x40 MLOAD PUSH2 0x4779 DUP2 PUSH2 0x3E23 JUMP JUMPDEST PUSH1 0xC0 PUSH1 0x5 DUP3 SWAP5 PUSH2 0x4788 DUP2 PUSH2 0x4004 JUMP JUMPDEST DUP5 MSTORE PUSH2 0x4796 PUSH1 0x1 DUP3 ADD PUSH2 0x4004 JUMP JUMPDEST PUSH1 0x20 DUP6 ADD MSTORE PUSH2 0x47A7 PUSH1 0x2 DUP3 ADD PUSH2 0x4004 JUMP JUMPDEST PUSH1 0x40 DUP6 ADD MSTORE PUSH2 0x47CB PUSH1 0xFF PUSH1 0x3 DUP4 ADD SLOAD DUP2 DUP2 AND PUSH1 0x60 DUP9 ADD MSTORE PUSH1 0x8 SHR AND PUSH1 0x80 DUP7 ADD PUSH2 0x4662 JUMP JUMPDEST PUSH2 0x47D7 PUSH1 0x4 DUP3 ADD PUSH2 0x4004 JUMP JUMPDEST PUSH1 0xA0 DUP6 ADD MSTORE ADD SLOAD SWAP2 ADD MSTORE JUMP JUMPDEST SWAP1 TIMESTAMP GT ISZERO PUSH2 0x4819 JUMPI PUSH1 0x20 DUP1 SWAP2 PUSH1 0x40 MLOAD SWAP3 DUP2 DUP5 SWAP3 MLOAD SWAP2 DUP3 SWAP2 ADD DUP4 MCOPY DUP2 ADD PUSH0 DUP2 MSTORE SUB ADD SWAP1 KECCAK256 TIMESTAMP PUSH1 0x6 DUP3 ADD SSTORE PUSH1 0x5 PUSH1 0xFF NOT DUP3 SLOAD AND OR SWAP1 SSTORE JUMP JUMPDEST PUSH1 0x40 MLOAD PUSH3 0x461BCD PUSH1 0xE5 SHL DUP2 MSTORE PUSH1 0x20 PUSH1 0x4 DUP3 ADD MSTORE PUSH1 0x18 PUSH1 0x24 DUP3 ADD MSTORE PUSH32 0x536572746966696B6174206D61736968206265726C616B750000000000000000 PUSH1 0x44 DUP3 ADD MSTORE PUSH1 0x64 SWAP1 REVERT JUMPDEST PUSH1 0x40 MLOAD SWAP1 PUSH2 0x486B DUP3 PUSH2 0x3E75 JUMP JUMPDEST PUSH1 0x60 PUSH2 0x180 DUP4 PUSH0 DUP2 MSTORE PUSH0 PUSH1 0x20 DUP3 ADD MSTORE PUSH0 PUSH1 0x40 DUP3 ADD MSTORE PUSH0 DUP4 DUP3 ADD MSTORE PUSH0 PUSH1 0x80 DUP3 ADD MSTORE PUSH0 PUSH1 0xA0 DUP3 ADD MSTORE PUSH0 PUSH1 0xC0 DUP3 ADD MSTORE PUSH0 PUSH1 0xE0 DUP3 ADD MSTORE PUSH0 PUSH2 0x100 DUP3 ADD MSTORE PUSH0 PUSH2 0x120 DUP3 ADD MSTORE PUSH2 0x48B3 PUSH2 0x45B6 JUMP JUMPDEST PUSH2 0x140 DUP3 ADD MSTORE PUSH2 0x48C1 PUSH2 0x45B6 JUMP JUMPDEST PUSH2 0x160 DUP3 ADD MSTORE ADD MSTORE JUMP JUMPDEST PUSH1 0x20 DUP1 SWAP2 PUSH2 0x48D7 PUSH2 0x485E JUMP JUMPDEST POP PUSH1 0x40 MLOAD SWAP3 DUP2 DUP5 SWAP3 MLOAD SWAP2 DUP3 SWAP2 ADD DUP4 MCOPY DUP2 ADD PUSH0 DUP2 MSTORE SUB ADD SWAP1 KECCAK256 PUSH2 0x4995 PUSH1 0x10 PUSH1 0x40 MLOAD SWAP3 PUSH2 0x4901 DUP5 PUSH2 0x3E75 JUMP JUMPDEST PUSH2 0x490F PUSH1 0xFF DUP3 SLOAD AND DUP6 PUSH2 0x4662 JUMP JUMPDEST PUSH1 0x1 DUP2 ADD SLOAD PUSH1 0x20 DUP6 ADD MSTORE PUSH1 0x2 DUP2 ADD SLOAD PUSH1 0x40 DUP6 ADD MSTORE PUSH1 0x3 DUP2 ADD SLOAD PUSH1 0x60 DUP6 ADD MSTORE PUSH1 0x4 DUP2 ADD SLOAD PUSH1 0x80 DUP6 ADD MSTORE PUSH1 0x5 DUP2 ADD SLOAD PUSH1 0xA0 DUP6 ADD MSTORE PUSH1 0x6 DUP2 ADD SLOAD PUSH1 0xC0 DUP6 ADD MSTORE PUSH1 0x7 DUP2 ADD SLOAD PUSH1 0xE0 DUP6 ADD MSTORE PUSH1 0x8 DUP2 ADD SLOAD PUSH2 0x100 DUP6 ADD MSTORE PUSH1 0x9 DUP2 ADD SLOAD PUSH2 0x120 DUP6 ADD MSTORE PUSH2 0x4977 PUSH1 0xA DUP3 ADD PUSH2 0x40A4 JUMP JUMPDEST PUSH2 0x140 DUP6 ADD MSTORE PUSH2 0x4989 PUSH1 0xD DUP3 ADD PUSH2 0x40A4 JUMP JUMPDEST PUSH2 0x160 DUP6 ADD MSTORE ADD PUSH2 0x4004 JUMP JUMPDEST PUSH2 0x180 DUP3 ADD MSTORE SWAP1 JUMP JUMPDEST SWAP2 SWAP1 SWAP2 PUSH1 0x40 MLOAD PUSH1 0x20 DUP3 MLOAD SWAP2 DUP2 DUP2 DUP2 DUP7 ADD SWAP5 DUP1 DUP7 DUP4 MCOPY DUP2 ADD PUSH0 DUP2 MSTORE SUB ADD SWAP1 KECCAK256 SWAP3 PUSH1 0x40 MLOAD SWAP3 DUP4 SWAP2 MLOAD DUP1 SWAP2 DUP4 MCOPY DUP2 ADD PUSH1 0x2 DUP2 MSTORE SUB ADD SWAP1 KECCAK256 DUP4 MLOAD PUSH1 0x1 PUSH1 0x1 PUSH1 0x40 SHL SUB DUP2 GT PUSH2 0x35E JUMPI PUSH2 0x49EC DUP3 SLOAD PUSH2 0x3FCC JUMP JUMPDEST PUSH1 0x1F DUP2 GT PUSH2 0x4AA4 JUMPI JUMPDEST POP PUSH1 0x20 SWAP5 PUSH1 0x1F DUP3 GT PUSH1 0x1 EQ PUSH2 0x4A43 JUMPI SWAP5 DUP2 SWAP3 SWAP4 SWAP5 SWAP6 PUSH0 SWAP3 PUSH2 0x4A38 JUMPI JUMPDEST POP POP DUP2 PUSH1 0x1 SHL SWAP2 PUSH0 NOT SWAP1 PUSH1 0x3 SHL SHR NOT AND OR SWAP1 SSTORE JUMPDEST TIMESTAMP PUSH1 0x8 DUP3 ADD SSTORE DUP1 SLOAD PUSH1 0xFF NOT AND PUSH1 0x7 OR SWAP1 SSTORE JUMP JUMPDEST ADD MLOAD SWAP1 POP PUSH0 DUP1 PUSH2 0x4A11 JUMP JUMPDEST PUSH1 0x1F NOT DUP3 AND SWAP6 DUP4 PUSH0 MSTORE DUP1 PUSH0 KECCAK256 SWAP2 PUSH0 JUMPDEST DUP9 DUP2 LT PUSH2 0x4A8C JUMPI POP DUP4 PUSH1 0x1 SWAP6 SWAP7 SWAP8 SWAP9 LT PUSH2 0x4A74 JUMPI JUMPDEST POP POP POP DUP2 SHL ADD SWAP1 SSTORE PUSH2 0x4A25 JUMP JUMPDEST ADD MLOAD PUSH0 NOT PUSH1 0xF8 DUP5 PUSH1 0x3 SHL AND SHR NOT AND SWAP1 SSTORE PUSH0 DUP1 DUP1 PUSH2 0x4A67 JUMP JUMPDEST SWAP2 SWAP3 PUSH1 0x20 PUSH1 0x1 DUP2 SWAP3 DUP7 DUP6 ADD MLOAD DUP2 SSTORE ADD SWAP5 ADD SWAP3 ADD PUSH2 0x4A52 JUMP JUMPDEST DUP3 PUSH0 MSTORE PUSH1 0x20 PUSH0 KECCAK256 PUSH1 0x1F DUP4 ADD PUSH1 0x5 SHR DUP2 ADD SWAP2 PUSH1 0x20 DUP5 LT PUSH2 0x4ADF JUMPI JUMPDEST PUSH1 0x1F ADD PUSH1 0x5 SHR ADD SWAP1 JUMPDEST DUP2 DUP2 LT PUSH2 0x4AD4 JUMPI POP PUSH2 0x49F5 JUMP JUMPDEST PUSH0 DUP2 SSTORE PUSH1 0x1 ADD PUSH2 0x4AC7 JUMP JUMPDEST SWAP1 SWAP2 POP DUP2 SWAP1 PUSH2 0x4ABE JUMP JUMPDEST PUSH1 0x20 DUP1 SWAP2 SWAP4 SWAP3 SWAP4 PUSH1 0x40 MLOAD SWAP3 DUP2 DUP5 SWAP3 MLOAD SWAP2 DUP3 SWAP2 ADD DUP4 MCOPY DUP2 ADD PUSH0 DUP2 MSTORE SUB ADD SWAP1 KECCAK256 TIMESTAMP PUSH1 0x7 DUP3 ADD SSTORE PUSH1 0x82 TIMESTAMP ADD SWAP1 DUP2 TIMESTAMP GT PUSH2 0x372 JUMPI PUSH1 0x10 SWAP2 PUSH1 0x5 DUP3 ADD SSTORE PUSH1 0x6 PUSH1 0xFF NOT DUP3 SLOAD AND OR DUP2 SSTORE ADD DUP3 MLOAD PUSH1 0x1 PUSH1 0x1 PUSH1 0x40 SHL SUB DUP2 GT PUSH2 0x35E JUMPI PUSH2 0x4B47 DUP3 SLOAD PUSH2 0x3FCC JUMP JUMPDEST PUSH1 0x1F DUP2 GT PUSH2 0x4BE7 JUMPI JUMPDEST POP PUSH1 0x20 PUSH1 0x1F DUP3 GT PUSH1 0x1 EQ PUSH2 0x4B89 JUMPI DUP2 SWAP3 SWAP4 SWAP5 PUSH0 SWAP3 PUSH2 0x4B7E JUMPI JUMPDEST POP POP DUP2 PUSH1 0x1 SHL SWAP2 PUSH0 NOT SWAP1 PUSH1 0x3 SHL SHR NOT AND OR SWAP1 SSTORE JUMP JUMPDEST ADD MLOAD SWAP1 POP PUSH0 DUP1 PUSH2 0x4B69 JUMP JUMPDEST PUSH1 0x1F NOT DUP3 AND SWAP1 DUP4 PUSH0 MSTORE DUP1 PUSH0 KECCAK256 SWAP2 PUSH0 JUMPDEST DUP2 DUP2 LT PUSH2 0x4BCF JUMPI POP SWAP6 DUP4 PUSH1 0x1 SWAP6 SWAP7 SWAP8 LT PUSH2 0x4BB7 JUMPI JUMPDEST POP POP POP DUP2 SHL ADD SWAP1 SSTORE JUMP JUMPDEST ADD MLOAD PUSH0 NOT PUSH1 0xF8 DUP5 PUSH1 0x3 SHL AND SHR NOT AND SWAP1 SSTORE PUSH0 DUP1 DUP1 PUSH2 0x4BAD JUMP JUMPDEST SWAP2 SWAP3 PUSH1 0x20 PUSH1 0x1 DUP2 SWAP3 DUP7 DUP12 ADD MLOAD DUP2 SSTORE ADD SWAP5 ADD SWAP3 ADD PUSH2 0x4B98 JUMP JUMPDEST DUP3 PUSH0 MSTORE PUSH1 0x20 PUSH0 KECCAK256 PUSH1 0x1F DUP4 ADD PUSH1 0x5 SHR DUP2 ADD SWAP2 PUSH1 0x20 DUP5 LT PUSH2 0x4C22 JUMPI JUMPDEST PUSH1 0x1F ADD PUSH1 0x5 SHR ADD SWAP1 JUMPDEST DUP2 DUP2 LT PUSH2 0x4C17 JUMPI POP PUSH2 0x4B50 JUMP JUMPDEST PUSH0 DUP2 SSTORE PUSH1 0x1 ADD PUSH2 0x4C0A JUMP JUMPDEST SWAP1 SWAP2 POP DUP2 SWAP1 PUSH2 0x4C01 JUMP JUMPDEST SWAP3 SWAP2 SWAP1 PUSH1 0x40 MLOAD PUSH1 0x20 DUP6 MLOAD SWAP2 DUP2 DUP2 DUP2 DUP10 ADD SWAP5 DUP1 DUP7 DUP4 MCOPY DUP2 ADD PUSH0 DUP2 MSTORE SUB ADD SWAP1 KECCAK256 SWAP6 PUSH1 0x40 MLOAD SWAP3 DUP4 SWAP2 MLOAD DUP1 SWAP2 DUP4 MCOPY DUP2 ADD PUSH1 0x1 DUP2 MSTORE SUB ADD SWAP1 KECCAK256 SWAP1 DUP1 MLOAD SWAP1 PUSH1 0x1 PUSH1 0x1 PUSH1 0x40 SHL SUB DUP3 GT PUSH2 0x35E JUMPI DUP2 SWAP1 PUSH2 0x4C7E DUP5 SLOAD PUSH2 0x3FCC JUMP JUMPDEST PUSH1 0x1F DUP2 GT PUSH2 0x4F79 JUMPI JUMPDEST POP PUSH1 0x20 SWAP1 PUSH1 0x1F DUP4 GT PUSH1 0x1 EQ PUSH2 0x4F16 JUMPI PUSH0 SWAP3 PUSH2 0x4F0B JUMPI JUMPDEST POP POP DUP2 PUSH1 0x1 SHL SWAP2 PUSH0 NOT SWAP1 PUSH1 0x3 SHL SHR NOT AND OR SWAP1 SSTORE JUMPDEST DUP1 MLOAD DUP1 MLOAD PUSH1 0xD DUP6 ADD SWAP2 PUSH1 0x1 PUSH1 0x1 PUSH1 0x40 SHL SUB DUP3 GT PUSH2 0x35E JUMPI PUSH2 0x4CD2 DUP4 SLOAD PUSH2 0x3FCC JUMP JUMPDEST PUSH1 0x1F DUP2 GT PUSH2 0x4EC6 JUMPI JUMPDEST POP PUSH1 0x20 SWAP1 PUSH1 0x1F DUP4 GT PUSH1 0x1 EQ PUSH2 0x4E5F JUMPI PUSH1 0x20 SWAP5 SWAP4 SWAP3 SWAP2 PUSH0 SWAP2 DUP4 PUSH2 0x4E54 JUMPI JUMPDEST POP POP DUP2 PUSH1 0x1 SHL SWAP2 PUSH0 NOT SWAP1 PUSH1 0x3 SHL SHR NOT AND OR SWAP1 SSTORE JUMPDEST PUSH1 0x40 DUP2 ADD MLOAD PUSH1 0xF DUP6 ADD DUP1 SLOAD PUSH1 0x1 PUSH1 0x1 PUSH1 0xA0 SHL SUB NOT AND PUSH1 0x1 PUSH1 0x1 PUSH1 0xA0 SHL SUB SWAP3 SWAP1 SWAP3 AND SWAP2 SWAP1 SWAP2 OR SWAP1 SSTORE ADD MLOAD DUP1 MLOAD SWAP1 SWAP3 SWAP1 PUSH1 0xE DUP3 ADD SWAP1 PUSH1 0x1 PUSH1 0x1 PUSH1 0x40 SHL SUB DUP2 GT PUSH2 0x35E JUMPI PUSH2 0x4D57 DUP3 SLOAD PUSH2 0x3FCC JUMP JUMPDEST PUSH1 0x1F DUP2 GT PUSH2 0x4E0F JUMPI JUMPDEST POP PUSH1 0x20 SWAP5 PUSH1 0x1F DUP3 GT PUSH1 0x1 EQ PUSH2 0x4DAE JUMPI SWAP5 DUP2 SWAP3 SWAP4 SWAP5 SWAP6 PUSH0 SWAP3 PUSH2 0x4DA3 JUMPI JUMPDEST POP POP DUP2 PUSH1 0x1 SHL SWAP2 PUSH0 NOT SWAP1 PUSH1 0x3 SHL SHR NOT AND OR SWAP1 SSTORE JUMPDEST TIMESTAMP PUSH1 0x3 DUP3 ADD SSTORE DUP1 SLOAD PUSH1 0xFF NOT AND PUSH1 0x2 OR SWAP1 SSTORE JUMP JUMPDEST ADD MLOAD SWAP1 POP PUSH0 DUP1 PUSH2 0x4D7C JUMP JUMPDEST PUSH1 0x1F NOT DUP3 AND SWAP6 DUP4 PUSH0 MSTORE DUP1 PUSH0 KECCAK256 SWAP2 PUSH0 JUMPDEST DUP9 DUP2 LT PUSH2 0x4DF7 JUMPI POP DUP4 PUSH1 0x1 SWAP6 SWAP7 SWAP8 SWAP9 LT PUSH2 0x4DDF JUMPI JUMPDEST POP POP POP DUP2 SHL ADD SWAP1 SSTORE PUSH2 0x4D90 JUMP JUMPDEST ADD MLOAD PUSH0 NOT PUSH1 0xF8 DUP5 PUSH1 0x3 SHL AND SHR NOT AND SWAP1 SSTORE PUSH0 DUP1 DUP1 PUSH2 0x4DD2 JUMP JUMPDEST SWAP2 SWAP3 PUSH1 0x20 PUSH1 0x1 DUP2 SWAP3 DUP7 DUP6 ADD MLOAD DUP2 SSTORE ADD SWAP5 ADD SWAP3 ADD PUSH2 0x4DBD JUMP JUMPDEST DUP3 PUSH0 MSTORE PUSH1 0x20 PUSH0 KECCAK256 PUSH1 0x1F DUP4 ADD PUSH1 0x5 SHR DUP2 ADD SWAP2 PUSH1 0x20 DUP5 LT PUSH2 0x4E4A JUMPI JUMPDEST PUSH1 0x1F ADD PUSH1 0x5 SHR ADD SWAP1 JUMPDEST DUP2 DUP2 LT PUSH2 0x4E3F JUMPI POP PUSH2 0x4D60 JUMP JUMPDEST PUSH0 DUP2 SSTORE PUSH1 0x1 ADD PUSH2 0x4E32 JUMP JUMPDEST SWAP1 SWAP2 POP DUP2 SWAP1 PUSH2 0x4E29 JUMP JUMPDEST ADD MLOAD SWAP1 POP PUSH0 DUP1 PUSH2 0x4CF8 JUMP JUMPDEST SWAP1 PUSH1 0x1F NOT DUP4 AND SWAP2 DUP5 PUSH0 MSTORE DUP2 PUSH0 KECCAK256 SWAP3 PUSH0 JUMPDEST DUP2 DUP2 LT PUSH2 0x4EAE JUMPI POP SWAP2 PUSH1 0x1 SWAP4 SWAP2 DUP6 PUSH1 0x20 SWAP9 SWAP8 SWAP7 SWAP5 LT PUSH2 0x4E96 JUMPI JUMPDEST POP POP POP DUP2 SHL ADD SWAP1 SSTORE PUSH2 0x4D0C JUMP JUMPDEST ADD MLOAD PUSH0 NOT PUSH1 0xF8 DUP5 PUSH1 0x3 SHL AND SHR NOT AND SWAP1 SSTORE PUSH0 DUP1 DUP1 PUSH2 0x4E89 JUMP JUMPDEST SWAP3 SWAP4 PUSH1 0x20 PUSH1 0x1 DUP2 SWAP3 DUP8 DUP7 ADD MLOAD DUP2 SSTORE ADD SWAP6 ADD SWAP4 ADD PUSH2 0x4E6F JUMP JUMPDEST DUP4 PUSH0 MSTORE PUSH1 0x20 PUSH0 KECCAK256 PUSH1 0x1F DUP5 ADD PUSH1 0x5 SHR DUP2 ADD SWAP2 PUSH1 0x20 DUP6 LT PUSH2 0x4F01 JUMPI JUMPDEST PUSH1 0x1F ADD PUSH1 0x5 SHR ADD SWAP1 JUMPDEST DUP2 DUP2 LT PUSH2 0x4EF6 JUMPI POP PUSH2 0x4CDB JUMP JUMPDEST PUSH0 DUP2 SSTORE PUSH1 0x1 ADD PUSH2 0x4EE9 JUMP JUMPDEST SWAP1 SWAP2 POP DUP2 SWAP1 PUSH2 0x4EE0 JUMP JUMPDEST ADD MLOAD SWAP1 POP PUSH0 DUP1 PUSH2 0x4C9D JUMP JUMPDEST PUSH0 DUP6 DUP2 MSTORE DUP3 DUP2 KECCAK256 SWAP4 POP PUSH1 0x1F NOT DUP6 AND SWAP1 JUMPDEST DUP2 DUP2 LT PUSH2 0x4F61 JUMPI POP SWAP1 DUP5 PUSH1 0x1 SWAP6 SWAP5 SWAP4 SWAP3 LT PUSH2 0x4F49 JUMPI JUMPDEST POP POP POP DUP2 SHL ADD SWAP1 SSTORE PUSH2 0x4CB1 JUMP JUMPDEST ADD MLOAD PUSH0 NOT PUSH1 0xF8 DUP5 PUSH1 0x3 SHL AND SHR NOT AND SWAP1 SSTORE PUSH0 DUP1 DUP1 PUSH2 0x4F3C JUMP JUMPDEST SWAP3 SWAP4 PUSH1 0x20 PUSH1 0x1 DUP2 SWAP3 DUP8 DUP7 ADD MLOAD DUP2 SSTORE ADD SWAP6 ADD SWAP4 ADD PUSH2 0x4F26 JUMP JUMPDEST SWAP1 SWAP2 POP DUP4 PUSH0 MSTORE PUSH1 0x20 PUSH0 KECCAK256 PUSH1 0x1F DUP5 ADD PUSH1 0x5 SHR DUP2 ADD SWAP2 PUSH1 0x20 DUP6 LT PUSH2 0x4FBF JUMPI JUMPDEST SWAP1 PUSH1 0x1F DUP6 SWAP5 SWAP4 SWAP3 ADD PUSH1 0x5 SHR ADD SWAP1 JUMPDEST DUP2 DUP2 LT PUSH2 0x4FB1 JUMPI POP PUSH2 0x4C87 JUMP JUMPDEST PUSH0 DUP2 SSTORE DUP5 SWAP4 POP PUSH1 0x1 ADD PUSH2 0x4FA4 JUMP JUMPDEST SWAP1 SWAP2 POP DUP2 SWAP1 PUSH2 0x4F96 JUMP JUMPDEST PUSH1 0x20 DUP1 SWAP2 SWAP5 SWAP4 SWAP3 SWAP5 PUSH1 0x40 MLOAD SWAP3 DUP2 DUP5 SWAP3 MLOAD SWAP2 DUP3 SWAP2 ADD DUP4 MCOPY DUP2 ADD PUSH0 DUP2 MSTORE SUB ADD SWAP1 KECCAK256 SWAP1 DUP1 MLOAD PUSH1 0xD DUP4 ADD SWAP1 DUP1 MLOAD SWAP1 PUSH1 0x1 PUSH1 0x1 PUSH1 0x40 SHL SUB DUP3 GT PUSH2 0x35E JUMPI PUSH2 0x500B DUP4 SLOAD PUSH2 0x3FCC JUMP JUMPDEST PUSH1 0x1F DUP2 GT PUSH2 0x52F2 JUMPI JUMPDEST POP PUSH1 0x20 SWAP1 PUSH1 0x1F DUP4 GT PUSH1 0x1 EQ PUSH2 0x528B JUMPI PUSH1 0x20 SWAP5 SWAP4 SWAP3 SWAP2 PUSH0 SWAP2 DUP4 PUSH2 0x5280 JUMPI JUMPDEST POP POP DUP2 PUSH1 0x1 SHL SWAP2 PUSH0 NOT SWAP1 PUSH1 0x3 SHL SHR NOT AND OR SWAP1 SSTORE JUMPDEST PUSH1 0x40 DUP2 ADD MLOAD PUSH1 0xF DUP5 ADD DUP1 SLOAD PUSH1 0x1 PUSH1 0x1 PUSH1 0xA0 SHL SUB NOT AND PUSH1 0x1 PUSH1 0x1 PUSH1 0xA0 SHL SUB SWAP3 SWAP1 SWAP3 AND SWAP2 SWAP1 SWAP2 OR SWAP1 SSTORE ADD MLOAD DUP1 MLOAD PUSH1 0xE DUP4 ADD SWAP2 PUSH1 0x1 PUSH1 0x1 PUSH1 0x40 SHL SUB DUP3 GT PUSH2 0x35E JUMPI DUP2 SWAP1 PUSH2 0x508F DUP5 SLOAD PUSH2 0x3FCC JUMP JUMPDEST PUSH1 0x1F DUP2 GT PUSH2 0x5230 JUMPI JUMPDEST POP PUSH1 0x20 SWAP1 PUSH1 0x1F DUP4 GT PUSH1 0x1 EQ PUSH2 0x51CD JUMPI PUSH0 SWAP3 PUSH2 0x51C2 JUMPI JUMPDEST POP POP DUP2 PUSH1 0x1 SHL SWAP2 PUSH0 NOT SWAP1 PUSH1 0x3 SHL SHR NOT AND OR SWAP1 SSTORE JUMPDEST TIMESTAMP PUSH1 0x2 DUP3 ADD SSTORE PUSH1 0x82 TIMESTAMP ADD SWAP1 DUP2 TIMESTAMP GT PUSH2 0x372 JUMPI PUSH1 0x10 SWAP2 PUSH1 0x5 DUP3 ADD SSTORE PUSH1 0x1 PUSH1 0xFF NOT DUP3 SLOAD AND OR DUP2 SSTORE ADD DUP3 MLOAD PUSH1 0x1 PUSH1 0x1 PUSH1 0x40 SHL SUB DUP2 GT PUSH2 0x35E JUMPI PUSH2 0x5102 DUP3 SLOAD PUSH2 0x3FCC JUMP JUMPDEST PUSH1 0x1F DUP2 GT PUSH2 0x517D JUMPI JUMPDEST POP PUSH1 0x20 PUSH1 0x1F DUP3 GT PUSH1 0x1 EQ PUSH2 0x5138 JUMPI DUP2 SWAP3 SWAP4 SWAP5 PUSH0 SWAP3 PUSH2 0x4B7E JUMPI POP POP DUP2 PUSH1 0x1 SHL SWAP2 PUSH0 NOT SWAP1 PUSH1 0x3 SHL SHR NOT AND OR SWAP1 SSTORE JUMP JUMPDEST PUSH1 0x1F NOT DUP3 AND SWAP1 DUP4 PUSH0 MSTORE DUP1 PUSH0 KECCAK256 SWAP2 PUSH0 JUMPDEST DUP2 DUP2 LT PUSH2 0x5165 JUMPI POP SWAP6 DUP4 PUSH1 0x1 SWAP6 SWAP7 SWAP8 LT PUSH2 0x4BB7 JUMPI POP POP POP DUP2 SHL ADD SWAP1 SSTORE JUMP JUMPDEST SWAP2 SWAP3 PUSH1 0x20 PUSH1 0x1 DUP2 SWAP3 DUP7 DUP12 ADD MLOAD DUP2 SSTORE ADD SWAP5 ADD SWAP3 ADD PUSH2 0x5147 JUMP JUMPDEST DUP3 PUSH0 MSTORE PUSH1 0x20 PUSH0 KECCAK256 PUSH1 0x1F DUP4 ADD PUSH1 0x5 SHR DUP2 ADD SWAP2 PUSH1 0x20 DUP5 LT PUSH2 0x51B8 JUMPI JUMPDEST PUSH1 0x1F ADD PUSH1 0x5 SHR ADD SWAP1 JUMPDEST DUP2 DUP2 LT PUSH2 0x51AD JUMPI POP PUSH2 0x510B JUMP JUMPDEST PUSH0 DUP2 SSTORE PUSH1 0x1 ADD PUSH2 0x51A0 JUMP JUMPDEST SWAP1 SWAP2 POP DUP2 SWAP1 PUSH2 0x5197 JUMP JUMPDEST ADD MLOAD SWAP1 POP PUSH0 DUP1 PUSH2 0x50AE JUMP JUMPDEST PUSH0 DUP6 DUP2 MSTORE DUP3 DUP2 KECCAK256 SWAP4 POP PUSH1 0x1F NOT DUP6 AND SWAP1 JUMPDEST DUP2 DUP2 LT PUSH2 0x5218 JUMPI POP SWAP1 DUP5 PUSH1 0x1 SWAP6 SWAP5 SWAP4 SWAP3 LT PUSH2 0x5200 JUMPI JUMPDEST POP POP POP DUP2 SHL ADD SWAP1 SSTORE PUSH2 0x50C2 JUMP JUMPDEST ADD MLOAD PUSH0 NOT PUSH1 0xF8 DUP5 PUSH1 0x3 SHL AND SHR NOT AND SWAP1 SSTORE PUSH0 DUP1 DUP1 PUSH2 0x51F3 JUMP JUMPDEST SWAP3 SWAP4 PUSH1 0x20 PUSH1 0x1 DUP2 SWAP3 DUP8 DUP7 ADD MLOAD DUP2 SSTORE ADD SWAP6 ADD SWAP4 ADD PUSH2 0x51DD JUMP JUMPDEST SWAP1 SWAP2 POP DUP4 PUSH0 MSTORE PUSH1 0x20 PUSH0 KECCAK256 PUSH1 0x1F DUP5 ADD PUSH1 0x5 SHR DUP2 ADD SWAP2 PUSH1 0x20 DUP6 LT PUSH2 0x5276 JUMPI JUMPDEST SWAP1 PUSH1 0x1F DUP6 SWAP5 SWAP4 SWAP3 ADD PUSH1 0x5 SHR ADD SWAP1 JUMPDEST DUP2 DUP2 LT PUSH2 0x5268 JUMPI POP PUSH2 0x5098 JUMP JUMPDEST PUSH0 DUP2 SSTORE DUP5 SWAP4 POP PUSH1 0x1 ADD PUSH2 0x525B JUMP JUMPDEST SWAP1 SWAP2 POP DUP2 SWAP1 PUSH2 0x524D JUMP JUMPDEST ADD MLOAD SWAP1 POP PUSH0 DUP1 PUSH2 0x5031 JUMP JUMPDEST SWAP1 PUSH1 0x1F NOT DUP4 AND SWAP2 DUP5 PUSH0 MSTORE DUP2 PUSH0 KECCAK256 SWAP3 PUSH0 JUMPDEST DUP2 DUP2 LT PUSH2 0x52DA JUMPI POP SWAP2 PUSH1 0x1 SWAP4 SWAP2 DUP6 PUSH1 0x20 SWAP9 SWAP8 SWAP7 SWAP5 LT PUSH2 0x52C2 JUMPI JUMPDEST POP POP POP DUP2 SHL ADD SWAP1 SSTORE PUSH2 0x5045 JUMP JUMPDEST ADD MLOAD PUSH0 NOT PUSH1 0xF8 DUP5 PUSH1 0x3 SHL AND SHR NOT AND SWAP1 SSTORE PUSH0 DUP1 DUP1 PUSH2 0x52B5 JUMP JUMPDEST SWAP3 SWAP4 PUSH1 0x20 PUSH1 0x1 DUP2 SWAP3 DUP8 DUP7 ADD MLOAD DUP2 SSTORE ADD SWAP6 ADD SWAP4 ADD PUSH2 0x529B JUMP JUMPDEST DUP4 PUSH0 MSTORE PUSH1 0x20 PUSH0 KECCAK256 PUSH1 0x1F DUP5 ADD PUSH1 0x5 SHR DUP2 ADD SWAP2 PUSH1 0x20 DUP6 LT PUSH2 0x532D JUMPI JUMPDEST PUSH1 0x1F ADD PUSH1 0x5 SHR ADD SWAP1 JUMPDEST DUP2 DUP2 LT PUSH2 0x5322 JUMPI POP PUSH2 0x5014 JUMP JUMPDEST PUSH0 DUP2 SSTORE PUSH1 0x1 ADD PUSH2 0x5315 JUMP JUMPDEST SWAP1 SWAP2 POP DUP2 SWAP1 PUSH2 0x530C JUMP JUMPDEST SWAP3 SWAP1 SWAP2 SWAP3 PUSH1 0x40 MLOAD DUP1 SWAP2 PUSH2 0x5349 DUP3 PUSH2 0x3E75 JUMP JUMPDEST PUSH0 DUP3 MSTORE PUSH1 0x20 DUP3 ADD TIMESTAMP DUP2 MSTORE PUSH1 0x40 DUP4 ADD PUSH0 DUP2 MSTORE PUSH1 0x60 DUP5 ADD PUSH0 DUP2 MSTORE PUSH1 0x80 DUP6 ADD PUSH0 DUP2 MSTORE PUSH1 0xA0 DUP7 ADD PUSH0 DUP2 MSTORE PUSH1 0xC0 DUP8 ADD SWAP2 PUSH0 DUP4 MSTORE PUSH1 0xE0 DUP9 ADD SWAP4 PUSH0 DUP6 MSTORE PUSH2 0x100 DUP10 ADD SWAP6 PUSH0 DUP8 MSTORE PUSH2 0x120 DUP11 ADD SWAP8 PUSH0 DUP10 MSTORE PUSH2 0x140 DUP12 ADD SWAP10 DUP11 MSTORE PUSH2 0x160 DUP12 ADD SWAP14 DUP15 MSTORE PUSH1 0x20 SWAP15 DUP16 DUP1 SWAP2 PUSH1 0x40 MLOAD SWAP15 DUP16 PUSH2 0x53B6 DUP5 DUP3 PUSH2 0x3E91 JUMP JUMPDEST PUSH0 SWAP1 MSTORE PUSH2 0x180 ADD SWAP15 DUP16 MSTORE PUSH1 0x40 MLOAD SWAP3 DUP2 DUP5 SWAP3 MLOAD SWAP2 DUP3 SWAP2 ADD DUP4 MCOPY DUP2 ADD PUSH0 DUP2 MSTORE SUB ADD SWAP1 KECCAK256 SWAP11 MLOAD PUSH1 0x9 DUP2 LT ISZERO PUSH2 0x289A JUMPI PUSH1 0xFF DUP1 NOT DUP14 SLOAD AND SWAP2 AND OR DUP12 SSTORE MLOAD PUSH1 0x1 DUP12 ADD SSTORE MLOAD PUSH1 0x2 DUP11 ADD SSTORE MLOAD PUSH1 0x3 DUP10 ADD SSTORE MLOAD PUSH1 0x4 DUP9 ADD SSTORE MLOAD PUSH1 0x5 DUP8 ADD SSTORE MLOAD PUSH1 0x6 DUP7 ADD SSTORE MLOAD PUSH1 0x7 DUP6 ADD SSTORE MLOAD PUSH1 0x8 DUP5 ADD SSTORE MLOAD PUSH1 0x9 DUP4 ADD SSTORE PUSH1 0xA DUP3 ADD SWAP1 MLOAD SWAP1 DUP2 MLOAD DUP1 MLOAD SWAP1 PUSH1 0x1 PUSH1 0x1 PUSH1 0x40 SHL SUB DUP3 GT PUSH2 0x35E JUMPI DUP2 SWAP1 PUSH2 0x544A DUP5 SLOAD PUSH2 0x3FCC JUMP JUMPDEST PUSH1 0x1F DUP2 GT PUSH2 0x5957 JUMPI JUMPDEST POP DUP10 SWAP1 PUSH1 0x1F DUP4 GT PUSH1 0x1 EQ PUSH2 0x58F4 JUMPI PUSH0 SWAP3 PUSH2 0x58E9 JUMPI JUMPDEST POP POP DUP2 PUSH1 0x1 SHL SWAP2 PUSH0 NOT SWAP1 PUSH1 0x3 SHL SHR NOT AND OR SWAP1 SSTORE JUMPDEST PUSH1 0xB DUP3 ADD DUP7 DUP3 ADD MLOAD DUP1 MLOAD SWAP1 PUSH1 0x1 PUSH1 0x1 PUSH1 0x40 SHL SUB DUP3 GT PUSH2 0x35E JUMPI DUP2 SWAP1 PUSH2 0x54A1 DUP5 SLOAD PUSH2 0x3FCC JUMP JUMPDEST PUSH1 0x1F DUP2 GT PUSH2 0x589B JUMPI JUMPDEST POP DUP10 SWAP1 PUSH1 0x1F DUP4 GT PUSH1 0x1 EQ PUSH2 0x5838 JUMPI PUSH0 SWAP3 PUSH2 0x582D JUMPI JUMPDEST POP POP DUP2 PUSH1 0x1 SHL SWAP2 PUSH0 NOT SWAP1 PUSH1 0x3 SHL SHR NOT AND OR SWAP1 SSTORE JUMPDEST PUSH1 0x40 ADD MLOAD PUSH1 0xC DUP3 ADD DUP1 SLOAD PUSH1 0x1 PUSH1 0x1 PUSH1 0xA0 SHL SUB NOT AND PUSH1 0x1 PUSH1 0x1 PUSH1 0xA0 SHL SUB SWAP3 SWAP1 SWAP3 AND SWAP2 SWAP1 SWAP2 OR SWAP1 SSTORE SWAP3 MLOAD DUP1 MLOAD DUP1 MLOAD SWAP2 SWAP5 SWAP2 PUSH1 0xD DUP4 ADD SWAP2 PUSH1 0x1 PUSH1 0x1 PUSH1 0x40 SHL SUB DUP3 GT PUSH2 0x35E JUMPI DUP2 SWAP1 PUSH2 0x5521 DUP5 SLOAD PUSH2 0x3FCC JUMP JUMPDEST PUSH1 0x1F DUP2 GT PUSH2 0x57DF JUMPI JUMPDEST POP DUP9 SWAP1 PUSH1 0x1F DUP4 GT PUSH1 0x1 EQ PUSH2 0x577C JUMPI PUSH0 SWAP3 PUSH2 0x5771 JUMPI JUMPDEST POP POP DUP2 PUSH1 0x1 SHL SWAP2 PUSH0 NOT SWAP1 PUSH1 0x3 SHL SHR NOT AND OR SWAP1 SSTORE JUMPDEST PUSH1 0xE DUP2 ADD SWAP4 DUP6 DUP2 ADD MLOAD SWAP5 DUP6 MLOAD SWAP6 PUSH1 0x1 PUSH1 0x1 PUSH1 0x40 SHL SUB DUP8 GT PUSH2 0x35E JUMPI PUSH2 0x5578 DUP3 SLOAD PUSH2 0x3FCC JUMP JUMPDEST PUSH1 0x1F DUP2 GT PUSH2 0x572E JUMPI JUMPDEST POP DUP8 SWAP1 PUSH1 0x1F DUP9 GT PUSH1 0x1 EQ PUSH2 0x56C7 JUMPI SWAP7 DUP1 SWAP2 PUSH1 0x10 SWAP7 SWAP8 SWAP9 PUSH0 SWAP3 PUSH2 0x56BC JUMPI JUMPDEST POP POP DUP2 PUSH1 0x1 SHL SWAP2 PUSH0 NOT SWAP1 PUSH1 0x3 SHL SHR NOT AND OR SWAP1 SSTORE JUMPDEST PUSH1 0x40 ADD MLOAD PUSH1 0xF DUP3 ADD DUP1 SLOAD PUSH1 0x1 PUSH1 0x1 PUSH1 0xA0 SHL SUB NOT AND PUSH1 0x1 PUSH1 0x1 PUSH1 0xA0 SHL SUB SWAP3 SWAP1 SWAP3 AND SWAP2 SWAP1 SWAP2 OR SWAP1 SSTORE SWAP2 MLOAD DUP1 MLOAD SWAP1 SWAP5 SWAP2 SWAP1 SWAP3 ADD SWAP2 SWAP1 PUSH1 0x1 PUSH1 0x1 PUSH1 0x40 SHL SUB DUP3 GT PUSH2 0x35E JUMPI PUSH2 0x55FC DUP4 SLOAD PUSH2 0x3FCC JUMP JUMPDEST PUSH1 0x1F DUP2 GT PUSH2 0x5679 JUMPI JUMPDEST POP DUP1 PUSH1 0x1F DUP4 GT PUSH1 0x1 EQ PUSH2 0x5632 JUMPI POP DUP2 SWAP3 SWAP4 SWAP5 PUSH0 SWAP3 PUSH2 0x4B7E JUMPI POP POP DUP2 PUSH1 0x1 SHL SWAP2 PUSH0 NOT SWAP1 PUSH1 0x3 SHL SHR NOT AND OR SWAP1 SSTORE JUMP JUMPDEST SWAP1 PUSH1 0x1F NOT DUP4 AND SWAP6 DUP5 PUSH0 MSTORE DUP3 PUSH0 KECCAK256 SWAP3 PUSH0 SWAP1 JUMPDEST DUP9 DUP3 LT PUSH2 0x5661 JUMPI POP POP DUP4 PUSH1 0x1 SWAP6 SWAP7 SWAP8 LT PUSH2 0x4BB7 JUMPI POP POP POP DUP2 SHL ADD SWAP1 SSTORE JUMP JUMPDEST DUP1 PUSH1 0x1 DUP6 SWAP7 DUP3 SWAP5 SWAP7 DUP7 ADD MLOAD DUP2 SSTORE ADD SWAP6 ADD SWAP4 ADD SWAP1 PUSH2 0x5643 JUMP JUMPDEST DUP4 PUSH0 MSTORE DUP2 PUSH0 KECCAK256 PUSH1 0x1F DUP5 ADD PUSH1 0x5 SHR DUP2 ADD SWAP2 DUP4 DUP6 LT PUSH2 0x56B2 JUMPI JUMPDEST PUSH1 0x1F ADD PUSH1 0x5 SHR ADD SWAP1 JUMPDEST DUP2 DUP2 LT PUSH2 0x56A7 JUMPI POP PUSH2 0x5605 JUMP JUMPDEST PUSH0 DUP2 SSTORE PUSH1 0x1 ADD PUSH2 0x569A JUMP JUMPDEST SWAP1 SWAP2 POP DUP2 SWAP1 PUSH2 0x5691 JUMP JUMPDEST ADD MLOAD SWAP1 POP PUSH0 DUP1 PUSH2 0x559E JUMP JUMPDEST SWAP1 PUSH1 0x1F NOT DUP9 AND SWAP2 DUP4 PUSH0 MSTORE DUP10 PUSH0 KECCAK256 SWAP3 PUSH0 JUMPDEST DUP12 DUP3 DUP3 LT PUSH2 0x5718 JUMPI POP POP SWAP2 PUSH1 0x1 SWAP4 SWAP2 DUP11 PUSH1 0x10 SWAP10 SWAP11 SWAP12 SWAP5 LT PUSH2 0x5700 JUMPI JUMPDEST POP POP POP DUP2 SHL ADD SWAP1 SSTORE PUSH2 0x55B2 JUMP JUMPDEST ADD MLOAD PUSH0 NOT PUSH1 0xF8 DUP5 PUSH1 0x3 SHL AND SHR NOT AND SWAP1 SSTORE PUSH0 DUP1 DUP1 PUSH2 0x56F3 JUMP JUMPDEST PUSH1 0x1 DUP6 SWAP7 DUP3 SWAP4 SWAP7 DUP7 ADD MLOAD DUP2 SSTORE ADD SWAP6 ADD SWAP4 ADD PUSH2 0x56D7 JUMP JUMPDEST DUP3 PUSH0 MSTORE DUP9 PUSH0 KECCAK256 PUSH1 0x1F DUP10 ADD PUSH1 0x5 SHR DUP2 ADD SWAP2 DUP11 DUP11 LT PUSH2 0x5767 JUMPI JUMPDEST PUSH1 0x1F ADD PUSH1 0x5 SHR ADD SWAP1 JUMPDEST DUP2 DUP2 LT PUSH2 0x575C JUMPI POP PUSH2 0x5581 JUMP JUMPDEST PUSH0 DUP2 SSTORE PUSH1 0x1 ADD PUSH2 0x574F JUMP JUMPDEST SWAP1 SWAP2 POP DUP2 SWAP1 PUSH2 0x5746 JUMP JUMPDEST ADD MLOAD SWAP1 POP PUSH0 DUP1 PUSH2 0x553F JUMP JUMPDEST PUSH0 DUP6 DUP2 MSTORE DUP11 DUP2 KECCAK256 SWAP4 POP PUSH1 0x1F NOT DUP6 AND SWAP1 JUMPDEST DUP12 DUP3 DUP3 LT PUSH2 0x57C9 JUMPI POP POP SWAP1 DUP5 PUSH1 0x1 SWAP6 SWAP5 SWAP4 SWAP3 LT PUSH2 0x57B1 JUMPI JUMPDEST POP POP POP DUP2 SHL ADD SWAP1 SSTORE PUSH2 0x5553 JUMP JUMPDEST ADD MLOAD PUSH0 NOT PUSH1 0xF8 DUP5 PUSH1 0x3 SHL AND SHR NOT AND SWAP1 SSTORE PUSH0 DUP1 DUP1 PUSH2 0x57A4 JUMP JUMPDEST PUSH1 0x1 DUP6 SWAP7 DUP3 SWAP4 SWAP7 DUP7 ADD MLOAD DUP2 SSTORE ADD SWAP6 ADD SWAP4 ADD PUSH2 0x578C JUMP JUMPDEST SWAP1 SWAP2 POP DUP4 PUSH0 MSTORE DUP9 PUSH0 KECCAK256 PUSH1 0x1F DUP5 ADD PUSH1 0x5 SHR DUP2 ADD SWAP2 DUP11 DUP6 LT PUSH2 0x5823 JUMPI JUMPDEST SWAP1 PUSH1 0x1F DUP6 SWAP5 SWAP4 SWAP3 ADD PUSH1 0x5 SHR ADD SWAP1 JUMPDEST DUP2 DUP2 LT PUSH2 0x5815 JUMPI POP PUSH2 0x552A JUMP JUMPDEST PUSH0 DUP2 SSTORE DUP5 SWAP4 POP PUSH1 0x1 ADD PUSH2 0x5808 JUMP JUMPDEST SWAP1 SWAP2 POP DUP2 SWAP1 PUSH2 0x57FA JUMP JUMPDEST ADD MLOAD SWAP1 POP PUSH0 DUP1 PUSH2 0x54BF JUMP JUMPDEST PUSH0 DUP6 DUP2 MSTORE DUP12 DUP2 KECCAK256 SWAP4 POP PUSH1 0x1F NOT DUP6 AND SWAP1 JUMPDEST DUP13 DUP3 DUP3 LT PUSH2 0x5885 JUMPI POP POP SWAP1 DUP5 PUSH1 0x1 SWAP6 SWAP5 SWAP4 SWAP3 LT PUSH2 0x586D JUMPI JUMPDEST POP POP POP DUP2 SHL ADD SWAP1 SSTORE PUSH2 0x54D3 JUMP JUMPDEST ADD MLOAD PUSH0 NOT PUSH1 0xF8 DUP5 PUSH1 0x3 SHL AND SHR NOT AND SWAP1 SSTORE PUSH0 DUP1 DUP1 PUSH2 0x5860 JUMP JUMPDEST PUSH1 0x1 DUP6 SWAP7 DUP3 SWAP4 SWAP7 DUP7 ADD MLOAD DUP2 SSTORE ADD SWAP6 ADD SWAP4 ADD PUSH2 0x5848 JUMP JUMPDEST SWAP1 SWAP2 POP DUP4 PUSH0 MSTORE DUP10 PUSH0 KECCAK256 PUSH1 0x1F DUP5 ADD PUSH1 0x5 SHR DUP2 ADD SWAP2 DUP12 DUP6 LT PUSH2 0x58DF JUMPI JUMPDEST SWAP1 PUSH1 0x1F DUP6 SWAP5 SWAP4 SWAP3 ADD PUSH1 0x5 SHR ADD SWAP1 JUMPDEST DUP2 DUP2 LT PUSH2 0x58D1 JUMPI POP PUSH2 0x54AA JUMP JUMPDEST PUSH0 DUP2 SSTORE DUP5 SWAP4 POP PUSH1 0x1 ADD PUSH2 0x58C4 JUMP JUMPDEST SWAP1 SWAP2 POP DUP2 SWAP1 PUSH2 0x58B6 JUMP JUMPDEST ADD MLOAD SWAP1 POP PUSH0 DUP1 PUSH2 0x5468 JUMP JUMPDEST PUSH0 DUP6 DUP2 MSTORE DUP12 DUP2 KECCAK256 SWAP4 POP PUSH1 0x1F NOT DUP6 AND SWAP1 JUMPDEST DUP13 DUP3 DUP3 LT PUSH2 0x5941 JUMPI POP POP SWAP1 DUP5 PUSH1 0x1 SWAP6 SWAP5 SWAP4 SWAP3 LT PUSH2 0x5929 JUMPI JUMPDEST POP POP POP DUP2 SHL ADD SWAP1 SSTORE PUSH2 0x547C JUMP JUMPDEST ADD MLOAD PUSH0 NOT PUSH1 0xF8 DUP5 PUSH1 0x3 SHL AND SHR NOT AND SWAP1 SSTORE PUSH0 DUP1 DUP1 PUSH2 0x591C JUMP JUMPDEST PUSH1 0x1 DUP6 SWAP7 DUP3 SWAP4 SWAP7 DUP7 ADD MLOAD DUP2 SSTORE ADD SWAP6 ADD SWAP4 ADD PUSH2 0x5904 JUMP JUMPDEST SWAP1 SWAP2 POP DUP4 PUSH0 MSTORE DUP10 PUSH0 KECCAK256 PUSH1 0x1F DUP5 ADD PUSH1 0x5 SHR DUP2 ADD SWAP2 DUP12 DUP6 LT PUSH2 0x599B JUMPI JUMPDEST SWAP1 PUSH1 0x1F DUP6 SWAP5 SWAP4 SWAP3 ADD PUSH1 0x5 SHR ADD SWAP1 JUMPDEST DUP2 DUP2 LT PUSH2 0x598D JUMPI POP PUSH2 0x5453 JUMP JUMPDEST PUSH0 DUP2 SSTORE DUP5 SWAP4 POP PUSH1 0x1 ADD PUSH2 0x5980 JUMP JUMPDEST SWAP1 SWAP2 POP DUP2 SWAP1 PUSH2 0x5972 JUMP INVALID LOG2 PUSH5 0x6970667358 0x22 SLT KECCAK256 0xD7 DUP2 SWAP14 RETURN 0xE3 0xDB LOG1 GASLIMIT PUSH12 0x8478946625DD0CEE7C160939 SDIV 0xCB 0xC5 GT 0xFC POP 0xE6 SWAP3 PUSH21 0xE4CE64736F6C634300081B00330000000000000000 "},"methodIdentifiers":{"allCdobData(uint256)":"43762aa8","approveCdob(string,string,string,string,address,string)":"2b93f7f2","approveExtendCdob(string,string)":"9c6b1f10","cdobDataById(string)":"72c17cb9","certDetailById(string)":"34a34f30","createCertificateDetails((string,string,address),(string,string,address),string)":"fb5fb9a3","createUserCertificate(string,string,address)":"2e9cf827","dokuAdminById(string)":"7ab09648","dokuReSertifikasiById(string)":"5691acf7","dokuTeknisById(string)":"500619d0","extendCdob(string,uint256,(string,string,string))":"07b11c0b","getAllCdob()":"f14261d2","getAllCdobByInstance(string)":"6f12c230","getCdobDetails(string)":"7e8f8da7","getCertDetail(string)":"9aaa5d8b","getCertDetails(string)":"be2e2325","getRejectMsg(string)":"6d1aa7d5","getRejectsMsg(string)":"761fb19a","getSenderDetail(string)":"17e68309","rejectCdob(string,string,string,string,address)":"1acf2500","rejectExtendCdob(string,string)":"252006af","rejectMsgById(string)":"bf3f80ac","rejectMsgExtendById(string)":"26c6d4c5","renewExtendCdob(string)":"278b94ce","renewRequestCdob(string,(string,string),(string,string,string,string,string,string,string,string))":"a7226527","requestCdob(string,string,string,address,uint8,(string,string),(string,string,string,string,string,string,string,string))":"682053d9","updateBpomApproveDetails(string,string,(string,string,address))":"f5104ff1","updateBpomApproveExtendCertificateDetails(string,string)":"d26196fd","updateBpomExtendCertificateDetails(string,string)":"f53ef126","updateBpomRejectDetails(string,string,(string,string,address))":"e9c260d7","updateBpomRejectExtendCertificateDetails(string,string)":"ceee1067","updateExtendRenewDetails(string,uint256)":"9740dbed","updateRenewDetails(string)":"19859c87","updateRenewExtendCertificateDetails(string)":"3a947f1a"}}}}}