{"contracts/CpotbCertificate.sol":{"CpotbCertificate":{"abi":[{"inputs":[{"internalType":"uint256","name":"","type":"uint256"}],"name":"allCpotbData","outputs":[{"internalType":"string","name":"certId","type":"string"},{"internalType":"string","name":"certNumber","type":"string"},{"internalType":"string","name":"instanceName","type":"string"},{"internalType":"uint8","name":"tipePermohonan","type":"uint8"},{"internalType":"enum EnumsLibrary.StatusCertificate","name":"status","type":"uint8"},{"internalType":"string","name":"certHash","type":"string"},{"internalType":"uint256","name":"expiredTimestamp","type":"uint256"}],"stateMutability":"view","type":"function"},{"inputs":[{"internalType":"string","name":"certNumber","type":"string"},{"internalType":"string","name":"certId","type":"string"},{"internalType":"string","name":"bpomName","type":"string"},{"internalType":"string","name":"bpomInstance","type":"string"},{"internalType":"address","name":"bpomAddr","type":"address"},{"internalType":"string","name":"ipfsCert","type":"string"}],"name":"approveCpotb","outputs":[],"stateMutability":"nonpayable","type":"function"},{"inputs":[{"internalType":"string","name":"certId","type":"string"},{"internalType":"string","name":"ipfsCert","type":"string"}],"name":"approveExtendCpotb","outputs":[],"stateMutability":"nonpayable","type":"function"},{"inputs":[{"internalType":"string","name":"","type":"string"}],"name":"certDetailById","outputs":[{"internalType":"enum EnumsLibrary.StatusCertificate","name":"status","type":"uint8"},{"internalType":"uint256","name":"timestampRequest","type":"uint256"},{"internalType":"uint256","name":"timestampApprove","type":"uint256"},{"internalType":"uint256","name":"timestampRejected","type":"uint256"},{"internalType":"uint256","name":"timestampRenewRequest","type":"uint256"},{"internalType":"uint256","name":"timestampExpired","type":"uint256"},{"internalType":"uint256","name":"timestampExtendRequest","type":"uint256"},{"internalType":"uint256","name":"timestampExtendApprove","type":"uint256"},{"internalType":"uint256","name":"timestampExtendReject","type":"uint256"},{"internalType":"uint256","name":"timestampExtendRenew","type":"uint256"},{"components":[{"internalType":"string","name":"userName","type":"string"},{"internalType":"string","name":"userInstance","type":"string"},{"internalType":"address","name":"userAddr","type":"address"}],"internalType":"struct BaseCertificate.UserCert","name":"sender","type":"tuple"},{"components":[{"internalType":"string","name":"userName","type":"string"},{"internalType":"string","name":"userInstance","type":"string"},{"internalType":"address","name":"userAddr","type":"address"}],"internalType":"struct BaseCertificate.UserCert","name":"bpom","type":"tuple"},{"internalType":"string","name":"ipfsCert","type":"string"}],"stateMutability":"view","type":"function"},{"inputs":[{"internalType":"string","name":"","type":"string"}],"name":"cpotbDataById","outputs":[{"internalType":"string","name":"cpotbId","type":"string"},{"internalType":"string","name":"cpotbNumber","type":"string"},{"internalType":"uint8","name":"tipePermohonan","type":"uint8"},{"internalType":"string","name":"factoryType","type":"string"}],"stateMutability":"view","type":"function"},{"inputs":[{"components":[{"internalType":"string","name":"userName","type":"string"},{"internalType":"string","name":"userInstance","type":"string"},{"internalType":"address","name":"userAddr","type":"address"}],"internalType":"struct BaseCertificate.UserCert","name":"senderData","type":"tuple"},{"components":[{"internalType":"string","name":"userName","type":"string"},{"internalType":"string","name":"userInstance","type":"string"},{"internalType":"address","name":"userAddr","type":"address"}],"internalType":"struct BaseCertificate.UserCert","name":"bpomData","type":"tuple"},{"internalType":"string","name":"certId","type":"string"}],"name":"createCertificateDetails","outputs":[],"stateMutability":"nonpayable","type":"function"},{"inputs":[{"internalType":"string","name":"userName","type":"string"},{"internalType":"string","name":"userInstance","type":"string"},{"internalType":"address","name":"userAddr","type":"address"}],"name":"createUserCertificate","outputs":[{"components":[{"internalType":"string","name":"userName","type":"string"},{"internalType":"string","name":"userInstance","type":"string"},{"internalType":"address","name":"userAddr","type":"address"}],"internalType":"struct BaseCertificate.UserCert","name":"","type":"tuple"}],"stateMutability":"pure","type":"function"},{"inputs":[{"internalType":"string","name":"","type":"string"}],"name":"dokuAdminById","outputs":[{"internalType":"string","name":"suratPermohonan","type":"string"},{"internalType":"string","name":"buktiPembayaranNegaraBukanPajak","type":"string"},{"internalType":"string","name":"suratKomitmen","type":"string"}],"stateMutability":"view","type":"function"},{"inputs":[{"internalType":"string","name":"","type":"string"}],"name":"dokuReSertifikasiById","outputs":[{"internalType":"string","name":"suratPermohonan","type":"string"},{"internalType":"string","name":"buktiPembayaranNegaraBukanPajak","type":"string"},{"internalType":"string","name":"denahBangunan","type":"string"},{"internalType":"string","name":"sistemMutu","type":"string"},{"internalType":"string","name":"cpotbIpfs","type":"string"},{"internalType":"string","name":"dokumenCapa","type":"string"}],"stateMutability":"view","type":"function"},{"inputs":[{"internalType":"string","name":"","type":"string"}],"name":"dokuTeknisById","outputs":[{"internalType":"string","name":"denahBangunan","type":"string"},{"internalType":"string","name":"sistemMutu","type":"string"}],"stateMutability":"view","type":"function"},{"inputs":[{"internalType":"string","name":"certId","type":"string"},{"internalType":"uint256","name":"expTimestamp","type":"uint256"},{"components":[{"internalType":"string","name":"suratPermohonan","type":"string"},{"internalType":"string","name":"buktiPembayaranNegaraBukanPajak","type":"string"},{"internalType":"string","name":"denahBangunan","type":"string"},{"internalType":"string","name":"sistemMutu","type":"string"},{"internalType":"string","name":"cpotbIpfs","type":"string"},{"internalType":"string","name":"dokumenCapa","type":"string"}],"internalType":"struct CpotbCertificate.DokumenReSertifikasi","name":"newDoku","type":"tuple"}],"name":"extendCpotb","outputs":[],"stateMutability":"nonpayable","type":"function"},{"inputs":[],"name":"getAllCpotb","outputs":[{"components":[{"internalType":"string","name":"certId","type":"string"},{"internalType":"string","name":"certNumber","type":"string"},{"internalType":"string","name":"instanceName","type":"string"},{"internalType":"uint8","name":"tipePermohonan","type":"uint8"},{"internalType":"enum EnumsLibrary.StatusCertificate","name":"status","type":"uint8"},{"internalType":"string","name":"certHash","type":"string"},{"internalType":"uint256","name":"expiredTimestamp","type":"uint256"}],"internalType":"struct CpotbCertificate.CertificateList[]","name":"","type":"tuple[]"}],"stateMutability":"view","type":"function"},{"inputs":[{"internalType":"string","name":"instanceName","type":"string"}],"name":"getAllCpotbByInstance","outputs":[{"components":[{"internalType":"string","name":"certId","type":"string"},{"internalType":"string","name":"certNumber","type":"string"},{"internalType":"string","name":"instanceName","type":"string"},{"internalType":"uint8","name":"tipePermohonan","type":"uint8"},{"internalType":"enum EnumsLibrary.StatusCertificate","name":"status","type":"uint8"},{"internalType":"string","name":"certHash","type":"string"},{"internalType":"uint256","name":"expiredTimestamp","type":"uint256"}],"internalType":"struct CpotbCertificate.CertificateList[]","name":"","type":"tuple[]"}],"stateMutability":"view","type":"function"},{"inputs":[{"internalType":"string","name":"certId","type":"string"}],"name":"getCertDetail","outputs":[{"components":[{"internalType":"enum EnumsLibrary.StatusCertificate","name":"status","type":"uint8"},{"internalType":"uint256","name":"timestampRequest","type":"uint256"},{"internalType":"uint256","name":"timestampApprove","type":"uint256"},{"internalType":"uint256","name":"timestampRejected","type":"uint256"},{"internalType":"uint256","name":"timestampRenewRequest","type":"uint256"},{"internalType":"uint256","name":"timestampExpired","type":"uint256"},{"internalType":"uint256","name":"timestampExtendRequest","type":"uint256"},{"internalType":"uint256","name":"timestampExtendApprove","type":"uint256"},{"internalType":"uint256","name":"timestampExtendReject","type":"uint256"},{"internalType":"uint256","name":"timestampExtendRenew","type":"uint256"},{"components":[{"internalType":"string","name":"userName","type":"string"},{"internalType":"string","name":"userInstance","type":"string"},{"internalType":"address","name":"userAddr","type":"address"}],"internalType":"struct BaseCertificate.UserCert","name":"sender","type":"tuple"},{"components":[{"internalType":"string","name":"userName","type":"string"},{"internalType":"string","name":"userInstance","type":"string"},{"internalType":"address","name":"userAddr","type":"address"}],"internalType":"struct BaseCertificate.UserCert","name":"bpom","type":"tuple"},{"internalType":"string","name":"ipfsCert","type":"string"}],"internalType":"struct BaseCertificate.CertificateDetails","name":"","type":"tuple"}],"stateMutability":"view","type":"function"},{"inputs":[{"internalType":"string","name":"certId","type":"string"}],"name":"getCertDetails","outputs":[{"components":[{"internalType":"enum EnumsLibrary.StatusCertificate","name":"status","type":"uint8"},{"internalType":"uint256","name":"timestampRequest","type":"uint256"},{"internalType":"uint256","name":"timestampApprove","type":"uint256"},{"internalType":"uint256","name":"timestampRejected","type":"uint256"},{"internalType":"uint256","name":"timestampRenewRequest","type":"uint256"},{"internalType":"uint256","name":"timestampExpired","type":"uint256"},{"internalType":"uint256","name":"timestampExtendRequest","type":"uint256"},{"internalType":"uint256","name":"timestampExtendApprove","type":"uint256"},{"internalType":"uint256","name":"timestampExtendReject","type":"uint256"},{"internalType":"uint256","name":"timestampExtendRenew","type":"uint256"},{"components":[{"internalType":"string","name":"userName","type":"string"},{"internalType":"string","name":"userInstance","type":"string"},{"internalType":"address","name":"userAddr","type":"address"}],"internalType":"struct BaseCertificate.UserCert","name":"sender","type":"tuple"},{"components":[{"internalType":"string","name":"userName","type":"string"},{"internalType":"string","name":"userInstance","type":"string"},{"internalType":"address","name":"userAddr","type":"address"}],"internalType":"struct BaseCertificate.UserCert","name":"bpom","type":"tuple"},{"internalType":"string","name":"ipfsCert","type":"string"}],"internalType":"struct BaseCertificate.CertificateDetails","name":"","type":"tuple"}],"stateMutability":"view","type":"function"},{"inputs":[{"internalType":"string","name":"certId","type":"string"}],"name":"getCpotbDetails","outputs":[{"components":[{"internalType":"string","name":"cpotbId","type":"string"},{"internalType":"string","name":"cpotbNumber","type":"string"},{"internalType":"uint8","name":"tipePermohonan","type":"uint8"},{"internalType":"string","name":"factoryType","type":"string"}],"internalType":"struct CpotbCertificate.CpotbData","name":"","type":"tuple"},{"components":[{"internalType":"string","name":"suratPermohonan","type":"string"},{"internalType":"string","name":"buktiPembayaranNegaraBukanPajak","type":"string"},{"internalType":"string","name":"suratKomitmen","type":"string"}],"internalType":"struct CpotbCertificate.DokumenAdministrasi","name":"","type":"tuple"},{"components":[{"internalType":"string","name":"denahBangunan","type":"string"},{"internalType":"string","name":"sistemMutu","type":"string"}],"internalType":"struct CpotbCertificate.DokumenTeknis","name":"","type":"tuple"},{"components":[{"internalType":"string","name":"suratPermohonan","type":"string"},{"internalType":"string","name":"buktiPembayaranNegaraBukanPajak","type":"string"},{"internalType":"string","name":"denahBangunan","type":"string"},{"internalType":"string","name":"sistemMutu","type":"string"},{"internalType":"string","name":"cpotbIpfs","type":"string"},{"internalType":"string","name":"dokumenCapa","type":"string"}],"internalType":"struct CpotbCertificate.DokumenReSertifikasi","name":"","type":"tuple"}],"stateMutability":"view","type":"function"},{"inputs":[{"internalType":"string","name":"certId","type":"string"}],"name":"getRejectMsg","outputs":[{"internalType":"string","name":"","type":"string"},{"internalType":"string","name":"","type":"string"}],"stateMutability":"view","type":"function"},{"inputs":[{"internalType":"string","name":"certId","type":"string"}],"name":"getRejectsMsg","outputs":[{"internalType":"string","name":"","type":"string"},{"internalType":"string","name":"","type":"string"}],"stateMutability":"view","type":"function"},{"inputs":[{"internalType":"string","name":"certId","type":"string"}],"name":"getSenderDetail","outputs":[{"components":[{"internalType":"string","name":"userName","type":"string"},{"internalType":"string","name":"userInstance","type":"string"},{"internalType":"address","name":"userAddr","type":"address"}],"internalType":"struct BaseCertificate.UserCert","name":"","type":"tuple"}],"stateMutability":"view","type":"function"},{"inputs":[{"internalType":"string","name":"certId","type":"string"},{"internalType":"string","name":"rejectMsg","type":"string"},{"internalType":"string","name":"bpomName","type":"string"},{"internalType":"string","name":"bpomInstance","type":"string"},{"internalType":"address","name":"bpomAddr","type":"address"}],"name":"rejectCpotb","outputs":[],"stateMutability":"nonpayable","type":"function"},{"inputs":[{"internalType":"string","name":"certId","type":"string"},{"internalType":"string","name":"rejectExtendMsg","type":"string"}],"name":"rejectExtendCpotb","outputs":[],"stateMutability":"nonpayable","type":"function"},{"inputs":[{"internalType":"string","name":"","type":"string"}],"name":"rejectMsgById","outputs":[{"internalType":"string","name":"","type":"string"}],"stateMutability":"view","type":"function"},{"inputs":[{"internalType":"string","name":"","type":"string"}],"name":"rejectMsgExtendById","outputs":[{"internalType":"string","name":"","type":"string"}],"stateMutability":"view","type":"function"},{"inputs":[{"internalType":"string","name":"certId","type":"string"}],"name":"renewExtendCpotb","outputs":[],"stateMutability":"nonpayable","type":"function"},{"inputs":[{"internalType":"string","name":"certId","type":"string"},{"components":[{"internalType":"string","name":"suratPermohonan","type":"string"},{"internalType":"string","name":"buktiPembayaranNegaraBukanPajak","type":"string"},{"internalType":"string","name":"suratKomitmen","type":"string"}],"internalType":"struct CpotbCertificate.DokumenAdministrasi","name":"newDokuAdmin","type":"tuple"},{"components":[{"internalType":"string","name":"denahBangunan","type":"string"},{"internalType":"string","name":"sistemMutu","type":"string"}],"internalType":"struct CpotbCertificate.DokumenTeknis","name":"newDokuTeknis","type":"tuple"}],"name":"renewRequestCpotb","outputs":[],"stateMutability":"nonpayable","type":"function"},{"inputs":[{"internalType":"string","name":"certId","type":"string"},{"internalType":"string","name":"factoryName","type":"string"},{"internalType":"string","name":"factoryInstance","type":"string"},{"internalType":"address","name":"factoryAddr","type":"address"},{"internalType":"uint8","name":"jenisSediaan","type":"uint8"},{"internalType":"string","name":"factoryType","type":"string"},{"components":[{"internalType":"string","name":"suratPermohonan","type":"string"},{"internalType":"string","name":"buktiPembayaranNegaraBukanPajak","type":"string"},{"internalType":"string","name":"suratKomitmen","type":"string"}],"internalType":"struct CpotbCertificate.DokumenAdministrasi","name":"dokuAdmin","type":"tuple"},{"components":[{"internalType":"string","name":"denahBangunan","type":"string"},{"internalType":"string","name":"sistemMutu","type":"string"}],"internalType":"struct CpotbCertificate.DokumenTeknis","name":"dokuTeknis","type":"tuple"}],"name":"requestCpotb","outputs":[],"stateMutability":"nonpayable","type":"function"},{"inputs":[{"internalType":"string","name":"certId","type":"string"},{"internalType":"string","name":"ipfsCert","type":"string"},{"components":[{"internalType":"string","name":"userName","type":"string"},{"internalType":"string","name":"userInstance","type":"string"},{"internalType":"address","name":"userAddr","type":"address"}],"internalType":"struct BaseCertificate.UserCert","name":"bpomData","type":"tuple"}],"name":"updateBpomApproveDetails","outputs":[],"stateMutability":"nonpayable","type":"function"},{"inputs":[{"internalType":"string","name":"certId","type":"string"},{"internalType":"string","name":"ipfsCert","type":"string"}],"name":"updateBpomApproveExtendCertificateDetails","outputs":[],"stateMutability":"nonpayable","type":"function"},{"inputs":[{"internalType":"string","name":"certId","type":"string"},{"internalType":"string","name":"ipfsCert","type":"string"}],"name":"updateBpomExtendCertificateDetails","outputs":[],"stateMutability":"nonpayable","type":"function"},{"inputs":[{"internalType":"string","name":"certId","type":"string"},{"internalType":"string","name":"rejectMsg","type":"string"},{"components":[{"internalType":"string","name":"userName","type":"string"},{"internalType":"string","name":"userInstance","type":"string"},{"internalType":"address","name":"userAddr","type":"address"}],"internalType":"struct BaseCertificate.UserCert","name":"bpomData","type":"tuple"}],"name":"updateBpomRejectDetails","outputs":[],"stateMutability":"nonpayable","type":"function"},{"inputs":[{"internalType":"string","name":"certId","type":"string"},{"internalType":"string","name":"rejectMsg","type":"string"}],"name":"updateBpomRejectExtendCertificateDetails","outputs":[],"stateMutability":"nonpayable","type":"function"},{"inputs":[{"internalType":"string","name":"certId","type":"string"},{"internalType":"uint256","name":"expiredTimestamp","type":"uint256"}],"name":"updateExtendRenewDetails","outputs":[],"stateMutability":"nonpayable","type":"function"},{"inputs":[{"internalType":"string","name":"certId","type":"string"}],"name":"updateRenewDetails","outputs":[],"stateMutability":"nonpayable","type":"function"},{"inputs":[{"internalType":"string","name":"certId","type":"string"}],"name":"updateRenewExtendCertificateDetails","outputs":[],"stateMutability":"nonpayable","type":"function"}],"evm":{"bytecode":{"linkReferences":{},"object":"6080806040523460155761533d908161001a8239f35b5f80fdfe60806040526004361015610011575f80fd5b5f3560e01c806317e68309146137a457806319859c871461376c57806326c6d4c5146137165780632e9cf8271461369257806334a34f301461357057806335d8c341146134a85780633a947f1a146134705780633bb6ff3f146133c85780634ad8f1a414612b51578063500619d014612af15780635691acf7146129f15780635850607c1461298957806364b409ff146119ff5780636aa812991461194b5780636d1aa7d51461155657806370c056b01461159e578063761fb19a146115565780637ab09648146114af57806381fc60a5146113405780639740dbed146113045780639aaa5d8b146112c9578063b073043614611201578063b9e4908014610d53578063be2e232514610d03578063bf3f80ac14610c95578063ceee106714610c7e578063d26196fd14610c67578063e462dde514610b2e578063e8002b2714610488578063e9c260d714610471578063f02f5f231461039d578063f5104ff114610386578063f53ef1261461020e5763fb5fb9a31461018f575f80fd5b3461020a57606036600319011261020a576004356001600160401b03811161020a576101bf903690600401613d9e565b6024356001600160401b03811161020a576101de903690600401613d9e565b90604435916001600160401b03831161020a576102026102089336906004016138c9565b91614c99565b005b5f80fd5b3461020a5760208061021f36613aba565b9290604051928184925191829101835e81015f8152030190204260028201556082420190814211610372576010916005820155600660ff198254161781550181516001600160401b03811161035e576102788254613980565b601f8111610319575b50602092601f82116001146102bd57928192935f926102b2575b50505f19600383901b1c191660019190911b179055005b01519050838061029b565b601f19821693835f52805f20915f5b86811061030157508360019596106102e9575b505050811b019055005b01515f1960f88460031b161c191690558380806102df565b919260206001819286850151815501940192016102cc565b825f5260205f20601f830160051c81019160208410610354575b601f0160051c01905b8181106103495750610281565b5f815560010161033c565b9091508190610333565b634e487b7160e01b5f52604160045260245ffd5b634e487b7160e01b5f52601160045260245ffd5b3461020a5761020861039736613e16565b9161492b565b3461020a57602036600319011261020a5760043560035481101561020a576103c761042491613e7e565b506103d1816139b8565b906104676103e1600183016139b8565b916103ee600282016139b8565b9061045a610440600383015493610432600561040c600487016139b8565b950154976040519a8b9a60e08c5260e08c019061391e565b908a820360208c015261391e565b9088820360408a015261391e565b9260ff8116606088015260ff608088019160081c16613aad565b84820360a086015261391e565b9060c08301520390f35b3461020a5761020861048236613e16565b9161458e565b3461020a57606036600319011261020a576004356001600160401b03811161020a576104b89036906004016138c9565b6024356001600160401b03811161020a576104d7903690600401613bfc565b906044356001600160401b03811161020a576104f7903690600401613c7f565b61050082613ece565b6003549160208101905f5b84811061051457005b61051d81613e7e565b5060405161054181610533602082018095613f2c565b03601f1981018352826138a8565b519020604051602081019061056e6020828751808a875e81015f838201520301601f1981018352826138a8565b5190201461057f575b60010161050b565b600361058a82613e7e565b5001805461ff0019166103001790556105b460206105a783613e7e565b5060405192838092613f2c565b600581520301902086518051906001600160401b03821161035e5781906105db8454613980565b601f8111610ade575b50602090601f8311600114610a7b575f92610a70575b50508160011b915f199060031b1c19161781555b6001810160208801518051906001600160401b03821161035e576106328354613980565b601f8111610a2b575b50602090601f83116001146109c4576002949392915f91836109b9575b50508160011b915f199060031b1c19161790555b0160408701518051906001600160401b03821161035e57819061068f8454613980565b601f8111610969575b50602090601f8311600114610906575f926108fb575b50508160011b915f199060031b1c19161790555b6106d060206105a783613e7e565b600681520301902084518051906001600160401b03821161035e576106f58354613980565b601f81116108b6575b50602090601f83116001146108505760019392915f9183610845575b50505f19600383901b1c191690831b1781555b0160208501518051906001600160401b03821161035e5761074e8354613980565b601f8111610800575b50602090601f8311600114610799576001949392915f918361078e575b50505f19600383901b1c191690841b1790555b9050610577565b015190508a80610774565b90601f19831691845f52815f20925f5b8181106107e85750916001969594929183889593106107d0575b505050811b019055610787565b01515f1960f88460031b161c191690558a80806107c3565b929360206001819287860151815501950193016107a9565b835f5260205f20601f840160051c8101916020851061083b575b601f0160051c01905b8181106108305750610757565b5f8155600101610823565b909150819061081a565b015190508a8061071a565b90601f19831691845f52815f20925f5b81811061089e5750916001959492918387959310610886575b505050811b01815561072d565b01515f1960f88460031b161c191690558a8080610879565b92936020600181928786015181550195019301610860565b835f5260205f20601f840160051c810191602085106108f1575b601f0160051c01905b8181106108e657506106fe565b5f81556001016108d9565b90915081906108d0565b0151905089806106ae565b5f8581528281209350601f198516905b8181106109515750908460019594939210610939575b505050811b0190556106c2565b01515f1960f88460031b161c1916905589808061092c565b92936020600181928786015181550195019301610916565b909150835f5260205f20601f840160051c810191602085106109af575b90601f859493920160051c01905b8181106109a15750610698565b5f8155849350600101610994565b9091508190610986565b015190508b80610658565b90601f19831691845f52815f20925f5b818110610a135750916001939185600298979694106109fb575b505050811b01905561066c565b01515f1960f88460031b161c191690558b80806109ee565b929360206001819287860151815501950193016109d4565b835f5260205f20601f840160051c81019160208510610a66575b601f0160051c01905b818110610a5b575061063b565b5f8155600101610a4e565b9091508190610a45565b0151905089806105fa565b5f8581528281209350601f198516905b818110610ac65750908460019594939210610aae575b505050811b01815561060e565b01515f1960f88460031b161c19169055898080610aa1565b92936020600181928786015181550195019301610a8b565b909150835f5260205f20601f840160051c81019160208510610b24575b90601f859493920160051c01905b818110610b1657506105e4565b5f8155849350600101610b09565b9091508190610afb565b3461020a5760a036600319011261020a576004356001600160401b03811161020a57610b5e9036906004016138c9565b6024356001600160401b03811161020a57610b7d9036906004016138c9565b6044356001600160401b03811161020a57610b9c9036906004016138c9565b906064356001600160401b03811161020a57610bd892610bc3610bd19236906004016138c9565b610bcb613a58565b91613efc565b908361458e565b600354602082015f5b828110610bea57005b80610bf6600192613e7e565b50604051610c0c81610533602082018095613f2c565b5190206040516020810190610c396020828a51808a875e81015f838201520301601f1981018352826138a8565b51902014610c48575b01610be1565b6003610c5382613e7e565b5001805461ff001916610200179055610c42565b3461020a57610208610c7836613aba565b9061444b565b3461020a57610208610c8f36613aba565b90614300565b3461020a57602036600319011261020a576004356001600160401b03811161020a57610ceb602080610cce610cff9436906004016138c9565b604051928184925191829101835e810160018152030190206139b8565b60405191829160208352602083019061391e565b0390f35b3461020a57602036600319011261020a576004356001600160401b03811161020a57610d47610d39610cff9236906004016138c9565b610d416141c0565b5061422d565b60405191829182613cd9565b3461020a5760c036600319011261020a576004356001600160401b03811161020a57610d839036906004016138c9565b6024356001600160401b03811161020a57610da29036906004016138c9565b6044356001600160401b03811161020a57610dc19036906004016138c9565b6064356001600160401b03811161020a57610de09036906004016138c9565b610de8613a58565b60a435916001600160401b03831161020a57610e0b610e119336906004016138c9565b93613efc565b604051906001845192602081818801958087835e810160048152030190200185516001600160401b03811161035e57610e4a8254613980565b601f81116111bc575b506020601f8211600114611155579080610e8a9493925f9161114a575b508160011b915f199060031b1c19161790555b838561492b565b600354925f5b848110610e9957005b610ea281613e7e565b50604051610eb881610533602082018095613f2c565b5190206040516020810190610ee56020828751808a875e81015f838201520301601f1981018352826138a8565b51902014610ef6575b600101610e90565b6001610f0182613e7e565b500186516001600160401b03811161035e57610f1d8254613980565b601f8111611105575b50806020601f82116001146110a2575f91611097575b508160011b915f199060031b1c19161790555b6003610f5a82613e7e565b5001805461ff0019166101001790556004610f7482613e7e565b500184516001600160401b03811161035e57610f908254613980565b601f8111611052575b50806020601f8211600114610ff1575f91610fe6575b508160011b915f199060031b1c19161790555b6082420190814211610372576001916005610fdc83613e7e565b5001559050610eee565b905086015189610faf565b5f8481528181209250601f198416905b81811061103a57509083600194939210611022575b5050811b019055610fc2565b8801515f1960f88460031b161c191690558980611016565b9192602060018192868d015181550194019201611001565b825f5260205f20601f830160051c8101916020841061108d575b601f0160051c01905b8181106110825750610f99565b5f8155600101611075565b909150819061106c565b905088015189610f3c565b5f8481528181209250601f198416905b8b8282106110ed57505090836001949392106110d5575b5050811b019055610f4f565b8a01515f1960f88460031b161c1916905589806110c9565b600184956020939584930151815501940192016110b2565b825f5260205f20601f830160051c81019160208410611140575b601f0160051c01905b8181106111355750610f26565b5f8155600101611128565b909150819061111f565b905088015189610e70565b601f19821690835f52805f20915f5b8a8282106111a4575050918391610e8a9695946001941061118c575b5050811b019055610e83565b8a01515f1960f88460031b161c191690558980611180565b60018495602093958493015181550194019201611164565b825f5260205f20601f830160051c810191602084106111f7575b601f0160051c01905b8181106111ec5750610e53565b5f81556001016111df565b90915081906111d6565b3461020a5761121a61121236613aba565b81929161444b565b6003549060208101905f5b83811061122e57005b61123781613e7e565b5060405161124d81610533602082018095613f2c565b519020604051602081019061127a6020828751808a875e81015f838201520301601f1981018352826138a8565b5190201461128b575b600101611225565b600361129682613e7e565b500161060061ff001982541617905560824201908142116103725760019160056112bf83613e7e565b5001559050611283565b3461020a57602036600319011261020a576004356001600160401b03811161020a57610d476112ff610cff9236906004016138c9565b61422d565b3461020a57604036600319011261020a576004356001600160401b03811161020a576113376102089136906004016138c9565b60243590614145565b3461020a57602036600319011261020a576004356001600160401b03811161020a576113709036906004016138c9565b60035460208201915f805b83811061144c575060ff61138f9116613fdb565b925f915f5b8481106113a95760405180610cff8882613b2c565b60026105336113ce6113ba84613e7e565b506040519283916020830195869101613f2c565b51902060405160208101906113fb6020828751808a875e81015f838201520301601f1981018352826138a8565b5190201461140c575b600101611394565b9261144460019161143e61142861142288613e7e565b50614078565b60ff831690611437828c614058565b5289614058565b506140ef565b939050611404565b600261053361145d6113ba84613e7e565b519020604051602081019061148a6020828851808c875e81015f838201520301601f1981018352826138a8565b5190201461149b575b60010161137b565b906114a76001916140ef565b919050611493565b3461020a57602036600319011261020a576004356001600160401b03811161020a576020806114e561153a9336906004016138c9565b604051928184925191829101835e81016005815203019020610cff611509826139b8565b91611548611525600261151e600185016139b8565b93016139b8565b9160405195869560608752606087019061391e565b90858203602087015261391e565b90838203604085015261391e565b3461020a57602036600319011261020a576004356001600160401b03811161020a5761158961158e9136906004016138c9565b614100565b90610cff60405192839283613b07565b3461020a57602036600319011261020a576004356001600160401b03811161020a576115ce9036906004016138c9565b6040516115da81613820565b606081526020810160609052604081015f90526060016060905260405161160081613856565b6060815260208101606090526040016060905260405161161f81613871565b606081526020016060905260405161163681613805565b60608152602081016060905260408101606090526060810160609052608081016060905260a00160609052604051908051918060208301938085835e810160048152036020019020906040518082518086835e810160058152036020019020926040518083518084835e81016006815203602001902091604051918291518091835e81016007815203602001902092604051936116d285613820565b6116db846139b8565b85526116e9600185016139b8565b9360208601948552600281015460ff16906040870191825260030161170d906139b8565b92606087019384526040519461172286613856565b61172b826139b8565b8652611739600183016139b8565b916020870192835260020161174d906139b8565b90604087019182526040519061176282613871565b61176b816139b8565b8252600101611779906139b8565b602082019081526040519761178d89613805565b611796876139b8565b89526117a4600188016139b8565b60208a01908152936117b8600289016139b8565b60408b01908152956117cc60038a016139b8565b60608c01908152976117e060048b016139b8565b9960808d019a8b526005016117f4906139b8565b9a60a08d019b8c526040519e8f9e8f9160808352516080830160809052610100830161181f9161391e565b9051828203607f190160a0840152611837919061391e565b925160ff1660c090910152518d8203607f190160e08f0152611859919061391e565b928c80850390602001525160608452606084016118759161391e565b90519083810360208501526118899161391e565b905191808203906040015261189d9161391e565b9189830360408b01525160408352604083016118b89161391e565b90519180820390602001526118cc9161391e565b9587870360608901525160c0875260c087016118e79161391e565b90519086810360208801526118fb9161391e565b905190858103604087015261190f9161391e565b90519084810360608601526119239161391e565b90519083810360808501526119379161391e565b9051918082039060a00152610cff9161391e565b3461020a57602036600319011261020a576004356001600160401b03811161020a576020806119816119de9336906004016138c9565b604051928184925191829101835e81016004815203019020610cff6119a5826139b8565b916119b2600182016139b8565b6119ec6119c9600360ff60028601541694016139b8565b9160405196879660808852608088019061391e565b90868203602088015261391e565b916040850152838203606085015261391e565b3461020a5761010036600319011261020a576004356001600160401b03811161020a57611a309036906004016138c9565b6024356001600160401b03811161020a57611a4f9036906004016138c9565b6044356001600160401b03811161020a57611a6e9036906004016138c9565b916064356001600160a01b038116810361020a576084359360ff851680950361020a5760a4356001600160401b03811161020a57611ab09036906004016138c9565b9460c4356001600160401b03811161020a57611ad0903690600401613bfc565b9260e435906001600160401b03821161020a5783611af5611afb933690600401613c7f565b97613efc565b95611b4b8560209860405190611b118b836138a8565b5f8252604051611b218c826138a8565b5f8152611b2c613eae565b5060405192611b3a84613856565b83528b8301525f6040830152614c99565b604051611b5781613820565b858152604051611b6789826138a8565b5f81528882019081526040820190848252606083019384526040518a818a5180838d01835e8101600481520301902092518051906001600160401b03821161035e5781908c611bb68754613980565b601f8111612938575b50508c908d601f84116001146128d457505f926128c9575b50508160011b915f199060031b1c19161783555b51805160018401916001600160401b03821161035e578b611c0c8454613980565b601f8111612884575b50508b908c601f84116001146128195750918060ff949260039796945f9261280e575b50508160011b915f1990881b1c19161790555b511660ff60028301911660ff198254161790550190518051906001600160401b03821161035e578190611c7e8454613980565b601f81116127c0575b508990601f831160011461275d575f92612752575b50508160011b915f199060031b1c19161790555b60405190611cbd8261383b565b84825260405192611cce88856138a8565b5f8452878301938452604083015260608201525f6080820152604051611cf487826138a8565b5f815260a08201525f60c08201526003546801000000000000000081101561035e57806001611d269201600355613e7e565b92909261273f5781518051906001600160401b03821161035e578190611d4c8654613980565b601f81116126f1575b508990601f831160011461268e575f92612683575b50508160011b915f199060031b1c19161783555b518051906001600160401b03821161035e578190611d9f6001860154613980565b601f8111612632575b508890601f83116001146125c8575f926125bd575b50508160011b915f199060031b1c19161760018301555b6002820160408201518051906001600160401b03821161035e578190611dfa8454613980565b601f811161256f575b508990601f831160011461250c575f92612501575b50508160011b915f199060031b1c19161790555b6003820160ff806060840151161660ff19825416178155608082015160098110156124ed5761ff0082549160081b169061ff0019161790556004820160a08201518051906001600160401b03821161035e57611e888354613980565b601f81116124aa575b508890601f831160011461244157918060c09492600596945f92612436575b50508160011b915f199060031b1c19161790555b01519101556040518481845180838701835e8101600581520301902081518051906001600160401b03821161035e578190611eff8454613980565b601f81116123e8575b508790601f8311600114612385575f9261237a575b50508160011b915f199060031b1c19161781555b60018101858301518051906001600160401b03821161035e57611f548354613980565b601f8111612337575b508790601f83116001146122ce57918060029492604096945f926122c3575b50508160011b915f199060031b1c19161790555b01910151918251916001600160401b03831161035e578592611fb28254613980565b94601f861161226c575b8495508490601f8311600114612205575f9190836121fa575b50508160011b915f199060031b1c19161790555b604051928184925191829101835e8101600681520301902081519081516001600160401b03811161035e5784926120208354613980565b601f81116121a8575b508390601f83116001146121425760019392915f9183612137575b50505f19600383901b1c191690831b1781555b01910151918251906001600160401b03821161035e576120778354613980565b601f81116120f4575b5080601f83116001146120ae57508192935f926102b25750505f19600383901b1c191660019190911b179055005b90601f19831694845f52825f20925f905b8782106120dc5750508360019596106102e957505050811b019055005b806001859682949686015181550195019301906120bf565b835f52815f20601f840160051c81019183851061212d575b601f0160051c01905b8181106121225750612080565b5f8155600101612115565b909150819061210c565b015190508780612044565b90601f19831691845f52855f20925f5b8782821061219257505091600195949291838795931061217a575b505050811b018155612057565b01515f1960f88460031b161c1916905587808061216d565b6001859682939686015181550195019301612152565b9091928094505f52855f20601f840160051c8101918785106121f0575b90601f8896959493920160051c01905b8181106121e25750612029565b5f81558795506001016121d5565b90915081906121c5565b015190508880611fd5565b601f95949392919519821695835f52855f20915f5b8881106122545750836001959697981061223c575b505050811b019055611fe9565b01515f1960f88460031b161c1916905588808061222f565b8282015184558997600190940193928301920161221a565b918094505f9591939552865f20601f840160051c8101918885106122b9575b90601f899694979593920160051c01905b8181106122ab57505084611fbc565b5f815588955060010161229c565b909150819061228b565b015190508a80611f7c565b90601f19831691845f52895f20925f5b8b828210612321575050926001928592604098966002989610612309575b505050811b019055611f90565b01515f1960f88460031b161c191690558a80806122fc565b60018596829396860151815501950193016122de565b835f52885f20601f840160051c8101918a8510612370575b601f0160051c01905b8181106123655750611f5d565b5f8155600101612358565b909150819061234f565b015190508780611f1d565b5f8581528981209350601f198516905b8a8282106123d25750509084600195949392106123ba575b505050811b018155611f31565b01515f1960f88460031b161c191690558780806123ad565b6001859682939686015181550195019301612395565b909150835f52875f20601f840160051c81019189851061242c575b90601f859493920160051c01905b81811061241e5750611f08565b5f8155849350600101612411565b9091508190612403565b015190508b80611eb0565b90601f19831691845f528a5f20925f5b8c8282106124945750509260019285926005989660c098961061247c575b505050811b019055611ec4565b01515f1960f88460031b161c191690558b808061246f565b6001859682939686015181550195019301612451565b835f52895f20601f840160051c8101918b85106124e3575b601f0160051c01905b8181106124d85750611e91565b5f81556001016124cb565b90915081906124c2565b634e487b7160e01b5f52602160045260245ffd5b015190508980611e18565b5f8581528b81209350601f198516905b8c828210612559575050908460019594939210612541575b505050811b019055611e2c565b01515f1960f88460031b161c19169055898080612534565b600185968293968601518155019501930161251c565b909150835f52895f20601f840160051c8101918b85106125b3575b90601f859493920160051c01905b8181106125a55750611e03565b5f8155849350600101612598565b909150819061258a565b015190508880611dbd565b600186015f9081528a81209350601f198516905b8b82821061261c575050908460019594939210612604575b505050811b016001830155611dd4565b01515f1960f88460031b161c191690558880806125f4565b60018596829396860151815501950193016125dc565b909150600185015f52885f20601f840160051c8101918a8510612679575b90601f859493920160051c01905b81811061266b5750611da8565b5f815584935060010161265e565b9091508190612650565b015190508980611d6a565b5f8781528b81209350601f198516905b8c8282106126db5750509084600195949392106126c3575b505050811b018355611d7e565b01515f1960f88460031b161c191690558980806126b6565b600185968293968601518155019501930161269e565b909150855f52895f20601f840160051c8101918b8510612735575b90601f859493920160051c01905b8181106127275750611d55565b5f815584935060010161271a565b909150819061270c565b634e487b7160e01b5f525f60045260245ffd5b015190508980611c9c565b5f8581528b81209350601f198516905b8c8282106127aa575050908460019594939210612792575b505050811b019055611cb0565b01515f1960f88460031b161c19169055898080612785565b600185968293968601518155019501930161276d565b909150835f52895f20601f840160051c8101918b8510612804575b90601f859493920160051c01905b8181106127f65750611c87565b5f81558493506001016127e9565b90915081906127db565b015190508e80611c38565b9190601f198416855f52835f20935f905b82821061286c575050926001928592600399989660ff989610612855575b505050811b019055611c4b565b01515f19838a1b60f8161c191690558e8080612848565b8060018697829497870151815501960194019061282a565b845f52815f2090601f850160051c82019285106128bf575b601f0160051c01905b8181106128b4578d9150611c15565b5f81556001016128a5565b909150819061289c565b015190508c80611bd7565b5f8881528181209450601f198616915b828210612920575050908460019594939210612908575b505050811b018355611beb565b01515f1960f88460031b161c191690558c80806128fb565b806001869782949787015181550196019401906128e4565b90919250865f52815f2090601f850160051c820192851061297f575b90601f859493920160051c01905b818110612971578e9150611bbf565b5f8155849350600101612962565b9091508190612954565b3461020a575f36600319011261020a576003546129a581613fdb565b905f805b8282106129be5760405180610cff8682613b2c565b6129e960019161143e6129d361142286613e7e565b60ff8316906129e2828a614058565b5287614058565b9101906129a9565b3461020a57602036600319011261020a576004356001600160401b03811161020a57602080612a27612aab9336906004016138c9565b604051928184925191829101835e81016007815203019020610cff612a4b826139b8565b91612ae3612a5b600183016139b8565b91612ad5612a6b600283016139b8565b612ac7612a7a600385016139b8565b91612ab9612a966005612a8f600489016139b8565b97016139b8565b976040519b8c9b60c08d5260c08d019061391e565b908b820360208d015261391e565b9089820360408b015261391e565b90878203606089015261391e565b90858203608087015261391e565b9083820360a085015261391e565b3461020a57602036600319011261020a576004356001600160401b03811161020a576020612b24819236906004016138c9565b604051928184925191829101835e8101600681520301902061158e6001612b4a836139b8565b92016139b8565b3461020a57606036600319011261020a576004356001600160401b03811161020a57612b819036906004016138c9565b6044356001600160401b03811161020a5760c0600319823603011261020a5760405190612bad82613805565b80600401356001600160401b03811161020a57612bd090600436918401016138c9565b825260248101356001600160401b03811161020a57612bf590600436918401016138c9565b906020830191825260448101356001600160401b03811161020a57612c2090600436918401016138c9565b926040810193845260648201356001600160401b03811161020a57612c4b90600436918501016138c9565b916060820192835260848101356001600160401b03811161020a57612c7690600436918401016138c9565b906080830191825260a4810135906001600160401b03821161020a576004612ca192369201016138c9565b9260a08301938452612cb560243588614145565b6003549560405195885196602081818c0199808b835e8101600781520301902094518051906001600160401b03821161035e578190612cf48854613980565b601f8111613378575b50602090601f8311600114613315575f9261330a575b50508160011b915f199060031b1c19161785555b51805160018601916001600160401b03821161035e578190612d498454613980565b601f81116132ba575b50602090601f8311600114613257575f9261324c575b50508160011b915f199060031b1c19161790555b51805160028501916001600160401b03821161035e578190612d9e8454613980565b601f81116131fc575b50602090601f8311600114613199575f9261318e575b50508160011b915f199060031b1c19161790555b51805160038401916001600160401b03821161035e578190612df38454613980565b601f811161313e575b50602090601f83116001146130db575f926130d0575b50508160011b915f199060031b1c19161790555b51805160048301916001600160401b03821161035e57612e468354613980565b601f811161308b575b50602090601f8311600114613024576005949392915f9183613019575b50508160011b915f199060031b1c19161790555b0190518051906001600160401b03821161035e578190612ea08454613980565b601f8111612fc9575b50602090601f8311600114612f66575f92612f5b575b50508160011b915f199060031b1c19161790555b5f5b828110612ede57005b80612eea600192613e7e565b50604051612f0081610533602082018095613f2c565b5190206040516020810190612f2d6020828a51808a875e81015f838201520301601f1981018352826138a8565b51902014612f3c575b01612ed5565b6003612f4782613e7e565b5001805461ff001916610500179055612f36565b015190508680612ebf565b5f8581528281209350601f198516905b818110612fb15750908460019594939210612f99575b505050811b019055612ed3565b01515f1960f88460031b161c19169055868080612f8c565b92936020600181928786015181550195019301612f76565b909150835f5260205f20601f840160051c8101916020851061300f575b90601f859493920160051c01905b8181106130015750612ea9565b5f8155849350600101612ff4565b9091508190612fe6565b015190508980612e6c565b90601f19831691845f52815f20925f5b81811061307357509160019391856005989796941061305b575b505050811b019055612e80565b01515f1960f88460031b161c1916905589808061304e565b92936020600181928786015181550195019301613034565b835f5260205f20601f840160051c810191602085106130c6575b601f0160051c01905b8181106130bb5750612e4f565b5f81556001016130ae565b90915081906130a5565b015190508980612e12565b5f8581528281209350601f198516905b818110613126575090846001959493921061310e575b505050811b019055612e26565b01515f1960f88460031b161c19169055898080613101565b929360206001819287860151815501950193016130eb565b909150835f5260205f20601f840160051c81019160208510613184575b90601f859493920160051c01905b8181106131765750612dfc565b5f8155849350600101613169565b909150819061315b565b015190508a80612dbd565b5f8581528281209350601f198516905b8181106131e457509084600195949392106131cc575b505050811b019055612dd1565b01515f1960f88460031b161c191690558a80806131bf565b929360206001819287860151815501950193016131a9565b909150835f5260205f20601f840160051c81019160208510613242575b90601f859493920160051c01905b8181106132345750612da7565b5f8155849350600101613227565b9091508190613219565b015190508b80612d68565b5f8581528281209350601f198516905b8181106132a2575090846001959493921061328a575b505050811b019055612d7c565b01515f1960f88460031b161c191690558b808061327d565b92936020600181928786015181550195019301613267565b909150835f5260205f20601f840160051c81019160208510613300575b90601f859493920160051c01905b8181106132f25750612d52565b5f81558493506001016132e5565b90915081906132d7565b015190508b80612d13565b5f8981528281209350601f198516905b8181106133605750908460019594939210613348575b505050811b018555612d27565b01515f1960f88460031b161c191690558b808061333b565b92936020600181928786015181550195019301613325565b909150875f5260205f20601f840160051c810191602085106133be575b90601f859493920160051c01905b8181106133b05750612cfd565b5f81558493506001016133a3565b9091508190613395565b3461020a576133e16133d936613aba565b819291614300565b600354602082015f5b8281106133f357005b806133ff600192613e7e565b5060405161341581610533602082018095613f2c565b51902060405160208101906134426020828a51808a875e81015f838201520301601f1981018352826138a8565b51902014613451575b016133ea565b600361345c82613e7e565b5001805461ff00191661070017905561344b565b3461020a57602036600319011261020a576004356001600160401b03811161020a576134a36102089136906004016138c9565b613f96565b3461020a57602036600319011261020a576004356001600160401b03811161020a576134d89036906004016138c9565b6134e181613f96565b600354602082015f5b8281106134f357005b806134ff600192613e7e565b5060405161351581610533602082018095613f2c565b51902060405160208101906135426020828a51808a875e81015f838201520301601f1981018352826138a8565b51902014613551575b016134ea565b600361355c82613e7e565b5001805461ff00191661080017905561354b565b3461020a57602036600319011261020a576004356001600160401b03811161020a576135a09036906004016138c9565b604051818192516020819201835e81015f8152036020019020805460ff166001820154916002810154906003810154600482015460058301546006840154600785015490600886015492600987015494600a88016135fd90613a6e565b9661360a600d8a01613a6e565b98601001613617906139b8565b996040519c6136278e809e613aad565b60208d015260408c015260608b015260808a015260a089015260c088015260e087015261010086015261012085015261014084016101a090526101a0840161366e91613942565b83810361016085015261368091613942565b828103610180840152610cff9161391e565b3461020a57606036600319011261020a576004356001600160401b03811161020a576136c29036906004016138c9565b6024356001600160401b03811161020a576136e19036906004016138c9565b906044356001600160a01b038116810361020a57610cff9261370292613efc565b604051918291602083526020830190613942565b3461020a57602036600319011261020a576004356001600160401b03811161020a57610ceb60208061374f610cff9436906004016138c9565b604051928184925191829101835e810160028152030190206139b8565b3461020a57602036600319011261020a576004356001600160401b03811161020a5761379f6102089136906004016138c9565b613ece565b3461020a57602036600319011261020a576004356001600160401b03811161020a57613702600a6020806137df610cff9536906004016138c9565b6137e7613eae565b50604051928184925191829101835e81015f81520301902001613a6e565b60c081019081106001600160401b0382111761035e57604052565b608081019081106001600160401b0382111761035e57604052565b60e081019081106001600160401b0382111761035e57604052565b606081019081106001600160401b0382111761035e57604052565b604081019081106001600160401b0382111761035e57604052565b6101a081019081106001600160401b0382111761035e57604052565b90601f801991011681019081106001600160401b0382111761035e57604052565b81601f8201121561020a578035906001600160401b03821161035e57604051926138fd601f8401601f1916602001856138a8565b8284526020838301011161020a57815f926020809301838601378301015290565b805180835260209291819084018484015e5f828201840152601f01601f1916010190565b90604061396d61395b845160608552606085019061391e565b6020850151848203602086015261391e565b928101516001600160a01b031691015290565b90600182811c921680156139ae575b602083101461399a57565b634e487b7160e01b5f52602260045260245ffd5b91607f169161398f565b9060405191825f8254926139cb84613980565b8084529360018116908115613a3657506001146139f2575b506139f0925003836138a8565b565b90505f9291925260205f20905f915b818310613a1a5750509060206139f0928201015f6139e3565b6020919350806001915483858901015201910190918492613a01565b9050602092506139f094915060ff191682840152151560051b8201015f6139e3565b608435906001600160a01b038216820361020a57565b90604051613a7b81613856565b60408193613a88816139b8565b8352613a96600182016139b8565b6020840152600201546001600160a01b0316910152565b9060098210156124ed5752565b90604060031983011261020a576004356001600160401b03811161020a5782613ae5916004016138c9565b91602435906001600160401b03821161020a57613b04916004016138c9565b90565b9091613b1e613b049360408452604084019061391e565b91602081840391015261391e565b602081016020825282518091526040820191602060408360051b8301019401925f915b838310613b5e57505050505090565b9091929394602080600192603f1985820301865288519060c080613be7613bb6613ba4613b94875160e0885260e088019061391e565b888801518782038a89015261391e565b6040870151868203604088015261391e565b60ff6060870151166060860152613bd560808701516080870190613aad565b60a086015185820360a087015261391e565b93015191015297019301930191939290613b4f565b919060608382031261020a5760405190613c1582613856565b819380356001600160401b03811161020a5782613c339183016138c9565b835260208101356001600160401b03811161020a5782613c549183016138c9565b60208401526040810135916001600160401b03831161020a57604092613c7a92016138c9565b910152565b919060408382031261020a5760405190613c9882613871565b819380356001600160401b03811161020a5782613cb69183016138c9565b83526020810135916001600160401b03831161020a57602092613c7a92016138c9565b90613b049160208152613cf0602082018351613aad565b602082015160408201526040820151606082015260608201516080820152608082015160a082015260a082015160c082015260c082015160e082015260e0820151610100820152610100820151610120820152610120820151610140820152610180613d88613d726101408501516101a06101608601526101c0850190613942565b610160850151848203601f190184860152613942565b920151906101a0601f198285030191015261391e565b919060608382031261020a5760405190613db782613856565b819380356001600160401b03811161020a5782613dd59183016138c9565b835260208101356001600160401b03811161020a57604092613df89183016138c9565b60208401520135906001600160a01b038216820361020a5760400152565b606060031982011261020a576004356001600160401b03811161020a5781613e40916004016138c9565b916024356001600160401b03811161020a5782613e5f916004016138c9565b91604435906001600160401b03821161020a57613b0491600401613d9e565b600354811015613e9a5760035f52600660205f20910201905f90565b634e487b7160e01b5f52603260045260245ffd5b60405190613ebb82613856565b5f60408360608152606060208201520152565b60208091604051928184925191829101835e81015f815203019020426004820155600360ff19825416179055565b9190613f06613eae565b5060405192613f1484613856565b835260208301526001600160a01b0316604082015290565b5f9291815491613f3b83613980565b9260018116908115613f835750600114613f5457505050565b90919293505f5260205f205f905b838210613f6f5750500190565b600181602092548486015201910190613f62565b60ff191683525050811515909102019150565b60208091604051928184925191829101835e81015f815203019020426009820155600860ff19825416179055565b6001600160401b03811161035e5760051b60200190565b90613fe582613fc4565b613ff260405191826138a8565b8281528092614003601f1991613fc4565b01905f5b82811061401357505050565b6020906040516140228161383b565b60608152606083820152606060408201525f60608201525f6080820152606060a08201525f60c082015282828501015201614007565b8051821015613e9a5760209160051b010190565b60098210156124ed5752565b906040516140858161383b565b60c060058294614094816139b8565b84526140a2600182016139b8565b60208501526140b3600282016139b8565b60408501526140d760ff6003830154818116606088015260081c166080860161406c565b6140e3600482016139b8565b60a08501520154910152565b60ff1660ff81146103725760010190565b90613b0461413f60405160208551918181818901948086835e8101600181520301902095604051928391518091835e81016002815203019020936139b8565b926139b8565b9042111561417b5760208091604051928184925191829101835e81015f815203019020426006820155600560ff19825416179055565b60405162461bcd60e51b815260206004820152601860248201527f536572746966696b6174206d61736968206265726c616b7500000000000000006044820152606490fd5b604051906141cd8261388c565b6060610180835f81525f60208201525f60408201525f838201525f60808201525f60a08201525f60c08201525f60e08201525f6101008201525f610120820152614215613eae565b610140820152614223613eae565b6101608201520152565b602080916142396141c0565b50604051928184925191829101835e81015f8152030190206142f76010604051926142638461388c565b61427160ff8254168561406c565b60018101546020850152600281015460408501526003810154606085015260048101546080850152600581015460a0850152600681015460c0850152600781015460e0850152600881015461010085015260098101546101208501526142d9600a8201613a6e565b6101408501526142eb600d8201613a6e565b610160850152016139b8565b61018082015290565b91909160405160208251918181818601948086835e81015f81520301902092604051928391518091835e8101600281520301902083516001600160401b03811161035e5761434e8254613980565b601f8111614406575b50602094601f82116001146143a5579481929394955f9261439a575b50508160011b915f199060031b1c19161790555b426008820155805460ff19166007179055565b015190505f80614373565b601f19821695835f52805f20915f5b8881106143ee575083600195969798106143d6575b505050811b019055614387565b01515f1960f88460031b161c191690555f80806143c9565b919260206001819286850151815501940192016143b4565b825f5260205f20601f830160051c81019160208410614441575b601f0160051c01905b8181106144365750614357565b5f8155600101614429565b9091508190614420565b60208091939293604051928184925191829101835e81015f8152030190204260078201556082420190814211610372576010916005820155600660ff198254161781550182516001600160401b03811161035e576144a98254613980565b601f8111614549575b506020601f82116001146144eb57819293945f926144e0575b50508160011b915f199060031b1c1916179055565b015190505f806144cb565b601f19821690835f52805f20915f5b81811061453157509583600195969710614519575b505050811b019055565b01515f1960f88460031b161c191690555f808061450f565b9192602060018192868b0151815501940192016144fa565b825f5260205f20601f830160051c81019160208410614584575b601f0160051c01905b81811061457957506144b2565b5f815560010161456c565b9091508190614563565b92919060405160208551918181818901948086835e81015f81520301902095604051928391518091835e81016001815203019020908051906001600160401b03821161035e5781906145e08454613980565b601f81116148db575b50602090601f8311600114614878575f9261486d575b50508160011b915f199060031b1c19161790555b80518051600d8501916001600160401b03821161035e576146348354613980565b601f8111614828575b50602090601f83116001146147c1576020949392915f91836147b6575b50508160011b915f199060031b1c19161790555b6040810151600f850180546001600160a01b0319166001600160a01b039290921691909117905501518051909290600e8201906001600160401b03811161035e576146b98254613980565b601f8111614771575b50602094601f8211600114614710579481929394955f92614705575b50508160011b915f199060031b1c19161790555b426003820155805460ff19166002179055565b015190505f806146de565b601f19821695835f52805f20915f5b88811061475957508360019596979810614741575b505050811b0190556146f2565b01515f1960f88460031b161c191690555f8080614734565b9192602060018192868501518155019401920161471f565b825f5260205f20601f830160051c810191602084106147ac575b601f0160051c01905b8181106147a157506146c2565b5f8155600101614794565b909150819061478b565b015190505f8061465a565b90601f19831691845f52815f20925f5b8181106148105750916001939185602098979694106147f8575b505050811b01905561466e565b01515f1960f88460031b161c191690555f80806147eb565b929360206001819287860151815501950193016147d1565b835f5260205f20601f840160051c81019160208510614863575b601f0160051c01905b818110614858575061463d565b5f815560010161484b565b9091508190614842565b015190505f806145ff565b5f8581528281209350601f198516905b8181106148c357509084600195949392106148ab575b505050811b019055614613565b01515f1960f88460031b161c191690555f808061489e565b92936020600181928786015181550195019301614888565b909150835f5260205f20601f840160051c81019160208510614921575b90601f859493920160051c01905b81811061491357506145e9565b5f8155849350600101614906565b90915081906148f8565b6020809194939294604051928184925191829101835e81015f815203019020908051600d8301908051906001600160401b03821161035e5761496d8354613980565b601f8111614c54575b50602090601f8311600114614bed576020949392915f9183614be2575b50508160011b915f199060031b1c19161790555b6040810151600f840180546001600160a01b0319166001600160a01b039290921691909117905501518051600e8301916001600160401b03821161035e5781906149f18454613980565b601f8111614b92575b50602090601f8311600114614b2f575f92614b24575b50508160011b915f199060031b1c19161790555b4260028201556082420190814211610372576010916005820155600160ff198254161781550182516001600160401b03811161035e57614a648254613980565b601f8111614adf575b506020601f8211600114614a9a57819293945f926144e05750508160011b915f199060031b1c1916179055565b601f19821690835f52805f20915f5b818110614ac75750958360019596971061451957505050811b019055565b9192602060018192868b015181550194019201614aa9565b825f5260205f20601f830160051c81019160208410614b1a575b601f0160051c01905b818110614b0f5750614a6d565b5f8155600101614b02565b9091508190614af9565b015190505f80614a10565b5f8581528281209350601f198516905b818110614b7a5750908460019594939210614b62575b505050811b019055614a24565b01515f1960f88460031b161c191690555f8080614b55565b92936020600181928786015181550195019301614b3f565b909150835f5260205f20601f840160051c81019160208510614bd8575b90601f859493920160051c01905b818110614bca57506149fa565b5f8155849350600101614bbd565b9091508190614baf565b015190505f80614993565b90601f19831691845f52815f20925f5b818110614c3c575091600193918560209897969410614c24575b505050811b0190556149a7565b01515f1960f88460031b161c191690555f8080614c17565b92936020600181928786015181550195019301614bfd565b835f5260205f20601f840160051c81019160208510614c8f575b601f0160051c01905b818110614c845750614976565b5f8155600101614c77565b9091508190614c6e565b929091926040518091614cab8261388c565b5f825260208201428152604083015f8152606084015f8152608085015f815260a086015f815260c08701915f835260e08801935f85526101008901955f87526101208a01975f89526101408b01998a526101608b019d8e5260209e8f80916040519e8f614d1884826138a8565b5f9052610180019e8f52604051928184925191829101835e81015f8152030190209a5160098110156124ed5760ff80198d54169116178b555160018b01555160028a0155516003890155516004880155516005870155516006860155516007850155516008840155516009830155600a820190519081518051906001600160401b03821161035e578190614dac8454613980565b601f81116152b9575b508990601f8311600114615256575f9261524b575b50508160011b915f199060031b1c19161790555b600b8201868201518051906001600160401b03821161035e578190614e038454613980565b601f81116151fd575b508990601f831160011461519a575f9261518f575b50508160011b915f199060031b1c19161790555b60400151600c820180546001600160a01b0319166001600160a01b0392909216919091179055925180518051919491600d8301916001600160401b03821161035e578190614e838454613980565b601f8111615141575b508890601f83116001146150de575f926150d3575b50508160011b915f199060031b1c19161790555b600e81019385810151948551956001600160401b03871161035e57614eda8254613980565b601f8111615090575b508790601f88116001146150295796809160109697985f9261501e575b50508160011b915f199060031b1c19161790555b60400151600f820180546001600160a01b0319166001600160a01b03929092169190911790559151805190949190920191906001600160401b03821161035e57614f5e8354613980565b601f8111614fdb575b5080601f8311600114614f945750819293945f926144e05750508160011b915f199060031b1c1916179055565b90601f19831695845f52825f20925f905b888210614fc35750508360019596971061451957505050811b019055565b80600185968294968601518155019501930190614fa5565b835f52815f20601f840160051c810191838510615014575b601f0160051c01905b8181106150095750614f67565b5f8155600101614ffc565b9091508190614ff3565b015190505f80614f00565b90601f19881691835f52895f20925f5b8b82821061507a57505091600193918a6010999a9b9410615062575b505050811b019055614f14565b01515f1960f88460031b161c191690555f8080615055565b6001859682939686015181550195019301615039565b825f52885f20601f890160051c8101918a8a106150c9575b601f0160051c01905b8181106150be5750614ee3565b5f81556001016150b1565b90915081906150a8565b015190505f80614ea1565b5f8581528a81209350601f198516905b8b82821061512b575050908460019594939210615113575b505050811b019055614eb5565b01515f1960f88460031b161c191690555f8080615106565b60018596829396860151815501950193016150ee565b909150835f52885f20601f840160051c8101918a8510615185575b90601f859493920160051c01905b8181106151775750614e8c565b5f815584935060010161516a565b909150819061515c565b015190505f80614e21565b5f8581528b81209350601f198516905b8c8282106151e75750509084600195949392106151cf575b505050811b019055614e35565b01515f1960f88460031b161c191690555f80806151c2565b60018596829396860151815501950193016151aa565b909150835f52895f20601f840160051c8101918b8510615241575b90601f859493920160051c01905b8181106152335750614e0c565b5f8155849350600101615226565b9091508190615218565b015190505f80614dca565b5f8581528b81209350601f198516905b8c8282106152a357505090846001959493921061528b575b505050811b019055614dde565b01515f1960f88460031b161c191690555f808061527e565b6001859682939686015181550195019301615266565b909150835f52895f20601f840160051c8101918b85106152fd575b90601f859493920160051c01905b8181106152ef5750614db5565b5f81558493506001016152e2565b90915081906152d456fea2646970667358221220fd9eb7735308cbff74f9d9ddc85462942e0d70320550235bfbd9c2a096ea452064736f6c634300081b0033","opcodes":"PUSH1 0x80 DUP1 PUSH1 0x40 MSTORE CALLVALUE PUSH1 0x15 JUMPI PUSH2 0x533D SWAP1 DUP2 PUSH2 0x1A DUP3 CODECOPY RETURN JUMPDEST PUSH0 DUP1 REVERT INVALID PUSH1 0x80 PUSH1 0x40 MSTORE PUSH1 0x4 CALLDATASIZE LT ISZERO PUSH2 0x11 JUMPI PUSH0 DUP1 REVERT JUMPDEST PUSH0 CALLDATALOAD PUSH1 0xE0 SHR DUP1 PUSH4 0x17E68309 EQ PUSH2 0x37A4 JUMPI DUP1 PUSH4 0x19859C87 EQ PUSH2 0x376C JUMPI DUP1 PUSH4 0x26C6D4C5 EQ PUSH2 0x3716 JUMPI DUP1 PUSH4 0x2E9CF827 EQ PUSH2 0x3692 JUMPI DUP1 PUSH4 0x34A34F30 EQ PUSH2 0x3570 JUMPI DUP1 PUSH4 0x35D8C341 EQ PUSH2 0x34A8 JUMPI DUP1 PUSH4 0x3A947F1A EQ PUSH2 0x3470 JUMPI DUP1 PUSH4 0x3BB6FF3F EQ PUSH2 0x33C8 JUMPI DUP1 PUSH4 0x4AD8F1A4 EQ PUSH2 0x2B51 JUMPI DUP1 PUSH4 0x500619D0 EQ PUSH2 0x2AF1 JUMPI DUP1 PUSH4 0x5691ACF7 EQ PUSH2 0x29F1 JUMPI DUP1 PUSH4 0x5850607C EQ PUSH2 0x2989 JUMPI DUP1 PUSH4 0x64B409FF EQ PUSH2 0x19FF JUMPI DUP1 PUSH4 0x6AA81299 EQ PUSH2 0x194B JUMPI DUP1 PUSH4 0x6D1AA7D5 EQ PUSH2 0x1556 JUMPI DUP1 PUSH4 0x70C056B0 EQ PUSH2 0x159E JUMPI DUP1 PUSH4 0x761FB19A EQ PUSH2 0x1556 JUMPI DUP1 PUSH4 0x7AB09648 EQ PUSH2 0x14AF JUMPI DUP1 PUSH4 0x81FC60A5 EQ PUSH2 0x1340 JUMPI DUP1 PUSH4 0x9740DBED EQ PUSH2 0x1304 JUMPI DUP1 PUSH4 0x9AAA5D8B EQ PUSH2 0x12C9 JUMPI DUP1 PUSH4 0xB0730436 EQ PUSH2 0x1201 JUMPI DUP1 PUSH4 0xB9E49080 EQ PUSH2 0xD53 JUMPI DUP1 PUSH4 0xBE2E2325 EQ PUSH2 0xD03 JUMPI DUP1 PUSH4 0xBF3F80AC EQ PUSH2 0xC95 JUMPI DUP1 PUSH4 0xCEEE1067 EQ PUSH2 0xC7E JUMPI DUP1 PUSH4 0xD26196FD EQ PUSH2 0xC67 JUMPI DUP1 PUSH4 0xE462DDE5 EQ PUSH2 0xB2E JUMPI DUP1 PUSH4 0xE8002B27 EQ PUSH2 0x488 JUMPI DUP1 PUSH4 0xE9C260D7 EQ PUSH2 0x471 JUMPI DUP1 PUSH4 0xF02F5F23 EQ PUSH2 0x39D JUMPI DUP1 PUSH4 0xF5104FF1 EQ PUSH2 0x386 JUMPI DUP1 PUSH4 0xF53EF126 EQ PUSH2 0x20E JUMPI PUSH4 0xFB5FB9A3 EQ PUSH2 0x18F JUMPI PUSH0 DUP1 REVERT JUMPDEST CALLVALUE PUSH2 0x20A JUMPI PUSH1 0x60 CALLDATASIZE PUSH1 0x3 NOT ADD SLT PUSH2 0x20A JUMPI PUSH1 0x4 CALLDATALOAD PUSH1 0x1 PUSH1 0x1 PUSH1 0x40 SHL SUB DUP2 GT PUSH2 0x20A JUMPI PUSH2 0x1BF SWAP1 CALLDATASIZE SWAP1 PUSH1 0x4 ADD PUSH2 0x3D9E JUMP JUMPDEST PUSH1 0x24 CALLDATALOAD PUSH1 0x1 PUSH1 0x1 PUSH1 0x40 SHL SUB DUP2 GT PUSH2 0x20A JUMPI PUSH2 0x1DE SWAP1 CALLDATASIZE SWAP1 PUSH1 0x4 ADD PUSH2 0x3D9E JUMP JUMPDEST SWAP1 PUSH1 0x44 CALLDATALOAD SWAP2 PUSH1 0x1 PUSH1 0x1 PUSH1 0x40 SHL SUB DUP4 GT PUSH2 0x20A JUMPI PUSH2 0x202 PUSH2 0x208 SWAP4 CALLDATASIZE SWAP1 PUSH1 0x4 ADD PUSH2 0x38C9 JUMP JUMPDEST SWAP2 PUSH2 0x4C99 JUMP JUMPDEST STOP JUMPDEST PUSH0 DUP1 REVERT JUMPDEST CALLVALUE PUSH2 0x20A JUMPI PUSH1 0x20 DUP1 PUSH2 0x21F CALLDATASIZE PUSH2 0x3ABA JUMP JUMPDEST SWAP3 SWAP1 PUSH1 0x40 MLOAD SWAP3 DUP2 DUP5 SWAP3 MLOAD SWAP2 DUP3 SWAP2 ADD DUP4 MCOPY DUP2 ADD PUSH0 DUP2 MSTORE SUB ADD SWAP1 KECCAK256 TIMESTAMP PUSH1 0x2 DUP3 ADD SSTORE PUSH1 0x82 TIMESTAMP ADD SWAP1 DUP2 TIMESTAMP GT PUSH2 0x372 JUMPI PUSH1 0x10 SWAP2 PUSH1 0x5 DUP3 ADD SSTORE PUSH1 0x6 PUSH1 0xFF NOT DUP3 SLOAD AND OR DUP2 SSTORE ADD DUP2 MLOAD PUSH1 0x1 PUSH1 0x1 PUSH1 0x40 SHL SUB DUP2 GT PUSH2 0x35E JUMPI PUSH2 0x278 DUP3 SLOAD PUSH2 0x3980 JUMP JUMPDEST PUSH1 0x1F DUP2 GT PUSH2 0x319 JUMPI JUMPDEST POP PUSH1 0x20 SWAP3 PUSH1 0x1F DUP3 GT PUSH1 0x1 EQ PUSH2 0x2BD JUMPI SWAP3 DUP2 SWAP3 SWAP4 PUSH0 SWAP3 PUSH2 0x2B2 JUMPI JUMPDEST POP POP PUSH0 NOT PUSH1 0x3 DUP4 SWAP1 SHL SHR NOT AND PUSH1 0x1 SWAP2 SWAP1 SWAP2 SHL OR SWAP1 SSTORE STOP JUMPDEST ADD MLOAD SWAP1 POP DUP4 DUP1 PUSH2 0x29B JUMP JUMPDEST PUSH1 0x1F NOT DUP3 AND SWAP4 DUP4 PUSH0 MSTORE DUP1 PUSH0 KECCAK256 SWAP2 PUSH0 JUMPDEST DUP7 DUP2 LT PUSH2 0x301 JUMPI POP DUP4 PUSH1 0x1 SWAP6 SWAP7 LT PUSH2 0x2E9 JUMPI JUMPDEST POP POP POP DUP2 SHL ADD SWAP1 SSTORE STOP JUMPDEST ADD MLOAD PUSH0 NOT PUSH1 0xF8 DUP5 PUSH1 0x3 SHL AND SHR NOT AND SWAP1 SSTORE DUP4 DUP1 DUP1 PUSH2 0x2DF JUMP JUMPDEST SWAP2 SWAP3 PUSH1 0x20 PUSH1 0x1 DUP2 SWAP3 DUP7 DUP6 ADD MLOAD DUP2 SSTORE ADD SWAP5 ADD SWAP3 ADD PUSH2 0x2CC JUMP JUMPDEST DUP3 PUSH0 MSTORE PUSH1 0x20 PUSH0 KECCAK256 PUSH1 0x1F DUP4 ADD PUSH1 0x5 SHR DUP2 ADD SWAP2 PUSH1 0x20 DUP5 LT PUSH2 0x354 JUMPI JUMPDEST PUSH1 0x1F ADD PUSH1 0x5 SHR ADD SWAP1 JUMPDEST DUP2 DUP2 LT PUSH2 0x349 JUMPI POP PUSH2 0x281 JUMP JUMPDEST PUSH0 DUP2 SSTORE PUSH1 0x1 ADD PUSH2 0x33C JUMP JUMPDEST SWAP1 SWAP2 POP DUP2 SWAP1 PUSH2 0x333 JUMP JUMPDEST PUSH4 0x4E487B71 PUSH1 0xE0 SHL PUSH0 MSTORE PUSH1 0x41 PUSH1 0x4 MSTORE PUSH1 0x24 PUSH0 REVERT JUMPDEST PUSH4 0x4E487B71 PUSH1 0xE0 SHL PUSH0 MSTORE PUSH1 0x11 PUSH1 0x4 MSTORE PUSH1 0x24 PUSH0 REVERT JUMPDEST CALLVALUE PUSH2 0x20A JUMPI PUSH2 0x208 PUSH2 0x397 CALLDATASIZE PUSH2 0x3E16 JUMP JUMPDEST SWAP2 PUSH2 0x492B JUMP JUMPDEST CALLVALUE PUSH2 0x20A JUMPI PUSH1 0x20 CALLDATASIZE PUSH1 0x3 NOT ADD SLT PUSH2 0x20A JUMPI PUSH1 0x4 CALLDATALOAD PUSH1 0x3 SLOAD DUP2 LT ISZERO PUSH2 0x20A JUMPI PUSH2 0x3C7 PUSH2 0x424 SWAP2 PUSH2 0x3E7E JUMP JUMPDEST POP PUSH2 0x3D1 DUP2 PUSH2 0x39B8 JUMP JUMPDEST SWAP1 PUSH2 0x467 PUSH2 0x3E1 PUSH1 0x1 DUP4 ADD PUSH2 0x39B8 JUMP JUMPDEST SWAP2 PUSH2 0x3EE PUSH1 0x2 DUP3 ADD PUSH2 0x39B8 JUMP JUMPDEST SWAP1 PUSH2 0x45A PUSH2 0x440 PUSH1 0x3 DUP4 ADD SLOAD SWAP4 PUSH2 0x432 PUSH1 0x5 PUSH2 0x40C PUSH1 0x4 DUP8 ADD PUSH2 0x39B8 JUMP JUMPDEST SWAP6 ADD SLOAD SWAP8 PUSH1 0x40 MLOAD SWAP11 DUP12 SWAP11 PUSH1 0xE0 DUP13 MSTORE PUSH1 0xE0 DUP13 ADD SWAP1 PUSH2 0x391E JUMP JUMPDEST SWAP1 DUP11 DUP3 SUB PUSH1 0x20 DUP13 ADD MSTORE PUSH2 0x391E JUMP JUMPDEST SWAP1 DUP9 DUP3 SUB PUSH1 0x40 DUP11 ADD MSTORE PUSH2 0x391E JUMP JUMPDEST SWAP3 PUSH1 0xFF DUP2 AND PUSH1 0x60 DUP9 ADD MSTORE PUSH1 0xFF PUSH1 0x80 DUP9 ADD SWAP2 PUSH1 0x8 SHR AND PUSH2 0x3AAD JUMP JUMPDEST DUP5 DUP3 SUB PUSH1 0xA0 DUP7 ADD MSTORE PUSH2 0x391E JUMP JUMPDEST SWAP1 PUSH1 0xC0 DUP4 ADD MSTORE SUB SWAP1 RETURN JUMPDEST CALLVALUE PUSH2 0x20A JUMPI PUSH2 0x208 PUSH2 0x482 CALLDATASIZE PUSH2 0x3E16 JUMP JUMPDEST SWAP2 PUSH2 0x458E JUMP JUMPDEST CALLVALUE PUSH2 0x20A JUMPI PUSH1 0x60 CALLDATASIZE PUSH1 0x3 NOT ADD SLT PUSH2 0x20A JUMPI PUSH1 0x4 CALLDATALOAD PUSH1 0x1 PUSH1 0x1 PUSH1 0x40 SHL SUB DUP2 GT PUSH2 0x20A JUMPI PUSH2 0x4B8 SWAP1 CALLDATASIZE SWAP1 PUSH1 0x4 ADD PUSH2 0x38C9 JUMP JUMPDEST PUSH1 0x24 CALLDATALOAD PUSH1 0x1 PUSH1 0x1 PUSH1 0x40 SHL SUB DUP2 GT PUSH2 0x20A JUMPI PUSH2 0x4D7 SWAP1 CALLDATASIZE SWAP1 PUSH1 0x4 ADD PUSH2 0x3BFC JUMP JUMPDEST SWAP1 PUSH1 0x44 CALLDATALOAD PUSH1 0x1 PUSH1 0x1 PUSH1 0x40 SHL SUB DUP2 GT PUSH2 0x20A JUMPI PUSH2 0x4F7 SWAP1 CALLDATASIZE SWAP1 PUSH1 0x4 ADD PUSH2 0x3C7F JUMP JUMPDEST PUSH2 0x500 DUP3 PUSH2 0x3ECE JUMP JUMPDEST PUSH1 0x3 SLOAD SWAP2 PUSH1 0x20 DUP2 ADD SWAP1 PUSH0 JUMPDEST DUP5 DUP2 LT PUSH2 0x514 JUMPI STOP JUMPDEST PUSH2 0x51D DUP2 PUSH2 0x3E7E JUMP JUMPDEST POP PUSH1 0x40 MLOAD PUSH2 0x541 DUP2 PUSH2 0x533 PUSH1 0x20 DUP3 ADD DUP1 SWAP6 PUSH2 0x3F2C JUMP JUMPDEST SUB PUSH1 0x1F NOT DUP2 ADD DUP4 MSTORE DUP3 PUSH2 0x38A8 JUMP JUMPDEST MLOAD SWAP1 KECCAK256 PUSH1 0x40 MLOAD PUSH1 0x20 DUP2 ADD SWAP1 PUSH2 0x56E PUSH1 0x20 DUP3 DUP8 MLOAD DUP1 DUP11 DUP8 MCOPY DUP2 ADD PUSH0 DUP4 DUP3 ADD MSTORE SUB ADD PUSH1 0x1F NOT DUP2 ADD DUP4 MSTORE DUP3 PUSH2 0x38A8 JUMP JUMPDEST MLOAD SWAP1 KECCAK256 EQ PUSH2 0x57F JUMPI JUMPDEST PUSH1 0x1 ADD PUSH2 0x50B JUMP JUMPDEST PUSH1 0x3 PUSH2 0x58A DUP3 PUSH2 0x3E7E JUMP JUMPDEST POP ADD DUP1 SLOAD PUSH2 0xFF00 NOT AND PUSH2 0x300 OR SWAP1 SSTORE PUSH2 0x5B4 PUSH1 0x20 PUSH2 0x5A7 DUP4 PUSH2 0x3E7E JUMP JUMPDEST POP PUSH1 0x40 MLOAD SWAP3 DUP4 DUP1 SWAP3 PUSH2 0x3F2C JUMP JUMPDEST PUSH1 0x5 DUP2 MSTORE SUB ADD SWAP1 KECCAK256 DUP7 MLOAD DUP1 MLOAD SWAP1 PUSH1 0x1 PUSH1 0x1 PUSH1 0x40 SHL SUB DUP3 GT PUSH2 0x35E JUMPI DUP2 SWAP1 PUSH2 0x5DB DUP5 SLOAD PUSH2 0x3980 JUMP JUMPDEST PUSH1 0x1F DUP2 GT PUSH2 0xADE JUMPI JUMPDEST POP PUSH1 0x20 SWAP1 PUSH1 0x1F DUP4 GT PUSH1 0x1 EQ PUSH2 0xA7B JUMPI PUSH0 SWAP3 PUSH2 0xA70 JUMPI JUMPDEST POP POP DUP2 PUSH1 0x1 SHL SWAP2 PUSH0 NOT SWAP1 PUSH1 0x3 SHL SHR NOT AND OR DUP2 SSTORE JUMPDEST PUSH1 0x1 DUP2 ADD PUSH1 0x20 DUP9 ADD MLOAD DUP1 MLOAD SWAP1 PUSH1 0x1 PUSH1 0x1 PUSH1 0x40 SHL SUB DUP3 GT PUSH2 0x35E JUMPI PUSH2 0x632 DUP4 SLOAD PUSH2 0x3980 JUMP JUMPDEST PUSH1 0x1F DUP2 GT PUSH2 0xA2B JUMPI JUMPDEST POP PUSH1 0x20 SWAP1 PUSH1 0x1F DUP4 GT PUSH1 0x1 EQ PUSH2 0x9C4 JUMPI PUSH1 0x2 SWAP5 SWAP4 SWAP3 SWAP2 PUSH0 SWAP2 DUP4 PUSH2 0x9B9 JUMPI JUMPDEST POP POP DUP2 PUSH1 0x1 SHL SWAP2 PUSH0 NOT SWAP1 PUSH1 0x3 SHL SHR NOT AND OR SWAP1 SSTORE JUMPDEST ADD PUSH1 0x40 DUP8 ADD MLOAD DUP1 MLOAD SWAP1 PUSH1 0x1 PUSH1 0x1 PUSH1 0x40 SHL SUB DUP3 GT PUSH2 0x35E JUMPI DUP2 SWAP1 PUSH2 0x68F DUP5 SLOAD PUSH2 0x3980 JUMP JUMPDEST PUSH1 0x1F DUP2 GT PUSH2 0x969 JUMPI JUMPDEST POP PUSH1 0x20 SWAP1 PUSH1 0x1F DUP4 GT PUSH1 0x1 EQ PUSH2 0x906 JUMPI PUSH0 SWAP3 PUSH2 0x8FB JUMPI JUMPDEST POP POP DUP2 PUSH1 0x1 SHL SWAP2 PUSH0 NOT SWAP1 PUSH1 0x3 SHL SHR NOT AND OR SWAP1 SSTORE JUMPDEST PUSH2 0x6D0 PUSH1 0x20 PUSH2 0x5A7 DUP4 PUSH2 0x3E7E JUMP JUMPDEST PUSH1 0x6 DUP2 MSTORE SUB ADD SWAP1 KECCAK256 DUP5 MLOAD DUP1 MLOAD SWAP1 PUSH1 0x1 PUSH1 0x1 PUSH1 0x40 SHL SUB DUP3 GT PUSH2 0x35E JUMPI PUSH2 0x6F5 DUP4 SLOAD PUSH2 0x3980 JUMP JUMPDEST PUSH1 0x1F DUP2 GT PUSH2 0x8B6 JUMPI JUMPDEST POP PUSH1 0x20 SWAP1 PUSH1 0x1F DUP4 GT PUSH1 0x1 EQ PUSH2 0x850 JUMPI PUSH1 0x1 SWAP4 SWAP3 SWAP2 PUSH0 SWAP2 DUP4 PUSH2 0x845 JUMPI JUMPDEST POP POP PUSH0 NOT PUSH1 0x3 DUP4 SWAP1 SHL SHR NOT AND SWAP1 DUP4 SHL OR DUP2 SSTORE JUMPDEST ADD PUSH1 0x20 DUP6 ADD MLOAD DUP1 MLOAD SWAP1 PUSH1 0x1 PUSH1 0x1 PUSH1 0x40 SHL SUB DUP3 GT PUSH2 0x35E JUMPI PUSH2 0x74E DUP4 SLOAD PUSH2 0x3980 JUMP JUMPDEST PUSH1 0x1F DUP2 GT PUSH2 0x800 JUMPI JUMPDEST POP PUSH1 0x20 SWAP1 PUSH1 0x1F DUP4 GT PUSH1 0x1 EQ PUSH2 0x799 JUMPI PUSH1 0x1 SWAP5 SWAP4 SWAP3 SWAP2 PUSH0 SWAP2 DUP4 PUSH2 0x78E JUMPI JUMPDEST POP POP PUSH0 NOT PUSH1 0x3 DUP4 SWAP1 SHL SHR NOT AND SWAP1 DUP5 SHL OR SWAP1 SSTORE JUMPDEST SWAP1 POP PUSH2 0x577 JUMP JUMPDEST ADD MLOAD SWAP1 POP DUP11 DUP1 PUSH2 0x774 JUMP JUMPDEST SWAP1 PUSH1 0x1F NOT DUP4 AND SWAP2 DUP5 PUSH0 MSTORE DUP2 PUSH0 KECCAK256 SWAP3 PUSH0 JUMPDEST DUP2 DUP2 LT PUSH2 0x7E8 JUMPI POP SWAP2 PUSH1 0x1 SWAP7 SWAP6 SWAP5 SWAP3 SWAP2 DUP4 DUP9 SWAP6 SWAP4 LT PUSH2 0x7D0 JUMPI JUMPDEST POP POP POP DUP2 SHL ADD SWAP1 SSTORE PUSH2 0x787 JUMP JUMPDEST ADD MLOAD PUSH0 NOT PUSH1 0xF8 DUP5 PUSH1 0x3 SHL AND SHR NOT AND SWAP1 SSTORE DUP11 DUP1 DUP1 PUSH2 0x7C3 JUMP JUMPDEST SWAP3 SWAP4 PUSH1 0x20 PUSH1 0x1 DUP2 SWAP3 DUP8 DUP7 ADD MLOAD DUP2 SSTORE ADD SWAP6 ADD SWAP4 ADD PUSH2 0x7A9 JUMP JUMPDEST DUP4 PUSH0 MSTORE PUSH1 0x20 PUSH0 KECCAK256 PUSH1 0x1F DUP5 ADD PUSH1 0x5 SHR DUP2 ADD SWAP2 PUSH1 0x20 DUP6 LT PUSH2 0x83B JUMPI JUMPDEST PUSH1 0x1F ADD PUSH1 0x5 SHR ADD SWAP1 JUMPDEST DUP2 DUP2 LT PUSH2 0x830 JUMPI POP PUSH2 0x757 JUMP JUMPDEST PUSH0 DUP2 SSTORE PUSH1 0x1 ADD PUSH2 0x823 JUMP JUMPDEST SWAP1 SWAP2 POP DUP2 SWAP1 PUSH2 0x81A JUMP JUMPDEST ADD MLOAD SWAP1 POP DUP11 DUP1 PUSH2 0x71A JUMP JUMPDEST SWAP1 PUSH1 0x1F NOT DUP4 AND SWAP2 DUP5 PUSH0 MSTORE DUP2 PUSH0 KECCAK256 SWAP3 PUSH0 JUMPDEST DUP2 DUP2 LT PUSH2 0x89E JUMPI POP SWAP2 PUSH1 0x1 SWAP6 SWAP5 SWAP3 SWAP2 DUP4 DUP8 SWAP6 SWAP4 LT PUSH2 0x886 JUMPI JUMPDEST POP POP POP DUP2 SHL ADD DUP2 SSTORE PUSH2 0x72D JUMP JUMPDEST ADD MLOAD PUSH0 NOT PUSH1 0xF8 DUP5 PUSH1 0x3 SHL AND SHR NOT AND SWAP1 SSTORE DUP11 DUP1 DUP1 PUSH2 0x879 JUMP JUMPDEST SWAP3 SWAP4 PUSH1 0x20 PUSH1 0x1 DUP2 SWAP3 DUP8 DUP7 ADD MLOAD DUP2 SSTORE ADD SWAP6 ADD SWAP4 ADD PUSH2 0x860 JUMP JUMPDEST DUP4 PUSH0 MSTORE PUSH1 0x20 PUSH0 KECCAK256 PUSH1 0x1F DUP5 ADD PUSH1 0x5 SHR DUP2 ADD SWAP2 PUSH1 0x20 DUP6 LT PUSH2 0x8F1 JUMPI JUMPDEST PUSH1 0x1F ADD PUSH1 0x5 SHR ADD SWAP1 JUMPDEST DUP2 DUP2 LT PUSH2 0x8E6 JUMPI POP PUSH2 0x6FE JUMP JUMPDEST PUSH0 DUP2 SSTORE PUSH1 0x1 ADD PUSH2 0x8D9 JUMP JUMPDEST SWAP1 SWAP2 POP DUP2 SWAP1 PUSH2 0x8D0 JUMP JUMPDEST ADD MLOAD SWAP1 POP DUP10 DUP1 PUSH2 0x6AE JUMP JUMPDEST PUSH0 DUP6 DUP2 MSTORE DUP3 DUP2 KECCAK256 SWAP4 POP PUSH1 0x1F NOT DUP6 AND SWAP1 JUMPDEST DUP2 DUP2 LT PUSH2 0x951 JUMPI POP SWAP1 DUP5 PUSH1 0x1 SWAP6 SWAP5 SWAP4 SWAP3 LT PUSH2 0x939 JUMPI JUMPDEST POP POP POP DUP2 SHL ADD SWAP1 SSTORE PUSH2 0x6C2 JUMP JUMPDEST ADD MLOAD PUSH0 NOT PUSH1 0xF8 DUP5 PUSH1 0x3 SHL AND SHR NOT AND SWAP1 SSTORE DUP10 DUP1 DUP1 PUSH2 0x92C JUMP JUMPDEST SWAP3 SWAP4 PUSH1 0x20 PUSH1 0x1 DUP2 SWAP3 DUP8 DUP7 ADD MLOAD DUP2 SSTORE ADD SWAP6 ADD SWAP4 ADD PUSH2 0x916 JUMP JUMPDEST SWAP1 SWAP2 POP DUP4 PUSH0 MSTORE PUSH1 0x20 PUSH0 KECCAK256 PUSH1 0x1F DUP5 ADD PUSH1 0x5 SHR DUP2 ADD SWAP2 PUSH1 0x20 DUP6 LT PUSH2 0x9AF JUMPI JUMPDEST SWAP1 PUSH1 0x1F DUP6 SWAP5 SWAP4 SWAP3 ADD PUSH1 0x5 SHR ADD SWAP1 JUMPDEST DUP2 DUP2 LT PUSH2 0x9A1 JUMPI POP PUSH2 0x698 JUMP JUMPDEST PUSH0 DUP2 SSTORE DUP5 SWAP4 POP PUSH1 0x1 ADD PUSH2 0x994 JUMP JUMPDEST SWAP1 SWAP2 POP DUP2 SWAP1 PUSH2 0x986 JUMP JUMPDEST ADD MLOAD SWAP1 POP DUP12 DUP1 PUSH2 0x658 JUMP JUMPDEST SWAP1 PUSH1 0x1F NOT DUP4 AND SWAP2 DUP5 PUSH0 MSTORE DUP2 PUSH0 KECCAK256 SWAP3 PUSH0 JUMPDEST DUP2 DUP2 LT PUSH2 0xA13 JUMPI POP SWAP2 PUSH1 0x1 SWAP4 SWAP2 DUP6 PUSH1 0x2 SWAP9 SWAP8 SWAP7 SWAP5 LT PUSH2 0x9FB JUMPI JUMPDEST POP POP POP DUP2 SHL ADD SWAP1 SSTORE PUSH2 0x66C JUMP JUMPDEST ADD MLOAD PUSH0 NOT PUSH1 0xF8 DUP5 PUSH1 0x3 SHL AND SHR NOT AND SWAP1 SSTORE DUP12 DUP1 DUP1 PUSH2 0x9EE JUMP JUMPDEST SWAP3 SWAP4 PUSH1 0x20 PUSH1 0x1 DUP2 SWAP3 DUP8 DUP7 ADD MLOAD DUP2 SSTORE ADD SWAP6 ADD SWAP4 ADD PUSH2 0x9D4 JUMP JUMPDEST DUP4 PUSH0 MSTORE PUSH1 0x20 PUSH0 KECCAK256 PUSH1 0x1F DUP5 ADD PUSH1 0x5 SHR DUP2 ADD SWAP2 PUSH1 0x20 DUP6 LT PUSH2 0xA66 JUMPI JUMPDEST PUSH1 0x1F ADD PUSH1 0x5 SHR ADD SWAP1 JUMPDEST DUP2 DUP2 LT PUSH2 0xA5B JUMPI POP PUSH2 0x63B JUMP JUMPDEST PUSH0 DUP2 SSTORE PUSH1 0x1 ADD PUSH2 0xA4E JUMP JUMPDEST SWAP1 SWAP2 POP DUP2 SWAP1 PUSH2 0xA45 JUMP JUMPDEST ADD MLOAD SWAP1 POP DUP10 DUP1 PUSH2 0x5FA JUMP JUMPDEST PUSH0 DUP6 DUP2 MSTORE DUP3 DUP2 KECCAK256 SWAP4 POP PUSH1 0x1F NOT DUP6 AND SWAP1 JUMPDEST DUP2 DUP2 LT PUSH2 0xAC6 JUMPI POP SWAP1 DUP5 PUSH1 0x1 SWAP6 SWAP5 SWAP4 SWAP3 LT PUSH2 0xAAE JUMPI JUMPDEST POP POP POP DUP2 SHL ADD DUP2 SSTORE PUSH2 0x60E JUMP JUMPDEST ADD MLOAD PUSH0 NOT PUSH1 0xF8 DUP5 PUSH1 0x3 SHL AND SHR NOT AND SWAP1 SSTORE DUP10 DUP1 DUP1 PUSH2 0xAA1 JUMP JUMPDEST SWAP3 SWAP4 PUSH1 0x20 PUSH1 0x1 DUP2 SWAP3 DUP8 DUP7 ADD MLOAD DUP2 SSTORE ADD SWAP6 ADD SWAP4 ADD PUSH2 0xA8B JUMP JUMPDEST SWAP1 SWAP2 POP DUP4 PUSH0 MSTORE PUSH1 0x20 PUSH0 KECCAK256 PUSH1 0x1F DUP5 ADD PUSH1 0x5 SHR DUP2 ADD SWAP2 PUSH1 0x20 DUP6 LT PUSH2 0xB24 JUMPI JUMPDEST SWAP1 PUSH1 0x1F DUP6 SWAP5 SWAP4 SWAP3 ADD PUSH1 0x5 SHR ADD SWAP1 JUMPDEST DUP2 DUP2 LT PUSH2 0xB16 JUMPI POP PUSH2 0x5E4 JUMP JUMPDEST PUSH0 DUP2 SSTORE DUP5 SWAP4 POP PUSH1 0x1 ADD PUSH2 0xB09 JUMP JUMPDEST SWAP1 SWAP2 POP DUP2 SWAP1 PUSH2 0xAFB JUMP JUMPDEST CALLVALUE PUSH2 0x20A JUMPI PUSH1 0xA0 CALLDATASIZE PUSH1 0x3 NOT ADD SLT PUSH2 0x20A JUMPI PUSH1 0x4 CALLDATALOAD PUSH1 0x1 PUSH1 0x1 PUSH1 0x40 SHL SUB DUP2 GT PUSH2 0x20A JUMPI PUSH2 0xB5E SWAP1 CALLDATASIZE SWAP1 PUSH1 0x4 ADD PUSH2 0x38C9 JUMP JUMPDEST PUSH1 0x24 CALLDATALOAD PUSH1 0x1 PUSH1 0x1 PUSH1 0x40 SHL SUB DUP2 GT PUSH2 0x20A JUMPI PUSH2 0xB7D SWAP1 CALLDATASIZE SWAP1 PUSH1 0x4 ADD PUSH2 0x38C9 JUMP JUMPDEST PUSH1 0x44 CALLDATALOAD PUSH1 0x1 PUSH1 0x1 PUSH1 0x40 SHL SUB DUP2 GT PUSH2 0x20A JUMPI PUSH2 0xB9C SWAP1 CALLDATASIZE SWAP1 PUSH1 0x4 ADD PUSH2 0x38C9 JUMP JUMPDEST SWAP1 PUSH1 0x64 CALLDATALOAD PUSH1 0x1 PUSH1 0x1 PUSH1 0x40 SHL SUB DUP2 GT PUSH2 0x20A JUMPI PUSH2 0xBD8 SWAP3 PUSH2 0xBC3 PUSH2 0xBD1 SWAP3 CALLDATASIZE SWAP1 PUSH1 0x4 ADD PUSH2 0x38C9 JUMP JUMPDEST PUSH2 0xBCB PUSH2 0x3A58 JUMP JUMPDEST SWAP2 PUSH2 0x3EFC JUMP JUMPDEST SWAP1 DUP4 PUSH2 0x458E JUMP JUMPDEST PUSH1 0x3 SLOAD PUSH1 0x20 DUP3 ADD PUSH0 JUMPDEST DUP3 DUP2 LT PUSH2 0xBEA JUMPI STOP JUMPDEST DUP1 PUSH2 0xBF6 PUSH1 0x1 SWAP3 PUSH2 0x3E7E JUMP JUMPDEST POP PUSH1 0x40 MLOAD PUSH2 0xC0C DUP2 PUSH2 0x533 PUSH1 0x20 DUP3 ADD DUP1 SWAP6 PUSH2 0x3F2C JUMP JUMPDEST MLOAD SWAP1 KECCAK256 PUSH1 0x40 MLOAD PUSH1 0x20 DUP2 ADD SWAP1 PUSH2 0xC39 PUSH1 0x20 DUP3 DUP11 MLOAD DUP1 DUP11 DUP8 MCOPY DUP2 ADD PUSH0 DUP4 DUP3 ADD MSTORE SUB ADD PUSH1 0x1F NOT DUP2 ADD DUP4 MSTORE DUP3 PUSH2 0x38A8 JUMP JUMPDEST MLOAD SWAP1 KECCAK256 EQ PUSH2 0xC48 JUMPI JUMPDEST ADD PUSH2 0xBE1 JUMP JUMPDEST PUSH1 0x3 PUSH2 0xC53 DUP3 PUSH2 0x3E7E JUMP JUMPDEST POP ADD DUP1 SLOAD PUSH2 0xFF00 NOT AND PUSH2 0x200 OR SWAP1 SSTORE PUSH2 0xC42 JUMP JUMPDEST CALLVALUE PUSH2 0x20A JUMPI PUSH2 0x208 PUSH2 0xC78 CALLDATASIZE PUSH2 0x3ABA JUMP JUMPDEST SWAP1 PUSH2 0x444B JUMP JUMPDEST CALLVALUE PUSH2 0x20A JUMPI PUSH2 0x208 PUSH2 0xC8F CALLDATASIZE PUSH2 0x3ABA JUMP JUMPDEST SWAP1 PUSH2 0x4300 JUMP JUMPDEST CALLVALUE PUSH2 0x20A JUMPI PUSH1 0x20 CALLDATASIZE PUSH1 0x3 NOT ADD SLT PUSH2 0x20A JUMPI PUSH1 0x4 CALLDATALOAD PUSH1 0x1 PUSH1 0x1 PUSH1 0x40 SHL SUB DUP2 GT PUSH2 0x20A JUMPI PUSH2 0xCEB PUSH1 0x20 DUP1 PUSH2 0xCCE PUSH2 0xCFF SWAP5 CALLDATASIZE SWAP1 PUSH1 0x4 ADD PUSH2 0x38C9 JUMP JUMPDEST PUSH1 0x40 MLOAD SWAP3 DUP2 DUP5 SWAP3 MLOAD SWAP2 DUP3 SWAP2 ADD DUP4 MCOPY DUP2 ADD PUSH1 0x1 DUP2 MSTORE SUB ADD SWAP1 KECCAK256 PUSH2 0x39B8 JUMP JUMPDEST PUSH1 0x40 MLOAD SWAP2 DUP3 SWAP2 PUSH1 0x20 DUP4 MSTORE PUSH1 0x20 DUP4 ADD SWAP1 PUSH2 0x391E JUMP JUMPDEST SUB SWAP1 RETURN JUMPDEST CALLVALUE PUSH2 0x20A JUMPI PUSH1 0x20 CALLDATASIZE PUSH1 0x3 NOT ADD SLT PUSH2 0x20A JUMPI PUSH1 0x4 CALLDATALOAD PUSH1 0x1 PUSH1 0x1 PUSH1 0x40 SHL SUB DUP2 GT PUSH2 0x20A JUMPI PUSH2 0xD47 PUSH2 0xD39 PUSH2 0xCFF SWAP3 CALLDATASIZE SWAP1 PUSH1 0x4 ADD PUSH2 0x38C9 JUMP JUMPDEST PUSH2 0xD41 PUSH2 0x41C0 JUMP JUMPDEST POP PUSH2 0x422D JUMP JUMPDEST PUSH1 0x40 MLOAD SWAP2 DUP3 SWAP2 DUP3 PUSH2 0x3CD9 JUMP JUMPDEST CALLVALUE PUSH2 0x20A JUMPI PUSH1 0xC0 CALLDATASIZE PUSH1 0x3 NOT ADD SLT PUSH2 0x20A JUMPI PUSH1 0x4 CALLDATALOAD PUSH1 0x1 PUSH1 0x1 PUSH1 0x40 SHL SUB DUP2 GT PUSH2 0x20A JUMPI PUSH2 0xD83 SWAP1 CALLDATASIZE SWAP1 PUSH1 0x4 ADD PUSH2 0x38C9 JUMP JUMPDEST PUSH1 0x24 CALLDATALOAD PUSH1 0x1 PUSH1 0x1 PUSH1 0x40 SHL SUB DUP2 GT PUSH2 0x20A JUMPI PUSH2 0xDA2 SWAP1 CALLDATASIZE SWAP1 PUSH1 0x4 ADD PUSH2 0x38C9 JUMP JUMPDEST PUSH1 0x44 CALLDATALOAD PUSH1 0x1 PUSH1 0x1 PUSH1 0x40 SHL SUB DUP2 GT PUSH2 0x20A JUMPI PUSH2 0xDC1 SWAP1 CALLDATASIZE SWAP1 PUSH1 0x4 ADD PUSH2 0x38C9 JUMP JUMPDEST PUSH1 0x64 CALLDATALOAD PUSH1 0x1 PUSH1 0x1 PUSH1 0x40 SHL SUB DUP2 GT PUSH2 0x20A JUMPI PUSH2 0xDE0 SWAP1 CALLDATASIZE SWAP1 PUSH1 0x4 ADD PUSH2 0x38C9 JUMP JUMPDEST PUSH2 0xDE8 PUSH2 0x3A58 JUMP JUMPDEST PUSH1 0xA4 CALLDATALOAD SWAP2 PUSH1 0x1 PUSH1 0x1 PUSH1 0x40 SHL SUB DUP4 GT PUSH2 0x20A JUMPI PUSH2 0xE0B PUSH2 0xE11 SWAP4 CALLDATASIZE SWAP1 PUSH1 0x4 ADD PUSH2 0x38C9 JUMP JUMPDEST SWAP4 PUSH2 0x3EFC JUMP JUMPDEST PUSH1 0x40 MLOAD SWAP1 PUSH1 0x1 DUP5 MLOAD SWAP3 PUSH1 0x20 DUP2 DUP2 DUP9 ADD SWAP6 DUP1 DUP8 DUP4 MCOPY DUP2 ADD PUSH1 0x4 DUP2 MSTORE SUB ADD SWAP1 KECCAK256 ADD DUP6 MLOAD PUSH1 0x1 PUSH1 0x1 PUSH1 0x40 SHL SUB DUP2 GT PUSH2 0x35E JUMPI PUSH2 0xE4A DUP3 SLOAD PUSH2 0x3980 JUMP JUMPDEST PUSH1 0x1F DUP2 GT PUSH2 0x11BC JUMPI JUMPDEST POP PUSH1 0x20 PUSH1 0x1F DUP3 GT PUSH1 0x1 EQ PUSH2 0x1155 JUMPI SWAP1 DUP1 PUSH2 0xE8A SWAP5 SWAP4 SWAP3 PUSH0 SWAP2 PUSH2 0x114A JUMPI JUMPDEST POP DUP2 PUSH1 0x1 SHL SWAP2 PUSH0 NOT SWAP1 PUSH1 0x3 SHL SHR NOT AND OR SWAP1 SSTORE JUMPDEST DUP4 DUP6 PUSH2 0x492B JUMP JUMPDEST PUSH1 0x3 SLOAD SWAP3 PUSH0 JUMPDEST DUP5 DUP2 LT PUSH2 0xE99 JUMPI STOP JUMPDEST PUSH2 0xEA2 DUP2 PUSH2 0x3E7E JUMP JUMPDEST POP PUSH1 0x40 MLOAD PUSH2 0xEB8 DUP2 PUSH2 0x533 PUSH1 0x20 DUP3 ADD DUP1 SWAP6 PUSH2 0x3F2C JUMP JUMPDEST MLOAD SWAP1 KECCAK256 PUSH1 0x40 MLOAD PUSH1 0x20 DUP2 ADD SWAP1 PUSH2 0xEE5 PUSH1 0x20 DUP3 DUP8 MLOAD DUP1 DUP11 DUP8 MCOPY DUP2 ADD PUSH0 DUP4 DUP3 ADD MSTORE SUB ADD PUSH1 0x1F NOT DUP2 ADD DUP4 MSTORE DUP3 PUSH2 0x38A8 JUMP JUMPDEST MLOAD SWAP1 KECCAK256 EQ PUSH2 0xEF6 JUMPI JUMPDEST PUSH1 0x1 ADD PUSH2 0xE90 JUMP JUMPDEST PUSH1 0x1 PUSH2 0xF01 DUP3 PUSH2 0x3E7E JUMP JUMPDEST POP ADD DUP7 MLOAD PUSH1 0x1 PUSH1 0x1 PUSH1 0x40 SHL SUB DUP2 GT PUSH2 0x35E JUMPI PUSH2 0xF1D DUP3 SLOAD PUSH2 0x3980 JUMP JUMPDEST PUSH1 0x1F DUP2 GT PUSH2 0x1105 JUMPI JUMPDEST POP DUP1 PUSH1 0x20 PUSH1 0x1F DUP3 GT PUSH1 0x1 EQ PUSH2 0x10A2 JUMPI PUSH0 SWAP2 PUSH2 0x1097 JUMPI JUMPDEST POP DUP2 PUSH1 0x1 SHL SWAP2 PUSH0 NOT SWAP1 PUSH1 0x3 SHL SHR NOT AND OR SWAP1 SSTORE JUMPDEST PUSH1 0x3 PUSH2 0xF5A DUP3 PUSH2 0x3E7E JUMP JUMPDEST POP ADD DUP1 SLOAD PUSH2 0xFF00 NOT AND PUSH2 0x100 OR SWAP1 SSTORE PUSH1 0x4 PUSH2 0xF74 DUP3 PUSH2 0x3E7E JUMP JUMPDEST POP ADD DUP5 MLOAD PUSH1 0x1 PUSH1 0x1 PUSH1 0x40 SHL SUB DUP2 GT PUSH2 0x35E JUMPI PUSH2 0xF90 DUP3 SLOAD PUSH2 0x3980 JUMP JUMPDEST PUSH1 0x1F DUP2 GT PUSH2 0x1052 JUMPI JUMPDEST POP DUP1 PUSH1 0x20 PUSH1 0x1F DUP3 GT PUSH1 0x1 EQ PUSH2 0xFF1 JUMPI PUSH0 SWAP2 PUSH2 0xFE6 JUMPI JUMPDEST POP DUP2 PUSH1 0x1 SHL SWAP2 PUSH0 NOT SWAP1 PUSH1 0x3 SHL SHR NOT AND OR SWAP1 SSTORE JUMPDEST PUSH1 0x82 TIMESTAMP ADD SWAP1 DUP2 TIMESTAMP GT PUSH2 0x372 JUMPI PUSH1 0x1 SWAP2 PUSH1 0x5 PUSH2 0xFDC DUP4 PUSH2 0x3E7E JUMP JUMPDEST POP ADD SSTORE SWAP1 POP PUSH2 0xEEE JUMP JUMPDEST SWAP1 POP DUP7 ADD MLOAD DUP10 PUSH2 0xFAF JUMP JUMPDEST PUSH0 DUP5 DUP2 MSTORE DUP2 DUP2 KECCAK256 SWAP3 POP PUSH1 0x1F NOT DUP5 AND SWAP1 JUMPDEST DUP2 DUP2 LT PUSH2 0x103A JUMPI POP SWAP1 DUP4 PUSH1 0x1 SWAP5 SWAP4 SWAP3 LT PUSH2 0x1022 JUMPI JUMPDEST POP POP DUP2 SHL ADD SWAP1 SSTORE PUSH2 0xFC2 JUMP JUMPDEST DUP9 ADD MLOAD PUSH0 NOT PUSH1 0xF8 DUP5 PUSH1 0x3 SHL AND SHR NOT AND SWAP1 SSTORE DUP10 DUP1 PUSH2 0x1016 JUMP JUMPDEST SWAP2 SWAP3 PUSH1 0x20 PUSH1 0x1 DUP2 SWAP3 DUP7 DUP14 ADD MLOAD DUP2 SSTORE ADD SWAP5 ADD SWAP3 ADD PUSH2 0x1001 JUMP JUMPDEST DUP3 PUSH0 MSTORE PUSH1 0x20 PUSH0 KECCAK256 PUSH1 0x1F DUP4 ADD PUSH1 0x5 SHR DUP2 ADD SWAP2 PUSH1 0x20 DUP5 LT PUSH2 0x108D JUMPI JUMPDEST PUSH1 0x1F ADD PUSH1 0x5 SHR ADD SWAP1 JUMPDEST DUP2 DUP2 LT PUSH2 0x1082 JUMPI POP PUSH2 0xF99 JUMP JUMPDEST PUSH0 DUP2 SSTORE PUSH1 0x1 ADD PUSH2 0x1075 JUMP JUMPDEST SWAP1 SWAP2 POP DUP2 SWAP1 PUSH2 0x106C JUMP JUMPDEST SWAP1 POP DUP9 ADD MLOAD DUP10 PUSH2 0xF3C JUMP JUMPDEST PUSH0 DUP5 DUP2 MSTORE DUP2 DUP2 KECCAK256 SWAP3 POP PUSH1 0x1F NOT DUP5 AND SWAP1 JUMPDEST DUP12 DUP3 DUP3 LT PUSH2 0x10ED JUMPI POP POP SWAP1 DUP4 PUSH1 0x1 SWAP5 SWAP4 SWAP3 LT PUSH2 0x10D5 JUMPI JUMPDEST POP POP DUP2 SHL ADD SWAP1 SSTORE PUSH2 0xF4F JUMP JUMPDEST DUP11 ADD MLOAD PUSH0 NOT PUSH1 0xF8 DUP5 PUSH1 0x3 SHL AND SHR NOT AND SWAP1 SSTORE DUP10 DUP1 PUSH2 0x10C9 JUMP JUMPDEST PUSH1 0x1 DUP5 SWAP6 PUSH1 0x20 SWAP4 SWAP6 DUP5 SWAP4 ADD MLOAD DUP2 SSTORE ADD SWAP5 ADD SWAP3 ADD PUSH2 0x10B2 JUMP JUMPDEST DUP3 PUSH0 MSTORE PUSH1 0x20 PUSH0 KECCAK256 PUSH1 0x1F DUP4 ADD PUSH1 0x5 SHR DUP2 ADD SWAP2 PUSH1 0x20 DUP5 LT PUSH2 0x1140 JUMPI JUMPDEST PUSH1 0x1F ADD PUSH1 0x5 SHR ADD SWAP1 JUMPDEST DUP2 DUP2 LT PUSH2 0x1135 JUMPI POP PUSH2 0xF26 JUMP JUMPDEST PUSH0 DUP2 SSTORE PUSH1 0x1 ADD PUSH2 0x1128 JUMP JUMPDEST SWAP1 SWAP2 POP DUP2 SWAP1 PUSH2 0x111F JUMP JUMPDEST SWAP1 POP DUP9 ADD MLOAD DUP10 PUSH2 0xE70 JUMP JUMPDEST PUSH1 0x1F NOT DUP3 AND SWAP1 DUP4 PUSH0 MSTORE DUP1 PUSH0 KECCAK256 SWAP2 PUSH0 JUMPDEST DUP11 DUP3 DUP3 LT PUSH2 0x11A4 JUMPI POP POP SWAP2 DUP4 SWAP2 PUSH2 0xE8A SWAP7 SWAP6 SWAP5 PUSH1 0x1 SWAP5 LT PUSH2 0x118C JUMPI JUMPDEST POP POP DUP2 SHL ADD SWAP1 SSTORE PUSH2 0xE83 JUMP JUMPDEST DUP11 ADD MLOAD PUSH0 NOT PUSH1 0xF8 DUP5 PUSH1 0x3 SHL AND SHR NOT AND SWAP1 SSTORE DUP10 DUP1 PUSH2 0x1180 JUMP JUMPDEST PUSH1 0x1 DUP5 SWAP6 PUSH1 0x20 SWAP4 SWAP6 DUP5 SWAP4 ADD MLOAD DUP2 SSTORE ADD SWAP5 ADD SWAP3 ADD PUSH2 0x1164 JUMP JUMPDEST DUP3 PUSH0 MSTORE PUSH1 0x20 PUSH0 KECCAK256 PUSH1 0x1F DUP4 ADD PUSH1 0x5 SHR DUP2 ADD SWAP2 PUSH1 0x20 DUP5 LT PUSH2 0x11F7 JUMPI JUMPDEST PUSH1 0x1F ADD PUSH1 0x5 SHR ADD SWAP1 JUMPDEST DUP2 DUP2 LT PUSH2 0x11EC JUMPI POP PUSH2 0xE53 JUMP JUMPDEST PUSH0 DUP2 SSTORE PUSH1 0x1 ADD PUSH2 0x11DF JUMP JUMPDEST SWAP1 SWAP2 POP DUP2 SWAP1 PUSH2 0x11D6 JUMP JUMPDEST CALLVALUE PUSH2 0x20A JUMPI PUSH2 0x121A PUSH2 0x1212 CALLDATASIZE PUSH2 0x3ABA JUMP JUMPDEST DUP2 SWAP3 SWAP2 PUSH2 0x444B JUMP JUMPDEST PUSH1 0x3 SLOAD SWAP1 PUSH1 0x20 DUP2 ADD SWAP1 PUSH0 JUMPDEST DUP4 DUP2 LT PUSH2 0x122E JUMPI STOP JUMPDEST PUSH2 0x1237 DUP2 PUSH2 0x3E7E JUMP JUMPDEST POP PUSH1 0x40 MLOAD PUSH2 0x124D DUP2 PUSH2 0x533 PUSH1 0x20 DUP3 ADD DUP1 SWAP6 PUSH2 0x3F2C JUMP JUMPDEST MLOAD SWAP1 KECCAK256 PUSH1 0x40 MLOAD PUSH1 0x20 DUP2 ADD SWAP1 PUSH2 0x127A PUSH1 0x20 DUP3 DUP8 MLOAD DUP1 DUP11 DUP8 MCOPY DUP2 ADD PUSH0 DUP4 DUP3 ADD MSTORE SUB ADD PUSH1 0x1F NOT DUP2 ADD DUP4 MSTORE DUP3 PUSH2 0x38A8 JUMP JUMPDEST MLOAD SWAP1 KECCAK256 EQ PUSH2 0x128B JUMPI JUMPDEST PUSH1 0x1 ADD PUSH2 0x1225 JUMP JUMPDEST PUSH1 0x3 PUSH2 0x1296 DUP3 PUSH2 0x3E7E JUMP JUMPDEST POP ADD PUSH2 0x600 PUSH2 0xFF00 NOT DUP3 SLOAD AND OR SWAP1 SSTORE PUSH1 0x82 TIMESTAMP ADD SWAP1 DUP2 TIMESTAMP GT PUSH2 0x372 JUMPI PUSH1 0x1 SWAP2 PUSH1 0x5 PUSH2 0x12BF DUP4 PUSH2 0x3E7E JUMP JUMPDEST POP ADD SSTORE SWAP1 POP PUSH2 0x1283 JUMP JUMPDEST CALLVALUE PUSH2 0x20A JUMPI PUSH1 0x20 CALLDATASIZE PUSH1 0x3 NOT ADD SLT PUSH2 0x20A JUMPI PUSH1 0x4 CALLDATALOAD PUSH1 0x1 PUSH1 0x1 PUSH1 0x40 SHL SUB DUP2 GT PUSH2 0x20A JUMPI PUSH2 0xD47 PUSH2 0x12FF PUSH2 0xCFF SWAP3 CALLDATASIZE SWAP1 PUSH1 0x4 ADD PUSH2 0x38C9 JUMP JUMPDEST PUSH2 0x422D JUMP JUMPDEST CALLVALUE PUSH2 0x20A JUMPI PUSH1 0x40 CALLDATASIZE PUSH1 0x3 NOT ADD SLT PUSH2 0x20A JUMPI PUSH1 0x4 CALLDATALOAD PUSH1 0x1 PUSH1 0x1 PUSH1 0x40 SHL SUB DUP2 GT PUSH2 0x20A JUMPI PUSH2 0x1337 PUSH2 0x208 SWAP2 CALLDATASIZE SWAP1 PUSH1 0x4 ADD PUSH2 0x38C9 JUMP JUMPDEST PUSH1 0x24 CALLDATALOAD SWAP1 PUSH2 0x4145 JUMP JUMPDEST CALLVALUE PUSH2 0x20A JUMPI PUSH1 0x20 CALLDATASIZE PUSH1 0x3 NOT ADD SLT PUSH2 0x20A JUMPI PUSH1 0x4 CALLDATALOAD PUSH1 0x1 PUSH1 0x1 PUSH1 0x40 SHL SUB DUP2 GT PUSH2 0x20A JUMPI PUSH2 0x1370 SWAP1 CALLDATASIZE SWAP1 PUSH1 0x4 ADD PUSH2 0x38C9 JUMP JUMPDEST PUSH1 0x3 SLOAD PUSH1 0x20 DUP3 ADD SWAP2 PUSH0 DUP1 JUMPDEST DUP4 DUP2 LT PUSH2 0x144C JUMPI POP PUSH1 0xFF PUSH2 0x138F SWAP2 AND PUSH2 0x3FDB JUMP JUMPDEST SWAP3 PUSH0 SWAP2 PUSH0 JUMPDEST DUP5 DUP2 LT PUSH2 0x13A9 JUMPI PUSH1 0x40 MLOAD DUP1 PUSH2 0xCFF DUP9 DUP3 PUSH2 0x3B2C JUMP JUMPDEST PUSH1 0x2 PUSH2 0x533 PUSH2 0x13CE PUSH2 0x13BA DUP5 PUSH2 0x3E7E JUMP JUMPDEST POP PUSH1 0x40 MLOAD SWAP3 DUP4 SWAP2 PUSH1 0x20 DUP4 ADD SWAP6 DUP7 SWAP2 ADD PUSH2 0x3F2C JUMP JUMPDEST MLOAD SWAP1 KECCAK256 PUSH1 0x40 MLOAD PUSH1 0x20 DUP2 ADD SWAP1 PUSH2 0x13FB PUSH1 0x20 DUP3 DUP8 MLOAD DUP1 DUP11 DUP8 MCOPY DUP2 ADD PUSH0 DUP4 DUP3 ADD MSTORE SUB ADD PUSH1 0x1F NOT DUP2 ADD DUP4 MSTORE DUP3 PUSH2 0x38A8 JUMP JUMPDEST MLOAD SWAP1 KECCAK256 EQ PUSH2 0x140C JUMPI JUMPDEST PUSH1 0x1 ADD PUSH2 0x1394 JUMP JUMPDEST SWAP3 PUSH2 0x1444 PUSH1 0x1 SWAP2 PUSH2 0x143E PUSH2 0x1428 PUSH2 0x1422 DUP9 PUSH2 0x3E7E JUMP JUMPDEST POP PUSH2 0x4078 JUMP JUMPDEST PUSH1 0xFF DUP4 AND SWAP1 PUSH2 0x1437 DUP3 DUP13 PUSH2 0x4058 JUMP JUMPDEST MSTORE DUP10 PUSH2 0x4058 JUMP JUMPDEST POP PUSH2 0x40EF JUMP JUMPDEST SWAP4 SWAP1 POP PUSH2 0x1404 JUMP JUMPDEST PUSH1 0x2 PUSH2 0x533 PUSH2 0x145D PUSH2 0x13BA DUP5 PUSH2 0x3E7E JUMP JUMPDEST MLOAD SWAP1 KECCAK256 PUSH1 0x40 MLOAD PUSH1 0x20 DUP2 ADD SWAP1 PUSH2 0x148A PUSH1 0x20 DUP3 DUP9 MLOAD DUP1 DUP13 DUP8 MCOPY DUP2 ADD PUSH0 DUP4 DUP3 ADD MSTORE SUB ADD PUSH1 0x1F NOT DUP2 ADD DUP4 MSTORE DUP3 PUSH2 0x38A8 JUMP JUMPDEST MLOAD SWAP1 KECCAK256 EQ PUSH2 0x149B JUMPI JUMPDEST PUSH1 0x1 ADD PUSH2 0x137B JUMP JUMPDEST SWAP1 PUSH2 0x14A7 PUSH1 0x1 SWAP2 PUSH2 0x40EF JUMP JUMPDEST SWAP2 SWAP1 POP PUSH2 0x1493 JUMP JUMPDEST CALLVALUE PUSH2 0x20A JUMPI PUSH1 0x20 CALLDATASIZE PUSH1 0x3 NOT ADD SLT PUSH2 0x20A JUMPI PUSH1 0x4 CALLDATALOAD PUSH1 0x1 PUSH1 0x1 PUSH1 0x40 SHL SUB DUP2 GT PUSH2 0x20A JUMPI PUSH1 0x20 DUP1 PUSH2 0x14E5 PUSH2 0x153A SWAP4 CALLDATASIZE SWAP1 PUSH1 0x4 ADD PUSH2 0x38C9 JUMP JUMPDEST PUSH1 0x40 MLOAD SWAP3 DUP2 DUP5 SWAP3 MLOAD SWAP2 DUP3 SWAP2 ADD DUP4 MCOPY DUP2 ADD PUSH1 0x5 DUP2 MSTORE SUB ADD SWAP1 KECCAK256 PUSH2 0xCFF PUSH2 0x1509 DUP3 PUSH2 0x39B8 JUMP JUMPDEST SWAP2 PUSH2 0x1548 PUSH2 0x1525 PUSH1 0x2 PUSH2 0x151E PUSH1 0x1 DUP6 ADD PUSH2 0x39B8 JUMP JUMPDEST SWAP4 ADD PUSH2 0x39B8 JUMP JUMPDEST SWAP2 PUSH1 0x40 MLOAD SWAP6 DUP7 SWAP6 PUSH1 0x60 DUP8 MSTORE PUSH1 0x60 DUP8 ADD SWAP1 PUSH2 0x391E JUMP JUMPDEST SWAP1 DUP6 DUP3 SUB PUSH1 0x20 DUP8 ADD MSTORE PUSH2 0x391E JUMP JUMPDEST SWAP1 DUP4 DUP3 SUB PUSH1 0x40 DUP6 ADD MSTORE PUSH2 0x391E JUMP JUMPDEST CALLVALUE PUSH2 0x20A JUMPI PUSH1 0x20 CALLDATASIZE PUSH1 0x3 NOT ADD SLT PUSH2 0x20A JUMPI PUSH1 0x4 CALLDATALOAD PUSH1 0x1 PUSH1 0x1 PUSH1 0x40 SHL SUB DUP2 GT PUSH2 0x20A JUMPI PUSH2 0x1589 PUSH2 0x158E SWAP2 CALLDATASIZE SWAP1 PUSH1 0x4 ADD PUSH2 0x38C9 JUMP JUMPDEST PUSH2 0x4100 JUMP JUMPDEST SWAP1 PUSH2 0xCFF PUSH1 0x40 MLOAD SWAP3 DUP4 SWAP3 DUP4 PUSH2 0x3B07 JUMP JUMPDEST CALLVALUE PUSH2 0x20A JUMPI PUSH1 0x20 CALLDATASIZE PUSH1 0x3 NOT ADD SLT PUSH2 0x20A JUMPI PUSH1 0x4 CALLDATALOAD PUSH1 0x1 PUSH1 0x1 PUSH1 0x40 SHL SUB DUP2 GT PUSH2 0x20A JUMPI PUSH2 0x15CE SWAP1 CALLDATASIZE SWAP1 PUSH1 0x4 ADD PUSH2 0x38C9 JUMP JUMPDEST PUSH1 0x40 MLOAD PUSH2 0x15DA DUP2 PUSH2 0x3820 JUMP JUMPDEST PUSH1 0x60 DUP2 MSTORE PUSH1 0x20 DUP2 ADD PUSH1 0x60 SWAP1 MSTORE PUSH1 0x40 DUP2 ADD PUSH0 SWAP1 MSTORE PUSH1 0x60 ADD PUSH1 0x60 SWAP1 MSTORE PUSH1 0x40 MLOAD PUSH2 0x1600 DUP2 PUSH2 0x3856 JUMP JUMPDEST PUSH1 0x60 DUP2 MSTORE PUSH1 0x20 DUP2 ADD PUSH1 0x60 SWAP1 MSTORE PUSH1 0x40 ADD PUSH1 0x60 SWAP1 MSTORE PUSH1 0x40 MLOAD PUSH2 0x161F DUP2 PUSH2 0x3871 JUMP JUMPDEST PUSH1 0x60 DUP2 MSTORE PUSH1 0x20 ADD PUSH1 0x60 SWAP1 MSTORE PUSH1 0x40 MLOAD PUSH2 0x1636 DUP2 PUSH2 0x3805 JUMP JUMPDEST PUSH1 0x60 DUP2 MSTORE PUSH1 0x20 DUP2 ADD PUSH1 0x60 SWAP1 MSTORE PUSH1 0x40 DUP2 ADD PUSH1 0x60 SWAP1 MSTORE PUSH1 0x60 DUP2 ADD PUSH1 0x60 SWAP1 MSTORE PUSH1 0x80 DUP2 ADD PUSH1 0x60 SWAP1 MSTORE PUSH1 0xA0 ADD PUSH1 0x60 SWAP1 MSTORE PUSH1 0x40 MLOAD SWAP1 DUP1 MLOAD SWAP2 DUP1 PUSH1 0x20 DUP4 ADD SWAP4 DUP1 DUP6 DUP4 MCOPY DUP2 ADD PUSH1 0x4 DUP2 MSTORE SUB PUSH1 0x20 ADD SWAP1 KECCAK256 SWAP1 PUSH1 0x40 MLOAD DUP1 DUP3 MLOAD DUP1 DUP7 DUP4 MCOPY DUP2 ADD PUSH1 0x5 DUP2 MSTORE SUB PUSH1 0x20 ADD SWAP1 KECCAK256 SWAP3 PUSH1 0x40 MLOAD DUP1 DUP4 MLOAD DUP1 DUP5 DUP4 MCOPY DUP2 ADD PUSH1 0x6 DUP2 MSTORE SUB PUSH1 0x20 ADD SWAP1 KECCAK256 SWAP2 PUSH1 0x40 MLOAD SWAP2 DUP3 SWAP2 MLOAD DUP1 SWAP2 DUP4 MCOPY DUP2 ADD PUSH1 0x7 DUP2 MSTORE SUB PUSH1 0x20 ADD SWAP1 KECCAK256 SWAP3 PUSH1 0x40 MLOAD SWAP4 PUSH2 0x16D2 DUP6 PUSH2 0x3820 JUMP JUMPDEST PUSH2 0x16DB DUP5 PUSH2 0x39B8 JUMP JUMPDEST DUP6 MSTORE PUSH2 0x16E9 PUSH1 0x1 DUP6 ADD PUSH2 0x39B8 JUMP JUMPDEST SWAP4 PUSH1 0x20 DUP7 ADD SWAP5 DUP6 MSTORE PUSH1 0x2 DUP2 ADD SLOAD PUSH1 0xFF AND SWAP1 PUSH1 0x40 DUP8 ADD SWAP2 DUP3 MSTORE PUSH1 0x3 ADD PUSH2 0x170D SWAP1 PUSH2 0x39B8 JUMP JUMPDEST SWAP3 PUSH1 0x60 DUP8 ADD SWAP4 DUP5 MSTORE PUSH1 0x40 MLOAD SWAP5 PUSH2 0x1722 DUP7 PUSH2 0x3856 JUMP JUMPDEST PUSH2 0x172B DUP3 PUSH2 0x39B8 JUMP JUMPDEST DUP7 MSTORE PUSH2 0x1739 PUSH1 0x1 DUP4 ADD PUSH2 0x39B8 JUMP JUMPDEST SWAP2 PUSH1 0x20 DUP8 ADD SWAP3 DUP4 MSTORE PUSH1 0x2 ADD PUSH2 0x174D SWAP1 PUSH2 0x39B8 JUMP JUMPDEST SWAP1 PUSH1 0x40 DUP8 ADD SWAP2 DUP3 MSTORE PUSH1 0x40 MLOAD SWAP1 PUSH2 0x1762 DUP3 PUSH2 0x3871 JUMP JUMPDEST PUSH2 0x176B DUP2 PUSH2 0x39B8 JUMP JUMPDEST DUP3 MSTORE PUSH1 0x1 ADD PUSH2 0x1779 SWAP1 PUSH2 0x39B8 JUMP JUMPDEST PUSH1 0x20 DUP3 ADD SWAP1 DUP2 MSTORE PUSH1 0x40 MLOAD SWAP8 PUSH2 0x178D DUP10 PUSH2 0x3805 JUMP JUMPDEST PUSH2 0x1796 DUP8 PUSH2 0x39B8 JUMP JUMPDEST DUP10 MSTORE PUSH2 0x17A4 PUSH1 0x1 DUP9 ADD PUSH2 0x39B8 JUMP JUMPDEST PUSH1 0x20 DUP11 ADD SWAP1 DUP2 MSTORE SWAP4 PUSH2 0x17B8 PUSH1 0x2 DUP10 ADD PUSH2 0x39B8 JUMP JUMPDEST PUSH1 0x40 DUP12 ADD SWAP1 DUP2 MSTORE SWAP6 PUSH2 0x17CC PUSH1 0x3 DUP11 ADD PUSH2 0x39B8 JUMP JUMPDEST PUSH1 0x60 DUP13 ADD SWAP1 DUP2 MSTORE SWAP8 PUSH2 0x17E0 PUSH1 0x4 DUP12 ADD PUSH2 0x39B8 JUMP JUMPDEST SWAP10 PUSH1 0x80 DUP14 ADD SWAP11 DUP12 MSTORE PUSH1 0x5 ADD PUSH2 0x17F4 SWAP1 PUSH2 0x39B8 JUMP JUMPDEST SWAP11 PUSH1 0xA0 DUP14 ADD SWAP12 DUP13 MSTORE PUSH1 0x40 MLOAD SWAP15 DUP16 SWAP15 DUP16 SWAP2 PUSH1 0x80 DUP4 MSTORE MLOAD PUSH1 0x80 DUP4 ADD PUSH1 0x80 SWAP1 MSTORE PUSH2 0x100 DUP4 ADD PUSH2 0x181F SWAP2 PUSH2 0x391E JUMP JUMPDEST SWAP1 MLOAD DUP3 DUP3 SUB PUSH1 0x7F NOT ADD PUSH1 0xA0 DUP5 ADD MSTORE PUSH2 0x1837 SWAP2 SWAP1 PUSH2 0x391E JUMP JUMPDEST SWAP3 MLOAD PUSH1 0xFF AND PUSH1 0xC0 SWAP1 SWAP2 ADD MSTORE MLOAD DUP14 DUP3 SUB PUSH1 0x7F NOT ADD PUSH1 0xE0 DUP16 ADD MSTORE PUSH2 0x1859 SWAP2 SWAP1 PUSH2 0x391E JUMP JUMPDEST SWAP3 DUP13 DUP1 DUP6 SUB SWAP1 PUSH1 0x20 ADD MSTORE MLOAD PUSH1 0x60 DUP5 MSTORE PUSH1 0x60 DUP5 ADD PUSH2 0x1875 SWAP2 PUSH2 0x391E JUMP JUMPDEST SWAP1 MLOAD SWAP1 DUP4 DUP2 SUB PUSH1 0x20 DUP6 ADD MSTORE PUSH2 0x1889 SWAP2 PUSH2 0x391E JUMP JUMPDEST SWAP1 MLOAD SWAP2 DUP1 DUP3 SUB SWAP1 PUSH1 0x40 ADD MSTORE PUSH2 0x189D SWAP2 PUSH2 0x391E JUMP JUMPDEST SWAP2 DUP10 DUP4 SUB PUSH1 0x40 DUP12 ADD MSTORE MLOAD PUSH1 0x40 DUP4 MSTORE PUSH1 0x40 DUP4 ADD PUSH2 0x18B8 SWAP2 PUSH2 0x391E JUMP JUMPDEST SWAP1 MLOAD SWAP2 DUP1 DUP3 SUB SWAP1 PUSH1 0x20 ADD MSTORE PUSH2 0x18CC SWAP2 PUSH2 0x391E JUMP JUMPDEST SWAP6 DUP8 DUP8 SUB PUSH1 0x60 DUP10 ADD MSTORE MLOAD PUSH1 0xC0 DUP8 MSTORE PUSH1 0xC0 DUP8 ADD PUSH2 0x18E7 SWAP2 PUSH2 0x391E JUMP JUMPDEST SWAP1 MLOAD SWAP1 DUP7 DUP2 SUB PUSH1 0x20 DUP9 ADD MSTORE PUSH2 0x18FB SWAP2 PUSH2 0x391E JUMP JUMPDEST SWAP1 MLOAD SWAP1 DUP6 DUP2 SUB PUSH1 0x40 DUP8 ADD MSTORE PUSH2 0x190F SWAP2 PUSH2 0x391E JUMP JUMPDEST SWAP1 MLOAD SWAP1 DUP5 DUP2 SUB PUSH1 0x60 DUP7 ADD MSTORE PUSH2 0x1923 SWAP2 PUSH2 0x391E JUMP JUMPDEST SWAP1 MLOAD SWAP1 DUP4 DUP2 SUB PUSH1 0x80 DUP6 ADD MSTORE PUSH2 0x1937 SWAP2 PUSH2 0x391E JUMP JUMPDEST SWAP1 MLOAD SWAP2 DUP1 DUP3 SUB SWAP1 PUSH1 0xA0 ADD MSTORE PUSH2 0xCFF SWAP2 PUSH2 0x391E JUMP JUMPDEST CALLVALUE PUSH2 0x20A JUMPI PUSH1 0x20 CALLDATASIZE PUSH1 0x3 NOT ADD SLT PUSH2 0x20A JUMPI PUSH1 0x4 CALLDATALOAD PUSH1 0x1 PUSH1 0x1 PUSH1 0x40 SHL SUB DUP2 GT PUSH2 0x20A JUMPI PUSH1 0x20 DUP1 PUSH2 0x1981 PUSH2 0x19DE SWAP4 CALLDATASIZE SWAP1 PUSH1 0x4 ADD PUSH2 0x38C9 JUMP JUMPDEST PUSH1 0x40 MLOAD SWAP3 DUP2 DUP5 SWAP3 MLOAD SWAP2 DUP3 SWAP2 ADD DUP4 MCOPY DUP2 ADD PUSH1 0x4 DUP2 MSTORE SUB ADD SWAP1 KECCAK256 PUSH2 0xCFF PUSH2 0x19A5 DUP3 PUSH2 0x39B8 JUMP JUMPDEST SWAP2 PUSH2 0x19B2 PUSH1 0x1 DUP3 ADD PUSH2 0x39B8 JUMP JUMPDEST PUSH2 0x19EC PUSH2 0x19C9 PUSH1 0x3 PUSH1 0xFF PUSH1 0x2 DUP7 ADD SLOAD AND SWAP5 ADD PUSH2 0x39B8 JUMP JUMPDEST SWAP2 PUSH1 0x40 MLOAD SWAP7 DUP8 SWAP7 PUSH1 0x80 DUP9 MSTORE PUSH1 0x80 DUP9 ADD SWAP1 PUSH2 0x391E JUMP JUMPDEST SWAP1 DUP7 DUP3 SUB PUSH1 0x20 DUP9 ADD MSTORE PUSH2 0x391E JUMP JUMPDEST SWAP2 PUSH1 0x40 DUP6 ADD MSTORE DUP4 DUP3 SUB PUSH1 0x60 DUP6 ADD MSTORE PUSH2 0x391E JUMP JUMPDEST CALLVALUE PUSH2 0x20A JUMPI PUSH2 0x100 CALLDATASIZE PUSH1 0x3 NOT ADD SLT PUSH2 0x20A JUMPI PUSH1 0x4 CALLDATALOAD PUSH1 0x1 PUSH1 0x1 PUSH1 0x40 SHL SUB DUP2 GT PUSH2 0x20A JUMPI PUSH2 0x1A30 SWAP1 CALLDATASIZE SWAP1 PUSH1 0x4 ADD PUSH2 0x38C9 JUMP JUMPDEST PUSH1 0x24 CALLDATALOAD PUSH1 0x1 PUSH1 0x1 PUSH1 0x40 SHL SUB DUP2 GT PUSH2 0x20A JUMPI PUSH2 0x1A4F SWAP1 CALLDATASIZE SWAP1 PUSH1 0x4 ADD PUSH2 0x38C9 JUMP JUMPDEST PUSH1 0x44 CALLDATALOAD PUSH1 0x1 PUSH1 0x1 PUSH1 0x40 SHL SUB DUP2 GT PUSH2 0x20A JUMPI PUSH2 0x1A6E SWAP1 CALLDATASIZE SWAP1 PUSH1 0x4 ADD PUSH2 0x38C9 JUMP JUMPDEST SWAP2 PUSH1 0x64 CALLDATALOAD PUSH1 0x1 PUSH1 0x1 PUSH1 0xA0 SHL SUB DUP2 AND DUP2 SUB PUSH2 0x20A JUMPI PUSH1 0x84 CALLDATALOAD SWAP4 PUSH1 0xFF DUP6 AND DUP1 SWAP6 SUB PUSH2 0x20A JUMPI PUSH1 0xA4 CALLDATALOAD PUSH1 0x1 PUSH1 0x1 PUSH1 0x40 SHL SUB DUP2 GT PUSH2 0x20A JUMPI PUSH2 0x1AB0 SWAP1 CALLDATASIZE SWAP1 PUSH1 0x4 ADD PUSH2 0x38C9 JUMP JUMPDEST SWAP5 PUSH1 0xC4 CALLDATALOAD PUSH1 0x1 PUSH1 0x1 PUSH1 0x40 SHL SUB DUP2 GT PUSH2 0x20A JUMPI PUSH2 0x1AD0 SWAP1 CALLDATASIZE SWAP1 PUSH1 0x4 ADD PUSH2 0x3BFC JUMP JUMPDEST SWAP3 PUSH1 0xE4 CALLDATALOAD SWAP1 PUSH1 0x1 PUSH1 0x1 PUSH1 0x40 SHL SUB DUP3 GT PUSH2 0x20A JUMPI DUP4 PUSH2 0x1AF5 PUSH2 0x1AFB SWAP4 CALLDATASIZE SWAP1 PUSH1 0x4 ADD PUSH2 0x3C7F JUMP JUMPDEST SWAP8 PUSH2 0x3EFC JUMP JUMPDEST SWAP6 PUSH2 0x1B4B DUP6 PUSH1 0x20 SWAP9 PUSH1 0x40 MLOAD SWAP1 PUSH2 0x1B11 DUP12 DUP4 PUSH2 0x38A8 JUMP JUMPDEST PUSH0 DUP3 MSTORE PUSH1 0x40 MLOAD PUSH2 0x1B21 DUP13 DUP3 PUSH2 0x38A8 JUMP JUMPDEST PUSH0 DUP2 MSTORE PUSH2 0x1B2C PUSH2 0x3EAE JUMP JUMPDEST POP PUSH1 0x40 MLOAD SWAP3 PUSH2 0x1B3A DUP5 PUSH2 0x3856 JUMP JUMPDEST DUP4 MSTORE DUP12 DUP4 ADD MSTORE PUSH0 PUSH1 0x40 DUP4 ADD MSTORE PUSH2 0x4C99 JUMP JUMPDEST PUSH1 0x40 MLOAD PUSH2 0x1B57 DUP2 PUSH2 0x3820 JUMP JUMPDEST DUP6 DUP2 MSTORE PUSH1 0x40 MLOAD PUSH2 0x1B67 DUP10 DUP3 PUSH2 0x38A8 JUMP JUMPDEST PUSH0 DUP2 MSTORE DUP9 DUP3 ADD SWAP1 DUP2 MSTORE PUSH1 0x40 DUP3 ADD SWAP1 DUP5 DUP3 MSTORE PUSH1 0x60 DUP4 ADD SWAP4 DUP5 MSTORE PUSH1 0x40 MLOAD DUP11 DUP2 DUP11 MLOAD DUP1 DUP4 DUP14 ADD DUP4 MCOPY DUP2 ADD PUSH1 0x4 DUP2 MSTORE SUB ADD SWAP1 KECCAK256 SWAP3 MLOAD DUP1 MLOAD SWAP1 PUSH1 0x1 PUSH1 0x1 PUSH1 0x40 SHL SUB DUP3 GT PUSH2 0x35E JUMPI DUP2 SWAP1 DUP13 PUSH2 0x1BB6 DUP8 SLOAD PUSH2 0x3980 JUMP JUMPDEST PUSH1 0x1F DUP2 GT PUSH2 0x2938 JUMPI JUMPDEST POP POP DUP13 SWAP1 DUP14 PUSH1 0x1F DUP5 GT PUSH1 0x1 EQ PUSH2 0x28D4 JUMPI POP PUSH0 SWAP3 PUSH2 0x28C9 JUMPI JUMPDEST POP POP DUP2 PUSH1 0x1 SHL SWAP2 PUSH0 NOT SWAP1 PUSH1 0x3 SHL SHR NOT AND OR DUP4 SSTORE JUMPDEST MLOAD DUP1 MLOAD PUSH1 0x1 DUP5 ADD SWAP2 PUSH1 0x1 PUSH1 0x1 PUSH1 0x40 SHL SUB DUP3 GT PUSH2 0x35E JUMPI DUP12 PUSH2 0x1C0C DUP5 SLOAD PUSH2 0x3980 JUMP JUMPDEST PUSH1 0x1F DUP2 GT PUSH2 0x2884 JUMPI JUMPDEST POP POP DUP12 SWAP1 DUP13 PUSH1 0x1F DUP5 GT PUSH1 0x1 EQ PUSH2 0x2819 JUMPI POP SWAP2 DUP1 PUSH1 0xFF SWAP5 SWAP3 PUSH1 0x3 SWAP8 SWAP7 SWAP5 PUSH0 SWAP3 PUSH2 0x280E JUMPI JUMPDEST POP POP DUP2 PUSH1 0x1 SHL SWAP2 PUSH0 NOT SWAP1 DUP9 SHL SHR NOT AND OR SWAP1 SSTORE JUMPDEST MLOAD AND PUSH1 0xFF PUSH1 0x2 DUP4 ADD SWAP2 AND PUSH1 0xFF NOT DUP3 SLOAD AND OR SWAP1 SSTORE ADD SWAP1 MLOAD DUP1 MLOAD SWAP1 PUSH1 0x1 PUSH1 0x1 PUSH1 0x40 SHL SUB DUP3 GT PUSH2 0x35E JUMPI DUP2 SWAP1 PUSH2 0x1C7E DUP5 SLOAD PUSH2 0x3980 JUMP JUMPDEST PUSH1 0x1F DUP2 GT PUSH2 0x27C0 JUMPI JUMPDEST POP DUP10 SWAP1 PUSH1 0x1F DUP4 GT PUSH1 0x1 EQ PUSH2 0x275D JUMPI PUSH0 SWAP3 PUSH2 0x2752 JUMPI JUMPDEST POP POP DUP2 PUSH1 0x1 SHL SWAP2 PUSH0 NOT SWAP1 PUSH1 0x3 SHL SHR NOT AND OR SWAP1 SSTORE JUMPDEST PUSH1 0x40 MLOAD SWAP1 PUSH2 0x1CBD DUP3 PUSH2 0x383B JUMP JUMPDEST DUP5 DUP3 MSTORE PUSH1 0x40 MLOAD SWAP3 PUSH2 0x1CCE DUP9 DUP6 PUSH2 0x38A8 JUMP JUMPDEST PUSH0 DUP5 MSTORE DUP8 DUP4 ADD SWAP4 DUP5 MSTORE PUSH1 0x40 DUP4 ADD MSTORE PUSH1 0x60 DUP3 ADD MSTORE PUSH0 PUSH1 0x80 DUP3 ADD MSTORE PUSH1 0x40 MLOAD PUSH2 0x1CF4 DUP8 DUP3 PUSH2 0x38A8 JUMP JUMPDEST PUSH0 DUP2 MSTORE PUSH1 0xA0 DUP3 ADD MSTORE PUSH0 PUSH1 0xC0 DUP3 ADD MSTORE PUSH1 0x3 SLOAD PUSH9 0x10000000000000000 DUP2 LT ISZERO PUSH2 0x35E JUMPI DUP1 PUSH1 0x1 PUSH2 0x1D26 SWAP3 ADD PUSH1 0x3 SSTORE PUSH2 0x3E7E JUMP JUMPDEST SWAP3 SWAP1 SWAP3 PUSH2 0x273F JUMPI DUP2 MLOAD DUP1 MLOAD SWAP1 PUSH1 0x1 PUSH1 0x1 PUSH1 0x40 SHL SUB DUP3 GT PUSH2 0x35E JUMPI DUP2 SWAP1 PUSH2 0x1D4C DUP7 SLOAD PUSH2 0x3980 JUMP JUMPDEST PUSH1 0x1F DUP2 GT PUSH2 0x26F1 JUMPI JUMPDEST POP DUP10 SWAP1 PUSH1 0x1F DUP4 GT PUSH1 0x1 EQ PUSH2 0x268E JUMPI PUSH0 SWAP3 PUSH2 0x2683 JUMPI JUMPDEST POP POP DUP2 PUSH1 0x1 SHL SWAP2 PUSH0 NOT SWAP1 PUSH1 0x3 SHL SHR NOT AND OR DUP4 SSTORE JUMPDEST MLOAD DUP1 MLOAD SWAP1 PUSH1 0x1 PUSH1 0x1 PUSH1 0x40 SHL SUB DUP3 GT PUSH2 0x35E JUMPI DUP2 SWAP1 PUSH2 0x1D9F PUSH1 0x1 DUP7 ADD SLOAD PUSH2 0x3980 JUMP JUMPDEST PUSH1 0x1F DUP2 GT PUSH2 0x2632 JUMPI JUMPDEST POP DUP9 SWAP1 PUSH1 0x1F DUP4 GT PUSH1 0x1 EQ PUSH2 0x25C8 JUMPI PUSH0 SWAP3 PUSH2 0x25BD JUMPI JUMPDEST POP POP DUP2 PUSH1 0x1 SHL SWAP2 PUSH0 NOT SWAP1 PUSH1 0x3 SHL SHR NOT AND OR PUSH1 0x1 DUP4 ADD SSTORE JUMPDEST PUSH1 0x2 DUP3 ADD PUSH1 0x40 DUP3 ADD MLOAD DUP1 MLOAD SWAP1 PUSH1 0x1 PUSH1 0x1 PUSH1 0x40 SHL SUB DUP3 GT PUSH2 0x35E JUMPI DUP2 SWAP1 PUSH2 0x1DFA DUP5 SLOAD PUSH2 0x3980 JUMP JUMPDEST PUSH1 0x1F DUP2 GT PUSH2 0x256F JUMPI JUMPDEST POP DUP10 SWAP1 PUSH1 0x1F DUP4 GT PUSH1 0x1 EQ PUSH2 0x250C JUMPI PUSH0 SWAP3 PUSH2 0x2501 JUMPI JUMPDEST POP POP DUP2 PUSH1 0x1 SHL SWAP2 PUSH0 NOT SWAP1 PUSH1 0x3 SHL SHR NOT AND OR SWAP1 SSTORE JUMPDEST PUSH1 0x3 DUP3 ADD PUSH1 0xFF DUP1 PUSH1 0x60 DUP5 ADD MLOAD AND AND PUSH1 0xFF NOT DUP3 SLOAD AND OR DUP2 SSTORE PUSH1 0x80 DUP3 ADD MLOAD PUSH1 0x9 DUP2 LT ISZERO PUSH2 0x24ED JUMPI PUSH2 0xFF00 DUP3 SLOAD SWAP2 PUSH1 0x8 SHL AND SWAP1 PUSH2 0xFF00 NOT AND OR SWAP1 SSTORE PUSH1 0x4 DUP3 ADD PUSH1 0xA0 DUP3 ADD MLOAD DUP1 MLOAD SWAP1 PUSH1 0x1 PUSH1 0x1 PUSH1 0x40 SHL SUB DUP3 GT PUSH2 0x35E JUMPI PUSH2 0x1E88 DUP4 SLOAD PUSH2 0x3980 JUMP JUMPDEST PUSH1 0x1F DUP2 GT PUSH2 0x24AA JUMPI JUMPDEST POP DUP9 SWAP1 PUSH1 0x1F DUP4 GT PUSH1 0x1 EQ PUSH2 0x2441 JUMPI SWAP2 DUP1 PUSH1 0xC0 SWAP5 SWAP3 PUSH1 0x5 SWAP7 SWAP5 PUSH0 SWAP3 PUSH2 0x2436 JUMPI JUMPDEST POP POP DUP2 PUSH1 0x1 SHL SWAP2 PUSH0 NOT SWAP1 PUSH1 0x3 SHL SHR NOT AND OR SWAP1 SSTORE JUMPDEST ADD MLOAD SWAP2 ADD SSTORE PUSH1 0x40 MLOAD DUP5 DUP2 DUP5 MLOAD DUP1 DUP4 DUP8 ADD DUP4 MCOPY DUP2 ADD PUSH1 0x5 DUP2 MSTORE SUB ADD SWAP1 KECCAK256 DUP2 MLOAD DUP1 MLOAD SWAP1 PUSH1 0x1 PUSH1 0x1 PUSH1 0x40 SHL SUB DUP3 GT PUSH2 0x35E JUMPI DUP2 SWAP1 PUSH2 0x1EFF DUP5 SLOAD PUSH2 0x3980 JUMP JUMPDEST PUSH1 0x1F DUP2 GT PUSH2 0x23E8 JUMPI JUMPDEST POP DUP8 SWAP1 PUSH1 0x1F DUP4 GT PUSH1 0x1 EQ PUSH2 0x2385 JUMPI PUSH0 SWAP3 PUSH2 0x237A JUMPI JUMPDEST POP POP DUP2 PUSH1 0x1 SHL SWAP2 PUSH0 NOT SWAP1 PUSH1 0x3 SHL SHR NOT AND OR DUP2 SSTORE JUMPDEST PUSH1 0x1 DUP2 ADD DUP6 DUP4 ADD MLOAD DUP1 MLOAD SWAP1 PUSH1 0x1 PUSH1 0x1 PUSH1 0x40 SHL SUB DUP3 GT PUSH2 0x35E JUMPI PUSH2 0x1F54 DUP4 SLOAD PUSH2 0x3980 JUMP JUMPDEST PUSH1 0x1F DUP2 GT PUSH2 0x2337 JUMPI JUMPDEST POP DUP8 SWAP1 PUSH1 0x1F DUP4 GT PUSH1 0x1 EQ PUSH2 0x22CE JUMPI SWAP2 DUP1 PUSH1 0x2 SWAP5 SWAP3 PUSH1 0x40 SWAP7 SWAP5 PUSH0 SWAP3 PUSH2 0x22C3 JUMPI JUMPDEST POP POP DUP2 PUSH1 0x1 SHL SWAP2 PUSH0 NOT SWAP1 PUSH1 0x3 SHL SHR NOT AND OR SWAP1 SSTORE JUMPDEST ADD SWAP2 ADD MLOAD SWAP2 DUP3 MLOAD SWAP2 PUSH1 0x1 PUSH1 0x1 PUSH1 0x40 SHL SUB DUP4 GT PUSH2 0x35E JUMPI DUP6 SWAP3 PUSH2 0x1FB2 DUP3 SLOAD PUSH2 0x3980 JUMP JUMPDEST SWAP5 PUSH1 0x1F DUP7 GT PUSH2 0x226C JUMPI JUMPDEST DUP5 SWAP6 POP DUP5 SWAP1 PUSH1 0x1F DUP4 GT PUSH1 0x1 EQ PUSH2 0x2205 JUMPI PUSH0 SWAP2 SWAP1 DUP4 PUSH2 0x21FA JUMPI JUMPDEST POP POP DUP2 PUSH1 0x1 SHL SWAP2 PUSH0 NOT SWAP1 PUSH1 0x3 SHL SHR NOT AND OR SWAP1 SSTORE JUMPDEST PUSH1 0x40 MLOAD SWAP3 DUP2 DUP5 SWAP3 MLOAD SWAP2 DUP3 SWAP2 ADD DUP4 MCOPY DUP2 ADD PUSH1 0x6 DUP2 MSTORE SUB ADD SWAP1 KECCAK256 DUP2 MLOAD SWAP1 DUP2 MLOAD PUSH1 0x1 PUSH1 0x1 PUSH1 0x40 SHL SUB DUP2 GT PUSH2 0x35E JUMPI DUP5 SWAP3 PUSH2 0x2020 DUP4 SLOAD PUSH2 0x3980 JUMP JUMPDEST PUSH1 0x1F DUP2 GT PUSH2 0x21A8 JUMPI JUMPDEST POP DUP4 SWAP1 PUSH1 0x1F DUP4 GT PUSH1 0x1 EQ PUSH2 0x2142 JUMPI PUSH1 0x1 SWAP4 SWAP3 SWAP2 PUSH0 SWAP2 DUP4 PUSH2 0x2137 JUMPI JUMPDEST POP POP PUSH0 NOT PUSH1 0x3 DUP4 SWAP1 SHL SHR NOT AND SWAP1 DUP4 SHL OR DUP2 SSTORE JUMPDEST ADD SWAP2 ADD MLOAD SWAP2 DUP3 MLOAD SWAP1 PUSH1 0x1 PUSH1 0x1 PUSH1 0x40 SHL SUB DUP3 GT PUSH2 0x35E JUMPI PUSH2 0x2077 DUP4 SLOAD PUSH2 0x3980 JUMP JUMPDEST PUSH1 0x1F DUP2 GT PUSH2 0x20F4 JUMPI JUMPDEST POP DUP1 PUSH1 0x1F DUP4 GT PUSH1 0x1 EQ PUSH2 0x20AE JUMPI POP DUP2 SWAP3 SWAP4 PUSH0 SWAP3 PUSH2 0x2B2 JUMPI POP POP PUSH0 NOT PUSH1 0x3 DUP4 SWAP1 SHL SHR NOT AND PUSH1 0x1 SWAP2 SWAP1 SWAP2 SHL OR SWAP1 SSTORE STOP JUMPDEST SWAP1 PUSH1 0x1F NOT DUP4 AND SWAP5 DUP5 PUSH0 MSTORE DUP3 PUSH0 KECCAK256 SWAP3 PUSH0 SWAP1 JUMPDEST DUP8 DUP3 LT PUSH2 0x20DC JUMPI POP POP DUP4 PUSH1 0x1 SWAP6 SWAP7 LT PUSH2 0x2E9 JUMPI POP POP POP DUP2 SHL ADD SWAP1 SSTORE STOP JUMPDEST DUP1 PUSH1 0x1 DUP6 SWAP7 DUP3 SWAP5 SWAP7 DUP7 ADD MLOAD DUP2 SSTORE ADD SWAP6 ADD SWAP4 ADD SWAP1 PUSH2 0x20BF JUMP JUMPDEST DUP4 PUSH0 MSTORE DUP2 PUSH0 KECCAK256 PUSH1 0x1F DUP5 ADD PUSH1 0x5 SHR DUP2 ADD SWAP2 DUP4 DUP6 LT PUSH2 0x212D JUMPI JUMPDEST PUSH1 0x1F ADD PUSH1 0x5 SHR ADD SWAP1 JUMPDEST DUP2 DUP2 LT PUSH2 0x2122 JUMPI POP PUSH2 0x2080 JUMP JUMPDEST PUSH0 DUP2 SSTORE PUSH1 0x1 ADD PUSH2 0x2115 JUMP JUMPDEST SWAP1 SWAP2 POP DUP2 SWAP1 PUSH2 0x210C JUMP JUMPDEST ADD MLOAD SWAP1 POP DUP8 DUP1 PUSH2 0x2044 JUMP JUMPDEST SWAP1 PUSH1 0x1F NOT DUP4 AND SWAP2 DUP5 PUSH0 MSTORE DUP6 PUSH0 KECCAK256 SWAP3 PUSH0 JUMPDEST DUP8 DUP3 DUP3 LT PUSH2 0x2192 JUMPI POP POP SWAP2 PUSH1 0x1 SWAP6 SWAP5 SWAP3 SWAP2 DUP4 DUP8 SWAP6 SWAP4 LT PUSH2 0x217A JUMPI JUMPDEST POP POP POP DUP2 SHL ADD DUP2 SSTORE PUSH2 0x2057 JUMP JUMPDEST ADD MLOAD PUSH0 NOT PUSH1 0xF8 DUP5 PUSH1 0x3 SHL AND SHR NOT AND SWAP1 SSTORE DUP8 DUP1 DUP1 PUSH2 0x216D JUMP JUMPDEST PUSH1 0x1 DUP6 SWAP7 DUP3 SWAP4 SWAP7 DUP7 ADD MLOAD DUP2 SSTORE ADD SWAP6 ADD SWAP4 ADD PUSH2 0x2152 JUMP JUMPDEST SWAP1 SWAP2 SWAP3 DUP1 SWAP5 POP PUSH0 MSTORE DUP6 PUSH0 KECCAK256 PUSH1 0x1F DUP5 ADD PUSH1 0x5 SHR DUP2 ADD SWAP2 DUP8 DUP6 LT PUSH2 0x21F0 JUMPI JUMPDEST SWAP1 PUSH1 0x1F DUP9 SWAP7 SWAP6 SWAP5 SWAP4 SWAP3 ADD PUSH1 0x5 SHR ADD SWAP1 JUMPDEST DUP2 DUP2 LT PUSH2 0x21E2 JUMPI POP PUSH2 0x2029 JUMP JUMPDEST PUSH0 DUP2 SSTORE DUP8 SWAP6 POP PUSH1 0x1 ADD PUSH2 0x21D5 JUMP JUMPDEST SWAP1 SWAP2 POP DUP2 SWAP1 PUSH2 0x21C5 JUMP JUMPDEST ADD MLOAD SWAP1 POP DUP9 DUP1 PUSH2 0x1FD5 JUMP JUMPDEST PUSH1 0x1F SWAP6 SWAP5 SWAP4 SWAP3 SWAP2 SWAP6 NOT DUP3 AND SWAP6 DUP4 PUSH0 MSTORE DUP6 PUSH0 KECCAK256 SWAP2 PUSH0 JUMPDEST DUP9 DUP2 LT PUSH2 0x2254 JUMPI POP DUP4 PUSH1 0x1 SWAP6 SWAP7 SWAP8 SWAP9 LT PUSH2 0x223C JUMPI JUMPDEST POP POP POP DUP2 SHL ADD SWAP1 SSTORE PUSH2 0x1FE9 JUMP JUMPDEST ADD MLOAD PUSH0 NOT PUSH1 0xF8 DUP5 PUSH1 0x3 SHL AND SHR NOT AND SWAP1 SSTORE DUP9 DUP1 DUP1 PUSH2 0x222F JUMP JUMPDEST DUP3 DUP3 ADD MLOAD DUP5 SSTORE DUP10 SWAP8 PUSH1 0x1 SWAP1 SWAP5 ADD SWAP4 SWAP3 DUP4 ADD SWAP3 ADD PUSH2 0x221A JUMP JUMPDEST SWAP2 DUP1 SWAP5 POP PUSH0 SWAP6 SWAP2 SWAP4 SWAP6 MSTORE DUP7 PUSH0 KECCAK256 PUSH1 0x1F DUP5 ADD PUSH1 0x5 SHR DUP2 ADD SWAP2 DUP9 DUP6 LT PUSH2 0x22B9 JUMPI JUMPDEST SWAP1 PUSH1 0x1F DUP10 SWAP7 SWAP5 SWAP8 SWAP6 SWAP4 SWAP3 ADD PUSH1 0x5 SHR ADD SWAP1 JUMPDEST DUP2 DUP2 LT PUSH2 0x22AB JUMPI POP POP DUP5 PUSH2 0x1FBC JUMP JUMPDEST PUSH0 DUP2 SSTORE DUP9 SWAP6 POP PUSH1 0x1 ADD PUSH2 0x229C JUMP JUMPDEST SWAP1 SWAP2 POP DUP2 SWAP1 PUSH2 0x228B JUMP JUMPDEST ADD MLOAD SWAP1 POP DUP11 DUP1 PUSH2 0x1F7C JUMP JUMPDEST SWAP1 PUSH1 0x1F NOT DUP4 AND SWAP2 DUP5 PUSH0 MSTORE DUP10 PUSH0 KECCAK256 SWAP3 PUSH0 JUMPDEST DUP12 DUP3 DUP3 LT PUSH2 0x2321 JUMPI POP POP SWAP3 PUSH1 0x1 SWAP3 DUP6 SWAP3 PUSH1 0x40 SWAP9 SWAP7 PUSH1 0x2 SWAP9 SWAP7 LT PUSH2 0x2309 JUMPI JUMPDEST POP POP POP DUP2 SHL ADD SWAP1 SSTORE PUSH2 0x1F90 JUMP JUMPDEST ADD MLOAD PUSH0 NOT PUSH1 0xF8 DUP5 PUSH1 0x3 SHL AND SHR NOT AND SWAP1 SSTORE DUP11 DUP1 DUP1 PUSH2 0x22FC JUMP JUMPDEST PUSH1 0x1 DUP6 SWAP7 DUP3 SWAP4 SWAP7 DUP7 ADD MLOAD DUP2 SSTORE ADD SWAP6 ADD SWAP4 ADD PUSH2 0x22DE JUMP JUMPDEST DUP4 PUSH0 MSTORE DUP9 PUSH0 KECCAK256 PUSH1 0x1F DUP5 ADD PUSH1 0x5 SHR DUP2 ADD SWAP2 DUP11 DUP6 LT PUSH2 0x2370 JUMPI JUMPDEST PUSH1 0x1F ADD PUSH1 0x5 SHR ADD SWAP1 JUMPDEST DUP2 DUP2 LT PUSH2 0x2365 JUMPI POP PUSH2 0x1F5D JUMP JUMPDEST PUSH0 DUP2 SSTORE PUSH1 0x1 ADD PUSH2 0x2358 JUMP JUMPDEST SWAP1 SWAP2 POP DUP2 SWAP1 PUSH2 0x234F JUMP JUMPDEST ADD MLOAD SWAP1 POP DUP8 DUP1 PUSH2 0x1F1D JUMP JUMPDEST PUSH0 DUP6 DUP2 MSTORE DUP10 DUP2 KECCAK256 SWAP4 POP PUSH1 0x1F NOT DUP6 AND SWAP1 JUMPDEST DUP11 DUP3 DUP3 LT PUSH2 0x23D2 JUMPI POP POP SWAP1 DUP5 PUSH1 0x1 SWAP6 SWAP5 SWAP4 SWAP3 LT PUSH2 0x23BA JUMPI JUMPDEST POP POP POP DUP2 SHL ADD DUP2 SSTORE PUSH2 0x1F31 JUMP JUMPDEST ADD MLOAD PUSH0 NOT PUSH1 0xF8 DUP5 PUSH1 0x3 SHL AND SHR NOT AND SWAP1 SSTORE DUP8 DUP1 DUP1 PUSH2 0x23AD JUMP JUMPDEST PUSH1 0x1 DUP6 SWAP7 DUP3 SWAP4 SWAP7 DUP7 ADD MLOAD DUP2 SSTORE ADD SWAP6 ADD SWAP4 ADD PUSH2 0x2395 JUMP JUMPDEST SWAP1 SWAP2 POP DUP4 PUSH0 MSTORE DUP8 PUSH0 KECCAK256 PUSH1 0x1F DUP5 ADD PUSH1 0x5 SHR DUP2 ADD SWAP2 DUP10 DUP6 LT PUSH2 0x242C JUMPI JUMPDEST SWAP1 PUSH1 0x1F DUP6 SWAP5 SWAP4 SWAP3 ADD PUSH1 0x5 SHR ADD SWAP1 JUMPDEST DUP2 DUP2 LT PUSH2 0x241E JUMPI POP PUSH2 0x1F08 JUMP JUMPDEST PUSH0 DUP2 SSTORE DUP5 SWAP4 POP PUSH1 0x1 ADD PUSH2 0x2411 JUMP JUMPDEST SWAP1 SWAP2 POP DUP2 SWAP1 PUSH2 0x2403 JUMP JUMPDEST ADD MLOAD SWAP1 POP DUP12 DUP1 PUSH2 0x1EB0 JUMP JUMPDEST SWAP1 PUSH1 0x1F NOT DUP4 AND SWAP2 DUP5 PUSH0 MSTORE DUP11 PUSH0 KECCAK256 SWAP3 PUSH0 JUMPDEST DUP13 DUP3 DUP3 LT PUSH2 0x2494 JUMPI POP POP SWAP3 PUSH1 0x1 SWAP3 DUP6 SWAP3 PUSH1 0x5 SWAP9 SWAP7 PUSH1 0xC0 SWAP9 SWAP7 LT PUSH2 0x247C JUMPI JUMPDEST POP POP POP DUP2 SHL ADD SWAP1 SSTORE PUSH2 0x1EC4 JUMP JUMPDEST ADD MLOAD PUSH0 NOT PUSH1 0xF8 DUP5 PUSH1 0x3 SHL AND SHR NOT AND SWAP1 SSTORE DUP12 DUP1 DUP1 PUSH2 0x246F JUMP JUMPDEST PUSH1 0x1 DUP6 SWAP7 DUP3 SWAP4 SWAP7 DUP7 ADD MLOAD DUP2 SSTORE ADD SWAP6 ADD SWAP4 ADD PUSH2 0x2451 JUMP JUMPDEST DUP4 PUSH0 MSTORE DUP10 PUSH0 KECCAK256 PUSH1 0x1F DUP5 ADD PUSH1 0x5 SHR DUP2 ADD SWAP2 DUP12 DUP6 LT PUSH2 0x24E3 JUMPI JUMPDEST PUSH1 0x1F ADD PUSH1 0x5 SHR ADD SWAP1 JUMPDEST DUP2 DUP2 LT PUSH2 0x24D8 JUMPI POP PUSH2 0x1E91 JUMP JUMPDEST PUSH0 DUP2 SSTORE PUSH1 0x1 ADD PUSH2 0x24CB JUMP JUMPDEST SWAP1 SWAP2 POP DUP2 SWAP1 PUSH2 0x24C2 JUMP JUMPDEST PUSH4 0x4E487B71 PUSH1 0xE0 SHL PUSH0 MSTORE PUSH1 0x21 PUSH1 0x4 MSTORE PUSH1 0x24 PUSH0 REVERT JUMPDEST ADD MLOAD SWAP1 POP DUP10 DUP1 PUSH2 0x1E18 JUMP JUMPDEST PUSH0 DUP6 DUP2 MSTORE DUP12 DUP2 KECCAK256 SWAP4 POP PUSH1 0x1F NOT DUP6 AND SWAP1 JUMPDEST DUP13 DUP3 DUP3 LT PUSH2 0x2559 JUMPI POP POP SWAP1 DUP5 PUSH1 0x1 SWAP6 SWAP5 SWAP4 SWAP3 LT PUSH2 0x2541 JUMPI JUMPDEST POP POP POP DUP2 SHL ADD SWAP1 SSTORE PUSH2 0x1E2C JUMP JUMPDEST ADD MLOAD PUSH0 NOT PUSH1 0xF8 DUP5 PUSH1 0x3 SHL AND SHR NOT AND SWAP1 SSTORE DUP10 DUP1 DUP1 PUSH2 0x2534 JUMP JUMPDEST PUSH1 0x1 DUP6 SWAP7 DUP3 SWAP4 SWAP7 DUP7 ADD MLOAD DUP2 SSTORE ADD SWAP6 ADD SWAP4 ADD PUSH2 0x251C JUMP JUMPDEST SWAP1 SWAP2 POP DUP4 PUSH0 MSTORE DUP10 PUSH0 KECCAK256 PUSH1 0x1F DUP5 ADD PUSH1 0x5 SHR DUP2 ADD SWAP2 DUP12 DUP6 LT PUSH2 0x25B3 JUMPI JUMPDEST SWAP1 PUSH1 0x1F DUP6 SWAP5 SWAP4 SWAP3 ADD PUSH1 0x5 SHR ADD SWAP1 JUMPDEST DUP2 DUP2 LT PUSH2 0x25A5 JUMPI POP PUSH2 0x1E03 JUMP JUMPDEST PUSH0 DUP2 SSTORE DUP5 SWAP4 POP PUSH1 0x1 ADD PUSH2 0x2598 JUMP JUMPDEST SWAP1 SWAP2 POP DUP2 SWAP1 PUSH2 0x258A JUMP JUMPDEST ADD MLOAD SWAP1 POP DUP9 DUP1 PUSH2 0x1DBD JUMP JUMPDEST PUSH1 0x1 DUP7 ADD PUSH0 SWAP1 DUP2 MSTORE DUP11 DUP2 KECCAK256 SWAP4 POP PUSH1 0x1F NOT DUP6 AND SWAP1 JUMPDEST DUP12 DUP3 DUP3 LT PUSH2 0x261C JUMPI POP POP SWAP1 DUP5 PUSH1 0x1 SWAP6 SWAP5 SWAP4 SWAP3 LT PUSH2 0x2604 JUMPI JUMPDEST POP POP POP DUP2 SHL ADD PUSH1 0x1 DUP4 ADD SSTORE PUSH2 0x1DD4 JUMP JUMPDEST ADD MLOAD PUSH0 NOT PUSH1 0xF8 DUP5 PUSH1 0x3 SHL AND SHR NOT AND SWAP1 SSTORE DUP9 DUP1 DUP1 PUSH2 0x25F4 JUMP JUMPDEST PUSH1 0x1 DUP6 SWAP7 DUP3 SWAP4 SWAP7 DUP7 ADD MLOAD DUP2 SSTORE ADD SWAP6 ADD SWAP4 ADD PUSH2 0x25DC JUMP JUMPDEST SWAP1 SWAP2 POP PUSH1 0x1 DUP6 ADD PUSH0 MSTORE DUP9 PUSH0 KECCAK256 PUSH1 0x1F DUP5 ADD PUSH1 0x5 SHR DUP2 ADD SWAP2 DUP11 DUP6 LT PUSH2 0x2679 JUMPI JUMPDEST SWAP1 PUSH1 0x1F DUP6 SWAP5 SWAP4 SWAP3 ADD PUSH1 0x5 SHR ADD SWAP1 JUMPDEST DUP2 DUP2 LT PUSH2 0x266B JUMPI POP PUSH2 0x1DA8 JUMP JUMPDEST PUSH0 DUP2 SSTORE DUP5 SWAP4 POP PUSH1 0x1 ADD PUSH2 0x265E JUMP JUMPDEST SWAP1 SWAP2 POP DUP2 SWAP1 PUSH2 0x2650 JUMP JUMPDEST ADD MLOAD SWAP1 POP DUP10 DUP1 PUSH2 0x1D6A JUMP JUMPDEST PUSH0 DUP8 DUP2 MSTORE DUP12 DUP2 KECCAK256 SWAP4 POP PUSH1 0x1F NOT DUP6 AND SWAP1 JUMPDEST DUP13 DUP3 DUP3 LT PUSH2 0x26DB JUMPI POP POP SWAP1 DUP5 PUSH1 0x1 SWAP6 SWAP5 SWAP4 SWAP3 LT PUSH2 0x26C3 JUMPI JUMPDEST POP POP POP DUP2 SHL ADD DUP4 SSTORE PUSH2 0x1D7E JUMP JUMPDEST ADD MLOAD PUSH0 NOT PUSH1 0xF8 DUP5 PUSH1 0x3 SHL AND SHR NOT AND SWAP1 SSTORE DUP10 DUP1 DUP1 PUSH2 0x26B6 JUMP JUMPDEST PUSH1 0x1 DUP6 SWAP7 DUP3 SWAP4 SWAP7 DUP7 ADD MLOAD DUP2 SSTORE ADD SWAP6 ADD SWAP4 ADD PUSH2 0x269E JUMP JUMPDEST SWAP1 SWAP2 POP DUP6 PUSH0 MSTORE DUP10 PUSH0 KECCAK256 PUSH1 0x1F DUP5 ADD PUSH1 0x5 SHR DUP2 ADD SWAP2 DUP12 DUP6 LT PUSH2 0x2735 JUMPI JUMPDEST SWAP1 PUSH1 0x1F DUP6 SWAP5 SWAP4 SWAP3 ADD PUSH1 0x5 SHR ADD SWAP1 JUMPDEST DUP2 DUP2 LT PUSH2 0x2727 JUMPI POP PUSH2 0x1D55 JUMP JUMPDEST PUSH0 DUP2 SSTORE DUP5 SWAP4 POP PUSH1 0x1 ADD PUSH2 0x271A JUMP JUMPDEST SWAP1 SWAP2 POP DUP2 SWAP1 PUSH2 0x270C JUMP JUMPDEST PUSH4 0x4E487B71 PUSH1 0xE0 SHL PUSH0 MSTORE PUSH0 PUSH1 0x4 MSTORE PUSH1 0x24 PUSH0 REVERT JUMPDEST ADD MLOAD SWAP1 POP DUP10 DUP1 PUSH2 0x1C9C JUMP JUMPDEST PUSH0 DUP6 DUP2 MSTORE DUP12 DUP2 KECCAK256 SWAP4 POP PUSH1 0x1F NOT DUP6 AND SWAP1 JUMPDEST DUP13 DUP3 DUP3 LT PUSH2 0x27AA JUMPI POP POP SWAP1 DUP5 PUSH1 0x1 SWAP6 SWAP5 SWAP4 SWAP3 LT PUSH2 0x2792 JUMPI JUMPDEST POP POP POP DUP2 SHL ADD SWAP1 SSTORE PUSH2 0x1CB0 JUMP JUMPDEST ADD MLOAD PUSH0 NOT PUSH1 0xF8 DUP5 PUSH1 0x3 SHL AND SHR NOT AND SWAP1 SSTORE DUP10 DUP1 DUP1 PUSH2 0x2785 JUMP JUMPDEST PUSH1 0x1 DUP6 SWAP7 DUP3 SWAP4 SWAP7 DUP7 ADD MLOAD DUP2 SSTORE ADD SWAP6 ADD SWAP4 ADD PUSH2 0x276D JUMP JUMPDEST SWAP1 SWAP2 POP DUP4 PUSH0 MSTORE DUP10 PUSH0 KECCAK256 PUSH1 0x1F DUP5 ADD PUSH1 0x5 SHR DUP2 ADD SWAP2 DUP12 DUP6 LT PUSH2 0x2804 JUMPI JUMPDEST SWAP1 PUSH1 0x1F DUP6 SWAP5 SWAP4 SWAP3 ADD PUSH1 0x5 SHR ADD SWAP1 JUMPDEST DUP2 DUP2 LT PUSH2 0x27F6 JUMPI POP PUSH2 0x1C87 JUMP JUMPDEST PUSH0 DUP2 SSTORE DUP5 SWAP4 POP PUSH1 0x1 ADD PUSH2 0x27E9 JUMP JUMPDEST SWAP1 SWAP2 POP DUP2 SWAP1 PUSH2 0x27DB JUMP JUMPDEST ADD MLOAD SWAP1 POP DUP15 DUP1 PUSH2 0x1C38 JUMP JUMPDEST SWAP2 SWAP1 PUSH1 0x1F NOT DUP5 AND DUP6 PUSH0 MSTORE DUP4 PUSH0 KECCAK256 SWAP4 PUSH0 SWAP1 JUMPDEST DUP3 DUP3 LT PUSH2 0x286C JUMPI POP POP SWAP3 PUSH1 0x1 SWAP3 DUP6 SWAP3 PUSH1 0x3 SWAP10 SWAP9 SWAP7 PUSH1 0xFF SWAP9 SWAP7 LT PUSH2 0x2855 JUMPI JUMPDEST POP POP POP DUP2 SHL ADD SWAP1 SSTORE PUSH2 0x1C4B JUMP JUMPDEST ADD MLOAD PUSH0 NOT DUP4 DUP11 SHL PUSH1 0xF8 AND SHR NOT AND SWAP1 SSTORE DUP15 DUP1 DUP1 PUSH2 0x2848 JUMP JUMPDEST DUP1 PUSH1 0x1 DUP7 SWAP8 DUP3 SWAP5 SWAP8 DUP8 ADD MLOAD DUP2 SSTORE ADD SWAP7 ADD SWAP5 ADD SWAP1 PUSH2 0x282A JUMP JUMPDEST DUP5 PUSH0 MSTORE DUP2 PUSH0 KECCAK256 SWAP1 PUSH1 0x1F DUP6 ADD PUSH1 0x5 SHR DUP3 ADD SWAP3 DUP6 LT PUSH2 0x28BF JUMPI JUMPDEST PUSH1 0x1F ADD PUSH1 0x5 SHR ADD SWAP1 JUMPDEST DUP2 DUP2 LT PUSH2 0x28B4 JUMPI DUP14 SWAP2 POP PUSH2 0x1C15 JUMP JUMPDEST PUSH0 DUP2 SSTORE PUSH1 0x1 ADD PUSH2 0x28A5 JUMP JUMPDEST SWAP1 SWAP2 POP DUP2 SWAP1 PUSH2 0x289C JUMP JUMPDEST ADD MLOAD SWAP1 POP DUP13 DUP1 PUSH2 0x1BD7 JUMP JUMPDEST PUSH0 DUP9 DUP2 MSTORE DUP2 DUP2 KECCAK256 SWAP5 POP PUSH1 0x1F NOT DUP7 AND SWAP2 JUMPDEST DUP3 DUP3 LT PUSH2 0x2920 JUMPI POP POP SWAP1 DUP5 PUSH1 0x1 SWAP6 SWAP5 SWAP4 SWAP3 LT PUSH2 0x2908 JUMPI JUMPDEST POP POP POP DUP2 SHL ADD DUP4 SSTORE PUSH2 0x1BEB JUMP JUMPDEST ADD MLOAD PUSH0 NOT PUSH1 0xF8 DUP5 PUSH1 0x3 SHL AND SHR NOT AND SWAP1 SSTORE DUP13 DUP1 DUP1 PUSH2 0x28FB JUMP JUMPDEST DUP1 PUSH1 0x1 DUP7 SWAP8 DUP3 SWAP5 SWAP8 DUP8 ADD MLOAD DUP2 SSTORE ADD SWAP7 ADD SWAP5 ADD SWAP1 PUSH2 0x28E4 JUMP JUMPDEST SWAP1 SWAP2 SWAP3 POP DUP7 PUSH0 MSTORE DUP2 PUSH0 KECCAK256 SWAP1 PUSH1 0x1F DUP6 ADD PUSH1 0x5 SHR DUP3 ADD SWAP3 DUP6 LT PUSH2 0x297F JUMPI JUMPDEST SWAP1 PUSH1 0x1F DUP6 SWAP5 SWAP4 SWAP3 ADD PUSH1 0x5 SHR ADD SWAP1 JUMPDEST DUP2 DUP2 LT PUSH2 0x2971 JUMPI DUP15 SWAP2 POP PUSH2 0x1BBF JUMP JUMPDEST PUSH0 DUP2 SSTORE DUP5 SWAP4 POP PUSH1 0x1 ADD PUSH2 0x2962 JUMP JUMPDEST SWAP1 SWAP2 POP DUP2 SWAP1 PUSH2 0x2954 JUMP JUMPDEST CALLVALUE PUSH2 0x20A JUMPI PUSH0 CALLDATASIZE PUSH1 0x3 NOT ADD SLT PUSH2 0x20A JUMPI PUSH1 0x3 SLOAD PUSH2 0x29A5 DUP2 PUSH2 0x3FDB JUMP JUMPDEST SWAP1 PUSH0 DUP1 JUMPDEST DUP3 DUP3 LT PUSH2 0x29BE JUMPI PUSH1 0x40 MLOAD DUP1 PUSH2 0xCFF DUP7 DUP3 PUSH2 0x3B2C JUMP JUMPDEST PUSH2 0x29E9 PUSH1 0x1 SWAP2 PUSH2 0x143E PUSH2 0x29D3 PUSH2 0x1422 DUP7 PUSH2 0x3E7E JUMP JUMPDEST PUSH1 0xFF DUP4 AND SWAP1 PUSH2 0x29E2 DUP3 DUP11 PUSH2 0x4058 JUMP JUMPDEST MSTORE DUP8 PUSH2 0x4058 JUMP JUMPDEST SWAP2 ADD SWAP1 PUSH2 0x29A9 JUMP JUMPDEST CALLVALUE PUSH2 0x20A JUMPI PUSH1 0x20 CALLDATASIZE PUSH1 0x3 NOT ADD SLT PUSH2 0x20A JUMPI PUSH1 0x4 CALLDATALOAD PUSH1 0x1 PUSH1 0x1 PUSH1 0x40 SHL SUB DUP2 GT PUSH2 0x20A JUMPI PUSH1 0x20 DUP1 PUSH2 0x2A27 PUSH2 0x2AAB SWAP4 CALLDATASIZE SWAP1 PUSH1 0x4 ADD PUSH2 0x38C9 JUMP JUMPDEST PUSH1 0x40 MLOAD SWAP3 DUP2 DUP5 SWAP3 MLOAD SWAP2 DUP3 SWAP2 ADD DUP4 MCOPY DUP2 ADD PUSH1 0x7 DUP2 MSTORE SUB ADD SWAP1 KECCAK256 PUSH2 0xCFF PUSH2 0x2A4B DUP3 PUSH2 0x39B8 JUMP JUMPDEST SWAP2 PUSH2 0x2AE3 PUSH2 0x2A5B PUSH1 0x1 DUP4 ADD PUSH2 0x39B8 JUMP JUMPDEST SWAP2 PUSH2 0x2AD5 PUSH2 0x2A6B PUSH1 0x2 DUP4 ADD PUSH2 0x39B8 JUMP JUMPDEST PUSH2 0x2AC7 PUSH2 0x2A7A PUSH1 0x3 DUP6 ADD PUSH2 0x39B8 JUMP JUMPDEST SWAP2 PUSH2 0x2AB9 PUSH2 0x2A96 PUSH1 0x5 PUSH2 0x2A8F PUSH1 0x4 DUP10 ADD PUSH2 0x39B8 JUMP JUMPDEST SWAP8 ADD PUSH2 0x39B8 JUMP JUMPDEST SWAP8 PUSH1 0x40 MLOAD SWAP12 DUP13 SWAP12 PUSH1 0xC0 DUP14 MSTORE PUSH1 0xC0 DUP14 ADD SWAP1 PUSH2 0x391E JUMP JUMPDEST SWAP1 DUP12 DUP3 SUB PUSH1 0x20 DUP14 ADD MSTORE PUSH2 0x391E JUMP JUMPDEST SWAP1 DUP10 DUP3 SUB PUSH1 0x40 DUP12 ADD MSTORE PUSH2 0x391E JUMP JUMPDEST SWAP1 DUP8 DUP3 SUB PUSH1 0x60 DUP10 ADD MSTORE PUSH2 0x391E JUMP JUMPDEST SWAP1 DUP6 DUP3 SUB PUSH1 0x80 DUP8 ADD MSTORE PUSH2 0x391E JUMP JUMPDEST SWAP1 DUP4 DUP3 SUB PUSH1 0xA0 DUP6 ADD MSTORE PUSH2 0x391E JUMP JUMPDEST CALLVALUE PUSH2 0x20A JUMPI PUSH1 0x20 CALLDATASIZE PUSH1 0x3 NOT ADD SLT PUSH2 0x20A JUMPI PUSH1 0x4 CALLDATALOAD PUSH1 0x1 PUSH1 0x1 PUSH1 0x40 SHL SUB DUP2 GT PUSH2 0x20A JUMPI PUSH1 0x20 PUSH2 0x2B24 DUP2 SWAP3 CALLDATASIZE SWAP1 PUSH1 0x4 ADD PUSH2 0x38C9 JUMP JUMPDEST PUSH1 0x40 MLOAD SWAP3 DUP2 DUP5 SWAP3 MLOAD SWAP2 DUP3 SWAP2 ADD DUP4 MCOPY DUP2 ADD PUSH1 0x6 DUP2 MSTORE SUB ADD SWAP1 KECCAK256 PUSH2 0x158E PUSH1 0x1 PUSH2 0x2B4A DUP4 PUSH2 0x39B8 JUMP JUMPDEST SWAP3 ADD PUSH2 0x39B8 JUMP JUMPDEST CALLVALUE PUSH2 0x20A JUMPI PUSH1 0x60 CALLDATASIZE PUSH1 0x3 NOT ADD SLT PUSH2 0x20A JUMPI PUSH1 0x4 CALLDATALOAD PUSH1 0x1 PUSH1 0x1 PUSH1 0x40 SHL SUB DUP2 GT PUSH2 0x20A JUMPI PUSH2 0x2B81 SWAP1 CALLDATASIZE SWAP1 PUSH1 0x4 ADD PUSH2 0x38C9 JUMP JUMPDEST PUSH1 0x44 CALLDATALOAD PUSH1 0x1 PUSH1 0x1 PUSH1 0x40 SHL SUB DUP2 GT PUSH2 0x20A JUMPI PUSH1 0xC0 PUSH1 0x3 NOT DUP3 CALLDATASIZE SUB ADD SLT PUSH2 0x20A JUMPI PUSH1 0x40 MLOAD SWAP1 PUSH2 0x2BAD DUP3 PUSH2 0x3805 JUMP JUMPDEST DUP1 PUSH1 0x4 ADD CALLDATALOAD PUSH1 0x1 PUSH1 0x1 PUSH1 0x40 SHL SUB DUP2 GT PUSH2 0x20A JUMPI PUSH2 0x2BD0 SWAP1 PUSH1 0x4 CALLDATASIZE SWAP2 DUP5 ADD ADD PUSH2 0x38C9 JUMP JUMPDEST DUP3 MSTORE PUSH1 0x24 DUP2 ADD CALLDATALOAD PUSH1 0x1 PUSH1 0x1 PUSH1 0x40 SHL SUB DUP2 GT PUSH2 0x20A JUMPI PUSH2 0x2BF5 SWAP1 PUSH1 0x4 CALLDATASIZE SWAP2 DUP5 ADD ADD PUSH2 0x38C9 JUMP JUMPDEST SWAP1 PUSH1 0x20 DUP4 ADD SWAP2 DUP3 MSTORE PUSH1 0x44 DUP2 ADD CALLDATALOAD PUSH1 0x1 PUSH1 0x1 PUSH1 0x40 SHL SUB DUP2 GT PUSH2 0x20A JUMPI PUSH2 0x2C20 SWAP1 PUSH1 0x4 CALLDATASIZE SWAP2 DUP5 ADD ADD PUSH2 0x38C9 JUMP JUMPDEST SWAP3 PUSH1 0x40 DUP2 ADD SWAP4 DUP5 MSTORE PUSH1 0x64 DUP3 ADD CALLDATALOAD PUSH1 0x1 PUSH1 0x1 PUSH1 0x40 SHL SUB DUP2 GT PUSH2 0x20A JUMPI PUSH2 0x2C4B SWAP1 PUSH1 0x4 CALLDATASIZE SWAP2 DUP6 ADD ADD PUSH2 0x38C9 JUMP JUMPDEST SWAP2 PUSH1 0x60 DUP3 ADD SWAP3 DUP4 MSTORE PUSH1 0x84 DUP2 ADD CALLDATALOAD PUSH1 0x1 PUSH1 0x1 PUSH1 0x40 SHL SUB DUP2 GT PUSH2 0x20A JUMPI PUSH2 0x2C76 SWAP1 PUSH1 0x4 CALLDATASIZE SWAP2 DUP5 ADD ADD PUSH2 0x38C9 JUMP JUMPDEST SWAP1 PUSH1 0x80 DUP4 ADD SWAP2 DUP3 MSTORE PUSH1 0xA4 DUP2 ADD CALLDATALOAD SWAP1 PUSH1 0x1 PUSH1 0x1 PUSH1 0x40 SHL SUB DUP3 GT PUSH2 0x20A JUMPI PUSH1 0x4 PUSH2 0x2CA1 SWAP3 CALLDATASIZE SWAP3 ADD ADD PUSH2 0x38C9 JUMP JUMPDEST SWAP3 PUSH1 0xA0 DUP4 ADD SWAP4 DUP5 MSTORE PUSH2 0x2CB5 PUSH1 0x24 CALLDATALOAD DUP9 PUSH2 0x4145 JUMP JUMPDEST PUSH1 0x3 SLOAD SWAP6 PUSH1 0x40 MLOAD SWAP6 DUP9 MLOAD SWAP7 PUSH1 0x20 DUP2 DUP2 DUP13 ADD SWAP10 DUP1 DUP12 DUP4 MCOPY DUP2 ADD PUSH1 0x7 DUP2 MSTORE SUB ADD SWAP1 KECCAK256 SWAP5 MLOAD DUP1 MLOAD SWAP1 PUSH1 0x1 PUSH1 0x1 PUSH1 0x40 SHL SUB DUP3 GT PUSH2 0x35E JUMPI DUP2 SWAP1 PUSH2 0x2CF4 DUP9 SLOAD PUSH2 0x3980 JUMP JUMPDEST PUSH1 0x1F DUP2 GT PUSH2 0x3378 JUMPI JUMPDEST POP PUSH1 0x20 SWAP1 PUSH1 0x1F DUP4 GT PUSH1 0x1 EQ PUSH2 0x3315 JUMPI PUSH0 SWAP3 PUSH2 0x330A JUMPI JUMPDEST POP POP DUP2 PUSH1 0x1 SHL SWAP2 PUSH0 NOT SWAP1 PUSH1 0x3 SHL SHR NOT AND OR DUP6 SSTORE JUMPDEST MLOAD DUP1 MLOAD PUSH1 0x1 DUP7 ADD SWAP2 PUSH1 0x1 PUSH1 0x1 PUSH1 0x40 SHL SUB DUP3 GT PUSH2 0x35E JUMPI DUP2 SWAP1 PUSH2 0x2D49 DUP5 SLOAD PUSH2 0x3980 JUMP JUMPDEST PUSH1 0x1F DUP2 GT PUSH2 0x32BA JUMPI JUMPDEST POP PUSH1 0x20 SWAP1 PUSH1 0x1F DUP4 GT PUSH1 0x1 EQ PUSH2 0x3257 JUMPI PUSH0 SWAP3 PUSH2 0x324C JUMPI JUMPDEST POP POP DUP2 PUSH1 0x1 SHL SWAP2 PUSH0 NOT SWAP1 PUSH1 0x3 SHL SHR NOT AND OR SWAP1 SSTORE JUMPDEST MLOAD DUP1 MLOAD PUSH1 0x2 DUP6 ADD SWAP2 PUSH1 0x1 PUSH1 0x1 PUSH1 0x40 SHL SUB DUP3 GT PUSH2 0x35E JUMPI DUP2 SWAP1 PUSH2 0x2D9E DUP5 SLOAD PUSH2 0x3980 JUMP JUMPDEST PUSH1 0x1F DUP2 GT PUSH2 0x31FC JUMPI JUMPDEST POP PUSH1 0x20 SWAP1 PUSH1 0x1F DUP4 GT PUSH1 0x1 EQ PUSH2 0x3199 JUMPI PUSH0 SWAP3 PUSH2 0x318E JUMPI JUMPDEST POP POP DUP2 PUSH1 0x1 SHL SWAP2 PUSH0 NOT SWAP1 PUSH1 0x3 SHL SHR NOT AND OR SWAP1 SSTORE JUMPDEST MLOAD DUP1 MLOAD PUSH1 0x3 DUP5 ADD SWAP2 PUSH1 0x1 PUSH1 0x1 PUSH1 0x40 SHL SUB DUP3 GT PUSH2 0x35E JUMPI DUP2 SWAP1 PUSH2 0x2DF3 DUP5 SLOAD PUSH2 0x3980 JUMP JUMPDEST PUSH1 0x1F DUP2 GT PUSH2 0x313E JUMPI JUMPDEST POP PUSH1 0x20 SWAP1 PUSH1 0x1F DUP4 GT PUSH1 0x1 EQ PUSH2 0x30DB JUMPI PUSH0 SWAP3 PUSH2 0x30D0 JUMPI JUMPDEST POP POP DUP2 PUSH1 0x1 SHL SWAP2 PUSH0 NOT SWAP1 PUSH1 0x3 SHL SHR NOT AND OR SWAP1 SSTORE JUMPDEST MLOAD DUP1 MLOAD PUSH1 0x4 DUP4 ADD SWAP2 PUSH1 0x1 PUSH1 0x1 PUSH1 0x40 SHL SUB DUP3 GT PUSH2 0x35E JUMPI PUSH2 0x2E46 DUP4 SLOAD PUSH2 0x3980 JUMP JUMPDEST PUSH1 0x1F DUP2 GT PUSH2 0x308B JUMPI JUMPDEST POP PUSH1 0x20 SWAP1 PUSH1 0x1F DUP4 GT PUSH1 0x1 EQ PUSH2 0x3024 JUMPI PUSH1 0x5 SWAP5 SWAP4 SWAP3 SWAP2 PUSH0 SWAP2 DUP4 PUSH2 0x3019 JUMPI JUMPDEST POP POP DUP2 PUSH1 0x1 SHL SWAP2 PUSH0 NOT SWAP1 PUSH1 0x3 SHL SHR NOT AND OR SWAP1 SSTORE JUMPDEST ADD SWAP1 MLOAD DUP1 MLOAD SWAP1 PUSH1 0x1 PUSH1 0x1 PUSH1 0x40 SHL SUB DUP3 GT PUSH2 0x35E JUMPI DUP2 SWAP1 PUSH2 0x2EA0 DUP5 SLOAD PUSH2 0x3980 JUMP JUMPDEST PUSH1 0x1F DUP2 GT PUSH2 0x2FC9 JUMPI JUMPDEST POP PUSH1 0x20 SWAP1 PUSH1 0x1F DUP4 GT PUSH1 0x1 EQ PUSH2 0x2F66 JUMPI PUSH0 SWAP3 PUSH2 0x2F5B JUMPI JUMPDEST POP POP DUP2 PUSH1 0x1 SHL SWAP2 PUSH0 NOT SWAP1 PUSH1 0x3 SHL SHR NOT AND OR SWAP1 SSTORE JUMPDEST PUSH0 JUMPDEST DUP3 DUP2 LT PUSH2 0x2EDE JUMPI STOP JUMPDEST DUP1 PUSH2 0x2EEA PUSH1 0x1 SWAP3 PUSH2 0x3E7E JUMP JUMPDEST POP PUSH1 0x40 MLOAD PUSH2 0x2F00 DUP2 PUSH2 0x533 PUSH1 0x20 DUP3 ADD DUP1 SWAP6 PUSH2 0x3F2C JUMP JUMPDEST MLOAD SWAP1 KECCAK256 PUSH1 0x40 MLOAD PUSH1 0x20 DUP2 ADD SWAP1 PUSH2 0x2F2D PUSH1 0x20 DUP3 DUP11 MLOAD DUP1 DUP11 DUP8 MCOPY DUP2 ADD PUSH0 DUP4 DUP3 ADD MSTORE SUB ADD PUSH1 0x1F NOT DUP2 ADD DUP4 MSTORE DUP3 PUSH2 0x38A8 JUMP JUMPDEST MLOAD SWAP1 KECCAK256 EQ PUSH2 0x2F3C JUMPI JUMPDEST ADD PUSH2 0x2ED5 JUMP JUMPDEST PUSH1 0x3 PUSH2 0x2F47 DUP3 PUSH2 0x3E7E JUMP JUMPDEST POP ADD DUP1 SLOAD PUSH2 0xFF00 NOT AND PUSH2 0x500 OR SWAP1 SSTORE PUSH2 0x2F36 JUMP JUMPDEST ADD MLOAD SWAP1 POP DUP7 DUP1 PUSH2 0x2EBF JUMP JUMPDEST PUSH0 DUP6 DUP2 MSTORE DUP3 DUP2 KECCAK256 SWAP4 POP PUSH1 0x1F NOT DUP6 AND SWAP1 JUMPDEST DUP2 DUP2 LT PUSH2 0x2FB1 JUMPI POP SWAP1 DUP5 PUSH1 0x1 SWAP6 SWAP5 SWAP4 SWAP3 LT PUSH2 0x2F99 JUMPI JUMPDEST POP POP POP DUP2 SHL ADD SWAP1 SSTORE PUSH2 0x2ED3 JUMP JUMPDEST ADD MLOAD PUSH0 NOT PUSH1 0xF8 DUP5 PUSH1 0x3 SHL AND SHR NOT AND SWAP1 SSTORE DUP7 DUP1 DUP1 PUSH2 0x2F8C JUMP JUMPDEST SWAP3 SWAP4 PUSH1 0x20 PUSH1 0x1 DUP2 SWAP3 DUP8 DUP7 ADD MLOAD DUP2 SSTORE ADD SWAP6 ADD SWAP4 ADD PUSH2 0x2F76 JUMP JUMPDEST SWAP1 SWAP2 POP DUP4 PUSH0 MSTORE PUSH1 0x20 PUSH0 KECCAK256 PUSH1 0x1F DUP5 ADD PUSH1 0x5 SHR DUP2 ADD SWAP2 PUSH1 0x20 DUP6 LT PUSH2 0x300F JUMPI JUMPDEST SWAP1 PUSH1 0x1F DUP6 SWAP5 SWAP4 SWAP3 ADD PUSH1 0x5 SHR ADD SWAP1 JUMPDEST DUP2 DUP2 LT PUSH2 0x3001 JUMPI POP PUSH2 0x2EA9 JUMP JUMPDEST PUSH0 DUP2 SSTORE DUP5 SWAP4 POP PUSH1 0x1 ADD PUSH2 0x2FF4 JUMP JUMPDEST SWAP1 SWAP2 POP DUP2 SWAP1 PUSH2 0x2FE6 JUMP JUMPDEST ADD MLOAD SWAP1 POP DUP10 DUP1 PUSH2 0x2E6C JUMP JUMPDEST SWAP1 PUSH1 0x1F NOT DUP4 AND SWAP2 DUP5 PUSH0 MSTORE DUP2 PUSH0 KECCAK256 SWAP3 PUSH0 JUMPDEST DUP2 DUP2 LT PUSH2 0x3073 JUMPI POP SWAP2 PUSH1 0x1 SWAP4 SWAP2 DUP6 PUSH1 0x5 SWAP9 SWAP8 SWAP7 SWAP5 LT PUSH2 0x305B JUMPI JUMPDEST POP POP POP DUP2 SHL ADD SWAP1 SSTORE PUSH2 0x2E80 JUMP JUMPDEST ADD MLOAD PUSH0 NOT PUSH1 0xF8 DUP5 PUSH1 0x3 SHL AND SHR NOT AND SWAP1 SSTORE DUP10 DUP1 DUP1 PUSH2 0x304E JUMP JUMPDEST SWAP3 SWAP4 PUSH1 0x20 PUSH1 0x1 DUP2 SWAP3 DUP8 DUP7 ADD MLOAD DUP2 SSTORE ADD SWAP6 ADD SWAP4 ADD PUSH2 0x3034 JUMP JUMPDEST DUP4 PUSH0 MSTORE PUSH1 0x20 PUSH0 KECCAK256 PUSH1 0x1F DUP5 ADD PUSH1 0x5 SHR DUP2 ADD SWAP2 PUSH1 0x20 DUP6 LT PUSH2 0x30C6 JUMPI JUMPDEST PUSH1 0x1F ADD PUSH1 0x5 SHR ADD SWAP1 JUMPDEST DUP2 DUP2 LT PUSH2 0x30BB JUMPI POP PUSH2 0x2E4F JUMP JUMPDEST PUSH0 DUP2 SSTORE PUSH1 0x1 ADD PUSH2 0x30AE JUMP JUMPDEST SWAP1 SWAP2 POP DUP2 SWAP1 PUSH2 0x30A5 JUMP JUMPDEST ADD MLOAD SWAP1 POP DUP10 DUP1 PUSH2 0x2E12 JUMP JUMPDEST PUSH0 DUP6 DUP2 MSTORE DUP3 DUP2 KECCAK256 SWAP4 POP PUSH1 0x1F NOT DUP6 AND SWAP1 JUMPDEST DUP2 DUP2 LT PUSH2 0x3126 JUMPI POP SWAP1 DUP5 PUSH1 0x1 SWAP6 SWAP5 SWAP4 SWAP3 LT PUSH2 0x310E JUMPI JUMPDEST POP POP POP DUP2 SHL ADD SWAP1 SSTORE PUSH2 0x2E26 JUMP JUMPDEST ADD MLOAD PUSH0 NOT PUSH1 0xF8 DUP5 PUSH1 0x3 SHL AND SHR NOT AND SWAP1 SSTORE DUP10 DUP1 DUP1 PUSH2 0x3101 JUMP JUMPDEST SWAP3 SWAP4 PUSH1 0x20 PUSH1 0x1 DUP2 SWAP3 DUP8 DUP7 ADD MLOAD DUP2 SSTORE ADD SWAP6 ADD SWAP4 ADD PUSH2 0x30EB JUMP JUMPDEST SWAP1 SWAP2 POP DUP4 PUSH0 MSTORE PUSH1 0x20 PUSH0 KECCAK256 PUSH1 0x1F DUP5 ADD PUSH1 0x5 SHR DUP2 ADD SWAP2 PUSH1 0x20 DUP6 LT PUSH2 0x3184 JUMPI JUMPDEST SWAP1 PUSH1 0x1F DUP6 SWAP5 SWAP4 SWAP3 ADD PUSH1 0x5 SHR ADD SWAP1 JUMPDEST DUP2 DUP2 LT PUSH2 0x3176 JUMPI POP PUSH2 0x2DFC JUMP JUMPDEST PUSH0 DUP2 SSTORE DUP5 SWAP4 POP PUSH1 0x1 ADD PUSH2 0x3169 JUMP JUMPDEST SWAP1 SWAP2 POP DUP2 SWAP1 PUSH2 0x315B JUMP JUMPDEST ADD MLOAD SWAP1 POP DUP11 DUP1 PUSH2 0x2DBD JUMP JUMPDEST PUSH0 DUP6 DUP2 MSTORE DUP3 DUP2 KECCAK256 SWAP4 POP PUSH1 0x1F NOT DUP6 AND SWAP1 JUMPDEST DUP2 DUP2 LT PUSH2 0x31E4 JUMPI POP SWAP1 DUP5 PUSH1 0x1 SWAP6 SWAP5 SWAP4 SWAP3 LT PUSH2 0x31CC JUMPI JUMPDEST POP POP POP DUP2 SHL ADD SWAP1 SSTORE PUSH2 0x2DD1 JUMP JUMPDEST ADD MLOAD PUSH0 NOT PUSH1 0xF8 DUP5 PUSH1 0x3 SHL AND SHR NOT AND SWAP1 SSTORE DUP11 DUP1 DUP1 PUSH2 0x31BF JUMP JUMPDEST SWAP3 SWAP4 PUSH1 0x20 PUSH1 0x1 DUP2 SWAP3 DUP8 DUP7 ADD MLOAD DUP2 SSTORE ADD SWAP6 ADD SWAP4 ADD PUSH2 0x31A9 JUMP JUMPDEST SWAP1 SWAP2 POP DUP4 PUSH0 MSTORE PUSH1 0x20 PUSH0 KECCAK256 PUSH1 0x1F DUP5 ADD PUSH1 0x5 SHR DUP2 ADD SWAP2 PUSH1 0x20 DUP6 LT PUSH2 0x3242 JUMPI JUMPDEST SWAP1 PUSH1 0x1F DUP6 SWAP5 SWAP4 SWAP3 ADD PUSH1 0x5 SHR ADD SWAP1 JUMPDEST DUP2 DUP2 LT PUSH2 0x3234 JUMPI POP PUSH2 0x2DA7 JUMP JUMPDEST PUSH0 DUP2 SSTORE DUP5 SWAP4 POP PUSH1 0x1 ADD PUSH2 0x3227 JUMP JUMPDEST SWAP1 SWAP2 POP DUP2 SWAP1 PUSH2 0x3219 JUMP JUMPDEST ADD MLOAD SWAP1 POP DUP12 DUP1 PUSH2 0x2D68 JUMP JUMPDEST PUSH0 DUP6 DUP2 MSTORE DUP3 DUP2 KECCAK256 SWAP4 POP PUSH1 0x1F NOT DUP6 AND SWAP1 JUMPDEST DUP2 DUP2 LT PUSH2 0x32A2 JUMPI POP SWAP1 DUP5 PUSH1 0x1 SWAP6 SWAP5 SWAP4 SWAP3 LT PUSH2 0x328A JUMPI JUMPDEST POP POP POP DUP2 SHL ADD SWAP1 SSTORE PUSH2 0x2D7C JUMP JUMPDEST ADD MLOAD PUSH0 NOT PUSH1 0xF8 DUP5 PUSH1 0x3 SHL AND SHR NOT AND SWAP1 SSTORE DUP12 DUP1 DUP1 PUSH2 0x327D JUMP JUMPDEST SWAP3 SWAP4 PUSH1 0x20 PUSH1 0x1 DUP2 SWAP3 DUP8 DUP7 ADD MLOAD DUP2 SSTORE ADD SWAP6 ADD SWAP4 ADD PUSH2 0x3267 JUMP JUMPDEST SWAP1 SWAP2 POP DUP4 PUSH0 MSTORE PUSH1 0x20 PUSH0 KECCAK256 PUSH1 0x1F DUP5 ADD PUSH1 0x5 SHR DUP2 ADD SWAP2 PUSH1 0x20 DUP6 LT PUSH2 0x3300 JUMPI JUMPDEST SWAP1 PUSH1 0x1F DUP6 SWAP5 SWAP4 SWAP3 ADD PUSH1 0x5 SHR ADD SWAP1 JUMPDEST DUP2 DUP2 LT PUSH2 0x32F2 JUMPI POP PUSH2 0x2D52 JUMP JUMPDEST PUSH0 DUP2 SSTORE DUP5 SWAP4 POP PUSH1 0x1 ADD PUSH2 0x32E5 JUMP JUMPDEST SWAP1 SWAP2 POP DUP2 SWAP1 PUSH2 0x32D7 JUMP JUMPDEST ADD MLOAD SWAP1 POP DUP12 DUP1 PUSH2 0x2D13 JUMP JUMPDEST PUSH0 DUP10 DUP2 MSTORE DUP3 DUP2 KECCAK256 SWAP4 POP PUSH1 0x1F NOT DUP6 AND SWAP1 JUMPDEST DUP2 DUP2 LT PUSH2 0x3360 JUMPI POP SWAP1 DUP5 PUSH1 0x1 SWAP6 SWAP5 SWAP4 SWAP3 LT PUSH2 0x3348 JUMPI JUMPDEST POP POP POP DUP2 SHL ADD DUP6 SSTORE PUSH2 0x2D27 JUMP JUMPDEST ADD MLOAD PUSH0 NOT PUSH1 0xF8 DUP5 PUSH1 0x3 SHL AND SHR NOT AND SWAP1 SSTORE DUP12 DUP1 DUP1 PUSH2 0x333B JUMP JUMPDEST SWAP3 SWAP4 PUSH1 0x20 PUSH1 0x1 DUP2 SWAP3 DUP8 DUP7 ADD MLOAD DUP2 SSTORE ADD SWAP6 ADD SWAP4 ADD PUSH2 0x3325 JUMP JUMPDEST SWAP1 SWAP2 POP DUP8 PUSH0 MSTORE PUSH1 0x20 PUSH0 KECCAK256 PUSH1 0x1F DUP5 ADD PUSH1 0x5 SHR DUP2 ADD SWAP2 PUSH1 0x20 DUP6 LT PUSH2 0x33BE JUMPI JUMPDEST SWAP1 PUSH1 0x1F DUP6 SWAP5 SWAP4 SWAP3 ADD PUSH1 0x5 SHR ADD SWAP1 JUMPDEST DUP2 DUP2 LT PUSH2 0x33B0 JUMPI POP PUSH2 0x2CFD JUMP JUMPDEST PUSH0 DUP2 SSTORE DUP5 SWAP4 POP PUSH1 0x1 ADD PUSH2 0x33A3 JUMP JUMPDEST SWAP1 SWAP2 POP DUP2 SWAP1 PUSH2 0x3395 JUMP JUMPDEST CALLVALUE PUSH2 0x20A JUMPI PUSH2 0x33E1 PUSH2 0x33D9 CALLDATASIZE PUSH2 0x3ABA JUMP JUMPDEST DUP2 SWAP3 SWAP2 PUSH2 0x4300 JUMP JUMPDEST PUSH1 0x3 SLOAD PUSH1 0x20 DUP3 ADD PUSH0 JUMPDEST DUP3 DUP2 LT PUSH2 0x33F3 JUMPI STOP JUMPDEST DUP1 PUSH2 0x33FF PUSH1 0x1 SWAP3 PUSH2 0x3E7E JUMP JUMPDEST POP PUSH1 0x40 MLOAD PUSH2 0x3415 DUP2 PUSH2 0x533 PUSH1 0x20 DUP3 ADD DUP1 SWAP6 PUSH2 0x3F2C JUMP JUMPDEST MLOAD SWAP1 KECCAK256 PUSH1 0x40 MLOAD PUSH1 0x20 DUP2 ADD SWAP1 PUSH2 0x3442 PUSH1 0x20 DUP3 DUP11 MLOAD DUP1 DUP11 DUP8 MCOPY DUP2 ADD PUSH0 DUP4 DUP3 ADD MSTORE SUB ADD PUSH1 0x1F NOT DUP2 ADD DUP4 MSTORE DUP3 PUSH2 0x38A8 JUMP JUMPDEST MLOAD SWAP1 KECCAK256 EQ PUSH2 0x3451 JUMPI JUMPDEST ADD PUSH2 0x33EA JUMP JUMPDEST PUSH1 0x3 PUSH2 0x345C DUP3 PUSH2 0x3E7E JUMP JUMPDEST POP ADD DUP1 SLOAD PUSH2 0xFF00 NOT AND PUSH2 0x700 OR SWAP1 SSTORE PUSH2 0x344B JUMP JUMPDEST CALLVALUE PUSH2 0x20A JUMPI PUSH1 0x20 CALLDATASIZE PUSH1 0x3 NOT ADD SLT PUSH2 0x20A JUMPI PUSH1 0x4 CALLDATALOAD PUSH1 0x1 PUSH1 0x1 PUSH1 0x40 SHL SUB DUP2 GT PUSH2 0x20A JUMPI PUSH2 0x34A3 PUSH2 0x208 SWAP2 CALLDATASIZE SWAP1 PUSH1 0x4 ADD PUSH2 0x38C9 JUMP JUMPDEST PUSH2 0x3F96 JUMP JUMPDEST CALLVALUE PUSH2 0x20A JUMPI PUSH1 0x20 CALLDATASIZE PUSH1 0x3 NOT ADD SLT PUSH2 0x20A JUMPI PUSH1 0x4 CALLDATALOAD PUSH1 0x1 PUSH1 0x1 PUSH1 0x40 SHL SUB DUP2 GT PUSH2 0x20A JUMPI PUSH2 0x34D8 SWAP1 CALLDATASIZE SWAP1 PUSH1 0x4 ADD PUSH2 0x38C9 JUMP JUMPDEST PUSH2 0x34E1 DUP2 PUSH2 0x3F96 JUMP JUMPDEST PUSH1 0x3 SLOAD PUSH1 0x20 DUP3 ADD PUSH0 JUMPDEST DUP3 DUP2 LT PUSH2 0x34F3 JUMPI STOP JUMPDEST DUP1 PUSH2 0x34FF PUSH1 0x1 SWAP3 PUSH2 0x3E7E JUMP JUMPDEST POP PUSH1 0x40 MLOAD PUSH2 0x3515 DUP2 PUSH2 0x533 PUSH1 0x20 DUP3 ADD DUP1 SWAP6 PUSH2 0x3F2C JUMP JUMPDEST MLOAD SWAP1 KECCAK256 PUSH1 0x40 MLOAD PUSH1 0x20 DUP2 ADD SWAP1 PUSH2 0x3542 PUSH1 0x20 DUP3 DUP11 MLOAD DUP1 DUP11 DUP8 MCOPY DUP2 ADD PUSH0 DUP4 DUP3 ADD MSTORE SUB ADD PUSH1 0x1F NOT DUP2 ADD DUP4 MSTORE DUP3 PUSH2 0x38A8 JUMP JUMPDEST MLOAD SWAP1 KECCAK256 EQ PUSH2 0x3551 JUMPI JUMPDEST ADD PUSH2 0x34EA JUMP JUMPDEST PUSH1 0x3 PUSH2 0x355C DUP3 PUSH2 0x3E7E JUMP JUMPDEST POP ADD DUP1 SLOAD PUSH2 0xFF00 NOT AND PUSH2 0x800 OR SWAP1 SSTORE PUSH2 0x354B JUMP JUMPDEST CALLVALUE PUSH2 0x20A JUMPI PUSH1 0x20 CALLDATASIZE PUSH1 0x3 NOT ADD SLT PUSH2 0x20A JUMPI PUSH1 0x4 CALLDATALOAD PUSH1 0x1 PUSH1 0x1 PUSH1 0x40 SHL SUB DUP2 GT PUSH2 0x20A JUMPI PUSH2 0x35A0 SWAP1 CALLDATASIZE SWAP1 PUSH1 0x4 ADD PUSH2 0x38C9 JUMP JUMPDEST PUSH1 0x40 MLOAD DUP2 DUP2 SWAP3 MLOAD PUSH1 0x20 DUP2 SWAP3 ADD DUP4 MCOPY DUP2 ADD PUSH0 DUP2 MSTORE SUB PUSH1 0x20 ADD SWAP1 KECCAK256 DUP1 SLOAD PUSH1 0xFF AND PUSH1 0x1 DUP3 ADD SLOAD SWAP2 PUSH1 0x2 DUP2 ADD SLOAD SWAP1 PUSH1 0x3 DUP2 ADD SLOAD PUSH1 0x4 DUP3 ADD SLOAD PUSH1 0x5 DUP4 ADD SLOAD PUSH1 0x6 DUP5 ADD SLOAD PUSH1 0x7 DUP6 ADD SLOAD SWAP1 PUSH1 0x8 DUP7 ADD SLOAD SWAP3 PUSH1 0x9 DUP8 ADD SLOAD SWAP5 PUSH1 0xA DUP9 ADD PUSH2 0x35FD SWAP1 PUSH2 0x3A6E JUMP JUMPDEST SWAP7 PUSH2 0x360A PUSH1 0xD DUP11 ADD PUSH2 0x3A6E JUMP JUMPDEST SWAP9 PUSH1 0x10 ADD PUSH2 0x3617 SWAP1 PUSH2 0x39B8 JUMP JUMPDEST SWAP10 PUSH1 0x40 MLOAD SWAP13 PUSH2 0x3627 DUP15 DUP1 SWAP15 PUSH2 0x3AAD JUMP JUMPDEST PUSH1 0x20 DUP14 ADD MSTORE PUSH1 0x40 DUP13 ADD MSTORE PUSH1 0x60 DUP12 ADD MSTORE PUSH1 0x80 DUP11 ADD MSTORE PUSH1 0xA0 DUP10 ADD MSTORE PUSH1 0xC0 DUP9 ADD MSTORE PUSH1 0xE0 DUP8 ADD MSTORE PUSH2 0x100 DUP7 ADD MSTORE PUSH2 0x120 DUP6 ADD MSTORE PUSH2 0x140 DUP5 ADD PUSH2 0x1A0 SWAP1 MSTORE PUSH2 0x1A0 DUP5 ADD PUSH2 0x366E SWAP2 PUSH2 0x3942 JUMP JUMPDEST DUP4 DUP2 SUB PUSH2 0x160 DUP6 ADD MSTORE PUSH2 0x3680 SWAP2 PUSH2 0x3942 JUMP JUMPDEST DUP3 DUP2 SUB PUSH2 0x180 DUP5 ADD MSTORE PUSH2 0xCFF SWAP2 PUSH2 0x391E JUMP JUMPDEST CALLVALUE PUSH2 0x20A JUMPI PUSH1 0x60 CALLDATASIZE PUSH1 0x3 NOT ADD SLT PUSH2 0x20A JUMPI PUSH1 0x4 CALLDATALOAD PUSH1 0x1 PUSH1 0x1 PUSH1 0x40 SHL SUB DUP2 GT PUSH2 0x20A JUMPI PUSH2 0x36C2 SWAP1 CALLDATASIZE SWAP1 PUSH1 0x4 ADD PUSH2 0x38C9 JUMP JUMPDEST PUSH1 0x24 CALLDATALOAD PUSH1 0x1 PUSH1 0x1 PUSH1 0x40 SHL SUB DUP2 GT PUSH2 0x20A JUMPI PUSH2 0x36E1 SWAP1 CALLDATASIZE SWAP1 PUSH1 0x4 ADD PUSH2 0x38C9 JUMP JUMPDEST SWAP1 PUSH1 0x44 CALLDATALOAD PUSH1 0x1 PUSH1 0x1 PUSH1 0xA0 SHL SUB DUP2 AND DUP2 SUB PUSH2 0x20A JUMPI PUSH2 0xCFF SWAP3 PUSH2 0x3702 SWAP3 PUSH2 0x3EFC JUMP JUMPDEST PUSH1 0x40 MLOAD SWAP2 DUP3 SWAP2 PUSH1 0x20 DUP4 MSTORE PUSH1 0x20 DUP4 ADD SWAP1 PUSH2 0x3942 JUMP JUMPDEST CALLVALUE PUSH2 0x20A JUMPI PUSH1 0x20 CALLDATASIZE PUSH1 0x3 NOT ADD SLT PUSH2 0x20A JUMPI PUSH1 0x4 CALLDATALOAD PUSH1 0x1 PUSH1 0x1 PUSH1 0x40 SHL SUB DUP2 GT PUSH2 0x20A JUMPI PUSH2 0xCEB PUSH1 0x20 DUP1 PUSH2 0x374F PUSH2 0xCFF SWAP5 CALLDATASIZE SWAP1 PUSH1 0x4 ADD PUSH2 0x38C9 JUMP JUMPDEST PUSH1 0x40 MLOAD SWAP3 DUP2 DUP5 SWAP3 MLOAD SWAP2 DUP3 SWAP2 ADD DUP4 MCOPY DUP2 ADD PUSH1 0x2 DUP2 MSTORE SUB ADD SWAP1 KECCAK256 PUSH2 0x39B8 JUMP JUMPDEST CALLVALUE PUSH2 0x20A JUMPI PUSH1 0x20 CALLDATASIZE PUSH1 0x3 NOT ADD SLT PUSH2 0x20A JUMPI PUSH1 0x4 CALLDATALOAD PUSH1 0x1 PUSH1 0x1 PUSH1 0x40 SHL SUB DUP2 GT PUSH2 0x20A JUMPI PUSH2 0x379F PUSH2 0x208 SWAP2 CALLDATASIZE SWAP1 PUSH1 0x4 ADD PUSH2 0x38C9 JUMP JUMPDEST PUSH2 0x3ECE JUMP JUMPDEST CALLVALUE PUSH2 0x20A JUMPI PUSH1 0x20 CALLDATASIZE PUSH1 0x3 NOT ADD SLT PUSH2 0x20A JUMPI PUSH1 0x4 CALLDATALOAD PUSH1 0x1 PUSH1 0x1 PUSH1 0x40 SHL SUB DUP2 GT PUSH2 0x20A JUMPI PUSH2 0x3702 PUSH1 0xA PUSH1 0x20 DUP1 PUSH2 0x37DF PUSH2 0xCFF SWAP6 CALLDATASIZE SWAP1 PUSH1 0x4 ADD PUSH2 0x38C9 JUMP JUMPDEST PUSH2 0x37E7 PUSH2 0x3EAE JUMP JUMPDEST POP PUSH1 0x40 MLOAD SWAP3 DUP2 DUP5 SWAP3 MLOAD SWAP2 DUP3 SWAP2 ADD DUP4 MCOPY DUP2 ADD PUSH0 DUP2 MSTORE SUB ADD SWAP1 KECCAK256 ADD PUSH2 0x3A6E JUMP JUMPDEST PUSH1 0xC0 DUP2 ADD SWAP1 DUP2 LT PUSH1 0x1 PUSH1 0x1 PUSH1 0x40 SHL SUB DUP3 GT OR PUSH2 0x35E JUMPI PUSH1 0x40 MSTORE JUMP JUMPDEST PUSH1 0x80 DUP2 ADD SWAP1 DUP2 LT PUSH1 0x1 PUSH1 0x1 PUSH1 0x40 SHL SUB DUP3 GT OR PUSH2 0x35E JUMPI PUSH1 0x40 MSTORE JUMP JUMPDEST PUSH1 0xE0 DUP2 ADD SWAP1 DUP2 LT PUSH1 0x1 PUSH1 0x1 PUSH1 0x40 SHL SUB DUP3 GT OR PUSH2 0x35E JUMPI PUSH1 0x40 MSTORE JUMP JUMPDEST PUSH1 0x60 DUP2 ADD SWAP1 DUP2 LT PUSH1 0x1 PUSH1 0x1 PUSH1 0x40 SHL SUB DUP3 GT OR PUSH2 0x35E JUMPI PUSH1 0x40 MSTORE JUMP JUMPDEST PUSH1 0x40 DUP2 ADD SWAP1 DUP2 LT PUSH1 0x1 PUSH1 0x1 PUSH1 0x40 SHL SUB DUP3 GT OR PUSH2 0x35E JUMPI PUSH1 0x40 MSTORE JUMP JUMPDEST PUSH2 0x1A0 DUP2 ADD SWAP1 DUP2 LT PUSH1 0x1 PUSH1 0x1 PUSH1 0x40 SHL SUB DUP3 GT OR PUSH2 0x35E JUMPI PUSH1 0x40 MSTORE JUMP JUMPDEST SWAP1 PUSH1 0x1F DUP1 NOT SWAP2 ADD AND DUP2 ADD SWAP1 DUP2 LT PUSH1 0x1 PUSH1 0x1 PUSH1 0x40 SHL SUB DUP3 GT OR PUSH2 0x35E JUMPI PUSH1 0x40 MSTORE JUMP JUMPDEST DUP2 PUSH1 0x1F DUP3 ADD SLT ISZERO PUSH2 0x20A JUMPI DUP1 CALLDATALOAD SWAP1 PUSH1 0x1 PUSH1 0x1 PUSH1 0x40 SHL SUB DUP3 GT PUSH2 0x35E JUMPI PUSH1 0x40 MLOAD SWAP3 PUSH2 0x38FD PUSH1 0x1F DUP5 ADD PUSH1 0x1F NOT AND PUSH1 0x20 ADD DUP6 PUSH2 0x38A8 JUMP JUMPDEST DUP3 DUP5 MSTORE PUSH1 0x20 DUP4 DUP4 ADD ADD GT PUSH2 0x20A JUMPI DUP2 PUSH0 SWAP3 PUSH1 0x20 DUP1 SWAP4 ADD DUP4 DUP7 ADD CALLDATACOPY DUP4 ADD ADD MSTORE SWAP1 JUMP JUMPDEST DUP1 MLOAD DUP1 DUP4 MSTORE PUSH1 0x20 SWAP3 SWAP2 DUP2 SWAP1 DUP5 ADD DUP5 DUP5 ADD MCOPY PUSH0 DUP3 DUP3 ADD DUP5 ADD MSTORE PUSH1 0x1F ADD PUSH1 0x1F NOT AND ADD ADD SWAP1 JUMP JUMPDEST SWAP1 PUSH1 0x40 PUSH2 0x396D PUSH2 0x395B DUP5 MLOAD PUSH1 0x60 DUP6 MSTORE PUSH1 0x60 DUP6 ADD SWAP1 PUSH2 0x391E JUMP JUMPDEST PUSH1 0x20 DUP6 ADD MLOAD DUP5 DUP3 SUB PUSH1 0x20 DUP7 ADD MSTORE PUSH2 0x391E JUMP JUMPDEST SWAP3 DUP2 ADD MLOAD PUSH1 0x1 PUSH1 0x1 PUSH1 0xA0 SHL SUB AND SWAP2 ADD MSTORE SWAP1 JUMP JUMPDEST SWAP1 PUSH1 0x1 DUP3 DUP2 SHR SWAP3 AND DUP1 ISZERO PUSH2 0x39AE JUMPI JUMPDEST PUSH1 0x20 DUP4 LT EQ PUSH2 0x399A JUMPI JUMP JUMPDEST PUSH4 0x4E487B71 PUSH1 0xE0 SHL PUSH0 MSTORE PUSH1 0x22 PUSH1 0x4 MSTORE PUSH1 0x24 PUSH0 REVERT JUMPDEST SWAP2 PUSH1 0x7F AND SWAP2 PUSH2 0x398F JUMP JUMPDEST SWAP1 PUSH1 0x40 MLOAD SWAP2 DUP3 PUSH0 DUP3 SLOAD SWAP3 PUSH2 0x39CB DUP5 PUSH2 0x3980 JUMP JUMPDEST DUP1 DUP5 MSTORE SWAP4 PUSH1 0x1 DUP2 AND SWAP1 DUP2 ISZERO PUSH2 0x3A36 JUMPI POP PUSH1 0x1 EQ PUSH2 0x39F2 JUMPI JUMPDEST POP PUSH2 0x39F0 SWAP3 POP SUB DUP4 PUSH2 0x38A8 JUMP JUMPDEST JUMP JUMPDEST SWAP1 POP PUSH0 SWAP3 SWAP2 SWAP3 MSTORE PUSH1 0x20 PUSH0 KECCAK256 SWAP1 PUSH0 SWAP2 JUMPDEST DUP2 DUP4 LT PUSH2 0x3A1A JUMPI POP POP SWAP1 PUSH1 0x20 PUSH2 0x39F0 SWAP3 DUP3 ADD ADD PUSH0 PUSH2 0x39E3 JUMP JUMPDEST PUSH1 0x20 SWAP2 SWAP4 POP DUP1 PUSH1 0x1 SWAP2 SLOAD DUP4 DUP6 DUP10 ADD ADD MSTORE ADD SWAP2 ADD SWAP1 SWAP2 DUP5 SWAP3 PUSH2 0x3A01 JUMP JUMPDEST SWAP1 POP PUSH1 0x20 SWAP3 POP PUSH2 0x39F0 SWAP5 SWAP2 POP PUSH1 0xFF NOT AND DUP3 DUP5 ADD MSTORE ISZERO ISZERO PUSH1 0x5 SHL DUP3 ADD ADD PUSH0 PUSH2 0x39E3 JUMP JUMPDEST PUSH1 0x84 CALLDATALOAD SWAP1 PUSH1 0x1 PUSH1 0x1 PUSH1 0xA0 SHL SUB DUP3 AND DUP3 SUB PUSH2 0x20A JUMPI JUMP JUMPDEST SWAP1 PUSH1 0x40 MLOAD PUSH2 0x3A7B DUP2 PUSH2 0x3856 JUMP JUMPDEST PUSH1 0x40 DUP2 SWAP4 PUSH2 0x3A88 DUP2 PUSH2 0x39B8 JUMP JUMPDEST DUP4 MSTORE PUSH2 0x3A96 PUSH1 0x1 DUP3 ADD PUSH2 0x39B8 JUMP JUMPDEST PUSH1 0x20 DUP5 ADD MSTORE PUSH1 0x2 ADD SLOAD PUSH1 0x1 PUSH1 0x1 PUSH1 0xA0 SHL SUB AND SWAP2 ADD MSTORE JUMP JUMPDEST SWAP1 PUSH1 0x9 DUP3 LT ISZERO PUSH2 0x24ED JUMPI MSTORE JUMP JUMPDEST SWAP1 PUSH1 0x40 PUSH1 0x3 NOT DUP4 ADD SLT PUSH2 0x20A JUMPI PUSH1 0x4 CALLDATALOAD PUSH1 0x1 PUSH1 0x1 PUSH1 0x40 SHL SUB DUP2 GT PUSH2 0x20A JUMPI DUP3 PUSH2 0x3AE5 SWAP2 PUSH1 0x4 ADD PUSH2 0x38C9 JUMP JUMPDEST SWAP2 PUSH1 0x24 CALLDATALOAD SWAP1 PUSH1 0x1 PUSH1 0x1 PUSH1 0x40 SHL SUB DUP3 GT PUSH2 0x20A JUMPI PUSH2 0x3B04 SWAP2 PUSH1 0x4 ADD PUSH2 0x38C9 JUMP JUMPDEST SWAP1 JUMP JUMPDEST SWAP1 SWAP2 PUSH2 0x3B1E PUSH2 0x3B04 SWAP4 PUSH1 0x40 DUP5 MSTORE PUSH1 0x40 DUP5 ADD SWAP1 PUSH2 0x391E JUMP JUMPDEST SWAP2 PUSH1 0x20 DUP2 DUP5 SUB SWAP2 ADD MSTORE PUSH2 0x391E JUMP JUMPDEST PUSH1 0x20 DUP2 ADD PUSH1 0x20 DUP3 MSTORE DUP3 MLOAD DUP1 SWAP2 MSTORE PUSH1 0x40 DUP3 ADD SWAP2 PUSH1 0x20 PUSH1 0x40 DUP4 PUSH1 0x5 SHL DUP4 ADD ADD SWAP5 ADD SWAP3 PUSH0 SWAP2 JUMPDEST DUP4 DUP4 LT PUSH2 0x3B5E JUMPI POP POP POP POP POP SWAP1 JUMP JUMPDEST SWAP1 SWAP2 SWAP3 SWAP4 SWAP5 PUSH1 0x20 DUP1 PUSH1 0x1 SWAP3 PUSH1 0x3F NOT DUP6 DUP3 SUB ADD DUP7 MSTORE DUP9 MLOAD SWAP1 PUSH1 0xC0 DUP1 PUSH2 0x3BE7 PUSH2 0x3BB6 PUSH2 0x3BA4 PUSH2 0x3B94 DUP8 MLOAD PUSH1 0xE0 DUP9 MSTORE PUSH1 0xE0 DUP9 ADD SWAP1 PUSH2 0x391E JUMP JUMPDEST DUP9 DUP9 ADD MLOAD DUP8 DUP3 SUB DUP11 DUP10 ADD MSTORE PUSH2 0x391E JUMP JUMPDEST PUSH1 0x40 DUP8 ADD MLOAD DUP7 DUP3 SUB PUSH1 0x40 DUP9 ADD MSTORE PUSH2 0x391E JUMP JUMPDEST PUSH1 0xFF PUSH1 0x60 DUP8 ADD MLOAD AND PUSH1 0x60 DUP7 ADD MSTORE PUSH2 0x3BD5 PUSH1 0x80 DUP8 ADD MLOAD PUSH1 0x80 DUP8 ADD SWAP1 PUSH2 0x3AAD JUMP JUMPDEST PUSH1 0xA0 DUP7 ADD MLOAD DUP6 DUP3 SUB PUSH1 0xA0 DUP8 ADD MSTORE PUSH2 0x391E JUMP JUMPDEST SWAP4 ADD MLOAD SWAP2 ADD MSTORE SWAP8 ADD SWAP4 ADD SWAP4 ADD SWAP2 SWAP4 SWAP3 SWAP1 PUSH2 0x3B4F JUMP JUMPDEST SWAP2 SWAP1 PUSH1 0x60 DUP4 DUP3 SUB SLT PUSH2 0x20A JUMPI PUSH1 0x40 MLOAD SWAP1 PUSH2 0x3C15 DUP3 PUSH2 0x3856 JUMP JUMPDEST DUP2 SWAP4 DUP1 CALLDATALOAD PUSH1 0x1 PUSH1 0x1 PUSH1 0x40 SHL SUB DUP2 GT PUSH2 0x20A JUMPI DUP3 PUSH2 0x3C33 SWAP2 DUP4 ADD PUSH2 0x38C9 JUMP JUMPDEST DUP4 MSTORE PUSH1 0x20 DUP2 ADD CALLDATALOAD PUSH1 0x1 PUSH1 0x1 PUSH1 0x40 SHL SUB DUP2 GT PUSH2 0x20A JUMPI DUP3 PUSH2 0x3C54 SWAP2 DUP4 ADD PUSH2 0x38C9 JUMP JUMPDEST PUSH1 0x20 DUP5 ADD MSTORE PUSH1 0x40 DUP2 ADD CALLDATALOAD SWAP2 PUSH1 0x1 PUSH1 0x1 PUSH1 0x40 SHL SUB DUP4 GT PUSH2 0x20A JUMPI PUSH1 0x40 SWAP3 PUSH2 0x3C7A SWAP3 ADD PUSH2 0x38C9 JUMP JUMPDEST SWAP2 ADD MSTORE JUMP JUMPDEST SWAP2 SWAP1 PUSH1 0x40 DUP4 DUP3 SUB SLT PUSH2 0x20A JUMPI PUSH1 0x40 MLOAD SWAP1 PUSH2 0x3C98 DUP3 PUSH2 0x3871 JUMP JUMPDEST DUP2 SWAP4 DUP1 CALLDATALOAD PUSH1 0x1 PUSH1 0x1 PUSH1 0x40 SHL SUB DUP2 GT PUSH2 0x20A JUMPI DUP3 PUSH2 0x3CB6 SWAP2 DUP4 ADD PUSH2 0x38C9 JUMP JUMPDEST DUP4 MSTORE PUSH1 0x20 DUP2 ADD CALLDATALOAD SWAP2 PUSH1 0x1 PUSH1 0x1 PUSH1 0x40 SHL SUB DUP4 GT PUSH2 0x20A JUMPI PUSH1 0x20 SWAP3 PUSH2 0x3C7A SWAP3 ADD PUSH2 0x38C9 JUMP JUMPDEST SWAP1 PUSH2 0x3B04 SWAP2 PUSH1 0x20 DUP2 MSTORE PUSH2 0x3CF0 PUSH1 0x20 DUP3 ADD DUP4 MLOAD PUSH2 0x3AAD JUMP JUMPDEST PUSH1 0x20 DUP3 ADD MLOAD PUSH1 0x40 DUP3 ADD MSTORE PUSH1 0x40 DUP3 ADD MLOAD PUSH1 0x60 DUP3 ADD MSTORE PUSH1 0x60 DUP3 ADD MLOAD PUSH1 0x80 DUP3 ADD MSTORE PUSH1 0x80 DUP3 ADD MLOAD PUSH1 0xA0 DUP3 ADD MSTORE PUSH1 0xA0 DUP3 ADD MLOAD PUSH1 0xC0 DUP3 ADD MSTORE PUSH1 0xC0 DUP3 ADD MLOAD PUSH1 0xE0 DUP3 ADD MSTORE PUSH1 0xE0 DUP3 ADD MLOAD PUSH2 0x100 DUP3 ADD MSTORE PUSH2 0x100 DUP3 ADD MLOAD PUSH2 0x120 DUP3 ADD MSTORE PUSH2 0x120 DUP3 ADD MLOAD PUSH2 0x140 DUP3 ADD MSTORE PUSH2 0x180 PUSH2 0x3D88 PUSH2 0x3D72 PUSH2 0x140 DUP6 ADD MLOAD PUSH2 0x1A0 PUSH2 0x160 DUP7 ADD MSTORE PUSH2 0x1C0 DUP6 ADD SWAP1 PUSH2 0x3942 JUMP JUMPDEST PUSH2 0x160 DUP6 ADD MLOAD DUP5 DUP3 SUB PUSH1 0x1F NOT ADD DUP5 DUP7 ADD MSTORE PUSH2 0x3942 JUMP JUMPDEST SWAP3 ADD MLOAD SWAP1 PUSH2 0x1A0 PUSH1 0x1F NOT DUP3 DUP6 SUB ADD SWAP2 ADD MSTORE PUSH2 0x391E JUMP JUMPDEST SWAP2 SWAP1 PUSH1 0x60 DUP4 DUP3 SUB SLT PUSH2 0x20A JUMPI PUSH1 0x40 MLOAD SWAP1 PUSH2 0x3DB7 DUP3 PUSH2 0x3856 JUMP JUMPDEST DUP2 SWAP4 DUP1 CALLDATALOAD PUSH1 0x1 PUSH1 0x1 PUSH1 0x40 SHL SUB DUP2 GT PUSH2 0x20A JUMPI DUP3 PUSH2 0x3DD5 SWAP2 DUP4 ADD PUSH2 0x38C9 JUMP JUMPDEST DUP4 MSTORE PUSH1 0x20 DUP2 ADD CALLDATALOAD PUSH1 0x1 PUSH1 0x1 PUSH1 0x40 SHL SUB DUP2 GT PUSH2 0x20A JUMPI PUSH1 0x40 SWAP3 PUSH2 0x3DF8 SWAP2 DUP4 ADD PUSH2 0x38C9 JUMP JUMPDEST PUSH1 0x20 DUP5 ADD MSTORE ADD CALLDATALOAD SWAP1 PUSH1 0x1 PUSH1 0x1 PUSH1 0xA0 SHL SUB DUP3 AND DUP3 SUB PUSH2 0x20A JUMPI PUSH1 0x40 ADD MSTORE JUMP JUMPDEST PUSH1 0x60 PUSH1 0x3 NOT DUP3 ADD SLT PUSH2 0x20A JUMPI PUSH1 0x4 CALLDATALOAD PUSH1 0x1 PUSH1 0x1 PUSH1 0x40 SHL SUB DUP2 GT PUSH2 0x20A JUMPI DUP2 PUSH2 0x3E40 SWAP2 PUSH1 0x4 ADD PUSH2 0x38C9 JUMP JUMPDEST SWAP2 PUSH1 0x24 CALLDATALOAD PUSH1 0x1 PUSH1 0x1 PUSH1 0x40 SHL SUB DUP2 GT PUSH2 0x20A JUMPI DUP3 PUSH2 0x3E5F SWAP2 PUSH1 0x4 ADD PUSH2 0x38C9 JUMP JUMPDEST SWAP2 PUSH1 0x44 CALLDATALOAD SWAP1 PUSH1 0x1 PUSH1 0x1 PUSH1 0x40 SHL SUB DUP3 GT PUSH2 0x20A JUMPI PUSH2 0x3B04 SWAP2 PUSH1 0x4 ADD PUSH2 0x3D9E JUMP JUMPDEST PUSH1 0x3 SLOAD DUP2 LT ISZERO PUSH2 0x3E9A JUMPI PUSH1 0x3 PUSH0 MSTORE PUSH1 0x6 PUSH1 0x20 PUSH0 KECCAK256 SWAP2 MUL ADD SWAP1 PUSH0 SWAP1 JUMP JUMPDEST PUSH4 0x4E487B71 PUSH1 0xE0 SHL PUSH0 MSTORE PUSH1 0x32 PUSH1 0x4 MSTORE PUSH1 0x24 PUSH0 REVERT JUMPDEST PUSH1 0x40 MLOAD SWAP1 PUSH2 0x3EBB DUP3 PUSH2 0x3856 JUMP JUMPDEST PUSH0 PUSH1 0x40 DUP4 PUSH1 0x60 DUP2 MSTORE PUSH1 0x60 PUSH1 0x20 DUP3 ADD MSTORE ADD MSTORE JUMP JUMPDEST PUSH1 0x20 DUP1 SWAP2 PUSH1 0x40 MLOAD SWAP3 DUP2 DUP5 SWAP3 MLOAD SWAP2 DUP3 SWAP2 ADD DUP4 MCOPY DUP2 ADD PUSH0 DUP2 MSTORE SUB ADD SWAP1 KECCAK256 TIMESTAMP PUSH1 0x4 DUP3 ADD SSTORE PUSH1 0x3 PUSH1 0xFF NOT DUP3 SLOAD AND OR SWAP1 SSTORE JUMP JUMPDEST SWAP2 SWAP1 PUSH2 0x3F06 PUSH2 0x3EAE JUMP JUMPDEST POP PUSH1 0x40 MLOAD SWAP3 PUSH2 0x3F14 DUP5 PUSH2 0x3856 JUMP JUMPDEST DUP4 MSTORE PUSH1 0x20 DUP4 ADD MSTORE PUSH1 0x1 PUSH1 0x1 PUSH1 0xA0 SHL SUB AND PUSH1 0x40 DUP3 ADD MSTORE SWAP1 JUMP JUMPDEST PUSH0 SWAP3 SWAP2 DUP2 SLOAD SWAP2 PUSH2 0x3F3B DUP4 PUSH2 0x3980 JUMP JUMPDEST SWAP3 PUSH1 0x1 DUP2 AND SWAP1 DUP2 ISZERO PUSH2 0x3F83 JUMPI POP PUSH1 0x1 EQ PUSH2 0x3F54 JUMPI POP POP POP JUMP JUMPDEST SWAP1 SWAP2 SWAP3 SWAP4 POP PUSH0 MSTORE PUSH1 0x20 PUSH0 KECCAK256 PUSH0 SWAP1 JUMPDEST DUP4 DUP3 LT PUSH2 0x3F6F JUMPI POP POP ADD SWAP1 JUMP JUMPDEST PUSH1 0x1 DUP2 PUSH1 0x20 SWAP3 SLOAD DUP5 DUP7 ADD MSTORE ADD SWAP2 ADD SWAP1 PUSH2 0x3F62 JUMP JUMPDEST PUSH1 0xFF NOT AND DUP4 MSTORE POP POP DUP2 ISZERO ISZERO SWAP1 SWAP2 MUL ADD SWAP2 POP JUMP JUMPDEST PUSH1 0x20 DUP1 SWAP2 PUSH1 0x40 MLOAD SWAP3 DUP2 DUP5 SWAP3 MLOAD SWAP2 DUP3 SWAP2 ADD DUP4 MCOPY DUP2 ADD PUSH0 DUP2 MSTORE SUB ADD SWAP1 KECCAK256 TIMESTAMP PUSH1 0x9 DUP3 ADD SSTORE PUSH1 0x8 PUSH1 0xFF NOT DUP3 SLOAD AND OR SWAP1 SSTORE JUMP JUMPDEST PUSH1 0x1 PUSH1 0x1 PUSH1 0x40 SHL SUB DUP2 GT PUSH2 0x35E JUMPI PUSH1 0x5 SHL PUSH1 0x20 ADD SWAP1 JUMP JUMPDEST SWAP1 PUSH2 0x3FE5 DUP3 PUSH2 0x3FC4 JUMP JUMPDEST PUSH2 0x3FF2 PUSH1 0x40 MLOAD SWAP2 DUP3 PUSH2 0x38A8 JUMP JUMPDEST DUP3 DUP2 MSTORE DUP1 SWAP3 PUSH2 0x4003 PUSH1 0x1F NOT SWAP2 PUSH2 0x3FC4 JUMP JUMPDEST ADD SWAP1 PUSH0 JUMPDEST DUP3 DUP2 LT PUSH2 0x4013 JUMPI POP POP POP JUMP JUMPDEST PUSH1 0x20 SWAP1 PUSH1 0x40 MLOAD PUSH2 0x4022 DUP2 PUSH2 0x383B JUMP JUMPDEST PUSH1 0x60 DUP2 MSTORE PUSH1 0x60 DUP4 DUP3 ADD MSTORE PUSH1 0x60 PUSH1 0x40 DUP3 ADD MSTORE PUSH0 PUSH1 0x60 DUP3 ADD MSTORE PUSH0 PUSH1 0x80 DUP3 ADD MSTORE PUSH1 0x60 PUSH1 0xA0 DUP3 ADD MSTORE PUSH0 PUSH1 0xC0 DUP3 ADD MSTORE DUP3 DUP3 DUP6 ADD ADD MSTORE ADD PUSH2 0x4007 JUMP JUMPDEST DUP1 MLOAD DUP3 LT ISZERO PUSH2 0x3E9A JUMPI PUSH1 0x20 SWAP2 PUSH1 0x5 SHL ADD ADD SWAP1 JUMP JUMPDEST PUSH1 0x9 DUP3 LT ISZERO PUSH2 0x24ED JUMPI MSTORE JUMP JUMPDEST SWAP1 PUSH1 0x40 MLOAD PUSH2 0x4085 DUP2 PUSH2 0x383B JUMP JUMPDEST PUSH1 0xC0 PUSH1 0x5 DUP3 SWAP5 PUSH2 0x4094 DUP2 PUSH2 0x39B8 JUMP JUMPDEST DUP5 MSTORE PUSH2 0x40A2 PUSH1 0x1 DUP3 ADD PUSH2 0x39B8 JUMP JUMPDEST PUSH1 0x20 DUP6 ADD MSTORE PUSH2 0x40B3 PUSH1 0x2 DUP3 ADD PUSH2 0x39B8 JUMP JUMPDEST PUSH1 0x40 DUP6 ADD MSTORE PUSH2 0x40D7 PUSH1 0xFF PUSH1 0x3 DUP4 ADD SLOAD DUP2 DUP2 AND PUSH1 0x60 DUP9 ADD MSTORE PUSH1 0x8 SHR AND PUSH1 0x80 DUP7 ADD PUSH2 0x406C JUMP JUMPDEST PUSH2 0x40E3 PUSH1 0x4 DUP3 ADD PUSH2 0x39B8 JUMP JUMPDEST PUSH1 0xA0 DUP6 ADD MSTORE ADD SLOAD SWAP2 ADD MSTORE JUMP JUMPDEST PUSH1 0xFF AND PUSH1 0xFF DUP2 EQ PUSH2 0x372 JUMPI PUSH1 0x1 ADD SWAP1 JUMP JUMPDEST SWAP1 PUSH2 0x3B04 PUSH2 0x413F PUSH1 0x40 MLOAD PUSH1 0x20 DUP6 MLOAD SWAP2 DUP2 DUP2 DUP2 DUP10 ADD SWAP5 DUP1 DUP7 DUP4 MCOPY DUP2 ADD PUSH1 0x1 DUP2 MSTORE SUB ADD SWAP1 KECCAK256 SWAP6 PUSH1 0x40 MLOAD SWAP3 DUP4 SWAP2 MLOAD DUP1 SWAP2 DUP4 MCOPY DUP2 ADD PUSH1 0x2 DUP2 MSTORE SUB ADD SWAP1 KECCAK256 SWAP4 PUSH2 0x39B8 JUMP JUMPDEST SWAP3 PUSH2 0x39B8 JUMP JUMPDEST SWAP1 TIMESTAMP GT ISZERO PUSH2 0x417B JUMPI PUSH1 0x20 DUP1 SWAP2 PUSH1 0x40 MLOAD SWAP3 DUP2 DUP5 SWAP3 MLOAD SWAP2 DUP3 SWAP2 ADD DUP4 MCOPY DUP2 ADD PUSH0 DUP2 MSTORE SUB ADD SWAP1 KECCAK256 TIMESTAMP PUSH1 0x6 DUP3 ADD SSTORE PUSH1 0x5 PUSH1 0xFF NOT DUP3 SLOAD AND OR SWAP1 SSTORE JUMP JUMPDEST PUSH1 0x40 MLOAD PUSH3 0x461BCD PUSH1 0xE5 SHL DUP2 MSTORE PUSH1 0x20 PUSH1 0x4 DUP3 ADD MSTORE PUSH1 0x18 PUSH1 0x24 DUP3 ADD MSTORE PUSH32 0x536572746966696B6174206D61736968206265726C616B750000000000000000 PUSH1 0x44 DUP3 ADD MSTORE PUSH1 0x64 SWAP1 REVERT JUMPDEST PUSH1 0x40 MLOAD SWAP1 PUSH2 0x41CD DUP3 PUSH2 0x388C JUMP JUMPDEST PUSH1 0x60 PUSH2 0x180 DUP4 PUSH0 DUP2 MSTORE PUSH0 PUSH1 0x20 DUP3 ADD MSTORE PUSH0 PUSH1 0x40 DUP3 ADD MSTORE PUSH0 DUP4 DUP3 ADD MSTORE PUSH0 PUSH1 0x80 DUP3 ADD MSTORE PUSH0 PUSH1 0xA0 DUP3 ADD MSTORE PUSH0 PUSH1 0xC0 DUP3 ADD MSTORE PUSH0 PUSH1 0xE0 DUP3 ADD MSTORE PUSH0 PUSH2 0x100 DUP3 ADD MSTORE PUSH0 PUSH2 0x120 DUP3 ADD MSTORE PUSH2 0x4215 PUSH2 0x3EAE JUMP JUMPDEST PUSH2 0x140 DUP3 ADD MSTORE PUSH2 0x4223 PUSH2 0x3EAE JUMP JUMPDEST PUSH2 0x160 DUP3 ADD MSTORE ADD MSTORE JUMP JUMPDEST PUSH1 0x20 DUP1 SWAP2 PUSH2 0x4239 PUSH2 0x41C0 JUMP JUMPDEST POP PUSH1 0x40 MLOAD SWAP3 DUP2 DUP5 SWAP3 MLOAD SWAP2 DUP3 SWAP2 ADD DUP4 MCOPY DUP2 ADD PUSH0 DUP2 MSTORE SUB ADD SWAP1 KECCAK256 PUSH2 0x42F7 PUSH1 0x10 PUSH1 0x40 MLOAD SWAP3 PUSH2 0x4263 DUP5 PUSH2 0x388C JUMP JUMPDEST PUSH2 0x4271 PUSH1 0xFF DUP3 SLOAD AND DUP6 PUSH2 0x406C JUMP JUMPDEST PUSH1 0x1 DUP2 ADD SLOAD PUSH1 0x20 DUP6 ADD MSTORE PUSH1 0x2 DUP2 ADD SLOAD PUSH1 0x40 DUP6 ADD MSTORE PUSH1 0x3 DUP2 ADD SLOAD PUSH1 0x60 DUP6 ADD MSTORE PUSH1 0x4 DUP2 ADD SLOAD PUSH1 0x80 DUP6 ADD MSTORE PUSH1 0x5 DUP2 ADD SLOAD PUSH1 0xA0 DUP6 ADD MSTORE PUSH1 0x6 DUP2 ADD SLOAD PUSH1 0xC0 DUP6 ADD MSTORE PUSH1 0x7 DUP2 ADD SLOAD PUSH1 0xE0 DUP6 ADD MSTORE PUSH1 0x8 DUP2 ADD SLOAD PUSH2 0x100 DUP6 ADD MSTORE PUSH1 0x9 DUP2 ADD SLOAD PUSH2 0x120 DUP6 ADD MSTORE PUSH2 0x42D9 PUSH1 0xA DUP3 ADD PUSH2 0x3A6E JUMP JUMPDEST PUSH2 0x140 DUP6 ADD MSTORE PUSH2 0x42EB PUSH1 0xD DUP3 ADD PUSH2 0x3A6E JUMP JUMPDEST PUSH2 0x160 DUP6 ADD MSTORE ADD PUSH2 0x39B8 JUMP JUMPDEST PUSH2 0x180 DUP3 ADD MSTORE SWAP1 JUMP JUMPDEST SWAP2 SWAP1 SWAP2 PUSH1 0x40 MLOAD PUSH1 0x20 DUP3 MLOAD SWAP2 DUP2 DUP2 DUP2 DUP7 ADD SWAP5 DUP1 DUP7 DUP4 MCOPY DUP2 ADD PUSH0 DUP2 MSTORE SUB ADD SWAP1 KECCAK256 SWAP3 PUSH1 0x40 MLOAD SWAP3 DUP4 SWAP2 MLOAD DUP1 SWAP2 DUP4 MCOPY DUP2 ADD PUSH1 0x2 DUP2 MSTORE SUB ADD SWAP1 KECCAK256 DUP4 MLOAD PUSH1 0x1 PUSH1 0x1 PUSH1 0x40 SHL SUB DUP2 GT PUSH2 0x35E JUMPI PUSH2 0x434E DUP3 SLOAD PUSH2 0x3980 JUMP JUMPDEST PUSH1 0x1F DUP2 GT PUSH2 0x4406 JUMPI JUMPDEST POP PUSH1 0x20 SWAP5 PUSH1 0x1F DUP3 GT PUSH1 0x1 EQ PUSH2 0x43A5 JUMPI SWAP5 DUP2 SWAP3 SWAP4 SWAP5 SWAP6 PUSH0 SWAP3 PUSH2 0x439A JUMPI JUMPDEST POP POP DUP2 PUSH1 0x1 SHL SWAP2 PUSH0 NOT SWAP1 PUSH1 0x3 SHL SHR NOT AND OR SWAP1 SSTORE JUMPDEST TIMESTAMP PUSH1 0x8 DUP3 ADD SSTORE DUP1 SLOAD PUSH1 0xFF NOT AND PUSH1 0x7 OR SWAP1 SSTORE JUMP JUMPDEST ADD MLOAD SWAP1 POP PUSH0 DUP1 PUSH2 0x4373 JUMP JUMPDEST PUSH1 0x1F NOT DUP3 AND SWAP6 DUP4 PUSH0 MSTORE DUP1 PUSH0 KECCAK256 SWAP2 PUSH0 JUMPDEST DUP9 DUP2 LT PUSH2 0x43EE JUMPI POP DUP4 PUSH1 0x1 SWAP6 SWAP7 SWAP8 SWAP9 LT PUSH2 0x43D6 JUMPI JUMPDEST POP POP POP DUP2 SHL ADD SWAP1 SSTORE PUSH2 0x4387 JUMP JUMPDEST ADD MLOAD PUSH0 NOT PUSH1 0xF8 DUP5 PUSH1 0x3 SHL AND SHR NOT AND SWAP1 SSTORE PUSH0 DUP1 DUP1 PUSH2 0x43C9 JUMP JUMPDEST SWAP2 SWAP3 PUSH1 0x20 PUSH1 0x1 DUP2 SWAP3 DUP7 DUP6 ADD MLOAD DUP2 SSTORE ADD SWAP5 ADD SWAP3 ADD PUSH2 0x43B4 JUMP JUMPDEST DUP3 PUSH0 MSTORE PUSH1 0x20 PUSH0 KECCAK256 PUSH1 0x1F DUP4 ADD PUSH1 0x5 SHR DUP2 ADD SWAP2 PUSH1 0x20 DUP5 LT PUSH2 0x4441 JUMPI JUMPDEST PUSH1 0x1F ADD PUSH1 0x5 SHR ADD SWAP1 JUMPDEST DUP2 DUP2 LT PUSH2 0x4436 JUMPI POP PUSH2 0x4357 JUMP JUMPDEST PUSH0 DUP2 SSTORE PUSH1 0x1 ADD PUSH2 0x4429 JUMP JUMPDEST SWAP1 SWAP2 POP DUP2 SWAP1 PUSH2 0x4420 JUMP JUMPDEST PUSH1 0x20 DUP1 SWAP2 SWAP4 SWAP3 SWAP4 PUSH1 0x40 MLOAD SWAP3 DUP2 DUP5 SWAP3 MLOAD SWAP2 DUP3 SWAP2 ADD DUP4 MCOPY DUP2 ADD PUSH0 DUP2 MSTORE SUB ADD SWAP1 KECCAK256 TIMESTAMP PUSH1 0x7 DUP3 ADD SSTORE PUSH1 0x82 TIMESTAMP ADD SWAP1 DUP2 TIMESTAMP GT PUSH2 0x372 JUMPI PUSH1 0x10 SWAP2 PUSH1 0x5 DUP3 ADD SSTORE PUSH1 0x6 PUSH1 0xFF NOT DUP3 SLOAD AND OR DUP2 SSTORE ADD DUP3 MLOAD PUSH1 0x1 PUSH1 0x1 PUSH1 0x40 SHL SUB DUP2 GT PUSH2 0x35E JUMPI PUSH2 0x44A9 DUP3 SLOAD PUSH2 0x3980 JUMP JUMPDEST PUSH1 0x1F DUP2 GT PUSH2 0x4549 JUMPI JUMPDEST POP PUSH1 0x20 PUSH1 0x1F DUP3 GT PUSH1 0x1 EQ PUSH2 0x44EB JUMPI DUP2 SWAP3 SWAP4 SWAP5 PUSH0 SWAP3 PUSH2 0x44E0 JUMPI JUMPDEST POP POP DUP2 PUSH1 0x1 SHL SWAP2 PUSH0 NOT SWAP1 PUSH1 0x3 SHL SHR NOT AND OR SWAP1 SSTORE JUMP JUMPDEST ADD MLOAD SWAP1 POP PUSH0 DUP1 PUSH2 0x44CB JUMP JUMPDEST PUSH1 0x1F NOT DUP3 AND SWAP1 DUP4 PUSH0 MSTORE DUP1 PUSH0 KECCAK256 SWAP2 PUSH0 JUMPDEST DUP2 DUP2 LT PUSH2 0x4531 JUMPI POP SWAP6 DUP4 PUSH1 0x1 SWAP6 SWAP7 SWAP8 LT PUSH2 0x4519 JUMPI JUMPDEST POP POP POP DUP2 SHL ADD SWAP1 SSTORE JUMP JUMPDEST ADD MLOAD PUSH0 NOT PUSH1 0xF8 DUP5 PUSH1 0x3 SHL AND SHR NOT AND SWAP1 SSTORE PUSH0 DUP1 DUP1 PUSH2 0x450F JUMP JUMPDEST SWAP2 SWAP3 PUSH1 0x20 PUSH1 0x1 DUP2 SWAP3 DUP7 DUP12 ADD MLOAD DUP2 SSTORE ADD SWAP5 ADD SWAP3 ADD PUSH2 0x44FA JUMP JUMPDEST DUP3 PUSH0 MSTORE PUSH1 0x20 PUSH0 KECCAK256 PUSH1 0x1F DUP4 ADD PUSH1 0x5 SHR DUP2 ADD SWAP2 PUSH1 0x20 DUP5 LT PUSH2 0x4584 JUMPI JUMPDEST PUSH1 0x1F ADD PUSH1 0x5 SHR ADD SWAP1 JUMPDEST DUP2 DUP2 LT PUSH2 0x4579 JUMPI POP PUSH2 0x44B2 JUMP JUMPDEST PUSH0 DUP2 SSTORE PUSH1 0x1 ADD PUSH2 0x456C JUMP JUMPDEST SWAP1 SWAP2 POP DUP2 SWAP1 PUSH2 0x4563 JUMP JUMPDEST SWAP3 SWAP2 SWAP1 PUSH1 0x40 MLOAD PUSH1 0x20 DUP6 MLOAD SWAP2 DUP2 DUP2 DUP2 DUP10 ADD SWAP5 DUP1 DUP7 DUP4 MCOPY DUP2 ADD PUSH0 DUP2 MSTORE SUB ADD SWAP1 KECCAK256 SWAP6 PUSH1 0x40 MLOAD SWAP3 DUP4 SWAP2 MLOAD DUP1 SWAP2 DUP4 MCOPY DUP2 ADD PUSH1 0x1 DUP2 MSTORE SUB ADD SWAP1 KECCAK256 SWAP1 DUP1 MLOAD SWAP1 PUSH1 0x1 PUSH1 0x1 PUSH1 0x40 SHL SUB DUP3 GT PUSH2 0x35E JUMPI DUP2 SWAP1 PUSH2 0x45E0 DUP5 SLOAD PUSH2 0x3980 JUMP JUMPDEST PUSH1 0x1F DUP2 GT PUSH2 0x48DB JUMPI JUMPDEST POP PUSH1 0x20 SWAP1 PUSH1 0x1F DUP4 GT PUSH1 0x1 EQ PUSH2 0x4878 JUMPI PUSH0 SWAP3 PUSH2 0x486D JUMPI JUMPDEST POP POP DUP2 PUSH1 0x1 SHL SWAP2 PUSH0 NOT SWAP1 PUSH1 0x3 SHL SHR NOT AND OR SWAP1 SSTORE JUMPDEST DUP1 MLOAD DUP1 MLOAD PUSH1 0xD DUP6 ADD SWAP2 PUSH1 0x1 PUSH1 0x1 PUSH1 0x40 SHL SUB DUP3 GT PUSH2 0x35E JUMPI PUSH2 0x4634 DUP4 SLOAD PUSH2 0x3980 JUMP JUMPDEST PUSH1 0x1F DUP2 GT PUSH2 0x4828 JUMPI JUMPDEST POP PUSH1 0x20 SWAP1 PUSH1 0x1F DUP4 GT PUSH1 0x1 EQ PUSH2 0x47C1 JUMPI PUSH1 0x20 SWAP5 SWAP4 SWAP3 SWAP2 PUSH0 SWAP2 DUP4 PUSH2 0x47B6 JUMPI JUMPDEST POP POP DUP2 PUSH1 0x1 SHL SWAP2 PUSH0 NOT SWAP1 PUSH1 0x3 SHL SHR NOT AND OR SWAP1 SSTORE JUMPDEST PUSH1 0x40 DUP2 ADD MLOAD PUSH1 0xF DUP6 ADD DUP1 SLOAD PUSH1 0x1 PUSH1 0x1 PUSH1 0xA0 SHL SUB NOT AND PUSH1 0x1 PUSH1 0x1 PUSH1 0xA0 SHL SUB SWAP3 SWAP1 SWAP3 AND SWAP2 SWAP1 SWAP2 OR SWAP1 SSTORE ADD MLOAD DUP1 MLOAD SWAP1 SWAP3 SWAP1 PUSH1 0xE DUP3 ADD SWAP1 PUSH1 0x1 PUSH1 0x1 PUSH1 0x40 SHL SUB DUP2 GT PUSH2 0x35E JUMPI PUSH2 0x46B9 DUP3 SLOAD PUSH2 0x3980 JUMP JUMPDEST PUSH1 0x1F DUP2 GT PUSH2 0x4771 JUMPI JUMPDEST POP PUSH1 0x20 SWAP5 PUSH1 0x1F DUP3 GT PUSH1 0x1 EQ PUSH2 0x4710 JUMPI SWAP5 DUP2 SWAP3 SWAP4 SWAP5 SWAP6 PUSH0 SWAP3 PUSH2 0x4705 JUMPI JUMPDEST POP POP DUP2 PUSH1 0x1 SHL SWAP2 PUSH0 NOT SWAP1 PUSH1 0x3 SHL SHR NOT AND OR SWAP1 SSTORE JUMPDEST TIMESTAMP PUSH1 0x3 DUP3 ADD SSTORE DUP1 SLOAD PUSH1 0xFF NOT AND PUSH1 0x2 OR SWAP1 SSTORE JUMP JUMPDEST ADD MLOAD SWAP1 POP PUSH0 DUP1 PUSH2 0x46DE JUMP JUMPDEST PUSH1 0x1F NOT DUP3 AND SWAP6 DUP4 PUSH0 MSTORE DUP1 PUSH0 KECCAK256 SWAP2 PUSH0 JUMPDEST DUP9 DUP2 LT PUSH2 0x4759 JUMPI POP DUP4 PUSH1 0x1 SWAP6 SWAP7 SWAP8 SWAP9 LT PUSH2 0x4741 JUMPI JUMPDEST POP POP POP DUP2 SHL ADD SWAP1 SSTORE PUSH2 0x46F2 JUMP JUMPDEST ADD MLOAD PUSH0 NOT PUSH1 0xF8 DUP5 PUSH1 0x3 SHL AND SHR NOT AND SWAP1 SSTORE PUSH0 DUP1 DUP1 PUSH2 0x4734 JUMP JUMPDEST SWAP2 SWAP3 PUSH1 0x20 PUSH1 0x1 DUP2 SWAP3 DUP7 DUP6 ADD MLOAD DUP2 SSTORE ADD SWAP5 ADD SWAP3 ADD PUSH2 0x471F JUMP JUMPDEST DUP3 PUSH0 MSTORE PUSH1 0x20 PUSH0 KECCAK256 PUSH1 0x1F DUP4 ADD PUSH1 0x5 SHR DUP2 ADD SWAP2 PUSH1 0x20 DUP5 LT PUSH2 0x47AC JUMPI JUMPDEST PUSH1 0x1F ADD PUSH1 0x5 SHR ADD SWAP1 JUMPDEST DUP2 DUP2 LT PUSH2 0x47A1 JUMPI POP PUSH2 0x46C2 JUMP JUMPDEST PUSH0 DUP2 SSTORE PUSH1 0x1 ADD PUSH2 0x4794 JUMP JUMPDEST SWAP1 SWAP2 POP DUP2 SWAP1 PUSH2 0x478B JUMP JUMPDEST ADD MLOAD SWAP1 POP PUSH0 DUP1 PUSH2 0x465A JUMP JUMPDEST SWAP1 PUSH1 0x1F NOT DUP4 AND SWAP2 DUP5 PUSH0 MSTORE DUP2 PUSH0 KECCAK256 SWAP3 PUSH0 JUMPDEST DUP2 DUP2 LT PUSH2 0x4810 JUMPI POP SWAP2 PUSH1 0x1 SWAP4 SWAP2 DUP6 PUSH1 0x20 SWAP9 SWAP8 SWAP7 SWAP5 LT PUSH2 0x47F8 JUMPI JUMPDEST POP POP POP DUP2 SHL ADD SWAP1 SSTORE PUSH2 0x466E JUMP JUMPDEST ADD MLOAD PUSH0 NOT PUSH1 0xF8 DUP5 PUSH1 0x3 SHL AND SHR NOT AND SWAP1 SSTORE PUSH0 DUP1 DUP1 PUSH2 0x47EB JUMP JUMPDEST SWAP3 SWAP4 PUSH1 0x20 PUSH1 0x1 DUP2 SWAP3 DUP8 DUP7 ADD MLOAD DUP2 SSTORE ADD SWAP6 ADD SWAP4 ADD PUSH2 0x47D1 JUMP JUMPDEST DUP4 PUSH0 MSTORE PUSH1 0x20 PUSH0 KECCAK256 PUSH1 0x1F DUP5 ADD PUSH1 0x5 SHR DUP2 ADD SWAP2 PUSH1 0x20 DUP6 LT PUSH2 0x4863 JUMPI JUMPDEST PUSH1 0x1F ADD PUSH1 0x5 SHR ADD SWAP1 JUMPDEST DUP2 DUP2 LT PUSH2 0x4858 JUMPI POP PUSH2 0x463D JUMP JUMPDEST PUSH0 DUP2 SSTORE PUSH1 0x1 ADD PUSH2 0x484B JUMP JUMPDEST SWAP1 SWAP2 POP DUP2 SWAP1 PUSH2 0x4842 JUMP JUMPDEST ADD MLOAD SWAP1 POP PUSH0 DUP1 PUSH2 0x45FF JUMP JUMPDEST PUSH0 DUP6 DUP2 MSTORE DUP3 DUP2 KECCAK256 SWAP4 POP PUSH1 0x1F NOT DUP6 AND SWAP1 JUMPDEST DUP2 DUP2 LT PUSH2 0x48C3 JUMPI POP SWAP1 DUP5 PUSH1 0x1 SWAP6 SWAP5 SWAP4 SWAP3 LT PUSH2 0x48AB JUMPI JUMPDEST POP POP POP DUP2 SHL ADD SWAP1 SSTORE PUSH2 0x4613 JUMP JUMPDEST ADD MLOAD PUSH0 NOT PUSH1 0xF8 DUP5 PUSH1 0x3 SHL AND SHR NOT AND SWAP1 SSTORE PUSH0 DUP1 DUP1 PUSH2 0x489E JUMP JUMPDEST SWAP3 SWAP4 PUSH1 0x20 PUSH1 0x1 DUP2 SWAP3 DUP8 DUP7 ADD MLOAD DUP2 SSTORE ADD SWAP6 ADD SWAP4 ADD PUSH2 0x4888 JUMP JUMPDEST SWAP1 SWAP2 POP DUP4 PUSH0 MSTORE PUSH1 0x20 PUSH0 KECCAK256 PUSH1 0x1F DUP5 ADD PUSH1 0x5 SHR DUP2 ADD SWAP2 PUSH1 0x20 DUP6 LT PUSH2 0x4921 JUMPI JUMPDEST SWAP1 PUSH1 0x1F DUP6 SWAP5 SWAP4 SWAP3 ADD PUSH1 0x5 SHR ADD SWAP1 JUMPDEST DUP2 DUP2 LT PUSH2 0x4913 JUMPI POP PUSH2 0x45E9 JUMP JUMPDEST PUSH0 DUP2 SSTORE DUP5 SWAP4 POP PUSH1 0x1 ADD PUSH2 0x4906 JUMP JUMPDEST SWAP1 SWAP2 POP DUP2 SWAP1 PUSH2 0x48F8 JUMP JUMPDEST PUSH1 0x20 DUP1 SWAP2 SWAP5 SWAP4 SWAP3 SWAP5 PUSH1 0x40 MLOAD SWAP3 DUP2 DUP5 SWAP3 MLOAD SWAP2 DUP3 SWAP2 ADD DUP4 MCOPY DUP2 ADD PUSH0 DUP2 MSTORE SUB ADD SWAP1 KECCAK256 SWAP1 DUP1 MLOAD PUSH1 0xD DUP4 ADD SWAP1 DUP1 MLOAD SWAP1 PUSH1 0x1 PUSH1 0x1 PUSH1 0x40 SHL SUB DUP3 GT PUSH2 0x35E JUMPI PUSH2 0x496D DUP4 SLOAD PUSH2 0x3980 JUMP JUMPDEST PUSH1 0x1F DUP2 GT PUSH2 0x4C54 JUMPI JUMPDEST POP PUSH1 0x20 SWAP1 PUSH1 0x1F DUP4 GT PUSH1 0x1 EQ PUSH2 0x4BED JUMPI PUSH1 0x20 SWAP5 SWAP4 SWAP3 SWAP2 PUSH0 SWAP2 DUP4 PUSH2 0x4BE2 JUMPI JUMPDEST POP POP DUP2 PUSH1 0x1 SHL SWAP2 PUSH0 NOT SWAP1 PUSH1 0x3 SHL SHR NOT AND OR SWAP1 SSTORE JUMPDEST PUSH1 0x40 DUP2 ADD MLOAD PUSH1 0xF DUP5 ADD DUP1 SLOAD PUSH1 0x1 PUSH1 0x1 PUSH1 0xA0 SHL SUB NOT AND PUSH1 0x1 PUSH1 0x1 PUSH1 0xA0 SHL SUB SWAP3 SWAP1 SWAP3 AND SWAP2 SWAP1 SWAP2 OR SWAP1 SSTORE ADD MLOAD DUP1 MLOAD PUSH1 0xE DUP4 ADD SWAP2 PUSH1 0x1 PUSH1 0x1 PUSH1 0x40 SHL SUB DUP3 GT PUSH2 0x35E JUMPI DUP2 SWAP1 PUSH2 0x49F1 DUP5 SLOAD PUSH2 0x3980 JUMP JUMPDEST PUSH1 0x1F DUP2 GT PUSH2 0x4B92 JUMPI JUMPDEST POP PUSH1 0x20 SWAP1 PUSH1 0x1F DUP4 GT PUSH1 0x1 EQ PUSH2 0x4B2F JUMPI PUSH0 SWAP3 PUSH2 0x4B24 JUMPI JUMPDEST POP POP DUP2 PUSH1 0x1 SHL SWAP2 PUSH0 NOT SWAP1 PUSH1 0x3 SHL SHR NOT AND OR SWAP1 SSTORE JUMPDEST TIMESTAMP PUSH1 0x2 DUP3 ADD SSTORE PUSH1 0x82 TIMESTAMP ADD SWAP1 DUP2 TIMESTAMP GT PUSH2 0x372 JUMPI PUSH1 0x10 SWAP2 PUSH1 0x5 DUP3 ADD SSTORE PUSH1 0x1 PUSH1 0xFF NOT DUP3 SLOAD AND OR DUP2 SSTORE ADD DUP3 MLOAD PUSH1 0x1 PUSH1 0x1 PUSH1 0x40 SHL SUB DUP2 GT PUSH2 0x35E JUMPI PUSH2 0x4A64 DUP3 SLOAD PUSH2 0x3980 JUMP JUMPDEST PUSH1 0x1F DUP2 GT PUSH2 0x4ADF JUMPI JUMPDEST POP PUSH1 0x20 PUSH1 0x1F DUP3 GT PUSH1 0x1 EQ PUSH2 0x4A9A JUMPI DUP2 SWAP3 SWAP4 SWAP5 PUSH0 SWAP3 PUSH2 0x44E0 JUMPI POP POP DUP2 PUSH1 0x1 SHL SWAP2 PUSH0 NOT SWAP1 PUSH1 0x3 SHL SHR NOT AND OR SWAP1 SSTORE JUMP JUMPDEST PUSH1 0x1F NOT DUP3 AND SWAP1 DUP4 PUSH0 MSTORE DUP1 PUSH0 KECCAK256 SWAP2 PUSH0 JUMPDEST DUP2 DUP2 LT PUSH2 0x4AC7 JUMPI POP SWAP6 DUP4 PUSH1 0x1 SWAP6 SWAP7 SWAP8 LT PUSH2 0x4519 JUMPI POP POP POP DUP2 SHL ADD SWAP1 SSTORE JUMP JUMPDEST SWAP2 SWAP3 PUSH1 0x20 PUSH1 0x1 DUP2 SWAP3 DUP7 DUP12 ADD MLOAD DUP2 SSTORE ADD SWAP5 ADD SWAP3 ADD PUSH2 0x4AA9 JUMP JUMPDEST DUP3 PUSH0 MSTORE PUSH1 0x20 PUSH0 KECCAK256 PUSH1 0x1F DUP4 ADD PUSH1 0x5 SHR DUP2 ADD SWAP2 PUSH1 0x20 DUP5 LT PUSH2 0x4B1A JUMPI JUMPDEST PUSH1 0x1F ADD PUSH1 0x5 SHR ADD SWAP1 JUMPDEST DUP2 DUP2 LT PUSH2 0x4B0F JUMPI POP PUSH2 0x4A6D JUMP JUMPDEST PUSH0 DUP2 SSTORE PUSH1 0x1 ADD PUSH2 0x4B02 JUMP JUMPDEST SWAP1 SWAP2 POP DUP2 SWAP1 PUSH2 0x4AF9 JUMP JUMPDEST ADD MLOAD SWAP1 POP PUSH0 DUP1 PUSH2 0x4A10 JUMP JUMPDEST PUSH0 DUP6 DUP2 MSTORE DUP3 DUP2 KECCAK256 SWAP4 POP PUSH1 0x1F NOT DUP6 AND SWAP1 JUMPDEST DUP2 DUP2 LT PUSH2 0x4B7A JUMPI POP SWAP1 DUP5 PUSH1 0x1 SWAP6 SWAP5 SWAP4 SWAP3 LT PUSH2 0x4B62 JUMPI JUMPDEST POP POP POP DUP2 SHL ADD SWAP1 SSTORE PUSH2 0x4A24 JUMP JUMPDEST ADD MLOAD PUSH0 NOT PUSH1 0xF8 DUP5 PUSH1 0x3 SHL AND SHR NOT AND SWAP1 SSTORE PUSH0 DUP1 DUP1 PUSH2 0x4B55 JUMP JUMPDEST SWAP3 SWAP4 PUSH1 0x20 PUSH1 0x1 DUP2 SWAP3 DUP8 DUP7 ADD MLOAD DUP2 SSTORE ADD SWAP6 ADD SWAP4 ADD PUSH2 0x4B3F JUMP JUMPDEST SWAP1 SWAP2 POP DUP4 PUSH0 MSTORE PUSH1 0x20 PUSH0 KECCAK256 PUSH1 0x1F DUP5 ADD PUSH1 0x5 SHR DUP2 ADD SWAP2 PUSH1 0x20 DUP6 LT PUSH2 0x4BD8 JUMPI JUMPDEST SWAP1 PUSH1 0x1F DUP6 SWAP5 SWAP4 SWAP3 ADD PUSH1 0x5 SHR ADD SWAP1 JUMPDEST DUP2 DUP2 LT PUSH2 0x4BCA JUMPI POP PUSH2 0x49FA JUMP JUMPDEST PUSH0 DUP2 SSTORE DUP5 SWAP4 POP PUSH1 0x1 ADD PUSH2 0x4BBD JUMP JUMPDEST SWAP1 SWAP2 POP DUP2 SWAP1 PUSH2 0x4BAF JUMP JUMPDEST ADD MLOAD SWAP1 POP PUSH0 DUP1 PUSH2 0x4993 JUMP JUMPDEST SWAP1 PUSH1 0x1F NOT DUP4 AND SWAP2 DUP5 PUSH0 MSTORE DUP2 PUSH0 KECCAK256 SWAP3 PUSH0 JUMPDEST DUP2 DUP2 LT PUSH2 0x4C3C JUMPI POP SWAP2 PUSH1 0x1 SWAP4 SWAP2 DUP6 PUSH1 0x20 SWAP9 SWAP8 SWAP7 SWAP5 LT PUSH2 0x4C24 JUMPI JUMPDEST POP POP POP DUP2 SHL ADD SWAP1 SSTORE PUSH2 0x49A7 JUMP JUMPDEST ADD MLOAD PUSH0 NOT PUSH1 0xF8 DUP5 PUSH1 0x3 SHL AND SHR NOT AND SWAP1 SSTORE PUSH0 DUP1 DUP1 PUSH2 0x4C17 JUMP JUMPDEST SWAP3 SWAP4 PUSH1 0x20 PUSH1 0x1 DUP2 SWAP3 DUP8 DUP7 ADD MLOAD DUP2 SSTORE ADD SWAP6 ADD SWAP4 ADD PUSH2 0x4BFD JUMP JUMPDEST DUP4 PUSH0 MSTORE PUSH1 0x20 PUSH0 KECCAK256 PUSH1 0x1F DUP5 ADD PUSH1 0x5 SHR DUP2 ADD SWAP2 PUSH1 0x20 DUP6 LT PUSH2 0x4C8F JUMPI JUMPDEST PUSH1 0x1F ADD PUSH1 0x5 SHR ADD SWAP1 JUMPDEST DUP2 DUP2 LT PUSH2 0x4C84 JUMPI POP PUSH2 0x4976 JUMP JUMPDEST PUSH0 DUP2 SSTORE PUSH1 0x1 ADD PUSH2 0x4C77 JUMP JUMPDEST SWAP1 SWAP2 POP DUP2 SWAP1 PUSH2 0x4C6E JUMP JUMPDEST SWAP3 SWAP1 SWAP2 SWAP3 PUSH1 0x40 MLOAD DUP1 SWAP2 PUSH2 0x4CAB DUP3 PUSH2 0x388C JUMP JUMPDEST PUSH0 DUP3 MSTORE PUSH1 0x20 DUP3 ADD TIMESTAMP DUP2 MSTORE PUSH1 0x40 DUP4 ADD PUSH0 DUP2 MSTORE PUSH1 0x60 DUP5 ADD PUSH0 DUP2 MSTORE PUSH1 0x80 DUP6 ADD PUSH0 DUP2 MSTORE PUSH1 0xA0 DUP7 ADD PUSH0 DUP2 MSTORE PUSH1 0xC0 DUP8 ADD SWAP2 PUSH0 DUP4 MSTORE PUSH1 0xE0 DUP9 ADD SWAP4 PUSH0 DUP6 MSTORE PUSH2 0x100 DUP10 ADD SWAP6 PUSH0 DUP8 MSTORE PUSH2 0x120 DUP11 ADD SWAP8 PUSH0 DUP10 MSTORE PUSH2 0x140 DUP12 ADD SWAP10 DUP11 MSTORE PUSH2 0x160 DUP12 ADD SWAP14 DUP15 MSTORE PUSH1 0x20 SWAP15 DUP16 DUP1 SWAP2 PUSH1 0x40 MLOAD SWAP15 DUP16 PUSH2 0x4D18 DUP5 DUP3 PUSH2 0x38A8 JUMP JUMPDEST PUSH0 SWAP1 MSTORE PUSH2 0x180 ADD SWAP15 DUP16 MSTORE PUSH1 0x40 MLOAD SWAP3 DUP2 DUP5 SWAP3 MLOAD SWAP2 DUP3 SWAP2 ADD DUP4 MCOPY DUP2 ADD PUSH0 DUP2 MSTORE SUB ADD SWAP1 KECCAK256 SWAP11 MLOAD PUSH1 0x9 DUP2 LT ISZERO PUSH2 0x24ED JUMPI PUSH1 0xFF DUP1 NOT DUP14 SLOAD AND SWAP2 AND OR DUP12 SSTORE MLOAD PUSH1 0x1 DUP12 ADD SSTORE MLOAD PUSH1 0x2 DUP11 ADD SSTORE MLOAD PUSH1 0x3 DUP10 ADD SSTORE MLOAD PUSH1 0x4 DUP9 ADD SSTORE MLOAD PUSH1 0x5 DUP8 ADD SSTORE MLOAD PUSH1 0x6 DUP7 ADD SSTORE MLOAD PUSH1 0x7 DUP6 ADD SSTORE MLOAD PUSH1 0x8 DUP5 ADD SSTORE MLOAD PUSH1 0x9 DUP4 ADD SSTORE PUSH1 0xA DUP3 ADD SWAP1 MLOAD SWAP1 DUP2 MLOAD DUP1 MLOAD SWAP1 PUSH1 0x1 PUSH1 0x1 PUSH1 0x40 SHL SUB DUP3 GT PUSH2 0x35E JUMPI DUP2 SWAP1 PUSH2 0x4DAC DUP5 SLOAD PUSH2 0x3980 JUMP JUMPDEST PUSH1 0x1F DUP2 GT PUSH2 0x52B9 JUMPI JUMPDEST POP DUP10 SWAP1 PUSH1 0x1F DUP4 GT PUSH1 0x1 EQ PUSH2 0x5256 JUMPI PUSH0 SWAP3 PUSH2 0x524B JUMPI JUMPDEST POP POP DUP2 PUSH1 0x1 SHL SWAP2 PUSH0 NOT SWAP1 PUSH1 0x3 SHL SHR NOT AND OR SWAP1 SSTORE JUMPDEST PUSH1 0xB DUP3 ADD DUP7 DUP3 ADD MLOAD DUP1 MLOAD SWAP1 PUSH1 0x1 PUSH1 0x1 PUSH1 0x40 SHL SUB DUP3 GT PUSH2 0x35E JUMPI DUP2 SWAP1 PUSH2 0x4E03 DUP5 SLOAD PUSH2 0x3980 JUMP JUMPDEST PUSH1 0x1F DUP2 GT PUSH2 0x51FD JUMPI JUMPDEST POP DUP10 SWAP1 PUSH1 0x1F DUP4 GT PUSH1 0x1 EQ PUSH2 0x519A JUMPI PUSH0 SWAP3 PUSH2 0x518F JUMPI JUMPDEST POP POP DUP2 PUSH1 0x1 SHL SWAP2 PUSH0 NOT SWAP1 PUSH1 0x3 SHL SHR NOT AND OR SWAP1 SSTORE JUMPDEST PUSH1 0x40 ADD MLOAD PUSH1 0xC DUP3 ADD DUP1 SLOAD PUSH1 0x1 PUSH1 0x1 PUSH1 0xA0 SHL SUB NOT AND PUSH1 0x1 PUSH1 0x1 PUSH1 0xA0 SHL SUB SWAP3 SWAP1 SWAP3 AND SWAP2 SWAP1 SWAP2 OR SWAP1 SSTORE SWAP3 MLOAD DUP1 MLOAD DUP1 MLOAD SWAP2 SWAP5 SWAP2 PUSH1 0xD DUP4 ADD SWAP2 PUSH1 0x1 PUSH1 0x1 PUSH1 0x40 SHL SUB DUP3 GT PUSH2 0x35E JUMPI DUP2 SWAP1 PUSH2 0x4E83 DUP5 SLOAD PUSH2 0x3980 JUMP JUMPDEST PUSH1 0x1F DUP2 GT PUSH2 0x5141 JUMPI JUMPDEST POP DUP9 SWAP1 PUSH1 0x1F DUP4 GT PUSH1 0x1 EQ PUSH2 0x50DE JUMPI PUSH0 SWAP3 PUSH2 0x50D3 JUMPI JUMPDEST POP POP DUP2 PUSH1 0x1 SHL SWAP2 PUSH0 NOT SWAP1 PUSH1 0x3 SHL SHR NOT AND OR SWAP1 SSTORE JUMPDEST PUSH1 0xE DUP2 ADD SWAP4 DUP6 DUP2 ADD MLOAD SWAP5 DUP6 MLOAD SWAP6 PUSH1 0x1 PUSH1 0x1 PUSH1 0x40 SHL SUB DUP8 GT PUSH2 0x35E JUMPI PUSH2 0x4EDA DUP3 SLOAD PUSH2 0x3980 JUMP JUMPDEST PUSH1 0x1F DUP2 GT PUSH2 0x5090 JUMPI JUMPDEST POP DUP8 SWAP1 PUSH1 0x1F DUP9 GT PUSH1 0x1 EQ PUSH2 0x5029 JUMPI SWAP7 DUP1 SWAP2 PUSH1 0x10 SWAP7 SWAP8 SWAP9 PUSH0 SWAP3 PUSH2 0x501E JUMPI JUMPDEST POP POP DUP2 PUSH1 0x1 SHL SWAP2 PUSH0 NOT SWAP1 PUSH1 0x3 SHL SHR NOT AND OR SWAP1 SSTORE JUMPDEST PUSH1 0x40 ADD MLOAD PUSH1 0xF DUP3 ADD DUP1 SLOAD PUSH1 0x1 PUSH1 0x1 PUSH1 0xA0 SHL SUB NOT AND PUSH1 0x1 PUSH1 0x1 PUSH1 0xA0 SHL SUB SWAP3 SWAP1 SWAP3 AND SWAP2 SWAP1 SWAP2 OR SWAP1 SSTORE SWAP2 MLOAD DUP1 MLOAD SWAP1 SWAP5 SWAP2 SWAP1 SWAP3 ADD SWAP2 SWAP1 PUSH1 0x1 PUSH1 0x1 PUSH1 0x40 SHL SUB DUP3 GT PUSH2 0x35E JUMPI PUSH2 0x4F5E DUP4 SLOAD PUSH2 0x3980 JUMP JUMPDEST PUSH1 0x1F DUP2 GT PUSH2 0x4FDB JUMPI JUMPDEST POP DUP1 PUSH1 0x1F DUP4 GT PUSH1 0x1 EQ PUSH2 0x4F94 JUMPI POP DUP2 SWAP3 SWAP4 SWAP5 PUSH0 SWAP3 PUSH2 0x44E0 JUMPI POP POP DUP2 PUSH1 0x1 SHL SWAP2 PUSH0 NOT SWAP1 PUSH1 0x3 SHL SHR NOT AND OR SWAP1 SSTORE JUMP JUMPDEST SWAP1 PUSH1 0x1F NOT DUP4 AND SWAP6 DUP5 PUSH0 MSTORE DUP3 PUSH0 KECCAK256 SWAP3 PUSH0 SWAP1 JUMPDEST DUP9 DUP3 LT PUSH2 0x4FC3 JUMPI POP POP DUP4 PUSH1 0x1 SWAP6 SWAP7 SWAP8 LT PUSH2 0x4519 JUMPI POP POP POP DUP2 SHL ADD SWAP1 SSTORE JUMP JUMPDEST DUP1 PUSH1 0x1 DUP6 SWAP7 DUP3 SWAP5 SWAP7 DUP7 ADD MLOAD DUP2 SSTORE ADD SWAP6 ADD SWAP4 ADD SWAP1 PUSH2 0x4FA5 JUMP JUMPDEST DUP4 PUSH0 MSTORE DUP2 PUSH0 KECCAK256 PUSH1 0x1F DUP5 ADD PUSH1 0x5 SHR DUP2 ADD SWAP2 DUP4 DUP6 LT PUSH2 0x5014 JUMPI JUMPDEST PUSH1 0x1F ADD PUSH1 0x5 SHR ADD SWAP1 JUMPDEST DUP2 DUP2 LT PUSH2 0x5009 JUMPI POP PUSH2 0x4F67 JUMP JUMPDEST PUSH0 DUP2 SSTORE PUSH1 0x1 ADD PUSH2 0x4FFC JUMP JUMPDEST SWAP1 SWAP2 POP DUP2 SWAP1 PUSH2 0x4FF3 JUMP JUMPDEST ADD MLOAD SWAP1 POP PUSH0 DUP1 PUSH2 0x4F00 JUMP JUMPDEST SWAP1 PUSH1 0x1F NOT DUP9 AND SWAP2 DUP4 PUSH0 MSTORE DUP10 PUSH0 KECCAK256 SWAP3 PUSH0 JUMPDEST DUP12 DUP3 DUP3 LT PUSH2 0x507A JUMPI POP POP SWAP2 PUSH1 0x1 SWAP4 SWAP2 DUP11 PUSH1 0x10 SWAP10 SWAP11 SWAP12 SWAP5 LT PUSH2 0x5062 JUMPI JUMPDEST POP POP POP DUP2 SHL ADD SWAP1 SSTORE PUSH2 0x4F14 JUMP JUMPDEST ADD MLOAD PUSH0 NOT PUSH1 0xF8 DUP5 PUSH1 0x3 SHL AND SHR NOT AND SWAP1 SSTORE PUSH0 DUP1 DUP1 PUSH2 0x5055 JUMP JUMPDEST PUSH1 0x1 DUP6 SWAP7 DUP3 SWAP4 SWAP7 DUP7 ADD MLOAD DUP2 SSTORE ADD SWAP6 ADD SWAP4 ADD PUSH2 0x5039 JUMP JUMPDEST DUP3 PUSH0 MSTORE DUP9 PUSH0 KECCAK256 PUSH1 0x1F DUP10 ADD PUSH1 0x5 SHR DUP2 ADD SWAP2 DUP11 DUP11 LT PUSH2 0x50C9 JUMPI JUMPDEST PUSH1 0x1F ADD PUSH1 0x5 SHR ADD SWAP1 JUMPDEST DUP2 DUP2 LT PUSH2 0x50BE JUMPI POP PUSH2 0x4EE3 JUMP JUMPDEST PUSH0 DUP2 SSTORE PUSH1 0x1 ADD PUSH2 0x50B1 JUMP JUMPDEST SWAP1 SWAP2 POP DUP2 SWAP1 PUSH2 0x50A8 JUMP JUMPDEST ADD MLOAD SWAP1 POP PUSH0 DUP1 PUSH2 0x4EA1 JUMP JUMPDEST PUSH0 DUP6 DUP2 MSTORE DUP11 DUP2 KECCAK256 SWAP4 POP PUSH1 0x1F NOT DUP6 AND SWAP1 JUMPDEST DUP12 DUP3 DUP3 LT PUSH2 0x512B JUMPI POP POP SWAP1 DUP5 PUSH1 0x1 SWAP6 SWAP5 SWAP4 SWAP3 LT PUSH2 0x5113 JUMPI JUMPDEST POP POP POP DUP2 SHL ADD SWAP1 SSTORE PUSH2 0x4EB5 JUMP JUMPDEST ADD MLOAD PUSH0 NOT PUSH1 0xF8 DUP5 PUSH1 0x3 SHL AND SHR NOT AND SWAP1 SSTORE PUSH0 DUP1 DUP1 PUSH2 0x5106 JUMP JUMPDEST PUSH1 0x1 DUP6 SWAP7 DUP3 SWAP4 SWAP7 DUP7 ADD MLOAD DUP2 SSTORE ADD SWAP6 ADD SWAP4 ADD PUSH2 0x50EE JUMP JUMPDEST SWAP1 SWAP2 POP DUP4 PUSH0 MSTORE DUP9 PUSH0 KECCAK256 PUSH1 0x1F DUP5 ADD PUSH1 0x5 SHR DUP2 ADD SWAP2 DUP11 DUP6 LT PUSH2 0x5185 JUMPI JUMPDEST SWAP1 PUSH1 0x1F DUP6 SWAP5 SWAP4 SWAP3 ADD PUSH1 0x5 SHR ADD SWAP1 JUMPDEST DUP2 DUP2 LT PUSH2 0x5177 JUMPI POP PUSH2 0x4E8C JUMP JUMPDEST PUSH0 DUP2 SSTORE DUP5 SWAP4 POP PUSH1 0x1 ADD PUSH2 0x516A JUMP JUMPDEST SWAP1 SWAP2 POP DUP2 SWAP1 PUSH2 0x515C JUMP JUMPDEST ADD MLOAD SWAP1 POP PUSH0 DUP1 PUSH2 0x4E21 JUMP JUMPDEST PUSH0 DUP6 DUP2 MSTORE DUP12 DUP2 KECCAK256 SWAP4 POP PUSH1 0x1F NOT DUP6 AND SWAP1 JUMPDEST DUP13 DUP3 DUP3 LT PUSH2 0x51E7 JUMPI POP POP SWAP1 DUP5 PUSH1 0x1 SWAP6 SWAP5 SWAP4 SWAP3 LT PUSH2 0x51CF JUMPI JUMPDEST POP POP POP DUP2 SHL ADD SWAP1 SSTORE PUSH2 0x4E35 JUMP JUMPDEST ADD MLOAD PUSH0 NOT PUSH1 0xF8 DUP5 PUSH1 0x3 SHL AND SHR NOT AND SWAP1 SSTORE PUSH0 DUP1 DUP1 PUSH2 0x51C2 JUMP JUMPDEST PUSH1 0x1 DUP6 SWAP7 DUP3 SWAP4 SWAP7 DUP7 ADD MLOAD DUP2 SSTORE ADD SWAP6 ADD SWAP4 ADD PUSH2 0x51AA JUMP JUMPDEST SWAP1 SWAP2 POP DUP4 PUSH0 MSTORE DUP10 PUSH0 KECCAK256 PUSH1 0x1F DUP5 ADD PUSH1 0x5 SHR DUP2 ADD SWAP2 DUP12 DUP6 LT PUSH2 0x5241 JUMPI JUMPDEST SWAP1 PUSH1 0x1F DUP6 SWAP5 SWAP4 SWAP3 ADD PUSH1 0x5 SHR ADD SWAP1 JUMPDEST DUP2 DUP2 LT PUSH2 0x5233 JUMPI POP PUSH2 0x4E0C JUMP JUMPDEST PUSH0 DUP2 SSTORE DUP5 SWAP4 POP PUSH1 0x1 ADD PUSH2 0x5226 JUMP JUMPDEST SWAP1 SWAP2 POP DUP2 SWAP1 PUSH2 0x5218 JUMP JUMPDEST ADD MLOAD SWAP1 POP PUSH0 DUP1 PUSH2 0x4DCA JUMP JUMPDEST PUSH0 DUP6 DUP2 MSTORE DUP12 DUP2 KECCAK256 SWAP4 POP PUSH1 0x1F NOT DUP6 AND SWAP1 JUMPDEST DUP13 DUP3 DUP3 LT PUSH2 0x52A3 JUMPI POP POP SWAP1 DUP5 PUSH1 0x1 SWAP6 SWAP5 SWAP4 SWAP3 LT PUSH2 0x528B JUMPI JUMPDEST POP POP POP DUP2 SHL ADD SWAP1 SSTORE PUSH2 0x4DDE JUMP JUMPDEST ADD MLOAD PUSH0 NOT PUSH1 0xF8 DUP5 PUSH1 0x3 SHL AND SHR NOT AND SWAP1 SSTORE PUSH0 DUP1 DUP1 PUSH2 0x527E JUMP JUMPDEST PUSH1 0x1 DUP6 SWAP7 DUP3 SWAP4 SWAP7 DUP7 ADD MLOAD DUP2 SSTORE ADD SWAP6 ADD SWAP4 ADD PUSH2 0x5266 JUMP JUMPDEST SWAP1 SWAP2 POP DUP4 PUSH0 MSTORE DUP10 PUSH0 KECCAK256 PUSH1 0x1F DUP5 ADD PUSH1 0x5 SHR DUP2 ADD SWAP2 DUP12 DUP6 LT PUSH2 0x52FD JUMPI JUMPDEST SWAP1 PUSH1 0x1F DUP6 SWAP5 SWAP4 SWAP3 ADD PUSH1 0x5 SHR ADD SWAP1 JUMPDEST DUP2 DUP2 LT PUSH2 0x52EF JUMPI POP PUSH2 0x4DB5 JUMP JUMPDEST PUSH0 DUP2 SSTORE DUP5 SWAP4 POP PUSH1 0x1 ADD PUSH2 0x52E2 JUMP JUMPDEST SWAP1 SWAP2 POP DUP2 SWAP1 PUSH2 0x52D4 JUMP INVALID LOG2 PUSH5 0x6970667358 0x22 SLT KECCAK256 REVERT SWAP15 0xB7 PUSH20 0x5308CBFF74F9D9DDC85462942E0D70320550235B 0xFB 0xD9 0xC2 LOG0 SWAP7 0xEA GASLIMIT KECCAK256 PUSH5 0x736F6C6343 STOP ADDMOD SHL STOP CALLER "},"methodIdentifiers":{"allCpotbData(uint256)":"f02f5f23","approveCpotb(string,string,string,string,address,string)":"b9e49080","approveExtendCpotb(string,string)":"b0730436","certDetailById(string)":"34a34f30","cpotbDataById(string)":"6aa81299","createCertificateDetails((string,string,address),(string,string,address),string)":"fb5fb9a3","createUserCertificate(string,string,address)":"2e9cf827","dokuAdminById(string)":"7ab09648","dokuReSertifikasiById(string)":"5691acf7","dokuTeknisById(string)":"500619d0","extendCpotb(string,uint256,(string,string,string,string,string,string))":"4ad8f1a4","getAllCpotb()":"5850607c","getAllCpotbByInstance(string)":"81fc60a5","getCertDetail(string)":"9aaa5d8b","getCertDetails(string)":"be2e2325","getCpotbDetails(string)":"70c056b0","getRejectMsg(string)":"6d1aa7d5","getRejectsMsg(string)":"761fb19a","getSenderDetail(string)":"17e68309","rejectCpotb(string,string,string,string,address)":"e462dde5","rejectExtendCpotb(string,string)":"3bb6ff3f","rejectMsgById(string)":"bf3f80ac","rejectMsgExtendById(string)":"26c6d4c5","renewExtendCpotb(string)":"35d8c341","renewRequestCpotb(string,(string,string,string),(string,string))":"e8002b27","requestCpotb(string,string,string,address,uint8,string,(string,string,string),(string,string))":"64b409ff","updateBpomApproveDetails(string,string,(string,string,address))":"f5104ff1","updateBpomApproveExtendCertificateDetails(string,string)":"d26196fd","updateBpomExtendCertificateDetails(string,string)":"f53ef126","updateBpomRejectDetails(string,string,(string,string,address))":"e9c260d7","updateBpomRejectExtendCertificateDetails(string,string)":"ceee1067","updateExtendRenewDetails(string,uint256)":"9740dbed","updateRenewDetails(string)":"19859c87","updateRenewExtendCertificateDetails(string)":"3a947f1a"}}}}}