{"contracts/NieManager.sol":{"NieManager":{"abi":[{"inputs":[{"internalType":"address","name":"roleManagerAddr","type":"address"}],"stateMutability":"nonpayable","type":"constructor"},{"anonymous":false,"inputs":[{"indexed":false,"internalType":"string","name":"bpomInstance","type":"string"},{"indexed":false,"internalType":"address","name":"bpomAddr","type":"address"},{"indexed":false,"internalType":"string","name":"nieNumber","type":"string"},{"indexed":false,"internalType":"uint256","name":"tiemstamp","type":"uint256"}],"name":"NieApproved","type":"event"},{"anonymous":false,"inputs":[{"indexed":false,"internalType":"address","name":"factoryAddr","type":"address"},{"indexed":false,"internalType":"uint256","name":"timestamp","type":"uint256"}],"name":"NieApprovedExtendRequest","type":"event"},{"anonymous":false,"inputs":[{"indexed":false,"internalType":"address","name":"factoryAddr","type":"address"},{"indexed":false,"internalType":"uint256","name":"timestamp","type":"uint256"}],"name":"NieExtendRequest","type":"event"},{"anonymous":false,"inputs":[{"indexed":false,"internalType":"address","name":"bpomAddr","type":"address"},{"indexed":false,"internalType":"string","name":"rejectMsg","type":"string"},{"indexed":false,"internalType":"uint256","name":"tiemstamp","type":"uint256"}],"name":"NieRejectExtend","type":"event"},{"anonymous":false,"inputs":[{"indexed":false,"internalType":"string","name":"bpomInstance","type":"string"},{"indexed":false,"internalType":"address","name":"bpomAddr","type":"address"},{"indexed":false,"internalType":"string","name":"rejectMsg","type":"string"},{"indexed":false,"internalType":"uint256","name":"tiemstamp","type":"uint256"}],"name":"NieRejected","type":"event"},{"anonymous":false,"inputs":[{"indexed":false,"internalType":"address","name":"factoryAddr","type":"address"},{"indexed":false,"internalType":"uint256","name":"timestamp","type":"uint256"}],"name":"NieRenewExtend","type":"event"},{"anonymous":false,"inputs":[{"indexed":false,"internalType":"string","name":"factoryInstance","type":"string"},{"indexed":false,"internalType":"address","name":"factoryAddr","type":"address"},{"indexed":false,"internalType":"uint256","name":"timestamp","type":"uint256"}],"name":"NieRenewRequest","type":"event"},{"anonymous":false,"inputs":[{"indexed":false,"internalType":"string","name":"factoryInstance","type":"string"},{"indexed":false,"internalType":"address","name":"factoryAddr","type":"address"},{"indexed":false,"internalType":"uint256","name":"timestamp","type":"uint256"}],"name":"NieRequested","type":"event"},{"inputs":[{"internalType":"string","name":"obatId","type":"string"},{"internalType":"string","name":"ipfsNie","type":"string"}],"name":"approveExtendRequest","outputs":[],"stateMutability":"nonpayable","type":"function"},{"inputs":[{"internalType":"string","name":"obatId","type":"string"},{"internalType":"string","name":"nieNumber","type":"string"},{"internalType":"string","name":"bpomInstance","type":"string"},{"internalType":"string","name":"ipfsNie","type":"string"}],"name":"approveNie","outputs":[],"stateMutability":"nonpayable","type":"function"},{"inputs":[{"internalType":"string","name":"obatId","type":"string"},{"internalType":"string","name":"factoryInstance","type":"string"}],"name":"createObatNie","outputs":[],"stateMutability":"nonpayable","type":"function"},{"inputs":[{"internalType":"string","name":"","type":"string"}],"name":"dokuObatById","outputs":[{"internalType":"string","name":"masterFormula","type":"string"},{"internalType":"string","name":"suratKuasa","type":"string"},{"internalType":"string","name":"suratPernyataan","type":"string"},{"internalType":"string","name":"komposisiProduk","type":"string"},{"internalType":"string","name":"caraPembuatanProduk","type":"string"},{"internalType":"string","name":"spesifikasiKemasan","type":"string"},{"internalType":"string","name":"hasilUjiStabilitas","type":"string"}],"stateMutability":"view","type":"function"},{"inputs":[{"internalType":"string","name":"","type":"string"}],"name":"dokuPendukungById","outputs":[{"internalType":"string","name":"sertifikatAnalisaBahanBaku","type":"string"},{"internalType":"string","name":"sertifikatAnalisaProdukJadi","type":"string"},{"internalType":"string","name":"spesifikasiProdukJadi","type":"string"},{"internalType":"string","name":"sistemPenomoranBets","type":"string"},{"internalType":"string","name":"desainKemasan","type":"string"},{"internalType":"string","name":"dataPendukungKeamanan","type":"string"}],"stateMutability":"view","type":"function"},{"inputs":[{"internalType":"string","name":"obatId","type":"string"},{"internalType":"string","name":"rejectMsgExtend","type":"string"}],"name":"extendRejectNie","outputs":[],"stateMutability":"nonpayable","type":"function"},{"inputs":[{"internalType":"string","name":"obatId","type":"string"},{"internalType":"uint256","name":"expiredTimestamp","type":"uint256"}],"name":"extendRequestNie","outputs":[],"stateMutability":"nonpayable","type":"function"},{"inputs":[{"internalType":"string","name":"obatId","type":"string"}],"name":"getNieDetail","outputs":[{"components":[{"internalType":"string","name":"nieNumber","type":"string"},{"internalType":"enum EnumsLibrary.NieStatus","name":"nieStatus","type":"uint8"},{"internalType":"uint256","name":"timestampProduction","type":"uint256"},{"internalType":"uint256","name":"timestampNieRequest","type":"uint256"},{"internalType":"uint256","name":"timestampNieApprove","type":"uint256"},{"internalType":"uint256","name":"timestampNieRejected","type":"uint256"},{"internalType":"uint256","name":"timestampNieRenewRequest","type":"uint256"},{"internalType":"uint256","name":"timestampNieExpired","type":"uint256"},{"internalType":"uint256","name":"timestampNieExtendRequest","type":"uint256"},{"internalType":"uint256","name":"timestampNieExtendApprove","type":"uint256"},{"internalType":"uint256","name":"timestampNieExtendReject","type":"uint256"},{"internalType":"uint256","name":"timestampNieExtendRenew","type":"uint256"},{"internalType":"string","name":"factoryInstance","type":"string"},{"internalType":"string","name":"bpomInstance","type":"string"},{"internalType":"address","name":"bpomAddr","type":"address"},{"internalType":"string","name":"nieIpfs","type":"string"}],"internalType":"struct NieManager.NieDetail","name":"","type":"tuple"},{"components":[{"internalType":"string","name":"masterFormula","type":"string"},{"internalType":"string","name":"suratKuasa","type":"string"},{"internalType":"string","name":"suratPernyataan","type":"string"},{"internalType":"string","name":"komposisiProduk","type":"string"},{"internalType":"string","name":"caraPembuatanProduk","type":"string"},{"internalType":"string","name":"spesifikasiKemasan","type":"string"},{"internalType":"string","name":"hasilUjiStabilitas","type":"string"}],"internalType":"struct NieManager.DokumenObat","name":"","type":"tuple"},{"components":[{"internalType":"string","name":"sertifikatAnalisaBahanBaku","type":"string"},{"internalType":"string","name":"sertifikatAnalisaProdukJadi","type":"string"},{"internalType":"string","name":"spesifikasiProdukJadi","type":"string"},{"internalType":"string","name":"sistemPenomoranBets","type":"string"},{"internalType":"string","name":"desainKemasan","type":"string"},{"internalType":"string","name":"dataPendukungKeamanan","type":"string"}],"internalType":"struct NieManager.DokumenPendukung","name":"","type":"tuple"}],"stateMutability":"view","type":"function"},{"inputs":[{"internalType":"string","name":"obatId","type":"string"}],"name":"getNieNumberAndStatus","outputs":[{"internalType":"string","name":"","type":"string"},{"internalType":"uint8","name":"","type":"uint8"},{"internalType":"uint256","name":"","type":"uint256"}],"stateMutability":"view","type":"function"},{"inputs":[{"internalType":"string","name":"obatId","type":"string"}],"name":"getRejectMsgNie","outputs":[{"internalType":"string","name":"","type":"string"}],"stateMutability":"view","type":"function"},{"inputs":[{"internalType":"string","name":"","type":"string"}],"name":"nieDetailById","outputs":[{"internalType":"string","name":"nieNumber","type":"string"},{"internalType":"enum EnumsLibrary.NieStatus","name":"nieStatus","type":"uint8"},{"internalType":"uint256","name":"timestampProduction","type":"uint256"},{"internalType":"uint256","name":"timestampNieRequest","type":"uint256"},{"internalType":"uint256","name":"timestampNieApprove","type":"uint256"},{"internalType":"uint256","name":"timestampNieRejected","type":"uint256"},{"internalType":"uint256","name":"timestampNieRenewRequest","type":"uint256"},{"internalType":"uint256","name":"timestampNieExpired","type":"uint256"},{"internalType":"uint256","name":"timestampNieExtendRequest","type":"uint256"},{"internalType":"uint256","name":"timestampNieExtendApprove","type":"uint256"},{"internalType":"uint256","name":"timestampNieExtendReject","type":"uint256"},{"internalType":"uint256","name":"timestampNieExtendRenew","type":"uint256"},{"internalType":"string","name":"factoryInstance","type":"string"},{"internalType":"string","name":"bpomInstance","type":"string"},{"internalType":"address","name":"bpomAddr","type":"address"},{"internalType":"string","name":"nieIpfs","type":"string"}],"stateMutability":"view","type":"function"},{"inputs":[{"internalType":"string","name":"","type":"string"}],"name":"rejectMsgById","outputs":[{"internalType":"string","name":"","type":"string"}],"stateMutability":"view","type":"function"},{"inputs":[{"internalType":"string","name":"","type":"string"}],"name":"rejectMsgExtendById","outputs":[{"internalType":"string","name":"","type":"string"}],"stateMutability":"view","type":"function"},{"inputs":[{"internalType":"string","name":"obatId","type":"string"},{"internalType":"string","name":"bpomInstance","type":"string"},{"internalType":"string","name":"rejectMsg","type":"string"}],"name":"rejectNie","outputs":[],"stateMutability":"nonpayable","type":"function"},{"inputs":[{"internalType":"string","name":"obatId","type":"string"}],"name":"renewRejectNie","outputs":[],"stateMutability":"nonpayable","type":"function"},{"inputs":[{"internalType":"string","name":"obatId","type":"string"},{"components":[{"internalType":"string","name":"masterFormula","type":"string"},{"internalType":"string","name":"suratKuasa","type":"string"},{"internalType":"string","name":"suratPernyataan","type":"string"},{"internalType":"string","name":"komposisiProduk","type":"string"},{"internalType":"string","name":"caraPembuatanProduk","type":"string"},{"internalType":"string","name":"spesifikasiKemasan","type":"string"},{"internalType":"string","name":"hasilUjiStabilitas","type":"string"}],"internalType":"struct NieManager.DokumenObat","name":"dokuObat","type":"tuple"},{"components":[{"internalType":"string","name":"sertifikatAnalisaBahanBaku","type":"string"},{"internalType":"string","name":"sertifikatAnalisaProdukJadi","type":"string"},{"internalType":"string","name":"spesifikasiProdukJadi","type":"string"},{"internalType":"string","name":"sistemPenomoranBets","type":"string"},{"internalType":"string","name":"desainKemasan","type":"string"},{"internalType":"string","name":"dataPendukungKeamanan","type":"string"}],"internalType":"struct NieManager.DokumenPendukung","name":"dokuPendukung","type":"tuple"}],"name":"renewRequestNie","outputs":[],"stateMutability":"nonpayable","type":"function"},{"inputs":[{"internalType":"string","name":"obatId","type":"string"},{"components":[{"internalType":"string","name":"masterFormula","type":"string"},{"internalType":"string","name":"suratKuasa","type":"string"},{"internalType":"string","name":"suratPernyataan","type":"string"},{"internalType":"string","name":"komposisiProduk","type":"string"},{"internalType":"string","name":"caraPembuatanProduk","type":"string"},{"internalType":"string","name":"spesifikasiKemasan","type":"string"},{"internalType":"string","name":"hasilUjiStabilitas","type":"string"}],"internalType":"struct NieManager.DokumenObat","name":"dokuObat","type":"tuple"},{"components":[{"internalType":"string","name":"sertifikatAnalisaBahanBaku","type":"string"},{"internalType":"string","name":"sertifikatAnalisaProdukJadi","type":"string"},{"internalType":"string","name":"spesifikasiProdukJadi","type":"string"},{"internalType":"string","name":"sistemPenomoranBets","type":"string"},{"internalType":"string","name":"desainKemasan","type":"string"},{"internalType":"string","name":"dataPendukungKeamanan","type":"string"}],"internalType":"struct NieManager.DokumenPendukung","name":"dokuPendukung","type":"tuple"}],"name":"requestNie","outputs":[],"stateMutability":"nonpayable","type":"function"},{"inputs":[],"name":"roleManager","outputs":[{"internalType":"contract RoleManager","name":"","type":"address"}],"stateMutability":"view","type":"function"}],"evm":{"bytecode":{"linkReferences":{},"object":"60a0346100a457601f61436538819003918201601f19168301916001600160401b038311848410176100a8578084926020946040528339810103126100a457516001600160a01b038116908190036100a4576080526040516142a890816100bd82396080518181816102b501528181611114015281816112c401528181611b25015281816123e40152818161284c01528181612cee01528181612de90152613bce0152f35b5f80fd5b634e487b7160e01b5f52604160045260245ffdfe60a0806040526004361015610012575f80fd5b5f3560e01c908162435da514613bbc57508063108cbe6114612daf5780631e79b85a14612c945780632594d59714612b7857806326c6d4c514612b22578063283ef6f0146127b1578063396a6b441461232a57806343d1b83914611df257806359914db414611cf25780636e945e4814611aeb57806374a5abcf14611a2e578063ac007c1a146114c7578063b650a1201461128c578063bdedf0b81461121e578063bf3f80ac1461121e578063d944ff79146110bb578063e509070a1461027b5763f71ce722146100e1575f80fd5b34610277576020366003190112610277576004356001600160401b03811161027757610111903690600401613c70565b604051818192516020819201835e81015f815203602001902061013381613f78565b81600181015460ff1660028201549060038301546004840154600585015460068601546007870154600888015491600989015493600a8a015495600b8b015497600c8c0161018090613f78565b9a61018d600d8e01613f78565b600e909d01546001600160a01b03169e6101a990600f01613f78565b9d6040516080526080516102009052608051610200016101c891614018565b9a6080516020016101d89161403c565b60805160400152608051606001526080516080015260805160a0015260805160c0015260805160e0015260805161010001526080516101200152608051610140015260805161016001526080518103608051610180015261023891614018565b60805181036080516101a0015261024e91614018565b916080516101c0015260805182036080516101e001526080519161027191614018565b03608051f35b5f80fd5b346102775761028936613cc5565b6040516395a8c58d60e01b81523360048201525f60248201529092906020816044816001600160a01b037f0000000000000000000000000000000000000000000000000000000000000000165afa80156110b0576102ee915f91611081575b506140ae565b604051916001825193602081818601968088835e81015f81520301902001600160ff19825416179055604051600383518086845e8201915f8352602081429403019020015560405160208184518087835e8101600381520301902081518051906001600160401b038211610951576103668354613f40565b601f8111611051575b50602090601f8311600114610fee5761039f92915f91836109fe575b50508160011b915f199060031b1c19161790565b81555b6001810160208301518051906001600160401b038211610951576103c68354613f40565b601f8111610fbe575b50602090601f8311600114610f5b576103fe92915f9183610d975750508160011b915f199060031b1c19161790565b90555b6002810160408301518051906001600160401b038211610951576104258354613f40565b601f8111610f2b575b50602090601f8311600114610ec85761045d92915f9183610d975750508160011b915f199060031b1c19161790565b90555b6003810160608301518051906001600160401b038211610951576104848354613f40565b601f8111610e98575b50602090601f8311600114610e35576104bc92915f9183610d975750508160011b915f199060031b1c19161790565b90555b6004810160808301518051906001600160401b038211610951576104e38354613f40565b601f8111610e05575b50602090601f8311600114610da25761051b92915f9183610d975750508160011b915f199060031b1c19161790565b90555b6005810160a08301518051906001600160401b038211610951576105428354613f40565b601f8111610d67575b50602090601f8311600114610cfe578260c0959360069593610581935f92610cf35750508160011b915f199060031b1c19161790565b90555b019101518051906001600160401b038211610951576105a38354613f40565b601f8111610cc3575b50602090601f8311600114610c60576105db92915f9183610bc25750508160011b915f199060031b1c19161790565b90555b60405160208183518086835e8101600481520301902083518051906001600160401b038211610951576106118354613f40565b601f8111610c30575b50602090601f8311600114610bcd5761064992915f9183610bc25750508160011b915f199060031b1c19161790565b81555b6001810160208501518051906001600160401b038211610951576106708354613f40565b601f8111610b92575b50602090601f8311600114610b2f576106a892915f91836109fe5750508160011b915f199060031b1c19161790565b90555b6002810160408501518051906001600160401b038211610951576106cf8354613f40565b601f8111610aff575b50602090601f8311600114610a9c5761070792915f91836109fe5750508160011b915f199060031b1c19161790565b90555b6003810160608501518051906001600160401b0382116109515761072e8354613f40565b601f8111610a6c575b50602090601f8311600114610a095761076692915f91836109fe5750508160011b915f199060031b1c19161790565b90555b6004810160808501518051906001600160401b0382116109515761078d8354613f40565b601f81116109ce575b50602090601f8311600114610965578260a09593600595936107cc935f9261087e5750508160011b915f199060031b1c19161790565b90555b019301519283516001600160401b038111610951576107ee8254613f40565b601f8111610916575b506020601f82116001146108895792610879949261085183602094600c977f351ab5a48b432d9a1035e20940d903771dcfec712ffe00601bad0ea1f4260f889a5f9261087e5750508160011b915f199060031b1c19161790565b90555b604051928391518091835e81015f81520301902001604051918291429033908461414d565b0390a1005b015190508a8061038b565b601f19821695835f52815f20965f5b8181106108fe5750837f351ab5a48b432d9a1035e20940d903771dcfec712ffe00601bad0ea1f4260f8898600c9794610879999794602097600195106108e6575b505050811b019055610854565b01515f1960f88460031b161c191690558980806108d9565b83830151895560019098019760209384019301610898565b61094190835f5260205f20601f840160051c81019160208510610947575b601f0160051c01906140e9565b856107f7565b9091508190610934565b634e487b7160e01b5f52604160045260245ffd5b90601f19831691845f52815f20925f5b8181106109b6575092600192859260a09896600598961061099e575b505050811b0190556107cf565b01515f1960f88460031b161c19169055898080610991565b92936020600181928786015181550195019301610975565b6109f890845f5260205f20601f850160051c8101916020861061094757601f0160051c01906140e9565b87610796565b01519050888061038b565b90601f19831691845f52815f20925f5b818110610a545750908460019594939210610a3c575b505050811b019055610769565b01515f1960f88460031b161c19169055878080610a2f565b92936020600181928786015181550195019301610a19565b610a9690845f5260205f20601f850160051c8101916020861061094757601f0160051c01906140e9565b87610737565b90601f19831691845f52815f20925f5b818110610ae75750908460019594939210610acf575b505050811b01905561070a565b01515f1960f88460031b161c19169055878080610ac2565b92936020600181928786015181550195019301610aac565b610b2990845f5260205f20601f850160051c8101916020861061094757601f0160051c01906140e9565b876106d8565b90601f19831691845f52815f20925f5b818110610b7a5750908460019594939210610b62575b505050811b0190556106ab565b01515f1960f88460031b161c19169055878080610b55565b92936020600181928786015181550195019301610b3f565b610bbc90845f5260205f20601f850160051c8101916020861061094757601f0160051c01906140e9565b87610679565b01519050878061038b565b90601f19831691845f52815f20925f5b818110610c185750908460019594939210610c00575b505050811b01815561064c565b01515f1960f88460031b161c19169055868080610bf3565b92936020600181928786015181550195019301610bdd565b610c5a90845f5260205f20601f850160051c8101916020861061094757601f0160051c01906140e9565b8661061a565b90601f19831691845f52815f20925f5b818110610cab5750908460019594939210610c93575b505050811b0190556105de565b01515f1960f88460031b161c19169055868080610c86565b92936020600181928786015181550195019301610c70565b610ced90845f5260205f20601f850160051c8101916020861061094757601f0160051c01906140e9565b866105ac565b015190508b8061038b565b90601f19831691845f52815f20925f5b818110610d4f575092600192859260c098966006989610610d37575b505050811b019055610584565b01515f1960f88460031b161c191690558a8080610d2a565b92936020600181928786015181550195019301610d0e565b610d9190845f5260205f20601f850160051c8101916020861061094757601f0160051c01906140e9565b8861054b565b01519050898061038b565b90601f19831691845f52815f20925f5b818110610ded5750908460019594939210610dd5575b505050811b01905561051e565b01515f1960f88460031b161c19169055888080610dc8565b92936020600181928786015181550195019301610db2565b610e2f90845f5260205f20601f850160051c8101916020861061094757601f0160051c01906140e9565b886104ec565b90601f19831691845f52815f20925f5b818110610e805750908460019594939210610e68575b505050811b0190556104bf565b01515f1960f88460031b161c19169055888080610e5b565b92936020600181928786015181550195019301610e45565b610ec290845f5260205f20601f850160051c8101916020861061094757601f0160051c01906140e9565b8861048d565b90601f19831691845f52815f20925f5b818110610f135750908460019594939210610efb575b505050811b019055610460565b01515f1960f88460031b161c19169055888080610eee565b92936020600181928786015181550195019301610ed8565b610f5590845f5260205f20601f850160051c8101916020861061094757601f0160051c01906140e9565b8861042e565b90601f19831691845f52815f20925f5b818110610fa65750908460019594939210610f8e575b505050811b019055610401565b01515f1960f88460031b161c19169055888080610f81565b92936020600181928786015181550195019301610f6b565b610fe890845f5260205f20601f850160051c8101916020861061094757601f0160051c01906140e9565b886103cf565b90601f19831691845f52815f20925f5b8181106110395750908460019594939210611021575b505050811b0181556103a2565b01515f1960f88460031b161c19169055878080611014565b92936020600181928786015181550195019301610ffe565b61107b90845f5260205f20601f850160051c8101916020861061094757601f0160051c01906140e9565b8761036f565b6110a3915060203d6020116110a9575b61109b8183613c4f565b810190614096565b856102e8565b503d611091565b6040513d5f823e3d90fd5b34610277576040366003190112610277576004356001600160401b038111610277576110eb903690600401613c70565b6040516395a8c58d60e01b81523360048201525f60248201526020816044816001600160a01b037f0000000000000000000000000000000000000000000000000000000000000000165afa80156110b05761114c915f916111ff57506140ae565b6024354211156111c65760208091604051928184925191829101835e5f9082019081520301902060018101805460ff191660061790554260089091018190556040805133815260208101929092527fdbf29df2841fbfef4e4228e54b2eafd2edb98c45ecd633e3d142902104cde351919081908101610879565b60405162461bcd60e51b81526020600482015260116024820152704e4945206d61736968206265726c616b7560781b6044820152606490fd5b611218915060203d6020116110a95761109b8183613c4f565b836102e8565b34610277576020366003190112610277576004356001600160401b03811161027757611274602080611257611288943690600401613c70565b604051928184925191829101835e81016001815203019020613f78565b604051918291602083526020830190614018565b0390f35b346102775761129a36614049565b6040516395a8c58d60e01b8152336004820152600260248201526020816044816001600160a01b037f0000000000000000000000000000000000000000000000000000000000000000165afa80156110b0576112fd915f916114a8575b506141fc565b60405160208351918181818701948086835e81015f81520301902093604051928391518091835e81016002815203019020918151926001600160401b0384116109515761134a8154613f40565b601f8111611478575b50602093601f81116001146113f157906113a9826113db9594937f1fd8d4ed3df5e0c085cdb1f77c2352a9a35ee3ecdbe66c8e491253d828552be7975f916113e6575b508160011b915f199060031b1c19161790565b90555b60018101600860ff19825416179055600a42910155604051918291338352606060208401526060830190614018565b4260408301520390a1005b905085015188611396565b601f19811694825f52805f20955f5b8181106114605750917f1fd8d4ed3df5e0c085cdb1f77c2352a9a35ee3ecdbe66c8e491253d828552be796600192826113db9897969510611448575b5050811b0190556113ac565b8601515f1960f88460031b161c19169055878061143c565b86830151885560019097019660209283019201611400565b6114a290825f5260205f20601f870160051c8101916020881061094757601f0160051c01906140e9565b84611353565b6114c1915060203d6020116110a95761109b8183613c4f565b846112f7565b34610277576114d536614049565b604051906114e282613bfd565b6020809381926040516114f58482613c4f565b5f815285525f838601524260408601525f60608601525f60808601525f60a08601525f60c08601525f60e08601525f6101008601525f6101208601525f6101408601525f6101608601526101808501526040516115528382613c4f565b5f81526101a08501525f6101c085015260405161156f8382613c4f565b5f81526101e0850152604051928184925191829101835e81015f8152030190209080519182516001600160401b038111610951576115ad8254613f40565b601f8111611a00575b5084601f821160011461199d5781906115e59394955f926119925750508160011b915f199060031b1c19161790565b81555b6001810183830151600a81101561197e5760ff8019835416911617905560408201516002820155606082015160038201556080820151600482015560a0820151600582015560c0820151600682015560e0820151600782015561010082015160088201556101208201516009820155610140820151600a820155610160820151600b820155600c81016101808301518051906001600160401b038211610951576116928354613f40565b601f8111611950575b508590601f83116001146118ed576116c992915f9183610bc25750508160011b915f199060031b1c19161790565b90555b600d81016101a08301518051906001600160401b038211610951576116f18354613f40565b601f81116118bf575b508590601f831160011461185557826101e09593600f9593611730935f92610d975750508160011b915f199060031b1c19161790565b90555b6101c0840151600e820180546001600160a01b0319166001600160a01b039290921691909117905591909201518051909392909101916001600160401b038211610951576117818354613f40565b601f8111611827575b5080601f83116001146117c8575081906117b993945f926117bd5750508160011b915f199060031b1c19161790565b9055005b01519050848061038b565b90601f19831694845f52825f20925f905b87821061180f5750508360019596106117f7575b505050811b019055005b01515f1960f88460031b161c191690558380806117ed565b806001859682949686015181550195019301906117d9565b61184f90845f52825f20601f850160051c81019184861061094757601f0160051c01906140e9565b8461178a565b90601f19831691845f52875f20925f5b898282106118a95750509260019285926101e09896600f989610611891575b505050811b019055611733565b01515f1960f88460031b161c19169055888080611884565b6001859682939686015181550195019301611865565b6118e790845f52875f20601f850160051c81019189861061094757601f0160051c01906140e9565b866116fa565b90601f19831691845f52875f20925f5b8982821061193a575050908460019594939210611922575b505050811b0190556116cc565b01515f1960f88460031b161c19169055868080611915565b60018596829396860151815501950193016118fd565b61197890845f52875f20601f850160051c81019189861061094757601f0160051c01906140e9565b8661169b565b634e487b7160e01b5f52602160045260245ffd5b01519050868061038b565b825f52855f20905f5b87601f19851682106119ea575050600193949583601f198116106119d2575b505050811b0181556115e8565b01515f1960f88460031b161c191690558580806119c5565b600183948293948a0151815501930191016119a6565b611a2890835f52865f20601f840160051c81019188851061094757601f0160051c01906140e9565b856115b6565b34610277576020366003190112610277576004356001600160401b03811161027757611a5e903690600401613c70565b604051815190602081818501938085835e81015f8152030190209060ff600160405160208187518087835e81015f81520301902001541690600a82101561197e576007611ac7916020611adc96604051928391518091835e81015f815203019020015492613f78565b91604051938493606085526060850190614018565b91602084015260408301520390f35b3461027757611af936614049565b6040516395a8c58d60e01b81523360048201526002602482015290916020826044816001600160a01b037f0000000000000000000000000000000000000000000000000000000000000000165afa9081156110b057611b636020939284935f91611cd557506141fc565b604051928184925191829101835e81015f81520301902060018101600760ff198254161790554260098201556082420190814211611cc157600f9160078201550181516001600160401b03811161095157611bbe8254613f40565b601f8111611c91575b50602092601f8211600114611c3257611bf7929382915f926117bd5750508160011b915f199060031b1c19161790565b90555b604080513381524260208201527fdc1549b9d8f53bf4f107afce167ff871f6f9b8b72089d73274686ecb22b036389181908101610879565b601f19821693835f52805f20915f5b868110611c795750836001959610611c61575b505050811b019055611bfa565b01515f1960f88460031b161c19169055838080611c54565b91926020600181928685015181550194019201611c41565b611cbb90835f5260205f20601f840160051c8101916020851061094757601f0160051c01906140e9565b83611bc7565b634e487b7160e01b5f52601160045260245ffd5b611cec9150843d86116110a95761109b8183613c4f565b866112f7565b34610277576020366003190112610277576004356001600160401b03811161027757602080611d28611dac933690600401613c70565b604051928184925191829101835e81016004815203019020611288611d4c82613f78565b91611de4611d5c60018301613f78565b91611dd6611d6c60028301613f78565b611dc8611d7b60038501613f78565b91611dba611d976005611d9060048901613f78565b9701613f78565b976040519b8c9b60c08d5260c08d0190614018565b908b820360208d0152614018565b9089820360408b0152614018565b908782036060890152614018565b908582036080870152614018565b9083820360a0850152614018565b34610277576020366003190112610277576004356001600160401b03811161027757611e22903690600401613c70565b60606101e0604051611e3381613bfd565b8281525f60208201525f60408201525f838201525f60808201525f60a08201525f60c08201525f60e08201525f6101008201525f6101208201525f6101408201525f61016082015282610180820152826101a08201525f6101c08201520152606060c0604051611ea281613c19565b82815282602082015282604082015282808201528260808201528260a08201520152606060a0604051611ed481613c34565b82815282602082015282604082015282808201528260808201520152604051815190602081818501938085835e81015f815203019020906020604051818186518086835e8101600381520301902093604051928391518091835e810160048152030190209060405191611f4683613bfd565b611f4f82613f78565b835260ff600183015416600a81101561197e576122119461201e600f611288956122a8946020890152600281015460408901526003810154606089015260048101546080890152600581015460a0890152600681015460c0890152600781015460e089015260088101546101008901526009810154610120890152600a810154610140890152600b810154610160890152611fec600c8201613f78565b610180890152611ffe600d8201613f78565b6101a0890152600e8101546001600160a01b03166101c089015201613f78565b6101e086015261209c60066040519261203684613c19565b61203f81613f78565b845261204d60018201613f78565b602085015261205e60028201613f78565b604085015261206f60038201613f78565b606085015261208060048201613f78565b608085015261209160058201613f78565b60a085015201613f78565b60c08201526121086005604051946120b386613c34565b6120bc81613f78565b86526120ca60018201613f78565b60208701526120db60028201613f78565b60408701526120ec60038201613f78565b60608701526120fd60048201613f78565b608087015201613f78565b60a0840152604051958695606087526101e06121e76121cf612138845161020060608d01526102608c0190614018565b61214a602086015160808d019061403c565b604085015160a08c0152606085015160c08c0152608085015160e08c015260a08501516101008c015260c08501516101208c015260e08501516101408c01526101008501516101608c01526101208501516101808c01526101408501516101a08c01526101608501516101c08c0152610180850151605f198c830301858d0152614018565b6101a08401518a8203605f19016102008c0152614018565b6101c08301516001600160a01b03166102208a0152910151878203605f1901610240890152614018565b858103602087015260c061229761228561227361226161224f61223d885160e0895260e0890190614018565b602089015188820360208a0152614018565b60408801518782036040890152614018565b60608701518682036060880152614018565b60808601518582036080870152614018565b60a085015184820360a0860152614018565b9201519060c0818403910152614018565b838103604085015260a06123196123076122f56122e36122d1875160c0885260c0880190614018565b60208801518782036020890152614018565b60408701518682036040880152614018565b60608601518582036060870152614018565b60808501518482036080860152614018565b9201519060a0818403910152614018565b34610277576080366003190112610277576004356001600160401b0381116102775761235a903690600401613c70565b6024356001600160401b03811161027757612379903690600401613c70565b6044356001600160401b03811161027757612398903690600401613c70565b906064356001600160401b038111610277576123b8903690600401613c70565b6040516395a8c58d60e01b81523360048201526002602482015290936020826044816001600160a01b037f0000000000000000000000000000000000000000000000000000000000000000165afa9081156110b0576124226020939284935f9161279457506141fc565b604051928184925191829101835e81015f81520301902081516001600160401b038111610951576124538254613f40565b601f8111612764575b506020601f8211600114612704579080612489925f916126f957508160011b915f199060031b1c19161790565b81555b60018101600260ff19825416179055426004820155600d810183516001600160401b038111610951576124bf8254613f40565b601f81116126c9575b506020601f82116001146126695790806124f5925f9161265e57508160011b915f199060031b1c19161790565b90555b600e810180546001600160a01b03191633179055426082810191908210611cc157600f9160078201550183516001600160401b0381116109515761253c8254613f40565b601f811161262e575b506020601f82116001146125ab579080612595927f98f6eda79ce4c4856715a86ecdf2cb7ece1a5de8adf3de249b2ce9017b0e5810975f92610bc25750508160011b915f199060031b1c19161790565b90555b6108796040519283924291339085614234565b601f19821695835f52815f20965f5b8181106126165750917f98f6eda79ce4c4856715a86ecdf2cb7ece1a5de8adf3de249b2ce9017b0e581097918460019594106125fe575b505050811b019055612598565b01515f1960f88460031b161c191690558680806125f1565b838301518955600190980197602093840193016125ba565b61265890835f5260205f20601f840160051c8101916020851061094757601f0160051c01906140e9565b85612545565b905086015188611396565b601f19821690835f52805f20915f5b8181106126b157509083600194939210612699575b5050811b0190556124f8565b8701515f1960f88460031b161c19169055878061268d565b9192602060018192868c015181550194019201612678565b6126f390835f5260205f20601f840160051c8101916020851061094757601f0160051c01906140e9565b866124c8565b905084015187611396565b601f19821690835f52805f20915f5b81811061274c57509083600194939210612734575b5050811b01815561248c565b8501515f1960f88460031b161c191690558680612728565b9192602060018192868a015181550194019201612713565b61278e90835f5260205f20601f840160051c8101916020851061094757601f0160051c01906140e9565b8561245c565b6127ab9150843d86116110a95761109b8183613c4f565b886112f7565b34610277576060366003190112610277576004356001600160401b038111610277576127e1903690600401613c70565b6024356001600160401b03811161027757612800903690600401613c70565b6044356001600160401b0381116102775761281f903690600401613c70565b6040516395a8c58d60e01b8152336004820152600260248201529091906020816044816001600160a01b037f0000000000000000000000000000000000000000000000000000000000000000165afa80156110b057612884915f91612b0357506141fc565b604051835190602081818701938085835e81015f8152030190209360018501600360ff19825416179055600d8501948351956001600160401b038711610951576128ce8154613f40565b601f8111612ad3575b50602096601f8111600114612a6f578061290a916020969798995f91612a6457508160011b915f199060031b1c19161790565b90555b600e810180546001600160a01b0319163317905542600590910155604051905190928391908190835e81016001815203019020918051926001600160401b0384116109515761295c8154613f40565b601f8111612a34575b50602093601f81116001146129b45780612595917f81b3714f32e3dd3d8faa1a5f7732e52e015be62219a6eae68d1a779f682db80b965f916126f957508160011b915f199060031b1c19161790565b601f198116825f52855f20905f5b818110612a1c5750907f81b3714f32e3dd3d8faa1a5f7732e52e015be62219a6eae68d1a779f682db80b96836001949310612a04575b5050811b019055612598565b8501515f1960f88460031b161c1916905586806129f8565b858801518355602097880197600190930192016129c2565b612a5e90825f5260205f20601f870160051c8101916020881061094757601f0160051c01906140e9565b84612965565b90508801518a611396565b601f198116825f52885f20905f5b818110612abb575090602096979899836001949310612aa3575b5050811b01905561290d565b8901515f1960f88460031b161c191690558980612a97565b888b0151835560209a8b019a60019093019201612a7d565b612afd90825f5260205f20601f8a0160051c81019160208b1061094757601f0160051c01906140e9565b876128d7565b612b1c915060203d6020116110a95761109b8183613c4f565b856112f7565b34610277576020366003190112610277576004356001600160401b03811161027757611274602080612b5b611288943690600401613c70565b604051928184925191829101835e81016002815203019020613f78565b34610277576020366003190112610277576004356001600160401b038111610277576020612bab81923690600401613c70565b604051928184925191829101835e8101600381520301902060e0611288612bd183613f78565b92612c86612be160018301613f78565b91612c78612bf160028301613f78565b612c6a612c0060038501613f78565b612c5c612c0f60048701613f78565b93612c4e612c2b6006612c2460058b01613f78565b9901613f78565b99612c406040519e8f9e8f8181520190614018565b8d810360208f015290614018565b908b820360408d0152614018565b9089820360608b0152614018565b908782036080890152614018565b9085820360a0870152614018565b9083820360c0850152614018565b34610277576020366003190112610277576004356001600160401b03811161027757612cc4903690600401613c70565b6040516395a8c58d60e01b81523360048201525f6024820152906020826044816001600160a01b037f0000000000000000000000000000000000000000000000000000000000000000165afa9081156110b057612d2c6020939284935f91612d9857506140ae565b604051928184925191829101835e5f9082019081520301902060018101805460ff1916600917905542600a9091018190556040805133815260208101929092527f6623d3be3fd8e6ec82aa51cc5a014832de51d50025180c14d48276c8f011853b919081908101610879565b6110a39150843d86116110a95761109b8183613c4f565b3461027757612dbd36613cc5565b6040516395a8c58d60e01b81523360048201525f60248201529092906020816044816001600160a01b037f0000000000000000000000000000000000000000000000000000000000000000165afa80156110b057612e21915f9161108157506140ae565b60405191815192602081818501958087835e81015f81520301902060018101600460ff19825416179055600642910155612eb7600660405160208186518089835e81016003815203019020612e75816140ff565b612e81600182016140ff565b612e8d600282016140ff565b612e99600382016140ff565b612ea5600482016140ff565b612eb1600582016140ff565b016140ff565b612f0b600560405160208186518089835e81016004815203019020612edb816140ff565b612ee7600182016140ff565b612ef3600282016140ff565b612eff600382016140ff565b612eb1600482016140ff565b60405160208184518087835e8101600381520301902081518051906001600160401b03821161095157612f3e8354613f40565b601f8111613b8c575b50602090601f8311600114613b2957612f7692915f91836109fe5750508160011b915f199060031b1c19161790565b81555b6001810160208301518051906001600160401b03821161095157612f9d8354613f40565b601f8111613af9575b50602090601f8311600114613a9657612fd592915f9183610d975750508160011b915f199060031b1c19161790565b90555b6002810160408301518051906001600160401b03821161095157612ffc8354613f40565b601f8111613a66575b50602090601f8311600114613a035761303492915f9183610d975750508160011b915f199060031b1c19161790565b90555b6003810160608301518051906001600160401b0382116109515761305b8354613f40565b601f81116139d3575b50602090601f83116001146139705761309392915f9183610d975750508160011b915f199060031b1c19161790565b90555b6004810160808301518051906001600160401b038211610951576130ba8354613f40565b601f8111613940575b50602090601f83116001146138dd576130f292915f9183610d975750508160011b915f199060031b1c19161790565b90555b6005810160a08301518051906001600160401b038211610951576131198354613f40565b601f81116138ad575b50602090601f8311600114613844578260c0959360069593613158935f92610cf35750508160011b915f199060031b1c19161790565b90555b019101518051906001600160401b0382116109515761317a8354613f40565b601f8111613814575b50602090601f83116001146137b1576131b292915f9183610bc25750508160011b915f199060031b1c19161790565b90555b60405160208183518086835e8101600481520301902083518051906001600160401b038211610951576131e88354613f40565b601f8111613781575b50602090601f831160011461371e5761322092915f9183610bc25750508160011b915f199060031b1c19161790565b81555b6001810160208501518051906001600160401b038211610951576132478354613f40565b601f81116136ee575b50602090601f831160011461368b5761327f92915f91836109fe5750508160011b915f199060031b1c19161790565b90555b6002810160408501518051906001600160401b038211610951576132a68354613f40565b601f811161365b575b50602090601f83116001146135f8576132de92915f91836109fe5750508160011b915f199060031b1c19161790565b90555b6003810160608501518051906001600160401b038211610951576133058354613f40565b601f81116135c8575b50602090601f83116001146135655761333d92915f91836109fe5750508160011b915f199060031b1c19161790565b90555b6004810160808501518051906001600160401b038211610951576133648354613f40565b601f8111613535575b50602090601f83116001146134cc578260a09593600595936133a3935f9261087e5750508160011b915f199060031b1c19161790565b90555b019301519283516001600160401b038111610951576133c58254613f40565b601f811161349c575b506020601f82116001146134285792610879949261085183602094600c977fbe8dfefda19edb2ea695885130355727f7788a97d4b87a6612a78ee860ea23ab9a5f9261087e5750508160011b915f199060031b1c19161790565b601f19821695835f52815f20965f5b8181106134845750837fbe8dfefda19edb2ea695885130355727f7788a97d4b87a6612a78ee860ea23ab98600c9794610879999794602097600195106108e657505050811b019055610854565b83830151895560019098019760209384019301613437565b6134c690835f5260205f20601f840160051c8101916020851061094757601f0160051c01906140e9565b856133ce565b90601f19831691845f52815f20925f5b81811061351d575092600192859260a098966005989610613505575b505050811b0190556133a6565b01515f1960f88460031b161c191690558980806134f8565b929360206001819287860151815501950193016134dc565b61355f90845f5260205f20601f850160051c8101916020861061094757601f0160051c01906140e9565b8761336d565b90601f19831691845f52815f20925f5b8181106135b05750908460019594939210613598575b505050811b019055613340565b01515f1960f88460031b161c1916905587808061358b565b92936020600181928786015181550195019301613575565b6135f290845f5260205f20601f850160051c8101916020861061094757601f0160051c01906140e9565b8761330e565b90601f19831691845f52815f20925f5b818110613643575090846001959493921061362b575b505050811b0190556132e1565b01515f1960f88460031b161c1916905587808061361e565b92936020600181928786015181550195019301613608565b61368590845f5260205f20601f850160051c8101916020861061094757601f0160051c01906140e9565b876132af565b90601f19831691845f52815f20925f5b8181106136d657509084600195949392106136be575b505050811b019055613282565b01515f1960f88460031b161c191690558780806136b1565b9293602060018192878601518155019501930161369b565b61371890845f5260205f20601f850160051c8101916020861061094757601f0160051c01906140e9565b87613250565b90601f19831691845f52815f20925f5b8181106137695750908460019594939210613751575b505050811b018155613223565b01515f1960f88460031b161c19169055868080613744565b9293602060018192878601518155019501930161372e565b6137ab90845f5260205f20601f850160051c8101916020861061094757601f0160051c01906140e9565b866131f1565b90601f19831691845f52815f20925f5b8181106137fc57509084600195949392106137e4575b505050811b0190556131b5565b01515f1960f88460031b161c191690558680806137d7565b929360206001819287860151815501950193016137c1565b61383e90845f5260205f20601f850160051c8101916020861061094757601f0160051c01906140e9565b86613183565b90601f19831691845f52815f20925f5b818110613895575092600192859260c09896600698961061387d575b505050811b01905561315b565b01515f1960f88460031b161c191690558a8080613870565b92936020600181928786015181550195019301613854565b6138d790845f5260205f20601f850160051c8101916020861061094757601f0160051c01906140e9565b88613122565b90601f19831691845f52815f20925f5b8181106139285750908460019594939210613910575b505050811b0190556130f5565b01515f1960f88460031b161c19169055888080613903565b929360206001819287860151815501950193016138ed565b61396a90845f5260205f20601f850160051c8101916020861061094757601f0160051c01906140e9565b886130c3565b90601f19831691845f52815f20925f5b8181106139bb57509084600195949392106139a3575b505050811b019055613096565b01515f1960f88460031b161c19169055888080613996565b92936020600181928786015181550195019301613980565b6139fd90845f5260205f20601f850160051c8101916020861061094757601f0160051c01906140e9565b88613064565b90601f19831691845f52815f20925f5b818110613a4e5750908460019594939210613a36575b505050811b019055613037565b01515f1960f88460031b161c19169055888080613a29565b92936020600181928786015181550195019301613a13565b613a9090845f5260205f20601f850160051c8101916020861061094757601f0160051c01906140e9565b88613005565b90601f19831691845f52815f20925f5b818110613ae15750908460019594939210613ac9575b505050811b019055612fd8565b01515f1960f88460031b161c19169055888080613abc565b92936020600181928786015181550195019301613aa6565b613b2390845f5260205f20601f850160051c8101916020861061094757601f0160051c01906140e9565b88612fa6565b90601f19831691845f52815f20925f5b818110613b745750908460019594939210613b5c575b505050811b018155612f79565b01515f1960f88460031b161c19169055878080613b4f565b92936020600181928786015181550195019301613b39565b613bb690845f5260205f20601f850160051c8101916020861061094757601f0160051c01906140e9565b87612f47565b34610277575f366003190112610277577f00000000000000000000000000000000000000000000000000000000000000006001600160a01b03168152602090f35b61020081019081106001600160401b0382111761095157604052565b60e081019081106001600160401b0382111761095157604052565b60c081019081106001600160401b0382111761095157604052565b90601f801991011681019081106001600160401b0382111761095157604052565b81601f82011215610277578035906001600160401b0382116109515760405192613ca4601f8401601f191660200185613c4f565b8284526020838301011161027757815f926020809301838601378301015290565b6060600319820112610277576004356001600160401b0381116102775781613cef91600401613c70565b916024356001600160401b0381116102775760e081840360031901126102775760405190613d1c82613c19565b80600401356001600160401b03811161027757846004613d3e92840101613c70565b825260248101356001600160401b03811161027757846004613d6292840101613c70565b602083015260448101356001600160401b03811161027757846004613d8992840101613c70565b604083015260648101356001600160401b03811161027757846004613db092840101613c70565b606083015260848101356001600160401b03811161027757846004613dd792840101613c70565b608083015260a48101356001600160401b03811161027757846004613dfe92840101613c70565b60a083015260c48101356001600160401b0381116102775760048591613e25930101613c70565b60c0820152916044356001600160401b0381116102775760c081830360031901126102775760405191613e5783613c34565b81600401356001600160401b03811161027757816004613e7992850101613c70565b835260248201356001600160401b03811161027757816004613e9d92850101613c70565b602084015260448201356001600160401b03811161027757816004613ec492850101613c70565b604084015260648201356001600160401b03811161027757816004613eeb92850101613c70565b606084015260848201356001600160401b03811161027757816004613f1292850101613c70565b608084015260a4820135916001600160401b03831161027757613f389201600401613c70565b60a082015290565b90600182811c92168015613f6e575b6020831014613f5a57565b634e487b7160e01b5f52602260045260245ffd5b91607f1691613f4f565b9060405191825f825492613f8b84613f40565b8084529360018116908115613ff65750600114613fb2575b50613fb092500383613c4f565b565b90505f9291925260205f20905f915b818310613fda575050906020613fb0928201015f613fa3565b6020919350806001915483858901015201910190918492613fc1565b905060209250613fb094915060ff191682840152151560051b8201015f613fa3565b805180835260209291819084018484015e5f828201840152601f01601f1916010190565b90600a82101561197e5752565b906040600319830112610277576004356001600160401b038111610277578261407491600401613c70565b91602435906001600160401b0382116102775761409391600401613c70565b90565b90816020910312610277575180151581036102775790565b156140b557565b60405162461bcd60e51b815260206004820152600c60248201526b4f6e6c7920466163746f727960a01b6044820152606490fd5b8181106140f4575050565b5f81556001016140e9565b6141098154613f40565b9081614113575050565b81601f5f9311600114614124575055565b8183526020832061414091601f0160051c8101906001016140e9565b8082528160208120915555565b9093929193606082525f9080549061416482613f40565b918260608601526001811690815f146141d85750600114614198575b50506001600160a01b03909416602082015260400152565b5f90815260208120939250905b8082106141bd5750909150810160800160405f614180565b919260018160209254608085880101520191019092916141a5565b90506040949350608092915060ff191682840152151560051b82010190915f614180565b1561420357565b60405162461bcd60e51b81526020600482015260096024820152684f6e6c792042504f4d60b81b6044820152606490fd5b9493929160609261425061426d93608089526080890190614018565b6001600160a01b0390921660208801528682036040880152614018565b93015256fea264697066735822122067239e6769883ca9c81cda93096153ff94117e31a89e2d259d709096fc421c8664736f6c634300081b0033","opcodes":"PUSH1 0xA0 CALLVALUE PUSH2 0xA4 JUMPI PUSH1 0x1F PUSH2 0x4365 CODESIZE DUP2 SWAP1 SUB SWAP2 DUP3 ADD PUSH1 0x1F NOT AND DUP4 ADD SWAP2 PUSH1 0x1 PUSH1 0x1 PUSH1 0x40 SHL SUB DUP4 GT DUP5 DUP5 LT OR PUSH2 0xA8 JUMPI DUP1 DUP5 SWAP3 PUSH1 0x20 SWAP5 PUSH1 0x40 MSTORE DUP4 CODECOPY DUP2 ADD SUB SLT PUSH2 0xA4 JUMPI MLOAD PUSH1 0x1 PUSH1 0x1 PUSH1 0xA0 SHL SUB DUP2 AND SWAP1 DUP2 SWAP1 SUB PUSH2 0xA4 JUMPI PUSH1 0x80 MSTORE PUSH1 0x40 MLOAD PUSH2 0x42A8 SWAP1 DUP2 PUSH2 0xBD DUP3 CODECOPY PUSH1 0x80 MLOAD DUP2 DUP2 DUP2 PUSH2 0x2B5 ADD MSTORE DUP2 DUP2 PUSH2 0x1114 ADD MSTORE DUP2 DUP2 PUSH2 0x12C4 ADD MSTORE DUP2 DUP2 PUSH2 0x1B25 ADD MSTORE DUP2 DUP2 PUSH2 0x23E4 ADD MSTORE DUP2 DUP2 PUSH2 0x284C ADD MSTORE DUP2 DUP2 PUSH2 0x2CEE ADD MSTORE DUP2 DUP2 PUSH2 0x2DE9 ADD MSTORE PUSH2 0x3BCE ADD MSTORE RETURN JUMPDEST PUSH0 DUP1 REVERT JUMPDEST PUSH4 0x4E487B71 PUSH1 0xE0 SHL PUSH0 MSTORE PUSH1 0x41 PUSH1 0x4 MSTORE PUSH1 0x24 PUSH0 REVERT INVALID PUSH1 0xA0 DUP1 PUSH1 0x40 MSTORE PUSH1 0x4 CALLDATASIZE LT ISZERO PUSH2 0x12 JUMPI PUSH0 DUP1 REVERT JUMPDEST PUSH0 CALLDATALOAD PUSH1 0xE0 SHR SWAP1 DUP2 PUSH3 0x435DA5 EQ PUSH2 0x3BBC JUMPI POP DUP1 PUSH4 0x108CBE61 EQ PUSH2 0x2DAF JUMPI DUP1 PUSH4 0x1E79B85A EQ PUSH2 0x2C94 JUMPI DUP1 PUSH4 0x2594D597 EQ PUSH2 0x2B78 JUMPI DUP1 PUSH4 0x26C6D4C5 EQ PUSH2 0x2B22 JUMPI DUP1 PUSH4 0x283EF6F0 EQ PUSH2 0x27B1 JUMPI DUP1 PUSH4 0x396A6B44 EQ PUSH2 0x232A JUMPI DUP1 PUSH4 0x43D1B839 EQ PUSH2 0x1DF2 JUMPI DUP1 PUSH4 0x59914DB4 EQ PUSH2 0x1CF2 JUMPI DUP1 PUSH4 0x6E945E48 EQ PUSH2 0x1AEB JUMPI DUP1 PUSH4 0x74A5ABCF EQ PUSH2 0x1A2E JUMPI DUP1 PUSH4 0xAC007C1A EQ PUSH2 0x14C7 JUMPI DUP1 PUSH4 0xB650A120 EQ PUSH2 0x128C JUMPI DUP1 PUSH4 0xBDEDF0B8 EQ PUSH2 0x121E JUMPI DUP1 PUSH4 0xBF3F80AC EQ PUSH2 0x121E JUMPI DUP1 PUSH4 0xD944FF79 EQ PUSH2 0x10BB JUMPI DUP1 PUSH4 0xE509070A EQ PUSH2 0x27B JUMPI PUSH4 0xF71CE722 EQ PUSH2 0xE1 JUMPI PUSH0 DUP1 REVERT JUMPDEST CALLVALUE PUSH2 0x277 JUMPI PUSH1 0x20 CALLDATASIZE PUSH1 0x3 NOT ADD SLT PUSH2 0x277 JUMPI PUSH1 0x4 CALLDATALOAD PUSH1 0x1 PUSH1 0x1 PUSH1 0x40 SHL SUB DUP2 GT PUSH2 0x277 JUMPI PUSH2 0x111 SWAP1 CALLDATASIZE SWAP1 PUSH1 0x4 ADD PUSH2 0x3C70 JUMP JUMPDEST PUSH1 0x40 MLOAD DUP2 DUP2 SWAP3 MLOAD PUSH1 0x20 DUP2 SWAP3 ADD DUP4 MCOPY DUP2 ADD PUSH0 DUP2 MSTORE SUB PUSH1 0x20 ADD SWAP1 KECCAK256 PUSH2 0x133 DUP2 PUSH2 0x3F78 JUMP JUMPDEST DUP2 PUSH1 0x1 DUP2 ADD SLOAD PUSH1 0xFF AND PUSH1 0x2 DUP3 ADD SLOAD SWAP1 PUSH1 0x3 DUP4 ADD SLOAD PUSH1 0x4 DUP5 ADD SLOAD PUSH1 0x5 DUP6 ADD SLOAD PUSH1 0x6 DUP7 ADD SLOAD PUSH1 0x7 DUP8 ADD SLOAD PUSH1 0x8 DUP9 ADD SLOAD SWAP2 PUSH1 0x9 DUP10 ADD SLOAD SWAP4 PUSH1 0xA DUP11 ADD SLOAD SWAP6 PUSH1 0xB DUP12 ADD SLOAD SWAP8 PUSH1 0xC DUP13 ADD PUSH2 0x180 SWAP1 PUSH2 0x3F78 JUMP JUMPDEST SWAP11 PUSH2 0x18D PUSH1 0xD DUP15 ADD PUSH2 0x3F78 JUMP JUMPDEST PUSH1 0xE SWAP1 SWAP14 ADD SLOAD PUSH1 0x1 PUSH1 0x1 PUSH1 0xA0 SHL SUB AND SWAP15 PUSH2 0x1A9 SWAP1 PUSH1 0xF ADD PUSH2 0x3F78 JUMP JUMPDEST SWAP14 PUSH1 0x40 MLOAD PUSH1 0x80 MSTORE PUSH1 0x80 MLOAD PUSH2 0x200 SWAP1 MSTORE PUSH1 0x80 MLOAD PUSH2 0x200 ADD PUSH2 0x1C8 SWAP2 PUSH2 0x4018 JUMP JUMPDEST SWAP11 PUSH1 0x80 MLOAD PUSH1 0x20 ADD PUSH2 0x1D8 SWAP2 PUSH2 0x403C JUMP JUMPDEST PUSH1 0x80 MLOAD PUSH1 0x40 ADD MSTORE PUSH1 0x80 MLOAD PUSH1 0x60 ADD MSTORE PUSH1 0x80 MLOAD PUSH1 0x80 ADD MSTORE PUSH1 0x80 MLOAD PUSH1 0xA0 ADD MSTORE PUSH1 0x80 MLOAD PUSH1 0xC0 ADD MSTORE PUSH1 0x80 MLOAD PUSH1 0xE0 ADD MSTORE PUSH1 0x80 MLOAD PUSH2 0x100 ADD MSTORE PUSH1 0x80 MLOAD PUSH2 0x120 ADD MSTORE PUSH1 0x80 MLOAD PUSH2 0x140 ADD MSTORE PUSH1 0x80 MLOAD PUSH2 0x160 ADD MSTORE PUSH1 0x80 MLOAD DUP2 SUB PUSH1 0x80 MLOAD PUSH2 0x180 ADD MSTORE PUSH2 0x238 SWAP2 PUSH2 0x4018 JUMP JUMPDEST PUSH1 0x80 MLOAD DUP2 SUB PUSH1 0x80 MLOAD PUSH2 0x1A0 ADD MSTORE PUSH2 0x24E SWAP2 PUSH2 0x4018 JUMP JUMPDEST SWAP2 PUSH1 0x80 MLOAD PUSH2 0x1C0 ADD MSTORE PUSH1 0x80 MLOAD DUP3 SUB PUSH1 0x80 MLOAD PUSH2 0x1E0 ADD MSTORE PUSH1 0x80 MLOAD SWAP2 PUSH2 0x271 SWAP2 PUSH2 0x4018 JUMP JUMPDEST SUB PUSH1 0x80 MLOAD RETURN JUMPDEST PUSH0 DUP1 REVERT JUMPDEST CALLVALUE PUSH2 0x277 JUMPI PUSH2 0x289 CALLDATASIZE PUSH2 0x3CC5 JUMP JUMPDEST PUSH1 0x40 MLOAD PUSH4 0x95A8C58D PUSH1 0xE0 SHL DUP2 MSTORE CALLER PUSH1 0x4 DUP3 ADD MSTORE PUSH0 PUSH1 0x24 DUP3 ADD MSTORE SWAP1 SWAP3 SWAP1 PUSH1 0x20 DUP2 PUSH1 0x44 DUP2 PUSH1 0x1 PUSH1 0x1 PUSH1 0xA0 SHL SUB PUSH32 0x0 AND GAS STATICCALL DUP1 ISZERO PUSH2 0x10B0 JUMPI PUSH2 0x2EE SWAP2 PUSH0 SWAP2 PUSH2 0x1081 JUMPI JUMPDEST POP PUSH2 0x40AE JUMP JUMPDEST PUSH1 0x40 MLOAD SWAP2 PUSH1 0x1 DUP3 MLOAD SWAP4 PUSH1 0x20 DUP2 DUP2 DUP7 ADD SWAP7 DUP1 DUP9 DUP4 MCOPY DUP2 ADD PUSH0 DUP2 MSTORE SUB ADD SWAP1 KECCAK256 ADD PUSH1 0x1 PUSH1 0xFF NOT DUP3 SLOAD AND OR SWAP1 SSTORE PUSH1 0x40 MLOAD PUSH1 0x3 DUP4 MLOAD DUP1 DUP7 DUP5 MCOPY DUP3 ADD SWAP2 PUSH0 DUP4 MSTORE PUSH1 0x20 DUP2 TIMESTAMP SWAP5 SUB ADD SWAP1 KECCAK256 ADD SSTORE PUSH1 0x40 MLOAD PUSH1 0x20 DUP2 DUP5 MLOAD DUP1 DUP8 DUP4 MCOPY DUP2 ADD PUSH1 0x3 DUP2 MSTORE SUB ADD SWAP1 KECCAK256 DUP2 MLOAD DUP1 MLOAD SWAP1 PUSH1 0x1 PUSH1 0x1 PUSH1 0x40 SHL SUB DUP3 GT PUSH2 0x951 JUMPI PUSH2 0x366 DUP4 SLOAD PUSH2 0x3F40 JUMP JUMPDEST PUSH1 0x1F DUP2 GT PUSH2 0x1051 JUMPI JUMPDEST POP PUSH1 0x20 SWAP1 PUSH1 0x1F DUP4 GT PUSH1 0x1 EQ PUSH2 0xFEE JUMPI PUSH2 0x39F SWAP3 SWAP2 PUSH0 SWAP2 DUP4 PUSH2 0x9FE JUMPI JUMPDEST POP POP DUP2 PUSH1 0x1 SHL SWAP2 PUSH0 NOT SWAP1 PUSH1 0x3 SHL SHR NOT AND OR SWAP1 JUMP JUMPDEST DUP2 SSTORE JUMPDEST PUSH1 0x1 DUP2 ADD PUSH1 0x20 DUP4 ADD MLOAD DUP1 MLOAD SWAP1 PUSH1 0x1 PUSH1 0x1 PUSH1 0x40 SHL SUB DUP3 GT PUSH2 0x951 JUMPI PUSH2 0x3C6 DUP4 SLOAD PUSH2 0x3F40 JUMP JUMPDEST PUSH1 0x1F DUP2 GT PUSH2 0xFBE JUMPI JUMPDEST POP PUSH1 0x20 SWAP1 PUSH1 0x1F DUP4 GT PUSH1 0x1 EQ PUSH2 0xF5B JUMPI PUSH2 0x3FE SWAP3 SWAP2 PUSH0 SWAP2 DUP4 PUSH2 0xD97 JUMPI POP POP DUP2 PUSH1 0x1 SHL SWAP2 PUSH0 NOT SWAP1 PUSH1 0x3 SHL SHR NOT AND OR SWAP1 JUMP JUMPDEST SWAP1 SSTORE JUMPDEST PUSH1 0x2 DUP2 ADD PUSH1 0x40 DUP4 ADD MLOAD DUP1 MLOAD SWAP1 PUSH1 0x1 PUSH1 0x1 PUSH1 0x40 SHL SUB DUP3 GT PUSH2 0x951 JUMPI PUSH2 0x425 DUP4 SLOAD PUSH2 0x3F40 JUMP JUMPDEST PUSH1 0x1F DUP2 GT PUSH2 0xF2B JUMPI JUMPDEST POP PUSH1 0x20 SWAP1 PUSH1 0x1F DUP4 GT PUSH1 0x1 EQ PUSH2 0xEC8 JUMPI PUSH2 0x45D SWAP3 SWAP2 PUSH0 SWAP2 DUP4 PUSH2 0xD97 JUMPI POP POP DUP2 PUSH1 0x1 SHL SWAP2 PUSH0 NOT SWAP1 PUSH1 0x3 SHL SHR NOT AND OR SWAP1 JUMP JUMPDEST SWAP1 SSTORE JUMPDEST PUSH1 0x3 DUP2 ADD PUSH1 0x60 DUP4 ADD MLOAD DUP1 MLOAD SWAP1 PUSH1 0x1 PUSH1 0x1 PUSH1 0x40 SHL SUB DUP3 GT PUSH2 0x951 JUMPI PUSH2 0x484 DUP4 SLOAD PUSH2 0x3F40 JUMP JUMPDEST PUSH1 0x1F DUP2 GT PUSH2 0xE98 JUMPI JUMPDEST POP PUSH1 0x20 SWAP1 PUSH1 0x1F DUP4 GT PUSH1 0x1 EQ PUSH2 0xE35 JUMPI PUSH2 0x4BC SWAP3 SWAP2 PUSH0 SWAP2 DUP4 PUSH2 0xD97 JUMPI POP POP DUP2 PUSH1 0x1 SHL SWAP2 PUSH0 NOT SWAP1 PUSH1 0x3 SHL SHR NOT AND OR SWAP1 JUMP JUMPDEST SWAP1 SSTORE JUMPDEST PUSH1 0x4 DUP2 ADD PUSH1 0x80 DUP4 ADD MLOAD DUP1 MLOAD SWAP1 PUSH1 0x1 PUSH1 0x1 PUSH1 0x40 SHL SUB DUP3 GT PUSH2 0x951 JUMPI PUSH2 0x4E3 DUP4 SLOAD PUSH2 0x3F40 JUMP JUMPDEST PUSH1 0x1F DUP2 GT PUSH2 0xE05 JUMPI JUMPDEST POP PUSH1 0x20 SWAP1 PUSH1 0x1F DUP4 GT PUSH1 0x1 EQ PUSH2 0xDA2 JUMPI PUSH2 0x51B SWAP3 SWAP2 PUSH0 SWAP2 DUP4 PUSH2 0xD97 JUMPI POP POP DUP2 PUSH1 0x1 SHL SWAP2 PUSH0 NOT SWAP1 PUSH1 0x3 SHL SHR NOT AND OR SWAP1 JUMP JUMPDEST SWAP1 SSTORE JUMPDEST PUSH1 0x5 DUP2 ADD PUSH1 0xA0 DUP4 ADD MLOAD DUP1 MLOAD SWAP1 PUSH1 0x1 PUSH1 0x1 PUSH1 0x40 SHL SUB DUP3 GT PUSH2 0x951 JUMPI PUSH2 0x542 DUP4 SLOAD PUSH2 0x3F40 JUMP JUMPDEST PUSH1 0x1F DUP2 GT PUSH2 0xD67 JUMPI JUMPDEST POP PUSH1 0x20 SWAP1 PUSH1 0x1F DUP4 GT PUSH1 0x1 EQ PUSH2 0xCFE JUMPI DUP3 PUSH1 0xC0 SWAP6 SWAP4 PUSH1 0x6 SWAP6 SWAP4 PUSH2 0x581 SWAP4 PUSH0 SWAP3 PUSH2 0xCF3 JUMPI POP POP DUP2 PUSH1 0x1 SHL SWAP2 PUSH0 NOT SWAP1 PUSH1 0x3 SHL SHR NOT AND OR SWAP1 JUMP JUMPDEST SWAP1 SSTORE JUMPDEST ADD SWAP2 ADD MLOAD DUP1 MLOAD SWAP1 PUSH1 0x1 PUSH1 0x1 PUSH1 0x40 SHL SUB DUP3 GT PUSH2 0x951 JUMPI PUSH2 0x5A3 DUP4 SLOAD PUSH2 0x3F40 JUMP JUMPDEST PUSH1 0x1F DUP2 GT PUSH2 0xCC3 JUMPI JUMPDEST POP PUSH1 0x20 SWAP1 PUSH1 0x1F DUP4 GT PUSH1 0x1 EQ PUSH2 0xC60 JUMPI PUSH2 0x5DB SWAP3 SWAP2 PUSH0 SWAP2 DUP4 PUSH2 0xBC2 JUMPI POP POP DUP2 PUSH1 0x1 SHL SWAP2 PUSH0 NOT SWAP1 PUSH1 0x3 SHL SHR NOT AND OR SWAP1 JUMP JUMPDEST SWAP1 SSTORE JUMPDEST PUSH1 0x40 MLOAD PUSH1 0x20 DUP2 DUP4 MLOAD DUP1 DUP7 DUP4 MCOPY DUP2 ADD PUSH1 0x4 DUP2 MSTORE SUB ADD SWAP1 KECCAK256 DUP4 MLOAD DUP1 MLOAD SWAP1 PUSH1 0x1 PUSH1 0x1 PUSH1 0x40 SHL SUB DUP3 GT PUSH2 0x951 JUMPI PUSH2 0x611 DUP4 SLOAD PUSH2 0x3F40 JUMP JUMPDEST PUSH1 0x1F DUP2 GT PUSH2 0xC30 JUMPI JUMPDEST POP PUSH1 0x20 SWAP1 PUSH1 0x1F DUP4 GT PUSH1 0x1 EQ PUSH2 0xBCD JUMPI PUSH2 0x649 SWAP3 SWAP2 PUSH0 SWAP2 DUP4 PUSH2 0xBC2 JUMPI POP POP DUP2 PUSH1 0x1 SHL SWAP2 PUSH0 NOT SWAP1 PUSH1 0x3 SHL SHR NOT AND OR SWAP1 JUMP JUMPDEST DUP2 SSTORE JUMPDEST PUSH1 0x1 DUP2 ADD PUSH1 0x20 DUP6 ADD MLOAD DUP1 MLOAD SWAP1 PUSH1 0x1 PUSH1 0x1 PUSH1 0x40 SHL SUB DUP3 GT PUSH2 0x951 JUMPI PUSH2 0x670 DUP4 SLOAD PUSH2 0x3F40 JUMP JUMPDEST PUSH1 0x1F DUP2 GT PUSH2 0xB92 JUMPI JUMPDEST POP PUSH1 0x20 SWAP1 PUSH1 0x1F DUP4 GT PUSH1 0x1 EQ PUSH2 0xB2F JUMPI PUSH2 0x6A8 SWAP3 SWAP2 PUSH0 SWAP2 DUP4 PUSH2 0x9FE JUMPI POP POP DUP2 PUSH1 0x1 SHL SWAP2 PUSH0 NOT SWAP1 PUSH1 0x3 SHL SHR NOT AND OR SWAP1 JUMP JUMPDEST SWAP1 SSTORE JUMPDEST PUSH1 0x2 DUP2 ADD PUSH1 0x40 DUP6 ADD MLOAD DUP1 MLOAD SWAP1 PUSH1 0x1 PUSH1 0x1 PUSH1 0x40 SHL SUB DUP3 GT PUSH2 0x951 JUMPI PUSH2 0x6CF DUP4 SLOAD PUSH2 0x3F40 JUMP JUMPDEST PUSH1 0x1F DUP2 GT PUSH2 0xAFF JUMPI JUMPDEST POP PUSH1 0x20 SWAP1 PUSH1 0x1F DUP4 GT PUSH1 0x1 EQ PUSH2 0xA9C JUMPI PUSH2 0x707 SWAP3 SWAP2 PUSH0 SWAP2 DUP4 PUSH2 0x9FE JUMPI POP POP DUP2 PUSH1 0x1 SHL SWAP2 PUSH0 NOT SWAP1 PUSH1 0x3 SHL SHR NOT AND OR SWAP1 JUMP JUMPDEST SWAP1 SSTORE JUMPDEST PUSH1 0x3 DUP2 ADD PUSH1 0x60 DUP6 ADD MLOAD DUP1 MLOAD SWAP1 PUSH1 0x1 PUSH1 0x1 PUSH1 0x40 SHL SUB DUP3 GT PUSH2 0x951 JUMPI PUSH2 0x72E DUP4 SLOAD PUSH2 0x3F40 JUMP JUMPDEST PUSH1 0x1F DUP2 GT PUSH2 0xA6C JUMPI JUMPDEST POP PUSH1 0x20 SWAP1 PUSH1 0x1F DUP4 GT PUSH1 0x1 EQ PUSH2 0xA09 JUMPI PUSH2 0x766 SWAP3 SWAP2 PUSH0 SWAP2 DUP4 PUSH2 0x9FE JUMPI POP POP DUP2 PUSH1 0x1 SHL SWAP2 PUSH0 NOT SWAP1 PUSH1 0x3 SHL SHR NOT AND OR SWAP1 JUMP JUMPDEST SWAP1 SSTORE JUMPDEST PUSH1 0x4 DUP2 ADD PUSH1 0x80 DUP6 ADD MLOAD DUP1 MLOAD SWAP1 PUSH1 0x1 PUSH1 0x1 PUSH1 0x40 SHL SUB DUP3 GT PUSH2 0x951 JUMPI PUSH2 0x78D DUP4 SLOAD PUSH2 0x3F40 JUMP JUMPDEST PUSH1 0x1F DUP2 GT PUSH2 0x9CE JUMPI JUMPDEST POP PUSH1 0x20 SWAP1 PUSH1 0x1F DUP4 GT PUSH1 0x1 EQ PUSH2 0x965 JUMPI DUP3 PUSH1 0xA0 SWAP6 SWAP4 PUSH1 0x5 SWAP6 SWAP4 PUSH2 0x7CC SWAP4 PUSH0 SWAP3 PUSH2 0x87E JUMPI POP POP DUP2 PUSH1 0x1 SHL SWAP2 PUSH0 NOT SWAP1 PUSH1 0x3 SHL SHR NOT AND OR SWAP1 JUMP JUMPDEST SWAP1 SSTORE JUMPDEST ADD SWAP4 ADD MLOAD SWAP3 DUP4 MLOAD PUSH1 0x1 PUSH1 0x1 PUSH1 0x40 SHL SUB DUP2 GT PUSH2 0x951 JUMPI PUSH2 0x7EE DUP3 SLOAD PUSH2 0x3F40 JUMP JUMPDEST PUSH1 0x1F DUP2 GT PUSH2 0x916 JUMPI JUMPDEST POP PUSH1 0x20 PUSH1 0x1F DUP3 GT PUSH1 0x1 EQ PUSH2 0x889 JUMPI SWAP3 PUSH2 0x879 SWAP5 SWAP3 PUSH2 0x851 DUP4 PUSH1 0x20 SWAP5 PUSH1 0xC SWAP8 PUSH32 0x351AB5A48B432D9A1035E20940D903771DCFEC712FFE00601BAD0EA1F4260F88 SWAP11 PUSH0 SWAP3 PUSH2 0x87E JUMPI POP POP DUP2 PUSH1 0x1 SHL SWAP2 PUSH0 NOT SWAP1 PUSH1 0x3 SHL SHR NOT AND OR SWAP1 JUMP JUMPDEST SWAP1 SSTORE JUMPDEST PUSH1 0x40 MLOAD SWAP3 DUP4 SWAP2 MLOAD DUP1 SWAP2 DUP4 MCOPY DUP2 ADD PUSH0 DUP2 MSTORE SUB ADD SWAP1 KECCAK256 ADD PUSH1 0x40 MLOAD SWAP2 DUP3 SWAP2 TIMESTAMP SWAP1 CALLER SWAP1 DUP5 PUSH2 0x414D JUMP JUMPDEST SUB SWAP1 LOG1 STOP JUMPDEST ADD MLOAD SWAP1 POP DUP11 DUP1 PUSH2 0x38B JUMP JUMPDEST PUSH1 0x1F NOT DUP3 AND SWAP6 DUP4 PUSH0 MSTORE DUP2 PUSH0 KECCAK256 SWAP7 PUSH0 JUMPDEST DUP2 DUP2 LT PUSH2 0x8FE JUMPI POP DUP4 PUSH32 0x351AB5A48B432D9A1035E20940D903771DCFEC712FFE00601BAD0EA1F4260F88 SWAP9 PUSH1 0xC SWAP8 SWAP5 PUSH2 0x879 SWAP10 SWAP8 SWAP5 PUSH1 0x20 SWAP8 PUSH1 0x1 SWAP6 LT PUSH2 0x8E6 JUMPI JUMPDEST POP POP POP DUP2 SHL ADD SWAP1 SSTORE PUSH2 0x854 JUMP JUMPDEST ADD MLOAD PUSH0 NOT PUSH1 0xF8 DUP5 PUSH1 0x3 SHL AND SHR NOT AND SWAP1 SSTORE DUP10 DUP1 DUP1 PUSH2 0x8D9 JUMP JUMPDEST DUP4 DUP4 ADD MLOAD DUP10 SSTORE PUSH1 0x1 SWAP1 SWAP9 ADD SWAP8 PUSH1 0x20 SWAP4 DUP5 ADD SWAP4 ADD PUSH2 0x898 JUMP JUMPDEST PUSH2 0x941 SWAP1 DUP4 PUSH0 MSTORE PUSH1 0x20 PUSH0 KECCAK256 PUSH1 0x1F DUP5 ADD PUSH1 0x5 SHR DUP2 ADD SWAP2 PUSH1 0x20 DUP6 LT PUSH2 0x947 JUMPI JUMPDEST PUSH1 0x1F ADD PUSH1 0x5 SHR ADD SWAP1 PUSH2 0x40E9 JUMP JUMPDEST DUP6 PUSH2 0x7F7 JUMP JUMPDEST SWAP1 SWAP2 POP DUP2 SWAP1 PUSH2 0x934 JUMP JUMPDEST PUSH4 0x4E487B71 PUSH1 0xE0 SHL PUSH0 MSTORE PUSH1 0x41 PUSH1 0x4 MSTORE PUSH1 0x24 PUSH0 REVERT JUMPDEST SWAP1 PUSH1 0x1F NOT DUP4 AND SWAP2 DUP5 PUSH0 MSTORE DUP2 PUSH0 KECCAK256 SWAP3 PUSH0 JUMPDEST DUP2 DUP2 LT PUSH2 0x9B6 JUMPI POP SWAP3 PUSH1 0x1 SWAP3 DUP6 SWAP3 PUSH1 0xA0 SWAP9 SWAP7 PUSH1 0x5 SWAP9 SWAP7 LT PUSH2 0x99E JUMPI JUMPDEST POP POP POP DUP2 SHL ADD SWAP1 SSTORE PUSH2 0x7CF JUMP JUMPDEST ADD MLOAD PUSH0 NOT PUSH1 0xF8 DUP5 PUSH1 0x3 SHL AND SHR NOT AND SWAP1 SSTORE DUP10 DUP1 DUP1 PUSH2 0x991 JUMP JUMPDEST SWAP3 SWAP4 PUSH1 0x20 PUSH1 0x1 DUP2 SWAP3 DUP8 DUP7 ADD MLOAD DUP2 SSTORE ADD SWAP6 ADD SWAP4 ADD PUSH2 0x975 JUMP JUMPDEST PUSH2 0x9F8 SWAP1 DUP5 PUSH0 MSTORE PUSH1 0x20 PUSH0 KECCAK256 PUSH1 0x1F DUP6 ADD PUSH1 0x5 SHR DUP2 ADD SWAP2 PUSH1 0x20 DUP7 LT PUSH2 0x947 JUMPI PUSH1 0x1F ADD PUSH1 0x5 SHR ADD SWAP1 PUSH2 0x40E9 JUMP JUMPDEST DUP8 PUSH2 0x796 JUMP JUMPDEST ADD MLOAD SWAP1 POP DUP9 DUP1 PUSH2 0x38B JUMP JUMPDEST SWAP1 PUSH1 0x1F NOT DUP4 AND SWAP2 DUP5 PUSH0 MSTORE DUP2 PUSH0 KECCAK256 SWAP3 PUSH0 JUMPDEST DUP2 DUP2 LT PUSH2 0xA54 JUMPI POP SWAP1 DUP5 PUSH1 0x1 SWAP6 SWAP5 SWAP4 SWAP3 LT PUSH2 0xA3C JUMPI JUMPDEST POP POP POP DUP2 SHL ADD SWAP1 SSTORE PUSH2 0x769 JUMP JUMPDEST ADD MLOAD PUSH0 NOT PUSH1 0xF8 DUP5 PUSH1 0x3 SHL AND SHR NOT AND SWAP1 SSTORE DUP8 DUP1 DUP1 PUSH2 0xA2F JUMP JUMPDEST SWAP3 SWAP4 PUSH1 0x20 PUSH1 0x1 DUP2 SWAP3 DUP8 DUP7 ADD MLOAD DUP2 SSTORE ADD SWAP6 ADD SWAP4 ADD PUSH2 0xA19 JUMP JUMPDEST PUSH2 0xA96 SWAP1 DUP5 PUSH0 MSTORE PUSH1 0x20 PUSH0 KECCAK256 PUSH1 0x1F DUP6 ADD PUSH1 0x5 SHR DUP2 ADD SWAP2 PUSH1 0x20 DUP7 LT PUSH2 0x947 JUMPI PUSH1 0x1F ADD PUSH1 0x5 SHR ADD SWAP1 PUSH2 0x40E9 JUMP JUMPDEST DUP8 PUSH2 0x737 JUMP JUMPDEST SWAP1 PUSH1 0x1F NOT DUP4 AND SWAP2 DUP5 PUSH0 MSTORE DUP2 PUSH0 KECCAK256 SWAP3 PUSH0 JUMPDEST DUP2 DUP2 LT PUSH2 0xAE7 JUMPI POP SWAP1 DUP5 PUSH1 0x1 SWAP6 SWAP5 SWAP4 SWAP3 LT PUSH2 0xACF JUMPI JUMPDEST POP POP POP DUP2 SHL ADD SWAP1 SSTORE PUSH2 0x70A JUMP JUMPDEST ADD MLOAD PUSH0 NOT PUSH1 0xF8 DUP5 PUSH1 0x3 SHL AND SHR NOT AND SWAP1 SSTORE DUP8 DUP1 DUP1 PUSH2 0xAC2 JUMP JUMPDEST SWAP3 SWAP4 PUSH1 0x20 PUSH1 0x1 DUP2 SWAP3 DUP8 DUP7 ADD MLOAD DUP2 SSTORE ADD SWAP6 ADD SWAP4 ADD PUSH2 0xAAC JUMP JUMPDEST PUSH2 0xB29 SWAP1 DUP5 PUSH0 MSTORE PUSH1 0x20 PUSH0 KECCAK256 PUSH1 0x1F DUP6 ADD PUSH1 0x5 SHR DUP2 ADD SWAP2 PUSH1 0x20 DUP7 LT PUSH2 0x947 JUMPI PUSH1 0x1F ADD PUSH1 0x5 SHR ADD SWAP1 PUSH2 0x40E9 JUMP JUMPDEST DUP8 PUSH2 0x6D8 JUMP JUMPDEST SWAP1 PUSH1 0x1F NOT DUP4 AND SWAP2 DUP5 PUSH0 MSTORE DUP2 PUSH0 KECCAK256 SWAP3 PUSH0 JUMPDEST DUP2 DUP2 LT PUSH2 0xB7A JUMPI POP SWAP1 DUP5 PUSH1 0x1 SWAP6 SWAP5 SWAP4 SWAP3 LT PUSH2 0xB62 JUMPI JUMPDEST POP POP POP DUP2 SHL ADD SWAP1 SSTORE PUSH2 0x6AB JUMP JUMPDEST ADD MLOAD PUSH0 NOT PUSH1 0xF8 DUP5 PUSH1 0x3 SHL AND SHR NOT AND SWAP1 SSTORE DUP8 DUP1 DUP1 PUSH2 0xB55 JUMP JUMPDEST SWAP3 SWAP4 PUSH1 0x20 PUSH1 0x1 DUP2 SWAP3 DUP8 DUP7 ADD MLOAD DUP2 SSTORE ADD SWAP6 ADD SWAP4 ADD PUSH2 0xB3F JUMP JUMPDEST PUSH2 0xBBC SWAP1 DUP5 PUSH0 MSTORE PUSH1 0x20 PUSH0 KECCAK256 PUSH1 0x1F DUP6 ADD PUSH1 0x5 SHR DUP2 ADD SWAP2 PUSH1 0x20 DUP7 LT PUSH2 0x947 JUMPI PUSH1 0x1F ADD PUSH1 0x5 SHR ADD SWAP1 PUSH2 0x40E9 JUMP JUMPDEST DUP8 PUSH2 0x679 JUMP JUMPDEST ADD MLOAD SWAP1 POP DUP8 DUP1 PUSH2 0x38B JUMP JUMPDEST SWAP1 PUSH1 0x1F NOT DUP4 AND SWAP2 DUP5 PUSH0 MSTORE DUP2 PUSH0 KECCAK256 SWAP3 PUSH0 JUMPDEST DUP2 DUP2 LT PUSH2 0xC18 JUMPI POP SWAP1 DUP5 PUSH1 0x1 SWAP6 SWAP5 SWAP4 SWAP3 LT PUSH2 0xC00 JUMPI JUMPDEST POP POP POP DUP2 SHL ADD DUP2 SSTORE PUSH2 0x64C JUMP JUMPDEST ADD MLOAD PUSH0 NOT PUSH1 0xF8 DUP5 PUSH1 0x3 SHL AND SHR NOT AND SWAP1 SSTORE DUP7 DUP1 DUP1 PUSH2 0xBF3 JUMP JUMPDEST SWAP3 SWAP4 PUSH1 0x20 PUSH1 0x1 DUP2 SWAP3 DUP8 DUP7 ADD MLOAD DUP2 SSTORE ADD SWAP6 ADD SWAP4 ADD PUSH2 0xBDD JUMP JUMPDEST PUSH2 0xC5A SWAP1 DUP5 PUSH0 MSTORE PUSH1 0x20 PUSH0 KECCAK256 PUSH1 0x1F DUP6 ADD PUSH1 0x5 SHR DUP2 ADD SWAP2 PUSH1 0x20 DUP7 LT PUSH2 0x947 JUMPI PUSH1 0x1F ADD PUSH1 0x5 SHR ADD SWAP1 PUSH2 0x40E9 JUMP JUMPDEST DUP7 PUSH2 0x61A JUMP JUMPDEST SWAP1 PUSH1 0x1F NOT DUP4 AND SWAP2 DUP5 PUSH0 MSTORE DUP2 PUSH0 KECCAK256 SWAP3 PUSH0 JUMPDEST DUP2 DUP2 LT PUSH2 0xCAB JUMPI POP SWAP1 DUP5 PUSH1 0x1 SWAP6 SWAP5 SWAP4 SWAP3 LT PUSH2 0xC93 JUMPI JUMPDEST POP POP POP DUP2 SHL ADD SWAP1 SSTORE PUSH2 0x5DE JUMP JUMPDEST ADD MLOAD PUSH0 NOT PUSH1 0xF8 DUP5 PUSH1 0x3 SHL AND SHR NOT AND SWAP1 SSTORE DUP7 DUP1 DUP1 PUSH2 0xC86 JUMP JUMPDEST SWAP3 SWAP4 PUSH1 0x20 PUSH1 0x1 DUP2 SWAP3 DUP8 DUP7 ADD MLOAD DUP2 SSTORE ADD SWAP6 ADD SWAP4 ADD PUSH2 0xC70 JUMP JUMPDEST PUSH2 0xCED SWAP1 DUP5 PUSH0 MSTORE PUSH1 0x20 PUSH0 KECCAK256 PUSH1 0x1F DUP6 ADD PUSH1 0x5 SHR DUP2 ADD SWAP2 PUSH1 0x20 DUP7 LT PUSH2 0x947 JUMPI PUSH1 0x1F ADD PUSH1 0x5 SHR ADD SWAP1 PUSH2 0x40E9 JUMP JUMPDEST DUP7 PUSH2 0x5AC JUMP JUMPDEST ADD MLOAD SWAP1 POP DUP12 DUP1 PUSH2 0x38B JUMP JUMPDEST SWAP1 PUSH1 0x1F NOT DUP4 AND SWAP2 DUP5 PUSH0 MSTORE DUP2 PUSH0 KECCAK256 SWAP3 PUSH0 JUMPDEST DUP2 DUP2 LT PUSH2 0xD4F JUMPI POP SWAP3 PUSH1 0x1 SWAP3 DUP6 SWAP3 PUSH1 0xC0 SWAP9 SWAP7 PUSH1 0x6 SWAP9 SWAP7 LT PUSH2 0xD37 JUMPI JUMPDEST POP POP POP DUP2 SHL ADD SWAP1 SSTORE PUSH2 0x584 JUMP JUMPDEST ADD MLOAD PUSH0 NOT PUSH1 0xF8 DUP5 PUSH1 0x3 SHL AND SHR NOT AND SWAP1 SSTORE DUP11 DUP1 DUP1 PUSH2 0xD2A JUMP JUMPDEST SWAP3 SWAP4 PUSH1 0x20 PUSH1 0x1 DUP2 SWAP3 DUP8 DUP7 ADD MLOAD DUP2 SSTORE ADD SWAP6 ADD SWAP4 ADD PUSH2 0xD0E JUMP JUMPDEST PUSH2 0xD91 SWAP1 DUP5 PUSH0 MSTORE PUSH1 0x20 PUSH0 KECCAK256 PUSH1 0x1F DUP6 ADD PUSH1 0x5 SHR DUP2 ADD SWAP2 PUSH1 0x20 DUP7 LT PUSH2 0x947 JUMPI PUSH1 0x1F ADD PUSH1 0x5 SHR ADD SWAP1 PUSH2 0x40E9 JUMP JUMPDEST DUP9 PUSH2 0x54B JUMP JUMPDEST ADD MLOAD SWAP1 POP DUP10 DUP1 PUSH2 0x38B JUMP JUMPDEST SWAP1 PUSH1 0x1F NOT DUP4 AND SWAP2 DUP5 PUSH0 MSTORE DUP2 PUSH0 KECCAK256 SWAP3 PUSH0 JUMPDEST DUP2 DUP2 LT PUSH2 0xDED JUMPI POP SWAP1 DUP5 PUSH1 0x1 SWAP6 SWAP5 SWAP4 SWAP3 LT PUSH2 0xDD5 JUMPI JUMPDEST POP POP POP DUP2 SHL ADD SWAP1 SSTORE PUSH2 0x51E JUMP JUMPDEST ADD MLOAD PUSH0 NOT PUSH1 0xF8 DUP5 PUSH1 0x3 SHL AND SHR NOT AND SWAP1 SSTORE DUP9 DUP1 DUP1 PUSH2 0xDC8 JUMP JUMPDEST SWAP3 SWAP4 PUSH1 0x20 PUSH1 0x1 DUP2 SWAP3 DUP8 DUP7 ADD MLOAD DUP2 SSTORE ADD SWAP6 ADD SWAP4 ADD PUSH2 0xDB2 JUMP JUMPDEST PUSH2 0xE2F SWAP1 DUP5 PUSH0 MSTORE PUSH1 0x20 PUSH0 KECCAK256 PUSH1 0x1F DUP6 ADD PUSH1 0x5 SHR DUP2 ADD SWAP2 PUSH1 0x20 DUP7 LT PUSH2 0x947 JUMPI PUSH1 0x1F ADD PUSH1 0x5 SHR ADD SWAP1 PUSH2 0x40E9 JUMP JUMPDEST DUP9 PUSH2 0x4EC JUMP JUMPDEST SWAP1 PUSH1 0x1F NOT DUP4 AND SWAP2 DUP5 PUSH0 MSTORE DUP2 PUSH0 KECCAK256 SWAP3 PUSH0 JUMPDEST DUP2 DUP2 LT PUSH2 0xE80 JUMPI POP SWAP1 DUP5 PUSH1 0x1 SWAP6 SWAP5 SWAP4 SWAP3 LT PUSH2 0xE68 JUMPI JUMPDEST POP POP POP DUP2 SHL ADD SWAP1 SSTORE PUSH2 0x4BF JUMP JUMPDEST ADD MLOAD PUSH0 NOT PUSH1 0xF8 DUP5 PUSH1 0x3 SHL AND SHR NOT AND SWAP1 SSTORE DUP9 DUP1 DUP1 PUSH2 0xE5B JUMP JUMPDEST SWAP3 SWAP4 PUSH1 0x20 PUSH1 0x1 DUP2 SWAP3 DUP8 DUP7 ADD MLOAD DUP2 SSTORE ADD SWAP6 ADD SWAP4 ADD PUSH2 0xE45 JUMP JUMPDEST PUSH2 0xEC2 SWAP1 DUP5 PUSH0 MSTORE PUSH1 0x20 PUSH0 KECCAK256 PUSH1 0x1F DUP6 ADD PUSH1 0x5 SHR DUP2 ADD SWAP2 PUSH1 0x20 DUP7 LT PUSH2 0x947 JUMPI PUSH1 0x1F ADD PUSH1 0x5 SHR ADD SWAP1 PUSH2 0x40E9 JUMP JUMPDEST DUP9 PUSH2 0x48D JUMP JUMPDEST SWAP1 PUSH1 0x1F NOT DUP4 AND SWAP2 DUP5 PUSH0 MSTORE DUP2 PUSH0 KECCAK256 SWAP3 PUSH0 JUMPDEST DUP2 DUP2 LT PUSH2 0xF13 JUMPI POP SWAP1 DUP5 PUSH1 0x1 SWAP6 SWAP5 SWAP4 SWAP3 LT PUSH2 0xEFB JUMPI JUMPDEST POP POP POP DUP2 SHL ADD SWAP1 SSTORE PUSH2 0x460 JUMP JUMPDEST ADD MLOAD PUSH0 NOT PUSH1 0xF8 DUP5 PUSH1 0x3 SHL AND SHR NOT AND SWAP1 SSTORE DUP9 DUP1 DUP1 PUSH2 0xEEE JUMP JUMPDEST SWAP3 SWAP4 PUSH1 0x20 PUSH1 0x1 DUP2 SWAP3 DUP8 DUP7 ADD MLOAD DUP2 SSTORE ADD SWAP6 ADD SWAP4 ADD PUSH2 0xED8 JUMP JUMPDEST PUSH2 0xF55 SWAP1 DUP5 PUSH0 MSTORE PUSH1 0x20 PUSH0 KECCAK256 PUSH1 0x1F DUP6 ADD PUSH1 0x5 SHR DUP2 ADD SWAP2 PUSH1 0x20 DUP7 LT PUSH2 0x947 JUMPI PUSH1 0x1F ADD PUSH1 0x5 SHR ADD SWAP1 PUSH2 0x40E9 JUMP JUMPDEST DUP9 PUSH2 0x42E JUMP JUMPDEST SWAP1 PUSH1 0x1F NOT DUP4 AND SWAP2 DUP5 PUSH0 MSTORE DUP2 PUSH0 KECCAK256 SWAP3 PUSH0 JUMPDEST DUP2 DUP2 LT PUSH2 0xFA6 JUMPI POP SWAP1 DUP5 PUSH1 0x1 SWAP6 SWAP5 SWAP4 SWAP3 LT PUSH2 0xF8E JUMPI JUMPDEST POP POP POP DUP2 SHL ADD SWAP1 SSTORE PUSH2 0x401 JUMP JUMPDEST ADD MLOAD PUSH0 NOT PUSH1 0xF8 DUP5 PUSH1 0x3 SHL AND SHR NOT AND SWAP1 SSTORE DUP9 DUP1 DUP1 PUSH2 0xF81 JUMP JUMPDEST SWAP3 SWAP4 PUSH1 0x20 PUSH1 0x1 DUP2 SWAP3 DUP8 DUP7 ADD MLOAD DUP2 SSTORE ADD SWAP6 ADD SWAP4 ADD PUSH2 0xF6B JUMP JUMPDEST PUSH2 0xFE8 SWAP1 DUP5 PUSH0 MSTORE PUSH1 0x20 PUSH0 KECCAK256 PUSH1 0x1F DUP6 ADD PUSH1 0x5 SHR DUP2 ADD SWAP2 PUSH1 0x20 DUP7 LT PUSH2 0x947 JUMPI PUSH1 0x1F ADD PUSH1 0x5 SHR ADD SWAP1 PUSH2 0x40E9 JUMP JUMPDEST DUP9 PUSH2 0x3CF JUMP JUMPDEST SWAP1 PUSH1 0x1F NOT DUP4 AND SWAP2 DUP5 PUSH0 MSTORE DUP2 PUSH0 KECCAK256 SWAP3 PUSH0 JUMPDEST DUP2 DUP2 LT PUSH2 0x1039 JUMPI POP SWAP1 DUP5 PUSH1 0x1 SWAP6 SWAP5 SWAP4 SWAP3 LT PUSH2 0x1021 JUMPI JUMPDEST POP POP POP DUP2 SHL ADD DUP2 SSTORE PUSH2 0x3A2 JUMP JUMPDEST ADD MLOAD PUSH0 NOT PUSH1 0xF8 DUP5 PUSH1 0x3 SHL AND SHR NOT AND SWAP1 SSTORE DUP8 DUP1 DUP1 PUSH2 0x1014 JUMP JUMPDEST SWAP3 SWAP4 PUSH1 0x20 PUSH1 0x1 DUP2 SWAP3 DUP8 DUP7 ADD MLOAD DUP2 SSTORE ADD SWAP6 ADD SWAP4 ADD PUSH2 0xFFE JUMP JUMPDEST PUSH2 0x107B SWAP1 DUP5 PUSH0 MSTORE PUSH1 0x20 PUSH0 KECCAK256 PUSH1 0x1F DUP6 ADD PUSH1 0x5 SHR DUP2 ADD SWAP2 PUSH1 0x20 DUP7 LT PUSH2 0x947 JUMPI PUSH1 0x1F ADD PUSH1 0x5 SHR ADD SWAP1 PUSH2 0x40E9 JUMP JUMPDEST DUP8 PUSH2 0x36F JUMP JUMPDEST PUSH2 0x10A3 SWAP2 POP PUSH1 0x20 RETURNDATASIZE PUSH1 0x20 GT PUSH2 0x10A9 JUMPI JUMPDEST PUSH2 0x109B DUP2 DUP4 PUSH2 0x3C4F JUMP JUMPDEST DUP2 ADD SWAP1 PUSH2 0x4096 JUMP JUMPDEST DUP6 PUSH2 0x2E8 JUMP JUMPDEST POP RETURNDATASIZE PUSH2 0x1091 JUMP JUMPDEST PUSH1 0x40 MLOAD RETURNDATASIZE PUSH0 DUP3 RETURNDATACOPY RETURNDATASIZE SWAP1 REVERT JUMPDEST CALLVALUE PUSH2 0x277 JUMPI PUSH1 0x40 CALLDATASIZE PUSH1 0x3 NOT ADD SLT PUSH2 0x277 JUMPI PUSH1 0x4 CALLDATALOAD PUSH1 0x1 PUSH1 0x1 PUSH1 0x40 SHL SUB DUP2 GT PUSH2 0x277 JUMPI PUSH2 0x10EB SWAP1 CALLDATASIZE SWAP1 PUSH1 0x4 ADD PUSH2 0x3C70 JUMP JUMPDEST PUSH1 0x40 MLOAD PUSH4 0x95A8C58D PUSH1 0xE0 SHL DUP2 MSTORE CALLER PUSH1 0x4 DUP3 ADD MSTORE PUSH0 PUSH1 0x24 DUP3 ADD MSTORE PUSH1 0x20 DUP2 PUSH1 0x44 DUP2 PUSH1 0x1 PUSH1 0x1 PUSH1 0xA0 SHL SUB PUSH32 0x0 AND GAS STATICCALL DUP1 ISZERO PUSH2 0x10B0 JUMPI PUSH2 0x114C SWAP2 PUSH0 SWAP2 PUSH2 0x11FF JUMPI POP PUSH2 0x40AE JUMP JUMPDEST PUSH1 0x24 CALLDATALOAD TIMESTAMP GT ISZERO PUSH2 0x11C6 JUMPI PUSH1 0x20 DUP1 SWAP2 PUSH1 0x40 MLOAD SWAP3 DUP2 DUP5 SWAP3 MLOAD SWAP2 DUP3 SWAP2 ADD DUP4 MCOPY PUSH0 SWAP1 DUP3 ADD SWAP1 DUP2 MSTORE SUB ADD SWAP1 KECCAK256 PUSH1 0x1 DUP2 ADD DUP1 SLOAD PUSH1 0xFF NOT AND PUSH1 0x6 OR SWAP1 SSTORE TIMESTAMP PUSH1 0x8 SWAP1 SWAP2 ADD DUP2 SWAP1 SSTORE PUSH1 0x40 DUP1 MLOAD CALLER DUP2 MSTORE PUSH1 0x20 DUP2 ADD SWAP3 SWAP1 SWAP3 MSTORE PUSH32 0xDBF29DF2841FBFEF4E4228E54B2EAFD2EDB98C45ECD633E3D142902104CDE351 SWAP2 SWAP1 DUP2 SWAP1 DUP2 ADD PUSH2 0x879 JUMP JUMPDEST PUSH1 0x40 MLOAD PUSH3 0x461BCD PUSH1 0xE5 SHL DUP2 MSTORE PUSH1 0x20 PUSH1 0x4 DUP3 ADD MSTORE PUSH1 0x11 PUSH1 0x24 DUP3 ADD MSTORE PUSH17 0x4E4945206D61736968206265726C616B75 PUSH1 0x78 SHL PUSH1 0x44 DUP3 ADD MSTORE PUSH1 0x64 SWAP1 REVERT JUMPDEST PUSH2 0x1218 SWAP2 POP PUSH1 0x20 RETURNDATASIZE PUSH1 0x20 GT PUSH2 0x10A9 JUMPI PUSH2 0x109B DUP2 DUP4 PUSH2 0x3C4F JUMP JUMPDEST DUP4 PUSH2 0x2E8 JUMP JUMPDEST CALLVALUE PUSH2 0x277 JUMPI PUSH1 0x20 CALLDATASIZE PUSH1 0x3 NOT ADD SLT PUSH2 0x277 JUMPI PUSH1 0x4 CALLDATALOAD PUSH1 0x1 PUSH1 0x1 PUSH1 0x40 SHL SUB DUP2 GT PUSH2 0x277 JUMPI PUSH2 0x1274 PUSH1 0x20 DUP1 PUSH2 0x1257 PUSH2 0x1288 SWAP5 CALLDATASIZE SWAP1 PUSH1 0x4 ADD PUSH2 0x3C70 JUMP JUMPDEST PUSH1 0x40 MLOAD SWAP3 DUP2 DUP5 SWAP3 MLOAD SWAP2 DUP3 SWAP2 ADD DUP4 MCOPY DUP2 ADD PUSH1 0x1 DUP2 MSTORE SUB ADD SWAP1 KECCAK256 PUSH2 0x3F78 JUMP JUMPDEST PUSH1 0x40 MLOAD SWAP2 DUP3 SWAP2 PUSH1 0x20 DUP4 MSTORE PUSH1 0x20 DUP4 ADD SWAP1 PUSH2 0x4018 JUMP JUMPDEST SUB SWAP1 RETURN JUMPDEST CALLVALUE PUSH2 0x277 JUMPI PUSH2 0x129A CALLDATASIZE PUSH2 0x4049 JUMP JUMPDEST PUSH1 0x40 MLOAD PUSH4 0x95A8C58D PUSH1 0xE0 SHL DUP2 MSTORE CALLER PUSH1 0x4 DUP3 ADD MSTORE PUSH1 0x2 PUSH1 0x24 DUP3 ADD MSTORE PUSH1 0x20 DUP2 PUSH1 0x44 DUP2 PUSH1 0x1 PUSH1 0x1 PUSH1 0xA0 SHL SUB PUSH32 0x0 AND GAS STATICCALL DUP1 ISZERO PUSH2 0x10B0 JUMPI PUSH2 0x12FD SWAP2 PUSH0 SWAP2 PUSH2 0x14A8 JUMPI JUMPDEST POP PUSH2 0x41FC JUMP JUMPDEST PUSH1 0x40 MLOAD PUSH1 0x20 DUP4 MLOAD SWAP2 DUP2 DUP2 DUP2 DUP8 ADD SWAP5 DUP1 DUP7 DUP4 MCOPY DUP2 ADD PUSH0 DUP2 MSTORE SUB ADD SWAP1 KECCAK256 SWAP4 PUSH1 0x40 MLOAD SWAP3 DUP4 SWAP2 MLOAD DUP1 SWAP2 DUP4 MCOPY DUP2 ADD PUSH1 0x2 DUP2 MSTORE SUB ADD SWAP1 KECCAK256 SWAP2 DUP2 MLOAD SWAP3 PUSH1 0x1 PUSH1 0x1 PUSH1 0x40 SHL SUB DUP5 GT PUSH2 0x951 JUMPI PUSH2 0x134A DUP2 SLOAD PUSH2 0x3F40 JUMP JUMPDEST PUSH1 0x1F DUP2 GT PUSH2 0x1478 JUMPI JUMPDEST POP PUSH1 0x20 SWAP4 PUSH1 0x1F DUP2 GT PUSH1 0x1 EQ PUSH2 0x13F1 JUMPI SWAP1 PUSH2 0x13A9 DUP3 PUSH2 0x13DB SWAP6 SWAP5 SWAP4 PUSH32 0x1FD8D4ED3DF5E0C085CDB1F77C2352A9A35EE3ECDBE66C8E491253D828552BE7 SWAP8 PUSH0 SWAP2 PUSH2 0x13E6 JUMPI JUMPDEST POP DUP2 PUSH1 0x1 SHL SWAP2 PUSH0 NOT SWAP1 PUSH1 0x3 SHL SHR NOT AND OR SWAP1 JUMP JUMPDEST SWAP1 SSTORE JUMPDEST PUSH1 0x1 DUP2 ADD PUSH1 0x8 PUSH1 0xFF NOT DUP3 SLOAD AND OR SWAP1 SSTORE PUSH1 0xA TIMESTAMP SWAP2 ADD SSTORE PUSH1 0x40 MLOAD SWAP2 DUP3 SWAP2 CALLER DUP4 MSTORE PUSH1 0x60 PUSH1 0x20 DUP5 ADD MSTORE PUSH1 0x60 DUP4 ADD SWAP1 PUSH2 0x4018 JUMP JUMPDEST TIMESTAMP PUSH1 0x40 DUP4 ADD MSTORE SUB SWAP1 LOG1 STOP JUMPDEST SWAP1 POP DUP6 ADD MLOAD DUP9 PUSH2 0x1396 JUMP JUMPDEST PUSH1 0x1F NOT DUP2 AND SWAP5 DUP3 PUSH0 MSTORE DUP1 PUSH0 KECCAK256 SWAP6 PUSH0 JUMPDEST DUP2 DUP2 LT PUSH2 0x1460 JUMPI POP SWAP2 PUSH32 0x1FD8D4ED3DF5E0C085CDB1F77C2352A9A35EE3ECDBE66C8E491253D828552BE7 SWAP7 PUSH1 0x1 SWAP3 DUP3 PUSH2 0x13DB SWAP9 SWAP8 SWAP7 SWAP6 LT PUSH2 0x1448 JUMPI JUMPDEST POP POP DUP2 SHL ADD SWAP1 SSTORE PUSH2 0x13AC JUMP JUMPDEST DUP7 ADD MLOAD PUSH0 NOT PUSH1 0xF8 DUP5 PUSH1 0x3 SHL AND SHR NOT AND SWAP1 SSTORE DUP8 DUP1 PUSH2 0x143C JUMP JUMPDEST DUP7 DUP4 ADD MLOAD DUP9 SSTORE PUSH1 0x1 SWAP1 SWAP8 ADD SWAP7 PUSH1 0x20 SWAP3 DUP4 ADD SWAP3 ADD PUSH2 0x1400 JUMP JUMPDEST PUSH2 0x14A2 SWAP1 DUP3 PUSH0 MSTORE PUSH1 0x20 PUSH0 KECCAK256 PUSH1 0x1F DUP8 ADD PUSH1 0x5 SHR DUP2 ADD SWAP2 PUSH1 0x20 DUP9 LT PUSH2 0x947 JUMPI PUSH1 0x1F ADD PUSH1 0x5 SHR ADD SWAP1 PUSH2 0x40E9 JUMP JUMPDEST DUP5 PUSH2 0x1353 JUMP JUMPDEST PUSH2 0x14C1 SWAP2 POP PUSH1 0x20 RETURNDATASIZE PUSH1 0x20 GT PUSH2 0x10A9 JUMPI PUSH2 0x109B DUP2 DUP4 PUSH2 0x3C4F JUMP JUMPDEST DUP5 PUSH2 0x12F7 JUMP JUMPDEST CALLVALUE PUSH2 0x277 JUMPI PUSH2 0x14D5 CALLDATASIZE PUSH2 0x4049 JUMP JUMPDEST PUSH1 0x40 MLOAD SWAP1 PUSH2 0x14E2 DUP3 PUSH2 0x3BFD JUMP JUMPDEST PUSH1 0x20 DUP1 SWAP4 DUP2 SWAP3 PUSH1 0x40 MLOAD PUSH2 0x14F5 DUP5 DUP3 PUSH2 0x3C4F JUMP JUMPDEST PUSH0 DUP2 MSTORE DUP6 MSTORE PUSH0 DUP4 DUP7 ADD MSTORE TIMESTAMP PUSH1 0x40 DUP7 ADD MSTORE PUSH0 PUSH1 0x60 DUP7 ADD MSTORE PUSH0 PUSH1 0x80 DUP7 ADD MSTORE PUSH0 PUSH1 0xA0 DUP7 ADD MSTORE PUSH0 PUSH1 0xC0 DUP7 ADD MSTORE PUSH0 PUSH1 0xE0 DUP7 ADD MSTORE PUSH0 PUSH2 0x100 DUP7 ADD MSTORE PUSH0 PUSH2 0x120 DUP7 ADD MSTORE PUSH0 PUSH2 0x140 DUP7 ADD MSTORE PUSH0 PUSH2 0x160 DUP7 ADD MSTORE PUSH2 0x180 DUP6 ADD MSTORE PUSH1 0x40 MLOAD PUSH2 0x1552 DUP4 DUP3 PUSH2 0x3C4F JUMP JUMPDEST PUSH0 DUP2 MSTORE PUSH2 0x1A0 DUP6 ADD MSTORE PUSH0 PUSH2 0x1C0 DUP6 ADD MSTORE PUSH1 0x40 MLOAD PUSH2 0x156F DUP4 DUP3 PUSH2 0x3C4F JUMP JUMPDEST PUSH0 DUP2 MSTORE PUSH2 0x1E0 DUP6 ADD MSTORE PUSH1 0x40 MLOAD SWAP3 DUP2 DUP5 SWAP3 MLOAD SWAP2 DUP3 SWAP2 ADD DUP4 MCOPY DUP2 ADD PUSH0 DUP2 MSTORE SUB ADD SWAP1 KECCAK256 SWAP1 DUP1 MLOAD SWAP2 DUP3 MLOAD PUSH1 0x1 PUSH1 0x1 PUSH1 0x40 SHL SUB DUP2 GT PUSH2 0x951 JUMPI PUSH2 0x15AD DUP3 SLOAD PUSH2 0x3F40 JUMP JUMPDEST PUSH1 0x1F DUP2 GT PUSH2 0x1A00 JUMPI JUMPDEST POP DUP5 PUSH1 0x1F DUP3 GT PUSH1 0x1 EQ PUSH2 0x199D JUMPI DUP2 SWAP1 PUSH2 0x15E5 SWAP4 SWAP5 SWAP6 PUSH0 SWAP3 PUSH2 0x1992 JUMPI POP POP DUP2 PUSH1 0x1 SHL SWAP2 PUSH0 NOT SWAP1 PUSH1 0x3 SHL SHR NOT AND OR SWAP1 JUMP JUMPDEST DUP2 SSTORE JUMPDEST PUSH1 0x1 DUP2 ADD DUP4 DUP4 ADD MLOAD PUSH1 0xA DUP2 LT ISZERO PUSH2 0x197E JUMPI PUSH1 0xFF DUP1 NOT DUP4 SLOAD AND SWAP2 AND OR SWAP1 SSTORE PUSH1 0x40 DUP3 ADD MLOAD PUSH1 0x2 DUP3 ADD SSTORE PUSH1 0x60 DUP3 ADD MLOAD PUSH1 0x3 DUP3 ADD SSTORE PUSH1 0x80 DUP3 ADD MLOAD PUSH1 0x4 DUP3 ADD SSTORE PUSH1 0xA0 DUP3 ADD MLOAD PUSH1 0x5 DUP3 ADD SSTORE PUSH1 0xC0 DUP3 ADD MLOAD PUSH1 0x6 DUP3 ADD SSTORE PUSH1 0xE0 DUP3 ADD MLOAD PUSH1 0x7 DUP3 ADD SSTORE PUSH2 0x100 DUP3 ADD MLOAD PUSH1 0x8 DUP3 ADD SSTORE PUSH2 0x120 DUP3 ADD MLOAD PUSH1 0x9 DUP3 ADD SSTORE PUSH2 0x140 DUP3 ADD MLOAD PUSH1 0xA DUP3 ADD SSTORE PUSH2 0x160 DUP3 ADD MLOAD PUSH1 0xB DUP3 ADD SSTORE PUSH1 0xC DUP2 ADD PUSH2 0x180 DUP4 ADD MLOAD DUP1 MLOAD SWAP1 PUSH1 0x1 PUSH1 0x1 PUSH1 0x40 SHL SUB DUP3 GT PUSH2 0x951 JUMPI PUSH2 0x1692 DUP4 SLOAD PUSH2 0x3F40 JUMP JUMPDEST PUSH1 0x1F DUP2 GT PUSH2 0x1950 JUMPI JUMPDEST POP DUP6 SWAP1 PUSH1 0x1F DUP4 GT PUSH1 0x1 EQ PUSH2 0x18ED JUMPI PUSH2 0x16C9 SWAP3 SWAP2 PUSH0 SWAP2 DUP4 PUSH2 0xBC2 JUMPI POP POP DUP2 PUSH1 0x1 SHL SWAP2 PUSH0 NOT SWAP1 PUSH1 0x3 SHL SHR NOT AND OR SWAP1 JUMP JUMPDEST SWAP1 SSTORE JUMPDEST PUSH1 0xD DUP2 ADD PUSH2 0x1A0 DUP4 ADD MLOAD DUP1 MLOAD SWAP1 PUSH1 0x1 PUSH1 0x1 PUSH1 0x40 SHL SUB DUP3 GT PUSH2 0x951 JUMPI PUSH2 0x16F1 DUP4 SLOAD PUSH2 0x3F40 JUMP JUMPDEST PUSH1 0x1F DUP2 GT PUSH2 0x18BF JUMPI JUMPDEST POP DUP6 SWAP1 PUSH1 0x1F DUP4 GT PUSH1 0x1 EQ PUSH2 0x1855 JUMPI DUP3 PUSH2 0x1E0 SWAP6 SWAP4 PUSH1 0xF SWAP6 SWAP4 PUSH2 0x1730 SWAP4 PUSH0 SWAP3 PUSH2 0xD97 JUMPI POP POP DUP2 PUSH1 0x1 SHL SWAP2 PUSH0 NOT SWAP1 PUSH1 0x3 SHL SHR NOT AND OR SWAP1 JUMP JUMPDEST SWAP1 SSTORE JUMPDEST PUSH2 0x1C0 DUP5 ADD MLOAD PUSH1 0xE DUP3 ADD DUP1 SLOAD PUSH1 0x1 PUSH1 0x1 PUSH1 0xA0 SHL SUB NOT AND PUSH1 0x1 PUSH1 0x1 PUSH1 0xA0 SHL SUB SWAP3 SWAP1 SWAP3 AND SWAP2 SWAP1 SWAP2 OR SWAP1 SSTORE SWAP2 SWAP1 SWAP3 ADD MLOAD DUP1 MLOAD SWAP1 SWAP4 SWAP3 SWAP1 SWAP2 ADD SWAP2 PUSH1 0x1 PUSH1 0x1 PUSH1 0x40 SHL SUB DUP3 GT PUSH2 0x951 JUMPI PUSH2 0x1781 DUP4 SLOAD PUSH2 0x3F40 JUMP JUMPDEST PUSH1 0x1F DUP2 GT PUSH2 0x1827 JUMPI JUMPDEST POP DUP1 PUSH1 0x1F DUP4 GT PUSH1 0x1 EQ PUSH2 0x17C8 JUMPI POP DUP2 SWAP1 PUSH2 0x17B9 SWAP4 SWAP5 PUSH0 SWAP3 PUSH2 0x17BD JUMPI POP POP DUP2 PUSH1 0x1 SHL SWAP2 PUSH0 NOT SWAP1 PUSH1 0x3 SHL SHR NOT AND OR SWAP1 JUMP JUMPDEST SWAP1 SSTORE STOP JUMPDEST ADD MLOAD SWAP1 POP DUP5 DUP1 PUSH2 0x38B JUMP JUMPDEST SWAP1 PUSH1 0x1F NOT DUP4 AND SWAP5 DUP5 PUSH0 MSTORE DUP3 PUSH0 KECCAK256 SWAP3 PUSH0 SWAP1 JUMPDEST DUP8 DUP3 LT PUSH2 0x180F JUMPI POP POP DUP4 PUSH1 0x1 SWAP6 SWAP7 LT PUSH2 0x17F7 JUMPI JUMPDEST POP POP POP DUP2 SHL ADD SWAP1 SSTORE STOP JUMPDEST ADD MLOAD PUSH0 NOT PUSH1 0xF8 DUP5 PUSH1 0x3 SHL AND SHR NOT AND SWAP1 SSTORE DUP4 DUP1 DUP1 PUSH2 0x17ED JUMP JUMPDEST DUP1 PUSH1 0x1 DUP6 SWAP7 DUP3 SWAP5 SWAP7 DUP7 ADD MLOAD DUP2 SSTORE ADD SWAP6 ADD SWAP4 ADD SWAP1 PUSH2 0x17D9 JUMP JUMPDEST PUSH2 0x184F SWAP1 DUP5 PUSH0 MSTORE DUP3 PUSH0 KECCAK256 PUSH1 0x1F DUP6 ADD PUSH1 0x5 SHR DUP2 ADD SWAP2 DUP5 DUP7 LT PUSH2 0x947 JUMPI PUSH1 0x1F ADD PUSH1 0x5 SHR ADD SWAP1 PUSH2 0x40E9 JUMP JUMPDEST DUP5 PUSH2 0x178A JUMP JUMPDEST SWAP1 PUSH1 0x1F NOT DUP4 AND SWAP2 DUP5 PUSH0 MSTORE DUP8 PUSH0 KECCAK256 SWAP3 PUSH0 JUMPDEST DUP10 DUP3 DUP3 LT PUSH2 0x18A9 JUMPI POP POP SWAP3 PUSH1 0x1 SWAP3 DUP6 SWAP3 PUSH2 0x1E0 SWAP9 SWAP7 PUSH1 0xF SWAP9 SWAP7 LT PUSH2 0x1891 JUMPI JUMPDEST POP POP POP DUP2 SHL ADD SWAP1 SSTORE PUSH2 0x1733 JUMP JUMPDEST ADD MLOAD PUSH0 NOT PUSH1 0xF8 DUP5 PUSH1 0x3 SHL AND SHR NOT AND SWAP1 SSTORE DUP9 DUP1 DUP1 PUSH2 0x1884 JUMP JUMPDEST PUSH1 0x1 DUP6 SWAP7 DUP3 SWAP4 SWAP7 DUP7 ADD MLOAD DUP2 SSTORE ADD SWAP6 ADD SWAP4 ADD PUSH2 0x1865 JUMP JUMPDEST PUSH2 0x18E7 SWAP1 DUP5 PUSH0 MSTORE DUP8 PUSH0 KECCAK256 PUSH1 0x1F DUP6 ADD PUSH1 0x5 SHR DUP2 ADD SWAP2 DUP10 DUP7 LT PUSH2 0x947 JUMPI PUSH1 0x1F ADD PUSH1 0x5 SHR ADD SWAP1 PUSH2 0x40E9 JUMP JUMPDEST DUP7 PUSH2 0x16FA JUMP JUMPDEST SWAP1 PUSH1 0x1F NOT DUP4 AND SWAP2 DUP5 PUSH0 MSTORE DUP8 PUSH0 KECCAK256 SWAP3 PUSH0 JUMPDEST DUP10 DUP3 DUP3 LT PUSH2 0x193A JUMPI POP POP SWAP1 DUP5 PUSH1 0x1 SWAP6 SWAP5 SWAP4 SWAP3 LT PUSH2 0x1922 JUMPI JUMPDEST POP POP POP DUP2 SHL ADD SWAP1 SSTORE PUSH2 0x16CC JUMP JUMPDEST ADD MLOAD PUSH0 NOT PUSH1 0xF8 DUP5 PUSH1 0x3 SHL AND SHR NOT AND SWAP1 SSTORE DUP7 DUP1 DUP1 PUSH2 0x1915 JUMP JUMPDEST PUSH1 0x1 DUP6 SWAP7 DUP3 SWAP4 SWAP7 DUP7 ADD MLOAD DUP2 SSTORE ADD SWAP6 ADD SWAP4 ADD PUSH2 0x18FD JUMP JUMPDEST PUSH2 0x1978 SWAP1 DUP5 PUSH0 MSTORE DUP8 PUSH0 KECCAK256 PUSH1 0x1F DUP6 ADD PUSH1 0x5 SHR DUP2 ADD SWAP2 DUP10 DUP7 LT PUSH2 0x947 JUMPI PUSH1 0x1F ADD PUSH1 0x5 SHR ADD SWAP1 PUSH2 0x40E9 JUMP JUMPDEST DUP7 PUSH2 0x169B JUMP JUMPDEST PUSH4 0x4E487B71 PUSH1 0xE0 SHL PUSH0 MSTORE PUSH1 0x21 PUSH1 0x4 MSTORE PUSH1 0x24 PUSH0 REVERT JUMPDEST ADD MLOAD SWAP1 POP DUP7 DUP1 PUSH2 0x38B JUMP JUMPDEST DUP3 PUSH0 MSTORE DUP6 PUSH0 KECCAK256 SWAP1 PUSH0 JUMPDEST DUP8 PUSH1 0x1F NOT DUP6 AND DUP3 LT PUSH2 0x19EA JUMPI POP POP PUSH1 0x1 SWAP4 SWAP5 SWAP6 DUP4 PUSH1 0x1F NOT DUP2 AND LT PUSH2 0x19D2 JUMPI JUMPDEST POP POP POP DUP2 SHL ADD DUP2 SSTORE PUSH2 0x15E8 JUMP JUMPDEST ADD MLOAD PUSH0 NOT PUSH1 0xF8 DUP5 PUSH1 0x3 SHL AND SHR NOT AND SWAP1 SSTORE DUP6 DUP1 DUP1 PUSH2 0x19C5 JUMP JUMPDEST PUSH1 0x1 DUP4 SWAP5 DUP3 SWAP4 SWAP5 DUP11 ADD MLOAD DUP2 SSTORE ADD SWAP4 ADD SWAP2 ADD PUSH2 0x19A6 JUMP JUMPDEST PUSH2 0x1A28 SWAP1 DUP4 PUSH0 MSTORE DUP7 PUSH0 KECCAK256 PUSH1 0x1F DUP5 ADD PUSH1 0x5 SHR DUP2 ADD SWAP2 DUP9 DUP6 LT PUSH2 0x947 JUMPI PUSH1 0x1F ADD PUSH1 0x5 SHR ADD SWAP1 PUSH2 0x40E9 JUMP JUMPDEST DUP6 PUSH2 0x15B6 JUMP JUMPDEST CALLVALUE PUSH2 0x277 JUMPI PUSH1 0x20 CALLDATASIZE PUSH1 0x3 NOT ADD SLT PUSH2 0x277 JUMPI PUSH1 0x4 CALLDATALOAD PUSH1 0x1 PUSH1 0x1 PUSH1 0x40 SHL SUB DUP2 GT PUSH2 0x277 JUMPI PUSH2 0x1A5E SWAP1 CALLDATASIZE SWAP1 PUSH1 0x4 ADD PUSH2 0x3C70 JUMP JUMPDEST PUSH1 0x40 MLOAD DUP2 MLOAD SWAP1 PUSH1 0x20 DUP2 DUP2 DUP6 ADD SWAP4 DUP1 DUP6 DUP4 MCOPY DUP2 ADD PUSH0 DUP2 MSTORE SUB ADD SWAP1 KECCAK256 SWAP1 PUSH1 0xFF PUSH1 0x1 PUSH1 0x40 MLOAD PUSH1 0x20 DUP2 DUP8 MLOAD DUP1 DUP8 DUP4 MCOPY DUP2 ADD PUSH0 DUP2 MSTORE SUB ADD SWAP1 KECCAK256 ADD SLOAD AND SWAP1 PUSH1 0xA DUP3 LT ISZERO PUSH2 0x197E JUMPI PUSH1 0x7 PUSH2 0x1AC7 SWAP2 PUSH1 0x20 PUSH2 0x1ADC SWAP7 PUSH1 0x40 MLOAD SWAP3 DUP4 SWAP2 MLOAD DUP1 SWAP2 DUP4 MCOPY DUP2 ADD PUSH0 DUP2 MSTORE SUB ADD SWAP1 KECCAK256 ADD SLOAD SWAP3 PUSH2 0x3F78 JUMP JUMPDEST SWAP2 PUSH1 0x40 MLOAD SWAP4 DUP5 SWAP4 PUSH1 0x60 DUP6 MSTORE PUSH1 0x60 DUP6 ADD SWAP1 PUSH2 0x4018 JUMP JUMPDEST SWAP2 PUSH1 0x20 DUP5 ADD MSTORE PUSH1 0x40 DUP4 ADD MSTORE SUB SWAP1 RETURN JUMPDEST CALLVALUE PUSH2 0x277 JUMPI PUSH2 0x1AF9 CALLDATASIZE PUSH2 0x4049 JUMP JUMPDEST PUSH1 0x40 MLOAD PUSH4 0x95A8C58D PUSH1 0xE0 SHL DUP2 MSTORE CALLER PUSH1 0x4 DUP3 ADD MSTORE PUSH1 0x2 PUSH1 0x24 DUP3 ADD MSTORE SWAP1 SWAP2 PUSH1 0x20 DUP3 PUSH1 0x44 DUP2 PUSH1 0x1 PUSH1 0x1 PUSH1 0xA0 SHL SUB PUSH32 0x0 AND GAS STATICCALL SWAP1 DUP2 ISZERO PUSH2 0x10B0 JUMPI PUSH2 0x1B63 PUSH1 0x20 SWAP4 SWAP3 DUP5 SWAP4 PUSH0 SWAP2 PUSH2 0x1CD5 JUMPI POP PUSH2 0x41FC JUMP JUMPDEST PUSH1 0x40 MLOAD SWAP3 DUP2 DUP5 SWAP3 MLOAD SWAP2 DUP3 SWAP2 ADD DUP4 MCOPY DUP2 ADD PUSH0 DUP2 MSTORE SUB ADD SWAP1 KECCAK256 PUSH1 0x1 DUP2 ADD PUSH1 0x7 PUSH1 0xFF NOT DUP3 SLOAD AND OR SWAP1 SSTORE TIMESTAMP PUSH1 0x9 DUP3 ADD SSTORE PUSH1 0x82 TIMESTAMP ADD SWAP1 DUP2 TIMESTAMP GT PUSH2 0x1CC1 JUMPI PUSH1 0xF SWAP2 PUSH1 0x7 DUP3 ADD SSTORE ADD DUP2 MLOAD PUSH1 0x1 PUSH1 0x1 PUSH1 0x40 SHL SUB DUP2 GT PUSH2 0x951 JUMPI PUSH2 0x1BBE DUP3 SLOAD PUSH2 0x3F40 JUMP JUMPDEST PUSH1 0x1F DUP2 GT PUSH2 0x1C91 JUMPI JUMPDEST POP PUSH1 0x20 SWAP3 PUSH1 0x1F DUP3 GT PUSH1 0x1 EQ PUSH2 0x1C32 JUMPI PUSH2 0x1BF7 SWAP3 SWAP4 DUP3 SWAP2 PUSH0 SWAP3 PUSH2 0x17BD JUMPI POP POP DUP2 PUSH1 0x1 SHL SWAP2 PUSH0 NOT SWAP1 PUSH1 0x3 SHL SHR NOT AND OR SWAP1 JUMP JUMPDEST SWAP1 SSTORE JUMPDEST PUSH1 0x40 DUP1 MLOAD CALLER DUP2 MSTORE TIMESTAMP PUSH1 0x20 DUP3 ADD MSTORE PUSH32 0xDC1549B9D8F53BF4F107AFCE167FF871F6F9B8B72089D73274686ECB22B03638 SWAP2 DUP2 SWAP1 DUP2 ADD PUSH2 0x879 JUMP JUMPDEST PUSH1 0x1F NOT DUP3 AND SWAP4 DUP4 PUSH0 MSTORE DUP1 PUSH0 KECCAK256 SWAP2 PUSH0 JUMPDEST DUP7 DUP2 LT PUSH2 0x1C79 JUMPI POP DUP4 PUSH1 0x1 SWAP6 SWAP7 LT PUSH2 0x1C61 JUMPI JUMPDEST POP POP POP DUP2 SHL ADD SWAP1 SSTORE PUSH2 0x1BFA JUMP JUMPDEST ADD MLOAD PUSH0 NOT PUSH1 0xF8 DUP5 PUSH1 0x3 SHL AND SHR NOT AND SWAP1 SSTORE DUP4 DUP1 DUP1 PUSH2 0x1C54 JUMP JUMPDEST SWAP2 SWAP3 PUSH1 0x20 PUSH1 0x1 DUP2 SWAP3 DUP7 DUP6 ADD MLOAD DUP2 SSTORE ADD SWAP5 ADD SWAP3 ADD PUSH2 0x1C41 JUMP JUMPDEST PUSH2 0x1CBB SWAP1 DUP4 PUSH0 MSTORE PUSH1 0x20 PUSH0 KECCAK256 PUSH1 0x1F DUP5 ADD PUSH1 0x5 SHR DUP2 ADD SWAP2 PUSH1 0x20 DUP6 LT PUSH2 0x947 JUMPI PUSH1 0x1F ADD PUSH1 0x5 SHR ADD SWAP1 PUSH2 0x40E9 JUMP JUMPDEST DUP4 PUSH2 0x1BC7 JUMP JUMPDEST PUSH4 0x4E487B71 PUSH1 0xE0 SHL PUSH0 MSTORE PUSH1 0x11 PUSH1 0x4 MSTORE PUSH1 0x24 PUSH0 REVERT JUMPDEST PUSH2 0x1CEC SWAP2 POP DUP5 RETURNDATASIZE DUP7 GT PUSH2 0x10A9 JUMPI PUSH2 0x109B DUP2 DUP4 PUSH2 0x3C4F JUMP JUMPDEST DUP7 PUSH2 0x12F7 JUMP JUMPDEST CALLVALUE PUSH2 0x277 JUMPI PUSH1 0x20 CALLDATASIZE PUSH1 0x3 NOT ADD SLT PUSH2 0x277 JUMPI PUSH1 0x4 CALLDATALOAD PUSH1 0x1 PUSH1 0x1 PUSH1 0x40 SHL SUB DUP2 GT PUSH2 0x277 JUMPI PUSH1 0x20 DUP1 PUSH2 0x1D28 PUSH2 0x1DAC SWAP4 CALLDATASIZE SWAP1 PUSH1 0x4 ADD PUSH2 0x3C70 JUMP JUMPDEST PUSH1 0x40 MLOAD SWAP3 DUP2 DUP5 SWAP3 MLOAD SWAP2 DUP3 SWAP2 ADD DUP4 MCOPY DUP2 ADD PUSH1 0x4 DUP2 MSTORE SUB ADD SWAP1 KECCAK256 PUSH2 0x1288 PUSH2 0x1D4C DUP3 PUSH2 0x3F78 JUMP JUMPDEST SWAP2 PUSH2 0x1DE4 PUSH2 0x1D5C PUSH1 0x1 DUP4 ADD PUSH2 0x3F78 JUMP JUMPDEST SWAP2 PUSH2 0x1DD6 PUSH2 0x1D6C PUSH1 0x2 DUP4 ADD PUSH2 0x3F78 JUMP JUMPDEST PUSH2 0x1DC8 PUSH2 0x1D7B PUSH1 0x3 DUP6 ADD PUSH2 0x3F78 JUMP JUMPDEST SWAP2 PUSH2 0x1DBA PUSH2 0x1D97 PUSH1 0x5 PUSH2 0x1D90 PUSH1 0x4 DUP10 ADD PUSH2 0x3F78 JUMP JUMPDEST SWAP8 ADD PUSH2 0x3F78 JUMP JUMPDEST SWAP8 PUSH1 0x40 MLOAD SWAP12 DUP13 SWAP12 PUSH1 0xC0 DUP14 MSTORE PUSH1 0xC0 DUP14 ADD SWAP1 PUSH2 0x4018 JUMP JUMPDEST SWAP1 DUP12 DUP3 SUB PUSH1 0x20 DUP14 ADD MSTORE PUSH2 0x4018 JUMP JUMPDEST SWAP1 DUP10 DUP3 SUB PUSH1 0x40 DUP12 ADD MSTORE PUSH2 0x4018 JUMP JUMPDEST SWAP1 DUP8 DUP3 SUB PUSH1 0x60 DUP10 ADD MSTORE PUSH2 0x4018 JUMP JUMPDEST SWAP1 DUP6 DUP3 SUB PUSH1 0x80 DUP8 ADD MSTORE PUSH2 0x4018 JUMP JUMPDEST SWAP1 DUP4 DUP3 SUB PUSH1 0xA0 DUP6 ADD MSTORE PUSH2 0x4018 JUMP JUMPDEST CALLVALUE PUSH2 0x277 JUMPI PUSH1 0x20 CALLDATASIZE PUSH1 0x3 NOT ADD SLT PUSH2 0x277 JUMPI PUSH1 0x4 CALLDATALOAD PUSH1 0x1 PUSH1 0x1 PUSH1 0x40 SHL SUB DUP2 GT PUSH2 0x277 JUMPI PUSH2 0x1E22 SWAP1 CALLDATASIZE SWAP1 PUSH1 0x4 ADD PUSH2 0x3C70 JUMP JUMPDEST PUSH1 0x60 PUSH2 0x1E0 PUSH1 0x40 MLOAD PUSH2 0x1E33 DUP2 PUSH2 0x3BFD JUMP JUMPDEST DUP3 DUP2 MSTORE PUSH0 PUSH1 0x20 DUP3 ADD MSTORE PUSH0 PUSH1 0x40 DUP3 ADD MSTORE PUSH0 DUP4 DUP3 ADD MSTORE PUSH0 PUSH1 0x80 DUP3 ADD MSTORE PUSH0 PUSH1 0xA0 DUP3 ADD MSTORE PUSH0 PUSH1 0xC0 DUP3 ADD MSTORE PUSH0 PUSH1 0xE0 DUP3 ADD MSTORE PUSH0 PUSH2 0x100 DUP3 ADD MSTORE PUSH0 PUSH2 0x120 DUP3 ADD MSTORE PUSH0 PUSH2 0x140 DUP3 ADD MSTORE PUSH0 PUSH2 0x160 DUP3 ADD MSTORE DUP3 PUSH2 0x180 DUP3 ADD MSTORE DUP3 PUSH2 0x1A0 DUP3 ADD MSTORE PUSH0 PUSH2 0x1C0 DUP3 ADD MSTORE ADD MSTORE PUSH1 0x60 PUSH1 0xC0 PUSH1 0x40 MLOAD PUSH2 0x1EA2 DUP2 PUSH2 0x3C19 JUMP JUMPDEST DUP3 DUP2 MSTORE DUP3 PUSH1 0x20 DUP3 ADD MSTORE DUP3 PUSH1 0x40 DUP3 ADD MSTORE DUP3 DUP1 DUP3 ADD MSTORE DUP3 PUSH1 0x80 DUP3 ADD MSTORE DUP3 PUSH1 0xA0 DUP3 ADD MSTORE ADD MSTORE PUSH1 0x60 PUSH1 0xA0 PUSH1 0x40 MLOAD PUSH2 0x1ED4 DUP2 PUSH2 0x3C34 JUMP JUMPDEST DUP3 DUP2 MSTORE DUP3 PUSH1 0x20 DUP3 ADD MSTORE DUP3 PUSH1 0x40 DUP3 ADD MSTORE DUP3 DUP1 DUP3 ADD MSTORE DUP3 PUSH1 0x80 DUP3 ADD MSTORE ADD MSTORE PUSH1 0x40 MLOAD DUP2 MLOAD SWAP1 PUSH1 0x20 DUP2 DUP2 DUP6 ADD SWAP4 DUP1 DUP6 DUP4 MCOPY DUP2 ADD PUSH0 DUP2 MSTORE SUB ADD SWAP1 KECCAK256 SWAP1 PUSH1 0x20 PUSH1 0x40 MLOAD DUP2 DUP2 DUP7 MLOAD DUP1 DUP7 DUP4 MCOPY DUP2 ADD PUSH1 0x3 DUP2 MSTORE SUB ADD SWAP1 KECCAK256 SWAP4 PUSH1 0x40 MLOAD SWAP3 DUP4 SWAP2 MLOAD DUP1 SWAP2 DUP4 MCOPY DUP2 ADD PUSH1 0x4 DUP2 MSTORE SUB ADD SWAP1 KECCAK256 SWAP1 PUSH1 0x40 MLOAD SWAP2 PUSH2 0x1F46 DUP4 PUSH2 0x3BFD JUMP JUMPDEST PUSH2 0x1F4F DUP3 PUSH2 0x3F78 JUMP JUMPDEST DUP4 MSTORE PUSH1 0xFF PUSH1 0x1 DUP4 ADD SLOAD AND PUSH1 0xA DUP2 LT ISZERO PUSH2 0x197E JUMPI PUSH2 0x2211 SWAP5 PUSH2 0x201E PUSH1 0xF PUSH2 0x1288 SWAP6 PUSH2 0x22A8 SWAP5 PUSH1 0x20 DUP10 ADD MSTORE PUSH1 0x2 DUP2 ADD SLOAD PUSH1 0x40 DUP10 ADD MSTORE PUSH1 0x3 DUP2 ADD SLOAD PUSH1 0x60 DUP10 ADD MSTORE PUSH1 0x4 DUP2 ADD SLOAD PUSH1 0x80 DUP10 ADD MSTORE PUSH1 0x5 DUP2 ADD SLOAD PUSH1 0xA0 DUP10 ADD MSTORE PUSH1 0x6 DUP2 ADD SLOAD PUSH1 0xC0 DUP10 ADD MSTORE PUSH1 0x7 DUP2 ADD SLOAD PUSH1 0xE0 DUP10 ADD MSTORE PUSH1 0x8 DUP2 ADD SLOAD PUSH2 0x100 DUP10 ADD MSTORE PUSH1 0x9 DUP2 ADD SLOAD PUSH2 0x120 DUP10 ADD MSTORE PUSH1 0xA DUP2 ADD SLOAD PUSH2 0x140 DUP10 ADD MSTORE PUSH1 0xB DUP2 ADD SLOAD PUSH2 0x160 DUP10 ADD MSTORE PUSH2 0x1FEC PUSH1 0xC DUP3 ADD PUSH2 0x3F78 JUMP JUMPDEST PUSH2 0x180 DUP10 ADD MSTORE PUSH2 0x1FFE PUSH1 0xD DUP3 ADD PUSH2 0x3F78 JUMP JUMPDEST PUSH2 0x1A0 DUP10 ADD MSTORE PUSH1 0xE DUP2 ADD SLOAD PUSH1 0x1 PUSH1 0x1 PUSH1 0xA0 SHL SUB AND PUSH2 0x1C0 DUP10 ADD MSTORE ADD PUSH2 0x3F78 JUMP JUMPDEST PUSH2 0x1E0 DUP7 ADD MSTORE PUSH2 0x209C PUSH1 0x6 PUSH1 0x40 MLOAD SWAP3 PUSH2 0x2036 DUP5 PUSH2 0x3C19 JUMP JUMPDEST PUSH2 0x203F DUP2 PUSH2 0x3F78 JUMP JUMPDEST DUP5 MSTORE PUSH2 0x204D PUSH1 0x1 DUP3 ADD PUSH2 0x3F78 JUMP JUMPDEST PUSH1 0x20 DUP6 ADD MSTORE PUSH2 0x205E PUSH1 0x2 DUP3 ADD PUSH2 0x3F78 JUMP JUMPDEST PUSH1 0x40 DUP6 ADD MSTORE PUSH2 0x206F PUSH1 0x3 DUP3 ADD PUSH2 0x3F78 JUMP JUMPDEST PUSH1 0x60 DUP6 ADD MSTORE PUSH2 0x2080 PUSH1 0x4 DUP3 ADD PUSH2 0x3F78 JUMP JUMPDEST PUSH1 0x80 DUP6 ADD MSTORE PUSH2 0x2091 PUSH1 0x5 DUP3 ADD PUSH2 0x3F78 JUMP JUMPDEST PUSH1 0xA0 DUP6 ADD MSTORE ADD PUSH2 0x3F78 JUMP JUMPDEST PUSH1 0xC0 DUP3 ADD MSTORE PUSH2 0x2108 PUSH1 0x5 PUSH1 0x40 MLOAD SWAP5 PUSH2 0x20B3 DUP7 PUSH2 0x3C34 JUMP JUMPDEST PUSH2 0x20BC DUP2 PUSH2 0x3F78 JUMP JUMPDEST DUP7 MSTORE PUSH2 0x20CA PUSH1 0x1 DUP3 ADD PUSH2 0x3F78 JUMP JUMPDEST PUSH1 0x20 DUP8 ADD MSTORE PUSH2 0x20DB PUSH1 0x2 DUP3 ADD PUSH2 0x3F78 JUMP JUMPDEST PUSH1 0x40 DUP8 ADD MSTORE PUSH2 0x20EC PUSH1 0x3 DUP3 ADD PUSH2 0x3F78 JUMP JUMPDEST PUSH1 0x60 DUP8 ADD MSTORE PUSH2 0x20FD PUSH1 0x4 DUP3 ADD PUSH2 0x3F78 JUMP JUMPDEST PUSH1 0x80 DUP8 ADD MSTORE ADD PUSH2 0x3F78 JUMP JUMPDEST PUSH1 0xA0 DUP5 ADD MSTORE PUSH1 0x40 MLOAD SWAP6 DUP7 SWAP6 PUSH1 0x60 DUP8 MSTORE PUSH2 0x1E0 PUSH2 0x21E7 PUSH2 0x21CF PUSH2 0x2138 DUP5 MLOAD PUSH2 0x200 PUSH1 0x60 DUP14 ADD MSTORE PUSH2 0x260 DUP13 ADD SWAP1 PUSH2 0x4018 JUMP JUMPDEST PUSH2 0x214A PUSH1 0x20 DUP7 ADD MLOAD PUSH1 0x80 DUP14 ADD SWAP1 PUSH2 0x403C JUMP JUMPDEST PUSH1 0x40 DUP6 ADD MLOAD PUSH1 0xA0 DUP13 ADD MSTORE PUSH1 0x60 DUP6 ADD MLOAD PUSH1 0xC0 DUP13 ADD MSTORE PUSH1 0x80 DUP6 ADD MLOAD PUSH1 0xE0 DUP13 ADD MSTORE PUSH1 0xA0 DUP6 ADD MLOAD PUSH2 0x100 DUP13 ADD MSTORE PUSH1 0xC0 DUP6 ADD MLOAD PUSH2 0x120 DUP13 ADD MSTORE PUSH1 0xE0 DUP6 ADD MLOAD PUSH2 0x140 DUP13 ADD MSTORE PUSH2 0x100 DUP6 ADD MLOAD PUSH2 0x160 DUP13 ADD MSTORE PUSH2 0x120 DUP6 ADD MLOAD PUSH2 0x180 DUP13 ADD MSTORE PUSH2 0x140 DUP6 ADD MLOAD PUSH2 0x1A0 DUP13 ADD MSTORE PUSH2 0x160 DUP6 ADD MLOAD PUSH2 0x1C0 DUP13 ADD MSTORE PUSH2 0x180 DUP6 ADD MLOAD PUSH1 0x5F NOT DUP13 DUP4 SUB ADD DUP6 DUP14 ADD MSTORE PUSH2 0x4018 JUMP JUMPDEST PUSH2 0x1A0 DUP5 ADD MLOAD DUP11 DUP3 SUB PUSH1 0x5F NOT ADD PUSH2 0x200 DUP13 ADD MSTORE PUSH2 0x4018 JUMP JUMPDEST PUSH2 0x1C0 DUP4 ADD MLOAD PUSH1 0x1 PUSH1 0x1 PUSH1 0xA0 SHL SUB AND PUSH2 0x220 DUP11 ADD MSTORE SWAP2 ADD MLOAD DUP8 DUP3 SUB PUSH1 0x5F NOT ADD PUSH2 0x240 DUP10 ADD MSTORE PUSH2 0x4018 JUMP JUMPDEST DUP6 DUP2 SUB PUSH1 0x20 DUP8 ADD MSTORE PUSH1 0xC0 PUSH2 0x2297 PUSH2 0x2285 PUSH2 0x2273 PUSH2 0x2261 PUSH2 0x224F PUSH2 0x223D DUP9 MLOAD PUSH1 0xE0 DUP10 MSTORE PUSH1 0xE0 DUP10 ADD SWAP1 PUSH2 0x4018 JUMP JUMPDEST PUSH1 0x20 DUP10 ADD MLOAD DUP9 DUP3 SUB PUSH1 0x20 DUP11 ADD MSTORE PUSH2 0x4018 JUMP JUMPDEST PUSH1 0x40 DUP9 ADD MLOAD DUP8 DUP3 SUB PUSH1 0x40 DUP10 ADD MSTORE PUSH2 0x4018 JUMP JUMPDEST PUSH1 0x60 DUP8 ADD MLOAD DUP7 DUP3 SUB PUSH1 0x60 DUP9 ADD MSTORE PUSH2 0x4018 JUMP JUMPDEST PUSH1 0x80 DUP7 ADD MLOAD DUP6 DUP3 SUB PUSH1 0x80 DUP8 ADD MSTORE PUSH2 0x4018 JUMP JUMPDEST PUSH1 0xA0 DUP6 ADD MLOAD DUP5 DUP3 SUB PUSH1 0xA0 DUP7 ADD MSTORE PUSH2 0x4018 JUMP JUMPDEST SWAP3 ADD MLOAD SWAP1 PUSH1 0xC0 DUP2 DUP5 SUB SWAP2 ADD MSTORE PUSH2 0x4018 JUMP JUMPDEST DUP4 DUP2 SUB PUSH1 0x40 DUP6 ADD MSTORE PUSH1 0xA0 PUSH2 0x2319 PUSH2 0x2307 PUSH2 0x22F5 PUSH2 0x22E3 PUSH2 0x22D1 DUP8 MLOAD PUSH1 0xC0 DUP9 MSTORE PUSH1 0xC0 DUP9 ADD SWAP1 PUSH2 0x4018 JUMP JUMPDEST PUSH1 0x20 DUP9 ADD MLOAD DUP8 DUP3 SUB PUSH1 0x20 DUP10 ADD MSTORE PUSH2 0x4018 JUMP JUMPDEST PUSH1 0x40 DUP8 ADD MLOAD DUP7 DUP3 SUB PUSH1 0x40 DUP9 ADD MSTORE PUSH2 0x4018 JUMP JUMPDEST PUSH1 0x60 DUP7 ADD MLOAD DUP6 DUP3 SUB PUSH1 0x60 DUP8 ADD MSTORE PUSH2 0x4018 JUMP JUMPDEST PUSH1 0x80 DUP6 ADD MLOAD DUP5 DUP3 SUB PUSH1 0x80 DUP7 ADD MSTORE PUSH2 0x4018 JUMP JUMPDEST SWAP3 ADD MLOAD SWAP1 PUSH1 0xA0 DUP2 DUP5 SUB SWAP2 ADD MSTORE PUSH2 0x4018 JUMP JUMPDEST CALLVALUE PUSH2 0x277 JUMPI PUSH1 0x80 CALLDATASIZE PUSH1 0x3 NOT ADD SLT PUSH2 0x277 JUMPI PUSH1 0x4 CALLDATALOAD PUSH1 0x1 PUSH1 0x1 PUSH1 0x40 SHL SUB DUP2 GT PUSH2 0x277 JUMPI PUSH2 0x235A SWAP1 CALLDATASIZE SWAP1 PUSH1 0x4 ADD PUSH2 0x3C70 JUMP JUMPDEST PUSH1 0x24 CALLDATALOAD PUSH1 0x1 PUSH1 0x1 PUSH1 0x40 SHL SUB DUP2 GT PUSH2 0x277 JUMPI PUSH2 0x2379 SWAP1 CALLDATASIZE SWAP1 PUSH1 0x4 ADD PUSH2 0x3C70 JUMP JUMPDEST PUSH1 0x44 CALLDATALOAD PUSH1 0x1 PUSH1 0x1 PUSH1 0x40 SHL SUB DUP2 GT PUSH2 0x277 JUMPI PUSH2 0x2398 SWAP1 CALLDATASIZE SWAP1 PUSH1 0x4 ADD PUSH2 0x3C70 JUMP JUMPDEST SWAP1 PUSH1 0x64 CALLDATALOAD PUSH1 0x1 PUSH1 0x1 PUSH1 0x40 SHL SUB DUP2 GT PUSH2 0x277 JUMPI PUSH2 0x23B8 SWAP1 CALLDATASIZE SWAP1 PUSH1 0x4 ADD PUSH2 0x3C70 JUMP JUMPDEST PUSH1 0x40 MLOAD PUSH4 0x95A8C58D PUSH1 0xE0 SHL DUP2 MSTORE CALLER PUSH1 0x4 DUP3 ADD MSTORE PUSH1 0x2 PUSH1 0x24 DUP3 ADD MSTORE SWAP1 SWAP4 PUSH1 0x20 DUP3 PUSH1 0x44 DUP2 PUSH1 0x1 PUSH1 0x1 PUSH1 0xA0 SHL SUB PUSH32 0x0 AND GAS STATICCALL SWAP1 DUP2 ISZERO PUSH2 0x10B0 JUMPI PUSH2 0x2422 PUSH1 0x20 SWAP4 SWAP3 DUP5 SWAP4 PUSH0 SWAP2 PUSH2 0x2794 JUMPI POP PUSH2 0x41FC JUMP JUMPDEST PUSH1 0x40 MLOAD SWAP3 DUP2 DUP5 SWAP3 MLOAD SWAP2 DUP3 SWAP2 ADD DUP4 MCOPY DUP2 ADD PUSH0 DUP2 MSTORE SUB ADD SWAP1 KECCAK256 DUP2 MLOAD PUSH1 0x1 PUSH1 0x1 PUSH1 0x40 SHL SUB DUP2 GT PUSH2 0x951 JUMPI PUSH2 0x2453 DUP3 SLOAD PUSH2 0x3F40 JUMP JUMPDEST PUSH1 0x1F DUP2 GT PUSH2 0x2764 JUMPI JUMPDEST POP PUSH1 0x20 PUSH1 0x1F DUP3 GT PUSH1 0x1 EQ PUSH2 0x2704 JUMPI SWAP1 DUP1 PUSH2 0x2489 SWAP3 PUSH0 SWAP2 PUSH2 0x26F9 JUMPI POP DUP2 PUSH1 0x1 SHL SWAP2 PUSH0 NOT SWAP1 PUSH1 0x3 SHL SHR NOT AND OR SWAP1 JUMP JUMPDEST DUP2 SSTORE JUMPDEST PUSH1 0x1 DUP2 ADD PUSH1 0x2 PUSH1 0xFF NOT DUP3 SLOAD AND OR SWAP1 SSTORE TIMESTAMP PUSH1 0x4 DUP3 ADD SSTORE PUSH1 0xD DUP2 ADD DUP4 MLOAD PUSH1 0x1 PUSH1 0x1 PUSH1 0x40 SHL SUB DUP2 GT PUSH2 0x951 JUMPI PUSH2 0x24BF DUP3 SLOAD PUSH2 0x3F40 JUMP JUMPDEST PUSH1 0x1F DUP2 GT PUSH2 0x26C9 JUMPI JUMPDEST POP PUSH1 0x20 PUSH1 0x1F DUP3 GT PUSH1 0x1 EQ PUSH2 0x2669 JUMPI SWAP1 DUP1 PUSH2 0x24F5 SWAP3 PUSH0 SWAP2 PUSH2 0x265E JUMPI POP DUP2 PUSH1 0x1 SHL SWAP2 PUSH0 NOT SWAP1 PUSH1 0x3 SHL SHR NOT AND OR SWAP1 JUMP JUMPDEST SWAP1 SSTORE JUMPDEST PUSH1 0xE DUP2 ADD DUP1 SLOAD PUSH1 0x1 PUSH1 0x1 PUSH1 0xA0 SHL SUB NOT AND CALLER OR SWAP1 SSTORE TIMESTAMP PUSH1 0x82 DUP2 ADD SWAP2 SWAP1 DUP3 LT PUSH2 0x1CC1 JUMPI PUSH1 0xF SWAP2 PUSH1 0x7 DUP3 ADD SSTORE ADD DUP4 MLOAD PUSH1 0x1 PUSH1 0x1 PUSH1 0x40 SHL SUB DUP2 GT PUSH2 0x951 JUMPI PUSH2 0x253C DUP3 SLOAD PUSH2 0x3F40 JUMP JUMPDEST PUSH1 0x1F DUP2 GT PUSH2 0x262E JUMPI JUMPDEST POP PUSH1 0x20 PUSH1 0x1F DUP3 GT PUSH1 0x1 EQ PUSH2 0x25AB JUMPI SWAP1 DUP1 PUSH2 0x2595 SWAP3 PUSH32 0x98F6EDA79CE4C4856715A86ECDF2CB7ECE1A5DE8ADF3DE249B2CE9017B0E5810 SWAP8 PUSH0 SWAP3 PUSH2 0xBC2 JUMPI POP POP DUP2 PUSH1 0x1 SHL SWAP2 PUSH0 NOT SWAP1 PUSH1 0x3 SHL SHR NOT AND OR SWAP1 JUMP JUMPDEST SWAP1 SSTORE JUMPDEST PUSH2 0x879 PUSH1 0x40 MLOAD SWAP3 DUP4 SWAP3 TIMESTAMP SWAP2 CALLER SWAP1 DUP6 PUSH2 0x4234 JUMP JUMPDEST PUSH1 0x1F NOT DUP3 AND SWAP6 DUP4 PUSH0 MSTORE DUP2 PUSH0 KECCAK256 SWAP7 PUSH0 JUMPDEST DUP2 DUP2 LT PUSH2 0x2616 JUMPI POP SWAP2 PUSH32 0x98F6EDA79CE4C4856715A86ECDF2CB7ECE1A5DE8ADF3DE249B2CE9017B0E5810 SWAP8 SWAP2 DUP5 PUSH1 0x1 SWAP6 SWAP5 LT PUSH2 0x25FE JUMPI JUMPDEST POP POP POP DUP2 SHL ADD SWAP1 SSTORE PUSH2 0x2598 JUMP JUMPDEST ADD MLOAD PUSH0 NOT PUSH1 0xF8 DUP5 PUSH1 0x3 SHL AND SHR NOT AND SWAP1 SSTORE DUP7 DUP1 DUP1 PUSH2 0x25F1 JUMP JUMPDEST DUP4 DUP4 ADD MLOAD DUP10 SSTORE PUSH1 0x1 SWAP1 SWAP9 ADD SWAP8 PUSH1 0x20 SWAP4 DUP5 ADD SWAP4 ADD PUSH2 0x25BA JUMP JUMPDEST PUSH2 0x2658 SWAP1 DUP4 PUSH0 MSTORE PUSH1 0x20 PUSH0 KECCAK256 PUSH1 0x1F DUP5 ADD PUSH1 0x5 SHR DUP2 ADD SWAP2 PUSH1 0x20 DUP6 LT PUSH2 0x947 JUMPI PUSH1 0x1F ADD PUSH1 0x5 SHR ADD SWAP1 PUSH2 0x40E9 JUMP JUMPDEST DUP6 PUSH2 0x2545 JUMP JUMPDEST SWAP1 POP DUP7 ADD MLOAD DUP9 PUSH2 0x1396 JUMP JUMPDEST PUSH1 0x1F NOT DUP3 AND SWAP1 DUP4 PUSH0 MSTORE DUP1 PUSH0 KECCAK256 SWAP2 PUSH0 JUMPDEST DUP2 DUP2 LT PUSH2 0x26B1 JUMPI POP SWAP1 DUP4 PUSH1 0x1 SWAP5 SWAP4 SWAP3 LT PUSH2 0x2699 JUMPI JUMPDEST POP POP DUP2 SHL ADD SWAP1 SSTORE PUSH2 0x24F8 JUMP JUMPDEST DUP8 ADD MLOAD PUSH0 NOT PUSH1 0xF8 DUP5 PUSH1 0x3 SHL AND SHR NOT AND SWAP1 SSTORE DUP8 DUP1 PUSH2 0x268D JUMP JUMPDEST SWAP2 SWAP3 PUSH1 0x20 PUSH1 0x1 DUP2 SWAP3 DUP7 DUP13 ADD MLOAD DUP2 SSTORE ADD SWAP5 ADD SWAP3 ADD PUSH2 0x2678 JUMP JUMPDEST PUSH2 0x26F3 SWAP1 DUP4 PUSH0 MSTORE PUSH1 0x20 PUSH0 KECCAK256 PUSH1 0x1F DUP5 ADD PUSH1 0x5 SHR DUP2 ADD SWAP2 PUSH1 0x20 DUP6 LT PUSH2 0x947 JUMPI PUSH1 0x1F ADD PUSH1 0x5 SHR ADD SWAP1 PUSH2 0x40E9 JUMP JUMPDEST DUP7 PUSH2 0x24C8 JUMP JUMPDEST SWAP1 POP DUP5 ADD MLOAD DUP8 PUSH2 0x1396 JUMP JUMPDEST PUSH1 0x1F NOT DUP3 AND SWAP1 DUP4 PUSH0 MSTORE DUP1 PUSH0 KECCAK256 SWAP2 PUSH0 JUMPDEST DUP2 DUP2 LT PUSH2 0x274C JUMPI POP SWAP1 DUP4 PUSH1 0x1 SWAP5 SWAP4 SWAP3 LT PUSH2 0x2734 JUMPI JUMPDEST POP POP DUP2 SHL ADD DUP2 SSTORE PUSH2 0x248C JUMP JUMPDEST DUP6 ADD MLOAD PUSH0 NOT PUSH1 0xF8 DUP5 PUSH1 0x3 SHL AND SHR NOT AND SWAP1 SSTORE DUP7 DUP1 PUSH2 0x2728 JUMP JUMPDEST SWAP2 SWAP3 PUSH1 0x20 PUSH1 0x1 DUP2 SWAP3 DUP7 DUP11 ADD MLOAD DUP2 SSTORE ADD SWAP5 ADD SWAP3 ADD PUSH2 0x2713 JUMP JUMPDEST PUSH2 0x278E SWAP1 DUP4 PUSH0 MSTORE PUSH1 0x20 PUSH0 KECCAK256 PUSH1 0x1F DUP5 ADD PUSH1 0x5 SHR DUP2 ADD SWAP2 PUSH1 0x20 DUP6 LT PUSH2 0x947 JUMPI PUSH1 0x1F ADD PUSH1 0x5 SHR ADD SWAP1 PUSH2 0x40E9 JUMP JUMPDEST DUP6 PUSH2 0x245C JUMP JUMPDEST PUSH2 0x27AB SWAP2 POP DUP5 RETURNDATASIZE DUP7 GT PUSH2 0x10A9 JUMPI PUSH2 0x109B DUP2 DUP4 PUSH2 0x3C4F JUMP JUMPDEST DUP9 PUSH2 0x12F7 JUMP JUMPDEST CALLVALUE PUSH2 0x277 JUMPI PUSH1 0x60 CALLDATASIZE PUSH1 0x3 NOT ADD SLT PUSH2 0x277 JUMPI PUSH1 0x4 CALLDATALOAD PUSH1 0x1 PUSH1 0x1 PUSH1 0x40 SHL SUB DUP2 GT PUSH2 0x277 JUMPI PUSH2 0x27E1 SWAP1 CALLDATASIZE SWAP1 PUSH1 0x4 ADD PUSH2 0x3C70 JUMP JUMPDEST PUSH1 0x24 CALLDATALOAD PUSH1 0x1 PUSH1 0x1 PUSH1 0x40 SHL SUB DUP2 GT PUSH2 0x277 JUMPI PUSH2 0x2800 SWAP1 CALLDATASIZE SWAP1 PUSH1 0x4 ADD PUSH2 0x3C70 JUMP JUMPDEST PUSH1 0x44 CALLDATALOAD PUSH1 0x1 PUSH1 0x1 PUSH1 0x40 SHL SUB DUP2 GT PUSH2 0x277 JUMPI PUSH2 0x281F SWAP1 CALLDATASIZE SWAP1 PUSH1 0x4 ADD PUSH2 0x3C70 JUMP JUMPDEST PUSH1 0x40 MLOAD PUSH4 0x95A8C58D PUSH1 0xE0 SHL DUP2 MSTORE CALLER PUSH1 0x4 DUP3 ADD MSTORE PUSH1 0x2 PUSH1 0x24 DUP3 ADD MSTORE SWAP1 SWAP2 SWAP1 PUSH1 0x20 DUP2 PUSH1 0x44 DUP2 PUSH1 0x1 PUSH1 0x1 PUSH1 0xA0 SHL SUB PUSH32 0x0 AND GAS STATICCALL DUP1 ISZERO PUSH2 0x10B0 JUMPI PUSH2 0x2884 SWAP2 PUSH0 SWAP2 PUSH2 0x2B03 JUMPI POP PUSH2 0x41FC JUMP JUMPDEST PUSH1 0x40 MLOAD DUP4 MLOAD SWAP1 PUSH1 0x20 DUP2 DUP2 DUP8 ADD SWAP4 DUP1 DUP6 DUP4 MCOPY DUP2 ADD PUSH0 DUP2 MSTORE SUB ADD SWAP1 KECCAK256 SWAP4 PUSH1 0x1 DUP6 ADD PUSH1 0x3 PUSH1 0xFF NOT DUP3 SLOAD AND OR SWAP1 SSTORE PUSH1 0xD DUP6 ADD SWAP5 DUP4 MLOAD SWAP6 PUSH1 0x1 PUSH1 0x1 PUSH1 0x40 SHL SUB DUP8 GT PUSH2 0x951 JUMPI PUSH2 0x28CE DUP2 SLOAD PUSH2 0x3F40 JUMP JUMPDEST PUSH1 0x1F DUP2 GT PUSH2 0x2AD3 JUMPI JUMPDEST POP PUSH1 0x20 SWAP7 PUSH1 0x1F DUP2 GT PUSH1 0x1 EQ PUSH2 0x2A6F JUMPI DUP1 PUSH2 0x290A SWAP2 PUSH1 0x20 SWAP7 SWAP8 SWAP9 SWAP10 PUSH0 SWAP2 PUSH2 0x2A64 JUMPI POP DUP2 PUSH1 0x1 SHL SWAP2 PUSH0 NOT SWAP1 PUSH1 0x3 SHL SHR NOT AND OR SWAP1 JUMP JUMPDEST SWAP1 SSTORE JUMPDEST PUSH1 0xE DUP2 ADD DUP1 SLOAD PUSH1 0x1 PUSH1 0x1 PUSH1 0xA0 SHL SUB NOT AND CALLER OR SWAP1 SSTORE TIMESTAMP PUSH1 0x5 SWAP1 SWAP2 ADD SSTORE PUSH1 0x40 MLOAD SWAP1 MLOAD SWAP1 SWAP3 DUP4 SWAP2 SWAP1 DUP2 SWAP1 DUP4 MCOPY DUP2 ADD PUSH1 0x1 DUP2 MSTORE SUB ADD SWAP1 KECCAK256 SWAP2 DUP1 MLOAD SWAP3 PUSH1 0x1 PUSH1 0x1 PUSH1 0x40 SHL SUB DUP5 GT PUSH2 0x951 JUMPI PUSH2 0x295C DUP2 SLOAD PUSH2 0x3F40 JUMP JUMPDEST PUSH1 0x1F DUP2 GT PUSH2 0x2A34 JUMPI JUMPDEST POP PUSH1 0x20 SWAP4 PUSH1 0x1F DUP2 GT PUSH1 0x1 EQ PUSH2 0x29B4 JUMPI DUP1 PUSH2 0x2595 SWAP2 PUSH32 0x81B3714F32E3DD3D8FAA1A5F7732E52E015BE62219A6EAE68D1A779F682DB80B SWAP7 PUSH0 SWAP2 PUSH2 0x26F9 JUMPI POP DUP2 PUSH1 0x1 SHL SWAP2 PUSH0 NOT SWAP1 PUSH1 0x3 SHL SHR NOT AND OR SWAP1 JUMP JUMPDEST PUSH1 0x1F NOT DUP2 AND DUP3 PUSH0 MSTORE DUP6 PUSH0 KECCAK256 SWAP1 PUSH0 JUMPDEST DUP2 DUP2 LT PUSH2 0x2A1C JUMPI POP SWAP1 PUSH32 0x81B3714F32E3DD3D8FAA1A5F7732E52E015BE62219A6EAE68D1A779F682DB80B SWAP7 DUP4 PUSH1 0x1 SWAP5 SWAP4 LT PUSH2 0x2A04 JUMPI JUMPDEST POP POP DUP2 SHL ADD SWAP1 SSTORE PUSH2 0x2598 JUMP JUMPDEST DUP6 ADD MLOAD PUSH0 NOT PUSH1 0xF8 DUP5 PUSH1 0x3 SHL AND SHR NOT AND SWAP1 SSTORE DUP7 DUP1 PUSH2 0x29F8 JUMP JUMPDEST DUP6 DUP9 ADD MLOAD DUP4 SSTORE PUSH1 0x20 SWAP8 DUP9 ADD SWAP8 PUSH1 0x1 SWAP1 SWAP4 ADD SWAP3 ADD PUSH2 0x29C2 JUMP JUMPDEST PUSH2 0x2A5E SWAP1 DUP3 PUSH0 MSTORE PUSH1 0x20 PUSH0 KECCAK256 PUSH1 0x1F DUP8 ADD PUSH1 0x5 SHR DUP2 ADD SWAP2 PUSH1 0x20 DUP9 LT PUSH2 0x947 JUMPI PUSH1 0x1F ADD PUSH1 0x5 SHR ADD SWAP1 PUSH2 0x40E9 JUMP JUMPDEST DUP5 PUSH2 0x2965 JUMP JUMPDEST SWAP1 POP DUP9 ADD MLOAD DUP11 PUSH2 0x1396 JUMP JUMPDEST PUSH1 0x1F NOT DUP2 AND DUP3 PUSH0 MSTORE DUP9 PUSH0 KECCAK256 SWAP1 PUSH0 JUMPDEST DUP2 DUP2 LT PUSH2 0x2ABB JUMPI POP SWAP1 PUSH1 0x20 SWAP7 SWAP8 SWAP9 SWAP10 DUP4 PUSH1 0x1 SWAP5 SWAP4 LT PUSH2 0x2AA3 JUMPI JUMPDEST POP POP DUP2 SHL ADD SWAP1 SSTORE PUSH2 0x290D JUMP JUMPDEST DUP10 ADD MLOAD PUSH0 NOT PUSH1 0xF8 DUP5 PUSH1 0x3 SHL AND SHR NOT AND SWAP1 SSTORE DUP10 DUP1 PUSH2 0x2A97 JUMP JUMPDEST DUP9 DUP12 ADD MLOAD DUP4 SSTORE PUSH1 0x20 SWAP11 DUP12 ADD SWAP11 PUSH1 0x1 SWAP1 SWAP4 ADD SWAP3 ADD PUSH2 0x2A7D JUMP JUMPDEST PUSH2 0x2AFD SWAP1 DUP3 PUSH0 MSTORE PUSH1 0x20 PUSH0 KECCAK256 PUSH1 0x1F DUP11 ADD PUSH1 0x5 SHR DUP2 ADD SWAP2 PUSH1 0x20 DUP12 LT PUSH2 0x947 JUMPI PUSH1 0x1F ADD PUSH1 0x5 SHR ADD SWAP1 PUSH2 0x40E9 JUMP JUMPDEST DUP8 PUSH2 0x28D7 JUMP JUMPDEST PUSH2 0x2B1C SWAP2 POP PUSH1 0x20 RETURNDATASIZE PUSH1 0x20 GT PUSH2 0x10A9 JUMPI PUSH2 0x109B DUP2 DUP4 PUSH2 0x3C4F JUMP JUMPDEST DUP6 PUSH2 0x12F7 JUMP JUMPDEST CALLVALUE PUSH2 0x277 JUMPI PUSH1 0x20 CALLDATASIZE PUSH1 0x3 NOT ADD SLT PUSH2 0x277 JUMPI PUSH1 0x4 CALLDATALOAD PUSH1 0x1 PUSH1 0x1 PUSH1 0x40 SHL SUB DUP2 GT PUSH2 0x277 JUMPI PUSH2 0x1274 PUSH1 0x20 DUP1 PUSH2 0x2B5B PUSH2 0x1288 SWAP5 CALLDATASIZE SWAP1 PUSH1 0x4 ADD PUSH2 0x3C70 JUMP JUMPDEST PUSH1 0x40 MLOAD SWAP3 DUP2 DUP5 SWAP3 MLOAD SWAP2 DUP3 SWAP2 ADD DUP4 MCOPY DUP2 ADD PUSH1 0x2 DUP2 MSTORE SUB ADD SWAP1 KECCAK256 PUSH2 0x3F78 JUMP JUMPDEST CALLVALUE PUSH2 0x277 JUMPI PUSH1 0x20 CALLDATASIZE PUSH1 0x3 NOT ADD SLT PUSH2 0x277 JUMPI PUSH1 0x4 CALLDATALOAD PUSH1 0x1 PUSH1 0x1 PUSH1 0x40 SHL SUB DUP2 GT PUSH2 0x277 JUMPI PUSH1 0x20 PUSH2 0x2BAB DUP2 SWAP3 CALLDATASIZE SWAP1 PUSH1 0x4 ADD PUSH2 0x3C70 JUMP JUMPDEST PUSH1 0x40 MLOAD SWAP3 DUP2 DUP5 SWAP3 MLOAD SWAP2 DUP3 SWAP2 ADD DUP4 MCOPY DUP2 ADD PUSH1 0x3 DUP2 MSTORE SUB ADD SWAP1 KECCAK256 PUSH1 0xE0 PUSH2 0x1288 PUSH2 0x2BD1 DUP4 PUSH2 0x3F78 JUMP JUMPDEST SWAP3 PUSH2 0x2C86 PUSH2 0x2BE1 PUSH1 0x1 DUP4 ADD PUSH2 0x3F78 JUMP JUMPDEST SWAP2 PUSH2 0x2C78 PUSH2 0x2BF1 PUSH1 0x2 DUP4 ADD PUSH2 0x3F78 JUMP JUMPDEST PUSH2 0x2C6A PUSH2 0x2C00 PUSH1 0x3 DUP6 ADD PUSH2 0x3F78 JUMP JUMPDEST PUSH2 0x2C5C PUSH2 0x2C0F PUSH1 0x4 DUP8 ADD PUSH2 0x3F78 JUMP JUMPDEST SWAP4 PUSH2 0x2C4E PUSH2 0x2C2B PUSH1 0x6 PUSH2 0x2C24 PUSH1 0x5 DUP12 ADD PUSH2 0x3F78 JUMP JUMPDEST SWAP10 ADD PUSH2 0x3F78 JUMP JUMPDEST SWAP10 PUSH2 0x2C40 PUSH1 0x40 MLOAD SWAP15 DUP16 SWAP15 DUP16 DUP2 DUP2 MSTORE ADD SWAP1 PUSH2 0x4018 JUMP JUMPDEST DUP14 DUP2 SUB PUSH1 0x20 DUP16 ADD MSTORE SWAP1 PUSH2 0x4018 JUMP JUMPDEST SWAP1 DUP12 DUP3 SUB PUSH1 0x40 DUP14 ADD MSTORE PUSH2 0x4018 JUMP JUMPDEST SWAP1 DUP10 DUP3 SUB PUSH1 0x60 DUP12 ADD MSTORE PUSH2 0x4018 JUMP JUMPDEST SWAP1 DUP8 DUP3 SUB PUSH1 0x80 DUP10 ADD MSTORE PUSH2 0x4018 JUMP JUMPDEST SWAP1 DUP6 DUP3 SUB PUSH1 0xA0 DUP8 ADD MSTORE PUSH2 0x4018 JUMP JUMPDEST SWAP1 DUP4 DUP3 SUB PUSH1 0xC0 DUP6 ADD MSTORE PUSH2 0x4018 JUMP JUMPDEST CALLVALUE PUSH2 0x277 JUMPI PUSH1 0x20 CALLDATASIZE PUSH1 0x3 NOT ADD SLT PUSH2 0x277 JUMPI PUSH1 0x4 CALLDATALOAD PUSH1 0x1 PUSH1 0x1 PUSH1 0x40 SHL SUB DUP2 GT PUSH2 0x277 JUMPI PUSH2 0x2CC4 SWAP1 CALLDATASIZE SWAP1 PUSH1 0x4 ADD PUSH2 0x3C70 JUMP JUMPDEST PUSH1 0x40 MLOAD PUSH4 0x95A8C58D PUSH1 0xE0 SHL DUP2 MSTORE CALLER PUSH1 0x4 DUP3 ADD MSTORE PUSH0 PUSH1 0x24 DUP3 ADD MSTORE SWAP1 PUSH1 0x20 DUP3 PUSH1 0x44 DUP2 PUSH1 0x1 PUSH1 0x1 PUSH1 0xA0 SHL SUB PUSH32 0x0 AND GAS STATICCALL SWAP1 DUP2 ISZERO PUSH2 0x10B0 JUMPI PUSH2 0x2D2C PUSH1 0x20 SWAP4 SWAP3 DUP5 SWAP4 PUSH0 SWAP2 PUSH2 0x2D98 JUMPI POP PUSH2 0x40AE JUMP JUMPDEST PUSH1 0x40 MLOAD SWAP3 DUP2 DUP5 SWAP3 MLOAD SWAP2 DUP3 SWAP2 ADD DUP4 MCOPY PUSH0 SWAP1 DUP3 ADD SWAP1 DUP2 MSTORE SUB ADD SWAP1 KECCAK256 PUSH1 0x1 DUP2 ADD DUP1 SLOAD PUSH1 0xFF NOT AND PUSH1 0x9 OR SWAP1 SSTORE TIMESTAMP PUSH1 0xA SWAP1 SWAP2 ADD DUP2 SWAP1 SSTORE PUSH1 0x40 DUP1 MLOAD CALLER DUP2 MSTORE PUSH1 0x20 DUP2 ADD SWAP3 SWAP1 SWAP3 MSTORE PUSH32 0x6623D3BE3FD8E6EC82AA51CC5A014832DE51D50025180C14D48276C8F011853B SWAP2 SWAP1 DUP2 SWAP1 DUP2 ADD PUSH2 0x879 JUMP JUMPDEST PUSH2 0x10A3 SWAP2 POP DUP5 RETURNDATASIZE DUP7 GT PUSH2 0x10A9 JUMPI PUSH2 0x109B DUP2 DUP4 PUSH2 0x3C4F JUMP JUMPDEST CALLVALUE PUSH2 0x277 JUMPI PUSH2 0x2DBD CALLDATASIZE PUSH2 0x3CC5 JUMP JUMPDEST PUSH1 0x40 MLOAD PUSH4 0x95A8C58D PUSH1 0xE0 SHL DUP2 MSTORE CALLER PUSH1 0x4 DUP3 ADD MSTORE PUSH0 PUSH1 0x24 DUP3 ADD MSTORE SWAP1 SWAP3 SWAP1 PUSH1 0x20 DUP2 PUSH1 0x44 DUP2 PUSH1 0x1 PUSH1 0x1 PUSH1 0xA0 SHL SUB PUSH32 0x0 AND GAS STATICCALL DUP1 ISZERO PUSH2 0x10B0 JUMPI PUSH2 0x2E21 SWAP2 PUSH0 SWAP2 PUSH2 0x1081 JUMPI POP PUSH2 0x40AE JUMP JUMPDEST PUSH1 0x40 MLOAD SWAP2 DUP2 MLOAD SWAP3 PUSH1 0x20 DUP2 DUP2 DUP6 ADD SWAP6 DUP1 DUP8 DUP4 MCOPY DUP2 ADD PUSH0 DUP2 MSTORE SUB ADD SWAP1 KECCAK256 PUSH1 0x1 DUP2 ADD PUSH1 0x4 PUSH1 0xFF NOT DUP3 SLOAD AND OR SWAP1 SSTORE PUSH1 0x6 TIMESTAMP SWAP2 ADD SSTORE PUSH2 0x2EB7 PUSH1 0x6 PUSH1 0x40 MLOAD PUSH1 0x20 DUP2 DUP7 MLOAD DUP1 DUP10 DUP4 MCOPY DUP2 ADD PUSH1 0x3 DUP2 MSTORE SUB ADD SWAP1 KECCAK256 PUSH2 0x2E75 DUP2 PUSH2 0x40FF JUMP JUMPDEST PUSH2 0x2E81 PUSH1 0x1 DUP3 ADD PUSH2 0x40FF JUMP JUMPDEST PUSH2 0x2E8D PUSH1 0x2 DUP3 ADD PUSH2 0x40FF JUMP JUMPDEST PUSH2 0x2E99 PUSH1 0x3 DUP3 ADD PUSH2 0x40FF JUMP JUMPDEST PUSH2 0x2EA5 PUSH1 0x4 DUP3 ADD PUSH2 0x40FF JUMP JUMPDEST PUSH2 0x2EB1 PUSH1 0x5 DUP3 ADD PUSH2 0x40FF JUMP JUMPDEST ADD PUSH2 0x40FF JUMP JUMPDEST PUSH2 0x2F0B PUSH1 0x5 PUSH1 0x40 MLOAD PUSH1 0x20 DUP2 DUP7 MLOAD DUP1 DUP10 DUP4 MCOPY DUP2 ADD PUSH1 0x4 DUP2 MSTORE SUB ADD SWAP1 KECCAK256 PUSH2 0x2EDB DUP2 PUSH2 0x40FF JUMP JUMPDEST PUSH2 0x2EE7 PUSH1 0x1 DUP3 ADD PUSH2 0x40FF JUMP JUMPDEST PUSH2 0x2EF3 PUSH1 0x2 DUP3 ADD PUSH2 0x40FF JUMP JUMPDEST PUSH2 0x2EFF PUSH1 0x3 DUP3 ADD PUSH2 0x40FF JUMP JUMPDEST PUSH2 0x2EB1 PUSH1 0x4 DUP3 ADD PUSH2 0x40FF JUMP JUMPDEST PUSH1 0x40 MLOAD PUSH1 0x20 DUP2 DUP5 MLOAD DUP1 DUP8 DUP4 MCOPY DUP2 ADD PUSH1 0x3 DUP2 MSTORE SUB ADD SWAP1 KECCAK256 DUP2 MLOAD DUP1 MLOAD SWAP1 PUSH1 0x1 PUSH1 0x1 PUSH1 0x40 SHL SUB DUP3 GT PUSH2 0x951 JUMPI PUSH2 0x2F3E DUP4 SLOAD PUSH2 0x3F40 JUMP JUMPDEST PUSH1 0x1F DUP2 GT PUSH2 0x3B8C JUMPI JUMPDEST POP PUSH1 0x20 SWAP1 PUSH1 0x1F DUP4 GT PUSH1 0x1 EQ PUSH2 0x3B29 JUMPI PUSH2 0x2F76 SWAP3 SWAP2 PUSH0 SWAP2 DUP4 PUSH2 0x9FE JUMPI POP POP DUP2 PUSH1 0x1 SHL SWAP2 PUSH0 NOT SWAP1 PUSH1 0x3 SHL SHR NOT AND OR SWAP1 JUMP JUMPDEST DUP2 SSTORE JUMPDEST PUSH1 0x1 DUP2 ADD PUSH1 0x20 DUP4 ADD MLOAD DUP1 MLOAD SWAP1 PUSH1 0x1 PUSH1 0x1 PUSH1 0x40 SHL SUB DUP3 GT PUSH2 0x951 JUMPI PUSH2 0x2F9D DUP4 SLOAD PUSH2 0x3F40 JUMP JUMPDEST PUSH1 0x1F DUP2 GT PUSH2 0x3AF9 JUMPI JUMPDEST POP PUSH1 0x20 SWAP1 PUSH1 0x1F DUP4 GT PUSH1 0x1 EQ PUSH2 0x3A96 JUMPI PUSH2 0x2FD5 SWAP3 SWAP2 PUSH0 SWAP2 DUP4 PUSH2 0xD97 JUMPI POP POP DUP2 PUSH1 0x1 SHL SWAP2 PUSH0 NOT SWAP1 PUSH1 0x3 SHL SHR NOT AND OR SWAP1 JUMP JUMPDEST SWAP1 SSTORE JUMPDEST PUSH1 0x2 DUP2 ADD PUSH1 0x40 DUP4 ADD MLOAD DUP1 MLOAD SWAP1 PUSH1 0x1 PUSH1 0x1 PUSH1 0x40 SHL SUB DUP3 GT PUSH2 0x951 JUMPI PUSH2 0x2FFC DUP4 SLOAD PUSH2 0x3F40 JUMP JUMPDEST PUSH1 0x1F DUP2 GT PUSH2 0x3A66 JUMPI JUMPDEST POP PUSH1 0x20 SWAP1 PUSH1 0x1F DUP4 GT PUSH1 0x1 EQ PUSH2 0x3A03 JUMPI PUSH2 0x3034 SWAP3 SWAP2 PUSH0 SWAP2 DUP4 PUSH2 0xD97 JUMPI POP POP DUP2 PUSH1 0x1 SHL SWAP2 PUSH0 NOT SWAP1 PUSH1 0x3 SHL SHR NOT AND OR SWAP1 JUMP JUMPDEST SWAP1 SSTORE JUMPDEST PUSH1 0x3 DUP2 ADD PUSH1 0x60 DUP4 ADD MLOAD DUP1 MLOAD SWAP1 PUSH1 0x1 PUSH1 0x1 PUSH1 0x40 SHL SUB DUP3 GT PUSH2 0x951 JUMPI PUSH2 0x305B DUP4 SLOAD PUSH2 0x3F40 JUMP JUMPDEST PUSH1 0x1F DUP2 GT PUSH2 0x39D3 JUMPI JUMPDEST POP PUSH1 0x20 SWAP1 PUSH1 0x1F DUP4 GT PUSH1 0x1 EQ PUSH2 0x3970 JUMPI PUSH2 0x3093 SWAP3 SWAP2 PUSH0 SWAP2 DUP4 PUSH2 0xD97 JUMPI POP POP DUP2 PUSH1 0x1 SHL SWAP2 PUSH0 NOT SWAP1 PUSH1 0x3 SHL SHR NOT AND OR SWAP1 JUMP JUMPDEST SWAP1 SSTORE JUMPDEST PUSH1 0x4 DUP2 ADD PUSH1 0x80 DUP4 ADD MLOAD DUP1 MLOAD SWAP1 PUSH1 0x1 PUSH1 0x1 PUSH1 0x40 SHL SUB DUP3 GT PUSH2 0x951 JUMPI PUSH2 0x30BA DUP4 SLOAD PUSH2 0x3F40 JUMP JUMPDEST PUSH1 0x1F DUP2 GT PUSH2 0x3940 JUMPI JUMPDEST POP PUSH1 0x20 SWAP1 PUSH1 0x1F DUP4 GT PUSH1 0x1 EQ PUSH2 0x38DD JUMPI PUSH2 0x30F2 SWAP3 SWAP2 PUSH0 SWAP2 DUP4 PUSH2 0xD97 JUMPI POP POP DUP2 PUSH1 0x1 SHL SWAP2 PUSH0 NOT SWAP1 PUSH1 0x3 SHL SHR NOT AND OR SWAP1 JUMP JUMPDEST SWAP1 SSTORE JUMPDEST PUSH1 0x5 DUP2 ADD PUSH1 0xA0 DUP4 ADD MLOAD DUP1 MLOAD SWAP1 PUSH1 0x1 PUSH1 0x1 PUSH1 0x40 SHL SUB DUP3 GT PUSH2 0x951 JUMPI PUSH2 0x3119 DUP4 SLOAD PUSH2 0x3F40 JUMP JUMPDEST PUSH1 0x1F DUP2 GT PUSH2 0x38AD JUMPI JUMPDEST POP PUSH1 0x20 SWAP1 PUSH1 0x1F DUP4 GT PUSH1 0x1 EQ PUSH2 0x3844 JUMPI DUP3 PUSH1 0xC0 SWAP6 SWAP4 PUSH1 0x6 SWAP6 SWAP4 PUSH2 0x3158 SWAP4 PUSH0 SWAP3 PUSH2 0xCF3 JUMPI POP POP DUP2 PUSH1 0x1 SHL SWAP2 PUSH0 NOT SWAP1 PUSH1 0x3 SHL SHR NOT AND OR SWAP1 JUMP JUMPDEST SWAP1 SSTORE JUMPDEST ADD SWAP2 ADD MLOAD DUP1 MLOAD SWAP1 PUSH1 0x1 PUSH1 0x1 PUSH1 0x40 SHL SUB DUP3 GT PUSH2 0x951 JUMPI PUSH2 0x317A DUP4 SLOAD PUSH2 0x3F40 JUMP JUMPDEST PUSH1 0x1F DUP2 GT PUSH2 0x3814 JUMPI JUMPDEST POP PUSH1 0x20 SWAP1 PUSH1 0x1F DUP4 GT PUSH1 0x1 EQ PUSH2 0x37B1 JUMPI PUSH2 0x31B2 SWAP3 SWAP2 PUSH0 SWAP2 DUP4 PUSH2 0xBC2 JUMPI POP POP DUP2 PUSH1 0x1 SHL SWAP2 PUSH0 NOT SWAP1 PUSH1 0x3 SHL SHR NOT AND OR SWAP1 JUMP JUMPDEST SWAP1 SSTORE JUMPDEST PUSH1 0x40 MLOAD PUSH1 0x20 DUP2 DUP4 MLOAD DUP1 DUP7 DUP4 MCOPY DUP2 ADD PUSH1 0x4 DUP2 MSTORE SUB ADD SWAP1 KECCAK256 DUP4 MLOAD DUP1 MLOAD SWAP1 PUSH1 0x1 PUSH1 0x1 PUSH1 0x40 SHL SUB DUP3 GT PUSH2 0x951 JUMPI PUSH2 0x31E8 DUP4 SLOAD PUSH2 0x3F40 JUMP JUMPDEST PUSH1 0x1F DUP2 GT PUSH2 0x3781 JUMPI JUMPDEST POP PUSH1 0x20 SWAP1 PUSH1 0x1F DUP4 GT PUSH1 0x1 EQ PUSH2 0x371E JUMPI PUSH2 0x3220 SWAP3 SWAP2 PUSH0 SWAP2 DUP4 PUSH2 0xBC2 JUMPI POP POP DUP2 PUSH1 0x1 SHL SWAP2 PUSH0 NOT SWAP1 PUSH1 0x3 SHL SHR NOT AND OR SWAP1 JUMP JUMPDEST DUP2 SSTORE JUMPDEST PUSH1 0x1 DUP2 ADD PUSH1 0x20 DUP6 ADD MLOAD DUP1 MLOAD SWAP1 PUSH1 0x1 PUSH1 0x1 PUSH1 0x40 SHL SUB DUP3 GT PUSH2 0x951 JUMPI PUSH2 0x3247 DUP4 SLOAD PUSH2 0x3F40 JUMP JUMPDEST PUSH1 0x1F DUP2 GT PUSH2 0x36EE JUMPI JUMPDEST POP PUSH1 0x20 SWAP1 PUSH1 0x1F DUP4 GT PUSH1 0x1 EQ PUSH2 0x368B JUMPI PUSH2 0x327F SWAP3 SWAP2 PUSH0 SWAP2 DUP4 PUSH2 0x9FE JUMPI POP POP DUP2 PUSH1 0x1 SHL SWAP2 PUSH0 NOT SWAP1 PUSH1 0x3 SHL SHR NOT AND OR SWAP1 JUMP JUMPDEST SWAP1 SSTORE JUMPDEST PUSH1 0x2 DUP2 ADD PUSH1 0x40 DUP6 ADD MLOAD DUP1 MLOAD SWAP1 PUSH1 0x1 PUSH1 0x1 PUSH1 0x40 SHL SUB DUP3 GT PUSH2 0x951 JUMPI PUSH2 0x32A6 DUP4 SLOAD PUSH2 0x3F40 JUMP JUMPDEST PUSH1 0x1F DUP2 GT PUSH2 0x365B JUMPI JUMPDEST POP PUSH1 0x20 SWAP1 PUSH1 0x1F DUP4 GT PUSH1 0x1 EQ PUSH2 0x35F8 JUMPI PUSH2 0x32DE SWAP3 SWAP2 PUSH0 SWAP2 DUP4 PUSH2 0x9FE JUMPI POP POP DUP2 PUSH1 0x1 SHL SWAP2 PUSH0 NOT SWAP1 PUSH1 0x3 SHL SHR NOT AND OR SWAP1 JUMP JUMPDEST SWAP1 SSTORE JUMPDEST PUSH1 0x3 DUP2 ADD PUSH1 0x60 DUP6 ADD MLOAD DUP1 MLOAD SWAP1 PUSH1 0x1 PUSH1 0x1 PUSH1 0x40 SHL SUB DUP3 GT PUSH2 0x951 JUMPI PUSH2 0x3305 DUP4 SLOAD PUSH2 0x3F40 JUMP JUMPDEST PUSH1 0x1F DUP2 GT PUSH2 0x35C8 JUMPI JUMPDEST POP PUSH1 0x20 SWAP1 PUSH1 0x1F DUP4 GT PUSH1 0x1 EQ PUSH2 0x3565 JUMPI PUSH2 0x333D SWAP3 SWAP2 PUSH0 SWAP2 DUP4 PUSH2 0x9FE JUMPI POP POP DUP2 PUSH1 0x1 SHL SWAP2 PUSH0 NOT SWAP1 PUSH1 0x3 SHL SHR NOT AND OR SWAP1 JUMP JUMPDEST SWAP1 SSTORE JUMPDEST PUSH1 0x4 DUP2 ADD PUSH1 0x80 DUP6 ADD MLOAD DUP1 MLOAD SWAP1 PUSH1 0x1 PUSH1 0x1 PUSH1 0x40 SHL SUB DUP3 GT PUSH2 0x951 JUMPI PUSH2 0x3364 DUP4 SLOAD PUSH2 0x3F40 JUMP JUMPDEST PUSH1 0x1F DUP2 GT PUSH2 0x3535 JUMPI JUMPDEST POP PUSH1 0x20 SWAP1 PUSH1 0x1F DUP4 GT PUSH1 0x1 EQ PUSH2 0x34CC JUMPI DUP3 PUSH1 0xA0 SWAP6 SWAP4 PUSH1 0x5 SWAP6 SWAP4 PUSH2 0x33A3 SWAP4 PUSH0 SWAP3 PUSH2 0x87E JUMPI POP POP DUP2 PUSH1 0x1 SHL SWAP2 PUSH0 NOT SWAP1 PUSH1 0x3 SHL SHR NOT AND OR SWAP1 JUMP JUMPDEST SWAP1 SSTORE JUMPDEST ADD SWAP4 ADD MLOAD SWAP3 DUP4 MLOAD PUSH1 0x1 PUSH1 0x1 PUSH1 0x40 SHL SUB DUP2 GT PUSH2 0x951 JUMPI PUSH2 0x33C5 DUP3 SLOAD PUSH2 0x3F40 JUMP JUMPDEST PUSH1 0x1F DUP2 GT PUSH2 0x349C JUMPI JUMPDEST POP PUSH1 0x20 PUSH1 0x1F DUP3 GT PUSH1 0x1 EQ PUSH2 0x3428 JUMPI SWAP3 PUSH2 0x879 SWAP5 SWAP3 PUSH2 0x851 DUP4 PUSH1 0x20 SWAP5 PUSH1 0xC SWAP8 PUSH32 0xBE8DFEFDA19EDB2EA695885130355727F7788A97D4B87A6612A78EE860EA23AB SWAP11 PUSH0 SWAP3 PUSH2 0x87E JUMPI POP POP DUP2 PUSH1 0x1 SHL SWAP2 PUSH0 NOT SWAP1 PUSH1 0x3 SHL SHR NOT AND OR SWAP1 JUMP JUMPDEST PUSH1 0x1F NOT DUP3 AND SWAP6 DUP4 PUSH0 MSTORE DUP2 PUSH0 KECCAK256 SWAP7 PUSH0 JUMPDEST DUP2 DUP2 LT PUSH2 0x3484 JUMPI POP DUP4 PUSH32 0xBE8DFEFDA19EDB2EA695885130355727F7788A97D4B87A6612A78EE860EA23AB SWAP9 PUSH1 0xC SWAP8 SWAP5 PUSH2 0x879 SWAP10 SWAP8 SWAP5 PUSH1 0x20 SWAP8 PUSH1 0x1 SWAP6 LT PUSH2 0x8E6 JUMPI POP POP POP DUP2 SHL ADD SWAP1 SSTORE PUSH2 0x854 JUMP JUMPDEST DUP4 DUP4 ADD MLOAD DUP10 SSTORE PUSH1 0x1 SWAP1 SWAP9 ADD SWAP8 PUSH1 0x20 SWAP4 DUP5 ADD SWAP4 ADD PUSH2 0x3437 JUMP JUMPDEST PUSH2 0x34C6 SWAP1 DUP4 PUSH0 MSTORE PUSH1 0x20 PUSH0 KECCAK256 PUSH1 0x1F DUP5 ADD PUSH1 0x5 SHR DUP2 ADD SWAP2 PUSH1 0x20 DUP6 LT PUSH2 0x947 JUMPI PUSH1 0x1F ADD PUSH1 0x5 SHR ADD SWAP1 PUSH2 0x40E9 JUMP JUMPDEST DUP6 PUSH2 0x33CE JUMP JUMPDEST SWAP1 PUSH1 0x1F NOT DUP4 AND SWAP2 DUP5 PUSH0 MSTORE DUP2 PUSH0 KECCAK256 SWAP3 PUSH0 JUMPDEST DUP2 DUP2 LT PUSH2 0x351D JUMPI POP SWAP3 PUSH1 0x1 SWAP3 DUP6 SWAP3 PUSH1 0xA0 SWAP9 SWAP7 PUSH1 0x5 SWAP9 SWAP7 LT PUSH2 0x3505 JUMPI JUMPDEST POP POP POP DUP2 SHL ADD SWAP1 SSTORE PUSH2 0x33A6 JUMP JUMPDEST ADD MLOAD PUSH0 NOT PUSH1 0xF8 DUP5 PUSH1 0x3 SHL AND SHR NOT AND SWAP1 SSTORE DUP10 DUP1 DUP1 PUSH2 0x34F8 JUMP JUMPDEST SWAP3 SWAP4 PUSH1 0x20 PUSH1 0x1 DUP2 SWAP3 DUP8 DUP7 ADD MLOAD DUP2 SSTORE ADD SWAP6 ADD SWAP4 ADD PUSH2 0x34DC JUMP JUMPDEST PUSH2 0x355F SWAP1 DUP5 PUSH0 MSTORE PUSH1 0x20 PUSH0 KECCAK256 PUSH1 0x1F DUP6 ADD PUSH1 0x5 SHR DUP2 ADD SWAP2 PUSH1 0x20 DUP7 LT PUSH2 0x947 JUMPI PUSH1 0x1F ADD PUSH1 0x5 SHR ADD SWAP1 PUSH2 0x40E9 JUMP JUMPDEST DUP8 PUSH2 0x336D JUMP JUMPDEST SWAP1 PUSH1 0x1F NOT DUP4 AND SWAP2 DUP5 PUSH0 MSTORE DUP2 PUSH0 KECCAK256 SWAP3 PUSH0 JUMPDEST DUP2 DUP2 LT PUSH2 0x35B0 JUMPI POP SWAP1 DUP5 PUSH1 0x1 SWAP6 SWAP5 SWAP4 SWAP3 LT PUSH2 0x3598 JUMPI JUMPDEST POP POP POP DUP2 SHL ADD SWAP1 SSTORE PUSH2 0x3340 JUMP JUMPDEST ADD MLOAD PUSH0 NOT PUSH1 0xF8 DUP5 PUSH1 0x3 SHL AND SHR NOT AND SWAP1 SSTORE DUP8 DUP1 DUP1 PUSH2 0x358B JUMP JUMPDEST SWAP3 SWAP4 PUSH1 0x20 PUSH1 0x1 DUP2 SWAP3 DUP8 DUP7 ADD MLOAD DUP2 SSTORE ADD SWAP6 ADD SWAP4 ADD PUSH2 0x3575 JUMP JUMPDEST PUSH2 0x35F2 SWAP1 DUP5 PUSH0 MSTORE PUSH1 0x20 PUSH0 KECCAK256 PUSH1 0x1F DUP6 ADD PUSH1 0x5 SHR DUP2 ADD SWAP2 PUSH1 0x20 DUP7 LT PUSH2 0x947 JUMPI PUSH1 0x1F ADD PUSH1 0x5 SHR ADD SWAP1 PUSH2 0x40E9 JUMP JUMPDEST DUP8 PUSH2 0x330E JUMP JUMPDEST SWAP1 PUSH1 0x1F NOT DUP4 AND SWAP2 DUP5 PUSH0 MSTORE DUP2 PUSH0 KECCAK256 SWAP3 PUSH0 JUMPDEST DUP2 DUP2 LT PUSH2 0x3643 JUMPI POP SWAP1 DUP5 PUSH1 0x1 SWAP6 SWAP5 SWAP4 SWAP3 LT PUSH2 0x362B JUMPI JUMPDEST POP POP POP DUP2 SHL ADD SWAP1 SSTORE PUSH2 0x32E1 JUMP JUMPDEST ADD MLOAD PUSH0 NOT PUSH1 0xF8 DUP5 PUSH1 0x3 SHL AND SHR NOT AND SWAP1 SSTORE DUP8 DUP1 DUP1 PUSH2 0x361E JUMP JUMPDEST SWAP3 SWAP4 PUSH1 0x20 PUSH1 0x1 DUP2 SWAP3 DUP8 DUP7 ADD MLOAD DUP2 SSTORE ADD SWAP6 ADD SWAP4 ADD PUSH2 0x3608 JUMP JUMPDEST PUSH2 0x3685 SWAP1 DUP5 PUSH0 MSTORE PUSH1 0x20 PUSH0 KECCAK256 PUSH1 0x1F DUP6 ADD PUSH1 0x5 SHR DUP2 ADD SWAP2 PUSH1 0x20 DUP7 LT PUSH2 0x947 JUMPI PUSH1 0x1F ADD PUSH1 0x5 SHR ADD SWAP1 PUSH2 0x40E9 JUMP JUMPDEST DUP8 PUSH2 0x32AF JUMP JUMPDEST SWAP1 PUSH1 0x1F NOT DUP4 AND SWAP2 DUP5 PUSH0 MSTORE DUP2 PUSH0 KECCAK256 SWAP3 PUSH0 JUMPDEST DUP2 DUP2 LT PUSH2 0x36D6 JUMPI POP SWAP1 DUP5 PUSH1 0x1 SWAP6 SWAP5 SWAP4 SWAP3 LT PUSH2 0x36BE JUMPI JUMPDEST POP POP POP DUP2 SHL ADD SWAP1 SSTORE PUSH2 0x3282 JUMP JUMPDEST ADD MLOAD PUSH0 NOT PUSH1 0xF8 DUP5 PUSH1 0x3 SHL AND SHR NOT AND SWAP1 SSTORE DUP8 DUP1 DUP1 PUSH2 0x36B1 JUMP JUMPDEST SWAP3 SWAP4 PUSH1 0x20 PUSH1 0x1 DUP2 SWAP3 DUP8 DUP7 ADD MLOAD DUP2 SSTORE ADD SWAP6 ADD SWAP4 ADD PUSH2 0x369B JUMP JUMPDEST PUSH2 0x3718 SWAP1 DUP5 PUSH0 MSTORE PUSH1 0x20 PUSH0 KECCAK256 PUSH1 0x1F DUP6 ADD PUSH1 0x5 SHR DUP2 ADD SWAP2 PUSH1 0x20 DUP7 LT PUSH2 0x947 JUMPI PUSH1 0x1F ADD PUSH1 0x5 SHR ADD SWAP1 PUSH2 0x40E9 JUMP JUMPDEST DUP8 PUSH2 0x3250 JUMP JUMPDEST SWAP1 PUSH1 0x1F NOT DUP4 AND SWAP2 DUP5 PUSH0 MSTORE DUP2 PUSH0 KECCAK256 SWAP3 PUSH0 JUMPDEST DUP2 DUP2 LT PUSH2 0x3769 JUMPI POP SWAP1 DUP5 PUSH1 0x1 SWAP6 SWAP5 SWAP4 SWAP3 LT PUSH2 0x3751 JUMPI JUMPDEST POP POP POP DUP2 SHL ADD DUP2 SSTORE PUSH2 0x3223 JUMP JUMPDEST ADD MLOAD PUSH0 NOT PUSH1 0xF8 DUP5 PUSH1 0x3 SHL AND SHR NOT AND SWAP1 SSTORE DUP7 DUP1 DUP1 PUSH2 0x3744 JUMP JUMPDEST SWAP3 SWAP4 PUSH1 0x20 PUSH1 0x1 DUP2 SWAP3 DUP8 DUP7 ADD MLOAD DUP2 SSTORE ADD SWAP6 ADD SWAP4 ADD PUSH2 0x372E JUMP JUMPDEST PUSH2 0x37AB SWAP1 DUP5 PUSH0 MSTORE PUSH1 0x20 PUSH0 KECCAK256 PUSH1 0x1F DUP6 ADD PUSH1 0x5 SHR DUP2 ADD SWAP2 PUSH1 0x20 DUP7 LT PUSH2 0x947 JUMPI PUSH1 0x1F ADD PUSH1 0x5 SHR ADD SWAP1 PUSH2 0x40E9 JUMP JUMPDEST DUP7 PUSH2 0x31F1 JUMP JUMPDEST SWAP1 PUSH1 0x1F NOT DUP4 AND SWAP2 DUP5 PUSH0 MSTORE DUP2 PUSH0 KECCAK256 SWAP3 PUSH0 JUMPDEST DUP2 DUP2 LT PUSH2 0x37FC JUMPI POP SWAP1 DUP5 PUSH1 0x1 SWAP6 SWAP5 SWAP4 SWAP3 LT PUSH2 0x37E4 JUMPI JUMPDEST POP POP POP DUP2 SHL ADD SWAP1 SSTORE PUSH2 0x31B5 JUMP JUMPDEST ADD MLOAD PUSH0 NOT PUSH1 0xF8 DUP5 PUSH1 0x3 SHL AND SHR NOT AND SWAP1 SSTORE DUP7 DUP1 DUP1 PUSH2 0x37D7 JUMP JUMPDEST SWAP3 SWAP4 PUSH1 0x20 PUSH1 0x1 DUP2 SWAP3 DUP8 DUP7 ADD MLOAD DUP2 SSTORE ADD SWAP6 ADD SWAP4 ADD PUSH2 0x37C1 JUMP JUMPDEST PUSH2 0x383E SWAP1 DUP5 PUSH0 MSTORE PUSH1 0x20 PUSH0 KECCAK256 PUSH1 0x1F DUP6 ADD PUSH1 0x5 SHR DUP2 ADD SWAP2 PUSH1 0x20 DUP7 LT PUSH2 0x947 JUMPI PUSH1 0x1F ADD PUSH1 0x5 SHR ADD SWAP1 PUSH2 0x40E9 JUMP JUMPDEST DUP7 PUSH2 0x3183 JUMP JUMPDEST SWAP1 PUSH1 0x1F NOT DUP4 AND SWAP2 DUP5 PUSH0 MSTORE DUP2 PUSH0 KECCAK256 SWAP3 PUSH0 JUMPDEST DUP2 DUP2 LT PUSH2 0x3895 JUMPI POP SWAP3 PUSH1 0x1 SWAP3 DUP6 SWAP3 PUSH1 0xC0 SWAP9 SWAP7 PUSH1 0x6 SWAP9 SWAP7 LT PUSH2 0x387D JUMPI JUMPDEST POP POP POP DUP2 SHL ADD SWAP1 SSTORE PUSH2 0x315B JUMP JUMPDEST ADD MLOAD PUSH0 NOT PUSH1 0xF8 DUP5 PUSH1 0x3 SHL AND SHR NOT AND SWAP1 SSTORE DUP11 DUP1 DUP1 PUSH2 0x3870 JUMP JUMPDEST SWAP3 SWAP4 PUSH1 0x20 PUSH1 0x1 DUP2 SWAP3 DUP8 DUP7 ADD MLOAD DUP2 SSTORE ADD SWAP6 ADD SWAP4 ADD PUSH2 0x3854 JUMP JUMPDEST PUSH2 0x38D7 SWAP1 DUP5 PUSH0 MSTORE PUSH1 0x20 PUSH0 KECCAK256 PUSH1 0x1F DUP6 ADD PUSH1 0x5 SHR DUP2 ADD SWAP2 PUSH1 0x20 DUP7 LT PUSH2 0x947 JUMPI PUSH1 0x1F ADD PUSH1 0x5 SHR ADD SWAP1 PUSH2 0x40E9 JUMP JUMPDEST DUP9 PUSH2 0x3122 JUMP JUMPDEST SWAP1 PUSH1 0x1F NOT DUP4 AND SWAP2 DUP5 PUSH0 MSTORE DUP2 PUSH0 KECCAK256 SWAP3 PUSH0 JUMPDEST DUP2 DUP2 LT PUSH2 0x3928 JUMPI POP SWAP1 DUP5 PUSH1 0x1 SWAP6 SWAP5 SWAP4 SWAP3 LT PUSH2 0x3910 JUMPI JUMPDEST POP POP POP DUP2 SHL ADD SWAP1 SSTORE PUSH2 0x30F5 JUMP JUMPDEST ADD MLOAD PUSH0 NOT PUSH1 0xF8 DUP5 PUSH1 0x3 SHL AND SHR NOT AND SWAP1 SSTORE DUP9 DUP1 DUP1 PUSH2 0x3903 JUMP JUMPDEST SWAP3 SWAP4 PUSH1 0x20 PUSH1 0x1 DUP2 SWAP3 DUP8 DUP7 ADD MLOAD DUP2 SSTORE ADD SWAP6 ADD SWAP4 ADD PUSH2 0x38ED JUMP JUMPDEST PUSH2 0x396A SWAP1 DUP5 PUSH0 MSTORE PUSH1 0x20 PUSH0 KECCAK256 PUSH1 0x1F DUP6 ADD PUSH1 0x5 SHR DUP2 ADD SWAP2 PUSH1 0x20 DUP7 LT PUSH2 0x947 JUMPI PUSH1 0x1F ADD PUSH1 0x5 SHR ADD SWAP1 PUSH2 0x40E9 JUMP JUMPDEST DUP9 PUSH2 0x30C3 JUMP JUMPDEST SWAP1 PUSH1 0x1F NOT DUP4 AND SWAP2 DUP5 PUSH0 MSTORE DUP2 PUSH0 KECCAK256 SWAP3 PUSH0 JUMPDEST DUP2 DUP2 LT PUSH2 0x39BB JUMPI POP SWAP1 DUP5 PUSH1 0x1 SWAP6 SWAP5 SWAP4 SWAP3 LT PUSH2 0x39A3 JUMPI JUMPDEST POP POP POP DUP2 SHL ADD SWAP1 SSTORE PUSH2 0x3096 JUMP JUMPDEST ADD MLOAD PUSH0 NOT PUSH1 0xF8 DUP5 PUSH1 0x3 SHL AND SHR NOT AND SWAP1 SSTORE DUP9 DUP1 DUP1 PUSH2 0x3996 JUMP JUMPDEST SWAP3 SWAP4 PUSH1 0x20 PUSH1 0x1 DUP2 SWAP3 DUP8 DUP7 ADD MLOAD DUP2 SSTORE ADD SWAP6 ADD SWAP4 ADD PUSH2 0x3980 JUMP JUMPDEST PUSH2 0x39FD SWAP1 DUP5 PUSH0 MSTORE PUSH1 0x20 PUSH0 KECCAK256 PUSH1 0x1F DUP6 ADD PUSH1 0x5 SHR DUP2 ADD SWAP2 PUSH1 0x20 DUP7 LT PUSH2 0x947 JUMPI PUSH1 0x1F ADD PUSH1 0x5 SHR ADD SWAP1 PUSH2 0x40E9 JUMP JUMPDEST DUP9 PUSH2 0x3064 JUMP JUMPDEST SWAP1 PUSH1 0x1F NOT DUP4 AND SWAP2 DUP5 PUSH0 MSTORE DUP2 PUSH0 KECCAK256 SWAP3 PUSH0 JUMPDEST DUP2 DUP2 LT PUSH2 0x3A4E JUMPI POP SWAP1 DUP5 PUSH1 0x1 SWAP6 SWAP5 SWAP4 SWAP3 LT PUSH2 0x3A36 JUMPI JUMPDEST POP POP POP DUP2 SHL ADD SWAP1 SSTORE PUSH2 0x3037 JUMP JUMPDEST ADD MLOAD PUSH0 NOT PUSH1 0xF8 DUP5 PUSH1 0x3 SHL AND SHR NOT AND SWAP1 SSTORE DUP9 DUP1 DUP1 PUSH2 0x3A29 JUMP JUMPDEST SWAP3 SWAP4 PUSH1 0x20 PUSH1 0x1 DUP2 SWAP3 DUP8 DUP7 ADD MLOAD DUP2 SSTORE ADD SWAP6 ADD SWAP4 ADD PUSH2 0x3A13 JUMP JUMPDEST PUSH2 0x3A90 SWAP1 DUP5 PUSH0 MSTORE PUSH1 0x20 PUSH0 KECCAK256 PUSH1 0x1F DUP6 ADD PUSH1 0x5 SHR DUP2 ADD SWAP2 PUSH1 0x20 DUP7 LT PUSH2 0x947 JUMPI PUSH1 0x1F ADD PUSH1 0x5 SHR ADD SWAP1 PUSH2 0x40E9 JUMP JUMPDEST DUP9 PUSH2 0x3005 JUMP JUMPDEST SWAP1 PUSH1 0x1F NOT DUP4 AND SWAP2 DUP5 PUSH0 MSTORE DUP2 PUSH0 KECCAK256 SWAP3 PUSH0 JUMPDEST DUP2 DUP2 LT PUSH2 0x3AE1 JUMPI POP SWAP1 DUP5 PUSH1 0x1 SWAP6 SWAP5 SWAP4 SWAP3 LT PUSH2 0x3AC9 JUMPI JUMPDEST POP POP POP DUP2 SHL ADD SWAP1 SSTORE PUSH2 0x2FD8 JUMP JUMPDEST ADD MLOAD PUSH0 NOT PUSH1 0xF8 DUP5 PUSH1 0x3 SHL AND SHR NOT AND SWAP1 SSTORE DUP9 DUP1 DUP1 PUSH2 0x3ABC JUMP JUMPDEST SWAP3 SWAP4 PUSH1 0x20 PUSH1 0x1 DUP2 SWAP3 DUP8 DUP7 ADD MLOAD DUP2 SSTORE ADD SWAP6 ADD SWAP4 ADD PUSH2 0x3AA6 JUMP JUMPDEST PUSH2 0x3B23 SWAP1 DUP5 PUSH0 MSTORE PUSH1 0x20 PUSH0 KECCAK256 PUSH1 0x1F DUP6 ADD PUSH1 0x5 SHR DUP2 ADD SWAP2 PUSH1 0x20 DUP7 LT PUSH2 0x947 JUMPI PUSH1 0x1F ADD PUSH1 0x5 SHR ADD SWAP1 PUSH2 0x40E9 JUMP JUMPDEST DUP9 PUSH2 0x2FA6 JUMP JUMPDEST SWAP1 PUSH1 0x1F NOT DUP4 AND SWAP2 DUP5 PUSH0 MSTORE DUP2 PUSH0 KECCAK256 SWAP3 PUSH0 JUMPDEST DUP2 DUP2 LT PUSH2 0x3B74 JUMPI POP SWAP1 DUP5 PUSH1 0x1 SWAP6 SWAP5 SWAP4 SWAP3 LT PUSH2 0x3B5C JUMPI JUMPDEST POP POP POP DUP2 SHL ADD DUP2 SSTORE PUSH2 0x2F79 JUMP JUMPDEST ADD MLOAD PUSH0 NOT PUSH1 0xF8 DUP5 PUSH1 0x3 SHL AND SHR NOT AND SWAP1 SSTORE DUP8 DUP1 DUP1 PUSH2 0x3B4F JUMP JUMPDEST SWAP3 SWAP4 PUSH1 0x20 PUSH1 0x1 DUP2 SWAP3 DUP8 DUP7 ADD MLOAD DUP2 SSTORE ADD SWAP6 ADD SWAP4 ADD PUSH2 0x3B39 JUMP JUMPDEST PUSH2 0x3BB6 SWAP1 DUP5 PUSH0 MSTORE PUSH1 0x20 PUSH0 KECCAK256 PUSH1 0x1F DUP6 ADD PUSH1 0x5 SHR DUP2 ADD SWAP2 PUSH1 0x20 DUP7 LT PUSH2 0x947 JUMPI PUSH1 0x1F ADD PUSH1 0x5 SHR ADD SWAP1 PUSH2 0x40E9 JUMP JUMPDEST DUP8 PUSH2 0x2F47 JUMP JUMPDEST CALLVALUE PUSH2 0x277 JUMPI PUSH0 CALLDATASIZE PUSH1 0x3 NOT ADD SLT PUSH2 0x277 JUMPI PUSH32 0x0 PUSH1 0x1 PUSH1 0x1 PUSH1 0xA0 SHL SUB AND DUP2 MSTORE PUSH1 0x20 SWAP1 RETURN JUMPDEST PUSH2 0x200 DUP2 ADD SWAP1 DUP2 LT PUSH1 0x1 PUSH1 0x1 PUSH1 0x40 SHL SUB DUP3 GT OR PUSH2 0x951 JUMPI PUSH1 0x40 MSTORE JUMP JUMPDEST PUSH1 0xE0 DUP2 ADD SWAP1 DUP2 LT PUSH1 0x1 PUSH1 0x1 PUSH1 0x40 SHL SUB DUP3 GT OR PUSH2 0x951 JUMPI PUSH1 0x40 MSTORE JUMP JUMPDEST PUSH1 0xC0 DUP2 ADD SWAP1 DUP2 LT PUSH1 0x1 PUSH1 0x1 PUSH1 0x40 SHL SUB DUP3 GT OR PUSH2 0x951 JUMPI PUSH1 0x40 MSTORE JUMP JUMPDEST SWAP1 PUSH1 0x1F DUP1 NOT SWAP2 ADD AND DUP2 ADD SWAP1 DUP2 LT PUSH1 0x1 PUSH1 0x1 PUSH1 0x40 SHL SUB DUP3 GT OR PUSH2 0x951 JUMPI PUSH1 0x40 MSTORE JUMP JUMPDEST DUP2 PUSH1 0x1F DUP3 ADD SLT ISZERO PUSH2 0x277 JUMPI DUP1 CALLDATALOAD SWAP1 PUSH1 0x1 PUSH1 0x1 PUSH1 0x40 SHL SUB DUP3 GT PUSH2 0x951 JUMPI PUSH1 0x40 MLOAD SWAP3 PUSH2 0x3CA4 PUSH1 0x1F DUP5 ADD PUSH1 0x1F NOT AND PUSH1 0x20 ADD DUP6 PUSH2 0x3C4F JUMP JUMPDEST DUP3 DUP5 MSTORE PUSH1 0x20 DUP4 DUP4 ADD ADD GT PUSH2 0x277 JUMPI DUP2 PUSH0 SWAP3 PUSH1 0x20 DUP1 SWAP4 ADD DUP4 DUP7 ADD CALLDATACOPY DUP4 ADD ADD MSTORE SWAP1 JUMP JUMPDEST PUSH1 0x60 PUSH1 0x3 NOT DUP3 ADD SLT PUSH2 0x277 JUMPI PUSH1 0x4 CALLDATALOAD PUSH1 0x1 PUSH1 0x1 PUSH1 0x40 SHL SUB DUP2 GT PUSH2 0x277 JUMPI DUP2 PUSH2 0x3CEF SWAP2 PUSH1 0x4 ADD PUSH2 0x3C70 JUMP JUMPDEST SWAP2 PUSH1 0x24 CALLDATALOAD PUSH1 0x1 PUSH1 0x1 PUSH1 0x40 SHL SUB DUP2 GT PUSH2 0x277 JUMPI PUSH1 0xE0 DUP2 DUP5 SUB PUSH1 0x3 NOT ADD SLT PUSH2 0x277 JUMPI PUSH1 0x40 MLOAD SWAP1 PUSH2 0x3D1C DUP3 PUSH2 0x3C19 JUMP JUMPDEST DUP1 PUSH1 0x4 ADD CALLDATALOAD PUSH1 0x1 PUSH1 0x1 PUSH1 0x40 SHL SUB DUP2 GT PUSH2 0x277 JUMPI DUP5 PUSH1 0x4 PUSH2 0x3D3E SWAP3 DUP5 ADD ADD PUSH2 0x3C70 JUMP JUMPDEST DUP3 MSTORE PUSH1 0x24 DUP2 ADD CALLDATALOAD PUSH1 0x1 PUSH1 0x1 PUSH1 0x40 SHL SUB DUP2 GT PUSH2 0x277 JUMPI DUP5 PUSH1 0x4 PUSH2 0x3D62 SWAP3 DUP5 ADD ADD PUSH2 0x3C70 JUMP JUMPDEST PUSH1 0x20 DUP4 ADD MSTORE PUSH1 0x44 DUP2 ADD CALLDATALOAD PUSH1 0x1 PUSH1 0x1 PUSH1 0x40 SHL SUB DUP2 GT PUSH2 0x277 JUMPI DUP5 PUSH1 0x4 PUSH2 0x3D89 SWAP3 DUP5 ADD ADD PUSH2 0x3C70 JUMP JUMPDEST PUSH1 0x40 DUP4 ADD MSTORE PUSH1 0x64 DUP2 ADD CALLDATALOAD PUSH1 0x1 PUSH1 0x1 PUSH1 0x40 SHL SUB DUP2 GT PUSH2 0x277 JUMPI DUP5 PUSH1 0x4 PUSH2 0x3DB0 SWAP3 DUP5 ADD ADD PUSH2 0x3C70 JUMP JUMPDEST PUSH1 0x60 DUP4 ADD MSTORE PUSH1 0x84 DUP2 ADD CALLDATALOAD PUSH1 0x1 PUSH1 0x1 PUSH1 0x40 SHL SUB DUP2 GT PUSH2 0x277 JUMPI DUP5 PUSH1 0x4 PUSH2 0x3DD7 SWAP3 DUP5 ADD ADD PUSH2 0x3C70 JUMP JUMPDEST PUSH1 0x80 DUP4 ADD MSTORE PUSH1 0xA4 DUP2 ADD CALLDATALOAD PUSH1 0x1 PUSH1 0x1 PUSH1 0x40 SHL SUB DUP2 GT PUSH2 0x277 JUMPI DUP5 PUSH1 0x4 PUSH2 0x3DFE SWAP3 DUP5 ADD ADD PUSH2 0x3C70 JUMP JUMPDEST PUSH1 0xA0 DUP4 ADD MSTORE PUSH1 0xC4 DUP2 ADD CALLDATALOAD PUSH1 0x1 PUSH1 0x1 PUSH1 0x40 SHL SUB DUP2 GT PUSH2 0x277 JUMPI PUSH1 0x4 DUP6 SWAP2 PUSH2 0x3E25 SWAP4 ADD ADD PUSH2 0x3C70 JUMP JUMPDEST PUSH1 0xC0 DUP3 ADD MSTORE SWAP2 PUSH1 0x44 CALLDATALOAD PUSH1 0x1 PUSH1 0x1 PUSH1 0x40 SHL SUB DUP2 GT PUSH2 0x277 JUMPI PUSH1 0xC0 DUP2 DUP4 SUB PUSH1 0x3 NOT ADD SLT PUSH2 0x277 JUMPI PUSH1 0x40 MLOAD SWAP2 PUSH2 0x3E57 DUP4 PUSH2 0x3C34 JUMP JUMPDEST DUP2 PUSH1 0x4 ADD CALLDATALOAD PUSH1 0x1 PUSH1 0x1 PUSH1 0x40 SHL SUB DUP2 GT PUSH2 0x277 JUMPI DUP2 PUSH1 0x4 PUSH2 0x3E79 SWAP3 DUP6 ADD ADD PUSH2 0x3C70 JUMP JUMPDEST DUP4 MSTORE PUSH1 0x24 DUP3 ADD CALLDATALOAD PUSH1 0x1 PUSH1 0x1 PUSH1 0x40 SHL SUB DUP2 GT PUSH2 0x277 JUMPI DUP2 PUSH1 0x4 PUSH2 0x3E9D SWAP3 DUP6 ADD ADD PUSH2 0x3C70 JUMP JUMPDEST PUSH1 0x20 DUP5 ADD MSTORE PUSH1 0x44 DUP3 ADD CALLDATALOAD PUSH1 0x1 PUSH1 0x1 PUSH1 0x40 SHL SUB DUP2 GT PUSH2 0x277 JUMPI DUP2 PUSH1 0x4 PUSH2 0x3EC4 SWAP3 DUP6 ADD ADD PUSH2 0x3C70 JUMP JUMPDEST PUSH1 0x40 DUP5 ADD MSTORE PUSH1 0x64 DUP3 ADD CALLDATALOAD PUSH1 0x1 PUSH1 0x1 PUSH1 0x40 SHL SUB DUP2 GT PUSH2 0x277 JUMPI DUP2 PUSH1 0x4 PUSH2 0x3EEB SWAP3 DUP6 ADD ADD PUSH2 0x3C70 JUMP JUMPDEST PUSH1 0x60 DUP5 ADD MSTORE PUSH1 0x84 DUP3 ADD CALLDATALOAD PUSH1 0x1 PUSH1 0x1 PUSH1 0x40 SHL SUB DUP2 GT PUSH2 0x277 JUMPI DUP2 PUSH1 0x4 PUSH2 0x3F12 SWAP3 DUP6 ADD ADD PUSH2 0x3C70 JUMP JUMPDEST PUSH1 0x80 DUP5 ADD MSTORE PUSH1 0xA4 DUP3 ADD CALLDATALOAD SWAP2 PUSH1 0x1 PUSH1 0x1 PUSH1 0x40 SHL SUB DUP4 GT PUSH2 0x277 JUMPI PUSH2 0x3F38 SWAP3 ADD PUSH1 0x4 ADD PUSH2 0x3C70 JUMP JUMPDEST PUSH1 0xA0 DUP3 ADD MSTORE SWAP1 JUMP JUMPDEST SWAP1 PUSH1 0x1 DUP3 DUP2 SHR SWAP3 AND DUP1 ISZERO PUSH2 0x3F6E JUMPI JUMPDEST PUSH1 0x20 DUP4 LT EQ PUSH2 0x3F5A JUMPI JUMP JUMPDEST PUSH4 0x4E487B71 PUSH1 0xE0 SHL PUSH0 MSTORE PUSH1 0x22 PUSH1 0x4 MSTORE PUSH1 0x24 PUSH0 REVERT JUMPDEST SWAP2 PUSH1 0x7F AND SWAP2 PUSH2 0x3F4F JUMP JUMPDEST SWAP1 PUSH1 0x40 MLOAD SWAP2 DUP3 PUSH0 DUP3 SLOAD SWAP3 PUSH2 0x3F8B DUP5 PUSH2 0x3F40 JUMP JUMPDEST DUP1 DUP5 MSTORE SWAP4 PUSH1 0x1 DUP2 AND SWAP1 DUP2 ISZERO PUSH2 0x3FF6 JUMPI POP PUSH1 0x1 EQ PUSH2 0x3FB2 JUMPI JUMPDEST POP PUSH2 0x3FB0 SWAP3 POP SUB DUP4 PUSH2 0x3C4F JUMP JUMPDEST JUMP JUMPDEST SWAP1 POP PUSH0 SWAP3 SWAP2 SWAP3 MSTORE PUSH1 0x20 PUSH0 KECCAK256 SWAP1 PUSH0 SWAP2 JUMPDEST DUP2 DUP4 LT PUSH2 0x3FDA JUMPI POP POP SWAP1 PUSH1 0x20 PUSH2 0x3FB0 SWAP3 DUP3 ADD ADD PUSH0 PUSH2 0x3FA3 JUMP JUMPDEST PUSH1 0x20 SWAP2 SWAP4 POP DUP1 PUSH1 0x1 SWAP2 SLOAD DUP4 DUP6 DUP10 ADD ADD MSTORE ADD SWAP2 ADD SWAP1 SWAP2 DUP5 SWAP3 PUSH2 0x3FC1 JUMP JUMPDEST SWAP1 POP PUSH1 0x20 SWAP3 POP PUSH2 0x3FB0 SWAP5 SWAP2 POP PUSH1 0xFF NOT AND DUP3 DUP5 ADD MSTORE ISZERO ISZERO PUSH1 0x5 SHL DUP3 ADD ADD PUSH0 PUSH2 0x3FA3 JUMP JUMPDEST DUP1 MLOAD DUP1 DUP4 MSTORE PUSH1 0x20 SWAP3 SWAP2 DUP2 SWAP1 DUP5 ADD DUP5 DUP5 ADD MCOPY PUSH0 DUP3 DUP3 ADD DUP5 ADD MSTORE PUSH1 0x1F ADD PUSH1 0x1F NOT AND ADD ADD SWAP1 JUMP JUMPDEST SWAP1 PUSH1 0xA DUP3 LT ISZERO PUSH2 0x197E JUMPI MSTORE JUMP JUMPDEST SWAP1 PUSH1 0x40 PUSH1 0x3 NOT DUP4 ADD SLT PUSH2 0x277 JUMPI PUSH1 0x4 CALLDATALOAD PUSH1 0x1 PUSH1 0x1 PUSH1 0x40 SHL SUB DUP2 GT PUSH2 0x277 JUMPI DUP3 PUSH2 0x4074 SWAP2 PUSH1 0x4 ADD PUSH2 0x3C70 JUMP JUMPDEST SWAP2 PUSH1 0x24 CALLDATALOAD SWAP1 PUSH1 0x1 PUSH1 0x1 PUSH1 0x40 SHL SUB DUP3 GT PUSH2 0x277 JUMPI PUSH2 0x4093 SWAP2 PUSH1 0x4 ADD PUSH2 0x3C70 JUMP JUMPDEST SWAP1 JUMP JUMPDEST SWAP1 DUP2 PUSH1 0x20 SWAP2 SUB SLT PUSH2 0x277 JUMPI MLOAD DUP1 ISZERO ISZERO DUP2 SUB PUSH2 0x277 JUMPI SWAP1 JUMP JUMPDEST ISZERO PUSH2 0x40B5 JUMPI JUMP JUMPDEST PUSH1 0x40 MLOAD PUSH3 0x461BCD PUSH1 0xE5 SHL DUP2 MSTORE PUSH1 0x20 PUSH1 0x4 DUP3 ADD MSTORE PUSH1 0xC PUSH1 0x24 DUP3 ADD MSTORE PUSH12 0x4F6E6C7920466163746F7279 PUSH1 0xA0 SHL PUSH1 0x44 DUP3 ADD MSTORE PUSH1 0x64 SWAP1 REVERT JUMPDEST DUP2 DUP2 LT PUSH2 0x40F4 JUMPI POP POP JUMP JUMPDEST PUSH0 DUP2 SSTORE PUSH1 0x1 ADD PUSH2 0x40E9 JUMP JUMPDEST PUSH2 0x4109 DUP2 SLOAD PUSH2 0x3F40 JUMP JUMPDEST SWAP1 DUP2 PUSH2 0x4113 JUMPI POP POP JUMP JUMPDEST DUP2 PUSH1 0x1F PUSH0 SWAP4 GT PUSH1 0x1 EQ PUSH2 0x4124 JUMPI POP SSTORE JUMP JUMPDEST DUP2 DUP4 MSTORE PUSH1 0x20 DUP4 KECCAK256 PUSH2 0x4140 SWAP2 PUSH1 0x1F ADD PUSH1 0x5 SHR DUP2 ADD SWAP1 PUSH1 0x1 ADD PUSH2 0x40E9 JUMP JUMPDEST DUP1 DUP3 MSTORE DUP2 PUSH1 0x20 DUP2 KECCAK256 SWAP2 SSTORE SSTORE JUMP JUMPDEST SWAP1 SWAP4 SWAP3 SWAP2 SWAP4 PUSH1 0x60 DUP3 MSTORE PUSH0 SWAP1 DUP1 SLOAD SWAP1 PUSH2 0x4164 DUP3 PUSH2 0x3F40 JUMP JUMPDEST SWAP2 DUP3 PUSH1 0x60 DUP7 ADD MSTORE PUSH1 0x1 DUP2 AND SWAP1 DUP2 PUSH0 EQ PUSH2 0x41D8 JUMPI POP PUSH1 0x1 EQ PUSH2 0x4198 JUMPI JUMPDEST POP POP PUSH1 0x1 PUSH1 0x1 PUSH1 0xA0 SHL SUB SWAP1 SWAP5 AND PUSH1 0x20 DUP3 ADD MSTORE PUSH1 0x40 ADD MSTORE JUMP JUMPDEST PUSH0 SWAP1 DUP2 MSTORE PUSH1 0x20 DUP2 KECCAK256 SWAP4 SWAP3 POP SWAP1 JUMPDEST DUP1 DUP3 LT PUSH2 0x41BD JUMPI POP SWAP1 SWAP2 POP DUP2 ADD PUSH1 0x80 ADD PUSH1 0x40 PUSH0 PUSH2 0x4180 JUMP JUMPDEST SWAP2 SWAP3 PUSH1 0x1 DUP2 PUSH1 0x20 SWAP3 SLOAD PUSH1 0x80 DUP6 DUP9 ADD ADD MSTORE ADD SWAP2 ADD SWAP1 SWAP3 SWAP2 PUSH2 0x41A5 JUMP JUMPDEST SWAP1 POP PUSH1 0x40 SWAP5 SWAP4 POP PUSH1 0x80 SWAP3 SWAP2 POP PUSH1 0xFF NOT AND DUP3 DUP5 ADD MSTORE ISZERO ISZERO PUSH1 0x5 SHL DUP3 ADD ADD SWAP1 SWAP2 PUSH0 PUSH2 0x4180 JUMP JUMPDEST ISZERO PUSH2 0x4203 JUMPI JUMP JUMPDEST PUSH1 0x40 MLOAD PUSH3 0x461BCD PUSH1 0xE5 SHL DUP2 MSTORE PUSH1 0x20 PUSH1 0x4 DUP3 ADD MSTORE PUSH1 0x9 PUSH1 0x24 DUP3 ADD MSTORE PUSH9 0x4F6E6C792042504F4D PUSH1 0xB8 SHL PUSH1 0x44 DUP3 ADD MSTORE PUSH1 0x64 SWAP1 REVERT JUMPDEST SWAP5 SWAP4 SWAP3 SWAP2 PUSH1 0x60 SWAP3 PUSH2 0x4250 PUSH2 0x426D SWAP4 PUSH1 0x80 DUP10 MSTORE PUSH1 0x80 DUP10 ADD SWAP1 PUSH2 0x4018 JUMP JUMPDEST PUSH1 0x1 PUSH1 0x1 PUSH1 0xA0 SHL SUB SWAP1 SWAP3 AND PUSH1 0x20 DUP9 ADD MSTORE DUP7 DUP3 SUB PUSH1 0x40 DUP9 ADD MSTORE PUSH2 0x4018 JUMP JUMPDEST SWAP4 ADD MSTORE JUMP INVALID LOG2 PUSH5 0x6970667358 0x22 SLT KECCAK256 PUSH8 0x239E6769883CA9C8 SHR 0xDA SWAP4 MULMOD PUSH2 0x53FF SWAP5 GT PUSH31 0x31A89E2D259D709096FC421C8664736F6C634300081B003300000000000000 "},"methodIdentifiers":{"approveExtendRequest(string,string)":"6e945e48","approveNie(string,string,string,string)":"396a6b44","createObatNie(string,string)":"ac007c1a","dokuObatById(string)":"2594d597","dokuPendukungById(string)":"59914db4","extendRejectNie(string,string)":"b650a120","extendRequestNie(string,uint256)":"d944ff79","getNieDetail(string)":"43d1b839","getNieNumberAndStatus(string)":"74a5abcf","getRejectMsgNie(string)":"bdedf0b8","nieDetailById(string)":"f71ce722","rejectMsgById(string)":"bf3f80ac","rejectMsgExtendById(string)":"26c6d4c5","rejectNie(string,string,string)":"283ef6f0","renewRejectNie(string)":"1e79b85a","renewRequestNie(string,(string,string,string,string,string,string,string),(string,string,string,string,string,string))":"108cbe61","requestNie(string,(string,string,string,string,string,string,string),(string,string,string,string,string,string))":"e509070a","roleManager()":"00435da5"}}}}}