{"contracts/ObatTradisional.sol":{"ObatTradisional":{"abi":[{"inputs":[{"internalType":"address","name":"_roleManagerAddr","type":"address"},{"internalType":"address","name":"_mainSupplyChainAddr","type":"address"},{"internalType":"address","name":"_obatSharedAddr","type":"address"}],"stateMutability":"nonpayable","type":"constructor"},{"anonymous":false,"inputs":[{"indexed":false,"internalType":"string","name":"batchName","type":"string"},{"indexed":false,"internalType":"uint8","name":"quantity","type":"uint8"},{"indexed":false,"internalType":"string","name":"namaProduk","type":"string"},{"indexed":false,"internalType":"string","name":"factoryInstance","type":"string"}],"name":"evt_addBatchProduction","type":"event"},{"anonymous":false,"inputs":[{"indexed":false,"internalType":"string","name":"bpomInstance","type":"string"},{"indexed":false,"internalType":"address","name":"bpomAddr","type":"address"},{"indexed":false,"internalType":"string","name":"nieNumber","type":"string"},{"indexed":false,"internalType":"uint256","name":"timestampApproved","type":"uint256"}],"name":"evt_nieApproved","type":"event"},{"anonymous":false,"inputs":[{"indexed":false,"internalType":"string","name":"factoryInstance","type":"string"},{"indexed":false,"internalType":"address","name":"factoryAddr","type":"address"},{"indexed":false,"internalType":"uint256","name":"timestampRequest","type":"uint256"}],"name":"evt_nieRequested","type":"event"},{"anonymous":false,"inputs":[{"indexed":false,"internalType":"string","name":"namaProduk","type":"string"},{"indexed":false,"internalType":"string","name":"factoryInstance","type":"string"},{"indexed":false,"internalType":"address","name":"factoryAddresses","type":"address"}],"name":"evt_obatCreated","type":"event"},{"inputs":[{"internalType":"string","name":"_obatId","type":"string"},{"internalType":"string","name":"_namaProduk","type":"string"},{"internalType":"string","name":"_batchName","type":"string"},{"internalType":"uint8","name":"_obatQuantity","type":"uint8"},{"internalType":"string[]","name":"_obatIpfsHash","type":"string[]"},{"internalType":"string","name":"_factoryInstance","type":"string"}],"name":"addBatchProduction","outputs":[],"stateMutability":"nonpayable","type":"function"},{"inputs":[{"internalType":"uint256","name":"","type":"uint256"}],"name":"allObatIds","outputs":[{"internalType":"string","name":"","type":"string"}],"stateMutability":"view","type":"function"},{"inputs":[{"internalType":"string","name":"_obatId","type":"string"},{"internalType":"string","name":"_nieNumber","type":"string"},{"internalType":"string","name":"_instanceName","type":"string"},{"internalType":"address","name":"_instanceAddr","type":"address"}],"name":"approveNie","outputs":[],"stateMutability":"nonpayable","type":"function"},{"inputs":[{"internalType":"string","name":"_obatId","type":"string"},{"internalType":"string","name":"_merk","type":"string"},{"internalType":"string","name":"_namaProduk","type":"string"},{"internalType":"string[]","name":"_klaim","type":"string[]"},{"internalType":"string","name":"_kemasan","type":"string"},{"internalType":"string[]","name":"_komposisi","type":"string[]"},{"internalType":"string","name":"_factoryInstance","type":"string"},{"internalType":"enum EnumsLibrary.TipeProduk","name":"_tipeProduk","type":"uint8"}],"name":"createObat","outputs":[],"stateMutability":"nonpayable","type":"function"},{"inputs":[{"internalType":"string","name":"_obatId","type":"string"},{"internalType":"string","name":"_batchName","type":"string"}],"name":"detailBatchProduction","outputs":[{"components":[{"internalType":"enum EnumsLibrary.ObatAvailability","name":"statusStok","type":"uint8"},{"internalType":"string","name":"namaProduk","type":"string"},{"internalType":"string","name":"batchName","type":"string"},{"internalType":"uint8","name":"obatQuantity","type":"uint8"},{"internalType":"string[]","name":"obatIpfs","type":"string[]"},{"internalType":"string","name":"factoryInstance","type":"string"}],"internalType":"struct ObatShared.st_obatProduction","name":"","type":"tuple"}],"stateMutability":"view","type":"function"},{"inputs":[{"internalType":"string","name":"_obatId","type":"string"}],"name":"detailObat","outputs":[{"components":[{"internalType":"string","name":"merk","type":"string"},{"internalType":"string","name":"namaProduk","type":"string"},{"internalType":"string[]","name":"klaim","type":"string[]"},{"internalType":"string[]","name":"komposisi","type":"string[]"},{"internalType":"string","name":"kemasan","type":"string"},{"internalType":"enum EnumsLibrary.TipeProduk","name":"tipeProduk","type":"uint8"},{"internalType":"string","name":"factoryInstance","type":"string"},{"internalType":"address","name":"factoryAddr","type":"address"}],"internalType":"struct ObatShared.st_obatDetails","name":"","type":"tuple"},{"components":[{"internalType":"string","name":"nieNumber","type":"string"},{"internalType":"enum EnumsLibrary.NieStatus","name":"nieStatus","type":"uint8"},{"internalType":"uint256","name":"timestampProduction","type":"uint256"},{"internalType":"uint256","name":"timestampNieRequest","type":"uint256"},{"internalType":"uint256","name":"timestampNieApprove","type":"uint256"},{"internalType":"string","name":"bpomInstance","type":"string"},{"internalType":"address","name":"bpomAddr","type":"address"}],"internalType":"struct ObatTradisional.st_obatNie","name":"","type":"tuple"}],"stateMutability":"view","type":"function"},{"inputs":[{"internalType":"string","name":"_instanceName","type":"string"}],"name":"getAllBatchProductionByInstance","outputs":[{"components":[{"internalType":"string","name":"obatId","type":"string"},{"internalType":"string","name":"namaProduk","type":"string"},{"internalType":"string","name":"batchName","type":"string"},{"internalType":"uint8","name":"obatQuantity","type":"uint8"},{"internalType":"enum EnumsLibrary.ObatAvailability","name":"statusStok","type":"uint8"},{"internalType":"string","name":"ownerInstance","type":"string"}],"internalType":"struct ObatTradisional.st_obatOutputBatch[]","name":"","type":"tuple[]"}],"stateMutability":"view","type":"function"},{"inputs":[],"name":"getAllBatchProductionReadyStock","outputs":[{"components":[{"internalType":"string","name":"obatId","type":"string"},{"internalType":"string","name":"namaProduk","type":"string"},{"internalType":"string","name":"batchName","type":"string"},{"internalType":"uint8","name":"obatQuantity","type":"uint8"},{"internalType":"enum EnumsLibrary.ObatAvailability","name":"statusStok","type":"uint8"},{"internalType":"string","name":"ownerInstance","type":"string"}],"internalType":"struct ObatTradisional.st_obatOutputBatch[]","name":"","type":"tuple[]"}],"stateMutability":"view","type":"function"},{"inputs":[],"name":"getAllObat","outputs":[{"components":[{"internalType":"string","name":"obatId","type":"string"},{"internalType":"string","name":"namaProduk","type":"string"},{"internalType":"string","name":"nieNumber","type":"string"},{"internalType":"enum EnumsLibrary.NieStatus","name":"nieStatus","type":"uint8"},{"internalType":"string","name":"factoryInstance","type":"string"}],"internalType":"struct ObatTradisional.st_obatOutputNie[]","name":"","type":"tuple[]"}],"stateMutability":"view","type":"function"},{"inputs":[{"internalType":"string","name":"_instanceName","type":"string"}],"name":"getAllObatByInstance","outputs":[{"components":[{"internalType":"string","name":"obatId","type":"string"},{"internalType":"string","name":"namaProduk","type":"string"},{"internalType":"string","name":"nieNumber","type":"string"},{"internalType":"enum EnumsLibrary.NieStatus","name":"nieStatus","type":"uint8"},{"internalType":"string","name":"factoryInstance","type":"string"}],"internalType":"struct ObatTradisional.st_obatOutputNie[]","name":"","type":"tuple[]"}],"stateMutability":"view","type":"function"},{"inputs":[{"internalType":"string","name":"_instanceName","type":"string"}],"name":"getAllObatNameApprovedNie","outputs":[{"components":[{"internalType":"string","name":"obatId","type":"string"},{"internalType":"string","name":"namaProduk","type":"string"}],"internalType":"struct ObatTradisional.st_obatNameApprovedNie[]","name":"","type":"tuple[]"}],"stateMutability":"view","type":"function"},{"inputs":[{"internalType":"string","name":"_factoryInstanceName","type":"string"}],"name":"getJenisSediaanAvail","outputs":[{"internalType":"uint8[]","name":"","type":"uint8[]"}],"stateMutability":"view","type":"function"},{"inputs":[],"name":"mainSupplyChain","outputs":[{"internalType":"contract MainSupplyChain","name":"","type":"address"}],"stateMutability":"view","type":"function"},{"inputs":[{"internalType":"string","name":"","type":"string"}],"name":"obatNieById","outputs":[{"internalType":"string","name":"nieNumber","type":"string"},{"internalType":"enum EnumsLibrary.NieStatus","name":"nieStatus","type":"uint8"},{"internalType":"uint256","name":"timestampProduction","type":"uint256"},{"internalType":"uint256","name":"timestampNieRequest","type":"uint256"},{"internalType":"uint256","name":"timestampNieApprove","type":"uint256"},{"internalType":"string","name":"bpomInstance","type":"string"},{"internalType":"address","name":"bpomAddr","type":"address"}],"stateMutability":"view","type":"function"},{"inputs":[{"internalType":"string","name":"","type":"string"},{"internalType":"uint256","name":"","type":"uint256"}],"name":"obatProductNameApprovedByFactory","outputs":[{"internalType":"string","name":"obatId","type":"string"},{"internalType":"string","name":"namaProduk","type":"string"}],"stateMutability":"view","type":"function"},{"inputs":[],"name":"obatShared","outputs":[{"internalType":"contract ObatShared","name":"","type":"address"}],"stateMutability":"view","type":"function"},{"inputs":[{"internalType":"string","name":"_obatId","type":"string"},{"internalType":"string","name":"_factoryInstance","type":"string"}],"name":"requestNie","outputs":[],"stateMutability":"nonpayable","type":"function"},{"inputs":[],"name":"roleManager","outputs":[{"internalType":"contract RoleManager","name":"","type":"address"}],"stateMutability":"view","type":"function"}],"evm":{"bytecode":{"linkReferences":{},"object":"60803460a357601f61301a38819003918201601f19168301916001600160401b0383118484101760a85780849260609460405283398101031260a35760428160be565b906057604060516020840160be565b920160be565b600080546001600160a01b039485166001600160a01b031991821617909155600180549385169382169390931790925560028054919093169116179055604051612f4890816100d28239f35b600080fd5b634e487b7160e01b600052604160045260246000fd5b51906001600160a01b038216820360a35756fe608080604052600436101561001357600080fd5b600090813560e01c908162435da51461200b5750806302d4a86b14611d745780631bbd28f914611a775780633fca88cb14611a4e5780634d17d2731461180357806350168fbb146115b95780635162659c146114ed57806354253681146112c557806365e90bcc1461121b5780636b0a3fe5146110d65780639413fcfd146110ad578063a1e0a4b014611085578063baeedfad14610d7b578063cb960d6b14610d14578063d44faa6314610bbe578063e521d58614610944578063e5dd1d061461021e5763e8982035146100e657600080fd5b3461021b576100f436612465565b82546040516395a8c58d60e01b815233600482015260006024820152929190602090849060449082906001600160a01b03165afa918215610210576101a7602060019261016d6101d1967fb15dd5852a569d549821835c26451fad3d4015817430a7f3e7557f6875389353988a916101e3575b506128ad565b60405190805191600384830193610185818487612155565b8201916004835285814294030190200155604051938492839251928391612155565b8101600481520301902001600160ff19825416179055604051918291606083526060830190612178565b3360208301524260408301520390a180f35b6102039150843d8611610209575b6101fb81836120cd565b810190612895565b38610167565b503d6101f1565b6040513d86823e3d90fd5b80fd5b503461021b5761010036600319011261021b576004356001600160401b03811161094057610250903690600401612109565b6024356001600160401b03811161093c5761026f903690600401612109565b906044356001600160401b0381116108c35761028f903690600401612109565b916064356001600160401b038111610938576102af903690600401612516565b906084356001600160401b038111610934576102cf903690600401612109565b9160a4356001600160401b0381116108d2576102ef903690600401612516565b60c4356001600160401b0381116109305761030e903690600401612109565b9360e43590600282101561092c5788546040516395a8c58d60e01b81523360048201526000602482015290602090829060449082906001600160a01b03165afa801561092157610364918b9161090857506128ad565b8651156108d65760025489956001600160a01b0390911691823b156108d257888a948896928793604051998a988997889663a24f650960e01b885260048801610120905261012488016103b691612178565b8781036003190160248901526103cb91612178565b8681036003190160448801526103e091612178565b8581036003190160648701526103f591612287565b84810360031901608486015261040a91612287565b8381036003190160a485015261041f91612178565b906104298161219d565b60c48301528181036003190160e4830152610444908a612178565b3361010483015203925af180156108c7576108ae575b5050610464612b19565b506040519061047282612097565b6020809260405161048383826120cd565b8781528152818101878152604082014281526060830189815260808401908a8252604051926104b287856120cd565b8b845260a0860193845260c08601948c86526104f36104e1898d6040519b8c9382859351928391019e8f612155565b81016004815203019020975188612594565b600187019051600381101561089a57815460ff191660ff9190911617905551600286015551600385015551600484015551600691906105359060058501612594565b51910180546001600160a01b0319166001600160a01b0392909216919091179055600354600160401b8110156108865780600161057592016003556124e4565b610872578461058391612594565b60409384519061059386836120cd565b600b82526a4c414c414c414c31322d3160a81b85830152600161069b868851956105bd8a886120cd565b600d87526c212827a69026b0b5b0b9b9b0b960991b828801526105fd8760058c5185818a516105ed81838a612155565b8101600481520301902001612594565b60068a5183818851610610818388612155565b81016004815203019020017370997970c51812dc3a010c7d01b50e0d17dc79c86bffffffffffffffffffffffff60a01b82541617905561066a868b518481895161065b818389612155565b81016004815203019020612594565b89516004865161067b818486612155565b820191818352848142940301902001558951809381928751928391612155565b8101600481520301902001600260ff1982541617905560018060a01b03600254168887518092636b2c133960e11b825288600483015281806106e06024820188612178565b03915afa908115610868578991610846575b506107268660c08184015193015189519461070c8661207c565b8552818501938452818a5193828580945193849201612155565b81016005815203019020805490600160401b821015610832579061074f916001820181556124b2565b92909261081e57610812946107e97fa8a9f5de4b20098e7555472ad4adfbbb072e2fdd6bfa4c1b1a7b7645f47803519a98956107c46108059b999660017f40bd250f4e1cad69631af5d42189453e9c51f25278bd4232fe29ed01aa2f6ee4976107bc6107d7985184612594565b519101612594565b8851938493608085526080850190612178565b9033888501528382038a850152612178565b4260608301520390a18351958695606087526060870190612178565b9185830390860152612178565b9033908301520390a180f35b634e487b7160e01b8a5260048a905260248afd5b634e487b7160e01b8b52604160045260248bfd5b61086291503d808b833e61085a81836120cd565b81019061275f565b386106f2565b87513d8b823e3d90fd5b634e487b7160e01b87526004879052602487fd5b634e487b7160e01b87526041600452602487fd5b634e487b7160e01b8e52602160045260248efd5b816108b8916120cd565b6108c357833861045a565b8380fd5b6040513d84823e3d90fd5b8680fd5b60405162461bcd60e51b815260206004820152600a602482015269125b9d985b1a5908125160b21b6044820152606490fd5b610203915060203d602011610209576101fb81836120cd565b6040513d8c823e3d90fd5b8880fd5b8780fd5b8580fd5b8480fd5b8280fd5b5080fd5b503461021b5760c036600319011261021b576004356001600160401b03811161094057610975903690600401612109565b6024356001600160401b03811161093c57610994903690600401612109565b906044356001600160401b0381116108c3576109b4903690600401612109565b916064359060ff8216809203610938576084356001600160401b038111610934576109e3903690600401612516565b928560a4356001600160401b03811161094057610a04903690600401612109565b81546040516395a8c58d60e01b81523360048201526000602482015291969190602090829060449082906001600160a01b03165afa8015610bb357610a4f91849161090857506128ad565b6002546001600160a01b0316803b1561093c57610a9b83610aad95610ae9610ad78996610abf8e6040519b8c9a8b998a98637290eac360e11b8a5260c060048b015260c48a0190612178565b8881036003190160248a015290612178565b86810360031901604488015290612178565b908c6064860152600319858303016084860152612287565b8281036003190160a48401528b612178565b03925af18015610ba857610b62575b50610b3b92610b4e7f48086aa029a355c9dd13e9f17292a5cc49f3b533bf3324ad5a543814b0ff5f139593610b5c93604051968796608088526080880190612178565b9160208701528582036040870152612178565b908382036060850152612178565b0390a180f35b92610b4e7f48086aa029a355c9dd13e9f17292a5cc49f3b533bf3324ad5a543814b0ff5f13959387610b9b610b5c9599610b3b986120cd565b9793509395505092610af8565b6040513d88823e3d90fd5b6040513d85823e3d90fd5b503461021b57602036600319011261021b57600435816001600160401b03821161021b57610bf3610c21923690600401612109565b60018060a01b0360015416604051808095819463e49d032760e01b8352602060048401526024830190612178565b03915afa9081156108c7578291610c7c575b5090604051918291602083016020845282518091526020604085019301915b818110610c60575050500390f35b825160ff16845285945060209384019390920191600101610c52565b90503d8083833e610c8d81836120cd565b81019060208183031261093c578051906001600160401b0382116108c357019080601f8301121561093c578151610cc3816124ff565b92610cd160405194856120cd565b81845260208085019260051b82010192831161093857602001905b828210610cfc5750505038610c33565b60208091610d098461296a565b815201910190610cec565b503461021b57602036600319011261021b5760043560035481101561094057610d3c906124e4565b919091610d6757610d63610d4f836123c1565b604051918291602083526020830190612178565b0390f35b634e487b7160e01b81526004819052602490fd5b503461021b57602036600319011261021b576004356001600160401b03811161094057610dac903690600401612109565b81546040516395a8c58d60e01b81523360048201526000602482015290602090829060449082906001600160a01b03165afa8015610bb357610df491849161090857506128ad565b60035460025460208301906001600160a01b031684805b848110610fb65750610e1c90612bcf565b938592865b858110610e365760405180610d6389826122ed565b610e48610e42826124e4565b506123c1565b604051636b2c133960e11b815260206004820152898180610e6c6024820186612178565b0381895afa908115610921578a91610f9c575b50610ea76040516020818551610e988183858a01612155565b81016004815203019020612b5e565b9060c08101908151604051610edd60208281610ecc8183019687815193849201612155565b81010301601f1981018352826120cd565b51902086604051610efd6020828c610ecc83830196879251928391612155565b51902014610f12575b50505050600101610e21565b60209098949801519160208151910151916003831015610f8857610f7e94926001969492610f5e92519360405195610f4987612061565b86526020860152604085015260608401612b52565b6080820152610f6d828b612ae0565b52610f78818a612ae0565b50612af4565b9490388080610f06565b634e487b7160e01b8d52602160045260248dfd5b610fb091503d808c833e61085a81836120cd565b38610e7f565b610fe887610fc6610e42846124e4565b60405180938192636b2c133960e11b8352602060048401526024830190612178565b0381875afa801561107a5760c0918991611060575b50015160405161101d60208281610ecc8183019687815193849201612155565b519020604051602081019061103b6020828b51610ecc81878d612155565b5190201461104c575b600101610e0b565b90611058600191612af4565b919050611044565b61107491503d808b833e61085a81836120cd565b38610ffd565b6040513d8a823e3d90fd5b503461021b578060031936011261021b57610d636110a1612c74565b604051918291826121bd565b503461021b578060031936011261021b576001546040516001600160a01b039091168152602090f35b503461021b57602036600319011261021b576004356001600160401b03811161094057602061110c61111f923690600401612109565b8160405193828580945193849201612155565b810160058152030190208054611134816124ff565b9061114260405192836120cd565b80825260208201809385526020852085915b8383106111e057868587604051928392602084019060208552518091526040840160408260051b8601019392905b82821061119157505050500390f35b919360019193955060206111d08192603f198a8203018652885190836111c08351604084526040840190612178565b9201519084818403910152612178565b9601920192018594939192611182565b600260206001926040516111f38161207c565b6111fc866123c1565b81526112098587016123c1565b83820152815201920192019190611154565b503461021b57604036600319011261021b576004356001600160401b0381116109405761124c903690600401612109565b906112696020602435938160405193828580945193849201612155565b8101600581520301902090815483101561021b576112b761128a84846124b2565b50610d636112a3600161129c846123c1565b93016123c1565b604051938493604085526040850190612178565b908382036020850152612178565b503461021b57806113116112d836612465565b93906112e2612c42565b5060018060a01b036002541660405180809581946346abdd0560e11b8352602060048401526024830190612178565b03915afa9081156108c75782916114cb575b5061132c612c42565b9260405161134a60208281610ecc8183019687815193849201612155565b51902092825b82518110156113ae578460406113668386612ae0565b51015160405161138660208281610ecc8183019687815193849201612155565b51902014611397575b600101611350565b905060016113a58284612ae0565b5191905061138f565b83546040516395a8c58d60e01b8152336004820152600160248201529083908690602090849060449082906001600160a01b03165afa80156114be57610d6393829161149f575b50611483575b506040519182916020835280516114118161219d565b602084015260a061146f61144d611437602085015160c0604089015260e0880190612178565b6040850151878203601f19016060890152612178565b60ff60608501511660808701526080840151601f198783030184880152612287565b910151838203601f190160c0850152612178565b604051906114926020836120cd565b81526080820152826113fb565b6114b8915060203d602011610209576101fb81836120cd565b846113f5565b50604051903d90823e3d90fd5b6114e791503d8084833e6114df81836120cd565b810190612978565b38611323565b503461021b57602036600319011261021b57600435906001600160401b03821161021b57611588611526602061110c3660048701612109565b81016004815203019020611539816123c1565b906115af60ff6001830154166002830154926003810154600482015490611562600584016123c1565b92600660018060a01b039101541695611593604051998a9960e08b5260e08b0190612178565b9560208a01906122e0565b60408801526060870152608086015284820360a0860152612178565b9060c08301520390f35b503461021b578060031936011261021b5780546040516395a8c58d60e01b81523360048201526002602482015290602090829060449082906001600160a01b03165afa9081156108c75782916117e4575b50156117b35760035481825b82811061175e575061162790612bcf565b60025490919083906001600160a01b0316815b83811061164f5760405180610d6387826122ed565b61165b610e42826124e4565b6116736040516020818451610e988183858901612155565b604051636b2c133960e11b8152602060048201528881806116976024820187612178565b0381885afa908115611753578991611739575b506020820180516003811015611725576116cb575b5050505060010161163a565b6020829795970151925190519160038310156117255761171b9492600196949260c06117019301519360405195610f4987612061565b60808201526117108289612ae0565b52610f788188612ae0565b92903880806116bf565b634e487b7160e01b8b52602160045260248bfd5b61174d91503d808b833e61085a81836120cd565b386116aa565b6040513d8b823e3d90fd5b6020611773610e988261110c610e42866124e4565b0151600381101561179f5761178b575b600101611616565b90611797600191612af4565b919050611783565b634e487b7160e01b85526021600452602485fd5b60405162461bcd60e51b81526020600482015260096024820152684f6e6c792042504f4d60b81b6044820152606490fd5b6117fd915060203d602011610209576101fb81836120cd565b3861160a565b503461021b57602036600319011261021b576004356001600160401b03811161094057611834903690600401612109565b8160e06040516118438161202f565b606081526060602082015260606040820152606080820152606060808201528260a0820152606060c08201520152611879612b19565b50600254604051636b2c133960e11b81526020600482015290839082906001600160a01b031681806118ae6024820188612178565b03915afa928315611a42578093611a1b575b836118dd610e986020868160405193828580945193849201612155565b906040519182916040835261199161196761195161193b61192561190f865161010060408b01526101408a0190612178565b6020870151898203603f190160608b0152612178565b6040860151888203603f190160808a0152612287565b6060850151878203603f190160a0890152612287565b6080840151868203603f190160c0880152612178565b60a08301516119758161219d565b60e086015260c0830151858203603f1901610100870152612178565b9060e060018060a01b0391015116610120840152828103602084015260c0611a076119c5845160e0855260e0850190612178565b6119d7602086015160208601906122e0565b60408501516040850152606085015160608501526080850151608085015260a085015184820360a0860152612178565b928101516001600160a01b03169101520390f35b6118dd929350611a3a610e98926020923d8091833e61085a81836120cd565b9392506118c0565b604051903d90823e3d90fd5b503461021b578060031936011261021b576002546040516001600160a01b039091168152602090f35b503461021b57602036600319011261021b576004356001600160401b03811161094057611aa8903690600401612109565b81546040516395a8c58d60e01b81523360048201526000602482015290602090829060449082906001600160a01b03165afa8015610bb357611af091849161090857506128ad565b8160405160208101835191611b1060208281880195610ecc818789612155565b5190209084926003549360018060a01b0360025416935b858210611c85575050611b399061291a565b93611b5660206040518093610ecc83830196879251928391612155565b51902090849085935b808510611b745760405180610d6388826121bd565b9091929394611b85610e42876124e4565b92604051926346abdd0560e11b845260206004850152888480611bab6024820189612178565b0381855afa938415611753578994611c69575b50835115611c5a57885b8451811015611c47578760a0611bde8388612ae0565b510151604051611bfe60208281610ecc8183019687815193849201612155565b51902014611c0f575b600101611bc8565b95611c3f600191611c2a611c238a89612ae0565b5189612eaf565b611c348288612ae0565b52610f788187612ae0565b969050611c07565b50959493509150946001905b0193611b5f565b95949350915094600190611c53565b611c7e9194503d808b833e6114df81836120cd565b9238611bbe565b9394611cbe93929588611c9c610e42859a956124e4565b604051809781926346abdd0560e11b8352602060048401526024830190612178565b0381845afa948515611753578995611d58575b50845115611d4957885b8551811015611d36578660a0611cf18389612ae0565b510151604051611d1160208281610ecc8183019687815193849201612155565b51902014611d22575b600101611cdb565b96611d2e600191612af4565b979050611d1a565b50949196600191969394505b0190611b27565b94919660019196939450611d42565b611d6d9195503d808b833e6114df81836120cd565b9338611cd1565b503461021b57608036600319011261021b576004356001600160401b03811161094057611da5903690600401612109565b6024356001600160401b03811161093c57611dc4903690600401612109565b6044356001600160401b0381116108c357611de3903690600401612109565b916064356001600160a01b038116810361093857611ea3602060019260405190611e1d8860058851948681818c01976105ed81838b612155565b600660405184818951611e31818389612155565b810160048152030190200190858060a01b03166bffffffffffffffffffffffff60a01b825416179055611e70866040518481895161065b818389612155565b60405160048651611e82818486612155565b82019181835284814294030190200155604051809381928751928391612155565b8101600481520301902001600260ff1982541617905560018060a01b0360025416846040518092636b2c133960e11b8252602060048301528180611eea6024820188612178565b03915afa908115612000578591611fe6575b50611f33602060c08184015193015160405194611f188661207c565b85528185019384528160405193828580945193849201612155565b81016005815203019020805490600160401b8210156108865790611f5c916001820181556124b2565b929092611fd25792611f9e7f40bd250f4e1cad69631af5d42189453e9c51f25278bd4232fe29ed01aa2f6ee495936001611fc6946107bc611fb2985184612594565b604051938493608085526080850190612178565b903360208501528382036040850152612178565b4260608301520390a180f35b634e487b7160e01b86526004869052602486fd5b611ffa91503d8087833e61085a81836120cd565b38611efc565b6040513d87823e3d90fd5b90503461094057816003193601126109405790546001600160a01b03168152602090f35b61010081019081106001600160401b0382111761204b57604052565b634e487b7160e01b600052604160045260246000fd5b60a081019081106001600160401b0382111761204b57604052565b604081019081106001600160401b0382111761204b57604052565b60e081019081106001600160401b0382111761204b57604052565b60c081019081106001600160401b0382111761204b57604052565b90601f801991011681019081106001600160401b0382111761204b57604052565b6001600160401b03811161204b57601f01601f191660200190565b81601f8201121561215057803590612120826120ee565b9261212e60405194856120cd565b8284526020838301011161215057816000926020809301838601378301015290565b600080fd5b60005b8381106121685750506000910152565b8181015183820152602001612158565b9060209161219181518092818552858086019101612155565b601f01601f1916010190565b600211156121a757565b634e487b7160e01b600052602160045260246000fd5b602081016020825282518091526040820191602060408360051b8301019401926000915b8383106121f057505050505090565b9091929394602080612278600193603f1986820301875289519060a0612247612235612225855160c0865260c0860190612178565b8786015185820389870152612178565b60408501518482036040860152612178565b9260ff606082015116606084015260808101516122638161219d565b608084015201519060a0818403910152612178565b970193019301919392906121e1565b9080602083519182815201916020808360051b8301019401926000915b8383106122b357505050505090565b90919293946020806122d1600193601f198682030187528951612178565b970193019301919392906122a4565b9060038210156121a75752565b602081016020825282518091526040820191602060408360051b8301019401926000915b83831061232057505050505090565b9091929394602080612378600193603f198682030187528951906080612355612235612225855160a0865260a0860190612178565b92612368606082015160608501906122e0565b0151906080818403910152612178565b97019301930191939290612311565b90600182811c921680156123b7575b60208310146123a157565b634e487b7160e01b600052602260045260246000fd5b91607f1691612396565b90604051918260008254926123d584612387565b808452936001811690811561244357506001146123fc575b506123fa925003836120cd565b565b90506000929192526020600020906000915b8183106124275750509060206123fa92820101386123ed565b602091935080600191548385890101520191019091849261240e565b9050602092506123fa94915060ff191682840152151560051b820101386123ed565b906040600319830112612150576004356001600160401b038111612150578261249091600401612109565b91602435906001600160401b038211612150576124af91600401612109565b90565b80548210156124ce5760005260206000209060011b0190600090565b634e487b7160e01b600052603260045260246000fd5b6003548110156124ce57600360005260206000200190600090565b6001600160401b03811161204b5760051b60200190565b9080601f8301121561215057813561252d816124ff565b9261253b60405194856120cd565b81845260208085019260051b820101918383116121505760208201905b83821061256757505050505090565b81356001600160401b0381116121505760209161258987848094880101612109565b815201910190612558565b91909182516001600160401b03811161204b576125b18254612387565b601f8111612657575b506020601f82116001146125f557819293946000926125ea575b50508160011b916000199060031b1c1916179055565b0151905038806125d4565b601f1982169083600052806000209160005b81811061263f57509583600195969710612626575b505050811b019055565b015160001960f88460031b161c1916905538808061261c565b9192602060018192868b015181550194019201612607565b826000526020600020601f830160051c81019160208410612695575b601f0160051c01905b81811061268957506125ba565b6000815560010161267c565b9091508190612673565b81601f820112156121505780516126b5816120ee565b926126c360405194856120cd565b81845260208284010111612150576124af9160208085019101612155565b9080601f830112156121505781516126f8816124ff565b9261270660405194856120cd565b81845260208085019260051b820101918383116121505760208201905b83821061273257505050505090565b81516001600160401b038111612150576020916127548784809488010161269f565b815201910190612723565b602081830312612150578051906001600160401b0382116121505701906101008282031261215057604051916127948361202f565b80516001600160401b03811161215057826127b091830161269f565b835260208101516001600160401b03811161215057826127d191830161269f565b602084015260408101516001600160401b03811161215057826127f59183016126e1565b604084015260608101516001600160401b03811161215057826128199183016126e1565b606084015260808101516001600160401b038111612150578261283d91830161269f565b608084015260a081015160028110156121505760a084015260c08101516001600160401b0381116121505760e09261287691830161269f565b60c084015201516001600160a01b03811681036121505760e082015290565b90816020910312612150575180151581036121505790565b156128b457565b60405162461bcd60e51b815260206004820152600c60248201526b4f6e6c7920466163746f727960a01b6044820152606490fd5b604051906128f5826120b2565b606060a083828152826020820152826040820152600083820152600060808201520152565b90612924826124ff565b61293160405191826120cd565b8281528092612942601f19916124ff565b019060005b82811061295357505050565b60209061295e6128e8565b82828501015201612947565b519060ff8216820361215057565b602081830312612150578051906001600160401b03821161215057019080601f83011215612150578151916129ac836124ff565b926129ba60405194856120cd565b80845260208085019160051b830101918383116121505760208101915b8383106129e657505050505090565b82516001600160401b0381116121505782019060c0828703601f1901126121505760405190612a14826120b2565b6020830151600281101561215057825260408301516001600160401b03811161215057876020612a469286010161269f565b602083015260608301516001600160401b03811161215057876020612a6d9286010161269f565b6040830152612a7e6080840161296a565b606083015260a08301516001600160401b03811161215057876020612aa5928601016126e1565b608083015260c0830151916001600160401b03831161215057612ad08860208096958196010161269f565b60a08201528152019201916129d7565b80518210156124ce5760209160051b010190565b6000198114612b035760010190565b634e487b7160e01b600052601160045260246000fd5b60405190612b2682612097565b600060c08360608152826020820152826040820152826060820152826080820152606060a08201520152565b60038210156121a75752565b90604051612b6b81612097565b60c08193612b78816123c1565b8352612b8e60ff60018301541660208501612b52565b600281015460408401526003810154606084015260048101546080840152612bb8600582016123c1565b60a0840152600601546001600160a01b0316910152565b90612bd9826124ff565b612be660405191826120cd565b8281528092612bf7601f19916124ff565b019060005b828110612c0857505050565b602090604051612c1781612061565b6060815260608382015260606040820152600060608201526060608082015282828501015201612bfc565b60405190612c4f826120b2565b606060a083600081528260208201528260408201526000838201528260808201520152565b6003546002546001600160a01b03166000805b838110612dda57508015612d9d57612ca19092919261291a565b906000906000935b818510612cb857505050905090565b612cc4610e42866124e4565b91604051916346abdd0560e11b83526020600484015260008380612ceb6024820188612178565b0381845afa928315612d9157600093612d76575b5060005b8351811015612d6557612d168185612ae0565b5151612d218161219d565b612d2a8161219d565b15612d38575b600101612d03565b94612d5d600191612d53612d4c8988612ae0565b5188612eaf565b610f6d828b612ae0565b959050612d30565b506001909601959092509050612ca9565b612d8a91933d8091833e6114df81836120cd565b9138612cff565b6040513d6000823e3d90fd5b505060405190506000612db16020836120cd565b81526000805b818110612dc357505090565b602090612dce6128e8565b82828601015201612db7565b9291612e1191926000612def610e42876124e4565b604051809581926346abdd0560e11b8352602060048401526024830190612178565b0381855afa928315612d9157600093612e94575b50825115612e885760005b8351811015612e7957612e438185612ae0565b5151612e4e8161219d565b612e578161219d565b15612e65575b600101612e30565b93612e71600191612af4565b949050612e5d565b50936001919392505b01612c87565b93600191939250612e82565b612ea891933d8091833e6114df81836120cd565b9138612e25565b90612eb86128e8565b50602081015190604081015160ff6060830151169060a0835193612edb8561219d565b01519360405195612eeb876120b2565b8652602086015260408501526060840152612f058161219d565b608083015260a08201529056fea26469706673582212204e1cb05fb02bbc9d1a2bc3fada156fcda18ec55a85bb186a31bc98dbbb43618664736f6c634300081b0033","opcodes":"PUSH1 0x80 CALLVALUE PUSH1 0xA3 JUMPI PUSH1 0x1F PUSH2 0x301A CODESIZE DUP2 SWAP1 SUB SWAP2 DUP3 ADD PUSH1 0x1F NOT AND DUP4 ADD SWAP2 PUSH1 0x1 PUSH1 0x1 PUSH1 0x40 SHL SUB DUP4 GT DUP5 DUP5 LT OR PUSH1 0xA8 JUMPI DUP1 DUP5 SWAP3 PUSH1 0x60 SWAP5 PUSH1 0x40 MSTORE DUP4 CODECOPY DUP2 ADD SUB SLT PUSH1 0xA3 JUMPI PUSH1 0x42 DUP2 PUSH1 0xBE JUMP JUMPDEST SWAP1 PUSH1 0x57 PUSH1 0x40 PUSH1 0x51 PUSH1 0x20 DUP5 ADD PUSH1 0xBE JUMP JUMPDEST SWAP3 ADD PUSH1 0xBE JUMP JUMPDEST PUSH1 0x0 DUP1 SLOAD PUSH1 0x1 PUSH1 0x1 PUSH1 0xA0 SHL SUB SWAP5 DUP6 AND PUSH1 0x1 PUSH1 0x1 PUSH1 0xA0 SHL SUB NOT SWAP2 DUP3 AND OR SWAP1 SWAP2 SSTORE PUSH1 0x1 DUP1 SLOAD SWAP4 DUP6 AND SWAP4 DUP3 AND SWAP4 SWAP1 SWAP4 OR SWAP1 SWAP3 SSTORE PUSH1 0x2 DUP1 SLOAD SWAP2 SWAP1 SWAP4 AND SWAP2 AND OR SWAP1 SSTORE PUSH1 0x40 MLOAD PUSH2 0x2F48 SWAP1 DUP2 PUSH2 0xD2 DUP3 CODECOPY RETURN JUMPDEST PUSH1 0x0 DUP1 REVERT JUMPDEST PUSH4 0x4E487B71 PUSH1 0xE0 SHL PUSH1 0x0 MSTORE PUSH1 0x41 PUSH1 0x4 MSTORE PUSH1 0x24 PUSH1 0x0 REVERT JUMPDEST MLOAD SWAP1 PUSH1 0x1 PUSH1 0x1 PUSH1 0xA0 SHL SUB DUP3 AND DUP3 SUB PUSH1 0xA3 JUMPI JUMP INVALID PUSH1 0x80 DUP1 PUSH1 0x40 MSTORE PUSH1 0x4 CALLDATASIZE LT ISZERO PUSH2 0x13 JUMPI PUSH1 0x0 DUP1 REVERT JUMPDEST PUSH1 0x0 SWAP1 DUP2 CALLDATALOAD PUSH1 0xE0 SHR SWAP1 DUP2 PUSH3 0x435DA5 EQ PUSH2 0x200B JUMPI POP DUP1 PUSH4 0x2D4A86B EQ PUSH2 0x1D74 JUMPI DUP1 PUSH4 0x1BBD28F9 EQ PUSH2 0x1A77 JUMPI DUP1 PUSH4 0x3FCA88CB EQ PUSH2 0x1A4E JUMPI DUP1 PUSH4 0x4D17D273 EQ PUSH2 0x1803 JUMPI DUP1 PUSH4 0x50168FBB EQ PUSH2 0x15B9 JUMPI DUP1 PUSH4 0x5162659C EQ PUSH2 0x14ED JUMPI DUP1 PUSH4 0x54253681 EQ PUSH2 0x12C5 JUMPI DUP1 PUSH4 0x65E90BCC EQ PUSH2 0x121B JUMPI DUP1 PUSH4 0x6B0A3FE5 EQ PUSH2 0x10D6 JUMPI DUP1 PUSH4 0x9413FCFD EQ PUSH2 0x10AD JUMPI DUP1 PUSH4 0xA1E0A4B0 EQ PUSH2 0x1085 JUMPI DUP1 PUSH4 0xBAEEDFAD EQ PUSH2 0xD7B JUMPI DUP1 PUSH4 0xCB960D6B EQ PUSH2 0xD14 JUMPI DUP1 PUSH4 0xD44FAA63 EQ PUSH2 0xBBE JUMPI DUP1 PUSH4 0xE521D586 EQ PUSH2 0x944 JUMPI DUP1 PUSH4 0xE5DD1D06 EQ PUSH2 0x21E JUMPI PUSH4 0xE8982035 EQ PUSH2 0xE6 JUMPI PUSH1 0x0 DUP1 REVERT JUMPDEST CALLVALUE PUSH2 0x21B JUMPI PUSH2 0xF4 CALLDATASIZE PUSH2 0x2465 JUMP JUMPDEST DUP3 SLOAD PUSH1 0x40 MLOAD PUSH4 0x95A8C58D PUSH1 0xE0 SHL DUP2 MSTORE CALLER PUSH1 0x4 DUP3 ADD MSTORE PUSH1 0x0 PUSH1 0x24 DUP3 ADD MSTORE SWAP3 SWAP2 SWAP1 PUSH1 0x20 SWAP1 DUP5 SWAP1 PUSH1 0x44 SWAP1 DUP3 SWAP1 PUSH1 0x1 PUSH1 0x1 PUSH1 0xA0 SHL SUB AND GAS STATICCALL SWAP2 DUP3 ISZERO PUSH2 0x210 JUMPI PUSH2 0x1A7 PUSH1 0x20 PUSH1 0x1 SWAP3 PUSH2 0x16D PUSH2 0x1D1 SWAP7 PUSH32 0xB15DD5852A569D549821835C26451FAD3D4015817430A7F3E7557F6875389353 SWAP9 DUP11 SWAP2 PUSH2 0x1E3 JUMPI JUMPDEST POP PUSH2 0x28AD JUMP JUMPDEST PUSH1 0x40 MLOAD SWAP1 DUP1 MLOAD SWAP2 PUSH1 0x3 DUP5 DUP4 ADD SWAP4 PUSH2 0x185 DUP2 DUP5 DUP8 PUSH2 0x2155 JUMP JUMPDEST DUP3 ADD SWAP2 PUSH1 0x4 DUP4 MSTORE DUP6 DUP2 TIMESTAMP SWAP5 SUB ADD SWAP1 KECCAK256 ADD SSTORE PUSH1 0x40 MLOAD SWAP4 DUP5 SWAP3 DUP4 SWAP3 MLOAD SWAP3 DUP4 SWAP2 PUSH2 0x2155 JUMP JUMPDEST DUP2 ADD PUSH1 0x4 DUP2 MSTORE SUB ADD SWAP1 KECCAK256 ADD PUSH1 0x1 PUSH1 0xFF NOT DUP3 SLOAD AND OR SWAP1 SSTORE PUSH1 0x40 MLOAD SWAP2 DUP3 SWAP2 PUSH1 0x60 DUP4 MSTORE PUSH1 0x60 DUP4 ADD SWAP1 PUSH2 0x2178 JUMP JUMPDEST CALLER PUSH1 0x20 DUP4 ADD MSTORE TIMESTAMP PUSH1 0x40 DUP4 ADD MSTORE SUB SWAP1 LOG1 DUP1 RETURN JUMPDEST PUSH2 0x203 SWAP2 POP DUP5 RETURNDATASIZE DUP7 GT PUSH2 0x209 JUMPI JUMPDEST PUSH2 0x1FB DUP2 DUP4 PUSH2 0x20CD JUMP JUMPDEST DUP2 ADD SWAP1 PUSH2 0x2895 JUMP JUMPDEST CODESIZE PUSH2 0x167 JUMP JUMPDEST POP RETURNDATASIZE PUSH2 0x1F1 JUMP JUMPDEST PUSH1 0x40 MLOAD RETURNDATASIZE DUP7 DUP3 RETURNDATACOPY RETURNDATASIZE SWAP1 REVERT JUMPDEST DUP1 REVERT JUMPDEST POP CALLVALUE PUSH2 0x21B JUMPI PUSH2 0x100 CALLDATASIZE PUSH1 0x3 NOT ADD SLT PUSH2 0x21B JUMPI PUSH1 0x4 CALLDATALOAD PUSH1 0x1 PUSH1 0x1 PUSH1 0x40 SHL SUB DUP2 GT PUSH2 0x940 JUMPI PUSH2 0x250 SWAP1 CALLDATASIZE SWAP1 PUSH1 0x4 ADD PUSH2 0x2109 JUMP JUMPDEST PUSH1 0x24 CALLDATALOAD PUSH1 0x1 PUSH1 0x1 PUSH1 0x40 SHL SUB DUP2 GT PUSH2 0x93C JUMPI PUSH2 0x26F SWAP1 CALLDATASIZE SWAP1 PUSH1 0x4 ADD PUSH2 0x2109 JUMP JUMPDEST SWAP1 PUSH1 0x44 CALLDATALOAD PUSH1 0x1 PUSH1 0x1 PUSH1 0x40 SHL SUB DUP2 GT PUSH2 0x8C3 JUMPI PUSH2 0x28F SWAP1 CALLDATASIZE SWAP1 PUSH1 0x4 ADD PUSH2 0x2109 JUMP JUMPDEST SWAP2 PUSH1 0x64 CALLDATALOAD PUSH1 0x1 PUSH1 0x1 PUSH1 0x40 SHL SUB DUP2 GT PUSH2 0x938 JUMPI PUSH2 0x2AF SWAP1 CALLDATASIZE SWAP1 PUSH1 0x4 ADD PUSH2 0x2516 JUMP JUMPDEST SWAP1 PUSH1 0x84 CALLDATALOAD PUSH1 0x1 PUSH1 0x1 PUSH1 0x40 SHL SUB DUP2 GT PUSH2 0x934 JUMPI PUSH2 0x2CF SWAP1 CALLDATASIZE SWAP1 PUSH1 0x4 ADD PUSH2 0x2109 JUMP JUMPDEST SWAP2 PUSH1 0xA4 CALLDATALOAD PUSH1 0x1 PUSH1 0x1 PUSH1 0x40 SHL SUB DUP2 GT PUSH2 0x8D2 JUMPI PUSH2 0x2EF SWAP1 CALLDATASIZE SWAP1 PUSH1 0x4 ADD PUSH2 0x2516 JUMP JUMPDEST PUSH1 0xC4 CALLDATALOAD PUSH1 0x1 PUSH1 0x1 PUSH1 0x40 SHL SUB DUP2 GT PUSH2 0x930 JUMPI PUSH2 0x30E SWAP1 CALLDATASIZE SWAP1 PUSH1 0x4 ADD PUSH2 0x2109 JUMP JUMPDEST SWAP4 PUSH1 0xE4 CALLDATALOAD SWAP1 PUSH1 0x2 DUP3 LT ISZERO PUSH2 0x92C JUMPI DUP9 SLOAD PUSH1 0x40 MLOAD PUSH4 0x95A8C58D PUSH1 0xE0 SHL DUP2 MSTORE CALLER PUSH1 0x4 DUP3 ADD MSTORE PUSH1 0x0 PUSH1 0x24 DUP3 ADD MSTORE SWAP1 PUSH1 0x20 SWAP1 DUP3 SWAP1 PUSH1 0x44 SWAP1 DUP3 SWAP1 PUSH1 0x1 PUSH1 0x1 PUSH1 0xA0 SHL SUB AND GAS STATICCALL DUP1 ISZERO PUSH2 0x921 JUMPI PUSH2 0x364 SWAP2 DUP12 SWAP2 PUSH2 0x908 JUMPI POP PUSH2 0x28AD JUMP JUMPDEST DUP7 MLOAD ISZERO PUSH2 0x8D6 JUMPI PUSH1 0x2 SLOAD DUP10 SWAP6 PUSH1 0x1 PUSH1 0x1 PUSH1 0xA0 SHL SUB SWAP1 SWAP2 AND SWAP2 DUP3 EXTCODESIZE ISZERO PUSH2 0x8D2 JUMPI DUP9 DUP11 SWAP5 DUP9 SWAP7 SWAP3 DUP8 SWAP4 PUSH1 0x40 MLOAD SWAP10 DUP11 SWAP9 DUP10 SWAP8 DUP9 SWAP7 PUSH4 0xA24F6509 PUSH1 0xE0 SHL DUP9 MSTORE PUSH1 0x4 DUP9 ADD PUSH2 0x120 SWAP1 MSTORE PUSH2 0x124 DUP9 ADD PUSH2 0x3B6 SWAP2 PUSH2 0x2178 JUMP JUMPDEST DUP8 DUP2 SUB PUSH1 0x3 NOT ADD PUSH1 0x24 DUP10 ADD MSTORE PUSH2 0x3CB SWAP2 PUSH2 0x2178 JUMP JUMPDEST DUP7 DUP2 SUB PUSH1 0x3 NOT ADD PUSH1 0x44 DUP9 ADD MSTORE PUSH2 0x3E0 SWAP2 PUSH2 0x2178 JUMP JUMPDEST DUP6 DUP2 SUB PUSH1 0x3 NOT ADD PUSH1 0x64 DUP8 ADD MSTORE PUSH2 0x3F5 SWAP2 PUSH2 0x2287 JUMP JUMPDEST DUP5 DUP2 SUB PUSH1 0x3 NOT ADD PUSH1 0x84 DUP7 ADD MSTORE PUSH2 0x40A SWAP2 PUSH2 0x2287 JUMP JUMPDEST DUP4 DUP2 SUB PUSH1 0x3 NOT ADD PUSH1 0xA4 DUP6 ADD MSTORE PUSH2 0x41F SWAP2 PUSH2 0x2178 JUMP JUMPDEST SWAP1 PUSH2 0x429 DUP2 PUSH2 0x219D JUMP JUMPDEST PUSH1 0xC4 DUP4 ADD MSTORE DUP2 DUP2 SUB PUSH1 0x3 NOT ADD PUSH1 0xE4 DUP4 ADD MSTORE PUSH2 0x444 SWAP1 DUP11 PUSH2 0x2178 JUMP JUMPDEST CALLER PUSH2 0x104 DUP4 ADD MSTORE SUB SWAP3 GAS CALL DUP1 ISZERO PUSH2 0x8C7 JUMPI PUSH2 0x8AE JUMPI JUMPDEST POP POP PUSH2 0x464 PUSH2 0x2B19 JUMP JUMPDEST POP PUSH1 0x40 MLOAD SWAP1 PUSH2 0x472 DUP3 PUSH2 0x2097 JUMP JUMPDEST PUSH1 0x20 DUP1 SWAP3 PUSH1 0x40 MLOAD PUSH2 0x483 DUP4 DUP3 PUSH2 0x20CD JUMP JUMPDEST DUP8 DUP2 MSTORE DUP2 MSTORE DUP2 DUP2 ADD DUP8 DUP2 MSTORE PUSH1 0x40 DUP3 ADD TIMESTAMP DUP2 MSTORE PUSH1 0x60 DUP4 ADD DUP10 DUP2 MSTORE PUSH1 0x80 DUP5 ADD SWAP1 DUP11 DUP3 MSTORE PUSH1 0x40 MLOAD SWAP3 PUSH2 0x4B2 DUP8 DUP6 PUSH2 0x20CD JUMP JUMPDEST DUP12 DUP5 MSTORE PUSH1 0xA0 DUP7 ADD SWAP4 DUP5 MSTORE PUSH1 0xC0 DUP7 ADD SWAP5 DUP13 DUP7 MSTORE PUSH2 0x4F3 PUSH2 0x4E1 DUP10 DUP14 PUSH1 0x40 MLOAD SWAP12 DUP13 SWAP4 DUP3 DUP6 SWAP4 MLOAD SWAP3 DUP4 SWAP2 ADD SWAP15 DUP16 PUSH2 0x2155 JUMP JUMPDEST DUP2 ADD PUSH1 0x4 DUP2 MSTORE SUB ADD SWAP1 KECCAK256 SWAP8 MLOAD DUP9 PUSH2 0x2594 JUMP JUMPDEST PUSH1 0x1 DUP8 ADD SWAP1 MLOAD PUSH1 0x3 DUP2 LT ISZERO PUSH2 0x89A JUMPI DUP2 SLOAD PUSH1 0xFF NOT AND PUSH1 0xFF SWAP2 SWAP1 SWAP2 AND OR SWAP1 SSTORE MLOAD PUSH1 0x2 DUP7 ADD SSTORE MLOAD PUSH1 0x3 DUP6 ADD SSTORE MLOAD PUSH1 0x4 DUP5 ADD SSTORE MLOAD PUSH1 0x6 SWAP2 SWAP1 PUSH2 0x535 SWAP1 PUSH1 0x5 DUP6 ADD PUSH2 0x2594 JUMP JUMPDEST MLOAD SWAP2 ADD DUP1 SLOAD PUSH1 0x1 PUSH1 0x1 PUSH1 0xA0 SHL SUB NOT AND PUSH1 0x1 PUSH1 0x1 PUSH1 0xA0 SHL SUB SWAP3 SWAP1 SWAP3 AND SWAP2 SWAP1 SWAP2 OR SWAP1 SSTORE PUSH1 0x3 SLOAD PUSH1 0x1 PUSH1 0x40 SHL DUP2 LT ISZERO PUSH2 0x886 JUMPI DUP1 PUSH1 0x1 PUSH2 0x575 SWAP3 ADD PUSH1 0x3 SSTORE PUSH2 0x24E4 JUMP JUMPDEST PUSH2 0x872 JUMPI DUP5 PUSH2 0x583 SWAP2 PUSH2 0x2594 JUMP JUMPDEST PUSH1 0x40 SWAP4 DUP5 MLOAD SWAP1 PUSH2 0x593 DUP7 DUP4 PUSH2 0x20CD JUMP JUMPDEST PUSH1 0xB DUP3 MSTORE PUSH11 0x4C414C414C414C31322D31 PUSH1 0xA8 SHL DUP6 DUP4 ADD MSTORE PUSH1 0x1 PUSH2 0x69B DUP7 DUP9 MLOAD SWAP6 PUSH2 0x5BD DUP11 DUP9 PUSH2 0x20CD JUMP JUMPDEST PUSH1 0xD DUP8 MSTORE PUSH13 0x212827A69026B0B5B0B9B9B0B9 PUSH1 0x99 SHL DUP3 DUP9 ADD MSTORE PUSH2 0x5FD DUP8 PUSH1 0x5 DUP13 MLOAD DUP6 DUP2 DUP11 MLOAD PUSH2 0x5ED DUP2 DUP4 DUP11 PUSH2 0x2155 JUMP JUMPDEST DUP2 ADD PUSH1 0x4 DUP2 MSTORE SUB ADD SWAP1 KECCAK256 ADD PUSH2 0x2594 JUMP JUMPDEST PUSH1 0x6 DUP11 MLOAD DUP4 DUP2 DUP9 MLOAD PUSH2 0x610 DUP2 DUP4 DUP9 PUSH2 0x2155 JUMP JUMPDEST DUP2 ADD PUSH1 0x4 DUP2 MSTORE SUB ADD SWAP1 KECCAK256 ADD PUSH20 0x70997970C51812DC3A010C7D01B50E0D17DC79C8 PUSH12 0xFFFFFFFFFFFFFFFFFFFFFFFF PUSH1 0xA0 SHL DUP3 SLOAD AND OR SWAP1 SSTORE PUSH2 0x66A DUP7 DUP12 MLOAD DUP5 DUP2 DUP10 MLOAD PUSH2 0x65B DUP2 DUP4 DUP10 PUSH2 0x2155 JUMP JUMPDEST DUP2 ADD PUSH1 0x4 DUP2 MSTORE SUB ADD SWAP1 KECCAK256 PUSH2 0x2594 JUMP JUMPDEST DUP10 MLOAD PUSH1 0x4 DUP7 MLOAD PUSH2 0x67B DUP2 DUP5 DUP7 PUSH2 0x2155 JUMP JUMPDEST DUP3 ADD SWAP2 DUP2 DUP4 MSTORE DUP5 DUP2 TIMESTAMP SWAP5 SUB ADD SWAP1 KECCAK256 ADD SSTORE DUP10 MLOAD DUP1 SWAP4 DUP2 SWAP3 DUP8 MLOAD SWAP3 DUP4 SWAP2 PUSH2 0x2155 JUMP JUMPDEST DUP2 ADD PUSH1 0x4 DUP2 MSTORE SUB ADD SWAP1 KECCAK256 ADD PUSH1 0x2 PUSH1 0xFF NOT DUP3 SLOAD AND OR SWAP1 SSTORE PUSH1 0x1 DUP1 PUSH1 0xA0 SHL SUB PUSH1 0x2 SLOAD AND DUP9 DUP8 MLOAD DUP1 SWAP3 PUSH4 0x6B2C1339 PUSH1 0xE1 SHL DUP3 MSTORE DUP9 PUSH1 0x4 DUP4 ADD MSTORE DUP2 DUP1 PUSH2 0x6E0 PUSH1 0x24 DUP3 ADD DUP9 PUSH2 0x2178 JUMP JUMPDEST SUB SWAP2 GAS STATICCALL SWAP1 DUP2 ISZERO PUSH2 0x868 JUMPI DUP10 SWAP2 PUSH2 0x846 JUMPI JUMPDEST POP PUSH2 0x726 DUP7 PUSH1 0xC0 DUP2 DUP5 ADD MLOAD SWAP4 ADD MLOAD DUP10 MLOAD SWAP5 PUSH2 0x70C DUP7 PUSH2 0x207C JUMP JUMPDEST DUP6 MSTORE DUP2 DUP6 ADD SWAP4 DUP5 MSTORE DUP2 DUP11 MLOAD SWAP4 DUP3 DUP6 DUP1 SWAP5 MLOAD SWAP4 DUP5 SWAP3 ADD PUSH2 0x2155 JUMP JUMPDEST DUP2 ADD PUSH1 0x5 DUP2 MSTORE SUB ADD SWAP1 KECCAK256 DUP1 SLOAD SWAP1 PUSH1 0x1 PUSH1 0x40 SHL DUP3 LT ISZERO PUSH2 0x832 JUMPI SWAP1 PUSH2 0x74F SWAP2 PUSH1 0x1 DUP3 ADD DUP2 SSTORE PUSH2 0x24B2 JUMP JUMPDEST SWAP3 SWAP1 SWAP3 PUSH2 0x81E JUMPI PUSH2 0x812 SWAP5 PUSH2 0x7E9 PUSH32 0xA8A9F5DE4B20098E7555472AD4ADFBBB072E2FDD6BFA4C1B1A7B7645F4780351 SWAP11 SWAP9 SWAP6 PUSH2 0x7C4 PUSH2 0x805 SWAP12 SWAP10 SWAP7 PUSH1 0x1 PUSH32 0x40BD250F4E1CAD69631AF5D42189453E9C51F25278BD4232FE29ED01AA2F6EE4 SWAP8 PUSH2 0x7BC PUSH2 0x7D7 SWAP9 MLOAD DUP5 PUSH2 0x2594 JUMP JUMPDEST MLOAD SWAP2 ADD PUSH2 0x2594 JUMP JUMPDEST DUP9 MLOAD SWAP4 DUP5 SWAP4 PUSH1 0x80 DUP6 MSTORE PUSH1 0x80 DUP6 ADD SWAP1 PUSH2 0x2178 JUMP JUMPDEST SWAP1 CALLER DUP9 DUP6 ADD MSTORE DUP4 DUP3 SUB DUP11 DUP6 ADD MSTORE PUSH2 0x2178 JUMP JUMPDEST TIMESTAMP PUSH1 0x60 DUP4 ADD MSTORE SUB SWAP1 LOG1 DUP4 MLOAD SWAP6 DUP7 SWAP6 PUSH1 0x60 DUP8 MSTORE PUSH1 0x60 DUP8 ADD SWAP1 PUSH2 0x2178 JUMP JUMPDEST SWAP2 DUP6 DUP4 SUB SWAP1 DUP7 ADD MSTORE PUSH2 0x2178 JUMP JUMPDEST SWAP1 CALLER SWAP1 DUP4 ADD MSTORE SUB SWAP1 LOG1 DUP1 RETURN JUMPDEST PUSH4 0x4E487B71 PUSH1 0xE0 SHL DUP11 MSTORE PUSH1 0x4 DUP11 SWAP1 MSTORE PUSH1 0x24 DUP11 REVERT JUMPDEST PUSH4 0x4E487B71 PUSH1 0xE0 SHL DUP12 MSTORE PUSH1 0x41 PUSH1 0x4 MSTORE PUSH1 0x24 DUP12 REVERT JUMPDEST PUSH2 0x862 SWAP2 POP RETURNDATASIZE DUP1 DUP12 DUP4 RETURNDATACOPY PUSH2 0x85A DUP2 DUP4 PUSH2 0x20CD JUMP JUMPDEST DUP2 ADD SWAP1 PUSH2 0x275F JUMP JUMPDEST CODESIZE PUSH2 0x6F2 JUMP JUMPDEST DUP8 MLOAD RETURNDATASIZE DUP12 DUP3 RETURNDATACOPY RETURNDATASIZE SWAP1 REVERT JUMPDEST PUSH4 0x4E487B71 PUSH1 0xE0 SHL DUP8 MSTORE PUSH1 0x4 DUP8 SWAP1 MSTORE PUSH1 0x24 DUP8 REVERT JUMPDEST PUSH4 0x4E487B71 PUSH1 0xE0 SHL DUP8 MSTORE PUSH1 0x41 PUSH1 0x4 MSTORE PUSH1 0x24 DUP8 REVERT JUMPDEST PUSH4 0x4E487B71 PUSH1 0xE0 SHL DUP15 MSTORE PUSH1 0x21 PUSH1 0x4 MSTORE PUSH1 0x24 DUP15 REVERT JUMPDEST DUP2 PUSH2 0x8B8 SWAP2 PUSH2 0x20CD JUMP JUMPDEST PUSH2 0x8C3 JUMPI DUP4 CODESIZE PUSH2 0x45A JUMP JUMPDEST DUP4 DUP1 REVERT JUMPDEST PUSH1 0x40 MLOAD RETURNDATASIZE DUP5 DUP3 RETURNDATACOPY RETURNDATASIZE SWAP1 REVERT JUMPDEST DUP7 DUP1 REVERT JUMPDEST PUSH1 0x40 MLOAD PUSH3 0x461BCD PUSH1 0xE5 SHL DUP2 MSTORE PUSH1 0x20 PUSH1 0x4 DUP3 ADD MSTORE PUSH1 0xA PUSH1 0x24 DUP3 ADD MSTORE PUSH10 0x125B9D985B1A59081251 PUSH1 0xB2 SHL PUSH1 0x44 DUP3 ADD MSTORE PUSH1 0x64 SWAP1 REVERT JUMPDEST PUSH2 0x203 SWAP2 POP PUSH1 0x20 RETURNDATASIZE PUSH1 0x20 GT PUSH2 0x209 JUMPI PUSH2 0x1FB DUP2 DUP4 PUSH2 0x20CD JUMP JUMPDEST PUSH1 0x40 MLOAD RETURNDATASIZE DUP13 DUP3 RETURNDATACOPY RETURNDATASIZE SWAP1 REVERT JUMPDEST DUP9 DUP1 REVERT JUMPDEST DUP8 DUP1 REVERT JUMPDEST DUP6 DUP1 REVERT JUMPDEST DUP5 DUP1 REVERT JUMPDEST DUP3 DUP1 REVERT JUMPDEST POP DUP1 REVERT JUMPDEST POP CALLVALUE PUSH2 0x21B JUMPI PUSH1 0xC0 CALLDATASIZE PUSH1 0x3 NOT ADD SLT PUSH2 0x21B JUMPI PUSH1 0x4 CALLDATALOAD PUSH1 0x1 PUSH1 0x1 PUSH1 0x40 SHL SUB DUP2 GT PUSH2 0x940 JUMPI PUSH2 0x975 SWAP1 CALLDATASIZE SWAP1 PUSH1 0x4 ADD PUSH2 0x2109 JUMP JUMPDEST PUSH1 0x24 CALLDATALOAD PUSH1 0x1 PUSH1 0x1 PUSH1 0x40 SHL SUB DUP2 GT PUSH2 0x93C JUMPI PUSH2 0x994 SWAP1 CALLDATASIZE SWAP1 PUSH1 0x4 ADD PUSH2 0x2109 JUMP JUMPDEST SWAP1 PUSH1 0x44 CALLDATALOAD PUSH1 0x1 PUSH1 0x1 PUSH1 0x40 SHL SUB DUP2 GT PUSH2 0x8C3 JUMPI PUSH2 0x9B4 SWAP1 CALLDATASIZE SWAP1 PUSH1 0x4 ADD PUSH2 0x2109 JUMP JUMPDEST SWAP2 PUSH1 0x64 CALLDATALOAD SWAP1 PUSH1 0xFF DUP3 AND DUP1 SWAP3 SUB PUSH2 0x938 JUMPI PUSH1 0x84 CALLDATALOAD PUSH1 0x1 PUSH1 0x1 PUSH1 0x40 SHL SUB DUP2 GT PUSH2 0x934 JUMPI PUSH2 0x9E3 SWAP1 CALLDATASIZE SWAP1 PUSH1 0x4 ADD PUSH2 0x2516 JUMP JUMPDEST SWAP3 DUP6 PUSH1 0xA4 CALLDATALOAD PUSH1 0x1 PUSH1 0x1 PUSH1 0x40 SHL SUB DUP2 GT PUSH2 0x940 JUMPI PUSH2 0xA04 SWAP1 CALLDATASIZE SWAP1 PUSH1 0x4 ADD PUSH2 0x2109 JUMP JUMPDEST DUP2 SLOAD PUSH1 0x40 MLOAD PUSH4 0x95A8C58D PUSH1 0xE0 SHL DUP2 MSTORE CALLER PUSH1 0x4 DUP3 ADD MSTORE PUSH1 0x0 PUSH1 0x24 DUP3 ADD MSTORE SWAP2 SWAP7 SWAP2 SWAP1 PUSH1 0x20 SWAP1 DUP3 SWAP1 PUSH1 0x44 SWAP1 DUP3 SWAP1 PUSH1 0x1 PUSH1 0x1 PUSH1 0xA0 SHL SUB AND GAS STATICCALL DUP1 ISZERO PUSH2 0xBB3 JUMPI PUSH2 0xA4F SWAP2 DUP5 SWAP2 PUSH2 0x908 JUMPI POP PUSH2 0x28AD JUMP JUMPDEST PUSH1 0x2 SLOAD PUSH1 0x1 PUSH1 0x1 PUSH1 0xA0 SHL SUB AND DUP1 EXTCODESIZE ISZERO PUSH2 0x93C JUMPI PUSH2 0xA9B DUP4 PUSH2 0xAAD SWAP6 PUSH2 0xAE9 PUSH2 0xAD7 DUP10 SWAP7 PUSH2 0xABF DUP15 PUSH1 0x40 MLOAD SWAP12 DUP13 SWAP11 DUP12 SWAP10 DUP11 SWAP9 PUSH4 0x7290EAC3 PUSH1 0xE1 SHL DUP11 MSTORE PUSH1 0xC0 PUSH1 0x4 DUP12 ADD MSTORE PUSH1 0xC4 DUP11 ADD SWAP1 PUSH2 0x2178 JUMP JUMPDEST DUP9 DUP2 SUB PUSH1 0x3 NOT ADD PUSH1 0x24 DUP11 ADD MSTORE SWAP1 PUSH2 0x2178 JUMP JUMPDEST DUP7 DUP2 SUB PUSH1 0x3 NOT ADD PUSH1 0x44 DUP9 ADD MSTORE SWAP1 PUSH2 0x2178 JUMP JUMPDEST SWAP1 DUP13 PUSH1 0x64 DUP7 ADD MSTORE PUSH1 0x3 NOT DUP6 DUP4 SUB ADD PUSH1 0x84 DUP7 ADD MSTORE PUSH2 0x2287 JUMP JUMPDEST DUP3 DUP2 SUB PUSH1 0x3 NOT ADD PUSH1 0xA4 DUP5 ADD MSTORE DUP12 PUSH2 0x2178 JUMP JUMPDEST SUB SWAP3 GAS CALL DUP1 ISZERO PUSH2 0xBA8 JUMPI PUSH2 0xB62 JUMPI JUMPDEST POP PUSH2 0xB3B SWAP3 PUSH2 0xB4E PUSH32 0x48086AA029A355C9DD13E9F17292A5CC49F3B533BF3324AD5A543814B0FF5F13 SWAP6 SWAP4 PUSH2 0xB5C SWAP4 PUSH1 0x40 MLOAD SWAP7 DUP8 SWAP7 PUSH1 0x80 DUP9 MSTORE PUSH1 0x80 DUP9 ADD SWAP1 PUSH2 0x2178 JUMP JUMPDEST SWAP2 PUSH1 0x20 DUP8 ADD MSTORE DUP6 DUP3 SUB PUSH1 0x40 DUP8 ADD MSTORE PUSH2 0x2178 JUMP JUMPDEST SWAP1 DUP4 DUP3 SUB PUSH1 0x60 DUP6 ADD MSTORE PUSH2 0x2178 JUMP JUMPDEST SUB SWAP1 LOG1 DUP1 RETURN JUMPDEST SWAP3 PUSH2 0xB4E PUSH32 0x48086AA029A355C9DD13E9F17292A5CC49F3B533BF3324AD5A543814B0FF5F13 SWAP6 SWAP4 DUP8 PUSH2 0xB9B PUSH2 0xB5C SWAP6 SWAP10 PUSH2 0xB3B SWAP9 PUSH2 0x20CD JUMP JUMPDEST SWAP8 SWAP4 POP SWAP4 SWAP6 POP POP SWAP3 PUSH2 0xAF8 JUMP JUMPDEST PUSH1 0x40 MLOAD RETURNDATASIZE DUP9 DUP3 RETURNDATACOPY RETURNDATASIZE SWAP1 REVERT JUMPDEST PUSH1 0x40 MLOAD RETURNDATASIZE DUP6 DUP3 RETURNDATACOPY RETURNDATASIZE SWAP1 REVERT JUMPDEST POP CALLVALUE PUSH2 0x21B JUMPI PUSH1 0x20 CALLDATASIZE PUSH1 0x3 NOT ADD SLT PUSH2 0x21B JUMPI PUSH1 0x4 CALLDATALOAD DUP2 PUSH1 0x1 PUSH1 0x1 PUSH1 0x40 SHL SUB DUP3 GT PUSH2 0x21B JUMPI PUSH2 0xBF3 PUSH2 0xC21 SWAP3 CALLDATASIZE SWAP1 PUSH1 0x4 ADD PUSH2 0x2109 JUMP JUMPDEST PUSH1 0x1 DUP1 PUSH1 0xA0 SHL SUB PUSH1 0x1 SLOAD AND PUSH1 0x40 MLOAD DUP1 DUP1 SWAP6 DUP2 SWAP5 PUSH4 0xE49D0327 PUSH1 0xE0 SHL DUP4 MSTORE PUSH1 0x20 PUSH1 0x4 DUP5 ADD MSTORE PUSH1 0x24 DUP4 ADD SWAP1 PUSH2 0x2178 JUMP JUMPDEST SUB SWAP2 GAS STATICCALL SWAP1 DUP2 ISZERO PUSH2 0x8C7 JUMPI DUP3 SWAP2 PUSH2 0xC7C JUMPI JUMPDEST POP SWAP1 PUSH1 0x40 MLOAD SWAP2 DUP3 SWAP2 PUSH1 0x20 DUP4 ADD PUSH1 0x20 DUP5 MSTORE DUP3 MLOAD DUP1 SWAP2 MSTORE PUSH1 0x20 PUSH1 0x40 DUP6 ADD SWAP4 ADD SWAP2 JUMPDEST DUP2 DUP2 LT PUSH2 0xC60 JUMPI POP POP POP SUB SWAP1 RETURN JUMPDEST DUP3 MLOAD PUSH1 0xFF AND DUP5 MSTORE DUP6 SWAP5 POP PUSH1 0x20 SWAP4 DUP5 ADD SWAP4 SWAP1 SWAP3 ADD SWAP2 PUSH1 0x1 ADD PUSH2 0xC52 JUMP JUMPDEST SWAP1 POP RETURNDATASIZE DUP1 DUP4 DUP4 RETURNDATACOPY PUSH2 0xC8D DUP2 DUP4 PUSH2 0x20CD JUMP JUMPDEST DUP2 ADD SWAP1 PUSH1 0x20 DUP2 DUP4 SUB SLT PUSH2 0x93C JUMPI DUP1 MLOAD SWAP1 PUSH1 0x1 PUSH1 0x1 PUSH1 0x40 SHL SUB DUP3 GT PUSH2 0x8C3 JUMPI ADD SWAP1 DUP1 PUSH1 0x1F DUP4 ADD SLT ISZERO PUSH2 0x93C JUMPI DUP2 MLOAD PUSH2 0xCC3 DUP2 PUSH2 0x24FF JUMP JUMPDEST SWAP3 PUSH2 0xCD1 PUSH1 0x40 MLOAD SWAP5 DUP6 PUSH2 0x20CD JUMP JUMPDEST DUP2 DUP5 MSTORE PUSH1 0x20 DUP1 DUP6 ADD SWAP3 PUSH1 0x5 SHL DUP3 ADD ADD SWAP3 DUP4 GT PUSH2 0x938 JUMPI PUSH1 0x20 ADD SWAP1 JUMPDEST DUP3 DUP3 LT PUSH2 0xCFC JUMPI POP POP POP CODESIZE PUSH2 0xC33 JUMP JUMPDEST PUSH1 0x20 DUP1 SWAP2 PUSH2 0xD09 DUP5 PUSH2 0x296A JUMP JUMPDEST DUP2 MSTORE ADD SWAP2 ADD SWAP1 PUSH2 0xCEC JUMP JUMPDEST POP CALLVALUE PUSH2 0x21B JUMPI PUSH1 0x20 CALLDATASIZE PUSH1 0x3 NOT ADD SLT PUSH2 0x21B JUMPI PUSH1 0x4 CALLDATALOAD PUSH1 0x3 SLOAD DUP2 LT ISZERO PUSH2 0x940 JUMPI PUSH2 0xD3C SWAP1 PUSH2 0x24E4 JUMP JUMPDEST SWAP2 SWAP1 SWAP2 PUSH2 0xD67 JUMPI PUSH2 0xD63 PUSH2 0xD4F DUP4 PUSH2 0x23C1 JUMP JUMPDEST PUSH1 0x40 MLOAD SWAP2 DUP3 SWAP2 PUSH1 0x20 DUP4 MSTORE PUSH1 0x20 DUP4 ADD SWAP1 PUSH2 0x2178 JUMP JUMPDEST SUB SWAP1 RETURN JUMPDEST PUSH4 0x4E487B71 PUSH1 0xE0 SHL DUP2 MSTORE PUSH1 0x4 DUP2 SWAP1 MSTORE PUSH1 0x24 SWAP1 REVERT JUMPDEST POP CALLVALUE PUSH2 0x21B JUMPI PUSH1 0x20 CALLDATASIZE PUSH1 0x3 NOT ADD SLT PUSH2 0x21B JUMPI PUSH1 0x4 CALLDATALOAD PUSH1 0x1 PUSH1 0x1 PUSH1 0x40 SHL SUB DUP2 GT PUSH2 0x940 JUMPI PUSH2 0xDAC SWAP1 CALLDATASIZE SWAP1 PUSH1 0x4 ADD PUSH2 0x2109 JUMP JUMPDEST DUP2 SLOAD PUSH1 0x40 MLOAD PUSH4 0x95A8C58D PUSH1 0xE0 SHL DUP2 MSTORE CALLER PUSH1 0x4 DUP3 ADD MSTORE PUSH1 0x0 PUSH1 0x24 DUP3 ADD MSTORE SWAP1 PUSH1 0x20 SWAP1 DUP3 SWAP1 PUSH1 0x44 SWAP1 DUP3 SWAP1 PUSH1 0x1 PUSH1 0x1 PUSH1 0xA0 SHL SUB AND GAS STATICCALL DUP1 ISZERO PUSH2 0xBB3 JUMPI PUSH2 0xDF4 SWAP2 DUP5 SWAP2 PUSH2 0x908 JUMPI POP PUSH2 0x28AD JUMP JUMPDEST PUSH1 0x3 SLOAD PUSH1 0x2 SLOAD PUSH1 0x20 DUP4 ADD SWAP1 PUSH1 0x1 PUSH1 0x1 PUSH1 0xA0 SHL SUB AND DUP5 DUP1 JUMPDEST DUP5 DUP2 LT PUSH2 0xFB6 JUMPI POP PUSH2 0xE1C SWAP1 PUSH2 0x2BCF JUMP JUMPDEST SWAP4 DUP6 SWAP3 DUP7 JUMPDEST DUP6 DUP2 LT PUSH2 0xE36 JUMPI PUSH1 0x40 MLOAD DUP1 PUSH2 0xD63 DUP10 DUP3 PUSH2 0x22ED JUMP JUMPDEST PUSH2 0xE48 PUSH2 0xE42 DUP3 PUSH2 0x24E4 JUMP JUMPDEST POP PUSH2 0x23C1 JUMP JUMPDEST PUSH1 0x40 MLOAD PUSH4 0x6B2C1339 PUSH1 0xE1 SHL DUP2 MSTORE PUSH1 0x20 PUSH1 0x4 DUP3 ADD MSTORE DUP10 DUP2 DUP1 PUSH2 0xE6C PUSH1 0x24 DUP3 ADD DUP7 PUSH2 0x2178 JUMP JUMPDEST SUB DUP2 DUP10 GAS STATICCALL SWAP1 DUP2 ISZERO PUSH2 0x921 JUMPI DUP11 SWAP2 PUSH2 0xF9C JUMPI JUMPDEST POP PUSH2 0xEA7 PUSH1 0x40 MLOAD PUSH1 0x20 DUP2 DUP6 MLOAD PUSH2 0xE98 DUP2 DUP4 DUP6 DUP11 ADD PUSH2 0x2155 JUMP JUMPDEST DUP2 ADD PUSH1 0x4 DUP2 MSTORE SUB ADD SWAP1 KECCAK256 PUSH2 0x2B5E JUMP JUMPDEST SWAP1 PUSH1 0xC0 DUP2 ADD SWAP1 DUP2 MLOAD PUSH1 0x40 MLOAD PUSH2 0xEDD PUSH1 0x20 DUP3 DUP2 PUSH2 0xECC DUP2 DUP4 ADD SWAP7 DUP8 DUP2 MLOAD SWAP4 DUP5 SWAP3 ADD PUSH2 0x2155 JUMP JUMPDEST DUP2 ADD SUB ADD PUSH1 0x1F NOT DUP2 ADD DUP4 MSTORE DUP3 PUSH2 0x20CD JUMP JUMPDEST MLOAD SWAP1 KECCAK256 DUP7 PUSH1 0x40 MLOAD PUSH2 0xEFD PUSH1 0x20 DUP3 DUP13 PUSH2 0xECC DUP4 DUP4 ADD SWAP7 DUP8 SWAP3 MLOAD SWAP3 DUP4 SWAP2 PUSH2 0x2155 JUMP JUMPDEST MLOAD SWAP1 KECCAK256 EQ PUSH2 0xF12 JUMPI JUMPDEST POP POP POP POP PUSH1 0x1 ADD PUSH2 0xE21 JUMP JUMPDEST PUSH1 0x20 SWAP1 SWAP9 SWAP5 SWAP9 ADD MLOAD SWAP2 PUSH1 0x20 DUP2 MLOAD SWAP2 ADD MLOAD SWAP2 PUSH1 0x3 DUP4 LT ISZERO PUSH2 0xF88 JUMPI PUSH2 0xF7E SWAP5 SWAP3 PUSH1 0x1 SWAP7 SWAP5 SWAP3 PUSH2 0xF5E SWAP3 MLOAD SWAP4 PUSH1 0x40 MLOAD SWAP6 PUSH2 0xF49 DUP8 PUSH2 0x2061 JUMP JUMPDEST DUP7 MSTORE PUSH1 0x20 DUP7 ADD MSTORE PUSH1 0x40 DUP6 ADD MSTORE PUSH1 0x60 DUP5 ADD PUSH2 0x2B52 JUMP JUMPDEST PUSH1 0x80 DUP3 ADD MSTORE PUSH2 0xF6D DUP3 DUP12 PUSH2 0x2AE0 JUMP JUMPDEST MSTORE PUSH2 0xF78 DUP2 DUP11 PUSH2 0x2AE0 JUMP JUMPDEST POP PUSH2 0x2AF4 JUMP JUMPDEST SWAP5 SWAP1 CODESIZE DUP1 DUP1 PUSH2 0xF06 JUMP JUMPDEST PUSH4 0x4E487B71 PUSH1 0xE0 SHL DUP14 MSTORE PUSH1 0x21 PUSH1 0x4 MSTORE PUSH1 0x24 DUP14 REVERT JUMPDEST PUSH2 0xFB0 SWAP2 POP RETURNDATASIZE DUP1 DUP13 DUP4 RETURNDATACOPY PUSH2 0x85A DUP2 DUP4 PUSH2 0x20CD JUMP JUMPDEST CODESIZE PUSH2 0xE7F JUMP JUMPDEST PUSH2 0xFE8 DUP8 PUSH2 0xFC6 PUSH2 0xE42 DUP5 PUSH2 0x24E4 JUMP JUMPDEST PUSH1 0x40 MLOAD DUP1 SWAP4 DUP2 SWAP3 PUSH4 0x6B2C1339 PUSH1 0xE1 SHL DUP4 MSTORE PUSH1 0x20 PUSH1 0x4 DUP5 ADD MSTORE PUSH1 0x24 DUP4 ADD SWAP1 PUSH2 0x2178 JUMP JUMPDEST SUB DUP2 DUP8 GAS STATICCALL DUP1 ISZERO PUSH2 0x107A JUMPI PUSH1 0xC0 SWAP2 DUP10 SWAP2 PUSH2 0x1060 JUMPI JUMPDEST POP ADD MLOAD PUSH1 0x40 MLOAD PUSH2 0x101D PUSH1 0x20 DUP3 DUP2 PUSH2 0xECC DUP2 DUP4 ADD SWAP7 DUP8 DUP2 MLOAD SWAP4 DUP5 SWAP3 ADD PUSH2 0x2155 JUMP JUMPDEST MLOAD SWAP1 KECCAK256 PUSH1 0x40 MLOAD PUSH1 0x20 DUP2 ADD SWAP1 PUSH2 0x103B PUSH1 0x20 DUP3 DUP12 MLOAD PUSH2 0xECC DUP2 DUP8 DUP14 PUSH2 0x2155 JUMP JUMPDEST MLOAD SWAP1 KECCAK256 EQ PUSH2 0x104C JUMPI JUMPDEST PUSH1 0x1 ADD PUSH2 0xE0B JUMP JUMPDEST SWAP1 PUSH2 0x1058 PUSH1 0x1 SWAP2 PUSH2 0x2AF4 JUMP JUMPDEST SWAP2 SWAP1 POP PUSH2 0x1044 JUMP JUMPDEST PUSH2 0x1074 SWAP2 POP RETURNDATASIZE DUP1 DUP12 DUP4 RETURNDATACOPY PUSH2 0x85A DUP2 DUP4 PUSH2 0x20CD JUMP JUMPDEST CODESIZE PUSH2 0xFFD JUMP JUMPDEST PUSH1 0x40 MLOAD RETURNDATASIZE DUP11 DUP3 RETURNDATACOPY RETURNDATASIZE SWAP1 REVERT JUMPDEST POP CALLVALUE PUSH2 0x21B JUMPI DUP1 PUSH1 0x3 NOT CALLDATASIZE ADD SLT PUSH2 0x21B JUMPI PUSH2 0xD63 PUSH2 0x10A1 PUSH2 0x2C74 JUMP JUMPDEST PUSH1 0x40 MLOAD SWAP2 DUP3 SWAP2 DUP3 PUSH2 0x21BD JUMP JUMPDEST POP CALLVALUE PUSH2 0x21B JUMPI DUP1 PUSH1 0x3 NOT CALLDATASIZE ADD SLT PUSH2 0x21B JUMPI PUSH1 0x1 SLOAD PUSH1 0x40 MLOAD PUSH1 0x1 PUSH1 0x1 PUSH1 0xA0 SHL SUB SWAP1 SWAP2 AND DUP2 MSTORE PUSH1 0x20 SWAP1 RETURN JUMPDEST POP CALLVALUE PUSH2 0x21B JUMPI PUSH1 0x20 CALLDATASIZE PUSH1 0x3 NOT ADD SLT PUSH2 0x21B JUMPI PUSH1 0x4 CALLDATALOAD PUSH1 0x1 PUSH1 0x1 PUSH1 0x40 SHL SUB DUP2 GT PUSH2 0x940 JUMPI PUSH1 0x20 PUSH2 0x110C PUSH2 0x111F SWAP3 CALLDATASIZE SWAP1 PUSH1 0x4 ADD PUSH2 0x2109 JUMP JUMPDEST DUP2 PUSH1 0x40 MLOAD SWAP4 DUP3 DUP6 DUP1 SWAP5 MLOAD SWAP4 DUP5 SWAP3 ADD PUSH2 0x2155 JUMP JUMPDEST DUP2 ADD PUSH1 0x5 DUP2 MSTORE SUB ADD SWAP1 KECCAK256 DUP1 SLOAD PUSH2 0x1134 DUP2 PUSH2 0x24FF JUMP JUMPDEST SWAP1 PUSH2 0x1142 PUSH1 0x40 MLOAD SWAP3 DUP4 PUSH2 0x20CD JUMP JUMPDEST DUP1 DUP3 MSTORE PUSH1 0x20 DUP3 ADD DUP1 SWAP4 DUP6 MSTORE PUSH1 0x20 DUP6 KECCAK256 DUP6 SWAP2 JUMPDEST DUP4 DUP4 LT PUSH2 0x11E0 JUMPI DUP7 DUP6 DUP8 PUSH1 0x40 MLOAD SWAP3 DUP4 SWAP3 PUSH1 0x20 DUP5 ADD SWAP1 PUSH1 0x20 DUP6 MSTORE MLOAD DUP1 SWAP2 MSTORE PUSH1 0x40 DUP5 ADD PUSH1 0x40 DUP3 PUSH1 0x5 SHL DUP7 ADD ADD SWAP4 SWAP3 SWAP1 JUMPDEST DUP3 DUP3 LT PUSH2 0x1191 JUMPI POP POP POP POP SUB SWAP1 RETURN JUMPDEST SWAP2 SWAP4 PUSH1 0x1 SWAP2 SWAP4 SWAP6 POP PUSH1 0x20 PUSH2 0x11D0 DUP2 SWAP3 PUSH1 0x3F NOT DUP11 DUP3 SUB ADD DUP7 MSTORE DUP9 MLOAD SWAP1 DUP4 PUSH2 0x11C0 DUP4 MLOAD PUSH1 0x40 DUP5 MSTORE PUSH1 0x40 DUP5 ADD SWAP1 PUSH2 0x2178 JUMP JUMPDEST SWAP3 ADD MLOAD SWAP1 DUP5 DUP2 DUP5 SUB SWAP2 ADD MSTORE PUSH2 0x2178 JUMP JUMPDEST SWAP7 ADD SWAP3 ADD SWAP3 ADD DUP6 SWAP5 SWAP4 SWAP2 SWAP3 PUSH2 0x1182 JUMP JUMPDEST PUSH1 0x2 PUSH1 0x20 PUSH1 0x1 SWAP3 PUSH1 0x40 MLOAD PUSH2 0x11F3 DUP2 PUSH2 0x207C JUMP JUMPDEST PUSH2 0x11FC DUP7 PUSH2 0x23C1 JUMP JUMPDEST DUP2 MSTORE PUSH2 0x1209 DUP6 DUP8 ADD PUSH2 0x23C1 JUMP JUMPDEST DUP4 DUP3 ADD MSTORE DUP2 MSTORE ADD SWAP3 ADD SWAP3 ADD SWAP2 SWAP1 PUSH2 0x1154 JUMP JUMPDEST POP CALLVALUE PUSH2 0x21B JUMPI PUSH1 0x40 CALLDATASIZE PUSH1 0x3 NOT ADD SLT PUSH2 0x21B JUMPI PUSH1 0x4 CALLDATALOAD PUSH1 0x1 PUSH1 0x1 PUSH1 0x40 SHL SUB DUP2 GT PUSH2 0x940 JUMPI PUSH2 0x124C SWAP1 CALLDATASIZE SWAP1 PUSH1 0x4 ADD PUSH2 0x2109 JUMP JUMPDEST SWAP1 PUSH2 0x1269 PUSH1 0x20 PUSH1 0x24 CALLDATALOAD SWAP4 DUP2 PUSH1 0x40 MLOAD SWAP4 DUP3 DUP6 DUP1 SWAP5 MLOAD SWAP4 DUP5 SWAP3 ADD PUSH2 0x2155 JUMP JUMPDEST DUP2 ADD PUSH1 0x5 DUP2 MSTORE SUB ADD SWAP1 KECCAK256 SWAP1 DUP2 SLOAD DUP4 LT ISZERO PUSH2 0x21B JUMPI PUSH2 0x12B7 PUSH2 0x128A DUP5 DUP5 PUSH2 0x24B2 JUMP JUMPDEST POP PUSH2 0xD63 PUSH2 0x12A3 PUSH1 0x1 PUSH2 0x129C DUP5 PUSH2 0x23C1 JUMP JUMPDEST SWAP4 ADD PUSH2 0x23C1 JUMP JUMPDEST PUSH1 0x40 MLOAD SWAP4 DUP5 SWAP4 PUSH1 0x40 DUP6 MSTORE PUSH1 0x40 DUP6 ADD SWAP1 PUSH2 0x2178 JUMP JUMPDEST SWAP1 DUP4 DUP3 SUB PUSH1 0x20 DUP6 ADD MSTORE PUSH2 0x2178 JUMP JUMPDEST POP CALLVALUE PUSH2 0x21B JUMPI DUP1 PUSH2 0x1311 PUSH2 0x12D8 CALLDATASIZE PUSH2 0x2465 JUMP JUMPDEST SWAP4 SWAP1 PUSH2 0x12E2 PUSH2 0x2C42 JUMP JUMPDEST POP PUSH1 0x1 DUP1 PUSH1 0xA0 SHL SUB PUSH1 0x2 SLOAD AND PUSH1 0x40 MLOAD DUP1 DUP1 SWAP6 DUP2 SWAP5 PUSH4 0x46ABDD05 PUSH1 0xE1 SHL DUP4 MSTORE PUSH1 0x20 PUSH1 0x4 DUP5 ADD MSTORE PUSH1 0x24 DUP4 ADD SWAP1 PUSH2 0x2178 JUMP JUMPDEST SUB SWAP2 GAS STATICCALL SWAP1 DUP2 ISZERO PUSH2 0x8C7 JUMPI DUP3 SWAP2 PUSH2 0x14CB JUMPI JUMPDEST POP PUSH2 0x132C PUSH2 0x2C42 JUMP JUMPDEST SWAP3 PUSH1 0x40 MLOAD PUSH2 0x134A PUSH1 0x20 DUP3 DUP2 PUSH2 0xECC DUP2 DUP4 ADD SWAP7 DUP8 DUP2 MLOAD SWAP4 DUP5 SWAP3 ADD PUSH2 0x2155 JUMP JUMPDEST MLOAD SWAP1 KECCAK256 SWAP3 DUP3 JUMPDEST DUP3 MLOAD DUP2 LT ISZERO PUSH2 0x13AE JUMPI DUP5 PUSH1 0x40 PUSH2 0x1366 DUP4 DUP7 PUSH2 0x2AE0 JUMP JUMPDEST MLOAD ADD MLOAD PUSH1 0x40 MLOAD PUSH2 0x1386 PUSH1 0x20 DUP3 DUP2 PUSH2 0xECC DUP2 DUP4 ADD SWAP7 DUP8 DUP2 MLOAD SWAP4 DUP5 SWAP3 ADD PUSH2 0x2155 JUMP JUMPDEST MLOAD SWAP1 KECCAK256 EQ PUSH2 0x1397 JUMPI JUMPDEST PUSH1 0x1 ADD PUSH2 0x1350 JUMP JUMPDEST SWAP1 POP PUSH1 0x1 PUSH2 0x13A5 DUP3 DUP5 PUSH2 0x2AE0 JUMP JUMPDEST MLOAD SWAP2 SWAP1 POP PUSH2 0x138F JUMP JUMPDEST DUP4 SLOAD PUSH1 0x40 MLOAD PUSH4 0x95A8C58D PUSH1 0xE0 SHL DUP2 MSTORE CALLER PUSH1 0x4 DUP3 ADD MSTORE PUSH1 0x1 PUSH1 0x24 DUP3 ADD MSTORE SWAP1 DUP4 SWAP1 DUP7 SWAP1 PUSH1 0x20 SWAP1 DUP5 SWAP1 PUSH1 0x44 SWAP1 DUP3 SWAP1 PUSH1 0x1 PUSH1 0x1 PUSH1 0xA0 SHL SUB AND GAS STATICCALL DUP1 ISZERO PUSH2 0x14BE JUMPI PUSH2 0xD63 SWAP4 DUP3 SWAP2 PUSH2 0x149F JUMPI JUMPDEST POP PUSH2 0x1483 JUMPI JUMPDEST POP PUSH1 0x40 MLOAD SWAP2 DUP3 SWAP2 PUSH1 0x20 DUP4 MSTORE DUP1 MLOAD PUSH2 0x1411 DUP2 PUSH2 0x219D JUMP JUMPDEST PUSH1 0x20 DUP5 ADD MSTORE PUSH1 0xA0 PUSH2 0x146F PUSH2 0x144D PUSH2 0x1437 PUSH1 0x20 DUP6 ADD MLOAD PUSH1 0xC0 PUSH1 0x40 DUP10 ADD MSTORE PUSH1 0xE0 DUP9 ADD SWAP1 PUSH2 0x2178 JUMP JUMPDEST PUSH1 0x40 DUP6 ADD MLOAD DUP8 DUP3 SUB PUSH1 0x1F NOT ADD PUSH1 0x60 DUP10 ADD MSTORE PUSH2 0x2178 JUMP JUMPDEST PUSH1 0xFF PUSH1 0x60 DUP6 ADD MLOAD AND PUSH1 0x80 DUP8 ADD MSTORE PUSH1 0x80 DUP5 ADD MLOAD PUSH1 0x1F NOT DUP8 DUP4 SUB ADD DUP5 DUP9 ADD MSTORE PUSH2 0x2287 JUMP JUMPDEST SWAP2 ADD MLOAD DUP4 DUP3 SUB PUSH1 0x1F NOT ADD PUSH1 0xC0 DUP6 ADD MSTORE PUSH2 0x2178 JUMP JUMPDEST PUSH1 0x40 MLOAD SWAP1 PUSH2 0x1492 PUSH1 0x20 DUP4 PUSH2 0x20CD JUMP JUMPDEST DUP2 MSTORE PUSH1 0x80 DUP3 ADD MSTORE DUP3 PUSH2 0x13FB JUMP JUMPDEST PUSH2 0x14B8 SWAP2 POP PUSH1 0x20 RETURNDATASIZE PUSH1 0x20 GT PUSH2 0x209 JUMPI PUSH2 0x1FB DUP2 DUP4 PUSH2 0x20CD JUMP JUMPDEST DUP5 PUSH2 0x13F5 JUMP JUMPDEST POP PUSH1 0x40 MLOAD SWAP1 RETURNDATASIZE SWAP1 DUP3 RETURNDATACOPY RETURNDATASIZE SWAP1 REVERT JUMPDEST PUSH2 0x14E7 SWAP2 POP RETURNDATASIZE DUP1 DUP5 DUP4 RETURNDATACOPY PUSH2 0x14DF DUP2 DUP4 PUSH2 0x20CD JUMP JUMPDEST DUP2 ADD SWAP1 PUSH2 0x2978 JUMP JUMPDEST CODESIZE PUSH2 0x1323 JUMP JUMPDEST POP CALLVALUE PUSH2 0x21B JUMPI PUSH1 0x20 CALLDATASIZE PUSH1 0x3 NOT ADD SLT PUSH2 0x21B JUMPI PUSH1 0x4 CALLDATALOAD SWAP1 PUSH1 0x1 PUSH1 0x1 PUSH1 0x40 SHL SUB DUP3 GT PUSH2 0x21B JUMPI PUSH2 0x1588 PUSH2 0x1526 PUSH1 0x20 PUSH2 0x110C CALLDATASIZE PUSH1 0x4 DUP8 ADD PUSH2 0x2109 JUMP JUMPDEST DUP2 ADD PUSH1 0x4 DUP2 MSTORE SUB ADD SWAP1 KECCAK256 PUSH2 0x1539 DUP2 PUSH2 0x23C1 JUMP JUMPDEST SWAP1 PUSH2 0x15AF PUSH1 0xFF PUSH1 0x1 DUP4 ADD SLOAD AND PUSH1 0x2 DUP4 ADD SLOAD SWAP3 PUSH1 0x3 DUP2 ADD SLOAD PUSH1 0x4 DUP3 ADD SLOAD SWAP1 PUSH2 0x1562 PUSH1 0x5 DUP5 ADD PUSH2 0x23C1 JUMP JUMPDEST SWAP3 PUSH1 0x6 PUSH1 0x1 DUP1 PUSH1 0xA0 SHL SUB SWAP2 ADD SLOAD AND SWAP6 PUSH2 0x1593 PUSH1 0x40 MLOAD SWAP10 DUP11 SWAP10 PUSH1 0xE0 DUP12 MSTORE PUSH1 0xE0 DUP12 ADD SWAP1 PUSH2 0x2178 JUMP JUMPDEST SWAP6 PUSH1 0x20 DUP11 ADD SWAP1 PUSH2 0x22E0 JUMP JUMPDEST PUSH1 0x40 DUP9 ADD MSTORE PUSH1 0x60 DUP8 ADD MSTORE PUSH1 0x80 DUP7 ADD MSTORE DUP5 DUP3 SUB PUSH1 0xA0 DUP7 ADD MSTORE PUSH2 0x2178 JUMP JUMPDEST SWAP1 PUSH1 0xC0 DUP4 ADD MSTORE SUB SWAP1 RETURN JUMPDEST POP CALLVALUE PUSH2 0x21B JUMPI DUP1 PUSH1 0x3 NOT CALLDATASIZE ADD SLT PUSH2 0x21B JUMPI DUP1 SLOAD PUSH1 0x40 MLOAD PUSH4 0x95A8C58D PUSH1 0xE0 SHL DUP2 MSTORE CALLER PUSH1 0x4 DUP3 ADD MSTORE PUSH1 0x2 PUSH1 0x24 DUP3 ADD MSTORE SWAP1 PUSH1 0x20 SWAP1 DUP3 SWAP1 PUSH1 0x44 SWAP1 DUP3 SWAP1 PUSH1 0x1 PUSH1 0x1 PUSH1 0xA0 SHL SUB AND GAS STATICCALL SWAP1 DUP2 ISZERO PUSH2 0x8C7 JUMPI DUP3 SWAP2 PUSH2 0x17E4 JUMPI JUMPDEST POP ISZERO PUSH2 0x17B3 JUMPI PUSH1 0x3 SLOAD DUP2 DUP3 JUMPDEST DUP3 DUP2 LT PUSH2 0x175E JUMPI POP PUSH2 0x1627 SWAP1 PUSH2 0x2BCF JUMP JUMPDEST PUSH1 0x2 SLOAD SWAP1 SWAP2 SWAP1 DUP4 SWAP1 PUSH1 0x1 PUSH1 0x1 PUSH1 0xA0 SHL SUB AND DUP2 JUMPDEST DUP4 DUP2 LT PUSH2 0x164F JUMPI PUSH1 0x40 MLOAD DUP1 PUSH2 0xD63 DUP8 DUP3 PUSH2 0x22ED JUMP JUMPDEST PUSH2 0x165B PUSH2 0xE42 DUP3 PUSH2 0x24E4 JUMP JUMPDEST PUSH2 0x1673 PUSH1 0x40 MLOAD PUSH1 0x20 DUP2 DUP5 MLOAD PUSH2 0xE98 DUP2 DUP4 DUP6 DUP10 ADD PUSH2 0x2155 JUMP JUMPDEST PUSH1 0x40 MLOAD PUSH4 0x6B2C1339 PUSH1 0xE1 SHL DUP2 MSTORE PUSH1 0x20 PUSH1 0x4 DUP3 ADD MSTORE DUP9 DUP2 DUP1 PUSH2 0x1697 PUSH1 0x24 DUP3 ADD DUP8 PUSH2 0x2178 JUMP JUMPDEST SUB DUP2 DUP9 GAS STATICCALL SWAP1 DUP2 ISZERO PUSH2 0x1753 JUMPI DUP10 SWAP2 PUSH2 0x1739 JUMPI JUMPDEST POP PUSH1 0x20 DUP3 ADD DUP1 MLOAD PUSH1 0x3 DUP2 LT ISZERO PUSH2 0x1725 JUMPI PUSH2 0x16CB JUMPI JUMPDEST POP POP POP POP PUSH1 0x1 ADD PUSH2 0x163A JUMP JUMPDEST PUSH1 0x20 DUP3 SWAP8 SWAP6 SWAP8 ADD MLOAD SWAP3 MLOAD SWAP1 MLOAD SWAP2 PUSH1 0x3 DUP4 LT ISZERO PUSH2 0x1725 JUMPI PUSH2 0x171B SWAP5 SWAP3 PUSH1 0x1 SWAP7 SWAP5 SWAP3 PUSH1 0xC0 PUSH2 0x1701 SWAP4 ADD MLOAD SWAP4 PUSH1 0x40 MLOAD SWAP6 PUSH2 0xF49 DUP8 PUSH2 0x2061 JUMP JUMPDEST PUSH1 0x80 DUP3 ADD MSTORE PUSH2 0x1710 DUP3 DUP10 PUSH2 0x2AE0 JUMP JUMPDEST MSTORE PUSH2 0xF78 DUP2 DUP9 PUSH2 0x2AE0 JUMP JUMPDEST SWAP3 SWAP1 CODESIZE DUP1 DUP1 PUSH2 0x16BF JUMP JUMPDEST PUSH4 0x4E487B71 PUSH1 0xE0 SHL DUP12 MSTORE PUSH1 0x21 PUSH1 0x4 MSTORE PUSH1 0x24 DUP12 REVERT JUMPDEST PUSH2 0x174D SWAP2 POP RETURNDATASIZE DUP1 DUP12 DUP4 RETURNDATACOPY PUSH2 0x85A DUP2 DUP4 PUSH2 0x20CD JUMP JUMPDEST CODESIZE PUSH2 0x16AA JUMP JUMPDEST PUSH1 0x40 MLOAD RETURNDATASIZE DUP12 DUP3 RETURNDATACOPY RETURNDATASIZE SWAP1 REVERT JUMPDEST PUSH1 0x20 PUSH2 0x1773 PUSH2 0xE98 DUP3 PUSH2 0x110C PUSH2 0xE42 DUP7 PUSH2 0x24E4 JUMP JUMPDEST ADD MLOAD PUSH1 0x3 DUP2 LT ISZERO PUSH2 0x179F JUMPI PUSH2 0x178B JUMPI JUMPDEST PUSH1 0x1 ADD PUSH2 0x1616 JUMP JUMPDEST SWAP1 PUSH2 0x1797 PUSH1 0x1 SWAP2 PUSH2 0x2AF4 JUMP JUMPDEST SWAP2 SWAP1 POP PUSH2 0x1783 JUMP JUMPDEST PUSH4 0x4E487B71 PUSH1 0xE0 SHL DUP6 MSTORE PUSH1 0x21 PUSH1 0x4 MSTORE PUSH1 0x24 DUP6 REVERT JUMPDEST PUSH1 0x40 MLOAD PUSH3 0x461BCD PUSH1 0xE5 SHL DUP2 MSTORE PUSH1 0x20 PUSH1 0x4 DUP3 ADD MSTORE PUSH1 0x9 PUSH1 0x24 DUP3 ADD MSTORE PUSH9 0x4F6E6C792042504F4D PUSH1 0xB8 SHL PUSH1 0x44 DUP3 ADD MSTORE PUSH1 0x64 SWAP1 REVERT JUMPDEST PUSH2 0x17FD SWAP2 POP PUSH1 0x20 RETURNDATASIZE PUSH1 0x20 GT PUSH2 0x209 JUMPI PUSH2 0x1FB DUP2 DUP4 PUSH2 0x20CD JUMP JUMPDEST CODESIZE PUSH2 0x160A JUMP JUMPDEST POP CALLVALUE PUSH2 0x21B JUMPI PUSH1 0x20 CALLDATASIZE PUSH1 0x3 NOT ADD SLT PUSH2 0x21B JUMPI PUSH1 0x4 CALLDATALOAD PUSH1 0x1 PUSH1 0x1 PUSH1 0x40 SHL SUB DUP2 GT PUSH2 0x940 JUMPI PUSH2 0x1834 SWAP1 CALLDATASIZE SWAP1 PUSH1 0x4 ADD PUSH2 0x2109 JUMP JUMPDEST DUP2 PUSH1 0xE0 PUSH1 0x40 MLOAD PUSH2 0x1843 DUP2 PUSH2 0x202F JUMP JUMPDEST PUSH1 0x60 DUP2 MSTORE PUSH1 0x60 PUSH1 0x20 DUP3 ADD MSTORE PUSH1 0x60 PUSH1 0x40 DUP3 ADD MSTORE PUSH1 0x60 DUP1 DUP3 ADD MSTORE PUSH1 0x60 PUSH1 0x80 DUP3 ADD MSTORE DUP3 PUSH1 0xA0 DUP3 ADD MSTORE PUSH1 0x60 PUSH1 0xC0 DUP3 ADD MSTORE ADD MSTORE PUSH2 0x1879 PUSH2 0x2B19 JUMP JUMPDEST POP PUSH1 0x2 SLOAD PUSH1 0x40 MLOAD PUSH4 0x6B2C1339 PUSH1 0xE1 SHL DUP2 MSTORE PUSH1 0x20 PUSH1 0x4 DUP3 ADD MSTORE SWAP1 DUP4 SWAP1 DUP3 SWAP1 PUSH1 0x1 PUSH1 0x1 PUSH1 0xA0 SHL SUB AND DUP2 DUP1 PUSH2 0x18AE PUSH1 0x24 DUP3 ADD DUP9 PUSH2 0x2178 JUMP JUMPDEST SUB SWAP2 GAS STATICCALL SWAP3 DUP4 ISZERO PUSH2 0x1A42 JUMPI DUP1 SWAP4 PUSH2 0x1A1B JUMPI JUMPDEST DUP4 PUSH2 0x18DD PUSH2 0xE98 PUSH1 0x20 DUP7 DUP2 PUSH1 0x40 MLOAD SWAP4 DUP3 DUP6 DUP1 SWAP5 MLOAD SWAP4 DUP5 SWAP3 ADD PUSH2 0x2155 JUMP JUMPDEST SWAP1 PUSH1 0x40 MLOAD SWAP2 DUP3 SWAP2 PUSH1 0x40 DUP4 MSTORE PUSH2 0x1991 PUSH2 0x1967 PUSH2 0x1951 PUSH2 0x193B PUSH2 0x1925 PUSH2 0x190F DUP7 MLOAD PUSH2 0x100 PUSH1 0x40 DUP12 ADD MSTORE PUSH2 0x140 DUP11 ADD SWAP1 PUSH2 0x2178 JUMP JUMPDEST PUSH1 0x20 DUP8 ADD MLOAD DUP10 DUP3 SUB PUSH1 0x3F NOT ADD PUSH1 0x60 DUP12 ADD MSTORE PUSH2 0x2178 JUMP JUMPDEST PUSH1 0x40 DUP7 ADD MLOAD DUP9 DUP3 SUB PUSH1 0x3F NOT ADD PUSH1 0x80 DUP11 ADD MSTORE PUSH2 0x2287 JUMP JUMPDEST PUSH1 0x60 DUP6 ADD MLOAD DUP8 DUP3 SUB PUSH1 0x3F NOT ADD PUSH1 0xA0 DUP10 ADD MSTORE PUSH2 0x2287 JUMP JUMPDEST PUSH1 0x80 DUP5 ADD MLOAD DUP7 DUP3 SUB PUSH1 0x3F NOT ADD PUSH1 0xC0 DUP9 ADD MSTORE PUSH2 0x2178 JUMP JUMPDEST PUSH1 0xA0 DUP4 ADD MLOAD PUSH2 0x1975 DUP2 PUSH2 0x219D JUMP JUMPDEST PUSH1 0xE0 DUP7 ADD MSTORE PUSH1 0xC0 DUP4 ADD MLOAD DUP6 DUP3 SUB PUSH1 0x3F NOT ADD PUSH2 0x100 DUP8 ADD MSTORE PUSH2 0x2178 JUMP JUMPDEST SWAP1 PUSH1 0xE0 PUSH1 0x1 DUP1 PUSH1 0xA0 SHL SUB SWAP2 ADD MLOAD AND PUSH2 0x120 DUP5 ADD MSTORE DUP3 DUP2 SUB PUSH1 0x20 DUP5 ADD MSTORE PUSH1 0xC0 PUSH2 0x1A07 PUSH2 0x19C5 DUP5 MLOAD PUSH1 0xE0 DUP6 MSTORE PUSH1 0xE0 DUP6 ADD SWAP1 PUSH2 0x2178 JUMP JUMPDEST PUSH2 0x19D7 PUSH1 0x20 DUP7 ADD MLOAD PUSH1 0x20 DUP7 ADD SWAP1 PUSH2 0x22E0 JUMP JUMPDEST PUSH1 0x40 DUP6 ADD MLOAD PUSH1 0x40 DUP6 ADD MSTORE PUSH1 0x60 DUP6 ADD MLOAD PUSH1 0x60 DUP6 ADD MSTORE PUSH1 0x80 DUP6 ADD MLOAD PUSH1 0x80 DUP6 ADD MSTORE PUSH1 0xA0 DUP6 ADD MLOAD DUP5 DUP3 SUB PUSH1 0xA0 DUP7 ADD MSTORE PUSH2 0x2178 JUMP JUMPDEST SWAP3 DUP2 ADD MLOAD PUSH1 0x1 PUSH1 0x1 PUSH1 0xA0 SHL SUB AND SWAP2 ADD MSTORE SUB SWAP1 RETURN JUMPDEST PUSH2 0x18DD SWAP3 SWAP4 POP PUSH2 0x1A3A PUSH2 0xE98 SWAP3 PUSH1 0x20 SWAP3 RETURNDATASIZE DUP1 SWAP2 DUP4 RETURNDATACOPY PUSH2 0x85A DUP2 DUP4 PUSH2 0x20CD JUMP JUMPDEST SWAP4 SWAP3 POP PUSH2 0x18C0 JUMP JUMPDEST PUSH1 0x40 MLOAD SWAP1 RETURNDATASIZE SWAP1 DUP3 RETURNDATACOPY RETURNDATASIZE SWAP1 REVERT JUMPDEST POP CALLVALUE PUSH2 0x21B JUMPI DUP1 PUSH1 0x3 NOT CALLDATASIZE ADD SLT PUSH2 0x21B JUMPI PUSH1 0x2 SLOAD PUSH1 0x40 MLOAD PUSH1 0x1 PUSH1 0x1 PUSH1 0xA0 SHL SUB SWAP1 SWAP2 AND DUP2 MSTORE PUSH1 0x20 SWAP1 RETURN JUMPDEST POP CALLVALUE PUSH2 0x21B JUMPI PUSH1 0x20 CALLDATASIZE PUSH1 0x3 NOT ADD SLT PUSH2 0x21B JUMPI PUSH1 0x4 CALLDATALOAD PUSH1 0x1 PUSH1 0x1 PUSH1 0x40 SHL SUB DUP2 GT PUSH2 0x940 JUMPI PUSH2 0x1AA8 SWAP1 CALLDATASIZE SWAP1 PUSH1 0x4 ADD PUSH2 0x2109 JUMP JUMPDEST DUP2 SLOAD PUSH1 0x40 MLOAD PUSH4 0x95A8C58D PUSH1 0xE0 SHL DUP2 MSTORE CALLER PUSH1 0x4 DUP3 ADD MSTORE PUSH1 0x0 PUSH1 0x24 DUP3 ADD MSTORE SWAP1 PUSH1 0x20 SWAP1 DUP3 SWAP1 PUSH1 0x44 SWAP1 DUP3 SWAP1 PUSH1 0x1 PUSH1 0x1 PUSH1 0xA0 SHL SUB AND GAS STATICCALL DUP1 ISZERO PUSH2 0xBB3 JUMPI PUSH2 0x1AF0 SWAP2 DUP5 SWAP2 PUSH2 0x908 JUMPI POP PUSH2 0x28AD JUMP JUMPDEST DUP2 PUSH1 0x40 MLOAD PUSH1 0x20 DUP2 ADD DUP4 MLOAD SWAP2 PUSH2 0x1B10 PUSH1 0x20 DUP3 DUP2 DUP9 ADD SWAP6 PUSH2 0xECC DUP2 DUP8 DUP10 PUSH2 0x2155 JUMP JUMPDEST MLOAD SWAP1 KECCAK256 SWAP1 DUP5 SWAP3 PUSH1 0x3 SLOAD SWAP4 PUSH1 0x1 DUP1 PUSH1 0xA0 SHL SUB PUSH1 0x2 SLOAD AND SWAP4 JUMPDEST DUP6 DUP3 LT PUSH2 0x1C85 JUMPI POP POP PUSH2 0x1B39 SWAP1 PUSH2 0x291A JUMP JUMPDEST SWAP4 PUSH2 0x1B56 PUSH1 0x20 PUSH1 0x40 MLOAD DUP1 SWAP4 PUSH2 0xECC DUP4 DUP4 ADD SWAP7 DUP8 SWAP3 MLOAD SWAP3 DUP4 SWAP2 PUSH2 0x2155 JUMP JUMPDEST MLOAD SWAP1 KECCAK256 SWAP1 DUP5 SWAP1 DUP6 SWAP4 JUMPDEST DUP1 DUP6 LT PUSH2 0x1B74 JUMPI PUSH1 0x40 MLOAD DUP1 PUSH2 0xD63 DUP9 DUP3 PUSH2 0x21BD JUMP JUMPDEST SWAP1 SWAP2 SWAP3 SWAP4 SWAP5 PUSH2 0x1B85 PUSH2 0xE42 DUP8 PUSH2 0x24E4 JUMP JUMPDEST SWAP3 PUSH1 0x40 MLOAD SWAP3 PUSH4 0x46ABDD05 PUSH1 0xE1 SHL DUP5 MSTORE PUSH1 0x20 PUSH1 0x4 DUP6 ADD MSTORE DUP9 DUP5 DUP1 PUSH2 0x1BAB PUSH1 0x24 DUP3 ADD DUP10 PUSH2 0x2178 JUMP JUMPDEST SUB DUP2 DUP6 GAS STATICCALL SWAP4 DUP5 ISZERO PUSH2 0x1753 JUMPI DUP10 SWAP5 PUSH2 0x1C69 JUMPI JUMPDEST POP DUP4 MLOAD ISZERO PUSH2 0x1C5A JUMPI DUP9 JUMPDEST DUP5 MLOAD DUP2 LT ISZERO PUSH2 0x1C47 JUMPI DUP8 PUSH1 0xA0 PUSH2 0x1BDE DUP4 DUP9 PUSH2 0x2AE0 JUMP JUMPDEST MLOAD ADD MLOAD PUSH1 0x40 MLOAD PUSH2 0x1BFE PUSH1 0x20 DUP3 DUP2 PUSH2 0xECC DUP2 DUP4 ADD SWAP7 DUP8 DUP2 MLOAD SWAP4 DUP5 SWAP3 ADD PUSH2 0x2155 JUMP JUMPDEST MLOAD SWAP1 KECCAK256 EQ PUSH2 0x1C0F JUMPI JUMPDEST PUSH1 0x1 ADD PUSH2 0x1BC8 JUMP JUMPDEST SWAP6 PUSH2 0x1C3F PUSH1 0x1 SWAP2 PUSH2 0x1C2A PUSH2 0x1C23 DUP11 DUP10 PUSH2 0x2AE0 JUMP JUMPDEST MLOAD DUP10 PUSH2 0x2EAF JUMP JUMPDEST PUSH2 0x1C34 DUP3 DUP9 PUSH2 0x2AE0 JUMP JUMPDEST MSTORE PUSH2 0xF78 DUP2 DUP8 PUSH2 0x2AE0 JUMP JUMPDEST SWAP7 SWAP1 POP PUSH2 0x1C07 JUMP JUMPDEST POP SWAP6 SWAP5 SWAP4 POP SWAP2 POP SWAP5 PUSH1 0x1 SWAP1 JUMPDEST ADD SWAP4 PUSH2 0x1B5F JUMP JUMPDEST SWAP6 SWAP5 SWAP4 POP SWAP2 POP SWAP5 PUSH1 0x1 SWAP1 PUSH2 0x1C53 JUMP JUMPDEST PUSH2 0x1C7E SWAP2 SWAP5 POP RETURNDATASIZE DUP1 DUP12 DUP4 RETURNDATACOPY PUSH2 0x14DF DUP2 DUP4 PUSH2 0x20CD JUMP JUMPDEST SWAP3 CODESIZE PUSH2 0x1BBE JUMP JUMPDEST SWAP4 SWAP5 PUSH2 0x1CBE SWAP4 SWAP3 SWAP6 DUP9 PUSH2 0x1C9C PUSH2 0xE42 DUP6 SWAP11 SWAP6 PUSH2 0x24E4 JUMP JUMPDEST PUSH1 0x40 MLOAD DUP1 SWAP8 DUP2 SWAP3 PUSH4 0x46ABDD05 PUSH1 0xE1 SHL DUP4 MSTORE PUSH1 0x20 PUSH1 0x4 DUP5 ADD MSTORE PUSH1 0x24 DUP4 ADD SWAP1 PUSH2 0x2178 JUMP JUMPDEST SUB DUP2 DUP5 GAS STATICCALL SWAP5 DUP6 ISZERO PUSH2 0x1753 JUMPI DUP10 SWAP6 PUSH2 0x1D58 JUMPI JUMPDEST POP DUP5 MLOAD ISZERO PUSH2 0x1D49 JUMPI DUP9 JUMPDEST DUP6 MLOAD DUP2 LT ISZERO PUSH2 0x1D36 JUMPI DUP7 PUSH1 0xA0 PUSH2 0x1CF1 DUP4 DUP10 PUSH2 0x2AE0 JUMP JUMPDEST MLOAD ADD MLOAD PUSH1 0x40 MLOAD PUSH2 0x1D11 PUSH1 0x20 DUP3 DUP2 PUSH2 0xECC DUP2 DUP4 ADD SWAP7 DUP8 DUP2 MLOAD SWAP4 DUP5 SWAP3 ADD PUSH2 0x2155 JUMP JUMPDEST MLOAD SWAP1 KECCAK256 EQ PUSH2 0x1D22 JUMPI JUMPDEST PUSH1 0x1 ADD PUSH2 0x1CDB JUMP JUMPDEST SWAP7 PUSH2 0x1D2E PUSH1 0x1 SWAP2 PUSH2 0x2AF4 JUMP JUMPDEST SWAP8 SWAP1 POP PUSH2 0x1D1A JUMP JUMPDEST POP SWAP5 SWAP2 SWAP7 PUSH1 0x1 SWAP2 SWAP7 SWAP4 SWAP5 POP JUMPDEST ADD SWAP1 PUSH2 0x1B27 JUMP JUMPDEST SWAP5 SWAP2 SWAP7 PUSH1 0x1 SWAP2 SWAP7 SWAP4 SWAP5 POP PUSH2 0x1D42 JUMP JUMPDEST PUSH2 0x1D6D SWAP2 SWAP6 POP RETURNDATASIZE DUP1 DUP12 DUP4 RETURNDATACOPY PUSH2 0x14DF DUP2 DUP4 PUSH2 0x20CD JUMP JUMPDEST SWAP4 CODESIZE PUSH2 0x1CD1 JUMP JUMPDEST POP CALLVALUE PUSH2 0x21B JUMPI PUSH1 0x80 CALLDATASIZE PUSH1 0x3 NOT ADD SLT PUSH2 0x21B JUMPI PUSH1 0x4 CALLDATALOAD PUSH1 0x1 PUSH1 0x1 PUSH1 0x40 SHL SUB DUP2 GT PUSH2 0x940 JUMPI PUSH2 0x1DA5 SWAP1 CALLDATASIZE SWAP1 PUSH1 0x4 ADD PUSH2 0x2109 JUMP JUMPDEST PUSH1 0x24 CALLDATALOAD PUSH1 0x1 PUSH1 0x1 PUSH1 0x40 SHL SUB DUP2 GT PUSH2 0x93C JUMPI PUSH2 0x1DC4 SWAP1 CALLDATASIZE SWAP1 PUSH1 0x4 ADD PUSH2 0x2109 JUMP JUMPDEST PUSH1 0x44 CALLDATALOAD PUSH1 0x1 PUSH1 0x1 PUSH1 0x40 SHL SUB DUP2 GT PUSH2 0x8C3 JUMPI PUSH2 0x1DE3 SWAP1 CALLDATASIZE SWAP1 PUSH1 0x4 ADD PUSH2 0x2109 JUMP JUMPDEST SWAP2 PUSH1 0x64 CALLDATALOAD PUSH1 0x1 PUSH1 0x1 PUSH1 0xA0 SHL SUB DUP2 AND DUP2 SUB PUSH2 0x938 JUMPI PUSH2 0x1EA3 PUSH1 0x20 PUSH1 0x1 SWAP3 PUSH1 0x40 MLOAD SWAP1 PUSH2 0x1E1D DUP9 PUSH1 0x5 DUP9 MLOAD SWAP5 DUP7 DUP2 DUP2 DUP13 ADD SWAP8 PUSH2 0x5ED DUP2 DUP4 DUP12 PUSH2 0x2155 JUMP JUMPDEST PUSH1 0x6 PUSH1 0x40 MLOAD DUP5 DUP2 DUP10 MLOAD PUSH2 0x1E31 DUP2 DUP4 DUP10 PUSH2 0x2155 JUMP JUMPDEST DUP2 ADD PUSH1 0x4 DUP2 MSTORE SUB ADD SWAP1 KECCAK256 ADD SWAP1 DUP6 DUP1 PUSH1 0xA0 SHL SUB AND PUSH12 0xFFFFFFFFFFFFFFFFFFFFFFFF PUSH1 0xA0 SHL DUP3 SLOAD AND OR SWAP1 SSTORE PUSH2 0x1E70 DUP7 PUSH1 0x40 MLOAD DUP5 DUP2 DUP10 MLOAD PUSH2 0x65B DUP2 DUP4 DUP10 PUSH2 0x2155 JUMP JUMPDEST PUSH1 0x40 MLOAD PUSH1 0x4 DUP7 MLOAD PUSH2 0x1E82 DUP2 DUP5 DUP7 PUSH2 0x2155 JUMP JUMPDEST DUP3 ADD SWAP2 DUP2 DUP4 MSTORE DUP5 DUP2 TIMESTAMP SWAP5 SUB ADD SWAP1 KECCAK256 ADD SSTORE PUSH1 0x40 MLOAD DUP1 SWAP4 DUP2 SWAP3 DUP8 MLOAD SWAP3 DUP4 SWAP2 PUSH2 0x2155 JUMP JUMPDEST DUP2 ADD PUSH1 0x4 DUP2 MSTORE SUB ADD SWAP1 KECCAK256 ADD PUSH1 0x2 PUSH1 0xFF NOT DUP3 SLOAD AND OR SWAP1 SSTORE PUSH1 0x1 DUP1 PUSH1 0xA0 SHL SUB PUSH1 0x2 SLOAD AND DUP5 PUSH1 0x40 MLOAD DUP1 SWAP3 PUSH4 0x6B2C1339 PUSH1 0xE1 SHL DUP3 MSTORE PUSH1 0x20 PUSH1 0x4 DUP4 ADD MSTORE DUP2 DUP1 PUSH2 0x1EEA PUSH1 0x24 DUP3 ADD DUP9 PUSH2 0x2178 JUMP JUMPDEST SUB SWAP2 GAS STATICCALL SWAP1 DUP2 ISZERO PUSH2 0x2000 JUMPI DUP6 SWAP2 PUSH2 0x1FE6 JUMPI JUMPDEST POP PUSH2 0x1F33 PUSH1 0x20 PUSH1 0xC0 DUP2 DUP5 ADD MLOAD SWAP4 ADD MLOAD PUSH1 0x40 MLOAD SWAP5 PUSH2 0x1F18 DUP7 PUSH2 0x207C JUMP JUMPDEST DUP6 MSTORE DUP2 DUP6 ADD SWAP4 DUP5 MSTORE DUP2 PUSH1 0x40 MLOAD SWAP4 DUP3 DUP6 DUP1 SWAP5 MLOAD SWAP4 DUP5 SWAP3 ADD PUSH2 0x2155 JUMP JUMPDEST DUP2 ADD PUSH1 0x5 DUP2 MSTORE SUB ADD SWAP1 KECCAK256 DUP1 SLOAD SWAP1 PUSH1 0x1 PUSH1 0x40 SHL DUP3 LT ISZERO PUSH2 0x886 JUMPI SWAP1 PUSH2 0x1F5C SWAP2 PUSH1 0x1 DUP3 ADD DUP2 SSTORE PUSH2 0x24B2 JUMP JUMPDEST SWAP3 SWAP1 SWAP3 PUSH2 0x1FD2 JUMPI SWAP3 PUSH2 0x1F9E PUSH32 0x40BD250F4E1CAD69631AF5D42189453E9C51F25278BD4232FE29ED01AA2F6EE4 SWAP6 SWAP4 PUSH1 0x1 PUSH2 0x1FC6 SWAP5 PUSH2 0x7BC PUSH2 0x1FB2 SWAP9 MLOAD DUP5 PUSH2 0x2594 JUMP JUMPDEST PUSH1 0x40 MLOAD SWAP4 DUP5 SWAP4 PUSH1 0x80 DUP6 MSTORE PUSH1 0x80 DUP6 ADD SWAP1 PUSH2 0x2178 JUMP JUMPDEST SWAP1 CALLER PUSH1 0x20 DUP6 ADD MSTORE DUP4 DUP3 SUB PUSH1 0x40 DUP6 ADD MSTORE PUSH2 0x2178 JUMP JUMPDEST TIMESTAMP PUSH1 0x60 DUP4 ADD MSTORE SUB SWAP1 LOG1 DUP1 RETURN JUMPDEST PUSH4 0x4E487B71 PUSH1 0xE0 SHL DUP7 MSTORE PUSH1 0x4 DUP7 SWAP1 MSTORE PUSH1 0x24 DUP7 REVERT JUMPDEST PUSH2 0x1FFA SWAP2 POP RETURNDATASIZE DUP1 DUP8 DUP4 RETURNDATACOPY PUSH2 0x85A DUP2 DUP4 PUSH2 0x20CD JUMP JUMPDEST CODESIZE PUSH2 0x1EFC JUMP JUMPDEST PUSH1 0x40 MLOAD RETURNDATASIZE DUP8 DUP3 RETURNDATACOPY RETURNDATASIZE SWAP1 REVERT JUMPDEST SWAP1 POP CALLVALUE PUSH2 0x940 JUMPI DUP2 PUSH1 0x3 NOT CALLDATASIZE ADD SLT PUSH2 0x940 JUMPI SWAP1 SLOAD PUSH1 0x1 PUSH1 0x1 PUSH1 0xA0 SHL SUB AND DUP2 MSTORE PUSH1 0x20 SWAP1 RETURN JUMPDEST PUSH2 0x100 DUP2 ADD SWAP1 DUP2 LT PUSH1 0x1 PUSH1 0x1 PUSH1 0x40 SHL SUB DUP3 GT OR PUSH2 0x204B JUMPI PUSH1 0x40 MSTORE JUMP JUMPDEST PUSH4 0x4E487B71 PUSH1 0xE0 SHL PUSH1 0x0 MSTORE PUSH1 0x41 PUSH1 0x4 MSTORE PUSH1 0x24 PUSH1 0x0 REVERT JUMPDEST PUSH1 0xA0 DUP2 ADD SWAP1 DUP2 LT PUSH1 0x1 PUSH1 0x1 PUSH1 0x40 SHL SUB DUP3 GT OR PUSH2 0x204B JUMPI PUSH1 0x40 MSTORE JUMP JUMPDEST PUSH1 0x40 DUP2 ADD SWAP1 DUP2 LT PUSH1 0x1 PUSH1 0x1 PUSH1 0x40 SHL SUB DUP3 GT OR PUSH2 0x204B JUMPI PUSH1 0x40 MSTORE JUMP JUMPDEST PUSH1 0xE0 DUP2 ADD SWAP1 DUP2 LT PUSH1 0x1 PUSH1 0x1 PUSH1 0x40 SHL SUB DUP3 GT OR PUSH2 0x204B JUMPI PUSH1 0x40 MSTORE JUMP JUMPDEST PUSH1 0xC0 DUP2 ADD SWAP1 DUP2 LT PUSH1 0x1 PUSH1 0x1 PUSH1 0x40 SHL SUB DUP3 GT OR PUSH2 0x204B JUMPI PUSH1 0x40 MSTORE JUMP JUMPDEST SWAP1 PUSH1 0x1F DUP1 NOT SWAP2 ADD AND DUP2 ADD SWAP1 DUP2 LT PUSH1 0x1 PUSH1 0x1 PUSH1 0x40 SHL SUB DUP3 GT OR PUSH2 0x204B JUMPI PUSH1 0x40 MSTORE JUMP JUMPDEST PUSH1 0x1 PUSH1 0x1 PUSH1 0x40 SHL SUB DUP2 GT PUSH2 0x204B JUMPI PUSH1 0x1F ADD PUSH1 0x1F NOT AND PUSH1 0x20 ADD SWAP1 JUMP JUMPDEST DUP2 PUSH1 0x1F DUP3 ADD SLT ISZERO PUSH2 0x2150 JUMPI DUP1 CALLDATALOAD SWAP1 PUSH2 0x2120 DUP3 PUSH2 0x20EE JUMP JUMPDEST SWAP3 PUSH2 0x212E PUSH1 0x40 MLOAD SWAP5 DUP6 PUSH2 0x20CD JUMP JUMPDEST DUP3 DUP5 MSTORE PUSH1 0x20 DUP4 DUP4 ADD ADD GT PUSH2 0x2150 JUMPI DUP2 PUSH1 0x0 SWAP3 PUSH1 0x20 DUP1 SWAP4 ADD DUP4 DUP7 ADD CALLDATACOPY DUP4 ADD ADD MSTORE SWAP1 JUMP JUMPDEST PUSH1 0x0 DUP1 REVERT JUMPDEST PUSH1 0x0 JUMPDEST DUP4 DUP2 LT PUSH2 0x2168 JUMPI POP POP PUSH1 0x0 SWAP2 ADD MSTORE JUMP JUMPDEST DUP2 DUP2 ADD MLOAD DUP4 DUP3 ADD MSTORE PUSH1 0x20 ADD PUSH2 0x2158 JUMP JUMPDEST SWAP1 PUSH1 0x20 SWAP2 PUSH2 0x2191 DUP2 MLOAD DUP1 SWAP3 DUP2 DUP6 MSTORE DUP6 DUP1 DUP7 ADD SWAP2 ADD PUSH2 0x2155 JUMP JUMPDEST PUSH1 0x1F ADD PUSH1 0x1F NOT AND ADD ADD SWAP1 JUMP JUMPDEST PUSH1 0x2 GT ISZERO PUSH2 0x21A7 JUMPI JUMP JUMPDEST PUSH4 0x4E487B71 PUSH1 0xE0 SHL PUSH1 0x0 MSTORE PUSH1 0x21 PUSH1 0x4 MSTORE PUSH1 0x24 PUSH1 0x0 REVERT JUMPDEST PUSH1 0x20 DUP2 ADD PUSH1 0x20 DUP3 MSTORE DUP3 MLOAD DUP1 SWAP2 MSTORE PUSH1 0x40 DUP3 ADD SWAP2 PUSH1 0x20 PUSH1 0x40 DUP4 PUSH1 0x5 SHL DUP4 ADD ADD SWAP5 ADD SWAP3 PUSH1 0x0 SWAP2 JUMPDEST DUP4 DUP4 LT PUSH2 0x21F0 JUMPI POP POP POP POP POP SWAP1 JUMP JUMPDEST SWAP1 SWAP2 SWAP3 SWAP4 SWAP5 PUSH1 0x20 DUP1 PUSH2 0x2278 PUSH1 0x1 SWAP4 PUSH1 0x3F NOT DUP7 DUP3 SUB ADD DUP8 MSTORE DUP10 MLOAD SWAP1 PUSH1 0xA0 PUSH2 0x2247 PUSH2 0x2235 PUSH2 0x2225 DUP6 MLOAD PUSH1 0xC0 DUP7 MSTORE PUSH1 0xC0 DUP7 ADD SWAP1 PUSH2 0x2178 JUMP JUMPDEST DUP8 DUP7 ADD MLOAD DUP6 DUP3 SUB DUP10 DUP8 ADD MSTORE PUSH2 0x2178 JUMP JUMPDEST PUSH1 0x40 DUP6 ADD MLOAD DUP5 DUP3 SUB PUSH1 0x40 DUP7 ADD MSTORE PUSH2 0x2178 JUMP JUMPDEST SWAP3 PUSH1 0xFF PUSH1 0x60 DUP3 ADD MLOAD AND PUSH1 0x60 DUP5 ADD MSTORE PUSH1 0x80 DUP2 ADD MLOAD PUSH2 0x2263 DUP2 PUSH2 0x219D JUMP JUMPDEST PUSH1 0x80 DUP5 ADD MSTORE ADD MLOAD SWAP1 PUSH1 0xA0 DUP2 DUP5 SUB SWAP2 ADD MSTORE PUSH2 0x2178 JUMP JUMPDEST SWAP8 ADD SWAP4 ADD SWAP4 ADD SWAP2 SWAP4 SWAP3 SWAP1 PUSH2 0x21E1 JUMP JUMPDEST SWAP1 DUP1 PUSH1 0x20 DUP4 MLOAD SWAP2 DUP3 DUP2 MSTORE ADD SWAP2 PUSH1 0x20 DUP1 DUP4 PUSH1 0x5 SHL DUP4 ADD ADD SWAP5 ADD SWAP3 PUSH1 0x0 SWAP2 JUMPDEST DUP4 DUP4 LT PUSH2 0x22B3 JUMPI POP POP POP POP POP SWAP1 JUMP JUMPDEST SWAP1 SWAP2 SWAP3 SWAP4 SWAP5 PUSH1 0x20 DUP1 PUSH2 0x22D1 PUSH1 0x1 SWAP4 PUSH1 0x1F NOT DUP7 DUP3 SUB ADD DUP8 MSTORE DUP10 MLOAD PUSH2 0x2178 JUMP JUMPDEST SWAP8 ADD SWAP4 ADD SWAP4 ADD SWAP2 SWAP4 SWAP3 SWAP1 PUSH2 0x22A4 JUMP JUMPDEST SWAP1 PUSH1 0x3 DUP3 LT ISZERO PUSH2 0x21A7 JUMPI MSTORE JUMP JUMPDEST PUSH1 0x20 DUP2 ADD PUSH1 0x20 DUP3 MSTORE DUP3 MLOAD DUP1 SWAP2 MSTORE PUSH1 0x40 DUP3 ADD SWAP2 PUSH1 0x20 PUSH1 0x40 DUP4 PUSH1 0x5 SHL DUP4 ADD ADD SWAP5 ADD SWAP3 PUSH1 0x0 SWAP2 JUMPDEST DUP4 DUP4 LT PUSH2 0x2320 JUMPI POP POP POP POP POP SWAP1 JUMP JUMPDEST SWAP1 SWAP2 SWAP3 SWAP4 SWAP5 PUSH1 0x20 DUP1 PUSH2 0x2378 PUSH1 0x1 SWAP4 PUSH1 0x3F NOT DUP7 DUP3 SUB ADD DUP8 MSTORE DUP10 MLOAD SWAP1 PUSH1 0x80 PUSH2 0x2355 PUSH2 0x2235 PUSH2 0x2225 DUP6 MLOAD PUSH1 0xA0 DUP7 MSTORE PUSH1 0xA0 DUP7 ADD SWAP1 PUSH2 0x2178 JUMP JUMPDEST SWAP3 PUSH2 0x2368 PUSH1 0x60 DUP3 ADD MLOAD PUSH1 0x60 DUP6 ADD SWAP1 PUSH2 0x22E0 JUMP JUMPDEST ADD MLOAD SWAP1 PUSH1 0x80 DUP2 DUP5 SUB SWAP2 ADD MSTORE PUSH2 0x2178 JUMP JUMPDEST SWAP8 ADD SWAP4 ADD SWAP4 ADD SWAP2 SWAP4 SWAP3 SWAP1 PUSH2 0x2311 JUMP JUMPDEST SWAP1 PUSH1 0x1 DUP3 DUP2 SHR SWAP3 AND DUP1 ISZERO PUSH2 0x23B7 JUMPI JUMPDEST PUSH1 0x20 DUP4 LT EQ PUSH2 0x23A1 JUMPI JUMP JUMPDEST PUSH4 0x4E487B71 PUSH1 0xE0 SHL PUSH1 0x0 MSTORE PUSH1 0x22 PUSH1 0x4 MSTORE PUSH1 0x24 PUSH1 0x0 REVERT JUMPDEST SWAP2 PUSH1 0x7F AND SWAP2 PUSH2 0x2396 JUMP JUMPDEST SWAP1 PUSH1 0x40 MLOAD SWAP2 DUP3 PUSH1 0x0 DUP3 SLOAD SWAP3 PUSH2 0x23D5 DUP5 PUSH2 0x2387 JUMP JUMPDEST DUP1 DUP5 MSTORE SWAP4 PUSH1 0x1 DUP2 AND SWAP1 DUP2 ISZERO PUSH2 0x2443 JUMPI POP PUSH1 0x1 EQ PUSH2 0x23FC JUMPI JUMPDEST POP PUSH2 0x23FA SWAP3 POP SUB DUP4 PUSH2 0x20CD JUMP JUMPDEST JUMP JUMPDEST SWAP1 POP PUSH1 0x0 SWAP3 SWAP2 SWAP3 MSTORE PUSH1 0x20 PUSH1 0x0 KECCAK256 SWAP1 PUSH1 0x0 SWAP2 JUMPDEST DUP2 DUP4 LT PUSH2 0x2427 JUMPI POP POP SWAP1 PUSH1 0x20 PUSH2 0x23FA SWAP3 DUP3 ADD ADD CODESIZE PUSH2 0x23ED JUMP JUMPDEST PUSH1 0x20 SWAP2 SWAP4 POP DUP1 PUSH1 0x1 SWAP2 SLOAD DUP4 DUP6 DUP10 ADD ADD MSTORE ADD SWAP2 ADD SWAP1 SWAP2 DUP5 SWAP3 PUSH2 0x240E JUMP JUMPDEST SWAP1 POP PUSH1 0x20 SWAP3 POP PUSH2 0x23FA SWAP5 SWAP2 POP PUSH1 0xFF NOT AND DUP3 DUP5 ADD MSTORE ISZERO ISZERO PUSH1 0x5 SHL DUP3 ADD ADD CODESIZE PUSH2 0x23ED JUMP JUMPDEST SWAP1 PUSH1 0x40 PUSH1 0x3 NOT DUP4 ADD SLT PUSH2 0x2150 JUMPI PUSH1 0x4 CALLDATALOAD PUSH1 0x1 PUSH1 0x1 PUSH1 0x40 SHL SUB DUP2 GT PUSH2 0x2150 JUMPI DUP3 PUSH2 0x2490 SWAP2 PUSH1 0x4 ADD PUSH2 0x2109 JUMP JUMPDEST SWAP2 PUSH1 0x24 CALLDATALOAD SWAP1 PUSH1 0x1 PUSH1 0x1 PUSH1 0x40 SHL SUB DUP3 GT PUSH2 0x2150 JUMPI PUSH2 0x24AF SWAP2 PUSH1 0x4 ADD PUSH2 0x2109 JUMP JUMPDEST SWAP1 JUMP JUMPDEST DUP1 SLOAD DUP3 LT ISZERO PUSH2 0x24CE JUMPI PUSH1 0x0 MSTORE PUSH1 0x20 PUSH1 0x0 KECCAK256 SWAP1 PUSH1 0x1 SHL ADD SWAP1 PUSH1 0x0 SWAP1 JUMP JUMPDEST PUSH4 0x4E487B71 PUSH1 0xE0 SHL PUSH1 0x0 MSTORE PUSH1 0x32 PUSH1 0x4 MSTORE PUSH1 0x24 PUSH1 0x0 REVERT JUMPDEST PUSH1 0x3 SLOAD DUP2 LT ISZERO PUSH2 0x24CE JUMPI PUSH1 0x3 PUSH1 0x0 MSTORE PUSH1 0x20 PUSH1 0x0 KECCAK256 ADD SWAP1 PUSH1 0x0 SWAP1 JUMP JUMPDEST PUSH1 0x1 PUSH1 0x1 PUSH1 0x40 SHL SUB DUP2 GT PUSH2 0x204B JUMPI PUSH1 0x5 SHL PUSH1 0x20 ADD SWAP1 JUMP JUMPDEST SWAP1 DUP1 PUSH1 0x1F DUP4 ADD SLT ISZERO PUSH2 0x2150 JUMPI DUP2 CALLDATALOAD PUSH2 0x252D DUP2 PUSH2 0x24FF JUMP JUMPDEST SWAP3 PUSH2 0x253B PUSH1 0x40 MLOAD SWAP5 DUP6 PUSH2 0x20CD JUMP JUMPDEST DUP2 DUP5 MSTORE PUSH1 0x20 DUP1 DUP6 ADD SWAP3 PUSH1 0x5 SHL DUP3 ADD ADD SWAP2 DUP4 DUP4 GT PUSH2 0x2150 JUMPI PUSH1 0x20 DUP3 ADD SWAP1 JUMPDEST DUP4 DUP3 LT PUSH2 0x2567 JUMPI POP POP POP POP POP SWAP1 JUMP JUMPDEST DUP2 CALLDATALOAD PUSH1 0x1 PUSH1 0x1 PUSH1 0x40 SHL SUB DUP2 GT PUSH2 0x2150 JUMPI PUSH1 0x20 SWAP2 PUSH2 0x2589 DUP8 DUP5 DUP1 SWAP5 DUP9 ADD ADD PUSH2 0x2109 JUMP JUMPDEST DUP2 MSTORE ADD SWAP2 ADD SWAP1 PUSH2 0x2558 JUMP JUMPDEST SWAP2 SWAP1 SWAP2 DUP3 MLOAD PUSH1 0x1 PUSH1 0x1 PUSH1 0x40 SHL SUB DUP2 GT PUSH2 0x204B JUMPI PUSH2 0x25B1 DUP3 SLOAD PUSH2 0x2387 JUMP JUMPDEST PUSH1 0x1F DUP2 GT PUSH2 0x2657 JUMPI JUMPDEST POP PUSH1 0x20 PUSH1 0x1F DUP3 GT PUSH1 0x1 EQ PUSH2 0x25F5 JUMPI DUP2 SWAP3 SWAP4 SWAP5 PUSH1 0x0 SWAP3 PUSH2 0x25EA JUMPI JUMPDEST POP POP DUP2 PUSH1 0x1 SHL SWAP2 PUSH1 0x0 NOT SWAP1 PUSH1 0x3 SHL SHR NOT AND OR SWAP1 SSTORE JUMP JUMPDEST ADD MLOAD SWAP1 POP CODESIZE DUP1 PUSH2 0x25D4 JUMP JUMPDEST PUSH1 0x1F NOT DUP3 AND SWAP1 DUP4 PUSH1 0x0 MSTORE DUP1 PUSH1 0x0 KECCAK256 SWAP2 PUSH1 0x0 JUMPDEST DUP2 DUP2 LT PUSH2 0x263F JUMPI POP SWAP6 DUP4 PUSH1 0x1 SWAP6 SWAP7 SWAP8 LT PUSH2 0x2626 JUMPI JUMPDEST POP POP POP DUP2 SHL ADD SWAP1 SSTORE JUMP JUMPDEST ADD MLOAD PUSH1 0x0 NOT PUSH1 0xF8 DUP5 PUSH1 0x3 SHL AND SHR NOT AND SWAP1 SSTORE CODESIZE DUP1 DUP1 PUSH2 0x261C JUMP JUMPDEST SWAP2 SWAP3 PUSH1 0x20 PUSH1 0x1 DUP2 SWAP3 DUP7 DUP12 ADD MLOAD DUP2 SSTORE ADD SWAP5 ADD SWAP3 ADD PUSH2 0x2607 JUMP JUMPDEST DUP3 PUSH1 0x0 MSTORE PUSH1 0x20 PUSH1 0x0 KECCAK256 PUSH1 0x1F DUP4 ADD PUSH1 0x5 SHR DUP2 ADD SWAP2 PUSH1 0x20 DUP5 LT PUSH2 0x2695 JUMPI JUMPDEST PUSH1 0x1F ADD PUSH1 0x5 SHR ADD SWAP1 JUMPDEST DUP2 DUP2 LT PUSH2 0x2689 JUMPI POP PUSH2 0x25BA JUMP JUMPDEST PUSH1 0x0 DUP2 SSTORE PUSH1 0x1 ADD PUSH2 0x267C JUMP JUMPDEST SWAP1 SWAP2 POP DUP2 SWAP1 PUSH2 0x2673 JUMP JUMPDEST DUP2 PUSH1 0x1F DUP3 ADD SLT ISZERO PUSH2 0x2150 JUMPI DUP1 MLOAD PUSH2 0x26B5 DUP2 PUSH2 0x20EE JUMP JUMPDEST SWAP3 PUSH2 0x26C3 PUSH1 0x40 MLOAD SWAP5 DUP6 PUSH2 0x20CD JUMP JUMPDEST DUP2 DUP5 MSTORE PUSH1 0x20 DUP3 DUP5 ADD ADD GT PUSH2 0x2150 JUMPI PUSH2 0x24AF SWAP2 PUSH1 0x20 DUP1 DUP6 ADD SWAP2 ADD PUSH2 0x2155 JUMP JUMPDEST SWAP1 DUP1 PUSH1 0x1F DUP4 ADD SLT ISZERO PUSH2 0x2150 JUMPI DUP2 MLOAD PUSH2 0x26F8 DUP2 PUSH2 0x24FF JUMP JUMPDEST SWAP3 PUSH2 0x2706 PUSH1 0x40 MLOAD SWAP5 DUP6 PUSH2 0x20CD JUMP JUMPDEST DUP2 DUP5 MSTORE PUSH1 0x20 DUP1 DUP6 ADD SWAP3 PUSH1 0x5 SHL DUP3 ADD ADD SWAP2 DUP4 DUP4 GT PUSH2 0x2150 JUMPI PUSH1 0x20 DUP3 ADD SWAP1 JUMPDEST DUP4 DUP3 LT PUSH2 0x2732 JUMPI POP POP POP POP POP SWAP1 JUMP JUMPDEST DUP2 MLOAD PUSH1 0x1 PUSH1 0x1 PUSH1 0x40 SHL SUB DUP2 GT PUSH2 0x2150 JUMPI PUSH1 0x20 SWAP2 PUSH2 0x2754 DUP8 DUP5 DUP1 SWAP5 DUP9 ADD ADD PUSH2 0x269F JUMP JUMPDEST DUP2 MSTORE ADD SWAP2 ADD SWAP1 PUSH2 0x2723 JUMP JUMPDEST PUSH1 0x20 DUP2 DUP4 SUB SLT PUSH2 0x2150 JUMPI DUP1 MLOAD SWAP1 PUSH1 0x1 PUSH1 0x1 PUSH1 0x40 SHL SUB DUP3 GT PUSH2 0x2150 JUMPI ADD SWAP1 PUSH2 0x100 DUP3 DUP3 SUB SLT PUSH2 0x2150 JUMPI PUSH1 0x40 MLOAD SWAP2 PUSH2 0x2794 DUP4 PUSH2 0x202F JUMP JUMPDEST DUP1 MLOAD PUSH1 0x1 PUSH1 0x1 PUSH1 0x40 SHL SUB DUP2 GT PUSH2 0x2150 JUMPI DUP3 PUSH2 0x27B0 SWAP2 DUP4 ADD PUSH2 0x269F JUMP JUMPDEST DUP4 MSTORE PUSH1 0x20 DUP2 ADD MLOAD PUSH1 0x1 PUSH1 0x1 PUSH1 0x40 SHL SUB DUP2 GT PUSH2 0x2150 JUMPI DUP3 PUSH2 0x27D1 SWAP2 DUP4 ADD PUSH2 0x269F JUMP JUMPDEST PUSH1 0x20 DUP5 ADD MSTORE PUSH1 0x40 DUP2 ADD MLOAD PUSH1 0x1 PUSH1 0x1 PUSH1 0x40 SHL SUB DUP2 GT PUSH2 0x2150 JUMPI DUP3 PUSH2 0x27F5 SWAP2 DUP4 ADD PUSH2 0x26E1 JUMP JUMPDEST PUSH1 0x40 DUP5 ADD MSTORE PUSH1 0x60 DUP2 ADD MLOAD PUSH1 0x1 PUSH1 0x1 PUSH1 0x40 SHL SUB DUP2 GT PUSH2 0x2150 JUMPI DUP3 PUSH2 0x2819 SWAP2 DUP4 ADD PUSH2 0x26E1 JUMP JUMPDEST PUSH1 0x60 DUP5 ADD MSTORE PUSH1 0x80 DUP2 ADD MLOAD PUSH1 0x1 PUSH1 0x1 PUSH1 0x40 SHL SUB DUP2 GT PUSH2 0x2150 JUMPI DUP3 PUSH2 0x283D SWAP2 DUP4 ADD PUSH2 0x269F JUMP JUMPDEST PUSH1 0x80 DUP5 ADD MSTORE PUSH1 0xA0 DUP2 ADD MLOAD PUSH1 0x2 DUP2 LT ISZERO PUSH2 0x2150 JUMPI PUSH1 0xA0 DUP5 ADD MSTORE PUSH1 0xC0 DUP2 ADD MLOAD PUSH1 0x1 PUSH1 0x1 PUSH1 0x40 SHL SUB DUP2 GT PUSH2 0x2150 JUMPI PUSH1 0xE0 SWAP3 PUSH2 0x2876 SWAP2 DUP4 ADD PUSH2 0x269F JUMP JUMPDEST PUSH1 0xC0 DUP5 ADD MSTORE ADD MLOAD PUSH1 0x1 PUSH1 0x1 PUSH1 0xA0 SHL SUB DUP2 AND DUP2 SUB PUSH2 0x2150 JUMPI PUSH1 0xE0 DUP3 ADD MSTORE SWAP1 JUMP JUMPDEST SWAP1 DUP2 PUSH1 0x20 SWAP2 SUB SLT PUSH2 0x2150 JUMPI MLOAD DUP1 ISZERO ISZERO DUP2 SUB PUSH2 0x2150 JUMPI SWAP1 JUMP JUMPDEST ISZERO PUSH2 0x28B4 JUMPI JUMP JUMPDEST PUSH1 0x40 MLOAD PUSH3 0x461BCD PUSH1 0xE5 SHL DUP2 MSTORE PUSH1 0x20 PUSH1 0x4 DUP3 ADD MSTORE PUSH1 0xC PUSH1 0x24 DUP3 ADD MSTORE PUSH12 0x4F6E6C7920466163746F7279 PUSH1 0xA0 SHL PUSH1 0x44 DUP3 ADD MSTORE PUSH1 0x64 SWAP1 REVERT JUMPDEST PUSH1 0x40 MLOAD SWAP1 PUSH2 0x28F5 DUP3 PUSH2 0x20B2 JUMP JUMPDEST PUSH1 0x60 PUSH1 0xA0 DUP4 DUP3 DUP2 MSTORE DUP3 PUSH1 0x20 DUP3 ADD MSTORE DUP3 PUSH1 0x40 DUP3 ADD MSTORE PUSH1 0x0 DUP4 DUP3 ADD MSTORE PUSH1 0x0 PUSH1 0x80 DUP3 ADD MSTORE ADD MSTORE JUMP JUMPDEST SWAP1 PUSH2 0x2924 DUP3 PUSH2 0x24FF JUMP JUMPDEST PUSH2 0x2931 PUSH1 0x40 MLOAD SWAP2 DUP3 PUSH2 0x20CD JUMP JUMPDEST DUP3 DUP2 MSTORE DUP1 SWAP3 PUSH2 0x2942 PUSH1 0x1F NOT SWAP2 PUSH2 0x24FF JUMP JUMPDEST ADD SWAP1 PUSH1 0x0 JUMPDEST DUP3 DUP2 LT PUSH2 0x2953 JUMPI POP POP POP JUMP JUMPDEST PUSH1 0x20 SWAP1 PUSH2 0x295E PUSH2 0x28E8 JUMP JUMPDEST DUP3 DUP3 DUP6 ADD ADD MSTORE ADD PUSH2 0x2947 JUMP JUMPDEST MLOAD SWAP1 PUSH1 0xFF DUP3 AND DUP3 SUB PUSH2 0x2150 JUMPI JUMP JUMPDEST PUSH1 0x20 DUP2 DUP4 SUB SLT PUSH2 0x2150 JUMPI DUP1 MLOAD SWAP1 PUSH1 0x1 PUSH1 0x1 PUSH1 0x40 SHL SUB DUP3 GT PUSH2 0x2150 JUMPI ADD SWAP1 DUP1 PUSH1 0x1F DUP4 ADD SLT ISZERO PUSH2 0x2150 JUMPI DUP2 MLOAD SWAP2 PUSH2 0x29AC DUP4 PUSH2 0x24FF JUMP JUMPDEST SWAP3 PUSH2 0x29BA PUSH1 0x40 MLOAD SWAP5 DUP6 PUSH2 0x20CD JUMP JUMPDEST DUP1 DUP5 MSTORE PUSH1 0x20 DUP1 DUP6 ADD SWAP2 PUSH1 0x5 SHL DUP4 ADD ADD SWAP2 DUP4 DUP4 GT PUSH2 0x2150 JUMPI PUSH1 0x20 DUP2 ADD SWAP2 JUMPDEST DUP4 DUP4 LT PUSH2 0x29E6 JUMPI POP POP POP POP POP SWAP1 JUMP JUMPDEST DUP3 MLOAD PUSH1 0x1 PUSH1 0x1 PUSH1 0x40 SHL SUB DUP2 GT PUSH2 0x2150 JUMPI DUP3 ADD SWAP1 PUSH1 0xC0 DUP3 DUP8 SUB PUSH1 0x1F NOT ADD SLT PUSH2 0x2150 JUMPI PUSH1 0x40 MLOAD SWAP1 PUSH2 0x2A14 DUP3 PUSH2 0x20B2 JUMP JUMPDEST PUSH1 0x20 DUP4 ADD MLOAD PUSH1 0x2 DUP2 LT ISZERO PUSH2 0x2150 JUMPI DUP3 MSTORE PUSH1 0x40 DUP4 ADD MLOAD PUSH1 0x1 PUSH1 0x1 PUSH1 0x40 SHL SUB DUP2 GT PUSH2 0x2150 JUMPI DUP8 PUSH1 0x20 PUSH2 0x2A46 SWAP3 DUP7 ADD ADD PUSH2 0x269F JUMP JUMPDEST PUSH1 0x20 DUP4 ADD MSTORE PUSH1 0x60 DUP4 ADD MLOAD PUSH1 0x1 PUSH1 0x1 PUSH1 0x40 SHL SUB DUP2 GT PUSH2 0x2150 JUMPI DUP8 PUSH1 0x20 PUSH2 0x2A6D SWAP3 DUP7 ADD ADD PUSH2 0x269F JUMP JUMPDEST PUSH1 0x40 DUP4 ADD MSTORE PUSH2 0x2A7E PUSH1 0x80 DUP5 ADD PUSH2 0x296A JUMP JUMPDEST PUSH1 0x60 DUP4 ADD MSTORE PUSH1 0xA0 DUP4 ADD MLOAD PUSH1 0x1 PUSH1 0x1 PUSH1 0x40 SHL SUB DUP2 GT PUSH2 0x2150 JUMPI DUP8 PUSH1 0x20 PUSH2 0x2AA5 SWAP3 DUP7 ADD ADD PUSH2 0x26E1 JUMP JUMPDEST PUSH1 0x80 DUP4 ADD MSTORE PUSH1 0xC0 DUP4 ADD MLOAD SWAP2 PUSH1 0x1 PUSH1 0x1 PUSH1 0x40 SHL SUB DUP4 GT PUSH2 0x2150 JUMPI PUSH2 0x2AD0 DUP9 PUSH1 0x20 DUP1 SWAP7 SWAP6 DUP2 SWAP7 ADD ADD PUSH2 0x269F JUMP JUMPDEST PUSH1 0xA0 DUP3 ADD MSTORE DUP2 MSTORE ADD SWAP3 ADD SWAP2 PUSH2 0x29D7 JUMP JUMPDEST DUP1 MLOAD DUP3 LT ISZERO PUSH2 0x24CE JUMPI PUSH1 0x20 SWAP2 PUSH1 0x5 SHL ADD ADD SWAP1 JUMP JUMPDEST PUSH1 0x0 NOT DUP2 EQ PUSH2 0x2B03 JUMPI PUSH1 0x1 ADD SWAP1 JUMP JUMPDEST PUSH4 0x4E487B71 PUSH1 0xE0 SHL PUSH1 0x0 MSTORE PUSH1 0x11 PUSH1 0x4 MSTORE PUSH1 0x24 PUSH1 0x0 REVERT JUMPDEST PUSH1 0x40 MLOAD SWAP1 PUSH2 0x2B26 DUP3 PUSH2 0x2097 JUMP JUMPDEST PUSH1 0x0 PUSH1 0xC0 DUP4 PUSH1 0x60 DUP2 MSTORE DUP3 PUSH1 0x20 DUP3 ADD MSTORE DUP3 PUSH1 0x40 DUP3 ADD MSTORE DUP3 PUSH1 0x60 DUP3 ADD MSTORE DUP3 PUSH1 0x80 DUP3 ADD MSTORE PUSH1 0x60 PUSH1 0xA0 DUP3 ADD MSTORE ADD MSTORE JUMP JUMPDEST PUSH1 0x3 DUP3 LT ISZERO PUSH2 0x21A7 JUMPI MSTORE JUMP JUMPDEST SWAP1 PUSH1 0x40 MLOAD PUSH2 0x2B6B DUP2 PUSH2 0x2097 JUMP JUMPDEST PUSH1 0xC0 DUP2 SWAP4 PUSH2 0x2B78 DUP2 PUSH2 0x23C1 JUMP JUMPDEST DUP4 MSTORE PUSH2 0x2B8E PUSH1 0xFF PUSH1 0x1 DUP4 ADD SLOAD AND PUSH1 0x20 DUP6 ADD PUSH2 0x2B52 JUMP JUMPDEST PUSH1 0x2 DUP2 ADD SLOAD PUSH1 0x40 DUP5 ADD MSTORE PUSH1 0x3 DUP2 ADD SLOAD PUSH1 0x60 DUP5 ADD MSTORE PUSH1 0x4 DUP2 ADD SLOAD PUSH1 0x80 DUP5 ADD MSTORE PUSH2 0x2BB8 PUSH1 0x5 DUP3 ADD PUSH2 0x23C1 JUMP JUMPDEST PUSH1 0xA0 DUP5 ADD MSTORE PUSH1 0x6 ADD SLOAD PUSH1 0x1 PUSH1 0x1 PUSH1 0xA0 SHL SUB AND SWAP2 ADD MSTORE JUMP JUMPDEST SWAP1 PUSH2 0x2BD9 DUP3 PUSH2 0x24FF JUMP JUMPDEST PUSH2 0x2BE6 PUSH1 0x40 MLOAD SWAP2 DUP3 PUSH2 0x20CD JUMP JUMPDEST DUP3 DUP2 MSTORE DUP1 SWAP3 PUSH2 0x2BF7 PUSH1 0x1F NOT SWAP2 PUSH2 0x24FF JUMP JUMPDEST ADD SWAP1 PUSH1 0x0 JUMPDEST DUP3 DUP2 LT PUSH2 0x2C08 JUMPI POP POP POP JUMP JUMPDEST PUSH1 0x20 SWAP1 PUSH1 0x40 MLOAD PUSH2 0x2C17 DUP2 PUSH2 0x2061 JUMP JUMPDEST PUSH1 0x60 DUP2 MSTORE PUSH1 0x60 DUP4 DUP3 ADD MSTORE PUSH1 0x60 PUSH1 0x40 DUP3 ADD MSTORE PUSH1 0x0 PUSH1 0x60 DUP3 ADD MSTORE PUSH1 0x60 PUSH1 0x80 DUP3 ADD MSTORE DUP3 DUP3 DUP6 ADD ADD MSTORE ADD PUSH2 0x2BFC JUMP JUMPDEST PUSH1 0x40 MLOAD SWAP1 PUSH2 0x2C4F DUP3 PUSH2 0x20B2 JUMP JUMPDEST PUSH1 0x60 PUSH1 0xA0 DUP4 PUSH1 0x0 DUP2 MSTORE DUP3 PUSH1 0x20 DUP3 ADD MSTORE DUP3 PUSH1 0x40 DUP3 ADD MSTORE PUSH1 0x0 DUP4 DUP3 ADD MSTORE DUP3 PUSH1 0x80 DUP3 ADD MSTORE ADD MSTORE JUMP JUMPDEST PUSH1 0x3 SLOAD PUSH1 0x2 SLOAD PUSH1 0x1 PUSH1 0x1 PUSH1 0xA0 SHL SUB AND PUSH1 0x0 DUP1 JUMPDEST DUP4 DUP2 LT PUSH2 0x2DDA JUMPI POP DUP1 ISZERO PUSH2 0x2D9D JUMPI PUSH2 0x2CA1 SWAP1 SWAP3 SWAP2 SWAP3 PUSH2 0x291A JUMP JUMPDEST SWAP1 PUSH1 0x0 SWAP1 PUSH1 0x0 SWAP4 JUMPDEST DUP2 DUP6 LT PUSH2 0x2CB8 JUMPI POP POP POP SWAP1 POP SWAP1 JUMP JUMPDEST PUSH2 0x2CC4 PUSH2 0xE42 DUP7 PUSH2 0x24E4 JUMP JUMPDEST SWAP2 PUSH1 0x40 MLOAD SWAP2 PUSH4 0x46ABDD05 PUSH1 0xE1 SHL DUP4 MSTORE PUSH1 0x20 PUSH1 0x4 DUP5 ADD MSTORE PUSH1 0x0 DUP4 DUP1 PUSH2 0x2CEB PUSH1 0x24 DUP3 ADD DUP9 PUSH2 0x2178 JUMP JUMPDEST SUB DUP2 DUP5 GAS STATICCALL SWAP3 DUP4 ISZERO PUSH2 0x2D91 JUMPI PUSH1 0x0 SWAP4 PUSH2 0x2D76 JUMPI JUMPDEST POP PUSH1 0x0 JUMPDEST DUP4 MLOAD DUP2 LT ISZERO PUSH2 0x2D65 JUMPI PUSH2 0x2D16 DUP2 DUP6 PUSH2 0x2AE0 JUMP JUMPDEST MLOAD MLOAD PUSH2 0x2D21 DUP2 PUSH2 0x219D JUMP JUMPDEST PUSH2 0x2D2A DUP2 PUSH2 0x219D JUMP JUMPDEST ISZERO PUSH2 0x2D38 JUMPI JUMPDEST PUSH1 0x1 ADD PUSH2 0x2D03 JUMP JUMPDEST SWAP5 PUSH2 0x2D5D PUSH1 0x1 SWAP2 PUSH2 0x2D53 PUSH2 0x2D4C DUP10 DUP9 PUSH2 0x2AE0 JUMP JUMPDEST MLOAD DUP9 PUSH2 0x2EAF JUMP JUMPDEST PUSH2 0xF6D DUP3 DUP12 PUSH2 0x2AE0 JUMP JUMPDEST SWAP6 SWAP1 POP PUSH2 0x2D30 JUMP JUMPDEST POP PUSH1 0x1 SWAP1 SWAP7 ADD SWAP6 SWAP1 SWAP3 POP SWAP1 POP PUSH2 0x2CA9 JUMP JUMPDEST PUSH2 0x2D8A SWAP2 SWAP4 RETURNDATASIZE DUP1 SWAP2 DUP4 RETURNDATACOPY PUSH2 0x14DF DUP2 DUP4 PUSH2 0x20CD JUMP JUMPDEST SWAP2 CODESIZE PUSH2 0x2CFF JUMP JUMPDEST PUSH1 0x40 MLOAD RETURNDATASIZE PUSH1 0x0 DUP3 RETURNDATACOPY RETURNDATASIZE SWAP1 REVERT JUMPDEST POP POP PUSH1 0x40 MLOAD SWAP1 POP PUSH1 0x0 PUSH2 0x2DB1 PUSH1 0x20 DUP4 PUSH2 0x20CD JUMP JUMPDEST DUP2 MSTORE PUSH1 0x0 DUP1 JUMPDEST DUP2 DUP2 LT PUSH2 0x2DC3 JUMPI POP POP SWAP1 JUMP JUMPDEST PUSH1 0x20 SWAP1 PUSH2 0x2DCE PUSH2 0x28E8 JUMP JUMPDEST DUP3 DUP3 DUP7 ADD ADD MSTORE ADD PUSH2 0x2DB7 JUMP JUMPDEST SWAP3 SWAP2 PUSH2 0x2E11 SWAP2 SWAP3 PUSH1 0x0 PUSH2 0x2DEF PUSH2 0xE42 DUP8 PUSH2 0x24E4 JUMP JUMPDEST PUSH1 0x40 MLOAD DUP1 SWAP6 DUP2 SWAP3 PUSH4 0x46ABDD05 PUSH1 0xE1 SHL DUP4 MSTORE PUSH1 0x20 PUSH1 0x4 DUP5 ADD MSTORE PUSH1 0x24 DUP4 ADD SWAP1 PUSH2 0x2178 JUMP JUMPDEST SUB DUP2 DUP6 GAS STATICCALL SWAP3 DUP4 ISZERO PUSH2 0x2D91 JUMPI PUSH1 0x0 SWAP4 PUSH2 0x2E94 JUMPI JUMPDEST POP DUP3 MLOAD ISZERO PUSH2 0x2E88 JUMPI PUSH1 0x0 JUMPDEST DUP4 MLOAD DUP2 LT ISZERO PUSH2 0x2E79 JUMPI PUSH2 0x2E43 DUP2 DUP6 PUSH2 0x2AE0 JUMP JUMPDEST MLOAD MLOAD PUSH2 0x2E4E DUP2 PUSH2 0x219D JUMP JUMPDEST PUSH2 0x2E57 DUP2 PUSH2 0x219D JUMP JUMPDEST ISZERO PUSH2 0x2E65 JUMPI JUMPDEST PUSH1 0x1 ADD PUSH2 0x2E30 JUMP JUMPDEST SWAP4 PUSH2 0x2E71 PUSH1 0x1 SWAP2 PUSH2 0x2AF4 JUMP JUMPDEST SWAP5 SWAP1 POP PUSH2 0x2E5D JUMP JUMPDEST POP SWAP4 PUSH1 0x1 SWAP2 SWAP4 SWAP3 POP JUMPDEST ADD PUSH2 0x2C87 JUMP JUMPDEST SWAP4 PUSH1 0x1 SWAP2 SWAP4 SWAP3 POP PUSH2 0x2E82 JUMP JUMPDEST PUSH2 0x2EA8 SWAP2 SWAP4 RETURNDATASIZE DUP1 SWAP2 DUP4 RETURNDATACOPY PUSH2 0x14DF DUP2 DUP4 PUSH2 0x20CD JUMP JUMPDEST SWAP2 CODESIZE PUSH2 0x2E25 JUMP JUMPDEST SWAP1 PUSH2 0x2EB8 PUSH2 0x28E8 JUMP JUMPDEST POP PUSH1 0x20 DUP2 ADD MLOAD SWAP1 PUSH1 0x40 DUP2 ADD MLOAD PUSH1 0xFF PUSH1 0x60 DUP4 ADD MLOAD AND SWAP1 PUSH1 0xA0 DUP4 MLOAD SWAP4 PUSH2 0x2EDB DUP6 PUSH2 0x219D JUMP JUMPDEST ADD MLOAD SWAP4 PUSH1 0x40 MLOAD SWAP6 PUSH2 0x2EEB DUP8 PUSH2 0x20B2 JUMP JUMPDEST DUP7 MSTORE PUSH1 0x20 DUP7 ADD MSTORE PUSH1 0x40 DUP6 ADD MSTORE PUSH1 0x60 DUP5 ADD MSTORE PUSH2 0x2F05 DUP2 PUSH2 0x219D JUMP JUMPDEST PUSH1 0x80 DUP4 ADD MSTORE PUSH1 0xA0 DUP3 ADD MSTORE SWAP1 JUMP INVALID LOG2 PUSH5 0x6970667358 0x22 SLT KECCAK256 0x4E SHR 0xB0 PUSH0 0xB0 0x2B 0xBC SWAP14 BYTE 0x2B 0xC3 STATICCALL 0xDA ISZERO PUSH16 0xCDA18EC55A85BB186A31BC98DBBB4361 DUP7 PUSH5 0x736F6C6343 STOP ADDMOD SHL STOP CALLER "},"methodIdentifiers":{"addBatchProduction(string,string,string,uint8,string[],string)":"e521d586","allObatIds(uint256)":"cb960d6b","approveNie(string,string,string,address)":"02d4a86b","createObat(string,string,string,string[],string,string[],string,uint8)":"e5dd1d06","detailBatchProduction(string,string)":"54253681","detailObat(string)":"4d17d273","getAllBatchProductionByInstance(string)":"1bbd28f9","getAllBatchProductionReadyStock()":"a1e0a4b0","getAllObat()":"50168fbb","getAllObatByInstance(string)":"baeedfad","getAllObatNameApprovedNie(string)":"6b0a3fe5","getJenisSediaanAvail(string)":"d44faa63","mainSupplyChain()":"9413fcfd","obatNieById(string)":"5162659c","obatProductNameApprovedByFactory(string,uint256)":"65e90bcc","obatShared()":"3fca88cb","requestNie(string,string)":"e8982035","roleManager()":"00435da5"}}}}}