{"contracts/ObatShared.sol":{"ObatShared":{"abi":[{"inputs":[{"internalType":"string","name":"","type":"string"}],"name":"ObatPbfBatchName","outputs":[{"internalType":"enum EnumsLibrary.ObatAvailability","name":"statusStok","type":"uint8"},{"internalType":"string","name":"namaProduk","type":"string"},{"internalType":"string","name":"batchName","type":"string"},{"internalType":"uint8","name":"obatQuantity","type":"uint8"},{"internalType":"string","name":"pbfInstance","type":"string"},{"internalType":"string","name":"obatId","type":"string"}],"stateMutability":"view","type":"function"},{"inputs":[{"internalType":"string","name":"_obatId","type":"string"},{"internalType":"string","name":"_namaProduk","type":"string"},{"internalType":"string","name":"_batchName","type":"string"},{"internalType":"uint8","name":"_obatQuantity","type":"uint8"},{"internalType":"string[]","name":"_obatIpfsHash","type":"string[]"},{"internalType":"string","name":"_factoryInstance","type":"string"}],"name":"addBatchProduction","outputs":[],"stateMutability":"nonpayable","type":"function"},{"inputs":[{"internalType":"string","name":"_obatId","type":"string"},{"internalType":"string","name":"_namaProduk","type":"string"},{"internalType":"string","name":"_batchName","type":"string"},{"internalType":"uint8","name":"_obatQuantity","type":"uint8"},{"internalType":"string[]","name":"_obatIpfsHash","type":"string[]"},{"internalType":"string","name":"_pbfInstance","type":"string"}],"name":"addObatPbf","outputs":[],"stateMutability":"nonpayable","type":"function"},{"inputs":[],"name":"getAllObatPbfReadyStock","outputs":[{"components":[{"internalType":"string","name":"obatId","type":"string"},{"internalType":"string","name":"namaProduk","type":"string"},{"internalType":"string","name":"batchName","type":"string"},{"internalType":"uint8","name":"obatQuantity","type":"uint8"},{"internalType":"enum EnumsLibrary.ObatAvailability","name":"statusStok","type":"uint8"},{"internalType":"string","name":"ownerInstance","type":"string"}],"internalType":"struct ObatShared.st_obatOutputStock[]","name":"","type":"tuple[]"}],"stateMutability":"view","type":"function"},{"inputs":[{"internalType":"string","name":"_obatId","type":"string"}],"name":"getObatDetail","outputs":[{"components":[{"internalType":"string","name":"merk","type":"string"},{"internalType":"string","name":"namaProduk","type":"string"},{"internalType":"string[]","name":"klaim","type":"string[]"},{"internalType":"string[]","name":"komposisi","type":"string[]"},{"internalType":"string","name":"kemasan","type":"string"},{"internalType":"enum EnumsLibrary.TipeProduk","name":"tipeProduk","type":"uint8"},{"internalType":"string","name":"factoryInstance","type":"string"},{"internalType":"address","name":"factoryAddr","type":"address"}],"internalType":"struct ObatShared.st_obatDetails","name":"","type":"tuple"}],"stateMutability":"view","type":"function"},{"inputs":[{"internalType":"string","name":"_obatId","type":"string"}],"name":"getObatProduction","outputs":[{"components":[{"internalType":"enum EnumsLibrary.ObatAvailability","name":"statusStok","type":"uint8"},{"internalType":"string","name":"namaProduk","type":"string"},{"internalType":"string","name":"batchName","type":"string"},{"internalType":"uint8","name":"obatQuantity","type":"uint8"},{"internalType":"string[]","name":"obatIpfs","type":"string[]"},{"internalType":"string","name":"factoryInstance","type":"string"}],"internalType":"struct ObatShared.st_obatProduction[]","name":"","type":"tuple[]"}],"stateMutability":"view","type":"function"},{"inputs":[{"internalType":"string","name":"","type":"string"}],"name":"obatDetailsById","outputs":[{"internalType":"string","name":"merk","type":"string"},{"internalType":"string","name":"namaProduk","type":"string"},{"internalType":"string","name":"kemasan","type":"string"},{"internalType":"enum EnumsLibrary.TipeProduk","name":"tipeProduk","type":"uint8"},{"internalType":"string","name":"factoryInstance","type":"string"},{"internalType":"address","name":"factoryAddr","type":"address"}],"stateMutability":"view","type":"function"},{"inputs":[{"internalType":"string","name":"","type":"string"},{"internalType":"uint256","name":"","type":"uint256"}],"name":"obatProductionById","outputs":[{"internalType":"enum EnumsLibrary.ObatAvailability","name":"statusStok","type":"uint8"},{"internalType":"string","name":"namaProduk","type":"string"},{"internalType":"string","name":"batchName","type":"string"},{"internalType":"uint8","name":"obatQuantity","type":"uint8"},{"internalType":"string","name":"factoryInstance","type":"string"}],"stateMutability":"view","type":"function"},{"inputs":[{"internalType":"string","name":"_obatId","type":"string"},{"internalType":"string","name":"_merk","type":"string"},{"internalType":"string","name":"_namaProduk","type":"string"},{"internalType":"string[]","name":"_klaim","type":"string[]"},{"internalType":"string[]","name":"_komposisi","type":"string[]"},{"internalType":"string","name":"_kemasan","type":"string"},{"internalType":"enum EnumsLibrary.TipeProduk","name":"_tipeProduk","type":"uint8"},{"internalType":"string","name":"_factoryInstance","type":"string"},{"internalType":"address","name":"_factoryAddr","type":"address"}],"name":"setObatDetail","outputs":[],"stateMutability":"nonpayable","type":"function"},{"inputs":[{"internalType":"string","name":"_obatId","type":"string"},{"internalType":"string","name":"_batchName","type":"string"},{"internalType":"string[]","name":"_obatIpfs","type":"string[]"}],"name":"updateBatchProduction","outputs":[],"stateMutability":"nonpayable","type":"function"}],"evm":{"bytecode":{"linkReferences":{},"object":"60808060405234601557611a89908161001b8239f35b600080fdfe6080604052600436101561001257600080fd5b60003560e01c806327321837146113025780636fbef94b14611225578063863e16ba1461105f5780638d57ba0a14610e8d578063906ce01714610b8a578063a24f65091461076d578063ba2ffe4c14610680578063d658267214610487578063e521d586146102ba5763e9c14cb81461008a57600080fd5b346102b55760603660031901126102b5576004356001600160401b0381116102b5576100ba90369060040161145e565b6024356001600160401b0381116102b5576100d990369060040161145e565b6044356001600160401b0381116102b55760206100fd610111923690600401611611565b9381604051938285809451938492016114b4565b810160028152030190209060405161014a6020828161013981830196878151938492016114b4565b81010301601f19810183528261143d565b5190209060005b81548110156102b35782600261018161018f61016d85876117a0565b5060405192839160208301958691016119ac565b03601f19810183528261143d565b519020146101a0575b600101610151565b6101aa81836117a0565b50805460ff1916600117905560046101c282846117a0565b5001845190600160401b821161029d57805482825580831061021f575b5060208601906000526020600020906000905b8382106102025750505050610198565b600160208261021383945187611803565b019301910190916101f2565b8160005282602060002091820191015b81811061023c57506101df565b80610249600192546114d7565b80610256575b500161022f565b601f8111831461026c5750600081555b3861024f565b61028a908260005283601f6020600020920160051c820191016117ec565b8060005260006020812081835555610266565b634e487b7160e01b600052604160045260246000fd5b005b600080fd5b346102b5576102c83661168f565b949190929361031b6020604051946102df86611406565b600086528186019384526040860197885260ff60608701951685526080860196875260a0860198895281604051938285809451938492016114b4565b810160028152030190208054600160401b81101561029d57610342916001820181556117a0565b9590956104715761037061037a9261036660ff9651610360816115da565b89611903565b5160018801611803565b5160028601611803565b511660ff60038401911660ff1982541617905560048201905190815191600160401b831161029d5781548383558084106103f3575b506020019060005260206000206000915b8383106103d6576102b385600588519101611803565b60016020826103e783945186611803565b019201920191906103c0565b8260005283602060002091820191015b81811061041057506103af565b8061041d600192546114d7565b8061042a575b5001610403565b601f811183146104405750600081555b88610423565b61045e908260005283601f6020600020920160051c820191016117ec565b806000526000602081208183555561043a565b634e487b7160e01b600052600060045260246000fd5b346102b55760203660031901126102b5576004356001600160401b0381116102b55761012061051e60206104c261066b94369060040161145e565b600060e06040516104d281611421565b6060815260608582015260606040820152606080820152606060808201528260a0820152606060c0820152015261050b8151151561191b565b81604051938285809451938492016114b4565b8101600181520301902060405192839161053783611421565b61054081611511565b83528261064961055260018401611511565b6020830190815261063661056860028601611954565b6040850190815261062361057e60038801611954565b916060870192835261061061059560048a01611511565b956080890196875260e060ff60058c0154169a60a08b019b6105b6816115da565b8c5260c06105c660068301611511565b9b019a8b52600760018060a01b03910154169c019b8c526105fd6040519e8f9e8f91602083525191610100602082015201906115b5565b90518d8203601f190160408f01526115b5565b90518b8203601f190160608d0152611747565b9051898203601f190160808b0152611747565b9051878203601f190160a08901526115b5565b9151610654816115da565b60c086015251848203601f190160e08601526115b5565b90516001600160a01b03166101008301520390f35b346102b55760403660031901126102b5576004356001600160401b0381116102b5576106b090369060040161145e565b6106cc60206024359281604051938285809451938492016114b4565b810160028152030190209081548110156102b5576106e9916117a0565b5060ff8154166107696106fe60018401611511565b9261070b60028201611511565b610756610722600560ff6003860154169401611511565b9161074860405197876107358a996115da565b885260a0602089015260a08801906115b5565b9086820360408801526115b5565b91606085015283820360808501526115b5565b0390f35b346102b5576101203660031901126102b5576004356001600160401b0381116102b55761079e90369060040161145e565b6024356001600160401b0381116102b5576107bd90369060040161145e565b6044356001600160401b0381116102b5576107dc90369060040161145e565b916064356001600160401b0381116102b5576107fc903690600401611611565b6084356001600160401b0381116102b55761081b903690600401611611565b60a4356001600160401b0381116102b55761083a90369060040161145e565b9060c4359260028410156102b55760e4356001600160401b0381116102b55761086790369060040161145e565b94610104359760018060a01b0389168099036102b557815115610b5357805115610b1a576103666108f26020610904946040519b6108a48d611421565b8c52818c0194855260408c0196875260608c0197885260808c0198895260a08c01996108cf816115da565b8a5260c08c019a8b5260e08c019c8d5281604051938285809451938492016114b4565b81016001815203019020985189611803565b518051906002870190600160401b831161029d578154838355808410610a9c575b506020019060005260206000206000915b838310610a7f575050505060038501905190815191600160401b831161029d578154838355808410610a01575b506020019060005260206000206000915b8383106109e457886007896109c08a8a6109928b5160048601611803565b6005840190516109a1816115da565b6109aa816115da565b60ff801983541691161790555160068301611803565b9151910180546001600160a01b0319166001600160a01b0392909216919091179055005b60016020826109f583945186611803565b01920192019190610974565b8260005283602060002091820191015b818110610a1e5750610963565b80610a2b600192546114d7565b80610a38575b5001610a11565b601f81118314610a4e5750600081555b8b610a31565b610a6c908260005283601f6020600020920160051c820191016117ec565b8060005260006020812081835555610a48565b6001602082610a9083945186611803565b01920192019190610936565b8260005283602060002091820191015b818110610ab95750610925565b80610ac6600192546114d7565b80610ad3575b5001610aac565b601f81118314610ae95750600081555b8c610acc565b610b07908260005283601f6020600020920160051c820191016117ec565b8060005260006020812081835555610ae3565b60405162461bcd60e51b8152602060048201526011602482015270496e76616c6964204f626174204e616d6560781b6044820152606490fd5b60405162461bcd60e51b815260206004820152600f60248201526e125b9d985b1a590813d8985d081251608a1b6044820152606490fd5b346102b55760003660031901126102b55760008054815b818110610e485750610bb2826115fa565b91610bc0604051938461143d565b808352610bcf601f19916115fa565b0160005b818110610e075750506000805b828110610cb957836040518091602082016020835281518091526040830190602060408260051b8601019301916000905b828210610c2057505050500390f35b91936001919395506020610ca98192603f198a820301865288519060a0610c78610c66610c56855160c0865260c08601906115b5565b87860151858203898701526115b5565b604085015184820360408601526115b5565b9260ff60608201511660608401526080810151610c94816115da565b608084015201519060a08184039101526115b5565b9601920192018594939192610c11565b60ff610cd66020610cc9846117d2565b50604051928380926119ac565b60038152030190205416610ce9816115da565b15610cf7575b600101610be0565b90610dff600191610d0c6020610cc9866117d2565b6003815203019020604051610d20816113eb565b60ff825416610d2e816115da565b8152610d3b858301611511565b9160208201928352610d4f60028201611511565b916040810192835260ff60038301541660608201908152610d7260048401611954565b608083015260ff610d986006610d8a60058701611511565b9560a0860196875201611511565b958660c0850152519451915116915192610db1846115da565b519360405195610dc087611406565b8652602086015260408501526060840152610dda816115da565b608083015260a0820152610dee8288611a3f565b52610df98187611a3f565b50611a1a565b919050610cef565b602090604051610e1681611406565b60608152606083820152606060408201526000606082015260006080820152606060a082015282828701015201610bd3565b60ff610e586020610cc9846117d2565b60038152030190205416610e6b816115da565b15610e79575b600101610ba1565b91610e85600191611a1a565b929050610e71565b346102b55760203660031901126102b5576004356001600160401b0381116102b5576020610ec2610ece92369060040161145e565b61050b8151151561191b565b81016002815203019020805490610ee4826115fa565b91610ef2604051938461143d565b80835260208301809260005260206000206000915b838310610fdf57848660405191829160208301906020845251809152604083019060408160051b85010192916000905b828210610f4657505050500390f35b91936001919395506020610fcf8192603f198a82030186528851908151610f6c816115da565b815260a0610fbe610f9f610f8d8786015160c08987015260c08601906115b5565b604086015185820360408701526115b5565b60ff606086015116606085015260808501518482036080860152611747565b9201519060a08184039101526115b5565b9601920192018594939192610f37565b60066020600192604051610ff281611406565b60ff865416611000816115da565b815261100d858701611511565b8382015261101d60028701611511565b604082015260ff600387015416606082015261103b60048701611954565b608082015261104c60058701611511565b60a0820152815201920192019190610f07565b346102b55761106d3661168f565b929390916040519461107e866113eb565b60008652602086019283526040860181815260ff60608801931683526080870194855260a0870195865260c08701978852600054600160401b81101561029d578060016110ce92016000556117d2565b9290926104715760ff9461110c6110f160208461050b6111169661112099611803565b810160038152030190209951611106816115da565b8a611903565b5160018901611803565b5160028701611803565b511660ff60038501911660ff1982541617905560048301905190815191600160401b831161029d5781548383558084106111a7575b506020019060005260206000206000915b83831061118a576102b386600689611182895160058501611803565b519101611803565b600160208261119b83945186611803565b01920192019190611166565b8260005283602060002091820191015b8181106111c45750611155565b806111d1600192546114d7565b806111de575b50016111b7565b601f811183146111f45750600081555b896111d7565b611212908260005283601f6020600020920160051c820191016117ec565b80600052600060208120818355556111ee565b346102b55760203660031901126102b5576004356001600160401b0381116102b557602061050b61125a92369060040161145e565b8101600381520301902060ff81541661076961127860018401611511565b926112f461128860028301611511565b9160ff600382015416906112e16112ad60066112a660058501611511565b9301611511565b946112d360405199896112c08c9b6115da565b8a5260c060208b015260c08a01906115b5565b9088820360408a01526115b5565b91606087015285820360808701526115b5565b9083820360a08501526115b5565b346102b55760203660031901126102b5576004356001600160401b0381116102b55761133a602061050b6113a993369060040161145e565b8101600181520301902061134d81611511565b906113e161135d60018301611511565b9161136a60048201611511565b906113c560ff600583015416926113b761138660068501611511565b93600760018060a01b039101541696604051998a9960c08b5260c08b01906115b5565b9089820360208b01526115b5565b9087820360408901526115b5565b916113cf816115da565b606086015284820360808601526115b5565b9060a08301520390f35b60e081019081106001600160401b0382111761029d57604052565b60c081019081106001600160401b0382111761029d57604052565b61010081019081106001600160401b0382111761029d57604052565b90601f801991011681019081106001600160401b0382111761029d57604052565b81601f820112156102b5578035906001600160401b03821161029d5760405192611492601f8401601f19166020018561143d565b828452602083830101116102b557816000926020809301838601378301015290565b60005b8381106114c75750506000910152565b81810151838201526020016114b7565b90600182811c92168015611507575b60208310146114f157565b634e487b7160e01b600052602260045260246000fd5b91607f16916114e6565b9060405191826000825492611525846114d7565b8084529360018116908115611593575060011461154c575b5061154a9250038361143d565b565b90506000929192526020600020906000915b81831061157757505090602061154a928201013861153d565b602091935080600191548385890101520191019091849261155e565b90506020925061154a94915060ff191682840152151560051b8201013861153d565b906020916115ce815180928185528580860191016114b4565b601f01601f1916010190565b600211156115e457565b634e487b7160e01b600052602160045260246000fd5b6001600160401b03811161029d5760051b60200190565b9080601f830112156102b5578135611628816115fa565b92611636604051948561143d565b81845260208085019260051b820101918383116102b55760208201905b83821061166257505050505090565b81356001600160401b0381116102b5576020916116848784809488010161145e565b815201910190611653565b9060c06003198301126102b5576004356001600160401b0381116102b557826116ba9160040161145e565b916024356001600160401b0381116102b557816116d99160040161145e565b916044356001600160401b0381116102b557826116f89160040161145e565b9160643560ff811681036102b557916084356001600160401b0381116102b5578261172591600401611611565b9160a435906001600160401b0382116102b5576117449160040161145e565b90565b9080602083519182815201916020808360051b8301019401926000915b83831061177357505050505090565b9091929394602080611791600193601f1986820301875289516115b5565b97019301930191939290611764565b80548210156117bc576000526006602060002091020190600090565b634e487b7160e01b600052603260045260246000fd5b6000548110156117bc576000805260206000200190600090565b8181106117f7575050565b600081556001016117ec565b91909182516001600160401b03811161029d5761182082546114d7565b601f81116118c6575b506020601f82116001146118645781929394600092611859575b50508160011b916000199060031b1c1916179055565b015190503880611843565b601f1982169083600052806000209160005b8181106118ae57509583600195969710611895575b505050811b019055565b015160001960f88460031b161c1916905538808061188b565b9192602060018192868b015181550194019201611876565b6118f390836000526020600020601f840160051c810191602085106118f9575b601f0160051c01906117ec565b38611829565b90915081906118e6565b9061190d816115da565b60ff80198354169116179055565b1561192257565b60405162461bcd60e51b815260206004820152600a602482015269125b9d985b1a5908125160b21b6044820152606490fd5b908154611960816115fa565b9261196e604051948561143d565b818452602084019060005260206000206000915b83831061198f5750505050565b60016020819261199e85611511565b815201920192019190611982565b600092918154916119bc836114d7565b9260018116908115611a0757506001146119d557505050565b909192935060005260206000206000905b8382106119f35750500190565b6001816020925484860152019101906119e6565b60ff191683525050811515909102019150565b6000198114611a295760010190565b634e487b7160e01b600052601160045260246000fd5b80518210156117bc5760209160051b01019056fea2646970667358221220613ed1d872ed3174010dd051fadf9213eab4c63c26cf6aa764af6d79f745bdfc64736f6c634300081b0033","opcodes":"PUSH1 0x80 DUP1 PUSH1 0x40 MSTORE CALLVALUE PUSH1 0x15 JUMPI PUSH2 0x1A89 SWAP1 DUP2 PUSH2 0x1B DUP3 CODECOPY RETURN JUMPDEST PUSH1 0x0 DUP1 REVERT INVALID PUSH1 0x80 PUSH1 0x40 MSTORE PUSH1 0x4 CALLDATASIZE LT ISZERO PUSH2 0x12 JUMPI PUSH1 0x0 DUP1 REVERT JUMPDEST PUSH1 0x0 CALLDATALOAD PUSH1 0xE0 SHR DUP1 PUSH4 0x27321837 EQ PUSH2 0x1302 JUMPI DUP1 PUSH4 0x6FBEF94B EQ PUSH2 0x1225 JUMPI DUP1 PUSH4 0x863E16BA EQ PUSH2 0x105F JUMPI DUP1 PUSH4 0x8D57BA0A EQ PUSH2 0xE8D JUMPI DUP1 PUSH4 0x906CE017 EQ PUSH2 0xB8A JUMPI DUP1 PUSH4 0xA24F6509 EQ PUSH2 0x76D JUMPI DUP1 PUSH4 0xBA2FFE4C EQ PUSH2 0x680 JUMPI DUP1 PUSH4 0xD6582672 EQ PUSH2 0x487 JUMPI DUP1 PUSH4 0xE521D586 EQ PUSH2 0x2BA JUMPI PUSH4 0xE9C14CB8 EQ PUSH2 0x8A JUMPI PUSH1 0x0 DUP1 REVERT JUMPDEST CALLVALUE PUSH2 0x2B5 JUMPI PUSH1 0x60 CALLDATASIZE PUSH1 0x3 NOT ADD SLT PUSH2 0x2B5 JUMPI PUSH1 0x4 CALLDATALOAD PUSH1 0x1 PUSH1 0x1 PUSH1 0x40 SHL SUB DUP2 GT PUSH2 0x2B5 JUMPI PUSH2 0xBA SWAP1 CALLDATASIZE SWAP1 PUSH1 0x4 ADD PUSH2 0x145E JUMP JUMPDEST PUSH1 0x24 CALLDATALOAD PUSH1 0x1 PUSH1 0x1 PUSH1 0x40 SHL SUB DUP2 GT PUSH2 0x2B5 JUMPI PUSH2 0xD9 SWAP1 CALLDATASIZE SWAP1 PUSH1 0x4 ADD PUSH2 0x145E JUMP JUMPDEST PUSH1 0x44 CALLDATALOAD PUSH1 0x1 PUSH1 0x1 PUSH1 0x40 SHL SUB DUP2 GT PUSH2 0x2B5 JUMPI PUSH1 0x20 PUSH2 0xFD PUSH2 0x111 SWAP3 CALLDATASIZE SWAP1 PUSH1 0x4 ADD PUSH2 0x1611 JUMP JUMPDEST SWAP4 DUP2 PUSH1 0x40 MLOAD SWAP4 DUP3 DUP6 DUP1 SWAP5 MLOAD SWAP4 DUP5 SWAP3 ADD PUSH2 0x14B4 JUMP JUMPDEST DUP2 ADD PUSH1 0x2 DUP2 MSTORE SUB ADD SWAP1 KECCAK256 SWAP1 PUSH1 0x40 MLOAD PUSH2 0x14A PUSH1 0x20 DUP3 DUP2 PUSH2 0x139 DUP2 DUP4 ADD SWAP7 DUP8 DUP2 MLOAD SWAP4 DUP5 SWAP3 ADD PUSH2 0x14B4 JUMP JUMPDEST DUP2 ADD SUB ADD PUSH1 0x1F NOT DUP2 ADD DUP4 MSTORE DUP3 PUSH2 0x143D JUMP JUMPDEST MLOAD SWAP1 KECCAK256 SWAP1 PUSH1 0x0 JUMPDEST DUP2 SLOAD DUP2 LT ISZERO PUSH2 0x2B3 JUMPI DUP3 PUSH1 0x2 PUSH2 0x181 PUSH2 0x18F PUSH2 0x16D DUP6 DUP8 PUSH2 0x17A0 JUMP JUMPDEST POP PUSH1 0x40 MLOAD SWAP3 DUP4 SWAP2 PUSH1 0x20 DUP4 ADD SWAP6 DUP7 SWAP2 ADD PUSH2 0x19AC JUMP JUMPDEST SUB PUSH1 0x1F NOT DUP2 ADD DUP4 MSTORE DUP3 PUSH2 0x143D JUMP JUMPDEST MLOAD SWAP1 KECCAK256 EQ PUSH2 0x1A0 JUMPI JUMPDEST PUSH1 0x1 ADD PUSH2 0x151 JUMP JUMPDEST PUSH2 0x1AA DUP2 DUP4 PUSH2 0x17A0 JUMP JUMPDEST POP DUP1 SLOAD PUSH1 0xFF NOT AND PUSH1 0x1 OR SWAP1 SSTORE PUSH1 0x4 PUSH2 0x1C2 DUP3 DUP5 PUSH2 0x17A0 JUMP JUMPDEST POP ADD DUP5 MLOAD SWAP1 PUSH1 0x1 PUSH1 0x40 SHL DUP3 GT PUSH2 0x29D JUMPI DUP1 SLOAD DUP3 DUP3 SSTORE DUP1 DUP4 LT PUSH2 0x21F JUMPI JUMPDEST POP PUSH1 0x20 DUP7 ADD SWAP1 PUSH1 0x0 MSTORE PUSH1 0x20 PUSH1 0x0 KECCAK256 SWAP1 PUSH1 0x0 SWAP1 JUMPDEST DUP4 DUP3 LT PUSH2 0x202 JUMPI POP POP POP POP PUSH2 0x198 JUMP JUMPDEST PUSH1 0x1 PUSH1 0x20 DUP3 PUSH2 0x213 DUP4 SWAP5 MLOAD DUP8 PUSH2 0x1803 JUMP JUMPDEST ADD SWAP4 ADD SWAP2 ADD SWAP1 SWAP2 PUSH2 0x1F2 JUMP JUMPDEST DUP2 PUSH1 0x0 MSTORE DUP3 PUSH1 0x20 PUSH1 0x0 KECCAK256 SWAP2 DUP3 ADD SWAP2 ADD JUMPDEST DUP2 DUP2 LT PUSH2 0x23C JUMPI POP PUSH2 0x1DF JUMP JUMPDEST DUP1 PUSH2 0x249 PUSH1 0x1 SWAP3 SLOAD PUSH2 0x14D7 JUMP JUMPDEST DUP1 PUSH2 0x256 JUMPI JUMPDEST POP ADD PUSH2 0x22F JUMP JUMPDEST PUSH1 0x1F DUP2 GT DUP4 EQ PUSH2 0x26C JUMPI POP PUSH1 0x0 DUP2 SSTORE JUMPDEST CODESIZE PUSH2 0x24F JUMP JUMPDEST PUSH2 0x28A SWAP1 DUP3 PUSH1 0x0 MSTORE DUP4 PUSH1 0x1F PUSH1 0x20 PUSH1 0x0 KECCAK256 SWAP3 ADD PUSH1 0x5 SHR DUP3 ADD SWAP2 ADD PUSH2 0x17EC JUMP JUMPDEST DUP1 PUSH1 0x0 MSTORE PUSH1 0x0 PUSH1 0x20 DUP2 KECCAK256 DUP2 DUP4 SSTORE SSTORE PUSH2 0x266 JUMP JUMPDEST PUSH4 0x4E487B71 PUSH1 0xE0 SHL PUSH1 0x0 MSTORE PUSH1 0x41 PUSH1 0x4 MSTORE PUSH1 0x24 PUSH1 0x0 REVERT JUMPDEST STOP JUMPDEST PUSH1 0x0 DUP1 REVERT JUMPDEST CALLVALUE PUSH2 0x2B5 JUMPI PUSH2 0x2C8 CALLDATASIZE PUSH2 0x168F JUMP JUMPDEST SWAP5 SWAP2 SWAP1 SWAP3 SWAP4 PUSH2 0x31B PUSH1 0x20 PUSH1 0x40 MLOAD SWAP5 PUSH2 0x2DF DUP7 PUSH2 0x1406 JUMP JUMPDEST PUSH1 0x0 DUP7 MSTORE DUP2 DUP7 ADD SWAP4 DUP5 MSTORE PUSH1 0x40 DUP7 ADD SWAP8 DUP9 MSTORE PUSH1 0xFF PUSH1 0x60 DUP8 ADD SWAP6 AND DUP6 MSTORE PUSH1 0x80 DUP7 ADD SWAP7 DUP8 MSTORE PUSH1 0xA0 DUP7 ADD SWAP9 DUP10 MSTORE DUP2 PUSH1 0x40 MLOAD SWAP4 DUP3 DUP6 DUP1 SWAP5 MLOAD SWAP4 DUP5 SWAP3 ADD PUSH2 0x14B4 JUMP JUMPDEST DUP2 ADD PUSH1 0x2 DUP2 MSTORE SUB ADD SWAP1 KECCAK256 DUP1 SLOAD PUSH1 0x1 PUSH1 0x40 SHL DUP2 LT ISZERO PUSH2 0x29D JUMPI PUSH2 0x342 SWAP2 PUSH1 0x1 DUP3 ADD DUP2 SSTORE PUSH2 0x17A0 JUMP JUMPDEST SWAP6 SWAP1 SWAP6 PUSH2 0x471 JUMPI PUSH2 0x370 PUSH2 0x37A SWAP3 PUSH2 0x366 PUSH1 0xFF SWAP7 MLOAD PUSH2 0x360 DUP2 PUSH2 0x15DA JUMP JUMPDEST DUP10 PUSH2 0x1903 JUMP JUMPDEST MLOAD PUSH1 0x1 DUP9 ADD PUSH2 0x1803 JUMP JUMPDEST MLOAD PUSH1 0x2 DUP7 ADD PUSH2 0x1803 JUMP JUMPDEST MLOAD AND PUSH1 0xFF PUSH1 0x3 DUP5 ADD SWAP2 AND PUSH1 0xFF NOT DUP3 SLOAD AND OR SWAP1 SSTORE PUSH1 0x4 DUP3 ADD SWAP1 MLOAD SWAP1 DUP2 MLOAD SWAP2 PUSH1 0x1 PUSH1 0x40 SHL DUP4 GT PUSH2 0x29D JUMPI DUP2 SLOAD DUP4 DUP4 SSTORE DUP1 DUP5 LT PUSH2 0x3F3 JUMPI JUMPDEST POP PUSH1 0x20 ADD SWAP1 PUSH1 0x0 MSTORE PUSH1 0x20 PUSH1 0x0 KECCAK256 PUSH1 0x0 SWAP2 JUMPDEST DUP4 DUP4 LT PUSH2 0x3D6 JUMPI PUSH2 0x2B3 DUP6 PUSH1 0x5 DUP9 MLOAD SWAP2 ADD PUSH2 0x1803 JUMP JUMPDEST PUSH1 0x1 PUSH1 0x20 DUP3 PUSH2 0x3E7 DUP4 SWAP5 MLOAD DUP7 PUSH2 0x1803 JUMP JUMPDEST ADD SWAP3 ADD SWAP3 ADD SWAP2 SWAP1 PUSH2 0x3C0 JUMP JUMPDEST DUP3 PUSH1 0x0 MSTORE DUP4 PUSH1 0x20 PUSH1 0x0 KECCAK256 SWAP2 DUP3 ADD SWAP2 ADD JUMPDEST DUP2 DUP2 LT PUSH2 0x410 JUMPI POP PUSH2 0x3AF JUMP JUMPDEST DUP1 PUSH2 0x41D PUSH1 0x1 SWAP3 SLOAD PUSH2 0x14D7 JUMP JUMPDEST DUP1 PUSH2 0x42A JUMPI JUMPDEST POP ADD PUSH2 0x403 JUMP JUMPDEST PUSH1 0x1F DUP2 GT DUP4 EQ PUSH2 0x440 JUMPI POP PUSH1 0x0 DUP2 SSTORE JUMPDEST DUP9 PUSH2 0x423 JUMP JUMPDEST PUSH2 0x45E SWAP1 DUP3 PUSH1 0x0 MSTORE DUP4 PUSH1 0x1F PUSH1 0x20 PUSH1 0x0 KECCAK256 SWAP3 ADD PUSH1 0x5 SHR DUP3 ADD SWAP2 ADD PUSH2 0x17EC JUMP JUMPDEST DUP1 PUSH1 0x0 MSTORE PUSH1 0x0 PUSH1 0x20 DUP2 KECCAK256 DUP2 DUP4 SSTORE SSTORE PUSH2 0x43A JUMP JUMPDEST PUSH4 0x4E487B71 PUSH1 0xE0 SHL PUSH1 0x0 MSTORE PUSH1 0x0 PUSH1 0x4 MSTORE PUSH1 0x24 PUSH1 0x0 REVERT JUMPDEST CALLVALUE PUSH2 0x2B5 JUMPI PUSH1 0x20 CALLDATASIZE PUSH1 0x3 NOT ADD SLT PUSH2 0x2B5 JUMPI PUSH1 0x4 CALLDATALOAD PUSH1 0x1 PUSH1 0x1 PUSH1 0x40 SHL SUB DUP2 GT PUSH2 0x2B5 JUMPI PUSH2 0x120 PUSH2 0x51E PUSH1 0x20 PUSH2 0x4C2 PUSH2 0x66B SWAP5 CALLDATASIZE SWAP1 PUSH1 0x4 ADD PUSH2 0x145E JUMP JUMPDEST PUSH1 0x0 PUSH1 0xE0 PUSH1 0x40 MLOAD PUSH2 0x4D2 DUP2 PUSH2 0x1421 JUMP JUMPDEST PUSH1 0x60 DUP2 MSTORE PUSH1 0x60 DUP6 DUP3 ADD MSTORE PUSH1 0x60 PUSH1 0x40 DUP3 ADD MSTORE PUSH1 0x60 DUP1 DUP3 ADD MSTORE PUSH1 0x60 PUSH1 0x80 DUP3 ADD MSTORE DUP3 PUSH1 0xA0 DUP3 ADD MSTORE PUSH1 0x60 PUSH1 0xC0 DUP3 ADD MSTORE ADD MSTORE PUSH2 0x50B DUP2 MLOAD ISZERO ISZERO PUSH2 0x191B JUMP JUMPDEST DUP2 PUSH1 0x40 MLOAD SWAP4 DUP3 DUP6 DUP1 SWAP5 MLOAD SWAP4 DUP5 SWAP3 ADD PUSH2 0x14B4 JUMP JUMPDEST DUP2 ADD PUSH1 0x1 DUP2 MSTORE SUB ADD SWAP1 KECCAK256 PUSH1 0x40 MLOAD SWAP3 DUP4 SWAP2 PUSH2 0x537 DUP4 PUSH2 0x1421 JUMP JUMPDEST PUSH2 0x540 DUP2 PUSH2 0x1511 JUMP JUMPDEST DUP4 MSTORE DUP3 PUSH2 0x649 PUSH2 0x552 PUSH1 0x1 DUP5 ADD PUSH2 0x1511 JUMP JUMPDEST PUSH1 0x20 DUP4 ADD SWAP1 DUP2 MSTORE PUSH2 0x636 PUSH2 0x568 PUSH1 0x2 DUP7 ADD PUSH2 0x1954 JUMP JUMPDEST PUSH1 0x40 DUP6 ADD SWAP1 DUP2 MSTORE PUSH2 0x623 PUSH2 0x57E PUSH1 0x3 DUP9 ADD PUSH2 0x1954 JUMP JUMPDEST SWAP2 PUSH1 0x60 DUP8 ADD SWAP3 DUP4 MSTORE PUSH2 0x610 PUSH2 0x595 PUSH1 0x4 DUP11 ADD PUSH2 0x1511 JUMP JUMPDEST SWAP6 PUSH1 0x80 DUP10 ADD SWAP7 DUP8 MSTORE PUSH1 0xE0 PUSH1 0xFF PUSH1 0x5 DUP13 ADD SLOAD AND SWAP11 PUSH1 0xA0 DUP12 ADD SWAP12 PUSH2 0x5B6 DUP2 PUSH2 0x15DA JUMP JUMPDEST DUP13 MSTORE PUSH1 0xC0 PUSH2 0x5C6 PUSH1 0x6 DUP4 ADD PUSH2 0x1511 JUMP JUMPDEST SWAP12 ADD SWAP11 DUP12 MSTORE PUSH1 0x7 PUSH1 0x1 DUP1 PUSH1 0xA0 SHL SUB SWAP2 ADD SLOAD AND SWAP13 ADD SWAP12 DUP13 MSTORE PUSH2 0x5FD PUSH1 0x40 MLOAD SWAP15 DUP16 SWAP15 DUP16 SWAP2 PUSH1 0x20 DUP4 MSTORE MLOAD SWAP2 PUSH2 0x100 PUSH1 0x20 DUP3 ADD MSTORE ADD SWAP1 PUSH2 0x15B5 JUMP JUMPDEST SWAP1 MLOAD DUP14 DUP3 SUB PUSH1 0x1F NOT ADD PUSH1 0x40 DUP16 ADD MSTORE PUSH2 0x15B5 JUMP JUMPDEST SWAP1 MLOAD DUP12 DUP3 SUB PUSH1 0x1F NOT ADD PUSH1 0x60 DUP14 ADD MSTORE PUSH2 0x1747 JUMP JUMPDEST SWAP1 MLOAD DUP10 DUP3 SUB PUSH1 0x1F NOT ADD PUSH1 0x80 DUP12 ADD MSTORE PUSH2 0x1747 JUMP JUMPDEST SWAP1 MLOAD DUP8 DUP3 SUB PUSH1 0x1F NOT ADD PUSH1 0xA0 DUP10 ADD MSTORE PUSH2 0x15B5 JUMP JUMPDEST SWAP2 MLOAD PUSH2 0x654 DUP2 PUSH2 0x15DA JUMP JUMPDEST PUSH1 0xC0 DUP7 ADD MSTORE MLOAD DUP5 DUP3 SUB PUSH1 0x1F NOT ADD PUSH1 0xE0 DUP7 ADD MSTORE PUSH2 0x15B5 JUMP JUMPDEST SWAP1 MLOAD PUSH1 0x1 PUSH1 0x1 PUSH1 0xA0 SHL SUB AND PUSH2 0x100 DUP4 ADD MSTORE SUB SWAP1 RETURN JUMPDEST CALLVALUE PUSH2 0x2B5 JUMPI PUSH1 0x40 CALLDATASIZE PUSH1 0x3 NOT ADD SLT PUSH2 0x2B5 JUMPI PUSH1 0x4 CALLDATALOAD PUSH1 0x1 PUSH1 0x1 PUSH1 0x40 SHL SUB DUP2 GT PUSH2 0x2B5 JUMPI PUSH2 0x6B0 SWAP1 CALLDATASIZE SWAP1 PUSH1 0x4 ADD PUSH2 0x145E JUMP JUMPDEST PUSH2 0x6CC PUSH1 0x20 PUSH1 0x24 CALLDATALOAD SWAP3 DUP2 PUSH1 0x40 MLOAD SWAP4 DUP3 DUP6 DUP1 SWAP5 MLOAD SWAP4 DUP5 SWAP3 ADD PUSH2 0x14B4 JUMP JUMPDEST DUP2 ADD PUSH1 0x2 DUP2 MSTORE SUB ADD SWAP1 KECCAK256 SWAP1 DUP2 SLOAD DUP2 LT ISZERO PUSH2 0x2B5 JUMPI PUSH2 0x6E9 SWAP2 PUSH2 0x17A0 JUMP JUMPDEST POP PUSH1 0xFF DUP2 SLOAD AND PUSH2 0x769 PUSH2 0x6FE PUSH1 0x1 DUP5 ADD PUSH2 0x1511 JUMP JUMPDEST SWAP3 PUSH2 0x70B PUSH1 0x2 DUP3 ADD PUSH2 0x1511 JUMP JUMPDEST PUSH2 0x756 PUSH2 0x722 PUSH1 0x5 PUSH1 0xFF PUSH1 0x3 DUP7 ADD SLOAD AND SWAP5 ADD PUSH2 0x1511 JUMP JUMPDEST SWAP2 PUSH2 0x748 PUSH1 0x40 MLOAD SWAP8 DUP8 PUSH2 0x735 DUP11 SWAP10 PUSH2 0x15DA JUMP JUMPDEST DUP9 MSTORE PUSH1 0xA0 PUSH1 0x20 DUP10 ADD MSTORE PUSH1 0xA0 DUP9 ADD SWAP1 PUSH2 0x15B5 JUMP JUMPDEST SWAP1 DUP7 DUP3 SUB PUSH1 0x40 DUP9 ADD MSTORE PUSH2 0x15B5 JUMP JUMPDEST SWAP2 PUSH1 0x60 DUP6 ADD MSTORE DUP4 DUP3 SUB PUSH1 0x80 DUP6 ADD MSTORE PUSH2 0x15B5 JUMP JUMPDEST SUB SWAP1 RETURN JUMPDEST CALLVALUE PUSH2 0x2B5 JUMPI PUSH2 0x120 CALLDATASIZE PUSH1 0x3 NOT ADD SLT PUSH2 0x2B5 JUMPI PUSH1 0x4 CALLDATALOAD PUSH1 0x1 PUSH1 0x1 PUSH1 0x40 SHL SUB DUP2 GT PUSH2 0x2B5 JUMPI PUSH2 0x79E SWAP1 CALLDATASIZE SWAP1 PUSH1 0x4 ADD PUSH2 0x145E JUMP JUMPDEST PUSH1 0x24 CALLDATALOAD PUSH1 0x1 PUSH1 0x1 PUSH1 0x40 SHL SUB DUP2 GT PUSH2 0x2B5 JUMPI PUSH2 0x7BD SWAP1 CALLDATASIZE SWAP1 PUSH1 0x4 ADD PUSH2 0x145E JUMP JUMPDEST PUSH1 0x44 CALLDATALOAD PUSH1 0x1 PUSH1 0x1 PUSH1 0x40 SHL SUB DUP2 GT PUSH2 0x2B5 JUMPI PUSH2 0x7DC SWAP1 CALLDATASIZE SWAP1 PUSH1 0x4 ADD PUSH2 0x145E JUMP JUMPDEST SWAP2 PUSH1 0x64 CALLDATALOAD PUSH1 0x1 PUSH1 0x1 PUSH1 0x40 SHL SUB DUP2 GT PUSH2 0x2B5 JUMPI PUSH2 0x7FC SWAP1 CALLDATASIZE SWAP1 PUSH1 0x4 ADD PUSH2 0x1611 JUMP JUMPDEST PUSH1 0x84 CALLDATALOAD PUSH1 0x1 PUSH1 0x1 PUSH1 0x40 SHL SUB DUP2 GT PUSH2 0x2B5 JUMPI PUSH2 0x81B SWAP1 CALLDATASIZE SWAP1 PUSH1 0x4 ADD PUSH2 0x1611 JUMP JUMPDEST PUSH1 0xA4 CALLDATALOAD PUSH1 0x1 PUSH1 0x1 PUSH1 0x40 SHL SUB DUP2 GT PUSH2 0x2B5 JUMPI PUSH2 0x83A SWAP1 CALLDATASIZE SWAP1 PUSH1 0x4 ADD PUSH2 0x145E JUMP JUMPDEST SWAP1 PUSH1 0xC4 CALLDATALOAD SWAP3 PUSH1 0x2 DUP5 LT ISZERO PUSH2 0x2B5 JUMPI PUSH1 0xE4 CALLDATALOAD PUSH1 0x1 PUSH1 0x1 PUSH1 0x40 SHL SUB DUP2 GT PUSH2 0x2B5 JUMPI PUSH2 0x867 SWAP1 CALLDATASIZE SWAP1 PUSH1 0x4 ADD PUSH2 0x145E JUMP JUMPDEST SWAP5 PUSH2 0x104 CALLDATALOAD SWAP8 PUSH1 0x1 DUP1 PUSH1 0xA0 SHL SUB DUP10 AND DUP1 SWAP10 SUB PUSH2 0x2B5 JUMPI DUP2 MLOAD ISZERO PUSH2 0xB53 JUMPI DUP1 MLOAD ISZERO PUSH2 0xB1A JUMPI PUSH2 0x366 PUSH2 0x8F2 PUSH1 0x20 PUSH2 0x904 SWAP5 PUSH1 0x40 MLOAD SWAP12 PUSH2 0x8A4 DUP14 PUSH2 0x1421 JUMP JUMPDEST DUP13 MSTORE DUP2 DUP13 ADD SWAP5 DUP6 MSTORE PUSH1 0x40 DUP13 ADD SWAP7 DUP8 MSTORE PUSH1 0x60 DUP13 ADD SWAP8 DUP9 MSTORE PUSH1 0x80 DUP13 ADD SWAP9 DUP10 MSTORE PUSH1 0xA0 DUP13 ADD SWAP10 PUSH2 0x8CF DUP2 PUSH2 0x15DA JUMP JUMPDEST DUP11 MSTORE PUSH1 0xC0 DUP13 ADD SWAP11 DUP12 MSTORE PUSH1 0xE0 DUP13 ADD SWAP13 DUP14 MSTORE DUP2 PUSH1 0x40 MLOAD SWAP4 DUP3 DUP6 DUP1 SWAP5 MLOAD SWAP4 DUP5 SWAP3 ADD PUSH2 0x14B4 JUMP JUMPDEST DUP2 ADD PUSH1 0x1 DUP2 MSTORE SUB ADD SWAP1 KECCAK256 SWAP9 MLOAD DUP10 PUSH2 0x1803 JUMP JUMPDEST MLOAD DUP1 MLOAD SWAP1 PUSH1 0x2 DUP8 ADD SWAP1 PUSH1 0x1 PUSH1 0x40 SHL DUP4 GT PUSH2 0x29D JUMPI DUP2 SLOAD DUP4 DUP4 SSTORE DUP1 DUP5 LT PUSH2 0xA9C JUMPI JUMPDEST POP PUSH1 0x20 ADD SWAP1 PUSH1 0x0 MSTORE PUSH1 0x20 PUSH1 0x0 KECCAK256 PUSH1 0x0 SWAP2 JUMPDEST DUP4 DUP4 LT PUSH2 0xA7F JUMPI POP POP POP POP PUSH1 0x3 DUP6 ADD SWAP1 MLOAD SWAP1 DUP2 MLOAD SWAP2 PUSH1 0x1 PUSH1 0x40 SHL DUP4 GT PUSH2 0x29D JUMPI DUP2 SLOAD DUP4 DUP4 SSTORE DUP1 DUP5 LT PUSH2 0xA01 JUMPI JUMPDEST POP PUSH1 0x20 ADD SWAP1 PUSH1 0x0 MSTORE PUSH1 0x20 PUSH1 0x0 KECCAK256 PUSH1 0x0 SWAP2 JUMPDEST DUP4 DUP4 LT PUSH2 0x9E4 JUMPI DUP9 PUSH1 0x7 DUP10 PUSH2 0x9C0 DUP11 DUP11 PUSH2 0x992 DUP12 MLOAD PUSH1 0x4 DUP7 ADD PUSH2 0x1803 JUMP JUMPDEST PUSH1 0x5 DUP5 ADD SWAP1 MLOAD PUSH2 0x9A1 DUP2 PUSH2 0x15DA JUMP JUMPDEST PUSH2 0x9AA DUP2 PUSH2 0x15DA JUMP JUMPDEST PUSH1 0xFF DUP1 NOT DUP4 SLOAD AND SWAP2 AND OR SWAP1 SSTORE MLOAD PUSH1 0x6 DUP4 ADD PUSH2 0x1803 JUMP JUMPDEST SWAP2 MLOAD SWAP2 ADD DUP1 SLOAD PUSH1 0x1 PUSH1 0x1 PUSH1 0xA0 SHL SUB NOT AND PUSH1 0x1 PUSH1 0x1 PUSH1 0xA0 SHL SUB SWAP3 SWAP1 SWAP3 AND SWAP2 SWAP1 SWAP2 OR SWAP1 SSTORE STOP JUMPDEST PUSH1 0x1 PUSH1 0x20 DUP3 PUSH2 0x9F5 DUP4 SWAP5 MLOAD DUP7 PUSH2 0x1803 JUMP JUMPDEST ADD SWAP3 ADD SWAP3 ADD SWAP2 SWAP1 PUSH2 0x974 JUMP JUMPDEST DUP3 PUSH1 0x0 MSTORE DUP4 PUSH1 0x20 PUSH1 0x0 KECCAK256 SWAP2 DUP3 ADD SWAP2 ADD JUMPDEST DUP2 DUP2 LT PUSH2 0xA1E JUMPI POP PUSH2 0x963 JUMP JUMPDEST DUP1 PUSH2 0xA2B PUSH1 0x1 SWAP3 SLOAD PUSH2 0x14D7 JUMP JUMPDEST DUP1 PUSH2 0xA38 JUMPI JUMPDEST POP ADD PUSH2 0xA11 JUMP JUMPDEST PUSH1 0x1F DUP2 GT DUP4 EQ PUSH2 0xA4E JUMPI POP PUSH1 0x0 DUP2 SSTORE JUMPDEST DUP12 PUSH2 0xA31 JUMP JUMPDEST PUSH2 0xA6C SWAP1 DUP3 PUSH1 0x0 MSTORE DUP4 PUSH1 0x1F PUSH1 0x20 PUSH1 0x0 KECCAK256 SWAP3 ADD PUSH1 0x5 SHR DUP3 ADD SWAP2 ADD PUSH2 0x17EC JUMP JUMPDEST DUP1 PUSH1 0x0 MSTORE PUSH1 0x0 PUSH1 0x20 DUP2 KECCAK256 DUP2 DUP4 SSTORE SSTORE PUSH2 0xA48 JUMP JUMPDEST PUSH1 0x1 PUSH1 0x20 DUP3 PUSH2 0xA90 DUP4 SWAP5 MLOAD DUP7 PUSH2 0x1803 JUMP JUMPDEST ADD SWAP3 ADD SWAP3 ADD SWAP2 SWAP1 PUSH2 0x936 JUMP JUMPDEST DUP3 PUSH1 0x0 MSTORE DUP4 PUSH1 0x20 PUSH1 0x0 KECCAK256 SWAP2 DUP3 ADD SWAP2 ADD JUMPDEST DUP2 DUP2 LT PUSH2 0xAB9 JUMPI POP PUSH2 0x925 JUMP JUMPDEST DUP1 PUSH2 0xAC6 PUSH1 0x1 SWAP3 SLOAD PUSH2 0x14D7 JUMP JUMPDEST DUP1 PUSH2 0xAD3 JUMPI JUMPDEST POP ADD PUSH2 0xAAC JUMP JUMPDEST PUSH1 0x1F DUP2 GT DUP4 EQ PUSH2 0xAE9 JUMPI POP PUSH1 0x0 DUP2 SSTORE JUMPDEST DUP13 PUSH2 0xACC JUMP JUMPDEST PUSH2 0xB07 SWAP1 DUP3 PUSH1 0x0 MSTORE DUP4 PUSH1 0x1F PUSH1 0x20 PUSH1 0x0 KECCAK256 SWAP3 ADD PUSH1 0x5 SHR DUP3 ADD SWAP2 ADD PUSH2 0x17EC JUMP JUMPDEST DUP1 PUSH1 0x0 MSTORE PUSH1 0x0 PUSH1 0x20 DUP2 KECCAK256 DUP2 DUP4 SSTORE SSTORE PUSH2 0xAE3 JUMP JUMPDEST PUSH1 0x40 MLOAD PUSH3 0x461BCD PUSH1 0xE5 SHL DUP2 MSTORE PUSH1 0x20 PUSH1 0x4 DUP3 ADD MSTORE PUSH1 0x11 PUSH1 0x24 DUP3 ADD MSTORE PUSH17 0x496E76616C6964204F626174204E616D65 PUSH1 0x78 SHL PUSH1 0x44 DUP3 ADD MSTORE PUSH1 0x64 SWAP1 REVERT JUMPDEST PUSH1 0x40 MLOAD PUSH3 0x461BCD PUSH1 0xE5 SHL DUP2 MSTORE PUSH1 0x20 PUSH1 0x4 DUP3 ADD MSTORE PUSH1 0xF PUSH1 0x24 DUP3 ADD MSTORE PUSH15 0x125B9D985B1A590813D8985D081251 PUSH1 0x8A SHL PUSH1 0x44 DUP3 ADD MSTORE PUSH1 0x64 SWAP1 REVERT JUMPDEST CALLVALUE PUSH2 0x2B5 JUMPI PUSH1 0x0 CALLDATASIZE PUSH1 0x3 NOT ADD SLT PUSH2 0x2B5 JUMPI PUSH1 0x0 DUP1 SLOAD DUP2 JUMPDEST DUP2 DUP2 LT PUSH2 0xE48 JUMPI POP PUSH2 0xBB2 DUP3 PUSH2 0x15FA JUMP JUMPDEST SWAP2 PUSH2 0xBC0 PUSH1 0x40 MLOAD SWAP4 DUP5 PUSH2 0x143D JUMP JUMPDEST DUP1 DUP4 MSTORE PUSH2 0xBCF PUSH1 0x1F NOT SWAP2 PUSH2 0x15FA JUMP JUMPDEST ADD PUSH1 0x0 JUMPDEST DUP2 DUP2 LT PUSH2 0xE07 JUMPI POP POP PUSH1 0x0 DUP1 JUMPDEST DUP3 DUP2 LT PUSH2 0xCB9 JUMPI DUP4 PUSH1 0x40 MLOAD DUP1 SWAP2 PUSH1 0x20 DUP3 ADD PUSH1 0x20 DUP4 MSTORE DUP2 MLOAD DUP1 SWAP2 MSTORE PUSH1 0x40 DUP4 ADD SWAP1 PUSH1 0x20 PUSH1 0x40 DUP3 PUSH1 0x5 SHL DUP7 ADD ADD SWAP4 ADD SWAP2 PUSH1 0x0 SWAP1 JUMPDEST DUP3 DUP3 LT PUSH2 0xC20 JUMPI POP POP POP POP SUB SWAP1 RETURN JUMPDEST SWAP2 SWAP4 PUSH1 0x1 SWAP2 SWAP4 SWAP6 POP PUSH1 0x20 PUSH2 0xCA9 DUP2 SWAP3 PUSH1 0x3F NOT DUP11 DUP3 SUB ADD DUP7 MSTORE DUP9 MLOAD SWAP1 PUSH1 0xA0 PUSH2 0xC78 PUSH2 0xC66 PUSH2 0xC56 DUP6 MLOAD PUSH1 0xC0 DUP7 MSTORE PUSH1 0xC0 DUP7 ADD SWAP1 PUSH2 0x15B5 JUMP JUMPDEST DUP8 DUP7 ADD MLOAD DUP6 DUP3 SUB DUP10 DUP8 ADD MSTORE PUSH2 0x15B5 JUMP JUMPDEST PUSH1 0x40 DUP6 ADD MLOAD DUP5 DUP3 SUB PUSH1 0x40 DUP7 ADD MSTORE PUSH2 0x15B5 JUMP JUMPDEST SWAP3 PUSH1 0xFF PUSH1 0x60 DUP3 ADD MLOAD AND PUSH1 0x60 DUP5 ADD MSTORE PUSH1 0x80 DUP2 ADD MLOAD PUSH2 0xC94 DUP2 PUSH2 0x15DA JUMP JUMPDEST PUSH1 0x80 DUP5 ADD MSTORE ADD MLOAD SWAP1 PUSH1 0xA0 DUP2 DUP5 SUB SWAP2 ADD MSTORE PUSH2 0x15B5 JUMP JUMPDEST SWAP7 ADD SWAP3 ADD SWAP3 ADD DUP6 SWAP5 SWAP4 SWAP2 SWAP3 PUSH2 0xC11 JUMP JUMPDEST PUSH1 0xFF PUSH2 0xCD6 PUSH1 0x20 PUSH2 0xCC9 DUP5 PUSH2 0x17D2 JUMP JUMPDEST POP PUSH1 0x40 MLOAD SWAP3 DUP4 DUP1 SWAP3 PUSH2 0x19AC JUMP JUMPDEST PUSH1 0x3 DUP2 MSTORE SUB ADD SWAP1 KECCAK256 SLOAD AND PUSH2 0xCE9 DUP2 PUSH2 0x15DA JUMP JUMPDEST ISZERO PUSH2 0xCF7 JUMPI JUMPDEST PUSH1 0x1 ADD PUSH2 0xBE0 JUMP JUMPDEST SWAP1 PUSH2 0xDFF PUSH1 0x1 SWAP2 PUSH2 0xD0C PUSH1 0x20 PUSH2 0xCC9 DUP7 PUSH2 0x17D2 JUMP JUMPDEST PUSH1 0x3 DUP2 MSTORE SUB ADD SWAP1 KECCAK256 PUSH1 0x40 MLOAD PUSH2 0xD20 DUP2 PUSH2 0x13EB JUMP JUMPDEST PUSH1 0xFF DUP3 SLOAD AND PUSH2 0xD2E DUP2 PUSH2 0x15DA JUMP JUMPDEST DUP2 MSTORE PUSH2 0xD3B DUP6 DUP4 ADD PUSH2 0x1511 JUMP JUMPDEST SWAP2 PUSH1 0x20 DUP3 ADD SWAP3 DUP4 MSTORE PUSH2 0xD4F PUSH1 0x2 DUP3 ADD PUSH2 0x1511 JUMP JUMPDEST SWAP2 PUSH1 0x40 DUP2 ADD SWAP3 DUP4 MSTORE PUSH1 0xFF PUSH1 0x3 DUP4 ADD SLOAD AND PUSH1 0x60 DUP3 ADD SWAP1 DUP2 MSTORE PUSH2 0xD72 PUSH1 0x4 DUP5 ADD PUSH2 0x1954 JUMP JUMPDEST PUSH1 0x80 DUP4 ADD MSTORE PUSH1 0xFF PUSH2 0xD98 PUSH1 0x6 PUSH2 0xD8A PUSH1 0x5 DUP8 ADD PUSH2 0x1511 JUMP JUMPDEST SWAP6 PUSH1 0xA0 DUP7 ADD SWAP7 DUP8 MSTORE ADD PUSH2 0x1511 JUMP JUMPDEST SWAP6 DUP7 PUSH1 0xC0 DUP6 ADD MSTORE MLOAD SWAP5 MLOAD SWAP2 MLOAD AND SWAP2 MLOAD SWAP3 PUSH2 0xDB1 DUP5 PUSH2 0x15DA JUMP JUMPDEST MLOAD SWAP4 PUSH1 0x40 MLOAD SWAP6 PUSH2 0xDC0 DUP8 PUSH2 0x1406 JUMP JUMPDEST DUP7 MSTORE PUSH1 0x20 DUP7 ADD MSTORE PUSH1 0x40 DUP6 ADD MSTORE PUSH1 0x60 DUP5 ADD MSTORE PUSH2 0xDDA DUP2 PUSH2 0x15DA JUMP JUMPDEST PUSH1 0x80 DUP4 ADD MSTORE PUSH1 0xA0 DUP3 ADD MSTORE PUSH2 0xDEE DUP3 DUP9 PUSH2 0x1A3F JUMP JUMPDEST MSTORE PUSH2 0xDF9 DUP2 DUP8 PUSH2 0x1A3F JUMP JUMPDEST POP PUSH2 0x1A1A JUMP JUMPDEST SWAP2 SWAP1 POP PUSH2 0xCEF JUMP JUMPDEST PUSH1 0x20 SWAP1 PUSH1 0x40 MLOAD PUSH2 0xE16 DUP2 PUSH2 0x1406 JUMP JUMPDEST PUSH1 0x60 DUP2 MSTORE PUSH1 0x60 DUP4 DUP3 ADD MSTORE PUSH1 0x60 PUSH1 0x40 DUP3 ADD MSTORE PUSH1 0x0 PUSH1 0x60 DUP3 ADD MSTORE PUSH1 0x0 PUSH1 0x80 DUP3 ADD MSTORE PUSH1 0x60 PUSH1 0xA0 DUP3 ADD MSTORE DUP3 DUP3 DUP8 ADD ADD MSTORE ADD PUSH2 0xBD3 JUMP JUMPDEST PUSH1 0xFF PUSH2 0xE58 PUSH1 0x20 PUSH2 0xCC9 DUP5 PUSH2 0x17D2 JUMP JUMPDEST PUSH1 0x3 DUP2 MSTORE SUB ADD SWAP1 KECCAK256 SLOAD AND PUSH2 0xE6B DUP2 PUSH2 0x15DA JUMP JUMPDEST ISZERO PUSH2 0xE79 JUMPI JUMPDEST PUSH1 0x1 ADD PUSH2 0xBA1 JUMP JUMPDEST SWAP2 PUSH2 0xE85 PUSH1 0x1 SWAP2 PUSH2 0x1A1A JUMP JUMPDEST SWAP3 SWAP1 POP PUSH2 0xE71 JUMP JUMPDEST CALLVALUE PUSH2 0x2B5 JUMPI PUSH1 0x20 CALLDATASIZE PUSH1 0x3 NOT ADD SLT PUSH2 0x2B5 JUMPI PUSH1 0x4 CALLDATALOAD PUSH1 0x1 PUSH1 0x1 PUSH1 0x40 SHL SUB DUP2 GT PUSH2 0x2B5 JUMPI PUSH1 0x20 PUSH2 0xEC2 PUSH2 0xECE SWAP3 CALLDATASIZE SWAP1 PUSH1 0x4 ADD PUSH2 0x145E JUMP JUMPDEST PUSH2 0x50B DUP2 MLOAD ISZERO ISZERO PUSH2 0x191B JUMP JUMPDEST DUP2 ADD PUSH1 0x2 DUP2 MSTORE SUB ADD SWAP1 KECCAK256 DUP1 SLOAD SWAP1 PUSH2 0xEE4 DUP3 PUSH2 0x15FA JUMP JUMPDEST SWAP2 PUSH2 0xEF2 PUSH1 0x40 MLOAD SWAP4 DUP5 PUSH2 0x143D JUMP JUMPDEST DUP1 DUP4 MSTORE PUSH1 0x20 DUP4 ADD DUP1 SWAP3 PUSH1 0x0 MSTORE PUSH1 0x20 PUSH1 0x0 KECCAK256 PUSH1 0x0 SWAP2 JUMPDEST DUP4 DUP4 LT PUSH2 0xFDF JUMPI DUP5 DUP7 PUSH1 0x40 MLOAD SWAP2 DUP3 SWAP2 PUSH1 0x20 DUP4 ADD SWAP1 PUSH1 0x20 DUP5 MSTORE MLOAD DUP1 SWAP2 MSTORE PUSH1 0x40 DUP4 ADD SWAP1 PUSH1 0x40 DUP2 PUSH1 0x5 SHL DUP6 ADD ADD SWAP3 SWAP2 PUSH1 0x0 SWAP1 JUMPDEST DUP3 DUP3 LT PUSH2 0xF46 JUMPI POP POP POP POP SUB SWAP1 RETURN JUMPDEST SWAP2 SWAP4 PUSH1 0x1 SWAP2 SWAP4 SWAP6 POP PUSH1 0x20 PUSH2 0xFCF DUP2 SWAP3 PUSH1 0x3F NOT DUP11 DUP3 SUB ADD DUP7 MSTORE DUP9 MLOAD SWAP1 DUP2 MLOAD PUSH2 0xF6C DUP2 PUSH2 0x15DA JUMP JUMPDEST DUP2 MSTORE PUSH1 0xA0 PUSH2 0xFBE PUSH2 0xF9F PUSH2 0xF8D DUP8 DUP7 ADD MLOAD PUSH1 0xC0 DUP10 DUP8 ADD MSTORE PUSH1 0xC0 DUP7 ADD SWAP1 PUSH2 0x15B5 JUMP JUMPDEST PUSH1 0x40 DUP7 ADD MLOAD DUP6 DUP3 SUB PUSH1 0x40 DUP8 ADD MSTORE PUSH2 0x15B5 JUMP JUMPDEST PUSH1 0xFF PUSH1 0x60 DUP7 ADD MLOAD AND PUSH1 0x60 DUP6 ADD MSTORE PUSH1 0x80 DUP6 ADD MLOAD DUP5 DUP3 SUB PUSH1 0x80 DUP7 ADD MSTORE PUSH2 0x1747 JUMP JUMPDEST SWAP3 ADD MLOAD SWAP1 PUSH1 0xA0 DUP2 DUP5 SUB SWAP2 ADD MSTORE PUSH2 0x15B5 JUMP JUMPDEST SWAP7 ADD SWAP3 ADD SWAP3 ADD DUP6 SWAP5 SWAP4 SWAP2 SWAP3 PUSH2 0xF37 JUMP JUMPDEST PUSH1 0x6 PUSH1 0x20 PUSH1 0x1 SWAP3 PUSH1 0x40 MLOAD PUSH2 0xFF2 DUP2 PUSH2 0x1406 JUMP JUMPDEST PUSH1 0xFF DUP7 SLOAD AND PUSH2 0x1000 DUP2 PUSH2 0x15DA JUMP JUMPDEST DUP2 MSTORE PUSH2 0x100D DUP6 DUP8 ADD PUSH2 0x1511 JUMP JUMPDEST DUP4 DUP3 ADD MSTORE PUSH2 0x101D PUSH1 0x2 DUP8 ADD PUSH2 0x1511 JUMP JUMPDEST PUSH1 0x40 DUP3 ADD MSTORE PUSH1 0xFF PUSH1 0x3 DUP8 ADD SLOAD AND PUSH1 0x60 DUP3 ADD MSTORE PUSH2 0x103B PUSH1 0x4 DUP8 ADD PUSH2 0x1954 JUMP JUMPDEST PUSH1 0x80 DUP3 ADD MSTORE PUSH2 0x104C PUSH1 0x5 DUP8 ADD PUSH2 0x1511 JUMP JUMPDEST PUSH1 0xA0 DUP3 ADD MSTORE DUP2 MSTORE ADD SWAP3 ADD SWAP3 ADD SWAP2 SWAP1 PUSH2 0xF07 JUMP JUMPDEST CALLVALUE PUSH2 0x2B5 JUMPI PUSH2 0x106D CALLDATASIZE PUSH2 0x168F JUMP JUMPDEST SWAP3 SWAP4 SWAP1 SWAP2 PUSH1 0x40 MLOAD SWAP5 PUSH2 0x107E DUP7 PUSH2 0x13EB JUMP JUMPDEST PUSH1 0x0 DUP7 MSTORE PUSH1 0x20 DUP7 ADD SWAP3 DUP4 MSTORE PUSH1 0x40 DUP7 ADD DUP2 DUP2 MSTORE PUSH1 0xFF PUSH1 0x60 DUP9 ADD SWAP4 AND DUP4 MSTORE PUSH1 0x80 DUP8 ADD SWAP5 DUP6 MSTORE PUSH1 0xA0 DUP8 ADD SWAP6 DUP7 MSTORE PUSH1 0xC0 DUP8 ADD SWAP8 DUP9 MSTORE PUSH1 0x0 SLOAD PUSH1 0x1 PUSH1 0x40 SHL DUP2 LT ISZERO PUSH2 0x29D JUMPI DUP1 PUSH1 0x1 PUSH2 0x10CE SWAP3 ADD PUSH1 0x0 SSTORE PUSH2 0x17D2 JUMP JUMPDEST SWAP3 SWAP1 SWAP3 PUSH2 0x471 JUMPI PUSH1 0xFF SWAP5 PUSH2 0x110C PUSH2 0x10F1 PUSH1 0x20 DUP5 PUSH2 0x50B PUSH2 0x1116 SWAP7 PUSH2 0x1120 SWAP10 PUSH2 0x1803 JUMP JUMPDEST DUP2 ADD PUSH1 0x3 DUP2 MSTORE SUB ADD SWAP1 KECCAK256 SWAP10 MLOAD PUSH2 0x1106 DUP2 PUSH2 0x15DA JUMP JUMPDEST DUP11 PUSH2 0x1903 JUMP JUMPDEST MLOAD PUSH1 0x1 DUP10 ADD PUSH2 0x1803 JUMP JUMPDEST MLOAD PUSH1 0x2 DUP8 ADD PUSH2 0x1803 JUMP JUMPDEST MLOAD AND PUSH1 0xFF PUSH1 0x3 DUP6 ADD SWAP2 AND PUSH1 0xFF NOT DUP3 SLOAD AND OR SWAP1 SSTORE PUSH1 0x4 DUP4 ADD SWAP1 MLOAD SWAP1 DUP2 MLOAD SWAP2 PUSH1 0x1 PUSH1 0x40 SHL DUP4 GT PUSH2 0x29D JUMPI DUP2 SLOAD DUP4 DUP4 SSTORE DUP1 DUP5 LT PUSH2 0x11A7 JUMPI JUMPDEST POP PUSH1 0x20 ADD SWAP1 PUSH1 0x0 MSTORE PUSH1 0x20 PUSH1 0x0 KECCAK256 PUSH1 0x0 SWAP2 JUMPDEST DUP4 DUP4 LT PUSH2 0x118A JUMPI PUSH2 0x2B3 DUP7 PUSH1 0x6 DUP10 PUSH2 0x1182 DUP10 MLOAD PUSH1 0x5 DUP6 ADD PUSH2 0x1803 JUMP JUMPDEST MLOAD SWAP2 ADD PUSH2 0x1803 JUMP JUMPDEST PUSH1 0x1 PUSH1 0x20 DUP3 PUSH2 0x119B DUP4 SWAP5 MLOAD DUP7 PUSH2 0x1803 JUMP JUMPDEST ADD SWAP3 ADD SWAP3 ADD SWAP2 SWAP1 PUSH2 0x1166 JUMP JUMPDEST DUP3 PUSH1 0x0 MSTORE DUP4 PUSH1 0x20 PUSH1 0x0 KECCAK256 SWAP2 DUP3 ADD SWAP2 ADD JUMPDEST DUP2 DUP2 LT PUSH2 0x11C4 JUMPI POP PUSH2 0x1155 JUMP JUMPDEST DUP1 PUSH2 0x11D1 PUSH1 0x1 SWAP3 SLOAD PUSH2 0x14D7 JUMP JUMPDEST DUP1 PUSH2 0x11DE JUMPI JUMPDEST POP ADD PUSH2 0x11B7 JUMP JUMPDEST PUSH1 0x1F DUP2 GT DUP4 EQ PUSH2 0x11F4 JUMPI POP PUSH1 0x0 DUP2 SSTORE JUMPDEST DUP10 PUSH2 0x11D7 JUMP JUMPDEST PUSH2 0x1212 SWAP1 DUP3 PUSH1 0x0 MSTORE DUP4 PUSH1 0x1F PUSH1 0x20 PUSH1 0x0 KECCAK256 SWAP3 ADD PUSH1 0x5 SHR DUP3 ADD SWAP2 ADD PUSH2 0x17EC JUMP JUMPDEST DUP1 PUSH1 0x0 MSTORE PUSH1 0x0 PUSH1 0x20 DUP2 KECCAK256 DUP2 DUP4 SSTORE SSTORE PUSH2 0x11EE JUMP JUMPDEST CALLVALUE PUSH2 0x2B5 JUMPI PUSH1 0x20 CALLDATASIZE PUSH1 0x3 NOT ADD SLT PUSH2 0x2B5 JUMPI PUSH1 0x4 CALLDATALOAD PUSH1 0x1 PUSH1 0x1 PUSH1 0x40 SHL SUB DUP2 GT PUSH2 0x2B5 JUMPI PUSH1 0x20 PUSH2 0x50B PUSH2 0x125A SWAP3 CALLDATASIZE SWAP1 PUSH1 0x4 ADD PUSH2 0x145E JUMP JUMPDEST DUP2 ADD PUSH1 0x3 DUP2 MSTORE SUB ADD SWAP1 KECCAK256 PUSH1 0xFF DUP2 SLOAD AND PUSH2 0x769 PUSH2 0x1278 PUSH1 0x1 DUP5 ADD PUSH2 0x1511 JUMP JUMPDEST SWAP3 PUSH2 0x12F4 PUSH2 0x1288 PUSH1 0x2 DUP4 ADD PUSH2 0x1511 JUMP JUMPDEST SWAP2 PUSH1 0xFF PUSH1 0x3 DUP3 ADD SLOAD AND SWAP1 PUSH2 0x12E1 PUSH2 0x12AD PUSH1 0x6 PUSH2 0x12A6 PUSH1 0x5 DUP6 ADD PUSH2 0x1511 JUMP JUMPDEST SWAP4 ADD PUSH2 0x1511 JUMP JUMPDEST SWAP5 PUSH2 0x12D3 PUSH1 0x40 MLOAD SWAP10 DUP10 PUSH2 0x12C0 DUP13 SWAP12 PUSH2 0x15DA JUMP JUMPDEST DUP11 MSTORE PUSH1 0xC0 PUSH1 0x20 DUP12 ADD MSTORE PUSH1 0xC0 DUP11 ADD SWAP1 PUSH2 0x15B5 JUMP JUMPDEST SWAP1 DUP9 DUP3 SUB PUSH1 0x40 DUP11 ADD MSTORE PUSH2 0x15B5 JUMP JUMPDEST SWAP2 PUSH1 0x60 DUP8 ADD MSTORE DUP6 DUP3 SUB PUSH1 0x80 DUP8 ADD MSTORE PUSH2 0x15B5 JUMP JUMPDEST SWAP1 DUP4 DUP3 SUB PUSH1 0xA0 DUP6 ADD MSTORE PUSH2 0x15B5 JUMP JUMPDEST CALLVALUE PUSH2 0x2B5 JUMPI PUSH1 0x20 CALLDATASIZE PUSH1 0x3 NOT ADD SLT PUSH2 0x2B5 JUMPI PUSH1 0x4 CALLDATALOAD PUSH1 0x1 PUSH1 0x1 PUSH1 0x40 SHL SUB DUP2 GT PUSH2 0x2B5 JUMPI PUSH2 0x133A PUSH1 0x20 PUSH2 0x50B PUSH2 0x13A9 SWAP4 CALLDATASIZE SWAP1 PUSH1 0x4 ADD PUSH2 0x145E JUMP JUMPDEST DUP2 ADD PUSH1 0x1 DUP2 MSTORE SUB ADD SWAP1 KECCAK256 PUSH2 0x134D DUP2 PUSH2 0x1511 JUMP JUMPDEST SWAP1 PUSH2 0x13E1 PUSH2 0x135D PUSH1 0x1 DUP4 ADD PUSH2 0x1511 JUMP JUMPDEST SWAP2 PUSH2 0x136A PUSH1 0x4 DUP3 ADD PUSH2 0x1511 JUMP JUMPDEST SWAP1 PUSH2 0x13C5 PUSH1 0xFF PUSH1 0x5 DUP4 ADD SLOAD AND SWAP3 PUSH2 0x13B7 PUSH2 0x1386 PUSH1 0x6 DUP6 ADD PUSH2 0x1511 JUMP JUMPDEST SWAP4 PUSH1 0x7 PUSH1 0x1 DUP1 PUSH1 0xA0 SHL SUB SWAP2 ADD SLOAD AND SWAP7 PUSH1 0x40 MLOAD SWAP10 DUP11 SWAP10 PUSH1 0xC0 DUP12 MSTORE PUSH1 0xC0 DUP12 ADD SWAP1 PUSH2 0x15B5 JUMP JUMPDEST SWAP1 DUP10 DUP3 SUB PUSH1 0x20 DUP12 ADD MSTORE PUSH2 0x15B5 JUMP JUMPDEST SWAP1 DUP8 DUP3 SUB PUSH1 0x40 DUP10 ADD MSTORE PUSH2 0x15B5 JUMP JUMPDEST SWAP2 PUSH2 0x13CF DUP2 PUSH2 0x15DA JUMP JUMPDEST PUSH1 0x60 DUP7 ADD MSTORE DUP5 DUP3 SUB PUSH1 0x80 DUP7 ADD MSTORE PUSH2 0x15B5 JUMP JUMPDEST SWAP1 PUSH1 0xA0 DUP4 ADD MSTORE SUB SWAP1 RETURN JUMPDEST PUSH1 0xE0 DUP2 ADD SWAP1 DUP2 LT PUSH1 0x1 PUSH1 0x1 PUSH1 0x40 SHL SUB DUP3 GT OR PUSH2 0x29D JUMPI PUSH1 0x40 MSTORE JUMP JUMPDEST PUSH1 0xC0 DUP2 ADD SWAP1 DUP2 LT PUSH1 0x1 PUSH1 0x1 PUSH1 0x40 SHL SUB DUP3 GT OR PUSH2 0x29D JUMPI PUSH1 0x40 MSTORE JUMP JUMPDEST PUSH2 0x100 DUP2 ADD SWAP1 DUP2 LT PUSH1 0x1 PUSH1 0x1 PUSH1 0x40 SHL SUB DUP3 GT OR PUSH2 0x29D JUMPI PUSH1 0x40 MSTORE JUMP JUMPDEST SWAP1 PUSH1 0x1F DUP1 NOT SWAP2 ADD AND DUP2 ADD SWAP1 DUP2 LT PUSH1 0x1 PUSH1 0x1 PUSH1 0x40 SHL SUB DUP3 GT OR PUSH2 0x29D JUMPI PUSH1 0x40 MSTORE JUMP JUMPDEST DUP2 PUSH1 0x1F DUP3 ADD SLT ISZERO PUSH2 0x2B5 JUMPI DUP1 CALLDATALOAD SWAP1 PUSH1 0x1 PUSH1 0x1 PUSH1 0x40 SHL SUB DUP3 GT PUSH2 0x29D JUMPI PUSH1 0x40 MLOAD SWAP3 PUSH2 0x1492 PUSH1 0x1F DUP5 ADD PUSH1 0x1F NOT AND PUSH1 0x20 ADD DUP6 PUSH2 0x143D JUMP JUMPDEST DUP3 DUP5 MSTORE PUSH1 0x20 DUP4 DUP4 ADD ADD GT PUSH2 0x2B5 JUMPI DUP2 PUSH1 0x0 SWAP3 PUSH1 0x20 DUP1 SWAP4 ADD DUP4 DUP7 ADD CALLDATACOPY DUP4 ADD ADD MSTORE SWAP1 JUMP JUMPDEST PUSH1 0x0 JUMPDEST DUP4 DUP2 LT PUSH2 0x14C7 JUMPI POP POP PUSH1 0x0 SWAP2 ADD MSTORE JUMP JUMPDEST DUP2 DUP2 ADD MLOAD DUP4 DUP3 ADD MSTORE PUSH1 0x20 ADD PUSH2 0x14B7 JUMP JUMPDEST SWAP1 PUSH1 0x1 DUP3 DUP2 SHR SWAP3 AND DUP1 ISZERO PUSH2 0x1507 JUMPI JUMPDEST PUSH1 0x20 DUP4 LT EQ PUSH2 0x14F1 JUMPI JUMP JUMPDEST PUSH4 0x4E487B71 PUSH1 0xE0 SHL PUSH1 0x0 MSTORE PUSH1 0x22 PUSH1 0x4 MSTORE PUSH1 0x24 PUSH1 0x0 REVERT JUMPDEST SWAP2 PUSH1 0x7F AND SWAP2 PUSH2 0x14E6 JUMP JUMPDEST SWAP1 PUSH1 0x40 MLOAD SWAP2 DUP3 PUSH1 0x0 DUP3 SLOAD SWAP3 PUSH2 0x1525 DUP5 PUSH2 0x14D7 JUMP JUMPDEST DUP1 DUP5 MSTORE SWAP4 PUSH1 0x1 DUP2 AND SWAP1 DUP2 ISZERO PUSH2 0x1593 JUMPI POP PUSH1 0x1 EQ PUSH2 0x154C JUMPI JUMPDEST POP PUSH2 0x154A SWAP3 POP SUB DUP4 PUSH2 0x143D JUMP JUMPDEST JUMP JUMPDEST SWAP1 POP PUSH1 0x0 SWAP3 SWAP2 SWAP3 MSTORE PUSH1 0x20 PUSH1 0x0 KECCAK256 SWAP1 PUSH1 0x0 SWAP2 JUMPDEST DUP2 DUP4 LT PUSH2 0x1577 JUMPI POP POP SWAP1 PUSH1 0x20 PUSH2 0x154A SWAP3 DUP3 ADD ADD CODESIZE PUSH2 0x153D JUMP JUMPDEST PUSH1 0x20 SWAP2 SWAP4 POP DUP1 PUSH1 0x1 SWAP2 SLOAD DUP4 DUP6 DUP10 ADD ADD MSTORE ADD SWAP2 ADD SWAP1 SWAP2 DUP5 SWAP3 PUSH2 0x155E JUMP JUMPDEST SWAP1 POP PUSH1 0x20 SWAP3 POP PUSH2 0x154A SWAP5 SWAP2 POP PUSH1 0xFF NOT AND DUP3 DUP5 ADD MSTORE ISZERO ISZERO PUSH1 0x5 SHL DUP3 ADD ADD CODESIZE PUSH2 0x153D JUMP JUMPDEST SWAP1 PUSH1 0x20 SWAP2 PUSH2 0x15CE DUP2 MLOAD DUP1 SWAP3 DUP2 DUP6 MSTORE DUP6 DUP1 DUP7 ADD SWAP2 ADD PUSH2 0x14B4 JUMP JUMPDEST PUSH1 0x1F ADD PUSH1 0x1F NOT AND ADD ADD SWAP1 JUMP JUMPDEST PUSH1 0x2 GT ISZERO PUSH2 0x15E4 JUMPI JUMP JUMPDEST PUSH4 0x4E487B71 PUSH1 0xE0 SHL PUSH1 0x0 MSTORE PUSH1 0x21 PUSH1 0x4 MSTORE PUSH1 0x24 PUSH1 0x0 REVERT JUMPDEST PUSH1 0x1 PUSH1 0x1 PUSH1 0x40 SHL SUB DUP2 GT PUSH2 0x29D JUMPI PUSH1 0x5 SHL PUSH1 0x20 ADD SWAP1 JUMP JUMPDEST SWAP1 DUP1 PUSH1 0x1F DUP4 ADD SLT ISZERO PUSH2 0x2B5 JUMPI DUP2 CALLDATALOAD PUSH2 0x1628 DUP2 PUSH2 0x15FA JUMP JUMPDEST SWAP3 PUSH2 0x1636 PUSH1 0x40 MLOAD SWAP5 DUP6 PUSH2 0x143D JUMP JUMPDEST DUP2 DUP5 MSTORE PUSH1 0x20 DUP1 DUP6 ADD SWAP3 PUSH1 0x5 SHL DUP3 ADD ADD SWAP2 DUP4 DUP4 GT PUSH2 0x2B5 JUMPI PUSH1 0x20 DUP3 ADD SWAP1 JUMPDEST DUP4 DUP3 LT PUSH2 0x1662 JUMPI POP POP POP POP POP SWAP1 JUMP JUMPDEST DUP2 CALLDATALOAD PUSH1 0x1 PUSH1 0x1 PUSH1 0x40 SHL SUB DUP2 GT PUSH2 0x2B5 JUMPI PUSH1 0x20 SWAP2 PUSH2 0x1684 DUP8 DUP5 DUP1 SWAP5 DUP9 ADD ADD PUSH2 0x145E JUMP JUMPDEST DUP2 MSTORE ADD SWAP2 ADD SWAP1 PUSH2 0x1653 JUMP JUMPDEST SWAP1 PUSH1 0xC0 PUSH1 0x3 NOT DUP4 ADD SLT PUSH2 0x2B5 JUMPI PUSH1 0x4 CALLDATALOAD PUSH1 0x1 PUSH1 0x1 PUSH1 0x40 SHL SUB DUP2 GT PUSH2 0x2B5 JUMPI DUP3 PUSH2 0x16BA SWAP2 PUSH1 0x4 ADD PUSH2 0x145E JUMP JUMPDEST SWAP2 PUSH1 0x24 CALLDATALOAD PUSH1 0x1 PUSH1 0x1 PUSH1 0x40 SHL SUB DUP2 GT PUSH2 0x2B5 JUMPI DUP2 PUSH2 0x16D9 SWAP2 PUSH1 0x4 ADD PUSH2 0x145E JUMP JUMPDEST SWAP2 PUSH1 0x44 CALLDATALOAD PUSH1 0x1 PUSH1 0x1 PUSH1 0x40 SHL SUB DUP2 GT PUSH2 0x2B5 JUMPI DUP3 PUSH2 0x16F8 SWAP2 PUSH1 0x4 ADD PUSH2 0x145E JUMP JUMPDEST SWAP2 PUSH1 0x64 CALLDATALOAD PUSH1 0xFF DUP2 AND DUP2 SUB PUSH2 0x2B5 JUMPI SWAP2 PUSH1 0x84 CALLDATALOAD PUSH1 0x1 PUSH1 0x1 PUSH1 0x40 SHL SUB DUP2 GT PUSH2 0x2B5 JUMPI DUP3 PUSH2 0x1725 SWAP2 PUSH1 0x4 ADD PUSH2 0x1611 JUMP JUMPDEST SWAP2 PUSH1 0xA4 CALLDATALOAD SWAP1 PUSH1 0x1 PUSH1 0x1 PUSH1 0x40 SHL SUB DUP3 GT PUSH2 0x2B5 JUMPI PUSH2 0x1744 SWAP2 PUSH1 0x4 ADD PUSH2 0x145E JUMP JUMPDEST SWAP1 JUMP JUMPDEST SWAP1 DUP1 PUSH1 0x20 DUP4 MLOAD SWAP2 DUP3 DUP2 MSTORE ADD SWAP2 PUSH1 0x20 DUP1 DUP4 PUSH1 0x5 SHL DUP4 ADD ADD SWAP5 ADD SWAP3 PUSH1 0x0 SWAP2 JUMPDEST DUP4 DUP4 LT PUSH2 0x1773 JUMPI POP POP POP POP POP SWAP1 JUMP JUMPDEST SWAP1 SWAP2 SWAP3 SWAP4 SWAP5 PUSH1 0x20 DUP1 PUSH2 0x1791 PUSH1 0x1 SWAP4 PUSH1 0x1F NOT DUP7 DUP3 SUB ADD DUP8 MSTORE DUP10 MLOAD PUSH2 0x15B5 JUMP JUMPDEST SWAP8 ADD SWAP4 ADD SWAP4 ADD SWAP2 SWAP4 SWAP3 SWAP1 PUSH2 0x1764 JUMP JUMPDEST DUP1 SLOAD DUP3 LT ISZERO PUSH2 0x17BC JUMPI PUSH1 0x0 MSTORE PUSH1 0x6 PUSH1 0x20 PUSH1 0x0 KECCAK256 SWAP2 MUL ADD SWAP1 PUSH1 0x0 SWAP1 JUMP JUMPDEST PUSH4 0x4E487B71 PUSH1 0xE0 SHL PUSH1 0x0 MSTORE PUSH1 0x32 PUSH1 0x4 MSTORE PUSH1 0x24 PUSH1 0x0 REVERT JUMPDEST PUSH1 0x0 SLOAD DUP2 LT ISZERO PUSH2 0x17BC JUMPI PUSH1 0x0 DUP1 MSTORE PUSH1 0x20 PUSH1 0x0 KECCAK256 ADD SWAP1 PUSH1 0x0 SWAP1 JUMP JUMPDEST DUP2 DUP2 LT PUSH2 0x17F7 JUMPI POP POP JUMP JUMPDEST PUSH1 0x0 DUP2 SSTORE PUSH1 0x1 ADD PUSH2 0x17EC JUMP JUMPDEST SWAP2 SWAP1 SWAP2 DUP3 MLOAD PUSH1 0x1 PUSH1 0x1 PUSH1 0x40 SHL SUB DUP2 GT PUSH2 0x29D JUMPI PUSH2 0x1820 DUP3 SLOAD PUSH2 0x14D7 JUMP JUMPDEST PUSH1 0x1F DUP2 GT PUSH2 0x18C6 JUMPI JUMPDEST POP PUSH1 0x20 PUSH1 0x1F DUP3 GT PUSH1 0x1 EQ PUSH2 0x1864 JUMPI DUP2 SWAP3 SWAP4 SWAP5 PUSH1 0x0 SWAP3 PUSH2 0x1859 JUMPI JUMPDEST POP POP DUP2 PUSH1 0x1 SHL SWAP2 PUSH1 0x0 NOT SWAP1 PUSH1 0x3 SHL SHR NOT AND OR SWAP1 SSTORE JUMP JUMPDEST ADD MLOAD SWAP1 POP CODESIZE DUP1 PUSH2 0x1843 JUMP JUMPDEST PUSH1 0x1F NOT DUP3 AND SWAP1 DUP4 PUSH1 0x0 MSTORE DUP1 PUSH1 0x0 KECCAK256 SWAP2 PUSH1 0x0 JUMPDEST DUP2 DUP2 LT PUSH2 0x18AE JUMPI POP SWAP6 DUP4 PUSH1 0x1 SWAP6 SWAP7 SWAP8 LT PUSH2 0x1895 JUMPI JUMPDEST POP POP POP DUP2 SHL ADD SWAP1 SSTORE JUMP JUMPDEST ADD MLOAD PUSH1 0x0 NOT PUSH1 0xF8 DUP5 PUSH1 0x3 SHL AND SHR NOT AND SWAP1 SSTORE CODESIZE DUP1 DUP1 PUSH2 0x188B JUMP JUMPDEST SWAP2 SWAP3 PUSH1 0x20 PUSH1 0x1 DUP2 SWAP3 DUP7 DUP12 ADD MLOAD DUP2 SSTORE ADD SWAP5 ADD SWAP3 ADD PUSH2 0x1876 JUMP JUMPDEST PUSH2 0x18F3 SWAP1 DUP4 PUSH1 0x0 MSTORE PUSH1 0x20 PUSH1 0x0 KECCAK256 PUSH1 0x1F DUP5 ADD PUSH1 0x5 SHR DUP2 ADD SWAP2 PUSH1 0x20 DUP6 LT PUSH2 0x18F9 JUMPI JUMPDEST PUSH1 0x1F ADD PUSH1 0x5 SHR ADD SWAP1 PUSH2 0x17EC JUMP JUMPDEST CODESIZE PUSH2 0x1829 JUMP JUMPDEST SWAP1 SWAP2 POP DUP2 SWAP1 PUSH2 0x18E6 JUMP JUMPDEST SWAP1 PUSH2 0x190D DUP2 PUSH2 0x15DA JUMP JUMPDEST PUSH1 0xFF DUP1 NOT DUP4 SLOAD AND SWAP2 AND OR SWAP1 SSTORE JUMP JUMPDEST ISZERO PUSH2 0x1922 JUMPI JUMP JUMPDEST PUSH1 0x40 MLOAD PUSH3 0x461BCD PUSH1 0xE5 SHL DUP2 MSTORE PUSH1 0x20 PUSH1 0x4 DUP3 ADD MSTORE PUSH1 0xA PUSH1 0x24 DUP3 ADD MSTORE PUSH10 0x125B9D985B1A59081251 PUSH1 0xB2 SHL PUSH1 0x44 DUP3 ADD MSTORE PUSH1 0x64 SWAP1 REVERT JUMPDEST SWAP1 DUP2 SLOAD PUSH2 0x1960 DUP2 PUSH2 0x15FA JUMP JUMPDEST SWAP3 PUSH2 0x196E PUSH1 0x40 MLOAD SWAP5 DUP6 PUSH2 0x143D JUMP JUMPDEST DUP2 DUP5 MSTORE PUSH1 0x20 DUP5 ADD SWAP1 PUSH1 0x0 MSTORE PUSH1 0x20 PUSH1 0x0 KECCAK256 PUSH1 0x0 SWAP2 JUMPDEST DUP4 DUP4 LT PUSH2 0x198F JUMPI POP POP POP POP JUMP JUMPDEST PUSH1 0x1 PUSH1 0x20 DUP2 SWAP3 PUSH2 0x199E DUP6 PUSH2 0x1511 JUMP JUMPDEST DUP2 MSTORE ADD SWAP3 ADD SWAP3 ADD SWAP2 SWAP1 PUSH2 0x1982 JUMP JUMPDEST PUSH1 0x0 SWAP3 SWAP2 DUP2 SLOAD SWAP2 PUSH2 0x19BC DUP4 PUSH2 0x14D7 JUMP JUMPDEST SWAP3 PUSH1 0x1 DUP2 AND SWAP1 DUP2 ISZERO PUSH2 0x1A07 JUMPI POP PUSH1 0x1 EQ PUSH2 0x19D5 JUMPI POP POP POP JUMP JUMPDEST SWAP1 SWAP2 SWAP3 SWAP4 POP PUSH1 0x0 MSTORE PUSH1 0x20 PUSH1 0x0 KECCAK256 PUSH1 0x0 SWAP1 JUMPDEST DUP4 DUP3 LT PUSH2 0x19F3 JUMPI POP POP ADD SWAP1 JUMP JUMPDEST PUSH1 0x1 DUP2 PUSH1 0x20 SWAP3 SLOAD DUP5 DUP7 ADD MSTORE ADD SWAP2 ADD SWAP1 PUSH2 0x19E6 JUMP JUMPDEST PUSH1 0xFF NOT AND DUP4 MSTORE POP POP DUP2 ISZERO ISZERO SWAP1 SWAP2 MUL ADD SWAP2 POP JUMP JUMPDEST PUSH1 0x0 NOT DUP2 EQ PUSH2 0x1A29 JUMPI PUSH1 0x1 ADD SWAP1 JUMP JUMPDEST PUSH4 0x4E487B71 PUSH1 0xE0 SHL PUSH1 0x0 MSTORE PUSH1 0x11 PUSH1 0x4 MSTORE PUSH1 0x24 PUSH1 0x0 REVERT JUMPDEST DUP1 MLOAD DUP3 LT ISZERO PUSH2 0x17BC JUMPI PUSH1 0x20 SWAP2 PUSH1 0x5 SHL ADD ADD SWAP1 JUMP INVALID LOG2 PUSH5 0x6970667358 0x22 SLT KECCAK256 PUSH2 0x3ED1 0xD8 PUSH19 0xED3174010DD051FADF9213EAB4C63C26CF6AA7 PUSH5 0xAF6D79F745 0xBD 0xFC PUSH5 0x736F6C6343 STOP ADDMOD SHL STOP CALLER "},"methodIdentifiers":{"ObatPbfBatchName(string)":"6fbef94b","addBatchProduction(string,string,string,uint8,string[],string)":"e521d586","addObatPbf(string,string,string,uint8,string[],string)":"863e16ba","getAllObatPbfReadyStock()":"906ce017","getObatDetail(string)":"d6582672","getObatProduction(string)":"8d57ba0a","obatDetailsById(string)":"27321837","obatProductionById(string,uint256)":"ba2ffe4c","setObatDetail(string,string,string,string[],string[],string,uint8,string,address)":"a24f6509","updateBatchProduction(string,string,string[])":"e9c14cb8"}}}}}