{"contracts/CpotbCertificate.sol":{"CpotbCertificate":{"abi":[{"inputs":[{"internalType":"uint256","name":"","type":"uint256"}],"name":"allCpotbData","outputs":[{"internalType":"string","name":"certId","type":"string"},{"internalType":"string","name":"certNumber","type":"string"},{"internalType":"string","name":"instanceName","type":"string"},{"internalType":"uint8","name":"tipePermohonan","type":"uint8"},{"internalType":"enum EnumsLibrary.StatusCertificate","name":"status","type":"uint8"},{"internalType":"string","name":"certHash","type":"string"},{"internalType":"uint256","name":"expiredTimestamp","type":"uint256"}],"stateMutability":"view","type":"function"},{"inputs":[{"internalType":"string","name":"certNumber","type":"string"},{"internalType":"string","name":"certId","type":"string"},{"internalType":"string","name":"bpomName","type":"string"},{"internalType":"string","name":"bpomInstance","type":"string"},{"internalType":"address","name":"bpomAddr","type":"address"},{"internalType":"string","name":"ipfsCert","type":"string"},{"internalType":"uint256","name":"timestampExp","type":"uint256"}],"name":"approveCpotb","outputs":[],"stateMutability":"nonpayable","type":"function"},{"inputs":[{"internalType":"string","name":"certId","type":"string"},{"internalType":"string","name":"ipfsCert","type":"string"}],"name":"approveExtendCpotb","outputs":[],"stateMutability":"nonpayable","type":"function"},{"inputs":[{"internalType":"string","name":"","type":"string"}],"name":"certDetailById","outputs":[{"internalType":"enum EnumsLibrary.StatusCertificate","name":"status","type":"uint8"},{"internalType":"uint256","name":"timestampRequest","type":"uint256"},{"internalType":"uint256","name":"timestampApprove","type":"uint256"},{"internalType":"uint256","name":"timestampRejected","type":"uint256"},{"internalType":"uint256","name":"timestampRenewRequest","type":"uint256"},{"internalType":"uint256","name":"timestampExpired","type":"uint256"},{"internalType":"uint256","name":"timestampExtendRequest","type":"uint256"},{"components":[{"internalType":"string","name":"userName","type":"string"},{"internalType":"string","name":"userInstance","type":"string"},{"internalType":"address","name":"userAddr","type":"address"}],"internalType":"struct BaseCertificate.UserCert","name":"sender","type":"tuple"},{"components":[{"internalType":"string","name":"userName","type":"string"},{"internalType":"string","name":"userInstance","type":"string"},{"internalType":"address","name":"userAddr","type":"address"}],"internalType":"struct BaseCertificate.UserCert","name":"bpom","type":"tuple"},{"internalType":"string","name":"ipfsCert","type":"string"}],"stateMutability":"view","type":"function"},{"inputs":[{"internalType":"string","name":"","type":"string"}],"name":"cpotbDataById","outputs":[{"internalType":"string","name":"cpotbId","type":"string"},{"internalType":"string","name":"cpotbNumber","type":"string"},{"internalType":"uint8","name":"tipePermohonan","type":"uint8"},{"internalType":"string","name":"factoryType","type":"string"}],"stateMutability":"view","type":"function"},{"inputs":[{"components":[{"internalType":"string","name":"userName","type":"string"},{"internalType":"string","name":"userInstance","type":"string"},{"internalType":"address","name":"userAddr","type":"address"}],"internalType":"struct BaseCertificate.UserCert","name":"senderData","type":"tuple"},{"components":[{"internalType":"string","name":"userName","type":"string"},{"internalType":"string","name":"userInstance","type":"string"},{"internalType":"address","name":"userAddr","type":"address"}],"internalType":"struct BaseCertificate.UserCert","name":"bpomData","type":"tuple"},{"internalType":"string","name":"certId","type":"string"}],"name":"createCertificateDetails","outputs":[],"stateMutability":"nonpayable","type":"function"},{"inputs":[{"internalType":"string","name":"userName","type":"string"},{"internalType":"string","name":"userInstance","type":"string"},{"internalType":"address","name":"userAddr","type":"address"}],"name":"createUserCertificate","outputs":[{"components":[{"internalType":"string","name":"userName","type":"string"},{"internalType":"string","name":"userInstance","type":"string"},{"internalType":"address","name":"userAddr","type":"address"}],"internalType":"struct BaseCertificate.UserCert","name":"","type":"tuple"}],"stateMutability":"pure","type":"function"},{"inputs":[{"internalType":"string","name":"","type":"string"}],"name":"dokuAdminById","outputs":[{"internalType":"string","name":"suratPermohonan","type":"string"},{"internalType":"string","name":"buktiPembayaranNegaraBukanPajak","type":"string"},{"internalType":"string","name":"suratKomitmen","type":"string"}],"stateMutability":"view","type":"function"},{"inputs":[{"internalType":"string","name":"","type":"string"}],"name":"dokuTeknisById","outputs":[{"internalType":"string","name":"denahBangunan","type":"string"},{"internalType":"string","name":"sistemMutu","type":"string"}],"stateMutability":"view","type":"function"},{"inputs":[{"internalType":"string","name":"certId","type":"string"},{"internalType":"uint256","name":"expTimestamp","type":"uint256"}],"name":"extendCpotb","outputs":[],"stateMutability":"nonpayable","type":"function"},{"inputs":[],"name":"getAllCpotb","outputs":[{"components":[{"internalType":"string","name":"certId","type":"string"},{"internalType":"string","name":"certNumber","type":"string"},{"internalType":"string","name":"instanceName","type":"string"},{"internalType":"uint8","name":"tipePermohonan","type":"uint8"},{"internalType":"enum EnumsLibrary.StatusCertificate","name":"status","type":"uint8"},{"internalType":"string","name":"certHash","type":"string"},{"internalType":"uint256","name":"expiredTimestamp","type":"uint256"}],"internalType":"struct CpotbCertificate.CertificateList[]","name":"","type":"tuple[]"}],"stateMutability":"view","type":"function"},{"inputs":[{"internalType":"string","name":"instanceName","type":"string"}],"name":"getAllCpotbByInstance","outputs":[{"components":[{"internalType":"string","name":"certId","type":"string"},{"internalType":"string","name":"certNumber","type":"string"},{"internalType":"string","name":"instanceName","type":"string"},{"internalType":"uint8","name":"tipePermohonan","type":"uint8"},{"internalType":"enum EnumsLibrary.StatusCertificate","name":"status","type":"uint8"},{"internalType":"string","name":"certHash","type":"string"},{"internalType":"uint256","name":"expiredTimestamp","type":"uint256"}],"internalType":"struct CpotbCertificate.CertificateList[]","name":"","type":"tuple[]"}],"stateMutability":"view","type":"function"},{"inputs":[{"internalType":"string","name":"certId","type":"string"}],"name":"getCertDetail","outputs":[{"components":[{"internalType":"enum EnumsLibrary.StatusCertificate","name":"status","type":"uint8"},{"internalType":"uint256","name":"timestampRequest","type":"uint256"},{"internalType":"uint256","name":"timestampApprove","type":"uint256"},{"internalType":"uint256","name":"timestampRejected","type":"uint256"},{"internalType":"uint256","name":"timestampRenewRequest","type":"uint256"},{"internalType":"uint256","name":"timestampExpired","type":"uint256"},{"internalType":"uint256","name":"timestampExtendRequest","type":"uint256"},{"components":[{"internalType":"string","name":"userName","type":"string"},{"internalType":"string","name":"userInstance","type":"string"},{"internalType":"address","name":"userAddr","type":"address"}],"internalType":"struct BaseCertificate.UserCert","name":"sender","type":"tuple"},{"components":[{"internalType":"string","name":"userName","type":"string"},{"internalType":"string","name":"userInstance","type":"string"},{"internalType":"address","name":"userAddr","type":"address"}],"internalType":"struct BaseCertificate.UserCert","name":"bpom","type":"tuple"},{"internalType":"string","name":"ipfsCert","type":"string"}],"internalType":"struct BaseCertificate.CertificateDetails","name":"","type":"tuple"}],"stateMutability":"view","type":"function"},{"inputs":[{"internalType":"string","name":"certId","type":"string"}],"name":"getCertDetails","outputs":[{"components":[{"internalType":"enum EnumsLibrary.StatusCertificate","name":"status","type":"uint8"},{"internalType":"uint256","name":"timestampRequest","type":"uint256"},{"internalType":"uint256","name":"timestampApprove","type":"uint256"},{"internalType":"uint256","name":"timestampRejected","type":"uint256"},{"internalType":"uint256","name":"timestampRenewRequest","type":"uint256"},{"internalType":"uint256","name":"timestampExpired","type":"uint256"},{"internalType":"uint256","name":"timestampExtendRequest","type":"uint256"},{"components":[{"internalType":"string","name":"userName","type":"string"},{"internalType":"string","name":"userInstance","type":"string"},{"internalType":"address","name":"userAddr","type":"address"}],"internalType":"struct BaseCertificate.UserCert","name":"sender","type":"tuple"},{"components":[{"internalType":"string","name":"userName","type":"string"},{"internalType":"string","name":"userInstance","type":"string"},{"internalType":"address","name":"userAddr","type":"address"}],"internalType":"struct BaseCertificate.UserCert","name":"bpom","type":"tuple"},{"internalType":"string","name":"ipfsCert","type":"string"}],"internalType":"struct BaseCertificate.CertificateDetails","name":"","type":"tuple"}],"stateMutability":"view","type":"function"},{"inputs":[{"internalType":"string","name":"certId","type":"string"}],"name":"getCpotbDetails","outputs":[{"components":[{"internalType":"string","name":"cpotbId","type":"string"},{"internalType":"string","name":"cpotbNumber","type":"string"},{"internalType":"uint8","name":"tipePermohonan","type":"uint8"},{"internalType":"string","name":"factoryType","type":"string"}],"internalType":"struct CpotbCertificate.CpotbData","name":"","type":"tuple"},{"components":[{"internalType":"string","name":"suratPermohonan","type":"string"},{"internalType":"string","name":"buktiPembayaranNegaraBukanPajak","type":"string"},{"internalType":"string","name":"suratKomitmen","type":"string"}],"internalType":"struct CpotbCertificate.DokumenAdministrasi","name":"","type":"tuple"},{"components":[{"internalType":"string","name":"denahBangunan","type":"string"},{"internalType":"string","name":"sistemMutu","type":"string"}],"internalType":"struct CpotbCertificate.DokumenTeknis","name":"","type":"tuple"}],"stateMutability":"view","type":"function"},{"inputs":[{"internalType":"string","name":"certId","type":"string"}],"name":"getRejectMsg","outputs":[{"internalType":"string","name":"","type":"string"}],"stateMutability":"view","type":"function"},{"inputs":[{"internalType":"string","name":"certId","type":"string"}],"name":"getRejectsMsg","outputs":[{"internalType":"string","name":"","type":"string"}],"stateMutability":"view","type":"function"},{"inputs":[{"internalType":"string","name":"certId","type":"string"}],"name":"getSenderDetail","outputs":[{"components":[{"internalType":"string","name":"userName","type":"string"},{"internalType":"string","name":"userInstance","type":"string"},{"internalType":"address","name":"userAddr","type":"address"}],"internalType":"struct BaseCertificate.UserCert","name":"","type":"tuple"}],"stateMutability":"view","type":"function"},{"inputs":[{"internalType":"string","name":"certId","type":"string"},{"internalType":"string","name":"rejectMsg","type":"string"},{"internalType":"string","name":"bpomName","type":"string"},{"internalType":"string","name":"bpomInstance","type":"string"},{"internalType":"address","name":"bpomAddr","type":"address"}],"name":"rejectCpotb","outputs":[],"stateMutability":"nonpayable","type":"function"},{"inputs":[{"internalType":"string","name":"","type":"string"}],"name":"rejectMsgById","outputs":[{"internalType":"string","name":"","type":"string"}],"stateMutability":"view","type":"function"},{"inputs":[{"internalType":"string","name":"certId","type":"string"},{"components":[{"internalType":"string","name":"suratPermohonan","type":"string"},{"internalType":"string","name":"buktiPembayaranNegaraBukanPajak","type":"string"},{"internalType":"string","name":"suratKomitmen","type":"string"}],"internalType":"struct CpotbCertificate.DokumenAdministrasi","name":"newDokuAdmin","type":"tuple"},{"components":[{"internalType":"string","name":"denahBangunan","type":"string"},{"internalType":"string","name":"sistemMutu","type":"string"}],"internalType":"struct CpotbCertificate.DokumenTeknis","name":"newDokuTeknis","type":"tuple"}],"name":"renewRequestCpotb","outputs":[],"stateMutability":"nonpayable","type":"function"},{"inputs":[{"internalType":"string","name":"certId","type":"string"},{"internalType":"string","name":"factoryName","type":"string"},{"internalType":"string","name":"factoryInstance","type":"string"},{"internalType":"address","name":"factoryAddr","type":"address"},{"internalType":"uint8","name":"jenisSediaan","type":"uint8"},{"internalType":"string","name":"factoryType","type":"string"},{"components":[{"internalType":"string","name":"suratPermohonan","type":"string"},{"internalType":"string","name":"buktiPembayaranNegaraBukanPajak","type":"string"},{"internalType":"string","name":"suratKomitmen","type":"string"}],"internalType":"struct CpotbCertificate.DokumenAdministrasi","name":"dokuAdmin","type":"tuple"},{"components":[{"internalType":"string","name":"denahBangunan","type":"string"},{"internalType":"string","name":"sistemMutu","type":"string"}],"internalType":"struct CpotbCertificate.DokumenTeknis","name":"dokuTeknis","type":"tuple"}],"name":"requestCpotb","outputs":[],"stateMutability":"nonpayable","type":"function"},{"inputs":[{"internalType":"string","name":"certId","type":"string"},{"internalType":"string","name":"ipfsCert","type":"string"},{"components":[{"internalType":"string","name":"userName","type":"string"},{"internalType":"string","name":"userInstance","type":"string"},{"internalType":"address","name":"userAddr","type":"address"}],"internalType":"struct BaseCertificate.UserCert","name":"bpomData","type":"tuple"}],"name":"updateBpomApproveDetails","outputs":[],"stateMutability":"nonpayable","type":"function"},{"inputs":[{"internalType":"string","name":"certId","type":"string"},{"internalType":"string","name":"ipfsCert","type":"string"}],"name":"updateBpomExtendCertificateDetails","outputs":[],"stateMutability":"nonpayable","type":"function"},{"inputs":[{"internalType":"string","name":"certId","type":"string"},{"internalType":"string","name":"rejectMsg","type":"string"},{"components":[{"internalType":"string","name":"userName","type":"string"},{"internalType":"string","name":"userInstance","type":"string"},{"internalType":"address","name":"userAddr","type":"address"}],"internalType":"struct BaseCertificate.UserCert","name":"bpomData","type":"tuple"}],"name":"updateBpomRejectDetails","outputs":[],"stateMutability":"nonpayable","type":"function"},{"inputs":[{"internalType":"string","name":"certId","type":"string"},{"internalType":"uint256","name":"expiredTimestamp","type":"uint256"}],"name":"updateExtendRenewDetails","outputs":[],"stateMutability":"nonpayable","type":"function"},{"inputs":[{"internalType":"string","name":"certId","type":"string"}],"name":"updateRenewDetails","outputs":[],"stateMutability":"nonpayable","type":"function"}],"evm":{"bytecode":{"linkReferences":{},"object":"60808060405234601557614326908161001a8239f35b5f80fdfe60806040526004361015610011575f80fd5b5f3560e01c806317e68309146129c057806319859c87146129885780632e9cf8271461290457806334a34f30146128065780634eea4b8f1461235c578063500619d0146122db5780635850607c1461227357806364b409ff146112c45780636aa81299146112105780636d1aa7d514610f7757806370c056b014610fb2578063761fb19a14610f775780637ab0964814610ed057806381fc60a514610d615780638b11d37b14610cb95780639740dbed14610ca25780639aaa5d8b14610c67578063b073043614610b8b578063be2e232514610b3b578063bf3f80ac14610acd578063e462dde514610994578063e8002b27146102da578063e9c260d7146102c3578063f02f5f23146101ef578063f5104ff1146101d8578063f53ef126146101c15763fb5fb9a314610142575f80fd5b346101bd5760603660031901126101bd576004356001600160401b0381116101bd57610172903690600401612f87565b6024356001600160401b0381116101bd57610191903690600401612f87565b90604435916001600160401b0383116101bd576101b56101bb933690600401612aca565b91613cb1565b005b5f80fd5b346101bd576101bb6101d236612f3d565b90613b93565b346101bd576101bb6101e936612fff565b91613800565b346101bd5760203660031901126101bd576004356002548110156101bd5761021961027691613067565b5061022381612bcf565b906102b961023360018301612bcf565b9161024060028201612bcf565b906102ac610292600383015493610284600561025e60048701612bcf565b950154976040519a8b9a60e08c5260e08c0190612b1f565b908a820360208c0152612b1f565b9088820360408a0152612b1f565b9260ff8116606088015260ff608088019160081c16612cae565b84820360a0860152612b1f565b9060c08301520390f35b346101bd576101bb6102d436612fff565b91613463565b346101bd5760603660031901126101bd576004356001600160401b0381116101bd5761030a903690600401612aca565b6024356001600160401b0381116101bd57610329903690600401612d8b565b906044356001600160401b0381116101bd57610349903690600401612e0e565b610352826130b7565b6002549160208101905f5b84811061036657005b61036f81613067565b5060405161039381610385602082018095613115565b03601f198101835282612aa9565b51902060405160208101906103c06020828751808a875e81015f838201520301601f198101835282612aa9565b519020146103d1575b60010161035d565b60036103dc82613067565b5001805461ff00191661030017905561040660206103f983613067565b5060405192838092613115565b600481520301902086518051906001600160401b03821161069757819061042d8454612b97565b601f8111610944575b50602090601f83116001146108e1575f926108d6575b50508160011b915f199060031b1c19161781555b6001810160208801518051906001600160401b038211610697576104848354612b97565b601f8111610891575b50602090601f831160011461082a576002949392915f918361081f575b50508160011b915f199060031b1c19161790555b0160408701518051906001600160401b0382116106975781906104e18454612b97565b601f81116107cf575b50602090601f831160011461076c575f92610761575b50508160011b915f199060031b1c19161790555b61052260206103f983613067565b600581520301902084518051906001600160401b038211610697576105478354612b97565b601f811161071c575b50602090601f83116001146106b65760019392915f91836106ab575b50505f19600383901b1c191690831b1781555b0160208501518051906001600160401b038211610697576105a08354612b97565b601f8111610652575b50602090601f83116001146105eb576001949392915f91836105e0575b50505f19600383901b1c191690841b1790555b90506103c9565b015190508a806105c6565b90601f19831691845f52815f20925f5b81811061063a575091600196959492918388959310610622575b505050811b0190556105d9565b01515f1960f88460031b161c191690558a8080610615565b929360206001819287860151815501950193016105fb565b835f5260205f20601f840160051c8101916020851061068d575b601f0160051c01905b81811061068257506105a9565b5f8155600101610675565b909150819061066c565b634e487b7160e01b5f52604160045260245ffd5b015190508a8061056c565b90601f19831691845f52815f20925f5b81811061070457509160019594929183879593106106ec575b505050811b01815561057f565b01515f1960f88460031b161c191690558a80806106df565b929360206001819287860151815501950193016106c6565b835f5260205f20601f840160051c81019160208510610757575b601f0160051c01905b81811061074c5750610550565b5f815560010161073f565b9091508190610736565b015190508980610500565b5f8581528281209350601f198516905b8181106107b7575090846001959493921061079f575b505050811b019055610514565b01515f1960f88460031b161c19169055898080610792565b9293602060018192878601518155019501930161077c565b909150835f5260205f20601f840160051c81019160208510610815575b90601f859493920160051c01905b81811061080757506104ea565b5f81558493506001016107fa565b90915081906107ec565b015190508b806104aa565b90601f19831691845f52815f20925f5b818110610879575091600193918560029897969410610861575b505050811b0190556104be565b01515f1960f88460031b161c191690558b8080610854565b9293602060018192878601518155019501930161083a565b835f5260205f20601f840160051c810191602085106108cc575b601f0160051c01905b8181106108c1575061048d565b5f81556001016108b4565b90915081906108ab565b01519050898061044c565b5f8581528281209350601f198516905b81811061092c5750908460019594939210610914575b505050811b018155610460565b01515f1960f88460031b161c19169055898080610907565b929360206001819287860151815501950193016108f1565b909150835f5260205f20601f840160051c8101916020851061098a575b90601f859493920160051c01905b81811061097c5750610436565b5f815584935060010161096f565b9091508190610961565b346101bd5760a03660031901126101bd576004356001600160401b0381116101bd576109c4903690600401612aca565b6024356001600160401b0381116101bd576109e3903690600401612aca565b6044356001600160401b0381116101bd57610a02903690600401612aca565b906064356001600160401b0381116101bd57610a3e92610a29610a37923690600401612aca565b610a31612b81565b916130e5565b9083613463565b600254602082015f5b828110610a5057005b80610a5c600192613067565b50604051610a7281610385602082018095613115565b5190206040516020810190610a9f6020828a51808a875e81015f838201520301601f198101835282612aa9565b51902014610aae575b01610a47565b6003610ab982613067565b5001805461ff001916610200179055610aa8565b346101bd5760203660031901126101bd576004356001600160401b0381116101bd57610b23602080610b06610b37943690600401612aca565b604051928184925191829101835e81016001815203019020612bcf565b604051918291602083526020830190612b1f565b0390f35b346101bd5760203660031901126101bd576004356001600160401b0381116101bd57610b7f610b71610b37923690600401612aca565b610b79613359565b506133b1565b60405191829182612e99565b346101bd57610ba4610b9c36612f3d565b819291613b93565b6002549060208101905f5b838110610bb857005b610bc181613067565b50604051610bd781610385602082018095613115565b5190206040516020810190610c046020828751808a875e81015f838201520301601f198101835282612aa9565b51902014610c15575b600101610baf565b6003610c2082613067565b500161060061ff00198254161790556082420190814211610c53576001916005610c4983613067565b5001559050610c0d565b634e487b7160e01b5f52601160045260245ffd5b346101bd5760203660031901126101bd576004356001600160401b0381116101bd57610b7f610c9d610b37923690600401612aca565b6133b1565b346101bd576101bb610cb336612e68565b906132de565b346101bd57610cd2610cca36612e68565b8192916132de565b600254602082015f5b828110610ce457005b80610cf0600192613067565b50604051610d0681610385602082018095613115565b5190206040516020810190610d336020828a51808a875e81015f838201520301601f198101835282612aa9565b51902014610d42575b01610cdb565b6003610d4d82613067565b5001805461ff001916610500179055610d3c565b346101bd5760203660031901126101bd576004356001600160401b0381116101bd57610d91903690600401612aca565b60025460208201915f805b838110610e6d575060ff610db09116613196565b925f915f5b848110610dca5760405180610b378882612cbb565b6002610385610def610ddb84613067565b506040519283916020830195869101613115565b5190206040516020810190610e1c6020828751808a875e81015f838201520301601f198101835282612aa9565b51902014610e2d575b600101610db5565b92610e65600191610e5f610e49610e4388613067565b50613233565b60ff831690610e58828c613213565b5289613213565b506132aa565b939050610e25565b6002610385610e7e610ddb84613067565b5190206040516020810190610eab6020828851808c875e81015f838201520301601f198101835282612aa9565b51902014610ebc575b600101610d9c565b90610ec86001916132aa565b919050610eb4565b346101bd5760203660031901126101bd576004356001600160401b0381116101bd57602080610f06610f5b933690600401612aca565b604051928184925191829101835e81016004815203019020610b37610f2a82612bcf565b91610f69610f466002610f3f60018501612bcf565b9301612bcf565b91604051958695606087526060870190612b1f565b908582036020870152612b1f565b908382036040850152612b1f565b346101bd5760203660031901126101bd576004356001600160401b0381116101bd57610b23610fad610b37923690600401612aca565b6132bb565b346101bd5760203660031901126101bd576004356001600160401b0381116101bd57610fe2903690600401612aca565b604051610fee81612a21565b606081526020810160609052604081015f90526060016060905260405161101481612a57565b6060815260208101606090526040016060905260405161103381612a72565b60608152602001606090526040518151908060208401928084835e810160038152036020019020906040518084518084835e81016004815203602001902092604051918291518091835e8101600581520360200190206040519161109683612a21565b61109f81612bcf565b83526110ad60018201612bcf565b9360208401948552600282015460ff1691604085019283526003016110d190612bcf565b9160608501928352604051916110e683612a57565b6110ef81612bcf565b83526110fd60018201612bcf565b906020840191825260020161111190612bcf565b91604084019283526040519561112687612a72565b61112f81612bcf565b875260010161113d90612bcf565b946020870195865260405198899860608a525160608a016080905260e08a0161116591612b1f565b9051898203605f190160808b015261117d9190612b1f565b915160ff1660a089015251878203605f190160c089015261119e9190612b1f565b9286840360208801525160608452606084016111b991612b1f565b90519083810360208501526111cd91612b1f565b90519180820390604001526111e191612b1f565b9183830360408501525160408352604083016111fc91612b1f565b9051918082039060200152610b3791612b1f565b346101bd5760203660031901126101bd576004356001600160401b0381116101bd576020806112466112a3933690600401612aca565b604051928184925191829101835e81016003815203019020610b3761126a82612bcf565b9161127760018201612bcf565b6112b161128e600360ff6002860154169401612bcf565b91604051968796608088526080880190612b1f565b908682036020880152612b1f565b9160408501528382036060850152612b1f565b346101bd576101003660031901126101bd576004356001600160401b0381116101bd576112f5903690600401612aca565b6024356001600160401b0381116101bd57611314903690600401612aca565b6044356001600160401b0381116101bd57611333903690600401612aca565b916064356001600160a01b03811681036101bd576084359360ff85168095036101bd5760a4356001600160401b0381116101bd57611375903690600401612aca565b9460c4356001600160401b0381116101bd57611395903690600401612d8b565b9260e435906001600160401b0382116101bd57836113ba6113c0933690600401612e0e565b976130e5565b9561141085602098604051906113d68b83612aa9565b5f82526040516113e68c82612aa9565b5f81526113f1613097565b50604051926113ff84612a57565b83528b8301525f6040830152613cb1565b60405161141c81612a21565b85815260405161142c8982612aa9565b5f81528882019081526040820190848252606083019384526040518a818a5180838d01835e8101600381520301902092518051906001600160401b0382116106975781908c61147b8754612b97565b601f8111612222575b50508c908d601f84116001146121be57505f926121b3575b50508160011b915f199060031b1c19161783555b51805160018401916001600160401b038211610697578b6114d18454612b97565b601f811161216e575b50508b908c601f84116001146121035750918060ff949260039796945f926120f8575b50508160011b915f1990881b1c19161790555b511660ff60028301911660ff198254161790550190518051906001600160401b0382116106975781906115438454612b97565b601f81116120aa575b508990601f8311600114612047575f9261203c575b50508160011b915f199060031b1c19161790555b6040519061158282612a3c565b848252604051926115938885612aa9565b5f8452878301938452604083015260608201525f60808201526040516115b98782612aa9565b5f815260a08201525f60c082015260025468010000000000000000811015610697578060016115eb9201600255613067565b9290926120295781518051906001600160401b0382116106975781906116118654612b97565b601f8111611fdb575b508990601f8311600114611f78575f92611f6d575b50508160011b915f199060031b1c19161783555b518051906001600160401b0382116106975781906116646001860154612b97565b601f8111611f1c575b508890601f8311600114611eb2575f92611ea7575b50508160011b915f199060031b1c19161760018301555b6002820160408201518051906001600160401b0382116106975781906116bf8454612b97565b601f8111611e59575b508990601f8311600114611df6575f92611deb575b50508160011b915f199060031b1c19161790555b6003820160ff806060840151161660ff1982541617815560808201516007811015611dd75761ff0082549160081b169061ff0019161790556004820160a08201518051906001600160401b0382116106975761174d8354612b97565b601f8111611d94575b508890601f8311600114611d2b57918060c09492600596945f92611d20575b50508160011b915f199060031b1c19161790555b01519101556040518481845180838701835e8101600481520301902081518051906001600160401b0382116106975781906117c48454612b97565b601f8111611cd2575b508790601f8311600114611c6f575f92611c64575b50508160011b915f199060031b1c19161781555b60018101858301518051906001600160401b038211610697576118198354612b97565b601f8111611c21575b508790601f8311600114611bb857918060029492604096945f92611bad575b50508160011b915f199060031b1c19161790555b01910151918251916001600160401b0383116106975785926118778254612b97565b94601f8611611b56575b8495508490601f8311600114611aef575f919083611ae4575b50508160011b915f199060031b1c19161790555b604051928184925191829101835e8101600581520301902081519081516001600160401b0381116106975784926118e58354612b97565b601f8111611a92575b508390601f8311600114611a2c5760019392915f9183611a21575b50505f19600383901b1c191690831b1781555b01910151918251906001600160401b0382116106975761193c8354612b97565b601f81116119de575b5080601f831160011461197f57508192935f92611974575b50505f19600383901b1c191660019190911b179055005b01519050838061195d565b90601f19831694845f52825f20925f905b8782106119c65750508360019596106119ae575b505050811b019055005b01515f1960f88460031b161c191690558380806119a4565b80600185968294968601518155019501930190611990565b835f52815f20601f840160051c810191838510611a17575b601f0160051c01905b818110611a0c5750611945565b5f81556001016119ff565b90915081906119f6565b015190508780611909565b90601f19831691845f52855f20925f5b87828210611a7c575050916001959492918387959310611a64575b505050811b01815561191c565b01515f1960f88460031b161c19169055878080611a57565b6001859682939686015181550195019301611a3c565b9091928094505f52855f20601f840160051c810191878510611ada575b90601f8896959493920160051c01905b818110611acc57506118ee565b5f8155879550600101611abf565b9091508190611aaf565b01519050888061189a565b601f95949392919519821695835f52855f20915f5b888110611b3e57508360019596979810611b26575b505050811b0190556118ae565b01515f1960f88460031b161c19169055888080611b19565b82820151845589976001909401939283019201611b04565b918094505f9591939552865f20601f840160051c810191888510611ba3575b90601f899694979593920160051c01905b818110611b9557505084611881565b5f8155889550600101611b86565b9091508190611b75565b015190508a80611841565b90601f19831691845f52895f20925f5b8b828210611c0b575050926001928592604098966002989610611bf3575b505050811b019055611855565b01515f1960f88460031b161c191690558a8080611be6565b6001859682939686015181550195019301611bc8565b835f52885f20601f840160051c8101918a8510611c5a575b601f0160051c01905b818110611c4f5750611822565b5f8155600101611c42565b9091508190611c39565b0151905087806117e2565b5f8581528981209350601f198516905b8a828210611cbc575050908460019594939210611ca4575b505050811b0181556117f6565b01515f1960f88460031b161c19169055878080611c97565b6001859682939686015181550195019301611c7f565b909150835f52875f20601f840160051c810191898510611d16575b90601f859493920160051c01905b818110611d0857506117cd565b5f8155849350600101611cfb565b9091508190611ced565b015190508b80611775565b90601f19831691845f528a5f20925f5b8c828210611d7e5750509260019285926005989660c0989610611d66575b505050811b019055611789565b01515f1960f88460031b161c191690558b8080611d59565b6001859682939686015181550195019301611d3b565b835f52895f20601f840160051c8101918b8510611dcd575b601f0160051c01905b818110611dc25750611756565b5f8155600101611db5565b9091508190611dac565b634e487b7160e01b5f52602160045260245ffd5b0151905089806116dd565b5f8581528b81209350601f198516905b8c828210611e43575050908460019594939210611e2b575b505050811b0190556116f1565b01515f1960f88460031b161c19169055898080611e1e565b6001859682939686015181550195019301611e06565b909150835f52895f20601f840160051c8101918b8510611e9d575b90601f859493920160051c01905b818110611e8f57506116c8565b5f8155849350600101611e82565b9091508190611e74565b015190508880611682565b600186015f9081528a81209350601f198516905b8b828210611f06575050908460019594939210611eee575b505050811b016001830155611699565b01515f1960f88460031b161c19169055888080611ede565b6001859682939686015181550195019301611ec6565b909150600185015f52885f20601f840160051c8101918a8510611f63575b90601f859493920160051c01905b818110611f55575061166d565b5f8155849350600101611f48565b9091508190611f3a565b01519050898061162f565b5f8781528b81209350601f198516905b8c828210611fc5575050908460019594939210611fad575b505050811b018355611643565b01515f1960f88460031b161c19169055898080611fa0565b6001859682939686015181550195019301611f88565b909150855f52895f20601f840160051c8101918b851061201f575b90601f859493920160051c01905b818110612011575061161a565b5f8155849350600101612004565b9091508190611ff6565b634e487b7160e01b5f525f60045260245ffd5b015190508980611561565b5f8581528b81209350601f198516905b8c82821061209457505090846001959493921061207c575b505050811b019055611575565b01515f1960f88460031b161c1916905589808061206f565b6001859682939686015181550195019301612057565b909150835f52895f20601f840160051c8101918b85106120ee575b90601f859493920160051c01905b8181106120e0575061154c565b5f81558493506001016120d3565b90915081906120c5565b015190508e806114fd565b9190601f198416855f52835f20935f905b828210612156575050926001928592600399989660ff98961061213f575b505050811b019055611510565b01515f19838a1b60f8161c191690558e8080612132565b80600186978294978701518155019601940190612114565b845f52815f2090601f850160051c82019285106121a9575b601f0160051c01905b81811061219e578d91506114da565b5f815560010161218f565b9091508190612186565b015190508c8061149c565b5f8881528181209450601f198616915b82821061220a5750509084600195949392106121f2575b505050811b0183556114b0565b01515f1960f88460031b161c191690558c80806121e5565b806001869782949787015181550196019401906121ce565b90919250865f52815f2090601f850160051c8201928510612269575b90601f859493920160051c01905b81811061225b578e9150611484565b5f815584935060010161224c565b909150819061223e565b346101bd575f3660031901126101bd5760025461228f81613196565b905f805b8282106122a85760405180610b378682612cbb565b6122d3600191610e5f6122bd610e4386613067565b60ff8316906122cc828a613213565b5287613213565b910190612293565b346101bd5760203660031901126101bd576004356001600160401b0381116101bd5760208061231161234e933690600401612aca565b604051928184925191829101835e81016005815203019020610b3761233a6001610f3f84612bcf565b604051938493604085526040850190612b1f565b908382036020850152612b1f565b346101bd5760e03660031901126101bd576004356001600160401b0381116101bd5761238c903690600401612aca565b6024356001600160401b0381116101bd576123ab903690600401612aca565b6044356001600160401b0381116101bd576123ca903690600401612aca565b6064356001600160401b0381116101bd576123e9903690600401612aca565b926123f2612b81565b60a435906001600160401b0382116101bd5761241561241f923690600401612aca565b9560c435946130e5565b604051906001855192602081818901958087835e810160038152030190200183516001600160401b038111610697576124588254612b97565b601f81116127c1575b506020601f821160011461275c5790806124989493925f91612751575b508160011b915f199060031b1c19161790555b8686613800565b600254935f5b8581106124a757005b6124b081613067565b506040516124c681610385602082018095613115565b51902060405160208101906124f36020828751808a875e81015f838201520301601f198101835282612aa9565b51902014612504575b60010161249e565b600161250f82613067565b500184516001600160401b0381116106975761252b8254612b97565b601f811161270c575b50806020601f82116001146126ab575f916126a0575b508160011b915f199060031b1c19161790555b600361256882613067565b5001805461ff001916610100179055600461258282613067565b500187516001600160401b0381116106975761259e8254612b97565b601f811161265b575b506020601f82116001146125f657908060019493925f916125eb575b505f19600383901b1c191690841b1790555b8560056125e183613067565b50015590506124fc565b90508a01518b6125c3565b601f19821690835f52805f20915f5b8c828210612643575050918391600196959487941061262b575b5050811b0190556125d5565b8c01515f1960f88460031b161c191690558b8061261f565b60018495602093958493015181550194019201612605565b825f5260205f20601f830160051c81019160208410612696575b601f0160051c01905b81811061268b57506125a7565b5f815560010161267e565b9091508190612675565b90508601518a61254a565b5f8481528181209250601f198416905b8181106126f4575090836001949392106126dc575b5050811b01905561255d565b8801515f1960f88460031b161c191690558a806126d0565b9192602060018192868d0151815501940192016126bb565b825f5260205f20601f830160051c81019160208410612747575b601f0160051c01905b81811061273c5750612534565b5f815560010161272f565b9091508190612726565b90508601518a61247e565b601f19821690835f52805f20915f5b8181106127a9575091839161249896959460019410612791575b5050811b019055612491565b8801515f1960f88460031b161c191690558a80612785565b9192602060018192868c01518155019401920161276b565b825f5260205f20601f830160051c810191602084106127fc575b601f0160051c01905b8181106127f15750612461565b5f81556001016127e4565b90915081906127db565b346101bd5760203660031901126101bd576004356001600160401b0381116101bd5760208061283c6128b5933690600401612aca565b604051928184925191829101835e81015f815203019020610b3760ff825416916128f56001820154916128e660028201546003830154600484015460058501549060068601549261288f60078801612c6f565b946128a8600d6128a1600a8b01612c6f565b9901612bcf565b996040519d8e809e612cae565b60208d015260408c015260608b015260808a015260a089015260c088015261014060e0880152610140870190612b43565b90858203610100870152612b43565b90838203610120850152612b1f565b346101bd5760603660031901126101bd576004356001600160401b0381116101bd57612934903690600401612aca565b6024356001600160401b0381116101bd57612953903690600401612aca565b906044356001600160a01b03811681036101bd57610b3792612974926130e5565b604051918291602083526020830190612b43565b346101bd5760203660031901126101bd576004356001600160401b0381116101bd576129bb6101bb913690600401612aca565b6130b7565b346101bd5760203660031901126101bd576004356001600160401b0381116101bd5761297460076020806129fb610b37953690600401612aca565b612a03613097565b50604051928184925191829101835e81015f81520301902001612c6f565b608081019081106001600160401b0382111761069757604052565b60e081019081106001600160401b0382111761069757604052565b606081019081106001600160401b0382111761069757604052565b604081019081106001600160401b0382111761069757604052565b61014081019081106001600160401b0382111761069757604052565b90601f801991011681019081106001600160401b0382111761069757604052565b81601f820112156101bd578035906001600160401b0382116106975760405192612afe601f8401601f191660200185612aa9565b828452602083830101116101bd57815f926020809301838601378301015290565b805180835260209291819084018484015e5f828201840152601f01601f1916010190565b906040612b6e612b5c8451606085526060850190612b1f565b60208501518482036020860152612b1f565b928101516001600160a01b031691015290565b608435906001600160a01b03821682036101bd57565b90600182811c92168015612bc5575b6020831014612bb157565b634e487b7160e01b5f52602260045260245ffd5b91607f1691612ba6565b9060405191825f825492612be284612b97565b8084529360018116908115612c4d5750600114612c09575b50612c0792500383612aa9565b565b90505f9291925260205f20905f915b818310612c31575050906020612c07928201015f612bfa565b6020919350806001915483858901015201910190918492612c18565b905060209250612c0794915060ff191682840152151560051b8201015f612bfa565b90604051612c7c81612a57565b60408193612c8981612bcf565b8352612c9760018201612bcf565b6020840152600201546001600160a01b0316910152565b906007821015611dd75752565b602081016020825282518091526040820191602060408360051b8301019401925f915b838310612ced57505050505090565b9091929394602080600192603f1985820301865288519060c080612d76612d45612d33612d23875160e0885260e0880190612b1f565b888801518782038a890152612b1f565b60408701518682036040880152612b1f565b60ff6060870151166060860152612d6460808701516080870190612cae565b60a086015185820360a0870152612b1f565b93015191015297019301930191939290612cde565b91906060838203126101bd5760405190612da482612a57565b819380356001600160401b0381116101bd5782612dc2918301612aca565b835260208101356001600160401b0381116101bd5782612de3918301612aca565b60208401526040810135916001600160401b0383116101bd57604092612e099201612aca565b910152565b91906040838203126101bd5760405190612e2782612a72565b819380356001600160401b0381116101bd5782612e45918301612aca565b83526020810135916001600160401b0383116101bd57602092612e099201612aca565b60406003198201126101bd57600435906001600160401b0382116101bd57612e9291600401612aca565b9060243590565b90612f3a9160208152612eb0602082018351612cae565b602082015160408201526040820151606082015260608201516080820152608082015160a082015260a082015160c082015260c082015160e0820152610120612f24612f0e60e0850151610140610100860152610160850190612b43565b610100850151848203601f190184860152612b43565b92015190610140601f1982850301910152612b1f565b90565b9060406003198301126101bd576004356001600160401b0381116101bd5782612f6891600401612aca565b91602435906001600160401b0382116101bd57612f3a91600401612aca565b91906060838203126101bd5760405190612fa082612a57565b819380356001600160401b0381116101bd5782612fbe918301612aca565b835260208101356001600160401b0381116101bd57604092612fe1918301612aca565b60208401520135906001600160a01b03821682036101bd5760400152565b60606003198201126101bd576004356001600160401b0381116101bd578161302991600401612aca565b916024356001600160401b0381116101bd578261304891600401612aca565b91604435906001600160401b0382116101bd57612f3a91600401612f87565b6002548110156130835760025f52600660205f20910201905f90565b634e487b7160e01b5f52603260045260245ffd5b604051906130a482612a57565b5f60408360608152606060208201520152565b60208091604051928184925191829101835e81015f815203019020426004820155600360ff19825416179055565b91906130ef613097565b50604051926130fd84612a57565b835260208301526001600160a01b0316604082015290565b5f929181549161312483612b97565b926001811690811561316c575060011461313d57505050565b90919293505f5260205f205f905b8382106131585750500190565b60018160209254848601520191019061314b565b60ff191683525050811515909102019150565b6001600160401b0381116106975760051b60200190565b906131a08261317f565b6131ad6040519182612aa9565b82815280926131be601f199161317f565b01905f5b8281106131ce57505050565b6020906040516131dd81612a3c565b60608152606083820152606060408201525f60608201525f6080820152606060a08201525f60c0820152828285010152016131c2565b80518210156130835760209160051b010190565b6007821015611dd75752565b9060405161324081612a3c565b60c06005829461324f81612bcf565b845261325d60018201612bcf565b602085015261326e60028201612bcf565b604085015261329260ff6003830154818116606088015260081c1660808601613227565b61329e60048201612bcf565b60a08501520154910152565b60ff1660ff8114610c535760010190565b6040518151612f3a92602091839181908401835e81016001815203019020612bcf565b904211156133145760208091604051928184925191829101835e81015f815203019020426006820155600560ff19825416179055565b60405162461bcd60e51b815260206004820152601860248201527f536572746966696b6174206d61736968206265726c616b7500000000000000006044820152606490fd5b6040519061336682612a8d565b6060610120835f81525f60208201525f60408201525f838201525f60808201525f60a08201525f60c082015261339a613097565b60e08201526133a7613097565b6101008201520152565b602080916133bd613359565b50604051928184925191829101835e81015f81520301902061345a600d604051926133e784612a8d565b6133f560ff82541685613227565b60018101546020850152600281015460408501526003810154606085015260048101546080850152600581015460a0850152600681015460c085015261343d60078201612c6f565b60e085015261344e600a8201612c6f565b61010085015201612bcf565b61012082015290565b92919060405160208551918181818901948086835e81015f81520301902095604051928391518091835e81016001815203019020908051906001600160401b0382116106975781906134b58454612b97565b601f81116137b0575b50602090601f831160011461374d575f92613742575b50508160011b915f199060031b1c19161790555b80518051600a8501916001600160401b038211610697576135098354612b97565b601f81116136fd575b50602090601f8311600114613696576020949392915f918361368b575b50508160011b915f199060031b1c19161790555b6040810151600c850180546001600160a01b0319166001600160a01b039290921691909117905501518051909290600b8201906001600160401b0381116106975761358e8254612b97565b601f8111613646575b50602094601f82116001146135e5579481929394955f926135da575b50508160011b915f199060031b1c19161790555b426003820155805460ff19166002179055565b015190505f806135b3565b601f19821695835f52805f20915f5b88811061362e57508360019596979810613616575b505050811b0190556135c7565b01515f1960f88460031b161c191690555f8080613609565b919260206001819286850151815501940192016135f4565b825f5260205f20601f830160051c81019160208410613681575b601f0160051c01905b8181106136765750613597565b5f8155600101613669565b9091508190613660565b015190505f8061352f565b90601f19831691845f52815f20925f5b8181106136e55750916001939185602098979694106136cd575b505050811b019055613543565b01515f1960f88460031b161c191690555f80806136c0565b929360206001819287860151815501950193016136a6565b835f5260205f20601f840160051c81019160208510613738575b601f0160051c01905b81811061372d5750613512565b5f8155600101613720565b9091508190613717565b015190505f806134d4565b5f8581528281209350601f198516905b8181106137985750908460019594939210613780575b505050811b0190556134e8565b01515f1960f88460031b161c191690555f8080613773565b9293602060018192878601518155019501930161375d565b909150835f5260205f20601f840160051c810191602085106137f6575b90601f859493920160051c01905b8181106137e857506134be565b5f81558493506001016137db565b90915081906137cd565b6020809194939294604051928184925191829101835e81015f815203019020908051600a8301908051906001600160401b038211610697576138428354612b97565b601f8111613b4e575b50602090601f8311600114613ae7576020949392915f9183613adc575b50508160011b915f199060031b1c19161790555b6040810151600c840180546001600160a01b0319166001600160a01b039290921691909117905501518051600b8301916001600160401b0382116106975781906138c68454612b97565b601f8111613a8c575b50602090601f8311600114613a29575f92613a1e575b50508160011b915f199060031b1c19161790555b4260028201556082420190814211610c5357600d916005820155600160ff198254161781550182516001600160401b038111610697576139398254612b97565b601f81116139d9575b506020601f821160011461397b57819293945f92613970575b50508160011b915f199060031b1c1916179055565b015190505f8061395b565b601f19821690835f52805f20915f5b8181106139c1575095836001959697106139a9575b505050811b019055565b01515f1960f88460031b161c191690555f808061399f565b9192602060018192868b01518155019401920161398a565b825f5260205f20601f830160051c81019160208410613a14575b601f0160051c01905b818110613a095750613942565b5f81556001016139fc565b90915081906139f3565b015190505f806138e5565b5f8581528281209350601f198516905b818110613a745750908460019594939210613a5c575b505050811b0190556138f9565b01515f1960f88460031b161c191690555f8080613a4f565b92936020600181928786015181550195019301613a39565b909150835f5260205f20601f840160051c81019160208510613ad2575b90601f859493920160051c01905b818110613ac457506138cf565b5f8155849350600101613ab7565b9091508190613aa9565b015190505f80613868565b90601f19831691845f52815f20925f5b818110613b36575091600193918560209897969410613b1e575b505050811b01905561387c565b01515f1960f88460031b161c191690555f8080613b11565b92936020600181928786015181550195019301613af7565b835f5260205f20601f840160051c81019160208510613b89575b601f0160051c01905b818110613b7e575061384b565b5f8155600101613b71565b9091508190613b68565b60208091939293604051928184925191829101835e81015f8152030190204260028201556082420190814211610c5357600d916005820155600660ff198254161781550182516001600160401b03811161069757613bf18254612b97565b601f8111613c6c575b506020601f8211600114613c2757819293945f926139705750508160011b915f199060031b1c1916179055565b601f19821690835f52805f20915f5b818110613c54575095836001959697106139a957505050811b019055565b9192602060018192868b015181550194019201613c36565b825f5260205f20601f830160051c81019160208410613ca7575b601f0160051c01905b818110613c9c5750613bfa565b5f8155600101613c8f565b9091508190613c86565b929091604051613cc081612a8d565b5f81526020810194428652604082015f8152606083015f8152608084015f815260a08501915f835260c08601935f855260e087019586526101008701998a5260209a8b806040519a613d12828d612aa9565b5f8c526101208b019b8c52604051928184925191829101835e81015f81520301902097516007811015611dd75760ff80198a541691161788555160018801555160028701555160038601555160048501555160058401555160068301556007820190519081518051906001600160401b038211610697578190613d958454612b97565b601f81116142a2575b508990601f831160011461423f575f92614234575b50508160011b915f199060031b1c19161790555b60088201868201518051906001600160401b038211610697578190613dec8454612b97565b601f81116141e6575b508990601f8311600114614183575f92614178575b50508160011b915f199060031b1c19161790555b604001516009820180546001600160a01b0319166001600160a01b0392909216919091179055925180518051919491600a8301916001600160401b038211610697578190613e6c8454612b97565b601f811161412a575b508890601f83116001146140c7575f926140bc575b50508160011b915f199060031b1c19161790555b600b81019385810151948551956001600160401b03871161069757613ec38254612b97565b601f8111614079575b508790601f881160011461401257968091600d9697985f92614007575b50508160011b915f199060031b1c19161790555b60400151600c820180546001600160a01b0319166001600160a01b03929092169190911790559151805190949190920191906001600160401b03821161069757613f478354612b97565b601f8111613fc4575b5080601f8311600114613f7d5750819293945f926139705750508160011b915f199060031b1c1916179055565b90601f19831695845f52825f20925f905b888210613fac575050836001959697106139a957505050811b019055565b80600185968294968601518155019501930190613f8e565b835f52815f20601f840160051c810191838510613ffd575b601f0160051c01905b818110613ff25750613f50565b5f8155600101613fe5565b9091508190613fdc565b015190505f80613ee9565b90601f19881691835f52895f20925f5b8b82821061406357505091600193918a600d999a9b941061404b575b505050811b019055613efd565b01515f1960f88460031b161c191690555f808061403e565b6001859682939686015181550195019301614022565b825f52885f20601f890160051c8101918a8a106140b2575b601f0160051c01905b8181106140a75750613ecc565b5f815560010161409a565b9091508190614091565b015190505f80613e8a565b5f8581528a81209350601f198516905b8b8282106141145750509084600195949392106140fc575b505050811b019055613e9e565b01515f1960f88460031b161c191690555f80806140ef565b60018596829396860151815501950193016140d7565b909150835f52885f20601f840160051c8101918a851061416e575b90601f859493920160051c01905b8181106141605750613e75565b5f8155849350600101614153565b9091508190614145565b015190505f80613e0a565b5f8581528b81209350601f198516905b8c8282106141d05750509084600195949392106141b8575b505050811b019055613e1e565b01515f1960f88460031b161c191690555f80806141ab565b6001859682939686015181550195019301614193565b909150835f52895f20601f840160051c8101918b851061422a575b90601f859493920160051c01905b81811061421c5750613df5565b5f815584935060010161420f565b9091508190614201565b015190505f80613db3565b5f8581528b81209350601f198516905b8c82821061428c575050908460019594939210614274575b505050811b019055613dc7565b01515f1960f88460031b161c191690555f8080614267565b600185968293968601518155019501930161424f565b909150835f52895f20601f840160051c8101918b85106142e6575b90601f859493920160051c01905b8181106142d85750613d9e565b5f81558493506001016142cb565b90915081906142bd56fea2646970667358221220e6b01775f0129ee13e48ed376bf40e81945fb2393490bca83baf50f7a01b4cf564736f6c634300081b0033","opcodes":"PUSH1 0x80 DUP1 PUSH1 0x40 MSTORE CALLVALUE PUSH1 0x15 JUMPI PUSH2 0x4326 SWAP1 DUP2 PUSH2 0x1A DUP3 CODECOPY RETURN JUMPDEST PUSH0 DUP1 REVERT INVALID PUSH1 0x80 PUSH1 0x40 MSTORE PUSH1 0x4 CALLDATASIZE LT ISZERO PUSH2 0x11 JUMPI PUSH0 DUP1 REVERT JUMPDEST PUSH0 CALLDATALOAD PUSH1 0xE0 SHR DUP1 PUSH4 0x17E68309 EQ PUSH2 0x29C0 JUMPI DUP1 PUSH4 0x19859C87 EQ PUSH2 0x2988 JUMPI DUP1 PUSH4 0x2E9CF827 EQ PUSH2 0x2904 JUMPI DUP1 PUSH4 0x34A34F30 EQ PUSH2 0x2806 JUMPI DUP1 PUSH4 0x4EEA4B8F EQ PUSH2 0x235C JUMPI DUP1 PUSH4 0x500619D0 EQ PUSH2 0x22DB JUMPI DUP1 PUSH4 0x5850607C EQ PUSH2 0x2273 JUMPI DUP1 PUSH4 0x64B409FF EQ PUSH2 0x12C4 JUMPI DUP1 PUSH4 0x6AA81299 EQ PUSH2 0x1210 JUMPI DUP1 PUSH4 0x6D1AA7D5 EQ PUSH2 0xF77 JUMPI DUP1 PUSH4 0x70C056B0 EQ PUSH2 0xFB2 JUMPI DUP1 PUSH4 0x761FB19A EQ PUSH2 0xF77 JUMPI DUP1 PUSH4 0x7AB09648 EQ PUSH2 0xED0 JUMPI DUP1 PUSH4 0x81FC60A5 EQ PUSH2 0xD61 JUMPI DUP1 PUSH4 0x8B11D37B EQ PUSH2 0xCB9 JUMPI DUP1 PUSH4 0x9740DBED EQ PUSH2 0xCA2 JUMPI DUP1 PUSH4 0x9AAA5D8B EQ PUSH2 0xC67 JUMPI DUP1 PUSH4 0xB0730436 EQ PUSH2 0xB8B JUMPI DUP1 PUSH4 0xBE2E2325 EQ PUSH2 0xB3B JUMPI DUP1 PUSH4 0xBF3F80AC EQ PUSH2 0xACD JUMPI DUP1 PUSH4 0xE462DDE5 EQ PUSH2 0x994 JUMPI DUP1 PUSH4 0xE8002B27 EQ PUSH2 0x2DA JUMPI DUP1 PUSH4 0xE9C260D7 EQ PUSH2 0x2C3 JUMPI DUP1 PUSH4 0xF02F5F23 EQ PUSH2 0x1EF JUMPI DUP1 PUSH4 0xF5104FF1 EQ PUSH2 0x1D8 JUMPI DUP1 PUSH4 0xF53EF126 EQ PUSH2 0x1C1 JUMPI PUSH4 0xFB5FB9A3 EQ PUSH2 0x142 JUMPI PUSH0 DUP1 REVERT JUMPDEST CALLVALUE PUSH2 0x1BD JUMPI PUSH1 0x60 CALLDATASIZE PUSH1 0x3 NOT ADD SLT PUSH2 0x1BD JUMPI PUSH1 0x4 CALLDATALOAD PUSH1 0x1 PUSH1 0x1 PUSH1 0x40 SHL SUB DUP2 GT PUSH2 0x1BD JUMPI PUSH2 0x172 SWAP1 CALLDATASIZE SWAP1 PUSH1 0x4 ADD PUSH2 0x2F87 JUMP JUMPDEST PUSH1 0x24 CALLDATALOAD PUSH1 0x1 PUSH1 0x1 PUSH1 0x40 SHL SUB DUP2 GT PUSH2 0x1BD JUMPI PUSH2 0x191 SWAP1 CALLDATASIZE SWAP1 PUSH1 0x4 ADD PUSH2 0x2F87 JUMP JUMPDEST SWAP1 PUSH1 0x44 CALLDATALOAD SWAP2 PUSH1 0x1 PUSH1 0x1 PUSH1 0x40 SHL SUB DUP4 GT PUSH2 0x1BD JUMPI PUSH2 0x1B5 PUSH2 0x1BB SWAP4 CALLDATASIZE SWAP1 PUSH1 0x4 ADD PUSH2 0x2ACA JUMP JUMPDEST SWAP2 PUSH2 0x3CB1 JUMP JUMPDEST STOP JUMPDEST PUSH0 DUP1 REVERT JUMPDEST CALLVALUE PUSH2 0x1BD JUMPI PUSH2 0x1BB PUSH2 0x1D2 CALLDATASIZE PUSH2 0x2F3D JUMP JUMPDEST SWAP1 PUSH2 0x3B93 JUMP JUMPDEST CALLVALUE PUSH2 0x1BD JUMPI PUSH2 0x1BB PUSH2 0x1E9 CALLDATASIZE PUSH2 0x2FFF JUMP JUMPDEST SWAP2 PUSH2 0x3800 JUMP JUMPDEST CALLVALUE PUSH2 0x1BD JUMPI PUSH1 0x20 CALLDATASIZE PUSH1 0x3 NOT ADD SLT PUSH2 0x1BD JUMPI PUSH1 0x4 CALLDATALOAD PUSH1 0x2 SLOAD DUP2 LT ISZERO PUSH2 0x1BD JUMPI PUSH2 0x219 PUSH2 0x276 SWAP2 PUSH2 0x3067 JUMP JUMPDEST POP PUSH2 0x223 DUP2 PUSH2 0x2BCF JUMP JUMPDEST SWAP1 PUSH2 0x2B9 PUSH2 0x233 PUSH1 0x1 DUP4 ADD PUSH2 0x2BCF JUMP JUMPDEST SWAP2 PUSH2 0x240 PUSH1 0x2 DUP3 ADD PUSH2 0x2BCF JUMP JUMPDEST SWAP1 PUSH2 0x2AC PUSH2 0x292 PUSH1 0x3 DUP4 ADD SLOAD SWAP4 PUSH2 0x284 PUSH1 0x5 PUSH2 0x25E PUSH1 0x4 DUP8 ADD PUSH2 0x2BCF JUMP JUMPDEST SWAP6 ADD SLOAD SWAP8 PUSH1 0x40 MLOAD SWAP11 DUP12 SWAP11 PUSH1 0xE0 DUP13 MSTORE PUSH1 0xE0 DUP13 ADD SWAP1 PUSH2 0x2B1F JUMP JUMPDEST SWAP1 DUP11 DUP3 SUB PUSH1 0x20 DUP13 ADD MSTORE PUSH2 0x2B1F JUMP JUMPDEST SWAP1 DUP9 DUP3 SUB PUSH1 0x40 DUP11 ADD MSTORE PUSH2 0x2B1F JUMP JUMPDEST SWAP3 PUSH1 0xFF DUP2 AND PUSH1 0x60 DUP9 ADD MSTORE PUSH1 0xFF PUSH1 0x80 DUP9 ADD SWAP2 PUSH1 0x8 SHR AND PUSH2 0x2CAE JUMP JUMPDEST DUP5 DUP3 SUB PUSH1 0xA0 DUP7 ADD MSTORE PUSH2 0x2B1F JUMP JUMPDEST SWAP1 PUSH1 0xC0 DUP4 ADD MSTORE SUB SWAP1 RETURN JUMPDEST CALLVALUE PUSH2 0x1BD JUMPI PUSH2 0x1BB PUSH2 0x2D4 CALLDATASIZE PUSH2 0x2FFF JUMP JUMPDEST SWAP2 PUSH2 0x3463 JUMP JUMPDEST CALLVALUE PUSH2 0x1BD JUMPI PUSH1 0x60 CALLDATASIZE PUSH1 0x3 NOT ADD SLT PUSH2 0x1BD JUMPI PUSH1 0x4 CALLDATALOAD PUSH1 0x1 PUSH1 0x1 PUSH1 0x40 SHL SUB DUP2 GT PUSH2 0x1BD JUMPI PUSH2 0x30A SWAP1 CALLDATASIZE SWAP1 PUSH1 0x4 ADD PUSH2 0x2ACA JUMP JUMPDEST PUSH1 0x24 CALLDATALOAD PUSH1 0x1 PUSH1 0x1 PUSH1 0x40 SHL SUB DUP2 GT PUSH2 0x1BD JUMPI PUSH2 0x329 SWAP1 CALLDATASIZE SWAP1 PUSH1 0x4 ADD PUSH2 0x2D8B JUMP JUMPDEST SWAP1 PUSH1 0x44 CALLDATALOAD PUSH1 0x1 PUSH1 0x1 PUSH1 0x40 SHL SUB DUP2 GT PUSH2 0x1BD JUMPI PUSH2 0x349 SWAP1 CALLDATASIZE SWAP1 PUSH1 0x4 ADD PUSH2 0x2E0E JUMP JUMPDEST PUSH2 0x352 DUP3 PUSH2 0x30B7 JUMP JUMPDEST PUSH1 0x2 SLOAD SWAP2 PUSH1 0x20 DUP2 ADD SWAP1 PUSH0 JUMPDEST DUP5 DUP2 LT PUSH2 0x366 JUMPI STOP JUMPDEST PUSH2 0x36F DUP2 PUSH2 0x3067 JUMP JUMPDEST POP PUSH1 0x40 MLOAD PUSH2 0x393 DUP2 PUSH2 0x385 PUSH1 0x20 DUP3 ADD DUP1 SWAP6 PUSH2 0x3115 JUMP JUMPDEST SUB PUSH1 0x1F NOT DUP2 ADD DUP4 MSTORE DUP3 PUSH2 0x2AA9 JUMP JUMPDEST MLOAD SWAP1 KECCAK256 PUSH1 0x40 MLOAD PUSH1 0x20 DUP2 ADD SWAP1 PUSH2 0x3C0 PUSH1 0x20 DUP3 DUP8 MLOAD DUP1 DUP11 DUP8 MCOPY DUP2 ADD PUSH0 DUP4 DUP3 ADD MSTORE SUB ADD PUSH1 0x1F NOT DUP2 ADD DUP4 MSTORE DUP3 PUSH2 0x2AA9 JUMP JUMPDEST MLOAD SWAP1 KECCAK256 EQ PUSH2 0x3D1 JUMPI JUMPDEST PUSH1 0x1 ADD PUSH2 0x35D JUMP JUMPDEST PUSH1 0x3 PUSH2 0x3DC DUP3 PUSH2 0x3067 JUMP JUMPDEST POP ADD DUP1 SLOAD PUSH2 0xFF00 NOT AND PUSH2 0x300 OR SWAP1 SSTORE PUSH2 0x406 PUSH1 0x20 PUSH2 0x3F9 DUP4 PUSH2 0x3067 JUMP JUMPDEST POP PUSH1 0x40 MLOAD SWAP3 DUP4 DUP1 SWAP3 PUSH2 0x3115 JUMP JUMPDEST PUSH1 0x4 DUP2 MSTORE SUB ADD SWAP1 KECCAK256 DUP7 MLOAD DUP1 MLOAD SWAP1 PUSH1 0x1 PUSH1 0x1 PUSH1 0x40 SHL SUB DUP3 GT PUSH2 0x697 JUMPI DUP2 SWAP1 PUSH2 0x42D DUP5 SLOAD PUSH2 0x2B97 JUMP JUMPDEST PUSH1 0x1F DUP2 GT PUSH2 0x944 JUMPI JUMPDEST POP PUSH1 0x20 SWAP1 PUSH1 0x1F DUP4 GT PUSH1 0x1 EQ PUSH2 0x8E1 JUMPI PUSH0 SWAP3 PUSH2 0x8D6 JUMPI JUMPDEST POP POP DUP2 PUSH1 0x1 SHL SWAP2 PUSH0 NOT SWAP1 PUSH1 0x3 SHL SHR NOT AND OR DUP2 SSTORE JUMPDEST PUSH1 0x1 DUP2 ADD PUSH1 0x20 DUP9 ADD MLOAD DUP1 MLOAD SWAP1 PUSH1 0x1 PUSH1 0x1 PUSH1 0x40 SHL SUB DUP3 GT PUSH2 0x697 JUMPI PUSH2 0x484 DUP4 SLOAD PUSH2 0x2B97 JUMP JUMPDEST PUSH1 0x1F DUP2 GT PUSH2 0x891 JUMPI JUMPDEST POP PUSH1 0x20 SWAP1 PUSH1 0x1F DUP4 GT PUSH1 0x1 EQ PUSH2 0x82A JUMPI PUSH1 0x2 SWAP5 SWAP4 SWAP3 SWAP2 PUSH0 SWAP2 DUP4 PUSH2 0x81F JUMPI JUMPDEST POP POP DUP2 PUSH1 0x1 SHL SWAP2 PUSH0 NOT SWAP1 PUSH1 0x3 SHL SHR NOT AND OR SWAP1 SSTORE JUMPDEST ADD PUSH1 0x40 DUP8 ADD MLOAD DUP1 MLOAD SWAP1 PUSH1 0x1 PUSH1 0x1 PUSH1 0x40 SHL SUB DUP3 GT PUSH2 0x697 JUMPI DUP2 SWAP1 PUSH2 0x4E1 DUP5 SLOAD PUSH2 0x2B97 JUMP JUMPDEST PUSH1 0x1F DUP2 GT PUSH2 0x7CF JUMPI JUMPDEST POP PUSH1 0x20 SWAP1 PUSH1 0x1F DUP4 GT PUSH1 0x1 EQ PUSH2 0x76C JUMPI PUSH0 SWAP3 PUSH2 0x761 JUMPI JUMPDEST POP POP DUP2 PUSH1 0x1 SHL SWAP2 PUSH0 NOT SWAP1 PUSH1 0x3 SHL SHR NOT AND OR SWAP1 SSTORE JUMPDEST PUSH2 0x522 PUSH1 0x20 PUSH2 0x3F9 DUP4 PUSH2 0x3067 JUMP JUMPDEST PUSH1 0x5 DUP2 MSTORE SUB ADD SWAP1 KECCAK256 DUP5 MLOAD DUP1 MLOAD SWAP1 PUSH1 0x1 PUSH1 0x1 PUSH1 0x40 SHL SUB DUP3 GT PUSH2 0x697 JUMPI PUSH2 0x547 DUP4 SLOAD PUSH2 0x2B97 JUMP JUMPDEST PUSH1 0x1F DUP2 GT PUSH2 0x71C JUMPI JUMPDEST POP PUSH1 0x20 SWAP1 PUSH1 0x1F DUP4 GT PUSH1 0x1 EQ PUSH2 0x6B6 JUMPI PUSH1 0x1 SWAP4 SWAP3 SWAP2 PUSH0 SWAP2 DUP4 PUSH2 0x6AB JUMPI JUMPDEST POP POP PUSH0 NOT PUSH1 0x3 DUP4 SWAP1 SHL SHR NOT AND SWAP1 DUP4 SHL OR DUP2 SSTORE JUMPDEST ADD PUSH1 0x20 DUP6 ADD MLOAD DUP1 MLOAD SWAP1 PUSH1 0x1 PUSH1 0x1 PUSH1 0x40 SHL SUB DUP3 GT PUSH2 0x697 JUMPI PUSH2 0x5A0 DUP4 SLOAD PUSH2 0x2B97 JUMP JUMPDEST PUSH1 0x1F DUP2 GT PUSH2 0x652 JUMPI JUMPDEST POP PUSH1 0x20 SWAP1 PUSH1 0x1F DUP4 GT PUSH1 0x1 EQ PUSH2 0x5EB JUMPI PUSH1 0x1 SWAP5 SWAP4 SWAP3 SWAP2 PUSH0 SWAP2 DUP4 PUSH2 0x5E0 JUMPI JUMPDEST POP POP PUSH0 NOT PUSH1 0x3 DUP4 SWAP1 SHL SHR NOT AND SWAP1 DUP5 SHL OR SWAP1 SSTORE JUMPDEST SWAP1 POP PUSH2 0x3C9 JUMP JUMPDEST ADD MLOAD SWAP1 POP DUP11 DUP1 PUSH2 0x5C6 JUMP JUMPDEST SWAP1 PUSH1 0x1F NOT DUP4 AND SWAP2 DUP5 PUSH0 MSTORE DUP2 PUSH0 KECCAK256 SWAP3 PUSH0 JUMPDEST DUP2 DUP2 LT PUSH2 0x63A JUMPI POP SWAP2 PUSH1 0x1 SWAP7 SWAP6 SWAP5 SWAP3 SWAP2 DUP4 DUP9 SWAP6 SWAP4 LT PUSH2 0x622 JUMPI JUMPDEST POP POP POP DUP2 SHL ADD SWAP1 SSTORE PUSH2 0x5D9 JUMP JUMPDEST ADD MLOAD PUSH0 NOT PUSH1 0xF8 DUP5 PUSH1 0x3 SHL AND SHR NOT AND SWAP1 SSTORE DUP11 DUP1 DUP1 PUSH2 0x615 JUMP JUMPDEST SWAP3 SWAP4 PUSH1 0x20 PUSH1 0x1 DUP2 SWAP3 DUP8 DUP7 ADD MLOAD DUP2 SSTORE ADD SWAP6 ADD SWAP4 ADD PUSH2 0x5FB JUMP JUMPDEST DUP4 PUSH0 MSTORE PUSH1 0x20 PUSH0 KECCAK256 PUSH1 0x1F DUP5 ADD PUSH1 0x5 SHR DUP2 ADD SWAP2 PUSH1 0x20 DUP6 LT PUSH2 0x68D JUMPI JUMPDEST PUSH1 0x1F ADD PUSH1 0x5 SHR ADD SWAP1 JUMPDEST DUP2 DUP2 LT PUSH2 0x682 JUMPI POP PUSH2 0x5A9 JUMP JUMPDEST PUSH0 DUP2 SSTORE PUSH1 0x1 ADD PUSH2 0x675 JUMP JUMPDEST SWAP1 SWAP2 POP DUP2 SWAP1 PUSH2 0x66C JUMP JUMPDEST PUSH4 0x4E487B71 PUSH1 0xE0 SHL PUSH0 MSTORE PUSH1 0x41 PUSH1 0x4 MSTORE PUSH1 0x24 PUSH0 REVERT JUMPDEST ADD MLOAD SWAP1 POP DUP11 DUP1 PUSH2 0x56C JUMP JUMPDEST SWAP1 PUSH1 0x1F NOT DUP4 AND SWAP2 DUP5 PUSH0 MSTORE DUP2 PUSH0 KECCAK256 SWAP3 PUSH0 JUMPDEST DUP2 DUP2 LT PUSH2 0x704 JUMPI POP SWAP2 PUSH1 0x1 SWAP6 SWAP5 SWAP3 SWAP2 DUP4 DUP8 SWAP6 SWAP4 LT PUSH2 0x6EC JUMPI JUMPDEST POP POP POP DUP2 SHL ADD DUP2 SSTORE PUSH2 0x57F JUMP JUMPDEST ADD MLOAD PUSH0 NOT PUSH1 0xF8 DUP5 PUSH1 0x3 SHL AND SHR NOT AND SWAP1 SSTORE DUP11 DUP1 DUP1 PUSH2 0x6DF JUMP JUMPDEST SWAP3 SWAP4 PUSH1 0x20 PUSH1 0x1 DUP2 SWAP3 DUP8 DUP7 ADD MLOAD DUP2 SSTORE ADD SWAP6 ADD SWAP4 ADD PUSH2 0x6C6 JUMP JUMPDEST DUP4 PUSH0 MSTORE PUSH1 0x20 PUSH0 KECCAK256 PUSH1 0x1F DUP5 ADD PUSH1 0x5 SHR DUP2 ADD SWAP2 PUSH1 0x20 DUP6 LT PUSH2 0x757 JUMPI JUMPDEST PUSH1 0x1F ADD PUSH1 0x5 SHR ADD SWAP1 JUMPDEST DUP2 DUP2 LT PUSH2 0x74C JUMPI POP PUSH2 0x550 JUMP JUMPDEST PUSH0 DUP2 SSTORE PUSH1 0x1 ADD PUSH2 0x73F JUMP JUMPDEST SWAP1 SWAP2 POP DUP2 SWAP1 PUSH2 0x736 JUMP JUMPDEST ADD MLOAD SWAP1 POP DUP10 DUP1 PUSH2 0x500 JUMP JUMPDEST PUSH0 DUP6 DUP2 MSTORE DUP3 DUP2 KECCAK256 SWAP4 POP PUSH1 0x1F NOT DUP6 AND SWAP1 JUMPDEST DUP2 DUP2 LT PUSH2 0x7B7 JUMPI POP SWAP1 DUP5 PUSH1 0x1 SWAP6 SWAP5 SWAP4 SWAP3 LT PUSH2 0x79F JUMPI JUMPDEST POP POP POP DUP2 SHL ADD SWAP1 SSTORE PUSH2 0x514 JUMP JUMPDEST ADD MLOAD PUSH0 NOT PUSH1 0xF8 DUP5 PUSH1 0x3 SHL AND SHR NOT AND SWAP1 SSTORE DUP10 DUP1 DUP1 PUSH2 0x792 JUMP JUMPDEST SWAP3 SWAP4 PUSH1 0x20 PUSH1 0x1 DUP2 SWAP3 DUP8 DUP7 ADD MLOAD DUP2 SSTORE ADD SWAP6 ADD SWAP4 ADD PUSH2 0x77C JUMP JUMPDEST SWAP1 SWAP2 POP DUP4 PUSH0 MSTORE PUSH1 0x20 PUSH0 KECCAK256 PUSH1 0x1F DUP5 ADD PUSH1 0x5 SHR DUP2 ADD SWAP2 PUSH1 0x20 DUP6 LT PUSH2 0x815 JUMPI JUMPDEST SWAP1 PUSH1 0x1F DUP6 SWAP5 SWAP4 SWAP3 ADD PUSH1 0x5 SHR ADD SWAP1 JUMPDEST DUP2 DUP2 LT PUSH2 0x807 JUMPI POP PUSH2 0x4EA JUMP JUMPDEST PUSH0 DUP2 SSTORE DUP5 SWAP4 POP PUSH1 0x1 ADD PUSH2 0x7FA JUMP JUMPDEST SWAP1 SWAP2 POP DUP2 SWAP1 PUSH2 0x7EC JUMP JUMPDEST ADD MLOAD SWAP1 POP DUP12 DUP1 PUSH2 0x4AA JUMP JUMPDEST SWAP1 PUSH1 0x1F NOT DUP4 AND SWAP2 DUP5 PUSH0 MSTORE DUP2 PUSH0 KECCAK256 SWAP3 PUSH0 JUMPDEST DUP2 DUP2 LT PUSH2 0x879 JUMPI POP SWAP2 PUSH1 0x1 SWAP4 SWAP2 DUP6 PUSH1 0x2 SWAP9 SWAP8 SWAP7 SWAP5 LT PUSH2 0x861 JUMPI JUMPDEST POP POP POP DUP2 SHL ADD SWAP1 SSTORE PUSH2 0x4BE JUMP JUMPDEST ADD MLOAD PUSH0 NOT PUSH1 0xF8 DUP5 PUSH1 0x3 SHL AND SHR NOT AND SWAP1 SSTORE DUP12 DUP1 DUP1 PUSH2 0x854 JUMP JUMPDEST SWAP3 SWAP4 PUSH1 0x20 PUSH1 0x1 DUP2 SWAP3 DUP8 DUP7 ADD MLOAD DUP2 SSTORE ADD SWAP6 ADD SWAP4 ADD PUSH2 0x83A JUMP JUMPDEST DUP4 PUSH0 MSTORE PUSH1 0x20 PUSH0 KECCAK256 PUSH1 0x1F DUP5 ADD PUSH1 0x5 SHR DUP2 ADD SWAP2 PUSH1 0x20 DUP6 LT PUSH2 0x8CC JUMPI JUMPDEST PUSH1 0x1F ADD PUSH1 0x5 SHR ADD SWAP1 JUMPDEST DUP2 DUP2 LT PUSH2 0x8C1 JUMPI POP PUSH2 0x48D JUMP JUMPDEST PUSH0 DUP2 SSTORE PUSH1 0x1 ADD PUSH2 0x8B4 JUMP JUMPDEST SWAP1 SWAP2 POP DUP2 SWAP1 PUSH2 0x8AB JUMP JUMPDEST ADD MLOAD SWAP1 POP DUP10 DUP1 PUSH2 0x44C JUMP JUMPDEST PUSH0 DUP6 DUP2 MSTORE DUP3 DUP2 KECCAK256 SWAP4 POP PUSH1 0x1F NOT DUP6 AND SWAP1 JUMPDEST DUP2 DUP2 LT PUSH2 0x92C JUMPI POP SWAP1 DUP5 PUSH1 0x1 SWAP6 SWAP5 SWAP4 SWAP3 LT PUSH2 0x914 JUMPI JUMPDEST POP POP POP DUP2 SHL ADD DUP2 SSTORE PUSH2 0x460 JUMP JUMPDEST ADD MLOAD PUSH0 NOT PUSH1 0xF8 DUP5 PUSH1 0x3 SHL AND SHR NOT AND SWAP1 SSTORE DUP10 DUP1 DUP1 PUSH2 0x907 JUMP JUMPDEST SWAP3 SWAP4 PUSH1 0x20 PUSH1 0x1 DUP2 SWAP3 DUP8 DUP7 ADD MLOAD DUP2 SSTORE ADD SWAP6 ADD SWAP4 ADD PUSH2 0x8F1 JUMP JUMPDEST SWAP1 SWAP2 POP DUP4 PUSH0 MSTORE PUSH1 0x20 PUSH0 KECCAK256 PUSH1 0x1F DUP5 ADD PUSH1 0x5 SHR DUP2 ADD SWAP2 PUSH1 0x20 DUP6 LT PUSH2 0x98A JUMPI JUMPDEST SWAP1 PUSH1 0x1F DUP6 SWAP5 SWAP4 SWAP3 ADD PUSH1 0x5 SHR ADD SWAP1 JUMPDEST DUP2 DUP2 LT PUSH2 0x97C JUMPI POP PUSH2 0x436 JUMP JUMPDEST PUSH0 DUP2 SSTORE DUP5 SWAP4 POP PUSH1 0x1 ADD PUSH2 0x96F JUMP JUMPDEST SWAP1 SWAP2 POP DUP2 SWAP1 PUSH2 0x961 JUMP JUMPDEST CALLVALUE PUSH2 0x1BD JUMPI PUSH1 0xA0 CALLDATASIZE PUSH1 0x3 NOT ADD SLT PUSH2 0x1BD JUMPI PUSH1 0x4 CALLDATALOAD PUSH1 0x1 PUSH1 0x1 PUSH1 0x40 SHL SUB DUP2 GT PUSH2 0x1BD JUMPI PUSH2 0x9C4 SWAP1 CALLDATASIZE SWAP1 PUSH1 0x4 ADD PUSH2 0x2ACA JUMP JUMPDEST PUSH1 0x24 CALLDATALOAD PUSH1 0x1 PUSH1 0x1 PUSH1 0x40 SHL SUB DUP2 GT PUSH2 0x1BD JUMPI PUSH2 0x9E3 SWAP1 CALLDATASIZE SWAP1 PUSH1 0x4 ADD PUSH2 0x2ACA JUMP JUMPDEST PUSH1 0x44 CALLDATALOAD PUSH1 0x1 PUSH1 0x1 PUSH1 0x40 SHL SUB DUP2 GT PUSH2 0x1BD JUMPI PUSH2 0xA02 SWAP1 CALLDATASIZE SWAP1 PUSH1 0x4 ADD PUSH2 0x2ACA JUMP JUMPDEST SWAP1 PUSH1 0x64 CALLDATALOAD PUSH1 0x1 PUSH1 0x1 PUSH1 0x40 SHL SUB DUP2 GT PUSH2 0x1BD JUMPI PUSH2 0xA3E SWAP3 PUSH2 0xA29 PUSH2 0xA37 SWAP3 CALLDATASIZE SWAP1 PUSH1 0x4 ADD PUSH2 0x2ACA JUMP JUMPDEST PUSH2 0xA31 PUSH2 0x2B81 JUMP JUMPDEST SWAP2 PUSH2 0x30E5 JUMP JUMPDEST SWAP1 DUP4 PUSH2 0x3463 JUMP JUMPDEST PUSH1 0x2 SLOAD PUSH1 0x20 DUP3 ADD PUSH0 JUMPDEST DUP3 DUP2 LT PUSH2 0xA50 JUMPI STOP JUMPDEST DUP1 PUSH2 0xA5C PUSH1 0x1 SWAP3 PUSH2 0x3067 JUMP JUMPDEST POP PUSH1 0x40 MLOAD PUSH2 0xA72 DUP2 PUSH2 0x385 PUSH1 0x20 DUP3 ADD DUP1 SWAP6 PUSH2 0x3115 JUMP JUMPDEST MLOAD SWAP1 KECCAK256 PUSH1 0x40 MLOAD PUSH1 0x20 DUP2 ADD SWAP1 PUSH2 0xA9F PUSH1 0x20 DUP3 DUP11 MLOAD DUP1 DUP11 DUP8 MCOPY DUP2 ADD PUSH0 DUP4 DUP3 ADD MSTORE SUB ADD PUSH1 0x1F NOT DUP2 ADD DUP4 MSTORE DUP3 PUSH2 0x2AA9 JUMP JUMPDEST MLOAD SWAP1 KECCAK256 EQ PUSH2 0xAAE JUMPI JUMPDEST ADD PUSH2 0xA47 JUMP JUMPDEST PUSH1 0x3 PUSH2 0xAB9 DUP3 PUSH2 0x3067 JUMP JUMPDEST POP ADD DUP1 SLOAD PUSH2 0xFF00 NOT AND PUSH2 0x200 OR SWAP1 SSTORE PUSH2 0xAA8 JUMP JUMPDEST CALLVALUE PUSH2 0x1BD JUMPI PUSH1 0x20 CALLDATASIZE PUSH1 0x3 NOT ADD SLT PUSH2 0x1BD JUMPI PUSH1 0x4 CALLDATALOAD PUSH1 0x1 PUSH1 0x1 PUSH1 0x40 SHL SUB DUP2 GT PUSH2 0x1BD JUMPI PUSH2 0xB23 PUSH1 0x20 DUP1 PUSH2 0xB06 PUSH2 0xB37 SWAP5 CALLDATASIZE SWAP1 PUSH1 0x4 ADD PUSH2 0x2ACA JUMP JUMPDEST PUSH1 0x40 MLOAD SWAP3 DUP2 DUP5 SWAP3 MLOAD SWAP2 DUP3 SWAP2 ADD DUP4 MCOPY DUP2 ADD PUSH1 0x1 DUP2 MSTORE SUB ADD SWAP1 KECCAK256 PUSH2 0x2BCF JUMP JUMPDEST PUSH1 0x40 MLOAD SWAP2 DUP3 SWAP2 PUSH1 0x20 DUP4 MSTORE PUSH1 0x20 DUP4 ADD SWAP1 PUSH2 0x2B1F JUMP JUMPDEST SUB SWAP1 RETURN JUMPDEST CALLVALUE PUSH2 0x1BD JUMPI PUSH1 0x20 CALLDATASIZE PUSH1 0x3 NOT ADD SLT PUSH2 0x1BD JUMPI PUSH1 0x4 CALLDATALOAD PUSH1 0x1 PUSH1 0x1 PUSH1 0x40 SHL SUB DUP2 GT PUSH2 0x1BD JUMPI PUSH2 0xB7F PUSH2 0xB71 PUSH2 0xB37 SWAP3 CALLDATASIZE SWAP1 PUSH1 0x4 ADD PUSH2 0x2ACA JUMP JUMPDEST PUSH2 0xB79 PUSH2 0x3359 JUMP JUMPDEST POP PUSH2 0x33B1 JUMP JUMPDEST PUSH1 0x40 MLOAD SWAP2 DUP3 SWAP2 DUP3 PUSH2 0x2E99 JUMP JUMPDEST CALLVALUE PUSH2 0x1BD JUMPI PUSH2 0xBA4 PUSH2 0xB9C CALLDATASIZE PUSH2 0x2F3D JUMP JUMPDEST DUP2 SWAP3 SWAP2 PUSH2 0x3B93 JUMP JUMPDEST PUSH1 0x2 SLOAD SWAP1 PUSH1 0x20 DUP2 ADD SWAP1 PUSH0 JUMPDEST DUP4 DUP2 LT PUSH2 0xBB8 JUMPI STOP JUMPDEST PUSH2 0xBC1 DUP2 PUSH2 0x3067 JUMP JUMPDEST POP PUSH1 0x40 MLOAD PUSH2 0xBD7 DUP2 PUSH2 0x385 PUSH1 0x20 DUP3 ADD DUP1 SWAP6 PUSH2 0x3115 JUMP JUMPDEST MLOAD SWAP1 KECCAK256 PUSH1 0x40 MLOAD PUSH1 0x20 DUP2 ADD SWAP1 PUSH2 0xC04 PUSH1 0x20 DUP3 DUP8 MLOAD DUP1 DUP11 DUP8 MCOPY DUP2 ADD PUSH0 DUP4 DUP3 ADD MSTORE SUB ADD PUSH1 0x1F NOT DUP2 ADD DUP4 MSTORE DUP3 PUSH2 0x2AA9 JUMP JUMPDEST MLOAD SWAP1 KECCAK256 EQ PUSH2 0xC15 JUMPI JUMPDEST PUSH1 0x1 ADD PUSH2 0xBAF JUMP JUMPDEST PUSH1 0x3 PUSH2 0xC20 DUP3 PUSH2 0x3067 JUMP JUMPDEST POP ADD PUSH2 0x600 PUSH2 0xFF00 NOT DUP3 SLOAD AND OR SWAP1 SSTORE PUSH1 0x82 TIMESTAMP ADD SWAP1 DUP2 TIMESTAMP GT PUSH2 0xC53 JUMPI PUSH1 0x1 SWAP2 PUSH1 0x5 PUSH2 0xC49 DUP4 PUSH2 0x3067 JUMP JUMPDEST POP ADD SSTORE SWAP1 POP PUSH2 0xC0D JUMP JUMPDEST PUSH4 0x4E487B71 PUSH1 0xE0 SHL PUSH0 MSTORE PUSH1 0x11 PUSH1 0x4 MSTORE PUSH1 0x24 PUSH0 REVERT JUMPDEST CALLVALUE PUSH2 0x1BD JUMPI PUSH1 0x20 CALLDATASIZE PUSH1 0x3 NOT ADD SLT PUSH2 0x1BD JUMPI PUSH1 0x4 CALLDATALOAD PUSH1 0x1 PUSH1 0x1 PUSH1 0x40 SHL SUB DUP2 GT PUSH2 0x1BD JUMPI PUSH2 0xB7F PUSH2 0xC9D PUSH2 0xB37 SWAP3 CALLDATASIZE SWAP1 PUSH1 0x4 ADD PUSH2 0x2ACA JUMP JUMPDEST PUSH2 0x33B1 JUMP JUMPDEST CALLVALUE PUSH2 0x1BD JUMPI PUSH2 0x1BB PUSH2 0xCB3 CALLDATASIZE PUSH2 0x2E68 JUMP JUMPDEST SWAP1 PUSH2 0x32DE JUMP JUMPDEST CALLVALUE PUSH2 0x1BD JUMPI PUSH2 0xCD2 PUSH2 0xCCA CALLDATASIZE PUSH2 0x2E68 JUMP JUMPDEST DUP2 SWAP3 SWAP2 PUSH2 0x32DE JUMP JUMPDEST PUSH1 0x2 SLOAD PUSH1 0x20 DUP3 ADD PUSH0 JUMPDEST DUP3 DUP2 LT PUSH2 0xCE4 JUMPI STOP JUMPDEST DUP1 PUSH2 0xCF0 PUSH1 0x1 SWAP3 PUSH2 0x3067 JUMP JUMPDEST POP PUSH1 0x40 MLOAD PUSH2 0xD06 DUP2 PUSH2 0x385 PUSH1 0x20 DUP3 ADD DUP1 SWAP6 PUSH2 0x3115 JUMP JUMPDEST MLOAD SWAP1 KECCAK256 PUSH1 0x40 MLOAD PUSH1 0x20 DUP2 ADD SWAP1 PUSH2 0xD33 PUSH1 0x20 DUP3 DUP11 MLOAD DUP1 DUP11 DUP8 MCOPY DUP2 ADD PUSH0 DUP4 DUP3 ADD MSTORE SUB ADD PUSH1 0x1F NOT DUP2 ADD DUP4 MSTORE DUP3 PUSH2 0x2AA9 JUMP JUMPDEST MLOAD SWAP1 KECCAK256 EQ PUSH2 0xD42 JUMPI JUMPDEST ADD PUSH2 0xCDB JUMP JUMPDEST PUSH1 0x3 PUSH2 0xD4D DUP3 PUSH2 0x3067 JUMP JUMPDEST POP ADD DUP1 SLOAD PUSH2 0xFF00 NOT AND PUSH2 0x500 OR SWAP1 SSTORE PUSH2 0xD3C JUMP JUMPDEST CALLVALUE PUSH2 0x1BD JUMPI PUSH1 0x20 CALLDATASIZE PUSH1 0x3 NOT ADD SLT PUSH2 0x1BD JUMPI PUSH1 0x4 CALLDATALOAD PUSH1 0x1 PUSH1 0x1 PUSH1 0x40 SHL SUB DUP2 GT PUSH2 0x1BD JUMPI PUSH2 0xD91 SWAP1 CALLDATASIZE SWAP1 PUSH1 0x4 ADD PUSH2 0x2ACA JUMP JUMPDEST PUSH1 0x2 SLOAD PUSH1 0x20 DUP3 ADD SWAP2 PUSH0 DUP1 JUMPDEST DUP4 DUP2 LT PUSH2 0xE6D JUMPI POP PUSH1 0xFF PUSH2 0xDB0 SWAP2 AND PUSH2 0x3196 JUMP JUMPDEST SWAP3 PUSH0 SWAP2 PUSH0 JUMPDEST DUP5 DUP2 LT PUSH2 0xDCA JUMPI PUSH1 0x40 MLOAD DUP1 PUSH2 0xB37 DUP9 DUP3 PUSH2 0x2CBB JUMP JUMPDEST PUSH1 0x2 PUSH2 0x385 PUSH2 0xDEF PUSH2 0xDDB DUP5 PUSH2 0x3067 JUMP JUMPDEST POP PUSH1 0x40 MLOAD SWAP3 DUP4 SWAP2 PUSH1 0x20 DUP4 ADD SWAP6 DUP7 SWAP2 ADD PUSH2 0x3115 JUMP JUMPDEST MLOAD SWAP1 KECCAK256 PUSH1 0x40 MLOAD PUSH1 0x20 DUP2 ADD SWAP1 PUSH2 0xE1C PUSH1 0x20 DUP3 DUP8 MLOAD DUP1 DUP11 DUP8 MCOPY DUP2 ADD PUSH0 DUP4 DUP3 ADD MSTORE SUB ADD PUSH1 0x1F NOT DUP2 ADD DUP4 MSTORE DUP3 PUSH2 0x2AA9 JUMP JUMPDEST MLOAD SWAP1 KECCAK256 EQ PUSH2 0xE2D JUMPI JUMPDEST PUSH1 0x1 ADD PUSH2 0xDB5 JUMP JUMPDEST SWAP3 PUSH2 0xE65 PUSH1 0x1 SWAP2 PUSH2 0xE5F PUSH2 0xE49 PUSH2 0xE43 DUP9 PUSH2 0x3067 JUMP JUMPDEST POP PUSH2 0x3233 JUMP JUMPDEST PUSH1 0xFF DUP4 AND SWAP1 PUSH2 0xE58 DUP3 DUP13 PUSH2 0x3213 JUMP JUMPDEST MSTORE DUP10 PUSH2 0x3213 JUMP JUMPDEST POP PUSH2 0x32AA JUMP JUMPDEST SWAP4 SWAP1 POP PUSH2 0xE25 JUMP JUMPDEST PUSH1 0x2 PUSH2 0x385 PUSH2 0xE7E PUSH2 0xDDB DUP5 PUSH2 0x3067 JUMP JUMPDEST MLOAD SWAP1 KECCAK256 PUSH1 0x40 MLOAD PUSH1 0x20 DUP2 ADD SWAP1 PUSH2 0xEAB PUSH1 0x20 DUP3 DUP9 MLOAD DUP1 DUP13 DUP8 MCOPY DUP2 ADD PUSH0 DUP4 DUP3 ADD MSTORE SUB ADD PUSH1 0x1F NOT DUP2 ADD DUP4 MSTORE DUP3 PUSH2 0x2AA9 JUMP JUMPDEST MLOAD SWAP1 KECCAK256 EQ PUSH2 0xEBC JUMPI JUMPDEST PUSH1 0x1 ADD PUSH2 0xD9C JUMP JUMPDEST SWAP1 PUSH2 0xEC8 PUSH1 0x1 SWAP2 PUSH2 0x32AA JUMP JUMPDEST SWAP2 SWAP1 POP PUSH2 0xEB4 JUMP JUMPDEST CALLVALUE PUSH2 0x1BD JUMPI PUSH1 0x20 CALLDATASIZE PUSH1 0x3 NOT ADD SLT PUSH2 0x1BD JUMPI PUSH1 0x4 CALLDATALOAD PUSH1 0x1 PUSH1 0x1 PUSH1 0x40 SHL SUB DUP2 GT PUSH2 0x1BD JUMPI PUSH1 0x20 DUP1 PUSH2 0xF06 PUSH2 0xF5B SWAP4 CALLDATASIZE SWAP1 PUSH1 0x4 ADD PUSH2 0x2ACA JUMP JUMPDEST PUSH1 0x40 MLOAD SWAP3 DUP2 DUP5 SWAP3 MLOAD SWAP2 DUP3 SWAP2 ADD DUP4 MCOPY DUP2 ADD PUSH1 0x4 DUP2 MSTORE SUB ADD SWAP1 KECCAK256 PUSH2 0xB37 PUSH2 0xF2A DUP3 PUSH2 0x2BCF JUMP JUMPDEST SWAP2 PUSH2 0xF69 PUSH2 0xF46 PUSH1 0x2 PUSH2 0xF3F PUSH1 0x1 DUP6 ADD PUSH2 0x2BCF JUMP JUMPDEST SWAP4 ADD PUSH2 0x2BCF JUMP JUMPDEST SWAP2 PUSH1 0x40 MLOAD SWAP6 DUP7 SWAP6 PUSH1 0x60 DUP8 MSTORE PUSH1 0x60 DUP8 ADD SWAP1 PUSH2 0x2B1F JUMP JUMPDEST SWAP1 DUP6 DUP3 SUB PUSH1 0x20 DUP8 ADD MSTORE PUSH2 0x2B1F JUMP JUMPDEST SWAP1 DUP4 DUP3 SUB PUSH1 0x40 DUP6 ADD MSTORE PUSH2 0x2B1F JUMP JUMPDEST CALLVALUE PUSH2 0x1BD JUMPI PUSH1 0x20 CALLDATASIZE PUSH1 0x3 NOT ADD SLT PUSH2 0x1BD JUMPI PUSH1 0x4 CALLDATALOAD PUSH1 0x1 PUSH1 0x1 PUSH1 0x40 SHL SUB DUP2 GT PUSH2 0x1BD JUMPI PUSH2 0xB23 PUSH2 0xFAD PUSH2 0xB37 SWAP3 CALLDATASIZE SWAP1 PUSH1 0x4 ADD PUSH2 0x2ACA JUMP JUMPDEST PUSH2 0x32BB JUMP JUMPDEST CALLVALUE PUSH2 0x1BD JUMPI PUSH1 0x20 CALLDATASIZE PUSH1 0x3 NOT ADD SLT PUSH2 0x1BD JUMPI PUSH1 0x4 CALLDATALOAD PUSH1 0x1 PUSH1 0x1 PUSH1 0x40 SHL SUB DUP2 GT PUSH2 0x1BD JUMPI PUSH2 0xFE2 SWAP1 CALLDATASIZE SWAP1 PUSH1 0x4 ADD PUSH2 0x2ACA JUMP JUMPDEST PUSH1 0x40 MLOAD PUSH2 0xFEE DUP2 PUSH2 0x2A21 JUMP JUMPDEST PUSH1 0x60 DUP2 MSTORE PUSH1 0x20 DUP2 ADD PUSH1 0x60 SWAP1 MSTORE PUSH1 0x40 DUP2 ADD PUSH0 SWAP1 MSTORE PUSH1 0x60 ADD PUSH1 0x60 SWAP1 MSTORE PUSH1 0x40 MLOAD PUSH2 0x1014 DUP2 PUSH2 0x2A57 JUMP JUMPDEST PUSH1 0x60 DUP2 MSTORE PUSH1 0x20 DUP2 ADD PUSH1 0x60 SWAP1 MSTORE PUSH1 0x40 ADD PUSH1 0x60 SWAP1 MSTORE PUSH1 0x40 MLOAD PUSH2 0x1033 DUP2 PUSH2 0x2A72 JUMP JUMPDEST PUSH1 0x60 DUP2 MSTORE PUSH1 0x20 ADD PUSH1 0x60 SWAP1 MSTORE PUSH1 0x40 MLOAD DUP2 MLOAD SWAP1 DUP1 PUSH1 0x20 DUP5 ADD SWAP3 DUP1 DUP5 DUP4 MCOPY DUP2 ADD PUSH1 0x3 DUP2 MSTORE SUB PUSH1 0x20 ADD SWAP1 KECCAK256 SWAP1 PUSH1 0x40 MLOAD DUP1 DUP5 MLOAD DUP1 DUP5 DUP4 MCOPY DUP2 ADD PUSH1 0x4 DUP2 MSTORE SUB PUSH1 0x20 ADD SWAP1 KECCAK256 SWAP3 PUSH1 0x40 MLOAD SWAP2 DUP3 SWAP2 MLOAD DUP1 SWAP2 DUP4 MCOPY DUP2 ADD PUSH1 0x5 DUP2 MSTORE SUB PUSH1 0x20 ADD SWAP1 KECCAK256 PUSH1 0x40 MLOAD SWAP2 PUSH2 0x1096 DUP4 PUSH2 0x2A21 JUMP JUMPDEST PUSH2 0x109F DUP2 PUSH2 0x2BCF JUMP JUMPDEST DUP4 MSTORE PUSH2 0x10AD PUSH1 0x1 DUP3 ADD PUSH2 0x2BCF JUMP JUMPDEST SWAP4 PUSH1 0x20 DUP5 ADD SWAP5 DUP6 MSTORE PUSH1 0x2 DUP3 ADD SLOAD PUSH1 0xFF AND SWAP2 PUSH1 0x40 DUP6 ADD SWAP3 DUP4 MSTORE PUSH1 0x3 ADD PUSH2 0x10D1 SWAP1 PUSH2 0x2BCF JUMP JUMPDEST SWAP2 PUSH1 0x60 DUP6 ADD SWAP3 DUP4 MSTORE PUSH1 0x40 MLOAD SWAP2 PUSH2 0x10E6 DUP4 PUSH2 0x2A57 JUMP JUMPDEST PUSH2 0x10EF DUP2 PUSH2 0x2BCF JUMP JUMPDEST DUP4 MSTORE PUSH2 0x10FD PUSH1 0x1 DUP3 ADD PUSH2 0x2BCF JUMP JUMPDEST SWAP1 PUSH1 0x20 DUP5 ADD SWAP2 DUP3 MSTORE PUSH1 0x2 ADD PUSH2 0x1111 SWAP1 PUSH2 0x2BCF JUMP JUMPDEST SWAP2 PUSH1 0x40 DUP5 ADD SWAP3 DUP4 MSTORE PUSH1 0x40 MLOAD SWAP6 PUSH2 0x1126 DUP8 PUSH2 0x2A72 JUMP JUMPDEST PUSH2 0x112F DUP2 PUSH2 0x2BCF JUMP JUMPDEST DUP8 MSTORE PUSH1 0x1 ADD PUSH2 0x113D SWAP1 PUSH2 0x2BCF JUMP JUMPDEST SWAP5 PUSH1 0x20 DUP8 ADD SWAP6 DUP7 MSTORE PUSH1 0x40 MLOAD SWAP9 DUP10 SWAP9 PUSH1 0x60 DUP11 MSTORE MLOAD PUSH1 0x60 DUP11 ADD PUSH1 0x80 SWAP1 MSTORE PUSH1 0xE0 DUP11 ADD PUSH2 0x1165 SWAP2 PUSH2 0x2B1F JUMP JUMPDEST SWAP1 MLOAD DUP10 DUP3 SUB PUSH1 0x5F NOT ADD PUSH1 0x80 DUP12 ADD MSTORE PUSH2 0x117D SWAP2 SWAP1 PUSH2 0x2B1F JUMP JUMPDEST SWAP2 MLOAD PUSH1 0xFF AND PUSH1 0xA0 DUP10 ADD MSTORE MLOAD DUP8 DUP3 SUB PUSH1 0x5F NOT ADD PUSH1 0xC0 DUP10 ADD MSTORE PUSH2 0x119E SWAP2 SWAP1 PUSH2 0x2B1F JUMP JUMPDEST SWAP3 DUP7 DUP5 SUB PUSH1 0x20 DUP9 ADD MSTORE MLOAD PUSH1 0x60 DUP5 MSTORE PUSH1 0x60 DUP5 ADD PUSH2 0x11B9 SWAP2 PUSH2 0x2B1F JUMP JUMPDEST SWAP1 MLOAD SWAP1 DUP4 DUP2 SUB PUSH1 0x20 DUP6 ADD MSTORE PUSH2 0x11CD SWAP2 PUSH2 0x2B1F JUMP JUMPDEST SWAP1 MLOAD SWAP2 DUP1 DUP3 SUB SWAP1 PUSH1 0x40 ADD MSTORE PUSH2 0x11E1 SWAP2 PUSH2 0x2B1F JUMP JUMPDEST SWAP2 DUP4 DUP4 SUB PUSH1 0x40 DUP6 ADD MSTORE MLOAD PUSH1 0x40 DUP4 MSTORE PUSH1 0x40 DUP4 ADD PUSH2 0x11FC SWAP2 PUSH2 0x2B1F JUMP JUMPDEST SWAP1 MLOAD SWAP2 DUP1 DUP3 SUB SWAP1 PUSH1 0x20 ADD MSTORE PUSH2 0xB37 SWAP2 PUSH2 0x2B1F JUMP JUMPDEST CALLVALUE PUSH2 0x1BD JUMPI PUSH1 0x20 CALLDATASIZE PUSH1 0x3 NOT ADD SLT PUSH2 0x1BD JUMPI PUSH1 0x4 CALLDATALOAD PUSH1 0x1 PUSH1 0x1 PUSH1 0x40 SHL SUB DUP2 GT PUSH2 0x1BD JUMPI PUSH1 0x20 DUP1 PUSH2 0x1246 PUSH2 0x12A3 SWAP4 CALLDATASIZE SWAP1 PUSH1 0x4 ADD PUSH2 0x2ACA JUMP JUMPDEST PUSH1 0x40 MLOAD SWAP3 DUP2 DUP5 SWAP3 MLOAD SWAP2 DUP3 SWAP2 ADD DUP4 MCOPY DUP2 ADD PUSH1 0x3 DUP2 MSTORE SUB ADD SWAP1 KECCAK256 PUSH2 0xB37 PUSH2 0x126A DUP3 PUSH2 0x2BCF JUMP JUMPDEST SWAP2 PUSH2 0x1277 PUSH1 0x1 DUP3 ADD PUSH2 0x2BCF JUMP JUMPDEST PUSH2 0x12B1 PUSH2 0x128E PUSH1 0x3 PUSH1 0xFF PUSH1 0x2 DUP7 ADD SLOAD AND SWAP5 ADD PUSH2 0x2BCF JUMP JUMPDEST SWAP2 PUSH1 0x40 MLOAD SWAP7 DUP8 SWAP7 PUSH1 0x80 DUP9 MSTORE PUSH1 0x80 DUP9 ADD SWAP1 PUSH2 0x2B1F JUMP JUMPDEST SWAP1 DUP7 DUP3 SUB PUSH1 0x20 DUP9 ADD MSTORE PUSH2 0x2B1F JUMP JUMPDEST SWAP2 PUSH1 0x40 DUP6 ADD MSTORE DUP4 DUP3 SUB PUSH1 0x60 DUP6 ADD MSTORE PUSH2 0x2B1F JUMP JUMPDEST CALLVALUE PUSH2 0x1BD JUMPI PUSH2 0x100 CALLDATASIZE PUSH1 0x3 NOT ADD SLT PUSH2 0x1BD JUMPI PUSH1 0x4 CALLDATALOAD PUSH1 0x1 PUSH1 0x1 PUSH1 0x40 SHL SUB DUP2 GT PUSH2 0x1BD JUMPI PUSH2 0x12F5 SWAP1 CALLDATASIZE SWAP1 PUSH1 0x4 ADD PUSH2 0x2ACA JUMP JUMPDEST PUSH1 0x24 CALLDATALOAD PUSH1 0x1 PUSH1 0x1 PUSH1 0x40 SHL SUB DUP2 GT PUSH2 0x1BD JUMPI PUSH2 0x1314 SWAP1 CALLDATASIZE SWAP1 PUSH1 0x4 ADD PUSH2 0x2ACA JUMP JUMPDEST PUSH1 0x44 CALLDATALOAD PUSH1 0x1 PUSH1 0x1 PUSH1 0x40 SHL SUB DUP2 GT PUSH2 0x1BD JUMPI PUSH2 0x1333 SWAP1 CALLDATASIZE SWAP1 PUSH1 0x4 ADD PUSH2 0x2ACA JUMP JUMPDEST SWAP2 PUSH1 0x64 CALLDATALOAD PUSH1 0x1 PUSH1 0x1 PUSH1 0xA0 SHL SUB DUP2 AND DUP2 SUB PUSH2 0x1BD JUMPI PUSH1 0x84 CALLDATALOAD SWAP4 PUSH1 0xFF DUP6 AND DUP1 SWAP6 SUB PUSH2 0x1BD JUMPI PUSH1 0xA4 CALLDATALOAD PUSH1 0x1 PUSH1 0x1 PUSH1 0x40 SHL SUB DUP2 GT PUSH2 0x1BD JUMPI PUSH2 0x1375 SWAP1 CALLDATASIZE SWAP1 PUSH1 0x4 ADD PUSH2 0x2ACA JUMP JUMPDEST SWAP5 PUSH1 0xC4 CALLDATALOAD PUSH1 0x1 PUSH1 0x1 PUSH1 0x40 SHL SUB DUP2 GT PUSH2 0x1BD JUMPI PUSH2 0x1395 SWAP1 CALLDATASIZE SWAP1 PUSH1 0x4 ADD PUSH2 0x2D8B JUMP JUMPDEST SWAP3 PUSH1 0xE4 CALLDATALOAD SWAP1 PUSH1 0x1 PUSH1 0x1 PUSH1 0x40 SHL SUB DUP3 GT PUSH2 0x1BD JUMPI DUP4 PUSH2 0x13BA PUSH2 0x13C0 SWAP4 CALLDATASIZE SWAP1 PUSH1 0x4 ADD PUSH2 0x2E0E JUMP JUMPDEST SWAP8 PUSH2 0x30E5 JUMP JUMPDEST SWAP6 PUSH2 0x1410 DUP6 PUSH1 0x20 SWAP9 PUSH1 0x40 MLOAD SWAP1 PUSH2 0x13D6 DUP12 DUP4 PUSH2 0x2AA9 JUMP JUMPDEST PUSH0 DUP3 MSTORE PUSH1 0x40 MLOAD PUSH2 0x13E6 DUP13 DUP3 PUSH2 0x2AA9 JUMP JUMPDEST PUSH0 DUP2 MSTORE PUSH2 0x13F1 PUSH2 0x3097 JUMP JUMPDEST POP PUSH1 0x40 MLOAD SWAP3 PUSH2 0x13FF DUP5 PUSH2 0x2A57 JUMP JUMPDEST DUP4 MSTORE DUP12 DUP4 ADD MSTORE PUSH0 PUSH1 0x40 DUP4 ADD MSTORE PUSH2 0x3CB1 JUMP JUMPDEST PUSH1 0x40 MLOAD PUSH2 0x141C DUP2 PUSH2 0x2A21 JUMP JUMPDEST DUP6 DUP2 MSTORE PUSH1 0x40 MLOAD PUSH2 0x142C DUP10 DUP3 PUSH2 0x2AA9 JUMP JUMPDEST PUSH0 DUP2 MSTORE DUP9 DUP3 ADD SWAP1 DUP2 MSTORE PUSH1 0x40 DUP3 ADD SWAP1 DUP5 DUP3 MSTORE PUSH1 0x60 DUP4 ADD SWAP4 DUP5 MSTORE PUSH1 0x40 MLOAD DUP11 DUP2 DUP11 MLOAD DUP1 DUP4 DUP14 ADD DUP4 MCOPY DUP2 ADD PUSH1 0x3 DUP2 MSTORE SUB ADD SWAP1 KECCAK256 SWAP3 MLOAD DUP1 MLOAD SWAP1 PUSH1 0x1 PUSH1 0x1 PUSH1 0x40 SHL SUB DUP3 GT PUSH2 0x697 JUMPI DUP2 SWAP1 DUP13 PUSH2 0x147B DUP8 SLOAD PUSH2 0x2B97 JUMP JUMPDEST PUSH1 0x1F DUP2 GT PUSH2 0x2222 JUMPI JUMPDEST POP POP DUP13 SWAP1 DUP14 PUSH1 0x1F DUP5 GT PUSH1 0x1 EQ PUSH2 0x21BE JUMPI POP PUSH0 SWAP3 PUSH2 0x21B3 JUMPI JUMPDEST POP POP DUP2 PUSH1 0x1 SHL SWAP2 PUSH0 NOT SWAP1 PUSH1 0x3 SHL SHR NOT AND OR DUP4 SSTORE JUMPDEST MLOAD DUP1 MLOAD PUSH1 0x1 DUP5 ADD SWAP2 PUSH1 0x1 PUSH1 0x1 PUSH1 0x40 SHL SUB DUP3 GT PUSH2 0x697 JUMPI DUP12 PUSH2 0x14D1 DUP5 SLOAD PUSH2 0x2B97 JUMP JUMPDEST PUSH1 0x1F DUP2 GT PUSH2 0x216E JUMPI JUMPDEST POP POP DUP12 SWAP1 DUP13 PUSH1 0x1F DUP5 GT PUSH1 0x1 EQ PUSH2 0x2103 JUMPI POP SWAP2 DUP1 PUSH1 0xFF SWAP5 SWAP3 PUSH1 0x3 SWAP8 SWAP7 SWAP5 PUSH0 SWAP3 PUSH2 0x20F8 JUMPI JUMPDEST POP POP DUP2 PUSH1 0x1 SHL SWAP2 PUSH0 NOT SWAP1 DUP9 SHL SHR NOT AND OR SWAP1 SSTORE JUMPDEST MLOAD AND PUSH1 0xFF PUSH1 0x2 DUP4 ADD SWAP2 AND PUSH1 0xFF NOT DUP3 SLOAD AND OR SWAP1 SSTORE ADD SWAP1 MLOAD DUP1 MLOAD SWAP1 PUSH1 0x1 PUSH1 0x1 PUSH1 0x40 SHL SUB DUP3 GT PUSH2 0x697 JUMPI DUP2 SWAP1 PUSH2 0x1543 DUP5 SLOAD PUSH2 0x2B97 JUMP JUMPDEST PUSH1 0x1F DUP2 GT PUSH2 0x20AA JUMPI JUMPDEST POP DUP10 SWAP1 PUSH1 0x1F DUP4 GT PUSH1 0x1 EQ PUSH2 0x2047 JUMPI PUSH0 SWAP3 PUSH2 0x203C JUMPI JUMPDEST POP POP DUP2 PUSH1 0x1 SHL SWAP2 PUSH0 NOT SWAP1 PUSH1 0x3 SHL SHR NOT AND OR SWAP1 SSTORE JUMPDEST PUSH1 0x40 MLOAD SWAP1 PUSH2 0x1582 DUP3 PUSH2 0x2A3C JUMP JUMPDEST DUP5 DUP3 MSTORE PUSH1 0x40 MLOAD SWAP3 PUSH2 0x1593 DUP9 DUP6 PUSH2 0x2AA9 JUMP JUMPDEST PUSH0 DUP5 MSTORE DUP8 DUP4 ADD SWAP4 DUP5 MSTORE PUSH1 0x40 DUP4 ADD MSTORE PUSH1 0x60 DUP3 ADD MSTORE PUSH0 PUSH1 0x80 DUP3 ADD MSTORE PUSH1 0x40 MLOAD PUSH2 0x15B9 DUP8 DUP3 PUSH2 0x2AA9 JUMP JUMPDEST PUSH0 DUP2 MSTORE PUSH1 0xA0 DUP3 ADD MSTORE PUSH0 PUSH1 0xC0 DUP3 ADD MSTORE PUSH1 0x2 SLOAD PUSH9 0x10000000000000000 DUP2 LT ISZERO PUSH2 0x697 JUMPI DUP1 PUSH1 0x1 PUSH2 0x15EB SWAP3 ADD PUSH1 0x2 SSTORE PUSH2 0x3067 JUMP JUMPDEST SWAP3 SWAP1 SWAP3 PUSH2 0x2029 JUMPI DUP2 MLOAD DUP1 MLOAD SWAP1 PUSH1 0x1 PUSH1 0x1 PUSH1 0x40 SHL SUB DUP3 GT PUSH2 0x697 JUMPI DUP2 SWAP1 PUSH2 0x1611 DUP7 SLOAD PUSH2 0x2B97 JUMP JUMPDEST PUSH1 0x1F DUP2 GT PUSH2 0x1FDB JUMPI JUMPDEST POP DUP10 SWAP1 PUSH1 0x1F DUP4 GT PUSH1 0x1 EQ PUSH2 0x1F78 JUMPI PUSH0 SWAP3 PUSH2 0x1F6D JUMPI JUMPDEST POP POP DUP2 PUSH1 0x1 SHL SWAP2 PUSH0 NOT SWAP1 PUSH1 0x3 SHL SHR NOT AND OR DUP4 SSTORE JUMPDEST MLOAD DUP1 MLOAD SWAP1 PUSH1 0x1 PUSH1 0x1 PUSH1 0x40 SHL SUB DUP3 GT PUSH2 0x697 JUMPI DUP2 SWAP1 PUSH2 0x1664 PUSH1 0x1 DUP7 ADD SLOAD PUSH2 0x2B97 JUMP JUMPDEST PUSH1 0x1F DUP2 GT PUSH2 0x1F1C JUMPI JUMPDEST POP DUP9 SWAP1 PUSH1 0x1F DUP4 GT PUSH1 0x1 EQ PUSH2 0x1EB2 JUMPI PUSH0 SWAP3 PUSH2 0x1EA7 JUMPI JUMPDEST POP POP DUP2 PUSH1 0x1 SHL SWAP2 PUSH0 NOT SWAP1 PUSH1 0x3 SHL SHR NOT AND OR PUSH1 0x1 DUP4 ADD SSTORE JUMPDEST PUSH1 0x2 DUP3 ADD PUSH1 0x40 DUP3 ADD MLOAD DUP1 MLOAD SWAP1 PUSH1 0x1 PUSH1 0x1 PUSH1 0x40 SHL SUB DUP3 GT PUSH2 0x697 JUMPI DUP2 SWAP1 PUSH2 0x16BF DUP5 SLOAD PUSH2 0x2B97 JUMP JUMPDEST PUSH1 0x1F DUP2 GT PUSH2 0x1E59 JUMPI JUMPDEST POP DUP10 SWAP1 PUSH1 0x1F DUP4 GT PUSH1 0x1 EQ PUSH2 0x1DF6 JUMPI PUSH0 SWAP3 PUSH2 0x1DEB JUMPI JUMPDEST POP POP DUP2 PUSH1 0x1 SHL SWAP2 PUSH0 NOT SWAP1 PUSH1 0x3 SHL SHR NOT AND OR SWAP1 SSTORE JUMPDEST PUSH1 0x3 DUP3 ADD PUSH1 0xFF DUP1 PUSH1 0x60 DUP5 ADD MLOAD AND AND PUSH1 0xFF NOT DUP3 SLOAD AND OR DUP2 SSTORE PUSH1 0x80 DUP3 ADD MLOAD PUSH1 0x7 DUP2 LT ISZERO PUSH2 0x1DD7 JUMPI PUSH2 0xFF00 DUP3 SLOAD SWAP2 PUSH1 0x8 SHL AND SWAP1 PUSH2 0xFF00 NOT AND OR SWAP1 SSTORE PUSH1 0x4 DUP3 ADD PUSH1 0xA0 DUP3 ADD MLOAD DUP1 MLOAD SWAP1 PUSH1 0x1 PUSH1 0x1 PUSH1 0x40 SHL SUB DUP3 GT PUSH2 0x697 JUMPI PUSH2 0x174D DUP4 SLOAD PUSH2 0x2B97 JUMP JUMPDEST PUSH1 0x1F DUP2 GT PUSH2 0x1D94 JUMPI JUMPDEST POP DUP9 SWAP1 PUSH1 0x1F DUP4 GT PUSH1 0x1 EQ PUSH2 0x1D2B JUMPI SWAP2 DUP1 PUSH1 0xC0 SWAP5 SWAP3 PUSH1 0x5 SWAP7 SWAP5 PUSH0 SWAP3 PUSH2 0x1D20 JUMPI JUMPDEST POP POP DUP2 PUSH1 0x1 SHL SWAP2 PUSH0 NOT SWAP1 PUSH1 0x3 SHL SHR NOT AND OR SWAP1 SSTORE JUMPDEST ADD MLOAD SWAP2 ADD SSTORE PUSH1 0x40 MLOAD DUP5 DUP2 DUP5 MLOAD DUP1 DUP4 DUP8 ADD DUP4 MCOPY DUP2 ADD PUSH1 0x4 DUP2 MSTORE SUB ADD SWAP1 KECCAK256 DUP2 MLOAD DUP1 MLOAD SWAP1 PUSH1 0x1 PUSH1 0x1 PUSH1 0x40 SHL SUB DUP3 GT PUSH2 0x697 JUMPI DUP2 SWAP1 PUSH2 0x17C4 DUP5 SLOAD PUSH2 0x2B97 JUMP JUMPDEST PUSH1 0x1F DUP2 GT PUSH2 0x1CD2 JUMPI JUMPDEST POP DUP8 SWAP1 PUSH1 0x1F DUP4 GT PUSH1 0x1 EQ PUSH2 0x1C6F JUMPI PUSH0 SWAP3 PUSH2 0x1C64 JUMPI JUMPDEST POP POP DUP2 PUSH1 0x1 SHL SWAP2 PUSH0 NOT SWAP1 PUSH1 0x3 SHL SHR NOT AND OR DUP2 SSTORE JUMPDEST PUSH1 0x1 DUP2 ADD DUP6 DUP4 ADD MLOAD DUP1 MLOAD SWAP1 PUSH1 0x1 PUSH1 0x1 PUSH1 0x40 SHL SUB DUP3 GT PUSH2 0x697 JUMPI PUSH2 0x1819 DUP4 SLOAD PUSH2 0x2B97 JUMP JUMPDEST PUSH1 0x1F DUP2 GT PUSH2 0x1C21 JUMPI JUMPDEST POP DUP8 SWAP1 PUSH1 0x1F DUP4 GT PUSH1 0x1 EQ PUSH2 0x1BB8 JUMPI SWAP2 DUP1 PUSH1 0x2 SWAP5 SWAP3 PUSH1 0x40 SWAP7 SWAP5 PUSH0 SWAP3 PUSH2 0x1BAD JUMPI JUMPDEST POP POP DUP2 PUSH1 0x1 SHL SWAP2 PUSH0 NOT SWAP1 PUSH1 0x3 SHL SHR NOT AND OR SWAP1 SSTORE JUMPDEST ADD SWAP2 ADD MLOAD SWAP2 DUP3 MLOAD SWAP2 PUSH1 0x1 PUSH1 0x1 PUSH1 0x40 SHL SUB DUP4 GT PUSH2 0x697 JUMPI DUP6 SWAP3 PUSH2 0x1877 DUP3 SLOAD PUSH2 0x2B97 JUMP JUMPDEST SWAP5 PUSH1 0x1F DUP7 GT PUSH2 0x1B56 JUMPI JUMPDEST DUP5 SWAP6 POP DUP5 SWAP1 PUSH1 0x1F DUP4 GT PUSH1 0x1 EQ PUSH2 0x1AEF JUMPI PUSH0 SWAP2 SWAP1 DUP4 PUSH2 0x1AE4 JUMPI JUMPDEST POP POP DUP2 PUSH1 0x1 SHL SWAP2 PUSH0 NOT SWAP1 PUSH1 0x3 SHL SHR NOT AND OR SWAP1 SSTORE JUMPDEST PUSH1 0x40 MLOAD SWAP3 DUP2 DUP5 SWAP3 MLOAD SWAP2 DUP3 SWAP2 ADD DUP4 MCOPY DUP2 ADD PUSH1 0x5 DUP2 MSTORE SUB ADD SWAP1 KECCAK256 DUP2 MLOAD SWAP1 DUP2 MLOAD PUSH1 0x1 PUSH1 0x1 PUSH1 0x40 SHL SUB DUP2 GT PUSH2 0x697 JUMPI DUP5 SWAP3 PUSH2 0x18E5 DUP4 SLOAD PUSH2 0x2B97 JUMP JUMPDEST PUSH1 0x1F DUP2 GT PUSH2 0x1A92 JUMPI JUMPDEST POP DUP4 SWAP1 PUSH1 0x1F DUP4 GT PUSH1 0x1 EQ PUSH2 0x1A2C JUMPI PUSH1 0x1 SWAP4 SWAP3 SWAP2 PUSH0 SWAP2 DUP4 PUSH2 0x1A21 JUMPI JUMPDEST POP POP PUSH0 NOT PUSH1 0x3 DUP4 SWAP1 SHL SHR NOT AND SWAP1 DUP4 SHL OR DUP2 SSTORE JUMPDEST ADD SWAP2 ADD MLOAD SWAP2 DUP3 MLOAD SWAP1 PUSH1 0x1 PUSH1 0x1 PUSH1 0x40 SHL SUB DUP3 GT PUSH2 0x697 JUMPI PUSH2 0x193C DUP4 SLOAD PUSH2 0x2B97 JUMP JUMPDEST PUSH1 0x1F DUP2 GT PUSH2 0x19DE JUMPI JUMPDEST POP DUP1 PUSH1 0x1F DUP4 GT PUSH1 0x1 EQ PUSH2 0x197F JUMPI POP DUP2 SWAP3 SWAP4 PUSH0 SWAP3 PUSH2 0x1974 JUMPI JUMPDEST POP POP PUSH0 NOT PUSH1 0x3 DUP4 SWAP1 SHL SHR NOT AND PUSH1 0x1 SWAP2 SWAP1 SWAP2 SHL OR SWAP1 SSTORE STOP JUMPDEST ADD MLOAD SWAP1 POP DUP4 DUP1 PUSH2 0x195D JUMP JUMPDEST SWAP1 PUSH1 0x1F NOT DUP4 AND SWAP5 DUP5 PUSH0 MSTORE DUP3 PUSH0 KECCAK256 SWAP3 PUSH0 SWAP1 JUMPDEST DUP8 DUP3 LT PUSH2 0x19C6 JUMPI POP POP DUP4 PUSH1 0x1 SWAP6 SWAP7 LT PUSH2 0x19AE JUMPI JUMPDEST POP POP POP DUP2 SHL ADD SWAP1 SSTORE STOP JUMPDEST ADD MLOAD PUSH0 NOT PUSH1 0xF8 DUP5 PUSH1 0x3 SHL AND SHR NOT AND SWAP1 SSTORE DUP4 DUP1 DUP1 PUSH2 0x19A4 JUMP JUMPDEST DUP1 PUSH1 0x1 DUP6 SWAP7 DUP3 SWAP5 SWAP7 DUP7 ADD MLOAD DUP2 SSTORE ADD SWAP6 ADD SWAP4 ADD SWAP1 PUSH2 0x1990 JUMP JUMPDEST DUP4 PUSH0 MSTORE DUP2 PUSH0 KECCAK256 PUSH1 0x1F DUP5 ADD PUSH1 0x5 SHR DUP2 ADD SWAP2 DUP4 DUP6 LT PUSH2 0x1A17 JUMPI JUMPDEST PUSH1 0x1F ADD PUSH1 0x5 SHR ADD SWAP1 JUMPDEST DUP2 DUP2 LT PUSH2 0x1A0C JUMPI POP PUSH2 0x1945 JUMP JUMPDEST PUSH0 DUP2 SSTORE PUSH1 0x1 ADD PUSH2 0x19FF JUMP JUMPDEST SWAP1 SWAP2 POP DUP2 SWAP1 PUSH2 0x19F6 JUMP JUMPDEST ADD MLOAD SWAP1 POP DUP8 DUP1 PUSH2 0x1909 JUMP JUMPDEST SWAP1 PUSH1 0x1F NOT DUP4 AND SWAP2 DUP5 PUSH0 MSTORE DUP6 PUSH0 KECCAK256 SWAP3 PUSH0 JUMPDEST DUP8 DUP3 DUP3 LT PUSH2 0x1A7C JUMPI POP POP SWAP2 PUSH1 0x1 SWAP6 SWAP5 SWAP3 SWAP2 DUP4 DUP8 SWAP6 SWAP4 LT PUSH2 0x1A64 JUMPI JUMPDEST POP POP POP DUP2 SHL ADD DUP2 SSTORE PUSH2 0x191C JUMP JUMPDEST ADD MLOAD PUSH0 NOT PUSH1 0xF8 DUP5 PUSH1 0x3 SHL AND SHR NOT AND SWAP1 SSTORE DUP8 DUP1 DUP1 PUSH2 0x1A57 JUMP JUMPDEST PUSH1 0x1 DUP6 SWAP7 DUP3 SWAP4 SWAP7 DUP7 ADD MLOAD DUP2 SSTORE ADD SWAP6 ADD SWAP4 ADD PUSH2 0x1A3C JUMP JUMPDEST SWAP1 SWAP2 SWAP3 DUP1 SWAP5 POP PUSH0 MSTORE DUP6 PUSH0 KECCAK256 PUSH1 0x1F DUP5 ADD PUSH1 0x5 SHR DUP2 ADD SWAP2 DUP8 DUP6 LT PUSH2 0x1ADA JUMPI JUMPDEST SWAP1 PUSH1 0x1F DUP9 SWAP7 SWAP6 SWAP5 SWAP4 SWAP3 ADD PUSH1 0x5 SHR ADD SWAP1 JUMPDEST DUP2 DUP2 LT PUSH2 0x1ACC JUMPI POP PUSH2 0x18EE JUMP JUMPDEST PUSH0 DUP2 SSTORE DUP8 SWAP6 POP PUSH1 0x1 ADD PUSH2 0x1ABF JUMP JUMPDEST SWAP1 SWAP2 POP DUP2 SWAP1 PUSH2 0x1AAF JUMP JUMPDEST ADD MLOAD SWAP1 POP DUP9 DUP1 PUSH2 0x189A JUMP JUMPDEST PUSH1 0x1F SWAP6 SWAP5 SWAP4 SWAP3 SWAP2 SWAP6 NOT DUP3 AND SWAP6 DUP4 PUSH0 MSTORE DUP6 PUSH0 KECCAK256 SWAP2 PUSH0 JUMPDEST DUP9 DUP2 LT PUSH2 0x1B3E JUMPI POP DUP4 PUSH1 0x1 SWAP6 SWAP7 SWAP8 SWAP9 LT PUSH2 0x1B26 JUMPI JUMPDEST POP POP POP DUP2 SHL ADD SWAP1 SSTORE PUSH2 0x18AE JUMP JUMPDEST ADD MLOAD PUSH0 NOT PUSH1 0xF8 DUP5 PUSH1 0x3 SHL AND SHR NOT AND SWAP1 SSTORE DUP9 DUP1 DUP1 PUSH2 0x1B19 JUMP JUMPDEST DUP3 DUP3 ADD MLOAD DUP5 SSTORE DUP10 SWAP8 PUSH1 0x1 SWAP1 SWAP5 ADD SWAP4 SWAP3 DUP4 ADD SWAP3 ADD PUSH2 0x1B04 JUMP JUMPDEST SWAP2 DUP1 SWAP5 POP PUSH0 SWAP6 SWAP2 SWAP4 SWAP6 MSTORE DUP7 PUSH0 KECCAK256 PUSH1 0x1F DUP5 ADD PUSH1 0x5 SHR DUP2 ADD SWAP2 DUP9 DUP6 LT PUSH2 0x1BA3 JUMPI JUMPDEST SWAP1 PUSH1 0x1F DUP10 SWAP7 SWAP5 SWAP8 SWAP6 SWAP4 SWAP3 ADD PUSH1 0x5 SHR ADD SWAP1 JUMPDEST DUP2 DUP2 LT PUSH2 0x1B95 JUMPI POP POP DUP5 PUSH2 0x1881 JUMP JUMPDEST PUSH0 DUP2 SSTORE DUP9 SWAP6 POP PUSH1 0x1 ADD PUSH2 0x1B86 JUMP JUMPDEST SWAP1 SWAP2 POP DUP2 SWAP1 PUSH2 0x1B75 JUMP JUMPDEST ADD MLOAD SWAP1 POP DUP11 DUP1 PUSH2 0x1841 JUMP JUMPDEST SWAP1 PUSH1 0x1F NOT DUP4 AND SWAP2 DUP5 PUSH0 MSTORE DUP10 PUSH0 KECCAK256 SWAP3 PUSH0 JUMPDEST DUP12 DUP3 DUP3 LT PUSH2 0x1C0B JUMPI POP POP SWAP3 PUSH1 0x1 SWAP3 DUP6 SWAP3 PUSH1 0x40 SWAP9 SWAP7 PUSH1 0x2 SWAP9 SWAP7 LT PUSH2 0x1BF3 JUMPI JUMPDEST POP POP POP DUP2 SHL ADD SWAP1 SSTORE PUSH2 0x1855 JUMP JUMPDEST ADD MLOAD PUSH0 NOT PUSH1 0xF8 DUP5 PUSH1 0x3 SHL AND SHR NOT AND SWAP1 SSTORE DUP11 DUP1 DUP1 PUSH2 0x1BE6 JUMP JUMPDEST PUSH1 0x1 DUP6 SWAP7 DUP3 SWAP4 SWAP7 DUP7 ADD MLOAD DUP2 SSTORE ADD SWAP6 ADD SWAP4 ADD PUSH2 0x1BC8 JUMP JUMPDEST DUP4 PUSH0 MSTORE DUP9 PUSH0 KECCAK256 PUSH1 0x1F DUP5 ADD PUSH1 0x5 SHR DUP2 ADD SWAP2 DUP11 DUP6 LT PUSH2 0x1C5A JUMPI JUMPDEST PUSH1 0x1F ADD PUSH1 0x5 SHR ADD SWAP1 JUMPDEST DUP2 DUP2 LT PUSH2 0x1C4F JUMPI POP PUSH2 0x1822 JUMP JUMPDEST PUSH0 DUP2 SSTORE PUSH1 0x1 ADD PUSH2 0x1C42 JUMP JUMPDEST SWAP1 SWAP2 POP DUP2 SWAP1 PUSH2 0x1C39 JUMP JUMPDEST ADD MLOAD SWAP1 POP DUP8 DUP1 PUSH2 0x17E2 JUMP JUMPDEST PUSH0 DUP6 DUP2 MSTORE DUP10 DUP2 KECCAK256 SWAP4 POP PUSH1 0x1F NOT DUP6 AND SWAP1 JUMPDEST DUP11 DUP3 DUP3 LT PUSH2 0x1CBC JUMPI POP POP SWAP1 DUP5 PUSH1 0x1 SWAP6 SWAP5 SWAP4 SWAP3 LT PUSH2 0x1CA4 JUMPI JUMPDEST POP POP POP DUP2 SHL ADD DUP2 SSTORE PUSH2 0x17F6 JUMP JUMPDEST ADD MLOAD PUSH0 NOT PUSH1 0xF8 DUP5 PUSH1 0x3 SHL AND SHR NOT AND SWAP1 SSTORE DUP8 DUP1 DUP1 PUSH2 0x1C97 JUMP JUMPDEST PUSH1 0x1 DUP6 SWAP7 DUP3 SWAP4 SWAP7 DUP7 ADD MLOAD DUP2 SSTORE ADD SWAP6 ADD SWAP4 ADD PUSH2 0x1C7F JUMP JUMPDEST SWAP1 SWAP2 POP DUP4 PUSH0 MSTORE DUP8 PUSH0 KECCAK256 PUSH1 0x1F DUP5 ADD PUSH1 0x5 SHR DUP2 ADD SWAP2 DUP10 DUP6 LT PUSH2 0x1D16 JUMPI JUMPDEST SWAP1 PUSH1 0x1F DUP6 SWAP5 SWAP4 SWAP3 ADD PUSH1 0x5 SHR ADD SWAP1 JUMPDEST DUP2 DUP2 LT PUSH2 0x1D08 JUMPI POP PUSH2 0x17CD JUMP JUMPDEST PUSH0 DUP2 SSTORE DUP5 SWAP4 POP PUSH1 0x1 ADD PUSH2 0x1CFB JUMP JUMPDEST SWAP1 SWAP2 POP DUP2 SWAP1 PUSH2 0x1CED JUMP JUMPDEST ADD MLOAD SWAP1 POP DUP12 DUP1 PUSH2 0x1775 JUMP JUMPDEST SWAP1 PUSH1 0x1F NOT DUP4 AND SWAP2 DUP5 PUSH0 MSTORE DUP11 PUSH0 KECCAK256 SWAP3 PUSH0 JUMPDEST DUP13 DUP3 DUP3 LT PUSH2 0x1D7E JUMPI POP POP SWAP3 PUSH1 0x1 SWAP3 DUP6 SWAP3 PUSH1 0x5 SWAP9 SWAP7 PUSH1 0xC0 SWAP9 SWAP7 LT PUSH2 0x1D66 JUMPI JUMPDEST POP POP POP DUP2 SHL ADD SWAP1 SSTORE PUSH2 0x1789 JUMP JUMPDEST ADD MLOAD PUSH0 NOT PUSH1 0xF8 DUP5 PUSH1 0x3 SHL AND SHR NOT AND SWAP1 SSTORE DUP12 DUP1 DUP1 PUSH2 0x1D59 JUMP JUMPDEST PUSH1 0x1 DUP6 SWAP7 DUP3 SWAP4 SWAP7 DUP7 ADD MLOAD DUP2 SSTORE ADD SWAP6 ADD SWAP4 ADD PUSH2 0x1D3B JUMP JUMPDEST DUP4 PUSH0 MSTORE DUP10 PUSH0 KECCAK256 PUSH1 0x1F DUP5 ADD PUSH1 0x5 SHR DUP2 ADD SWAP2 DUP12 DUP6 LT PUSH2 0x1DCD JUMPI JUMPDEST PUSH1 0x1F ADD PUSH1 0x5 SHR ADD SWAP1 JUMPDEST DUP2 DUP2 LT PUSH2 0x1DC2 JUMPI POP PUSH2 0x1756 JUMP JUMPDEST PUSH0 DUP2 SSTORE PUSH1 0x1 ADD PUSH2 0x1DB5 JUMP JUMPDEST SWAP1 SWAP2 POP DUP2 SWAP1 PUSH2 0x1DAC JUMP JUMPDEST PUSH4 0x4E487B71 PUSH1 0xE0 SHL PUSH0 MSTORE PUSH1 0x21 PUSH1 0x4 MSTORE PUSH1 0x24 PUSH0 REVERT JUMPDEST ADD MLOAD SWAP1 POP DUP10 DUP1 PUSH2 0x16DD JUMP JUMPDEST PUSH0 DUP6 DUP2 MSTORE DUP12 DUP2 KECCAK256 SWAP4 POP PUSH1 0x1F NOT DUP6 AND SWAP1 JUMPDEST DUP13 DUP3 DUP3 LT PUSH2 0x1E43 JUMPI POP POP SWAP1 DUP5 PUSH1 0x1 SWAP6 SWAP5 SWAP4 SWAP3 LT PUSH2 0x1E2B JUMPI JUMPDEST POP POP POP DUP2 SHL ADD SWAP1 SSTORE PUSH2 0x16F1 JUMP JUMPDEST ADD MLOAD PUSH0 NOT PUSH1 0xF8 DUP5 PUSH1 0x3 SHL AND SHR NOT AND SWAP1 SSTORE DUP10 DUP1 DUP1 PUSH2 0x1E1E JUMP JUMPDEST PUSH1 0x1 DUP6 SWAP7 DUP3 SWAP4 SWAP7 DUP7 ADD MLOAD DUP2 SSTORE ADD SWAP6 ADD SWAP4 ADD PUSH2 0x1E06 JUMP JUMPDEST SWAP1 SWAP2 POP DUP4 PUSH0 MSTORE DUP10 PUSH0 KECCAK256 PUSH1 0x1F DUP5 ADD PUSH1 0x5 SHR DUP2 ADD SWAP2 DUP12 DUP6 LT PUSH2 0x1E9D JUMPI JUMPDEST SWAP1 PUSH1 0x1F DUP6 SWAP5 SWAP4 SWAP3 ADD PUSH1 0x5 SHR ADD SWAP1 JUMPDEST DUP2 DUP2 LT PUSH2 0x1E8F JUMPI POP PUSH2 0x16C8 JUMP JUMPDEST PUSH0 DUP2 SSTORE DUP5 SWAP4 POP PUSH1 0x1 ADD PUSH2 0x1E82 JUMP JUMPDEST SWAP1 SWAP2 POP DUP2 SWAP1 PUSH2 0x1E74 JUMP JUMPDEST ADD MLOAD SWAP1 POP DUP9 DUP1 PUSH2 0x1682 JUMP JUMPDEST PUSH1 0x1 DUP7 ADD PUSH0 SWAP1 DUP2 MSTORE DUP11 DUP2 KECCAK256 SWAP4 POP PUSH1 0x1F NOT DUP6 AND SWAP1 JUMPDEST DUP12 DUP3 DUP3 LT PUSH2 0x1F06 JUMPI POP POP SWAP1 DUP5 PUSH1 0x1 SWAP6 SWAP5 SWAP4 SWAP3 LT PUSH2 0x1EEE JUMPI JUMPDEST POP POP POP DUP2 SHL ADD PUSH1 0x1 DUP4 ADD SSTORE PUSH2 0x1699 JUMP JUMPDEST ADD MLOAD PUSH0 NOT PUSH1 0xF8 DUP5 PUSH1 0x3 SHL AND SHR NOT AND SWAP1 SSTORE DUP9 DUP1 DUP1 PUSH2 0x1EDE JUMP JUMPDEST PUSH1 0x1 DUP6 SWAP7 DUP3 SWAP4 SWAP7 DUP7 ADD MLOAD DUP2 SSTORE ADD SWAP6 ADD SWAP4 ADD PUSH2 0x1EC6 JUMP JUMPDEST SWAP1 SWAP2 POP PUSH1 0x1 DUP6 ADD PUSH0 MSTORE DUP9 PUSH0 KECCAK256 PUSH1 0x1F DUP5 ADD PUSH1 0x5 SHR DUP2 ADD SWAP2 DUP11 DUP6 LT PUSH2 0x1F63 JUMPI JUMPDEST SWAP1 PUSH1 0x1F DUP6 SWAP5 SWAP4 SWAP3 ADD PUSH1 0x5 SHR ADD SWAP1 JUMPDEST DUP2 DUP2 LT PUSH2 0x1F55 JUMPI POP PUSH2 0x166D JUMP JUMPDEST PUSH0 DUP2 SSTORE DUP5 SWAP4 POP PUSH1 0x1 ADD PUSH2 0x1F48 JUMP JUMPDEST SWAP1 SWAP2 POP DUP2 SWAP1 PUSH2 0x1F3A JUMP JUMPDEST ADD MLOAD SWAP1 POP DUP10 DUP1 PUSH2 0x162F JUMP JUMPDEST PUSH0 DUP8 DUP2 MSTORE DUP12 DUP2 KECCAK256 SWAP4 POP PUSH1 0x1F NOT DUP6 AND SWAP1 JUMPDEST DUP13 DUP3 DUP3 LT PUSH2 0x1FC5 JUMPI POP POP SWAP1 DUP5 PUSH1 0x1 SWAP6 SWAP5 SWAP4 SWAP3 LT PUSH2 0x1FAD JUMPI JUMPDEST POP POP POP DUP2 SHL ADD DUP4 SSTORE PUSH2 0x1643 JUMP JUMPDEST ADD MLOAD PUSH0 NOT PUSH1 0xF8 DUP5 PUSH1 0x3 SHL AND SHR NOT AND SWAP1 SSTORE DUP10 DUP1 DUP1 PUSH2 0x1FA0 JUMP JUMPDEST PUSH1 0x1 DUP6 SWAP7 DUP3 SWAP4 SWAP7 DUP7 ADD MLOAD DUP2 SSTORE ADD SWAP6 ADD SWAP4 ADD PUSH2 0x1F88 JUMP JUMPDEST SWAP1 SWAP2 POP DUP6 PUSH0 MSTORE DUP10 PUSH0 KECCAK256 PUSH1 0x1F DUP5 ADD PUSH1 0x5 SHR DUP2 ADD SWAP2 DUP12 DUP6 LT PUSH2 0x201F JUMPI JUMPDEST SWAP1 PUSH1 0x1F DUP6 SWAP5 SWAP4 SWAP3 ADD PUSH1 0x5 SHR ADD SWAP1 JUMPDEST DUP2 DUP2 LT PUSH2 0x2011 JUMPI POP PUSH2 0x161A JUMP JUMPDEST PUSH0 DUP2 SSTORE DUP5 SWAP4 POP PUSH1 0x1 ADD PUSH2 0x2004 JUMP JUMPDEST SWAP1 SWAP2 POP DUP2 SWAP1 PUSH2 0x1FF6 JUMP JUMPDEST PUSH4 0x4E487B71 PUSH1 0xE0 SHL PUSH0 MSTORE PUSH0 PUSH1 0x4 MSTORE PUSH1 0x24 PUSH0 REVERT JUMPDEST ADD MLOAD SWAP1 POP DUP10 DUP1 PUSH2 0x1561 JUMP JUMPDEST PUSH0 DUP6 DUP2 MSTORE DUP12 DUP2 KECCAK256 SWAP4 POP PUSH1 0x1F NOT DUP6 AND SWAP1 JUMPDEST DUP13 DUP3 DUP3 LT PUSH2 0x2094 JUMPI POP POP SWAP1 DUP5 PUSH1 0x1 SWAP6 SWAP5 SWAP4 SWAP3 LT PUSH2 0x207C JUMPI JUMPDEST POP POP POP DUP2 SHL ADD SWAP1 SSTORE PUSH2 0x1575 JUMP JUMPDEST ADD MLOAD PUSH0 NOT PUSH1 0xF8 DUP5 PUSH1 0x3 SHL AND SHR NOT AND SWAP1 SSTORE DUP10 DUP1 DUP1 PUSH2 0x206F JUMP JUMPDEST PUSH1 0x1 DUP6 SWAP7 DUP3 SWAP4 SWAP7 DUP7 ADD MLOAD DUP2 SSTORE ADD SWAP6 ADD SWAP4 ADD PUSH2 0x2057 JUMP JUMPDEST SWAP1 SWAP2 POP DUP4 PUSH0 MSTORE DUP10 PUSH0 KECCAK256 PUSH1 0x1F DUP5 ADD PUSH1 0x5 SHR DUP2 ADD SWAP2 DUP12 DUP6 LT PUSH2 0x20EE JUMPI JUMPDEST SWAP1 PUSH1 0x1F DUP6 SWAP5 SWAP4 SWAP3 ADD PUSH1 0x5 SHR ADD SWAP1 JUMPDEST DUP2 DUP2 LT PUSH2 0x20E0 JUMPI POP PUSH2 0x154C JUMP JUMPDEST PUSH0 DUP2 SSTORE DUP5 SWAP4 POP PUSH1 0x1 ADD PUSH2 0x20D3 JUMP JUMPDEST SWAP1 SWAP2 POP DUP2 SWAP1 PUSH2 0x20C5 JUMP JUMPDEST ADD MLOAD SWAP1 POP DUP15 DUP1 PUSH2 0x14FD JUMP JUMPDEST SWAP2 SWAP1 PUSH1 0x1F NOT DUP5 AND DUP6 PUSH0 MSTORE DUP4 PUSH0 KECCAK256 SWAP4 PUSH0 SWAP1 JUMPDEST DUP3 DUP3 LT PUSH2 0x2156 JUMPI POP POP SWAP3 PUSH1 0x1 SWAP3 DUP6 SWAP3 PUSH1 0x3 SWAP10 SWAP9 SWAP7 PUSH1 0xFF SWAP9 SWAP7 LT PUSH2 0x213F JUMPI JUMPDEST POP POP POP DUP2 SHL ADD SWAP1 SSTORE PUSH2 0x1510 JUMP JUMPDEST ADD MLOAD PUSH0 NOT DUP4 DUP11 SHL PUSH1 0xF8 AND SHR NOT AND SWAP1 SSTORE DUP15 DUP1 DUP1 PUSH2 0x2132 JUMP JUMPDEST DUP1 PUSH1 0x1 DUP7 SWAP8 DUP3 SWAP5 SWAP8 DUP8 ADD MLOAD DUP2 SSTORE ADD SWAP7 ADD SWAP5 ADD SWAP1 PUSH2 0x2114 JUMP JUMPDEST DUP5 PUSH0 MSTORE DUP2 PUSH0 KECCAK256 SWAP1 PUSH1 0x1F DUP6 ADD PUSH1 0x5 SHR DUP3 ADD SWAP3 DUP6 LT PUSH2 0x21A9 JUMPI JUMPDEST PUSH1 0x1F ADD PUSH1 0x5 SHR ADD SWAP1 JUMPDEST DUP2 DUP2 LT PUSH2 0x219E JUMPI DUP14 SWAP2 POP PUSH2 0x14DA JUMP JUMPDEST PUSH0 DUP2 SSTORE PUSH1 0x1 ADD PUSH2 0x218F JUMP JUMPDEST SWAP1 SWAP2 POP DUP2 SWAP1 PUSH2 0x2186 JUMP JUMPDEST ADD MLOAD SWAP1 POP DUP13 DUP1 PUSH2 0x149C JUMP JUMPDEST PUSH0 DUP9 DUP2 MSTORE DUP2 DUP2 KECCAK256 SWAP5 POP PUSH1 0x1F NOT DUP7 AND SWAP2 JUMPDEST DUP3 DUP3 LT PUSH2 0x220A JUMPI POP POP SWAP1 DUP5 PUSH1 0x1 SWAP6 SWAP5 SWAP4 SWAP3 LT PUSH2 0x21F2 JUMPI JUMPDEST POP POP POP DUP2 SHL ADD DUP4 SSTORE PUSH2 0x14B0 JUMP JUMPDEST ADD MLOAD PUSH0 NOT PUSH1 0xF8 DUP5 PUSH1 0x3 SHL AND SHR NOT AND SWAP1 SSTORE DUP13 DUP1 DUP1 PUSH2 0x21E5 JUMP JUMPDEST DUP1 PUSH1 0x1 DUP7 SWAP8 DUP3 SWAP5 SWAP8 DUP8 ADD MLOAD DUP2 SSTORE ADD SWAP7 ADD SWAP5 ADD SWAP1 PUSH2 0x21CE JUMP JUMPDEST SWAP1 SWAP2 SWAP3 POP DUP7 PUSH0 MSTORE DUP2 PUSH0 KECCAK256 SWAP1 PUSH1 0x1F DUP6 ADD PUSH1 0x5 SHR DUP3 ADD SWAP3 DUP6 LT PUSH2 0x2269 JUMPI JUMPDEST SWAP1 PUSH1 0x1F DUP6 SWAP5 SWAP4 SWAP3 ADD PUSH1 0x5 SHR ADD SWAP1 JUMPDEST DUP2 DUP2 LT PUSH2 0x225B JUMPI DUP15 SWAP2 POP PUSH2 0x1484 JUMP JUMPDEST PUSH0 DUP2 SSTORE DUP5 SWAP4 POP PUSH1 0x1 ADD PUSH2 0x224C JUMP JUMPDEST SWAP1 SWAP2 POP DUP2 SWAP1 PUSH2 0x223E JUMP JUMPDEST CALLVALUE PUSH2 0x1BD JUMPI PUSH0 CALLDATASIZE PUSH1 0x3 NOT ADD SLT PUSH2 0x1BD JUMPI PUSH1 0x2 SLOAD PUSH2 0x228F DUP2 PUSH2 0x3196 JUMP JUMPDEST SWAP1 PUSH0 DUP1 JUMPDEST DUP3 DUP3 LT PUSH2 0x22A8 JUMPI PUSH1 0x40 MLOAD DUP1 PUSH2 0xB37 DUP7 DUP3 PUSH2 0x2CBB JUMP JUMPDEST PUSH2 0x22D3 PUSH1 0x1 SWAP2 PUSH2 0xE5F PUSH2 0x22BD PUSH2 0xE43 DUP7 PUSH2 0x3067 JUMP JUMPDEST PUSH1 0xFF DUP4 AND SWAP1 PUSH2 0x22CC DUP3 DUP11 PUSH2 0x3213 JUMP JUMPDEST MSTORE DUP8 PUSH2 0x3213 JUMP JUMPDEST SWAP2 ADD SWAP1 PUSH2 0x2293 JUMP JUMPDEST CALLVALUE PUSH2 0x1BD JUMPI PUSH1 0x20 CALLDATASIZE PUSH1 0x3 NOT ADD SLT PUSH2 0x1BD JUMPI PUSH1 0x4 CALLDATALOAD PUSH1 0x1 PUSH1 0x1 PUSH1 0x40 SHL SUB DUP2 GT PUSH2 0x1BD JUMPI PUSH1 0x20 DUP1 PUSH2 0x2311 PUSH2 0x234E SWAP4 CALLDATASIZE SWAP1 PUSH1 0x4 ADD PUSH2 0x2ACA JUMP JUMPDEST PUSH1 0x40 MLOAD SWAP3 DUP2 DUP5 SWAP3 MLOAD SWAP2 DUP3 SWAP2 ADD DUP4 MCOPY DUP2 ADD PUSH1 0x5 DUP2 MSTORE SUB ADD SWAP1 KECCAK256 PUSH2 0xB37 PUSH2 0x233A PUSH1 0x1 PUSH2 0xF3F DUP5 PUSH2 0x2BCF JUMP JUMPDEST PUSH1 0x40 MLOAD SWAP4 DUP5 SWAP4 PUSH1 0x40 DUP6 MSTORE PUSH1 0x40 DUP6 ADD SWAP1 PUSH2 0x2B1F JUMP JUMPDEST SWAP1 DUP4 DUP3 SUB PUSH1 0x20 DUP6 ADD MSTORE PUSH2 0x2B1F JUMP JUMPDEST CALLVALUE PUSH2 0x1BD JUMPI PUSH1 0xE0 CALLDATASIZE PUSH1 0x3 NOT ADD SLT PUSH2 0x1BD JUMPI PUSH1 0x4 CALLDATALOAD PUSH1 0x1 PUSH1 0x1 PUSH1 0x40 SHL SUB DUP2 GT PUSH2 0x1BD JUMPI PUSH2 0x238C SWAP1 CALLDATASIZE SWAP1 PUSH1 0x4 ADD PUSH2 0x2ACA JUMP JUMPDEST PUSH1 0x24 CALLDATALOAD PUSH1 0x1 PUSH1 0x1 PUSH1 0x40 SHL SUB DUP2 GT PUSH2 0x1BD JUMPI PUSH2 0x23AB SWAP1 CALLDATASIZE SWAP1 PUSH1 0x4 ADD PUSH2 0x2ACA JUMP JUMPDEST PUSH1 0x44 CALLDATALOAD PUSH1 0x1 PUSH1 0x1 PUSH1 0x40 SHL SUB DUP2 GT PUSH2 0x1BD JUMPI PUSH2 0x23CA SWAP1 CALLDATASIZE SWAP1 PUSH1 0x4 ADD PUSH2 0x2ACA JUMP JUMPDEST PUSH1 0x64 CALLDATALOAD PUSH1 0x1 PUSH1 0x1 PUSH1 0x40 SHL SUB DUP2 GT PUSH2 0x1BD JUMPI PUSH2 0x23E9 SWAP1 CALLDATASIZE SWAP1 PUSH1 0x4 ADD PUSH2 0x2ACA JUMP JUMPDEST SWAP3 PUSH2 0x23F2 PUSH2 0x2B81 JUMP JUMPDEST PUSH1 0xA4 CALLDATALOAD SWAP1 PUSH1 0x1 PUSH1 0x1 PUSH1 0x40 SHL SUB DUP3 GT PUSH2 0x1BD JUMPI PUSH2 0x2415 PUSH2 0x241F SWAP3 CALLDATASIZE SWAP1 PUSH1 0x4 ADD PUSH2 0x2ACA JUMP JUMPDEST SWAP6 PUSH1 0xC4 CALLDATALOAD SWAP5 PUSH2 0x30E5 JUMP JUMPDEST PUSH1 0x40 MLOAD SWAP1 PUSH1 0x1 DUP6 MLOAD SWAP3 PUSH1 0x20 DUP2 DUP2 DUP10 ADD SWAP6 DUP1 DUP8 DUP4 MCOPY DUP2 ADD PUSH1 0x3 DUP2 MSTORE SUB ADD SWAP1 KECCAK256 ADD DUP4 MLOAD PUSH1 0x1 PUSH1 0x1 PUSH1 0x40 SHL SUB DUP2 GT PUSH2 0x697 JUMPI PUSH2 0x2458 DUP3 SLOAD PUSH2 0x2B97 JUMP JUMPDEST PUSH1 0x1F DUP2 GT PUSH2 0x27C1 JUMPI JUMPDEST POP PUSH1 0x20 PUSH1 0x1F DUP3 GT PUSH1 0x1 EQ PUSH2 0x275C JUMPI SWAP1 DUP1 PUSH2 0x2498 SWAP5 SWAP4 SWAP3 PUSH0 SWAP2 PUSH2 0x2751 JUMPI JUMPDEST POP DUP2 PUSH1 0x1 SHL SWAP2 PUSH0 NOT SWAP1 PUSH1 0x3 SHL SHR NOT AND OR SWAP1 SSTORE JUMPDEST DUP7 DUP7 PUSH2 0x3800 JUMP JUMPDEST PUSH1 0x2 SLOAD SWAP4 PUSH0 JUMPDEST DUP6 DUP2 LT PUSH2 0x24A7 JUMPI STOP JUMPDEST PUSH2 0x24B0 DUP2 PUSH2 0x3067 JUMP JUMPDEST POP PUSH1 0x40 MLOAD PUSH2 0x24C6 DUP2 PUSH2 0x385 PUSH1 0x20 DUP3 ADD DUP1 SWAP6 PUSH2 0x3115 JUMP JUMPDEST MLOAD SWAP1 KECCAK256 PUSH1 0x40 MLOAD PUSH1 0x20 DUP2 ADD SWAP1 PUSH2 0x24F3 PUSH1 0x20 DUP3 DUP8 MLOAD DUP1 DUP11 DUP8 MCOPY DUP2 ADD PUSH0 DUP4 DUP3 ADD MSTORE SUB ADD PUSH1 0x1F NOT DUP2 ADD DUP4 MSTORE DUP3 PUSH2 0x2AA9 JUMP JUMPDEST MLOAD SWAP1 KECCAK256 EQ PUSH2 0x2504 JUMPI JUMPDEST PUSH1 0x1 ADD PUSH2 0x249E JUMP JUMPDEST PUSH1 0x1 PUSH2 0x250F DUP3 PUSH2 0x3067 JUMP JUMPDEST POP ADD DUP5 MLOAD PUSH1 0x1 PUSH1 0x1 PUSH1 0x40 SHL SUB DUP2 GT PUSH2 0x697 JUMPI PUSH2 0x252B DUP3 SLOAD PUSH2 0x2B97 JUMP JUMPDEST PUSH1 0x1F DUP2 GT PUSH2 0x270C JUMPI JUMPDEST POP DUP1 PUSH1 0x20 PUSH1 0x1F DUP3 GT PUSH1 0x1 EQ PUSH2 0x26AB JUMPI PUSH0 SWAP2 PUSH2 0x26A0 JUMPI JUMPDEST POP DUP2 PUSH1 0x1 SHL SWAP2 PUSH0 NOT SWAP1 PUSH1 0x3 SHL SHR NOT AND OR SWAP1 SSTORE JUMPDEST PUSH1 0x3 PUSH2 0x2568 DUP3 PUSH2 0x3067 JUMP JUMPDEST POP ADD DUP1 SLOAD PUSH2 0xFF00 NOT AND PUSH2 0x100 OR SWAP1 SSTORE PUSH1 0x4 PUSH2 0x2582 DUP3 PUSH2 0x3067 JUMP JUMPDEST POP ADD DUP8 MLOAD PUSH1 0x1 PUSH1 0x1 PUSH1 0x40 SHL SUB DUP2 GT PUSH2 0x697 JUMPI PUSH2 0x259E DUP3 SLOAD PUSH2 0x2B97 JUMP JUMPDEST PUSH1 0x1F DUP2 GT PUSH2 0x265B JUMPI JUMPDEST POP PUSH1 0x20 PUSH1 0x1F DUP3 GT PUSH1 0x1 EQ PUSH2 0x25F6 JUMPI SWAP1 DUP1 PUSH1 0x1 SWAP5 SWAP4 SWAP3 PUSH0 SWAP2 PUSH2 0x25EB JUMPI JUMPDEST POP PUSH0 NOT PUSH1 0x3 DUP4 SWAP1 SHL SHR NOT AND SWAP1 DUP5 SHL OR SWAP1 SSTORE JUMPDEST DUP6 PUSH1 0x5 PUSH2 0x25E1 DUP4 PUSH2 0x3067 JUMP JUMPDEST POP ADD SSTORE SWAP1 POP PUSH2 0x24FC JUMP JUMPDEST SWAP1 POP DUP11 ADD MLOAD DUP12 PUSH2 0x25C3 JUMP JUMPDEST PUSH1 0x1F NOT DUP3 AND SWAP1 DUP4 PUSH0 MSTORE DUP1 PUSH0 KECCAK256 SWAP2 PUSH0 JUMPDEST DUP13 DUP3 DUP3 LT PUSH2 0x2643 JUMPI POP POP SWAP2 DUP4 SWAP2 PUSH1 0x1 SWAP7 SWAP6 SWAP5 DUP8 SWAP5 LT PUSH2 0x262B JUMPI JUMPDEST POP POP DUP2 SHL ADD SWAP1 SSTORE PUSH2 0x25D5 JUMP JUMPDEST DUP13 ADD MLOAD PUSH0 NOT PUSH1 0xF8 DUP5 PUSH1 0x3 SHL AND SHR NOT AND SWAP1 SSTORE DUP12 DUP1 PUSH2 0x261F JUMP JUMPDEST PUSH1 0x1 DUP5 SWAP6 PUSH1 0x20 SWAP4 SWAP6 DUP5 SWAP4 ADD MLOAD DUP2 SSTORE ADD SWAP5 ADD SWAP3 ADD PUSH2 0x2605 JUMP JUMPDEST DUP3 PUSH0 MSTORE PUSH1 0x20 PUSH0 KECCAK256 PUSH1 0x1F DUP4 ADD PUSH1 0x5 SHR DUP2 ADD SWAP2 PUSH1 0x20 DUP5 LT PUSH2 0x2696 JUMPI JUMPDEST PUSH1 0x1F ADD PUSH1 0x5 SHR ADD SWAP1 JUMPDEST DUP2 DUP2 LT PUSH2 0x268B JUMPI POP PUSH2 0x25A7 JUMP JUMPDEST PUSH0 DUP2 SSTORE PUSH1 0x1 ADD PUSH2 0x267E JUMP JUMPDEST SWAP1 SWAP2 POP DUP2 SWAP1 PUSH2 0x2675 JUMP JUMPDEST SWAP1 POP DUP7 ADD MLOAD DUP11 PUSH2 0x254A JUMP JUMPDEST PUSH0 DUP5 DUP2 MSTORE DUP2 DUP2 KECCAK256 SWAP3 POP PUSH1 0x1F NOT DUP5 AND SWAP1 JUMPDEST DUP2 DUP2 LT PUSH2 0x26F4 JUMPI POP SWAP1 DUP4 PUSH1 0x1 SWAP5 SWAP4 SWAP3 LT PUSH2 0x26DC JUMPI JUMPDEST POP POP DUP2 SHL ADD SWAP1 SSTORE PUSH2 0x255D JUMP JUMPDEST DUP9 ADD MLOAD PUSH0 NOT PUSH1 0xF8 DUP5 PUSH1 0x3 SHL AND SHR NOT AND SWAP1 SSTORE DUP11 DUP1 PUSH2 0x26D0 JUMP JUMPDEST SWAP2 SWAP3 PUSH1 0x20 PUSH1 0x1 DUP2 SWAP3 DUP7 DUP14 ADD MLOAD DUP2 SSTORE ADD SWAP5 ADD SWAP3 ADD PUSH2 0x26BB JUMP JUMPDEST DUP3 PUSH0 MSTORE PUSH1 0x20 PUSH0 KECCAK256 PUSH1 0x1F DUP4 ADD PUSH1 0x5 SHR DUP2 ADD SWAP2 PUSH1 0x20 DUP5 LT PUSH2 0x2747 JUMPI JUMPDEST PUSH1 0x1F ADD PUSH1 0x5 SHR ADD SWAP1 JUMPDEST DUP2 DUP2 LT PUSH2 0x273C JUMPI POP PUSH2 0x2534 JUMP JUMPDEST PUSH0 DUP2 SSTORE PUSH1 0x1 ADD PUSH2 0x272F JUMP JUMPDEST SWAP1 SWAP2 POP DUP2 SWAP1 PUSH2 0x2726 JUMP JUMPDEST SWAP1 POP DUP7 ADD MLOAD DUP11 PUSH2 0x247E JUMP JUMPDEST PUSH1 0x1F NOT DUP3 AND SWAP1 DUP4 PUSH0 MSTORE DUP1 PUSH0 KECCAK256 SWAP2 PUSH0 JUMPDEST DUP2 DUP2 LT PUSH2 0x27A9 JUMPI POP SWAP2 DUP4 SWAP2 PUSH2 0x2498 SWAP7 SWAP6 SWAP5 PUSH1 0x1 SWAP5 LT PUSH2 0x2791 JUMPI JUMPDEST POP POP DUP2 SHL ADD SWAP1 SSTORE PUSH2 0x2491 JUMP JUMPDEST DUP9 ADD MLOAD PUSH0 NOT PUSH1 0xF8 DUP5 PUSH1 0x3 SHL AND SHR NOT AND SWAP1 SSTORE DUP11 DUP1 PUSH2 0x2785 JUMP JUMPDEST SWAP2 SWAP3 PUSH1 0x20 PUSH1 0x1 DUP2 SWAP3 DUP7 DUP13 ADD MLOAD DUP2 SSTORE ADD SWAP5 ADD SWAP3 ADD PUSH2 0x276B JUMP JUMPDEST DUP3 PUSH0 MSTORE PUSH1 0x20 PUSH0 KECCAK256 PUSH1 0x1F DUP4 ADD PUSH1 0x5 SHR DUP2 ADD SWAP2 PUSH1 0x20 DUP5 LT PUSH2 0x27FC JUMPI JUMPDEST PUSH1 0x1F ADD PUSH1 0x5 SHR ADD SWAP1 JUMPDEST DUP2 DUP2 LT PUSH2 0x27F1 JUMPI POP PUSH2 0x2461 JUMP JUMPDEST PUSH0 DUP2 SSTORE PUSH1 0x1 ADD PUSH2 0x27E4 JUMP JUMPDEST SWAP1 SWAP2 POP DUP2 SWAP1 PUSH2 0x27DB JUMP JUMPDEST CALLVALUE PUSH2 0x1BD JUMPI PUSH1 0x20 CALLDATASIZE PUSH1 0x3 NOT ADD SLT PUSH2 0x1BD JUMPI PUSH1 0x4 CALLDATALOAD PUSH1 0x1 PUSH1 0x1 PUSH1 0x40 SHL SUB DUP2 GT PUSH2 0x1BD JUMPI PUSH1 0x20 DUP1 PUSH2 0x283C PUSH2 0x28B5 SWAP4 CALLDATASIZE SWAP1 PUSH1 0x4 ADD PUSH2 0x2ACA JUMP JUMPDEST PUSH1 0x40 MLOAD SWAP3 DUP2 DUP5 SWAP3 MLOAD SWAP2 DUP3 SWAP2 ADD DUP4 MCOPY DUP2 ADD PUSH0 DUP2 MSTORE SUB ADD SWAP1 KECCAK256 PUSH2 0xB37 PUSH1 0xFF DUP3 SLOAD AND SWAP2 PUSH2 0x28F5 PUSH1 0x1 DUP3 ADD SLOAD SWAP2 PUSH2 0x28E6 PUSH1 0x2 DUP3 ADD SLOAD PUSH1 0x3 DUP4 ADD SLOAD PUSH1 0x4 DUP5 ADD SLOAD PUSH1 0x5 DUP6 ADD SLOAD SWAP1 PUSH1 0x6 DUP7 ADD SLOAD SWAP3 PUSH2 0x288F PUSH1 0x7 DUP9 ADD PUSH2 0x2C6F JUMP JUMPDEST SWAP5 PUSH2 0x28A8 PUSH1 0xD PUSH2 0x28A1 PUSH1 0xA DUP12 ADD PUSH2 0x2C6F JUMP JUMPDEST SWAP10 ADD PUSH2 0x2BCF JUMP JUMPDEST SWAP10 PUSH1 0x40 MLOAD SWAP14 DUP15 DUP1 SWAP15 PUSH2 0x2CAE JUMP JUMPDEST PUSH1 0x20 DUP14 ADD MSTORE PUSH1 0x40 DUP13 ADD MSTORE PUSH1 0x60 DUP12 ADD MSTORE PUSH1 0x80 DUP11 ADD MSTORE PUSH1 0xA0 DUP10 ADD MSTORE PUSH1 0xC0 DUP9 ADD MSTORE PUSH2 0x140 PUSH1 0xE0 DUP9 ADD MSTORE PUSH2 0x140 DUP8 ADD SWAP1 PUSH2 0x2B43 JUMP JUMPDEST SWAP1 DUP6 DUP3 SUB PUSH2 0x100 DUP8 ADD MSTORE PUSH2 0x2B43 JUMP JUMPDEST SWAP1 DUP4 DUP3 SUB PUSH2 0x120 DUP6 ADD MSTORE PUSH2 0x2B1F JUMP JUMPDEST CALLVALUE PUSH2 0x1BD JUMPI PUSH1 0x60 CALLDATASIZE PUSH1 0x3 NOT ADD SLT PUSH2 0x1BD JUMPI PUSH1 0x4 CALLDATALOAD PUSH1 0x1 PUSH1 0x1 PUSH1 0x40 SHL SUB DUP2 GT PUSH2 0x1BD JUMPI PUSH2 0x2934 SWAP1 CALLDATASIZE SWAP1 PUSH1 0x4 ADD PUSH2 0x2ACA JUMP JUMPDEST PUSH1 0x24 CALLDATALOAD PUSH1 0x1 PUSH1 0x1 PUSH1 0x40 SHL SUB DUP2 GT PUSH2 0x1BD JUMPI PUSH2 0x2953 SWAP1 CALLDATASIZE SWAP1 PUSH1 0x4 ADD PUSH2 0x2ACA JUMP JUMPDEST SWAP1 PUSH1 0x44 CALLDATALOAD PUSH1 0x1 PUSH1 0x1 PUSH1 0xA0 SHL SUB DUP2 AND DUP2 SUB PUSH2 0x1BD JUMPI PUSH2 0xB37 SWAP3 PUSH2 0x2974 SWAP3 PUSH2 0x30E5 JUMP JUMPDEST PUSH1 0x40 MLOAD SWAP2 DUP3 SWAP2 PUSH1 0x20 DUP4 MSTORE PUSH1 0x20 DUP4 ADD SWAP1 PUSH2 0x2B43 JUMP JUMPDEST CALLVALUE PUSH2 0x1BD JUMPI PUSH1 0x20 CALLDATASIZE PUSH1 0x3 NOT ADD SLT PUSH2 0x1BD JUMPI PUSH1 0x4 CALLDATALOAD PUSH1 0x1 PUSH1 0x1 PUSH1 0x40 SHL SUB DUP2 GT PUSH2 0x1BD JUMPI PUSH2 0x29BB PUSH2 0x1BB SWAP2 CALLDATASIZE SWAP1 PUSH1 0x4 ADD PUSH2 0x2ACA JUMP JUMPDEST PUSH2 0x30B7 JUMP JUMPDEST CALLVALUE PUSH2 0x1BD JUMPI PUSH1 0x20 CALLDATASIZE PUSH1 0x3 NOT ADD SLT PUSH2 0x1BD JUMPI PUSH1 0x4 CALLDATALOAD PUSH1 0x1 PUSH1 0x1 PUSH1 0x40 SHL SUB DUP2 GT PUSH2 0x1BD JUMPI PUSH2 0x2974 PUSH1 0x7 PUSH1 0x20 DUP1 PUSH2 0x29FB PUSH2 0xB37 SWAP6 CALLDATASIZE SWAP1 PUSH1 0x4 ADD PUSH2 0x2ACA JUMP JUMPDEST PUSH2 0x2A03 PUSH2 0x3097 JUMP JUMPDEST POP PUSH1 0x40 MLOAD SWAP3 DUP2 DUP5 SWAP3 MLOAD SWAP2 DUP3 SWAP2 ADD DUP4 MCOPY DUP2 ADD PUSH0 DUP2 MSTORE SUB ADD SWAP1 KECCAK256 ADD PUSH2 0x2C6F JUMP JUMPDEST PUSH1 0x80 DUP2 ADD SWAP1 DUP2 LT PUSH1 0x1 PUSH1 0x1 PUSH1 0x40 SHL SUB DUP3 GT OR PUSH2 0x697 JUMPI PUSH1 0x40 MSTORE JUMP JUMPDEST PUSH1 0xE0 DUP2 ADD SWAP1 DUP2 LT PUSH1 0x1 PUSH1 0x1 PUSH1 0x40 SHL SUB DUP3 GT OR PUSH2 0x697 JUMPI PUSH1 0x40 MSTORE JUMP JUMPDEST PUSH1 0x60 DUP2 ADD SWAP1 DUP2 LT PUSH1 0x1 PUSH1 0x1 PUSH1 0x40 SHL SUB DUP3 GT OR PUSH2 0x697 JUMPI PUSH1 0x40 MSTORE JUMP JUMPDEST PUSH1 0x40 DUP2 ADD SWAP1 DUP2 LT PUSH1 0x1 PUSH1 0x1 PUSH1 0x40 SHL SUB DUP3 GT OR PUSH2 0x697 JUMPI PUSH1 0x40 MSTORE JUMP JUMPDEST PUSH2 0x140 DUP2 ADD SWAP1 DUP2 LT PUSH1 0x1 PUSH1 0x1 PUSH1 0x40 SHL SUB DUP3 GT OR PUSH2 0x697 JUMPI PUSH1 0x40 MSTORE JUMP JUMPDEST SWAP1 PUSH1 0x1F DUP1 NOT SWAP2 ADD AND DUP2 ADD SWAP1 DUP2 LT PUSH1 0x1 PUSH1 0x1 PUSH1 0x40 SHL SUB DUP3 GT OR PUSH2 0x697 JUMPI PUSH1 0x40 MSTORE JUMP JUMPDEST DUP2 PUSH1 0x1F DUP3 ADD SLT ISZERO PUSH2 0x1BD JUMPI DUP1 CALLDATALOAD SWAP1 PUSH1 0x1 PUSH1 0x1 PUSH1 0x40 SHL SUB DUP3 GT PUSH2 0x697 JUMPI PUSH1 0x40 MLOAD SWAP3 PUSH2 0x2AFE PUSH1 0x1F DUP5 ADD PUSH1 0x1F NOT AND PUSH1 0x20 ADD DUP6 PUSH2 0x2AA9 JUMP JUMPDEST DUP3 DUP5 MSTORE PUSH1 0x20 DUP4 DUP4 ADD ADD GT PUSH2 0x1BD JUMPI DUP2 PUSH0 SWAP3 PUSH1 0x20 DUP1 SWAP4 ADD DUP4 DUP7 ADD CALLDATACOPY DUP4 ADD ADD MSTORE SWAP1 JUMP JUMPDEST DUP1 MLOAD DUP1 DUP4 MSTORE PUSH1 0x20 SWAP3 SWAP2 DUP2 SWAP1 DUP5 ADD DUP5 DUP5 ADD MCOPY PUSH0 DUP3 DUP3 ADD DUP5 ADD MSTORE PUSH1 0x1F ADD PUSH1 0x1F NOT AND ADD ADD SWAP1 JUMP JUMPDEST SWAP1 PUSH1 0x40 PUSH2 0x2B6E PUSH2 0x2B5C DUP5 MLOAD PUSH1 0x60 DUP6 MSTORE PUSH1 0x60 DUP6 ADD SWAP1 PUSH2 0x2B1F JUMP JUMPDEST PUSH1 0x20 DUP6 ADD MLOAD DUP5 DUP3 SUB PUSH1 0x20 DUP7 ADD MSTORE PUSH2 0x2B1F JUMP JUMPDEST SWAP3 DUP2 ADD MLOAD PUSH1 0x1 PUSH1 0x1 PUSH1 0xA0 SHL SUB AND SWAP2 ADD MSTORE SWAP1 JUMP JUMPDEST PUSH1 0x84 CALLDATALOAD SWAP1 PUSH1 0x1 PUSH1 0x1 PUSH1 0xA0 SHL SUB DUP3 AND DUP3 SUB PUSH2 0x1BD JUMPI JUMP JUMPDEST SWAP1 PUSH1 0x1 DUP3 DUP2 SHR SWAP3 AND DUP1 ISZERO PUSH2 0x2BC5 JUMPI JUMPDEST PUSH1 0x20 DUP4 LT EQ PUSH2 0x2BB1 JUMPI JUMP JUMPDEST PUSH4 0x4E487B71 PUSH1 0xE0 SHL PUSH0 MSTORE PUSH1 0x22 PUSH1 0x4 MSTORE PUSH1 0x24 PUSH0 REVERT JUMPDEST SWAP2 PUSH1 0x7F AND SWAP2 PUSH2 0x2BA6 JUMP JUMPDEST SWAP1 PUSH1 0x40 MLOAD SWAP2 DUP3 PUSH0 DUP3 SLOAD SWAP3 PUSH2 0x2BE2 DUP5 PUSH2 0x2B97 JUMP JUMPDEST DUP1 DUP5 MSTORE SWAP4 PUSH1 0x1 DUP2 AND SWAP1 DUP2 ISZERO PUSH2 0x2C4D JUMPI POP PUSH1 0x1 EQ PUSH2 0x2C09 JUMPI JUMPDEST POP PUSH2 0x2C07 SWAP3 POP SUB DUP4 PUSH2 0x2AA9 JUMP JUMPDEST JUMP JUMPDEST SWAP1 POP PUSH0 SWAP3 SWAP2 SWAP3 MSTORE PUSH1 0x20 PUSH0 KECCAK256 SWAP1 PUSH0 SWAP2 JUMPDEST DUP2 DUP4 LT PUSH2 0x2C31 JUMPI POP POP SWAP1 PUSH1 0x20 PUSH2 0x2C07 SWAP3 DUP3 ADD ADD PUSH0 PUSH2 0x2BFA JUMP JUMPDEST PUSH1 0x20 SWAP2 SWAP4 POP DUP1 PUSH1 0x1 SWAP2 SLOAD DUP4 DUP6 DUP10 ADD ADD MSTORE ADD SWAP2 ADD SWAP1 SWAP2 DUP5 SWAP3 PUSH2 0x2C18 JUMP JUMPDEST SWAP1 POP PUSH1 0x20 SWAP3 POP PUSH2 0x2C07 SWAP5 SWAP2 POP PUSH1 0xFF NOT AND DUP3 DUP5 ADD MSTORE ISZERO ISZERO PUSH1 0x5 SHL DUP3 ADD ADD PUSH0 PUSH2 0x2BFA JUMP JUMPDEST SWAP1 PUSH1 0x40 MLOAD PUSH2 0x2C7C DUP2 PUSH2 0x2A57 JUMP JUMPDEST PUSH1 0x40 DUP2 SWAP4 PUSH2 0x2C89 DUP2 PUSH2 0x2BCF JUMP JUMPDEST DUP4 MSTORE PUSH2 0x2C97 PUSH1 0x1 DUP3 ADD PUSH2 0x2BCF JUMP JUMPDEST PUSH1 0x20 DUP5 ADD MSTORE PUSH1 0x2 ADD SLOAD PUSH1 0x1 PUSH1 0x1 PUSH1 0xA0 SHL SUB AND SWAP2 ADD MSTORE JUMP JUMPDEST SWAP1 PUSH1 0x7 DUP3 LT ISZERO PUSH2 0x1DD7 JUMPI MSTORE JUMP JUMPDEST PUSH1 0x20 DUP2 ADD PUSH1 0x20 DUP3 MSTORE DUP3 MLOAD DUP1 SWAP2 MSTORE PUSH1 0x40 DUP3 ADD SWAP2 PUSH1 0x20 PUSH1 0x40 DUP4 PUSH1 0x5 SHL DUP4 ADD ADD SWAP5 ADD SWAP3 PUSH0 SWAP2 JUMPDEST DUP4 DUP4 LT PUSH2 0x2CED JUMPI POP POP POP POP POP SWAP1 JUMP JUMPDEST SWAP1 SWAP2 SWAP3 SWAP4 SWAP5 PUSH1 0x20 DUP1 PUSH1 0x1 SWAP3 PUSH1 0x3F NOT DUP6 DUP3 SUB ADD DUP7 MSTORE DUP9 MLOAD SWAP1 PUSH1 0xC0 DUP1 PUSH2 0x2D76 PUSH2 0x2D45 PUSH2 0x2D33 PUSH2 0x2D23 DUP8 MLOAD PUSH1 0xE0 DUP9 MSTORE PUSH1 0xE0 DUP9 ADD SWAP1 PUSH2 0x2B1F JUMP JUMPDEST DUP9 DUP9 ADD MLOAD DUP8 DUP3 SUB DUP11 DUP10 ADD MSTORE PUSH2 0x2B1F JUMP JUMPDEST PUSH1 0x40 DUP8 ADD MLOAD DUP7 DUP3 SUB PUSH1 0x40 DUP9 ADD MSTORE PUSH2 0x2B1F JUMP JUMPDEST PUSH1 0xFF PUSH1 0x60 DUP8 ADD MLOAD AND PUSH1 0x60 DUP7 ADD MSTORE PUSH2 0x2D64 PUSH1 0x80 DUP8 ADD MLOAD PUSH1 0x80 DUP8 ADD SWAP1 PUSH2 0x2CAE JUMP JUMPDEST PUSH1 0xA0 DUP7 ADD MLOAD DUP6 DUP3 SUB PUSH1 0xA0 DUP8 ADD MSTORE PUSH2 0x2B1F JUMP JUMPDEST SWAP4 ADD MLOAD SWAP2 ADD MSTORE SWAP8 ADD SWAP4 ADD SWAP4 ADD SWAP2 SWAP4 SWAP3 SWAP1 PUSH2 0x2CDE JUMP JUMPDEST SWAP2 SWAP1 PUSH1 0x60 DUP4 DUP3 SUB SLT PUSH2 0x1BD JUMPI PUSH1 0x40 MLOAD SWAP1 PUSH2 0x2DA4 DUP3 PUSH2 0x2A57 JUMP JUMPDEST DUP2 SWAP4 DUP1 CALLDATALOAD PUSH1 0x1 PUSH1 0x1 PUSH1 0x40 SHL SUB DUP2 GT PUSH2 0x1BD JUMPI DUP3 PUSH2 0x2DC2 SWAP2 DUP4 ADD PUSH2 0x2ACA JUMP JUMPDEST DUP4 MSTORE PUSH1 0x20 DUP2 ADD CALLDATALOAD PUSH1 0x1 PUSH1 0x1 PUSH1 0x40 SHL SUB DUP2 GT PUSH2 0x1BD JUMPI DUP3 PUSH2 0x2DE3 SWAP2 DUP4 ADD PUSH2 0x2ACA JUMP JUMPDEST PUSH1 0x20 DUP5 ADD MSTORE PUSH1 0x40 DUP2 ADD CALLDATALOAD SWAP2 PUSH1 0x1 PUSH1 0x1 PUSH1 0x40 SHL SUB DUP4 GT PUSH2 0x1BD JUMPI PUSH1 0x40 SWAP3 PUSH2 0x2E09 SWAP3 ADD PUSH2 0x2ACA JUMP JUMPDEST SWAP2 ADD MSTORE JUMP JUMPDEST SWAP2 SWAP1 PUSH1 0x40 DUP4 DUP3 SUB SLT PUSH2 0x1BD JUMPI PUSH1 0x40 MLOAD SWAP1 PUSH2 0x2E27 DUP3 PUSH2 0x2A72 JUMP JUMPDEST DUP2 SWAP4 DUP1 CALLDATALOAD PUSH1 0x1 PUSH1 0x1 PUSH1 0x40 SHL SUB DUP2 GT PUSH2 0x1BD JUMPI DUP3 PUSH2 0x2E45 SWAP2 DUP4 ADD PUSH2 0x2ACA JUMP JUMPDEST DUP4 MSTORE PUSH1 0x20 DUP2 ADD CALLDATALOAD SWAP2 PUSH1 0x1 PUSH1 0x1 PUSH1 0x40 SHL SUB DUP4 GT PUSH2 0x1BD JUMPI PUSH1 0x20 SWAP3 PUSH2 0x2E09 SWAP3 ADD PUSH2 0x2ACA JUMP JUMPDEST PUSH1 0x40 PUSH1 0x3 NOT DUP3 ADD SLT PUSH2 0x1BD JUMPI PUSH1 0x4 CALLDATALOAD SWAP1 PUSH1 0x1 PUSH1 0x1 PUSH1 0x40 SHL SUB DUP3 GT PUSH2 0x1BD JUMPI PUSH2 0x2E92 SWAP2 PUSH1 0x4 ADD PUSH2 0x2ACA JUMP JUMPDEST SWAP1 PUSH1 0x24 CALLDATALOAD SWAP1 JUMP JUMPDEST SWAP1 PUSH2 0x2F3A SWAP2 PUSH1 0x20 DUP2 MSTORE PUSH2 0x2EB0 PUSH1 0x20 DUP3 ADD DUP4 MLOAD PUSH2 0x2CAE JUMP JUMPDEST PUSH1 0x20 DUP3 ADD MLOAD PUSH1 0x40 DUP3 ADD MSTORE PUSH1 0x40 DUP3 ADD MLOAD PUSH1 0x60 DUP3 ADD MSTORE PUSH1 0x60 DUP3 ADD MLOAD PUSH1 0x80 DUP3 ADD MSTORE PUSH1 0x80 DUP3 ADD MLOAD PUSH1 0xA0 DUP3 ADD MSTORE PUSH1 0xA0 DUP3 ADD MLOAD PUSH1 0xC0 DUP3 ADD MSTORE PUSH1 0xC0 DUP3 ADD MLOAD PUSH1 0xE0 DUP3 ADD MSTORE PUSH2 0x120 PUSH2 0x2F24 PUSH2 0x2F0E PUSH1 0xE0 DUP6 ADD MLOAD PUSH2 0x140 PUSH2 0x100 DUP7 ADD MSTORE PUSH2 0x160 DUP6 ADD SWAP1 PUSH2 0x2B43 JUMP JUMPDEST PUSH2 0x100 DUP6 ADD MLOAD DUP5 DUP3 SUB PUSH1 0x1F NOT ADD DUP5 DUP7 ADD MSTORE PUSH2 0x2B43 JUMP JUMPDEST SWAP3 ADD MLOAD SWAP1 PUSH2 0x140 PUSH1 0x1F NOT DUP3 DUP6 SUB ADD SWAP2 ADD MSTORE PUSH2 0x2B1F JUMP JUMPDEST SWAP1 JUMP JUMPDEST SWAP1 PUSH1 0x40 PUSH1 0x3 NOT DUP4 ADD SLT PUSH2 0x1BD JUMPI PUSH1 0x4 CALLDATALOAD PUSH1 0x1 PUSH1 0x1 PUSH1 0x40 SHL SUB DUP2 GT PUSH2 0x1BD JUMPI DUP3 PUSH2 0x2F68 SWAP2 PUSH1 0x4 ADD PUSH2 0x2ACA JUMP JUMPDEST SWAP2 PUSH1 0x24 CALLDATALOAD SWAP1 PUSH1 0x1 PUSH1 0x1 PUSH1 0x40 SHL SUB DUP3 GT PUSH2 0x1BD JUMPI PUSH2 0x2F3A SWAP2 PUSH1 0x4 ADD PUSH2 0x2ACA JUMP JUMPDEST SWAP2 SWAP1 PUSH1 0x60 DUP4 DUP3 SUB SLT PUSH2 0x1BD JUMPI PUSH1 0x40 MLOAD SWAP1 PUSH2 0x2FA0 DUP3 PUSH2 0x2A57 JUMP JUMPDEST DUP2 SWAP4 DUP1 CALLDATALOAD PUSH1 0x1 PUSH1 0x1 PUSH1 0x40 SHL SUB DUP2 GT PUSH2 0x1BD JUMPI DUP3 PUSH2 0x2FBE SWAP2 DUP4 ADD PUSH2 0x2ACA JUMP JUMPDEST DUP4 MSTORE PUSH1 0x20 DUP2 ADD CALLDATALOAD PUSH1 0x1 PUSH1 0x1 PUSH1 0x40 SHL SUB DUP2 GT PUSH2 0x1BD JUMPI PUSH1 0x40 SWAP3 PUSH2 0x2FE1 SWAP2 DUP4 ADD PUSH2 0x2ACA JUMP JUMPDEST PUSH1 0x20 DUP5 ADD MSTORE ADD CALLDATALOAD SWAP1 PUSH1 0x1 PUSH1 0x1 PUSH1 0xA0 SHL SUB DUP3 AND DUP3 SUB PUSH2 0x1BD JUMPI PUSH1 0x40 ADD MSTORE JUMP JUMPDEST PUSH1 0x60 PUSH1 0x3 NOT DUP3 ADD SLT PUSH2 0x1BD JUMPI PUSH1 0x4 CALLDATALOAD PUSH1 0x1 PUSH1 0x1 PUSH1 0x40 SHL SUB DUP2 GT PUSH2 0x1BD JUMPI DUP2 PUSH2 0x3029 SWAP2 PUSH1 0x4 ADD PUSH2 0x2ACA JUMP JUMPDEST SWAP2 PUSH1 0x24 CALLDATALOAD PUSH1 0x1 PUSH1 0x1 PUSH1 0x40 SHL SUB DUP2 GT PUSH2 0x1BD JUMPI DUP3 PUSH2 0x3048 SWAP2 PUSH1 0x4 ADD PUSH2 0x2ACA JUMP JUMPDEST SWAP2 PUSH1 0x44 CALLDATALOAD SWAP1 PUSH1 0x1 PUSH1 0x1 PUSH1 0x40 SHL SUB DUP3 GT PUSH2 0x1BD JUMPI PUSH2 0x2F3A SWAP2 PUSH1 0x4 ADD PUSH2 0x2F87 JUMP JUMPDEST PUSH1 0x2 SLOAD DUP2 LT ISZERO PUSH2 0x3083 JUMPI PUSH1 0x2 PUSH0 MSTORE PUSH1 0x6 PUSH1 0x20 PUSH0 KECCAK256 SWAP2 MUL ADD SWAP1 PUSH0 SWAP1 JUMP JUMPDEST PUSH4 0x4E487B71 PUSH1 0xE0 SHL PUSH0 MSTORE PUSH1 0x32 PUSH1 0x4 MSTORE PUSH1 0x24 PUSH0 REVERT JUMPDEST PUSH1 0x40 MLOAD SWAP1 PUSH2 0x30A4 DUP3 PUSH2 0x2A57 JUMP JUMPDEST PUSH0 PUSH1 0x40 DUP4 PUSH1 0x60 DUP2 MSTORE PUSH1 0x60 PUSH1 0x20 DUP3 ADD MSTORE ADD MSTORE JUMP JUMPDEST PUSH1 0x20 DUP1 SWAP2 PUSH1 0x40 MLOAD SWAP3 DUP2 DUP5 SWAP3 MLOAD SWAP2 DUP3 SWAP2 ADD DUP4 MCOPY DUP2 ADD PUSH0 DUP2 MSTORE SUB ADD SWAP1 KECCAK256 TIMESTAMP PUSH1 0x4 DUP3 ADD SSTORE PUSH1 0x3 PUSH1 0xFF NOT DUP3 SLOAD AND OR SWAP1 SSTORE JUMP JUMPDEST SWAP2 SWAP1 PUSH2 0x30EF PUSH2 0x3097 JUMP JUMPDEST POP PUSH1 0x40 MLOAD SWAP3 PUSH2 0x30FD DUP5 PUSH2 0x2A57 JUMP JUMPDEST DUP4 MSTORE PUSH1 0x20 DUP4 ADD MSTORE PUSH1 0x1 PUSH1 0x1 PUSH1 0xA0 SHL SUB AND PUSH1 0x40 DUP3 ADD MSTORE SWAP1 JUMP JUMPDEST PUSH0 SWAP3 SWAP2 DUP2 SLOAD SWAP2 PUSH2 0x3124 DUP4 PUSH2 0x2B97 JUMP JUMPDEST SWAP3 PUSH1 0x1 DUP2 AND SWAP1 DUP2 ISZERO PUSH2 0x316C JUMPI POP PUSH1 0x1 EQ PUSH2 0x313D JUMPI POP POP POP JUMP JUMPDEST SWAP1 SWAP2 SWAP3 SWAP4 POP PUSH0 MSTORE PUSH1 0x20 PUSH0 KECCAK256 PUSH0 SWAP1 JUMPDEST DUP4 DUP3 LT PUSH2 0x3158 JUMPI POP POP ADD SWAP1 JUMP JUMPDEST PUSH1 0x1 DUP2 PUSH1 0x20 SWAP3 SLOAD DUP5 DUP7 ADD MSTORE ADD SWAP2 ADD SWAP1 PUSH2 0x314B JUMP JUMPDEST PUSH1 0xFF NOT AND DUP4 MSTORE POP POP DUP2 ISZERO ISZERO SWAP1 SWAP2 MUL ADD SWAP2 POP JUMP JUMPDEST PUSH1 0x1 PUSH1 0x1 PUSH1 0x40 SHL SUB DUP2 GT PUSH2 0x697 JUMPI PUSH1 0x5 SHL PUSH1 0x20 ADD SWAP1 JUMP JUMPDEST SWAP1 PUSH2 0x31A0 DUP3 PUSH2 0x317F JUMP JUMPDEST PUSH2 0x31AD PUSH1 0x40 MLOAD SWAP2 DUP3 PUSH2 0x2AA9 JUMP JUMPDEST DUP3 DUP2 MSTORE DUP1 SWAP3 PUSH2 0x31BE PUSH1 0x1F NOT SWAP2 PUSH2 0x317F JUMP JUMPDEST ADD SWAP1 PUSH0 JUMPDEST DUP3 DUP2 LT PUSH2 0x31CE JUMPI POP POP POP JUMP JUMPDEST PUSH1 0x20 SWAP1 PUSH1 0x40 MLOAD PUSH2 0x31DD DUP2 PUSH2 0x2A3C JUMP JUMPDEST PUSH1 0x60 DUP2 MSTORE PUSH1 0x60 DUP4 DUP3 ADD MSTORE PUSH1 0x60 PUSH1 0x40 DUP3 ADD MSTORE PUSH0 PUSH1 0x60 DUP3 ADD MSTORE PUSH0 PUSH1 0x80 DUP3 ADD MSTORE PUSH1 0x60 PUSH1 0xA0 DUP3 ADD MSTORE PUSH0 PUSH1 0xC0 DUP3 ADD MSTORE DUP3 DUP3 DUP6 ADD ADD MSTORE ADD PUSH2 0x31C2 JUMP JUMPDEST DUP1 MLOAD DUP3 LT ISZERO PUSH2 0x3083 JUMPI PUSH1 0x20 SWAP2 PUSH1 0x5 SHL ADD ADD SWAP1 JUMP JUMPDEST PUSH1 0x7 DUP3 LT ISZERO PUSH2 0x1DD7 JUMPI MSTORE JUMP JUMPDEST SWAP1 PUSH1 0x40 MLOAD PUSH2 0x3240 DUP2 PUSH2 0x2A3C JUMP JUMPDEST PUSH1 0xC0 PUSH1 0x5 DUP3 SWAP5 PUSH2 0x324F DUP2 PUSH2 0x2BCF JUMP JUMPDEST DUP5 MSTORE PUSH2 0x325D PUSH1 0x1 DUP3 ADD PUSH2 0x2BCF JUMP JUMPDEST PUSH1 0x20 DUP6 ADD MSTORE PUSH2 0x326E PUSH1 0x2 DUP3 ADD PUSH2 0x2BCF JUMP JUMPDEST PUSH1 0x40 DUP6 ADD MSTORE PUSH2 0x3292 PUSH1 0xFF PUSH1 0x3 DUP4 ADD SLOAD DUP2 DUP2 AND PUSH1 0x60 DUP9 ADD MSTORE PUSH1 0x8 SHR AND PUSH1 0x80 DUP7 ADD PUSH2 0x3227 JUMP JUMPDEST PUSH2 0x329E PUSH1 0x4 DUP3 ADD PUSH2 0x2BCF JUMP JUMPDEST PUSH1 0xA0 DUP6 ADD MSTORE ADD SLOAD SWAP2 ADD MSTORE JUMP JUMPDEST PUSH1 0xFF AND PUSH1 0xFF DUP2 EQ PUSH2 0xC53 JUMPI PUSH1 0x1 ADD SWAP1 JUMP JUMPDEST PUSH1 0x40 MLOAD DUP2 MLOAD PUSH2 0x2F3A SWAP3 PUSH1 0x20 SWAP2 DUP4 SWAP2 DUP2 SWAP1 DUP5 ADD DUP4 MCOPY DUP2 ADD PUSH1 0x1 DUP2 MSTORE SUB ADD SWAP1 KECCAK256 PUSH2 0x2BCF JUMP JUMPDEST SWAP1 TIMESTAMP GT ISZERO PUSH2 0x3314 JUMPI PUSH1 0x20 DUP1 SWAP2 PUSH1 0x40 MLOAD SWAP3 DUP2 DUP5 SWAP3 MLOAD SWAP2 DUP3 SWAP2 ADD DUP4 MCOPY DUP2 ADD PUSH0 DUP2 MSTORE SUB ADD SWAP1 KECCAK256 TIMESTAMP PUSH1 0x6 DUP3 ADD SSTORE PUSH1 0x5 PUSH1 0xFF NOT DUP3 SLOAD AND OR SWAP1 SSTORE JUMP JUMPDEST PUSH1 0x40 MLOAD PUSH3 0x461BCD PUSH1 0xE5 SHL DUP2 MSTORE PUSH1 0x20 PUSH1 0x4 DUP3 ADD MSTORE PUSH1 0x18 PUSH1 0x24 DUP3 ADD MSTORE PUSH32 0x536572746966696B6174206D61736968206265726C616B750000000000000000 PUSH1 0x44 DUP3 ADD MSTORE PUSH1 0x64 SWAP1 REVERT JUMPDEST PUSH1 0x40 MLOAD SWAP1 PUSH2 0x3366 DUP3 PUSH2 0x2A8D JUMP JUMPDEST PUSH1 0x60 PUSH2 0x120 DUP4 PUSH0 DUP2 MSTORE PUSH0 PUSH1 0x20 DUP3 ADD MSTORE PUSH0 PUSH1 0x40 DUP3 ADD MSTORE PUSH0 DUP4 DUP3 ADD MSTORE PUSH0 PUSH1 0x80 DUP3 ADD MSTORE PUSH0 PUSH1 0xA0 DUP3 ADD MSTORE PUSH0 PUSH1 0xC0 DUP3 ADD MSTORE PUSH2 0x339A PUSH2 0x3097 JUMP JUMPDEST PUSH1 0xE0 DUP3 ADD MSTORE PUSH2 0x33A7 PUSH2 0x3097 JUMP JUMPDEST PUSH2 0x100 DUP3 ADD MSTORE ADD MSTORE JUMP JUMPDEST PUSH1 0x20 DUP1 SWAP2 PUSH2 0x33BD PUSH2 0x3359 JUMP JUMPDEST POP PUSH1 0x40 MLOAD SWAP3 DUP2 DUP5 SWAP3 MLOAD SWAP2 DUP3 SWAP2 ADD DUP4 MCOPY DUP2 ADD PUSH0 DUP2 MSTORE SUB ADD SWAP1 KECCAK256 PUSH2 0x345A PUSH1 0xD PUSH1 0x40 MLOAD SWAP3 PUSH2 0x33E7 DUP5 PUSH2 0x2A8D JUMP JUMPDEST PUSH2 0x33F5 PUSH1 0xFF DUP3 SLOAD AND DUP6 PUSH2 0x3227 JUMP JUMPDEST PUSH1 0x1 DUP2 ADD SLOAD PUSH1 0x20 DUP6 ADD MSTORE PUSH1 0x2 DUP2 ADD SLOAD PUSH1 0x40 DUP6 ADD MSTORE PUSH1 0x3 DUP2 ADD SLOAD PUSH1 0x60 DUP6 ADD MSTORE PUSH1 0x4 DUP2 ADD SLOAD PUSH1 0x80 DUP6 ADD MSTORE PUSH1 0x5 DUP2 ADD SLOAD PUSH1 0xA0 DUP6 ADD MSTORE PUSH1 0x6 DUP2 ADD SLOAD PUSH1 0xC0 DUP6 ADD MSTORE PUSH2 0x343D PUSH1 0x7 DUP3 ADD PUSH2 0x2C6F JUMP JUMPDEST PUSH1 0xE0 DUP6 ADD MSTORE PUSH2 0x344E PUSH1 0xA DUP3 ADD PUSH2 0x2C6F JUMP JUMPDEST PUSH2 0x100 DUP6 ADD MSTORE ADD PUSH2 0x2BCF JUMP JUMPDEST PUSH2 0x120 DUP3 ADD MSTORE SWAP1 JUMP JUMPDEST SWAP3 SWAP2 SWAP1 PUSH1 0x40 MLOAD PUSH1 0x20 DUP6 MLOAD SWAP2 DUP2 DUP2 DUP2 DUP10 ADD SWAP5 DUP1 DUP7 DUP4 MCOPY DUP2 ADD PUSH0 DUP2 MSTORE SUB ADD SWAP1 KECCAK256 SWAP6 PUSH1 0x40 MLOAD SWAP3 DUP4 SWAP2 MLOAD DUP1 SWAP2 DUP4 MCOPY DUP2 ADD PUSH1 0x1 DUP2 MSTORE SUB ADD SWAP1 KECCAK256 SWAP1 DUP1 MLOAD SWAP1 PUSH1 0x1 PUSH1 0x1 PUSH1 0x40 SHL SUB DUP3 GT PUSH2 0x697 JUMPI DUP2 SWAP1 PUSH2 0x34B5 DUP5 SLOAD PUSH2 0x2B97 JUMP JUMPDEST PUSH1 0x1F DUP2 GT PUSH2 0x37B0 JUMPI JUMPDEST POP PUSH1 0x20 SWAP1 PUSH1 0x1F DUP4 GT PUSH1 0x1 EQ PUSH2 0x374D JUMPI PUSH0 SWAP3 PUSH2 0x3742 JUMPI JUMPDEST POP POP DUP2 PUSH1 0x1 SHL SWAP2 PUSH0 NOT SWAP1 PUSH1 0x3 SHL SHR NOT AND OR SWAP1 SSTORE JUMPDEST DUP1 MLOAD DUP1 MLOAD PUSH1 0xA DUP6 ADD SWAP2 PUSH1 0x1 PUSH1 0x1 PUSH1 0x40 SHL SUB DUP3 GT PUSH2 0x697 JUMPI PUSH2 0x3509 DUP4 SLOAD PUSH2 0x2B97 JUMP JUMPDEST PUSH1 0x1F DUP2 GT PUSH2 0x36FD JUMPI JUMPDEST POP PUSH1 0x20 SWAP1 PUSH1 0x1F DUP4 GT PUSH1 0x1 EQ PUSH2 0x3696 JUMPI PUSH1 0x20 SWAP5 SWAP4 SWAP3 SWAP2 PUSH0 SWAP2 DUP4 PUSH2 0x368B JUMPI JUMPDEST POP POP DUP2 PUSH1 0x1 SHL SWAP2 PUSH0 NOT SWAP1 PUSH1 0x3 SHL SHR NOT AND OR SWAP1 SSTORE JUMPDEST PUSH1 0x40 DUP2 ADD MLOAD PUSH1 0xC DUP6 ADD DUP1 SLOAD PUSH1 0x1 PUSH1 0x1 PUSH1 0xA0 SHL SUB NOT AND PUSH1 0x1 PUSH1 0x1 PUSH1 0xA0 SHL SUB SWAP3 SWAP1 SWAP3 AND SWAP2 SWAP1 SWAP2 OR SWAP1 SSTORE ADD MLOAD DUP1 MLOAD SWAP1 SWAP3 SWAP1 PUSH1 0xB DUP3 ADD SWAP1 PUSH1 0x1 PUSH1 0x1 PUSH1 0x40 SHL SUB DUP2 GT PUSH2 0x697 JUMPI PUSH2 0x358E DUP3 SLOAD PUSH2 0x2B97 JUMP JUMPDEST PUSH1 0x1F DUP2 GT PUSH2 0x3646 JUMPI JUMPDEST POP PUSH1 0x20 SWAP5 PUSH1 0x1F DUP3 GT PUSH1 0x1 EQ PUSH2 0x35E5 JUMPI SWAP5 DUP2 SWAP3 SWAP4 SWAP5 SWAP6 PUSH0 SWAP3 PUSH2 0x35DA JUMPI JUMPDEST POP POP DUP2 PUSH1 0x1 SHL SWAP2 PUSH0 NOT SWAP1 PUSH1 0x3 SHL SHR NOT AND OR SWAP1 SSTORE JUMPDEST TIMESTAMP PUSH1 0x3 DUP3 ADD SSTORE DUP1 SLOAD PUSH1 0xFF NOT AND PUSH1 0x2 OR SWAP1 SSTORE JUMP JUMPDEST ADD MLOAD SWAP1 POP PUSH0 DUP1 PUSH2 0x35B3 JUMP JUMPDEST PUSH1 0x1F NOT DUP3 AND SWAP6 DUP4 PUSH0 MSTORE DUP1 PUSH0 KECCAK256 SWAP2 PUSH0 JUMPDEST DUP9 DUP2 LT PUSH2 0x362E JUMPI POP DUP4 PUSH1 0x1 SWAP6 SWAP7 SWAP8 SWAP9 LT PUSH2 0x3616 JUMPI JUMPDEST POP POP POP DUP2 SHL ADD SWAP1 SSTORE PUSH2 0x35C7 JUMP JUMPDEST ADD MLOAD PUSH0 NOT PUSH1 0xF8 DUP5 PUSH1 0x3 SHL AND SHR NOT AND SWAP1 SSTORE PUSH0 DUP1 DUP1 PUSH2 0x3609 JUMP JUMPDEST SWAP2 SWAP3 PUSH1 0x20 PUSH1 0x1 DUP2 SWAP3 DUP7 DUP6 ADD MLOAD DUP2 SSTORE ADD SWAP5 ADD SWAP3 ADD PUSH2 0x35F4 JUMP JUMPDEST DUP3 PUSH0 MSTORE PUSH1 0x20 PUSH0 KECCAK256 PUSH1 0x1F DUP4 ADD PUSH1 0x5 SHR DUP2 ADD SWAP2 PUSH1 0x20 DUP5 LT PUSH2 0x3681 JUMPI JUMPDEST PUSH1 0x1F ADD PUSH1 0x5 SHR ADD SWAP1 JUMPDEST DUP2 DUP2 LT PUSH2 0x3676 JUMPI POP PUSH2 0x3597 JUMP JUMPDEST PUSH0 DUP2 SSTORE PUSH1 0x1 ADD PUSH2 0x3669 JUMP JUMPDEST SWAP1 SWAP2 POP DUP2 SWAP1 PUSH2 0x3660 JUMP JUMPDEST ADD MLOAD SWAP1 POP PUSH0 DUP1 PUSH2 0x352F JUMP JUMPDEST SWAP1 PUSH1 0x1F NOT DUP4 AND SWAP2 DUP5 PUSH0 MSTORE DUP2 PUSH0 KECCAK256 SWAP3 PUSH0 JUMPDEST DUP2 DUP2 LT PUSH2 0x36E5 JUMPI POP SWAP2 PUSH1 0x1 SWAP4 SWAP2 DUP6 PUSH1 0x20 SWAP9 SWAP8 SWAP7 SWAP5 LT PUSH2 0x36CD JUMPI JUMPDEST POP POP POP DUP2 SHL ADD SWAP1 SSTORE PUSH2 0x3543 JUMP JUMPDEST ADD MLOAD PUSH0 NOT PUSH1 0xF8 DUP5 PUSH1 0x3 SHL AND SHR NOT AND SWAP1 SSTORE PUSH0 DUP1 DUP1 PUSH2 0x36C0 JUMP JUMPDEST SWAP3 SWAP4 PUSH1 0x20 PUSH1 0x1 DUP2 SWAP3 DUP8 DUP7 ADD MLOAD DUP2 SSTORE ADD SWAP6 ADD SWAP4 ADD PUSH2 0x36A6 JUMP JUMPDEST DUP4 PUSH0 MSTORE PUSH1 0x20 PUSH0 KECCAK256 PUSH1 0x1F DUP5 ADD PUSH1 0x5 SHR DUP2 ADD SWAP2 PUSH1 0x20 DUP6 LT PUSH2 0x3738 JUMPI JUMPDEST PUSH1 0x1F ADD PUSH1 0x5 SHR ADD SWAP1 JUMPDEST DUP2 DUP2 LT PUSH2 0x372D JUMPI POP PUSH2 0x3512 JUMP JUMPDEST PUSH0 DUP2 SSTORE PUSH1 0x1 ADD PUSH2 0x3720 JUMP JUMPDEST SWAP1 SWAP2 POP DUP2 SWAP1 PUSH2 0x3717 JUMP JUMPDEST ADD MLOAD SWAP1 POP PUSH0 DUP1 PUSH2 0x34D4 JUMP JUMPDEST PUSH0 DUP6 DUP2 MSTORE DUP3 DUP2 KECCAK256 SWAP4 POP PUSH1 0x1F NOT DUP6 AND SWAP1 JUMPDEST DUP2 DUP2 LT PUSH2 0x3798 JUMPI POP SWAP1 DUP5 PUSH1 0x1 SWAP6 SWAP5 SWAP4 SWAP3 LT PUSH2 0x3780 JUMPI JUMPDEST POP POP POP DUP2 SHL ADD SWAP1 SSTORE PUSH2 0x34E8 JUMP JUMPDEST ADD MLOAD PUSH0 NOT PUSH1 0xF8 DUP5 PUSH1 0x3 SHL AND SHR NOT AND SWAP1 SSTORE PUSH0 DUP1 DUP1 PUSH2 0x3773 JUMP JUMPDEST SWAP3 SWAP4 PUSH1 0x20 PUSH1 0x1 DUP2 SWAP3 DUP8 DUP7 ADD MLOAD DUP2 SSTORE ADD SWAP6 ADD SWAP4 ADD PUSH2 0x375D JUMP JUMPDEST SWAP1 SWAP2 POP DUP4 PUSH0 MSTORE PUSH1 0x20 PUSH0 KECCAK256 PUSH1 0x1F DUP5 ADD PUSH1 0x5 SHR DUP2 ADD SWAP2 PUSH1 0x20 DUP6 LT PUSH2 0x37F6 JUMPI JUMPDEST SWAP1 PUSH1 0x1F DUP6 SWAP5 SWAP4 SWAP3 ADD PUSH1 0x5 SHR ADD SWAP1 JUMPDEST DUP2 DUP2 LT PUSH2 0x37E8 JUMPI POP PUSH2 0x34BE JUMP JUMPDEST PUSH0 DUP2 SSTORE DUP5 SWAP4 POP PUSH1 0x1 ADD PUSH2 0x37DB JUMP JUMPDEST SWAP1 SWAP2 POP DUP2 SWAP1 PUSH2 0x37CD JUMP JUMPDEST PUSH1 0x20 DUP1 SWAP2 SWAP5 SWAP4 SWAP3 SWAP5 PUSH1 0x40 MLOAD SWAP3 DUP2 DUP5 SWAP3 MLOAD SWAP2 DUP3 SWAP2 ADD DUP4 MCOPY DUP2 ADD PUSH0 DUP2 MSTORE SUB ADD SWAP1 KECCAK256 SWAP1 DUP1 MLOAD PUSH1 0xA DUP4 ADD SWAP1 DUP1 MLOAD SWAP1 PUSH1 0x1 PUSH1 0x1 PUSH1 0x40 SHL SUB DUP3 GT PUSH2 0x697 JUMPI PUSH2 0x3842 DUP4 SLOAD PUSH2 0x2B97 JUMP JUMPDEST PUSH1 0x1F DUP2 GT PUSH2 0x3B4E JUMPI JUMPDEST POP PUSH1 0x20 SWAP1 PUSH1 0x1F DUP4 GT PUSH1 0x1 EQ PUSH2 0x3AE7 JUMPI PUSH1 0x20 SWAP5 SWAP4 SWAP3 SWAP2 PUSH0 SWAP2 DUP4 PUSH2 0x3ADC JUMPI JUMPDEST POP POP DUP2 PUSH1 0x1 SHL SWAP2 PUSH0 NOT SWAP1 PUSH1 0x3 SHL SHR NOT AND OR SWAP1 SSTORE JUMPDEST PUSH1 0x40 DUP2 ADD MLOAD PUSH1 0xC DUP5 ADD DUP1 SLOAD PUSH1 0x1 PUSH1 0x1 PUSH1 0xA0 SHL SUB NOT AND PUSH1 0x1 PUSH1 0x1 PUSH1 0xA0 SHL SUB SWAP3 SWAP1 SWAP3 AND SWAP2 SWAP1 SWAP2 OR SWAP1 SSTORE ADD MLOAD DUP1 MLOAD PUSH1 0xB DUP4 ADD SWAP2 PUSH1 0x1 PUSH1 0x1 PUSH1 0x40 SHL SUB DUP3 GT PUSH2 0x697 JUMPI DUP2 SWAP1 PUSH2 0x38C6 DUP5 SLOAD PUSH2 0x2B97 JUMP JUMPDEST PUSH1 0x1F DUP2 GT PUSH2 0x3A8C JUMPI JUMPDEST POP PUSH1 0x20 SWAP1 PUSH1 0x1F DUP4 GT PUSH1 0x1 EQ PUSH2 0x3A29 JUMPI PUSH0 SWAP3 PUSH2 0x3A1E JUMPI JUMPDEST POP POP DUP2 PUSH1 0x1 SHL SWAP2 PUSH0 NOT SWAP1 PUSH1 0x3 SHL SHR NOT AND OR SWAP1 SSTORE JUMPDEST TIMESTAMP PUSH1 0x2 DUP3 ADD SSTORE PUSH1 0x82 TIMESTAMP ADD SWAP1 DUP2 TIMESTAMP GT PUSH2 0xC53 JUMPI PUSH1 0xD SWAP2 PUSH1 0x5 DUP3 ADD SSTORE PUSH1 0x1 PUSH1 0xFF NOT DUP3 SLOAD AND OR DUP2 SSTORE ADD DUP3 MLOAD PUSH1 0x1 PUSH1 0x1 PUSH1 0x40 SHL SUB DUP2 GT PUSH2 0x697 JUMPI PUSH2 0x3939 DUP3 SLOAD PUSH2 0x2B97 JUMP JUMPDEST PUSH1 0x1F DUP2 GT PUSH2 0x39D9 JUMPI JUMPDEST POP PUSH1 0x20 PUSH1 0x1F DUP3 GT PUSH1 0x1 EQ PUSH2 0x397B JUMPI DUP2 SWAP3 SWAP4 SWAP5 PUSH0 SWAP3 PUSH2 0x3970 JUMPI JUMPDEST POP POP DUP2 PUSH1 0x1 SHL SWAP2 PUSH0 NOT SWAP1 PUSH1 0x3 SHL SHR NOT AND OR SWAP1 SSTORE JUMP JUMPDEST ADD MLOAD SWAP1 POP PUSH0 DUP1 PUSH2 0x395B JUMP JUMPDEST PUSH1 0x1F NOT DUP3 AND SWAP1 DUP4 PUSH0 MSTORE DUP1 PUSH0 KECCAK256 SWAP2 PUSH0 JUMPDEST DUP2 DUP2 LT PUSH2 0x39C1 JUMPI POP SWAP6 DUP4 PUSH1 0x1 SWAP6 SWAP7 SWAP8 LT PUSH2 0x39A9 JUMPI JUMPDEST POP POP POP DUP2 SHL ADD SWAP1 SSTORE JUMP JUMPDEST ADD MLOAD PUSH0 NOT PUSH1 0xF8 DUP5 PUSH1 0x3 SHL AND SHR NOT AND SWAP1 SSTORE PUSH0 DUP1 DUP1 PUSH2 0x399F JUMP JUMPDEST SWAP2 SWAP3 PUSH1 0x20 PUSH1 0x1 DUP2 SWAP3 DUP7 DUP12 ADD MLOAD DUP2 SSTORE ADD SWAP5 ADD SWAP3 ADD PUSH2 0x398A JUMP JUMPDEST DUP3 PUSH0 MSTORE PUSH1 0x20 PUSH0 KECCAK256 PUSH1 0x1F DUP4 ADD PUSH1 0x5 SHR DUP2 ADD SWAP2 PUSH1 0x20 DUP5 LT PUSH2 0x3A14 JUMPI JUMPDEST PUSH1 0x1F ADD PUSH1 0x5 SHR ADD SWAP1 JUMPDEST DUP2 DUP2 LT PUSH2 0x3A09 JUMPI POP PUSH2 0x3942 JUMP JUMPDEST PUSH0 DUP2 SSTORE PUSH1 0x1 ADD PUSH2 0x39FC JUMP JUMPDEST SWAP1 SWAP2 POP DUP2 SWAP1 PUSH2 0x39F3 JUMP JUMPDEST ADD MLOAD SWAP1 POP PUSH0 DUP1 PUSH2 0x38E5 JUMP JUMPDEST PUSH0 DUP6 DUP2 MSTORE DUP3 DUP2 KECCAK256 SWAP4 POP PUSH1 0x1F NOT DUP6 AND SWAP1 JUMPDEST DUP2 DUP2 LT PUSH2 0x3A74 JUMPI POP SWAP1 DUP5 PUSH1 0x1 SWAP6 SWAP5 SWAP4 SWAP3 LT PUSH2 0x3A5C JUMPI JUMPDEST POP POP POP DUP2 SHL ADD SWAP1 SSTORE PUSH2 0x38F9 JUMP JUMPDEST ADD MLOAD PUSH0 NOT PUSH1 0xF8 DUP5 PUSH1 0x3 SHL AND SHR NOT AND SWAP1 SSTORE PUSH0 DUP1 DUP1 PUSH2 0x3A4F JUMP JUMPDEST SWAP3 SWAP4 PUSH1 0x20 PUSH1 0x1 DUP2 SWAP3 DUP8 DUP7 ADD MLOAD DUP2 SSTORE ADD SWAP6 ADD SWAP4 ADD PUSH2 0x3A39 JUMP JUMPDEST SWAP1 SWAP2 POP DUP4 PUSH0 MSTORE PUSH1 0x20 PUSH0 KECCAK256 PUSH1 0x1F DUP5 ADD PUSH1 0x5 SHR DUP2 ADD SWAP2 PUSH1 0x20 DUP6 LT PUSH2 0x3AD2 JUMPI JUMPDEST SWAP1 PUSH1 0x1F DUP6 SWAP5 SWAP4 SWAP3 ADD PUSH1 0x5 SHR ADD SWAP1 JUMPDEST DUP2 DUP2 LT PUSH2 0x3AC4 JUMPI POP PUSH2 0x38CF JUMP JUMPDEST PUSH0 DUP2 SSTORE DUP5 SWAP4 POP PUSH1 0x1 ADD PUSH2 0x3AB7 JUMP JUMPDEST SWAP1 SWAP2 POP DUP2 SWAP1 PUSH2 0x3AA9 JUMP JUMPDEST ADD MLOAD SWAP1 POP PUSH0 DUP1 PUSH2 0x3868 JUMP JUMPDEST SWAP1 PUSH1 0x1F NOT DUP4 AND SWAP2 DUP5 PUSH0 MSTORE DUP2 PUSH0 KECCAK256 SWAP3 PUSH0 JUMPDEST DUP2 DUP2 LT PUSH2 0x3B36 JUMPI POP SWAP2 PUSH1 0x1 SWAP4 SWAP2 DUP6 PUSH1 0x20 SWAP9 SWAP8 SWAP7 SWAP5 LT PUSH2 0x3B1E JUMPI JUMPDEST POP POP POP DUP2 SHL ADD SWAP1 SSTORE PUSH2 0x387C JUMP JUMPDEST ADD MLOAD PUSH0 NOT PUSH1 0xF8 DUP5 PUSH1 0x3 SHL AND SHR NOT AND SWAP1 SSTORE PUSH0 DUP1 DUP1 PUSH2 0x3B11 JUMP JUMPDEST SWAP3 SWAP4 PUSH1 0x20 PUSH1 0x1 DUP2 SWAP3 DUP8 DUP7 ADD MLOAD DUP2 SSTORE ADD SWAP6 ADD SWAP4 ADD PUSH2 0x3AF7 JUMP JUMPDEST DUP4 PUSH0 MSTORE PUSH1 0x20 PUSH0 KECCAK256 PUSH1 0x1F DUP5 ADD PUSH1 0x5 SHR DUP2 ADD SWAP2 PUSH1 0x20 DUP6 LT PUSH2 0x3B89 JUMPI JUMPDEST PUSH1 0x1F ADD PUSH1 0x5 SHR ADD SWAP1 JUMPDEST DUP2 DUP2 LT PUSH2 0x3B7E JUMPI POP PUSH2 0x384B JUMP JUMPDEST PUSH0 DUP2 SSTORE PUSH1 0x1 ADD PUSH2 0x3B71 JUMP JUMPDEST SWAP1 SWAP2 POP DUP2 SWAP1 PUSH2 0x3B68 JUMP JUMPDEST PUSH1 0x20 DUP1 SWAP2 SWAP4 SWAP3 SWAP4 PUSH1 0x40 MLOAD SWAP3 DUP2 DUP5 SWAP3 MLOAD SWAP2 DUP3 SWAP2 ADD DUP4 MCOPY DUP2 ADD PUSH0 DUP2 MSTORE SUB ADD SWAP1 KECCAK256 TIMESTAMP PUSH1 0x2 DUP3 ADD SSTORE PUSH1 0x82 TIMESTAMP ADD SWAP1 DUP2 TIMESTAMP GT PUSH2 0xC53 JUMPI PUSH1 0xD SWAP2 PUSH1 0x5 DUP3 ADD SSTORE PUSH1 0x6 PUSH1 0xFF NOT DUP3 SLOAD AND OR DUP2 SSTORE ADD DUP3 MLOAD PUSH1 0x1 PUSH1 0x1 PUSH1 0x40 SHL SUB DUP2 GT PUSH2 0x697 JUMPI PUSH2 0x3BF1 DUP3 SLOAD PUSH2 0x2B97 JUMP JUMPDEST PUSH1 0x1F DUP2 GT PUSH2 0x3C6C JUMPI JUMPDEST POP PUSH1 0x20 PUSH1 0x1F DUP3 GT PUSH1 0x1 EQ PUSH2 0x3C27 JUMPI DUP2 SWAP3 SWAP4 SWAP5 PUSH0 SWAP3 PUSH2 0x3970 JUMPI POP POP DUP2 PUSH1 0x1 SHL SWAP2 PUSH0 NOT SWAP1 PUSH1 0x3 SHL SHR NOT AND OR SWAP1 SSTORE JUMP JUMPDEST PUSH1 0x1F NOT DUP3 AND SWAP1 DUP4 PUSH0 MSTORE DUP1 PUSH0 KECCAK256 SWAP2 PUSH0 JUMPDEST DUP2 DUP2 LT PUSH2 0x3C54 JUMPI POP SWAP6 DUP4 PUSH1 0x1 SWAP6 SWAP7 SWAP8 LT PUSH2 0x39A9 JUMPI POP POP POP DUP2 SHL ADD SWAP1 SSTORE JUMP JUMPDEST SWAP2 SWAP3 PUSH1 0x20 PUSH1 0x1 DUP2 SWAP3 DUP7 DUP12 ADD MLOAD DUP2 SSTORE ADD SWAP5 ADD SWAP3 ADD PUSH2 0x3C36 JUMP JUMPDEST DUP3 PUSH0 MSTORE PUSH1 0x20 PUSH0 KECCAK256 PUSH1 0x1F DUP4 ADD PUSH1 0x5 SHR DUP2 ADD SWAP2 PUSH1 0x20 DUP5 LT PUSH2 0x3CA7 JUMPI JUMPDEST PUSH1 0x1F ADD PUSH1 0x5 SHR ADD SWAP1 JUMPDEST DUP2 DUP2 LT PUSH2 0x3C9C JUMPI POP PUSH2 0x3BFA JUMP JUMPDEST PUSH0 DUP2 SSTORE PUSH1 0x1 ADD PUSH2 0x3C8F JUMP JUMPDEST SWAP1 SWAP2 POP DUP2 SWAP1 PUSH2 0x3C86 JUMP JUMPDEST SWAP3 SWAP1 SWAP2 PUSH1 0x40 MLOAD PUSH2 0x3CC0 DUP2 PUSH2 0x2A8D JUMP JUMPDEST PUSH0 DUP2 MSTORE PUSH1 0x20 DUP2 ADD SWAP5 TIMESTAMP DUP7 MSTORE PUSH1 0x40 DUP3 ADD PUSH0 DUP2 MSTORE PUSH1 0x60 DUP4 ADD PUSH0 DUP2 MSTORE PUSH1 0x80 DUP5 ADD PUSH0 DUP2 MSTORE PUSH1 0xA0 DUP6 ADD SWAP2 PUSH0 DUP4 MSTORE PUSH1 0xC0 DUP7 ADD SWAP4 PUSH0 DUP6 MSTORE PUSH1 0xE0 DUP8 ADD SWAP6 DUP7 MSTORE PUSH2 0x100 DUP8 ADD SWAP10 DUP11 MSTORE PUSH1 0x20 SWAP11 DUP12 DUP1 PUSH1 0x40 MLOAD SWAP11 PUSH2 0x3D12 DUP3 DUP14 PUSH2 0x2AA9 JUMP JUMPDEST PUSH0 DUP13 MSTORE PUSH2 0x120 DUP12 ADD SWAP12 DUP13 MSTORE PUSH1 0x40 MLOAD SWAP3 DUP2 DUP5 SWAP3 MLOAD SWAP2 DUP3 SWAP2 ADD DUP4 MCOPY DUP2 ADD PUSH0 DUP2 MSTORE SUB ADD SWAP1 KECCAK256 SWAP8 MLOAD PUSH1 0x7 DUP2 LT ISZERO PUSH2 0x1DD7 JUMPI PUSH1 0xFF DUP1 NOT DUP11 SLOAD AND SWAP2 AND OR DUP9 SSTORE MLOAD PUSH1 0x1 DUP9 ADD SSTORE MLOAD PUSH1 0x2 DUP8 ADD SSTORE MLOAD PUSH1 0x3 DUP7 ADD SSTORE MLOAD PUSH1 0x4 DUP6 ADD SSTORE MLOAD PUSH1 0x5 DUP5 ADD SSTORE MLOAD PUSH1 0x6 DUP4 ADD SSTORE PUSH1 0x7 DUP3 ADD SWAP1 MLOAD SWAP1 DUP2 MLOAD DUP1 MLOAD SWAP1 PUSH1 0x1 PUSH1 0x1 PUSH1 0x40 SHL SUB DUP3 GT PUSH2 0x697 JUMPI DUP2 SWAP1 PUSH2 0x3D95 DUP5 SLOAD PUSH2 0x2B97 JUMP JUMPDEST PUSH1 0x1F DUP2 GT PUSH2 0x42A2 JUMPI JUMPDEST POP DUP10 SWAP1 PUSH1 0x1F DUP4 GT PUSH1 0x1 EQ PUSH2 0x423F JUMPI PUSH0 SWAP3 PUSH2 0x4234 JUMPI JUMPDEST POP POP DUP2 PUSH1 0x1 SHL SWAP2 PUSH0 NOT SWAP1 PUSH1 0x3 SHL SHR NOT AND OR SWAP1 SSTORE JUMPDEST PUSH1 0x8 DUP3 ADD DUP7 DUP3 ADD MLOAD DUP1 MLOAD SWAP1 PUSH1 0x1 PUSH1 0x1 PUSH1 0x40 SHL SUB DUP3 GT PUSH2 0x697 JUMPI DUP2 SWAP1 PUSH2 0x3DEC DUP5 SLOAD PUSH2 0x2B97 JUMP JUMPDEST PUSH1 0x1F DUP2 GT PUSH2 0x41E6 JUMPI JUMPDEST POP DUP10 SWAP1 PUSH1 0x1F DUP4 GT PUSH1 0x1 EQ PUSH2 0x4183 JUMPI PUSH0 SWAP3 PUSH2 0x4178 JUMPI JUMPDEST POP POP DUP2 PUSH1 0x1 SHL SWAP2 PUSH0 NOT SWAP1 PUSH1 0x3 SHL SHR NOT AND OR SWAP1 SSTORE JUMPDEST PUSH1 0x40 ADD MLOAD PUSH1 0x9 DUP3 ADD DUP1 SLOAD PUSH1 0x1 PUSH1 0x1 PUSH1 0xA0 SHL SUB NOT AND PUSH1 0x1 PUSH1 0x1 PUSH1 0xA0 SHL SUB SWAP3 SWAP1 SWAP3 AND SWAP2 SWAP1 SWAP2 OR SWAP1 SSTORE SWAP3 MLOAD DUP1 MLOAD DUP1 MLOAD SWAP2 SWAP5 SWAP2 PUSH1 0xA DUP4 ADD SWAP2 PUSH1 0x1 PUSH1 0x1 PUSH1 0x40 SHL SUB DUP3 GT PUSH2 0x697 JUMPI DUP2 SWAP1 PUSH2 0x3E6C DUP5 SLOAD PUSH2 0x2B97 JUMP JUMPDEST PUSH1 0x1F DUP2 GT PUSH2 0x412A JUMPI JUMPDEST POP DUP9 SWAP1 PUSH1 0x1F DUP4 GT PUSH1 0x1 EQ PUSH2 0x40C7 JUMPI PUSH0 SWAP3 PUSH2 0x40BC JUMPI JUMPDEST POP POP DUP2 PUSH1 0x1 SHL SWAP2 PUSH0 NOT SWAP1 PUSH1 0x3 SHL SHR NOT AND OR SWAP1 SSTORE JUMPDEST PUSH1 0xB DUP2 ADD SWAP4 DUP6 DUP2 ADD MLOAD SWAP5 DUP6 MLOAD SWAP6 PUSH1 0x1 PUSH1 0x1 PUSH1 0x40 SHL SUB DUP8 GT PUSH2 0x697 JUMPI PUSH2 0x3EC3 DUP3 SLOAD PUSH2 0x2B97 JUMP JUMPDEST PUSH1 0x1F DUP2 GT PUSH2 0x4079 JUMPI JUMPDEST POP DUP8 SWAP1 PUSH1 0x1F DUP9 GT PUSH1 0x1 EQ PUSH2 0x4012 JUMPI SWAP7 DUP1 SWAP2 PUSH1 0xD SWAP7 SWAP8 SWAP9 PUSH0 SWAP3 PUSH2 0x4007 JUMPI JUMPDEST POP POP DUP2 PUSH1 0x1 SHL SWAP2 PUSH0 NOT SWAP1 PUSH1 0x3 SHL SHR NOT AND OR SWAP1 SSTORE JUMPDEST PUSH1 0x40 ADD MLOAD PUSH1 0xC DUP3 ADD DUP1 SLOAD PUSH1 0x1 PUSH1 0x1 PUSH1 0xA0 SHL SUB NOT AND PUSH1 0x1 PUSH1 0x1 PUSH1 0xA0 SHL SUB SWAP3 SWAP1 SWAP3 AND SWAP2 SWAP1 SWAP2 OR SWAP1 SSTORE SWAP2 MLOAD DUP1 MLOAD SWAP1 SWAP5 SWAP2 SWAP1 SWAP3 ADD SWAP2 SWAP1 PUSH1 0x1 PUSH1 0x1 PUSH1 0x40 SHL SUB DUP3 GT PUSH2 0x697 JUMPI PUSH2 0x3F47 DUP4 SLOAD PUSH2 0x2B97 JUMP JUMPDEST PUSH1 0x1F DUP2 GT PUSH2 0x3FC4 JUMPI JUMPDEST POP DUP1 PUSH1 0x1F DUP4 GT PUSH1 0x1 EQ PUSH2 0x3F7D JUMPI POP DUP2 SWAP3 SWAP4 SWAP5 PUSH0 SWAP3 PUSH2 0x3970 JUMPI POP POP DUP2 PUSH1 0x1 SHL SWAP2 PUSH0 NOT SWAP1 PUSH1 0x3 SHL SHR NOT AND OR SWAP1 SSTORE JUMP JUMPDEST SWAP1 PUSH1 0x1F NOT DUP4 AND SWAP6 DUP5 PUSH0 MSTORE DUP3 PUSH0 KECCAK256 SWAP3 PUSH0 SWAP1 JUMPDEST DUP9 DUP3 LT PUSH2 0x3FAC JUMPI POP POP DUP4 PUSH1 0x1 SWAP6 SWAP7 SWAP8 LT PUSH2 0x39A9 JUMPI POP POP POP DUP2 SHL ADD SWAP1 SSTORE JUMP JUMPDEST DUP1 PUSH1 0x1 DUP6 SWAP7 DUP3 SWAP5 SWAP7 DUP7 ADD MLOAD DUP2 SSTORE ADD SWAP6 ADD SWAP4 ADD SWAP1 PUSH2 0x3F8E JUMP JUMPDEST DUP4 PUSH0 MSTORE DUP2 PUSH0 KECCAK256 PUSH1 0x1F DUP5 ADD PUSH1 0x5 SHR DUP2 ADD SWAP2 DUP4 DUP6 LT PUSH2 0x3FFD JUMPI JUMPDEST PUSH1 0x1F ADD PUSH1 0x5 SHR ADD SWAP1 JUMPDEST DUP2 DUP2 LT PUSH2 0x3FF2 JUMPI POP PUSH2 0x3F50 JUMP JUMPDEST PUSH0 DUP2 SSTORE PUSH1 0x1 ADD PUSH2 0x3FE5 JUMP JUMPDEST SWAP1 SWAP2 POP DUP2 SWAP1 PUSH2 0x3FDC JUMP JUMPDEST ADD MLOAD SWAP1 POP PUSH0 DUP1 PUSH2 0x3EE9 JUMP JUMPDEST SWAP1 PUSH1 0x1F NOT DUP9 AND SWAP2 DUP4 PUSH0 MSTORE DUP10 PUSH0 KECCAK256 SWAP3 PUSH0 JUMPDEST DUP12 DUP3 DUP3 LT PUSH2 0x4063 JUMPI POP POP SWAP2 PUSH1 0x1 SWAP4 SWAP2 DUP11 PUSH1 0xD SWAP10 SWAP11 SWAP12 SWAP5 LT PUSH2 0x404B JUMPI JUMPDEST POP POP POP DUP2 SHL ADD SWAP1 SSTORE PUSH2 0x3EFD JUMP JUMPDEST ADD MLOAD PUSH0 NOT PUSH1 0xF8 DUP5 PUSH1 0x3 SHL AND SHR NOT AND SWAP1 SSTORE PUSH0 DUP1 DUP1 PUSH2 0x403E JUMP JUMPDEST PUSH1 0x1 DUP6 SWAP7 DUP3 SWAP4 SWAP7 DUP7 ADD MLOAD DUP2 SSTORE ADD SWAP6 ADD SWAP4 ADD PUSH2 0x4022 JUMP JUMPDEST DUP3 PUSH0 MSTORE DUP9 PUSH0 KECCAK256 PUSH1 0x1F DUP10 ADD PUSH1 0x5 SHR DUP2 ADD SWAP2 DUP11 DUP11 LT PUSH2 0x40B2 JUMPI JUMPDEST PUSH1 0x1F ADD PUSH1 0x5 SHR ADD SWAP1 JUMPDEST DUP2 DUP2 LT PUSH2 0x40A7 JUMPI POP PUSH2 0x3ECC JUMP JUMPDEST PUSH0 DUP2 SSTORE PUSH1 0x1 ADD PUSH2 0x409A JUMP JUMPDEST SWAP1 SWAP2 POP DUP2 SWAP1 PUSH2 0x4091 JUMP JUMPDEST ADD MLOAD SWAP1 POP PUSH0 DUP1 PUSH2 0x3E8A JUMP JUMPDEST PUSH0 DUP6 DUP2 MSTORE DUP11 DUP2 KECCAK256 SWAP4 POP PUSH1 0x1F NOT DUP6 AND SWAP1 JUMPDEST DUP12 DUP3 DUP3 LT PUSH2 0x4114 JUMPI POP POP SWAP1 DUP5 PUSH1 0x1 SWAP6 SWAP5 SWAP4 SWAP3 LT PUSH2 0x40FC JUMPI JUMPDEST POP POP POP DUP2 SHL ADD SWAP1 SSTORE PUSH2 0x3E9E JUMP JUMPDEST ADD MLOAD PUSH0 NOT PUSH1 0xF8 DUP5 PUSH1 0x3 SHL AND SHR NOT AND SWAP1 SSTORE PUSH0 DUP1 DUP1 PUSH2 0x40EF JUMP JUMPDEST PUSH1 0x1 DUP6 SWAP7 DUP3 SWAP4 SWAP7 DUP7 ADD MLOAD DUP2 SSTORE ADD SWAP6 ADD SWAP4 ADD PUSH2 0x40D7 JUMP JUMPDEST SWAP1 SWAP2 POP DUP4 PUSH0 MSTORE DUP9 PUSH0 KECCAK256 PUSH1 0x1F DUP5 ADD PUSH1 0x5 SHR DUP2 ADD SWAP2 DUP11 DUP6 LT PUSH2 0x416E JUMPI JUMPDEST SWAP1 PUSH1 0x1F DUP6 SWAP5 SWAP4 SWAP3 ADD PUSH1 0x5 SHR ADD SWAP1 JUMPDEST DUP2 DUP2 LT PUSH2 0x4160 JUMPI POP PUSH2 0x3E75 JUMP JUMPDEST PUSH0 DUP2 SSTORE DUP5 SWAP4 POP PUSH1 0x1 ADD PUSH2 0x4153 JUMP JUMPDEST SWAP1 SWAP2 POP DUP2 SWAP1 PUSH2 0x4145 JUMP JUMPDEST ADD MLOAD SWAP1 POP PUSH0 DUP1 PUSH2 0x3E0A JUMP JUMPDEST PUSH0 DUP6 DUP2 MSTORE DUP12 DUP2 KECCAK256 SWAP4 POP PUSH1 0x1F NOT DUP6 AND SWAP1 JUMPDEST DUP13 DUP3 DUP3 LT PUSH2 0x41D0 JUMPI POP POP SWAP1 DUP5 PUSH1 0x1 SWAP6 SWAP5 SWAP4 SWAP3 LT PUSH2 0x41B8 JUMPI JUMPDEST POP POP POP DUP2 SHL ADD SWAP1 SSTORE PUSH2 0x3E1E JUMP JUMPDEST ADD MLOAD PUSH0 NOT PUSH1 0xF8 DUP5 PUSH1 0x3 SHL AND SHR NOT AND SWAP1 SSTORE PUSH0 DUP1 DUP1 PUSH2 0x41AB JUMP JUMPDEST PUSH1 0x1 DUP6 SWAP7 DUP3 SWAP4 SWAP7 DUP7 ADD MLOAD DUP2 SSTORE ADD SWAP6 ADD SWAP4 ADD PUSH2 0x4193 JUMP JUMPDEST SWAP1 SWAP2 POP DUP4 PUSH0 MSTORE DUP10 PUSH0 KECCAK256 PUSH1 0x1F DUP5 ADD PUSH1 0x5 SHR DUP2 ADD SWAP2 DUP12 DUP6 LT PUSH2 0x422A JUMPI JUMPDEST SWAP1 PUSH1 0x1F DUP6 SWAP5 SWAP4 SWAP3 ADD PUSH1 0x5 SHR ADD SWAP1 JUMPDEST DUP2 DUP2 LT PUSH2 0x421C JUMPI POP PUSH2 0x3DF5 JUMP JUMPDEST PUSH0 DUP2 SSTORE DUP5 SWAP4 POP PUSH1 0x1 ADD PUSH2 0x420F JUMP JUMPDEST SWAP1 SWAP2 POP DUP2 SWAP1 PUSH2 0x4201 JUMP JUMPDEST ADD MLOAD SWAP1 POP PUSH0 DUP1 PUSH2 0x3DB3 JUMP JUMPDEST PUSH0 DUP6 DUP2 MSTORE DUP12 DUP2 KECCAK256 SWAP4 POP PUSH1 0x1F NOT DUP6 AND SWAP1 JUMPDEST DUP13 DUP3 DUP3 LT PUSH2 0x428C JUMPI POP POP SWAP1 DUP5 PUSH1 0x1 SWAP6 SWAP5 SWAP4 SWAP3 LT PUSH2 0x4274 JUMPI JUMPDEST POP POP POP DUP2 SHL ADD SWAP1 SSTORE PUSH2 0x3DC7 JUMP JUMPDEST ADD MLOAD PUSH0 NOT PUSH1 0xF8 DUP5 PUSH1 0x3 SHL AND SHR NOT AND SWAP1 SSTORE PUSH0 DUP1 DUP1 PUSH2 0x4267 JUMP JUMPDEST PUSH1 0x1 DUP6 SWAP7 DUP3 SWAP4 SWAP7 DUP7 ADD MLOAD DUP2 SSTORE ADD SWAP6 ADD SWAP4 ADD PUSH2 0x424F JUMP JUMPDEST SWAP1 SWAP2 POP DUP4 PUSH0 MSTORE DUP10 PUSH0 KECCAK256 PUSH1 0x1F DUP5 ADD PUSH1 0x5 SHR DUP2 ADD SWAP2 DUP12 DUP6 LT PUSH2 0x42E6 JUMPI JUMPDEST SWAP1 PUSH1 0x1F DUP6 SWAP5 SWAP4 SWAP3 ADD PUSH1 0x5 SHR ADD SWAP1 JUMPDEST DUP2 DUP2 LT PUSH2 0x42D8 JUMPI POP PUSH2 0x3D9E JUMP JUMPDEST PUSH0 DUP2 SSTORE DUP5 SWAP4 POP PUSH1 0x1 ADD PUSH2 0x42CB JUMP JUMPDEST SWAP1 SWAP2 POP DUP2 SWAP1 PUSH2 0x42BD JUMP INVALID LOG2 PUSH5 0x6970667358 0x22 SLT KECCAK256 0xE6 0xB0 OR PUSH22 0xF0129EE13E48ED376BF40E81945FB2393490BCA83BAF POP 0xF7 LOG0 SHL 0x4C CREATE2 PUSH5 0x736F6C6343 STOP ADDMOD SHL STOP CALLER "},"methodIdentifiers":{"allCpotbData(uint256)":"f02f5f23","approveCpotb(string,string,string,string,address,string,uint256)":"4eea4b8f","approveExtendCpotb(string,string)":"b0730436","certDetailById(string)":"34a34f30","cpotbDataById(string)":"6aa81299","createCertificateDetails((string,string,address),(string,string,address),string)":"fb5fb9a3","createUserCertificate(string,string,address)":"2e9cf827","dokuAdminById(string)":"7ab09648","dokuTeknisById(string)":"500619d0","extendCpotb(string,uint256)":"8b11d37b","getAllCpotb()":"5850607c","getAllCpotbByInstance(string)":"81fc60a5","getCertDetail(string)":"9aaa5d8b","getCertDetails(string)":"be2e2325","getCpotbDetails(string)":"70c056b0","getRejectMsg(string)":"6d1aa7d5","getRejectsMsg(string)":"761fb19a","getSenderDetail(string)":"17e68309","rejectCpotb(string,string,string,string,address)":"e462dde5","rejectMsgById(string)":"bf3f80ac","renewRequestCpotb(string,(string,string,string),(string,string))":"e8002b27","requestCpotb(string,string,string,address,uint8,string,(string,string,string),(string,string))":"64b409ff","updateBpomApproveDetails(string,string,(string,string,address))":"f5104ff1","updateBpomExtendCertificateDetails(string,string)":"f53ef126","updateBpomRejectDetails(string,string,(string,string,address))":"e9c260d7","updateExtendRenewDetails(string,uint256)":"9740dbed","updateRenewDetails(string)":"19859c87"}}}}}