{"contracts/CdobCertificate.sol":{"CdobCertificate":{"abi":[{"inputs":[{"internalType":"uint256","name":"","type":"uint256"}],"name":"allCdobData","outputs":[{"internalType":"string","name":"certId","type":"string"},{"internalType":"string","name":"certNumber","type":"string"},{"internalType":"string","name":"instanceName","type":"string"},{"internalType":"uint8","name":"tipePermohonan","type":"uint8"},{"internalType":"enum EnumsLibrary.StatusCertificate","name":"status","type":"uint8"},{"internalType":"string","name":"certHash","type":"string"}],"stateMutability":"view","type":"function"},{"inputs":[{"internalType":"string","name":"certNumber","type":"string"},{"internalType":"string","name":"certId","type":"string"},{"internalType":"string","name":"bpomName","type":"string"},{"internalType":"string","name":"bpomInstance","type":"string"},{"internalType":"address","name":"bpomAddr","type":"address"},{"internalType":"string","name":"ipfsCert","type":"string"}],"name":"approveCdob","outputs":[],"stateMutability":"nonpayable","type":"function"},{"inputs":[{"internalType":"string","name":"","type":"string"}],"name":"cdobDataById","outputs":[{"internalType":"string","name":"cdobId","type":"string"},{"internalType":"string","name":"cdobNumber","type":"string"},{"internalType":"uint8","name":"tipePermohonan","type":"uint8"}],"stateMutability":"view","type":"function"},{"inputs":[{"internalType":"string","name":"","type":"string"}],"name":"certDetailById","outputs":[{"internalType":"enum EnumsLibrary.StatusCertificate","name":"status","type":"uint8"},{"internalType":"uint256","name":"timestampRequest","type":"uint256"},{"internalType":"uint256","name":"timestampApprove","type":"uint256"},{"internalType":"uint256","name":"timestampRejected","type":"uint256"},{"internalType":"uint256","name":"timestampRenewRequest","type":"uint256"},{"internalType":"uint256","name":"timestampExpired","type":"uint256"},{"internalType":"uint256","name":"timestampExtendRequest","type":"uint256"},{"components":[{"internalType":"string","name":"userName","type":"string"},{"internalType":"string","name":"userInstance","type":"string"},{"internalType":"address","name":"userAddr","type":"address"}],"internalType":"struct BaseCertificate.UserCert","name":"sender","type":"tuple"},{"components":[{"internalType":"string","name":"userName","type":"string"},{"internalType":"string","name":"userInstance","type":"string"},{"internalType":"address","name":"userAddr","type":"address"}],"internalType":"struct BaseCertificate.UserCert","name":"bpom","type":"tuple"},{"internalType":"string","name":"ipfsCert","type":"string"}],"stateMutability":"view","type":"function"},{"inputs":[{"components":[{"internalType":"string","name":"userName","type":"string"},{"internalType":"string","name":"userInstance","type":"string"},{"internalType":"address","name":"userAddr","type":"address"}],"internalType":"struct BaseCertificate.UserCert","name":"senderData","type":"tuple"},{"components":[{"internalType":"string","name":"userName","type":"string"},{"internalType":"string","name":"userInstance","type":"string"},{"internalType":"address","name":"userAddr","type":"address"}],"internalType":"struct BaseCertificate.UserCert","name":"bpomData","type":"tuple"},{"internalType":"string","name":"certId","type":"string"}],"name":"createCertificateDetails","outputs":[],"stateMutability":"nonpayable","type":"function"},{"inputs":[{"internalType":"string","name":"userName","type":"string"},{"internalType":"string","name":"userInstance","type":"string"},{"internalType":"address","name":"userAddr","type":"address"}],"name":"createUserCertificate","outputs":[{"components":[{"internalType":"string","name":"userName","type":"string"},{"internalType":"string","name":"userInstance","type":"string"},{"internalType":"address","name":"userAddr","type":"address"}],"internalType":"struct BaseCertificate.UserCert","name":"","type":"tuple"}],"stateMutability":"pure","type":"function"},{"inputs":[{"internalType":"string","name":"","type":"string"}],"name":"dokuAdminById","outputs":[{"internalType":"string","name":"suratPermohonan","type":"string"},{"internalType":"string","name":"buktiPembayaranPajak","type":"string"}],"stateMutability":"view","type":"function"},{"inputs":[{"internalType":"string","name":"","type":"string"}],"name":"dokuTeknisById","outputs":[{"internalType":"string","name":"suratIzinCdob","type":"string"},{"internalType":"string","name":"denahBangunan","type":"string"},{"internalType":"string","name":"strukturOrganisasi","type":"string"},{"internalType":"string","name":"daftarPersonalia","type":"string"},{"internalType":"string","name":"daftarPeralatan","type":"string"},{"internalType":"string","name":"eksekutifQualityManagement","type":"string"},{"internalType":"string","name":"suratIzinApoteker","type":"string"},{"internalType":"string","name":"dokumenSelfAssesment","type":"string"}],"stateMutability":"view","type":"function"},{"inputs":[],"name":"getAllCdob","outputs":[{"components":[{"internalType":"string","name":"certId","type":"string"},{"internalType":"string","name":"certNumber","type":"string"},{"internalType":"string","name":"instanceName","type":"string"},{"internalType":"uint8","name":"tipePermohonan","type":"uint8"},{"internalType":"enum EnumsLibrary.StatusCertificate","name":"status","type":"uint8"},{"internalType":"string","name":"certHash","type":"string"}],"internalType":"struct CdobCertificate.CertificateList[]","name":"","type":"tuple[]"}],"stateMutability":"view","type":"function"},{"inputs":[{"internalType":"string","name":"instanceName","type":"string"}],"name":"getAllCdobByInstance","outputs":[{"components":[{"internalType":"string","name":"certId","type":"string"},{"internalType":"string","name":"certNumber","type":"string"},{"internalType":"string","name":"instanceName","type":"string"},{"internalType":"uint8","name":"tipePermohonan","type":"uint8"},{"internalType":"enum EnumsLibrary.StatusCertificate","name":"status","type":"uint8"},{"internalType":"string","name":"certHash","type":"string"}],"internalType":"struct CdobCertificate.CertificateList[]","name":"","type":"tuple[]"}],"stateMutability":"view","type":"function"},{"inputs":[{"internalType":"string","name":"certId","type":"string"}],"name":"getCdobDetails","outputs":[{"components":[{"internalType":"string","name":"cdobId","type":"string"},{"internalType":"string","name":"cdobNumber","type":"string"},{"internalType":"uint8","name":"tipePermohonan","type":"uint8"}],"internalType":"struct CdobCertificate.CdobData","name":"","type":"tuple"},{"components":[{"internalType":"string","name":"suratPermohonan","type":"string"},{"internalType":"string","name":"buktiPembayaranPajak","type":"string"}],"internalType":"struct CdobCertificate.DokumenAdministrasi","name":"","type":"tuple"},{"components":[{"internalType":"string","name":"suratIzinCdob","type":"string"},{"internalType":"string","name":"denahBangunan","type":"string"},{"internalType":"string","name":"strukturOrganisasi","type":"string"},{"internalType":"string","name":"daftarPersonalia","type":"string"},{"internalType":"string","name":"daftarPeralatan","type":"string"},{"internalType":"string","name":"eksekutifQualityManagement","type":"string"},{"internalType":"string","name":"suratIzinApoteker","type":"string"},{"internalType":"string","name":"dokumenSelfAssesment","type":"string"}],"internalType":"struct CdobCertificate.DokumenTeknis","name":"","type":"tuple"}],"stateMutability":"view","type":"function"},{"inputs":[{"internalType":"string","name":"certId","type":"string"}],"name":"getCertDetail","outputs":[{"components":[{"internalType":"enum EnumsLibrary.StatusCertificate","name":"status","type":"uint8"},{"internalType":"uint256","name":"timestampRequest","type":"uint256"},{"internalType":"uint256","name":"timestampApprove","type":"uint256"},{"internalType":"uint256","name":"timestampRejected","type":"uint256"},{"internalType":"uint256","name":"timestampRenewRequest","type":"uint256"},{"internalType":"uint256","name":"timestampExpired","type":"uint256"},{"internalType":"uint256","name":"timestampExtendRequest","type":"uint256"},{"components":[{"internalType":"string","name":"userName","type":"string"},{"internalType":"string","name":"userInstance","type":"string"},{"internalType":"address","name":"userAddr","type":"address"}],"internalType":"struct BaseCertificate.UserCert","name":"sender","type":"tuple"},{"components":[{"internalType":"string","name":"userName","type":"string"},{"internalType":"string","name":"userInstance","type":"string"},{"internalType":"address","name":"userAddr","type":"address"}],"internalType":"struct BaseCertificate.UserCert","name":"bpom","type":"tuple"},{"internalType":"string","name":"ipfsCert","type":"string"}],"internalType":"struct BaseCertificate.CertificateDetails","name":"","type":"tuple"}],"stateMutability":"view","type":"function"},{"inputs":[{"internalType":"string","name":"certId","type":"string"}],"name":"getCertDetails","outputs":[{"components":[{"internalType":"enum EnumsLibrary.StatusCertificate","name":"status","type":"uint8"},{"internalType":"uint256","name":"timestampRequest","type":"uint256"},{"internalType":"uint256","name":"timestampApprove","type":"uint256"},{"internalType":"uint256","name":"timestampRejected","type":"uint256"},{"internalType":"uint256","name":"timestampRenewRequest","type":"uint256"},{"internalType":"uint256","name":"timestampExpired","type":"uint256"},{"internalType":"uint256","name":"timestampExtendRequest","type":"uint256"},{"components":[{"internalType":"string","name":"userName","type":"string"},{"internalType":"string","name":"userInstance","type":"string"},{"internalType":"address","name":"userAddr","type":"address"}],"internalType":"struct BaseCertificate.UserCert","name":"sender","type":"tuple"},{"components":[{"internalType":"string","name":"userName","type":"string"},{"internalType":"string","name":"userInstance","type":"string"},{"internalType":"address","name":"userAddr","type":"address"}],"internalType":"struct BaseCertificate.UserCert","name":"bpom","type":"tuple"},{"internalType":"string","name":"ipfsCert","type":"string"}],"internalType":"struct BaseCertificate.CertificateDetails","name":"","type":"tuple"}],"stateMutability":"view","type":"function"},{"inputs":[{"internalType":"string","name":"certId","type":"string"}],"name":"getRejectMsg","outputs":[{"internalType":"string","name":"","type":"string"}],"stateMutability":"view","type":"function"},{"inputs":[{"internalType":"string","name":"certId","type":"string"}],"name":"getRejectsMsg","outputs":[{"internalType":"string","name":"","type":"string"}],"stateMutability":"view","type":"function"},{"inputs":[{"internalType":"string","name":"certId","type":"string"}],"name":"getSenderDetail","outputs":[{"components":[{"internalType":"string","name":"userName","type":"string"},{"internalType":"string","name":"userInstance","type":"string"},{"internalType":"address","name":"userAddr","type":"address"}],"internalType":"struct BaseCertificate.UserCert","name":"","type":"tuple"}],"stateMutability":"view","type":"function"},{"inputs":[{"internalType":"string","name":"certId","type":"string"},{"internalType":"string","name":"rejectMsg","type":"string"},{"internalType":"string","name":"bpomName","type":"string"},{"internalType":"string","name":"bpomInstance","type":"string"},{"internalType":"address","name":"bpomAddr","type":"address"}],"name":"rejectCdob","outputs":[],"stateMutability":"nonpayable","type":"function"},{"inputs":[{"internalType":"string","name":"","type":"string"}],"name":"rejectMsgById","outputs":[{"internalType":"string","name":"","type":"string"}],"stateMutability":"view","type":"function"},{"inputs":[{"internalType":"string","name":"certId","type":"string"},{"components":[{"internalType":"string","name":"suratPermohonan","type":"string"},{"internalType":"string","name":"buktiPembayaranPajak","type":"string"}],"internalType":"struct CdobCertificate.DokumenAdministrasi","name":"newDokuAdmin","type":"tuple"},{"components":[{"internalType":"string","name":"suratIzinCdob","type":"string"},{"internalType":"string","name":"denahBangunan","type":"string"},{"internalType":"string","name":"strukturOrganisasi","type":"string"},{"internalType":"string","name":"daftarPersonalia","type":"string"},{"internalType":"string","name":"daftarPeralatan","type":"string"},{"internalType":"string","name":"eksekutifQualityManagement","type":"string"},{"internalType":"string","name":"suratIzinApoteker","type":"string"},{"internalType":"string","name":"dokumenSelfAssesment","type":"string"}],"internalType":"struct CdobCertificate.DokumenTeknis","name":"newDokuTeknis","type":"tuple"}],"name":"renewRequestCdob","outputs":[],"stateMutability":"nonpayable","type":"function"},{"inputs":[{"internalType":"string","name":"certId","type":"string"},{"internalType":"string","name":"pbfName","type":"string"},{"internalType":"string","name":"pbfInstance","type":"string"},{"internalType":"address","name":"pbfAddr","type":"address"},{"internalType":"uint8","name":"tipePermohonan","type":"uint8"},{"components":[{"internalType":"string","name":"suratPermohonan","type":"string"},{"internalType":"string","name":"buktiPembayaranPajak","type":"string"}],"internalType":"struct CdobCertificate.DokumenAdministrasi","name":"dokuAdmin","type":"tuple"},{"components":[{"internalType":"string","name":"suratIzinCdob","type":"string"},{"internalType":"string","name":"denahBangunan","type":"string"},{"internalType":"string","name":"strukturOrganisasi","type":"string"},{"internalType":"string","name":"daftarPersonalia","type":"string"},{"internalType":"string","name":"daftarPeralatan","type":"string"},{"internalType":"string","name":"eksekutifQualityManagement","type":"string"},{"internalType":"string","name":"suratIzinApoteker","type":"string"},{"internalType":"string","name":"dokumenSelfAssesment","type":"string"}],"internalType":"struct CdobCertificate.DokumenTeknis","name":"dokuTeknis","type":"tuple"}],"name":"requestCdob","outputs":[],"stateMutability":"nonpayable","type":"function"},{"inputs":[{"internalType":"string","name":"certId","type":"string"},{"internalType":"string","name":"ipfsCert","type":"string"},{"components":[{"internalType":"string","name":"userName","type":"string"},{"internalType":"string","name":"userInstance","type":"string"},{"internalType":"address","name":"userAddr","type":"address"}],"internalType":"struct BaseCertificate.UserCert","name":"bpomData","type":"tuple"}],"name":"updateBpomApproveDetails","outputs":[],"stateMutability":"nonpayable","type":"function"},{"inputs":[{"internalType":"string","name":"certId","type":"string"},{"internalType":"string","name":"ipfsCert","type":"string"}],"name":"updateBpomExtendCertificateDetails","outputs":[],"stateMutability":"nonpayable","type":"function"},{"inputs":[{"internalType":"string","name":"certId","type":"string"},{"internalType":"string","name":"rejectMsg","type":"string"},{"components":[{"internalType":"string","name":"userName","type":"string"},{"internalType":"string","name":"userInstance","type":"string"},{"internalType":"address","name":"userAddr","type":"address"}],"internalType":"struct BaseCertificate.UserCert","name":"bpomData","type":"tuple"}],"name":"updateBpomRejectDetails","outputs":[],"stateMutability":"nonpayable","type":"function"},{"inputs":[{"internalType":"string","name":"certId","type":"string"},{"internalType":"uint256","name":"expiredTimestamp","type":"uint256"}],"name":"updateExtendRenewDetails","outputs":[],"stateMutability":"nonpayable","type":"function"},{"inputs":[{"internalType":"string","name":"certId","type":"string"}],"name":"updateRenewDetails","outputs":[],"stateMutability":"nonpayable","type":"function"}],"evm":{"bytecode":{"linkReferences":{},"object":"60808060405234601557614ca2908161001a8239f35b5f80fdfe60806040526004361015610011575f80fd5b5f3560e01c806317e68309146134b757806319859c871461347f5780631acf2500146133465780632b93f7f214612eae5780632e9cf82714612e2a57806334a34f3014612d2c57806343762aa814612c6a578063500619d014612b2e578063682053d91461178c5780636d1aa7d5146115525780636f12c2301461162957806372c17cb91461158d578063761fb19a146115525780637ab09648146114ca5780637e8f8da7146111c65780639740dbed146111175780639aaa5d8b146110dc578063a7226527146104c3578063be2e232514610473578063bf3f80ac14610409578063e9c260d7146103f2578063f14261d21461037a578063f5104ff114610363578063f53ef126146101ab5763fb5fb9a31461012c575f80fd5b346101a75760603660031901126101a7576004356001600160401b0381116101a75761015c903690600401613ae1565b6024356001600160401b0381116101a75761017b903690600401613ae1565b90604435916001600160401b0383116101a75761019f6101a59336906004016135c2565b9161462d565b005b5f80fd5b346101a75760403660031901126101a7576004356001600160401b0381116101a7576101db9036906004016135c2565b6024356001600160401b0381116101a75760206101fd819236906004016135c2565b92604051928184925191829101835e81015f815203019020426002820155608242019081421161034f57600d916005820155600660ff198254161781550181516001600160401b03811161033b57610255825461368f565b601f81116102f6575b50602092601f821160011461029a57928192935f9261028f575b50505f19600383901b1c191660019190911b179055005b015190508380610278565b601f19821693835f52805f20915f5b8681106102de57508360019596106102c6575b505050811b019055005b01515f1960f88460031b161c191690558380806102bc565b919260206001819286850151815501940192016102a9565b825f5260205f20601f830160051c81019160208410610331575b601f0160051c01905b818110610326575061025e565b5f8155600101610319565b9091508190610310565b634e487b7160e01b5f52604160045260245ffd5b634e487b7160e01b5f52601160045260245ffd5b346101a7576101a561037436613b59565b9161429a565b346101a7575f3660031901126101a75760025461039681613d00565b905f805b8282106103b357604051806103af8682613975565b0390f35b6103ea6001916103e46103ce6103c8866137b3565b50613d8b565b60ff8316906103dd828a613d77565b5287613d77565b50613cd8565b91019061039a565b346101a7576101a561040336613b59565b91613efd565b346101a75760203660031901126101a7576004356001600160401b0381116101a75761045f6020806104426103af9436906004016135c2565b604051928184925191829101835e810160018152030190206136c7565b604051918291602083526020830190613617565b346101a75760203660031901126101a7576004356001600160401b0381116101a7576104b76104a96103af9236906004016135c2565b6104b1613df3565b50613e4b565b60405191829182613a3d565b346101a75760603660031901126101a7576004356001600160401b0381116101a7576104f39036906004016135c2565b6024356001600160401b0381116101a7576105129036906004016137e3565b906044356001600160401b0381116101a757610532903690600401613842565b61053b82613be1565b6002549160208101905f5b84811061054f57005b610558816137b3565b5060405161057c8161056e602082018095613c0f565b03601f1981018352826135a1565b51902060405160208101906105a96020828751808a875e81015f838201520301601f1981018352826135a1565b519020146105ba575b600101610546565b60036105c5826137b3565b5001805461ff0019166103001790556105ef60206105e2836137b3565b5060405192838092613c0f565b600481520301902086518051906001600160401b03821161033b57610614835461368f565b601f8111611097575b50602090601f83116001146110315760019392915f9183611026575b50505f19600383901b1c191690831b1781555b0160208701518051906001600160401b03821161033b57819061066f845461368f565b601f8111610fd6575b50602090601f8311600114610f73575f92610f68575b50508160011b915f199060031b1c19161790555b6106b060206105e2836137b3565b600581520301902084518051906001600160401b03821161033b5781906106d7845461368f565b601f8111610f18575b50602090601f8311600114610eb5575f92610eaa575b50508160011b915f199060031b1c19161781555b6001810160208601518051906001600160401b03821161033b578190610730845461368f565b601f8111610e5a575b50602090601f8311600114610df7575f92610dec575b50508160011b915f199060031b1c19161790555b6002810160408601518051906001600160401b03821161033b578190610789845461368f565b601f8111610d9c575b50602090601f8311600114610d39575f92610d2e575b50508160011b915f199060031b1c19161790555b6003810160608601518051906001600160401b03821161033b5781906107e2845461368f565b601f8111610cde575b50602090601f8311600114610c7b575f92610c70575b50508160011b915f199060031b1c19161790555b6004810160808601518051906001600160401b03821161033b57819061083b845461368f565b601f8111610c20575b50602090601f8311600114610bbd575f92610bb2575b50508160011b915f199060031b1c19161790555b6005810160a08601518051906001600160401b03821161033b578190610894845461368f565b601f8111610b62575b50602090601f8311600114610aff575f92610af4575b50508160011b915f199060031b1c19161790555b6006810160c08601518051906001600160401b03821161033b576108eb835461368f565b601f8111610aaf575b50602090601f8311600114610a48576007949392915f9183610a3d575b50508160011b915f199060031b1c19161790555b0160e08501518051906001600160401b03821161033b57610946835461368f565b601f81116109f8575b50602090601f8311600114610991576001949392915f9183610986575b50505f19600383901b1c191690841b1790555b90506105b2565b015190508a8061096c565b90601f19831691845f52815f20925f5b8181106109e05750916001969594929183889593106109c8575b505050811b01905561097f565b01515f1960f88460031b161c191690558a80806109bb565b929360206001819287860151815501950193016109a1565b835f5260205f20601f840160051c81019160208510610a33575b601f0160051c01905b818110610a28575061094f565b5f8155600101610a1b565b9091508190610a12565b015190508b80610911565b90601f19831691845f52815f20925f5b818110610a97575091600193918560079897969410610a7f575b505050811b019055610925565b01515f1960f88460031b161c191690558b8080610a72565b92936020600181928786015181550195019301610a58565b835f5260205f20601f840160051c81019160208510610aea575b601f0160051c01905b818110610adf57506108f4565b5f8155600101610ad2565b9091508190610ac9565b015190508a806108b3565b5f8581528281209350601f198516905b818110610b4a5750908460019594939210610b32575b505050811b0190556108c7565b01515f1960f88460031b161c191690558a8080610b25565b92936020600181928786015181550195019301610b0f565b909150835f5260205f20601f840160051c81019160208510610ba8575b90601f859493920160051c01905b818110610b9a575061089d565b5f8155849350600101610b8d565b9091508190610b7f565b015190508a8061085a565b5f8581528281209350601f198516905b818110610c085750908460019594939210610bf0575b505050811b01905561086e565b01515f1960f88460031b161c191690558a8080610be3565b92936020600181928786015181550195019301610bcd565b909150835f5260205f20601f840160051c81019160208510610c66575b90601f859493920160051c01905b818110610c585750610844565b5f8155849350600101610c4b565b9091508190610c3d565b015190508a80610801565b5f8581528281209350601f198516905b818110610cc65750908460019594939210610cae575b505050811b019055610815565b01515f1960f88460031b161c191690558a8080610ca1565b92936020600181928786015181550195019301610c8b565b909150835f5260205f20601f840160051c81019160208510610d24575b90601f859493920160051c01905b818110610d1657506107eb565b5f8155849350600101610d09565b9091508190610cfb565b015190508a806107a8565b5f8581528281209350601f198516905b818110610d845750908460019594939210610d6c575b505050811b0190556107bc565b01515f1960f88460031b161c191690558a8080610d5f565b92936020600181928786015181550195019301610d49565b909150835f5260205f20601f840160051c81019160208510610de2575b90601f859493920160051c01905b818110610dd45750610792565b5f8155849350600101610dc7565b9091508190610db9565b015190508a8061074f565b5f8581528281209350601f198516905b818110610e425750908460019594939210610e2a575b505050811b019055610763565b01515f1960f88460031b161c191690558a8080610e1d565b92936020600181928786015181550195019301610e07565b909150835f5260205f20601f840160051c81019160208510610ea0575b90601f859493920160051c01905b818110610e925750610739565b5f8155849350600101610e85565b9091508190610e77565b0151905089806106f6565b5f8581528281209350601f198516905b818110610f005750908460019594939210610ee8575b505050811b01815561070a565b01515f1960f88460031b161c19169055898080610edb565b92936020600181928786015181550195019301610ec5565b909150835f5260205f20601f840160051c81019160208510610f5e575b90601f859493920160051c01905b818110610f5057506106e0565b5f8155849350600101610f43565b9091508190610f35565b01519050898061068e565b5f8581528281209350601f198516905b818110610fbe5750908460019594939210610fa6575b505050811b0190556106a2565b01515f1960f88460031b161c19169055898080610f99565b92936020600181928786015181550195019301610f83565b909150835f5260205f20601f840160051c8101916020851061101c575b90601f859493920160051c01905b81811061100e5750610678565b5f8155849350600101611001565b9091508190610ff3565b015190508a80610639565b90601f19831691845f52815f20925f5b81811061107f5750916001959492918387959310611067575b505050811b01815561064c565b01515f1960f88460031b161c191690558a808061105a565b92936020600181928786015181550195019301611041565b835f5260205f20601f840160051c810191602085106110d2575b601f0160051c01905b8181106110c7575061061d565b5f81556001016110ba565b90915081906110b1565b346101a75760203660031901126101a7576004356001600160401b0381116101a7576104b76111126103af9236906004016135c2565b613e4b565b346101a75760403660031901126101a7576004356001600160401b0381116101a7576111479036906004016135c2565b6024354211156111815760208091604051928184925191829101835e5f90820190815203019020426006820155805460ff19166005179055005b60405162461bcd60e51b815260206004820152601860248201527f536572746966696b6174206d61736968206265726c616b7500000000000000006044820152606490fd5b346101a75760203660031901126101a7576004356001600160401b0381116101a7576111f69036906004016135c2565b6111fe613bc1565b5060405161120b8161354e565b606081526020016060905260405161122281613569565b60608152602081016060905260408101606090526060810160609052608081016060905260a081016060905260c081016060905260e00160609052604051908051918060208301938085835e810160038152036020019020916040518083518084835e81016004815203602001902091604051918291518091835e810160058152036020019020604051916112b683613518565b6112bf846136c7565b83526112cd600185016136c7565b93602084019485526002015460ff169160408401928352604051916112f18361354e565b6112fa816136c7565b8352600101611308906136c7565b602083019081526040519361131c85613569565b611325836136c7565b8552611333600184016136c7565b60208601908152611346600285016136c7565b60408701908152611359600386016136c7565b606088019081529161136d600487016136c7565b6080890190815293611381600588016136c7565b60a08a0190815295611395600689016136c7565b9760c08b019889526007016113a9906136c7565b9860e08b01998a526040519c8d9c60608e52518d606081016060905260c0016113d191613617565b90518d8203605f190160808f01526113e99190613617565b925160ff1660a08d01528b830360208d015251604083526040830161140d91613617565b905191808203906020015261142191613617565b9789890360408b0152516101008952610100890161143e91613617565b90519088810360208a015261145291613617565b905190878103604089015261146691613617565b905190868103606088015261147a91613617565b905190858103608087015261148e91613617565b90519084810360a08601526114a291613617565b90519083810360c08501526114b691613617565b9051918082039060e001526103af91613617565b346101a75760203660031901126101a7576004356001600160401b0381116101a7576020806115006115449336906004016135c2565b604051928184925191829101835e810160048152030190206103af6115306001611529846136c7565b93016136c7565b604051938493604085526040850190613617565b908382036020850152613617565b346101a75760203660031901126101a7576004356001600160401b0381116101a75761045f6115886103af9236906004016135c2565b613cb5565b346101a75760203660031901126101a7576004356001600160401b0381116101a7576020806115c36116119336906004016135c2565b604051928184925191829101835e810160038152030190206115e4816136c7565b9061161f60ff60026115f8600185016136c7565b9301541691604051948594606086526060860190613617565b908482036020860152613617565b9060408301520390f35b346101a75760203660031901126101a7576004356001600160401b0381116101a7576116599036906004016135c2565b60025460208201915f805b838110611729575060ff6116789116613d00565b925f915f5b84811061169257604051806103af8882613975565b600261056e6116b76116a3846137b3565b506040519283916020830195869101613c0f565b51902060405160208101906116e46020828751808a875e81015f838201520301601f1981018352826135a1565b519020146116f5575b60010161167d565b926117216001916103e461170b6103c8886137b3565b60ff83169061171a828c613d77565b5289613d77565b9390506116ed565b600261056e61173a6116a3846137b3565b51902060405160208101906117676020828851808c875e81015f838201520301601f1981018352826135a1565b51902014611778575b600101611664565b90611784600191613cd8565b919050611770565b346101a75760e03660031901126101a7576004356001600160401b0381116101a7576117bc9036906004016135c2565b6024356001600160401b0381116101a7576117db9036906004016135c2565b6044356001600160401b0381116101a7576117fa9036906004016135c2565b916064356001600160a01b03811681036101a7576084359160ff83168093036101a75760a4356001600160401b0381116101a75761183c9036906004016137e3565b9160c435906001600160401b0382116101a75786611861611867933690600401613842565b96613c79565b946118b7826020976040519061187d8a836135a1565b5f825260405161188d8b826135a1565b5f8152611898613bc1565b50604051926118a684613518565b83528a8301525f604083015261462d565b604051936118c485613518565b828552604051946118d588876135a1565b5f865287810195865260408101828152604051968551978a818189019a808c835e8101600381520301902092518051906001600160401b03821161033b5781908c611920875461368f565b601f8111612add575b50508c908d601f8411600114612a7957505f92612a6e575b50508160011b915f199060031b1c19161783555b51805160018401916001600160401b03821161033b578b611976845461368f565b601f8111612a29575b50508b908c601f84116001146129bd5750928260ff95929386946002965f926129b2575b50508160011b915f199060031b1c19161790555b51169201911660ff198254161790556040516119d281613533565b838152604051926119e389856135a1565b5f8452888201938452604082019081526060820192835260808201905f825260405194611a108b876135a1565b5f865260a084019586526002546801000000000000000081101561033b57806001611a3e92016002556137b3565b94909461299f57518051906001600160401b03821161033b578c8291611a64885461368f565b601f8111612947575b5081601f84116001146128e357505f926128d8575b50508160011b915f199060031b1c19161784555b51805160018501916001600160401b03821161033b578c8291611ab9855461368f565b601f8111612880575b5081601f841160011461281c57505f92612811575b50508160011b915f199060031b1c19161790555b51805160028401916001600160401b03821161033b5781908c611b0e855461368f565b601f81116127c0575b50508c908d601f841160011461275c57505f92612751575b50508160011b915f199060031b1c19161790555b60ff80600384019451161660ff198454161783555191600783101561273d5760049261ff0082549160081b169061ff0019161790550190518051906001600160401b03821161033b578190611b98845461368f565b601f81116126ef575b508890601f831160011461268c575f92612681575b50508160011b915f199060031b1c19161790555b604051858183518087835e8101600481520301902082519081516001600160401b03811161033b578792611bfe835461368f565b601f811161262f575b508390601f83116001146125c95760019392915f91836125be575b50505f19600383901b1c191690831b1781555b019201519182516001600160401b03811161033b578693611c56835461368f565b601f811161256a575b5081908590601f8311600114612507575f926124fc575b50508160011b915f199060031b1c19161790555b604051928391518091835e810160058152030190209080519182516001600160401b03811161033b57611cbd825461368f565b601f81116124b9575b508493601f82116001146124595793819293945f9261244e575b50508160011b915f199060031b1c19161781555b60018101838301518051906001600160401b03821161033b578190611d19845461368f565b601f8111612400575b508690601f831160011461239d575f92612392575b50508160011b915f199060031b1c19161790555b6002810160408301518051906001600160401b03821161033b578190611d71845461368f565b601f8111612344575b508690601f83116001146122e1575f926122d6575b50508160011b915f199060031b1c19161790555b6003810160608301518051906001600160401b03821161033b578190611dc9845461368f565b601f8111612288575b508690601f8311600114612225575f9261221a575b50508160011b915f199060031b1c19161790555b6004810160808301518051906001600160401b03821161033b578190611e21845461368f565b601f81116121cc575b508690601f8311600114612169575f9261215e575b50508160011b915f199060031b1c19161790555b6005810160a08301518051906001600160401b03821161033b578190611e79845461368f565b601f8111612110575b508690601f83116001146120ad575f926120a2575b50508160011b915f199060031b1c19161790555b6006810160c08301518051906001600160401b03821161033b57611ecf835461368f565b601f811161205f575b508590601f8311600114611ff65791806007949260e096945f92611feb575b50508160011b915f199060031b1c19161790555b01910151918251906001600160401b03821161033b57611f2b835461368f565b601f8111611fa8575b5080601f8311600114611f6257508192935f9261028f5750505f19600383901b1c191660019190911b179055005b90601f19831694845f52825f20925f905b878210611f905750508360019596106102c657505050811b019055005b80600185968294968601518155019501930190611f73565b835f52815f20601f840160051c810191838510611fe1575b601f0160051c01905b818110611fd65750611f34565b5f8155600101611fc9565b9091508190611fc0565b015190508880611ef7565b90601f19831691845f52875f20925f5b8982821061204957505092600192859260e098966007989610612031575b505050811b019055611f0b565b01515f1960f88460031b161c19169055888080612024565b6001859682939686015181550195019301612006565b835f52865f20601f840160051c810191888510612098575b601f0160051c01905b81811061208d5750611ed8565b5f8155600101612080565b9091508190612077565b015190508680611e97565b5f8581528881209350601f198516905b898282106120fa5750509084600195949392106120e2575b505050811b019055611eab565b01515f1960f88460031b161c191690558680806120d5565b60018596829396860151815501950193016120bd565b909150835f52865f20601f840160051c810191888510612154575b90601f859493920160051c01905b8181106121465750611e82565b5f8155849350600101612139565b909150819061212b565b015190508680611e3f565b5f8581528881209350601f198516905b898282106121b657505090846001959493921061219e575b505050811b019055611e53565b01515f1960f88460031b161c19169055868080612191565b6001859682939686015181550195019301612179565b909150835f52865f20601f840160051c810191888510612210575b90601f859493920160051c01905b8181106122025750611e2a565b5f81558493506001016121f5565b90915081906121e7565b015190508680611de7565b5f8581528881209350601f198516905b8982821061227257505090846001959493921061225a575b505050811b019055611dfb565b01515f1960f88460031b161c1916905586808061224d565b6001859682939686015181550195019301612235565b909150835f52865f20601f840160051c8101918885106122cc575b90601f859493920160051c01905b8181106122be5750611dd2565b5f81558493506001016122b1565b90915081906122a3565b015190508680611d8f565b5f8581528881209350601f198516905b8982821061232e575050908460019594939210612316575b505050811b019055611da3565b01515f1960f88460031b161c19169055868080612309565b60018596829396860151815501950193016122f1565b909150835f52865f20601f840160051c810191888510612388575b90601f859493920160051c01905b81811061237a5750611d7a565b5f815584935060010161236d565b909150819061235f565b015190508680611d37565b5f8581528881209350601f198516905b898282106123ea5750509084600195949392106123d2575b505050811b019055611d4b565b01515f1960f88460031b161c191690558680806123c5565b60018596829396860151815501950193016123ad565b909150835f52865f20601f840160051c810191888510612444575b90601f859493920160051c01905b8181106124365750611d22565b5f8155849350600101612429565b909150819061241b565b015190508580611ce0565b601f19821694835f52865f20915f5b888882106124a35750508360019596971061248b575b505050811b018155611cf4565b01515f1960f88460031b161c1916905585808061247e565b6001849582939585015181550194019201612468565b825f52855f20601f830160051c8101918784106124f2575b601f0160051c01905b8181106124e75750611cc6565b5f81556001016124da565b90915081906124d1565b015190508880611c76565b5f8581528781209350601f198516905b8882821061255457505090846001959493921061253c575b505050811b019055611c8a565b01515f1960f88460031b161c1916905588808061252f565b6001859682939686015181550195019301612517565b909192809495505f52875f20601f840160051c8101918985106125b4575b90601f8a9796959493920160051c01905b8181106125a65750611c5f565b5f8155899650600101612599565b9091508190612588565b015190508a80611c22565b90601f19831691845f52855f20925f5b87828210612619575050916001959492918387959310612601575b505050811b018155611c35565b01515f1960f88460031b161c191690558a80806125f4565b60018596829396860151815501950193016125d9565b9091928094505f52885f20601f840160051c8101918a8510612677575b90601f8b96959493920160051c01905b8181106126695750611c07565b5f81558a955060010161265c565b909150819061264c565b015190508880611bb6565b5f8581528a81209350601f198516905b8b8282106126d95750509084600195949392106126c1575b505050811b019055611bca565b01515f1960f88460031b161c191690558880806126b4565b600185968293968601518155019501930161269c565b909150835f52885f20601f840160051c8101918a8510612733575b90601f859493920160051c01905b8181106127255750611ba1565b5f8155849350600101612718565b909150819061270a565b634e487b7160e01b5f52602160045260245ffd5b015190508c80611b2f565b5f8681528181209450601f198616915b8282106127a8575050908460019594939210612790575b505050811b019055611b43565b01515f1960f88460031b161c191690558c8080612783565b8060018697829497870151815501960194019061276c565b90919250845f52815f2090601f850160051c8201928510612807575b90601f859493920160051c01905b8181106127f9578e9150611b17565b5f81558493506001016127ea565b90915081906127dc565b015190508d80611ad7565b5f8681528181209450601f198616915b828210612868575050908460019594939210612850575b505050811b019055611aeb565b01515f1960f88460031b161c191690558d8080612843565b8060018697829497870151815501960194019061282c565b909250845f52815f2090601f850160051c82019285106128ce575b918f9291601f8695930160051c01905b8181106128b85750611ac2565b90925060019193505f815501918e9184936128ab565b909150819061289b565b015190508d80611a82565b5f8981528181209450601f198616915b82821061292f575050908460019594939210612917575b505050811b018455611a96565b01515f1960f88460031b161c191690558d808061290a565b806001869782949787015181550196019401906128f3565b909250875f52815f2090601f850160051c8201928510612995575b918f9291601f8695930160051c01905b81811061297f5750611a6d565b90925060019193505f815501918e918493612972565b9091508190612962565b634e487b7160e01b5f525f60045260245ffd5b015190508f806119a3565b9190601f198416855f52835f20935f905b828210612a115750509360ff969360029693600193838a98106129f9575b505050811b0190556119b7565b01515f1960f88460031b161c191690558f80806129ec565b806001869782949787015181550196019401906129ce565b845f52815f2090601f850160051c8201928510612a64575b601f0160051c01905b818110612a59578d915061197f565b5f8155600101612a4a565b9091508190612a41565b015190508c80611941565b5f8881528181209450601f198616915b828210612ac5575050908460019594939210612aad575b505050811b018355611955565b01515f1960f88460031b161c191690558c8080612aa0565b80600186978294978701518155019601940190612a89565b90919250865f52815f2090601f850160051c8201928510612b24575b90601f859493920160051c01905b818110612b16578e9150611929565b5f8155849350600101612b07565b9091508190612af9565b346101a75760203660031901126101a7576004356001600160401b0381116101a757612b5e9036906004016135c2565b604051818192516020819201835e810160058152036020019020612b81816136c7565b612b8d600183016136c7565b91612b9a600282016136c7565b90612ba7600382016136c7565b612bb3600483016136c7565b612bbf600584016136c7565b91612bcc600685016136c7565b93600701612bd9906136c7565b9460405197889761010089526101008901612bf391613617565b88810360208a0152612c0491613617565b8781036040890152612c1591613617565b8681036060880152612c2691613617565b8581036080870152612c3791613617565b84810360a0860152612c4891613617565b83810360c0850152612c5991613617565b82810360e08401526103af91613617565b346101a75760203660031901126101a7576004356002548110156101a757612c94612ce9916137b3565b506103af612ca1826136c7565b91612cae600182016136c7565b612d1f612d05612cc0600285016136c7565b612cf7612cd46004600388015497016136c7565b94604051998a9960c08b5260c08b0190613617565b9089820360208b0152613617565b908782036040890152613617565b9260ff8116606087015260ff608087019160081c166137a6565b83820360a0850152613617565b346101a75760203660031901126101a7576004356001600160401b0381116101a757602080612d62612ddb9336906004016135c2565b604051928184925191829101835e81015f8152030190206103af60ff82541691612e1b600182015491612e0c600282015460038301546004840154600585015490600686015492612db560078801613767565b94612dce600d612dc7600a8b01613767565b99016136c7565b996040519d8e809e6137a6565b60208d015260408c015260608b015260808a015260a089015260c088015261014060e088015261014087019061363b565b9085820361010087015261363b565b90838203610120850152613617565b346101a75760603660031901126101a7576004356001600160401b0381116101a757612e5a9036906004016135c2565b6024356001600160401b0381116101a757612e799036906004016135c2565b906044356001600160a01b03811681036101a7576103af92612e9a92613c79565b60405191829160208352602083019061363b565b346101a75760c03660031901126101a7576004356001600160401b0381116101a757612ede9036906004016135c2565b6024356001600160401b0381116101a757612efd9036906004016135c2565b6044356001600160401b0381116101a757612f1c9036906004016135c2565b6064356001600160401b0381116101a757612f3b9036906004016135c2565b612f43613679565b60a435916001600160401b0383116101a757612f66612f6c9336906004016135c2565b93613c79565b604051906001845192602081818801958087835e810160038152030190200185516001600160401b03811161033b57612fa5825461368f565b601f8111613301575b506020601f821160011461329a579080612fe59493925f9161328f575b508160011b915f199060031b1c19161790555b838561429a565b600254925f5b848110612ff457005b612ffd816137b3565b506040516130138161056e602082018095613c0f565b51902060405160208101906130406020828751808a875e81015f838201520301601f1981018352826135a1565b51902014613051575b600101612feb565b600161305c826137b3565b500186516001600160401b03811161033b57613078825461368f565b601f811161324a575b50806020601f82116001146131e7575f916131dc575b508160011b915f199060031b1c19161790555b60036130b5826137b3565b5001805461ff00191661010017905560046130cf826137b3565b500184516001600160401b03811161033b576130eb825461368f565b601f8111613197575b506020601f821160011461313457908060019493925f91613129575b505f19600383901b1c191690841b1790555b9050613049565b90508701518a613110565b601f19821690835f52805f20915f5b81811061317f57509183916001969594879410613167575b5050811b019055613122565b8901515f1960f88460031b161c191690558a8061315b565b9192602060018192868d015181550194019201613143565b825f5260205f20601f830160051c810191602084106131d2575b601f0160051c01905b8181106131c757506130f4565b5f81556001016131ba565b90915081906131b1565b905088015189613097565b5f8481528181209250601f198416905b8b828210613232575050908360019493921061321a575b5050811b0190556130aa565b8a01515f1960f88460031b161c19169055898061320e565b600184956020939584930151815501940192016131f7565b825f5260205f20601f830160051c81019160208410613285575b601f0160051c01905b81811061327a5750613081565b5f815560010161326d565b9091508190613264565b905088015189612fcb565b601f19821690835f52805f20915f5b8a8282106132e9575050918391612fe5969594600194106132d1575b5050811b019055612fde565b8a01515f1960f88460031b161c1916905589806132c5565b600184956020939584930151815501940192016132a9565b825f5260205f20601f830160051c8101916020841061333c575b601f0160051c01905b8181106133315750612fae565b5f8155600101613324565b909150819061331b565b346101a75760a03660031901126101a7576004356001600160401b0381116101a7576133769036906004016135c2565b6024356001600160401b0381116101a7576133959036906004016135c2565b6044356001600160401b0381116101a7576133b49036906004016135c2565b906064356001600160401b0381116101a7576133f0926133db6133e99236906004016135c2565b6133e3613679565b91613c79565b9083613efd565b600254602082015f5b82811061340257005b8061340e6001926137b3565b506040516134248161056e602082018095613c0f565b51902060405160208101906134516020828a51808a875e81015f838201520301601f1981018352826135a1565b51902014613460575b016133f9565b600361346b826137b3565b5001805461ff00191661020017905561345a565b346101a75760203660031901126101a7576004356001600160401b0381116101a7576134b26101a59136906004016135c2565b613be1565b346101a75760203660031901126101a7576004356001600160401b0381116101a757612e9a60076020806134f26103af9536906004016135c2565b6134fa613bc1565b50604051928184925191829101835e81015f81520301902001613767565b606081019081106001600160401b0382111761033b57604052565b60c081019081106001600160401b0382111761033b57604052565b604081019081106001600160401b0382111761033b57604052565b61010081019081106001600160401b0382111761033b57604052565b61014081019081106001600160401b0382111761033b57604052565b90601f801991011681019081106001600160401b0382111761033b57604052565b81601f820112156101a7578035906001600160401b03821161033b57604051926135f6601f8401601f1916602001856135a1565b828452602083830101116101a757815f926020809301838601378301015290565b805180835260209291819084018484015e5f828201840152601f01601f1916010190565b9060406136666136548451606085526060850190613617565b60208501518482036020860152613617565b928101516001600160a01b031691015290565b608435906001600160a01b03821682036101a757565b90600182811c921680156136bd575b60208310146136a957565b634e487b7160e01b5f52602260045260245ffd5b91607f169161369e565b9060405191825f8254926136da8461368f565b80845293600181169081156137455750600114613701575b506136ff925003836135a1565b565b90505f9291925260205f20905f915b8183106137295750509060206136ff928201015f6136f2565b6020919350806001915483858901015201910190918492613710565b9050602092506136ff94915060ff191682840152151560051b8201015f6136f2565b9060405161377481613518565b60408193613781816136c7565b835261378f600182016136c7565b6020840152600201546001600160a01b0316910152565b90600782101561273d5752565b6002548110156137cf5760025f52600560205f20910201905f90565b634e487b7160e01b5f52603260045260245ffd5b91906040838203126101a757604051906137fc8261354e565b819380356001600160401b0381116101a7578261381a9183016135c2565b83526020810135916001600160401b0383116101a75760209261383d92016135c2565b910152565b9190610100838203126101a7576040519061385c82613569565b819380356001600160401b0381116101a7578261387a9183016135c2565b835260208101356001600160401b0381116101a7578261389b9183016135c2565b602084015260408101356001600160401b0381116101a757826138bf9183016135c2565b604084015260608101356001600160401b0381116101a757826138e39183016135c2565b606084015260808101356001600160401b0381116101a757826139079183016135c2565b608084015260a08101356001600160401b0381116101a7578261392b9183016135c2565b60a084015260c08101356001600160401b0381116101a7578261394f9183016135c2565b60c084015260e0810135916001600160401b0383116101a75760e09261383d92016135c2565b602081016020825282518091526040820191602060408360051b8301019401925f915b8383106139a757505050505090565b9091929394602080613a2e600193603f1986820301875289519060a06139fe6139ec6139dc855160c0865260c0860190613617565b8786015185820389870152613617565b60408501518482036040860152613617565b9260ff6060820151166060840152613a1e608082015160808501906137a6565b01519060a0818403910152613617565b97019301930191939290613998565b90613ade9160208152613a546020820183516137a6565b602082015160408201526040820151606082015260608201516080820152608082015160a082015260a082015160c082015260c082015160e0820152610120613ac8613ab260e085015161014061010086015261016085019061363b565b610100850151848203601f19018486015261363b565b92015190610140601f1982850301910152613617565b90565b91906060838203126101a75760405190613afa82613518565b819380356001600160401b0381116101a75782613b189183016135c2565b835260208101356001600160401b0381116101a757604092613b3b9183016135c2565b60208401520135906001600160a01b03821682036101a75760400152565b60606003198201126101a7576004356001600160401b0381116101a75781613b83916004016135c2565b916024356001600160401b0381116101a75782613ba2916004016135c2565b91604435906001600160401b0382116101a757613ade91600401613ae1565b60405190613bce82613518565b5f60408360608152606060208201520152565b60208091604051928184925191829101835e81015f815203019020426004820155600360ff19825416179055565b5f9291815491613c1e8361368f565b9260018116908115613c665750600114613c3757505050565b90919293505f5260205f205f905b838210613c525750500190565b600181602092548486015201910190613c45565b60ff191683525050811515909102019150565b9190613c83613bc1565b5060405192613c9184613518565b835260208301526001600160a01b0316604082015290565b600782101561273d5752565b6040518151613ade92602091839181908401835e810160018152030190206136c7565b60ff1660ff811461034f5760010190565b6001600160401b03811161033b5760051b60200190565b90613d0a82613ce9565b613d1760405191826135a1565b8281528092613d28601f1991613ce9565b01905f5b828110613d3857505050565b602090604051613d4781613533565b60608152606083820152606060408201525f60608201525f6080820152606060a082015282828501015201613d2c565b80518210156137cf5760209160051b010190565b90604051613d9881613533565b60a061383d60048395613daa816136c7565b8552613db8600182016136c7565b6020860152613dc9600282016136c7565b6040860152613ded60ff6003830154818116606089015260081c1660808701613ca9565b016136c7565b60405190613e0082613585565b6060610120835f81525f60208201525f60408201525f838201525f60808201525f60a08201525f60c0820152613e34613bc1565b60e0820152613e41613bc1565b6101008201520152565b60208091613e57613df3565b50604051928184925191829101835e81015f815203019020613ef4600d60405192613e8184613585565b613e8f60ff82541685613ca9565b60018101546020850152600281015460408501526003810154606085015260048101546080850152600581015460a0850152600681015460c0850152613ed760078201613767565b60e0850152613ee8600a8201613767565b610100850152016136c7565b61012082015290565b92919060405160208551918181818901948086835e81015f81520301902095604051928391518091835e81016001815203019020908051906001600160401b03821161033b578190613f4f845461368f565b601f811161424a575b50602090601f83116001146141e7575f926141dc575b50508160011b915f199060031b1c19161790555b80518051600a8501916001600160401b03821161033b57613fa3835461368f565b601f8111614197575b50602090601f8311600114614130576020949392915f9183614125575b50508160011b915f199060031b1c19161790555b6040810151600c850180546001600160a01b0319166001600160a01b039290921691909117905501518051909290600b8201906001600160401b03811161033b57614028825461368f565b601f81116140e0575b50602094601f821160011461407f579481929394955f92614074575b50508160011b915f199060031b1c19161790555b426003820155805460ff19166002179055565b015190505f8061404d565b601f19821695835f52805f20915f5b8881106140c8575083600195969798106140b0575b505050811b019055614061565b01515f1960f88460031b161c191690555f80806140a3565b9192602060018192868501518155019401920161408e565b825f5260205f20601f830160051c8101916020841061411b575b601f0160051c01905b8181106141105750614031565b5f8155600101614103565b90915081906140fa565b015190505f80613fc9565b90601f19831691845f52815f20925f5b81811061417f575091600193918560209897969410614167575b505050811b019055613fdd565b01515f1960f88460031b161c191690555f808061415a565b92936020600181928786015181550195019301614140565b835f5260205f20601f840160051c810191602085106141d2575b601f0160051c01905b8181106141c75750613fac565b5f81556001016141ba565b90915081906141b1565b015190505f80613f6e565b5f8581528281209350601f198516905b818110614232575090846001959493921061421a575b505050811b019055613f82565b01515f1960f88460031b161c191690555f808061420d565b929360206001819287860151815501950193016141f7565b909150835f5260205f20601f840160051c81019160208510614290575b90601f859493920160051c01905b8181106142825750613f58565b5f8155849350600101614275565b9091508190614267565b6020809194939294604051928184925191829101835e81015f815203019020908051600a8301908051906001600160401b03821161033b576142dc835461368f565b601f81116145e8575b50602090601f8311600114614581576020949392915f9183614576575b50508160011b915f199060031b1c19161790555b6040810151600c840180546001600160a01b0319166001600160a01b039290921691909117905501518051600b8301916001600160401b03821161033b578190614360845461368f565b601f8111614526575b50602090601f83116001146144c3575f926144b8575b50508160011b915f199060031b1c19161790555b426002820155608242019081421161034f57600d916005820155600160ff198254161781550182516001600160401b03811161033b576143d3825461368f565b601f8111614473575b506020601f821160011461441557819293945f9261440a575b50508160011b915f199060031b1c1916179055565b015190505f806143f5565b601f19821690835f52805f20915f5b81811061445b57509583600195969710614443575b505050811b019055565b01515f1960f88460031b161c191690555f8080614439565b9192602060018192868b015181550194019201614424565b825f5260205f20601f830160051c810191602084106144ae575b601f0160051c01905b8181106144a357506143dc565b5f8155600101614496565b909150819061448d565b015190505f8061437f565b5f8581528281209350601f198516905b81811061450e57509084600195949392106144f6575b505050811b019055614393565b01515f1960f88460031b161c191690555f80806144e9565b929360206001819287860151815501950193016144d3565b909150835f5260205f20601f840160051c8101916020851061456c575b90601f859493920160051c01905b81811061455e5750614369565b5f8155849350600101614551565b9091508190614543565b015190505f80614302565b90601f19831691845f52815f20925f5b8181106145d05750916001939185602098979694106145b8575b505050811b019055614316565b01515f1960f88460031b161c191690555f80806145ab565b92936020600181928786015181550195019301614591565b835f5260205f20601f840160051c81019160208510614623575b601f0160051c01905b81811061461857506142e5565b5f815560010161460b565b9091508190614602565b92909160405161463c81613585565b5f81526020810194428652604082015f8152606083015f8152608084015f815260a08501915f835260c08601935f855260e087019586526101008701998a5260209a8b806040519a61468e828d6135a1565b5f8c526101208b019b8c52604051928184925191829101835e81015f8152030190209751600781101561273d5760ff80198a541691161788555160018801555160028701555160038601555160048501555160058401555160068301556007820190519081518051906001600160401b03821161033b578190614711845461368f565b601f8111614c1e575b508990601f8311600114614bbb575f92614bb0575b50508160011b915f199060031b1c19161790555b60088201868201518051906001600160401b03821161033b578190614768845461368f565b601f8111614b62575b508990601f8311600114614aff575f92614af4575b50508160011b915f199060031b1c19161790555b604001516009820180546001600160a01b0319166001600160a01b0392909216919091179055925180518051919491600a8301916001600160401b03821161033b5781906147e8845461368f565b601f8111614aa6575b508890601f8311600114614a43575f92614a38575b50508160011b915f199060031b1c19161790555b600b81019385810151948551956001600160401b03871161033b5761483f825461368f565b601f81116149f5575b508790601f881160011461498e57968091600d9697985f92614983575b50508160011b915f199060031b1c19161790555b60400151600c820180546001600160a01b0319166001600160a01b03929092169190911790559151805190949190920191906001600160401b03821161033b576148c3835461368f565b601f8111614940575b5080601f83116001146148f95750819293945f9261440a5750508160011b915f199060031b1c1916179055565b90601f19831695845f52825f20925f905b8882106149285750508360019596971061444357505050811b019055565b8060018596829496860151815501950193019061490a565b835f52815f20601f840160051c810191838510614979575b601f0160051c01905b81811061496e57506148cc565b5f8155600101614961565b9091508190614958565b015190505f80614865565b90601f19881691835f52895f20925f5b8b8282106149df57505091600193918a600d999a9b94106149c7575b505050811b019055614879565b01515f1960f88460031b161c191690555f80806149ba565b600185968293968601518155019501930161499e565b825f52885f20601f890160051c8101918a8a10614a2e575b601f0160051c01905b818110614a235750614848565b5f8155600101614a16565b9091508190614a0d565b015190505f80614806565b5f8581528a81209350601f198516905b8b828210614a90575050908460019594939210614a78575b505050811b01905561481a565b01515f1960f88460031b161c191690555f8080614a6b565b6001859682939686015181550195019301614a53565b909150835f52885f20601f840160051c8101918a8510614aea575b90601f859493920160051c01905b818110614adc57506147f1565b5f8155849350600101614acf565b9091508190614ac1565b015190505f80614786565b5f8581528b81209350601f198516905b8c828210614b4c575050908460019594939210614b34575b505050811b01905561479a565b01515f1960f88460031b161c191690555f8080614b27565b6001859682939686015181550195019301614b0f565b909150835f52895f20601f840160051c8101918b8510614ba6575b90601f859493920160051c01905b818110614b985750614771565b5f8155849350600101614b8b565b9091508190614b7d565b015190505f8061472f565b5f8581528b81209350601f198516905b8c828210614c08575050908460019594939210614bf0575b505050811b019055614743565b01515f1960f88460031b161c191690555f8080614be3565b6001859682939686015181550195019301614bcb565b909150835f52895f20601f840160051c8101918b8510614c62575b90601f859493920160051c01905b818110614c54575061471a565b5f8155849350600101614c47565b9091508190614c3956fea2646970667358221220744df9ceda998903ca0c150cad5f72fc13ecc4a475aac7ac62374da62502d93c64736f6c634300081b0033","opcodes":"PUSH1 0x80 DUP1 PUSH1 0x40 MSTORE CALLVALUE PUSH1 0x15 JUMPI PUSH2 0x4CA2 SWAP1 DUP2 PUSH2 0x1A DUP3 CODECOPY RETURN JUMPDEST PUSH0 DUP1 REVERT INVALID PUSH1 0x80 PUSH1 0x40 MSTORE PUSH1 0x4 CALLDATASIZE LT ISZERO PUSH2 0x11 JUMPI PUSH0 DUP1 REVERT JUMPDEST PUSH0 CALLDATALOAD PUSH1 0xE0 SHR DUP1 PUSH4 0x17E68309 EQ PUSH2 0x34B7 JUMPI DUP1 PUSH4 0x19859C87 EQ PUSH2 0x347F JUMPI DUP1 PUSH4 0x1ACF2500 EQ PUSH2 0x3346 JUMPI DUP1 PUSH4 0x2B93F7F2 EQ PUSH2 0x2EAE JUMPI DUP1 PUSH4 0x2E9CF827 EQ PUSH2 0x2E2A JUMPI DUP1 PUSH4 0x34A34F30 EQ PUSH2 0x2D2C JUMPI DUP1 PUSH4 0x43762AA8 EQ PUSH2 0x2C6A JUMPI DUP1 PUSH4 0x500619D0 EQ PUSH2 0x2B2E JUMPI DUP1 PUSH4 0x682053D9 EQ PUSH2 0x178C JUMPI DUP1 PUSH4 0x6D1AA7D5 EQ PUSH2 0x1552 JUMPI DUP1 PUSH4 0x6F12C230 EQ PUSH2 0x1629 JUMPI DUP1 PUSH4 0x72C17CB9 EQ PUSH2 0x158D JUMPI DUP1 PUSH4 0x761FB19A EQ PUSH2 0x1552 JUMPI DUP1 PUSH4 0x7AB09648 EQ PUSH2 0x14CA JUMPI DUP1 PUSH4 0x7E8F8DA7 EQ PUSH2 0x11C6 JUMPI DUP1 PUSH4 0x9740DBED EQ PUSH2 0x1117 JUMPI DUP1 PUSH4 0x9AAA5D8B EQ PUSH2 0x10DC JUMPI DUP1 PUSH4 0xA7226527 EQ PUSH2 0x4C3 JUMPI DUP1 PUSH4 0xBE2E2325 EQ PUSH2 0x473 JUMPI DUP1 PUSH4 0xBF3F80AC EQ PUSH2 0x409 JUMPI DUP1 PUSH4 0xE9C260D7 EQ PUSH2 0x3F2 JUMPI DUP1 PUSH4 0xF14261D2 EQ PUSH2 0x37A JUMPI DUP1 PUSH4 0xF5104FF1 EQ PUSH2 0x363 JUMPI DUP1 PUSH4 0xF53EF126 EQ PUSH2 0x1AB JUMPI PUSH4 0xFB5FB9A3 EQ PUSH2 0x12C JUMPI PUSH0 DUP1 REVERT JUMPDEST CALLVALUE PUSH2 0x1A7 JUMPI PUSH1 0x60 CALLDATASIZE PUSH1 0x3 NOT ADD SLT PUSH2 0x1A7 JUMPI PUSH1 0x4 CALLDATALOAD PUSH1 0x1 PUSH1 0x1 PUSH1 0x40 SHL SUB DUP2 GT PUSH2 0x1A7 JUMPI PUSH2 0x15C SWAP1 CALLDATASIZE SWAP1 PUSH1 0x4 ADD PUSH2 0x3AE1 JUMP JUMPDEST PUSH1 0x24 CALLDATALOAD PUSH1 0x1 PUSH1 0x1 PUSH1 0x40 SHL SUB DUP2 GT PUSH2 0x1A7 JUMPI PUSH2 0x17B SWAP1 CALLDATASIZE SWAP1 PUSH1 0x4 ADD PUSH2 0x3AE1 JUMP JUMPDEST SWAP1 PUSH1 0x44 CALLDATALOAD SWAP2 PUSH1 0x1 PUSH1 0x1 PUSH1 0x40 SHL SUB DUP4 GT PUSH2 0x1A7 JUMPI PUSH2 0x19F PUSH2 0x1A5 SWAP4 CALLDATASIZE SWAP1 PUSH1 0x4 ADD PUSH2 0x35C2 JUMP JUMPDEST SWAP2 PUSH2 0x462D JUMP JUMPDEST STOP JUMPDEST PUSH0 DUP1 REVERT JUMPDEST CALLVALUE PUSH2 0x1A7 JUMPI PUSH1 0x40 CALLDATASIZE PUSH1 0x3 NOT ADD SLT PUSH2 0x1A7 JUMPI PUSH1 0x4 CALLDATALOAD PUSH1 0x1 PUSH1 0x1 PUSH1 0x40 SHL SUB DUP2 GT PUSH2 0x1A7 JUMPI PUSH2 0x1DB SWAP1 CALLDATASIZE SWAP1 PUSH1 0x4 ADD PUSH2 0x35C2 JUMP JUMPDEST PUSH1 0x24 CALLDATALOAD PUSH1 0x1 PUSH1 0x1 PUSH1 0x40 SHL SUB DUP2 GT PUSH2 0x1A7 JUMPI PUSH1 0x20 PUSH2 0x1FD DUP2 SWAP3 CALLDATASIZE SWAP1 PUSH1 0x4 ADD PUSH2 0x35C2 JUMP JUMPDEST SWAP3 PUSH1 0x40 MLOAD SWAP3 DUP2 DUP5 SWAP3 MLOAD SWAP2 DUP3 SWAP2 ADD DUP4 MCOPY DUP2 ADD PUSH0 DUP2 MSTORE SUB ADD SWAP1 KECCAK256 TIMESTAMP PUSH1 0x2 DUP3 ADD SSTORE PUSH1 0x82 TIMESTAMP ADD SWAP1 DUP2 TIMESTAMP GT PUSH2 0x34F JUMPI PUSH1 0xD SWAP2 PUSH1 0x5 DUP3 ADD SSTORE PUSH1 0x6 PUSH1 0xFF NOT DUP3 SLOAD AND OR DUP2 SSTORE ADD DUP2 MLOAD PUSH1 0x1 PUSH1 0x1 PUSH1 0x40 SHL SUB DUP2 GT PUSH2 0x33B JUMPI PUSH2 0x255 DUP3 SLOAD PUSH2 0x368F JUMP JUMPDEST PUSH1 0x1F DUP2 GT PUSH2 0x2F6 JUMPI JUMPDEST POP PUSH1 0x20 SWAP3 PUSH1 0x1F DUP3 GT PUSH1 0x1 EQ PUSH2 0x29A JUMPI SWAP3 DUP2 SWAP3 SWAP4 PUSH0 SWAP3 PUSH2 0x28F JUMPI JUMPDEST POP POP PUSH0 NOT PUSH1 0x3 DUP4 SWAP1 SHL SHR NOT AND PUSH1 0x1 SWAP2 SWAP1 SWAP2 SHL OR SWAP1 SSTORE STOP JUMPDEST ADD MLOAD SWAP1 POP DUP4 DUP1 PUSH2 0x278 JUMP JUMPDEST PUSH1 0x1F NOT DUP3 AND SWAP4 DUP4 PUSH0 MSTORE DUP1 PUSH0 KECCAK256 SWAP2 PUSH0 JUMPDEST DUP7 DUP2 LT PUSH2 0x2DE JUMPI POP DUP4 PUSH1 0x1 SWAP6 SWAP7 LT PUSH2 0x2C6 JUMPI JUMPDEST POP POP POP DUP2 SHL ADD SWAP1 SSTORE STOP JUMPDEST ADD MLOAD PUSH0 NOT PUSH1 0xF8 DUP5 PUSH1 0x3 SHL AND SHR NOT AND SWAP1 SSTORE DUP4 DUP1 DUP1 PUSH2 0x2BC JUMP JUMPDEST SWAP2 SWAP3 PUSH1 0x20 PUSH1 0x1 DUP2 SWAP3 DUP7 DUP6 ADD MLOAD DUP2 SSTORE ADD SWAP5 ADD SWAP3 ADD PUSH2 0x2A9 JUMP JUMPDEST DUP3 PUSH0 MSTORE PUSH1 0x20 PUSH0 KECCAK256 PUSH1 0x1F DUP4 ADD PUSH1 0x5 SHR DUP2 ADD SWAP2 PUSH1 0x20 DUP5 LT PUSH2 0x331 JUMPI JUMPDEST PUSH1 0x1F ADD PUSH1 0x5 SHR ADD SWAP1 JUMPDEST DUP2 DUP2 LT PUSH2 0x326 JUMPI POP PUSH2 0x25E JUMP JUMPDEST PUSH0 DUP2 SSTORE PUSH1 0x1 ADD PUSH2 0x319 JUMP JUMPDEST SWAP1 SWAP2 POP DUP2 SWAP1 PUSH2 0x310 JUMP JUMPDEST PUSH4 0x4E487B71 PUSH1 0xE0 SHL PUSH0 MSTORE PUSH1 0x41 PUSH1 0x4 MSTORE PUSH1 0x24 PUSH0 REVERT JUMPDEST PUSH4 0x4E487B71 PUSH1 0xE0 SHL PUSH0 MSTORE PUSH1 0x11 PUSH1 0x4 MSTORE PUSH1 0x24 PUSH0 REVERT JUMPDEST CALLVALUE PUSH2 0x1A7 JUMPI PUSH2 0x1A5 PUSH2 0x374 CALLDATASIZE PUSH2 0x3B59 JUMP JUMPDEST SWAP2 PUSH2 0x429A JUMP JUMPDEST CALLVALUE PUSH2 0x1A7 JUMPI PUSH0 CALLDATASIZE PUSH1 0x3 NOT ADD SLT PUSH2 0x1A7 JUMPI PUSH1 0x2 SLOAD PUSH2 0x396 DUP2 PUSH2 0x3D00 JUMP JUMPDEST SWAP1 PUSH0 DUP1 JUMPDEST DUP3 DUP3 LT PUSH2 0x3B3 JUMPI PUSH1 0x40 MLOAD DUP1 PUSH2 0x3AF DUP7 DUP3 PUSH2 0x3975 JUMP JUMPDEST SUB SWAP1 RETURN JUMPDEST PUSH2 0x3EA PUSH1 0x1 SWAP2 PUSH2 0x3E4 PUSH2 0x3CE PUSH2 0x3C8 DUP7 PUSH2 0x37B3 JUMP JUMPDEST POP PUSH2 0x3D8B JUMP JUMPDEST PUSH1 0xFF DUP4 AND SWAP1 PUSH2 0x3DD DUP3 DUP11 PUSH2 0x3D77 JUMP JUMPDEST MSTORE DUP8 PUSH2 0x3D77 JUMP JUMPDEST POP PUSH2 0x3CD8 JUMP JUMPDEST SWAP2 ADD SWAP1 PUSH2 0x39A JUMP JUMPDEST CALLVALUE PUSH2 0x1A7 JUMPI PUSH2 0x1A5 PUSH2 0x403 CALLDATASIZE PUSH2 0x3B59 JUMP JUMPDEST SWAP2 PUSH2 0x3EFD JUMP JUMPDEST CALLVALUE PUSH2 0x1A7 JUMPI PUSH1 0x20 CALLDATASIZE PUSH1 0x3 NOT ADD SLT PUSH2 0x1A7 JUMPI PUSH1 0x4 CALLDATALOAD PUSH1 0x1 PUSH1 0x1 PUSH1 0x40 SHL SUB DUP2 GT PUSH2 0x1A7 JUMPI PUSH2 0x45F PUSH1 0x20 DUP1 PUSH2 0x442 PUSH2 0x3AF SWAP5 CALLDATASIZE SWAP1 PUSH1 0x4 ADD PUSH2 0x35C2 JUMP JUMPDEST PUSH1 0x40 MLOAD SWAP3 DUP2 DUP5 SWAP3 MLOAD SWAP2 DUP3 SWAP2 ADD DUP4 MCOPY DUP2 ADD PUSH1 0x1 DUP2 MSTORE SUB ADD SWAP1 KECCAK256 PUSH2 0x36C7 JUMP JUMPDEST PUSH1 0x40 MLOAD SWAP2 DUP3 SWAP2 PUSH1 0x20 DUP4 MSTORE PUSH1 0x20 DUP4 ADD SWAP1 PUSH2 0x3617 JUMP JUMPDEST CALLVALUE PUSH2 0x1A7 JUMPI PUSH1 0x20 CALLDATASIZE PUSH1 0x3 NOT ADD SLT PUSH2 0x1A7 JUMPI PUSH1 0x4 CALLDATALOAD PUSH1 0x1 PUSH1 0x1 PUSH1 0x40 SHL SUB DUP2 GT PUSH2 0x1A7 JUMPI PUSH2 0x4B7 PUSH2 0x4A9 PUSH2 0x3AF SWAP3 CALLDATASIZE SWAP1 PUSH1 0x4 ADD PUSH2 0x35C2 JUMP JUMPDEST PUSH2 0x4B1 PUSH2 0x3DF3 JUMP JUMPDEST POP PUSH2 0x3E4B JUMP JUMPDEST PUSH1 0x40 MLOAD SWAP2 DUP3 SWAP2 DUP3 PUSH2 0x3A3D JUMP JUMPDEST CALLVALUE PUSH2 0x1A7 JUMPI PUSH1 0x60 CALLDATASIZE PUSH1 0x3 NOT ADD SLT PUSH2 0x1A7 JUMPI PUSH1 0x4 CALLDATALOAD PUSH1 0x1 PUSH1 0x1 PUSH1 0x40 SHL SUB DUP2 GT PUSH2 0x1A7 JUMPI PUSH2 0x4F3 SWAP1 CALLDATASIZE SWAP1 PUSH1 0x4 ADD PUSH2 0x35C2 JUMP JUMPDEST PUSH1 0x24 CALLDATALOAD PUSH1 0x1 PUSH1 0x1 PUSH1 0x40 SHL SUB DUP2 GT PUSH2 0x1A7 JUMPI PUSH2 0x512 SWAP1 CALLDATASIZE SWAP1 PUSH1 0x4 ADD PUSH2 0x37E3 JUMP JUMPDEST SWAP1 PUSH1 0x44 CALLDATALOAD PUSH1 0x1 PUSH1 0x1 PUSH1 0x40 SHL SUB DUP2 GT PUSH2 0x1A7 JUMPI PUSH2 0x532 SWAP1 CALLDATASIZE SWAP1 PUSH1 0x4 ADD PUSH2 0x3842 JUMP JUMPDEST PUSH2 0x53B DUP3 PUSH2 0x3BE1 JUMP JUMPDEST PUSH1 0x2 SLOAD SWAP2 PUSH1 0x20 DUP2 ADD SWAP1 PUSH0 JUMPDEST DUP5 DUP2 LT PUSH2 0x54F JUMPI STOP JUMPDEST PUSH2 0x558 DUP2 PUSH2 0x37B3 JUMP JUMPDEST POP PUSH1 0x40 MLOAD PUSH2 0x57C DUP2 PUSH2 0x56E PUSH1 0x20 DUP3 ADD DUP1 SWAP6 PUSH2 0x3C0F JUMP JUMPDEST SUB PUSH1 0x1F NOT DUP2 ADD DUP4 MSTORE DUP3 PUSH2 0x35A1 JUMP JUMPDEST MLOAD SWAP1 KECCAK256 PUSH1 0x40 MLOAD PUSH1 0x20 DUP2 ADD SWAP1 PUSH2 0x5A9 PUSH1 0x20 DUP3 DUP8 MLOAD DUP1 DUP11 DUP8 MCOPY DUP2 ADD PUSH0 DUP4 DUP3 ADD MSTORE SUB ADD PUSH1 0x1F NOT DUP2 ADD DUP4 MSTORE DUP3 PUSH2 0x35A1 JUMP JUMPDEST MLOAD SWAP1 KECCAK256 EQ PUSH2 0x5BA JUMPI JUMPDEST PUSH1 0x1 ADD PUSH2 0x546 JUMP JUMPDEST PUSH1 0x3 PUSH2 0x5C5 DUP3 PUSH2 0x37B3 JUMP JUMPDEST POP ADD DUP1 SLOAD PUSH2 0xFF00 NOT AND PUSH2 0x300 OR SWAP1 SSTORE PUSH2 0x5EF PUSH1 0x20 PUSH2 0x5E2 DUP4 PUSH2 0x37B3 JUMP JUMPDEST POP PUSH1 0x40 MLOAD SWAP3 DUP4 DUP1 SWAP3 PUSH2 0x3C0F JUMP JUMPDEST PUSH1 0x4 DUP2 MSTORE SUB ADD SWAP1 KECCAK256 DUP7 MLOAD DUP1 MLOAD SWAP1 PUSH1 0x1 PUSH1 0x1 PUSH1 0x40 SHL SUB DUP3 GT PUSH2 0x33B JUMPI PUSH2 0x614 DUP4 SLOAD PUSH2 0x368F JUMP JUMPDEST PUSH1 0x1F DUP2 GT PUSH2 0x1097 JUMPI JUMPDEST POP PUSH1 0x20 SWAP1 PUSH1 0x1F DUP4 GT PUSH1 0x1 EQ PUSH2 0x1031 JUMPI PUSH1 0x1 SWAP4 SWAP3 SWAP2 PUSH0 SWAP2 DUP4 PUSH2 0x1026 JUMPI JUMPDEST POP POP PUSH0 NOT PUSH1 0x3 DUP4 SWAP1 SHL SHR NOT AND SWAP1 DUP4 SHL OR DUP2 SSTORE JUMPDEST ADD PUSH1 0x20 DUP8 ADD MLOAD DUP1 MLOAD SWAP1 PUSH1 0x1 PUSH1 0x1 PUSH1 0x40 SHL SUB DUP3 GT PUSH2 0x33B JUMPI DUP2 SWAP1 PUSH2 0x66F DUP5 SLOAD PUSH2 0x368F JUMP JUMPDEST PUSH1 0x1F DUP2 GT PUSH2 0xFD6 JUMPI JUMPDEST POP PUSH1 0x20 SWAP1 PUSH1 0x1F DUP4 GT PUSH1 0x1 EQ PUSH2 0xF73 JUMPI PUSH0 SWAP3 PUSH2 0xF68 JUMPI JUMPDEST POP POP DUP2 PUSH1 0x1 SHL SWAP2 PUSH0 NOT SWAP1 PUSH1 0x3 SHL SHR NOT AND OR SWAP1 SSTORE JUMPDEST PUSH2 0x6B0 PUSH1 0x20 PUSH2 0x5E2 DUP4 PUSH2 0x37B3 JUMP JUMPDEST PUSH1 0x5 DUP2 MSTORE SUB ADD SWAP1 KECCAK256 DUP5 MLOAD DUP1 MLOAD SWAP1 PUSH1 0x1 PUSH1 0x1 PUSH1 0x40 SHL SUB DUP3 GT PUSH2 0x33B JUMPI DUP2 SWAP1 PUSH2 0x6D7 DUP5 SLOAD PUSH2 0x368F JUMP JUMPDEST PUSH1 0x1F DUP2 GT PUSH2 0xF18 JUMPI JUMPDEST POP PUSH1 0x20 SWAP1 PUSH1 0x1F DUP4 GT PUSH1 0x1 EQ PUSH2 0xEB5 JUMPI PUSH0 SWAP3 PUSH2 0xEAA JUMPI JUMPDEST POP POP DUP2 PUSH1 0x1 SHL SWAP2 PUSH0 NOT SWAP1 PUSH1 0x3 SHL SHR NOT AND OR DUP2 SSTORE JUMPDEST PUSH1 0x1 DUP2 ADD PUSH1 0x20 DUP7 ADD MLOAD DUP1 MLOAD SWAP1 PUSH1 0x1 PUSH1 0x1 PUSH1 0x40 SHL SUB DUP3 GT PUSH2 0x33B JUMPI DUP2 SWAP1 PUSH2 0x730 DUP5 SLOAD PUSH2 0x368F JUMP JUMPDEST PUSH1 0x1F DUP2 GT PUSH2 0xE5A JUMPI JUMPDEST POP PUSH1 0x20 SWAP1 PUSH1 0x1F DUP4 GT PUSH1 0x1 EQ PUSH2 0xDF7 JUMPI PUSH0 SWAP3 PUSH2 0xDEC JUMPI JUMPDEST POP POP DUP2 PUSH1 0x1 SHL SWAP2 PUSH0 NOT SWAP1 PUSH1 0x3 SHL SHR NOT AND OR SWAP1 SSTORE JUMPDEST PUSH1 0x2 DUP2 ADD PUSH1 0x40 DUP7 ADD MLOAD DUP1 MLOAD SWAP1 PUSH1 0x1 PUSH1 0x1 PUSH1 0x40 SHL SUB DUP3 GT PUSH2 0x33B JUMPI DUP2 SWAP1 PUSH2 0x789 DUP5 SLOAD PUSH2 0x368F JUMP JUMPDEST PUSH1 0x1F DUP2 GT PUSH2 0xD9C JUMPI JUMPDEST POP PUSH1 0x20 SWAP1 PUSH1 0x1F DUP4 GT PUSH1 0x1 EQ PUSH2 0xD39 JUMPI PUSH0 SWAP3 PUSH2 0xD2E JUMPI JUMPDEST POP POP DUP2 PUSH1 0x1 SHL SWAP2 PUSH0 NOT SWAP1 PUSH1 0x3 SHL SHR NOT AND OR SWAP1 SSTORE JUMPDEST PUSH1 0x3 DUP2 ADD PUSH1 0x60 DUP7 ADD MLOAD DUP1 MLOAD SWAP1 PUSH1 0x1 PUSH1 0x1 PUSH1 0x40 SHL SUB DUP3 GT PUSH2 0x33B JUMPI DUP2 SWAP1 PUSH2 0x7E2 DUP5 SLOAD PUSH2 0x368F JUMP JUMPDEST PUSH1 0x1F DUP2 GT PUSH2 0xCDE JUMPI JUMPDEST POP PUSH1 0x20 SWAP1 PUSH1 0x1F DUP4 GT PUSH1 0x1 EQ PUSH2 0xC7B JUMPI PUSH0 SWAP3 PUSH2 0xC70 JUMPI JUMPDEST POP POP DUP2 PUSH1 0x1 SHL SWAP2 PUSH0 NOT SWAP1 PUSH1 0x3 SHL SHR NOT AND OR SWAP1 SSTORE JUMPDEST PUSH1 0x4 DUP2 ADD PUSH1 0x80 DUP7 ADD MLOAD DUP1 MLOAD SWAP1 PUSH1 0x1 PUSH1 0x1 PUSH1 0x40 SHL SUB DUP3 GT PUSH2 0x33B JUMPI DUP2 SWAP1 PUSH2 0x83B DUP5 SLOAD PUSH2 0x368F JUMP JUMPDEST PUSH1 0x1F DUP2 GT PUSH2 0xC20 JUMPI JUMPDEST POP PUSH1 0x20 SWAP1 PUSH1 0x1F DUP4 GT PUSH1 0x1 EQ PUSH2 0xBBD JUMPI PUSH0 SWAP3 PUSH2 0xBB2 JUMPI JUMPDEST POP POP DUP2 PUSH1 0x1 SHL SWAP2 PUSH0 NOT SWAP1 PUSH1 0x3 SHL SHR NOT AND OR SWAP1 SSTORE JUMPDEST PUSH1 0x5 DUP2 ADD PUSH1 0xA0 DUP7 ADD MLOAD DUP1 MLOAD SWAP1 PUSH1 0x1 PUSH1 0x1 PUSH1 0x40 SHL SUB DUP3 GT PUSH2 0x33B JUMPI DUP2 SWAP1 PUSH2 0x894 DUP5 SLOAD PUSH2 0x368F JUMP JUMPDEST PUSH1 0x1F DUP2 GT PUSH2 0xB62 JUMPI JUMPDEST POP PUSH1 0x20 SWAP1 PUSH1 0x1F DUP4 GT PUSH1 0x1 EQ PUSH2 0xAFF JUMPI PUSH0 SWAP3 PUSH2 0xAF4 JUMPI JUMPDEST POP POP DUP2 PUSH1 0x1 SHL SWAP2 PUSH0 NOT SWAP1 PUSH1 0x3 SHL SHR NOT AND OR SWAP1 SSTORE JUMPDEST PUSH1 0x6 DUP2 ADD PUSH1 0xC0 DUP7 ADD MLOAD DUP1 MLOAD SWAP1 PUSH1 0x1 PUSH1 0x1 PUSH1 0x40 SHL SUB DUP3 GT PUSH2 0x33B JUMPI PUSH2 0x8EB DUP4 SLOAD PUSH2 0x368F JUMP JUMPDEST PUSH1 0x1F DUP2 GT PUSH2 0xAAF JUMPI JUMPDEST POP PUSH1 0x20 SWAP1 PUSH1 0x1F DUP4 GT PUSH1 0x1 EQ PUSH2 0xA48 JUMPI PUSH1 0x7 SWAP5 SWAP4 SWAP3 SWAP2 PUSH0 SWAP2 DUP4 PUSH2 0xA3D JUMPI JUMPDEST POP POP DUP2 PUSH1 0x1 SHL SWAP2 PUSH0 NOT SWAP1 PUSH1 0x3 SHL SHR NOT AND OR SWAP1 SSTORE JUMPDEST ADD PUSH1 0xE0 DUP6 ADD MLOAD DUP1 MLOAD SWAP1 PUSH1 0x1 PUSH1 0x1 PUSH1 0x40 SHL SUB DUP3 GT PUSH2 0x33B JUMPI PUSH2 0x946 DUP4 SLOAD PUSH2 0x368F JUMP JUMPDEST PUSH1 0x1F DUP2 GT PUSH2 0x9F8 JUMPI JUMPDEST POP PUSH1 0x20 SWAP1 PUSH1 0x1F DUP4 GT PUSH1 0x1 EQ PUSH2 0x991 JUMPI PUSH1 0x1 SWAP5 SWAP4 SWAP3 SWAP2 PUSH0 SWAP2 DUP4 PUSH2 0x986 JUMPI JUMPDEST POP POP PUSH0 NOT PUSH1 0x3 DUP4 SWAP1 SHL SHR NOT AND SWAP1 DUP5 SHL OR SWAP1 SSTORE JUMPDEST SWAP1 POP PUSH2 0x5B2 JUMP JUMPDEST ADD MLOAD SWAP1 POP DUP11 DUP1 PUSH2 0x96C JUMP JUMPDEST SWAP1 PUSH1 0x1F NOT DUP4 AND SWAP2 DUP5 PUSH0 MSTORE DUP2 PUSH0 KECCAK256 SWAP3 PUSH0 JUMPDEST DUP2 DUP2 LT PUSH2 0x9E0 JUMPI POP SWAP2 PUSH1 0x1 SWAP7 SWAP6 SWAP5 SWAP3 SWAP2 DUP4 DUP9 SWAP6 SWAP4 LT PUSH2 0x9C8 JUMPI JUMPDEST POP POP POP DUP2 SHL ADD SWAP1 SSTORE PUSH2 0x97F JUMP JUMPDEST ADD MLOAD PUSH0 NOT PUSH1 0xF8 DUP5 PUSH1 0x3 SHL AND SHR NOT AND SWAP1 SSTORE DUP11 DUP1 DUP1 PUSH2 0x9BB JUMP JUMPDEST SWAP3 SWAP4 PUSH1 0x20 PUSH1 0x1 DUP2 SWAP3 DUP8 DUP7 ADD MLOAD DUP2 SSTORE ADD SWAP6 ADD SWAP4 ADD PUSH2 0x9A1 JUMP JUMPDEST DUP4 PUSH0 MSTORE PUSH1 0x20 PUSH0 KECCAK256 PUSH1 0x1F DUP5 ADD PUSH1 0x5 SHR DUP2 ADD SWAP2 PUSH1 0x20 DUP6 LT PUSH2 0xA33 JUMPI JUMPDEST PUSH1 0x1F ADD PUSH1 0x5 SHR ADD SWAP1 JUMPDEST DUP2 DUP2 LT PUSH2 0xA28 JUMPI POP PUSH2 0x94F JUMP JUMPDEST PUSH0 DUP2 SSTORE PUSH1 0x1 ADD PUSH2 0xA1B JUMP JUMPDEST SWAP1 SWAP2 POP DUP2 SWAP1 PUSH2 0xA12 JUMP JUMPDEST ADD MLOAD SWAP1 POP DUP12 DUP1 PUSH2 0x911 JUMP JUMPDEST SWAP1 PUSH1 0x1F NOT DUP4 AND SWAP2 DUP5 PUSH0 MSTORE DUP2 PUSH0 KECCAK256 SWAP3 PUSH0 JUMPDEST DUP2 DUP2 LT PUSH2 0xA97 JUMPI POP SWAP2 PUSH1 0x1 SWAP4 SWAP2 DUP6 PUSH1 0x7 SWAP9 SWAP8 SWAP7 SWAP5 LT PUSH2 0xA7F JUMPI JUMPDEST POP POP POP DUP2 SHL ADD SWAP1 SSTORE PUSH2 0x925 JUMP JUMPDEST ADD MLOAD PUSH0 NOT PUSH1 0xF8 DUP5 PUSH1 0x3 SHL AND SHR NOT AND SWAP1 SSTORE DUP12 DUP1 DUP1 PUSH2 0xA72 JUMP JUMPDEST SWAP3 SWAP4 PUSH1 0x20 PUSH1 0x1 DUP2 SWAP3 DUP8 DUP7 ADD MLOAD DUP2 SSTORE ADD SWAP6 ADD SWAP4 ADD PUSH2 0xA58 JUMP JUMPDEST DUP4 PUSH0 MSTORE PUSH1 0x20 PUSH0 KECCAK256 PUSH1 0x1F DUP5 ADD PUSH1 0x5 SHR DUP2 ADD SWAP2 PUSH1 0x20 DUP6 LT PUSH2 0xAEA JUMPI JUMPDEST PUSH1 0x1F ADD PUSH1 0x5 SHR ADD SWAP1 JUMPDEST DUP2 DUP2 LT PUSH2 0xADF JUMPI POP PUSH2 0x8F4 JUMP JUMPDEST PUSH0 DUP2 SSTORE PUSH1 0x1 ADD PUSH2 0xAD2 JUMP JUMPDEST SWAP1 SWAP2 POP DUP2 SWAP1 PUSH2 0xAC9 JUMP JUMPDEST ADD MLOAD SWAP1 POP DUP11 DUP1 PUSH2 0x8B3 JUMP JUMPDEST PUSH0 DUP6 DUP2 MSTORE DUP3 DUP2 KECCAK256 SWAP4 POP PUSH1 0x1F NOT DUP6 AND SWAP1 JUMPDEST DUP2 DUP2 LT PUSH2 0xB4A JUMPI POP SWAP1 DUP5 PUSH1 0x1 SWAP6 SWAP5 SWAP4 SWAP3 LT PUSH2 0xB32 JUMPI JUMPDEST POP POP POP DUP2 SHL ADD SWAP1 SSTORE PUSH2 0x8C7 JUMP JUMPDEST ADD MLOAD PUSH0 NOT PUSH1 0xF8 DUP5 PUSH1 0x3 SHL AND SHR NOT AND SWAP1 SSTORE DUP11 DUP1 DUP1 PUSH2 0xB25 JUMP JUMPDEST SWAP3 SWAP4 PUSH1 0x20 PUSH1 0x1 DUP2 SWAP3 DUP8 DUP7 ADD MLOAD DUP2 SSTORE ADD SWAP6 ADD SWAP4 ADD PUSH2 0xB0F JUMP JUMPDEST SWAP1 SWAP2 POP DUP4 PUSH0 MSTORE PUSH1 0x20 PUSH0 KECCAK256 PUSH1 0x1F DUP5 ADD PUSH1 0x5 SHR DUP2 ADD SWAP2 PUSH1 0x20 DUP6 LT PUSH2 0xBA8 JUMPI JUMPDEST SWAP1 PUSH1 0x1F DUP6 SWAP5 SWAP4 SWAP3 ADD PUSH1 0x5 SHR ADD SWAP1 JUMPDEST DUP2 DUP2 LT PUSH2 0xB9A JUMPI POP PUSH2 0x89D JUMP JUMPDEST PUSH0 DUP2 SSTORE DUP5 SWAP4 POP PUSH1 0x1 ADD PUSH2 0xB8D JUMP JUMPDEST SWAP1 SWAP2 POP DUP2 SWAP1 PUSH2 0xB7F JUMP JUMPDEST ADD MLOAD SWAP1 POP DUP11 DUP1 PUSH2 0x85A JUMP JUMPDEST PUSH0 DUP6 DUP2 MSTORE DUP3 DUP2 KECCAK256 SWAP4 POP PUSH1 0x1F NOT DUP6 AND SWAP1 JUMPDEST DUP2 DUP2 LT PUSH2 0xC08 JUMPI POP SWAP1 DUP5 PUSH1 0x1 SWAP6 SWAP5 SWAP4 SWAP3 LT PUSH2 0xBF0 JUMPI JUMPDEST POP POP POP DUP2 SHL ADD SWAP1 SSTORE PUSH2 0x86E JUMP JUMPDEST ADD MLOAD PUSH0 NOT PUSH1 0xF8 DUP5 PUSH1 0x3 SHL AND SHR NOT AND SWAP1 SSTORE DUP11 DUP1 DUP1 PUSH2 0xBE3 JUMP JUMPDEST SWAP3 SWAP4 PUSH1 0x20 PUSH1 0x1 DUP2 SWAP3 DUP8 DUP7 ADD MLOAD DUP2 SSTORE ADD SWAP6 ADD SWAP4 ADD PUSH2 0xBCD JUMP JUMPDEST SWAP1 SWAP2 POP DUP4 PUSH0 MSTORE PUSH1 0x20 PUSH0 KECCAK256 PUSH1 0x1F DUP5 ADD PUSH1 0x5 SHR DUP2 ADD SWAP2 PUSH1 0x20 DUP6 LT PUSH2 0xC66 JUMPI JUMPDEST SWAP1 PUSH1 0x1F DUP6 SWAP5 SWAP4 SWAP3 ADD PUSH1 0x5 SHR ADD SWAP1 JUMPDEST DUP2 DUP2 LT PUSH2 0xC58 JUMPI POP PUSH2 0x844 JUMP JUMPDEST PUSH0 DUP2 SSTORE DUP5 SWAP4 POP PUSH1 0x1 ADD PUSH2 0xC4B JUMP JUMPDEST SWAP1 SWAP2 POP DUP2 SWAP1 PUSH2 0xC3D JUMP JUMPDEST ADD MLOAD SWAP1 POP DUP11 DUP1 PUSH2 0x801 JUMP JUMPDEST PUSH0 DUP6 DUP2 MSTORE DUP3 DUP2 KECCAK256 SWAP4 POP PUSH1 0x1F NOT DUP6 AND SWAP1 JUMPDEST DUP2 DUP2 LT PUSH2 0xCC6 JUMPI POP SWAP1 DUP5 PUSH1 0x1 SWAP6 SWAP5 SWAP4 SWAP3 LT PUSH2 0xCAE JUMPI JUMPDEST POP POP POP DUP2 SHL ADD SWAP1 SSTORE PUSH2 0x815 JUMP JUMPDEST ADD MLOAD PUSH0 NOT PUSH1 0xF8 DUP5 PUSH1 0x3 SHL AND SHR NOT AND SWAP1 SSTORE DUP11 DUP1 DUP1 PUSH2 0xCA1 JUMP JUMPDEST SWAP3 SWAP4 PUSH1 0x20 PUSH1 0x1 DUP2 SWAP3 DUP8 DUP7 ADD MLOAD DUP2 SSTORE ADD SWAP6 ADD SWAP4 ADD PUSH2 0xC8B JUMP JUMPDEST SWAP1 SWAP2 POP DUP4 PUSH0 MSTORE PUSH1 0x20 PUSH0 KECCAK256 PUSH1 0x1F DUP5 ADD PUSH1 0x5 SHR DUP2 ADD SWAP2 PUSH1 0x20 DUP6 LT PUSH2 0xD24 JUMPI JUMPDEST SWAP1 PUSH1 0x1F DUP6 SWAP5 SWAP4 SWAP3 ADD PUSH1 0x5 SHR ADD SWAP1 JUMPDEST DUP2 DUP2 LT PUSH2 0xD16 JUMPI POP PUSH2 0x7EB JUMP JUMPDEST PUSH0 DUP2 SSTORE DUP5 SWAP4 POP PUSH1 0x1 ADD PUSH2 0xD09 JUMP JUMPDEST SWAP1 SWAP2 POP DUP2 SWAP1 PUSH2 0xCFB JUMP JUMPDEST ADD MLOAD SWAP1 POP DUP11 DUP1 PUSH2 0x7A8 JUMP JUMPDEST PUSH0 DUP6 DUP2 MSTORE DUP3 DUP2 KECCAK256 SWAP4 POP PUSH1 0x1F NOT DUP6 AND SWAP1 JUMPDEST DUP2 DUP2 LT PUSH2 0xD84 JUMPI POP SWAP1 DUP5 PUSH1 0x1 SWAP6 SWAP5 SWAP4 SWAP3 LT PUSH2 0xD6C JUMPI JUMPDEST POP POP POP DUP2 SHL ADD SWAP1 SSTORE PUSH2 0x7BC JUMP JUMPDEST ADD MLOAD PUSH0 NOT PUSH1 0xF8 DUP5 PUSH1 0x3 SHL AND SHR NOT AND SWAP1 SSTORE DUP11 DUP1 DUP1 PUSH2 0xD5F JUMP JUMPDEST SWAP3 SWAP4 PUSH1 0x20 PUSH1 0x1 DUP2 SWAP3 DUP8 DUP7 ADD MLOAD DUP2 SSTORE ADD SWAP6 ADD SWAP4 ADD PUSH2 0xD49 JUMP JUMPDEST SWAP1 SWAP2 POP DUP4 PUSH0 MSTORE PUSH1 0x20 PUSH0 KECCAK256 PUSH1 0x1F DUP5 ADD PUSH1 0x5 SHR DUP2 ADD SWAP2 PUSH1 0x20 DUP6 LT PUSH2 0xDE2 JUMPI JUMPDEST SWAP1 PUSH1 0x1F DUP6 SWAP5 SWAP4 SWAP3 ADD PUSH1 0x5 SHR ADD SWAP1 JUMPDEST DUP2 DUP2 LT PUSH2 0xDD4 JUMPI POP PUSH2 0x792 JUMP JUMPDEST PUSH0 DUP2 SSTORE DUP5 SWAP4 POP PUSH1 0x1 ADD PUSH2 0xDC7 JUMP JUMPDEST SWAP1 SWAP2 POP DUP2 SWAP1 PUSH2 0xDB9 JUMP JUMPDEST ADD MLOAD SWAP1 POP DUP11 DUP1 PUSH2 0x74F JUMP JUMPDEST PUSH0 DUP6 DUP2 MSTORE DUP3 DUP2 KECCAK256 SWAP4 POP PUSH1 0x1F NOT DUP6 AND SWAP1 JUMPDEST DUP2 DUP2 LT PUSH2 0xE42 JUMPI POP SWAP1 DUP5 PUSH1 0x1 SWAP6 SWAP5 SWAP4 SWAP3 LT PUSH2 0xE2A JUMPI JUMPDEST POP POP POP DUP2 SHL ADD SWAP1 SSTORE PUSH2 0x763 JUMP JUMPDEST ADD MLOAD PUSH0 NOT PUSH1 0xF8 DUP5 PUSH1 0x3 SHL AND SHR NOT AND SWAP1 SSTORE DUP11 DUP1 DUP1 PUSH2 0xE1D JUMP JUMPDEST SWAP3 SWAP4 PUSH1 0x20 PUSH1 0x1 DUP2 SWAP3 DUP8 DUP7 ADD MLOAD DUP2 SSTORE ADD SWAP6 ADD SWAP4 ADD PUSH2 0xE07 JUMP JUMPDEST SWAP1 SWAP2 POP DUP4 PUSH0 MSTORE PUSH1 0x20 PUSH0 KECCAK256 PUSH1 0x1F DUP5 ADD PUSH1 0x5 SHR DUP2 ADD SWAP2 PUSH1 0x20 DUP6 LT PUSH2 0xEA0 JUMPI JUMPDEST SWAP1 PUSH1 0x1F DUP6 SWAP5 SWAP4 SWAP3 ADD PUSH1 0x5 SHR ADD SWAP1 JUMPDEST DUP2 DUP2 LT PUSH2 0xE92 JUMPI POP PUSH2 0x739 JUMP JUMPDEST PUSH0 DUP2 SSTORE DUP5 SWAP4 POP PUSH1 0x1 ADD PUSH2 0xE85 JUMP JUMPDEST SWAP1 SWAP2 POP DUP2 SWAP1 PUSH2 0xE77 JUMP JUMPDEST ADD MLOAD SWAP1 POP DUP10 DUP1 PUSH2 0x6F6 JUMP JUMPDEST PUSH0 DUP6 DUP2 MSTORE DUP3 DUP2 KECCAK256 SWAP4 POP PUSH1 0x1F NOT DUP6 AND SWAP1 JUMPDEST DUP2 DUP2 LT PUSH2 0xF00 JUMPI POP SWAP1 DUP5 PUSH1 0x1 SWAP6 SWAP5 SWAP4 SWAP3 LT PUSH2 0xEE8 JUMPI JUMPDEST POP POP POP DUP2 SHL ADD DUP2 SSTORE PUSH2 0x70A JUMP JUMPDEST ADD MLOAD PUSH0 NOT PUSH1 0xF8 DUP5 PUSH1 0x3 SHL AND SHR NOT AND SWAP1 SSTORE DUP10 DUP1 DUP1 PUSH2 0xEDB JUMP JUMPDEST SWAP3 SWAP4 PUSH1 0x20 PUSH1 0x1 DUP2 SWAP3 DUP8 DUP7 ADD MLOAD DUP2 SSTORE ADD SWAP6 ADD SWAP4 ADD PUSH2 0xEC5 JUMP JUMPDEST SWAP1 SWAP2 POP DUP4 PUSH0 MSTORE PUSH1 0x20 PUSH0 KECCAK256 PUSH1 0x1F DUP5 ADD PUSH1 0x5 SHR DUP2 ADD SWAP2 PUSH1 0x20 DUP6 LT PUSH2 0xF5E JUMPI JUMPDEST SWAP1 PUSH1 0x1F DUP6 SWAP5 SWAP4 SWAP3 ADD PUSH1 0x5 SHR ADD SWAP1 JUMPDEST DUP2 DUP2 LT PUSH2 0xF50 JUMPI POP PUSH2 0x6E0 JUMP JUMPDEST PUSH0 DUP2 SSTORE DUP5 SWAP4 POP PUSH1 0x1 ADD PUSH2 0xF43 JUMP JUMPDEST SWAP1 SWAP2 POP DUP2 SWAP1 PUSH2 0xF35 JUMP JUMPDEST ADD MLOAD SWAP1 POP DUP10 DUP1 PUSH2 0x68E JUMP JUMPDEST PUSH0 DUP6 DUP2 MSTORE DUP3 DUP2 KECCAK256 SWAP4 POP PUSH1 0x1F NOT DUP6 AND SWAP1 JUMPDEST DUP2 DUP2 LT PUSH2 0xFBE JUMPI POP SWAP1 DUP5 PUSH1 0x1 SWAP6 SWAP5 SWAP4 SWAP3 LT PUSH2 0xFA6 JUMPI JUMPDEST POP POP POP DUP2 SHL ADD SWAP1 SSTORE PUSH2 0x6A2 JUMP JUMPDEST ADD MLOAD PUSH0 NOT PUSH1 0xF8 DUP5 PUSH1 0x3 SHL AND SHR NOT AND SWAP1 SSTORE DUP10 DUP1 DUP1 PUSH2 0xF99 JUMP JUMPDEST SWAP3 SWAP4 PUSH1 0x20 PUSH1 0x1 DUP2 SWAP3 DUP8 DUP7 ADD MLOAD DUP2 SSTORE ADD SWAP6 ADD SWAP4 ADD PUSH2 0xF83 JUMP JUMPDEST SWAP1 SWAP2 POP DUP4 PUSH0 MSTORE PUSH1 0x20 PUSH0 KECCAK256 PUSH1 0x1F DUP5 ADD PUSH1 0x5 SHR DUP2 ADD SWAP2 PUSH1 0x20 DUP6 LT PUSH2 0x101C JUMPI JUMPDEST SWAP1 PUSH1 0x1F DUP6 SWAP5 SWAP4 SWAP3 ADD PUSH1 0x5 SHR ADD SWAP1 JUMPDEST DUP2 DUP2 LT PUSH2 0x100E JUMPI POP PUSH2 0x678 JUMP JUMPDEST PUSH0 DUP2 SSTORE DUP5 SWAP4 POP PUSH1 0x1 ADD PUSH2 0x1001 JUMP JUMPDEST SWAP1 SWAP2 POP DUP2 SWAP1 PUSH2 0xFF3 JUMP JUMPDEST ADD MLOAD SWAP1 POP DUP11 DUP1 PUSH2 0x639 JUMP JUMPDEST SWAP1 PUSH1 0x1F NOT DUP4 AND SWAP2 DUP5 PUSH0 MSTORE DUP2 PUSH0 KECCAK256 SWAP3 PUSH0 JUMPDEST DUP2 DUP2 LT PUSH2 0x107F JUMPI POP SWAP2 PUSH1 0x1 SWAP6 SWAP5 SWAP3 SWAP2 DUP4 DUP8 SWAP6 SWAP4 LT PUSH2 0x1067 JUMPI JUMPDEST POP POP POP DUP2 SHL ADD DUP2 SSTORE PUSH2 0x64C JUMP JUMPDEST ADD MLOAD PUSH0 NOT PUSH1 0xF8 DUP5 PUSH1 0x3 SHL AND SHR NOT AND SWAP1 SSTORE DUP11 DUP1 DUP1 PUSH2 0x105A JUMP JUMPDEST SWAP3 SWAP4 PUSH1 0x20 PUSH1 0x1 DUP2 SWAP3 DUP8 DUP7 ADD MLOAD DUP2 SSTORE ADD SWAP6 ADD SWAP4 ADD PUSH2 0x1041 JUMP JUMPDEST DUP4 PUSH0 MSTORE PUSH1 0x20 PUSH0 KECCAK256 PUSH1 0x1F DUP5 ADD PUSH1 0x5 SHR DUP2 ADD SWAP2 PUSH1 0x20 DUP6 LT PUSH2 0x10D2 JUMPI JUMPDEST PUSH1 0x1F ADD PUSH1 0x5 SHR ADD SWAP1 JUMPDEST DUP2 DUP2 LT PUSH2 0x10C7 JUMPI POP PUSH2 0x61D JUMP JUMPDEST PUSH0 DUP2 SSTORE PUSH1 0x1 ADD PUSH2 0x10BA JUMP JUMPDEST SWAP1 SWAP2 POP DUP2 SWAP1 PUSH2 0x10B1 JUMP JUMPDEST CALLVALUE PUSH2 0x1A7 JUMPI PUSH1 0x20 CALLDATASIZE PUSH1 0x3 NOT ADD SLT PUSH2 0x1A7 JUMPI PUSH1 0x4 CALLDATALOAD PUSH1 0x1 PUSH1 0x1 PUSH1 0x40 SHL SUB DUP2 GT PUSH2 0x1A7 JUMPI PUSH2 0x4B7 PUSH2 0x1112 PUSH2 0x3AF SWAP3 CALLDATASIZE SWAP1 PUSH1 0x4 ADD PUSH2 0x35C2 JUMP JUMPDEST PUSH2 0x3E4B JUMP JUMPDEST CALLVALUE PUSH2 0x1A7 JUMPI PUSH1 0x40 CALLDATASIZE PUSH1 0x3 NOT ADD SLT PUSH2 0x1A7 JUMPI PUSH1 0x4 CALLDATALOAD PUSH1 0x1 PUSH1 0x1 PUSH1 0x40 SHL SUB DUP2 GT PUSH2 0x1A7 JUMPI PUSH2 0x1147 SWAP1 CALLDATASIZE SWAP1 PUSH1 0x4 ADD PUSH2 0x35C2 JUMP JUMPDEST PUSH1 0x24 CALLDATALOAD TIMESTAMP GT ISZERO PUSH2 0x1181 JUMPI PUSH1 0x20 DUP1 SWAP2 PUSH1 0x40 MLOAD SWAP3 DUP2 DUP5 SWAP3 MLOAD SWAP2 DUP3 SWAP2 ADD DUP4 MCOPY PUSH0 SWAP1 DUP3 ADD SWAP1 DUP2 MSTORE SUB ADD SWAP1 KECCAK256 TIMESTAMP PUSH1 0x6 DUP3 ADD SSTORE DUP1 SLOAD PUSH1 0xFF NOT AND PUSH1 0x5 OR SWAP1 SSTORE STOP JUMPDEST PUSH1 0x40 MLOAD PUSH3 0x461BCD PUSH1 0xE5 SHL DUP2 MSTORE PUSH1 0x20 PUSH1 0x4 DUP3 ADD MSTORE PUSH1 0x18 PUSH1 0x24 DUP3 ADD MSTORE PUSH32 0x536572746966696B6174206D61736968206265726C616B750000000000000000 PUSH1 0x44 DUP3 ADD MSTORE PUSH1 0x64 SWAP1 REVERT JUMPDEST CALLVALUE PUSH2 0x1A7 JUMPI PUSH1 0x20 CALLDATASIZE PUSH1 0x3 NOT ADD SLT PUSH2 0x1A7 JUMPI PUSH1 0x4 CALLDATALOAD PUSH1 0x1 PUSH1 0x1 PUSH1 0x40 SHL SUB DUP2 GT PUSH2 0x1A7 JUMPI PUSH2 0x11F6 SWAP1 CALLDATASIZE SWAP1 PUSH1 0x4 ADD PUSH2 0x35C2 JUMP JUMPDEST PUSH2 0x11FE PUSH2 0x3BC1 JUMP JUMPDEST POP PUSH1 0x40 MLOAD PUSH2 0x120B DUP2 PUSH2 0x354E JUMP JUMPDEST PUSH1 0x60 DUP2 MSTORE PUSH1 0x20 ADD PUSH1 0x60 SWAP1 MSTORE PUSH1 0x40 MLOAD PUSH2 0x1222 DUP2 PUSH2 0x3569 JUMP JUMPDEST PUSH1 0x60 DUP2 MSTORE PUSH1 0x20 DUP2 ADD PUSH1 0x60 SWAP1 MSTORE PUSH1 0x40 DUP2 ADD PUSH1 0x60 SWAP1 MSTORE PUSH1 0x60 DUP2 ADD PUSH1 0x60 SWAP1 MSTORE PUSH1 0x80 DUP2 ADD PUSH1 0x60 SWAP1 MSTORE PUSH1 0xA0 DUP2 ADD PUSH1 0x60 SWAP1 MSTORE PUSH1 0xC0 DUP2 ADD PUSH1 0x60 SWAP1 MSTORE PUSH1 0xE0 ADD PUSH1 0x60 SWAP1 MSTORE PUSH1 0x40 MLOAD SWAP1 DUP1 MLOAD SWAP2 DUP1 PUSH1 0x20 DUP4 ADD SWAP4 DUP1 DUP6 DUP4 MCOPY DUP2 ADD PUSH1 0x3 DUP2 MSTORE SUB PUSH1 0x20 ADD SWAP1 KECCAK256 SWAP2 PUSH1 0x40 MLOAD DUP1 DUP4 MLOAD DUP1 DUP5 DUP4 MCOPY DUP2 ADD PUSH1 0x4 DUP2 MSTORE SUB PUSH1 0x20 ADD SWAP1 KECCAK256 SWAP2 PUSH1 0x40 MLOAD SWAP2 DUP3 SWAP2 MLOAD DUP1 SWAP2 DUP4 MCOPY DUP2 ADD PUSH1 0x5 DUP2 MSTORE SUB PUSH1 0x20 ADD SWAP1 KECCAK256 PUSH1 0x40 MLOAD SWAP2 PUSH2 0x12B6 DUP4 PUSH2 0x3518 JUMP JUMPDEST PUSH2 0x12BF DUP5 PUSH2 0x36C7 JUMP JUMPDEST DUP4 MSTORE PUSH2 0x12CD PUSH1 0x1 DUP6 ADD PUSH2 0x36C7 JUMP JUMPDEST SWAP4 PUSH1 0x20 DUP5 ADD SWAP5 DUP6 MSTORE PUSH1 0x2 ADD SLOAD PUSH1 0xFF AND SWAP2 PUSH1 0x40 DUP5 ADD SWAP3 DUP4 MSTORE PUSH1 0x40 MLOAD SWAP2 PUSH2 0x12F1 DUP4 PUSH2 0x354E JUMP JUMPDEST PUSH2 0x12FA DUP2 PUSH2 0x36C7 JUMP JUMPDEST DUP4 MSTORE PUSH1 0x1 ADD PUSH2 0x1308 SWAP1 PUSH2 0x36C7 JUMP JUMPDEST PUSH1 0x20 DUP4 ADD SWAP1 DUP2 MSTORE PUSH1 0x40 MLOAD SWAP4 PUSH2 0x131C DUP6 PUSH2 0x3569 JUMP JUMPDEST PUSH2 0x1325 DUP4 PUSH2 0x36C7 JUMP JUMPDEST DUP6 MSTORE PUSH2 0x1333 PUSH1 0x1 DUP5 ADD PUSH2 0x36C7 JUMP JUMPDEST PUSH1 0x20 DUP7 ADD SWAP1 DUP2 MSTORE PUSH2 0x1346 PUSH1 0x2 DUP6 ADD PUSH2 0x36C7 JUMP JUMPDEST PUSH1 0x40 DUP8 ADD SWAP1 DUP2 MSTORE PUSH2 0x1359 PUSH1 0x3 DUP7 ADD PUSH2 0x36C7 JUMP JUMPDEST PUSH1 0x60 DUP9 ADD SWAP1 DUP2 MSTORE SWAP2 PUSH2 0x136D PUSH1 0x4 DUP8 ADD PUSH2 0x36C7 JUMP JUMPDEST PUSH1 0x80 DUP10 ADD SWAP1 DUP2 MSTORE SWAP4 PUSH2 0x1381 PUSH1 0x5 DUP9 ADD PUSH2 0x36C7 JUMP JUMPDEST PUSH1 0xA0 DUP11 ADD SWAP1 DUP2 MSTORE SWAP6 PUSH2 0x1395 PUSH1 0x6 DUP10 ADD PUSH2 0x36C7 JUMP JUMPDEST SWAP8 PUSH1 0xC0 DUP12 ADD SWAP9 DUP10 MSTORE PUSH1 0x7 ADD PUSH2 0x13A9 SWAP1 PUSH2 0x36C7 JUMP JUMPDEST SWAP9 PUSH1 0xE0 DUP12 ADD SWAP10 DUP11 MSTORE PUSH1 0x40 MLOAD SWAP13 DUP14 SWAP13 PUSH1 0x60 DUP15 MSTORE MLOAD DUP14 PUSH1 0x60 DUP2 ADD PUSH1 0x60 SWAP1 MSTORE PUSH1 0xC0 ADD PUSH2 0x13D1 SWAP2 PUSH2 0x3617 JUMP JUMPDEST SWAP1 MLOAD DUP14 DUP3 SUB PUSH1 0x5F NOT ADD PUSH1 0x80 DUP16 ADD MSTORE PUSH2 0x13E9 SWAP2 SWAP1 PUSH2 0x3617 JUMP JUMPDEST SWAP3 MLOAD PUSH1 0xFF AND PUSH1 0xA0 DUP14 ADD MSTORE DUP12 DUP4 SUB PUSH1 0x20 DUP14 ADD MSTORE MLOAD PUSH1 0x40 DUP4 MSTORE PUSH1 0x40 DUP4 ADD PUSH2 0x140D SWAP2 PUSH2 0x3617 JUMP JUMPDEST SWAP1 MLOAD SWAP2 DUP1 DUP3 SUB SWAP1 PUSH1 0x20 ADD MSTORE PUSH2 0x1421 SWAP2 PUSH2 0x3617 JUMP JUMPDEST SWAP8 DUP10 DUP10 SUB PUSH1 0x40 DUP12 ADD MSTORE MLOAD PUSH2 0x100 DUP10 MSTORE PUSH2 0x100 DUP10 ADD PUSH2 0x143E SWAP2 PUSH2 0x3617 JUMP JUMPDEST SWAP1 MLOAD SWAP1 DUP9 DUP2 SUB PUSH1 0x20 DUP11 ADD MSTORE PUSH2 0x1452 SWAP2 PUSH2 0x3617 JUMP JUMPDEST SWAP1 MLOAD SWAP1 DUP8 DUP2 SUB PUSH1 0x40 DUP10 ADD MSTORE PUSH2 0x1466 SWAP2 PUSH2 0x3617 JUMP JUMPDEST SWAP1 MLOAD SWAP1 DUP7 DUP2 SUB PUSH1 0x60 DUP9 ADD MSTORE PUSH2 0x147A SWAP2 PUSH2 0x3617 JUMP JUMPDEST SWAP1 MLOAD SWAP1 DUP6 DUP2 SUB PUSH1 0x80 DUP8 ADD MSTORE PUSH2 0x148E SWAP2 PUSH2 0x3617 JUMP JUMPDEST SWAP1 MLOAD SWAP1 DUP5 DUP2 SUB PUSH1 0xA0 DUP7 ADD MSTORE PUSH2 0x14A2 SWAP2 PUSH2 0x3617 JUMP JUMPDEST SWAP1 MLOAD SWAP1 DUP4 DUP2 SUB PUSH1 0xC0 DUP6 ADD MSTORE PUSH2 0x14B6 SWAP2 PUSH2 0x3617 JUMP JUMPDEST SWAP1 MLOAD SWAP2 DUP1 DUP3 SUB SWAP1 PUSH1 0xE0 ADD MSTORE PUSH2 0x3AF SWAP2 PUSH2 0x3617 JUMP JUMPDEST CALLVALUE PUSH2 0x1A7 JUMPI PUSH1 0x20 CALLDATASIZE PUSH1 0x3 NOT ADD SLT PUSH2 0x1A7 JUMPI PUSH1 0x4 CALLDATALOAD PUSH1 0x1 PUSH1 0x1 PUSH1 0x40 SHL SUB DUP2 GT PUSH2 0x1A7 JUMPI PUSH1 0x20 DUP1 PUSH2 0x1500 PUSH2 0x1544 SWAP4 CALLDATASIZE SWAP1 PUSH1 0x4 ADD PUSH2 0x35C2 JUMP JUMPDEST PUSH1 0x40 MLOAD SWAP3 DUP2 DUP5 SWAP3 MLOAD SWAP2 DUP3 SWAP2 ADD DUP4 MCOPY DUP2 ADD PUSH1 0x4 DUP2 MSTORE SUB ADD SWAP1 KECCAK256 PUSH2 0x3AF PUSH2 0x1530 PUSH1 0x1 PUSH2 0x1529 DUP5 PUSH2 0x36C7 JUMP JUMPDEST SWAP4 ADD PUSH2 0x36C7 JUMP JUMPDEST PUSH1 0x40 MLOAD SWAP4 DUP5 SWAP4 PUSH1 0x40 DUP6 MSTORE PUSH1 0x40 DUP6 ADD SWAP1 PUSH2 0x3617 JUMP JUMPDEST SWAP1 DUP4 DUP3 SUB PUSH1 0x20 DUP6 ADD MSTORE PUSH2 0x3617 JUMP JUMPDEST CALLVALUE PUSH2 0x1A7 JUMPI PUSH1 0x20 CALLDATASIZE PUSH1 0x3 NOT ADD SLT PUSH2 0x1A7 JUMPI PUSH1 0x4 CALLDATALOAD PUSH1 0x1 PUSH1 0x1 PUSH1 0x40 SHL SUB DUP2 GT PUSH2 0x1A7 JUMPI PUSH2 0x45F PUSH2 0x1588 PUSH2 0x3AF SWAP3 CALLDATASIZE SWAP1 PUSH1 0x4 ADD PUSH2 0x35C2 JUMP JUMPDEST PUSH2 0x3CB5 JUMP JUMPDEST CALLVALUE PUSH2 0x1A7 JUMPI PUSH1 0x20 CALLDATASIZE PUSH1 0x3 NOT ADD SLT PUSH2 0x1A7 JUMPI PUSH1 0x4 CALLDATALOAD PUSH1 0x1 PUSH1 0x1 PUSH1 0x40 SHL SUB DUP2 GT PUSH2 0x1A7 JUMPI PUSH1 0x20 DUP1 PUSH2 0x15C3 PUSH2 0x1611 SWAP4 CALLDATASIZE SWAP1 PUSH1 0x4 ADD PUSH2 0x35C2 JUMP JUMPDEST PUSH1 0x40 MLOAD SWAP3 DUP2 DUP5 SWAP3 MLOAD SWAP2 DUP3 SWAP2 ADD DUP4 MCOPY DUP2 ADD PUSH1 0x3 DUP2 MSTORE SUB ADD SWAP1 KECCAK256 PUSH2 0x15E4 DUP2 PUSH2 0x36C7 JUMP JUMPDEST SWAP1 PUSH2 0x161F PUSH1 0xFF PUSH1 0x2 PUSH2 0x15F8 PUSH1 0x1 DUP6 ADD PUSH2 0x36C7 JUMP JUMPDEST SWAP4 ADD SLOAD AND SWAP2 PUSH1 0x40 MLOAD SWAP5 DUP6 SWAP5 PUSH1 0x60 DUP7 MSTORE PUSH1 0x60 DUP7 ADD SWAP1 PUSH2 0x3617 JUMP JUMPDEST SWAP1 DUP5 DUP3 SUB PUSH1 0x20 DUP7 ADD MSTORE PUSH2 0x3617 JUMP JUMPDEST SWAP1 PUSH1 0x40 DUP4 ADD MSTORE SUB SWAP1 RETURN JUMPDEST CALLVALUE PUSH2 0x1A7 JUMPI PUSH1 0x20 CALLDATASIZE PUSH1 0x3 NOT ADD SLT PUSH2 0x1A7 JUMPI PUSH1 0x4 CALLDATALOAD PUSH1 0x1 PUSH1 0x1 PUSH1 0x40 SHL SUB DUP2 GT PUSH2 0x1A7 JUMPI PUSH2 0x1659 SWAP1 CALLDATASIZE SWAP1 PUSH1 0x4 ADD PUSH2 0x35C2 JUMP JUMPDEST PUSH1 0x2 SLOAD PUSH1 0x20 DUP3 ADD SWAP2 PUSH0 DUP1 JUMPDEST DUP4 DUP2 LT PUSH2 0x1729 JUMPI POP PUSH1 0xFF PUSH2 0x1678 SWAP2 AND PUSH2 0x3D00 JUMP JUMPDEST SWAP3 PUSH0 SWAP2 PUSH0 JUMPDEST DUP5 DUP2 LT PUSH2 0x1692 JUMPI PUSH1 0x40 MLOAD DUP1 PUSH2 0x3AF DUP9 DUP3 PUSH2 0x3975 JUMP JUMPDEST PUSH1 0x2 PUSH2 0x56E PUSH2 0x16B7 PUSH2 0x16A3 DUP5 PUSH2 0x37B3 JUMP JUMPDEST POP PUSH1 0x40 MLOAD SWAP3 DUP4 SWAP2 PUSH1 0x20 DUP4 ADD SWAP6 DUP7 SWAP2 ADD PUSH2 0x3C0F JUMP JUMPDEST MLOAD SWAP1 KECCAK256 PUSH1 0x40 MLOAD PUSH1 0x20 DUP2 ADD SWAP1 PUSH2 0x16E4 PUSH1 0x20 DUP3 DUP8 MLOAD DUP1 DUP11 DUP8 MCOPY DUP2 ADD PUSH0 DUP4 DUP3 ADD MSTORE SUB ADD PUSH1 0x1F NOT DUP2 ADD DUP4 MSTORE DUP3 PUSH2 0x35A1 JUMP JUMPDEST MLOAD SWAP1 KECCAK256 EQ PUSH2 0x16F5 JUMPI JUMPDEST PUSH1 0x1 ADD PUSH2 0x167D JUMP JUMPDEST SWAP3 PUSH2 0x1721 PUSH1 0x1 SWAP2 PUSH2 0x3E4 PUSH2 0x170B PUSH2 0x3C8 DUP9 PUSH2 0x37B3 JUMP JUMPDEST PUSH1 0xFF DUP4 AND SWAP1 PUSH2 0x171A DUP3 DUP13 PUSH2 0x3D77 JUMP JUMPDEST MSTORE DUP10 PUSH2 0x3D77 JUMP JUMPDEST SWAP4 SWAP1 POP PUSH2 0x16ED JUMP JUMPDEST PUSH1 0x2 PUSH2 0x56E PUSH2 0x173A PUSH2 0x16A3 DUP5 PUSH2 0x37B3 JUMP JUMPDEST MLOAD SWAP1 KECCAK256 PUSH1 0x40 MLOAD PUSH1 0x20 DUP2 ADD SWAP1 PUSH2 0x1767 PUSH1 0x20 DUP3 DUP9 MLOAD DUP1 DUP13 DUP8 MCOPY DUP2 ADD PUSH0 DUP4 DUP3 ADD MSTORE SUB ADD PUSH1 0x1F NOT DUP2 ADD DUP4 MSTORE DUP3 PUSH2 0x35A1 JUMP JUMPDEST MLOAD SWAP1 KECCAK256 EQ PUSH2 0x1778 JUMPI JUMPDEST PUSH1 0x1 ADD PUSH2 0x1664 JUMP JUMPDEST SWAP1 PUSH2 0x1784 PUSH1 0x1 SWAP2 PUSH2 0x3CD8 JUMP JUMPDEST SWAP2 SWAP1 POP PUSH2 0x1770 JUMP JUMPDEST CALLVALUE PUSH2 0x1A7 JUMPI PUSH1 0xE0 CALLDATASIZE PUSH1 0x3 NOT ADD SLT PUSH2 0x1A7 JUMPI PUSH1 0x4 CALLDATALOAD PUSH1 0x1 PUSH1 0x1 PUSH1 0x40 SHL SUB DUP2 GT PUSH2 0x1A7 JUMPI PUSH2 0x17BC SWAP1 CALLDATASIZE SWAP1 PUSH1 0x4 ADD PUSH2 0x35C2 JUMP JUMPDEST PUSH1 0x24 CALLDATALOAD PUSH1 0x1 PUSH1 0x1 PUSH1 0x40 SHL SUB DUP2 GT PUSH2 0x1A7 JUMPI PUSH2 0x17DB SWAP1 CALLDATASIZE SWAP1 PUSH1 0x4 ADD PUSH2 0x35C2 JUMP JUMPDEST PUSH1 0x44 CALLDATALOAD PUSH1 0x1 PUSH1 0x1 PUSH1 0x40 SHL SUB DUP2 GT PUSH2 0x1A7 JUMPI PUSH2 0x17FA SWAP1 CALLDATASIZE SWAP1 PUSH1 0x4 ADD PUSH2 0x35C2 JUMP JUMPDEST SWAP2 PUSH1 0x64 CALLDATALOAD PUSH1 0x1 PUSH1 0x1 PUSH1 0xA0 SHL SUB DUP2 AND DUP2 SUB PUSH2 0x1A7 JUMPI PUSH1 0x84 CALLDATALOAD SWAP2 PUSH1 0xFF DUP4 AND DUP1 SWAP4 SUB PUSH2 0x1A7 JUMPI PUSH1 0xA4 CALLDATALOAD PUSH1 0x1 PUSH1 0x1 PUSH1 0x40 SHL SUB DUP2 GT PUSH2 0x1A7 JUMPI PUSH2 0x183C SWAP1 CALLDATASIZE SWAP1 PUSH1 0x4 ADD PUSH2 0x37E3 JUMP JUMPDEST SWAP2 PUSH1 0xC4 CALLDATALOAD SWAP1 PUSH1 0x1 PUSH1 0x1 PUSH1 0x40 SHL SUB DUP3 GT PUSH2 0x1A7 JUMPI DUP7 PUSH2 0x1861 PUSH2 0x1867 SWAP4 CALLDATASIZE SWAP1 PUSH1 0x4 ADD PUSH2 0x3842 JUMP JUMPDEST SWAP7 PUSH2 0x3C79 JUMP JUMPDEST SWAP5 PUSH2 0x18B7 DUP3 PUSH1 0x20 SWAP8 PUSH1 0x40 MLOAD SWAP1 PUSH2 0x187D DUP11 DUP4 PUSH2 0x35A1 JUMP JUMPDEST PUSH0 DUP3 MSTORE PUSH1 0x40 MLOAD PUSH2 0x188D DUP12 DUP3 PUSH2 0x35A1 JUMP JUMPDEST PUSH0 DUP2 MSTORE PUSH2 0x1898 PUSH2 0x3BC1 JUMP JUMPDEST POP PUSH1 0x40 MLOAD SWAP3 PUSH2 0x18A6 DUP5 PUSH2 0x3518 JUMP JUMPDEST DUP4 MSTORE DUP11 DUP4 ADD MSTORE PUSH0 PUSH1 0x40 DUP4 ADD MSTORE PUSH2 0x462D JUMP JUMPDEST PUSH1 0x40 MLOAD SWAP4 PUSH2 0x18C4 DUP6 PUSH2 0x3518 JUMP JUMPDEST DUP3 DUP6 MSTORE PUSH1 0x40 MLOAD SWAP5 PUSH2 0x18D5 DUP9 DUP8 PUSH2 0x35A1 JUMP JUMPDEST PUSH0 DUP7 MSTORE DUP8 DUP2 ADD SWAP6 DUP7 MSTORE PUSH1 0x40 DUP2 ADD DUP3 DUP2 MSTORE PUSH1 0x40 MLOAD SWAP7 DUP6 MLOAD SWAP8 DUP11 DUP2 DUP2 DUP10 ADD SWAP11 DUP1 DUP13 DUP4 MCOPY DUP2 ADD PUSH1 0x3 DUP2 MSTORE SUB ADD SWAP1 KECCAK256 SWAP3 MLOAD DUP1 MLOAD SWAP1 PUSH1 0x1 PUSH1 0x1 PUSH1 0x40 SHL SUB DUP3 GT PUSH2 0x33B JUMPI DUP2 SWAP1 DUP13 PUSH2 0x1920 DUP8 SLOAD PUSH2 0x368F JUMP JUMPDEST PUSH1 0x1F DUP2 GT PUSH2 0x2ADD JUMPI JUMPDEST POP POP DUP13 SWAP1 DUP14 PUSH1 0x1F DUP5 GT PUSH1 0x1 EQ PUSH2 0x2A79 JUMPI POP PUSH0 SWAP3 PUSH2 0x2A6E JUMPI JUMPDEST POP POP DUP2 PUSH1 0x1 SHL SWAP2 PUSH0 NOT SWAP1 PUSH1 0x3 SHL SHR NOT AND OR DUP4 SSTORE JUMPDEST MLOAD DUP1 MLOAD PUSH1 0x1 DUP5 ADD SWAP2 PUSH1 0x1 PUSH1 0x1 PUSH1 0x40 SHL SUB DUP3 GT PUSH2 0x33B JUMPI DUP12 PUSH2 0x1976 DUP5 SLOAD PUSH2 0x368F JUMP JUMPDEST PUSH1 0x1F DUP2 GT PUSH2 0x2A29 JUMPI JUMPDEST POP POP DUP12 SWAP1 DUP13 PUSH1 0x1F DUP5 GT PUSH1 0x1 EQ PUSH2 0x29BD JUMPI POP SWAP3 DUP3 PUSH1 0xFF SWAP6 SWAP3 SWAP4 DUP7 SWAP5 PUSH1 0x2 SWAP7 PUSH0 SWAP3 PUSH2 0x29B2 JUMPI JUMPDEST POP POP DUP2 PUSH1 0x1 SHL SWAP2 PUSH0 NOT SWAP1 PUSH1 0x3 SHL SHR NOT AND OR SWAP1 SSTORE JUMPDEST MLOAD AND SWAP3 ADD SWAP2 AND PUSH1 0xFF NOT DUP3 SLOAD AND OR SWAP1 SSTORE PUSH1 0x40 MLOAD PUSH2 0x19D2 DUP2 PUSH2 0x3533 JUMP JUMPDEST DUP4 DUP2 MSTORE PUSH1 0x40 MLOAD SWAP3 PUSH2 0x19E3 DUP10 DUP6 PUSH2 0x35A1 JUMP JUMPDEST PUSH0 DUP5 MSTORE DUP9 DUP3 ADD SWAP4 DUP5 MSTORE PUSH1 0x40 DUP3 ADD SWAP1 DUP2 MSTORE PUSH1 0x60 DUP3 ADD SWAP3 DUP4 MSTORE PUSH1 0x80 DUP3 ADD SWAP1 PUSH0 DUP3 MSTORE PUSH1 0x40 MLOAD SWAP5 PUSH2 0x1A10 DUP12 DUP8 PUSH2 0x35A1 JUMP JUMPDEST PUSH0 DUP7 MSTORE PUSH1 0xA0 DUP5 ADD SWAP6 DUP7 MSTORE PUSH1 0x2 SLOAD PUSH9 0x10000000000000000 DUP2 LT ISZERO PUSH2 0x33B JUMPI DUP1 PUSH1 0x1 PUSH2 0x1A3E SWAP3 ADD PUSH1 0x2 SSTORE PUSH2 0x37B3 JUMP JUMPDEST SWAP5 SWAP1 SWAP5 PUSH2 0x299F JUMPI MLOAD DUP1 MLOAD SWAP1 PUSH1 0x1 PUSH1 0x1 PUSH1 0x40 SHL SUB DUP3 GT PUSH2 0x33B JUMPI DUP13 DUP3 SWAP2 PUSH2 0x1A64 DUP9 SLOAD PUSH2 0x368F JUMP JUMPDEST PUSH1 0x1F DUP2 GT PUSH2 0x2947 JUMPI JUMPDEST POP DUP2 PUSH1 0x1F DUP5 GT PUSH1 0x1 EQ PUSH2 0x28E3 JUMPI POP PUSH0 SWAP3 PUSH2 0x28D8 JUMPI JUMPDEST POP POP DUP2 PUSH1 0x1 SHL SWAP2 PUSH0 NOT SWAP1 PUSH1 0x3 SHL SHR NOT AND OR DUP5 SSTORE JUMPDEST MLOAD DUP1 MLOAD PUSH1 0x1 DUP6 ADD SWAP2 PUSH1 0x1 PUSH1 0x1 PUSH1 0x40 SHL SUB DUP3 GT PUSH2 0x33B JUMPI DUP13 DUP3 SWAP2 PUSH2 0x1AB9 DUP6 SLOAD PUSH2 0x368F JUMP JUMPDEST PUSH1 0x1F DUP2 GT PUSH2 0x2880 JUMPI JUMPDEST POP DUP2 PUSH1 0x1F DUP5 GT PUSH1 0x1 EQ PUSH2 0x281C JUMPI POP PUSH0 SWAP3 PUSH2 0x2811 JUMPI JUMPDEST POP POP DUP2 PUSH1 0x1 SHL SWAP2 PUSH0 NOT SWAP1 PUSH1 0x3 SHL SHR NOT AND OR SWAP1 SSTORE JUMPDEST MLOAD DUP1 MLOAD PUSH1 0x2 DUP5 ADD SWAP2 PUSH1 0x1 PUSH1 0x1 PUSH1 0x40 SHL SUB DUP3 GT PUSH2 0x33B JUMPI DUP2 SWAP1 DUP13 PUSH2 0x1B0E DUP6 SLOAD PUSH2 0x368F JUMP JUMPDEST PUSH1 0x1F DUP2 GT PUSH2 0x27C0 JUMPI JUMPDEST POP POP DUP13 SWAP1 DUP14 PUSH1 0x1F DUP5 GT PUSH1 0x1 EQ PUSH2 0x275C JUMPI POP PUSH0 SWAP3 PUSH2 0x2751 JUMPI JUMPDEST POP POP DUP2 PUSH1 0x1 SHL SWAP2 PUSH0 NOT SWAP1 PUSH1 0x3 SHL SHR NOT AND OR SWAP1 SSTORE JUMPDEST PUSH1 0xFF DUP1 PUSH1 0x3 DUP5 ADD SWAP5 MLOAD AND AND PUSH1 0xFF NOT DUP5 SLOAD AND OR DUP4 SSTORE MLOAD SWAP2 PUSH1 0x7 DUP4 LT ISZERO PUSH2 0x273D JUMPI PUSH1 0x4 SWAP3 PUSH2 0xFF00 DUP3 SLOAD SWAP2 PUSH1 0x8 SHL AND SWAP1 PUSH2 0xFF00 NOT AND OR SWAP1 SSTORE ADD SWAP1 MLOAD DUP1 MLOAD SWAP1 PUSH1 0x1 PUSH1 0x1 PUSH1 0x40 SHL SUB DUP3 GT PUSH2 0x33B JUMPI DUP2 SWAP1 PUSH2 0x1B98 DUP5 SLOAD PUSH2 0x368F JUMP JUMPDEST PUSH1 0x1F DUP2 GT PUSH2 0x26EF JUMPI JUMPDEST POP DUP9 SWAP1 PUSH1 0x1F DUP4 GT PUSH1 0x1 EQ PUSH2 0x268C JUMPI PUSH0 SWAP3 PUSH2 0x2681 JUMPI JUMPDEST POP POP DUP2 PUSH1 0x1 SHL SWAP2 PUSH0 NOT SWAP1 PUSH1 0x3 SHL SHR NOT AND OR SWAP1 SSTORE JUMPDEST PUSH1 0x40 MLOAD DUP6 DUP2 DUP4 MLOAD DUP1 DUP8 DUP4 MCOPY DUP2 ADD PUSH1 0x4 DUP2 MSTORE SUB ADD SWAP1 KECCAK256 DUP3 MLOAD SWAP1 DUP2 MLOAD PUSH1 0x1 PUSH1 0x1 PUSH1 0x40 SHL SUB DUP2 GT PUSH2 0x33B JUMPI DUP8 SWAP3 PUSH2 0x1BFE DUP4 SLOAD PUSH2 0x368F JUMP JUMPDEST PUSH1 0x1F DUP2 GT PUSH2 0x262F JUMPI JUMPDEST POP DUP4 SWAP1 PUSH1 0x1F DUP4 GT PUSH1 0x1 EQ PUSH2 0x25C9 JUMPI PUSH1 0x1 SWAP4 SWAP3 SWAP2 PUSH0 SWAP2 DUP4 PUSH2 0x25BE JUMPI JUMPDEST POP POP PUSH0 NOT PUSH1 0x3 DUP4 SWAP1 SHL SHR NOT AND SWAP1 DUP4 SHL OR DUP2 SSTORE JUMPDEST ADD SWAP3 ADD MLOAD SWAP2 DUP3 MLOAD PUSH1 0x1 PUSH1 0x1 PUSH1 0x40 SHL SUB DUP2 GT PUSH2 0x33B JUMPI DUP7 SWAP4 PUSH2 0x1C56 DUP4 SLOAD PUSH2 0x368F JUMP JUMPDEST PUSH1 0x1F DUP2 GT PUSH2 0x256A JUMPI JUMPDEST POP DUP2 SWAP1 DUP6 SWAP1 PUSH1 0x1F DUP4 GT PUSH1 0x1 EQ PUSH2 0x2507 JUMPI PUSH0 SWAP3 PUSH2 0x24FC JUMPI JUMPDEST POP POP DUP2 PUSH1 0x1 SHL SWAP2 PUSH0 NOT SWAP1 PUSH1 0x3 SHL SHR NOT AND OR SWAP1 SSTORE JUMPDEST PUSH1 0x40 MLOAD SWAP3 DUP4 SWAP2 MLOAD DUP1 SWAP2 DUP4 MCOPY DUP2 ADD PUSH1 0x5 DUP2 MSTORE SUB ADD SWAP1 KECCAK256 SWAP1 DUP1 MLOAD SWAP2 DUP3 MLOAD PUSH1 0x1 PUSH1 0x1 PUSH1 0x40 SHL SUB DUP2 GT PUSH2 0x33B JUMPI PUSH2 0x1CBD DUP3 SLOAD PUSH2 0x368F JUMP JUMPDEST PUSH1 0x1F DUP2 GT PUSH2 0x24B9 JUMPI JUMPDEST POP DUP5 SWAP4 PUSH1 0x1F DUP3 GT PUSH1 0x1 EQ PUSH2 0x2459 JUMPI SWAP4 DUP2 SWAP3 SWAP4 SWAP5 PUSH0 SWAP3 PUSH2 0x244E JUMPI JUMPDEST POP POP DUP2 PUSH1 0x1 SHL SWAP2 PUSH0 NOT SWAP1 PUSH1 0x3 SHL SHR NOT AND OR DUP2 SSTORE JUMPDEST PUSH1 0x1 DUP2 ADD DUP4 DUP4 ADD MLOAD DUP1 MLOAD SWAP1 PUSH1 0x1 PUSH1 0x1 PUSH1 0x40 SHL SUB DUP3 GT PUSH2 0x33B JUMPI DUP2 SWAP1 PUSH2 0x1D19 DUP5 SLOAD PUSH2 0x368F JUMP JUMPDEST PUSH1 0x1F DUP2 GT PUSH2 0x2400 JUMPI JUMPDEST POP DUP7 SWAP1 PUSH1 0x1F DUP4 GT PUSH1 0x1 EQ PUSH2 0x239D JUMPI PUSH0 SWAP3 PUSH2 0x2392 JUMPI JUMPDEST POP POP DUP2 PUSH1 0x1 SHL SWAP2 PUSH0 NOT SWAP1 PUSH1 0x3 SHL SHR NOT AND OR SWAP1 SSTORE JUMPDEST PUSH1 0x2 DUP2 ADD PUSH1 0x40 DUP4 ADD MLOAD DUP1 MLOAD SWAP1 PUSH1 0x1 PUSH1 0x1 PUSH1 0x40 SHL SUB DUP3 GT PUSH2 0x33B JUMPI DUP2 SWAP1 PUSH2 0x1D71 DUP5 SLOAD PUSH2 0x368F JUMP JUMPDEST PUSH1 0x1F DUP2 GT PUSH2 0x2344 JUMPI JUMPDEST POP DUP7 SWAP1 PUSH1 0x1F DUP4 GT PUSH1 0x1 EQ PUSH2 0x22E1 JUMPI PUSH0 SWAP3 PUSH2 0x22D6 JUMPI JUMPDEST POP POP DUP2 PUSH1 0x1 SHL SWAP2 PUSH0 NOT SWAP1 PUSH1 0x3 SHL SHR NOT AND OR SWAP1 SSTORE JUMPDEST PUSH1 0x3 DUP2 ADD PUSH1 0x60 DUP4 ADD MLOAD DUP1 MLOAD SWAP1 PUSH1 0x1 PUSH1 0x1 PUSH1 0x40 SHL SUB DUP3 GT PUSH2 0x33B JUMPI DUP2 SWAP1 PUSH2 0x1DC9 DUP5 SLOAD PUSH2 0x368F JUMP JUMPDEST PUSH1 0x1F DUP2 GT PUSH2 0x2288 JUMPI JUMPDEST POP DUP7 SWAP1 PUSH1 0x1F DUP4 GT PUSH1 0x1 EQ PUSH2 0x2225 JUMPI PUSH0 SWAP3 PUSH2 0x221A JUMPI JUMPDEST POP POP DUP2 PUSH1 0x1 SHL SWAP2 PUSH0 NOT SWAP1 PUSH1 0x3 SHL SHR NOT AND OR SWAP1 SSTORE JUMPDEST PUSH1 0x4 DUP2 ADD PUSH1 0x80 DUP4 ADD MLOAD DUP1 MLOAD SWAP1 PUSH1 0x1 PUSH1 0x1 PUSH1 0x40 SHL SUB DUP3 GT PUSH2 0x33B JUMPI DUP2 SWAP1 PUSH2 0x1E21 DUP5 SLOAD PUSH2 0x368F JUMP JUMPDEST PUSH1 0x1F DUP2 GT PUSH2 0x21CC JUMPI JUMPDEST POP DUP7 SWAP1 PUSH1 0x1F DUP4 GT PUSH1 0x1 EQ PUSH2 0x2169 JUMPI PUSH0 SWAP3 PUSH2 0x215E JUMPI JUMPDEST POP POP DUP2 PUSH1 0x1 SHL SWAP2 PUSH0 NOT SWAP1 PUSH1 0x3 SHL SHR NOT AND OR SWAP1 SSTORE JUMPDEST PUSH1 0x5 DUP2 ADD PUSH1 0xA0 DUP4 ADD MLOAD DUP1 MLOAD SWAP1 PUSH1 0x1 PUSH1 0x1 PUSH1 0x40 SHL SUB DUP3 GT PUSH2 0x33B JUMPI DUP2 SWAP1 PUSH2 0x1E79 DUP5 SLOAD PUSH2 0x368F JUMP JUMPDEST PUSH1 0x1F DUP2 GT PUSH2 0x2110 JUMPI JUMPDEST POP DUP7 SWAP1 PUSH1 0x1F DUP4 GT PUSH1 0x1 EQ PUSH2 0x20AD JUMPI PUSH0 SWAP3 PUSH2 0x20A2 JUMPI JUMPDEST POP POP DUP2 PUSH1 0x1 SHL SWAP2 PUSH0 NOT SWAP1 PUSH1 0x3 SHL SHR NOT AND OR SWAP1 SSTORE JUMPDEST PUSH1 0x6 DUP2 ADD PUSH1 0xC0 DUP4 ADD MLOAD DUP1 MLOAD SWAP1 PUSH1 0x1 PUSH1 0x1 PUSH1 0x40 SHL SUB DUP3 GT PUSH2 0x33B JUMPI PUSH2 0x1ECF DUP4 SLOAD PUSH2 0x368F JUMP JUMPDEST PUSH1 0x1F DUP2 GT PUSH2 0x205F JUMPI JUMPDEST POP DUP6 SWAP1 PUSH1 0x1F DUP4 GT PUSH1 0x1 EQ PUSH2 0x1FF6 JUMPI SWAP2 DUP1 PUSH1 0x7 SWAP5 SWAP3 PUSH1 0xE0 SWAP7 SWAP5 PUSH0 SWAP3 PUSH2 0x1FEB JUMPI JUMPDEST POP POP DUP2 PUSH1 0x1 SHL SWAP2 PUSH0 NOT SWAP1 PUSH1 0x3 SHL SHR NOT AND OR SWAP1 SSTORE JUMPDEST ADD SWAP2 ADD MLOAD SWAP2 DUP3 MLOAD SWAP1 PUSH1 0x1 PUSH1 0x1 PUSH1 0x40 SHL SUB DUP3 GT PUSH2 0x33B JUMPI PUSH2 0x1F2B DUP4 SLOAD PUSH2 0x368F JUMP JUMPDEST PUSH1 0x1F DUP2 GT PUSH2 0x1FA8 JUMPI JUMPDEST POP DUP1 PUSH1 0x1F DUP4 GT PUSH1 0x1 EQ PUSH2 0x1F62 JUMPI POP DUP2 SWAP3 SWAP4 PUSH0 SWAP3 PUSH2 0x28F JUMPI POP POP PUSH0 NOT PUSH1 0x3 DUP4 SWAP1 SHL SHR NOT AND PUSH1 0x1 SWAP2 SWAP1 SWAP2 SHL OR SWAP1 SSTORE STOP JUMPDEST SWAP1 PUSH1 0x1F NOT DUP4 AND SWAP5 DUP5 PUSH0 MSTORE DUP3 PUSH0 KECCAK256 SWAP3 PUSH0 SWAP1 JUMPDEST DUP8 DUP3 LT PUSH2 0x1F90 JUMPI POP POP DUP4 PUSH1 0x1 SWAP6 SWAP7 LT PUSH2 0x2C6 JUMPI POP POP POP DUP2 SHL ADD SWAP1 SSTORE STOP JUMPDEST DUP1 PUSH1 0x1 DUP6 SWAP7 DUP3 SWAP5 SWAP7 DUP7 ADD MLOAD DUP2 SSTORE ADD SWAP6 ADD SWAP4 ADD SWAP1 PUSH2 0x1F73 JUMP JUMPDEST DUP4 PUSH0 MSTORE DUP2 PUSH0 KECCAK256 PUSH1 0x1F DUP5 ADD PUSH1 0x5 SHR DUP2 ADD SWAP2 DUP4 DUP6 LT PUSH2 0x1FE1 JUMPI JUMPDEST PUSH1 0x1F ADD PUSH1 0x5 SHR ADD SWAP1 JUMPDEST DUP2 DUP2 LT PUSH2 0x1FD6 JUMPI POP PUSH2 0x1F34 JUMP JUMPDEST PUSH0 DUP2 SSTORE PUSH1 0x1 ADD PUSH2 0x1FC9 JUMP JUMPDEST SWAP1 SWAP2 POP DUP2 SWAP1 PUSH2 0x1FC0 JUMP JUMPDEST ADD MLOAD SWAP1 POP DUP9 DUP1 PUSH2 0x1EF7 JUMP JUMPDEST SWAP1 PUSH1 0x1F NOT DUP4 AND SWAP2 DUP5 PUSH0 MSTORE DUP8 PUSH0 KECCAK256 SWAP3 PUSH0 JUMPDEST DUP10 DUP3 DUP3 LT PUSH2 0x2049 JUMPI POP POP SWAP3 PUSH1 0x1 SWAP3 DUP6 SWAP3 PUSH1 0xE0 SWAP9 SWAP7 PUSH1 0x7 SWAP9 SWAP7 LT PUSH2 0x2031 JUMPI JUMPDEST POP POP POP DUP2 SHL ADD SWAP1 SSTORE PUSH2 0x1F0B JUMP JUMPDEST ADD MLOAD PUSH0 NOT PUSH1 0xF8 DUP5 PUSH1 0x3 SHL AND SHR NOT AND SWAP1 SSTORE DUP9 DUP1 DUP1 PUSH2 0x2024 JUMP JUMPDEST PUSH1 0x1 DUP6 SWAP7 DUP3 SWAP4 SWAP7 DUP7 ADD MLOAD DUP2 SSTORE ADD SWAP6 ADD SWAP4 ADD PUSH2 0x2006 JUMP JUMPDEST DUP4 PUSH0 MSTORE DUP7 PUSH0 KECCAK256 PUSH1 0x1F DUP5 ADD PUSH1 0x5 SHR DUP2 ADD SWAP2 DUP9 DUP6 LT PUSH2 0x2098 JUMPI JUMPDEST PUSH1 0x1F ADD PUSH1 0x5 SHR ADD SWAP1 JUMPDEST DUP2 DUP2 LT PUSH2 0x208D JUMPI POP PUSH2 0x1ED8 JUMP JUMPDEST PUSH0 DUP2 SSTORE PUSH1 0x1 ADD PUSH2 0x2080 JUMP JUMPDEST SWAP1 SWAP2 POP DUP2 SWAP1 PUSH2 0x2077 JUMP JUMPDEST ADD MLOAD SWAP1 POP DUP7 DUP1 PUSH2 0x1E97 JUMP JUMPDEST PUSH0 DUP6 DUP2 MSTORE DUP9 DUP2 KECCAK256 SWAP4 POP PUSH1 0x1F NOT DUP6 AND SWAP1 JUMPDEST DUP10 DUP3 DUP3 LT PUSH2 0x20FA JUMPI POP POP SWAP1 DUP5 PUSH1 0x1 SWAP6 SWAP5 SWAP4 SWAP3 LT PUSH2 0x20E2 JUMPI JUMPDEST POP POP POP DUP2 SHL ADD SWAP1 SSTORE PUSH2 0x1EAB JUMP JUMPDEST ADD MLOAD PUSH0 NOT PUSH1 0xF8 DUP5 PUSH1 0x3 SHL AND SHR NOT AND SWAP1 SSTORE DUP7 DUP1 DUP1 PUSH2 0x20D5 JUMP JUMPDEST PUSH1 0x1 DUP6 SWAP7 DUP3 SWAP4 SWAP7 DUP7 ADD MLOAD DUP2 SSTORE ADD SWAP6 ADD SWAP4 ADD PUSH2 0x20BD JUMP JUMPDEST SWAP1 SWAP2 POP DUP4 PUSH0 MSTORE DUP7 PUSH0 KECCAK256 PUSH1 0x1F DUP5 ADD PUSH1 0x5 SHR DUP2 ADD SWAP2 DUP9 DUP6 LT PUSH2 0x2154 JUMPI JUMPDEST SWAP1 PUSH1 0x1F DUP6 SWAP5 SWAP4 SWAP3 ADD PUSH1 0x5 SHR ADD SWAP1 JUMPDEST DUP2 DUP2 LT PUSH2 0x2146 JUMPI POP PUSH2 0x1E82 JUMP JUMPDEST PUSH0 DUP2 SSTORE DUP5 SWAP4 POP PUSH1 0x1 ADD PUSH2 0x2139 JUMP JUMPDEST SWAP1 SWAP2 POP DUP2 SWAP1 PUSH2 0x212B JUMP JUMPDEST ADD MLOAD SWAP1 POP DUP7 DUP1 PUSH2 0x1E3F JUMP JUMPDEST PUSH0 DUP6 DUP2 MSTORE DUP9 DUP2 KECCAK256 SWAP4 POP PUSH1 0x1F NOT DUP6 AND SWAP1 JUMPDEST DUP10 DUP3 DUP3 LT PUSH2 0x21B6 JUMPI POP POP SWAP1 DUP5 PUSH1 0x1 SWAP6 SWAP5 SWAP4 SWAP3 LT PUSH2 0x219E JUMPI JUMPDEST POP POP POP DUP2 SHL ADD SWAP1 SSTORE PUSH2 0x1E53 JUMP JUMPDEST ADD MLOAD PUSH0 NOT PUSH1 0xF8 DUP5 PUSH1 0x3 SHL AND SHR NOT AND SWAP1 SSTORE DUP7 DUP1 DUP1 PUSH2 0x2191 JUMP JUMPDEST PUSH1 0x1 DUP6 SWAP7 DUP3 SWAP4 SWAP7 DUP7 ADD MLOAD DUP2 SSTORE ADD SWAP6 ADD SWAP4 ADD PUSH2 0x2179 JUMP JUMPDEST SWAP1 SWAP2 POP DUP4 PUSH0 MSTORE DUP7 PUSH0 KECCAK256 PUSH1 0x1F DUP5 ADD PUSH1 0x5 SHR DUP2 ADD SWAP2 DUP9 DUP6 LT PUSH2 0x2210 JUMPI JUMPDEST SWAP1 PUSH1 0x1F DUP6 SWAP5 SWAP4 SWAP3 ADD PUSH1 0x5 SHR ADD SWAP1 JUMPDEST DUP2 DUP2 LT PUSH2 0x2202 JUMPI POP PUSH2 0x1E2A JUMP JUMPDEST PUSH0 DUP2 SSTORE DUP5 SWAP4 POP PUSH1 0x1 ADD PUSH2 0x21F5 JUMP JUMPDEST SWAP1 SWAP2 POP DUP2 SWAP1 PUSH2 0x21E7 JUMP JUMPDEST ADD MLOAD SWAP1 POP DUP7 DUP1 PUSH2 0x1DE7 JUMP JUMPDEST PUSH0 DUP6 DUP2 MSTORE DUP9 DUP2 KECCAK256 SWAP4 POP PUSH1 0x1F NOT DUP6 AND SWAP1 JUMPDEST DUP10 DUP3 DUP3 LT PUSH2 0x2272 JUMPI POP POP SWAP1 DUP5 PUSH1 0x1 SWAP6 SWAP5 SWAP4 SWAP3 LT PUSH2 0x225A JUMPI JUMPDEST POP POP POP DUP2 SHL ADD SWAP1 SSTORE PUSH2 0x1DFB JUMP JUMPDEST ADD MLOAD PUSH0 NOT PUSH1 0xF8 DUP5 PUSH1 0x3 SHL AND SHR NOT AND SWAP1 SSTORE DUP7 DUP1 DUP1 PUSH2 0x224D JUMP JUMPDEST PUSH1 0x1 DUP6 SWAP7 DUP3 SWAP4 SWAP7 DUP7 ADD MLOAD DUP2 SSTORE ADD SWAP6 ADD SWAP4 ADD PUSH2 0x2235 JUMP JUMPDEST SWAP1 SWAP2 POP DUP4 PUSH0 MSTORE DUP7 PUSH0 KECCAK256 PUSH1 0x1F DUP5 ADD PUSH1 0x5 SHR DUP2 ADD SWAP2 DUP9 DUP6 LT PUSH2 0x22CC JUMPI JUMPDEST SWAP1 PUSH1 0x1F DUP6 SWAP5 SWAP4 SWAP3 ADD PUSH1 0x5 SHR ADD SWAP1 JUMPDEST DUP2 DUP2 LT PUSH2 0x22BE JUMPI POP PUSH2 0x1DD2 JUMP JUMPDEST PUSH0 DUP2 SSTORE DUP5 SWAP4 POP PUSH1 0x1 ADD PUSH2 0x22B1 JUMP JUMPDEST SWAP1 SWAP2 POP DUP2 SWAP1 PUSH2 0x22A3 JUMP JUMPDEST ADD MLOAD SWAP1 POP DUP7 DUP1 PUSH2 0x1D8F JUMP JUMPDEST PUSH0 DUP6 DUP2 MSTORE DUP9 DUP2 KECCAK256 SWAP4 POP PUSH1 0x1F NOT DUP6 AND SWAP1 JUMPDEST DUP10 DUP3 DUP3 LT PUSH2 0x232E JUMPI POP POP SWAP1 DUP5 PUSH1 0x1 SWAP6 SWAP5 SWAP4 SWAP3 LT PUSH2 0x2316 JUMPI JUMPDEST POP POP POP DUP2 SHL ADD SWAP1 SSTORE PUSH2 0x1DA3 JUMP JUMPDEST ADD MLOAD PUSH0 NOT PUSH1 0xF8 DUP5 PUSH1 0x3 SHL AND SHR NOT AND SWAP1 SSTORE DUP7 DUP1 DUP1 PUSH2 0x2309 JUMP JUMPDEST PUSH1 0x1 DUP6 SWAP7 DUP3 SWAP4 SWAP7 DUP7 ADD MLOAD DUP2 SSTORE ADD SWAP6 ADD SWAP4 ADD PUSH2 0x22F1 JUMP JUMPDEST SWAP1 SWAP2 POP DUP4 PUSH0 MSTORE DUP7 PUSH0 KECCAK256 PUSH1 0x1F DUP5 ADD PUSH1 0x5 SHR DUP2 ADD SWAP2 DUP9 DUP6 LT PUSH2 0x2388 JUMPI JUMPDEST SWAP1 PUSH1 0x1F DUP6 SWAP5 SWAP4 SWAP3 ADD PUSH1 0x5 SHR ADD SWAP1 JUMPDEST DUP2 DUP2 LT PUSH2 0x237A JUMPI POP PUSH2 0x1D7A JUMP JUMPDEST PUSH0 DUP2 SSTORE DUP5 SWAP4 POP PUSH1 0x1 ADD PUSH2 0x236D JUMP JUMPDEST SWAP1 SWAP2 POP DUP2 SWAP1 PUSH2 0x235F JUMP JUMPDEST ADD MLOAD SWAP1 POP DUP7 DUP1 PUSH2 0x1D37 JUMP JUMPDEST PUSH0 DUP6 DUP2 MSTORE DUP9 DUP2 KECCAK256 SWAP4 POP PUSH1 0x1F NOT DUP6 AND SWAP1 JUMPDEST DUP10 DUP3 DUP3 LT PUSH2 0x23EA JUMPI POP POP SWAP1 DUP5 PUSH1 0x1 SWAP6 SWAP5 SWAP4 SWAP3 LT PUSH2 0x23D2 JUMPI JUMPDEST POP POP POP DUP2 SHL ADD SWAP1 SSTORE PUSH2 0x1D4B JUMP JUMPDEST ADD MLOAD PUSH0 NOT PUSH1 0xF8 DUP5 PUSH1 0x3 SHL AND SHR NOT AND SWAP1 SSTORE DUP7 DUP1 DUP1 PUSH2 0x23C5 JUMP JUMPDEST PUSH1 0x1 DUP6 SWAP7 DUP3 SWAP4 SWAP7 DUP7 ADD MLOAD DUP2 SSTORE ADD SWAP6 ADD SWAP4 ADD PUSH2 0x23AD JUMP JUMPDEST SWAP1 SWAP2 POP DUP4 PUSH0 MSTORE DUP7 PUSH0 KECCAK256 PUSH1 0x1F DUP5 ADD PUSH1 0x5 SHR DUP2 ADD SWAP2 DUP9 DUP6 LT PUSH2 0x2444 JUMPI JUMPDEST SWAP1 PUSH1 0x1F DUP6 SWAP5 SWAP4 SWAP3 ADD PUSH1 0x5 SHR ADD SWAP1 JUMPDEST DUP2 DUP2 LT PUSH2 0x2436 JUMPI POP PUSH2 0x1D22 JUMP JUMPDEST PUSH0 DUP2 SSTORE DUP5 SWAP4 POP PUSH1 0x1 ADD PUSH2 0x2429 JUMP JUMPDEST SWAP1 SWAP2 POP DUP2 SWAP1 PUSH2 0x241B JUMP JUMPDEST ADD MLOAD SWAP1 POP DUP6 DUP1 PUSH2 0x1CE0 JUMP JUMPDEST PUSH1 0x1F NOT DUP3 AND SWAP5 DUP4 PUSH0 MSTORE DUP7 PUSH0 KECCAK256 SWAP2 PUSH0 JUMPDEST DUP9 DUP9 DUP3 LT PUSH2 0x24A3 JUMPI POP POP DUP4 PUSH1 0x1 SWAP6 SWAP7 SWAP8 LT PUSH2 0x248B JUMPI JUMPDEST POP POP POP DUP2 SHL ADD DUP2 SSTORE PUSH2 0x1CF4 JUMP JUMPDEST ADD MLOAD PUSH0 NOT PUSH1 0xF8 DUP5 PUSH1 0x3 SHL AND SHR NOT AND SWAP1 SSTORE DUP6 DUP1 DUP1 PUSH2 0x247E JUMP JUMPDEST PUSH1 0x1 DUP5 SWAP6 DUP3 SWAP4 SWAP6 DUP6 ADD MLOAD DUP2 SSTORE ADD SWAP5 ADD SWAP3 ADD PUSH2 0x2468 JUMP JUMPDEST DUP3 PUSH0 MSTORE DUP6 PUSH0 KECCAK256 PUSH1 0x1F DUP4 ADD PUSH1 0x5 SHR DUP2 ADD SWAP2 DUP8 DUP5 LT PUSH2 0x24F2 JUMPI JUMPDEST PUSH1 0x1F ADD PUSH1 0x5 SHR ADD SWAP1 JUMPDEST DUP2 DUP2 LT PUSH2 0x24E7 JUMPI POP PUSH2 0x1CC6 JUMP JUMPDEST PUSH0 DUP2 SSTORE PUSH1 0x1 ADD PUSH2 0x24DA JUMP JUMPDEST SWAP1 SWAP2 POP DUP2 SWAP1 PUSH2 0x24D1 JUMP JUMPDEST ADD MLOAD SWAP1 POP DUP9 DUP1 PUSH2 0x1C76 JUMP JUMPDEST PUSH0 DUP6 DUP2 MSTORE DUP8 DUP2 KECCAK256 SWAP4 POP PUSH1 0x1F NOT DUP6 AND SWAP1 JUMPDEST DUP9 DUP3 DUP3 LT PUSH2 0x2554 JUMPI POP POP SWAP1 DUP5 PUSH1 0x1 SWAP6 SWAP5 SWAP4 SWAP3 LT PUSH2 0x253C JUMPI JUMPDEST POP POP POP DUP2 SHL ADD SWAP1 SSTORE PUSH2 0x1C8A JUMP JUMPDEST ADD MLOAD PUSH0 NOT PUSH1 0xF8 DUP5 PUSH1 0x3 SHL AND SHR NOT AND SWAP1 SSTORE DUP9 DUP1 DUP1 PUSH2 0x252F JUMP JUMPDEST PUSH1 0x1 DUP6 SWAP7 DUP3 SWAP4 SWAP7 DUP7 ADD MLOAD DUP2 SSTORE ADD SWAP6 ADD SWAP4 ADD PUSH2 0x2517 JUMP JUMPDEST SWAP1 SWAP2 SWAP3 DUP1 SWAP5 SWAP6 POP PUSH0 MSTORE DUP8 PUSH0 KECCAK256 PUSH1 0x1F DUP5 ADD PUSH1 0x5 SHR DUP2 ADD SWAP2 DUP10 DUP6 LT PUSH2 0x25B4 JUMPI JUMPDEST SWAP1 PUSH1 0x1F DUP11 SWAP8 SWAP7 SWAP6 SWAP5 SWAP4 SWAP3 ADD PUSH1 0x5 SHR ADD SWAP1 JUMPDEST DUP2 DUP2 LT PUSH2 0x25A6 JUMPI POP PUSH2 0x1C5F JUMP JUMPDEST PUSH0 DUP2 SSTORE DUP10 SWAP7 POP PUSH1 0x1 ADD PUSH2 0x2599 JUMP JUMPDEST SWAP1 SWAP2 POP DUP2 SWAP1 PUSH2 0x2588 JUMP JUMPDEST ADD MLOAD SWAP1 POP DUP11 DUP1 PUSH2 0x1C22 JUMP JUMPDEST SWAP1 PUSH1 0x1F NOT DUP4 AND SWAP2 DUP5 PUSH0 MSTORE DUP6 PUSH0 KECCAK256 SWAP3 PUSH0 JUMPDEST DUP8 DUP3 DUP3 LT PUSH2 0x2619 JUMPI POP POP SWAP2 PUSH1 0x1 SWAP6 SWAP5 SWAP3 SWAP2 DUP4 DUP8 SWAP6 SWAP4 LT PUSH2 0x2601 JUMPI JUMPDEST POP POP POP DUP2 SHL ADD DUP2 SSTORE PUSH2 0x1C35 JUMP JUMPDEST ADD MLOAD PUSH0 NOT PUSH1 0xF8 DUP5 PUSH1 0x3 SHL AND SHR NOT AND SWAP1 SSTORE DUP11 DUP1 DUP1 PUSH2 0x25F4 JUMP JUMPDEST PUSH1 0x1 DUP6 SWAP7 DUP3 SWAP4 SWAP7 DUP7 ADD MLOAD DUP2 SSTORE ADD SWAP6 ADD SWAP4 ADD PUSH2 0x25D9 JUMP JUMPDEST SWAP1 SWAP2 SWAP3 DUP1 SWAP5 POP PUSH0 MSTORE DUP9 PUSH0 KECCAK256 PUSH1 0x1F DUP5 ADD PUSH1 0x5 SHR DUP2 ADD SWAP2 DUP11 DUP6 LT PUSH2 0x2677 JUMPI JUMPDEST SWAP1 PUSH1 0x1F DUP12 SWAP7 SWAP6 SWAP5 SWAP4 SWAP3 ADD PUSH1 0x5 SHR ADD SWAP1 JUMPDEST DUP2 DUP2 LT PUSH2 0x2669 JUMPI POP PUSH2 0x1C07 JUMP JUMPDEST PUSH0 DUP2 SSTORE DUP11 SWAP6 POP PUSH1 0x1 ADD PUSH2 0x265C JUMP JUMPDEST SWAP1 SWAP2 POP DUP2 SWAP1 PUSH2 0x264C JUMP JUMPDEST ADD MLOAD SWAP1 POP DUP9 DUP1 PUSH2 0x1BB6 JUMP JUMPDEST PUSH0 DUP6 DUP2 MSTORE DUP11 DUP2 KECCAK256 SWAP4 POP PUSH1 0x1F NOT DUP6 AND SWAP1 JUMPDEST DUP12 DUP3 DUP3 LT PUSH2 0x26D9 JUMPI POP POP SWAP1 DUP5 PUSH1 0x1 SWAP6 SWAP5 SWAP4 SWAP3 LT PUSH2 0x26C1 JUMPI JUMPDEST POP POP POP DUP2 SHL ADD SWAP1 SSTORE PUSH2 0x1BCA JUMP JUMPDEST ADD MLOAD PUSH0 NOT PUSH1 0xF8 DUP5 PUSH1 0x3 SHL AND SHR NOT AND SWAP1 SSTORE DUP9 DUP1 DUP1 PUSH2 0x26B4 JUMP JUMPDEST PUSH1 0x1 DUP6 SWAP7 DUP3 SWAP4 SWAP7 DUP7 ADD MLOAD DUP2 SSTORE ADD SWAP6 ADD SWAP4 ADD PUSH2 0x269C JUMP JUMPDEST SWAP1 SWAP2 POP DUP4 PUSH0 MSTORE DUP9 PUSH0 KECCAK256 PUSH1 0x1F DUP5 ADD PUSH1 0x5 SHR DUP2 ADD SWAP2 DUP11 DUP6 LT PUSH2 0x2733 JUMPI JUMPDEST SWAP1 PUSH1 0x1F DUP6 SWAP5 SWAP4 SWAP3 ADD PUSH1 0x5 SHR ADD SWAP1 JUMPDEST DUP2 DUP2 LT PUSH2 0x2725 JUMPI POP PUSH2 0x1BA1 JUMP JUMPDEST PUSH0 DUP2 SSTORE DUP5 SWAP4 POP PUSH1 0x1 ADD PUSH2 0x2718 JUMP JUMPDEST SWAP1 SWAP2 POP DUP2 SWAP1 PUSH2 0x270A JUMP JUMPDEST PUSH4 0x4E487B71 PUSH1 0xE0 SHL PUSH0 MSTORE PUSH1 0x21 PUSH1 0x4 MSTORE PUSH1 0x24 PUSH0 REVERT JUMPDEST ADD MLOAD SWAP1 POP DUP13 DUP1 PUSH2 0x1B2F JUMP JUMPDEST PUSH0 DUP7 DUP2 MSTORE DUP2 DUP2 KECCAK256 SWAP5 POP PUSH1 0x1F NOT DUP7 AND SWAP2 JUMPDEST DUP3 DUP3 LT PUSH2 0x27A8 JUMPI POP POP SWAP1 DUP5 PUSH1 0x1 SWAP6 SWAP5 SWAP4 SWAP3 LT PUSH2 0x2790 JUMPI JUMPDEST POP POP POP DUP2 SHL ADD SWAP1 SSTORE PUSH2 0x1B43 JUMP JUMPDEST ADD MLOAD PUSH0 NOT PUSH1 0xF8 DUP5 PUSH1 0x3 SHL AND SHR NOT AND SWAP1 SSTORE DUP13 DUP1 DUP1 PUSH2 0x2783 JUMP JUMPDEST DUP1 PUSH1 0x1 DUP7 SWAP8 DUP3 SWAP5 SWAP8 DUP8 ADD MLOAD DUP2 SSTORE ADD SWAP7 ADD SWAP5 ADD SWAP1 PUSH2 0x276C JUMP JUMPDEST SWAP1 SWAP2 SWAP3 POP DUP5 PUSH0 MSTORE DUP2 PUSH0 KECCAK256 SWAP1 PUSH1 0x1F DUP6 ADD PUSH1 0x5 SHR DUP3 ADD SWAP3 DUP6 LT PUSH2 0x2807 JUMPI JUMPDEST SWAP1 PUSH1 0x1F DUP6 SWAP5 SWAP4 SWAP3 ADD PUSH1 0x5 SHR ADD SWAP1 JUMPDEST DUP2 DUP2 LT PUSH2 0x27F9 JUMPI DUP15 SWAP2 POP PUSH2 0x1B17 JUMP JUMPDEST PUSH0 DUP2 SSTORE DUP5 SWAP4 POP PUSH1 0x1 ADD PUSH2 0x27EA JUMP JUMPDEST SWAP1 SWAP2 POP DUP2 SWAP1 PUSH2 0x27DC JUMP JUMPDEST ADD MLOAD SWAP1 POP DUP14 DUP1 PUSH2 0x1AD7 JUMP JUMPDEST PUSH0 DUP7 DUP2 MSTORE DUP2 DUP2 KECCAK256 SWAP5 POP PUSH1 0x1F NOT DUP7 AND SWAP2 JUMPDEST DUP3 DUP3 LT PUSH2 0x2868 JUMPI POP POP SWAP1 DUP5 PUSH1 0x1 SWAP6 SWAP5 SWAP4 SWAP3 LT PUSH2 0x2850 JUMPI JUMPDEST POP POP POP DUP2 SHL ADD SWAP1 SSTORE PUSH2 0x1AEB JUMP JUMPDEST ADD MLOAD PUSH0 NOT PUSH1 0xF8 DUP5 PUSH1 0x3 SHL AND SHR NOT AND SWAP1 SSTORE DUP14 DUP1 DUP1 PUSH2 0x2843 JUMP JUMPDEST DUP1 PUSH1 0x1 DUP7 SWAP8 DUP3 SWAP5 SWAP8 DUP8 ADD MLOAD DUP2 SSTORE ADD SWAP7 ADD SWAP5 ADD SWAP1 PUSH2 0x282C JUMP JUMPDEST SWAP1 SWAP3 POP DUP5 PUSH0 MSTORE DUP2 PUSH0 KECCAK256 SWAP1 PUSH1 0x1F DUP6 ADD PUSH1 0x5 SHR DUP3 ADD SWAP3 DUP6 LT PUSH2 0x28CE JUMPI JUMPDEST SWAP2 DUP16 SWAP3 SWAP2 PUSH1 0x1F DUP7 SWAP6 SWAP4 ADD PUSH1 0x5 SHR ADD SWAP1 JUMPDEST DUP2 DUP2 LT PUSH2 0x28B8 JUMPI POP PUSH2 0x1AC2 JUMP JUMPDEST SWAP1 SWAP3 POP PUSH1 0x1 SWAP2 SWAP4 POP PUSH0 DUP2 SSTORE ADD SWAP2 DUP15 SWAP2 DUP5 SWAP4 PUSH2 0x28AB JUMP JUMPDEST SWAP1 SWAP2 POP DUP2 SWAP1 PUSH2 0x289B JUMP JUMPDEST ADD MLOAD SWAP1 POP DUP14 DUP1 PUSH2 0x1A82 JUMP JUMPDEST PUSH0 DUP10 DUP2 MSTORE DUP2 DUP2 KECCAK256 SWAP5 POP PUSH1 0x1F NOT DUP7 AND SWAP2 JUMPDEST DUP3 DUP3 LT PUSH2 0x292F JUMPI POP POP SWAP1 DUP5 PUSH1 0x1 SWAP6 SWAP5 SWAP4 SWAP3 LT PUSH2 0x2917 JUMPI JUMPDEST POP POP POP DUP2 SHL ADD DUP5 SSTORE PUSH2 0x1A96 JUMP JUMPDEST ADD MLOAD PUSH0 NOT PUSH1 0xF8 DUP5 PUSH1 0x3 SHL AND SHR NOT AND SWAP1 SSTORE DUP14 DUP1 DUP1 PUSH2 0x290A JUMP JUMPDEST DUP1 PUSH1 0x1 DUP7 SWAP8 DUP3 SWAP5 SWAP8 DUP8 ADD MLOAD DUP2 SSTORE ADD SWAP7 ADD SWAP5 ADD SWAP1 PUSH2 0x28F3 JUMP JUMPDEST SWAP1 SWAP3 POP DUP8 PUSH0 MSTORE DUP2 PUSH0 KECCAK256 SWAP1 PUSH1 0x1F DUP6 ADD PUSH1 0x5 SHR DUP3 ADD SWAP3 DUP6 LT PUSH2 0x2995 JUMPI JUMPDEST SWAP2 DUP16 SWAP3 SWAP2 PUSH1 0x1F DUP7 SWAP6 SWAP4 ADD PUSH1 0x5 SHR ADD SWAP1 JUMPDEST DUP2 DUP2 LT PUSH2 0x297F JUMPI POP PUSH2 0x1A6D JUMP JUMPDEST SWAP1 SWAP3 POP PUSH1 0x1 SWAP2 SWAP4 POP PUSH0 DUP2 SSTORE ADD SWAP2 DUP15 SWAP2 DUP5 SWAP4 PUSH2 0x2972 JUMP JUMPDEST SWAP1 SWAP2 POP DUP2 SWAP1 PUSH2 0x2962 JUMP JUMPDEST PUSH4 0x4E487B71 PUSH1 0xE0 SHL PUSH0 MSTORE PUSH0 PUSH1 0x4 MSTORE PUSH1 0x24 PUSH0 REVERT JUMPDEST ADD MLOAD SWAP1 POP DUP16 DUP1 PUSH2 0x19A3 JUMP JUMPDEST SWAP2 SWAP1 PUSH1 0x1F NOT DUP5 AND DUP6 PUSH0 MSTORE DUP4 PUSH0 KECCAK256 SWAP4 PUSH0 SWAP1 JUMPDEST DUP3 DUP3 LT PUSH2 0x2A11 JUMPI POP POP SWAP4 PUSH1 0xFF SWAP7 SWAP4 PUSH1 0x2 SWAP7 SWAP4 PUSH1 0x1 SWAP4 DUP4 DUP11 SWAP9 LT PUSH2 0x29F9 JUMPI JUMPDEST POP POP POP DUP2 SHL ADD SWAP1 SSTORE PUSH2 0x19B7 JUMP JUMPDEST ADD MLOAD PUSH0 NOT PUSH1 0xF8 DUP5 PUSH1 0x3 SHL AND SHR NOT AND SWAP1 SSTORE DUP16 DUP1 DUP1 PUSH2 0x29EC JUMP JUMPDEST DUP1 PUSH1 0x1 DUP7 SWAP8 DUP3 SWAP5 SWAP8 DUP8 ADD MLOAD DUP2 SSTORE ADD SWAP7 ADD SWAP5 ADD SWAP1 PUSH2 0x29CE JUMP JUMPDEST DUP5 PUSH0 MSTORE DUP2 PUSH0 KECCAK256 SWAP1 PUSH1 0x1F DUP6 ADD PUSH1 0x5 SHR DUP3 ADD SWAP3 DUP6 LT PUSH2 0x2A64 JUMPI JUMPDEST PUSH1 0x1F ADD PUSH1 0x5 SHR ADD SWAP1 JUMPDEST DUP2 DUP2 LT PUSH2 0x2A59 JUMPI DUP14 SWAP2 POP PUSH2 0x197F JUMP JUMPDEST PUSH0 DUP2 SSTORE PUSH1 0x1 ADD PUSH2 0x2A4A JUMP JUMPDEST SWAP1 SWAP2 POP DUP2 SWAP1 PUSH2 0x2A41 JUMP JUMPDEST ADD MLOAD SWAP1 POP DUP13 DUP1 PUSH2 0x1941 JUMP JUMPDEST PUSH0 DUP9 DUP2 MSTORE DUP2 DUP2 KECCAK256 SWAP5 POP PUSH1 0x1F NOT DUP7 AND SWAP2 JUMPDEST DUP3 DUP3 LT PUSH2 0x2AC5 JUMPI POP POP SWAP1 DUP5 PUSH1 0x1 SWAP6 SWAP5 SWAP4 SWAP3 LT PUSH2 0x2AAD JUMPI JUMPDEST POP POP POP DUP2 SHL ADD DUP4 SSTORE PUSH2 0x1955 JUMP JUMPDEST ADD MLOAD PUSH0 NOT PUSH1 0xF8 DUP5 PUSH1 0x3 SHL AND SHR NOT AND SWAP1 SSTORE DUP13 DUP1 DUP1 PUSH2 0x2AA0 JUMP JUMPDEST DUP1 PUSH1 0x1 DUP7 SWAP8 DUP3 SWAP5 SWAP8 DUP8 ADD MLOAD DUP2 SSTORE ADD SWAP7 ADD SWAP5 ADD SWAP1 PUSH2 0x2A89 JUMP JUMPDEST SWAP1 SWAP2 SWAP3 POP DUP7 PUSH0 MSTORE DUP2 PUSH0 KECCAK256 SWAP1 PUSH1 0x1F DUP6 ADD PUSH1 0x5 SHR DUP3 ADD SWAP3 DUP6 LT PUSH2 0x2B24 JUMPI JUMPDEST SWAP1 PUSH1 0x1F DUP6 SWAP5 SWAP4 SWAP3 ADD PUSH1 0x5 SHR ADD SWAP1 JUMPDEST DUP2 DUP2 LT PUSH2 0x2B16 JUMPI DUP15 SWAP2 POP PUSH2 0x1929 JUMP JUMPDEST PUSH0 DUP2 SSTORE DUP5 SWAP4 POP PUSH1 0x1 ADD PUSH2 0x2B07 JUMP JUMPDEST SWAP1 SWAP2 POP DUP2 SWAP1 PUSH2 0x2AF9 JUMP JUMPDEST CALLVALUE PUSH2 0x1A7 JUMPI PUSH1 0x20 CALLDATASIZE PUSH1 0x3 NOT ADD SLT PUSH2 0x1A7 JUMPI PUSH1 0x4 CALLDATALOAD PUSH1 0x1 PUSH1 0x1 PUSH1 0x40 SHL SUB DUP2 GT PUSH2 0x1A7 JUMPI PUSH2 0x2B5E SWAP1 CALLDATASIZE SWAP1 PUSH1 0x4 ADD PUSH2 0x35C2 JUMP JUMPDEST PUSH1 0x40 MLOAD DUP2 DUP2 SWAP3 MLOAD PUSH1 0x20 DUP2 SWAP3 ADD DUP4 MCOPY DUP2 ADD PUSH1 0x5 DUP2 MSTORE SUB PUSH1 0x20 ADD SWAP1 KECCAK256 PUSH2 0x2B81 DUP2 PUSH2 0x36C7 JUMP JUMPDEST PUSH2 0x2B8D PUSH1 0x1 DUP4 ADD PUSH2 0x36C7 JUMP JUMPDEST SWAP2 PUSH2 0x2B9A PUSH1 0x2 DUP3 ADD PUSH2 0x36C7 JUMP JUMPDEST SWAP1 PUSH2 0x2BA7 PUSH1 0x3 DUP3 ADD PUSH2 0x36C7 JUMP JUMPDEST PUSH2 0x2BB3 PUSH1 0x4 DUP4 ADD PUSH2 0x36C7 JUMP JUMPDEST PUSH2 0x2BBF PUSH1 0x5 DUP5 ADD PUSH2 0x36C7 JUMP JUMPDEST SWAP2 PUSH2 0x2BCC PUSH1 0x6 DUP6 ADD PUSH2 0x36C7 JUMP JUMPDEST SWAP4 PUSH1 0x7 ADD PUSH2 0x2BD9 SWAP1 PUSH2 0x36C7 JUMP JUMPDEST SWAP5 PUSH1 0x40 MLOAD SWAP8 DUP9 SWAP8 PUSH2 0x100 DUP10 MSTORE PUSH2 0x100 DUP10 ADD PUSH2 0x2BF3 SWAP2 PUSH2 0x3617 JUMP JUMPDEST DUP9 DUP2 SUB PUSH1 0x20 DUP11 ADD MSTORE PUSH2 0x2C04 SWAP2 PUSH2 0x3617 JUMP JUMPDEST DUP8 DUP2 SUB PUSH1 0x40 DUP10 ADD MSTORE PUSH2 0x2C15 SWAP2 PUSH2 0x3617 JUMP JUMPDEST DUP7 DUP2 SUB PUSH1 0x60 DUP9 ADD MSTORE PUSH2 0x2C26 SWAP2 PUSH2 0x3617 JUMP JUMPDEST DUP6 DUP2 SUB PUSH1 0x80 DUP8 ADD MSTORE PUSH2 0x2C37 SWAP2 PUSH2 0x3617 JUMP JUMPDEST DUP5 DUP2 SUB PUSH1 0xA0 DUP7 ADD MSTORE PUSH2 0x2C48 SWAP2 PUSH2 0x3617 JUMP JUMPDEST DUP4 DUP2 SUB PUSH1 0xC0 DUP6 ADD MSTORE PUSH2 0x2C59 SWAP2 PUSH2 0x3617 JUMP JUMPDEST DUP3 DUP2 SUB PUSH1 0xE0 DUP5 ADD MSTORE PUSH2 0x3AF SWAP2 PUSH2 0x3617 JUMP JUMPDEST CALLVALUE PUSH2 0x1A7 JUMPI PUSH1 0x20 CALLDATASIZE PUSH1 0x3 NOT ADD SLT PUSH2 0x1A7 JUMPI PUSH1 0x4 CALLDATALOAD PUSH1 0x2 SLOAD DUP2 LT ISZERO PUSH2 0x1A7 JUMPI PUSH2 0x2C94 PUSH2 0x2CE9 SWAP2 PUSH2 0x37B3 JUMP JUMPDEST POP PUSH2 0x3AF PUSH2 0x2CA1 DUP3 PUSH2 0x36C7 JUMP JUMPDEST SWAP2 PUSH2 0x2CAE PUSH1 0x1 DUP3 ADD PUSH2 0x36C7 JUMP JUMPDEST PUSH2 0x2D1F PUSH2 0x2D05 PUSH2 0x2CC0 PUSH1 0x2 DUP6 ADD PUSH2 0x36C7 JUMP JUMPDEST PUSH2 0x2CF7 PUSH2 0x2CD4 PUSH1 0x4 PUSH1 0x3 DUP9 ADD SLOAD SWAP8 ADD PUSH2 0x36C7 JUMP JUMPDEST SWAP5 PUSH1 0x40 MLOAD SWAP10 DUP11 SWAP10 PUSH1 0xC0 DUP12 MSTORE PUSH1 0xC0 DUP12 ADD SWAP1 PUSH2 0x3617 JUMP JUMPDEST SWAP1 DUP10 DUP3 SUB PUSH1 0x20 DUP12 ADD MSTORE PUSH2 0x3617 JUMP JUMPDEST SWAP1 DUP8 DUP3 SUB PUSH1 0x40 DUP10 ADD MSTORE PUSH2 0x3617 JUMP JUMPDEST SWAP3 PUSH1 0xFF DUP2 AND PUSH1 0x60 DUP8 ADD MSTORE PUSH1 0xFF PUSH1 0x80 DUP8 ADD SWAP2 PUSH1 0x8 SHR AND PUSH2 0x37A6 JUMP JUMPDEST DUP4 DUP3 SUB PUSH1 0xA0 DUP6 ADD MSTORE PUSH2 0x3617 JUMP JUMPDEST CALLVALUE PUSH2 0x1A7 JUMPI PUSH1 0x20 CALLDATASIZE PUSH1 0x3 NOT ADD SLT PUSH2 0x1A7 JUMPI PUSH1 0x4 CALLDATALOAD PUSH1 0x1 PUSH1 0x1 PUSH1 0x40 SHL SUB DUP2 GT PUSH2 0x1A7 JUMPI PUSH1 0x20 DUP1 PUSH2 0x2D62 PUSH2 0x2DDB SWAP4 CALLDATASIZE SWAP1 PUSH1 0x4 ADD PUSH2 0x35C2 JUMP JUMPDEST PUSH1 0x40 MLOAD SWAP3 DUP2 DUP5 SWAP3 MLOAD SWAP2 DUP3 SWAP2 ADD DUP4 MCOPY DUP2 ADD PUSH0 DUP2 MSTORE SUB ADD SWAP1 KECCAK256 PUSH2 0x3AF PUSH1 0xFF DUP3 SLOAD AND SWAP2 PUSH2 0x2E1B PUSH1 0x1 DUP3 ADD SLOAD SWAP2 PUSH2 0x2E0C PUSH1 0x2 DUP3 ADD SLOAD PUSH1 0x3 DUP4 ADD SLOAD PUSH1 0x4 DUP5 ADD SLOAD PUSH1 0x5 DUP6 ADD SLOAD SWAP1 PUSH1 0x6 DUP7 ADD SLOAD SWAP3 PUSH2 0x2DB5 PUSH1 0x7 DUP9 ADD PUSH2 0x3767 JUMP JUMPDEST SWAP5 PUSH2 0x2DCE PUSH1 0xD PUSH2 0x2DC7 PUSH1 0xA DUP12 ADD PUSH2 0x3767 JUMP JUMPDEST SWAP10 ADD PUSH2 0x36C7 JUMP JUMPDEST SWAP10 PUSH1 0x40 MLOAD SWAP14 DUP15 DUP1 SWAP15 PUSH2 0x37A6 JUMP JUMPDEST PUSH1 0x20 DUP14 ADD MSTORE PUSH1 0x40 DUP13 ADD MSTORE PUSH1 0x60 DUP12 ADD MSTORE PUSH1 0x80 DUP11 ADD MSTORE PUSH1 0xA0 DUP10 ADD MSTORE PUSH1 0xC0 DUP9 ADD MSTORE PUSH2 0x140 PUSH1 0xE0 DUP9 ADD MSTORE PUSH2 0x140 DUP8 ADD SWAP1 PUSH2 0x363B JUMP JUMPDEST SWAP1 DUP6 DUP3 SUB PUSH2 0x100 DUP8 ADD MSTORE PUSH2 0x363B JUMP JUMPDEST SWAP1 DUP4 DUP3 SUB PUSH2 0x120 DUP6 ADD MSTORE PUSH2 0x3617 JUMP JUMPDEST CALLVALUE PUSH2 0x1A7 JUMPI PUSH1 0x60 CALLDATASIZE PUSH1 0x3 NOT ADD SLT PUSH2 0x1A7 JUMPI PUSH1 0x4 CALLDATALOAD PUSH1 0x1 PUSH1 0x1 PUSH1 0x40 SHL SUB DUP2 GT PUSH2 0x1A7 JUMPI PUSH2 0x2E5A SWAP1 CALLDATASIZE SWAP1 PUSH1 0x4 ADD PUSH2 0x35C2 JUMP JUMPDEST PUSH1 0x24 CALLDATALOAD PUSH1 0x1 PUSH1 0x1 PUSH1 0x40 SHL SUB DUP2 GT PUSH2 0x1A7 JUMPI PUSH2 0x2E79 SWAP1 CALLDATASIZE SWAP1 PUSH1 0x4 ADD PUSH2 0x35C2 JUMP JUMPDEST SWAP1 PUSH1 0x44 CALLDATALOAD PUSH1 0x1 PUSH1 0x1 PUSH1 0xA0 SHL SUB DUP2 AND DUP2 SUB PUSH2 0x1A7 JUMPI PUSH2 0x3AF SWAP3 PUSH2 0x2E9A SWAP3 PUSH2 0x3C79 JUMP JUMPDEST PUSH1 0x40 MLOAD SWAP2 DUP3 SWAP2 PUSH1 0x20 DUP4 MSTORE PUSH1 0x20 DUP4 ADD SWAP1 PUSH2 0x363B JUMP JUMPDEST CALLVALUE PUSH2 0x1A7 JUMPI PUSH1 0xC0 CALLDATASIZE PUSH1 0x3 NOT ADD SLT PUSH2 0x1A7 JUMPI PUSH1 0x4 CALLDATALOAD PUSH1 0x1 PUSH1 0x1 PUSH1 0x40 SHL SUB DUP2 GT PUSH2 0x1A7 JUMPI PUSH2 0x2EDE SWAP1 CALLDATASIZE SWAP1 PUSH1 0x4 ADD PUSH2 0x35C2 JUMP JUMPDEST PUSH1 0x24 CALLDATALOAD PUSH1 0x1 PUSH1 0x1 PUSH1 0x40 SHL SUB DUP2 GT PUSH2 0x1A7 JUMPI PUSH2 0x2EFD SWAP1 CALLDATASIZE SWAP1 PUSH1 0x4 ADD PUSH2 0x35C2 JUMP JUMPDEST PUSH1 0x44 CALLDATALOAD PUSH1 0x1 PUSH1 0x1 PUSH1 0x40 SHL SUB DUP2 GT PUSH2 0x1A7 JUMPI PUSH2 0x2F1C SWAP1 CALLDATASIZE SWAP1 PUSH1 0x4 ADD PUSH2 0x35C2 JUMP JUMPDEST PUSH1 0x64 CALLDATALOAD PUSH1 0x1 PUSH1 0x1 PUSH1 0x40 SHL SUB DUP2 GT PUSH2 0x1A7 JUMPI PUSH2 0x2F3B SWAP1 CALLDATASIZE SWAP1 PUSH1 0x4 ADD PUSH2 0x35C2 JUMP JUMPDEST PUSH2 0x2F43 PUSH2 0x3679 JUMP JUMPDEST PUSH1 0xA4 CALLDATALOAD SWAP2 PUSH1 0x1 PUSH1 0x1 PUSH1 0x40 SHL SUB DUP4 GT PUSH2 0x1A7 JUMPI PUSH2 0x2F66 PUSH2 0x2F6C SWAP4 CALLDATASIZE SWAP1 PUSH1 0x4 ADD PUSH2 0x35C2 JUMP JUMPDEST SWAP4 PUSH2 0x3C79 JUMP JUMPDEST PUSH1 0x40 MLOAD SWAP1 PUSH1 0x1 DUP5 MLOAD SWAP3 PUSH1 0x20 DUP2 DUP2 DUP9 ADD SWAP6 DUP1 DUP8 DUP4 MCOPY DUP2 ADD PUSH1 0x3 DUP2 MSTORE SUB ADD SWAP1 KECCAK256 ADD DUP6 MLOAD PUSH1 0x1 PUSH1 0x1 PUSH1 0x40 SHL SUB DUP2 GT PUSH2 0x33B JUMPI PUSH2 0x2FA5 DUP3 SLOAD PUSH2 0x368F JUMP JUMPDEST PUSH1 0x1F DUP2 GT PUSH2 0x3301 JUMPI JUMPDEST POP PUSH1 0x20 PUSH1 0x1F DUP3 GT PUSH1 0x1 EQ PUSH2 0x329A JUMPI SWAP1 DUP1 PUSH2 0x2FE5 SWAP5 SWAP4 SWAP3 PUSH0 SWAP2 PUSH2 0x328F JUMPI JUMPDEST POP DUP2 PUSH1 0x1 SHL SWAP2 PUSH0 NOT SWAP1 PUSH1 0x3 SHL SHR NOT AND OR SWAP1 SSTORE JUMPDEST DUP4 DUP6 PUSH2 0x429A JUMP JUMPDEST PUSH1 0x2 SLOAD SWAP3 PUSH0 JUMPDEST DUP5 DUP2 LT PUSH2 0x2FF4 JUMPI STOP JUMPDEST PUSH2 0x2FFD DUP2 PUSH2 0x37B3 JUMP JUMPDEST POP PUSH1 0x40 MLOAD PUSH2 0x3013 DUP2 PUSH2 0x56E PUSH1 0x20 DUP3 ADD DUP1 SWAP6 PUSH2 0x3C0F JUMP JUMPDEST MLOAD SWAP1 KECCAK256 PUSH1 0x40 MLOAD PUSH1 0x20 DUP2 ADD SWAP1 PUSH2 0x3040 PUSH1 0x20 DUP3 DUP8 MLOAD DUP1 DUP11 DUP8 MCOPY DUP2 ADD PUSH0 DUP4 DUP3 ADD MSTORE SUB ADD PUSH1 0x1F NOT DUP2 ADD DUP4 MSTORE DUP3 PUSH2 0x35A1 JUMP JUMPDEST MLOAD SWAP1 KECCAK256 EQ PUSH2 0x3051 JUMPI JUMPDEST PUSH1 0x1 ADD PUSH2 0x2FEB JUMP JUMPDEST PUSH1 0x1 PUSH2 0x305C DUP3 PUSH2 0x37B3 JUMP JUMPDEST POP ADD DUP7 MLOAD PUSH1 0x1 PUSH1 0x1 PUSH1 0x40 SHL SUB DUP2 GT PUSH2 0x33B JUMPI PUSH2 0x3078 DUP3 SLOAD PUSH2 0x368F JUMP JUMPDEST PUSH1 0x1F DUP2 GT PUSH2 0x324A JUMPI JUMPDEST POP DUP1 PUSH1 0x20 PUSH1 0x1F DUP3 GT PUSH1 0x1 EQ PUSH2 0x31E7 JUMPI PUSH0 SWAP2 PUSH2 0x31DC JUMPI JUMPDEST POP DUP2 PUSH1 0x1 SHL SWAP2 PUSH0 NOT SWAP1 PUSH1 0x3 SHL SHR NOT AND OR SWAP1 SSTORE JUMPDEST PUSH1 0x3 PUSH2 0x30B5 DUP3 PUSH2 0x37B3 JUMP JUMPDEST POP ADD DUP1 SLOAD PUSH2 0xFF00 NOT AND PUSH2 0x100 OR SWAP1 SSTORE PUSH1 0x4 PUSH2 0x30CF DUP3 PUSH2 0x37B3 JUMP JUMPDEST POP ADD DUP5 MLOAD PUSH1 0x1 PUSH1 0x1 PUSH1 0x40 SHL SUB DUP2 GT PUSH2 0x33B JUMPI PUSH2 0x30EB DUP3 SLOAD PUSH2 0x368F JUMP JUMPDEST PUSH1 0x1F DUP2 GT PUSH2 0x3197 JUMPI JUMPDEST POP PUSH1 0x20 PUSH1 0x1F DUP3 GT PUSH1 0x1 EQ PUSH2 0x3134 JUMPI SWAP1 DUP1 PUSH1 0x1 SWAP5 SWAP4 SWAP3 PUSH0 SWAP2 PUSH2 0x3129 JUMPI JUMPDEST POP PUSH0 NOT PUSH1 0x3 DUP4 SWAP1 SHL SHR NOT AND SWAP1 DUP5 SHL OR SWAP1 SSTORE JUMPDEST SWAP1 POP PUSH2 0x3049 JUMP JUMPDEST SWAP1 POP DUP8 ADD MLOAD DUP11 PUSH2 0x3110 JUMP JUMPDEST PUSH1 0x1F NOT DUP3 AND SWAP1 DUP4 PUSH0 MSTORE DUP1 PUSH0 KECCAK256 SWAP2 PUSH0 JUMPDEST DUP2 DUP2 LT PUSH2 0x317F JUMPI POP SWAP2 DUP4 SWAP2 PUSH1 0x1 SWAP7 SWAP6 SWAP5 DUP8 SWAP5 LT PUSH2 0x3167 JUMPI JUMPDEST POP POP DUP2 SHL ADD SWAP1 SSTORE PUSH2 0x3122 JUMP JUMPDEST DUP10 ADD MLOAD PUSH0 NOT PUSH1 0xF8 DUP5 PUSH1 0x3 SHL AND SHR NOT AND SWAP1 SSTORE DUP11 DUP1 PUSH2 0x315B JUMP JUMPDEST SWAP2 SWAP3 PUSH1 0x20 PUSH1 0x1 DUP2 SWAP3 DUP7 DUP14 ADD MLOAD DUP2 SSTORE ADD SWAP5 ADD SWAP3 ADD PUSH2 0x3143 JUMP JUMPDEST DUP3 PUSH0 MSTORE PUSH1 0x20 PUSH0 KECCAK256 PUSH1 0x1F DUP4 ADD PUSH1 0x5 SHR DUP2 ADD SWAP2 PUSH1 0x20 DUP5 LT PUSH2 0x31D2 JUMPI JUMPDEST PUSH1 0x1F ADD PUSH1 0x5 SHR ADD SWAP1 JUMPDEST DUP2 DUP2 LT PUSH2 0x31C7 JUMPI POP PUSH2 0x30F4 JUMP JUMPDEST PUSH0 DUP2 SSTORE PUSH1 0x1 ADD PUSH2 0x31BA JUMP JUMPDEST SWAP1 SWAP2 POP DUP2 SWAP1 PUSH2 0x31B1 JUMP JUMPDEST SWAP1 POP DUP9 ADD MLOAD DUP10 PUSH2 0x3097 JUMP JUMPDEST PUSH0 DUP5 DUP2 MSTORE DUP2 DUP2 KECCAK256 SWAP3 POP PUSH1 0x1F NOT DUP5 AND SWAP1 JUMPDEST DUP12 DUP3 DUP3 LT PUSH2 0x3232 JUMPI POP POP SWAP1 DUP4 PUSH1 0x1 SWAP5 SWAP4 SWAP3 LT PUSH2 0x321A JUMPI JUMPDEST POP POP DUP2 SHL ADD SWAP1 SSTORE PUSH2 0x30AA JUMP JUMPDEST DUP11 ADD MLOAD PUSH0 NOT PUSH1 0xF8 DUP5 PUSH1 0x3 SHL AND SHR NOT AND SWAP1 SSTORE DUP10 DUP1 PUSH2 0x320E JUMP JUMPDEST PUSH1 0x1 DUP5 SWAP6 PUSH1 0x20 SWAP4 SWAP6 DUP5 SWAP4 ADD MLOAD DUP2 SSTORE ADD SWAP5 ADD SWAP3 ADD PUSH2 0x31F7 JUMP JUMPDEST DUP3 PUSH0 MSTORE PUSH1 0x20 PUSH0 KECCAK256 PUSH1 0x1F DUP4 ADD PUSH1 0x5 SHR DUP2 ADD SWAP2 PUSH1 0x20 DUP5 LT PUSH2 0x3285 JUMPI JUMPDEST PUSH1 0x1F ADD PUSH1 0x5 SHR ADD SWAP1 JUMPDEST DUP2 DUP2 LT PUSH2 0x327A JUMPI POP PUSH2 0x3081 JUMP JUMPDEST PUSH0 DUP2 SSTORE PUSH1 0x1 ADD PUSH2 0x326D JUMP JUMPDEST SWAP1 SWAP2 POP DUP2 SWAP1 PUSH2 0x3264 JUMP JUMPDEST SWAP1 POP DUP9 ADD MLOAD DUP10 PUSH2 0x2FCB JUMP JUMPDEST PUSH1 0x1F NOT DUP3 AND SWAP1 DUP4 PUSH0 MSTORE DUP1 PUSH0 KECCAK256 SWAP2 PUSH0 JUMPDEST DUP11 DUP3 DUP3 LT PUSH2 0x32E9 JUMPI POP POP SWAP2 DUP4 SWAP2 PUSH2 0x2FE5 SWAP7 SWAP6 SWAP5 PUSH1 0x1 SWAP5 LT PUSH2 0x32D1 JUMPI JUMPDEST POP POP DUP2 SHL ADD SWAP1 SSTORE PUSH2 0x2FDE JUMP JUMPDEST DUP11 ADD MLOAD PUSH0 NOT PUSH1 0xF8 DUP5 PUSH1 0x3 SHL AND SHR NOT AND SWAP1 SSTORE DUP10 DUP1 PUSH2 0x32C5 JUMP JUMPDEST PUSH1 0x1 DUP5 SWAP6 PUSH1 0x20 SWAP4 SWAP6 DUP5 SWAP4 ADD MLOAD DUP2 SSTORE ADD SWAP5 ADD SWAP3 ADD PUSH2 0x32A9 JUMP JUMPDEST DUP3 PUSH0 MSTORE PUSH1 0x20 PUSH0 KECCAK256 PUSH1 0x1F DUP4 ADD PUSH1 0x5 SHR DUP2 ADD SWAP2 PUSH1 0x20 DUP5 LT PUSH2 0x333C JUMPI JUMPDEST PUSH1 0x1F ADD PUSH1 0x5 SHR ADD SWAP1 JUMPDEST DUP2 DUP2 LT PUSH2 0x3331 JUMPI POP PUSH2 0x2FAE JUMP JUMPDEST PUSH0 DUP2 SSTORE PUSH1 0x1 ADD PUSH2 0x3324 JUMP JUMPDEST SWAP1 SWAP2 POP DUP2 SWAP1 PUSH2 0x331B JUMP JUMPDEST CALLVALUE PUSH2 0x1A7 JUMPI PUSH1 0xA0 CALLDATASIZE PUSH1 0x3 NOT ADD SLT PUSH2 0x1A7 JUMPI PUSH1 0x4 CALLDATALOAD PUSH1 0x1 PUSH1 0x1 PUSH1 0x40 SHL SUB DUP2 GT PUSH2 0x1A7 JUMPI PUSH2 0x3376 SWAP1 CALLDATASIZE SWAP1 PUSH1 0x4 ADD PUSH2 0x35C2 JUMP JUMPDEST PUSH1 0x24 CALLDATALOAD PUSH1 0x1 PUSH1 0x1 PUSH1 0x40 SHL SUB DUP2 GT PUSH2 0x1A7 JUMPI PUSH2 0x3395 SWAP1 CALLDATASIZE SWAP1 PUSH1 0x4 ADD PUSH2 0x35C2 JUMP JUMPDEST PUSH1 0x44 CALLDATALOAD PUSH1 0x1 PUSH1 0x1 PUSH1 0x40 SHL SUB DUP2 GT PUSH2 0x1A7 JUMPI PUSH2 0x33B4 SWAP1 CALLDATASIZE SWAP1 PUSH1 0x4 ADD PUSH2 0x35C2 JUMP JUMPDEST SWAP1 PUSH1 0x64 CALLDATALOAD PUSH1 0x1 PUSH1 0x1 PUSH1 0x40 SHL SUB DUP2 GT PUSH2 0x1A7 JUMPI PUSH2 0x33F0 SWAP3 PUSH2 0x33DB PUSH2 0x33E9 SWAP3 CALLDATASIZE SWAP1 PUSH1 0x4 ADD PUSH2 0x35C2 JUMP JUMPDEST PUSH2 0x33E3 PUSH2 0x3679 JUMP JUMPDEST SWAP2 PUSH2 0x3C79 JUMP JUMPDEST SWAP1 DUP4 PUSH2 0x3EFD JUMP JUMPDEST PUSH1 0x2 SLOAD PUSH1 0x20 DUP3 ADD PUSH0 JUMPDEST DUP3 DUP2 LT PUSH2 0x3402 JUMPI STOP JUMPDEST DUP1 PUSH2 0x340E PUSH1 0x1 SWAP3 PUSH2 0x37B3 JUMP JUMPDEST POP PUSH1 0x40 MLOAD PUSH2 0x3424 DUP2 PUSH2 0x56E PUSH1 0x20 DUP3 ADD DUP1 SWAP6 PUSH2 0x3C0F JUMP JUMPDEST MLOAD SWAP1 KECCAK256 PUSH1 0x40 MLOAD PUSH1 0x20 DUP2 ADD SWAP1 PUSH2 0x3451 PUSH1 0x20 DUP3 DUP11 MLOAD DUP1 DUP11 DUP8 MCOPY DUP2 ADD PUSH0 DUP4 DUP3 ADD MSTORE SUB ADD PUSH1 0x1F NOT DUP2 ADD DUP4 MSTORE DUP3 PUSH2 0x35A1 JUMP JUMPDEST MLOAD SWAP1 KECCAK256 EQ PUSH2 0x3460 JUMPI JUMPDEST ADD PUSH2 0x33F9 JUMP JUMPDEST PUSH1 0x3 PUSH2 0x346B DUP3 PUSH2 0x37B3 JUMP JUMPDEST POP ADD DUP1 SLOAD PUSH2 0xFF00 NOT AND PUSH2 0x200 OR SWAP1 SSTORE PUSH2 0x345A JUMP JUMPDEST CALLVALUE PUSH2 0x1A7 JUMPI PUSH1 0x20 CALLDATASIZE PUSH1 0x3 NOT ADD SLT PUSH2 0x1A7 JUMPI PUSH1 0x4 CALLDATALOAD PUSH1 0x1 PUSH1 0x1 PUSH1 0x40 SHL SUB DUP2 GT PUSH2 0x1A7 JUMPI PUSH2 0x34B2 PUSH2 0x1A5 SWAP2 CALLDATASIZE SWAP1 PUSH1 0x4 ADD PUSH2 0x35C2 JUMP JUMPDEST PUSH2 0x3BE1 JUMP JUMPDEST CALLVALUE PUSH2 0x1A7 JUMPI PUSH1 0x20 CALLDATASIZE PUSH1 0x3 NOT ADD SLT PUSH2 0x1A7 JUMPI PUSH1 0x4 CALLDATALOAD PUSH1 0x1 PUSH1 0x1 PUSH1 0x40 SHL SUB DUP2 GT PUSH2 0x1A7 JUMPI PUSH2 0x2E9A PUSH1 0x7 PUSH1 0x20 DUP1 PUSH2 0x34F2 PUSH2 0x3AF SWAP6 CALLDATASIZE SWAP1 PUSH1 0x4 ADD PUSH2 0x35C2 JUMP JUMPDEST PUSH2 0x34FA PUSH2 0x3BC1 JUMP JUMPDEST POP PUSH1 0x40 MLOAD SWAP3 DUP2 DUP5 SWAP3 MLOAD SWAP2 DUP3 SWAP2 ADD DUP4 MCOPY DUP2 ADD PUSH0 DUP2 MSTORE SUB ADD SWAP1 KECCAK256 ADD PUSH2 0x3767 JUMP JUMPDEST PUSH1 0x60 DUP2 ADD SWAP1 DUP2 LT PUSH1 0x1 PUSH1 0x1 PUSH1 0x40 SHL SUB DUP3 GT OR PUSH2 0x33B JUMPI PUSH1 0x40 MSTORE JUMP JUMPDEST PUSH1 0xC0 DUP2 ADD SWAP1 DUP2 LT PUSH1 0x1 PUSH1 0x1 PUSH1 0x40 SHL SUB DUP3 GT OR PUSH2 0x33B JUMPI PUSH1 0x40 MSTORE JUMP JUMPDEST PUSH1 0x40 DUP2 ADD SWAP1 DUP2 LT PUSH1 0x1 PUSH1 0x1 PUSH1 0x40 SHL SUB DUP3 GT OR PUSH2 0x33B JUMPI PUSH1 0x40 MSTORE JUMP JUMPDEST PUSH2 0x100 DUP2 ADD SWAP1 DUP2 LT PUSH1 0x1 PUSH1 0x1 PUSH1 0x40 SHL SUB DUP3 GT OR PUSH2 0x33B JUMPI PUSH1 0x40 MSTORE JUMP JUMPDEST PUSH2 0x140 DUP2 ADD SWAP1 DUP2 LT PUSH1 0x1 PUSH1 0x1 PUSH1 0x40 SHL SUB DUP3 GT OR PUSH2 0x33B JUMPI PUSH1 0x40 MSTORE JUMP JUMPDEST SWAP1 PUSH1 0x1F DUP1 NOT SWAP2 ADD AND DUP2 ADD SWAP1 DUP2 LT PUSH1 0x1 PUSH1 0x1 PUSH1 0x40 SHL SUB DUP3 GT OR PUSH2 0x33B JUMPI PUSH1 0x40 MSTORE JUMP JUMPDEST DUP2 PUSH1 0x1F DUP3 ADD SLT ISZERO PUSH2 0x1A7 JUMPI DUP1 CALLDATALOAD SWAP1 PUSH1 0x1 PUSH1 0x1 PUSH1 0x40 SHL SUB DUP3 GT PUSH2 0x33B JUMPI PUSH1 0x40 MLOAD SWAP3 PUSH2 0x35F6 PUSH1 0x1F DUP5 ADD PUSH1 0x1F NOT AND PUSH1 0x20 ADD DUP6 PUSH2 0x35A1 JUMP JUMPDEST DUP3 DUP5 MSTORE PUSH1 0x20 DUP4 DUP4 ADD ADD GT PUSH2 0x1A7 JUMPI DUP2 PUSH0 SWAP3 PUSH1 0x20 DUP1 SWAP4 ADD DUP4 DUP7 ADD CALLDATACOPY DUP4 ADD ADD MSTORE SWAP1 JUMP JUMPDEST DUP1 MLOAD DUP1 DUP4 MSTORE PUSH1 0x20 SWAP3 SWAP2 DUP2 SWAP1 DUP5 ADD DUP5 DUP5 ADD MCOPY PUSH0 DUP3 DUP3 ADD DUP5 ADD MSTORE PUSH1 0x1F ADD PUSH1 0x1F NOT AND ADD ADD SWAP1 JUMP JUMPDEST SWAP1 PUSH1 0x40 PUSH2 0x3666 PUSH2 0x3654 DUP5 MLOAD PUSH1 0x60 DUP6 MSTORE PUSH1 0x60 DUP6 ADD SWAP1 PUSH2 0x3617 JUMP JUMPDEST PUSH1 0x20 DUP6 ADD MLOAD DUP5 DUP3 SUB PUSH1 0x20 DUP7 ADD MSTORE PUSH2 0x3617 JUMP JUMPDEST SWAP3 DUP2 ADD MLOAD PUSH1 0x1 PUSH1 0x1 PUSH1 0xA0 SHL SUB AND SWAP2 ADD MSTORE SWAP1 JUMP JUMPDEST PUSH1 0x84 CALLDATALOAD SWAP1 PUSH1 0x1 PUSH1 0x1 PUSH1 0xA0 SHL SUB DUP3 AND DUP3 SUB PUSH2 0x1A7 JUMPI JUMP JUMPDEST SWAP1 PUSH1 0x1 DUP3 DUP2 SHR SWAP3 AND DUP1 ISZERO PUSH2 0x36BD JUMPI JUMPDEST PUSH1 0x20 DUP4 LT EQ PUSH2 0x36A9 JUMPI JUMP JUMPDEST PUSH4 0x4E487B71 PUSH1 0xE0 SHL PUSH0 MSTORE PUSH1 0x22 PUSH1 0x4 MSTORE PUSH1 0x24 PUSH0 REVERT JUMPDEST SWAP2 PUSH1 0x7F AND SWAP2 PUSH2 0x369E JUMP JUMPDEST SWAP1 PUSH1 0x40 MLOAD SWAP2 DUP3 PUSH0 DUP3 SLOAD SWAP3 PUSH2 0x36DA DUP5 PUSH2 0x368F JUMP JUMPDEST DUP1 DUP5 MSTORE SWAP4 PUSH1 0x1 DUP2 AND SWAP1 DUP2 ISZERO PUSH2 0x3745 JUMPI POP PUSH1 0x1 EQ PUSH2 0x3701 JUMPI JUMPDEST POP PUSH2 0x36FF SWAP3 POP SUB DUP4 PUSH2 0x35A1 JUMP JUMPDEST JUMP JUMPDEST SWAP1 POP PUSH0 SWAP3 SWAP2 SWAP3 MSTORE PUSH1 0x20 PUSH0 KECCAK256 SWAP1 PUSH0 SWAP2 JUMPDEST DUP2 DUP4 LT PUSH2 0x3729 JUMPI POP POP SWAP1 PUSH1 0x20 PUSH2 0x36FF SWAP3 DUP3 ADD ADD PUSH0 PUSH2 0x36F2 JUMP JUMPDEST PUSH1 0x20 SWAP2 SWAP4 POP DUP1 PUSH1 0x1 SWAP2 SLOAD DUP4 DUP6 DUP10 ADD ADD MSTORE ADD SWAP2 ADD SWAP1 SWAP2 DUP5 SWAP3 PUSH2 0x3710 JUMP JUMPDEST SWAP1 POP PUSH1 0x20 SWAP3 POP PUSH2 0x36FF SWAP5 SWAP2 POP PUSH1 0xFF NOT AND DUP3 DUP5 ADD MSTORE ISZERO ISZERO PUSH1 0x5 SHL DUP3 ADD ADD PUSH0 PUSH2 0x36F2 JUMP JUMPDEST SWAP1 PUSH1 0x40 MLOAD PUSH2 0x3774 DUP2 PUSH2 0x3518 JUMP JUMPDEST PUSH1 0x40 DUP2 SWAP4 PUSH2 0x3781 DUP2 PUSH2 0x36C7 JUMP JUMPDEST DUP4 MSTORE PUSH2 0x378F PUSH1 0x1 DUP3 ADD PUSH2 0x36C7 JUMP JUMPDEST PUSH1 0x20 DUP5 ADD MSTORE PUSH1 0x2 ADD SLOAD PUSH1 0x1 PUSH1 0x1 PUSH1 0xA0 SHL SUB AND SWAP2 ADD MSTORE JUMP JUMPDEST SWAP1 PUSH1 0x7 DUP3 LT ISZERO PUSH2 0x273D JUMPI MSTORE JUMP JUMPDEST PUSH1 0x2 SLOAD DUP2 LT ISZERO PUSH2 0x37CF JUMPI PUSH1 0x2 PUSH0 MSTORE PUSH1 0x5 PUSH1 0x20 PUSH0 KECCAK256 SWAP2 MUL ADD SWAP1 PUSH0 SWAP1 JUMP JUMPDEST PUSH4 0x4E487B71 PUSH1 0xE0 SHL PUSH0 MSTORE PUSH1 0x32 PUSH1 0x4 MSTORE PUSH1 0x24 PUSH0 REVERT JUMPDEST SWAP2 SWAP1 PUSH1 0x40 DUP4 DUP3 SUB SLT PUSH2 0x1A7 JUMPI PUSH1 0x40 MLOAD SWAP1 PUSH2 0x37FC DUP3 PUSH2 0x354E JUMP JUMPDEST DUP2 SWAP4 DUP1 CALLDATALOAD PUSH1 0x1 PUSH1 0x1 PUSH1 0x40 SHL SUB DUP2 GT PUSH2 0x1A7 JUMPI DUP3 PUSH2 0x381A SWAP2 DUP4 ADD PUSH2 0x35C2 JUMP JUMPDEST DUP4 MSTORE PUSH1 0x20 DUP2 ADD CALLDATALOAD SWAP2 PUSH1 0x1 PUSH1 0x1 PUSH1 0x40 SHL SUB DUP4 GT PUSH2 0x1A7 JUMPI PUSH1 0x20 SWAP3 PUSH2 0x383D SWAP3 ADD PUSH2 0x35C2 JUMP JUMPDEST SWAP2 ADD MSTORE JUMP JUMPDEST SWAP2 SWAP1 PUSH2 0x100 DUP4 DUP3 SUB SLT PUSH2 0x1A7 JUMPI PUSH1 0x40 MLOAD SWAP1 PUSH2 0x385C DUP3 PUSH2 0x3569 JUMP JUMPDEST DUP2 SWAP4 DUP1 CALLDATALOAD PUSH1 0x1 PUSH1 0x1 PUSH1 0x40 SHL SUB DUP2 GT PUSH2 0x1A7 JUMPI DUP3 PUSH2 0x387A SWAP2 DUP4 ADD PUSH2 0x35C2 JUMP JUMPDEST DUP4 MSTORE PUSH1 0x20 DUP2 ADD CALLDATALOAD PUSH1 0x1 PUSH1 0x1 PUSH1 0x40 SHL SUB DUP2 GT PUSH2 0x1A7 JUMPI DUP3 PUSH2 0x389B SWAP2 DUP4 ADD PUSH2 0x35C2 JUMP JUMPDEST PUSH1 0x20 DUP5 ADD MSTORE PUSH1 0x40 DUP2 ADD CALLDATALOAD PUSH1 0x1 PUSH1 0x1 PUSH1 0x40 SHL SUB DUP2 GT PUSH2 0x1A7 JUMPI DUP3 PUSH2 0x38BF SWAP2 DUP4 ADD PUSH2 0x35C2 JUMP JUMPDEST PUSH1 0x40 DUP5 ADD MSTORE PUSH1 0x60 DUP2 ADD CALLDATALOAD PUSH1 0x1 PUSH1 0x1 PUSH1 0x40 SHL SUB DUP2 GT PUSH2 0x1A7 JUMPI DUP3 PUSH2 0x38E3 SWAP2 DUP4 ADD PUSH2 0x35C2 JUMP JUMPDEST PUSH1 0x60 DUP5 ADD MSTORE PUSH1 0x80 DUP2 ADD CALLDATALOAD PUSH1 0x1 PUSH1 0x1 PUSH1 0x40 SHL SUB DUP2 GT PUSH2 0x1A7 JUMPI DUP3 PUSH2 0x3907 SWAP2 DUP4 ADD PUSH2 0x35C2 JUMP JUMPDEST PUSH1 0x80 DUP5 ADD MSTORE PUSH1 0xA0 DUP2 ADD CALLDATALOAD PUSH1 0x1 PUSH1 0x1 PUSH1 0x40 SHL SUB DUP2 GT PUSH2 0x1A7 JUMPI DUP3 PUSH2 0x392B SWAP2 DUP4 ADD PUSH2 0x35C2 JUMP JUMPDEST PUSH1 0xA0 DUP5 ADD MSTORE PUSH1 0xC0 DUP2 ADD CALLDATALOAD PUSH1 0x1 PUSH1 0x1 PUSH1 0x40 SHL SUB DUP2 GT PUSH2 0x1A7 JUMPI DUP3 PUSH2 0x394F SWAP2 DUP4 ADD PUSH2 0x35C2 JUMP JUMPDEST PUSH1 0xC0 DUP5 ADD MSTORE PUSH1 0xE0 DUP2 ADD CALLDATALOAD SWAP2 PUSH1 0x1 PUSH1 0x1 PUSH1 0x40 SHL SUB DUP4 GT PUSH2 0x1A7 JUMPI PUSH1 0xE0 SWAP3 PUSH2 0x383D SWAP3 ADD PUSH2 0x35C2 JUMP JUMPDEST PUSH1 0x20 DUP2 ADD PUSH1 0x20 DUP3 MSTORE DUP3 MLOAD DUP1 SWAP2 MSTORE PUSH1 0x40 DUP3 ADD SWAP2 PUSH1 0x20 PUSH1 0x40 DUP4 PUSH1 0x5 SHL DUP4 ADD ADD SWAP5 ADD SWAP3 PUSH0 SWAP2 JUMPDEST DUP4 DUP4 LT PUSH2 0x39A7 JUMPI POP POP POP POP POP SWAP1 JUMP JUMPDEST SWAP1 SWAP2 SWAP3 SWAP4 SWAP5 PUSH1 0x20 DUP1 PUSH2 0x3A2E PUSH1 0x1 SWAP4 PUSH1 0x3F NOT DUP7 DUP3 SUB ADD DUP8 MSTORE DUP10 MLOAD SWAP1 PUSH1 0xA0 PUSH2 0x39FE PUSH2 0x39EC PUSH2 0x39DC DUP6 MLOAD PUSH1 0xC0 DUP7 MSTORE PUSH1 0xC0 DUP7 ADD SWAP1 PUSH2 0x3617 JUMP JUMPDEST DUP8 DUP7 ADD MLOAD DUP6 DUP3 SUB DUP10 DUP8 ADD MSTORE PUSH2 0x3617 JUMP JUMPDEST PUSH1 0x40 DUP6 ADD MLOAD DUP5 DUP3 SUB PUSH1 0x40 DUP7 ADD MSTORE PUSH2 0x3617 JUMP JUMPDEST SWAP3 PUSH1 0xFF PUSH1 0x60 DUP3 ADD MLOAD AND PUSH1 0x60 DUP5 ADD MSTORE PUSH2 0x3A1E PUSH1 0x80 DUP3 ADD MLOAD PUSH1 0x80 DUP6 ADD SWAP1 PUSH2 0x37A6 JUMP JUMPDEST ADD MLOAD SWAP1 PUSH1 0xA0 DUP2 DUP5 SUB SWAP2 ADD MSTORE PUSH2 0x3617 JUMP JUMPDEST SWAP8 ADD SWAP4 ADD SWAP4 ADD SWAP2 SWAP4 SWAP3 SWAP1 PUSH2 0x3998 JUMP JUMPDEST SWAP1 PUSH2 0x3ADE SWAP2 PUSH1 0x20 DUP2 MSTORE PUSH2 0x3A54 PUSH1 0x20 DUP3 ADD DUP4 MLOAD PUSH2 0x37A6 JUMP JUMPDEST PUSH1 0x20 DUP3 ADD MLOAD PUSH1 0x40 DUP3 ADD MSTORE PUSH1 0x40 DUP3 ADD MLOAD PUSH1 0x60 DUP3 ADD MSTORE PUSH1 0x60 DUP3 ADD MLOAD PUSH1 0x80 DUP3 ADD MSTORE PUSH1 0x80 DUP3 ADD MLOAD PUSH1 0xA0 DUP3 ADD MSTORE PUSH1 0xA0 DUP3 ADD MLOAD PUSH1 0xC0 DUP3 ADD MSTORE PUSH1 0xC0 DUP3 ADD MLOAD PUSH1 0xE0 DUP3 ADD MSTORE PUSH2 0x120 PUSH2 0x3AC8 PUSH2 0x3AB2 PUSH1 0xE0 DUP6 ADD MLOAD PUSH2 0x140 PUSH2 0x100 DUP7 ADD MSTORE PUSH2 0x160 DUP6 ADD SWAP1 PUSH2 0x363B JUMP JUMPDEST PUSH2 0x100 DUP6 ADD MLOAD DUP5 DUP3 SUB PUSH1 0x1F NOT ADD DUP5 DUP7 ADD MSTORE PUSH2 0x363B JUMP JUMPDEST SWAP3 ADD MLOAD SWAP1 PUSH2 0x140 PUSH1 0x1F NOT DUP3 DUP6 SUB ADD SWAP2 ADD MSTORE PUSH2 0x3617 JUMP JUMPDEST SWAP1 JUMP JUMPDEST SWAP2 SWAP1 PUSH1 0x60 DUP4 DUP3 SUB SLT PUSH2 0x1A7 JUMPI PUSH1 0x40 MLOAD SWAP1 PUSH2 0x3AFA DUP3 PUSH2 0x3518 JUMP JUMPDEST DUP2 SWAP4 DUP1 CALLDATALOAD PUSH1 0x1 PUSH1 0x1 PUSH1 0x40 SHL SUB DUP2 GT PUSH2 0x1A7 JUMPI DUP3 PUSH2 0x3B18 SWAP2 DUP4 ADD PUSH2 0x35C2 JUMP JUMPDEST DUP4 MSTORE PUSH1 0x20 DUP2 ADD CALLDATALOAD PUSH1 0x1 PUSH1 0x1 PUSH1 0x40 SHL SUB DUP2 GT PUSH2 0x1A7 JUMPI PUSH1 0x40 SWAP3 PUSH2 0x3B3B SWAP2 DUP4 ADD PUSH2 0x35C2 JUMP JUMPDEST PUSH1 0x20 DUP5 ADD MSTORE ADD CALLDATALOAD SWAP1 PUSH1 0x1 PUSH1 0x1 PUSH1 0xA0 SHL SUB DUP3 AND DUP3 SUB PUSH2 0x1A7 JUMPI PUSH1 0x40 ADD MSTORE JUMP JUMPDEST PUSH1 0x60 PUSH1 0x3 NOT DUP3 ADD SLT PUSH2 0x1A7 JUMPI PUSH1 0x4 CALLDATALOAD PUSH1 0x1 PUSH1 0x1 PUSH1 0x40 SHL SUB DUP2 GT PUSH2 0x1A7 JUMPI DUP2 PUSH2 0x3B83 SWAP2 PUSH1 0x4 ADD PUSH2 0x35C2 JUMP JUMPDEST SWAP2 PUSH1 0x24 CALLDATALOAD PUSH1 0x1 PUSH1 0x1 PUSH1 0x40 SHL SUB DUP2 GT PUSH2 0x1A7 JUMPI DUP3 PUSH2 0x3BA2 SWAP2 PUSH1 0x4 ADD PUSH2 0x35C2 JUMP JUMPDEST SWAP2 PUSH1 0x44 CALLDATALOAD SWAP1 PUSH1 0x1 PUSH1 0x1 PUSH1 0x40 SHL SUB DUP3 GT PUSH2 0x1A7 JUMPI PUSH2 0x3ADE SWAP2 PUSH1 0x4 ADD PUSH2 0x3AE1 JUMP JUMPDEST PUSH1 0x40 MLOAD SWAP1 PUSH2 0x3BCE DUP3 PUSH2 0x3518 JUMP JUMPDEST PUSH0 PUSH1 0x40 DUP4 PUSH1 0x60 DUP2 MSTORE PUSH1 0x60 PUSH1 0x20 DUP3 ADD MSTORE ADD MSTORE JUMP JUMPDEST PUSH1 0x20 DUP1 SWAP2 PUSH1 0x40 MLOAD SWAP3 DUP2 DUP5 SWAP3 MLOAD SWAP2 DUP3 SWAP2 ADD DUP4 MCOPY DUP2 ADD PUSH0 DUP2 MSTORE SUB ADD SWAP1 KECCAK256 TIMESTAMP PUSH1 0x4 DUP3 ADD SSTORE PUSH1 0x3 PUSH1 0xFF NOT DUP3 SLOAD AND OR SWAP1 SSTORE JUMP JUMPDEST PUSH0 SWAP3 SWAP2 DUP2 SLOAD SWAP2 PUSH2 0x3C1E DUP4 PUSH2 0x368F JUMP JUMPDEST SWAP3 PUSH1 0x1 DUP2 AND SWAP1 DUP2 ISZERO PUSH2 0x3C66 JUMPI POP PUSH1 0x1 EQ PUSH2 0x3C37 JUMPI POP POP POP JUMP JUMPDEST SWAP1 SWAP2 SWAP3 SWAP4 POP PUSH0 MSTORE PUSH1 0x20 PUSH0 KECCAK256 PUSH0 SWAP1 JUMPDEST DUP4 DUP3 LT PUSH2 0x3C52 JUMPI POP POP ADD SWAP1 JUMP JUMPDEST PUSH1 0x1 DUP2 PUSH1 0x20 SWAP3 SLOAD DUP5 DUP7 ADD MSTORE ADD SWAP2 ADD SWAP1 PUSH2 0x3C45 JUMP JUMPDEST PUSH1 0xFF NOT AND DUP4 MSTORE POP POP DUP2 ISZERO ISZERO SWAP1 SWAP2 MUL ADD SWAP2 POP JUMP JUMPDEST SWAP2 SWAP1 PUSH2 0x3C83 PUSH2 0x3BC1 JUMP JUMPDEST POP PUSH1 0x40 MLOAD SWAP3 PUSH2 0x3C91 DUP5 PUSH2 0x3518 JUMP JUMPDEST DUP4 MSTORE PUSH1 0x20 DUP4 ADD MSTORE PUSH1 0x1 PUSH1 0x1 PUSH1 0xA0 SHL SUB AND PUSH1 0x40 DUP3 ADD MSTORE SWAP1 JUMP JUMPDEST PUSH1 0x7 DUP3 LT ISZERO PUSH2 0x273D JUMPI MSTORE JUMP JUMPDEST PUSH1 0x40 MLOAD DUP2 MLOAD PUSH2 0x3ADE SWAP3 PUSH1 0x20 SWAP2 DUP4 SWAP2 DUP2 SWAP1 DUP5 ADD DUP4 MCOPY DUP2 ADD PUSH1 0x1 DUP2 MSTORE SUB ADD SWAP1 KECCAK256 PUSH2 0x36C7 JUMP JUMPDEST PUSH1 0xFF AND PUSH1 0xFF DUP2 EQ PUSH2 0x34F JUMPI PUSH1 0x1 ADD SWAP1 JUMP JUMPDEST PUSH1 0x1 PUSH1 0x1 PUSH1 0x40 SHL SUB DUP2 GT PUSH2 0x33B JUMPI PUSH1 0x5 SHL PUSH1 0x20 ADD SWAP1 JUMP JUMPDEST SWAP1 PUSH2 0x3D0A DUP3 PUSH2 0x3CE9 JUMP JUMPDEST PUSH2 0x3D17 PUSH1 0x40 MLOAD SWAP2 DUP3 PUSH2 0x35A1 JUMP JUMPDEST DUP3 DUP2 MSTORE DUP1 SWAP3 PUSH2 0x3D28 PUSH1 0x1F NOT SWAP2 PUSH2 0x3CE9 JUMP JUMPDEST ADD SWAP1 PUSH0 JUMPDEST DUP3 DUP2 LT PUSH2 0x3D38 JUMPI POP POP POP JUMP JUMPDEST PUSH1 0x20 SWAP1 PUSH1 0x40 MLOAD PUSH2 0x3D47 DUP2 PUSH2 0x3533 JUMP JUMPDEST PUSH1 0x60 DUP2 MSTORE PUSH1 0x60 DUP4 DUP3 ADD MSTORE PUSH1 0x60 PUSH1 0x40 DUP3 ADD MSTORE PUSH0 PUSH1 0x60 DUP3 ADD MSTORE PUSH0 PUSH1 0x80 DUP3 ADD MSTORE PUSH1 0x60 PUSH1 0xA0 DUP3 ADD MSTORE DUP3 DUP3 DUP6 ADD ADD MSTORE ADD PUSH2 0x3D2C JUMP JUMPDEST DUP1 MLOAD DUP3 LT ISZERO PUSH2 0x37CF JUMPI PUSH1 0x20 SWAP2 PUSH1 0x5 SHL ADD ADD SWAP1 JUMP JUMPDEST SWAP1 PUSH1 0x40 MLOAD PUSH2 0x3D98 DUP2 PUSH2 0x3533 JUMP JUMPDEST PUSH1 0xA0 PUSH2 0x383D PUSH1 0x4 DUP4 SWAP6 PUSH2 0x3DAA DUP2 PUSH2 0x36C7 JUMP JUMPDEST DUP6 MSTORE PUSH2 0x3DB8 PUSH1 0x1 DUP3 ADD PUSH2 0x36C7 JUMP JUMPDEST PUSH1 0x20 DUP7 ADD MSTORE PUSH2 0x3DC9 PUSH1 0x2 DUP3 ADD PUSH2 0x36C7 JUMP JUMPDEST PUSH1 0x40 DUP7 ADD MSTORE PUSH2 0x3DED PUSH1 0xFF PUSH1 0x3 DUP4 ADD SLOAD DUP2 DUP2 AND PUSH1 0x60 DUP10 ADD MSTORE PUSH1 0x8 SHR AND PUSH1 0x80 DUP8 ADD PUSH2 0x3CA9 JUMP JUMPDEST ADD PUSH2 0x36C7 JUMP JUMPDEST PUSH1 0x40 MLOAD SWAP1 PUSH2 0x3E00 DUP3 PUSH2 0x3585 JUMP JUMPDEST PUSH1 0x60 PUSH2 0x120 DUP4 PUSH0 DUP2 MSTORE PUSH0 PUSH1 0x20 DUP3 ADD MSTORE PUSH0 PUSH1 0x40 DUP3 ADD MSTORE PUSH0 DUP4 DUP3 ADD MSTORE PUSH0 PUSH1 0x80 DUP3 ADD MSTORE PUSH0 PUSH1 0xA0 DUP3 ADD MSTORE PUSH0 PUSH1 0xC0 DUP3 ADD MSTORE PUSH2 0x3E34 PUSH2 0x3BC1 JUMP JUMPDEST PUSH1 0xE0 DUP3 ADD MSTORE PUSH2 0x3E41 PUSH2 0x3BC1 JUMP JUMPDEST PUSH2 0x100 DUP3 ADD MSTORE ADD MSTORE JUMP JUMPDEST PUSH1 0x20 DUP1 SWAP2 PUSH2 0x3E57 PUSH2 0x3DF3 JUMP JUMPDEST POP PUSH1 0x40 MLOAD SWAP3 DUP2 DUP5 SWAP3 MLOAD SWAP2 DUP3 SWAP2 ADD DUP4 MCOPY DUP2 ADD PUSH0 DUP2 MSTORE SUB ADD SWAP1 KECCAK256 PUSH2 0x3EF4 PUSH1 0xD PUSH1 0x40 MLOAD SWAP3 PUSH2 0x3E81 DUP5 PUSH2 0x3585 JUMP JUMPDEST PUSH2 0x3E8F PUSH1 0xFF DUP3 SLOAD AND DUP6 PUSH2 0x3CA9 JUMP JUMPDEST PUSH1 0x1 DUP2 ADD SLOAD PUSH1 0x20 DUP6 ADD MSTORE PUSH1 0x2 DUP2 ADD SLOAD PUSH1 0x40 DUP6 ADD MSTORE PUSH1 0x3 DUP2 ADD SLOAD PUSH1 0x60 DUP6 ADD MSTORE PUSH1 0x4 DUP2 ADD SLOAD PUSH1 0x80 DUP6 ADD MSTORE PUSH1 0x5 DUP2 ADD SLOAD PUSH1 0xA0 DUP6 ADD MSTORE PUSH1 0x6 DUP2 ADD SLOAD PUSH1 0xC0 DUP6 ADD MSTORE PUSH2 0x3ED7 PUSH1 0x7 DUP3 ADD PUSH2 0x3767 JUMP JUMPDEST PUSH1 0xE0 DUP6 ADD MSTORE PUSH2 0x3EE8 PUSH1 0xA DUP3 ADD PUSH2 0x3767 JUMP JUMPDEST PUSH2 0x100 DUP6 ADD MSTORE ADD PUSH2 0x36C7 JUMP JUMPDEST PUSH2 0x120 DUP3 ADD MSTORE SWAP1 JUMP JUMPDEST SWAP3 SWAP2 SWAP1 PUSH1 0x40 MLOAD PUSH1 0x20 DUP6 MLOAD SWAP2 DUP2 DUP2 DUP2 DUP10 ADD SWAP5 DUP1 DUP7 DUP4 MCOPY DUP2 ADD PUSH0 DUP2 MSTORE SUB ADD SWAP1 KECCAK256 SWAP6 PUSH1 0x40 MLOAD SWAP3 DUP4 SWAP2 MLOAD DUP1 SWAP2 DUP4 MCOPY DUP2 ADD PUSH1 0x1 DUP2 MSTORE SUB ADD SWAP1 KECCAK256 SWAP1 DUP1 MLOAD SWAP1 PUSH1 0x1 PUSH1 0x1 PUSH1 0x40 SHL SUB DUP3 GT PUSH2 0x33B JUMPI DUP2 SWAP1 PUSH2 0x3F4F DUP5 SLOAD PUSH2 0x368F JUMP JUMPDEST PUSH1 0x1F DUP2 GT PUSH2 0x424A JUMPI JUMPDEST POP PUSH1 0x20 SWAP1 PUSH1 0x1F DUP4 GT PUSH1 0x1 EQ PUSH2 0x41E7 JUMPI PUSH0 SWAP3 PUSH2 0x41DC JUMPI JUMPDEST POP POP DUP2 PUSH1 0x1 SHL SWAP2 PUSH0 NOT SWAP1 PUSH1 0x3 SHL SHR NOT AND OR SWAP1 SSTORE JUMPDEST DUP1 MLOAD DUP1 MLOAD PUSH1 0xA DUP6 ADD SWAP2 PUSH1 0x1 PUSH1 0x1 PUSH1 0x40 SHL SUB DUP3 GT PUSH2 0x33B JUMPI PUSH2 0x3FA3 DUP4 SLOAD PUSH2 0x368F JUMP JUMPDEST PUSH1 0x1F DUP2 GT PUSH2 0x4197 JUMPI JUMPDEST POP PUSH1 0x20 SWAP1 PUSH1 0x1F DUP4 GT PUSH1 0x1 EQ PUSH2 0x4130 JUMPI PUSH1 0x20 SWAP5 SWAP4 SWAP3 SWAP2 PUSH0 SWAP2 DUP4 PUSH2 0x4125 JUMPI JUMPDEST POP POP DUP2 PUSH1 0x1 SHL SWAP2 PUSH0 NOT SWAP1 PUSH1 0x3 SHL SHR NOT AND OR SWAP1 SSTORE JUMPDEST PUSH1 0x40 DUP2 ADD MLOAD PUSH1 0xC DUP6 ADD DUP1 SLOAD PUSH1 0x1 PUSH1 0x1 PUSH1 0xA0 SHL SUB NOT AND PUSH1 0x1 PUSH1 0x1 PUSH1 0xA0 SHL SUB SWAP3 SWAP1 SWAP3 AND SWAP2 SWAP1 SWAP2 OR SWAP1 SSTORE ADD MLOAD DUP1 MLOAD SWAP1 SWAP3 SWAP1 PUSH1 0xB DUP3 ADD SWAP1 PUSH1 0x1 PUSH1 0x1 PUSH1 0x40 SHL SUB DUP2 GT PUSH2 0x33B JUMPI PUSH2 0x4028 DUP3 SLOAD PUSH2 0x368F JUMP JUMPDEST PUSH1 0x1F DUP2 GT PUSH2 0x40E0 JUMPI JUMPDEST POP PUSH1 0x20 SWAP5 PUSH1 0x1F DUP3 GT PUSH1 0x1 EQ PUSH2 0x407F JUMPI SWAP5 DUP2 SWAP3 SWAP4 SWAP5 SWAP6 PUSH0 SWAP3 PUSH2 0x4074 JUMPI JUMPDEST POP POP DUP2 PUSH1 0x1 SHL SWAP2 PUSH0 NOT SWAP1 PUSH1 0x3 SHL SHR NOT AND OR SWAP1 SSTORE JUMPDEST TIMESTAMP PUSH1 0x3 DUP3 ADD SSTORE DUP1 SLOAD PUSH1 0xFF NOT AND PUSH1 0x2 OR SWAP1 SSTORE JUMP JUMPDEST ADD MLOAD SWAP1 POP PUSH0 DUP1 PUSH2 0x404D JUMP JUMPDEST PUSH1 0x1F NOT DUP3 AND SWAP6 DUP4 PUSH0 MSTORE DUP1 PUSH0 KECCAK256 SWAP2 PUSH0 JUMPDEST DUP9 DUP2 LT PUSH2 0x40C8 JUMPI POP DUP4 PUSH1 0x1 SWAP6 SWAP7 SWAP8 SWAP9 LT PUSH2 0x40B0 JUMPI JUMPDEST POP POP POP DUP2 SHL ADD SWAP1 SSTORE PUSH2 0x4061 JUMP JUMPDEST ADD MLOAD PUSH0 NOT PUSH1 0xF8 DUP5 PUSH1 0x3 SHL AND SHR NOT AND SWAP1 SSTORE PUSH0 DUP1 DUP1 PUSH2 0x40A3 JUMP JUMPDEST SWAP2 SWAP3 PUSH1 0x20 PUSH1 0x1 DUP2 SWAP3 DUP7 DUP6 ADD MLOAD DUP2 SSTORE ADD SWAP5 ADD SWAP3 ADD PUSH2 0x408E JUMP JUMPDEST DUP3 PUSH0 MSTORE PUSH1 0x20 PUSH0 KECCAK256 PUSH1 0x1F DUP4 ADD PUSH1 0x5 SHR DUP2 ADD SWAP2 PUSH1 0x20 DUP5 LT PUSH2 0x411B JUMPI JUMPDEST PUSH1 0x1F ADD PUSH1 0x5 SHR ADD SWAP1 JUMPDEST DUP2 DUP2 LT PUSH2 0x4110 JUMPI POP PUSH2 0x4031 JUMP JUMPDEST PUSH0 DUP2 SSTORE PUSH1 0x1 ADD PUSH2 0x4103 JUMP JUMPDEST SWAP1 SWAP2 POP DUP2 SWAP1 PUSH2 0x40FA JUMP JUMPDEST ADD MLOAD SWAP1 POP PUSH0 DUP1 PUSH2 0x3FC9 JUMP JUMPDEST SWAP1 PUSH1 0x1F NOT DUP4 AND SWAP2 DUP5 PUSH0 MSTORE DUP2 PUSH0 KECCAK256 SWAP3 PUSH0 JUMPDEST DUP2 DUP2 LT PUSH2 0x417F JUMPI POP SWAP2 PUSH1 0x1 SWAP4 SWAP2 DUP6 PUSH1 0x20 SWAP9 SWAP8 SWAP7 SWAP5 LT PUSH2 0x4167 JUMPI JUMPDEST POP POP POP DUP2 SHL ADD SWAP1 SSTORE PUSH2 0x3FDD JUMP JUMPDEST ADD MLOAD PUSH0 NOT PUSH1 0xF8 DUP5 PUSH1 0x3 SHL AND SHR NOT AND SWAP1 SSTORE PUSH0 DUP1 DUP1 PUSH2 0x415A JUMP JUMPDEST SWAP3 SWAP4 PUSH1 0x20 PUSH1 0x1 DUP2 SWAP3 DUP8 DUP7 ADD MLOAD DUP2 SSTORE ADD SWAP6 ADD SWAP4 ADD PUSH2 0x4140 JUMP JUMPDEST DUP4 PUSH0 MSTORE PUSH1 0x20 PUSH0 KECCAK256 PUSH1 0x1F DUP5 ADD PUSH1 0x5 SHR DUP2 ADD SWAP2 PUSH1 0x20 DUP6 LT PUSH2 0x41D2 JUMPI JUMPDEST PUSH1 0x1F ADD PUSH1 0x5 SHR ADD SWAP1 JUMPDEST DUP2 DUP2 LT PUSH2 0x41C7 JUMPI POP PUSH2 0x3FAC JUMP JUMPDEST PUSH0 DUP2 SSTORE PUSH1 0x1 ADD PUSH2 0x41BA JUMP JUMPDEST SWAP1 SWAP2 POP DUP2 SWAP1 PUSH2 0x41B1 JUMP JUMPDEST ADD MLOAD SWAP1 POP PUSH0 DUP1 PUSH2 0x3F6E JUMP JUMPDEST PUSH0 DUP6 DUP2 MSTORE DUP3 DUP2 KECCAK256 SWAP4 POP PUSH1 0x1F NOT DUP6 AND SWAP1 JUMPDEST DUP2 DUP2 LT PUSH2 0x4232 JUMPI POP SWAP1 DUP5 PUSH1 0x1 SWAP6 SWAP5 SWAP4 SWAP3 LT PUSH2 0x421A JUMPI JUMPDEST POP POP POP DUP2 SHL ADD SWAP1 SSTORE PUSH2 0x3F82 JUMP JUMPDEST ADD MLOAD PUSH0 NOT PUSH1 0xF8 DUP5 PUSH1 0x3 SHL AND SHR NOT AND SWAP1 SSTORE PUSH0 DUP1 DUP1 PUSH2 0x420D JUMP JUMPDEST SWAP3 SWAP4 PUSH1 0x20 PUSH1 0x1 DUP2 SWAP3 DUP8 DUP7 ADD MLOAD DUP2 SSTORE ADD SWAP6 ADD SWAP4 ADD PUSH2 0x41F7 JUMP JUMPDEST SWAP1 SWAP2 POP DUP4 PUSH0 MSTORE PUSH1 0x20 PUSH0 KECCAK256 PUSH1 0x1F DUP5 ADD PUSH1 0x5 SHR DUP2 ADD SWAP2 PUSH1 0x20 DUP6 LT PUSH2 0x4290 JUMPI JUMPDEST SWAP1 PUSH1 0x1F DUP6 SWAP5 SWAP4 SWAP3 ADD PUSH1 0x5 SHR ADD SWAP1 JUMPDEST DUP2 DUP2 LT PUSH2 0x4282 JUMPI POP PUSH2 0x3F58 JUMP JUMPDEST PUSH0 DUP2 SSTORE DUP5 SWAP4 POP PUSH1 0x1 ADD PUSH2 0x4275 JUMP JUMPDEST SWAP1 SWAP2 POP DUP2 SWAP1 PUSH2 0x4267 JUMP JUMPDEST PUSH1 0x20 DUP1 SWAP2 SWAP5 SWAP4 SWAP3 SWAP5 PUSH1 0x40 MLOAD SWAP3 DUP2 DUP5 SWAP3 MLOAD SWAP2 DUP3 SWAP2 ADD DUP4 MCOPY DUP2 ADD PUSH0 DUP2 MSTORE SUB ADD SWAP1 KECCAK256 SWAP1 DUP1 MLOAD PUSH1 0xA DUP4 ADD SWAP1 DUP1 MLOAD SWAP1 PUSH1 0x1 PUSH1 0x1 PUSH1 0x40 SHL SUB DUP3 GT PUSH2 0x33B JUMPI PUSH2 0x42DC DUP4 SLOAD PUSH2 0x368F JUMP JUMPDEST PUSH1 0x1F DUP2 GT PUSH2 0x45E8 JUMPI JUMPDEST POP PUSH1 0x20 SWAP1 PUSH1 0x1F DUP4 GT PUSH1 0x1 EQ PUSH2 0x4581 JUMPI PUSH1 0x20 SWAP5 SWAP4 SWAP3 SWAP2 PUSH0 SWAP2 DUP4 PUSH2 0x4576 JUMPI JUMPDEST POP POP DUP2 PUSH1 0x1 SHL SWAP2 PUSH0 NOT SWAP1 PUSH1 0x3 SHL SHR NOT AND OR SWAP1 SSTORE JUMPDEST PUSH1 0x40 DUP2 ADD MLOAD PUSH1 0xC DUP5 ADD DUP1 SLOAD PUSH1 0x1 PUSH1 0x1 PUSH1 0xA0 SHL SUB NOT AND PUSH1 0x1 PUSH1 0x1 PUSH1 0xA0 SHL SUB SWAP3 SWAP1 SWAP3 AND SWAP2 SWAP1 SWAP2 OR SWAP1 SSTORE ADD MLOAD DUP1 MLOAD PUSH1 0xB DUP4 ADD SWAP2 PUSH1 0x1 PUSH1 0x1 PUSH1 0x40 SHL SUB DUP3 GT PUSH2 0x33B JUMPI DUP2 SWAP1 PUSH2 0x4360 DUP5 SLOAD PUSH2 0x368F JUMP JUMPDEST PUSH1 0x1F DUP2 GT PUSH2 0x4526 JUMPI JUMPDEST POP PUSH1 0x20 SWAP1 PUSH1 0x1F DUP4 GT PUSH1 0x1 EQ PUSH2 0x44C3 JUMPI PUSH0 SWAP3 PUSH2 0x44B8 JUMPI JUMPDEST POP POP DUP2 PUSH1 0x1 SHL SWAP2 PUSH0 NOT SWAP1 PUSH1 0x3 SHL SHR NOT AND OR SWAP1 SSTORE JUMPDEST TIMESTAMP PUSH1 0x2 DUP3 ADD SSTORE PUSH1 0x82 TIMESTAMP ADD SWAP1 DUP2 TIMESTAMP GT PUSH2 0x34F JUMPI PUSH1 0xD SWAP2 PUSH1 0x5 DUP3 ADD SSTORE PUSH1 0x1 PUSH1 0xFF NOT DUP3 SLOAD AND OR DUP2 SSTORE ADD DUP3 MLOAD PUSH1 0x1 PUSH1 0x1 PUSH1 0x40 SHL SUB DUP2 GT PUSH2 0x33B JUMPI PUSH2 0x43D3 DUP3 SLOAD PUSH2 0x368F JUMP JUMPDEST PUSH1 0x1F DUP2 GT PUSH2 0x4473 JUMPI JUMPDEST POP PUSH1 0x20 PUSH1 0x1F DUP3 GT PUSH1 0x1 EQ PUSH2 0x4415 JUMPI DUP2 SWAP3 SWAP4 SWAP5 PUSH0 SWAP3 PUSH2 0x440A JUMPI JUMPDEST POP POP DUP2 PUSH1 0x1 SHL SWAP2 PUSH0 NOT SWAP1 PUSH1 0x3 SHL SHR NOT AND OR SWAP1 SSTORE JUMP JUMPDEST ADD MLOAD SWAP1 POP PUSH0 DUP1 PUSH2 0x43F5 JUMP JUMPDEST PUSH1 0x1F NOT DUP3 AND SWAP1 DUP4 PUSH0 MSTORE DUP1 PUSH0 KECCAK256 SWAP2 PUSH0 JUMPDEST DUP2 DUP2 LT PUSH2 0x445B JUMPI POP SWAP6 DUP4 PUSH1 0x1 SWAP6 SWAP7 SWAP8 LT PUSH2 0x4443 JUMPI JUMPDEST POP POP POP DUP2 SHL ADD SWAP1 SSTORE JUMP JUMPDEST ADD MLOAD PUSH0 NOT PUSH1 0xF8 DUP5 PUSH1 0x3 SHL AND SHR NOT AND SWAP1 SSTORE PUSH0 DUP1 DUP1 PUSH2 0x4439 JUMP JUMPDEST SWAP2 SWAP3 PUSH1 0x20 PUSH1 0x1 DUP2 SWAP3 DUP7 DUP12 ADD MLOAD DUP2 SSTORE ADD SWAP5 ADD SWAP3 ADD PUSH2 0x4424 JUMP JUMPDEST DUP3 PUSH0 MSTORE PUSH1 0x20 PUSH0 KECCAK256 PUSH1 0x1F DUP4 ADD PUSH1 0x5 SHR DUP2 ADD SWAP2 PUSH1 0x20 DUP5 LT PUSH2 0x44AE JUMPI JUMPDEST PUSH1 0x1F ADD PUSH1 0x5 SHR ADD SWAP1 JUMPDEST DUP2 DUP2 LT PUSH2 0x44A3 JUMPI POP PUSH2 0x43DC JUMP JUMPDEST PUSH0 DUP2 SSTORE PUSH1 0x1 ADD PUSH2 0x4496 JUMP JUMPDEST SWAP1 SWAP2 POP DUP2 SWAP1 PUSH2 0x448D JUMP JUMPDEST ADD MLOAD SWAP1 POP PUSH0 DUP1 PUSH2 0x437F JUMP JUMPDEST PUSH0 DUP6 DUP2 MSTORE DUP3 DUP2 KECCAK256 SWAP4 POP PUSH1 0x1F NOT DUP6 AND SWAP1 JUMPDEST DUP2 DUP2 LT PUSH2 0x450E JUMPI POP SWAP1 DUP5 PUSH1 0x1 SWAP6 SWAP5 SWAP4 SWAP3 LT PUSH2 0x44F6 JUMPI JUMPDEST POP POP POP DUP2 SHL ADD SWAP1 SSTORE PUSH2 0x4393 JUMP JUMPDEST ADD MLOAD PUSH0 NOT PUSH1 0xF8 DUP5 PUSH1 0x3 SHL AND SHR NOT AND SWAP1 SSTORE PUSH0 DUP1 DUP1 PUSH2 0x44E9 JUMP JUMPDEST SWAP3 SWAP4 PUSH1 0x20 PUSH1 0x1 DUP2 SWAP3 DUP8 DUP7 ADD MLOAD DUP2 SSTORE ADD SWAP6 ADD SWAP4 ADD PUSH2 0x44D3 JUMP JUMPDEST SWAP1 SWAP2 POP DUP4 PUSH0 MSTORE PUSH1 0x20 PUSH0 KECCAK256 PUSH1 0x1F DUP5 ADD PUSH1 0x5 SHR DUP2 ADD SWAP2 PUSH1 0x20 DUP6 LT PUSH2 0x456C JUMPI JUMPDEST SWAP1 PUSH1 0x1F DUP6 SWAP5 SWAP4 SWAP3 ADD PUSH1 0x5 SHR ADD SWAP1 JUMPDEST DUP2 DUP2 LT PUSH2 0x455E JUMPI POP PUSH2 0x4369 JUMP JUMPDEST PUSH0 DUP2 SSTORE DUP5 SWAP4 POP PUSH1 0x1 ADD PUSH2 0x4551 JUMP JUMPDEST SWAP1 SWAP2 POP DUP2 SWAP1 PUSH2 0x4543 JUMP JUMPDEST ADD MLOAD SWAP1 POP PUSH0 DUP1 PUSH2 0x4302 JUMP JUMPDEST SWAP1 PUSH1 0x1F NOT DUP4 AND SWAP2 DUP5 PUSH0 MSTORE DUP2 PUSH0 KECCAK256 SWAP3 PUSH0 JUMPDEST DUP2 DUP2 LT PUSH2 0x45D0 JUMPI POP SWAP2 PUSH1 0x1 SWAP4 SWAP2 DUP6 PUSH1 0x20 SWAP9 SWAP8 SWAP7 SWAP5 LT PUSH2 0x45B8 JUMPI JUMPDEST POP POP POP DUP2 SHL ADD SWAP1 SSTORE PUSH2 0x4316 JUMP JUMPDEST ADD MLOAD PUSH0 NOT PUSH1 0xF8 DUP5 PUSH1 0x3 SHL AND SHR NOT AND SWAP1 SSTORE PUSH0 DUP1 DUP1 PUSH2 0x45AB JUMP JUMPDEST SWAP3 SWAP4 PUSH1 0x20 PUSH1 0x1 DUP2 SWAP3 DUP8 DUP7 ADD MLOAD DUP2 SSTORE ADD SWAP6 ADD SWAP4 ADD PUSH2 0x4591 JUMP JUMPDEST DUP4 PUSH0 MSTORE PUSH1 0x20 PUSH0 KECCAK256 PUSH1 0x1F DUP5 ADD PUSH1 0x5 SHR DUP2 ADD SWAP2 PUSH1 0x20 DUP6 LT PUSH2 0x4623 JUMPI JUMPDEST PUSH1 0x1F ADD PUSH1 0x5 SHR ADD SWAP1 JUMPDEST DUP2 DUP2 LT PUSH2 0x4618 JUMPI POP PUSH2 0x42E5 JUMP JUMPDEST PUSH0 DUP2 SSTORE PUSH1 0x1 ADD PUSH2 0x460B JUMP JUMPDEST SWAP1 SWAP2 POP DUP2 SWAP1 PUSH2 0x4602 JUMP JUMPDEST SWAP3 SWAP1 SWAP2 PUSH1 0x40 MLOAD PUSH2 0x463C DUP2 PUSH2 0x3585 JUMP JUMPDEST PUSH0 DUP2 MSTORE PUSH1 0x20 DUP2 ADD SWAP5 TIMESTAMP DUP7 MSTORE PUSH1 0x40 DUP3 ADD PUSH0 DUP2 MSTORE PUSH1 0x60 DUP4 ADD PUSH0 DUP2 MSTORE PUSH1 0x80 DUP5 ADD PUSH0 DUP2 MSTORE PUSH1 0xA0 DUP6 ADD SWAP2 PUSH0 DUP4 MSTORE PUSH1 0xC0 DUP7 ADD SWAP4 PUSH0 DUP6 MSTORE PUSH1 0xE0 DUP8 ADD SWAP6 DUP7 MSTORE PUSH2 0x100 DUP8 ADD SWAP10 DUP11 MSTORE PUSH1 0x20 SWAP11 DUP12 DUP1 PUSH1 0x40 MLOAD SWAP11 PUSH2 0x468E DUP3 DUP14 PUSH2 0x35A1 JUMP JUMPDEST PUSH0 DUP13 MSTORE PUSH2 0x120 DUP12 ADD SWAP12 DUP13 MSTORE PUSH1 0x40 MLOAD SWAP3 DUP2 DUP5 SWAP3 MLOAD SWAP2 DUP3 SWAP2 ADD DUP4 MCOPY DUP2 ADD PUSH0 DUP2 MSTORE SUB ADD SWAP1 KECCAK256 SWAP8 MLOAD PUSH1 0x7 DUP2 LT ISZERO PUSH2 0x273D JUMPI PUSH1 0xFF DUP1 NOT DUP11 SLOAD AND SWAP2 AND OR DUP9 SSTORE MLOAD PUSH1 0x1 DUP9 ADD SSTORE MLOAD PUSH1 0x2 DUP8 ADD SSTORE MLOAD PUSH1 0x3 DUP7 ADD SSTORE MLOAD PUSH1 0x4 DUP6 ADD SSTORE MLOAD PUSH1 0x5 DUP5 ADD SSTORE MLOAD PUSH1 0x6 DUP4 ADD SSTORE PUSH1 0x7 DUP3 ADD SWAP1 MLOAD SWAP1 DUP2 MLOAD DUP1 MLOAD SWAP1 PUSH1 0x1 PUSH1 0x1 PUSH1 0x40 SHL SUB DUP3 GT PUSH2 0x33B JUMPI DUP2 SWAP1 PUSH2 0x4711 DUP5 SLOAD PUSH2 0x368F JUMP JUMPDEST PUSH1 0x1F DUP2 GT PUSH2 0x4C1E JUMPI JUMPDEST POP DUP10 SWAP1 PUSH1 0x1F DUP4 GT PUSH1 0x1 EQ PUSH2 0x4BBB JUMPI PUSH0 SWAP3 PUSH2 0x4BB0 JUMPI JUMPDEST POP POP DUP2 PUSH1 0x1 SHL SWAP2 PUSH0 NOT SWAP1 PUSH1 0x3 SHL SHR NOT AND OR SWAP1 SSTORE JUMPDEST PUSH1 0x8 DUP3 ADD DUP7 DUP3 ADD MLOAD DUP1 MLOAD SWAP1 PUSH1 0x1 PUSH1 0x1 PUSH1 0x40 SHL SUB DUP3 GT PUSH2 0x33B JUMPI DUP2 SWAP1 PUSH2 0x4768 DUP5 SLOAD PUSH2 0x368F JUMP JUMPDEST PUSH1 0x1F DUP2 GT PUSH2 0x4B62 JUMPI JUMPDEST POP DUP10 SWAP1 PUSH1 0x1F DUP4 GT PUSH1 0x1 EQ PUSH2 0x4AFF JUMPI PUSH0 SWAP3 PUSH2 0x4AF4 JUMPI JUMPDEST POP POP DUP2 PUSH1 0x1 SHL SWAP2 PUSH0 NOT SWAP1 PUSH1 0x3 SHL SHR NOT AND OR SWAP1 SSTORE JUMPDEST PUSH1 0x40 ADD MLOAD PUSH1 0x9 DUP3 ADD DUP1 SLOAD PUSH1 0x1 PUSH1 0x1 PUSH1 0xA0 SHL SUB NOT AND PUSH1 0x1 PUSH1 0x1 PUSH1 0xA0 SHL SUB SWAP3 SWAP1 SWAP3 AND SWAP2 SWAP1 SWAP2 OR SWAP1 SSTORE SWAP3 MLOAD DUP1 MLOAD DUP1 MLOAD SWAP2 SWAP5 SWAP2 PUSH1 0xA DUP4 ADD SWAP2 PUSH1 0x1 PUSH1 0x1 PUSH1 0x40 SHL SUB DUP3 GT PUSH2 0x33B JUMPI DUP2 SWAP1 PUSH2 0x47E8 DUP5 SLOAD PUSH2 0x368F JUMP JUMPDEST PUSH1 0x1F DUP2 GT PUSH2 0x4AA6 JUMPI JUMPDEST POP DUP9 SWAP1 PUSH1 0x1F DUP4 GT PUSH1 0x1 EQ PUSH2 0x4A43 JUMPI PUSH0 SWAP3 PUSH2 0x4A38 JUMPI JUMPDEST POP POP DUP2 PUSH1 0x1 SHL SWAP2 PUSH0 NOT SWAP1 PUSH1 0x3 SHL SHR NOT AND OR SWAP1 SSTORE JUMPDEST PUSH1 0xB DUP2 ADD SWAP4 DUP6 DUP2 ADD MLOAD SWAP5 DUP6 MLOAD SWAP6 PUSH1 0x1 PUSH1 0x1 PUSH1 0x40 SHL SUB DUP8 GT PUSH2 0x33B JUMPI PUSH2 0x483F DUP3 SLOAD PUSH2 0x368F JUMP JUMPDEST PUSH1 0x1F DUP2 GT PUSH2 0x49F5 JUMPI JUMPDEST POP DUP8 SWAP1 PUSH1 0x1F DUP9 GT PUSH1 0x1 EQ PUSH2 0x498E JUMPI SWAP7 DUP1 SWAP2 PUSH1 0xD SWAP7 SWAP8 SWAP9 PUSH0 SWAP3 PUSH2 0x4983 JUMPI JUMPDEST POP POP DUP2 PUSH1 0x1 SHL SWAP2 PUSH0 NOT SWAP1 PUSH1 0x3 SHL SHR NOT AND OR SWAP1 SSTORE JUMPDEST PUSH1 0x40 ADD MLOAD PUSH1 0xC DUP3 ADD DUP1 SLOAD PUSH1 0x1 PUSH1 0x1 PUSH1 0xA0 SHL SUB NOT AND PUSH1 0x1 PUSH1 0x1 PUSH1 0xA0 SHL SUB SWAP3 SWAP1 SWAP3 AND SWAP2 SWAP1 SWAP2 OR SWAP1 SSTORE SWAP2 MLOAD DUP1 MLOAD SWAP1 SWAP5 SWAP2 SWAP1 SWAP3 ADD SWAP2 SWAP1 PUSH1 0x1 PUSH1 0x1 PUSH1 0x40 SHL SUB DUP3 GT PUSH2 0x33B JUMPI PUSH2 0x48C3 DUP4 SLOAD PUSH2 0x368F JUMP JUMPDEST PUSH1 0x1F DUP2 GT PUSH2 0x4940 JUMPI JUMPDEST POP DUP1 PUSH1 0x1F DUP4 GT PUSH1 0x1 EQ PUSH2 0x48F9 JUMPI POP DUP2 SWAP3 SWAP4 SWAP5 PUSH0 SWAP3 PUSH2 0x440A JUMPI POP POP DUP2 PUSH1 0x1 SHL SWAP2 PUSH0 NOT SWAP1 PUSH1 0x3 SHL SHR NOT AND OR SWAP1 SSTORE JUMP JUMPDEST SWAP1 PUSH1 0x1F NOT DUP4 AND SWAP6 DUP5 PUSH0 MSTORE DUP3 PUSH0 KECCAK256 SWAP3 PUSH0 SWAP1 JUMPDEST DUP9 DUP3 LT PUSH2 0x4928 JUMPI POP POP DUP4 PUSH1 0x1 SWAP6 SWAP7 SWAP8 LT PUSH2 0x4443 JUMPI POP POP POP DUP2 SHL ADD SWAP1 SSTORE JUMP JUMPDEST DUP1 PUSH1 0x1 DUP6 SWAP7 DUP3 SWAP5 SWAP7 DUP7 ADD MLOAD DUP2 SSTORE ADD SWAP6 ADD SWAP4 ADD SWAP1 PUSH2 0x490A JUMP JUMPDEST DUP4 PUSH0 MSTORE DUP2 PUSH0 KECCAK256 PUSH1 0x1F DUP5 ADD PUSH1 0x5 SHR DUP2 ADD SWAP2 DUP4 DUP6 LT PUSH2 0x4979 JUMPI JUMPDEST PUSH1 0x1F ADD PUSH1 0x5 SHR ADD SWAP1 JUMPDEST DUP2 DUP2 LT PUSH2 0x496E JUMPI POP PUSH2 0x48CC JUMP JUMPDEST PUSH0 DUP2 SSTORE PUSH1 0x1 ADD PUSH2 0x4961 JUMP JUMPDEST SWAP1 SWAP2 POP DUP2 SWAP1 PUSH2 0x4958 JUMP JUMPDEST ADD MLOAD SWAP1 POP PUSH0 DUP1 PUSH2 0x4865 JUMP JUMPDEST SWAP1 PUSH1 0x1F NOT DUP9 AND SWAP2 DUP4 PUSH0 MSTORE DUP10 PUSH0 KECCAK256 SWAP3 PUSH0 JUMPDEST DUP12 DUP3 DUP3 LT PUSH2 0x49DF JUMPI POP POP SWAP2 PUSH1 0x1 SWAP4 SWAP2 DUP11 PUSH1 0xD SWAP10 SWAP11 SWAP12 SWAP5 LT PUSH2 0x49C7 JUMPI JUMPDEST POP POP POP DUP2 SHL ADD SWAP1 SSTORE PUSH2 0x4879 JUMP JUMPDEST ADD MLOAD PUSH0 NOT PUSH1 0xF8 DUP5 PUSH1 0x3 SHL AND SHR NOT AND SWAP1 SSTORE PUSH0 DUP1 DUP1 PUSH2 0x49BA JUMP JUMPDEST PUSH1 0x1 DUP6 SWAP7 DUP3 SWAP4 SWAP7 DUP7 ADD MLOAD DUP2 SSTORE ADD SWAP6 ADD SWAP4 ADD PUSH2 0x499E JUMP JUMPDEST DUP3 PUSH0 MSTORE DUP9 PUSH0 KECCAK256 PUSH1 0x1F DUP10 ADD PUSH1 0x5 SHR DUP2 ADD SWAP2 DUP11 DUP11 LT PUSH2 0x4A2E JUMPI JUMPDEST PUSH1 0x1F ADD PUSH1 0x5 SHR ADD SWAP1 JUMPDEST DUP2 DUP2 LT PUSH2 0x4A23 JUMPI POP PUSH2 0x4848 JUMP JUMPDEST PUSH0 DUP2 SSTORE PUSH1 0x1 ADD PUSH2 0x4A16 JUMP JUMPDEST SWAP1 SWAP2 POP DUP2 SWAP1 PUSH2 0x4A0D JUMP JUMPDEST ADD MLOAD SWAP1 POP PUSH0 DUP1 PUSH2 0x4806 JUMP JUMPDEST PUSH0 DUP6 DUP2 MSTORE DUP11 DUP2 KECCAK256 SWAP4 POP PUSH1 0x1F NOT DUP6 AND SWAP1 JUMPDEST DUP12 DUP3 DUP3 LT PUSH2 0x4A90 JUMPI POP POP SWAP1 DUP5 PUSH1 0x1 SWAP6 SWAP5 SWAP4 SWAP3 LT PUSH2 0x4A78 JUMPI JUMPDEST POP POP POP DUP2 SHL ADD SWAP1 SSTORE PUSH2 0x481A JUMP JUMPDEST ADD MLOAD PUSH0 NOT PUSH1 0xF8 DUP5 PUSH1 0x3 SHL AND SHR NOT AND SWAP1 SSTORE PUSH0 DUP1 DUP1 PUSH2 0x4A6B JUMP JUMPDEST PUSH1 0x1 DUP6 SWAP7 DUP3 SWAP4 SWAP7 DUP7 ADD MLOAD DUP2 SSTORE ADD SWAP6 ADD SWAP4 ADD PUSH2 0x4A53 JUMP JUMPDEST SWAP1 SWAP2 POP DUP4 PUSH0 MSTORE DUP9 PUSH0 KECCAK256 PUSH1 0x1F DUP5 ADD PUSH1 0x5 SHR DUP2 ADD SWAP2 DUP11 DUP6 LT PUSH2 0x4AEA JUMPI JUMPDEST SWAP1 PUSH1 0x1F DUP6 SWAP5 SWAP4 SWAP3 ADD PUSH1 0x5 SHR ADD SWAP1 JUMPDEST DUP2 DUP2 LT PUSH2 0x4ADC JUMPI POP PUSH2 0x47F1 JUMP JUMPDEST PUSH0 DUP2 SSTORE DUP5 SWAP4 POP PUSH1 0x1 ADD PUSH2 0x4ACF JUMP JUMPDEST SWAP1 SWAP2 POP DUP2 SWAP1 PUSH2 0x4AC1 JUMP JUMPDEST ADD MLOAD SWAP1 POP PUSH0 DUP1 PUSH2 0x4786 JUMP JUMPDEST PUSH0 DUP6 DUP2 MSTORE DUP12 DUP2 KECCAK256 SWAP4 POP PUSH1 0x1F NOT DUP6 AND SWAP1 JUMPDEST DUP13 DUP3 DUP3 LT PUSH2 0x4B4C JUMPI POP POP SWAP1 DUP5 PUSH1 0x1 SWAP6 SWAP5 SWAP4 SWAP3 LT PUSH2 0x4B34 JUMPI JUMPDEST POP POP POP DUP2 SHL ADD SWAP1 SSTORE PUSH2 0x479A JUMP JUMPDEST ADD MLOAD PUSH0 NOT PUSH1 0xF8 DUP5 PUSH1 0x3 SHL AND SHR NOT AND SWAP1 SSTORE PUSH0 DUP1 DUP1 PUSH2 0x4B27 JUMP JUMPDEST PUSH1 0x1 DUP6 SWAP7 DUP3 SWAP4 SWAP7 DUP7 ADD MLOAD DUP2 SSTORE ADD SWAP6 ADD SWAP4 ADD PUSH2 0x4B0F JUMP JUMPDEST SWAP1 SWAP2 POP DUP4 PUSH0 MSTORE DUP10 PUSH0 KECCAK256 PUSH1 0x1F DUP5 ADD PUSH1 0x5 SHR DUP2 ADD SWAP2 DUP12 DUP6 LT PUSH2 0x4BA6 JUMPI JUMPDEST SWAP1 PUSH1 0x1F DUP6 SWAP5 SWAP4 SWAP3 ADD PUSH1 0x5 SHR ADD SWAP1 JUMPDEST DUP2 DUP2 LT PUSH2 0x4B98 JUMPI POP PUSH2 0x4771 JUMP JUMPDEST PUSH0 DUP2 SSTORE DUP5 SWAP4 POP PUSH1 0x1 ADD PUSH2 0x4B8B JUMP JUMPDEST SWAP1 SWAP2 POP DUP2 SWAP1 PUSH2 0x4B7D JUMP JUMPDEST ADD MLOAD SWAP1 POP PUSH0 DUP1 PUSH2 0x472F JUMP JUMPDEST PUSH0 DUP6 DUP2 MSTORE DUP12 DUP2 KECCAK256 SWAP4 POP PUSH1 0x1F NOT DUP6 AND SWAP1 JUMPDEST DUP13 DUP3 DUP3 LT PUSH2 0x4C08 JUMPI POP POP SWAP1 DUP5 PUSH1 0x1 SWAP6 SWAP5 SWAP4 SWAP3 LT PUSH2 0x4BF0 JUMPI JUMPDEST POP POP POP DUP2 SHL ADD SWAP1 SSTORE PUSH2 0x4743 JUMP JUMPDEST ADD MLOAD PUSH0 NOT PUSH1 0xF8 DUP5 PUSH1 0x3 SHL AND SHR NOT AND SWAP1 SSTORE PUSH0 DUP1 DUP1 PUSH2 0x4BE3 JUMP JUMPDEST PUSH1 0x1 DUP6 SWAP7 DUP3 SWAP4 SWAP7 DUP7 ADD MLOAD DUP2 SSTORE ADD SWAP6 ADD SWAP4 ADD PUSH2 0x4BCB JUMP JUMPDEST SWAP1 SWAP2 POP DUP4 PUSH0 MSTORE DUP10 PUSH0 KECCAK256 PUSH1 0x1F DUP5 ADD PUSH1 0x5 SHR DUP2 ADD SWAP2 DUP12 DUP6 LT PUSH2 0x4C62 JUMPI JUMPDEST SWAP1 PUSH1 0x1F DUP6 SWAP5 SWAP4 SWAP3 ADD PUSH1 0x5 SHR ADD SWAP1 JUMPDEST DUP2 DUP2 LT PUSH2 0x4C54 JUMPI POP PUSH2 0x471A JUMP JUMPDEST PUSH0 DUP2 SSTORE DUP5 SWAP4 POP PUSH1 0x1 ADD PUSH2 0x4C47 JUMP JUMPDEST SWAP1 SWAP2 POP DUP2 SWAP1 PUSH2 0x4C39 JUMP INVALID LOG2 PUSH5 0x6970667358 0x22 SLT KECCAK256 PUSH21 0x4DF9CEDA998903CA0C150CAD5F72FC13ECC4A475AA 0xC7 0xAC PUSH3 0x374DA6 0x25 MUL 0xD9 EXTCODECOPY PUSH5 0x736F6C6343 STOP ADDMOD SHL STOP CALLER "},"methodIdentifiers":{"allCdobData(uint256)":"43762aa8","approveCdob(string,string,string,string,address,string)":"2b93f7f2","cdobDataById(string)":"72c17cb9","certDetailById(string)":"34a34f30","createCertificateDetails((string,string,address),(string,string,address),string)":"fb5fb9a3","createUserCertificate(string,string,address)":"2e9cf827","dokuAdminById(string)":"7ab09648","dokuTeknisById(string)":"500619d0","getAllCdob()":"f14261d2","getAllCdobByInstance(string)":"6f12c230","getCdobDetails(string)":"7e8f8da7","getCertDetail(string)":"9aaa5d8b","getCertDetails(string)":"be2e2325","getRejectMsg(string)":"6d1aa7d5","getRejectsMsg(string)":"761fb19a","getSenderDetail(string)":"17e68309","rejectCdob(string,string,string,string,address)":"1acf2500","rejectMsgById(string)":"bf3f80ac","renewRequestCdob(string,(string,string),(string,string,string,string,string,string,string,string))":"a7226527","requestCdob(string,string,string,address,uint8,(string,string),(string,string,string,string,string,string,string,string))":"682053d9","updateBpomApproveDetails(string,string,(string,string,address))":"f5104ff1","updateBpomExtendCertificateDetails(string,string)":"f53ef126","updateBpomRejectDetails(string,string,(string,string,address))":"e9c260d7","updateExtendRenewDetails(string,uint256)":"9740dbed","updateRenewDetails(string)":"19859c87"}}}}}