{"contracts/ObatTradisional.sol":{"ObatTradisional":{"abi":[{"inputs":[{"internalType":"address","name":"roleManagerAddr","type":"address"},{"internalType":"address","name":"obatSharedAddr","type":"address"},{"internalType":"address","name":"nieManagerAddr","type":"address"}],"stateMutability":"nonpayable","type":"constructor"},{"inputs":[],"name":"ReentrancyGuardReentrantCall","type":"error"},{"anonymous":false,"inputs":[{"indexed":false,"internalType":"string","name":"batchName","type":"string"},{"indexed":false,"internalType":"uint8","name":"quantity","type":"uint8"},{"indexed":false,"internalType":"string","name":"namaProduk","type":"string"},{"indexed":false,"internalType":"string","name":"factoryInstance","type":"string"},{"indexed":false,"internalType":"uint256","name":"timestamp","type":"uint256"}],"name":"AddObatBatchProduction","type":"event"},{"anonymous":false,"inputs":[{"indexed":false,"internalType":"string","name":"namaProduk","type":"string"},{"indexed":false,"internalType":"uint256","name":"tipeObat","type":"uint256"},{"indexed":false,"internalType":"string","name":"factoryInstance","type":"string"},{"indexed":false,"internalType":"address","name":"factoryAddresses","type":"address"},{"indexed":false,"internalType":"uint256","name":"timestamp","type":"uint256"}],"name":"ObatCreated","type":"event"},{"inputs":[{"internalType":"string","name":"obatId","type":"string"},{"internalType":"string","name":"namaProduk","type":"string"},{"internalType":"string","name":"batchName","type":"string"},{"internalType":"uint8","name":"obatQuantity","type":"uint8"},{"internalType":"string[]","name":"obatIpfs","type":"string[]"},{"internalType":"string","name":"factoryInstance","type":"string"}],"name":"addBatchProduction","outputs":[],"stateMutability":"nonpayable","type":"function"},{"inputs":[{"internalType":"uint256","name":"","type":"uint256"}],"name":"allObatIds","outputs":[{"internalType":"string","name":"","type":"string"}],"stateMutability":"view","type":"function"},{"inputs":[{"internalType":"string","name":"obatId","type":"string"},{"internalType":"string","name":"merk","type":"string"},{"internalType":"string","name":"namaProduk","type":"string"},{"internalType":"string[]","name":"klaim","type":"string[]"},{"internalType":"string","name":"kemasan","type":"string"},{"internalType":"string[]","name":"komposisi","type":"string[]"},{"internalType":"string","name":"factoryInstance","type":"string"},{"internalType":"enum EnumsLibrary.TipePermohonanCdob","name":"tipeObat","type":"uint8"},{"internalType":"string","name":"cpotbIpfs","type":"string"},{"internalType":"string","name":"jenisObat","type":"string"}],"name":"createObat","outputs":[],"stateMutability":"nonpayable","type":"function"},{"inputs":[{"internalType":"string","name":"obatId","type":"string"},{"internalType":"string","name":"batchName","type":"string"}],"name":"detailBatchProduction","outputs":[{"components":[{"internalType":"enum EnumsLibrary.ObatAvailability","name":"statusStok","type":"uint8"},{"internalType":"string","name":"namaProduk","type":"string"},{"internalType":"string","name":"batchName","type":"string"},{"internalType":"uint8","name":"obatQuantity","type":"uint8"},{"internalType":"string","name":"factoryInstance","type":"string"}],"internalType":"struct ObatShared.ObatProduction","name":"","type":"tuple"},{"internalType":"string[]","name":"","type":"string[]"}],"stateMutability":"view","type":"function"},{"inputs":[{"internalType":"string","name":"obatId","type":"string"}],"name":"detailObat","outputs":[{"components":[{"internalType":"string","name":"merk","type":"string"},{"internalType":"string","name":"namaProduk","type":"string"},{"internalType":"string[]","name":"klaim","type":"string[]"},{"internalType":"string[]","name":"komposisi","type":"string[]"},{"internalType":"string","name":"kemasan","type":"string"},{"internalType":"string","name":"factoryInstance","type":"string"},{"internalType":"address","name":"factoryAddr","type":"address"},{"internalType":"enum EnumsLibrary.TipePermohonanCdob","name":"tipeObat","type":"uint8"},{"internalType":"string","name":"cpotbHash","type":"string"},{"internalType":"string","name":"cdobHash","type":"string"},{"internalType":"string","name":"jenisObat","type":"string"}],"internalType":"struct ObatShared.ObatDetail","name":"","type":"tuple"}],"stateMutability":"view","type":"function"},{"inputs":[{"internalType":"string","name":"instanceName","type":"string"}],"name":"getAllBatchProductionByInstance","outputs":[{"components":[{"internalType":"string","name":"obatId","type":"string"},{"internalType":"string","name":"namaProduk","type":"string"},{"internalType":"string","name":"batchName","type":"string"},{"internalType":"uint8","name":"obatQuantity","type":"uint8"},{"internalType":"enum EnumsLibrary.ObatAvailability","name":"statusStok","type":"uint8"},{"internalType":"string","name":"ownerInstance","type":"string"}],"internalType":"struct ObatTradisional.ObatOutputBatch[]","name":"","type":"tuple[]"}],"stateMutability":"view","type":"function"},{"inputs":[],"name":"getAllBatchProductionReadyStock","outputs":[{"components":[{"internalType":"string","name":"obatId","type":"string"},{"internalType":"string","name":"namaProduk","type":"string"},{"internalType":"string","name":"batchName","type":"string"},{"internalType":"uint8","name":"obatQuantity","type":"uint8"},{"internalType":"enum EnumsLibrary.ObatAvailability","name":"statusStok","type":"uint8"},{"internalType":"string","name":"ownerInstance","type":"string"}],"internalType":"struct ObatTradisional.ObatOutputBatch[]","name":"","type":"tuple[]"}],"stateMutability":"view","type":"function"},{"inputs":[],"name":"getAllObat","outputs":[{"components":[{"internalType":"string","name":"obatId","type":"string"},{"internalType":"string","name":"namaProduk","type":"string"},{"internalType":"string","name":"nieNumber","type":"string"},{"internalType":"uint8","name":"nieStatus","type":"uint8"},{"internalType":"string","name":"factoryInstance","type":"string"}],"internalType":"struct ObatTradisional.ObatOutputNie[]","name":"","type":"tuple[]"}],"stateMutability":"view","type":"function"},{"inputs":[{"internalType":"string","name":"instanceName","type":"string"}],"name":"getAllObatByInstance","outputs":[{"components":[{"internalType":"string","name":"obatId","type":"string"},{"internalType":"string","name":"namaProduk","type":"string"},{"internalType":"string","name":"nieNumber","type":"string"},{"internalType":"uint8","name":"nieStatus","type":"uint8"},{"internalType":"string","name":"factoryInstance","type":"string"}],"internalType":"struct ObatTradisional.ObatOutputNie[]","name":"","type":"tuple[]"}],"stateMutability":"view","type":"function"},{"inputs":[],"name":"nieManager","outputs":[{"internalType":"contract NieManager","name":"","type":"address"}],"stateMutability":"view","type":"function"},{"inputs":[],"name":"obatShared","outputs":[{"internalType":"contract ObatShared","name":"","type":"address"}],"stateMutability":"view","type":"function"},{"inputs":[],"name":"roleManager","outputs":[{"internalType":"contract RoleManager","name":"","type":"address"}],"stateMutability":"view","type":"function"}],"evm":{"bytecode":{"linkReferences":{},"object":"60e03461011d57601f6125d338819003918201601f19168301916001600160401b038311848410176101215780849260609460405283398101031261011d5761004781610135565b90610060604061005960208401610135565b9201610135565b60015f556001600160a01b0392831660805290821660a0521660c052604051612489908161014a823960805181818161018a015281816104e4015281816109c50152818161110b01528181611299015281816117c201526119e9015260a0518181816101cd0152818161059a01528181610a0801528181610d6201528181610f640152818161133d015281816115ba0152818161173a015261184f015260c0518181816106d0015281816108ee01528181610b4c01526113610152f35b5f80fd5b634e487b7160e01b5f52604160045260245ffd5b51906001600160a01b038216820361011d5756fe6080806040526004361015610012575f80fd5b5f905f3560e01c908162435da5146119d7575080631bbd28f9146117695780633fca88cb146117255780634d17d2731461151357806350168fbb146112675780635425368114610ee5578063a1e0a4b014610d2e578063baeedfad1461096c578063cb960d6b1461091d578063dd683b28146108d9578063de966a721461037a5763e521d586146100a1575f80fd5b346103775760c0366003190112610377576004356001600160401b038111610375576100d1903690600401611aa6565b6024356001600160401b038111610371576100f0903690600401611aa6565b6044356001600160401b0381116103335761010f903690600401611aa6565b906064359060ff821680920361032457846084356001600160401b0381116103755761013f903690600401611dfe565b60a4356001600160401b0381116103715761015e903690600401611aa6565b6040516395a8c58d60e01b81523360048201525f60248201529096906020816044816001600160a01b037f0000000000000000000000000000000000000000000000000000000000000000165afa8015610366576101c3918591610337575b50611e94565b6101cb612435565b7f00000000000000000000000000000000000000000000000000000000000000006001600160a01b031691823b156103335761024a926102388580946102866102748a9661025c8e6040519b8c9a8b998a98637290eac360e11b8a5260c060048b015260c48a0190611aec565b8881036003190160248a015290611aec565b86810360031901604488015290611aec565b908d6064860152600319858303016084860152611bf7565b8281036003190160a48401528d611aec565b03925af1801561032857610309575b50926102f9856102eb7f50f3a56867c9c3b6c4af5856fac7e97e8644fe1c677c25ea989ab1ee658a6fc5956102d89560405196879660a0885260a0880190611aec565b9160208701528582036040870152611aec565b908382036060850152611aec565b4260808301520390a16001815580f35b816103179195949395611a6a565b610324579091845f610295565b8480fd5b6040513d84823e3d90fd5b8380fd5b610359915060203d60201161035f575b6103518183611a6a565b810190611e7c565b5f6101bd565b503d610347565b6040513d86823e3d90fd5b8280fd5b505b80fd5b50346107fb576101403660031901126107fb576004356001600160401b0381116107fb576103ac903690600401611aa6565b6024356001600160401b0381116107fb576103cb903690600401611aa6565b6044356001600160401b0381116107fb576103ea903690600401611aa6565b916064356001600160401b0381116107fb5761040a903690600401611dfe565b906084356001600160401b0381116107fb5761042a903690600401611aa6565b9160a4356001600160401b0381116107fb5761044a903690600401611dfe565b9260c4356001600160401b0381116107fb5761046a903690600401611aa6565b9360e4359560028710156107fb57610104356001600160401b0381116107fb57610498903690600401611aa6565b610124356001600160401b0381116107fb576104b8903690600401611aa6565b6040516395a8c58d60e01b81523360048201525f60248201529091906020816044816001600160a01b037f0000000000000000000000000000000000000000000000000000000000000000165afa80156107f05761051c915f916103375750611e94565b610524612435565b600154680100000000000000008110156108b2578060016105489201600155611ce3565b6108c65787516001600160401b0381116108b2576105668254611d0f565b601f811161086d575b50806020601f821160011461080a575f916107ff575b508160011b915f199060031b1c19161790555b7f00000000000000000000000000000000000000000000000000000000000000006001600160a01b031694853b156107fb576040516345c6f91f60e11b8152610160600482015296879586959091908d906105f761016489018d611aec565b8881036003190160248a015261060c91611aec565b87810360031901604489015261062191611aec565b86810360031901606488015261063691611bf7565b85810360031901608487015261064b91611bf7565b8481036003190160a486015261066091611aec565b8381036003190160c48501526106769089611aec565b3360e48501526106858a611b10565b89610104850152600319848203016101248501526106a291611aec565b828103600319016101448401526106b891611aec565b03815a5f948591f180156107f0576107db575b5084907f00000000000000000000000000000000000000000000000000000000000000006001600160a01b0316803b156103715761072d839161073f93836040518096819582946356003e0d60e11b8452604060048501526044840190611aec565b8281036003190160248401528a611aec565b03925af18015610328576107c2575b50926107ac83610798936107827ff4487edfbc31786288d4b0a58c9cf96191866674edc1d0aaf83cc9feebb3d1ba96611b10565b60ff60405195869560a0875260a0870190611aec565b921660208501528382036040850152611aec565b3360608301524260808301520390a16001815580f35b816107cf91959395611a6a565b6103335791835f61074e565b6107e89195505f90611a6a565b5f935f6106cb565b6040513d5f823e3d90fd5b5f80fd5b90508901515f610585565b5f8481528181209250601f198416905b8c828210610855575050908360019493921061083d575b5050811b019055610598565b8b01515f1960f88460031b161c191690555f80610831565b6001849560209395849301518155019401920161081a565b825f5260205f20601f830160051c810191602084106108a8575b601f0160051c01905b81811061089d575061056f565b5f8155600101610890565b9091508190610887565b634e487b7160e01b5f52604160045260245ffd5b634e487b7160e01b5f525f60045260245ffd5b346107fb575f3660031901126107fb576040517f00000000000000000000000000000000000000000000000000000000000000006001600160a01b03168152602090f35b346107fb5760203660031901126107fb576004356001548110156107fb5761094490611ce3565b6108c65761095461096891611d47565b604051918291602083526020830190611aec565b0390f35b346107fb5760203660031901126107fb576004356001600160401b0381116107fb5761099c903690600401611aa6565b6040516395a8c58d60e01b81523360048201525f60248201526020816044816001600160a01b037f0000000000000000000000000000000000000000000000000000000000000000165afa80156107f0576109fd915f91610d0f5750611e94565b6001546020820191907f00000000000000000000000000000000000000000000000000000000000000006001600160a01b03165f805b838110610c2d5750610a4490612329565b925f94610a706020604051809382820195518091875e81015f838201520301601f198101835282611a6a565b519020935f5b838110610a8b57604051806109688782611c4f565b610a9d610a9782611ce3565b50611d47565b604051636b2c133960e11b815260206004820152905f8280610ac26024820185611aec565b0381885afa9182156107f0575f92610c09575b5060a0820190888251604051610b0a6020828180820195805191829101875e81015f838201520301601f198101835282611a6a565b51902014610b1e575b505050600101610a76565b6040516374a5abcf60e01b8152602060048201529394929392915f8480610b486024820186611aec565b03817f00000000000000000000000000000000000000000000000000000000000000006001600160a01b03165afa9485156107f057600195610bd79560ff925f915f93610be0575b506020015193519360405195610ba587611a34565b8652602086015260408501521660608301526080820152610bc682896120e3565b52610bd181886120e3565b506120f7565b91908780610b13565b610c01919350602092503d805f833e610bf98183611a6a565b81019061239a565b929091610b90565b610c269192503d805f833e610c1e8183611a6a565b810190612183565b9088610ad5565b610c5f5f610c3d610a9784611ce3565b60405180938192636b2c133960e11b8352602060048401526024830190611aec565b0381875afa80156107f05760a0915f91610cf5575b500151604051610ca36020828180820195805191829101875e81015f838201520301601f198101835282611a6a565b5190206040516020810190610cd06020828a51808d875e81015f838201520301601f198101835282611a6a565b51902014610ce1575b600101610a33565b90610ced6001916120f7565b919050610cd9565b610d0991503d805f833e610c1e8183611a6a565b88610c74565b610d28915060203d60201161035f576103518183611a6a565b836101bd565b346107fb575f3660031901126107fb576001546005810281810460051482151715610ed157610d5c90611eff565b905f90817f00000000000000000000000000000000000000000000000000000000000000006001600160a01b03165b828210610de057505050610d9e81611eff565b915f5b828110610db657604051806109688682611b2e565b80610dc3600192846120e3565b51610dce82876120e3565b52610dd981866120e3565b5001610da1565b610df1610a97839593969496611ce3565b6040516346abdd0560e11b81526020600482015290915f8280610e176024820187611aec565b0381845afa9182156107f0575f92610ead575b505f5b8251811015610e9a57610e4081846120e3565b5151610e4b81611b10565b610e5481611b10565b15610e62575b600101610e2d565b93610e92600191610e7d610e7688876120e3565b51876123d2565b610e87828a6120e3565b52610bd181896120e3565b949050610e5a565b5093959294905060019150019091610d8b565b610eca9192503d805f833e610ec28183611a6a565b810190611fa2565b9087610e2a565b634e487b7160e01b5f52601160045260245ffd5b346107fb5760403660031901126107fb576004356001600160401b0381116107fb57610f15903690600401611aa6565b6024356001600160401b0381116107fb57610f34903690600401611aa6565b9060606080604051610f4581611a34565b5f81528260208201528260408201525f83820152015260018060a01b037f000000000000000000000000000000000000000000000000000000000000000016906040516330804c3160e11b8152602060048201525f8180610fa96024820188611aec565b0381865afa9081156107f0575f91611220575b50611017915f9194604051610ff06020828180820195805191829101875e810187838201520301601f198101835282611a6a565b5190209360405180809581946346abdd0560e11b8352602060048401526024830190611aec565b03915afa9081156107f0575f91611206575b506040519061103782611a34565b5f825260209160405161104a8482611a6a565b5f81528382015260405161105e8482611a6a565b5f815260408201525f60608201526040516110798482611a6a565b5f81526080820152925f5b82518110156111fe5781604061109a83866120e3565b5101516040516110c887828180820195805191829101875e81015f838201520301601f198101835282611a6a565b519020146110d857600101611084565b9190506110e69293506120e3565b51905b6040516395a8c58d60e01b8152336004820152600160248201529080826044817f00000000000000000000000000000000000000000000000000000000000000006001600160a01b03165afa9384156107f0576111be94610968935f916111e1575b506111cb575b60405194859460408652805161116681611b10565b6040870152608061119d6111888684015160a060608b015260e08a0190611aec565b6040840151898203603f1901848b0152611aec565b606083015160ff1660a0890152910151868203603f190160c0880152611aec565b9184830390850152611bf7565b506040516111d98282611a6a565b5f8152611151565b6111f89150833d851161035f576103518183611a6a565b8661114b565b5050506110e9565b61121a91503d805f833e610ec28183611a6a565b83611029565b90503d805f833e6112318183611a6a565b8101916020828403126107fb578151916001600160401b0383116107fb57611017935f9361125f9201612105565b915091610fbc565b346107fb575f3660031901126107fb576040516395a8c58d60e01b8152336004820152600260248201526020816044817f00000000000000000000000000000000000000000000000000000000000000006001600160a01b03165afa9081156107f0575f916114f4575b50156114c3576001546112e381612329565b6112ec82611de7565b916112fa6040519384611a6a565b8083526020830160015f527fb10e2d527612073b26eecdfd717e6a320cf44b4afac2b0732d9fcbe2b7fa0cf6905f905b8382106114a65750506001600160a01b037f00000000000000000000000000000000000000000000000000000000000000008116947f000000000000000000000000000000000000000000000000000000000000000090911691505f5b83811061139c57604051806109688782611c4f565b6113a681836120e3565b51604051636b2c133960e11b81526020600482015291905f83806113cd6024820185611aec565b03818b5afa9283156107f0575f9361148a575b506040516374a5abcf60e01b815260206004820152925f84806114066024820186611aec565b0381895afa9384156107f05760019460ff915f905f9261146d575b5060a06020850151940151936040519561143a87611a34565b865260208601526040850152166060830152608082015261145b82886120e3565b5261146681876120e3565b5001611387565b905061148391503d805f833e610bf98183611a6a565b908c611421565b61149f9193503d805f833e610c1e8183611a6a565b91886113e0565b6001602081926114b586611d47565b81520193019101909161132a565b60405162461bcd60e51b81526020600482015260096024820152684f6e6c792042504f4d60b81b6044820152606490fd5b61150d915060203d60201161035f576103518183611a6a565b816112d1565b346107fb5760203660031901126107fb576004356001600160401b0381116107fb575f6115476115b6923690600401611aa6565b606061014060405161155881611a18565b82815282602082015282604082015282808201528260808201528260a08201528460c08201528460e08201528261010082015282610120820152015260405180938192636b2c133960e11b8352602060048401526024830190611aec565b03817f00000000000000000000000000000000000000000000000000000000000000006001600160a01b03165afa80156107f057610968915f9161170b575b50604051918291602083526101406116f66116e061169f61168961167361165d6116476116318b61016060208c519201526101808d0190611aec565b60208a01518c8203601f190160408e0152611aec565b60408901518b8203601f190160608d0152611bf7565b60608801518a8203601f190160808c0152611bf7565b6080870151898203601f190160a08b0152611aec565b60a0860151888203601f190160c08a0152611aec565b60c08501516001600160a01b031660e0888101919091528501516116c281611b10565b610100880152610100850151601f1988830301610120890152611aec565b610120840151868203601f190184880152611aec565b910151838203601f1901610160850152611aec565b61171f91503d805f833e610c1e8183611a6a565b826115f5565b346107fb575f3660031901126107fb576040517f00000000000000000000000000000000000000000000000000000000000000006001600160a01b03168152602090f35b346107fb5760203660031901126107fb576004356001600160401b0381116107fb57611799903690600401611aa6565b6040516395a8c58d60e01b81523360048201525f60248201526020816044816001600160a01b037f0000000000000000000000000000000000000000000000000000000000000000165afa80156107f0576117fa915f91610d0f5750611e94565b6001549060405161182a6020828180820195805191829101875e81015f838201520301601f198101835282611a6a565b5190206005820282810460051483151715610ed15761184890611eff565b915f9182907f00000000000000000000000000000000000000000000000000000000000000006001600160a01b03165b8383106118cc57858561188a81611eff565b915f5b8281106118a257604051806109688682611b2e565b806118af600192846120e3565b516118ba82876120e3565b526118c581866120e3565b500161188d565b6118de610a9784969497939597611ce3565b91604051916346abdd0560e11b8352602060048401525f83806119046024820188611aec565b0381845afa9283156107f0575f936119bb575b505f5b83518110156119a85786608061193083876120e3565b51015160405161195f6020828180820195805191829101875e81015f838201520301601f198101835282611a6a565b51902014611970575b60010161191a565b946119a060019161198b61198489886120e3565b51886123d2565b61199582876120e3565b52610bd181866120e3565b959050611968565b5094925095929460019150019192611878565b6119d09193503d805f833e610ec28183611a6a565b9188611917565b346107fb575f3660031901126107fb577f00000000000000000000000000000000000000000000000000000000000000006001600160a01b03168152602090f35b61016081019081106001600160401b038211176108b257604052565b60a081019081106001600160401b038211176108b257604052565b60c081019081106001600160401b038211176108b257604052565b90601f801991011681019081106001600160401b038211176108b257604052565b6001600160401b0381116108b257601f01601f191660200190565b81601f820112156107fb57803590611abd82611a8b565b92611acb6040519485611a6a565b828452602083830101116107fb57815f926020809301838601378301015290565b805180835260209291819084018484015e5f828201840152601f01601f1916010190565b60021115611b1a57565b634e487b7160e01b5f52602160045260245ffd5b602081016020825282518091526040820191602060408360051b8301019401925f915b838310611b6057505050505090565b9091929394602080611be8600193603f1986820301875289519060a0611bb7611ba5611b95855160c0865260c0860190611aec565b8786015185820389870152611aec565b60408501518482036040860152611aec565b9260ff60608201511660608401526080810151611bd381611b10565b608084015201519060a0818403910152611aec565b97019301930191939290611b51565b9080602083519182815201916020808360051b8301019401925f915b838310611c2257505050505090565b9091929394602080611c40600193601f198682030187528951611aec565b97019301930191939290611c13565b602081016020825282518091526040820191602060408360051b8301019401925f915b838310611c8157505050505090565b9091929394602080611cd4600193603f198682030187528951906080611cb6611ba5611b95855160a0865260a0860190611aec565b9260ff60608201511660608401520151906080818403910152611aec565b97019301930191939290611c72565b600154811015611cfb5760015f5260205f2001905f90565b634e487b7160e01b5f52603260045260245ffd5b90600182811c92168015611d3d575b6020831014611d2957565b634e487b7160e01b5f52602260045260245ffd5b91607f1691611d1e565b9060405191825f825492611d5a84611d0f565b8084529360018116908115611dc55750600114611d81575b50611d7f92500383611a6a565b565b90505f9291925260205f20905f915b818310611da9575050906020611d7f928201015f611d72565b6020919350806001915483858901015201910190918492611d90565b905060209250611d7f94915060ff191682840152151560051b8201015f611d72565b6001600160401b0381116108b25760051b60200190565b9080601f830112156107fb578135611e1581611de7565b92611e236040519485611a6a565b81845260208085019260051b820101918383116107fb5760208201905b838210611e4f57505050505090565b81356001600160401b0381116107fb57602091611e7187848094880101611aa6565b815201910190611e40565b908160209103126107fb575180151581036107fb5790565b15611e9b57565b60405162461bcd60e51b815260206004820152600c60248201526b4f6e6c7920466163746f727960a01b6044820152606490fd5b60405190611edc82611a4f565b606060a0838281528260208201528260408201525f838201525f60808201520152565b90611f0982611de7565b611f166040519182611a6a565b8281528092611f27601f1991611de7565b01905f5b828110611f3757505050565b602090611f42611ecf565b82828501015201611f2b565b81601f820112156107fb57805190611f6582611a8b565b92611f736040519485611a6a565b828452602083830101116107fb57815f9260208093018386015e8301015290565b519060ff821682036107fb57565b6020818303126107fb578051906001600160401b0382116107fb57019080601f830112156107fb57815191611fd683611de7565b92611fe46040519485611a6a565b80845260208085019160051b830101918383116107fb5760208101915b83831061201057505050505090565b82516001600160401b0381116107fb5782019060a0828703601f1901126107fb576040519061203e82611a34565b602083015160028110156107fb57825260408301516001600160401b0381116107fb5787602061207092860101611f4e565b602083015260608301516001600160401b0381116107fb5787602061209792860101611f4e565b60408301526120a860808401611f94565b606083015260a0830151916001600160401b0383116107fb576120d388602080969581960101611f4e565b6080820152815201920191612001565b8051821015611cfb5760209160051b010190565b5f198114610ed15760010190565b9080601f830112156107fb57815161211c81611de7565b9261212a6040519485611a6a565b81845260208085019260051b820101918383116107fb5760208201905b83821061215657505050505090565b81516001600160401b0381116107fb5760209161217887848094880101611f4e565b815201910190612147565b6020818303126107fb578051906001600160401b0382116107fb5701610160818303126107fb57604051916121b783611a18565b81516001600160401b0381116107fb57816121d3918401611f4e565b835260208201516001600160401b0381116107fb57816121f4918401611f4e565b602084015260408201516001600160401b0381116107fb5781612218918401612105565b604084015260608201516001600160401b0381116107fb578161223c918401612105565b606084015260808201516001600160401b0381116107fb5781612260918401611f4e565b608084015260a08201516001600160401b0381116107fb5781612284918401611f4e565b60a084015260c08201516001600160a01b03811681036107fb5760c084015260e082015160028110156107fb5760e08401526101008201516001600160401b0381116107fb57816122d6918401611f4e565b6101008401526101208201516001600160401b0381116107fb57816122fc918401611f4e565b6101208401526101408201516001600160401b0381116107fb576123209201611f4e565b61014082015290565b9061233382611de7565b6123406040519182611a6a565b8281528092612351601f1991611de7565b01905f5b82811061236157505050565b60209060405161237081611a34565b60608152606083820152606060408201525f60608201526060608082015282828501015201612355565b91906040838203126107fb578251906001600160401b0382116107fb576123c86020916123cf938601611f4e565b9301611f94565b90565b906123db611ecf565b50602081015190604081015160ff6060830151169060808351936123fe85611b10565b0151936040519561240e87611a4f565b865260208601526040850152606084015261242881611b10565b608083015260a082015290565b60025f54146124445760025f55565b633ee5aeb560e01b5f5260045ffdfea26469706673582212202a6c7697d12f0e0d21559165be4141bfec8b6594b6998d2c4f2c341edfcb52de64736f6c634300081b0033","opcodes":"PUSH1 0xE0 CALLVALUE PUSH2 0x11D JUMPI PUSH1 0x1F PUSH2 0x25D3 CODESIZE DUP2 SWAP1 SUB SWAP2 DUP3 ADD PUSH1 0x1F NOT AND DUP4 ADD SWAP2 PUSH1 0x1 PUSH1 0x1 PUSH1 0x40 SHL SUB DUP4 GT DUP5 DUP5 LT OR PUSH2 0x121 JUMPI DUP1 DUP5 SWAP3 PUSH1 0x60 SWAP5 PUSH1 0x40 MSTORE DUP4 CODECOPY DUP2 ADD SUB SLT PUSH2 0x11D JUMPI PUSH2 0x47 DUP2 PUSH2 0x135 JUMP JUMPDEST SWAP1 PUSH2 0x60 PUSH1 0x40 PUSH2 0x59 PUSH1 0x20 DUP5 ADD PUSH2 0x135 JUMP JUMPDEST SWAP3 ADD PUSH2 0x135 JUMP JUMPDEST PUSH1 0x1 PUSH0 SSTORE PUSH1 0x1 PUSH1 0x1 PUSH1 0xA0 SHL SUB SWAP3 DUP4 AND PUSH1 0x80 MSTORE SWAP1 DUP3 AND PUSH1 0xA0 MSTORE AND PUSH1 0xC0 MSTORE PUSH1 0x40 MLOAD PUSH2 0x2489 SWAP1 DUP2 PUSH2 0x14A DUP3 CODECOPY PUSH1 0x80 MLOAD DUP2 DUP2 DUP2 PUSH2 0x18A ADD MSTORE DUP2 DUP2 PUSH2 0x4E4 ADD MSTORE DUP2 DUP2 PUSH2 0x9C5 ADD MSTORE DUP2 DUP2 PUSH2 0x110B ADD MSTORE DUP2 DUP2 PUSH2 0x1299 ADD MSTORE DUP2 DUP2 PUSH2 0x17C2 ADD MSTORE PUSH2 0x19E9 ADD MSTORE PUSH1 0xA0 MLOAD DUP2 DUP2 DUP2 PUSH2 0x1CD ADD MSTORE DUP2 DUP2 PUSH2 0x59A ADD MSTORE DUP2 DUP2 PUSH2 0xA08 ADD MSTORE DUP2 DUP2 PUSH2 0xD62 ADD MSTORE DUP2 DUP2 PUSH2 0xF64 ADD MSTORE DUP2 DUP2 PUSH2 0x133D ADD MSTORE DUP2 DUP2 PUSH2 0x15BA ADD MSTORE DUP2 DUP2 PUSH2 0x173A ADD MSTORE PUSH2 0x184F ADD MSTORE PUSH1 0xC0 MLOAD DUP2 DUP2 DUP2 PUSH2 0x6D0 ADD MSTORE DUP2 DUP2 PUSH2 0x8EE ADD MSTORE DUP2 DUP2 PUSH2 0xB4C ADD MSTORE PUSH2 0x1361 ADD MSTORE RETURN JUMPDEST PUSH0 DUP1 REVERT JUMPDEST PUSH4 0x4E487B71 PUSH1 0xE0 SHL PUSH0 MSTORE PUSH1 0x41 PUSH1 0x4 MSTORE PUSH1 0x24 PUSH0 REVERT JUMPDEST MLOAD SWAP1 PUSH1 0x1 PUSH1 0x1 PUSH1 0xA0 SHL SUB DUP3 AND DUP3 SUB PUSH2 0x11D JUMPI JUMP INVALID PUSH1 0x80 DUP1 PUSH1 0x40 MSTORE PUSH1 0x4 CALLDATASIZE LT ISZERO PUSH2 0x12 JUMPI PUSH0 DUP1 REVERT JUMPDEST PUSH0 SWAP1 PUSH0 CALLDATALOAD PUSH1 0xE0 SHR SWAP1 DUP2 PUSH3 0x435DA5 EQ PUSH2 0x19D7 JUMPI POP DUP1 PUSH4 0x1BBD28F9 EQ PUSH2 0x1769 JUMPI DUP1 PUSH4 0x3FCA88CB EQ PUSH2 0x1725 JUMPI DUP1 PUSH4 0x4D17D273 EQ PUSH2 0x1513 JUMPI DUP1 PUSH4 0x50168FBB EQ PUSH2 0x1267 JUMPI DUP1 PUSH4 0x54253681 EQ PUSH2 0xEE5 JUMPI DUP1 PUSH4 0xA1E0A4B0 EQ PUSH2 0xD2E JUMPI DUP1 PUSH4 0xBAEEDFAD EQ PUSH2 0x96C JUMPI DUP1 PUSH4 0xCB960D6B EQ PUSH2 0x91D JUMPI DUP1 PUSH4 0xDD683B28 EQ PUSH2 0x8D9 JUMPI DUP1 PUSH4 0xDE966A72 EQ PUSH2 0x37A JUMPI PUSH4 0xE521D586 EQ PUSH2 0xA1 JUMPI PUSH0 DUP1 REVERT JUMPDEST CALLVALUE PUSH2 0x377 JUMPI PUSH1 0xC0 CALLDATASIZE PUSH1 0x3 NOT ADD SLT PUSH2 0x377 JUMPI PUSH1 0x4 CALLDATALOAD PUSH1 0x1 PUSH1 0x1 PUSH1 0x40 SHL SUB DUP2 GT PUSH2 0x375 JUMPI PUSH2 0xD1 SWAP1 CALLDATASIZE SWAP1 PUSH1 0x4 ADD PUSH2 0x1AA6 JUMP JUMPDEST PUSH1 0x24 CALLDATALOAD PUSH1 0x1 PUSH1 0x1 PUSH1 0x40 SHL SUB DUP2 GT PUSH2 0x371 JUMPI PUSH2 0xF0 SWAP1 CALLDATASIZE SWAP1 PUSH1 0x4 ADD PUSH2 0x1AA6 JUMP JUMPDEST PUSH1 0x44 CALLDATALOAD PUSH1 0x1 PUSH1 0x1 PUSH1 0x40 SHL SUB DUP2 GT PUSH2 0x333 JUMPI PUSH2 0x10F SWAP1 CALLDATASIZE SWAP1 PUSH1 0x4 ADD PUSH2 0x1AA6 JUMP JUMPDEST SWAP1 PUSH1 0x64 CALLDATALOAD SWAP1 PUSH1 0xFF DUP3 AND DUP1 SWAP3 SUB PUSH2 0x324 JUMPI DUP5 PUSH1 0x84 CALLDATALOAD PUSH1 0x1 PUSH1 0x1 PUSH1 0x40 SHL SUB DUP2 GT PUSH2 0x375 JUMPI PUSH2 0x13F SWAP1 CALLDATASIZE SWAP1 PUSH1 0x4 ADD PUSH2 0x1DFE JUMP JUMPDEST PUSH1 0xA4 CALLDATALOAD PUSH1 0x1 PUSH1 0x1 PUSH1 0x40 SHL SUB DUP2 GT PUSH2 0x371 JUMPI PUSH2 0x15E SWAP1 CALLDATASIZE SWAP1 PUSH1 0x4 ADD PUSH2 0x1AA6 JUMP JUMPDEST PUSH1 0x40 MLOAD PUSH4 0x95A8C58D PUSH1 0xE0 SHL DUP2 MSTORE CALLER PUSH1 0x4 DUP3 ADD MSTORE PUSH0 PUSH1 0x24 DUP3 ADD MSTORE SWAP1 SWAP7 SWAP1 PUSH1 0x20 DUP2 PUSH1 0x44 DUP2 PUSH1 0x1 PUSH1 0x1 PUSH1 0xA0 SHL SUB PUSH32 0x0 AND GAS STATICCALL DUP1 ISZERO PUSH2 0x366 JUMPI PUSH2 0x1C3 SWAP2 DUP6 SWAP2 PUSH2 0x337 JUMPI JUMPDEST POP PUSH2 0x1E94 JUMP JUMPDEST PUSH2 0x1CB PUSH2 0x2435 JUMP JUMPDEST PUSH32 0x0 PUSH1 0x1 PUSH1 0x1 PUSH1 0xA0 SHL SUB AND SWAP2 DUP3 EXTCODESIZE ISZERO PUSH2 0x333 JUMPI PUSH2 0x24A SWAP3 PUSH2 0x238 DUP6 DUP1 SWAP5 PUSH2 0x286 PUSH2 0x274 DUP11 SWAP7 PUSH2 0x25C DUP15 PUSH1 0x40 MLOAD SWAP12 DUP13 SWAP11 DUP12 SWAP10 DUP11 SWAP9 PUSH4 0x7290EAC3 PUSH1 0xE1 SHL DUP11 MSTORE PUSH1 0xC0 PUSH1 0x4 DUP12 ADD MSTORE PUSH1 0xC4 DUP11 ADD SWAP1 PUSH2 0x1AEC JUMP JUMPDEST DUP9 DUP2 SUB PUSH1 0x3 NOT ADD PUSH1 0x24 DUP11 ADD MSTORE SWAP1 PUSH2 0x1AEC JUMP JUMPDEST DUP7 DUP2 SUB PUSH1 0x3 NOT ADD PUSH1 0x44 DUP9 ADD MSTORE SWAP1 PUSH2 0x1AEC JUMP JUMPDEST SWAP1 DUP14 PUSH1 0x64 DUP7 ADD MSTORE PUSH1 0x3 NOT DUP6 DUP4 SUB ADD PUSH1 0x84 DUP7 ADD MSTORE PUSH2 0x1BF7 JUMP JUMPDEST DUP3 DUP2 SUB PUSH1 0x3 NOT ADD PUSH1 0xA4 DUP5 ADD MSTORE DUP14 PUSH2 0x1AEC JUMP JUMPDEST SUB SWAP3 GAS CALL DUP1 ISZERO PUSH2 0x328 JUMPI PUSH2 0x309 JUMPI JUMPDEST POP SWAP3 PUSH2 0x2F9 DUP6 PUSH2 0x2EB PUSH32 0x50F3A56867C9C3B6C4AF5856FAC7E97E8644FE1C677C25EA989AB1EE658A6FC5 SWAP6 PUSH2 0x2D8 SWAP6 PUSH1 0x40 MLOAD SWAP7 DUP8 SWAP7 PUSH1 0xA0 DUP9 MSTORE PUSH1 0xA0 DUP9 ADD SWAP1 PUSH2 0x1AEC JUMP JUMPDEST SWAP2 PUSH1 0x20 DUP8 ADD MSTORE DUP6 DUP3 SUB PUSH1 0x40 DUP8 ADD MSTORE PUSH2 0x1AEC JUMP JUMPDEST SWAP1 DUP4 DUP3 SUB PUSH1 0x60 DUP6 ADD MSTORE PUSH2 0x1AEC JUMP JUMPDEST TIMESTAMP PUSH1 0x80 DUP4 ADD MSTORE SUB SWAP1 LOG1 PUSH1 0x1 DUP2 SSTORE DUP1 RETURN JUMPDEST DUP2 PUSH2 0x317 SWAP2 SWAP6 SWAP5 SWAP4 SWAP6 PUSH2 0x1A6A JUMP JUMPDEST PUSH2 0x324 JUMPI SWAP1 SWAP2 DUP5 PUSH0 PUSH2 0x295 JUMP JUMPDEST DUP5 DUP1 REVERT JUMPDEST PUSH1 0x40 MLOAD RETURNDATASIZE DUP5 DUP3 RETURNDATACOPY RETURNDATASIZE SWAP1 REVERT JUMPDEST DUP4 DUP1 REVERT JUMPDEST PUSH2 0x359 SWAP2 POP PUSH1 0x20 RETURNDATASIZE PUSH1 0x20 GT PUSH2 0x35F JUMPI JUMPDEST PUSH2 0x351 DUP2 DUP4 PUSH2 0x1A6A JUMP JUMPDEST DUP2 ADD SWAP1 PUSH2 0x1E7C JUMP JUMPDEST PUSH0 PUSH2 0x1BD JUMP JUMPDEST POP RETURNDATASIZE PUSH2 0x347 JUMP JUMPDEST PUSH1 0x40 MLOAD RETURNDATASIZE DUP7 DUP3 RETURNDATACOPY RETURNDATASIZE SWAP1 REVERT JUMPDEST DUP3 DUP1 REVERT JUMPDEST POP JUMPDEST DUP1 REVERT JUMPDEST POP CALLVALUE PUSH2 0x7FB JUMPI PUSH2 0x140 CALLDATASIZE PUSH1 0x3 NOT ADD SLT PUSH2 0x7FB JUMPI PUSH1 0x4 CALLDATALOAD PUSH1 0x1 PUSH1 0x1 PUSH1 0x40 SHL SUB DUP2 GT PUSH2 0x7FB JUMPI PUSH2 0x3AC SWAP1 CALLDATASIZE SWAP1 PUSH1 0x4 ADD PUSH2 0x1AA6 JUMP JUMPDEST PUSH1 0x24 CALLDATALOAD PUSH1 0x1 PUSH1 0x1 PUSH1 0x40 SHL SUB DUP2 GT PUSH2 0x7FB JUMPI PUSH2 0x3CB SWAP1 CALLDATASIZE SWAP1 PUSH1 0x4 ADD PUSH2 0x1AA6 JUMP JUMPDEST PUSH1 0x44 CALLDATALOAD PUSH1 0x1 PUSH1 0x1 PUSH1 0x40 SHL SUB DUP2 GT PUSH2 0x7FB JUMPI PUSH2 0x3EA SWAP1 CALLDATASIZE SWAP1 PUSH1 0x4 ADD PUSH2 0x1AA6 JUMP JUMPDEST SWAP2 PUSH1 0x64 CALLDATALOAD PUSH1 0x1 PUSH1 0x1 PUSH1 0x40 SHL SUB DUP2 GT PUSH2 0x7FB JUMPI PUSH2 0x40A SWAP1 CALLDATASIZE SWAP1 PUSH1 0x4 ADD PUSH2 0x1DFE JUMP JUMPDEST SWAP1 PUSH1 0x84 CALLDATALOAD PUSH1 0x1 PUSH1 0x1 PUSH1 0x40 SHL SUB DUP2 GT PUSH2 0x7FB JUMPI PUSH2 0x42A SWAP1 CALLDATASIZE SWAP1 PUSH1 0x4 ADD PUSH2 0x1AA6 JUMP JUMPDEST SWAP2 PUSH1 0xA4 CALLDATALOAD PUSH1 0x1 PUSH1 0x1 PUSH1 0x40 SHL SUB DUP2 GT PUSH2 0x7FB JUMPI PUSH2 0x44A SWAP1 CALLDATASIZE SWAP1 PUSH1 0x4 ADD PUSH2 0x1DFE JUMP JUMPDEST SWAP3 PUSH1 0xC4 CALLDATALOAD PUSH1 0x1 PUSH1 0x1 PUSH1 0x40 SHL SUB DUP2 GT PUSH2 0x7FB JUMPI PUSH2 0x46A SWAP1 CALLDATASIZE SWAP1 PUSH1 0x4 ADD PUSH2 0x1AA6 JUMP JUMPDEST SWAP4 PUSH1 0xE4 CALLDATALOAD SWAP6 PUSH1 0x2 DUP8 LT ISZERO PUSH2 0x7FB JUMPI PUSH2 0x104 CALLDATALOAD PUSH1 0x1 PUSH1 0x1 PUSH1 0x40 SHL SUB DUP2 GT PUSH2 0x7FB JUMPI PUSH2 0x498 SWAP1 CALLDATASIZE SWAP1 PUSH1 0x4 ADD PUSH2 0x1AA6 JUMP JUMPDEST PUSH2 0x124 CALLDATALOAD PUSH1 0x1 PUSH1 0x1 PUSH1 0x40 SHL SUB DUP2 GT PUSH2 0x7FB JUMPI PUSH2 0x4B8 SWAP1 CALLDATASIZE SWAP1 PUSH1 0x4 ADD PUSH2 0x1AA6 JUMP JUMPDEST PUSH1 0x40 MLOAD PUSH4 0x95A8C58D PUSH1 0xE0 SHL DUP2 MSTORE CALLER PUSH1 0x4 DUP3 ADD MSTORE PUSH0 PUSH1 0x24 DUP3 ADD MSTORE SWAP1 SWAP2 SWAP1 PUSH1 0x20 DUP2 PUSH1 0x44 DUP2 PUSH1 0x1 PUSH1 0x1 PUSH1 0xA0 SHL SUB PUSH32 0x0 AND GAS STATICCALL DUP1 ISZERO PUSH2 0x7F0 JUMPI PUSH2 0x51C SWAP2 PUSH0 SWAP2 PUSH2 0x337 JUMPI POP PUSH2 0x1E94 JUMP JUMPDEST PUSH2 0x524 PUSH2 0x2435 JUMP JUMPDEST PUSH1 0x1 SLOAD PUSH9 0x10000000000000000 DUP2 LT ISZERO PUSH2 0x8B2 JUMPI DUP1 PUSH1 0x1 PUSH2 0x548 SWAP3 ADD PUSH1 0x1 SSTORE PUSH2 0x1CE3 JUMP JUMPDEST PUSH2 0x8C6 JUMPI DUP8 MLOAD PUSH1 0x1 PUSH1 0x1 PUSH1 0x40 SHL SUB DUP2 GT PUSH2 0x8B2 JUMPI PUSH2 0x566 DUP3 SLOAD PUSH2 0x1D0F JUMP JUMPDEST PUSH1 0x1F DUP2 GT PUSH2 0x86D JUMPI JUMPDEST POP DUP1 PUSH1 0x20 PUSH1 0x1F DUP3 GT PUSH1 0x1 EQ PUSH2 0x80A JUMPI PUSH0 SWAP2 PUSH2 0x7FF JUMPI JUMPDEST POP DUP2 PUSH1 0x1 SHL SWAP2 PUSH0 NOT SWAP1 PUSH1 0x3 SHL SHR NOT AND OR SWAP1 SSTORE JUMPDEST PUSH32 0x0 PUSH1 0x1 PUSH1 0x1 PUSH1 0xA0 SHL SUB AND SWAP5 DUP6 EXTCODESIZE ISZERO PUSH2 0x7FB JUMPI PUSH1 0x40 MLOAD PUSH4 0x45C6F91F PUSH1 0xE1 SHL DUP2 MSTORE PUSH2 0x160 PUSH1 0x4 DUP3 ADD MSTORE SWAP7 DUP8 SWAP6 DUP7 SWAP6 SWAP1 SWAP2 SWAP1 DUP14 SWAP1 PUSH2 0x5F7 PUSH2 0x164 DUP10 ADD DUP14 PUSH2 0x1AEC JUMP JUMPDEST DUP9 DUP2 SUB PUSH1 0x3 NOT ADD PUSH1 0x24 DUP11 ADD MSTORE PUSH2 0x60C SWAP2 PUSH2 0x1AEC JUMP JUMPDEST DUP8 DUP2 SUB PUSH1 0x3 NOT ADD PUSH1 0x44 DUP10 ADD MSTORE PUSH2 0x621 SWAP2 PUSH2 0x1AEC JUMP JUMPDEST DUP7 DUP2 SUB PUSH1 0x3 NOT ADD PUSH1 0x64 DUP9 ADD MSTORE PUSH2 0x636 SWAP2 PUSH2 0x1BF7 JUMP JUMPDEST DUP6 DUP2 SUB PUSH1 0x3 NOT ADD PUSH1 0x84 DUP8 ADD MSTORE PUSH2 0x64B SWAP2 PUSH2 0x1BF7 JUMP JUMPDEST DUP5 DUP2 SUB PUSH1 0x3 NOT ADD PUSH1 0xA4 DUP7 ADD MSTORE PUSH2 0x660 SWAP2 PUSH2 0x1AEC JUMP JUMPDEST DUP4 DUP2 SUB PUSH1 0x3 NOT ADD PUSH1 0xC4 DUP6 ADD MSTORE PUSH2 0x676 SWAP1 DUP10 PUSH2 0x1AEC JUMP JUMPDEST CALLER PUSH1 0xE4 DUP6 ADD MSTORE PUSH2 0x685 DUP11 PUSH2 0x1B10 JUMP JUMPDEST DUP10 PUSH2 0x104 DUP6 ADD MSTORE PUSH1 0x3 NOT DUP5 DUP3 SUB ADD PUSH2 0x124 DUP6 ADD MSTORE PUSH2 0x6A2 SWAP2 PUSH2 0x1AEC JUMP JUMPDEST DUP3 DUP2 SUB PUSH1 0x3 NOT ADD PUSH2 0x144 DUP5 ADD MSTORE PUSH2 0x6B8 SWAP2 PUSH2 0x1AEC JUMP JUMPDEST SUB DUP2 GAS PUSH0 SWAP5 DUP6 SWAP2 CALL DUP1 ISZERO PUSH2 0x7F0 JUMPI PUSH2 0x7DB JUMPI JUMPDEST POP DUP5 SWAP1 PUSH32 0x0 PUSH1 0x1 PUSH1 0x1 PUSH1 0xA0 SHL SUB AND DUP1 EXTCODESIZE ISZERO PUSH2 0x371 JUMPI PUSH2 0x72D DUP4 SWAP2 PUSH2 0x73F SWAP4 DUP4 PUSH1 0x40 MLOAD DUP1 SWAP7 DUP2 SWAP6 DUP3 SWAP5 PUSH4 0x56003E0D PUSH1 0xE1 SHL DUP5 MSTORE PUSH1 0x40 PUSH1 0x4 DUP6 ADD MSTORE PUSH1 0x44 DUP5 ADD SWAP1 PUSH2 0x1AEC JUMP JUMPDEST DUP3 DUP2 SUB PUSH1 0x3 NOT ADD PUSH1 0x24 DUP5 ADD MSTORE DUP11 PUSH2 0x1AEC JUMP JUMPDEST SUB SWAP3 GAS CALL DUP1 ISZERO PUSH2 0x328 JUMPI PUSH2 0x7C2 JUMPI JUMPDEST POP SWAP3 PUSH2 0x7AC DUP4 PUSH2 0x798 SWAP4 PUSH2 0x782 PUSH32 0xF4487EDFBC31786288D4B0A58C9CF96191866674EDC1D0AAF83CC9FEEBB3D1BA SWAP7 PUSH2 0x1B10 JUMP JUMPDEST PUSH1 0xFF PUSH1 0x40 MLOAD SWAP6 DUP7 SWAP6 PUSH1 0xA0 DUP8 MSTORE PUSH1 0xA0 DUP8 ADD SWAP1 PUSH2 0x1AEC JUMP JUMPDEST SWAP3 AND PUSH1 0x20 DUP6 ADD MSTORE DUP4 DUP3 SUB PUSH1 0x40 DUP6 ADD MSTORE PUSH2 0x1AEC JUMP JUMPDEST CALLER PUSH1 0x60 DUP4 ADD MSTORE TIMESTAMP PUSH1 0x80 DUP4 ADD MSTORE SUB SWAP1 LOG1 PUSH1 0x1 DUP2 SSTORE DUP1 RETURN JUMPDEST DUP2 PUSH2 0x7CF SWAP2 SWAP6 SWAP4 SWAP6 PUSH2 0x1A6A JUMP JUMPDEST PUSH2 0x333 JUMPI SWAP2 DUP4 PUSH0 PUSH2 0x74E JUMP JUMPDEST PUSH2 0x7E8 SWAP2 SWAP6 POP PUSH0 SWAP1 PUSH2 0x1A6A JUMP JUMPDEST PUSH0 SWAP4 PUSH0 PUSH2 0x6CB JUMP JUMPDEST PUSH1 0x40 MLOAD RETURNDATASIZE PUSH0 DUP3 RETURNDATACOPY RETURNDATASIZE SWAP1 REVERT JUMPDEST PUSH0 DUP1 REVERT JUMPDEST SWAP1 POP DUP10 ADD MLOAD PUSH0 PUSH2 0x585 JUMP JUMPDEST PUSH0 DUP5 DUP2 MSTORE DUP2 DUP2 KECCAK256 SWAP3 POP PUSH1 0x1F NOT DUP5 AND SWAP1 JUMPDEST DUP13 DUP3 DUP3 LT PUSH2 0x855 JUMPI POP POP SWAP1 DUP4 PUSH1 0x1 SWAP5 SWAP4 SWAP3 LT PUSH2 0x83D JUMPI JUMPDEST POP POP DUP2 SHL ADD SWAP1 SSTORE PUSH2 0x598 JUMP JUMPDEST DUP12 ADD MLOAD PUSH0 NOT PUSH1 0xF8 DUP5 PUSH1 0x3 SHL AND SHR NOT AND SWAP1 SSTORE PUSH0 DUP1 PUSH2 0x831 JUMP JUMPDEST PUSH1 0x1 DUP5 SWAP6 PUSH1 0x20 SWAP4 SWAP6 DUP5 SWAP4 ADD MLOAD DUP2 SSTORE ADD SWAP5 ADD SWAP3 ADD PUSH2 0x81A JUMP JUMPDEST DUP3 PUSH0 MSTORE PUSH1 0x20 PUSH0 KECCAK256 PUSH1 0x1F DUP4 ADD PUSH1 0x5 SHR DUP2 ADD SWAP2 PUSH1 0x20 DUP5 LT PUSH2 0x8A8 JUMPI JUMPDEST PUSH1 0x1F ADD PUSH1 0x5 SHR ADD SWAP1 JUMPDEST DUP2 DUP2 LT PUSH2 0x89D JUMPI POP PUSH2 0x56F JUMP JUMPDEST PUSH0 DUP2 SSTORE PUSH1 0x1 ADD PUSH2 0x890 JUMP JUMPDEST SWAP1 SWAP2 POP DUP2 SWAP1 PUSH2 0x887 JUMP JUMPDEST PUSH4 0x4E487B71 PUSH1 0xE0 SHL PUSH0 MSTORE PUSH1 0x41 PUSH1 0x4 MSTORE PUSH1 0x24 PUSH0 REVERT JUMPDEST PUSH4 0x4E487B71 PUSH1 0xE0 SHL PUSH0 MSTORE PUSH0 PUSH1 0x4 MSTORE PUSH1 0x24 PUSH0 REVERT JUMPDEST CALLVALUE PUSH2 0x7FB JUMPI PUSH0 CALLDATASIZE PUSH1 0x3 NOT ADD SLT PUSH2 0x7FB JUMPI PUSH1 0x40 MLOAD PUSH32 0x0 PUSH1 0x1 PUSH1 0x1 PUSH1 0xA0 SHL SUB AND DUP2 MSTORE PUSH1 0x20 SWAP1 RETURN JUMPDEST CALLVALUE PUSH2 0x7FB JUMPI PUSH1 0x20 CALLDATASIZE PUSH1 0x3 NOT ADD SLT PUSH2 0x7FB JUMPI PUSH1 0x4 CALLDATALOAD PUSH1 0x1 SLOAD DUP2 LT ISZERO PUSH2 0x7FB JUMPI PUSH2 0x944 SWAP1 PUSH2 0x1CE3 JUMP JUMPDEST PUSH2 0x8C6 JUMPI PUSH2 0x954 PUSH2 0x968 SWAP2 PUSH2 0x1D47 JUMP JUMPDEST PUSH1 0x40 MLOAD SWAP2 DUP3 SWAP2 PUSH1 0x20 DUP4 MSTORE PUSH1 0x20 DUP4 ADD SWAP1 PUSH2 0x1AEC JUMP JUMPDEST SUB SWAP1 RETURN JUMPDEST CALLVALUE PUSH2 0x7FB JUMPI PUSH1 0x20 CALLDATASIZE PUSH1 0x3 NOT ADD SLT PUSH2 0x7FB JUMPI PUSH1 0x4 CALLDATALOAD PUSH1 0x1 PUSH1 0x1 PUSH1 0x40 SHL SUB DUP2 GT PUSH2 0x7FB JUMPI PUSH2 0x99C SWAP1 CALLDATASIZE SWAP1 PUSH1 0x4 ADD PUSH2 0x1AA6 JUMP JUMPDEST PUSH1 0x40 MLOAD PUSH4 0x95A8C58D PUSH1 0xE0 SHL DUP2 MSTORE CALLER PUSH1 0x4 DUP3 ADD MSTORE PUSH0 PUSH1 0x24 DUP3 ADD MSTORE PUSH1 0x20 DUP2 PUSH1 0x44 DUP2 PUSH1 0x1 PUSH1 0x1 PUSH1 0xA0 SHL SUB PUSH32 0x0 AND GAS STATICCALL DUP1 ISZERO PUSH2 0x7F0 JUMPI PUSH2 0x9FD SWAP2 PUSH0 SWAP2 PUSH2 0xD0F JUMPI POP PUSH2 0x1E94 JUMP JUMPDEST PUSH1 0x1 SLOAD PUSH1 0x20 DUP3 ADD SWAP2 SWAP1 PUSH32 0x0 PUSH1 0x1 PUSH1 0x1 PUSH1 0xA0 SHL SUB AND PUSH0 DUP1 JUMPDEST DUP4 DUP2 LT PUSH2 0xC2D JUMPI POP PUSH2 0xA44 SWAP1 PUSH2 0x2329 JUMP JUMPDEST SWAP3 PUSH0 SWAP5 PUSH2 0xA70 PUSH1 0x20 PUSH1 0x40 MLOAD DUP1 SWAP4 DUP3 DUP3 ADD SWAP6 MLOAD DUP1 SWAP2 DUP8 MCOPY DUP2 ADD PUSH0 DUP4 DUP3 ADD MSTORE SUB ADD PUSH1 0x1F NOT DUP2 ADD DUP4 MSTORE DUP3 PUSH2 0x1A6A JUMP JUMPDEST MLOAD SWAP1 KECCAK256 SWAP4 PUSH0 JUMPDEST DUP4 DUP2 LT PUSH2 0xA8B JUMPI PUSH1 0x40 MLOAD DUP1 PUSH2 0x968 DUP8 DUP3 PUSH2 0x1C4F JUMP JUMPDEST PUSH2 0xA9D PUSH2 0xA97 DUP3 PUSH2 0x1CE3 JUMP JUMPDEST POP PUSH2 0x1D47 JUMP JUMPDEST PUSH1 0x40 MLOAD PUSH4 0x6B2C1339 PUSH1 0xE1 SHL DUP2 MSTORE PUSH1 0x20 PUSH1 0x4 DUP3 ADD MSTORE SWAP1 PUSH0 DUP3 DUP1 PUSH2 0xAC2 PUSH1 0x24 DUP3 ADD DUP6 PUSH2 0x1AEC JUMP JUMPDEST SUB DUP2 DUP9 GAS STATICCALL SWAP2 DUP3 ISZERO PUSH2 0x7F0 JUMPI PUSH0 SWAP3 PUSH2 0xC09 JUMPI JUMPDEST POP PUSH1 0xA0 DUP3 ADD SWAP1 DUP9 DUP3 MLOAD PUSH1 0x40 MLOAD PUSH2 0xB0A PUSH1 0x20 DUP3 DUP2 DUP1 DUP3 ADD SWAP6 DUP1 MLOAD SWAP2 DUP3 SWAP2 ADD DUP8 MCOPY DUP2 ADD PUSH0 DUP4 DUP3 ADD MSTORE SUB ADD PUSH1 0x1F NOT DUP2 ADD DUP4 MSTORE DUP3 PUSH2 0x1A6A JUMP JUMPDEST MLOAD SWAP1 KECCAK256 EQ PUSH2 0xB1E JUMPI JUMPDEST POP POP POP PUSH1 0x1 ADD PUSH2 0xA76 JUMP JUMPDEST PUSH1 0x40 MLOAD PUSH4 0x74A5ABCF PUSH1 0xE0 SHL DUP2 MSTORE PUSH1 0x20 PUSH1 0x4 DUP3 ADD MSTORE SWAP4 SWAP5 SWAP3 SWAP4 SWAP3 SWAP2 PUSH0 DUP5 DUP1 PUSH2 0xB48 PUSH1 0x24 DUP3 ADD DUP7 PUSH2 0x1AEC JUMP JUMPDEST SUB DUP2 PUSH32 0x0 PUSH1 0x1 PUSH1 0x1 PUSH1 0xA0 SHL SUB AND GAS STATICCALL SWAP5 DUP6 ISZERO PUSH2 0x7F0 JUMPI PUSH1 0x1 SWAP6 PUSH2 0xBD7 SWAP6 PUSH1 0xFF SWAP3 PUSH0 SWAP2 PUSH0 SWAP4 PUSH2 0xBE0 JUMPI JUMPDEST POP PUSH1 0x20 ADD MLOAD SWAP4 MLOAD SWAP4 PUSH1 0x40 MLOAD SWAP6 PUSH2 0xBA5 DUP8 PUSH2 0x1A34 JUMP JUMPDEST DUP7 MSTORE PUSH1 0x20 DUP7 ADD MSTORE PUSH1 0x40 DUP6 ADD MSTORE AND PUSH1 0x60 DUP4 ADD MSTORE PUSH1 0x80 DUP3 ADD MSTORE PUSH2 0xBC6 DUP3 DUP10 PUSH2 0x20E3 JUMP JUMPDEST MSTORE PUSH2 0xBD1 DUP2 DUP9 PUSH2 0x20E3 JUMP JUMPDEST POP PUSH2 0x20F7 JUMP JUMPDEST SWAP2 SWAP1 DUP8 DUP1 PUSH2 0xB13 JUMP JUMPDEST PUSH2 0xC01 SWAP2 SWAP4 POP PUSH1 0x20 SWAP3 POP RETURNDATASIZE DUP1 PUSH0 DUP4 RETURNDATACOPY PUSH2 0xBF9 DUP2 DUP4 PUSH2 0x1A6A JUMP JUMPDEST DUP2 ADD SWAP1 PUSH2 0x239A JUMP JUMPDEST SWAP3 SWAP1 SWAP2 PUSH2 0xB90 JUMP JUMPDEST PUSH2 0xC26 SWAP2 SWAP3 POP RETURNDATASIZE DUP1 PUSH0 DUP4 RETURNDATACOPY PUSH2 0xC1E DUP2 DUP4 PUSH2 0x1A6A JUMP JUMPDEST DUP2 ADD SWAP1 PUSH2 0x2183 JUMP JUMPDEST SWAP1 DUP9 PUSH2 0xAD5 JUMP JUMPDEST PUSH2 0xC5F PUSH0 PUSH2 0xC3D PUSH2 0xA97 DUP5 PUSH2 0x1CE3 JUMP JUMPDEST PUSH1 0x40 MLOAD DUP1 SWAP4 DUP2 SWAP3 PUSH4 0x6B2C1339 PUSH1 0xE1 SHL DUP4 MSTORE PUSH1 0x20 PUSH1 0x4 DUP5 ADD MSTORE PUSH1 0x24 DUP4 ADD SWAP1 PUSH2 0x1AEC JUMP JUMPDEST SUB DUP2 DUP8 GAS STATICCALL DUP1 ISZERO PUSH2 0x7F0 JUMPI PUSH1 0xA0 SWAP2 PUSH0 SWAP2 PUSH2 0xCF5 JUMPI JUMPDEST POP ADD MLOAD PUSH1 0x40 MLOAD PUSH2 0xCA3 PUSH1 0x20 DUP3 DUP2 DUP1 DUP3 ADD SWAP6 DUP1 MLOAD SWAP2 DUP3 SWAP2 ADD DUP8 MCOPY DUP2 ADD PUSH0 DUP4 DUP3 ADD MSTORE SUB ADD PUSH1 0x1F NOT DUP2 ADD DUP4 MSTORE DUP3 PUSH2 0x1A6A JUMP JUMPDEST MLOAD SWAP1 KECCAK256 PUSH1 0x40 MLOAD PUSH1 0x20 DUP2 ADD SWAP1 PUSH2 0xCD0 PUSH1 0x20 DUP3 DUP11 MLOAD DUP1 DUP14 DUP8 MCOPY DUP2 ADD PUSH0 DUP4 DUP3 ADD MSTORE SUB ADD PUSH1 0x1F NOT DUP2 ADD DUP4 MSTORE DUP3 PUSH2 0x1A6A JUMP JUMPDEST MLOAD SWAP1 KECCAK256 EQ PUSH2 0xCE1 JUMPI JUMPDEST PUSH1 0x1 ADD PUSH2 0xA33 JUMP JUMPDEST SWAP1 PUSH2 0xCED PUSH1 0x1 SWAP2 PUSH2 0x20F7 JUMP JUMPDEST SWAP2 SWAP1 POP PUSH2 0xCD9 JUMP JUMPDEST PUSH2 0xD09 SWAP2 POP RETURNDATASIZE DUP1 PUSH0 DUP4 RETURNDATACOPY PUSH2 0xC1E DUP2 DUP4 PUSH2 0x1A6A JUMP JUMPDEST DUP9 PUSH2 0xC74 JUMP JUMPDEST PUSH2 0xD28 SWAP2 POP PUSH1 0x20 RETURNDATASIZE PUSH1 0x20 GT PUSH2 0x35F JUMPI PUSH2 0x351 DUP2 DUP4 PUSH2 0x1A6A JUMP JUMPDEST DUP4 PUSH2 0x1BD JUMP JUMPDEST CALLVALUE PUSH2 0x7FB JUMPI PUSH0 CALLDATASIZE PUSH1 0x3 NOT ADD SLT PUSH2 0x7FB JUMPI PUSH1 0x1 SLOAD PUSH1 0x5 DUP2 MUL DUP2 DUP2 DIV PUSH1 0x5 EQ DUP3 ISZERO OR ISZERO PUSH2 0xED1 JUMPI PUSH2 0xD5C SWAP1 PUSH2 0x1EFF JUMP JUMPDEST SWAP1 PUSH0 SWAP1 DUP2 PUSH32 0x0 PUSH1 0x1 PUSH1 0x1 PUSH1 0xA0 SHL SUB AND JUMPDEST DUP3 DUP3 LT PUSH2 0xDE0 JUMPI POP POP POP PUSH2 0xD9E DUP2 PUSH2 0x1EFF JUMP JUMPDEST SWAP2 PUSH0 JUMPDEST DUP3 DUP2 LT PUSH2 0xDB6 JUMPI PUSH1 0x40 MLOAD DUP1 PUSH2 0x968 DUP7 DUP3 PUSH2 0x1B2E JUMP JUMPDEST DUP1 PUSH2 0xDC3 PUSH1 0x1 SWAP3 DUP5 PUSH2 0x20E3 JUMP JUMPDEST MLOAD PUSH2 0xDCE DUP3 DUP8 PUSH2 0x20E3 JUMP JUMPDEST MSTORE PUSH2 0xDD9 DUP2 DUP7 PUSH2 0x20E3 JUMP JUMPDEST POP ADD PUSH2 0xDA1 JUMP JUMPDEST PUSH2 0xDF1 PUSH2 0xA97 DUP4 SWAP6 SWAP4 SWAP7 SWAP5 SWAP7 PUSH2 0x1CE3 JUMP JUMPDEST PUSH1 0x40 MLOAD PUSH4 0x46ABDD05 PUSH1 0xE1 SHL DUP2 MSTORE PUSH1 0x20 PUSH1 0x4 DUP3 ADD MSTORE SWAP1 SWAP2 PUSH0 DUP3 DUP1 PUSH2 0xE17 PUSH1 0x24 DUP3 ADD DUP8 PUSH2 0x1AEC JUMP JUMPDEST SUB DUP2 DUP5 GAS STATICCALL SWAP2 DUP3 ISZERO PUSH2 0x7F0 JUMPI PUSH0 SWAP3 PUSH2 0xEAD JUMPI JUMPDEST POP PUSH0 JUMPDEST DUP3 MLOAD DUP2 LT ISZERO PUSH2 0xE9A JUMPI PUSH2 0xE40 DUP2 DUP5 PUSH2 0x20E3 JUMP JUMPDEST MLOAD MLOAD PUSH2 0xE4B DUP2 PUSH2 0x1B10 JUMP JUMPDEST PUSH2 0xE54 DUP2 PUSH2 0x1B10 JUMP JUMPDEST ISZERO PUSH2 0xE62 JUMPI JUMPDEST PUSH1 0x1 ADD PUSH2 0xE2D JUMP JUMPDEST SWAP4 PUSH2 0xE92 PUSH1 0x1 SWAP2 PUSH2 0xE7D PUSH2 0xE76 DUP9 DUP8 PUSH2 0x20E3 JUMP JUMPDEST MLOAD DUP8 PUSH2 0x23D2 JUMP JUMPDEST PUSH2 0xE87 DUP3 DUP11 PUSH2 0x20E3 JUMP JUMPDEST MSTORE PUSH2 0xBD1 DUP2 DUP10 PUSH2 0x20E3 JUMP JUMPDEST SWAP5 SWAP1 POP PUSH2 0xE5A JUMP JUMPDEST POP SWAP4 SWAP6 SWAP3 SWAP5 SWAP1 POP PUSH1 0x1 SWAP2 POP ADD SWAP1 SWAP2 PUSH2 0xD8B JUMP JUMPDEST PUSH2 0xECA SWAP2 SWAP3 POP RETURNDATASIZE DUP1 PUSH0 DUP4 RETURNDATACOPY PUSH2 0xEC2 DUP2 DUP4 PUSH2 0x1A6A JUMP JUMPDEST DUP2 ADD SWAP1 PUSH2 0x1FA2 JUMP JUMPDEST SWAP1 DUP8 PUSH2 0xE2A JUMP JUMPDEST PUSH4 0x4E487B71 PUSH1 0xE0 SHL PUSH0 MSTORE PUSH1 0x11 PUSH1 0x4 MSTORE PUSH1 0x24 PUSH0 REVERT JUMPDEST CALLVALUE PUSH2 0x7FB JUMPI PUSH1 0x40 CALLDATASIZE PUSH1 0x3 NOT ADD SLT PUSH2 0x7FB JUMPI PUSH1 0x4 CALLDATALOAD PUSH1 0x1 PUSH1 0x1 PUSH1 0x40 SHL SUB DUP2 GT PUSH2 0x7FB JUMPI PUSH2 0xF15 SWAP1 CALLDATASIZE SWAP1 PUSH1 0x4 ADD PUSH2 0x1AA6 JUMP JUMPDEST PUSH1 0x24 CALLDATALOAD PUSH1 0x1 PUSH1 0x1 PUSH1 0x40 SHL SUB DUP2 GT PUSH2 0x7FB JUMPI PUSH2 0xF34 SWAP1 CALLDATASIZE SWAP1 PUSH1 0x4 ADD PUSH2 0x1AA6 JUMP JUMPDEST SWAP1 PUSH1 0x60 PUSH1 0x80 PUSH1 0x40 MLOAD PUSH2 0xF45 DUP2 PUSH2 0x1A34 JUMP JUMPDEST PUSH0 DUP2 MSTORE DUP3 PUSH1 0x20 DUP3 ADD MSTORE DUP3 PUSH1 0x40 DUP3 ADD MSTORE PUSH0 DUP4 DUP3 ADD MSTORE ADD MSTORE PUSH1 0x1 DUP1 PUSH1 0xA0 SHL SUB PUSH32 0x0 AND SWAP1 PUSH1 0x40 MLOAD PUSH4 0x30804C31 PUSH1 0xE1 SHL DUP2 MSTORE PUSH1 0x20 PUSH1 0x4 DUP3 ADD MSTORE PUSH0 DUP2 DUP1 PUSH2 0xFA9 PUSH1 0x24 DUP3 ADD DUP9 PUSH2 0x1AEC JUMP JUMPDEST SUB DUP2 DUP7 GAS STATICCALL SWAP1 DUP2 ISZERO PUSH2 0x7F0 JUMPI PUSH0 SWAP2 PUSH2 0x1220 JUMPI JUMPDEST POP PUSH2 0x1017 SWAP2 PUSH0 SWAP2 SWAP5 PUSH1 0x40 MLOAD PUSH2 0xFF0 PUSH1 0x20 DUP3 DUP2 DUP1 DUP3 ADD SWAP6 DUP1 MLOAD SWAP2 DUP3 SWAP2 ADD DUP8 MCOPY DUP2 ADD DUP8 DUP4 DUP3 ADD MSTORE SUB ADD PUSH1 0x1F NOT DUP2 ADD DUP4 MSTORE DUP3 PUSH2 0x1A6A JUMP JUMPDEST MLOAD SWAP1 KECCAK256 SWAP4 PUSH1 0x40 MLOAD DUP1 DUP1 SWAP6 DUP2 SWAP5 PUSH4 0x46ABDD05 PUSH1 0xE1 SHL DUP4 MSTORE PUSH1 0x20 PUSH1 0x4 DUP5 ADD MSTORE PUSH1 0x24 DUP4 ADD SWAP1 PUSH2 0x1AEC JUMP JUMPDEST SUB SWAP2 GAS STATICCALL SWAP1 DUP2 ISZERO PUSH2 0x7F0 JUMPI PUSH0 SWAP2 PUSH2 0x1206 JUMPI JUMPDEST POP PUSH1 0x40 MLOAD SWAP1 PUSH2 0x1037 DUP3 PUSH2 0x1A34 JUMP JUMPDEST PUSH0 DUP3 MSTORE PUSH1 0x20 SWAP2 PUSH1 0x40 MLOAD PUSH2 0x104A DUP5 DUP3 PUSH2 0x1A6A JUMP JUMPDEST PUSH0 DUP2 MSTORE DUP4 DUP3 ADD MSTORE PUSH1 0x40 MLOAD PUSH2 0x105E DUP5 DUP3 PUSH2 0x1A6A JUMP JUMPDEST PUSH0 DUP2 MSTORE PUSH1 0x40 DUP3 ADD MSTORE PUSH0 PUSH1 0x60 DUP3 ADD MSTORE PUSH1 0x40 MLOAD PUSH2 0x1079 DUP5 DUP3 PUSH2 0x1A6A JUMP JUMPDEST PUSH0 DUP2 MSTORE PUSH1 0x80 DUP3 ADD MSTORE SWAP3 PUSH0 JUMPDEST DUP3 MLOAD DUP2 LT ISZERO PUSH2 0x11FE JUMPI DUP2 PUSH1 0x40 PUSH2 0x109A DUP4 DUP7 PUSH2 0x20E3 JUMP JUMPDEST MLOAD ADD MLOAD PUSH1 0x40 MLOAD PUSH2 0x10C8 DUP8 DUP3 DUP2 DUP1 DUP3 ADD SWAP6 DUP1 MLOAD SWAP2 DUP3 SWAP2 ADD DUP8 MCOPY DUP2 ADD PUSH0 DUP4 DUP3 ADD MSTORE SUB ADD PUSH1 0x1F NOT DUP2 ADD DUP4 MSTORE DUP3 PUSH2 0x1A6A JUMP JUMPDEST MLOAD SWAP1 KECCAK256 EQ PUSH2 0x10D8 JUMPI PUSH1 0x1 ADD PUSH2 0x1084 JUMP JUMPDEST SWAP2 SWAP1 POP PUSH2 0x10E6 SWAP3 SWAP4 POP PUSH2 0x20E3 JUMP JUMPDEST MLOAD SWAP1 JUMPDEST PUSH1 0x40 MLOAD PUSH4 0x95A8C58D PUSH1 0xE0 SHL DUP2 MSTORE CALLER PUSH1 0x4 DUP3 ADD MSTORE PUSH1 0x1 PUSH1 0x24 DUP3 ADD MSTORE SWAP1 DUP1 DUP3 PUSH1 0x44 DUP2 PUSH32 0x0 PUSH1 0x1 PUSH1 0x1 PUSH1 0xA0 SHL SUB AND GAS STATICCALL SWAP4 DUP5 ISZERO PUSH2 0x7F0 JUMPI PUSH2 0x11BE SWAP5 PUSH2 0x968 SWAP4 PUSH0 SWAP2 PUSH2 0x11E1 JUMPI JUMPDEST POP PUSH2 0x11CB JUMPI JUMPDEST PUSH1 0x40 MLOAD SWAP5 DUP6 SWAP5 PUSH1 0x40 DUP7 MSTORE DUP1 MLOAD PUSH2 0x1166 DUP2 PUSH2 0x1B10 JUMP JUMPDEST PUSH1 0x40 DUP8 ADD MSTORE PUSH1 0x80 PUSH2 0x119D PUSH2 0x1188 DUP7 DUP5 ADD MLOAD PUSH1 0xA0 PUSH1 0x60 DUP12 ADD MSTORE PUSH1 0xE0 DUP11 ADD SWAP1 PUSH2 0x1AEC JUMP JUMPDEST PUSH1 0x40 DUP5 ADD MLOAD DUP10 DUP3 SUB PUSH1 0x3F NOT ADD DUP5 DUP12 ADD MSTORE PUSH2 0x1AEC JUMP JUMPDEST PUSH1 0x60 DUP4 ADD MLOAD PUSH1 0xFF AND PUSH1 0xA0 DUP10 ADD MSTORE SWAP2 ADD MLOAD DUP7 DUP3 SUB PUSH1 0x3F NOT ADD PUSH1 0xC0 DUP9 ADD MSTORE PUSH2 0x1AEC JUMP JUMPDEST SWAP2 DUP5 DUP4 SUB SWAP1 DUP6 ADD MSTORE PUSH2 0x1BF7 JUMP JUMPDEST POP PUSH1 0x40 MLOAD PUSH2 0x11D9 DUP3 DUP3 PUSH2 0x1A6A JUMP JUMPDEST PUSH0 DUP2 MSTORE PUSH2 0x1151 JUMP JUMPDEST PUSH2 0x11F8 SWAP2 POP DUP4 RETURNDATASIZE DUP6 GT PUSH2 0x35F JUMPI PUSH2 0x351 DUP2 DUP4 PUSH2 0x1A6A JUMP JUMPDEST DUP7 PUSH2 0x114B JUMP JUMPDEST POP POP POP PUSH2 0x10E9 JUMP JUMPDEST PUSH2 0x121A SWAP2 POP RETURNDATASIZE DUP1 PUSH0 DUP4 RETURNDATACOPY PUSH2 0xEC2 DUP2 DUP4 PUSH2 0x1A6A JUMP JUMPDEST DUP4 PUSH2 0x1029 JUMP JUMPDEST SWAP1 POP RETURNDATASIZE DUP1 PUSH0 DUP4 RETURNDATACOPY PUSH2 0x1231 DUP2 DUP4 PUSH2 0x1A6A JUMP JUMPDEST DUP2 ADD SWAP2 PUSH1 0x20 DUP3 DUP5 SUB SLT PUSH2 0x7FB JUMPI DUP2 MLOAD SWAP2 PUSH1 0x1 PUSH1 0x1 PUSH1 0x40 SHL SUB DUP4 GT PUSH2 0x7FB JUMPI PUSH2 0x1017 SWAP4 PUSH0 SWAP4 PUSH2 0x125F SWAP3 ADD PUSH2 0x2105 JUMP JUMPDEST SWAP2 POP SWAP2 PUSH2 0xFBC JUMP JUMPDEST CALLVALUE PUSH2 0x7FB JUMPI PUSH0 CALLDATASIZE PUSH1 0x3 NOT ADD SLT PUSH2 0x7FB JUMPI PUSH1 0x40 MLOAD PUSH4 0x95A8C58D PUSH1 0xE0 SHL DUP2 MSTORE CALLER PUSH1 0x4 DUP3 ADD MSTORE PUSH1 0x2 PUSH1 0x24 DUP3 ADD MSTORE PUSH1 0x20 DUP2 PUSH1 0x44 DUP2 PUSH32 0x0 PUSH1 0x1 PUSH1 0x1 PUSH1 0xA0 SHL SUB AND GAS STATICCALL SWAP1 DUP2 ISZERO PUSH2 0x7F0 JUMPI PUSH0 SWAP2 PUSH2 0x14F4 JUMPI JUMPDEST POP ISZERO PUSH2 0x14C3 JUMPI PUSH1 0x1 SLOAD PUSH2 0x12E3 DUP2 PUSH2 0x2329 JUMP JUMPDEST PUSH2 0x12EC DUP3 PUSH2 0x1DE7 JUMP JUMPDEST SWAP2 PUSH2 0x12FA PUSH1 0x40 MLOAD SWAP4 DUP5 PUSH2 0x1A6A JUMP JUMPDEST DUP1 DUP4 MSTORE PUSH1 0x20 DUP4 ADD PUSH1 0x1 PUSH0 MSTORE PUSH32 0xB10E2D527612073B26EECDFD717E6A320CF44B4AFAC2B0732D9FCBE2B7FA0CF6 SWAP1 PUSH0 SWAP1 JUMPDEST DUP4 DUP3 LT PUSH2 0x14A6 JUMPI POP POP PUSH1 0x1 PUSH1 0x1 PUSH1 0xA0 SHL SUB PUSH32 0x0 DUP2 AND SWAP5 PUSH32 0x0 SWAP1 SWAP2 AND SWAP2 POP PUSH0 JUMPDEST DUP4 DUP2 LT PUSH2 0x139C JUMPI PUSH1 0x40 MLOAD DUP1 PUSH2 0x968 DUP8 DUP3 PUSH2 0x1C4F JUMP JUMPDEST PUSH2 0x13A6 DUP2 DUP4 PUSH2 0x20E3 JUMP JUMPDEST MLOAD PUSH1 0x40 MLOAD PUSH4 0x6B2C1339 PUSH1 0xE1 SHL DUP2 MSTORE PUSH1 0x20 PUSH1 0x4 DUP3 ADD MSTORE SWAP2 SWAP1 PUSH0 DUP4 DUP1 PUSH2 0x13CD PUSH1 0x24 DUP3 ADD DUP6 PUSH2 0x1AEC JUMP JUMPDEST SUB DUP2 DUP12 GAS STATICCALL SWAP3 DUP4 ISZERO PUSH2 0x7F0 JUMPI PUSH0 SWAP4 PUSH2 0x148A JUMPI JUMPDEST POP PUSH1 0x40 MLOAD PUSH4 0x74A5ABCF PUSH1 0xE0 SHL DUP2 MSTORE PUSH1 0x20 PUSH1 0x4 DUP3 ADD MSTORE SWAP3 PUSH0 DUP5 DUP1 PUSH2 0x1406 PUSH1 0x24 DUP3 ADD DUP7 PUSH2 0x1AEC JUMP JUMPDEST SUB DUP2 DUP10 GAS STATICCALL SWAP4 DUP5 ISZERO PUSH2 0x7F0 JUMPI PUSH1 0x1 SWAP5 PUSH1 0xFF SWAP2 PUSH0 SWAP1 PUSH0 SWAP3 PUSH2 0x146D JUMPI JUMPDEST POP PUSH1 0xA0 PUSH1 0x20 DUP6 ADD MLOAD SWAP5 ADD MLOAD SWAP4 PUSH1 0x40 MLOAD SWAP6 PUSH2 0x143A DUP8 PUSH2 0x1A34 JUMP JUMPDEST DUP7 MSTORE PUSH1 0x20 DUP7 ADD MSTORE PUSH1 0x40 DUP6 ADD MSTORE AND PUSH1 0x60 DUP4 ADD MSTORE PUSH1 0x80 DUP3 ADD MSTORE PUSH2 0x145B DUP3 DUP9 PUSH2 0x20E3 JUMP JUMPDEST MSTORE PUSH2 0x1466 DUP2 DUP8 PUSH2 0x20E3 JUMP JUMPDEST POP ADD PUSH2 0x1387 JUMP JUMPDEST SWAP1 POP PUSH2 0x1483 SWAP2 POP RETURNDATASIZE DUP1 PUSH0 DUP4 RETURNDATACOPY PUSH2 0xBF9 DUP2 DUP4 PUSH2 0x1A6A JUMP JUMPDEST SWAP1 DUP13 PUSH2 0x1421 JUMP JUMPDEST PUSH2 0x149F SWAP2 SWAP4 POP RETURNDATASIZE DUP1 PUSH0 DUP4 RETURNDATACOPY PUSH2 0xC1E DUP2 DUP4 PUSH2 0x1A6A JUMP JUMPDEST SWAP2 DUP9 PUSH2 0x13E0 JUMP JUMPDEST PUSH1 0x1 PUSH1 0x20 DUP2 SWAP3 PUSH2 0x14B5 DUP7 PUSH2 0x1D47 JUMP JUMPDEST DUP2 MSTORE ADD SWAP4 ADD SWAP2 ADD SWAP1 SWAP2 PUSH2 0x132A JUMP JUMPDEST PUSH1 0x40 MLOAD PUSH3 0x461BCD PUSH1 0xE5 SHL DUP2 MSTORE PUSH1 0x20 PUSH1 0x4 DUP3 ADD MSTORE PUSH1 0x9 PUSH1 0x24 DUP3 ADD MSTORE PUSH9 0x4F6E6C792042504F4D PUSH1 0xB8 SHL PUSH1 0x44 DUP3 ADD MSTORE PUSH1 0x64 SWAP1 REVERT JUMPDEST PUSH2 0x150D SWAP2 POP PUSH1 0x20 RETURNDATASIZE PUSH1 0x20 GT PUSH2 0x35F JUMPI PUSH2 0x351 DUP2 DUP4 PUSH2 0x1A6A JUMP JUMPDEST DUP2 PUSH2 0x12D1 JUMP JUMPDEST CALLVALUE PUSH2 0x7FB JUMPI PUSH1 0x20 CALLDATASIZE PUSH1 0x3 NOT ADD SLT PUSH2 0x7FB JUMPI PUSH1 0x4 CALLDATALOAD PUSH1 0x1 PUSH1 0x1 PUSH1 0x40 SHL SUB DUP2 GT PUSH2 0x7FB JUMPI PUSH0 PUSH2 0x1547 PUSH2 0x15B6 SWAP3 CALLDATASIZE SWAP1 PUSH1 0x4 ADD PUSH2 0x1AA6 JUMP JUMPDEST PUSH1 0x60 PUSH2 0x140 PUSH1 0x40 MLOAD PUSH2 0x1558 DUP2 PUSH2 0x1A18 JUMP JUMPDEST DUP3 DUP2 MSTORE DUP3 PUSH1 0x20 DUP3 ADD MSTORE DUP3 PUSH1 0x40 DUP3 ADD MSTORE DUP3 DUP1 DUP3 ADD MSTORE DUP3 PUSH1 0x80 DUP3 ADD MSTORE DUP3 PUSH1 0xA0 DUP3 ADD MSTORE DUP5 PUSH1 0xC0 DUP3 ADD MSTORE DUP5 PUSH1 0xE0 DUP3 ADD MSTORE DUP3 PUSH2 0x100 DUP3 ADD MSTORE DUP3 PUSH2 0x120 DUP3 ADD MSTORE ADD MSTORE PUSH1 0x40 MLOAD DUP1 SWAP4 DUP2 SWAP3 PUSH4 0x6B2C1339 PUSH1 0xE1 SHL DUP4 MSTORE PUSH1 0x20 PUSH1 0x4 DUP5 ADD MSTORE PUSH1 0x24 DUP4 ADD SWAP1 PUSH2 0x1AEC JUMP JUMPDEST SUB DUP2 PUSH32 0x0 PUSH1 0x1 PUSH1 0x1 PUSH1 0xA0 SHL SUB AND GAS STATICCALL DUP1 ISZERO PUSH2 0x7F0 JUMPI PUSH2 0x968 SWAP2 PUSH0 SWAP2 PUSH2 0x170B JUMPI JUMPDEST POP PUSH1 0x40 MLOAD SWAP2 DUP3 SWAP2 PUSH1 0x20 DUP4 MSTORE PUSH2 0x140 PUSH2 0x16F6 PUSH2 0x16E0 PUSH2 0x169F PUSH2 0x1689 PUSH2 0x1673 PUSH2 0x165D PUSH2 0x1647 PUSH2 0x1631 DUP12 PUSH2 0x160 PUSH1 0x20 DUP13 MLOAD SWAP3 ADD MSTORE PUSH2 0x180 DUP14 ADD SWAP1 PUSH2 0x1AEC JUMP JUMPDEST PUSH1 0x20 DUP11 ADD MLOAD DUP13 DUP3 SUB PUSH1 0x1F NOT ADD PUSH1 0x40 DUP15 ADD MSTORE PUSH2 0x1AEC JUMP JUMPDEST PUSH1 0x40 DUP10 ADD MLOAD DUP12 DUP3 SUB PUSH1 0x1F NOT ADD PUSH1 0x60 DUP14 ADD MSTORE PUSH2 0x1BF7 JUMP JUMPDEST PUSH1 0x60 DUP9 ADD MLOAD DUP11 DUP3 SUB PUSH1 0x1F NOT ADD PUSH1 0x80 DUP13 ADD MSTORE PUSH2 0x1BF7 JUMP JUMPDEST PUSH1 0x80 DUP8 ADD MLOAD DUP10 DUP3 SUB PUSH1 0x1F NOT ADD PUSH1 0xA0 DUP12 ADD MSTORE PUSH2 0x1AEC JUMP JUMPDEST PUSH1 0xA0 DUP7 ADD MLOAD DUP9 DUP3 SUB PUSH1 0x1F NOT ADD PUSH1 0xC0 DUP11 ADD MSTORE PUSH2 0x1AEC JUMP JUMPDEST PUSH1 0xC0 DUP6 ADD MLOAD PUSH1 0x1 PUSH1 0x1 PUSH1 0xA0 SHL SUB AND PUSH1 0xE0 DUP9 DUP2 ADD SWAP2 SWAP1 SWAP2 MSTORE DUP6 ADD MLOAD PUSH2 0x16C2 DUP2 PUSH2 0x1B10 JUMP JUMPDEST PUSH2 0x100 DUP9 ADD MSTORE PUSH2 0x100 DUP6 ADD MLOAD PUSH1 0x1F NOT DUP9 DUP4 SUB ADD PUSH2 0x120 DUP10 ADD MSTORE PUSH2 0x1AEC JUMP JUMPDEST PUSH2 0x120 DUP5 ADD MLOAD DUP7 DUP3 SUB PUSH1 0x1F NOT ADD DUP5 DUP9 ADD MSTORE PUSH2 0x1AEC JUMP JUMPDEST SWAP2 ADD MLOAD DUP4 DUP3 SUB PUSH1 0x1F NOT ADD PUSH2 0x160 DUP6 ADD MSTORE PUSH2 0x1AEC JUMP JUMPDEST PUSH2 0x171F SWAP2 POP RETURNDATASIZE DUP1 PUSH0 DUP4 RETURNDATACOPY PUSH2 0xC1E DUP2 DUP4 PUSH2 0x1A6A JUMP JUMPDEST DUP3 PUSH2 0x15F5 JUMP JUMPDEST CALLVALUE PUSH2 0x7FB JUMPI PUSH0 CALLDATASIZE PUSH1 0x3 NOT ADD SLT PUSH2 0x7FB JUMPI PUSH1 0x40 MLOAD PUSH32 0x0 PUSH1 0x1 PUSH1 0x1 PUSH1 0xA0 SHL SUB AND DUP2 MSTORE PUSH1 0x20 SWAP1 RETURN JUMPDEST CALLVALUE PUSH2 0x7FB JUMPI PUSH1 0x20 CALLDATASIZE PUSH1 0x3 NOT ADD SLT PUSH2 0x7FB JUMPI PUSH1 0x4 CALLDATALOAD PUSH1 0x1 PUSH1 0x1 PUSH1 0x40 SHL SUB DUP2 GT PUSH2 0x7FB JUMPI PUSH2 0x1799 SWAP1 CALLDATASIZE SWAP1 PUSH1 0x4 ADD PUSH2 0x1AA6 JUMP JUMPDEST PUSH1 0x40 MLOAD PUSH4 0x95A8C58D PUSH1 0xE0 SHL DUP2 MSTORE CALLER PUSH1 0x4 DUP3 ADD MSTORE PUSH0 PUSH1 0x24 DUP3 ADD MSTORE PUSH1 0x20 DUP2 PUSH1 0x44 DUP2 PUSH1 0x1 PUSH1 0x1 PUSH1 0xA0 SHL SUB PUSH32 0x0 AND GAS STATICCALL DUP1 ISZERO PUSH2 0x7F0 JUMPI PUSH2 0x17FA SWAP2 PUSH0 SWAP2 PUSH2 0xD0F JUMPI POP PUSH2 0x1E94 JUMP JUMPDEST PUSH1 0x1 SLOAD SWAP1 PUSH1 0x40 MLOAD PUSH2 0x182A PUSH1 0x20 DUP3 DUP2 DUP1 DUP3 ADD SWAP6 DUP1 MLOAD SWAP2 DUP3 SWAP2 ADD DUP8 MCOPY DUP2 ADD PUSH0 DUP4 DUP3 ADD MSTORE SUB ADD PUSH1 0x1F NOT DUP2 ADD DUP4 MSTORE DUP3 PUSH2 0x1A6A JUMP JUMPDEST MLOAD SWAP1 KECCAK256 PUSH1 0x5 DUP3 MUL DUP3 DUP2 DIV PUSH1 0x5 EQ DUP4 ISZERO OR ISZERO PUSH2 0xED1 JUMPI PUSH2 0x1848 SWAP1 PUSH2 0x1EFF JUMP JUMPDEST SWAP2 PUSH0 SWAP2 DUP3 SWAP1 PUSH32 0x0 PUSH1 0x1 PUSH1 0x1 PUSH1 0xA0 SHL SUB AND JUMPDEST DUP4 DUP4 LT PUSH2 0x18CC JUMPI DUP6 DUP6 PUSH2 0x188A DUP2 PUSH2 0x1EFF JUMP JUMPDEST SWAP2 PUSH0 JUMPDEST DUP3 DUP2 LT PUSH2 0x18A2 JUMPI PUSH1 0x40 MLOAD DUP1 PUSH2 0x968 DUP7 DUP3 PUSH2 0x1B2E JUMP JUMPDEST DUP1 PUSH2 0x18AF PUSH1 0x1 SWAP3 DUP5 PUSH2 0x20E3 JUMP JUMPDEST MLOAD PUSH2 0x18BA DUP3 DUP8 PUSH2 0x20E3 JUMP JUMPDEST MSTORE PUSH2 0x18C5 DUP2 DUP7 PUSH2 0x20E3 JUMP JUMPDEST POP ADD PUSH2 0x188D JUMP JUMPDEST PUSH2 0x18DE PUSH2 0xA97 DUP5 SWAP7 SWAP5 SWAP8 SWAP4 SWAP6 SWAP8 PUSH2 0x1CE3 JUMP JUMPDEST SWAP2 PUSH1 0x40 MLOAD SWAP2 PUSH4 0x46ABDD05 PUSH1 0xE1 SHL DUP4 MSTORE PUSH1 0x20 PUSH1 0x4 DUP5 ADD MSTORE PUSH0 DUP4 DUP1 PUSH2 0x1904 PUSH1 0x24 DUP3 ADD DUP9 PUSH2 0x1AEC JUMP JUMPDEST SUB DUP2 DUP5 GAS STATICCALL SWAP3 DUP4 ISZERO PUSH2 0x7F0 JUMPI PUSH0 SWAP4 PUSH2 0x19BB JUMPI JUMPDEST POP PUSH0 JUMPDEST DUP4 MLOAD DUP2 LT ISZERO PUSH2 0x19A8 JUMPI DUP7 PUSH1 0x80 PUSH2 0x1930 DUP4 DUP8 PUSH2 0x20E3 JUMP JUMPDEST MLOAD ADD MLOAD PUSH1 0x40 MLOAD PUSH2 0x195F PUSH1 0x20 DUP3 DUP2 DUP1 DUP3 ADD SWAP6 DUP1 MLOAD SWAP2 DUP3 SWAP2 ADD DUP8 MCOPY DUP2 ADD PUSH0 DUP4 DUP3 ADD MSTORE SUB ADD PUSH1 0x1F NOT DUP2 ADD DUP4 MSTORE DUP3 PUSH2 0x1A6A JUMP JUMPDEST MLOAD SWAP1 KECCAK256 EQ PUSH2 0x1970 JUMPI JUMPDEST PUSH1 0x1 ADD PUSH2 0x191A JUMP JUMPDEST SWAP5 PUSH2 0x19A0 PUSH1 0x1 SWAP2 PUSH2 0x198B PUSH2 0x1984 DUP10 DUP9 PUSH2 0x20E3 JUMP JUMPDEST MLOAD DUP9 PUSH2 0x23D2 JUMP JUMPDEST PUSH2 0x1995 DUP3 DUP8 PUSH2 0x20E3 JUMP JUMPDEST MSTORE PUSH2 0xBD1 DUP2 DUP7 PUSH2 0x20E3 JUMP JUMPDEST SWAP6 SWAP1 POP PUSH2 0x1968 JUMP JUMPDEST POP SWAP5 SWAP3 POP SWAP6 SWAP3 SWAP5 PUSH1 0x1 SWAP2 POP ADD SWAP2 SWAP3 PUSH2 0x1878 JUMP JUMPDEST PUSH2 0x19D0 SWAP2 SWAP4 POP RETURNDATASIZE DUP1 PUSH0 DUP4 RETURNDATACOPY PUSH2 0xEC2 DUP2 DUP4 PUSH2 0x1A6A JUMP JUMPDEST SWAP2 DUP9 PUSH2 0x1917 JUMP JUMPDEST CALLVALUE PUSH2 0x7FB JUMPI PUSH0 CALLDATASIZE PUSH1 0x3 NOT ADD SLT PUSH2 0x7FB JUMPI PUSH32 0x0 PUSH1 0x1 PUSH1 0x1 PUSH1 0xA0 SHL SUB AND DUP2 MSTORE PUSH1 0x20 SWAP1 RETURN JUMPDEST PUSH2 0x160 DUP2 ADD SWAP1 DUP2 LT PUSH1 0x1 PUSH1 0x1 PUSH1 0x40 SHL SUB DUP3 GT OR PUSH2 0x8B2 JUMPI PUSH1 0x40 MSTORE JUMP JUMPDEST PUSH1 0xA0 DUP2 ADD SWAP1 DUP2 LT PUSH1 0x1 PUSH1 0x1 PUSH1 0x40 SHL SUB DUP3 GT OR PUSH2 0x8B2 JUMPI PUSH1 0x40 MSTORE JUMP JUMPDEST PUSH1 0xC0 DUP2 ADD SWAP1 DUP2 LT PUSH1 0x1 PUSH1 0x1 PUSH1 0x40 SHL SUB DUP3 GT OR PUSH2 0x8B2 JUMPI PUSH1 0x40 MSTORE JUMP JUMPDEST SWAP1 PUSH1 0x1F DUP1 NOT SWAP2 ADD AND DUP2 ADD SWAP1 DUP2 LT PUSH1 0x1 PUSH1 0x1 PUSH1 0x40 SHL SUB DUP3 GT OR PUSH2 0x8B2 JUMPI PUSH1 0x40 MSTORE JUMP JUMPDEST PUSH1 0x1 PUSH1 0x1 PUSH1 0x40 SHL SUB DUP2 GT PUSH2 0x8B2 JUMPI PUSH1 0x1F ADD PUSH1 0x1F NOT AND PUSH1 0x20 ADD SWAP1 JUMP JUMPDEST DUP2 PUSH1 0x1F DUP3 ADD SLT ISZERO PUSH2 0x7FB JUMPI DUP1 CALLDATALOAD SWAP1 PUSH2 0x1ABD DUP3 PUSH2 0x1A8B JUMP JUMPDEST SWAP3 PUSH2 0x1ACB PUSH1 0x40 MLOAD SWAP5 DUP6 PUSH2 0x1A6A JUMP JUMPDEST DUP3 DUP5 MSTORE PUSH1 0x20 DUP4 DUP4 ADD ADD GT PUSH2 0x7FB JUMPI DUP2 PUSH0 SWAP3 PUSH1 0x20 DUP1 SWAP4 ADD DUP4 DUP7 ADD CALLDATACOPY DUP4 ADD ADD MSTORE SWAP1 JUMP JUMPDEST DUP1 MLOAD DUP1 DUP4 MSTORE PUSH1 0x20 SWAP3 SWAP2 DUP2 SWAP1 DUP5 ADD DUP5 DUP5 ADD MCOPY PUSH0 DUP3 DUP3 ADD DUP5 ADD MSTORE PUSH1 0x1F ADD PUSH1 0x1F NOT AND ADD ADD SWAP1 JUMP JUMPDEST PUSH1 0x2 GT ISZERO PUSH2 0x1B1A JUMPI JUMP JUMPDEST PUSH4 0x4E487B71 PUSH1 0xE0 SHL PUSH0 MSTORE PUSH1 0x21 PUSH1 0x4 MSTORE PUSH1 0x24 PUSH0 REVERT JUMPDEST PUSH1 0x20 DUP2 ADD PUSH1 0x20 DUP3 MSTORE DUP3 MLOAD DUP1 SWAP2 MSTORE PUSH1 0x40 DUP3 ADD SWAP2 PUSH1 0x20 PUSH1 0x40 DUP4 PUSH1 0x5 SHL DUP4 ADD ADD SWAP5 ADD SWAP3 PUSH0 SWAP2 JUMPDEST DUP4 DUP4 LT PUSH2 0x1B60 JUMPI POP POP POP POP POP SWAP1 JUMP JUMPDEST SWAP1 SWAP2 SWAP3 SWAP4 SWAP5 PUSH1 0x20 DUP1 PUSH2 0x1BE8 PUSH1 0x1 SWAP4 PUSH1 0x3F NOT DUP7 DUP3 SUB ADD DUP8 MSTORE DUP10 MLOAD SWAP1 PUSH1 0xA0 PUSH2 0x1BB7 PUSH2 0x1BA5 PUSH2 0x1B95 DUP6 MLOAD PUSH1 0xC0 DUP7 MSTORE PUSH1 0xC0 DUP7 ADD SWAP1 PUSH2 0x1AEC JUMP JUMPDEST DUP8 DUP7 ADD MLOAD DUP6 DUP3 SUB DUP10 DUP8 ADD MSTORE PUSH2 0x1AEC JUMP JUMPDEST PUSH1 0x40 DUP6 ADD MLOAD DUP5 DUP3 SUB PUSH1 0x40 DUP7 ADD MSTORE PUSH2 0x1AEC JUMP JUMPDEST SWAP3 PUSH1 0xFF PUSH1 0x60 DUP3 ADD MLOAD AND PUSH1 0x60 DUP5 ADD MSTORE PUSH1 0x80 DUP2 ADD MLOAD PUSH2 0x1BD3 DUP2 PUSH2 0x1B10 JUMP JUMPDEST PUSH1 0x80 DUP5 ADD MSTORE ADD MLOAD SWAP1 PUSH1 0xA0 DUP2 DUP5 SUB SWAP2 ADD MSTORE PUSH2 0x1AEC JUMP JUMPDEST SWAP8 ADD SWAP4 ADD SWAP4 ADD SWAP2 SWAP4 SWAP3 SWAP1 PUSH2 0x1B51 JUMP JUMPDEST SWAP1 DUP1 PUSH1 0x20 DUP4 MLOAD SWAP2 DUP3 DUP2 MSTORE ADD SWAP2 PUSH1 0x20 DUP1 DUP4 PUSH1 0x5 SHL DUP4 ADD ADD SWAP5 ADD SWAP3 PUSH0 SWAP2 JUMPDEST DUP4 DUP4 LT PUSH2 0x1C22 JUMPI POP POP POP POP POP SWAP1 JUMP JUMPDEST SWAP1 SWAP2 SWAP3 SWAP4 SWAP5 PUSH1 0x20 DUP1 PUSH2 0x1C40 PUSH1 0x1 SWAP4 PUSH1 0x1F NOT DUP7 DUP3 SUB ADD DUP8 MSTORE DUP10 MLOAD PUSH2 0x1AEC JUMP JUMPDEST SWAP8 ADD SWAP4 ADD SWAP4 ADD SWAP2 SWAP4 SWAP3 SWAP1 PUSH2 0x1C13 JUMP JUMPDEST PUSH1 0x20 DUP2 ADD PUSH1 0x20 DUP3 MSTORE DUP3 MLOAD DUP1 SWAP2 MSTORE PUSH1 0x40 DUP3 ADD SWAP2 PUSH1 0x20 PUSH1 0x40 DUP4 PUSH1 0x5 SHL DUP4 ADD ADD SWAP5 ADD SWAP3 PUSH0 SWAP2 JUMPDEST DUP4 DUP4 LT PUSH2 0x1C81 JUMPI POP POP POP POP POP SWAP1 JUMP JUMPDEST SWAP1 SWAP2 SWAP3 SWAP4 SWAP5 PUSH1 0x20 DUP1 PUSH2 0x1CD4 PUSH1 0x1 SWAP4 PUSH1 0x3F NOT DUP7 DUP3 SUB ADD DUP8 MSTORE DUP10 MLOAD SWAP1 PUSH1 0x80 PUSH2 0x1CB6 PUSH2 0x1BA5 PUSH2 0x1B95 DUP6 MLOAD PUSH1 0xA0 DUP7 MSTORE PUSH1 0xA0 DUP7 ADD SWAP1 PUSH2 0x1AEC JUMP JUMPDEST SWAP3 PUSH1 0xFF PUSH1 0x60 DUP3 ADD MLOAD AND PUSH1 0x60 DUP5 ADD MSTORE ADD MLOAD SWAP1 PUSH1 0x80 DUP2 DUP5 SUB SWAP2 ADD MSTORE PUSH2 0x1AEC JUMP JUMPDEST SWAP8 ADD SWAP4 ADD SWAP4 ADD SWAP2 SWAP4 SWAP3 SWAP1 PUSH2 0x1C72 JUMP JUMPDEST PUSH1 0x1 SLOAD DUP2 LT ISZERO PUSH2 0x1CFB JUMPI PUSH1 0x1 PUSH0 MSTORE PUSH1 0x20 PUSH0 KECCAK256 ADD SWAP1 PUSH0 SWAP1 JUMP JUMPDEST PUSH4 0x4E487B71 PUSH1 0xE0 SHL PUSH0 MSTORE PUSH1 0x32 PUSH1 0x4 MSTORE PUSH1 0x24 PUSH0 REVERT JUMPDEST SWAP1 PUSH1 0x1 DUP3 DUP2 SHR SWAP3 AND DUP1 ISZERO PUSH2 0x1D3D JUMPI JUMPDEST PUSH1 0x20 DUP4 LT EQ PUSH2 0x1D29 JUMPI JUMP JUMPDEST PUSH4 0x4E487B71 PUSH1 0xE0 SHL PUSH0 MSTORE PUSH1 0x22 PUSH1 0x4 MSTORE PUSH1 0x24 PUSH0 REVERT JUMPDEST SWAP2 PUSH1 0x7F AND SWAP2 PUSH2 0x1D1E JUMP JUMPDEST SWAP1 PUSH1 0x40 MLOAD SWAP2 DUP3 PUSH0 DUP3 SLOAD SWAP3 PUSH2 0x1D5A DUP5 PUSH2 0x1D0F JUMP JUMPDEST DUP1 DUP5 MSTORE SWAP4 PUSH1 0x1 DUP2 AND SWAP1 DUP2 ISZERO PUSH2 0x1DC5 JUMPI POP PUSH1 0x1 EQ PUSH2 0x1D81 JUMPI JUMPDEST POP PUSH2 0x1D7F SWAP3 POP SUB DUP4 PUSH2 0x1A6A JUMP JUMPDEST JUMP JUMPDEST SWAP1 POP PUSH0 SWAP3 SWAP2 SWAP3 MSTORE PUSH1 0x20 PUSH0 KECCAK256 SWAP1 PUSH0 SWAP2 JUMPDEST DUP2 DUP4 LT PUSH2 0x1DA9 JUMPI POP POP SWAP1 PUSH1 0x20 PUSH2 0x1D7F SWAP3 DUP3 ADD ADD PUSH0 PUSH2 0x1D72 JUMP JUMPDEST PUSH1 0x20 SWAP2 SWAP4 POP DUP1 PUSH1 0x1 SWAP2 SLOAD DUP4 DUP6 DUP10 ADD ADD MSTORE ADD SWAP2 ADD SWAP1 SWAP2 DUP5 SWAP3 PUSH2 0x1D90 JUMP JUMPDEST SWAP1 POP PUSH1 0x20 SWAP3 POP PUSH2 0x1D7F SWAP5 SWAP2 POP PUSH1 0xFF NOT AND DUP3 DUP5 ADD MSTORE ISZERO ISZERO PUSH1 0x5 SHL DUP3 ADD ADD PUSH0 PUSH2 0x1D72 JUMP JUMPDEST PUSH1 0x1 PUSH1 0x1 PUSH1 0x40 SHL SUB DUP2 GT PUSH2 0x8B2 JUMPI PUSH1 0x5 SHL PUSH1 0x20 ADD SWAP1 JUMP JUMPDEST SWAP1 DUP1 PUSH1 0x1F DUP4 ADD SLT ISZERO PUSH2 0x7FB JUMPI DUP2 CALLDATALOAD PUSH2 0x1E15 DUP2 PUSH2 0x1DE7 JUMP JUMPDEST SWAP3 PUSH2 0x1E23 PUSH1 0x40 MLOAD SWAP5 DUP6 PUSH2 0x1A6A JUMP JUMPDEST DUP2 DUP5 MSTORE PUSH1 0x20 DUP1 DUP6 ADD SWAP3 PUSH1 0x5 SHL DUP3 ADD ADD SWAP2 DUP4 DUP4 GT PUSH2 0x7FB JUMPI PUSH1 0x20 DUP3 ADD SWAP1 JUMPDEST DUP4 DUP3 LT PUSH2 0x1E4F JUMPI POP POP POP POP POP SWAP1 JUMP JUMPDEST DUP2 CALLDATALOAD PUSH1 0x1 PUSH1 0x1 PUSH1 0x40 SHL SUB DUP2 GT PUSH2 0x7FB JUMPI PUSH1 0x20 SWAP2 PUSH2 0x1E71 DUP8 DUP5 DUP1 SWAP5 DUP9 ADD ADD PUSH2 0x1AA6 JUMP JUMPDEST DUP2 MSTORE ADD SWAP2 ADD SWAP1 PUSH2 0x1E40 JUMP JUMPDEST SWAP1 DUP2 PUSH1 0x20 SWAP2 SUB SLT PUSH2 0x7FB JUMPI MLOAD DUP1 ISZERO ISZERO DUP2 SUB PUSH2 0x7FB JUMPI SWAP1 JUMP JUMPDEST ISZERO PUSH2 0x1E9B JUMPI JUMP JUMPDEST PUSH1 0x40 MLOAD PUSH3 0x461BCD PUSH1 0xE5 SHL DUP2 MSTORE PUSH1 0x20 PUSH1 0x4 DUP3 ADD MSTORE PUSH1 0xC PUSH1 0x24 DUP3 ADD MSTORE PUSH12 0x4F6E6C7920466163746F7279 PUSH1 0xA0 SHL PUSH1 0x44 DUP3 ADD MSTORE PUSH1 0x64 SWAP1 REVERT JUMPDEST PUSH1 0x40 MLOAD SWAP1 PUSH2 0x1EDC DUP3 PUSH2 0x1A4F JUMP JUMPDEST PUSH1 0x60 PUSH1 0xA0 DUP4 DUP3 DUP2 MSTORE DUP3 PUSH1 0x20 DUP3 ADD MSTORE DUP3 PUSH1 0x40 DUP3 ADD MSTORE PUSH0 DUP4 DUP3 ADD MSTORE PUSH0 PUSH1 0x80 DUP3 ADD MSTORE ADD MSTORE JUMP JUMPDEST SWAP1 PUSH2 0x1F09 DUP3 PUSH2 0x1DE7 JUMP JUMPDEST PUSH2 0x1F16 PUSH1 0x40 MLOAD SWAP2 DUP3 PUSH2 0x1A6A JUMP JUMPDEST DUP3 DUP2 MSTORE DUP1 SWAP3 PUSH2 0x1F27 PUSH1 0x1F NOT SWAP2 PUSH2 0x1DE7 JUMP JUMPDEST ADD SWAP1 PUSH0 JUMPDEST DUP3 DUP2 LT PUSH2 0x1F37 JUMPI POP POP POP JUMP JUMPDEST PUSH1 0x20 SWAP1 PUSH2 0x1F42 PUSH2 0x1ECF JUMP JUMPDEST DUP3 DUP3 DUP6 ADD ADD MSTORE ADD PUSH2 0x1F2B JUMP JUMPDEST DUP2 PUSH1 0x1F DUP3 ADD SLT ISZERO PUSH2 0x7FB JUMPI DUP1 MLOAD SWAP1 PUSH2 0x1F65 DUP3 PUSH2 0x1A8B JUMP JUMPDEST SWAP3 PUSH2 0x1F73 PUSH1 0x40 MLOAD SWAP5 DUP6 PUSH2 0x1A6A JUMP JUMPDEST DUP3 DUP5 MSTORE PUSH1 0x20 DUP4 DUP4 ADD ADD GT PUSH2 0x7FB JUMPI DUP2 PUSH0 SWAP3 PUSH1 0x20 DUP1 SWAP4 ADD DUP4 DUP7 ADD MCOPY DUP4 ADD ADD MSTORE SWAP1 JUMP JUMPDEST MLOAD SWAP1 PUSH1 0xFF DUP3 AND DUP3 SUB PUSH2 0x7FB JUMPI JUMP JUMPDEST PUSH1 0x20 DUP2 DUP4 SUB SLT PUSH2 0x7FB JUMPI DUP1 MLOAD SWAP1 PUSH1 0x1 PUSH1 0x1 PUSH1 0x40 SHL SUB DUP3 GT PUSH2 0x7FB JUMPI ADD SWAP1 DUP1 PUSH1 0x1F DUP4 ADD SLT ISZERO PUSH2 0x7FB JUMPI DUP2 MLOAD SWAP2 PUSH2 0x1FD6 DUP4 PUSH2 0x1DE7 JUMP JUMPDEST SWAP3 PUSH2 0x1FE4 PUSH1 0x40 MLOAD SWAP5 DUP6 PUSH2 0x1A6A JUMP JUMPDEST DUP1 DUP5 MSTORE PUSH1 0x20 DUP1 DUP6 ADD SWAP2 PUSH1 0x5 SHL DUP4 ADD ADD SWAP2 DUP4 DUP4 GT PUSH2 0x7FB JUMPI PUSH1 0x20 DUP2 ADD SWAP2 JUMPDEST DUP4 DUP4 LT PUSH2 0x2010 JUMPI POP POP POP POP POP SWAP1 JUMP JUMPDEST DUP3 MLOAD PUSH1 0x1 PUSH1 0x1 PUSH1 0x40 SHL SUB DUP2 GT PUSH2 0x7FB JUMPI DUP3 ADD SWAP1 PUSH1 0xA0 DUP3 DUP8 SUB PUSH1 0x1F NOT ADD SLT PUSH2 0x7FB JUMPI PUSH1 0x40 MLOAD SWAP1 PUSH2 0x203E DUP3 PUSH2 0x1A34 JUMP JUMPDEST PUSH1 0x20 DUP4 ADD MLOAD PUSH1 0x2 DUP2 LT ISZERO PUSH2 0x7FB JUMPI DUP3 MSTORE PUSH1 0x40 DUP4 ADD MLOAD PUSH1 0x1 PUSH1 0x1 PUSH1 0x40 SHL SUB DUP2 GT PUSH2 0x7FB JUMPI DUP8 PUSH1 0x20 PUSH2 0x2070 SWAP3 DUP7 ADD ADD PUSH2 0x1F4E JUMP JUMPDEST PUSH1 0x20 DUP4 ADD MSTORE PUSH1 0x60 DUP4 ADD MLOAD PUSH1 0x1 PUSH1 0x1 PUSH1 0x40 SHL SUB DUP2 GT PUSH2 0x7FB JUMPI DUP8 PUSH1 0x20 PUSH2 0x2097 SWAP3 DUP7 ADD ADD PUSH2 0x1F4E JUMP JUMPDEST PUSH1 0x40 DUP4 ADD MSTORE PUSH2 0x20A8 PUSH1 0x80 DUP5 ADD PUSH2 0x1F94 JUMP JUMPDEST PUSH1 0x60 DUP4 ADD MSTORE PUSH1 0xA0 DUP4 ADD MLOAD SWAP2 PUSH1 0x1 PUSH1 0x1 PUSH1 0x40 SHL SUB DUP4 GT PUSH2 0x7FB JUMPI PUSH2 0x20D3 DUP9 PUSH1 0x20 DUP1 SWAP7 SWAP6 DUP2 SWAP7 ADD ADD PUSH2 0x1F4E JUMP JUMPDEST PUSH1 0x80 DUP3 ADD MSTORE DUP2 MSTORE ADD SWAP3 ADD SWAP2 PUSH2 0x2001 JUMP JUMPDEST DUP1 MLOAD DUP3 LT ISZERO PUSH2 0x1CFB JUMPI PUSH1 0x20 SWAP2 PUSH1 0x5 SHL ADD ADD SWAP1 JUMP JUMPDEST PUSH0 NOT DUP2 EQ PUSH2 0xED1 JUMPI PUSH1 0x1 ADD SWAP1 JUMP JUMPDEST SWAP1 DUP1 PUSH1 0x1F DUP4 ADD SLT ISZERO PUSH2 0x7FB JUMPI DUP2 MLOAD PUSH2 0x211C DUP2 PUSH2 0x1DE7 JUMP JUMPDEST SWAP3 PUSH2 0x212A PUSH1 0x40 MLOAD SWAP5 DUP6 PUSH2 0x1A6A JUMP JUMPDEST DUP2 DUP5 MSTORE PUSH1 0x20 DUP1 DUP6 ADD SWAP3 PUSH1 0x5 SHL DUP3 ADD ADD SWAP2 DUP4 DUP4 GT PUSH2 0x7FB JUMPI PUSH1 0x20 DUP3 ADD SWAP1 JUMPDEST DUP4 DUP3 LT PUSH2 0x2156 JUMPI POP POP POP POP POP SWAP1 JUMP JUMPDEST DUP2 MLOAD PUSH1 0x1 PUSH1 0x1 PUSH1 0x40 SHL SUB DUP2 GT PUSH2 0x7FB JUMPI PUSH1 0x20 SWAP2 PUSH2 0x2178 DUP8 DUP5 DUP1 SWAP5 DUP9 ADD ADD PUSH2 0x1F4E JUMP JUMPDEST DUP2 MSTORE ADD SWAP2 ADD SWAP1 PUSH2 0x2147 JUMP JUMPDEST PUSH1 0x20 DUP2 DUP4 SUB SLT PUSH2 0x7FB JUMPI DUP1 MLOAD SWAP1 PUSH1 0x1 PUSH1 0x1 PUSH1 0x40 SHL SUB DUP3 GT PUSH2 0x7FB JUMPI ADD PUSH2 0x160 DUP2 DUP4 SUB SLT PUSH2 0x7FB JUMPI PUSH1 0x40 MLOAD SWAP2 PUSH2 0x21B7 DUP4 PUSH2 0x1A18 JUMP JUMPDEST DUP2 MLOAD PUSH1 0x1 PUSH1 0x1 PUSH1 0x40 SHL SUB DUP2 GT PUSH2 0x7FB JUMPI DUP2 PUSH2 0x21D3 SWAP2 DUP5 ADD PUSH2 0x1F4E JUMP JUMPDEST DUP4 MSTORE PUSH1 0x20 DUP3 ADD MLOAD PUSH1 0x1 PUSH1 0x1 PUSH1 0x40 SHL SUB DUP2 GT PUSH2 0x7FB JUMPI DUP2 PUSH2 0x21F4 SWAP2 DUP5 ADD PUSH2 0x1F4E JUMP JUMPDEST PUSH1 0x20 DUP5 ADD MSTORE PUSH1 0x40 DUP3 ADD MLOAD PUSH1 0x1 PUSH1 0x1 PUSH1 0x40 SHL SUB DUP2 GT PUSH2 0x7FB JUMPI DUP2 PUSH2 0x2218 SWAP2 DUP5 ADD PUSH2 0x2105 JUMP JUMPDEST PUSH1 0x40 DUP5 ADD MSTORE PUSH1 0x60 DUP3 ADD MLOAD PUSH1 0x1 PUSH1 0x1 PUSH1 0x40 SHL SUB DUP2 GT PUSH2 0x7FB JUMPI DUP2 PUSH2 0x223C SWAP2 DUP5 ADD PUSH2 0x2105 JUMP JUMPDEST PUSH1 0x60 DUP5 ADD MSTORE PUSH1 0x80 DUP3 ADD MLOAD PUSH1 0x1 PUSH1 0x1 PUSH1 0x40 SHL SUB DUP2 GT PUSH2 0x7FB JUMPI DUP2 PUSH2 0x2260 SWAP2 DUP5 ADD PUSH2 0x1F4E JUMP JUMPDEST PUSH1 0x80 DUP5 ADD MSTORE PUSH1 0xA0 DUP3 ADD MLOAD PUSH1 0x1 PUSH1 0x1 PUSH1 0x40 SHL SUB DUP2 GT PUSH2 0x7FB JUMPI DUP2 PUSH2 0x2284 SWAP2 DUP5 ADD PUSH2 0x1F4E JUMP JUMPDEST PUSH1 0xA0 DUP5 ADD MSTORE PUSH1 0xC0 DUP3 ADD MLOAD PUSH1 0x1 PUSH1 0x1 PUSH1 0xA0 SHL SUB DUP2 AND DUP2 SUB PUSH2 0x7FB JUMPI PUSH1 0xC0 DUP5 ADD MSTORE PUSH1 0xE0 DUP3 ADD MLOAD PUSH1 0x2 DUP2 LT ISZERO PUSH2 0x7FB JUMPI PUSH1 0xE0 DUP5 ADD MSTORE PUSH2 0x100 DUP3 ADD MLOAD PUSH1 0x1 PUSH1 0x1 PUSH1 0x40 SHL SUB DUP2 GT PUSH2 0x7FB JUMPI DUP2 PUSH2 0x22D6 SWAP2 DUP5 ADD PUSH2 0x1F4E JUMP JUMPDEST PUSH2 0x100 DUP5 ADD MSTORE PUSH2 0x120 DUP3 ADD MLOAD PUSH1 0x1 PUSH1 0x1 PUSH1 0x40 SHL SUB DUP2 GT PUSH2 0x7FB JUMPI DUP2 PUSH2 0x22FC SWAP2 DUP5 ADD PUSH2 0x1F4E JUMP JUMPDEST PUSH2 0x120 DUP5 ADD MSTORE PUSH2 0x140 DUP3 ADD MLOAD PUSH1 0x1 PUSH1 0x1 PUSH1 0x40 SHL SUB DUP2 GT PUSH2 0x7FB JUMPI PUSH2 0x2320 SWAP3 ADD PUSH2 0x1F4E JUMP JUMPDEST PUSH2 0x140 DUP3 ADD MSTORE SWAP1 JUMP JUMPDEST SWAP1 PUSH2 0x2333 DUP3 PUSH2 0x1DE7 JUMP JUMPDEST PUSH2 0x2340 PUSH1 0x40 MLOAD SWAP2 DUP3 PUSH2 0x1A6A JUMP JUMPDEST DUP3 DUP2 MSTORE DUP1 SWAP3 PUSH2 0x2351 PUSH1 0x1F NOT SWAP2 PUSH2 0x1DE7 JUMP JUMPDEST ADD SWAP1 PUSH0 JUMPDEST DUP3 DUP2 LT PUSH2 0x2361 JUMPI POP POP POP JUMP JUMPDEST PUSH1 0x20 SWAP1 PUSH1 0x40 MLOAD PUSH2 0x2370 DUP2 PUSH2 0x1A34 JUMP JUMPDEST PUSH1 0x60 DUP2 MSTORE PUSH1 0x60 DUP4 DUP3 ADD MSTORE PUSH1 0x60 PUSH1 0x40 DUP3 ADD MSTORE PUSH0 PUSH1 0x60 DUP3 ADD MSTORE PUSH1 0x60 PUSH1 0x80 DUP3 ADD MSTORE DUP3 DUP3 DUP6 ADD ADD MSTORE ADD PUSH2 0x2355 JUMP JUMPDEST SWAP2 SWAP1 PUSH1 0x40 DUP4 DUP3 SUB SLT PUSH2 0x7FB JUMPI DUP3 MLOAD SWAP1 PUSH1 0x1 PUSH1 0x1 PUSH1 0x40 SHL SUB DUP3 GT PUSH2 0x7FB JUMPI PUSH2 0x23C8 PUSH1 0x20 SWAP2 PUSH2 0x23CF SWAP4 DUP7 ADD PUSH2 0x1F4E JUMP JUMPDEST SWAP4 ADD PUSH2 0x1F94 JUMP JUMPDEST SWAP1 JUMP JUMPDEST SWAP1 PUSH2 0x23DB PUSH2 0x1ECF JUMP JUMPDEST POP PUSH1 0x20 DUP2 ADD MLOAD SWAP1 PUSH1 0x40 DUP2 ADD MLOAD PUSH1 0xFF PUSH1 0x60 DUP4 ADD MLOAD AND SWAP1 PUSH1 0x80 DUP4 MLOAD SWAP4 PUSH2 0x23FE DUP6 PUSH2 0x1B10 JUMP JUMPDEST ADD MLOAD SWAP4 PUSH1 0x40 MLOAD SWAP6 PUSH2 0x240E DUP8 PUSH2 0x1A4F JUMP JUMPDEST DUP7 MSTORE PUSH1 0x20 DUP7 ADD MSTORE PUSH1 0x40 DUP6 ADD MSTORE PUSH1 0x60 DUP5 ADD MSTORE PUSH2 0x2428 DUP2 PUSH2 0x1B10 JUMP JUMPDEST PUSH1 0x80 DUP4 ADD MSTORE PUSH1 0xA0 DUP3 ADD MSTORE SWAP1 JUMP JUMPDEST PUSH1 0x2 PUSH0 SLOAD EQ PUSH2 0x2444 JUMPI PUSH1 0x2 PUSH0 SSTORE JUMP JUMPDEST PUSH4 0x3EE5AEB5 PUSH1 0xE0 SHL PUSH0 MSTORE PUSH1 0x4 PUSH0 REVERT INVALID LOG2 PUSH5 0x6970667358 0x22 SLT KECCAK256 0x2A PUSH13 0x7697D12F0E0D21559165BE4141 0xBF 0xEC DUP12 PUSH6 0x94B6998D2C4F 0x2C CALLVALUE 0x1E 0xDF 0xCB MSTORE 0xDE PUSH5 0x736F6C6343 STOP ADDMOD SHL STOP CALLER "},"methodIdentifiers":{"addBatchProduction(string,string,string,uint8,string[],string)":"e521d586","allObatIds(uint256)":"cb960d6b","createObat(string,string,string,string[],string,string[],string,uint8,string,string)":"de966a72","detailBatchProduction(string,string)":"54253681","detailObat(string)":"4d17d273","getAllBatchProductionByInstance(string)":"1bbd28f9","getAllBatchProductionReadyStock()":"a1e0a4b0","getAllObat()":"50168fbb","getAllObatByInstance(string)":"baeedfad","nieManager()":"dd683b28","obatShared()":"3fca88cb","roleManager()":"00435da5"}}}}}