{"contracts/CertificateManager.sol":{"CertificateManager":{"abi":[{"inputs":[{"internalType":"address","name":"roleManagerAddr","type":"address"},{"internalType":"address","name":"cpotbCertificateAddr","type":"address"},{"internalType":"address","name":"cdobCertificateAddr","type":"address"}],"stateMutability":"nonpayable","type":"constructor"},{"inputs":[],"name":"ReentrancyGuardReentrantCall","type":"error"},{"anonymous":false,"inputs":[{"indexed":false,"internalType":"string","name":"bpomInstance","type":"string"},{"indexed":false,"internalType":"address","name":"bpomAddr","type":"address"},{"indexed":false,"internalType":"uint8","name":"tipePermohonan","type":"uint8"},{"indexed":false,"internalType":"string","name":"certNumber","type":"string"},{"indexed":false,"internalType":"uint256","name":"timestamp","type":"uint256"}],"name":"CertApproved","type":"event"},{"anonymous":false,"inputs":[{"indexed":false,"internalType":"address","name":"senderAddr","type":"address"},{"indexed":false,"internalType":"uint256","name":"timestamp","type":"uint256"}],"name":"CertExtend","type":"event"},{"anonymous":false,"inputs":[{"indexed":false,"internalType":"address","name":"bpomAddr","type":"address"},{"indexed":false,"internalType":"string","name":"rejectMsgExt","type":"string"},{"indexed":false,"internalType":"uint256","name":"timestamp","type":"uint256"}],"name":"CertExtendReject","type":"event"},{"anonymous":false,"inputs":[{"indexed":false,"internalType":"string","name":"bpomInstance","type":"string"},{"indexed":false,"internalType":"address","name":"bpomAddr","type":"address"},{"indexed":false,"internalType":"uint8","name":"tipePermohonan","type":"uint8"},{"indexed":false,"internalType":"uint256","name":"timestamp","type":"uint256"},{"indexed":false,"internalType":"string","name":"rejectMsg","type":"string"}],"name":"CertRejected","type":"event"},{"anonymous":false,"inputs":[{"indexed":false,"internalType":"string","name":"senderInstance","type":"string"},{"indexed":false,"internalType":"address","name":"senderAddr","type":"address"},{"indexed":false,"internalType":"uint256","name":"timestamp","type":"uint256"}],"name":"CertRenewRequest","type":"event"},{"anonymous":false,"inputs":[{"indexed":false,"internalType":"string","name":"senderInstance","type":"string"},{"indexed":false,"internalType":"address","name":"senderAddr","type":"address"},{"indexed":false,"internalType":"uint8","name":"tipePermohonan","type":"uint8"},{"indexed":false,"internalType":"uint256","name":"timestamp","type":"uint256"}],"name":"CertRequested","type":"event"},{"inputs":[{"components":[{"internalType":"string","name":"certNumber","type":"string"},{"internalType":"string","name":"certId","type":"string"},{"internalType":"string","name":"bpomName","type":"string"},{"internalType":"string","name":"bpomInstance","type":"string"},{"internalType":"address","name":"bpomAddr","type":"address"}],"internalType":"struct CertificateManager.CertificateApproval","name":"approveData","type":"tuple"},{"internalType":"string","name":"ipfsCert","type":"string"},{"internalType":"uint8","name":"tipePermohonan","type":"uint8"}],"name":"approveCdob","outputs":[],"stateMutability":"nonpayable","type":"function"},{"inputs":[{"components":[{"internalType":"string","name":"certNumber","type":"string"},{"internalType":"string","name":"certId","type":"string"},{"internalType":"string","name":"bpomName","type":"string"},{"internalType":"string","name":"bpomInstance","type":"string"},{"internalType":"address","name":"bpomAddr","type":"address"}],"internalType":"struct CertificateManager.CertificateApproval","name":"approveData","type":"tuple"},{"internalType":"string","name":"ipfsCert","type":"string"},{"internalType":"uint8","name":"jenisSediaan","type":"uint8"}],"name":"approveCpotb","outputs":[],"stateMutability":"nonpayable","type":"function"},{"inputs":[{"internalType":"string","name":"cdobId","type":"string"},{"internalType":"string","name":"ipfsCert","type":"string"}],"name":"approveExtendCdob","outputs":[],"stateMutability":"nonpayable","type":"function"},{"inputs":[{"internalType":"string","name":"cpotbId","type":"string"},{"internalType":"string","name":"ipfsCert","type":"string"}],"name":"approveExtendCpotb","outputs":[],"stateMutability":"nonpayable","type":"function"},{"inputs":[],"name":"cdobCertificate","outputs":[{"internalType":"contract CdobCertificate","name":"","type":"address"}],"stateMutability":"view","type":"function"},{"inputs":[],"name":"cpotbCertificate","outputs":[{"internalType":"contract CpotbCertificate","name":"","type":"address"}],"stateMutability":"view","type":"function"},{"inputs":[{"internalType":"string","name":"cdobId","type":"string"},{"internalType":"uint256","name":"expTimestamp","type":"uint256"},{"components":[{"internalType":"string","name":"suratPernyataanPimpinan","type":"string"},{"internalType":"string","name":"dokumenInspeksiDiri","type":"string"},{"internalType":"string","name":"dokumenPerbaikan","type":"string"}],"internalType":"struct CdobCertificate.DokumenReSertifikasi","name":"newDokus","type":"tuple"}],"name":"extendCdob","outputs":[],"stateMutability":"nonpayable","type":"function"},{"inputs":[{"internalType":"string","name":"cpotbId","type":"string"},{"internalType":"uint256","name":"expTimestamp","type":"uint256"},{"components":[{"internalType":"string","name":"suratPermohonan","type":"string"},{"internalType":"string","name":"buktiPembayaranNegaraBukanPajak","type":"string"},{"internalType":"string","name":"denahBangunan","type":"string"},{"internalType":"string","name":"sistemMutu","type":"string"},{"internalType":"string","name":"cpotbIpfs","type":"string"},{"internalType":"string","name":"dokumenCapa","type":"string"}],"internalType":"struct CpotbCertificate.DokumenReSertifikasi","name":"newDoku","type":"tuple"}],"name":"extendCpotb","outputs":[],"stateMutability":"nonpayable","type":"function"},{"inputs":[],"name":"getAllCdob","outputs":[{"components":[{"internalType":"string","name":"certId","type":"string"},{"internalType":"string","name":"certNumber","type":"string"},{"internalType":"string","name":"instanceName","type":"string"},{"internalType":"uint8","name":"tipePermohonan","type":"uint8"},{"internalType":"enum EnumsLibrary.StatusCertificate","name":"status","type":"uint8"},{"internalType":"string","name":"certHash","type":"string"},{"internalType":"uint256","name":"expiredTimestamp","type":"uint256"}],"internalType":"struct CdobCertificate.CertificateList[]","name":"","type":"tuple[]"}],"stateMutability":"view","type":"function"},{"inputs":[],"name":"getAllCpotb","outputs":[{"components":[{"internalType":"string","name":"certId","type":"string"},{"internalType":"string","name":"certNumber","type":"string"},{"internalType":"string","name":"instanceName","type":"string"},{"internalType":"uint8","name":"tipePermohonan","type":"uint8"},{"internalType":"enum EnumsLibrary.StatusCertificate","name":"status","type":"uint8"},{"internalType":"string","name":"certHash","type":"string"},{"internalType":"uint256","name":"expiredTimestamp","type":"uint256"}],"internalType":"struct CpotbCertificate.CertificateList[]","name":"","type":"tuple[]"}],"stateMutability":"view","type":"function"},{"inputs":[{"internalType":"string","name":"instanceName","type":"string"}],"name":"getCdobByInstance","outputs":[{"components":[{"internalType":"string","name":"certId","type":"string"},{"internalType":"string","name":"certNumber","type":"string"},{"internalType":"string","name":"instanceName","type":"string"},{"internalType":"uint8","name":"tipePermohonan","type":"uint8"},{"internalType":"enum EnumsLibrary.StatusCertificate","name":"status","type":"uint8"},{"internalType":"string","name":"certHash","type":"string"},{"internalType":"uint256","name":"expiredTimestamp","type":"uint256"}],"internalType":"struct CdobCertificate.CertificateList[]","name":"","type":"tuple[]"}],"stateMutability":"view","type":"function"},{"inputs":[{"internalType":"string","name":"certId","type":"string"}],"name":"getCdobDetails","outputs":[{"components":[{"internalType":"enum EnumsLibrary.StatusCertificate","name":"status","type":"uint8"},{"internalType":"uint256","name":"timestampRequest","type":"uint256"},{"internalType":"uint256","name":"timestampApprove","type":"uint256"},{"internalType":"uint256","name":"timestampRejected","type":"uint256"},{"internalType":"uint256","name":"timestampRenewRequest","type":"uint256"},{"internalType":"uint256","name":"timestampExpired","type":"uint256"},{"internalType":"uint256","name":"timestampExtendRequest","type":"uint256"},{"internalType":"uint256","name":"timestampExtendApprove","type":"uint256"},{"internalType":"uint256","name":"timestampExtendReject","type":"uint256"},{"internalType":"uint256","name":"timestampExtendRenew","type":"uint256"},{"components":[{"internalType":"string","name":"userName","type":"string"},{"internalType":"string","name":"userInstance","type":"string"},{"internalType":"address","name":"userAddr","type":"address"}],"internalType":"struct BaseCertificate.UserCert","name":"sender","type":"tuple"},{"components":[{"internalType":"string","name":"userName","type":"string"},{"internalType":"string","name":"userInstance","type":"string"},{"internalType":"address","name":"userAddr","type":"address"}],"internalType":"struct BaseCertificate.UserCert","name":"bpom","type":"tuple"},{"internalType":"string","name":"ipfsCert","type":"string"}],"internalType":"struct BaseCertificate.CertificateDetails","name":"","type":"tuple"},{"components":[{"internalType":"string","name":"cdobId","type":"string"},{"internalType":"string","name":"cdobNumber","type":"string"},{"internalType":"uint8","name":"tipePermohonan","type":"uint8"}],"internalType":"struct CdobCertificate.CdobData","name":"","type":"tuple"},{"components":[{"internalType":"string","name":"suratPermohonan","type":"string"},{"internalType":"string","name":"buktiPembayaranPajak","type":"string"}],"internalType":"struct CdobCertificate.DokumenAdministrasi","name":"","type":"tuple"},{"components":[{"internalType":"string","name":"suratIzinCdob","type":"string"},{"internalType":"string","name":"denahBangunan","type":"string"},{"internalType":"string","name":"strukturOrganisasi","type":"string"},{"internalType":"string","name":"daftarPersonalia","type":"string"},{"internalType":"string","name":"daftarPeralatan","type":"string"},{"internalType":"string","name":"eksekutifQualityManagement","type":"string"},{"internalType":"string","name":"suratIzinApoteker","type":"string"},{"internalType":"string","name":"dokumenSelfAssesment","type":"string"}],"internalType":"struct CdobCertificate.DokumenTeknis","name":"","type":"tuple"},{"components":[{"internalType":"string","name":"suratPernyataanPimpinan","type":"string"},{"internalType":"string","name":"dokumenInspeksiDiri","type":"string"},{"internalType":"string","name":"dokumenPerbaikan","type":"string"}],"internalType":"struct CdobCertificate.DokumenReSertifikasi","name":"","type":"tuple"}],"stateMutability":"view","type":"function"},{"inputs":[{"internalType":"string","name":"instanceName","type":"string"}],"name":"getCpotbByInstance","outputs":[{"components":[{"internalType":"string","name":"certId","type":"string"},{"internalType":"string","name":"certNumber","type":"string"},{"internalType":"string","name":"instanceName","type":"string"},{"internalType":"uint8","name":"tipePermohonan","type":"uint8"},{"internalType":"enum EnumsLibrary.StatusCertificate","name":"status","type":"uint8"},{"internalType":"string","name":"certHash","type":"string"},{"internalType":"uint256","name":"expiredTimestamp","type":"uint256"}],"internalType":"struct CpotbCertificate.CertificateList[]","name":"","type":"tuple[]"}],"stateMutability":"view","type":"function"},{"inputs":[{"internalType":"string","name":"certId","type":"string"}],"name":"getCpotbDetails","outputs":[{"components":[{"internalType":"enum EnumsLibrary.StatusCertificate","name":"status","type":"uint8"},{"internalType":"uint256","name":"timestampRequest","type":"uint256"},{"internalType":"uint256","name":"timestampApprove","type":"uint256"},{"internalType":"uint256","name":"timestampRejected","type":"uint256"},{"internalType":"uint256","name":"timestampRenewRequest","type":"uint256"},{"internalType":"uint256","name":"timestampExpired","type":"uint256"},{"internalType":"uint256","name":"timestampExtendRequest","type":"uint256"},{"internalType":"uint256","name":"timestampExtendApprove","type":"uint256"},{"internalType":"uint256","name":"timestampExtendReject","type":"uint256"},{"internalType":"uint256","name":"timestampExtendRenew","type":"uint256"},{"components":[{"internalType":"string","name":"userName","type":"string"},{"internalType":"string","name":"userInstance","type":"string"},{"internalType":"address","name":"userAddr","type":"address"}],"internalType":"struct BaseCertificate.UserCert","name":"sender","type":"tuple"},{"components":[{"internalType":"string","name":"userName","type":"string"},{"internalType":"string","name":"userInstance","type":"string"},{"internalType":"address","name":"userAddr","type":"address"}],"internalType":"struct BaseCertificate.UserCert","name":"bpom","type":"tuple"},{"internalType":"string","name":"ipfsCert","type":"string"}],"internalType":"struct BaseCertificate.CertificateDetails","name":"","type":"tuple"},{"components":[{"internalType":"string","name":"cpotbId","type":"string"},{"internalType":"string","name":"cpotbNumber","type":"string"},{"internalType":"uint8","name":"tipePermohonan","type":"uint8"},{"internalType":"string","name":"factoryType","type":"string"}],"internalType":"struct CpotbCertificate.CpotbData","name":"","type":"tuple"},{"components":[{"internalType":"string","name":"suratPermohonan","type":"string"},{"internalType":"string","name":"buktiPembayaranNegaraBukanPajak","type":"string"},{"internalType":"string","name":"suratKomitmen","type":"string"}],"internalType":"struct CpotbCertificate.DokumenAdministrasi","name":"","type":"tuple"},{"components":[{"internalType":"string","name":"denahBangunan","type":"string"},{"internalType":"string","name":"sistemMutu","type":"string"}],"internalType":"struct CpotbCertificate.DokumenTeknis","name":"","type":"tuple"},{"components":[{"internalType":"string","name":"suratPermohonan","type":"string"},{"internalType":"string","name":"buktiPembayaranNegaraBukanPajak","type":"string"},{"internalType":"string","name":"denahBangunan","type":"string"},{"internalType":"string","name":"sistemMutu","type":"string"},{"internalType":"string","name":"cpotbIpfs","type":"string"},{"internalType":"string","name":"dokumenCapa","type":"string"}],"internalType":"struct CpotbCertificate.DokumenReSertifikasi","name":"","type":"tuple"}],"stateMutability":"view","type":"function"},{"inputs":[{"internalType":"string","name":"certId","type":"string"}],"name":"getRejectMsgCdob","outputs":[{"internalType":"string","name":"","type":"string"},{"internalType":"string","name":"","type":"string"}],"stateMutability":"view","type":"function"},{"inputs":[{"internalType":"string","name":"certId","type":"string"}],"name":"getRejectMsgCpotb","outputs":[{"internalType":"string","name":"","type":"string"},{"internalType":"string","name":"","type":"string"}],"stateMutability":"view","type":"function"},{"inputs":[{"internalType":"string","name":"certId","type":"string"},{"internalType":"string","name":"rejectMsg","type":"string"},{"internalType":"string","name":"bpomName","type":"string"},{"internalType":"string","name":"bpomInstance","type":"string"},{"internalType":"uint8","name":"tipePermohonan","type":"uint8"}],"name":"rejectCdob","outputs":[],"stateMutability":"nonpayable","type":"function"},{"inputs":[{"internalType":"string","name":"certId","type":"string"},{"internalType":"string","name":"rejectMsg","type":"string"},{"internalType":"string","name":"bpomName","type":"string"},{"internalType":"string","name":"bpomInstance","type":"string"},{"internalType":"uint8","name":"jenisSediaan","type":"uint8"}],"name":"rejectCpotb","outputs":[],"stateMutability":"nonpayable","type":"function"},{"inputs":[{"internalType":"string","name":"cdobId","type":"string"},{"internalType":"string","name":"rejectExtendMsg","type":"string"}],"name":"rejectExtendCdob","outputs":[],"stateMutability":"nonpayable","type":"function"},{"inputs":[{"internalType":"string","name":"cpotbId","type":"string"},{"internalType":"string","name":"rejectExtendMsg","type":"string"}],"name":"rejectExtendCpotb","outputs":[],"stateMutability":"nonpayable","type":"function"},{"inputs":[{"components":[{"internalType":"string","name":"certId","type":"string"},{"internalType":"string","name":"senderName","type":"string"},{"internalType":"string","name":"senderInstance","type":"string"},{"internalType":"address","name":"senderAddr","type":"address"}],"internalType":"struct CertificateManager.CertificateRequest","name":"reqData","type":"tuple"},{"components":[{"internalType":"string","name":"suratPermohonan","type":"string"},{"internalType":"string","name":"buktiPembayaranPajak","type":"string"}],"internalType":"struct CdobCertificate.DokumenAdministrasi","name":"newDokuAdmin","type":"tuple"},{"components":[{"internalType":"string","name":"suratIzinCdob","type":"string"},{"internalType":"string","name":"denahBangunan","type":"string"},{"internalType":"string","name":"strukturOrganisasi","type":"string"},{"internalType":"string","name":"daftarPersonalia","type":"string"},{"internalType":"string","name":"daftarPeralatan","type":"string"},{"internalType":"string","name":"eksekutifQualityManagement","type":"string"},{"internalType":"string","name":"suratIzinApoteker","type":"string"},{"internalType":"string","name":"dokumenSelfAssesment","type":"string"}],"internalType":"struct CdobCertificate.DokumenTeknis","name":"newDokuTeknis","type":"tuple"}],"name":"renewCdob","outputs":[],"stateMutability":"nonpayable","type":"function"},{"inputs":[{"components":[{"internalType":"string","name":"certId","type":"string"},{"internalType":"string","name":"senderName","type":"string"},{"internalType":"string","name":"senderInstance","type":"string"},{"internalType":"address","name":"senderAddr","type":"address"}],"internalType":"struct CertificateManager.CertificateRequest","name":"reqData","type":"tuple"},{"components":[{"internalType":"string","name":"suratPermohonan","type":"string"},{"internalType":"string","name":"buktiPembayaranNegaraBukanPajak","type":"string"},{"internalType":"string","name":"suratKomitmen","type":"string"}],"internalType":"struct CpotbCertificate.DokumenAdministrasi","name":"newDokuAdmin","type":"tuple"},{"components":[{"internalType":"string","name":"denahBangunan","type":"string"},{"internalType":"string","name":"sistemMutu","type":"string"}],"internalType":"struct CpotbCertificate.DokumenTeknis","name":"newDokuTeknis","type":"tuple"}],"name":"renewCpotb","outputs":[],"stateMutability":"nonpayable","type":"function"},{"inputs":[{"internalType":"string","name":"cdobId","type":"string"},{"components":[{"internalType":"string","name":"suratPernyataanPimpinan","type":"string"},{"internalType":"string","name":"dokumenInspeksiDiri","type":"string"},{"internalType":"string","name":"dokumenPerbaikan","type":"string"}],"internalType":"struct CdobCertificate.DokumenReSertifikasi","name":"newDoku","type":"tuple"}],"name":"renewExtendCdob","outputs":[],"stateMutability":"nonpayable","type":"function"},{"inputs":[{"internalType":"string","name":"cpotbId","type":"string"},{"components":[{"internalType":"string","name":"suratPermohonan","type":"string"},{"internalType":"string","name":"buktiPembayaranNegaraBukanPajak","type":"string"},{"internalType":"string","name":"denahBangunan","type":"string"},{"internalType":"string","name":"sistemMutu","type":"string"},{"internalType":"string","name":"cpotbIpfs","type":"string"},{"internalType":"string","name":"dokumenCapa","type":"string"}],"internalType":"struct CpotbCertificate.DokumenReSertifikasi","name":"newDoku","type":"tuple"}],"name":"renewExtendCpotb","outputs":[],"stateMutability":"nonpayable","type":"function"},{"inputs":[{"components":[{"internalType":"string","name":"certId","type":"string"},{"internalType":"string","name":"senderName","type":"string"},{"internalType":"string","name":"senderInstance","type":"string"},{"internalType":"address","name":"senderAddr","type":"address"}],"internalType":"struct CertificateManager.CertificateRequest","name":"reqData","type":"tuple"},{"internalType":"uint8","name":"tipePermohonan","type":"uint8"},{"components":[{"internalType":"string","name":"suratPermohonan","type":"string"},{"internalType":"string","name":"buktiPembayaranPajak","type":"string"}],"internalType":"struct CdobCertificate.DokumenAdministrasi","name":"dokuAdmin","type":"tuple"},{"components":[{"internalType":"string","name":"suratIzinCdob","type":"string"},{"internalType":"string","name":"denahBangunan","type":"string"},{"internalType":"string","name":"strukturOrganisasi","type":"string"},{"internalType":"string","name":"daftarPersonalia","type":"string"},{"internalType":"string","name":"daftarPeralatan","type":"string"},{"internalType":"string","name":"eksekutifQualityManagement","type":"string"},{"internalType":"string","name":"suratIzinApoteker","type":"string"},{"internalType":"string","name":"dokumenSelfAssesment","type":"string"}],"internalType":"struct CdobCertificate.DokumenTeknis","name":"dokuTeknis","type":"tuple"}],"name":"requestCdob","outputs":[],"stateMutability":"nonpayable","type":"function"},{"inputs":[{"components":[{"internalType":"string","name":"certId","type":"string"},{"internalType":"string","name":"senderName","type":"string"},{"internalType":"string","name":"senderInstance","type":"string"},{"internalType":"address","name":"senderAddr","type":"address"}],"internalType":"struct CertificateManager.CertificateRequest","name":"reqData","type":"tuple"},{"internalType":"uint8","name":"jenisSediaan","type":"uint8"},{"internalType":"string","name":"factoryType","type":"string"},{"components":[{"internalType":"string","name":"suratPermohonan","type":"string"},{"internalType":"string","name":"buktiPembayaranNegaraBukanPajak","type":"string"},{"internalType":"string","name":"suratKomitmen","type":"string"}],"internalType":"struct CpotbCertificate.DokumenAdministrasi","name":"dokuAdmin","type":"tuple"},{"components":[{"internalType":"string","name":"denahBangunan","type":"string"},{"internalType":"string","name":"sistemMutu","type":"string"}],"internalType":"struct CpotbCertificate.DokumenTeknis","name":"dokuTeknis","type":"tuple"}],"name":"requestCpotb","outputs":[],"stateMutability":"nonpayable","type":"function"},{"inputs":[],"name":"roleManager","outputs":[{"internalType":"contract RoleManager","name":"","type":"address"}],"stateMutability":"view","type":"function"}],"evm":{"bytecode":{"linkReferences":{},"object":"60e0346101be57601f6138a238819003918201601f19168301916001600160401b038311848410176101c2578084926060946040528339810103126101be57610047816101d6565b906100606040610059602084016101d6565b92016101d6565b60015f556001600160a01b0392831660805290821660a0521660c0526040516136b790816101eb823960805181818161036b0152818161058e015281816106b50152818161084e0152818161092701528181610a9d01528181610c19015281816116940152818161189501528181611a2d01528181611b2c01528181611c0301528181611d3601528181611e3001528181611f68015281816122610152612397015260a0518181816101ff015281816103b1015281816106f80152818161096901528181610adf01528181610c7c015281816112960152818161176c015281816118100152818161190101528181611a6f01528181611c4501526120e3015260c05181818161016a01528181610289015281816105d4015281816107e20152818161089001528181610e5f015281816116d601528181611b6e01528181611da201528181611e7201528181611fcc0152818161219b01526122a30152f35b5f80fd5b634e487b7160e01b5f52604160045260245ffd5b51906001600160a01b03821682036101be5756fe6080806040526004361015610012575f80fd5b5f905f3560e01c908162435da5146123855750806307b11c0b146121e457806317d96797146121615780631a898044146120875780631d43034914611ec5578063252006af14611df25780632dbcaf0f14611cfa5780633bb6ff3f14611bc557806341ee149514611ae85780634ad8f1a4146119b05780634e03317b1461185957806351c2d326146117b55780635850607c1461174757806369046dd31461161657806370c056b0146111f55780637e8f8da714610dbb57806387fecd3e14610b555780639914d85414610a205780639c0abfd8146108e35780639c6b1f1014610811578063af3a1758146107cc578063b073043614610678578063bbd0b8a9146104f4578063cb43b77f146102d2578063d0927b191461022e578063d369111d146101e95763f14261d214610146575f80fd5b346101e657806003193601126101e6576040516378a130e960e11b815281816004817f00000000000000000000000000000000000000000000000000000000000000006001600160a01b03165afa9081156101db57826101b493926101b8575b505060405191829182612ba0565b0390f35b6101d492503d8091833e6101cc818361247e565b810190613193565b5f806101a6565b6040513d84823e3d90fd5b80fd5b50346101e657806003193601126101e6576040517f00000000000000000000000000000000000000000000000000000000000000006001600160a01b03168152602090f35b50346101e65760203660031901126101e657600435816001600160401b0382116101e6576102636102859236906004016124ba565b604051809381926306f12c2360e41b8352602060048401526024830190612583565b03817f00000000000000000000000000000000000000000000000000000000000000006001600160a01b03165afa9081156101db57826101b493926101b857505060405191829182612ba0565b50346101e65760603660031901126101e6576004356001600160401b0381116104ae576103039036906004016125e3565b816024356001600160401b0381116104ae57610323903690600401612500565b6044356001600160401b0381116104f057610342903690600401612684565b6040516395a8c58d60e01b81523360048201525f60248201526020816044816001600160a01b037f0000000000000000000000000000000000000000000000000000000000000000165afa80156104e5576103a49185916104b6575b5061312b565b6103ac613663565b8351917f00000000000000000000000000000000000000000000000000000000000000006001600160a01b0316803b156104b257610412856104249561043682966040519889978896879563e8002b2760e01b8752606060048801526064870190612583565b85810360031901602487015290612ce1565b83810360031901604485015290612d0e565b03925af180156101db57610499575b50604080830151606084015191517fc77dd947ea8bfd0bd2706c8fad9b1178313fad6bd4cb678b9342239be4f88528929091829161048f9142916001600160a01b03169084613637565b0390a16001815580f35b816104a39161247e565b6104ae57815f610445565b5080fd5b8480fd5b6104d8915060203d6020116104de575b6104d0818361247e565b810190612e2a565b5f61039e565b503d6104c6565b6040513d86823e3d90fd5b8280fd5b50346101e65760603660031901126101e6576004356001600160401b0381116104ae576105259036906004016125e3565b816024356001600160401b0381116104ae57610545903690600401612684565b6044356001600160401b0381116104f0576105649036906004016126de565b6040516395a8c58d60e01b8152336004820152600160248201526020816044816001600160a01b037f0000000000000000000000000000000000000000000000000000000000000000165afa80156104e5576105c7918591610659575b50612e42565b6105cf613663565b8351917f00000000000000000000000000000000000000000000000000000000000000006001600160a01b0316803b156104b257610635856106479561043682966040519889978896879563a722652760e01b8752606060048801526064870190612583565b85810360031901602487015290612d0e565b83810360031901604485015290612d92565b610672915060203d6020116104de576104d0818361247e565b5f6105c1565b50346101e6578061068836612811565b6040516395a8c58d60e01b8152336004820152600260248201529091906020816044816001600160a01b037f0000000000000000000000000000000000000000000000000000000000000000165afa80156104e5576106ee9185916107ad575b50612f5a565b6106f6613663565b7f00000000000000000000000000000000000000000000000000000000000000006001600160a01b031691823b156107a85761074b92849283604051809681958294635839821b60e11b8452600484016125a7565b03925af180156101db57610793575b50604080513381524260208201527f80de2ba789f34a9f5f409d6572f1528526684b7c6d144f87b8f0bab593656b76918190810161048f565b8161079d9161247e565b6101e657805f61075a565b505050fd5b6107c6915060203d6020116104de576104d0818361247e565b5f6106e8565b50346101e657806003193601126101e6576040517f00000000000000000000000000000000000000000000000000000000000000006001600160a01b03168152602090f35b50346101e6578061082136612811565b6040516395a8c58d60e01b8152336004820152600260248201529091906020816044816001600160a01b037f0000000000000000000000000000000000000000000000000000000000000000165afa80156104e5576108869185916107ad5750612f5a565b61088e613663565b7f00000000000000000000000000000000000000000000000000000000000000006001600160a01b031691823b156107a85761074b928492836040518096819582946309c6b1f160e41b8452600484016125a7565b50346101e657806108f33661297e565b6040516395a8c58d60e01b815233600482015260026024820152939591949093919290916020816044816001600160a01b037f0000000000000000000000000000000000000000000000000000000000000000165afa80156104e55761095f9185916107ad5750612f5a565b610967613663565b7f00000000000000000000000000000000000000000000000000000000000000006001600160a01b031690813b15610a1c578391869183896109c16040519788968795869463e462dde560e01b8652339360048701613088565b03925af180156101db57610a07575b505061048f7fa4a4ed86dce7c96c7821a45fbbe8394915281a2a2fa758ab0465b199c571abfb9360405193849342913390866130e6565b81610a119161247e565b610a1c57835f6109d0565b8380fd5b50346101e65760403660031901126101e657806004356001600160401b038111610b5257610a529036906004016124ba565b6024356001600160401b038111610b5057610a71903690600401612a17565b6040516395a8c58d60e01b81523360048201525f60248201529091906020816044816001600160a01b037f0000000000000000000000000000000000000000000000000000000000000000165afa80156104e557610ad59185916104b6575061312b565b610add613663565b7f00000000000000000000000000000000000000000000000000000000000000006001600160a01b031691823b156107a85761074b92610b3e85809460405196879586948593632645361560e21b8552604060048601526044850190612583565b83810360031901602485015290612d38565b505b50fd5b50346101e65760a03660031901126101e6576004356001600160401b0381116104ae57610b869036906004016125e3565b610b8e612674565b826044356001600160401b0381116104ae57610bae9036906004016124ba565b926064356001600160401b0381116104f057610bce903690600401612500565b6084356001600160401b038111610a1c57610bed903690600401612684565b6040516395a8c58d60e01b81523360048201525f60248201529092906020816044816001600160a01b037f0000000000000000000000000000000000000000000000000000000000000000165afa8015610db057610c519186916104b6575061312b565b610c59613663565b8051602082015160408301805160609094015190986001600160a01b03918216967f0000000000000000000000000000000000000000000000000000000000000000909216939091843b15610dac5788968793604051998a98899788966364b409ff60e01b88526004880161010090526101048801610cd791612583565b878103600319016024890152610cec91612583565b868103600319016044880152610d0191612583565b90606486015260ff8d1660848601526003198582030160a4860152610d2591612583565b8381036003190160c4850152610d3a91612ce1565b8281036003190160e4840152610d4f91612d0e565b03925af180156101db57610d97575b50507ff52a0795d3c1a788d33423aa105be7a0aaa157621a984632251e0c2ed142d04091519061048f6040519283924291339085612f25565b81610da19161247e565b6104f057825f610d5e565b8880fd5b6040513d87823e3d90fd5b50346101e65760203660031901126101e6576004356001600160401b0381116104ae57610dec9036906004016124ba565b610df4613330565b50610dfd613310565b50610e066133bc565b50606060e0604051610e1781612410565b82815282602082015282604082015282808201528260808201528260a08201528260c08201520152610e4761339d565b50604051637e8f8da760e01b815260206004820152907f00000000000000000000000000000000000000000000000000000000000000006001600160a01b0316838380610e976024820186612583565b0381845afa9081156104e5578485809481938295610fb4575b610ed9969750604051808098819463be2e232560e01b8352602060048401526024830190612583565b03915afa938415610fa95786610f129795610f77575b505090610f5b610f69926101b4959660405198899860a08a5260a08a0190612c2b565b88810360208a0152604060ff81610f47610f358751606087526060870190612583565b60208801518682036020880152612583565b950151169101528782036040890152612d0e565b908582036060870152612d92565b908382036080850152612ce1565b6101b4955091610fa0610f5b92610f6995943d8091833e610f98818361247e565b810190613525565b95509192610eef565b6040513d88823e3d90fd5b945094505050503d8085853e610fca818561247e565b8301916080848403126104b25783516001600160401b0381116111f1578401906060828503126111f157604051916110018361242c565b80516001600160401b0381116111ed578561101d918301612e98565b835260208101516001600160401b0381116111ed57816110448760409361104f9501612e98565b602086015201613185565b60408301528560208601516001600160401b0381116104ae5785611074918801613453565b9160408701516001600160401b0381116104f057870196610100888803126104f057604051976110a389612410565b80516001600160401b0381116104b257886110bf918301612e98565b895260208101516001600160401b0381116104b257886110e0918301612e98565b60208a015260408101516001600160401b0381116104b25788611104918301612e98565b60408a015260608101516001600160401b0381116104b25788611128918301612e98565b60608a015260808101516001600160401b0381116104b2578861114c918301612e98565b60808a015260a08101516001600160401b0381116104b25788611170918301612e98565b60a08a015260c08101516001600160401b0381116104b25788611194918301612e98565b60c08a015260e0810151906001600160401b0382116104b2576111b991899101612e98565b60e08901526060810151966001600160401b038811610a1c57610ed9976111e092016133d5565b9392969394879650610eb0565b8780fd5b8580fd5b50346101e65760203660031901126101e6576004356001600160401b0381116104ae576112269036906004016124ba565b61122e613330565b5060608060405161123e816123c6565b818152816020820152846040820152015261125761339d565b506112606133bc565b50606060a0604051611271816123f5565b8281528260208201528260408201528280820152826080820152015260018060a01b037f00000000000000000000000000000000000000000000000000000000000000001660405163070c056b60e41b8152602060048201528381806112da6024820187612583565b0381855afa9081156104e557849285809181938295611402575b509561131e9596604051808098819463be2e232560e01b8352602060048401526024830190612583565b03915afa938415610fa9578661135a97956113d4575b5050906113b86113c6926113aa6101b49697604051998a9960a08b5260a08b0190612c2b565b89810360208b0152606061138c61137a8451608085526080850190612583565b60208501518482036020860152612583565b9260ff60408201511660408401520151906060818403910152612583565b908782036040890152612ce1565b908582036060870152612d0e565b908382036080850152612d38565b6101b49550916113aa6113f86113b8936113c696953d8091833e610f98818361247e565b9650509192611334565b955093505050503d8085843e611418818461247e565b8201916080818403126104b25780516001600160401b0381116111f1578101906080828503126111f1576040519161144f836123c6565b80516001600160401b0381116111ed578561146b918301612e98565b835260208101516001600160401b0381116111ed578561148c918301612e98565b602084015261149d60408201613185565b60408401526060810151906001600160401b0382116111ed576114c291869101612e98565b60608301528560208201516001600160401b0381116104ae57856114e79184016133d5565b9560408301516001600160401b0381116104f05786611507918501613453565b926060810151906001600160401b038211610a1c57019360c0858803126104f05760405194611535866123f5565b80516001600160401b0381116104b25788611551918301612e98565b865260208101516001600160401b0381116104b25788611572918301612e98565b602087015260408101516001600160401b0381116104b25788611596918301612e98565b604087015260608101516001600160401b0381116104b257886115ba918301612e98565b606087015260808101516001600160401b0381116104b257886115de918301612e98565b608087015260a0810151976001600160401b0389116104b25761131e986116059201612e98565b60a0860152969293949096956112f4565b50346101e65760403660031901126101e657806004356001600160401b038111610b52576116489036906004016124ba565b6024356001600160401b038111610b5057611667903690600401612500565b6040516395a8c58d60e01b8152336004820152600160248201529091906020816044816001600160a01b037f0000000000000000000000000000000000000000000000000000000000000000165afa80156104e5576116cc9185916106595750612e42565b6116d4613663565b7f00000000000000000000000000000000000000000000000000000000000000006001600160a01b031691823b156107a85761074b92611735858094604051968795869485936369046dd360e01b8552604060048601526044850190612583565b83810360031901602485015290612ce1565b50346101e657806003193601126101e657604051631614181f60e21b815281816004817f00000000000000000000000000000000000000000000000000000000000000006001600160a01b03165afa9081156101db57826101b493926101b857505060405191829182612ba0565b50346101e65760203660031901126101e657600435816001600160401b0382116101e6576117ea61180c9236906004016124ba565b604051809381926381fc60a560e01b8352602060048401526024830190612583565b03817f00000000000000000000000000000000000000000000000000000000000000006001600160a01b03165afa9081156101db57826101b493926101b857505060405191829182612ba0565b50346101e6576118683661285b565b6040516395a8c58d60e01b8152336004820152600260248201529192916020816044816001600160a01b037f0000000000000000000000000000000000000000000000000000000000000000165afa8015610db0576118cd9186916107ad5750612f5a565b6118d5613663565b81516020830151604084015160608501805160808701519197899591946001600160a01b0393841694937f00000000000000000000000000000000000000000000000000000000000000001692909190833b156111ed576119518896928793604051998a9889978896630173c92160e71b885260048801612fdb565b03925af180156101db5761199b575b505061048f7fc8c9ccc57ad2f7823680b448dd87b511b225eb0ac2e99e0aa88e7a26ebc6cbe593519251926040519384934292339086613047565b816119a59161247e565b610a1c57835f611960565b50346101e65760603660031901126101e657806004356001600160401b038111610b52576119e29036906004016124ba565b6044356001600160401b038111610b5057611a01903690600401612a17565b6040516395a8c58d60e01b81523360048201525f60248201529091906020816044816001600160a01b037f0000000000000000000000000000000000000000000000000000000000000000165afa80156104e557611a659185916104b6575061312b565b611a6d613663565b7f00000000000000000000000000000000000000000000000000000000000000006001600160a01b031691823b156107a85761074b92611ace858094604051968795869485936312b63c6960e21b8552606060048601526064850190612583565b906024356024850152600319848303016044850152612d38565b50346101e65780611af83661297e565b6040516395a8c58d60e01b815233600482015260026024820152939591949093919290916020816044816001600160a01b037f0000000000000000000000000000000000000000000000000000000000000000165afa80156104e557611b649185916107ad5750612f5a565b611b6c613663565b7f00000000000000000000000000000000000000000000000000000000000000006001600160a01b031690813b15610a1c578391869183896109c160405197889687958694621acf2560e81b8652339360048701613088565b50346101e65780611bd536612811565b6040516395a8c58d60e01b815233600482015260026024820152909291906020816044816001600160a01b037f0000000000000000000000000000000000000000000000000000000000000000165afa8015611cef57611c3b9184916107ad5750612f5a565b611c43613663565b7f00000000000000000000000000000000000000000000000000000000000000006001600160a01b0316803b156104f057838391611c989383604051809681958294633bb6ff3f60e01b8452600484016125a7565b03925af180156101db57611cda575b506040517f22c98a0f9900e3db134c94b13ad7aa1f97d90ff9ed2330b80daedf57c6fb1708908061048f42863384612fb1565b81611ce49161247e565b6104ae57815f611ca7565b6040513d85823e3d90fd5b50346101e657611d093661285b565b6040516395a8c58d60e01b8152336004820152600260248201529192916020816044816001600160a01b037f0000000000000000000000000000000000000000000000000000000000000000165afa8015610db057611d6e9186916107ad5750612f5a565b611d76613663565b81516020830151604084015160608501805160808701519197899591946001600160a01b0393841694937f00000000000000000000000000000000000000000000000000000000000000001692909190833b156111ed576119518896928793604051998a98899788966315c9fbf960e11b885260048801612fdb565b50346101e65780611e0236612811565b6040516395a8c58d60e01b815233600482015260026024820152909291906020816044816001600160a01b037f0000000000000000000000000000000000000000000000000000000000000000165afa8015611cef57611e689184916107ad5750612f5a565b611e70613663565b7f00000000000000000000000000000000000000000000000000000000000000006001600160a01b0316803b156104f057838391611c98938360405180968195829463252006af60e01b8452600484016125a7565b50346101e65760803660031901126101e6576004356001600160401b0381116104ae57611ef69036906004016125e3565b611efe612674565b826044356001600160401b0381116104ae57611f1e903690600401612684565b926064356001600160401b0381116104f057611f3e9036906004016126de565b6040516395a8c58d60e01b8152336004820152600160248201526020816044816001600160a01b037f0000000000000000000000000000000000000000000000000000000000000000165afa80156104e557611fa09185916106595750612e42565b611fa8613663565b8151602083015160408401805160609095015190976001600160a01b0391821695937f00000000000000000000000000000000000000000000000000000000000000009092169291833b156111ed57879586926040519889978896879563682053d960e01b87526004870160e0905260e4870161202491612583565b86810360031901602488015261203991612583565b85810360031901604487015261204e91612583565b90606485015260ff8c1660848501526003198482030160a485015261207291612d0e565b8281036003190160c4840152610d4f91612d92565b50346101e65760203660031901126101e6576004356001600160401b0381116104ae5790806120bd6120df9336906004016124ba565b60405180948192636d1aa7d560e01b8352602060048401526024830190612583565b03817f00000000000000000000000000000000000000000000000000000000000000006001600160a01b03165afa9182156121545781809361212d575b50506101b4604051928392836125a7565b90915061214c92503d8091833e612144818361247e565b810190612ede565b905f8061211c565b50604051903d90823e3d90fd5b50346101e65760203660031901126101e6576004356001600160401b0381116104ae5790806120bd6121979336906004016124ba565b03817f00000000000000000000000000000000000000000000000000000000000000006001600160a01b03165afa9182156121545781809361212d5750506101b4604051928392836125a7565b5034612381576060366003190112612381576004356001600160401b038111612381576122159036906004016124ba565b6044356001600160401b03811161238157612234903690600401612500565b6040516395a8c58d60e01b8152336004820152600160248201529091906020816044816001600160a01b037f0000000000000000000000000000000000000000000000000000000000000000165afa801561237657612299915f916106595750612e42565b6122a1613663565b7f00000000000000000000000000000000000000000000000000000000000000006001600160a01b031691823b156123815761231c926123025f8094604051968795869485936307b11c0b60e01b8552606060048601526064850190612583565b906024356024850152600319848303016044850152612ce1565b03925af18015612376576123635750604080513381524260208201527f80de2ba789f34a9f5f409d6572f1528526684b7c6d144f87b8f0bab593656b76918190810161048f565b61236f91505f9061247e565b5f5f61075a565b6040513d5f823e3d90fd5b5f80fd5b34612381575f366003190112612381577f00000000000000000000000000000000000000000000000000000000000000006001600160a01b03168152602090f35b608081019081106001600160401b038211176123e157604052565b634e487b7160e01b5f52604160045260245ffd5b60c081019081106001600160401b038211176123e157604052565b61010081019081106001600160401b038211176123e157604052565b606081019081106001600160401b038211176123e157604052565b604081019081106001600160401b038211176123e157604052565b6101a081019081106001600160401b038211176123e157604052565b90601f801991011681019081106001600160401b038211176123e157604052565b6001600160401b0381116123e157601f01601f191660200190565b81601f82011215612381578035906124d18261249f565b926124df604051948561247e565b8284526020838301011161238157815f926020809301838601378301015290565b919060608382031261238157604051906125198261242c565b819380356001600160401b03811161238157826125379183016124ba565b835260208101356001600160401b03811161238157826125589183016124ba565b60208401526040810135916001600160401b0383116123815760409261257e92016124ba565b910152565b805180835260209291819084018484015e5f828201840152601f01601f1916010190565b90916125be6125cc93604084526040840190612583565b916020818403910152612583565b90565b35906001600160a01b038216820361238157565b91909160808184031261238157604051906125fd826123c6565b819381356001600160401b038111612381578161261b9184016124ba565b835260208201356001600160401b038111612381578161263c9184016124ba565b60208401526040820135906001600160401b03821161238157826126696060949261257e948694016124ba565b6040860152016125cf565b6024359060ff8216820361238157565b9190604083820312612381576040519061269d82612447565b819380356001600160401b03811161238157826126bb9183016124ba565b83526020810135916001600160401b0383116123815760209261257e92016124ba565b91906101008382031261238157604051906126f882612410565b819380356001600160401b03811161238157826127169183016124ba565b835260208101356001600160401b03811161238157826127379183016124ba565b602084015260408101356001600160401b038111612381578261275b9183016124ba565b604084015260608101356001600160401b038111612381578261277f9183016124ba565b606084015260808101356001600160401b03811161238157826127a39183016124ba565b608084015260a08101356001600160401b03811161238157826127c79183016124ba565b60a084015260c08101356001600160401b03811161238157826127eb9183016124ba565b60c084015260e0810135916001600160401b0383116123815760e09261257e92016124ba565b906040600319830112612381576004356001600160401b038111612381578261283c916004016124ba565b91602435906001600160401b038211612381576125cc916004016124ba565b906060600319830112612381576004356001600160401b0381116123815760a08184036003190112612381576040519060a082018281106001600160401b038211176123e15760405280600401356001600160401b038111612381578460046128c6928401016124ba565b825260248101356001600160401b038111612381578460046128ea928401016124ba565b602083015260448101356001600160401b03811161238157846004612911928401016124ba565b604083015260648101356001600160401b038111612381578161293e8660046084946129499601016124ba565b6060850152016125cf565b608082015291602435906001600160401b0382116123815761296d916004016124ba565b9060443560ff811681036123815790565b9060a0600319830112612381576004356001600160401b03811161238157826129a9916004016124ba565b916024356001600160401b03811161238157816129c8916004016124ba565b916044356001600160401b03811161238157826129e7916004016124ba565b91606435906001600160401b03821161238157612a06916004016124ba565b9060843560ff811681036123815790565b919060c0838203126123815760405190612a30826123f5565b819380356001600160401b0381116123815782612a4e9183016124ba565b835260208101356001600160401b0381116123815782612a6f9183016124ba565b602084015260408101356001600160401b0381116123815782612a939183016124ba565b604084015260608101356001600160401b0381116123815782612ab79183016124ba565b606084015260808101356001600160401b0381116123815782612adb9183016124ba565b608084015260a0810135916001600160401b0383116123815760a09261257e92016124ba565b906009821015612b0e5752565b634e487b7160e01b5f52602160045260245ffd5b9060c080612b97612b66612b54612b42875160e0885260e0880190612583565b60208801518782036020890152612583565b60408701518682036040880152612583565b60ff6060870151166060860152612b8560808701516080870190612b01565b60a086015185820360a0870152612583565b93015191015290565b602081016020825282518091526040820191602060408360051b8301019401925f915b838310612bd257505050505090565b9091929394602080612bf0600193603f198682030187528951612b22565b97019301930191939290612bc3565b906040612c1861137a8451606085526060850190612583565b928101516001600160a01b031691015290565b6125cc91612c3a818351612b01565b6020820151602082015260408201516040820152606082015160608201526080820151608082015260a082015160a082015260c082015160c082015260e082015160e0820152610100820151610100820152610120820151610120820152610180612ccf612cbb6101408501516101a06101408601526101a0850190612bff565b610160850151848203610160860152612bff565b92015190610180818403910152612583565b6125cc916040612cfd61137a8451606085526060850190612583565b920151906040818403910152612583565b6125cc916020612d278351604084526040840190612583565b920151906020818403910152612583565b6125cc9160a0612d81612d6f612d5d612b54612b42875160c0885260c0880190612583565b60608601518582036060870152612583565b60808501518482036080860152612583565b9201519060a0818403910152612583565b6125cc9160e0612e19612e07612b85612df5612de3612dd1612dbf89516101008a526101008a0190612583565b60208a015189820360208b0152612583565b604089015188820360408a0152612583565b60608801518782036060890152612583565b60808701518682036080880152612583565b60c085015184820360c0860152612583565b9201519060e0818403910152612583565b90816020910312612381575180151581036123815790565b15612e4957565b60405162461bcd60e51b815260206004820152602160248201527f4f6e6c79205042462063616e20646f2074686973207472616e73616374696f6e6044820152602160f81b6064820152608490fd5b81601f8201121561238157805190612eaf8261249f565b92612ebd604051948561247e565b8284526020838301011161238157815f9260208093018386015e8301015290565b9190916040818403126123815780516001600160401b0381116123815783612f07918301612e98565b9260208201516001600160401b038111612381576125cc9201612e98565b90606092959493612f4060ff92608085526080850190612583565b6001600160a01b0390971660208401521660408201520152565b15612f6157565b60405162461bcd60e51b815260206004820152602260248201527f4f6e6c792042504f4d2063616e20646f2074686973207472616e73616374696f6044820152616e2160f01b6064820152608490fd5b939291612fd69060409260018060a01b03168652606060208701526060860190612583565b930152565b9261301a9061300c61302894612ffe6125cc9a989560c0895260c0890190612583565b908782036020890152612583565b908582036040870152612583565b908382036060850152612583565b6001600160a01b03909316608082015280830360a09190910152612583565b95949360ff608094613065612fd6959460a08b5260a08b0190612583565b6001600160a01b0390941660208a01521660408801528682036060880152612583565b93906080936130ba6130d6946130ac6130c8949a999a60a08a5260a08a0190612583565b9088820360208a0152612583565b908682036040880152612583565b908482036060860152612583565b6001600160a01b03909416910152565b9193906125cc959361310260ff9260a0865260a0860190612583565b6001600160a01b0390961660208501521660408301526060820152808303608090910152612583565b1561313257565b60405162461bcd60e51b815260206004820152602560248201527f4f6e6c7920466163746f72792063616e20646f2074686973207472616e73616360448201526474696f6e2160d81b6064820152608490fd5b519060ff8216820361238157565b602081830312612381578051906001600160401b038211612381570181601f82011215612381578051906001600160401b0382116123e15760208260051b01926131e0604051948561247e565b82845260208085019360051b830101918183116123815760208101935b83851061320c57505050505090565b84516001600160401b0381116123815760209083010160e081850312612381576040519160e083018381106001600160401b038211176123e15760405281516001600160401b0381116123815785613265918401612e98565b835260208201516001600160401b0381116123815785613286918401612e98565b602084015260408201516001600160401b03811161238157856132aa918401612e98565b60408401526132bb60608301613185565b60608401526080820151600981101561238157608084015260a0820151926001600160401b0384116123815760c0836132f988602097889701612e98565b60a0840152015160c08201528152019401936131fd565b6040519061331d8261242c565b5f60408360608152606060208201520152565b6040519061333d82612462565b6060610180835f81525f60208201525f60408201525f838201525f60808201525f60a08201525f60c08201525f60e08201525f6101008201525f610120820152613385613310565b610140820152613393613310565b6101608201520152565b604051906133aa8261242c565b60606040838281528260208201520152565b604051906133c982612447565b60606020838281520152565b919060608382031261238157604051906133ee8261242c565b819380516001600160401b038111612381578261340c918301612e98565b835260208101516001600160401b038111612381578261342d918301612e98565b60208401526040810151916001600160401b0383116123815760409261257e9201612e98565b9190604083820312612381576040519061346c82612447565b819380516001600160401b038111612381578261348a918301612e98565b83526020810151916001600160401b0383116123815760209261257e9201612e98565b919060608382031261238157604051906134c68261242c565b819380516001600160401b03811161238157826134e4918301612e98565b835260208101516001600160401b03811161238157604092613507918301612e98565b60208401520151906001600160a01b03821682036123815760400152565b602081830312612381578051906001600160401b03821161238157016101a081830312612381576040519161355983612462565b815160098110156123815783526020820151602084015260408201516040840152606082015160608401526080820151608084015260a082015160a084015260c082015160c084015260e082015160e08401526101008201516101008401526101208201516101208401526101408201516001600160401b03811161238157816135e49184016134ad565b6101408401526101608201516001600160401b038111612381578161360a9184016134ad565b6101608401526101808201516001600160401b0381116123815761362e9201612e98565b61018082015290565b61364f60409295949395606083526060830190612583565b6001600160a01b0390951660208201520152565b60025f54146136725760025f55565b633ee5aeb560e01b5f5260045ffdfea2646970667358221220dd8391ce89b5c8a8a3f1c573dd6236ccc5f55b2d5230b80ccc0342d0a786119464736f6c634300081b0033","opcodes":"PUSH1 0xE0 CALLVALUE PUSH2 0x1BE JUMPI PUSH1 0x1F PUSH2 0x38A2 CODESIZE DUP2 SWAP1 SUB SWAP2 DUP3 ADD PUSH1 0x1F NOT AND DUP4 ADD SWAP2 PUSH1 0x1 PUSH1 0x1 PUSH1 0x40 SHL SUB DUP4 GT DUP5 DUP5 LT OR PUSH2 0x1C2 JUMPI DUP1 DUP5 SWAP3 PUSH1 0x60 SWAP5 PUSH1 0x40 MSTORE DUP4 CODECOPY DUP2 ADD SUB SLT PUSH2 0x1BE JUMPI PUSH2 0x47 DUP2 PUSH2 0x1D6 JUMP JUMPDEST SWAP1 PUSH2 0x60 PUSH1 0x40 PUSH2 0x59 PUSH1 0x20 DUP5 ADD PUSH2 0x1D6 JUMP JUMPDEST SWAP3 ADD PUSH2 0x1D6 JUMP JUMPDEST PUSH1 0x1 PUSH0 SSTORE PUSH1 0x1 PUSH1 0x1 PUSH1 0xA0 SHL SUB SWAP3 DUP4 AND PUSH1 0x80 MSTORE SWAP1 DUP3 AND PUSH1 0xA0 MSTORE AND PUSH1 0xC0 MSTORE PUSH1 0x40 MLOAD PUSH2 0x36B7 SWAP1 DUP2 PUSH2 0x1EB DUP3 CODECOPY PUSH1 0x80 MLOAD DUP2 DUP2 DUP2 PUSH2 0x36B ADD MSTORE DUP2 DUP2 PUSH2 0x58E ADD MSTORE DUP2 DUP2 PUSH2 0x6B5 ADD MSTORE DUP2 DUP2 PUSH2 0x84E ADD MSTORE DUP2 DUP2 PUSH2 0x927 ADD MSTORE DUP2 DUP2 PUSH2 0xA9D ADD MSTORE DUP2 DUP2 PUSH2 0xC19 ADD MSTORE DUP2 DUP2 PUSH2 0x1694 ADD MSTORE DUP2 DUP2 PUSH2 0x1895 ADD MSTORE DUP2 DUP2 PUSH2 0x1A2D ADD MSTORE DUP2 DUP2 PUSH2 0x1B2C ADD MSTORE DUP2 DUP2 PUSH2 0x1C03 ADD MSTORE DUP2 DUP2 PUSH2 0x1D36 ADD MSTORE DUP2 DUP2 PUSH2 0x1E30 ADD MSTORE DUP2 DUP2 PUSH2 0x1F68 ADD MSTORE DUP2 DUP2 PUSH2 0x2261 ADD MSTORE PUSH2 0x2397 ADD MSTORE PUSH1 0xA0 MLOAD DUP2 DUP2 DUP2 PUSH2 0x1FF ADD MSTORE DUP2 DUP2 PUSH2 0x3B1 ADD MSTORE DUP2 DUP2 PUSH2 0x6F8 ADD MSTORE DUP2 DUP2 PUSH2 0x969 ADD MSTORE DUP2 DUP2 PUSH2 0xADF ADD MSTORE DUP2 DUP2 PUSH2 0xC7C ADD MSTORE DUP2 DUP2 PUSH2 0x1296 ADD MSTORE DUP2 DUP2 PUSH2 0x176C ADD MSTORE DUP2 DUP2 PUSH2 0x1810 ADD MSTORE DUP2 DUP2 PUSH2 0x1901 ADD MSTORE DUP2 DUP2 PUSH2 0x1A6F ADD MSTORE DUP2 DUP2 PUSH2 0x1C45 ADD MSTORE PUSH2 0x20E3 ADD MSTORE PUSH1 0xC0 MLOAD DUP2 DUP2 DUP2 PUSH2 0x16A ADD MSTORE DUP2 DUP2 PUSH2 0x289 ADD MSTORE DUP2 DUP2 PUSH2 0x5D4 ADD MSTORE DUP2 DUP2 PUSH2 0x7E2 ADD MSTORE DUP2 DUP2 PUSH2 0x890 ADD MSTORE DUP2 DUP2 PUSH2 0xE5F ADD MSTORE DUP2 DUP2 PUSH2 0x16D6 ADD MSTORE DUP2 DUP2 PUSH2 0x1B6E ADD MSTORE DUP2 DUP2 PUSH2 0x1DA2 ADD MSTORE DUP2 DUP2 PUSH2 0x1E72 ADD MSTORE DUP2 DUP2 PUSH2 0x1FCC ADD MSTORE DUP2 DUP2 PUSH2 0x219B ADD MSTORE PUSH2 0x22A3 ADD MSTORE RETURN JUMPDEST PUSH0 DUP1 REVERT JUMPDEST PUSH4 0x4E487B71 PUSH1 0xE0 SHL PUSH0 MSTORE PUSH1 0x41 PUSH1 0x4 MSTORE PUSH1 0x24 PUSH0 REVERT JUMPDEST MLOAD SWAP1 PUSH1 0x1 PUSH1 0x1 PUSH1 0xA0 SHL SUB DUP3 AND DUP3 SUB PUSH2 0x1BE JUMPI JUMP INVALID PUSH1 0x80 DUP1 PUSH1 0x40 MSTORE PUSH1 0x4 CALLDATASIZE LT ISZERO PUSH2 0x12 JUMPI PUSH0 DUP1 REVERT JUMPDEST PUSH0 SWAP1 PUSH0 CALLDATALOAD PUSH1 0xE0 SHR SWAP1 DUP2 PUSH3 0x435DA5 EQ PUSH2 0x2385 JUMPI POP DUP1 PUSH4 0x7B11C0B EQ PUSH2 0x21E4 JUMPI DUP1 PUSH4 0x17D96797 EQ PUSH2 0x2161 JUMPI DUP1 PUSH4 0x1A898044 EQ PUSH2 0x2087 JUMPI DUP1 PUSH4 0x1D430349 EQ PUSH2 0x1EC5 JUMPI DUP1 PUSH4 0x252006AF EQ PUSH2 0x1DF2 JUMPI DUP1 PUSH4 0x2DBCAF0F EQ PUSH2 0x1CFA JUMPI DUP1 PUSH4 0x3BB6FF3F EQ PUSH2 0x1BC5 JUMPI DUP1 PUSH4 0x41EE1495 EQ PUSH2 0x1AE8 JUMPI DUP1 PUSH4 0x4AD8F1A4 EQ PUSH2 0x19B0 JUMPI DUP1 PUSH4 0x4E03317B EQ PUSH2 0x1859 JUMPI DUP1 PUSH4 0x51C2D326 EQ PUSH2 0x17B5 JUMPI DUP1 PUSH4 0x5850607C EQ PUSH2 0x1747 JUMPI DUP1 PUSH4 0x69046DD3 EQ PUSH2 0x1616 JUMPI DUP1 PUSH4 0x70C056B0 EQ PUSH2 0x11F5 JUMPI DUP1 PUSH4 0x7E8F8DA7 EQ PUSH2 0xDBB JUMPI DUP1 PUSH4 0x87FECD3E EQ PUSH2 0xB55 JUMPI DUP1 PUSH4 0x9914D854 EQ PUSH2 0xA20 JUMPI DUP1 PUSH4 0x9C0ABFD8 EQ PUSH2 0x8E3 JUMPI DUP1 PUSH4 0x9C6B1F10 EQ PUSH2 0x811 JUMPI DUP1 PUSH4 0xAF3A1758 EQ PUSH2 0x7CC JUMPI DUP1 PUSH4 0xB0730436 EQ PUSH2 0x678 JUMPI DUP1 PUSH4 0xBBD0B8A9 EQ PUSH2 0x4F4 JUMPI DUP1 PUSH4 0xCB43B77F EQ PUSH2 0x2D2 JUMPI DUP1 PUSH4 0xD0927B19 EQ PUSH2 0x22E JUMPI DUP1 PUSH4 0xD369111D EQ PUSH2 0x1E9 JUMPI PUSH4 0xF14261D2 EQ PUSH2 0x146 JUMPI PUSH0 DUP1 REVERT JUMPDEST CALLVALUE PUSH2 0x1E6 JUMPI DUP1 PUSH1 0x3 NOT CALLDATASIZE ADD SLT PUSH2 0x1E6 JUMPI PUSH1 0x40 MLOAD PUSH4 0x78A130E9 PUSH1 0xE1 SHL DUP2 MSTORE DUP2 DUP2 PUSH1 0x4 DUP2 PUSH32 0x0 PUSH1 0x1 PUSH1 0x1 PUSH1 0xA0 SHL SUB AND GAS STATICCALL SWAP1 DUP2 ISZERO PUSH2 0x1DB JUMPI DUP3 PUSH2 0x1B4 SWAP4 SWAP3 PUSH2 0x1B8 JUMPI JUMPDEST POP POP PUSH1 0x40 MLOAD SWAP2 DUP3 SWAP2 DUP3 PUSH2 0x2BA0 JUMP JUMPDEST SUB SWAP1 RETURN JUMPDEST PUSH2 0x1D4 SWAP3 POP RETURNDATASIZE DUP1 SWAP2 DUP4 RETURNDATACOPY PUSH2 0x1CC DUP2 DUP4 PUSH2 0x247E JUMP JUMPDEST DUP2 ADD SWAP1 PUSH2 0x3193 JUMP JUMPDEST PUSH0 DUP1 PUSH2 0x1A6 JUMP JUMPDEST PUSH1 0x40 MLOAD RETURNDATASIZE DUP5 DUP3 RETURNDATACOPY RETURNDATASIZE SWAP1 REVERT JUMPDEST DUP1 REVERT JUMPDEST POP CALLVALUE PUSH2 0x1E6 JUMPI DUP1 PUSH1 0x3 NOT CALLDATASIZE ADD SLT PUSH2 0x1E6 JUMPI PUSH1 0x40 MLOAD PUSH32 0x0 PUSH1 0x1 PUSH1 0x1 PUSH1 0xA0 SHL SUB AND DUP2 MSTORE PUSH1 0x20 SWAP1 RETURN JUMPDEST POP CALLVALUE PUSH2 0x1E6 JUMPI PUSH1 0x20 CALLDATASIZE PUSH1 0x3 NOT ADD SLT PUSH2 0x1E6 JUMPI PUSH1 0x4 CALLDATALOAD DUP2 PUSH1 0x1 PUSH1 0x1 PUSH1 0x40 SHL SUB DUP3 GT PUSH2 0x1E6 JUMPI PUSH2 0x263 PUSH2 0x285 SWAP3 CALLDATASIZE SWAP1 PUSH1 0x4 ADD PUSH2 0x24BA JUMP JUMPDEST PUSH1 0x40 MLOAD DUP1 SWAP4 DUP2 SWAP3 PUSH4 0x6F12C23 PUSH1 0xE4 SHL DUP4 MSTORE PUSH1 0x20 PUSH1 0x4 DUP5 ADD MSTORE PUSH1 0x24 DUP4 ADD SWAP1 PUSH2 0x2583 JUMP JUMPDEST SUB DUP2 PUSH32 0x0 PUSH1 0x1 PUSH1 0x1 PUSH1 0xA0 SHL SUB AND GAS STATICCALL SWAP1 DUP2 ISZERO PUSH2 0x1DB JUMPI DUP3 PUSH2 0x1B4 SWAP4 SWAP3 PUSH2 0x1B8 JUMPI POP POP PUSH1 0x40 MLOAD SWAP2 DUP3 SWAP2 DUP3 PUSH2 0x2BA0 JUMP JUMPDEST POP CALLVALUE PUSH2 0x1E6 JUMPI PUSH1 0x60 CALLDATASIZE PUSH1 0x3 NOT ADD SLT PUSH2 0x1E6 JUMPI PUSH1 0x4 CALLDATALOAD PUSH1 0x1 PUSH1 0x1 PUSH1 0x40 SHL SUB DUP2 GT PUSH2 0x4AE JUMPI PUSH2 0x303 SWAP1 CALLDATASIZE SWAP1 PUSH1 0x4 ADD PUSH2 0x25E3 JUMP JUMPDEST DUP2 PUSH1 0x24 CALLDATALOAD PUSH1 0x1 PUSH1 0x1 PUSH1 0x40 SHL SUB DUP2 GT PUSH2 0x4AE JUMPI PUSH2 0x323 SWAP1 CALLDATASIZE SWAP1 PUSH1 0x4 ADD PUSH2 0x2500 JUMP JUMPDEST PUSH1 0x44 CALLDATALOAD PUSH1 0x1 PUSH1 0x1 PUSH1 0x40 SHL SUB DUP2 GT PUSH2 0x4F0 JUMPI PUSH2 0x342 SWAP1 CALLDATASIZE SWAP1 PUSH1 0x4 ADD PUSH2 0x2684 JUMP JUMPDEST PUSH1 0x40 MLOAD PUSH4 0x95A8C58D PUSH1 0xE0 SHL DUP2 MSTORE CALLER PUSH1 0x4 DUP3 ADD MSTORE PUSH0 PUSH1 0x24 DUP3 ADD MSTORE PUSH1 0x20 DUP2 PUSH1 0x44 DUP2 PUSH1 0x1 PUSH1 0x1 PUSH1 0xA0 SHL SUB PUSH32 0x0 AND GAS STATICCALL DUP1 ISZERO PUSH2 0x4E5 JUMPI PUSH2 0x3A4 SWAP2 DUP6 SWAP2 PUSH2 0x4B6 JUMPI JUMPDEST POP PUSH2 0x312B JUMP JUMPDEST PUSH2 0x3AC PUSH2 0x3663 JUMP JUMPDEST DUP4 MLOAD SWAP2 PUSH32 0x0 PUSH1 0x1 PUSH1 0x1 PUSH1 0xA0 SHL SUB AND DUP1 EXTCODESIZE ISZERO PUSH2 0x4B2 JUMPI PUSH2 0x412 DUP6 PUSH2 0x424 SWAP6 PUSH2 0x436 DUP3 SWAP7 PUSH1 0x40 MLOAD SWAP9 DUP10 SWAP8 DUP9 SWAP7 DUP8 SWAP6 PUSH4 0xE8002B27 PUSH1 0xE0 SHL DUP8 MSTORE PUSH1 0x60 PUSH1 0x4 DUP9 ADD MSTORE PUSH1 0x64 DUP8 ADD SWAP1 PUSH2 0x2583 JUMP JUMPDEST DUP6 DUP2 SUB PUSH1 0x3 NOT ADD PUSH1 0x24 DUP8 ADD MSTORE SWAP1 PUSH2 0x2CE1 JUMP JUMPDEST DUP4 DUP2 SUB PUSH1 0x3 NOT ADD PUSH1 0x44 DUP6 ADD MSTORE SWAP1 PUSH2 0x2D0E JUMP JUMPDEST SUB SWAP3 GAS CALL DUP1 ISZERO PUSH2 0x1DB JUMPI PUSH2 0x499 JUMPI JUMPDEST POP PUSH1 0x40 DUP1 DUP4 ADD MLOAD PUSH1 0x60 DUP5 ADD MLOAD SWAP2 MLOAD PUSH32 0xC77DD947EA8BFD0BD2706C8FAD9B1178313FAD6BD4CB678B9342239BE4F88528 SWAP3 SWAP1 SWAP2 DUP3 SWAP2 PUSH2 0x48F SWAP2 TIMESTAMP SWAP2 PUSH1 0x1 PUSH1 0x1 PUSH1 0xA0 SHL SUB AND SWAP1 DUP5 PUSH2 0x3637 JUMP JUMPDEST SUB SWAP1 LOG1 PUSH1 0x1 DUP2 SSTORE DUP1 RETURN JUMPDEST DUP2 PUSH2 0x4A3 SWAP2 PUSH2 0x247E JUMP JUMPDEST PUSH2 0x4AE JUMPI DUP2 PUSH0 PUSH2 0x445 JUMP JUMPDEST POP DUP1 REVERT JUMPDEST DUP5 DUP1 REVERT JUMPDEST PUSH2 0x4D8 SWAP2 POP PUSH1 0x20 RETURNDATASIZE PUSH1 0x20 GT PUSH2 0x4DE JUMPI JUMPDEST PUSH2 0x4D0 DUP2 DUP4 PUSH2 0x247E JUMP JUMPDEST DUP2 ADD SWAP1 PUSH2 0x2E2A JUMP JUMPDEST PUSH0 PUSH2 0x39E JUMP JUMPDEST POP RETURNDATASIZE PUSH2 0x4C6 JUMP JUMPDEST PUSH1 0x40 MLOAD RETURNDATASIZE DUP7 DUP3 RETURNDATACOPY RETURNDATASIZE SWAP1 REVERT JUMPDEST DUP3 DUP1 REVERT JUMPDEST POP CALLVALUE PUSH2 0x1E6 JUMPI PUSH1 0x60 CALLDATASIZE PUSH1 0x3 NOT ADD SLT PUSH2 0x1E6 JUMPI PUSH1 0x4 CALLDATALOAD PUSH1 0x1 PUSH1 0x1 PUSH1 0x40 SHL SUB DUP2 GT PUSH2 0x4AE JUMPI PUSH2 0x525 SWAP1 CALLDATASIZE SWAP1 PUSH1 0x4 ADD PUSH2 0x25E3 JUMP JUMPDEST DUP2 PUSH1 0x24 CALLDATALOAD PUSH1 0x1 PUSH1 0x1 PUSH1 0x40 SHL SUB DUP2 GT PUSH2 0x4AE JUMPI PUSH2 0x545 SWAP1 CALLDATASIZE SWAP1 PUSH1 0x4 ADD PUSH2 0x2684 JUMP JUMPDEST PUSH1 0x44 CALLDATALOAD PUSH1 0x1 PUSH1 0x1 PUSH1 0x40 SHL SUB DUP2 GT PUSH2 0x4F0 JUMPI PUSH2 0x564 SWAP1 CALLDATASIZE SWAP1 PUSH1 0x4 ADD PUSH2 0x26DE JUMP JUMPDEST PUSH1 0x40 MLOAD PUSH4 0x95A8C58D PUSH1 0xE0 SHL DUP2 MSTORE CALLER PUSH1 0x4 DUP3 ADD MSTORE PUSH1 0x1 PUSH1 0x24 DUP3 ADD MSTORE PUSH1 0x20 DUP2 PUSH1 0x44 DUP2 PUSH1 0x1 PUSH1 0x1 PUSH1 0xA0 SHL SUB PUSH32 0x0 AND GAS STATICCALL DUP1 ISZERO PUSH2 0x4E5 JUMPI PUSH2 0x5C7 SWAP2 DUP6 SWAP2 PUSH2 0x659 JUMPI JUMPDEST POP PUSH2 0x2E42 JUMP JUMPDEST PUSH2 0x5CF PUSH2 0x3663 JUMP JUMPDEST DUP4 MLOAD SWAP2 PUSH32 0x0 PUSH1 0x1 PUSH1 0x1 PUSH1 0xA0 SHL SUB AND DUP1 EXTCODESIZE ISZERO PUSH2 0x4B2 JUMPI PUSH2 0x635 DUP6 PUSH2 0x647 SWAP6 PUSH2 0x436 DUP3 SWAP7 PUSH1 0x40 MLOAD SWAP9 DUP10 SWAP8 DUP9 SWAP7 DUP8 SWAP6 PUSH4 0xA7226527 PUSH1 0xE0 SHL DUP8 MSTORE PUSH1 0x60 PUSH1 0x4 DUP9 ADD MSTORE PUSH1 0x64 DUP8 ADD SWAP1 PUSH2 0x2583 JUMP JUMPDEST DUP6 DUP2 SUB PUSH1 0x3 NOT ADD PUSH1 0x24 DUP8 ADD MSTORE SWAP1 PUSH2 0x2D0E JUMP JUMPDEST DUP4 DUP2 SUB PUSH1 0x3 NOT ADD PUSH1 0x44 DUP6 ADD MSTORE SWAP1 PUSH2 0x2D92 JUMP JUMPDEST PUSH2 0x672 SWAP2 POP PUSH1 0x20 RETURNDATASIZE PUSH1 0x20 GT PUSH2 0x4DE JUMPI PUSH2 0x4D0 DUP2 DUP4 PUSH2 0x247E JUMP JUMPDEST PUSH0 PUSH2 0x5C1 JUMP JUMPDEST POP CALLVALUE PUSH2 0x1E6 JUMPI DUP1 PUSH2 0x688 CALLDATASIZE PUSH2 0x2811 JUMP JUMPDEST PUSH1 0x40 MLOAD PUSH4 0x95A8C58D PUSH1 0xE0 SHL DUP2 MSTORE CALLER PUSH1 0x4 DUP3 ADD MSTORE PUSH1 0x2 PUSH1 0x24 DUP3 ADD MSTORE SWAP1 SWAP2 SWAP1 PUSH1 0x20 DUP2 PUSH1 0x44 DUP2 PUSH1 0x1 PUSH1 0x1 PUSH1 0xA0 SHL SUB PUSH32 0x0 AND GAS STATICCALL DUP1 ISZERO PUSH2 0x4E5 JUMPI PUSH2 0x6EE SWAP2 DUP6 SWAP2 PUSH2 0x7AD JUMPI JUMPDEST POP PUSH2 0x2F5A JUMP JUMPDEST PUSH2 0x6F6 PUSH2 0x3663 JUMP JUMPDEST PUSH32 0x0 PUSH1 0x1 PUSH1 0x1 PUSH1 0xA0 SHL SUB AND SWAP2 DUP3 EXTCODESIZE ISZERO PUSH2 0x7A8 JUMPI PUSH2 0x74B SWAP3 DUP5 SWAP3 DUP4 PUSH1 0x40 MLOAD DUP1 SWAP7 DUP2 SWAP6 DUP3 SWAP5 PUSH4 0x5839821B PUSH1 0xE1 SHL DUP5 MSTORE PUSH1 0x4 DUP5 ADD PUSH2 0x25A7 JUMP JUMPDEST SUB SWAP3 GAS CALL DUP1 ISZERO PUSH2 0x1DB JUMPI PUSH2 0x793 JUMPI JUMPDEST POP PUSH1 0x40 DUP1 MLOAD CALLER DUP2 MSTORE TIMESTAMP PUSH1 0x20 DUP3 ADD MSTORE PUSH32 0x80DE2BA789F34A9F5F409D6572F1528526684B7C6D144F87B8F0BAB593656B76 SWAP2 DUP2 SWAP1 DUP2 ADD PUSH2 0x48F JUMP JUMPDEST DUP2 PUSH2 0x79D SWAP2 PUSH2 0x247E JUMP JUMPDEST PUSH2 0x1E6 JUMPI DUP1 PUSH0 PUSH2 0x75A JUMP JUMPDEST POP POP POP REVERT JUMPDEST PUSH2 0x7C6 SWAP2 POP PUSH1 0x20 RETURNDATASIZE PUSH1 0x20 GT PUSH2 0x4DE JUMPI PUSH2 0x4D0 DUP2 DUP4 PUSH2 0x247E JUMP JUMPDEST PUSH0 PUSH2 0x6E8 JUMP JUMPDEST POP CALLVALUE PUSH2 0x1E6 JUMPI DUP1 PUSH1 0x3 NOT CALLDATASIZE ADD SLT PUSH2 0x1E6 JUMPI PUSH1 0x40 MLOAD PUSH32 0x0 PUSH1 0x1 PUSH1 0x1 PUSH1 0xA0 SHL SUB AND DUP2 MSTORE PUSH1 0x20 SWAP1 RETURN JUMPDEST POP CALLVALUE PUSH2 0x1E6 JUMPI DUP1 PUSH2 0x821 CALLDATASIZE PUSH2 0x2811 JUMP JUMPDEST PUSH1 0x40 MLOAD PUSH4 0x95A8C58D PUSH1 0xE0 SHL DUP2 MSTORE CALLER PUSH1 0x4 DUP3 ADD MSTORE PUSH1 0x2 PUSH1 0x24 DUP3 ADD MSTORE SWAP1 SWAP2 SWAP1 PUSH1 0x20 DUP2 PUSH1 0x44 DUP2 PUSH1 0x1 PUSH1 0x1 PUSH1 0xA0 SHL SUB PUSH32 0x0 AND GAS STATICCALL DUP1 ISZERO PUSH2 0x4E5 JUMPI PUSH2 0x886 SWAP2 DUP6 SWAP2 PUSH2 0x7AD JUMPI POP PUSH2 0x2F5A JUMP JUMPDEST PUSH2 0x88E PUSH2 0x3663 JUMP JUMPDEST PUSH32 0x0 PUSH1 0x1 PUSH1 0x1 PUSH1 0xA0 SHL SUB AND SWAP2 DUP3 EXTCODESIZE ISZERO PUSH2 0x7A8 JUMPI PUSH2 0x74B SWAP3 DUP5 SWAP3 DUP4 PUSH1 0x40 MLOAD DUP1 SWAP7 DUP2 SWAP6 DUP3 SWAP5 PUSH4 0x9C6B1F1 PUSH1 0xE4 SHL DUP5 MSTORE PUSH1 0x4 DUP5 ADD PUSH2 0x25A7 JUMP JUMPDEST POP CALLVALUE PUSH2 0x1E6 JUMPI DUP1 PUSH2 0x8F3 CALLDATASIZE PUSH2 0x297E JUMP JUMPDEST PUSH1 0x40 MLOAD PUSH4 0x95A8C58D PUSH1 0xE0 SHL DUP2 MSTORE CALLER PUSH1 0x4 DUP3 ADD MSTORE PUSH1 0x2 PUSH1 0x24 DUP3 ADD MSTORE SWAP4 SWAP6 SWAP2 SWAP5 SWAP1 SWAP4 SWAP2 SWAP3 SWAP1 SWAP2 PUSH1 0x20 DUP2 PUSH1 0x44 DUP2 PUSH1 0x1 PUSH1 0x1 PUSH1 0xA0 SHL SUB PUSH32 0x0 AND GAS STATICCALL DUP1 ISZERO PUSH2 0x4E5 JUMPI PUSH2 0x95F SWAP2 DUP6 SWAP2 PUSH2 0x7AD JUMPI POP PUSH2 0x2F5A JUMP JUMPDEST PUSH2 0x967 PUSH2 0x3663 JUMP JUMPDEST PUSH32 0x0 PUSH1 0x1 PUSH1 0x1 PUSH1 0xA0 SHL SUB AND SWAP1 DUP2 EXTCODESIZE ISZERO PUSH2 0xA1C JUMPI DUP4 SWAP2 DUP7 SWAP2 DUP4 DUP10 PUSH2 0x9C1 PUSH1 0x40 MLOAD SWAP8 DUP9 SWAP7 DUP8 SWAP6 DUP7 SWAP5 PUSH4 0xE462DDE5 PUSH1 0xE0 SHL DUP7 MSTORE CALLER SWAP4 PUSH1 0x4 DUP8 ADD PUSH2 0x3088 JUMP JUMPDEST SUB SWAP3 GAS CALL DUP1 ISZERO PUSH2 0x1DB JUMPI PUSH2 0xA07 JUMPI JUMPDEST POP POP PUSH2 0x48F PUSH32 0xA4A4ED86DCE7C96C7821A45FBBE8394915281A2A2FA758AB0465B199C571ABFB SWAP4 PUSH1 0x40 MLOAD SWAP4 DUP5 SWAP4 TIMESTAMP SWAP2 CALLER SWAP1 DUP7 PUSH2 0x30E6 JUMP JUMPDEST DUP2 PUSH2 0xA11 SWAP2 PUSH2 0x247E JUMP JUMPDEST PUSH2 0xA1C JUMPI DUP4 PUSH0 PUSH2 0x9D0 JUMP JUMPDEST DUP4 DUP1 REVERT JUMPDEST POP CALLVALUE PUSH2 0x1E6 JUMPI PUSH1 0x40 CALLDATASIZE PUSH1 0x3 NOT ADD SLT PUSH2 0x1E6 JUMPI DUP1 PUSH1 0x4 CALLDATALOAD PUSH1 0x1 PUSH1 0x1 PUSH1 0x40 SHL SUB DUP2 GT PUSH2 0xB52 JUMPI PUSH2 0xA52 SWAP1 CALLDATASIZE SWAP1 PUSH1 0x4 ADD PUSH2 0x24BA JUMP JUMPDEST PUSH1 0x24 CALLDATALOAD PUSH1 0x1 PUSH1 0x1 PUSH1 0x40 SHL SUB DUP2 GT PUSH2 0xB50 JUMPI PUSH2 0xA71 SWAP1 CALLDATASIZE SWAP1 PUSH1 0x4 ADD PUSH2 0x2A17 JUMP JUMPDEST PUSH1 0x40 MLOAD PUSH4 0x95A8C58D PUSH1 0xE0 SHL DUP2 MSTORE CALLER PUSH1 0x4 DUP3 ADD MSTORE PUSH0 PUSH1 0x24 DUP3 ADD MSTORE SWAP1 SWAP2 SWAP1 PUSH1 0x20 DUP2 PUSH1 0x44 DUP2 PUSH1 0x1 PUSH1 0x1 PUSH1 0xA0 SHL SUB PUSH32 0x0 AND GAS STATICCALL DUP1 ISZERO PUSH2 0x4E5 JUMPI PUSH2 0xAD5 SWAP2 DUP6 SWAP2 PUSH2 0x4B6 JUMPI POP PUSH2 0x312B JUMP JUMPDEST PUSH2 0xADD PUSH2 0x3663 JUMP JUMPDEST PUSH32 0x0 PUSH1 0x1 PUSH1 0x1 PUSH1 0xA0 SHL SUB AND SWAP2 DUP3 EXTCODESIZE ISZERO PUSH2 0x7A8 JUMPI PUSH2 0x74B SWAP3 PUSH2 0xB3E DUP6 DUP1 SWAP5 PUSH1 0x40 MLOAD SWAP7 DUP8 SWAP6 DUP7 SWAP5 DUP6 SWAP4 PUSH4 0x26453615 PUSH1 0xE2 SHL DUP6 MSTORE PUSH1 0x40 PUSH1 0x4 DUP7 ADD MSTORE PUSH1 0x44 DUP6 ADD SWAP1 PUSH2 0x2583 JUMP JUMPDEST DUP4 DUP2 SUB PUSH1 0x3 NOT ADD PUSH1 0x24 DUP6 ADD MSTORE SWAP1 PUSH2 0x2D38 JUMP JUMPDEST POP JUMPDEST POP REVERT JUMPDEST POP CALLVALUE PUSH2 0x1E6 JUMPI PUSH1 0xA0 CALLDATASIZE PUSH1 0x3 NOT ADD SLT PUSH2 0x1E6 JUMPI PUSH1 0x4 CALLDATALOAD PUSH1 0x1 PUSH1 0x1 PUSH1 0x40 SHL SUB DUP2 GT PUSH2 0x4AE JUMPI PUSH2 0xB86 SWAP1 CALLDATASIZE SWAP1 PUSH1 0x4 ADD PUSH2 0x25E3 JUMP JUMPDEST PUSH2 0xB8E PUSH2 0x2674 JUMP JUMPDEST DUP3 PUSH1 0x44 CALLDATALOAD PUSH1 0x1 PUSH1 0x1 PUSH1 0x40 SHL SUB DUP2 GT PUSH2 0x4AE JUMPI PUSH2 0xBAE SWAP1 CALLDATASIZE SWAP1 PUSH1 0x4 ADD PUSH2 0x24BA JUMP JUMPDEST SWAP3 PUSH1 0x64 CALLDATALOAD PUSH1 0x1 PUSH1 0x1 PUSH1 0x40 SHL SUB DUP2 GT PUSH2 0x4F0 JUMPI PUSH2 0xBCE SWAP1 CALLDATASIZE SWAP1 PUSH1 0x4 ADD PUSH2 0x2500 JUMP JUMPDEST PUSH1 0x84 CALLDATALOAD PUSH1 0x1 PUSH1 0x1 PUSH1 0x40 SHL SUB DUP2 GT PUSH2 0xA1C JUMPI PUSH2 0xBED SWAP1 CALLDATASIZE SWAP1 PUSH1 0x4 ADD PUSH2 0x2684 JUMP JUMPDEST PUSH1 0x40 MLOAD PUSH4 0x95A8C58D PUSH1 0xE0 SHL DUP2 MSTORE CALLER PUSH1 0x4 DUP3 ADD MSTORE PUSH0 PUSH1 0x24 DUP3 ADD MSTORE SWAP1 SWAP3 SWAP1 PUSH1 0x20 DUP2 PUSH1 0x44 DUP2 PUSH1 0x1 PUSH1 0x1 PUSH1 0xA0 SHL SUB PUSH32 0x0 AND GAS STATICCALL DUP1 ISZERO PUSH2 0xDB0 JUMPI PUSH2 0xC51 SWAP2 DUP7 SWAP2 PUSH2 0x4B6 JUMPI POP PUSH2 0x312B JUMP JUMPDEST PUSH2 0xC59 PUSH2 0x3663 JUMP JUMPDEST DUP1 MLOAD PUSH1 0x20 DUP3 ADD MLOAD PUSH1 0x40 DUP4 ADD DUP1 MLOAD PUSH1 0x60 SWAP1 SWAP5 ADD MLOAD SWAP1 SWAP9 PUSH1 0x1 PUSH1 0x1 PUSH1 0xA0 SHL SUB SWAP2 DUP3 AND SWAP7 PUSH32 0x0 SWAP1 SWAP3 AND SWAP4 SWAP1 SWAP2 DUP5 EXTCODESIZE ISZERO PUSH2 0xDAC JUMPI DUP9 SWAP7 DUP8 SWAP4 PUSH1 0x40 MLOAD SWAP10 DUP11 SWAP9 DUP10 SWAP8 DUP9 SWAP7 PUSH4 0x64B409FF PUSH1 0xE0 SHL DUP9 MSTORE PUSH1 0x4 DUP9 ADD PUSH2 0x100 SWAP1 MSTORE PUSH2 0x104 DUP9 ADD PUSH2 0xCD7 SWAP2 PUSH2 0x2583 JUMP JUMPDEST DUP8 DUP2 SUB PUSH1 0x3 NOT ADD PUSH1 0x24 DUP10 ADD MSTORE PUSH2 0xCEC SWAP2 PUSH2 0x2583 JUMP JUMPDEST DUP7 DUP2 SUB PUSH1 0x3 NOT ADD PUSH1 0x44 DUP9 ADD MSTORE PUSH2 0xD01 SWAP2 PUSH2 0x2583 JUMP JUMPDEST SWAP1 PUSH1 0x64 DUP7 ADD MSTORE PUSH1 0xFF DUP14 AND PUSH1 0x84 DUP7 ADD MSTORE PUSH1 0x3 NOT DUP6 DUP3 SUB ADD PUSH1 0xA4 DUP7 ADD MSTORE PUSH2 0xD25 SWAP2 PUSH2 0x2583 JUMP JUMPDEST DUP4 DUP2 SUB PUSH1 0x3 NOT ADD PUSH1 0xC4 DUP6 ADD MSTORE PUSH2 0xD3A SWAP2 PUSH2 0x2CE1 JUMP JUMPDEST DUP3 DUP2 SUB PUSH1 0x3 NOT ADD PUSH1 0xE4 DUP5 ADD MSTORE PUSH2 0xD4F SWAP2 PUSH2 0x2D0E JUMP JUMPDEST SUB SWAP3 GAS CALL DUP1 ISZERO PUSH2 0x1DB JUMPI PUSH2 0xD97 JUMPI JUMPDEST POP POP PUSH32 0xF52A0795D3C1A788D33423AA105BE7A0AAA157621A984632251E0C2ED142D040 SWAP2 MLOAD SWAP1 PUSH2 0x48F PUSH1 0x40 MLOAD SWAP3 DUP4 SWAP3 TIMESTAMP SWAP2 CALLER SWAP1 DUP6 PUSH2 0x2F25 JUMP JUMPDEST DUP2 PUSH2 0xDA1 SWAP2 PUSH2 0x247E JUMP JUMPDEST PUSH2 0x4F0 JUMPI DUP3 PUSH0 PUSH2 0xD5E JUMP JUMPDEST DUP9 DUP1 REVERT JUMPDEST PUSH1 0x40 MLOAD RETURNDATASIZE DUP8 DUP3 RETURNDATACOPY RETURNDATASIZE SWAP1 REVERT JUMPDEST POP CALLVALUE PUSH2 0x1E6 JUMPI PUSH1 0x20 CALLDATASIZE PUSH1 0x3 NOT ADD SLT PUSH2 0x1E6 JUMPI PUSH1 0x4 CALLDATALOAD PUSH1 0x1 PUSH1 0x1 PUSH1 0x40 SHL SUB DUP2 GT PUSH2 0x4AE JUMPI PUSH2 0xDEC SWAP1 CALLDATASIZE SWAP1 PUSH1 0x4 ADD PUSH2 0x24BA JUMP JUMPDEST PUSH2 0xDF4 PUSH2 0x3330 JUMP JUMPDEST POP PUSH2 0xDFD PUSH2 0x3310 JUMP JUMPDEST POP PUSH2 0xE06 PUSH2 0x33BC JUMP JUMPDEST POP PUSH1 0x60 PUSH1 0xE0 PUSH1 0x40 MLOAD PUSH2 0xE17 DUP2 PUSH2 0x2410 JUMP JUMPDEST DUP3 DUP2 MSTORE DUP3 PUSH1 0x20 DUP3 ADD MSTORE DUP3 PUSH1 0x40 DUP3 ADD MSTORE DUP3 DUP1 DUP3 ADD MSTORE DUP3 PUSH1 0x80 DUP3 ADD MSTORE DUP3 PUSH1 0xA0 DUP3 ADD MSTORE DUP3 PUSH1 0xC0 DUP3 ADD MSTORE ADD MSTORE PUSH2 0xE47 PUSH2 0x339D JUMP JUMPDEST POP PUSH1 0x40 MLOAD PUSH4 0x7E8F8DA7 PUSH1 0xE0 SHL DUP2 MSTORE PUSH1 0x20 PUSH1 0x4 DUP3 ADD MSTORE SWAP1 PUSH32 0x0 PUSH1 0x1 PUSH1 0x1 PUSH1 0xA0 SHL SUB AND DUP4 DUP4 DUP1 PUSH2 0xE97 PUSH1 0x24 DUP3 ADD DUP7 PUSH2 0x2583 JUMP JUMPDEST SUB DUP2 DUP5 GAS STATICCALL SWAP1 DUP2 ISZERO PUSH2 0x4E5 JUMPI DUP5 DUP6 DUP1 SWAP5 DUP2 SWAP4 DUP3 SWAP6 PUSH2 0xFB4 JUMPI JUMPDEST PUSH2 0xED9 SWAP7 SWAP8 POP PUSH1 0x40 MLOAD DUP1 DUP1 SWAP9 DUP2 SWAP5 PUSH4 0xBE2E2325 PUSH1 0xE0 SHL DUP4 MSTORE PUSH1 0x20 PUSH1 0x4 DUP5 ADD MSTORE PUSH1 0x24 DUP4 ADD SWAP1 PUSH2 0x2583 JUMP JUMPDEST SUB SWAP2 GAS STATICCALL SWAP4 DUP5 ISZERO PUSH2 0xFA9 JUMPI DUP7 PUSH2 0xF12 SWAP8 SWAP6 PUSH2 0xF77 JUMPI JUMPDEST POP POP SWAP1 PUSH2 0xF5B PUSH2 0xF69 SWAP3 PUSH2 0x1B4 SWAP6 SWAP7 PUSH1 0x40 MLOAD SWAP9 DUP10 SWAP9 PUSH1 0xA0 DUP11 MSTORE PUSH1 0xA0 DUP11 ADD SWAP1 PUSH2 0x2C2B JUMP JUMPDEST DUP9 DUP2 SUB PUSH1 0x20 DUP11 ADD MSTORE PUSH1 0x40 PUSH1 0xFF DUP2 PUSH2 0xF47 PUSH2 0xF35 DUP8 MLOAD PUSH1 0x60 DUP8 MSTORE PUSH1 0x60 DUP8 ADD SWAP1 PUSH2 0x2583 JUMP JUMPDEST PUSH1 0x20 DUP9 ADD MLOAD DUP7 DUP3 SUB PUSH1 0x20 DUP9 ADD MSTORE PUSH2 0x2583 JUMP JUMPDEST SWAP6 ADD MLOAD AND SWAP2 ADD MSTORE DUP8 DUP3 SUB PUSH1 0x40 DUP10 ADD MSTORE PUSH2 0x2D0E JUMP JUMPDEST SWAP1 DUP6 DUP3 SUB PUSH1 0x60 DUP8 ADD MSTORE PUSH2 0x2D92 JUMP JUMPDEST SWAP1 DUP4 DUP3 SUB PUSH1 0x80 DUP6 ADD MSTORE PUSH2 0x2CE1 JUMP JUMPDEST PUSH2 0x1B4 SWAP6 POP SWAP2 PUSH2 0xFA0 PUSH2 0xF5B SWAP3 PUSH2 0xF69 SWAP6 SWAP5 RETURNDATASIZE DUP1 SWAP2 DUP4 RETURNDATACOPY PUSH2 0xF98 DUP2 DUP4 PUSH2 0x247E JUMP JUMPDEST DUP2 ADD SWAP1 PUSH2 0x3525 JUMP JUMPDEST SWAP6 POP SWAP2 SWAP3 PUSH2 0xEEF JUMP JUMPDEST PUSH1 0x40 MLOAD RETURNDATASIZE DUP9 DUP3 RETURNDATACOPY RETURNDATASIZE SWAP1 REVERT JUMPDEST SWAP5 POP SWAP5 POP POP POP POP RETURNDATASIZE DUP1 DUP6 DUP6 RETURNDATACOPY PUSH2 0xFCA DUP2 DUP6 PUSH2 0x247E JUMP JUMPDEST DUP4 ADD SWAP2 PUSH1 0x80 DUP5 DUP5 SUB SLT PUSH2 0x4B2 JUMPI DUP4 MLOAD PUSH1 0x1 PUSH1 0x1 PUSH1 0x40 SHL SUB DUP2 GT PUSH2 0x11F1 JUMPI DUP5 ADD SWAP1 PUSH1 0x60 DUP3 DUP6 SUB SLT PUSH2 0x11F1 JUMPI PUSH1 0x40 MLOAD SWAP2 PUSH2 0x1001 DUP4 PUSH2 0x242C JUMP JUMPDEST DUP1 MLOAD PUSH1 0x1 PUSH1 0x1 PUSH1 0x40 SHL SUB DUP2 GT PUSH2 0x11ED JUMPI DUP6 PUSH2 0x101D SWAP2 DUP4 ADD PUSH2 0x2E98 JUMP JUMPDEST DUP4 MSTORE PUSH1 0x20 DUP2 ADD MLOAD PUSH1 0x1 PUSH1 0x1 PUSH1 0x40 SHL SUB DUP2 GT PUSH2 0x11ED JUMPI DUP2 PUSH2 0x1044 DUP8 PUSH1 0x40 SWAP4 PUSH2 0x104F SWAP6 ADD PUSH2 0x2E98 JUMP JUMPDEST PUSH1 0x20 DUP7 ADD MSTORE ADD PUSH2 0x3185 JUMP JUMPDEST PUSH1 0x40 DUP4 ADD MSTORE DUP6 PUSH1 0x20 DUP7 ADD MLOAD PUSH1 0x1 PUSH1 0x1 PUSH1 0x40 SHL SUB DUP2 GT PUSH2 0x4AE JUMPI DUP6 PUSH2 0x1074 SWAP2 DUP9 ADD PUSH2 0x3453 JUMP JUMPDEST SWAP2 PUSH1 0x40 DUP8 ADD MLOAD PUSH1 0x1 PUSH1 0x1 PUSH1 0x40 SHL SUB DUP2 GT PUSH2 0x4F0 JUMPI DUP8 ADD SWAP7 PUSH2 0x100 DUP9 DUP9 SUB SLT PUSH2 0x4F0 JUMPI PUSH1 0x40 MLOAD SWAP8 PUSH2 0x10A3 DUP10 PUSH2 0x2410 JUMP JUMPDEST DUP1 MLOAD PUSH1 0x1 PUSH1 0x1 PUSH1 0x40 SHL SUB DUP2 GT PUSH2 0x4B2 JUMPI DUP9 PUSH2 0x10BF SWAP2 DUP4 ADD PUSH2 0x2E98 JUMP JUMPDEST DUP10 MSTORE PUSH1 0x20 DUP2 ADD MLOAD PUSH1 0x1 PUSH1 0x1 PUSH1 0x40 SHL SUB DUP2 GT PUSH2 0x4B2 JUMPI DUP9 PUSH2 0x10E0 SWAP2 DUP4 ADD PUSH2 0x2E98 JUMP JUMPDEST PUSH1 0x20 DUP11 ADD MSTORE PUSH1 0x40 DUP2 ADD MLOAD PUSH1 0x1 PUSH1 0x1 PUSH1 0x40 SHL SUB DUP2 GT PUSH2 0x4B2 JUMPI DUP9 PUSH2 0x1104 SWAP2 DUP4 ADD PUSH2 0x2E98 JUMP JUMPDEST PUSH1 0x40 DUP11 ADD MSTORE PUSH1 0x60 DUP2 ADD MLOAD PUSH1 0x1 PUSH1 0x1 PUSH1 0x40 SHL SUB DUP2 GT PUSH2 0x4B2 JUMPI DUP9 PUSH2 0x1128 SWAP2 DUP4 ADD PUSH2 0x2E98 JUMP JUMPDEST PUSH1 0x60 DUP11 ADD MSTORE PUSH1 0x80 DUP2 ADD MLOAD PUSH1 0x1 PUSH1 0x1 PUSH1 0x40 SHL SUB DUP2 GT PUSH2 0x4B2 JUMPI DUP9 PUSH2 0x114C SWAP2 DUP4 ADD PUSH2 0x2E98 JUMP JUMPDEST PUSH1 0x80 DUP11 ADD MSTORE PUSH1 0xA0 DUP2 ADD MLOAD PUSH1 0x1 PUSH1 0x1 PUSH1 0x40 SHL SUB DUP2 GT PUSH2 0x4B2 JUMPI DUP9 PUSH2 0x1170 SWAP2 DUP4 ADD PUSH2 0x2E98 JUMP JUMPDEST PUSH1 0xA0 DUP11 ADD MSTORE PUSH1 0xC0 DUP2 ADD MLOAD PUSH1 0x1 PUSH1 0x1 PUSH1 0x40 SHL SUB DUP2 GT PUSH2 0x4B2 JUMPI DUP9 PUSH2 0x1194 SWAP2 DUP4 ADD PUSH2 0x2E98 JUMP JUMPDEST PUSH1 0xC0 DUP11 ADD MSTORE PUSH1 0xE0 DUP2 ADD MLOAD SWAP1 PUSH1 0x1 PUSH1 0x1 PUSH1 0x40 SHL SUB DUP3 GT PUSH2 0x4B2 JUMPI PUSH2 0x11B9 SWAP2 DUP10 SWAP2 ADD PUSH2 0x2E98 JUMP JUMPDEST PUSH1 0xE0 DUP10 ADD MSTORE PUSH1 0x60 DUP2 ADD MLOAD SWAP7 PUSH1 0x1 PUSH1 0x1 PUSH1 0x40 SHL SUB DUP9 GT PUSH2 0xA1C JUMPI PUSH2 0xED9 SWAP8 PUSH2 0x11E0 SWAP3 ADD PUSH2 0x33D5 JUMP JUMPDEST SWAP4 SWAP3 SWAP7 SWAP4 SWAP5 DUP8 SWAP7 POP PUSH2 0xEB0 JUMP JUMPDEST DUP8 DUP1 REVERT JUMPDEST DUP6 DUP1 REVERT JUMPDEST POP CALLVALUE PUSH2 0x1E6 JUMPI PUSH1 0x20 CALLDATASIZE PUSH1 0x3 NOT ADD SLT PUSH2 0x1E6 JUMPI PUSH1 0x4 CALLDATALOAD PUSH1 0x1 PUSH1 0x1 PUSH1 0x40 SHL SUB DUP2 GT PUSH2 0x4AE JUMPI PUSH2 0x1226 SWAP1 CALLDATASIZE SWAP1 PUSH1 0x4 ADD PUSH2 0x24BA JUMP JUMPDEST PUSH2 0x122E PUSH2 0x3330 JUMP JUMPDEST POP PUSH1 0x60 DUP1 PUSH1 0x40 MLOAD PUSH2 0x123E DUP2 PUSH2 0x23C6 JUMP JUMPDEST DUP2 DUP2 MSTORE DUP2 PUSH1 0x20 DUP3 ADD MSTORE DUP5 PUSH1 0x40 DUP3 ADD MSTORE ADD MSTORE PUSH2 0x1257 PUSH2 0x339D JUMP JUMPDEST POP PUSH2 0x1260 PUSH2 0x33BC JUMP JUMPDEST POP PUSH1 0x60 PUSH1 0xA0 PUSH1 0x40 MLOAD PUSH2 0x1271 DUP2 PUSH2 0x23F5 JUMP JUMPDEST DUP3 DUP2 MSTORE DUP3 PUSH1 0x20 DUP3 ADD MSTORE DUP3 PUSH1 0x40 DUP3 ADD MSTORE DUP3 DUP1 DUP3 ADD MSTORE DUP3 PUSH1 0x80 DUP3 ADD MSTORE ADD MSTORE PUSH1 0x1 DUP1 PUSH1 0xA0 SHL SUB PUSH32 0x0 AND PUSH1 0x40 MLOAD PUSH4 0x70C056B PUSH1 0xE4 SHL DUP2 MSTORE PUSH1 0x20 PUSH1 0x4 DUP3 ADD MSTORE DUP4 DUP2 DUP1 PUSH2 0x12DA PUSH1 0x24 DUP3 ADD DUP8 PUSH2 0x2583 JUMP JUMPDEST SUB DUP2 DUP6 GAS STATICCALL SWAP1 DUP2 ISZERO PUSH2 0x4E5 JUMPI DUP5 SWAP3 DUP6 DUP1 SWAP2 DUP2 SWAP4 DUP3 SWAP6 PUSH2 0x1402 JUMPI JUMPDEST POP SWAP6 PUSH2 0x131E SWAP6 SWAP7 PUSH1 0x40 MLOAD DUP1 DUP1 SWAP9 DUP2 SWAP5 PUSH4 0xBE2E2325 PUSH1 0xE0 SHL DUP4 MSTORE PUSH1 0x20 PUSH1 0x4 DUP5 ADD MSTORE PUSH1 0x24 DUP4 ADD SWAP1 PUSH2 0x2583 JUMP JUMPDEST SUB SWAP2 GAS STATICCALL SWAP4 DUP5 ISZERO PUSH2 0xFA9 JUMPI DUP7 PUSH2 0x135A SWAP8 SWAP6 PUSH2 0x13D4 JUMPI JUMPDEST POP POP SWAP1 PUSH2 0x13B8 PUSH2 0x13C6 SWAP3 PUSH2 0x13AA PUSH2 0x1B4 SWAP7 SWAP8 PUSH1 0x40 MLOAD SWAP10 DUP11 SWAP10 PUSH1 0xA0 DUP12 MSTORE PUSH1 0xA0 DUP12 ADD SWAP1 PUSH2 0x2C2B JUMP JUMPDEST DUP10 DUP2 SUB PUSH1 0x20 DUP12 ADD MSTORE PUSH1 0x60 PUSH2 0x138C PUSH2 0x137A DUP5 MLOAD PUSH1 0x80 DUP6 MSTORE PUSH1 0x80 DUP6 ADD SWAP1 PUSH2 0x2583 JUMP JUMPDEST PUSH1 0x20 DUP6 ADD MLOAD DUP5 DUP3 SUB PUSH1 0x20 DUP7 ADD MSTORE PUSH2 0x2583 JUMP JUMPDEST SWAP3 PUSH1 0xFF PUSH1 0x40 DUP3 ADD MLOAD AND PUSH1 0x40 DUP5 ADD MSTORE ADD MLOAD SWAP1 PUSH1 0x60 DUP2 DUP5 SUB SWAP2 ADD MSTORE PUSH2 0x2583 JUMP JUMPDEST SWAP1 DUP8 DUP3 SUB PUSH1 0x40 DUP10 ADD MSTORE PUSH2 0x2CE1 JUMP JUMPDEST SWAP1 DUP6 DUP3 SUB PUSH1 0x60 DUP8 ADD MSTORE PUSH2 0x2D0E JUMP JUMPDEST SWAP1 DUP4 DUP3 SUB PUSH1 0x80 DUP6 ADD MSTORE PUSH2 0x2D38 JUMP JUMPDEST PUSH2 0x1B4 SWAP6 POP SWAP2 PUSH2 0x13AA PUSH2 0x13F8 PUSH2 0x13B8 SWAP4 PUSH2 0x13C6 SWAP7 SWAP6 RETURNDATASIZE DUP1 SWAP2 DUP4 RETURNDATACOPY PUSH2 0xF98 DUP2 DUP4 PUSH2 0x247E JUMP JUMPDEST SWAP7 POP POP SWAP2 SWAP3 PUSH2 0x1334 JUMP JUMPDEST SWAP6 POP SWAP4 POP POP POP POP RETURNDATASIZE DUP1 DUP6 DUP5 RETURNDATACOPY PUSH2 0x1418 DUP2 DUP5 PUSH2 0x247E JUMP JUMPDEST DUP3 ADD SWAP2 PUSH1 0x80 DUP2 DUP5 SUB SLT PUSH2 0x4B2 JUMPI DUP1 MLOAD PUSH1 0x1 PUSH1 0x1 PUSH1 0x40 SHL SUB DUP2 GT PUSH2 0x11F1 JUMPI DUP2 ADD SWAP1 PUSH1 0x80 DUP3 DUP6 SUB SLT PUSH2 0x11F1 JUMPI PUSH1 0x40 MLOAD SWAP2 PUSH2 0x144F DUP4 PUSH2 0x23C6 JUMP JUMPDEST DUP1 MLOAD PUSH1 0x1 PUSH1 0x1 PUSH1 0x40 SHL SUB DUP2 GT PUSH2 0x11ED JUMPI DUP6 PUSH2 0x146B SWAP2 DUP4 ADD PUSH2 0x2E98 JUMP JUMPDEST DUP4 MSTORE PUSH1 0x20 DUP2 ADD MLOAD PUSH1 0x1 PUSH1 0x1 PUSH1 0x40 SHL SUB DUP2 GT PUSH2 0x11ED JUMPI DUP6 PUSH2 0x148C SWAP2 DUP4 ADD PUSH2 0x2E98 JUMP JUMPDEST PUSH1 0x20 DUP5 ADD MSTORE PUSH2 0x149D PUSH1 0x40 DUP3 ADD PUSH2 0x3185 JUMP JUMPDEST PUSH1 0x40 DUP5 ADD MSTORE PUSH1 0x60 DUP2 ADD MLOAD SWAP1 PUSH1 0x1 PUSH1 0x1 PUSH1 0x40 SHL SUB DUP3 GT PUSH2 0x11ED JUMPI PUSH2 0x14C2 SWAP2 DUP7 SWAP2 ADD PUSH2 0x2E98 JUMP JUMPDEST PUSH1 0x60 DUP4 ADD MSTORE DUP6 PUSH1 0x20 DUP3 ADD MLOAD PUSH1 0x1 PUSH1 0x1 PUSH1 0x40 SHL SUB DUP2 GT PUSH2 0x4AE JUMPI DUP6 PUSH2 0x14E7 SWAP2 DUP5 ADD PUSH2 0x33D5 JUMP JUMPDEST SWAP6 PUSH1 0x40 DUP4 ADD MLOAD PUSH1 0x1 PUSH1 0x1 PUSH1 0x40 SHL SUB DUP2 GT PUSH2 0x4F0 JUMPI DUP7 PUSH2 0x1507 SWAP2 DUP6 ADD PUSH2 0x3453 JUMP JUMPDEST SWAP3 PUSH1 0x60 DUP2 ADD MLOAD SWAP1 PUSH1 0x1 PUSH1 0x1 PUSH1 0x40 SHL SUB DUP3 GT PUSH2 0xA1C JUMPI ADD SWAP4 PUSH1 0xC0 DUP6 DUP9 SUB SLT PUSH2 0x4F0 JUMPI PUSH1 0x40 MLOAD SWAP5 PUSH2 0x1535 DUP7 PUSH2 0x23F5 JUMP JUMPDEST DUP1 MLOAD PUSH1 0x1 PUSH1 0x1 PUSH1 0x40 SHL SUB DUP2 GT PUSH2 0x4B2 JUMPI DUP9 PUSH2 0x1551 SWAP2 DUP4 ADD PUSH2 0x2E98 JUMP JUMPDEST DUP7 MSTORE PUSH1 0x20 DUP2 ADD MLOAD PUSH1 0x1 PUSH1 0x1 PUSH1 0x40 SHL SUB DUP2 GT PUSH2 0x4B2 JUMPI DUP9 PUSH2 0x1572 SWAP2 DUP4 ADD PUSH2 0x2E98 JUMP JUMPDEST PUSH1 0x20 DUP8 ADD MSTORE PUSH1 0x40 DUP2 ADD MLOAD PUSH1 0x1 PUSH1 0x1 PUSH1 0x40 SHL SUB DUP2 GT PUSH2 0x4B2 JUMPI DUP9 PUSH2 0x1596 SWAP2 DUP4 ADD PUSH2 0x2E98 JUMP JUMPDEST PUSH1 0x40 DUP8 ADD MSTORE PUSH1 0x60 DUP2 ADD MLOAD PUSH1 0x1 PUSH1 0x1 PUSH1 0x40 SHL SUB DUP2 GT PUSH2 0x4B2 JUMPI DUP9 PUSH2 0x15BA SWAP2 DUP4 ADD PUSH2 0x2E98 JUMP JUMPDEST PUSH1 0x60 DUP8 ADD MSTORE PUSH1 0x80 DUP2 ADD MLOAD PUSH1 0x1 PUSH1 0x1 PUSH1 0x40 SHL SUB DUP2 GT PUSH2 0x4B2 JUMPI DUP9 PUSH2 0x15DE SWAP2 DUP4 ADD PUSH2 0x2E98 JUMP JUMPDEST PUSH1 0x80 DUP8 ADD MSTORE PUSH1 0xA0 DUP2 ADD MLOAD SWAP8 PUSH1 0x1 PUSH1 0x1 PUSH1 0x40 SHL SUB DUP10 GT PUSH2 0x4B2 JUMPI PUSH2 0x131E SWAP9 PUSH2 0x1605 SWAP3 ADD PUSH2 0x2E98 JUMP JUMPDEST PUSH1 0xA0 DUP7 ADD MSTORE SWAP7 SWAP3 SWAP4 SWAP5 SWAP1 SWAP7 SWAP6 PUSH2 0x12F4 JUMP JUMPDEST POP CALLVALUE PUSH2 0x1E6 JUMPI PUSH1 0x40 CALLDATASIZE PUSH1 0x3 NOT ADD SLT PUSH2 0x1E6 JUMPI DUP1 PUSH1 0x4 CALLDATALOAD PUSH1 0x1 PUSH1 0x1 PUSH1 0x40 SHL SUB DUP2 GT PUSH2 0xB52 JUMPI PUSH2 0x1648 SWAP1 CALLDATASIZE SWAP1 PUSH1 0x4 ADD PUSH2 0x24BA JUMP JUMPDEST PUSH1 0x24 CALLDATALOAD PUSH1 0x1 PUSH1 0x1 PUSH1 0x40 SHL SUB DUP2 GT PUSH2 0xB50 JUMPI PUSH2 0x1667 SWAP1 CALLDATASIZE SWAP1 PUSH1 0x4 ADD PUSH2 0x2500 JUMP JUMPDEST PUSH1 0x40 MLOAD PUSH4 0x95A8C58D PUSH1 0xE0 SHL DUP2 MSTORE CALLER PUSH1 0x4 DUP3 ADD MSTORE PUSH1 0x1 PUSH1 0x24 DUP3 ADD MSTORE SWAP1 SWAP2 SWAP1 PUSH1 0x20 DUP2 PUSH1 0x44 DUP2 PUSH1 0x1 PUSH1 0x1 PUSH1 0xA0 SHL SUB PUSH32 0x0 AND GAS STATICCALL DUP1 ISZERO PUSH2 0x4E5 JUMPI PUSH2 0x16CC SWAP2 DUP6 SWAP2 PUSH2 0x659 JUMPI POP PUSH2 0x2E42 JUMP JUMPDEST PUSH2 0x16D4 PUSH2 0x3663 JUMP JUMPDEST PUSH32 0x0 PUSH1 0x1 PUSH1 0x1 PUSH1 0xA0 SHL SUB AND SWAP2 DUP3 EXTCODESIZE ISZERO PUSH2 0x7A8 JUMPI PUSH2 0x74B SWAP3 PUSH2 0x1735 DUP6 DUP1 SWAP5 PUSH1 0x40 MLOAD SWAP7 DUP8 SWAP6 DUP7 SWAP5 DUP6 SWAP4 PUSH4 0x69046DD3 PUSH1 0xE0 SHL DUP6 MSTORE PUSH1 0x40 PUSH1 0x4 DUP7 ADD MSTORE PUSH1 0x44 DUP6 ADD SWAP1 PUSH2 0x2583 JUMP JUMPDEST DUP4 DUP2 SUB PUSH1 0x3 NOT ADD PUSH1 0x24 DUP6 ADD MSTORE SWAP1 PUSH2 0x2CE1 JUMP JUMPDEST POP CALLVALUE PUSH2 0x1E6 JUMPI DUP1 PUSH1 0x3 NOT CALLDATASIZE ADD SLT PUSH2 0x1E6 JUMPI PUSH1 0x40 MLOAD PUSH4 0x1614181F PUSH1 0xE2 SHL DUP2 MSTORE DUP2 DUP2 PUSH1 0x4 DUP2 PUSH32 0x0 PUSH1 0x1 PUSH1 0x1 PUSH1 0xA0 SHL SUB AND GAS STATICCALL SWAP1 DUP2 ISZERO PUSH2 0x1DB JUMPI DUP3 PUSH2 0x1B4 SWAP4 SWAP3 PUSH2 0x1B8 JUMPI POP POP PUSH1 0x40 MLOAD SWAP2 DUP3 SWAP2 DUP3 PUSH2 0x2BA0 JUMP JUMPDEST POP CALLVALUE PUSH2 0x1E6 JUMPI PUSH1 0x20 CALLDATASIZE PUSH1 0x3 NOT ADD SLT PUSH2 0x1E6 JUMPI PUSH1 0x4 CALLDATALOAD DUP2 PUSH1 0x1 PUSH1 0x1 PUSH1 0x40 SHL SUB DUP3 GT PUSH2 0x1E6 JUMPI PUSH2 0x17EA PUSH2 0x180C SWAP3 CALLDATASIZE SWAP1 PUSH1 0x4 ADD PUSH2 0x24BA JUMP JUMPDEST PUSH1 0x40 MLOAD DUP1 SWAP4 DUP2 SWAP3 PUSH4 0x81FC60A5 PUSH1 0xE0 SHL DUP4 MSTORE PUSH1 0x20 PUSH1 0x4 DUP5 ADD MSTORE PUSH1 0x24 DUP4 ADD SWAP1 PUSH2 0x2583 JUMP JUMPDEST SUB DUP2 PUSH32 0x0 PUSH1 0x1 PUSH1 0x1 PUSH1 0xA0 SHL SUB AND GAS STATICCALL SWAP1 DUP2 ISZERO PUSH2 0x1DB JUMPI DUP3 PUSH2 0x1B4 SWAP4 SWAP3 PUSH2 0x1B8 JUMPI POP POP PUSH1 0x40 MLOAD SWAP2 DUP3 SWAP2 DUP3 PUSH2 0x2BA0 JUMP JUMPDEST POP CALLVALUE PUSH2 0x1E6 JUMPI PUSH2 0x1868 CALLDATASIZE PUSH2 0x285B JUMP JUMPDEST PUSH1 0x40 MLOAD PUSH4 0x95A8C58D PUSH1 0xE0 SHL DUP2 MSTORE CALLER PUSH1 0x4 DUP3 ADD MSTORE PUSH1 0x2 PUSH1 0x24 DUP3 ADD MSTORE SWAP2 SWAP3 SWAP2 PUSH1 0x20 DUP2 PUSH1 0x44 DUP2 PUSH1 0x1 PUSH1 0x1 PUSH1 0xA0 SHL SUB PUSH32 0x0 AND GAS STATICCALL DUP1 ISZERO PUSH2 0xDB0 JUMPI PUSH2 0x18CD SWAP2 DUP7 SWAP2 PUSH2 0x7AD JUMPI POP PUSH2 0x2F5A JUMP JUMPDEST PUSH2 0x18D5 PUSH2 0x3663 JUMP JUMPDEST DUP2 MLOAD PUSH1 0x20 DUP4 ADD MLOAD PUSH1 0x40 DUP5 ADD MLOAD PUSH1 0x60 DUP6 ADD DUP1 MLOAD PUSH1 0x80 DUP8 ADD MLOAD SWAP2 SWAP8 DUP10 SWAP6 SWAP2 SWAP5 PUSH1 0x1 PUSH1 0x1 PUSH1 0xA0 SHL SUB SWAP4 DUP5 AND SWAP5 SWAP4 PUSH32 0x0 AND SWAP3 SWAP1 SWAP2 SWAP1 DUP4 EXTCODESIZE ISZERO PUSH2 0x11ED JUMPI PUSH2 0x1951 DUP9 SWAP7 SWAP3 DUP8 SWAP4 PUSH1 0x40 MLOAD SWAP10 DUP11 SWAP9 DUP10 SWAP8 DUP9 SWAP7 PUSH4 0x173C921 PUSH1 0xE7 SHL DUP9 MSTORE PUSH1 0x4 DUP9 ADD PUSH2 0x2FDB JUMP JUMPDEST SUB SWAP3 GAS CALL DUP1 ISZERO PUSH2 0x1DB JUMPI PUSH2 0x199B JUMPI JUMPDEST POP POP PUSH2 0x48F PUSH32 0xC8C9CCC57AD2F7823680B448DD87B511B225EB0AC2E99E0AA88E7A26EBC6CBE5 SWAP4 MLOAD SWAP3 MLOAD SWAP3 PUSH1 0x40 MLOAD SWAP4 DUP5 SWAP4 TIMESTAMP SWAP3 CALLER SWAP1 DUP7 PUSH2 0x3047 JUMP JUMPDEST DUP2 PUSH2 0x19A5 SWAP2 PUSH2 0x247E JUMP JUMPDEST PUSH2 0xA1C JUMPI DUP4 PUSH0 PUSH2 0x1960 JUMP JUMPDEST POP CALLVALUE PUSH2 0x1E6 JUMPI PUSH1 0x60 CALLDATASIZE PUSH1 0x3 NOT ADD SLT PUSH2 0x1E6 JUMPI DUP1 PUSH1 0x4 CALLDATALOAD PUSH1 0x1 PUSH1 0x1 PUSH1 0x40 SHL SUB DUP2 GT PUSH2 0xB52 JUMPI PUSH2 0x19E2 SWAP1 CALLDATASIZE SWAP1 PUSH1 0x4 ADD PUSH2 0x24BA JUMP JUMPDEST PUSH1 0x44 CALLDATALOAD PUSH1 0x1 PUSH1 0x1 PUSH1 0x40 SHL SUB DUP2 GT PUSH2 0xB50 JUMPI PUSH2 0x1A01 SWAP1 CALLDATASIZE SWAP1 PUSH1 0x4 ADD PUSH2 0x2A17 JUMP JUMPDEST PUSH1 0x40 MLOAD PUSH4 0x95A8C58D PUSH1 0xE0 SHL DUP2 MSTORE CALLER PUSH1 0x4 DUP3 ADD MSTORE PUSH0 PUSH1 0x24 DUP3 ADD MSTORE SWAP1 SWAP2 SWAP1 PUSH1 0x20 DUP2 PUSH1 0x44 DUP2 PUSH1 0x1 PUSH1 0x1 PUSH1 0xA0 SHL SUB PUSH32 0x0 AND GAS STATICCALL DUP1 ISZERO PUSH2 0x4E5 JUMPI PUSH2 0x1A65 SWAP2 DUP6 SWAP2 PUSH2 0x4B6 JUMPI POP PUSH2 0x312B JUMP JUMPDEST PUSH2 0x1A6D PUSH2 0x3663 JUMP JUMPDEST PUSH32 0x0 PUSH1 0x1 PUSH1 0x1 PUSH1 0xA0 SHL SUB AND SWAP2 DUP3 EXTCODESIZE ISZERO PUSH2 0x7A8 JUMPI PUSH2 0x74B SWAP3 PUSH2 0x1ACE DUP6 DUP1 SWAP5 PUSH1 0x40 MLOAD SWAP7 DUP8 SWAP6 DUP7 SWAP5 DUP6 SWAP4 PUSH4 0x12B63C69 PUSH1 0xE2 SHL DUP6 MSTORE PUSH1 0x60 PUSH1 0x4 DUP7 ADD MSTORE PUSH1 0x64 DUP6 ADD SWAP1 PUSH2 0x2583 JUMP JUMPDEST SWAP1 PUSH1 0x24 CALLDATALOAD PUSH1 0x24 DUP6 ADD MSTORE PUSH1 0x3 NOT DUP5 DUP4 SUB ADD PUSH1 0x44 DUP6 ADD MSTORE PUSH2 0x2D38 JUMP JUMPDEST POP CALLVALUE PUSH2 0x1E6 JUMPI DUP1 PUSH2 0x1AF8 CALLDATASIZE PUSH2 0x297E JUMP JUMPDEST PUSH1 0x40 MLOAD PUSH4 0x95A8C58D PUSH1 0xE0 SHL DUP2 MSTORE CALLER PUSH1 0x4 DUP3 ADD MSTORE PUSH1 0x2 PUSH1 0x24 DUP3 ADD MSTORE SWAP4 SWAP6 SWAP2 SWAP5 SWAP1 SWAP4 SWAP2 SWAP3 SWAP1 SWAP2 PUSH1 0x20 DUP2 PUSH1 0x44 DUP2 PUSH1 0x1 PUSH1 0x1 PUSH1 0xA0 SHL SUB PUSH32 0x0 AND GAS STATICCALL DUP1 ISZERO PUSH2 0x4E5 JUMPI PUSH2 0x1B64 SWAP2 DUP6 SWAP2 PUSH2 0x7AD JUMPI POP PUSH2 0x2F5A JUMP JUMPDEST PUSH2 0x1B6C PUSH2 0x3663 JUMP JUMPDEST PUSH32 0x0 PUSH1 0x1 PUSH1 0x1 PUSH1 0xA0 SHL SUB AND SWAP1 DUP2 EXTCODESIZE ISZERO PUSH2 0xA1C JUMPI DUP4 SWAP2 DUP7 SWAP2 DUP4 DUP10 PUSH2 0x9C1 PUSH1 0x40 MLOAD SWAP8 DUP9 SWAP7 DUP8 SWAP6 DUP7 SWAP5 PUSH3 0x1ACF25 PUSH1 0xE8 SHL DUP7 MSTORE CALLER SWAP4 PUSH1 0x4 DUP8 ADD PUSH2 0x3088 JUMP JUMPDEST POP CALLVALUE PUSH2 0x1E6 JUMPI DUP1 PUSH2 0x1BD5 CALLDATASIZE PUSH2 0x2811 JUMP JUMPDEST PUSH1 0x40 MLOAD PUSH4 0x95A8C58D PUSH1 0xE0 SHL DUP2 MSTORE CALLER PUSH1 0x4 DUP3 ADD MSTORE PUSH1 0x2 PUSH1 0x24 DUP3 ADD MSTORE SWAP1 SWAP3 SWAP2 SWAP1 PUSH1 0x20 DUP2 PUSH1 0x44 DUP2 PUSH1 0x1 PUSH1 0x1 PUSH1 0xA0 SHL SUB PUSH32 0x0 AND GAS STATICCALL DUP1 ISZERO PUSH2 0x1CEF JUMPI PUSH2 0x1C3B SWAP2 DUP5 SWAP2 PUSH2 0x7AD JUMPI POP PUSH2 0x2F5A JUMP JUMPDEST PUSH2 0x1C43 PUSH2 0x3663 JUMP JUMPDEST PUSH32 0x0 PUSH1 0x1 PUSH1 0x1 PUSH1 0xA0 SHL SUB AND DUP1 EXTCODESIZE ISZERO PUSH2 0x4F0 JUMPI DUP4 DUP4 SWAP2 PUSH2 0x1C98 SWAP4 DUP4 PUSH1 0x40 MLOAD DUP1 SWAP7 DUP2 SWAP6 DUP3 SWAP5 PUSH4 0x3BB6FF3F PUSH1 0xE0 SHL DUP5 MSTORE PUSH1 0x4 DUP5 ADD PUSH2 0x25A7 JUMP JUMPDEST SUB SWAP3 GAS CALL DUP1 ISZERO PUSH2 0x1DB JUMPI PUSH2 0x1CDA JUMPI JUMPDEST POP PUSH1 0x40 MLOAD PUSH32 0x22C98A0F9900E3DB134C94B13AD7AA1F97D90FF9ED2330B80DAEDF57C6FB1708 SWAP1 DUP1 PUSH2 0x48F TIMESTAMP DUP7 CALLER DUP5 PUSH2 0x2FB1 JUMP JUMPDEST DUP2 PUSH2 0x1CE4 SWAP2 PUSH2 0x247E JUMP JUMPDEST PUSH2 0x4AE JUMPI DUP2 PUSH0 PUSH2 0x1CA7 JUMP JUMPDEST PUSH1 0x40 MLOAD RETURNDATASIZE DUP6 DUP3 RETURNDATACOPY RETURNDATASIZE SWAP1 REVERT JUMPDEST POP CALLVALUE PUSH2 0x1E6 JUMPI PUSH2 0x1D09 CALLDATASIZE PUSH2 0x285B JUMP JUMPDEST PUSH1 0x40 MLOAD PUSH4 0x95A8C58D PUSH1 0xE0 SHL DUP2 MSTORE CALLER PUSH1 0x4 DUP3 ADD MSTORE PUSH1 0x2 PUSH1 0x24 DUP3 ADD MSTORE SWAP2 SWAP3 SWAP2 PUSH1 0x20 DUP2 PUSH1 0x44 DUP2 PUSH1 0x1 PUSH1 0x1 PUSH1 0xA0 SHL SUB PUSH32 0x0 AND GAS STATICCALL DUP1 ISZERO PUSH2 0xDB0 JUMPI PUSH2 0x1D6E SWAP2 DUP7 SWAP2 PUSH2 0x7AD JUMPI POP PUSH2 0x2F5A JUMP JUMPDEST PUSH2 0x1D76 PUSH2 0x3663 JUMP JUMPDEST DUP2 MLOAD PUSH1 0x20 DUP4 ADD MLOAD PUSH1 0x40 DUP5 ADD MLOAD PUSH1 0x60 DUP6 ADD DUP1 MLOAD PUSH1 0x80 DUP8 ADD MLOAD SWAP2 SWAP8 DUP10 SWAP6 SWAP2 SWAP5 PUSH1 0x1 PUSH1 0x1 PUSH1 0xA0 SHL SUB SWAP4 DUP5 AND SWAP5 SWAP4 PUSH32 0x0 AND SWAP3 SWAP1 SWAP2 SWAP1 DUP4 EXTCODESIZE ISZERO PUSH2 0x11ED JUMPI PUSH2 0x1951 DUP9 SWAP7 SWAP3 DUP8 SWAP4 PUSH1 0x40 MLOAD SWAP10 DUP11 SWAP9 DUP10 SWAP8 DUP9 SWAP7 PUSH4 0x15C9FBF9 PUSH1 0xE1 SHL DUP9 MSTORE PUSH1 0x4 DUP9 ADD PUSH2 0x2FDB JUMP JUMPDEST POP CALLVALUE PUSH2 0x1E6 JUMPI DUP1 PUSH2 0x1E02 CALLDATASIZE PUSH2 0x2811 JUMP JUMPDEST PUSH1 0x40 MLOAD PUSH4 0x95A8C58D PUSH1 0xE0 SHL DUP2 MSTORE CALLER PUSH1 0x4 DUP3 ADD MSTORE PUSH1 0x2 PUSH1 0x24 DUP3 ADD MSTORE SWAP1 SWAP3 SWAP2 SWAP1 PUSH1 0x20 DUP2 PUSH1 0x44 DUP2 PUSH1 0x1 PUSH1 0x1 PUSH1 0xA0 SHL SUB PUSH32 0x0 AND GAS STATICCALL DUP1 ISZERO PUSH2 0x1CEF JUMPI PUSH2 0x1E68 SWAP2 DUP5 SWAP2 PUSH2 0x7AD JUMPI POP PUSH2 0x2F5A JUMP JUMPDEST PUSH2 0x1E70 PUSH2 0x3663 JUMP JUMPDEST PUSH32 0x0 PUSH1 0x1 PUSH1 0x1 PUSH1 0xA0 SHL SUB AND DUP1 EXTCODESIZE ISZERO PUSH2 0x4F0 JUMPI DUP4 DUP4 SWAP2 PUSH2 0x1C98 SWAP4 DUP4 PUSH1 0x40 MLOAD DUP1 SWAP7 DUP2 SWAP6 DUP3 SWAP5 PUSH4 0x252006AF PUSH1 0xE0 SHL DUP5 MSTORE PUSH1 0x4 DUP5 ADD PUSH2 0x25A7 JUMP JUMPDEST POP CALLVALUE PUSH2 0x1E6 JUMPI PUSH1 0x80 CALLDATASIZE PUSH1 0x3 NOT ADD SLT PUSH2 0x1E6 JUMPI PUSH1 0x4 CALLDATALOAD PUSH1 0x1 PUSH1 0x1 PUSH1 0x40 SHL SUB DUP2 GT PUSH2 0x4AE JUMPI PUSH2 0x1EF6 SWAP1 CALLDATASIZE SWAP1 PUSH1 0x4 ADD PUSH2 0x25E3 JUMP JUMPDEST PUSH2 0x1EFE PUSH2 0x2674 JUMP JUMPDEST DUP3 PUSH1 0x44 CALLDATALOAD PUSH1 0x1 PUSH1 0x1 PUSH1 0x40 SHL SUB DUP2 GT PUSH2 0x4AE JUMPI PUSH2 0x1F1E SWAP1 CALLDATASIZE SWAP1 PUSH1 0x4 ADD PUSH2 0x2684 JUMP JUMPDEST SWAP3 PUSH1 0x64 CALLDATALOAD PUSH1 0x1 PUSH1 0x1 PUSH1 0x40 SHL SUB DUP2 GT PUSH2 0x4F0 JUMPI PUSH2 0x1F3E SWAP1 CALLDATASIZE SWAP1 PUSH1 0x4 ADD PUSH2 0x26DE JUMP JUMPDEST PUSH1 0x40 MLOAD PUSH4 0x95A8C58D PUSH1 0xE0 SHL DUP2 MSTORE CALLER PUSH1 0x4 DUP3 ADD MSTORE PUSH1 0x1 PUSH1 0x24 DUP3 ADD MSTORE PUSH1 0x20 DUP2 PUSH1 0x44 DUP2 PUSH1 0x1 PUSH1 0x1 PUSH1 0xA0 SHL SUB PUSH32 0x0 AND GAS STATICCALL DUP1 ISZERO PUSH2 0x4E5 JUMPI PUSH2 0x1FA0 SWAP2 DUP6 SWAP2 PUSH2 0x659 JUMPI POP PUSH2 0x2E42 JUMP JUMPDEST PUSH2 0x1FA8 PUSH2 0x3663 JUMP JUMPDEST DUP2 MLOAD PUSH1 0x20 DUP4 ADD MLOAD PUSH1 0x40 DUP5 ADD DUP1 MLOAD PUSH1 0x60 SWAP1 SWAP6 ADD MLOAD SWAP1 SWAP8 PUSH1 0x1 PUSH1 0x1 PUSH1 0xA0 SHL SUB SWAP2 DUP3 AND SWAP6 SWAP4 PUSH32 0x0 SWAP1 SWAP3 AND SWAP3 SWAP2 DUP4 EXTCODESIZE ISZERO PUSH2 0x11ED JUMPI DUP8 SWAP6 DUP7 SWAP3 PUSH1 0x40 MLOAD SWAP9 DUP10 SWAP8 DUP9 SWAP7 DUP8 SWAP6 PUSH4 0x682053D9 PUSH1 0xE0 SHL DUP8 MSTORE PUSH1 0x4 DUP8 ADD PUSH1 0xE0 SWAP1 MSTORE PUSH1 0xE4 DUP8 ADD PUSH2 0x2024 SWAP2 PUSH2 0x2583 JUMP JUMPDEST DUP7 DUP2 SUB PUSH1 0x3 NOT ADD PUSH1 0x24 DUP9 ADD MSTORE PUSH2 0x2039 SWAP2 PUSH2 0x2583 JUMP JUMPDEST DUP6 DUP2 SUB PUSH1 0x3 NOT ADD PUSH1 0x44 DUP8 ADD MSTORE PUSH2 0x204E SWAP2 PUSH2 0x2583 JUMP JUMPDEST SWAP1 PUSH1 0x64 DUP6 ADD MSTORE PUSH1 0xFF DUP13 AND PUSH1 0x84 DUP6 ADD MSTORE PUSH1 0x3 NOT DUP5 DUP3 SUB ADD PUSH1 0xA4 DUP6 ADD MSTORE PUSH2 0x2072 SWAP2 PUSH2 0x2D0E JUMP JUMPDEST DUP3 DUP2 SUB PUSH1 0x3 NOT ADD PUSH1 0xC4 DUP5 ADD MSTORE PUSH2 0xD4F SWAP2 PUSH2 0x2D92 JUMP JUMPDEST POP CALLVALUE PUSH2 0x1E6 JUMPI PUSH1 0x20 CALLDATASIZE PUSH1 0x3 NOT ADD SLT PUSH2 0x1E6 JUMPI PUSH1 0x4 CALLDATALOAD PUSH1 0x1 PUSH1 0x1 PUSH1 0x40 SHL SUB DUP2 GT PUSH2 0x4AE JUMPI SWAP1 DUP1 PUSH2 0x20BD PUSH2 0x20DF SWAP4 CALLDATASIZE SWAP1 PUSH1 0x4 ADD PUSH2 0x24BA JUMP JUMPDEST PUSH1 0x40 MLOAD DUP1 SWAP5 DUP2 SWAP3 PUSH4 0x6D1AA7D5 PUSH1 0xE0 SHL DUP4 MSTORE PUSH1 0x20 PUSH1 0x4 DUP5 ADD MSTORE PUSH1 0x24 DUP4 ADD SWAP1 PUSH2 0x2583 JUMP JUMPDEST SUB DUP2 PUSH32 0x0 PUSH1 0x1 PUSH1 0x1 PUSH1 0xA0 SHL SUB AND GAS STATICCALL SWAP2 DUP3 ISZERO PUSH2 0x2154 JUMPI DUP2 DUP1 SWAP4 PUSH2 0x212D JUMPI JUMPDEST POP POP PUSH2 0x1B4 PUSH1 0x40 MLOAD SWAP3 DUP4 SWAP3 DUP4 PUSH2 0x25A7 JUMP JUMPDEST SWAP1 SWAP2 POP PUSH2 0x214C SWAP3 POP RETURNDATASIZE DUP1 SWAP2 DUP4 RETURNDATACOPY PUSH2 0x2144 DUP2 DUP4 PUSH2 0x247E JUMP JUMPDEST DUP2 ADD SWAP1 PUSH2 0x2EDE JUMP JUMPDEST SWAP1 PUSH0 DUP1 PUSH2 0x211C JUMP JUMPDEST POP PUSH1 0x40 MLOAD SWAP1 RETURNDATASIZE SWAP1 DUP3 RETURNDATACOPY RETURNDATASIZE SWAP1 REVERT JUMPDEST POP CALLVALUE PUSH2 0x1E6 JUMPI PUSH1 0x20 CALLDATASIZE PUSH1 0x3 NOT ADD SLT PUSH2 0x1E6 JUMPI PUSH1 0x4 CALLDATALOAD PUSH1 0x1 PUSH1 0x1 PUSH1 0x40 SHL SUB DUP2 GT PUSH2 0x4AE JUMPI SWAP1 DUP1 PUSH2 0x20BD PUSH2 0x2197 SWAP4 CALLDATASIZE SWAP1 PUSH1 0x4 ADD PUSH2 0x24BA JUMP JUMPDEST SUB DUP2 PUSH32 0x0 PUSH1 0x1 PUSH1 0x1 PUSH1 0xA0 SHL SUB AND GAS STATICCALL SWAP2 DUP3 ISZERO PUSH2 0x2154 JUMPI DUP2 DUP1 SWAP4 PUSH2 0x212D JUMPI POP POP PUSH2 0x1B4 PUSH1 0x40 MLOAD SWAP3 DUP4 SWAP3 DUP4 PUSH2 0x25A7 JUMP JUMPDEST POP CALLVALUE PUSH2 0x2381 JUMPI PUSH1 0x60 CALLDATASIZE PUSH1 0x3 NOT ADD SLT PUSH2 0x2381 JUMPI PUSH1 0x4 CALLDATALOAD PUSH1 0x1 PUSH1 0x1 PUSH1 0x40 SHL SUB DUP2 GT PUSH2 0x2381 JUMPI PUSH2 0x2215 SWAP1 CALLDATASIZE SWAP1 PUSH1 0x4 ADD PUSH2 0x24BA JUMP JUMPDEST PUSH1 0x44 CALLDATALOAD PUSH1 0x1 PUSH1 0x1 PUSH1 0x40 SHL SUB DUP2 GT PUSH2 0x2381 JUMPI PUSH2 0x2234 SWAP1 CALLDATASIZE SWAP1 PUSH1 0x4 ADD PUSH2 0x2500 JUMP JUMPDEST PUSH1 0x40 MLOAD PUSH4 0x95A8C58D PUSH1 0xE0 SHL DUP2 MSTORE CALLER PUSH1 0x4 DUP3 ADD MSTORE PUSH1 0x1 PUSH1 0x24 DUP3 ADD MSTORE SWAP1 SWAP2 SWAP1 PUSH1 0x20 DUP2 PUSH1 0x44 DUP2 PUSH1 0x1 PUSH1 0x1 PUSH1 0xA0 SHL SUB PUSH32 0x0 AND GAS STATICCALL DUP1 ISZERO PUSH2 0x2376 JUMPI PUSH2 0x2299 SWAP2 PUSH0 SWAP2 PUSH2 0x659 JUMPI POP PUSH2 0x2E42 JUMP JUMPDEST PUSH2 0x22A1 PUSH2 0x3663 JUMP JUMPDEST PUSH32 0x0 PUSH1 0x1 PUSH1 0x1 PUSH1 0xA0 SHL SUB AND SWAP2 DUP3 EXTCODESIZE ISZERO PUSH2 0x2381 JUMPI PUSH2 0x231C SWAP3 PUSH2 0x2302 PUSH0 DUP1 SWAP5 PUSH1 0x40 MLOAD SWAP7 DUP8 SWAP6 DUP7 SWAP5 DUP6 SWAP4 PUSH4 0x7B11C0B PUSH1 0xE0 SHL DUP6 MSTORE PUSH1 0x60 PUSH1 0x4 DUP7 ADD MSTORE PUSH1 0x64 DUP6 ADD SWAP1 PUSH2 0x2583 JUMP JUMPDEST SWAP1 PUSH1 0x24 CALLDATALOAD PUSH1 0x24 DUP6 ADD MSTORE PUSH1 0x3 NOT DUP5 DUP4 SUB ADD PUSH1 0x44 DUP6 ADD MSTORE PUSH2 0x2CE1 JUMP JUMPDEST SUB SWAP3 GAS CALL DUP1 ISZERO PUSH2 0x2376 JUMPI PUSH2 0x2363 JUMPI POP PUSH1 0x40 DUP1 MLOAD CALLER DUP2 MSTORE TIMESTAMP PUSH1 0x20 DUP3 ADD MSTORE PUSH32 0x80DE2BA789F34A9F5F409D6572F1528526684B7C6D144F87B8F0BAB593656B76 SWAP2 DUP2 SWAP1 DUP2 ADD PUSH2 0x48F JUMP JUMPDEST PUSH2 0x236F SWAP2 POP PUSH0 SWAP1 PUSH2 0x247E JUMP JUMPDEST PUSH0 PUSH0 PUSH2 0x75A JUMP JUMPDEST PUSH1 0x40 MLOAD RETURNDATASIZE PUSH0 DUP3 RETURNDATACOPY RETURNDATASIZE SWAP1 REVERT JUMPDEST PUSH0 DUP1 REVERT JUMPDEST CALLVALUE PUSH2 0x2381 JUMPI PUSH0 CALLDATASIZE PUSH1 0x3 NOT ADD SLT PUSH2 0x2381 JUMPI PUSH32 0x0 PUSH1 0x1 PUSH1 0x1 PUSH1 0xA0 SHL SUB AND DUP2 MSTORE PUSH1 0x20 SWAP1 RETURN JUMPDEST PUSH1 0x80 DUP2 ADD SWAP1 DUP2 LT PUSH1 0x1 PUSH1 0x1 PUSH1 0x40 SHL SUB DUP3 GT OR PUSH2 0x23E1 JUMPI PUSH1 0x40 MSTORE JUMP JUMPDEST PUSH4 0x4E487B71 PUSH1 0xE0 SHL PUSH0 MSTORE PUSH1 0x41 PUSH1 0x4 MSTORE PUSH1 0x24 PUSH0 REVERT JUMPDEST PUSH1 0xC0 DUP2 ADD SWAP1 DUP2 LT PUSH1 0x1 PUSH1 0x1 PUSH1 0x40 SHL SUB DUP3 GT OR PUSH2 0x23E1 JUMPI PUSH1 0x40 MSTORE JUMP JUMPDEST PUSH2 0x100 DUP2 ADD SWAP1 DUP2 LT PUSH1 0x1 PUSH1 0x1 PUSH1 0x40 SHL SUB DUP3 GT OR PUSH2 0x23E1 JUMPI PUSH1 0x40 MSTORE JUMP JUMPDEST PUSH1 0x60 DUP2 ADD SWAP1 DUP2 LT PUSH1 0x1 PUSH1 0x1 PUSH1 0x40 SHL SUB DUP3 GT OR PUSH2 0x23E1 JUMPI PUSH1 0x40 MSTORE JUMP JUMPDEST PUSH1 0x40 DUP2 ADD SWAP1 DUP2 LT PUSH1 0x1 PUSH1 0x1 PUSH1 0x40 SHL SUB DUP3 GT OR PUSH2 0x23E1 JUMPI PUSH1 0x40 MSTORE JUMP JUMPDEST PUSH2 0x1A0 DUP2 ADD SWAP1 DUP2 LT PUSH1 0x1 PUSH1 0x1 PUSH1 0x40 SHL SUB DUP3 GT OR PUSH2 0x23E1 JUMPI PUSH1 0x40 MSTORE JUMP JUMPDEST SWAP1 PUSH1 0x1F DUP1 NOT SWAP2 ADD AND DUP2 ADD SWAP1 DUP2 LT PUSH1 0x1 PUSH1 0x1 PUSH1 0x40 SHL SUB DUP3 GT OR PUSH2 0x23E1 JUMPI PUSH1 0x40 MSTORE JUMP JUMPDEST PUSH1 0x1 PUSH1 0x1 PUSH1 0x40 SHL SUB DUP2 GT PUSH2 0x23E1 JUMPI PUSH1 0x1F ADD PUSH1 0x1F NOT AND PUSH1 0x20 ADD SWAP1 JUMP JUMPDEST DUP2 PUSH1 0x1F DUP3 ADD SLT ISZERO PUSH2 0x2381 JUMPI DUP1 CALLDATALOAD SWAP1 PUSH2 0x24D1 DUP3 PUSH2 0x249F JUMP JUMPDEST SWAP3 PUSH2 0x24DF PUSH1 0x40 MLOAD SWAP5 DUP6 PUSH2 0x247E JUMP JUMPDEST DUP3 DUP5 MSTORE PUSH1 0x20 DUP4 DUP4 ADD ADD GT PUSH2 0x2381 JUMPI DUP2 PUSH0 SWAP3 PUSH1 0x20 DUP1 SWAP4 ADD DUP4 DUP7 ADD CALLDATACOPY DUP4 ADD ADD MSTORE SWAP1 JUMP JUMPDEST SWAP2 SWAP1 PUSH1 0x60 DUP4 DUP3 SUB SLT PUSH2 0x2381 JUMPI PUSH1 0x40 MLOAD SWAP1 PUSH2 0x2519 DUP3 PUSH2 0x242C JUMP JUMPDEST DUP2 SWAP4 DUP1 CALLDATALOAD PUSH1 0x1 PUSH1 0x1 PUSH1 0x40 SHL SUB DUP2 GT PUSH2 0x2381 JUMPI DUP3 PUSH2 0x2537 SWAP2 DUP4 ADD PUSH2 0x24BA JUMP JUMPDEST DUP4 MSTORE PUSH1 0x20 DUP2 ADD CALLDATALOAD PUSH1 0x1 PUSH1 0x1 PUSH1 0x40 SHL SUB DUP2 GT PUSH2 0x2381 JUMPI DUP3 PUSH2 0x2558 SWAP2 DUP4 ADD PUSH2 0x24BA JUMP JUMPDEST PUSH1 0x20 DUP5 ADD MSTORE PUSH1 0x40 DUP2 ADD CALLDATALOAD SWAP2 PUSH1 0x1 PUSH1 0x1 PUSH1 0x40 SHL SUB DUP4 GT PUSH2 0x2381 JUMPI PUSH1 0x40 SWAP3 PUSH2 0x257E SWAP3 ADD PUSH2 0x24BA JUMP JUMPDEST SWAP2 ADD MSTORE JUMP JUMPDEST DUP1 MLOAD DUP1 DUP4 MSTORE PUSH1 0x20 SWAP3 SWAP2 DUP2 SWAP1 DUP5 ADD DUP5 DUP5 ADD MCOPY PUSH0 DUP3 DUP3 ADD DUP5 ADD MSTORE PUSH1 0x1F ADD PUSH1 0x1F NOT AND ADD ADD SWAP1 JUMP JUMPDEST SWAP1 SWAP2 PUSH2 0x25BE PUSH2 0x25CC SWAP4 PUSH1 0x40 DUP5 MSTORE PUSH1 0x40 DUP5 ADD SWAP1 PUSH2 0x2583 JUMP JUMPDEST SWAP2 PUSH1 0x20 DUP2 DUP5 SUB SWAP2 ADD MSTORE PUSH2 0x2583 JUMP JUMPDEST SWAP1 JUMP JUMPDEST CALLDATALOAD SWAP1 PUSH1 0x1 PUSH1 0x1 PUSH1 0xA0 SHL SUB DUP3 AND DUP3 SUB PUSH2 0x2381 JUMPI JUMP JUMPDEST SWAP2 SWAP1 SWAP2 PUSH1 0x80 DUP2 DUP5 SUB SLT PUSH2 0x2381 JUMPI PUSH1 0x40 MLOAD SWAP1 PUSH2 0x25FD DUP3 PUSH2 0x23C6 JUMP JUMPDEST DUP2 SWAP4 DUP2 CALLDATALOAD PUSH1 0x1 PUSH1 0x1 PUSH1 0x40 SHL SUB DUP2 GT PUSH2 0x2381 JUMPI DUP2 PUSH2 0x261B SWAP2 DUP5 ADD PUSH2 0x24BA JUMP JUMPDEST DUP4 MSTORE PUSH1 0x20 DUP3 ADD CALLDATALOAD PUSH1 0x1 PUSH1 0x1 PUSH1 0x40 SHL SUB DUP2 GT PUSH2 0x2381 JUMPI DUP2 PUSH2 0x263C SWAP2 DUP5 ADD PUSH2 0x24BA JUMP JUMPDEST PUSH1 0x20 DUP5 ADD MSTORE PUSH1 0x40 DUP3 ADD CALLDATALOAD SWAP1 PUSH1 0x1 PUSH1 0x1 PUSH1 0x40 SHL SUB DUP3 GT PUSH2 0x2381 JUMPI DUP3 PUSH2 0x2669 PUSH1 0x60 SWAP5 SWAP3 PUSH2 0x257E SWAP5 DUP7 SWAP5 ADD PUSH2 0x24BA JUMP JUMPDEST PUSH1 0x40 DUP7 ADD MSTORE ADD PUSH2 0x25CF JUMP JUMPDEST PUSH1 0x24 CALLDATALOAD SWAP1 PUSH1 0xFF DUP3 AND DUP3 SUB PUSH2 0x2381 JUMPI JUMP JUMPDEST SWAP2 SWAP1 PUSH1 0x40 DUP4 DUP3 SUB SLT PUSH2 0x2381 JUMPI PUSH1 0x40 MLOAD SWAP1 PUSH2 0x269D DUP3 PUSH2 0x2447 JUMP JUMPDEST DUP2 SWAP4 DUP1 CALLDATALOAD PUSH1 0x1 PUSH1 0x1 PUSH1 0x40 SHL SUB DUP2 GT PUSH2 0x2381 JUMPI DUP3 PUSH2 0x26BB SWAP2 DUP4 ADD PUSH2 0x24BA JUMP JUMPDEST DUP4 MSTORE PUSH1 0x20 DUP2 ADD CALLDATALOAD SWAP2 PUSH1 0x1 PUSH1 0x1 PUSH1 0x40 SHL SUB DUP4 GT PUSH2 0x2381 JUMPI PUSH1 0x20 SWAP3 PUSH2 0x257E SWAP3 ADD PUSH2 0x24BA JUMP JUMPDEST SWAP2 SWAP1 PUSH2 0x100 DUP4 DUP3 SUB SLT PUSH2 0x2381 JUMPI PUSH1 0x40 MLOAD SWAP1 PUSH2 0x26F8 DUP3 PUSH2 0x2410 JUMP JUMPDEST DUP2 SWAP4 DUP1 CALLDATALOAD PUSH1 0x1 PUSH1 0x1 PUSH1 0x40 SHL SUB DUP2 GT PUSH2 0x2381 JUMPI DUP3 PUSH2 0x2716 SWAP2 DUP4 ADD PUSH2 0x24BA JUMP JUMPDEST DUP4 MSTORE PUSH1 0x20 DUP2 ADD CALLDATALOAD PUSH1 0x1 PUSH1 0x1 PUSH1 0x40 SHL SUB DUP2 GT PUSH2 0x2381 JUMPI DUP3 PUSH2 0x2737 SWAP2 DUP4 ADD PUSH2 0x24BA JUMP JUMPDEST PUSH1 0x20 DUP5 ADD MSTORE PUSH1 0x40 DUP2 ADD CALLDATALOAD PUSH1 0x1 PUSH1 0x1 PUSH1 0x40 SHL SUB DUP2 GT PUSH2 0x2381 JUMPI DUP3 PUSH2 0x275B SWAP2 DUP4 ADD PUSH2 0x24BA JUMP JUMPDEST PUSH1 0x40 DUP5 ADD MSTORE PUSH1 0x60 DUP2 ADD CALLDATALOAD PUSH1 0x1 PUSH1 0x1 PUSH1 0x40 SHL SUB DUP2 GT PUSH2 0x2381 JUMPI DUP3 PUSH2 0x277F SWAP2 DUP4 ADD PUSH2 0x24BA JUMP JUMPDEST PUSH1 0x60 DUP5 ADD MSTORE PUSH1 0x80 DUP2 ADD CALLDATALOAD PUSH1 0x1 PUSH1 0x1 PUSH1 0x40 SHL SUB DUP2 GT PUSH2 0x2381 JUMPI DUP3 PUSH2 0x27A3 SWAP2 DUP4 ADD PUSH2 0x24BA JUMP JUMPDEST PUSH1 0x80 DUP5 ADD MSTORE PUSH1 0xA0 DUP2 ADD CALLDATALOAD PUSH1 0x1 PUSH1 0x1 PUSH1 0x40 SHL SUB DUP2 GT PUSH2 0x2381 JUMPI DUP3 PUSH2 0x27C7 SWAP2 DUP4 ADD PUSH2 0x24BA JUMP JUMPDEST PUSH1 0xA0 DUP5 ADD MSTORE PUSH1 0xC0 DUP2 ADD CALLDATALOAD PUSH1 0x1 PUSH1 0x1 PUSH1 0x40 SHL SUB DUP2 GT PUSH2 0x2381 JUMPI DUP3 PUSH2 0x27EB SWAP2 DUP4 ADD PUSH2 0x24BA JUMP JUMPDEST PUSH1 0xC0 DUP5 ADD MSTORE PUSH1 0xE0 DUP2 ADD CALLDATALOAD SWAP2 PUSH1 0x1 PUSH1 0x1 PUSH1 0x40 SHL SUB DUP4 GT PUSH2 0x2381 JUMPI PUSH1 0xE0 SWAP3 PUSH2 0x257E SWAP3 ADD PUSH2 0x24BA JUMP JUMPDEST SWAP1 PUSH1 0x40 PUSH1 0x3 NOT DUP4 ADD SLT PUSH2 0x2381 JUMPI PUSH1 0x4 CALLDATALOAD PUSH1 0x1 PUSH1 0x1 PUSH1 0x40 SHL SUB DUP2 GT PUSH2 0x2381 JUMPI DUP3 PUSH2 0x283C SWAP2 PUSH1 0x4 ADD PUSH2 0x24BA JUMP JUMPDEST SWAP2 PUSH1 0x24 CALLDATALOAD SWAP1 PUSH1 0x1 PUSH1 0x1 PUSH1 0x40 SHL SUB DUP3 GT PUSH2 0x2381 JUMPI PUSH2 0x25CC SWAP2 PUSH1 0x4 ADD PUSH2 0x24BA JUMP JUMPDEST SWAP1 PUSH1 0x60 PUSH1 0x3 NOT DUP4 ADD SLT PUSH2 0x2381 JUMPI PUSH1 0x4 CALLDATALOAD PUSH1 0x1 PUSH1 0x1 PUSH1 0x40 SHL SUB DUP2 GT PUSH2 0x2381 JUMPI PUSH1 0xA0 DUP2 DUP5 SUB PUSH1 0x3 NOT ADD SLT PUSH2 0x2381 JUMPI PUSH1 0x40 MLOAD SWAP1 PUSH1 0xA0 DUP3 ADD DUP3 DUP2 LT PUSH1 0x1 PUSH1 0x1 PUSH1 0x40 SHL SUB DUP3 GT OR PUSH2 0x23E1 JUMPI PUSH1 0x40 MSTORE DUP1 PUSH1 0x4 ADD CALLDATALOAD PUSH1 0x1 PUSH1 0x1 PUSH1 0x40 SHL SUB DUP2 GT PUSH2 0x2381 JUMPI DUP5 PUSH1 0x4 PUSH2 0x28C6 SWAP3 DUP5 ADD ADD PUSH2 0x24BA JUMP JUMPDEST DUP3 MSTORE PUSH1 0x24 DUP2 ADD CALLDATALOAD PUSH1 0x1 PUSH1 0x1 PUSH1 0x40 SHL SUB DUP2 GT PUSH2 0x2381 JUMPI DUP5 PUSH1 0x4 PUSH2 0x28EA SWAP3 DUP5 ADD ADD PUSH2 0x24BA JUMP JUMPDEST PUSH1 0x20 DUP4 ADD MSTORE PUSH1 0x44 DUP2 ADD CALLDATALOAD PUSH1 0x1 PUSH1 0x1 PUSH1 0x40 SHL SUB DUP2 GT PUSH2 0x2381 JUMPI DUP5 PUSH1 0x4 PUSH2 0x2911 SWAP3 DUP5 ADD ADD PUSH2 0x24BA JUMP JUMPDEST PUSH1 0x40 DUP4 ADD MSTORE PUSH1 0x64 DUP2 ADD CALLDATALOAD PUSH1 0x1 PUSH1 0x1 PUSH1 0x40 SHL SUB DUP2 GT PUSH2 0x2381 JUMPI DUP2 PUSH2 0x293E DUP7 PUSH1 0x4 PUSH1 0x84 SWAP5 PUSH2 0x2949 SWAP7 ADD ADD PUSH2 0x24BA JUMP JUMPDEST PUSH1 0x60 DUP6 ADD MSTORE ADD PUSH2 0x25CF JUMP JUMPDEST PUSH1 0x80 DUP3 ADD MSTORE SWAP2 PUSH1 0x24 CALLDATALOAD SWAP1 PUSH1 0x1 PUSH1 0x1 PUSH1 0x40 SHL SUB DUP3 GT PUSH2 0x2381 JUMPI PUSH2 0x296D SWAP2 PUSH1 0x4 ADD PUSH2 0x24BA JUMP JUMPDEST SWAP1 PUSH1 0x44 CALLDATALOAD PUSH1 0xFF DUP2 AND DUP2 SUB PUSH2 0x2381 JUMPI SWAP1 JUMP JUMPDEST SWAP1 PUSH1 0xA0 PUSH1 0x3 NOT DUP4 ADD SLT PUSH2 0x2381 JUMPI PUSH1 0x4 CALLDATALOAD PUSH1 0x1 PUSH1 0x1 PUSH1 0x40 SHL SUB DUP2 GT PUSH2 0x2381 JUMPI DUP3 PUSH2 0x29A9 SWAP2 PUSH1 0x4 ADD PUSH2 0x24BA JUMP JUMPDEST SWAP2 PUSH1 0x24 CALLDATALOAD PUSH1 0x1 PUSH1 0x1 PUSH1 0x40 SHL SUB DUP2 GT PUSH2 0x2381 JUMPI DUP2 PUSH2 0x29C8 SWAP2 PUSH1 0x4 ADD PUSH2 0x24BA JUMP JUMPDEST SWAP2 PUSH1 0x44 CALLDATALOAD PUSH1 0x1 PUSH1 0x1 PUSH1 0x40 SHL SUB DUP2 GT PUSH2 0x2381 JUMPI DUP3 PUSH2 0x29E7 SWAP2 PUSH1 0x4 ADD PUSH2 0x24BA JUMP JUMPDEST SWAP2 PUSH1 0x64 CALLDATALOAD SWAP1 PUSH1 0x1 PUSH1 0x1 PUSH1 0x40 SHL SUB DUP3 GT PUSH2 0x2381 JUMPI PUSH2 0x2A06 SWAP2 PUSH1 0x4 ADD PUSH2 0x24BA JUMP JUMPDEST SWAP1 PUSH1 0x84 CALLDATALOAD PUSH1 0xFF DUP2 AND DUP2 SUB PUSH2 0x2381 JUMPI SWAP1 JUMP JUMPDEST SWAP2 SWAP1 PUSH1 0xC0 DUP4 DUP3 SUB SLT PUSH2 0x2381 JUMPI PUSH1 0x40 MLOAD SWAP1 PUSH2 0x2A30 DUP3 PUSH2 0x23F5 JUMP JUMPDEST DUP2 SWAP4 DUP1 CALLDATALOAD PUSH1 0x1 PUSH1 0x1 PUSH1 0x40 SHL SUB DUP2 GT PUSH2 0x2381 JUMPI DUP3 PUSH2 0x2A4E SWAP2 DUP4 ADD PUSH2 0x24BA JUMP JUMPDEST DUP4 MSTORE PUSH1 0x20 DUP2 ADD CALLDATALOAD PUSH1 0x1 PUSH1 0x1 PUSH1 0x40 SHL SUB DUP2 GT PUSH2 0x2381 JUMPI DUP3 PUSH2 0x2A6F SWAP2 DUP4 ADD PUSH2 0x24BA JUMP JUMPDEST PUSH1 0x20 DUP5 ADD MSTORE PUSH1 0x40 DUP2 ADD CALLDATALOAD PUSH1 0x1 PUSH1 0x1 PUSH1 0x40 SHL SUB DUP2 GT PUSH2 0x2381 JUMPI DUP3 PUSH2 0x2A93 SWAP2 DUP4 ADD PUSH2 0x24BA JUMP JUMPDEST PUSH1 0x40 DUP5 ADD MSTORE PUSH1 0x60 DUP2 ADD CALLDATALOAD PUSH1 0x1 PUSH1 0x1 PUSH1 0x40 SHL SUB DUP2 GT PUSH2 0x2381 JUMPI DUP3 PUSH2 0x2AB7 SWAP2 DUP4 ADD PUSH2 0x24BA JUMP JUMPDEST PUSH1 0x60 DUP5 ADD MSTORE PUSH1 0x80 DUP2 ADD CALLDATALOAD PUSH1 0x1 PUSH1 0x1 PUSH1 0x40 SHL SUB DUP2 GT PUSH2 0x2381 JUMPI DUP3 PUSH2 0x2ADB SWAP2 DUP4 ADD PUSH2 0x24BA JUMP JUMPDEST PUSH1 0x80 DUP5 ADD MSTORE PUSH1 0xA0 DUP2 ADD CALLDATALOAD SWAP2 PUSH1 0x1 PUSH1 0x1 PUSH1 0x40 SHL SUB DUP4 GT PUSH2 0x2381 JUMPI PUSH1 0xA0 SWAP3 PUSH2 0x257E SWAP3 ADD PUSH2 0x24BA JUMP JUMPDEST SWAP1 PUSH1 0x9 DUP3 LT ISZERO PUSH2 0x2B0E JUMPI MSTORE JUMP JUMPDEST PUSH4 0x4E487B71 PUSH1 0xE0 SHL PUSH0 MSTORE PUSH1 0x21 PUSH1 0x4 MSTORE PUSH1 0x24 PUSH0 REVERT JUMPDEST SWAP1 PUSH1 0xC0 DUP1 PUSH2 0x2B97 PUSH2 0x2B66 PUSH2 0x2B54 PUSH2 0x2B42 DUP8 MLOAD PUSH1 0xE0 DUP9 MSTORE PUSH1 0xE0 DUP9 ADD SWAP1 PUSH2 0x2583 JUMP JUMPDEST PUSH1 0x20 DUP9 ADD MLOAD DUP8 DUP3 SUB PUSH1 0x20 DUP10 ADD MSTORE PUSH2 0x2583 JUMP JUMPDEST PUSH1 0x40 DUP8 ADD MLOAD DUP7 DUP3 SUB PUSH1 0x40 DUP9 ADD MSTORE PUSH2 0x2583 JUMP JUMPDEST PUSH1 0xFF PUSH1 0x60 DUP8 ADD MLOAD AND PUSH1 0x60 DUP7 ADD MSTORE PUSH2 0x2B85 PUSH1 0x80 DUP8 ADD MLOAD PUSH1 0x80 DUP8 ADD SWAP1 PUSH2 0x2B01 JUMP JUMPDEST PUSH1 0xA0 DUP7 ADD MLOAD DUP6 DUP3 SUB PUSH1 0xA0 DUP8 ADD MSTORE PUSH2 0x2583 JUMP JUMPDEST SWAP4 ADD MLOAD SWAP2 ADD MSTORE SWAP1 JUMP JUMPDEST PUSH1 0x20 DUP2 ADD PUSH1 0x20 DUP3 MSTORE DUP3 MLOAD DUP1 SWAP2 MSTORE PUSH1 0x40 DUP3 ADD SWAP2 PUSH1 0x20 PUSH1 0x40 DUP4 PUSH1 0x5 SHL DUP4 ADD ADD SWAP5 ADD SWAP3 PUSH0 SWAP2 JUMPDEST DUP4 DUP4 LT PUSH2 0x2BD2 JUMPI POP POP POP POP POP SWAP1 JUMP JUMPDEST SWAP1 SWAP2 SWAP3 SWAP4 SWAP5 PUSH1 0x20 DUP1 PUSH2 0x2BF0 PUSH1 0x1 SWAP4 PUSH1 0x3F NOT DUP7 DUP3 SUB ADD DUP8 MSTORE DUP10 MLOAD PUSH2 0x2B22 JUMP JUMPDEST SWAP8 ADD SWAP4 ADD SWAP4 ADD SWAP2 SWAP4 SWAP3 SWAP1 PUSH2 0x2BC3 JUMP JUMPDEST SWAP1 PUSH1 0x40 PUSH2 0x2C18 PUSH2 0x137A DUP5 MLOAD PUSH1 0x60 DUP6 MSTORE PUSH1 0x60 DUP6 ADD SWAP1 PUSH2 0x2583 JUMP JUMPDEST SWAP3 DUP2 ADD MLOAD PUSH1 0x1 PUSH1 0x1 PUSH1 0xA0 SHL SUB AND SWAP2 ADD MSTORE SWAP1 JUMP JUMPDEST PUSH2 0x25CC SWAP2 PUSH2 0x2C3A DUP2 DUP4 MLOAD PUSH2 0x2B01 JUMP JUMPDEST PUSH1 0x20 DUP3 ADD MLOAD PUSH1 0x20 DUP3 ADD MSTORE PUSH1 0x40 DUP3 ADD MLOAD PUSH1 0x40 DUP3 ADD MSTORE PUSH1 0x60 DUP3 ADD MLOAD PUSH1 0x60 DUP3 ADD MSTORE PUSH1 0x80 DUP3 ADD MLOAD PUSH1 0x80 DUP3 ADD MSTORE PUSH1 0xA0 DUP3 ADD MLOAD PUSH1 0xA0 DUP3 ADD MSTORE PUSH1 0xC0 DUP3 ADD MLOAD PUSH1 0xC0 DUP3 ADD MSTORE PUSH1 0xE0 DUP3 ADD MLOAD PUSH1 0xE0 DUP3 ADD MSTORE PUSH2 0x100 DUP3 ADD MLOAD PUSH2 0x100 DUP3 ADD MSTORE PUSH2 0x120 DUP3 ADD MLOAD PUSH2 0x120 DUP3 ADD MSTORE PUSH2 0x180 PUSH2 0x2CCF PUSH2 0x2CBB PUSH2 0x140 DUP6 ADD MLOAD PUSH2 0x1A0 PUSH2 0x140 DUP7 ADD MSTORE PUSH2 0x1A0 DUP6 ADD SWAP1 PUSH2 0x2BFF JUMP JUMPDEST PUSH2 0x160 DUP6 ADD MLOAD DUP5 DUP3 SUB PUSH2 0x160 DUP7 ADD MSTORE PUSH2 0x2BFF JUMP JUMPDEST SWAP3 ADD MLOAD SWAP1 PUSH2 0x180 DUP2 DUP5 SUB SWAP2 ADD MSTORE PUSH2 0x2583 JUMP JUMPDEST PUSH2 0x25CC SWAP2 PUSH1 0x40 PUSH2 0x2CFD PUSH2 0x137A DUP5 MLOAD PUSH1 0x60 DUP6 MSTORE PUSH1 0x60 DUP6 ADD SWAP1 PUSH2 0x2583 JUMP JUMPDEST SWAP3 ADD MLOAD SWAP1 PUSH1 0x40 DUP2 DUP5 SUB SWAP2 ADD MSTORE PUSH2 0x2583 JUMP JUMPDEST PUSH2 0x25CC SWAP2 PUSH1 0x20 PUSH2 0x2D27 DUP4 MLOAD PUSH1 0x40 DUP5 MSTORE PUSH1 0x40 DUP5 ADD SWAP1 PUSH2 0x2583 JUMP JUMPDEST SWAP3 ADD MLOAD SWAP1 PUSH1 0x20 DUP2 DUP5 SUB SWAP2 ADD MSTORE PUSH2 0x2583 JUMP JUMPDEST PUSH2 0x25CC SWAP2 PUSH1 0xA0 PUSH2 0x2D81 PUSH2 0x2D6F PUSH2 0x2D5D PUSH2 0x2B54 PUSH2 0x2B42 DUP8 MLOAD PUSH1 0xC0 DUP9 MSTORE PUSH1 0xC0 DUP9 ADD SWAP1 PUSH2 0x2583 JUMP JUMPDEST PUSH1 0x60 DUP7 ADD MLOAD DUP6 DUP3 SUB PUSH1 0x60 DUP8 ADD MSTORE PUSH2 0x2583 JUMP JUMPDEST PUSH1 0x80 DUP6 ADD MLOAD DUP5 DUP3 SUB PUSH1 0x80 DUP7 ADD MSTORE PUSH2 0x2583 JUMP JUMPDEST SWAP3 ADD MLOAD SWAP1 PUSH1 0xA0 DUP2 DUP5 SUB SWAP2 ADD MSTORE PUSH2 0x2583 JUMP JUMPDEST PUSH2 0x25CC SWAP2 PUSH1 0xE0 PUSH2 0x2E19 PUSH2 0x2E07 PUSH2 0x2B85 PUSH2 0x2DF5 PUSH2 0x2DE3 PUSH2 0x2DD1 PUSH2 0x2DBF DUP10 MLOAD PUSH2 0x100 DUP11 MSTORE PUSH2 0x100 DUP11 ADD SWAP1 PUSH2 0x2583 JUMP JUMPDEST PUSH1 0x20 DUP11 ADD MLOAD DUP10 DUP3 SUB PUSH1 0x20 DUP12 ADD MSTORE PUSH2 0x2583 JUMP JUMPDEST PUSH1 0x40 DUP10 ADD MLOAD DUP9 DUP3 SUB PUSH1 0x40 DUP11 ADD MSTORE PUSH2 0x2583 JUMP JUMPDEST PUSH1 0x60 DUP9 ADD MLOAD DUP8 DUP3 SUB PUSH1 0x60 DUP10 ADD MSTORE PUSH2 0x2583 JUMP JUMPDEST PUSH1 0x80 DUP8 ADD MLOAD DUP7 DUP3 SUB PUSH1 0x80 DUP9 ADD MSTORE PUSH2 0x2583 JUMP JUMPDEST PUSH1 0xC0 DUP6 ADD MLOAD DUP5 DUP3 SUB PUSH1 0xC0 DUP7 ADD MSTORE PUSH2 0x2583 JUMP JUMPDEST SWAP3 ADD MLOAD SWAP1 PUSH1 0xE0 DUP2 DUP5 SUB SWAP2 ADD MSTORE PUSH2 0x2583 JUMP JUMPDEST SWAP1 DUP2 PUSH1 0x20 SWAP2 SUB SLT PUSH2 0x2381 JUMPI MLOAD DUP1 ISZERO ISZERO DUP2 SUB PUSH2 0x2381 JUMPI SWAP1 JUMP JUMPDEST ISZERO PUSH2 0x2E49 JUMPI JUMP JUMPDEST PUSH1 0x40 MLOAD PUSH3 0x461BCD PUSH1 0xE5 SHL DUP2 MSTORE PUSH1 0x20 PUSH1 0x4 DUP3 ADD MSTORE PUSH1 0x21 PUSH1 0x24 DUP3 ADD MSTORE PUSH32 0x4F6E6C79205042462063616E20646F2074686973207472616E73616374696F6E PUSH1 0x44 DUP3 ADD MSTORE PUSH1 0x21 PUSH1 0xF8 SHL PUSH1 0x64 DUP3 ADD MSTORE PUSH1 0x84 SWAP1 REVERT JUMPDEST DUP2 PUSH1 0x1F DUP3 ADD SLT ISZERO PUSH2 0x2381 JUMPI DUP1 MLOAD SWAP1 PUSH2 0x2EAF DUP3 PUSH2 0x249F JUMP JUMPDEST SWAP3 PUSH2 0x2EBD PUSH1 0x40 MLOAD SWAP5 DUP6 PUSH2 0x247E JUMP JUMPDEST DUP3 DUP5 MSTORE PUSH1 0x20 DUP4 DUP4 ADD ADD GT PUSH2 0x2381 JUMPI DUP2 PUSH0 SWAP3 PUSH1 0x20 DUP1 SWAP4 ADD DUP4 DUP7 ADD MCOPY DUP4 ADD ADD MSTORE SWAP1 JUMP JUMPDEST SWAP2 SWAP1 SWAP2 PUSH1 0x40 DUP2 DUP5 SUB SLT PUSH2 0x2381 JUMPI DUP1 MLOAD PUSH1 0x1 PUSH1 0x1 PUSH1 0x40 SHL SUB DUP2 GT PUSH2 0x2381 JUMPI DUP4 PUSH2 0x2F07 SWAP2 DUP4 ADD PUSH2 0x2E98 JUMP JUMPDEST SWAP3 PUSH1 0x20 DUP3 ADD MLOAD PUSH1 0x1 PUSH1 0x1 PUSH1 0x40 SHL SUB DUP2 GT PUSH2 0x2381 JUMPI PUSH2 0x25CC SWAP3 ADD PUSH2 0x2E98 JUMP JUMPDEST SWAP1 PUSH1 0x60 SWAP3 SWAP6 SWAP5 SWAP4 PUSH2 0x2F40 PUSH1 0xFF SWAP3 PUSH1 0x80 DUP6 MSTORE PUSH1 0x80 DUP6 ADD SWAP1 PUSH2 0x2583 JUMP JUMPDEST PUSH1 0x1 PUSH1 0x1 PUSH1 0xA0 SHL SUB SWAP1 SWAP8 AND PUSH1 0x20 DUP5 ADD MSTORE AND PUSH1 0x40 DUP3 ADD MSTORE ADD MSTORE JUMP JUMPDEST ISZERO PUSH2 0x2F61 JUMPI JUMP JUMPDEST PUSH1 0x40 MLOAD PUSH3 0x461BCD PUSH1 0xE5 SHL DUP2 MSTORE PUSH1 0x20 PUSH1 0x4 DUP3 ADD MSTORE PUSH1 0x22 PUSH1 0x24 DUP3 ADD MSTORE PUSH32 0x4F6E6C792042504F4D2063616E20646F2074686973207472616E73616374696F PUSH1 0x44 DUP3 ADD MSTORE PUSH2 0x6E21 PUSH1 0xF0 SHL PUSH1 0x64 DUP3 ADD MSTORE PUSH1 0x84 SWAP1 REVERT JUMPDEST SWAP4 SWAP3 SWAP2 PUSH2 0x2FD6 SWAP1 PUSH1 0x40 SWAP3 PUSH1 0x1 DUP1 PUSH1 0xA0 SHL SUB AND DUP7 MSTORE PUSH1 0x60 PUSH1 0x20 DUP8 ADD MSTORE PUSH1 0x60 DUP7 ADD SWAP1 PUSH2 0x2583 JUMP JUMPDEST SWAP4 ADD MSTORE JUMP JUMPDEST SWAP3 PUSH2 0x301A SWAP1 PUSH2 0x300C PUSH2 0x3028 SWAP5 PUSH2 0x2FFE PUSH2 0x25CC SWAP11 SWAP9 SWAP6 PUSH1 0xC0 DUP10 MSTORE PUSH1 0xC0 DUP10 ADD SWAP1 PUSH2 0x2583 JUMP JUMPDEST SWAP1 DUP8 DUP3 SUB PUSH1 0x20 DUP10 ADD MSTORE PUSH2 0x2583 JUMP JUMPDEST SWAP1 DUP6 DUP3 SUB PUSH1 0x40 DUP8 ADD MSTORE PUSH2 0x2583 JUMP JUMPDEST SWAP1 DUP4 DUP3 SUB PUSH1 0x60 DUP6 ADD MSTORE PUSH2 0x2583 JUMP JUMPDEST PUSH1 0x1 PUSH1 0x1 PUSH1 0xA0 SHL SUB SWAP1 SWAP4 AND PUSH1 0x80 DUP3 ADD MSTORE DUP1 DUP4 SUB PUSH1 0xA0 SWAP2 SWAP1 SWAP2 ADD MSTORE PUSH2 0x2583 JUMP JUMPDEST SWAP6 SWAP5 SWAP4 PUSH1 0xFF PUSH1 0x80 SWAP5 PUSH2 0x3065 PUSH2 0x2FD6 SWAP6 SWAP5 PUSH1 0xA0 DUP12 MSTORE PUSH1 0xA0 DUP12 ADD SWAP1 PUSH2 0x2583 JUMP JUMPDEST PUSH1 0x1 PUSH1 0x1 PUSH1 0xA0 SHL SUB SWAP1 SWAP5 AND PUSH1 0x20 DUP11 ADD MSTORE AND PUSH1 0x40 DUP9 ADD MSTORE DUP7 DUP3 SUB PUSH1 0x60 DUP9 ADD MSTORE PUSH2 0x2583 JUMP JUMPDEST SWAP4 SWAP1 PUSH1 0x80 SWAP4 PUSH2 0x30BA PUSH2 0x30D6 SWAP5 PUSH2 0x30AC PUSH2 0x30C8 SWAP5 SWAP11 SWAP10 SWAP11 PUSH1 0xA0 DUP11 MSTORE PUSH1 0xA0 DUP11 ADD SWAP1 PUSH2 0x2583 JUMP JUMPDEST SWAP1 DUP9 DUP3 SUB PUSH1 0x20 DUP11 ADD MSTORE PUSH2 0x2583 JUMP JUMPDEST SWAP1 DUP7 DUP3 SUB PUSH1 0x40 DUP9 ADD MSTORE PUSH2 0x2583 JUMP JUMPDEST SWAP1 DUP5 DUP3 SUB PUSH1 0x60 DUP7 ADD MSTORE PUSH2 0x2583 JUMP JUMPDEST PUSH1 0x1 PUSH1 0x1 PUSH1 0xA0 SHL SUB SWAP1 SWAP5 AND SWAP2 ADD MSTORE JUMP JUMPDEST SWAP2 SWAP4 SWAP1 PUSH2 0x25CC SWAP6 SWAP4 PUSH2 0x3102 PUSH1 0xFF SWAP3 PUSH1 0xA0 DUP7 MSTORE PUSH1 0xA0 DUP7 ADD SWAP1 PUSH2 0x2583 JUMP JUMPDEST PUSH1 0x1 PUSH1 0x1 PUSH1 0xA0 SHL SUB SWAP1 SWAP7 AND PUSH1 0x20 DUP6 ADD MSTORE AND PUSH1 0x40 DUP4 ADD MSTORE PUSH1 0x60 DUP3 ADD MSTORE DUP1 DUP4 SUB PUSH1 0x80 SWAP1 SWAP2 ADD MSTORE PUSH2 0x2583 JUMP JUMPDEST ISZERO PUSH2 0x3132 JUMPI JUMP JUMPDEST PUSH1 0x40 MLOAD PUSH3 0x461BCD PUSH1 0xE5 SHL DUP2 MSTORE PUSH1 0x20 PUSH1 0x4 DUP3 ADD MSTORE PUSH1 0x25 PUSH1 0x24 DUP3 ADD MSTORE PUSH32 0x4F6E6C7920466163746F72792063616E20646F2074686973207472616E736163 PUSH1 0x44 DUP3 ADD MSTORE PUSH5 0x74696F6E21 PUSH1 0xD8 SHL PUSH1 0x64 DUP3 ADD MSTORE PUSH1 0x84 SWAP1 REVERT JUMPDEST MLOAD SWAP1 PUSH1 0xFF DUP3 AND DUP3 SUB PUSH2 0x2381 JUMPI JUMP JUMPDEST PUSH1 0x20 DUP2 DUP4 SUB SLT PUSH2 0x2381 JUMPI DUP1 MLOAD SWAP1 PUSH1 0x1 PUSH1 0x1 PUSH1 0x40 SHL SUB DUP3 GT PUSH2 0x2381 JUMPI ADD DUP2 PUSH1 0x1F DUP3 ADD SLT ISZERO PUSH2 0x2381 JUMPI DUP1 MLOAD SWAP1 PUSH1 0x1 PUSH1 0x1 PUSH1 0x40 SHL SUB DUP3 GT PUSH2 0x23E1 JUMPI PUSH1 0x20 DUP3 PUSH1 0x5 SHL ADD SWAP3 PUSH2 0x31E0 PUSH1 0x40 MLOAD SWAP5 DUP6 PUSH2 0x247E JUMP JUMPDEST DUP3 DUP5 MSTORE PUSH1 0x20 DUP1 DUP6 ADD SWAP4 PUSH1 0x5 SHL DUP4 ADD ADD SWAP2 DUP2 DUP4 GT PUSH2 0x2381 JUMPI PUSH1 0x20 DUP2 ADD SWAP4 JUMPDEST DUP4 DUP6 LT PUSH2 0x320C JUMPI POP POP POP POP POP SWAP1 JUMP JUMPDEST DUP5 MLOAD PUSH1 0x1 PUSH1 0x1 PUSH1 0x40 SHL SUB DUP2 GT PUSH2 0x2381 JUMPI PUSH1 0x20 SWAP1 DUP4 ADD ADD PUSH1 0xE0 DUP2 DUP6 SUB SLT PUSH2 0x2381 JUMPI PUSH1 0x40 MLOAD SWAP2 PUSH1 0xE0 DUP4 ADD DUP4 DUP2 LT PUSH1 0x1 PUSH1 0x1 PUSH1 0x40 SHL SUB DUP3 GT OR PUSH2 0x23E1 JUMPI PUSH1 0x40 MSTORE DUP2 MLOAD PUSH1 0x1 PUSH1 0x1 PUSH1 0x40 SHL SUB DUP2 GT PUSH2 0x2381 JUMPI DUP6 PUSH2 0x3265 SWAP2 DUP5 ADD PUSH2 0x2E98 JUMP JUMPDEST DUP4 MSTORE PUSH1 0x20 DUP3 ADD MLOAD PUSH1 0x1 PUSH1 0x1 PUSH1 0x40 SHL SUB DUP2 GT PUSH2 0x2381 JUMPI DUP6 PUSH2 0x3286 SWAP2 DUP5 ADD PUSH2 0x2E98 JUMP JUMPDEST PUSH1 0x20 DUP5 ADD MSTORE PUSH1 0x40 DUP3 ADD MLOAD PUSH1 0x1 PUSH1 0x1 PUSH1 0x40 SHL SUB DUP2 GT PUSH2 0x2381 JUMPI DUP6 PUSH2 0x32AA SWAP2 DUP5 ADD PUSH2 0x2E98 JUMP JUMPDEST PUSH1 0x40 DUP5 ADD MSTORE PUSH2 0x32BB PUSH1 0x60 DUP4 ADD PUSH2 0x3185 JUMP JUMPDEST PUSH1 0x60 DUP5 ADD MSTORE PUSH1 0x80 DUP3 ADD MLOAD PUSH1 0x9 DUP2 LT ISZERO PUSH2 0x2381 JUMPI PUSH1 0x80 DUP5 ADD MSTORE PUSH1 0xA0 DUP3 ADD MLOAD SWAP3 PUSH1 0x1 PUSH1 0x1 PUSH1 0x40 SHL SUB DUP5 GT PUSH2 0x2381 JUMPI PUSH1 0xC0 DUP4 PUSH2 0x32F9 DUP9 PUSH1 0x20 SWAP8 DUP9 SWAP8 ADD PUSH2 0x2E98 JUMP JUMPDEST PUSH1 0xA0 DUP5 ADD MSTORE ADD MLOAD PUSH1 0xC0 DUP3 ADD MSTORE DUP2 MSTORE ADD SWAP5 ADD SWAP4 PUSH2 0x31FD JUMP JUMPDEST PUSH1 0x40 MLOAD SWAP1 PUSH2 0x331D DUP3 PUSH2 0x242C JUMP JUMPDEST PUSH0 PUSH1 0x40 DUP4 PUSH1 0x60 DUP2 MSTORE PUSH1 0x60 PUSH1 0x20 DUP3 ADD MSTORE ADD MSTORE JUMP JUMPDEST PUSH1 0x40 MLOAD SWAP1 PUSH2 0x333D DUP3 PUSH2 0x2462 JUMP JUMPDEST PUSH1 0x60 PUSH2 0x180 DUP4 PUSH0 DUP2 MSTORE PUSH0 PUSH1 0x20 DUP3 ADD MSTORE PUSH0 PUSH1 0x40 DUP3 ADD MSTORE PUSH0 DUP4 DUP3 ADD MSTORE PUSH0 PUSH1 0x80 DUP3 ADD MSTORE PUSH0 PUSH1 0xA0 DUP3 ADD MSTORE PUSH0 PUSH1 0xC0 DUP3 ADD MSTORE PUSH0 PUSH1 0xE0 DUP3 ADD MSTORE PUSH0 PUSH2 0x100 DUP3 ADD MSTORE PUSH0 PUSH2 0x120 DUP3 ADD MSTORE PUSH2 0x3385 PUSH2 0x3310 JUMP JUMPDEST PUSH2 0x140 DUP3 ADD MSTORE PUSH2 0x3393 PUSH2 0x3310 JUMP JUMPDEST PUSH2 0x160 DUP3 ADD MSTORE ADD MSTORE JUMP JUMPDEST PUSH1 0x40 MLOAD SWAP1 PUSH2 0x33AA DUP3 PUSH2 0x242C JUMP JUMPDEST PUSH1 0x60 PUSH1 0x40 DUP4 DUP3 DUP2 MSTORE DUP3 PUSH1 0x20 DUP3 ADD MSTORE ADD MSTORE JUMP JUMPDEST PUSH1 0x40 MLOAD SWAP1 PUSH2 0x33C9 DUP3 PUSH2 0x2447 JUMP JUMPDEST PUSH1 0x60 PUSH1 0x20 DUP4 DUP3 DUP2 MSTORE ADD MSTORE JUMP JUMPDEST SWAP2 SWAP1 PUSH1 0x60 DUP4 DUP3 SUB SLT PUSH2 0x2381 JUMPI PUSH1 0x40 MLOAD SWAP1 PUSH2 0x33EE DUP3 PUSH2 0x242C JUMP JUMPDEST DUP2 SWAP4 DUP1 MLOAD PUSH1 0x1 PUSH1 0x1 PUSH1 0x40 SHL SUB DUP2 GT PUSH2 0x2381 JUMPI DUP3 PUSH2 0x340C SWAP2 DUP4 ADD PUSH2 0x2E98 JUMP JUMPDEST DUP4 MSTORE PUSH1 0x20 DUP2 ADD MLOAD PUSH1 0x1 PUSH1 0x1 PUSH1 0x40 SHL SUB DUP2 GT PUSH2 0x2381 JUMPI DUP3 PUSH2 0x342D SWAP2 DUP4 ADD PUSH2 0x2E98 JUMP JUMPDEST PUSH1 0x20 DUP5 ADD MSTORE PUSH1 0x40 DUP2 ADD MLOAD SWAP2 PUSH1 0x1 PUSH1 0x1 PUSH1 0x40 SHL SUB DUP4 GT PUSH2 0x2381 JUMPI PUSH1 0x40 SWAP3 PUSH2 0x257E SWAP3 ADD PUSH2 0x2E98 JUMP JUMPDEST SWAP2 SWAP1 PUSH1 0x40 DUP4 DUP3 SUB SLT PUSH2 0x2381 JUMPI PUSH1 0x40 MLOAD SWAP1 PUSH2 0x346C DUP3 PUSH2 0x2447 JUMP JUMPDEST DUP2 SWAP4 DUP1 MLOAD PUSH1 0x1 PUSH1 0x1 PUSH1 0x40 SHL SUB DUP2 GT PUSH2 0x2381 JUMPI DUP3 PUSH2 0x348A SWAP2 DUP4 ADD PUSH2 0x2E98 JUMP JUMPDEST DUP4 MSTORE PUSH1 0x20 DUP2 ADD MLOAD SWAP2 PUSH1 0x1 PUSH1 0x1 PUSH1 0x40 SHL SUB DUP4 GT PUSH2 0x2381 JUMPI PUSH1 0x20 SWAP3 PUSH2 0x257E SWAP3 ADD PUSH2 0x2E98 JUMP JUMPDEST SWAP2 SWAP1 PUSH1 0x60 DUP4 DUP3 SUB SLT PUSH2 0x2381 JUMPI PUSH1 0x40 MLOAD SWAP1 PUSH2 0x34C6 DUP3 PUSH2 0x242C JUMP JUMPDEST DUP2 SWAP4 DUP1 MLOAD PUSH1 0x1 PUSH1 0x1 PUSH1 0x40 SHL SUB DUP2 GT PUSH2 0x2381 JUMPI DUP3 PUSH2 0x34E4 SWAP2 DUP4 ADD PUSH2 0x2E98 JUMP JUMPDEST DUP4 MSTORE PUSH1 0x20 DUP2 ADD MLOAD PUSH1 0x1 PUSH1 0x1 PUSH1 0x40 SHL SUB DUP2 GT PUSH2 0x2381 JUMPI PUSH1 0x40 SWAP3 PUSH2 0x3507 SWAP2 DUP4 ADD PUSH2 0x2E98 JUMP JUMPDEST PUSH1 0x20 DUP5 ADD MSTORE ADD MLOAD SWAP1 PUSH1 0x1 PUSH1 0x1 PUSH1 0xA0 SHL SUB DUP3 AND DUP3 SUB PUSH2 0x2381 JUMPI PUSH1 0x40 ADD MSTORE JUMP JUMPDEST PUSH1 0x20 DUP2 DUP4 SUB SLT PUSH2 0x2381 JUMPI DUP1 MLOAD SWAP1 PUSH1 0x1 PUSH1 0x1 PUSH1 0x40 SHL SUB DUP3 GT PUSH2 0x2381 JUMPI ADD PUSH2 0x1A0 DUP2 DUP4 SUB SLT PUSH2 0x2381 JUMPI PUSH1 0x40 MLOAD SWAP2 PUSH2 0x3559 DUP4 PUSH2 0x2462 JUMP JUMPDEST DUP2 MLOAD PUSH1 0x9 DUP2 LT ISZERO PUSH2 0x2381 JUMPI DUP4 MSTORE PUSH1 0x20 DUP3 ADD MLOAD PUSH1 0x20 DUP5 ADD MSTORE PUSH1 0x40 DUP3 ADD MLOAD PUSH1 0x40 DUP5 ADD MSTORE PUSH1 0x60 DUP3 ADD MLOAD PUSH1 0x60 DUP5 ADD MSTORE PUSH1 0x80 DUP3 ADD MLOAD PUSH1 0x80 DUP5 ADD MSTORE PUSH1 0xA0 DUP3 ADD MLOAD PUSH1 0xA0 DUP5 ADD MSTORE PUSH1 0xC0 DUP3 ADD MLOAD PUSH1 0xC0 DUP5 ADD MSTORE PUSH1 0xE0 DUP3 ADD MLOAD PUSH1 0xE0 DUP5 ADD MSTORE PUSH2 0x100 DUP3 ADD MLOAD PUSH2 0x100 DUP5 ADD MSTORE PUSH2 0x120 DUP3 ADD MLOAD PUSH2 0x120 DUP5 ADD MSTORE PUSH2 0x140 DUP3 ADD MLOAD PUSH1 0x1 PUSH1 0x1 PUSH1 0x40 SHL SUB DUP2 GT PUSH2 0x2381 JUMPI DUP2 PUSH2 0x35E4 SWAP2 DUP5 ADD PUSH2 0x34AD JUMP JUMPDEST PUSH2 0x140 DUP5 ADD MSTORE PUSH2 0x160 DUP3 ADD MLOAD PUSH1 0x1 PUSH1 0x1 PUSH1 0x40 SHL SUB DUP2 GT PUSH2 0x2381 JUMPI DUP2 PUSH2 0x360A SWAP2 DUP5 ADD PUSH2 0x34AD JUMP JUMPDEST PUSH2 0x160 DUP5 ADD MSTORE PUSH2 0x180 DUP3 ADD MLOAD PUSH1 0x1 PUSH1 0x1 PUSH1 0x40 SHL SUB DUP2 GT PUSH2 0x2381 JUMPI PUSH2 0x362E SWAP3 ADD PUSH2 0x2E98 JUMP JUMPDEST PUSH2 0x180 DUP3 ADD MSTORE SWAP1 JUMP JUMPDEST PUSH2 0x364F PUSH1 0x40 SWAP3 SWAP6 SWAP5 SWAP4 SWAP6 PUSH1 0x60 DUP4 MSTORE PUSH1 0x60 DUP4 ADD SWAP1 PUSH2 0x2583 JUMP JUMPDEST PUSH1 0x1 PUSH1 0x1 PUSH1 0xA0 SHL SUB SWAP1 SWAP6 AND PUSH1 0x20 DUP3 ADD MSTORE ADD MSTORE JUMP JUMPDEST PUSH1 0x2 PUSH0 SLOAD EQ PUSH2 0x3672 JUMPI PUSH1 0x2 PUSH0 SSTORE JUMP JUMPDEST PUSH4 0x3EE5AEB5 PUSH1 0xE0 SHL PUSH0 MSTORE PUSH1 0x4 PUSH0 REVERT INVALID LOG2 PUSH5 0x6970667358 0x22 SLT KECCAK256 0xDD DUP4 SWAP2 0xCE DUP10 0xB5 0xC8 0xA8 LOG3 CALL 0xC5 PUSH20 0xDD6236CCC5F55B2D5230B80CCC0342D0A7861194 PUSH5 0x736F6C6343 STOP ADDMOD SHL STOP CALLER "},"methodIdentifiers":{"approveCdob((string,string,string,string,address),string,uint8)":"2dbcaf0f","approveCpotb((string,string,string,string,address),string,uint8)":"4e03317b","approveExtendCdob(string,string)":"9c6b1f10","approveExtendCpotb(string,string)":"b0730436","cdobCertificate()":"af3a1758","cpotbCertificate()":"d369111d","extendCdob(string,uint256,(string,string,string))":"07b11c0b","extendCpotb(string,uint256,(string,string,string,string,string,string))":"4ad8f1a4","getAllCdob()":"f14261d2","getAllCpotb()":"5850607c","getCdobByInstance(string)":"d0927b19","getCdobDetails(string)":"7e8f8da7","getCpotbByInstance(string)":"51c2d326","getCpotbDetails(string)":"70c056b0","getRejectMsgCdob(string)":"17d96797","getRejectMsgCpotb(string)":"1a898044","rejectCdob(string,string,string,string,uint8)":"41ee1495","rejectCpotb(string,string,string,string,uint8)":"9c0abfd8","rejectExtendCdob(string,string)":"252006af","rejectExtendCpotb(string,string)":"3bb6ff3f","renewCdob((string,string,string,address),(string,string),(string,string,string,string,string,string,string,string))":"bbd0b8a9","renewCpotb((string,string,string,address),(string,string,string),(string,string))":"cb43b77f","renewExtendCdob(string,(string,string,string))":"69046dd3","renewExtendCpotb(string,(string,string,string,string,string,string))":"9914d854","requestCdob((string,string,string,address),uint8,(string,string),(string,string,string,string,string,string,string,string))":"1d430349","requestCpotb((string,string,string,address),uint8,string,(string,string,string),(string,string))":"87fecd3e","roleManager()":"00435da5"}}}}}