{"contracts/OrderManagement.sol":{"OrderManagement":{"abi":[{"inputs":[{"internalType":"address","name":"roleManagerAddr","type":"address"},{"internalType":"address","name":"obatSharedAddr","type":"address"},{"internalType":"address","name":"cdobCertificateAddr","type":"address"}],"stateMutability":"nonpayable","type":"constructor"},{"inputs":[],"name":"ReentrancyGuardReentrantCall","type":"error"},{"anonymous":false,"inputs":[{"indexed":false,"internalType":"string","name":"batchName","type":"string"},{"indexed":false,"internalType":"string","name":"namaProduk","type":"string"},{"indexed":false,"internalType":"string","name":"buyerInstanceName","type":"string"},{"indexed":false,"internalType":"string","name":"sellerInstanceName","type":"string"},{"indexed":false,"internalType":"uint8","name":"orderQuantity","type":"uint8"},{"indexed":false,"internalType":"uint256","name":"timestamp","type":"uint256"}],"name":"OrderUpdate","type":"event"},{"inputs":[{"internalType":"string","name":"orderId","type":"string"},{"internalType":"string[]","name":"orderObatIpfs","type":"string[]"}],"name":"acceptOrderPbf","outputs":[],"stateMutability":"nonpayable","type":"function"},{"inputs":[{"internalType":"string","name":"orderId","type":"string"},{"internalType":"string[]","name":"orderObatIpfs","type":"string[]"}],"name":"acceptOrderRetailer","outputs":[],"stateMutability":"nonpayable","type":"function"},{"inputs":[{"internalType":"uint256","name":"","type":"uint256"}],"name":"allOrderIds","outputs":[{"internalType":"string","name":"","type":"string"}],"stateMutability":"view","type":"function"},{"inputs":[],"name":"cdobCertificate","outputs":[{"internalType":"contract CdobCertificate","name":"","type":"address"}],"stateMutability":"view","type":"function"},{"inputs":[{"internalType":"string","name":"orderId","type":"string"},{"internalType":"string[]","name":"orderObatIpfs","type":"string[]"}],"name":"completeOrderPbf","outputs":[],"stateMutability":"nonpayable","type":"function"},{"inputs":[{"internalType":"string","name":"orderId","type":"string"},{"internalType":"string[]","name":"orderObatIpfs","type":"string[]"}],"name":"completeOrderRetailer","outputs":[],"stateMutability":"nonpayable","type":"function"},{"inputs":[{"internalType":"string","name":"prevOrderIdPbf","type":"string"},{"internalType":"string","name":"orderId","type":"string"},{"internalType":"string","name":"obatId","type":"string"},{"internalType":"string","name":"batchName","type":"string"},{"internalType":"string","name":"namaProduk","type":"string"},{"internalType":"string","name":"buyerInstance","type":"string"},{"internalType":"string","name":"sellerInstance","type":"string"},{"internalType":"uint8","name":"orderQuantity","type":"uint8"},{"internalType":"string","name":"cdobHash","type":"string"}],"name":"createOrder","outputs":[],"stateMutability":"nonpayable","type":"function"},{"inputs":[{"internalType":"string","name":"orderId","type":"string"}],"name":"detailOrder","outputs":[{"components":[{"internalType":"string","name":"orderId","type":"string"},{"internalType":"string","name":"obatId","type":"string"},{"internalType":"string","name":"namaProduk","type":"string"},{"internalType":"string","name":"batchName","type":"string"},{"internalType":"uint8","name":"orderQuantity","type":"uint8"},{"components":[{"internalType":"string","name":"instanceName","type":"string"},{"internalType":"address","name":"instanceAddr","type":"address"}],"internalType":"struct OrderManagement.OrderUser","name":"buyerUser","type":"tuple"},{"components":[{"internalType":"string","name":"instanceName","type":"string"},{"internalType":"address","name":"instanceAddr","type":"address"}],"internalType":"struct OrderManagement.OrderUser","name":"sellerUser","type":"tuple"},{"internalType":"enum EnumsLibrary.OrderStatus","name":"statusOrder","type":"uint8"},{"internalType":"string","name":"prevOrderIdPbf","type":"string"}],"internalType":"struct OrderManagement.OrderDetail","name":"","type":"tuple"}],"stateMutability":"view","type":"function"},{"inputs":[{"internalType":"string","name":"instanceName","type":"string"}],"name":"getAllObatPbfByInstance","outputs":[{"components":[{"internalType":"string","name":"orderId","type":"string"},{"internalType":"string","name":"obatId","type":"string"},{"internalType":"string","name":"namaProduk","type":"string"},{"internalType":"string","name":"batchName","type":"string"},{"internalType":"uint8","name":"obatQuantity","type":"uint8"},{"internalType":"enum EnumsLibrary.ObatAvailability","name":"statusStok","type":"uint8"},{"internalType":"string","name":"ownerInstance","type":"string"}],"internalType":"struct ObatShared.ObatOutputStok[]","name":"","type":"tuple[]"}],"stateMutability":"view","type":"function"},{"inputs":[],"name":"getAllObatPbfReadyStock","outputs":[{"components":[{"internalType":"string","name":"orderId","type":"string"},{"internalType":"string","name":"obatId","type":"string"},{"internalType":"string","name":"namaProduk","type":"string"},{"internalType":"string","name":"batchName","type":"string"},{"internalType":"uint8","name":"obatQuantity","type":"uint8"},{"internalType":"enum EnumsLibrary.ObatAvailability","name":"statusStok","type":"uint8"},{"internalType":"string","name":"ownerInstance","type":"string"}],"internalType":"struct ObatShared.ObatOutputStok[]","name":"","type":"tuple[]"}],"stateMutability":"view","type":"function"},{"inputs":[{"internalType":"string","name":"instanceName","type":"string"}],"name":"getAllObatRetailerByInstance","outputs":[{"components":[{"internalType":"string","name":"orderId","type":"string"},{"internalType":"string","name":"obatId","type":"string"},{"internalType":"string","name":"namaProduk","type":"string"},{"internalType":"string","name":"batchName","type":"string"},{"internalType":"uint8","name":"obatQuantity","type":"uint8"},{"internalType":"enum EnumsLibrary.ObatAvailability","name":"statusStok","type":"uint8"},{"internalType":"string","name":"ownerInstance","type":"string"}],"internalType":"struct ObatShared.ObatOutputStok[]","name":"","type":"tuple[]"}],"stateMutability":"view","type":"function"},{"inputs":[{"internalType":"string","name":"buyerInstance","type":"string"}],"name":"getAllOrderFromBuyer","outputs":[{"components":[{"internalType":"string","name":"orderId","type":"string"},{"internalType":"string","name":"obatId","type":"string"},{"internalType":"string","name":"namaProduk","type":"string"},{"internalType":"string","name":"batchName","type":"string"},{"internalType":"uint8","name":"orderQuantity","type":"uint8"},{"components":[{"internalType":"string","name":"instanceName","type":"string"},{"internalType":"address","name":"instanceAddr","type":"address"}],"internalType":"struct OrderManagement.OrderUser","name":"buyerUser","type":"tuple"},{"components":[{"internalType":"string","name":"instanceName","type":"string"},{"internalType":"address","name":"instanceAddr","type":"address"}],"internalType":"struct OrderManagement.OrderUser","name":"sellerUser","type":"tuple"},{"internalType":"enum EnumsLibrary.OrderStatus","name":"statusOrder","type":"uint8"},{"internalType":"string","name":"prevOrderIdPbf","type":"string"}],"internalType":"struct OrderManagement.OrderDetail[]","name":"","type":"tuple[]"}],"stateMutability":"view","type":"function"},{"inputs":[{"internalType":"string","name":"sellerInstance","type":"string"}],"name":"getAllOrderFromSeller","outputs":[{"components":[{"internalType":"string","name":"orderId","type":"string"},{"internalType":"string","name":"obatId","type":"string"},{"internalType":"string","name":"namaProduk","type":"string"},{"internalType":"string","name":"batchName","type":"string"},{"internalType":"uint8","name":"orderQuantity","type":"uint8"},{"components":[{"internalType":"string","name":"instanceName","type":"string"},{"internalType":"address","name":"instanceAddr","type":"address"}],"internalType":"struct OrderManagement.OrderUser","name":"buyerUser","type":"tuple"},{"components":[{"internalType":"string","name":"instanceName","type":"string"},{"internalType":"address","name":"instanceAddr","type":"address"}],"internalType":"struct OrderManagement.OrderUser","name":"sellerUser","type":"tuple"},{"internalType":"enum EnumsLibrary.OrderStatus","name":"statusOrder","type":"uint8"},{"internalType":"string","name":"prevOrderIdPbf","type":"string"}],"internalType":"struct OrderManagement.OrderDetail[]","name":"","type":"tuple[]"}],"stateMutability":"view","type":"function"},{"inputs":[{"internalType":"string","name":"orderId","type":"string"}],"name":"obatIpfs","outputs":[{"internalType":"string[]","name":"","type":"string[]"}],"stateMutability":"view","type":"function"},{"inputs":[],"name":"obatShared","outputs":[{"internalType":"contract ObatShared","name":"","type":"address"}],"stateMutability":"view","type":"function"},{"inputs":[{"internalType":"string","name":"orderId","type":"string"}],"name":"orderTimestamp","outputs":[{"components":[{"internalType":"uint256","name":"timestampOrder","type":"uint256"},{"internalType":"uint256","name":"timestampShipped","type":"uint256"},{"internalType":"uint256","name":"timestampComplete","type":"uint256"}],"internalType":"struct OrderManagement.OrderTimestamp","name":"","type":"tuple"}],"stateMutability":"view","type":"function"},{"inputs":[],"name":"roleManager","outputs":[{"internalType":"contract RoleManager","name":"","type":"address"}],"stateMutability":"view","type":"function"}],"evm":{"bytecode":{"linkReferences":{},"object":"60e0346100fa57601f61255838819003918201601f19168301916001600160401b038311848410176100fe578084926060946040528339810103126100fa5761004781610112565b90610060604061005960208401610112565b9201610112565b60015f556001600160a01b0392831660805290821660a0521660c0526040516124319081610127823960805181818161029b0152818161070301528181610ac001528181610f06015281816111f10152611776015260a0518181816104c301528181610656015281816107e401528181610b7e01528181610e8401528181610fcd015281816112cb015261153e015260c05181610cf40152f35b5f80fd5b634e487b7160e01b5f52604160045260245ffd5b51906001600160a01b03821682036100fa5756fe6080806040526004361015610012575f80fd5b5f905f3560e01c908162435da514611764575080631c2fc29214611697578063271962d4146115e05780632bf05e9b1461156d5780633fca88cb1461152857806360e4b3cf1461142357806364484ac9146111b8578063756b460f14610ecd578063906ce01714610e5f578063986a079014610d23578063af3a175814610cde578063af9bf53d14610a8f578063b711e82b146109ea578063e1336da514610993578063ee399ed4146106d2578063f07b2c7a146105fb5763fc0e6523146100d8575f80fd5b346105f8576101203660031901126105f8576004356001600160401b03811161057857610109903690600401611847565b6024356001600160401b0381116105f657610128903690600401611847565b906044356001600160401b0381116105f257610148903690600401611847565b906064356001600160401b0381116105ee57610168903690600401611847565b6084356001600160401b0381116105ea57610187903690600401611847565b9060a4356001600160401b0381116105e6576101a7903690600401611847565b60c4356001600160401b0381116105e2576101c6903690600401611847565b9160e4359060ff821680920361056757610104356001600160401b0381116105de576101f6903690600401611847565b946101ff61224b565b600154600160401b8110156105ca5780600161022092016001556001611a61565b6105b6578961022e91611f04565b61024f89604051602081885180838b01835e81016005815203019020611ffc565b61027089604051602081895180838c01835e81016006815203019020611ffc565b6040516395a8c58d60e01b815233600482015260016024820152956020876044816001600160a01b037f0000000000000000000000000000000000000000000000000000000000000000165afa80156105ab578a978c9161057c575b506104be575b506040516102df816117d5565b428152602081018b815260408201908c8252604051808a519a6020019a808c835e81016004815203602001902092518355516001830155519060020155610324611d08565b5060405193610332856117f0565b8452336020850152610342611d08565b5060405194610350866117f0565b855289602086015260405197610365896117a5565b8989526020890190815260408901918252606089019283526080890193845260a0890194855260c0890195865260e08901968b88526101008a0198895260405180918c518091835e81016003815203602001902098516103c5908a611f04565b516103d39060018a01611f04565b516103e19060028901611f04565b516103ef9060038801611f04565b60048601905160ff1660ff19825416179055518051600586019061041291611f04565b602001516006850180546001600160a01b0319166001600160a01b03929092169190911790555180516104489060078601611f04565b602001516008840180546001600160a01b0319166001600160a01b039290921691909117905551600983019060038110156104aa5761049e926104a3959492600a9260ff80198354169116179055519101611f04565b612269565b6001815580f35b634e487b7160e01b86526021600452602486fd5b9550897f00000000000000000000000000000000000000000000000000000000000000006001600160a01b0316803b1561057857610534978291610522838d6040519c8d95869485936331cb1cc560e21b855260406004860152604485019061188d565b8381036003190160248501529061188d565b03925af196871561056b578a9761054c575b506102d2565b819297509061055a9161180b565b610567578794895f610546565b8880fd5b50604051903d90823e3d90fd5b5080fd5b61059e915060203d6020116105a4575b610596818361180b565b810190611e17565b5f6102cc565b503d61058c565b6040513d8d823e3d90fd5b634e487b7160e01b8b5260048b905260248bfd5b634e487b7160e01b8b52604160045260248bfd5b8980fd5b8780fd5b8680fd5b8580fd5b8480fd5b8380fd5b825b80fd5b50346105f85760203660031901126105f857600435816001600160401b0382116105f857610630610652923690600401611847565b6040518093819263783d963d60e11b835260206004840152602483019061188d565b03817f00000000000000000000000000000000000000000000000000000000000000006001600160a01b03165afa9081156106c757826106a093926106a4575b505060405191829182611c06565b0390f35b6106c092503d8091833e6106b8818361180b565b8101906120a9565b5f80610692565b6040513d84823e3d90fd5b50346105f8576106e136611b46565b6040516395a8c58d60e01b8152336004820152602481018490526020816044817f00000000000000000000000000000000000000000000000000000000000000006001600160a01b03165afa908115610988578491610969575b501561092f57829061074b61224b565b805160405190845191602081818801948086835e81016003815203019020916008830160018060a01b0333166bffffffffffffffffffffffff60a01b82541617905560098301600160ff19825416179055604051600187518084845e8201916004835260208142940301902001556107d760405160208189518086835e81016002815203019020611e83565b845b8281106108f15750507f00000000000000000000000000000000000000000000000000000000000000006001600160a01b0316926003830192909150833b156105ee578461084a61085c92604051938492839263871811f160e01b8452606060048501526001606485019101611aae565b82810360031901602484015287611aae565b60016044830152038183885af19081156108e65785916108d1575b5050823b156105f2576108a3928492836040518096819582946329a2ac2760e11b84526004840161203e565b03925af180156106c7576108bc575b506104a382612269565b816108c69161180b565b61057857815f6108b2565b816108db9161180b565b6105f257835f610877565b6040513d87823e3d90fd5b60019192939495506109236040516020818a518088835e8101600281520301902061091c8389611dc1565b5190611ffc565b019086949392916107d9565b60405162461bcd60e51b815260206004820152601260248201527150616272696b20616363657373206f6e6c7960701b6044820152606490fd5b610982915060203d6020116105a457610596818361180b565b5f61073b565b6040513d86823e3d90fd5b50346105f85760203660031901126105f857600435816001600160401b0382116105f8576109c8610652923690600401611847565b6040518093819263e1336da560e01b835260206004840152602483019061188d565b50346105f85760203660031901126105f8576004356001600160401b038111610578576020606092610a2182933690600401611847565b9060408051610a2f816117d5565b82815282858201520152604051928184925191829101835e81016004815203019020604051610a5d816117d5565b815491828252604060026001830154926020850193845201549201918252604051928352516020830152516040820152f35b50346105f857610a9e36611b46565b6040516395a8c58d60e01b8152336004820152600360248201526020816044817f00000000000000000000000000000000000000000000000000000000000000006001600160a01b03165afa908115610988578491610cbf575b5015610c83578290610b0861224b565b805160405190845191602081818801948086835e810160038152030190209160098301600260ff19825416179055604051600287518084845e820191600483526020814294030190200155610b7160405160208189518086835e81016002815203019020611e83565b845b828110610c4c5750507f00000000000000000000000000000000000000000000000000000000000000006001600160a01b0316926003830192909150833b156105ee576040516330b3e0ef60e21b815260406004820152858180610bda6044820188611aae565b60016024830152038183895af1908115610c41578691610c2c575b5050833b156105ee578461084a61085c92604051938492839263871811f160e01b8452606060048501526001606485019101611aae565b81610c369161180b565b6105ee57845f610bf5565b6040513d88823e3d90fd5b6001919293949550610c776040516020818a518088835e8101600281520301902061091c8389611dc1565b01908694939291610b73565b60405162461bcd60e51b815260206004820152601460248201527352657461696c657220616363657373206f6e6c7960601b6044820152606490fd5b610cd8915060203d6020116105a457610596818361180b565b5f610af8565b50346105f857806003193601126105f8576040517f00000000000000000000000000000000000000000000000000000000000000006001600160a01b03168152602090f35b50346105f85760203660031901126105f857600435906001600160401b0382116105f8576106a0602080610d5a3660048701611847565b610d62611d21565b50604051928184925191829101835e81016003815203019020600a610e4560405192610d8d846117a5565b604051610da581610d9e8185611aae565b038261180b565b8452604051610dbb81610d9e8160018601611aae565b6020850152604051610dd481610d9e8160028601611aae565b6040850152604051610ded81610d9e8160038601611aae565b606085015260ff6004820154166080850152610e0b60058201611dd5565b60a0850152610e1c60078201611dd5565b60c0850152610e3560ff60098301541660e08601611e0b565b610d9e6040518094819301611aae565b6101008201526040519182916020835260208301906118da565b50346105f857806003193601126105f85760405163906ce01760e01b815281816004817f00000000000000000000000000000000000000000000000000000000000000006001600160a01b03165afa9081156106c757826106a093926106a457505060405191829182611c06565b50346105f857610edc36611b46565b6040516395a8c58d60e01b8152336004820152600160248201526020816044816001600160a01b037f0000000000000000000000000000000000000000000000000000000000000000165afa801561098857610f43918591611199575b5090849291611e2f565b610f4b61224b565b805160405190845191602081818801948086835e810160038152030190209160098301600260ff19825416179055604051600287518084845e820191600483526020814294030190200155610fb460405160208189518086835e81016002815203019020611e83565b845b8281106111625750506003820192600183019291507f00000000000000000000000000000000000000000000000000000000000000006001600160a01b031690813b156105ea5760405163871811f160e01b815260606004820152868180611036611024606483018a611aae565b8281036003190160248401528a611aae565b60016044830152038183875af1908115611157578791611142575b5050813b156105ea578561107a91604051809381926329a2ac2760e11b8352896004840161203e565b038183865af1908115610c4157869161112d575b505060ff600483015416813b156105ea578580946108a36110dc9360058b976111156110ee9b6111036040519d8e9c8d9b8c9a63d33d8a1360e01b8c5260c060048d015260c48c0190611aae565b8a81036003190160248c01529061188d565b8881036003190160448a015260028501611aae565b87810360031901606489015290611aae565b9260848601526003198584030160a486015201611aae565b816111379161180b565b6105ee57845f61108e565b8161114c9161180b565b6105ea57855f611051565b6040513d89823e3d90fd5b600191929394955061118d6040516020818a518088835e8101600281520301902061091c8389611dc1565b01908694939291610fb6565b6111b2915060203d6020116105a457610596818361180b565b5f610f39565b50346105f8576111c736611b46565b6040516395a8c58d60e01b8152336004820152600160248201526020816044816001600160a01b037f0000000000000000000000000000000000000000000000000000000000000000165afa80156109885761122a918591611404575b50611e2f565b61123261224b565b805160405190835191602081818701948086835e81016003815203019020916008830160018060a01b0333166bffffffffffffffffffffffff60a01b82541617905560098301600160ff19825416179055604051600186518084845e8201916004835260208142940301902001556112be60405160208188518086835e81016002815203019020611e83565b855b8281106113d85750507f00000000000000000000000000000000000000000000000000000000000000006001600160a01b031692600383019290915085843b156105f85760405163871811f160e01b81526060600482015291829081906113329061084a906064840190600101611aae565b60016044830152038183885af18015610c41576113c0575b5090829185933b156105f2576040516330b3e0ef60e21b81526040600482015284818061137a6044820187611aae565b60016024830152038183885af19081156108e65785916108d1575050823b156105f2576108a3928492836040518096819582946329a2ac2760e11b84526004840161203e565b856113cf91969294939661180b565b9390915f61134a565b6001906113fe6040516020818a518088835e8101600281520301902061091c8389611dc1565b016112c0565b61141d915060203d6020116105a457610596818361180b565b5f611224565b50346105f85760203660031901126105f8576004356001600160401b03811161057857611454903690600401611847565b604051815190602081818501938085835e81016005815203019020549161147a83611d72565b935b83811061149157604051806106a087826119aa565b806114ce610d9e6114c96114bc6001956040516020818a51808d835e81016005815203019020611a61565b5060405192838092611aae565b611ce9565b600a611506604051926114e0846117a5565b6040516114f181610d9e8185611aae565b8452604051610dbb81610d9e818a8601611aae565b6101008201526115168288611dc1565b526115218187611dc1565b500161147c565b50346105f857806003193601126105f8576040517f00000000000000000000000000000000000000000000000000000000000000006001600160a01b03168152602090f35b346115dc5760203660031901126115dc576004356001548110156115dc576001548110156115c857610d9e6115b46106a09260015f5260205f200160405192838092611aae565b60405191829160208352602083019061188d565b634e487b7160e01b5f52603260045260245ffd5b5f80fd5b346115dc5760203660031901126115dc576004356001600160401b0381116115dc57602061161381923690600401611847565b604051928184925191829101835e81016002815203019020805461163681611b2f565b91611644604051938461180b565b81835260208301905f5260205f205f915b83831061167257604051602080825281906106a090820188611a09565b60016020819260405161168981610d9e8189611aae565b815201920192019190611655565b346115dc5760203660031901126115dc576004356001600160401b0381116115dc576116c7903690600401611847565b604051815190602081818501938085835e8101600681520301902054906116ed82611d72565b925f5b83811061170557604051806106a087826119aa565b80611730610d9e6114c96114bc6001956040516020818a51808d835e81016006815203019020611a61565b600a611742604051926114e0846117a5565b6101008201526117528288611dc1565b5261175d8187611dc1565b50016116f0565b346115dc575f3660031901126115dc577f00000000000000000000000000000000000000000000000000000000000000006001600160a01b03168152602090f35b61012081019081106001600160401b038211176117c157604052565b634e487b7160e01b5f52604160045260245ffd5b606081019081106001600160401b038211176117c157604052565b604081019081106001600160401b038211176117c157604052565b90601f801991011681019081106001600160401b038211176117c157604052565b6001600160401b0381116117c157601f01601f191660200190565b81601f820112156115dc5780359061185e8261182c565b9261186c604051948561180b565b828452602083830101116115dc57815f926020809301838601378301015290565b805180835260209291819084018484015e5f828201840152601f01601f1916010190565b9060206118c7835160408452604084019061188d565b928101516001600160a01b031691015290565b906119666119546119356119236119116118ff8751610120885261012088019061188d565b6020880151878203602089015261188d565b6040870151868203604088015261188d565b6060860151858203606087015261188d565b60ff608086015116608085015260a085015184820360a08601526118b1565b60c084015183820360c08501526118b1565b9060e0830151600381101561199657611993936101009160e084015201519061010081840391015261188d565b90565b634e487b7160e01b5f52602160045260245ffd5b602081016020825282518091526040820191602060408360051b8301019401925f915b8383106119dc57505050505090565b90919293946020806119fa600193603f1986820301875289516118da565b970193019301919392906119cd565b9080602083519182815201916020808360051b8301019401925f915b838310611a3457505050505090565b9091929394602080611a52600193601f19868203018752895161188d565b97019301930191939290611a25565b80548210156115c8575f5260205f2001905f90565b90600182811c92168015611aa4575b6020831014611a9057565b634e487b7160e01b5f52602260045260245ffd5b91607f1691611a85565b5f9291815491611abd83611a76565b8083529260018116908115611b125750600114611ad957505050565b5f9081526020812093945091925b838310611af8575060209250010190565b600181602092949394548385870101520191019190611ae7565b915050602093945060ff929192191683830152151560051b010190565b6001600160401b0381116117c15760051b60200190565b9060406003198301126115dc576004356001600160401b0381116115dc5782611b7191600401611847565b91602435906001600160401b0382116115dc57806023830112156115dc578160040135611b9d81611b2f565b92611bab604051948561180b565b8184526024602085019260051b820101918383116115dc5760248201905b838210611bd857505050505090565b81356001600160401b0381116115dc57602091611bfb8760248594880101611847565b815201910190611bc9565b602081016020825282518091526040820190602060408260051b8501019401925f905b828210611c3857505050505090565b9091929394603f19828203018552855190611c9b611c89611c77611c65855160e0865260e086019061188d565b6020860151858203602087015261188d565b6040850151848203604086015261188d565b6060840151838203606085015261188d565b9160ff608082015116608083015260a0810151906002821015611996576001938360c0611cdc936020969560a08897015201519060c081840391015261188d565b9701950193920190611c29565b60208091604051928184925191829101835e8101600381520301902090565b60405190611d15826117f0565b5f602083606081520152565b60405190611d2e826117a5565b60606101008382815282602082015282604082015282808201525f6080820152611d56611d08565b60a0820152611d63611d08565b60c08201525f60e08201520152565b90611d7c82611b2f565b611d89604051918261180b565b8281528092611d9a601f1991611b2f565b01905f5b828110611daa57505050565b602090611db5611d21565b82828501015201611d9e565b80518210156115c85760209160051b010190565b90604051611de2816117f0565b60208193604051611df781610d9e8185611aae565b8352600101546001600160a01b0316910152565b60038210156119965752565b908160209103126115dc575180151581036115dc5790565b15611e3657565b60405162461bcd60e51b815260206004820152600f60248201526e50424620616363657373206f6e6c7960881b6044820152606490fd5b818110611e78575050565b5f8155600101611e6d565b8054905f815581611e92575050565b5f5260205f20908101905b818110611ea8575050565b80611eb560019254611a76565b80611ec2575b5001611e9d565b601f81118314611ed757505f81555b5f611ebb565b611ef390825f5283601f60205f20920160051c82019101611e6d565b805f525f6020812081835555611ed1565b91909182516001600160401b0381116117c157611f218254611a76565b601f8111611fc1575b506020601f8211600114611f6357819293945f92611f58575b50508160011b915f199060031b1c1916179055565b015190505f80611f43565b601f19821690835f52805f20915f5b818110611fa957509583600195969710611f91575b505050811b019055565b01515f1960f88460031b161c191690555f8080611f87565b9192602060018192868b015181550194019201611f72565b611fec90835f5260205f20601f840160051c81019160208510611ff2575b601f0160051c0190611e6d565b5f611f2a565b9091508190611fdf565b8054600160401b8110156117c15761201991600182018155611a61565b91909161202b5761202991611f04565b565b634e487b7160e01b5f525f60045260245ffd5b909161205561199393604084526040840190611aae565b916020818403910152611a09565b81601f820112156115dc5780519061207a8261182c565b92612088604051948561180b565b828452602083830101116115dc57815f9260208093018386015e8301015290565b6020818303126115dc578051906001600160401b0382116115dc57019080601f830112156115dc578151916120dd83611b2f565b926120eb604051948561180b565b80845260208085019160051b830101918383116115dc5760208101915b83831061211757505050505090565b82516001600160401b0381116115dc5782019060e0828703601f1901126115dc576040519060e082018281106001600160401b038211176117c15760405260208301516001600160401b0381116115dc5787602061217792860101612063565b825260408301516001600160401b0381116115dc5787602061219b92860101612063565b602083015260608301516001600160401b0381116115dc578760206121c292860101612063565b604083015260808301516001600160401b0381116115dc578760206121e992860101612063565b606083015260a083015160ff811681036115dc57608083015260c083015160028110156115dc5760a083015260e0830151916001600160401b0383116115dc5761223b88602080969581960101612063565b60c0820152815201920191612108565b60025f541461225a5760025f55565b633ee5aeb560e01b5f5260045ffd5b6123c06020807f1d1b0398fce0e5341c30c157d9d5b2976f5dcce30f83882d674ebcd6839ce24f93612299611d21565b50604051928184925191829101835e810160038152030190206040516122be816117a5565b6040516122cf81610d9e8186611aae565b81526040516122e581610d9e8160018701611aae565b60208201526123ea60405192612309846123028160028501611aae565b038561180b565b604083019384526123dc6040519161232f836123288160038501611aae565b038461180b565b606085019283526123ce60ff806004840154169460808801958652600a61010061235b60058701611dd5565b9960a081019a8b5261239d61237260078901611dd5565b9760c0830198895261238d8760098301541660e08501611e0b565b6123286040518096819301611aae565b01525197519651519251519451169560405198899860c08a5260c08a019061188d565b9088820360208a015261188d565b90868203604088015261188d565b90848203606086015261188d565b9060808301524260a08301520390a156fea264697066735822122080d7d60b421e42cea1b4e3b1dcfdc57c1bacfd33c6e84a769ca0c016034826f764736f6c634300081b0033","opcodes":"PUSH1 0xE0 CALLVALUE PUSH2 0xFA JUMPI PUSH1 0x1F PUSH2 0x2558 CODESIZE DUP2 SWAP1 SUB SWAP2 DUP3 ADD PUSH1 0x1F NOT AND DUP4 ADD SWAP2 PUSH1 0x1 PUSH1 0x1 PUSH1 0x40 SHL SUB DUP4 GT DUP5 DUP5 LT OR PUSH2 0xFE JUMPI DUP1 DUP5 SWAP3 PUSH1 0x60 SWAP5 PUSH1 0x40 MSTORE DUP4 CODECOPY DUP2 ADD SUB SLT PUSH2 0xFA JUMPI PUSH2 0x47 DUP2 PUSH2 0x112 JUMP JUMPDEST SWAP1 PUSH2 0x60 PUSH1 0x40 PUSH2 0x59 PUSH1 0x20 DUP5 ADD PUSH2 0x112 JUMP JUMPDEST SWAP3 ADD PUSH2 0x112 JUMP JUMPDEST PUSH1 0x1 PUSH0 SSTORE PUSH1 0x1 PUSH1 0x1 PUSH1 0xA0 SHL SUB SWAP3 DUP4 AND PUSH1 0x80 MSTORE SWAP1 DUP3 AND PUSH1 0xA0 MSTORE AND PUSH1 0xC0 MSTORE PUSH1 0x40 MLOAD PUSH2 0x2431 SWAP1 DUP2 PUSH2 0x127 DUP3 CODECOPY PUSH1 0x80 MLOAD DUP2 DUP2 DUP2 PUSH2 0x29B ADD MSTORE DUP2 DUP2 PUSH2 0x703 ADD MSTORE DUP2 DUP2 PUSH2 0xAC0 ADD MSTORE DUP2 DUP2 PUSH2 0xF06 ADD MSTORE DUP2 DUP2 PUSH2 0x11F1 ADD MSTORE PUSH2 0x1776 ADD MSTORE PUSH1 0xA0 MLOAD DUP2 DUP2 DUP2 PUSH2 0x4C3 ADD MSTORE DUP2 DUP2 PUSH2 0x656 ADD MSTORE DUP2 DUP2 PUSH2 0x7E4 ADD MSTORE DUP2 DUP2 PUSH2 0xB7E ADD MSTORE DUP2 DUP2 PUSH2 0xE84 ADD MSTORE DUP2 DUP2 PUSH2 0xFCD ADD MSTORE DUP2 DUP2 PUSH2 0x12CB ADD MSTORE PUSH2 0x153E ADD MSTORE PUSH1 0xC0 MLOAD DUP2 PUSH2 0xCF4 ADD MSTORE RETURN JUMPDEST PUSH0 DUP1 REVERT JUMPDEST PUSH4 0x4E487B71 PUSH1 0xE0 SHL PUSH0 MSTORE PUSH1 0x41 PUSH1 0x4 MSTORE PUSH1 0x24 PUSH0 REVERT JUMPDEST MLOAD SWAP1 PUSH1 0x1 PUSH1 0x1 PUSH1 0xA0 SHL SUB DUP3 AND DUP3 SUB PUSH2 0xFA JUMPI JUMP INVALID PUSH1 0x80 DUP1 PUSH1 0x40 MSTORE PUSH1 0x4 CALLDATASIZE LT ISZERO PUSH2 0x12 JUMPI PUSH0 DUP1 REVERT JUMPDEST PUSH0 SWAP1 PUSH0 CALLDATALOAD PUSH1 0xE0 SHR SWAP1 DUP2 PUSH3 0x435DA5 EQ PUSH2 0x1764 JUMPI POP DUP1 PUSH4 0x1C2FC292 EQ PUSH2 0x1697 JUMPI DUP1 PUSH4 0x271962D4 EQ PUSH2 0x15E0 JUMPI DUP1 PUSH4 0x2BF05E9B EQ PUSH2 0x156D JUMPI DUP1 PUSH4 0x3FCA88CB EQ PUSH2 0x1528 JUMPI DUP1 PUSH4 0x60E4B3CF EQ PUSH2 0x1423 JUMPI DUP1 PUSH4 0x64484AC9 EQ PUSH2 0x11B8 JUMPI DUP1 PUSH4 0x756B460F EQ PUSH2 0xECD JUMPI DUP1 PUSH4 0x906CE017 EQ PUSH2 0xE5F JUMPI DUP1 PUSH4 0x986A0790 EQ PUSH2 0xD23 JUMPI DUP1 PUSH4 0xAF3A1758 EQ PUSH2 0xCDE JUMPI DUP1 PUSH4 0xAF9BF53D EQ PUSH2 0xA8F JUMPI DUP1 PUSH4 0xB711E82B EQ PUSH2 0x9EA JUMPI DUP1 PUSH4 0xE1336DA5 EQ PUSH2 0x993 JUMPI DUP1 PUSH4 0xEE399ED4 EQ PUSH2 0x6D2 JUMPI DUP1 PUSH4 0xF07B2C7A EQ PUSH2 0x5FB JUMPI PUSH4 0xFC0E6523 EQ PUSH2 0xD8 JUMPI PUSH0 DUP1 REVERT JUMPDEST CALLVALUE PUSH2 0x5F8 JUMPI PUSH2 0x120 CALLDATASIZE PUSH1 0x3 NOT ADD SLT PUSH2 0x5F8 JUMPI PUSH1 0x4 CALLDATALOAD PUSH1 0x1 PUSH1 0x1 PUSH1 0x40 SHL SUB DUP2 GT PUSH2 0x578 JUMPI PUSH2 0x109 SWAP1 CALLDATASIZE SWAP1 PUSH1 0x4 ADD PUSH2 0x1847 JUMP JUMPDEST PUSH1 0x24 CALLDATALOAD PUSH1 0x1 PUSH1 0x1 PUSH1 0x40 SHL SUB DUP2 GT PUSH2 0x5F6 JUMPI PUSH2 0x128 SWAP1 CALLDATASIZE SWAP1 PUSH1 0x4 ADD PUSH2 0x1847 JUMP JUMPDEST SWAP1 PUSH1 0x44 CALLDATALOAD PUSH1 0x1 PUSH1 0x1 PUSH1 0x40 SHL SUB DUP2 GT PUSH2 0x5F2 JUMPI PUSH2 0x148 SWAP1 CALLDATASIZE SWAP1 PUSH1 0x4 ADD PUSH2 0x1847 JUMP JUMPDEST SWAP1 PUSH1 0x64 CALLDATALOAD PUSH1 0x1 PUSH1 0x1 PUSH1 0x40 SHL SUB DUP2 GT PUSH2 0x5EE JUMPI PUSH2 0x168 SWAP1 CALLDATASIZE SWAP1 PUSH1 0x4 ADD PUSH2 0x1847 JUMP JUMPDEST PUSH1 0x84 CALLDATALOAD PUSH1 0x1 PUSH1 0x1 PUSH1 0x40 SHL SUB DUP2 GT PUSH2 0x5EA JUMPI PUSH2 0x187 SWAP1 CALLDATASIZE SWAP1 PUSH1 0x4 ADD PUSH2 0x1847 JUMP JUMPDEST SWAP1 PUSH1 0xA4 CALLDATALOAD PUSH1 0x1 PUSH1 0x1 PUSH1 0x40 SHL SUB DUP2 GT PUSH2 0x5E6 JUMPI PUSH2 0x1A7 SWAP1 CALLDATASIZE SWAP1 PUSH1 0x4 ADD PUSH2 0x1847 JUMP JUMPDEST PUSH1 0xC4 CALLDATALOAD PUSH1 0x1 PUSH1 0x1 PUSH1 0x40 SHL SUB DUP2 GT PUSH2 0x5E2 JUMPI PUSH2 0x1C6 SWAP1 CALLDATASIZE SWAP1 PUSH1 0x4 ADD PUSH2 0x1847 JUMP JUMPDEST SWAP2 PUSH1 0xE4 CALLDATALOAD SWAP1 PUSH1 0xFF DUP3 AND DUP1 SWAP3 SUB PUSH2 0x567 JUMPI PUSH2 0x104 CALLDATALOAD PUSH1 0x1 PUSH1 0x1 PUSH1 0x40 SHL SUB DUP2 GT PUSH2 0x5DE JUMPI PUSH2 0x1F6 SWAP1 CALLDATASIZE SWAP1 PUSH1 0x4 ADD PUSH2 0x1847 JUMP JUMPDEST SWAP5 PUSH2 0x1FF PUSH2 0x224B JUMP JUMPDEST PUSH1 0x1 SLOAD PUSH1 0x1 PUSH1 0x40 SHL DUP2 LT ISZERO PUSH2 0x5CA JUMPI DUP1 PUSH1 0x1 PUSH2 0x220 SWAP3 ADD PUSH1 0x1 SSTORE PUSH1 0x1 PUSH2 0x1A61 JUMP JUMPDEST PUSH2 0x5B6 JUMPI DUP10 PUSH2 0x22E SWAP2 PUSH2 0x1F04 JUMP JUMPDEST PUSH2 0x24F DUP10 PUSH1 0x40 MLOAD PUSH1 0x20 DUP2 DUP9 MLOAD DUP1 DUP4 DUP12 ADD DUP4 MCOPY DUP2 ADD PUSH1 0x5 DUP2 MSTORE SUB ADD SWAP1 KECCAK256 PUSH2 0x1FFC JUMP JUMPDEST PUSH2 0x270 DUP10 PUSH1 0x40 MLOAD PUSH1 0x20 DUP2 DUP10 MLOAD DUP1 DUP4 DUP13 ADD DUP4 MCOPY DUP2 ADD PUSH1 0x6 DUP2 MSTORE SUB ADD SWAP1 KECCAK256 PUSH2 0x1FFC JUMP JUMPDEST PUSH1 0x40 MLOAD PUSH4 0x95A8C58D PUSH1 0xE0 SHL DUP2 MSTORE CALLER PUSH1 0x4 DUP3 ADD MSTORE PUSH1 0x1 PUSH1 0x24 DUP3 ADD MSTORE SWAP6 PUSH1 0x20 DUP8 PUSH1 0x44 DUP2 PUSH1 0x1 PUSH1 0x1 PUSH1 0xA0 SHL SUB PUSH32 0x0 AND GAS STATICCALL DUP1 ISZERO PUSH2 0x5AB JUMPI DUP11 SWAP8 DUP13 SWAP2 PUSH2 0x57C JUMPI JUMPDEST POP PUSH2 0x4BE JUMPI JUMPDEST POP PUSH1 0x40 MLOAD PUSH2 0x2DF DUP2 PUSH2 0x17D5 JUMP JUMPDEST TIMESTAMP DUP2 MSTORE PUSH1 0x20 DUP2 ADD DUP12 DUP2 MSTORE PUSH1 0x40 DUP3 ADD SWAP1 DUP13 DUP3 MSTORE PUSH1 0x40 MLOAD DUP1 DUP11 MLOAD SWAP11 PUSH1 0x20 ADD SWAP11 DUP1 DUP13 DUP4 MCOPY DUP2 ADD PUSH1 0x4 DUP2 MSTORE SUB PUSH1 0x20 ADD SWAP1 KECCAK256 SWAP3 MLOAD DUP4 SSTORE MLOAD PUSH1 0x1 DUP4 ADD SSTORE MLOAD SWAP1 PUSH1 0x2 ADD SSTORE PUSH2 0x324 PUSH2 0x1D08 JUMP JUMPDEST POP PUSH1 0x40 MLOAD SWAP4 PUSH2 0x332 DUP6 PUSH2 0x17F0 JUMP JUMPDEST DUP5 MSTORE CALLER PUSH1 0x20 DUP6 ADD MSTORE PUSH2 0x342 PUSH2 0x1D08 JUMP JUMPDEST POP PUSH1 0x40 MLOAD SWAP5 PUSH2 0x350 DUP7 PUSH2 0x17F0 JUMP JUMPDEST DUP6 MSTORE DUP10 PUSH1 0x20 DUP7 ADD MSTORE PUSH1 0x40 MLOAD SWAP8 PUSH2 0x365 DUP10 PUSH2 0x17A5 JUMP JUMPDEST DUP10 DUP10 MSTORE PUSH1 0x20 DUP10 ADD SWAP1 DUP2 MSTORE PUSH1 0x40 DUP10 ADD SWAP2 DUP3 MSTORE PUSH1 0x60 DUP10 ADD SWAP3 DUP4 MSTORE PUSH1 0x80 DUP10 ADD SWAP4 DUP5 MSTORE PUSH1 0xA0 DUP10 ADD SWAP5 DUP6 MSTORE PUSH1 0xC0 DUP10 ADD SWAP6 DUP7 MSTORE PUSH1 0xE0 DUP10 ADD SWAP7 DUP12 DUP9 MSTORE PUSH2 0x100 DUP11 ADD SWAP9 DUP10 MSTORE PUSH1 0x40 MLOAD DUP1 SWAP2 DUP13 MLOAD DUP1 SWAP2 DUP4 MCOPY DUP2 ADD PUSH1 0x3 DUP2 MSTORE SUB PUSH1 0x20 ADD SWAP1 KECCAK256 SWAP9 MLOAD PUSH2 0x3C5 SWAP1 DUP11 PUSH2 0x1F04 JUMP JUMPDEST MLOAD PUSH2 0x3D3 SWAP1 PUSH1 0x1 DUP11 ADD PUSH2 0x1F04 JUMP JUMPDEST MLOAD PUSH2 0x3E1 SWAP1 PUSH1 0x2 DUP10 ADD PUSH2 0x1F04 JUMP JUMPDEST MLOAD PUSH2 0x3EF SWAP1 PUSH1 0x3 DUP9 ADD PUSH2 0x1F04 JUMP JUMPDEST PUSH1 0x4 DUP7 ADD SWAP1 MLOAD PUSH1 0xFF AND PUSH1 0xFF NOT DUP3 SLOAD AND OR SWAP1 SSTORE MLOAD DUP1 MLOAD PUSH1 0x5 DUP7 ADD SWAP1 PUSH2 0x412 SWAP2 PUSH2 0x1F04 JUMP JUMPDEST PUSH1 0x20 ADD MLOAD PUSH1 0x6 DUP6 ADD DUP1 SLOAD PUSH1 0x1 PUSH1 0x1 PUSH1 0xA0 SHL SUB NOT AND PUSH1 0x1 PUSH1 0x1 PUSH1 0xA0 SHL SUB SWAP3 SWAP1 SWAP3 AND SWAP2 SWAP1 SWAP2 OR SWAP1 SSTORE MLOAD DUP1 MLOAD PUSH2 0x448 SWAP1 PUSH1 0x7 DUP7 ADD PUSH2 0x1F04 JUMP JUMPDEST PUSH1 0x20 ADD MLOAD PUSH1 0x8 DUP5 ADD DUP1 SLOAD PUSH1 0x1 PUSH1 0x1 PUSH1 0xA0 SHL SUB NOT AND PUSH1 0x1 PUSH1 0x1 PUSH1 0xA0 SHL SUB SWAP3 SWAP1 SWAP3 AND SWAP2 SWAP1 SWAP2 OR SWAP1 SSTORE MLOAD PUSH1 0x9 DUP4 ADD SWAP1 PUSH1 0x3 DUP2 LT ISZERO PUSH2 0x4AA JUMPI PUSH2 0x49E SWAP3 PUSH2 0x4A3 SWAP6 SWAP5 SWAP3 PUSH1 0xA SWAP3 PUSH1 0xFF DUP1 NOT DUP4 SLOAD AND SWAP2 AND OR SWAP1 SSTORE MLOAD SWAP2 ADD PUSH2 0x1F04 JUMP JUMPDEST PUSH2 0x2269 JUMP JUMPDEST PUSH1 0x1 DUP2 SSTORE DUP1 RETURN JUMPDEST PUSH4 0x4E487B71 PUSH1 0xE0 SHL DUP7 MSTORE PUSH1 0x21 PUSH1 0x4 MSTORE PUSH1 0x24 DUP7 REVERT JUMPDEST SWAP6 POP DUP10 PUSH32 0x0 PUSH1 0x1 PUSH1 0x1 PUSH1 0xA0 SHL SUB AND DUP1 EXTCODESIZE ISZERO PUSH2 0x578 JUMPI PUSH2 0x534 SWAP8 DUP3 SWAP2 PUSH2 0x522 DUP4 DUP14 PUSH1 0x40 MLOAD SWAP13 DUP14 SWAP6 DUP7 SWAP5 DUP6 SWAP4 PUSH4 0x31CB1CC5 PUSH1 0xE2 SHL DUP6 MSTORE PUSH1 0x40 PUSH1 0x4 DUP7 ADD MSTORE PUSH1 0x44 DUP6 ADD SWAP1 PUSH2 0x188D JUMP JUMPDEST DUP4 DUP2 SUB PUSH1 0x3 NOT ADD PUSH1 0x24 DUP6 ADD MSTORE SWAP1 PUSH2 0x188D JUMP JUMPDEST SUB SWAP3 GAS CALL SWAP7 DUP8 ISZERO PUSH2 0x56B JUMPI DUP11 SWAP8 PUSH2 0x54C JUMPI JUMPDEST POP PUSH2 0x2D2 JUMP JUMPDEST DUP2 SWAP3 SWAP8 POP SWAP1 PUSH2 0x55A SWAP2 PUSH2 0x180B JUMP JUMPDEST PUSH2 0x567 JUMPI DUP8 SWAP5 DUP10 PUSH0 PUSH2 0x546 JUMP JUMPDEST DUP9 DUP1 REVERT JUMPDEST POP PUSH1 0x40 MLOAD SWAP1 RETURNDATASIZE SWAP1 DUP3 RETURNDATACOPY RETURNDATASIZE SWAP1 REVERT JUMPDEST POP DUP1 REVERT JUMPDEST PUSH2 0x59E SWAP2 POP PUSH1 0x20 RETURNDATASIZE PUSH1 0x20 GT PUSH2 0x5A4 JUMPI JUMPDEST PUSH2 0x596 DUP2 DUP4 PUSH2 0x180B JUMP JUMPDEST DUP2 ADD SWAP1 PUSH2 0x1E17 JUMP JUMPDEST PUSH0 PUSH2 0x2CC JUMP JUMPDEST POP RETURNDATASIZE PUSH2 0x58C JUMP JUMPDEST PUSH1 0x40 MLOAD RETURNDATASIZE DUP14 DUP3 RETURNDATACOPY RETURNDATASIZE SWAP1 REVERT JUMPDEST PUSH4 0x4E487B71 PUSH1 0xE0 SHL DUP12 MSTORE PUSH1 0x4 DUP12 SWAP1 MSTORE PUSH1 0x24 DUP12 REVERT JUMPDEST PUSH4 0x4E487B71 PUSH1 0xE0 SHL DUP12 MSTORE PUSH1 0x41 PUSH1 0x4 MSTORE PUSH1 0x24 DUP12 REVERT JUMPDEST DUP10 DUP1 REVERT JUMPDEST DUP8 DUP1 REVERT JUMPDEST DUP7 DUP1 REVERT JUMPDEST DUP6 DUP1 REVERT JUMPDEST DUP5 DUP1 REVERT JUMPDEST DUP4 DUP1 REVERT JUMPDEST DUP3 JUMPDEST DUP1 REVERT JUMPDEST POP CALLVALUE PUSH2 0x5F8 JUMPI PUSH1 0x20 CALLDATASIZE PUSH1 0x3 NOT ADD SLT PUSH2 0x5F8 JUMPI PUSH1 0x4 CALLDATALOAD DUP2 PUSH1 0x1 PUSH1 0x1 PUSH1 0x40 SHL SUB DUP3 GT PUSH2 0x5F8 JUMPI PUSH2 0x630 PUSH2 0x652 SWAP3 CALLDATASIZE SWAP1 PUSH1 0x4 ADD PUSH2 0x1847 JUMP JUMPDEST PUSH1 0x40 MLOAD DUP1 SWAP4 DUP2 SWAP3 PUSH4 0x783D963D PUSH1 0xE1 SHL DUP4 MSTORE PUSH1 0x20 PUSH1 0x4 DUP5 ADD MSTORE PUSH1 0x24 DUP4 ADD SWAP1 PUSH2 0x188D JUMP JUMPDEST SUB DUP2 PUSH32 0x0 PUSH1 0x1 PUSH1 0x1 PUSH1 0xA0 SHL SUB AND GAS STATICCALL SWAP1 DUP2 ISZERO PUSH2 0x6C7 JUMPI DUP3 PUSH2 0x6A0 SWAP4 SWAP3 PUSH2 0x6A4 JUMPI JUMPDEST POP POP PUSH1 0x40 MLOAD SWAP2 DUP3 SWAP2 DUP3 PUSH2 0x1C06 JUMP JUMPDEST SUB SWAP1 RETURN JUMPDEST PUSH2 0x6C0 SWAP3 POP RETURNDATASIZE DUP1 SWAP2 DUP4 RETURNDATACOPY PUSH2 0x6B8 DUP2 DUP4 PUSH2 0x180B JUMP JUMPDEST DUP2 ADD SWAP1 PUSH2 0x20A9 JUMP JUMPDEST PUSH0 DUP1 PUSH2 0x692 JUMP JUMPDEST PUSH1 0x40 MLOAD RETURNDATASIZE DUP5 DUP3 RETURNDATACOPY RETURNDATASIZE SWAP1 REVERT JUMPDEST POP CALLVALUE PUSH2 0x5F8 JUMPI PUSH2 0x6E1 CALLDATASIZE PUSH2 0x1B46 JUMP JUMPDEST PUSH1 0x40 MLOAD PUSH4 0x95A8C58D PUSH1 0xE0 SHL DUP2 MSTORE CALLER PUSH1 0x4 DUP3 ADD MSTORE PUSH1 0x24 DUP2 ADD DUP5 SWAP1 MSTORE PUSH1 0x20 DUP2 PUSH1 0x44 DUP2 PUSH32 0x0 PUSH1 0x1 PUSH1 0x1 PUSH1 0xA0 SHL SUB AND GAS STATICCALL SWAP1 DUP2 ISZERO PUSH2 0x988 JUMPI DUP5 SWAP2 PUSH2 0x969 JUMPI JUMPDEST POP ISZERO PUSH2 0x92F JUMPI DUP3 SWAP1 PUSH2 0x74B PUSH2 0x224B JUMP JUMPDEST DUP1 MLOAD PUSH1 0x40 MLOAD SWAP1 DUP5 MLOAD SWAP2 PUSH1 0x20 DUP2 DUP2 DUP9 ADD SWAP5 DUP1 DUP7 DUP4 MCOPY DUP2 ADD PUSH1 0x3 DUP2 MSTORE SUB ADD SWAP1 KECCAK256 SWAP2 PUSH1 0x8 DUP4 ADD PUSH1 0x1 DUP1 PUSH1 0xA0 SHL SUB CALLER AND PUSH12 0xFFFFFFFFFFFFFFFFFFFFFFFF PUSH1 0xA0 SHL DUP3 SLOAD AND OR SWAP1 SSTORE PUSH1 0x9 DUP4 ADD PUSH1 0x1 PUSH1 0xFF NOT DUP3 SLOAD AND OR SWAP1 SSTORE PUSH1 0x40 MLOAD PUSH1 0x1 DUP8 MLOAD DUP1 DUP5 DUP5 MCOPY DUP3 ADD SWAP2 PUSH1 0x4 DUP4 MSTORE PUSH1 0x20 DUP2 TIMESTAMP SWAP5 SUB ADD SWAP1 KECCAK256 ADD SSTORE PUSH2 0x7D7 PUSH1 0x40 MLOAD PUSH1 0x20 DUP2 DUP10 MLOAD DUP1 DUP7 DUP4 MCOPY DUP2 ADD PUSH1 0x2 DUP2 MSTORE SUB ADD SWAP1 KECCAK256 PUSH2 0x1E83 JUMP JUMPDEST DUP5 JUMPDEST DUP3 DUP2 LT PUSH2 0x8F1 JUMPI POP POP PUSH32 0x0 PUSH1 0x1 PUSH1 0x1 PUSH1 0xA0 SHL SUB AND SWAP3 PUSH1 0x3 DUP4 ADD SWAP3 SWAP1 SWAP2 POP DUP4 EXTCODESIZE ISZERO PUSH2 0x5EE JUMPI DUP5 PUSH2 0x84A PUSH2 0x85C SWAP3 PUSH1 0x40 MLOAD SWAP4 DUP5 SWAP3 DUP4 SWAP3 PUSH4 0x871811F1 PUSH1 0xE0 SHL DUP5 MSTORE PUSH1 0x60 PUSH1 0x4 DUP6 ADD MSTORE PUSH1 0x1 PUSH1 0x64 DUP6 ADD SWAP2 ADD PUSH2 0x1AAE JUMP JUMPDEST DUP3 DUP2 SUB PUSH1 0x3 NOT ADD PUSH1 0x24 DUP5 ADD MSTORE DUP8 PUSH2 0x1AAE JUMP JUMPDEST PUSH1 0x1 PUSH1 0x44 DUP4 ADD MSTORE SUB DUP2 DUP4 DUP9 GAS CALL SWAP1 DUP2 ISZERO PUSH2 0x8E6 JUMPI DUP6 SWAP2 PUSH2 0x8D1 JUMPI JUMPDEST POP POP DUP3 EXTCODESIZE ISZERO PUSH2 0x5F2 JUMPI PUSH2 0x8A3 SWAP3 DUP5 SWAP3 DUP4 PUSH1 0x40 MLOAD DUP1 SWAP7 DUP2 SWAP6 DUP3 SWAP5 PUSH4 0x29A2AC27 PUSH1 0xE1 SHL DUP5 MSTORE PUSH1 0x4 DUP5 ADD PUSH2 0x203E JUMP JUMPDEST SUB SWAP3 GAS CALL DUP1 ISZERO PUSH2 0x6C7 JUMPI PUSH2 0x8BC JUMPI JUMPDEST POP PUSH2 0x4A3 DUP3 PUSH2 0x2269 JUMP JUMPDEST DUP2 PUSH2 0x8C6 SWAP2 PUSH2 0x180B JUMP JUMPDEST PUSH2 0x578 JUMPI DUP2 PUSH0 PUSH2 0x8B2 JUMP JUMPDEST DUP2 PUSH2 0x8DB SWAP2 PUSH2 0x180B JUMP JUMPDEST PUSH2 0x5F2 JUMPI DUP4 PUSH0 PUSH2 0x877 JUMP JUMPDEST PUSH1 0x40 MLOAD RETURNDATASIZE DUP8 DUP3 RETURNDATACOPY RETURNDATASIZE SWAP1 REVERT JUMPDEST PUSH1 0x1 SWAP2 SWAP3 SWAP4 SWAP5 SWAP6 POP PUSH2 0x923 PUSH1 0x40 MLOAD PUSH1 0x20 DUP2 DUP11 MLOAD DUP1 DUP9 DUP4 MCOPY DUP2 ADD PUSH1 0x2 DUP2 MSTORE SUB ADD SWAP1 KECCAK256 PUSH2 0x91C DUP4 DUP10 PUSH2 0x1DC1 JUMP JUMPDEST MLOAD SWAP1 PUSH2 0x1FFC JUMP JUMPDEST ADD SWAP1 DUP7 SWAP5 SWAP4 SWAP3 SWAP2 PUSH2 0x7D9 JUMP JUMPDEST PUSH1 0x40 MLOAD PUSH3 0x461BCD PUSH1 0xE5 SHL DUP2 MSTORE PUSH1 0x20 PUSH1 0x4 DUP3 ADD MSTORE PUSH1 0x12 PUSH1 0x24 DUP3 ADD MSTORE PUSH18 0x50616272696B20616363657373206F6E6C79 PUSH1 0x70 SHL PUSH1 0x44 DUP3 ADD MSTORE PUSH1 0x64 SWAP1 REVERT JUMPDEST PUSH2 0x982 SWAP2 POP PUSH1 0x20 RETURNDATASIZE PUSH1 0x20 GT PUSH2 0x5A4 JUMPI PUSH2 0x596 DUP2 DUP4 PUSH2 0x180B JUMP JUMPDEST PUSH0 PUSH2 0x73B JUMP JUMPDEST PUSH1 0x40 MLOAD RETURNDATASIZE DUP7 DUP3 RETURNDATACOPY RETURNDATASIZE SWAP1 REVERT JUMPDEST POP CALLVALUE PUSH2 0x5F8 JUMPI PUSH1 0x20 CALLDATASIZE PUSH1 0x3 NOT ADD SLT PUSH2 0x5F8 JUMPI PUSH1 0x4 CALLDATALOAD DUP2 PUSH1 0x1 PUSH1 0x1 PUSH1 0x40 SHL SUB DUP3 GT PUSH2 0x5F8 JUMPI PUSH2 0x9C8 PUSH2 0x652 SWAP3 CALLDATASIZE SWAP1 PUSH1 0x4 ADD PUSH2 0x1847 JUMP JUMPDEST PUSH1 0x40 MLOAD DUP1 SWAP4 DUP2 SWAP3 PUSH4 0xE1336DA5 PUSH1 0xE0 SHL DUP4 MSTORE PUSH1 0x20 PUSH1 0x4 DUP5 ADD MSTORE PUSH1 0x24 DUP4 ADD SWAP1 PUSH2 0x188D JUMP JUMPDEST POP CALLVALUE PUSH2 0x5F8 JUMPI PUSH1 0x20 CALLDATASIZE PUSH1 0x3 NOT ADD SLT PUSH2 0x5F8 JUMPI PUSH1 0x4 CALLDATALOAD PUSH1 0x1 PUSH1 0x1 PUSH1 0x40 SHL SUB DUP2 GT PUSH2 0x578 JUMPI PUSH1 0x20 PUSH1 0x60 SWAP3 PUSH2 0xA21 DUP3 SWAP4 CALLDATASIZE SWAP1 PUSH1 0x4 ADD PUSH2 0x1847 JUMP JUMPDEST SWAP1 PUSH1 0x40 DUP1 MLOAD PUSH2 0xA2F DUP2 PUSH2 0x17D5 JUMP JUMPDEST DUP3 DUP2 MSTORE DUP3 DUP6 DUP3 ADD MSTORE ADD MSTORE PUSH1 0x40 MLOAD SWAP3 DUP2 DUP5 SWAP3 MLOAD SWAP2 DUP3 SWAP2 ADD DUP4 MCOPY DUP2 ADD PUSH1 0x4 DUP2 MSTORE SUB ADD SWAP1 KECCAK256 PUSH1 0x40 MLOAD PUSH2 0xA5D DUP2 PUSH2 0x17D5 JUMP JUMPDEST DUP2 SLOAD SWAP2 DUP3 DUP3 MSTORE PUSH1 0x40 PUSH1 0x2 PUSH1 0x1 DUP4 ADD SLOAD SWAP3 PUSH1 0x20 DUP6 ADD SWAP4 DUP5 MSTORE ADD SLOAD SWAP3 ADD SWAP2 DUP3 MSTORE PUSH1 0x40 MLOAD SWAP3 DUP4 MSTORE MLOAD PUSH1 0x20 DUP4 ADD MSTORE MLOAD PUSH1 0x40 DUP3 ADD MSTORE RETURN JUMPDEST POP CALLVALUE PUSH2 0x5F8 JUMPI PUSH2 0xA9E CALLDATASIZE PUSH2 0x1B46 JUMP JUMPDEST PUSH1 0x40 MLOAD PUSH4 0x95A8C58D PUSH1 0xE0 SHL DUP2 MSTORE CALLER PUSH1 0x4 DUP3 ADD MSTORE PUSH1 0x3 PUSH1 0x24 DUP3 ADD MSTORE PUSH1 0x20 DUP2 PUSH1 0x44 DUP2 PUSH32 0x0 PUSH1 0x1 PUSH1 0x1 PUSH1 0xA0 SHL SUB AND GAS STATICCALL SWAP1 DUP2 ISZERO PUSH2 0x988 JUMPI DUP5 SWAP2 PUSH2 0xCBF JUMPI JUMPDEST POP ISZERO PUSH2 0xC83 JUMPI DUP3 SWAP1 PUSH2 0xB08 PUSH2 0x224B JUMP JUMPDEST DUP1 MLOAD PUSH1 0x40 MLOAD SWAP1 DUP5 MLOAD SWAP2 PUSH1 0x20 DUP2 DUP2 DUP9 ADD SWAP5 DUP1 DUP7 DUP4 MCOPY DUP2 ADD PUSH1 0x3 DUP2 MSTORE SUB ADD SWAP1 KECCAK256 SWAP2 PUSH1 0x9 DUP4 ADD PUSH1 0x2 PUSH1 0xFF NOT DUP3 SLOAD AND OR SWAP1 SSTORE PUSH1 0x40 MLOAD PUSH1 0x2 DUP8 MLOAD DUP1 DUP5 DUP5 MCOPY DUP3 ADD SWAP2 PUSH1 0x4 DUP4 MSTORE PUSH1 0x20 DUP2 TIMESTAMP SWAP5 SUB ADD SWAP1 KECCAK256 ADD SSTORE PUSH2 0xB71 PUSH1 0x40 MLOAD PUSH1 0x20 DUP2 DUP10 MLOAD DUP1 DUP7 DUP4 MCOPY DUP2 ADD PUSH1 0x2 DUP2 MSTORE SUB ADD SWAP1 KECCAK256 PUSH2 0x1E83 JUMP JUMPDEST DUP5 JUMPDEST DUP3 DUP2 LT PUSH2 0xC4C JUMPI POP POP PUSH32 0x0 PUSH1 0x1 PUSH1 0x1 PUSH1 0xA0 SHL SUB AND SWAP3 PUSH1 0x3 DUP4 ADD SWAP3 SWAP1 SWAP2 POP DUP4 EXTCODESIZE ISZERO PUSH2 0x5EE JUMPI PUSH1 0x40 MLOAD PUSH4 0x30B3E0EF PUSH1 0xE2 SHL DUP2 MSTORE PUSH1 0x40 PUSH1 0x4 DUP3 ADD MSTORE DUP6 DUP2 DUP1 PUSH2 0xBDA PUSH1 0x44 DUP3 ADD DUP9 PUSH2 0x1AAE JUMP JUMPDEST PUSH1 0x1 PUSH1 0x24 DUP4 ADD MSTORE SUB DUP2 DUP4 DUP10 GAS CALL SWAP1 DUP2 ISZERO PUSH2 0xC41 JUMPI DUP7 SWAP2 PUSH2 0xC2C JUMPI JUMPDEST POP POP DUP4 EXTCODESIZE ISZERO PUSH2 0x5EE JUMPI DUP5 PUSH2 0x84A PUSH2 0x85C SWAP3 PUSH1 0x40 MLOAD SWAP4 DUP5 SWAP3 DUP4 SWAP3 PUSH4 0x871811F1 PUSH1 0xE0 SHL DUP5 MSTORE PUSH1 0x60 PUSH1 0x4 DUP6 ADD MSTORE PUSH1 0x1 PUSH1 0x64 DUP6 ADD SWAP2 ADD PUSH2 0x1AAE JUMP JUMPDEST DUP2 PUSH2 0xC36 SWAP2 PUSH2 0x180B JUMP JUMPDEST PUSH2 0x5EE JUMPI DUP5 PUSH0 PUSH2 0xBF5 JUMP JUMPDEST PUSH1 0x40 MLOAD RETURNDATASIZE DUP9 DUP3 RETURNDATACOPY RETURNDATASIZE SWAP1 REVERT JUMPDEST PUSH1 0x1 SWAP2 SWAP3 SWAP4 SWAP5 SWAP6 POP PUSH2 0xC77 PUSH1 0x40 MLOAD PUSH1 0x20 DUP2 DUP11 MLOAD DUP1 DUP9 DUP4 MCOPY DUP2 ADD PUSH1 0x2 DUP2 MSTORE SUB ADD SWAP1 KECCAK256 PUSH2 0x91C DUP4 DUP10 PUSH2 0x1DC1 JUMP JUMPDEST ADD SWAP1 DUP7 SWAP5 SWAP4 SWAP3 SWAP2 PUSH2 0xB73 JUMP JUMPDEST PUSH1 0x40 MLOAD PUSH3 0x461BCD PUSH1 0xE5 SHL DUP2 MSTORE PUSH1 0x20 PUSH1 0x4 DUP3 ADD MSTORE PUSH1 0x14 PUSH1 0x24 DUP3 ADD MSTORE PUSH20 0x52657461696C657220616363657373206F6E6C79 PUSH1 0x60 SHL PUSH1 0x44 DUP3 ADD MSTORE PUSH1 0x64 SWAP1 REVERT JUMPDEST PUSH2 0xCD8 SWAP2 POP PUSH1 0x20 RETURNDATASIZE PUSH1 0x20 GT PUSH2 0x5A4 JUMPI PUSH2 0x596 DUP2 DUP4 PUSH2 0x180B JUMP JUMPDEST PUSH0 PUSH2 0xAF8 JUMP JUMPDEST POP CALLVALUE PUSH2 0x5F8 JUMPI DUP1 PUSH1 0x3 NOT CALLDATASIZE ADD SLT PUSH2 0x5F8 JUMPI PUSH1 0x40 MLOAD PUSH32 0x0 PUSH1 0x1 PUSH1 0x1 PUSH1 0xA0 SHL SUB AND DUP2 MSTORE PUSH1 0x20 SWAP1 RETURN JUMPDEST POP CALLVALUE PUSH2 0x5F8 JUMPI PUSH1 0x20 CALLDATASIZE PUSH1 0x3 NOT ADD SLT PUSH2 0x5F8 JUMPI PUSH1 0x4 CALLDATALOAD SWAP1 PUSH1 0x1 PUSH1 0x1 PUSH1 0x40 SHL SUB DUP3 GT PUSH2 0x5F8 JUMPI PUSH2 0x6A0 PUSH1 0x20 DUP1 PUSH2 0xD5A CALLDATASIZE PUSH1 0x4 DUP8 ADD PUSH2 0x1847 JUMP JUMPDEST PUSH2 0xD62 PUSH2 0x1D21 JUMP JUMPDEST POP PUSH1 0x40 MLOAD SWAP3 DUP2 DUP5 SWAP3 MLOAD SWAP2 DUP3 SWAP2 ADD DUP4 MCOPY DUP2 ADD PUSH1 0x3 DUP2 MSTORE SUB ADD SWAP1 KECCAK256 PUSH1 0xA PUSH2 0xE45 PUSH1 0x40 MLOAD SWAP3 PUSH2 0xD8D DUP5 PUSH2 0x17A5 JUMP JUMPDEST PUSH1 0x40 MLOAD PUSH2 0xDA5 DUP2 PUSH2 0xD9E DUP2 DUP6 PUSH2 0x1AAE JUMP JUMPDEST SUB DUP3 PUSH2 0x180B JUMP JUMPDEST DUP5 MSTORE PUSH1 0x40 MLOAD PUSH2 0xDBB DUP2 PUSH2 0xD9E DUP2 PUSH1 0x1 DUP7 ADD PUSH2 0x1AAE JUMP JUMPDEST PUSH1 0x20 DUP6 ADD MSTORE PUSH1 0x40 MLOAD PUSH2 0xDD4 DUP2 PUSH2 0xD9E DUP2 PUSH1 0x2 DUP7 ADD PUSH2 0x1AAE JUMP JUMPDEST PUSH1 0x40 DUP6 ADD MSTORE PUSH1 0x40 MLOAD PUSH2 0xDED DUP2 PUSH2 0xD9E DUP2 PUSH1 0x3 DUP7 ADD PUSH2 0x1AAE JUMP JUMPDEST PUSH1 0x60 DUP6 ADD MSTORE PUSH1 0xFF PUSH1 0x4 DUP3 ADD SLOAD AND PUSH1 0x80 DUP6 ADD MSTORE PUSH2 0xE0B PUSH1 0x5 DUP3 ADD PUSH2 0x1DD5 JUMP JUMPDEST PUSH1 0xA0 DUP6 ADD MSTORE PUSH2 0xE1C PUSH1 0x7 DUP3 ADD PUSH2 0x1DD5 JUMP JUMPDEST PUSH1 0xC0 DUP6 ADD MSTORE PUSH2 0xE35 PUSH1 0xFF PUSH1 0x9 DUP4 ADD SLOAD AND PUSH1 0xE0 DUP7 ADD PUSH2 0x1E0B JUMP JUMPDEST PUSH2 0xD9E PUSH1 0x40 MLOAD DUP1 SWAP5 DUP2 SWAP4 ADD PUSH2 0x1AAE JUMP JUMPDEST PUSH2 0x100 DUP3 ADD MSTORE PUSH1 0x40 MLOAD SWAP2 DUP3 SWAP2 PUSH1 0x20 DUP4 MSTORE PUSH1 0x20 DUP4 ADD SWAP1 PUSH2 0x18DA JUMP JUMPDEST POP CALLVALUE PUSH2 0x5F8 JUMPI DUP1 PUSH1 0x3 NOT CALLDATASIZE ADD SLT PUSH2 0x5F8 JUMPI PUSH1 0x40 MLOAD PUSH4 0x906CE017 PUSH1 0xE0 SHL DUP2 MSTORE DUP2 DUP2 PUSH1 0x4 DUP2 PUSH32 0x0 PUSH1 0x1 PUSH1 0x1 PUSH1 0xA0 SHL SUB AND GAS STATICCALL SWAP1 DUP2 ISZERO PUSH2 0x6C7 JUMPI DUP3 PUSH2 0x6A0 SWAP4 SWAP3 PUSH2 0x6A4 JUMPI POP POP PUSH1 0x40 MLOAD SWAP2 DUP3 SWAP2 DUP3 PUSH2 0x1C06 JUMP JUMPDEST POP CALLVALUE PUSH2 0x5F8 JUMPI PUSH2 0xEDC CALLDATASIZE PUSH2 0x1B46 JUMP JUMPDEST PUSH1 0x40 MLOAD PUSH4 0x95A8C58D PUSH1 0xE0 SHL DUP2 MSTORE CALLER PUSH1 0x4 DUP3 ADD MSTORE PUSH1 0x1 PUSH1 0x24 DUP3 ADD MSTORE PUSH1 0x20 DUP2 PUSH1 0x44 DUP2 PUSH1 0x1 PUSH1 0x1 PUSH1 0xA0 SHL SUB PUSH32 0x0 AND GAS STATICCALL DUP1 ISZERO PUSH2 0x988 JUMPI PUSH2 0xF43 SWAP2 DUP6 SWAP2 PUSH2 0x1199 JUMPI JUMPDEST POP SWAP1 DUP5 SWAP3 SWAP2 PUSH2 0x1E2F JUMP JUMPDEST PUSH2 0xF4B PUSH2 0x224B JUMP JUMPDEST DUP1 MLOAD PUSH1 0x40 MLOAD SWAP1 DUP5 MLOAD SWAP2 PUSH1 0x20 DUP2 DUP2 DUP9 ADD SWAP5 DUP1 DUP7 DUP4 MCOPY DUP2 ADD PUSH1 0x3 DUP2 MSTORE SUB ADD SWAP1 KECCAK256 SWAP2 PUSH1 0x9 DUP4 ADD PUSH1 0x2 PUSH1 0xFF NOT DUP3 SLOAD AND OR SWAP1 SSTORE PUSH1 0x40 MLOAD PUSH1 0x2 DUP8 MLOAD DUP1 DUP5 DUP5 MCOPY DUP3 ADD SWAP2 PUSH1 0x4 DUP4 MSTORE PUSH1 0x20 DUP2 TIMESTAMP SWAP5 SUB ADD SWAP1 KECCAK256 ADD SSTORE PUSH2 0xFB4 PUSH1 0x40 MLOAD PUSH1 0x20 DUP2 DUP10 MLOAD DUP1 DUP7 DUP4 MCOPY DUP2 ADD PUSH1 0x2 DUP2 MSTORE SUB ADD SWAP1 KECCAK256 PUSH2 0x1E83 JUMP JUMPDEST DUP5 JUMPDEST DUP3 DUP2 LT PUSH2 0x1162 JUMPI POP POP PUSH1 0x3 DUP3 ADD SWAP3 PUSH1 0x1 DUP4 ADD SWAP3 SWAP2 POP PUSH32 0x0 PUSH1 0x1 PUSH1 0x1 PUSH1 0xA0 SHL SUB AND SWAP1 DUP2 EXTCODESIZE ISZERO PUSH2 0x5EA JUMPI PUSH1 0x40 MLOAD PUSH4 0x871811F1 PUSH1 0xE0 SHL DUP2 MSTORE PUSH1 0x60 PUSH1 0x4 DUP3 ADD MSTORE DUP7 DUP2 DUP1 PUSH2 0x1036 PUSH2 0x1024 PUSH1 0x64 DUP4 ADD DUP11 PUSH2 0x1AAE JUMP JUMPDEST DUP3 DUP2 SUB PUSH1 0x3 NOT ADD PUSH1 0x24 DUP5 ADD MSTORE DUP11 PUSH2 0x1AAE JUMP JUMPDEST PUSH1 0x1 PUSH1 0x44 DUP4 ADD MSTORE SUB DUP2 DUP4 DUP8 GAS CALL SWAP1 DUP2 ISZERO PUSH2 0x1157 JUMPI DUP8 SWAP2 PUSH2 0x1142 JUMPI JUMPDEST POP POP DUP2 EXTCODESIZE ISZERO PUSH2 0x5EA JUMPI DUP6 PUSH2 0x107A SWAP2 PUSH1 0x40 MLOAD DUP1 SWAP4 DUP2 SWAP3 PUSH4 0x29A2AC27 PUSH1 0xE1 SHL DUP4 MSTORE DUP10 PUSH1 0x4 DUP5 ADD PUSH2 0x203E JUMP JUMPDEST SUB DUP2 DUP4 DUP7 GAS CALL SWAP1 DUP2 ISZERO PUSH2 0xC41 JUMPI DUP7 SWAP2 PUSH2 0x112D JUMPI JUMPDEST POP POP PUSH1 0xFF PUSH1 0x4 DUP4 ADD SLOAD AND DUP2 EXTCODESIZE ISZERO PUSH2 0x5EA JUMPI DUP6 DUP1 SWAP5 PUSH2 0x8A3 PUSH2 0x10DC SWAP4 PUSH1 0x5 DUP12 SWAP8 PUSH2 0x1115 PUSH2 0x10EE SWAP12 PUSH2 0x1103 PUSH1 0x40 MLOAD SWAP14 DUP15 SWAP13 DUP14 SWAP12 DUP13 SWAP11 PUSH4 0xD33D8A13 PUSH1 0xE0 SHL DUP13 MSTORE PUSH1 0xC0 PUSH1 0x4 DUP14 ADD MSTORE PUSH1 0xC4 DUP13 ADD SWAP1 PUSH2 0x1AAE JUMP JUMPDEST DUP11 DUP2 SUB PUSH1 0x3 NOT ADD PUSH1 0x24 DUP13 ADD MSTORE SWAP1 PUSH2 0x188D JUMP JUMPDEST DUP9 DUP2 SUB PUSH1 0x3 NOT ADD PUSH1 0x44 DUP11 ADD MSTORE PUSH1 0x2 DUP6 ADD PUSH2 0x1AAE JUMP JUMPDEST DUP8 DUP2 SUB PUSH1 0x3 NOT ADD PUSH1 0x64 DUP10 ADD MSTORE SWAP1 PUSH2 0x1AAE JUMP JUMPDEST SWAP3 PUSH1 0x84 DUP7 ADD MSTORE PUSH1 0x3 NOT DUP6 DUP5 SUB ADD PUSH1 0xA4 DUP7 ADD MSTORE ADD PUSH2 0x1AAE JUMP JUMPDEST DUP2 PUSH2 0x1137 SWAP2 PUSH2 0x180B JUMP JUMPDEST PUSH2 0x5EE JUMPI DUP5 PUSH0 PUSH2 0x108E JUMP JUMPDEST DUP2 PUSH2 0x114C SWAP2 PUSH2 0x180B JUMP JUMPDEST PUSH2 0x5EA JUMPI DUP6 PUSH0 PUSH2 0x1051 JUMP JUMPDEST PUSH1 0x40 MLOAD RETURNDATASIZE DUP10 DUP3 RETURNDATACOPY RETURNDATASIZE SWAP1 REVERT JUMPDEST PUSH1 0x1 SWAP2 SWAP3 SWAP4 SWAP5 SWAP6 POP PUSH2 0x118D PUSH1 0x40 MLOAD PUSH1 0x20 DUP2 DUP11 MLOAD DUP1 DUP9 DUP4 MCOPY DUP2 ADD PUSH1 0x2 DUP2 MSTORE SUB ADD SWAP1 KECCAK256 PUSH2 0x91C DUP4 DUP10 PUSH2 0x1DC1 JUMP JUMPDEST ADD SWAP1 DUP7 SWAP5 SWAP4 SWAP3 SWAP2 PUSH2 0xFB6 JUMP JUMPDEST PUSH2 0x11B2 SWAP2 POP PUSH1 0x20 RETURNDATASIZE PUSH1 0x20 GT PUSH2 0x5A4 JUMPI PUSH2 0x596 DUP2 DUP4 PUSH2 0x180B JUMP JUMPDEST PUSH0 PUSH2 0xF39 JUMP JUMPDEST POP CALLVALUE PUSH2 0x5F8 JUMPI PUSH2 0x11C7 CALLDATASIZE PUSH2 0x1B46 JUMP JUMPDEST PUSH1 0x40 MLOAD PUSH4 0x95A8C58D PUSH1 0xE0 SHL DUP2 MSTORE CALLER PUSH1 0x4 DUP3 ADD MSTORE PUSH1 0x1 PUSH1 0x24 DUP3 ADD MSTORE PUSH1 0x20 DUP2 PUSH1 0x44 DUP2 PUSH1 0x1 PUSH1 0x1 PUSH1 0xA0 SHL SUB PUSH32 0x0 AND GAS STATICCALL DUP1 ISZERO PUSH2 0x988 JUMPI PUSH2 0x122A SWAP2 DUP6 SWAP2 PUSH2 0x1404 JUMPI JUMPDEST POP PUSH2 0x1E2F JUMP JUMPDEST PUSH2 0x1232 PUSH2 0x224B JUMP JUMPDEST DUP1 MLOAD PUSH1 0x40 MLOAD SWAP1 DUP4 MLOAD SWAP2 PUSH1 0x20 DUP2 DUP2 DUP8 ADD SWAP5 DUP1 DUP7 DUP4 MCOPY DUP2 ADD PUSH1 0x3 DUP2 MSTORE SUB ADD SWAP1 KECCAK256 SWAP2 PUSH1 0x8 DUP4 ADD PUSH1 0x1 DUP1 PUSH1 0xA0 SHL SUB CALLER AND PUSH12 0xFFFFFFFFFFFFFFFFFFFFFFFF PUSH1 0xA0 SHL DUP3 SLOAD AND OR SWAP1 SSTORE PUSH1 0x9 DUP4 ADD PUSH1 0x1 PUSH1 0xFF NOT DUP3 SLOAD AND OR SWAP1 SSTORE PUSH1 0x40 MLOAD PUSH1 0x1 DUP7 MLOAD DUP1 DUP5 DUP5 MCOPY DUP3 ADD SWAP2 PUSH1 0x4 DUP4 MSTORE PUSH1 0x20 DUP2 TIMESTAMP SWAP5 SUB ADD SWAP1 KECCAK256 ADD SSTORE PUSH2 0x12BE PUSH1 0x40 MLOAD PUSH1 0x20 DUP2 DUP9 MLOAD DUP1 DUP7 DUP4 MCOPY DUP2 ADD PUSH1 0x2 DUP2 MSTORE SUB ADD SWAP1 KECCAK256 PUSH2 0x1E83 JUMP JUMPDEST DUP6 JUMPDEST DUP3 DUP2 LT PUSH2 0x13D8 JUMPI POP POP PUSH32 0x0 PUSH1 0x1 PUSH1 0x1 PUSH1 0xA0 SHL SUB AND SWAP3 PUSH1 0x3 DUP4 ADD SWAP3 SWAP1 SWAP2 POP DUP6 DUP5 EXTCODESIZE ISZERO PUSH2 0x5F8 JUMPI PUSH1 0x40 MLOAD PUSH4 0x871811F1 PUSH1 0xE0 SHL DUP2 MSTORE PUSH1 0x60 PUSH1 0x4 DUP3 ADD MSTORE SWAP2 DUP3 SWAP1 DUP2 SWAP1 PUSH2 0x1332 SWAP1 PUSH2 0x84A SWAP1 PUSH1 0x64 DUP5 ADD SWAP1 PUSH1 0x1 ADD PUSH2 0x1AAE JUMP JUMPDEST PUSH1 0x1 PUSH1 0x44 DUP4 ADD MSTORE SUB DUP2 DUP4 DUP9 GAS CALL DUP1 ISZERO PUSH2 0xC41 JUMPI PUSH2 0x13C0 JUMPI JUMPDEST POP SWAP1 DUP3 SWAP2 DUP6 SWAP4 EXTCODESIZE ISZERO PUSH2 0x5F2 JUMPI PUSH1 0x40 MLOAD PUSH4 0x30B3E0EF PUSH1 0xE2 SHL DUP2 MSTORE PUSH1 0x40 PUSH1 0x4 DUP3 ADD MSTORE DUP5 DUP2 DUP1 PUSH2 0x137A PUSH1 0x44 DUP3 ADD DUP8 PUSH2 0x1AAE JUMP JUMPDEST PUSH1 0x1 PUSH1 0x24 DUP4 ADD MSTORE SUB DUP2 DUP4 DUP9 GAS CALL SWAP1 DUP2 ISZERO PUSH2 0x8E6 JUMPI DUP6 SWAP2 PUSH2 0x8D1 JUMPI POP POP DUP3 EXTCODESIZE ISZERO PUSH2 0x5F2 JUMPI PUSH2 0x8A3 SWAP3 DUP5 SWAP3 DUP4 PUSH1 0x40 MLOAD DUP1 SWAP7 DUP2 SWAP6 DUP3 SWAP5 PUSH4 0x29A2AC27 PUSH1 0xE1 SHL DUP5 MSTORE PUSH1 0x4 DUP5 ADD PUSH2 0x203E JUMP JUMPDEST DUP6 PUSH2 0x13CF SWAP2 SWAP7 SWAP3 SWAP5 SWAP4 SWAP7 PUSH2 0x180B JUMP JUMPDEST SWAP4 SWAP1 SWAP2 PUSH0 PUSH2 0x134A JUMP JUMPDEST PUSH1 0x1 SWAP1 PUSH2 0x13FE PUSH1 0x40 MLOAD PUSH1 0x20 DUP2 DUP11 MLOAD DUP1 DUP9 DUP4 MCOPY DUP2 ADD PUSH1 0x2 DUP2 MSTORE SUB ADD SWAP1 KECCAK256 PUSH2 0x91C DUP4 DUP10 PUSH2 0x1DC1 JUMP JUMPDEST ADD PUSH2 0x12C0 JUMP JUMPDEST PUSH2 0x141D SWAP2 POP PUSH1 0x20 RETURNDATASIZE PUSH1 0x20 GT PUSH2 0x5A4 JUMPI PUSH2 0x596 DUP2 DUP4 PUSH2 0x180B JUMP JUMPDEST PUSH0 PUSH2 0x1224 JUMP JUMPDEST POP CALLVALUE PUSH2 0x5F8 JUMPI PUSH1 0x20 CALLDATASIZE PUSH1 0x3 NOT ADD SLT PUSH2 0x5F8 JUMPI PUSH1 0x4 CALLDATALOAD PUSH1 0x1 PUSH1 0x1 PUSH1 0x40 SHL SUB DUP2 GT PUSH2 0x578 JUMPI PUSH2 0x1454 SWAP1 CALLDATASIZE SWAP1 PUSH1 0x4 ADD PUSH2 0x1847 JUMP JUMPDEST PUSH1 0x40 MLOAD DUP2 MLOAD SWAP1 PUSH1 0x20 DUP2 DUP2 DUP6 ADD SWAP4 DUP1 DUP6 DUP4 MCOPY DUP2 ADD PUSH1 0x5 DUP2 MSTORE SUB ADD SWAP1 KECCAK256 SLOAD SWAP2 PUSH2 0x147A DUP4 PUSH2 0x1D72 JUMP JUMPDEST SWAP4 JUMPDEST DUP4 DUP2 LT PUSH2 0x1491 JUMPI PUSH1 0x40 MLOAD DUP1 PUSH2 0x6A0 DUP8 DUP3 PUSH2 0x19AA JUMP JUMPDEST DUP1 PUSH2 0x14CE PUSH2 0xD9E PUSH2 0x14C9 PUSH2 0x14BC PUSH1 0x1 SWAP6 PUSH1 0x40 MLOAD PUSH1 0x20 DUP2 DUP11 MLOAD DUP1 DUP14 DUP4 MCOPY DUP2 ADD PUSH1 0x5 DUP2 MSTORE SUB ADD SWAP1 KECCAK256 PUSH2 0x1A61 JUMP JUMPDEST POP PUSH1 0x40 MLOAD SWAP3 DUP4 DUP1 SWAP3 PUSH2 0x1AAE JUMP JUMPDEST PUSH2 0x1CE9 JUMP JUMPDEST PUSH1 0xA PUSH2 0x1506 PUSH1 0x40 MLOAD SWAP3 PUSH2 0x14E0 DUP5 PUSH2 0x17A5 JUMP JUMPDEST PUSH1 0x40 MLOAD PUSH2 0x14F1 DUP2 PUSH2 0xD9E DUP2 DUP6 PUSH2 0x1AAE JUMP JUMPDEST DUP5 MSTORE PUSH1 0x40 MLOAD PUSH2 0xDBB DUP2 PUSH2 0xD9E DUP2 DUP11 DUP7 ADD PUSH2 0x1AAE JUMP JUMPDEST PUSH2 0x100 DUP3 ADD MSTORE PUSH2 0x1516 DUP3 DUP9 PUSH2 0x1DC1 JUMP JUMPDEST MSTORE PUSH2 0x1521 DUP2 DUP8 PUSH2 0x1DC1 JUMP JUMPDEST POP ADD PUSH2 0x147C JUMP JUMPDEST POP CALLVALUE PUSH2 0x5F8 JUMPI DUP1 PUSH1 0x3 NOT CALLDATASIZE ADD SLT PUSH2 0x5F8 JUMPI PUSH1 0x40 MLOAD PUSH32 0x0 PUSH1 0x1 PUSH1 0x1 PUSH1 0xA0 SHL SUB AND DUP2 MSTORE PUSH1 0x20 SWAP1 RETURN JUMPDEST CALLVALUE PUSH2 0x15DC JUMPI PUSH1 0x20 CALLDATASIZE PUSH1 0x3 NOT ADD SLT PUSH2 0x15DC JUMPI PUSH1 0x4 CALLDATALOAD PUSH1 0x1 SLOAD DUP2 LT ISZERO PUSH2 0x15DC JUMPI PUSH1 0x1 SLOAD DUP2 LT ISZERO PUSH2 0x15C8 JUMPI PUSH2 0xD9E PUSH2 0x15B4 PUSH2 0x6A0 SWAP3 PUSH1 0x1 PUSH0 MSTORE PUSH1 0x20 PUSH0 KECCAK256 ADD PUSH1 0x40 MLOAD SWAP3 DUP4 DUP1 SWAP3 PUSH2 0x1AAE JUMP JUMPDEST PUSH1 0x40 MLOAD SWAP2 DUP3 SWAP2 PUSH1 0x20 DUP4 MSTORE PUSH1 0x20 DUP4 ADD SWAP1 PUSH2 0x188D JUMP JUMPDEST PUSH4 0x4E487B71 PUSH1 0xE0 SHL PUSH0 MSTORE PUSH1 0x32 PUSH1 0x4 MSTORE PUSH1 0x24 PUSH0 REVERT JUMPDEST PUSH0 DUP1 REVERT JUMPDEST CALLVALUE PUSH2 0x15DC JUMPI PUSH1 0x20 CALLDATASIZE PUSH1 0x3 NOT ADD SLT PUSH2 0x15DC JUMPI PUSH1 0x4 CALLDATALOAD PUSH1 0x1 PUSH1 0x1 PUSH1 0x40 SHL SUB DUP2 GT PUSH2 0x15DC JUMPI PUSH1 0x20 PUSH2 0x1613 DUP2 SWAP3 CALLDATASIZE SWAP1 PUSH1 0x4 ADD PUSH2 0x1847 JUMP JUMPDEST PUSH1 0x40 MLOAD SWAP3 DUP2 DUP5 SWAP3 MLOAD SWAP2 DUP3 SWAP2 ADD DUP4 MCOPY DUP2 ADD PUSH1 0x2 DUP2 MSTORE SUB ADD SWAP1 KECCAK256 DUP1 SLOAD PUSH2 0x1636 DUP2 PUSH2 0x1B2F JUMP JUMPDEST SWAP2 PUSH2 0x1644 PUSH1 0x40 MLOAD SWAP4 DUP5 PUSH2 0x180B JUMP JUMPDEST DUP2 DUP4 MSTORE PUSH1 0x20 DUP4 ADD SWAP1 PUSH0 MSTORE PUSH1 0x20 PUSH0 KECCAK256 PUSH0 SWAP2 JUMPDEST DUP4 DUP4 LT PUSH2 0x1672 JUMPI PUSH1 0x40 MLOAD PUSH1 0x20 DUP1 DUP3 MSTORE DUP2 SWAP1 PUSH2 0x6A0 SWAP1 DUP3 ADD DUP9 PUSH2 0x1A09 JUMP JUMPDEST PUSH1 0x1 PUSH1 0x20 DUP2 SWAP3 PUSH1 0x40 MLOAD PUSH2 0x1689 DUP2 PUSH2 0xD9E DUP2 DUP10 PUSH2 0x1AAE JUMP JUMPDEST DUP2 MSTORE ADD SWAP3 ADD SWAP3 ADD SWAP2 SWAP1 PUSH2 0x1655 JUMP JUMPDEST CALLVALUE PUSH2 0x15DC JUMPI PUSH1 0x20 CALLDATASIZE PUSH1 0x3 NOT ADD SLT PUSH2 0x15DC JUMPI PUSH1 0x4 CALLDATALOAD PUSH1 0x1 PUSH1 0x1 PUSH1 0x40 SHL SUB DUP2 GT PUSH2 0x15DC JUMPI PUSH2 0x16C7 SWAP1 CALLDATASIZE SWAP1 PUSH1 0x4 ADD PUSH2 0x1847 JUMP JUMPDEST PUSH1 0x40 MLOAD DUP2 MLOAD SWAP1 PUSH1 0x20 DUP2 DUP2 DUP6 ADD SWAP4 DUP1 DUP6 DUP4 MCOPY DUP2 ADD PUSH1 0x6 DUP2 MSTORE SUB ADD SWAP1 KECCAK256 SLOAD SWAP1 PUSH2 0x16ED DUP3 PUSH2 0x1D72 JUMP JUMPDEST SWAP3 PUSH0 JUMPDEST DUP4 DUP2 LT PUSH2 0x1705 JUMPI PUSH1 0x40 MLOAD DUP1 PUSH2 0x6A0 DUP8 DUP3 PUSH2 0x19AA JUMP JUMPDEST DUP1 PUSH2 0x1730 PUSH2 0xD9E PUSH2 0x14C9 PUSH2 0x14BC PUSH1 0x1 SWAP6 PUSH1 0x40 MLOAD PUSH1 0x20 DUP2 DUP11 MLOAD DUP1 DUP14 DUP4 MCOPY DUP2 ADD PUSH1 0x6 DUP2 MSTORE SUB ADD SWAP1 KECCAK256 PUSH2 0x1A61 JUMP JUMPDEST PUSH1 0xA PUSH2 0x1742 PUSH1 0x40 MLOAD SWAP3 PUSH2 0x14E0 DUP5 PUSH2 0x17A5 JUMP JUMPDEST PUSH2 0x100 DUP3 ADD MSTORE PUSH2 0x1752 DUP3 DUP9 PUSH2 0x1DC1 JUMP JUMPDEST MSTORE PUSH2 0x175D DUP2 DUP8 PUSH2 0x1DC1 JUMP JUMPDEST POP ADD PUSH2 0x16F0 JUMP JUMPDEST CALLVALUE PUSH2 0x15DC JUMPI PUSH0 CALLDATASIZE PUSH1 0x3 NOT ADD SLT PUSH2 0x15DC JUMPI PUSH32 0x0 PUSH1 0x1 PUSH1 0x1 PUSH1 0xA0 SHL SUB AND DUP2 MSTORE PUSH1 0x20 SWAP1 RETURN JUMPDEST PUSH2 0x120 DUP2 ADD SWAP1 DUP2 LT PUSH1 0x1 PUSH1 0x1 PUSH1 0x40 SHL SUB DUP3 GT OR PUSH2 0x17C1 JUMPI PUSH1 0x40 MSTORE JUMP JUMPDEST PUSH4 0x4E487B71 PUSH1 0xE0 SHL PUSH0 MSTORE PUSH1 0x41 PUSH1 0x4 MSTORE PUSH1 0x24 PUSH0 REVERT JUMPDEST PUSH1 0x60 DUP2 ADD SWAP1 DUP2 LT PUSH1 0x1 PUSH1 0x1 PUSH1 0x40 SHL SUB DUP3 GT OR PUSH2 0x17C1 JUMPI PUSH1 0x40 MSTORE JUMP JUMPDEST PUSH1 0x40 DUP2 ADD SWAP1 DUP2 LT PUSH1 0x1 PUSH1 0x1 PUSH1 0x40 SHL SUB DUP3 GT OR PUSH2 0x17C1 JUMPI PUSH1 0x40 MSTORE JUMP JUMPDEST SWAP1 PUSH1 0x1F DUP1 NOT SWAP2 ADD AND DUP2 ADD SWAP1 DUP2 LT PUSH1 0x1 PUSH1 0x1 PUSH1 0x40 SHL SUB DUP3 GT OR PUSH2 0x17C1 JUMPI PUSH1 0x40 MSTORE JUMP JUMPDEST PUSH1 0x1 PUSH1 0x1 PUSH1 0x40 SHL SUB DUP2 GT PUSH2 0x17C1 JUMPI PUSH1 0x1F ADD PUSH1 0x1F NOT AND PUSH1 0x20 ADD SWAP1 JUMP JUMPDEST DUP2 PUSH1 0x1F DUP3 ADD SLT ISZERO PUSH2 0x15DC JUMPI DUP1 CALLDATALOAD SWAP1 PUSH2 0x185E DUP3 PUSH2 0x182C JUMP JUMPDEST SWAP3 PUSH2 0x186C PUSH1 0x40 MLOAD SWAP5 DUP6 PUSH2 0x180B JUMP JUMPDEST DUP3 DUP5 MSTORE PUSH1 0x20 DUP4 DUP4 ADD ADD GT PUSH2 0x15DC JUMPI DUP2 PUSH0 SWAP3 PUSH1 0x20 DUP1 SWAP4 ADD DUP4 DUP7 ADD CALLDATACOPY DUP4 ADD ADD MSTORE SWAP1 JUMP JUMPDEST DUP1 MLOAD DUP1 DUP4 MSTORE PUSH1 0x20 SWAP3 SWAP2 DUP2 SWAP1 DUP5 ADD DUP5 DUP5 ADD MCOPY PUSH0 DUP3 DUP3 ADD DUP5 ADD MSTORE PUSH1 0x1F ADD PUSH1 0x1F NOT AND ADD ADD SWAP1 JUMP JUMPDEST SWAP1 PUSH1 0x20 PUSH2 0x18C7 DUP4 MLOAD PUSH1 0x40 DUP5 MSTORE PUSH1 0x40 DUP5 ADD SWAP1 PUSH2 0x188D JUMP JUMPDEST SWAP3 DUP2 ADD MLOAD PUSH1 0x1 PUSH1 0x1 PUSH1 0xA0 SHL SUB AND SWAP2 ADD MSTORE SWAP1 JUMP JUMPDEST SWAP1 PUSH2 0x1966 PUSH2 0x1954 PUSH2 0x1935 PUSH2 0x1923 PUSH2 0x1911 PUSH2 0x18FF DUP8 MLOAD PUSH2 0x120 DUP9 MSTORE PUSH2 0x120 DUP9 ADD SWAP1 PUSH2 0x188D JUMP JUMPDEST PUSH1 0x20 DUP9 ADD MLOAD DUP8 DUP3 SUB PUSH1 0x20 DUP10 ADD MSTORE PUSH2 0x188D JUMP JUMPDEST PUSH1 0x40 DUP8 ADD MLOAD DUP7 DUP3 SUB PUSH1 0x40 DUP9 ADD MSTORE PUSH2 0x188D JUMP JUMPDEST PUSH1 0x60 DUP7 ADD MLOAD DUP6 DUP3 SUB PUSH1 0x60 DUP8 ADD MSTORE PUSH2 0x188D JUMP JUMPDEST PUSH1 0xFF PUSH1 0x80 DUP7 ADD MLOAD AND PUSH1 0x80 DUP6 ADD MSTORE PUSH1 0xA0 DUP6 ADD MLOAD DUP5 DUP3 SUB PUSH1 0xA0 DUP7 ADD MSTORE PUSH2 0x18B1 JUMP JUMPDEST PUSH1 0xC0 DUP5 ADD MLOAD DUP4 DUP3 SUB PUSH1 0xC0 DUP6 ADD MSTORE PUSH2 0x18B1 JUMP JUMPDEST SWAP1 PUSH1 0xE0 DUP4 ADD MLOAD PUSH1 0x3 DUP2 LT ISZERO PUSH2 0x1996 JUMPI PUSH2 0x1993 SWAP4 PUSH2 0x100 SWAP2 PUSH1 0xE0 DUP5 ADD MSTORE ADD MLOAD SWAP1 PUSH2 0x100 DUP2 DUP5 SUB SWAP2 ADD MSTORE PUSH2 0x188D JUMP JUMPDEST SWAP1 JUMP JUMPDEST PUSH4 0x4E487B71 PUSH1 0xE0 SHL PUSH0 MSTORE PUSH1 0x21 PUSH1 0x4 MSTORE PUSH1 0x24 PUSH0 REVERT JUMPDEST PUSH1 0x20 DUP2 ADD PUSH1 0x20 DUP3 MSTORE DUP3 MLOAD DUP1 SWAP2 MSTORE PUSH1 0x40 DUP3 ADD SWAP2 PUSH1 0x20 PUSH1 0x40 DUP4 PUSH1 0x5 SHL DUP4 ADD ADD SWAP5 ADD SWAP3 PUSH0 SWAP2 JUMPDEST DUP4 DUP4 LT PUSH2 0x19DC JUMPI POP POP POP POP POP SWAP1 JUMP JUMPDEST SWAP1 SWAP2 SWAP3 SWAP4 SWAP5 PUSH1 0x20 DUP1 PUSH2 0x19FA PUSH1 0x1 SWAP4 PUSH1 0x3F NOT DUP7 DUP3 SUB ADD DUP8 MSTORE DUP10 MLOAD PUSH2 0x18DA JUMP JUMPDEST SWAP8 ADD SWAP4 ADD SWAP4 ADD SWAP2 SWAP4 SWAP3 SWAP1 PUSH2 0x19CD JUMP JUMPDEST SWAP1 DUP1 PUSH1 0x20 DUP4 MLOAD SWAP2 DUP3 DUP2 MSTORE ADD SWAP2 PUSH1 0x20 DUP1 DUP4 PUSH1 0x5 SHL DUP4 ADD ADD SWAP5 ADD SWAP3 PUSH0 SWAP2 JUMPDEST DUP4 DUP4 LT PUSH2 0x1A34 JUMPI POP POP POP POP POP SWAP1 JUMP JUMPDEST SWAP1 SWAP2 SWAP3 SWAP4 SWAP5 PUSH1 0x20 DUP1 PUSH2 0x1A52 PUSH1 0x1 SWAP4 PUSH1 0x1F NOT DUP7 DUP3 SUB ADD DUP8 MSTORE DUP10 MLOAD PUSH2 0x188D JUMP JUMPDEST SWAP8 ADD SWAP4 ADD SWAP4 ADD SWAP2 SWAP4 SWAP3 SWAP1 PUSH2 0x1A25 JUMP JUMPDEST DUP1 SLOAD DUP3 LT ISZERO PUSH2 0x15C8 JUMPI PUSH0 MSTORE PUSH1 0x20 PUSH0 KECCAK256 ADD SWAP1 PUSH0 SWAP1 JUMP JUMPDEST SWAP1 PUSH1 0x1 DUP3 DUP2 SHR SWAP3 AND DUP1 ISZERO PUSH2 0x1AA4 JUMPI JUMPDEST PUSH1 0x20 DUP4 LT EQ PUSH2 0x1A90 JUMPI JUMP JUMPDEST PUSH4 0x4E487B71 PUSH1 0xE0 SHL PUSH0 MSTORE PUSH1 0x22 PUSH1 0x4 MSTORE PUSH1 0x24 PUSH0 REVERT JUMPDEST SWAP2 PUSH1 0x7F AND SWAP2 PUSH2 0x1A85 JUMP JUMPDEST PUSH0 SWAP3 SWAP2 DUP2 SLOAD SWAP2 PUSH2 0x1ABD DUP4 PUSH2 0x1A76 JUMP JUMPDEST DUP1 DUP4 MSTORE SWAP3 PUSH1 0x1 DUP2 AND SWAP1 DUP2 ISZERO PUSH2 0x1B12 JUMPI POP PUSH1 0x1 EQ PUSH2 0x1AD9 JUMPI POP POP POP JUMP JUMPDEST PUSH0 SWAP1 DUP2 MSTORE PUSH1 0x20 DUP2 KECCAK256 SWAP4 SWAP5 POP SWAP2 SWAP3 JUMPDEST DUP4 DUP4 LT PUSH2 0x1AF8 JUMPI POP PUSH1 0x20 SWAP3 POP ADD ADD SWAP1 JUMP JUMPDEST PUSH1 0x1 DUP2 PUSH1 0x20 SWAP3 SWAP5 SWAP4 SWAP5 SLOAD DUP4 DUP6 DUP8 ADD ADD MSTORE ADD SWAP2 ADD SWAP2 SWAP1 PUSH2 0x1AE7 JUMP JUMPDEST SWAP2 POP POP PUSH1 0x20 SWAP4 SWAP5 POP PUSH1 0xFF SWAP3 SWAP2 SWAP3 NOT AND DUP4 DUP4 ADD MSTORE ISZERO ISZERO PUSH1 0x5 SHL ADD ADD SWAP1 JUMP JUMPDEST PUSH1 0x1 PUSH1 0x1 PUSH1 0x40 SHL SUB DUP2 GT PUSH2 0x17C1 JUMPI PUSH1 0x5 SHL PUSH1 0x20 ADD SWAP1 JUMP JUMPDEST SWAP1 PUSH1 0x40 PUSH1 0x3 NOT DUP4 ADD SLT PUSH2 0x15DC JUMPI PUSH1 0x4 CALLDATALOAD PUSH1 0x1 PUSH1 0x1 PUSH1 0x40 SHL SUB DUP2 GT PUSH2 0x15DC JUMPI DUP3 PUSH2 0x1B71 SWAP2 PUSH1 0x4 ADD PUSH2 0x1847 JUMP JUMPDEST SWAP2 PUSH1 0x24 CALLDATALOAD SWAP1 PUSH1 0x1 PUSH1 0x1 PUSH1 0x40 SHL SUB DUP3 GT PUSH2 0x15DC JUMPI DUP1 PUSH1 0x23 DUP4 ADD SLT ISZERO PUSH2 0x15DC JUMPI DUP2 PUSH1 0x4 ADD CALLDATALOAD PUSH2 0x1B9D DUP2 PUSH2 0x1B2F JUMP JUMPDEST SWAP3 PUSH2 0x1BAB PUSH1 0x40 MLOAD SWAP5 DUP6 PUSH2 0x180B JUMP JUMPDEST DUP2 DUP5 MSTORE PUSH1 0x24 PUSH1 0x20 DUP6 ADD SWAP3 PUSH1 0x5 SHL DUP3 ADD ADD SWAP2 DUP4 DUP4 GT PUSH2 0x15DC JUMPI PUSH1 0x24 DUP3 ADD SWAP1 JUMPDEST DUP4 DUP3 LT PUSH2 0x1BD8 JUMPI POP POP POP POP POP SWAP1 JUMP JUMPDEST DUP2 CALLDATALOAD PUSH1 0x1 PUSH1 0x1 PUSH1 0x40 SHL SUB DUP2 GT PUSH2 0x15DC JUMPI PUSH1 0x20 SWAP2 PUSH2 0x1BFB DUP8 PUSH1 0x24 DUP6 SWAP5 DUP9 ADD ADD PUSH2 0x1847 JUMP JUMPDEST DUP2 MSTORE ADD SWAP2 ADD SWAP1 PUSH2 0x1BC9 JUMP JUMPDEST PUSH1 0x20 DUP2 ADD PUSH1 0x20 DUP3 MSTORE DUP3 MLOAD DUP1 SWAP2 MSTORE PUSH1 0x40 DUP3 ADD SWAP1 PUSH1 0x20 PUSH1 0x40 DUP3 PUSH1 0x5 SHL DUP6 ADD ADD SWAP5 ADD SWAP3 PUSH0 SWAP1 JUMPDEST DUP3 DUP3 LT PUSH2 0x1C38 JUMPI POP POP POP POP POP SWAP1 JUMP JUMPDEST SWAP1 SWAP2 SWAP3 SWAP4 SWAP5 PUSH1 0x3F NOT DUP3 DUP3 SUB ADD DUP6 MSTORE DUP6 MLOAD SWAP1 PUSH2 0x1C9B PUSH2 0x1C89 PUSH2 0x1C77 PUSH2 0x1C65 DUP6 MLOAD PUSH1 0xE0 DUP7 MSTORE PUSH1 0xE0 DUP7 ADD SWAP1 PUSH2 0x188D JUMP JUMPDEST PUSH1 0x20 DUP7 ADD MLOAD DUP6 DUP3 SUB PUSH1 0x20 DUP8 ADD MSTORE PUSH2 0x188D JUMP JUMPDEST PUSH1 0x40 DUP6 ADD MLOAD DUP5 DUP3 SUB PUSH1 0x40 DUP7 ADD MSTORE PUSH2 0x188D JUMP JUMPDEST PUSH1 0x60 DUP5 ADD MLOAD DUP4 DUP3 SUB PUSH1 0x60 DUP6 ADD MSTORE PUSH2 0x188D JUMP JUMPDEST SWAP2 PUSH1 0xFF PUSH1 0x80 DUP3 ADD MLOAD AND PUSH1 0x80 DUP4 ADD MSTORE PUSH1 0xA0 DUP2 ADD MLOAD SWAP1 PUSH1 0x2 DUP3 LT ISZERO PUSH2 0x1996 JUMPI PUSH1 0x1 SWAP4 DUP4 PUSH1 0xC0 PUSH2 0x1CDC SWAP4 PUSH1 0x20 SWAP7 SWAP6 PUSH1 0xA0 DUP9 SWAP8 ADD MSTORE ADD MLOAD SWAP1 PUSH1 0xC0 DUP2 DUP5 SUB SWAP2 ADD MSTORE PUSH2 0x188D JUMP JUMPDEST SWAP8 ADD SWAP6 ADD SWAP4 SWAP3 ADD SWAP1 PUSH2 0x1C29 JUMP JUMPDEST PUSH1 0x20 DUP1 SWAP2 PUSH1 0x40 MLOAD SWAP3 DUP2 DUP5 SWAP3 MLOAD SWAP2 DUP3 SWAP2 ADD DUP4 MCOPY DUP2 ADD PUSH1 0x3 DUP2 MSTORE SUB ADD SWAP1 KECCAK256 SWAP1 JUMP JUMPDEST PUSH1 0x40 MLOAD SWAP1 PUSH2 0x1D15 DUP3 PUSH2 0x17F0 JUMP JUMPDEST PUSH0 PUSH1 0x20 DUP4 PUSH1 0x60 DUP2 MSTORE ADD MSTORE JUMP JUMPDEST PUSH1 0x40 MLOAD SWAP1 PUSH2 0x1D2E DUP3 PUSH2 0x17A5 JUMP JUMPDEST PUSH1 0x60 PUSH2 0x100 DUP4 DUP3 DUP2 MSTORE DUP3 PUSH1 0x20 DUP3 ADD MSTORE DUP3 PUSH1 0x40 DUP3 ADD MSTORE DUP3 DUP1 DUP3 ADD MSTORE PUSH0 PUSH1 0x80 DUP3 ADD MSTORE PUSH2 0x1D56 PUSH2 0x1D08 JUMP JUMPDEST PUSH1 0xA0 DUP3 ADD MSTORE PUSH2 0x1D63 PUSH2 0x1D08 JUMP JUMPDEST PUSH1 0xC0 DUP3 ADD MSTORE PUSH0 PUSH1 0xE0 DUP3 ADD MSTORE ADD MSTORE JUMP JUMPDEST SWAP1 PUSH2 0x1D7C DUP3 PUSH2 0x1B2F JUMP JUMPDEST PUSH2 0x1D89 PUSH1 0x40 MLOAD SWAP2 DUP3 PUSH2 0x180B JUMP JUMPDEST DUP3 DUP2 MSTORE DUP1 SWAP3 PUSH2 0x1D9A PUSH1 0x1F NOT SWAP2 PUSH2 0x1B2F JUMP JUMPDEST ADD SWAP1 PUSH0 JUMPDEST DUP3 DUP2 LT PUSH2 0x1DAA JUMPI POP POP POP JUMP JUMPDEST PUSH1 0x20 SWAP1 PUSH2 0x1DB5 PUSH2 0x1D21 JUMP JUMPDEST DUP3 DUP3 DUP6 ADD ADD MSTORE ADD PUSH2 0x1D9E JUMP JUMPDEST DUP1 MLOAD DUP3 LT ISZERO PUSH2 0x15C8 JUMPI PUSH1 0x20 SWAP2 PUSH1 0x5 SHL ADD ADD SWAP1 JUMP JUMPDEST SWAP1 PUSH1 0x40 MLOAD PUSH2 0x1DE2 DUP2 PUSH2 0x17F0 JUMP JUMPDEST PUSH1 0x20 DUP2 SWAP4 PUSH1 0x40 MLOAD PUSH2 0x1DF7 DUP2 PUSH2 0xD9E DUP2 DUP6 PUSH2 0x1AAE JUMP JUMPDEST DUP4 MSTORE PUSH1 0x1 ADD SLOAD PUSH1 0x1 PUSH1 0x1 PUSH1 0xA0 SHL SUB AND SWAP2 ADD MSTORE JUMP JUMPDEST PUSH1 0x3 DUP3 LT ISZERO PUSH2 0x1996 JUMPI MSTORE JUMP JUMPDEST SWAP1 DUP2 PUSH1 0x20 SWAP2 SUB SLT PUSH2 0x15DC JUMPI MLOAD DUP1 ISZERO ISZERO DUP2 SUB PUSH2 0x15DC JUMPI SWAP1 JUMP JUMPDEST ISZERO PUSH2 0x1E36 JUMPI JUMP JUMPDEST PUSH1 0x40 MLOAD PUSH3 0x461BCD PUSH1 0xE5 SHL DUP2 MSTORE PUSH1 0x20 PUSH1 0x4 DUP3 ADD MSTORE PUSH1 0xF PUSH1 0x24 DUP3 ADD MSTORE PUSH15 0x50424620616363657373206F6E6C79 PUSH1 0x88 SHL PUSH1 0x44 DUP3 ADD MSTORE PUSH1 0x64 SWAP1 REVERT JUMPDEST DUP2 DUP2 LT PUSH2 0x1E78 JUMPI POP POP JUMP JUMPDEST PUSH0 DUP2 SSTORE PUSH1 0x1 ADD PUSH2 0x1E6D JUMP JUMPDEST DUP1 SLOAD SWAP1 PUSH0 DUP2 SSTORE DUP2 PUSH2 0x1E92 JUMPI POP POP JUMP JUMPDEST PUSH0 MSTORE PUSH1 0x20 PUSH0 KECCAK256 SWAP1 DUP2 ADD SWAP1 JUMPDEST DUP2 DUP2 LT PUSH2 0x1EA8 JUMPI POP POP JUMP JUMPDEST DUP1 PUSH2 0x1EB5 PUSH1 0x1 SWAP3 SLOAD PUSH2 0x1A76 JUMP JUMPDEST DUP1 PUSH2 0x1EC2 JUMPI JUMPDEST POP ADD PUSH2 0x1E9D JUMP JUMPDEST PUSH1 0x1F DUP2 GT DUP4 EQ PUSH2 0x1ED7 JUMPI POP PUSH0 DUP2 SSTORE JUMPDEST PUSH0 PUSH2 0x1EBB JUMP JUMPDEST PUSH2 0x1EF3 SWAP1 DUP3 PUSH0 MSTORE DUP4 PUSH1 0x1F PUSH1 0x20 PUSH0 KECCAK256 SWAP3 ADD PUSH1 0x5 SHR DUP3 ADD SWAP2 ADD PUSH2 0x1E6D JUMP JUMPDEST DUP1 PUSH0 MSTORE PUSH0 PUSH1 0x20 DUP2 KECCAK256 DUP2 DUP4 SSTORE SSTORE PUSH2 0x1ED1 JUMP JUMPDEST SWAP2 SWAP1 SWAP2 DUP3 MLOAD PUSH1 0x1 PUSH1 0x1 PUSH1 0x40 SHL SUB DUP2 GT PUSH2 0x17C1 JUMPI PUSH2 0x1F21 DUP3 SLOAD PUSH2 0x1A76 JUMP JUMPDEST PUSH1 0x1F DUP2 GT PUSH2 0x1FC1 JUMPI JUMPDEST POP PUSH1 0x20 PUSH1 0x1F DUP3 GT PUSH1 0x1 EQ PUSH2 0x1F63 JUMPI DUP2 SWAP3 SWAP4 SWAP5 PUSH0 SWAP3 PUSH2 0x1F58 JUMPI JUMPDEST POP POP DUP2 PUSH1 0x1 SHL SWAP2 PUSH0 NOT SWAP1 PUSH1 0x3 SHL SHR NOT AND OR SWAP1 SSTORE JUMP JUMPDEST ADD MLOAD SWAP1 POP PUSH0 DUP1 PUSH2 0x1F43 JUMP JUMPDEST PUSH1 0x1F NOT DUP3 AND SWAP1 DUP4 PUSH0 MSTORE DUP1 PUSH0 KECCAK256 SWAP2 PUSH0 JUMPDEST DUP2 DUP2 LT PUSH2 0x1FA9 JUMPI POP SWAP6 DUP4 PUSH1 0x1 SWAP6 SWAP7 SWAP8 LT PUSH2 0x1F91 JUMPI JUMPDEST POP POP POP DUP2 SHL ADD SWAP1 SSTORE JUMP JUMPDEST ADD MLOAD PUSH0 NOT PUSH1 0xF8 DUP5 PUSH1 0x3 SHL AND SHR NOT AND SWAP1 SSTORE PUSH0 DUP1 DUP1 PUSH2 0x1F87 JUMP JUMPDEST SWAP2 SWAP3 PUSH1 0x20 PUSH1 0x1 DUP2 SWAP3 DUP7 DUP12 ADD MLOAD DUP2 SSTORE ADD SWAP5 ADD SWAP3 ADD PUSH2 0x1F72 JUMP JUMPDEST PUSH2 0x1FEC SWAP1 DUP4 PUSH0 MSTORE PUSH1 0x20 PUSH0 KECCAK256 PUSH1 0x1F DUP5 ADD PUSH1 0x5 SHR DUP2 ADD SWAP2 PUSH1 0x20 DUP6 LT PUSH2 0x1FF2 JUMPI JUMPDEST PUSH1 0x1F ADD PUSH1 0x5 SHR ADD SWAP1 PUSH2 0x1E6D JUMP JUMPDEST PUSH0 PUSH2 0x1F2A JUMP JUMPDEST SWAP1 SWAP2 POP DUP2 SWAP1 PUSH2 0x1FDF JUMP JUMPDEST DUP1 SLOAD PUSH1 0x1 PUSH1 0x40 SHL DUP2 LT ISZERO PUSH2 0x17C1 JUMPI PUSH2 0x2019 SWAP2 PUSH1 0x1 DUP3 ADD DUP2 SSTORE PUSH2 0x1A61 JUMP JUMPDEST SWAP2 SWAP1 SWAP2 PUSH2 0x202B JUMPI PUSH2 0x2029 SWAP2 PUSH2 0x1F04 JUMP JUMPDEST JUMP JUMPDEST PUSH4 0x4E487B71 PUSH1 0xE0 SHL PUSH0 MSTORE PUSH0 PUSH1 0x4 MSTORE PUSH1 0x24 PUSH0 REVERT JUMPDEST SWAP1 SWAP2 PUSH2 0x2055 PUSH2 0x1993 SWAP4 PUSH1 0x40 DUP5 MSTORE PUSH1 0x40 DUP5 ADD SWAP1 PUSH2 0x1AAE JUMP JUMPDEST SWAP2 PUSH1 0x20 DUP2 DUP5 SUB SWAP2 ADD MSTORE PUSH2 0x1A09 JUMP JUMPDEST DUP2 PUSH1 0x1F DUP3 ADD SLT ISZERO PUSH2 0x15DC JUMPI DUP1 MLOAD SWAP1 PUSH2 0x207A DUP3 PUSH2 0x182C JUMP JUMPDEST SWAP3 PUSH2 0x2088 PUSH1 0x40 MLOAD SWAP5 DUP6 PUSH2 0x180B JUMP JUMPDEST DUP3 DUP5 MSTORE PUSH1 0x20 DUP4 DUP4 ADD ADD GT PUSH2 0x15DC JUMPI DUP2 PUSH0 SWAP3 PUSH1 0x20 DUP1 SWAP4 ADD DUP4 DUP7 ADD MCOPY DUP4 ADD ADD MSTORE SWAP1 JUMP JUMPDEST PUSH1 0x20 DUP2 DUP4 SUB SLT PUSH2 0x15DC JUMPI DUP1 MLOAD SWAP1 PUSH1 0x1 PUSH1 0x1 PUSH1 0x40 SHL SUB DUP3 GT PUSH2 0x15DC JUMPI ADD SWAP1 DUP1 PUSH1 0x1F DUP4 ADD SLT ISZERO PUSH2 0x15DC JUMPI DUP2 MLOAD SWAP2 PUSH2 0x20DD DUP4 PUSH2 0x1B2F JUMP JUMPDEST SWAP3 PUSH2 0x20EB PUSH1 0x40 MLOAD SWAP5 DUP6 PUSH2 0x180B JUMP JUMPDEST DUP1 DUP5 MSTORE PUSH1 0x20 DUP1 DUP6 ADD SWAP2 PUSH1 0x5 SHL DUP4 ADD ADD SWAP2 DUP4 DUP4 GT PUSH2 0x15DC JUMPI PUSH1 0x20 DUP2 ADD SWAP2 JUMPDEST DUP4 DUP4 LT PUSH2 0x2117 JUMPI POP POP POP POP POP SWAP1 JUMP JUMPDEST DUP3 MLOAD PUSH1 0x1 PUSH1 0x1 PUSH1 0x40 SHL SUB DUP2 GT PUSH2 0x15DC JUMPI DUP3 ADD SWAP1 PUSH1 0xE0 DUP3 DUP8 SUB PUSH1 0x1F NOT ADD SLT PUSH2 0x15DC JUMPI PUSH1 0x40 MLOAD SWAP1 PUSH1 0xE0 DUP3 ADD DUP3 DUP2 LT PUSH1 0x1 PUSH1 0x1 PUSH1 0x40 SHL SUB DUP3 GT OR PUSH2 0x17C1 JUMPI PUSH1 0x40 MSTORE PUSH1 0x20 DUP4 ADD MLOAD PUSH1 0x1 PUSH1 0x1 PUSH1 0x40 SHL SUB DUP2 GT PUSH2 0x15DC JUMPI DUP8 PUSH1 0x20 PUSH2 0x2177 SWAP3 DUP7 ADD ADD PUSH2 0x2063 JUMP JUMPDEST DUP3 MSTORE PUSH1 0x40 DUP4 ADD MLOAD PUSH1 0x1 PUSH1 0x1 PUSH1 0x40 SHL SUB DUP2 GT PUSH2 0x15DC JUMPI DUP8 PUSH1 0x20 PUSH2 0x219B SWAP3 DUP7 ADD ADD PUSH2 0x2063 JUMP JUMPDEST PUSH1 0x20 DUP4 ADD MSTORE PUSH1 0x60 DUP4 ADD MLOAD PUSH1 0x1 PUSH1 0x1 PUSH1 0x40 SHL SUB DUP2 GT PUSH2 0x15DC JUMPI DUP8 PUSH1 0x20 PUSH2 0x21C2 SWAP3 DUP7 ADD ADD PUSH2 0x2063 JUMP JUMPDEST PUSH1 0x40 DUP4 ADD MSTORE PUSH1 0x80 DUP4 ADD MLOAD PUSH1 0x1 PUSH1 0x1 PUSH1 0x40 SHL SUB DUP2 GT PUSH2 0x15DC JUMPI DUP8 PUSH1 0x20 PUSH2 0x21E9 SWAP3 DUP7 ADD ADD PUSH2 0x2063 JUMP JUMPDEST PUSH1 0x60 DUP4 ADD MSTORE PUSH1 0xA0 DUP4 ADD MLOAD PUSH1 0xFF DUP2 AND DUP2 SUB PUSH2 0x15DC JUMPI PUSH1 0x80 DUP4 ADD MSTORE PUSH1 0xC0 DUP4 ADD MLOAD PUSH1 0x2 DUP2 LT ISZERO PUSH2 0x15DC JUMPI PUSH1 0xA0 DUP4 ADD MSTORE PUSH1 0xE0 DUP4 ADD MLOAD SWAP2 PUSH1 0x1 PUSH1 0x1 PUSH1 0x40 SHL SUB DUP4 GT PUSH2 0x15DC JUMPI PUSH2 0x223B DUP9 PUSH1 0x20 DUP1 SWAP7 SWAP6 DUP2 SWAP7 ADD ADD PUSH2 0x2063 JUMP JUMPDEST PUSH1 0xC0 DUP3 ADD MSTORE DUP2 MSTORE ADD SWAP3 ADD SWAP2 PUSH2 0x2108 JUMP JUMPDEST PUSH1 0x2 PUSH0 SLOAD EQ PUSH2 0x225A JUMPI PUSH1 0x2 PUSH0 SSTORE JUMP JUMPDEST PUSH4 0x3EE5AEB5 PUSH1 0xE0 SHL PUSH0 MSTORE PUSH1 0x4 PUSH0 REVERT JUMPDEST PUSH2 0x23C0 PUSH1 0x20 DUP1 PUSH32 0x1D1B0398FCE0E5341C30C157D9D5B2976F5DCCE30F83882D674EBCD6839CE24F SWAP4 PUSH2 0x2299 PUSH2 0x1D21 JUMP JUMPDEST POP PUSH1 0x40 MLOAD SWAP3 DUP2 DUP5 SWAP3 MLOAD SWAP2 DUP3 SWAP2 ADD DUP4 MCOPY DUP2 ADD PUSH1 0x3 DUP2 MSTORE SUB ADD SWAP1 KECCAK256 PUSH1 0x40 MLOAD PUSH2 0x22BE DUP2 PUSH2 0x17A5 JUMP JUMPDEST PUSH1 0x40 MLOAD PUSH2 0x22CF DUP2 PUSH2 0xD9E DUP2 DUP7 PUSH2 0x1AAE JUMP JUMPDEST DUP2 MSTORE PUSH1 0x40 MLOAD PUSH2 0x22E5 DUP2 PUSH2 0xD9E DUP2 PUSH1 0x1 DUP8 ADD PUSH2 0x1AAE JUMP JUMPDEST PUSH1 0x20 DUP3 ADD MSTORE PUSH2 0x23EA PUSH1 0x40 MLOAD SWAP3 PUSH2 0x2309 DUP5 PUSH2 0x2302 DUP2 PUSH1 0x2 DUP6 ADD PUSH2 0x1AAE JUMP JUMPDEST SUB DUP6 PUSH2 0x180B JUMP JUMPDEST PUSH1 0x40 DUP4 ADD SWAP4 DUP5 MSTORE PUSH2 0x23DC PUSH1 0x40 MLOAD SWAP2 PUSH2 0x232F DUP4 PUSH2 0x2328 DUP2 PUSH1 0x3 DUP6 ADD PUSH2 0x1AAE JUMP JUMPDEST SUB DUP5 PUSH2 0x180B JUMP JUMPDEST PUSH1 0x60 DUP6 ADD SWAP3 DUP4 MSTORE PUSH2 0x23CE PUSH1 0xFF DUP1 PUSH1 0x4 DUP5 ADD SLOAD AND SWAP5 PUSH1 0x80 DUP9 ADD SWAP6 DUP7 MSTORE PUSH1 0xA PUSH2 0x100 PUSH2 0x235B PUSH1 0x5 DUP8 ADD PUSH2 0x1DD5 JUMP JUMPDEST SWAP10 PUSH1 0xA0 DUP2 ADD SWAP11 DUP12 MSTORE PUSH2 0x239D PUSH2 0x2372 PUSH1 0x7 DUP10 ADD PUSH2 0x1DD5 JUMP JUMPDEST SWAP8 PUSH1 0xC0 DUP4 ADD SWAP9 DUP10 MSTORE PUSH2 0x238D DUP8 PUSH1 0x9 DUP4 ADD SLOAD AND PUSH1 0xE0 DUP6 ADD PUSH2 0x1E0B JUMP JUMPDEST PUSH2 0x2328 PUSH1 0x40 MLOAD DUP1 SWAP7 DUP2 SWAP4 ADD PUSH2 0x1AAE JUMP JUMPDEST ADD MSTORE MLOAD SWAP8 MLOAD SWAP7 MLOAD MLOAD SWAP3 MLOAD MLOAD SWAP5 MLOAD AND SWAP6 PUSH1 0x40 MLOAD SWAP9 DUP10 SWAP9 PUSH1 0xC0 DUP11 MSTORE PUSH1 0xC0 DUP11 ADD SWAP1 PUSH2 0x188D JUMP JUMPDEST SWAP1 DUP9 DUP3 SUB PUSH1 0x20 DUP11 ADD MSTORE PUSH2 0x188D JUMP JUMPDEST SWAP1 DUP7 DUP3 SUB PUSH1 0x40 DUP9 ADD MSTORE PUSH2 0x188D JUMP JUMPDEST SWAP1 DUP5 DUP3 SUB PUSH1 0x60 DUP7 ADD MSTORE PUSH2 0x188D JUMP JUMPDEST SWAP1 PUSH1 0x80 DUP4 ADD MSTORE TIMESTAMP PUSH1 0xA0 DUP4 ADD MSTORE SUB SWAP1 LOG1 JUMP INVALID LOG2 PUSH5 0x6970667358 0x22 SLT KECCAK256 DUP1 0xD7 0xD6 SIGNEXTEND TIMESTAMP 0x1E TIMESTAMP 0xCE LOG1 0xB4 0xE3 0xB1 0xDC REVERT 0xC5 PUSH29 0x1BACFD33C6E84A769CA0C016034826F764736F6C634300081B00330000 "},"methodIdentifiers":{"acceptOrderPbf(string,string[])":"ee399ed4","acceptOrderRetailer(string,string[])":"64484ac9","allOrderIds(uint256)":"2bf05e9b","cdobCertificate()":"af3a1758","completeOrderPbf(string,string[])":"756b460f","completeOrderRetailer(string,string[])":"af9bf53d","createOrder(string,string,string,string,string,string,string,uint8,string)":"fc0e6523","detailOrder(string)":"986a0790","getAllObatPbfByInstance(string)":"f07b2c7a","getAllObatPbfReadyStock()":"906ce017","getAllObatRetailerByInstance(string)":"e1336da5","getAllOrderFromBuyer(string)":"60e4b3cf","getAllOrderFromSeller(string)":"1c2fc292","obatIpfs(string)":"271962d4","obatShared()":"3fca88cb","orderTimestamp(string)":"b711e82b","roleManager()":"00435da5"}}}}}