{"contracts/RoleManager.sol":{"RoleManager":{"abi":[{"anonymous":false,"inputs":[{"indexed":false,"internalType":"address","name":"userAddr","type":"address"},{"indexed":false,"internalType":"string","name":"name","type":"string"},{"indexed":false,"internalType":"string","name":"instanceName","type":"string"},{"indexed":false,"internalType":"enum EnumsLibrary.Roles","name":"role","type":"uint8"},{"indexed":false,"internalType":"string","name":"locationInstance","type":"string"},{"indexed":false,"internalType":"string","name":"nib","type":"string"},{"indexed":false,"internalType":"string","name":"npwp","type":"string"}],"name":"evt_UserRegistered","type":"event"},{"inputs":[{"internalType":"address","name":"_userAddr","type":"address"}],"name":"checkRegistration","outputs":[{"internalType":"bool","name":"","type":"bool"}],"stateMutability":"view","type":"function"},{"inputs":[{"internalType":"address","name":"_userAddr","type":"address"}],"name":"getUserData","outputs":[{"components":[{"internalType":"string","name":"name","type":"string"},{"internalType":"string","name":"instanceName","type":"string"},{"internalType":"address","name":"userAddr","type":"address"},{"internalType":"enum EnumsLibrary.Roles","name":"role","type":"uint8"},{"internalType":"string","name":"locationInstance","type":"string"},{"internalType":"string","name":"factoryType","type":"string"},{"internalType":"string","name":"NibNumber","type":"string"},{"internalType":"string","name":"NpwpNumber","type":"string"}],"internalType":"struct RoleManager.st_user","name":"","type":"tuple"}],"stateMutability":"view","type":"function"},{"inputs":[{"internalType":"address","name":"_userAddr","type":"address"},{"internalType":"enum EnumsLibrary.Roles","name":"_role","type":"uint8"}],"name":"hasRole","outputs":[{"internalType":"bool","name":"","type":"bool"}],"stateMutability":"view","type":"function"},{"inputs":[],"name":"loginUser","outputs":[{"components":[{"internalType":"string","name":"name","type":"string"},{"internalType":"string","name":"instanceName","type":"string"},{"internalType":"address","name":"userAddr","type":"address"},{"internalType":"enum EnumsLibrary.Roles","name":"role","type":"uint8"},{"internalType":"string","name":"locationInstance","type":"string"},{"internalType":"string","name":"factoryType","type":"string"},{"internalType":"string","name":"NibNumber","type":"string"},{"internalType":"string","name":"NpwpNumber","type":"string"}],"internalType":"struct RoleManager.st_user","name":"","type":"tuple"}],"stateMutability":"view","type":"function"},{"inputs":[{"internalType":"string","name":"_name","type":"string"},{"internalType":"string","name":"_instanceName","type":"string"},{"internalType":"uint8","name":"_role","type":"uint8"},{"internalType":"string","name":"_locationInstance","type":"string"},{"internalType":"string","name":"_factoryType","type":"string"},{"internalType":"string","name":"_nib","type":"string"},{"internalType":"string","name":"_npwp","type":"string"}],"name":"registerUser","outputs":[],"stateMutability":"nonpayable","type":"function"}],"evm":{"bytecode":{"linkReferences":{},"object":"60808060405234601557610f08908161001a8239f35b5f80fdfe60806040526004361015610011575f80fd5b5f3560e01c806336c444ee146102de57806395a8c58d1461024c578063a19ed686146101c0578063e2a41283146101835763ffc9896b14610050575f80fd5b3461017f57602036600319011261017f57610069610ca8565b610071610df6565b506001600160a01b03165f8181526001602052604090205460ff1615610141575f525f60205261013d60405f2061012c6006604051926100b084610c16565b6100b981610e32565b84526100c760018201610e32565b602085015260028101546001600160a01b03811660408601526100f39060a01c60ff1660608601610db2565b6100ff60038201610e32565b608085015261011060048201610e32565b60a085015261012160058201610e32565b60c085015201610e32565b60e082015260405191829182610cef565b0390f35b60405162461bcd60e51b8152602060048201526016602482015275155cd95c881a5cc81b9bdd081c9959da5cdd195c995960521b6044820152606490fd5b5f80fd5b3461017f57602036600319011261017f576001600160a01b036101a4610ca8565b165f526001602052602060ff60405f2054166040519015158152f35b3461017f575f36600319011261017f576101d8610df6565b50335f52600160205260ff60405f2054161561020e57335f525f60205261013d60405f2061012c6006604051926100b084610c16565b60405162461bcd60e51b81526020600482015260166024820152750aae6cae440c2c8c8e4cae6e640dad2e6e6dac2e8c6d60531b6044820152606490fd5b3461017f57604036600319011261017f57610265610ca8565b60243590600482101561017f576001600160a01b03165f8181526001602052604090205460ff1690816102a0575b6020826040519015158152f35b90505f525f60205260ff600260405f20015460a01c169060048210156102ca576020911482610293565b634e487b7160e01b5f52602160045260245ffd5b3461017f5760e036600319011261017f576004356001600160401b03811161017f5761030e903690600401610c53565b6024356001600160401b03811161017f5761032d903690600401610c53565b9060443560ff811680910361017f576064356001600160401b03811161017f5761035b903690600401610c53565b6084356001600160401b03811161017f5761037a903690600401610c53565b9360a4356001600160401b03811161017f5761039a903690600401610c53565b9360c4356001600160401b03811161017f576103ba903690600401610c53565b95335f52600160205260ff60405f205416610bd15760048510156102ca576040516103e481610c16565b8281526020810191848352604082019033825260608301916104068984610db2565b608084019088825260a0850192835260c08501938b855260e08601968d8852335f525f60205260405f2096518051906001600160401b03821161080e57819061044f8a54610dbe565b601f8111610b81575b50602090601f8311600114610b1e575f92610b13575b50508160011b915f199060031b1c19161787555b51805160018801916001600160401b03821161080e5781906104a48454610dbe565b601f8111610ac3575b50602090601f8311600114610a60575f92610a55575b50508160011b915f199060031b1c19161790555b905160028601805492519092916001600160a01b03169060048110156102ca576001600160a81b03199092161760a09190911b60ff60a01b1617905551805160038501916001600160401b03821161080e5781906105358454610dbe565b601f8111610a05575b50602090601f83116001146109a2575f92610997575b50508160011b915f199060031b1c19161790555b51805160048401916001600160401b03821161080e57819061058a8454610dbe565b601f8111610947575b50602090601f83116001146108e4575f926108d9575b50508160011b915f199060031b1c19161790555b51805160058301916001600160401b03821161080e576105dd8354610dbe565b601f8111610894575b50602090601f831160011461082d576006949392915f9183610822575b50508160011b915f199060031b1c19161790555b0190518051906001600160401b03821161080e576106358354610dbe565b601f81116107c9575b50602090601f831160011461072857956106ef6106e47fb719d5036a91d0c6a573f83db8e8c868b012a76409d557903263a37cbba30da99b976106d661070a9860e09d98886106fc9960209f996107189f5f9261071d575b50508160011b915f199060031b1c19161790555b335f5260018d5260405f20600160ff198254161790556040519d8e9d8e338152015260e08d0190610cbe565b908b820360408d0152610cbe565b9260608a0190610ce2565b8782036080890152610cbe565b9085820360a0870152610cbe565b9083820360c0850152610cbe565b0390a1005b015190505f80610696565b90601f19831691845f52815f20925f5b8181106107b157507fb719d5036a91d0c6a573f83db8e8c868b012a76409d557903263a37cbba30da99b976106d661070a9860e09d9860018960209f996107189f996106ef996106fc9d6106e49a10610799575b505050811b0190556106aa565b01515f1960f88460031b161c191690555f808061078c565b92936020600181928786015181550195019301610738565b835f5260205f20601f840160051c81019160208510610804575b601f0160051c01905b8181106107f9575061063e565b5f81556001016107ec565b90915081906107e3565b634e487b7160e01b5f52604160045260245ffd5b015190508c80610603565b90601f19831691845f52815f20925f5b81811061087c575091600193918560069897969410610864575b505050811b019055610617565b01515f1960f88460031b161c191690558c8080610857565b9293602060018192878601518155019501930161083d565b835f5260205f20601f840160051c810191602085106108cf575b601f0160051c01905b8181106108c457506105e6565b5f81556001016108b7565b90915081906108ae565b015190508c806105a9565b5f8581528281209350601f198516905b81811061092f5750908460019594939210610917575b505050811b0190556105bd565b01515f1960f88460031b161c191690558c808061090a565b929360206001819287860151815501950193016108f4565b909150835f5260205f20601f840160051c8101916020851061098d575b90601f859493920160051c01905b81811061097f5750610593565b5f8155849350600101610972565b9091508190610964565b015190508d80610554565b5f8581528281209350601f198516905b8181106109ed57509084600195949392106109d5575b505050811b019055610568565b01515f1960f88460031b161c191690558d80806109c8565b929360206001819287860151815501950193016109b2565b909150835f5260205f20601f840160051c81019160208510610a4b575b90601f859493920160051c01905b818110610a3d575061053e565b5f8155849350600101610a30565b9091508190610a22565b015190505f806104c3565b5f8581528281209350601f198516905b818110610aab5750908460019594939210610a93575b505050811b0190556104d7565b01515f1960f88460031b161c191690555f8080610a86565b92936020600181928786015181550195019301610a70565b909150835f5260205f20601f840160051c81019160208510610b09575b90601f859493920160051c01905b818110610afb57506104ad565b5f8155849350600101610aee565b9091508190610ae0565b015190505f8061046e565b5f8b81528281209350601f198516905b818110610b695750908460019594939210610b51575b505050811b018755610482565b01515f1960f88460031b161c191690555f8080610b44565b92936020600181928786015181550195019301610b2e565b909150895f5260205f20601f840160051c81019160208510610bc7575b90601f859493920160051c01905b818110610bb95750610458565b5f8155849350600101610bac565b9091508190610b9e565b60405162461bcd60e51b815260206004820152601760248201527f5573657220616c726561647920726567697374657265640000000000000000006044820152606490fd5b61010081019081106001600160401b0382111761080e57604052565b90601f801991011681019081106001600160401b0382111761080e57604052565b81601f8201121561017f578035906001600160401b03821161080e5760405192610c87601f8401601f191660200185610c32565b8284526020838301011161017f57815f926020809301838601378301015290565b600435906001600160a01b038216820361017f57565b805180835260209291819084018484015e5f828201840152601f01601f1916010190565b9060048210156102ca5752565b90610daf916020815260e0610d99610d84610d6e610d34610d1e87516101006020890152610120880190610cbe565b6020880151878203601f19016040890152610cbe565b60018060a01b036040880151166060870152610d5860608801516080880190610ce2565b6080870151868203601f190160a0880152610cbe565b60a0860151858203601f190160c0870152610cbe565b60c0850151848203601f190184860152610cbe565b92015190610100601f1982850301910152610cbe565b90565b60048210156102ca5752565b90600182811c92168015610dec575b6020831014610dd857565b634e487b7160e01b5f52602260045260245ffd5b91607f1691610dcd565b60405190610e0382610c16565b606060e0838281528260208201525f60408201525f838201528260808201528260a08201528260c08201520152565b9060405191825f825492610e4584610dbe565b8084529360018116908115610eb05750600114610e6c575b50610e6a92500383610c32565b565b90505f9291925260205f20905f915b818310610e94575050906020610e6a928201015f610e5d565b6020919350806001915483858901015201910190918492610e7b565b905060209250610e6a94915060ff191682840152151560051b8201015f610e5d56fea26469706673582212208687eb3f345327b5f6bc6b30235aa5f69f5fd73c56216a9d015dc540f740aada64736f6c634300081b0033","opcodes":"PUSH1 0x80 DUP1 PUSH1 0x40 MSTORE CALLVALUE PUSH1 0x15 JUMPI PUSH2 0xF08 SWAP1 DUP2 PUSH2 0x1A DUP3 CODECOPY RETURN JUMPDEST PUSH0 DUP1 REVERT INVALID PUSH1 0x80 PUSH1 0x40 MSTORE PUSH1 0x4 CALLDATASIZE LT ISZERO PUSH2 0x11 JUMPI PUSH0 DUP1 REVERT JUMPDEST PUSH0 CALLDATALOAD PUSH1 0xE0 SHR DUP1 PUSH4 0x36C444EE EQ PUSH2 0x2DE JUMPI DUP1 PUSH4 0x95A8C58D EQ PUSH2 0x24C JUMPI DUP1 PUSH4 0xA19ED686 EQ PUSH2 0x1C0 JUMPI DUP1 PUSH4 0xE2A41283 EQ PUSH2 0x183 JUMPI PUSH4 0xFFC9896B EQ PUSH2 0x50 JUMPI PUSH0 DUP1 REVERT JUMPDEST CALLVALUE PUSH2 0x17F JUMPI PUSH1 0x20 CALLDATASIZE PUSH1 0x3 NOT ADD SLT PUSH2 0x17F JUMPI PUSH2 0x69 PUSH2 0xCA8 JUMP JUMPDEST PUSH2 0x71 PUSH2 0xDF6 JUMP JUMPDEST POP PUSH1 0x1 PUSH1 0x1 PUSH1 0xA0 SHL SUB AND PUSH0 DUP2 DUP2 MSTORE PUSH1 0x1 PUSH1 0x20 MSTORE PUSH1 0x40 SWAP1 KECCAK256 SLOAD PUSH1 0xFF AND ISZERO PUSH2 0x141 JUMPI PUSH0 MSTORE PUSH0 PUSH1 0x20 MSTORE PUSH2 0x13D PUSH1 0x40 PUSH0 KECCAK256 PUSH2 0x12C PUSH1 0x6 PUSH1 0x40 MLOAD SWAP3 PUSH2 0xB0 DUP5 PUSH2 0xC16 JUMP JUMPDEST PUSH2 0xB9 DUP2 PUSH2 0xE32 JUMP JUMPDEST DUP5 MSTORE PUSH2 0xC7 PUSH1 0x1 DUP3 ADD PUSH2 0xE32 JUMP JUMPDEST PUSH1 0x20 DUP6 ADD MSTORE PUSH1 0x2 DUP2 ADD SLOAD PUSH1 0x1 PUSH1 0x1 PUSH1 0xA0 SHL SUB DUP2 AND PUSH1 0x40 DUP7 ADD MSTORE PUSH2 0xF3 SWAP1 PUSH1 0xA0 SHR PUSH1 0xFF AND PUSH1 0x60 DUP7 ADD PUSH2 0xDB2 JUMP JUMPDEST PUSH2 0xFF PUSH1 0x3 DUP3 ADD PUSH2 0xE32 JUMP JUMPDEST PUSH1 0x80 DUP6 ADD MSTORE PUSH2 0x110 PUSH1 0x4 DUP3 ADD PUSH2 0xE32 JUMP JUMPDEST PUSH1 0xA0 DUP6 ADD MSTORE PUSH2 0x121 PUSH1 0x5 DUP3 ADD PUSH2 0xE32 JUMP JUMPDEST PUSH1 0xC0 DUP6 ADD MSTORE ADD PUSH2 0xE32 JUMP JUMPDEST PUSH1 0xE0 DUP3 ADD MSTORE PUSH1 0x40 MLOAD SWAP2 DUP3 SWAP2 DUP3 PUSH2 0xCEF JUMP JUMPDEST SUB SWAP1 RETURN JUMPDEST PUSH1 0x40 MLOAD PUSH3 0x461BCD PUSH1 0xE5 SHL DUP2 MSTORE PUSH1 0x20 PUSH1 0x4 DUP3 ADD MSTORE PUSH1 0x16 PUSH1 0x24 DUP3 ADD MSTORE PUSH22 0x155CD95C881A5CC81B9BDD081C9959DA5CDD195C9959 PUSH1 0x52 SHL PUSH1 0x44 DUP3 ADD MSTORE PUSH1 0x64 SWAP1 REVERT JUMPDEST PUSH0 DUP1 REVERT JUMPDEST CALLVALUE PUSH2 0x17F JUMPI PUSH1 0x20 CALLDATASIZE PUSH1 0x3 NOT ADD SLT PUSH2 0x17F JUMPI PUSH1 0x1 PUSH1 0x1 PUSH1 0xA0 SHL SUB PUSH2 0x1A4 PUSH2 0xCA8 JUMP JUMPDEST AND PUSH0 MSTORE PUSH1 0x1 PUSH1 0x20 MSTORE PUSH1 0x20 PUSH1 0xFF PUSH1 0x40 PUSH0 KECCAK256 SLOAD AND PUSH1 0x40 MLOAD SWAP1 ISZERO ISZERO DUP2 MSTORE RETURN JUMPDEST CALLVALUE PUSH2 0x17F JUMPI PUSH0 CALLDATASIZE PUSH1 0x3 NOT ADD SLT PUSH2 0x17F JUMPI PUSH2 0x1D8 PUSH2 0xDF6 JUMP JUMPDEST POP CALLER PUSH0 MSTORE PUSH1 0x1 PUSH1 0x20 MSTORE PUSH1 0xFF PUSH1 0x40 PUSH0 KECCAK256 SLOAD AND ISZERO PUSH2 0x20E JUMPI CALLER PUSH0 MSTORE PUSH0 PUSH1 0x20 MSTORE PUSH2 0x13D PUSH1 0x40 PUSH0 KECCAK256 PUSH2 0x12C PUSH1 0x6 PUSH1 0x40 MLOAD SWAP3 PUSH2 0xB0 DUP5 PUSH2 0xC16 JUMP JUMPDEST PUSH1 0x40 MLOAD PUSH3 0x461BCD PUSH1 0xE5 SHL DUP2 MSTORE PUSH1 0x20 PUSH1 0x4 DUP3 ADD MSTORE PUSH1 0x16 PUSH1 0x24 DUP3 ADD MSTORE PUSH22 0xAAE6CAE440C2C8C8E4CAE6E640DAD2E6E6DAC2E8C6D PUSH1 0x53 SHL PUSH1 0x44 DUP3 ADD MSTORE PUSH1 0x64 SWAP1 REVERT JUMPDEST CALLVALUE PUSH2 0x17F JUMPI PUSH1 0x40 CALLDATASIZE PUSH1 0x3 NOT ADD SLT PUSH2 0x17F JUMPI PUSH2 0x265 PUSH2 0xCA8 JUMP JUMPDEST PUSH1 0x24 CALLDATALOAD SWAP1 PUSH1 0x4 DUP3 LT ISZERO PUSH2 0x17F JUMPI PUSH1 0x1 PUSH1 0x1 PUSH1 0xA0 SHL SUB AND PUSH0 DUP2 DUP2 MSTORE PUSH1 0x1 PUSH1 0x20 MSTORE PUSH1 0x40 SWAP1 KECCAK256 SLOAD PUSH1 0xFF AND SWAP1 DUP2 PUSH2 0x2A0 JUMPI JUMPDEST PUSH1 0x20 DUP3 PUSH1 0x40 MLOAD SWAP1 ISZERO ISZERO DUP2 MSTORE RETURN JUMPDEST SWAP1 POP PUSH0 MSTORE PUSH0 PUSH1 0x20 MSTORE PUSH1 0xFF PUSH1 0x2 PUSH1 0x40 PUSH0 KECCAK256 ADD SLOAD PUSH1 0xA0 SHR AND SWAP1 PUSH1 0x4 DUP3 LT ISZERO PUSH2 0x2CA JUMPI PUSH1 0x20 SWAP2 EQ DUP3 PUSH2 0x293 JUMP JUMPDEST PUSH4 0x4E487B71 PUSH1 0xE0 SHL PUSH0 MSTORE PUSH1 0x21 PUSH1 0x4 MSTORE PUSH1 0x24 PUSH0 REVERT JUMPDEST CALLVALUE PUSH2 0x17F JUMPI PUSH1 0xE0 CALLDATASIZE PUSH1 0x3 NOT ADD SLT PUSH2 0x17F JUMPI PUSH1 0x4 CALLDATALOAD PUSH1 0x1 PUSH1 0x1 PUSH1 0x40 SHL SUB DUP2 GT PUSH2 0x17F JUMPI PUSH2 0x30E SWAP1 CALLDATASIZE SWAP1 PUSH1 0x4 ADD PUSH2 0xC53 JUMP JUMPDEST PUSH1 0x24 CALLDATALOAD PUSH1 0x1 PUSH1 0x1 PUSH1 0x40 SHL SUB DUP2 GT PUSH2 0x17F JUMPI PUSH2 0x32D SWAP1 CALLDATASIZE SWAP1 PUSH1 0x4 ADD PUSH2 0xC53 JUMP JUMPDEST SWAP1 PUSH1 0x44 CALLDATALOAD PUSH1 0xFF DUP2 AND DUP1 SWAP2 SUB PUSH2 0x17F JUMPI PUSH1 0x64 CALLDATALOAD PUSH1 0x1 PUSH1 0x1 PUSH1 0x40 SHL SUB DUP2 GT PUSH2 0x17F JUMPI PUSH2 0x35B SWAP1 CALLDATASIZE SWAP1 PUSH1 0x4 ADD PUSH2 0xC53 JUMP JUMPDEST PUSH1 0x84 CALLDATALOAD PUSH1 0x1 PUSH1 0x1 PUSH1 0x40 SHL SUB DUP2 GT PUSH2 0x17F JUMPI PUSH2 0x37A SWAP1 CALLDATASIZE SWAP1 PUSH1 0x4 ADD PUSH2 0xC53 JUMP JUMPDEST SWAP4 PUSH1 0xA4 CALLDATALOAD PUSH1 0x1 PUSH1 0x1 PUSH1 0x40 SHL SUB DUP2 GT PUSH2 0x17F JUMPI PUSH2 0x39A SWAP1 CALLDATASIZE SWAP1 PUSH1 0x4 ADD PUSH2 0xC53 JUMP JUMPDEST SWAP4 PUSH1 0xC4 CALLDATALOAD PUSH1 0x1 PUSH1 0x1 PUSH1 0x40 SHL SUB DUP2 GT PUSH2 0x17F JUMPI PUSH2 0x3BA SWAP1 CALLDATASIZE SWAP1 PUSH1 0x4 ADD PUSH2 0xC53 JUMP JUMPDEST SWAP6 CALLER PUSH0 MSTORE PUSH1 0x1 PUSH1 0x20 MSTORE PUSH1 0xFF PUSH1 0x40 PUSH0 KECCAK256 SLOAD AND PUSH2 0xBD1 JUMPI PUSH1 0x4 DUP6 LT ISZERO PUSH2 0x2CA JUMPI PUSH1 0x40 MLOAD PUSH2 0x3E4 DUP2 PUSH2 0xC16 JUMP JUMPDEST DUP3 DUP2 MSTORE PUSH1 0x20 DUP2 ADD SWAP2 DUP5 DUP4 MSTORE PUSH1 0x40 DUP3 ADD SWAP1 CALLER DUP3 MSTORE PUSH1 0x60 DUP4 ADD SWAP2 PUSH2 0x406 DUP10 DUP5 PUSH2 0xDB2 JUMP JUMPDEST PUSH1 0x80 DUP5 ADD SWAP1 DUP9 DUP3 MSTORE PUSH1 0xA0 DUP6 ADD SWAP3 DUP4 MSTORE PUSH1 0xC0 DUP6 ADD SWAP4 DUP12 DUP6 MSTORE PUSH1 0xE0 DUP7 ADD SWAP7 DUP14 DUP9 MSTORE CALLER PUSH0 MSTORE PUSH0 PUSH1 0x20 MSTORE PUSH1 0x40 PUSH0 KECCAK256 SWAP7 MLOAD DUP1 MLOAD SWAP1 PUSH1 0x1 PUSH1 0x1 PUSH1 0x40 SHL SUB DUP3 GT PUSH2 0x80E JUMPI DUP2 SWAP1 PUSH2 0x44F DUP11 SLOAD PUSH2 0xDBE JUMP JUMPDEST PUSH1 0x1F DUP2 GT PUSH2 0xB81 JUMPI JUMPDEST POP PUSH1 0x20 SWAP1 PUSH1 0x1F DUP4 GT PUSH1 0x1 EQ PUSH2 0xB1E JUMPI PUSH0 SWAP3 PUSH2 0xB13 JUMPI JUMPDEST POP POP DUP2 PUSH1 0x1 SHL SWAP2 PUSH0 NOT SWAP1 PUSH1 0x3 SHL SHR NOT AND OR DUP8 SSTORE JUMPDEST MLOAD DUP1 MLOAD PUSH1 0x1 DUP9 ADD SWAP2 PUSH1 0x1 PUSH1 0x1 PUSH1 0x40 SHL SUB DUP3 GT PUSH2 0x80E JUMPI DUP2 SWAP1 PUSH2 0x4A4 DUP5 SLOAD PUSH2 0xDBE JUMP JUMPDEST PUSH1 0x1F DUP2 GT PUSH2 0xAC3 JUMPI JUMPDEST POP PUSH1 0x20 SWAP1 PUSH1 0x1F DUP4 GT PUSH1 0x1 EQ PUSH2 0xA60 JUMPI PUSH0 SWAP3 PUSH2 0xA55 JUMPI JUMPDEST POP POP DUP2 PUSH1 0x1 SHL SWAP2 PUSH0 NOT SWAP1 PUSH1 0x3 SHL SHR NOT AND OR SWAP1 SSTORE JUMPDEST SWAP1 MLOAD PUSH1 0x2 DUP7 ADD DUP1 SLOAD SWAP3 MLOAD SWAP1 SWAP3 SWAP2 PUSH1 0x1 PUSH1 0x1 PUSH1 0xA0 SHL SUB AND SWAP1 PUSH1 0x4 DUP2 LT ISZERO PUSH2 0x2CA JUMPI PUSH1 0x1 PUSH1 0x1 PUSH1 0xA8 SHL SUB NOT SWAP1 SWAP3 AND OR PUSH1 0xA0 SWAP2 SWAP1 SWAP2 SHL PUSH1 0xFF PUSH1 0xA0 SHL AND OR SWAP1 SSTORE MLOAD DUP1 MLOAD PUSH1 0x3 DUP6 ADD SWAP2 PUSH1 0x1 PUSH1 0x1 PUSH1 0x40 SHL SUB DUP3 GT PUSH2 0x80E JUMPI DUP2 SWAP1 PUSH2 0x535 DUP5 SLOAD PUSH2 0xDBE JUMP JUMPDEST PUSH1 0x1F DUP2 GT PUSH2 0xA05 JUMPI JUMPDEST POP PUSH1 0x20 SWAP1 PUSH1 0x1F DUP4 GT PUSH1 0x1 EQ PUSH2 0x9A2 JUMPI PUSH0 SWAP3 PUSH2 0x997 JUMPI JUMPDEST POP POP DUP2 PUSH1 0x1 SHL SWAP2 PUSH0 NOT SWAP1 PUSH1 0x3 SHL SHR NOT AND OR SWAP1 SSTORE JUMPDEST MLOAD DUP1 MLOAD PUSH1 0x4 DUP5 ADD SWAP2 PUSH1 0x1 PUSH1 0x1 PUSH1 0x40 SHL SUB DUP3 GT PUSH2 0x80E JUMPI DUP2 SWAP1 PUSH2 0x58A DUP5 SLOAD PUSH2 0xDBE JUMP JUMPDEST PUSH1 0x1F DUP2 GT PUSH2 0x947 JUMPI JUMPDEST POP PUSH1 0x20 SWAP1 PUSH1 0x1F DUP4 GT PUSH1 0x1 EQ PUSH2 0x8E4 JUMPI PUSH0 SWAP3 PUSH2 0x8D9 JUMPI JUMPDEST POP POP DUP2 PUSH1 0x1 SHL SWAP2 PUSH0 NOT SWAP1 PUSH1 0x3 SHL SHR NOT AND OR SWAP1 SSTORE JUMPDEST MLOAD DUP1 MLOAD PUSH1 0x5 DUP4 ADD SWAP2 PUSH1 0x1 PUSH1 0x1 PUSH1 0x40 SHL SUB DUP3 GT PUSH2 0x80E JUMPI PUSH2 0x5DD DUP4 SLOAD PUSH2 0xDBE JUMP JUMPDEST PUSH1 0x1F DUP2 GT PUSH2 0x894 JUMPI JUMPDEST POP PUSH1 0x20 SWAP1 PUSH1 0x1F DUP4 GT PUSH1 0x1 EQ PUSH2 0x82D JUMPI PUSH1 0x6 SWAP5 SWAP4 SWAP3 SWAP2 PUSH0 SWAP2 DUP4 PUSH2 0x822 JUMPI JUMPDEST POP POP DUP2 PUSH1 0x1 SHL SWAP2 PUSH0 NOT SWAP1 PUSH1 0x3 SHL SHR NOT AND OR SWAP1 SSTORE JUMPDEST ADD SWAP1 MLOAD DUP1 MLOAD SWAP1 PUSH1 0x1 PUSH1 0x1 PUSH1 0x40 SHL SUB DUP3 GT PUSH2 0x80E JUMPI PUSH2 0x635 DUP4 SLOAD PUSH2 0xDBE JUMP JUMPDEST PUSH1 0x1F DUP2 GT PUSH2 0x7C9 JUMPI JUMPDEST POP PUSH1 0x20 SWAP1 PUSH1 0x1F DUP4 GT PUSH1 0x1 EQ PUSH2 0x728 JUMPI SWAP6 PUSH2 0x6EF PUSH2 0x6E4 PUSH32 0xB719D5036A91D0C6A573F83DB8E8C868B012A76409D557903263A37CBBA30DA9 SWAP12 SWAP8 PUSH2 0x6D6 PUSH2 0x70A SWAP9 PUSH1 0xE0 SWAP14 SWAP9 DUP9 PUSH2 0x6FC SWAP10 PUSH1 0x20 SWAP16 SWAP10 PUSH2 0x718 SWAP16 PUSH0 SWAP3 PUSH2 0x71D JUMPI JUMPDEST POP POP DUP2 PUSH1 0x1 SHL SWAP2 PUSH0 NOT SWAP1 PUSH1 0x3 SHL SHR NOT AND OR SWAP1 SSTORE JUMPDEST CALLER PUSH0 MSTORE PUSH1 0x1 DUP14 MSTORE PUSH1 0x40 PUSH0 KECCAK256 PUSH1 0x1 PUSH1 0xFF NOT DUP3 SLOAD AND OR SWAP1 SSTORE PUSH1 0x40 MLOAD SWAP14 DUP15 SWAP14 DUP15 CALLER DUP2 MSTORE ADD MSTORE PUSH1 0xE0 DUP14 ADD SWAP1 PUSH2 0xCBE JUMP JUMPDEST SWAP1 DUP12 DUP3 SUB PUSH1 0x40 DUP14 ADD MSTORE PUSH2 0xCBE JUMP JUMPDEST SWAP3 PUSH1 0x60 DUP11 ADD SWAP1 PUSH2 0xCE2 JUMP JUMPDEST DUP8 DUP3 SUB PUSH1 0x80 DUP10 ADD MSTORE PUSH2 0xCBE JUMP JUMPDEST SWAP1 DUP6 DUP3 SUB PUSH1 0xA0 DUP8 ADD MSTORE PUSH2 0xCBE JUMP JUMPDEST SWAP1 DUP4 DUP3 SUB PUSH1 0xC0 DUP6 ADD MSTORE PUSH2 0xCBE JUMP JUMPDEST SUB SWAP1 LOG1 STOP JUMPDEST ADD MLOAD SWAP1 POP PUSH0 DUP1 PUSH2 0x696 JUMP JUMPDEST SWAP1 PUSH1 0x1F NOT DUP4 AND SWAP2 DUP5 PUSH0 MSTORE DUP2 PUSH0 KECCAK256 SWAP3 PUSH0 JUMPDEST DUP2 DUP2 LT PUSH2 0x7B1 JUMPI POP PUSH32 0xB719D5036A91D0C6A573F83DB8E8C868B012A76409D557903263A37CBBA30DA9 SWAP12 SWAP8 PUSH2 0x6D6 PUSH2 0x70A SWAP9 PUSH1 0xE0 SWAP14 SWAP9 PUSH1 0x1 DUP10 PUSH1 0x20 SWAP16 SWAP10 PUSH2 0x718 SWAP16 SWAP10 PUSH2 0x6EF SWAP10 PUSH2 0x6FC SWAP14 PUSH2 0x6E4 SWAP11 LT PUSH2 0x799 JUMPI JUMPDEST POP POP POP DUP2 SHL ADD SWAP1 SSTORE PUSH2 0x6AA JUMP JUMPDEST ADD MLOAD PUSH0 NOT PUSH1 0xF8 DUP5 PUSH1 0x3 SHL AND SHR NOT AND SWAP1 SSTORE PUSH0 DUP1 DUP1 PUSH2 0x78C JUMP JUMPDEST SWAP3 SWAP4 PUSH1 0x20 PUSH1 0x1 DUP2 SWAP3 DUP8 DUP7 ADD MLOAD DUP2 SSTORE ADD SWAP6 ADD SWAP4 ADD PUSH2 0x738 JUMP JUMPDEST DUP4 PUSH0 MSTORE PUSH1 0x20 PUSH0 KECCAK256 PUSH1 0x1F DUP5 ADD PUSH1 0x5 SHR DUP2 ADD SWAP2 PUSH1 0x20 DUP6 LT PUSH2 0x804 JUMPI JUMPDEST PUSH1 0x1F ADD PUSH1 0x5 SHR ADD SWAP1 JUMPDEST DUP2 DUP2 LT PUSH2 0x7F9 JUMPI POP PUSH2 0x63E JUMP JUMPDEST PUSH0 DUP2 SSTORE PUSH1 0x1 ADD PUSH2 0x7EC JUMP JUMPDEST SWAP1 SWAP2 POP DUP2 SWAP1 PUSH2 0x7E3 JUMP JUMPDEST PUSH4 0x4E487B71 PUSH1 0xE0 SHL PUSH0 MSTORE PUSH1 0x41 PUSH1 0x4 MSTORE PUSH1 0x24 PUSH0 REVERT JUMPDEST ADD MLOAD SWAP1 POP DUP13 DUP1 PUSH2 0x603 JUMP JUMPDEST SWAP1 PUSH1 0x1F NOT DUP4 AND SWAP2 DUP5 PUSH0 MSTORE DUP2 PUSH0 KECCAK256 SWAP3 PUSH0 JUMPDEST DUP2 DUP2 LT PUSH2 0x87C JUMPI POP SWAP2 PUSH1 0x1 SWAP4 SWAP2 DUP6 PUSH1 0x6 SWAP9 SWAP8 SWAP7 SWAP5 LT PUSH2 0x864 JUMPI JUMPDEST POP POP POP DUP2 SHL ADD SWAP1 SSTORE PUSH2 0x617 JUMP JUMPDEST ADD MLOAD PUSH0 NOT PUSH1 0xF8 DUP5 PUSH1 0x3 SHL AND SHR NOT AND SWAP1 SSTORE DUP13 DUP1 DUP1 PUSH2 0x857 JUMP JUMPDEST SWAP3 SWAP4 PUSH1 0x20 PUSH1 0x1 DUP2 SWAP3 DUP8 DUP7 ADD MLOAD DUP2 SSTORE ADD SWAP6 ADD SWAP4 ADD PUSH2 0x83D JUMP JUMPDEST DUP4 PUSH0 MSTORE PUSH1 0x20 PUSH0 KECCAK256 PUSH1 0x1F DUP5 ADD PUSH1 0x5 SHR DUP2 ADD SWAP2 PUSH1 0x20 DUP6 LT PUSH2 0x8CF JUMPI JUMPDEST PUSH1 0x1F ADD PUSH1 0x5 SHR ADD SWAP1 JUMPDEST DUP2 DUP2 LT PUSH2 0x8C4 JUMPI POP PUSH2 0x5E6 JUMP JUMPDEST PUSH0 DUP2 SSTORE PUSH1 0x1 ADD PUSH2 0x8B7 JUMP JUMPDEST SWAP1 SWAP2 POP DUP2 SWAP1 PUSH2 0x8AE JUMP JUMPDEST ADD MLOAD SWAP1 POP DUP13 DUP1 PUSH2 0x5A9 JUMP JUMPDEST PUSH0 DUP6 DUP2 MSTORE DUP3 DUP2 KECCAK256 SWAP4 POP PUSH1 0x1F NOT DUP6 AND SWAP1 JUMPDEST DUP2 DUP2 LT PUSH2 0x92F JUMPI POP SWAP1 DUP5 PUSH1 0x1 SWAP6 SWAP5 SWAP4 SWAP3 LT PUSH2 0x917 JUMPI JUMPDEST POP POP POP DUP2 SHL ADD SWAP1 SSTORE PUSH2 0x5BD JUMP JUMPDEST ADD MLOAD PUSH0 NOT PUSH1 0xF8 DUP5 PUSH1 0x3 SHL AND SHR NOT AND SWAP1 SSTORE DUP13 DUP1 DUP1 PUSH2 0x90A JUMP JUMPDEST SWAP3 SWAP4 PUSH1 0x20 PUSH1 0x1 DUP2 SWAP3 DUP8 DUP7 ADD MLOAD DUP2 SSTORE ADD SWAP6 ADD SWAP4 ADD PUSH2 0x8F4 JUMP JUMPDEST SWAP1 SWAP2 POP DUP4 PUSH0 MSTORE PUSH1 0x20 PUSH0 KECCAK256 PUSH1 0x1F DUP5 ADD PUSH1 0x5 SHR DUP2 ADD SWAP2 PUSH1 0x20 DUP6 LT PUSH2 0x98D JUMPI JUMPDEST SWAP1 PUSH1 0x1F DUP6 SWAP5 SWAP4 SWAP3 ADD PUSH1 0x5 SHR ADD SWAP1 JUMPDEST DUP2 DUP2 LT PUSH2 0x97F JUMPI POP PUSH2 0x593 JUMP JUMPDEST PUSH0 DUP2 SSTORE DUP5 SWAP4 POP PUSH1 0x1 ADD PUSH2 0x972 JUMP JUMPDEST SWAP1 SWAP2 POP DUP2 SWAP1 PUSH2 0x964 JUMP JUMPDEST ADD MLOAD SWAP1 POP DUP14 DUP1 PUSH2 0x554 JUMP JUMPDEST PUSH0 DUP6 DUP2 MSTORE DUP3 DUP2 KECCAK256 SWAP4 POP PUSH1 0x1F NOT DUP6 AND SWAP1 JUMPDEST DUP2 DUP2 LT PUSH2 0x9ED JUMPI POP SWAP1 DUP5 PUSH1 0x1 SWAP6 SWAP5 SWAP4 SWAP3 LT PUSH2 0x9D5 JUMPI JUMPDEST POP POP POP DUP2 SHL ADD SWAP1 SSTORE PUSH2 0x568 JUMP JUMPDEST ADD MLOAD PUSH0 NOT PUSH1 0xF8 DUP5 PUSH1 0x3 SHL AND SHR NOT AND SWAP1 SSTORE DUP14 DUP1 DUP1 PUSH2 0x9C8 JUMP JUMPDEST SWAP3 SWAP4 PUSH1 0x20 PUSH1 0x1 DUP2 SWAP3 DUP8 DUP7 ADD MLOAD DUP2 SSTORE ADD SWAP6 ADD SWAP4 ADD PUSH2 0x9B2 JUMP JUMPDEST SWAP1 SWAP2 POP DUP4 PUSH0 MSTORE PUSH1 0x20 PUSH0 KECCAK256 PUSH1 0x1F DUP5 ADD PUSH1 0x5 SHR DUP2 ADD SWAP2 PUSH1 0x20 DUP6 LT PUSH2 0xA4B JUMPI JUMPDEST SWAP1 PUSH1 0x1F DUP6 SWAP5 SWAP4 SWAP3 ADD PUSH1 0x5 SHR ADD SWAP1 JUMPDEST DUP2 DUP2 LT PUSH2 0xA3D JUMPI POP PUSH2 0x53E JUMP JUMPDEST PUSH0 DUP2 SSTORE DUP5 SWAP4 POP PUSH1 0x1 ADD PUSH2 0xA30 JUMP JUMPDEST SWAP1 SWAP2 POP DUP2 SWAP1 PUSH2 0xA22 JUMP JUMPDEST ADD MLOAD SWAP1 POP PUSH0 DUP1 PUSH2 0x4C3 JUMP JUMPDEST PUSH0 DUP6 DUP2 MSTORE DUP3 DUP2 KECCAK256 SWAP4 POP PUSH1 0x1F NOT DUP6 AND SWAP1 JUMPDEST DUP2 DUP2 LT PUSH2 0xAAB JUMPI POP SWAP1 DUP5 PUSH1 0x1 SWAP6 SWAP5 SWAP4 SWAP3 LT PUSH2 0xA93 JUMPI JUMPDEST POP POP POP DUP2 SHL ADD SWAP1 SSTORE PUSH2 0x4D7 JUMP JUMPDEST ADD MLOAD PUSH0 NOT PUSH1 0xF8 DUP5 PUSH1 0x3 SHL AND SHR NOT AND SWAP1 SSTORE PUSH0 DUP1 DUP1 PUSH2 0xA86 JUMP JUMPDEST SWAP3 SWAP4 PUSH1 0x20 PUSH1 0x1 DUP2 SWAP3 DUP8 DUP7 ADD MLOAD DUP2 SSTORE ADD SWAP6 ADD SWAP4 ADD PUSH2 0xA70 JUMP JUMPDEST SWAP1 SWAP2 POP DUP4 PUSH0 MSTORE PUSH1 0x20 PUSH0 KECCAK256 PUSH1 0x1F DUP5 ADD PUSH1 0x5 SHR DUP2 ADD SWAP2 PUSH1 0x20 DUP6 LT PUSH2 0xB09 JUMPI JUMPDEST SWAP1 PUSH1 0x1F DUP6 SWAP5 SWAP4 SWAP3 ADD PUSH1 0x5 SHR ADD SWAP1 JUMPDEST DUP2 DUP2 LT PUSH2 0xAFB JUMPI POP PUSH2 0x4AD JUMP JUMPDEST PUSH0 DUP2 SSTORE DUP5 SWAP4 POP PUSH1 0x1 ADD PUSH2 0xAEE JUMP JUMPDEST SWAP1 SWAP2 POP DUP2 SWAP1 PUSH2 0xAE0 JUMP JUMPDEST ADD MLOAD SWAP1 POP PUSH0 DUP1 PUSH2 0x46E JUMP JUMPDEST PUSH0 DUP12 DUP2 MSTORE DUP3 DUP2 KECCAK256 SWAP4 POP PUSH1 0x1F NOT DUP6 AND SWAP1 JUMPDEST DUP2 DUP2 LT PUSH2 0xB69 JUMPI POP SWAP1 DUP5 PUSH1 0x1 SWAP6 SWAP5 SWAP4 SWAP3 LT PUSH2 0xB51 JUMPI JUMPDEST POP POP POP DUP2 SHL ADD DUP8 SSTORE PUSH2 0x482 JUMP JUMPDEST ADD MLOAD PUSH0 NOT PUSH1 0xF8 DUP5 PUSH1 0x3 SHL AND SHR NOT AND SWAP1 SSTORE PUSH0 DUP1 DUP1 PUSH2 0xB44 JUMP JUMPDEST SWAP3 SWAP4 PUSH1 0x20 PUSH1 0x1 DUP2 SWAP3 DUP8 DUP7 ADD MLOAD DUP2 SSTORE ADD SWAP6 ADD SWAP4 ADD PUSH2 0xB2E JUMP JUMPDEST SWAP1 SWAP2 POP DUP10 PUSH0 MSTORE PUSH1 0x20 PUSH0 KECCAK256 PUSH1 0x1F DUP5 ADD PUSH1 0x5 SHR DUP2 ADD SWAP2 PUSH1 0x20 DUP6 LT PUSH2 0xBC7 JUMPI JUMPDEST SWAP1 PUSH1 0x1F DUP6 SWAP5 SWAP4 SWAP3 ADD PUSH1 0x5 SHR ADD SWAP1 JUMPDEST DUP2 DUP2 LT PUSH2 0xBB9 JUMPI POP PUSH2 0x458 JUMP JUMPDEST PUSH0 DUP2 SSTORE DUP5 SWAP4 POP PUSH1 0x1 ADD PUSH2 0xBAC JUMP JUMPDEST SWAP1 SWAP2 POP DUP2 SWAP1 PUSH2 0xB9E JUMP JUMPDEST PUSH1 0x40 MLOAD PUSH3 0x461BCD PUSH1 0xE5 SHL DUP2 MSTORE PUSH1 0x20 PUSH1 0x4 DUP3 ADD MSTORE PUSH1 0x17 PUSH1 0x24 DUP3 ADD MSTORE PUSH32 0x5573657220616C72656164792072656769737465726564000000000000000000 PUSH1 0x44 DUP3 ADD MSTORE PUSH1 0x64 SWAP1 REVERT JUMPDEST PUSH2 0x100 DUP2 ADD SWAP1 DUP2 LT PUSH1 0x1 PUSH1 0x1 PUSH1 0x40 SHL SUB DUP3 GT OR PUSH2 0x80E JUMPI PUSH1 0x40 MSTORE JUMP JUMPDEST SWAP1 PUSH1 0x1F DUP1 NOT SWAP2 ADD AND DUP2 ADD SWAP1 DUP2 LT PUSH1 0x1 PUSH1 0x1 PUSH1 0x40 SHL SUB DUP3 GT OR PUSH2 0x80E JUMPI PUSH1 0x40 MSTORE JUMP JUMPDEST DUP2 PUSH1 0x1F DUP3 ADD SLT ISZERO PUSH2 0x17F JUMPI DUP1 CALLDATALOAD SWAP1 PUSH1 0x1 PUSH1 0x1 PUSH1 0x40 SHL SUB DUP3 GT PUSH2 0x80E JUMPI PUSH1 0x40 MLOAD SWAP3 PUSH2 0xC87 PUSH1 0x1F DUP5 ADD PUSH1 0x1F NOT AND PUSH1 0x20 ADD DUP6 PUSH2 0xC32 JUMP JUMPDEST DUP3 DUP5 MSTORE PUSH1 0x20 DUP4 DUP4 ADD ADD GT PUSH2 0x17F JUMPI DUP2 PUSH0 SWAP3 PUSH1 0x20 DUP1 SWAP4 ADD DUP4 DUP7 ADD CALLDATACOPY DUP4 ADD ADD MSTORE SWAP1 JUMP JUMPDEST PUSH1 0x4 CALLDATALOAD SWAP1 PUSH1 0x1 PUSH1 0x1 PUSH1 0xA0 SHL SUB DUP3 AND DUP3 SUB PUSH2 0x17F JUMPI JUMP JUMPDEST DUP1 MLOAD DUP1 DUP4 MSTORE PUSH1 0x20 SWAP3 SWAP2 DUP2 SWAP1 DUP5 ADD DUP5 DUP5 ADD MCOPY PUSH0 DUP3 DUP3 ADD DUP5 ADD MSTORE PUSH1 0x1F ADD PUSH1 0x1F NOT AND ADD ADD SWAP1 JUMP JUMPDEST SWAP1 PUSH1 0x4 DUP3 LT ISZERO PUSH2 0x2CA JUMPI MSTORE JUMP JUMPDEST SWAP1 PUSH2 0xDAF SWAP2 PUSH1 0x20 DUP2 MSTORE PUSH1 0xE0 PUSH2 0xD99 PUSH2 0xD84 PUSH2 0xD6E PUSH2 0xD34 PUSH2 0xD1E DUP8 MLOAD PUSH2 0x100 PUSH1 0x20 DUP10 ADD MSTORE PUSH2 0x120 DUP9 ADD SWAP1 PUSH2 0xCBE JUMP JUMPDEST PUSH1 0x20 DUP9 ADD MLOAD DUP8 DUP3 SUB PUSH1 0x1F NOT ADD PUSH1 0x40 DUP10 ADD MSTORE PUSH2 0xCBE JUMP JUMPDEST PUSH1 0x1 DUP1 PUSH1 0xA0 SHL SUB PUSH1 0x40 DUP9 ADD MLOAD AND PUSH1 0x60 DUP8 ADD MSTORE PUSH2 0xD58 PUSH1 0x60 DUP9 ADD MLOAD PUSH1 0x80 DUP9 ADD SWAP1 PUSH2 0xCE2 JUMP JUMPDEST PUSH1 0x80 DUP8 ADD MLOAD DUP7 DUP3 SUB PUSH1 0x1F NOT ADD PUSH1 0xA0 DUP9 ADD MSTORE PUSH2 0xCBE JUMP JUMPDEST PUSH1 0xA0 DUP7 ADD MLOAD DUP6 DUP3 SUB PUSH1 0x1F NOT ADD PUSH1 0xC0 DUP8 ADD MSTORE PUSH2 0xCBE JUMP JUMPDEST PUSH1 0xC0 DUP6 ADD MLOAD DUP5 DUP3 SUB PUSH1 0x1F NOT ADD DUP5 DUP7 ADD MSTORE PUSH2 0xCBE JUMP JUMPDEST SWAP3 ADD MLOAD SWAP1 PUSH2 0x100 PUSH1 0x1F NOT DUP3 DUP6 SUB ADD SWAP2 ADD MSTORE PUSH2 0xCBE JUMP JUMPDEST SWAP1 JUMP JUMPDEST PUSH1 0x4 DUP3 LT ISZERO PUSH2 0x2CA JUMPI MSTORE JUMP JUMPDEST SWAP1 PUSH1 0x1 DUP3 DUP2 SHR SWAP3 AND DUP1 ISZERO PUSH2 0xDEC JUMPI JUMPDEST PUSH1 0x20 DUP4 LT EQ PUSH2 0xDD8 JUMPI JUMP JUMPDEST PUSH4 0x4E487B71 PUSH1 0xE0 SHL PUSH0 MSTORE PUSH1 0x22 PUSH1 0x4 MSTORE PUSH1 0x24 PUSH0 REVERT JUMPDEST SWAP2 PUSH1 0x7F AND SWAP2 PUSH2 0xDCD JUMP JUMPDEST PUSH1 0x40 MLOAD SWAP1 PUSH2 0xE03 DUP3 PUSH2 0xC16 JUMP JUMPDEST PUSH1 0x60 PUSH1 0xE0 DUP4 DUP3 DUP2 MSTORE DUP3 PUSH1 0x20 DUP3 ADD MSTORE PUSH0 PUSH1 0x40 DUP3 ADD MSTORE PUSH0 DUP4 DUP3 ADD MSTORE DUP3 PUSH1 0x80 DUP3 ADD MSTORE DUP3 PUSH1 0xA0 DUP3 ADD MSTORE DUP3 PUSH1 0xC0 DUP3 ADD MSTORE ADD MSTORE JUMP JUMPDEST SWAP1 PUSH1 0x40 MLOAD SWAP2 DUP3 PUSH0 DUP3 SLOAD SWAP3 PUSH2 0xE45 DUP5 PUSH2 0xDBE JUMP JUMPDEST DUP1 DUP5 MSTORE SWAP4 PUSH1 0x1 DUP2 AND SWAP1 DUP2 ISZERO PUSH2 0xEB0 JUMPI POP PUSH1 0x1 EQ PUSH2 0xE6C JUMPI JUMPDEST POP PUSH2 0xE6A SWAP3 POP SUB DUP4 PUSH2 0xC32 JUMP JUMPDEST JUMP JUMPDEST SWAP1 POP PUSH0 SWAP3 SWAP2 SWAP3 MSTORE PUSH1 0x20 PUSH0 KECCAK256 SWAP1 PUSH0 SWAP2 JUMPDEST DUP2 DUP4 LT PUSH2 0xE94 JUMPI POP POP SWAP1 PUSH1 0x20 PUSH2 0xE6A SWAP3 DUP3 ADD ADD PUSH0 PUSH2 0xE5D JUMP JUMPDEST PUSH1 0x20 SWAP2 SWAP4 POP DUP1 PUSH1 0x1 SWAP2 SLOAD DUP4 DUP6 DUP10 ADD ADD MSTORE ADD SWAP2 ADD SWAP1 SWAP2 DUP5 SWAP3 PUSH2 0xE7B JUMP JUMPDEST SWAP1 POP PUSH1 0x20 SWAP3 POP PUSH2 0xE6A SWAP5 SWAP2 POP PUSH1 0xFF NOT AND DUP3 DUP5 ADD MSTORE ISZERO ISZERO PUSH1 0x5 SHL DUP3 ADD ADD PUSH0 PUSH2 0xE5D JUMP INVALID LOG2 PUSH5 0x6970667358 0x22 SLT KECCAK256 DUP7 DUP8 0xEB EXTCODEHASH CALLVALUE MSTORE8 0x27 0xB5 0xF6 0xBC PUSH12 0x30235AA5F69F5FD73C56216A SWAP14 ADD TSTORE 0xC5 BLOCKHASH 0xF7 BLOCKHASH 0xAA 0xDA PUSH5 0x736F6C6343 STOP ADDMOD SHL STOP CALLER "},"methodIdentifiers":{"checkRegistration(address)":"e2a41283","getUserData(address)":"ffc9896b","hasRole(address,uint8)":"95a8c58d","loginUser()":"a19ed686","registerUser(string,string,uint8,string,string,string,string)":"36c444ee"}}}}}