{"contracts/CpotbCertificate.sol":{"CpotbCertificate":{"abi":[{"inputs":[{"internalType":"uint256","name":"","type":"uint256"}],"name":"allCpotbData","outputs":[{"internalType":"string","name":"certId","type":"string"},{"internalType":"string","name":"certNumber","type":"string"},{"internalType":"string","name":"instanceName","type":"string"},{"internalType":"uint8","name":"tipePermohonan","type":"uint8"},{"internalType":"enum EnumsLibrary.StatusCertificate","name":"status","type":"uint8"},{"internalType":"string","name":"certHash","type":"string"}],"stateMutability":"view","type":"function"},{"inputs":[{"internalType":"string","name":"_certNumber","type":"string"},{"internalType":"string","name":"_certId","type":"string"},{"internalType":"string","name":"_bpomName","type":"string"},{"internalType":"string","name":"_bpomInstance","type":"string"},{"internalType":"address","name":"_bpomAddr","type":"address"},{"internalType":"string","name":"_ipfsCert","type":"string"}],"name":"approveCpotb","outputs":[],"stateMutability":"nonpayable","type":"function"},{"inputs":[{"internalType":"string","name":"","type":"string"},{"internalType":"uint256","name":"","type":"uint256"}],"name":"approvedTipePermohonanByFactory","outputs":[{"internalType":"string","name":"ipfsCert","type":"string"},{"internalType":"uint8","name":"tipePermohonan","type":"uint8"}],"stateMutability":"view","type":"function"},{"inputs":[{"internalType":"string","name":"","type":"string"}],"name":"certDetailsById","outputs":[{"internalType":"enum EnumsLibrary.StatusCertificate","name":"status","type":"uint8"},{"internalType":"uint256","name":"timestampRequest","type":"uint256"},{"internalType":"uint256","name":"timestampApprove","type":"uint256"},{"internalType":"uint256","name":"timestampRejected","type":"uint256"},{"internalType":"uint256","name":"timestsmpRenewRequest","type":"uint256"},{"components":[{"internalType":"string","name":"userName","type":"string"},{"internalType":"string","name":"userInstance","type":"string"},{"internalType":"address","name":"userAddr","type":"address"}],"internalType":"struct BaseCertificate.st_userCertificate","name":"sender","type":"tuple"},{"components":[{"internalType":"string","name":"userName","type":"string"},{"internalType":"string","name":"userInstance","type":"string"},{"internalType":"address","name":"userAddr","type":"address"}],"internalType":"struct BaseCertificate.st_userCertificate","name":"bpom","type":"tuple"},{"internalType":"string","name":"ipfsCert","type":"string"}],"stateMutability":"view","type":"function"},{"inputs":[{"internalType":"string","name":"","type":"string"}],"name":"cpotbDataById","outputs":[{"internalType":"string","name":"cpotbId","type":"string"},{"internalType":"string","name":"cpotbNumber","type":"string"},{"internalType":"uint8","name":"tipePermohonan","type":"uint8"},{"internalType":"string","name":"factoryType","type":"string"}],"stateMutability":"view","type":"function"},{"inputs":[{"components":[{"internalType":"string","name":"userName","type":"string"},{"internalType":"string","name":"userInstance","type":"string"},{"internalType":"address","name":"userAddr","type":"address"}],"internalType":"struct BaseCertificate.st_userCertificate","name":"_sender","type":"tuple"},{"components":[{"internalType":"string","name":"userName","type":"string"},{"internalType":"string","name":"userInstance","type":"string"},{"internalType":"address","name":"userAddr","type":"address"}],"internalType":"struct BaseCertificate.st_userCertificate","name":"_bpom","type":"tuple"},{"internalType":"string","name":"_certId","type":"string"}],"name":"createCertificateDetails","outputs":[],"stateMutability":"nonpayable","type":"function"},{"inputs":[{"internalType":"string","name":"_userName","type":"string"},{"internalType":"address","name":"_userAddr","type":"address"},{"internalType":"string","name":"_userInstance","type":"string"}],"name":"createUserCertificate","outputs":[{"components":[{"internalType":"string","name":"userName","type":"string"},{"internalType":"string","name":"userInstance","type":"string"},{"internalType":"address","name":"userAddr","type":"address"}],"internalType":"struct BaseCertificate.st_userCertificate","name":"","type":"tuple"}],"stateMutability":"pure","type":"function"},{"inputs":[],"name":"getAllCpotb","outputs":[{"components":[{"internalType":"string","name":"certId","type":"string"},{"internalType":"string","name":"certNumber","type":"string"},{"internalType":"string","name":"instanceName","type":"string"},{"internalType":"uint8","name":"tipePermohonan","type":"uint8"},{"internalType":"enum EnumsLibrary.StatusCertificate","name":"status","type":"uint8"},{"internalType":"string","name":"certHash","type":"string"}],"internalType":"struct CpotbCertificate.st_certificateList[]","name":"","type":"tuple[]"}],"stateMutability":"view","type":"function"},{"inputs":[{"internalType":"string","name":"_instanceName","type":"string"}],"name":"getAllCpotbByInstance","outputs":[{"components":[{"internalType":"string","name":"certId","type":"string"},{"internalType":"string","name":"certNumber","type":"string"},{"internalType":"string","name":"instanceName","type":"string"},{"internalType":"uint8","name":"tipePermohonan","type":"uint8"},{"internalType":"enum EnumsLibrary.StatusCertificate","name":"status","type":"uint8"},{"internalType":"string","name":"certHash","type":"string"}],"internalType":"struct CpotbCertificate.st_certificateList[]","name":"","type":"tuple[]"}],"stateMutability":"view","type":"function"},{"inputs":[{"internalType":"string","name":"_certId","type":"string"}],"name":"getCertDetail","outputs":[{"components":[{"internalType":"enum EnumsLibrary.StatusCertificate","name":"status","type":"uint8"},{"internalType":"uint256","name":"timestampRequest","type":"uint256"},{"internalType":"uint256","name":"timestampApprove","type":"uint256"},{"internalType":"uint256","name":"timestampRejected","type":"uint256"},{"internalType":"uint256","name":"timestsmpRenewRequest","type":"uint256"},{"components":[{"internalType":"string","name":"userName","type":"string"},{"internalType":"string","name":"userInstance","type":"string"},{"internalType":"address","name":"userAddr","type":"address"}],"internalType":"struct BaseCertificate.st_userCertificate","name":"sender","type":"tuple"},{"components":[{"internalType":"string","name":"userName","type":"string"},{"internalType":"string","name":"userInstance","type":"string"},{"internalType":"address","name":"userAddr","type":"address"}],"internalType":"struct BaseCertificate.st_userCertificate","name":"bpom","type":"tuple"},{"internalType":"string","name":"ipfsCert","type":"string"}],"internalType":"struct BaseCertificate.st_certificateDetails","name":"","type":"tuple"}],"stateMutability":"view","type":"function"},{"inputs":[{"internalType":"string","name":"_certId","type":"string"}],"name":"getCertDetails","outputs":[{"components":[{"internalType":"enum EnumsLibrary.StatusCertificate","name":"status","type":"uint8"},{"internalType":"uint256","name":"timestampRequest","type":"uint256"},{"internalType":"uint256","name":"timestampApprove","type":"uint256"},{"internalType":"uint256","name":"timestampRejected","type":"uint256"},{"internalType":"uint256","name":"timestsmpRenewRequest","type":"uint256"},{"components":[{"internalType":"string","name":"userName","type":"string"},{"internalType":"string","name":"userInstance","type":"string"},{"internalType":"address","name":"userAddr","type":"address"}],"internalType":"struct BaseCertificate.st_userCertificate","name":"sender","type":"tuple"},{"components":[{"internalType":"string","name":"userName","type":"string"},{"internalType":"string","name":"userInstance","type":"string"},{"internalType":"address","name":"userAddr","type":"address"}],"internalType":"struct BaseCertificate.st_userCertificate","name":"bpom","type":"tuple"},{"internalType":"string","name":"ipfsCert","type":"string"}],"internalType":"struct BaseCertificate.st_certificateDetails","name":"","type":"tuple"}],"stateMutability":"view","type":"function"},{"inputs":[{"internalType":"string","name":"_certId","type":"string"}],"name":"getCpotbDetails","outputs":[{"components":[{"internalType":"string","name":"cpotbId","type":"string"},{"internalType":"string","name":"cpotbNumber","type":"string"},{"internalType":"uint8","name":"tipePermohonan","type":"uint8"},{"internalType":"string","name":"factoryType","type":"string"}],"internalType":"struct CpotbCertificate.st_cpotb","name":"","type":"tuple"}],"stateMutability":"view","type":"function"},{"inputs":[{"internalType":"string","name":"_certId","type":"string"}],"name":"getRejectMsg","outputs":[{"internalType":"string","name":"","type":"string"}],"stateMutability":"view","type":"function"},{"inputs":[{"internalType":"string","name":"_certId","type":"string"}],"name":"getRejectsMsg","outputs":[{"internalType":"string","name":"","type":"string"}],"stateMutability":"view","type":"function"},{"inputs":[{"internalType":"string","name":"_certId","type":"string"}],"name":"getSenderDetail","outputs":[{"components":[{"internalType":"string","name":"userName","type":"string"},{"internalType":"string","name":"userInstance","type":"string"},{"internalType":"address","name":"userAddr","type":"address"}],"internalType":"struct BaseCertificate.st_userCertificate","name":"","type":"tuple"}],"stateMutability":"view","type":"function"},{"inputs":[{"internalType":"string","name":"_certId","type":"string"},{"internalType":"string","name":"_rejectMsg","type":"string"},{"internalType":"string","name":"_bpomName","type":"string"},{"internalType":"string","name":"_bpomInstance","type":"string"},{"internalType":"address","name":"_bpomAddr","type":"address"}],"name":"rejectCpotb","outputs":[],"stateMutability":"nonpayable","type":"function"},{"inputs":[{"internalType":"string","name":"","type":"string"}],"name":"rejectMsgbyId","outputs":[{"internalType":"string","name":"","type":"string"}],"stateMutability":"view","type":"function"},{"inputs":[{"internalType":"string","name":"_certId","type":"string"},{"internalType":"uint8","name":"_tipePermohonanCpotb","type":"uint8"}],"name":"renewRequestCpotb","outputs":[],"stateMutability":"nonpayable","type":"function"},{"inputs":[{"internalType":"string","name":"_certId","type":"string"},{"internalType":"string","name":"_factoryName","type":"string"},{"internalType":"string","name":"_factoryInstance","type":"string"},{"internalType":"address","name":"_factoryAddr","type":"address"},{"internalType":"uint8","name":"_tipePermohonanCpotb","type":"uint8"},{"internalType":"string","name":"_factoryType","type":"string"}],"name":"requestCpotb","outputs":[],"stateMutability":"nonpayable","type":"function"},{"inputs":[{"internalType":"string","name":"_certId","type":"string"},{"internalType":"string","name":"_ipfsCert","type":"string"},{"components":[{"internalType":"string","name":"userName","type":"string"},{"internalType":"string","name":"userInstance","type":"string"},{"internalType":"address","name":"userAddr","type":"address"}],"internalType":"struct BaseCertificate.st_userCertificate","name":"_bpom","type":"tuple"}],"name":"updateBpomApproveDetails","outputs":[],"stateMutability":"nonpayable","type":"function"},{"inputs":[{"internalType":"string","name":"_certId","type":"string"},{"internalType":"string","name":"_rejectMsg","type":"string"},{"components":[{"internalType":"string","name":"userName","type":"string"},{"internalType":"string","name":"userInstance","type":"string"},{"internalType":"address","name":"userAddr","type":"address"}],"internalType":"struct BaseCertificate.st_userCertificate","name":"_bpom","type":"tuple"}],"name":"updateBpomRejectDetails","outputs":[],"stateMutability":"nonpayable","type":"function"},{"inputs":[{"internalType":"string","name":"_certId","type":"string"}],"name":"updateRenewDetails","outputs":[],"stateMutability":"nonpayable","type":"function"}],"evm":{"bytecode":{"linkReferences":{},"object":"6080806040523460155761300e908161001a8239f35b5f80fdfe60806040526004361015610011575f80fd5b5f3560e01c806310159dfe14611a3257806317e68309146119d157806319859c87146119995780635850607c146119315780636aa812991461187d5780636d1aa7d51461172357806370c056b014611772578063761fb19a146117235780637ee90ded1461168d57806381fc60a51461151e5780639aaa5d8b146114e3578063a71ed23a146113fc578063b5881e7014610a58578063b9e49080146105ae578063be2e23251461055e578063d533a3dd146104d9578063e462dde5146103a1578063e9c260d71461038a578063f02f5f23146102c4578063f5104ff1146102ad578063fb5fb9a3146102345763fcac71c41461010b575f80fd5b34610230576040366003190112610230576004356001600160401b0381116102305761013b903690600401611b16565b60243560ff811681036102305761015182611f8c565b604051906002835192602081818701958087835e810160038152030190200160ff821660ff198254161790555f5b60025481101561022e5780610195600192611f3c565b506040516101b9816101ab60208201809561211d565b03601f198101835282611af5565b51902060405160208101906101e66020828a51808b875e81015f838201520301601f198101835282611af5565b519020146101f5575b0161017f565b600361020082611f3c565b5001805461ff001916610300179055600361021a82611f3c565b5001805460ff191660ff85161790556101ef565b005b5f80fd5b34610230576060366003190112610230576004356001600160401b03811161023057610264903690600401611e5c565b6024356001600160401b03811161023057610283903690600401611e5c565b90604435916001600160401b038311610230576102a761022e933690600401611b16565b916129b6565b346102305761022e6102be36611ed4565b91612639565b3461023057602036600319011261023057600435600254811015610230576102ee61034391611f3c565b506103866102fb82611ba3565b9161030860018201611ba3565b61037961035f61031a60028501611ba3565b61035161032e600460038801549701611ba3565b94604051998a9960c08b5260c08b0190611c43565b9089820360208b0152611c43565b908782036040890152611c43565b9260ff8116606087015260ff608087019160081c16611ca5565b83820360a0850152611c43565b0390f35b346102305761022e61039b36611ed4565b9161229c565b346102305760a0366003190112610230576004356001600160401b038111610230576103d1903690600401611b16565b6024356001600160401b038111610230576103f0903690600401611b16565b6044356001600160401b0381116102305761040f903690600401611b16565b906064356001600160401b0381116102305761044c92610436610445923690600401611b16565b9061043f611e46565b9061226d565b908361229c565b602081015f5b60025481101561022e5780610468600192611f3c565b5060405161047e816101ab60208201809561211d565b51902060405160208101906104ab6020828951808a875e81015f838201520301601f198101835282611af5565b519020146104ba575b01610452565b60036104c582611f3c565b5001805461ff0019166102001790556104b4565b34610230576060366003190112610230576004356001600160401b03811161023057610509903690600401611b16565b602435906001600160a01b038216820361023057604435906001600160401b038211610230576103869261054461054a933690600401611b16565b9161226d565b604051918291602083526020830190611c67565b34610230576020366003190112610230576004356001600160401b038111610230576105a2610594610386923690600401611b16565b61059c612187565b506121d1565b60405191829182611d7a565b346102305760c0366003190112610230576004356001600160401b038111610230576105de903690600401611b16565b6024356001600160401b038111610230576105fd903690600401611b16565b6044356001600160401b0381116102305761061c903690600401611b16565b6064356001600160401b0381116102305761063b903690600401611b16565b610643611e46565b9060a435916001600160401b0383116102305761066761066d933690600401611b16565b9361226d565b604051906001845192602081818801958087835e810160038152030190200185516001600160401b0381116108da576106a68254611b6b565b601f8111610a13575b506020601f82116001146109ac5790806106e69493925f916109a1575b508160011b915f199060031b1c19161790555b8385612639565b5f5b60025481101561022e576106fb81611f3c565b50604051610711816101ab60208201809561211d565b519020604051602081019061073e60208289518089875e81015f838201520301601f198101835282611af5565b5190201461074f575b6001016106e8565b600161075a82611f3c565b500185516001600160401b0381116108da576107768254611b6b565b601f811161095c575b50806020601f82116001146108f9575f916108ee575b508160011b915f199060031b1c19161790555b60036107b382611f3c565b5001805461ff00191661010017905560046107cd82611f3c565b500183516001600160401b0381116108da576107e98254611b6b565b601f8111610895575b506020601f821160011461083257908060019493925f91610827575b505f19600383901b1c191690841b1790555b9050610747565b90508601518961080e565b601f19821690835f52805f20915f5b81811061087d57509183916001969594879410610865575b5050811b019055610820565b8801515f1960f88460031b161c191690558980610859565b9192602060018192868c015181550194019201610841565b825f5260205f20601f830160051c810191602084106108d0575b601f0160051c01905b8181106108c557506107f2565b5f81556001016108b8565b90915081906108af565b634e487b7160e01b5f52604160045260245ffd5b905087015188610795565b5f8481528181209250601f198416905b8a828210610944575050908360019493921061092c575b5050811b0190556107a8565b8901515f1960f88460031b161c191690558880610920565b60018495602093958493015181550194019201610909565b825f5260205f20601f830160051c81019160208410610997575b601f0160051c01905b81811061098c575061077f565b5f815560010161097f565b9091508190610976565b9050880151896106cc565b601f19821690835f52805f20915f5b8a8282106109fb5750509183916106e6969594600194106109e3575b5050811b0190556106df565b8a01515f1960f88460031b161c1916905589806109d7565b600184956020939584930151815501940192016109bb565b825f5260205f20601f830160051c81019160208410610a4e575b601f0160051c01905b818110610a4357506106af565b5f8155600101610a36565b9091508190610a2d565b346102305760c0366003190112610230576004356001600160401b03811161023057610a88903690600401611b16565b6024356001600160401b03811161023057610aa7903690600401611b16565b906044356001600160401b03811161023057610ac7903690600401611b16565b90606435906001600160a01b0382168203610230576084359160ff83168093036102305760a4356001600160401b03811161023057610b1591610b0f86923690600401611b16565b9661226d565b93610b658260209660405190610b2b8983611af5565b5f8252604051610b3b8a82611af5565b5f8152610b46611f6c565b5060405192610b5484611abe565b8352898301525f60408301526129b6565b604051610b7181611a88565b828152604051610b818782611af5565b5f81528682019081526040820190858252606083019384526040518881875180838a01835e8101600381520301902092518051906001600160401b0382116108da578190610bcf8654611b6b565b601f81116113ae575b508a90601f831160011461134b575f92611340575b50508160011b915f199060031b1c19161783555b51805160018401916001600160401b0382116108da57610c218354611b6b565b601f81116112fd575b508990601f831160011461129457918060ff949260039796945f92611289575b50508160011b915f1990881b1c19161790555b511660ff60028301911660ff198254161790550190518051906001600160401b0382116108da578190610c908454611b6b565b601f811161123b575b508790601f83116001146111d8575f926111cd575b50508160011b915f199060031b1c19161790555b60405190610ccf82611aa3565b815260405192610cdf8585611af5565b5f8452848201938452604082019081526060820192835260808201905f825260405194610d0c8787611af5565b5f865260a08401958652600254680100000000000000008110156108da57806001610d3a9201600255611f3c565b9490946111ba57518051906001600160401b0382116108da578190610d5f8754611b6b565b601f811161116c575b508990601f8311600114611109575f926110fe575b50508160011b915f199060031b1c19161784555b51805160018501916001600160401b0382116108da578190610db38454611b6b565b601f81116110b0575b508990601f831160011461104d575f92611042575b50508160011b915f199060031b1c19161790555b51805160028401916001600160401b0382116108da578190610e078454611b6b565b601f8111610ff4575b508890601f8311600114610f91575f92610f86575b50508160011b915f199060031b1c19161790555b60ff80600384019451161660ff1984541617835551916004831015610f725760049261ff0082549160081b169061ff001916179055019051918251906001600160401b0382116108da57610e8d8354611b6b565b601f8111610f2f575b5080601f8311600114610ed057508192935f92610ec5575b50505f19600383901b1c191660019190911b179055005b015190508380610eae565b90601f19831694845f52825f20925f905b878210610f17575050836001959610610eff575b505050811b019055005b01515f1960f88460031b161c19169055838080610ef5565b80600185968294968601518155019501930190610ee1565b835f52815f20601f840160051c810191838510610f68575b601f0160051c01905b818110610f5d5750610e96565b5f8155600101610f50565b9091508190610f47565b634e487b7160e01b5f52602160045260245ffd5b015190508880610e25565b5f8581528a81209350601f198516905b8b828210610fde575050908460019594939210610fc6575b505050811b019055610e39565b01515f1960f88460031b161c19169055888080610fb9565b6001859682939686015181550195019301610fa1565b909150835f52885f20601f840160051c8101918a8510611038575b90601f859493920160051c01905b81811061102a5750610e10565b5f815584935060010161101d565b909150819061100f565b015190508980610dd1565b5f8581528b81209350601f198516905b8c82821061109a575050908460019594939210611082575b505050811b019055610de5565b01515f1960f88460031b161c19169055898080611075565b600185968293968601518155019501930161105d565b909150835f52895f20601f840160051c8101918b85106110f4575b90601f859493920160051c01905b8181106110e65750610dbc565b5f81558493506001016110d9565b90915081906110cb565b015190508980610d7d565b5f8881528b81209350601f198516905b8c82821061115657505090846001959493921061113e575b505050811b018455610d91565b01515f1960f88460031b161c19169055898080611131565b6001859682939686015181550195019301611119565b909150865f52895f20601f840160051c8101918b85106111b0575b90601f859493920160051c01905b8181106111a25750610d68565b5f8155849350600101611195565b9091508190611187565b634e487b7160e01b5f525f60045260245ffd5b015190508780610cae565b5f8581528981209350601f198516905b8a82821061122557505090846001959493921061120d575b505050811b019055610cc2565b01515f1960f88460031b161c19169055878080611200565b60018596829396860151815501950193016111e8565b909150835f52875f20601f840160051c81019189851061127f575b90601f859493920160051c01905b8181106112715750610c99565b5f8155849350600101611264565b9091508190611256565b015190508c80610c4a565b90601f19831691845f528b5f20925f5b8d8282106112e7575050926001928592600399989660ff9896106112d0575b505050811b019055610c5d565b01515f19838a1b60f8161c191690558c80806112c3565b60018596829396860151815501950193016112a4565b835f528a5f20601f840160051c8101918c8510611336575b601f0160051c01905b81811061132b5750610c2a565b5f815560010161131e565b9091508190611315565b015190508a80610bed565b5f8781528c81209350601f198516905b8d828210611398575050908460019594939210611380575b505050811b018355610c01565b01515f1960f88460031b161c191690558a8080611373565b600185968293968601518155019501930161135b565b909150855f528a5f20601f840160051c8101918c85106113f2575b90601f859493920160051c01905b8181106113e45750610bd8565b5f81558493506001016113d7565b90915081906113c9565b34610230576020366003190112610230576004356001600160401b038111610230576020806114326114a0933690600401611b16565b604051928184925191829101835e81015f81520301902061038660ff825416916114d56001820154916114c76002820154600383015460048401549061147a60058601611e07565b92611493600b61148c60088901611e07565b9701611ba3565b976040519b8c809c611ca5565b60208b015260408a01526060890152608088015261010060a0880152610100870190611c67565b9085820360c0870152611c67565b9083820360e0850152611c43565b34610230576020366003190112610230576004356001600160401b038111610230576105a2611519610386923690600401611b16565b6121d1565b34610230576020366003190112610230576004356001600160401b0381116102305761154e903690600401611b16565b60025460208201915f805b83811061162a575060ff61156d9116611fd1565b925f915f5b84811061158757604051806103868882611cb2565b60026101ab6115ac61159884611f3c565b50604051928391602083019586910161211d565b51902060405160208101906115d96020828751808a875e81015f838201520301601f198101835282611af5565b519020146115ea575b600101611572565b9261162260019161161c61160661160088611f3c565b50612068565b60ff831690611615828c612048565b5289612048565b506120d5565b9390506115e2565b60026101ab61163b61159884611f3c565b51902060405160208101906116686020828851808c875e81015f838201520301601f198101835282611af5565b51902014611679575b600101611559565b906116856001916120d5565b919050611671565b34610230576040366003190112610230576004356001600160401b038111610230576116bd903690600401611b16565b604051815160243592602091839181908401835e8101600481520301902090815481101561023057611719915f5260205f209060011b0160ff600161170183611ba3565b92015416604051928392604084526040840190611c43565b9060208301520390f35b34610230576020366003190112610230576004356001600160401b0381116102305761175e611759610386923690600401611b16565b6120fa565b604051918291602083526020830190611c43565b34610230576020366003190112610230576004356001600160401b038111610230576020806117a8611850933690600401611b16565b6060806040516117b781611a88565b81815281858201525f60408201520152604051928184925191829101835e81016003815203019020610386604051916117ef83611a88565b6117f881611ba3565b835261180660018201611ba3565b6020840190815260ff61186361182c600383600287015416956040890196875201611ba3565b92606087019384526040519788976020895251608060208a015260a0890190611c43565b9051878203601f19016040890152611c43565b925116606085015251838203601f19016080850152611c43565b34610230576020366003190112610230576004356001600160401b038111610230576020806118b3611910933690600401611b16565b604051928184925191829101835e810160038152030190206103866118d782611ba3565b916118e460018201611ba3565b61191e6118fb600360ff6002860154169401611ba3565b91604051968796608088526080880190611c43565b908682036020880152611c43565b9160408501528382036060850152611c43565b34610230575f3660031901126102305760025461194d81611fd1565b905f805b82821061196657604051806103868682611cb2565b61199160019161161c61197b61160086611f3c565b60ff83169061198a828a612048565b5287612048565b910190611951565b34610230576020366003190112610230576004356001600160401b038111610230576119cc61022e913690600401611b16565b611f8c565b34610230576020366003190112610230576004356001600160401b0381116102305761054a6005602080611a0c610386953690600401611b16565b611a14611f6c565b50604051928184925191829101835e81015f81520301902001611e07565b34610230576020366003190112610230576004356001600160401b0381116102305761175e602080611a6b610386943690600401611b16565b604051928184925191829101835e81016001815203019020611ba3565b608081019081106001600160401b038211176108da57604052565b60c081019081106001600160401b038211176108da57604052565b606081019081106001600160401b038211176108da57604052565b61010081019081106001600160401b038211176108da57604052565b90601f801991011681019081106001600160401b038211176108da57604052565b81601f82011215610230578035906001600160401b0382116108da5760405192611b4a601f8401601f191660200185611af5565b8284526020838301011161023057815f926020809301838601378301015290565b90600182811c92168015611b99575b6020831014611b8557565b634e487b7160e01b5f52602260045260245ffd5b91607f1691611b7a565b9060405191825f825492611bb684611b6b565b8084529360018116908115611c215750600114611bdd575b50611bdb92500383611af5565b565b90505f9291925260205f20905f915b818310611c05575050906020611bdb928201015f611bce565b6020919350806001915483858901015201910190918492611bec565b905060209250611bdb94915060ff191682840152151560051b8201015f611bce565b805180835260209291819084018484015e5f828201840152601f01601f1916010190565b906040611c92611c808451606085526060850190611c43565b60208501518482036020860152611c43565b928101516001600160a01b031691015290565b906004821015610f725752565b602081016020825282518091526040820191602060408360051b8301019401925f915b838310611ce457505050505090565b9091929394602080611d6b600193603f1986820301875289519060a0611d3b611d29611d19855160c0865260c0860190611c43565b8786015185820389870152611c43565b60408501518482036040860152611c43565b9260ff6060820151166060840152611d5b60808201516080850190611ca5565b01519060a0818403910152611c43565b97019301930191939290611cd5565b90611e049160208152611d91602082018351611ca5565b602082015160408201526040820151606082015260608201516080820152608082015160a082015260e0611dee611dd960a085015161010060c0860152610120850190611c67565b60c0850151848203601f190184860152611c67565b92015190610100601f1982850301910152611c43565b90565b90604051611e1481611abe565b60408193611e2181611ba3565b8352611e2f60018201611ba3565b6020840152600201546001600160a01b0316910152565b608435906001600160a01b038216820361023057565b91906060838203126102305760405190611e7582611abe565b819380356001600160401b0381116102305782611e93918301611b16565b835260208101356001600160401b03811161023057604092611eb6918301611b16565b60208401520135906001600160a01b03821682036102305760400152565b6060600319820112610230576004356001600160401b0381116102305781611efe91600401611b16565b916024356001600160401b0381116102305782611f1d91600401611b16565b91604435906001600160401b03821161023057611e0491600401611e5c565b600254811015611f585760025f52600560205f20910201905f90565b634e487b7160e01b5f52603260045260245ffd5b60405190611f7982611abe565b5f60408360608152606060208201520152565b60208091604051928184925191829101835e81015f815203019020426004820155600360ff19825416179055565b6001600160401b0381116108da5760051b60200190565b90611fdb82611fba565b611fe86040519182611af5565b8281528092611ff9601f1991611fba565b01905f5b82811061200957505050565b60209060405161201881611aa3565b60608152606083820152606060408201525f60608201525f6080820152606060a082015282828501015201611ffd565b8051821015611f585760209160051b010190565b6004821015610f725752565b9060405161207581611aa3565b60a06120d06004839561208781611ba3565b855261209560018201611ba3565b60208601526120a660028201611ba3565b60408601526120ca60ff6003830154818116606089015260081c166080870161205c565b01611ba3565b910152565b60ff1660ff81146120e65760010190565b634e487b7160e01b5f52601160045260245ffd5b6040518151611e0492602091839181908401835e81016001815203019020611ba3565b5f929181549161212c83611b6b565b9260018116908115612174575060011461214557505050565b90919293505f5260205f205f905b8382106121605750500190565b600181602092548486015201910190612153565b60ff191683525050811515909102019150565b6040519061219482611ad9565b606060e0835f81525f60208201525f60408201525f838201525f60808201526121bb611f6c565b60a08201526121c8611f6c565b60c08201520152565b602080916121dd612187565b50604051928184925191829101835e81015f815203019020612265600b6040519261220784611ad9565b61221560ff8254168561205c565b6001810154602085015260028101546040850152600381015460608501526004810154608085015261224960058201611e07565b60a085015261225a60088201611e07565b60c085015201611ba3565b60e082015290565b91612276611f6c565b506040519261228484611abe565b835260208301526001600160a01b0316604082015290565b92919060405160208551918181818901948086835e81015f81520301902095604051928391518091835e81016001815203019020908051906001600160401b0382116108da5781906122ee8454611b6b565b601f81116125e9575b50602090601f8311600114612586575f9261257b575b50508160011b915f199060031b1c19161790555b8051805160088501916001600160401b0382116108da576123428354611b6b565b601f8111612536575b50602090601f83116001146124cf576020949392915f91836124c4575b50508160011b915f199060031b1c19161790555b6040810151600a850180546001600160a01b0319166001600160a01b03929092169190911790550151805190929060098201906001600160401b0381116108da576123c78254611b6b565b601f811161247f575b50602094601f821160011461241e579481929394955f92612413575b50508160011b915f199060031b1c19161790555b426003820155805460ff19166002179055565b015190505f806123ec565b601f19821695835f52805f20915f5b8881106124675750836001959697981061244f575b505050811b019055612400565b01515f1960f88460031b161c191690555f8080612442565b9192602060018192868501518155019401920161242d565b825f5260205f20601f830160051c810191602084106124ba575b601f0160051c01905b8181106124af57506123d0565b5f81556001016124a2565b9091508190612499565b015190505f80612368565b90601f19831691845f52815f20925f5b81811061251e575091600193918560209897969410612506575b505050811b01905561237c565b01515f1960f88460031b161c191690555f80806124f9565b929360206001819287860151815501950193016124df565b835f5260205f20601f840160051c81019160208510612571575b601f0160051c01905b818110612566575061234b565b5f8155600101612559565b9091508190612550565b015190505f8061230d565b5f8581528281209350601f198516905b8181106125d157509084600195949392106125b9575b505050811b019055612321565b01515f1960f88460031b161c191690555f80806125ac565b92936020600181928786015181550195019301612596565b909150835f5260205f20601f840160051c8101916020851061262f575b90601f859493920160051c01905b81811061262157506122f7565b5f8155849350600101612614565b9091508190612606565b6020809194939294604051928184925191829101835e81015f81520301902090805160088301908051906001600160401b0382116108da5761267b8354611b6b565b601f8111612971575b50602090601f831160011461290a576020949392915f91836128ff575b50508160011b915f199060031b1c19161790555b6040810151600a840180546001600160a01b0319166001600160a01b03929092169190911790550151805160098301916001600160401b0382116108da576126fd8354611b6b565b601f81116128ba575b50602090601f831160011461285357600b949392915f9183612848575b50508160011b915f199060031b1c19161790555b426002820155600160ff198254161781550182516001600160401b0381116108da576127638254611b6b565b601f8111612803575b506020601f82116001146127a557819293945f9261279a575b50508160011b915f199060031b1c1916179055565b015190505f80612785565b601f19821690835f52805f20915f5b8181106127eb575095836001959697106127d3575b505050811b019055565b01515f1960f88460031b161c191690555f80806127c9565b9192602060018192868b0151815501940192016127b4565b825f5260205f20601f830160051c8101916020841061283e575b601f0160051c01905b818110612833575061276c565b5f8155600101612826565b909150819061281d565b015190505f80612723565b90601f19831691845f52815f20925f5b8181106128a25750916001939185600b989796941061288a575b505050811b019055612737565b01515f1960f88460031b161c191690555f808061287d565b92936020600181928786015181550195019301612863565b835f5260205f20601f840160051c810191602085106128f5575b601f0160051c01905b8181106128ea5750612706565b5f81556001016128dd565b90915081906128d4565b015190505f806126a1565b90601f19831691845f52815f20925f5b818110612959575091600193918560209897969410612941575b505050811b0190556126b5565b01515f1960f88460031b161c191690555f8080612934565b9293602060018192878601518155019501930161291a565b835f5260205f20601f840160051c810191602085106129ac575b601f0160051c01905b8181106129a15750612684565b5f8155600101612994565b909150819061298b565b9290916040516129c581611ad9565b5f81526020810194428652604082015f8152606083015f815260808401915f835260a0850193845260c08501978852602098898060405198612a07828b611af5565b5f8a5260e08901998a52604051928184925191829101835e81015f81520301902095516004811015610f725760ff801988541691161786555160018601555160028501555160038401555160048301556005820190519081518051906001600160401b0382116108da578190612a7d8454611b6b565b601f8111612f8a575b508990601f8311600114612f27575f92612f1c575b50508160011b915f199060031b1c19161790555b60068201868201518051906001600160401b0382116108da578190612ad48454611b6b565b601f8111612ece575b508990601f8311600114612e6b575f92612e60575b50508160011b915f199060031b1c19161790555b604001516007820180546001600160a01b0319166001600160a01b039290921691909117905592518051805191949160088301916001600160401b0382116108da578190612b548454611b6b565b601f8111612e12575b508890601f8311600114612daf575f92612da4575b50508160011b915f199060031b1c19161790555b600981019385810151948551956001600160401b0387116108da57612bab8254611b6b565b601f8111612d61575b508790601f8811600114612cfa57968091600b9697985f92612cef575b50508160011b915f199060031b1c19161790555b60400151600a820180546001600160a01b0319166001600160a01b03929092169190911790559151805190949190920191906001600160401b0382116108da57612c2f8354611b6b565b601f8111612cac575b5080601f8311600114612c655750819293945f9261279a5750508160011b915f199060031b1c1916179055565b90601f19831695845f52825f20925f905b888210612c94575050836001959697106127d357505050811b019055565b80600185968294968601518155019501930190612c76565b835f52815f20601f840160051c810191838510612ce5575b601f0160051c01905b818110612cda5750612c38565b5f8155600101612ccd565b9091508190612cc4565b015190505f80612bd1565b90601f19881691835f52895f20925f5b8b828210612d4b57505091600193918a600b999a9b9410612d33575b505050811b019055612be5565b01515f1960f88460031b161c191690555f8080612d26565b6001859682939686015181550195019301612d0a565b825f52885f20601f890160051c8101918a8a10612d9a575b601f0160051c01905b818110612d8f5750612bb4565b5f8155600101612d82565b9091508190612d79565b015190505f80612b72565b5f8581528a81209350601f198516905b8b828210612dfc575050908460019594939210612de4575b505050811b019055612b86565b01515f1960f88460031b161c191690555f8080612dd7565b6001859682939686015181550195019301612dbf565b909150835f52885f20601f840160051c8101918a8510612e56575b90601f859493920160051c01905b818110612e485750612b5d565b5f8155849350600101612e3b565b9091508190612e2d565b015190505f80612af2565b5f8581528b81209350601f198516905b8c828210612eb8575050908460019594939210612ea0575b505050811b019055612b06565b01515f1960f88460031b161c191690555f8080612e93565b6001859682939686015181550195019301612e7b565b909150835f52895f20601f840160051c8101918b8510612f12575b90601f859493920160051c01905b818110612f045750612add565b5f8155849350600101612ef7565b9091508190612ee9565b015190505f80612a9b565b5f8581528b81209350601f198516905b8c828210612f74575050908460019594939210612f5c575b505050811b019055612aaf565b01515f1960f88460031b161c191690555f8080612f4f565b6001859682939686015181550195019301612f37565b909150835f52895f20601f840160051c8101918b8510612fce575b90601f859493920160051c01905b818110612fc05750612a86565b5f8155849350600101612fb3565b9091508190612fa556fea2646970667358221220ad76f69b51cf75584325dd42ee69a608728f4980c7e1bcd3d1224f30548db90564736f6c634300081b0033","opcodes":"PUSH1 0x80 DUP1 PUSH1 0x40 MSTORE CALLVALUE PUSH1 0x15 JUMPI PUSH2 0x300E SWAP1 DUP2 PUSH2 0x1A DUP3 CODECOPY RETURN JUMPDEST PUSH0 DUP1 REVERT INVALID PUSH1 0x80 PUSH1 0x40 MSTORE PUSH1 0x4 CALLDATASIZE LT ISZERO PUSH2 0x11 JUMPI PUSH0 DUP1 REVERT JUMPDEST PUSH0 CALLDATALOAD PUSH1 0xE0 SHR DUP1 PUSH4 0x10159DFE EQ PUSH2 0x1A32 JUMPI DUP1 PUSH4 0x17E68309 EQ PUSH2 0x19D1 JUMPI DUP1 PUSH4 0x19859C87 EQ PUSH2 0x1999 JUMPI DUP1 PUSH4 0x5850607C EQ PUSH2 0x1931 JUMPI DUP1 PUSH4 0x6AA81299 EQ PUSH2 0x187D JUMPI DUP1 PUSH4 0x6D1AA7D5 EQ PUSH2 0x1723 JUMPI DUP1 PUSH4 0x70C056B0 EQ PUSH2 0x1772 JUMPI DUP1 PUSH4 0x761FB19A EQ PUSH2 0x1723 JUMPI DUP1 PUSH4 0x7EE90DED EQ PUSH2 0x168D JUMPI DUP1 PUSH4 0x81FC60A5 EQ PUSH2 0x151E JUMPI DUP1 PUSH4 0x9AAA5D8B EQ PUSH2 0x14E3 JUMPI DUP1 PUSH4 0xA71ED23A EQ PUSH2 0x13FC JUMPI DUP1 PUSH4 0xB5881E70 EQ PUSH2 0xA58 JUMPI DUP1 PUSH4 0xB9E49080 EQ PUSH2 0x5AE JUMPI DUP1 PUSH4 0xBE2E2325 EQ PUSH2 0x55E JUMPI DUP1 PUSH4 0xD533A3DD EQ PUSH2 0x4D9 JUMPI DUP1 PUSH4 0xE462DDE5 EQ PUSH2 0x3A1 JUMPI DUP1 PUSH4 0xE9C260D7 EQ PUSH2 0x38A JUMPI DUP1 PUSH4 0xF02F5F23 EQ PUSH2 0x2C4 JUMPI DUP1 PUSH4 0xF5104FF1 EQ PUSH2 0x2AD JUMPI DUP1 PUSH4 0xFB5FB9A3 EQ PUSH2 0x234 JUMPI PUSH4 0xFCAC71C4 EQ PUSH2 0x10B JUMPI PUSH0 DUP1 REVERT JUMPDEST CALLVALUE PUSH2 0x230 JUMPI PUSH1 0x40 CALLDATASIZE PUSH1 0x3 NOT ADD SLT PUSH2 0x230 JUMPI PUSH1 0x4 CALLDATALOAD PUSH1 0x1 PUSH1 0x1 PUSH1 0x40 SHL SUB DUP2 GT PUSH2 0x230 JUMPI PUSH2 0x13B SWAP1 CALLDATASIZE SWAP1 PUSH1 0x4 ADD PUSH2 0x1B16 JUMP JUMPDEST PUSH1 0x24 CALLDATALOAD PUSH1 0xFF DUP2 AND DUP2 SUB PUSH2 0x230 JUMPI PUSH2 0x151 DUP3 PUSH2 0x1F8C JUMP JUMPDEST PUSH1 0x40 MLOAD SWAP1 PUSH1 0x2 DUP4 MLOAD SWAP3 PUSH1 0x20 DUP2 DUP2 DUP8 ADD SWAP6 DUP1 DUP8 DUP4 MCOPY DUP2 ADD PUSH1 0x3 DUP2 MSTORE SUB ADD SWAP1 KECCAK256 ADD PUSH1 0xFF DUP3 AND PUSH1 0xFF NOT DUP3 SLOAD AND OR SWAP1 SSTORE PUSH0 JUMPDEST PUSH1 0x2 SLOAD DUP2 LT ISZERO PUSH2 0x22E JUMPI DUP1 PUSH2 0x195 PUSH1 0x1 SWAP3 PUSH2 0x1F3C JUMP JUMPDEST POP PUSH1 0x40 MLOAD PUSH2 0x1B9 DUP2 PUSH2 0x1AB PUSH1 0x20 DUP3 ADD DUP1 SWAP6 PUSH2 0x211D JUMP JUMPDEST SUB PUSH1 0x1F NOT DUP2 ADD DUP4 MSTORE DUP3 PUSH2 0x1AF5 JUMP JUMPDEST MLOAD SWAP1 KECCAK256 PUSH1 0x40 MLOAD PUSH1 0x20 DUP2 ADD SWAP1 PUSH2 0x1E6 PUSH1 0x20 DUP3 DUP11 MLOAD DUP1 DUP12 DUP8 MCOPY DUP2 ADD PUSH0 DUP4 DUP3 ADD MSTORE SUB ADD PUSH1 0x1F NOT DUP2 ADD DUP4 MSTORE DUP3 PUSH2 0x1AF5 JUMP JUMPDEST MLOAD SWAP1 KECCAK256 EQ PUSH2 0x1F5 JUMPI JUMPDEST ADD PUSH2 0x17F JUMP JUMPDEST PUSH1 0x3 PUSH2 0x200 DUP3 PUSH2 0x1F3C JUMP JUMPDEST POP ADD DUP1 SLOAD PUSH2 0xFF00 NOT AND PUSH2 0x300 OR SWAP1 SSTORE PUSH1 0x3 PUSH2 0x21A DUP3 PUSH2 0x1F3C JUMP JUMPDEST POP ADD DUP1 SLOAD PUSH1 0xFF NOT AND PUSH1 0xFF DUP6 AND OR SWAP1 SSTORE PUSH2 0x1EF JUMP JUMPDEST STOP JUMPDEST PUSH0 DUP1 REVERT JUMPDEST CALLVALUE PUSH2 0x230 JUMPI PUSH1 0x60 CALLDATASIZE PUSH1 0x3 NOT ADD SLT PUSH2 0x230 JUMPI PUSH1 0x4 CALLDATALOAD PUSH1 0x1 PUSH1 0x1 PUSH1 0x40 SHL SUB DUP2 GT PUSH2 0x230 JUMPI PUSH2 0x264 SWAP1 CALLDATASIZE SWAP1 PUSH1 0x4 ADD PUSH2 0x1E5C JUMP JUMPDEST PUSH1 0x24 CALLDATALOAD PUSH1 0x1 PUSH1 0x1 PUSH1 0x40 SHL SUB DUP2 GT PUSH2 0x230 JUMPI PUSH2 0x283 SWAP1 CALLDATASIZE SWAP1 PUSH1 0x4 ADD PUSH2 0x1E5C JUMP JUMPDEST SWAP1 PUSH1 0x44 CALLDATALOAD SWAP2 PUSH1 0x1 PUSH1 0x1 PUSH1 0x40 SHL SUB DUP4 GT PUSH2 0x230 JUMPI PUSH2 0x2A7 PUSH2 0x22E SWAP4 CALLDATASIZE SWAP1 PUSH1 0x4 ADD PUSH2 0x1B16 JUMP JUMPDEST SWAP2 PUSH2 0x29B6 JUMP JUMPDEST CALLVALUE PUSH2 0x230 JUMPI PUSH2 0x22E PUSH2 0x2BE CALLDATASIZE PUSH2 0x1ED4 JUMP JUMPDEST SWAP2 PUSH2 0x2639 JUMP JUMPDEST CALLVALUE PUSH2 0x230 JUMPI PUSH1 0x20 CALLDATASIZE PUSH1 0x3 NOT ADD SLT PUSH2 0x230 JUMPI PUSH1 0x4 CALLDATALOAD PUSH1 0x2 SLOAD DUP2 LT ISZERO PUSH2 0x230 JUMPI PUSH2 0x2EE PUSH2 0x343 SWAP2 PUSH2 0x1F3C JUMP JUMPDEST POP PUSH2 0x386 PUSH2 0x2FB DUP3 PUSH2 0x1BA3 JUMP JUMPDEST SWAP2 PUSH2 0x308 PUSH1 0x1 DUP3 ADD PUSH2 0x1BA3 JUMP JUMPDEST PUSH2 0x379 PUSH2 0x35F PUSH2 0x31A PUSH1 0x2 DUP6 ADD PUSH2 0x1BA3 JUMP JUMPDEST PUSH2 0x351 PUSH2 0x32E PUSH1 0x4 PUSH1 0x3 DUP9 ADD SLOAD SWAP8 ADD PUSH2 0x1BA3 JUMP JUMPDEST SWAP5 PUSH1 0x40 MLOAD SWAP10 DUP11 SWAP10 PUSH1 0xC0 DUP12 MSTORE PUSH1 0xC0 DUP12 ADD SWAP1 PUSH2 0x1C43 JUMP JUMPDEST SWAP1 DUP10 DUP3 SUB PUSH1 0x20 DUP12 ADD MSTORE PUSH2 0x1C43 JUMP JUMPDEST SWAP1 DUP8 DUP3 SUB PUSH1 0x40 DUP10 ADD MSTORE PUSH2 0x1C43 JUMP JUMPDEST SWAP3 PUSH1 0xFF DUP2 AND PUSH1 0x60 DUP8 ADD MSTORE PUSH1 0xFF PUSH1 0x80 DUP8 ADD SWAP2 PUSH1 0x8 SHR AND PUSH2 0x1CA5 JUMP JUMPDEST DUP4 DUP3 SUB PUSH1 0xA0 DUP6 ADD MSTORE PUSH2 0x1C43 JUMP JUMPDEST SUB SWAP1 RETURN JUMPDEST CALLVALUE PUSH2 0x230 JUMPI PUSH2 0x22E PUSH2 0x39B CALLDATASIZE PUSH2 0x1ED4 JUMP JUMPDEST SWAP2 PUSH2 0x229C JUMP JUMPDEST CALLVALUE PUSH2 0x230 JUMPI PUSH1 0xA0 CALLDATASIZE PUSH1 0x3 NOT ADD SLT PUSH2 0x230 JUMPI PUSH1 0x4 CALLDATALOAD PUSH1 0x1 PUSH1 0x1 PUSH1 0x40 SHL SUB DUP2 GT PUSH2 0x230 JUMPI PUSH2 0x3D1 SWAP1 CALLDATASIZE SWAP1 PUSH1 0x4 ADD PUSH2 0x1B16 JUMP JUMPDEST PUSH1 0x24 CALLDATALOAD PUSH1 0x1 PUSH1 0x1 PUSH1 0x40 SHL SUB DUP2 GT PUSH2 0x230 JUMPI PUSH2 0x3F0 SWAP1 CALLDATASIZE SWAP1 PUSH1 0x4 ADD PUSH2 0x1B16 JUMP JUMPDEST PUSH1 0x44 CALLDATALOAD PUSH1 0x1 PUSH1 0x1 PUSH1 0x40 SHL SUB DUP2 GT PUSH2 0x230 JUMPI PUSH2 0x40F SWAP1 CALLDATASIZE SWAP1 PUSH1 0x4 ADD PUSH2 0x1B16 JUMP JUMPDEST SWAP1 PUSH1 0x64 CALLDATALOAD PUSH1 0x1 PUSH1 0x1 PUSH1 0x40 SHL SUB DUP2 GT PUSH2 0x230 JUMPI PUSH2 0x44C SWAP3 PUSH2 0x436 PUSH2 0x445 SWAP3 CALLDATASIZE SWAP1 PUSH1 0x4 ADD PUSH2 0x1B16 JUMP JUMPDEST SWAP1 PUSH2 0x43F PUSH2 0x1E46 JUMP JUMPDEST SWAP1 PUSH2 0x226D JUMP JUMPDEST SWAP1 DUP4 PUSH2 0x229C JUMP JUMPDEST PUSH1 0x20 DUP2 ADD PUSH0 JUMPDEST PUSH1 0x2 SLOAD DUP2 LT ISZERO PUSH2 0x22E JUMPI DUP1 PUSH2 0x468 PUSH1 0x1 SWAP3 PUSH2 0x1F3C JUMP JUMPDEST POP PUSH1 0x40 MLOAD PUSH2 0x47E DUP2 PUSH2 0x1AB PUSH1 0x20 DUP3 ADD DUP1 SWAP6 PUSH2 0x211D JUMP JUMPDEST MLOAD SWAP1 KECCAK256 PUSH1 0x40 MLOAD PUSH1 0x20 DUP2 ADD SWAP1 PUSH2 0x4AB PUSH1 0x20 DUP3 DUP10 MLOAD DUP1 DUP11 DUP8 MCOPY DUP2 ADD PUSH0 DUP4 DUP3 ADD MSTORE SUB ADD PUSH1 0x1F NOT DUP2 ADD DUP4 MSTORE DUP3 PUSH2 0x1AF5 JUMP JUMPDEST MLOAD SWAP1 KECCAK256 EQ PUSH2 0x4BA JUMPI JUMPDEST ADD PUSH2 0x452 JUMP JUMPDEST PUSH1 0x3 PUSH2 0x4C5 DUP3 PUSH2 0x1F3C JUMP JUMPDEST POP ADD DUP1 SLOAD PUSH2 0xFF00 NOT AND PUSH2 0x200 OR SWAP1 SSTORE PUSH2 0x4B4 JUMP JUMPDEST CALLVALUE PUSH2 0x230 JUMPI PUSH1 0x60 CALLDATASIZE PUSH1 0x3 NOT ADD SLT PUSH2 0x230 JUMPI PUSH1 0x4 CALLDATALOAD PUSH1 0x1 PUSH1 0x1 PUSH1 0x40 SHL SUB DUP2 GT PUSH2 0x230 JUMPI PUSH2 0x509 SWAP1 CALLDATASIZE SWAP1 PUSH1 0x4 ADD PUSH2 0x1B16 JUMP JUMPDEST PUSH1 0x24 CALLDATALOAD SWAP1 PUSH1 0x1 PUSH1 0x1 PUSH1 0xA0 SHL SUB DUP3 AND DUP3 SUB PUSH2 0x230 JUMPI PUSH1 0x44 CALLDATALOAD SWAP1 PUSH1 0x1 PUSH1 0x1 PUSH1 0x40 SHL SUB DUP3 GT PUSH2 0x230 JUMPI PUSH2 0x386 SWAP3 PUSH2 0x544 PUSH2 0x54A SWAP4 CALLDATASIZE SWAP1 PUSH1 0x4 ADD PUSH2 0x1B16 JUMP JUMPDEST SWAP2 PUSH2 0x226D JUMP JUMPDEST PUSH1 0x40 MLOAD SWAP2 DUP3 SWAP2 PUSH1 0x20 DUP4 MSTORE PUSH1 0x20 DUP4 ADD SWAP1 PUSH2 0x1C67 JUMP JUMPDEST CALLVALUE PUSH2 0x230 JUMPI PUSH1 0x20 CALLDATASIZE PUSH1 0x3 NOT ADD SLT PUSH2 0x230 JUMPI PUSH1 0x4 CALLDATALOAD PUSH1 0x1 PUSH1 0x1 PUSH1 0x40 SHL SUB DUP2 GT PUSH2 0x230 JUMPI PUSH2 0x5A2 PUSH2 0x594 PUSH2 0x386 SWAP3 CALLDATASIZE SWAP1 PUSH1 0x4 ADD PUSH2 0x1B16 JUMP JUMPDEST PUSH2 0x59C PUSH2 0x2187 JUMP JUMPDEST POP PUSH2 0x21D1 JUMP JUMPDEST PUSH1 0x40 MLOAD SWAP2 DUP3 SWAP2 DUP3 PUSH2 0x1D7A JUMP JUMPDEST CALLVALUE PUSH2 0x230 JUMPI PUSH1 0xC0 CALLDATASIZE PUSH1 0x3 NOT ADD SLT PUSH2 0x230 JUMPI PUSH1 0x4 CALLDATALOAD PUSH1 0x1 PUSH1 0x1 PUSH1 0x40 SHL SUB DUP2 GT PUSH2 0x230 JUMPI PUSH2 0x5DE SWAP1 CALLDATASIZE SWAP1 PUSH1 0x4 ADD PUSH2 0x1B16 JUMP JUMPDEST PUSH1 0x24 CALLDATALOAD PUSH1 0x1 PUSH1 0x1 PUSH1 0x40 SHL SUB DUP2 GT PUSH2 0x230 JUMPI PUSH2 0x5FD SWAP1 CALLDATASIZE SWAP1 PUSH1 0x4 ADD PUSH2 0x1B16 JUMP JUMPDEST PUSH1 0x44 CALLDATALOAD PUSH1 0x1 PUSH1 0x1 PUSH1 0x40 SHL SUB DUP2 GT PUSH2 0x230 JUMPI PUSH2 0x61C SWAP1 CALLDATASIZE SWAP1 PUSH1 0x4 ADD PUSH2 0x1B16 JUMP JUMPDEST PUSH1 0x64 CALLDATALOAD PUSH1 0x1 PUSH1 0x1 PUSH1 0x40 SHL SUB DUP2 GT PUSH2 0x230 JUMPI PUSH2 0x63B SWAP1 CALLDATASIZE SWAP1 PUSH1 0x4 ADD PUSH2 0x1B16 JUMP JUMPDEST PUSH2 0x643 PUSH2 0x1E46 JUMP JUMPDEST SWAP1 PUSH1 0xA4 CALLDATALOAD SWAP2 PUSH1 0x1 PUSH1 0x1 PUSH1 0x40 SHL SUB DUP4 GT PUSH2 0x230 JUMPI PUSH2 0x667 PUSH2 0x66D SWAP4 CALLDATASIZE SWAP1 PUSH1 0x4 ADD PUSH2 0x1B16 JUMP JUMPDEST SWAP4 PUSH2 0x226D JUMP JUMPDEST PUSH1 0x40 MLOAD SWAP1 PUSH1 0x1 DUP5 MLOAD SWAP3 PUSH1 0x20 DUP2 DUP2 DUP9 ADD SWAP6 DUP1 DUP8 DUP4 MCOPY DUP2 ADD PUSH1 0x3 DUP2 MSTORE SUB ADD SWAP1 KECCAK256 ADD DUP6 MLOAD PUSH1 0x1 PUSH1 0x1 PUSH1 0x40 SHL SUB DUP2 GT PUSH2 0x8DA JUMPI PUSH2 0x6A6 DUP3 SLOAD PUSH2 0x1B6B JUMP JUMPDEST PUSH1 0x1F DUP2 GT PUSH2 0xA13 JUMPI JUMPDEST POP PUSH1 0x20 PUSH1 0x1F DUP3 GT PUSH1 0x1 EQ PUSH2 0x9AC JUMPI SWAP1 DUP1 PUSH2 0x6E6 SWAP5 SWAP4 SWAP3 PUSH0 SWAP2 PUSH2 0x9A1 JUMPI JUMPDEST POP DUP2 PUSH1 0x1 SHL SWAP2 PUSH0 NOT SWAP1 PUSH1 0x3 SHL SHR NOT AND OR SWAP1 SSTORE JUMPDEST DUP4 DUP6 PUSH2 0x2639 JUMP JUMPDEST PUSH0 JUMPDEST PUSH1 0x2 SLOAD DUP2 LT ISZERO PUSH2 0x22E JUMPI PUSH2 0x6FB DUP2 PUSH2 0x1F3C JUMP JUMPDEST POP PUSH1 0x40 MLOAD PUSH2 0x711 DUP2 PUSH2 0x1AB PUSH1 0x20 DUP3 ADD DUP1 SWAP6 PUSH2 0x211D JUMP JUMPDEST MLOAD SWAP1 KECCAK256 PUSH1 0x40 MLOAD PUSH1 0x20 DUP2 ADD SWAP1 PUSH2 0x73E PUSH1 0x20 DUP3 DUP10 MLOAD DUP1 DUP10 DUP8 MCOPY DUP2 ADD PUSH0 DUP4 DUP3 ADD MSTORE SUB ADD PUSH1 0x1F NOT DUP2 ADD DUP4 MSTORE DUP3 PUSH2 0x1AF5 JUMP JUMPDEST MLOAD SWAP1 KECCAK256 EQ PUSH2 0x74F JUMPI JUMPDEST PUSH1 0x1 ADD PUSH2 0x6E8 JUMP JUMPDEST PUSH1 0x1 PUSH2 0x75A DUP3 PUSH2 0x1F3C JUMP JUMPDEST POP ADD DUP6 MLOAD PUSH1 0x1 PUSH1 0x1 PUSH1 0x40 SHL SUB DUP2 GT PUSH2 0x8DA JUMPI PUSH2 0x776 DUP3 SLOAD PUSH2 0x1B6B JUMP JUMPDEST PUSH1 0x1F DUP2 GT PUSH2 0x95C JUMPI JUMPDEST POP DUP1 PUSH1 0x20 PUSH1 0x1F DUP3 GT PUSH1 0x1 EQ PUSH2 0x8F9 JUMPI PUSH0 SWAP2 PUSH2 0x8EE JUMPI JUMPDEST POP DUP2 PUSH1 0x1 SHL SWAP2 PUSH0 NOT SWAP1 PUSH1 0x3 SHL SHR NOT AND OR SWAP1 SSTORE JUMPDEST PUSH1 0x3 PUSH2 0x7B3 DUP3 PUSH2 0x1F3C JUMP JUMPDEST POP ADD DUP1 SLOAD PUSH2 0xFF00 NOT AND PUSH2 0x100 OR SWAP1 SSTORE PUSH1 0x4 PUSH2 0x7CD DUP3 PUSH2 0x1F3C JUMP JUMPDEST POP ADD DUP4 MLOAD PUSH1 0x1 PUSH1 0x1 PUSH1 0x40 SHL SUB DUP2 GT PUSH2 0x8DA JUMPI PUSH2 0x7E9 DUP3 SLOAD PUSH2 0x1B6B JUMP JUMPDEST PUSH1 0x1F DUP2 GT PUSH2 0x895 JUMPI JUMPDEST POP PUSH1 0x20 PUSH1 0x1F DUP3 GT PUSH1 0x1 EQ PUSH2 0x832 JUMPI SWAP1 DUP1 PUSH1 0x1 SWAP5 SWAP4 SWAP3 PUSH0 SWAP2 PUSH2 0x827 JUMPI JUMPDEST POP PUSH0 NOT PUSH1 0x3 DUP4 SWAP1 SHL SHR NOT AND SWAP1 DUP5 SHL OR SWAP1 SSTORE JUMPDEST SWAP1 POP PUSH2 0x747 JUMP JUMPDEST SWAP1 POP DUP7 ADD MLOAD DUP10 PUSH2 0x80E JUMP JUMPDEST PUSH1 0x1F NOT DUP3 AND SWAP1 DUP4 PUSH0 MSTORE DUP1 PUSH0 KECCAK256 SWAP2 PUSH0 JUMPDEST DUP2 DUP2 LT PUSH2 0x87D JUMPI POP SWAP2 DUP4 SWAP2 PUSH1 0x1 SWAP7 SWAP6 SWAP5 DUP8 SWAP5 LT PUSH2 0x865 JUMPI JUMPDEST POP POP DUP2 SHL ADD SWAP1 SSTORE PUSH2 0x820 JUMP JUMPDEST DUP9 ADD MLOAD PUSH0 NOT PUSH1 0xF8 DUP5 PUSH1 0x3 SHL AND SHR NOT AND SWAP1 SSTORE DUP10 DUP1 PUSH2 0x859 JUMP JUMPDEST SWAP2 SWAP3 PUSH1 0x20 PUSH1 0x1 DUP2 SWAP3 DUP7 DUP13 ADD MLOAD DUP2 SSTORE ADD SWAP5 ADD SWAP3 ADD PUSH2 0x841 JUMP JUMPDEST DUP3 PUSH0 MSTORE PUSH1 0x20 PUSH0 KECCAK256 PUSH1 0x1F DUP4 ADD PUSH1 0x5 SHR DUP2 ADD SWAP2 PUSH1 0x20 DUP5 LT PUSH2 0x8D0 JUMPI JUMPDEST PUSH1 0x1F ADD PUSH1 0x5 SHR ADD SWAP1 JUMPDEST DUP2 DUP2 LT PUSH2 0x8C5 JUMPI POP PUSH2 0x7F2 JUMP JUMPDEST PUSH0 DUP2 SSTORE PUSH1 0x1 ADD PUSH2 0x8B8 JUMP JUMPDEST SWAP1 SWAP2 POP DUP2 SWAP1 PUSH2 0x8AF JUMP JUMPDEST PUSH4 0x4E487B71 PUSH1 0xE0 SHL PUSH0 MSTORE PUSH1 0x41 PUSH1 0x4 MSTORE PUSH1 0x24 PUSH0 REVERT JUMPDEST SWAP1 POP DUP8 ADD MLOAD DUP9 PUSH2 0x795 JUMP JUMPDEST PUSH0 DUP5 DUP2 MSTORE DUP2 DUP2 KECCAK256 SWAP3 POP PUSH1 0x1F NOT DUP5 AND SWAP1 JUMPDEST DUP11 DUP3 DUP3 LT PUSH2 0x944 JUMPI POP POP SWAP1 DUP4 PUSH1 0x1 SWAP5 SWAP4 SWAP3 LT PUSH2 0x92C JUMPI JUMPDEST POP POP DUP2 SHL ADD SWAP1 SSTORE PUSH2 0x7A8 JUMP JUMPDEST DUP10 ADD MLOAD PUSH0 NOT PUSH1 0xF8 DUP5 PUSH1 0x3 SHL AND SHR NOT AND SWAP1 SSTORE DUP9 DUP1 PUSH2 0x920 JUMP JUMPDEST PUSH1 0x1 DUP5 SWAP6 PUSH1 0x20 SWAP4 SWAP6 DUP5 SWAP4 ADD MLOAD DUP2 SSTORE ADD SWAP5 ADD SWAP3 ADD PUSH2 0x909 JUMP JUMPDEST DUP3 PUSH0 MSTORE PUSH1 0x20 PUSH0 KECCAK256 PUSH1 0x1F DUP4 ADD PUSH1 0x5 SHR DUP2 ADD SWAP2 PUSH1 0x20 DUP5 LT PUSH2 0x997 JUMPI JUMPDEST PUSH1 0x1F ADD PUSH1 0x5 SHR ADD SWAP1 JUMPDEST DUP2 DUP2 LT PUSH2 0x98C JUMPI POP PUSH2 0x77F JUMP JUMPDEST PUSH0 DUP2 SSTORE PUSH1 0x1 ADD PUSH2 0x97F JUMP JUMPDEST SWAP1 SWAP2 POP DUP2 SWAP1 PUSH2 0x976 JUMP JUMPDEST SWAP1 POP DUP9 ADD MLOAD DUP10 PUSH2 0x6CC JUMP JUMPDEST PUSH1 0x1F NOT DUP3 AND SWAP1 DUP4 PUSH0 MSTORE DUP1 PUSH0 KECCAK256 SWAP2 PUSH0 JUMPDEST DUP11 DUP3 DUP3 LT PUSH2 0x9FB JUMPI POP POP SWAP2 DUP4 SWAP2 PUSH2 0x6E6 SWAP7 SWAP6 SWAP5 PUSH1 0x1 SWAP5 LT PUSH2 0x9E3 JUMPI JUMPDEST POP POP DUP2 SHL ADD SWAP1 SSTORE PUSH2 0x6DF JUMP JUMPDEST DUP11 ADD MLOAD PUSH0 NOT PUSH1 0xF8 DUP5 PUSH1 0x3 SHL AND SHR NOT AND SWAP1 SSTORE DUP10 DUP1 PUSH2 0x9D7 JUMP JUMPDEST PUSH1 0x1 DUP5 SWAP6 PUSH1 0x20 SWAP4 SWAP6 DUP5 SWAP4 ADD MLOAD DUP2 SSTORE ADD SWAP5 ADD SWAP3 ADD PUSH2 0x9BB JUMP JUMPDEST DUP3 PUSH0 MSTORE PUSH1 0x20 PUSH0 KECCAK256 PUSH1 0x1F DUP4 ADD PUSH1 0x5 SHR DUP2 ADD SWAP2 PUSH1 0x20 DUP5 LT PUSH2 0xA4E JUMPI JUMPDEST PUSH1 0x1F ADD PUSH1 0x5 SHR ADD SWAP1 JUMPDEST DUP2 DUP2 LT PUSH2 0xA43 JUMPI POP PUSH2 0x6AF JUMP JUMPDEST PUSH0 DUP2 SSTORE PUSH1 0x1 ADD PUSH2 0xA36 JUMP JUMPDEST SWAP1 SWAP2 POP DUP2 SWAP1 PUSH2 0xA2D JUMP JUMPDEST CALLVALUE PUSH2 0x230 JUMPI PUSH1 0xC0 CALLDATASIZE PUSH1 0x3 NOT ADD SLT PUSH2 0x230 JUMPI PUSH1 0x4 CALLDATALOAD PUSH1 0x1 PUSH1 0x1 PUSH1 0x40 SHL SUB DUP2 GT PUSH2 0x230 JUMPI PUSH2 0xA88 SWAP1 CALLDATASIZE SWAP1 PUSH1 0x4 ADD PUSH2 0x1B16 JUMP JUMPDEST PUSH1 0x24 CALLDATALOAD PUSH1 0x1 PUSH1 0x1 PUSH1 0x40 SHL SUB DUP2 GT PUSH2 0x230 JUMPI PUSH2 0xAA7 SWAP1 CALLDATASIZE SWAP1 PUSH1 0x4 ADD PUSH2 0x1B16 JUMP JUMPDEST SWAP1 PUSH1 0x44 CALLDATALOAD PUSH1 0x1 PUSH1 0x1 PUSH1 0x40 SHL SUB DUP2 GT PUSH2 0x230 JUMPI PUSH2 0xAC7 SWAP1 CALLDATASIZE SWAP1 PUSH1 0x4 ADD PUSH2 0x1B16 JUMP JUMPDEST SWAP1 PUSH1 0x64 CALLDATALOAD SWAP1 PUSH1 0x1 PUSH1 0x1 PUSH1 0xA0 SHL SUB DUP3 AND DUP3 SUB PUSH2 0x230 JUMPI PUSH1 0x84 CALLDATALOAD SWAP2 PUSH1 0xFF DUP4 AND DUP1 SWAP4 SUB PUSH2 0x230 JUMPI PUSH1 0xA4 CALLDATALOAD PUSH1 0x1 PUSH1 0x1 PUSH1 0x40 SHL SUB DUP2 GT PUSH2 0x230 JUMPI PUSH2 0xB15 SWAP2 PUSH2 0xB0F DUP7 SWAP3 CALLDATASIZE SWAP1 PUSH1 0x4 ADD PUSH2 0x1B16 JUMP JUMPDEST SWAP7 PUSH2 0x226D JUMP JUMPDEST SWAP4 PUSH2 0xB65 DUP3 PUSH1 0x20 SWAP7 PUSH1 0x40 MLOAD SWAP1 PUSH2 0xB2B DUP10 DUP4 PUSH2 0x1AF5 JUMP JUMPDEST PUSH0 DUP3 MSTORE PUSH1 0x40 MLOAD PUSH2 0xB3B DUP11 DUP3 PUSH2 0x1AF5 JUMP JUMPDEST PUSH0 DUP2 MSTORE PUSH2 0xB46 PUSH2 0x1F6C JUMP JUMPDEST POP PUSH1 0x40 MLOAD SWAP3 PUSH2 0xB54 DUP5 PUSH2 0x1ABE JUMP JUMPDEST DUP4 MSTORE DUP10 DUP4 ADD MSTORE PUSH0 PUSH1 0x40 DUP4 ADD MSTORE PUSH2 0x29B6 JUMP JUMPDEST PUSH1 0x40 MLOAD PUSH2 0xB71 DUP2 PUSH2 0x1A88 JUMP JUMPDEST DUP3 DUP2 MSTORE PUSH1 0x40 MLOAD PUSH2 0xB81 DUP8 DUP3 PUSH2 0x1AF5 JUMP JUMPDEST PUSH0 DUP2 MSTORE DUP7 DUP3 ADD SWAP1 DUP2 MSTORE PUSH1 0x40 DUP3 ADD SWAP1 DUP6 DUP3 MSTORE PUSH1 0x60 DUP4 ADD SWAP4 DUP5 MSTORE PUSH1 0x40 MLOAD DUP9 DUP2 DUP8 MLOAD DUP1 DUP4 DUP11 ADD DUP4 MCOPY DUP2 ADD PUSH1 0x3 DUP2 MSTORE SUB ADD SWAP1 KECCAK256 SWAP3 MLOAD DUP1 MLOAD SWAP1 PUSH1 0x1 PUSH1 0x1 PUSH1 0x40 SHL SUB DUP3 GT PUSH2 0x8DA JUMPI DUP2 SWAP1 PUSH2 0xBCF DUP7 SLOAD PUSH2 0x1B6B JUMP JUMPDEST PUSH1 0x1F DUP2 GT PUSH2 0x13AE JUMPI JUMPDEST POP DUP11 SWAP1 PUSH1 0x1F DUP4 GT PUSH1 0x1 EQ PUSH2 0x134B JUMPI PUSH0 SWAP3 PUSH2 0x1340 JUMPI JUMPDEST POP POP DUP2 PUSH1 0x1 SHL SWAP2 PUSH0 NOT SWAP1 PUSH1 0x3 SHL SHR NOT AND OR DUP4 SSTORE JUMPDEST MLOAD DUP1 MLOAD PUSH1 0x1 DUP5 ADD SWAP2 PUSH1 0x1 PUSH1 0x1 PUSH1 0x40 SHL SUB DUP3 GT PUSH2 0x8DA JUMPI PUSH2 0xC21 DUP4 SLOAD PUSH2 0x1B6B JUMP JUMPDEST PUSH1 0x1F DUP2 GT PUSH2 0x12FD JUMPI JUMPDEST POP DUP10 SWAP1 PUSH1 0x1F DUP4 GT PUSH1 0x1 EQ PUSH2 0x1294 JUMPI SWAP2 DUP1 PUSH1 0xFF SWAP5 SWAP3 PUSH1 0x3 SWAP8 SWAP7 SWAP5 PUSH0 SWAP3 PUSH2 0x1289 JUMPI JUMPDEST POP POP DUP2 PUSH1 0x1 SHL SWAP2 PUSH0 NOT SWAP1 DUP9 SHL SHR NOT AND OR SWAP1 SSTORE JUMPDEST MLOAD AND PUSH1 0xFF PUSH1 0x2 DUP4 ADD SWAP2 AND PUSH1 0xFF NOT DUP3 SLOAD AND OR SWAP1 SSTORE ADD SWAP1 MLOAD DUP1 MLOAD SWAP1 PUSH1 0x1 PUSH1 0x1 PUSH1 0x40 SHL SUB DUP3 GT PUSH2 0x8DA JUMPI DUP2 SWAP1 PUSH2 0xC90 DUP5 SLOAD PUSH2 0x1B6B JUMP JUMPDEST PUSH1 0x1F DUP2 GT PUSH2 0x123B JUMPI JUMPDEST POP DUP8 SWAP1 PUSH1 0x1F DUP4 GT PUSH1 0x1 EQ PUSH2 0x11D8 JUMPI PUSH0 SWAP3 PUSH2 0x11CD JUMPI JUMPDEST POP POP DUP2 PUSH1 0x1 SHL SWAP2 PUSH0 NOT SWAP1 PUSH1 0x3 SHL SHR NOT AND OR SWAP1 SSTORE JUMPDEST PUSH1 0x40 MLOAD SWAP1 PUSH2 0xCCF DUP3 PUSH2 0x1AA3 JUMP JUMPDEST DUP2 MSTORE PUSH1 0x40 MLOAD SWAP3 PUSH2 0xCDF DUP6 DUP6 PUSH2 0x1AF5 JUMP JUMPDEST PUSH0 DUP5 MSTORE DUP5 DUP3 ADD SWAP4 DUP5 MSTORE PUSH1 0x40 DUP3 ADD SWAP1 DUP2 MSTORE PUSH1 0x60 DUP3 ADD SWAP3 DUP4 MSTORE PUSH1 0x80 DUP3 ADD SWAP1 PUSH0 DUP3 MSTORE PUSH1 0x40 MLOAD SWAP5 PUSH2 0xD0C DUP8 DUP8 PUSH2 0x1AF5 JUMP JUMPDEST PUSH0 DUP7 MSTORE PUSH1 0xA0 DUP5 ADD SWAP6 DUP7 MSTORE PUSH1 0x2 SLOAD PUSH9 0x10000000000000000 DUP2 LT ISZERO PUSH2 0x8DA JUMPI DUP1 PUSH1 0x1 PUSH2 0xD3A SWAP3 ADD PUSH1 0x2 SSTORE PUSH2 0x1F3C JUMP JUMPDEST SWAP5 SWAP1 SWAP5 PUSH2 0x11BA JUMPI MLOAD DUP1 MLOAD SWAP1 PUSH1 0x1 PUSH1 0x1 PUSH1 0x40 SHL SUB DUP3 GT PUSH2 0x8DA JUMPI DUP2 SWAP1 PUSH2 0xD5F DUP8 SLOAD PUSH2 0x1B6B JUMP JUMPDEST PUSH1 0x1F DUP2 GT PUSH2 0x116C JUMPI JUMPDEST POP DUP10 SWAP1 PUSH1 0x1F DUP4 GT PUSH1 0x1 EQ PUSH2 0x1109 JUMPI PUSH0 SWAP3 PUSH2 0x10FE JUMPI JUMPDEST POP POP DUP2 PUSH1 0x1 SHL SWAP2 PUSH0 NOT SWAP1 PUSH1 0x3 SHL SHR NOT AND OR DUP5 SSTORE JUMPDEST MLOAD DUP1 MLOAD PUSH1 0x1 DUP6 ADD SWAP2 PUSH1 0x1 PUSH1 0x1 PUSH1 0x40 SHL SUB DUP3 GT PUSH2 0x8DA JUMPI DUP2 SWAP1 PUSH2 0xDB3 DUP5 SLOAD PUSH2 0x1B6B JUMP JUMPDEST PUSH1 0x1F DUP2 GT PUSH2 0x10B0 JUMPI JUMPDEST POP DUP10 SWAP1 PUSH1 0x1F DUP4 GT PUSH1 0x1 EQ PUSH2 0x104D JUMPI PUSH0 SWAP3 PUSH2 0x1042 JUMPI JUMPDEST POP POP DUP2 PUSH1 0x1 SHL SWAP2 PUSH0 NOT SWAP1 PUSH1 0x3 SHL SHR NOT AND OR SWAP1 SSTORE JUMPDEST MLOAD DUP1 MLOAD PUSH1 0x2 DUP5 ADD SWAP2 PUSH1 0x1 PUSH1 0x1 PUSH1 0x40 SHL SUB DUP3 GT PUSH2 0x8DA JUMPI DUP2 SWAP1 PUSH2 0xE07 DUP5 SLOAD PUSH2 0x1B6B JUMP JUMPDEST PUSH1 0x1F DUP2 GT PUSH2 0xFF4 JUMPI JUMPDEST POP DUP9 SWAP1 PUSH1 0x1F DUP4 GT PUSH1 0x1 EQ PUSH2 0xF91 JUMPI PUSH0 SWAP3 PUSH2 0xF86 JUMPI JUMPDEST POP POP DUP2 PUSH1 0x1 SHL SWAP2 PUSH0 NOT SWAP1 PUSH1 0x3 SHL SHR NOT AND OR SWAP1 SSTORE JUMPDEST PUSH1 0xFF DUP1 PUSH1 0x3 DUP5 ADD SWAP5 MLOAD AND AND PUSH1 0xFF NOT DUP5 SLOAD AND OR DUP4 SSTORE MLOAD SWAP2 PUSH1 0x4 DUP4 LT ISZERO PUSH2 0xF72 JUMPI PUSH1 0x4 SWAP3 PUSH2 0xFF00 DUP3 SLOAD SWAP2 PUSH1 0x8 SHL AND SWAP1 PUSH2 0xFF00 NOT AND OR SWAP1 SSTORE ADD SWAP1 MLOAD SWAP2 DUP3 MLOAD SWAP1 PUSH1 0x1 PUSH1 0x1 PUSH1 0x40 SHL SUB DUP3 GT PUSH2 0x8DA JUMPI PUSH2 0xE8D DUP4 SLOAD PUSH2 0x1B6B JUMP JUMPDEST PUSH1 0x1F DUP2 GT PUSH2 0xF2F JUMPI JUMPDEST POP DUP1 PUSH1 0x1F DUP4 GT PUSH1 0x1 EQ PUSH2 0xED0 JUMPI POP DUP2 SWAP3 SWAP4 PUSH0 SWAP3 PUSH2 0xEC5 JUMPI JUMPDEST POP POP PUSH0 NOT PUSH1 0x3 DUP4 SWAP1 SHL SHR NOT AND PUSH1 0x1 SWAP2 SWAP1 SWAP2 SHL OR SWAP1 SSTORE STOP JUMPDEST ADD MLOAD SWAP1 POP DUP4 DUP1 PUSH2 0xEAE JUMP JUMPDEST SWAP1 PUSH1 0x1F NOT DUP4 AND SWAP5 DUP5 PUSH0 MSTORE DUP3 PUSH0 KECCAK256 SWAP3 PUSH0 SWAP1 JUMPDEST DUP8 DUP3 LT PUSH2 0xF17 JUMPI POP POP DUP4 PUSH1 0x1 SWAP6 SWAP7 LT PUSH2 0xEFF JUMPI JUMPDEST POP POP POP DUP2 SHL ADD SWAP1 SSTORE STOP JUMPDEST ADD MLOAD PUSH0 NOT PUSH1 0xF8 DUP5 PUSH1 0x3 SHL AND SHR NOT AND SWAP1 SSTORE DUP4 DUP1 DUP1 PUSH2 0xEF5 JUMP JUMPDEST DUP1 PUSH1 0x1 DUP6 SWAP7 DUP3 SWAP5 SWAP7 DUP7 ADD MLOAD DUP2 SSTORE ADD SWAP6 ADD SWAP4 ADD SWAP1 PUSH2 0xEE1 JUMP JUMPDEST DUP4 PUSH0 MSTORE DUP2 PUSH0 KECCAK256 PUSH1 0x1F DUP5 ADD PUSH1 0x5 SHR DUP2 ADD SWAP2 DUP4 DUP6 LT PUSH2 0xF68 JUMPI JUMPDEST PUSH1 0x1F ADD PUSH1 0x5 SHR ADD SWAP1 JUMPDEST DUP2 DUP2 LT PUSH2 0xF5D JUMPI POP PUSH2 0xE96 JUMP JUMPDEST PUSH0 DUP2 SSTORE PUSH1 0x1 ADD PUSH2 0xF50 JUMP JUMPDEST SWAP1 SWAP2 POP DUP2 SWAP1 PUSH2 0xF47 JUMP JUMPDEST PUSH4 0x4E487B71 PUSH1 0xE0 SHL PUSH0 MSTORE PUSH1 0x21 PUSH1 0x4 MSTORE PUSH1 0x24 PUSH0 REVERT JUMPDEST ADD MLOAD SWAP1 POP DUP9 DUP1 PUSH2 0xE25 JUMP JUMPDEST PUSH0 DUP6 DUP2 MSTORE DUP11 DUP2 KECCAK256 SWAP4 POP PUSH1 0x1F NOT DUP6 AND SWAP1 JUMPDEST DUP12 DUP3 DUP3 LT PUSH2 0xFDE JUMPI POP POP SWAP1 DUP5 PUSH1 0x1 SWAP6 SWAP5 SWAP4 SWAP3 LT PUSH2 0xFC6 JUMPI JUMPDEST POP POP POP DUP2 SHL ADD SWAP1 SSTORE PUSH2 0xE39 JUMP JUMPDEST ADD MLOAD PUSH0 NOT PUSH1 0xF8 DUP5 PUSH1 0x3 SHL AND SHR NOT AND SWAP1 SSTORE DUP9 DUP1 DUP1 PUSH2 0xFB9 JUMP JUMPDEST PUSH1 0x1 DUP6 SWAP7 DUP3 SWAP4 SWAP7 DUP7 ADD MLOAD DUP2 SSTORE ADD SWAP6 ADD SWAP4 ADD PUSH2 0xFA1 JUMP JUMPDEST SWAP1 SWAP2 POP DUP4 PUSH0 MSTORE DUP9 PUSH0 KECCAK256 PUSH1 0x1F DUP5 ADD PUSH1 0x5 SHR DUP2 ADD SWAP2 DUP11 DUP6 LT PUSH2 0x1038 JUMPI JUMPDEST SWAP1 PUSH1 0x1F DUP6 SWAP5 SWAP4 SWAP3 ADD PUSH1 0x5 SHR ADD SWAP1 JUMPDEST DUP2 DUP2 LT PUSH2 0x102A JUMPI POP PUSH2 0xE10 JUMP JUMPDEST PUSH0 DUP2 SSTORE DUP5 SWAP4 POP PUSH1 0x1 ADD PUSH2 0x101D JUMP JUMPDEST SWAP1 SWAP2 POP DUP2 SWAP1 PUSH2 0x100F JUMP JUMPDEST ADD MLOAD SWAP1 POP DUP10 DUP1 PUSH2 0xDD1 JUMP JUMPDEST PUSH0 DUP6 DUP2 MSTORE DUP12 DUP2 KECCAK256 SWAP4 POP PUSH1 0x1F NOT DUP6 AND SWAP1 JUMPDEST DUP13 DUP3 DUP3 LT PUSH2 0x109A JUMPI POP POP SWAP1 DUP5 PUSH1 0x1 SWAP6 SWAP5 SWAP4 SWAP3 LT PUSH2 0x1082 JUMPI JUMPDEST POP POP POP DUP2 SHL ADD SWAP1 SSTORE PUSH2 0xDE5 JUMP JUMPDEST ADD MLOAD PUSH0 NOT PUSH1 0xF8 DUP5 PUSH1 0x3 SHL AND SHR NOT AND SWAP1 SSTORE DUP10 DUP1 DUP1 PUSH2 0x1075 JUMP JUMPDEST PUSH1 0x1 DUP6 SWAP7 DUP3 SWAP4 SWAP7 DUP7 ADD MLOAD DUP2 SSTORE ADD SWAP6 ADD SWAP4 ADD PUSH2 0x105D JUMP JUMPDEST SWAP1 SWAP2 POP DUP4 PUSH0 MSTORE DUP10 PUSH0 KECCAK256 PUSH1 0x1F DUP5 ADD PUSH1 0x5 SHR DUP2 ADD SWAP2 DUP12 DUP6 LT PUSH2 0x10F4 JUMPI JUMPDEST SWAP1 PUSH1 0x1F DUP6 SWAP5 SWAP4 SWAP3 ADD PUSH1 0x5 SHR ADD SWAP1 JUMPDEST DUP2 DUP2 LT PUSH2 0x10E6 JUMPI POP PUSH2 0xDBC JUMP JUMPDEST PUSH0 DUP2 SSTORE DUP5 SWAP4 POP PUSH1 0x1 ADD PUSH2 0x10D9 JUMP JUMPDEST SWAP1 SWAP2 POP DUP2 SWAP1 PUSH2 0x10CB JUMP JUMPDEST ADD MLOAD SWAP1 POP DUP10 DUP1 PUSH2 0xD7D JUMP JUMPDEST PUSH0 DUP9 DUP2 MSTORE DUP12 DUP2 KECCAK256 SWAP4 POP PUSH1 0x1F NOT DUP6 AND SWAP1 JUMPDEST DUP13 DUP3 DUP3 LT PUSH2 0x1156 JUMPI POP POP SWAP1 DUP5 PUSH1 0x1 SWAP6 SWAP5 SWAP4 SWAP3 LT PUSH2 0x113E JUMPI JUMPDEST POP POP POP DUP2 SHL ADD DUP5 SSTORE PUSH2 0xD91 JUMP JUMPDEST ADD MLOAD PUSH0 NOT PUSH1 0xF8 DUP5 PUSH1 0x3 SHL AND SHR NOT AND SWAP1 SSTORE DUP10 DUP1 DUP1 PUSH2 0x1131 JUMP JUMPDEST PUSH1 0x1 DUP6 SWAP7 DUP3 SWAP4 SWAP7 DUP7 ADD MLOAD DUP2 SSTORE ADD SWAP6 ADD SWAP4 ADD PUSH2 0x1119 JUMP JUMPDEST SWAP1 SWAP2 POP DUP7 PUSH0 MSTORE DUP10 PUSH0 KECCAK256 PUSH1 0x1F DUP5 ADD PUSH1 0x5 SHR DUP2 ADD SWAP2 DUP12 DUP6 LT PUSH2 0x11B0 JUMPI JUMPDEST SWAP1 PUSH1 0x1F DUP6 SWAP5 SWAP4 SWAP3 ADD PUSH1 0x5 SHR ADD SWAP1 JUMPDEST DUP2 DUP2 LT PUSH2 0x11A2 JUMPI POP PUSH2 0xD68 JUMP JUMPDEST PUSH0 DUP2 SSTORE DUP5 SWAP4 POP PUSH1 0x1 ADD PUSH2 0x1195 JUMP JUMPDEST SWAP1 SWAP2 POP DUP2 SWAP1 PUSH2 0x1187 JUMP JUMPDEST PUSH4 0x4E487B71 PUSH1 0xE0 SHL PUSH0 MSTORE PUSH0 PUSH1 0x4 MSTORE PUSH1 0x24 PUSH0 REVERT JUMPDEST ADD MLOAD SWAP1 POP DUP8 DUP1 PUSH2 0xCAE JUMP JUMPDEST PUSH0 DUP6 DUP2 MSTORE DUP10 DUP2 KECCAK256 SWAP4 POP PUSH1 0x1F NOT DUP6 AND SWAP1 JUMPDEST DUP11 DUP3 DUP3 LT PUSH2 0x1225 JUMPI POP POP SWAP1 DUP5 PUSH1 0x1 SWAP6 SWAP5 SWAP4 SWAP3 LT PUSH2 0x120D JUMPI JUMPDEST POP POP POP DUP2 SHL ADD SWAP1 SSTORE PUSH2 0xCC2 JUMP JUMPDEST ADD MLOAD PUSH0 NOT PUSH1 0xF8 DUP5 PUSH1 0x3 SHL AND SHR NOT AND SWAP1 SSTORE DUP8 DUP1 DUP1 PUSH2 0x1200 JUMP JUMPDEST PUSH1 0x1 DUP6 SWAP7 DUP3 SWAP4 SWAP7 DUP7 ADD MLOAD DUP2 SSTORE ADD SWAP6 ADD SWAP4 ADD PUSH2 0x11E8 JUMP JUMPDEST SWAP1 SWAP2 POP DUP4 PUSH0 MSTORE DUP8 PUSH0 KECCAK256 PUSH1 0x1F DUP5 ADD PUSH1 0x5 SHR DUP2 ADD SWAP2 DUP10 DUP6 LT PUSH2 0x127F JUMPI JUMPDEST SWAP1 PUSH1 0x1F DUP6 SWAP5 SWAP4 SWAP3 ADD PUSH1 0x5 SHR ADD SWAP1 JUMPDEST DUP2 DUP2 LT PUSH2 0x1271 JUMPI POP PUSH2 0xC99 JUMP JUMPDEST PUSH0 DUP2 SSTORE DUP5 SWAP4 POP PUSH1 0x1 ADD PUSH2 0x1264 JUMP JUMPDEST SWAP1 SWAP2 POP DUP2 SWAP1 PUSH2 0x1256 JUMP JUMPDEST ADD MLOAD SWAP1 POP DUP13 DUP1 PUSH2 0xC4A JUMP JUMPDEST SWAP1 PUSH1 0x1F NOT DUP4 AND SWAP2 DUP5 PUSH0 MSTORE DUP12 PUSH0 KECCAK256 SWAP3 PUSH0 JUMPDEST DUP14 DUP3 DUP3 LT PUSH2 0x12E7 JUMPI POP POP SWAP3 PUSH1 0x1 SWAP3 DUP6 SWAP3 PUSH1 0x3 SWAP10 SWAP9 SWAP7 PUSH1 0xFF SWAP9 SWAP7 LT PUSH2 0x12D0 JUMPI JUMPDEST POP POP POP DUP2 SHL ADD SWAP1 SSTORE PUSH2 0xC5D JUMP JUMPDEST ADD MLOAD PUSH0 NOT DUP4 DUP11 SHL PUSH1 0xF8 AND SHR NOT AND SWAP1 SSTORE DUP13 DUP1 DUP1 PUSH2 0x12C3 JUMP JUMPDEST PUSH1 0x1 DUP6 SWAP7 DUP3 SWAP4 SWAP7 DUP7 ADD MLOAD DUP2 SSTORE ADD SWAP6 ADD SWAP4 ADD PUSH2 0x12A4 JUMP JUMPDEST DUP4 PUSH0 MSTORE DUP11 PUSH0 KECCAK256 PUSH1 0x1F DUP5 ADD PUSH1 0x5 SHR DUP2 ADD SWAP2 DUP13 DUP6 LT PUSH2 0x1336 JUMPI JUMPDEST PUSH1 0x1F ADD PUSH1 0x5 SHR ADD SWAP1 JUMPDEST DUP2 DUP2 LT PUSH2 0x132B JUMPI POP PUSH2 0xC2A JUMP JUMPDEST PUSH0 DUP2 SSTORE PUSH1 0x1 ADD PUSH2 0x131E JUMP JUMPDEST SWAP1 SWAP2 POP DUP2 SWAP1 PUSH2 0x1315 JUMP JUMPDEST ADD MLOAD SWAP1 POP DUP11 DUP1 PUSH2 0xBED JUMP JUMPDEST PUSH0 DUP8 DUP2 MSTORE DUP13 DUP2 KECCAK256 SWAP4 POP PUSH1 0x1F NOT DUP6 AND SWAP1 JUMPDEST DUP14 DUP3 DUP3 LT PUSH2 0x1398 JUMPI POP POP SWAP1 DUP5 PUSH1 0x1 SWAP6 SWAP5 SWAP4 SWAP3 LT PUSH2 0x1380 JUMPI JUMPDEST POP POP POP DUP2 SHL ADD DUP4 SSTORE PUSH2 0xC01 JUMP JUMPDEST ADD MLOAD PUSH0 NOT PUSH1 0xF8 DUP5 PUSH1 0x3 SHL AND SHR NOT AND SWAP1 SSTORE DUP11 DUP1 DUP1 PUSH2 0x1373 JUMP JUMPDEST PUSH1 0x1 DUP6 SWAP7 DUP3 SWAP4 SWAP7 DUP7 ADD MLOAD DUP2 SSTORE ADD SWAP6 ADD SWAP4 ADD PUSH2 0x135B JUMP JUMPDEST SWAP1 SWAP2 POP DUP6 PUSH0 MSTORE DUP11 PUSH0 KECCAK256 PUSH1 0x1F DUP5 ADD PUSH1 0x5 SHR DUP2 ADD SWAP2 DUP13 DUP6 LT PUSH2 0x13F2 JUMPI JUMPDEST SWAP1 PUSH1 0x1F DUP6 SWAP5 SWAP4 SWAP3 ADD PUSH1 0x5 SHR ADD SWAP1 JUMPDEST DUP2 DUP2 LT PUSH2 0x13E4 JUMPI POP PUSH2 0xBD8 JUMP JUMPDEST PUSH0 DUP2 SSTORE DUP5 SWAP4 POP PUSH1 0x1 ADD PUSH2 0x13D7 JUMP JUMPDEST SWAP1 SWAP2 POP DUP2 SWAP1 PUSH2 0x13C9 JUMP JUMPDEST CALLVALUE PUSH2 0x230 JUMPI PUSH1 0x20 CALLDATASIZE PUSH1 0x3 NOT ADD SLT PUSH2 0x230 JUMPI PUSH1 0x4 CALLDATALOAD PUSH1 0x1 PUSH1 0x1 PUSH1 0x40 SHL SUB DUP2 GT PUSH2 0x230 JUMPI PUSH1 0x20 DUP1 PUSH2 0x1432 PUSH2 0x14A0 SWAP4 CALLDATASIZE SWAP1 PUSH1 0x4 ADD PUSH2 0x1B16 JUMP JUMPDEST PUSH1 0x40 MLOAD SWAP3 DUP2 DUP5 SWAP3 MLOAD SWAP2 DUP3 SWAP2 ADD DUP4 MCOPY DUP2 ADD PUSH0 DUP2 MSTORE SUB ADD SWAP1 KECCAK256 PUSH2 0x386 PUSH1 0xFF DUP3 SLOAD AND SWAP2 PUSH2 0x14D5 PUSH1 0x1 DUP3 ADD SLOAD SWAP2 PUSH2 0x14C7 PUSH1 0x2 DUP3 ADD SLOAD PUSH1 0x3 DUP4 ADD SLOAD PUSH1 0x4 DUP5 ADD SLOAD SWAP1 PUSH2 0x147A PUSH1 0x5 DUP7 ADD PUSH2 0x1E07 JUMP JUMPDEST SWAP3 PUSH2 0x1493 PUSH1 0xB PUSH2 0x148C PUSH1 0x8 DUP10 ADD PUSH2 0x1E07 JUMP JUMPDEST SWAP8 ADD PUSH2 0x1BA3 JUMP JUMPDEST SWAP8 PUSH1 0x40 MLOAD SWAP12 DUP13 DUP1 SWAP13 PUSH2 0x1CA5 JUMP JUMPDEST PUSH1 0x20 DUP12 ADD MSTORE PUSH1 0x40 DUP11 ADD MSTORE PUSH1 0x60 DUP10 ADD MSTORE PUSH1 0x80 DUP9 ADD MSTORE PUSH2 0x100 PUSH1 0xA0 DUP9 ADD MSTORE PUSH2 0x100 DUP8 ADD SWAP1 PUSH2 0x1C67 JUMP JUMPDEST SWAP1 DUP6 DUP3 SUB PUSH1 0xC0 DUP8 ADD MSTORE PUSH2 0x1C67 JUMP JUMPDEST SWAP1 DUP4 DUP3 SUB PUSH1 0xE0 DUP6 ADD MSTORE PUSH2 0x1C43 JUMP JUMPDEST CALLVALUE PUSH2 0x230 JUMPI PUSH1 0x20 CALLDATASIZE PUSH1 0x3 NOT ADD SLT PUSH2 0x230 JUMPI PUSH1 0x4 CALLDATALOAD PUSH1 0x1 PUSH1 0x1 PUSH1 0x40 SHL SUB DUP2 GT PUSH2 0x230 JUMPI PUSH2 0x5A2 PUSH2 0x1519 PUSH2 0x386 SWAP3 CALLDATASIZE SWAP1 PUSH1 0x4 ADD PUSH2 0x1B16 JUMP JUMPDEST PUSH2 0x21D1 JUMP JUMPDEST CALLVALUE PUSH2 0x230 JUMPI PUSH1 0x20 CALLDATASIZE PUSH1 0x3 NOT ADD SLT PUSH2 0x230 JUMPI PUSH1 0x4 CALLDATALOAD PUSH1 0x1 PUSH1 0x1 PUSH1 0x40 SHL SUB DUP2 GT PUSH2 0x230 JUMPI PUSH2 0x154E SWAP1 CALLDATASIZE SWAP1 PUSH1 0x4 ADD PUSH2 0x1B16 JUMP JUMPDEST PUSH1 0x2 SLOAD PUSH1 0x20 DUP3 ADD SWAP2 PUSH0 DUP1 JUMPDEST DUP4 DUP2 LT PUSH2 0x162A JUMPI POP PUSH1 0xFF PUSH2 0x156D SWAP2 AND PUSH2 0x1FD1 JUMP JUMPDEST SWAP3 PUSH0 SWAP2 PUSH0 JUMPDEST DUP5 DUP2 LT PUSH2 0x1587 JUMPI PUSH1 0x40 MLOAD DUP1 PUSH2 0x386 DUP9 DUP3 PUSH2 0x1CB2 JUMP JUMPDEST PUSH1 0x2 PUSH2 0x1AB PUSH2 0x15AC PUSH2 0x1598 DUP5 PUSH2 0x1F3C JUMP JUMPDEST POP PUSH1 0x40 MLOAD SWAP3 DUP4 SWAP2 PUSH1 0x20 DUP4 ADD SWAP6 DUP7 SWAP2 ADD PUSH2 0x211D JUMP JUMPDEST MLOAD SWAP1 KECCAK256 PUSH1 0x40 MLOAD PUSH1 0x20 DUP2 ADD SWAP1 PUSH2 0x15D9 PUSH1 0x20 DUP3 DUP8 MLOAD DUP1 DUP11 DUP8 MCOPY DUP2 ADD PUSH0 DUP4 DUP3 ADD MSTORE SUB ADD PUSH1 0x1F NOT DUP2 ADD DUP4 MSTORE DUP3 PUSH2 0x1AF5 JUMP JUMPDEST MLOAD SWAP1 KECCAK256 EQ PUSH2 0x15EA JUMPI JUMPDEST PUSH1 0x1 ADD PUSH2 0x1572 JUMP JUMPDEST SWAP3 PUSH2 0x1622 PUSH1 0x1 SWAP2 PUSH2 0x161C PUSH2 0x1606 PUSH2 0x1600 DUP9 PUSH2 0x1F3C JUMP JUMPDEST POP PUSH2 0x2068 JUMP JUMPDEST PUSH1 0xFF DUP4 AND SWAP1 PUSH2 0x1615 DUP3 DUP13 PUSH2 0x2048 JUMP JUMPDEST MSTORE DUP10 PUSH2 0x2048 JUMP JUMPDEST POP PUSH2 0x20D5 JUMP JUMPDEST SWAP4 SWAP1 POP PUSH2 0x15E2 JUMP JUMPDEST PUSH1 0x2 PUSH2 0x1AB PUSH2 0x163B PUSH2 0x1598 DUP5 PUSH2 0x1F3C JUMP JUMPDEST MLOAD SWAP1 KECCAK256 PUSH1 0x40 MLOAD PUSH1 0x20 DUP2 ADD SWAP1 PUSH2 0x1668 PUSH1 0x20 DUP3 DUP9 MLOAD DUP1 DUP13 DUP8 MCOPY DUP2 ADD PUSH0 DUP4 DUP3 ADD MSTORE SUB ADD PUSH1 0x1F NOT DUP2 ADD DUP4 MSTORE DUP3 PUSH2 0x1AF5 JUMP JUMPDEST MLOAD SWAP1 KECCAK256 EQ PUSH2 0x1679 JUMPI JUMPDEST PUSH1 0x1 ADD PUSH2 0x1559 JUMP JUMPDEST SWAP1 PUSH2 0x1685 PUSH1 0x1 SWAP2 PUSH2 0x20D5 JUMP JUMPDEST SWAP2 SWAP1 POP PUSH2 0x1671 JUMP JUMPDEST CALLVALUE PUSH2 0x230 JUMPI PUSH1 0x40 CALLDATASIZE PUSH1 0x3 NOT ADD SLT PUSH2 0x230 JUMPI PUSH1 0x4 CALLDATALOAD PUSH1 0x1 PUSH1 0x1 PUSH1 0x40 SHL SUB DUP2 GT PUSH2 0x230 JUMPI PUSH2 0x16BD SWAP1 CALLDATASIZE SWAP1 PUSH1 0x4 ADD PUSH2 0x1B16 JUMP JUMPDEST PUSH1 0x40 MLOAD DUP2 MLOAD PUSH1 0x24 CALLDATALOAD SWAP3 PUSH1 0x20 SWAP2 DUP4 SWAP2 DUP2 SWAP1 DUP5 ADD DUP4 MCOPY DUP2 ADD PUSH1 0x4 DUP2 MSTORE SUB ADD SWAP1 KECCAK256 SWAP1 DUP2 SLOAD DUP2 LT ISZERO PUSH2 0x230 JUMPI PUSH2 0x1719 SWAP2 PUSH0 MSTORE PUSH1 0x20 PUSH0 KECCAK256 SWAP1 PUSH1 0x1 SHL ADD PUSH1 0xFF PUSH1 0x1 PUSH2 0x1701 DUP4 PUSH2 0x1BA3 JUMP JUMPDEST SWAP3 ADD SLOAD AND PUSH1 0x40 MLOAD SWAP3 DUP4 SWAP3 PUSH1 0x40 DUP5 MSTORE PUSH1 0x40 DUP5 ADD SWAP1 PUSH2 0x1C43 JUMP JUMPDEST SWAP1 PUSH1 0x20 DUP4 ADD MSTORE SUB SWAP1 RETURN JUMPDEST CALLVALUE PUSH2 0x230 JUMPI PUSH1 0x20 CALLDATASIZE PUSH1 0x3 NOT ADD SLT PUSH2 0x230 JUMPI PUSH1 0x4 CALLDATALOAD PUSH1 0x1 PUSH1 0x1 PUSH1 0x40 SHL SUB DUP2 GT PUSH2 0x230 JUMPI PUSH2 0x175E PUSH2 0x1759 PUSH2 0x386 SWAP3 CALLDATASIZE SWAP1 PUSH1 0x4 ADD PUSH2 0x1B16 JUMP JUMPDEST PUSH2 0x20FA JUMP JUMPDEST PUSH1 0x40 MLOAD SWAP2 DUP3 SWAP2 PUSH1 0x20 DUP4 MSTORE PUSH1 0x20 DUP4 ADD SWAP1 PUSH2 0x1C43 JUMP JUMPDEST CALLVALUE PUSH2 0x230 JUMPI PUSH1 0x20 CALLDATASIZE PUSH1 0x3 NOT ADD SLT PUSH2 0x230 JUMPI PUSH1 0x4 CALLDATALOAD PUSH1 0x1 PUSH1 0x1 PUSH1 0x40 SHL SUB DUP2 GT PUSH2 0x230 JUMPI PUSH1 0x20 DUP1 PUSH2 0x17A8 PUSH2 0x1850 SWAP4 CALLDATASIZE SWAP1 PUSH1 0x4 ADD PUSH2 0x1B16 JUMP JUMPDEST PUSH1 0x60 DUP1 PUSH1 0x40 MLOAD PUSH2 0x17B7 DUP2 PUSH2 0x1A88 JUMP JUMPDEST DUP2 DUP2 MSTORE DUP2 DUP6 DUP3 ADD MSTORE PUSH0 PUSH1 0x40 DUP3 ADD MSTORE ADD MSTORE PUSH1 0x40 MLOAD SWAP3 DUP2 DUP5 SWAP3 MLOAD SWAP2 DUP3 SWAP2 ADD DUP4 MCOPY DUP2 ADD PUSH1 0x3 DUP2 MSTORE SUB ADD SWAP1 KECCAK256 PUSH2 0x386 PUSH1 0x40 MLOAD SWAP2 PUSH2 0x17EF DUP4 PUSH2 0x1A88 JUMP JUMPDEST PUSH2 0x17F8 DUP2 PUSH2 0x1BA3 JUMP JUMPDEST DUP4 MSTORE PUSH2 0x1806 PUSH1 0x1 DUP3 ADD PUSH2 0x1BA3 JUMP JUMPDEST PUSH1 0x20 DUP5 ADD SWAP1 DUP2 MSTORE PUSH1 0xFF PUSH2 0x1863 PUSH2 0x182C PUSH1 0x3 DUP4 PUSH1 0x2 DUP8 ADD SLOAD AND SWAP6 PUSH1 0x40 DUP10 ADD SWAP7 DUP8 MSTORE ADD PUSH2 0x1BA3 JUMP JUMPDEST SWAP3 PUSH1 0x60 DUP8 ADD SWAP4 DUP5 MSTORE PUSH1 0x40 MLOAD SWAP8 DUP9 SWAP8 PUSH1 0x20 DUP10 MSTORE MLOAD PUSH1 0x80 PUSH1 0x20 DUP11 ADD MSTORE PUSH1 0xA0 DUP10 ADD SWAP1 PUSH2 0x1C43 JUMP JUMPDEST SWAP1 MLOAD DUP8 DUP3 SUB PUSH1 0x1F NOT ADD PUSH1 0x40 DUP10 ADD MSTORE PUSH2 0x1C43 JUMP JUMPDEST SWAP3 MLOAD AND PUSH1 0x60 DUP6 ADD MSTORE MLOAD DUP4 DUP3 SUB PUSH1 0x1F NOT ADD PUSH1 0x80 DUP6 ADD MSTORE PUSH2 0x1C43 JUMP JUMPDEST CALLVALUE PUSH2 0x230 JUMPI PUSH1 0x20 CALLDATASIZE PUSH1 0x3 NOT ADD SLT PUSH2 0x230 JUMPI PUSH1 0x4 CALLDATALOAD PUSH1 0x1 PUSH1 0x1 PUSH1 0x40 SHL SUB DUP2 GT PUSH2 0x230 JUMPI PUSH1 0x20 DUP1 PUSH2 0x18B3 PUSH2 0x1910 SWAP4 CALLDATASIZE SWAP1 PUSH1 0x4 ADD PUSH2 0x1B16 JUMP JUMPDEST PUSH1 0x40 MLOAD SWAP3 DUP2 DUP5 SWAP3 MLOAD SWAP2 DUP3 SWAP2 ADD DUP4 MCOPY DUP2 ADD PUSH1 0x3 DUP2 MSTORE SUB ADD SWAP1 KECCAK256 PUSH2 0x386 PUSH2 0x18D7 DUP3 PUSH2 0x1BA3 JUMP JUMPDEST SWAP2 PUSH2 0x18E4 PUSH1 0x1 DUP3 ADD PUSH2 0x1BA3 JUMP JUMPDEST PUSH2 0x191E PUSH2 0x18FB PUSH1 0x3 PUSH1 0xFF PUSH1 0x2 DUP7 ADD SLOAD AND SWAP5 ADD PUSH2 0x1BA3 JUMP JUMPDEST SWAP2 PUSH1 0x40 MLOAD SWAP7 DUP8 SWAP7 PUSH1 0x80 DUP9 MSTORE PUSH1 0x80 DUP9 ADD SWAP1 PUSH2 0x1C43 JUMP JUMPDEST SWAP1 DUP7 DUP3 SUB PUSH1 0x20 DUP9 ADD MSTORE PUSH2 0x1C43 JUMP JUMPDEST SWAP2 PUSH1 0x40 DUP6 ADD MSTORE DUP4 DUP3 SUB PUSH1 0x60 DUP6 ADD MSTORE PUSH2 0x1C43 JUMP JUMPDEST CALLVALUE PUSH2 0x230 JUMPI PUSH0 CALLDATASIZE PUSH1 0x3 NOT ADD SLT PUSH2 0x230 JUMPI PUSH1 0x2 SLOAD PUSH2 0x194D DUP2 PUSH2 0x1FD1 JUMP JUMPDEST SWAP1 PUSH0 DUP1 JUMPDEST DUP3 DUP3 LT PUSH2 0x1966 JUMPI PUSH1 0x40 MLOAD DUP1 PUSH2 0x386 DUP7 DUP3 PUSH2 0x1CB2 JUMP JUMPDEST PUSH2 0x1991 PUSH1 0x1 SWAP2 PUSH2 0x161C PUSH2 0x197B PUSH2 0x1600 DUP7 PUSH2 0x1F3C JUMP JUMPDEST PUSH1 0xFF DUP4 AND SWAP1 PUSH2 0x198A DUP3 DUP11 PUSH2 0x2048 JUMP JUMPDEST MSTORE DUP8 PUSH2 0x2048 JUMP JUMPDEST SWAP2 ADD SWAP1 PUSH2 0x1951 JUMP JUMPDEST CALLVALUE PUSH2 0x230 JUMPI PUSH1 0x20 CALLDATASIZE PUSH1 0x3 NOT ADD SLT PUSH2 0x230 JUMPI PUSH1 0x4 CALLDATALOAD PUSH1 0x1 PUSH1 0x1 PUSH1 0x40 SHL SUB DUP2 GT PUSH2 0x230 JUMPI PUSH2 0x19CC PUSH2 0x22E SWAP2 CALLDATASIZE SWAP1 PUSH1 0x4 ADD PUSH2 0x1B16 JUMP JUMPDEST PUSH2 0x1F8C JUMP JUMPDEST CALLVALUE PUSH2 0x230 JUMPI PUSH1 0x20 CALLDATASIZE PUSH1 0x3 NOT ADD SLT PUSH2 0x230 JUMPI PUSH1 0x4 CALLDATALOAD PUSH1 0x1 PUSH1 0x1 PUSH1 0x40 SHL SUB DUP2 GT PUSH2 0x230 JUMPI PUSH2 0x54A PUSH1 0x5 PUSH1 0x20 DUP1 PUSH2 0x1A0C PUSH2 0x386 SWAP6 CALLDATASIZE SWAP1 PUSH1 0x4 ADD PUSH2 0x1B16 JUMP JUMPDEST PUSH2 0x1A14 PUSH2 0x1F6C JUMP JUMPDEST POP PUSH1 0x40 MLOAD SWAP3 DUP2 DUP5 SWAP3 MLOAD SWAP2 DUP3 SWAP2 ADD DUP4 MCOPY DUP2 ADD PUSH0 DUP2 MSTORE SUB ADD SWAP1 KECCAK256 ADD PUSH2 0x1E07 JUMP JUMPDEST CALLVALUE PUSH2 0x230 JUMPI PUSH1 0x20 CALLDATASIZE PUSH1 0x3 NOT ADD SLT PUSH2 0x230 JUMPI PUSH1 0x4 CALLDATALOAD PUSH1 0x1 PUSH1 0x1 PUSH1 0x40 SHL SUB DUP2 GT PUSH2 0x230 JUMPI PUSH2 0x175E PUSH1 0x20 DUP1 PUSH2 0x1A6B PUSH2 0x386 SWAP5 CALLDATASIZE SWAP1 PUSH1 0x4 ADD PUSH2 0x1B16 JUMP JUMPDEST PUSH1 0x40 MLOAD SWAP3 DUP2 DUP5 SWAP3 MLOAD SWAP2 DUP3 SWAP2 ADD DUP4 MCOPY DUP2 ADD PUSH1 0x1 DUP2 MSTORE SUB ADD SWAP1 KECCAK256 PUSH2 0x1BA3 JUMP JUMPDEST PUSH1 0x80 DUP2 ADD SWAP1 DUP2 LT PUSH1 0x1 PUSH1 0x1 PUSH1 0x40 SHL SUB DUP3 GT OR PUSH2 0x8DA JUMPI PUSH1 0x40 MSTORE JUMP JUMPDEST PUSH1 0xC0 DUP2 ADD SWAP1 DUP2 LT PUSH1 0x1 PUSH1 0x1 PUSH1 0x40 SHL SUB DUP3 GT OR PUSH2 0x8DA JUMPI PUSH1 0x40 MSTORE JUMP JUMPDEST PUSH1 0x60 DUP2 ADD SWAP1 DUP2 LT PUSH1 0x1 PUSH1 0x1 PUSH1 0x40 SHL SUB DUP3 GT OR PUSH2 0x8DA JUMPI PUSH1 0x40 MSTORE JUMP JUMPDEST PUSH2 0x100 DUP2 ADD SWAP1 DUP2 LT PUSH1 0x1 PUSH1 0x1 PUSH1 0x40 SHL SUB DUP3 GT OR PUSH2 0x8DA JUMPI PUSH1 0x40 MSTORE JUMP JUMPDEST SWAP1 PUSH1 0x1F DUP1 NOT SWAP2 ADD AND DUP2 ADD SWAP1 DUP2 LT PUSH1 0x1 PUSH1 0x1 PUSH1 0x40 SHL SUB DUP3 GT OR PUSH2 0x8DA JUMPI PUSH1 0x40 MSTORE JUMP JUMPDEST DUP2 PUSH1 0x1F DUP3 ADD SLT ISZERO PUSH2 0x230 JUMPI DUP1 CALLDATALOAD SWAP1 PUSH1 0x1 PUSH1 0x1 PUSH1 0x40 SHL SUB DUP3 GT PUSH2 0x8DA JUMPI PUSH1 0x40 MLOAD SWAP3 PUSH2 0x1B4A PUSH1 0x1F DUP5 ADD PUSH1 0x1F NOT AND PUSH1 0x20 ADD DUP6 PUSH2 0x1AF5 JUMP JUMPDEST DUP3 DUP5 MSTORE PUSH1 0x20 DUP4 DUP4 ADD ADD GT PUSH2 0x230 JUMPI DUP2 PUSH0 SWAP3 PUSH1 0x20 DUP1 SWAP4 ADD DUP4 DUP7 ADD CALLDATACOPY DUP4 ADD ADD MSTORE SWAP1 JUMP JUMPDEST SWAP1 PUSH1 0x1 DUP3 DUP2 SHR SWAP3 AND DUP1 ISZERO PUSH2 0x1B99 JUMPI JUMPDEST PUSH1 0x20 DUP4 LT EQ PUSH2 0x1B85 JUMPI JUMP JUMPDEST PUSH4 0x4E487B71 PUSH1 0xE0 SHL PUSH0 MSTORE PUSH1 0x22 PUSH1 0x4 MSTORE PUSH1 0x24 PUSH0 REVERT JUMPDEST SWAP2 PUSH1 0x7F AND SWAP2 PUSH2 0x1B7A JUMP JUMPDEST SWAP1 PUSH1 0x40 MLOAD SWAP2 DUP3 PUSH0 DUP3 SLOAD SWAP3 PUSH2 0x1BB6 DUP5 PUSH2 0x1B6B JUMP JUMPDEST DUP1 DUP5 MSTORE SWAP4 PUSH1 0x1 DUP2 AND SWAP1 DUP2 ISZERO PUSH2 0x1C21 JUMPI POP PUSH1 0x1 EQ PUSH2 0x1BDD JUMPI JUMPDEST POP PUSH2 0x1BDB SWAP3 POP SUB DUP4 PUSH2 0x1AF5 JUMP JUMPDEST JUMP JUMPDEST SWAP1 POP PUSH0 SWAP3 SWAP2 SWAP3 MSTORE PUSH1 0x20 PUSH0 KECCAK256 SWAP1 PUSH0 SWAP2 JUMPDEST DUP2 DUP4 LT PUSH2 0x1C05 JUMPI POP POP SWAP1 PUSH1 0x20 PUSH2 0x1BDB SWAP3 DUP3 ADD ADD PUSH0 PUSH2 0x1BCE JUMP JUMPDEST PUSH1 0x20 SWAP2 SWAP4 POP DUP1 PUSH1 0x1 SWAP2 SLOAD DUP4 DUP6 DUP10 ADD ADD MSTORE ADD SWAP2 ADD SWAP1 SWAP2 DUP5 SWAP3 PUSH2 0x1BEC JUMP JUMPDEST SWAP1 POP PUSH1 0x20 SWAP3 POP PUSH2 0x1BDB SWAP5 SWAP2 POP PUSH1 0xFF NOT AND DUP3 DUP5 ADD MSTORE ISZERO ISZERO PUSH1 0x5 SHL DUP3 ADD ADD PUSH0 PUSH2 0x1BCE JUMP JUMPDEST DUP1 MLOAD DUP1 DUP4 MSTORE PUSH1 0x20 SWAP3 SWAP2 DUP2 SWAP1 DUP5 ADD DUP5 DUP5 ADD MCOPY PUSH0 DUP3 DUP3 ADD DUP5 ADD MSTORE PUSH1 0x1F ADD PUSH1 0x1F NOT AND ADD ADD SWAP1 JUMP JUMPDEST SWAP1 PUSH1 0x40 PUSH2 0x1C92 PUSH2 0x1C80 DUP5 MLOAD PUSH1 0x60 DUP6 MSTORE PUSH1 0x60 DUP6 ADD SWAP1 PUSH2 0x1C43 JUMP JUMPDEST PUSH1 0x20 DUP6 ADD MLOAD DUP5 DUP3 SUB PUSH1 0x20 DUP7 ADD MSTORE PUSH2 0x1C43 JUMP JUMPDEST SWAP3 DUP2 ADD MLOAD PUSH1 0x1 PUSH1 0x1 PUSH1 0xA0 SHL SUB AND SWAP2 ADD MSTORE SWAP1 JUMP JUMPDEST SWAP1 PUSH1 0x4 DUP3 LT ISZERO PUSH2 0xF72 JUMPI MSTORE JUMP JUMPDEST PUSH1 0x20 DUP2 ADD PUSH1 0x20 DUP3 MSTORE DUP3 MLOAD DUP1 SWAP2 MSTORE PUSH1 0x40 DUP3 ADD SWAP2 PUSH1 0x20 PUSH1 0x40 DUP4 PUSH1 0x5 SHL DUP4 ADD ADD SWAP5 ADD SWAP3 PUSH0 SWAP2 JUMPDEST DUP4 DUP4 LT PUSH2 0x1CE4 JUMPI POP POP POP POP POP SWAP1 JUMP JUMPDEST SWAP1 SWAP2 SWAP3 SWAP4 SWAP5 PUSH1 0x20 DUP1 PUSH2 0x1D6B PUSH1 0x1 SWAP4 PUSH1 0x3F NOT DUP7 DUP3 SUB ADD DUP8 MSTORE DUP10 MLOAD SWAP1 PUSH1 0xA0 PUSH2 0x1D3B PUSH2 0x1D29 PUSH2 0x1D19 DUP6 MLOAD PUSH1 0xC0 DUP7 MSTORE PUSH1 0xC0 DUP7 ADD SWAP1 PUSH2 0x1C43 JUMP JUMPDEST DUP8 DUP7 ADD MLOAD DUP6 DUP3 SUB DUP10 DUP8 ADD MSTORE PUSH2 0x1C43 JUMP JUMPDEST PUSH1 0x40 DUP6 ADD MLOAD DUP5 DUP3 SUB PUSH1 0x40 DUP7 ADD MSTORE PUSH2 0x1C43 JUMP JUMPDEST SWAP3 PUSH1 0xFF PUSH1 0x60 DUP3 ADD MLOAD AND PUSH1 0x60 DUP5 ADD MSTORE PUSH2 0x1D5B PUSH1 0x80 DUP3 ADD MLOAD PUSH1 0x80 DUP6 ADD SWAP1 PUSH2 0x1CA5 JUMP JUMPDEST ADD MLOAD SWAP1 PUSH1 0xA0 DUP2 DUP5 SUB SWAP2 ADD MSTORE PUSH2 0x1C43 JUMP JUMPDEST SWAP8 ADD SWAP4 ADD SWAP4 ADD SWAP2 SWAP4 SWAP3 SWAP1 PUSH2 0x1CD5 JUMP JUMPDEST SWAP1 PUSH2 0x1E04 SWAP2 PUSH1 0x20 DUP2 MSTORE PUSH2 0x1D91 PUSH1 0x20 DUP3 ADD DUP4 MLOAD PUSH2 0x1CA5 JUMP JUMPDEST PUSH1 0x20 DUP3 ADD MLOAD PUSH1 0x40 DUP3 ADD MSTORE PUSH1 0x40 DUP3 ADD MLOAD PUSH1 0x60 DUP3 ADD MSTORE PUSH1 0x60 DUP3 ADD MLOAD PUSH1 0x80 DUP3 ADD MSTORE PUSH1 0x80 DUP3 ADD MLOAD PUSH1 0xA0 DUP3 ADD MSTORE PUSH1 0xE0 PUSH2 0x1DEE PUSH2 0x1DD9 PUSH1 0xA0 DUP6 ADD MLOAD PUSH2 0x100 PUSH1 0xC0 DUP7 ADD MSTORE PUSH2 0x120 DUP6 ADD SWAP1 PUSH2 0x1C67 JUMP JUMPDEST PUSH1 0xC0 DUP6 ADD MLOAD DUP5 DUP3 SUB PUSH1 0x1F NOT ADD DUP5 DUP7 ADD MSTORE PUSH2 0x1C67 JUMP JUMPDEST SWAP3 ADD MLOAD SWAP1 PUSH2 0x100 PUSH1 0x1F NOT DUP3 DUP6 SUB ADD SWAP2 ADD MSTORE PUSH2 0x1C43 JUMP JUMPDEST SWAP1 JUMP JUMPDEST SWAP1 PUSH1 0x40 MLOAD PUSH2 0x1E14 DUP2 PUSH2 0x1ABE JUMP JUMPDEST PUSH1 0x40 DUP2 SWAP4 PUSH2 0x1E21 DUP2 PUSH2 0x1BA3 JUMP JUMPDEST DUP4 MSTORE PUSH2 0x1E2F PUSH1 0x1 DUP3 ADD PUSH2 0x1BA3 JUMP JUMPDEST PUSH1 0x20 DUP5 ADD MSTORE PUSH1 0x2 ADD SLOAD PUSH1 0x1 PUSH1 0x1 PUSH1 0xA0 SHL SUB AND SWAP2 ADD MSTORE JUMP JUMPDEST PUSH1 0x84 CALLDATALOAD SWAP1 PUSH1 0x1 PUSH1 0x1 PUSH1 0xA0 SHL SUB DUP3 AND DUP3 SUB PUSH2 0x230 JUMPI JUMP JUMPDEST SWAP2 SWAP1 PUSH1 0x60 DUP4 DUP3 SUB SLT PUSH2 0x230 JUMPI PUSH1 0x40 MLOAD SWAP1 PUSH2 0x1E75 DUP3 PUSH2 0x1ABE JUMP JUMPDEST DUP2 SWAP4 DUP1 CALLDATALOAD PUSH1 0x1 PUSH1 0x1 PUSH1 0x40 SHL SUB DUP2 GT PUSH2 0x230 JUMPI DUP3 PUSH2 0x1E93 SWAP2 DUP4 ADD PUSH2 0x1B16 JUMP JUMPDEST DUP4 MSTORE PUSH1 0x20 DUP2 ADD CALLDATALOAD PUSH1 0x1 PUSH1 0x1 PUSH1 0x40 SHL SUB DUP2 GT PUSH2 0x230 JUMPI PUSH1 0x40 SWAP3 PUSH2 0x1EB6 SWAP2 DUP4 ADD PUSH2 0x1B16 JUMP JUMPDEST PUSH1 0x20 DUP5 ADD MSTORE ADD CALLDATALOAD SWAP1 PUSH1 0x1 PUSH1 0x1 PUSH1 0xA0 SHL SUB DUP3 AND DUP3 SUB PUSH2 0x230 JUMPI PUSH1 0x40 ADD MSTORE JUMP JUMPDEST PUSH1 0x60 PUSH1 0x3 NOT DUP3 ADD SLT PUSH2 0x230 JUMPI PUSH1 0x4 CALLDATALOAD PUSH1 0x1 PUSH1 0x1 PUSH1 0x40 SHL SUB DUP2 GT PUSH2 0x230 JUMPI DUP2 PUSH2 0x1EFE SWAP2 PUSH1 0x4 ADD PUSH2 0x1B16 JUMP JUMPDEST SWAP2 PUSH1 0x24 CALLDATALOAD PUSH1 0x1 PUSH1 0x1 PUSH1 0x40 SHL SUB DUP2 GT PUSH2 0x230 JUMPI DUP3 PUSH2 0x1F1D SWAP2 PUSH1 0x4 ADD PUSH2 0x1B16 JUMP JUMPDEST SWAP2 PUSH1 0x44 CALLDATALOAD SWAP1 PUSH1 0x1 PUSH1 0x1 PUSH1 0x40 SHL SUB DUP3 GT PUSH2 0x230 JUMPI PUSH2 0x1E04 SWAP2 PUSH1 0x4 ADD PUSH2 0x1E5C JUMP JUMPDEST PUSH1 0x2 SLOAD DUP2 LT ISZERO PUSH2 0x1F58 JUMPI PUSH1 0x2 PUSH0 MSTORE PUSH1 0x5 PUSH1 0x20 PUSH0 KECCAK256 SWAP2 MUL ADD SWAP1 PUSH0 SWAP1 JUMP JUMPDEST PUSH4 0x4E487B71 PUSH1 0xE0 SHL PUSH0 MSTORE PUSH1 0x32 PUSH1 0x4 MSTORE PUSH1 0x24 PUSH0 REVERT JUMPDEST PUSH1 0x40 MLOAD SWAP1 PUSH2 0x1F79 DUP3 PUSH2 0x1ABE JUMP JUMPDEST PUSH0 PUSH1 0x40 DUP4 PUSH1 0x60 DUP2 MSTORE PUSH1 0x60 PUSH1 0x20 DUP3 ADD MSTORE ADD MSTORE JUMP JUMPDEST PUSH1 0x20 DUP1 SWAP2 PUSH1 0x40 MLOAD SWAP3 DUP2 DUP5 SWAP3 MLOAD SWAP2 DUP3 SWAP2 ADD DUP4 MCOPY DUP2 ADD PUSH0 DUP2 MSTORE SUB ADD SWAP1 KECCAK256 TIMESTAMP PUSH1 0x4 DUP3 ADD SSTORE PUSH1 0x3 PUSH1 0xFF NOT DUP3 SLOAD AND OR SWAP1 SSTORE JUMP JUMPDEST PUSH1 0x1 PUSH1 0x1 PUSH1 0x40 SHL SUB DUP2 GT PUSH2 0x8DA JUMPI PUSH1 0x5 SHL PUSH1 0x20 ADD SWAP1 JUMP JUMPDEST SWAP1 PUSH2 0x1FDB DUP3 PUSH2 0x1FBA JUMP JUMPDEST PUSH2 0x1FE8 PUSH1 0x40 MLOAD SWAP2 DUP3 PUSH2 0x1AF5 JUMP JUMPDEST DUP3 DUP2 MSTORE DUP1 SWAP3 PUSH2 0x1FF9 PUSH1 0x1F NOT SWAP2 PUSH2 0x1FBA JUMP JUMPDEST ADD SWAP1 PUSH0 JUMPDEST DUP3 DUP2 LT PUSH2 0x2009 JUMPI POP POP POP JUMP JUMPDEST PUSH1 0x20 SWAP1 PUSH1 0x40 MLOAD PUSH2 0x2018 DUP2 PUSH2 0x1AA3 JUMP JUMPDEST PUSH1 0x60 DUP2 MSTORE PUSH1 0x60 DUP4 DUP3 ADD MSTORE PUSH1 0x60 PUSH1 0x40 DUP3 ADD MSTORE PUSH0 PUSH1 0x60 DUP3 ADD MSTORE PUSH0 PUSH1 0x80 DUP3 ADD MSTORE PUSH1 0x60 PUSH1 0xA0 DUP3 ADD MSTORE DUP3 DUP3 DUP6 ADD ADD MSTORE ADD PUSH2 0x1FFD JUMP JUMPDEST DUP1 MLOAD DUP3 LT ISZERO PUSH2 0x1F58 JUMPI PUSH1 0x20 SWAP2 PUSH1 0x5 SHL ADD ADD SWAP1 JUMP JUMPDEST PUSH1 0x4 DUP3 LT ISZERO PUSH2 0xF72 JUMPI MSTORE JUMP JUMPDEST SWAP1 PUSH1 0x40 MLOAD PUSH2 0x2075 DUP2 PUSH2 0x1AA3 JUMP JUMPDEST PUSH1 0xA0 PUSH2 0x20D0 PUSH1 0x4 DUP4 SWAP6 PUSH2 0x2087 DUP2 PUSH2 0x1BA3 JUMP JUMPDEST DUP6 MSTORE PUSH2 0x2095 PUSH1 0x1 DUP3 ADD PUSH2 0x1BA3 JUMP JUMPDEST PUSH1 0x20 DUP7 ADD MSTORE PUSH2 0x20A6 PUSH1 0x2 DUP3 ADD PUSH2 0x1BA3 JUMP JUMPDEST PUSH1 0x40 DUP7 ADD MSTORE PUSH2 0x20CA PUSH1 0xFF PUSH1 0x3 DUP4 ADD SLOAD DUP2 DUP2 AND PUSH1 0x60 DUP10 ADD MSTORE PUSH1 0x8 SHR AND PUSH1 0x80 DUP8 ADD PUSH2 0x205C JUMP JUMPDEST ADD PUSH2 0x1BA3 JUMP JUMPDEST SWAP2 ADD MSTORE JUMP JUMPDEST PUSH1 0xFF AND PUSH1 0xFF DUP2 EQ PUSH2 0x20E6 JUMPI PUSH1 0x1 ADD SWAP1 JUMP JUMPDEST PUSH4 0x4E487B71 PUSH1 0xE0 SHL PUSH0 MSTORE PUSH1 0x11 PUSH1 0x4 MSTORE PUSH1 0x24 PUSH0 REVERT JUMPDEST PUSH1 0x40 MLOAD DUP2 MLOAD PUSH2 0x1E04 SWAP3 PUSH1 0x20 SWAP2 DUP4 SWAP2 DUP2 SWAP1 DUP5 ADD DUP4 MCOPY DUP2 ADD PUSH1 0x1 DUP2 MSTORE SUB ADD SWAP1 KECCAK256 PUSH2 0x1BA3 JUMP JUMPDEST PUSH0 SWAP3 SWAP2 DUP2 SLOAD SWAP2 PUSH2 0x212C DUP4 PUSH2 0x1B6B JUMP JUMPDEST SWAP3 PUSH1 0x1 DUP2 AND SWAP1 DUP2 ISZERO PUSH2 0x2174 JUMPI POP PUSH1 0x1 EQ PUSH2 0x2145 JUMPI POP POP POP JUMP JUMPDEST SWAP1 SWAP2 SWAP3 SWAP4 POP PUSH0 MSTORE PUSH1 0x20 PUSH0 KECCAK256 PUSH0 SWAP1 JUMPDEST DUP4 DUP3 LT PUSH2 0x2160 JUMPI POP POP ADD SWAP1 JUMP JUMPDEST PUSH1 0x1 DUP2 PUSH1 0x20 SWAP3 SLOAD DUP5 DUP7 ADD MSTORE ADD SWAP2 ADD SWAP1 PUSH2 0x2153 JUMP JUMPDEST PUSH1 0xFF NOT AND DUP4 MSTORE POP POP DUP2 ISZERO ISZERO SWAP1 SWAP2 MUL ADD SWAP2 POP JUMP JUMPDEST PUSH1 0x40 MLOAD SWAP1 PUSH2 0x2194 DUP3 PUSH2 0x1AD9 JUMP JUMPDEST PUSH1 0x60 PUSH1 0xE0 DUP4 PUSH0 DUP2 MSTORE PUSH0 PUSH1 0x20 DUP3 ADD MSTORE PUSH0 PUSH1 0x40 DUP3 ADD MSTORE PUSH0 DUP4 DUP3 ADD MSTORE PUSH0 PUSH1 0x80 DUP3 ADD MSTORE PUSH2 0x21BB PUSH2 0x1F6C JUMP JUMPDEST PUSH1 0xA0 DUP3 ADD MSTORE PUSH2 0x21C8 PUSH2 0x1F6C JUMP JUMPDEST PUSH1 0xC0 DUP3 ADD MSTORE ADD MSTORE JUMP JUMPDEST PUSH1 0x20 DUP1 SWAP2 PUSH2 0x21DD PUSH2 0x2187 JUMP JUMPDEST POP PUSH1 0x40 MLOAD SWAP3 DUP2 DUP5 SWAP3 MLOAD SWAP2 DUP3 SWAP2 ADD DUP4 MCOPY DUP2 ADD PUSH0 DUP2 MSTORE SUB ADD SWAP1 KECCAK256 PUSH2 0x2265 PUSH1 0xB PUSH1 0x40 MLOAD SWAP3 PUSH2 0x2207 DUP5 PUSH2 0x1AD9 JUMP JUMPDEST PUSH2 0x2215 PUSH1 0xFF DUP3 SLOAD AND DUP6 PUSH2 0x205C JUMP JUMPDEST PUSH1 0x1 DUP2 ADD SLOAD PUSH1 0x20 DUP6 ADD MSTORE PUSH1 0x2 DUP2 ADD SLOAD PUSH1 0x40 DUP6 ADD MSTORE PUSH1 0x3 DUP2 ADD SLOAD PUSH1 0x60 DUP6 ADD MSTORE PUSH1 0x4 DUP2 ADD SLOAD PUSH1 0x80 DUP6 ADD MSTORE PUSH2 0x2249 PUSH1 0x5 DUP3 ADD PUSH2 0x1E07 JUMP JUMPDEST PUSH1 0xA0 DUP6 ADD MSTORE PUSH2 0x225A PUSH1 0x8 DUP3 ADD PUSH2 0x1E07 JUMP JUMPDEST PUSH1 0xC0 DUP6 ADD MSTORE ADD PUSH2 0x1BA3 JUMP JUMPDEST PUSH1 0xE0 DUP3 ADD MSTORE SWAP1 JUMP JUMPDEST SWAP2 PUSH2 0x2276 PUSH2 0x1F6C JUMP JUMPDEST POP PUSH1 0x40 MLOAD SWAP3 PUSH2 0x2284 DUP5 PUSH2 0x1ABE JUMP JUMPDEST DUP4 MSTORE PUSH1 0x20 DUP4 ADD MSTORE PUSH1 0x1 PUSH1 0x1 PUSH1 0xA0 SHL SUB AND PUSH1 0x40 DUP3 ADD MSTORE SWAP1 JUMP JUMPDEST SWAP3 SWAP2 SWAP1 PUSH1 0x40 MLOAD PUSH1 0x20 DUP6 MLOAD SWAP2 DUP2 DUP2 DUP2 DUP10 ADD SWAP5 DUP1 DUP7 DUP4 MCOPY DUP2 ADD PUSH0 DUP2 MSTORE SUB ADD SWAP1 KECCAK256 SWAP6 PUSH1 0x40 MLOAD SWAP3 DUP4 SWAP2 MLOAD DUP1 SWAP2 DUP4 MCOPY DUP2 ADD PUSH1 0x1 DUP2 MSTORE SUB ADD SWAP1 KECCAK256 SWAP1 DUP1 MLOAD SWAP1 PUSH1 0x1 PUSH1 0x1 PUSH1 0x40 SHL SUB DUP3 GT PUSH2 0x8DA JUMPI DUP2 SWAP1 PUSH2 0x22EE DUP5 SLOAD PUSH2 0x1B6B JUMP JUMPDEST PUSH1 0x1F DUP2 GT PUSH2 0x25E9 JUMPI JUMPDEST POP PUSH1 0x20 SWAP1 PUSH1 0x1F DUP4 GT PUSH1 0x1 EQ PUSH2 0x2586 JUMPI PUSH0 SWAP3 PUSH2 0x257B JUMPI JUMPDEST POP POP DUP2 PUSH1 0x1 SHL SWAP2 PUSH0 NOT SWAP1 PUSH1 0x3 SHL SHR NOT AND OR SWAP1 SSTORE JUMPDEST DUP1 MLOAD DUP1 MLOAD PUSH1 0x8 DUP6 ADD SWAP2 PUSH1 0x1 PUSH1 0x1 PUSH1 0x40 SHL SUB DUP3 GT PUSH2 0x8DA JUMPI PUSH2 0x2342 DUP4 SLOAD PUSH2 0x1B6B JUMP JUMPDEST PUSH1 0x1F DUP2 GT PUSH2 0x2536 JUMPI JUMPDEST POP PUSH1 0x20 SWAP1 PUSH1 0x1F DUP4 GT PUSH1 0x1 EQ PUSH2 0x24CF JUMPI PUSH1 0x20 SWAP5 SWAP4 SWAP3 SWAP2 PUSH0 SWAP2 DUP4 PUSH2 0x24C4 JUMPI JUMPDEST POP POP DUP2 PUSH1 0x1 SHL SWAP2 PUSH0 NOT SWAP1 PUSH1 0x3 SHL SHR NOT AND OR SWAP1 SSTORE JUMPDEST PUSH1 0x40 DUP2 ADD MLOAD PUSH1 0xA DUP6 ADD DUP1 SLOAD PUSH1 0x1 PUSH1 0x1 PUSH1 0xA0 SHL SUB NOT AND PUSH1 0x1 PUSH1 0x1 PUSH1 0xA0 SHL SUB SWAP3 SWAP1 SWAP3 AND SWAP2 SWAP1 SWAP2 OR SWAP1 SSTORE ADD MLOAD DUP1 MLOAD SWAP1 SWAP3 SWAP1 PUSH1 0x9 DUP3 ADD SWAP1 PUSH1 0x1 PUSH1 0x1 PUSH1 0x40 SHL SUB DUP2 GT PUSH2 0x8DA JUMPI PUSH2 0x23C7 DUP3 SLOAD PUSH2 0x1B6B JUMP JUMPDEST PUSH1 0x1F DUP2 GT PUSH2 0x247F JUMPI JUMPDEST POP PUSH1 0x20 SWAP5 PUSH1 0x1F DUP3 GT PUSH1 0x1 EQ PUSH2 0x241E JUMPI SWAP5 DUP2 SWAP3 SWAP4 SWAP5 SWAP6 PUSH0 SWAP3 PUSH2 0x2413 JUMPI JUMPDEST POP POP DUP2 PUSH1 0x1 SHL SWAP2 PUSH0 NOT SWAP1 PUSH1 0x3 SHL SHR NOT AND OR SWAP1 SSTORE JUMPDEST TIMESTAMP PUSH1 0x3 DUP3 ADD SSTORE DUP1 SLOAD PUSH1 0xFF NOT AND PUSH1 0x2 OR SWAP1 SSTORE JUMP JUMPDEST ADD MLOAD SWAP1 POP PUSH0 DUP1 PUSH2 0x23EC JUMP JUMPDEST PUSH1 0x1F NOT DUP3 AND SWAP6 DUP4 PUSH0 MSTORE DUP1 PUSH0 KECCAK256 SWAP2 PUSH0 JUMPDEST DUP9 DUP2 LT PUSH2 0x2467 JUMPI POP DUP4 PUSH1 0x1 SWAP6 SWAP7 SWAP8 SWAP9 LT PUSH2 0x244F JUMPI JUMPDEST POP POP POP DUP2 SHL ADD SWAP1 SSTORE PUSH2 0x2400 JUMP JUMPDEST ADD MLOAD PUSH0 NOT PUSH1 0xF8 DUP5 PUSH1 0x3 SHL AND SHR NOT AND SWAP1 SSTORE PUSH0 DUP1 DUP1 PUSH2 0x2442 JUMP JUMPDEST SWAP2 SWAP3 PUSH1 0x20 PUSH1 0x1 DUP2 SWAP3 DUP7 DUP6 ADD MLOAD DUP2 SSTORE ADD SWAP5 ADD SWAP3 ADD PUSH2 0x242D JUMP JUMPDEST DUP3 PUSH0 MSTORE PUSH1 0x20 PUSH0 KECCAK256 PUSH1 0x1F DUP4 ADD PUSH1 0x5 SHR DUP2 ADD SWAP2 PUSH1 0x20 DUP5 LT PUSH2 0x24BA JUMPI JUMPDEST PUSH1 0x1F ADD PUSH1 0x5 SHR ADD SWAP1 JUMPDEST DUP2 DUP2 LT PUSH2 0x24AF JUMPI POP PUSH2 0x23D0 JUMP JUMPDEST PUSH0 DUP2 SSTORE PUSH1 0x1 ADD PUSH2 0x24A2 JUMP JUMPDEST SWAP1 SWAP2 POP DUP2 SWAP1 PUSH2 0x2499 JUMP JUMPDEST ADD MLOAD SWAP1 POP PUSH0 DUP1 PUSH2 0x2368 JUMP JUMPDEST SWAP1 PUSH1 0x1F NOT DUP4 AND SWAP2 DUP5 PUSH0 MSTORE DUP2 PUSH0 KECCAK256 SWAP3 PUSH0 JUMPDEST DUP2 DUP2 LT PUSH2 0x251E JUMPI POP SWAP2 PUSH1 0x1 SWAP4 SWAP2 DUP6 PUSH1 0x20 SWAP9 SWAP8 SWAP7 SWAP5 LT PUSH2 0x2506 JUMPI JUMPDEST POP POP POP DUP2 SHL ADD SWAP1 SSTORE PUSH2 0x237C JUMP JUMPDEST ADD MLOAD PUSH0 NOT PUSH1 0xF8 DUP5 PUSH1 0x3 SHL AND SHR NOT AND SWAP1 SSTORE PUSH0 DUP1 DUP1 PUSH2 0x24F9 JUMP JUMPDEST SWAP3 SWAP4 PUSH1 0x20 PUSH1 0x1 DUP2 SWAP3 DUP8 DUP7 ADD MLOAD DUP2 SSTORE ADD SWAP6 ADD SWAP4 ADD PUSH2 0x24DF JUMP JUMPDEST DUP4 PUSH0 MSTORE PUSH1 0x20 PUSH0 KECCAK256 PUSH1 0x1F DUP5 ADD PUSH1 0x5 SHR DUP2 ADD SWAP2 PUSH1 0x20 DUP6 LT PUSH2 0x2571 JUMPI JUMPDEST PUSH1 0x1F ADD PUSH1 0x5 SHR ADD SWAP1 JUMPDEST DUP2 DUP2 LT PUSH2 0x2566 JUMPI POP PUSH2 0x234B JUMP JUMPDEST PUSH0 DUP2 SSTORE PUSH1 0x1 ADD PUSH2 0x2559 JUMP JUMPDEST SWAP1 SWAP2 POP DUP2 SWAP1 PUSH2 0x2550 JUMP JUMPDEST ADD MLOAD SWAP1 POP PUSH0 DUP1 PUSH2 0x230D JUMP JUMPDEST PUSH0 DUP6 DUP2 MSTORE DUP3 DUP2 KECCAK256 SWAP4 POP PUSH1 0x1F NOT DUP6 AND SWAP1 JUMPDEST DUP2 DUP2 LT PUSH2 0x25D1 JUMPI POP SWAP1 DUP5 PUSH1 0x1 SWAP6 SWAP5 SWAP4 SWAP3 LT PUSH2 0x25B9 JUMPI JUMPDEST POP POP POP DUP2 SHL ADD SWAP1 SSTORE PUSH2 0x2321 JUMP JUMPDEST ADD MLOAD PUSH0 NOT PUSH1 0xF8 DUP5 PUSH1 0x3 SHL AND SHR NOT AND SWAP1 SSTORE PUSH0 DUP1 DUP1 PUSH2 0x25AC JUMP JUMPDEST SWAP3 SWAP4 PUSH1 0x20 PUSH1 0x1 DUP2 SWAP3 DUP8 DUP7 ADD MLOAD DUP2 SSTORE ADD SWAP6 ADD SWAP4 ADD PUSH2 0x2596 JUMP JUMPDEST SWAP1 SWAP2 POP DUP4 PUSH0 MSTORE PUSH1 0x20 PUSH0 KECCAK256 PUSH1 0x1F DUP5 ADD PUSH1 0x5 SHR DUP2 ADD SWAP2 PUSH1 0x20 DUP6 LT PUSH2 0x262F JUMPI JUMPDEST SWAP1 PUSH1 0x1F DUP6 SWAP5 SWAP4 SWAP3 ADD PUSH1 0x5 SHR ADD SWAP1 JUMPDEST DUP2 DUP2 LT PUSH2 0x2621 JUMPI POP PUSH2 0x22F7 JUMP JUMPDEST PUSH0 DUP2 SSTORE DUP5 SWAP4 POP PUSH1 0x1 ADD PUSH2 0x2614 JUMP JUMPDEST SWAP1 SWAP2 POP DUP2 SWAP1 PUSH2 0x2606 JUMP JUMPDEST PUSH1 0x20 DUP1 SWAP2 SWAP5 SWAP4 SWAP3 SWAP5 PUSH1 0x40 MLOAD SWAP3 DUP2 DUP5 SWAP3 MLOAD SWAP2 DUP3 SWAP2 ADD DUP4 MCOPY DUP2 ADD PUSH0 DUP2 MSTORE SUB ADD SWAP1 KECCAK256 SWAP1 DUP1 MLOAD PUSH1 0x8 DUP4 ADD SWAP1 DUP1 MLOAD SWAP1 PUSH1 0x1 PUSH1 0x1 PUSH1 0x40 SHL SUB DUP3 GT PUSH2 0x8DA JUMPI PUSH2 0x267B DUP4 SLOAD PUSH2 0x1B6B JUMP JUMPDEST PUSH1 0x1F DUP2 GT PUSH2 0x2971 JUMPI JUMPDEST POP PUSH1 0x20 SWAP1 PUSH1 0x1F DUP4 GT PUSH1 0x1 EQ PUSH2 0x290A JUMPI PUSH1 0x20 SWAP5 SWAP4 SWAP3 SWAP2 PUSH0 SWAP2 DUP4 PUSH2 0x28FF JUMPI JUMPDEST POP POP DUP2 PUSH1 0x1 SHL SWAP2 PUSH0 NOT SWAP1 PUSH1 0x3 SHL SHR NOT AND OR SWAP1 SSTORE JUMPDEST PUSH1 0x40 DUP2 ADD MLOAD PUSH1 0xA DUP5 ADD DUP1 SLOAD PUSH1 0x1 PUSH1 0x1 PUSH1 0xA0 SHL SUB NOT AND PUSH1 0x1 PUSH1 0x1 PUSH1 0xA0 SHL SUB SWAP3 SWAP1 SWAP3 AND SWAP2 SWAP1 SWAP2 OR SWAP1 SSTORE ADD MLOAD DUP1 MLOAD PUSH1 0x9 DUP4 ADD SWAP2 PUSH1 0x1 PUSH1 0x1 PUSH1 0x40 SHL SUB DUP3 GT PUSH2 0x8DA JUMPI PUSH2 0x26FD DUP4 SLOAD PUSH2 0x1B6B JUMP JUMPDEST PUSH1 0x1F DUP2 GT PUSH2 0x28BA JUMPI JUMPDEST POP PUSH1 0x20 SWAP1 PUSH1 0x1F DUP4 GT PUSH1 0x1 EQ PUSH2 0x2853 JUMPI PUSH1 0xB SWAP5 SWAP4 SWAP3 SWAP2 PUSH0 SWAP2 DUP4 PUSH2 0x2848 JUMPI JUMPDEST POP POP DUP2 PUSH1 0x1 SHL SWAP2 PUSH0 NOT SWAP1 PUSH1 0x3 SHL SHR NOT AND OR SWAP1 SSTORE JUMPDEST TIMESTAMP PUSH1 0x2 DUP3 ADD SSTORE PUSH1 0x1 PUSH1 0xFF NOT DUP3 SLOAD AND OR DUP2 SSTORE ADD DUP3 MLOAD PUSH1 0x1 PUSH1 0x1 PUSH1 0x40 SHL SUB DUP2 GT PUSH2 0x8DA JUMPI PUSH2 0x2763 DUP3 SLOAD PUSH2 0x1B6B JUMP JUMPDEST PUSH1 0x1F DUP2 GT PUSH2 0x2803 JUMPI JUMPDEST POP PUSH1 0x20 PUSH1 0x1F DUP3 GT PUSH1 0x1 EQ PUSH2 0x27A5 JUMPI DUP2 SWAP3 SWAP4 SWAP5 PUSH0 SWAP3 PUSH2 0x279A JUMPI JUMPDEST POP POP DUP2 PUSH1 0x1 SHL SWAP2 PUSH0 NOT SWAP1 PUSH1 0x3 SHL SHR NOT AND OR SWAP1 SSTORE JUMP JUMPDEST ADD MLOAD SWAP1 POP PUSH0 DUP1 PUSH2 0x2785 JUMP JUMPDEST PUSH1 0x1F NOT DUP3 AND SWAP1 DUP4 PUSH0 MSTORE DUP1 PUSH0 KECCAK256 SWAP2 PUSH0 JUMPDEST DUP2 DUP2 LT PUSH2 0x27EB JUMPI POP SWAP6 DUP4 PUSH1 0x1 SWAP6 SWAP7 SWAP8 LT PUSH2 0x27D3 JUMPI JUMPDEST POP POP POP DUP2 SHL ADD SWAP1 SSTORE JUMP JUMPDEST ADD MLOAD PUSH0 NOT PUSH1 0xF8 DUP5 PUSH1 0x3 SHL AND SHR NOT AND SWAP1 SSTORE PUSH0 DUP1 DUP1 PUSH2 0x27C9 JUMP JUMPDEST SWAP2 SWAP3 PUSH1 0x20 PUSH1 0x1 DUP2 SWAP3 DUP7 DUP12 ADD MLOAD DUP2 SSTORE ADD SWAP5 ADD SWAP3 ADD PUSH2 0x27B4 JUMP JUMPDEST DUP3 PUSH0 MSTORE PUSH1 0x20 PUSH0 KECCAK256 PUSH1 0x1F DUP4 ADD PUSH1 0x5 SHR DUP2 ADD SWAP2 PUSH1 0x20 DUP5 LT PUSH2 0x283E JUMPI JUMPDEST PUSH1 0x1F ADD PUSH1 0x5 SHR ADD SWAP1 JUMPDEST DUP2 DUP2 LT PUSH2 0x2833 JUMPI POP PUSH2 0x276C JUMP JUMPDEST PUSH0 DUP2 SSTORE PUSH1 0x1 ADD PUSH2 0x2826 JUMP JUMPDEST SWAP1 SWAP2 POP DUP2 SWAP1 PUSH2 0x281D JUMP JUMPDEST ADD MLOAD SWAP1 POP PUSH0 DUP1 PUSH2 0x2723 JUMP JUMPDEST SWAP1 PUSH1 0x1F NOT DUP4 AND SWAP2 DUP5 PUSH0 MSTORE DUP2 PUSH0 KECCAK256 SWAP3 PUSH0 JUMPDEST DUP2 DUP2 LT PUSH2 0x28A2 JUMPI POP SWAP2 PUSH1 0x1 SWAP4 SWAP2 DUP6 PUSH1 0xB SWAP9 SWAP8 SWAP7 SWAP5 LT PUSH2 0x288A JUMPI JUMPDEST POP POP POP DUP2 SHL ADD SWAP1 SSTORE PUSH2 0x2737 JUMP JUMPDEST ADD MLOAD PUSH0 NOT PUSH1 0xF8 DUP5 PUSH1 0x3 SHL AND SHR NOT AND SWAP1 SSTORE PUSH0 DUP1 DUP1 PUSH2 0x287D JUMP JUMPDEST SWAP3 SWAP4 PUSH1 0x20 PUSH1 0x1 DUP2 SWAP3 DUP8 DUP7 ADD MLOAD DUP2 SSTORE ADD SWAP6 ADD SWAP4 ADD PUSH2 0x2863 JUMP JUMPDEST DUP4 PUSH0 MSTORE PUSH1 0x20 PUSH0 KECCAK256 PUSH1 0x1F DUP5 ADD PUSH1 0x5 SHR DUP2 ADD SWAP2 PUSH1 0x20 DUP6 LT PUSH2 0x28F5 JUMPI JUMPDEST PUSH1 0x1F ADD PUSH1 0x5 SHR ADD SWAP1 JUMPDEST DUP2 DUP2 LT PUSH2 0x28EA JUMPI POP PUSH2 0x2706 JUMP JUMPDEST PUSH0 DUP2 SSTORE PUSH1 0x1 ADD PUSH2 0x28DD JUMP JUMPDEST SWAP1 SWAP2 POP DUP2 SWAP1 PUSH2 0x28D4 JUMP JUMPDEST ADD MLOAD SWAP1 POP PUSH0 DUP1 PUSH2 0x26A1 JUMP JUMPDEST SWAP1 PUSH1 0x1F NOT DUP4 AND SWAP2 DUP5 PUSH0 MSTORE DUP2 PUSH0 KECCAK256 SWAP3 PUSH0 JUMPDEST DUP2 DUP2 LT PUSH2 0x2959 JUMPI POP SWAP2 PUSH1 0x1 SWAP4 SWAP2 DUP6 PUSH1 0x20 SWAP9 SWAP8 SWAP7 SWAP5 LT PUSH2 0x2941 JUMPI JUMPDEST POP POP POP DUP2 SHL ADD SWAP1 SSTORE PUSH2 0x26B5 JUMP JUMPDEST ADD MLOAD PUSH0 NOT PUSH1 0xF8 DUP5 PUSH1 0x3 SHL AND SHR NOT AND SWAP1 SSTORE PUSH0 DUP1 DUP1 PUSH2 0x2934 JUMP JUMPDEST SWAP3 SWAP4 PUSH1 0x20 PUSH1 0x1 DUP2 SWAP3 DUP8 DUP7 ADD MLOAD DUP2 SSTORE ADD SWAP6 ADD SWAP4 ADD PUSH2 0x291A JUMP JUMPDEST DUP4 PUSH0 MSTORE PUSH1 0x20 PUSH0 KECCAK256 PUSH1 0x1F DUP5 ADD PUSH1 0x5 SHR DUP2 ADD SWAP2 PUSH1 0x20 DUP6 LT PUSH2 0x29AC JUMPI JUMPDEST PUSH1 0x1F ADD PUSH1 0x5 SHR ADD SWAP1 JUMPDEST DUP2 DUP2 LT PUSH2 0x29A1 JUMPI POP PUSH2 0x2684 JUMP JUMPDEST PUSH0 DUP2 SSTORE PUSH1 0x1 ADD PUSH2 0x2994 JUMP JUMPDEST SWAP1 SWAP2 POP DUP2 SWAP1 PUSH2 0x298B JUMP JUMPDEST SWAP3 SWAP1 SWAP2 PUSH1 0x40 MLOAD PUSH2 0x29C5 DUP2 PUSH2 0x1AD9 JUMP JUMPDEST PUSH0 DUP2 MSTORE PUSH1 0x20 DUP2 ADD SWAP5 TIMESTAMP DUP7 MSTORE PUSH1 0x40 DUP3 ADD PUSH0 DUP2 MSTORE PUSH1 0x60 DUP4 ADD PUSH0 DUP2 MSTORE PUSH1 0x80 DUP5 ADD SWAP2 PUSH0 DUP4 MSTORE PUSH1 0xA0 DUP6 ADD SWAP4 DUP5 MSTORE PUSH1 0xC0 DUP6 ADD SWAP8 DUP9 MSTORE PUSH1 0x20 SWAP9 DUP10 DUP1 PUSH1 0x40 MLOAD SWAP9 PUSH2 0x2A07 DUP3 DUP12 PUSH2 0x1AF5 JUMP JUMPDEST PUSH0 DUP11 MSTORE PUSH1 0xE0 DUP10 ADD SWAP10 DUP11 MSTORE PUSH1 0x40 MLOAD SWAP3 DUP2 DUP5 SWAP3 MLOAD SWAP2 DUP3 SWAP2 ADD DUP4 MCOPY DUP2 ADD PUSH0 DUP2 MSTORE SUB ADD SWAP1 KECCAK256 SWAP6 MLOAD PUSH1 0x4 DUP2 LT ISZERO PUSH2 0xF72 JUMPI PUSH1 0xFF DUP1 NOT DUP9 SLOAD AND SWAP2 AND OR DUP7 SSTORE MLOAD PUSH1 0x1 DUP7 ADD SSTORE MLOAD PUSH1 0x2 DUP6 ADD SSTORE MLOAD PUSH1 0x3 DUP5 ADD SSTORE MLOAD PUSH1 0x4 DUP4 ADD SSTORE PUSH1 0x5 DUP3 ADD SWAP1 MLOAD SWAP1 DUP2 MLOAD DUP1 MLOAD SWAP1 PUSH1 0x1 PUSH1 0x1 PUSH1 0x40 SHL SUB DUP3 GT PUSH2 0x8DA JUMPI DUP2 SWAP1 PUSH2 0x2A7D DUP5 SLOAD PUSH2 0x1B6B JUMP JUMPDEST PUSH1 0x1F DUP2 GT PUSH2 0x2F8A JUMPI JUMPDEST POP DUP10 SWAP1 PUSH1 0x1F DUP4 GT PUSH1 0x1 EQ PUSH2 0x2F27 JUMPI PUSH0 SWAP3 PUSH2 0x2F1C JUMPI JUMPDEST POP POP DUP2 PUSH1 0x1 SHL SWAP2 PUSH0 NOT SWAP1 PUSH1 0x3 SHL SHR NOT AND OR SWAP1 SSTORE JUMPDEST PUSH1 0x6 DUP3 ADD DUP7 DUP3 ADD MLOAD DUP1 MLOAD SWAP1 PUSH1 0x1 PUSH1 0x1 PUSH1 0x40 SHL SUB DUP3 GT PUSH2 0x8DA JUMPI DUP2 SWAP1 PUSH2 0x2AD4 DUP5 SLOAD PUSH2 0x1B6B JUMP JUMPDEST PUSH1 0x1F DUP2 GT PUSH2 0x2ECE JUMPI JUMPDEST POP DUP10 SWAP1 PUSH1 0x1F DUP4 GT PUSH1 0x1 EQ PUSH2 0x2E6B JUMPI PUSH0 SWAP3 PUSH2 0x2E60 JUMPI JUMPDEST POP POP DUP2 PUSH1 0x1 SHL SWAP2 PUSH0 NOT SWAP1 PUSH1 0x3 SHL SHR NOT AND OR SWAP1 SSTORE JUMPDEST PUSH1 0x40 ADD MLOAD PUSH1 0x7 DUP3 ADD DUP1 SLOAD PUSH1 0x1 PUSH1 0x1 PUSH1 0xA0 SHL SUB NOT AND PUSH1 0x1 PUSH1 0x1 PUSH1 0xA0 SHL SUB SWAP3 SWAP1 SWAP3 AND SWAP2 SWAP1 SWAP2 OR SWAP1 SSTORE SWAP3 MLOAD DUP1 MLOAD DUP1 MLOAD SWAP2 SWAP5 SWAP2 PUSH1 0x8 DUP4 ADD SWAP2 PUSH1 0x1 PUSH1 0x1 PUSH1 0x40 SHL SUB DUP3 GT PUSH2 0x8DA JUMPI DUP2 SWAP1 PUSH2 0x2B54 DUP5 SLOAD PUSH2 0x1B6B JUMP JUMPDEST PUSH1 0x1F DUP2 GT PUSH2 0x2E12 JUMPI JUMPDEST POP DUP9 SWAP1 PUSH1 0x1F DUP4 GT PUSH1 0x1 EQ PUSH2 0x2DAF JUMPI PUSH0 SWAP3 PUSH2 0x2DA4 JUMPI JUMPDEST POP POP DUP2 PUSH1 0x1 SHL SWAP2 PUSH0 NOT SWAP1 PUSH1 0x3 SHL SHR NOT AND OR SWAP1 SSTORE JUMPDEST PUSH1 0x9 DUP2 ADD SWAP4 DUP6 DUP2 ADD MLOAD SWAP5 DUP6 MLOAD SWAP6 PUSH1 0x1 PUSH1 0x1 PUSH1 0x40 SHL SUB DUP8 GT PUSH2 0x8DA JUMPI PUSH2 0x2BAB DUP3 SLOAD PUSH2 0x1B6B JUMP JUMPDEST PUSH1 0x1F DUP2 GT PUSH2 0x2D61 JUMPI JUMPDEST POP DUP8 SWAP1 PUSH1 0x1F DUP9 GT PUSH1 0x1 EQ PUSH2 0x2CFA JUMPI SWAP7 DUP1 SWAP2 PUSH1 0xB SWAP7 SWAP8 SWAP9 PUSH0 SWAP3 PUSH2 0x2CEF JUMPI JUMPDEST POP POP DUP2 PUSH1 0x1 SHL SWAP2 PUSH0 NOT SWAP1 PUSH1 0x3 SHL SHR NOT AND OR SWAP1 SSTORE JUMPDEST PUSH1 0x40 ADD MLOAD PUSH1 0xA DUP3 ADD DUP1 SLOAD PUSH1 0x1 PUSH1 0x1 PUSH1 0xA0 SHL SUB NOT AND PUSH1 0x1 PUSH1 0x1 PUSH1 0xA0 SHL SUB SWAP3 SWAP1 SWAP3 AND SWAP2 SWAP1 SWAP2 OR SWAP1 SSTORE SWAP2 MLOAD DUP1 MLOAD SWAP1 SWAP5 SWAP2 SWAP1 SWAP3 ADD SWAP2 SWAP1 PUSH1 0x1 PUSH1 0x1 PUSH1 0x40 SHL SUB DUP3 GT PUSH2 0x8DA JUMPI PUSH2 0x2C2F DUP4 SLOAD PUSH2 0x1B6B JUMP JUMPDEST PUSH1 0x1F DUP2 GT PUSH2 0x2CAC JUMPI JUMPDEST POP DUP1 PUSH1 0x1F DUP4 GT PUSH1 0x1 EQ PUSH2 0x2C65 JUMPI POP DUP2 SWAP3 SWAP4 SWAP5 PUSH0 SWAP3 PUSH2 0x279A JUMPI POP POP DUP2 PUSH1 0x1 SHL SWAP2 PUSH0 NOT SWAP1 PUSH1 0x3 SHL SHR NOT AND OR SWAP1 SSTORE JUMP JUMPDEST SWAP1 PUSH1 0x1F NOT DUP4 AND SWAP6 DUP5 PUSH0 MSTORE DUP3 PUSH0 KECCAK256 SWAP3 PUSH0 SWAP1 JUMPDEST DUP9 DUP3 LT PUSH2 0x2C94 JUMPI POP POP DUP4 PUSH1 0x1 SWAP6 SWAP7 SWAP8 LT PUSH2 0x27D3 JUMPI POP POP POP DUP2 SHL ADD SWAP1 SSTORE JUMP JUMPDEST DUP1 PUSH1 0x1 DUP6 SWAP7 DUP3 SWAP5 SWAP7 DUP7 ADD MLOAD DUP2 SSTORE ADD SWAP6 ADD SWAP4 ADD SWAP1 PUSH2 0x2C76 JUMP JUMPDEST DUP4 PUSH0 MSTORE DUP2 PUSH0 KECCAK256 PUSH1 0x1F DUP5 ADD PUSH1 0x5 SHR DUP2 ADD SWAP2 DUP4 DUP6 LT PUSH2 0x2CE5 JUMPI JUMPDEST PUSH1 0x1F ADD PUSH1 0x5 SHR ADD SWAP1 JUMPDEST DUP2 DUP2 LT PUSH2 0x2CDA JUMPI POP PUSH2 0x2C38 JUMP JUMPDEST PUSH0 DUP2 SSTORE PUSH1 0x1 ADD PUSH2 0x2CCD JUMP JUMPDEST SWAP1 SWAP2 POP DUP2 SWAP1 PUSH2 0x2CC4 JUMP JUMPDEST ADD MLOAD SWAP1 POP PUSH0 DUP1 PUSH2 0x2BD1 JUMP JUMPDEST SWAP1 PUSH1 0x1F NOT DUP9 AND SWAP2 DUP4 PUSH0 MSTORE DUP10 PUSH0 KECCAK256 SWAP3 PUSH0 JUMPDEST DUP12 DUP3 DUP3 LT PUSH2 0x2D4B JUMPI POP POP SWAP2 PUSH1 0x1 SWAP4 SWAP2 DUP11 PUSH1 0xB SWAP10 SWAP11 SWAP12 SWAP5 LT PUSH2 0x2D33 JUMPI JUMPDEST POP POP POP DUP2 SHL ADD SWAP1 SSTORE PUSH2 0x2BE5 JUMP JUMPDEST ADD MLOAD PUSH0 NOT PUSH1 0xF8 DUP5 PUSH1 0x3 SHL AND SHR NOT AND SWAP1 SSTORE PUSH0 DUP1 DUP1 PUSH2 0x2D26 JUMP JUMPDEST PUSH1 0x1 DUP6 SWAP7 DUP3 SWAP4 SWAP7 DUP7 ADD MLOAD DUP2 SSTORE ADD SWAP6 ADD SWAP4 ADD PUSH2 0x2D0A JUMP JUMPDEST DUP3 PUSH0 MSTORE DUP9 PUSH0 KECCAK256 PUSH1 0x1F DUP10 ADD PUSH1 0x5 SHR DUP2 ADD SWAP2 DUP11 DUP11 LT PUSH2 0x2D9A JUMPI JUMPDEST PUSH1 0x1F ADD PUSH1 0x5 SHR ADD SWAP1 JUMPDEST DUP2 DUP2 LT PUSH2 0x2D8F JUMPI POP PUSH2 0x2BB4 JUMP JUMPDEST PUSH0 DUP2 SSTORE PUSH1 0x1 ADD PUSH2 0x2D82 JUMP JUMPDEST SWAP1 SWAP2 POP DUP2 SWAP1 PUSH2 0x2D79 JUMP JUMPDEST ADD MLOAD SWAP1 POP PUSH0 DUP1 PUSH2 0x2B72 JUMP JUMPDEST PUSH0 DUP6 DUP2 MSTORE DUP11 DUP2 KECCAK256 SWAP4 POP PUSH1 0x1F NOT DUP6 AND SWAP1 JUMPDEST DUP12 DUP3 DUP3 LT PUSH2 0x2DFC JUMPI POP POP SWAP1 DUP5 PUSH1 0x1 SWAP6 SWAP5 SWAP4 SWAP3 LT PUSH2 0x2DE4 JUMPI JUMPDEST POP POP POP DUP2 SHL ADD SWAP1 SSTORE PUSH2 0x2B86 JUMP JUMPDEST ADD MLOAD PUSH0 NOT PUSH1 0xF8 DUP5 PUSH1 0x3 SHL AND SHR NOT AND SWAP1 SSTORE PUSH0 DUP1 DUP1 PUSH2 0x2DD7 JUMP JUMPDEST PUSH1 0x1 DUP6 SWAP7 DUP3 SWAP4 SWAP7 DUP7 ADD MLOAD DUP2 SSTORE ADD SWAP6 ADD SWAP4 ADD PUSH2 0x2DBF JUMP JUMPDEST SWAP1 SWAP2 POP DUP4 PUSH0 MSTORE DUP9 PUSH0 KECCAK256 PUSH1 0x1F DUP5 ADD PUSH1 0x5 SHR DUP2 ADD SWAP2 DUP11 DUP6 LT PUSH2 0x2E56 JUMPI JUMPDEST SWAP1 PUSH1 0x1F DUP6 SWAP5 SWAP4 SWAP3 ADD PUSH1 0x5 SHR ADD SWAP1 JUMPDEST DUP2 DUP2 LT PUSH2 0x2E48 JUMPI POP PUSH2 0x2B5D JUMP JUMPDEST PUSH0 DUP2 SSTORE DUP5 SWAP4 POP PUSH1 0x1 ADD PUSH2 0x2E3B JUMP JUMPDEST SWAP1 SWAP2 POP DUP2 SWAP1 PUSH2 0x2E2D JUMP JUMPDEST ADD MLOAD SWAP1 POP PUSH0 DUP1 PUSH2 0x2AF2 JUMP JUMPDEST PUSH0 DUP6 DUP2 MSTORE DUP12 DUP2 KECCAK256 SWAP4 POP PUSH1 0x1F NOT DUP6 AND SWAP1 JUMPDEST DUP13 DUP3 DUP3 LT PUSH2 0x2EB8 JUMPI POP POP SWAP1 DUP5 PUSH1 0x1 SWAP6 SWAP5 SWAP4 SWAP3 LT PUSH2 0x2EA0 JUMPI JUMPDEST POP POP POP DUP2 SHL ADD SWAP1 SSTORE PUSH2 0x2B06 JUMP JUMPDEST ADD MLOAD PUSH0 NOT PUSH1 0xF8 DUP5 PUSH1 0x3 SHL AND SHR NOT AND SWAP1 SSTORE PUSH0 DUP1 DUP1 PUSH2 0x2E93 JUMP JUMPDEST PUSH1 0x1 DUP6 SWAP7 DUP3 SWAP4 SWAP7 DUP7 ADD MLOAD DUP2 SSTORE ADD SWAP6 ADD SWAP4 ADD PUSH2 0x2E7B JUMP JUMPDEST SWAP1 SWAP2 POP DUP4 PUSH0 MSTORE DUP10 PUSH0 KECCAK256 PUSH1 0x1F DUP5 ADD PUSH1 0x5 SHR DUP2 ADD SWAP2 DUP12 DUP6 LT PUSH2 0x2F12 JUMPI JUMPDEST SWAP1 PUSH1 0x1F DUP6 SWAP5 SWAP4 SWAP3 ADD PUSH1 0x5 SHR ADD SWAP1 JUMPDEST DUP2 DUP2 LT PUSH2 0x2F04 JUMPI POP PUSH2 0x2ADD JUMP JUMPDEST PUSH0 DUP2 SSTORE DUP5 SWAP4 POP PUSH1 0x1 ADD PUSH2 0x2EF7 JUMP JUMPDEST SWAP1 SWAP2 POP DUP2 SWAP1 PUSH2 0x2EE9 JUMP JUMPDEST ADD MLOAD SWAP1 POP PUSH0 DUP1 PUSH2 0x2A9B JUMP JUMPDEST PUSH0 DUP6 DUP2 MSTORE DUP12 DUP2 KECCAK256 SWAP4 POP PUSH1 0x1F NOT DUP6 AND SWAP1 JUMPDEST DUP13 DUP3 DUP3 LT PUSH2 0x2F74 JUMPI POP POP SWAP1 DUP5 PUSH1 0x1 SWAP6 SWAP5 SWAP4 SWAP3 LT PUSH2 0x2F5C JUMPI JUMPDEST POP POP POP DUP2 SHL ADD SWAP1 SSTORE PUSH2 0x2AAF JUMP JUMPDEST ADD MLOAD PUSH0 NOT PUSH1 0xF8 DUP5 PUSH1 0x3 SHL AND SHR NOT AND SWAP1 SSTORE PUSH0 DUP1 DUP1 PUSH2 0x2F4F JUMP JUMPDEST PUSH1 0x1 DUP6 SWAP7 DUP3 SWAP4 SWAP7 DUP7 ADD MLOAD DUP2 SSTORE ADD SWAP6 ADD SWAP4 ADD PUSH2 0x2F37 JUMP JUMPDEST SWAP1 SWAP2 POP DUP4 PUSH0 MSTORE DUP10 PUSH0 KECCAK256 PUSH1 0x1F DUP5 ADD PUSH1 0x5 SHR DUP2 ADD SWAP2 DUP12 DUP6 LT PUSH2 0x2FCE JUMPI JUMPDEST SWAP1 PUSH1 0x1F DUP6 SWAP5 SWAP4 SWAP3 ADD PUSH1 0x5 SHR ADD SWAP1 JUMPDEST DUP2 DUP2 LT PUSH2 0x2FC0 JUMPI POP PUSH2 0x2A86 JUMP JUMPDEST PUSH0 DUP2 SSTORE DUP5 SWAP4 POP PUSH1 0x1 ADD PUSH2 0x2FB3 JUMP JUMPDEST SWAP1 SWAP2 POP DUP2 SWAP1 PUSH2 0x2FA5 JUMP INVALID LOG2 PUSH5 0x6970667358 0x22 SLT KECCAK256 0xAD PUSH23 0xF69B51CF75584325DD42EE69A608728F4980C7E1BCD3D1 0x22 0x4F ADDRESS SLOAD DUP14 0xB9 SDIV PUSH5 0x736F6C6343 STOP ADDMOD SHL STOP CALLER "},"methodIdentifiers":{"allCpotbData(uint256)":"f02f5f23","approveCpotb(string,string,string,string,address,string)":"b9e49080","approvedTipePermohonanByFactory(string,uint256)":"7ee90ded","certDetailsById(string)":"a71ed23a","cpotbDataById(string)":"6aa81299","createCertificateDetails((string,string,address),(string,string,address),string)":"fb5fb9a3","createUserCertificate(string,address,string)":"d533a3dd","getAllCpotb()":"5850607c","getAllCpotbByInstance(string)":"81fc60a5","getCertDetail(string)":"9aaa5d8b","getCertDetails(string)":"be2e2325","getCpotbDetails(string)":"70c056b0","getRejectMsg(string)":"6d1aa7d5","getRejectsMsg(string)":"761fb19a","getSenderDetail(string)":"17e68309","rejectCpotb(string,string,string,string,address)":"e462dde5","rejectMsgbyId(string)":"10159dfe","renewRequestCpotb(string,uint8)":"fcac71c4","requestCpotb(string,string,string,address,uint8,string)":"b5881e70","updateBpomApproveDetails(string,string,(string,string,address))":"f5104ff1","updateBpomRejectDetails(string,string,(string,string,address))":"e9c260d7","updateRenewDetails(string)":"19859c87"}}}}}