{"contracts/CertificateManager.sol":{"CertificateManager":{"abi":[{"inputs":[{"internalType":"address","name":"_roleManagerAddr","type":"address"},{"internalType":"address","name":"_cpotbCertificateAddr","type":"address"}],"stateMutability":"nonpayable","type":"constructor"},{"anonymous":false,"inputs":[{"indexed":false,"internalType":"string","name":"bpomInstance","type":"string"},{"indexed":false,"internalType":"address","name":"bpomAddr","type":"address"},{"indexed":false,"internalType":"uint8","name":"tipePermohonan","type":"uint8"},{"indexed":false,"internalType":"string","name":"certNumber","type":"string"},{"indexed":false,"internalType":"uint256","name":"timestamp","type":"uint256"}],"name":"evt_certApproved","type":"event"},{"anonymous":false,"inputs":[{"indexed":false,"internalType":"string","name":"bpomInstance","type":"string"},{"indexed":false,"internalType":"address","name":"bpomAddr","type":"address"},{"indexed":false,"internalType":"uint8","name":"tipePermohonan","type":"uint8"},{"indexed":false,"internalType":"uint256","name":"timestamp","type":"uint256"},{"indexed":false,"internalType":"string","name":"rejectMsg","type":"string"}],"name":"evt_certRejected","type":"event"},{"anonymous":false,"inputs":[{"indexed":false,"internalType":"string","name":"senderInstance","type":"string"},{"indexed":false,"internalType":"address","name":"senderAddr","type":"address"},{"indexed":false,"internalType":"uint8","name":"tipePermohonan","type":"uint8"},{"indexed":false,"internalType":"uint256","name":"timestamp","type":"uint256"}],"name":"evt_certRenewRequest","type":"event"},{"anonymous":false,"inputs":[{"indexed":false,"internalType":"string","name":"senderInstance","type":"string"},{"indexed":false,"internalType":"address","name":"senderAddr","type":"address"},{"indexed":false,"internalType":"uint8","name":"tipePermohonan","type":"uint8"},{"indexed":false,"internalType":"uint256","name":"timestamp","type":"uint256"}],"name":"evt_certRequested","type":"event"},{"inputs":[{"components":[{"internalType":"string","name":"certNumber","type":"string"},{"internalType":"string","name":"certId","type":"string"},{"internalType":"string","name":"bpomName","type":"string"},{"internalType":"string","name":"bpomInstance","type":"string"},{"internalType":"address","name":"bpomAddr","type":"address"}],"internalType":"struct CertificateManager.st_certificateApproval","name":"approvalData","type":"tuple"},{"internalType":"string","name":"_ipfsCert","type":"string"},{"internalType":"uint8","name":"_jenisSediaan","type":"uint8"}],"name":"approveCpotb","outputs":[],"stateMutability":"nonpayable","type":"function"},{"inputs":[],"name":"getAllCpotb","outputs":[{"components":[{"internalType":"string","name":"certId","type":"string"},{"internalType":"string","name":"certNumber","type":"string"},{"internalType":"string","name":"instanceName","type":"string"},{"internalType":"uint8","name":"tipePermohonan","type":"uint8"},{"internalType":"enum EnumsLibrary.StatusCertificate","name":"status","type":"uint8"},{"internalType":"string","name":"certHash","type":"string"}],"internalType":"struct CpotbCertificate.st_certificateList[]","name":"","type":"tuple[]"}],"stateMutability":"view","type":"function"},{"inputs":[{"internalType":"string","name":"_instanceName","type":"string"}],"name":"getCpotbByInstance","outputs":[{"components":[{"internalType":"string","name":"certId","type":"string"},{"internalType":"string","name":"certNumber","type":"string"},{"internalType":"string","name":"instanceName","type":"string"},{"internalType":"uint8","name":"tipePermohonan","type":"uint8"},{"internalType":"enum EnumsLibrary.StatusCertificate","name":"status","type":"uint8"},{"internalType":"string","name":"certHash","type":"string"}],"internalType":"struct CpotbCertificate.st_certificateList[]","name":"","type":"tuple[]"}],"stateMutability":"view","type":"function"},{"inputs":[{"internalType":"string","name":"_certId","type":"string"}],"name":"getCpotbDetails","outputs":[{"components":[{"internalType":"enum EnumsLibrary.StatusCertificate","name":"status","type":"uint8"},{"internalType":"uint256","name":"timestampRequest","type":"uint256"},{"internalType":"uint256","name":"timestampApprove","type":"uint256"},{"internalType":"uint256","name":"timestampRejected","type":"uint256"},{"internalType":"uint256","name":"timestsmpRenewRequest","type":"uint256"},{"components":[{"internalType":"string","name":"userName","type":"string"},{"internalType":"string","name":"userInstance","type":"string"},{"internalType":"address","name":"userAddr","type":"address"}],"internalType":"struct BaseCertificate.st_userCertificate","name":"sender","type":"tuple"},{"components":[{"internalType":"string","name":"userName","type":"string"},{"internalType":"string","name":"userInstance","type":"string"},{"internalType":"address","name":"userAddr","type":"address"}],"internalType":"struct BaseCertificate.st_userCertificate","name":"bpom","type":"tuple"},{"internalType":"string","name":"ipfsCert","type":"string"}],"internalType":"struct BaseCertificate.st_certificateDetails","name":"","type":"tuple"},{"components":[{"internalType":"string","name":"cpotbId","type":"string"},{"internalType":"string","name":"cpotbNumber","type":"string"},{"internalType":"uint8","name":"tipePermohonan","type":"uint8"},{"internalType":"string","name":"factoryType","type":"string"}],"internalType":"struct CpotbCertificate.st_cpotb","name":"","type":"tuple"}],"stateMutability":"view","type":"function"},{"inputs":[{"internalType":"string","name":"_certId","type":"string"}],"name":"getRejectMsg","outputs":[{"internalType":"string","name":"","type":"string"}],"stateMutability":"view","type":"function"},{"inputs":[{"internalType":"string","name":"_certId","type":"string"},{"internalType":"string","name":"_rejectMsg","type":"string"},{"internalType":"string","name":"_bpomName","type":"string"},{"internalType":"string","name":"_bpomInstance","type":"string"},{"internalType":"address","name":"_bpomAddr","type":"address"},{"internalType":"uint8","name":"_jenisSediaan","type":"uint8"}],"name":"rejectCpotb","outputs":[],"stateMutability":"nonpayable","type":"function"},{"inputs":[{"components":[{"internalType":"string","name":"certId","type":"string"},{"internalType":"string","name":"senderName","type":"string"},{"internalType":"string","name":"senderInstance","type":"string"},{"internalType":"address","name":"senderAddr","type":"address"}],"internalType":"struct CertificateManager.st_certificateRequest","name":"requestData","type":"tuple"},{"internalType":"uint8","name":"_tipePermohonanCpotb","type":"uint8"}],"name":"renewCpotb","outputs":[],"stateMutability":"nonpayable","type":"function"},{"inputs":[{"components":[{"internalType":"string","name":"certId","type":"string"},{"internalType":"string","name":"senderName","type":"string"},{"internalType":"string","name":"senderInstance","type":"string"},{"internalType":"address","name":"senderAddr","type":"address"}],"internalType":"struct CertificateManager.st_certificateRequest","name":"requestData","type":"tuple"},{"internalType":"uint8","name":"_tipePermohonanCpotb","type":"uint8"},{"internalType":"string","name":"_factoryType","type":"string"}],"name":"requestCpotb","outputs":[],"stateMutability":"nonpayable","type":"function"}],"evm":{"bytecode":{"linkReferences":{},"object":"608034608557601f6115dd38819003918201601f19168301916001600160401b038311848410176089578084926040948552833981010312608557604b6020604583609d565b9201609d565b5f80546001600160a01b039384166001600160a01b0319918216179091556001805492909316911617905560405161152c90816100b18239f35b5f80fd5b634e487b7160e01b5f52604160045260245ffd5b51906001600160a01b038216820360855756fe60806040526004361015610011575f80fd5b5f5f3560e01c806339a102f214610c735780634e03317b1461097957806351c2d326146108f35780635850607c1461087a5780636d1aa7d51461079d57806370c056b0146103b7578063ac2e8e5a146102005763ec7970ba14610072575f80fd5b346101fd5760403660031901126101fd576004356001600160401b0381116101fb576100a29036906004016110f6565b6100aa610faf565b82546040516395a8c58d60e01b81523360048201526024810185905290602090829060449082906001600160a01b03165afa80156101f0576100f39185916101c1575b50611467565b600154825184916001600160a01b0316803b156101b2576101368392918392604051948580948193633f2b1c7160e21b8352604060048401526044830190610fbf565b60ff8a16602483015203925af180156101b65761019d575b50508161019760407fcfe5f99158692d41ae663d53296e468f4c6c07a66b63ca35cf663fb7ca7e6f4a94015191606060018060a01b0391015116916040519384934292856114c1565b0390a180f35b816101a791610f19565b6101b257825f61014e565b8280fd5b6040513d84823e3d90fd5b6101e3915060203d6020116101e9575b6101db8183610f19565b81019061118c565b5f6100ed565b503d6101d1565b6040513d86823e3d90fd5b505b80fd5b50346101fd5760603660031901126101fd576004356001600160401b0381116101fb576102319036906004016110f6565b610239610faf565b826044356001600160401b0381116101fb57610259903690600401610f55565b926044602060018060a01b03845416604051928380926395a8c58d60e01b82523360048301528760248301525afa80156103ac5761029d9184916101c15750611467565b60018060a01b0360015416908051916020820151906040830196875193606060018060a01b039101511690823b156103a8576103199561034b6103079389979361032b89956040519b8c9a8b998a98630b5881e760e41b8a5260c060048b015260c48a0190610fbf565b8881036003190160248a015290610fbf565b86810360031901604488015290610fbf565b91606485015260ff8c1660848501526003198483030160a4850152610fbf565b03925af180156101b657610393575b50507fc2e9ac3a5604e4974685010330569187c02f4ce9b7b65eccd82376d2737e317991519061019760405192839242913390856114c1565b8161039d91610f19565b6101b257825f61035a565b8680fd5b6040513d85823e3d90fd5b50346101fd5760203660031901126101fd576004356001600160401b0381116101fb576103e8903690600401610f55565b606060e06040516103f881610eb3565b848152846020820152846040820152848382015284608082015261041a6113cf565b60a08201526104276113cf565b60c0820152015260608060405161043d81610ee3565b818152816020820152846040820152015260018060a01b0360015416906040519163be2e232560e01b83526020600484015283838061047f6024820186610fbf565b0381845afa9283156101f057849361069c575b509280916104bd94604051808097819463070c056b60e41b8352602060048401526024830190610fbf565b03915afa92831561068f5781936105b8575b610564836105b4866040519384936040855280516104ec81610fe3565b60408601526020810151606086015260408101516080860152606081015160a0860152608081015160c086015260e061054f61053860a0840151610100848a01526101408901906110ca565b60c0840151888203603f19016101008a01526110ca565b910151858203603f1901610120870152610fbf565b838103602085015260606105966105848451608085526080850190610fbf565b60208501518482036020860152610fbf565b9260ff60408201511660408401520151906060818403910152610fbf565b0390f35b9092503d8084833e6105ca8183610f19565b81019060208183031261068b578051906001600160401b0382116106875701926080848303126101fd576040519361060185610ee3565b80516001600160401b0381116101b2578361061d9183016111fb565b855260208101516001600160401b0381116101b2578361063e9183016111fb565b602086015261064f60408201611241565b60408601526060810151916001600160401b0383116101fd57506105b492610564959261067c92016111fb565b6060820152926104cf565b8480fd5b8380fd5b50604051903d90823e3d90fd5b9092503d8085833e6106ae8183610f19565b810190602081830312610687578051906001600160401b0382116107995701906101008282031261068757604051916106e683610eb3565b805160048110156103a85783526020810151602084015260408101516040840152606081015160608401526080810151608084015260a08101516001600160401b0381116103a8578261073a9183016113ef565b60a084015260c08101516001600160401b0381116103a8578261075e9183016113ef565b60c084015260e0810151906001600160401b0382116103a8578694926104bd97949261078a92016111fb565b60e08201529391509193610492565b8580fd5b50346101fd5760203660031901126101fd576004356001600160401b0381116101fb5790806107d3610801933690600401610f55565b60018060a01b03600154166040518080968194636d1aa7d560e01b8352602060048401526024830190610fbf565b03915afa90811561086e578091610829575b604051602080825281906105b490820185610fbf565b90503d8082843e61083a8184610f19565b8201916020818403126101fb578051916001600160401b0383116101fd575091610868916105b493016111fb565b5f610813565b604051903d90823e3d90fd5b50346101fd57806003193601126101fd57600154604051631614181f60e21b8152908290829060049082906001600160a01b03165afa9081156101b657826105b493926108d0575b505060405191829182611001565b6108ec92503d8091833e6108e48183610f19565b81019061124f565b5f806108c2565b50346101fd5760203660031901126101fd57600435816001600160401b0382116101fd57610928610956923690600401610f55565b60018060a01b036001541660405180809581946381fc60a560e01b8352602060048401526024830190610fbf565b03915afa9081156101b657826105b493926108d057505060405191829182611001565b50346101fd5760603660031901126101fd576004356001600160401b0381116101fb5760a060031982360301126101fb5760405160a081018181106001600160401b03821117610c5f5760405281600401356001600160401b03811161068b576109e99060043691850101610f55565b815260248201356001600160401b03811161068b57610a0e9060043691850101610f55565b91602082019283528360448201356001600160401b0381116101fb57610a3a9060043691850101610f55565b6040840190815260648301356001600160401b0381116101b2576084610a69610a779260043691880101610f55565b946060870195865201610f9b565b90608085019182526024356001600160401b03811161068b57610a9e903690600401610f55565b906044359560ff87168097036106875784546040516395a8c58d60e01b81523360048201526002602482015290602090829060449082906001600160a01b03165afa8015610c5457610af7918791610c35575b506111a4565b600154905188519251875195516001600160a01b039081169593169291833b15610c3157610ba28896610b5594610b8b610b679a610b798b976040519d8e9c8d9b8c9a630173c92160e71b8c5260c060048d015260c48c0190610fbf565b8a81036003190160248c015290610fbf565b8881036003190160448a015290610fbf565b86810360031901606488015290610fbf565b9160848501526003198483030160a4850152610fbf565b03925af180156101b657610c18575b5092610c0c7f5a6de087e789907358535425669e4f40d3b814f0db7eff0cbc6cd0ef46f88f6393610bf39351925160405194859460a0865260a0860190610fbf565b9133602086015260408501528382036060850152610fbf565b4260808301520390a180f35b81610c2591959395610f19565b61068b5791835f610bb1565b8780fd5b610c4e915060203d6020116101e9576101db8183610f19565b5f610af1565b6040513d88823e3d90fd5b634e487b7160e01b84526041600452602484fd5b5034610eaf5760c0366003190112610eaf576004356001600160401b038111610eaf57610ca4903690600401610f55565b6024356001600160401b038111610eaf57610cc3903690600401610f55565b906044356001600160401b038111610eaf57610ce3903690600401610f55565b916064356001600160401b038111610eaf57610d03903690600401610f55565b926084356001600160a01b0381169390849003610eaf5760a4359360ff8516809503610eaf575f546040516395a8c58d60e01b81523360048201526002602482015290602090829060449082906001600160a01b03165afa8015610ea457610d71915f91610c3557506111a4565b6001546001600160a01b0316803b15610eaf57610db95f8094610dcb94610def610ddd604051998a988997889663e462dde560e01b885260a0600489015260a4880190610fbf565b8681036003190160248801528d610fbf565b85810360031901604487015290610fbf565b8381036003190160648501528c610fbf565b90608483015203925af18015610ea457610e62575b5091610197610e43927f49ccc40643c62b9ba169985fbc04f29649aa4962d40fd63a85a56083c58b1cc69460405194859460a0865260a0860190610fbf565b9133602086015260408501524260608501528382036080850152610fbf565b7f49ccc40643c62b9ba169985fbc04f29649aa4962d40fd63a85a56083c58b1cc693919450610e4392610e985f61019793610f19565b5f959294509250610e04565b6040513d5f823e3d90fd5b5f80fd5b61010081019081106001600160401b03821117610ecf57604052565b634e487b7160e01b5f52604160045260245ffd5b608081019081106001600160401b03821117610ecf57604052565b606081019081106001600160401b03821117610ecf57604052565b90601f801991011681019081106001600160401b03821117610ecf57604052565b6001600160401b038111610ecf57601f01601f191660200190565b81601f82011215610eaf57803590610f6c82610f3a565b92610f7a6040519485610f19565b82845260208383010111610eaf57815f926020809301838601378301015290565b35906001600160a01b0382168203610eaf57565b6024359060ff82168203610eaf57565b805180835260209291819084018484015e5f828201840152601f01601f1916010190565b60041115610fed57565b634e487b7160e01b5f52602160045260245ffd5b602081016020825282518091526040820191602060408360051b8301019401925f915b83831061103357505050505090565b90919293946020806110bb600193603f1986820301875289519060a061108a611078611068855160c0865260c0860190610fbf565b8786015185820389870152610fbf565b60408501518482036040860152610fbf565b9260ff606082015116606084015260808101516110a681610fe3565b608084015201519060a0818403910152610fbf565b97019301930191939290611024565b9060406110e36105848451606085526060850190610fbf565b928101516001600160a01b031691015290565b919091608081840312610eaf576040519061111082610ee3565b819381356001600160401b038111610eaf578161112e918401610f55565b835260208201356001600160401b038111610eaf578161114f918401610f55565b60208401526040820135906001600160401b038211610eaf578261117c6060949261118794869401610f55565b604086015201610f9b565b910152565b90816020910312610eaf57518015158103610eaf5790565b156111ab57565b60405162461bcd60e51b815260206004820152602260248201527f4f6e6c792042504f4d2063616e20646f2074686973207472616e73616374696f6044820152616e2160f01b6064820152608490fd5b81601f82011215610eaf5780519061121282610f3a565b926112206040519485610f19565b82845260208383010111610eaf57815f9260208093018386015e8301015290565b519060ff82168203610eaf57565b602081830312610eaf578051906001600160401b038211610eaf57019080601f83011215610eaf578151916001600160401b038311610ecf578260051b6040519361129d6020830186610f19565b845260208085019183010191838311610eaf5760208101915b8383106112c557505050505090565b82516001600160401b038111610eaf5782019060c0828703601f190112610eaf576040519060c082018281106001600160401b03821117610ecf5760405260208301516001600160401b038111610eaf57876020611325928601016111fb565b825260408301516001600160401b038111610eaf57876020611349928601016111fb565b602083015260608301516001600160401b038111610eaf57876020611370928601016111fb565b604083015261138160808401611241565b606083015260a08301516004811015610eaf57608083015260c0830151916001600160401b038311610eaf576113bf886020809695819601016111fb565b60a08201528152019201916112b6565b604051906113dc82610efe565b5f60408360608152606060208201520152565b9190606083820312610eaf576040519061140882610efe565b819380516001600160401b038111610eaf57826114269183016111fb565b835260208101516001600160401b038111610eaf576040926114499183016111fb565b60208401520151906001600160a01b0382168203610eaf5760400152565b1561146e57565b60405162461bcd60e51b815260206004820152602560248201527f4f6e6c7920466163746f72792063616e20646f2074686973207472616e73616360448201526474696f6e2160d81b6064820152608490fd5b906060929594936114dc60ff92608085526080850190610fbf565b6001600160a01b039097166020840152166040820152015256fea2646970667358221220825892237ffead739c459fe4408c7082e2695fd92f9b29640a7d355ca1bd81d764736f6c634300081b0033","opcodes":"PUSH1 0x80 CALLVALUE PUSH1 0x85 JUMPI PUSH1 0x1F PUSH2 0x15DD CODESIZE DUP2 SWAP1 SUB SWAP2 DUP3 ADD PUSH1 0x1F NOT AND DUP4 ADD SWAP2 PUSH1 0x1 PUSH1 0x1 PUSH1 0x40 SHL SUB DUP4 GT DUP5 DUP5 LT OR PUSH1 0x89 JUMPI DUP1 DUP5 SWAP3 PUSH1 0x40 SWAP5 DUP6 MSTORE DUP4 CODECOPY DUP2 ADD SUB SLT PUSH1 0x85 JUMPI PUSH1 0x4B PUSH1 0x20 PUSH1 0x45 DUP4 PUSH1 0x9D JUMP JUMPDEST SWAP3 ADD PUSH1 0x9D JUMP JUMPDEST PUSH0 DUP1 SLOAD PUSH1 0x1 PUSH1 0x1 PUSH1 0xA0 SHL SUB SWAP4 DUP5 AND PUSH1 0x1 PUSH1 0x1 PUSH1 0xA0 SHL SUB NOT SWAP2 DUP3 AND OR SWAP1 SWAP2 SSTORE PUSH1 0x1 DUP1 SLOAD SWAP3 SWAP1 SWAP4 AND SWAP2 AND OR SWAP1 SSTORE PUSH1 0x40 MLOAD PUSH2 0x152C SWAP1 DUP2 PUSH2 0xB1 DUP3 CODECOPY RETURN JUMPDEST PUSH0 DUP1 REVERT JUMPDEST PUSH4 0x4E487B71 PUSH1 0xE0 SHL PUSH0 MSTORE PUSH1 0x41 PUSH1 0x4 MSTORE PUSH1 0x24 PUSH0 REVERT JUMPDEST MLOAD SWAP1 PUSH1 0x1 PUSH1 0x1 PUSH1 0xA0 SHL SUB DUP3 AND DUP3 SUB PUSH1 0x85 JUMPI JUMP INVALID PUSH1 0x80 PUSH1 0x40 MSTORE PUSH1 0x4 CALLDATASIZE LT ISZERO PUSH2 0x11 JUMPI PUSH0 DUP1 REVERT JUMPDEST PUSH0 PUSH0 CALLDATALOAD PUSH1 0xE0 SHR DUP1 PUSH4 0x39A102F2 EQ PUSH2 0xC73 JUMPI DUP1 PUSH4 0x4E03317B EQ PUSH2 0x979 JUMPI DUP1 PUSH4 0x51C2D326 EQ PUSH2 0x8F3 JUMPI DUP1 PUSH4 0x5850607C EQ PUSH2 0x87A JUMPI DUP1 PUSH4 0x6D1AA7D5 EQ PUSH2 0x79D JUMPI DUP1 PUSH4 0x70C056B0 EQ PUSH2 0x3B7 JUMPI DUP1 PUSH4 0xAC2E8E5A EQ PUSH2 0x200 JUMPI PUSH4 0xEC7970BA EQ PUSH2 0x72 JUMPI PUSH0 DUP1 REVERT JUMPDEST CALLVALUE PUSH2 0x1FD JUMPI PUSH1 0x40 CALLDATASIZE PUSH1 0x3 NOT ADD SLT PUSH2 0x1FD JUMPI PUSH1 0x4 CALLDATALOAD PUSH1 0x1 PUSH1 0x1 PUSH1 0x40 SHL SUB DUP2 GT PUSH2 0x1FB JUMPI PUSH2 0xA2 SWAP1 CALLDATASIZE SWAP1 PUSH1 0x4 ADD PUSH2 0x10F6 JUMP JUMPDEST PUSH2 0xAA PUSH2 0xFAF JUMP JUMPDEST DUP3 SLOAD PUSH1 0x40 MLOAD PUSH4 0x95A8C58D PUSH1 0xE0 SHL DUP2 MSTORE CALLER PUSH1 0x4 DUP3 ADD MSTORE PUSH1 0x24 DUP2 ADD DUP6 SWAP1 MSTORE SWAP1 PUSH1 0x20 SWAP1 DUP3 SWAP1 PUSH1 0x44 SWAP1 DUP3 SWAP1 PUSH1 0x1 PUSH1 0x1 PUSH1 0xA0 SHL SUB AND GAS STATICCALL DUP1 ISZERO PUSH2 0x1F0 JUMPI PUSH2 0xF3 SWAP2 DUP6 SWAP2 PUSH2 0x1C1 JUMPI JUMPDEST POP PUSH2 0x1467 JUMP JUMPDEST PUSH1 0x1 SLOAD DUP3 MLOAD DUP5 SWAP2 PUSH1 0x1 PUSH1 0x1 PUSH1 0xA0 SHL SUB AND DUP1 EXTCODESIZE ISZERO PUSH2 0x1B2 JUMPI PUSH2 0x136 DUP4 SWAP3 SWAP2 DUP4 SWAP3 PUSH1 0x40 MLOAD SWAP5 DUP6 DUP1 SWAP5 DUP2 SWAP4 PUSH4 0x3F2B1C71 PUSH1 0xE2 SHL DUP4 MSTORE PUSH1 0x40 PUSH1 0x4 DUP5 ADD MSTORE PUSH1 0x44 DUP4 ADD SWAP1 PUSH2 0xFBF JUMP JUMPDEST PUSH1 0xFF DUP11 AND PUSH1 0x24 DUP4 ADD MSTORE SUB SWAP3 GAS CALL DUP1 ISZERO PUSH2 0x1B6 JUMPI PUSH2 0x19D JUMPI JUMPDEST POP POP DUP2 PUSH2 0x197 PUSH1 0x40 PUSH32 0xCFE5F99158692D41AE663D53296E468F4C6C07A66B63CA35CF663FB7CA7E6F4A SWAP5 ADD MLOAD SWAP2 PUSH1 0x60 PUSH1 0x1 DUP1 PUSH1 0xA0 SHL SUB SWAP2 ADD MLOAD AND SWAP2 PUSH1 0x40 MLOAD SWAP4 DUP5 SWAP4 TIMESTAMP SWAP3 DUP6 PUSH2 0x14C1 JUMP JUMPDEST SUB SWAP1 LOG1 DUP1 RETURN JUMPDEST DUP2 PUSH2 0x1A7 SWAP2 PUSH2 0xF19 JUMP JUMPDEST PUSH2 0x1B2 JUMPI DUP3 PUSH0 PUSH2 0x14E JUMP JUMPDEST DUP3 DUP1 REVERT JUMPDEST PUSH1 0x40 MLOAD RETURNDATASIZE DUP5 DUP3 RETURNDATACOPY RETURNDATASIZE SWAP1 REVERT JUMPDEST PUSH2 0x1E3 SWAP2 POP PUSH1 0x20 RETURNDATASIZE PUSH1 0x20 GT PUSH2 0x1E9 JUMPI JUMPDEST PUSH2 0x1DB DUP2 DUP4 PUSH2 0xF19 JUMP JUMPDEST DUP2 ADD SWAP1 PUSH2 0x118C JUMP JUMPDEST PUSH0 PUSH2 0xED JUMP JUMPDEST POP RETURNDATASIZE PUSH2 0x1D1 JUMP JUMPDEST PUSH1 0x40 MLOAD RETURNDATASIZE DUP7 DUP3 RETURNDATACOPY RETURNDATASIZE SWAP1 REVERT JUMPDEST POP JUMPDEST DUP1 REVERT JUMPDEST POP CALLVALUE PUSH2 0x1FD JUMPI PUSH1 0x60 CALLDATASIZE PUSH1 0x3 NOT ADD SLT PUSH2 0x1FD JUMPI PUSH1 0x4 CALLDATALOAD PUSH1 0x1 PUSH1 0x1 PUSH1 0x40 SHL SUB DUP2 GT PUSH2 0x1FB JUMPI PUSH2 0x231 SWAP1 CALLDATASIZE SWAP1 PUSH1 0x4 ADD PUSH2 0x10F6 JUMP JUMPDEST PUSH2 0x239 PUSH2 0xFAF JUMP JUMPDEST DUP3 PUSH1 0x44 CALLDATALOAD PUSH1 0x1 PUSH1 0x1 PUSH1 0x40 SHL SUB DUP2 GT PUSH2 0x1FB JUMPI PUSH2 0x259 SWAP1 CALLDATASIZE SWAP1 PUSH1 0x4 ADD PUSH2 0xF55 JUMP JUMPDEST SWAP3 PUSH1 0x44 PUSH1 0x20 PUSH1 0x1 DUP1 PUSH1 0xA0 SHL SUB DUP5 SLOAD AND PUSH1 0x40 MLOAD SWAP3 DUP4 DUP1 SWAP3 PUSH4 0x95A8C58D PUSH1 0xE0 SHL DUP3 MSTORE CALLER PUSH1 0x4 DUP4 ADD MSTORE DUP8 PUSH1 0x24 DUP4 ADD MSTORE GAS STATICCALL DUP1 ISZERO PUSH2 0x3AC JUMPI PUSH2 0x29D SWAP2 DUP5 SWAP2 PUSH2 0x1C1 JUMPI POP PUSH2 0x1467 JUMP JUMPDEST PUSH1 0x1 DUP1 PUSH1 0xA0 SHL SUB PUSH1 0x1 SLOAD AND SWAP1 DUP1 MLOAD SWAP2 PUSH1 0x20 DUP3 ADD MLOAD SWAP1 PUSH1 0x40 DUP4 ADD SWAP7 DUP8 MLOAD SWAP4 PUSH1 0x60 PUSH1 0x1 DUP1 PUSH1 0xA0 SHL SUB SWAP2 ADD MLOAD AND SWAP1 DUP3 EXTCODESIZE ISZERO PUSH2 0x3A8 JUMPI PUSH2 0x319 SWAP6 PUSH2 0x34B PUSH2 0x307 SWAP4 DUP10 SWAP8 SWAP4 PUSH2 0x32B DUP10 SWAP6 PUSH1 0x40 MLOAD SWAP12 DUP13 SWAP11 DUP12 SWAP10 DUP11 SWAP9 PUSH4 0xB5881E7 PUSH1 0xE4 SHL DUP11 MSTORE PUSH1 0xC0 PUSH1 0x4 DUP12 ADD MSTORE PUSH1 0xC4 DUP11 ADD SWAP1 PUSH2 0xFBF JUMP JUMPDEST DUP9 DUP2 SUB PUSH1 0x3 NOT ADD PUSH1 0x24 DUP11 ADD MSTORE SWAP1 PUSH2 0xFBF JUMP JUMPDEST DUP7 DUP2 SUB PUSH1 0x3 NOT ADD PUSH1 0x44 DUP9 ADD MSTORE SWAP1 PUSH2 0xFBF JUMP JUMPDEST SWAP2 PUSH1 0x64 DUP6 ADD MSTORE PUSH1 0xFF DUP13 AND PUSH1 0x84 DUP6 ADD MSTORE PUSH1 0x3 NOT DUP5 DUP4 SUB ADD PUSH1 0xA4 DUP6 ADD MSTORE PUSH2 0xFBF JUMP JUMPDEST SUB SWAP3 GAS CALL DUP1 ISZERO PUSH2 0x1B6 JUMPI PUSH2 0x393 JUMPI JUMPDEST POP POP PUSH32 0xC2E9AC3A5604E4974685010330569187C02F4CE9B7B65ECCD82376D2737E3179 SWAP2 MLOAD SWAP1 PUSH2 0x197 PUSH1 0x40 MLOAD SWAP3 DUP4 SWAP3 TIMESTAMP SWAP2 CALLER SWAP1 DUP6 PUSH2 0x14C1 JUMP JUMPDEST DUP2 PUSH2 0x39D SWAP2 PUSH2 0xF19 JUMP JUMPDEST PUSH2 0x1B2 JUMPI DUP3 PUSH0 PUSH2 0x35A JUMP JUMPDEST DUP7 DUP1 REVERT JUMPDEST PUSH1 0x40 MLOAD RETURNDATASIZE DUP6 DUP3 RETURNDATACOPY RETURNDATASIZE SWAP1 REVERT JUMPDEST POP CALLVALUE PUSH2 0x1FD JUMPI PUSH1 0x20 CALLDATASIZE PUSH1 0x3 NOT ADD SLT PUSH2 0x1FD JUMPI PUSH1 0x4 CALLDATALOAD PUSH1 0x1 PUSH1 0x1 PUSH1 0x40 SHL SUB DUP2 GT PUSH2 0x1FB JUMPI PUSH2 0x3E8 SWAP1 CALLDATASIZE SWAP1 PUSH1 0x4 ADD PUSH2 0xF55 JUMP JUMPDEST PUSH1 0x60 PUSH1 0xE0 PUSH1 0x40 MLOAD PUSH2 0x3F8 DUP2 PUSH2 0xEB3 JUMP JUMPDEST DUP5 DUP2 MSTORE DUP5 PUSH1 0x20 DUP3 ADD MSTORE DUP5 PUSH1 0x40 DUP3 ADD MSTORE DUP5 DUP4 DUP3 ADD MSTORE DUP5 PUSH1 0x80 DUP3 ADD MSTORE PUSH2 0x41A PUSH2 0x13CF JUMP JUMPDEST PUSH1 0xA0 DUP3 ADD MSTORE PUSH2 0x427 PUSH2 0x13CF JUMP JUMPDEST PUSH1 0xC0 DUP3 ADD MSTORE ADD MSTORE PUSH1 0x60 DUP1 PUSH1 0x40 MLOAD PUSH2 0x43D DUP2 PUSH2 0xEE3 JUMP JUMPDEST DUP2 DUP2 MSTORE DUP2 PUSH1 0x20 DUP3 ADD MSTORE DUP5 PUSH1 0x40 DUP3 ADD MSTORE ADD MSTORE PUSH1 0x1 DUP1 PUSH1 0xA0 SHL SUB PUSH1 0x1 SLOAD AND SWAP1 PUSH1 0x40 MLOAD SWAP2 PUSH4 0xBE2E2325 PUSH1 0xE0 SHL DUP4 MSTORE PUSH1 0x20 PUSH1 0x4 DUP5 ADD MSTORE DUP4 DUP4 DUP1 PUSH2 0x47F PUSH1 0x24 DUP3 ADD DUP7 PUSH2 0xFBF JUMP JUMPDEST SUB DUP2 DUP5 GAS STATICCALL SWAP3 DUP4 ISZERO PUSH2 0x1F0 JUMPI DUP5 SWAP4 PUSH2 0x69C JUMPI JUMPDEST POP SWAP3 DUP1 SWAP2 PUSH2 0x4BD SWAP5 PUSH1 0x40 MLOAD DUP1 DUP1 SWAP8 DUP2 SWAP5 PUSH4 0x70C056B PUSH1 0xE4 SHL DUP4 MSTORE PUSH1 0x20 PUSH1 0x4 DUP5 ADD MSTORE PUSH1 0x24 DUP4 ADD SWAP1 PUSH2 0xFBF JUMP JUMPDEST SUB SWAP2 GAS STATICCALL SWAP3 DUP4 ISZERO PUSH2 0x68F JUMPI DUP2 SWAP4 PUSH2 0x5B8 JUMPI JUMPDEST PUSH2 0x564 DUP4 PUSH2 0x5B4 DUP7 PUSH1 0x40 MLOAD SWAP4 DUP5 SWAP4 PUSH1 0x40 DUP6 MSTORE DUP1 MLOAD PUSH2 0x4EC DUP2 PUSH2 0xFE3 JUMP JUMPDEST PUSH1 0x40 DUP7 ADD MSTORE PUSH1 0x20 DUP2 ADD MLOAD PUSH1 0x60 DUP7 ADD MSTORE PUSH1 0x40 DUP2 ADD MLOAD PUSH1 0x80 DUP7 ADD MSTORE PUSH1 0x60 DUP2 ADD MLOAD PUSH1 0xA0 DUP7 ADD MSTORE PUSH1 0x80 DUP2 ADD MLOAD PUSH1 0xC0 DUP7 ADD MSTORE PUSH1 0xE0 PUSH2 0x54F PUSH2 0x538 PUSH1 0xA0 DUP5 ADD MLOAD PUSH2 0x100 DUP5 DUP11 ADD MSTORE PUSH2 0x140 DUP10 ADD SWAP1 PUSH2 0x10CA JUMP JUMPDEST PUSH1 0xC0 DUP5 ADD MLOAD DUP9 DUP3 SUB PUSH1 0x3F NOT ADD PUSH2 0x100 DUP11 ADD MSTORE PUSH2 0x10CA JUMP JUMPDEST SWAP2 ADD MLOAD DUP6 DUP3 SUB PUSH1 0x3F NOT ADD PUSH2 0x120 DUP8 ADD MSTORE PUSH2 0xFBF JUMP JUMPDEST DUP4 DUP2 SUB PUSH1 0x20 DUP6 ADD MSTORE PUSH1 0x60 PUSH2 0x596 PUSH2 0x584 DUP5 MLOAD PUSH1 0x80 DUP6 MSTORE PUSH1 0x80 DUP6 ADD SWAP1 PUSH2 0xFBF JUMP JUMPDEST PUSH1 0x20 DUP6 ADD MLOAD DUP5 DUP3 SUB PUSH1 0x20 DUP7 ADD MSTORE PUSH2 0xFBF JUMP JUMPDEST SWAP3 PUSH1 0xFF PUSH1 0x40 DUP3 ADD MLOAD AND PUSH1 0x40 DUP5 ADD MSTORE ADD MLOAD SWAP1 PUSH1 0x60 DUP2 DUP5 SUB SWAP2 ADD MSTORE PUSH2 0xFBF JUMP JUMPDEST SUB SWAP1 RETURN JUMPDEST SWAP1 SWAP3 POP RETURNDATASIZE DUP1 DUP5 DUP4 RETURNDATACOPY PUSH2 0x5CA DUP2 DUP4 PUSH2 0xF19 JUMP JUMPDEST DUP2 ADD SWAP1 PUSH1 0x20 DUP2 DUP4 SUB SLT PUSH2 0x68B JUMPI DUP1 MLOAD SWAP1 PUSH1 0x1 PUSH1 0x1 PUSH1 0x40 SHL SUB DUP3 GT PUSH2 0x687 JUMPI ADD SWAP3 PUSH1 0x80 DUP5 DUP4 SUB SLT PUSH2 0x1FD JUMPI PUSH1 0x40 MLOAD SWAP4 PUSH2 0x601 DUP6 PUSH2 0xEE3 JUMP JUMPDEST DUP1 MLOAD PUSH1 0x1 PUSH1 0x1 PUSH1 0x40 SHL SUB DUP2 GT PUSH2 0x1B2 JUMPI DUP4 PUSH2 0x61D SWAP2 DUP4 ADD PUSH2 0x11FB JUMP JUMPDEST DUP6 MSTORE PUSH1 0x20 DUP2 ADD MLOAD PUSH1 0x1 PUSH1 0x1 PUSH1 0x40 SHL SUB DUP2 GT PUSH2 0x1B2 JUMPI DUP4 PUSH2 0x63E SWAP2 DUP4 ADD PUSH2 0x11FB JUMP JUMPDEST PUSH1 0x20 DUP7 ADD MSTORE PUSH2 0x64F PUSH1 0x40 DUP3 ADD PUSH2 0x1241 JUMP JUMPDEST PUSH1 0x40 DUP7 ADD MSTORE PUSH1 0x60 DUP2 ADD MLOAD SWAP2 PUSH1 0x1 PUSH1 0x1 PUSH1 0x40 SHL SUB DUP4 GT PUSH2 0x1FD JUMPI POP PUSH2 0x5B4 SWAP3 PUSH2 0x564 SWAP6 SWAP3 PUSH2 0x67C SWAP3 ADD PUSH2 0x11FB JUMP JUMPDEST PUSH1 0x60 DUP3 ADD MSTORE SWAP3 PUSH2 0x4CF JUMP JUMPDEST DUP5 DUP1 REVERT JUMPDEST DUP4 DUP1 REVERT JUMPDEST POP PUSH1 0x40 MLOAD SWAP1 RETURNDATASIZE SWAP1 DUP3 RETURNDATACOPY RETURNDATASIZE SWAP1 REVERT JUMPDEST SWAP1 SWAP3 POP RETURNDATASIZE DUP1 DUP6 DUP4 RETURNDATACOPY PUSH2 0x6AE DUP2 DUP4 PUSH2 0xF19 JUMP JUMPDEST DUP2 ADD SWAP1 PUSH1 0x20 DUP2 DUP4 SUB SLT PUSH2 0x687 JUMPI DUP1 MLOAD SWAP1 PUSH1 0x1 PUSH1 0x1 PUSH1 0x40 SHL SUB DUP3 GT PUSH2 0x799 JUMPI ADD SWAP1 PUSH2 0x100 DUP3 DUP3 SUB SLT PUSH2 0x687 JUMPI PUSH1 0x40 MLOAD SWAP2 PUSH2 0x6E6 DUP4 PUSH2 0xEB3 JUMP JUMPDEST DUP1 MLOAD PUSH1 0x4 DUP2 LT ISZERO PUSH2 0x3A8 JUMPI DUP4 MSTORE PUSH1 0x20 DUP2 ADD MLOAD PUSH1 0x20 DUP5 ADD MSTORE PUSH1 0x40 DUP2 ADD MLOAD PUSH1 0x40 DUP5 ADD MSTORE PUSH1 0x60 DUP2 ADD MLOAD PUSH1 0x60 DUP5 ADD MSTORE PUSH1 0x80 DUP2 ADD MLOAD PUSH1 0x80 DUP5 ADD MSTORE PUSH1 0xA0 DUP2 ADD MLOAD PUSH1 0x1 PUSH1 0x1 PUSH1 0x40 SHL SUB DUP2 GT PUSH2 0x3A8 JUMPI DUP3 PUSH2 0x73A SWAP2 DUP4 ADD PUSH2 0x13EF JUMP JUMPDEST PUSH1 0xA0 DUP5 ADD MSTORE PUSH1 0xC0 DUP2 ADD MLOAD PUSH1 0x1 PUSH1 0x1 PUSH1 0x40 SHL SUB DUP2 GT PUSH2 0x3A8 JUMPI DUP3 PUSH2 0x75E SWAP2 DUP4 ADD PUSH2 0x13EF JUMP JUMPDEST PUSH1 0xC0 DUP5 ADD MSTORE PUSH1 0xE0 DUP2 ADD MLOAD SWAP1 PUSH1 0x1 PUSH1 0x1 PUSH1 0x40 SHL SUB DUP3 GT PUSH2 0x3A8 JUMPI DUP7 SWAP5 SWAP3 PUSH2 0x4BD SWAP8 SWAP5 SWAP3 PUSH2 0x78A SWAP3 ADD PUSH2 0x11FB JUMP JUMPDEST PUSH1 0xE0 DUP3 ADD MSTORE SWAP4 SWAP2 POP SWAP2 SWAP4 PUSH2 0x492 JUMP JUMPDEST DUP6 DUP1 REVERT JUMPDEST POP CALLVALUE PUSH2 0x1FD JUMPI PUSH1 0x20 CALLDATASIZE PUSH1 0x3 NOT ADD SLT PUSH2 0x1FD JUMPI PUSH1 0x4 CALLDATALOAD PUSH1 0x1 PUSH1 0x1 PUSH1 0x40 SHL SUB DUP2 GT PUSH2 0x1FB JUMPI SWAP1 DUP1 PUSH2 0x7D3 PUSH2 0x801 SWAP4 CALLDATASIZE SWAP1 PUSH1 0x4 ADD PUSH2 0xF55 JUMP JUMPDEST PUSH1 0x1 DUP1 PUSH1 0xA0 SHL SUB PUSH1 0x1 SLOAD AND PUSH1 0x40 MLOAD DUP1 DUP1 SWAP7 DUP2 SWAP5 PUSH4 0x6D1AA7D5 PUSH1 0xE0 SHL DUP4 MSTORE PUSH1 0x20 PUSH1 0x4 DUP5 ADD MSTORE PUSH1 0x24 DUP4 ADD SWAP1 PUSH2 0xFBF JUMP JUMPDEST SUB SWAP2 GAS STATICCALL SWAP1 DUP2 ISZERO PUSH2 0x86E JUMPI DUP1 SWAP2 PUSH2 0x829 JUMPI JUMPDEST PUSH1 0x40 MLOAD PUSH1 0x20 DUP1 DUP3 MSTORE DUP2 SWAP1 PUSH2 0x5B4 SWAP1 DUP3 ADD DUP6 PUSH2 0xFBF JUMP JUMPDEST SWAP1 POP RETURNDATASIZE DUP1 DUP3 DUP5 RETURNDATACOPY PUSH2 0x83A DUP2 DUP5 PUSH2 0xF19 JUMP JUMPDEST DUP3 ADD SWAP2 PUSH1 0x20 DUP2 DUP5 SUB SLT PUSH2 0x1FB JUMPI DUP1 MLOAD SWAP2 PUSH1 0x1 PUSH1 0x1 PUSH1 0x40 SHL SUB DUP4 GT PUSH2 0x1FD JUMPI POP SWAP2 PUSH2 0x868 SWAP2 PUSH2 0x5B4 SWAP4 ADD PUSH2 0x11FB JUMP JUMPDEST PUSH0 PUSH2 0x813 JUMP JUMPDEST PUSH1 0x40 MLOAD SWAP1 RETURNDATASIZE SWAP1 DUP3 RETURNDATACOPY RETURNDATASIZE SWAP1 REVERT JUMPDEST POP CALLVALUE PUSH2 0x1FD JUMPI DUP1 PUSH1 0x3 NOT CALLDATASIZE ADD SLT PUSH2 0x1FD JUMPI PUSH1 0x1 SLOAD PUSH1 0x40 MLOAD PUSH4 0x1614181F PUSH1 0xE2 SHL DUP2 MSTORE SWAP1 DUP3 SWAP1 DUP3 SWAP1 PUSH1 0x4 SWAP1 DUP3 SWAP1 PUSH1 0x1 PUSH1 0x1 PUSH1 0xA0 SHL SUB AND GAS STATICCALL SWAP1 DUP2 ISZERO PUSH2 0x1B6 JUMPI DUP3 PUSH2 0x5B4 SWAP4 SWAP3 PUSH2 0x8D0 JUMPI JUMPDEST POP POP PUSH1 0x40 MLOAD SWAP2 DUP3 SWAP2 DUP3 PUSH2 0x1001 JUMP JUMPDEST PUSH2 0x8EC SWAP3 POP RETURNDATASIZE DUP1 SWAP2 DUP4 RETURNDATACOPY PUSH2 0x8E4 DUP2 DUP4 PUSH2 0xF19 JUMP JUMPDEST DUP2 ADD SWAP1 PUSH2 0x124F JUMP JUMPDEST PUSH0 DUP1 PUSH2 0x8C2 JUMP JUMPDEST POP CALLVALUE PUSH2 0x1FD JUMPI PUSH1 0x20 CALLDATASIZE PUSH1 0x3 NOT ADD SLT PUSH2 0x1FD JUMPI PUSH1 0x4 CALLDATALOAD DUP2 PUSH1 0x1 PUSH1 0x1 PUSH1 0x40 SHL SUB DUP3 GT PUSH2 0x1FD JUMPI PUSH2 0x928 PUSH2 0x956 SWAP3 CALLDATASIZE SWAP1 PUSH1 0x4 ADD PUSH2 0xF55 JUMP JUMPDEST PUSH1 0x1 DUP1 PUSH1 0xA0 SHL SUB PUSH1 0x1 SLOAD AND PUSH1 0x40 MLOAD DUP1 DUP1 SWAP6 DUP2 SWAP5 PUSH4 0x81FC60A5 PUSH1 0xE0 SHL DUP4 MSTORE PUSH1 0x20 PUSH1 0x4 DUP5 ADD MSTORE PUSH1 0x24 DUP4 ADD SWAP1 PUSH2 0xFBF JUMP JUMPDEST SUB SWAP2 GAS STATICCALL SWAP1 DUP2 ISZERO PUSH2 0x1B6 JUMPI DUP3 PUSH2 0x5B4 SWAP4 SWAP3 PUSH2 0x8D0 JUMPI POP POP PUSH1 0x40 MLOAD SWAP2 DUP3 SWAP2 DUP3 PUSH2 0x1001 JUMP JUMPDEST POP CALLVALUE PUSH2 0x1FD JUMPI PUSH1 0x60 CALLDATASIZE PUSH1 0x3 NOT ADD SLT PUSH2 0x1FD JUMPI PUSH1 0x4 CALLDATALOAD PUSH1 0x1 PUSH1 0x1 PUSH1 0x40 SHL SUB DUP2 GT PUSH2 0x1FB JUMPI PUSH1 0xA0 PUSH1 0x3 NOT DUP3 CALLDATASIZE SUB ADD SLT PUSH2 0x1FB JUMPI PUSH1 0x40 MLOAD PUSH1 0xA0 DUP2 ADD DUP2 DUP2 LT PUSH1 0x1 PUSH1 0x1 PUSH1 0x40 SHL SUB DUP3 GT OR PUSH2 0xC5F JUMPI PUSH1 0x40 MSTORE DUP2 PUSH1 0x4 ADD CALLDATALOAD PUSH1 0x1 PUSH1 0x1 PUSH1 0x40 SHL SUB DUP2 GT PUSH2 0x68B JUMPI PUSH2 0x9E9 SWAP1 PUSH1 0x4 CALLDATASIZE SWAP2 DUP6 ADD ADD PUSH2 0xF55 JUMP JUMPDEST DUP2 MSTORE PUSH1 0x24 DUP3 ADD CALLDATALOAD PUSH1 0x1 PUSH1 0x1 PUSH1 0x40 SHL SUB DUP2 GT PUSH2 0x68B JUMPI PUSH2 0xA0E SWAP1 PUSH1 0x4 CALLDATASIZE SWAP2 DUP6 ADD ADD PUSH2 0xF55 JUMP JUMPDEST SWAP2 PUSH1 0x20 DUP3 ADD SWAP3 DUP4 MSTORE DUP4 PUSH1 0x44 DUP3 ADD CALLDATALOAD PUSH1 0x1 PUSH1 0x1 PUSH1 0x40 SHL SUB DUP2 GT PUSH2 0x1FB JUMPI PUSH2 0xA3A SWAP1 PUSH1 0x4 CALLDATASIZE SWAP2 DUP6 ADD ADD PUSH2 0xF55 JUMP JUMPDEST PUSH1 0x40 DUP5 ADD SWAP1 DUP2 MSTORE PUSH1 0x64 DUP4 ADD CALLDATALOAD PUSH1 0x1 PUSH1 0x1 PUSH1 0x40 SHL SUB DUP2 GT PUSH2 0x1B2 JUMPI PUSH1 0x84 PUSH2 0xA69 PUSH2 0xA77 SWAP3 PUSH1 0x4 CALLDATASIZE SWAP2 DUP9 ADD ADD PUSH2 0xF55 JUMP JUMPDEST SWAP5 PUSH1 0x60 DUP8 ADD SWAP6 DUP7 MSTORE ADD PUSH2 0xF9B JUMP JUMPDEST SWAP1 PUSH1 0x80 DUP6 ADD SWAP2 DUP3 MSTORE PUSH1 0x24 CALLDATALOAD PUSH1 0x1 PUSH1 0x1 PUSH1 0x40 SHL SUB DUP2 GT PUSH2 0x68B JUMPI PUSH2 0xA9E SWAP1 CALLDATASIZE SWAP1 PUSH1 0x4 ADD PUSH2 0xF55 JUMP JUMPDEST SWAP1 PUSH1 0x44 CALLDATALOAD SWAP6 PUSH1 0xFF DUP8 AND DUP1 SWAP8 SUB PUSH2 0x687 JUMPI DUP5 SLOAD PUSH1 0x40 MLOAD PUSH4 0x95A8C58D PUSH1 0xE0 SHL DUP2 MSTORE CALLER PUSH1 0x4 DUP3 ADD MSTORE PUSH1 0x2 PUSH1 0x24 DUP3 ADD MSTORE SWAP1 PUSH1 0x20 SWAP1 DUP3 SWAP1 PUSH1 0x44 SWAP1 DUP3 SWAP1 PUSH1 0x1 PUSH1 0x1 PUSH1 0xA0 SHL SUB AND GAS STATICCALL DUP1 ISZERO PUSH2 0xC54 JUMPI PUSH2 0xAF7 SWAP2 DUP8 SWAP2 PUSH2 0xC35 JUMPI JUMPDEST POP PUSH2 0x11A4 JUMP JUMPDEST PUSH1 0x1 SLOAD SWAP1 MLOAD DUP9 MLOAD SWAP3 MLOAD DUP8 MLOAD SWAP6 MLOAD PUSH1 0x1 PUSH1 0x1 PUSH1 0xA0 SHL SUB SWAP1 DUP2 AND SWAP6 SWAP4 AND SWAP3 SWAP2 DUP4 EXTCODESIZE ISZERO PUSH2 0xC31 JUMPI PUSH2 0xBA2 DUP9 SWAP7 PUSH2 0xB55 SWAP5 PUSH2 0xB8B PUSH2 0xB67 SWAP11 PUSH2 0xB79 DUP12 SWAP8 PUSH1 0x40 MLOAD SWAP14 DUP15 SWAP13 DUP14 SWAP12 DUP13 SWAP11 PUSH4 0x173C921 PUSH1 0xE7 SHL DUP13 MSTORE PUSH1 0xC0 PUSH1 0x4 DUP14 ADD MSTORE PUSH1 0xC4 DUP13 ADD SWAP1 PUSH2 0xFBF JUMP JUMPDEST DUP11 DUP2 SUB PUSH1 0x3 NOT ADD PUSH1 0x24 DUP13 ADD MSTORE SWAP1 PUSH2 0xFBF JUMP JUMPDEST DUP9 DUP2 SUB PUSH1 0x3 NOT ADD PUSH1 0x44 DUP11 ADD MSTORE SWAP1 PUSH2 0xFBF JUMP JUMPDEST DUP7 DUP2 SUB PUSH1 0x3 NOT ADD PUSH1 0x64 DUP9 ADD MSTORE SWAP1 PUSH2 0xFBF JUMP JUMPDEST SWAP2 PUSH1 0x84 DUP6 ADD MSTORE PUSH1 0x3 NOT DUP5 DUP4 SUB ADD PUSH1 0xA4 DUP6 ADD MSTORE PUSH2 0xFBF JUMP JUMPDEST SUB SWAP3 GAS CALL DUP1 ISZERO PUSH2 0x1B6 JUMPI PUSH2 0xC18 JUMPI JUMPDEST POP SWAP3 PUSH2 0xC0C PUSH32 0x5A6DE087E789907358535425669E4F40D3B814F0DB7EFF0CBC6CD0EF46F88F63 SWAP4 PUSH2 0xBF3 SWAP4 MLOAD SWAP3 MLOAD PUSH1 0x40 MLOAD SWAP5 DUP6 SWAP5 PUSH1 0xA0 DUP7 MSTORE PUSH1 0xA0 DUP7 ADD SWAP1 PUSH2 0xFBF JUMP JUMPDEST SWAP2 CALLER PUSH1 0x20 DUP7 ADD MSTORE PUSH1 0x40 DUP6 ADD MSTORE DUP4 DUP3 SUB PUSH1 0x60 DUP6 ADD MSTORE PUSH2 0xFBF JUMP JUMPDEST TIMESTAMP PUSH1 0x80 DUP4 ADD MSTORE SUB SWAP1 LOG1 DUP1 RETURN JUMPDEST DUP2 PUSH2 0xC25 SWAP2 SWAP6 SWAP4 SWAP6 PUSH2 0xF19 JUMP JUMPDEST PUSH2 0x68B JUMPI SWAP2 DUP4 PUSH0 PUSH2 0xBB1 JUMP JUMPDEST DUP8 DUP1 REVERT JUMPDEST PUSH2 0xC4E SWAP2 POP PUSH1 0x20 RETURNDATASIZE PUSH1 0x20 GT PUSH2 0x1E9 JUMPI PUSH2 0x1DB DUP2 DUP4 PUSH2 0xF19 JUMP JUMPDEST PUSH0 PUSH2 0xAF1 JUMP JUMPDEST PUSH1 0x40 MLOAD RETURNDATASIZE DUP9 DUP3 RETURNDATACOPY RETURNDATASIZE SWAP1 REVERT JUMPDEST PUSH4 0x4E487B71 PUSH1 0xE0 SHL DUP5 MSTORE PUSH1 0x41 PUSH1 0x4 MSTORE PUSH1 0x24 DUP5 REVERT JUMPDEST POP CALLVALUE PUSH2 0xEAF JUMPI PUSH1 0xC0 CALLDATASIZE PUSH1 0x3 NOT ADD SLT PUSH2 0xEAF JUMPI PUSH1 0x4 CALLDATALOAD PUSH1 0x1 PUSH1 0x1 PUSH1 0x40 SHL SUB DUP2 GT PUSH2 0xEAF JUMPI PUSH2 0xCA4 SWAP1 CALLDATASIZE SWAP1 PUSH1 0x4 ADD PUSH2 0xF55 JUMP JUMPDEST PUSH1 0x24 CALLDATALOAD PUSH1 0x1 PUSH1 0x1 PUSH1 0x40 SHL SUB DUP2 GT PUSH2 0xEAF JUMPI PUSH2 0xCC3 SWAP1 CALLDATASIZE SWAP1 PUSH1 0x4 ADD PUSH2 0xF55 JUMP JUMPDEST SWAP1 PUSH1 0x44 CALLDATALOAD PUSH1 0x1 PUSH1 0x1 PUSH1 0x40 SHL SUB DUP2 GT PUSH2 0xEAF JUMPI PUSH2 0xCE3 SWAP1 CALLDATASIZE SWAP1 PUSH1 0x4 ADD PUSH2 0xF55 JUMP JUMPDEST SWAP2 PUSH1 0x64 CALLDATALOAD PUSH1 0x1 PUSH1 0x1 PUSH1 0x40 SHL SUB DUP2 GT PUSH2 0xEAF JUMPI PUSH2 0xD03 SWAP1 CALLDATASIZE SWAP1 PUSH1 0x4 ADD PUSH2 0xF55 JUMP JUMPDEST SWAP3 PUSH1 0x84 CALLDATALOAD PUSH1 0x1 PUSH1 0x1 PUSH1 0xA0 SHL SUB DUP2 AND SWAP4 SWAP1 DUP5 SWAP1 SUB PUSH2 0xEAF JUMPI PUSH1 0xA4 CALLDATALOAD SWAP4 PUSH1 0xFF DUP6 AND DUP1 SWAP6 SUB PUSH2 0xEAF JUMPI PUSH0 SLOAD PUSH1 0x40 MLOAD PUSH4 0x95A8C58D PUSH1 0xE0 SHL DUP2 MSTORE CALLER PUSH1 0x4 DUP3 ADD MSTORE PUSH1 0x2 PUSH1 0x24 DUP3 ADD MSTORE SWAP1 PUSH1 0x20 SWAP1 DUP3 SWAP1 PUSH1 0x44 SWAP1 DUP3 SWAP1 PUSH1 0x1 PUSH1 0x1 PUSH1 0xA0 SHL SUB AND GAS STATICCALL DUP1 ISZERO PUSH2 0xEA4 JUMPI PUSH2 0xD71 SWAP2 PUSH0 SWAP2 PUSH2 0xC35 JUMPI POP PUSH2 0x11A4 JUMP JUMPDEST PUSH1 0x1 SLOAD PUSH1 0x1 PUSH1 0x1 PUSH1 0xA0 SHL SUB AND DUP1 EXTCODESIZE ISZERO PUSH2 0xEAF JUMPI PUSH2 0xDB9 PUSH0 DUP1 SWAP5 PUSH2 0xDCB SWAP5 PUSH2 0xDEF PUSH2 0xDDD PUSH1 0x40 MLOAD SWAP10 DUP11 SWAP9 DUP10 SWAP8 DUP9 SWAP7 PUSH4 0xE462DDE5 PUSH1 0xE0 SHL DUP9 MSTORE PUSH1 0xA0 PUSH1 0x4 DUP10 ADD MSTORE PUSH1 0xA4 DUP9 ADD SWAP1 PUSH2 0xFBF JUMP JUMPDEST DUP7 DUP2 SUB PUSH1 0x3 NOT ADD PUSH1 0x24 DUP9 ADD MSTORE DUP14 PUSH2 0xFBF JUMP JUMPDEST DUP6 DUP2 SUB PUSH1 0x3 NOT ADD PUSH1 0x44 DUP8 ADD MSTORE SWAP1 PUSH2 0xFBF JUMP JUMPDEST DUP4 DUP2 SUB PUSH1 0x3 NOT ADD PUSH1 0x64 DUP6 ADD MSTORE DUP13 PUSH2 0xFBF JUMP JUMPDEST SWAP1 PUSH1 0x84 DUP4 ADD MSTORE SUB SWAP3 GAS CALL DUP1 ISZERO PUSH2 0xEA4 JUMPI PUSH2 0xE62 JUMPI JUMPDEST POP SWAP2 PUSH2 0x197 PUSH2 0xE43 SWAP3 PUSH32 0x49CCC40643C62B9BA169985FBC04F29649AA4962D40FD63A85A56083C58B1CC6 SWAP5 PUSH1 0x40 MLOAD SWAP5 DUP6 SWAP5 PUSH1 0xA0 DUP7 MSTORE PUSH1 0xA0 DUP7 ADD SWAP1 PUSH2 0xFBF JUMP JUMPDEST SWAP2 CALLER PUSH1 0x20 DUP7 ADD MSTORE PUSH1 0x40 DUP6 ADD MSTORE TIMESTAMP PUSH1 0x60 DUP6 ADD MSTORE DUP4 DUP3 SUB PUSH1 0x80 DUP6 ADD MSTORE PUSH2 0xFBF JUMP JUMPDEST PUSH32 0x49CCC40643C62B9BA169985FBC04F29649AA4962D40FD63A85A56083C58B1CC6 SWAP4 SWAP2 SWAP5 POP PUSH2 0xE43 SWAP3 PUSH2 0xE98 PUSH0 PUSH2 0x197 SWAP4 PUSH2 0xF19 JUMP JUMPDEST PUSH0 SWAP6 SWAP3 SWAP5 POP SWAP3 POP PUSH2 0xE04 JUMP JUMPDEST PUSH1 0x40 MLOAD RETURNDATASIZE PUSH0 DUP3 RETURNDATACOPY RETURNDATASIZE SWAP1 REVERT JUMPDEST PUSH0 DUP1 REVERT JUMPDEST PUSH2 0x100 DUP2 ADD SWAP1 DUP2 LT PUSH1 0x1 PUSH1 0x1 PUSH1 0x40 SHL SUB DUP3 GT OR PUSH2 0xECF JUMPI PUSH1 0x40 MSTORE JUMP JUMPDEST PUSH4 0x4E487B71 PUSH1 0xE0 SHL PUSH0 MSTORE PUSH1 0x41 PUSH1 0x4 MSTORE PUSH1 0x24 PUSH0 REVERT JUMPDEST PUSH1 0x80 DUP2 ADD SWAP1 DUP2 LT PUSH1 0x1 PUSH1 0x1 PUSH1 0x40 SHL SUB DUP3 GT OR PUSH2 0xECF JUMPI PUSH1 0x40 MSTORE JUMP JUMPDEST PUSH1 0x60 DUP2 ADD SWAP1 DUP2 LT PUSH1 0x1 PUSH1 0x1 PUSH1 0x40 SHL SUB DUP3 GT OR PUSH2 0xECF JUMPI PUSH1 0x40 MSTORE JUMP JUMPDEST SWAP1 PUSH1 0x1F DUP1 NOT SWAP2 ADD AND DUP2 ADD SWAP1 DUP2 LT PUSH1 0x1 PUSH1 0x1 PUSH1 0x40 SHL SUB DUP3 GT OR PUSH2 0xECF JUMPI PUSH1 0x40 MSTORE JUMP JUMPDEST PUSH1 0x1 PUSH1 0x1 PUSH1 0x40 SHL SUB DUP2 GT PUSH2 0xECF JUMPI PUSH1 0x1F ADD PUSH1 0x1F NOT AND PUSH1 0x20 ADD SWAP1 JUMP JUMPDEST DUP2 PUSH1 0x1F DUP3 ADD SLT ISZERO PUSH2 0xEAF JUMPI DUP1 CALLDATALOAD SWAP1 PUSH2 0xF6C DUP3 PUSH2 0xF3A JUMP JUMPDEST SWAP3 PUSH2 0xF7A PUSH1 0x40 MLOAD SWAP5 DUP6 PUSH2 0xF19 JUMP JUMPDEST DUP3 DUP5 MSTORE PUSH1 0x20 DUP4 DUP4 ADD ADD GT PUSH2 0xEAF JUMPI DUP2 PUSH0 SWAP3 PUSH1 0x20 DUP1 SWAP4 ADD DUP4 DUP7 ADD CALLDATACOPY DUP4 ADD ADD MSTORE SWAP1 JUMP JUMPDEST CALLDATALOAD SWAP1 PUSH1 0x1 PUSH1 0x1 PUSH1 0xA0 SHL SUB DUP3 AND DUP3 SUB PUSH2 0xEAF JUMPI JUMP JUMPDEST PUSH1 0x24 CALLDATALOAD SWAP1 PUSH1 0xFF DUP3 AND DUP3 SUB PUSH2 0xEAF JUMPI JUMP JUMPDEST DUP1 MLOAD DUP1 DUP4 MSTORE PUSH1 0x20 SWAP3 SWAP2 DUP2 SWAP1 DUP5 ADD DUP5 DUP5 ADD MCOPY PUSH0 DUP3 DUP3 ADD DUP5 ADD MSTORE PUSH1 0x1F ADD PUSH1 0x1F NOT AND ADD ADD SWAP1 JUMP JUMPDEST PUSH1 0x4 GT ISZERO PUSH2 0xFED JUMPI JUMP JUMPDEST PUSH4 0x4E487B71 PUSH1 0xE0 SHL PUSH0 MSTORE PUSH1 0x21 PUSH1 0x4 MSTORE PUSH1 0x24 PUSH0 REVERT JUMPDEST PUSH1 0x20 DUP2 ADD PUSH1 0x20 DUP3 MSTORE DUP3 MLOAD DUP1 SWAP2 MSTORE PUSH1 0x40 DUP3 ADD SWAP2 PUSH1 0x20 PUSH1 0x40 DUP4 PUSH1 0x5 SHL DUP4 ADD ADD SWAP5 ADD SWAP3 PUSH0 SWAP2 JUMPDEST DUP4 DUP4 LT PUSH2 0x1033 JUMPI POP POP POP POP POP SWAP1 JUMP JUMPDEST SWAP1 SWAP2 SWAP3 SWAP4 SWAP5 PUSH1 0x20 DUP1 PUSH2 0x10BB PUSH1 0x1 SWAP4 PUSH1 0x3F NOT DUP7 DUP3 SUB ADD DUP8 MSTORE DUP10 MLOAD SWAP1 PUSH1 0xA0 PUSH2 0x108A PUSH2 0x1078 PUSH2 0x1068 DUP6 MLOAD PUSH1 0xC0 DUP7 MSTORE PUSH1 0xC0 DUP7 ADD SWAP1 PUSH2 0xFBF JUMP JUMPDEST DUP8 DUP7 ADD MLOAD DUP6 DUP3 SUB DUP10 DUP8 ADD MSTORE PUSH2 0xFBF JUMP JUMPDEST PUSH1 0x40 DUP6 ADD MLOAD DUP5 DUP3 SUB PUSH1 0x40 DUP7 ADD MSTORE PUSH2 0xFBF JUMP JUMPDEST SWAP3 PUSH1 0xFF PUSH1 0x60 DUP3 ADD MLOAD AND PUSH1 0x60 DUP5 ADD MSTORE PUSH1 0x80 DUP2 ADD MLOAD PUSH2 0x10A6 DUP2 PUSH2 0xFE3 JUMP JUMPDEST PUSH1 0x80 DUP5 ADD MSTORE ADD MLOAD SWAP1 PUSH1 0xA0 DUP2 DUP5 SUB SWAP2 ADD MSTORE PUSH2 0xFBF JUMP JUMPDEST SWAP8 ADD SWAP4 ADD SWAP4 ADD SWAP2 SWAP4 SWAP3 SWAP1 PUSH2 0x1024 JUMP JUMPDEST SWAP1 PUSH1 0x40 PUSH2 0x10E3 PUSH2 0x584 DUP5 MLOAD PUSH1 0x60 DUP6 MSTORE PUSH1 0x60 DUP6 ADD SWAP1 PUSH2 0xFBF JUMP JUMPDEST SWAP3 DUP2 ADD MLOAD PUSH1 0x1 PUSH1 0x1 PUSH1 0xA0 SHL SUB AND SWAP2 ADD MSTORE SWAP1 JUMP JUMPDEST SWAP2 SWAP1 SWAP2 PUSH1 0x80 DUP2 DUP5 SUB SLT PUSH2 0xEAF JUMPI PUSH1 0x40 MLOAD SWAP1 PUSH2 0x1110 DUP3 PUSH2 0xEE3 JUMP JUMPDEST DUP2 SWAP4 DUP2 CALLDATALOAD PUSH1 0x1 PUSH1 0x1 PUSH1 0x40 SHL SUB DUP2 GT PUSH2 0xEAF JUMPI DUP2 PUSH2 0x112E SWAP2 DUP5 ADD PUSH2 0xF55 JUMP JUMPDEST DUP4 MSTORE PUSH1 0x20 DUP3 ADD CALLDATALOAD PUSH1 0x1 PUSH1 0x1 PUSH1 0x40 SHL SUB DUP2 GT PUSH2 0xEAF JUMPI DUP2 PUSH2 0x114F SWAP2 DUP5 ADD PUSH2 0xF55 JUMP JUMPDEST PUSH1 0x20 DUP5 ADD MSTORE PUSH1 0x40 DUP3 ADD CALLDATALOAD SWAP1 PUSH1 0x1 PUSH1 0x1 PUSH1 0x40 SHL SUB DUP3 GT PUSH2 0xEAF JUMPI DUP3 PUSH2 0x117C PUSH1 0x60 SWAP5 SWAP3 PUSH2 0x1187 SWAP5 DUP7 SWAP5 ADD PUSH2 0xF55 JUMP JUMPDEST PUSH1 0x40 DUP7 ADD MSTORE ADD PUSH2 0xF9B JUMP JUMPDEST SWAP2 ADD MSTORE JUMP JUMPDEST SWAP1 DUP2 PUSH1 0x20 SWAP2 SUB SLT PUSH2 0xEAF JUMPI MLOAD DUP1 ISZERO ISZERO DUP2 SUB PUSH2 0xEAF JUMPI SWAP1 JUMP JUMPDEST ISZERO PUSH2 0x11AB JUMPI JUMP JUMPDEST PUSH1 0x40 MLOAD PUSH3 0x461BCD PUSH1 0xE5 SHL DUP2 MSTORE PUSH1 0x20 PUSH1 0x4 DUP3 ADD MSTORE PUSH1 0x22 PUSH1 0x24 DUP3 ADD MSTORE PUSH32 0x4F6E6C792042504F4D2063616E20646F2074686973207472616E73616374696F PUSH1 0x44 DUP3 ADD MSTORE PUSH2 0x6E21 PUSH1 0xF0 SHL PUSH1 0x64 DUP3 ADD MSTORE PUSH1 0x84 SWAP1 REVERT JUMPDEST DUP2 PUSH1 0x1F DUP3 ADD SLT ISZERO PUSH2 0xEAF JUMPI DUP1 MLOAD SWAP1 PUSH2 0x1212 DUP3 PUSH2 0xF3A JUMP JUMPDEST SWAP3 PUSH2 0x1220 PUSH1 0x40 MLOAD SWAP5 DUP6 PUSH2 0xF19 JUMP JUMPDEST DUP3 DUP5 MSTORE PUSH1 0x20 DUP4 DUP4 ADD ADD GT PUSH2 0xEAF JUMPI DUP2 PUSH0 SWAP3 PUSH1 0x20 DUP1 SWAP4 ADD DUP4 DUP7 ADD MCOPY DUP4 ADD ADD MSTORE SWAP1 JUMP JUMPDEST MLOAD SWAP1 PUSH1 0xFF DUP3 AND DUP3 SUB PUSH2 0xEAF JUMPI JUMP JUMPDEST PUSH1 0x20 DUP2 DUP4 SUB SLT PUSH2 0xEAF JUMPI DUP1 MLOAD SWAP1 PUSH1 0x1 PUSH1 0x1 PUSH1 0x40 SHL SUB DUP3 GT PUSH2 0xEAF JUMPI ADD SWAP1 DUP1 PUSH1 0x1F DUP4 ADD SLT ISZERO PUSH2 0xEAF JUMPI DUP2 MLOAD SWAP2 PUSH1 0x1 PUSH1 0x1 PUSH1 0x40 SHL SUB DUP4 GT PUSH2 0xECF JUMPI DUP3 PUSH1 0x5 SHL PUSH1 0x40 MLOAD SWAP4 PUSH2 0x129D PUSH1 0x20 DUP4 ADD DUP7 PUSH2 0xF19 JUMP JUMPDEST DUP5 MSTORE PUSH1 0x20 DUP1 DUP6 ADD SWAP2 DUP4 ADD ADD SWAP2 DUP4 DUP4 GT PUSH2 0xEAF JUMPI PUSH1 0x20 DUP2 ADD SWAP2 JUMPDEST DUP4 DUP4 LT PUSH2 0x12C5 JUMPI POP POP POP POP POP SWAP1 JUMP JUMPDEST DUP3 MLOAD PUSH1 0x1 PUSH1 0x1 PUSH1 0x40 SHL SUB DUP2 GT PUSH2 0xEAF JUMPI DUP3 ADD SWAP1 PUSH1 0xC0 DUP3 DUP8 SUB PUSH1 0x1F NOT ADD SLT PUSH2 0xEAF JUMPI PUSH1 0x40 MLOAD SWAP1 PUSH1 0xC0 DUP3 ADD DUP3 DUP2 LT PUSH1 0x1 PUSH1 0x1 PUSH1 0x40 SHL SUB DUP3 GT OR PUSH2 0xECF JUMPI PUSH1 0x40 MSTORE PUSH1 0x20 DUP4 ADD MLOAD PUSH1 0x1 PUSH1 0x1 PUSH1 0x40 SHL SUB DUP2 GT PUSH2 0xEAF JUMPI DUP8 PUSH1 0x20 PUSH2 0x1325 SWAP3 DUP7 ADD ADD PUSH2 0x11FB JUMP JUMPDEST DUP3 MSTORE PUSH1 0x40 DUP4 ADD MLOAD PUSH1 0x1 PUSH1 0x1 PUSH1 0x40 SHL SUB DUP2 GT PUSH2 0xEAF JUMPI DUP8 PUSH1 0x20 PUSH2 0x1349 SWAP3 DUP7 ADD ADD PUSH2 0x11FB JUMP JUMPDEST PUSH1 0x20 DUP4 ADD MSTORE PUSH1 0x60 DUP4 ADD MLOAD PUSH1 0x1 PUSH1 0x1 PUSH1 0x40 SHL SUB DUP2 GT PUSH2 0xEAF JUMPI DUP8 PUSH1 0x20 PUSH2 0x1370 SWAP3 DUP7 ADD ADD PUSH2 0x11FB JUMP JUMPDEST PUSH1 0x40 DUP4 ADD MSTORE PUSH2 0x1381 PUSH1 0x80 DUP5 ADD PUSH2 0x1241 JUMP JUMPDEST PUSH1 0x60 DUP4 ADD MSTORE PUSH1 0xA0 DUP4 ADD MLOAD PUSH1 0x4 DUP2 LT ISZERO PUSH2 0xEAF JUMPI PUSH1 0x80 DUP4 ADD MSTORE PUSH1 0xC0 DUP4 ADD MLOAD SWAP2 PUSH1 0x1 PUSH1 0x1 PUSH1 0x40 SHL SUB DUP4 GT PUSH2 0xEAF JUMPI PUSH2 0x13BF DUP9 PUSH1 0x20 DUP1 SWAP7 SWAP6 DUP2 SWAP7 ADD ADD PUSH2 0x11FB JUMP JUMPDEST PUSH1 0xA0 DUP3 ADD MSTORE DUP2 MSTORE ADD SWAP3 ADD SWAP2 PUSH2 0x12B6 JUMP JUMPDEST PUSH1 0x40 MLOAD SWAP1 PUSH2 0x13DC DUP3 PUSH2 0xEFE JUMP JUMPDEST PUSH0 PUSH1 0x40 DUP4 PUSH1 0x60 DUP2 MSTORE PUSH1 0x60 PUSH1 0x20 DUP3 ADD MSTORE ADD MSTORE JUMP JUMPDEST SWAP2 SWAP1 PUSH1 0x60 DUP4 DUP3 SUB SLT PUSH2 0xEAF JUMPI PUSH1 0x40 MLOAD SWAP1 PUSH2 0x1408 DUP3 PUSH2 0xEFE JUMP JUMPDEST DUP2 SWAP4 DUP1 MLOAD PUSH1 0x1 PUSH1 0x1 PUSH1 0x40 SHL SUB DUP2 GT PUSH2 0xEAF JUMPI DUP3 PUSH2 0x1426 SWAP2 DUP4 ADD PUSH2 0x11FB JUMP JUMPDEST DUP4 MSTORE PUSH1 0x20 DUP2 ADD MLOAD PUSH1 0x1 PUSH1 0x1 PUSH1 0x40 SHL SUB DUP2 GT PUSH2 0xEAF JUMPI PUSH1 0x40 SWAP3 PUSH2 0x1449 SWAP2 DUP4 ADD PUSH2 0x11FB JUMP JUMPDEST PUSH1 0x20 DUP5 ADD MSTORE ADD MLOAD SWAP1 PUSH1 0x1 PUSH1 0x1 PUSH1 0xA0 SHL SUB DUP3 AND DUP3 SUB PUSH2 0xEAF JUMPI PUSH1 0x40 ADD MSTORE JUMP JUMPDEST ISZERO PUSH2 0x146E JUMPI JUMP JUMPDEST PUSH1 0x40 MLOAD PUSH3 0x461BCD PUSH1 0xE5 SHL DUP2 MSTORE PUSH1 0x20 PUSH1 0x4 DUP3 ADD MSTORE PUSH1 0x25 PUSH1 0x24 DUP3 ADD MSTORE PUSH32 0x4F6E6C7920466163746F72792063616E20646F2074686973207472616E736163 PUSH1 0x44 DUP3 ADD MSTORE PUSH5 0x74696F6E21 PUSH1 0xD8 SHL PUSH1 0x64 DUP3 ADD MSTORE PUSH1 0x84 SWAP1 REVERT JUMPDEST SWAP1 PUSH1 0x60 SWAP3 SWAP6 SWAP5 SWAP4 PUSH2 0x14DC PUSH1 0xFF SWAP3 PUSH1 0x80 DUP6 MSTORE PUSH1 0x80 DUP6 ADD SWAP1 PUSH2 0xFBF JUMP JUMPDEST PUSH1 0x1 PUSH1 0x1 PUSH1 0xA0 SHL SUB SWAP1 SWAP8 AND PUSH1 0x20 DUP5 ADD MSTORE AND PUSH1 0x40 DUP3 ADD MSTORE ADD MSTORE JUMP INVALID LOG2 PUSH5 0x6970667358 0x22 SLT KECCAK256 DUP3 PC SWAP3 0x23 PUSH32 0xFEAD739C459FE4408C7082E2695FD92F9B29640A7D355CA1BD81D764736F6C63 NUMBER STOP ADDMOD SHL STOP CALLER "},"methodIdentifiers":{"approveCpotb((string,string,string,string,address),string,uint8)":"4e03317b","getAllCpotb()":"5850607c","getCpotbByInstance(string)":"51c2d326","getCpotbDetails(string)":"70c056b0","getRejectMsg(string)":"6d1aa7d5","rejectCpotb(string,string,string,string,address,uint8)":"39a102f2","renewCpotb((string,string,string,address),uint8)":"ec7970ba","requestCpotb((string,string,string,address),uint8,string)":"ac2e8e5a"}}}}}