{"contracts/NieManager.sol":{"NieManager":{"abi":[{"inputs":[{"internalType":"address","name":"roleManagerAddr","type":"address"}],"stateMutability":"nonpayable","type":"constructor"},{"anonymous":false,"inputs":[{"indexed":false,"internalType":"string","name":"bpomInstance","type":"string"},{"indexed":false,"internalType":"address","name":"bpomAddr","type":"address"},{"indexed":false,"internalType":"string","name":"nieNumber","type":"string"},{"indexed":false,"internalType":"uint256","name":"tiemstamp","type":"uint256"}],"name":"NieApproved","type":"event"},{"anonymous":false,"inputs":[{"indexed":false,"internalType":"address","name":"factoryAddr","type":"address"},{"indexed":false,"internalType":"uint256","name":"timestamp","type":"uint256"}],"name":"NieApprovedExtendRequest","type":"event"},{"anonymous":false,"inputs":[{"indexed":false,"internalType":"address","name":"factoryAddr","type":"address"},{"indexed":false,"internalType":"uint256","name":"timestamp","type":"uint256"}],"name":"NieExtendRequest","type":"event"},{"anonymous":false,"inputs":[{"indexed":false,"internalType":"address","name":"bpomAddr","type":"address"},{"indexed":false,"internalType":"string","name":"rejectMsg","type":"string"},{"indexed":false,"internalType":"uint256","name":"tiemstamp","type":"uint256"}],"name":"NieRejectExtend","type":"event"},{"anonymous":false,"inputs":[{"indexed":false,"internalType":"string","name":"bpomInstance","type":"string"},{"indexed":false,"internalType":"address","name":"bpomAddr","type":"address"},{"indexed":false,"internalType":"string","name":"rejectMsg","type":"string"},{"indexed":false,"internalType":"uint256","name":"tiemstamp","type":"uint256"}],"name":"NieRejected","type":"event"},{"anonymous":false,"inputs":[{"indexed":false,"internalType":"address","name":"factoryAddr","type":"address"},{"indexed":false,"internalType":"uint256","name":"timestamp","type":"uint256"}],"name":"NieRenewExtend","type":"event"},{"anonymous":false,"inputs":[{"indexed":false,"internalType":"string","name":"factoryInstance","type":"string"},{"indexed":false,"internalType":"address","name":"factoryAddr","type":"address"},{"indexed":false,"internalType":"uint256","name":"timestamp","type":"uint256"}],"name":"NieRenewRequest","type":"event"},{"anonymous":false,"inputs":[{"indexed":false,"internalType":"string","name":"factoryInstance","type":"string"},{"indexed":false,"internalType":"address","name":"factoryAddr","type":"address"},{"indexed":false,"internalType":"uint256","name":"timestamp","type":"uint256"}],"name":"NieRequested","type":"event"},{"inputs":[{"internalType":"string","name":"obatId","type":"string"},{"internalType":"string","name":"ipfsNie","type":"string"}],"name":"approveExtendRequestNie","outputs":[],"stateMutability":"nonpayable","type":"function"},{"inputs":[{"internalType":"string","name":"obatId","type":"string"},{"internalType":"string","name":"nieNumber","type":"string"},{"internalType":"string","name":"bpomInstance","type":"string"},{"internalType":"string","name":"ipfsNie","type":"string"}],"name":"approveNie","outputs":[],"stateMutability":"nonpayable","type":"function"},{"inputs":[{"internalType":"string","name":"obatId","type":"string"},{"internalType":"string","name":"factoryInstance","type":"string"}],"name":"createObatNie","outputs":[],"stateMutability":"nonpayable","type":"function"},{"inputs":[{"internalType":"string","name":"","type":"string"}],"name":"dokuObatById","outputs":[{"internalType":"string","name":"masterFormula","type":"string"},{"internalType":"string","name":"suratKuasa","type":"string"},{"internalType":"string","name":"suratPernyataan","type":"string"},{"internalType":"string","name":"komposisiProduk","type":"string"},{"internalType":"string","name":"caraPembuatanProduk","type":"string"},{"internalType":"string","name":"spesifikasiKemasan","type":"string"},{"internalType":"string","name":"hasilUjiStabilitas","type":"string"}],"stateMutability":"view","type":"function"},{"inputs":[{"internalType":"string","name":"","type":"string"}],"name":"dokuPendukungById","outputs":[{"internalType":"string","name":"sertifikatAnalisaBahanBaku","type":"string"},{"internalType":"string","name":"sertifikatAnalisaProdukJadi","type":"string"},{"internalType":"string","name":"spesifikasiProdukJadi","type":"string"},{"internalType":"string","name":"sistemPenomoranBets","type":"string"},{"internalType":"string","name":"desainKemasan","type":"string"},{"internalType":"string","name":"dataPendukungKeamanan","type":"string"}],"stateMutability":"view","type":"function"},{"inputs":[{"internalType":"string","name":"","type":"string"}],"name":"dokuRegisUlangById","outputs":[{"internalType":"string","name":"formulaProdukMetrik","type":"string"},{"internalType":"string","name":"skPersetujuanVariasi","type":"string"},{"internalType":"string","name":"desainKemasanTerakhir","type":"string"},{"internalType":"string","name":"suratPernyataanPeredaran","type":"string"},{"internalType":"string","name":"desainKemasanBerwarna","type":"string"}],"stateMutability":"view","type":"function"},{"inputs":[{"internalType":"string","name":"obatId","type":"string"},{"components":[{"internalType":"string","name":"formulaProdukMetrik","type":"string"},{"internalType":"string","name":"skPersetujuanVariasi","type":"string"},{"internalType":"string","name":"desainKemasanTerakhir","type":"string"},{"internalType":"string","name":"suratPernyataanPeredaran","type":"string"},{"internalType":"string","name":"desainKemasanBerwarna","type":"string"}],"internalType":"struct NieManager.DokumenRegisUlang","name":"newDoku","type":"tuple"}],"name":"extendRenewRequestNie","outputs":[],"stateMutability":"nonpayable","type":"function"},{"inputs":[{"internalType":"string","name":"obatId","type":"string"},{"internalType":"uint256","name":"expiredTimestamp","type":"uint256"},{"components":[{"internalType":"string","name":"formulaProdukMetrik","type":"string"},{"internalType":"string","name":"skPersetujuanVariasi","type":"string"},{"internalType":"string","name":"desainKemasanTerakhir","type":"string"},{"internalType":"string","name":"suratPernyataanPeredaran","type":"string"},{"internalType":"string","name":"desainKemasanBerwarna","type":"string"}],"internalType":"struct NieManager.DokumenRegisUlang","name":"newDoku","type":"tuple"}],"name":"extendRequestNie","outputs":[],"stateMutability":"nonpayable","type":"function"},{"inputs":[{"internalType":"string","name":"obatId","type":"string"}],"name":"getNieDetail","outputs":[{"components":[{"internalType":"string","name":"nieNumber","type":"string"},{"internalType":"enum EnumsLibrary.NieStatus","name":"nieStatus","type":"uint8"},{"internalType":"uint256","name":"timestampProduction","type":"uint256"},{"internalType":"uint256","name":"timestampNieRequest","type":"uint256"},{"internalType":"uint256","name":"timestampNieApprove","type":"uint256"},{"internalType":"uint256","name":"timestampNieRejected","type":"uint256"},{"internalType":"uint256","name":"timestampNieRenewRequest","type":"uint256"},{"internalType":"uint256","name":"timestampNieExpired","type":"uint256"},{"internalType":"uint256","name":"timestampNieExtendRequest","type":"uint256"},{"internalType":"uint256","name":"timestampNieExtendApprove","type":"uint256"},{"internalType":"uint256","name":"timestampNieExtendReject","type":"uint256"},{"internalType":"uint256","name":"timestampNieExtendRenew","type":"uint256"},{"internalType":"string","name":"factoryInstance","type":"string"},{"internalType":"string","name":"bpomInstance","type":"string"},{"internalType":"address","name":"bpomAddr","type":"address"},{"internalType":"string","name":"nieIpfs","type":"string"}],"internalType":"struct NieManager.NieDetail","name":"","type":"tuple"},{"components":[{"internalType":"string","name":"masterFormula","type":"string"},{"internalType":"string","name":"suratKuasa","type":"string"},{"internalType":"string","name":"suratPernyataan","type":"string"},{"internalType":"string","name":"komposisiProduk","type":"string"},{"internalType":"string","name":"caraPembuatanProduk","type":"string"},{"internalType":"string","name":"spesifikasiKemasan","type":"string"},{"internalType":"string","name":"hasilUjiStabilitas","type":"string"}],"internalType":"struct NieManager.DokumenObat","name":"","type":"tuple"},{"components":[{"internalType":"string","name":"sertifikatAnalisaBahanBaku","type":"string"},{"internalType":"string","name":"sertifikatAnalisaProdukJadi","type":"string"},{"internalType":"string","name":"spesifikasiProdukJadi","type":"string"},{"internalType":"string","name":"sistemPenomoranBets","type":"string"},{"internalType":"string","name":"desainKemasan","type":"string"},{"internalType":"string","name":"dataPendukungKeamanan","type":"string"}],"internalType":"struct NieManager.DokumenPendukung","name":"","type":"tuple"},{"components":[{"internalType":"string","name":"formulaProdukMetrik","type":"string"},{"internalType":"string","name":"skPersetujuanVariasi","type":"string"},{"internalType":"string","name":"desainKemasanTerakhir","type":"string"},{"internalType":"string","name":"suratPernyataanPeredaran","type":"string"},{"internalType":"string","name":"desainKemasanBerwarna","type":"string"}],"internalType":"struct NieManager.DokumenRegisUlang","name":"","type":"tuple"}],"stateMutability":"view","type":"function"},{"inputs":[{"internalType":"string","name":"obatId","type":"string"}],"name":"getNieNumberAndStatus","outputs":[{"internalType":"string","name":"","type":"string"},{"internalType":"uint8","name":"","type":"uint8"},{"internalType":"uint256","name":"","type":"uint256"}],"stateMutability":"view","type":"function"},{"inputs":[{"internalType":"string","name":"obatId","type":"string"}],"name":"getRejectMsgNie","outputs":[{"internalType":"string","name":"","type":"string"},{"internalType":"string","name":"","type":"string"}],"stateMutability":"view","type":"function"},{"inputs":[{"internalType":"string","name":"","type":"string"}],"name":"nieDetailById","outputs":[{"internalType":"string","name":"nieNumber","type":"string"},{"internalType":"enum EnumsLibrary.NieStatus","name":"nieStatus","type":"uint8"},{"internalType":"uint256","name":"timestampProduction","type":"uint256"},{"internalType":"uint256","name":"timestampNieRequest","type":"uint256"},{"internalType":"uint256","name":"timestampNieApprove","type":"uint256"},{"internalType":"uint256","name":"timestampNieRejected","type":"uint256"},{"internalType":"uint256","name":"timestampNieRenewRequest","type":"uint256"},{"internalType":"uint256","name":"timestampNieExpired","type":"uint256"},{"internalType":"uint256","name":"timestampNieExtendRequest","type":"uint256"},{"internalType":"uint256","name":"timestampNieExtendApprove","type":"uint256"},{"internalType":"uint256","name":"timestampNieExtendReject","type":"uint256"},{"internalType":"uint256","name":"timestampNieExtendRenew","type":"uint256"},{"internalType":"string","name":"factoryInstance","type":"string"},{"internalType":"string","name":"bpomInstance","type":"string"},{"internalType":"address","name":"bpomAddr","type":"address"},{"internalType":"string","name":"nieIpfs","type":"string"}],"stateMutability":"view","type":"function"},{"inputs":[{"internalType":"string","name":"obatId","type":"string"},{"internalType":"string","name":"rejectMsgExtend","type":"string"}],"name":"rejectExtendRequestNie","outputs":[],"stateMutability":"nonpayable","type":"function"},{"inputs":[{"internalType":"string","name":"","type":"string"}],"name":"rejectMsgById","outputs":[{"internalType":"string","name":"","type":"string"}],"stateMutability":"view","type":"function"},{"inputs":[{"internalType":"string","name":"","type":"string"}],"name":"rejectMsgExtendById","outputs":[{"internalType":"string","name":"","type":"string"}],"stateMutability":"view","type":"function"},{"inputs":[{"internalType":"string","name":"obatId","type":"string"},{"internalType":"string","name":"bpomInstance","type":"string"},{"internalType":"string","name":"rejectMsg","type":"string"}],"name":"rejectNie","outputs":[],"stateMutability":"nonpayable","type":"function"},{"inputs":[{"internalType":"string","name":"obatId","type":"string"},{"components":[{"internalType":"string","name":"masterFormula","type":"string"},{"internalType":"string","name":"suratKuasa","type":"string"},{"internalType":"string","name":"suratPernyataan","type":"string"},{"internalType":"string","name":"komposisiProduk","type":"string"},{"internalType":"string","name":"caraPembuatanProduk","type":"string"},{"internalType":"string","name":"spesifikasiKemasan","type":"string"},{"internalType":"string","name":"hasilUjiStabilitas","type":"string"}],"internalType":"struct NieManager.DokumenObat","name":"dokuObat","type":"tuple"},{"components":[{"internalType":"string","name":"sertifikatAnalisaBahanBaku","type":"string"},{"internalType":"string","name":"sertifikatAnalisaProdukJadi","type":"string"},{"internalType":"string","name":"spesifikasiProdukJadi","type":"string"},{"internalType":"string","name":"sistemPenomoranBets","type":"string"},{"internalType":"string","name":"desainKemasan","type":"string"},{"internalType":"string","name":"dataPendukungKeamanan","type":"string"}],"internalType":"struct NieManager.DokumenPendukung","name":"dokuPendukung","type":"tuple"}],"name":"renewRequestNie","outputs":[],"stateMutability":"nonpayable","type":"function"},{"inputs":[{"internalType":"string","name":"obatId","type":"string"},{"components":[{"internalType":"string","name":"masterFormula","type":"string"},{"internalType":"string","name":"suratKuasa","type":"string"},{"internalType":"string","name":"suratPernyataan","type":"string"},{"internalType":"string","name":"komposisiProduk","type":"string"},{"internalType":"string","name":"caraPembuatanProduk","type":"string"},{"internalType":"string","name":"spesifikasiKemasan","type":"string"},{"internalType":"string","name":"hasilUjiStabilitas","type":"string"}],"internalType":"struct NieManager.DokumenObat","name":"dokuObat","type":"tuple"},{"components":[{"internalType":"string","name":"sertifikatAnalisaBahanBaku","type":"string"},{"internalType":"string","name":"sertifikatAnalisaProdukJadi","type":"string"},{"internalType":"string","name":"spesifikasiProdukJadi","type":"string"},{"internalType":"string","name":"sistemPenomoranBets","type":"string"},{"internalType":"string","name":"desainKemasan","type":"string"},{"internalType":"string","name":"dataPendukungKeamanan","type":"string"}],"internalType":"struct NieManager.DokumenPendukung","name":"dokuPendukung","type":"tuple"}],"name":"requestNie","outputs":[],"stateMutability":"nonpayable","type":"function"},{"inputs":[],"name":"roleManager","outputs":[{"internalType":"contract RoleManager","name":"","type":"address"}],"stateMutability":"view","type":"function"}],"evm":{"bytecode":{"linkReferences":{},"object":"60a0346100a457601f6150b338819003918201601f19168301916001600160401b038311848410176100a8578084926020946040528339810103126100a457516001600160a01b038116908190036100a457608052604051614ff690816100bd82396080518181816102c001528181611141015281816119190152818161207001528181612b3701528181612f7f015281816135cf01528181613a5101526148360152f35b5f80fd5b634e487b7160e01b5f52604160045260245ffdfe60a0806040526004361015610012575f80fd5b5f3560e01c908162435da51461482457508063108cbe6114613a175780632594d597146138fb57806326c6d4c5146138a5578063283ef6f0146135345780632b27543414612f04578063396a6b4414612a7d57806343d1b8391461242f57806359914db41461232f57806374a5abcf14612272578063805f848b14612038578063ac007c1a14611ae7578063b0d1ec2b146118df578063bdedf0b814611843578063bf3f80ac146117d9578063c5af4b6b146116f3578063cdcc4cba146110c6578063e509070a146102865763f71ce722146100ec575f80fd5b34610282576020366003190112610282576004356001600160401b0381116102825761011c9036906004016148f3565b604051818192516020819201835e81015f815203602001902061013e81614bfb565b81600181015460ff1660028201549060038301546004840154600585015460068601546007870154600888015491600989015493600a8a015495600b8b015497600c8c0161018b90614bfb565b9a610198600d8e01614bfb565b600e909d01546001600160a01b03169e6101b490600f01614bfb565b9d6040516080526080516102009052608051610200016101d391614c9b565b9a6080516020016101e391614d8a565b60805160400152608051606001526080516080015260805160a0015260805160c0015260805160e0015260805161010001526080516101200152608051610140015260805161016001526080518103608051610180015261024391614c9b565b60805181036080516101a0015261025991614c9b565b916080516101c0015260805182036080516101e001526080519161027c91614c9b565b03608051f35b5f80fd5b346102825761029436614948565b6040516395a8c58d60e01b81523360048201525f60248201529092906020816044816001600160a01b037f0000000000000000000000000000000000000000000000000000000000000000165afa80156110bb576102f9915f9161108c575b50614dfc565b604051916001825193602081818601968088835e81015f81520301902001600160ff19825416179055604051600383518086845e8201915f8352602081429403019020015560405160208184518087835e8101600381520301902081518051906001600160401b03821161095c576103718354614bc3565b601f811161105c575b50602090601f8311600114610ff9576103aa92915f9183610a09575b50508160011b915f199060031b1c19161790565b81555b6001810160208301518051906001600160401b03821161095c576103d18354614bc3565b601f8111610fc9575b50602090601f8311600114610f665761040992915f9183610da25750508160011b915f199060031b1c19161790565b90555b6002810160408301518051906001600160401b03821161095c576104308354614bc3565b601f8111610f36575b50602090601f8311600114610ed35761046892915f9183610da25750508160011b915f199060031b1c19161790565b90555b6003810160608301518051906001600160401b03821161095c5761048f8354614bc3565b601f8111610ea3575b50602090601f8311600114610e40576104c792915f9183610da25750508160011b915f199060031b1c19161790565b90555b6004810160808301518051906001600160401b03821161095c576104ee8354614bc3565b601f8111610e10575b50602090601f8311600114610dad5761052692915f9183610da25750508160011b915f199060031b1c19161790565b90555b6005810160a08301518051906001600160401b03821161095c5761054d8354614bc3565b601f8111610d72575b50602090601f8311600114610d09578260c095936006959361058c935f92610cfe5750508160011b915f199060031b1c19161790565b90555b019101518051906001600160401b03821161095c576105ae8354614bc3565b601f8111610cce575b50602090601f8311600114610c6b576105e692915f9183610bcd5750508160011b915f199060031b1c19161790565b90555b60405160208183518086835e8101600481520301902083518051906001600160401b03821161095c5761061c8354614bc3565b601f8111610c3b575b50602090601f8311600114610bd85761065492915f9183610bcd5750508160011b915f199060031b1c19161790565b81555b6001810160208501518051906001600160401b03821161095c5761067b8354614bc3565b601f8111610b9d575b50602090601f8311600114610b3a576106b392915f9183610a095750508160011b915f199060031b1c19161790565b90555b6002810160408501518051906001600160401b03821161095c576106da8354614bc3565b601f8111610b0a575b50602090601f8311600114610aa75761071292915f9183610a095750508160011b915f199060031b1c19161790565b90555b6003810160608501518051906001600160401b03821161095c576107398354614bc3565b601f8111610a77575b50602090601f8311600114610a145761077192915f9183610a095750508160011b915f199060031b1c19161790565b90555b6004810160808501518051906001600160401b03821161095c576107988354614bc3565b601f81116109d9575b50602090601f8311600114610970578260a09593600595936107d7935f926108895750508160011b915f199060031b1c19161790565b90555b019301519283516001600160401b03811161095c576107f98254614bc3565b601f8111610921575b506020601f82116001146108945792610884949261085c83602094600c977f351ab5a48b432d9a1035e20940d903771dcfec712ffe00601bad0ea1f4260f889a5f926108895750508160011b915f199060031b1c19161790565b90555b604051928391518091835e81015f815203019020016040519182914290339084614e9b565b0390a1005b015190508a80610396565b601f19821695835f52815f20965f5b8181106109095750837f351ab5a48b432d9a1035e20940d903771dcfec712ffe00601bad0ea1f4260f8898600c9794610884999794602097600195106108f1575b505050811b01905561085f565b01515f1960f88460031b161c191690558980806108e4565b838301518955600190980197602093840193016108a3565b61094c90835f5260205f20601f840160051c81019160208510610952575b601f0160051c0190614e37565b85610802565b909150819061093f565b634e487b7160e01b5f52604160045260245ffd5b90601f19831691845f52815f20925f5b8181106109c1575092600192859260a0989660059896106109a9575b505050811b0190556107da565b01515f1960f88460031b161c1916905589808061099c565b92936020600181928786015181550195019301610980565b610a0390845f5260205f20601f850160051c8101916020861061095257601f0160051c0190614e37565b876107a1565b015190508880610396565b90601f19831691845f52815f20925f5b818110610a5f5750908460019594939210610a47575b505050811b019055610774565b01515f1960f88460031b161c19169055878080610a3a565b92936020600181928786015181550195019301610a24565b610aa190845f5260205f20601f850160051c8101916020861061095257601f0160051c0190614e37565b87610742565b90601f19831691845f52815f20925f5b818110610af25750908460019594939210610ada575b505050811b019055610715565b01515f1960f88460031b161c19169055878080610acd565b92936020600181928786015181550195019301610ab7565b610b3490845f5260205f20601f850160051c8101916020861061095257601f0160051c0190614e37565b876106e3565b90601f19831691845f52815f20925f5b818110610b855750908460019594939210610b6d575b505050811b0190556106b6565b01515f1960f88460031b161c19169055878080610b60565b92936020600181928786015181550195019301610b4a565b610bc790845f5260205f20601f850160051c8101916020861061095257601f0160051c0190614e37565b87610684565b015190508780610396565b90601f19831691845f52815f20925f5b818110610c235750908460019594939210610c0b575b505050811b018155610657565b01515f1960f88460031b161c19169055868080610bfe565b92936020600181928786015181550195019301610be8565b610c6590845f5260205f20601f850160051c8101916020861061095257601f0160051c0190614e37565b86610625565b90601f19831691845f52815f20925f5b818110610cb65750908460019594939210610c9e575b505050811b0190556105e9565b01515f1960f88460031b161c19169055868080610c91565b92936020600181928786015181550195019301610c7b565b610cf890845f5260205f20601f850160051c8101916020861061095257601f0160051c0190614e37565b866105b7565b015190508b80610396565b90601f19831691845f52815f20925f5b818110610d5a575092600192859260c098966006989610610d42575b505050811b01905561058f565b01515f1960f88460031b161c191690558a8080610d35565b92936020600181928786015181550195019301610d19565b610d9c90845f5260205f20601f850160051c8101916020861061095257601f0160051c0190614e37565b88610556565b015190508980610396565b90601f19831691845f52815f20925f5b818110610df85750908460019594939210610de0575b505050811b019055610529565b01515f1960f88460031b161c19169055888080610dd3565b92936020600181928786015181550195019301610dbd565b610e3a90845f5260205f20601f850160051c8101916020861061095257601f0160051c0190614e37565b886104f7565b90601f19831691845f52815f20925f5b818110610e8b5750908460019594939210610e73575b505050811b0190556104ca565b01515f1960f88460031b161c19169055888080610e66565b92936020600181928786015181550195019301610e50565b610ecd90845f5260205f20601f850160051c8101916020861061095257601f0160051c0190614e37565b88610498565b90601f19831691845f52815f20925f5b818110610f1e5750908460019594939210610f06575b505050811b01905561046b565b01515f1960f88460031b161c19169055888080610ef9565b92936020600181928786015181550195019301610ee3565b610f6090845f5260205f20601f850160051c8101916020861061095257601f0160051c0190614e37565b88610439565b90601f19831691845f52815f20925f5b818110610fb15750908460019594939210610f99575b505050811b01905561040c565b01515f1960f88460031b161c19169055888080610f8c565b92936020600181928786015181550195019301610f76565b610ff390845f5260205f20601f850160051c8101916020861061095257601f0160051c0190614e37565b886103da565b90601f19831691845f52815f20925f5b818110611044575090846001959493921061102c575b505050811b0181556103ad565b01515f1960f88460031b161c1916905587808061101f565b92936020600181928786015181550195019301611009565b61108690845f5260205f20601f850160051c8101916020861061095257601f0160051c0190614e37565b8761037a565b6110ae915060203d6020116110b4575b6110a681836148d2565b810190614de4565b856102f3565b503d61109c565b6040513d5f823e3d90fd5b34610282576040366003190112610282576004356001600160401b038111610282576110f69036906004016148f3565b6024356001600160401b03811161028257611115903690600401614cbf565b6040516395a8c58d60e01b81523360048201525f60248201529091906020816044816001600160a01b037f0000000000000000000000000000000000000000000000000000000000000000165afa80156110bb57611179915f916116d45750614dfc565b6020604051918051928281818401958087835e81015f81520301902060018101600960ff19825416179055600a42910155604051928391518091835e8101600581520301902081519182516001600160401b03811161095c576111dc8354614bc3565b601f81116116a4575b506020601f82116001146116435781906112159394955f926116385750508160011b915f199060031b1c19161790565b82555b600182019160208201519283516001600160401b03811161095c5761123d8254614bc3565b601f8111611608575b50602094601f82116001146115a7576112789293949582915f9261150b5750508160011b915f199060031b1c19161790565b90555b600281019160408101519283516001600160401b03811161095c576112a08254614bc3565b601f8111611577575b50602094601f8211600114611516576112db9293949582915f9261150b5750508160011b915f199060031b1c19161790565b90555b600382019160608201519283516001600160401b03811161095c576113038254614bc3565b601f81116114db575b506020601f82116001146114725781600494939261134292608097985f92610a095750508160011b915f199060031b1c19161790565b90555b019101519081516001600160401b03811161095c576113648254614bc3565b601f8111611442575b50602092601f82116001146113e35761139d929382915f926113d85750508160011b915f199060031b1c19161790565b90555b604080513381524260208201527f6623d3be3fd8e6ec82aa51cc5a014832de51d50025180c14d48276c8f011853b9181908101610884565b015190508480610396565b601f19821693835f52805f20915f5b86811061142a5750836001959610611412575b505050811b0190556113a0565b01515f1960f88460031b161c19169055838080611405565b919260206001819286850151815501940192016113f2565b61146c90835f5260205f20601f840160051c8101916020851061095257601f0160051c0190614e37565b8361136d565b601f19821695835f52815f20965f5b8181106114c3575096600192849260049796956080999a106114ab575b505050811b019055611345565b01515f1960f88460031b161c1916905587808061149e565b83830151895560019098019760209384019301611481565b61150590835f5260205f20601f840160051c8101916020851061095257601f0160051c0190614e37565b8561130c565b015190508680610396565b601f19821695835f52805f20915f5b88811061155f57508360019596979810611547575b505050811b0190556112de565b01515f1960f88460031b161c1916905585808061153a565b91926020600181928685015181550194019201611525565b6115a190835f5260205f20601f840160051c8101916020851061095257601f0160051c0190614e37565b856112a9565b601f19821695835f52805f20915f5b8881106115f0575083600195969798106115d8575b505050811b01905561127b565b01515f1960f88460031b161c191690558580806115cb565b919260206001819286850151815501940192016115b6565b61163290835f5260205f20601f840160051c8101916020851061095257601f0160051c0190614e37565b85611246565b015190508580610396565b601f19821690845f52805f20915f5b81811061168c57509583600195969710611674575b505050811b018255611218565b01515f1960f88460031b161c19169055848080611667565b9192602060018192868b015181550194019201611652565b6116ce90845f5260205f20601f840160051c8101916020851061095257601f0160051c0190614e37565b846111e5565b6116ed915060203d6020116110b4576110a681836148d2565b846102f3565b34610282576020366003190112610282576004356001600160401b0381116102825760208061172961179d9336906004016148f3565b604051928184925191829101835e810160058152030190206117d561174d82614bfb565b916117c761175d60018301614bfb565b916117b961176d60028301614bfb565b6117ab611788600461178160038701614bfb565b9501614bfb565b95604051998a9960a08b5260a08b0190614c9b565b9089820360208b0152614c9b565b908782036040890152614c9b565b908582036060870152614c9b565b908382036080850152614c9b565b0390f35b34610282576020366003190112610282576004356001600160401b0381116102825761182f6020806118126117d59436906004016148f3565b604051928184925191829101835e81016001815203019020614bfb565b604051918291602083526020830190614c9b565b34610282576020366003190112610282576004356001600160401b038111610282576118766118d19136906004016148f3565b6117d56118bd6118b760405160208551918181818901948086835e8101600181520301902095604051928391518091835e8101600281520301902093614bfb565b92614bfb565b604051938493604085526040850190614c9b565b908382036020850152614c9b565b34610282576118ed36614d97565b6040516395a8c58d60e01b81523360048201526002602482015290916020826044816001600160a01b037f0000000000000000000000000000000000000000000000000000000000000000165afa9081156110bb576119586020939284935f91611aca575b50614f4a565b604051928184925191829101835e81015f81520301902060018101600760ff198254161790554260098201556082420190814211611ab657600f9160078201550181516001600160401b03811161095c576119b38254614bc3565b601f8111611a86575b50602092601f8211600114611a27576119ec929382915f926113d85750508160011b915f199060031b1c19161790565b90555b604080513381524260208201527fdc1549b9d8f53bf4f107afce167ff871f6f9b8b72089d73274686ecb22b036389181908101610884565b601f19821693835f52805f20915f5b868110611a6e5750836001959610611a56575b505050811b0190556119ef565b01515f1960f88460031b161c19169055838080611a49565b91926020600181928685015181550194019201611a36565b611ab090835f5260205f20601f840160051c8101916020851061095257601f0160051c0190614e37565b836119bc565b634e487b7160e01b5f52601160045260245ffd5b611ae19150843d86116110b4576110a681836148d2565b86611952565b3461028257611af536614d97565b60405190611b0282614865565b602080938192604051611b1584826148d2565b5f815285525f838601524260408601525f60608601525f60808601525f60a08601525f60c08601525f60e08601525f6101008601525f6101208601525f6101408601525f610160860152610180850152604051611b7283826148d2565b5f81526101a08501525f6101c0850152604051611b8f83826148d2565b5f81526101e0850152604051928184925191829101835e81015f8152030190209080519182516001600160401b03811161095c57611bcd8254614bc3565b601f811161200a575b5084601f8211600114611fa7578190611c059394955f9261150b5750508160011b915f199060031b1c19161790565b81555b6001810183830151600a811015611f935760ff8019835416911617905560408201516002820155606082015160038201556080820151600482015560a0820151600582015560c0820151600682015560e0820151600782015561010082015160088201556101208201516009820155610140820151600a820155610160820151600b820155600c81016101808301518051906001600160401b03821161095c57611cb28354614bc3565b601f8111611f65575b508590601f8311600114611f0257611ce992915f9183610bcd5750508160011b915f199060031b1c19161790565b90555b600d81016101a08301518051906001600160401b03821161095c57611d118354614bc3565b601f8111611ed4575b508590601f8311600114611e6a57826101e09593600f9593611d50935f92610da25750508160011b915f199060031b1c19161790565b90555b6101c0840151600e820180546001600160a01b0319166001600160a01b039290921691909117905591909201518051909392909101916001600160401b03821161095c57611da18354614bc3565b601f8111611e3c575b5080601f8311600114611ddd57508190611dd993945f926113d85750508160011b915f199060031b1c19161790565b9055005b90601f19831694845f52825f20925f905b878210611e24575050836001959610611e0c575b505050811b019055005b01515f1960f88460031b161c19169055838080611e02565b80600185968294968601518155019501930190611dee565b611e6490845f52825f20601f850160051c81019184861061095257601f0160051c0190614e37565b84611daa565b90601f19831691845f52875f20925f5b89828210611ebe5750509260019285926101e09896600f989610611ea6575b505050811b019055611d53565b01515f1960f88460031b161c19169055888080611e99565b6001859682939686015181550195019301611e7a565b611efc90845f52875f20601f850160051c81019189861061095257601f0160051c0190614e37565b86611d1a565b90601f19831691845f52875f20925f5b89828210611f4f575050908460019594939210611f37575b505050811b019055611cec565b01515f1960f88460031b161c19169055868080611f2a565b6001859682939686015181550195019301611f12565b611f8d90845f52875f20601f850160051c81019189861061095257601f0160051c0190614e37565b86611cbb565b634e487b7160e01b5f52602160045260245ffd5b825f52855f20905f5b87601f1985168210611ff4575050600193949583601f19811610611fdc575b505050811b018155611c08565b01515f1960f88460031b161c19169055858080611fcf565b600183948293948a015181550193019101611fb0565b61203290835f52865f20601f840160051c81019188851061095257601f0160051c0190614e37565b85611bd6565b346102825761204636614d97565b6040516395a8c58d60e01b8152336004820152600260248201526020816044816001600160a01b037f0000000000000000000000000000000000000000000000000000000000000000165afa80156110bb576120a8915f916122535750614f4a565b60405160208351918181818701948086835e81015f81520301902093604051928391518091835e81016002815203019020918151926001600160401b03841161095c576120f58154614bc3565b601f8111612223575b50602093601f811160011461219c5790612154826121869594937f1fd8d4ed3df5e0c085cdb1f77c2352a9a35ee3ecdbe66c8e491253d828552be7975f91612191575b508160011b915f199060031b1c19161790565b90555b60018101600860ff19825416179055600a42910155604051918291338352606060208401526060830190614c9b565b4260408301520390a1005b905085015188612141565b601f19811694825f52805f20955f5b81811061220b5750917f1fd8d4ed3df5e0c085cdb1f77c2352a9a35ee3ecdbe66c8e491253d828552be7966001928261218698979695106121f3575b5050811b019055612157565b8601515f1960f88460031b161c1916905587806121e7565b868301518855600190970196602092830192016121ab565b61224d90825f5260205f20601f870160051c8101916020881061095257601f0160051c0190614e37565b846120fe565b61226c915060203d6020116110b4576110a681836148d2565b84611952565b34610282576020366003190112610282576004356001600160401b038111610282576122a29036906004016148f3565b604051815190602081818501938085835e81015f8152030190209060ff600160405160208187518087835e81015f81520301902001541690600a821015611f9357600761230b91602061232096604051928391518091835e81015f815203019020015492614bfb565b91604051938493606085526060850190614c9b565b91602084015260408301520390f35b34610282576020366003190112610282576004356001600160401b038111610282576020806123656123e99336906004016148f3565b604051928184925191829101835e810160048152030190206117d561238982614bfb565b9161242161239960018301614bfb565b916124136123a960028301614bfb565b6124056123b860038501614bfb565b916123f76123d460056123cd60048901614bfb565b9701614bfb565b976040519b8c9b60c08d5260c08d0190614c9b565b908b820360208d0152614c9b565b9089820360408b0152614c9b565b908782036060890152614c9b565b908582036080870152614c9b565b9083820360a0850152614c9b565b34610282576020366003190112610282576004356001600160401b0381116102825761245f9036906004016148f3565b60606101e060405161247081614865565b8281525f60208201525f60408201525f838201525f60808201525f60a08201525f60c08201525f60e08201525f6101008201525f6101208201525f6101408201525f61016082015282610180820152826101a08201525f6101c08201520152606060c06040516124df81614881565b82815282602082015282604082015282808201528260808201528260a08201520152606060a06040516125118161489c565b828152826020820152826040820152828082015282608082015201526060608060405161253d816148b7565b82815282602082015282604082015282808201520152604051815190602081818501938085835e81015f8152030190209060405160208185518085835e81016003815203019020906020604051818187518086835e8101600481520301902094604051928391518091835e81016005815203019020604051926125bf84614865565b6125c881614bfb565b845260ff60018201541694600a861015611f935761298e6117d59461269b600f612a10956128f79a60208b0152600281015460408b0152600381015460608b0152600481015460808b0152600581015460a08b0152600681015460c08b0152600781015460e08b015260088101546101008b015260098101546101208b0152600a8101546101408b0152600b8101546101608b0152612669600c8201614bfb565b6101808b015261267b600d8201614bfb565b6101a08b0152600e8101546001600160a01b03166101c08b015201614bfb565b6101e08801526127196006604051926126b384614881565b6126bc81614bfb565b84526126ca60018201614bfb565b60208501526126db60028201614bfb565b60408501526126ec60038201614bfb565b60608501526126fd60048201614bfb565b608085015261270e60058201614bfb565b60a085015201614bfb565b60c08201526127856005604051946127308661489c565b61273981614bfb565b865261274760018201614bfb565b602087015261275860028201614bfb565b604087015261276960038201614bfb565b606087015261277a60048201614bfb565b608087015201614bfb565b60a08401526127e060046040519661279c886148b7565b6127a581614bfb565b88526127b360018201614bfb565b60208901526127c460028201614bfb565b60408901526127d560038201614bfb565b606089015201614bfb565b6080860152604051978897608089526101e06128cd6128b56128118c61028086519161020060808201520190614c9b565b6128248d60a06020880151910190614d8a565b8c60c060408701519101528c60e060608701519101528c61010060808701519101528c61012060a08701519101528c61014060c08701519101528c61016060e08701519101528c6101806101008701519101528c6101a06101208701519101528c6101c06101408701519101528c846101608701519101526101808501518d610200607f1982850301910152614c9b565b6101a08401518c8203607f19016102208e0152614c9b565b6101c08301516001600160a01b03166102408c0152910151898203607f19016102608b0152614c9b565b878103602089015260c061297d61296b612959612947612935612923885160e0895260e0890190614c9b565b602089015188820360208a0152614c9b565b60408801518782036040890152614c9b565b60608701518682036060880152614c9b565b60808601518582036080870152614c9b565b60a085015184820360a0860152614c9b565b9201519060c0818403910152614c9b565b858103604087015260a06129ff6129ed6129db6129c96129b7875160c0885260c0880190614c9b565b60208801518782036020890152614c9b565b60408701518682036040880152614c9b565b60608601518582036060870152614c9b565b60808501518482036080860152614c9b565b9201519060a0818403910152614c9b565b83810360608501526080612a6c612a5a612a48612a36865160a0875260a0870190614c9b565b60208701518682036020880152614c9b565b60408601518582036040870152614c9b565b60608501518482036060860152614c9b565b920151906080818403910152614c9b565b34610282576080366003190112610282576004356001600160401b03811161028257612aad9036906004016148f3565b6024356001600160401b03811161028257612acc9036906004016148f3565b6044356001600160401b03811161028257612aeb9036906004016148f3565b906064356001600160401b03811161028257612b0b9036906004016148f3565b6040516395a8c58d60e01b81523360048201526002602482015290936020826044816001600160a01b037f0000000000000000000000000000000000000000000000000000000000000000165afa9081156110bb57612b756020939284935f91612ee75750614f4a565b604051928184925191829101835e81015f81520301902081516001600160401b03811161095c57612ba68254614bc3565b601f8111612eb7575b506020601f8211600114612e57579080612bdc925f91612e4c57508160011b915f199060031b1c19161790565b81555b60018101600260ff19825416179055426004820155600d810183516001600160401b03811161095c57612c128254614bc3565b601f8111612e1c575b506020601f8211600114612dbc579080612c48925f91612db157508160011b915f199060031b1c19161790565b90555b600e810180546001600160a01b03191633179055426082810191908210611ab657600f9160078201550183516001600160401b03811161095c57612c8f8254614bc3565b601f8111612d81575b506020601f8211600114612cfe579080612ce8927f98f6eda79ce4c4856715a86ecdf2cb7ece1a5de8adf3de249b2ce9017b0e5810975f92610bcd5750508160011b915f199060031b1c19161790565b90555b6108846040519283924291339085614f82565b601f19821695835f52815f20965f5b818110612d695750917f98f6eda79ce4c4856715a86ecdf2cb7ece1a5de8adf3de249b2ce9017b0e58109791846001959410612d51575b505050811b019055612ceb565b01515f1960f88460031b161c19169055868080612d44565b83830151895560019098019760209384019301612d0d565b612dab90835f5260205f20601f840160051c8101916020851061095257601f0160051c0190614e37565b85612c98565b905086015188612141565b601f19821690835f52805f20915f5b818110612e0457509083600194939210612dec575b5050811b019055612c4b565b8701515f1960f88460031b161c191690558780612de0565b9192602060018192868c015181550194019201612dcb565b612e4690835f5260205f20601f840160051c8101916020851061095257601f0160051c0190614e37565b86612c1b565b905084015187612141565b601f19821690835f52805f20915f5b818110612e9f57509083600194939210612e87575b5050811b018155612bdf565b8501515f1960f88460031b161c191690558680612e7b565b9192602060018192868a015181550194019201612e66565b612ee190835f5260205f20601f840160051c8101916020851061095257601f0160051c0190614e37565b85612baf565b612efe9150843d86116110b4576110a681836148d2565b88611952565b34610282576060366003190112610282576004356001600160401b03811161028257612f349036906004016148f3565b6044356001600160401b03811161028257612f53903690600401614cbf565b6040516395a8c58d60e01b81523360048201525f60248201529091906020816044816001600160a01b037f0000000000000000000000000000000000000000000000000000000000000000165afa80156110bb57612fb7915f916116d45750614dfc565b6024354211156134fb576020604051918051928281818401958087835e81015f81520301902060018101600660ff19825416179055600842910155604051928391518091835e8101600581520301902081519182516001600160401b03811161095c576130248354614bc3565b601f81116134cb575b506020601f821160011461346a57819061305d9394955f926116385750508160011b915f199060031b1c19161790565b82555b600182019160208201519283516001600160401b03811161095c576130858254614bc3565b601f811161343a575b50602094601f82116001146133d9576130c09293949582915f9261150b5750508160011b915f199060031b1c19161790565b90555b600281019160408101519283516001600160401b03811161095c576130e88254614bc3565b601f81116133a9575b50602094601f8211600114613348576131239293949582915f9261150b5750508160011b915f199060031b1c19161790565b90555b600382019160608201519283516001600160401b03811161095c5761314b8254614bc3565b601f8111613318575b506020601f82116001146132af5781600494939261318a92608097985f92610a095750508160011b915f199060031b1c19161790565b90555b019101519081516001600160401b03811161095c576131ac8254614bc3565b601f811161327f575b50602092601f8211600114613220576131e5929382915f926113d85750508160011b915f199060031b1c19161790565b90555b604080513381524260208201527fdbf29df2841fbfef4e4228e54b2eafd2edb98c45ecd633e3d142902104cde3519181908101610884565b601f19821693835f52805f20915f5b868110613267575083600195961061324f575b505050811b0190556131e8565b01515f1960f88460031b161c19169055838080613242565b9192602060018192868501518155019401920161322f565b6132a990835f5260205f20601f840160051c8101916020851061095257601f0160051c0190614e37565b836131b5565b601f19821695835f52815f20965f5b818110613300575096600192849260049796956080999a106132e8575b505050811b01905561318d565b01515f1960f88460031b161c191690558780806132db565b838301518955600190980197602093840193016132be565b61334290835f5260205f20601f840160051c8101916020851061095257601f0160051c0190614e37565b85613154565b601f19821695835f52805f20915f5b88811061339157508360019596979810613379575b505050811b019055613126565b01515f1960f88460031b161c1916905585808061336c565b91926020600181928685015181550194019201613357565b6133d390835f5260205f20601f840160051c8101916020851061095257601f0160051c0190614e37565b856130f1565b601f19821695835f52805f20915f5b8881106134225750836001959697981061340a575b505050811b0190556130c3565b01515f1960f88460031b161c191690558580806133fd565b919260206001819286850151815501940192016133e8565b61346490835f5260205f20601f840160051c8101916020851061095257601f0160051c0190614e37565b8561308e565b601f19821690845f52805f20915f5b8181106134b35750958360019596971061349b575b505050811b018255613060565b01515f1960f88460031b161c1916905584808061348e565b9192602060018192868b015181550194019201613479565b6134f590845f5260205f20601f840160051c8101916020851061095257601f0160051c0190614e37565b8461302d565b60405162461bcd60e51b81526020600482015260116024820152704e4945206d61736968206265726c616b7560781b6044820152606490fd5b34610282576060366003190112610282576004356001600160401b038111610282576135649036906004016148f3565b6024356001600160401b038111610282576135839036906004016148f3565b6044356001600160401b038111610282576135a29036906004016148f3565b6040516395a8c58d60e01b8152336004820152600260248201529091906020816044816001600160a01b037f0000000000000000000000000000000000000000000000000000000000000000165afa80156110bb57613607915f916138865750614f4a565b604051835190602081818701938085835e81015f8152030190209360018501600360ff19825416179055600d8501948351956001600160401b03871161095c576136518154614bc3565b601f8111613856575b50602096601f81116001146137f2578061368d916020969798995f916137e757508160011b915f199060031b1c19161790565b90555b600e810180546001600160a01b0319163317905542600590910155604051905190928391908190835e81016001815203019020918051926001600160401b03841161095c576136df8154614bc3565b601f81116137b7575b50602093601f81116001146137375780612ce8917f81b3714f32e3dd3d8faa1a5f7732e52e015be62219a6eae68d1a779f682db80b965f91612e4c57508160011b915f199060031b1c19161790565b601f198116825f52855f20905f5b81811061379f5750907f81b3714f32e3dd3d8faa1a5f7732e52e015be62219a6eae68d1a779f682db80b96836001949310613787575b5050811b019055612ceb565b8501515f1960f88460031b161c19169055868061377b565b85880151835560209788019760019093019201613745565b6137e190825f5260205f20601f870160051c8101916020881061095257601f0160051c0190614e37565b846136e8565b90508801518a612141565b601f198116825f52885f20905f5b81811061383e575090602096979899836001949310613826575b5050811b019055613690565b8901515f1960f88460031b161c19169055898061381a565b888b0151835560209a8b019a60019093019201613800565b61388090825f5260205f20601f8a0160051c81019160208b1061095257601f0160051c0190614e37565b8761365a565b61389f915060203d6020116110b4576110a681836148d2565b85611952565b34610282576020366003190112610282576004356001600160401b0381116102825761182f6020806138de6117d59436906004016148f3565b604051928184925191829101835e81016002815203019020614bfb565b34610282576020366003190112610282576004356001600160401b03811161028257602061392e819236906004016148f3565b604051928184925191829101835e8101600381520301902060e06117d561395483614bfb565b92613a0961396460018301614bfb565b916139fb61397460028301614bfb565b6139ed61398360038501614bfb565b6139df61399260048701614bfb565b936139d16139ae60066139a760058b01614bfb565b9901614bfb565b996139c36040519e8f9e8f8181520190614c9b565b8d810360208f015290614c9b565b908b820360408d0152614c9b565b9089820360608b0152614c9b565b908782036080890152614c9b565b9085820360a0870152614c9b565b9083820360c0850152614c9b565b3461028257613a2536614948565b6040516395a8c58d60e01b81523360048201525f60248201529092906020816044816001600160a01b037f0000000000000000000000000000000000000000000000000000000000000000165afa80156110bb57613a89915f9161108c5750614dfc565b60405191815192602081818501958087835e81015f81520301902060018101600460ff19825416179055600642910155613b1f600660405160208186518089835e81016003815203019020613add81614e4d565b613ae960018201614e4d565b613af560028201614e4d565b613b0160038201614e4d565b613b0d60048201614e4d565b613b1960058201614e4d565b01614e4d565b613b73600560405160208186518089835e81016004815203019020613b4381614e4d565b613b4f60018201614e4d565b613b5b60028201614e4d565b613b6760038201614e4d565b613b1960048201614e4d565b60405160208184518087835e8101600381520301902081518051906001600160401b03821161095c57613ba68354614bc3565b601f81116147f4575b50602090601f831160011461479157613bde92915f9183610a095750508160011b915f199060031b1c19161790565b81555b6001810160208301518051906001600160401b03821161095c57613c058354614bc3565b601f8111614761575b50602090601f83116001146146fe57613c3d92915f9183610da25750508160011b915f199060031b1c19161790565b90555b6002810160408301518051906001600160401b03821161095c57613c648354614bc3565b601f81116146ce575b50602090601f831160011461466b57613c9c92915f9183610da25750508160011b915f199060031b1c19161790565b90555b6003810160608301518051906001600160401b03821161095c57613cc38354614bc3565b601f811161463b575b50602090601f83116001146145d857613cfb92915f9183610da25750508160011b915f199060031b1c19161790565b90555b6004810160808301518051906001600160401b03821161095c57613d228354614bc3565b601f81116145a8575b50602090601f831160011461454557613d5a92915f9183610da25750508160011b915f199060031b1c19161790565b90555b6005810160a08301518051906001600160401b03821161095c57613d818354614bc3565b601f8111614515575b50602090601f83116001146144ac578260c0959360069593613dc0935f92610cfe5750508160011b915f199060031b1c19161790565b90555b019101518051906001600160401b03821161095c57613de28354614bc3565b601f811161447c575b50602090601f831160011461441957613e1a92915f9183610bcd5750508160011b915f199060031b1c19161790565b90555b60405160208183518086835e8101600481520301902083518051906001600160401b03821161095c57613e508354614bc3565b601f81116143e9575b50602090601f831160011461438657613e8892915f9183610bcd5750508160011b915f199060031b1c19161790565b81555b6001810160208501518051906001600160401b03821161095c57613eaf8354614bc3565b601f8111614356575b50602090601f83116001146142f357613ee792915f9183610a095750508160011b915f199060031b1c19161790565b90555b6002810160408501518051906001600160401b03821161095c57613f0e8354614bc3565b601f81116142c3575b50602090601f831160011461426057613f4692915f9183610a095750508160011b915f199060031b1c19161790565b90555b6003810160608501518051906001600160401b03821161095c57613f6d8354614bc3565b601f8111614230575b50602090601f83116001146141cd57613fa592915f9183610a095750508160011b915f199060031b1c19161790565b90555b6004810160808501518051906001600160401b03821161095c57613fcc8354614bc3565b601f811161419d575b50602090601f8311600114614134578260a095936005959361400b935f926108895750508160011b915f199060031b1c19161790565b90555b019301519283516001600160401b03811161095c5761402d8254614bc3565b601f8111614104575b506020601f82116001146140905792610884949261085c83602094600c977fbe8dfefda19edb2ea695885130355727f7788a97d4b87a6612a78ee860ea23ab9a5f926108895750508160011b915f199060031b1c19161790565b601f19821695835f52815f20965f5b8181106140ec5750837fbe8dfefda19edb2ea695885130355727f7788a97d4b87a6612a78ee860ea23ab98600c9794610884999794602097600195106108f157505050811b01905561085f565b8383015189556001909801976020938401930161409f565b61412e90835f5260205f20601f840160051c8101916020851061095257601f0160051c0190614e37565b85614036565b90601f19831691845f52815f20925f5b818110614185575092600192859260a09896600598961061416d575b505050811b01905561400e565b01515f1960f88460031b161c19169055898080614160565b92936020600181928786015181550195019301614144565b6141c790845f5260205f20601f850160051c8101916020861061095257601f0160051c0190614e37565b87613fd5565b90601f19831691845f52815f20925f5b8181106142185750908460019594939210614200575b505050811b019055613fa8565b01515f1960f88460031b161c191690558780806141f3565b929360206001819287860151815501950193016141dd565b61425a90845f5260205f20601f850160051c8101916020861061095257601f0160051c0190614e37565b87613f76565b90601f19831691845f52815f20925f5b8181106142ab5750908460019594939210614293575b505050811b019055613f49565b01515f1960f88460031b161c19169055878080614286565b92936020600181928786015181550195019301614270565b6142ed90845f5260205f20601f850160051c8101916020861061095257601f0160051c0190614e37565b87613f17565b90601f19831691845f52815f20925f5b81811061433e5750908460019594939210614326575b505050811b019055613eea565b01515f1960f88460031b161c19169055878080614319565b92936020600181928786015181550195019301614303565b61438090845f5260205f20601f850160051c8101916020861061095257601f0160051c0190614e37565b87613eb8565b90601f19831691845f52815f20925f5b8181106143d157509084600195949392106143b9575b505050811b018155613e8b565b01515f1960f88460031b161c191690558680806143ac565b92936020600181928786015181550195019301614396565b61441390845f5260205f20601f850160051c8101916020861061095257601f0160051c0190614e37565b86613e59565b90601f19831691845f52815f20925f5b818110614464575090846001959493921061444c575b505050811b019055613e1d565b01515f1960f88460031b161c1916905586808061443f565b92936020600181928786015181550195019301614429565b6144a690845f5260205f20601f850160051c8101916020861061095257601f0160051c0190614e37565b86613deb565b90601f19831691845f52815f20925f5b8181106144fd575092600192859260c0989660069896106144e5575b505050811b019055613dc3565b01515f1960f88460031b161c191690558a80806144d8565b929360206001819287860151815501950193016144bc565b61453f90845f5260205f20601f850160051c8101916020861061095257601f0160051c0190614e37565b88613d8a565b90601f19831691845f52815f20925f5b8181106145905750908460019594939210614578575b505050811b019055613d5d565b01515f1960f88460031b161c1916905588808061456b565b92936020600181928786015181550195019301614555565b6145d290845f5260205f20601f850160051c8101916020861061095257601f0160051c0190614e37565b88613d2b565b90601f19831691845f52815f20925f5b818110614623575090846001959493921061460b575b505050811b019055613cfe565b01515f1960f88460031b161c191690558880806145fe565b929360206001819287860151815501950193016145e8565b61466590845f5260205f20601f850160051c8101916020861061095257601f0160051c0190614e37565b88613ccc565b90601f19831691845f52815f20925f5b8181106146b6575090846001959493921061469e575b505050811b019055613c9f565b01515f1960f88460031b161c19169055888080614691565b9293602060018192878601518155019501930161467b565b6146f890845f5260205f20601f850160051c8101916020861061095257601f0160051c0190614e37565b88613c6d565b90601f19831691845f52815f20925f5b8181106147495750908460019594939210614731575b505050811b019055613c40565b01515f1960f88460031b161c19169055888080614724565b9293602060018192878601518155019501930161470e565b61478b90845f5260205f20601f850160051c8101916020861061095257601f0160051c0190614e37565b88613c0e565b90601f19831691845f52815f20925f5b8181106147dc57509084600195949392106147c4575b505050811b018155613be1565b01515f1960f88460031b161c191690558780806147b7565b929360206001819287860151815501950193016147a1565b61481e90845f5260205f20601f850160051c8101916020861061095257601f0160051c0190614e37565b87613baf565b34610282575f366003190112610282577f00000000000000000000000000000000000000000000000000000000000000006001600160a01b03168152602090f35b61020081019081106001600160401b0382111761095c57604052565b60e081019081106001600160401b0382111761095c57604052565b60c081019081106001600160401b0382111761095c57604052565b60a081019081106001600160401b0382111761095c57604052565b90601f801991011681019081106001600160401b0382111761095c57604052565b81601f82011215610282578035906001600160401b03821161095c5760405192614927601f8401601f1916602001856148d2565b8284526020838301011161028257815f926020809301838601378301015290565b6060600319820112610282576004356001600160401b0381116102825781614972916004016148f3565b916024356001600160401b0381116102825760e08184036003190112610282576040519061499f82614881565b80600401356001600160401b038111610282578460046149c1928401016148f3565b825260248101356001600160401b038111610282578460046149e5928401016148f3565b602083015260448101356001600160401b03811161028257846004614a0c928401016148f3565b604083015260648101356001600160401b03811161028257846004614a33928401016148f3565b606083015260848101356001600160401b03811161028257846004614a5a928401016148f3565b608083015260a48101356001600160401b03811161028257846004614a81928401016148f3565b60a083015260c48101356001600160401b0381116102825760048591614aa89301016148f3565b60c0820152916044356001600160401b0381116102825760c081830360031901126102825760405191614ada8361489c565b81600401356001600160401b03811161028257816004614afc928501016148f3565b835260248201356001600160401b03811161028257816004614b20928501016148f3565b602084015260448201356001600160401b03811161028257816004614b47928501016148f3565b604084015260648201356001600160401b03811161028257816004614b6e928501016148f3565b606084015260848201356001600160401b03811161028257816004614b95928501016148f3565b608084015260a4820135916001600160401b03831161028257614bbb92016004016148f3565b60a082015290565b90600182811c92168015614bf1575b6020831014614bdd57565b634e487b7160e01b5f52602260045260245ffd5b91607f1691614bd2565b9060405191825f825492614c0e84614bc3565b8084529360018116908115614c795750600114614c35575b50614c33925003836148d2565b565b90505f9291925260205f20905f915b818310614c5d575050906020614c33928201015f614c26565b6020919350806001915483858901015201910190918492614c44565b905060209250614c3394915060ff191682840152151560051b8201015f614c26565b805180835260209291819084018484015e5f828201840152601f01601f1916010190565b919060a0838203126102825760405190614cd8826148b7565b819380356001600160401b0381116102825782614cf69183016148f3565b835260208101356001600160401b0381116102825782614d179183016148f3565b602084015260408101356001600160401b0381116102825782614d3b9183016148f3565b604084015260608101356001600160401b0381116102825782614d5f9183016148f3565b60608401526080810135916001600160401b03831161028257608092614d8592016148f3565b910152565b90600a821015611f935752565b906040600319830112610282576004356001600160401b0381116102825782614dc2916004016148f3565b91602435906001600160401b03821161028257614de1916004016148f3565b90565b90816020910312610282575180151581036102825790565b15614e0357565b60405162461bcd60e51b815260206004820152600c60248201526b4f6e6c7920466163746f727960a01b6044820152606490fd5b818110614e42575050565b5f8155600101614e37565b614e578154614bc3565b9081614e61575050565b81601f5f9311600114614e72575055565b81835260208320614e8e91601f0160051c810190600101614e37565b8082528160208120915555565b9093929193606082525f90805490614eb282614bc3565b918260608601526001811690815f14614f265750600114614ee6575b50506001600160a01b03909416602082015260400152565b5f90815260208120939250905b808210614f0b5750909150810160800160405f614ece565b91926001816020925460808588010152019101909291614ef3565b90506040949350608092915060ff191682840152151560051b82010190915f614ece565b15614f5157565b60405162461bcd60e51b81526020600482015260096024820152684f6e6c792042504f4d60b81b6044820152606490fd5b94939291606092614f9e614fbb93608089526080890190614c9b565b6001600160a01b0390921660208801528682036040880152614c9b565b93015256fea26469706673582212201d03c0aee123310015a557aead666cccb906c00d93c4e028efaa25267e7e281b64736f6c634300081b0033","opcodes":"PUSH1 0xA0 CALLVALUE PUSH2 0xA4 JUMPI PUSH1 0x1F PUSH2 0x50B3 CODESIZE DUP2 SWAP1 SUB SWAP2 DUP3 ADD PUSH1 0x1F NOT AND DUP4 ADD SWAP2 PUSH1 0x1 PUSH1 0x1 PUSH1 0x40 SHL SUB DUP4 GT DUP5 DUP5 LT OR PUSH2 0xA8 JUMPI DUP1 DUP5 SWAP3 PUSH1 0x20 SWAP5 PUSH1 0x40 MSTORE DUP4 CODECOPY DUP2 ADD SUB SLT PUSH2 0xA4 JUMPI MLOAD PUSH1 0x1 PUSH1 0x1 PUSH1 0xA0 SHL SUB DUP2 AND SWAP1 DUP2 SWAP1 SUB PUSH2 0xA4 JUMPI PUSH1 0x80 MSTORE PUSH1 0x40 MLOAD PUSH2 0x4FF6 SWAP1 DUP2 PUSH2 0xBD DUP3 CODECOPY PUSH1 0x80 MLOAD DUP2 DUP2 DUP2 PUSH2 0x2C0 ADD MSTORE DUP2 DUP2 PUSH2 0x1141 ADD MSTORE DUP2 DUP2 PUSH2 0x1919 ADD MSTORE DUP2 DUP2 PUSH2 0x2070 ADD MSTORE DUP2 DUP2 PUSH2 0x2B37 ADD MSTORE DUP2 DUP2 PUSH2 0x2F7F ADD MSTORE DUP2 DUP2 PUSH2 0x35CF ADD MSTORE DUP2 DUP2 PUSH2 0x3A51 ADD MSTORE PUSH2 0x4836 ADD MSTORE RETURN JUMPDEST PUSH0 DUP1 REVERT JUMPDEST PUSH4 0x4E487B71 PUSH1 0xE0 SHL PUSH0 MSTORE PUSH1 0x41 PUSH1 0x4 MSTORE PUSH1 0x24 PUSH0 REVERT INVALID PUSH1 0xA0 DUP1 PUSH1 0x40 MSTORE PUSH1 0x4 CALLDATASIZE LT ISZERO PUSH2 0x12 JUMPI PUSH0 DUP1 REVERT JUMPDEST PUSH0 CALLDATALOAD PUSH1 0xE0 SHR SWAP1 DUP2 PUSH3 0x435DA5 EQ PUSH2 0x4824 JUMPI POP DUP1 PUSH4 0x108CBE61 EQ PUSH2 0x3A17 JUMPI DUP1 PUSH4 0x2594D597 EQ PUSH2 0x38FB JUMPI DUP1 PUSH4 0x26C6D4C5 EQ PUSH2 0x38A5 JUMPI DUP1 PUSH4 0x283EF6F0 EQ PUSH2 0x3534 JUMPI DUP1 PUSH4 0x2B275434 EQ PUSH2 0x2F04 JUMPI DUP1 PUSH4 0x396A6B44 EQ PUSH2 0x2A7D JUMPI DUP1 PUSH4 0x43D1B839 EQ PUSH2 0x242F JUMPI DUP1 PUSH4 0x59914DB4 EQ PUSH2 0x232F JUMPI DUP1 PUSH4 0x74A5ABCF EQ PUSH2 0x2272 JUMPI DUP1 PUSH4 0x805F848B EQ PUSH2 0x2038 JUMPI DUP1 PUSH4 0xAC007C1A EQ PUSH2 0x1AE7 JUMPI DUP1 PUSH4 0xB0D1EC2B EQ PUSH2 0x18DF JUMPI DUP1 PUSH4 0xBDEDF0B8 EQ PUSH2 0x1843 JUMPI DUP1 PUSH4 0xBF3F80AC EQ PUSH2 0x17D9 JUMPI DUP1 PUSH4 0xC5AF4B6B EQ PUSH2 0x16F3 JUMPI DUP1 PUSH4 0xCDCC4CBA EQ PUSH2 0x10C6 JUMPI DUP1 PUSH4 0xE509070A EQ PUSH2 0x286 JUMPI PUSH4 0xF71CE722 EQ PUSH2 0xEC JUMPI PUSH0 DUP1 REVERT JUMPDEST CALLVALUE PUSH2 0x282 JUMPI PUSH1 0x20 CALLDATASIZE PUSH1 0x3 NOT ADD SLT PUSH2 0x282 JUMPI PUSH1 0x4 CALLDATALOAD PUSH1 0x1 PUSH1 0x1 PUSH1 0x40 SHL SUB DUP2 GT PUSH2 0x282 JUMPI PUSH2 0x11C SWAP1 CALLDATASIZE SWAP1 PUSH1 0x4 ADD PUSH2 0x48F3 JUMP JUMPDEST PUSH1 0x40 MLOAD DUP2 DUP2 SWAP3 MLOAD PUSH1 0x20 DUP2 SWAP3 ADD DUP4 MCOPY DUP2 ADD PUSH0 DUP2 MSTORE SUB PUSH1 0x20 ADD SWAP1 KECCAK256 PUSH2 0x13E DUP2 PUSH2 0x4BFB JUMP JUMPDEST DUP2 PUSH1 0x1 DUP2 ADD SLOAD PUSH1 0xFF AND PUSH1 0x2 DUP3 ADD SLOAD SWAP1 PUSH1 0x3 DUP4 ADD SLOAD PUSH1 0x4 DUP5 ADD SLOAD PUSH1 0x5 DUP6 ADD SLOAD PUSH1 0x6 DUP7 ADD SLOAD PUSH1 0x7 DUP8 ADD SLOAD PUSH1 0x8 DUP9 ADD SLOAD SWAP2 PUSH1 0x9 DUP10 ADD SLOAD SWAP4 PUSH1 0xA DUP11 ADD SLOAD SWAP6 PUSH1 0xB DUP12 ADD SLOAD SWAP8 PUSH1 0xC DUP13 ADD PUSH2 0x18B SWAP1 PUSH2 0x4BFB JUMP JUMPDEST SWAP11 PUSH2 0x198 PUSH1 0xD DUP15 ADD PUSH2 0x4BFB JUMP JUMPDEST PUSH1 0xE SWAP1 SWAP14 ADD SLOAD PUSH1 0x1 PUSH1 0x1 PUSH1 0xA0 SHL SUB AND SWAP15 PUSH2 0x1B4 SWAP1 PUSH1 0xF ADD PUSH2 0x4BFB JUMP JUMPDEST SWAP14 PUSH1 0x40 MLOAD PUSH1 0x80 MSTORE PUSH1 0x80 MLOAD PUSH2 0x200 SWAP1 MSTORE PUSH1 0x80 MLOAD PUSH2 0x200 ADD PUSH2 0x1D3 SWAP2 PUSH2 0x4C9B JUMP JUMPDEST SWAP11 PUSH1 0x80 MLOAD PUSH1 0x20 ADD PUSH2 0x1E3 SWAP2 PUSH2 0x4D8A JUMP JUMPDEST PUSH1 0x80 MLOAD PUSH1 0x40 ADD MSTORE PUSH1 0x80 MLOAD PUSH1 0x60 ADD MSTORE PUSH1 0x80 MLOAD PUSH1 0x80 ADD MSTORE PUSH1 0x80 MLOAD PUSH1 0xA0 ADD MSTORE PUSH1 0x80 MLOAD PUSH1 0xC0 ADD MSTORE PUSH1 0x80 MLOAD PUSH1 0xE0 ADD MSTORE PUSH1 0x80 MLOAD PUSH2 0x100 ADD MSTORE PUSH1 0x80 MLOAD PUSH2 0x120 ADD MSTORE PUSH1 0x80 MLOAD PUSH2 0x140 ADD MSTORE PUSH1 0x80 MLOAD PUSH2 0x160 ADD MSTORE PUSH1 0x80 MLOAD DUP2 SUB PUSH1 0x80 MLOAD PUSH2 0x180 ADD MSTORE PUSH2 0x243 SWAP2 PUSH2 0x4C9B JUMP JUMPDEST PUSH1 0x80 MLOAD DUP2 SUB PUSH1 0x80 MLOAD PUSH2 0x1A0 ADD MSTORE PUSH2 0x259 SWAP2 PUSH2 0x4C9B JUMP JUMPDEST SWAP2 PUSH1 0x80 MLOAD PUSH2 0x1C0 ADD MSTORE PUSH1 0x80 MLOAD DUP3 SUB PUSH1 0x80 MLOAD PUSH2 0x1E0 ADD MSTORE PUSH1 0x80 MLOAD SWAP2 PUSH2 0x27C SWAP2 PUSH2 0x4C9B JUMP JUMPDEST SUB PUSH1 0x80 MLOAD RETURN JUMPDEST PUSH0 DUP1 REVERT JUMPDEST CALLVALUE PUSH2 0x282 JUMPI PUSH2 0x294 CALLDATASIZE PUSH2 0x4948 JUMP JUMPDEST PUSH1 0x40 MLOAD PUSH4 0x95A8C58D PUSH1 0xE0 SHL DUP2 MSTORE CALLER PUSH1 0x4 DUP3 ADD MSTORE PUSH0 PUSH1 0x24 DUP3 ADD MSTORE SWAP1 SWAP3 SWAP1 PUSH1 0x20 DUP2 PUSH1 0x44 DUP2 PUSH1 0x1 PUSH1 0x1 PUSH1 0xA0 SHL SUB PUSH32 0x0 AND GAS STATICCALL DUP1 ISZERO PUSH2 0x10BB JUMPI PUSH2 0x2F9 SWAP2 PUSH0 SWAP2 PUSH2 0x108C JUMPI JUMPDEST POP PUSH2 0x4DFC JUMP JUMPDEST PUSH1 0x40 MLOAD SWAP2 PUSH1 0x1 DUP3 MLOAD SWAP4 PUSH1 0x20 DUP2 DUP2 DUP7 ADD SWAP7 DUP1 DUP9 DUP4 MCOPY DUP2 ADD PUSH0 DUP2 MSTORE SUB ADD SWAP1 KECCAK256 ADD PUSH1 0x1 PUSH1 0xFF NOT DUP3 SLOAD AND OR SWAP1 SSTORE PUSH1 0x40 MLOAD PUSH1 0x3 DUP4 MLOAD DUP1 DUP7 DUP5 MCOPY DUP3 ADD SWAP2 PUSH0 DUP4 MSTORE PUSH1 0x20 DUP2 TIMESTAMP SWAP5 SUB ADD SWAP1 KECCAK256 ADD SSTORE PUSH1 0x40 MLOAD PUSH1 0x20 DUP2 DUP5 MLOAD DUP1 DUP8 DUP4 MCOPY DUP2 ADD PUSH1 0x3 DUP2 MSTORE SUB ADD SWAP1 KECCAK256 DUP2 MLOAD DUP1 MLOAD SWAP1 PUSH1 0x1 PUSH1 0x1 PUSH1 0x40 SHL SUB DUP3 GT PUSH2 0x95C JUMPI PUSH2 0x371 DUP4 SLOAD PUSH2 0x4BC3 JUMP JUMPDEST PUSH1 0x1F DUP2 GT PUSH2 0x105C JUMPI JUMPDEST POP PUSH1 0x20 SWAP1 PUSH1 0x1F DUP4 GT PUSH1 0x1 EQ PUSH2 0xFF9 JUMPI PUSH2 0x3AA SWAP3 SWAP2 PUSH0 SWAP2 DUP4 PUSH2 0xA09 JUMPI JUMPDEST POP POP DUP2 PUSH1 0x1 SHL SWAP2 PUSH0 NOT SWAP1 PUSH1 0x3 SHL SHR NOT AND OR SWAP1 JUMP JUMPDEST DUP2 SSTORE JUMPDEST PUSH1 0x1 DUP2 ADD PUSH1 0x20 DUP4 ADD MLOAD DUP1 MLOAD SWAP1 PUSH1 0x1 PUSH1 0x1 PUSH1 0x40 SHL SUB DUP3 GT PUSH2 0x95C JUMPI PUSH2 0x3D1 DUP4 SLOAD PUSH2 0x4BC3 JUMP JUMPDEST PUSH1 0x1F DUP2 GT PUSH2 0xFC9 JUMPI JUMPDEST POP PUSH1 0x20 SWAP1 PUSH1 0x1F DUP4 GT PUSH1 0x1 EQ PUSH2 0xF66 JUMPI PUSH2 0x409 SWAP3 SWAP2 PUSH0 SWAP2 DUP4 PUSH2 0xDA2 JUMPI POP POP DUP2 PUSH1 0x1 SHL SWAP2 PUSH0 NOT SWAP1 PUSH1 0x3 SHL SHR NOT AND OR SWAP1 JUMP JUMPDEST SWAP1 SSTORE JUMPDEST PUSH1 0x2 DUP2 ADD PUSH1 0x40 DUP4 ADD MLOAD DUP1 MLOAD SWAP1 PUSH1 0x1 PUSH1 0x1 PUSH1 0x40 SHL SUB DUP3 GT PUSH2 0x95C JUMPI PUSH2 0x430 DUP4 SLOAD PUSH2 0x4BC3 JUMP JUMPDEST PUSH1 0x1F DUP2 GT PUSH2 0xF36 JUMPI JUMPDEST POP PUSH1 0x20 SWAP1 PUSH1 0x1F DUP4 GT PUSH1 0x1 EQ PUSH2 0xED3 JUMPI PUSH2 0x468 SWAP3 SWAP2 PUSH0 SWAP2 DUP4 PUSH2 0xDA2 JUMPI POP POP DUP2 PUSH1 0x1 SHL SWAP2 PUSH0 NOT SWAP1 PUSH1 0x3 SHL SHR NOT AND OR SWAP1 JUMP JUMPDEST SWAP1 SSTORE JUMPDEST PUSH1 0x3 DUP2 ADD PUSH1 0x60 DUP4 ADD MLOAD DUP1 MLOAD SWAP1 PUSH1 0x1 PUSH1 0x1 PUSH1 0x40 SHL SUB DUP3 GT PUSH2 0x95C JUMPI PUSH2 0x48F DUP4 SLOAD PUSH2 0x4BC3 JUMP JUMPDEST PUSH1 0x1F DUP2 GT PUSH2 0xEA3 JUMPI JUMPDEST POP PUSH1 0x20 SWAP1 PUSH1 0x1F DUP4 GT PUSH1 0x1 EQ PUSH2 0xE40 JUMPI PUSH2 0x4C7 SWAP3 SWAP2 PUSH0 SWAP2 DUP4 PUSH2 0xDA2 JUMPI POP POP DUP2 PUSH1 0x1 SHL SWAP2 PUSH0 NOT SWAP1 PUSH1 0x3 SHL SHR NOT AND OR SWAP1 JUMP JUMPDEST SWAP1 SSTORE JUMPDEST PUSH1 0x4 DUP2 ADD PUSH1 0x80 DUP4 ADD MLOAD DUP1 MLOAD SWAP1 PUSH1 0x1 PUSH1 0x1 PUSH1 0x40 SHL SUB DUP3 GT PUSH2 0x95C JUMPI PUSH2 0x4EE DUP4 SLOAD PUSH2 0x4BC3 JUMP JUMPDEST PUSH1 0x1F DUP2 GT PUSH2 0xE10 JUMPI JUMPDEST POP PUSH1 0x20 SWAP1 PUSH1 0x1F DUP4 GT PUSH1 0x1 EQ PUSH2 0xDAD JUMPI PUSH2 0x526 SWAP3 SWAP2 PUSH0 SWAP2 DUP4 PUSH2 0xDA2 JUMPI POP POP DUP2 PUSH1 0x1 SHL SWAP2 PUSH0 NOT SWAP1 PUSH1 0x3 SHL SHR NOT AND OR SWAP1 JUMP JUMPDEST SWAP1 SSTORE JUMPDEST PUSH1 0x5 DUP2 ADD PUSH1 0xA0 DUP4 ADD MLOAD DUP1 MLOAD SWAP1 PUSH1 0x1 PUSH1 0x1 PUSH1 0x40 SHL SUB DUP3 GT PUSH2 0x95C JUMPI PUSH2 0x54D DUP4 SLOAD PUSH2 0x4BC3 JUMP JUMPDEST PUSH1 0x1F DUP2 GT PUSH2 0xD72 JUMPI JUMPDEST POP PUSH1 0x20 SWAP1 PUSH1 0x1F DUP4 GT PUSH1 0x1 EQ PUSH2 0xD09 JUMPI DUP3 PUSH1 0xC0 SWAP6 SWAP4 PUSH1 0x6 SWAP6 SWAP4 PUSH2 0x58C SWAP4 PUSH0 SWAP3 PUSH2 0xCFE JUMPI POP POP DUP2 PUSH1 0x1 SHL SWAP2 PUSH0 NOT SWAP1 PUSH1 0x3 SHL SHR NOT AND OR SWAP1 JUMP JUMPDEST SWAP1 SSTORE JUMPDEST ADD SWAP2 ADD MLOAD DUP1 MLOAD SWAP1 PUSH1 0x1 PUSH1 0x1 PUSH1 0x40 SHL SUB DUP3 GT PUSH2 0x95C JUMPI PUSH2 0x5AE DUP4 SLOAD PUSH2 0x4BC3 JUMP JUMPDEST PUSH1 0x1F DUP2 GT PUSH2 0xCCE JUMPI JUMPDEST POP PUSH1 0x20 SWAP1 PUSH1 0x1F DUP4 GT PUSH1 0x1 EQ PUSH2 0xC6B JUMPI PUSH2 0x5E6 SWAP3 SWAP2 PUSH0 SWAP2 DUP4 PUSH2 0xBCD JUMPI POP POP DUP2 PUSH1 0x1 SHL SWAP2 PUSH0 NOT SWAP1 PUSH1 0x3 SHL SHR NOT AND OR SWAP1 JUMP JUMPDEST SWAP1 SSTORE JUMPDEST PUSH1 0x40 MLOAD PUSH1 0x20 DUP2 DUP4 MLOAD DUP1 DUP7 DUP4 MCOPY DUP2 ADD PUSH1 0x4 DUP2 MSTORE SUB ADD SWAP1 KECCAK256 DUP4 MLOAD DUP1 MLOAD SWAP1 PUSH1 0x1 PUSH1 0x1 PUSH1 0x40 SHL SUB DUP3 GT PUSH2 0x95C JUMPI PUSH2 0x61C DUP4 SLOAD PUSH2 0x4BC3 JUMP JUMPDEST PUSH1 0x1F DUP2 GT PUSH2 0xC3B JUMPI JUMPDEST POP PUSH1 0x20 SWAP1 PUSH1 0x1F DUP4 GT PUSH1 0x1 EQ PUSH2 0xBD8 JUMPI PUSH2 0x654 SWAP3 SWAP2 PUSH0 SWAP2 DUP4 PUSH2 0xBCD JUMPI POP POP DUP2 PUSH1 0x1 SHL SWAP2 PUSH0 NOT SWAP1 PUSH1 0x3 SHL SHR NOT AND OR SWAP1 JUMP JUMPDEST DUP2 SSTORE JUMPDEST PUSH1 0x1 DUP2 ADD PUSH1 0x20 DUP6 ADD MLOAD DUP1 MLOAD SWAP1 PUSH1 0x1 PUSH1 0x1 PUSH1 0x40 SHL SUB DUP3 GT PUSH2 0x95C JUMPI PUSH2 0x67B DUP4 SLOAD PUSH2 0x4BC3 JUMP JUMPDEST PUSH1 0x1F DUP2 GT PUSH2 0xB9D JUMPI JUMPDEST POP PUSH1 0x20 SWAP1 PUSH1 0x1F DUP4 GT PUSH1 0x1 EQ PUSH2 0xB3A JUMPI PUSH2 0x6B3 SWAP3 SWAP2 PUSH0 SWAP2 DUP4 PUSH2 0xA09 JUMPI POP POP DUP2 PUSH1 0x1 SHL SWAP2 PUSH0 NOT SWAP1 PUSH1 0x3 SHL SHR NOT AND OR SWAP1 JUMP JUMPDEST SWAP1 SSTORE JUMPDEST PUSH1 0x2 DUP2 ADD PUSH1 0x40 DUP6 ADD MLOAD DUP1 MLOAD SWAP1 PUSH1 0x1 PUSH1 0x1 PUSH1 0x40 SHL SUB DUP3 GT PUSH2 0x95C JUMPI PUSH2 0x6DA DUP4 SLOAD PUSH2 0x4BC3 JUMP JUMPDEST PUSH1 0x1F DUP2 GT PUSH2 0xB0A JUMPI JUMPDEST POP PUSH1 0x20 SWAP1 PUSH1 0x1F DUP4 GT PUSH1 0x1 EQ PUSH2 0xAA7 JUMPI PUSH2 0x712 SWAP3 SWAP2 PUSH0 SWAP2 DUP4 PUSH2 0xA09 JUMPI POP POP DUP2 PUSH1 0x1 SHL SWAP2 PUSH0 NOT SWAP1 PUSH1 0x3 SHL SHR NOT AND OR SWAP1 JUMP JUMPDEST SWAP1 SSTORE JUMPDEST PUSH1 0x3 DUP2 ADD PUSH1 0x60 DUP6 ADD MLOAD DUP1 MLOAD SWAP1 PUSH1 0x1 PUSH1 0x1 PUSH1 0x40 SHL SUB DUP3 GT PUSH2 0x95C JUMPI PUSH2 0x739 DUP4 SLOAD PUSH2 0x4BC3 JUMP JUMPDEST PUSH1 0x1F DUP2 GT PUSH2 0xA77 JUMPI JUMPDEST POP PUSH1 0x20 SWAP1 PUSH1 0x1F DUP4 GT PUSH1 0x1 EQ PUSH2 0xA14 JUMPI PUSH2 0x771 SWAP3 SWAP2 PUSH0 SWAP2 DUP4 PUSH2 0xA09 JUMPI POP POP DUP2 PUSH1 0x1 SHL SWAP2 PUSH0 NOT SWAP1 PUSH1 0x3 SHL SHR NOT AND OR SWAP1 JUMP JUMPDEST SWAP1 SSTORE JUMPDEST PUSH1 0x4 DUP2 ADD PUSH1 0x80 DUP6 ADD MLOAD DUP1 MLOAD SWAP1 PUSH1 0x1 PUSH1 0x1 PUSH1 0x40 SHL SUB DUP3 GT PUSH2 0x95C JUMPI PUSH2 0x798 DUP4 SLOAD PUSH2 0x4BC3 JUMP JUMPDEST PUSH1 0x1F DUP2 GT PUSH2 0x9D9 JUMPI JUMPDEST POP PUSH1 0x20 SWAP1 PUSH1 0x1F DUP4 GT PUSH1 0x1 EQ PUSH2 0x970 JUMPI DUP3 PUSH1 0xA0 SWAP6 SWAP4 PUSH1 0x5 SWAP6 SWAP4 PUSH2 0x7D7 SWAP4 PUSH0 SWAP3 PUSH2 0x889 JUMPI POP POP DUP2 PUSH1 0x1 SHL SWAP2 PUSH0 NOT SWAP1 PUSH1 0x3 SHL SHR NOT AND OR SWAP1 JUMP JUMPDEST SWAP1 SSTORE JUMPDEST ADD SWAP4 ADD MLOAD SWAP3 DUP4 MLOAD PUSH1 0x1 PUSH1 0x1 PUSH1 0x40 SHL SUB DUP2 GT PUSH2 0x95C JUMPI PUSH2 0x7F9 DUP3 SLOAD PUSH2 0x4BC3 JUMP JUMPDEST PUSH1 0x1F DUP2 GT PUSH2 0x921 JUMPI JUMPDEST POP PUSH1 0x20 PUSH1 0x1F DUP3 GT PUSH1 0x1 EQ PUSH2 0x894 JUMPI SWAP3 PUSH2 0x884 SWAP5 SWAP3 PUSH2 0x85C DUP4 PUSH1 0x20 SWAP5 PUSH1 0xC SWAP8 PUSH32 0x351AB5A48B432D9A1035E20940D903771DCFEC712FFE00601BAD0EA1F4260F88 SWAP11 PUSH0 SWAP3 PUSH2 0x889 JUMPI POP POP DUP2 PUSH1 0x1 SHL SWAP2 PUSH0 NOT SWAP1 PUSH1 0x3 SHL SHR NOT AND OR SWAP1 JUMP JUMPDEST SWAP1 SSTORE JUMPDEST PUSH1 0x40 MLOAD SWAP3 DUP4 SWAP2 MLOAD DUP1 SWAP2 DUP4 MCOPY DUP2 ADD PUSH0 DUP2 MSTORE SUB ADD SWAP1 KECCAK256 ADD PUSH1 0x40 MLOAD SWAP2 DUP3 SWAP2 TIMESTAMP SWAP1 CALLER SWAP1 DUP5 PUSH2 0x4E9B JUMP JUMPDEST SUB SWAP1 LOG1 STOP JUMPDEST ADD MLOAD SWAP1 POP DUP11 DUP1 PUSH2 0x396 JUMP JUMPDEST PUSH1 0x1F NOT DUP3 AND SWAP6 DUP4 PUSH0 MSTORE DUP2 PUSH0 KECCAK256 SWAP7 PUSH0 JUMPDEST DUP2 DUP2 LT PUSH2 0x909 JUMPI POP DUP4 PUSH32 0x351AB5A48B432D9A1035E20940D903771DCFEC712FFE00601BAD0EA1F4260F88 SWAP9 PUSH1 0xC SWAP8 SWAP5 PUSH2 0x884 SWAP10 SWAP8 SWAP5 PUSH1 0x20 SWAP8 PUSH1 0x1 SWAP6 LT PUSH2 0x8F1 JUMPI JUMPDEST POP POP POP DUP2 SHL ADD SWAP1 SSTORE PUSH2 0x85F JUMP JUMPDEST ADD MLOAD PUSH0 NOT PUSH1 0xF8 DUP5 PUSH1 0x3 SHL AND SHR NOT AND SWAP1 SSTORE DUP10 DUP1 DUP1 PUSH2 0x8E4 JUMP JUMPDEST DUP4 DUP4 ADD MLOAD DUP10 SSTORE PUSH1 0x1 SWAP1 SWAP9 ADD SWAP8 PUSH1 0x20 SWAP4 DUP5 ADD SWAP4 ADD PUSH2 0x8A3 JUMP JUMPDEST PUSH2 0x94C SWAP1 DUP4 PUSH0 MSTORE PUSH1 0x20 PUSH0 KECCAK256 PUSH1 0x1F DUP5 ADD PUSH1 0x5 SHR DUP2 ADD SWAP2 PUSH1 0x20 DUP6 LT PUSH2 0x952 JUMPI JUMPDEST PUSH1 0x1F ADD PUSH1 0x5 SHR ADD SWAP1 PUSH2 0x4E37 JUMP JUMPDEST DUP6 PUSH2 0x802 JUMP JUMPDEST SWAP1 SWAP2 POP DUP2 SWAP1 PUSH2 0x93F JUMP JUMPDEST PUSH4 0x4E487B71 PUSH1 0xE0 SHL PUSH0 MSTORE PUSH1 0x41 PUSH1 0x4 MSTORE PUSH1 0x24 PUSH0 REVERT JUMPDEST SWAP1 PUSH1 0x1F NOT DUP4 AND SWAP2 DUP5 PUSH0 MSTORE DUP2 PUSH0 KECCAK256 SWAP3 PUSH0 JUMPDEST DUP2 DUP2 LT PUSH2 0x9C1 JUMPI POP SWAP3 PUSH1 0x1 SWAP3 DUP6 SWAP3 PUSH1 0xA0 SWAP9 SWAP7 PUSH1 0x5 SWAP9 SWAP7 LT PUSH2 0x9A9 JUMPI JUMPDEST POP POP POP DUP2 SHL ADD SWAP1 SSTORE PUSH2 0x7DA JUMP JUMPDEST ADD MLOAD PUSH0 NOT PUSH1 0xF8 DUP5 PUSH1 0x3 SHL AND SHR NOT AND SWAP1 SSTORE DUP10 DUP1 DUP1 PUSH2 0x99C JUMP JUMPDEST SWAP3 SWAP4 PUSH1 0x20 PUSH1 0x1 DUP2 SWAP3 DUP8 DUP7 ADD MLOAD DUP2 SSTORE ADD SWAP6 ADD SWAP4 ADD PUSH2 0x980 JUMP JUMPDEST PUSH2 0xA03 SWAP1 DUP5 PUSH0 MSTORE PUSH1 0x20 PUSH0 KECCAK256 PUSH1 0x1F DUP6 ADD PUSH1 0x5 SHR DUP2 ADD SWAP2 PUSH1 0x20 DUP7 LT PUSH2 0x952 JUMPI PUSH1 0x1F ADD PUSH1 0x5 SHR ADD SWAP1 PUSH2 0x4E37 JUMP JUMPDEST DUP8 PUSH2 0x7A1 JUMP JUMPDEST ADD MLOAD SWAP1 POP DUP9 DUP1 PUSH2 0x396 JUMP JUMPDEST SWAP1 PUSH1 0x1F NOT DUP4 AND SWAP2 DUP5 PUSH0 MSTORE DUP2 PUSH0 KECCAK256 SWAP3 PUSH0 JUMPDEST DUP2 DUP2 LT PUSH2 0xA5F JUMPI POP SWAP1 DUP5 PUSH1 0x1 SWAP6 SWAP5 SWAP4 SWAP3 LT PUSH2 0xA47 JUMPI JUMPDEST POP POP POP DUP2 SHL ADD SWAP1 SSTORE PUSH2 0x774 JUMP JUMPDEST ADD MLOAD PUSH0 NOT PUSH1 0xF8 DUP5 PUSH1 0x3 SHL AND SHR NOT AND SWAP1 SSTORE DUP8 DUP1 DUP1 PUSH2 0xA3A JUMP JUMPDEST SWAP3 SWAP4 PUSH1 0x20 PUSH1 0x1 DUP2 SWAP3 DUP8 DUP7 ADD MLOAD DUP2 SSTORE ADD SWAP6 ADD SWAP4 ADD PUSH2 0xA24 JUMP JUMPDEST PUSH2 0xAA1 SWAP1 DUP5 PUSH0 MSTORE PUSH1 0x20 PUSH0 KECCAK256 PUSH1 0x1F DUP6 ADD PUSH1 0x5 SHR DUP2 ADD SWAP2 PUSH1 0x20 DUP7 LT PUSH2 0x952 JUMPI PUSH1 0x1F ADD PUSH1 0x5 SHR ADD SWAP1 PUSH2 0x4E37 JUMP JUMPDEST DUP8 PUSH2 0x742 JUMP JUMPDEST SWAP1 PUSH1 0x1F NOT DUP4 AND SWAP2 DUP5 PUSH0 MSTORE DUP2 PUSH0 KECCAK256 SWAP3 PUSH0 JUMPDEST DUP2 DUP2 LT PUSH2 0xAF2 JUMPI POP SWAP1 DUP5 PUSH1 0x1 SWAP6 SWAP5 SWAP4 SWAP3 LT PUSH2 0xADA JUMPI JUMPDEST POP POP POP DUP2 SHL ADD SWAP1 SSTORE PUSH2 0x715 JUMP JUMPDEST ADD MLOAD PUSH0 NOT PUSH1 0xF8 DUP5 PUSH1 0x3 SHL AND SHR NOT AND SWAP1 SSTORE DUP8 DUP1 DUP1 PUSH2 0xACD JUMP JUMPDEST SWAP3 SWAP4 PUSH1 0x20 PUSH1 0x1 DUP2 SWAP3 DUP8 DUP7 ADD MLOAD DUP2 SSTORE ADD SWAP6 ADD SWAP4 ADD PUSH2 0xAB7 JUMP JUMPDEST PUSH2 0xB34 SWAP1 DUP5 PUSH0 MSTORE PUSH1 0x20 PUSH0 KECCAK256 PUSH1 0x1F DUP6 ADD PUSH1 0x5 SHR DUP2 ADD SWAP2 PUSH1 0x20 DUP7 LT PUSH2 0x952 JUMPI PUSH1 0x1F ADD PUSH1 0x5 SHR ADD SWAP1 PUSH2 0x4E37 JUMP JUMPDEST DUP8 PUSH2 0x6E3 JUMP JUMPDEST SWAP1 PUSH1 0x1F NOT DUP4 AND SWAP2 DUP5 PUSH0 MSTORE DUP2 PUSH0 KECCAK256 SWAP3 PUSH0 JUMPDEST DUP2 DUP2 LT PUSH2 0xB85 JUMPI POP SWAP1 DUP5 PUSH1 0x1 SWAP6 SWAP5 SWAP4 SWAP3 LT PUSH2 0xB6D JUMPI JUMPDEST POP POP POP DUP2 SHL ADD SWAP1 SSTORE PUSH2 0x6B6 JUMP JUMPDEST ADD MLOAD PUSH0 NOT PUSH1 0xF8 DUP5 PUSH1 0x3 SHL AND SHR NOT AND SWAP1 SSTORE DUP8 DUP1 DUP1 PUSH2 0xB60 JUMP JUMPDEST SWAP3 SWAP4 PUSH1 0x20 PUSH1 0x1 DUP2 SWAP3 DUP8 DUP7 ADD MLOAD DUP2 SSTORE ADD SWAP6 ADD SWAP4 ADD PUSH2 0xB4A JUMP JUMPDEST PUSH2 0xBC7 SWAP1 DUP5 PUSH0 MSTORE PUSH1 0x20 PUSH0 KECCAK256 PUSH1 0x1F DUP6 ADD PUSH1 0x5 SHR DUP2 ADD SWAP2 PUSH1 0x20 DUP7 LT PUSH2 0x952 JUMPI PUSH1 0x1F ADD PUSH1 0x5 SHR ADD SWAP1 PUSH2 0x4E37 JUMP JUMPDEST DUP8 PUSH2 0x684 JUMP JUMPDEST ADD MLOAD SWAP1 POP DUP8 DUP1 PUSH2 0x396 JUMP JUMPDEST SWAP1 PUSH1 0x1F NOT DUP4 AND SWAP2 DUP5 PUSH0 MSTORE DUP2 PUSH0 KECCAK256 SWAP3 PUSH0 JUMPDEST DUP2 DUP2 LT PUSH2 0xC23 JUMPI POP SWAP1 DUP5 PUSH1 0x1 SWAP6 SWAP5 SWAP4 SWAP3 LT PUSH2 0xC0B JUMPI JUMPDEST POP POP POP DUP2 SHL ADD DUP2 SSTORE PUSH2 0x657 JUMP JUMPDEST ADD MLOAD PUSH0 NOT PUSH1 0xF8 DUP5 PUSH1 0x3 SHL AND SHR NOT AND SWAP1 SSTORE DUP7 DUP1 DUP1 PUSH2 0xBFE JUMP JUMPDEST SWAP3 SWAP4 PUSH1 0x20 PUSH1 0x1 DUP2 SWAP3 DUP8 DUP7 ADD MLOAD DUP2 SSTORE ADD SWAP6 ADD SWAP4 ADD PUSH2 0xBE8 JUMP JUMPDEST PUSH2 0xC65 SWAP1 DUP5 PUSH0 MSTORE PUSH1 0x20 PUSH0 KECCAK256 PUSH1 0x1F DUP6 ADD PUSH1 0x5 SHR DUP2 ADD SWAP2 PUSH1 0x20 DUP7 LT PUSH2 0x952 JUMPI PUSH1 0x1F ADD PUSH1 0x5 SHR ADD SWAP1 PUSH2 0x4E37 JUMP JUMPDEST DUP7 PUSH2 0x625 JUMP JUMPDEST SWAP1 PUSH1 0x1F NOT DUP4 AND SWAP2 DUP5 PUSH0 MSTORE DUP2 PUSH0 KECCAK256 SWAP3 PUSH0 JUMPDEST DUP2 DUP2 LT PUSH2 0xCB6 JUMPI POP SWAP1 DUP5 PUSH1 0x1 SWAP6 SWAP5 SWAP4 SWAP3 LT PUSH2 0xC9E JUMPI JUMPDEST POP POP POP DUP2 SHL ADD SWAP1 SSTORE PUSH2 0x5E9 JUMP JUMPDEST ADD MLOAD PUSH0 NOT PUSH1 0xF8 DUP5 PUSH1 0x3 SHL AND SHR NOT AND SWAP1 SSTORE DUP7 DUP1 DUP1 PUSH2 0xC91 JUMP JUMPDEST SWAP3 SWAP4 PUSH1 0x20 PUSH1 0x1 DUP2 SWAP3 DUP8 DUP7 ADD MLOAD DUP2 SSTORE ADD SWAP6 ADD SWAP4 ADD PUSH2 0xC7B JUMP JUMPDEST PUSH2 0xCF8 SWAP1 DUP5 PUSH0 MSTORE PUSH1 0x20 PUSH0 KECCAK256 PUSH1 0x1F DUP6 ADD PUSH1 0x5 SHR DUP2 ADD SWAP2 PUSH1 0x20 DUP7 LT PUSH2 0x952 JUMPI PUSH1 0x1F ADD PUSH1 0x5 SHR ADD SWAP1 PUSH2 0x4E37 JUMP JUMPDEST DUP7 PUSH2 0x5B7 JUMP JUMPDEST ADD MLOAD SWAP1 POP DUP12 DUP1 PUSH2 0x396 JUMP JUMPDEST SWAP1 PUSH1 0x1F NOT DUP4 AND SWAP2 DUP5 PUSH0 MSTORE DUP2 PUSH0 KECCAK256 SWAP3 PUSH0 JUMPDEST DUP2 DUP2 LT PUSH2 0xD5A JUMPI POP SWAP3 PUSH1 0x1 SWAP3 DUP6 SWAP3 PUSH1 0xC0 SWAP9 SWAP7 PUSH1 0x6 SWAP9 SWAP7 LT PUSH2 0xD42 JUMPI JUMPDEST POP POP POP DUP2 SHL ADD SWAP1 SSTORE PUSH2 0x58F JUMP JUMPDEST ADD MLOAD PUSH0 NOT PUSH1 0xF8 DUP5 PUSH1 0x3 SHL AND SHR NOT AND SWAP1 SSTORE DUP11 DUP1 DUP1 PUSH2 0xD35 JUMP JUMPDEST SWAP3 SWAP4 PUSH1 0x20 PUSH1 0x1 DUP2 SWAP3 DUP8 DUP7 ADD MLOAD DUP2 SSTORE ADD SWAP6 ADD SWAP4 ADD PUSH2 0xD19 JUMP JUMPDEST PUSH2 0xD9C SWAP1 DUP5 PUSH0 MSTORE PUSH1 0x20 PUSH0 KECCAK256 PUSH1 0x1F DUP6 ADD PUSH1 0x5 SHR DUP2 ADD SWAP2 PUSH1 0x20 DUP7 LT PUSH2 0x952 JUMPI PUSH1 0x1F ADD PUSH1 0x5 SHR ADD SWAP1 PUSH2 0x4E37 JUMP JUMPDEST DUP9 PUSH2 0x556 JUMP JUMPDEST ADD MLOAD SWAP1 POP DUP10 DUP1 PUSH2 0x396 JUMP JUMPDEST SWAP1 PUSH1 0x1F NOT DUP4 AND SWAP2 DUP5 PUSH0 MSTORE DUP2 PUSH0 KECCAK256 SWAP3 PUSH0 JUMPDEST DUP2 DUP2 LT PUSH2 0xDF8 JUMPI POP SWAP1 DUP5 PUSH1 0x1 SWAP6 SWAP5 SWAP4 SWAP3 LT PUSH2 0xDE0 JUMPI JUMPDEST POP POP POP DUP2 SHL ADD SWAP1 SSTORE PUSH2 0x529 JUMP JUMPDEST ADD MLOAD PUSH0 NOT PUSH1 0xF8 DUP5 PUSH1 0x3 SHL AND SHR NOT AND SWAP1 SSTORE DUP9 DUP1 DUP1 PUSH2 0xDD3 JUMP JUMPDEST SWAP3 SWAP4 PUSH1 0x20 PUSH1 0x1 DUP2 SWAP3 DUP8 DUP7 ADD MLOAD DUP2 SSTORE ADD SWAP6 ADD SWAP4 ADD PUSH2 0xDBD JUMP JUMPDEST PUSH2 0xE3A SWAP1 DUP5 PUSH0 MSTORE PUSH1 0x20 PUSH0 KECCAK256 PUSH1 0x1F DUP6 ADD PUSH1 0x5 SHR DUP2 ADD SWAP2 PUSH1 0x20 DUP7 LT PUSH2 0x952 JUMPI PUSH1 0x1F ADD PUSH1 0x5 SHR ADD SWAP1 PUSH2 0x4E37 JUMP JUMPDEST DUP9 PUSH2 0x4F7 JUMP JUMPDEST SWAP1 PUSH1 0x1F NOT DUP4 AND SWAP2 DUP5 PUSH0 MSTORE DUP2 PUSH0 KECCAK256 SWAP3 PUSH0 JUMPDEST DUP2 DUP2 LT PUSH2 0xE8B JUMPI POP SWAP1 DUP5 PUSH1 0x1 SWAP6 SWAP5 SWAP4 SWAP3 LT PUSH2 0xE73 JUMPI JUMPDEST POP POP POP DUP2 SHL ADD SWAP1 SSTORE PUSH2 0x4CA JUMP JUMPDEST ADD MLOAD PUSH0 NOT PUSH1 0xF8 DUP5 PUSH1 0x3 SHL AND SHR NOT AND SWAP1 SSTORE DUP9 DUP1 DUP1 PUSH2 0xE66 JUMP JUMPDEST SWAP3 SWAP4 PUSH1 0x20 PUSH1 0x1 DUP2 SWAP3 DUP8 DUP7 ADD MLOAD DUP2 SSTORE ADD SWAP6 ADD SWAP4 ADD PUSH2 0xE50 JUMP JUMPDEST PUSH2 0xECD SWAP1 DUP5 PUSH0 MSTORE PUSH1 0x20 PUSH0 KECCAK256 PUSH1 0x1F DUP6 ADD PUSH1 0x5 SHR DUP2 ADD SWAP2 PUSH1 0x20 DUP7 LT PUSH2 0x952 JUMPI PUSH1 0x1F ADD PUSH1 0x5 SHR ADD SWAP1 PUSH2 0x4E37 JUMP JUMPDEST DUP9 PUSH2 0x498 JUMP JUMPDEST SWAP1 PUSH1 0x1F NOT DUP4 AND SWAP2 DUP5 PUSH0 MSTORE DUP2 PUSH0 KECCAK256 SWAP3 PUSH0 JUMPDEST DUP2 DUP2 LT PUSH2 0xF1E JUMPI POP SWAP1 DUP5 PUSH1 0x1 SWAP6 SWAP5 SWAP4 SWAP3 LT PUSH2 0xF06 JUMPI JUMPDEST POP POP POP DUP2 SHL ADD SWAP1 SSTORE PUSH2 0x46B JUMP JUMPDEST ADD MLOAD PUSH0 NOT PUSH1 0xF8 DUP5 PUSH1 0x3 SHL AND SHR NOT AND SWAP1 SSTORE DUP9 DUP1 DUP1 PUSH2 0xEF9 JUMP JUMPDEST SWAP3 SWAP4 PUSH1 0x20 PUSH1 0x1 DUP2 SWAP3 DUP8 DUP7 ADD MLOAD DUP2 SSTORE ADD SWAP6 ADD SWAP4 ADD PUSH2 0xEE3 JUMP JUMPDEST PUSH2 0xF60 SWAP1 DUP5 PUSH0 MSTORE PUSH1 0x20 PUSH0 KECCAK256 PUSH1 0x1F DUP6 ADD PUSH1 0x5 SHR DUP2 ADD SWAP2 PUSH1 0x20 DUP7 LT PUSH2 0x952 JUMPI PUSH1 0x1F ADD PUSH1 0x5 SHR ADD SWAP1 PUSH2 0x4E37 JUMP JUMPDEST DUP9 PUSH2 0x439 JUMP JUMPDEST SWAP1 PUSH1 0x1F NOT DUP4 AND SWAP2 DUP5 PUSH0 MSTORE DUP2 PUSH0 KECCAK256 SWAP3 PUSH0 JUMPDEST DUP2 DUP2 LT PUSH2 0xFB1 JUMPI POP SWAP1 DUP5 PUSH1 0x1 SWAP6 SWAP5 SWAP4 SWAP3 LT PUSH2 0xF99 JUMPI JUMPDEST POP POP POP DUP2 SHL ADD SWAP1 SSTORE PUSH2 0x40C JUMP JUMPDEST ADD MLOAD PUSH0 NOT PUSH1 0xF8 DUP5 PUSH1 0x3 SHL AND SHR NOT AND SWAP1 SSTORE DUP9 DUP1 DUP1 PUSH2 0xF8C JUMP JUMPDEST SWAP3 SWAP4 PUSH1 0x20 PUSH1 0x1 DUP2 SWAP3 DUP8 DUP7 ADD MLOAD DUP2 SSTORE ADD SWAP6 ADD SWAP4 ADD PUSH2 0xF76 JUMP JUMPDEST PUSH2 0xFF3 SWAP1 DUP5 PUSH0 MSTORE PUSH1 0x20 PUSH0 KECCAK256 PUSH1 0x1F DUP6 ADD PUSH1 0x5 SHR DUP2 ADD SWAP2 PUSH1 0x20 DUP7 LT PUSH2 0x952 JUMPI PUSH1 0x1F ADD PUSH1 0x5 SHR ADD SWAP1 PUSH2 0x4E37 JUMP JUMPDEST DUP9 PUSH2 0x3DA JUMP JUMPDEST SWAP1 PUSH1 0x1F NOT DUP4 AND SWAP2 DUP5 PUSH0 MSTORE DUP2 PUSH0 KECCAK256 SWAP3 PUSH0 JUMPDEST DUP2 DUP2 LT PUSH2 0x1044 JUMPI POP SWAP1 DUP5 PUSH1 0x1 SWAP6 SWAP5 SWAP4 SWAP3 LT PUSH2 0x102C JUMPI JUMPDEST POP POP POP DUP2 SHL ADD DUP2 SSTORE PUSH2 0x3AD JUMP JUMPDEST ADD MLOAD PUSH0 NOT PUSH1 0xF8 DUP5 PUSH1 0x3 SHL AND SHR NOT AND SWAP1 SSTORE DUP8 DUP1 DUP1 PUSH2 0x101F JUMP JUMPDEST SWAP3 SWAP4 PUSH1 0x20 PUSH1 0x1 DUP2 SWAP3 DUP8 DUP7 ADD MLOAD DUP2 SSTORE ADD SWAP6 ADD SWAP4 ADD PUSH2 0x1009 JUMP JUMPDEST PUSH2 0x1086 SWAP1 DUP5 PUSH0 MSTORE PUSH1 0x20 PUSH0 KECCAK256 PUSH1 0x1F DUP6 ADD PUSH1 0x5 SHR DUP2 ADD SWAP2 PUSH1 0x20 DUP7 LT PUSH2 0x952 JUMPI PUSH1 0x1F ADD PUSH1 0x5 SHR ADD SWAP1 PUSH2 0x4E37 JUMP JUMPDEST DUP8 PUSH2 0x37A JUMP JUMPDEST PUSH2 0x10AE SWAP2 POP PUSH1 0x20 RETURNDATASIZE PUSH1 0x20 GT PUSH2 0x10B4 JUMPI JUMPDEST PUSH2 0x10A6 DUP2 DUP4 PUSH2 0x48D2 JUMP JUMPDEST DUP2 ADD SWAP1 PUSH2 0x4DE4 JUMP JUMPDEST DUP6 PUSH2 0x2F3 JUMP JUMPDEST POP RETURNDATASIZE PUSH2 0x109C JUMP JUMPDEST PUSH1 0x40 MLOAD RETURNDATASIZE PUSH0 DUP3 RETURNDATACOPY RETURNDATASIZE SWAP1 REVERT JUMPDEST CALLVALUE PUSH2 0x282 JUMPI PUSH1 0x40 CALLDATASIZE PUSH1 0x3 NOT ADD SLT PUSH2 0x282 JUMPI PUSH1 0x4 CALLDATALOAD PUSH1 0x1 PUSH1 0x1 PUSH1 0x40 SHL SUB DUP2 GT PUSH2 0x282 JUMPI PUSH2 0x10F6 SWAP1 CALLDATASIZE SWAP1 PUSH1 0x4 ADD PUSH2 0x48F3 JUMP JUMPDEST PUSH1 0x24 CALLDATALOAD PUSH1 0x1 PUSH1 0x1 PUSH1 0x40 SHL SUB DUP2 GT PUSH2 0x282 JUMPI PUSH2 0x1115 SWAP1 CALLDATASIZE SWAP1 PUSH1 0x4 ADD PUSH2 0x4CBF JUMP JUMPDEST PUSH1 0x40 MLOAD PUSH4 0x95A8C58D PUSH1 0xE0 SHL DUP2 MSTORE CALLER PUSH1 0x4 DUP3 ADD MSTORE PUSH0 PUSH1 0x24 DUP3 ADD MSTORE SWAP1 SWAP2 SWAP1 PUSH1 0x20 DUP2 PUSH1 0x44 DUP2 PUSH1 0x1 PUSH1 0x1 PUSH1 0xA0 SHL SUB PUSH32 0x0 AND GAS STATICCALL DUP1 ISZERO PUSH2 0x10BB JUMPI PUSH2 0x1179 SWAP2 PUSH0 SWAP2 PUSH2 0x16D4 JUMPI POP PUSH2 0x4DFC JUMP JUMPDEST PUSH1 0x20 PUSH1 0x40 MLOAD SWAP2 DUP1 MLOAD SWAP3 DUP3 DUP2 DUP2 DUP5 ADD SWAP6 DUP1 DUP8 DUP4 MCOPY DUP2 ADD PUSH0 DUP2 MSTORE SUB ADD SWAP1 KECCAK256 PUSH1 0x1 DUP2 ADD PUSH1 0x9 PUSH1 0xFF NOT DUP3 SLOAD AND OR SWAP1 SSTORE PUSH1 0xA TIMESTAMP SWAP2 ADD SSTORE PUSH1 0x40 MLOAD SWAP3 DUP4 SWAP2 MLOAD DUP1 SWAP2 DUP4 MCOPY DUP2 ADD PUSH1 0x5 DUP2 MSTORE SUB ADD SWAP1 KECCAK256 DUP2 MLOAD SWAP2 DUP3 MLOAD PUSH1 0x1 PUSH1 0x1 PUSH1 0x40 SHL SUB DUP2 GT PUSH2 0x95C JUMPI PUSH2 0x11DC DUP4 SLOAD PUSH2 0x4BC3 JUMP JUMPDEST PUSH1 0x1F DUP2 GT PUSH2 0x16A4 JUMPI JUMPDEST POP PUSH1 0x20 PUSH1 0x1F DUP3 GT PUSH1 0x1 EQ PUSH2 0x1643 JUMPI DUP2 SWAP1 PUSH2 0x1215 SWAP4 SWAP5 SWAP6 PUSH0 SWAP3 PUSH2 0x1638 JUMPI POP POP DUP2 PUSH1 0x1 SHL SWAP2 PUSH0 NOT SWAP1 PUSH1 0x3 SHL SHR NOT AND OR SWAP1 JUMP JUMPDEST DUP3 SSTORE JUMPDEST PUSH1 0x1 DUP3 ADD SWAP2 PUSH1 0x20 DUP3 ADD MLOAD SWAP3 DUP4 MLOAD PUSH1 0x1 PUSH1 0x1 PUSH1 0x40 SHL SUB DUP2 GT PUSH2 0x95C JUMPI PUSH2 0x123D DUP3 SLOAD PUSH2 0x4BC3 JUMP JUMPDEST PUSH1 0x1F DUP2 GT PUSH2 0x1608 JUMPI JUMPDEST POP PUSH1 0x20 SWAP5 PUSH1 0x1F DUP3 GT PUSH1 0x1 EQ PUSH2 0x15A7 JUMPI PUSH2 0x1278 SWAP3 SWAP4 SWAP5 SWAP6 DUP3 SWAP2 PUSH0 SWAP3 PUSH2 0x150B JUMPI POP POP DUP2 PUSH1 0x1 SHL SWAP2 PUSH0 NOT SWAP1 PUSH1 0x3 SHL SHR NOT AND OR SWAP1 JUMP JUMPDEST SWAP1 SSTORE JUMPDEST PUSH1 0x2 DUP2 ADD SWAP2 PUSH1 0x40 DUP2 ADD MLOAD SWAP3 DUP4 MLOAD PUSH1 0x1 PUSH1 0x1 PUSH1 0x40 SHL SUB DUP2 GT PUSH2 0x95C JUMPI PUSH2 0x12A0 DUP3 SLOAD PUSH2 0x4BC3 JUMP JUMPDEST PUSH1 0x1F DUP2 GT PUSH2 0x1577 JUMPI JUMPDEST POP PUSH1 0x20 SWAP5 PUSH1 0x1F DUP3 GT PUSH1 0x1 EQ PUSH2 0x1516 JUMPI PUSH2 0x12DB SWAP3 SWAP4 SWAP5 SWAP6 DUP3 SWAP2 PUSH0 SWAP3 PUSH2 0x150B JUMPI POP POP DUP2 PUSH1 0x1 SHL SWAP2 PUSH0 NOT SWAP1 PUSH1 0x3 SHL SHR NOT AND OR SWAP1 JUMP JUMPDEST SWAP1 SSTORE JUMPDEST PUSH1 0x3 DUP3 ADD SWAP2 PUSH1 0x60 DUP3 ADD MLOAD SWAP3 DUP4 MLOAD PUSH1 0x1 PUSH1 0x1 PUSH1 0x40 SHL SUB DUP2 GT PUSH2 0x95C JUMPI PUSH2 0x1303 DUP3 SLOAD PUSH2 0x4BC3 JUMP JUMPDEST PUSH1 0x1F DUP2 GT PUSH2 0x14DB JUMPI JUMPDEST POP PUSH1 0x20 PUSH1 0x1F DUP3 GT PUSH1 0x1 EQ PUSH2 0x1472 JUMPI DUP2 PUSH1 0x4 SWAP5 SWAP4 SWAP3 PUSH2 0x1342 SWAP3 PUSH1 0x80 SWAP8 SWAP9 PUSH0 SWAP3 PUSH2 0xA09 JUMPI POP POP DUP2 PUSH1 0x1 SHL SWAP2 PUSH0 NOT SWAP1 PUSH1 0x3 SHL SHR NOT AND OR SWAP1 JUMP JUMPDEST SWAP1 SSTORE JUMPDEST ADD SWAP2 ADD MLOAD SWAP1 DUP2 MLOAD PUSH1 0x1 PUSH1 0x1 PUSH1 0x40 SHL SUB DUP2 GT PUSH2 0x95C JUMPI PUSH2 0x1364 DUP3 SLOAD PUSH2 0x4BC3 JUMP JUMPDEST PUSH1 0x1F DUP2 GT PUSH2 0x1442 JUMPI JUMPDEST POP PUSH1 0x20 SWAP3 PUSH1 0x1F DUP3 GT PUSH1 0x1 EQ PUSH2 0x13E3 JUMPI PUSH2 0x139D SWAP3 SWAP4 DUP3 SWAP2 PUSH0 SWAP3 PUSH2 0x13D8 JUMPI POP POP DUP2 PUSH1 0x1 SHL SWAP2 PUSH0 NOT SWAP1 PUSH1 0x3 SHL SHR NOT AND OR SWAP1 JUMP JUMPDEST SWAP1 SSTORE JUMPDEST PUSH1 0x40 DUP1 MLOAD CALLER DUP2 MSTORE TIMESTAMP PUSH1 0x20 DUP3 ADD MSTORE PUSH32 0x6623D3BE3FD8E6EC82AA51CC5A014832DE51D50025180C14D48276C8F011853B SWAP2 DUP2 SWAP1 DUP2 ADD PUSH2 0x884 JUMP JUMPDEST ADD MLOAD SWAP1 POP DUP5 DUP1 PUSH2 0x396 JUMP JUMPDEST PUSH1 0x1F NOT DUP3 AND SWAP4 DUP4 PUSH0 MSTORE DUP1 PUSH0 KECCAK256 SWAP2 PUSH0 JUMPDEST DUP7 DUP2 LT PUSH2 0x142A JUMPI POP DUP4 PUSH1 0x1 SWAP6 SWAP7 LT PUSH2 0x1412 JUMPI JUMPDEST POP POP POP DUP2 SHL ADD SWAP1 SSTORE PUSH2 0x13A0 JUMP JUMPDEST ADD MLOAD PUSH0 NOT PUSH1 0xF8 DUP5 PUSH1 0x3 SHL AND SHR NOT AND SWAP1 SSTORE DUP4 DUP1 DUP1 PUSH2 0x1405 JUMP JUMPDEST SWAP2 SWAP3 PUSH1 0x20 PUSH1 0x1 DUP2 SWAP3 DUP7 DUP6 ADD MLOAD DUP2 SSTORE ADD SWAP5 ADD SWAP3 ADD PUSH2 0x13F2 JUMP JUMPDEST PUSH2 0x146C SWAP1 DUP4 PUSH0 MSTORE PUSH1 0x20 PUSH0 KECCAK256 PUSH1 0x1F DUP5 ADD PUSH1 0x5 SHR DUP2 ADD SWAP2 PUSH1 0x20 DUP6 LT PUSH2 0x952 JUMPI PUSH1 0x1F ADD PUSH1 0x5 SHR ADD SWAP1 PUSH2 0x4E37 JUMP JUMPDEST DUP4 PUSH2 0x136D JUMP JUMPDEST PUSH1 0x1F NOT DUP3 AND SWAP6 DUP4 PUSH0 MSTORE DUP2 PUSH0 KECCAK256 SWAP7 PUSH0 JUMPDEST DUP2 DUP2 LT PUSH2 0x14C3 JUMPI POP SWAP7 PUSH1 0x1 SWAP3 DUP5 SWAP3 PUSH1 0x4 SWAP8 SWAP7 SWAP6 PUSH1 0x80 SWAP10 SWAP11 LT PUSH2 0x14AB JUMPI JUMPDEST POP POP POP DUP2 SHL ADD SWAP1 SSTORE PUSH2 0x1345 JUMP JUMPDEST ADD MLOAD PUSH0 NOT PUSH1 0xF8 DUP5 PUSH1 0x3 SHL AND SHR NOT AND SWAP1 SSTORE DUP8 DUP1 DUP1 PUSH2 0x149E JUMP JUMPDEST DUP4 DUP4 ADD MLOAD DUP10 SSTORE PUSH1 0x1 SWAP1 SWAP9 ADD SWAP8 PUSH1 0x20 SWAP4 DUP5 ADD SWAP4 ADD PUSH2 0x1481 JUMP JUMPDEST PUSH2 0x1505 SWAP1 DUP4 PUSH0 MSTORE PUSH1 0x20 PUSH0 KECCAK256 PUSH1 0x1F DUP5 ADD PUSH1 0x5 SHR DUP2 ADD SWAP2 PUSH1 0x20 DUP6 LT PUSH2 0x952 JUMPI PUSH1 0x1F ADD PUSH1 0x5 SHR ADD SWAP1 PUSH2 0x4E37 JUMP JUMPDEST DUP6 PUSH2 0x130C JUMP JUMPDEST ADD MLOAD SWAP1 POP DUP7 DUP1 PUSH2 0x396 JUMP JUMPDEST PUSH1 0x1F NOT DUP3 AND SWAP6 DUP4 PUSH0 MSTORE DUP1 PUSH0 KECCAK256 SWAP2 PUSH0 JUMPDEST DUP9 DUP2 LT PUSH2 0x155F JUMPI POP DUP4 PUSH1 0x1 SWAP6 SWAP7 SWAP8 SWAP9 LT PUSH2 0x1547 JUMPI JUMPDEST POP POP POP DUP2 SHL ADD SWAP1 SSTORE PUSH2 0x12DE JUMP JUMPDEST ADD MLOAD PUSH0 NOT PUSH1 0xF8 DUP5 PUSH1 0x3 SHL AND SHR NOT AND SWAP1 SSTORE DUP6 DUP1 DUP1 PUSH2 0x153A JUMP JUMPDEST SWAP2 SWAP3 PUSH1 0x20 PUSH1 0x1 DUP2 SWAP3 DUP7 DUP6 ADD MLOAD DUP2 SSTORE ADD SWAP5 ADD SWAP3 ADD PUSH2 0x1525 JUMP JUMPDEST PUSH2 0x15A1 SWAP1 DUP4 PUSH0 MSTORE PUSH1 0x20 PUSH0 KECCAK256 PUSH1 0x1F DUP5 ADD PUSH1 0x5 SHR DUP2 ADD SWAP2 PUSH1 0x20 DUP6 LT PUSH2 0x952 JUMPI PUSH1 0x1F ADD PUSH1 0x5 SHR ADD SWAP1 PUSH2 0x4E37 JUMP JUMPDEST DUP6 PUSH2 0x12A9 JUMP JUMPDEST PUSH1 0x1F NOT DUP3 AND SWAP6 DUP4 PUSH0 MSTORE DUP1 PUSH0 KECCAK256 SWAP2 PUSH0 JUMPDEST DUP9 DUP2 LT PUSH2 0x15F0 JUMPI POP DUP4 PUSH1 0x1 SWAP6 SWAP7 SWAP8 SWAP9 LT PUSH2 0x15D8 JUMPI JUMPDEST POP POP POP DUP2 SHL ADD SWAP1 SSTORE PUSH2 0x127B JUMP JUMPDEST ADD MLOAD PUSH0 NOT PUSH1 0xF8 DUP5 PUSH1 0x3 SHL AND SHR NOT AND SWAP1 SSTORE DUP6 DUP1 DUP1 PUSH2 0x15CB JUMP JUMPDEST SWAP2 SWAP3 PUSH1 0x20 PUSH1 0x1 DUP2 SWAP3 DUP7 DUP6 ADD MLOAD DUP2 SSTORE ADD SWAP5 ADD SWAP3 ADD PUSH2 0x15B6 JUMP JUMPDEST PUSH2 0x1632 SWAP1 DUP4 PUSH0 MSTORE PUSH1 0x20 PUSH0 KECCAK256 PUSH1 0x1F DUP5 ADD PUSH1 0x5 SHR DUP2 ADD SWAP2 PUSH1 0x20 DUP6 LT PUSH2 0x952 JUMPI PUSH1 0x1F ADD PUSH1 0x5 SHR ADD SWAP1 PUSH2 0x4E37 JUMP JUMPDEST DUP6 PUSH2 0x1246 JUMP JUMPDEST ADD MLOAD SWAP1 POP DUP6 DUP1 PUSH2 0x396 JUMP JUMPDEST PUSH1 0x1F NOT DUP3 AND SWAP1 DUP5 PUSH0 MSTORE DUP1 PUSH0 KECCAK256 SWAP2 PUSH0 JUMPDEST DUP2 DUP2 LT PUSH2 0x168C JUMPI POP SWAP6 DUP4 PUSH1 0x1 SWAP6 SWAP7 SWAP8 LT PUSH2 0x1674 JUMPI JUMPDEST POP POP POP DUP2 SHL ADD DUP3 SSTORE PUSH2 0x1218 JUMP JUMPDEST ADD MLOAD PUSH0 NOT PUSH1 0xF8 DUP5 PUSH1 0x3 SHL AND SHR NOT AND SWAP1 SSTORE DUP5 DUP1 DUP1 PUSH2 0x1667 JUMP JUMPDEST SWAP2 SWAP3 PUSH1 0x20 PUSH1 0x1 DUP2 SWAP3 DUP7 DUP12 ADD MLOAD DUP2 SSTORE ADD SWAP5 ADD SWAP3 ADD PUSH2 0x1652 JUMP JUMPDEST PUSH2 0x16CE SWAP1 DUP5 PUSH0 MSTORE PUSH1 0x20 PUSH0 KECCAK256 PUSH1 0x1F DUP5 ADD PUSH1 0x5 SHR DUP2 ADD SWAP2 PUSH1 0x20 DUP6 LT PUSH2 0x952 JUMPI PUSH1 0x1F ADD PUSH1 0x5 SHR ADD SWAP1 PUSH2 0x4E37 JUMP JUMPDEST DUP5 PUSH2 0x11E5 JUMP JUMPDEST PUSH2 0x16ED SWAP2 POP PUSH1 0x20 RETURNDATASIZE PUSH1 0x20 GT PUSH2 0x10B4 JUMPI PUSH2 0x10A6 DUP2 DUP4 PUSH2 0x48D2 JUMP JUMPDEST DUP5 PUSH2 0x2F3 JUMP JUMPDEST CALLVALUE PUSH2 0x282 JUMPI PUSH1 0x20 CALLDATASIZE PUSH1 0x3 NOT ADD SLT PUSH2 0x282 JUMPI PUSH1 0x4 CALLDATALOAD PUSH1 0x1 PUSH1 0x1 PUSH1 0x40 SHL SUB DUP2 GT PUSH2 0x282 JUMPI PUSH1 0x20 DUP1 PUSH2 0x1729 PUSH2 0x179D SWAP4 CALLDATASIZE SWAP1 PUSH1 0x4 ADD PUSH2 0x48F3 JUMP JUMPDEST PUSH1 0x40 MLOAD SWAP3 DUP2 DUP5 SWAP3 MLOAD SWAP2 DUP3 SWAP2 ADD DUP4 MCOPY DUP2 ADD PUSH1 0x5 DUP2 MSTORE SUB ADD SWAP1 KECCAK256 PUSH2 0x17D5 PUSH2 0x174D DUP3 PUSH2 0x4BFB JUMP JUMPDEST SWAP2 PUSH2 0x17C7 PUSH2 0x175D PUSH1 0x1 DUP4 ADD PUSH2 0x4BFB JUMP JUMPDEST SWAP2 PUSH2 0x17B9 PUSH2 0x176D PUSH1 0x2 DUP4 ADD PUSH2 0x4BFB JUMP JUMPDEST PUSH2 0x17AB PUSH2 0x1788 PUSH1 0x4 PUSH2 0x1781 PUSH1 0x3 DUP8 ADD PUSH2 0x4BFB JUMP JUMPDEST SWAP6 ADD PUSH2 0x4BFB JUMP JUMPDEST SWAP6 PUSH1 0x40 MLOAD SWAP10 DUP11 SWAP10 PUSH1 0xA0 DUP12 MSTORE PUSH1 0xA0 DUP12 ADD SWAP1 PUSH2 0x4C9B JUMP JUMPDEST SWAP1 DUP10 DUP3 SUB PUSH1 0x20 DUP12 ADD MSTORE PUSH2 0x4C9B JUMP JUMPDEST SWAP1 DUP8 DUP3 SUB PUSH1 0x40 DUP10 ADD MSTORE PUSH2 0x4C9B JUMP JUMPDEST SWAP1 DUP6 DUP3 SUB PUSH1 0x60 DUP8 ADD MSTORE PUSH2 0x4C9B JUMP JUMPDEST SWAP1 DUP4 DUP3 SUB PUSH1 0x80 DUP6 ADD MSTORE PUSH2 0x4C9B JUMP JUMPDEST SUB SWAP1 RETURN JUMPDEST CALLVALUE PUSH2 0x282 JUMPI PUSH1 0x20 CALLDATASIZE PUSH1 0x3 NOT ADD SLT PUSH2 0x282 JUMPI PUSH1 0x4 CALLDATALOAD PUSH1 0x1 PUSH1 0x1 PUSH1 0x40 SHL SUB DUP2 GT PUSH2 0x282 JUMPI PUSH2 0x182F PUSH1 0x20 DUP1 PUSH2 0x1812 PUSH2 0x17D5 SWAP5 CALLDATASIZE SWAP1 PUSH1 0x4 ADD PUSH2 0x48F3 JUMP JUMPDEST PUSH1 0x40 MLOAD SWAP3 DUP2 DUP5 SWAP3 MLOAD SWAP2 DUP3 SWAP2 ADD DUP4 MCOPY DUP2 ADD PUSH1 0x1 DUP2 MSTORE SUB ADD SWAP1 KECCAK256 PUSH2 0x4BFB JUMP JUMPDEST PUSH1 0x40 MLOAD SWAP2 DUP3 SWAP2 PUSH1 0x20 DUP4 MSTORE PUSH1 0x20 DUP4 ADD SWAP1 PUSH2 0x4C9B JUMP JUMPDEST CALLVALUE PUSH2 0x282 JUMPI PUSH1 0x20 CALLDATASIZE PUSH1 0x3 NOT ADD SLT PUSH2 0x282 JUMPI PUSH1 0x4 CALLDATALOAD PUSH1 0x1 PUSH1 0x1 PUSH1 0x40 SHL SUB DUP2 GT PUSH2 0x282 JUMPI PUSH2 0x1876 PUSH2 0x18D1 SWAP2 CALLDATASIZE SWAP1 PUSH1 0x4 ADD PUSH2 0x48F3 JUMP JUMPDEST PUSH2 0x17D5 PUSH2 0x18BD PUSH2 0x18B7 PUSH1 0x40 MLOAD PUSH1 0x20 DUP6 MLOAD SWAP2 DUP2 DUP2 DUP2 DUP10 ADD SWAP5 DUP1 DUP7 DUP4 MCOPY DUP2 ADD PUSH1 0x1 DUP2 MSTORE SUB ADD SWAP1 KECCAK256 SWAP6 PUSH1 0x40 MLOAD SWAP3 DUP4 SWAP2 MLOAD DUP1 SWAP2 DUP4 MCOPY DUP2 ADD PUSH1 0x2 DUP2 MSTORE SUB ADD SWAP1 KECCAK256 SWAP4 PUSH2 0x4BFB JUMP JUMPDEST SWAP3 PUSH2 0x4BFB JUMP JUMPDEST PUSH1 0x40 MLOAD SWAP4 DUP5 SWAP4 PUSH1 0x40 DUP6 MSTORE PUSH1 0x40 DUP6 ADD SWAP1 PUSH2 0x4C9B JUMP JUMPDEST SWAP1 DUP4 DUP3 SUB PUSH1 0x20 DUP6 ADD MSTORE PUSH2 0x4C9B JUMP JUMPDEST CALLVALUE PUSH2 0x282 JUMPI PUSH2 0x18ED CALLDATASIZE PUSH2 0x4D97 JUMP JUMPDEST PUSH1 0x40 MLOAD PUSH4 0x95A8C58D PUSH1 0xE0 SHL DUP2 MSTORE CALLER PUSH1 0x4 DUP3 ADD MSTORE PUSH1 0x2 PUSH1 0x24 DUP3 ADD MSTORE SWAP1 SWAP2 PUSH1 0x20 DUP3 PUSH1 0x44 DUP2 PUSH1 0x1 PUSH1 0x1 PUSH1 0xA0 SHL SUB PUSH32 0x0 AND GAS STATICCALL SWAP1 DUP2 ISZERO PUSH2 0x10BB JUMPI PUSH2 0x1958 PUSH1 0x20 SWAP4 SWAP3 DUP5 SWAP4 PUSH0 SWAP2 PUSH2 0x1ACA JUMPI JUMPDEST POP PUSH2 0x4F4A JUMP JUMPDEST PUSH1 0x40 MLOAD SWAP3 DUP2 DUP5 SWAP3 MLOAD SWAP2 DUP3 SWAP2 ADD DUP4 MCOPY DUP2 ADD PUSH0 DUP2 MSTORE SUB ADD SWAP1 KECCAK256 PUSH1 0x1 DUP2 ADD PUSH1 0x7 PUSH1 0xFF NOT DUP3 SLOAD AND OR SWAP1 SSTORE TIMESTAMP PUSH1 0x9 DUP3 ADD SSTORE PUSH1 0x82 TIMESTAMP ADD SWAP1 DUP2 TIMESTAMP GT PUSH2 0x1AB6 JUMPI PUSH1 0xF SWAP2 PUSH1 0x7 DUP3 ADD SSTORE ADD DUP2 MLOAD PUSH1 0x1 PUSH1 0x1 PUSH1 0x40 SHL SUB DUP2 GT PUSH2 0x95C JUMPI PUSH2 0x19B3 DUP3 SLOAD PUSH2 0x4BC3 JUMP JUMPDEST PUSH1 0x1F DUP2 GT PUSH2 0x1A86 JUMPI JUMPDEST POP PUSH1 0x20 SWAP3 PUSH1 0x1F DUP3 GT PUSH1 0x1 EQ PUSH2 0x1A27 JUMPI PUSH2 0x19EC SWAP3 SWAP4 DUP3 SWAP2 PUSH0 SWAP3 PUSH2 0x13D8 JUMPI POP POP DUP2 PUSH1 0x1 SHL SWAP2 PUSH0 NOT SWAP1 PUSH1 0x3 SHL SHR NOT AND OR SWAP1 JUMP JUMPDEST SWAP1 SSTORE JUMPDEST PUSH1 0x40 DUP1 MLOAD CALLER DUP2 MSTORE TIMESTAMP PUSH1 0x20 DUP3 ADD MSTORE PUSH32 0xDC1549B9D8F53BF4F107AFCE167FF871F6F9B8B72089D73274686ECB22B03638 SWAP2 DUP2 SWAP1 DUP2 ADD PUSH2 0x884 JUMP JUMPDEST PUSH1 0x1F NOT DUP3 AND SWAP4 DUP4 PUSH0 MSTORE DUP1 PUSH0 KECCAK256 SWAP2 PUSH0 JUMPDEST DUP7 DUP2 LT PUSH2 0x1A6E JUMPI POP DUP4 PUSH1 0x1 SWAP6 SWAP7 LT PUSH2 0x1A56 JUMPI JUMPDEST POP POP POP DUP2 SHL ADD SWAP1 SSTORE PUSH2 0x19EF JUMP JUMPDEST ADD MLOAD PUSH0 NOT PUSH1 0xF8 DUP5 PUSH1 0x3 SHL AND SHR NOT AND SWAP1 SSTORE DUP4 DUP1 DUP1 PUSH2 0x1A49 JUMP JUMPDEST SWAP2 SWAP3 PUSH1 0x20 PUSH1 0x1 DUP2 SWAP3 DUP7 DUP6 ADD MLOAD DUP2 SSTORE ADD SWAP5 ADD SWAP3 ADD PUSH2 0x1A36 JUMP JUMPDEST PUSH2 0x1AB0 SWAP1 DUP4 PUSH0 MSTORE PUSH1 0x20 PUSH0 KECCAK256 PUSH1 0x1F DUP5 ADD PUSH1 0x5 SHR DUP2 ADD SWAP2 PUSH1 0x20 DUP6 LT PUSH2 0x952 JUMPI PUSH1 0x1F ADD PUSH1 0x5 SHR ADD SWAP1 PUSH2 0x4E37 JUMP JUMPDEST DUP4 PUSH2 0x19BC JUMP JUMPDEST PUSH4 0x4E487B71 PUSH1 0xE0 SHL PUSH0 MSTORE PUSH1 0x11 PUSH1 0x4 MSTORE PUSH1 0x24 PUSH0 REVERT JUMPDEST PUSH2 0x1AE1 SWAP2 POP DUP5 RETURNDATASIZE DUP7 GT PUSH2 0x10B4 JUMPI PUSH2 0x10A6 DUP2 DUP4 PUSH2 0x48D2 JUMP JUMPDEST DUP7 PUSH2 0x1952 JUMP JUMPDEST CALLVALUE PUSH2 0x282 JUMPI PUSH2 0x1AF5 CALLDATASIZE PUSH2 0x4D97 JUMP JUMPDEST PUSH1 0x40 MLOAD SWAP1 PUSH2 0x1B02 DUP3 PUSH2 0x4865 JUMP JUMPDEST PUSH1 0x20 DUP1 SWAP4 DUP2 SWAP3 PUSH1 0x40 MLOAD PUSH2 0x1B15 DUP5 DUP3 PUSH2 0x48D2 JUMP JUMPDEST PUSH0 DUP2 MSTORE DUP6 MSTORE PUSH0 DUP4 DUP7 ADD MSTORE TIMESTAMP PUSH1 0x40 DUP7 ADD MSTORE PUSH0 PUSH1 0x60 DUP7 ADD MSTORE PUSH0 PUSH1 0x80 DUP7 ADD MSTORE PUSH0 PUSH1 0xA0 DUP7 ADD MSTORE PUSH0 PUSH1 0xC0 DUP7 ADD MSTORE PUSH0 PUSH1 0xE0 DUP7 ADD MSTORE PUSH0 PUSH2 0x100 DUP7 ADD MSTORE PUSH0 PUSH2 0x120 DUP7 ADD MSTORE PUSH0 PUSH2 0x140 DUP7 ADD MSTORE PUSH0 PUSH2 0x160 DUP7 ADD MSTORE PUSH2 0x180 DUP6 ADD MSTORE PUSH1 0x40 MLOAD PUSH2 0x1B72 DUP4 DUP3 PUSH2 0x48D2 JUMP JUMPDEST PUSH0 DUP2 MSTORE PUSH2 0x1A0 DUP6 ADD MSTORE PUSH0 PUSH2 0x1C0 DUP6 ADD MSTORE PUSH1 0x40 MLOAD PUSH2 0x1B8F DUP4 DUP3 PUSH2 0x48D2 JUMP JUMPDEST PUSH0 DUP2 MSTORE PUSH2 0x1E0 DUP6 ADD MSTORE PUSH1 0x40 MLOAD SWAP3 DUP2 DUP5 SWAP3 MLOAD SWAP2 DUP3 SWAP2 ADD DUP4 MCOPY DUP2 ADD PUSH0 DUP2 MSTORE SUB ADD SWAP1 KECCAK256 SWAP1 DUP1 MLOAD SWAP2 DUP3 MLOAD PUSH1 0x1 PUSH1 0x1 PUSH1 0x40 SHL SUB DUP2 GT PUSH2 0x95C JUMPI PUSH2 0x1BCD DUP3 SLOAD PUSH2 0x4BC3 JUMP JUMPDEST PUSH1 0x1F DUP2 GT PUSH2 0x200A JUMPI JUMPDEST POP DUP5 PUSH1 0x1F DUP3 GT PUSH1 0x1 EQ PUSH2 0x1FA7 JUMPI DUP2 SWAP1 PUSH2 0x1C05 SWAP4 SWAP5 SWAP6 PUSH0 SWAP3 PUSH2 0x150B JUMPI POP POP DUP2 PUSH1 0x1 SHL SWAP2 PUSH0 NOT SWAP1 PUSH1 0x3 SHL SHR NOT AND OR SWAP1 JUMP JUMPDEST DUP2 SSTORE JUMPDEST PUSH1 0x1 DUP2 ADD DUP4 DUP4 ADD MLOAD PUSH1 0xA DUP2 LT ISZERO PUSH2 0x1F93 JUMPI PUSH1 0xFF DUP1 NOT DUP4 SLOAD AND SWAP2 AND OR SWAP1 SSTORE PUSH1 0x40 DUP3 ADD MLOAD PUSH1 0x2 DUP3 ADD SSTORE PUSH1 0x60 DUP3 ADD MLOAD PUSH1 0x3 DUP3 ADD SSTORE PUSH1 0x80 DUP3 ADD MLOAD PUSH1 0x4 DUP3 ADD SSTORE PUSH1 0xA0 DUP3 ADD MLOAD PUSH1 0x5 DUP3 ADD SSTORE PUSH1 0xC0 DUP3 ADD MLOAD PUSH1 0x6 DUP3 ADD SSTORE PUSH1 0xE0 DUP3 ADD MLOAD PUSH1 0x7 DUP3 ADD SSTORE PUSH2 0x100 DUP3 ADD MLOAD PUSH1 0x8 DUP3 ADD SSTORE PUSH2 0x120 DUP3 ADD MLOAD PUSH1 0x9 DUP3 ADD SSTORE PUSH2 0x140 DUP3 ADD MLOAD PUSH1 0xA DUP3 ADD SSTORE PUSH2 0x160 DUP3 ADD MLOAD PUSH1 0xB DUP3 ADD SSTORE PUSH1 0xC DUP2 ADD PUSH2 0x180 DUP4 ADD MLOAD DUP1 MLOAD SWAP1 PUSH1 0x1 PUSH1 0x1 PUSH1 0x40 SHL SUB DUP3 GT PUSH2 0x95C JUMPI PUSH2 0x1CB2 DUP4 SLOAD PUSH2 0x4BC3 JUMP JUMPDEST PUSH1 0x1F DUP2 GT PUSH2 0x1F65 JUMPI JUMPDEST POP DUP6 SWAP1 PUSH1 0x1F DUP4 GT PUSH1 0x1 EQ PUSH2 0x1F02 JUMPI PUSH2 0x1CE9 SWAP3 SWAP2 PUSH0 SWAP2 DUP4 PUSH2 0xBCD JUMPI POP POP DUP2 PUSH1 0x1 SHL SWAP2 PUSH0 NOT SWAP1 PUSH1 0x3 SHL SHR NOT AND OR SWAP1 JUMP JUMPDEST SWAP1 SSTORE JUMPDEST PUSH1 0xD DUP2 ADD PUSH2 0x1A0 DUP4 ADD MLOAD DUP1 MLOAD SWAP1 PUSH1 0x1 PUSH1 0x1 PUSH1 0x40 SHL SUB DUP3 GT PUSH2 0x95C JUMPI PUSH2 0x1D11 DUP4 SLOAD PUSH2 0x4BC3 JUMP JUMPDEST PUSH1 0x1F DUP2 GT PUSH2 0x1ED4 JUMPI JUMPDEST POP DUP6 SWAP1 PUSH1 0x1F DUP4 GT PUSH1 0x1 EQ PUSH2 0x1E6A JUMPI DUP3 PUSH2 0x1E0 SWAP6 SWAP4 PUSH1 0xF SWAP6 SWAP4 PUSH2 0x1D50 SWAP4 PUSH0 SWAP3 PUSH2 0xDA2 JUMPI POP POP DUP2 PUSH1 0x1 SHL SWAP2 PUSH0 NOT SWAP1 PUSH1 0x3 SHL SHR NOT AND OR SWAP1 JUMP JUMPDEST SWAP1 SSTORE JUMPDEST PUSH2 0x1C0 DUP5 ADD MLOAD PUSH1 0xE DUP3 ADD DUP1 SLOAD PUSH1 0x1 PUSH1 0x1 PUSH1 0xA0 SHL SUB NOT AND PUSH1 0x1 PUSH1 0x1 PUSH1 0xA0 SHL SUB SWAP3 SWAP1 SWAP3 AND SWAP2 SWAP1 SWAP2 OR SWAP1 SSTORE SWAP2 SWAP1 SWAP3 ADD MLOAD DUP1 MLOAD SWAP1 SWAP4 SWAP3 SWAP1 SWAP2 ADD SWAP2 PUSH1 0x1 PUSH1 0x1 PUSH1 0x40 SHL SUB DUP3 GT PUSH2 0x95C JUMPI PUSH2 0x1DA1 DUP4 SLOAD PUSH2 0x4BC3 JUMP JUMPDEST PUSH1 0x1F DUP2 GT PUSH2 0x1E3C JUMPI JUMPDEST POP DUP1 PUSH1 0x1F DUP4 GT PUSH1 0x1 EQ PUSH2 0x1DDD JUMPI POP DUP2 SWAP1 PUSH2 0x1DD9 SWAP4 SWAP5 PUSH0 SWAP3 PUSH2 0x13D8 JUMPI POP POP DUP2 PUSH1 0x1 SHL SWAP2 PUSH0 NOT SWAP1 PUSH1 0x3 SHL SHR NOT AND OR SWAP1 JUMP JUMPDEST SWAP1 SSTORE STOP JUMPDEST SWAP1 PUSH1 0x1F NOT DUP4 AND SWAP5 DUP5 PUSH0 MSTORE DUP3 PUSH0 KECCAK256 SWAP3 PUSH0 SWAP1 JUMPDEST DUP8 DUP3 LT PUSH2 0x1E24 JUMPI POP POP DUP4 PUSH1 0x1 SWAP6 SWAP7 LT PUSH2 0x1E0C JUMPI JUMPDEST POP POP POP DUP2 SHL ADD SWAP1 SSTORE STOP JUMPDEST ADD MLOAD PUSH0 NOT PUSH1 0xF8 DUP5 PUSH1 0x3 SHL AND SHR NOT AND SWAP1 SSTORE DUP4 DUP1 DUP1 PUSH2 0x1E02 JUMP JUMPDEST DUP1 PUSH1 0x1 DUP6 SWAP7 DUP3 SWAP5 SWAP7 DUP7 ADD MLOAD DUP2 SSTORE ADD SWAP6 ADD SWAP4 ADD SWAP1 PUSH2 0x1DEE JUMP JUMPDEST PUSH2 0x1E64 SWAP1 DUP5 PUSH0 MSTORE DUP3 PUSH0 KECCAK256 PUSH1 0x1F DUP6 ADD PUSH1 0x5 SHR DUP2 ADD SWAP2 DUP5 DUP7 LT PUSH2 0x952 JUMPI PUSH1 0x1F ADD PUSH1 0x5 SHR ADD SWAP1 PUSH2 0x4E37 JUMP JUMPDEST DUP5 PUSH2 0x1DAA JUMP JUMPDEST SWAP1 PUSH1 0x1F NOT DUP4 AND SWAP2 DUP5 PUSH0 MSTORE DUP8 PUSH0 KECCAK256 SWAP3 PUSH0 JUMPDEST DUP10 DUP3 DUP3 LT PUSH2 0x1EBE JUMPI POP POP SWAP3 PUSH1 0x1 SWAP3 DUP6 SWAP3 PUSH2 0x1E0 SWAP9 SWAP7 PUSH1 0xF SWAP9 SWAP7 LT PUSH2 0x1EA6 JUMPI JUMPDEST POP POP POP DUP2 SHL ADD SWAP1 SSTORE PUSH2 0x1D53 JUMP JUMPDEST ADD MLOAD PUSH0 NOT PUSH1 0xF8 DUP5 PUSH1 0x3 SHL AND SHR NOT AND SWAP1 SSTORE DUP9 DUP1 DUP1 PUSH2 0x1E99 JUMP JUMPDEST PUSH1 0x1 DUP6 SWAP7 DUP3 SWAP4 SWAP7 DUP7 ADD MLOAD DUP2 SSTORE ADD SWAP6 ADD SWAP4 ADD PUSH2 0x1E7A JUMP JUMPDEST PUSH2 0x1EFC SWAP1 DUP5 PUSH0 MSTORE DUP8 PUSH0 KECCAK256 PUSH1 0x1F DUP6 ADD PUSH1 0x5 SHR DUP2 ADD SWAP2 DUP10 DUP7 LT PUSH2 0x952 JUMPI PUSH1 0x1F ADD PUSH1 0x5 SHR ADD SWAP1 PUSH2 0x4E37 JUMP JUMPDEST DUP7 PUSH2 0x1D1A JUMP JUMPDEST SWAP1 PUSH1 0x1F NOT DUP4 AND SWAP2 DUP5 PUSH0 MSTORE DUP8 PUSH0 KECCAK256 SWAP3 PUSH0 JUMPDEST DUP10 DUP3 DUP3 LT PUSH2 0x1F4F JUMPI POP POP SWAP1 DUP5 PUSH1 0x1 SWAP6 SWAP5 SWAP4 SWAP3 LT PUSH2 0x1F37 JUMPI JUMPDEST POP POP POP DUP2 SHL ADD SWAP1 SSTORE PUSH2 0x1CEC JUMP JUMPDEST ADD MLOAD PUSH0 NOT PUSH1 0xF8 DUP5 PUSH1 0x3 SHL AND SHR NOT AND SWAP1 SSTORE DUP7 DUP1 DUP1 PUSH2 0x1F2A JUMP JUMPDEST PUSH1 0x1 DUP6 SWAP7 DUP3 SWAP4 SWAP7 DUP7 ADD MLOAD DUP2 SSTORE ADD SWAP6 ADD SWAP4 ADD PUSH2 0x1F12 JUMP JUMPDEST PUSH2 0x1F8D SWAP1 DUP5 PUSH0 MSTORE DUP8 PUSH0 KECCAK256 PUSH1 0x1F DUP6 ADD PUSH1 0x5 SHR DUP2 ADD SWAP2 DUP10 DUP7 LT PUSH2 0x952 JUMPI PUSH1 0x1F ADD PUSH1 0x5 SHR ADD SWAP1 PUSH2 0x4E37 JUMP JUMPDEST DUP7 PUSH2 0x1CBB JUMP JUMPDEST PUSH4 0x4E487B71 PUSH1 0xE0 SHL PUSH0 MSTORE PUSH1 0x21 PUSH1 0x4 MSTORE PUSH1 0x24 PUSH0 REVERT JUMPDEST DUP3 PUSH0 MSTORE DUP6 PUSH0 KECCAK256 SWAP1 PUSH0 JUMPDEST DUP8 PUSH1 0x1F NOT DUP6 AND DUP3 LT PUSH2 0x1FF4 JUMPI POP POP PUSH1 0x1 SWAP4 SWAP5 SWAP6 DUP4 PUSH1 0x1F NOT DUP2 AND LT PUSH2 0x1FDC JUMPI JUMPDEST POP POP POP DUP2 SHL ADD DUP2 SSTORE PUSH2 0x1C08 JUMP JUMPDEST ADD MLOAD PUSH0 NOT PUSH1 0xF8 DUP5 PUSH1 0x3 SHL AND SHR NOT AND SWAP1 SSTORE DUP6 DUP1 DUP1 PUSH2 0x1FCF JUMP JUMPDEST PUSH1 0x1 DUP4 SWAP5 DUP3 SWAP4 SWAP5 DUP11 ADD MLOAD DUP2 SSTORE ADD SWAP4 ADD SWAP2 ADD PUSH2 0x1FB0 JUMP JUMPDEST PUSH2 0x2032 SWAP1 DUP4 PUSH0 MSTORE DUP7 PUSH0 KECCAK256 PUSH1 0x1F DUP5 ADD PUSH1 0x5 SHR DUP2 ADD SWAP2 DUP9 DUP6 LT PUSH2 0x952 JUMPI PUSH1 0x1F ADD PUSH1 0x5 SHR ADD SWAP1 PUSH2 0x4E37 JUMP JUMPDEST DUP6 PUSH2 0x1BD6 JUMP JUMPDEST CALLVALUE PUSH2 0x282 JUMPI PUSH2 0x2046 CALLDATASIZE PUSH2 0x4D97 JUMP JUMPDEST PUSH1 0x40 MLOAD PUSH4 0x95A8C58D PUSH1 0xE0 SHL DUP2 MSTORE CALLER PUSH1 0x4 DUP3 ADD MSTORE PUSH1 0x2 PUSH1 0x24 DUP3 ADD MSTORE PUSH1 0x20 DUP2 PUSH1 0x44 DUP2 PUSH1 0x1 PUSH1 0x1 PUSH1 0xA0 SHL SUB PUSH32 0x0 AND GAS STATICCALL DUP1 ISZERO PUSH2 0x10BB JUMPI PUSH2 0x20A8 SWAP2 PUSH0 SWAP2 PUSH2 0x2253 JUMPI POP PUSH2 0x4F4A JUMP JUMPDEST PUSH1 0x40 MLOAD PUSH1 0x20 DUP4 MLOAD SWAP2 DUP2 DUP2 DUP2 DUP8 ADD SWAP5 DUP1 DUP7 DUP4 MCOPY DUP2 ADD PUSH0 DUP2 MSTORE SUB ADD SWAP1 KECCAK256 SWAP4 PUSH1 0x40 MLOAD SWAP3 DUP4 SWAP2 MLOAD DUP1 SWAP2 DUP4 MCOPY DUP2 ADD PUSH1 0x2 DUP2 MSTORE SUB ADD SWAP1 KECCAK256 SWAP2 DUP2 MLOAD SWAP3 PUSH1 0x1 PUSH1 0x1 PUSH1 0x40 SHL SUB DUP5 GT PUSH2 0x95C JUMPI PUSH2 0x20F5 DUP2 SLOAD PUSH2 0x4BC3 JUMP JUMPDEST PUSH1 0x1F DUP2 GT PUSH2 0x2223 JUMPI JUMPDEST POP PUSH1 0x20 SWAP4 PUSH1 0x1F DUP2 GT PUSH1 0x1 EQ PUSH2 0x219C JUMPI SWAP1 PUSH2 0x2154 DUP3 PUSH2 0x2186 SWAP6 SWAP5 SWAP4 PUSH32 0x1FD8D4ED3DF5E0C085CDB1F77C2352A9A35EE3ECDBE66C8E491253D828552BE7 SWAP8 PUSH0 SWAP2 PUSH2 0x2191 JUMPI JUMPDEST POP DUP2 PUSH1 0x1 SHL SWAP2 PUSH0 NOT SWAP1 PUSH1 0x3 SHL SHR NOT AND OR SWAP1 JUMP JUMPDEST SWAP1 SSTORE JUMPDEST PUSH1 0x1 DUP2 ADD PUSH1 0x8 PUSH1 0xFF NOT DUP3 SLOAD AND OR SWAP1 SSTORE PUSH1 0xA TIMESTAMP SWAP2 ADD SSTORE PUSH1 0x40 MLOAD SWAP2 DUP3 SWAP2 CALLER DUP4 MSTORE PUSH1 0x60 PUSH1 0x20 DUP5 ADD MSTORE PUSH1 0x60 DUP4 ADD SWAP1 PUSH2 0x4C9B JUMP JUMPDEST TIMESTAMP PUSH1 0x40 DUP4 ADD MSTORE SUB SWAP1 LOG1 STOP JUMPDEST SWAP1 POP DUP6 ADD MLOAD DUP9 PUSH2 0x2141 JUMP JUMPDEST PUSH1 0x1F NOT DUP2 AND SWAP5 DUP3 PUSH0 MSTORE DUP1 PUSH0 KECCAK256 SWAP6 PUSH0 JUMPDEST DUP2 DUP2 LT PUSH2 0x220B JUMPI POP SWAP2 PUSH32 0x1FD8D4ED3DF5E0C085CDB1F77C2352A9A35EE3ECDBE66C8E491253D828552BE7 SWAP7 PUSH1 0x1 SWAP3 DUP3 PUSH2 0x2186 SWAP9 SWAP8 SWAP7 SWAP6 LT PUSH2 0x21F3 JUMPI JUMPDEST POP POP DUP2 SHL ADD SWAP1 SSTORE PUSH2 0x2157 JUMP JUMPDEST DUP7 ADD MLOAD PUSH0 NOT PUSH1 0xF8 DUP5 PUSH1 0x3 SHL AND SHR NOT AND SWAP1 SSTORE DUP8 DUP1 PUSH2 0x21E7 JUMP JUMPDEST DUP7 DUP4 ADD MLOAD DUP9 SSTORE PUSH1 0x1 SWAP1 SWAP8 ADD SWAP7 PUSH1 0x20 SWAP3 DUP4 ADD SWAP3 ADD PUSH2 0x21AB JUMP JUMPDEST PUSH2 0x224D SWAP1 DUP3 PUSH0 MSTORE PUSH1 0x20 PUSH0 KECCAK256 PUSH1 0x1F DUP8 ADD PUSH1 0x5 SHR DUP2 ADD SWAP2 PUSH1 0x20 DUP9 LT PUSH2 0x952 JUMPI PUSH1 0x1F ADD PUSH1 0x5 SHR ADD SWAP1 PUSH2 0x4E37 JUMP JUMPDEST DUP5 PUSH2 0x20FE JUMP JUMPDEST PUSH2 0x226C SWAP2 POP PUSH1 0x20 RETURNDATASIZE PUSH1 0x20 GT PUSH2 0x10B4 JUMPI PUSH2 0x10A6 DUP2 DUP4 PUSH2 0x48D2 JUMP JUMPDEST DUP5 PUSH2 0x1952 JUMP JUMPDEST CALLVALUE PUSH2 0x282 JUMPI PUSH1 0x20 CALLDATASIZE PUSH1 0x3 NOT ADD SLT PUSH2 0x282 JUMPI PUSH1 0x4 CALLDATALOAD PUSH1 0x1 PUSH1 0x1 PUSH1 0x40 SHL SUB DUP2 GT PUSH2 0x282 JUMPI PUSH2 0x22A2 SWAP1 CALLDATASIZE SWAP1 PUSH1 0x4 ADD PUSH2 0x48F3 JUMP JUMPDEST PUSH1 0x40 MLOAD DUP2 MLOAD SWAP1 PUSH1 0x20 DUP2 DUP2 DUP6 ADD SWAP4 DUP1 DUP6 DUP4 MCOPY DUP2 ADD PUSH0 DUP2 MSTORE SUB ADD SWAP1 KECCAK256 SWAP1 PUSH1 0xFF PUSH1 0x1 PUSH1 0x40 MLOAD PUSH1 0x20 DUP2 DUP8 MLOAD DUP1 DUP8 DUP4 MCOPY DUP2 ADD PUSH0 DUP2 MSTORE SUB ADD SWAP1 KECCAK256 ADD SLOAD AND SWAP1 PUSH1 0xA DUP3 LT ISZERO PUSH2 0x1F93 JUMPI PUSH1 0x7 PUSH2 0x230B SWAP2 PUSH1 0x20 PUSH2 0x2320 SWAP7 PUSH1 0x40 MLOAD SWAP3 DUP4 SWAP2 MLOAD DUP1 SWAP2 DUP4 MCOPY DUP2 ADD PUSH0 DUP2 MSTORE SUB ADD SWAP1 KECCAK256 ADD SLOAD SWAP3 PUSH2 0x4BFB JUMP JUMPDEST SWAP2 PUSH1 0x40 MLOAD SWAP4 DUP5 SWAP4 PUSH1 0x60 DUP6 MSTORE PUSH1 0x60 DUP6 ADD SWAP1 PUSH2 0x4C9B JUMP JUMPDEST SWAP2 PUSH1 0x20 DUP5 ADD MSTORE PUSH1 0x40 DUP4 ADD MSTORE SUB SWAP1 RETURN JUMPDEST CALLVALUE PUSH2 0x282 JUMPI PUSH1 0x20 CALLDATASIZE PUSH1 0x3 NOT ADD SLT PUSH2 0x282 JUMPI PUSH1 0x4 CALLDATALOAD PUSH1 0x1 PUSH1 0x1 PUSH1 0x40 SHL SUB DUP2 GT PUSH2 0x282 JUMPI PUSH1 0x20 DUP1 PUSH2 0x2365 PUSH2 0x23E9 SWAP4 CALLDATASIZE SWAP1 PUSH1 0x4 ADD PUSH2 0x48F3 JUMP JUMPDEST PUSH1 0x40 MLOAD SWAP3 DUP2 DUP5 SWAP3 MLOAD SWAP2 DUP3 SWAP2 ADD DUP4 MCOPY DUP2 ADD PUSH1 0x4 DUP2 MSTORE SUB ADD SWAP1 KECCAK256 PUSH2 0x17D5 PUSH2 0x2389 DUP3 PUSH2 0x4BFB JUMP JUMPDEST SWAP2 PUSH2 0x2421 PUSH2 0x2399 PUSH1 0x1 DUP4 ADD PUSH2 0x4BFB JUMP JUMPDEST SWAP2 PUSH2 0x2413 PUSH2 0x23A9 PUSH1 0x2 DUP4 ADD PUSH2 0x4BFB JUMP JUMPDEST PUSH2 0x2405 PUSH2 0x23B8 PUSH1 0x3 DUP6 ADD PUSH2 0x4BFB JUMP JUMPDEST SWAP2 PUSH2 0x23F7 PUSH2 0x23D4 PUSH1 0x5 PUSH2 0x23CD PUSH1 0x4 DUP10 ADD PUSH2 0x4BFB JUMP JUMPDEST SWAP8 ADD PUSH2 0x4BFB JUMP JUMPDEST SWAP8 PUSH1 0x40 MLOAD SWAP12 DUP13 SWAP12 PUSH1 0xC0 DUP14 MSTORE PUSH1 0xC0 DUP14 ADD SWAP1 PUSH2 0x4C9B JUMP JUMPDEST SWAP1 DUP12 DUP3 SUB PUSH1 0x20 DUP14 ADD MSTORE PUSH2 0x4C9B JUMP JUMPDEST SWAP1 DUP10 DUP3 SUB PUSH1 0x40 DUP12 ADD MSTORE PUSH2 0x4C9B JUMP JUMPDEST SWAP1 DUP8 DUP3 SUB PUSH1 0x60 DUP10 ADD MSTORE PUSH2 0x4C9B JUMP JUMPDEST SWAP1 DUP6 DUP3 SUB PUSH1 0x80 DUP8 ADD MSTORE PUSH2 0x4C9B JUMP JUMPDEST SWAP1 DUP4 DUP3 SUB PUSH1 0xA0 DUP6 ADD MSTORE PUSH2 0x4C9B JUMP JUMPDEST CALLVALUE PUSH2 0x282 JUMPI PUSH1 0x20 CALLDATASIZE PUSH1 0x3 NOT ADD SLT PUSH2 0x282 JUMPI PUSH1 0x4 CALLDATALOAD PUSH1 0x1 PUSH1 0x1 PUSH1 0x40 SHL SUB DUP2 GT PUSH2 0x282 JUMPI PUSH2 0x245F SWAP1 CALLDATASIZE SWAP1 PUSH1 0x4 ADD PUSH2 0x48F3 JUMP JUMPDEST PUSH1 0x60 PUSH2 0x1E0 PUSH1 0x40 MLOAD PUSH2 0x2470 DUP2 PUSH2 0x4865 JUMP JUMPDEST DUP3 DUP2 MSTORE PUSH0 PUSH1 0x20 DUP3 ADD MSTORE PUSH0 PUSH1 0x40 DUP3 ADD MSTORE PUSH0 DUP4 DUP3 ADD MSTORE PUSH0 PUSH1 0x80 DUP3 ADD MSTORE PUSH0 PUSH1 0xA0 DUP3 ADD MSTORE PUSH0 PUSH1 0xC0 DUP3 ADD MSTORE PUSH0 PUSH1 0xE0 DUP3 ADD MSTORE PUSH0 PUSH2 0x100 DUP3 ADD MSTORE PUSH0 PUSH2 0x120 DUP3 ADD MSTORE PUSH0 PUSH2 0x140 DUP3 ADD MSTORE PUSH0 PUSH2 0x160 DUP3 ADD MSTORE DUP3 PUSH2 0x180 DUP3 ADD MSTORE DUP3 PUSH2 0x1A0 DUP3 ADD MSTORE PUSH0 PUSH2 0x1C0 DUP3 ADD MSTORE ADD MSTORE PUSH1 0x60 PUSH1 0xC0 PUSH1 0x40 MLOAD PUSH2 0x24DF DUP2 PUSH2 0x4881 JUMP JUMPDEST DUP3 DUP2 MSTORE DUP3 PUSH1 0x20 DUP3 ADD MSTORE DUP3 PUSH1 0x40 DUP3 ADD MSTORE DUP3 DUP1 DUP3 ADD MSTORE DUP3 PUSH1 0x80 DUP3 ADD MSTORE DUP3 PUSH1 0xA0 DUP3 ADD MSTORE ADD MSTORE PUSH1 0x60 PUSH1 0xA0 PUSH1 0x40 MLOAD PUSH2 0x2511 DUP2 PUSH2 0x489C JUMP JUMPDEST DUP3 DUP2 MSTORE DUP3 PUSH1 0x20 DUP3 ADD MSTORE DUP3 PUSH1 0x40 DUP3 ADD MSTORE DUP3 DUP1 DUP3 ADD MSTORE DUP3 PUSH1 0x80 DUP3 ADD MSTORE ADD MSTORE PUSH1 0x60 PUSH1 0x80 PUSH1 0x40 MLOAD PUSH2 0x253D DUP2 PUSH2 0x48B7 JUMP JUMPDEST DUP3 DUP2 MSTORE DUP3 PUSH1 0x20 DUP3 ADD MSTORE DUP3 PUSH1 0x40 DUP3 ADD MSTORE DUP3 DUP1 DUP3 ADD MSTORE ADD MSTORE PUSH1 0x40 MLOAD DUP2 MLOAD SWAP1 PUSH1 0x20 DUP2 DUP2 DUP6 ADD SWAP4 DUP1 DUP6 DUP4 MCOPY DUP2 ADD PUSH0 DUP2 MSTORE SUB ADD SWAP1 KECCAK256 SWAP1 PUSH1 0x40 MLOAD PUSH1 0x20 DUP2 DUP6 MLOAD DUP1 DUP6 DUP4 MCOPY DUP2 ADD PUSH1 0x3 DUP2 MSTORE SUB ADD SWAP1 KECCAK256 SWAP1 PUSH1 0x20 PUSH1 0x40 MLOAD DUP2 DUP2 DUP8 MLOAD DUP1 DUP7 DUP4 MCOPY DUP2 ADD PUSH1 0x4 DUP2 MSTORE SUB ADD SWAP1 KECCAK256 SWAP5 PUSH1 0x40 MLOAD SWAP3 DUP4 SWAP2 MLOAD DUP1 SWAP2 DUP4 MCOPY DUP2 ADD PUSH1 0x5 DUP2 MSTORE SUB ADD SWAP1 KECCAK256 PUSH1 0x40 MLOAD SWAP3 PUSH2 0x25BF DUP5 PUSH2 0x4865 JUMP JUMPDEST PUSH2 0x25C8 DUP2 PUSH2 0x4BFB JUMP JUMPDEST DUP5 MSTORE PUSH1 0xFF PUSH1 0x1 DUP3 ADD SLOAD AND SWAP5 PUSH1 0xA DUP7 LT ISZERO PUSH2 0x1F93 JUMPI PUSH2 0x298E PUSH2 0x17D5 SWAP5 PUSH2 0x269B PUSH1 0xF PUSH2 0x2A10 SWAP6 PUSH2 0x28F7 SWAP11 PUSH1 0x20 DUP12 ADD MSTORE PUSH1 0x2 DUP2 ADD SLOAD PUSH1 0x40 DUP12 ADD MSTORE PUSH1 0x3 DUP2 ADD SLOAD PUSH1 0x60 DUP12 ADD MSTORE PUSH1 0x4 DUP2 ADD SLOAD PUSH1 0x80 DUP12 ADD MSTORE PUSH1 0x5 DUP2 ADD SLOAD PUSH1 0xA0 DUP12 ADD MSTORE PUSH1 0x6 DUP2 ADD SLOAD PUSH1 0xC0 DUP12 ADD MSTORE PUSH1 0x7 DUP2 ADD SLOAD PUSH1 0xE0 DUP12 ADD MSTORE PUSH1 0x8 DUP2 ADD SLOAD PUSH2 0x100 DUP12 ADD MSTORE PUSH1 0x9 DUP2 ADD SLOAD PUSH2 0x120 DUP12 ADD MSTORE PUSH1 0xA DUP2 ADD SLOAD PUSH2 0x140 DUP12 ADD MSTORE PUSH1 0xB DUP2 ADD SLOAD PUSH2 0x160 DUP12 ADD MSTORE PUSH2 0x2669 PUSH1 0xC DUP3 ADD PUSH2 0x4BFB JUMP JUMPDEST PUSH2 0x180 DUP12 ADD MSTORE PUSH2 0x267B PUSH1 0xD DUP3 ADD PUSH2 0x4BFB JUMP JUMPDEST PUSH2 0x1A0 DUP12 ADD MSTORE PUSH1 0xE DUP2 ADD SLOAD PUSH1 0x1 PUSH1 0x1 PUSH1 0xA0 SHL SUB AND PUSH2 0x1C0 DUP12 ADD MSTORE ADD PUSH2 0x4BFB JUMP JUMPDEST PUSH2 0x1E0 DUP9 ADD MSTORE PUSH2 0x2719 PUSH1 0x6 PUSH1 0x40 MLOAD SWAP3 PUSH2 0x26B3 DUP5 PUSH2 0x4881 JUMP JUMPDEST PUSH2 0x26BC DUP2 PUSH2 0x4BFB JUMP JUMPDEST DUP5 MSTORE PUSH2 0x26CA PUSH1 0x1 DUP3 ADD PUSH2 0x4BFB JUMP JUMPDEST PUSH1 0x20 DUP6 ADD MSTORE PUSH2 0x26DB PUSH1 0x2 DUP3 ADD PUSH2 0x4BFB JUMP JUMPDEST PUSH1 0x40 DUP6 ADD MSTORE PUSH2 0x26EC PUSH1 0x3 DUP3 ADD PUSH2 0x4BFB JUMP JUMPDEST PUSH1 0x60 DUP6 ADD MSTORE PUSH2 0x26FD PUSH1 0x4 DUP3 ADD PUSH2 0x4BFB JUMP JUMPDEST PUSH1 0x80 DUP6 ADD MSTORE PUSH2 0x270E PUSH1 0x5 DUP3 ADD PUSH2 0x4BFB JUMP JUMPDEST PUSH1 0xA0 DUP6 ADD MSTORE ADD PUSH2 0x4BFB JUMP JUMPDEST PUSH1 0xC0 DUP3 ADD MSTORE PUSH2 0x2785 PUSH1 0x5 PUSH1 0x40 MLOAD SWAP5 PUSH2 0x2730 DUP7 PUSH2 0x489C JUMP JUMPDEST PUSH2 0x2739 DUP2 PUSH2 0x4BFB JUMP JUMPDEST DUP7 MSTORE PUSH2 0x2747 PUSH1 0x1 DUP3 ADD PUSH2 0x4BFB JUMP JUMPDEST PUSH1 0x20 DUP8 ADD MSTORE PUSH2 0x2758 PUSH1 0x2 DUP3 ADD PUSH2 0x4BFB JUMP JUMPDEST PUSH1 0x40 DUP8 ADD MSTORE PUSH2 0x2769 PUSH1 0x3 DUP3 ADD PUSH2 0x4BFB JUMP JUMPDEST PUSH1 0x60 DUP8 ADD MSTORE PUSH2 0x277A PUSH1 0x4 DUP3 ADD PUSH2 0x4BFB JUMP JUMPDEST PUSH1 0x80 DUP8 ADD MSTORE ADD PUSH2 0x4BFB JUMP JUMPDEST PUSH1 0xA0 DUP5 ADD MSTORE PUSH2 0x27E0 PUSH1 0x4 PUSH1 0x40 MLOAD SWAP7 PUSH2 0x279C DUP9 PUSH2 0x48B7 JUMP JUMPDEST PUSH2 0x27A5 DUP2 PUSH2 0x4BFB JUMP JUMPDEST DUP9 MSTORE PUSH2 0x27B3 PUSH1 0x1 DUP3 ADD PUSH2 0x4BFB JUMP JUMPDEST PUSH1 0x20 DUP10 ADD MSTORE PUSH2 0x27C4 PUSH1 0x2 DUP3 ADD PUSH2 0x4BFB JUMP JUMPDEST PUSH1 0x40 DUP10 ADD MSTORE PUSH2 0x27D5 PUSH1 0x3 DUP3 ADD PUSH2 0x4BFB JUMP JUMPDEST PUSH1 0x60 DUP10 ADD MSTORE ADD PUSH2 0x4BFB JUMP JUMPDEST PUSH1 0x80 DUP7 ADD MSTORE PUSH1 0x40 MLOAD SWAP8 DUP9 SWAP8 PUSH1 0x80 DUP10 MSTORE PUSH2 0x1E0 PUSH2 0x28CD PUSH2 0x28B5 PUSH2 0x2811 DUP13 PUSH2 0x280 DUP7 MLOAD SWAP2 PUSH2 0x200 PUSH1 0x80 DUP3 ADD MSTORE ADD SWAP1 PUSH2 0x4C9B JUMP JUMPDEST PUSH2 0x2824 DUP14 PUSH1 0xA0 PUSH1 0x20 DUP9 ADD MLOAD SWAP2 ADD SWAP1 PUSH2 0x4D8A JUMP JUMPDEST DUP13 PUSH1 0xC0 PUSH1 0x40 DUP8 ADD MLOAD SWAP2 ADD MSTORE DUP13 PUSH1 0xE0 PUSH1 0x60 DUP8 ADD MLOAD SWAP2 ADD MSTORE DUP13 PUSH2 0x100 PUSH1 0x80 DUP8 ADD MLOAD SWAP2 ADD MSTORE DUP13 PUSH2 0x120 PUSH1 0xA0 DUP8 ADD MLOAD SWAP2 ADD MSTORE DUP13 PUSH2 0x140 PUSH1 0xC0 DUP8 ADD MLOAD SWAP2 ADD MSTORE DUP13 PUSH2 0x160 PUSH1 0xE0 DUP8 ADD MLOAD SWAP2 ADD MSTORE DUP13 PUSH2 0x180 PUSH2 0x100 DUP8 ADD MLOAD SWAP2 ADD MSTORE DUP13 PUSH2 0x1A0 PUSH2 0x120 DUP8 ADD MLOAD SWAP2 ADD MSTORE DUP13 PUSH2 0x1C0 PUSH2 0x140 DUP8 ADD MLOAD SWAP2 ADD MSTORE DUP13 DUP5 PUSH2 0x160 DUP8 ADD MLOAD SWAP2 ADD MSTORE PUSH2 0x180 DUP6 ADD MLOAD DUP14 PUSH2 0x200 PUSH1 0x7F NOT DUP3 DUP6 SUB ADD SWAP2 ADD MSTORE PUSH2 0x4C9B JUMP JUMPDEST PUSH2 0x1A0 DUP5 ADD MLOAD DUP13 DUP3 SUB PUSH1 0x7F NOT ADD PUSH2 0x220 DUP15 ADD MSTORE PUSH2 0x4C9B JUMP JUMPDEST PUSH2 0x1C0 DUP4 ADD MLOAD PUSH1 0x1 PUSH1 0x1 PUSH1 0xA0 SHL SUB AND PUSH2 0x240 DUP13 ADD MSTORE SWAP2 ADD MLOAD DUP10 DUP3 SUB PUSH1 0x7F NOT ADD PUSH2 0x260 DUP12 ADD MSTORE PUSH2 0x4C9B JUMP JUMPDEST DUP8 DUP2 SUB PUSH1 0x20 DUP10 ADD MSTORE PUSH1 0xC0 PUSH2 0x297D PUSH2 0x296B PUSH2 0x2959 PUSH2 0x2947 PUSH2 0x2935 PUSH2 0x2923 DUP9 MLOAD PUSH1 0xE0 DUP10 MSTORE PUSH1 0xE0 DUP10 ADD SWAP1 PUSH2 0x4C9B JUMP JUMPDEST PUSH1 0x20 DUP10 ADD MLOAD DUP9 DUP3 SUB PUSH1 0x20 DUP11 ADD MSTORE PUSH2 0x4C9B JUMP JUMPDEST PUSH1 0x40 DUP9 ADD MLOAD DUP8 DUP3 SUB PUSH1 0x40 DUP10 ADD MSTORE PUSH2 0x4C9B JUMP JUMPDEST PUSH1 0x60 DUP8 ADD MLOAD DUP7 DUP3 SUB PUSH1 0x60 DUP9 ADD MSTORE PUSH2 0x4C9B JUMP JUMPDEST PUSH1 0x80 DUP7 ADD MLOAD DUP6 DUP3 SUB PUSH1 0x80 DUP8 ADD MSTORE PUSH2 0x4C9B JUMP JUMPDEST PUSH1 0xA0 DUP6 ADD MLOAD DUP5 DUP3 SUB PUSH1 0xA0 DUP7 ADD MSTORE PUSH2 0x4C9B JUMP JUMPDEST SWAP3 ADD MLOAD SWAP1 PUSH1 0xC0 DUP2 DUP5 SUB SWAP2 ADD MSTORE PUSH2 0x4C9B JUMP JUMPDEST DUP6 DUP2 SUB PUSH1 0x40 DUP8 ADD MSTORE PUSH1 0xA0 PUSH2 0x29FF PUSH2 0x29ED PUSH2 0x29DB PUSH2 0x29C9 PUSH2 0x29B7 DUP8 MLOAD PUSH1 0xC0 DUP9 MSTORE PUSH1 0xC0 DUP9 ADD SWAP1 PUSH2 0x4C9B JUMP JUMPDEST PUSH1 0x20 DUP9 ADD MLOAD DUP8 DUP3 SUB PUSH1 0x20 DUP10 ADD MSTORE PUSH2 0x4C9B JUMP JUMPDEST PUSH1 0x40 DUP8 ADD MLOAD DUP7 DUP3 SUB PUSH1 0x40 DUP9 ADD MSTORE PUSH2 0x4C9B JUMP JUMPDEST PUSH1 0x60 DUP7 ADD MLOAD DUP6 DUP3 SUB PUSH1 0x60 DUP8 ADD MSTORE PUSH2 0x4C9B JUMP JUMPDEST PUSH1 0x80 DUP6 ADD MLOAD DUP5 DUP3 SUB PUSH1 0x80 DUP7 ADD MSTORE PUSH2 0x4C9B JUMP JUMPDEST SWAP3 ADD MLOAD SWAP1 PUSH1 0xA0 DUP2 DUP5 SUB SWAP2 ADD MSTORE PUSH2 0x4C9B JUMP JUMPDEST DUP4 DUP2 SUB PUSH1 0x60 DUP6 ADD MSTORE PUSH1 0x80 PUSH2 0x2A6C PUSH2 0x2A5A PUSH2 0x2A48 PUSH2 0x2A36 DUP7 MLOAD PUSH1 0xA0 DUP8 MSTORE PUSH1 0xA0 DUP8 ADD SWAP1 PUSH2 0x4C9B JUMP JUMPDEST PUSH1 0x20 DUP8 ADD MLOAD DUP7 DUP3 SUB PUSH1 0x20 DUP9 ADD MSTORE PUSH2 0x4C9B JUMP JUMPDEST PUSH1 0x40 DUP7 ADD MLOAD DUP6 DUP3 SUB PUSH1 0x40 DUP8 ADD MSTORE PUSH2 0x4C9B JUMP JUMPDEST PUSH1 0x60 DUP6 ADD MLOAD DUP5 DUP3 SUB PUSH1 0x60 DUP7 ADD MSTORE PUSH2 0x4C9B JUMP JUMPDEST SWAP3 ADD MLOAD SWAP1 PUSH1 0x80 DUP2 DUP5 SUB SWAP2 ADD MSTORE PUSH2 0x4C9B JUMP JUMPDEST CALLVALUE PUSH2 0x282 JUMPI PUSH1 0x80 CALLDATASIZE PUSH1 0x3 NOT ADD SLT PUSH2 0x282 JUMPI PUSH1 0x4 CALLDATALOAD PUSH1 0x1 PUSH1 0x1 PUSH1 0x40 SHL SUB DUP2 GT PUSH2 0x282 JUMPI PUSH2 0x2AAD SWAP1 CALLDATASIZE SWAP1 PUSH1 0x4 ADD PUSH2 0x48F3 JUMP JUMPDEST PUSH1 0x24 CALLDATALOAD PUSH1 0x1 PUSH1 0x1 PUSH1 0x40 SHL SUB DUP2 GT PUSH2 0x282 JUMPI PUSH2 0x2ACC SWAP1 CALLDATASIZE SWAP1 PUSH1 0x4 ADD PUSH2 0x48F3 JUMP JUMPDEST PUSH1 0x44 CALLDATALOAD PUSH1 0x1 PUSH1 0x1 PUSH1 0x40 SHL SUB DUP2 GT PUSH2 0x282 JUMPI PUSH2 0x2AEB SWAP1 CALLDATASIZE SWAP1 PUSH1 0x4 ADD PUSH2 0x48F3 JUMP JUMPDEST SWAP1 PUSH1 0x64 CALLDATALOAD PUSH1 0x1 PUSH1 0x1 PUSH1 0x40 SHL SUB DUP2 GT PUSH2 0x282 JUMPI PUSH2 0x2B0B SWAP1 CALLDATASIZE SWAP1 PUSH1 0x4 ADD PUSH2 0x48F3 JUMP JUMPDEST PUSH1 0x40 MLOAD PUSH4 0x95A8C58D PUSH1 0xE0 SHL DUP2 MSTORE CALLER PUSH1 0x4 DUP3 ADD MSTORE PUSH1 0x2 PUSH1 0x24 DUP3 ADD MSTORE SWAP1 SWAP4 PUSH1 0x20 DUP3 PUSH1 0x44 DUP2 PUSH1 0x1 PUSH1 0x1 PUSH1 0xA0 SHL SUB PUSH32 0x0 AND GAS STATICCALL SWAP1 DUP2 ISZERO PUSH2 0x10BB JUMPI PUSH2 0x2B75 PUSH1 0x20 SWAP4 SWAP3 DUP5 SWAP4 PUSH0 SWAP2 PUSH2 0x2EE7 JUMPI POP PUSH2 0x4F4A JUMP JUMPDEST PUSH1 0x40 MLOAD SWAP3 DUP2 DUP5 SWAP3 MLOAD SWAP2 DUP3 SWAP2 ADD DUP4 MCOPY DUP2 ADD PUSH0 DUP2 MSTORE SUB ADD SWAP1 KECCAK256 DUP2 MLOAD PUSH1 0x1 PUSH1 0x1 PUSH1 0x40 SHL SUB DUP2 GT PUSH2 0x95C JUMPI PUSH2 0x2BA6 DUP3 SLOAD PUSH2 0x4BC3 JUMP JUMPDEST PUSH1 0x1F DUP2 GT PUSH2 0x2EB7 JUMPI JUMPDEST POP PUSH1 0x20 PUSH1 0x1F DUP3 GT PUSH1 0x1 EQ PUSH2 0x2E57 JUMPI SWAP1 DUP1 PUSH2 0x2BDC SWAP3 PUSH0 SWAP2 PUSH2 0x2E4C JUMPI POP DUP2 PUSH1 0x1 SHL SWAP2 PUSH0 NOT SWAP1 PUSH1 0x3 SHL SHR NOT AND OR SWAP1 JUMP JUMPDEST DUP2 SSTORE JUMPDEST PUSH1 0x1 DUP2 ADD PUSH1 0x2 PUSH1 0xFF NOT DUP3 SLOAD AND OR SWAP1 SSTORE TIMESTAMP PUSH1 0x4 DUP3 ADD SSTORE PUSH1 0xD DUP2 ADD DUP4 MLOAD PUSH1 0x1 PUSH1 0x1 PUSH1 0x40 SHL SUB DUP2 GT PUSH2 0x95C JUMPI PUSH2 0x2C12 DUP3 SLOAD PUSH2 0x4BC3 JUMP JUMPDEST PUSH1 0x1F DUP2 GT PUSH2 0x2E1C JUMPI JUMPDEST POP PUSH1 0x20 PUSH1 0x1F DUP3 GT PUSH1 0x1 EQ PUSH2 0x2DBC JUMPI SWAP1 DUP1 PUSH2 0x2C48 SWAP3 PUSH0 SWAP2 PUSH2 0x2DB1 JUMPI POP DUP2 PUSH1 0x1 SHL SWAP2 PUSH0 NOT SWAP1 PUSH1 0x3 SHL SHR NOT AND OR SWAP1 JUMP JUMPDEST SWAP1 SSTORE JUMPDEST PUSH1 0xE DUP2 ADD DUP1 SLOAD PUSH1 0x1 PUSH1 0x1 PUSH1 0xA0 SHL SUB NOT AND CALLER OR SWAP1 SSTORE TIMESTAMP PUSH1 0x82 DUP2 ADD SWAP2 SWAP1 DUP3 LT PUSH2 0x1AB6 JUMPI PUSH1 0xF SWAP2 PUSH1 0x7 DUP3 ADD SSTORE ADD DUP4 MLOAD PUSH1 0x1 PUSH1 0x1 PUSH1 0x40 SHL SUB DUP2 GT PUSH2 0x95C JUMPI PUSH2 0x2C8F DUP3 SLOAD PUSH2 0x4BC3 JUMP JUMPDEST PUSH1 0x1F DUP2 GT PUSH2 0x2D81 JUMPI JUMPDEST POP PUSH1 0x20 PUSH1 0x1F DUP3 GT PUSH1 0x1 EQ PUSH2 0x2CFE JUMPI SWAP1 DUP1 PUSH2 0x2CE8 SWAP3 PUSH32 0x98F6EDA79CE4C4856715A86ECDF2CB7ECE1A5DE8ADF3DE249B2CE9017B0E5810 SWAP8 PUSH0 SWAP3 PUSH2 0xBCD JUMPI POP POP DUP2 PUSH1 0x1 SHL SWAP2 PUSH0 NOT SWAP1 PUSH1 0x3 SHL SHR NOT AND OR SWAP1 JUMP JUMPDEST SWAP1 SSTORE JUMPDEST PUSH2 0x884 PUSH1 0x40 MLOAD SWAP3 DUP4 SWAP3 TIMESTAMP SWAP2 CALLER SWAP1 DUP6 PUSH2 0x4F82 JUMP JUMPDEST PUSH1 0x1F NOT DUP3 AND SWAP6 DUP4 PUSH0 MSTORE DUP2 PUSH0 KECCAK256 SWAP7 PUSH0 JUMPDEST DUP2 DUP2 LT PUSH2 0x2D69 JUMPI POP SWAP2 PUSH32 0x98F6EDA79CE4C4856715A86ECDF2CB7ECE1A5DE8ADF3DE249B2CE9017B0E5810 SWAP8 SWAP2 DUP5 PUSH1 0x1 SWAP6 SWAP5 LT PUSH2 0x2D51 JUMPI JUMPDEST POP POP POP DUP2 SHL ADD SWAP1 SSTORE PUSH2 0x2CEB JUMP JUMPDEST ADD MLOAD PUSH0 NOT PUSH1 0xF8 DUP5 PUSH1 0x3 SHL AND SHR NOT AND SWAP1 SSTORE DUP7 DUP1 DUP1 PUSH2 0x2D44 JUMP JUMPDEST DUP4 DUP4 ADD MLOAD DUP10 SSTORE PUSH1 0x1 SWAP1 SWAP9 ADD SWAP8 PUSH1 0x20 SWAP4 DUP5 ADD SWAP4 ADD PUSH2 0x2D0D JUMP JUMPDEST PUSH2 0x2DAB SWAP1 DUP4 PUSH0 MSTORE PUSH1 0x20 PUSH0 KECCAK256 PUSH1 0x1F DUP5 ADD PUSH1 0x5 SHR DUP2 ADD SWAP2 PUSH1 0x20 DUP6 LT PUSH2 0x952 JUMPI PUSH1 0x1F ADD PUSH1 0x5 SHR ADD SWAP1 PUSH2 0x4E37 JUMP JUMPDEST DUP6 PUSH2 0x2C98 JUMP JUMPDEST SWAP1 POP DUP7 ADD MLOAD DUP9 PUSH2 0x2141 JUMP JUMPDEST PUSH1 0x1F NOT DUP3 AND SWAP1 DUP4 PUSH0 MSTORE DUP1 PUSH0 KECCAK256 SWAP2 PUSH0 JUMPDEST DUP2 DUP2 LT PUSH2 0x2E04 JUMPI POP SWAP1 DUP4 PUSH1 0x1 SWAP5 SWAP4 SWAP3 LT PUSH2 0x2DEC JUMPI JUMPDEST POP POP DUP2 SHL ADD SWAP1 SSTORE PUSH2 0x2C4B JUMP JUMPDEST DUP8 ADD MLOAD PUSH0 NOT PUSH1 0xF8 DUP5 PUSH1 0x3 SHL AND SHR NOT AND SWAP1 SSTORE DUP8 DUP1 PUSH2 0x2DE0 JUMP JUMPDEST SWAP2 SWAP3 PUSH1 0x20 PUSH1 0x1 DUP2 SWAP3 DUP7 DUP13 ADD MLOAD DUP2 SSTORE ADD SWAP5 ADD SWAP3 ADD PUSH2 0x2DCB JUMP JUMPDEST PUSH2 0x2E46 SWAP1 DUP4 PUSH0 MSTORE PUSH1 0x20 PUSH0 KECCAK256 PUSH1 0x1F DUP5 ADD PUSH1 0x5 SHR DUP2 ADD SWAP2 PUSH1 0x20 DUP6 LT PUSH2 0x952 JUMPI PUSH1 0x1F ADD PUSH1 0x5 SHR ADD SWAP1 PUSH2 0x4E37 JUMP JUMPDEST DUP7 PUSH2 0x2C1B JUMP JUMPDEST SWAP1 POP DUP5 ADD MLOAD DUP8 PUSH2 0x2141 JUMP JUMPDEST PUSH1 0x1F NOT DUP3 AND SWAP1 DUP4 PUSH0 MSTORE DUP1 PUSH0 KECCAK256 SWAP2 PUSH0 JUMPDEST DUP2 DUP2 LT PUSH2 0x2E9F JUMPI POP SWAP1 DUP4 PUSH1 0x1 SWAP5 SWAP4 SWAP3 LT PUSH2 0x2E87 JUMPI JUMPDEST POP POP DUP2 SHL ADD DUP2 SSTORE PUSH2 0x2BDF JUMP JUMPDEST DUP6 ADD MLOAD PUSH0 NOT PUSH1 0xF8 DUP5 PUSH1 0x3 SHL AND SHR NOT AND SWAP1 SSTORE DUP7 DUP1 PUSH2 0x2E7B JUMP JUMPDEST SWAP2 SWAP3 PUSH1 0x20 PUSH1 0x1 DUP2 SWAP3 DUP7 DUP11 ADD MLOAD DUP2 SSTORE ADD SWAP5 ADD SWAP3 ADD PUSH2 0x2E66 JUMP JUMPDEST PUSH2 0x2EE1 SWAP1 DUP4 PUSH0 MSTORE PUSH1 0x20 PUSH0 KECCAK256 PUSH1 0x1F DUP5 ADD PUSH1 0x5 SHR DUP2 ADD SWAP2 PUSH1 0x20 DUP6 LT PUSH2 0x952 JUMPI PUSH1 0x1F ADD PUSH1 0x5 SHR ADD SWAP1 PUSH2 0x4E37 JUMP JUMPDEST DUP6 PUSH2 0x2BAF JUMP JUMPDEST PUSH2 0x2EFE SWAP2 POP DUP5 RETURNDATASIZE DUP7 GT PUSH2 0x10B4 JUMPI PUSH2 0x10A6 DUP2 DUP4 PUSH2 0x48D2 JUMP JUMPDEST DUP9 PUSH2 0x1952 JUMP JUMPDEST CALLVALUE PUSH2 0x282 JUMPI PUSH1 0x60 CALLDATASIZE PUSH1 0x3 NOT ADD SLT PUSH2 0x282 JUMPI PUSH1 0x4 CALLDATALOAD PUSH1 0x1 PUSH1 0x1 PUSH1 0x40 SHL SUB DUP2 GT PUSH2 0x282 JUMPI PUSH2 0x2F34 SWAP1 CALLDATASIZE SWAP1 PUSH1 0x4 ADD PUSH2 0x48F3 JUMP JUMPDEST PUSH1 0x44 CALLDATALOAD PUSH1 0x1 PUSH1 0x1 PUSH1 0x40 SHL SUB DUP2 GT PUSH2 0x282 JUMPI PUSH2 0x2F53 SWAP1 CALLDATASIZE SWAP1 PUSH1 0x4 ADD PUSH2 0x4CBF JUMP JUMPDEST PUSH1 0x40 MLOAD PUSH4 0x95A8C58D PUSH1 0xE0 SHL DUP2 MSTORE CALLER PUSH1 0x4 DUP3 ADD MSTORE PUSH0 PUSH1 0x24 DUP3 ADD MSTORE SWAP1 SWAP2 SWAP1 PUSH1 0x20 DUP2 PUSH1 0x44 DUP2 PUSH1 0x1 PUSH1 0x1 PUSH1 0xA0 SHL SUB PUSH32 0x0 AND GAS STATICCALL DUP1 ISZERO PUSH2 0x10BB JUMPI PUSH2 0x2FB7 SWAP2 PUSH0 SWAP2 PUSH2 0x16D4 JUMPI POP PUSH2 0x4DFC JUMP JUMPDEST PUSH1 0x24 CALLDATALOAD TIMESTAMP GT ISZERO PUSH2 0x34FB JUMPI PUSH1 0x20 PUSH1 0x40 MLOAD SWAP2 DUP1 MLOAD SWAP3 DUP3 DUP2 DUP2 DUP5 ADD SWAP6 DUP1 DUP8 DUP4 MCOPY DUP2 ADD PUSH0 DUP2 MSTORE SUB ADD SWAP1 KECCAK256 PUSH1 0x1 DUP2 ADD PUSH1 0x6 PUSH1 0xFF NOT DUP3 SLOAD AND OR SWAP1 SSTORE PUSH1 0x8 TIMESTAMP SWAP2 ADD SSTORE PUSH1 0x40 MLOAD SWAP3 DUP4 SWAP2 MLOAD DUP1 SWAP2 DUP4 MCOPY DUP2 ADD PUSH1 0x5 DUP2 MSTORE SUB ADD SWAP1 KECCAK256 DUP2 MLOAD SWAP2 DUP3 MLOAD PUSH1 0x1 PUSH1 0x1 PUSH1 0x40 SHL SUB DUP2 GT PUSH2 0x95C JUMPI PUSH2 0x3024 DUP4 SLOAD PUSH2 0x4BC3 JUMP JUMPDEST PUSH1 0x1F DUP2 GT PUSH2 0x34CB JUMPI JUMPDEST POP PUSH1 0x20 PUSH1 0x1F DUP3 GT PUSH1 0x1 EQ PUSH2 0x346A JUMPI DUP2 SWAP1 PUSH2 0x305D SWAP4 SWAP5 SWAP6 PUSH0 SWAP3 PUSH2 0x1638 JUMPI POP POP DUP2 PUSH1 0x1 SHL SWAP2 PUSH0 NOT SWAP1 PUSH1 0x3 SHL SHR NOT AND OR SWAP1 JUMP JUMPDEST DUP3 SSTORE JUMPDEST PUSH1 0x1 DUP3 ADD SWAP2 PUSH1 0x20 DUP3 ADD MLOAD SWAP3 DUP4 MLOAD PUSH1 0x1 PUSH1 0x1 PUSH1 0x40 SHL SUB DUP2 GT PUSH2 0x95C JUMPI PUSH2 0x3085 DUP3 SLOAD PUSH2 0x4BC3 JUMP JUMPDEST PUSH1 0x1F DUP2 GT PUSH2 0x343A JUMPI JUMPDEST POP PUSH1 0x20 SWAP5 PUSH1 0x1F DUP3 GT PUSH1 0x1 EQ PUSH2 0x33D9 JUMPI PUSH2 0x30C0 SWAP3 SWAP4 SWAP5 SWAP6 DUP3 SWAP2 PUSH0 SWAP3 PUSH2 0x150B JUMPI POP POP DUP2 PUSH1 0x1 SHL SWAP2 PUSH0 NOT SWAP1 PUSH1 0x3 SHL SHR NOT AND OR SWAP1 JUMP JUMPDEST SWAP1 SSTORE JUMPDEST PUSH1 0x2 DUP2 ADD SWAP2 PUSH1 0x40 DUP2 ADD MLOAD SWAP3 DUP4 MLOAD PUSH1 0x1 PUSH1 0x1 PUSH1 0x40 SHL SUB DUP2 GT PUSH2 0x95C JUMPI PUSH2 0x30E8 DUP3 SLOAD PUSH2 0x4BC3 JUMP JUMPDEST PUSH1 0x1F DUP2 GT PUSH2 0x33A9 JUMPI JUMPDEST POP PUSH1 0x20 SWAP5 PUSH1 0x1F DUP3 GT PUSH1 0x1 EQ PUSH2 0x3348 JUMPI PUSH2 0x3123 SWAP3 SWAP4 SWAP5 SWAP6 DUP3 SWAP2 PUSH0 SWAP3 PUSH2 0x150B JUMPI POP POP DUP2 PUSH1 0x1 SHL SWAP2 PUSH0 NOT SWAP1 PUSH1 0x3 SHL SHR NOT AND OR SWAP1 JUMP JUMPDEST SWAP1 SSTORE JUMPDEST PUSH1 0x3 DUP3 ADD SWAP2 PUSH1 0x60 DUP3 ADD MLOAD SWAP3 DUP4 MLOAD PUSH1 0x1 PUSH1 0x1 PUSH1 0x40 SHL SUB DUP2 GT PUSH2 0x95C JUMPI PUSH2 0x314B DUP3 SLOAD PUSH2 0x4BC3 JUMP JUMPDEST PUSH1 0x1F DUP2 GT PUSH2 0x3318 JUMPI JUMPDEST POP PUSH1 0x20 PUSH1 0x1F DUP3 GT PUSH1 0x1 EQ PUSH2 0x32AF JUMPI DUP2 PUSH1 0x4 SWAP5 SWAP4 SWAP3 PUSH2 0x318A SWAP3 PUSH1 0x80 SWAP8 SWAP9 PUSH0 SWAP3 PUSH2 0xA09 JUMPI POP POP DUP2 PUSH1 0x1 SHL SWAP2 PUSH0 NOT SWAP1 PUSH1 0x3 SHL SHR NOT AND OR SWAP1 JUMP JUMPDEST SWAP1 SSTORE JUMPDEST ADD SWAP2 ADD MLOAD SWAP1 DUP2 MLOAD PUSH1 0x1 PUSH1 0x1 PUSH1 0x40 SHL SUB DUP2 GT PUSH2 0x95C JUMPI PUSH2 0x31AC DUP3 SLOAD PUSH2 0x4BC3 JUMP JUMPDEST PUSH1 0x1F DUP2 GT PUSH2 0x327F JUMPI JUMPDEST POP PUSH1 0x20 SWAP3 PUSH1 0x1F DUP3 GT PUSH1 0x1 EQ PUSH2 0x3220 JUMPI PUSH2 0x31E5 SWAP3 SWAP4 DUP3 SWAP2 PUSH0 SWAP3 PUSH2 0x13D8 JUMPI POP POP DUP2 PUSH1 0x1 SHL SWAP2 PUSH0 NOT SWAP1 PUSH1 0x3 SHL SHR NOT AND OR SWAP1 JUMP JUMPDEST SWAP1 SSTORE JUMPDEST PUSH1 0x40 DUP1 MLOAD CALLER DUP2 MSTORE TIMESTAMP PUSH1 0x20 DUP3 ADD MSTORE PUSH32 0xDBF29DF2841FBFEF4E4228E54B2EAFD2EDB98C45ECD633E3D142902104CDE351 SWAP2 DUP2 SWAP1 DUP2 ADD PUSH2 0x884 JUMP JUMPDEST PUSH1 0x1F NOT DUP3 AND SWAP4 DUP4 PUSH0 MSTORE DUP1 PUSH0 KECCAK256 SWAP2 PUSH0 JUMPDEST DUP7 DUP2 LT PUSH2 0x3267 JUMPI POP DUP4 PUSH1 0x1 SWAP6 SWAP7 LT PUSH2 0x324F JUMPI JUMPDEST POP POP POP DUP2 SHL ADD SWAP1 SSTORE PUSH2 0x31E8 JUMP JUMPDEST ADD MLOAD PUSH0 NOT PUSH1 0xF8 DUP5 PUSH1 0x3 SHL AND SHR NOT AND SWAP1 SSTORE DUP4 DUP1 DUP1 PUSH2 0x3242 JUMP JUMPDEST SWAP2 SWAP3 PUSH1 0x20 PUSH1 0x1 DUP2 SWAP3 DUP7 DUP6 ADD MLOAD DUP2 SSTORE ADD SWAP5 ADD SWAP3 ADD PUSH2 0x322F JUMP JUMPDEST PUSH2 0x32A9 SWAP1 DUP4 PUSH0 MSTORE PUSH1 0x20 PUSH0 KECCAK256 PUSH1 0x1F DUP5 ADD PUSH1 0x5 SHR DUP2 ADD SWAP2 PUSH1 0x20 DUP6 LT PUSH2 0x952 JUMPI PUSH1 0x1F ADD PUSH1 0x5 SHR ADD SWAP1 PUSH2 0x4E37 JUMP JUMPDEST DUP4 PUSH2 0x31B5 JUMP JUMPDEST PUSH1 0x1F NOT DUP3 AND SWAP6 DUP4 PUSH0 MSTORE DUP2 PUSH0 KECCAK256 SWAP7 PUSH0 JUMPDEST DUP2 DUP2 LT PUSH2 0x3300 JUMPI POP SWAP7 PUSH1 0x1 SWAP3 DUP5 SWAP3 PUSH1 0x4 SWAP8 SWAP7 SWAP6 PUSH1 0x80 SWAP10 SWAP11 LT PUSH2 0x32E8 JUMPI JUMPDEST POP POP POP DUP2 SHL ADD SWAP1 SSTORE PUSH2 0x318D JUMP JUMPDEST ADD MLOAD PUSH0 NOT PUSH1 0xF8 DUP5 PUSH1 0x3 SHL AND SHR NOT AND SWAP1 SSTORE DUP8 DUP1 DUP1 PUSH2 0x32DB JUMP JUMPDEST DUP4 DUP4 ADD MLOAD DUP10 SSTORE PUSH1 0x1 SWAP1 SWAP9 ADD SWAP8 PUSH1 0x20 SWAP4 DUP5 ADD SWAP4 ADD PUSH2 0x32BE JUMP JUMPDEST PUSH2 0x3342 SWAP1 DUP4 PUSH0 MSTORE PUSH1 0x20 PUSH0 KECCAK256 PUSH1 0x1F DUP5 ADD PUSH1 0x5 SHR DUP2 ADD SWAP2 PUSH1 0x20 DUP6 LT PUSH2 0x952 JUMPI PUSH1 0x1F ADD PUSH1 0x5 SHR ADD SWAP1 PUSH2 0x4E37 JUMP JUMPDEST DUP6 PUSH2 0x3154 JUMP JUMPDEST PUSH1 0x1F NOT DUP3 AND SWAP6 DUP4 PUSH0 MSTORE DUP1 PUSH0 KECCAK256 SWAP2 PUSH0 JUMPDEST DUP9 DUP2 LT PUSH2 0x3391 JUMPI POP DUP4 PUSH1 0x1 SWAP6 SWAP7 SWAP8 SWAP9 LT PUSH2 0x3379 JUMPI JUMPDEST POP POP POP DUP2 SHL ADD SWAP1 SSTORE PUSH2 0x3126 JUMP JUMPDEST ADD MLOAD PUSH0 NOT PUSH1 0xF8 DUP5 PUSH1 0x3 SHL AND SHR NOT AND SWAP1 SSTORE DUP6 DUP1 DUP1 PUSH2 0x336C JUMP JUMPDEST SWAP2 SWAP3 PUSH1 0x20 PUSH1 0x1 DUP2 SWAP3 DUP7 DUP6 ADD MLOAD DUP2 SSTORE ADD SWAP5 ADD SWAP3 ADD PUSH2 0x3357 JUMP JUMPDEST PUSH2 0x33D3 SWAP1 DUP4 PUSH0 MSTORE PUSH1 0x20 PUSH0 KECCAK256 PUSH1 0x1F DUP5 ADD PUSH1 0x5 SHR DUP2 ADD SWAP2 PUSH1 0x20 DUP6 LT PUSH2 0x952 JUMPI PUSH1 0x1F ADD PUSH1 0x5 SHR ADD SWAP1 PUSH2 0x4E37 JUMP JUMPDEST DUP6 PUSH2 0x30F1 JUMP JUMPDEST PUSH1 0x1F NOT DUP3 AND SWAP6 DUP4 PUSH0 MSTORE DUP1 PUSH0 KECCAK256 SWAP2 PUSH0 JUMPDEST DUP9 DUP2 LT PUSH2 0x3422 JUMPI POP DUP4 PUSH1 0x1 SWAP6 SWAP7 SWAP8 SWAP9 LT PUSH2 0x340A JUMPI JUMPDEST POP POP POP DUP2 SHL ADD SWAP1 SSTORE PUSH2 0x30C3 JUMP JUMPDEST ADD MLOAD PUSH0 NOT PUSH1 0xF8 DUP5 PUSH1 0x3 SHL AND SHR NOT AND SWAP1 SSTORE DUP6 DUP1 DUP1 PUSH2 0x33FD JUMP JUMPDEST SWAP2 SWAP3 PUSH1 0x20 PUSH1 0x1 DUP2 SWAP3 DUP7 DUP6 ADD MLOAD DUP2 SSTORE ADD SWAP5 ADD SWAP3 ADD PUSH2 0x33E8 JUMP JUMPDEST PUSH2 0x3464 SWAP1 DUP4 PUSH0 MSTORE PUSH1 0x20 PUSH0 KECCAK256 PUSH1 0x1F DUP5 ADD PUSH1 0x5 SHR DUP2 ADD SWAP2 PUSH1 0x20 DUP6 LT PUSH2 0x952 JUMPI PUSH1 0x1F ADD PUSH1 0x5 SHR ADD SWAP1 PUSH2 0x4E37 JUMP JUMPDEST DUP6 PUSH2 0x308E JUMP JUMPDEST PUSH1 0x1F NOT DUP3 AND SWAP1 DUP5 PUSH0 MSTORE DUP1 PUSH0 KECCAK256 SWAP2 PUSH0 JUMPDEST DUP2 DUP2 LT PUSH2 0x34B3 JUMPI POP SWAP6 DUP4 PUSH1 0x1 SWAP6 SWAP7 SWAP8 LT PUSH2 0x349B JUMPI JUMPDEST POP POP POP DUP2 SHL ADD DUP3 SSTORE PUSH2 0x3060 JUMP JUMPDEST ADD MLOAD PUSH0 NOT PUSH1 0xF8 DUP5 PUSH1 0x3 SHL AND SHR NOT AND SWAP1 SSTORE DUP5 DUP1 DUP1 PUSH2 0x348E JUMP JUMPDEST SWAP2 SWAP3 PUSH1 0x20 PUSH1 0x1 DUP2 SWAP3 DUP7 DUP12 ADD MLOAD DUP2 SSTORE ADD SWAP5 ADD SWAP3 ADD PUSH2 0x3479 JUMP JUMPDEST PUSH2 0x34F5 SWAP1 DUP5 PUSH0 MSTORE PUSH1 0x20 PUSH0 KECCAK256 PUSH1 0x1F DUP5 ADD PUSH1 0x5 SHR DUP2 ADD SWAP2 PUSH1 0x20 DUP6 LT PUSH2 0x952 JUMPI PUSH1 0x1F ADD PUSH1 0x5 SHR ADD SWAP1 PUSH2 0x4E37 JUMP JUMPDEST DUP5 PUSH2 0x302D JUMP JUMPDEST PUSH1 0x40 MLOAD PUSH3 0x461BCD PUSH1 0xE5 SHL DUP2 MSTORE PUSH1 0x20 PUSH1 0x4 DUP3 ADD MSTORE PUSH1 0x11 PUSH1 0x24 DUP3 ADD MSTORE PUSH17 0x4E4945206D61736968206265726C616B75 PUSH1 0x78 SHL PUSH1 0x44 DUP3 ADD MSTORE PUSH1 0x64 SWAP1 REVERT JUMPDEST CALLVALUE PUSH2 0x282 JUMPI PUSH1 0x60 CALLDATASIZE PUSH1 0x3 NOT ADD SLT PUSH2 0x282 JUMPI PUSH1 0x4 CALLDATALOAD PUSH1 0x1 PUSH1 0x1 PUSH1 0x40 SHL SUB DUP2 GT PUSH2 0x282 JUMPI PUSH2 0x3564 SWAP1 CALLDATASIZE SWAP1 PUSH1 0x4 ADD PUSH2 0x48F3 JUMP JUMPDEST PUSH1 0x24 CALLDATALOAD PUSH1 0x1 PUSH1 0x1 PUSH1 0x40 SHL SUB DUP2 GT PUSH2 0x282 JUMPI PUSH2 0x3583 SWAP1 CALLDATASIZE SWAP1 PUSH1 0x4 ADD PUSH2 0x48F3 JUMP JUMPDEST PUSH1 0x44 CALLDATALOAD PUSH1 0x1 PUSH1 0x1 PUSH1 0x40 SHL SUB DUP2 GT PUSH2 0x282 JUMPI PUSH2 0x35A2 SWAP1 CALLDATASIZE SWAP1 PUSH1 0x4 ADD PUSH2 0x48F3 JUMP JUMPDEST PUSH1 0x40 MLOAD PUSH4 0x95A8C58D PUSH1 0xE0 SHL DUP2 MSTORE CALLER PUSH1 0x4 DUP3 ADD MSTORE PUSH1 0x2 PUSH1 0x24 DUP3 ADD MSTORE SWAP1 SWAP2 SWAP1 PUSH1 0x20 DUP2 PUSH1 0x44 DUP2 PUSH1 0x1 PUSH1 0x1 PUSH1 0xA0 SHL SUB PUSH32 0x0 AND GAS STATICCALL DUP1 ISZERO PUSH2 0x10BB JUMPI PUSH2 0x3607 SWAP2 PUSH0 SWAP2 PUSH2 0x3886 JUMPI POP PUSH2 0x4F4A JUMP JUMPDEST PUSH1 0x40 MLOAD DUP4 MLOAD SWAP1 PUSH1 0x20 DUP2 DUP2 DUP8 ADD SWAP4 DUP1 DUP6 DUP4 MCOPY DUP2 ADD PUSH0 DUP2 MSTORE SUB ADD SWAP1 KECCAK256 SWAP4 PUSH1 0x1 DUP6 ADD PUSH1 0x3 PUSH1 0xFF NOT DUP3 SLOAD AND OR SWAP1 SSTORE PUSH1 0xD DUP6 ADD SWAP5 DUP4 MLOAD SWAP6 PUSH1 0x1 PUSH1 0x1 PUSH1 0x40 SHL SUB DUP8 GT PUSH2 0x95C JUMPI PUSH2 0x3651 DUP2 SLOAD PUSH2 0x4BC3 JUMP JUMPDEST PUSH1 0x1F DUP2 GT PUSH2 0x3856 JUMPI JUMPDEST POP PUSH1 0x20 SWAP7 PUSH1 0x1F DUP2 GT PUSH1 0x1 EQ PUSH2 0x37F2 JUMPI DUP1 PUSH2 0x368D SWAP2 PUSH1 0x20 SWAP7 SWAP8 SWAP9 SWAP10 PUSH0 SWAP2 PUSH2 0x37E7 JUMPI POP DUP2 PUSH1 0x1 SHL SWAP2 PUSH0 NOT SWAP1 PUSH1 0x3 SHL SHR NOT AND OR SWAP1 JUMP JUMPDEST SWAP1 SSTORE JUMPDEST PUSH1 0xE DUP2 ADD DUP1 SLOAD PUSH1 0x1 PUSH1 0x1 PUSH1 0xA0 SHL SUB NOT AND CALLER OR SWAP1 SSTORE TIMESTAMP PUSH1 0x5 SWAP1 SWAP2 ADD SSTORE PUSH1 0x40 MLOAD SWAP1 MLOAD SWAP1 SWAP3 DUP4 SWAP2 SWAP1 DUP2 SWAP1 DUP4 MCOPY DUP2 ADD PUSH1 0x1 DUP2 MSTORE SUB ADD SWAP1 KECCAK256 SWAP2 DUP1 MLOAD SWAP3 PUSH1 0x1 PUSH1 0x1 PUSH1 0x40 SHL SUB DUP5 GT PUSH2 0x95C JUMPI PUSH2 0x36DF DUP2 SLOAD PUSH2 0x4BC3 JUMP JUMPDEST PUSH1 0x1F DUP2 GT PUSH2 0x37B7 JUMPI JUMPDEST POP PUSH1 0x20 SWAP4 PUSH1 0x1F DUP2 GT PUSH1 0x1 EQ PUSH2 0x3737 JUMPI DUP1 PUSH2 0x2CE8 SWAP2 PUSH32 0x81B3714F32E3DD3D8FAA1A5F7732E52E015BE62219A6EAE68D1A779F682DB80B SWAP7 PUSH0 SWAP2 PUSH2 0x2E4C JUMPI POP DUP2 PUSH1 0x1 SHL SWAP2 PUSH0 NOT SWAP1 PUSH1 0x3 SHL SHR NOT AND OR SWAP1 JUMP JUMPDEST PUSH1 0x1F NOT DUP2 AND DUP3 PUSH0 MSTORE DUP6 PUSH0 KECCAK256 SWAP1 PUSH0 JUMPDEST DUP2 DUP2 LT PUSH2 0x379F JUMPI POP SWAP1 PUSH32 0x81B3714F32E3DD3D8FAA1A5F7732E52E015BE62219A6EAE68D1A779F682DB80B SWAP7 DUP4 PUSH1 0x1 SWAP5 SWAP4 LT PUSH2 0x3787 JUMPI JUMPDEST POP POP DUP2 SHL ADD SWAP1 SSTORE PUSH2 0x2CEB JUMP JUMPDEST DUP6 ADD MLOAD PUSH0 NOT PUSH1 0xF8 DUP5 PUSH1 0x3 SHL AND SHR NOT AND SWAP1 SSTORE DUP7 DUP1 PUSH2 0x377B JUMP JUMPDEST DUP6 DUP9 ADD MLOAD DUP4 SSTORE PUSH1 0x20 SWAP8 DUP9 ADD SWAP8 PUSH1 0x1 SWAP1 SWAP4 ADD SWAP3 ADD PUSH2 0x3745 JUMP JUMPDEST PUSH2 0x37E1 SWAP1 DUP3 PUSH0 MSTORE PUSH1 0x20 PUSH0 KECCAK256 PUSH1 0x1F DUP8 ADD PUSH1 0x5 SHR DUP2 ADD SWAP2 PUSH1 0x20 DUP9 LT PUSH2 0x952 JUMPI PUSH1 0x1F ADD PUSH1 0x5 SHR ADD SWAP1 PUSH2 0x4E37 JUMP JUMPDEST DUP5 PUSH2 0x36E8 JUMP JUMPDEST SWAP1 POP DUP9 ADD MLOAD DUP11 PUSH2 0x2141 JUMP JUMPDEST PUSH1 0x1F NOT DUP2 AND DUP3 PUSH0 MSTORE DUP9 PUSH0 KECCAK256 SWAP1 PUSH0 JUMPDEST DUP2 DUP2 LT PUSH2 0x383E JUMPI POP SWAP1 PUSH1 0x20 SWAP7 SWAP8 SWAP9 SWAP10 DUP4 PUSH1 0x1 SWAP5 SWAP4 LT PUSH2 0x3826 JUMPI JUMPDEST POP POP DUP2 SHL ADD SWAP1 SSTORE PUSH2 0x3690 JUMP JUMPDEST DUP10 ADD MLOAD PUSH0 NOT PUSH1 0xF8 DUP5 PUSH1 0x3 SHL AND SHR NOT AND SWAP1 SSTORE DUP10 DUP1 PUSH2 0x381A JUMP JUMPDEST DUP9 DUP12 ADD MLOAD DUP4 SSTORE PUSH1 0x20 SWAP11 DUP12 ADD SWAP11 PUSH1 0x1 SWAP1 SWAP4 ADD SWAP3 ADD PUSH2 0x3800 JUMP JUMPDEST PUSH2 0x3880 SWAP1 DUP3 PUSH0 MSTORE PUSH1 0x20 PUSH0 KECCAK256 PUSH1 0x1F DUP11 ADD PUSH1 0x5 SHR DUP2 ADD SWAP2 PUSH1 0x20 DUP12 LT PUSH2 0x952 JUMPI PUSH1 0x1F ADD PUSH1 0x5 SHR ADD SWAP1 PUSH2 0x4E37 JUMP JUMPDEST DUP8 PUSH2 0x365A JUMP JUMPDEST PUSH2 0x389F SWAP2 POP PUSH1 0x20 RETURNDATASIZE PUSH1 0x20 GT PUSH2 0x10B4 JUMPI PUSH2 0x10A6 DUP2 DUP4 PUSH2 0x48D2 JUMP JUMPDEST DUP6 PUSH2 0x1952 JUMP JUMPDEST CALLVALUE PUSH2 0x282 JUMPI PUSH1 0x20 CALLDATASIZE PUSH1 0x3 NOT ADD SLT PUSH2 0x282 JUMPI PUSH1 0x4 CALLDATALOAD PUSH1 0x1 PUSH1 0x1 PUSH1 0x40 SHL SUB DUP2 GT PUSH2 0x282 JUMPI PUSH2 0x182F PUSH1 0x20 DUP1 PUSH2 0x38DE PUSH2 0x17D5 SWAP5 CALLDATASIZE SWAP1 PUSH1 0x4 ADD PUSH2 0x48F3 JUMP JUMPDEST PUSH1 0x40 MLOAD SWAP3 DUP2 DUP5 SWAP3 MLOAD SWAP2 DUP3 SWAP2 ADD DUP4 MCOPY DUP2 ADD PUSH1 0x2 DUP2 MSTORE SUB ADD SWAP1 KECCAK256 PUSH2 0x4BFB JUMP JUMPDEST CALLVALUE PUSH2 0x282 JUMPI PUSH1 0x20 CALLDATASIZE PUSH1 0x3 NOT ADD SLT PUSH2 0x282 JUMPI PUSH1 0x4 CALLDATALOAD PUSH1 0x1 PUSH1 0x1 PUSH1 0x40 SHL SUB DUP2 GT PUSH2 0x282 JUMPI PUSH1 0x20 PUSH2 0x392E DUP2 SWAP3 CALLDATASIZE SWAP1 PUSH1 0x4 ADD PUSH2 0x48F3 JUMP JUMPDEST PUSH1 0x40 MLOAD SWAP3 DUP2 DUP5 SWAP3 MLOAD SWAP2 DUP3 SWAP2 ADD DUP4 MCOPY DUP2 ADD PUSH1 0x3 DUP2 MSTORE SUB ADD SWAP1 KECCAK256 PUSH1 0xE0 PUSH2 0x17D5 PUSH2 0x3954 DUP4 PUSH2 0x4BFB JUMP JUMPDEST SWAP3 PUSH2 0x3A09 PUSH2 0x3964 PUSH1 0x1 DUP4 ADD PUSH2 0x4BFB JUMP JUMPDEST SWAP2 PUSH2 0x39FB PUSH2 0x3974 PUSH1 0x2 DUP4 ADD PUSH2 0x4BFB JUMP JUMPDEST PUSH2 0x39ED PUSH2 0x3983 PUSH1 0x3 DUP6 ADD PUSH2 0x4BFB JUMP JUMPDEST PUSH2 0x39DF PUSH2 0x3992 PUSH1 0x4 DUP8 ADD PUSH2 0x4BFB JUMP JUMPDEST SWAP4 PUSH2 0x39D1 PUSH2 0x39AE PUSH1 0x6 PUSH2 0x39A7 PUSH1 0x5 DUP12 ADD PUSH2 0x4BFB JUMP JUMPDEST SWAP10 ADD PUSH2 0x4BFB JUMP JUMPDEST SWAP10 PUSH2 0x39C3 PUSH1 0x40 MLOAD SWAP15 DUP16 SWAP15 DUP16 DUP2 DUP2 MSTORE ADD SWAP1 PUSH2 0x4C9B JUMP JUMPDEST DUP14 DUP2 SUB PUSH1 0x20 DUP16 ADD MSTORE SWAP1 PUSH2 0x4C9B JUMP JUMPDEST SWAP1 DUP12 DUP3 SUB PUSH1 0x40 DUP14 ADD MSTORE PUSH2 0x4C9B JUMP JUMPDEST SWAP1 DUP10 DUP3 SUB PUSH1 0x60 DUP12 ADD MSTORE PUSH2 0x4C9B JUMP JUMPDEST SWAP1 DUP8 DUP3 SUB PUSH1 0x80 DUP10 ADD MSTORE PUSH2 0x4C9B JUMP JUMPDEST SWAP1 DUP6 DUP3 SUB PUSH1 0xA0 DUP8 ADD MSTORE PUSH2 0x4C9B JUMP JUMPDEST SWAP1 DUP4 DUP3 SUB PUSH1 0xC0 DUP6 ADD MSTORE PUSH2 0x4C9B JUMP JUMPDEST CALLVALUE PUSH2 0x282 JUMPI PUSH2 0x3A25 CALLDATASIZE PUSH2 0x4948 JUMP JUMPDEST PUSH1 0x40 MLOAD PUSH4 0x95A8C58D PUSH1 0xE0 SHL DUP2 MSTORE CALLER PUSH1 0x4 DUP3 ADD MSTORE PUSH0 PUSH1 0x24 DUP3 ADD MSTORE SWAP1 SWAP3 SWAP1 PUSH1 0x20 DUP2 PUSH1 0x44 DUP2 PUSH1 0x1 PUSH1 0x1 PUSH1 0xA0 SHL SUB PUSH32 0x0 AND GAS STATICCALL DUP1 ISZERO PUSH2 0x10BB JUMPI PUSH2 0x3A89 SWAP2 PUSH0 SWAP2 PUSH2 0x108C JUMPI POP PUSH2 0x4DFC JUMP JUMPDEST PUSH1 0x40 MLOAD SWAP2 DUP2 MLOAD SWAP3 PUSH1 0x20 DUP2 DUP2 DUP6 ADD SWAP6 DUP1 DUP8 DUP4 MCOPY DUP2 ADD PUSH0 DUP2 MSTORE SUB ADD SWAP1 KECCAK256 PUSH1 0x1 DUP2 ADD PUSH1 0x4 PUSH1 0xFF NOT DUP3 SLOAD AND OR SWAP1 SSTORE PUSH1 0x6 TIMESTAMP SWAP2 ADD SSTORE PUSH2 0x3B1F PUSH1 0x6 PUSH1 0x40 MLOAD PUSH1 0x20 DUP2 DUP7 MLOAD DUP1 DUP10 DUP4 MCOPY DUP2 ADD PUSH1 0x3 DUP2 MSTORE SUB ADD SWAP1 KECCAK256 PUSH2 0x3ADD DUP2 PUSH2 0x4E4D JUMP JUMPDEST PUSH2 0x3AE9 PUSH1 0x1 DUP3 ADD PUSH2 0x4E4D JUMP JUMPDEST PUSH2 0x3AF5 PUSH1 0x2 DUP3 ADD PUSH2 0x4E4D JUMP JUMPDEST PUSH2 0x3B01 PUSH1 0x3 DUP3 ADD PUSH2 0x4E4D JUMP JUMPDEST PUSH2 0x3B0D PUSH1 0x4 DUP3 ADD PUSH2 0x4E4D JUMP JUMPDEST PUSH2 0x3B19 PUSH1 0x5 DUP3 ADD PUSH2 0x4E4D JUMP JUMPDEST ADD PUSH2 0x4E4D JUMP JUMPDEST PUSH2 0x3B73 PUSH1 0x5 PUSH1 0x40 MLOAD PUSH1 0x20 DUP2 DUP7 MLOAD DUP1 DUP10 DUP4 MCOPY DUP2 ADD PUSH1 0x4 DUP2 MSTORE SUB ADD SWAP1 KECCAK256 PUSH2 0x3B43 DUP2 PUSH2 0x4E4D JUMP JUMPDEST PUSH2 0x3B4F PUSH1 0x1 DUP3 ADD PUSH2 0x4E4D JUMP JUMPDEST PUSH2 0x3B5B PUSH1 0x2 DUP3 ADD PUSH2 0x4E4D JUMP JUMPDEST PUSH2 0x3B67 PUSH1 0x3 DUP3 ADD PUSH2 0x4E4D JUMP JUMPDEST PUSH2 0x3B19 PUSH1 0x4 DUP3 ADD PUSH2 0x4E4D JUMP JUMPDEST PUSH1 0x40 MLOAD PUSH1 0x20 DUP2 DUP5 MLOAD DUP1 DUP8 DUP4 MCOPY DUP2 ADD PUSH1 0x3 DUP2 MSTORE SUB ADD SWAP1 KECCAK256 DUP2 MLOAD DUP1 MLOAD SWAP1 PUSH1 0x1 PUSH1 0x1 PUSH1 0x40 SHL SUB DUP3 GT PUSH2 0x95C JUMPI PUSH2 0x3BA6 DUP4 SLOAD PUSH2 0x4BC3 JUMP JUMPDEST PUSH1 0x1F DUP2 GT PUSH2 0x47F4 JUMPI JUMPDEST POP PUSH1 0x20 SWAP1 PUSH1 0x1F DUP4 GT PUSH1 0x1 EQ PUSH2 0x4791 JUMPI PUSH2 0x3BDE SWAP3 SWAP2 PUSH0 SWAP2 DUP4 PUSH2 0xA09 JUMPI POP POP DUP2 PUSH1 0x1 SHL SWAP2 PUSH0 NOT SWAP1 PUSH1 0x3 SHL SHR NOT AND OR SWAP1 JUMP JUMPDEST DUP2 SSTORE JUMPDEST PUSH1 0x1 DUP2 ADD PUSH1 0x20 DUP4 ADD MLOAD DUP1 MLOAD SWAP1 PUSH1 0x1 PUSH1 0x1 PUSH1 0x40 SHL SUB DUP3 GT PUSH2 0x95C JUMPI PUSH2 0x3C05 DUP4 SLOAD PUSH2 0x4BC3 JUMP JUMPDEST PUSH1 0x1F DUP2 GT PUSH2 0x4761 JUMPI JUMPDEST POP PUSH1 0x20 SWAP1 PUSH1 0x1F DUP4 GT PUSH1 0x1 EQ PUSH2 0x46FE JUMPI PUSH2 0x3C3D SWAP3 SWAP2 PUSH0 SWAP2 DUP4 PUSH2 0xDA2 JUMPI POP POP DUP2 PUSH1 0x1 SHL SWAP2 PUSH0 NOT SWAP1 PUSH1 0x3 SHL SHR NOT AND OR SWAP1 JUMP JUMPDEST SWAP1 SSTORE JUMPDEST PUSH1 0x2 DUP2 ADD PUSH1 0x40 DUP4 ADD MLOAD DUP1 MLOAD SWAP1 PUSH1 0x1 PUSH1 0x1 PUSH1 0x40 SHL SUB DUP3 GT PUSH2 0x95C JUMPI PUSH2 0x3C64 DUP4 SLOAD PUSH2 0x4BC3 JUMP JUMPDEST PUSH1 0x1F DUP2 GT PUSH2 0x46CE JUMPI JUMPDEST POP PUSH1 0x20 SWAP1 PUSH1 0x1F DUP4 GT PUSH1 0x1 EQ PUSH2 0x466B JUMPI PUSH2 0x3C9C SWAP3 SWAP2 PUSH0 SWAP2 DUP4 PUSH2 0xDA2 JUMPI POP POP DUP2 PUSH1 0x1 SHL SWAP2 PUSH0 NOT SWAP1 PUSH1 0x3 SHL SHR NOT AND OR SWAP1 JUMP JUMPDEST SWAP1 SSTORE JUMPDEST PUSH1 0x3 DUP2 ADD PUSH1 0x60 DUP4 ADD MLOAD DUP1 MLOAD SWAP1 PUSH1 0x1 PUSH1 0x1 PUSH1 0x40 SHL SUB DUP3 GT PUSH2 0x95C JUMPI PUSH2 0x3CC3 DUP4 SLOAD PUSH2 0x4BC3 JUMP JUMPDEST PUSH1 0x1F DUP2 GT PUSH2 0x463B JUMPI JUMPDEST POP PUSH1 0x20 SWAP1 PUSH1 0x1F DUP4 GT PUSH1 0x1 EQ PUSH2 0x45D8 JUMPI PUSH2 0x3CFB SWAP3 SWAP2 PUSH0 SWAP2 DUP4 PUSH2 0xDA2 JUMPI POP POP DUP2 PUSH1 0x1 SHL SWAP2 PUSH0 NOT SWAP1 PUSH1 0x3 SHL SHR NOT AND OR SWAP1 JUMP JUMPDEST SWAP1 SSTORE JUMPDEST PUSH1 0x4 DUP2 ADD PUSH1 0x80 DUP4 ADD MLOAD DUP1 MLOAD SWAP1 PUSH1 0x1 PUSH1 0x1 PUSH1 0x40 SHL SUB DUP3 GT PUSH2 0x95C JUMPI PUSH2 0x3D22 DUP4 SLOAD PUSH2 0x4BC3 JUMP JUMPDEST PUSH1 0x1F DUP2 GT PUSH2 0x45A8 JUMPI JUMPDEST POP PUSH1 0x20 SWAP1 PUSH1 0x1F DUP4 GT PUSH1 0x1 EQ PUSH2 0x4545 JUMPI PUSH2 0x3D5A SWAP3 SWAP2 PUSH0 SWAP2 DUP4 PUSH2 0xDA2 JUMPI POP POP DUP2 PUSH1 0x1 SHL SWAP2 PUSH0 NOT SWAP1 PUSH1 0x3 SHL SHR NOT AND OR SWAP1 JUMP JUMPDEST SWAP1 SSTORE JUMPDEST PUSH1 0x5 DUP2 ADD PUSH1 0xA0 DUP4 ADD MLOAD DUP1 MLOAD SWAP1 PUSH1 0x1 PUSH1 0x1 PUSH1 0x40 SHL SUB DUP3 GT PUSH2 0x95C JUMPI PUSH2 0x3D81 DUP4 SLOAD PUSH2 0x4BC3 JUMP JUMPDEST PUSH1 0x1F DUP2 GT PUSH2 0x4515 JUMPI JUMPDEST POP PUSH1 0x20 SWAP1 PUSH1 0x1F DUP4 GT PUSH1 0x1 EQ PUSH2 0x44AC JUMPI DUP3 PUSH1 0xC0 SWAP6 SWAP4 PUSH1 0x6 SWAP6 SWAP4 PUSH2 0x3DC0 SWAP4 PUSH0 SWAP3 PUSH2 0xCFE JUMPI POP POP DUP2 PUSH1 0x1 SHL SWAP2 PUSH0 NOT SWAP1 PUSH1 0x3 SHL SHR NOT AND OR SWAP1 JUMP JUMPDEST SWAP1 SSTORE JUMPDEST ADD SWAP2 ADD MLOAD DUP1 MLOAD SWAP1 PUSH1 0x1 PUSH1 0x1 PUSH1 0x40 SHL SUB DUP3 GT PUSH2 0x95C JUMPI PUSH2 0x3DE2 DUP4 SLOAD PUSH2 0x4BC3 JUMP JUMPDEST PUSH1 0x1F DUP2 GT PUSH2 0x447C JUMPI JUMPDEST POP PUSH1 0x20 SWAP1 PUSH1 0x1F DUP4 GT PUSH1 0x1 EQ PUSH2 0x4419 JUMPI PUSH2 0x3E1A SWAP3 SWAP2 PUSH0 SWAP2 DUP4 PUSH2 0xBCD JUMPI POP POP DUP2 PUSH1 0x1 SHL SWAP2 PUSH0 NOT SWAP1 PUSH1 0x3 SHL SHR NOT AND OR SWAP1 JUMP JUMPDEST SWAP1 SSTORE JUMPDEST PUSH1 0x40 MLOAD PUSH1 0x20 DUP2 DUP4 MLOAD DUP1 DUP7 DUP4 MCOPY DUP2 ADD PUSH1 0x4 DUP2 MSTORE SUB ADD SWAP1 KECCAK256 DUP4 MLOAD DUP1 MLOAD SWAP1 PUSH1 0x1 PUSH1 0x1 PUSH1 0x40 SHL SUB DUP3 GT PUSH2 0x95C JUMPI PUSH2 0x3E50 DUP4 SLOAD PUSH2 0x4BC3 JUMP JUMPDEST PUSH1 0x1F DUP2 GT PUSH2 0x43E9 JUMPI JUMPDEST POP PUSH1 0x20 SWAP1 PUSH1 0x1F DUP4 GT PUSH1 0x1 EQ PUSH2 0x4386 JUMPI PUSH2 0x3E88 SWAP3 SWAP2 PUSH0 SWAP2 DUP4 PUSH2 0xBCD JUMPI POP POP DUP2 PUSH1 0x1 SHL SWAP2 PUSH0 NOT SWAP1 PUSH1 0x3 SHL SHR NOT AND OR SWAP1 JUMP JUMPDEST DUP2 SSTORE JUMPDEST PUSH1 0x1 DUP2 ADD PUSH1 0x20 DUP6 ADD MLOAD DUP1 MLOAD SWAP1 PUSH1 0x1 PUSH1 0x1 PUSH1 0x40 SHL SUB DUP3 GT PUSH2 0x95C JUMPI PUSH2 0x3EAF DUP4 SLOAD PUSH2 0x4BC3 JUMP JUMPDEST PUSH1 0x1F DUP2 GT PUSH2 0x4356 JUMPI JUMPDEST POP PUSH1 0x20 SWAP1 PUSH1 0x1F DUP4 GT PUSH1 0x1 EQ PUSH2 0x42F3 JUMPI PUSH2 0x3EE7 SWAP3 SWAP2 PUSH0 SWAP2 DUP4 PUSH2 0xA09 JUMPI POP POP DUP2 PUSH1 0x1 SHL SWAP2 PUSH0 NOT SWAP1 PUSH1 0x3 SHL SHR NOT AND OR SWAP1 JUMP JUMPDEST SWAP1 SSTORE JUMPDEST PUSH1 0x2 DUP2 ADD PUSH1 0x40 DUP6 ADD MLOAD DUP1 MLOAD SWAP1 PUSH1 0x1 PUSH1 0x1 PUSH1 0x40 SHL SUB DUP3 GT PUSH2 0x95C JUMPI PUSH2 0x3F0E DUP4 SLOAD PUSH2 0x4BC3 JUMP JUMPDEST PUSH1 0x1F DUP2 GT PUSH2 0x42C3 JUMPI JUMPDEST POP PUSH1 0x20 SWAP1 PUSH1 0x1F DUP4 GT PUSH1 0x1 EQ PUSH2 0x4260 JUMPI PUSH2 0x3F46 SWAP3 SWAP2 PUSH0 SWAP2 DUP4 PUSH2 0xA09 JUMPI POP POP DUP2 PUSH1 0x1 SHL SWAP2 PUSH0 NOT SWAP1 PUSH1 0x3 SHL SHR NOT AND OR SWAP1 JUMP JUMPDEST SWAP1 SSTORE JUMPDEST PUSH1 0x3 DUP2 ADD PUSH1 0x60 DUP6 ADD MLOAD DUP1 MLOAD SWAP1 PUSH1 0x1 PUSH1 0x1 PUSH1 0x40 SHL SUB DUP3 GT PUSH2 0x95C JUMPI PUSH2 0x3F6D DUP4 SLOAD PUSH2 0x4BC3 JUMP JUMPDEST PUSH1 0x1F DUP2 GT PUSH2 0x4230 JUMPI JUMPDEST POP PUSH1 0x20 SWAP1 PUSH1 0x1F DUP4 GT PUSH1 0x1 EQ PUSH2 0x41CD JUMPI PUSH2 0x3FA5 SWAP3 SWAP2 PUSH0 SWAP2 DUP4 PUSH2 0xA09 JUMPI POP POP DUP2 PUSH1 0x1 SHL SWAP2 PUSH0 NOT SWAP1 PUSH1 0x3 SHL SHR NOT AND OR SWAP1 JUMP JUMPDEST SWAP1 SSTORE JUMPDEST PUSH1 0x4 DUP2 ADD PUSH1 0x80 DUP6 ADD MLOAD DUP1 MLOAD SWAP1 PUSH1 0x1 PUSH1 0x1 PUSH1 0x40 SHL SUB DUP3 GT PUSH2 0x95C JUMPI PUSH2 0x3FCC DUP4 SLOAD PUSH2 0x4BC3 JUMP JUMPDEST PUSH1 0x1F DUP2 GT PUSH2 0x419D JUMPI JUMPDEST POP PUSH1 0x20 SWAP1 PUSH1 0x1F DUP4 GT PUSH1 0x1 EQ PUSH2 0x4134 JUMPI DUP3 PUSH1 0xA0 SWAP6 SWAP4 PUSH1 0x5 SWAP6 SWAP4 PUSH2 0x400B SWAP4 PUSH0 SWAP3 PUSH2 0x889 JUMPI POP POP DUP2 PUSH1 0x1 SHL SWAP2 PUSH0 NOT SWAP1 PUSH1 0x3 SHL SHR NOT AND OR SWAP1 JUMP JUMPDEST SWAP1 SSTORE JUMPDEST ADD SWAP4 ADD MLOAD SWAP3 DUP4 MLOAD PUSH1 0x1 PUSH1 0x1 PUSH1 0x40 SHL SUB DUP2 GT PUSH2 0x95C JUMPI PUSH2 0x402D DUP3 SLOAD PUSH2 0x4BC3 JUMP JUMPDEST PUSH1 0x1F DUP2 GT PUSH2 0x4104 JUMPI JUMPDEST POP PUSH1 0x20 PUSH1 0x1F DUP3 GT PUSH1 0x1 EQ PUSH2 0x4090 JUMPI SWAP3 PUSH2 0x884 SWAP5 SWAP3 PUSH2 0x85C DUP4 PUSH1 0x20 SWAP5 PUSH1 0xC SWAP8 PUSH32 0xBE8DFEFDA19EDB2EA695885130355727F7788A97D4B87A6612A78EE860EA23AB SWAP11 PUSH0 SWAP3 PUSH2 0x889 JUMPI POP POP DUP2 PUSH1 0x1 SHL SWAP2 PUSH0 NOT SWAP1 PUSH1 0x3 SHL SHR NOT AND OR SWAP1 JUMP JUMPDEST PUSH1 0x1F NOT DUP3 AND SWAP6 DUP4 PUSH0 MSTORE DUP2 PUSH0 KECCAK256 SWAP7 PUSH0 JUMPDEST DUP2 DUP2 LT PUSH2 0x40EC JUMPI POP DUP4 PUSH32 0xBE8DFEFDA19EDB2EA695885130355727F7788A97D4B87A6612A78EE860EA23AB SWAP9 PUSH1 0xC SWAP8 SWAP5 PUSH2 0x884 SWAP10 SWAP8 SWAP5 PUSH1 0x20 SWAP8 PUSH1 0x1 SWAP6 LT PUSH2 0x8F1 JUMPI POP POP POP DUP2 SHL ADD SWAP1 SSTORE PUSH2 0x85F JUMP JUMPDEST DUP4 DUP4 ADD MLOAD DUP10 SSTORE PUSH1 0x1 SWAP1 SWAP9 ADD SWAP8 PUSH1 0x20 SWAP4 DUP5 ADD SWAP4 ADD PUSH2 0x409F JUMP JUMPDEST PUSH2 0x412E SWAP1 DUP4 PUSH0 MSTORE PUSH1 0x20 PUSH0 KECCAK256 PUSH1 0x1F DUP5 ADD PUSH1 0x5 SHR DUP2 ADD SWAP2 PUSH1 0x20 DUP6 LT PUSH2 0x952 JUMPI PUSH1 0x1F ADD PUSH1 0x5 SHR ADD SWAP1 PUSH2 0x4E37 JUMP JUMPDEST DUP6 PUSH2 0x4036 JUMP JUMPDEST SWAP1 PUSH1 0x1F NOT DUP4 AND SWAP2 DUP5 PUSH0 MSTORE DUP2 PUSH0 KECCAK256 SWAP3 PUSH0 JUMPDEST DUP2 DUP2 LT PUSH2 0x4185 JUMPI POP SWAP3 PUSH1 0x1 SWAP3 DUP6 SWAP3 PUSH1 0xA0 SWAP9 SWAP7 PUSH1 0x5 SWAP9 SWAP7 LT PUSH2 0x416D JUMPI JUMPDEST POP POP POP DUP2 SHL ADD SWAP1 SSTORE PUSH2 0x400E JUMP JUMPDEST ADD MLOAD PUSH0 NOT PUSH1 0xF8 DUP5 PUSH1 0x3 SHL AND SHR NOT AND SWAP1 SSTORE DUP10 DUP1 DUP1 PUSH2 0x4160 JUMP JUMPDEST SWAP3 SWAP4 PUSH1 0x20 PUSH1 0x1 DUP2 SWAP3 DUP8 DUP7 ADD MLOAD DUP2 SSTORE ADD SWAP6 ADD SWAP4 ADD PUSH2 0x4144 JUMP JUMPDEST PUSH2 0x41C7 SWAP1 DUP5 PUSH0 MSTORE PUSH1 0x20 PUSH0 KECCAK256 PUSH1 0x1F DUP6 ADD PUSH1 0x5 SHR DUP2 ADD SWAP2 PUSH1 0x20 DUP7 LT PUSH2 0x952 JUMPI PUSH1 0x1F ADD PUSH1 0x5 SHR ADD SWAP1 PUSH2 0x4E37 JUMP JUMPDEST DUP8 PUSH2 0x3FD5 JUMP JUMPDEST SWAP1 PUSH1 0x1F NOT DUP4 AND SWAP2 DUP5 PUSH0 MSTORE DUP2 PUSH0 KECCAK256 SWAP3 PUSH0 JUMPDEST DUP2 DUP2 LT PUSH2 0x4218 JUMPI POP SWAP1 DUP5 PUSH1 0x1 SWAP6 SWAP5 SWAP4 SWAP3 LT PUSH2 0x4200 JUMPI JUMPDEST POP POP POP DUP2 SHL ADD SWAP1 SSTORE PUSH2 0x3FA8 JUMP JUMPDEST ADD MLOAD PUSH0 NOT PUSH1 0xF8 DUP5 PUSH1 0x3 SHL AND SHR NOT AND SWAP1 SSTORE DUP8 DUP1 DUP1 PUSH2 0x41F3 JUMP JUMPDEST SWAP3 SWAP4 PUSH1 0x20 PUSH1 0x1 DUP2 SWAP3 DUP8 DUP7 ADD MLOAD DUP2 SSTORE ADD SWAP6 ADD SWAP4 ADD PUSH2 0x41DD JUMP JUMPDEST PUSH2 0x425A SWAP1 DUP5 PUSH0 MSTORE PUSH1 0x20 PUSH0 KECCAK256 PUSH1 0x1F DUP6 ADD PUSH1 0x5 SHR DUP2 ADD SWAP2 PUSH1 0x20 DUP7 LT PUSH2 0x952 JUMPI PUSH1 0x1F ADD PUSH1 0x5 SHR ADD SWAP1 PUSH2 0x4E37 JUMP JUMPDEST DUP8 PUSH2 0x3F76 JUMP JUMPDEST SWAP1 PUSH1 0x1F NOT DUP4 AND SWAP2 DUP5 PUSH0 MSTORE DUP2 PUSH0 KECCAK256 SWAP3 PUSH0 JUMPDEST DUP2 DUP2 LT PUSH2 0x42AB JUMPI POP SWAP1 DUP5 PUSH1 0x1 SWAP6 SWAP5 SWAP4 SWAP3 LT PUSH2 0x4293 JUMPI JUMPDEST POP POP POP DUP2 SHL ADD SWAP1 SSTORE PUSH2 0x3F49 JUMP JUMPDEST ADD MLOAD PUSH0 NOT PUSH1 0xF8 DUP5 PUSH1 0x3 SHL AND SHR NOT AND SWAP1 SSTORE DUP8 DUP1 DUP1 PUSH2 0x4286 JUMP JUMPDEST SWAP3 SWAP4 PUSH1 0x20 PUSH1 0x1 DUP2 SWAP3 DUP8 DUP7 ADD MLOAD DUP2 SSTORE ADD SWAP6 ADD SWAP4 ADD PUSH2 0x4270 JUMP JUMPDEST PUSH2 0x42ED SWAP1 DUP5 PUSH0 MSTORE PUSH1 0x20 PUSH0 KECCAK256 PUSH1 0x1F DUP6 ADD PUSH1 0x5 SHR DUP2 ADD SWAP2 PUSH1 0x20 DUP7 LT PUSH2 0x952 JUMPI PUSH1 0x1F ADD PUSH1 0x5 SHR ADD SWAP1 PUSH2 0x4E37 JUMP JUMPDEST DUP8 PUSH2 0x3F17 JUMP JUMPDEST SWAP1 PUSH1 0x1F NOT DUP4 AND SWAP2 DUP5 PUSH0 MSTORE DUP2 PUSH0 KECCAK256 SWAP3 PUSH0 JUMPDEST DUP2 DUP2 LT PUSH2 0x433E JUMPI POP SWAP1 DUP5 PUSH1 0x1 SWAP6 SWAP5 SWAP4 SWAP3 LT PUSH2 0x4326 JUMPI JUMPDEST POP POP POP DUP2 SHL ADD SWAP1 SSTORE PUSH2 0x3EEA JUMP JUMPDEST ADD MLOAD PUSH0 NOT PUSH1 0xF8 DUP5 PUSH1 0x3 SHL AND SHR NOT AND SWAP1 SSTORE DUP8 DUP1 DUP1 PUSH2 0x4319 JUMP JUMPDEST SWAP3 SWAP4 PUSH1 0x20 PUSH1 0x1 DUP2 SWAP3 DUP8 DUP7 ADD MLOAD DUP2 SSTORE ADD SWAP6 ADD SWAP4 ADD PUSH2 0x4303 JUMP JUMPDEST PUSH2 0x4380 SWAP1 DUP5 PUSH0 MSTORE PUSH1 0x20 PUSH0 KECCAK256 PUSH1 0x1F DUP6 ADD PUSH1 0x5 SHR DUP2 ADD SWAP2 PUSH1 0x20 DUP7 LT PUSH2 0x952 JUMPI PUSH1 0x1F ADD PUSH1 0x5 SHR ADD SWAP1 PUSH2 0x4E37 JUMP JUMPDEST DUP8 PUSH2 0x3EB8 JUMP JUMPDEST SWAP1 PUSH1 0x1F NOT DUP4 AND SWAP2 DUP5 PUSH0 MSTORE DUP2 PUSH0 KECCAK256 SWAP3 PUSH0 JUMPDEST DUP2 DUP2 LT PUSH2 0x43D1 JUMPI POP SWAP1 DUP5 PUSH1 0x1 SWAP6 SWAP5 SWAP4 SWAP3 LT PUSH2 0x43B9 JUMPI JUMPDEST POP POP POP DUP2 SHL ADD DUP2 SSTORE PUSH2 0x3E8B JUMP JUMPDEST ADD MLOAD PUSH0 NOT PUSH1 0xF8 DUP5 PUSH1 0x3 SHL AND SHR NOT AND SWAP1 SSTORE DUP7 DUP1 DUP1 PUSH2 0x43AC JUMP JUMPDEST SWAP3 SWAP4 PUSH1 0x20 PUSH1 0x1 DUP2 SWAP3 DUP8 DUP7 ADD MLOAD DUP2 SSTORE ADD SWAP6 ADD SWAP4 ADD PUSH2 0x4396 JUMP JUMPDEST PUSH2 0x4413 SWAP1 DUP5 PUSH0 MSTORE PUSH1 0x20 PUSH0 KECCAK256 PUSH1 0x1F DUP6 ADD PUSH1 0x5 SHR DUP2 ADD SWAP2 PUSH1 0x20 DUP7 LT PUSH2 0x952 JUMPI PUSH1 0x1F ADD PUSH1 0x5 SHR ADD SWAP1 PUSH2 0x4E37 JUMP JUMPDEST DUP7 PUSH2 0x3E59 JUMP JUMPDEST SWAP1 PUSH1 0x1F NOT DUP4 AND SWAP2 DUP5 PUSH0 MSTORE DUP2 PUSH0 KECCAK256 SWAP3 PUSH0 JUMPDEST DUP2 DUP2 LT PUSH2 0x4464 JUMPI POP SWAP1 DUP5 PUSH1 0x1 SWAP6 SWAP5 SWAP4 SWAP3 LT PUSH2 0x444C JUMPI JUMPDEST POP POP POP DUP2 SHL ADD SWAP1 SSTORE PUSH2 0x3E1D JUMP JUMPDEST ADD MLOAD PUSH0 NOT PUSH1 0xF8 DUP5 PUSH1 0x3 SHL AND SHR NOT AND SWAP1 SSTORE DUP7 DUP1 DUP1 PUSH2 0x443F JUMP JUMPDEST SWAP3 SWAP4 PUSH1 0x20 PUSH1 0x1 DUP2 SWAP3 DUP8 DUP7 ADD MLOAD DUP2 SSTORE ADD SWAP6 ADD SWAP4 ADD PUSH2 0x4429 JUMP JUMPDEST PUSH2 0x44A6 SWAP1 DUP5 PUSH0 MSTORE PUSH1 0x20 PUSH0 KECCAK256 PUSH1 0x1F DUP6 ADD PUSH1 0x5 SHR DUP2 ADD SWAP2 PUSH1 0x20 DUP7 LT PUSH2 0x952 JUMPI PUSH1 0x1F ADD PUSH1 0x5 SHR ADD SWAP1 PUSH2 0x4E37 JUMP JUMPDEST DUP7 PUSH2 0x3DEB JUMP JUMPDEST SWAP1 PUSH1 0x1F NOT DUP4 AND SWAP2 DUP5 PUSH0 MSTORE DUP2 PUSH0 KECCAK256 SWAP3 PUSH0 JUMPDEST DUP2 DUP2 LT PUSH2 0x44FD JUMPI POP SWAP3 PUSH1 0x1 SWAP3 DUP6 SWAP3 PUSH1 0xC0 SWAP9 SWAP7 PUSH1 0x6 SWAP9 SWAP7 LT PUSH2 0x44E5 JUMPI JUMPDEST POP POP POP DUP2 SHL ADD SWAP1 SSTORE PUSH2 0x3DC3 JUMP JUMPDEST ADD MLOAD PUSH0 NOT PUSH1 0xF8 DUP5 PUSH1 0x3 SHL AND SHR NOT AND SWAP1 SSTORE DUP11 DUP1 DUP1 PUSH2 0x44D8 JUMP JUMPDEST SWAP3 SWAP4 PUSH1 0x20 PUSH1 0x1 DUP2 SWAP3 DUP8 DUP7 ADD MLOAD DUP2 SSTORE ADD SWAP6 ADD SWAP4 ADD PUSH2 0x44BC JUMP JUMPDEST PUSH2 0x453F SWAP1 DUP5 PUSH0 MSTORE PUSH1 0x20 PUSH0 KECCAK256 PUSH1 0x1F DUP6 ADD PUSH1 0x5 SHR DUP2 ADD SWAP2 PUSH1 0x20 DUP7 LT PUSH2 0x952 JUMPI PUSH1 0x1F ADD PUSH1 0x5 SHR ADD SWAP1 PUSH2 0x4E37 JUMP JUMPDEST DUP9 PUSH2 0x3D8A JUMP JUMPDEST SWAP1 PUSH1 0x1F NOT DUP4 AND SWAP2 DUP5 PUSH0 MSTORE DUP2 PUSH0 KECCAK256 SWAP3 PUSH0 JUMPDEST DUP2 DUP2 LT PUSH2 0x4590 JUMPI POP SWAP1 DUP5 PUSH1 0x1 SWAP6 SWAP5 SWAP4 SWAP3 LT PUSH2 0x4578 JUMPI JUMPDEST POP POP POP DUP2 SHL ADD SWAP1 SSTORE PUSH2 0x3D5D JUMP JUMPDEST ADD MLOAD PUSH0 NOT PUSH1 0xF8 DUP5 PUSH1 0x3 SHL AND SHR NOT AND SWAP1 SSTORE DUP9 DUP1 DUP1 PUSH2 0x456B JUMP JUMPDEST SWAP3 SWAP4 PUSH1 0x20 PUSH1 0x1 DUP2 SWAP3 DUP8 DUP7 ADD MLOAD DUP2 SSTORE ADD SWAP6 ADD SWAP4 ADD PUSH2 0x4555 JUMP JUMPDEST PUSH2 0x45D2 SWAP1 DUP5 PUSH0 MSTORE PUSH1 0x20 PUSH0 KECCAK256 PUSH1 0x1F DUP6 ADD PUSH1 0x5 SHR DUP2 ADD SWAP2 PUSH1 0x20 DUP7 LT PUSH2 0x952 JUMPI PUSH1 0x1F ADD PUSH1 0x5 SHR ADD SWAP1 PUSH2 0x4E37 JUMP JUMPDEST DUP9 PUSH2 0x3D2B JUMP JUMPDEST SWAP1 PUSH1 0x1F NOT DUP4 AND SWAP2 DUP5 PUSH0 MSTORE DUP2 PUSH0 KECCAK256 SWAP3 PUSH0 JUMPDEST DUP2 DUP2 LT PUSH2 0x4623 JUMPI POP SWAP1 DUP5 PUSH1 0x1 SWAP6 SWAP5 SWAP4 SWAP3 LT PUSH2 0x460B JUMPI JUMPDEST POP POP POP DUP2 SHL ADD SWAP1 SSTORE PUSH2 0x3CFE JUMP JUMPDEST ADD MLOAD PUSH0 NOT PUSH1 0xF8 DUP5 PUSH1 0x3 SHL AND SHR NOT AND SWAP1 SSTORE DUP9 DUP1 DUP1 PUSH2 0x45FE JUMP JUMPDEST SWAP3 SWAP4 PUSH1 0x20 PUSH1 0x1 DUP2 SWAP3 DUP8 DUP7 ADD MLOAD DUP2 SSTORE ADD SWAP6 ADD SWAP4 ADD PUSH2 0x45E8 JUMP JUMPDEST PUSH2 0x4665 SWAP1 DUP5 PUSH0 MSTORE PUSH1 0x20 PUSH0 KECCAK256 PUSH1 0x1F DUP6 ADD PUSH1 0x5 SHR DUP2 ADD SWAP2 PUSH1 0x20 DUP7 LT PUSH2 0x952 JUMPI PUSH1 0x1F ADD PUSH1 0x5 SHR ADD SWAP1 PUSH2 0x4E37 JUMP JUMPDEST DUP9 PUSH2 0x3CCC JUMP JUMPDEST SWAP1 PUSH1 0x1F NOT DUP4 AND SWAP2 DUP5 PUSH0 MSTORE DUP2 PUSH0 KECCAK256 SWAP3 PUSH0 JUMPDEST DUP2 DUP2 LT PUSH2 0x46B6 JUMPI POP SWAP1 DUP5 PUSH1 0x1 SWAP6 SWAP5 SWAP4 SWAP3 LT PUSH2 0x469E JUMPI JUMPDEST POP POP POP DUP2 SHL ADD SWAP1 SSTORE PUSH2 0x3C9F JUMP JUMPDEST ADD MLOAD PUSH0 NOT PUSH1 0xF8 DUP5 PUSH1 0x3 SHL AND SHR NOT AND SWAP1 SSTORE DUP9 DUP1 DUP1 PUSH2 0x4691 JUMP JUMPDEST SWAP3 SWAP4 PUSH1 0x20 PUSH1 0x1 DUP2 SWAP3 DUP8 DUP7 ADD MLOAD DUP2 SSTORE ADD SWAP6 ADD SWAP4 ADD PUSH2 0x467B JUMP JUMPDEST PUSH2 0x46F8 SWAP1 DUP5 PUSH0 MSTORE PUSH1 0x20 PUSH0 KECCAK256 PUSH1 0x1F DUP6 ADD PUSH1 0x5 SHR DUP2 ADD SWAP2 PUSH1 0x20 DUP7 LT PUSH2 0x952 JUMPI PUSH1 0x1F ADD PUSH1 0x5 SHR ADD SWAP1 PUSH2 0x4E37 JUMP JUMPDEST DUP9 PUSH2 0x3C6D JUMP JUMPDEST SWAP1 PUSH1 0x1F NOT DUP4 AND SWAP2 DUP5 PUSH0 MSTORE DUP2 PUSH0 KECCAK256 SWAP3 PUSH0 JUMPDEST DUP2 DUP2 LT PUSH2 0x4749 JUMPI POP SWAP1 DUP5 PUSH1 0x1 SWAP6 SWAP5 SWAP4 SWAP3 LT PUSH2 0x4731 JUMPI JUMPDEST POP POP POP DUP2 SHL ADD SWAP1 SSTORE PUSH2 0x3C40 JUMP JUMPDEST ADD MLOAD PUSH0 NOT PUSH1 0xF8 DUP5 PUSH1 0x3 SHL AND SHR NOT AND SWAP1 SSTORE DUP9 DUP1 DUP1 PUSH2 0x4724 JUMP JUMPDEST SWAP3 SWAP4 PUSH1 0x20 PUSH1 0x1 DUP2 SWAP3 DUP8 DUP7 ADD MLOAD DUP2 SSTORE ADD SWAP6 ADD SWAP4 ADD PUSH2 0x470E JUMP JUMPDEST PUSH2 0x478B SWAP1 DUP5 PUSH0 MSTORE PUSH1 0x20 PUSH0 KECCAK256 PUSH1 0x1F DUP6 ADD PUSH1 0x5 SHR DUP2 ADD SWAP2 PUSH1 0x20 DUP7 LT PUSH2 0x952 JUMPI PUSH1 0x1F ADD PUSH1 0x5 SHR ADD SWAP1 PUSH2 0x4E37 JUMP JUMPDEST DUP9 PUSH2 0x3C0E JUMP JUMPDEST SWAP1 PUSH1 0x1F NOT DUP4 AND SWAP2 DUP5 PUSH0 MSTORE DUP2 PUSH0 KECCAK256 SWAP3 PUSH0 JUMPDEST DUP2 DUP2 LT PUSH2 0x47DC JUMPI POP SWAP1 DUP5 PUSH1 0x1 SWAP6 SWAP5 SWAP4 SWAP3 LT PUSH2 0x47C4 JUMPI JUMPDEST POP POP POP DUP2 SHL ADD DUP2 SSTORE PUSH2 0x3BE1 JUMP JUMPDEST ADD MLOAD PUSH0 NOT PUSH1 0xF8 DUP5 PUSH1 0x3 SHL AND SHR NOT AND SWAP1 SSTORE DUP8 DUP1 DUP1 PUSH2 0x47B7 JUMP JUMPDEST SWAP3 SWAP4 PUSH1 0x20 PUSH1 0x1 DUP2 SWAP3 DUP8 DUP7 ADD MLOAD DUP2 SSTORE ADD SWAP6 ADD SWAP4 ADD PUSH2 0x47A1 JUMP JUMPDEST PUSH2 0x481E SWAP1 DUP5 PUSH0 MSTORE PUSH1 0x20 PUSH0 KECCAK256 PUSH1 0x1F DUP6 ADD PUSH1 0x5 SHR DUP2 ADD SWAP2 PUSH1 0x20 DUP7 LT PUSH2 0x952 JUMPI PUSH1 0x1F ADD PUSH1 0x5 SHR ADD SWAP1 PUSH2 0x4E37 JUMP JUMPDEST DUP8 PUSH2 0x3BAF JUMP JUMPDEST CALLVALUE PUSH2 0x282 JUMPI PUSH0 CALLDATASIZE PUSH1 0x3 NOT ADD SLT PUSH2 0x282 JUMPI PUSH32 0x0 PUSH1 0x1 PUSH1 0x1 PUSH1 0xA0 SHL SUB AND DUP2 MSTORE PUSH1 0x20 SWAP1 RETURN JUMPDEST PUSH2 0x200 DUP2 ADD SWAP1 DUP2 LT PUSH1 0x1 PUSH1 0x1 PUSH1 0x40 SHL SUB DUP3 GT OR PUSH2 0x95C JUMPI PUSH1 0x40 MSTORE JUMP JUMPDEST PUSH1 0xE0 DUP2 ADD SWAP1 DUP2 LT PUSH1 0x1 PUSH1 0x1 PUSH1 0x40 SHL SUB DUP3 GT OR PUSH2 0x95C JUMPI PUSH1 0x40 MSTORE JUMP JUMPDEST PUSH1 0xC0 DUP2 ADD SWAP1 DUP2 LT PUSH1 0x1 PUSH1 0x1 PUSH1 0x40 SHL SUB DUP3 GT OR PUSH2 0x95C JUMPI PUSH1 0x40 MSTORE JUMP JUMPDEST PUSH1 0xA0 DUP2 ADD SWAP1 DUP2 LT PUSH1 0x1 PUSH1 0x1 PUSH1 0x40 SHL SUB DUP3 GT OR PUSH2 0x95C JUMPI PUSH1 0x40 MSTORE JUMP JUMPDEST SWAP1 PUSH1 0x1F DUP1 NOT SWAP2 ADD AND DUP2 ADD SWAP1 DUP2 LT PUSH1 0x1 PUSH1 0x1 PUSH1 0x40 SHL SUB DUP3 GT OR PUSH2 0x95C JUMPI PUSH1 0x40 MSTORE JUMP JUMPDEST DUP2 PUSH1 0x1F DUP3 ADD SLT ISZERO PUSH2 0x282 JUMPI DUP1 CALLDATALOAD SWAP1 PUSH1 0x1 PUSH1 0x1 PUSH1 0x40 SHL SUB DUP3 GT PUSH2 0x95C JUMPI PUSH1 0x40 MLOAD SWAP3 PUSH2 0x4927 PUSH1 0x1F DUP5 ADD PUSH1 0x1F NOT AND PUSH1 0x20 ADD DUP6 PUSH2 0x48D2 JUMP JUMPDEST DUP3 DUP5 MSTORE PUSH1 0x20 DUP4 DUP4 ADD ADD GT PUSH2 0x282 JUMPI DUP2 PUSH0 SWAP3 PUSH1 0x20 DUP1 SWAP4 ADD DUP4 DUP7 ADD CALLDATACOPY DUP4 ADD ADD MSTORE SWAP1 JUMP JUMPDEST PUSH1 0x60 PUSH1 0x3 NOT DUP3 ADD SLT PUSH2 0x282 JUMPI PUSH1 0x4 CALLDATALOAD PUSH1 0x1 PUSH1 0x1 PUSH1 0x40 SHL SUB DUP2 GT PUSH2 0x282 JUMPI DUP2 PUSH2 0x4972 SWAP2 PUSH1 0x4 ADD PUSH2 0x48F3 JUMP JUMPDEST SWAP2 PUSH1 0x24 CALLDATALOAD PUSH1 0x1 PUSH1 0x1 PUSH1 0x40 SHL SUB DUP2 GT PUSH2 0x282 JUMPI PUSH1 0xE0 DUP2 DUP5 SUB PUSH1 0x3 NOT ADD SLT PUSH2 0x282 JUMPI PUSH1 0x40 MLOAD SWAP1 PUSH2 0x499F DUP3 PUSH2 0x4881 JUMP JUMPDEST DUP1 PUSH1 0x4 ADD CALLDATALOAD PUSH1 0x1 PUSH1 0x1 PUSH1 0x40 SHL SUB DUP2 GT PUSH2 0x282 JUMPI DUP5 PUSH1 0x4 PUSH2 0x49C1 SWAP3 DUP5 ADD ADD PUSH2 0x48F3 JUMP JUMPDEST DUP3 MSTORE PUSH1 0x24 DUP2 ADD CALLDATALOAD PUSH1 0x1 PUSH1 0x1 PUSH1 0x40 SHL SUB DUP2 GT PUSH2 0x282 JUMPI DUP5 PUSH1 0x4 PUSH2 0x49E5 SWAP3 DUP5 ADD ADD PUSH2 0x48F3 JUMP JUMPDEST PUSH1 0x20 DUP4 ADD MSTORE PUSH1 0x44 DUP2 ADD CALLDATALOAD PUSH1 0x1 PUSH1 0x1 PUSH1 0x40 SHL SUB DUP2 GT PUSH2 0x282 JUMPI DUP5 PUSH1 0x4 PUSH2 0x4A0C SWAP3 DUP5 ADD ADD PUSH2 0x48F3 JUMP JUMPDEST PUSH1 0x40 DUP4 ADD MSTORE PUSH1 0x64 DUP2 ADD CALLDATALOAD PUSH1 0x1 PUSH1 0x1 PUSH1 0x40 SHL SUB DUP2 GT PUSH2 0x282 JUMPI DUP5 PUSH1 0x4 PUSH2 0x4A33 SWAP3 DUP5 ADD ADD PUSH2 0x48F3 JUMP JUMPDEST PUSH1 0x60 DUP4 ADD MSTORE PUSH1 0x84 DUP2 ADD CALLDATALOAD PUSH1 0x1 PUSH1 0x1 PUSH1 0x40 SHL SUB DUP2 GT PUSH2 0x282 JUMPI DUP5 PUSH1 0x4 PUSH2 0x4A5A SWAP3 DUP5 ADD ADD PUSH2 0x48F3 JUMP JUMPDEST PUSH1 0x80 DUP4 ADD MSTORE PUSH1 0xA4 DUP2 ADD CALLDATALOAD PUSH1 0x1 PUSH1 0x1 PUSH1 0x40 SHL SUB DUP2 GT PUSH2 0x282 JUMPI DUP5 PUSH1 0x4 PUSH2 0x4A81 SWAP3 DUP5 ADD ADD PUSH2 0x48F3 JUMP JUMPDEST PUSH1 0xA0 DUP4 ADD MSTORE PUSH1 0xC4 DUP2 ADD CALLDATALOAD PUSH1 0x1 PUSH1 0x1 PUSH1 0x40 SHL SUB DUP2 GT PUSH2 0x282 JUMPI PUSH1 0x4 DUP6 SWAP2 PUSH2 0x4AA8 SWAP4 ADD ADD PUSH2 0x48F3 JUMP JUMPDEST PUSH1 0xC0 DUP3 ADD MSTORE SWAP2 PUSH1 0x44 CALLDATALOAD PUSH1 0x1 PUSH1 0x1 PUSH1 0x40 SHL SUB DUP2 GT PUSH2 0x282 JUMPI PUSH1 0xC0 DUP2 DUP4 SUB PUSH1 0x3 NOT ADD SLT PUSH2 0x282 JUMPI PUSH1 0x40 MLOAD SWAP2 PUSH2 0x4ADA DUP4 PUSH2 0x489C JUMP JUMPDEST DUP2 PUSH1 0x4 ADD CALLDATALOAD PUSH1 0x1 PUSH1 0x1 PUSH1 0x40 SHL SUB DUP2 GT PUSH2 0x282 JUMPI DUP2 PUSH1 0x4 PUSH2 0x4AFC SWAP3 DUP6 ADD ADD PUSH2 0x48F3 JUMP JUMPDEST DUP4 MSTORE PUSH1 0x24 DUP3 ADD CALLDATALOAD PUSH1 0x1 PUSH1 0x1 PUSH1 0x40 SHL SUB DUP2 GT PUSH2 0x282 JUMPI DUP2 PUSH1 0x4 PUSH2 0x4B20 SWAP3 DUP6 ADD ADD PUSH2 0x48F3 JUMP JUMPDEST PUSH1 0x20 DUP5 ADD MSTORE PUSH1 0x44 DUP3 ADD CALLDATALOAD PUSH1 0x1 PUSH1 0x1 PUSH1 0x40 SHL SUB DUP2 GT PUSH2 0x282 JUMPI DUP2 PUSH1 0x4 PUSH2 0x4B47 SWAP3 DUP6 ADD ADD PUSH2 0x48F3 JUMP JUMPDEST PUSH1 0x40 DUP5 ADD MSTORE PUSH1 0x64 DUP3 ADD CALLDATALOAD PUSH1 0x1 PUSH1 0x1 PUSH1 0x40 SHL SUB DUP2 GT PUSH2 0x282 JUMPI DUP2 PUSH1 0x4 PUSH2 0x4B6E SWAP3 DUP6 ADD ADD PUSH2 0x48F3 JUMP JUMPDEST PUSH1 0x60 DUP5 ADD MSTORE PUSH1 0x84 DUP3 ADD CALLDATALOAD PUSH1 0x1 PUSH1 0x1 PUSH1 0x40 SHL SUB DUP2 GT PUSH2 0x282 JUMPI DUP2 PUSH1 0x4 PUSH2 0x4B95 SWAP3 DUP6 ADD ADD PUSH2 0x48F3 JUMP JUMPDEST PUSH1 0x80 DUP5 ADD MSTORE PUSH1 0xA4 DUP3 ADD CALLDATALOAD SWAP2 PUSH1 0x1 PUSH1 0x1 PUSH1 0x40 SHL SUB DUP4 GT PUSH2 0x282 JUMPI PUSH2 0x4BBB SWAP3 ADD PUSH1 0x4 ADD PUSH2 0x48F3 JUMP JUMPDEST PUSH1 0xA0 DUP3 ADD MSTORE SWAP1 JUMP JUMPDEST SWAP1 PUSH1 0x1 DUP3 DUP2 SHR SWAP3 AND DUP1 ISZERO PUSH2 0x4BF1 JUMPI JUMPDEST PUSH1 0x20 DUP4 LT EQ PUSH2 0x4BDD JUMPI JUMP JUMPDEST PUSH4 0x4E487B71 PUSH1 0xE0 SHL PUSH0 MSTORE PUSH1 0x22 PUSH1 0x4 MSTORE PUSH1 0x24 PUSH0 REVERT JUMPDEST SWAP2 PUSH1 0x7F AND SWAP2 PUSH2 0x4BD2 JUMP JUMPDEST SWAP1 PUSH1 0x40 MLOAD SWAP2 DUP3 PUSH0 DUP3 SLOAD SWAP3 PUSH2 0x4C0E DUP5 PUSH2 0x4BC3 JUMP JUMPDEST DUP1 DUP5 MSTORE SWAP4 PUSH1 0x1 DUP2 AND SWAP1 DUP2 ISZERO PUSH2 0x4C79 JUMPI POP PUSH1 0x1 EQ PUSH2 0x4C35 JUMPI JUMPDEST POP PUSH2 0x4C33 SWAP3 POP SUB DUP4 PUSH2 0x48D2 JUMP JUMPDEST JUMP JUMPDEST SWAP1 POP PUSH0 SWAP3 SWAP2 SWAP3 MSTORE PUSH1 0x20 PUSH0 KECCAK256 SWAP1 PUSH0 SWAP2 JUMPDEST DUP2 DUP4 LT PUSH2 0x4C5D JUMPI POP POP SWAP1 PUSH1 0x20 PUSH2 0x4C33 SWAP3 DUP3 ADD ADD PUSH0 PUSH2 0x4C26 JUMP JUMPDEST PUSH1 0x20 SWAP2 SWAP4 POP DUP1 PUSH1 0x1 SWAP2 SLOAD DUP4 DUP6 DUP10 ADD ADD MSTORE ADD SWAP2 ADD SWAP1 SWAP2 DUP5 SWAP3 PUSH2 0x4C44 JUMP JUMPDEST SWAP1 POP PUSH1 0x20 SWAP3 POP PUSH2 0x4C33 SWAP5 SWAP2 POP PUSH1 0xFF NOT AND DUP3 DUP5 ADD MSTORE ISZERO ISZERO PUSH1 0x5 SHL DUP3 ADD ADD PUSH0 PUSH2 0x4C26 JUMP JUMPDEST DUP1 MLOAD DUP1 DUP4 MSTORE PUSH1 0x20 SWAP3 SWAP2 DUP2 SWAP1 DUP5 ADD DUP5 DUP5 ADD MCOPY PUSH0 DUP3 DUP3 ADD DUP5 ADD MSTORE PUSH1 0x1F ADD PUSH1 0x1F NOT AND ADD ADD SWAP1 JUMP JUMPDEST SWAP2 SWAP1 PUSH1 0xA0 DUP4 DUP3 SUB SLT PUSH2 0x282 JUMPI PUSH1 0x40 MLOAD SWAP1 PUSH2 0x4CD8 DUP3 PUSH2 0x48B7 JUMP JUMPDEST DUP2 SWAP4 DUP1 CALLDATALOAD PUSH1 0x1 PUSH1 0x1 PUSH1 0x40 SHL SUB DUP2 GT PUSH2 0x282 JUMPI DUP3 PUSH2 0x4CF6 SWAP2 DUP4 ADD PUSH2 0x48F3 JUMP JUMPDEST DUP4 MSTORE PUSH1 0x20 DUP2 ADD CALLDATALOAD PUSH1 0x1 PUSH1 0x1 PUSH1 0x40 SHL SUB DUP2 GT PUSH2 0x282 JUMPI DUP3 PUSH2 0x4D17 SWAP2 DUP4 ADD PUSH2 0x48F3 JUMP JUMPDEST PUSH1 0x20 DUP5 ADD MSTORE PUSH1 0x40 DUP2 ADD CALLDATALOAD PUSH1 0x1 PUSH1 0x1 PUSH1 0x40 SHL SUB DUP2 GT PUSH2 0x282 JUMPI DUP3 PUSH2 0x4D3B SWAP2 DUP4 ADD PUSH2 0x48F3 JUMP JUMPDEST PUSH1 0x40 DUP5 ADD MSTORE PUSH1 0x60 DUP2 ADD CALLDATALOAD PUSH1 0x1 PUSH1 0x1 PUSH1 0x40 SHL SUB DUP2 GT PUSH2 0x282 JUMPI DUP3 PUSH2 0x4D5F SWAP2 DUP4 ADD PUSH2 0x48F3 JUMP JUMPDEST PUSH1 0x60 DUP5 ADD MSTORE PUSH1 0x80 DUP2 ADD CALLDATALOAD SWAP2 PUSH1 0x1 PUSH1 0x1 PUSH1 0x40 SHL SUB DUP4 GT PUSH2 0x282 JUMPI PUSH1 0x80 SWAP3 PUSH2 0x4D85 SWAP3 ADD PUSH2 0x48F3 JUMP JUMPDEST SWAP2 ADD MSTORE JUMP JUMPDEST SWAP1 PUSH1 0xA DUP3 LT ISZERO PUSH2 0x1F93 JUMPI MSTORE JUMP JUMPDEST SWAP1 PUSH1 0x40 PUSH1 0x3 NOT DUP4 ADD SLT PUSH2 0x282 JUMPI PUSH1 0x4 CALLDATALOAD PUSH1 0x1 PUSH1 0x1 PUSH1 0x40 SHL SUB DUP2 GT PUSH2 0x282 JUMPI DUP3 PUSH2 0x4DC2 SWAP2 PUSH1 0x4 ADD PUSH2 0x48F3 JUMP JUMPDEST SWAP2 PUSH1 0x24 CALLDATALOAD SWAP1 PUSH1 0x1 PUSH1 0x1 PUSH1 0x40 SHL SUB DUP3 GT PUSH2 0x282 JUMPI PUSH2 0x4DE1 SWAP2 PUSH1 0x4 ADD PUSH2 0x48F3 JUMP JUMPDEST SWAP1 JUMP JUMPDEST SWAP1 DUP2 PUSH1 0x20 SWAP2 SUB SLT PUSH2 0x282 JUMPI MLOAD DUP1 ISZERO ISZERO DUP2 SUB PUSH2 0x282 JUMPI SWAP1 JUMP JUMPDEST ISZERO PUSH2 0x4E03 JUMPI JUMP JUMPDEST PUSH1 0x40 MLOAD PUSH3 0x461BCD PUSH1 0xE5 SHL DUP2 MSTORE PUSH1 0x20 PUSH1 0x4 DUP3 ADD MSTORE PUSH1 0xC PUSH1 0x24 DUP3 ADD MSTORE PUSH12 0x4F6E6C7920466163746F7279 PUSH1 0xA0 SHL PUSH1 0x44 DUP3 ADD MSTORE PUSH1 0x64 SWAP1 REVERT JUMPDEST DUP2 DUP2 LT PUSH2 0x4E42 JUMPI POP POP JUMP JUMPDEST PUSH0 DUP2 SSTORE PUSH1 0x1 ADD PUSH2 0x4E37 JUMP JUMPDEST PUSH2 0x4E57 DUP2 SLOAD PUSH2 0x4BC3 JUMP JUMPDEST SWAP1 DUP2 PUSH2 0x4E61 JUMPI POP POP JUMP JUMPDEST DUP2 PUSH1 0x1F PUSH0 SWAP4 GT PUSH1 0x1 EQ PUSH2 0x4E72 JUMPI POP SSTORE JUMP JUMPDEST DUP2 DUP4 MSTORE PUSH1 0x20 DUP4 KECCAK256 PUSH2 0x4E8E SWAP2 PUSH1 0x1F ADD PUSH1 0x5 SHR DUP2 ADD SWAP1 PUSH1 0x1 ADD PUSH2 0x4E37 JUMP JUMPDEST DUP1 DUP3 MSTORE DUP2 PUSH1 0x20 DUP2 KECCAK256 SWAP2 SSTORE SSTORE JUMP JUMPDEST SWAP1 SWAP4 SWAP3 SWAP2 SWAP4 PUSH1 0x60 DUP3 MSTORE PUSH0 SWAP1 DUP1 SLOAD SWAP1 PUSH2 0x4EB2 DUP3 PUSH2 0x4BC3 JUMP JUMPDEST SWAP2 DUP3 PUSH1 0x60 DUP7 ADD MSTORE PUSH1 0x1 DUP2 AND SWAP1 DUP2 PUSH0 EQ PUSH2 0x4F26 JUMPI POP PUSH1 0x1 EQ PUSH2 0x4EE6 JUMPI JUMPDEST POP POP PUSH1 0x1 PUSH1 0x1 PUSH1 0xA0 SHL SUB SWAP1 SWAP5 AND PUSH1 0x20 DUP3 ADD MSTORE PUSH1 0x40 ADD MSTORE JUMP JUMPDEST PUSH0 SWAP1 DUP2 MSTORE PUSH1 0x20 DUP2 KECCAK256 SWAP4 SWAP3 POP SWAP1 JUMPDEST DUP1 DUP3 LT PUSH2 0x4F0B JUMPI POP SWAP1 SWAP2 POP DUP2 ADD PUSH1 0x80 ADD PUSH1 0x40 PUSH0 PUSH2 0x4ECE JUMP JUMPDEST SWAP2 SWAP3 PUSH1 0x1 DUP2 PUSH1 0x20 SWAP3 SLOAD PUSH1 0x80 DUP6 DUP9 ADD ADD MSTORE ADD SWAP2 ADD SWAP1 SWAP3 SWAP2 PUSH2 0x4EF3 JUMP JUMPDEST SWAP1 POP PUSH1 0x40 SWAP5 SWAP4 POP PUSH1 0x80 SWAP3 SWAP2 POP PUSH1 0xFF NOT AND DUP3 DUP5 ADD MSTORE ISZERO ISZERO PUSH1 0x5 SHL DUP3 ADD ADD SWAP1 SWAP2 PUSH0 PUSH2 0x4ECE JUMP JUMPDEST ISZERO PUSH2 0x4F51 JUMPI JUMP JUMPDEST PUSH1 0x40 MLOAD PUSH3 0x461BCD PUSH1 0xE5 SHL DUP2 MSTORE PUSH1 0x20 PUSH1 0x4 DUP3 ADD MSTORE PUSH1 0x9 PUSH1 0x24 DUP3 ADD MSTORE PUSH9 0x4F6E6C792042504F4D PUSH1 0xB8 SHL PUSH1 0x44 DUP3 ADD MSTORE PUSH1 0x64 SWAP1 REVERT JUMPDEST SWAP5 SWAP4 SWAP3 SWAP2 PUSH1 0x60 SWAP3 PUSH2 0x4F9E PUSH2 0x4FBB SWAP4 PUSH1 0x80 DUP10 MSTORE PUSH1 0x80 DUP10 ADD SWAP1 PUSH2 0x4C9B JUMP JUMPDEST PUSH1 0x1 PUSH1 0x1 PUSH1 0xA0 SHL SUB SWAP1 SWAP3 AND PUSH1 0x20 DUP9 ADD MSTORE DUP7 DUP3 SUB PUSH1 0x40 DUP9 ADD MSTORE PUSH2 0x4C9B JUMP JUMPDEST SWAP4 ADD MSTORE JUMP INVALID LOG2 PUSH5 0x6970667358 0x22 SLT KECCAK256 SAR SUB 0xC0 0xAE 0xE1 0x23 BALANCE STOP ISZERO 0xA5 JUMPI 0xAE 0xAD PUSH7 0x6CCCB906C00D93 0xC4 0xE0 0x28 0xEF 0xAA 0x25 0x26 PUSH31 0x7E281B64736F6C634300081B00330000000000000000000000000000000000 "},"methodIdentifiers":{"approveExtendRequestNie(string,string)":"b0d1ec2b","approveNie(string,string,string,string)":"396a6b44","createObatNie(string,string)":"ac007c1a","dokuObatById(string)":"2594d597","dokuPendukungById(string)":"59914db4","dokuRegisUlangById(string)":"c5af4b6b","extendRenewRequestNie(string,(string,string,string,string,string))":"cdcc4cba","extendRequestNie(string,uint256,(string,string,string,string,string))":"2b275434","getNieDetail(string)":"43d1b839","getNieNumberAndStatus(string)":"74a5abcf","getRejectMsgNie(string)":"bdedf0b8","nieDetailById(string)":"f71ce722","rejectExtendRequestNie(string,string)":"805f848b","rejectMsgById(string)":"bf3f80ac","rejectMsgExtendById(string)":"26c6d4c5","rejectNie(string,string,string)":"283ef6f0","renewRequestNie(string,(string,string,string,string,string,string,string),(string,string,string,string,string,string))":"108cbe61","requestNie(string,(string,string,string,string,string,string,string),(string,string,string,string,string,string))":"e509070a","roleManager()":"00435da5"}}}}}