{"contracts/RoleManager.sol":{"RoleManager":{"abi":[{"anonymous":false,"inputs":[{"indexed":false,"internalType":"address","name":"userAddr","type":"address"},{"indexed":false,"internalType":"string","name":"name","type":"string"},{"indexed":false,"internalType":"string","name":"instanceName","type":"string"},{"indexed":false,"internalType":"enum EnumsLibrary.Roles","name":"role","type":"uint8"},{"indexed":false,"internalType":"string","name":"locationInstance","type":"string"},{"indexed":false,"internalType":"string","name":"nib","type":"string"},{"indexed":false,"internalType":"string","name":"npwp","type":"string"}],"name":"UserRegistered","type":"event"},{"inputs":[{"internalType":"address","name":"userAddr","type":"address"}],"name":"checkRegistration","outputs":[{"internalType":"bool","name":"","type":"bool"}],"stateMutability":"view","type":"function"},{"inputs":[{"internalType":"address","name":"userAddr","type":"address"}],"name":"getUserData","outputs":[{"components":[{"internalType":"string","name":"name","type":"string"},{"internalType":"string","name":"instanceName","type":"string"},{"internalType":"address","name":"userAddr","type":"address"},{"internalType":"enum EnumsLibrary.Roles","name":"role","type":"uint8"},{"internalType":"string","name":"locationInstance","type":"string"},{"internalType":"string","name":"factoryType","type":"string"},{"internalType":"string","name":"nib","type":"string"},{"internalType":"string","name":"npwp","type":"string"}],"internalType":"struct RoleManager.UserData","name":"","type":"tuple"}],"stateMutability":"view","type":"function"},{"inputs":[{"internalType":"address","name":"userAddr","type":"address"},{"internalType":"enum EnumsLibrary.Roles","name":"role","type":"uint8"}],"name":"hasRole","outputs":[{"internalType":"bool","name":"","type":"bool"}],"stateMutability":"view","type":"function"},{"inputs":[],"name":"loginUser","outputs":[{"components":[{"internalType":"string","name":"name","type":"string"},{"internalType":"string","name":"instanceName","type":"string"},{"internalType":"address","name":"userAddr","type":"address"},{"internalType":"enum EnumsLibrary.Roles","name":"role","type":"uint8"},{"internalType":"string","name":"locationInstance","type":"string"},{"internalType":"string","name":"factoryType","type":"string"},{"internalType":"string","name":"nib","type":"string"},{"internalType":"string","name":"npwp","type":"string"}],"internalType":"struct RoleManager.UserData","name":"","type":"tuple"}],"stateMutability":"view","type":"function"},{"inputs":[{"internalType":"string","name":"userName","type":"string"},{"internalType":"string","name":"userInstance","type":"string"},{"internalType":"uint8","name":"role","type":"uint8"},{"internalType":"string","name":"locationInstance","type":"string"},{"internalType":"string","name":"factoryType","type":"string"},{"internalType":"string","name":"nibNumber","type":"string"},{"internalType":"string","name":"npwpNumber","type":"string"}],"name":"registerUser","outputs":[],"stateMutability":"nonpayable","type":"function"}],"evm":{"bytecode":{"linkReferences":{},"object":"60808060405234601557610f05908161001a8239f35b5f80fdfe60806040526004361015610011575f80fd5b5f3560e01c806336c444ee146102e357806395a8c58d14610251578063a19ed686146101be578063e2a41283146101815763ffc9896b14610050575f80fd5b3461017d57602036600319011261017d57610069610ca5565b610071610df3565b506001600160a01b03165f8181526001602052604090205460ff1615610141575f525f60205261013d60405f2061012c6006604051926100b084610c13565b6100b981610e2f565b84526100c760018201610e2f565b602085015260028101546001600160a01b03811660408601526100f39060a01c60ff1660608601610daf565b6100ff60038201610e2f565b608085015261011060048201610e2f565b60a085015261012160058201610e2f565b60c085015201610e2f565b60e082015260405191829182610cec565b0390f35b60405162461bcd60e51b81526020600482015260146024820152732ab9b2b9103132b63ab6903a32b93230b33a30b960611b6044820152606490fd5b5f80fd5b3461017d57602036600319011261017d576001600160a01b036101a2610ca5565b165f526001602052602060ff60405f2054166040519015158152f35b3461017d575f36600319011261017d576101d6610df3565b50335f52600160205260ff60405f2054161561020c57335f525f60205261013d60405f2061012c6006604051926100b084610c13565b60405162461bcd60e51b815260206004820152601a60248201527f4e616d612064616e20616c616d617420557365722073616c61680000000000006044820152606490fd5b3461017d57604036600319011261017d5761026a610ca5565b60243590600482101561017d576001600160a01b03165f8181526001602052604090205460ff1690816102a5575b6020826040519015158152f35b90505f525f60205260ff600260405f20015460a01c169060048210156102cf576020911482610298565b634e487b7160e01b5f52602160045260245ffd5b3461017d5760e036600319011261017d576004356001600160401b03811161017d57610313903690600401610c50565b6024356001600160401b03811161017d57610332903690600401610c50565b9060443560ff811680910361017d576064356001600160401b03811161017d57610360903690600401610c50565b6084356001600160401b03811161017d5761037f903690600401610c50565b9360a4356001600160401b03811161017d5761039f903690600401610c50565b9360c4356001600160401b03811161017d576103bf903690600401610c50565b95335f52600160205260ff60405f205416610bd65760048510156102cf576040516103e981610c13565b82815260208101918483526040820190338252606083019161040b8984610daf565b608084019088825260a0850192835260c08501938b855260e08601968d8852335f525f60205260405f2096518051906001600160401b0382116108135781906104548a54610dbb565b601f8111610b86575b50602090601f8311600114610b23575f92610b18575b50508160011b915f199060031b1c19161787555b51805160018801916001600160401b0382116108135781906104a98454610dbb565b601f8111610ac8575b50602090601f8311600114610a65575f92610a5a575b50508160011b915f199060031b1c19161790555b905160028601805492519092916001600160a01b03169060048110156102cf576001600160a81b03199092161760a09190911b60ff60a01b1617905551805160038501916001600160401b03821161081357819061053a8454610dbb565b601f8111610a0a575b50602090601f83116001146109a7575f9261099c575b50508160011b915f199060031b1c19161790555b51805160048401916001600160401b03821161081357819061058f8454610dbb565b601f811161094c575b50602090601f83116001146108e9575f926108de575b50508160011b915f199060031b1c19161790555b51805160058301916001600160401b038211610813576105e28354610dbb565b601f8111610899575b50602090601f8311600114610832576006949392915f9183610827575b50508160011b915f199060031b1c19161790555b0190518051906001600160401b0382116108135761063a8354610dbb565b601f81116107ce575b50602090601f831160011461072d57956106f46106e97f5b736e521ab89222275c4be412aa3e2337e18af4f00903b6326ecbf7d2bd754f9b976106db61070f9860e09d98886107019960209f9961071d9f5f92610722575b50508160011b915f199060031b1c19161790555b335f5260018d5260405f20600160ff198254161790556040519d8e9d8e338152015260e08d0190610cbb565b908b820360408d0152610cbb565b9260608a0190610cdf565b8782036080890152610cbb565b9085820360a0870152610cbb565b9083820360c0850152610cbb565b0390a1005b015190505f8061069b565b90601f19831691845f52815f20925f5b8181106107b657507f5b736e521ab89222275c4be412aa3e2337e18af4f00903b6326ecbf7d2bd754f9b976106db61070f9860e09d9860018960209f9961071d9f996106f4996107019d6106e99a1061079e575b505050811b0190556106af565b01515f1960f88460031b161c191690555f8080610791565b9293602060018192878601518155019501930161073d565b835f5260205f20601f840160051c81019160208510610809575b601f0160051c01905b8181106107fe5750610643565b5f81556001016107f1565b90915081906107e8565b634e487b7160e01b5f52604160045260245ffd5b015190508c80610608565b90601f19831691845f52815f20925f5b818110610881575091600193918560069897969410610869575b505050811b01905561061c565b01515f1960f88460031b161c191690558c808061085c565b92936020600181928786015181550195019301610842565b835f5260205f20601f840160051c810191602085106108d4575b601f0160051c01905b8181106108c957506105eb565b5f81556001016108bc565b90915081906108b3565b015190508c806105ae565b5f8581528281209350601f198516905b818110610934575090846001959493921061091c575b505050811b0190556105c2565b01515f1960f88460031b161c191690558c808061090f565b929360206001819287860151815501950193016108f9565b909150835f5260205f20601f840160051c81019160208510610992575b90601f859493920160051c01905b8181106109845750610598565b5f8155849350600101610977565b9091508190610969565b015190508d80610559565b5f8581528281209350601f198516905b8181106109f257509084600195949392106109da575b505050811b01905561056d565b01515f1960f88460031b161c191690558d80806109cd565b929360206001819287860151815501950193016109b7565b909150835f5260205f20601f840160051c81019160208510610a50575b90601f859493920160051c01905b818110610a425750610543565b5f8155849350600101610a35565b9091508190610a27565b015190505f806104c8565b5f8581528281209350601f198516905b818110610ab05750908460019594939210610a98575b505050811b0190556104dc565b01515f1960f88460031b161c191690555f8080610a8b565b92936020600181928786015181550195019301610a75565b909150835f5260205f20601f840160051c81019160208510610b0e575b90601f859493920160051c01905b818110610b0057506104b2565b5f8155849350600101610af3565b9091508190610ae5565b015190505f80610473565b5f8b81528281209350601f198516905b818110610b6e5750908460019594939210610b56575b505050811b018755610487565b01515f1960f88460031b161c191690555f8080610b49565b92936020600181928786015181550195019301610b33565b909150895f5260205f20601f840160051c81019160208510610bcc575b90601f859493920160051c01905b818110610bbe575061045d565b5f8155849350600101610bb1565b9091508190610ba3565b60405162461bcd60e51b81526020600482015260156024820152742ab9b2b91039bab230b4103a32b93230b33a30b91760591b6044820152606490fd5b61010081019081106001600160401b0382111761081357604052565b90601f801991011681019081106001600160401b0382111761081357604052565b81601f8201121561017d578035906001600160401b0382116108135760405192610c84601f8401601f191660200185610c2f565b8284526020838301011161017d57815f926020809301838601378301015290565b600435906001600160a01b038216820361017d57565b805180835260209291819084018484015e5f828201840152601f01601f1916010190565b9060048210156102cf5752565b90610dac916020815260e0610d96610d81610d6b610d31610d1b87516101006020890152610120880190610cbb565b6020880151878203601f19016040890152610cbb565b60018060a01b036040880151166060870152610d5560608801516080880190610cdf565b6080870151868203601f190160a0880152610cbb565b60a0860151858203601f190160c0870152610cbb565b60c0850151848203601f190184860152610cbb565b92015190610100601f1982850301910152610cbb565b90565b60048210156102cf5752565b90600182811c92168015610de9575b6020831014610dd557565b634e487b7160e01b5f52602260045260245ffd5b91607f1691610dca565b60405190610e0082610c13565b606060e0838281528260208201525f60408201525f838201528260808201528260a08201528260c08201520152565b9060405191825f825492610e4284610dbb565b8084529360018116908115610ead5750600114610e69575b50610e6792500383610c2f565b565b90505f9291925260205f20905f915b818310610e91575050906020610e67928201015f610e5a565b6020919350806001915483858901015201910190918492610e78565b905060209250610e6794915060ff191682840152151560051b8201015f610e5a56fea26469706673582212207470fc1b0bd5ce12726beee0cc3fb72fc539d70dafea29e45cd5dfab5fe06bce64736f6c634300081b0033","opcodes":"PUSH1 0x80 DUP1 PUSH1 0x40 MSTORE CALLVALUE PUSH1 0x15 JUMPI PUSH2 0xF05 SWAP1 DUP2 PUSH2 0x1A DUP3 CODECOPY RETURN JUMPDEST PUSH0 DUP1 REVERT INVALID PUSH1 0x80 PUSH1 0x40 MSTORE PUSH1 0x4 CALLDATASIZE LT ISZERO PUSH2 0x11 JUMPI PUSH0 DUP1 REVERT JUMPDEST PUSH0 CALLDATALOAD PUSH1 0xE0 SHR DUP1 PUSH4 0x36C444EE EQ PUSH2 0x2E3 JUMPI DUP1 PUSH4 0x95A8C58D EQ PUSH2 0x251 JUMPI DUP1 PUSH4 0xA19ED686 EQ PUSH2 0x1BE JUMPI DUP1 PUSH4 0xE2A41283 EQ PUSH2 0x181 JUMPI PUSH4 0xFFC9896B EQ PUSH2 0x50 JUMPI PUSH0 DUP1 REVERT JUMPDEST CALLVALUE PUSH2 0x17D JUMPI PUSH1 0x20 CALLDATASIZE PUSH1 0x3 NOT ADD SLT PUSH2 0x17D JUMPI PUSH2 0x69 PUSH2 0xCA5 JUMP JUMPDEST PUSH2 0x71 PUSH2 0xDF3 JUMP JUMPDEST POP PUSH1 0x1 PUSH1 0x1 PUSH1 0xA0 SHL SUB AND PUSH0 DUP2 DUP2 MSTORE PUSH1 0x1 PUSH1 0x20 MSTORE PUSH1 0x40 SWAP1 KECCAK256 SLOAD PUSH1 0xFF AND ISZERO PUSH2 0x141 JUMPI PUSH0 MSTORE PUSH0 PUSH1 0x20 MSTORE PUSH2 0x13D PUSH1 0x40 PUSH0 KECCAK256 PUSH2 0x12C PUSH1 0x6 PUSH1 0x40 MLOAD SWAP3 PUSH2 0xB0 DUP5 PUSH2 0xC13 JUMP JUMPDEST PUSH2 0xB9 DUP2 PUSH2 0xE2F JUMP JUMPDEST DUP5 MSTORE PUSH2 0xC7 PUSH1 0x1 DUP3 ADD PUSH2 0xE2F JUMP JUMPDEST PUSH1 0x20 DUP6 ADD MSTORE PUSH1 0x2 DUP2 ADD SLOAD PUSH1 0x1 PUSH1 0x1 PUSH1 0xA0 SHL SUB DUP2 AND PUSH1 0x40 DUP7 ADD MSTORE PUSH2 0xF3 SWAP1 PUSH1 0xA0 SHR PUSH1 0xFF AND PUSH1 0x60 DUP7 ADD PUSH2 0xDAF JUMP JUMPDEST PUSH2 0xFF PUSH1 0x3 DUP3 ADD PUSH2 0xE2F JUMP JUMPDEST PUSH1 0x80 DUP6 ADD MSTORE PUSH2 0x110 PUSH1 0x4 DUP3 ADD PUSH2 0xE2F JUMP JUMPDEST PUSH1 0xA0 DUP6 ADD MSTORE PUSH2 0x121 PUSH1 0x5 DUP3 ADD PUSH2 0xE2F JUMP JUMPDEST PUSH1 0xC0 DUP6 ADD MSTORE ADD PUSH2 0xE2F JUMP JUMPDEST PUSH1 0xE0 DUP3 ADD MSTORE PUSH1 0x40 MLOAD SWAP2 DUP3 SWAP2 DUP3 PUSH2 0xCEC JUMP JUMPDEST SUB SWAP1 RETURN JUMPDEST PUSH1 0x40 MLOAD PUSH3 0x461BCD PUSH1 0xE5 SHL DUP2 MSTORE PUSH1 0x20 PUSH1 0x4 DUP3 ADD MSTORE PUSH1 0x14 PUSH1 0x24 DUP3 ADD MSTORE PUSH20 0x2AB9B2B9103132B63AB6903A32B93230B33A30B9 PUSH1 0x61 SHL PUSH1 0x44 DUP3 ADD MSTORE PUSH1 0x64 SWAP1 REVERT JUMPDEST PUSH0 DUP1 REVERT JUMPDEST CALLVALUE PUSH2 0x17D JUMPI PUSH1 0x20 CALLDATASIZE PUSH1 0x3 NOT ADD SLT PUSH2 0x17D JUMPI PUSH1 0x1 PUSH1 0x1 PUSH1 0xA0 SHL SUB PUSH2 0x1A2 PUSH2 0xCA5 JUMP JUMPDEST AND PUSH0 MSTORE PUSH1 0x1 PUSH1 0x20 MSTORE PUSH1 0x20 PUSH1 0xFF PUSH1 0x40 PUSH0 KECCAK256 SLOAD AND PUSH1 0x40 MLOAD SWAP1 ISZERO ISZERO DUP2 MSTORE RETURN JUMPDEST CALLVALUE PUSH2 0x17D JUMPI PUSH0 CALLDATASIZE PUSH1 0x3 NOT ADD SLT PUSH2 0x17D JUMPI PUSH2 0x1D6 PUSH2 0xDF3 JUMP JUMPDEST POP CALLER PUSH0 MSTORE PUSH1 0x1 PUSH1 0x20 MSTORE PUSH1 0xFF PUSH1 0x40 PUSH0 KECCAK256 SLOAD AND ISZERO PUSH2 0x20C JUMPI CALLER PUSH0 MSTORE PUSH0 PUSH1 0x20 MSTORE PUSH2 0x13D PUSH1 0x40 PUSH0 KECCAK256 PUSH2 0x12C PUSH1 0x6 PUSH1 0x40 MLOAD SWAP3 PUSH2 0xB0 DUP5 PUSH2 0xC13 JUMP JUMPDEST PUSH1 0x40 MLOAD PUSH3 0x461BCD PUSH1 0xE5 SHL DUP2 MSTORE PUSH1 0x20 PUSH1 0x4 DUP3 ADD MSTORE PUSH1 0x1A PUSH1 0x24 DUP3 ADD MSTORE PUSH32 0x4E616D612064616E20616C616D617420557365722073616C6168000000000000 PUSH1 0x44 DUP3 ADD MSTORE PUSH1 0x64 SWAP1 REVERT JUMPDEST CALLVALUE PUSH2 0x17D JUMPI PUSH1 0x40 CALLDATASIZE PUSH1 0x3 NOT ADD SLT PUSH2 0x17D JUMPI PUSH2 0x26A PUSH2 0xCA5 JUMP JUMPDEST PUSH1 0x24 CALLDATALOAD SWAP1 PUSH1 0x4 DUP3 LT ISZERO PUSH2 0x17D JUMPI PUSH1 0x1 PUSH1 0x1 PUSH1 0xA0 SHL SUB AND PUSH0 DUP2 DUP2 MSTORE PUSH1 0x1 PUSH1 0x20 MSTORE PUSH1 0x40 SWAP1 KECCAK256 SLOAD PUSH1 0xFF AND SWAP1 DUP2 PUSH2 0x2A5 JUMPI JUMPDEST PUSH1 0x20 DUP3 PUSH1 0x40 MLOAD SWAP1 ISZERO ISZERO DUP2 MSTORE RETURN JUMPDEST SWAP1 POP PUSH0 MSTORE PUSH0 PUSH1 0x20 MSTORE PUSH1 0xFF PUSH1 0x2 PUSH1 0x40 PUSH0 KECCAK256 ADD SLOAD PUSH1 0xA0 SHR AND SWAP1 PUSH1 0x4 DUP3 LT ISZERO PUSH2 0x2CF JUMPI PUSH1 0x20 SWAP2 EQ DUP3 PUSH2 0x298 JUMP JUMPDEST PUSH4 0x4E487B71 PUSH1 0xE0 SHL PUSH0 MSTORE PUSH1 0x21 PUSH1 0x4 MSTORE PUSH1 0x24 PUSH0 REVERT JUMPDEST CALLVALUE PUSH2 0x17D JUMPI PUSH1 0xE0 CALLDATASIZE PUSH1 0x3 NOT ADD SLT PUSH2 0x17D JUMPI PUSH1 0x4 CALLDATALOAD PUSH1 0x1 PUSH1 0x1 PUSH1 0x40 SHL SUB DUP2 GT PUSH2 0x17D JUMPI PUSH2 0x313 SWAP1 CALLDATASIZE SWAP1 PUSH1 0x4 ADD PUSH2 0xC50 JUMP JUMPDEST PUSH1 0x24 CALLDATALOAD PUSH1 0x1 PUSH1 0x1 PUSH1 0x40 SHL SUB DUP2 GT PUSH2 0x17D JUMPI PUSH2 0x332 SWAP1 CALLDATASIZE SWAP1 PUSH1 0x4 ADD PUSH2 0xC50 JUMP JUMPDEST SWAP1 PUSH1 0x44 CALLDATALOAD PUSH1 0xFF DUP2 AND DUP1 SWAP2 SUB PUSH2 0x17D JUMPI PUSH1 0x64 CALLDATALOAD PUSH1 0x1 PUSH1 0x1 PUSH1 0x40 SHL SUB DUP2 GT PUSH2 0x17D JUMPI PUSH2 0x360 SWAP1 CALLDATASIZE SWAP1 PUSH1 0x4 ADD PUSH2 0xC50 JUMP JUMPDEST PUSH1 0x84 CALLDATALOAD PUSH1 0x1 PUSH1 0x1 PUSH1 0x40 SHL SUB DUP2 GT PUSH2 0x17D JUMPI PUSH2 0x37F SWAP1 CALLDATASIZE SWAP1 PUSH1 0x4 ADD PUSH2 0xC50 JUMP JUMPDEST SWAP4 PUSH1 0xA4 CALLDATALOAD PUSH1 0x1 PUSH1 0x1 PUSH1 0x40 SHL SUB DUP2 GT PUSH2 0x17D JUMPI PUSH2 0x39F SWAP1 CALLDATASIZE SWAP1 PUSH1 0x4 ADD PUSH2 0xC50 JUMP JUMPDEST SWAP4 PUSH1 0xC4 CALLDATALOAD PUSH1 0x1 PUSH1 0x1 PUSH1 0x40 SHL SUB DUP2 GT PUSH2 0x17D JUMPI PUSH2 0x3BF SWAP1 CALLDATASIZE SWAP1 PUSH1 0x4 ADD PUSH2 0xC50 JUMP JUMPDEST SWAP6 CALLER PUSH0 MSTORE PUSH1 0x1 PUSH1 0x20 MSTORE PUSH1 0xFF PUSH1 0x40 PUSH0 KECCAK256 SLOAD AND PUSH2 0xBD6 JUMPI PUSH1 0x4 DUP6 LT ISZERO PUSH2 0x2CF JUMPI PUSH1 0x40 MLOAD PUSH2 0x3E9 DUP2 PUSH2 0xC13 JUMP JUMPDEST DUP3 DUP2 MSTORE PUSH1 0x20 DUP2 ADD SWAP2 DUP5 DUP4 MSTORE PUSH1 0x40 DUP3 ADD SWAP1 CALLER DUP3 MSTORE PUSH1 0x60 DUP4 ADD SWAP2 PUSH2 0x40B DUP10 DUP5 PUSH2 0xDAF JUMP JUMPDEST PUSH1 0x80 DUP5 ADD SWAP1 DUP9 DUP3 MSTORE PUSH1 0xA0 DUP6 ADD SWAP3 DUP4 MSTORE PUSH1 0xC0 DUP6 ADD SWAP4 DUP12 DUP6 MSTORE PUSH1 0xE0 DUP7 ADD SWAP7 DUP14 DUP9 MSTORE CALLER PUSH0 MSTORE PUSH0 PUSH1 0x20 MSTORE PUSH1 0x40 PUSH0 KECCAK256 SWAP7 MLOAD DUP1 MLOAD SWAP1 PUSH1 0x1 PUSH1 0x1 PUSH1 0x40 SHL SUB DUP3 GT PUSH2 0x813 JUMPI DUP2 SWAP1 PUSH2 0x454 DUP11 SLOAD PUSH2 0xDBB JUMP JUMPDEST PUSH1 0x1F DUP2 GT PUSH2 0xB86 JUMPI JUMPDEST POP PUSH1 0x20 SWAP1 PUSH1 0x1F DUP4 GT PUSH1 0x1 EQ PUSH2 0xB23 JUMPI PUSH0 SWAP3 PUSH2 0xB18 JUMPI JUMPDEST POP POP DUP2 PUSH1 0x1 SHL SWAP2 PUSH0 NOT SWAP1 PUSH1 0x3 SHL SHR NOT AND OR DUP8 SSTORE JUMPDEST MLOAD DUP1 MLOAD PUSH1 0x1 DUP9 ADD SWAP2 PUSH1 0x1 PUSH1 0x1 PUSH1 0x40 SHL SUB DUP3 GT PUSH2 0x813 JUMPI DUP2 SWAP1 PUSH2 0x4A9 DUP5 SLOAD PUSH2 0xDBB JUMP JUMPDEST PUSH1 0x1F DUP2 GT PUSH2 0xAC8 JUMPI JUMPDEST POP PUSH1 0x20 SWAP1 PUSH1 0x1F DUP4 GT PUSH1 0x1 EQ PUSH2 0xA65 JUMPI PUSH0 SWAP3 PUSH2 0xA5A JUMPI JUMPDEST POP POP DUP2 PUSH1 0x1 SHL SWAP2 PUSH0 NOT SWAP1 PUSH1 0x3 SHL SHR NOT AND OR SWAP1 SSTORE JUMPDEST SWAP1 MLOAD PUSH1 0x2 DUP7 ADD DUP1 SLOAD SWAP3 MLOAD SWAP1 SWAP3 SWAP2 PUSH1 0x1 PUSH1 0x1 PUSH1 0xA0 SHL SUB AND SWAP1 PUSH1 0x4 DUP2 LT ISZERO PUSH2 0x2CF JUMPI PUSH1 0x1 PUSH1 0x1 PUSH1 0xA8 SHL SUB NOT SWAP1 SWAP3 AND OR PUSH1 0xA0 SWAP2 SWAP1 SWAP2 SHL PUSH1 0xFF PUSH1 0xA0 SHL AND OR SWAP1 SSTORE MLOAD DUP1 MLOAD PUSH1 0x3 DUP6 ADD SWAP2 PUSH1 0x1 PUSH1 0x1 PUSH1 0x40 SHL SUB DUP3 GT PUSH2 0x813 JUMPI DUP2 SWAP1 PUSH2 0x53A DUP5 SLOAD PUSH2 0xDBB JUMP JUMPDEST PUSH1 0x1F DUP2 GT PUSH2 0xA0A JUMPI JUMPDEST POP PUSH1 0x20 SWAP1 PUSH1 0x1F DUP4 GT PUSH1 0x1 EQ PUSH2 0x9A7 JUMPI PUSH0 SWAP3 PUSH2 0x99C JUMPI JUMPDEST POP POP DUP2 PUSH1 0x1 SHL SWAP2 PUSH0 NOT SWAP1 PUSH1 0x3 SHL SHR NOT AND OR SWAP1 SSTORE JUMPDEST MLOAD DUP1 MLOAD PUSH1 0x4 DUP5 ADD SWAP2 PUSH1 0x1 PUSH1 0x1 PUSH1 0x40 SHL SUB DUP3 GT PUSH2 0x813 JUMPI DUP2 SWAP1 PUSH2 0x58F DUP5 SLOAD PUSH2 0xDBB JUMP JUMPDEST PUSH1 0x1F DUP2 GT PUSH2 0x94C JUMPI JUMPDEST POP PUSH1 0x20 SWAP1 PUSH1 0x1F DUP4 GT PUSH1 0x1 EQ PUSH2 0x8E9 JUMPI PUSH0 SWAP3 PUSH2 0x8DE JUMPI JUMPDEST POP POP DUP2 PUSH1 0x1 SHL SWAP2 PUSH0 NOT SWAP1 PUSH1 0x3 SHL SHR NOT AND OR SWAP1 SSTORE JUMPDEST MLOAD DUP1 MLOAD PUSH1 0x5 DUP4 ADD SWAP2 PUSH1 0x1 PUSH1 0x1 PUSH1 0x40 SHL SUB DUP3 GT PUSH2 0x813 JUMPI PUSH2 0x5E2 DUP4 SLOAD PUSH2 0xDBB JUMP JUMPDEST PUSH1 0x1F DUP2 GT PUSH2 0x899 JUMPI JUMPDEST POP PUSH1 0x20 SWAP1 PUSH1 0x1F DUP4 GT PUSH1 0x1 EQ PUSH2 0x832 JUMPI PUSH1 0x6 SWAP5 SWAP4 SWAP3 SWAP2 PUSH0 SWAP2 DUP4 PUSH2 0x827 JUMPI JUMPDEST POP POP DUP2 PUSH1 0x1 SHL SWAP2 PUSH0 NOT SWAP1 PUSH1 0x3 SHL SHR NOT AND OR SWAP1 SSTORE JUMPDEST ADD SWAP1 MLOAD DUP1 MLOAD SWAP1 PUSH1 0x1 PUSH1 0x1 PUSH1 0x40 SHL SUB DUP3 GT PUSH2 0x813 JUMPI PUSH2 0x63A DUP4 SLOAD PUSH2 0xDBB JUMP JUMPDEST PUSH1 0x1F DUP2 GT PUSH2 0x7CE JUMPI JUMPDEST POP PUSH1 0x20 SWAP1 PUSH1 0x1F DUP4 GT PUSH1 0x1 EQ PUSH2 0x72D JUMPI SWAP6 PUSH2 0x6F4 PUSH2 0x6E9 PUSH32 0x5B736E521AB89222275C4BE412AA3E2337E18AF4F00903B6326ECBF7D2BD754F SWAP12 SWAP8 PUSH2 0x6DB PUSH2 0x70F SWAP9 PUSH1 0xE0 SWAP14 SWAP9 DUP9 PUSH2 0x701 SWAP10 PUSH1 0x20 SWAP16 SWAP10 PUSH2 0x71D SWAP16 PUSH0 SWAP3 PUSH2 0x722 JUMPI JUMPDEST POP POP DUP2 PUSH1 0x1 SHL SWAP2 PUSH0 NOT SWAP1 PUSH1 0x3 SHL SHR NOT AND OR SWAP1 SSTORE JUMPDEST CALLER PUSH0 MSTORE PUSH1 0x1 DUP14 MSTORE PUSH1 0x40 PUSH0 KECCAK256 PUSH1 0x1 PUSH1 0xFF NOT DUP3 SLOAD AND OR SWAP1 SSTORE PUSH1 0x40 MLOAD SWAP14 DUP15 SWAP14 DUP15 CALLER DUP2 MSTORE ADD MSTORE PUSH1 0xE0 DUP14 ADD SWAP1 PUSH2 0xCBB JUMP JUMPDEST SWAP1 DUP12 DUP3 SUB PUSH1 0x40 DUP14 ADD MSTORE PUSH2 0xCBB JUMP JUMPDEST SWAP3 PUSH1 0x60 DUP11 ADD SWAP1 PUSH2 0xCDF JUMP JUMPDEST DUP8 DUP3 SUB PUSH1 0x80 DUP10 ADD MSTORE PUSH2 0xCBB JUMP JUMPDEST SWAP1 DUP6 DUP3 SUB PUSH1 0xA0 DUP8 ADD MSTORE PUSH2 0xCBB JUMP JUMPDEST SWAP1 DUP4 DUP3 SUB PUSH1 0xC0 DUP6 ADD MSTORE PUSH2 0xCBB JUMP JUMPDEST SUB SWAP1 LOG1 STOP JUMPDEST ADD MLOAD SWAP1 POP PUSH0 DUP1 PUSH2 0x69B JUMP JUMPDEST SWAP1 PUSH1 0x1F NOT DUP4 AND SWAP2 DUP5 PUSH0 MSTORE DUP2 PUSH0 KECCAK256 SWAP3 PUSH0 JUMPDEST DUP2 DUP2 LT PUSH2 0x7B6 JUMPI POP PUSH32 0x5B736E521AB89222275C4BE412AA3E2337E18AF4F00903B6326ECBF7D2BD754F SWAP12 SWAP8 PUSH2 0x6DB PUSH2 0x70F SWAP9 PUSH1 0xE0 SWAP14 SWAP9 PUSH1 0x1 DUP10 PUSH1 0x20 SWAP16 SWAP10 PUSH2 0x71D SWAP16 SWAP10 PUSH2 0x6F4 SWAP10 PUSH2 0x701 SWAP14 PUSH2 0x6E9 SWAP11 LT PUSH2 0x79E JUMPI JUMPDEST POP POP POP DUP2 SHL ADD SWAP1 SSTORE PUSH2 0x6AF JUMP JUMPDEST ADD MLOAD PUSH0 NOT PUSH1 0xF8 DUP5 PUSH1 0x3 SHL AND SHR NOT AND SWAP1 SSTORE PUSH0 DUP1 DUP1 PUSH2 0x791 JUMP JUMPDEST SWAP3 SWAP4 PUSH1 0x20 PUSH1 0x1 DUP2 SWAP3 DUP8 DUP7 ADD MLOAD DUP2 SSTORE ADD SWAP6 ADD SWAP4 ADD PUSH2 0x73D JUMP JUMPDEST DUP4 PUSH0 MSTORE PUSH1 0x20 PUSH0 KECCAK256 PUSH1 0x1F DUP5 ADD PUSH1 0x5 SHR DUP2 ADD SWAP2 PUSH1 0x20 DUP6 LT PUSH2 0x809 JUMPI JUMPDEST PUSH1 0x1F ADD PUSH1 0x5 SHR ADD SWAP1 JUMPDEST DUP2 DUP2 LT PUSH2 0x7FE JUMPI POP PUSH2 0x643 JUMP JUMPDEST PUSH0 DUP2 SSTORE PUSH1 0x1 ADD PUSH2 0x7F1 JUMP JUMPDEST SWAP1 SWAP2 POP DUP2 SWAP1 PUSH2 0x7E8 JUMP JUMPDEST PUSH4 0x4E487B71 PUSH1 0xE0 SHL PUSH0 MSTORE PUSH1 0x41 PUSH1 0x4 MSTORE PUSH1 0x24 PUSH0 REVERT JUMPDEST ADD MLOAD SWAP1 POP DUP13 DUP1 PUSH2 0x608 JUMP JUMPDEST SWAP1 PUSH1 0x1F NOT DUP4 AND SWAP2 DUP5 PUSH0 MSTORE DUP2 PUSH0 KECCAK256 SWAP3 PUSH0 JUMPDEST DUP2 DUP2 LT PUSH2 0x881 JUMPI POP SWAP2 PUSH1 0x1 SWAP4 SWAP2 DUP6 PUSH1 0x6 SWAP9 SWAP8 SWAP7 SWAP5 LT PUSH2 0x869 JUMPI JUMPDEST POP POP POP DUP2 SHL ADD SWAP1 SSTORE PUSH2 0x61C JUMP JUMPDEST ADD MLOAD PUSH0 NOT PUSH1 0xF8 DUP5 PUSH1 0x3 SHL AND SHR NOT AND SWAP1 SSTORE DUP13 DUP1 DUP1 PUSH2 0x85C JUMP JUMPDEST SWAP3 SWAP4 PUSH1 0x20 PUSH1 0x1 DUP2 SWAP3 DUP8 DUP7 ADD MLOAD DUP2 SSTORE ADD SWAP6 ADD SWAP4 ADD PUSH2 0x842 JUMP JUMPDEST DUP4 PUSH0 MSTORE PUSH1 0x20 PUSH0 KECCAK256 PUSH1 0x1F DUP5 ADD PUSH1 0x5 SHR DUP2 ADD SWAP2 PUSH1 0x20 DUP6 LT PUSH2 0x8D4 JUMPI JUMPDEST PUSH1 0x1F ADD PUSH1 0x5 SHR ADD SWAP1 JUMPDEST DUP2 DUP2 LT PUSH2 0x8C9 JUMPI POP PUSH2 0x5EB JUMP JUMPDEST PUSH0 DUP2 SSTORE PUSH1 0x1 ADD PUSH2 0x8BC JUMP JUMPDEST SWAP1 SWAP2 POP DUP2 SWAP1 PUSH2 0x8B3 JUMP JUMPDEST ADD MLOAD SWAP1 POP DUP13 DUP1 PUSH2 0x5AE JUMP JUMPDEST PUSH0 DUP6 DUP2 MSTORE DUP3 DUP2 KECCAK256 SWAP4 POP PUSH1 0x1F NOT DUP6 AND SWAP1 JUMPDEST DUP2 DUP2 LT PUSH2 0x934 JUMPI POP SWAP1 DUP5 PUSH1 0x1 SWAP6 SWAP5 SWAP4 SWAP3 LT PUSH2 0x91C JUMPI JUMPDEST POP POP POP DUP2 SHL ADD SWAP1 SSTORE PUSH2 0x5C2 JUMP JUMPDEST ADD MLOAD PUSH0 NOT PUSH1 0xF8 DUP5 PUSH1 0x3 SHL AND SHR NOT AND SWAP1 SSTORE DUP13 DUP1 DUP1 PUSH2 0x90F JUMP JUMPDEST SWAP3 SWAP4 PUSH1 0x20 PUSH1 0x1 DUP2 SWAP3 DUP8 DUP7 ADD MLOAD DUP2 SSTORE ADD SWAP6 ADD SWAP4 ADD PUSH2 0x8F9 JUMP JUMPDEST SWAP1 SWAP2 POP DUP4 PUSH0 MSTORE PUSH1 0x20 PUSH0 KECCAK256 PUSH1 0x1F DUP5 ADD PUSH1 0x5 SHR DUP2 ADD SWAP2 PUSH1 0x20 DUP6 LT PUSH2 0x992 JUMPI JUMPDEST SWAP1 PUSH1 0x1F DUP6 SWAP5 SWAP4 SWAP3 ADD PUSH1 0x5 SHR ADD SWAP1 JUMPDEST DUP2 DUP2 LT PUSH2 0x984 JUMPI POP PUSH2 0x598 JUMP JUMPDEST PUSH0 DUP2 SSTORE DUP5 SWAP4 POP PUSH1 0x1 ADD PUSH2 0x977 JUMP JUMPDEST SWAP1 SWAP2 POP DUP2 SWAP1 PUSH2 0x969 JUMP JUMPDEST ADD MLOAD SWAP1 POP DUP14 DUP1 PUSH2 0x559 JUMP JUMPDEST PUSH0 DUP6 DUP2 MSTORE DUP3 DUP2 KECCAK256 SWAP4 POP PUSH1 0x1F NOT DUP6 AND SWAP1 JUMPDEST DUP2 DUP2 LT PUSH2 0x9F2 JUMPI POP SWAP1 DUP5 PUSH1 0x1 SWAP6 SWAP5 SWAP4 SWAP3 LT PUSH2 0x9DA JUMPI JUMPDEST POP POP POP DUP2 SHL ADD SWAP1 SSTORE PUSH2 0x56D JUMP JUMPDEST ADD MLOAD PUSH0 NOT PUSH1 0xF8 DUP5 PUSH1 0x3 SHL AND SHR NOT AND SWAP1 SSTORE DUP14 DUP1 DUP1 PUSH2 0x9CD JUMP JUMPDEST SWAP3 SWAP4 PUSH1 0x20 PUSH1 0x1 DUP2 SWAP3 DUP8 DUP7 ADD MLOAD DUP2 SSTORE ADD SWAP6 ADD SWAP4 ADD PUSH2 0x9B7 JUMP JUMPDEST SWAP1 SWAP2 POP DUP4 PUSH0 MSTORE PUSH1 0x20 PUSH0 KECCAK256 PUSH1 0x1F DUP5 ADD PUSH1 0x5 SHR DUP2 ADD SWAP2 PUSH1 0x20 DUP6 LT PUSH2 0xA50 JUMPI JUMPDEST SWAP1 PUSH1 0x1F DUP6 SWAP5 SWAP4 SWAP3 ADD PUSH1 0x5 SHR ADD SWAP1 JUMPDEST DUP2 DUP2 LT PUSH2 0xA42 JUMPI POP PUSH2 0x543 JUMP JUMPDEST PUSH0 DUP2 SSTORE DUP5 SWAP4 POP PUSH1 0x1 ADD PUSH2 0xA35 JUMP JUMPDEST SWAP1 SWAP2 POP DUP2 SWAP1 PUSH2 0xA27 JUMP JUMPDEST ADD MLOAD SWAP1 POP PUSH0 DUP1 PUSH2 0x4C8 JUMP JUMPDEST PUSH0 DUP6 DUP2 MSTORE DUP3 DUP2 KECCAK256 SWAP4 POP PUSH1 0x1F NOT DUP6 AND SWAP1 JUMPDEST DUP2 DUP2 LT PUSH2 0xAB0 JUMPI POP SWAP1 DUP5 PUSH1 0x1 SWAP6 SWAP5 SWAP4 SWAP3 LT PUSH2 0xA98 JUMPI JUMPDEST POP POP POP DUP2 SHL ADD SWAP1 SSTORE PUSH2 0x4DC JUMP JUMPDEST ADD MLOAD PUSH0 NOT PUSH1 0xF8 DUP5 PUSH1 0x3 SHL AND SHR NOT AND SWAP1 SSTORE PUSH0 DUP1 DUP1 PUSH2 0xA8B JUMP JUMPDEST SWAP3 SWAP4 PUSH1 0x20 PUSH1 0x1 DUP2 SWAP3 DUP8 DUP7 ADD MLOAD DUP2 SSTORE ADD SWAP6 ADD SWAP4 ADD PUSH2 0xA75 JUMP JUMPDEST SWAP1 SWAP2 POP DUP4 PUSH0 MSTORE PUSH1 0x20 PUSH0 KECCAK256 PUSH1 0x1F DUP5 ADD PUSH1 0x5 SHR DUP2 ADD SWAP2 PUSH1 0x20 DUP6 LT PUSH2 0xB0E JUMPI JUMPDEST SWAP1 PUSH1 0x1F DUP6 SWAP5 SWAP4 SWAP3 ADD PUSH1 0x5 SHR ADD SWAP1 JUMPDEST DUP2 DUP2 LT PUSH2 0xB00 JUMPI POP PUSH2 0x4B2 JUMP JUMPDEST PUSH0 DUP2 SSTORE DUP5 SWAP4 POP PUSH1 0x1 ADD PUSH2 0xAF3 JUMP JUMPDEST SWAP1 SWAP2 POP DUP2 SWAP1 PUSH2 0xAE5 JUMP JUMPDEST ADD MLOAD SWAP1 POP PUSH0 DUP1 PUSH2 0x473 JUMP JUMPDEST PUSH0 DUP12 DUP2 MSTORE DUP3 DUP2 KECCAK256 SWAP4 POP PUSH1 0x1F NOT DUP6 AND SWAP1 JUMPDEST DUP2 DUP2 LT PUSH2 0xB6E JUMPI POP SWAP1 DUP5 PUSH1 0x1 SWAP6 SWAP5 SWAP4 SWAP3 LT PUSH2 0xB56 JUMPI JUMPDEST POP POP POP DUP2 SHL ADD DUP8 SSTORE PUSH2 0x487 JUMP JUMPDEST ADD MLOAD PUSH0 NOT PUSH1 0xF8 DUP5 PUSH1 0x3 SHL AND SHR NOT AND SWAP1 SSTORE PUSH0 DUP1 DUP1 PUSH2 0xB49 JUMP JUMPDEST SWAP3 SWAP4 PUSH1 0x20 PUSH1 0x1 DUP2 SWAP3 DUP8 DUP7 ADD MLOAD DUP2 SSTORE ADD SWAP6 ADD SWAP4 ADD PUSH2 0xB33 JUMP JUMPDEST SWAP1 SWAP2 POP DUP10 PUSH0 MSTORE PUSH1 0x20 PUSH0 KECCAK256 PUSH1 0x1F DUP5 ADD PUSH1 0x5 SHR DUP2 ADD SWAP2 PUSH1 0x20 DUP6 LT PUSH2 0xBCC JUMPI JUMPDEST SWAP1 PUSH1 0x1F DUP6 SWAP5 SWAP4 SWAP3 ADD PUSH1 0x5 SHR ADD SWAP1 JUMPDEST DUP2 DUP2 LT PUSH2 0xBBE JUMPI POP PUSH2 0x45D JUMP JUMPDEST PUSH0 DUP2 SSTORE DUP5 SWAP4 POP PUSH1 0x1 ADD PUSH2 0xBB1 JUMP JUMPDEST SWAP1 SWAP2 POP DUP2 SWAP1 PUSH2 0xBA3 JUMP JUMPDEST PUSH1 0x40 MLOAD PUSH3 0x461BCD PUSH1 0xE5 SHL DUP2 MSTORE PUSH1 0x20 PUSH1 0x4 DUP3 ADD MSTORE PUSH1 0x15 PUSH1 0x24 DUP3 ADD MSTORE PUSH21 0x2AB9B2B91039BAB230B4103A32B93230B33A30B917 PUSH1 0x59 SHL PUSH1 0x44 DUP3 ADD MSTORE PUSH1 0x64 SWAP1 REVERT JUMPDEST PUSH2 0x100 DUP2 ADD SWAP1 DUP2 LT PUSH1 0x1 PUSH1 0x1 PUSH1 0x40 SHL SUB DUP3 GT OR PUSH2 0x813 JUMPI PUSH1 0x40 MSTORE JUMP JUMPDEST SWAP1 PUSH1 0x1F DUP1 NOT SWAP2 ADD AND DUP2 ADD SWAP1 DUP2 LT PUSH1 0x1 PUSH1 0x1 PUSH1 0x40 SHL SUB DUP3 GT OR PUSH2 0x813 JUMPI PUSH1 0x40 MSTORE JUMP JUMPDEST DUP2 PUSH1 0x1F DUP3 ADD SLT ISZERO PUSH2 0x17D JUMPI DUP1 CALLDATALOAD SWAP1 PUSH1 0x1 PUSH1 0x1 PUSH1 0x40 SHL SUB DUP3 GT PUSH2 0x813 JUMPI PUSH1 0x40 MLOAD SWAP3 PUSH2 0xC84 PUSH1 0x1F DUP5 ADD PUSH1 0x1F NOT AND PUSH1 0x20 ADD DUP6 PUSH2 0xC2F JUMP JUMPDEST DUP3 DUP5 MSTORE PUSH1 0x20 DUP4 DUP4 ADD ADD GT PUSH2 0x17D JUMPI DUP2 PUSH0 SWAP3 PUSH1 0x20 DUP1 SWAP4 ADD DUP4 DUP7 ADD CALLDATACOPY DUP4 ADD ADD MSTORE SWAP1 JUMP JUMPDEST PUSH1 0x4 CALLDATALOAD SWAP1 PUSH1 0x1 PUSH1 0x1 PUSH1 0xA0 SHL SUB DUP3 AND DUP3 SUB PUSH2 0x17D JUMPI JUMP JUMPDEST DUP1 MLOAD DUP1 DUP4 MSTORE PUSH1 0x20 SWAP3 SWAP2 DUP2 SWAP1 DUP5 ADD DUP5 DUP5 ADD MCOPY PUSH0 DUP3 DUP3 ADD DUP5 ADD MSTORE PUSH1 0x1F ADD PUSH1 0x1F NOT AND ADD ADD SWAP1 JUMP JUMPDEST SWAP1 PUSH1 0x4 DUP3 LT ISZERO PUSH2 0x2CF JUMPI MSTORE JUMP JUMPDEST SWAP1 PUSH2 0xDAC SWAP2 PUSH1 0x20 DUP2 MSTORE PUSH1 0xE0 PUSH2 0xD96 PUSH2 0xD81 PUSH2 0xD6B PUSH2 0xD31 PUSH2 0xD1B DUP8 MLOAD PUSH2 0x100 PUSH1 0x20 DUP10 ADD MSTORE PUSH2 0x120 DUP9 ADD SWAP1 PUSH2 0xCBB JUMP JUMPDEST PUSH1 0x20 DUP9 ADD MLOAD DUP8 DUP3 SUB PUSH1 0x1F NOT ADD PUSH1 0x40 DUP10 ADD MSTORE PUSH2 0xCBB JUMP JUMPDEST PUSH1 0x1 DUP1 PUSH1 0xA0 SHL SUB PUSH1 0x40 DUP9 ADD MLOAD AND PUSH1 0x60 DUP8 ADD MSTORE PUSH2 0xD55 PUSH1 0x60 DUP9 ADD MLOAD PUSH1 0x80 DUP9 ADD SWAP1 PUSH2 0xCDF JUMP JUMPDEST PUSH1 0x80 DUP8 ADD MLOAD DUP7 DUP3 SUB PUSH1 0x1F NOT ADD PUSH1 0xA0 DUP9 ADD MSTORE PUSH2 0xCBB JUMP JUMPDEST PUSH1 0xA0 DUP7 ADD MLOAD DUP6 DUP3 SUB PUSH1 0x1F NOT ADD PUSH1 0xC0 DUP8 ADD MSTORE PUSH2 0xCBB JUMP JUMPDEST PUSH1 0xC0 DUP6 ADD MLOAD DUP5 DUP3 SUB PUSH1 0x1F NOT ADD DUP5 DUP7 ADD MSTORE PUSH2 0xCBB JUMP JUMPDEST SWAP3 ADD MLOAD SWAP1 PUSH2 0x100 PUSH1 0x1F NOT DUP3 DUP6 SUB ADD SWAP2 ADD MSTORE PUSH2 0xCBB JUMP JUMPDEST SWAP1 JUMP JUMPDEST PUSH1 0x4 DUP3 LT ISZERO PUSH2 0x2CF JUMPI MSTORE JUMP JUMPDEST SWAP1 PUSH1 0x1 DUP3 DUP2 SHR SWAP3 AND DUP1 ISZERO PUSH2 0xDE9 JUMPI JUMPDEST PUSH1 0x20 DUP4 LT EQ PUSH2 0xDD5 JUMPI JUMP JUMPDEST PUSH4 0x4E487B71 PUSH1 0xE0 SHL PUSH0 MSTORE PUSH1 0x22 PUSH1 0x4 MSTORE PUSH1 0x24 PUSH0 REVERT JUMPDEST SWAP2 PUSH1 0x7F AND SWAP2 PUSH2 0xDCA JUMP JUMPDEST PUSH1 0x40 MLOAD SWAP1 PUSH2 0xE00 DUP3 PUSH2 0xC13 JUMP JUMPDEST PUSH1 0x60 PUSH1 0xE0 DUP4 DUP3 DUP2 MSTORE DUP3 PUSH1 0x20 DUP3 ADD MSTORE PUSH0 PUSH1 0x40 DUP3 ADD MSTORE PUSH0 DUP4 DUP3 ADD MSTORE DUP3 PUSH1 0x80 DUP3 ADD MSTORE DUP3 PUSH1 0xA0 DUP3 ADD MSTORE DUP3 PUSH1 0xC0 DUP3 ADD MSTORE ADD MSTORE JUMP JUMPDEST SWAP1 PUSH1 0x40 MLOAD SWAP2 DUP3 PUSH0 DUP3 SLOAD SWAP3 PUSH2 0xE42 DUP5 PUSH2 0xDBB JUMP JUMPDEST DUP1 DUP5 MSTORE SWAP4 PUSH1 0x1 DUP2 AND SWAP1 DUP2 ISZERO PUSH2 0xEAD JUMPI POP PUSH1 0x1 EQ PUSH2 0xE69 JUMPI JUMPDEST POP PUSH2 0xE67 SWAP3 POP SUB DUP4 PUSH2 0xC2F JUMP JUMPDEST JUMP JUMPDEST SWAP1 POP PUSH0 SWAP3 SWAP2 SWAP3 MSTORE PUSH1 0x20 PUSH0 KECCAK256 SWAP1 PUSH0 SWAP2 JUMPDEST DUP2 DUP4 LT PUSH2 0xE91 JUMPI POP POP SWAP1 PUSH1 0x20 PUSH2 0xE67 SWAP3 DUP3 ADD ADD PUSH0 PUSH2 0xE5A JUMP JUMPDEST PUSH1 0x20 SWAP2 SWAP4 POP DUP1 PUSH1 0x1 SWAP2 SLOAD DUP4 DUP6 DUP10 ADD ADD MSTORE ADD SWAP2 ADD SWAP1 SWAP2 DUP5 SWAP3 PUSH2 0xE78 JUMP JUMPDEST SWAP1 POP PUSH1 0x20 SWAP3 POP PUSH2 0xE67 SWAP5 SWAP2 POP PUSH1 0xFF NOT AND DUP3 DUP5 ADD MSTORE ISZERO ISZERO PUSH1 0x5 SHL DUP3 ADD ADD PUSH0 PUSH2 0xE5A JUMP INVALID LOG2 PUSH5 0x6970667358 0x22 SLT KECCAK256 PUSH21 0x70FC1B0BD5CE12726BEEE0CC3FB72FC539D70DAFEA 0x29 0xE4 TLOAD 0xD5 0xDF 0xAB PUSH0 0xE0 PUSH12 0xCE64736F6C634300081B0033 "},"methodIdentifiers":{"checkRegistration(address)":"e2a41283","getUserData(address)":"ffc9896b","hasRole(address,uint8)":"95a8c58d","loginUser()":"a19ed686","registerUser(string,string,uint8,string,string,string,string)":"36c444ee"}}}}}