{"contracts/CdobCertificate.sol":{"CdobCertificate":{"abi":[{"inputs":[{"internalType":"uint256","name":"","type":"uint256"}],"name":"allCdobData","outputs":[{"internalType":"string","name":"certId","type":"string"},{"internalType":"string","name":"certNumber","type":"string"},{"internalType":"string","name":"instanceName","type":"string"},{"internalType":"uint8","name":"tipePermohonan","type":"uint8"},{"internalType":"enum EnumsLibrary.StatusCertificate","name":"status","type":"uint8"},{"internalType":"string","name":"certHash","type":"string"},{"internalType":"uint256","name":"expiredTimestamp","type":"uint256"}],"stateMutability":"view","type":"function"},{"inputs":[{"internalType":"string","name":"certNumber","type":"string"},{"internalType":"string","name":"certId","type":"string"},{"internalType":"string","name":"bpomName","type":"string"},{"internalType":"string","name":"bpomInstance","type":"string"},{"internalType":"address","name":"bpomAddr","type":"address"},{"internalType":"string","name":"ipfsCert","type":"string"}],"name":"approveCdob","outputs":[],"stateMutability":"nonpayable","type":"function"},{"inputs":[{"internalType":"string","name":"certId","type":"string"},{"internalType":"string","name":"ipfsCert","type":"string"}],"name":"approveExtendCdob","outputs":[],"stateMutability":"nonpayable","type":"function"},{"inputs":[{"internalType":"string","name":"","type":"string"}],"name":"cdobDataById","outputs":[{"internalType":"string","name":"cdobId","type":"string"},{"internalType":"string","name":"cdobNumber","type":"string"},{"internalType":"uint8","name":"tipePermohonan","type":"uint8"}],"stateMutability":"view","type":"function"},{"inputs":[{"internalType":"string","name":"","type":"string"}],"name":"certDetailById","outputs":[{"internalType":"enum EnumsLibrary.StatusCertificate","name":"status","type":"uint8"},{"internalType":"uint256","name":"timestampRequest","type":"uint256"},{"internalType":"uint256","name":"timestampApprove","type":"uint256"},{"internalType":"uint256","name":"timestampRejected","type":"uint256"},{"internalType":"uint256","name":"timestampRenewRequest","type":"uint256"},{"internalType":"uint256","name":"timestampExpired","type":"uint256"},{"internalType":"uint256","name":"timestampExtendRequest","type":"uint256"},{"internalType":"uint256","name":"timestampExtendApprove","type":"uint256"},{"internalType":"uint256","name":"timestampExtendReject","type":"uint256"},{"internalType":"uint256","name":"timestampExtendRenew","type":"uint256"},{"components":[{"internalType":"string","name":"userName","type":"string"},{"internalType":"string","name":"userInstance","type":"string"},{"internalType":"address","name":"userAddr","type":"address"}],"internalType":"struct BaseCertificate.UserCert","name":"sender","type":"tuple"},{"components":[{"internalType":"string","name":"userName","type":"string"},{"internalType":"string","name":"userInstance","type":"string"},{"internalType":"address","name":"userAddr","type":"address"}],"internalType":"struct BaseCertificate.UserCert","name":"bpom","type":"tuple"},{"internalType":"string","name":"ipfsCert","type":"string"}],"stateMutability":"view","type":"function"},{"inputs":[{"components":[{"internalType":"string","name":"userName","type":"string"},{"internalType":"string","name":"userInstance","type":"string"},{"internalType":"address","name":"userAddr","type":"address"}],"internalType":"struct BaseCertificate.UserCert","name":"senderData","type":"tuple"},{"components":[{"internalType":"string","name":"userName","type":"string"},{"internalType":"string","name":"userInstance","type":"string"},{"internalType":"address","name":"userAddr","type":"address"}],"internalType":"struct BaseCertificate.UserCert","name":"bpomData","type":"tuple"},{"internalType":"string","name":"certId","type":"string"}],"name":"createCertificateDetails","outputs":[],"stateMutability":"nonpayable","type":"function"},{"inputs":[{"internalType":"string","name":"userName","type":"string"},{"internalType":"string","name":"userInstance","type":"string"},{"internalType":"address","name":"userAddr","type":"address"}],"name":"createUserCertificate","outputs":[{"components":[{"internalType":"string","name":"userName","type":"string"},{"internalType":"string","name":"userInstance","type":"string"},{"internalType":"address","name":"userAddr","type":"address"}],"internalType":"struct BaseCertificate.UserCert","name":"","type":"tuple"}],"stateMutability":"pure","type":"function"},{"inputs":[{"internalType":"string","name":"","type":"string"}],"name":"dokuAdminById","outputs":[{"internalType":"string","name":"suratPermohonan","type":"string"},{"internalType":"string","name":"buktiPembayaranPajak","type":"string"}],"stateMutability":"view","type":"function"},{"inputs":[{"internalType":"string","name":"","type":"string"}],"name":"dokuReSertifikasiById","outputs":[{"internalType":"string","name":"suratPernyataanPimpinan","type":"string"},{"internalType":"string","name":"dokumenInspeksiDiri","type":"string"},{"internalType":"string","name":"dokumenPerbaikan","type":"string"}],"stateMutability":"view","type":"function"},{"inputs":[{"internalType":"string","name":"","type":"string"}],"name":"dokuTeknisById","outputs":[{"internalType":"string","name":"suratIzinCdob","type":"string"},{"internalType":"string","name":"denahBangunan","type":"string"},{"internalType":"string","name":"strukturOrganisasi","type":"string"},{"internalType":"string","name":"daftarPersonalia","type":"string"},{"internalType":"string","name":"daftarPeralatan","type":"string"},{"internalType":"string","name":"eksekutifQualityManagement","type":"string"},{"internalType":"string","name":"suratIzinApoteker","type":"string"},{"internalType":"string","name":"dokumenSelfAssesment","type":"string"}],"stateMutability":"view","type":"function"},{"inputs":[{"internalType":"string","name":"certId","type":"string"},{"internalType":"uint256","name":"expTimestamp","type":"uint256"},{"components":[{"internalType":"string","name":"suratPernyataanPimpinan","type":"string"},{"internalType":"string","name":"dokumenInspeksiDiri","type":"string"},{"internalType":"string","name":"dokumenPerbaikan","type":"string"}],"internalType":"struct CdobCertificate.DokumenReSertifikasi","name":"newDoku","type":"tuple"}],"name":"extendCdob","outputs":[],"stateMutability":"nonpayable","type":"function"},{"inputs":[],"name":"getAllCdob","outputs":[{"components":[{"internalType":"string","name":"certId","type":"string"},{"internalType":"string","name":"certNumber","type":"string"},{"internalType":"string","name":"instanceName","type":"string"},{"internalType":"uint8","name":"tipePermohonan","type":"uint8"},{"internalType":"enum EnumsLibrary.StatusCertificate","name":"status","type":"uint8"},{"internalType":"string","name":"certHash","type":"string"},{"internalType":"uint256","name":"expiredTimestamp","type":"uint256"}],"internalType":"struct CdobCertificate.CertificateList[]","name":"","type":"tuple[]"}],"stateMutability":"view","type":"function"},{"inputs":[{"internalType":"string","name":"instanceName","type":"string"}],"name":"getAllCdobByInstance","outputs":[{"components":[{"internalType":"string","name":"certId","type":"string"},{"internalType":"string","name":"certNumber","type":"string"},{"internalType":"string","name":"instanceName","type":"string"},{"internalType":"uint8","name":"tipePermohonan","type":"uint8"},{"internalType":"enum EnumsLibrary.StatusCertificate","name":"status","type":"uint8"},{"internalType":"string","name":"certHash","type":"string"},{"internalType":"uint256","name":"expiredTimestamp","type":"uint256"}],"internalType":"struct CdobCertificate.CertificateList[]","name":"","type":"tuple[]"}],"stateMutability":"view","type":"function"},{"inputs":[{"internalType":"string","name":"certId","type":"string"}],"name":"getCdobDetails","outputs":[{"components":[{"internalType":"string","name":"cdobId","type":"string"},{"internalType":"string","name":"cdobNumber","type":"string"},{"internalType":"uint8","name":"tipePermohonan","type":"uint8"}],"internalType":"struct CdobCertificate.CdobData","name":"","type":"tuple"},{"components":[{"internalType":"string","name":"suratPermohonan","type":"string"},{"internalType":"string","name":"buktiPembayaranPajak","type":"string"}],"internalType":"struct CdobCertificate.DokumenAdministrasi","name":"","type":"tuple"},{"components":[{"internalType":"string","name":"suratIzinCdob","type":"string"},{"internalType":"string","name":"denahBangunan","type":"string"},{"internalType":"string","name":"strukturOrganisasi","type":"string"},{"internalType":"string","name":"daftarPersonalia","type":"string"},{"internalType":"string","name":"daftarPeralatan","type":"string"},{"internalType":"string","name":"eksekutifQualityManagement","type":"string"},{"internalType":"string","name":"suratIzinApoteker","type":"string"},{"internalType":"string","name":"dokumenSelfAssesment","type":"string"}],"internalType":"struct CdobCertificate.DokumenTeknis","name":"","type":"tuple"},{"components":[{"internalType":"string","name":"suratPernyataanPimpinan","type":"string"},{"internalType":"string","name":"dokumenInspeksiDiri","type":"string"},{"internalType":"string","name":"dokumenPerbaikan","type":"string"}],"internalType":"struct CdobCertificate.DokumenReSertifikasi","name":"","type":"tuple"}],"stateMutability":"view","type":"function"},{"inputs":[{"internalType":"string","name":"certId","type":"string"}],"name":"getCertDetail","outputs":[{"components":[{"internalType":"enum EnumsLibrary.StatusCertificate","name":"status","type":"uint8"},{"internalType":"uint256","name":"timestampRequest","type":"uint256"},{"internalType":"uint256","name":"timestampApprove","type":"uint256"},{"internalType":"uint256","name":"timestampRejected","type":"uint256"},{"internalType":"uint256","name":"timestampRenewRequest","type":"uint256"},{"internalType":"uint256","name":"timestampExpired","type":"uint256"},{"internalType":"uint256","name":"timestampExtendRequest","type":"uint256"},{"internalType":"uint256","name":"timestampExtendApprove","type":"uint256"},{"internalType":"uint256","name":"timestampExtendReject","type":"uint256"},{"internalType":"uint256","name":"timestampExtendRenew","type":"uint256"},{"components":[{"internalType":"string","name":"userName","type":"string"},{"internalType":"string","name":"userInstance","type":"string"},{"internalType":"address","name":"userAddr","type":"address"}],"internalType":"struct BaseCertificate.UserCert","name":"sender","type":"tuple"},{"components":[{"internalType":"string","name":"userName","type":"string"},{"internalType":"string","name":"userInstance","type":"string"},{"internalType":"address","name":"userAddr","type":"address"}],"internalType":"struct BaseCertificate.UserCert","name":"bpom","type":"tuple"},{"internalType":"string","name":"ipfsCert","type":"string"}],"internalType":"struct BaseCertificate.CertificateDetails","name":"","type":"tuple"}],"stateMutability":"view","type":"function"},{"inputs":[{"internalType":"string","name":"certId","type":"string"}],"name":"getCertDetails","outputs":[{"components":[{"internalType":"enum EnumsLibrary.StatusCertificate","name":"status","type":"uint8"},{"internalType":"uint256","name":"timestampRequest","type":"uint256"},{"internalType":"uint256","name":"timestampApprove","type":"uint256"},{"internalType":"uint256","name":"timestampRejected","type":"uint256"},{"internalType":"uint256","name":"timestampRenewRequest","type":"uint256"},{"internalType":"uint256","name":"timestampExpired","type":"uint256"},{"internalType":"uint256","name":"timestampExtendRequest","type":"uint256"},{"internalType":"uint256","name":"timestampExtendApprove","type":"uint256"},{"internalType":"uint256","name":"timestampExtendReject","type":"uint256"},{"internalType":"uint256","name":"timestampExtendRenew","type":"uint256"},{"components":[{"internalType":"string","name":"userName","type":"string"},{"internalType":"string","name":"userInstance","type":"string"},{"internalType":"address","name":"userAddr","type":"address"}],"internalType":"struct BaseCertificate.UserCert","name":"sender","type":"tuple"},{"components":[{"internalType":"string","name":"userName","type":"string"},{"internalType":"string","name":"userInstance","type":"string"},{"internalType":"address","name":"userAddr","type":"address"}],"internalType":"struct BaseCertificate.UserCert","name":"bpom","type":"tuple"},{"internalType":"string","name":"ipfsCert","type":"string"}],"internalType":"struct BaseCertificate.CertificateDetails","name":"","type":"tuple"}],"stateMutability":"view","type":"function"},{"inputs":[{"internalType":"string","name":"certId","type":"string"}],"name":"getRejectMsg","outputs":[{"internalType":"string","name":"","type":"string"},{"internalType":"string","name":"","type":"string"}],"stateMutability":"view","type":"function"},{"inputs":[{"internalType":"string","name":"certId","type":"string"}],"name":"getRejectsMsg","outputs":[{"internalType":"string","name":"","type":"string"},{"internalType":"string","name":"","type":"string"}],"stateMutability":"view","type":"function"},{"inputs":[{"internalType":"string","name":"certId","type":"string"}],"name":"getSenderDetail","outputs":[{"components":[{"internalType":"string","name":"userName","type":"string"},{"internalType":"string","name":"userInstance","type":"string"},{"internalType":"address","name":"userAddr","type":"address"}],"internalType":"struct BaseCertificate.UserCert","name":"","type":"tuple"}],"stateMutability":"view","type":"function"},{"inputs":[{"internalType":"string","name":"certId","type":"string"},{"internalType":"string","name":"rejectMsg","type":"string"},{"internalType":"string","name":"bpomName","type":"string"},{"internalType":"string","name":"bpomInstance","type":"string"},{"internalType":"address","name":"bpomAddr","type":"address"}],"name":"rejectCdob","outputs":[],"stateMutability":"nonpayable","type":"function"},{"inputs":[{"internalType":"string","name":"certId","type":"string"},{"internalType":"string","name":"rejectExtendMsg","type":"string"}],"name":"rejectExtendCdob","outputs":[],"stateMutability":"nonpayable","type":"function"},{"inputs":[{"internalType":"string","name":"","type":"string"}],"name":"rejectMsgById","outputs":[{"internalType":"string","name":"","type":"string"}],"stateMutability":"view","type":"function"},{"inputs":[{"internalType":"string","name":"","type":"string"}],"name":"rejectMsgExtendById","outputs":[{"internalType":"string","name":"","type":"string"}],"stateMutability":"view","type":"function"},{"inputs":[{"internalType":"string","name":"certId","type":"string"},{"components":[{"internalType":"string","name":"suratPernyataanPimpinan","type":"string"},{"internalType":"string","name":"dokumenInspeksiDiri","type":"string"},{"internalType":"string","name":"dokumenPerbaikan","type":"string"}],"internalType":"struct CdobCertificate.DokumenReSertifikasi","name":"newDoku","type":"tuple"}],"name":"renewExtendCdob","outputs":[],"stateMutability":"nonpayable","type":"function"},{"inputs":[{"internalType":"string","name":"certId","type":"string"},{"components":[{"internalType":"string","name":"suratPermohonan","type":"string"},{"internalType":"string","name":"buktiPembayaranPajak","type":"string"}],"internalType":"struct CdobCertificate.DokumenAdministrasi","name":"newDokuAdmin","type":"tuple"},{"components":[{"internalType":"string","name":"suratIzinCdob","type":"string"},{"internalType":"string","name":"denahBangunan","type":"string"},{"internalType":"string","name":"strukturOrganisasi","type":"string"},{"internalType":"string","name":"daftarPersonalia","type":"string"},{"internalType":"string","name":"daftarPeralatan","type":"string"},{"internalType":"string","name":"eksekutifQualityManagement","type":"string"},{"internalType":"string","name":"suratIzinApoteker","type":"string"},{"internalType":"string","name":"dokumenSelfAssesment","type":"string"}],"internalType":"struct CdobCertificate.DokumenTeknis","name":"newDokuTeknis","type":"tuple"}],"name":"renewRequestCdob","outputs":[],"stateMutability":"nonpayable","type":"function"},{"inputs":[{"internalType":"string","name":"certId","type":"string"},{"internalType":"string","name":"pbfName","type":"string"},{"internalType":"string","name":"pbfInstance","type":"string"},{"internalType":"address","name":"pbfAddr","type":"address"},{"internalType":"uint8","name":"tipePermohonan","type":"uint8"},{"components":[{"internalType":"string","name":"suratPermohonan","type":"string"},{"internalType":"string","name":"buktiPembayaranPajak","type":"string"}],"internalType":"struct CdobCertificate.DokumenAdministrasi","name":"dokuAdmin","type":"tuple"},{"components":[{"internalType":"string","name":"suratIzinCdob","type":"string"},{"internalType":"string","name":"denahBangunan","type":"string"},{"internalType":"string","name":"strukturOrganisasi","type":"string"},{"internalType":"string","name":"daftarPersonalia","type":"string"},{"internalType":"string","name":"daftarPeralatan","type":"string"},{"internalType":"string","name":"eksekutifQualityManagement","type":"string"},{"internalType":"string","name":"suratIzinApoteker","type":"string"},{"internalType":"string","name":"dokumenSelfAssesment","type":"string"}],"internalType":"struct CdobCertificate.DokumenTeknis","name":"dokuTeknis","type":"tuple"}],"name":"requestCdob","outputs":[],"stateMutability":"nonpayable","type":"function"},{"inputs":[{"internalType":"string","name":"certId","type":"string"},{"internalType":"string","name":"ipfsCert","type":"string"},{"components":[{"internalType":"string","name":"userName","type":"string"},{"internalType":"string","name":"userInstance","type":"string"},{"internalType":"address","name":"userAddr","type":"address"}],"internalType":"struct BaseCertificate.UserCert","name":"bpomData","type":"tuple"}],"name":"updateBpomApproveDetails","outputs":[],"stateMutability":"nonpayable","type":"function"},{"inputs":[{"internalType":"string","name":"certId","type":"string"},{"internalType":"string","name":"ipfsCert","type":"string"}],"name":"updateBpomApproveExtendCertificateDetails","outputs":[],"stateMutability":"nonpayable","type":"function"},{"inputs":[{"internalType":"string","name":"certId","type":"string"},{"internalType":"string","name":"ipfsCert","type":"string"}],"name":"updateBpomExtendCertificateDetails","outputs":[],"stateMutability":"nonpayable","type":"function"},{"inputs":[{"internalType":"string","name":"certId","type":"string"},{"internalType":"string","name":"rejectMsg","type":"string"},{"components":[{"internalType":"string","name":"userName","type":"string"},{"internalType":"string","name":"userInstance","type":"string"},{"internalType":"address","name":"userAddr","type":"address"}],"internalType":"struct BaseCertificate.UserCert","name":"bpomData","type":"tuple"}],"name":"updateBpomRejectDetails","outputs":[],"stateMutability":"nonpayable","type":"function"},{"inputs":[{"internalType":"string","name":"certId","type":"string"},{"internalType":"string","name":"rejectMsg","type":"string"}],"name":"updateBpomRejectExtendCertificateDetails","outputs":[],"stateMutability":"nonpayable","type":"function"},{"inputs":[{"internalType":"string","name":"certId","type":"string"},{"internalType":"uint256","name":"expiredTimestamp","type":"uint256"}],"name":"updateExtendRenewDetails","outputs":[],"stateMutability":"nonpayable","type":"function"},{"inputs":[{"internalType":"string","name":"certId","type":"string"}],"name":"updateRenewDetails","outputs":[],"stateMutability":"nonpayable","type":"function"},{"inputs":[{"internalType":"string","name":"certId","type":"string"}],"name":"updateRenewExtendCertificateDetails","outputs":[],"stateMutability":"nonpayable","type":"function"}],"evm":{"bytecode":{"linkReferences":{},"object":"60808060405234601557615d48908161001a8239f35b5f80fdfe60806040526004361015610011575f80fd5b5f3560e01c806307b11c0b14613cc157806317e6830914613c6057806319859c8714613c285780631acf250014613aef578063252006af14613a4757806326c6d4c5146139f15780632b93f7f2146135435780632e9cf827146134bf57806334a34f301461339d5780633a947f1a1461336557806343762aa814613291578063500619d0146131555780635691acf7146130ae578063682053d914611d0c57806369046dd3146118d65780636d1aa7d51461169f5780636f12c2301461177357806372c17cb9146116d7578063761fb19a1461169f5780637ab096481461162f5780637e8f8da71461126c5780639740dbed146112305780639aaa5d8b146111f55780639c6b1f101461112d578063a722652714610514578063be2e2325146104c4578063bf3f80ac1461045a578063ceee106714610443578063d26196fd1461042c578063e9c260d714610415578063f14261d21461039d578063f5104ff114610386578063f53ef1261461020e5763fb5fb9a31461018f575f80fd5b3461020a57606036600319011261020a576004356001600160401b03811161020a576101bf9036906004016147d9565b6024356001600160401b03811161020a576101de9036906004016147d9565b90604435916001600160401b03831161020a576102026102089336906004016141a1565b916156a4565b005b5f80fd5b3461020a5760208061021f366142f1565b9290604051928184925191829101835e81015f8152030190204260028201556082420190814211610372576010916005820155600660ff198254161781550181516001600160401b03811161035e57610278825461433e565b601f8111610319575b50602092601f82116001146102bd57928192935f926102b2575b50505f19600383901b1c191660019190911b179055005b01519050838061029b565b601f19821693835f52805f20915f5b86811061030157508360019596106102e9575b505050811b019055005b01515f1960f88460031b161c191690558380806102df565b919260206001819286850151815501940192016102cc565b825f5260205f20601f830160051c81019160208410610354575b601f0160051c01905b8181106103495750610281565b5f815560010161033c565b9091508190610333565b634e487b7160e01b5f52604160045260245ffd5b634e487b7160e01b5f52601160045260245ffd5b3461020a5761020861039736614851565b91615336565b3461020a575f36600319011261020a576003546103b981614a48565b905f805b8282106103d657604051806103d28682614644565b0390f35b61040d6001916104076103f16103eb86614462565b50614ad9565b60ff831690610400828a614ac5565b5287614ac5565b50614a20565b9101906103bd565b3461020a5761020861042636614851565b91614f99565b3461020a5761020861043d366142f1565b90614e56565b3461020a57610208610454366142f1565b90614d0b565b3461020a57602036600319011261020a576004356001600160401b03811161020a576104b06020806104936103d29436906004016141a1565b604051928184925191829101835e81016001815203019020614376565b604051918291602083526020830190614279565b3461020a57602036600319011261020a576004356001600160401b03811161020a576105086104fa6103d29236906004016141a1565b610502614bcb565b50614c38565b60405191829182614714565b3461020a57606036600319011261020a576004356001600160401b03811161020a576105449036906004016141a1565b6024356001600160401b03811161020a57610563903690600401614492565b906044356001600160401b03811161020a576105839036906004016144ec565b61058c82614943565b6003549160208101905f5b8481106105a057005b6105a981614462565b506040516105cd816105bf6020820180956148b9565b03601f198101835282614180565b51902060405160208101906105fa6020828751808a875e81015f838201520301601f198101835282614180565b5190201461060b575b600101610597565b600361061682614462565b5001805461ff001916610300179055610640602061063383614462565b50604051928380926148b9565b600581520301902086518051906001600160401b03821161035e57610665835461433e565b601f81116110e8575b50602090601f83116001146110825760019392915f9183611077575b50505f19600383901b1c191690831b1781555b0160208701518051906001600160401b03821161035e5781906106c0845461433e565b601f8111611027575b50602090601f8311600114610fc4575f92610fb9575b50508160011b915f199060031b1c19161790555b610701602061063383614462565b600681520301902084518051906001600160401b03821161035e578190610728845461433e565b601f8111610f69575b50602090601f8311600114610f06575f92610efb575b50508160011b915f199060031b1c19161781555b6001810160208601518051906001600160401b03821161035e578190610781845461433e565b601f8111610eab575b50602090601f8311600114610e48575f92610e3d575b50508160011b915f199060031b1c19161790555b6002810160408601518051906001600160401b03821161035e5781906107da845461433e565b601f8111610ded575b50602090601f8311600114610d8a575f92610d7f575b50508160011b915f199060031b1c19161790555b6003810160608601518051906001600160401b03821161035e578190610833845461433e565b601f8111610d2f575b50602090601f8311600114610ccc575f92610cc1575b50508160011b915f199060031b1c19161790555b6004810160808601518051906001600160401b03821161035e57819061088c845461433e565b601f8111610c71575b50602090601f8311600114610c0e575f92610c03575b50508160011b915f199060031b1c19161790555b6005810160a08601518051906001600160401b03821161035e5781906108e5845461433e565b601f8111610bb3575b50602090601f8311600114610b50575f92610b45575b50508160011b915f199060031b1c19161790555b6006810160c08601518051906001600160401b03821161035e5761093c835461433e565b601f8111610b00575b50602090601f8311600114610a99576007949392915f9183610a8e575b50508160011b915f199060031b1c19161790555b0160e08501518051906001600160401b03821161035e57610997835461433e565b601f8111610a49575b50602090601f83116001146109e2576001949392915f91836109d7575b50505f19600383901b1c191690841b1790555b9050610603565b015190508a806109bd565b90601f19831691845f52815f20925f5b818110610a31575091600196959492918388959310610a19575b505050811b0190556109d0565b01515f1960f88460031b161c191690558a8080610a0c565b929360206001819287860151815501950193016109f2565b835f5260205f20601f840160051c81019160208510610a84575b601f0160051c01905b818110610a7957506109a0565b5f8155600101610a6c565b9091508190610a63565b015190508b80610962565b90601f19831691845f52815f20925f5b818110610ae8575091600193918560079897969410610ad0575b505050811b019055610976565b01515f1960f88460031b161c191690558b8080610ac3565b92936020600181928786015181550195019301610aa9565b835f5260205f20601f840160051c81019160208510610b3b575b601f0160051c01905b818110610b305750610945565b5f8155600101610b23565b9091508190610b1a565b015190508a80610904565b5f8581528281209350601f198516905b818110610b9b5750908460019594939210610b83575b505050811b019055610918565b01515f1960f88460031b161c191690558a8080610b76565b92936020600181928786015181550195019301610b60565b909150835f5260205f20601f840160051c81019160208510610bf9575b90601f859493920160051c01905b818110610beb57506108ee565b5f8155849350600101610bde565b9091508190610bd0565b015190508a806108ab565b5f8581528281209350601f198516905b818110610c595750908460019594939210610c41575b505050811b0190556108bf565b01515f1960f88460031b161c191690558a8080610c34565b92936020600181928786015181550195019301610c1e565b909150835f5260205f20601f840160051c81019160208510610cb7575b90601f859493920160051c01905b818110610ca95750610895565b5f8155849350600101610c9c565b9091508190610c8e565b015190508a80610852565b5f8581528281209350601f198516905b818110610d175750908460019594939210610cff575b505050811b019055610866565b01515f1960f88460031b161c191690558a8080610cf2565b92936020600181928786015181550195019301610cdc565b909150835f5260205f20601f840160051c81019160208510610d75575b90601f859493920160051c01905b818110610d67575061083c565b5f8155849350600101610d5a565b9091508190610d4c565b015190508a806107f9565b5f8581528281209350601f198516905b818110610dd55750908460019594939210610dbd575b505050811b01905561080d565b01515f1960f88460031b161c191690558a8080610db0565b92936020600181928786015181550195019301610d9a565b909150835f5260205f20601f840160051c81019160208510610e33575b90601f859493920160051c01905b818110610e2557506107e3565b5f8155849350600101610e18565b9091508190610e0a565b015190508a806107a0565b5f8581528281209350601f198516905b818110610e935750908460019594939210610e7b575b505050811b0190556107b4565b01515f1960f88460031b161c191690558a8080610e6e565b92936020600181928786015181550195019301610e58565b909150835f5260205f20601f840160051c81019160208510610ef1575b90601f859493920160051c01905b818110610ee3575061078a565b5f8155849350600101610ed6565b9091508190610ec8565b015190508980610747565b5f8581528281209350601f198516905b818110610f515750908460019594939210610f39575b505050811b01815561075b565b01515f1960f88460031b161c19169055898080610f2c565b92936020600181928786015181550195019301610f16565b909150835f5260205f20601f840160051c81019160208510610faf575b90601f859493920160051c01905b818110610fa15750610731565b5f8155849350600101610f94565b9091508190610f86565b0151905089806106df565b5f8581528281209350601f198516905b81811061100f5750908460019594939210610ff7575b505050811b0190556106f3565b01515f1960f88460031b161c19169055898080610fea565b92936020600181928786015181550195019301610fd4565b909150835f5260205f20601f840160051c8101916020851061106d575b90601f859493920160051c01905b81811061105f57506106c9565b5f8155849350600101611052565b9091508190611044565b015190508a8061068a565b90601f19831691845f52815f20925f5b8181106110d057509160019594929183879593106110b8575b505050811b01815561069d565b01515f1960f88460031b161c191690558a80806110ab565b92936020600181928786015181550195019301611092565b835f5260205f20601f840160051c81019160208510611123575b601f0160051c01905b818110611118575061066e565b5f815560010161110b565b9091508190611102565b3461020a5761114661113e366142f1565b819291614e56565b6003549060208101905f5b83811061115a57005b61116381614462565b50604051611179816105bf6020820180956148b9565b51902060405160208101906111a66020828751808a875e81015f838201520301601f198101835282614180565b519020146111b7575b600101611151565b60036111c282614462565b500161060061ff001982541617905560824201908142116103725760019160056111eb83614462565b50015590506111af565b3461020a57602036600319011261020a576004356001600160401b03811161020a5761050861122b6103d29236906004016141a1565b614c38565b3461020a57604036600319011261020a576004356001600160401b03811161020a576112636102089136906004016141a1565b60243590614b50565b3461020a57602036600319011261020a576004356001600160401b03811161020a5761129c9036906004016141a1565b6112a4614923565b506040516112b18161412d565b60608152602001606090526040516112c881614148565b60608152602081016060905260408101606090526060810160609052608081016060905260a081016060905260c081016060905260e0016060905260405161130f816140f7565b60608152602081016060905260400160609052604051908051918060208301938085835e810160048152036020019020906040518082518086835e810160058152036020019020926040518083518084835e81016006815203602001902091604051918291518091835e8101600781520360200190209060405192611393846140f7565b61139c81614376565b84526113aa60018201614376565b60208501526002015460ff169160408401928352604051946113cb8661412d565b6113d481614376565b86526001016113e290614376565b9160208601928352604051906113f782614148565b61140081614376565b825261140e60018201614376565b602083019081529061142260028201614376565b6040840190815261143560038301614376565b6060850190815261144860048401614376565b608086019081529061145c60058501614376565b60a087019081529261147060068601614376565b9460c0880195865260070161148490614376565b9560e088019687526040519a6114998c6140f7565b6114a28a614376565b8c526114b060018b01614376565b9960208d019a8b526002016114c490614376565b9a60408d019b8c526040519e8f9e8f90608082528051608083016060905260e083016114ef91614279565b906020015190607f198382030160a084015261150a91614279565b935160ff1660c0820152808403906020015251604083526040830161152e91614279565b905191808203906020015261154291614279565b978c808a039060400152516101008952610100890161156091614279565b90519088810360208a015261157491614279565b905190878103604089015261158891614279565b905190868103606088015261159c91614279565b90519085810360808701526115b091614279565b90519084810360a08601526115c491614279565b90519083810360c08501526115d891614279565b9051918082039060e001526115ec91614279565b92848403606086015251606084526060840161160791614279565b905190838103602085015261161b91614279565b90519180820390604001526103d291614279565b3461020a57602036600319011261020a576004356001600160401b03811161020a576020611662819236906004016141a1565b604051928184925191829101835e8101600581520301902061168f600161168883614376565b9201614376565b906103d26040519283928361461f565b3461020a57602036600319011261020a576004356001600160401b03811161020a576116d261168f9136906004016141a1565b6149db565b3461020a57602036600319011261020a576004356001600160401b03811161020a5760208061170d61175b9336906004016141a1565b604051928184925191829101835e8101600481520301902061172e81614376565b9061176960ff600261174260018501614376565b9301541691604051948594606086526060860190614279565b908482036020860152614279565b9060408301520390f35b3461020a57602036600319011261020a576004356001600160401b03811161020a576117a39036906004016141a1565b60035460208201915f805b838110611873575060ff6117c29116614a48565b925f915f5b8481106117dc57604051806103d28882614644565b60026105bf6118016117ed84614462565b5060405192839160208301958691016148b9565b519020604051602081019061182e6020828751808a875e81015f838201520301601f198101835282614180565b5190201461183f575b6001016117c7565b9261186b6001916104076118556103eb88614462565b60ff831690611864828c614ac5565b5289614ac5565b939050611837565b60026105bf6118846117ed84614462565b51902060405160208101906118b16020828851808c875e81015f838201520301601f198101835282614180565b519020146118c2575b6001016117ae565b906118ce600191614a20565b9190506118ba565b3461020a57604036600319011261020a576004356001600160401b03811161020a576119069036906004016141a1565b6024356001600160401b03811161020a576119259036906004016141f6565b61192e826149a1565b6003549160208101905f5b84811061194257005b61194b81614462565b50604051611961816105bf6020820180956148b9565b519020604051602081019061198e6020828751808a875e81015f838201520301601f198101835282614180565b5190201461199f575b600101611939565b60036119aa82614462565b5001805461ff0019166108001790556119c7602061063383614462565b600781520301902084518051906001600160401b03821161035e5781906119ee845461433e565b601f8111611cbc575b50602090601f8311600114611c59575f92611c4e575b50508160011b915f199060031b1c19161781555b6001810160208601518051906001600160401b03821161035e57611a45835461433e565b601f8111611c09575b50602090601f8311600114611ba2576002949392915f9183611b97575b50508160011b915f199060031b1c19161790555b0160408501518051906001600160401b03821161035e57611aa0835461433e565b601f8111611b52575b50602090601f8311600114611aeb576001949392915f9183611ae0575b50505f19600383901b1c191690841b1790555b9050611997565b015190508980611ac6565b90601f19831691845f52815f20925f5b818110611b3a575091600196959492918388959310611b22575b505050811b019055611ad9565b01515f1960f88460031b161c19169055898080611b15565b92936020600181928786015181550195019301611afb565b835f5260205f20601f840160051c81019160208510611b8d575b601f0160051c01905b818110611b825750611aa9565b5f8155600101611b75565b9091508190611b6c565b015190508a80611a6b565b90601f19831691845f52815f20925f5b818110611bf1575091600193918560029897969410611bd9575b505050811b019055611a7f565b01515f1960f88460031b161c191690558a8080611bcc565b92936020600181928786015181550195019301611bb2565b835f5260205f20601f840160051c81019160208510611c44575b601f0160051c01905b818110611c395750611a4e565b5f8155600101611c2c565b9091508190611c23565b015190508880611a0d565b5f8581528281209350601f198516905b818110611ca45750908460019594939210611c8c575b505050811b018155611a21565b01515f1960f88460031b161c19169055888080611c7f565b92936020600181928786015181550195019301611c69565b909150835f5260205f20601f840160051c81019160208510611d02575b90601f859493920160051c01905b818110611cf457506119f7565b5f8155849350600101611ce7565b9091508190611cd9565b3461020a5760e036600319011261020a576004356001600160401b03811161020a57611d3c9036906004016141a1565b6024356001600160401b03811161020a57611d5b9036906004016141a1565b6044356001600160401b03811161020a57611d7a9036906004016141a1565b916064356001600160a01b038116810361020a576084359360ff851680950361020a5760a4356001600160401b03811161020a57611dbc903690600401614492565b9160c435906001600160401b03821161020a5782611de1611de79336906004016144ec565b96614971565b94611e378460209760405190611dfd8a83614180565b5f8252604051611e0d8b82614180565b5f8152611e18614923565b5060405192611e26846140f7565b83528a8301525f60408301526156a4565b604051611e43816140f7565b848152604051611e538882614180565b5f815287820190815260408201908382526040518981895180838c01835e8101600481520301902092518051906001600160401b03821161035e578190611e9a865461433e565b601f8111613060575b508b90601f8311600114612ffb575f92612ff0575b50508160011b915f199060031b1c19161783555b51805160018401916001600160401b03821161035e57611eec835461433e565b601f8111612fad575b508a90601f8311600114612f4057928260ff95929386946002965f92612f35575b50508160011b915f199060031b1c19161790555b51169201911660ff1982541617905560405190611f4682614112565b84825260405192611f578885614180565b5f8452878301938452604083015260608201525f6080820152604051611f7d8782614180565b5f815260a08201525f60c08201526003546801000000000000000081101561035e57806001611faf9201600355614462565b929092612f225781518051906001600160401b03821161035e578190611fd5865461433e565b601f8111612ed4575b508990601f8311600114612e71575f92612e66575b50508160011b915f199060031b1c19161783555b518051906001600160401b03821161035e578190612028600186015461433e565b601f8111612e15575b508890601f8311600114612dab575f92612da0575b50508160011b915f199060031b1c19161760018301555b6002820160408201518051906001600160401b03821161035e578190612083845461433e565b601f8111612d52575b508990601f8311600114612cef575f92612ce4575b50508160011b915f199060031b1c19161790555b6003820160ff806060840151161660ff1982541617815560808201516009811015612cd05761ff0082549160081b169061ff0019161790556004820160a08201518051906001600160401b03821161035e57612111835461433e565b601f8111612c8d575b508890601f8311600114612c2457918060c09492600596945f92612c19575b50508160011b915f199060031b1c19161790555b01519101556040518481845180838701835e8101600581520301902081519081516001600160401b03811161035e578692612188835461433e565b601f8111612bc7575b508390601f8311600114612b615760019392915f9183612b56575b50505f19600383901b1c191690831b1781555b01910151918251916001600160401b03831161035e5785926121e1825461433e565b94601f8611612aff575b8495508490601f8311600114612a98575f919083612a8d575b50508160011b915f199060031b1c19161790555b604051928184925191829101835e810160068152030190209080519182516001600160401b03811161035e5761224e825461433e565b601f8111612a4a575b508493601f82116001146129ea5793819293945f926129df575b50508160011b915f199060031b1c19161781555b60018101838301518051906001600160401b03821161035e5781906122aa845461433e565b601f8111612991575b508690601f831160011461292e575f92612923575b50508160011b915f199060031b1c19161790555b6002810160408301518051906001600160401b03821161035e578190612302845461433e565b601f81116128d5575b508690601f8311600114612872575f92612867575b50508160011b915f199060031b1c19161790555b6003810160608301518051906001600160401b03821161035e57819061235a845461433e565b601f8111612819575b508690601f83116001146127b6575f926127ab575b50508160011b915f199060031b1c19161790555b6004810160808301518051906001600160401b03821161035e5781906123b2845461433e565b601f811161275d575b508690601f83116001146126fa575f926126ef575b50508160011b915f199060031b1c19161790555b6005810160a08301518051906001600160401b03821161035e57819061240a845461433e565b601f81116126a1575b508690601f831160011461263e575f92612633575b50508160011b915f199060031b1c19161790555b6006810160c08301518051906001600160401b03821161035e57612460835461433e565b601f81116125f0575b508590601f83116001146125875791806007949260e096945f9261257c575b50508160011b915f199060031b1c19161790555b01910151918251906001600160401b03821161035e576124bc835461433e565b601f8111612539575b5080601f83116001146124f357508192935f926102b25750505f19600383901b1c191660019190911b179055005b90601f19831694845f52825f20925f905b8782106125215750508360019596106102e957505050811b019055005b80600185968294968601518155019501930190612504565b835f52815f20601f840160051c810191838510612572575b601f0160051c01905b81811061256757506124c5565b5f815560010161255a565b9091508190612551565b015190508880612488565b90601f19831691845f52875f20925f5b898282106125da57505092600192859260e0989660079896106125c2575b505050811b01905561249c565b01515f1960f88460031b161c191690558880806125b5565b6001859682939686015181550195019301612597565b835f52865f20601f840160051c810191888510612629575b601f0160051c01905b81811061261e5750612469565b5f8155600101612611565b9091508190612608565b015190508680612428565b5f8581528881209350601f198516905b8982821061268b575050908460019594939210612673575b505050811b01905561243c565b01515f1960f88460031b161c19169055868080612666565b600185968293968601518155019501930161264e565b909150835f52865f20601f840160051c8101918885106126e5575b90601f859493920160051c01905b8181106126d75750612413565b5f81558493506001016126ca565b90915081906126bc565b0151905086806123d0565b5f8581528881209350601f198516905b8982821061274757505090846001959493921061272f575b505050811b0190556123e4565b01515f1960f88460031b161c19169055868080612722565b600185968293968601518155019501930161270a565b909150835f52865f20601f840160051c8101918885106127a1575b90601f859493920160051c01905b81811061279357506123bb565b5f8155849350600101612786565b9091508190612778565b015190508680612378565b5f8581528881209350601f198516905b898282106128035750509084600195949392106127eb575b505050811b01905561238c565b01515f1960f88460031b161c191690558680806127de565b60018596829396860151815501950193016127c6565b909150835f52865f20601f840160051c81019188851061285d575b90601f859493920160051c01905b81811061284f5750612363565b5f8155849350600101612842565b9091508190612834565b015190508680612320565b5f8581528881209350601f198516905b898282106128bf5750509084600195949392106128a7575b505050811b019055612334565b01515f1960f88460031b161c1916905586808061289a565b6001859682939686015181550195019301612882565b909150835f52865f20601f840160051c810191888510612919575b90601f859493920160051c01905b81811061290b575061230b565b5f81558493506001016128fe565b90915081906128f0565b0151905086806122c8565b5f8581528881209350601f198516905b8982821061297b575050908460019594939210612963575b505050811b0190556122dc565b01515f1960f88460031b161c19169055868080612956565b600185968293968601518155019501930161293e565b909150835f52865f20601f840160051c8101918885106129d5575b90601f859493920160051c01905b8181106129c757506122b3565b5f81558493506001016129ba565b90915081906129ac565b015190508580612271565b601f19821694835f52865f20915f5b88888210612a3457505083600195969710612a1c575b505050811b018155612285565b01515f1960f88460031b161c19169055858080612a0f565b60018495829395850151815501940192016129f9565b825f52855f20601f830160051c810191878410612a83575b601f0160051c01905b818110612a785750612257565b5f8155600101612a6b565b9091508190612a62565b015190508880612204565b601f95949392919519821695835f52855f20915f5b888110612ae757508360019596979810612acf575b505050811b019055612218565b01515f1960f88460031b161c19169055888080612ac2565b82820151845589976001909401939283019201612aad565b918094505f9591939552865f20601f840160051c810191888510612b4c575b90601f899694979593920160051c01905b818110612b3e575050846121eb565b5f8155889550600101612b2f565b9091508190612b1e565b0151905089806121ac565b90601f19831691845f52855f20925f5b87828210612bb1575050916001959492918387959310612b99575b505050811b0181556121bf565b01515f1960f88460031b161c19169055898080612b8c565b6001859682939686015181550195019301612b71565b9091928094505f52875f20601f840160051c810191898510612c0f575b90601f8a96959493920160051c01905b818110612c015750612191565b5f8155899550600101612bf4565b9091508190612be4565b015190508b80612139565b90601f19831691845f528a5f20925f5b8c828210612c775750509260019285926005989660c0989610612c5f575b505050811b01905561214d565b01515f1960f88460031b161c191690558b8080612c52565b6001859682939686015181550195019301612c34565b835f52895f20601f840160051c8101918b8510612cc6575b601f0160051c01905b818110612cbb575061211a565b5f8155600101612cae565b9091508190612ca5565b634e487b7160e01b5f52602160045260245ffd5b0151905089806120a1565b5f8581528b81209350601f198516905b8c828210612d3c575050908460019594939210612d24575b505050811b0190556120b5565b01515f1960f88460031b161c19169055898080612d17565b6001859682939686015181550195019301612cff565b909150835f52895f20601f840160051c8101918b8510612d96575b90601f859493920160051c01905b818110612d88575061208c565b5f8155849350600101612d7b565b9091508190612d6d565b015190508880612046565b600186015f9081528a81209350601f198516905b8b828210612dff575050908460019594939210612de7575b505050811b01600183015561205d565b01515f1960f88460031b161c19169055888080612dd7565b6001859682939686015181550195019301612dbf565b909150600185015f52885f20601f840160051c8101918a8510612e5c575b90601f859493920160051c01905b818110612e4e5750612031565b5f8155849350600101612e41565b9091508190612e33565b015190508980611ff3565b5f8781528b81209350601f198516905b8c828210612ebe575050908460019594939210612ea6575b505050811b018355612007565b01515f1960f88460031b161c19169055898080612e99565b6001859682939686015181550195019301612e81565b909150855f52895f20601f840160051c8101918b8510612f18575b90601f859493920160051c01905b818110612f0a5750611fde565b5f8155849350600101612efd565b9091508190612eef565b634e487b7160e01b5f525f60045260245ffd5b015190508e80611f16565b5f8481528c8120929190601f198516908e5b828210612f955750509360ff969360029693600193838a9810612f7d575b505050811b019055611f2a565b01515f1960f88460031b161c191690558e8080612f70565b80600186978294978701518155019601940190612f52565b835f528b5f20601f840160051c8101918d8510612fe6575b601f0160051c01905b818110612fdb5750611ef5565b5f8155600101612fce565b9091508190612fc5565b015190508b80611eb8565b5f8781528d81209350601f198516908e5b828210613048575050908460019594939210613030575b505050811b018355611ecc565b01515f1960f88460031b161c191690558b8080613023565b8060018697829497870151815501960194019061300c565b909150855f528b5f20601f840160051c8101918d85106130a4575b90601f859493920160051c01905b8181106130965750611ea3565b5f8155849350600101613089565b909150819061307b565b3461020a57602036600319011261020a576004356001600160401b03811161020a576020806130e46131399336906004016141a1565b604051928184925191829101835e810160078152030190206103d261310882614376565b91613147613124600261311d60018501614376565b9301614376565b91604051958695606087526060870190614279565b908582036020870152614279565b908382036040850152614279565b3461020a57602036600319011261020a576004356001600160401b03811161020a576131859036906004016141a1565b604051818192516020819201835e8101600681520360200190206131a881614376565b6131b460018301614376565b916131c160028201614376565b906131ce60038201614376565b6131da60048301614376565b6131e660058401614376565b916131f360068501614376565b9360070161320090614376565b946040519788976101008952610100890161321a91614279565b88810360208a015261322b91614279565b878103604089015261323c91614279565b868103606088015261324d91614279565b858103608087015261325e91614279565b84810360a086015261326f91614279565b83810360c085015261328091614279565b82810360e08401526103d291614279565b3461020a57602036600319011261020a5760043560035481101561020a576132bb61331891614462565b506132c581614376565b9061335b6132d560018301614376565b916132e260028201614376565b9061334e613334600383015493613326600561330060048701614376565b950154976040519a8b9a60e08c5260e08c0190614279565b908a820360208c0152614279565b9088820360408a0152614279565b9260ff8116606088015260ff608088019160081c16614455565b84820360a0860152614279565b9060c08301520390f35b3461020a57602036600319011261020a576004356001600160401b03811161020a576133986102089136906004016141a1565b6149a1565b3461020a57602036600319011261020a576004356001600160401b03811161020a576133cd9036906004016141a1565b604051818192516020819201835e81015f8152036020019020805460ff166001820154916002810154906003810154600482015460058301546006840154600785015490600886015492600987015494600a880161342a90614416565b96613437600d8a01614416565b9860100161344490614376565b996040519c6134548e809e614455565b60208d015260408c015260608b015260808a015260a089015260c088015260e087015261010086015261012085015261014084016101a090526101a0840161349b9161429d565b8381036101608501526134ad9161429d565b8281036101808401526103d291614279565b3461020a57606036600319011261020a576004356001600160401b03811161020a576134ef9036906004016141a1565b6024356001600160401b03811161020a5761350e9036906004016141a1565b906044356001600160a01b038116810361020a576103d29261352f92614971565b60405191829160208352602083019061429d565b3461020a5760c036600319011261020a576004356001600160401b03811161020a576135739036906004016141a1565b6024356001600160401b03811161020a576135929036906004016141a1565b6044356001600160401b03811161020a576135b19036906004016141a1565b6064356001600160401b03811161020a576135d09036906004016141a1565b6135d86142db565b60a435916001600160401b03831161020a576135fb6136019336906004016141a1565b93614971565b604051906001845192602081818801958087835e810160048152030190200185516001600160401b03811161035e5761363a825461433e565b601f81116139ac575b506020601f821160011461394557908061367a9493925f9161393a575b508160011b915f199060031b1c19161790555b8385615336565b600354925f5b84811061368957005b61369281614462565b506040516136a8816105bf6020820180956148b9565b51902060405160208101906136d56020828751808a875e81015f838201520301601f198101835282614180565b519020146136e6575b600101613680565b60016136f182614462565b500186516001600160401b03811161035e5761370d825461433e565b601f81116138f5575b50806020601f8211600114613892575f91613887575b508160011b915f199060031b1c19161790555b600361374a82614462565b5001805461ff001916610100179055600461376482614462565b500184516001600160401b03811161035e57613780825461433e565b601f8111613842575b50806020601f82116001146137e1575f916137d6575b508160011b915f199060031b1c19161790555b60824201908142116103725760019160056137cc83614462565b50015590506136de565b90508601518961379f565b5f8481528181209250601f198416905b81811061382a57509083600194939210613812575b5050811b0190556137b2565b8801515f1960f88460031b161c191690558980613806565b9192602060018192868d0151815501940192016137f1565b825f5260205f20601f830160051c8101916020841061387d575b601f0160051c01905b8181106138725750613789565b5f8155600101613865565b909150819061385c565b90508801518961372c565b5f8481528181209250601f198416905b8b8282106138dd57505090836001949392106138c5575b5050811b01905561373f565b8a01515f1960f88460031b161c1916905589806138b9565b600184956020939584930151815501940192016138a2565b825f5260205f20601f830160051c81019160208410613930575b601f0160051c01905b8181106139255750613716565b5f8155600101613918565b909150819061390f565b905088015189613660565b601f19821690835f52805f20915f5b8a82821061399457505091839161367a9695946001941061397c575b5050811b019055613673565b8a01515f1960f88460031b161c191690558980613970565b60018495602093958493015181550194019201613954565b825f5260205f20601f830160051c810191602084106139e7575b601f0160051c01905b8181106139dc5750613643565b5f81556001016139cf565b90915081906139c6565b3461020a57602036600319011261020a576004356001600160401b03811161020a576104b0602080613a2a6103d29436906004016141a1565b604051928184925191829101835e81016002815203019020614376565b3461020a57613a60613a58366142f1565b819291614d0b565b600354602082015f5b828110613a7257005b80613a7e600192614462565b50604051613a94816105bf6020820180956148b9565b5190206040516020810190613ac16020828a51808a875e81015f838201520301601f198101835282614180565b51902014613ad0575b01613a69565b6003613adb82614462565b5001805461ff001916610700179055613aca565b3461020a5760a036600319011261020a576004356001600160401b03811161020a57613b1f9036906004016141a1565b6024356001600160401b03811161020a57613b3e9036906004016141a1565b6044356001600160401b03811161020a57613b5d9036906004016141a1565b906064356001600160401b03811161020a57613b9992613b84613b929236906004016141a1565b613b8c6142db565b91614971565b9083614f99565b600354602082015f5b828110613bab57005b80613bb7600192614462565b50604051613bcd816105bf6020820180956148b9565b5190206040516020810190613bfa6020828a51808a875e81015f838201520301601f198101835282614180565b51902014613c09575b01613ba2565b6003613c1482614462565b5001805461ff001916610200179055613c03565b3461020a57602036600319011261020a576004356001600160401b03811161020a57613c5b6102089136906004016141a1565b614943565b3461020a57602036600319011261020a576004356001600160401b03811161020a5761352f600a602080613c9b6103d29536906004016141a1565b613ca3614923565b50604051928184925191829101835e81015f81520301902001614416565b3461020a57606036600319011261020a576004356001600160401b03811161020a57613cf19036906004016141a1565b6044356001600160401b03811161020a57613d109036906004016141f6565b90613d1d60243582614b50565b604051815190602081818501938085835e8101600781520301902083518051906001600160401b03821161035e578190613d57845461433e565b601f81116140a7575b50602090601f8311600114614044575f92614039575b50508160011b915f199060031b1c19161781555b6001810160208501518051906001600160401b03821161035e57613dae835461433e565b601f8111613ff4575b50602090601f8311600114613f8b57918060029492604096945f92613f80575b50508160011b915f199060031b1c19161790555b019301519283516001600160401b03811161035e57613e0a825461433e565b601f8111613f3b575b50602094601f8211600114613eda579481929394955f92613ecf575b50508160011b915f199060031b1c19161790555b600354905f5b828110613e5257005b80613e5e600192614462565b50604051613e74816105bf6020820180956148b9565b5190206040516020810190613ea16020828a51808a875e81015f838201520301601f198101835282614180565b51902014613eb0575b01613e49565b6003613ebb82614462565b5001805461ff001916610500179055613eaa565b015190508580613e2f565b601f19821695835f52805f20915f5b888110613f2357508360019596979810613f0b575b505050811b019055613e43565b01515f1960f88460031b161c19169055858080613efe565b91926020600181928685015181550194019201613ee9565b825f5260205f20601f830160051c81019160208410613f76575b601f0160051c01905b818110613f6b5750613e13565b5f8155600101613f5e565b9091508190613f55565b015190508980613dd7565b90601f19831691845f52815f20925f5b818110613fdc5750926001928592604098966002989610613fc4575b505050811b019055613deb565b01515f1960f88460031b161c19169055898080613fb7565b92936020600181928786015181550195019301613f9b565b835f5260205f20601f840160051c8101916020851061402f575b601f0160051c01905b8181106140245750613db7565b5f8155600101614017565b909150819061400e565b015190508680613d76565b5f8581528281209350601f198516905b81811061408f5750908460019594939210614077575b505050811b018155613d8a565b01515f1960f88460031b161c1916905586808061406a565b92936020600181928786015181550195019301614054565b909150835f5260205f20601f840160051c810191602085106140ed575b90601f859493920160051c01905b8181106140df5750613d60565b5f81558493506001016140d2565b90915081906140c4565b606081019081106001600160401b0382111761035e57604052565b60e081019081106001600160401b0382111761035e57604052565b604081019081106001600160401b0382111761035e57604052565b61010081019081106001600160401b0382111761035e57604052565b6101a081019081106001600160401b0382111761035e57604052565b90601f801991011681019081106001600160401b0382111761035e57604052565b81601f8201121561020a578035906001600160401b03821161035e57604051926141d5601f8401601f191660200185614180565b8284526020838301011161020a57815f926020809301838601378301015290565b919060608382031261020a576040519061420f826140f7565b819380356001600160401b03811161020a578261422d9183016141a1565b835260208101356001600160401b03811161020a578261424e9183016141a1565b60208401526040810135916001600160401b03831161020a5760409261427492016141a1565b910152565b805180835260209291819084018484015e5f828201840152601f01601f1916010190565b9060406142c86142b68451606085526060850190614279565b60208501518482036020860152614279565b928101516001600160a01b031691015290565b608435906001600160a01b038216820361020a57565b90604060031983011261020a576004356001600160401b03811161020a578261431c916004016141a1565b91602435906001600160401b03821161020a5761433b916004016141a1565b90565b90600182811c9216801561436c575b602083101461435857565b634e487b7160e01b5f52602260045260245ffd5b91607f169161434d565b9060405191825f8254926143898461433e565b80845293600181169081156143f457506001146143b0575b506143ae92500383614180565b565b90505f9291925260205f20905f915b8183106143d85750509060206143ae928201015f6143a1565b60209193508060019154838589010152019101909184926143bf565b9050602092506143ae94915060ff191682840152151560051b8201015f6143a1565b90604051614423816140f7565b6040819361443081614376565b835261443e60018201614376565b6020840152600201546001600160a01b0316910152565b906009821015612cd05752565b60035481101561447e5760035f52600660205f20910201905f90565b634e487b7160e01b5f52603260045260245ffd5b919060408382031261020a57604051906144ab8261412d565b819380356001600160401b03811161020a57826144c99183016141a1565b83526020810135916001600160401b03831161020a5760209261427492016141a1565b91906101008382031261020a576040519061450682614148565b819380356001600160401b03811161020a57826145249183016141a1565b835260208101356001600160401b03811161020a57826145459183016141a1565b602084015260408101356001600160401b03811161020a57826145699183016141a1565b604084015260608101356001600160401b03811161020a578261458d9183016141a1565b606084015260808101356001600160401b03811161020a57826145b19183016141a1565b608084015260a08101356001600160401b03811161020a57826145d59183016141a1565b60a084015260c08101356001600160401b03811161020a57826145f99183016141a1565b60c084015260e0810135916001600160401b03831161020a5760e09261427492016141a1565b909161463661433b93604084526040840190614279565b916020818403910152614279565b602081016020825282518091526040820191602060408360051b8301019401925f915b83831061467657505050505090565b9091929394602080600192603f1985820301865288519060c0806146ff6146ce6146bc6146ac875160e0885260e0880190614279565b888801518782038a890152614279565b60408701518682036040880152614279565b60ff60608701511660608601526146ed60808701516080870190614455565b60a086015185820360a0870152614279565b93015191015297019301930191939290614667565b9061433b916020815261472b602082018351614455565b602082015160408201526040820151606082015260608201516080820152608082015160a082015260a082015160c082015260c082015160e082015260e08201516101008201526101008201516101208201526101208201516101408201526101806147c36147ad6101408501516101a06101608601526101c085019061429d565b610160850151848203601f19018486015261429d565b920151906101a0601f1982850301910152614279565b919060608382031261020a57604051906147f2826140f7565b819380356001600160401b03811161020a57826148109183016141a1565b835260208101356001600160401b03811161020a576040926148339183016141a1565b60208401520135906001600160a01b038216820361020a5760400152565b606060031982011261020a576004356001600160401b03811161020a578161487b916004016141a1565b916024356001600160401b03811161020a578261489a916004016141a1565b91604435906001600160401b03821161020a5761433b916004016147d9565b5f92918154916148c88361433e565b926001811690811561491057506001146148e157505050565b90919293505f5260205f205f905b8382106148fc5750500190565b6001816020925484860152019101906148ef565b60ff191683525050811515909102019150565b60405190614930826140f7565b5f60408360608152606060208201520152565b60208091604051928184925191829101835e81015f815203019020426004820155600360ff19825416179055565b919061497b614923565b5060405192614989846140f7565b835260208301526001600160a01b0316604082015290565b60208091604051928184925191829101835e81015f815203019020426009820155600860ff19825416179055565b6009821015612cd05752565b9061433b614a1a60405160208551918181818901948086835e8101600181520301902095604051928391518091835e8101600281520301902093614376565b92614376565b60ff1660ff81146103725760010190565b6001600160401b03811161035e5760051b60200190565b90614a5282614a31565b614a5f6040519182614180565b8281528092614a70601f1991614a31565b01905f5b828110614a8057505050565b602090604051614a8f81614112565b60608152606083820152606060408201525f60608201525f6080820152606060a08201525f60c082015282828501015201614a74565b805182101561447e5760209160051b010190565b90604051614ae681614112565b60c060058294614af581614376565b8452614b0360018201614376565b6020850152614b1460028201614376565b6040850152614b3860ff6003830154818116606088015260081c16608086016149cf565b614b4460048201614376565b60a08501520154910152565b90421115614b865760208091604051928184925191829101835e81015f815203019020426006820155600560ff19825416179055565b60405162461bcd60e51b815260206004820152601860248201527f536572746966696b6174206d61736968206265726c616b7500000000000000006044820152606490fd5b60405190614bd882614164565b6060610180835f81525f60208201525f60408201525f838201525f60808201525f60a08201525f60c08201525f60e08201525f6101008201525f610120820152614c20614923565b610140820152614c2e614923565b6101608201520152565b60208091614c44614bcb565b50604051928184925191829101835e81015f815203019020614d02601060405192614c6e84614164565b614c7c60ff825416856149cf565b60018101546020850152600281015460408501526003810154606085015260048101546080850152600581015460a0850152600681015460c0850152600781015460e085015260088101546101008501526009810154610120850152614ce4600a8201614416565b610140850152614cf6600d8201614416565b61016085015201614376565b61018082015290565b91909160405160208251918181818601948086835e81015f81520301902092604051928391518091835e8101600281520301902083516001600160401b03811161035e57614d59825461433e565b601f8111614e11575b50602094601f8211600114614db0579481929394955f92614da5575b50508160011b915f199060031b1c19161790555b426008820155805460ff19166007179055565b015190505f80614d7e565b601f19821695835f52805f20915f5b888110614df957508360019596979810614de1575b505050811b019055614d92565b01515f1960f88460031b161c191690555f8080614dd4565b91926020600181928685015181550194019201614dbf565b825f5260205f20601f830160051c81019160208410614e4c575b601f0160051c01905b818110614e415750614d62565b5f8155600101614e34565b9091508190614e2b565b60208091939293604051928184925191829101835e81015f8152030190204260078201556082420190814211610372576010916005820155600660ff198254161781550182516001600160401b03811161035e57614eb4825461433e565b601f8111614f54575b506020601f8211600114614ef657819293945f92614eeb575b50508160011b915f199060031b1c1916179055565b015190505f80614ed6565b601f19821690835f52805f20915f5b818110614f3c57509583600195969710614f24575b505050811b019055565b01515f1960f88460031b161c191690555f8080614f1a565b9192602060018192868b015181550194019201614f05565b825f5260205f20601f830160051c81019160208410614f8f575b601f0160051c01905b818110614f845750614ebd565b5f8155600101614f77565b9091508190614f6e565b92919060405160208551918181818901948086835e81015f81520301902095604051928391518091835e81016001815203019020908051906001600160401b03821161035e578190614feb845461433e565b601f81116152e6575b50602090601f8311600114615283575f92615278575b50508160011b915f199060031b1c19161790555b80518051600d8501916001600160401b03821161035e5761503f835461433e565b601f8111615233575b50602090601f83116001146151cc576020949392915f91836151c1575b50508160011b915f199060031b1c19161790555b6040810151600f850180546001600160a01b0319166001600160a01b039290921691909117905501518051909290600e8201906001600160401b03811161035e576150c4825461433e565b601f811161517c575b50602094601f821160011461511b579481929394955f92615110575b50508160011b915f199060031b1c19161790555b426003820155805460ff19166002179055565b015190505f806150e9565b601f19821695835f52805f20915f5b8881106151645750836001959697981061514c575b505050811b0190556150fd565b01515f1960f88460031b161c191690555f808061513f565b9192602060018192868501518155019401920161512a565b825f5260205f20601f830160051c810191602084106151b7575b601f0160051c01905b8181106151ac57506150cd565b5f815560010161519f565b9091508190615196565b015190505f80615065565b90601f19831691845f52815f20925f5b81811061521b575091600193918560209897969410615203575b505050811b019055615079565b01515f1960f88460031b161c191690555f80806151f6565b929360206001819287860151815501950193016151dc565b835f5260205f20601f840160051c8101916020851061526e575b601f0160051c01905b8181106152635750615048565b5f8155600101615256565b909150819061524d565b015190505f8061500a565b5f8581528281209350601f198516905b8181106152ce57509084600195949392106152b6575b505050811b01905561501e565b01515f1960f88460031b161c191690555f80806152a9565b92936020600181928786015181550195019301615293565b909150835f5260205f20601f840160051c8101916020851061532c575b90601f859493920160051c01905b81811061531e5750614ff4565b5f8155849350600101615311565b9091508190615303565b6020809194939294604051928184925191829101835e81015f815203019020908051600d8301908051906001600160401b03821161035e57615378835461433e565b601f811161565f575b50602090601f83116001146155f8576020949392915f91836155ed575b50508160011b915f199060031b1c19161790555b6040810151600f840180546001600160a01b0319166001600160a01b039290921691909117905501518051600e8301916001600160401b03821161035e5781906153fc845461433e565b601f811161559d575b50602090601f831160011461553a575f9261552f575b50508160011b915f199060031b1c19161790555b4260028201556082420190814211610372576010916005820155600160ff198254161781550182516001600160401b03811161035e5761546f825461433e565b601f81116154ea575b506020601f82116001146154a557819293945f92614eeb5750508160011b915f199060031b1c1916179055565b601f19821690835f52805f20915f5b8181106154d257509583600195969710614f2457505050811b019055565b9192602060018192868b0151815501940192016154b4565b825f5260205f20601f830160051c81019160208410615525575b601f0160051c01905b81811061551a5750615478565b5f815560010161550d565b9091508190615504565b015190505f8061541b565b5f8581528281209350601f198516905b818110615585575090846001959493921061556d575b505050811b01905561542f565b01515f1960f88460031b161c191690555f8080615560565b9293602060018192878601518155019501930161554a565b909150835f5260205f20601f840160051c810191602085106155e3575b90601f859493920160051c01905b8181106155d55750615405565b5f81558493506001016155c8565b90915081906155ba565b015190505f8061539e565b90601f19831691845f52815f20925f5b81811061564757509160019391856020989796941061562f575b505050811b0190556153b2565b01515f1960f88460031b161c191690555f8080615622565b92936020600181928786015181550195019301615608565b835f5260205f20601f840160051c8101916020851061569a575b601f0160051c01905b81811061568f5750615381565b5f8155600101615682565b9091508190615679565b9290919260405180916156b682614164565b5f825260208201428152604083015f8152606084015f8152608085015f815260a086015f815260c08701915f835260e08801935f85526101008901955f87526101208a01975f89526101408b01998a526101608b019d8e5260209e8f80916040519e8f6157238482614180565b5f9052610180019e8f52604051928184925191829101835e81015f8152030190209a516009811015612cd05760ff80198d54169116178b555160018b01555160028a0155516003890155516004880155516005870155516006860155516007850155516008840155516009830155600a820190519081518051906001600160401b03821161035e5781906157b7845461433e565b601f8111615cc4575b508990601f8311600114615c61575f92615c56575b50508160011b915f199060031b1c19161790555b600b8201868201518051906001600160401b03821161035e57819061580e845461433e565b601f8111615c08575b508990601f8311600114615ba5575f92615b9a575b50508160011b915f199060031b1c19161790555b60400151600c820180546001600160a01b0319166001600160a01b0392909216919091179055925180518051919491600d8301916001600160401b03821161035e57819061588e845461433e565b601f8111615b4c575b508890601f8311600114615ae9575f92615ade575b50508160011b915f199060031b1c19161790555b600e81019385810151948551956001600160401b03871161035e576158e5825461433e565b601f8111615a9b575b508790601f8811600114615a345796809160109697985f92615a29575b50508160011b915f199060031b1c19161790555b60400151600f820180546001600160a01b0319166001600160a01b03929092169190911790559151805190949190920191906001600160401b03821161035e57615969835461433e565b601f81116159e6575b5080601f831160011461599f5750819293945f92614eeb5750508160011b915f199060031b1c1916179055565b90601f19831695845f52825f20925f905b8882106159ce57505083600195969710614f2457505050811b019055565b806001859682949686015181550195019301906159b0565b835f52815f20601f840160051c810191838510615a1f575b601f0160051c01905b818110615a145750615972565b5f8155600101615a07565b90915081906159fe565b015190505f8061590b565b90601f19881691835f52895f20925f5b8b828210615a8557505091600193918a6010999a9b9410615a6d575b505050811b01905561591f565b01515f1960f88460031b161c191690555f8080615a60565b6001859682939686015181550195019301615a44565b825f52885f20601f890160051c8101918a8a10615ad4575b601f0160051c01905b818110615ac957506158ee565b5f8155600101615abc565b9091508190615ab3565b015190505f806158ac565b5f8581528a81209350601f198516905b8b828210615b36575050908460019594939210615b1e575b505050811b0190556158c0565b01515f1960f88460031b161c191690555f8080615b11565b6001859682939686015181550195019301615af9565b909150835f52885f20601f840160051c8101918a8510615b90575b90601f859493920160051c01905b818110615b825750615897565b5f8155849350600101615b75565b9091508190615b67565b015190505f8061582c565b5f8581528b81209350601f198516905b8c828210615bf2575050908460019594939210615bda575b505050811b019055615840565b01515f1960f88460031b161c191690555f8080615bcd565b6001859682939686015181550195019301615bb5565b909150835f52895f20601f840160051c8101918b8510615c4c575b90601f859493920160051c01905b818110615c3e5750615817565b5f8155849350600101615c31565b9091508190615c23565b015190505f806157d5565b5f8581528b81209350601f198516905b8c828210615cae575050908460019594939210615c96575b505050811b0190556157e9565b01515f1960f88460031b161c191690555f8080615c89565b6001859682939686015181550195019301615c71565b909150835f52895f20601f840160051c8101918b8510615d08575b90601f859493920160051c01905b818110615cfa57506157c0565b5f8155849350600101615ced565b9091508190615cdf56fea26469706673582212200c5921b5ba4ad82fd792bde043f5ddaa81590df466c474fa574aacc05aa3708064736f6c634300081b0033","opcodes":"PUSH1 0x80 DUP1 PUSH1 0x40 MSTORE CALLVALUE PUSH1 0x15 JUMPI PUSH2 0x5D48 SWAP1 DUP2 PUSH2 0x1A DUP3 CODECOPY RETURN JUMPDEST PUSH0 DUP1 REVERT INVALID PUSH1 0x80 PUSH1 0x40 MSTORE PUSH1 0x4 CALLDATASIZE LT ISZERO PUSH2 0x11 JUMPI PUSH0 DUP1 REVERT JUMPDEST PUSH0 CALLDATALOAD PUSH1 0xE0 SHR DUP1 PUSH4 0x7B11C0B EQ PUSH2 0x3CC1 JUMPI DUP1 PUSH4 0x17E68309 EQ PUSH2 0x3C60 JUMPI DUP1 PUSH4 0x19859C87 EQ PUSH2 0x3C28 JUMPI DUP1 PUSH4 0x1ACF2500 EQ PUSH2 0x3AEF JUMPI DUP1 PUSH4 0x252006AF EQ PUSH2 0x3A47 JUMPI DUP1 PUSH4 0x26C6D4C5 EQ PUSH2 0x39F1 JUMPI DUP1 PUSH4 0x2B93F7F2 EQ PUSH2 0x3543 JUMPI DUP1 PUSH4 0x2E9CF827 EQ PUSH2 0x34BF JUMPI DUP1 PUSH4 0x34A34F30 EQ PUSH2 0x339D JUMPI DUP1 PUSH4 0x3A947F1A EQ PUSH2 0x3365 JUMPI DUP1 PUSH4 0x43762AA8 EQ PUSH2 0x3291 JUMPI DUP1 PUSH4 0x500619D0 EQ PUSH2 0x3155 JUMPI DUP1 PUSH4 0x5691ACF7 EQ PUSH2 0x30AE JUMPI DUP1 PUSH4 0x682053D9 EQ PUSH2 0x1D0C JUMPI DUP1 PUSH4 0x69046DD3 EQ PUSH2 0x18D6 JUMPI DUP1 PUSH4 0x6D1AA7D5 EQ PUSH2 0x169F JUMPI DUP1 PUSH4 0x6F12C230 EQ PUSH2 0x1773 JUMPI DUP1 PUSH4 0x72C17CB9 EQ PUSH2 0x16D7 JUMPI DUP1 PUSH4 0x761FB19A EQ PUSH2 0x169F JUMPI DUP1 PUSH4 0x7AB09648 EQ PUSH2 0x162F JUMPI DUP1 PUSH4 0x7E8F8DA7 EQ PUSH2 0x126C JUMPI DUP1 PUSH4 0x9740DBED EQ PUSH2 0x1230 JUMPI DUP1 PUSH4 0x9AAA5D8B EQ PUSH2 0x11F5 JUMPI DUP1 PUSH4 0x9C6B1F10 EQ PUSH2 0x112D JUMPI DUP1 PUSH4 0xA7226527 EQ PUSH2 0x514 JUMPI DUP1 PUSH4 0xBE2E2325 EQ PUSH2 0x4C4 JUMPI DUP1 PUSH4 0xBF3F80AC EQ PUSH2 0x45A JUMPI DUP1 PUSH4 0xCEEE1067 EQ PUSH2 0x443 JUMPI DUP1 PUSH4 0xD26196FD EQ PUSH2 0x42C JUMPI DUP1 PUSH4 0xE9C260D7 EQ PUSH2 0x415 JUMPI DUP1 PUSH4 0xF14261D2 EQ PUSH2 0x39D JUMPI DUP1 PUSH4 0xF5104FF1 EQ PUSH2 0x386 JUMPI DUP1 PUSH4 0xF53EF126 EQ PUSH2 0x20E JUMPI PUSH4 0xFB5FB9A3 EQ PUSH2 0x18F JUMPI PUSH0 DUP1 REVERT JUMPDEST CALLVALUE PUSH2 0x20A JUMPI PUSH1 0x60 CALLDATASIZE PUSH1 0x3 NOT ADD SLT PUSH2 0x20A JUMPI PUSH1 0x4 CALLDATALOAD PUSH1 0x1 PUSH1 0x1 PUSH1 0x40 SHL SUB DUP2 GT PUSH2 0x20A JUMPI PUSH2 0x1BF SWAP1 CALLDATASIZE SWAP1 PUSH1 0x4 ADD PUSH2 0x47D9 JUMP JUMPDEST PUSH1 0x24 CALLDATALOAD PUSH1 0x1 PUSH1 0x1 PUSH1 0x40 SHL SUB DUP2 GT PUSH2 0x20A JUMPI PUSH2 0x1DE SWAP1 CALLDATASIZE SWAP1 PUSH1 0x4 ADD PUSH2 0x47D9 JUMP JUMPDEST SWAP1 PUSH1 0x44 CALLDATALOAD SWAP2 PUSH1 0x1 PUSH1 0x1 PUSH1 0x40 SHL SUB DUP4 GT PUSH2 0x20A JUMPI PUSH2 0x202 PUSH2 0x208 SWAP4 CALLDATASIZE SWAP1 PUSH1 0x4 ADD PUSH2 0x41A1 JUMP JUMPDEST SWAP2 PUSH2 0x56A4 JUMP JUMPDEST STOP JUMPDEST PUSH0 DUP1 REVERT JUMPDEST CALLVALUE PUSH2 0x20A JUMPI PUSH1 0x20 DUP1 PUSH2 0x21F CALLDATASIZE PUSH2 0x42F1 JUMP JUMPDEST SWAP3 SWAP1 PUSH1 0x40 MLOAD SWAP3 DUP2 DUP5 SWAP3 MLOAD SWAP2 DUP3 SWAP2 ADD DUP4 MCOPY DUP2 ADD PUSH0 DUP2 MSTORE SUB ADD SWAP1 KECCAK256 TIMESTAMP PUSH1 0x2 DUP3 ADD SSTORE PUSH1 0x82 TIMESTAMP ADD SWAP1 DUP2 TIMESTAMP GT PUSH2 0x372 JUMPI PUSH1 0x10 SWAP2 PUSH1 0x5 DUP3 ADD SSTORE PUSH1 0x6 PUSH1 0xFF NOT DUP3 SLOAD AND OR DUP2 SSTORE ADD DUP2 MLOAD PUSH1 0x1 PUSH1 0x1 PUSH1 0x40 SHL SUB DUP2 GT PUSH2 0x35E JUMPI PUSH2 0x278 DUP3 SLOAD PUSH2 0x433E JUMP JUMPDEST PUSH1 0x1F DUP2 GT PUSH2 0x319 JUMPI JUMPDEST POP PUSH1 0x20 SWAP3 PUSH1 0x1F DUP3 GT PUSH1 0x1 EQ PUSH2 0x2BD JUMPI SWAP3 DUP2 SWAP3 SWAP4 PUSH0 SWAP3 PUSH2 0x2B2 JUMPI JUMPDEST POP POP PUSH0 NOT PUSH1 0x3 DUP4 SWAP1 SHL SHR NOT AND PUSH1 0x1 SWAP2 SWAP1 SWAP2 SHL OR SWAP1 SSTORE STOP JUMPDEST ADD MLOAD SWAP1 POP DUP4 DUP1 PUSH2 0x29B JUMP JUMPDEST PUSH1 0x1F NOT DUP3 AND SWAP4 DUP4 PUSH0 MSTORE DUP1 PUSH0 KECCAK256 SWAP2 PUSH0 JUMPDEST DUP7 DUP2 LT PUSH2 0x301 JUMPI POP DUP4 PUSH1 0x1 SWAP6 SWAP7 LT PUSH2 0x2E9 JUMPI JUMPDEST POP POP POP DUP2 SHL ADD SWAP1 SSTORE STOP JUMPDEST ADD MLOAD PUSH0 NOT PUSH1 0xF8 DUP5 PUSH1 0x3 SHL AND SHR NOT AND SWAP1 SSTORE DUP4 DUP1 DUP1 PUSH2 0x2DF JUMP JUMPDEST SWAP2 SWAP3 PUSH1 0x20 PUSH1 0x1 DUP2 SWAP3 DUP7 DUP6 ADD MLOAD DUP2 SSTORE ADD SWAP5 ADD SWAP3 ADD PUSH2 0x2CC JUMP JUMPDEST DUP3 PUSH0 MSTORE PUSH1 0x20 PUSH0 KECCAK256 PUSH1 0x1F DUP4 ADD PUSH1 0x5 SHR DUP2 ADD SWAP2 PUSH1 0x20 DUP5 LT PUSH2 0x354 JUMPI JUMPDEST PUSH1 0x1F ADD PUSH1 0x5 SHR ADD SWAP1 JUMPDEST DUP2 DUP2 LT PUSH2 0x349 JUMPI POP PUSH2 0x281 JUMP JUMPDEST PUSH0 DUP2 SSTORE PUSH1 0x1 ADD PUSH2 0x33C JUMP JUMPDEST SWAP1 SWAP2 POP DUP2 SWAP1 PUSH2 0x333 JUMP JUMPDEST PUSH4 0x4E487B71 PUSH1 0xE0 SHL PUSH0 MSTORE PUSH1 0x41 PUSH1 0x4 MSTORE PUSH1 0x24 PUSH0 REVERT JUMPDEST PUSH4 0x4E487B71 PUSH1 0xE0 SHL PUSH0 MSTORE PUSH1 0x11 PUSH1 0x4 MSTORE PUSH1 0x24 PUSH0 REVERT JUMPDEST CALLVALUE PUSH2 0x20A JUMPI PUSH2 0x208 PUSH2 0x397 CALLDATASIZE PUSH2 0x4851 JUMP JUMPDEST SWAP2 PUSH2 0x5336 JUMP JUMPDEST CALLVALUE PUSH2 0x20A JUMPI PUSH0 CALLDATASIZE PUSH1 0x3 NOT ADD SLT PUSH2 0x20A JUMPI PUSH1 0x3 SLOAD PUSH2 0x3B9 DUP2 PUSH2 0x4A48 JUMP JUMPDEST SWAP1 PUSH0 DUP1 JUMPDEST DUP3 DUP3 LT PUSH2 0x3D6 JUMPI PUSH1 0x40 MLOAD DUP1 PUSH2 0x3D2 DUP7 DUP3 PUSH2 0x4644 JUMP JUMPDEST SUB SWAP1 RETURN JUMPDEST PUSH2 0x40D PUSH1 0x1 SWAP2 PUSH2 0x407 PUSH2 0x3F1 PUSH2 0x3EB DUP7 PUSH2 0x4462 JUMP JUMPDEST POP PUSH2 0x4AD9 JUMP JUMPDEST PUSH1 0xFF DUP4 AND SWAP1 PUSH2 0x400 DUP3 DUP11 PUSH2 0x4AC5 JUMP JUMPDEST MSTORE DUP8 PUSH2 0x4AC5 JUMP JUMPDEST POP PUSH2 0x4A20 JUMP JUMPDEST SWAP2 ADD SWAP1 PUSH2 0x3BD JUMP JUMPDEST CALLVALUE PUSH2 0x20A JUMPI PUSH2 0x208 PUSH2 0x426 CALLDATASIZE PUSH2 0x4851 JUMP JUMPDEST SWAP2 PUSH2 0x4F99 JUMP JUMPDEST CALLVALUE PUSH2 0x20A JUMPI PUSH2 0x208 PUSH2 0x43D CALLDATASIZE PUSH2 0x42F1 JUMP JUMPDEST SWAP1 PUSH2 0x4E56 JUMP JUMPDEST CALLVALUE PUSH2 0x20A JUMPI PUSH2 0x208 PUSH2 0x454 CALLDATASIZE PUSH2 0x42F1 JUMP JUMPDEST SWAP1 PUSH2 0x4D0B JUMP JUMPDEST CALLVALUE PUSH2 0x20A JUMPI PUSH1 0x20 CALLDATASIZE PUSH1 0x3 NOT ADD SLT PUSH2 0x20A JUMPI PUSH1 0x4 CALLDATALOAD PUSH1 0x1 PUSH1 0x1 PUSH1 0x40 SHL SUB DUP2 GT PUSH2 0x20A JUMPI PUSH2 0x4B0 PUSH1 0x20 DUP1 PUSH2 0x493 PUSH2 0x3D2 SWAP5 CALLDATASIZE SWAP1 PUSH1 0x4 ADD PUSH2 0x41A1 JUMP JUMPDEST PUSH1 0x40 MLOAD SWAP3 DUP2 DUP5 SWAP3 MLOAD SWAP2 DUP3 SWAP2 ADD DUP4 MCOPY DUP2 ADD PUSH1 0x1 DUP2 MSTORE SUB ADD SWAP1 KECCAK256 PUSH2 0x4376 JUMP JUMPDEST PUSH1 0x40 MLOAD SWAP2 DUP3 SWAP2 PUSH1 0x20 DUP4 MSTORE PUSH1 0x20 DUP4 ADD SWAP1 PUSH2 0x4279 JUMP JUMPDEST CALLVALUE PUSH2 0x20A JUMPI PUSH1 0x20 CALLDATASIZE PUSH1 0x3 NOT ADD SLT PUSH2 0x20A JUMPI PUSH1 0x4 CALLDATALOAD PUSH1 0x1 PUSH1 0x1 PUSH1 0x40 SHL SUB DUP2 GT PUSH2 0x20A JUMPI PUSH2 0x508 PUSH2 0x4FA PUSH2 0x3D2 SWAP3 CALLDATASIZE SWAP1 PUSH1 0x4 ADD PUSH2 0x41A1 JUMP JUMPDEST PUSH2 0x502 PUSH2 0x4BCB JUMP JUMPDEST POP PUSH2 0x4C38 JUMP JUMPDEST PUSH1 0x40 MLOAD SWAP2 DUP3 SWAP2 DUP3 PUSH2 0x4714 JUMP JUMPDEST CALLVALUE PUSH2 0x20A JUMPI PUSH1 0x60 CALLDATASIZE PUSH1 0x3 NOT ADD SLT PUSH2 0x20A JUMPI PUSH1 0x4 CALLDATALOAD PUSH1 0x1 PUSH1 0x1 PUSH1 0x40 SHL SUB DUP2 GT PUSH2 0x20A JUMPI PUSH2 0x544 SWAP1 CALLDATASIZE SWAP1 PUSH1 0x4 ADD PUSH2 0x41A1 JUMP JUMPDEST PUSH1 0x24 CALLDATALOAD PUSH1 0x1 PUSH1 0x1 PUSH1 0x40 SHL SUB DUP2 GT PUSH2 0x20A JUMPI PUSH2 0x563 SWAP1 CALLDATASIZE SWAP1 PUSH1 0x4 ADD PUSH2 0x4492 JUMP JUMPDEST SWAP1 PUSH1 0x44 CALLDATALOAD PUSH1 0x1 PUSH1 0x1 PUSH1 0x40 SHL SUB DUP2 GT PUSH2 0x20A JUMPI PUSH2 0x583 SWAP1 CALLDATASIZE SWAP1 PUSH1 0x4 ADD PUSH2 0x44EC JUMP JUMPDEST PUSH2 0x58C DUP3 PUSH2 0x4943 JUMP JUMPDEST PUSH1 0x3 SLOAD SWAP2 PUSH1 0x20 DUP2 ADD SWAP1 PUSH0 JUMPDEST DUP5 DUP2 LT PUSH2 0x5A0 JUMPI STOP JUMPDEST PUSH2 0x5A9 DUP2 PUSH2 0x4462 JUMP JUMPDEST POP PUSH1 0x40 MLOAD PUSH2 0x5CD DUP2 PUSH2 0x5BF PUSH1 0x20 DUP3 ADD DUP1 SWAP6 PUSH2 0x48B9 JUMP JUMPDEST SUB PUSH1 0x1F NOT DUP2 ADD DUP4 MSTORE DUP3 PUSH2 0x4180 JUMP JUMPDEST MLOAD SWAP1 KECCAK256 PUSH1 0x40 MLOAD PUSH1 0x20 DUP2 ADD SWAP1 PUSH2 0x5FA PUSH1 0x20 DUP3 DUP8 MLOAD DUP1 DUP11 DUP8 MCOPY DUP2 ADD PUSH0 DUP4 DUP3 ADD MSTORE SUB ADD PUSH1 0x1F NOT DUP2 ADD DUP4 MSTORE DUP3 PUSH2 0x4180 JUMP JUMPDEST MLOAD SWAP1 KECCAK256 EQ PUSH2 0x60B JUMPI JUMPDEST PUSH1 0x1 ADD PUSH2 0x597 JUMP JUMPDEST PUSH1 0x3 PUSH2 0x616 DUP3 PUSH2 0x4462 JUMP JUMPDEST POP ADD DUP1 SLOAD PUSH2 0xFF00 NOT AND PUSH2 0x300 OR SWAP1 SSTORE PUSH2 0x640 PUSH1 0x20 PUSH2 0x633 DUP4 PUSH2 0x4462 JUMP JUMPDEST POP PUSH1 0x40 MLOAD SWAP3 DUP4 DUP1 SWAP3 PUSH2 0x48B9 JUMP JUMPDEST PUSH1 0x5 DUP2 MSTORE SUB ADD SWAP1 KECCAK256 DUP7 MLOAD DUP1 MLOAD SWAP1 PUSH1 0x1 PUSH1 0x1 PUSH1 0x40 SHL SUB DUP3 GT PUSH2 0x35E JUMPI PUSH2 0x665 DUP4 SLOAD PUSH2 0x433E JUMP JUMPDEST PUSH1 0x1F DUP2 GT PUSH2 0x10E8 JUMPI JUMPDEST POP PUSH1 0x20 SWAP1 PUSH1 0x1F DUP4 GT PUSH1 0x1 EQ PUSH2 0x1082 JUMPI PUSH1 0x1 SWAP4 SWAP3 SWAP2 PUSH0 SWAP2 DUP4 PUSH2 0x1077 JUMPI JUMPDEST POP POP PUSH0 NOT PUSH1 0x3 DUP4 SWAP1 SHL SHR NOT AND SWAP1 DUP4 SHL OR DUP2 SSTORE JUMPDEST ADD PUSH1 0x20 DUP8 ADD MLOAD DUP1 MLOAD SWAP1 PUSH1 0x1 PUSH1 0x1 PUSH1 0x40 SHL SUB DUP3 GT PUSH2 0x35E JUMPI DUP2 SWAP1 PUSH2 0x6C0 DUP5 SLOAD PUSH2 0x433E JUMP JUMPDEST PUSH1 0x1F DUP2 GT PUSH2 0x1027 JUMPI JUMPDEST POP PUSH1 0x20 SWAP1 PUSH1 0x1F DUP4 GT PUSH1 0x1 EQ PUSH2 0xFC4 JUMPI PUSH0 SWAP3 PUSH2 0xFB9 JUMPI JUMPDEST POP POP DUP2 PUSH1 0x1 SHL SWAP2 PUSH0 NOT SWAP1 PUSH1 0x3 SHL SHR NOT AND OR SWAP1 SSTORE JUMPDEST PUSH2 0x701 PUSH1 0x20 PUSH2 0x633 DUP4 PUSH2 0x4462 JUMP JUMPDEST PUSH1 0x6 DUP2 MSTORE SUB ADD SWAP1 KECCAK256 DUP5 MLOAD DUP1 MLOAD SWAP1 PUSH1 0x1 PUSH1 0x1 PUSH1 0x40 SHL SUB DUP3 GT PUSH2 0x35E JUMPI DUP2 SWAP1 PUSH2 0x728 DUP5 SLOAD PUSH2 0x433E JUMP JUMPDEST PUSH1 0x1F DUP2 GT PUSH2 0xF69 JUMPI JUMPDEST POP PUSH1 0x20 SWAP1 PUSH1 0x1F DUP4 GT PUSH1 0x1 EQ PUSH2 0xF06 JUMPI PUSH0 SWAP3 PUSH2 0xEFB JUMPI JUMPDEST POP POP DUP2 PUSH1 0x1 SHL SWAP2 PUSH0 NOT SWAP1 PUSH1 0x3 SHL SHR NOT AND OR DUP2 SSTORE JUMPDEST PUSH1 0x1 DUP2 ADD PUSH1 0x20 DUP7 ADD MLOAD DUP1 MLOAD SWAP1 PUSH1 0x1 PUSH1 0x1 PUSH1 0x40 SHL SUB DUP3 GT PUSH2 0x35E JUMPI DUP2 SWAP1 PUSH2 0x781 DUP5 SLOAD PUSH2 0x433E JUMP JUMPDEST PUSH1 0x1F DUP2 GT PUSH2 0xEAB JUMPI JUMPDEST POP PUSH1 0x20 SWAP1 PUSH1 0x1F DUP4 GT PUSH1 0x1 EQ PUSH2 0xE48 JUMPI PUSH0 SWAP3 PUSH2 0xE3D JUMPI JUMPDEST POP POP DUP2 PUSH1 0x1 SHL SWAP2 PUSH0 NOT SWAP1 PUSH1 0x3 SHL SHR NOT AND OR SWAP1 SSTORE JUMPDEST PUSH1 0x2 DUP2 ADD PUSH1 0x40 DUP7 ADD MLOAD DUP1 MLOAD SWAP1 PUSH1 0x1 PUSH1 0x1 PUSH1 0x40 SHL SUB DUP3 GT PUSH2 0x35E JUMPI DUP2 SWAP1 PUSH2 0x7DA DUP5 SLOAD PUSH2 0x433E JUMP JUMPDEST PUSH1 0x1F DUP2 GT PUSH2 0xDED JUMPI JUMPDEST POP PUSH1 0x20 SWAP1 PUSH1 0x1F DUP4 GT PUSH1 0x1 EQ PUSH2 0xD8A JUMPI PUSH0 SWAP3 PUSH2 0xD7F JUMPI JUMPDEST POP POP DUP2 PUSH1 0x1 SHL SWAP2 PUSH0 NOT SWAP1 PUSH1 0x3 SHL SHR NOT AND OR SWAP1 SSTORE JUMPDEST PUSH1 0x3 DUP2 ADD PUSH1 0x60 DUP7 ADD MLOAD DUP1 MLOAD SWAP1 PUSH1 0x1 PUSH1 0x1 PUSH1 0x40 SHL SUB DUP3 GT PUSH2 0x35E JUMPI DUP2 SWAP1 PUSH2 0x833 DUP5 SLOAD PUSH2 0x433E JUMP JUMPDEST PUSH1 0x1F DUP2 GT PUSH2 0xD2F JUMPI JUMPDEST POP PUSH1 0x20 SWAP1 PUSH1 0x1F DUP4 GT PUSH1 0x1 EQ PUSH2 0xCCC JUMPI PUSH0 SWAP3 PUSH2 0xCC1 JUMPI JUMPDEST POP POP DUP2 PUSH1 0x1 SHL SWAP2 PUSH0 NOT SWAP1 PUSH1 0x3 SHL SHR NOT AND OR SWAP1 SSTORE JUMPDEST PUSH1 0x4 DUP2 ADD PUSH1 0x80 DUP7 ADD MLOAD DUP1 MLOAD SWAP1 PUSH1 0x1 PUSH1 0x1 PUSH1 0x40 SHL SUB DUP3 GT PUSH2 0x35E JUMPI DUP2 SWAP1 PUSH2 0x88C DUP5 SLOAD PUSH2 0x433E JUMP JUMPDEST PUSH1 0x1F DUP2 GT PUSH2 0xC71 JUMPI JUMPDEST POP PUSH1 0x20 SWAP1 PUSH1 0x1F DUP4 GT PUSH1 0x1 EQ PUSH2 0xC0E JUMPI PUSH0 SWAP3 PUSH2 0xC03 JUMPI JUMPDEST POP POP DUP2 PUSH1 0x1 SHL SWAP2 PUSH0 NOT SWAP1 PUSH1 0x3 SHL SHR NOT AND OR SWAP1 SSTORE JUMPDEST PUSH1 0x5 DUP2 ADD PUSH1 0xA0 DUP7 ADD MLOAD DUP1 MLOAD SWAP1 PUSH1 0x1 PUSH1 0x1 PUSH1 0x40 SHL SUB DUP3 GT PUSH2 0x35E JUMPI DUP2 SWAP1 PUSH2 0x8E5 DUP5 SLOAD PUSH2 0x433E JUMP JUMPDEST PUSH1 0x1F DUP2 GT PUSH2 0xBB3 JUMPI JUMPDEST POP PUSH1 0x20 SWAP1 PUSH1 0x1F DUP4 GT PUSH1 0x1 EQ PUSH2 0xB50 JUMPI PUSH0 SWAP3 PUSH2 0xB45 JUMPI JUMPDEST POP POP DUP2 PUSH1 0x1 SHL SWAP2 PUSH0 NOT SWAP1 PUSH1 0x3 SHL SHR NOT AND OR SWAP1 SSTORE JUMPDEST PUSH1 0x6 DUP2 ADD PUSH1 0xC0 DUP7 ADD MLOAD DUP1 MLOAD SWAP1 PUSH1 0x1 PUSH1 0x1 PUSH1 0x40 SHL SUB DUP3 GT PUSH2 0x35E JUMPI PUSH2 0x93C DUP4 SLOAD PUSH2 0x433E JUMP JUMPDEST PUSH1 0x1F DUP2 GT PUSH2 0xB00 JUMPI JUMPDEST POP PUSH1 0x20 SWAP1 PUSH1 0x1F DUP4 GT PUSH1 0x1 EQ PUSH2 0xA99 JUMPI PUSH1 0x7 SWAP5 SWAP4 SWAP3 SWAP2 PUSH0 SWAP2 DUP4 PUSH2 0xA8E JUMPI JUMPDEST POP POP DUP2 PUSH1 0x1 SHL SWAP2 PUSH0 NOT SWAP1 PUSH1 0x3 SHL SHR NOT AND OR SWAP1 SSTORE JUMPDEST ADD PUSH1 0xE0 DUP6 ADD MLOAD DUP1 MLOAD SWAP1 PUSH1 0x1 PUSH1 0x1 PUSH1 0x40 SHL SUB DUP3 GT PUSH2 0x35E JUMPI PUSH2 0x997 DUP4 SLOAD PUSH2 0x433E JUMP JUMPDEST PUSH1 0x1F DUP2 GT PUSH2 0xA49 JUMPI JUMPDEST POP PUSH1 0x20 SWAP1 PUSH1 0x1F DUP4 GT PUSH1 0x1 EQ PUSH2 0x9E2 JUMPI PUSH1 0x1 SWAP5 SWAP4 SWAP3 SWAP2 PUSH0 SWAP2 DUP4 PUSH2 0x9D7 JUMPI JUMPDEST POP POP PUSH0 NOT PUSH1 0x3 DUP4 SWAP1 SHL SHR NOT AND SWAP1 DUP5 SHL OR SWAP1 SSTORE JUMPDEST SWAP1 POP PUSH2 0x603 JUMP JUMPDEST ADD MLOAD SWAP1 POP DUP11 DUP1 PUSH2 0x9BD JUMP JUMPDEST SWAP1 PUSH1 0x1F NOT DUP4 AND SWAP2 DUP5 PUSH0 MSTORE DUP2 PUSH0 KECCAK256 SWAP3 PUSH0 JUMPDEST DUP2 DUP2 LT PUSH2 0xA31 JUMPI POP SWAP2 PUSH1 0x1 SWAP7 SWAP6 SWAP5 SWAP3 SWAP2 DUP4 DUP9 SWAP6 SWAP4 LT PUSH2 0xA19 JUMPI JUMPDEST POP POP POP DUP2 SHL ADD SWAP1 SSTORE PUSH2 0x9D0 JUMP JUMPDEST ADD MLOAD PUSH0 NOT PUSH1 0xF8 DUP5 PUSH1 0x3 SHL AND SHR NOT AND SWAP1 SSTORE DUP11 DUP1 DUP1 PUSH2 0xA0C JUMP JUMPDEST SWAP3 SWAP4 PUSH1 0x20 PUSH1 0x1 DUP2 SWAP3 DUP8 DUP7 ADD MLOAD DUP2 SSTORE ADD SWAP6 ADD SWAP4 ADD PUSH2 0x9F2 JUMP JUMPDEST DUP4 PUSH0 MSTORE PUSH1 0x20 PUSH0 KECCAK256 PUSH1 0x1F DUP5 ADD PUSH1 0x5 SHR DUP2 ADD SWAP2 PUSH1 0x20 DUP6 LT PUSH2 0xA84 JUMPI JUMPDEST PUSH1 0x1F ADD PUSH1 0x5 SHR ADD SWAP1 JUMPDEST DUP2 DUP2 LT PUSH2 0xA79 JUMPI POP PUSH2 0x9A0 JUMP JUMPDEST PUSH0 DUP2 SSTORE PUSH1 0x1 ADD PUSH2 0xA6C JUMP JUMPDEST SWAP1 SWAP2 POP DUP2 SWAP1 PUSH2 0xA63 JUMP JUMPDEST ADD MLOAD SWAP1 POP DUP12 DUP1 PUSH2 0x962 JUMP JUMPDEST SWAP1 PUSH1 0x1F NOT DUP4 AND SWAP2 DUP5 PUSH0 MSTORE DUP2 PUSH0 KECCAK256 SWAP3 PUSH0 JUMPDEST DUP2 DUP2 LT PUSH2 0xAE8 JUMPI POP SWAP2 PUSH1 0x1 SWAP4 SWAP2 DUP6 PUSH1 0x7 SWAP9 SWAP8 SWAP7 SWAP5 LT PUSH2 0xAD0 JUMPI JUMPDEST POP POP POP DUP2 SHL ADD SWAP1 SSTORE PUSH2 0x976 JUMP JUMPDEST ADD MLOAD PUSH0 NOT PUSH1 0xF8 DUP5 PUSH1 0x3 SHL AND SHR NOT AND SWAP1 SSTORE DUP12 DUP1 DUP1 PUSH2 0xAC3 JUMP JUMPDEST SWAP3 SWAP4 PUSH1 0x20 PUSH1 0x1 DUP2 SWAP3 DUP8 DUP7 ADD MLOAD DUP2 SSTORE ADD SWAP6 ADD SWAP4 ADD PUSH2 0xAA9 JUMP JUMPDEST DUP4 PUSH0 MSTORE PUSH1 0x20 PUSH0 KECCAK256 PUSH1 0x1F DUP5 ADD PUSH1 0x5 SHR DUP2 ADD SWAP2 PUSH1 0x20 DUP6 LT PUSH2 0xB3B JUMPI JUMPDEST PUSH1 0x1F ADD PUSH1 0x5 SHR ADD SWAP1 JUMPDEST DUP2 DUP2 LT PUSH2 0xB30 JUMPI POP PUSH2 0x945 JUMP JUMPDEST PUSH0 DUP2 SSTORE PUSH1 0x1 ADD PUSH2 0xB23 JUMP JUMPDEST SWAP1 SWAP2 POP DUP2 SWAP1 PUSH2 0xB1A JUMP JUMPDEST ADD MLOAD SWAP1 POP DUP11 DUP1 PUSH2 0x904 JUMP JUMPDEST PUSH0 DUP6 DUP2 MSTORE DUP3 DUP2 KECCAK256 SWAP4 POP PUSH1 0x1F NOT DUP6 AND SWAP1 JUMPDEST DUP2 DUP2 LT PUSH2 0xB9B JUMPI POP SWAP1 DUP5 PUSH1 0x1 SWAP6 SWAP5 SWAP4 SWAP3 LT PUSH2 0xB83 JUMPI JUMPDEST POP POP POP DUP2 SHL ADD SWAP1 SSTORE PUSH2 0x918 JUMP JUMPDEST ADD MLOAD PUSH0 NOT PUSH1 0xF8 DUP5 PUSH1 0x3 SHL AND SHR NOT AND SWAP1 SSTORE DUP11 DUP1 DUP1 PUSH2 0xB76 JUMP JUMPDEST SWAP3 SWAP4 PUSH1 0x20 PUSH1 0x1 DUP2 SWAP3 DUP8 DUP7 ADD MLOAD DUP2 SSTORE ADD SWAP6 ADD SWAP4 ADD PUSH2 0xB60 JUMP JUMPDEST SWAP1 SWAP2 POP DUP4 PUSH0 MSTORE PUSH1 0x20 PUSH0 KECCAK256 PUSH1 0x1F DUP5 ADD PUSH1 0x5 SHR DUP2 ADD SWAP2 PUSH1 0x20 DUP6 LT PUSH2 0xBF9 JUMPI JUMPDEST SWAP1 PUSH1 0x1F DUP6 SWAP5 SWAP4 SWAP3 ADD PUSH1 0x5 SHR ADD SWAP1 JUMPDEST DUP2 DUP2 LT PUSH2 0xBEB JUMPI POP PUSH2 0x8EE JUMP JUMPDEST PUSH0 DUP2 SSTORE DUP5 SWAP4 POP PUSH1 0x1 ADD PUSH2 0xBDE JUMP JUMPDEST SWAP1 SWAP2 POP DUP2 SWAP1 PUSH2 0xBD0 JUMP JUMPDEST ADD MLOAD SWAP1 POP DUP11 DUP1 PUSH2 0x8AB JUMP JUMPDEST PUSH0 DUP6 DUP2 MSTORE DUP3 DUP2 KECCAK256 SWAP4 POP PUSH1 0x1F NOT DUP6 AND SWAP1 JUMPDEST DUP2 DUP2 LT PUSH2 0xC59 JUMPI POP SWAP1 DUP5 PUSH1 0x1 SWAP6 SWAP5 SWAP4 SWAP3 LT PUSH2 0xC41 JUMPI JUMPDEST POP POP POP DUP2 SHL ADD SWAP1 SSTORE PUSH2 0x8BF JUMP JUMPDEST ADD MLOAD PUSH0 NOT PUSH1 0xF8 DUP5 PUSH1 0x3 SHL AND SHR NOT AND SWAP1 SSTORE DUP11 DUP1 DUP1 PUSH2 0xC34 JUMP JUMPDEST SWAP3 SWAP4 PUSH1 0x20 PUSH1 0x1 DUP2 SWAP3 DUP8 DUP7 ADD MLOAD DUP2 SSTORE ADD SWAP6 ADD SWAP4 ADD PUSH2 0xC1E JUMP JUMPDEST SWAP1 SWAP2 POP DUP4 PUSH0 MSTORE PUSH1 0x20 PUSH0 KECCAK256 PUSH1 0x1F DUP5 ADD PUSH1 0x5 SHR DUP2 ADD SWAP2 PUSH1 0x20 DUP6 LT PUSH2 0xCB7 JUMPI JUMPDEST SWAP1 PUSH1 0x1F DUP6 SWAP5 SWAP4 SWAP3 ADD PUSH1 0x5 SHR ADD SWAP1 JUMPDEST DUP2 DUP2 LT PUSH2 0xCA9 JUMPI POP PUSH2 0x895 JUMP JUMPDEST PUSH0 DUP2 SSTORE DUP5 SWAP4 POP PUSH1 0x1 ADD PUSH2 0xC9C JUMP JUMPDEST SWAP1 SWAP2 POP DUP2 SWAP1 PUSH2 0xC8E JUMP JUMPDEST ADD MLOAD SWAP1 POP DUP11 DUP1 PUSH2 0x852 JUMP JUMPDEST PUSH0 DUP6 DUP2 MSTORE DUP3 DUP2 KECCAK256 SWAP4 POP PUSH1 0x1F NOT DUP6 AND SWAP1 JUMPDEST DUP2 DUP2 LT PUSH2 0xD17 JUMPI POP SWAP1 DUP5 PUSH1 0x1 SWAP6 SWAP5 SWAP4 SWAP3 LT PUSH2 0xCFF JUMPI JUMPDEST POP POP POP DUP2 SHL ADD SWAP1 SSTORE PUSH2 0x866 JUMP JUMPDEST ADD MLOAD PUSH0 NOT PUSH1 0xF8 DUP5 PUSH1 0x3 SHL AND SHR NOT AND SWAP1 SSTORE DUP11 DUP1 DUP1 PUSH2 0xCF2 JUMP JUMPDEST SWAP3 SWAP4 PUSH1 0x20 PUSH1 0x1 DUP2 SWAP3 DUP8 DUP7 ADD MLOAD DUP2 SSTORE ADD SWAP6 ADD SWAP4 ADD PUSH2 0xCDC JUMP JUMPDEST SWAP1 SWAP2 POP DUP4 PUSH0 MSTORE PUSH1 0x20 PUSH0 KECCAK256 PUSH1 0x1F DUP5 ADD PUSH1 0x5 SHR DUP2 ADD SWAP2 PUSH1 0x20 DUP6 LT PUSH2 0xD75 JUMPI JUMPDEST SWAP1 PUSH1 0x1F DUP6 SWAP5 SWAP4 SWAP3 ADD PUSH1 0x5 SHR ADD SWAP1 JUMPDEST DUP2 DUP2 LT PUSH2 0xD67 JUMPI POP PUSH2 0x83C JUMP JUMPDEST PUSH0 DUP2 SSTORE DUP5 SWAP4 POP PUSH1 0x1 ADD PUSH2 0xD5A JUMP JUMPDEST SWAP1 SWAP2 POP DUP2 SWAP1 PUSH2 0xD4C JUMP JUMPDEST ADD MLOAD SWAP1 POP DUP11 DUP1 PUSH2 0x7F9 JUMP JUMPDEST PUSH0 DUP6 DUP2 MSTORE DUP3 DUP2 KECCAK256 SWAP4 POP PUSH1 0x1F NOT DUP6 AND SWAP1 JUMPDEST DUP2 DUP2 LT PUSH2 0xDD5 JUMPI POP SWAP1 DUP5 PUSH1 0x1 SWAP6 SWAP5 SWAP4 SWAP3 LT PUSH2 0xDBD JUMPI JUMPDEST POP POP POP DUP2 SHL ADD SWAP1 SSTORE PUSH2 0x80D JUMP JUMPDEST ADD MLOAD PUSH0 NOT PUSH1 0xF8 DUP5 PUSH1 0x3 SHL AND SHR NOT AND SWAP1 SSTORE DUP11 DUP1 DUP1 PUSH2 0xDB0 JUMP JUMPDEST SWAP3 SWAP4 PUSH1 0x20 PUSH1 0x1 DUP2 SWAP3 DUP8 DUP7 ADD MLOAD DUP2 SSTORE ADD SWAP6 ADD SWAP4 ADD PUSH2 0xD9A JUMP JUMPDEST SWAP1 SWAP2 POP DUP4 PUSH0 MSTORE PUSH1 0x20 PUSH0 KECCAK256 PUSH1 0x1F DUP5 ADD PUSH1 0x5 SHR DUP2 ADD SWAP2 PUSH1 0x20 DUP6 LT PUSH2 0xE33 JUMPI JUMPDEST SWAP1 PUSH1 0x1F DUP6 SWAP5 SWAP4 SWAP3 ADD PUSH1 0x5 SHR ADD SWAP1 JUMPDEST DUP2 DUP2 LT PUSH2 0xE25 JUMPI POP PUSH2 0x7E3 JUMP JUMPDEST PUSH0 DUP2 SSTORE DUP5 SWAP4 POP PUSH1 0x1 ADD PUSH2 0xE18 JUMP JUMPDEST SWAP1 SWAP2 POP DUP2 SWAP1 PUSH2 0xE0A JUMP JUMPDEST ADD MLOAD SWAP1 POP DUP11 DUP1 PUSH2 0x7A0 JUMP JUMPDEST PUSH0 DUP6 DUP2 MSTORE DUP3 DUP2 KECCAK256 SWAP4 POP PUSH1 0x1F NOT DUP6 AND SWAP1 JUMPDEST DUP2 DUP2 LT PUSH2 0xE93 JUMPI POP SWAP1 DUP5 PUSH1 0x1 SWAP6 SWAP5 SWAP4 SWAP3 LT PUSH2 0xE7B JUMPI JUMPDEST POP POP POP DUP2 SHL ADD SWAP1 SSTORE PUSH2 0x7B4 JUMP JUMPDEST ADD MLOAD PUSH0 NOT PUSH1 0xF8 DUP5 PUSH1 0x3 SHL AND SHR NOT AND SWAP1 SSTORE DUP11 DUP1 DUP1 PUSH2 0xE6E JUMP JUMPDEST SWAP3 SWAP4 PUSH1 0x20 PUSH1 0x1 DUP2 SWAP3 DUP8 DUP7 ADD MLOAD DUP2 SSTORE ADD SWAP6 ADD SWAP4 ADD PUSH2 0xE58 JUMP JUMPDEST SWAP1 SWAP2 POP DUP4 PUSH0 MSTORE PUSH1 0x20 PUSH0 KECCAK256 PUSH1 0x1F DUP5 ADD PUSH1 0x5 SHR DUP2 ADD SWAP2 PUSH1 0x20 DUP6 LT PUSH2 0xEF1 JUMPI JUMPDEST SWAP1 PUSH1 0x1F DUP6 SWAP5 SWAP4 SWAP3 ADD PUSH1 0x5 SHR ADD SWAP1 JUMPDEST DUP2 DUP2 LT PUSH2 0xEE3 JUMPI POP PUSH2 0x78A JUMP JUMPDEST PUSH0 DUP2 SSTORE DUP5 SWAP4 POP PUSH1 0x1 ADD PUSH2 0xED6 JUMP JUMPDEST SWAP1 SWAP2 POP DUP2 SWAP1 PUSH2 0xEC8 JUMP JUMPDEST ADD MLOAD SWAP1 POP DUP10 DUP1 PUSH2 0x747 JUMP JUMPDEST PUSH0 DUP6 DUP2 MSTORE DUP3 DUP2 KECCAK256 SWAP4 POP PUSH1 0x1F NOT DUP6 AND SWAP1 JUMPDEST DUP2 DUP2 LT PUSH2 0xF51 JUMPI POP SWAP1 DUP5 PUSH1 0x1 SWAP6 SWAP5 SWAP4 SWAP3 LT PUSH2 0xF39 JUMPI JUMPDEST POP POP POP DUP2 SHL ADD DUP2 SSTORE PUSH2 0x75B JUMP JUMPDEST ADD MLOAD PUSH0 NOT PUSH1 0xF8 DUP5 PUSH1 0x3 SHL AND SHR NOT AND SWAP1 SSTORE DUP10 DUP1 DUP1 PUSH2 0xF2C JUMP JUMPDEST SWAP3 SWAP4 PUSH1 0x20 PUSH1 0x1 DUP2 SWAP3 DUP8 DUP7 ADD MLOAD DUP2 SSTORE ADD SWAP6 ADD SWAP4 ADD PUSH2 0xF16 JUMP JUMPDEST SWAP1 SWAP2 POP DUP4 PUSH0 MSTORE PUSH1 0x20 PUSH0 KECCAK256 PUSH1 0x1F DUP5 ADD PUSH1 0x5 SHR DUP2 ADD SWAP2 PUSH1 0x20 DUP6 LT PUSH2 0xFAF JUMPI JUMPDEST SWAP1 PUSH1 0x1F DUP6 SWAP5 SWAP4 SWAP3 ADD PUSH1 0x5 SHR ADD SWAP1 JUMPDEST DUP2 DUP2 LT PUSH2 0xFA1 JUMPI POP PUSH2 0x731 JUMP JUMPDEST PUSH0 DUP2 SSTORE DUP5 SWAP4 POP PUSH1 0x1 ADD PUSH2 0xF94 JUMP JUMPDEST SWAP1 SWAP2 POP DUP2 SWAP1 PUSH2 0xF86 JUMP JUMPDEST ADD MLOAD SWAP1 POP DUP10 DUP1 PUSH2 0x6DF JUMP JUMPDEST PUSH0 DUP6 DUP2 MSTORE DUP3 DUP2 KECCAK256 SWAP4 POP PUSH1 0x1F NOT DUP6 AND SWAP1 JUMPDEST DUP2 DUP2 LT PUSH2 0x100F JUMPI POP SWAP1 DUP5 PUSH1 0x1 SWAP6 SWAP5 SWAP4 SWAP3 LT PUSH2 0xFF7 JUMPI JUMPDEST POP POP POP DUP2 SHL ADD SWAP1 SSTORE PUSH2 0x6F3 JUMP JUMPDEST ADD MLOAD PUSH0 NOT PUSH1 0xF8 DUP5 PUSH1 0x3 SHL AND SHR NOT AND SWAP1 SSTORE DUP10 DUP1 DUP1 PUSH2 0xFEA JUMP JUMPDEST SWAP3 SWAP4 PUSH1 0x20 PUSH1 0x1 DUP2 SWAP3 DUP8 DUP7 ADD MLOAD DUP2 SSTORE ADD SWAP6 ADD SWAP4 ADD PUSH2 0xFD4 JUMP JUMPDEST SWAP1 SWAP2 POP DUP4 PUSH0 MSTORE PUSH1 0x20 PUSH0 KECCAK256 PUSH1 0x1F DUP5 ADD PUSH1 0x5 SHR DUP2 ADD SWAP2 PUSH1 0x20 DUP6 LT PUSH2 0x106D JUMPI JUMPDEST SWAP1 PUSH1 0x1F DUP6 SWAP5 SWAP4 SWAP3 ADD PUSH1 0x5 SHR ADD SWAP1 JUMPDEST DUP2 DUP2 LT PUSH2 0x105F JUMPI POP PUSH2 0x6C9 JUMP JUMPDEST PUSH0 DUP2 SSTORE DUP5 SWAP4 POP PUSH1 0x1 ADD PUSH2 0x1052 JUMP JUMPDEST SWAP1 SWAP2 POP DUP2 SWAP1 PUSH2 0x1044 JUMP JUMPDEST ADD MLOAD SWAP1 POP DUP11 DUP1 PUSH2 0x68A JUMP JUMPDEST SWAP1 PUSH1 0x1F NOT DUP4 AND SWAP2 DUP5 PUSH0 MSTORE DUP2 PUSH0 KECCAK256 SWAP3 PUSH0 JUMPDEST DUP2 DUP2 LT PUSH2 0x10D0 JUMPI POP SWAP2 PUSH1 0x1 SWAP6 SWAP5 SWAP3 SWAP2 DUP4 DUP8 SWAP6 SWAP4 LT PUSH2 0x10B8 JUMPI JUMPDEST POP POP POP DUP2 SHL ADD DUP2 SSTORE PUSH2 0x69D JUMP JUMPDEST ADD MLOAD PUSH0 NOT PUSH1 0xF8 DUP5 PUSH1 0x3 SHL AND SHR NOT AND SWAP1 SSTORE DUP11 DUP1 DUP1 PUSH2 0x10AB JUMP JUMPDEST SWAP3 SWAP4 PUSH1 0x20 PUSH1 0x1 DUP2 SWAP3 DUP8 DUP7 ADD MLOAD DUP2 SSTORE ADD SWAP6 ADD SWAP4 ADD PUSH2 0x1092 JUMP JUMPDEST DUP4 PUSH0 MSTORE PUSH1 0x20 PUSH0 KECCAK256 PUSH1 0x1F DUP5 ADD PUSH1 0x5 SHR DUP2 ADD SWAP2 PUSH1 0x20 DUP6 LT PUSH2 0x1123 JUMPI JUMPDEST PUSH1 0x1F ADD PUSH1 0x5 SHR ADD SWAP1 JUMPDEST DUP2 DUP2 LT PUSH2 0x1118 JUMPI POP PUSH2 0x66E JUMP JUMPDEST PUSH0 DUP2 SSTORE PUSH1 0x1 ADD PUSH2 0x110B JUMP JUMPDEST SWAP1 SWAP2 POP DUP2 SWAP1 PUSH2 0x1102 JUMP JUMPDEST CALLVALUE PUSH2 0x20A JUMPI PUSH2 0x1146 PUSH2 0x113E CALLDATASIZE PUSH2 0x42F1 JUMP JUMPDEST DUP2 SWAP3 SWAP2 PUSH2 0x4E56 JUMP JUMPDEST PUSH1 0x3 SLOAD SWAP1 PUSH1 0x20 DUP2 ADD SWAP1 PUSH0 JUMPDEST DUP4 DUP2 LT PUSH2 0x115A JUMPI STOP JUMPDEST PUSH2 0x1163 DUP2 PUSH2 0x4462 JUMP JUMPDEST POP PUSH1 0x40 MLOAD PUSH2 0x1179 DUP2 PUSH2 0x5BF PUSH1 0x20 DUP3 ADD DUP1 SWAP6 PUSH2 0x48B9 JUMP JUMPDEST MLOAD SWAP1 KECCAK256 PUSH1 0x40 MLOAD PUSH1 0x20 DUP2 ADD SWAP1 PUSH2 0x11A6 PUSH1 0x20 DUP3 DUP8 MLOAD DUP1 DUP11 DUP8 MCOPY DUP2 ADD PUSH0 DUP4 DUP3 ADD MSTORE SUB ADD PUSH1 0x1F NOT DUP2 ADD DUP4 MSTORE DUP3 PUSH2 0x4180 JUMP JUMPDEST MLOAD SWAP1 KECCAK256 EQ PUSH2 0x11B7 JUMPI JUMPDEST PUSH1 0x1 ADD PUSH2 0x1151 JUMP JUMPDEST PUSH1 0x3 PUSH2 0x11C2 DUP3 PUSH2 0x4462 JUMP JUMPDEST POP ADD PUSH2 0x600 PUSH2 0xFF00 NOT DUP3 SLOAD AND OR SWAP1 SSTORE PUSH1 0x82 TIMESTAMP ADD SWAP1 DUP2 TIMESTAMP GT PUSH2 0x372 JUMPI PUSH1 0x1 SWAP2 PUSH1 0x5 PUSH2 0x11EB DUP4 PUSH2 0x4462 JUMP JUMPDEST POP ADD SSTORE SWAP1 POP PUSH2 0x11AF JUMP JUMPDEST CALLVALUE PUSH2 0x20A JUMPI PUSH1 0x20 CALLDATASIZE PUSH1 0x3 NOT ADD SLT PUSH2 0x20A JUMPI PUSH1 0x4 CALLDATALOAD PUSH1 0x1 PUSH1 0x1 PUSH1 0x40 SHL SUB DUP2 GT PUSH2 0x20A JUMPI PUSH2 0x508 PUSH2 0x122B PUSH2 0x3D2 SWAP3 CALLDATASIZE SWAP1 PUSH1 0x4 ADD PUSH2 0x41A1 JUMP JUMPDEST PUSH2 0x4C38 JUMP JUMPDEST CALLVALUE PUSH2 0x20A JUMPI PUSH1 0x40 CALLDATASIZE PUSH1 0x3 NOT ADD SLT PUSH2 0x20A JUMPI PUSH1 0x4 CALLDATALOAD PUSH1 0x1 PUSH1 0x1 PUSH1 0x40 SHL SUB DUP2 GT PUSH2 0x20A JUMPI PUSH2 0x1263 PUSH2 0x208 SWAP2 CALLDATASIZE SWAP1 PUSH1 0x4 ADD PUSH2 0x41A1 JUMP JUMPDEST PUSH1 0x24 CALLDATALOAD SWAP1 PUSH2 0x4B50 JUMP JUMPDEST CALLVALUE PUSH2 0x20A JUMPI PUSH1 0x20 CALLDATASIZE PUSH1 0x3 NOT ADD SLT PUSH2 0x20A JUMPI PUSH1 0x4 CALLDATALOAD PUSH1 0x1 PUSH1 0x1 PUSH1 0x40 SHL SUB DUP2 GT PUSH2 0x20A JUMPI PUSH2 0x129C SWAP1 CALLDATASIZE SWAP1 PUSH1 0x4 ADD PUSH2 0x41A1 JUMP JUMPDEST PUSH2 0x12A4 PUSH2 0x4923 JUMP JUMPDEST POP PUSH1 0x40 MLOAD PUSH2 0x12B1 DUP2 PUSH2 0x412D JUMP JUMPDEST PUSH1 0x60 DUP2 MSTORE PUSH1 0x20 ADD PUSH1 0x60 SWAP1 MSTORE PUSH1 0x40 MLOAD PUSH2 0x12C8 DUP2 PUSH2 0x4148 JUMP JUMPDEST PUSH1 0x60 DUP2 MSTORE PUSH1 0x20 DUP2 ADD PUSH1 0x60 SWAP1 MSTORE PUSH1 0x40 DUP2 ADD PUSH1 0x60 SWAP1 MSTORE PUSH1 0x60 DUP2 ADD PUSH1 0x60 SWAP1 MSTORE PUSH1 0x80 DUP2 ADD PUSH1 0x60 SWAP1 MSTORE PUSH1 0xA0 DUP2 ADD PUSH1 0x60 SWAP1 MSTORE PUSH1 0xC0 DUP2 ADD PUSH1 0x60 SWAP1 MSTORE PUSH1 0xE0 ADD PUSH1 0x60 SWAP1 MSTORE PUSH1 0x40 MLOAD PUSH2 0x130F DUP2 PUSH2 0x40F7 JUMP JUMPDEST PUSH1 0x60 DUP2 MSTORE PUSH1 0x20 DUP2 ADD PUSH1 0x60 SWAP1 MSTORE PUSH1 0x40 ADD PUSH1 0x60 SWAP1 MSTORE PUSH1 0x40 MLOAD SWAP1 DUP1 MLOAD SWAP2 DUP1 PUSH1 0x20 DUP4 ADD SWAP4 DUP1 DUP6 DUP4 MCOPY DUP2 ADD PUSH1 0x4 DUP2 MSTORE SUB PUSH1 0x20 ADD SWAP1 KECCAK256 SWAP1 PUSH1 0x40 MLOAD DUP1 DUP3 MLOAD DUP1 DUP7 DUP4 MCOPY DUP2 ADD PUSH1 0x5 DUP2 MSTORE SUB PUSH1 0x20 ADD SWAP1 KECCAK256 SWAP3 PUSH1 0x40 MLOAD DUP1 DUP4 MLOAD DUP1 DUP5 DUP4 MCOPY DUP2 ADD PUSH1 0x6 DUP2 MSTORE SUB PUSH1 0x20 ADD SWAP1 KECCAK256 SWAP2 PUSH1 0x40 MLOAD SWAP2 DUP3 SWAP2 MLOAD DUP1 SWAP2 DUP4 MCOPY DUP2 ADD PUSH1 0x7 DUP2 MSTORE SUB PUSH1 0x20 ADD SWAP1 KECCAK256 SWAP1 PUSH1 0x40 MLOAD SWAP3 PUSH2 0x1393 DUP5 PUSH2 0x40F7 JUMP JUMPDEST PUSH2 0x139C DUP2 PUSH2 0x4376 JUMP JUMPDEST DUP5 MSTORE PUSH2 0x13AA PUSH1 0x1 DUP3 ADD PUSH2 0x4376 JUMP JUMPDEST PUSH1 0x20 DUP6 ADD MSTORE PUSH1 0x2 ADD SLOAD PUSH1 0xFF AND SWAP2 PUSH1 0x40 DUP5 ADD SWAP3 DUP4 MSTORE PUSH1 0x40 MLOAD SWAP5 PUSH2 0x13CB DUP7 PUSH2 0x412D JUMP JUMPDEST PUSH2 0x13D4 DUP2 PUSH2 0x4376 JUMP JUMPDEST DUP7 MSTORE PUSH1 0x1 ADD PUSH2 0x13E2 SWAP1 PUSH2 0x4376 JUMP JUMPDEST SWAP2 PUSH1 0x20 DUP7 ADD SWAP3 DUP4 MSTORE PUSH1 0x40 MLOAD SWAP1 PUSH2 0x13F7 DUP3 PUSH2 0x4148 JUMP JUMPDEST PUSH2 0x1400 DUP2 PUSH2 0x4376 JUMP JUMPDEST DUP3 MSTORE PUSH2 0x140E PUSH1 0x1 DUP3 ADD PUSH2 0x4376 JUMP JUMPDEST PUSH1 0x20 DUP4 ADD SWAP1 DUP2 MSTORE SWAP1 PUSH2 0x1422 PUSH1 0x2 DUP3 ADD PUSH2 0x4376 JUMP JUMPDEST PUSH1 0x40 DUP5 ADD SWAP1 DUP2 MSTORE PUSH2 0x1435 PUSH1 0x3 DUP4 ADD PUSH2 0x4376 JUMP JUMPDEST PUSH1 0x60 DUP6 ADD SWAP1 DUP2 MSTORE PUSH2 0x1448 PUSH1 0x4 DUP5 ADD PUSH2 0x4376 JUMP JUMPDEST PUSH1 0x80 DUP7 ADD SWAP1 DUP2 MSTORE SWAP1 PUSH2 0x145C PUSH1 0x5 DUP6 ADD PUSH2 0x4376 JUMP JUMPDEST PUSH1 0xA0 DUP8 ADD SWAP1 DUP2 MSTORE SWAP3 PUSH2 0x1470 PUSH1 0x6 DUP7 ADD PUSH2 0x4376 JUMP JUMPDEST SWAP5 PUSH1 0xC0 DUP9 ADD SWAP6 DUP7 MSTORE PUSH1 0x7 ADD PUSH2 0x1484 SWAP1 PUSH2 0x4376 JUMP JUMPDEST SWAP6 PUSH1 0xE0 DUP9 ADD SWAP7 DUP8 MSTORE PUSH1 0x40 MLOAD SWAP11 PUSH2 0x1499 DUP13 PUSH2 0x40F7 JUMP JUMPDEST PUSH2 0x14A2 DUP11 PUSH2 0x4376 JUMP JUMPDEST DUP13 MSTORE PUSH2 0x14B0 PUSH1 0x1 DUP12 ADD PUSH2 0x4376 JUMP JUMPDEST SWAP10 PUSH1 0x20 DUP14 ADD SWAP11 DUP12 MSTORE PUSH1 0x2 ADD PUSH2 0x14C4 SWAP1 PUSH2 0x4376 JUMP JUMPDEST SWAP11 PUSH1 0x40 DUP14 ADD SWAP12 DUP13 MSTORE PUSH1 0x40 MLOAD SWAP15 DUP16 SWAP15 DUP16 SWAP1 PUSH1 0x80 DUP3 MSTORE DUP1 MLOAD PUSH1 0x80 DUP4 ADD PUSH1 0x60 SWAP1 MSTORE PUSH1 0xE0 DUP4 ADD PUSH2 0x14EF SWAP2 PUSH2 0x4279 JUMP JUMPDEST SWAP1 PUSH1 0x20 ADD MLOAD SWAP1 PUSH1 0x7F NOT DUP4 DUP3 SUB ADD PUSH1 0xA0 DUP5 ADD MSTORE PUSH2 0x150A SWAP2 PUSH2 0x4279 JUMP JUMPDEST SWAP4 MLOAD PUSH1 0xFF AND PUSH1 0xC0 DUP3 ADD MSTORE DUP1 DUP5 SUB SWAP1 PUSH1 0x20 ADD MSTORE MLOAD PUSH1 0x40 DUP4 MSTORE PUSH1 0x40 DUP4 ADD PUSH2 0x152E SWAP2 PUSH2 0x4279 JUMP JUMPDEST SWAP1 MLOAD SWAP2 DUP1 DUP3 SUB SWAP1 PUSH1 0x20 ADD MSTORE PUSH2 0x1542 SWAP2 PUSH2 0x4279 JUMP JUMPDEST SWAP8 DUP13 DUP1 DUP11 SUB SWAP1 PUSH1 0x40 ADD MSTORE MLOAD PUSH2 0x100 DUP10 MSTORE PUSH2 0x100 DUP10 ADD PUSH2 0x1560 SWAP2 PUSH2 0x4279 JUMP JUMPDEST SWAP1 MLOAD SWAP1 DUP9 DUP2 SUB PUSH1 0x20 DUP11 ADD MSTORE PUSH2 0x1574 SWAP2 PUSH2 0x4279 JUMP JUMPDEST SWAP1 MLOAD SWAP1 DUP8 DUP2 SUB PUSH1 0x40 DUP10 ADD MSTORE PUSH2 0x1588 SWAP2 PUSH2 0x4279 JUMP JUMPDEST SWAP1 MLOAD SWAP1 DUP7 DUP2 SUB PUSH1 0x60 DUP9 ADD MSTORE PUSH2 0x159C SWAP2 PUSH2 0x4279 JUMP JUMPDEST SWAP1 MLOAD SWAP1 DUP6 DUP2 SUB PUSH1 0x80 DUP8 ADD MSTORE PUSH2 0x15B0 SWAP2 PUSH2 0x4279 JUMP JUMPDEST SWAP1 MLOAD SWAP1 DUP5 DUP2 SUB PUSH1 0xA0 DUP7 ADD MSTORE PUSH2 0x15C4 SWAP2 PUSH2 0x4279 JUMP JUMPDEST SWAP1 MLOAD SWAP1 DUP4 DUP2 SUB PUSH1 0xC0 DUP6 ADD MSTORE PUSH2 0x15D8 SWAP2 PUSH2 0x4279 JUMP JUMPDEST SWAP1 MLOAD SWAP2 DUP1 DUP3 SUB SWAP1 PUSH1 0xE0 ADD MSTORE PUSH2 0x15EC SWAP2 PUSH2 0x4279 JUMP JUMPDEST SWAP3 DUP5 DUP5 SUB PUSH1 0x60 DUP7 ADD MSTORE MLOAD PUSH1 0x60 DUP5 MSTORE PUSH1 0x60 DUP5 ADD PUSH2 0x1607 SWAP2 PUSH2 0x4279 JUMP JUMPDEST SWAP1 MLOAD SWAP1 DUP4 DUP2 SUB PUSH1 0x20 DUP6 ADD MSTORE PUSH2 0x161B SWAP2 PUSH2 0x4279 JUMP JUMPDEST SWAP1 MLOAD SWAP2 DUP1 DUP3 SUB SWAP1 PUSH1 0x40 ADD MSTORE PUSH2 0x3D2 SWAP2 PUSH2 0x4279 JUMP JUMPDEST CALLVALUE PUSH2 0x20A JUMPI PUSH1 0x20 CALLDATASIZE PUSH1 0x3 NOT ADD SLT PUSH2 0x20A JUMPI PUSH1 0x4 CALLDATALOAD PUSH1 0x1 PUSH1 0x1 PUSH1 0x40 SHL SUB DUP2 GT PUSH2 0x20A JUMPI PUSH1 0x20 PUSH2 0x1662 DUP2 SWAP3 CALLDATASIZE SWAP1 PUSH1 0x4 ADD PUSH2 0x41A1 JUMP JUMPDEST PUSH1 0x40 MLOAD SWAP3 DUP2 DUP5 SWAP3 MLOAD SWAP2 DUP3 SWAP2 ADD DUP4 MCOPY DUP2 ADD PUSH1 0x5 DUP2 MSTORE SUB ADD SWAP1 KECCAK256 PUSH2 0x168F PUSH1 0x1 PUSH2 0x1688 DUP4 PUSH2 0x4376 JUMP JUMPDEST SWAP3 ADD PUSH2 0x4376 JUMP JUMPDEST SWAP1 PUSH2 0x3D2 PUSH1 0x40 MLOAD SWAP3 DUP4 SWAP3 DUP4 PUSH2 0x461F JUMP JUMPDEST CALLVALUE PUSH2 0x20A JUMPI PUSH1 0x20 CALLDATASIZE PUSH1 0x3 NOT ADD SLT PUSH2 0x20A JUMPI PUSH1 0x4 CALLDATALOAD PUSH1 0x1 PUSH1 0x1 PUSH1 0x40 SHL SUB DUP2 GT PUSH2 0x20A JUMPI PUSH2 0x16D2 PUSH2 0x168F SWAP2 CALLDATASIZE SWAP1 PUSH1 0x4 ADD PUSH2 0x41A1 JUMP JUMPDEST PUSH2 0x49DB JUMP JUMPDEST CALLVALUE PUSH2 0x20A JUMPI PUSH1 0x20 CALLDATASIZE PUSH1 0x3 NOT ADD SLT PUSH2 0x20A JUMPI PUSH1 0x4 CALLDATALOAD PUSH1 0x1 PUSH1 0x1 PUSH1 0x40 SHL SUB DUP2 GT PUSH2 0x20A JUMPI PUSH1 0x20 DUP1 PUSH2 0x170D PUSH2 0x175B SWAP4 CALLDATASIZE SWAP1 PUSH1 0x4 ADD PUSH2 0x41A1 JUMP JUMPDEST PUSH1 0x40 MLOAD SWAP3 DUP2 DUP5 SWAP3 MLOAD SWAP2 DUP3 SWAP2 ADD DUP4 MCOPY DUP2 ADD PUSH1 0x4 DUP2 MSTORE SUB ADD SWAP1 KECCAK256 PUSH2 0x172E DUP2 PUSH2 0x4376 JUMP JUMPDEST SWAP1 PUSH2 0x1769 PUSH1 0xFF PUSH1 0x2 PUSH2 0x1742 PUSH1 0x1 DUP6 ADD PUSH2 0x4376 JUMP JUMPDEST SWAP4 ADD SLOAD AND SWAP2 PUSH1 0x40 MLOAD SWAP5 DUP6 SWAP5 PUSH1 0x60 DUP7 MSTORE PUSH1 0x60 DUP7 ADD SWAP1 PUSH2 0x4279 JUMP JUMPDEST SWAP1 DUP5 DUP3 SUB PUSH1 0x20 DUP7 ADD MSTORE PUSH2 0x4279 JUMP JUMPDEST SWAP1 PUSH1 0x40 DUP4 ADD MSTORE SUB SWAP1 RETURN JUMPDEST CALLVALUE PUSH2 0x20A JUMPI PUSH1 0x20 CALLDATASIZE PUSH1 0x3 NOT ADD SLT PUSH2 0x20A JUMPI PUSH1 0x4 CALLDATALOAD PUSH1 0x1 PUSH1 0x1 PUSH1 0x40 SHL SUB DUP2 GT PUSH2 0x20A JUMPI PUSH2 0x17A3 SWAP1 CALLDATASIZE SWAP1 PUSH1 0x4 ADD PUSH2 0x41A1 JUMP JUMPDEST PUSH1 0x3 SLOAD PUSH1 0x20 DUP3 ADD SWAP2 PUSH0 DUP1 JUMPDEST DUP4 DUP2 LT PUSH2 0x1873 JUMPI POP PUSH1 0xFF PUSH2 0x17C2 SWAP2 AND PUSH2 0x4A48 JUMP JUMPDEST SWAP3 PUSH0 SWAP2 PUSH0 JUMPDEST DUP5 DUP2 LT PUSH2 0x17DC JUMPI PUSH1 0x40 MLOAD DUP1 PUSH2 0x3D2 DUP9 DUP3 PUSH2 0x4644 JUMP JUMPDEST PUSH1 0x2 PUSH2 0x5BF PUSH2 0x1801 PUSH2 0x17ED DUP5 PUSH2 0x4462 JUMP JUMPDEST POP PUSH1 0x40 MLOAD SWAP3 DUP4 SWAP2 PUSH1 0x20 DUP4 ADD SWAP6 DUP7 SWAP2 ADD PUSH2 0x48B9 JUMP JUMPDEST MLOAD SWAP1 KECCAK256 PUSH1 0x40 MLOAD PUSH1 0x20 DUP2 ADD SWAP1 PUSH2 0x182E PUSH1 0x20 DUP3 DUP8 MLOAD DUP1 DUP11 DUP8 MCOPY DUP2 ADD PUSH0 DUP4 DUP3 ADD MSTORE SUB ADD PUSH1 0x1F NOT DUP2 ADD DUP4 MSTORE DUP3 PUSH2 0x4180 JUMP JUMPDEST MLOAD SWAP1 KECCAK256 EQ PUSH2 0x183F JUMPI JUMPDEST PUSH1 0x1 ADD PUSH2 0x17C7 JUMP JUMPDEST SWAP3 PUSH2 0x186B PUSH1 0x1 SWAP2 PUSH2 0x407 PUSH2 0x1855 PUSH2 0x3EB DUP9 PUSH2 0x4462 JUMP JUMPDEST PUSH1 0xFF DUP4 AND SWAP1 PUSH2 0x1864 DUP3 DUP13 PUSH2 0x4AC5 JUMP JUMPDEST MSTORE DUP10 PUSH2 0x4AC5 JUMP JUMPDEST SWAP4 SWAP1 POP PUSH2 0x1837 JUMP JUMPDEST PUSH1 0x2 PUSH2 0x5BF PUSH2 0x1884 PUSH2 0x17ED DUP5 PUSH2 0x4462 JUMP JUMPDEST MLOAD SWAP1 KECCAK256 PUSH1 0x40 MLOAD PUSH1 0x20 DUP2 ADD SWAP1 PUSH2 0x18B1 PUSH1 0x20 DUP3 DUP9 MLOAD DUP1 DUP13 DUP8 MCOPY DUP2 ADD PUSH0 DUP4 DUP3 ADD MSTORE SUB ADD PUSH1 0x1F NOT DUP2 ADD DUP4 MSTORE DUP3 PUSH2 0x4180 JUMP JUMPDEST MLOAD SWAP1 KECCAK256 EQ PUSH2 0x18C2 JUMPI JUMPDEST PUSH1 0x1 ADD PUSH2 0x17AE JUMP JUMPDEST SWAP1 PUSH2 0x18CE PUSH1 0x1 SWAP2 PUSH2 0x4A20 JUMP JUMPDEST SWAP2 SWAP1 POP PUSH2 0x18BA JUMP JUMPDEST CALLVALUE PUSH2 0x20A JUMPI PUSH1 0x40 CALLDATASIZE PUSH1 0x3 NOT ADD SLT PUSH2 0x20A JUMPI PUSH1 0x4 CALLDATALOAD PUSH1 0x1 PUSH1 0x1 PUSH1 0x40 SHL SUB DUP2 GT PUSH2 0x20A JUMPI PUSH2 0x1906 SWAP1 CALLDATASIZE SWAP1 PUSH1 0x4 ADD PUSH2 0x41A1 JUMP JUMPDEST PUSH1 0x24 CALLDATALOAD PUSH1 0x1 PUSH1 0x1 PUSH1 0x40 SHL SUB DUP2 GT PUSH2 0x20A JUMPI PUSH2 0x1925 SWAP1 CALLDATASIZE SWAP1 PUSH1 0x4 ADD PUSH2 0x41F6 JUMP JUMPDEST PUSH2 0x192E DUP3 PUSH2 0x49A1 JUMP JUMPDEST PUSH1 0x3 SLOAD SWAP2 PUSH1 0x20 DUP2 ADD SWAP1 PUSH0 JUMPDEST DUP5 DUP2 LT PUSH2 0x1942 JUMPI STOP JUMPDEST PUSH2 0x194B DUP2 PUSH2 0x4462 JUMP JUMPDEST POP PUSH1 0x40 MLOAD PUSH2 0x1961 DUP2 PUSH2 0x5BF PUSH1 0x20 DUP3 ADD DUP1 SWAP6 PUSH2 0x48B9 JUMP JUMPDEST MLOAD SWAP1 KECCAK256 PUSH1 0x40 MLOAD PUSH1 0x20 DUP2 ADD SWAP1 PUSH2 0x198E PUSH1 0x20 DUP3 DUP8 MLOAD DUP1 DUP11 DUP8 MCOPY DUP2 ADD PUSH0 DUP4 DUP3 ADD MSTORE SUB ADD PUSH1 0x1F NOT DUP2 ADD DUP4 MSTORE DUP3 PUSH2 0x4180 JUMP JUMPDEST MLOAD SWAP1 KECCAK256 EQ PUSH2 0x199F JUMPI JUMPDEST PUSH1 0x1 ADD PUSH2 0x1939 JUMP JUMPDEST PUSH1 0x3 PUSH2 0x19AA DUP3 PUSH2 0x4462 JUMP JUMPDEST POP ADD DUP1 SLOAD PUSH2 0xFF00 NOT AND PUSH2 0x800 OR SWAP1 SSTORE PUSH2 0x19C7 PUSH1 0x20 PUSH2 0x633 DUP4 PUSH2 0x4462 JUMP JUMPDEST PUSH1 0x7 DUP2 MSTORE SUB ADD SWAP1 KECCAK256 DUP5 MLOAD DUP1 MLOAD SWAP1 PUSH1 0x1 PUSH1 0x1 PUSH1 0x40 SHL SUB DUP3 GT PUSH2 0x35E JUMPI DUP2 SWAP1 PUSH2 0x19EE DUP5 SLOAD PUSH2 0x433E JUMP JUMPDEST PUSH1 0x1F DUP2 GT PUSH2 0x1CBC JUMPI JUMPDEST POP PUSH1 0x20 SWAP1 PUSH1 0x1F DUP4 GT PUSH1 0x1 EQ PUSH2 0x1C59 JUMPI PUSH0 SWAP3 PUSH2 0x1C4E JUMPI JUMPDEST POP POP DUP2 PUSH1 0x1 SHL SWAP2 PUSH0 NOT SWAP1 PUSH1 0x3 SHL SHR NOT AND OR DUP2 SSTORE JUMPDEST PUSH1 0x1 DUP2 ADD PUSH1 0x20 DUP7 ADD MLOAD DUP1 MLOAD SWAP1 PUSH1 0x1 PUSH1 0x1 PUSH1 0x40 SHL SUB DUP3 GT PUSH2 0x35E JUMPI PUSH2 0x1A45 DUP4 SLOAD PUSH2 0x433E JUMP JUMPDEST PUSH1 0x1F DUP2 GT PUSH2 0x1C09 JUMPI JUMPDEST POP PUSH1 0x20 SWAP1 PUSH1 0x1F DUP4 GT PUSH1 0x1 EQ PUSH2 0x1BA2 JUMPI PUSH1 0x2 SWAP5 SWAP4 SWAP3 SWAP2 PUSH0 SWAP2 DUP4 PUSH2 0x1B97 JUMPI JUMPDEST POP POP DUP2 PUSH1 0x1 SHL SWAP2 PUSH0 NOT SWAP1 PUSH1 0x3 SHL SHR NOT AND OR SWAP1 SSTORE JUMPDEST ADD PUSH1 0x40 DUP6 ADD MLOAD DUP1 MLOAD SWAP1 PUSH1 0x1 PUSH1 0x1 PUSH1 0x40 SHL SUB DUP3 GT PUSH2 0x35E JUMPI PUSH2 0x1AA0 DUP4 SLOAD PUSH2 0x433E JUMP JUMPDEST PUSH1 0x1F DUP2 GT PUSH2 0x1B52 JUMPI JUMPDEST POP PUSH1 0x20 SWAP1 PUSH1 0x1F DUP4 GT PUSH1 0x1 EQ PUSH2 0x1AEB JUMPI PUSH1 0x1 SWAP5 SWAP4 SWAP3 SWAP2 PUSH0 SWAP2 DUP4 PUSH2 0x1AE0 JUMPI JUMPDEST POP POP PUSH0 NOT PUSH1 0x3 DUP4 SWAP1 SHL SHR NOT AND SWAP1 DUP5 SHL OR SWAP1 SSTORE JUMPDEST SWAP1 POP PUSH2 0x1997 JUMP JUMPDEST ADD MLOAD SWAP1 POP DUP10 DUP1 PUSH2 0x1AC6 JUMP JUMPDEST SWAP1 PUSH1 0x1F NOT DUP4 AND SWAP2 DUP5 PUSH0 MSTORE DUP2 PUSH0 KECCAK256 SWAP3 PUSH0 JUMPDEST DUP2 DUP2 LT PUSH2 0x1B3A JUMPI POP SWAP2 PUSH1 0x1 SWAP7 SWAP6 SWAP5 SWAP3 SWAP2 DUP4 DUP9 SWAP6 SWAP4 LT PUSH2 0x1B22 JUMPI JUMPDEST POP POP POP DUP2 SHL ADD SWAP1 SSTORE PUSH2 0x1AD9 JUMP JUMPDEST ADD MLOAD PUSH0 NOT PUSH1 0xF8 DUP5 PUSH1 0x3 SHL AND SHR NOT AND SWAP1 SSTORE DUP10 DUP1 DUP1 PUSH2 0x1B15 JUMP JUMPDEST SWAP3 SWAP4 PUSH1 0x20 PUSH1 0x1 DUP2 SWAP3 DUP8 DUP7 ADD MLOAD DUP2 SSTORE ADD SWAP6 ADD SWAP4 ADD PUSH2 0x1AFB JUMP JUMPDEST DUP4 PUSH0 MSTORE PUSH1 0x20 PUSH0 KECCAK256 PUSH1 0x1F DUP5 ADD PUSH1 0x5 SHR DUP2 ADD SWAP2 PUSH1 0x20 DUP6 LT PUSH2 0x1B8D JUMPI JUMPDEST PUSH1 0x1F ADD PUSH1 0x5 SHR ADD SWAP1 JUMPDEST DUP2 DUP2 LT PUSH2 0x1B82 JUMPI POP PUSH2 0x1AA9 JUMP JUMPDEST PUSH0 DUP2 SSTORE PUSH1 0x1 ADD PUSH2 0x1B75 JUMP JUMPDEST SWAP1 SWAP2 POP DUP2 SWAP1 PUSH2 0x1B6C JUMP JUMPDEST ADD MLOAD SWAP1 POP DUP11 DUP1 PUSH2 0x1A6B JUMP JUMPDEST SWAP1 PUSH1 0x1F NOT DUP4 AND SWAP2 DUP5 PUSH0 MSTORE DUP2 PUSH0 KECCAK256 SWAP3 PUSH0 JUMPDEST DUP2 DUP2 LT PUSH2 0x1BF1 JUMPI POP SWAP2 PUSH1 0x1 SWAP4 SWAP2 DUP6 PUSH1 0x2 SWAP9 SWAP8 SWAP7 SWAP5 LT PUSH2 0x1BD9 JUMPI JUMPDEST POP POP POP DUP2 SHL ADD SWAP1 SSTORE PUSH2 0x1A7F JUMP JUMPDEST ADD MLOAD PUSH0 NOT PUSH1 0xF8 DUP5 PUSH1 0x3 SHL AND SHR NOT AND SWAP1 SSTORE DUP11 DUP1 DUP1 PUSH2 0x1BCC JUMP JUMPDEST SWAP3 SWAP4 PUSH1 0x20 PUSH1 0x1 DUP2 SWAP3 DUP8 DUP7 ADD MLOAD DUP2 SSTORE ADD SWAP6 ADD SWAP4 ADD PUSH2 0x1BB2 JUMP JUMPDEST DUP4 PUSH0 MSTORE PUSH1 0x20 PUSH0 KECCAK256 PUSH1 0x1F DUP5 ADD PUSH1 0x5 SHR DUP2 ADD SWAP2 PUSH1 0x20 DUP6 LT PUSH2 0x1C44 JUMPI JUMPDEST PUSH1 0x1F ADD PUSH1 0x5 SHR ADD SWAP1 JUMPDEST DUP2 DUP2 LT PUSH2 0x1C39 JUMPI POP PUSH2 0x1A4E JUMP JUMPDEST PUSH0 DUP2 SSTORE PUSH1 0x1 ADD PUSH2 0x1C2C JUMP JUMPDEST SWAP1 SWAP2 POP DUP2 SWAP1 PUSH2 0x1C23 JUMP JUMPDEST ADD MLOAD SWAP1 POP DUP9 DUP1 PUSH2 0x1A0D JUMP JUMPDEST PUSH0 DUP6 DUP2 MSTORE DUP3 DUP2 KECCAK256 SWAP4 POP PUSH1 0x1F NOT DUP6 AND SWAP1 JUMPDEST DUP2 DUP2 LT PUSH2 0x1CA4 JUMPI POP SWAP1 DUP5 PUSH1 0x1 SWAP6 SWAP5 SWAP4 SWAP3 LT PUSH2 0x1C8C JUMPI JUMPDEST POP POP POP DUP2 SHL ADD DUP2 SSTORE PUSH2 0x1A21 JUMP JUMPDEST ADD MLOAD PUSH0 NOT PUSH1 0xF8 DUP5 PUSH1 0x3 SHL AND SHR NOT AND SWAP1 SSTORE DUP9 DUP1 DUP1 PUSH2 0x1C7F JUMP JUMPDEST SWAP3 SWAP4 PUSH1 0x20 PUSH1 0x1 DUP2 SWAP3 DUP8 DUP7 ADD MLOAD DUP2 SSTORE ADD SWAP6 ADD SWAP4 ADD PUSH2 0x1C69 JUMP JUMPDEST SWAP1 SWAP2 POP DUP4 PUSH0 MSTORE PUSH1 0x20 PUSH0 KECCAK256 PUSH1 0x1F DUP5 ADD PUSH1 0x5 SHR DUP2 ADD SWAP2 PUSH1 0x20 DUP6 LT PUSH2 0x1D02 JUMPI JUMPDEST SWAP1 PUSH1 0x1F DUP6 SWAP5 SWAP4 SWAP3 ADD PUSH1 0x5 SHR ADD SWAP1 JUMPDEST DUP2 DUP2 LT PUSH2 0x1CF4 JUMPI POP PUSH2 0x19F7 JUMP JUMPDEST PUSH0 DUP2 SSTORE DUP5 SWAP4 POP PUSH1 0x1 ADD PUSH2 0x1CE7 JUMP JUMPDEST SWAP1 SWAP2 POP DUP2 SWAP1 PUSH2 0x1CD9 JUMP JUMPDEST CALLVALUE PUSH2 0x20A JUMPI PUSH1 0xE0 CALLDATASIZE PUSH1 0x3 NOT ADD SLT PUSH2 0x20A JUMPI PUSH1 0x4 CALLDATALOAD PUSH1 0x1 PUSH1 0x1 PUSH1 0x40 SHL SUB DUP2 GT PUSH2 0x20A JUMPI PUSH2 0x1D3C SWAP1 CALLDATASIZE SWAP1 PUSH1 0x4 ADD PUSH2 0x41A1 JUMP JUMPDEST PUSH1 0x24 CALLDATALOAD PUSH1 0x1 PUSH1 0x1 PUSH1 0x40 SHL SUB DUP2 GT PUSH2 0x20A JUMPI PUSH2 0x1D5B SWAP1 CALLDATASIZE SWAP1 PUSH1 0x4 ADD PUSH2 0x41A1 JUMP JUMPDEST PUSH1 0x44 CALLDATALOAD PUSH1 0x1 PUSH1 0x1 PUSH1 0x40 SHL SUB DUP2 GT PUSH2 0x20A JUMPI PUSH2 0x1D7A SWAP1 CALLDATASIZE SWAP1 PUSH1 0x4 ADD PUSH2 0x41A1 JUMP JUMPDEST SWAP2 PUSH1 0x64 CALLDATALOAD PUSH1 0x1 PUSH1 0x1 PUSH1 0xA0 SHL SUB DUP2 AND DUP2 SUB PUSH2 0x20A JUMPI PUSH1 0x84 CALLDATALOAD SWAP4 PUSH1 0xFF DUP6 AND DUP1 SWAP6 SUB PUSH2 0x20A JUMPI PUSH1 0xA4 CALLDATALOAD PUSH1 0x1 PUSH1 0x1 PUSH1 0x40 SHL SUB DUP2 GT PUSH2 0x20A JUMPI PUSH2 0x1DBC SWAP1 CALLDATASIZE SWAP1 PUSH1 0x4 ADD PUSH2 0x4492 JUMP JUMPDEST SWAP2 PUSH1 0xC4 CALLDATALOAD SWAP1 PUSH1 0x1 PUSH1 0x1 PUSH1 0x40 SHL SUB DUP3 GT PUSH2 0x20A JUMPI DUP3 PUSH2 0x1DE1 PUSH2 0x1DE7 SWAP4 CALLDATASIZE SWAP1 PUSH1 0x4 ADD PUSH2 0x44EC JUMP JUMPDEST SWAP7 PUSH2 0x4971 JUMP JUMPDEST SWAP5 PUSH2 0x1E37 DUP5 PUSH1 0x20 SWAP8 PUSH1 0x40 MLOAD SWAP1 PUSH2 0x1DFD DUP11 DUP4 PUSH2 0x4180 JUMP JUMPDEST PUSH0 DUP3 MSTORE PUSH1 0x40 MLOAD PUSH2 0x1E0D DUP12 DUP3 PUSH2 0x4180 JUMP JUMPDEST PUSH0 DUP2 MSTORE PUSH2 0x1E18 PUSH2 0x4923 JUMP JUMPDEST POP PUSH1 0x40 MLOAD SWAP3 PUSH2 0x1E26 DUP5 PUSH2 0x40F7 JUMP JUMPDEST DUP4 MSTORE DUP11 DUP4 ADD MSTORE PUSH0 PUSH1 0x40 DUP4 ADD MSTORE PUSH2 0x56A4 JUMP JUMPDEST PUSH1 0x40 MLOAD PUSH2 0x1E43 DUP2 PUSH2 0x40F7 JUMP JUMPDEST DUP5 DUP2 MSTORE PUSH1 0x40 MLOAD PUSH2 0x1E53 DUP9 DUP3 PUSH2 0x4180 JUMP JUMPDEST PUSH0 DUP2 MSTORE DUP8 DUP3 ADD SWAP1 DUP2 MSTORE PUSH1 0x40 DUP3 ADD SWAP1 DUP4 DUP3 MSTORE PUSH1 0x40 MLOAD DUP10 DUP2 DUP10 MLOAD DUP1 DUP4 DUP13 ADD DUP4 MCOPY DUP2 ADD PUSH1 0x4 DUP2 MSTORE SUB ADD SWAP1 KECCAK256 SWAP3 MLOAD DUP1 MLOAD SWAP1 PUSH1 0x1 PUSH1 0x1 PUSH1 0x40 SHL SUB DUP3 GT PUSH2 0x35E JUMPI DUP2 SWAP1 PUSH2 0x1E9A DUP7 SLOAD PUSH2 0x433E JUMP JUMPDEST PUSH1 0x1F DUP2 GT PUSH2 0x3060 JUMPI JUMPDEST POP DUP12 SWAP1 PUSH1 0x1F DUP4 GT PUSH1 0x1 EQ PUSH2 0x2FFB JUMPI PUSH0 SWAP3 PUSH2 0x2FF0 JUMPI JUMPDEST POP POP DUP2 PUSH1 0x1 SHL SWAP2 PUSH0 NOT SWAP1 PUSH1 0x3 SHL SHR NOT AND OR DUP4 SSTORE JUMPDEST MLOAD DUP1 MLOAD PUSH1 0x1 DUP5 ADD SWAP2 PUSH1 0x1 PUSH1 0x1 PUSH1 0x40 SHL SUB DUP3 GT PUSH2 0x35E JUMPI PUSH2 0x1EEC DUP4 SLOAD PUSH2 0x433E JUMP JUMPDEST PUSH1 0x1F DUP2 GT PUSH2 0x2FAD JUMPI JUMPDEST POP DUP11 SWAP1 PUSH1 0x1F DUP4 GT PUSH1 0x1 EQ PUSH2 0x2F40 JUMPI SWAP3 DUP3 PUSH1 0xFF SWAP6 SWAP3 SWAP4 DUP7 SWAP5 PUSH1 0x2 SWAP7 PUSH0 SWAP3 PUSH2 0x2F35 JUMPI JUMPDEST POP POP DUP2 PUSH1 0x1 SHL SWAP2 PUSH0 NOT SWAP1 PUSH1 0x3 SHL SHR NOT AND OR SWAP1 SSTORE JUMPDEST MLOAD AND SWAP3 ADD SWAP2 AND PUSH1 0xFF NOT DUP3 SLOAD AND OR SWAP1 SSTORE PUSH1 0x40 MLOAD SWAP1 PUSH2 0x1F46 DUP3 PUSH2 0x4112 JUMP JUMPDEST DUP5 DUP3 MSTORE PUSH1 0x40 MLOAD SWAP3 PUSH2 0x1F57 DUP9 DUP6 PUSH2 0x4180 JUMP JUMPDEST PUSH0 DUP5 MSTORE DUP8 DUP4 ADD SWAP4 DUP5 MSTORE PUSH1 0x40 DUP4 ADD MSTORE PUSH1 0x60 DUP3 ADD MSTORE PUSH0 PUSH1 0x80 DUP3 ADD MSTORE PUSH1 0x40 MLOAD PUSH2 0x1F7D DUP8 DUP3 PUSH2 0x4180 JUMP JUMPDEST PUSH0 DUP2 MSTORE PUSH1 0xA0 DUP3 ADD MSTORE PUSH0 PUSH1 0xC0 DUP3 ADD MSTORE PUSH1 0x3 SLOAD PUSH9 0x10000000000000000 DUP2 LT ISZERO PUSH2 0x35E JUMPI DUP1 PUSH1 0x1 PUSH2 0x1FAF SWAP3 ADD PUSH1 0x3 SSTORE PUSH2 0x4462 JUMP JUMPDEST SWAP3 SWAP1 SWAP3 PUSH2 0x2F22 JUMPI DUP2 MLOAD DUP1 MLOAD SWAP1 PUSH1 0x1 PUSH1 0x1 PUSH1 0x40 SHL SUB DUP3 GT PUSH2 0x35E JUMPI DUP2 SWAP1 PUSH2 0x1FD5 DUP7 SLOAD PUSH2 0x433E JUMP JUMPDEST PUSH1 0x1F DUP2 GT PUSH2 0x2ED4 JUMPI JUMPDEST POP DUP10 SWAP1 PUSH1 0x1F DUP4 GT PUSH1 0x1 EQ PUSH2 0x2E71 JUMPI PUSH0 SWAP3 PUSH2 0x2E66 JUMPI JUMPDEST POP POP DUP2 PUSH1 0x1 SHL SWAP2 PUSH0 NOT SWAP1 PUSH1 0x3 SHL SHR NOT AND OR DUP4 SSTORE JUMPDEST MLOAD DUP1 MLOAD SWAP1 PUSH1 0x1 PUSH1 0x1 PUSH1 0x40 SHL SUB DUP3 GT PUSH2 0x35E JUMPI DUP2 SWAP1 PUSH2 0x2028 PUSH1 0x1 DUP7 ADD SLOAD PUSH2 0x433E JUMP JUMPDEST PUSH1 0x1F DUP2 GT PUSH2 0x2E15 JUMPI JUMPDEST POP DUP9 SWAP1 PUSH1 0x1F DUP4 GT PUSH1 0x1 EQ PUSH2 0x2DAB JUMPI PUSH0 SWAP3 PUSH2 0x2DA0 JUMPI JUMPDEST POP POP DUP2 PUSH1 0x1 SHL SWAP2 PUSH0 NOT SWAP1 PUSH1 0x3 SHL SHR NOT AND OR PUSH1 0x1 DUP4 ADD SSTORE JUMPDEST PUSH1 0x2 DUP3 ADD PUSH1 0x40 DUP3 ADD MLOAD DUP1 MLOAD SWAP1 PUSH1 0x1 PUSH1 0x1 PUSH1 0x40 SHL SUB DUP3 GT PUSH2 0x35E JUMPI DUP2 SWAP1 PUSH2 0x2083 DUP5 SLOAD PUSH2 0x433E JUMP JUMPDEST PUSH1 0x1F DUP2 GT PUSH2 0x2D52 JUMPI JUMPDEST POP DUP10 SWAP1 PUSH1 0x1F DUP4 GT PUSH1 0x1 EQ PUSH2 0x2CEF JUMPI PUSH0 SWAP3 PUSH2 0x2CE4 JUMPI JUMPDEST POP POP DUP2 PUSH1 0x1 SHL SWAP2 PUSH0 NOT SWAP1 PUSH1 0x3 SHL SHR NOT AND OR SWAP1 SSTORE JUMPDEST PUSH1 0x3 DUP3 ADD PUSH1 0xFF DUP1 PUSH1 0x60 DUP5 ADD MLOAD AND AND PUSH1 0xFF NOT DUP3 SLOAD AND OR DUP2 SSTORE PUSH1 0x80 DUP3 ADD MLOAD PUSH1 0x9 DUP2 LT ISZERO PUSH2 0x2CD0 JUMPI PUSH2 0xFF00 DUP3 SLOAD SWAP2 PUSH1 0x8 SHL AND SWAP1 PUSH2 0xFF00 NOT AND OR SWAP1 SSTORE PUSH1 0x4 DUP3 ADD PUSH1 0xA0 DUP3 ADD MLOAD DUP1 MLOAD SWAP1 PUSH1 0x1 PUSH1 0x1 PUSH1 0x40 SHL SUB DUP3 GT PUSH2 0x35E JUMPI PUSH2 0x2111 DUP4 SLOAD PUSH2 0x433E JUMP JUMPDEST PUSH1 0x1F DUP2 GT PUSH2 0x2C8D JUMPI JUMPDEST POP DUP9 SWAP1 PUSH1 0x1F DUP4 GT PUSH1 0x1 EQ PUSH2 0x2C24 JUMPI SWAP2 DUP1 PUSH1 0xC0 SWAP5 SWAP3 PUSH1 0x5 SWAP7 SWAP5 PUSH0 SWAP3 PUSH2 0x2C19 JUMPI JUMPDEST POP POP DUP2 PUSH1 0x1 SHL SWAP2 PUSH0 NOT SWAP1 PUSH1 0x3 SHL SHR NOT AND OR SWAP1 SSTORE JUMPDEST ADD MLOAD SWAP2 ADD SSTORE PUSH1 0x40 MLOAD DUP5 DUP2 DUP5 MLOAD DUP1 DUP4 DUP8 ADD DUP4 MCOPY DUP2 ADD PUSH1 0x5 DUP2 MSTORE SUB ADD SWAP1 KECCAK256 DUP2 MLOAD SWAP1 DUP2 MLOAD PUSH1 0x1 PUSH1 0x1 PUSH1 0x40 SHL SUB DUP2 GT PUSH2 0x35E JUMPI DUP7 SWAP3 PUSH2 0x2188 DUP4 SLOAD PUSH2 0x433E JUMP JUMPDEST PUSH1 0x1F DUP2 GT PUSH2 0x2BC7 JUMPI JUMPDEST POP DUP4 SWAP1 PUSH1 0x1F DUP4 GT PUSH1 0x1 EQ PUSH2 0x2B61 JUMPI PUSH1 0x1 SWAP4 SWAP3 SWAP2 PUSH0 SWAP2 DUP4 PUSH2 0x2B56 JUMPI JUMPDEST POP POP PUSH0 NOT PUSH1 0x3 DUP4 SWAP1 SHL SHR NOT AND SWAP1 DUP4 SHL OR DUP2 SSTORE JUMPDEST ADD SWAP2 ADD MLOAD SWAP2 DUP3 MLOAD SWAP2 PUSH1 0x1 PUSH1 0x1 PUSH1 0x40 SHL SUB DUP4 GT PUSH2 0x35E JUMPI DUP6 SWAP3 PUSH2 0x21E1 DUP3 SLOAD PUSH2 0x433E JUMP JUMPDEST SWAP5 PUSH1 0x1F DUP7 GT PUSH2 0x2AFF JUMPI JUMPDEST DUP5 SWAP6 POP DUP5 SWAP1 PUSH1 0x1F DUP4 GT PUSH1 0x1 EQ PUSH2 0x2A98 JUMPI PUSH0 SWAP2 SWAP1 DUP4 PUSH2 0x2A8D JUMPI JUMPDEST POP POP DUP2 PUSH1 0x1 SHL SWAP2 PUSH0 NOT SWAP1 PUSH1 0x3 SHL SHR NOT AND OR SWAP1 SSTORE JUMPDEST PUSH1 0x40 MLOAD SWAP3 DUP2 DUP5 SWAP3 MLOAD SWAP2 DUP3 SWAP2 ADD DUP4 MCOPY DUP2 ADD PUSH1 0x6 DUP2 MSTORE SUB ADD SWAP1 KECCAK256 SWAP1 DUP1 MLOAD SWAP2 DUP3 MLOAD PUSH1 0x1 PUSH1 0x1 PUSH1 0x40 SHL SUB DUP2 GT PUSH2 0x35E JUMPI PUSH2 0x224E DUP3 SLOAD PUSH2 0x433E JUMP JUMPDEST PUSH1 0x1F DUP2 GT PUSH2 0x2A4A JUMPI JUMPDEST POP DUP5 SWAP4 PUSH1 0x1F DUP3 GT PUSH1 0x1 EQ PUSH2 0x29EA JUMPI SWAP4 DUP2 SWAP3 SWAP4 SWAP5 PUSH0 SWAP3 PUSH2 0x29DF JUMPI JUMPDEST POP POP DUP2 PUSH1 0x1 SHL SWAP2 PUSH0 NOT SWAP1 PUSH1 0x3 SHL SHR NOT AND OR DUP2 SSTORE JUMPDEST PUSH1 0x1 DUP2 ADD DUP4 DUP4 ADD MLOAD DUP1 MLOAD SWAP1 PUSH1 0x1 PUSH1 0x1 PUSH1 0x40 SHL SUB DUP3 GT PUSH2 0x35E JUMPI DUP2 SWAP1 PUSH2 0x22AA DUP5 SLOAD PUSH2 0x433E JUMP JUMPDEST PUSH1 0x1F DUP2 GT PUSH2 0x2991 JUMPI JUMPDEST POP DUP7 SWAP1 PUSH1 0x1F DUP4 GT PUSH1 0x1 EQ PUSH2 0x292E JUMPI PUSH0 SWAP3 PUSH2 0x2923 JUMPI JUMPDEST POP POP DUP2 PUSH1 0x1 SHL SWAP2 PUSH0 NOT SWAP1 PUSH1 0x3 SHL SHR NOT AND OR SWAP1 SSTORE JUMPDEST PUSH1 0x2 DUP2 ADD PUSH1 0x40 DUP4 ADD MLOAD DUP1 MLOAD SWAP1 PUSH1 0x1 PUSH1 0x1 PUSH1 0x40 SHL SUB DUP3 GT PUSH2 0x35E JUMPI DUP2 SWAP1 PUSH2 0x2302 DUP5 SLOAD PUSH2 0x433E JUMP JUMPDEST PUSH1 0x1F DUP2 GT PUSH2 0x28D5 JUMPI JUMPDEST POP DUP7 SWAP1 PUSH1 0x1F DUP4 GT PUSH1 0x1 EQ PUSH2 0x2872 JUMPI PUSH0 SWAP3 PUSH2 0x2867 JUMPI JUMPDEST POP POP DUP2 PUSH1 0x1 SHL SWAP2 PUSH0 NOT SWAP1 PUSH1 0x3 SHL SHR NOT AND OR SWAP1 SSTORE JUMPDEST PUSH1 0x3 DUP2 ADD PUSH1 0x60 DUP4 ADD MLOAD DUP1 MLOAD SWAP1 PUSH1 0x1 PUSH1 0x1 PUSH1 0x40 SHL SUB DUP3 GT PUSH2 0x35E JUMPI DUP2 SWAP1 PUSH2 0x235A DUP5 SLOAD PUSH2 0x433E JUMP JUMPDEST PUSH1 0x1F DUP2 GT PUSH2 0x2819 JUMPI JUMPDEST POP DUP7 SWAP1 PUSH1 0x1F DUP4 GT PUSH1 0x1 EQ PUSH2 0x27B6 JUMPI PUSH0 SWAP3 PUSH2 0x27AB JUMPI JUMPDEST POP POP DUP2 PUSH1 0x1 SHL SWAP2 PUSH0 NOT SWAP1 PUSH1 0x3 SHL SHR NOT AND OR SWAP1 SSTORE JUMPDEST PUSH1 0x4 DUP2 ADD PUSH1 0x80 DUP4 ADD MLOAD DUP1 MLOAD SWAP1 PUSH1 0x1 PUSH1 0x1 PUSH1 0x40 SHL SUB DUP3 GT PUSH2 0x35E JUMPI DUP2 SWAP1 PUSH2 0x23B2 DUP5 SLOAD PUSH2 0x433E JUMP JUMPDEST PUSH1 0x1F DUP2 GT PUSH2 0x275D JUMPI JUMPDEST POP DUP7 SWAP1 PUSH1 0x1F DUP4 GT PUSH1 0x1 EQ PUSH2 0x26FA JUMPI PUSH0 SWAP3 PUSH2 0x26EF JUMPI JUMPDEST POP POP DUP2 PUSH1 0x1 SHL SWAP2 PUSH0 NOT SWAP1 PUSH1 0x3 SHL SHR NOT AND OR SWAP1 SSTORE JUMPDEST PUSH1 0x5 DUP2 ADD PUSH1 0xA0 DUP4 ADD MLOAD DUP1 MLOAD SWAP1 PUSH1 0x1 PUSH1 0x1 PUSH1 0x40 SHL SUB DUP3 GT PUSH2 0x35E JUMPI DUP2 SWAP1 PUSH2 0x240A DUP5 SLOAD PUSH2 0x433E JUMP JUMPDEST PUSH1 0x1F DUP2 GT PUSH2 0x26A1 JUMPI JUMPDEST POP DUP7 SWAP1 PUSH1 0x1F DUP4 GT PUSH1 0x1 EQ PUSH2 0x263E JUMPI PUSH0 SWAP3 PUSH2 0x2633 JUMPI JUMPDEST POP POP DUP2 PUSH1 0x1 SHL SWAP2 PUSH0 NOT SWAP1 PUSH1 0x3 SHL SHR NOT AND OR SWAP1 SSTORE JUMPDEST PUSH1 0x6 DUP2 ADD PUSH1 0xC0 DUP4 ADD MLOAD DUP1 MLOAD SWAP1 PUSH1 0x1 PUSH1 0x1 PUSH1 0x40 SHL SUB DUP3 GT PUSH2 0x35E JUMPI PUSH2 0x2460 DUP4 SLOAD PUSH2 0x433E JUMP JUMPDEST PUSH1 0x1F DUP2 GT PUSH2 0x25F0 JUMPI JUMPDEST POP DUP6 SWAP1 PUSH1 0x1F DUP4 GT PUSH1 0x1 EQ PUSH2 0x2587 JUMPI SWAP2 DUP1 PUSH1 0x7 SWAP5 SWAP3 PUSH1 0xE0 SWAP7 SWAP5 PUSH0 SWAP3 PUSH2 0x257C JUMPI JUMPDEST POP POP DUP2 PUSH1 0x1 SHL SWAP2 PUSH0 NOT SWAP1 PUSH1 0x3 SHL SHR NOT AND OR SWAP1 SSTORE JUMPDEST ADD SWAP2 ADD MLOAD SWAP2 DUP3 MLOAD SWAP1 PUSH1 0x1 PUSH1 0x1 PUSH1 0x40 SHL SUB DUP3 GT PUSH2 0x35E JUMPI PUSH2 0x24BC DUP4 SLOAD PUSH2 0x433E JUMP JUMPDEST PUSH1 0x1F DUP2 GT PUSH2 0x2539 JUMPI JUMPDEST POP DUP1 PUSH1 0x1F DUP4 GT PUSH1 0x1 EQ PUSH2 0x24F3 JUMPI POP DUP2 SWAP3 SWAP4 PUSH0 SWAP3 PUSH2 0x2B2 JUMPI POP POP PUSH0 NOT PUSH1 0x3 DUP4 SWAP1 SHL SHR NOT AND PUSH1 0x1 SWAP2 SWAP1 SWAP2 SHL OR SWAP1 SSTORE STOP JUMPDEST SWAP1 PUSH1 0x1F NOT DUP4 AND SWAP5 DUP5 PUSH0 MSTORE DUP3 PUSH0 KECCAK256 SWAP3 PUSH0 SWAP1 JUMPDEST DUP8 DUP3 LT PUSH2 0x2521 JUMPI POP POP DUP4 PUSH1 0x1 SWAP6 SWAP7 LT PUSH2 0x2E9 JUMPI POP POP POP DUP2 SHL ADD SWAP1 SSTORE STOP JUMPDEST DUP1 PUSH1 0x1 DUP6 SWAP7 DUP3 SWAP5 SWAP7 DUP7 ADD MLOAD DUP2 SSTORE ADD SWAP6 ADD SWAP4 ADD SWAP1 PUSH2 0x2504 JUMP JUMPDEST DUP4 PUSH0 MSTORE DUP2 PUSH0 KECCAK256 PUSH1 0x1F DUP5 ADD PUSH1 0x5 SHR DUP2 ADD SWAP2 DUP4 DUP6 LT PUSH2 0x2572 JUMPI JUMPDEST PUSH1 0x1F ADD PUSH1 0x5 SHR ADD SWAP1 JUMPDEST DUP2 DUP2 LT PUSH2 0x2567 JUMPI POP PUSH2 0x24C5 JUMP JUMPDEST PUSH0 DUP2 SSTORE PUSH1 0x1 ADD PUSH2 0x255A JUMP JUMPDEST SWAP1 SWAP2 POP DUP2 SWAP1 PUSH2 0x2551 JUMP JUMPDEST ADD MLOAD SWAP1 POP DUP9 DUP1 PUSH2 0x2488 JUMP JUMPDEST SWAP1 PUSH1 0x1F NOT DUP4 AND SWAP2 DUP5 PUSH0 MSTORE DUP8 PUSH0 KECCAK256 SWAP3 PUSH0 JUMPDEST DUP10 DUP3 DUP3 LT PUSH2 0x25DA JUMPI POP POP SWAP3 PUSH1 0x1 SWAP3 DUP6 SWAP3 PUSH1 0xE0 SWAP9 SWAP7 PUSH1 0x7 SWAP9 SWAP7 LT PUSH2 0x25C2 JUMPI JUMPDEST POP POP POP DUP2 SHL ADD SWAP1 SSTORE PUSH2 0x249C JUMP JUMPDEST ADD MLOAD PUSH0 NOT PUSH1 0xF8 DUP5 PUSH1 0x3 SHL AND SHR NOT AND SWAP1 SSTORE DUP9 DUP1 DUP1 PUSH2 0x25B5 JUMP JUMPDEST PUSH1 0x1 DUP6 SWAP7 DUP3 SWAP4 SWAP7 DUP7 ADD MLOAD DUP2 SSTORE ADD SWAP6 ADD SWAP4 ADD PUSH2 0x2597 JUMP JUMPDEST DUP4 PUSH0 MSTORE DUP7 PUSH0 KECCAK256 PUSH1 0x1F DUP5 ADD PUSH1 0x5 SHR DUP2 ADD SWAP2 DUP9 DUP6 LT PUSH2 0x2629 JUMPI JUMPDEST PUSH1 0x1F ADD PUSH1 0x5 SHR ADD SWAP1 JUMPDEST DUP2 DUP2 LT PUSH2 0x261E JUMPI POP PUSH2 0x2469 JUMP JUMPDEST PUSH0 DUP2 SSTORE PUSH1 0x1 ADD PUSH2 0x2611 JUMP JUMPDEST SWAP1 SWAP2 POP DUP2 SWAP1 PUSH2 0x2608 JUMP JUMPDEST ADD MLOAD SWAP1 POP DUP7 DUP1 PUSH2 0x2428 JUMP JUMPDEST PUSH0 DUP6 DUP2 MSTORE DUP9 DUP2 KECCAK256 SWAP4 POP PUSH1 0x1F NOT DUP6 AND SWAP1 JUMPDEST DUP10 DUP3 DUP3 LT PUSH2 0x268B JUMPI POP POP SWAP1 DUP5 PUSH1 0x1 SWAP6 SWAP5 SWAP4 SWAP3 LT PUSH2 0x2673 JUMPI JUMPDEST POP POP POP DUP2 SHL ADD SWAP1 SSTORE PUSH2 0x243C JUMP JUMPDEST ADD MLOAD PUSH0 NOT PUSH1 0xF8 DUP5 PUSH1 0x3 SHL AND SHR NOT AND SWAP1 SSTORE DUP7 DUP1 DUP1 PUSH2 0x2666 JUMP JUMPDEST PUSH1 0x1 DUP6 SWAP7 DUP3 SWAP4 SWAP7 DUP7 ADD MLOAD DUP2 SSTORE ADD SWAP6 ADD SWAP4 ADD PUSH2 0x264E JUMP JUMPDEST SWAP1 SWAP2 POP DUP4 PUSH0 MSTORE DUP7 PUSH0 KECCAK256 PUSH1 0x1F DUP5 ADD PUSH1 0x5 SHR DUP2 ADD SWAP2 DUP9 DUP6 LT PUSH2 0x26E5 JUMPI JUMPDEST SWAP1 PUSH1 0x1F DUP6 SWAP5 SWAP4 SWAP3 ADD PUSH1 0x5 SHR ADD SWAP1 JUMPDEST DUP2 DUP2 LT PUSH2 0x26D7 JUMPI POP PUSH2 0x2413 JUMP JUMPDEST PUSH0 DUP2 SSTORE DUP5 SWAP4 POP PUSH1 0x1 ADD PUSH2 0x26CA JUMP JUMPDEST SWAP1 SWAP2 POP DUP2 SWAP1 PUSH2 0x26BC JUMP JUMPDEST ADD MLOAD SWAP1 POP DUP7 DUP1 PUSH2 0x23D0 JUMP JUMPDEST PUSH0 DUP6 DUP2 MSTORE DUP9 DUP2 KECCAK256 SWAP4 POP PUSH1 0x1F NOT DUP6 AND SWAP1 JUMPDEST DUP10 DUP3 DUP3 LT PUSH2 0x2747 JUMPI POP POP SWAP1 DUP5 PUSH1 0x1 SWAP6 SWAP5 SWAP4 SWAP3 LT PUSH2 0x272F JUMPI JUMPDEST POP POP POP DUP2 SHL ADD SWAP1 SSTORE PUSH2 0x23E4 JUMP JUMPDEST ADD MLOAD PUSH0 NOT PUSH1 0xF8 DUP5 PUSH1 0x3 SHL AND SHR NOT AND SWAP1 SSTORE DUP7 DUP1 DUP1 PUSH2 0x2722 JUMP JUMPDEST PUSH1 0x1 DUP6 SWAP7 DUP3 SWAP4 SWAP7 DUP7 ADD MLOAD DUP2 SSTORE ADD SWAP6 ADD SWAP4 ADD PUSH2 0x270A JUMP JUMPDEST SWAP1 SWAP2 POP DUP4 PUSH0 MSTORE DUP7 PUSH0 KECCAK256 PUSH1 0x1F DUP5 ADD PUSH1 0x5 SHR DUP2 ADD SWAP2 DUP9 DUP6 LT PUSH2 0x27A1 JUMPI JUMPDEST SWAP1 PUSH1 0x1F DUP6 SWAP5 SWAP4 SWAP3 ADD PUSH1 0x5 SHR ADD SWAP1 JUMPDEST DUP2 DUP2 LT PUSH2 0x2793 JUMPI POP PUSH2 0x23BB JUMP JUMPDEST PUSH0 DUP2 SSTORE DUP5 SWAP4 POP PUSH1 0x1 ADD PUSH2 0x2786 JUMP JUMPDEST SWAP1 SWAP2 POP DUP2 SWAP1 PUSH2 0x2778 JUMP JUMPDEST ADD MLOAD SWAP1 POP DUP7 DUP1 PUSH2 0x2378 JUMP JUMPDEST PUSH0 DUP6 DUP2 MSTORE DUP9 DUP2 KECCAK256 SWAP4 POP PUSH1 0x1F NOT DUP6 AND SWAP1 JUMPDEST DUP10 DUP3 DUP3 LT PUSH2 0x2803 JUMPI POP POP SWAP1 DUP5 PUSH1 0x1 SWAP6 SWAP5 SWAP4 SWAP3 LT PUSH2 0x27EB JUMPI JUMPDEST POP POP POP DUP2 SHL ADD SWAP1 SSTORE PUSH2 0x238C JUMP JUMPDEST ADD MLOAD PUSH0 NOT PUSH1 0xF8 DUP5 PUSH1 0x3 SHL AND SHR NOT AND SWAP1 SSTORE DUP7 DUP1 DUP1 PUSH2 0x27DE JUMP JUMPDEST PUSH1 0x1 DUP6 SWAP7 DUP3 SWAP4 SWAP7 DUP7 ADD MLOAD DUP2 SSTORE ADD SWAP6 ADD SWAP4 ADD PUSH2 0x27C6 JUMP JUMPDEST SWAP1 SWAP2 POP DUP4 PUSH0 MSTORE DUP7 PUSH0 KECCAK256 PUSH1 0x1F DUP5 ADD PUSH1 0x5 SHR DUP2 ADD SWAP2 DUP9 DUP6 LT PUSH2 0x285D JUMPI JUMPDEST SWAP1 PUSH1 0x1F DUP6 SWAP5 SWAP4 SWAP3 ADD PUSH1 0x5 SHR ADD SWAP1 JUMPDEST DUP2 DUP2 LT PUSH2 0x284F JUMPI POP PUSH2 0x2363 JUMP JUMPDEST PUSH0 DUP2 SSTORE DUP5 SWAP4 POP PUSH1 0x1 ADD PUSH2 0x2842 JUMP JUMPDEST SWAP1 SWAP2 POP DUP2 SWAP1 PUSH2 0x2834 JUMP JUMPDEST ADD MLOAD SWAP1 POP DUP7 DUP1 PUSH2 0x2320 JUMP JUMPDEST PUSH0 DUP6 DUP2 MSTORE DUP9 DUP2 KECCAK256 SWAP4 POP PUSH1 0x1F NOT DUP6 AND SWAP1 JUMPDEST DUP10 DUP3 DUP3 LT PUSH2 0x28BF JUMPI POP POP SWAP1 DUP5 PUSH1 0x1 SWAP6 SWAP5 SWAP4 SWAP3 LT PUSH2 0x28A7 JUMPI JUMPDEST POP POP POP DUP2 SHL ADD SWAP1 SSTORE PUSH2 0x2334 JUMP JUMPDEST ADD MLOAD PUSH0 NOT PUSH1 0xF8 DUP5 PUSH1 0x3 SHL AND SHR NOT AND SWAP1 SSTORE DUP7 DUP1 DUP1 PUSH2 0x289A JUMP JUMPDEST PUSH1 0x1 DUP6 SWAP7 DUP3 SWAP4 SWAP7 DUP7 ADD MLOAD DUP2 SSTORE ADD SWAP6 ADD SWAP4 ADD PUSH2 0x2882 JUMP JUMPDEST SWAP1 SWAP2 POP DUP4 PUSH0 MSTORE DUP7 PUSH0 KECCAK256 PUSH1 0x1F DUP5 ADD PUSH1 0x5 SHR DUP2 ADD SWAP2 DUP9 DUP6 LT PUSH2 0x2919 JUMPI JUMPDEST SWAP1 PUSH1 0x1F DUP6 SWAP5 SWAP4 SWAP3 ADD PUSH1 0x5 SHR ADD SWAP1 JUMPDEST DUP2 DUP2 LT PUSH2 0x290B JUMPI POP PUSH2 0x230B JUMP JUMPDEST PUSH0 DUP2 SSTORE DUP5 SWAP4 POP PUSH1 0x1 ADD PUSH2 0x28FE JUMP JUMPDEST SWAP1 SWAP2 POP DUP2 SWAP1 PUSH2 0x28F0 JUMP JUMPDEST ADD MLOAD SWAP1 POP DUP7 DUP1 PUSH2 0x22C8 JUMP JUMPDEST PUSH0 DUP6 DUP2 MSTORE DUP9 DUP2 KECCAK256 SWAP4 POP PUSH1 0x1F NOT DUP6 AND SWAP1 JUMPDEST DUP10 DUP3 DUP3 LT PUSH2 0x297B JUMPI POP POP SWAP1 DUP5 PUSH1 0x1 SWAP6 SWAP5 SWAP4 SWAP3 LT PUSH2 0x2963 JUMPI JUMPDEST POP POP POP DUP2 SHL ADD SWAP1 SSTORE PUSH2 0x22DC JUMP JUMPDEST ADD MLOAD PUSH0 NOT PUSH1 0xF8 DUP5 PUSH1 0x3 SHL AND SHR NOT AND SWAP1 SSTORE DUP7 DUP1 DUP1 PUSH2 0x2956 JUMP JUMPDEST PUSH1 0x1 DUP6 SWAP7 DUP3 SWAP4 SWAP7 DUP7 ADD MLOAD DUP2 SSTORE ADD SWAP6 ADD SWAP4 ADD PUSH2 0x293E JUMP JUMPDEST SWAP1 SWAP2 POP DUP4 PUSH0 MSTORE DUP7 PUSH0 KECCAK256 PUSH1 0x1F DUP5 ADD PUSH1 0x5 SHR DUP2 ADD SWAP2 DUP9 DUP6 LT PUSH2 0x29D5 JUMPI JUMPDEST SWAP1 PUSH1 0x1F DUP6 SWAP5 SWAP4 SWAP3 ADD PUSH1 0x5 SHR ADD SWAP1 JUMPDEST DUP2 DUP2 LT PUSH2 0x29C7 JUMPI POP PUSH2 0x22B3 JUMP JUMPDEST PUSH0 DUP2 SSTORE DUP5 SWAP4 POP PUSH1 0x1 ADD PUSH2 0x29BA JUMP JUMPDEST SWAP1 SWAP2 POP DUP2 SWAP1 PUSH2 0x29AC JUMP JUMPDEST ADD MLOAD SWAP1 POP DUP6 DUP1 PUSH2 0x2271 JUMP JUMPDEST PUSH1 0x1F NOT DUP3 AND SWAP5 DUP4 PUSH0 MSTORE DUP7 PUSH0 KECCAK256 SWAP2 PUSH0 JUMPDEST DUP9 DUP9 DUP3 LT PUSH2 0x2A34 JUMPI POP POP DUP4 PUSH1 0x1 SWAP6 SWAP7 SWAP8 LT PUSH2 0x2A1C JUMPI JUMPDEST POP POP POP DUP2 SHL ADD DUP2 SSTORE PUSH2 0x2285 JUMP JUMPDEST ADD MLOAD PUSH0 NOT PUSH1 0xF8 DUP5 PUSH1 0x3 SHL AND SHR NOT AND SWAP1 SSTORE DUP6 DUP1 DUP1 PUSH2 0x2A0F JUMP JUMPDEST PUSH1 0x1 DUP5 SWAP6 DUP3 SWAP4 SWAP6 DUP6 ADD MLOAD DUP2 SSTORE ADD SWAP5 ADD SWAP3 ADD PUSH2 0x29F9 JUMP JUMPDEST DUP3 PUSH0 MSTORE DUP6 PUSH0 KECCAK256 PUSH1 0x1F DUP4 ADD PUSH1 0x5 SHR DUP2 ADD SWAP2 DUP8 DUP5 LT PUSH2 0x2A83 JUMPI JUMPDEST PUSH1 0x1F ADD PUSH1 0x5 SHR ADD SWAP1 JUMPDEST DUP2 DUP2 LT PUSH2 0x2A78 JUMPI POP PUSH2 0x2257 JUMP JUMPDEST PUSH0 DUP2 SSTORE PUSH1 0x1 ADD PUSH2 0x2A6B JUMP JUMPDEST SWAP1 SWAP2 POP DUP2 SWAP1 PUSH2 0x2A62 JUMP JUMPDEST ADD MLOAD SWAP1 POP DUP9 DUP1 PUSH2 0x2204 JUMP JUMPDEST PUSH1 0x1F SWAP6 SWAP5 SWAP4 SWAP3 SWAP2 SWAP6 NOT DUP3 AND SWAP6 DUP4 PUSH0 MSTORE DUP6 PUSH0 KECCAK256 SWAP2 PUSH0 JUMPDEST DUP9 DUP2 LT PUSH2 0x2AE7 JUMPI POP DUP4 PUSH1 0x1 SWAP6 SWAP7 SWAP8 SWAP9 LT PUSH2 0x2ACF JUMPI JUMPDEST POP POP POP DUP2 SHL ADD SWAP1 SSTORE PUSH2 0x2218 JUMP JUMPDEST ADD MLOAD PUSH0 NOT PUSH1 0xF8 DUP5 PUSH1 0x3 SHL AND SHR NOT AND SWAP1 SSTORE DUP9 DUP1 DUP1 PUSH2 0x2AC2 JUMP JUMPDEST DUP3 DUP3 ADD MLOAD DUP5 SSTORE DUP10 SWAP8 PUSH1 0x1 SWAP1 SWAP5 ADD SWAP4 SWAP3 DUP4 ADD SWAP3 ADD PUSH2 0x2AAD JUMP JUMPDEST SWAP2 DUP1 SWAP5 POP PUSH0 SWAP6 SWAP2 SWAP4 SWAP6 MSTORE DUP7 PUSH0 KECCAK256 PUSH1 0x1F DUP5 ADD PUSH1 0x5 SHR DUP2 ADD SWAP2 DUP9 DUP6 LT PUSH2 0x2B4C JUMPI JUMPDEST SWAP1 PUSH1 0x1F DUP10 SWAP7 SWAP5 SWAP8 SWAP6 SWAP4 SWAP3 ADD PUSH1 0x5 SHR ADD SWAP1 JUMPDEST DUP2 DUP2 LT PUSH2 0x2B3E JUMPI POP POP DUP5 PUSH2 0x21EB JUMP JUMPDEST PUSH0 DUP2 SSTORE DUP9 SWAP6 POP PUSH1 0x1 ADD PUSH2 0x2B2F JUMP JUMPDEST SWAP1 SWAP2 POP DUP2 SWAP1 PUSH2 0x2B1E JUMP JUMPDEST ADD MLOAD SWAP1 POP DUP10 DUP1 PUSH2 0x21AC JUMP JUMPDEST SWAP1 PUSH1 0x1F NOT DUP4 AND SWAP2 DUP5 PUSH0 MSTORE DUP6 PUSH0 KECCAK256 SWAP3 PUSH0 JUMPDEST DUP8 DUP3 DUP3 LT PUSH2 0x2BB1 JUMPI POP POP SWAP2 PUSH1 0x1 SWAP6 SWAP5 SWAP3 SWAP2 DUP4 DUP8 SWAP6 SWAP4 LT PUSH2 0x2B99 JUMPI JUMPDEST POP POP POP DUP2 SHL ADD DUP2 SSTORE PUSH2 0x21BF JUMP JUMPDEST ADD MLOAD PUSH0 NOT PUSH1 0xF8 DUP5 PUSH1 0x3 SHL AND SHR NOT AND SWAP1 SSTORE DUP10 DUP1 DUP1 PUSH2 0x2B8C JUMP JUMPDEST PUSH1 0x1 DUP6 SWAP7 DUP3 SWAP4 SWAP7 DUP7 ADD MLOAD DUP2 SSTORE ADD SWAP6 ADD SWAP4 ADD PUSH2 0x2B71 JUMP JUMPDEST SWAP1 SWAP2 SWAP3 DUP1 SWAP5 POP PUSH0 MSTORE DUP8 PUSH0 KECCAK256 PUSH1 0x1F DUP5 ADD PUSH1 0x5 SHR DUP2 ADD SWAP2 DUP10 DUP6 LT PUSH2 0x2C0F JUMPI JUMPDEST SWAP1 PUSH1 0x1F DUP11 SWAP7 SWAP6 SWAP5 SWAP4 SWAP3 ADD PUSH1 0x5 SHR ADD SWAP1 JUMPDEST DUP2 DUP2 LT PUSH2 0x2C01 JUMPI POP PUSH2 0x2191 JUMP JUMPDEST PUSH0 DUP2 SSTORE DUP10 SWAP6 POP PUSH1 0x1 ADD PUSH2 0x2BF4 JUMP JUMPDEST SWAP1 SWAP2 POP DUP2 SWAP1 PUSH2 0x2BE4 JUMP JUMPDEST ADD MLOAD SWAP1 POP DUP12 DUP1 PUSH2 0x2139 JUMP JUMPDEST SWAP1 PUSH1 0x1F NOT DUP4 AND SWAP2 DUP5 PUSH0 MSTORE DUP11 PUSH0 KECCAK256 SWAP3 PUSH0 JUMPDEST DUP13 DUP3 DUP3 LT PUSH2 0x2C77 JUMPI POP POP SWAP3 PUSH1 0x1 SWAP3 DUP6 SWAP3 PUSH1 0x5 SWAP9 SWAP7 PUSH1 0xC0 SWAP9 SWAP7 LT PUSH2 0x2C5F JUMPI JUMPDEST POP POP POP DUP2 SHL ADD SWAP1 SSTORE PUSH2 0x214D JUMP JUMPDEST ADD MLOAD PUSH0 NOT PUSH1 0xF8 DUP5 PUSH1 0x3 SHL AND SHR NOT AND SWAP1 SSTORE DUP12 DUP1 DUP1 PUSH2 0x2C52 JUMP JUMPDEST PUSH1 0x1 DUP6 SWAP7 DUP3 SWAP4 SWAP7 DUP7 ADD MLOAD DUP2 SSTORE ADD SWAP6 ADD SWAP4 ADD PUSH2 0x2C34 JUMP JUMPDEST DUP4 PUSH0 MSTORE DUP10 PUSH0 KECCAK256 PUSH1 0x1F DUP5 ADD PUSH1 0x5 SHR DUP2 ADD SWAP2 DUP12 DUP6 LT PUSH2 0x2CC6 JUMPI JUMPDEST PUSH1 0x1F ADD PUSH1 0x5 SHR ADD SWAP1 JUMPDEST DUP2 DUP2 LT PUSH2 0x2CBB JUMPI POP PUSH2 0x211A JUMP JUMPDEST PUSH0 DUP2 SSTORE PUSH1 0x1 ADD PUSH2 0x2CAE JUMP JUMPDEST SWAP1 SWAP2 POP DUP2 SWAP1 PUSH2 0x2CA5 JUMP JUMPDEST PUSH4 0x4E487B71 PUSH1 0xE0 SHL PUSH0 MSTORE PUSH1 0x21 PUSH1 0x4 MSTORE PUSH1 0x24 PUSH0 REVERT JUMPDEST ADD MLOAD SWAP1 POP DUP10 DUP1 PUSH2 0x20A1 JUMP JUMPDEST PUSH0 DUP6 DUP2 MSTORE DUP12 DUP2 KECCAK256 SWAP4 POP PUSH1 0x1F NOT DUP6 AND SWAP1 JUMPDEST DUP13 DUP3 DUP3 LT PUSH2 0x2D3C JUMPI POP POP SWAP1 DUP5 PUSH1 0x1 SWAP6 SWAP5 SWAP4 SWAP3 LT PUSH2 0x2D24 JUMPI JUMPDEST POP POP POP DUP2 SHL ADD SWAP1 SSTORE PUSH2 0x20B5 JUMP JUMPDEST ADD MLOAD PUSH0 NOT PUSH1 0xF8 DUP5 PUSH1 0x3 SHL AND SHR NOT AND SWAP1 SSTORE DUP10 DUP1 DUP1 PUSH2 0x2D17 JUMP JUMPDEST PUSH1 0x1 DUP6 SWAP7 DUP3 SWAP4 SWAP7 DUP7 ADD MLOAD DUP2 SSTORE ADD SWAP6 ADD SWAP4 ADD PUSH2 0x2CFF JUMP JUMPDEST SWAP1 SWAP2 POP DUP4 PUSH0 MSTORE DUP10 PUSH0 KECCAK256 PUSH1 0x1F DUP5 ADD PUSH1 0x5 SHR DUP2 ADD SWAP2 DUP12 DUP6 LT PUSH2 0x2D96 JUMPI JUMPDEST SWAP1 PUSH1 0x1F DUP6 SWAP5 SWAP4 SWAP3 ADD PUSH1 0x5 SHR ADD SWAP1 JUMPDEST DUP2 DUP2 LT PUSH2 0x2D88 JUMPI POP PUSH2 0x208C JUMP JUMPDEST PUSH0 DUP2 SSTORE DUP5 SWAP4 POP PUSH1 0x1 ADD PUSH2 0x2D7B JUMP JUMPDEST SWAP1 SWAP2 POP DUP2 SWAP1 PUSH2 0x2D6D JUMP JUMPDEST ADD MLOAD SWAP1 POP DUP9 DUP1 PUSH2 0x2046 JUMP JUMPDEST PUSH1 0x1 DUP7 ADD PUSH0 SWAP1 DUP2 MSTORE DUP11 DUP2 KECCAK256 SWAP4 POP PUSH1 0x1F NOT DUP6 AND SWAP1 JUMPDEST DUP12 DUP3 DUP3 LT PUSH2 0x2DFF JUMPI POP POP SWAP1 DUP5 PUSH1 0x1 SWAP6 SWAP5 SWAP4 SWAP3 LT PUSH2 0x2DE7 JUMPI JUMPDEST POP POP POP DUP2 SHL ADD PUSH1 0x1 DUP4 ADD SSTORE PUSH2 0x205D JUMP JUMPDEST ADD MLOAD PUSH0 NOT PUSH1 0xF8 DUP5 PUSH1 0x3 SHL AND SHR NOT AND SWAP1 SSTORE DUP9 DUP1 DUP1 PUSH2 0x2DD7 JUMP JUMPDEST PUSH1 0x1 DUP6 SWAP7 DUP3 SWAP4 SWAP7 DUP7 ADD MLOAD DUP2 SSTORE ADD SWAP6 ADD SWAP4 ADD PUSH2 0x2DBF JUMP JUMPDEST SWAP1 SWAP2 POP PUSH1 0x1 DUP6 ADD PUSH0 MSTORE DUP9 PUSH0 KECCAK256 PUSH1 0x1F DUP5 ADD PUSH1 0x5 SHR DUP2 ADD SWAP2 DUP11 DUP6 LT PUSH2 0x2E5C JUMPI JUMPDEST SWAP1 PUSH1 0x1F DUP6 SWAP5 SWAP4 SWAP3 ADD PUSH1 0x5 SHR ADD SWAP1 JUMPDEST DUP2 DUP2 LT PUSH2 0x2E4E JUMPI POP PUSH2 0x2031 JUMP JUMPDEST PUSH0 DUP2 SSTORE DUP5 SWAP4 POP PUSH1 0x1 ADD PUSH2 0x2E41 JUMP JUMPDEST SWAP1 SWAP2 POP DUP2 SWAP1 PUSH2 0x2E33 JUMP JUMPDEST ADD MLOAD SWAP1 POP DUP10 DUP1 PUSH2 0x1FF3 JUMP JUMPDEST PUSH0 DUP8 DUP2 MSTORE DUP12 DUP2 KECCAK256 SWAP4 POP PUSH1 0x1F NOT DUP6 AND SWAP1 JUMPDEST DUP13 DUP3 DUP3 LT PUSH2 0x2EBE JUMPI POP POP SWAP1 DUP5 PUSH1 0x1 SWAP6 SWAP5 SWAP4 SWAP3 LT PUSH2 0x2EA6 JUMPI JUMPDEST POP POP POP DUP2 SHL ADD DUP4 SSTORE PUSH2 0x2007 JUMP JUMPDEST ADD MLOAD PUSH0 NOT PUSH1 0xF8 DUP5 PUSH1 0x3 SHL AND SHR NOT AND SWAP1 SSTORE DUP10 DUP1 DUP1 PUSH2 0x2E99 JUMP JUMPDEST PUSH1 0x1 DUP6 SWAP7 DUP3 SWAP4 SWAP7 DUP7 ADD MLOAD DUP2 SSTORE ADD SWAP6 ADD SWAP4 ADD PUSH2 0x2E81 JUMP JUMPDEST SWAP1 SWAP2 POP DUP6 PUSH0 MSTORE DUP10 PUSH0 KECCAK256 PUSH1 0x1F DUP5 ADD PUSH1 0x5 SHR DUP2 ADD SWAP2 DUP12 DUP6 LT PUSH2 0x2F18 JUMPI JUMPDEST SWAP1 PUSH1 0x1F DUP6 SWAP5 SWAP4 SWAP3 ADD PUSH1 0x5 SHR ADD SWAP1 JUMPDEST DUP2 DUP2 LT PUSH2 0x2F0A JUMPI POP PUSH2 0x1FDE JUMP JUMPDEST PUSH0 DUP2 SSTORE DUP5 SWAP4 POP PUSH1 0x1 ADD PUSH2 0x2EFD JUMP JUMPDEST SWAP1 SWAP2 POP DUP2 SWAP1 PUSH2 0x2EEF JUMP JUMPDEST PUSH4 0x4E487B71 PUSH1 0xE0 SHL PUSH0 MSTORE PUSH0 PUSH1 0x4 MSTORE PUSH1 0x24 PUSH0 REVERT JUMPDEST ADD MLOAD SWAP1 POP DUP15 DUP1 PUSH2 0x1F16 JUMP JUMPDEST PUSH0 DUP5 DUP2 MSTORE DUP13 DUP2 KECCAK256 SWAP3 SWAP2 SWAP1 PUSH1 0x1F NOT DUP6 AND SWAP1 DUP15 JUMPDEST DUP3 DUP3 LT PUSH2 0x2F95 JUMPI POP POP SWAP4 PUSH1 0xFF SWAP7 SWAP4 PUSH1 0x2 SWAP7 SWAP4 PUSH1 0x1 SWAP4 DUP4 DUP11 SWAP9 LT PUSH2 0x2F7D JUMPI JUMPDEST POP POP POP DUP2 SHL ADD SWAP1 SSTORE PUSH2 0x1F2A JUMP JUMPDEST ADD MLOAD PUSH0 NOT PUSH1 0xF8 DUP5 PUSH1 0x3 SHL AND SHR NOT AND SWAP1 SSTORE DUP15 DUP1 DUP1 PUSH2 0x2F70 JUMP JUMPDEST DUP1 PUSH1 0x1 DUP7 SWAP8 DUP3 SWAP5 SWAP8 DUP8 ADD MLOAD DUP2 SSTORE ADD SWAP7 ADD SWAP5 ADD SWAP1 PUSH2 0x2F52 JUMP JUMPDEST DUP4 PUSH0 MSTORE DUP12 PUSH0 KECCAK256 PUSH1 0x1F DUP5 ADD PUSH1 0x5 SHR DUP2 ADD SWAP2 DUP14 DUP6 LT PUSH2 0x2FE6 JUMPI JUMPDEST PUSH1 0x1F ADD PUSH1 0x5 SHR ADD SWAP1 JUMPDEST DUP2 DUP2 LT PUSH2 0x2FDB JUMPI POP PUSH2 0x1EF5 JUMP JUMPDEST PUSH0 DUP2 SSTORE PUSH1 0x1 ADD PUSH2 0x2FCE JUMP JUMPDEST SWAP1 SWAP2 POP DUP2 SWAP1 PUSH2 0x2FC5 JUMP JUMPDEST ADD MLOAD SWAP1 POP DUP12 DUP1 PUSH2 0x1EB8 JUMP JUMPDEST PUSH0 DUP8 DUP2 MSTORE DUP14 DUP2 KECCAK256 SWAP4 POP PUSH1 0x1F NOT DUP6 AND SWAP1 DUP15 JUMPDEST DUP3 DUP3 LT PUSH2 0x3048 JUMPI POP POP SWAP1 DUP5 PUSH1 0x1 SWAP6 SWAP5 SWAP4 SWAP3 LT PUSH2 0x3030 JUMPI JUMPDEST POP POP POP DUP2 SHL ADD DUP4 SSTORE PUSH2 0x1ECC JUMP JUMPDEST ADD MLOAD PUSH0 NOT PUSH1 0xF8 DUP5 PUSH1 0x3 SHL AND SHR NOT AND SWAP1 SSTORE DUP12 DUP1 DUP1 PUSH2 0x3023 JUMP JUMPDEST DUP1 PUSH1 0x1 DUP7 SWAP8 DUP3 SWAP5 SWAP8 DUP8 ADD MLOAD DUP2 SSTORE ADD SWAP7 ADD SWAP5 ADD SWAP1 PUSH2 0x300C JUMP JUMPDEST SWAP1 SWAP2 POP DUP6 PUSH0 MSTORE DUP12 PUSH0 KECCAK256 PUSH1 0x1F DUP5 ADD PUSH1 0x5 SHR DUP2 ADD SWAP2 DUP14 DUP6 LT PUSH2 0x30A4 JUMPI JUMPDEST SWAP1 PUSH1 0x1F DUP6 SWAP5 SWAP4 SWAP3 ADD PUSH1 0x5 SHR ADD SWAP1 JUMPDEST DUP2 DUP2 LT PUSH2 0x3096 JUMPI POP PUSH2 0x1EA3 JUMP JUMPDEST PUSH0 DUP2 SSTORE DUP5 SWAP4 POP PUSH1 0x1 ADD PUSH2 0x3089 JUMP JUMPDEST SWAP1 SWAP2 POP DUP2 SWAP1 PUSH2 0x307B JUMP JUMPDEST CALLVALUE PUSH2 0x20A JUMPI PUSH1 0x20 CALLDATASIZE PUSH1 0x3 NOT ADD SLT PUSH2 0x20A JUMPI PUSH1 0x4 CALLDATALOAD PUSH1 0x1 PUSH1 0x1 PUSH1 0x40 SHL SUB DUP2 GT PUSH2 0x20A JUMPI PUSH1 0x20 DUP1 PUSH2 0x30E4 PUSH2 0x3139 SWAP4 CALLDATASIZE SWAP1 PUSH1 0x4 ADD PUSH2 0x41A1 JUMP JUMPDEST PUSH1 0x40 MLOAD SWAP3 DUP2 DUP5 SWAP3 MLOAD SWAP2 DUP3 SWAP2 ADD DUP4 MCOPY DUP2 ADD PUSH1 0x7 DUP2 MSTORE SUB ADD SWAP1 KECCAK256 PUSH2 0x3D2 PUSH2 0x3108 DUP3 PUSH2 0x4376 JUMP JUMPDEST SWAP2 PUSH2 0x3147 PUSH2 0x3124 PUSH1 0x2 PUSH2 0x311D PUSH1 0x1 DUP6 ADD PUSH2 0x4376 JUMP JUMPDEST SWAP4 ADD PUSH2 0x4376 JUMP JUMPDEST SWAP2 PUSH1 0x40 MLOAD SWAP6 DUP7 SWAP6 PUSH1 0x60 DUP8 MSTORE PUSH1 0x60 DUP8 ADD SWAP1 PUSH2 0x4279 JUMP JUMPDEST SWAP1 DUP6 DUP3 SUB PUSH1 0x20 DUP8 ADD MSTORE PUSH2 0x4279 JUMP JUMPDEST SWAP1 DUP4 DUP3 SUB PUSH1 0x40 DUP6 ADD MSTORE PUSH2 0x4279 JUMP JUMPDEST CALLVALUE PUSH2 0x20A JUMPI PUSH1 0x20 CALLDATASIZE PUSH1 0x3 NOT ADD SLT PUSH2 0x20A JUMPI PUSH1 0x4 CALLDATALOAD PUSH1 0x1 PUSH1 0x1 PUSH1 0x40 SHL SUB DUP2 GT PUSH2 0x20A JUMPI PUSH2 0x3185 SWAP1 CALLDATASIZE SWAP1 PUSH1 0x4 ADD PUSH2 0x41A1 JUMP JUMPDEST PUSH1 0x40 MLOAD DUP2 DUP2 SWAP3 MLOAD PUSH1 0x20 DUP2 SWAP3 ADD DUP4 MCOPY DUP2 ADD PUSH1 0x6 DUP2 MSTORE SUB PUSH1 0x20 ADD SWAP1 KECCAK256 PUSH2 0x31A8 DUP2 PUSH2 0x4376 JUMP JUMPDEST PUSH2 0x31B4 PUSH1 0x1 DUP4 ADD PUSH2 0x4376 JUMP JUMPDEST SWAP2 PUSH2 0x31C1 PUSH1 0x2 DUP3 ADD PUSH2 0x4376 JUMP JUMPDEST SWAP1 PUSH2 0x31CE PUSH1 0x3 DUP3 ADD PUSH2 0x4376 JUMP JUMPDEST PUSH2 0x31DA PUSH1 0x4 DUP4 ADD PUSH2 0x4376 JUMP JUMPDEST PUSH2 0x31E6 PUSH1 0x5 DUP5 ADD PUSH2 0x4376 JUMP JUMPDEST SWAP2 PUSH2 0x31F3 PUSH1 0x6 DUP6 ADD PUSH2 0x4376 JUMP JUMPDEST SWAP4 PUSH1 0x7 ADD PUSH2 0x3200 SWAP1 PUSH2 0x4376 JUMP JUMPDEST SWAP5 PUSH1 0x40 MLOAD SWAP8 DUP9 SWAP8 PUSH2 0x100 DUP10 MSTORE PUSH2 0x100 DUP10 ADD PUSH2 0x321A SWAP2 PUSH2 0x4279 JUMP JUMPDEST DUP9 DUP2 SUB PUSH1 0x20 DUP11 ADD MSTORE PUSH2 0x322B SWAP2 PUSH2 0x4279 JUMP JUMPDEST DUP8 DUP2 SUB PUSH1 0x40 DUP10 ADD MSTORE PUSH2 0x323C SWAP2 PUSH2 0x4279 JUMP JUMPDEST DUP7 DUP2 SUB PUSH1 0x60 DUP9 ADD MSTORE PUSH2 0x324D SWAP2 PUSH2 0x4279 JUMP JUMPDEST DUP6 DUP2 SUB PUSH1 0x80 DUP8 ADD MSTORE PUSH2 0x325E SWAP2 PUSH2 0x4279 JUMP JUMPDEST DUP5 DUP2 SUB PUSH1 0xA0 DUP7 ADD MSTORE PUSH2 0x326F SWAP2 PUSH2 0x4279 JUMP JUMPDEST DUP4 DUP2 SUB PUSH1 0xC0 DUP6 ADD MSTORE PUSH2 0x3280 SWAP2 PUSH2 0x4279 JUMP JUMPDEST DUP3 DUP2 SUB PUSH1 0xE0 DUP5 ADD MSTORE PUSH2 0x3D2 SWAP2 PUSH2 0x4279 JUMP JUMPDEST CALLVALUE PUSH2 0x20A JUMPI PUSH1 0x20 CALLDATASIZE PUSH1 0x3 NOT ADD SLT PUSH2 0x20A JUMPI PUSH1 0x4 CALLDATALOAD PUSH1 0x3 SLOAD DUP2 LT ISZERO PUSH2 0x20A JUMPI PUSH2 0x32BB PUSH2 0x3318 SWAP2 PUSH2 0x4462 JUMP JUMPDEST POP PUSH2 0x32C5 DUP2 PUSH2 0x4376 JUMP JUMPDEST SWAP1 PUSH2 0x335B PUSH2 0x32D5 PUSH1 0x1 DUP4 ADD PUSH2 0x4376 JUMP JUMPDEST SWAP2 PUSH2 0x32E2 PUSH1 0x2 DUP3 ADD PUSH2 0x4376 JUMP JUMPDEST SWAP1 PUSH2 0x334E PUSH2 0x3334 PUSH1 0x3 DUP4 ADD SLOAD SWAP4 PUSH2 0x3326 PUSH1 0x5 PUSH2 0x3300 PUSH1 0x4 DUP8 ADD PUSH2 0x4376 JUMP JUMPDEST SWAP6 ADD SLOAD SWAP8 PUSH1 0x40 MLOAD SWAP11 DUP12 SWAP11 PUSH1 0xE0 DUP13 MSTORE PUSH1 0xE0 DUP13 ADD SWAP1 PUSH2 0x4279 JUMP JUMPDEST SWAP1 DUP11 DUP3 SUB PUSH1 0x20 DUP13 ADD MSTORE PUSH2 0x4279 JUMP JUMPDEST SWAP1 DUP9 DUP3 SUB PUSH1 0x40 DUP11 ADD MSTORE PUSH2 0x4279 JUMP JUMPDEST SWAP3 PUSH1 0xFF DUP2 AND PUSH1 0x60 DUP9 ADD MSTORE PUSH1 0xFF PUSH1 0x80 DUP9 ADD SWAP2 PUSH1 0x8 SHR AND PUSH2 0x4455 JUMP JUMPDEST DUP5 DUP3 SUB PUSH1 0xA0 DUP7 ADD MSTORE PUSH2 0x4279 JUMP JUMPDEST SWAP1 PUSH1 0xC0 DUP4 ADD MSTORE SUB SWAP1 RETURN JUMPDEST CALLVALUE PUSH2 0x20A JUMPI PUSH1 0x20 CALLDATASIZE PUSH1 0x3 NOT ADD SLT PUSH2 0x20A JUMPI PUSH1 0x4 CALLDATALOAD PUSH1 0x1 PUSH1 0x1 PUSH1 0x40 SHL SUB DUP2 GT PUSH2 0x20A JUMPI PUSH2 0x3398 PUSH2 0x208 SWAP2 CALLDATASIZE SWAP1 PUSH1 0x4 ADD PUSH2 0x41A1 JUMP JUMPDEST PUSH2 0x49A1 JUMP JUMPDEST CALLVALUE PUSH2 0x20A JUMPI PUSH1 0x20 CALLDATASIZE PUSH1 0x3 NOT ADD SLT PUSH2 0x20A JUMPI PUSH1 0x4 CALLDATALOAD PUSH1 0x1 PUSH1 0x1 PUSH1 0x40 SHL SUB DUP2 GT PUSH2 0x20A JUMPI PUSH2 0x33CD SWAP1 CALLDATASIZE SWAP1 PUSH1 0x4 ADD PUSH2 0x41A1 JUMP JUMPDEST PUSH1 0x40 MLOAD DUP2 DUP2 SWAP3 MLOAD PUSH1 0x20 DUP2 SWAP3 ADD DUP4 MCOPY DUP2 ADD PUSH0 DUP2 MSTORE SUB PUSH1 0x20 ADD SWAP1 KECCAK256 DUP1 SLOAD PUSH1 0xFF AND PUSH1 0x1 DUP3 ADD SLOAD SWAP2 PUSH1 0x2 DUP2 ADD SLOAD SWAP1 PUSH1 0x3 DUP2 ADD SLOAD PUSH1 0x4 DUP3 ADD SLOAD PUSH1 0x5 DUP4 ADD SLOAD PUSH1 0x6 DUP5 ADD SLOAD PUSH1 0x7 DUP6 ADD SLOAD SWAP1 PUSH1 0x8 DUP7 ADD SLOAD SWAP3 PUSH1 0x9 DUP8 ADD SLOAD SWAP5 PUSH1 0xA DUP9 ADD PUSH2 0x342A SWAP1 PUSH2 0x4416 JUMP JUMPDEST SWAP7 PUSH2 0x3437 PUSH1 0xD DUP11 ADD PUSH2 0x4416 JUMP JUMPDEST SWAP9 PUSH1 0x10 ADD PUSH2 0x3444 SWAP1 PUSH2 0x4376 JUMP JUMPDEST SWAP10 PUSH1 0x40 MLOAD SWAP13 PUSH2 0x3454 DUP15 DUP1 SWAP15 PUSH2 0x4455 JUMP JUMPDEST PUSH1 0x20 DUP14 ADD MSTORE PUSH1 0x40 DUP13 ADD MSTORE PUSH1 0x60 DUP12 ADD MSTORE PUSH1 0x80 DUP11 ADD MSTORE PUSH1 0xA0 DUP10 ADD MSTORE PUSH1 0xC0 DUP9 ADD MSTORE PUSH1 0xE0 DUP8 ADD MSTORE PUSH2 0x100 DUP7 ADD MSTORE PUSH2 0x120 DUP6 ADD MSTORE PUSH2 0x140 DUP5 ADD PUSH2 0x1A0 SWAP1 MSTORE PUSH2 0x1A0 DUP5 ADD PUSH2 0x349B SWAP2 PUSH2 0x429D JUMP JUMPDEST DUP4 DUP2 SUB PUSH2 0x160 DUP6 ADD MSTORE PUSH2 0x34AD SWAP2 PUSH2 0x429D JUMP JUMPDEST DUP3 DUP2 SUB PUSH2 0x180 DUP5 ADD MSTORE PUSH2 0x3D2 SWAP2 PUSH2 0x4279 JUMP JUMPDEST CALLVALUE PUSH2 0x20A JUMPI PUSH1 0x60 CALLDATASIZE PUSH1 0x3 NOT ADD SLT PUSH2 0x20A JUMPI PUSH1 0x4 CALLDATALOAD PUSH1 0x1 PUSH1 0x1 PUSH1 0x40 SHL SUB DUP2 GT PUSH2 0x20A JUMPI PUSH2 0x34EF SWAP1 CALLDATASIZE SWAP1 PUSH1 0x4 ADD PUSH2 0x41A1 JUMP JUMPDEST PUSH1 0x24 CALLDATALOAD PUSH1 0x1 PUSH1 0x1 PUSH1 0x40 SHL SUB DUP2 GT PUSH2 0x20A JUMPI PUSH2 0x350E SWAP1 CALLDATASIZE SWAP1 PUSH1 0x4 ADD PUSH2 0x41A1 JUMP JUMPDEST SWAP1 PUSH1 0x44 CALLDATALOAD PUSH1 0x1 PUSH1 0x1 PUSH1 0xA0 SHL SUB DUP2 AND DUP2 SUB PUSH2 0x20A JUMPI PUSH2 0x3D2 SWAP3 PUSH2 0x352F SWAP3 PUSH2 0x4971 JUMP JUMPDEST PUSH1 0x40 MLOAD SWAP2 DUP3 SWAP2 PUSH1 0x20 DUP4 MSTORE PUSH1 0x20 DUP4 ADD SWAP1 PUSH2 0x429D JUMP JUMPDEST CALLVALUE PUSH2 0x20A JUMPI PUSH1 0xC0 CALLDATASIZE PUSH1 0x3 NOT ADD SLT PUSH2 0x20A JUMPI PUSH1 0x4 CALLDATALOAD PUSH1 0x1 PUSH1 0x1 PUSH1 0x40 SHL SUB DUP2 GT PUSH2 0x20A JUMPI PUSH2 0x3573 SWAP1 CALLDATASIZE SWAP1 PUSH1 0x4 ADD PUSH2 0x41A1 JUMP JUMPDEST PUSH1 0x24 CALLDATALOAD PUSH1 0x1 PUSH1 0x1 PUSH1 0x40 SHL SUB DUP2 GT PUSH2 0x20A JUMPI PUSH2 0x3592 SWAP1 CALLDATASIZE SWAP1 PUSH1 0x4 ADD PUSH2 0x41A1 JUMP JUMPDEST PUSH1 0x44 CALLDATALOAD PUSH1 0x1 PUSH1 0x1 PUSH1 0x40 SHL SUB DUP2 GT PUSH2 0x20A JUMPI PUSH2 0x35B1 SWAP1 CALLDATASIZE SWAP1 PUSH1 0x4 ADD PUSH2 0x41A1 JUMP JUMPDEST PUSH1 0x64 CALLDATALOAD PUSH1 0x1 PUSH1 0x1 PUSH1 0x40 SHL SUB DUP2 GT PUSH2 0x20A JUMPI PUSH2 0x35D0 SWAP1 CALLDATASIZE SWAP1 PUSH1 0x4 ADD PUSH2 0x41A1 JUMP JUMPDEST PUSH2 0x35D8 PUSH2 0x42DB JUMP JUMPDEST PUSH1 0xA4 CALLDATALOAD SWAP2 PUSH1 0x1 PUSH1 0x1 PUSH1 0x40 SHL SUB DUP4 GT PUSH2 0x20A JUMPI PUSH2 0x35FB PUSH2 0x3601 SWAP4 CALLDATASIZE SWAP1 PUSH1 0x4 ADD PUSH2 0x41A1 JUMP JUMPDEST SWAP4 PUSH2 0x4971 JUMP JUMPDEST PUSH1 0x40 MLOAD SWAP1 PUSH1 0x1 DUP5 MLOAD SWAP3 PUSH1 0x20 DUP2 DUP2 DUP9 ADD SWAP6 DUP1 DUP8 DUP4 MCOPY DUP2 ADD PUSH1 0x4 DUP2 MSTORE SUB ADD SWAP1 KECCAK256 ADD DUP6 MLOAD PUSH1 0x1 PUSH1 0x1 PUSH1 0x40 SHL SUB DUP2 GT PUSH2 0x35E JUMPI PUSH2 0x363A DUP3 SLOAD PUSH2 0x433E JUMP JUMPDEST PUSH1 0x1F DUP2 GT PUSH2 0x39AC JUMPI JUMPDEST POP PUSH1 0x20 PUSH1 0x1F DUP3 GT PUSH1 0x1 EQ PUSH2 0x3945 JUMPI SWAP1 DUP1 PUSH2 0x367A SWAP5 SWAP4 SWAP3 PUSH0 SWAP2 PUSH2 0x393A JUMPI JUMPDEST POP DUP2 PUSH1 0x1 SHL SWAP2 PUSH0 NOT SWAP1 PUSH1 0x3 SHL SHR NOT AND OR SWAP1 SSTORE JUMPDEST DUP4 DUP6 PUSH2 0x5336 JUMP JUMPDEST PUSH1 0x3 SLOAD SWAP3 PUSH0 JUMPDEST DUP5 DUP2 LT PUSH2 0x3689 JUMPI STOP JUMPDEST PUSH2 0x3692 DUP2 PUSH2 0x4462 JUMP JUMPDEST POP PUSH1 0x40 MLOAD PUSH2 0x36A8 DUP2 PUSH2 0x5BF PUSH1 0x20 DUP3 ADD DUP1 SWAP6 PUSH2 0x48B9 JUMP JUMPDEST MLOAD SWAP1 KECCAK256 PUSH1 0x40 MLOAD PUSH1 0x20 DUP2 ADD SWAP1 PUSH2 0x36D5 PUSH1 0x20 DUP3 DUP8 MLOAD DUP1 DUP11 DUP8 MCOPY DUP2 ADD PUSH0 DUP4 DUP3 ADD MSTORE SUB ADD PUSH1 0x1F NOT DUP2 ADD DUP4 MSTORE DUP3 PUSH2 0x4180 JUMP JUMPDEST MLOAD SWAP1 KECCAK256 EQ PUSH2 0x36E6 JUMPI JUMPDEST PUSH1 0x1 ADD PUSH2 0x3680 JUMP JUMPDEST PUSH1 0x1 PUSH2 0x36F1 DUP3 PUSH2 0x4462 JUMP JUMPDEST POP ADD DUP7 MLOAD PUSH1 0x1 PUSH1 0x1 PUSH1 0x40 SHL SUB DUP2 GT PUSH2 0x35E JUMPI PUSH2 0x370D DUP3 SLOAD PUSH2 0x433E JUMP JUMPDEST PUSH1 0x1F DUP2 GT PUSH2 0x38F5 JUMPI JUMPDEST POP DUP1 PUSH1 0x20 PUSH1 0x1F DUP3 GT PUSH1 0x1 EQ PUSH2 0x3892 JUMPI PUSH0 SWAP2 PUSH2 0x3887 JUMPI JUMPDEST POP DUP2 PUSH1 0x1 SHL SWAP2 PUSH0 NOT SWAP1 PUSH1 0x3 SHL SHR NOT AND OR SWAP1 SSTORE JUMPDEST PUSH1 0x3 PUSH2 0x374A DUP3 PUSH2 0x4462 JUMP JUMPDEST POP ADD DUP1 SLOAD PUSH2 0xFF00 NOT AND PUSH2 0x100 OR SWAP1 SSTORE PUSH1 0x4 PUSH2 0x3764 DUP3 PUSH2 0x4462 JUMP JUMPDEST POP ADD DUP5 MLOAD PUSH1 0x1 PUSH1 0x1 PUSH1 0x40 SHL SUB DUP2 GT PUSH2 0x35E JUMPI PUSH2 0x3780 DUP3 SLOAD PUSH2 0x433E JUMP JUMPDEST PUSH1 0x1F DUP2 GT PUSH2 0x3842 JUMPI JUMPDEST POP DUP1 PUSH1 0x20 PUSH1 0x1F DUP3 GT PUSH1 0x1 EQ PUSH2 0x37E1 JUMPI PUSH0 SWAP2 PUSH2 0x37D6 JUMPI JUMPDEST POP DUP2 PUSH1 0x1 SHL SWAP2 PUSH0 NOT SWAP1 PUSH1 0x3 SHL SHR NOT AND OR SWAP1 SSTORE JUMPDEST PUSH1 0x82 TIMESTAMP ADD SWAP1 DUP2 TIMESTAMP GT PUSH2 0x372 JUMPI PUSH1 0x1 SWAP2 PUSH1 0x5 PUSH2 0x37CC DUP4 PUSH2 0x4462 JUMP JUMPDEST POP ADD SSTORE SWAP1 POP PUSH2 0x36DE JUMP JUMPDEST SWAP1 POP DUP7 ADD MLOAD DUP10 PUSH2 0x379F JUMP JUMPDEST PUSH0 DUP5 DUP2 MSTORE DUP2 DUP2 KECCAK256 SWAP3 POP PUSH1 0x1F NOT DUP5 AND SWAP1 JUMPDEST DUP2 DUP2 LT PUSH2 0x382A JUMPI POP SWAP1 DUP4 PUSH1 0x1 SWAP5 SWAP4 SWAP3 LT PUSH2 0x3812 JUMPI JUMPDEST POP POP DUP2 SHL ADD SWAP1 SSTORE PUSH2 0x37B2 JUMP JUMPDEST DUP9 ADD MLOAD PUSH0 NOT PUSH1 0xF8 DUP5 PUSH1 0x3 SHL AND SHR NOT AND SWAP1 SSTORE DUP10 DUP1 PUSH2 0x3806 JUMP JUMPDEST SWAP2 SWAP3 PUSH1 0x20 PUSH1 0x1 DUP2 SWAP3 DUP7 DUP14 ADD MLOAD DUP2 SSTORE ADD SWAP5 ADD SWAP3 ADD PUSH2 0x37F1 JUMP JUMPDEST DUP3 PUSH0 MSTORE PUSH1 0x20 PUSH0 KECCAK256 PUSH1 0x1F DUP4 ADD PUSH1 0x5 SHR DUP2 ADD SWAP2 PUSH1 0x20 DUP5 LT PUSH2 0x387D JUMPI JUMPDEST PUSH1 0x1F ADD PUSH1 0x5 SHR ADD SWAP1 JUMPDEST DUP2 DUP2 LT PUSH2 0x3872 JUMPI POP PUSH2 0x3789 JUMP JUMPDEST PUSH0 DUP2 SSTORE PUSH1 0x1 ADD PUSH2 0x3865 JUMP JUMPDEST SWAP1 SWAP2 POP DUP2 SWAP1 PUSH2 0x385C JUMP JUMPDEST SWAP1 POP DUP9 ADD MLOAD DUP10 PUSH2 0x372C JUMP JUMPDEST PUSH0 DUP5 DUP2 MSTORE DUP2 DUP2 KECCAK256 SWAP3 POP PUSH1 0x1F NOT DUP5 AND SWAP1 JUMPDEST DUP12 DUP3 DUP3 LT PUSH2 0x38DD JUMPI POP POP SWAP1 DUP4 PUSH1 0x1 SWAP5 SWAP4 SWAP3 LT PUSH2 0x38C5 JUMPI JUMPDEST POP POP DUP2 SHL ADD SWAP1 SSTORE PUSH2 0x373F JUMP JUMPDEST DUP11 ADD MLOAD PUSH0 NOT PUSH1 0xF8 DUP5 PUSH1 0x3 SHL AND SHR NOT AND SWAP1 SSTORE DUP10 DUP1 PUSH2 0x38B9 JUMP JUMPDEST PUSH1 0x1 DUP5 SWAP6 PUSH1 0x20 SWAP4 SWAP6 DUP5 SWAP4 ADD MLOAD DUP2 SSTORE ADD SWAP5 ADD SWAP3 ADD PUSH2 0x38A2 JUMP JUMPDEST DUP3 PUSH0 MSTORE PUSH1 0x20 PUSH0 KECCAK256 PUSH1 0x1F DUP4 ADD PUSH1 0x5 SHR DUP2 ADD SWAP2 PUSH1 0x20 DUP5 LT PUSH2 0x3930 JUMPI JUMPDEST PUSH1 0x1F ADD PUSH1 0x5 SHR ADD SWAP1 JUMPDEST DUP2 DUP2 LT PUSH2 0x3925 JUMPI POP PUSH2 0x3716 JUMP JUMPDEST PUSH0 DUP2 SSTORE PUSH1 0x1 ADD PUSH2 0x3918 JUMP JUMPDEST SWAP1 SWAP2 POP DUP2 SWAP1 PUSH2 0x390F JUMP JUMPDEST SWAP1 POP DUP9 ADD MLOAD DUP10 PUSH2 0x3660 JUMP JUMPDEST PUSH1 0x1F NOT DUP3 AND SWAP1 DUP4 PUSH0 MSTORE DUP1 PUSH0 KECCAK256 SWAP2 PUSH0 JUMPDEST DUP11 DUP3 DUP3 LT PUSH2 0x3994 JUMPI POP POP SWAP2 DUP4 SWAP2 PUSH2 0x367A SWAP7 SWAP6 SWAP5 PUSH1 0x1 SWAP5 LT PUSH2 0x397C JUMPI JUMPDEST POP POP DUP2 SHL ADD SWAP1 SSTORE PUSH2 0x3673 JUMP JUMPDEST DUP11 ADD MLOAD PUSH0 NOT PUSH1 0xF8 DUP5 PUSH1 0x3 SHL AND SHR NOT AND SWAP1 SSTORE DUP10 DUP1 PUSH2 0x3970 JUMP JUMPDEST PUSH1 0x1 DUP5 SWAP6 PUSH1 0x20 SWAP4 SWAP6 DUP5 SWAP4 ADD MLOAD DUP2 SSTORE ADD SWAP5 ADD SWAP3 ADD PUSH2 0x3954 JUMP JUMPDEST DUP3 PUSH0 MSTORE PUSH1 0x20 PUSH0 KECCAK256 PUSH1 0x1F DUP4 ADD PUSH1 0x5 SHR DUP2 ADD SWAP2 PUSH1 0x20 DUP5 LT PUSH2 0x39E7 JUMPI JUMPDEST PUSH1 0x1F ADD PUSH1 0x5 SHR ADD SWAP1 JUMPDEST DUP2 DUP2 LT PUSH2 0x39DC JUMPI POP PUSH2 0x3643 JUMP JUMPDEST PUSH0 DUP2 SSTORE PUSH1 0x1 ADD PUSH2 0x39CF JUMP JUMPDEST SWAP1 SWAP2 POP DUP2 SWAP1 PUSH2 0x39C6 JUMP JUMPDEST CALLVALUE PUSH2 0x20A JUMPI PUSH1 0x20 CALLDATASIZE PUSH1 0x3 NOT ADD SLT PUSH2 0x20A JUMPI PUSH1 0x4 CALLDATALOAD PUSH1 0x1 PUSH1 0x1 PUSH1 0x40 SHL SUB DUP2 GT PUSH2 0x20A JUMPI PUSH2 0x4B0 PUSH1 0x20 DUP1 PUSH2 0x3A2A PUSH2 0x3D2 SWAP5 CALLDATASIZE SWAP1 PUSH1 0x4 ADD PUSH2 0x41A1 JUMP JUMPDEST PUSH1 0x40 MLOAD SWAP3 DUP2 DUP5 SWAP3 MLOAD SWAP2 DUP3 SWAP2 ADD DUP4 MCOPY DUP2 ADD PUSH1 0x2 DUP2 MSTORE SUB ADD SWAP1 KECCAK256 PUSH2 0x4376 JUMP JUMPDEST CALLVALUE PUSH2 0x20A JUMPI PUSH2 0x3A60 PUSH2 0x3A58 CALLDATASIZE PUSH2 0x42F1 JUMP JUMPDEST DUP2 SWAP3 SWAP2 PUSH2 0x4D0B JUMP JUMPDEST PUSH1 0x3 SLOAD PUSH1 0x20 DUP3 ADD PUSH0 JUMPDEST DUP3 DUP2 LT PUSH2 0x3A72 JUMPI STOP JUMPDEST DUP1 PUSH2 0x3A7E PUSH1 0x1 SWAP3 PUSH2 0x4462 JUMP JUMPDEST POP PUSH1 0x40 MLOAD PUSH2 0x3A94 DUP2 PUSH2 0x5BF PUSH1 0x20 DUP3 ADD DUP1 SWAP6 PUSH2 0x48B9 JUMP JUMPDEST MLOAD SWAP1 KECCAK256 PUSH1 0x40 MLOAD PUSH1 0x20 DUP2 ADD SWAP1 PUSH2 0x3AC1 PUSH1 0x20 DUP3 DUP11 MLOAD DUP1 DUP11 DUP8 MCOPY DUP2 ADD PUSH0 DUP4 DUP3 ADD MSTORE SUB ADD PUSH1 0x1F NOT DUP2 ADD DUP4 MSTORE DUP3 PUSH2 0x4180 JUMP JUMPDEST MLOAD SWAP1 KECCAK256 EQ PUSH2 0x3AD0 JUMPI JUMPDEST ADD PUSH2 0x3A69 JUMP JUMPDEST PUSH1 0x3 PUSH2 0x3ADB DUP3 PUSH2 0x4462 JUMP JUMPDEST POP ADD DUP1 SLOAD PUSH2 0xFF00 NOT AND PUSH2 0x700 OR SWAP1 SSTORE PUSH2 0x3ACA JUMP JUMPDEST CALLVALUE PUSH2 0x20A JUMPI PUSH1 0xA0 CALLDATASIZE PUSH1 0x3 NOT ADD SLT PUSH2 0x20A JUMPI PUSH1 0x4 CALLDATALOAD PUSH1 0x1 PUSH1 0x1 PUSH1 0x40 SHL SUB DUP2 GT PUSH2 0x20A JUMPI PUSH2 0x3B1F SWAP1 CALLDATASIZE SWAP1 PUSH1 0x4 ADD PUSH2 0x41A1 JUMP JUMPDEST PUSH1 0x24 CALLDATALOAD PUSH1 0x1 PUSH1 0x1 PUSH1 0x40 SHL SUB DUP2 GT PUSH2 0x20A JUMPI PUSH2 0x3B3E SWAP1 CALLDATASIZE SWAP1 PUSH1 0x4 ADD PUSH2 0x41A1 JUMP JUMPDEST PUSH1 0x44 CALLDATALOAD PUSH1 0x1 PUSH1 0x1 PUSH1 0x40 SHL SUB DUP2 GT PUSH2 0x20A JUMPI PUSH2 0x3B5D SWAP1 CALLDATASIZE SWAP1 PUSH1 0x4 ADD PUSH2 0x41A1 JUMP JUMPDEST SWAP1 PUSH1 0x64 CALLDATALOAD PUSH1 0x1 PUSH1 0x1 PUSH1 0x40 SHL SUB DUP2 GT PUSH2 0x20A JUMPI PUSH2 0x3B99 SWAP3 PUSH2 0x3B84 PUSH2 0x3B92 SWAP3 CALLDATASIZE SWAP1 PUSH1 0x4 ADD PUSH2 0x41A1 JUMP JUMPDEST PUSH2 0x3B8C PUSH2 0x42DB JUMP JUMPDEST SWAP2 PUSH2 0x4971 JUMP JUMPDEST SWAP1 DUP4 PUSH2 0x4F99 JUMP JUMPDEST PUSH1 0x3 SLOAD PUSH1 0x20 DUP3 ADD PUSH0 JUMPDEST DUP3 DUP2 LT PUSH2 0x3BAB JUMPI STOP JUMPDEST DUP1 PUSH2 0x3BB7 PUSH1 0x1 SWAP3 PUSH2 0x4462 JUMP JUMPDEST POP PUSH1 0x40 MLOAD PUSH2 0x3BCD DUP2 PUSH2 0x5BF PUSH1 0x20 DUP3 ADD DUP1 SWAP6 PUSH2 0x48B9 JUMP JUMPDEST MLOAD SWAP1 KECCAK256 PUSH1 0x40 MLOAD PUSH1 0x20 DUP2 ADD SWAP1 PUSH2 0x3BFA PUSH1 0x20 DUP3 DUP11 MLOAD DUP1 DUP11 DUP8 MCOPY DUP2 ADD PUSH0 DUP4 DUP3 ADD MSTORE SUB ADD PUSH1 0x1F NOT DUP2 ADD DUP4 MSTORE DUP3 PUSH2 0x4180 JUMP JUMPDEST MLOAD SWAP1 KECCAK256 EQ PUSH2 0x3C09 JUMPI JUMPDEST ADD PUSH2 0x3BA2 JUMP JUMPDEST PUSH1 0x3 PUSH2 0x3C14 DUP3 PUSH2 0x4462 JUMP JUMPDEST POP ADD DUP1 SLOAD PUSH2 0xFF00 NOT AND PUSH2 0x200 OR SWAP1 SSTORE PUSH2 0x3C03 JUMP JUMPDEST CALLVALUE PUSH2 0x20A JUMPI PUSH1 0x20 CALLDATASIZE PUSH1 0x3 NOT ADD SLT PUSH2 0x20A JUMPI PUSH1 0x4 CALLDATALOAD PUSH1 0x1 PUSH1 0x1 PUSH1 0x40 SHL SUB DUP2 GT PUSH2 0x20A JUMPI PUSH2 0x3C5B PUSH2 0x208 SWAP2 CALLDATASIZE SWAP1 PUSH1 0x4 ADD PUSH2 0x41A1 JUMP JUMPDEST PUSH2 0x4943 JUMP JUMPDEST CALLVALUE PUSH2 0x20A JUMPI PUSH1 0x20 CALLDATASIZE PUSH1 0x3 NOT ADD SLT PUSH2 0x20A JUMPI PUSH1 0x4 CALLDATALOAD PUSH1 0x1 PUSH1 0x1 PUSH1 0x40 SHL SUB DUP2 GT PUSH2 0x20A JUMPI PUSH2 0x352F PUSH1 0xA PUSH1 0x20 DUP1 PUSH2 0x3C9B PUSH2 0x3D2 SWAP6 CALLDATASIZE SWAP1 PUSH1 0x4 ADD PUSH2 0x41A1 JUMP JUMPDEST PUSH2 0x3CA3 PUSH2 0x4923 JUMP JUMPDEST POP PUSH1 0x40 MLOAD SWAP3 DUP2 DUP5 SWAP3 MLOAD SWAP2 DUP3 SWAP2 ADD DUP4 MCOPY DUP2 ADD PUSH0 DUP2 MSTORE SUB ADD SWAP1 KECCAK256 ADD PUSH2 0x4416 JUMP JUMPDEST CALLVALUE PUSH2 0x20A JUMPI PUSH1 0x60 CALLDATASIZE PUSH1 0x3 NOT ADD SLT PUSH2 0x20A JUMPI PUSH1 0x4 CALLDATALOAD PUSH1 0x1 PUSH1 0x1 PUSH1 0x40 SHL SUB DUP2 GT PUSH2 0x20A JUMPI PUSH2 0x3CF1 SWAP1 CALLDATASIZE SWAP1 PUSH1 0x4 ADD PUSH2 0x41A1 JUMP JUMPDEST PUSH1 0x44 CALLDATALOAD PUSH1 0x1 PUSH1 0x1 PUSH1 0x40 SHL SUB DUP2 GT PUSH2 0x20A JUMPI PUSH2 0x3D10 SWAP1 CALLDATASIZE SWAP1 PUSH1 0x4 ADD PUSH2 0x41F6 JUMP JUMPDEST SWAP1 PUSH2 0x3D1D PUSH1 0x24 CALLDATALOAD DUP3 PUSH2 0x4B50 JUMP JUMPDEST PUSH1 0x40 MLOAD DUP2 MLOAD SWAP1 PUSH1 0x20 DUP2 DUP2 DUP6 ADD SWAP4 DUP1 DUP6 DUP4 MCOPY DUP2 ADD PUSH1 0x7 DUP2 MSTORE SUB ADD SWAP1 KECCAK256 DUP4 MLOAD DUP1 MLOAD SWAP1 PUSH1 0x1 PUSH1 0x1 PUSH1 0x40 SHL SUB DUP3 GT PUSH2 0x35E JUMPI DUP2 SWAP1 PUSH2 0x3D57 DUP5 SLOAD PUSH2 0x433E JUMP JUMPDEST PUSH1 0x1F DUP2 GT PUSH2 0x40A7 JUMPI JUMPDEST POP PUSH1 0x20 SWAP1 PUSH1 0x1F DUP4 GT PUSH1 0x1 EQ PUSH2 0x4044 JUMPI PUSH0 SWAP3 PUSH2 0x4039 JUMPI JUMPDEST POP POP DUP2 PUSH1 0x1 SHL SWAP2 PUSH0 NOT SWAP1 PUSH1 0x3 SHL SHR NOT AND OR DUP2 SSTORE JUMPDEST PUSH1 0x1 DUP2 ADD PUSH1 0x20 DUP6 ADD MLOAD DUP1 MLOAD SWAP1 PUSH1 0x1 PUSH1 0x1 PUSH1 0x40 SHL SUB DUP3 GT PUSH2 0x35E JUMPI PUSH2 0x3DAE DUP4 SLOAD PUSH2 0x433E JUMP JUMPDEST PUSH1 0x1F DUP2 GT PUSH2 0x3FF4 JUMPI JUMPDEST POP PUSH1 0x20 SWAP1 PUSH1 0x1F DUP4 GT PUSH1 0x1 EQ PUSH2 0x3F8B JUMPI SWAP2 DUP1 PUSH1 0x2 SWAP5 SWAP3 PUSH1 0x40 SWAP7 SWAP5 PUSH0 SWAP3 PUSH2 0x3F80 JUMPI JUMPDEST POP POP DUP2 PUSH1 0x1 SHL SWAP2 PUSH0 NOT SWAP1 PUSH1 0x3 SHL SHR NOT AND OR SWAP1 SSTORE JUMPDEST ADD SWAP4 ADD MLOAD SWAP3 DUP4 MLOAD PUSH1 0x1 PUSH1 0x1 PUSH1 0x40 SHL SUB DUP2 GT PUSH2 0x35E JUMPI PUSH2 0x3E0A DUP3 SLOAD PUSH2 0x433E JUMP JUMPDEST PUSH1 0x1F DUP2 GT PUSH2 0x3F3B JUMPI JUMPDEST POP PUSH1 0x20 SWAP5 PUSH1 0x1F DUP3 GT PUSH1 0x1 EQ PUSH2 0x3EDA JUMPI SWAP5 DUP2 SWAP3 SWAP4 SWAP5 SWAP6 PUSH0 SWAP3 PUSH2 0x3ECF JUMPI JUMPDEST POP POP DUP2 PUSH1 0x1 SHL SWAP2 PUSH0 NOT SWAP1 PUSH1 0x3 SHL SHR NOT AND OR SWAP1 SSTORE JUMPDEST PUSH1 0x3 SLOAD SWAP1 PUSH0 JUMPDEST DUP3 DUP2 LT PUSH2 0x3E52 JUMPI STOP JUMPDEST DUP1 PUSH2 0x3E5E PUSH1 0x1 SWAP3 PUSH2 0x4462 JUMP JUMPDEST POP PUSH1 0x40 MLOAD PUSH2 0x3E74 DUP2 PUSH2 0x5BF PUSH1 0x20 DUP3 ADD DUP1 SWAP6 PUSH2 0x48B9 JUMP JUMPDEST MLOAD SWAP1 KECCAK256 PUSH1 0x40 MLOAD PUSH1 0x20 DUP2 ADD SWAP1 PUSH2 0x3EA1 PUSH1 0x20 DUP3 DUP11 MLOAD DUP1 DUP11 DUP8 MCOPY DUP2 ADD PUSH0 DUP4 DUP3 ADD MSTORE SUB ADD PUSH1 0x1F NOT DUP2 ADD DUP4 MSTORE DUP3 PUSH2 0x4180 JUMP JUMPDEST MLOAD SWAP1 KECCAK256 EQ PUSH2 0x3EB0 JUMPI JUMPDEST ADD PUSH2 0x3E49 JUMP JUMPDEST PUSH1 0x3 PUSH2 0x3EBB DUP3 PUSH2 0x4462 JUMP JUMPDEST POP ADD DUP1 SLOAD PUSH2 0xFF00 NOT AND PUSH2 0x500 OR SWAP1 SSTORE PUSH2 0x3EAA JUMP JUMPDEST ADD MLOAD SWAP1 POP DUP6 DUP1 PUSH2 0x3E2F JUMP JUMPDEST PUSH1 0x1F NOT DUP3 AND SWAP6 DUP4 PUSH0 MSTORE DUP1 PUSH0 KECCAK256 SWAP2 PUSH0 JUMPDEST DUP9 DUP2 LT PUSH2 0x3F23 JUMPI POP DUP4 PUSH1 0x1 SWAP6 SWAP7 SWAP8 SWAP9 LT PUSH2 0x3F0B JUMPI JUMPDEST POP POP POP DUP2 SHL ADD SWAP1 SSTORE PUSH2 0x3E43 JUMP JUMPDEST ADD MLOAD PUSH0 NOT PUSH1 0xF8 DUP5 PUSH1 0x3 SHL AND SHR NOT AND SWAP1 SSTORE DUP6 DUP1 DUP1 PUSH2 0x3EFE JUMP JUMPDEST SWAP2 SWAP3 PUSH1 0x20 PUSH1 0x1 DUP2 SWAP3 DUP7 DUP6 ADD MLOAD DUP2 SSTORE ADD SWAP5 ADD SWAP3 ADD PUSH2 0x3EE9 JUMP JUMPDEST DUP3 PUSH0 MSTORE PUSH1 0x20 PUSH0 KECCAK256 PUSH1 0x1F DUP4 ADD PUSH1 0x5 SHR DUP2 ADD SWAP2 PUSH1 0x20 DUP5 LT PUSH2 0x3F76 JUMPI JUMPDEST PUSH1 0x1F ADD PUSH1 0x5 SHR ADD SWAP1 JUMPDEST DUP2 DUP2 LT PUSH2 0x3F6B JUMPI POP PUSH2 0x3E13 JUMP JUMPDEST PUSH0 DUP2 SSTORE PUSH1 0x1 ADD PUSH2 0x3F5E JUMP JUMPDEST SWAP1 SWAP2 POP DUP2 SWAP1 PUSH2 0x3F55 JUMP JUMPDEST ADD MLOAD SWAP1 POP DUP10 DUP1 PUSH2 0x3DD7 JUMP JUMPDEST SWAP1 PUSH1 0x1F NOT DUP4 AND SWAP2 DUP5 PUSH0 MSTORE DUP2 PUSH0 KECCAK256 SWAP3 PUSH0 JUMPDEST DUP2 DUP2 LT PUSH2 0x3FDC JUMPI POP SWAP3 PUSH1 0x1 SWAP3 DUP6 SWAP3 PUSH1 0x40 SWAP9 SWAP7 PUSH1 0x2 SWAP9 SWAP7 LT PUSH2 0x3FC4 JUMPI JUMPDEST POP POP POP DUP2 SHL ADD SWAP1 SSTORE PUSH2 0x3DEB JUMP JUMPDEST ADD MLOAD PUSH0 NOT PUSH1 0xF8 DUP5 PUSH1 0x3 SHL AND SHR NOT AND SWAP1 SSTORE DUP10 DUP1 DUP1 PUSH2 0x3FB7 JUMP JUMPDEST SWAP3 SWAP4 PUSH1 0x20 PUSH1 0x1 DUP2 SWAP3 DUP8 DUP7 ADD MLOAD DUP2 SSTORE ADD SWAP6 ADD SWAP4 ADD PUSH2 0x3F9B JUMP JUMPDEST DUP4 PUSH0 MSTORE PUSH1 0x20 PUSH0 KECCAK256 PUSH1 0x1F DUP5 ADD PUSH1 0x5 SHR DUP2 ADD SWAP2 PUSH1 0x20 DUP6 LT PUSH2 0x402F JUMPI JUMPDEST PUSH1 0x1F ADD PUSH1 0x5 SHR ADD SWAP1 JUMPDEST DUP2 DUP2 LT PUSH2 0x4024 JUMPI POP PUSH2 0x3DB7 JUMP JUMPDEST PUSH0 DUP2 SSTORE PUSH1 0x1 ADD PUSH2 0x4017 JUMP JUMPDEST SWAP1 SWAP2 POP DUP2 SWAP1 PUSH2 0x400E JUMP JUMPDEST ADD MLOAD SWAP1 POP DUP7 DUP1 PUSH2 0x3D76 JUMP JUMPDEST PUSH0 DUP6 DUP2 MSTORE DUP3 DUP2 KECCAK256 SWAP4 POP PUSH1 0x1F NOT DUP6 AND SWAP1 JUMPDEST DUP2 DUP2 LT PUSH2 0x408F JUMPI POP SWAP1 DUP5 PUSH1 0x1 SWAP6 SWAP5 SWAP4 SWAP3 LT PUSH2 0x4077 JUMPI JUMPDEST POP POP POP DUP2 SHL ADD DUP2 SSTORE PUSH2 0x3D8A JUMP JUMPDEST ADD MLOAD PUSH0 NOT PUSH1 0xF8 DUP5 PUSH1 0x3 SHL AND SHR NOT AND SWAP1 SSTORE DUP7 DUP1 DUP1 PUSH2 0x406A JUMP JUMPDEST SWAP3 SWAP4 PUSH1 0x20 PUSH1 0x1 DUP2 SWAP3 DUP8 DUP7 ADD MLOAD DUP2 SSTORE ADD SWAP6 ADD SWAP4 ADD PUSH2 0x4054 JUMP JUMPDEST SWAP1 SWAP2 POP DUP4 PUSH0 MSTORE PUSH1 0x20 PUSH0 KECCAK256 PUSH1 0x1F DUP5 ADD PUSH1 0x5 SHR DUP2 ADD SWAP2 PUSH1 0x20 DUP6 LT PUSH2 0x40ED JUMPI JUMPDEST SWAP1 PUSH1 0x1F DUP6 SWAP5 SWAP4 SWAP3 ADD PUSH1 0x5 SHR ADD SWAP1 JUMPDEST DUP2 DUP2 LT PUSH2 0x40DF JUMPI POP PUSH2 0x3D60 JUMP JUMPDEST PUSH0 DUP2 SSTORE DUP5 SWAP4 POP PUSH1 0x1 ADD PUSH2 0x40D2 JUMP JUMPDEST SWAP1 SWAP2 POP DUP2 SWAP1 PUSH2 0x40C4 JUMP JUMPDEST PUSH1 0x60 DUP2 ADD SWAP1 DUP2 LT PUSH1 0x1 PUSH1 0x1 PUSH1 0x40 SHL SUB DUP3 GT OR PUSH2 0x35E JUMPI PUSH1 0x40 MSTORE JUMP JUMPDEST PUSH1 0xE0 DUP2 ADD SWAP1 DUP2 LT PUSH1 0x1 PUSH1 0x1 PUSH1 0x40 SHL SUB DUP3 GT OR PUSH2 0x35E JUMPI PUSH1 0x40 MSTORE JUMP JUMPDEST PUSH1 0x40 DUP2 ADD SWAP1 DUP2 LT PUSH1 0x1 PUSH1 0x1 PUSH1 0x40 SHL SUB DUP3 GT OR PUSH2 0x35E JUMPI PUSH1 0x40 MSTORE JUMP JUMPDEST PUSH2 0x100 DUP2 ADD SWAP1 DUP2 LT PUSH1 0x1 PUSH1 0x1 PUSH1 0x40 SHL SUB DUP3 GT OR PUSH2 0x35E JUMPI PUSH1 0x40 MSTORE JUMP JUMPDEST PUSH2 0x1A0 DUP2 ADD SWAP1 DUP2 LT PUSH1 0x1 PUSH1 0x1 PUSH1 0x40 SHL SUB DUP3 GT OR PUSH2 0x35E JUMPI PUSH1 0x40 MSTORE JUMP JUMPDEST SWAP1 PUSH1 0x1F DUP1 NOT SWAP2 ADD AND DUP2 ADD SWAP1 DUP2 LT PUSH1 0x1 PUSH1 0x1 PUSH1 0x40 SHL SUB DUP3 GT OR PUSH2 0x35E JUMPI PUSH1 0x40 MSTORE JUMP JUMPDEST DUP2 PUSH1 0x1F DUP3 ADD SLT ISZERO PUSH2 0x20A JUMPI DUP1 CALLDATALOAD SWAP1 PUSH1 0x1 PUSH1 0x1 PUSH1 0x40 SHL SUB DUP3 GT PUSH2 0x35E JUMPI PUSH1 0x40 MLOAD SWAP3 PUSH2 0x41D5 PUSH1 0x1F DUP5 ADD PUSH1 0x1F NOT AND PUSH1 0x20 ADD DUP6 PUSH2 0x4180 JUMP JUMPDEST DUP3 DUP5 MSTORE PUSH1 0x20 DUP4 DUP4 ADD ADD GT PUSH2 0x20A JUMPI DUP2 PUSH0 SWAP3 PUSH1 0x20 DUP1 SWAP4 ADD DUP4 DUP7 ADD CALLDATACOPY DUP4 ADD ADD MSTORE SWAP1 JUMP JUMPDEST SWAP2 SWAP1 PUSH1 0x60 DUP4 DUP3 SUB SLT PUSH2 0x20A JUMPI PUSH1 0x40 MLOAD SWAP1 PUSH2 0x420F DUP3 PUSH2 0x40F7 JUMP JUMPDEST DUP2 SWAP4 DUP1 CALLDATALOAD PUSH1 0x1 PUSH1 0x1 PUSH1 0x40 SHL SUB DUP2 GT PUSH2 0x20A JUMPI DUP3 PUSH2 0x422D SWAP2 DUP4 ADD PUSH2 0x41A1 JUMP JUMPDEST DUP4 MSTORE PUSH1 0x20 DUP2 ADD CALLDATALOAD PUSH1 0x1 PUSH1 0x1 PUSH1 0x40 SHL SUB DUP2 GT PUSH2 0x20A JUMPI DUP3 PUSH2 0x424E SWAP2 DUP4 ADD PUSH2 0x41A1 JUMP JUMPDEST PUSH1 0x20 DUP5 ADD MSTORE PUSH1 0x40 DUP2 ADD CALLDATALOAD SWAP2 PUSH1 0x1 PUSH1 0x1 PUSH1 0x40 SHL SUB DUP4 GT PUSH2 0x20A JUMPI PUSH1 0x40 SWAP3 PUSH2 0x4274 SWAP3 ADD PUSH2 0x41A1 JUMP JUMPDEST SWAP2 ADD MSTORE JUMP JUMPDEST DUP1 MLOAD DUP1 DUP4 MSTORE PUSH1 0x20 SWAP3 SWAP2 DUP2 SWAP1 DUP5 ADD DUP5 DUP5 ADD MCOPY PUSH0 DUP3 DUP3 ADD DUP5 ADD MSTORE PUSH1 0x1F ADD PUSH1 0x1F NOT AND ADD ADD SWAP1 JUMP JUMPDEST SWAP1 PUSH1 0x40 PUSH2 0x42C8 PUSH2 0x42B6 DUP5 MLOAD PUSH1 0x60 DUP6 MSTORE PUSH1 0x60 DUP6 ADD SWAP1 PUSH2 0x4279 JUMP JUMPDEST PUSH1 0x20 DUP6 ADD MLOAD DUP5 DUP3 SUB PUSH1 0x20 DUP7 ADD MSTORE PUSH2 0x4279 JUMP JUMPDEST SWAP3 DUP2 ADD MLOAD PUSH1 0x1 PUSH1 0x1 PUSH1 0xA0 SHL SUB AND SWAP2 ADD MSTORE SWAP1 JUMP JUMPDEST PUSH1 0x84 CALLDATALOAD SWAP1 PUSH1 0x1 PUSH1 0x1 PUSH1 0xA0 SHL SUB DUP3 AND DUP3 SUB PUSH2 0x20A JUMPI JUMP JUMPDEST SWAP1 PUSH1 0x40 PUSH1 0x3 NOT DUP4 ADD SLT PUSH2 0x20A JUMPI PUSH1 0x4 CALLDATALOAD PUSH1 0x1 PUSH1 0x1 PUSH1 0x40 SHL SUB DUP2 GT PUSH2 0x20A JUMPI DUP3 PUSH2 0x431C SWAP2 PUSH1 0x4 ADD PUSH2 0x41A1 JUMP JUMPDEST SWAP2 PUSH1 0x24 CALLDATALOAD SWAP1 PUSH1 0x1 PUSH1 0x1 PUSH1 0x40 SHL SUB DUP3 GT PUSH2 0x20A JUMPI PUSH2 0x433B SWAP2 PUSH1 0x4 ADD PUSH2 0x41A1 JUMP JUMPDEST SWAP1 JUMP JUMPDEST SWAP1 PUSH1 0x1 DUP3 DUP2 SHR SWAP3 AND DUP1 ISZERO PUSH2 0x436C JUMPI JUMPDEST PUSH1 0x20 DUP4 LT EQ PUSH2 0x4358 JUMPI JUMP JUMPDEST PUSH4 0x4E487B71 PUSH1 0xE0 SHL PUSH0 MSTORE PUSH1 0x22 PUSH1 0x4 MSTORE PUSH1 0x24 PUSH0 REVERT JUMPDEST SWAP2 PUSH1 0x7F AND SWAP2 PUSH2 0x434D JUMP JUMPDEST SWAP1 PUSH1 0x40 MLOAD SWAP2 DUP3 PUSH0 DUP3 SLOAD SWAP3 PUSH2 0x4389 DUP5 PUSH2 0x433E JUMP JUMPDEST DUP1 DUP5 MSTORE SWAP4 PUSH1 0x1 DUP2 AND SWAP1 DUP2 ISZERO PUSH2 0x43F4 JUMPI POP PUSH1 0x1 EQ PUSH2 0x43B0 JUMPI JUMPDEST POP PUSH2 0x43AE SWAP3 POP SUB DUP4 PUSH2 0x4180 JUMP JUMPDEST JUMP JUMPDEST SWAP1 POP PUSH0 SWAP3 SWAP2 SWAP3 MSTORE PUSH1 0x20 PUSH0 KECCAK256 SWAP1 PUSH0 SWAP2 JUMPDEST DUP2 DUP4 LT PUSH2 0x43D8 JUMPI POP POP SWAP1 PUSH1 0x20 PUSH2 0x43AE SWAP3 DUP3 ADD ADD PUSH0 PUSH2 0x43A1 JUMP JUMPDEST PUSH1 0x20 SWAP2 SWAP4 POP DUP1 PUSH1 0x1 SWAP2 SLOAD DUP4 DUP6 DUP10 ADD ADD MSTORE ADD SWAP2 ADD SWAP1 SWAP2 DUP5 SWAP3 PUSH2 0x43BF JUMP JUMPDEST SWAP1 POP PUSH1 0x20 SWAP3 POP PUSH2 0x43AE SWAP5 SWAP2 POP PUSH1 0xFF NOT AND DUP3 DUP5 ADD MSTORE ISZERO ISZERO PUSH1 0x5 SHL DUP3 ADD ADD PUSH0 PUSH2 0x43A1 JUMP JUMPDEST SWAP1 PUSH1 0x40 MLOAD PUSH2 0x4423 DUP2 PUSH2 0x40F7 JUMP JUMPDEST PUSH1 0x40 DUP2 SWAP4 PUSH2 0x4430 DUP2 PUSH2 0x4376 JUMP JUMPDEST DUP4 MSTORE PUSH2 0x443E PUSH1 0x1 DUP3 ADD PUSH2 0x4376 JUMP JUMPDEST PUSH1 0x20 DUP5 ADD MSTORE PUSH1 0x2 ADD SLOAD PUSH1 0x1 PUSH1 0x1 PUSH1 0xA0 SHL SUB AND SWAP2 ADD MSTORE JUMP JUMPDEST SWAP1 PUSH1 0x9 DUP3 LT ISZERO PUSH2 0x2CD0 JUMPI MSTORE JUMP JUMPDEST PUSH1 0x3 SLOAD DUP2 LT ISZERO PUSH2 0x447E JUMPI PUSH1 0x3 PUSH0 MSTORE PUSH1 0x6 PUSH1 0x20 PUSH0 KECCAK256 SWAP2 MUL ADD SWAP1 PUSH0 SWAP1 JUMP JUMPDEST PUSH4 0x4E487B71 PUSH1 0xE0 SHL PUSH0 MSTORE PUSH1 0x32 PUSH1 0x4 MSTORE PUSH1 0x24 PUSH0 REVERT JUMPDEST SWAP2 SWAP1 PUSH1 0x40 DUP4 DUP3 SUB SLT PUSH2 0x20A JUMPI PUSH1 0x40 MLOAD SWAP1 PUSH2 0x44AB DUP3 PUSH2 0x412D JUMP JUMPDEST DUP2 SWAP4 DUP1 CALLDATALOAD PUSH1 0x1 PUSH1 0x1 PUSH1 0x40 SHL SUB DUP2 GT PUSH2 0x20A JUMPI DUP3 PUSH2 0x44C9 SWAP2 DUP4 ADD PUSH2 0x41A1 JUMP JUMPDEST DUP4 MSTORE PUSH1 0x20 DUP2 ADD CALLDATALOAD SWAP2 PUSH1 0x1 PUSH1 0x1 PUSH1 0x40 SHL SUB DUP4 GT PUSH2 0x20A JUMPI PUSH1 0x20 SWAP3 PUSH2 0x4274 SWAP3 ADD PUSH2 0x41A1 JUMP JUMPDEST SWAP2 SWAP1 PUSH2 0x100 DUP4 DUP3 SUB SLT PUSH2 0x20A JUMPI PUSH1 0x40 MLOAD SWAP1 PUSH2 0x4506 DUP3 PUSH2 0x4148 JUMP JUMPDEST DUP2 SWAP4 DUP1 CALLDATALOAD PUSH1 0x1 PUSH1 0x1 PUSH1 0x40 SHL SUB DUP2 GT PUSH2 0x20A JUMPI DUP3 PUSH2 0x4524 SWAP2 DUP4 ADD PUSH2 0x41A1 JUMP JUMPDEST DUP4 MSTORE PUSH1 0x20 DUP2 ADD CALLDATALOAD PUSH1 0x1 PUSH1 0x1 PUSH1 0x40 SHL SUB DUP2 GT PUSH2 0x20A JUMPI DUP3 PUSH2 0x4545 SWAP2 DUP4 ADD PUSH2 0x41A1 JUMP JUMPDEST PUSH1 0x20 DUP5 ADD MSTORE PUSH1 0x40 DUP2 ADD CALLDATALOAD PUSH1 0x1 PUSH1 0x1 PUSH1 0x40 SHL SUB DUP2 GT PUSH2 0x20A JUMPI DUP3 PUSH2 0x4569 SWAP2 DUP4 ADD PUSH2 0x41A1 JUMP JUMPDEST PUSH1 0x40 DUP5 ADD MSTORE PUSH1 0x60 DUP2 ADD CALLDATALOAD PUSH1 0x1 PUSH1 0x1 PUSH1 0x40 SHL SUB DUP2 GT PUSH2 0x20A JUMPI DUP3 PUSH2 0x458D SWAP2 DUP4 ADD PUSH2 0x41A1 JUMP JUMPDEST PUSH1 0x60 DUP5 ADD MSTORE PUSH1 0x80 DUP2 ADD CALLDATALOAD PUSH1 0x1 PUSH1 0x1 PUSH1 0x40 SHL SUB DUP2 GT PUSH2 0x20A JUMPI DUP3 PUSH2 0x45B1 SWAP2 DUP4 ADD PUSH2 0x41A1 JUMP JUMPDEST PUSH1 0x80 DUP5 ADD MSTORE PUSH1 0xA0 DUP2 ADD CALLDATALOAD PUSH1 0x1 PUSH1 0x1 PUSH1 0x40 SHL SUB DUP2 GT PUSH2 0x20A JUMPI DUP3 PUSH2 0x45D5 SWAP2 DUP4 ADD PUSH2 0x41A1 JUMP JUMPDEST PUSH1 0xA0 DUP5 ADD MSTORE PUSH1 0xC0 DUP2 ADD CALLDATALOAD PUSH1 0x1 PUSH1 0x1 PUSH1 0x40 SHL SUB DUP2 GT PUSH2 0x20A JUMPI DUP3 PUSH2 0x45F9 SWAP2 DUP4 ADD PUSH2 0x41A1 JUMP JUMPDEST PUSH1 0xC0 DUP5 ADD MSTORE PUSH1 0xE0 DUP2 ADD CALLDATALOAD SWAP2 PUSH1 0x1 PUSH1 0x1 PUSH1 0x40 SHL SUB DUP4 GT PUSH2 0x20A JUMPI PUSH1 0xE0 SWAP3 PUSH2 0x4274 SWAP3 ADD PUSH2 0x41A1 JUMP JUMPDEST SWAP1 SWAP2 PUSH2 0x4636 PUSH2 0x433B SWAP4 PUSH1 0x40 DUP5 MSTORE PUSH1 0x40 DUP5 ADD SWAP1 PUSH2 0x4279 JUMP JUMPDEST SWAP2 PUSH1 0x20 DUP2 DUP5 SUB SWAP2 ADD MSTORE PUSH2 0x4279 JUMP JUMPDEST PUSH1 0x20 DUP2 ADD PUSH1 0x20 DUP3 MSTORE DUP3 MLOAD DUP1 SWAP2 MSTORE PUSH1 0x40 DUP3 ADD SWAP2 PUSH1 0x20 PUSH1 0x40 DUP4 PUSH1 0x5 SHL DUP4 ADD ADD SWAP5 ADD SWAP3 PUSH0 SWAP2 JUMPDEST DUP4 DUP4 LT PUSH2 0x4676 JUMPI POP POP POP POP POP SWAP1 JUMP JUMPDEST SWAP1 SWAP2 SWAP3 SWAP4 SWAP5 PUSH1 0x20 DUP1 PUSH1 0x1 SWAP3 PUSH1 0x3F NOT DUP6 DUP3 SUB ADD DUP7 MSTORE DUP9 MLOAD SWAP1 PUSH1 0xC0 DUP1 PUSH2 0x46FF PUSH2 0x46CE PUSH2 0x46BC PUSH2 0x46AC DUP8 MLOAD PUSH1 0xE0 DUP9 MSTORE PUSH1 0xE0 DUP9 ADD SWAP1 PUSH2 0x4279 JUMP JUMPDEST DUP9 DUP9 ADD MLOAD DUP8 DUP3 SUB DUP11 DUP10 ADD MSTORE PUSH2 0x4279 JUMP JUMPDEST PUSH1 0x40 DUP8 ADD MLOAD DUP7 DUP3 SUB PUSH1 0x40 DUP9 ADD MSTORE PUSH2 0x4279 JUMP JUMPDEST PUSH1 0xFF PUSH1 0x60 DUP8 ADD MLOAD AND PUSH1 0x60 DUP7 ADD MSTORE PUSH2 0x46ED PUSH1 0x80 DUP8 ADD MLOAD PUSH1 0x80 DUP8 ADD SWAP1 PUSH2 0x4455 JUMP JUMPDEST PUSH1 0xA0 DUP7 ADD MLOAD DUP6 DUP3 SUB PUSH1 0xA0 DUP8 ADD MSTORE PUSH2 0x4279 JUMP JUMPDEST SWAP4 ADD MLOAD SWAP2 ADD MSTORE SWAP8 ADD SWAP4 ADD SWAP4 ADD SWAP2 SWAP4 SWAP3 SWAP1 PUSH2 0x4667 JUMP JUMPDEST SWAP1 PUSH2 0x433B SWAP2 PUSH1 0x20 DUP2 MSTORE PUSH2 0x472B PUSH1 0x20 DUP3 ADD DUP4 MLOAD PUSH2 0x4455 JUMP JUMPDEST PUSH1 0x20 DUP3 ADD MLOAD PUSH1 0x40 DUP3 ADD MSTORE PUSH1 0x40 DUP3 ADD MLOAD PUSH1 0x60 DUP3 ADD MSTORE PUSH1 0x60 DUP3 ADD MLOAD PUSH1 0x80 DUP3 ADD MSTORE PUSH1 0x80 DUP3 ADD MLOAD PUSH1 0xA0 DUP3 ADD MSTORE PUSH1 0xA0 DUP3 ADD MLOAD PUSH1 0xC0 DUP3 ADD MSTORE PUSH1 0xC0 DUP3 ADD MLOAD PUSH1 0xE0 DUP3 ADD MSTORE PUSH1 0xE0 DUP3 ADD MLOAD PUSH2 0x100 DUP3 ADD MSTORE PUSH2 0x100 DUP3 ADD MLOAD PUSH2 0x120 DUP3 ADD MSTORE PUSH2 0x120 DUP3 ADD MLOAD PUSH2 0x140 DUP3 ADD MSTORE PUSH2 0x180 PUSH2 0x47C3 PUSH2 0x47AD PUSH2 0x140 DUP6 ADD MLOAD PUSH2 0x1A0 PUSH2 0x160 DUP7 ADD MSTORE PUSH2 0x1C0 DUP6 ADD SWAP1 PUSH2 0x429D JUMP JUMPDEST PUSH2 0x160 DUP6 ADD MLOAD DUP5 DUP3 SUB PUSH1 0x1F NOT ADD DUP5 DUP7 ADD MSTORE PUSH2 0x429D JUMP JUMPDEST SWAP3 ADD MLOAD SWAP1 PUSH2 0x1A0 PUSH1 0x1F NOT DUP3 DUP6 SUB ADD SWAP2 ADD MSTORE PUSH2 0x4279 JUMP JUMPDEST SWAP2 SWAP1 PUSH1 0x60 DUP4 DUP3 SUB SLT PUSH2 0x20A JUMPI PUSH1 0x40 MLOAD SWAP1 PUSH2 0x47F2 DUP3 PUSH2 0x40F7 JUMP JUMPDEST DUP2 SWAP4 DUP1 CALLDATALOAD PUSH1 0x1 PUSH1 0x1 PUSH1 0x40 SHL SUB DUP2 GT PUSH2 0x20A JUMPI DUP3 PUSH2 0x4810 SWAP2 DUP4 ADD PUSH2 0x41A1 JUMP JUMPDEST DUP4 MSTORE PUSH1 0x20 DUP2 ADD CALLDATALOAD PUSH1 0x1 PUSH1 0x1 PUSH1 0x40 SHL SUB DUP2 GT PUSH2 0x20A JUMPI PUSH1 0x40 SWAP3 PUSH2 0x4833 SWAP2 DUP4 ADD PUSH2 0x41A1 JUMP JUMPDEST PUSH1 0x20 DUP5 ADD MSTORE ADD CALLDATALOAD SWAP1 PUSH1 0x1 PUSH1 0x1 PUSH1 0xA0 SHL SUB DUP3 AND DUP3 SUB PUSH2 0x20A JUMPI PUSH1 0x40 ADD MSTORE JUMP JUMPDEST PUSH1 0x60 PUSH1 0x3 NOT DUP3 ADD SLT PUSH2 0x20A JUMPI PUSH1 0x4 CALLDATALOAD PUSH1 0x1 PUSH1 0x1 PUSH1 0x40 SHL SUB DUP2 GT PUSH2 0x20A JUMPI DUP2 PUSH2 0x487B SWAP2 PUSH1 0x4 ADD PUSH2 0x41A1 JUMP JUMPDEST SWAP2 PUSH1 0x24 CALLDATALOAD PUSH1 0x1 PUSH1 0x1 PUSH1 0x40 SHL SUB DUP2 GT PUSH2 0x20A JUMPI DUP3 PUSH2 0x489A SWAP2 PUSH1 0x4 ADD PUSH2 0x41A1 JUMP JUMPDEST SWAP2 PUSH1 0x44 CALLDATALOAD SWAP1 PUSH1 0x1 PUSH1 0x1 PUSH1 0x40 SHL SUB DUP3 GT PUSH2 0x20A JUMPI PUSH2 0x433B SWAP2 PUSH1 0x4 ADD PUSH2 0x47D9 JUMP JUMPDEST PUSH0 SWAP3 SWAP2 DUP2 SLOAD SWAP2 PUSH2 0x48C8 DUP4 PUSH2 0x433E JUMP JUMPDEST SWAP3 PUSH1 0x1 DUP2 AND SWAP1 DUP2 ISZERO PUSH2 0x4910 JUMPI POP PUSH1 0x1 EQ PUSH2 0x48E1 JUMPI POP POP POP JUMP JUMPDEST SWAP1 SWAP2 SWAP3 SWAP4 POP PUSH0 MSTORE PUSH1 0x20 PUSH0 KECCAK256 PUSH0 SWAP1 JUMPDEST DUP4 DUP3 LT PUSH2 0x48FC JUMPI POP POP ADD SWAP1 JUMP JUMPDEST PUSH1 0x1 DUP2 PUSH1 0x20 SWAP3 SLOAD DUP5 DUP7 ADD MSTORE ADD SWAP2 ADD SWAP1 PUSH2 0x48EF JUMP JUMPDEST PUSH1 0xFF NOT AND DUP4 MSTORE POP POP DUP2 ISZERO ISZERO SWAP1 SWAP2 MUL ADD SWAP2 POP JUMP JUMPDEST PUSH1 0x40 MLOAD SWAP1 PUSH2 0x4930 DUP3 PUSH2 0x40F7 JUMP JUMPDEST PUSH0 PUSH1 0x40 DUP4 PUSH1 0x60 DUP2 MSTORE PUSH1 0x60 PUSH1 0x20 DUP3 ADD MSTORE ADD MSTORE JUMP JUMPDEST PUSH1 0x20 DUP1 SWAP2 PUSH1 0x40 MLOAD SWAP3 DUP2 DUP5 SWAP3 MLOAD SWAP2 DUP3 SWAP2 ADD DUP4 MCOPY DUP2 ADD PUSH0 DUP2 MSTORE SUB ADD SWAP1 KECCAK256 TIMESTAMP PUSH1 0x4 DUP3 ADD SSTORE PUSH1 0x3 PUSH1 0xFF NOT DUP3 SLOAD AND OR SWAP1 SSTORE JUMP JUMPDEST SWAP2 SWAP1 PUSH2 0x497B PUSH2 0x4923 JUMP JUMPDEST POP PUSH1 0x40 MLOAD SWAP3 PUSH2 0x4989 DUP5 PUSH2 0x40F7 JUMP JUMPDEST DUP4 MSTORE PUSH1 0x20 DUP4 ADD MSTORE PUSH1 0x1 PUSH1 0x1 PUSH1 0xA0 SHL SUB AND PUSH1 0x40 DUP3 ADD MSTORE SWAP1 JUMP JUMPDEST PUSH1 0x20 DUP1 SWAP2 PUSH1 0x40 MLOAD SWAP3 DUP2 DUP5 SWAP3 MLOAD SWAP2 DUP3 SWAP2 ADD DUP4 MCOPY DUP2 ADD PUSH0 DUP2 MSTORE SUB ADD SWAP1 KECCAK256 TIMESTAMP PUSH1 0x9 DUP3 ADD SSTORE PUSH1 0x8 PUSH1 0xFF NOT DUP3 SLOAD AND OR SWAP1 SSTORE JUMP JUMPDEST PUSH1 0x9 DUP3 LT ISZERO PUSH2 0x2CD0 JUMPI MSTORE JUMP JUMPDEST SWAP1 PUSH2 0x433B PUSH2 0x4A1A PUSH1 0x40 MLOAD PUSH1 0x20 DUP6 MLOAD SWAP2 DUP2 DUP2 DUP2 DUP10 ADD SWAP5 DUP1 DUP7 DUP4 MCOPY DUP2 ADD PUSH1 0x1 DUP2 MSTORE SUB ADD SWAP1 KECCAK256 SWAP6 PUSH1 0x40 MLOAD SWAP3 DUP4 SWAP2 MLOAD DUP1 SWAP2 DUP4 MCOPY DUP2 ADD PUSH1 0x2 DUP2 MSTORE SUB ADD SWAP1 KECCAK256 SWAP4 PUSH2 0x4376 JUMP JUMPDEST SWAP3 PUSH2 0x4376 JUMP JUMPDEST PUSH1 0xFF AND PUSH1 0xFF DUP2 EQ PUSH2 0x372 JUMPI PUSH1 0x1 ADD SWAP1 JUMP JUMPDEST PUSH1 0x1 PUSH1 0x1 PUSH1 0x40 SHL SUB DUP2 GT PUSH2 0x35E JUMPI PUSH1 0x5 SHL PUSH1 0x20 ADD SWAP1 JUMP JUMPDEST SWAP1 PUSH2 0x4A52 DUP3 PUSH2 0x4A31 JUMP JUMPDEST PUSH2 0x4A5F PUSH1 0x40 MLOAD SWAP2 DUP3 PUSH2 0x4180 JUMP JUMPDEST DUP3 DUP2 MSTORE DUP1 SWAP3 PUSH2 0x4A70 PUSH1 0x1F NOT SWAP2 PUSH2 0x4A31 JUMP JUMPDEST ADD SWAP1 PUSH0 JUMPDEST DUP3 DUP2 LT PUSH2 0x4A80 JUMPI POP POP POP JUMP JUMPDEST PUSH1 0x20 SWAP1 PUSH1 0x40 MLOAD PUSH2 0x4A8F DUP2 PUSH2 0x4112 JUMP JUMPDEST PUSH1 0x60 DUP2 MSTORE PUSH1 0x60 DUP4 DUP3 ADD MSTORE PUSH1 0x60 PUSH1 0x40 DUP3 ADD MSTORE PUSH0 PUSH1 0x60 DUP3 ADD MSTORE PUSH0 PUSH1 0x80 DUP3 ADD MSTORE PUSH1 0x60 PUSH1 0xA0 DUP3 ADD MSTORE PUSH0 PUSH1 0xC0 DUP3 ADD MSTORE DUP3 DUP3 DUP6 ADD ADD MSTORE ADD PUSH2 0x4A74 JUMP JUMPDEST DUP1 MLOAD DUP3 LT ISZERO PUSH2 0x447E JUMPI PUSH1 0x20 SWAP2 PUSH1 0x5 SHL ADD ADD SWAP1 JUMP JUMPDEST SWAP1 PUSH1 0x40 MLOAD PUSH2 0x4AE6 DUP2 PUSH2 0x4112 JUMP JUMPDEST PUSH1 0xC0 PUSH1 0x5 DUP3 SWAP5 PUSH2 0x4AF5 DUP2 PUSH2 0x4376 JUMP JUMPDEST DUP5 MSTORE PUSH2 0x4B03 PUSH1 0x1 DUP3 ADD PUSH2 0x4376 JUMP JUMPDEST PUSH1 0x20 DUP6 ADD MSTORE PUSH2 0x4B14 PUSH1 0x2 DUP3 ADD PUSH2 0x4376 JUMP JUMPDEST PUSH1 0x40 DUP6 ADD MSTORE PUSH2 0x4B38 PUSH1 0xFF PUSH1 0x3 DUP4 ADD SLOAD DUP2 DUP2 AND PUSH1 0x60 DUP9 ADD MSTORE PUSH1 0x8 SHR AND PUSH1 0x80 DUP7 ADD PUSH2 0x49CF JUMP JUMPDEST PUSH2 0x4B44 PUSH1 0x4 DUP3 ADD PUSH2 0x4376 JUMP JUMPDEST PUSH1 0xA0 DUP6 ADD MSTORE ADD SLOAD SWAP2 ADD MSTORE JUMP JUMPDEST SWAP1 TIMESTAMP GT ISZERO PUSH2 0x4B86 JUMPI PUSH1 0x20 DUP1 SWAP2 PUSH1 0x40 MLOAD SWAP3 DUP2 DUP5 SWAP3 MLOAD SWAP2 DUP3 SWAP2 ADD DUP4 MCOPY DUP2 ADD PUSH0 DUP2 MSTORE SUB ADD SWAP1 KECCAK256 TIMESTAMP PUSH1 0x6 DUP3 ADD SSTORE PUSH1 0x5 PUSH1 0xFF NOT DUP3 SLOAD AND OR SWAP1 SSTORE JUMP JUMPDEST PUSH1 0x40 MLOAD PUSH3 0x461BCD PUSH1 0xE5 SHL DUP2 MSTORE PUSH1 0x20 PUSH1 0x4 DUP3 ADD MSTORE PUSH1 0x18 PUSH1 0x24 DUP3 ADD MSTORE PUSH32 0x536572746966696B6174206D61736968206265726C616B750000000000000000 PUSH1 0x44 DUP3 ADD MSTORE PUSH1 0x64 SWAP1 REVERT JUMPDEST PUSH1 0x40 MLOAD SWAP1 PUSH2 0x4BD8 DUP3 PUSH2 0x4164 JUMP JUMPDEST PUSH1 0x60 PUSH2 0x180 DUP4 PUSH0 DUP2 MSTORE PUSH0 PUSH1 0x20 DUP3 ADD MSTORE PUSH0 PUSH1 0x40 DUP3 ADD MSTORE PUSH0 DUP4 DUP3 ADD MSTORE PUSH0 PUSH1 0x80 DUP3 ADD MSTORE PUSH0 PUSH1 0xA0 DUP3 ADD MSTORE PUSH0 PUSH1 0xC0 DUP3 ADD MSTORE PUSH0 PUSH1 0xE0 DUP3 ADD MSTORE PUSH0 PUSH2 0x100 DUP3 ADD MSTORE PUSH0 PUSH2 0x120 DUP3 ADD MSTORE PUSH2 0x4C20 PUSH2 0x4923 JUMP JUMPDEST PUSH2 0x140 DUP3 ADD MSTORE PUSH2 0x4C2E PUSH2 0x4923 JUMP JUMPDEST PUSH2 0x160 DUP3 ADD MSTORE ADD MSTORE JUMP JUMPDEST PUSH1 0x20 DUP1 SWAP2 PUSH2 0x4C44 PUSH2 0x4BCB JUMP JUMPDEST POP PUSH1 0x40 MLOAD SWAP3 DUP2 DUP5 SWAP3 MLOAD SWAP2 DUP3 SWAP2 ADD DUP4 MCOPY DUP2 ADD PUSH0 DUP2 MSTORE SUB ADD SWAP1 KECCAK256 PUSH2 0x4D02 PUSH1 0x10 PUSH1 0x40 MLOAD SWAP3 PUSH2 0x4C6E DUP5 PUSH2 0x4164 JUMP JUMPDEST PUSH2 0x4C7C PUSH1 0xFF DUP3 SLOAD AND DUP6 PUSH2 0x49CF JUMP JUMPDEST PUSH1 0x1 DUP2 ADD SLOAD PUSH1 0x20 DUP6 ADD MSTORE PUSH1 0x2 DUP2 ADD SLOAD PUSH1 0x40 DUP6 ADD MSTORE PUSH1 0x3 DUP2 ADD SLOAD PUSH1 0x60 DUP6 ADD MSTORE PUSH1 0x4 DUP2 ADD SLOAD PUSH1 0x80 DUP6 ADD MSTORE PUSH1 0x5 DUP2 ADD SLOAD PUSH1 0xA0 DUP6 ADD MSTORE PUSH1 0x6 DUP2 ADD SLOAD PUSH1 0xC0 DUP6 ADD MSTORE PUSH1 0x7 DUP2 ADD SLOAD PUSH1 0xE0 DUP6 ADD MSTORE PUSH1 0x8 DUP2 ADD SLOAD PUSH2 0x100 DUP6 ADD MSTORE PUSH1 0x9 DUP2 ADD SLOAD PUSH2 0x120 DUP6 ADD MSTORE PUSH2 0x4CE4 PUSH1 0xA DUP3 ADD PUSH2 0x4416 JUMP JUMPDEST PUSH2 0x140 DUP6 ADD MSTORE PUSH2 0x4CF6 PUSH1 0xD DUP3 ADD PUSH2 0x4416 JUMP JUMPDEST PUSH2 0x160 DUP6 ADD MSTORE ADD PUSH2 0x4376 JUMP JUMPDEST PUSH2 0x180 DUP3 ADD MSTORE SWAP1 JUMP JUMPDEST SWAP2 SWAP1 SWAP2 PUSH1 0x40 MLOAD PUSH1 0x20 DUP3 MLOAD SWAP2 DUP2 DUP2 DUP2 DUP7 ADD SWAP5 DUP1 DUP7 DUP4 MCOPY DUP2 ADD PUSH0 DUP2 MSTORE SUB ADD SWAP1 KECCAK256 SWAP3 PUSH1 0x40 MLOAD SWAP3 DUP4 SWAP2 MLOAD DUP1 SWAP2 DUP4 MCOPY DUP2 ADD PUSH1 0x2 DUP2 MSTORE SUB ADD SWAP1 KECCAK256 DUP4 MLOAD PUSH1 0x1 PUSH1 0x1 PUSH1 0x40 SHL SUB DUP2 GT PUSH2 0x35E JUMPI PUSH2 0x4D59 DUP3 SLOAD PUSH2 0x433E JUMP JUMPDEST PUSH1 0x1F DUP2 GT PUSH2 0x4E11 JUMPI JUMPDEST POP PUSH1 0x20 SWAP5 PUSH1 0x1F DUP3 GT PUSH1 0x1 EQ PUSH2 0x4DB0 JUMPI SWAP5 DUP2 SWAP3 SWAP4 SWAP5 SWAP6 PUSH0 SWAP3 PUSH2 0x4DA5 JUMPI JUMPDEST POP POP DUP2 PUSH1 0x1 SHL SWAP2 PUSH0 NOT SWAP1 PUSH1 0x3 SHL SHR NOT AND OR SWAP1 SSTORE JUMPDEST TIMESTAMP PUSH1 0x8 DUP3 ADD SSTORE DUP1 SLOAD PUSH1 0xFF NOT AND PUSH1 0x7 OR SWAP1 SSTORE JUMP JUMPDEST ADD MLOAD SWAP1 POP PUSH0 DUP1 PUSH2 0x4D7E JUMP JUMPDEST PUSH1 0x1F NOT DUP3 AND SWAP6 DUP4 PUSH0 MSTORE DUP1 PUSH0 KECCAK256 SWAP2 PUSH0 JUMPDEST DUP9 DUP2 LT PUSH2 0x4DF9 JUMPI POP DUP4 PUSH1 0x1 SWAP6 SWAP7 SWAP8 SWAP9 LT PUSH2 0x4DE1 JUMPI JUMPDEST POP POP POP DUP2 SHL ADD SWAP1 SSTORE PUSH2 0x4D92 JUMP JUMPDEST ADD MLOAD PUSH0 NOT PUSH1 0xF8 DUP5 PUSH1 0x3 SHL AND SHR NOT AND SWAP1 SSTORE PUSH0 DUP1 DUP1 PUSH2 0x4DD4 JUMP JUMPDEST SWAP2 SWAP3 PUSH1 0x20 PUSH1 0x1 DUP2 SWAP3 DUP7 DUP6 ADD MLOAD DUP2 SSTORE ADD SWAP5 ADD SWAP3 ADD PUSH2 0x4DBF JUMP JUMPDEST DUP3 PUSH0 MSTORE PUSH1 0x20 PUSH0 KECCAK256 PUSH1 0x1F DUP4 ADD PUSH1 0x5 SHR DUP2 ADD SWAP2 PUSH1 0x20 DUP5 LT PUSH2 0x4E4C JUMPI JUMPDEST PUSH1 0x1F ADD PUSH1 0x5 SHR ADD SWAP1 JUMPDEST DUP2 DUP2 LT PUSH2 0x4E41 JUMPI POP PUSH2 0x4D62 JUMP JUMPDEST PUSH0 DUP2 SSTORE PUSH1 0x1 ADD PUSH2 0x4E34 JUMP JUMPDEST SWAP1 SWAP2 POP DUP2 SWAP1 PUSH2 0x4E2B JUMP JUMPDEST PUSH1 0x20 DUP1 SWAP2 SWAP4 SWAP3 SWAP4 PUSH1 0x40 MLOAD SWAP3 DUP2 DUP5 SWAP3 MLOAD SWAP2 DUP3 SWAP2 ADD DUP4 MCOPY DUP2 ADD PUSH0 DUP2 MSTORE SUB ADD SWAP1 KECCAK256 TIMESTAMP PUSH1 0x7 DUP3 ADD SSTORE PUSH1 0x82 TIMESTAMP ADD SWAP1 DUP2 TIMESTAMP GT PUSH2 0x372 JUMPI PUSH1 0x10 SWAP2 PUSH1 0x5 DUP3 ADD SSTORE PUSH1 0x6 PUSH1 0xFF NOT DUP3 SLOAD AND OR DUP2 SSTORE ADD DUP3 MLOAD PUSH1 0x1 PUSH1 0x1 PUSH1 0x40 SHL SUB DUP2 GT PUSH2 0x35E JUMPI PUSH2 0x4EB4 DUP3 SLOAD PUSH2 0x433E JUMP JUMPDEST PUSH1 0x1F DUP2 GT PUSH2 0x4F54 JUMPI JUMPDEST POP PUSH1 0x20 PUSH1 0x1F DUP3 GT PUSH1 0x1 EQ PUSH2 0x4EF6 JUMPI DUP2 SWAP3 SWAP4 SWAP5 PUSH0 SWAP3 PUSH2 0x4EEB JUMPI JUMPDEST POP POP DUP2 PUSH1 0x1 SHL SWAP2 PUSH0 NOT SWAP1 PUSH1 0x3 SHL SHR NOT AND OR SWAP1 SSTORE JUMP JUMPDEST ADD MLOAD SWAP1 POP PUSH0 DUP1 PUSH2 0x4ED6 JUMP JUMPDEST PUSH1 0x1F NOT DUP3 AND SWAP1 DUP4 PUSH0 MSTORE DUP1 PUSH0 KECCAK256 SWAP2 PUSH0 JUMPDEST DUP2 DUP2 LT PUSH2 0x4F3C JUMPI POP SWAP6 DUP4 PUSH1 0x1 SWAP6 SWAP7 SWAP8 LT PUSH2 0x4F24 JUMPI JUMPDEST POP POP POP DUP2 SHL ADD SWAP1 SSTORE JUMP JUMPDEST ADD MLOAD PUSH0 NOT PUSH1 0xF8 DUP5 PUSH1 0x3 SHL AND SHR NOT AND SWAP1 SSTORE PUSH0 DUP1 DUP1 PUSH2 0x4F1A JUMP JUMPDEST SWAP2 SWAP3 PUSH1 0x20 PUSH1 0x1 DUP2 SWAP3 DUP7 DUP12 ADD MLOAD DUP2 SSTORE ADD SWAP5 ADD SWAP3 ADD PUSH2 0x4F05 JUMP JUMPDEST DUP3 PUSH0 MSTORE PUSH1 0x20 PUSH0 KECCAK256 PUSH1 0x1F DUP4 ADD PUSH1 0x5 SHR DUP2 ADD SWAP2 PUSH1 0x20 DUP5 LT PUSH2 0x4F8F JUMPI JUMPDEST PUSH1 0x1F ADD PUSH1 0x5 SHR ADD SWAP1 JUMPDEST DUP2 DUP2 LT PUSH2 0x4F84 JUMPI POP PUSH2 0x4EBD JUMP JUMPDEST PUSH0 DUP2 SSTORE PUSH1 0x1 ADD PUSH2 0x4F77 JUMP JUMPDEST SWAP1 SWAP2 POP DUP2 SWAP1 PUSH2 0x4F6E JUMP JUMPDEST SWAP3 SWAP2 SWAP1 PUSH1 0x40 MLOAD PUSH1 0x20 DUP6 MLOAD SWAP2 DUP2 DUP2 DUP2 DUP10 ADD SWAP5 DUP1 DUP7 DUP4 MCOPY DUP2 ADD PUSH0 DUP2 MSTORE SUB ADD SWAP1 KECCAK256 SWAP6 PUSH1 0x40 MLOAD SWAP3 DUP4 SWAP2 MLOAD DUP1 SWAP2 DUP4 MCOPY DUP2 ADD PUSH1 0x1 DUP2 MSTORE SUB ADD SWAP1 KECCAK256 SWAP1 DUP1 MLOAD SWAP1 PUSH1 0x1 PUSH1 0x1 PUSH1 0x40 SHL SUB DUP3 GT PUSH2 0x35E JUMPI DUP2 SWAP1 PUSH2 0x4FEB DUP5 SLOAD PUSH2 0x433E JUMP JUMPDEST PUSH1 0x1F DUP2 GT PUSH2 0x52E6 JUMPI JUMPDEST POP PUSH1 0x20 SWAP1 PUSH1 0x1F DUP4 GT PUSH1 0x1 EQ PUSH2 0x5283 JUMPI PUSH0 SWAP3 PUSH2 0x5278 JUMPI JUMPDEST POP POP DUP2 PUSH1 0x1 SHL SWAP2 PUSH0 NOT SWAP1 PUSH1 0x3 SHL SHR NOT AND OR SWAP1 SSTORE JUMPDEST DUP1 MLOAD DUP1 MLOAD PUSH1 0xD DUP6 ADD SWAP2 PUSH1 0x1 PUSH1 0x1 PUSH1 0x40 SHL SUB DUP3 GT PUSH2 0x35E JUMPI PUSH2 0x503F DUP4 SLOAD PUSH2 0x433E JUMP JUMPDEST PUSH1 0x1F DUP2 GT PUSH2 0x5233 JUMPI JUMPDEST POP PUSH1 0x20 SWAP1 PUSH1 0x1F DUP4 GT PUSH1 0x1 EQ PUSH2 0x51CC JUMPI PUSH1 0x20 SWAP5 SWAP4 SWAP3 SWAP2 PUSH0 SWAP2 DUP4 PUSH2 0x51C1 JUMPI JUMPDEST POP POP DUP2 PUSH1 0x1 SHL SWAP2 PUSH0 NOT SWAP1 PUSH1 0x3 SHL SHR NOT AND OR SWAP1 SSTORE JUMPDEST PUSH1 0x40 DUP2 ADD MLOAD PUSH1 0xF DUP6 ADD DUP1 SLOAD PUSH1 0x1 PUSH1 0x1 PUSH1 0xA0 SHL SUB NOT AND PUSH1 0x1 PUSH1 0x1 PUSH1 0xA0 SHL SUB SWAP3 SWAP1 SWAP3 AND SWAP2 SWAP1 SWAP2 OR SWAP1 SSTORE ADD MLOAD DUP1 MLOAD SWAP1 SWAP3 SWAP1 PUSH1 0xE DUP3 ADD SWAP1 PUSH1 0x1 PUSH1 0x1 PUSH1 0x40 SHL SUB DUP2 GT PUSH2 0x35E JUMPI PUSH2 0x50C4 DUP3 SLOAD PUSH2 0x433E JUMP JUMPDEST PUSH1 0x1F DUP2 GT PUSH2 0x517C JUMPI JUMPDEST POP PUSH1 0x20 SWAP5 PUSH1 0x1F DUP3 GT PUSH1 0x1 EQ PUSH2 0x511B JUMPI SWAP5 DUP2 SWAP3 SWAP4 SWAP5 SWAP6 PUSH0 SWAP3 PUSH2 0x5110 JUMPI JUMPDEST POP POP DUP2 PUSH1 0x1 SHL SWAP2 PUSH0 NOT SWAP1 PUSH1 0x3 SHL SHR NOT AND OR SWAP1 SSTORE JUMPDEST TIMESTAMP PUSH1 0x3 DUP3 ADD SSTORE DUP1 SLOAD PUSH1 0xFF NOT AND PUSH1 0x2 OR SWAP1 SSTORE JUMP JUMPDEST ADD MLOAD SWAP1 POP PUSH0 DUP1 PUSH2 0x50E9 JUMP JUMPDEST PUSH1 0x1F NOT DUP3 AND SWAP6 DUP4 PUSH0 MSTORE DUP1 PUSH0 KECCAK256 SWAP2 PUSH0 JUMPDEST DUP9 DUP2 LT PUSH2 0x5164 JUMPI POP DUP4 PUSH1 0x1 SWAP6 SWAP7 SWAP8 SWAP9 LT PUSH2 0x514C JUMPI JUMPDEST POP POP POP DUP2 SHL ADD SWAP1 SSTORE PUSH2 0x50FD JUMP JUMPDEST ADD MLOAD PUSH0 NOT PUSH1 0xF8 DUP5 PUSH1 0x3 SHL AND SHR NOT AND SWAP1 SSTORE PUSH0 DUP1 DUP1 PUSH2 0x513F JUMP JUMPDEST SWAP2 SWAP3 PUSH1 0x20 PUSH1 0x1 DUP2 SWAP3 DUP7 DUP6 ADD MLOAD DUP2 SSTORE ADD SWAP5 ADD SWAP3 ADD PUSH2 0x512A JUMP JUMPDEST DUP3 PUSH0 MSTORE PUSH1 0x20 PUSH0 KECCAK256 PUSH1 0x1F DUP4 ADD PUSH1 0x5 SHR DUP2 ADD SWAP2 PUSH1 0x20 DUP5 LT PUSH2 0x51B7 JUMPI JUMPDEST PUSH1 0x1F ADD PUSH1 0x5 SHR ADD SWAP1 JUMPDEST DUP2 DUP2 LT PUSH2 0x51AC JUMPI POP PUSH2 0x50CD JUMP JUMPDEST PUSH0 DUP2 SSTORE PUSH1 0x1 ADD PUSH2 0x519F JUMP JUMPDEST SWAP1 SWAP2 POP DUP2 SWAP1 PUSH2 0x5196 JUMP JUMPDEST ADD MLOAD SWAP1 POP PUSH0 DUP1 PUSH2 0x5065 JUMP JUMPDEST SWAP1 PUSH1 0x1F NOT DUP4 AND SWAP2 DUP5 PUSH0 MSTORE DUP2 PUSH0 KECCAK256 SWAP3 PUSH0 JUMPDEST DUP2 DUP2 LT PUSH2 0x521B JUMPI POP SWAP2 PUSH1 0x1 SWAP4 SWAP2 DUP6 PUSH1 0x20 SWAP9 SWAP8 SWAP7 SWAP5 LT PUSH2 0x5203 JUMPI JUMPDEST POP POP POP DUP2 SHL ADD SWAP1 SSTORE PUSH2 0x5079 JUMP JUMPDEST ADD MLOAD PUSH0 NOT PUSH1 0xF8 DUP5 PUSH1 0x3 SHL AND SHR NOT AND SWAP1 SSTORE PUSH0 DUP1 DUP1 PUSH2 0x51F6 JUMP JUMPDEST SWAP3 SWAP4 PUSH1 0x20 PUSH1 0x1 DUP2 SWAP3 DUP8 DUP7 ADD MLOAD DUP2 SSTORE ADD SWAP6 ADD SWAP4 ADD PUSH2 0x51DC JUMP JUMPDEST DUP4 PUSH0 MSTORE PUSH1 0x20 PUSH0 KECCAK256 PUSH1 0x1F DUP5 ADD PUSH1 0x5 SHR DUP2 ADD SWAP2 PUSH1 0x20 DUP6 LT PUSH2 0x526E JUMPI JUMPDEST PUSH1 0x1F ADD PUSH1 0x5 SHR ADD SWAP1 JUMPDEST DUP2 DUP2 LT PUSH2 0x5263 JUMPI POP PUSH2 0x5048 JUMP JUMPDEST PUSH0 DUP2 SSTORE PUSH1 0x1 ADD PUSH2 0x5256 JUMP JUMPDEST SWAP1 SWAP2 POP DUP2 SWAP1 PUSH2 0x524D JUMP JUMPDEST ADD MLOAD SWAP1 POP PUSH0 DUP1 PUSH2 0x500A JUMP JUMPDEST PUSH0 DUP6 DUP2 MSTORE DUP3 DUP2 KECCAK256 SWAP4 POP PUSH1 0x1F NOT DUP6 AND SWAP1 JUMPDEST DUP2 DUP2 LT PUSH2 0x52CE JUMPI POP SWAP1 DUP5 PUSH1 0x1 SWAP6 SWAP5 SWAP4 SWAP3 LT PUSH2 0x52B6 JUMPI JUMPDEST POP POP POP DUP2 SHL ADD SWAP1 SSTORE PUSH2 0x501E JUMP JUMPDEST ADD MLOAD PUSH0 NOT PUSH1 0xF8 DUP5 PUSH1 0x3 SHL AND SHR NOT AND SWAP1 SSTORE PUSH0 DUP1 DUP1 PUSH2 0x52A9 JUMP JUMPDEST SWAP3 SWAP4 PUSH1 0x20 PUSH1 0x1 DUP2 SWAP3 DUP8 DUP7 ADD MLOAD DUP2 SSTORE ADD SWAP6 ADD SWAP4 ADD PUSH2 0x5293 JUMP JUMPDEST SWAP1 SWAP2 POP DUP4 PUSH0 MSTORE PUSH1 0x20 PUSH0 KECCAK256 PUSH1 0x1F DUP5 ADD PUSH1 0x5 SHR DUP2 ADD SWAP2 PUSH1 0x20 DUP6 LT PUSH2 0x532C JUMPI JUMPDEST SWAP1 PUSH1 0x1F DUP6 SWAP5 SWAP4 SWAP3 ADD PUSH1 0x5 SHR ADD SWAP1 JUMPDEST DUP2 DUP2 LT PUSH2 0x531E JUMPI POP PUSH2 0x4FF4 JUMP JUMPDEST PUSH0 DUP2 SSTORE DUP5 SWAP4 POP PUSH1 0x1 ADD PUSH2 0x5311 JUMP JUMPDEST SWAP1 SWAP2 POP DUP2 SWAP1 PUSH2 0x5303 JUMP JUMPDEST PUSH1 0x20 DUP1 SWAP2 SWAP5 SWAP4 SWAP3 SWAP5 PUSH1 0x40 MLOAD SWAP3 DUP2 DUP5 SWAP3 MLOAD SWAP2 DUP3 SWAP2 ADD DUP4 MCOPY DUP2 ADD PUSH0 DUP2 MSTORE SUB ADD SWAP1 KECCAK256 SWAP1 DUP1 MLOAD PUSH1 0xD DUP4 ADD SWAP1 DUP1 MLOAD SWAP1 PUSH1 0x1 PUSH1 0x1 PUSH1 0x40 SHL SUB DUP3 GT PUSH2 0x35E JUMPI PUSH2 0x5378 DUP4 SLOAD PUSH2 0x433E JUMP JUMPDEST PUSH1 0x1F DUP2 GT PUSH2 0x565F JUMPI JUMPDEST POP PUSH1 0x20 SWAP1 PUSH1 0x1F DUP4 GT PUSH1 0x1 EQ PUSH2 0x55F8 JUMPI PUSH1 0x20 SWAP5 SWAP4 SWAP3 SWAP2 PUSH0 SWAP2 DUP4 PUSH2 0x55ED JUMPI JUMPDEST POP POP DUP2 PUSH1 0x1 SHL SWAP2 PUSH0 NOT SWAP1 PUSH1 0x3 SHL SHR NOT AND OR SWAP1 SSTORE JUMPDEST PUSH1 0x40 DUP2 ADD MLOAD PUSH1 0xF DUP5 ADD DUP1 SLOAD PUSH1 0x1 PUSH1 0x1 PUSH1 0xA0 SHL SUB NOT AND PUSH1 0x1 PUSH1 0x1 PUSH1 0xA0 SHL SUB SWAP3 SWAP1 SWAP3 AND SWAP2 SWAP1 SWAP2 OR SWAP1 SSTORE ADD MLOAD DUP1 MLOAD PUSH1 0xE DUP4 ADD SWAP2 PUSH1 0x1 PUSH1 0x1 PUSH1 0x40 SHL SUB DUP3 GT PUSH2 0x35E JUMPI DUP2 SWAP1 PUSH2 0x53FC DUP5 SLOAD PUSH2 0x433E JUMP JUMPDEST PUSH1 0x1F DUP2 GT PUSH2 0x559D JUMPI JUMPDEST POP PUSH1 0x20 SWAP1 PUSH1 0x1F DUP4 GT PUSH1 0x1 EQ PUSH2 0x553A JUMPI PUSH0 SWAP3 PUSH2 0x552F JUMPI JUMPDEST POP POP DUP2 PUSH1 0x1 SHL SWAP2 PUSH0 NOT SWAP1 PUSH1 0x3 SHL SHR NOT AND OR SWAP1 SSTORE JUMPDEST TIMESTAMP PUSH1 0x2 DUP3 ADD SSTORE PUSH1 0x82 TIMESTAMP ADD SWAP1 DUP2 TIMESTAMP GT PUSH2 0x372 JUMPI PUSH1 0x10 SWAP2 PUSH1 0x5 DUP3 ADD SSTORE PUSH1 0x1 PUSH1 0xFF NOT DUP3 SLOAD AND OR DUP2 SSTORE ADD DUP3 MLOAD PUSH1 0x1 PUSH1 0x1 PUSH1 0x40 SHL SUB DUP2 GT PUSH2 0x35E JUMPI PUSH2 0x546F DUP3 SLOAD PUSH2 0x433E JUMP JUMPDEST PUSH1 0x1F DUP2 GT PUSH2 0x54EA JUMPI JUMPDEST POP PUSH1 0x20 PUSH1 0x1F DUP3 GT PUSH1 0x1 EQ PUSH2 0x54A5 JUMPI DUP2 SWAP3 SWAP4 SWAP5 PUSH0 SWAP3 PUSH2 0x4EEB JUMPI POP POP DUP2 PUSH1 0x1 SHL SWAP2 PUSH0 NOT SWAP1 PUSH1 0x3 SHL SHR NOT AND OR SWAP1 SSTORE JUMP JUMPDEST PUSH1 0x1F NOT DUP3 AND SWAP1 DUP4 PUSH0 MSTORE DUP1 PUSH0 KECCAK256 SWAP2 PUSH0 JUMPDEST DUP2 DUP2 LT PUSH2 0x54D2 JUMPI POP SWAP6 DUP4 PUSH1 0x1 SWAP6 SWAP7 SWAP8 LT PUSH2 0x4F24 JUMPI POP POP POP DUP2 SHL ADD SWAP1 SSTORE JUMP JUMPDEST SWAP2 SWAP3 PUSH1 0x20 PUSH1 0x1 DUP2 SWAP3 DUP7 DUP12 ADD MLOAD DUP2 SSTORE ADD SWAP5 ADD SWAP3 ADD PUSH2 0x54B4 JUMP JUMPDEST DUP3 PUSH0 MSTORE PUSH1 0x20 PUSH0 KECCAK256 PUSH1 0x1F DUP4 ADD PUSH1 0x5 SHR DUP2 ADD SWAP2 PUSH1 0x20 DUP5 LT PUSH2 0x5525 JUMPI JUMPDEST PUSH1 0x1F ADD PUSH1 0x5 SHR ADD SWAP1 JUMPDEST DUP2 DUP2 LT PUSH2 0x551A JUMPI POP PUSH2 0x5478 JUMP JUMPDEST PUSH0 DUP2 SSTORE PUSH1 0x1 ADD PUSH2 0x550D JUMP JUMPDEST SWAP1 SWAP2 POP DUP2 SWAP1 PUSH2 0x5504 JUMP JUMPDEST ADD MLOAD SWAP1 POP PUSH0 DUP1 PUSH2 0x541B JUMP JUMPDEST PUSH0 DUP6 DUP2 MSTORE DUP3 DUP2 KECCAK256 SWAP4 POP PUSH1 0x1F NOT DUP6 AND SWAP1 JUMPDEST DUP2 DUP2 LT PUSH2 0x5585 JUMPI POP SWAP1 DUP5 PUSH1 0x1 SWAP6 SWAP5 SWAP4 SWAP3 LT PUSH2 0x556D JUMPI JUMPDEST POP POP POP DUP2 SHL ADD SWAP1 SSTORE PUSH2 0x542F JUMP JUMPDEST ADD MLOAD PUSH0 NOT PUSH1 0xF8 DUP5 PUSH1 0x3 SHL AND SHR NOT AND SWAP1 SSTORE PUSH0 DUP1 DUP1 PUSH2 0x5560 JUMP JUMPDEST SWAP3 SWAP4 PUSH1 0x20 PUSH1 0x1 DUP2 SWAP3 DUP8 DUP7 ADD MLOAD DUP2 SSTORE ADD SWAP6 ADD SWAP4 ADD PUSH2 0x554A JUMP JUMPDEST SWAP1 SWAP2 POP DUP4 PUSH0 MSTORE PUSH1 0x20 PUSH0 KECCAK256 PUSH1 0x1F DUP5 ADD PUSH1 0x5 SHR DUP2 ADD SWAP2 PUSH1 0x20 DUP6 LT PUSH2 0x55E3 JUMPI JUMPDEST SWAP1 PUSH1 0x1F DUP6 SWAP5 SWAP4 SWAP3 ADD PUSH1 0x5 SHR ADD SWAP1 JUMPDEST DUP2 DUP2 LT PUSH2 0x55D5 JUMPI POP PUSH2 0x5405 JUMP JUMPDEST PUSH0 DUP2 SSTORE DUP5 SWAP4 POP PUSH1 0x1 ADD PUSH2 0x55C8 JUMP JUMPDEST SWAP1 SWAP2 POP DUP2 SWAP1 PUSH2 0x55BA JUMP JUMPDEST ADD MLOAD SWAP1 POP PUSH0 DUP1 PUSH2 0x539E JUMP JUMPDEST SWAP1 PUSH1 0x1F NOT DUP4 AND SWAP2 DUP5 PUSH0 MSTORE DUP2 PUSH0 KECCAK256 SWAP3 PUSH0 JUMPDEST DUP2 DUP2 LT PUSH2 0x5647 JUMPI POP SWAP2 PUSH1 0x1 SWAP4 SWAP2 DUP6 PUSH1 0x20 SWAP9 SWAP8 SWAP7 SWAP5 LT PUSH2 0x562F JUMPI JUMPDEST POP POP POP DUP2 SHL ADD SWAP1 SSTORE PUSH2 0x53B2 JUMP JUMPDEST ADD MLOAD PUSH0 NOT PUSH1 0xF8 DUP5 PUSH1 0x3 SHL AND SHR NOT AND SWAP1 SSTORE PUSH0 DUP1 DUP1 PUSH2 0x5622 JUMP JUMPDEST SWAP3 SWAP4 PUSH1 0x20 PUSH1 0x1 DUP2 SWAP3 DUP8 DUP7 ADD MLOAD DUP2 SSTORE ADD SWAP6 ADD SWAP4 ADD PUSH2 0x5608 JUMP JUMPDEST DUP4 PUSH0 MSTORE PUSH1 0x20 PUSH0 KECCAK256 PUSH1 0x1F DUP5 ADD PUSH1 0x5 SHR DUP2 ADD SWAP2 PUSH1 0x20 DUP6 LT PUSH2 0x569A JUMPI JUMPDEST PUSH1 0x1F ADD PUSH1 0x5 SHR ADD SWAP1 JUMPDEST DUP2 DUP2 LT PUSH2 0x568F JUMPI POP PUSH2 0x5381 JUMP JUMPDEST PUSH0 DUP2 SSTORE PUSH1 0x1 ADD PUSH2 0x5682 JUMP JUMPDEST SWAP1 SWAP2 POP DUP2 SWAP1 PUSH2 0x5679 JUMP JUMPDEST SWAP3 SWAP1 SWAP2 SWAP3 PUSH1 0x40 MLOAD DUP1 SWAP2 PUSH2 0x56B6 DUP3 PUSH2 0x4164 JUMP JUMPDEST PUSH0 DUP3 MSTORE PUSH1 0x20 DUP3 ADD TIMESTAMP DUP2 MSTORE PUSH1 0x40 DUP4 ADD PUSH0 DUP2 MSTORE PUSH1 0x60 DUP5 ADD PUSH0 DUP2 MSTORE PUSH1 0x80 DUP6 ADD PUSH0 DUP2 MSTORE PUSH1 0xA0 DUP7 ADD PUSH0 DUP2 MSTORE PUSH1 0xC0 DUP8 ADD SWAP2 PUSH0 DUP4 MSTORE PUSH1 0xE0 DUP9 ADD SWAP4 PUSH0 DUP6 MSTORE PUSH2 0x100 DUP10 ADD SWAP6 PUSH0 DUP8 MSTORE PUSH2 0x120 DUP11 ADD SWAP8 PUSH0 DUP10 MSTORE PUSH2 0x140 DUP12 ADD SWAP10 DUP11 MSTORE PUSH2 0x160 DUP12 ADD SWAP14 DUP15 MSTORE PUSH1 0x20 SWAP15 DUP16 DUP1 SWAP2 PUSH1 0x40 MLOAD SWAP15 DUP16 PUSH2 0x5723 DUP5 DUP3 PUSH2 0x4180 JUMP JUMPDEST PUSH0 SWAP1 MSTORE PUSH2 0x180 ADD SWAP15 DUP16 MSTORE PUSH1 0x40 MLOAD SWAP3 DUP2 DUP5 SWAP3 MLOAD SWAP2 DUP3 SWAP2 ADD DUP4 MCOPY DUP2 ADD PUSH0 DUP2 MSTORE SUB ADD SWAP1 KECCAK256 SWAP11 MLOAD PUSH1 0x9 DUP2 LT ISZERO PUSH2 0x2CD0 JUMPI PUSH1 0xFF DUP1 NOT DUP14 SLOAD AND SWAP2 AND OR DUP12 SSTORE MLOAD PUSH1 0x1 DUP12 ADD SSTORE MLOAD PUSH1 0x2 DUP11 ADD SSTORE MLOAD PUSH1 0x3 DUP10 ADD SSTORE MLOAD PUSH1 0x4 DUP9 ADD SSTORE MLOAD PUSH1 0x5 DUP8 ADD SSTORE MLOAD PUSH1 0x6 DUP7 ADD SSTORE MLOAD PUSH1 0x7 DUP6 ADD SSTORE MLOAD PUSH1 0x8 DUP5 ADD SSTORE MLOAD PUSH1 0x9 DUP4 ADD SSTORE PUSH1 0xA DUP3 ADD SWAP1 MLOAD SWAP1 DUP2 MLOAD DUP1 MLOAD SWAP1 PUSH1 0x1 PUSH1 0x1 PUSH1 0x40 SHL SUB DUP3 GT PUSH2 0x35E JUMPI DUP2 SWAP1 PUSH2 0x57B7 DUP5 SLOAD PUSH2 0x433E JUMP JUMPDEST PUSH1 0x1F DUP2 GT PUSH2 0x5CC4 JUMPI JUMPDEST POP DUP10 SWAP1 PUSH1 0x1F DUP4 GT PUSH1 0x1 EQ PUSH2 0x5C61 JUMPI PUSH0 SWAP3 PUSH2 0x5C56 JUMPI JUMPDEST POP POP DUP2 PUSH1 0x1 SHL SWAP2 PUSH0 NOT SWAP1 PUSH1 0x3 SHL SHR NOT AND OR SWAP1 SSTORE JUMPDEST PUSH1 0xB DUP3 ADD DUP7 DUP3 ADD MLOAD DUP1 MLOAD SWAP1 PUSH1 0x1 PUSH1 0x1 PUSH1 0x40 SHL SUB DUP3 GT PUSH2 0x35E JUMPI DUP2 SWAP1 PUSH2 0x580E DUP5 SLOAD PUSH2 0x433E JUMP JUMPDEST PUSH1 0x1F DUP2 GT PUSH2 0x5C08 JUMPI JUMPDEST POP DUP10 SWAP1 PUSH1 0x1F DUP4 GT PUSH1 0x1 EQ PUSH2 0x5BA5 JUMPI PUSH0 SWAP3 PUSH2 0x5B9A JUMPI JUMPDEST POP POP DUP2 PUSH1 0x1 SHL SWAP2 PUSH0 NOT SWAP1 PUSH1 0x3 SHL SHR NOT AND OR SWAP1 SSTORE JUMPDEST PUSH1 0x40 ADD MLOAD PUSH1 0xC DUP3 ADD DUP1 SLOAD PUSH1 0x1 PUSH1 0x1 PUSH1 0xA0 SHL SUB NOT AND PUSH1 0x1 PUSH1 0x1 PUSH1 0xA0 SHL SUB SWAP3 SWAP1 SWAP3 AND SWAP2 SWAP1 SWAP2 OR SWAP1 SSTORE SWAP3 MLOAD DUP1 MLOAD DUP1 MLOAD SWAP2 SWAP5 SWAP2 PUSH1 0xD DUP4 ADD SWAP2 PUSH1 0x1 PUSH1 0x1 PUSH1 0x40 SHL SUB DUP3 GT PUSH2 0x35E JUMPI DUP2 SWAP1 PUSH2 0x588E DUP5 SLOAD PUSH2 0x433E JUMP JUMPDEST PUSH1 0x1F DUP2 GT PUSH2 0x5B4C JUMPI JUMPDEST POP DUP9 SWAP1 PUSH1 0x1F DUP4 GT PUSH1 0x1 EQ PUSH2 0x5AE9 JUMPI PUSH0 SWAP3 PUSH2 0x5ADE JUMPI JUMPDEST POP POP DUP2 PUSH1 0x1 SHL SWAP2 PUSH0 NOT SWAP1 PUSH1 0x3 SHL SHR NOT AND OR SWAP1 SSTORE JUMPDEST PUSH1 0xE DUP2 ADD SWAP4 DUP6 DUP2 ADD MLOAD SWAP5 DUP6 MLOAD SWAP6 PUSH1 0x1 PUSH1 0x1 PUSH1 0x40 SHL SUB DUP8 GT PUSH2 0x35E JUMPI PUSH2 0x58E5 DUP3 SLOAD PUSH2 0x433E JUMP JUMPDEST PUSH1 0x1F DUP2 GT PUSH2 0x5A9B JUMPI JUMPDEST POP DUP8 SWAP1 PUSH1 0x1F DUP9 GT PUSH1 0x1 EQ PUSH2 0x5A34 JUMPI SWAP7 DUP1 SWAP2 PUSH1 0x10 SWAP7 SWAP8 SWAP9 PUSH0 SWAP3 PUSH2 0x5A29 JUMPI JUMPDEST POP POP DUP2 PUSH1 0x1 SHL SWAP2 PUSH0 NOT SWAP1 PUSH1 0x3 SHL SHR NOT AND OR SWAP1 SSTORE JUMPDEST PUSH1 0x40 ADD MLOAD PUSH1 0xF DUP3 ADD DUP1 SLOAD PUSH1 0x1 PUSH1 0x1 PUSH1 0xA0 SHL SUB NOT AND PUSH1 0x1 PUSH1 0x1 PUSH1 0xA0 SHL SUB SWAP3 SWAP1 SWAP3 AND SWAP2 SWAP1 SWAP2 OR SWAP1 SSTORE SWAP2 MLOAD DUP1 MLOAD SWAP1 SWAP5 SWAP2 SWAP1 SWAP3 ADD SWAP2 SWAP1 PUSH1 0x1 PUSH1 0x1 PUSH1 0x40 SHL SUB DUP3 GT PUSH2 0x35E JUMPI PUSH2 0x5969 DUP4 SLOAD PUSH2 0x433E JUMP JUMPDEST PUSH1 0x1F DUP2 GT PUSH2 0x59E6 JUMPI JUMPDEST POP DUP1 PUSH1 0x1F DUP4 GT PUSH1 0x1 EQ PUSH2 0x599F JUMPI POP DUP2 SWAP3 SWAP4 SWAP5 PUSH0 SWAP3 PUSH2 0x4EEB JUMPI POP POP DUP2 PUSH1 0x1 SHL SWAP2 PUSH0 NOT SWAP1 PUSH1 0x3 SHL SHR NOT AND OR SWAP1 SSTORE JUMP JUMPDEST SWAP1 PUSH1 0x1F NOT DUP4 AND SWAP6 DUP5 PUSH0 MSTORE DUP3 PUSH0 KECCAK256 SWAP3 PUSH0 SWAP1 JUMPDEST DUP9 DUP3 LT PUSH2 0x59CE JUMPI POP POP DUP4 PUSH1 0x1 SWAP6 SWAP7 SWAP8 LT PUSH2 0x4F24 JUMPI POP POP POP DUP2 SHL ADD SWAP1 SSTORE JUMP JUMPDEST DUP1 PUSH1 0x1 DUP6 SWAP7 DUP3 SWAP5 SWAP7 DUP7 ADD MLOAD DUP2 SSTORE ADD SWAP6 ADD SWAP4 ADD SWAP1 PUSH2 0x59B0 JUMP JUMPDEST DUP4 PUSH0 MSTORE DUP2 PUSH0 KECCAK256 PUSH1 0x1F DUP5 ADD PUSH1 0x5 SHR DUP2 ADD SWAP2 DUP4 DUP6 LT PUSH2 0x5A1F JUMPI JUMPDEST PUSH1 0x1F ADD PUSH1 0x5 SHR ADD SWAP1 JUMPDEST DUP2 DUP2 LT PUSH2 0x5A14 JUMPI POP PUSH2 0x5972 JUMP JUMPDEST PUSH0 DUP2 SSTORE PUSH1 0x1 ADD PUSH2 0x5A07 JUMP JUMPDEST SWAP1 SWAP2 POP DUP2 SWAP1 PUSH2 0x59FE JUMP JUMPDEST ADD MLOAD SWAP1 POP PUSH0 DUP1 PUSH2 0x590B JUMP JUMPDEST SWAP1 PUSH1 0x1F NOT DUP9 AND SWAP2 DUP4 PUSH0 MSTORE DUP10 PUSH0 KECCAK256 SWAP3 PUSH0 JUMPDEST DUP12 DUP3 DUP3 LT PUSH2 0x5A85 JUMPI POP POP SWAP2 PUSH1 0x1 SWAP4 SWAP2 DUP11 PUSH1 0x10 SWAP10 SWAP11 SWAP12 SWAP5 LT PUSH2 0x5A6D JUMPI JUMPDEST POP POP POP DUP2 SHL ADD SWAP1 SSTORE PUSH2 0x591F JUMP JUMPDEST ADD MLOAD PUSH0 NOT PUSH1 0xF8 DUP5 PUSH1 0x3 SHL AND SHR NOT AND SWAP1 SSTORE PUSH0 DUP1 DUP1 PUSH2 0x5A60 JUMP JUMPDEST PUSH1 0x1 DUP6 SWAP7 DUP3 SWAP4 SWAP7 DUP7 ADD MLOAD DUP2 SSTORE ADD SWAP6 ADD SWAP4 ADD PUSH2 0x5A44 JUMP JUMPDEST DUP3 PUSH0 MSTORE DUP9 PUSH0 KECCAK256 PUSH1 0x1F DUP10 ADD PUSH1 0x5 SHR DUP2 ADD SWAP2 DUP11 DUP11 LT PUSH2 0x5AD4 JUMPI JUMPDEST PUSH1 0x1F ADD PUSH1 0x5 SHR ADD SWAP1 JUMPDEST DUP2 DUP2 LT PUSH2 0x5AC9 JUMPI POP PUSH2 0x58EE JUMP JUMPDEST PUSH0 DUP2 SSTORE PUSH1 0x1 ADD PUSH2 0x5ABC JUMP JUMPDEST SWAP1 SWAP2 POP DUP2 SWAP1 PUSH2 0x5AB3 JUMP JUMPDEST ADD MLOAD SWAP1 POP PUSH0 DUP1 PUSH2 0x58AC JUMP JUMPDEST PUSH0 DUP6 DUP2 MSTORE DUP11 DUP2 KECCAK256 SWAP4 POP PUSH1 0x1F NOT DUP6 AND SWAP1 JUMPDEST DUP12 DUP3 DUP3 LT PUSH2 0x5B36 JUMPI POP POP SWAP1 DUP5 PUSH1 0x1 SWAP6 SWAP5 SWAP4 SWAP3 LT PUSH2 0x5B1E JUMPI JUMPDEST POP POP POP DUP2 SHL ADD SWAP1 SSTORE PUSH2 0x58C0 JUMP JUMPDEST ADD MLOAD PUSH0 NOT PUSH1 0xF8 DUP5 PUSH1 0x3 SHL AND SHR NOT AND SWAP1 SSTORE PUSH0 DUP1 DUP1 PUSH2 0x5B11 JUMP JUMPDEST PUSH1 0x1 DUP6 SWAP7 DUP3 SWAP4 SWAP7 DUP7 ADD MLOAD DUP2 SSTORE ADD SWAP6 ADD SWAP4 ADD PUSH2 0x5AF9 JUMP JUMPDEST SWAP1 SWAP2 POP DUP4 PUSH0 MSTORE DUP9 PUSH0 KECCAK256 PUSH1 0x1F DUP5 ADD PUSH1 0x5 SHR DUP2 ADD SWAP2 DUP11 DUP6 LT PUSH2 0x5B90 JUMPI JUMPDEST SWAP1 PUSH1 0x1F DUP6 SWAP5 SWAP4 SWAP3 ADD PUSH1 0x5 SHR ADD SWAP1 JUMPDEST DUP2 DUP2 LT PUSH2 0x5B82 JUMPI POP PUSH2 0x5897 JUMP JUMPDEST PUSH0 DUP2 SSTORE DUP5 SWAP4 POP PUSH1 0x1 ADD PUSH2 0x5B75 JUMP JUMPDEST SWAP1 SWAP2 POP DUP2 SWAP1 PUSH2 0x5B67 JUMP JUMPDEST ADD MLOAD SWAP1 POP PUSH0 DUP1 PUSH2 0x582C JUMP JUMPDEST PUSH0 DUP6 DUP2 MSTORE DUP12 DUP2 KECCAK256 SWAP4 POP PUSH1 0x1F NOT DUP6 AND SWAP1 JUMPDEST DUP13 DUP3 DUP3 LT PUSH2 0x5BF2 JUMPI POP POP SWAP1 DUP5 PUSH1 0x1 SWAP6 SWAP5 SWAP4 SWAP3 LT PUSH2 0x5BDA JUMPI JUMPDEST POP POP POP DUP2 SHL ADD SWAP1 SSTORE PUSH2 0x5840 JUMP JUMPDEST ADD MLOAD PUSH0 NOT PUSH1 0xF8 DUP5 PUSH1 0x3 SHL AND SHR NOT AND SWAP1 SSTORE PUSH0 DUP1 DUP1 PUSH2 0x5BCD JUMP JUMPDEST PUSH1 0x1 DUP6 SWAP7 DUP3 SWAP4 SWAP7 DUP7 ADD MLOAD DUP2 SSTORE ADD SWAP6 ADD SWAP4 ADD PUSH2 0x5BB5 JUMP JUMPDEST SWAP1 SWAP2 POP DUP4 PUSH0 MSTORE DUP10 PUSH0 KECCAK256 PUSH1 0x1F DUP5 ADD PUSH1 0x5 SHR DUP2 ADD SWAP2 DUP12 DUP6 LT PUSH2 0x5C4C JUMPI JUMPDEST SWAP1 PUSH1 0x1F DUP6 SWAP5 SWAP4 SWAP3 ADD PUSH1 0x5 SHR ADD SWAP1 JUMPDEST DUP2 DUP2 LT PUSH2 0x5C3E JUMPI POP PUSH2 0x5817 JUMP JUMPDEST PUSH0 DUP2 SSTORE DUP5 SWAP4 POP PUSH1 0x1 ADD PUSH2 0x5C31 JUMP JUMPDEST SWAP1 SWAP2 POP DUP2 SWAP1 PUSH2 0x5C23 JUMP JUMPDEST ADD MLOAD SWAP1 POP PUSH0 DUP1 PUSH2 0x57D5 JUMP JUMPDEST PUSH0 DUP6 DUP2 MSTORE DUP12 DUP2 KECCAK256 SWAP4 POP PUSH1 0x1F NOT DUP6 AND SWAP1 JUMPDEST DUP13 DUP3 DUP3 LT PUSH2 0x5CAE JUMPI POP POP SWAP1 DUP5 PUSH1 0x1 SWAP6 SWAP5 SWAP4 SWAP3 LT PUSH2 0x5C96 JUMPI JUMPDEST POP POP POP DUP2 SHL ADD SWAP1 SSTORE PUSH2 0x57E9 JUMP JUMPDEST ADD MLOAD PUSH0 NOT PUSH1 0xF8 DUP5 PUSH1 0x3 SHL AND SHR NOT AND SWAP1 SSTORE PUSH0 DUP1 DUP1 PUSH2 0x5C89 JUMP JUMPDEST PUSH1 0x1 DUP6 SWAP7 DUP3 SWAP4 SWAP7 DUP7 ADD MLOAD DUP2 SSTORE ADD SWAP6 ADD SWAP4 ADD PUSH2 0x5C71 JUMP JUMPDEST SWAP1 SWAP2 POP DUP4 PUSH0 MSTORE DUP10 PUSH0 KECCAK256 PUSH1 0x1F DUP5 ADD PUSH1 0x5 SHR DUP2 ADD SWAP2 DUP12 DUP6 LT PUSH2 0x5D08 JUMPI JUMPDEST SWAP1 PUSH1 0x1F DUP6 SWAP5 SWAP4 SWAP3 ADD PUSH1 0x5 SHR ADD SWAP1 JUMPDEST DUP2 DUP2 LT PUSH2 0x5CFA JUMPI POP PUSH2 0x57C0 JUMP JUMPDEST PUSH0 DUP2 SSTORE DUP5 SWAP4 POP PUSH1 0x1 ADD PUSH2 0x5CED JUMP JUMPDEST SWAP1 SWAP2 POP DUP2 SWAP1 PUSH2 0x5CDF JUMP INVALID LOG2 PUSH5 0x6970667358 0x22 SLT KECCAK256 0xC MSIZE 0x21 0xB5 0xBA BLOBBASEFEE 0xD8 0x2F 0xD7 SWAP3 0xBD 0xE0 NUMBER CREATE2 0xDD 0xAA DUP2 MSIZE 0xD DELEGATECALL PUSH7 0xC474FA574AACC0 GAS LOG3 PUSH17 0x8064736F6C634300081B00330000000000 "},"methodIdentifiers":{"allCdobData(uint256)":"43762aa8","approveCdob(string,string,string,string,address,string)":"2b93f7f2","approveExtendCdob(string,string)":"9c6b1f10","cdobDataById(string)":"72c17cb9","certDetailById(string)":"34a34f30","createCertificateDetails((string,string,address),(string,string,address),string)":"fb5fb9a3","createUserCertificate(string,string,address)":"2e9cf827","dokuAdminById(string)":"7ab09648","dokuReSertifikasiById(string)":"5691acf7","dokuTeknisById(string)":"500619d0","extendCdob(string,uint256,(string,string,string))":"07b11c0b","getAllCdob()":"f14261d2","getAllCdobByInstance(string)":"6f12c230","getCdobDetails(string)":"7e8f8da7","getCertDetail(string)":"9aaa5d8b","getCertDetails(string)":"be2e2325","getRejectMsg(string)":"6d1aa7d5","getRejectsMsg(string)":"761fb19a","getSenderDetail(string)":"17e68309","rejectCdob(string,string,string,string,address)":"1acf2500","rejectExtendCdob(string,string)":"252006af","rejectMsgById(string)":"bf3f80ac","rejectMsgExtendById(string)":"26c6d4c5","renewExtendCdob(string,(string,string,string))":"69046dd3","renewRequestCdob(string,(string,string),(string,string,string,string,string,string,string,string))":"a7226527","requestCdob(string,string,string,address,uint8,(string,string),(string,string,string,string,string,string,string,string))":"682053d9","updateBpomApproveDetails(string,string,(string,string,address))":"f5104ff1","updateBpomApproveExtendCertificateDetails(string,string)":"d26196fd","updateBpomExtendCertificateDetails(string,string)":"f53ef126","updateBpomRejectDetails(string,string,(string,string,address))":"e9c260d7","updateBpomRejectExtendCertificateDetails(string,string)":"ceee1067","updateExtendRenewDetails(string,uint256)":"9740dbed","updateRenewDetails(string)":"19859c87","updateRenewExtendCertificateDetails(string)":"3a947f1a"}}}}}