{"contracts/CpotbCertificate.sol":{"CpotbCertificate":{"abi":[{"inputs":[{"internalType":"uint256","name":"","type":"uint256"}],"name":"allCpotbData","outputs":[{"internalType":"string","name":"certId","type":"string"},{"internalType":"string","name":"certNumber","type":"string"},{"internalType":"string","name":"instanceName","type":"string"},{"internalType":"uint8","name":"tipePermohonan","type":"uint8"},{"internalType":"enum EnumsLibrary.StatusCertificate","name":"status","type":"uint8"},{"internalType":"string","name":"certHash","type":"string"},{"internalType":"uint256","name":"expiredTimestamp","type":"uint256"}],"stateMutability":"view","type":"function"},{"inputs":[{"internalType":"string","name":"certNumber","type":"string"},{"internalType":"string","name":"certId","type":"string"},{"internalType":"string","name":"bpomName","type":"string"},{"internalType":"string","name":"bpomInstance","type":"string"},{"internalType":"address","name":"bpomAddr","type":"address"},{"internalType":"string","name":"ipfsCert","type":"string"},{"internalType":"uint256","name":"timestampExp","type":"uint256"}],"name":"approveCpotb","outputs":[],"stateMutability":"nonpayable","type":"function"},{"inputs":[{"internalType":"string","name":"certId","type":"string"},{"internalType":"string","name":"ipfsCert","type":"string"}],"name":"approveExtendCpotb","outputs":[],"stateMutability":"nonpayable","type":"function"},{"inputs":[{"internalType":"string","name":"","type":"string"}],"name":"certDetailById","outputs":[{"internalType":"enum EnumsLibrary.StatusCertificate","name":"status","type":"uint8"},{"internalType":"uint256","name":"timestampRequest","type":"uint256"},{"internalType":"uint256","name":"timestampApprove","type":"uint256"},{"internalType":"uint256","name":"timestampRejected","type":"uint256"},{"internalType":"uint256","name":"timestampRenewRequest","type":"uint256"},{"internalType":"uint256","name":"timestampExpired","type":"uint256"},{"internalType":"uint256","name":"timestampExtendRequest","type":"uint256"},{"components":[{"internalType":"string","name":"userName","type":"string"},{"internalType":"string","name":"userInstance","type":"string"},{"internalType":"address","name":"userAddr","type":"address"}],"internalType":"struct BaseCertificate.UserCert","name":"sender","type":"tuple"},{"components":[{"internalType":"string","name":"userName","type":"string"},{"internalType":"string","name":"userInstance","type":"string"},{"internalType":"address","name":"userAddr","type":"address"}],"internalType":"struct BaseCertificate.UserCert","name":"bpom","type":"tuple"},{"internalType":"string","name":"ipfsCert","type":"string"}],"stateMutability":"view","type":"function"},{"inputs":[{"internalType":"string","name":"","type":"string"}],"name":"cpotbDataById","outputs":[{"internalType":"string","name":"cpotbId","type":"string"},{"internalType":"string","name":"cpotbNumber","type":"string"},{"internalType":"uint8","name":"tipePermohonan","type":"uint8"},{"internalType":"string","name":"factoryType","type":"string"}],"stateMutability":"view","type":"function"},{"inputs":[{"components":[{"internalType":"string","name":"userName","type":"string"},{"internalType":"string","name":"userInstance","type":"string"},{"internalType":"address","name":"userAddr","type":"address"}],"internalType":"struct BaseCertificate.UserCert","name":"senderData","type":"tuple"},{"components":[{"internalType":"string","name":"userName","type":"string"},{"internalType":"string","name":"userInstance","type":"string"},{"internalType":"address","name":"userAddr","type":"address"}],"internalType":"struct BaseCertificate.UserCert","name":"bpomData","type":"tuple"},{"internalType":"string","name":"certId","type":"string"}],"name":"createCertificateDetails","outputs":[],"stateMutability":"nonpayable","type":"function"},{"inputs":[{"internalType":"string","name":"userName","type":"string"},{"internalType":"string","name":"userInstance","type":"string"},{"internalType":"address","name":"userAddr","type":"address"}],"name":"createUserCertificate","outputs":[{"components":[{"internalType":"string","name":"userName","type":"string"},{"internalType":"string","name":"userInstance","type":"string"},{"internalType":"address","name":"userAddr","type":"address"}],"internalType":"struct BaseCertificate.UserCert","name":"","type":"tuple"}],"stateMutability":"pure","type":"function"},{"inputs":[{"internalType":"string","name":"","type":"string"}],"name":"dokuAdminById","outputs":[{"internalType":"string","name":"suratPermohonan","type":"string"},{"internalType":"string","name":"buktiPembayaranNegaraBukanPajak","type":"string"},{"internalType":"string","name":"suratKomitmen","type":"string"}],"stateMutability":"view","type":"function"},{"inputs":[{"internalType":"string","name":"","type":"string"}],"name":"dokuTeknisById","outputs":[{"internalType":"string","name":"denahBangunan","type":"string"},{"internalType":"string","name":"sistemMutu","type":"string"}],"stateMutability":"view","type":"function"},{"inputs":[{"internalType":"string","name":"certId","type":"string"},{"internalType":"uint256","name":"expTimestamp","type":"uint256"}],"name":"extendCpotb","outputs":[],"stateMutability":"nonpayable","type":"function"},{"inputs":[],"name":"getAllCpotb","outputs":[{"components":[{"internalType":"string","name":"certId","type":"string"},{"internalType":"string","name":"certNumber","type":"string"},{"internalType":"string","name":"instanceName","type":"string"},{"internalType":"uint8","name":"tipePermohonan","type":"uint8"},{"internalType":"enum EnumsLibrary.StatusCertificate","name":"status","type":"uint8"},{"internalType":"string","name":"certHash","type":"string"},{"internalType":"uint256","name":"expiredTimestamp","type":"uint256"}],"internalType":"struct CpotbCertificate.CertificateList[]","name":"","type":"tuple[]"}],"stateMutability":"view","type":"function"},{"inputs":[{"internalType":"string","name":"instanceName","type":"string"}],"name":"getAllCpotbByInstance","outputs":[{"components":[{"internalType":"string","name":"certId","type":"string"},{"internalType":"string","name":"certNumber","type":"string"},{"internalType":"string","name":"instanceName","type":"string"},{"internalType":"uint8","name":"tipePermohonan","type":"uint8"},{"internalType":"enum EnumsLibrary.StatusCertificate","name":"status","type":"uint8"},{"internalType":"string","name":"certHash","type":"string"},{"internalType":"uint256","name":"expiredTimestamp","type":"uint256"}],"internalType":"struct CpotbCertificate.CertificateList[]","name":"","type":"tuple[]"}],"stateMutability":"view","type":"function"},{"inputs":[{"internalType":"string","name":"certId","type":"string"}],"name":"getCertDetail","outputs":[{"components":[{"internalType":"enum EnumsLibrary.StatusCertificate","name":"status","type":"uint8"},{"internalType":"uint256","name":"timestampRequest","type":"uint256"},{"internalType":"uint256","name":"timestampApprove","type":"uint256"},{"internalType":"uint256","name":"timestampRejected","type":"uint256"},{"internalType":"uint256","name":"timestampRenewRequest","type":"uint256"},{"internalType":"uint256","name":"timestampExpired","type":"uint256"},{"internalType":"uint256","name":"timestampExtendRequest","type":"uint256"},{"components":[{"internalType":"string","name":"userName","type":"string"},{"internalType":"string","name":"userInstance","type":"string"},{"internalType":"address","name":"userAddr","type":"address"}],"internalType":"struct BaseCertificate.UserCert","name":"sender","type":"tuple"},{"components":[{"internalType":"string","name":"userName","type":"string"},{"internalType":"string","name":"userInstance","type":"string"},{"internalType":"address","name":"userAddr","type":"address"}],"internalType":"struct BaseCertificate.UserCert","name":"bpom","type":"tuple"},{"internalType":"string","name":"ipfsCert","type":"string"}],"internalType":"struct BaseCertificate.CertificateDetails","name":"","type":"tuple"}],"stateMutability":"view","type":"function"},{"inputs":[{"internalType":"string","name":"certId","type":"string"}],"name":"getCertDetails","outputs":[{"components":[{"internalType":"enum EnumsLibrary.StatusCertificate","name":"status","type":"uint8"},{"internalType":"uint256","name":"timestampRequest","type":"uint256"},{"internalType":"uint256","name":"timestampApprove","type":"uint256"},{"internalType":"uint256","name":"timestampRejected","type":"uint256"},{"internalType":"uint256","name":"timestampRenewRequest","type":"uint256"},{"internalType":"uint256","name":"timestampExpired","type":"uint256"},{"internalType":"uint256","name":"timestampExtendRequest","type":"uint256"},{"components":[{"internalType":"string","name":"userName","type":"string"},{"internalType":"string","name":"userInstance","type":"string"},{"internalType":"address","name":"userAddr","type":"address"}],"internalType":"struct BaseCertificate.UserCert","name":"sender","type":"tuple"},{"components":[{"internalType":"string","name":"userName","type":"string"},{"internalType":"string","name":"userInstance","type":"string"},{"internalType":"address","name":"userAddr","type":"address"}],"internalType":"struct BaseCertificate.UserCert","name":"bpom","type":"tuple"},{"internalType":"string","name":"ipfsCert","type":"string"}],"internalType":"struct BaseCertificate.CertificateDetails","name":"","type":"tuple"}],"stateMutability":"view","type":"function"},{"inputs":[{"internalType":"string","name":"certId","type":"string"}],"name":"getCpotbDetails","outputs":[{"components":[{"internalType":"string","name":"cpotbId","type":"string"},{"internalType":"string","name":"cpotbNumber","type":"string"},{"internalType":"uint8","name":"tipePermohonan","type":"uint8"},{"internalType":"string","name":"factoryType","type":"string"}],"internalType":"struct CpotbCertificate.CpotbData","name":"","type":"tuple"},{"components":[{"internalType":"string","name":"suratPermohonan","type":"string"},{"internalType":"string","name":"buktiPembayaranNegaraBukanPajak","type":"string"},{"internalType":"string","name":"suratKomitmen","type":"string"}],"internalType":"struct CpotbCertificate.DokumenAdministrasi","name":"","type":"tuple"},{"components":[{"internalType":"string","name":"denahBangunan","type":"string"},{"internalType":"string","name":"sistemMutu","type":"string"}],"internalType":"struct CpotbCertificate.DokumenTeknis","name":"","type":"tuple"}],"stateMutability":"view","type":"function"},{"inputs":[{"internalType":"string","name":"certId","type":"string"}],"name":"getRejectMsg","outputs":[{"internalType":"string","name":"","type":"string"}],"stateMutability":"view","type":"function"},{"inputs":[{"internalType":"string","name":"certId","type":"string"}],"name":"getRejectsMsg","outputs":[{"internalType":"string","name":"","type":"string"}],"stateMutability":"view","type":"function"},{"inputs":[{"internalType":"string","name":"certId","type":"string"}],"name":"getSenderDetail","outputs":[{"components":[{"internalType":"string","name":"userName","type":"string"},{"internalType":"string","name":"userInstance","type":"string"},{"internalType":"address","name":"userAddr","type":"address"}],"internalType":"struct BaseCertificate.UserCert","name":"","type":"tuple"}],"stateMutability":"view","type":"function"},{"inputs":[{"internalType":"string","name":"certId","type":"string"},{"internalType":"string","name":"rejectMsg","type":"string"},{"internalType":"string","name":"bpomName","type":"string"},{"internalType":"string","name":"bpomInstance","type":"string"},{"internalType":"address","name":"bpomAddr","type":"address"}],"name":"rejectCpotb","outputs":[],"stateMutability":"nonpayable","type":"function"},{"inputs":[{"internalType":"string","name":"","type":"string"}],"name":"rejectMsgById","outputs":[{"internalType":"string","name":"","type":"string"}],"stateMutability":"view","type":"function"},{"inputs":[{"internalType":"string","name":"certId","type":"string"},{"components":[{"internalType":"string","name":"suratPermohonan","type":"string"},{"internalType":"string","name":"buktiPembayaranNegaraBukanPajak","type":"string"},{"internalType":"string","name":"suratKomitmen","type":"string"}],"internalType":"struct CpotbCertificate.DokumenAdministrasi","name":"newDokuAdmin","type":"tuple"},{"components":[{"internalType":"string","name":"denahBangunan","type":"string"},{"internalType":"string","name":"sistemMutu","type":"string"}],"internalType":"struct CpotbCertificate.DokumenTeknis","name":"newDokuTeknis","type":"tuple"}],"name":"renewRequestCpotb","outputs":[],"stateMutability":"nonpayable","type":"function"},{"inputs":[{"internalType":"string","name":"certId","type":"string"},{"internalType":"string","name":"factoryName","type":"string"},{"internalType":"string","name":"factoryInstance","type":"string"},{"internalType":"address","name":"factoryAddr","type":"address"},{"internalType":"uint8","name":"jenisSediaan","type":"uint8"},{"internalType":"string","name":"factoryType","type":"string"},{"components":[{"internalType":"string","name":"suratPermohonan","type":"string"},{"internalType":"string","name":"buktiPembayaranNegaraBukanPajak","type":"string"},{"internalType":"string","name":"suratKomitmen","type":"string"}],"internalType":"struct CpotbCertificate.DokumenAdministrasi","name":"dokuAdmin","type":"tuple"},{"components":[{"internalType":"string","name":"denahBangunan","type":"string"},{"internalType":"string","name":"sistemMutu","type":"string"}],"internalType":"struct CpotbCertificate.DokumenTeknis","name":"dokuTeknis","type":"tuple"}],"name":"requestCpotb","outputs":[],"stateMutability":"nonpayable","type":"function"},{"inputs":[{"internalType":"string","name":"certId","type":"string"},{"internalType":"string","name":"ipfsCert","type":"string"},{"components":[{"internalType":"string","name":"userName","type":"string"},{"internalType":"string","name":"userInstance","type":"string"},{"internalType":"address","name":"userAddr","type":"address"}],"internalType":"struct BaseCertificate.UserCert","name":"bpomData","type":"tuple"}],"name":"updateBpomApproveDetails","outputs":[],"stateMutability":"nonpayable","type":"function"},{"inputs":[{"internalType":"string","name":"certId","type":"string"},{"internalType":"string","name":"ipfsCert","type":"string"}],"name":"updateBpomExtendCertificateDetails","outputs":[],"stateMutability":"nonpayable","type":"function"},{"inputs":[{"internalType":"string","name":"certId","type":"string"},{"internalType":"string","name":"rejectMsg","type":"string"},{"components":[{"internalType":"string","name":"userName","type":"string"},{"internalType":"string","name":"userInstance","type":"string"},{"internalType":"address","name":"userAddr","type":"address"}],"internalType":"struct BaseCertificate.UserCert","name":"bpomData","type":"tuple"}],"name":"updateBpomRejectDetails","outputs":[],"stateMutability":"nonpayable","type":"function"},{"inputs":[{"internalType":"string","name":"certId","type":"string"},{"internalType":"uint256","name":"expiredTimestamp","type":"uint256"}],"name":"updateExtendRenewDetails","outputs":[],"stateMutability":"nonpayable","type":"function"},{"inputs":[{"internalType":"string","name":"certId","type":"string"}],"name":"updateRenewDetails","outputs":[],"stateMutability":"nonpayable","type":"function"}],"evm":{"bytecode":{"linkReferences":{},"object":"60808060405234601557614306908161001a8239f35b5f80fdfe60806040526004361015610011575f80fd5b5f3560e01c806317e683091461298c57806319859c87146129545780632e9cf827146128d057806334a34f30146127d25780634eea4b8f14612328578063500619d0146122a75780635850607c1461223f57806364b409ff146112905780636aa81299146111dc5780636d1aa7d514610f4357806370c056b014610f7e578063761fb19a14610f435780637ab0964814610e9c57806381fc60a514610d2d5780638b11d37b14610c855780639740dbed14610c6e5780639aaa5d8b14610c33578063b073043614610b8b578063be2e232514610b3b578063bf3f80ac14610acd578063e462dde514610994578063e8002b27146102da578063e9c260d7146102c3578063f02f5f23146101ef578063f5104ff1146101d8578063f53ef126146101c15763fb5fb9a314610142575f80fd5b346101bd5760603660031901126101bd576004356001600160401b0381116101bd57610172903690600401612f53565b6024356001600160401b0381116101bd57610191903690600401612f53565b90604435916001600160401b0383116101bd576101b56101bb933690600401612a96565b91613c91565b005b5f80fd5b346101bd576101bb6101d236612f09565b90613b73565b346101bd576101bb6101e936612fcb565b916137e0565b346101bd5760203660031901126101bd576004356002548110156101bd5761021961027691613033565b5061022381612b9b565b906102b961023360018301612b9b565b9161024060028201612b9b565b906102ac610292600383015493610284600561025e60048701612b9b565b950154976040519a8b9a60e08c5260e08c0190612aeb565b908a820360208c0152612aeb565b9088820360408a0152612aeb565b9260ff8116606088015260ff608088019160081c16612c7a565b84820360a0860152612aeb565b9060c08301520390f35b346101bd576101bb6102d436612fcb565b91613443565b346101bd5760603660031901126101bd576004356001600160401b0381116101bd5761030a903690600401612a96565b6024356001600160401b0381116101bd57610329903690600401612d57565b906044356001600160401b0381116101bd57610349903690600401612dda565b61035282613083565b6002549160208101905f5b84811061036657005b61036f81613033565b50604051610393816103856020820180956130e1565b03601f198101835282612a75565b51902060405160208101906103c06020828751808a875e81015f838201520301601f198101835282612a75565b519020146103d1575b60010161035d565b60036103dc82613033565b5001805461ff00191661030017905561040660206103f983613033565b50604051928380926130e1565b600481520301902086518051906001600160401b03821161069757819061042d8454612b63565b601f8111610944575b50602090601f83116001146108e1575f926108d6575b50508160011b915f199060031b1c19161781555b6001810160208801518051906001600160401b038211610697576104848354612b63565b601f8111610891575b50602090601f831160011461082a576002949392915f918361081f575b50508160011b915f199060031b1c19161790555b0160408701518051906001600160401b0382116106975781906104e18454612b63565b601f81116107cf575b50602090601f831160011461076c575f92610761575b50508160011b915f199060031b1c19161790555b61052260206103f983613033565b600581520301902084518051906001600160401b038211610697576105478354612b63565b601f811161071c575b50602090601f83116001146106b65760019392915f91836106ab575b50505f19600383901b1c191690831b1781555b0160208501518051906001600160401b038211610697576105a08354612b63565b601f8111610652575b50602090601f83116001146105eb576001949392915f91836105e0575b50505f19600383901b1c191690841b1790555b90506103c9565b015190508a806105c6565b90601f19831691845f52815f20925f5b81811061063a575091600196959492918388959310610622575b505050811b0190556105d9565b01515f1960f88460031b161c191690558a8080610615565b929360206001819287860151815501950193016105fb565b835f5260205f20601f840160051c8101916020851061068d575b601f0160051c01905b81811061068257506105a9565b5f8155600101610675565b909150819061066c565b634e487b7160e01b5f52604160045260245ffd5b015190508a8061056c565b90601f19831691845f52815f20925f5b81811061070457509160019594929183879593106106ec575b505050811b01815561057f565b01515f1960f88460031b161c191690558a80806106df565b929360206001819287860151815501950193016106c6565b835f5260205f20601f840160051c81019160208510610757575b601f0160051c01905b81811061074c5750610550565b5f815560010161073f565b9091508190610736565b015190508980610500565b5f8581528281209350601f198516905b8181106107b7575090846001959493921061079f575b505050811b019055610514565b01515f1960f88460031b161c19169055898080610792565b9293602060018192878601518155019501930161077c565b909150835f5260205f20601f840160051c81019160208510610815575b90601f859493920160051c01905b81811061080757506104ea565b5f81558493506001016107fa565b90915081906107ec565b015190508b806104aa565b90601f19831691845f52815f20925f5b818110610879575091600193918560029897969410610861575b505050811b0190556104be565b01515f1960f88460031b161c191690558b8080610854565b9293602060018192878601518155019501930161083a565b835f5260205f20601f840160051c810191602085106108cc575b601f0160051c01905b8181106108c1575061048d565b5f81556001016108b4565b90915081906108ab565b01519050898061044c565b5f8581528281209350601f198516905b81811061092c5750908460019594939210610914575b505050811b018155610460565b01515f1960f88460031b161c19169055898080610907565b929360206001819287860151815501950193016108f1565b909150835f5260205f20601f840160051c8101916020851061098a575b90601f859493920160051c01905b81811061097c5750610436565b5f815584935060010161096f565b9091508190610961565b346101bd5760a03660031901126101bd576004356001600160401b0381116101bd576109c4903690600401612a96565b6024356001600160401b0381116101bd576109e3903690600401612a96565b6044356001600160401b0381116101bd57610a02903690600401612a96565b906064356001600160401b0381116101bd57610a3e92610a29610a37923690600401612a96565b610a31612b4d565b916130b1565b9083613443565b600254602082015f5b828110610a5057005b80610a5c600192613033565b50604051610a72816103856020820180956130e1565b5190206040516020810190610a9f6020828a51808a875e81015f838201520301601f198101835282612a75565b51902014610aae575b01610a47565b6003610ab982613033565b5001805461ff001916610200179055610aa8565b346101bd5760203660031901126101bd576004356001600160401b0381116101bd57610b23602080610b06610b37943690600401612a96565b604051928184925191829101835e81016001815203019020612b9b565b604051918291602083526020830190612aeb565b0390f35b346101bd5760203660031901126101bd576004356001600160401b0381116101bd57610b7f610b71610b37923690600401612a96565b610b79613339565b50613391565b60405191829182612e65565b346101bd57610ba4610b9c36612f09565b819291613b73565b600254602082015f5b828110610bb657005b80610bc2600192613033565b50604051610bd8816103856020820180956130e1565b5190206040516020810190610c056020828a51808a875e81015f838201520301601f198101835282612a75565b51902014610c14575b01610bad565b6003610c1f82613033565b5001805461ff001916610600179055610c0e565b346101bd5760203660031901126101bd576004356001600160401b0381116101bd57610b7f610c69610b37923690600401612a96565b613391565b346101bd576101bb610c7f36612e34565b906132be565b346101bd57610c9e610c9636612e34565b8192916132be565b600254602082015f5b828110610cb057005b80610cbc600192613033565b50604051610cd2816103856020820180956130e1565b5190206040516020810190610cff6020828a51808a875e81015f838201520301601f198101835282612a75565b51902014610d0e575b01610ca7565b6003610d1982613033565b5001805461ff001916610500179055610d08565b346101bd5760203660031901126101bd576004356001600160401b0381116101bd57610d5d903690600401612a96565b60025460208201915f805b838110610e39575060ff610d7c9116613162565b925f915f5b848110610d965760405180610b378882612c87565b6002610385610dbb610da784613033565b5060405192839160208301958691016130e1565b5190206040516020810190610de86020828751808a875e81015f838201520301601f198101835282612a75565b51902014610df9575b600101610d81565b92610e31600191610e2b610e15610e0f88613033565b506131ff565b60ff831690610e24828c6131df565b52896131df565b50613276565b939050610df1565b6002610385610e4a610da784613033565b5190206040516020810190610e776020828851808c875e81015f838201520301601f198101835282612a75565b51902014610e88575b600101610d68565b90610e94600191613276565b919050610e80565b346101bd5760203660031901126101bd576004356001600160401b0381116101bd57602080610ed2610f27933690600401612a96565b604051928184925191829101835e81016004815203019020610b37610ef682612b9b565b91610f35610f126002610f0b60018501612b9b565b9301612b9b565b91604051958695606087526060870190612aeb565b908582036020870152612aeb565b908382036040850152612aeb565b346101bd5760203660031901126101bd576004356001600160401b0381116101bd57610b23610f79610b37923690600401612a96565b61329b565b346101bd5760203660031901126101bd576004356001600160401b0381116101bd57610fae903690600401612a96565b604051610fba816129ed565b606081526020810160609052604081015f905260600160609052604051610fe081612a23565b60608152602081016060905260400160609052604051610fff81612a3e565b60608152602001606090526040518151908060208401928084835e810160038152036020019020906040518084518084835e81016004815203602001902092604051918291518091835e81016005815203602001902060405191611062836129ed565b61106b81612b9b565b835261107960018201612b9b565b9360208401948552600282015460ff16916040850192835260030161109d90612b9b565b9160608501928352604051916110b283612a23565b6110bb81612b9b565b83526110c960018201612b9b565b90602084019182526002016110dd90612b9b565b9160408401928352604051956110f287612a3e565b6110fb81612b9b565b875260010161110990612b9b565b946020870195865260405198899860608a525160608a016080905260e08a0161113191612aeb565b9051898203605f190160808b01526111499190612aeb565b915160ff1660a089015251878203605f190160c089015261116a9190612aeb565b92868403602088015251606084526060840161118591612aeb565b905190838103602085015261119991612aeb565b90519180820390604001526111ad91612aeb565b9183830360408501525160408352604083016111c891612aeb565b9051918082039060200152610b3791612aeb565b346101bd5760203660031901126101bd576004356001600160401b0381116101bd5760208061121261126f933690600401612a96565b604051928184925191829101835e81016003815203019020610b3761123682612b9b565b9161124360018201612b9b565b61127d61125a600360ff6002860154169401612b9b565b91604051968796608088526080880190612aeb565b908682036020880152612aeb565b9160408501528382036060850152612aeb565b346101bd576101003660031901126101bd576004356001600160401b0381116101bd576112c1903690600401612a96565b6024356001600160401b0381116101bd576112e0903690600401612a96565b6044356001600160401b0381116101bd576112ff903690600401612a96565b916064356001600160a01b03811681036101bd576084359360ff85168095036101bd5760a4356001600160401b0381116101bd57611341903690600401612a96565b9460c4356001600160401b0381116101bd57611361903690600401612d57565b9260e435906001600160401b0382116101bd578361138661138c933690600401612dda565b976130b1565b956113dc85602098604051906113a28b83612a75565b5f82526040516113b28c82612a75565b5f81526113bd613063565b50604051926113cb84612a23565b83528b8301525f6040830152613c91565b6040516113e8816129ed565b8581526040516113f88982612a75565b5f81528882019081526040820190848252606083019384526040518a818a5180838d01835e8101600381520301902092518051906001600160401b0382116106975781908c6114478754612b63565b601f81116121ee575b50508c908d601f841160011461218a57505f9261217f575b50508160011b915f199060031b1c19161783555b51805160018401916001600160401b038211610697578b61149d8454612b63565b601f811161213a575b50508b908c601f84116001146120cf5750918060ff949260039796945f926120c4575b50508160011b915f1990881b1c19161790555b511660ff60028301911660ff198254161790550190518051906001600160401b03821161069757819061150f8454612b63565b601f8111612076575b508990601f8311600114612013575f92612008575b50508160011b915f199060031b1c19161790555b6040519061154e82612a08565b8482526040519261155f8885612a75565b5f8452878301938452604083015260608201525f60808201526040516115858782612a75565b5f815260a08201525f60c082015260025468010000000000000000811015610697578060016115b79201600255613033565b929092611ff55781518051906001600160401b0382116106975781906115dd8654612b63565b601f8111611fa7575b508990601f8311600114611f44575f92611f39575b50508160011b915f199060031b1c19161783555b518051906001600160401b0382116106975781906116306001860154612b63565b601f8111611ee8575b508890601f8311600114611e7e575f92611e73575b50508160011b915f199060031b1c19161760018301555b6002820160408201518051906001600160401b03821161069757819061168b8454612b63565b601f8111611e25575b508990601f8311600114611dc2575f92611db7575b50508160011b915f199060031b1c19161790555b6003820160ff806060840151161660ff1982541617815560808201516007811015611da35761ff0082549160081b169061ff0019161790556004820160a08201518051906001600160401b038211610697576117198354612b63565b601f8111611d60575b508890601f8311600114611cf757918060c09492600596945f92611cec575b50508160011b915f199060031b1c19161790555b01519101556040518481845180838701835e8101600481520301902081518051906001600160401b0382116106975781906117908454612b63565b601f8111611c9e575b508790601f8311600114611c3b575f92611c30575b50508160011b915f199060031b1c19161781555b60018101858301518051906001600160401b038211610697576117e58354612b63565b601f8111611bed575b508790601f8311600114611b8457918060029492604096945f92611b79575b50508160011b915f199060031b1c19161790555b01910151918251916001600160401b0383116106975785926118438254612b63565b94601f8611611b22575b8495508490601f8311600114611abb575f919083611ab0575b50508160011b915f199060031b1c19161790555b604051928184925191829101835e8101600581520301902081519081516001600160401b0381116106975784926118b18354612b63565b601f8111611a5e575b508390601f83116001146119f85760019392915f91836119ed575b50505f19600383901b1c191690831b1781555b01910151918251906001600160401b038211610697576119088354612b63565b601f81116119aa575b5080601f831160011461194b57508192935f92611940575b50505f19600383901b1c191660019190911b179055005b015190508380611929565b90601f19831694845f52825f20925f905b87821061199257505083600195961061197a575b505050811b019055005b01515f1960f88460031b161c19169055838080611970565b8060018596829496860151815501950193019061195c565b835f52815f20601f840160051c8101918385106119e3575b601f0160051c01905b8181106119d85750611911565b5f81556001016119cb565b90915081906119c2565b0151905087806118d5565b90601f19831691845f52855f20925f5b87828210611a48575050916001959492918387959310611a30575b505050811b0181556118e8565b01515f1960f88460031b161c19169055878080611a23565b6001859682939686015181550195019301611a08565b9091928094505f52855f20601f840160051c810191878510611aa6575b90601f8896959493920160051c01905b818110611a9857506118ba565b5f8155879550600101611a8b565b9091508190611a7b565b015190508880611866565b601f95949392919519821695835f52855f20915f5b888110611b0a57508360019596979810611af2575b505050811b01905561187a565b01515f1960f88460031b161c19169055888080611ae5565b82820151845589976001909401939283019201611ad0565b918094505f9591939552865f20601f840160051c810191888510611b6f575b90601f899694979593920160051c01905b818110611b615750508461184d565b5f8155889550600101611b52565b9091508190611b41565b015190508a8061180d565b90601f19831691845f52895f20925f5b8b828210611bd7575050926001928592604098966002989610611bbf575b505050811b019055611821565b01515f1960f88460031b161c191690558a8080611bb2565b6001859682939686015181550195019301611b94565b835f52885f20601f840160051c8101918a8510611c26575b601f0160051c01905b818110611c1b57506117ee565b5f8155600101611c0e565b9091508190611c05565b0151905087806117ae565b5f8581528981209350601f198516905b8a828210611c88575050908460019594939210611c70575b505050811b0181556117c2565b01515f1960f88460031b161c19169055878080611c63565b6001859682939686015181550195019301611c4b565b909150835f52875f20601f840160051c810191898510611ce2575b90601f859493920160051c01905b818110611cd45750611799565b5f8155849350600101611cc7565b9091508190611cb9565b015190508b80611741565b90601f19831691845f528a5f20925f5b8c828210611d4a5750509260019285926005989660c0989610611d32575b505050811b019055611755565b01515f1960f88460031b161c191690558b8080611d25565b6001859682939686015181550195019301611d07565b835f52895f20601f840160051c8101918b8510611d99575b601f0160051c01905b818110611d8e5750611722565b5f8155600101611d81565b9091508190611d78565b634e487b7160e01b5f52602160045260245ffd5b0151905089806116a9565b5f8581528b81209350601f198516905b8c828210611e0f575050908460019594939210611df7575b505050811b0190556116bd565b01515f1960f88460031b161c19169055898080611dea565b6001859682939686015181550195019301611dd2565b909150835f52895f20601f840160051c8101918b8510611e69575b90601f859493920160051c01905b818110611e5b5750611694565b5f8155849350600101611e4e565b9091508190611e40565b01519050888061164e565b600186015f9081528a81209350601f198516905b8b828210611ed2575050908460019594939210611eba575b505050811b016001830155611665565b01515f1960f88460031b161c19169055888080611eaa565b6001859682939686015181550195019301611e92565b909150600185015f52885f20601f840160051c8101918a8510611f2f575b90601f859493920160051c01905b818110611f215750611639565b5f8155849350600101611f14565b9091508190611f06565b0151905089806115fb565b5f8781528b81209350601f198516905b8c828210611f91575050908460019594939210611f79575b505050811b01835561160f565b01515f1960f88460031b161c19169055898080611f6c565b6001859682939686015181550195019301611f54565b909150855f52895f20601f840160051c8101918b8510611feb575b90601f859493920160051c01905b818110611fdd57506115e6565b5f8155849350600101611fd0565b9091508190611fc2565b634e487b7160e01b5f525f60045260245ffd5b01519050898061152d565b5f8581528b81209350601f198516905b8c828210612060575050908460019594939210612048575b505050811b019055611541565b01515f1960f88460031b161c1916905589808061203b565b6001859682939686015181550195019301612023565b909150835f52895f20601f840160051c8101918b85106120ba575b90601f859493920160051c01905b8181106120ac5750611518565b5f815584935060010161209f565b9091508190612091565b015190508e806114c9565b9190601f198416855f52835f20935f905b828210612122575050926001928592600399989660ff98961061210b575b505050811b0190556114dc565b01515f19838a1b60f8161c191690558e80806120fe565b806001869782949787015181550196019401906120e0565b845f52815f2090601f850160051c8201928510612175575b601f0160051c01905b81811061216a578d91506114a6565b5f815560010161215b565b9091508190612152565b015190508c80611468565b5f8881528181209450601f198616915b8282106121d65750509084600195949392106121be575b505050811b01835561147c565b01515f1960f88460031b161c191690558c80806121b1565b8060018697829497870151815501960194019061219a565b90919250865f52815f2090601f850160051c8201928510612235575b90601f859493920160051c01905b818110612227578e9150611450565b5f8155849350600101612218565b909150819061220a565b346101bd575f3660031901126101bd5760025461225b81613162565b905f805b8282106122745760405180610b378682612c87565b61229f600191610e2b612289610e0f86613033565b60ff831690612298828a6131df565b52876131df565b91019061225f565b346101bd5760203660031901126101bd576004356001600160401b0381116101bd576020806122dd61231a933690600401612a96565b604051928184925191829101835e81016005815203019020610b376123066001610f0b84612b9b565b604051938493604085526040850190612aeb565b908382036020850152612aeb565b346101bd5760e03660031901126101bd576004356001600160401b0381116101bd57612358903690600401612a96565b6024356001600160401b0381116101bd57612377903690600401612a96565b6044356001600160401b0381116101bd57612396903690600401612a96565b6064356001600160401b0381116101bd576123b5903690600401612a96565b926123be612b4d565b60a435906001600160401b0382116101bd576123e16123eb923690600401612a96565b9560c435946130b1565b604051906001855192602081818901958087835e810160038152030190200183516001600160401b038111610697576124248254612b63565b601f811161278d575b506020601f82116001146127285790806124649493925f9161271d575b508160011b915f199060031b1c19161790555b86866137e0565b600254935f5b85811061247357005b61247c81613033565b50604051612492816103856020820180956130e1565b51902060405160208101906124bf6020828751808a875e81015f838201520301601f198101835282612a75565b519020146124d0575b60010161246a565b60016124db82613033565b500184516001600160401b038111610697576124f78254612b63565b601f81116126d8575b50806020601f8211600114612677575f9161266c575b508160011b915f199060031b1c19161790555b600361253482613033565b5001805461ff001916610100179055600461254e82613033565b500187516001600160401b0381116106975761256a8254612b63565b601f8111612627575b506020601f82116001146125c257908060019493925f916125b7575b505f19600383901b1c191690841b1790555b8560056125ad83613033565b50015590506124c8565b90508a01518b61258f565b601f19821690835f52805f20915f5b8c82821061260f57505091839160019695948794106125f7575b5050811b0190556125a1565b8c01515f1960f88460031b161c191690558b806125eb565b600184956020939584930151815501940192016125d1565b825f5260205f20601f830160051c81019160208410612662575b601f0160051c01905b8181106126575750612573565b5f815560010161264a565b9091508190612641565b90508601518a612516565b5f8481528181209250601f198416905b8181106126c0575090836001949392106126a8575b5050811b019055612529565b8801515f1960f88460031b161c191690558a8061269c565b9192602060018192868d015181550194019201612687565b825f5260205f20601f830160051c81019160208410612713575b601f0160051c01905b8181106127085750612500565b5f81556001016126fb565b90915081906126f2565b90508601518a61244a565b601f19821690835f52805f20915f5b81811061277557509183916124649695946001941061275d575b5050811b01905561245d565b8801515f1960f88460031b161c191690558a80612751565b9192602060018192868c015181550194019201612737565b825f5260205f20601f830160051c810191602084106127c8575b601f0160051c01905b8181106127bd575061242d565b5f81556001016127b0565b90915081906127a7565b346101bd5760203660031901126101bd576004356001600160401b0381116101bd57602080612808612881933690600401612a96565b604051928184925191829101835e81015f815203019020610b3760ff825416916128c16001820154916128b260028201546003830154600484015460058501549060068601549261285b60078801612c3b565b94612874600d61286d600a8b01612c3b565b9901612b9b565b996040519d8e809e612c7a565b60208d015260408c015260608b015260808a015260a089015260c088015261014060e0880152610140870190612b0f565b90858203610100870152612b0f565b90838203610120850152612aeb565b346101bd5760603660031901126101bd576004356001600160401b0381116101bd57612900903690600401612a96565b6024356001600160401b0381116101bd5761291f903690600401612a96565b906044356001600160a01b03811681036101bd57610b3792612940926130b1565b604051918291602083526020830190612b0f565b346101bd5760203660031901126101bd576004356001600160401b0381116101bd576129876101bb913690600401612a96565b613083565b346101bd5760203660031901126101bd576004356001600160401b0381116101bd5761294060076020806129c7610b37953690600401612a96565b6129cf613063565b50604051928184925191829101835e81015f81520301902001612c3b565b608081019081106001600160401b0382111761069757604052565b60e081019081106001600160401b0382111761069757604052565b606081019081106001600160401b0382111761069757604052565b604081019081106001600160401b0382111761069757604052565b61014081019081106001600160401b0382111761069757604052565b90601f801991011681019081106001600160401b0382111761069757604052565b81601f820112156101bd578035906001600160401b0382116106975760405192612aca601f8401601f191660200185612a75565b828452602083830101116101bd57815f926020809301838601378301015290565b805180835260209291819084018484015e5f828201840152601f01601f1916010190565b906040612b3a612b288451606085526060850190612aeb565b60208501518482036020860152612aeb565b928101516001600160a01b031691015290565b608435906001600160a01b03821682036101bd57565b90600182811c92168015612b91575b6020831014612b7d57565b634e487b7160e01b5f52602260045260245ffd5b91607f1691612b72565b9060405191825f825492612bae84612b63565b8084529360018116908115612c195750600114612bd5575b50612bd392500383612a75565b565b90505f9291925260205f20905f915b818310612bfd575050906020612bd3928201015f612bc6565b6020919350806001915483858901015201910190918492612be4565b905060209250612bd394915060ff191682840152151560051b8201015f612bc6565b90604051612c4881612a23565b60408193612c5581612b9b565b8352612c6360018201612b9b565b6020840152600201546001600160a01b0316910152565b906007821015611da35752565b602081016020825282518091526040820191602060408360051b8301019401925f915b838310612cb957505050505090565b9091929394602080600192603f1985820301865288519060c080612d42612d11612cff612cef875160e0885260e0880190612aeb565b888801518782038a890152612aeb565b60408701518682036040880152612aeb565b60ff6060870151166060860152612d3060808701516080870190612c7a565b60a086015185820360a0870152612aeb565b93015191015297019301930191939290612caa565b91906060838203126101bd5760405190612d7082612a23565b819380356001600160401b0381116101bd5782612d8e918301612a96565b835260208101356001600160401b0381116101bd5782612daf918301612a96565b60208401526040810135916001600160401b0383116101bd57604092612dd59201612a96565b910152565b91906040838203126101bd5760405190612df382612a3e565b819380356001600160401b0381116101bd5782612e11918301612a96565b83526020810135916001600160401b0383116101bd57602092612dd59201612a96565b60406003198201126101bd57600435906001600160401b0382116101bd57612e5e91600401612a96565b9060243590565b90612f069160208152612e7c602082018351612c7a565b602082015160408201526040820151606082015260608201516080820152608082015160a082015260a082015160c082015260c082015160e0820152610120612ef0612eda60e0850151610140610100860152610160850190612b0f565b610100850151848203601f190184860152612b0f565b92015190610140601f1982850301910152612aeb565b90565b9060406003198301126101bd576004356001600160401b0381116101bd5782612f3491600401612a96565b91602435906001600160401b0382116101bd57612f0691600401612a96565b91906060838203126101bd5760405190612f6c82612a23565b819380356001600160401b0381116101bd5782612f8a918301612a96565b835260208101356001600160401b0381116101bd57604092612fad918301612a96565b60208401520135906001600160a01b03821682036101bd5760400152565b60606003198201126101bd576004356001600160401b0381116101bd5781612ff591600401612a96565b916024356001600160401b0381116101bd578261301491600401612a96565b91604435906001600160401b0382116101bd57612f0691600401612f53565b60025481101561304f5760025f52600660205f20910201905f90565b634e487b7160e01b5f52603260045260245ffd5b6040519061307082612a23565b5f60408360608152606060208201520152565b60208091604051928184925191829101835e81015f815203019020426004820155600360ff19825416179055565b91906130bb613063565b50604051926130c984612a23565b835260208301526001600160a01b0316604082015290565b5f92918154916130f083612b63565b9260018116908115613138575060011461310957505050565b90919293505f5260205f205f905b8382106131245750500190565b600181602092548486015201910190613117565b60ff191683525050811515909102019150565b6001600160401b0381116106975760051b60200190565b9061316c8261314b565b6131796040519182612a75565b828152809261318a601f199161314b565b01905f5b82811061319a57505050565b6020906040516131a981612a08565b60608152606083820152606060408201525f60608201525f6080820152606060a08201525f60c08201528282850101520161318e565b805182101561304f5760209160051b010190565b6007821015611da35752565b9060405161320c81612a08565b60c06005829461321b81612b9b565b845261322960018201612b9b565b602085015261323a60028201612b9b565b604085015261325e60ff6003830154818116606088015260081c16608086016131f3565b61326a60048201612b9b565b60a08501520154910152565b60ff1660ff81146132875760010190565b634e487b7160e01b5f52601160045260245ffd5b6040518151612f0692602091839181908401835e81016001815203019020612b9b565b904211156132f45760208091604051928184925191829101835e81015f815203019020426006820155600560ff19825416179055565b60405162461bcd60e51b815260206004820152601860248201527f536572746966696b6174206d61736968206265726c616b7500000000000000006044820152606490fd5b6040519061334682612a59565b6060610120835f81525f60208201525f60408201525f838201525f60808201525f60a08201525f60c082015261337a613063565b60e0820152613387613063565b6101008201520152565b6020809161339d613339565b50604051928184925191829101835e81015f81520301902061343a600d604051926133c784612a59565b6133d560ff825416856131f3565b60018101546020850152600281015460408501526003810154606085015260048101546080850152600581015460a0850152600681015460c085015261341d60078201612c3b565b60e085015261342e600a8201612c3b565b61010085015201612b9b565b61012082015290565b92919060405160208551918181818901948086835e81015f81520301902095604051928391518091835e81016001815203019020908051906001600160401b0382116106975781906134958454612b63565b601f8111613790575b50602090601f831160011461372d575f92613722575b50508160011b915f199060031b1c19161790555b80518051600a8501916001600160401b038211610697576134e98354612b63565b601f81116136dd575b50602090601f8311600114613676576020949392915f918361366b575b50508160011b915f199060031b1c19161790555b6040810151600c850180546001600160a01b0319166001600160a01b039290921691909117905501518051909290600b8201906001600160401b0381116106975761356e8254612b63565b601f8111613626575b50602094601f82116001146135c5579481929394955f926135ba575b50508160011b915f199060031b1c19161790555b426003820155805460ff19166002179055565b015190505f80613593565b601f19821695835f52805f20915f5b88811061360e575083600195969798106135f6575b505050811b0190556135a7565b01515f1960f88460031b161c191690555f80806135e9565b919260206001819286850151815501940192016135d4565b825f5260205f20601f830160051c81019160208410613661575b601f0160051c01905b8181106136565750613577565b5f8155600101613649565b9091508190613640565b015190505f8061350f565b90601f19831691845f52815f20925f5b8181106136c55750916001939185602098979694106136ad575b505050811b019055613523565b01515f1960f88460031b161c191690555f80806136a0565b92936020600181928786015181550195019301613686565b835f5260205f20601f840160051c81019160208510613718575b601f0160051c01905b81811061370d57506134f2565b5f8155600101613700565b90915081906136f7565b015190505f806134b4565b5f8581528281209350601f198516905b8181106137785750908460019594939210613760575b505050811b0190556134c8565b01515f1960f88460031b161c191690555f8080613753565b9293602060018192878601518155019501930161373d565b909150835f5260205f20601f840160051c810191602085106137d6575b90601f859493920160051c01905b8181106137c8575061349e565b5f81558493506001016137bb565b90915081906137ad565b6020809194939294604051928184925191829101835e81015f815203019020908051600a8301908051906001600160401b038211610697576138228354612b63565b601f8111613b2e575b50602090601f8311600114613ac7576020949392915f9183613abc575b50508160011b915f199060031b1c19161790555b6040810151600c840180546001600160a01b0319166001600160a01b039290921691909117905501518051600b8301916001600160401b0382116106975781906138a68454612b63565b601f8111613a6c575b50602090601f8311600114613a09575f926139fe575b50508160011b915f199060031b1c19161790555b426002820155608242019081421161328757600d916005820155600160ff198254161781550182516001600160401b038111610697576139198254612b63565b601f81116139b9575b506020601f821160011461395b57819293945f92613950575b50508160011b915f199060031b1c1916179055565b015190505f8061393b565b601f19821690835f52805f20915f5b8181106139a157509583600195969710613989575b505050811b019055565b01515f1960f88460031b161c191690555f808061397f565b9192602060018192868b01518155019401920161396a565b825f5260205f20601f830160051c810191602084106139f4575b601f0160051c01905b8181106139e95750613922565b5f81556001016139dc565b90915081906139d3565b015190505f806138c5565b5f8581528281209350601f198516905b818110613a545750908460019594939210613a3c575b505050811b0190556138d9565b01515f1960f88460031b161c191690555f8080613a2f565b92936020600181928786015181550195019301613a19565b909150835f5260205f20601f840160051c81019160208510613ab2575b90601f859493920160051c01905b818110613aa457506138af565b5f8155849350600101613a97565b9091508190613a89565b015190505f80613848565b90601f19831691845f52815f20925f5b818110613b16575091600193918560209897969410613afe575b505050811b01905561385c565b01515f1960f88460031b161c191690555f8080613af1565b92936020600181928786015181550195019301613ad7565b835f5260205f20601f840160051c81019160208510613b69575b601f0160051c01905b818110613b5e575061382b565b5f8155600101613b51565b9091508190613b48565b60208091939293604051928184925191829101835e81015f815203019020426002820155608242019081421161328757600d916005820155600660ff198254161781550182516001600160401b03811161069757613bd18254612b63565b601f8111613c4c575b506020601f8211600114613c0757819293945f926139505750508160011b915f199060031b1c1916179055565b601f19821690835f52805f20915f5b818110613c345750958360019596971061398957505050811b019055565b9192602060018192868b015181550194019201613c16565b825f5260205f20601f830160051c81019160208410613c87575b601f0160051c01905b818110613c7c5750613bda565b5f8155600101613c6f565b9091508190613c66565b929091604051613ca081612a59565b5f81526020810194428652604082015f8152606083015f8152608084015f815260a08501915f835260c08601935f855260e087019586526101008701998a5260209a8b806040519a613cf2828d612a75565b5f8c526101208b019b8c52604051928184925191829101835e81015f81520301902097516007811015611da35760ff80198a541691161788555160018801555160028701555160038601555160048501555160058401555160068301556007820190519081518051906001600160401b038211610697578190613d758454612b63565b601f8111614282575b508990601f831160011461421f575f92614214575b50508160011b915f199060031b1c19161790555b60088201868201518051906001600160401b038211610697578190613dcc8454612b63565b601f81116141c6575b508990601f8311600114614163575f92614158575b50508160011b915f199060031b1c19161790555b604001516009820180546001600160a01b0319166001600160a01b0392909216919091179055925180518051919491600a8301916001600160401b038211610697578190613e4c8454612b63565b601f811161410a575b508890601f83116001146140a7575f9261409c575b50508160011b915f199060031b1c19161790555b600b81019385810151948551956001600160401b03871161069757613ea38254612b63565b601f8111614059575b508790601f8811600114613ff257968091600d9697985f92613fe7575b50508160011b915f199060031b1c19161790555b60400151600c820180546001600160a01b0319166001600160a01b03929092169190911790559151805190949190920191906001600160401b03821161069757613f278354612b63565b601f8111613fa4575b5080601f8311600114613f5d5750819293945f926139505750508160011b915f199060031b1c1916179055565b90601f19831695845f52825f20925f905b888210613f8c5750508360019596971061398957505050811b019055565b80600185968294968601518155019501930190613f6e565b835f52815f20601f840160051c810191838510613fdd575b601f0160051c01905b818110613fd25750613f30565b5f8155600101613fc5565b9091508190613fbc565b015190505f80613ec9565b90601f19881691835f52895f20925f5b8b82821061404357505091600193918a600d999a9b941061402b575b505050811b019055613edd565b01515f1960f88460031b161c191690555f808061401e565b6001859682939686015181550195019301614002565b825f52885f20601f890160051c8101918a8a10614092575b601f0160051c01905b8181106140875750613eac565b5f815560010161407a565b9091508190614071565b015190505f80613e6a565b5f8581528a81209350601f198516905b8b8282106140f45750509084600195949392106140dc575b505050811b019055613e7e565b01515f1960f88460031b161c191690555f80806140cf565b60018596829396860151815501950193016140b7565b909150835f52885f20601f840160051c8101918a851061414e575b90601f859493920160051c01905b8181106141405750613e55565b5f8155849350600101614133565b9091508190614125565b015190505f80613dea565b5f8581528b81209350601f198516905b8c8282106141b0575050908460019594939210614198575b505050811b019055613dfe565b01515f1960f88460031b161c191690555f808061418b565b6001859682939686015181550195019301614173565b909150835f52895f20601f840160051c8101918b851061420a575b90601f859493920160051c01905b8181106141fc5750613dd5565b5f81558493506001016141ef565b90915081906141e1565b015190505f80613d93565b5f8581528b81209350601f198516905b8c82821061426c575050908460019594939210614254575b505050811b019055613da7565b01515f1960f88460031b161c191690555f8080614247565b600185968293968601518155019501930161422f565b909150835f52895f20601f840160051c8101918b85106142c6575b90601f859493920160051c01905b8181106142b85750613d7e565b5f81558493506001016142ab565b909150819061429d56fea2646970667358221220afa71a69539475ed2beb3fbc0aa95c3cb2f4856cc853842a200b05869889287664736f6c634300081b0033","opcodes":"PUSH1 0x80 DUP1 PUSH1 0x40 MSTORE CALLVALUE PUSH1 0x15 JUMPI PUSH2 0x4306 SWAP1 DUP2 PUSH2 0x1A DUP3 CODECOPY RETURN JUMPDEST PUSH0 DUP1 REVERT INVALID PUSH1 0x80 PUSH1 0x40 MSTORE PUSH1 0x4 CALLDATASIZE LT ISZERO PUSH2 0x11 JUMPI PUSH0 DUP1 REVERT JUMPDEST PUSH0 CALLDATALOAD PUSH1 0xE0 SHR DUP1 PUSH4 0x17E68309 EQ PUSH2 0x298C JUMPI DUP1 PUSH4 0x19859C87 EQ PUSH2 0x2954 JUMPI DUP1 PUSH4 0x2E9CF827 EQ PUSH2 0x28D0 JUMPI DUP1 PUSH4 0x34A34F30 EQ PUSH2 0x27D2 JUMPI DUP1 PUSH4 0x4EEA4B8F EQ PUSH2 0x2328 JUMPI DUP1 PUSH4 0x500619D0 EQ PUSH2 0x22A7 JUMPI DUP1 PUSH4 0x5850607C EQ PUSH2 0x223F JUMPI DUP1 PUSH4 0x64B409FF EQ PUSH2 0x1290 JUMPI DUP1 PUSH4 0x6AA81299 EQ PUSH2 0x11DC JUMPI DUP1 PUSH4 0x6D1AA7D5 EQ PUSH2 0xF43 JUMPI DUP1 PUSH4 0x70C056B0 EQ PUSH2 0xF7E JUMPI DUP1 PUSH4 0x761FB19A EQ PUSH2 0xF43 JUMPI DUP1 PUSH4 0x7AB09648 EQ PUSH2 0xE9C JUMPI DUP1 PUSH4 0x81FC60A5 EQ PUSH2 0xD2D JUMPI DUP1 PUSH4 0x8B11D37B EQ PUSH2 0xC85 JUMPI DUP1 PUSH4 0x9740DBED EQ PUSH2 0xC6E JUMPI DUP1 PUSH4 0x9AAA5D8B EQ PUSH2 0xC33 JUMPI DUP1 PUSH4 0xB0730436 EQ PUSH2 0xB8B JUMPI DUP1 PUSH4 0xBE2E2325 EQ PUSH2 0xB3B JUMPI DUP1 PUSH4 0xBF3F80AC EQ PUSH2 0xACD JUMPI DUP1 PUSH4 0xE462DDE5 EQ PUSH2 0x994 JUMPI DUP1 PUSH4 0xE8002B27 EQ PUSH2 0x2DA JUMPI DUP1 PUSH4 0xE9C260D7 EQ PUSH2 0x2C3 JUMPI DUP1 PUSH4 0xF02F5F23 EQ PUSH2 0x1EF JUMPI DUP1 PUSH4 0xF5104FF1 EQ PUSH2 0x1D8 JUMPI DUP1 PUSH4 0xF53EF126 EQ PUSH2 0x1C1 JUMPI PUSH4 0xFB5FB9A3 EQ PUSH2 0x142 JUMPI PUSH0 DUP1 REVERT JUMPDEST CALLVALUE PUSH2 0x1BD JUMPI PUSH1 0x60 CALLDATASIZE PUSH1 0x3 NOT ADD SLT PUSH2 0x1BD JUMPI PUSH1 0x4 CALLDATALOAD PUSH1 0x1 PUSH1 0x1 PUSH1 0x40 SHL SUB DUP2 GT PUSH2 0x1BD JUMPI PUSH2 0x172 SWAP1 CALLDATASIZE SWAP1 PUSH1 0x4 ADD PUSH2 0x2F53 JUMP JUMPDEST PUSH1 0x24 CALLDATALOAD PUSH1 0x1 PUSH1 0x1 PUSH1 0x40 SHL SUB DUP2 GT PUSH2 0x1BD JUMPI PUSH2 0x191 SWAP1 CALLDATASIZE SWAP1 PUSH1 0x4 ADD PUSH2 0x2F53 JUMP JUMPDEST SWAP1 PUSH1 0x44 CALLDATALOAD SWAP2 PUSH1 0x1 PUSH1 0x1 PUSH1 0x40 SHL SUB DUP4 GT PUSH2 0x1BD JUMPI PUSH2 0x1B5 PUSH2 0x1BB SWAP4 CALLDATASIZE SWAP1 PUSH1 0x4 ADD PUSH2 0x2A96 JUMP JUMPDEST SWAP2 PUSH2 0x3C91 JUMP JUMPDEST STOP JUMPDEST PUSH0 DUP1 REVERT JUMPDEST CALLVALUE PUSH2 0x1BD JUMPI PUSH2 0x1BB PUSH2 0x1D2 CALLDATASIZE PUSH2 0x2F09 JUMP JUMPDEST SWAP1 PUSH2 0x3B73 JUMP JUMPDEST CALLVALUE PUSH2 0x1BD JUMPI PUSH2 0x1BB PUSH2 0x1E9 CALLDATASIZE PUSH2 0x2FCB JUMP JUMPDEST SWAP2 PUSH2 0x37E0 JUMP JUMPDEST CALLVALUE PUSH2 0x1BD JUMPI PUSH1 0x20 CALLDATASIZE PUSH1 0x3 NOT ADD SLT PUSH2 0x1BD JUMPI PUSH1 0x4 CALLDATALOAD PUSH1 0x2 SLOAD DUP2 LT ISZERO PUSH2 0x1BD JUMPI PUSH2 0x219 PUSH2 0x276 SWAP2 PUSH2 0x3033 JUMP JUMPDEST POP PUSH2 0x223 DUP2 PUSH2 0x2B9B JUMP JUMPDEST SWAP1 PUSH2 0x2B9 PUSH2 0x233 PUSH1 0x1 DUP4 ADD PUSH2 0x2B9B JUMP JUMPDEST SWAP2 PUSH2 0x240 PUSH1 0x2 DUP3 ADD PUSH2 0x2B9B JUMP JUMPDEST SWAP1 PUSH2 0x2AC PUSH2 0x292 PUSH1 0x3 DUP4 ADD SLOAD SWAP4 PUSH2 0x284 PUSH1 0x5 PUSH2 0x25E PUSH1 0x4 DUP8 ADD PUSH2 0x2B9B JUMP JUMPDEST SWAP6 ADD SLOAD SWAP8 PUSH1 0x40 MLOAD SWAP11 DUP12 SWAP11 PUSH1 0xE0 DUP13 MSTORE PUSH1 0xE0 DUP13 ADD SWAP1 PUSH2 0x2AEB JUMP JUMPDEST SWAP1 DUP11 DUP3 SUB PUSH1 0x20 DUP13 ADD MSTORE PUSH2 0x2AEB JUMP JUMPDEST SWAP1 DUP9 DUP3 SUB PUSH1 0x40 DUP11 ADD MSTORE PUSH2 0x2AEB JUMP JUMPDEST SWAP3 PUSH1 0xFF DUP2 AND PUSH1 0x60 DUP9 ADD MSTORE PUSH1 0xFF PUSH1 0x80 DUP9 ADD SWAP2 PUSH1 0x8 SHR AND PUSH2 0x2C7A JUMP JUMPDEST DUP5 DUP3 SUB PUSH1 0xA0 DUP7 ADD MSTORE PUSH2 0x2AEB JUMP JUMPDEST SWAP1 PUSH1 0xC0 DUP4 ADD MSTORE SUB SWAP1 RETURN JUMPDEST CALLVALUE PUSH2 0x1BD JUMPI PUSH2 0x1BB PUSH2 0x2D4 CALLDATASIZE PUSH2 0x2FCB JUMP JUMPDEST SWAP2 PUSH2 0x3443 JUMP JUMPDEST CALLVALUE PUSH2 0x1BD JUMPI PUSH1 0x60 CALLDATASIZE PUSH1 0x3 NOT ADD SLT PUSH2 0x1BD JUMPI PUSH1 0x4 CALLDATALOAD PUSH1 0x1 PUSH1 0x1 PUSH1 0x40 SHL SUB DUP2 GT PUSH2 0x1BD JUMPI PUSH2 0x30A SWAP1 CALLDATASIZE SWAP1 PUSH1 0x4 ADD PUSH2 0x2A96 JUMP JUMPDEST PUSH1 0x24 CALLDATALOAD PUSH1 0x1 PUSH1 0x1 PUSH1 0x40 SHL SUB DUP2 GT PUSH2 0x1BD JUMPI PUSH2 0x329 SWAP1 CALLDATASIZE SWAP1 PUSH1 0x4 ADD PUSH2 0x2D57 JUMP JUMPDEST SWAP1 PUSH1 0x44 CALLDATALOAD PUSH1 0x1 PUSH1 0x1 PUSH1 0x40 SHL SUB DUP2 GT PUSH2 0x1BD JUMPI PUSH2 0x349 SWAP1 CALLDATASIZE SWAP1 PUSH1 0x4 ADD PUSH2 0x2DDA JUMP JUMPDEST PUSH2 0x352 DUP3 PUSH2 0x3083 JUMP JUMPDEST PUSH1 0x2 SLOAD SWAP2 PUSH1 0x20 DUP2 ADD SWAP1 PUSH0 JUMPDEST DUP5 DUP2 LT PUSH2 0x366 JUMPI STOP JUMPDEST PUSH2 0x36F DUP2 PUSH2 0x3033 JUMP JUMPDEST POP PUSH1 0x40 MLOAD PUSH2 0x393 DUP2 PUSH2 0x385 PUSH1 0x20 DUP3 ADD DUP1 SWAP6 PUSH2 0x30E1 JUMP JUMPDEST SUB PUSH1 0x1F NOT DUP2 ADD DUP4 MSTORE DUP3 PUSH2 0x2A75 JUMP JUMPDEST MLOAD SWAP1 KECCAK256 PUSH1 0x40 MLOAD PUSH1 0x20 DUP2 ADD SWAP1 PUSH2 0x3C0 PUSH1 0x20 DUP3 DUP8 MLOAD DUP1 DUP11 DUP8 MCOPY DUP2 ADD PUSH0 DUP4 DUP3 ADD MSTORE SUB ADD PUSH1 0x1F NOT DUP2 ADD DUP4 MSTORE DUP3 PUSH2 0x2A75 JUMP JUMPDEST MLOAD SWAP1 KECCAK256 EQ PUSH2 0x3D1 JUMPI JUMPDEST PUSH1 0x1 ADD PUSH2 0x35D JUMP JUMPDEST PUSH1 0x3 PUSH2 0x3DC DUP3 PUSH2 0x3033 JUMP JUMPDEST POP ADD DUP1 SLOAD PUSH2 0xFF00 NOT AND PUSH2 0x300 OR SWAP1 SSTORE PUSH2 0x406 PUSH1 0x20 PUSH2 0x3F9 DUP4 PUSH2 0x3033 JUMP JUMPDEST POP PUSH1 0x40 MLOAD SWAP3 DUP4 DUP1 SWAP3 PUSH2 0x30E1 JUMP JUMPDEST PUSH1 0x4 DUP2 MSTORE SUB ADD SWAP1 KECCAK256 DUP7 MLOAD DUP1 MLOAD SWAP1 PUSH1 0x1 PUSH1 0x1 PUSH1 0x40 SHL SUB DUP3 GT PUSH2 0x697 JUMPI DUP2 SWAP1 PUSH2 0x42D DUP5 SLOAD PUSH2 0x2B63 JUMP JUMPDEST PUSH1 0x1F DUP2 GT PUSH2 0x944 JUMPI JUMPDEST POP PUSH1 0x20 SWAP1 PUSH1 0x1F DUP4 GT PUSH1 0x1 EQ PUSH2 0x8E1 JUMPI PUSH0 SWAP3 PUSH2 0x8D6 JUMPI JUMPDEST POP POP DUP2 PUSH1 0x1 SHL SWAP2 PUSH0 NOT SWAP1 PUSH1 0x3 SHL SHR NOT AND OR DUP2 SSTORE JUMPDEST PUSH1 0x1 DUP2 ADD PUSH1 0x20 DUP9 ADD MLOAD DUP1 MLOAD SWAP1 PUSH1 0x1 PUSH1 0x1 PUSH1 0x40 SHL SUB DUP3 GT PUSH2 0x697 JUMPI PUSH2 0x484 DUP4 SLOAD PUSH2 0x2B63 JUMP JUMPDEST PUSH1 0x1F DUP2 GT PUSH2 0x891 JUMPI JUMPDEST POP PUSH1 0x20 SWAP1 PUSH1 0x1F DUP4 GT PUSH1 0x1 EQ PUSH2 0x82A JUMPI PUSH1 0x2 SWAP5 SWAP4 SWAP3 SWAP2 PUSH0 SWAP2 DUP4 PUSH2 0x81F JUMPI JUMPDEST POP POP DUP2 PUSH1 0x1 SHL SWAP2 PUSH0 NOT SWAP1 PUSH1 0x3 SHL SHR NOT AND OR SWAP1 SSTORE JUMPDEST ADD PUSH1 0x40 DUP8 ADD MLOAD DUP1 MLOAD SWAP1 PUSH1 0x1 PUSH1 0x1 PUSH1 0x40 SHL SUB DUP3 GT PUSH2 0x697 JUMPI DUP2 SWAP1 PUSH2 0x4E1 DUP5 SLOAD PUSH2 0x2B63 JUMP JUMPDEST PUSH1 0x1F DUP2 GT PUSH2 0x7CF JUMPI JUMPDEST POP PUSH1 0x20 SWAP1 PUSH1 0x1F DUP4 GT PUSH1 0x1 EQ PUSH2 0x76C JUMPI PUSH0 SWAP3 PUSH2 0x761 JUMPI JUMPDEST POP POP DUP2 PUSH1 0x1 SHL SWAP2 PUSH0 NOT SWAP1 PUSH1 0x3 SHL SHR NOT AND OR SWAP1 SSTORE JUMPDEST PUSH2 0x522 PUSH1 0x20 PUSH2 0x3F9 DUP4 PUSH2 0x3033 JUMP JUMPDEST PUSH1 0x5 DUP2 MSTORE SUB ADD SWAP1 KECCAK256 DUP5 MLOAD DUP1 MLOAD SWAP1 PUSH1 0x1 PUSH1 0x1 PUSH1 0x40 SHL SUB DUP3 GT PUSH2 0x697 JUMPI PUSH2 0x547 DUP4 SLOAD PUSH2 0x2B63 JUMP JUMPDEST PUSH1 0x1F DUP2 GT PUSH2 0x71C JUMPI JUMPDEST POP PUSH1 0x20 SWAP1 PUSH1 0x1F DUP4 GT PUSH1 0x1 EQ PUSH2 0x6B6 JUMPI PUSH1 0x1 SWAP4 SWAP3 SWAP2 PUSH0 SWAP2 DUP4 PUSH2 0x6AB JUMPI JUMPDEST POP POP PUSH0 NOT PUSH1 0x3 DUP4 SWAP1 SHL SHR NOT AND SWAP1 DUP4 SHL OR DUP2 SSTORE JUMPDEST ADD PUSH1 0x20 DUP6 ADD MLOAD DUP1 MLOAD SWAP1 PUSH1 0x1 PUSH1 0x1 PUSH1 0x40 SHL SUB DUP3 GT PUSH2 0x697 JUMPI PUSH2 0x5A0 DUP4 SLOAD PUSH2 0x2B63 JUMP JUMPDEST PUSH1 0x1F DUP2 GT PUSH2 0x652 JUMPI JUMPDEST POP PUSH1 0x20 SWAP1 PUSH1 0x1F DUP4 GT PUSH1 0x1 EQ PUSH2 0x5EB JUMPI PUSH1 0x1 SWAP5 SWAP4 SWAP3 SWAP2 PUSH0 SWAP2 DUP4 PUSH2 0x5E0 JUMPI JUMPDEST POP POP PUSH0 NOT PUSH1 0x3 DUP4 SWAP1 SHL SHR NOT AND SWAP1 DUP5 SHL OR SWAP1 SSTORE JUMPDEST SWAP1 POP PUSH2 0x3C9 JUMP JUMPDEST ADD MLOAD SWAP1 POP DUP11 DUP1 PUSH2 0x5C6 JUMP JUMPDEST SWAP1 PUSH1 0x1F NOT DUP4 AND SWAP2 DUP5 PUSH0 MSTORE DUP2 PUSH0 KECCAK256 SWAP3 PUSH0 JUMPDEST DUP2 DUP2 LT PUSH2 0x63A JUMPI POP SWAP2 PUSH1 0x1 SWAP7 SWAP6 SWAP5 SWAP3 SWAP2 DUP4 DUP9 SWAP6 SWAP4 LT PUSH2 0x622 JUMPI JUMPDEST POP POP POP DUP2 SHL ADD SWAP1 SSTORE PUSH2 0x5D9 JUMP JUMPDEST ADD MLOAD PUSH0 NOT PUSH1 0xF8 DUP5 PUSH1 0x3 SHL AND SHR NOT AND SWAP1 SSTORE DUP11 DUP1 DUP1 PUSH2 0x615 JUMP JUMPDEST SWAP3 SWAP4 PUSH1 0x20 PUSH1 0x1 DUP2 SWAP3 DUP8 DUP7 ADD MLOAD DUP2 SSTORE ADD SWAP6 ADD SWAP4 ADD PUSH2 0x5FB JUMP JUMPDEST DUP4 PUSH0 MSTORE PUSH1 0x20 PUSH0 KECCAK256 PUSH1 0x1F DUP5 ADD PUSH1 0x5 SHR DUP2 ADD SWAP2 PUSH1 0x20 DUP6 LT PUSH2 0x68D JUMPI JUMPDEST PUSH1 0x1F ADD PUSH1 0x5 SHR ADD SWAP1 JUMPDEST DUP2 DUP2 LT PUSH2 0x682 JUMPI POP PUSH2 0x5A9 JUMP JUMPDEST PUSH0 DUP2 SSTORE PUSH1 0x1 ADD PUSH2 0x675 JUMP JUMPDEST SWAP1 SWAP2 POP DUP2 SWAP1 PUSH2 0x66C JUMP JUMPDEST PUSH4 0x4E487B71 PUSH1 0xE0 SHL PUSH0 MSTORE PUSH1 0x41 PUSH1 0x4 MSTORE PUSH1 0x24 PUSH0 REVERT JUMPDEST ADD MLOAD SWAP1 POP DUP11 DUP1 PUSH2 0x56C JUMP JUMPDEST SWAP1 PUSH1 0x1F NOT DUP4 AND SWAP2 DUP5 PUSH0 MSTORE DUP2 PUSH0 KECCAK256 SWAP3 PUSH0 JUMPDEST DUP2 DUP2 LT PUSH2 0x704 JUMPI POP SWAP2 PUSH1 0x1 SWAP6 SWAP5 SWAP3 SWAP2 DUP4 DUP8 SWAP6 SWAP4 LT PUSH2 0x6EC JUMPI JUMPDEST POP POP POP DUP2 SHL ADD DUP2 SSTORE PUSH2 0x57F JUMP JUMPDEST ADD MLOAD PUSH0 NOT PUSH1 0xF8 DUP5 PUSH1 0x3 SHL AND SHR NOT AND SWAP1 SSTORE DUP11 DUP1 DUP1 PUSH2 0x6DF JUMP JUMPDEST SWAP3 SWAP4 PUSH1 0x20 PUSH1 0x1 DUP2 SWAP3 DUP8 DUP7 ADD MLOAD DUP2 SSTORE ADD SWAP6 ADD SWAP4 ADD PUSH2 0x6C6 JUMP JUMPDEST DUP4 PUSH0 MSTORE PUSH1 0x20 PUSH0 KECCAK256 PUSH1 0x1F DUP5 ADD PUSH1 0x5 SHR DUP2 ADD SWAP2 PUSH1 0x20 DUP6 LT PUSH2 0x757 JUMPI JUMPDEST PUSH1 0x1F ADD PUSH1 0x5 SHR ADD SWAP1 JUMPDEST DUP2 DUP2 LT PUSH2 0x74C JUMPI POP PUSH2 0x550 JUMP JUMPDEST PUSH0 DUP2 SSTORE PUSH1 0x1 ADD PUSH2 0x73F JUMP JUMPDEST SWAP1 SWAP2 POP DUP2 SWAP1 PUSH2 0x736 JUMP JUMPDEST ADD MLOAD SWAP1 POP DUP10 DUP1 PUSH2 0x500 JUMP JUMPDEST PUSH0 DUP6 DUP2 MSTORE DUP3 DUP2 KECCAK256 SWAP4 POP PUSH1 0x1F NOT DUP6 AND SWAP1 JUMPDEST DUP2 DUP2 LT PUSH2 0x7B7 JUMPI POP SWAP1 DUP5 PUSH1 0x1 SWAP6 SWAP5 SWAP4 SWAP3 LT PUSH2 0x79F JUMPI JUMPDEST POP POP POP DUP2 SHL ADD SWAP1 SSTORE PUSH2 0x514 JUMP JUMPDEST ADD MLOAD PUSH0 NOT PUSH1 0xF8 DUP5 PUSH1 0x3 SHL AND SHR NOT AND SWAP1 SSTORE DUP10 DUP1 DUP1 PUSH2 0x792 JUMP JUMPDEST SWAP3 SWAP4 PUSH1 0x20 PUSH1 0x1 DUP2 SWAP3 DUP8 DUP7 ADD MLOAD DUP2 SSTORE ADD SWAP6 ADD SWAP4 ADD PUSH2 0x77C JUMP JUMPDEST SWAP1 SWAP2 POP DUP4 PUSH0 MSTORE PUSH1 0x20 PUSH0 KECCAK256 PUSH1 0x1F DUP5 ADD PUSH1 0x5 SHR DUP2 ADD SWAP2 PUSH1 0x20 DUP6 LT PUSH2 0x815 JUMPI JUMPDEST SWAP1 PUSH1 0x1F DUP6 SWAP5 SWAP4 SWAP3 ADD PUSH1 0x5 SHR ADD SWAP1 JUMPDEST DUP2 DUP2 LT PUSH2 0x807 JUMPI POP PUSH2 0x4EA JUMP JUMPDEST PUSH0 DUP2 SSTORE DUP5 SWAP4 POP PUSH1 0x1 ADD PUSH2 0x7FA JUMP JUMPDEST SWAP1 SWAP2 POP DUP2 SWAP1 PUSH2 0x7EC JUMP JUMPDEST ADD MLOAD SWAP1 POP DUP12 DUP1 PUSH2 0x4AA JUMP JUMPDEST SWAP1 PUSH1 0x1F NOT DUP4 AND SWAP2 DUP5 PUSH0 MSTORE DUP2 PUSH0 KECCAK256 SWAP3 PUSH0 JUMPDEST DUP2 DUP2 LT PUSH2 0x879 JUMPI POP SWAP2 PUSH1 0x1 SWAP4 SWAP2 DUP6 PUSH1 0x2 SWAP9 SWAP8 SWAP7 SWAP5 LT PUSH2 0x861 JUMPI JUMPDEST POP POP POP DUP2 SHL ADD SWAP1 SSTORE PUSH2 0x4BE JUMP JUMPDEST ADD MLOAD PUSH0 NOT PUSH1 0xF8 DUP5 PUSH1 0x3 SHL AND SHR NOT AND SWAP1 SSTORE DUP12 DUP1 DUP1 PUSH2 0x854 JUMP JUMPDEST SWAP3 SWAP4 PUSH1 0x20 PUSH1 0x1 DUP2 SWAP3 DUP8 DUP7 ADD MLOAD DUP2 SSTORE ADD SWAP6 ADD SWAP4 ADD PUSH2 0x83A JUMP JUMPDEST DUP4 PUSH0 MSTORE PUSH1 0x20 PUSH0 KECCAK256 PUSH1 0x1F DUP5 ADD PUSH1 0x5 SHR DUP2 ADD SWAP2 PUSH1 0x20 DUP6 LT PUSH2 0x8CC JUMPI JUMPDEST PUSH1 0x1F ADD PUSH1 0x5 SHR ADD SWAP1 JUMPDEST DUP2 DUP2 LT PUSH2 0x8C1 JUMPI POP PUSH2 0x48D JUMP JUMPDEST PUSH0 DUP2 SSTORE PUSH1 0x1 ADD PUSH2 0x8B4 JUMP JUMPDEST SWAP1 SWAP2 POP DUP2 SWAP1 PUSH2 0x8AB JUMP JUMPDEST ADD MLOAD SWAP1 POP DUP10 DUP1 PUSH2 0x44C JUMP JUMPDEST PUSH0 DUP6 DUP2 MSTORE DUP3 DUP2 KECCAK256 SWAP4 POP PUSH1 0x1F NOT DUP6 AND SWAP1 JUMPDEST DUP2 DUP2 LT PUSH2 0x92C JUMPI POP SWAP1 DUP5 PUSH1 0x1 SWAP6 SWAP5 SWAP4 SWAP3 LT PUSH2 0x914 JUMPI JUMPDEST POP POP POP DUP2 SHL ADD DUP2 SSTORE PUSH2 0x460 JUMP JUMPDEST ADD MLOAD PUSH0 NOT PUSH1 0xF8 DUP5 PUSH1 0x3 SHL AND SHR NOT AND SWAP1 SSTORE DUP10 DUP1 DUP1 PUSH2 0x907 JUMP JUMPDEST SWAP3 SWAP4 PUSH1 0x20 PUSH1 0x1 DUP2 SWAP3 DUP8 DUP7 ADD MLOAD DUP2 SSTORE ADD SWAP6 ADD SWAP4 ADD PUSH2 0x8F1 JUMP JUMPDEST SWAP1 SWAP2 POP DUP4 PUSH0 MSTORE PUSH1 0x20 PUSH0 KECCAK256 PUSH1 0x1F DUP5 ADD PUSH1 0x5 SHR DUP2 ADD SWAP2 PUSH1 0x20 DUP6 LT PUSH2 0x98A JUMPI JUMPDEST SWAP1 PUSH1 0x1F DUP6 SWAP5 SWAP4 SWAP3 ADD PUSH1 0x5 SHR ADD SWAP1 JUMPDEST DUP2 DUP2 LT PUSH2 0x97C JUMPI POP PUSH2 0x436 JUMP JUMPDEST PUSH0 DUP2 SSTORE DUP5 SWAP4 POP PUSH1 0x1 ADD PUSH2 0x96F JUMP JUMPDEST SWAP1 SWAP2 POP DUP2 SWAP1 PUSH2 0x961 JUMP JUMPDEST CALLVALUE PUSH2 0x1BD JUMPI PUSH1 0xA0 CALLDATASIZE PUSH1 0x3 NOT ADD SLT PUSH2 0x1BD JUMPI PUSH1 0x4 CALLDATALOAD PUSH1 0x1 PUSH1 0x1 PUSH1 0x40 SHL SUB DUP2 GT PUSH2 0x1BD JUMPI PUSH2 0x9C4 SWAP1 CALLDATASIZE SWAP1 PUSH1 0x4 ADD PUSH2 0x2A96 JUMP JUMPDEST PUSH1 0x24 CALLDATALOAD PUSH1 0x1 PUSH1 0x1 PUSH1 0x40 SHL SUB DUP2 GT PUSH2 0x1BD JUMPI PUSH2 0x9E3 SWAP1 CALLDATASIZE SWAP1 PUSH1 0x4 ADD PUSH2 0x2A96 JUMP JUMPDEST PUSH1 0x44 CALLDATALOAD PUSH1 0x1 PUSH1 0x1 PUSH1 0x40 SHL SUB DUP2 GT PUSH2 0x1BD JUMPI PUSH2 0xA02 SWAP1 CALLDATASIZE SWAP1 PUSH1 0x4 ADD PUSH2 0x2A96 JUMP JUMPDEST SWAP1 PUSH1 0x64 CALLDATALOAD PUSH1 0x1 PUSH1 0x1 PUSH1 0x40 SHL SUB DUP2 GT PUSH2 0x1BD JUMPI PUSH2 0xA3E SWAP3 PUSH2 0xA29 PUSH2 0xA37 SWAP3 CALLDATASIZE SWAP1 PUSH1 0x4 ADD PUSH2 0x2A96 JUMP JUMPDEST PUSH2 0xA31 PUSH2 0x2B4D JUMP JUMPDEST SWAP2 PUSH2 0x30B1 JUMP JUMPDEST SWAP1 DUP4 PUSH2 0x3443 JUMP JUMPDEST PUSH1 0x2 SLOAD PUSH1 0x20 DUP3 ADD PUSH0 JUMPDEST DUP3 DUP2 LT PUSH2 0xA50 JUMPI STOP JUMPDEST DUP1 PUSH2 0xA5C PUSH1 0x1 SWAP3 PUSH2 0x3033 JUMP JUMPDEST POP PUSH1 0x40 MLOAD PUSH2 0xA72 DUP2 PUSH2 0x385 PUSH1 0x20 DUP3 ADD DUP1 SWAP6 PUSH2 0x30E1 JUMP JUMPDEST MLOAD SWAP1 KECCAK256 PUSH1 0x40 MLOAD PUSH1 0x20 DUP2 ADD SWAP1 PUSH2 0xA9F PUSH1 0x20 DUP3 DUP11 MLOAD DUP1 DUP11 DUP8 MCOPY DUP2 ADD PUSH0 DUP4 DUP3 ADD MSTORE SUB ADD PUSH1 0x1F NOT DUP2 ADD DUP4 MSTORE DUP3 PUSH2 0x2A75 JUMP JUMPDEST MLOAD SWAP1 KECCAK256 EQ PUSH2 0xAAE JUMPI JUMPDEST ADD PUSH2 0xA47 JUMP JUMPDEST PUSH1 0x3 PUSH2 0xAB9 DUP3 PUSH2 0x3033 JUMP JUMPDEST POP ADD DUP1 SLOAD PUSH2 0xFF00 NOT AND PUSH2 0x200 OR SWAP1 SSTORE PUSH2 0xAA8 JUMP JUMPDEST CALLVALUE PUSH2 0x1BD JUMPI PUSH1 0x20 CALLDATASIZE PUSH1 0x3 NOT ADD SLT PUSH2 0x1BD JUMPI PUSH1 0x4 CALLDATALOAD PUSH1 0x1 PUSH1 0x1 PUSH1 0x40 SHL SUB DUP2 GT PUSH2 0x1BD JUMPI PUSH2 0xB23 PUSH1 0x20 DUP1 PUSH2 0xB06 PUSH2 0xB37 SWAP5 CALLDATASIZE SWAP1 PUSH1 0x4 ADD PUSH2 0x2A96 JUMP JUMPDEST PUSH1 0x40 MLOAD SWAP3 DUP2 DUP5 SWAP3 MLOAD SWAP2 DUP3 SWAP2 ADD DUP4 MCOPY DUP2 ADD PUSH1 0x1 DUP2 MSTORE SUB ADD SWAP1 KECCAK256 PUSH2 0x2B9B JUMP JUMPDEST PUSH1 0x40 MLOAD SWAP2 DUP3 SWAP2 PUSH1 0x20 DUP4 MSTORE PUSH1 0x20 DUP4 ADD SWAP1 PUSH2 0x2AEB JUMP JUMPDEST SUB SWAP1 RETURN JUMPDEST CALLVALUE PUSH2 0x1BD JUMPI PUSH1 0x20 CALLDATASIZE PUSH1 0x3 NOT ADD SLT PUSH2 0x1BD JUMPI PUSH1 0x4 CALLDATALOAD PUSH1 0x1 PUSH1 0x1 PUSH1 0x40 SHL SUB DUP2 GT PUSH2 0x1BD JUMPI PUSH2 0xB7F PUSH2 0xB71 PUSH2 0xB37 SWAP3 CALLDATASIZE SWAP1 PUSH1 0x4 ADD PUSH2 0x2A96 JUMP JUMPDEST PUSH2 0xB79 PUSH2 0x3339 JUMP JUMPDEST POP PUSH2 0x3391 JUMP JUMPDEST PUSH1 0x40 MLOAD SWAP2 DUP3 SWAP2 DUP3 PUSH2 0x2E65 JUMP JUMPDEST CALLVALUE PUSH2 0x1BD JUMPI PUSH2 0xBA4 PUSH2 0xB9C CALLDATASIZE PUSH2 0x2F09 JUMP JUMPDEST DUP2 SWAP3 SWAP2 PUSH2 0x3B73 JUMP JUMPDEST PUSH1 0x2 SLOAD PUSH1 0x20 DUP3 ADD PUSH0 JUMPDEST DUP3 DUP2 LT PUSH2 0xBB6 JUMPI STOP JUMPDEST DUP1 PUSH2 0xBC2 PUSH1 0x1 SWAP3 PUSH2 0x3033 JUMP JUMPDEST POP PUSH1 0x40 MLOAD PUSH2 0xBD8 DUP2 PUSH2 0x385 PUSH1 0x20 DUP3 ADD DUP1 SWAP6 PUSH2 0x30E1 JUMP JUMPDEST MLOAD SWAP1 KECCAK256 PUSH1 0x40 MLOAD PUSH1 0x20 DUP2 ADD SWAP1 PUSH2 0xC05 PUSH1 0x20 DUP3 DUP11 MLOAD DUP1 DUP11 DUP8 MCOPY DUP2 ADD PUSH0 DUP4 DUP3 ADD MSTORE SUB ADD PUSH1 0x1F NOT DUP2 ADD DUP4 MSTORE DUP3 PUSH2 0x2A75 JUMP JUMPDEST MLOAD SWAP1 KECCAK256 EQ PUSH2 0xC14 JUMPI JUMPDEST ADD PUSH2 0xBAD JUMP JUMPDEST PUSH1 0x3 PUSH2 0xC1F DUP3 PUSH2 0x3033 JUMP JUMPDEST POP ADD DUP1 SLOAD PUSH2 0xFF00 NOT AND PUSH2 0x600 OR SWAP1 SSTORE PUSH2 0xC0E JUMP JUMPDEST CALLVALUE PUSH2 0x1BD JUMPI PUSH1 0x20 CALLDATASIZE PUSH1 0x3 NOT ADD SLT PUSH2 0x1BD JUMPI PUSH1 0x4 CALLDATALOAD PUSH1 0x1 PUSH1 0x1 PUSH1 0x40 SHL SUB DUP2 GT PUSH2 0x1BD JUMPI PUSH2 0xB7F PUSH2 0xC69 PUSH2 0xB37 SWAP3 CALLDATASIZE SWAP1 PUSH1 0x4 ADD PUSH2 0x2A96 JUMP JUMPDEST PUSH2 0x3391 JUMP JUMPDEST CALLVALUE PUSH2 0x1BD JUMPI PUSH2 0x1BB PUSH2 0xC7F CALLDATASIZE PUSH2 0x2E34 JUMP JUMPDEST SWAP1 PUSH2 0x32BE JUMP JUMPDEST CALLVALUE PUSH2 0x1BD JUMPI PUSH2 0xC9E PUSH2 0xC96 CALLDATASIZE PUSH2 0x2E34 JUMP JUMPDEST DUP2 SWAP3 SWAP2 PUSH2 0x32BE JUMP JUMPDEST PUSH1 0x2 SLOAD PUSH1 0x20 DUP3 ADD PUSH0 JUMPDEST DUP3 DUP2 LT PUSH2 0xCB0 JUMPI STOP JUMPDEST DUP1 PUSH2 0xCBC PUSH1 0x1 SWAP3 PUSH2 0x3033 JUMP JUMPDEST POP PUSH1 0x40 MLOAD PUSH2 0xCD2 DUP2 PUSH2 0x385 PUSH1 0x20 DUP3 ADD DUP1 SWAP6 PUSH2 0x30E1 JUMP JUMPDEST MLOAD SWAP1 KECCAK256 PUSH1 0x40 MLOAD PUSH1 0x20 DUP2 ADD SWAP1 PUSH2 0xCFF PUSH1 0x20 DUP3 DUP11 MLOAD DUP1 DUP11 DUP8 MCOPY DUP2 ADD PUSH0 DUP4 DUP3 ADD MSTORE SUB ADD PUSH1 0x1F NOT DUP2 ADD DUP4 MSTORE DUP3 PUSH2 0x2A75 JUMP JUMPDEST MLOAD SWAP1 KECCAK256 EQ PUSH2 0xD0E JUMPI JUMPDEST ADD PUSH2 0xCA7 JUMP JUMPDEST PUSH1 0x3 PUSH2 0xD19 DUP3 PUSH2 0x3033 JUMP JUMPDEST POP ADD DUP1 SLOAD PUSH2 0xFF00 NOT AND PUSH2 0x500 OR SWAP1 SSTORE PUSH2 0xD08 JUMP JUMPDEST CALLVALUE PUSH2 0x1BD JUMPI PUSH1 0x20 CALLDATASIZE PUSH1 0x3 NOT ADD SLT PUSH2 0x1BD JUMPI PUSH1 0x4 CALLDATALOAD PUSH1 0x1 PUSH1 0x1 PUSH1 0x40 SHL SUB DUP2 GT PUSH2 0x1BD JUMPI PUSH2 0xD5D SWAP1 CALLDATASIZE SWAP1 PUSH1 0x4 ADD PUSH2 0x2A96 JUMP JUMPDEST PUSH1 0x2 SLOAD PUSH1 0x20 DUP3 ADD SWAP2 PUSH0 DUP1 JUMPDEST DUP4 DUP2 LT PUSH2 0xE39 JUMPI POP PUSH1 0xFF PUSH2 0xD7C SWAP2 AND PUSH2 0x3162 JUMP JUMPDEST SWAP3 PUSH0 SWAP2 PUSH0 JUMPDEST DUP5 DUP2 LT PUSH2 0xD96 JUMPI PUSH1 0x40 MLOAD DUP1 PUSH2 0xB37 DUP9 DUP3 PUSH2 0x2C87 JUMP JUMPDEST PUSH1 0x2 PUSH2 0x385 PUSH2 0xDBB PUSH2 0xDA7 DUP5 PUSH2 0x3033 JUMP JUMPDEST POP PUSH1 0x40 MLOAD SWAP3 DUP4 SWAP2 PUSH1 0x20 DUP4 ADD SWAP6 DUP7 SWAP2 ADD PUSH2 0x30E1 JUMP JUMPDEST MLOAD SWAP1 KECCAK256 PUSH1 0x40 MLOAD PUSH1 0x20 DUP2 ADD SWAP1 PUSH2 0xDE8 PUSH1 0x20 DUP3 DUP8 MLOAD DUP1 DUP11 DUP8 MCOPY DUP2 ADD PUSH0 DUP4 DUP3 ADD MSTORE SUB ADD PUSH1 0x1F NOT DUP2 ADD DUP4 MSTORE DUP3 PUSH2 0x2A75 JUMP JUMPDEST MLOAD SWAP1 KECCAK256 EQ PUSH2 0xDF9 JUMPI JUMPDEST PUSH1 0x1 ADD PUSH2 0xD81 JUMP JUMPDEST SWAP3 PUSH2 0xE31 PUSH1 0x1 SWAP2 PUSH2 0xE2B PUSH2 0xE15 PUSH2 0xE0F DUP9 PUSH2 0x3033 JUMP JUMPDEST POP PUSH2 0x31FF JUMP JUMPDEST PUSH1 0xFF DUP4 AND SWAP1 PUSH2 0xE24 DUP3 DUP13 PUSH2 0x31DF JUMP JUMPDEST MSTORE DUP10 PUSH2 0x31DF JUMP JUMPDEST POP PUSH2 0x3276 JUMP JUMPDEST SWAP4 SWAP1 POP PUSH2 0xDF1 JUMP JUMPDEST PUSH1 0x2 PUSH2 0x385 PUSH2 0xE4A PUSH2 0xDA7 DUP5 PUSH2 0x3033 JUMP JUMPDEST MLOAD SWAP1 KECCAK256 PUSH1 0x40 MLOAD PUSH1 0x20 DUP2 ADD SWAP1 PUSH2 0xE77 PUSH1 0x20 DUP3 DUP9 MLOAD DUP1 DUP13 DUP8 MCOPY DUP2 ADD PUSH0 DUP4 DUP3 ADD MSTORE SUB ADD PUSH1 0x1F NOT DUP2 ADD DUP4 MSTORE DUP3 PUSH2 0x2A75 JUMP JUMPDEST MLOAD SWAP1 KECCAK256 EQ PUSH2 0xE88 JUMPI JUMPDEST PUSH1 0x1 ADD PUSH2 0xD68 JUMP JUMPDEST SWAP1 PUSH2 0xE94 PUSH1 0x1 SWAP2 PUSH2 0x3276 JUMP JUMPDEST SWAP2 SWAP1 POP PUSH2 0xE80 JUMP JUMPDEST CALLVALUE PUSH2 0x1BD JUMPI PUSH1 0x20 CALLDATASIZE PUSH1 0x3 NOT ADD SLT PUSH2 0x1BD JUMPI PUSH1 0x4 CALLDATALOAD PUSH1 0x1 PUSH1 0x1 PUSH1 0x40 SHL SUB DUP2 GT PUSH2 0x1BD JUMPI PUSH1 0x20 DUP1 PUSH2 0xED2 PUSH2 0xF27 SWAP4 CALLDATASIZE SWAP1 PUSH1 0x4 ADD PUSH2 0x2A96 JUMP JUMPDEST PUSH1 0x40 MLOAD SWAP3 DUP2 DUP5 SWAP3 MLOAD SWAP2 DUP3 SWAP2 ADD DUP4 MCOPY DUP2 ADD PUSH1 0x4 DUP2 MSTORE SUB ADD SWAP1 KECCAK256 PUSH2 0xB37 PUSH2 0xEF6 DUP3 PUSH2 0x2B9B JUMP JUMPDEST SWAP2 PUSH2 0xF35 PUSH2 0xF12 PUSH1 0x2 PUSH2 0xF0B PUSH1 0x1 DUP6 ADD PUSH2 0x2B9B JUMP JUMPDEST SWAP4 ADD PUSH2 0x2B9B JUMP JUMPDEST SWAP2 PUSH1 0x40 MLOAD SWAP6 DUP7 SWAP6 PUSH1 0x60 DUP8 MSTORE PUSH1 0x60 DUP8 ADD SWAP1 PUSH2 0x2AEB JUMP JUMPDEST SWAP1 DUP6 DUP3 SUB PUSH1 0x20 DUP8 ADD MSTORE PUSH2 0x2AEB JUMP JUMPDEST SWAP1 DUP4 DUP3 SUB PUSH1 0x40 DUP6 ADD MSTORE PUSH2 0x2AEB JUMP JUMPDEST CALLVALUE PUSH2 0x1BD JUMPI PUSH1 0x20 CALLDATASIZE PUSH1 0x3 NOT ADD SLT PUSH2 0x1BD JUMPI PUSH1 0x4 CALLDATALOAD PUSH1 0x1 PUSH1 0x1 PUSH1 0x40 SHL SUB DUP2 GT PUSH2 0x1BD JUMPI PUSH2 0xB23 PUSH2 0xF79 PUSH2 0xB37 SWAP3 CALLDATASIZE SWAP1 PUSH1 0x4 ADD PUSH2 0x2A96 JUMP JUMPDEST PUSH2 0x329B JUMP JUMPDEST CALLVALUE PUSH2 0x1BD JUMPI PUSH1 0x20 CALLDATASIZE PUSH1 0x3 NOT ADD SLT PUSH2 0x1BD JUMPI PUSH1 0x4 CALLDATALOAD PUSH1 0x1 PUSH1 0x1 PUSH1 0x40 SHL SUB DUP2 GT PUSH2 0x1BD JUMPI PUSH2 0xFAE SWAP1 CALLDATASIZE SWAP1 PUSH1 0x4 ADD PUSH2 0x2A96 JUMP JUMPDEST PUSH1 0x40 MLOAD PUSH2 0xFBA DUP2 PUSH2 0x29ED JUMP JUMPDEST PUSH1 0x60 DUP2 MSTORE PUSH1 0x20 DUP2 ADD PUSH1 0x60 SWAP1 MSTORE PUSH1 0x40 DUP2 ADD PUSH0 SWAP1 MSTORE PUSH1 0x60 ADD PUSH1 0x60 SWAP1 MSTORE PUSH1 0x40 MLOAD PUSH2 0xFE0 DUP2 PUSH2 0x2A23 JUMP JUMPDEST PUSH1 0x60 DUP2 MSTORE PUSH1 0x20 DUP2 ADD PUSH1 0x60 SWAP1 MSTORE PUSH1 0x40 ADD PUSH1 0x60 SWAP1 MSTORE PUSH1 0x40 MLOAD PUSH2 0xFFF DUP2 PUSH2 0x2A3E JUMP JUMPDEST PUSH1 0x60 DUP2 MSTORE PUSH1 0x20 ADD PUSH1 0x60 SWAP1 MSTORE PUSH1 0x40 MLOAD DUP2 MLOAD SWAP1 DUP1 PUSH1 0x20 DUP5 ADD SWAP3 DUP1 DUP5 DUP4 MCOPY DUP2 ADD PUSH1 0x3 DUP2 MSTORE SUB PUSH1 0x20 ADD SWAP1 KECCAK256 SWAP1 PUSH1 0x40 MLOAD DUP1 DUP5 MLOAD DUP1 DUP5 DUP4 MCOPY DUP2 ADD PUSH1 0x4 DUP2 MSTORE SUB PUSH1 0x20 ADD SWAP1 KECCAK256 SWAP3 PUSH1 0x40 MLOAD SWAP2 DUP3 SWAP2 MLOAD DUP1 SWAP2 DUP4 MCOPY DUP2 ADD PUSH1 0x5 DUP2 MSTORE SUB PUSH1 0x20 ADD SWAP1 KECCAK256 PUSH1 0x40 MLOAD SWAP2 PUSH2 0x1062 DUP4 PUSH2 0x29ED JUMP JUMPDEST PUSH2 0x106B DUP2 PUSH2 0x2B9B JUMP JUMPDEST DUP4 MSTORE PUSH2 0x1079 PUSH1 0x1 DUP3 ADD PUSH2 0x2B9B JUMP JUMPDEST SWAP4 PUSH1 0x20 DUP5 ADD SWAP5 DUP6 MSTORE PUSH1 0x2 DUP3 ADD SLOAD PUSH1 0xFF AND SWAP2 PUSH1 0x40 DUP6 ADD SWAP3 DUP4 MSTORE PUSH1 0x3 ADD PUSH2 0x109D SWAP1 PUSH2 0x2B9B JUMP JUMPDEST SWAP2 PUSH1 0x60 DUP6 ADD SWAP3 DUP4 MSTORE PUSH1 0x40 MLOAD SWAP2 PUSH2 0x10B2 DUP4 PUSH2 0x2A23 JUMP JUMPDEST PUSH2 0x10BB DUP2 PUSH2 0x2B9B JUMP JUMPDEST DUP4 MSTORE PUSH2 0x10C9 PUSH1 0x1 DUP3 ADD PUSH2 0x2B9B JUMP JUMPDEST SWAP1 PUSH1 0x20 DUP5 ADD SWAP2 DUP3 MSTORE PUSH1 0x2 ADD PUSH2 0x10DD SWAP1 PUSH2 0x2B9B JUMP JUMPDEST SWAP2 PUSH1 0x40 DUP5 ADD SWAP3 DUP4 MSTORE PUSH1 0x40 MLOAD SWAP6 PUSH2 0x10F2 DUP8 PUSH2 0x2A3E JUMP JUMPDEST PUSH2 0x10FB DUP2 PUSH2 0x2B9B JUMP JUMPDEST DUP8 MSTORE PUSH1 0x1 ADD PUSH2 0x1109 SWAP1 PUSH2 0x2B9B JUMP JUMPDEST SWAP5 PUSH1 0x20 DUP8 ADD SWAP6 DUP7 MSTORE PUSH1 0x40 MLOAD SWAP9 DUP10 SWAP9 PUSH1 0x60 DUP11 MSTORE MLOAD PUSH1 0x60 DUP11 ADD PUSH1 0x80 SWAP1 MSTORE PUSH1 0xE0 DUP11 ADD PUSH2 0x1131 SWAP2 PUSH2 0x2AEB JUMP JUMPDEST SWAP1 MLOAD DUP10 DUP3 SUB PUSH1 0x5F NOT ADD PUSH1 0x80 DUP12 ADD MSTORE PUSH2 0x1149 SWAP2 SWAP1 PUSH2 0x2AEB JUMP JUMPDEST SWAP2 MLOAD PUSH1 0xFF AND PUSH1 0xA0 DUP10 ADD MSTORE MLOAD DUP8 DUP3 SUB PUSH1 0x5F NOT ADD PUSH1 0xC0 DUP10 ADD MSTORE PUSH2 0x116A SWAP2 SWAP1 PUSH2 0x2AEB JUMP JUMPDEST SWAP3 DUP7 DUP5 SUB PUSH1 0x20 DUP9 ADD MSTORE MLOAD PUSH1 0x60 DUP5 MSTORE PUSH1 0x60 DUP5 ADD PUSH2 0x1185 SWAP2 PUSH2 0x2AEB JUMP JUMPDEST SWAP1 MLOAD SWAP1 DUP4 DUP2 SUB PUSH1 0x20 DUP6 ADD MSTORE PUSH2 0x1199 SWAP2 PUSH2 0x2AEB JUMP JUMPDEST SWAP1 MLOAD SWAP2 DUP1 DUP3 SUB SWAP1 PUSH1 0x40 ADD MSTORE PUSH2 0x11AD SWAP2 PUSH2 0x2AEB JUMP JUMPDEST SWAP2 DUP4 DUP4 SUB PUSH1 0x40 DUP6 ADD MSTORE MLOAD PUSH1 0x40 DUP4 MSTORE PUSH1 0x40 DUP4 ADD PUSH2 0x11C8 SWAP2 PUSH2 0x2AEB JUMP JUMPDEST SWAP1 MLOAD SWAP2 DUP1 DUP3 SUB SWAP1 PUSH1 0x20 ADD MSTORE PUSH2 0xB37 SWAP2 PUSH2 0x2AEB JUMP JUMPDEST CALLVALUE PUSH2 0x1BD JUMPI PUSH1 0x20 CALLDATASIZE PUSH1 0x3 NOT ADD SLT PUSH2 0x1BD JUMPI PUSH1 0x4 CALLDATALOAD PUSH1 0x1 PUSH1 0x1 PUSH1 0x40 SHL SUB DUP2 GT PUSH2 0x1BD JUMPI PUSH1 0x20 DUP1 PUSH2 0x1212 PUSH2 0x126F SWAP4 CALLDATASIZE SWAP1 PUSH1 0x4 ADD PUSH2 0x2A96 JUMP JUMPDEST PUSH1 0x40 MLOAD SWAP3 DUP2 DUP5 SWAP3 MLOAD SWAP2 DUP3 SWAP2 ADD DUP4 MCOPY DUP2 ADD PUSH1 0x3 DUP2 MSTORE SUB ADD SWAP1 KECCAK256 PUSH2 0xB37 PUSH2 0x1236 DUP3 PUSH2 0x2B9B JUMP JUMPDEST SWAP2 PUSH2 0x1243 PUSH1 0x1 DUP3 ADD PUSH2 0x2B9B JUMP JUMPDEST PUSH2 0x127D PUSH2 0x125A PUSH1 0x3 PUSH1 0xFF PUSH1 0x2 DUP7 ADD SLOAD AND SWAP5 ADD PUSH2 0x2B9B JUMP JUMPDEST SWAP2 PUSH1 0x40 MLOAD SWAP7 DUP8 SWAP7 PUSH1 0x80 DUP9 MSTORE PUSH1 0x80 DUP9 ADD SWAP1 PUSH2 0x2AEB JUMP JUMPDEST SWAP1 DUP7 DUP3 SUB PUSH1 0x20 DUP9 ADD MSTORE PUSH2 0x2AEB JUMP JUMPDEST SWAP2 PUSH1 0x40 DUP6 ADD MSTORE DUP4 DUP3 SUB PUSH1 0x60 DUP6 ADD MSTORE PUSH2 0x2AEB JUMP JUMPDEST CALLVALUE PUSH2 0x1BD JUMPI PUSH2 0x100 CALLDATASIZE PUSH1 0x3 NOT ADD SLT PUSH2 0x1BD JUMPI PUSH1 0x4 CALLDATALOAD PUSH1 0x1 PUSH1 0x1 PUSH1 0x40 SHL SUB DUP2 GT PUSH2 0x1BD JUMPI PUSH2 0x12C1 SWAP1 CALLDATASIZE SWAP1 PUSH1 0x4 ADD PUSH2 0x2A96 JUMP JUMPDEST PUSH1 0x24 CALLDATALOAD PUSH1 0x1 PUSH1 0x1 PUSH1 0x40 SHL SUB DUP2 GT PUSH2 0x1BD JUMPI PUSH2 0x12E0 SWAP1 CALLDATASIZE SWAP1 PUSH1 0x4 ADD PUSH2 0x2A96 JUMP JUMPDEST PUSH1 0x44 CALLDATALOAD PUSH1 0x1 PUSH1 0x1 PUSH1 0x40 SHL SUB DUP2 GT PUSH2 0x1BD JUMPI PUSH2 0x12FF SWAP1 CALLDATASIZE SWAP1 PUSH1 0x4 ADD PUSH2 0x2A96 JUMP JUMPDEST SWAP2 PUSH1 0x64 CALLDATALOAD PUSH1 0x1 PUSH1 0x1 PUSH1 0xA0 SHL SUB DUP2 AND DUP2 SUB PUSH2 0x1BD JUMPI PUSH1 0x84 CALLDATALOAD SWAP4 PUSH1 0xFF DUP6 AND DUP1 SWAP6 SUB PUSH2 0x1BD JUMPI PUSH1 0xA4 CALLDATALOAD PUSH1 0x1 PUSH1 0x1 PUSH1 0x40 SHL SUB DUP2 GT PUSH2 0x1BD JUMPI PUSH2 0x1341 SWAP1 CALLDATASIZE SWAP1 PUSH1 0x4 ADD PUSH2 0x2A96 JUMP JUMPDEST SWAP5 PUSH1 0xC4 CALLDATALOAD PUSH1 0x1 PUSH1 0x1 PUSH1 0x40 SHL SUB DUP2 GT PUSH2 0x1BD JUMPI PUSH2 0x1361 SWAP1 CALLDATASIZE SWAP1 PUSH1 0x4 ADD PUSH2 0x2D57 JUMP JUMPDEST SWAP3 PUSH1 0xE4 CALLDATALOAD SWAP1 PUSH1 0x1 PUSH1 0x1 PUSH1 0x40 SHL SUB DUP3 GT PUSH2 0x1BD JUMPI DUP4 PUSH2 0x1386 PUSH2 0x138C SWAP4 CALLDATASIZE SWAP1 PUSH1 0x4 ADD PUSH2 0x2DDA JUMP JUMPDEST SWAP8 PUSH2 0x30B1 JUMP JUMPDEST SWAP6 PUSH2 0x13DC DUP6 PUSH1 0x20 SWAP9 PUSH1 0x40 MLOAD SWAP1 PUSH2 0x13A2 DUP12 DUP4 PUSH2 0x2A75 JUMP JUMPDEST PUSH0 DUP3 MSTORE PUSH1 0x40 MLOAD PUSH2 0x13B2 DUP13 DUP3 PUSH2 0x2A75 JUMP JUMPDEST PUSH0 DUP2 MSTORE PUSH2 0x13BD PUSH2 0x3063 JUMP JUMPDEST POP PUSH1 0x40 MLOAD SWAP3 PUSH2 0x13CB DUP5 PUSH2 0x2A23 JUMP JUMPDEST DUP4 MSTORE DUP12 DUP4 ADD MSTORE PUSH0 PUSH1 0x40 DUP4 ADD MSTORE PUSH2 0x3C91 JUMP JUMPDEST PUSH1 0x40 MLOAD PUSH2 0x13E8 DUP2 PUSH2 0x29ED JUMP JUMPDEST DUP6 DUP2 MSTORE PUSH1 0x40 MLOAD PUSH2 0x13F8 DUP10 DUP3 PUSH2 0x2A75 JUMP JUMPDEST PUSH0 DUP2 MSTORE DUP9 DUP3 ADD SWAP1 DUP2 MSTORE PUSH1 0x40 DUP3 ADD SWAP1 DUP5 DUP3 MSTORE PUSH1 0x60 DUP4 ADD SWAP4 DUP5 MSTORE PUSH1 0x40 MLOAD DUP11 DUP2 DUP11 MLOAD DUP1 DUP4 DUP14 ADD DUP4 MCOPY DUP2 ADD PUSH1 0x3 DUP2 MSTORE SUB ADD SWAP1 KECCAK256 SWAP3 MLOAD DUP1 MLOAD SWAP1 PUSH1 0x1 PUSH1 0x1 PUSH1 0x40 SHL SUB DUP3 GT PUSH2 0x697 JUMPI DUP2 SWAP1 DUP13 PUSH2 0x1447 DUP8 SLOAD PUSH2 0x2B63 JUMP JUMPDEST PUSH1 0x1F DUP2 GT PUSH2 0x21EE JUMPI JUMPDEST POP POP DUP13 SWAP1 DUP14 PUSH1 0x1F DUP5 GT PUSH1 0x1 EQ PUSH2 0x218A JUMPI POP PUSH0 SWAP3 PUSH2 0x217F JUMPI JUMPDEST POP POP DUP2 PUSH1 0x1 SHL SWAP2 PUSH0 NOT SWAP1 PUSH1 0x3 SHL SHR NOT AND OR DUP4 SSTORE JUMPDEST MLOAD DUP1 MLOAD PUSH1 0x1 DUP5 ADD SWAP2 PUSH1 0x1 PUSH1 0x1 PUSH1 0x40 SHL SUB DUP3 GT PUSH2 0x697 JUMPI DUP12 PUSH2 0x149D DUP5 SLOAD PUSH2 0x2B63 JUMP JUMPDEST PUSH1 0x1F DUP2 GT PUSH2 0x213A JUMPI JUMPDEST POP POP DUP12 SWAP1 DUP13 PUSH1 0x1F DUP5 GT PUSH1 0x1 EQ PUSH2 0x20CF JUMPI POP SWAP2 DUP1 PUSH1 0xFF SWAP5 SWAP3 PUSH1 0x3 SWAP8 SWAP7 SWAP5 PUSH0 SWAP3 PUSH2 0x20C4 JUMPI JUMPDEST POP POP DUP2 PUSH1 0x1 SHL SWAP2 PUSH0 NOT SWAP1 DUP9 SHL SHR NOT AND OR SWAP1 SSTORE JUMPDEST MLOAD AND PUSH1 0xFF PUSH1 0x2 DUP4 ADD SWAP2 AND PUSH1 0xFF NOT DUP3 SLOAD AND OR SWAP1 SSTORE ADD SWAP1 MLOAD DUP1 MLOAD SWAP1 PUSH1 0x1 PUSH1 0x1 PUSH1 0x40 SHL SUB DUP3 GT PUSH2 0x697 JUMPI DUP2 SWAP1 PUSH2 0x150F DUP5 SLOAD PUSH2 0x2B63 JUMP JUMPDEST PUSH1 0x1F DUP2 GT PUSH2 0x2076 JUMPI JUMPDEST POP DUP10 SWAP1 PUSH1 0x1F DUP4 GT PUSH1 0x1 EQ PUSH2 0x2013 JUMPI PUSH0 SWAP3 PUSH2 0x2008 JUMPI JUMPDEST POP POP DUP2 PUSH1 0x1 SHL SWAP2 PUSH0 NOT SWAP1 PUSH1 0x3 SHL SHR NOT AND OR SWAP1 SSTORE JUMPDEST PUSH1 0x40 MLOAD SWAP1 PUSH2 0x154E DUP3 PUSH2 0x2A08 JUMP JUMPDEST DUP5 DUP3 MSTORE PUSH1 0x40 MLOAD SWAP3 PUSH2 0x155F DUP9 DUP6 PUSH2 0x2A75 JUMP JUMPDEST PUSH0 DUP5 MSTORE DUP8 DUP4 ADD SWAP4 DUP5 MSTORE PUSH1 0x40 DUP4 ADD MSTORE PUSH1 0x60 DUP3 ADD MSTORE PUSH0 PUSH1 0x80 DUP3 ADD MSTORE PUSH1 0x40 MLOAD PUSH2 0x1585 DUP8 DUP3 PUSH2 0x2A75 JUMP JUMPDEST PUSH0 DUP2 MSTORE PUSH1 0xA0 DUP3 ADD MSTORE PUSH0 PUSH1 0xC0 DUP3 ADD MSTORE PUSH1 0x2 SLOAD PUSH9 0x10000000000000000 DUP2 LT ISZERO PUSH2 0x697 JUMPI DUP1 PUSH1 0x1 PUSH2 0x15B7 SWAP3 ADD PUSH1 0x2 SSTORE PUSH2 0x3033 JUMP JUMPDEST SWAP3 SWAP1 SWAP3 PUSH2 0x1FF5 JUMPI DUP2 MLOAD DUP1 MLOAD SWAP1 PUSH1 0x1 PUSH1 0x1 PUSH1 0x40 SHL SUB DUP3 GT PUSH2 0x697 JUMPI DUP2 SWAP1 PUSH2 0x15DD DUP7 SLOAD PUSH2 0x2B63 JUMP JUMPDEST PUSH1 0x1F DUP2 GT PUSH2 0x1FA7 JUMPI JUMPDEST POP DUP10 SWAP1 PUSH1 0x1F DUP4 GT PUSH1 0x1 EQ PUSH2 0x1F44 JUMPI PUSH0 SWAP3 PUSH2 0x1F39 JUMPI JUMPDEST POP POP DUP2 PUSH1 0x1 SHL SWAP2 PUSH0 NOT SWAP1 PUSH1 0x3 SHL SHR NOT AND OR DUP4 SSTORE JUMPDEST MLOAD DUP1 MLOAD SWAP1 PUSH1 0x1 PUSH1 0x1 PUSH1 0x40 SHL SUB DUP3 GT PUSH2 0x697 JUMPI DUP2 SWAP1 PUSH2 0x1630 PUSH1 0x1 DUP7 ADD SLOAD PUSH2 0x2B63 JUMP JUMPDEST PUSH1 0x1F DUP2 GT PUSH2 0x1EE8 JUMPI JUMPDEST POP DUP9 SWAP1 PUSH1 0x1F DUP4 GT PUSH1 0x1 EQ PUSH2 0x1E7E JUMPI PUSH0 SWAP3 PUSH2 0x1E73 JUMPI JUMPDEST POP POP DUP2 PUSH1 0x1 SHL SWAP2 PUSH0 NOT SWAP1 PUSH1 0x3 SHL SHR NOT AND OR PUSH1 0x1 DUP4 ADD SSTORE JUMPDEST PUSH1 0x2 DUP3 ADD PUSH1 0x40 DUP3 ADD MLOAD DUP1 MLOAD SWAP1 PUSH1 0x1 PUSH1 0x1 PUSH1 0x40 SHL SUB DUP3 GT PUSH2 0x697 JUMPI DUP2 SWAP1 PUSH2 0x168B DUP5 SLOAD PUSH2 0x2B63 JUMP JUMPDEST PUSH1 0x1F DUP2 GT PUSH2 0x1E25 JUMPI JUMPDEST POP DUP10 SWAP1 PUSH1 0x1F DUP4 GT PUSH1 0x1 EQ PUSH2 0x1DC2 JUMPI PUSH0 SWAP3 PUSH2 0x1DB7 JUMPI JUMPDEST POP POP DUP2 PUSH1 0x1 SHL SWAP2 PUSH0 NOT SWAP1 PUSH1 0x3 SHL SHR NOT AND OR SWAP1 SSTORE JUMPDEST PUSH1 0x3 DUP3 ADD PUSH1 0xFF DUP1 PUSH1 0x60 DUP5 ADD MLOAD AND AND PUSH1 0xFF NOT DUP3 SLOAD AND OR DUP2 SSTORE PUSH1 0x80 DUP3 ADD MLOAD PUSH1 0x7 DUP2 LT ISZERO PUSH2 0x1DA3 JUMPI PUSH2 0xFF00 DUP3 SLOAD SWAP2 PUSH1 0x8 SHL AND SWAP1 PUSH2 0xFF00 NOT AND OR SWAP1 SSTORE PUSH1 0x4 DUP3 ADD PUSH1 0xA0 DUP3 ADD MLOAD DUP1 MLOAD SWAP1 PUSH1 0x1 PUSH1 0x1 PUSH1 0x40 SHL SUB DUP3 GT PUSH2 0x697 JUMPI PUSH2 0x1719 DUP4 SLOAD PUSH2 0x2B63 JUMP JUMPDEST PUSH1 0x1F DUP2 GT PUSH2 0x1D60 JUMPI JUMPDEST POP DUP9 SWAP1 PUSH1 0x1F DUP4 GT PUSH1 0x1 EQ PUSH2 0x1CF7 JUMPI SWAP2 DUP1 PUSH1 0xC0 SWAP5 SWAP3 PUSH1 0x5 SWAP7 SWAP5 PUSH0 SWAP3 PUSH2 0x1CEC JUMPI JUMPDEST POP POP DUP2 PUSH1 0x1 SHL SWAP2 PUSH0 NOT SWAP1 PUSH1 0x3 SHL SHR NOT AND OR SWAP1 SSTORE JUMPDEST ADD MLOAD SWAP2 ADD SSTORE PUSH1 0x40 MLOAD DUP5 DUP2 DUP5 MLOAD DUP1 DUP4 DUP8 ADD DUP4 MCOPY DUP2 ADD PUSH1 0x4 DUP2 MSTORE SUB ADD SWAP1 KECCAK256 DUP2 MLOAD DUP1 MLOAD SWAP1 PUSH1 0x1 PUSH1 0x1 PUSH1 0x40 SHL SUB DUP3 GT PUSH2 0x697 JUMPI DUP2 SWAP1 PUSH2 0x1790 DUP5 SLOAD PUSH2 0x2B63 JUMP JUMPDEST PUSH1 0x1F DUP2 GT PUSH2 0x1C9E JUMPI JUMPDEST POP DUP8 SWAP1 PUSH1 0x1F DUP4 GT PUSH1 0x1 EQ PUSH2 0x1C3B JUMPI PUSH0 SWAP3 PUSH2 0x1C30 JUMPI JUMPDEST POP POP DUP2 PUSH1 0x1 SHL SWAP2 PUSH0 NOT SWAP1 PUSH1 0x3 SHL SHR NOT AND OR DUP2 SSTORE JUMPDEST PUSH1 0x1 DUP2 ADD DUP6 DUP4 ADD MLOAD DUP1 MLOAD SWAP1 PUSH1 0x1 PUSH1 0x1 PUSH1 0x40 SHL SUB DUP3 GT PUSH2 0x697 JUMPI PUSH2 0x17E5 DUP4 SLOAD PUSH2 0x2B63 JUMP JUMPDEST PUSH1 0x1F DUP2 GT PUSH2 0x1BED JUMPI JUMPDEST POP DUP8 SWAP1 PUSH1 0x1F DUP4 GT PUSH1 0x1 EQ PUSH2 0x1B84 JUMPI SWAP2 DUP1 PUSH1 0x2 SWAP5 SWAP3 PUSH1 0x40 SWAP7 SWAP5 PUSH0 SWAP3 PUSH2 0x1B79 JUMPI JUMPDEST POP POP DUP2 PUSH1 0x1 SHL SWAP2 PUSH0 NOT SWAP1 PUSH1 0x3 SHL SHR NOT AND OR SWAP1 SSTORE JUMPDEST ADD SWAP2 ADD MLOAD SWAP2 DUP3 MLOAD SWAP2 PUSH1 0x1 PUSH1 0x1 PUSH1 0x40 SHL SUB DUP4 GT PUSH2 0x697 JUMPI DUP6 SWAP3 PUSH2 0x1843 DUP3 SLOAD PUSH2 0x2B63 JUMP JUMPDEST SWAP5 PUSH1 0x1F DUP7 GT PUSH2 0x1B22 JUMPI JUMPDEST DUP5 SWAP6 POP DUP5 SWAP1 PUSH1 0x1F DUP4 GT PUSH1 0x1 EQ PUSH2 0x1ABB JUMPI PUSH0 SWAP2 SWAP1 DUP4 PUSH2 0x1AB0 JUMPI JUMPDEST POP POP DUP2 PUSH1 0x1 SHL SWAP2 PUSH0 NOT SWAP1 PUSH1 0x3 SHL SHR NOT AND OR SWAP1 SSTORE JUMPDEST PUSH1 0x40 MLOAD SWAP3 DUP2 DUP5 SWAP3 MLOAD SWAP2 DUP3 SWAP2 ADD DUP4 MCOPY DUP2 ADD PUSH1 0x5 DUP2 MSTORE SUB ADD SWAP1 KECCAK256 DUP2 MLOAD SWAP1 DUP2 MLOAD PUSH1 0x1 PUSH1 0x1 PUSH1 0x40 SHL SUB DUP2 GT PUSH2 0x697 JUMPI DUP5 SWAP3 PUSH2 0x18B1 DUP4 SLOAD PUSH2 0x2B63 JUMP JUMPDEST PUSH1 0x1F DUP2 GT PUSH2 0x1A5E JUMPI JUMPDEST POP DUP4 SWAP1 PUSH1 0x1F DUP4 GT PUSH1 0x1 EQ PUSH2 0x19F8 JUMPI PUSH1 0x1 SWAP4 SWAP3 SWAP2 PUSH0 SWAP2 DUP4 PUSH2 0x19ED JUMPI JUMPDEST POP POP PUSH0 NOT PUSH1 0x3 DUP4 SWAP1 SHL SHR NOT AND SWAP1 DUP4 SHL OR DUP2 SSTORE JUMPDEST ADD SWAP2 ADD MLOAD SWAP2 DUP3 MLOAD SWAP1 PUSH1 0x1 PUSH1 0x1 PUSH1 0x40 SHL SUB DUP3 GT PUSH2 0x697 JUMPI PUSH2 0x1908 DUP4 SLOAD PUSH2 0x2B63 JUMP JUMPDEST PUSH1 0x1F DUP2 GT PUSH2 0x19AA JUMPI JUMPDEST POP DUP1 PUSH1 0x1F DUP4 GT PUSH1 0x1 EQ PUSH2 0x194B JUMPI POP DUP2 SWAP3 SWAP4 PUSH0 SWAP3 PUSH2 0x1940 JUMPI JUMPDEST POP POP PUSH0 NOT PUSH1 0x3 DUP4 SWAP1 SHL SHR NOT AND PUSH1 0x1 SWAP2 SWAP1 SWAP2 SHL OR SWAP1 SSTORE STOP JUMPDEST ADD MLOAD SWAP1 POP DUP4 DUP1 PUSH2 0x1929 JUMP JUMPDEST SWAP1 PUSH1 0x1F NOT DUP4 AND SWAP5 DUP5 PUSH0 MSTORE DUP3 PUSH0 KECCAK256 SWAP3 PUSH0 SWAP1 JUMPDEST DUP8 DUP3 LT PUSH2 0x1992 JUMPI POP POP DUP4 PUSH1 0x1 SWAP6 SWAP7 LT PUSH2 0x197A JUMPI JUMPDEST POP POP POP DUP2 SHL ADD SWAP1 SSTORE STOP JUMPDEST ADD MLOAD PUSH0 NOT PUSH1 0xF8 DUP5 PUSH1 0x3 SHL AND SHR NOT AND SWAP1 SSTORE DUP4 DUP1 DUP1 PUSH2 0x1970 JUMP JUMPDEST DUP1 PUSH1 0x1 DUP6 SWAP7 DUP3 SWAP5 SWAP7 DUP7 ADD MLOAD DUP2 SSTORE ADD SWAP6 ADD SWAP4 ADD SWAP1 PUSH2 0x195C JUMP JUMPDEST DUP4 PUSH0 MSTORE DUP2 PUSH0 KECCAK256 PUSH1 0x1F DUP5 ADD PUSH1 0x5 SHR DUP2 ADD SWAP2 DUP4 DUP6 LT PUSH2 0x19E3 JUMPI JUMPDEST PUSH1 0x1F ADD PUSH1 0x5 SHR ADD SWAP1 JUMPDEST DUP2 DUP2 LT PUSH2 0x19D8 JUMPI POP PUSH2 0x1911 JUMP JUMPDEST PUSH0 DUP2 SSTORE PUSH1 0x1 ADD PUSH2 0x19CB JUMP JUMPDEST SWAP1 SWAP2 POP DUP2 SWAP1 PUSH2 0x19C2 JUMP JUMPDEST ADD MLOAD SWAP1 POP DUP8 DUP1 PUSH2 0x18D5 JUMP JUMPDEST SWAP1 PUSH1 0x1F NOT DUP4 AND SWAP2 DUP5 PUSH0 MSTORE DUP6 PUSH0 KECCAK256 SWAP3 PUSH0 JUMPDEST DUP8 DUP3 DUP3 LT PUSH2 0x1A48 JUMPI POP POP SWAP2 PUSH1 0x1 SWAP6 SWAP5 SWAP3 SWAP2 DUP4 DUP8 SWAP6 SWAP4 LT PUSH2 0x1A30 JUMPI JUMPDEST POP POP POP DUP2 SHL ADD DUP2 SSTORE PUSH2 0x18E8 JUMP JUMPDEST ADD MLOAD PUSH0 NOT PUSH1 0xF8 DUP5 PUSH1 0x3 SHL AND SHR NOT AND SWAP1 SSTORE DUP8 DUP1 DUP1 PUSH2 0x1A23 JUMP JUMPDEST PUSH1 0x1 DUP6 SWAP7 DUP3 SWAP4 SWAP7 DUP7 ADD MLOAD DUP2 SSTORE ADD SWAP6 ADD SWAP4 ADD PUSH2 0x1A08 JUMP JUMPDEST SWAP1 SWAP2 SWAP3 DUP1 SWAP5 POP PUSH0 MSTORE DUP6 PUSH0 KECCAK256 PUSH1 0x1F DUP5 ADD PUSH1 0x5 SHR DUP2 ADD SWAP2 DUP8 DUP6 LT PUSH2 0x1AA6 JUMPI JUMPDEST SWAP1 PUSH1 0x1F DUP9 SWAP7 SWAP6 SWAP5 SWAP4 SWAP3 ADD PUSH1 0x5 SHR ADD SWAP1 JUMPDEST DUP2 DUP2 LT PUSH2 0x1A98 JUMPI POP PUSH2 0x18BA JUMP JUMPDEST PUSH0 DUP2 SSTORE DUP8 SWAP6 POP PUSH1 0x1 ADD PUSH2 0x1A8B JUMP JUMPDEST SWAP1 SWAP2 POP DUP2 SWAP1 PUSH2 0x1A7B JUMP JUMPDEST ADD MLOAD SWAP1 POP DUP9 DUP1 PUSH2 0x1866 JUMP JUMPDEST PUSH1 0x1F SWAP6 SWAP5 SWAP4 SWAP3 SWAP2 SWAP6 NOT DUP3 AND SWAP6 DUP4 PUSH0 MSTORE DUP6 PUSH0 KECCAK256 SWAP2 PUSH0 JUMPDEST DUP9 DUP2 LT PUSH2 0x1B0A JUMPI POP DUP4 PUSH1 0x1 SWAP6 SWAP7 SWAP8 SWAP9 LT PUSH2 0x1AF2 JUMPI JUMPDEST POP POP POP DUP2 SHL ADD SWAP1 SSTORE PUSH2 0x187A JUMP JUMPDEST ADD MLOAD PUSH0 NOT PUSH1 0xF8 DUP5 PUSH1 0x3 SHL AND SHR NOT AND SWAP1 SSTORE DUP9 DUP1 DUP1 PUSH2 0x1AE5 JUMP JUMPDEST DUP3 DUP3 ADD MLOAD DUP5 SSTORE DUP10 SWAP8 PUSH1 0x1 SWAP1 SWAP5 ADD SWAP4 SWAP3 DUP4 ADD SWAP3 ADD PUSH2 0x1AD0 JUMP JUMPDEST SWAP2 DUP1 SWAP5 POP PUSH0 SWAP6 SWAP2 SWAP4 SWAP6 MSTORE DUP7 PUSH0 KECCAK256 PUSH1 0x1F DUP5 ADD PUSH1 0x5 SHR DUP2 ADD SWAP2 DUP9 DUP6 LT PUSH2 0x1B6F JUMPI JUMPDEST SWAP1 PUSH1 0x1F DUP10 SWAP7 SWAP5 SWAP8 SWAP6 SWAP4 SWAP3 ADD PUSH1 0x5 SHR ADD SWAP1 JUMPDEST DUP2 DUP2 LT PUSH2 0x1B61 JUMPI POP POP DUP5 PUSH2 0x184D JUMP JUMPDEST PUSH0 DUP2 SSTORE DUP9 SWAP6 POP PUSH1 0x1 ADD PUSH2 0x1B52 JUMP JUMPDEST SWAP1 SWAP2 POP DUP2 SWAP1 PUSH2 0x1B41 JUMP JUMPDEST ADD MLOAD SWAP1 POP DUP11 DUP1 PUSH2 0x180D JUMP JUMPDEST SWAP1 PUSH1 0x1F NOT DUP4 AND SWAP2 DUP5 PUSH0 MSTORE DUP10 PUSH0 KECCAK256 SWAP3 PUSH0 JUMPDEST DUP12 DUP3 DUP3 LT PUSH2 0x1BD7 JUMPI POP POP SWAP3 PUSH1 0x1 SWAP3 DUP6 SWAP3 PUSH1 0x40 SWAP9 SWAP7 PUSH1 0x2 SWAP9 SWAP7 LT PUSH2 0x1BBF JUMPI JUMPDEST POP POP POP DUP2 SHL ADD SWAP1 SSTORE PUSH2 0x1821 JUMP JUMPDEST ADD MLOAD PUSH0 NOT PUSH1 0xF8 DUP5 PUSH1 0x3 SHL AND SHR NOT AND SWAP1 SSTORE DUP11 DUP1 DUP1 PUSH2 0x1BB2 JUMP JUMPDEST PUSH1 0x1 DUP6 SWAP7 DUP3 SWAP4 SWAP7 DUP7 ADD MLOAD DUP2 SSTORE ADD SWAP6 ADD SWAP4 ADD PUSH2 0x1B94 JUMP JUMPDEST DUP4 PUSH0 MSTORE DUP9 PUSH0 KECCAK256 PUSH1 0x1F DUP5 ADD PUSH1 0x5 SHR DUP2 ADD SWAP2 DUP11 DUP6 LT PUSH2 0x1C26 JUMPI JUMPDEST PUSH1 0x1F ADD PUSH1 0x5 SHR ADD SWAP1 JUMPDEST DUP2 DUP2 LT PUSH2 0x1C1B JUMPI POP PUSH2 0x17EE JUMP JUMPDEST PUSH0 DUP2 SSTORE PUSH1 0x1 ADD PUSH2 0x1C0E JUMP JUMPDEST SWAP1 SWAP2 POP DUP2 SWAP1 PUSH2 0x1C05 JUMP JUMPDEST ADD MLOAD SWAP1 POP DUP8 DUP1 PUSH2 0x17AE JUMP JUMPDEST PUSH0 DUP6 DUP2 MSTORE DUP10 DUP2 KECCAK256 SWAP4 POP PUSH1 0x1F NOT DUP6 AND SWAP1 JUMPDEST DUP11 DUP3 DUP3 LT PUSH2 0x1C88 JUMPI POP POP SWAP1 DUP5 PUSH1 0x1 SWAP6 SWAP5 SWAP4 SWAP3 LT PUSH2 0x1C70 JUMPI JUMPDEST POP POP POP DUP2 SHL ADD DUP2 SSTORE PUSH2 0x17C2 JUMP JUMPDEST ADD MLOAD PUSH0 NOT PUSH1 0xF8 DUP5 PUSH1 0x3 SHL AND SHR NOT AND SWAP1 SSTORE DUP8 DUP1 DUP1 PUSH2 0x1C63 JUMP JUMPDEST PUSH1 0x1 DUP6 SWAP7 DUP3 SWAP4 SWAP7 DUP7 ADD MLOAD DUP2 SSTORE ADD SWAP6 ADD SWAP4 ADD PUSH2 0x1C4B JUMP JUMPDEST SWAP1 SWAP2 POP DUP4 PUSH0 MSTORE DUP8 PUSH0 KECCAK256 PUSH1 0x1F DUP5 ADD PUSH1 0x5 SHR DUP2 ADD SWAP2 DUP10 DUP6 LT PUSH2 0x1CE2 JUMPI JUMPDEST SWAP1 PUSH1 0x1F DUP6 SWAP5 SWAP4 SWAP3 ADD PUSH1 0x5 SHR ADD SWAP1 JUMPDEST DUP2 DUP2 LT PUSH2 0x1CD4 JUMPI POP PUSH2 0x1799 JUMP JUMPDEST PUSH0 DUP2 SSTORE DUP5 SWAP4 POP PUSH1 0x1 ADD PUSH2 0x1CC7 JUMP JUMPDEST SWAP1 SWAP2 POP DUP2 SWAP1 PUSH2 0x1CB9 JUMP JUMPDEST ADD MLOAD SWAP1 POP DUP12 DUP1 PUSH2 0x1741 JUMP JUMPDEST SWAP1 PUSH1 0x1F NOT DUP4 AND SWAP2 DUP5 PUSH0 MSTORE DUP11 PUSH0 KECCAK256 SWAP3 PUSH0 JUMPDEST DUP13 DUP3 DUP3 LT PUSH2 0x1D4A JUMPI POP POP SWAP3 PUSH1 0x1 SWAP3 DUP6 SWAP3 PUSH1 0x5 SWAP9 SWAP7 PUSH1 0xC0 SWAP9 SWAP7 LT PUSH2 0x1D32 JUMPI JUMPDEST POP POP POP DUP2 SHL ADD SWAP1 SSTORE PUSH2 0x1755 JUMP JUMPDEST ADD MLOAD PUSH0 NOT PUSH1 0xF8 DUP5 PUSH1 0x3 SHL AND SHR NOT AND SWAP1 SSTORE DUP12 DUP1 DUP1 PUSH2 0x1D25 JUMP JUMPDEST PUSH1 0x1 DUP6 SWAP7 DUP3 SWAP4 SWAP7 DUP7 ADD MLOAD DUP2 SSTORE ADD SWAP6 ADD SWAP4 ADD PUSH2 0x1D07 JUMP JUMPDEST DUP4 PUSH0 MSTORE DUP10 PUSH0 KECCAK256 PUSH1 0x1F DUP5 ADD PUSH1 0x5 SHR DUP2 ADD SWAP2 DUP12 DUP6 LT PUSH2 0x1D99 JUMPI JUMPDEST PUSH1 0x1F ADD PUSH1 0x5 SHR ADD SWAP1 JUMPDEST DUP2 DUP2 LT PUSH2 0x1D8E JUMPI POP PUSH2 0x1722 JUMP JUMPDEST PUSH0 DUP2 SSTORE PUSH1 0x1 ADD PUSH2 0x1D81 JUMP JUMPDEST SWAP1 SWAP2 POP DUP2 SWAP1 PUSH2 0x1D78 JUMP JUMPDEST PUSH4 0x4E487B71 PUSH1 0xE0 SHL PUSH0 MSTORE PUSH1 0x21 PUSH1 0x4 MSTORE PUSH1 0x24 PUSH0 REVERT JUMPDEST ADD MLOAD SWAP1 POP DUP10 DUP1 PUSH2 0x16A9 JUMP JUMPDEST PUSH0 DUP6 DUP2 MSTORE DUP12 DUP2 KECCAK256 SWAP4 POP PUSH1 0x1F NOT DUP6 AND SWAP1 JUMPDEST DUP13 DUP3 DUP3 LT PUSH2 0x1E0F JUMPI POP POP SWAP1 DUP5 PUSH1 0x1 SWAP6 SWAP5 SWAP4 SWAP3 LT PUSH2 0x1DF7 JUMPI JUMPDEST POP POP POP DUP2 SHL ADD SWAP1 SSTORE PUSH2 0x16BD JUMP JUMPDEST ADD MLOAD PUSH0 NOT PUSH1 0xF8 DUP5 PUSH1 0x3 SHL AND SHR NOT AND SWAP1 SSTORE DUP10 DUP1 DUP1 PUSH2 0x1DEA JUMP JUMPDEST PUSH1 0x1 DUP6 SWAP7 DUP3 SWAP4 SWAP7 DUP7 ADD MLOAD DUP2 SSTORE ADD SWAP6 ADD SWAP4 ADD PUSH2 0x1DD2 JUMP JUMPDEST SWAP1 SWAP2 POP DUP4 PUSH0 MSTORE DUP10 PUSH0 KECCAK256 PUSH1 0x1F DUP5 ADD PUSH1 0x5 SHR DUP2 ADD SWAP2 DUP12 DUP6 LT PUSH2 0x1E69 JUMPI JUMPDEST SWAP1 PUSH1 0x1F DUP6 SWAP5 SWAP4 SWAP3 ADD PUSH1 0x5 SHR ADD SWAP1 JUMPDEST DUP2 DUP2 LT PUSH2 0x1E5B JUMPI POP PUSH2 0x1694 JUMP JUMPDEST PUSH0 DUP2 SSTORE DUP5 SWAP4 POP PUSH1 0x1 ADD PUSH2 0x1E4E JUMP JUMPDEST SWAP1 SWAP2 POP DUP2 SWAP1 PUSH2 0x1E40 JUMP JUMPDEST ADD MLOAD SWAP1 POP DUP9 DUP1 PUSH2 0x164E JUMP JUMPDEST PUSH1 0x1 DUP7 ADD PUSH0 SWAP1 DUP2 MSTORE DUP11 DUP2 KECCAK256 SWAP4 POP PUSH1 0x1F NOT DUP6 AND SWAP1 JUMPDEST DUP12 DUP3 DUP3 LT PUSH2 0x1ED2 JUMPI POP POP SWAP1 DUP5 PUSH1 0x1 SWAP6 SWAP5 SWAP4 SWAP3 LT PUSH2 0x1EBA JUMPI JUMPDEST POP POP POP DUP2 SHL ADD PUSH1 0x1 DUP4 ADD SSTORE PUSH2 0x1665 JUMP JUMPDEST ADD MLOAD PUSH0 NOT PUSH1 0xF8 DUP5 PUSH1 0x3 SHL AND SHR NOT AND SWAP1 SSTORE DUP9 DUP1 DUP1 PUSH2 0x1EAA JUMP JUMPDEST PUSH1 0x1 DUP6 SWAP7 DUP3 SWAP4 SWAP7 DUP7 ADD MLOAD DUP2 SSTORE ADD SWAP6 ADD SWAP4 ADD PUSH2 0x1E92 JUMP JUMPDEST SWAP1 SWAP2 POP PUSH1 0x1 DUP6 ADD PUSH0 MSTORE DUP9 PUSH0 KECCAK256 PUSH1 0x1F DUP5 ADD PUSH1 0x5 SHR DUP2 ADD SWAP2 DUP11 DUP6 LT PUSH2 0x1F2F JUMPI JUMPDEST SWAP1 PUSH1 0x1F DUP6 SWAP5 SWAP4 SWAP3 ADD PUSH1 0x5 SHR ADD SWAP1 JUMPDEST DUP2 DUP2 LT PUSH2 0x1F21 JUMPI POP PUSH2 0x1639 JUMP JUMPDEST PUSH0 DUP2 SSTORE DUP5 SWAP4 POP PUSH1 0x1 ADD PUSH2 0x1F14 JUMP JUMPDEST SWAP1 SWAP2 POP DUP2 SWAP1 PUSH2 0x1F06 JUMP JUMPDEST ADD MLOAD SWAP1 POP DUP10 DUP1 PUSH2 0x15FB JUMP JUMPDEST PUSH0 DUP8 DUP2 MSTORE DUP12 DUP2 KECCAK256 SWAP4 POP PUSH1 0x1F NOT DUP6 AND SWAP1 JUMPDEST DUP13 DUP3 DUP3 LT PUSH2 0x1F91 JUMPI POP POP SWAP1 DUP5 PUSH1 0x1 SWAP6 SWAP5 SWAP4 SWAP3 LT PUSH2 0x1F79 JUMPI JUMPDEST POP POP POP DUP2 SHL ADD DUP4 SSTORE PUSH2 0x160F JUMP JUMPDEST ADD MLOAD PUSH0 NOT PUSH1 0xF8 DUP5 PUSH1 0x3 SHL AND SHR NOT AND SWAP1 SSTORE DUP10 DUP1 DUP1 PUSH2 0x1F6C JUMP JUMPDEST PUSH1 0x1 DUP6 SWAP7 DUP3 SWAP4 SWAP7 DUP7 ADD MLOAD DUP2 SSTORE ADD SWAP6 ADD SWAP4 ADD PUSH2 0x1F54 JUMP JUMPDEST SWAP1 SWAP2 POP DUP6 PUSH0 MSTORE DUP10 PUSH0 KECCAK256 PUSH1 0x1F DUP5 ADD PUSH1 0x5 SHR DUP2 ADD SWAP2 DUP12 DUP6 LT PUSH2 0x1FEB JUMPI JUMPDEST SWAP1 PUSH1 0x1F DUP6 SWAP5 SWAP4 SWAP3 ADD PUSH1 0x5 SHR ADD SWAP1 JUMPDEST DUP2 DUP2 LT PUSH2 0x1FDD JUMPI POP PUSH2 0x15E6 JUMP JUMPDEST PUSH0 DUP2 SSTORE DUP5 SWAP4 POP PUSH1 0x1 ADD PUSH2 0x1FD0 JUMP JUMPDEST SWAP1 SWAP2 POP DUP2 SWAP1 PUSH2 0x1FC2 JUMP JUMPDEST PUSH4 0x4E487B71 PUSH1 0xE0 SHL PUSH0 MSTORE PUSH0 PUSH1 0x4 MSTORE PUSH1 0x24 PUSH0 REVERT JUMPDEST ADD MLOAD SWAP1 POP DUP10 DUP1 PUSH2 0x152D JUMP JUMPDEST PUSH0 DUP6 DUP2 MSTORE DUP12 DUP2 KECCAK256 SWAP4 POP PUSH1 0x1F NOT DUP6 AND SWAP1 JUMPDEST DUP13 DUP3 DUP3 LT PUSH2 0x2060 JUMPI POP POP SWAP1 DUP5 PUSH1 0x1 SWAP6 SWAP5 SWAP4 SWAP3 LT PUSH2 0x2048 JUMPI JUMPDEST POP POP POP DUP2 SHL ADD SWAP1 SSTORE PUSH2 0x1541 JUMP JUMPDEST ADD MLOAD PUSH0 NOT PUSH1 0xF8 DUP5 PUSH1 0x3 SHL AND SHR NOT AND SWAP1 SSTORE DUP10 DUP1 DUP1 PUSH2 0x203B JUMP JUMPDEST PUSH1 0x1 DUP6 SWAP7 DUP3 SWAP4 SWAP7 DUP7 ADD MLOAD DUP2 SSTORE ADD SWAP6 ADD SWAP4 ADD PUSH2 0x2023 JUMP JUMPDEST SWAP1 SWAP2 POP DUP4 PUSH0 MSTORE DUP10 PUSH0 KECCAK256 PUSH1 0x1F DUP5 ADD PUSH1 0x5 SHR DUP2 ADD SWAP2 DUP12 DUP6 LT PUSH2 0x20BA JUMPI JUMPDEST SWAP1 PUSH1 0x1F DUP6 SWAP5 SWAP4 SWAP3 ADD PUSH1 0x5 SHR ADD SWAP1 JUMPDEST DUP2 DUP2 LT PUSH2 0x20AC JUMPI POP PUSH2 0x1518 JUMP JUMPDEST PUSH0 DUP2 SSTORE DUP5 SWAP4 POP PUSH1 0x1 ADD PUSH2 0x209F JUMP JUMPDEST SWAP1 SWAP2 POP DUP2 SWAP1 PUSH2 0x2091 JUMP JUMPDEST ADD MLOAD SWAP1 POP DUP15 DUP1 PUSH2 0x14C9 JUMP JUMPDEST SWAP2 SWAP1 PUSH1 0x1F NOT DUP5 AND DUP6 PUSH0 MSTORE DUP4 PUSH0 KECCAK256 SWAP4 PUSH0 SWAP1 JUMPDEST DUP3 DUP3 LT PUSH2 0x2122 JUMPI POP POP SWAP3 PUSH1 0x1 SWAP3 DUP6 SWAP3 PUSH1 0x3 SWAP10 SWAP9 SWAP7 PUSH1 0xFF SWAP9 SWAP7 LT PUSH2 0x210B JUMPI JUMPDEST POP POP POP DUP2 SHL ADD SWAP1 SSTORE PUSH2 0x14DC JUMP JUMPDEST ADD MLOAD PUSH0 NOT DUP4 DUP11 SHL PUSH1 0xF8 AND SHR NOT AND SWAP1 SSTORE DUP15 DUP1 DUP1 PUSH2 0x20FE JUMP JUMPDEST DUP1 PUSH1 0x1 DUP7 SWAP8 DUP3 SWAP5 SWAP8 DUP8 ADD MLOAD DUP2 SSTORE ADD SWAP7 ADD SWAP5 ADD SWAP1 PUSH2 0x20E0 JUMP JUMPDEST DUP5 PUSH0 MSTORE DUP2 PUSH0 KECCAK256 SWAP1 PUSH1 0x1F DUP6 ADD PUSH1 0x5 SHR DUP3 ADD SWAP3 DUP6 LT PUSH2 0x2175 JUMPI JUMPDEST PUSH1 0x1F ADD PUSH1 0x5 SHR ADD SWAP1 JUMPDEST DUP2 DUP2 LT PUSH2 0x216A JUMPI DUP14 SWAP2 POP PUSH2 0x14A6 JUMP JUMPDEST PUSH0 DUP2 SSTORE PUSH1 0x1 ADD PUSH2 0x215B JUMP JUMPDEST SWAP1 SWAP2 POP DUP2 SWAP1 PUSH2 0x2152 JUMP JUMPDEST ADD MLOAD SWAP1 POP DUP13 DUP1 PUSH2 0x1468 JUMP JUMPDEST PUSH0 DUP9 DUP2 MSTORE DUP2 DUP2 KECCAK256 SWAP5 POP PUSH1 0x1F NOT DUP7 AND SWAP2 JUMPDEST DUP3 DUP3 LT PUSH2 0x21D6 JUMPI POP POP SWAP1 DUP5 PUSH1 0x1 SWAP6 SWAP5 SWAP4 SWAP3 LT PUSH2 0x21BE JUMPI JUMPDEST POP POP POP DUP2 SHL ADD DUP4 SSTORE PUSH2 0x147C JUMP JUMPDEST ADD MLOAD PUSH0 NOT PUSH1 0xF8 DUP5 PUSH1 0x3 SHL AND SHR NOT AND SWAP1 SSTORE DUP13 DUP1 DUP1 PUSH2 0x21B1 JUMP JUMPDEST DUP1 PUSH1 0x1 DUP7 SWAP8 DUP3 SWAP5 SWAP8 DUP8 ADD MLOAD DUP2 SSTORE ADD SWAP7 ADD SWAP5 ADD SWAP1 PUSH2 0x219A JUMP JUMPDEST SWAP1 SWAP2 SWAP3 POP DUP7 PUSH0 MSTORE DUP2 PUSH0 KECCAK256 SWAP1 PUSH1 0x1F DUP6 ADD PUSH1 0x5 SHR DUP3 ADD SWAP3 DUP6 LT PUSH2 0x2235 JUMPI JUMPDEST SWAP1 PUSH1 0x1F DUP6 SWAP5 SWAP4 SWAP3 ADD PUSH1 0x5 SHR ADD SWAP1 JUMPDEST DUP2 DUP2 LT PUSH2 0x2227 JUMPI DUP15 SWAP2 POP PUSH2 0x1450 JUMP JUMPDEST PUSH0 DUP2 SSTORE DUP5 SWAP4 POP PUSH1 0x1 ADD PUSH2 0x2218 JUMP JUMPDEST SWAP1 SWAP2 POP DUP2 SWAP1 PUSH2 0x220A JUMP JUMPDEST CALLVALUE PUSH2 0x1BD JUMPI PUSH0 CALLDATASIZE PUSH1 0x3 NOT ADD SLT PUSH2 0x1BD JUMPI PUSH1 0x2 SLOAD PUSH2 0x225B DUP2 PUSH2 0x3162 JUMP JUMPDEST SWAP1 PUSH0 DUP1 JUMPDEST DUP3 DUP3 LT PUSH2 0x2274 JUMPI PUSH1 0x40 MLOAD DUP1 PUSH2 0xB37 DUP7 DUP3 PUSH2 0x2C87 JUMP JUMPDEST PUSH2 0x229F PUSH1 0x1 SWAP2 PUSH2 0xE2B PUSH2 0x2289 PUSH2 0xE0F DUP7 PUSH2 0x3033 JUMP JUMPDEST PUSH1 0xFF DUP4 AND SWAP1 PUSH2 0x2298 DUP3 DUP11 PUSH2 0x31DF JUMP JUMPDEST MSTORE DUP8 PUSH2 0x31DF JUMP JUMPDEST SWAP2 ADD SWAP1 PUSH2 0x225F JUMP JUMPDEST CALLVALUE PUSH2 0x1BD JUMPI PUSH1 0x20 CALLDATASIZE PUSH1 0x3 NOT ADD SLT PUSH2 0x1BD JUMPI PUSH1 0x4 CALLDATALOAD PUSH1 0x1 PUSH1 0x1 PUSH1 0x40 SHL SUB DUP2 GT PUSH2 0x1BD JUMPI PUSH1 0x20 DUP1 PUSH2 0x22DD PUSH2 0x231A SWAP4 CALLDATASIZE SWAP1 PUSH1 0x4 ADD PUSH2 0x2A96 JUMP JUMPDEST PUSH1 0x40 MLOAD SWAP3 DUP2 DUP5 SWAP3 MLOAD SWAP2 DUP3 SWAP2 ADD DUP4 MCOPY DUP2 ADD PUSH1 0x5 DUP2 MSTORE SUB ADD SWAP1 KECCAK256 PUSH2 0xB37 PUSH2 0x2306 PUSH1 0x1 PUSH2 0xF0B DUP5 PUSH2 0x2B9B JUMP JUMPDEST PUSH1 0x40 MLOAD SWAP4 DUP5 SWAP4 PUSH1 0x40 DUP6 MSTORE PUSH1 0x40 DUP6 ADD SWAP1 PUSH2 0x2AEB JUMP JUMPDEST SWAP1 DUP4 DUP3 SUB PUSH1 0x20 DUP6 ADD MSTORE PUSH2 0x2AEB JUMP JUMPDEST CALLVALUE PUSH2 0x1BD JUMPI PUSH1 0xE0 CALLDATASIZE PUSH1 0x3 NOT ADD SLT PUSH2 0x1BD JUMPI PUSH1 0x4 CALLDATALOAD PUSH1 0x1 PUSH1 0x1 PUSH1 0x40 SHL SUB DUP2 GT PUSH2 0x1BD JUMPI PUSH2 0x2358 SWAP1 CALLDATASIZE SWAP1 PUSH1 0x4 ADD PUSH2 0x2A96 JUMP JUMPDEST PUSH1 0x24 CALLDATALOAD PUSH1 0x1 PUSH1 0x1 PUSH1 0x40 SHL SUB DUP2 GT PUSH2 0x1BD JUMPI PUSH2 0x2377 SWAP1 CALLDATASIZE SWAP1 PUSH1 0x4 ADD PUSH2 0x2A96 JUMP JUMPDEST PUSH1 0x44 CALLDATALOAD PUSH1 0x1 PUSH1 0x1 PUSH1 0x40 SHL SUB DUP2 GT PUSH2 0x1BD JUMPI PUSH2 0x2396 SWAP1 CALLDATASIZE SWAP1 PUSH1 0x4 ADD PUSH2 0x2A96 JUMP JUMPDEST PUSH1 0x64 CALLDATALOAD PUSH1 0x1 PUSH1 0x1 PUSH1 0x40 SHL SUB DUP2 GT PUSH2 0x1BD JUMPI PUSH2 0x23B5 SWAP1 CALLDATASIZE SWAP1 PUSH1 0x4 ADD PUSH2 0x2A96 JUMP JUMPDEST SWAP3 PUSH2 0x23BE PUSH2 0x2B4D JUMP JUMPDEST PUSH1 0xA4 CALLDATALOAD SWAP1 PUSH1 0x1 PUSH1 0x1 PUSH1 0x40 SHL SUB DUP3 GT PUSH2 0x1BD JUMPI PUSH2 0x23E1 PUSH2 0x23EB SWAP3 CALLDATASIZE SWAP1 PUSH1 0x4 ADD PUSH2 0x2A96 JUMP JUMPDEST SWAP6 PUSH1 0xC4 CALLDATALOAD SWAP5 PUSH2 0x30B1 JUMP JUMPDEST PUSH1 0x40 MLOAD SWAP1 PUSH1 0x1 DUP6 MLOAD SWAP3 PUSH1 0x20 DUP2 DUP2 DUP10 ADD SWAP6 DUP1 DUP8 DUP4 MCOPY DUP2 ADD PUSH1 0x3 DUP2 MSTORE SUB ADD SWAP1 KECCAK256 ADD DUP4 MLOAD PUSH1 0x1 PUSH1 0x1 PUSH1 0x40 SHL SUB DUP2 GT PUSH2 0x697 JUMPI PUSH2 0x2424 DUP3 SLOAD PUSH2 0x2B63 JUMP JUMPDEST PUSH1 0x1F DUP2 GT PUSH2 0x278D JUMPI JUMPDEST POP PUSH1 0x20 PUSH1 0x1F DUP3 GT PUSH1 0x1 EQ PUSH2 0x2728 JUMPI SWAP1 DUP1 PUSH2 0x2464 SWAP5 SWAP4 SWAP3 PUSH0 SWAP2 PUSH2 0x271D JUMPI JUMPDEST POP DUP2 PUSH1 0x1 SHL SWAP2 PUSH0 NOT SWAP1 PUSH1 0x3 SHL SHR NOT AND OR SWAP1 SSTORE JUMPDEST DUP7 DUP7 PUSH2 0x37E0 JUMP JUMPDEST PUSH1 0x2 SLOAD SWAP4 PUSH0 JUMPDEST DUP6 DUP2 LT PUSH2 0x2473 JUMPI STOP JUMPDEST PUSH2 0x247C DUP2 PUSH2 0x3033 JUMP JUMPDEST POP PUSH1 0x40 MLOAD PUSH2 0x2492 DUP2 PUSH2 0x385 PUSH1 0x20 DUP3 ADD DUP1 SWAP6 PUSH2 0x30E1 JUMP JUMPDEST MLOAD SWAP1 KECCAK256 PUSH1 0x40 MLOAD PUSH1 0x20 DUP2 ADD SWAP1 PUSH2 0x24BF PUSH1 0x20 DUP3 DUP8 MLOAD DUP1 DUP11 DUP8 MCOPY DUP2 ADD PUSH0 DUP4 DUP3 ADD MSTORE SUB ADD PUSH1 0x1F NOT DUP2 ADD DUP4 MSTORE DUP3 PUSH2 0x2A75 JUMP JUMPDEST MLOAD SWAP1 KECCAK256 EQ PUSH2 0x24D0 JUMPI JUMPDEST PUSH1 0x1 ADD PUSH2 0x246A JUMP JUMPDEST PUSH1 0x1 PUSH2 0x24DB DUP3 PUSH2 0x3033 JUMP JUMPDEST POP ADD DUP5 MLOAD PUSH1 0x1 PUSH1 0x1 PUSH1 0x40 SHL SUB DUP2 GT PUSH2 0x697 JUMPI PUSH2 0x24F7 DUP3 SLOAD PUSH2 0x2B63 JUMP JUMPDEST PUSH1 0x1F DUP2 GT PUSH2 0x26D8 JUMPI JUMPDEST POP DUP1 PUSH1 0x20 PUSH1 0x1F DUP3 GT PUSH1 0x1 EQ PUSH2 0x2677 JUMPI PUSH0 SWAP2 PUSH2 0x266C JUMPI JUMPDEST POP DUP2 PUSH1 0x1 SHL SWAP2 PUSH0 NOT SWAP1 PUSH1 0x3 SHL SHR NOT AND OR SWAP1 SSTORE JUMPDEST PUSH1 0x3 PUSH2 0x2534 DUP3 PUSH2 0x3033 JUMP JUMPDEST POP ADD DUP1 SLOAD PUSH2 0xFF00 NOT AND PUSH2 0x100 OR SWAP1 SSTORE PUSH1 0x4 PUSH2 0x254E DUP3 PUSH2 0x3033 JUMP JUMPDEST POP ADD DUP8 MLOAD PUSH1 0x1 PUSH1 0x1 PUSH1 0x40 SHL SUB DUP2 GT PUSH2 0x697 JUMPI PUSH2 0x256A DUP3 SLOAD PUSH2 0x2B63 JUMP JUMPDEST PUSH1 0x1F DUP2 GT PUSH2 0x2627 JUMPI JUMPDEST POP PUSH1 0x20 PUSH1 0x1F DUP3 GT PUSH1 0x1 EQ PUSH2 0x25C2 JUMPI SWAP1 DUP1 PUSH1 0x1 SWAP5 SWAP4 SWAP3 PUSH0 SWAP2 PUSH2 0x25B7 JUMPI JUMPDEST POP PUSH0 NOT PUSH1 0x3 DUP4 SWAP1 SHL SHR NOT AND SWAP1 DUP5 SHL OR SWAP1 SSTORE JUMPDEST DUP6 PUSH1 0x5 PUSH2 0x25AD DUP4 PUSH2 0x3033 JUMP JUMPDEST POP ADD SSTORE SWAP1 POP PUSH2 0x24C8 JUMP JUMPDEST SWAP1 POP DUP11 ADD MLOAD DUP12 PUSH2 0x258F JUMP JUMPDEST PUSH1 0x1F NOT DUP3 AND SWAP1 DUP4 PUSH0 MSTORE DUP1 PUSH0 KECCAK256 SWAP2 PUSH0 JUMPDEST DUP13 DUP3 DUP3 LT PUSH2 0x260F JUMPI POP POP SWAP2 DUP4 SWAP2 PUSH1 0x1 SWAP7 SWAP6 SWAP5 DUP8 SWAP5 LT PUSH2 0x25F7 JUMPI JUMPDEST POP POP DUP2 SHL ADD SWAP1 SSTORE PUSH2 0x25A1 JUMP JUMPDEST DUP13 ADD MLOAD PUSH0 NOT PUSH1 0xF8 DUP5 PUSH1 0x3 SHL AND SHR NOT AND SWAP1 SSTORE DUP12 DUP1 PUSH2 0x25EB JUMP JUMPDEST PUSH1 0x1 DUP5 SWAP6 PUSH1 0x20 SWAP4 SWAP6 DUP5 SWAP4 ADD MLOAD DUP2 SSTORE ADD SWAP5 ADD SWAP3 ADD PUSH2 0x25D1 JUMP JUMPDEST DUP3 PUSH0 MSTORE PUSH1 0x20 PUSH0 KECCAK256 PUSH1 0x1F DUP4 ADD PUSH1 0x5 SHR DUP2 ADD SWAP2 PUSH1 0x20 DUP5 LT PUSH2 0x2662 JUMPI JUMPDEST PUSH1 0x1F ADD PUSH1 0x5 SHR ADD SWAP1 JUMPDEST DUP2 DUP2 LT PUSH2 0x2657 JUMPI POP PUSH2 0x2573 JUMP JUMPDEST PUSH0 DUP2 SSTORE PUSH1 0x1 ADD PUSH2 0x264A JUMP JUMPDEST SWAP1 SWAP2 POP DUP2 SWAP1 PUSH2 0x2641 JUMP JUMPDEST SWAP1 POP DUP7 ADD MLOAD DUP11 PUSH2 0x2516 JUMP JUMPDEST PUSH0 DUP5 DUP2 MSTORE DUP2 DUP2 KECCAK256 SWAP3 POP PUSH1 0x1F NOT DUP5 AND SWAP1 JUMPDEST DUP2 DUP2 LT PUSH2 0x26C0 JUMPI POP SWAP1 DUP4 PUSH1 0x1 SWAP5 SWAP4 SWAP3 LT PUSH2 0x26A8 JUMPI JUMPDEST POP POP DUP2 SHL ADD SWAP1 SSTORE PUSH2 0x2529 JUMP JUMPDEST DUP9 ADD MLOAD PUSH0 NOT PUSH1 0xF8 DUP5 PUSH1 0x3 SHL AND SHR NOT AND SWAP1 SSTORE DUP11 DUP1 PUSH2 0x269C JUMP JUMPDEST SWAP2 SWAP3 PUSH1 0x20 PUSH1 0x1 DUP2 SWAP3 DUP7 DUP14 ADD MLOAD DUP2 SSTORE ADD SWAP5 ADD SWAP3 ADD PUSH2 0x2687 JUMP JUMPDEST DUP3 PUSH0 MSTORE PUSH1 0x20 PUSH0 KECCAK256 PUSH1 0x1F DUP4 ADD PUSH1 0x5 SHR DUP2 ADD SWAP2 PUSH1 0x20 DUP5 LT PUSH2 0x2713 JUMPI JUMPDEST PUSH1 0x1F ADD PUSH1 0x5 SHR ADD SWAP1 JUMPDEST DUP2 DUP2 LT PUSH2 0x2708 JUMPI POP PUSH2 0x2500 JUMP JUMPDEST PUSH0 DUP2 SSTORE PUSH1 0x1 ADD PUSH2 0x26FB JUMP JUMPDEST SWAP1 SWAP2 POP DUP2 SWAP1 PUSH2 0x26F2 JUMP JUMPDEST SWAP1 POP DUP7 ADD MLOAD DUP11 PUSH2 0x244A JUMP JUMPDEST PUSH1 0x1F NOT DUP3 AND SWAP1 DUP4 PUSH0 MSTORE DUP1 PUSH0 KECCAK256 SWAP2 PUSH0 JUMPDEST DUP2 DUP2 LT PUSH2 0x2775 JUMPI POP SWAP2 DUP4 SWAP2 PUSH2 0x2464 SWAP7 SWAP6 SWAP5 PUSH1 0x1 SWAP5 LT PUSH2 0x275D JUMPI JUMPDEST POP POP DUP2 SHL ADD SWAP1 SSTORE PUSH2 0x245D JUMP JUMPDEST DUP9 ADD MLOAD PUSH0 NOT PUSH1 0xF8 DUP5 PUSH1 0x3 SHL AND SHR NOT AND SWAP1 SSTORE DUP11 DUP1 PUSH2 0x2751 JUMP JUMPDEST SWAP2 SWAP3 PUSH1 0x20 PUSH1 0x1 DUP2 SWAP3 DUP7 DUP13 ADD MLOAD DUP2 SSTORE ADD SWAP5 ADD SWAP3 ADD PUSH2 0x2737 JUMP JUMPDEST DUP3 PUSH0 MSTORE PUSH1 0x20 PUSH0 KECCAK256 PUSH1 0x1F DUP4 ADD PUSH1 0x5 SHR DUP2 ADD SWAP2 PUSH1 0x20 DUP5 LT PUSH2 0x27C8 JUMPI JUMPDEST PUSH1 0x1F ADD PUSH1 0x5 SHR ADD SWAP1 JUMPDEST DUP2 DUP2 LT PUSH2 0x27BD JUMPI POP PUSH2 0x242D JUMP JUMPDEST PUSH0 DUP2 SSTORE PUSH1 0x1 ADD PUSH2 0x27B0 JUMP JUMPDEST SWAP1 SWAP2 POP DUP2 SWAP1 PUSH2 0x27A7 JUMP JUMPDEST CALLVALUE PUSH2 0x1BD JUMPI PUSH1 0x20 CALLDATASIZE PUSH1 0x3 NOT ADD SLT PUSH2 0x1BD JUMPI PUSH1 0x4 CALLDATALOAD PUSH1 0x1 PUSH1 0x1 PUSH1 0x40 SHL SUB DUP2 GT PUSH2 0x1BD JUMPI PUSH1 0x20 DUP1 PUSH2 0x2808 PUSH2 0x2881 SWAP4 CALLDATASIZE SWAP1 PUSH1 0x4 ADD PUSH2 0x2A96 JUMP JUMPDEST PUSH1 0x40 MLOAD SWAP3 DUP2 DUP5 SWAP3 MLOAD SWAP2 DUP3 SWAP2 ADD DUP4 MCOPY DUP2 ADD PUSH0 DUP2 MSTORE SUB ADD SWAP1 KECCAK256 PUSH2 0xB37 PUSH1 0xFF DUP3 SLOAD AND SWAP2 PUSH2 0x28C1 PUSH1 0x1 DUP3 ADD SLOAD SWAP2 PUSH2 0x28B2 PUSH1 0x2 DUP3 ADD SLOAD PUSH1 0x3 DUP4 ADD SLOAD PUSH1 0x4 DUP5 ADD SLOAD PUSH1 0x5 DUP6 ADD SLOAD SWAP1 PUSH1 0x6 DUP7 ADD SLOAD SWAP3 PUSH2 0x285B PUSH1 0x7 DUP9 ADD PUSH2 0x2C3B JUMP JUMPDEST SWAP5 PUSH2 0x2874 PUSH1 0xD PUSH2 0x286D PUSH1 0xA DUP12 ADD PUSH2 0x2C3B JUMP JUMPDEST SWAP10 ADD PUSH2 0x2B9B JUMP JUMPDEST SWAP10 PUSH1 0x40 MLOAD SWAP14 DUP15 DUP1 SWAP15 PUSH2 0x2C7A JUMP JUMPDEST PUSH1 0x20 DUP14 ADD MSTORE PUSH1 0x40 DUP13 ADD MSTORE PUSH1 0x60 DUP12 ADD MSTORE PUSH1 0x80 DUP11 ADD MSTORE PUSH1 0xA0 DUP10 ADD MSTORE PUSH1 0xC0 DUP9 ADD MSTORE PUSH2 0x140 PUSH1 0xE0 DUP9 ADD MSTORE PUSH2 0x140 DUP8 ADD SWAP1 PUSH2 0x2B0F JUMP JUMPDEST SWAP1 DUP6 DUP3 SUB PUSH2 0x100 DUP8 ADD MSTORE PUSH2 0x2B0F JUMP JUMPDEST SWAP1 DUP4 DUP3 SUB PUSH2 0x120 DUP6 ADD MSTORE PUSH2 0x2AEB JUMP JUMPDEST CALLVALUE PUSH2 0x1BD JUMPI PUSH1 0x60 CALLDATASIZE PUSH1 0x3 NOT ADD SLT PUSH2 0x1BD JUMPI PUSH1 0x4 CALLDATALOAD PUSH1 0x1 PUSH1 0x1 PUSH1 0x40 SHL SUB DUP2 GT PUSH2 0x1BD JUMPI PUSH2 0x2900 SWAP1 CALLDATASIZE SWAP1 PUSH1 0x4 ADD PUSH2 0x2A96 JUMP JUMPDEST PUSH1 0x24 CALLDATALOAD PUSH1 0x1 PUSH1 0x1 PUSH1 0x40 SHL SUB DUP2 GT PUSH2 0x1BD JUMPI PUSH2 0x291F SWAP1 CALLDATASIZE SWAP1 PUSH1 0x4 ADD PUSH2 0x2A96 JUMP JUMPDEST SWAP1 PUSH1 0x44 CALLDATALOAD PUSH1 0x1 PUSH1 0x1 PUSH1 0xA0 SHL SUB DUP2 AND DUP2 SUB PUSH2 0x1BD JUMPI PUSH2 0xB37 SWAP3 PUSH2 0x2940 SWAP3 PUSH2 0x30B1 JUMP JUMPDEST PUSH1 0x40 MLOAD SWAP2 DUP3 SWAP2 PUSH1 0x20 DUP4 MSTORE PUSH1 0x20 DUP4 ADD SWAP1 PUSH2 0x2B0F JUMP JUMPDEST CALLVALUE PUSH2 0x1BD JUMPI PUSH1 0x20 CALLDATASIZE PUSH1 0x3 NOT ADD SLT PUSH2 0x1BD JUMPI PUSH1 0x4 CALLDATALOAD PUSH1 0x1 PUSH1 0x1 PUSH1 0x40 SHL SUB DUP2 GT PUSH2 0x1BD JUMPI PUSH2 0x2987 PUSH2 0x1BB SWAP2 CALLDATASIZE SWAP1 PUSH1 0x4 ADD PUSH2 0x2A96 JUMP JUMPDEST PUSH2 0x3083 JUMP JUMPDEST CALLVALUE PUSH2 0x1BD JUMPI PUSH1 0x20 CALLDATASIZE PUSH1 0x3 NOT ADD SLT PUSH2 0x1BD JUMPI PUSH1 0x4 CALLDATALOAD PUSH1 0x1 PUSH1 0x1 PUSH1 0x40 SHL SUB DUP2 GT PUSH2 0x1BD JUMPI PUSH2 0x2940 PUSH1 0x7 PUSH1 0x20 DUP1 PUSH2 0x29C7 PUSH2 0xB37 SWAP6 CALLDATASIZE SWAP1 PUSH1 0x4 ADD PUSH2 0x2A96 JUMP JUMPDEST PUSH2 0x29CF PUSH2 0x3063 JUMP JUMPDEST POP PUSH1 0x40 MLOAD SWAP3 DUP2 DUP5 SWAP3 MLOAD SWAP2 DUP3 SWAP2 ADD DUP4 MCOPY DUP2 ADD PUSH0 DUP2 MSTORE SUB ADD SWAP1 KECCAK256 ADD PUSH2 0x2C3B JUMP JUMPDEST PUSH1 0x80 DUP2 ADD SWAP1 DUP2 LT PUSH1 0x1 PUSH1 0x1 PUSH1 0x40 SHL SUB DUP3 GT OR PUSH2 0x697 JUMPI PUSH1 0x40 MSTORE JUMP JUMPDEST PUSH1 0xE0 DUP2 ADD SWAP1 DUP2 LT PUSH1 0x1 PUSH1 0x1 PUSH1 0x40 SHL SUB DUP3 GT OR PUSH2 0x697 JUMPI PUSH1 0x40 MSTORE JUMP JUMPDEST PUSH1 0x60 DUP2 ADD SWAP1 DUP2 LT PUSH1 0x1 PUSH1 0x1 PUSH1 0x40 SHL SUB DUP3 GT OR PUSH2 0x697 JUMPI PUSH1 0x40 MSTORE JUMP JUMPDEST PUSH1 0x40 DUP2 ADD SWAP1 DUP2 LT PUSH1 0x1 PUSH1 0x1 PUSH1 0x40 SHL SUB DUP3 GT OR PUSH2 0x697 JUMPI PUSH1 0x40 MSTORE JUMP JUMPDEST PUSH2 0x140 DUP2 ADD SWAP1 DUP2 LT PUSH1 0x1 PUSH1 0x1 PUSH1 0x40 SHL SUB DUP3 GT OR PUSH2 0x697 JUMPI PUSH1 0x40 MSTORE JUMP JUMPDEST SWAP1 PUSH1 0x1F DUP1 NOT SWAP2 ADD AND DUP2 ADD SWAP1 DUP2 LT PUSH1 0x1 PUSH1 0x1 PUSH1 0x40 SHL SUB DUP3 GT OR PUSH2 0x697 JUMPI PUSH1 0x40 MSTORE JUMP JUMPDEST DUP2 PUSH1 0x1F DUP3 ADD SLT ISZERO PUSH2 0x1BD JUMPI DUP1 CALLDATALOAD SWAP1 PUSH1 0x1 PUSH1 0x1 PUSH1 0x40 SHL SUB DUP3 GT PUSH2 0x697 JUMPI PUSH1 0x40 MLOAD SWAP3 PUSH2 0x2ACA PUSH1 0x1F DUP5 ADD PUSH1 0x1F NOT AND PUSH1 0x20 ADD DUP6 PUSH2 0x2A75 JUMP JUMPDEST DUP3 DUP5 MSTORE PUSH1 0x20 DUP4 DUP4 ADD ADD GT PUSH2 0x1BD JUMPI DUP2 PUSH0 SWAP3 PUSH1 0x20 DUP1 SWAP4 ADD DUP4 DUP7 ADD CALLDATACOPY DUP4 ADD ADD MSTORE SWAP1 JUMP JUMPDEST DUP1 MLOAD DUP1 DUP4 MSTORE PUSH1 0x20 SWAP3 SWAP2 DUP2 SWAP1 DUP5 ADD DUP5 DUP5 ADD MCOPY PUSH0 DUP3 DUP3 ADD DUP5 ADD MSTORE PUSH1 0x1F ADD PUSH1 0x1F NOT AND ADD ADD SWAP1 JUMP JUMPDEST SWAP1 PUSH1 0x40 PUSH2 0x2B3A PUSH2 0x2B28 DUP5 MLOAD PUSH1 0x60 DUP6 MSTORE PUSH1 0x60 DUP6 ADD SWAP1 PUSH2 0x2AEB JUMP JUMPDEST PUSH1 0x20 DUP6 ADD MLOAD DUP5 DUP3 SUB PUSH1 0x20 DUP7 ADD MSTORE PUSH2 0x2AEB JUMP JUMPDEST SWAP3 DUP2 ADD MLOAD PUSH1 0x1 PUSH1 0x1 PUSH1 0xA0 SHL SUB AND SWAP2 ADD MSTORE SWAP1 JUMP JUMPDEST PUSH1 0x84 CALLDATALOAD SWAP1 PUSH1 0x1 PUSH1 0x1 PUSH1 0xA0 SHL SUB DUP3 AND DUP3 SUB PUSH2 0x1BD JUMPI JUMP JUMPDEST SWAP1 PUSH1 0x1 DUP3 DUP2 SHR SWAP3 AND DUP1 ISZERO PUSH2 0x2B91 JUMPI JUMPDEST PUSH1 0x20 DUP4 LT EQ PUSH2 0x2B7D JUMPI JUMP JUMPDEST PUSH4 0x4E487B71 PUSH1 0xE0 SHL PUSH0 MSTORE PUSH1 0x22 PUSH1 0x4 MSTORE PUSH1 0x24 PUSH0 REVERT JUMPDEST SWAP2 PUSH1 0x7F AND SWAP2 PUSH2 0x2B72 JUMP JUMPDEST SWAP1 PUSH1 0x40 MLOAD SWAP2 DUP3 PUSH0 DUP3 SLOAD SWAP3 PUSH2 0x2BAE DUP5 PUSH2 0x2B63 JUMP JUMPDEST DUP1 DUP5 MSTORE SWAP4 PUSH1 0x1 DUP2 AND SWAP1 DUP2 ISZERO PUSH2 0x2C19 JUMPI POP PUSH1 0x1 EQ PUSH2 0x2BD5 JUMPI JUMPDEST POP PUSH2 0x2BD3 SWAP3 POP SUB DUP4 PUSH2 0x2A75 JUMP JUMPDEST JUMP JUMPDEST SWAP1 POP PUSH0 SWAP3 SWAP2 SWAP3 MSTORE PUSH1 0x20 PUSH0 KECCAK256 SWAP1 PUSH0 SWAP2 JUMPDEST DUP2 DUP4 LT PUSH2 0x2BFD JUMPI POP POP SWAP1 PUSH1 0x20 PUSH2 0x2BD3 SWAP3 DUP3 ADD ADD PUSH0 PUSH2 0x2BC6 JUMP JUMPDEST PUSH1 0x20 SWAP2 SWAP4 POP DUP1 PUSH1 0x1 SWAP2 SLOAD DUP4 DUP6 DUP10 ADD ADD MSTORE ADD SWAP2 ADD SWAP1 SWAP2 DUP5 SWAP3 PUSH2 0x2BE4 JUMP JUMPDEST SWAP1 POP PUSH1 0x20 SWAP3 POP PUSH2 0x2BD3 SWAP5 SWAP2 POP PUSH1 0xFF NOT AND DUP3 DUP5 ADD MSTORE ISZERO ISZERO PUSH1 0x5 SHL DUP3 ADD ADD PUSH0 PUSH2 0x2BC6 JUMP JUMPDEST SWAP1 PUSH1 0x40 MLOAD PUSH2 0x2C48 DUP2 PUSH2 0x2A23 JUMP JUMPDEST PUSH1 0x40 DUP2 SWAP4 PUSH2 0x2C55 DUP2 PUSH2 0x2B9B JUMP JUMPDEST DUP4 MSTORE PUSH2 0x2C63 PUSH1 0x1 DUP3 ADD PUSH2 0x2B9B JUMP JUMPDEST PUSH1 0x20 DUP5 ADD MSTORE PUSH1 0x2 ADD SLOAD PUSH1 0x1 PUSH1 0x1 PUSH1 0xA0 SHL SUB AND SWAP2 ADD MSTORE JUMP JUMPDEST SWAP1 PUSH1 0x7 DUP3 LT ISZERO PUSH2 0x1DA3 JUMPI MSTORE JUMP JUMPDEST PUSH1 0x20 DUP2 ADD PUSH1 0x20 DUP3 MSTORE DUP3 MLOAD DUP1 SWAP2 MSTORE PUSH1 0x40 DUP3 ADD SWAP2 PUSH1 0x20 PUSH1 0x40 DUP4 PUSH1 0x5 SHL DUP4 ADD ADD SWAP5 ADD SWAP3 PUSH0 SWAP2 JUMPDEST DUP4 DUP4 LT PUSH2 0x2CB9 JUMPI POP POP POP POP POP SWAP1 JUMP JUMPDEST SWAP1 SWAP2 SWAP3 SWAP4 SWAP5 PUSH1 0x20 DUP1 PUSH1 0x1 SWAP3 PUSH1 0x3F NOT DUP6 DUP3 SUB ADD DUP7 MSTORE DUP9 MLOAD SWAP1 PUSH1 0xC0 DUP1 PUSH2 0x2D42 PUSH2 0x2D11 PUSH2 0x2CFF PUSH2 0x2CEF DUP8 MLOAD PUSH1 0xE0 DUP9 MSTORE PUSH1 0xE0 DUP9 ADD SWAP1 PUSH2 0x2AEB JUMP JUMPDEST DUP9 DUP9 ADD MLOAD DUP8 DUP3 SUB DUP11 DUP10 ADD MSTORE PUSH2 0x2AEB JUMP JUMPDEST PUSH1 0x40 DUP8 ADD MLOAD DUP7 DUP3 SUB PUSH1 0x40 DUP9 ADD MSTORE PUSH2 0x2AEB JUMP JUMPDEST PUSH1 0xFF PUSH1 0x60 DUP8 ADD MLOAD AND PUSH1 0x60 DUP7 ADD MSTORE PUSH2 0x2D30 PUSH1 0x80 DUP8 ADD MLOAD PUSH1 0x80 DUP8 ADD SWAP1 PUSH2 0x2C7A JUMP JUMPDEST PUSH1 0xA0 DUP7 ADD MLOAD DUP6 DUP3 SUB PUSH1 0xA0 DUP8 ADD MSTORE PUSH2 0x2AEB JUMP JUMPDEST SWAP4 ADD MLOAD SWAP2 ADD MSTORE SWAP8 ADD SWAP4 ADD SWAP4 ADD SWAP2 SWAP4 SWAP3 SWAP1 PUSH2 0x2CAA JUMP JUMPDEST SWAP2 SWAP1 PUSH1 0x60 DUP4 DUP3 SUB SLT PUSH2 0x1BD JUMPI PUSH1 0x40 MLOAD SWAP1 PUSH2 0x2D70 DUP3 PUSH2 0x2A23 JUMP JUMPDEST DUP2 SWAP4 DUP1 CALLDATALOAD PUSH1 0x1 PUSH1 0x1 PUSH1 0x40 SHL SUB DUP2 GT PUSH2 0x1BD JUMPI DUP3 PUSH2 0x2D8E SWAP2 DUP4 ADD PUSH2 0x2A96 JUMP JUMPDEST DUP4 MSTORE PUSH1 0x20 DUP2 ADD CALLDATALOAD PUSH1 0x1 PUSH1 0x1 PUSH1 0x40 SHL SUB DUP2 GT PUSH2 0x1BD JUMPI DUP3 PUSH2 0x2DAF SWAP2 DUP4 ADD PUSH2 0x2A96 JUMP JUMPDEST PUSH1 0x20 DUP5 ADD MSTORE PUSH1 0x40 DUP2 ADD CALLDATALOAD SWAP2 PUSH1 0x1 PUSH1 0x1 PUSH1 0x40 SHL SUB DUP4 GT PUSH2 0x1BD JUMPI PUSH1 0x40 SWAP3 PUSH2 0x2DD5 SWAP3 ADD PUSH2 0x2A96 JUMP JUMPDEST SWAP2 ADD MSTORE JUMP JUMPDEST SWAP2 SWAP1 PUSH1 0x40 DUP4 DUP3 SUB SLT PUSH2 0x1BD JUMPI PUSH1 0x40 MLOAD SWAP1 PUSH2 0x2DF3 DUP3 PUSH2 0x2A3E JUMP JUMPDEST DUP2 SWAP4 DUP1 CALLDATALOAD PUSH1 0x1 PUSH1 0x1 PUSH1 0x40 SHL SUB DUP2 GT PUSH2 0x1BD JUMPI DUP3 PUSH2 0x2E11 SWAP2 DUP4 ADD PUSH2 0x2A96 JUMP JUMPDEST DUP4 MSTORE PUSH1 0x20 DUP2 ADD CALLDATALOAD SWAP2 PUSH1 0x1 PUSH1 0x1 PUSH1 0x40 SHL SUB DUP4 GT PUSH2 0x1BD JUMPI PUSH1 0x20 SWAP3 PUSH2 0x2DD5 SWAP3 ADD PUSH2 0x2A96 JUMP JUMPDEST PUSH1 0x40 PUSH1 0x3 NOT DUP3 ADD SLT PUSH2 0x1BD JUMPI PUSH1 0x4 CALLDATALOAD SWAP1 PUSH1 0x1 PUSH1 0x1 PUSH1 0x40 SHL SUB DUP3 GT PUSH2 0x1BD JUMPI PUSH2 0x2E5E SWAP2 PUSH1 0x4 ADD PUSH2 0x2A96 JUMP JUMPDEST SWAP1 PUSH1 0x24 CALLDATALOAD SWAP1 JUMP JUMPDEST SWAP1 PUSH2 0x2F06 SWAP2 PUSH1 0x20 DUP2 MSTORE PUSH2 0x2E7C PUSH1 0x20 DUP3 ADD DUP4 MLOAD PUSH2 0x2C7A JUMP JUMPDEST PUSH1 0x20 DUP3 ADD MLOAD PUSH1 0x40 DUP3 ADD MSTORE PUSH1 0x40 DUP3 ADD MLOAD PUSH1 0x60 DUP3 ADD MSTORE PUSH1 0x60 DUP3 ADD MLOAD PUSH1 0x80 DUP3 ADD MSTORE PUSH1 0x80 DUP3 ADD MLOAD PUSH1 0xA0 DUP3 ADD MSTORE PUSH1 0xA0 DUP3 ADD MLOAD PUSH1 0xC0 DUP3 ADD MSTORE PUSH1 0xC0 DUP3 ADD MLOAD PUSH1 0xE0 DUP3 ADD MSTORE PUSH2 0x120 PUSH2 0x2EF0 PUSH2 0x2EDA PUSH1 0xE0 DUP6 ADD MLOAD PUSH2 0x140 PUSH2 0x100 DUP7 ADD MSTORE PUSH2 0x160 DUP6 ADD SWAP1 PUSH2 0x2B0F JUMP JUMPDEST PUSH2 0x100 DUP6 ADD MLOAD DUP5 DUP3 SUB PUSH1 0x1F NOT ADD DUP5 DUP7 ADD MSTORE PUSH2 0x2B0F JUMP JUMPDEST SWAP3 ADD MLOAD SWAP1 PUSH2 0x140 PUSH1 0x1F NOT DUP3 DUP6 SUB ADD SWAP2 ADD MSTORE PUSH2 0x2AEB JUMP JUMPDEST SWAP1 JUMP JUMPDEST SWAP1 PUSH1 0x40 PUSH1 0x3 NOT DUP4 ADD SLT PUSH2 0x1BD JUMPI PUSH1 0x4 CALLDATALOAD PUSH1 0x1 PUSH1 0x1 PUSH1 0x40 SHL SUB DUP2 GT PUSH2 0x1BD JUMPI DUP3 PUSH2 0x2F34 SWAP2 PUSH1 0x4 ADD PUSH2 0x2A96 JUMP JUMPDEST SWAP2 PUSH1 0x24 CALLDATALOAD SWAP1 PUSH1 0x1 PUSH1 0x1 PUSH1 0x40 SHL SUB DUP3 GT PUSH2 0x1BD JUMPI PUSH2 0x2F06 SWAP2 PUSH1 0x4 ADD PUSH2 0x2A96 JUMP JUMPDEST SWAP2 SWAP1 PUSH1 0x60 DUP4 DUP3 SUB SLT PUSH2 0x1BD JUMPI PUSH1 0x40 MLOAD SWAP1 PUSH2 0x2F6C DUP3 PUSH2 0x2A23 JUMP JUMPDEST DUP2 SWAP4 DUP1 CALLDATALOAD PUSH1 0x1 PUSH1 0x1 PUSH1 0x40 SHL SUB DUP2 GT PUSH2 0x1BD JUMPI DUP3 PUSH2 0x2F8A SWAP2 DUP4 ADD PUSH2 0x2A96 JUMP JUMPDEST DUP4 MSTORE PUSH1 0x20 DUP2 ADD CALLDATALOAD PUSH1 0x1 PUSH1 0x1 PUSH1 0x40 SHL SUB DUP2 GT PUSH2 0x1BD JUMPI PUSH1 0x40 SWAP3 PUSH2 0x2FAD SWAP2 DUP4 ADD PUSH2 0x2A96 JUMP JUMPDEST PUSH1 0x20 DUP5 ADD MSTORE ADD CALLDATALOAD SWAP1 PUSH1 0x1 PUSH1 0x1 PUSH1 0xA0 SHL SUB DUP3 AND DUP3 SUB PUSH2 0x1BD JUMPI PUSH1 0x40 ADD MSTORE JUMP JUMPDEST PUSH1 0x60 PUSH1 0x3 NOT DUP3 ADD SLT PUSH2 0x1BD JUMPI PUSH1 0x4 CALLDATALOAD PUSH1 0x1 PUSH1 0x1 PUSH1 0x40 SHL SUB DUP2 GT PUSH2 0x1BD JUMPI DUP2 PUSH2 0x2FF5 SWAP2 PUSH1 0x4 ADD PUSH2 0x2A96 JUMP JUMPDEST SWAP2 PUSH1 0x24 CALLDATALOAD PUSH1 0x1 PUSH1 0x1 PUSH1 0x40 SHL SUB DUP2 GT PUSH2 0x1BD JUMPI DUP3 PUSH2 0x3014 SWAP2 PUSH1 0x4 ADD PUSH2 0x2A96 JUMP JUMPDEST SWAP2 PUSH1 0x44 CALLDATALOAD SWAP1 PUSH1 0x1 PUSH1 0x1 PUSH1 0x40 SHL SUB DUP3 GT PUSH2 0x1BD JUMPI PUSH2 0x2F06 SWAP2 PUSH1 0x4 ADD PUSH2 0x2F53 JUMP JUMPDEST PUSH1 0x2 SLOAD DUP2 LT ISZERO PUSH2 0x304F JUMPI PUSH1 0x2 PUSH0 MSTORE PUSH1 0x6 PUSH1 0x20 PUSH0 KECCAK256 SWAP2 MUL ADD SWAP1 PUSH0 SWAP1 JUMP JUMPDEST PUSH4 0x4E487B71 PUSH1 0xE0 SHL PUSH0 MSTORE PUSH1 0x32 PUSH1 0x4 MSTORE PUSH1 0x24 PUSH0 REVERT JUMPDEST PUSH1 0x40 MLOAD SWAP1 PUSH2 0x3070 DUP3 PUSH2 0x2A23 JUMP JUMPDEST PUSH0 PUSH1 0x40 DUP4 PUSH1 0x60 DUP2 MSTORE PUSH1 0x60 PUSH1 0x20 DUP3 ADD MSTORE ADD MSTORE JUMP JUMPDEST PUSH1 0x20 DUP1 SWAP2 PUSH1 0x40 MLOAD SWAP3 DUP2 DUP5 SWAP3 MLOAD SWAP2 DUP3 SWAP2 ADD DUP4 MCOPY DUP2 ADD PUSH0 DUP2 MSTORE SUB ADD SWAP1 KECCAK256 TIMESTAMP PUSH1 0x4 DUP3 ADD SSTORE PUSH1 0x3 PUSH1 0xFF NOT DUP3 SLOAD AND OR SWAP1 SSTORE JUMP JUMPDEST SWAP2 SWAP1 PUSH2 0x30BB PUSH2 0x3063 JUMP JUMPDEST POP PUSH1 0x40 MLOAD SWAP3 PUSH2 0x30C9 DUP5 PUSH2 0x2A23 JUMP JUMPDEST DUP4 MSTORE PUSH1 0x20 DUP4 ADD MSTORE PUSH1 0x1 PUSH1 0x1 PUSH1 0xA0 SHL SUB AND PUSH1 0x40 DUP3 ADD MSTORE SWAP1 JUMP JUMPDEST PUSH0 SWAP3 SWAP2 DUP2 SLOAD SWAP2 PUSH2 0x30F0 DUP4 PUSH2 0x2B63 JUMP JUMPDEST SWAP3 PUSH1 0x1 DUP2 AND SWAP1 DUP2 ISZERO PUSH2 0x3138 JUMPI POP PUSH1 0x1 EQ PUSH2 0x3109 JUMPI POP POP POP JUMP JUMPDEST SWAP1 SWAP2 SWAP3 SWAP4 POP PUSH0 MSTORE PUSH1 0x20 PUSH0 KECCAK256 PUSH0 SWAP1 JUMPDEST DUP4 DUP3 LT PUSH2 0x3124 JUMPI POP POP ADD SWAP1 JUMP JUMPDEST PUSH1 0x1 DUP2 PUSH1 0x20 SWAP3 SLOAD DUP5 DUP7 ADD MSTORE ADD SWAP2 ADD SWAP1 PUSH2 0x3117 JUMP JUMPDEST PUSH1 0xFF NOT AND DUP4 MSTORE POP POP DUP2 ISZERO ISZERO SWAP1 SWAP2 MUL ADD SWAP2 POP JUMP JUMPDEST PUSH1 0x1 PUSH1 0x1 PUSH1 0x40 SHL SUB DUP2 GT PUSH2 0x697 JUMPI PUSH1 0x5 SHL PUSH1 0x20 ADD SWAP1 JUMP JUMPDEST SWAP1 PUSH2 0x316C DUP3 PUSH2 0x314B JUMP JUMPDEST PUSH2 0x3179 PUSH1 0x40 MLOAD SWAP2 DUP3 PUSH2 0x2A75 JUMP JUMPDEST DUP3 DUP2 MSTORE DUP1 SWAP3 PUSH2 0x318A PUSH1 0x1F NOT SWAP2 PUSH2 0x314B JUMP JUMPDEST ADD SWAP1 PUSH0 JUMPDEST DUP3 DUP2 LT PUSH2 0x319A JUMPI POP POP POP JUMP JUMPDEST PUSH1 0x20 SWAP1 PUSH1 0x40 MLOAD PUSH2 0x31A9 DUP2 PUSH2 0x2A08 JUMP JUMPDEST PUSH1 0x60 DUP2 MSTORE PUSH1 0x60 DUP4 DUP3 ADD MSTORE PUSH1 0x60 PUSH1 0x40 DUP3 ADD MSTORE PUSH0 PUSH1 0x60 DUP3 ADD MSTORE PUSH0 PUSH1 0x80 DUP3 ADD MSTORE PUSH1 0x60 PUSH1 0xA0 DUP3 ADD MSTORE PUSH0 PUSH1 0xC0 DUP3 ADD MSTORE DUP3 DUP3 DUP6 ADD ADD MSTORE ADD PUSH2 0x318E JUMP JUMPDEST DUP1 MLOAD DUP3 LT ISZERO PUSH2 0x304F JUMPI PUSH1 0x20 SWAP2 PUSH1 0x5 SHL ADD ADD SWAP1 JUMP JUMPDEST PUSH1 0x7 DUP3 LT ISZERO PUSH2 0x1DA3 JUMPI MSTORE JUMP JUMPDEST SWAP1 PUSH1 0x40 MLOAD PUSH2 0x320C DUP2 PUSH2 0x2A08 JUMP JUMPDEST PUSH1 0xC0 PUSH1 0x5 DUP3 SWAP5 PUSH2 0x321B DUP2 PUSH2 0x2B9B JUMP JUMPDEST DUP5 MSTORE PUSH2 0x3229 PUSH1 0x1 DUP3 ADD PUSH2 0x2B9B JUMP JUMPDEST PUSH1 0x20 DUP6 ADD MSTORE PUSH2 0x323A PUSH1 0x2 DUP3 ADD PUSH2 0x2B9B JUMP JUMPDEST PUSH1 0x40 DUP6 ADD MSTORE PUSH2 0x325E PUSH1 0xFF PUSH1 0x3 DUP4 ADD SLOAD DUP2 DUP2 AND PUSH1 0x60 DUP9 ADD MSTORE PUSH1 0x8 SHR AND PUSH1 0x80 DUP7 ADD PUSH2 0x31F3 JUMP JUMPDEST PUSH2 0x326A PUSH1 0x4 DUP3 ADD PUSH2 0x2B9B JUMP JUMPDEST PUSH1 0xA0 DUP6 ADD MSTORE ADD SLOAD SWAP2 ADD MSTORE JUMP JUMPDEST PUSH1 0xFF AND PUSH1 0xFF DUP2 EQ PUSH2 0x3287 JUMPI PUSH1 0x1 ADD SWAP1 JUMP JUMPDEST PUSH4 0x4E487B71 PUSH1 0xE0 SHL PUSH0 MSTORE PUSH1 0x11 PUSH1 0x4 MSTORE PUSH1 0x24 PUSH0 REVERT JUMPDEST PUSH1 0x40 MLOAD DUP2 MLOAD PUSH2 0x2F06 SWAP3 PUSH1 0x20 SWAP2 DUP4 SWAP2 DUP2 SWAP1 DUP5 ADD DUP4 MCOPY DUP2 ADD PUSH1 0x1 DUP2 MSTORE SUB ADD SWAP1 KECCAK256 PUSH2 0x2B9B JUMP JUMPDEST SWAP1 TIMESTAMP GT ISZERO PUSH2 0x32F4 JUMPI PUSH1 0x20 DUP1 SWAP2 PUSH1 0x40 MLOAD SWAP3 DUP2 DUP5 SWAP3 MLOAD SWAP2 DUP3 SWAP2 ADD DUP4 MCOPY DUP2 ADD PUSH0 DUP2 MSTORE SUB ADD SWAP1 KECCAK256 TIMESTAMP PUSH1 0x6 DUP3 ADD SSTORE PUSH1 0x5 PUSH1 0xFF NOT DUP3 SLOAD AND OR SWAP1 SSTORE JUMP JUMPDEST PUSH1 0x40 MLOAD PUSH3 0x461BCD PUSH1 0xE5 SHL DUP2 MSTORE PUSH1 0x20 PUSH1 0x4 DUP3 ADD MSTORE PUSH1 0x18 PUSH1 0x24 DUP3 ADD MSTORE PUSH32 0x536572746966696B6174206D61736968206265726C616B750000000000000000 PUSH1 0x44 DUP3 ADD MSTORE PUSH1 0x64 SWAP1 REVERT JUMPDEST PUSH1 0x40 MLOAD SWAP1 PUSH2 0x3346 DUP3 PUSH2 0x2A59 JUMP JUMPDEST PUSH1 0x60 PUSH2 0x120 DUP4 PUSH0 DUP2 MSTORE PUSH0 PUSH1 0x20 DUP3 ADD MSTORE PUSH0 PUSH1 0x40 DUP3 ADD MSTORE PUSH0 DUP4 DUP3 ADD MSTORE PUSH0 PUSH1 0x80 DUP3 ADD MSTORE PUSH0 PUSH1 0xA0 DUP3 ADD MSTORE PUSH0 PUSH1 0xC0 DUP3 ADD MSTORE PUSH2 0x337A PUSH2 0x3063 JUMP JUMPDEST PUSH1 0xE0 DUP3 ADD MSTORE PUSH2 0x3387 PUSH2 0x3063 JUMP JUMPDEST PUSH2 0x100 DUP3 ADD MSTORE ADD MSTORE JUMP JUMPDEST PUSH1 0x20 DUP1 SWAP2 PUSH2 0x339D PUSH2 0x3339 JUMP JUMPDEST POP PUSH1 0x40 MLOAD SWAP3 DUP2 DUP5 SWAP3 MLOAD SWAP2 DUP3 SWAP2 ADD DUP4 MCOPY DUP2 ADD PUSH0 DUP2 MSTORE SUB ADD SWAP1 KECCAK256 PUSH2 0x343A PUSH1 0xD PUSH1 0x40 MLOAD SWAP3 PUSH2 0x33C7 DUP5 PUSH2 0x2A59 JUMP JUMPDEST PUSH2 0x33D5 PUSH1 0xFF DUP3 SLOAD AND DUP6 PUSH2 0x31F3 JUMP JUMPDEST PUSH1 0x1 DUP2 ADD SLOAD PUSH1 0x20 DUP6 ADD MSTORE PUSH1 0x2 DUP2 ADD SLOAD PUSH1 0x40 DUP6 ADD MSTORE PUSH1 0x3 DUP2 ADD SLOAD PUSH1 0x60 DUP6 ADD MSTORE PUSH1 0x4 DUP2 ADD SLOAD PUSH1 0x80 DUP6 ADD MSTORE PUSH1 0x5 DUP2 ADD SLOAD PUSH1 0xA0 DUP6 ADD MSTORE PUSH1 0x6 DUP2 ADD SLOAD PUSH1 0xC0 DUP6 ADD MSTORE PUSH2 0x341D PUSH1 0x7 DUP3 ADD PUSH2 0x2C3B JUMP JUMPDEST PUSH1 0xE0 DUP6 ADD MSTORE PUSH2 0x342E PUSH1 0xA DUP3 ADD PUSH2 0x2C3B JUMP JUMPDEST PUSH2 0x100 DUP6 ADD MSTORE ADD PUSH2 0x2B9B JUMP JUMPDEST PUSH2 0x120 DUP3 ADD MSTORE SWAP1 JUMP JUMPDEST SWAP3 SWAP2 SWAP1 PUSH1 0x40 MLOAD PUSH1 0x20 DUP6 MLOAD SWAP2 DUP2 DUP2 DUP2 DUP10 ADD SWAP5 DUP1 DUP7 DUP4 MCOPY DUP2 ADD PUSH0 DUP2 MSTORE SUB ADD SWAP1 KECCAK256 SWAP6 PUSH1 0x40 MLOAD SWAP3 DUP4 SWAP2 MLOAD DUP1 SWAP2 DUP4 MCOPY DUP2 ADD PUSH1 0x1 DUP2 MSTORE SUB ADD SWAP1 KECCAK256 SWAP1 DUP1 MLOAD SWAP1 PUSH1 0x1 PUSH1 0x1 PUSH1 0x40 SHL SUB DUP3 GT PUSH2 0x697 JUMPI DUP2 SWAP1 PUSH2 0x3495 DUP5 SLOAD PUSH2 0x2B63 JUMP JUMPDEST PUSH1 0x1F DUP2 GT PUSH2 0x3790 JUMPI JUMPDEST POP PUSH1 0x20 SWAP1 PUSH1 0x1F DUP4 GT PUSH1 0x1 EQ PUSH2 0x372D JUMPI PUSH0 SWAP3 PUSH2 0x3722 JUMPI JUMPDEST POP POP DUP2 PUSH1 0x1 SHL SWAP2 PUSH0 NOT SWAP1 PUSH1 0x3 SHL SHR NOT AND OR SWAP1 SSTORE JUMPDEST DUP1 MLOAD DUP1 MLOAD PUSH1 0xA DUP6 ADD SWAP2 PUSH1 0x1 PUSH1 0x1 PUSH1 0x40 SHL SUB DUP3 GT PUSH2 0x697 JUMPI PUSH2 0x34E9 DUP4 SLOAD PUSH2 0x2B63 JUMP JUMPDEST PUSH1 0x1F DUP2 GT PUSH2 0x36DD JUMPI JUMPDEST POP PUSH1 0x20 SWAP1 PUSH1 0x1F DUP4 GT PUSH1 0x1 EQ PUSH2 0x3676 JUMPI PUSH1 0x20 SWAP5 SWAP4 SWAP3 SWAP2 PUSH0 SWAP2 DUP4 PUSH2 0x366B JUMPI JUMPDEST POP POP DUP2 PUSH1 0x1 SHL SWAP2 PUSH0 NOT SWAP1 PUSH1 0x3 SHL SHR NOT AND OR SWAP1 SSTORE JUMPDEST PUSH1 0x40 DUP2 ADD MLOAD PUSH1 0xC DUP6 ADD DUP1 SLOAD PUSH1 0x1 PUSH1 0x1 PUSH1 0xA0 SHL SUB NOT AND PUSH1 0x1 PUSH1 0x1 PUSH1 0xA0 SHL SUB SWAP3 SWAP1 SWAP3 AND SWAP2 SWAP1 SWAP2 OR SWAP1 SSTORE ADD MLOAD DUP1 MLOAD SWAP1 SWAP3 SWAP1 PUSH1 0xB DUP3 ADD SWAP1 PUSH1 0x1 PUSH1 0x1 PUSH1 0x40 SHL SUB DUP2 GT PUSH2 0x697 JUMPI PUSH2 0x356E DUP3 SLOAD PUSH2 0x2B63 JUMP JUMPDEST PUSH1 0x1F DUP2 GT PUSH2 0x3626 JUMPI JUMPDEST POP PUSH1 0x20 SWAP5 PUSH1 0x1F DUP3 GT PUSH1 0x1 EQ PUSH2 0x35C5 JUMPI SWAP5 DUP2 SWAP3 SWAP4 SWAP5 SWAP6 PUSH0 SWAP3 PUSH2 0x35BA JUMPI JUMPDEST POP POP DUP2 PUSH1 0x1 SHL SWAP2 PUSH0 NOT SWAP1 PUSH1 0x3 SHL SHR NOT AND OR SWAP1 SSTORE JUMPDEST TIMESTAMP PUSH1 0x3 DUP3 ADD SSTORE DUP1 SLOAD PUSH1 0xFF NOT AND PUSH1 0x2 OR SWAP1 SSTORE JUMP JUMPDEST ADD MLOAD SWAP1 POP PUSH0 DUP1 PUSH2 0x3593 JUMP JUMPDEST PUSH1 0x1F NOT DUP3 AND SWAP6 DUP4 PUSH0 MSTORE DUP1 PUSH0 KECCAK256 SWAP2 PUSH0 JUMPDEST DUP9 DUP2 LT PUSH2 0x360E JUMPI POP DUP4 PUSH1 0x1 SWAP6 SWAP7 SWAP8 SWAP9 LT PUSH2 0x35F6 JUMPI JUMPDEST POP POP POP DUP2 SHL ADD SWAP1 SSTORE PUSH2 0x35A7 JUMP JUMPDEST ADD MLOAD PUSH0 NOT PUSH1 0xF8 DUP5 PUSH1 0x3 SHL AND SHR NOT AND SWAP1 SSTORE PUSH0 DUP1 DUP1 PUSH2 0x35E9 JUMP JUMPDEST SWAP2 SWAP3 PUSH1 0x20 PUSH1 0x1 DUP2 SWAP3 DUP7 DUP6 ADD MLOAD DUP2 SSTORE ADD SWAP5 ADD SWAP3 ADD PUSH2 0x35D4 JUMP JUMPDEST DUP3 PUSH0 MSTORE PUSH1 0x20 PUSH0 KECCAK256 PUSH1 0x1F DUP4 ADD PUSH1 0x5 SHR DUP2 ADD SWAP2 PUSH1 0x20 DUP5 LT PUSH2 0x3661 JUMPI JUMPDEST PUSH1 0x1F ADD PUSH1 0x5 SHR ADD SWAP1 JUMPDEST DUP2 DUP2 LT PUSH2 0x3656 JUMPI POP PUSH2 0x3577 JUMP JUMPDEST PUSH0 DUP2 SSTORE PUSH1 0x1 ADD PUSH2 0x3649 JUMP JUMPDEST SWAP1 SWAP2 POP DUP2 SWAP1 PUSH2 0x3640 JUMP JUMPDEST ADD MLOAD SWAP1 POP PUSH0 DUP1 PUSH2 0x350F JUMP JUMPDEST SWAP1 PUSH1 0x1F NOT DUP4 AND SWAP2 DUP5 PUSH0 MSTORE DUP2 PUSH0 KECCAK256 SWAP3 PUSH0 JUMPDEST DUP2 DUP2 LT PUSH2 0x36C5 JUMPI POP SWAP2 PUSH1 0x1 SWAP4 SWAP2 DUP6 PUSH1 0x20 SWAP9 SWAP8 SWAP7 SWAP5 LT PUSH2 0x36AD JUMPI JUMPDEST POP POP POP DUP2 SHL ADD SWAP1 SSTORE PUSH2 0x3523 JUMP JUMPDEST ADD MLOAD PUSH0 NOT PUSH1 0xF8 DUP5 PUSH1 0x3 SHL AND SHR NOT AND SWAP1 SSTORE PUSH0 DUP1 DUP1 PUSH2 0x36A0 JUMP JUMPDEST SWAP3 SWAP4 PUSH1 0x20 PUSH1 0x1 DUP2 SWAP3 DUP8 DUP7 ADD MLOAD DUP2 SSTORE ADD SWAP6 ADD SWAP4 ADD PUSH2 0x3686 JUMP JUMPDEST DUP4 PUSH0 MSTORE PUSH1 0x20 PUSH0 KECCAK256 PUSH1 0x1F DUP5 ADD PUSH1 0x5 SHR DUP2 ADD SWAP2 PUSH1 0x20 DUP6 LT PUSH2 0x3718 JUMPI JUMPDEST PUSH1 0x1F ADD PUSH1 0x5 SHR ADD SWAP1 JUMPDEST DUP2 DUP2 LT PUSH2 0x370D JUMPI POP PUSH2 0x34F2 JUMP JUMPDEST PUSH0 DUP2 SSTORE PUSH1 0x1 ADD PUSH2 0x3700 JUMP JUMPDEST SWAP1 SWAP2 POP DUP2 SWAP1 PUSH2 0x36F7 JUMP JUMPDEST ADD MLOAD SWAP1 POP PUSH0 DUP1 PUSH2 0x34B4 JUMP JUMPDEST PUSH0 DUP6 DUP2 MSTORE DUP3 DUP2 KECCAK256 SWAP4 POP PUSH1 0x1F NOT DUP6 AND SWAP1 JUMPDEST DUP2 DUP2 LT PUSH2 0x3778 JUMPI POP SWAP1 DUP5 PUSH1 0x1 SWAP6 SWAP5 SWAP4 SWAP3 LT PUSH2 0x3760 JUMPI JUMPDEST POP POP POP DUP2 SHL ADD SWAP1 SSTORE PUSH2 0x34C8 JUMP JUMPDEST ADD MLOAD PUSH0 NOT PUSH1 0xF8 DUP5 PUSH1 0x3 SHL AND SHR NOT AND SWAP1 SSTORE PUSH0 DUP1 DUP1 PUSH2 0x3753 JUMP JUMPDEST SWAP3 SWAP4 PUSH1 0x20 PUSH1 0x1 DUP2 SWAP3 DUP8 DUP7 ADD MLOAD DUP2 SSTORE ADD SWAP6 ADD SWAP4 ADD PUSH2 0x373D JUMP JUMPDEST SWAP1 SWAP2 POP DUP4 PUSH0 MSTORE PUSH1 0x20 PUSH0 KECCAK256 PUSH1 0x1F DUP5 ADD PUSH1 0x5 SHR DUP2 ADD SWAP2 PUSH1 0x20 DUP6 LT PUSH2 0x37D6 JUMPI JUMPDEST SWAP1 PUSH1 0x1F DUP6 SWAP5 SWAP4 SWAP3 ADD PUSH1 0x5 SHR ADD SWAP1 JUMPDEST DUP2 DUP2 LT PUSH2 0x37C8 JUMPI POP PUSH2 0x349E JUMP JUMPDEST PUSH0 DUP2 SSTORE DUP5 SWAP4 POP PUSH1 0x1 ADD PUSH2 0x37BB JUMP JUMPDEST SWAP1 SWAP2 POP DUP2 SWAP1 PUSH2 0x37AD JUMP JUMPDEST PUSH1 0x20 DUP1 SWAP2 SWAP5 SWAP4 SWAP3 SWAP5 PUSH1 0x40 MLOAD SWAP3 DUP2 DUP5 SWAP3 MLOAD SWAP2 DUP3 SWAP2 ADD DUP4 MCOPY DUP2 ADD PUSH0 DUP2 MSTORE SUB ADD SWAP1 KECCAK256 SWAP1 DUP1 MLOAD PUSH1 0xA DUP4 ADD SWAP1 DUP1 MLOAD SWAP1 PUSH1 0x1 PUSH1 0x1 PUSH1 0x40 SHL SUB DUP3 GT PUSH2 0x697 JUMPI PUSH2 0x3822 DUP4 SLOAD PUSH2 0x2B63 JUMP JUMPDEST PUSH1 0x1F DUP2 GT PUSH2 0x3B2E JUMPI JUMPDEST POP PUSH1 0x20 SWAP1 PUSH1 0x1F DUP4 GT PUSH1 0x1 EQ PUSH2 0x3AC7 JUMPI PUSH1 0x20 SWAP5 SWAP4 SWAP3 SWAP2 PUSH0 SWAP2 DUP4 PUSH2 0x3ABC JUMPI JUMPDEST POP POP DUP2 PUSH1 0x1 SHL SWAP2 PUSH0 NOT SWAP1 PUSH1 0x3 SHL SHR NOT AND OR SWAP1 SSTORE JUMPDEST PUSH1 0x40 DUP2 ADD MLOAD PUSH1 0xC DUP5 ADD DUP1 SLOAD PUSH1 0x1 PUSH1 0x1 PUSH1 0xA0 SHL SUB NOT AND PUSH1 0x1 PUSH1 0x1 PUSH1 0xA0 SHL SUB SWAP3 SWAP1 SWAP3 AND SWAP2 SWAP1 SWAP2 OR SWAP1 SSTORE ADD MLOAD DUP1 MLOAD PUSH1 0xB DUP4 ADD SWAP2 PUSH1 0x1 PUSH1 0x1 PUSH1 0x40 SHL SUB DUP3 GT PUSH2 0x697 JUMPI DUP2 SWAP1 PUSH2 0x38A6 DUP5 SLOAD PUSH2 0x2B63 JUMP JUMPDEST PUSH1 0x1F DUP2 GT PUSH2 0x3A6C JUMPI JUMPDEST POP PUSH1 0x20 SWAP1 PUSH1 0x1F DUP4 GT PUSH1 0x1 EQ PUSH2 0x3A09 JUMPI PUSH0 SWAP3 PUSH2 0x39FE JUMPI JUMPDEST POP POP DUP2 PUSH1 0x1 SHL SWAP2 PUSH0 NOT SWAP1 PUSH1 0x3 SHL SHR NOT AND OR SWAP1 SSTORE JUMPDEST TIMESTAMP PUSH1 0x2 DUP3 ADD SSTORE PUSH1 0x82 TIMESTAMP ADD SWAP1 DUP2 TIMESTAMP GT PUSH2 0x3287 JUMPI PUSH1 0xD SWAP2 PUSH1 0x5 DUP3 ADD SSTORE PUSH1 0x1 PUSH1 0xFF NOT DUP3 SLOAD AND OR DUP2 SSTORE ADD DUP3 MLOAD PUSH1 0x1 PUSH1 0x1 PUSH1 0x40 SHL SUB DUP2 GT PUSH2 0x697 JUMPI PUSH2 0x3919 DUP3 SLOAD PUSH2 0x2B63 JUMP JUMPDEST PUSH1 0x1F DUP2 GT PUSH2 0x39B9 JUMPI JUMPDEST POP PUSH1 0x20 PUSH1 0x1F DUP3 GT PUSH1 0x1 EQ PUSH2 0x395B JUMPI DUP2 SWAP3 SWAP4 SWAP5 PUSH0 SWAP3 PUSH2 0x3950 JUMPI JUMPDEST POP POP DUP2 PUSH1 0x1 SHL SWAP2 PUSH0 NOT SWAP1 PUSH1 0x3 SHL SHR NOT AND OR SWAP1 SSTORE JUMP JUMPDEST ADD MLOAD SWAP1 POP PUSH0 DUP1 PUSH2 0x393B JUMP JUMPDEST PUSH1 0x1F NOT DUP3 AND SWAP1 DUP4 PUSH0 MSTORE DUP1 PUSH0 KECCAK256 SWAP2 PUSH0 JUMPDEST DUP2 DUP2 LT PUSH2 0x39A1 JUMPI POP SWAP6 DUP4 PUSH1 0x1 SWAP6 SWAP7 SWAP8 LT PUSH2 0x3989 JUMPI JUMPDEST POP POP POP DUP2 SHL ADD SWAP1 SSTORE JUMP JUMPDEST ADD MLOAD PUSH0 NOT PUSH1 0xF8 DUP5 PUSH1 0x3 SHL AND SHR NOT AND SWAP1 SSTORE PUSH0 DUP1 DUP1 PUSH2 0x397F JUMP JUMPDEST SWAP2 SWAP3 PUSH1 0x20 PUSH1 0x1 DUP2 SWAP3 DUP7 DUP12 ADD MLOAD DUP2 SSTORE ADD SWAP5 ADD SWAP3 ADD PUSH2 0x396A JUMP JUMPDEST DUP3 PUSH0 MSTORE PUSH1 0x20 PUSH0 KECCAK256 PUSH1 0x1F DUP4 ADD PUSH1 0x5 SHR DUP2 ADD SWAP2 PUSH1 0x20 DUP5 LT PUSH2 0x39F4 JUMPI JUMPDEST PUSH1 0x1F ADD PUSH1 0x5 SHR ADD SWAP1 JUMPDEST DUP2 DUP2 LT PUSH2 0x39E9 JUMPI POP PUSH2 0x3922 JUMP JUMPDEST PUSH0 DUP2 SSTORE PUSH1 0x1 ADD PUSH2 0x39DC JUMP JUMPDEST SWAP1 SWAP2 POP DUP2 SWAP1 PUSH2 0x39D3 JUMP JUMPDEST ADD MLOAD SWAP1 POP PUSH0 DUP1 PUSH2 0x38C5 JUMP JUMPDEST PUSH0 DUP6 DUP2 MSTORE DUP3 DUP2 KECCAK256 SWAP4 POP PUSH1 0x1F NOT DUP6 AND SWAP1 JUMPDEST DUP2 DUP2 LT PUSH2 0x3A54 JUMPI POP SWAP1 DUP5 PUSH1 0x1 SWAP6 SWAP5 SWAP4 SWAP3 LT PUSH2 0x3A3C JUMPI JUMPDEST POP POP POP DUP2 SHL ADD SWAP1 SSTORE PUSH2 0x38D9 JUMP JUMPDEST ADD MLOAD PUSH0 NOT PUSH1 0xF8 DUP5 PUSH1 0x3 SHL AND SHR NOT AND SWAP1 SSTORE PUSH0 DUP1 DUP1 PUSH2 0x3A2F JUMP JUMPDEST SWAP3 SWAP4 PUSH1 0x20 PUSH1 0x1 DUP2 SWAP3 DUP8 DUP7 ADD MLOAD DUP2 SSTORE ADD SWAP6 ADD SWAP4 ADD PUSH2 0x3A19 JUMP JUMPDEST SWAP1 SWAP2 POP DUP4 PUSH0 MSTORE PUSH1 0x20 PUSH0 KECCAK256 PUSH1 0x1F DUP5 ADD PUSH1 0x5 SHR DUP2 ADD SWAP2 PUSH1 0x20 DUP6 LT PUSH2 0x3AB2 JUMPI JUMPDEST SWAP1 PUSH1 0x1F DUP6 SWAP5 SWAP4 SWAP3 ADD PUSH1 0x5 SHR ADD SWAP1 JUMPDEST DUP2 DUP2 LT PUSH2 0x3AA4 JUMPI POP PUSH2 0x38AF JUMP JUMPDEST PUSH0 DUP2 SSTORE DUP5 SWAP4 POP PUSH1 0x1 ADD PUSH2 0x3A97 JUMP JUMPDEST SWAP1 SWAP2 POP DUP2 SWAP1 PUSH2 0x3A89 JUMP JUMPDEST ADD MLOAD SWAP1 POP PUSH0 DUP1 PUSH2 0x3848 JUMP JUMPDEST SWAP1 PUSH1 0x1F NOT DUP4 AND SWAP2 DUP5 PUSH0 MSTORE DUP2 PUSH0 KECCAK256 SWAP3 PUSH0 JUMPDEST DUP2 DUP2 LT PUSH2 0x3B16 JUMPI POP SWAP2 PUSH1 0x1 SWAP4 SWAP2 DUP6 PUSH1 0x20 SWAP9 SWAP8 SWAP7 SWAP5 LT PUSH2 0x3AFE JUMPI JUMPDEST POP POP POP DUP2 SHL ADD SWAP1 SSTORE PUSH2 0x385C JUMP JUMPDEST ADD MLOAD PUSH0 NOT PUSH1 0xF8 DUP5 PUSH1 0x3 SHL AND SHR NOT AND SWAP1 SSTORE PUSH0 DUP1 DUP1 PUSH2 0x3AF1 JUMP JUMPDEST SWAP3 SWAP4 PUSH1 0x20 PUSH1 0x1 DUP2 SWAP3 DUP8 DUP7 ADD MLOAD DUP2 SSTORE ADD SWAP6 ADD SWAP4 ADD PUSH2 0x3AD7 JUMP JUMPDEST DUP4 PUSH0 MSTORE PUSH1 0x20 PUSH0 KECCAK256 PUSH1 0x1F DUP5 ADD PUSH1 0x5 SHR DUP2 ADD SWAP2 PUSH1 0x20 DUP6 LT PUSH2 0x3B69 JUMPI JUMPDEST PUSH1 0x1F ADD PUSH1 0x5 SHR ADD SWAP1 JUMPDEST DUP2 DUP2 LT PUSH2 0x3B5E JUMPI POP PUSH2 0x382B JUMP JUMPDEST PUSH0 DUP2 SSTORE PUSH1 0x1 ADD PUSH2 0x3B51 JUMP JUMPDEST SWAP1 SWAP2 POP DUP2 SWAP1 PUSH2 0x3B48 JUMP JUMPDEST PUSH1 0x20 DUP1 SWAP2 SWAP4 SWAP3 SWAP4 PUSH1 0x40 MLOAD SWAP3 DUP2 DUP5 SWAP3 MLOAD SWAP2 DUP3 SWAP2 ADD DUP4 MCOPY DUP2 ADD PUSH0 DUP2 MSTORE SUB ADD SWAP1 KECCAK256 TIMESTAMP PUSH1 0x2 DUP3 ADD SSTORE PUSH1 0x82 TIMESTAMP ADD SWAP1 DUP2 TIMESTAMP GT PUSH2 0x3287 JUMPI PUSH1 0xD SWAP2 PUSH1 0x5 DUP3 ADD SSTORE PUSH1 0x6 PUSH1 0xFF NOT DUP3 SLOAD AND OR DUP2 SSTORE ADD DUP3 MLOAD PUSH1 0x1 PUSH1 0x1 PUSH1 0x40 SHL SUB DUP2 GT PUSH2 0x697 JUMPI PUSH2 0x3BD1 DUP3 SLOAD PUSH2 0x2B63 JUMP JUMPDEST PUSH1 0x1F DUP2 GT PUSH2 0x3C4C JUMPI JUMPDEST POP PUSH1 0x20 PUSH1 0x1F DUP3 GT PUSH1 0x1 EQ PUSH2 0x3C07 JUMPI DUP2 SWAP3 SWAP4 SWAP5 PUSH0 SWAP3 PUSH2 0x3950 JUMPI POP POP DUP2 PUSH1 0x1 SHL SWAP2 PUSH0 NOT SWAP1 PUSH1 0x3 SHL SHR NOT AND OR SWAP1 SSTORE JUMP JUMPDEST PUSH1 0x1F NOT DUP3 AND SWAP1 DUP4 PUSH0 MSTORE DUP1 PUSH0 KECCAK256 SWAP2 PUSH0 JUMPDEST DUP2 DUP2 LT PUSH2 0x3C34 JUMPI POP SWAP6 DUP4 PUSH1 0x1 SWAP6 SWAP7 SWAP8 LT PUSH2 0x3989 JUMPI POP POP POP DUP2 SHL ADD SWAP1 SSTORE JUMP JUMPDEST SWAP2 SWAP3 PUSH1 0x20 PUSH1 0x1 DUP2 SWAP3 DUP7 DUP12 ADD MLOAD DUP2 SSTORE ADD SWAP5 ADD SWAP3 ADD PUSH2 0x3C16 JUMP JUMPDEST DUP3 PUSH0 MSTORE PUSH1 0x20 PUSH0 KECCAK256 PUSH1 0x1F DUP4 ADD PUSH1 0x5 SHR DUP2 ADD SWAP2 PUSH1 0x20 DUP5 LT PUSH2 0x3C87 JUMPI JUMPDEST PUSH1 0x1F ADD PUSH1 0x5 SHR ADD SWAP1 JUMPDEST DUP2 DUP2 LT PUSH2 0x3C7C JUMPI POP PUSH2 0x3BDA JUMP JUMPDEST PUSH0 DUP2 SSTORE PUSH1 0x1 ADD PUSH2 0x3C6F JUMP JUMPDEST SWAP1 SWAP2 POP DUP2 SWAP1 PUSH2 0x3C66 JUMP JUMPDEST SWAP3 SWAP1 SWAP2 PUSH1 0x40 MLOAD PUSH2 0x3CA0 DUP2 PUSH2 0x2A59 JUMP JUMPDEST PUSH0 DUP2 MSTORE PUSH1 0x20 DUP2 ADD SWAP5 TIMESTAMP DUP7 MSTORE PUSH1 0x40 DUP3 ADD PUSH0 DUP2 MSTORE PUSH1 0x60 DUP4 ADD PUSH0 DUP2 MSTORE PUSH1 0x80 DUP5 ADD PUSH0 DUP2 MSTORE PUSH1 0xA0 DUP6 ADD SWAP2 PUSH0 DUP4 MSTORE PUSH1 0xC0 DUP7 ADD SWAP4 PUSH0 DUP6 MSTORE PUSH1 0xE0 DUP8 ADD SWAP6 DUP7 MSTORE PUSH2 0x100 DUP8 ADD SWAP10 DUP11 MSTORE PUSH1 0x20 SWAP11 DUP12 DUP1 PUSH1 0x40 MLOAD SWAP11 PUSH2 0x3CF2 DUP3 DUP14 PUSH2 0x2A75 JUMP JUMPDEST PUSH0 DUP13 MSTORE PUSH2 0x120 DUP12 ADD SWAP12 DUP13 MSTORE PUSH1 0x40 MLOAD SWAP3 DUP2 DUP5 SWAP3 MLOAD SWAP2 DUP3 SWAP2 ADD DUP4 MCOPY DUP2 ADD PUSH0 DUP2 MSTORE SUB ADD SWAP1 KECCAK256 SWAP8 MLOAD PUSH1 0x7 DUP2 LT ISZERO PUSH2 0x1DA3 JUMPI PUSH1 0xFF DUP1 NOT DUP11 SLOAD AND SWAP2 AND OR DUP9 SSTORE MLOAD PUSH1 0x1 DUP9 ADD SSTORE MLOAD PUSH1 0x2 DUP8 ADD SSTORE MLOAD PUSH1 0x3 DUP7 ADD SSTORE MLOAD PUSH1 0x4 DUP6 ADD SSTORE MLOAD PUSH1 0x5 DUP5 ADD SSTORE MLOAD PUSH1 0x6 DUP4 ADD SSTORE PUSH1 0x7 DUP3 ADD SWAP1 MLOAD SWAP1 DUP2 MLOAD DUP1 MLOAD SWAP1 PUSH1 0x1 PUSH1 0x1 PUSH1 0x40 SHL SUB DUP3 GT PUSH2 0x697 JUMPI DUP2 SWAP1 PUSH2 0x3D75 DUP5 SLOAD PUSH2 0x2B63 JUMP JUMPDEST PUSH1 0x1F DUP2 GT PUSH2 0x4282 JUMPI JUMPDEST POP DUP10 SWAP1 PUSH1 0x1F DUP4 GT PUSH1 0x1 EQ PUSH2 0x421F JUMPI PUSH0 SWAP3 PUSH2 0x4214 JUMPI JUMPDEST POP POP DUP2 PUSH1 0x1 SHL SWAP2 PUSH0 NOT SWAP1 PUSH1 0x3 SHL SHR NOT AND OR SWAP1 SSTORE JUMPDEST PUSH1 0x8 DUP3 ADD DUP7 DUP3 ADD MLOAD DUP1 MLOAD SWAP1 PUSH1 0x1 PUSH1 0x1 PUSH1 0x40 SHL SUB DUP3 GT PUSH2 0x697 JUMPI DUP2 SWAP1 PUSH2 0x3DCC DUP5 SLOAD PUSH2 0x2B63 JUMP JUMPDEST PUSH1 0x1F DUP2 GT PUSH2 0x41C6 JUMPI JUMPDEST POP DUP10 SWAP1 PUSH1 0x1F DUP4 GT PUSH1 0x1 EQ PUSH2 0x4163 JUMPI PUSH0 SWAP3 PUSH2 0x4158 JUMPI JUMPDEST POP POP DUP2 PUSH1 0x1 SHL SWAP2 PUSH0 NOT SWAP1 PUSH1 0x3 SHL SHR NOT AND OR SWAP1 SSTORE JUMPDEST PUSH1 0x40 ADD MLOAD PUSH1 0x9 DUP3 ADD DUP1 SLOAD PUSH1 0x1 PUSH1 0x1 PUSH1 0xA0 SHL SUB NOT AND PUSH1 0x1 PUSH1 0x1 PUSH1 0xA0 SHL SUB SWAP3 SWAP1 SWAP3 AND SWAP2 SWAP1 SWAP2 OR SWAP1 SSTORE SWAP3 MLOAD DUP1 MLOAD DUP1 MLOAD SWAP2 SWAP5 SWAP2 PUSH1 0xA DUP4 ADD SWAP2 PUSH1 0x1 PUSH1 0x1 PUSH1 0x40 SHL SUB DUP3 GT PUSH2 0x697 JUMPI DUP2 SWAP1 PUSH2 0x3E4C DUP5 SLOAD PUSH2 0x2B63 JUMP JUMPDEST PUSH1 0x1F DUP2 GT PUSH2 0x410A JUMPI JUMPDEST POP DUP9 SWAP1 PUSH1 0x1F DUP4 GT PUSH1 0x1 EQ PUSH2 0x40A7 JUMPI PUSH0 SWAP3 PUSH2 0x409C JUMPI JUMPDEST POP POP DUP2 PUSH1 0x1 SHL SWAP2 PUSH0 NOT SWAP1 PUSH1 0x3 SHL SHR NOT AND OR SWAP1 SSTORE JUMPDEST PUSH1 0xB DUP2 ADD SWAP4 DUP6 DUP2 ADD MLOAD SWAP5 DUP6 MLOAD SWAP6 PUSH1 0x1 PUSH1 0x1 PUSH1 0x40 SHL SUB DUP8 GT PUSH2 0x697 JUMPI PUSH2 0x3EA3 DUP3 SLOAD PUSH2 0x2B63 JUMP JUMPDEST PUSH1 0x1F DUP2 GT PUSH2 0x4059 JUMPI JUMPDEST POP DUP8 SWAP1 PUSH1 0x1F DUP9 GT PUSH1 0x1 EQ PUSH2 0x3FF2 JUMPI SWAP7 DUP1 SWAP2 PUSH1 0xD SWAP7 SWAP8 SWAP9 PUSH0 SWAP3 PUSH2 0x3FE7 JUMPI JUMPDEST POP POP DUP2 PUSH1 0x1 SHL SWAP2 PUSH0 NOT SWAP1 PUSH1 0x3 SHL SHR NOT AND OR SWAP1 SSTORE JUMPDEST PUSH1 0x40 ADD MLOAD PUSH1 0xC DUP3 ADD DUP1 SLOAD PUSH1 0x1 PUSH1 0x1 PUSH1 0xA0 SHL SUB NOT AND PUSH1 0x1 PUSH1 0x1 PUSH1 0xA0 SHL SUB SWAP3 SWAP1 SWAP3 AND SWAP2 SWAP1 SWAP2 OR SWAP1 SSTORE SWAP2 MLOAD DUP1 MLOAD SWAP1 SWAP5 SWAP2 SWAP1 SWAP3 ADD SWAP2 SWAP1 PUSH1 0x1 PUSH1 0x1 PUSH1 0x40 SHL SUB DUP3 GT PUSH2 0x697 JUMPI PUSH2 0x3F27 DUP4 SLOAD PUSH2 0x2B63 JUMP JUMPDEST PUSH1 0x1F DUP2 GT PUSH2 0x3FA4 JUMPI JUMPDEST POP DUP1 PUSH1 0x1F DUP4 GT PUSH1 0x1 EQ PUSH2 0x3F5D JUMPI POP DUP2 SWAP3 SWAP4 SWAP5 PUSH0 SWAP3 PUSH2 0x3950 JUMPI POP POP DUP2 PUSH1 0x1 SHL SWAP2 PUSH0 NOT SWAP1 PUSH1 0x3 SHL SHR NOT AND OR SWAP1 SSTORE JUMP JUMPDEST SWAP1 PUSH1 0x1F NOT DUP4 AND SWAP6 DUP5 PUSH0 MSTORE DUP3 PUSH0 KECCAK256 SWAP3 PUSH0 SWAP1 JUMPDEST DUP9 DUP3 LT PUSH2 0x3F8C JUMPI POP POP DUP4 PUSH1 0x1 SWAP6 SWAP7 SWAP8 LT PUSH2 0x3989 JUMPI POP POP POP DUP2 SHL ADD SWAP1 SSTORE JUMP JUMPDEST DUP1 PUSH1 0x1 DUP6 SWAP7 DUP3 SWAP5 SWAP7 DUP7 ADD MLOAD DUP2 SSTORE ADD SWAP6 ADD SWAP4 ADD SWAP1 PUSH2 0x3F6E JUMP JUMPDEST DUP4 PUSH0 MSTORE DUP2 PUSH0 KECCAK256 PUSH1 0x1F DUP5 ADD PUSH1 0x5 SHR DUP2 ADD SWAP2 DUP4 DUP6 LT PUSH2 0x3FDD JUMPI JUMPDEST PUSH1 0x1F ADD PUSH1 0x5 SHR ADD SWAP1 JUMPDEST DUP2 DUP2 LT PUSH2 0x3FD2 JUMPI POP PUSH2 0x3F30 JUMP JUMPDEST PUSH0 DUP2 SSTORE PUSH1 0x1 ADD PUSH2 0x3FC5 JUMP JUMPDEST SWAP1 SWAP2 POP DUP2 SWAP1 PUSH2 0x3FBC JUMP JUMPDEST ADD MLOAD SWAP1 POP PUSH0 DUP1 PUSH2 0x3EC9 JUMP JUMPDEST SWAP1 PUSH1 0x1F NOT DUP9 AND SWAP2 DUP4 PUSH0 MSTORE DUP10 PUSH0 KECCAK256 SWAP3 PUSH0 JUMPDEST DUP12 DUP3 DUP3 LT PUSH2 0x4043 JUMPI POP POP SWAP2 PUSH1 0x1 SWAP4 SWAP2 DUP11 PUSH1 0xD SWAP10 SWAP11 SWAP12 SWAP5 LT PUSH2 0x402B JUMPI JUMPDEST POP POP POP DUP2 SHL ADD SWAP1 SSTORE PUSH2 0x3EDD JUMP JUMPDEST ADD MLOAD PUSH0 NOT PUSH1 0xF8 DUP5 PUSH1 0x3 SHL AND SHR NOT AND SWAP1 SSTORE PUSH0 DUP1 DUP1 PUSH2 0x401E JUMP JUMPDEST PUSH1 0x1 DUP6 SWAP7 DUP3 SWAP4 SWAP7 DUP7 ADD MLOAD DUP2 SSTORE ADD SWAP6 ADD SWAP4 ADD PUSH2 0x4002 JUMP JUMPDEST DUP3 PUSH0 MSTORE DUP9 PUSH0 KECCAK256 PUSH1 0x1F DUP10 ADD PUSH1 0x5 SHR DUP2 ADD SWAP2 DUP11 DUP11 LT PUSH2 0x4092 JUMPI JUMPDEST PUSH1 0x1F ADD PUSH1 0x5 SHR ADD SWAP1 JUMPDEST DUP2 DUP2 LT PUSH2 0x4087 JUMPI POP PUSH2 0x3EAC JUMP JUMPDEST PUSH0 DUP2 SSTORE PUSH1 0x1 ADD PUSH2 0x407A JUMP JUMPDEST SWAP1 SWAP2 POP DUP2 SWAP1 PUSH2 0x4071 JUMP JUMPDEST ADD MLOAD SWAP1 POP PUSH0 DUP1 PUSH2 0x3E6A JUMP JUMPDEST PUSH0 DUP6 DUP2 MSTORE DUP11 DUP2 KECCAK256 SWAP4 POP PUSH1 0x1F NOT DUP6 AND SWAP1 JUMPDEST DUP12 DUP3 DUP3 LT PUSH2 0x40F4 JUMPI POP POP SWAP1 DUP5 PUSH1 0x1 SWAP6 SWAP5 SWAP4 SWAP3 LT PUSH2 0x40DC JUMPI JUMPDEST POP POP POP DUP2 SHL ADD SWAP1 SSTORE PUSH2 0x3E7E JUMP JUMPDEST ADD MLOAD PUSH0 NOT PUSH1 0xF8 DUP5 PUSH1 0x3 SHL AND SHR NOT AND SWAP1 SSTORE PUSH0 DUP1 DUP1 PUSH2 0x40CF JUMP JUMPDEST PUSH1 0x1 DUP6 SWAP7 DUP3 SWAP4 SWAP7 DUP7 ADD MLOAD DUP2 SSTORE ADD SWAP6 ADD SWAP4 ADD PUSH2 0x40B7 JUMP JUMPDEST SWAP1 SWAP2 POP DUP4 PUSH0 MSTORE DUP9 PUSH0 KECCAK256 PUSH1 0x1F DUP5 ADD PUSH1 0x5 SHR DUP2 ADD SWAP2 DUP11 DUP6 LT PUSH2 0x414E JUMPI JUMPDEST SWAP1 PUSH1 0x1F DUP6 SWAP5 SWAP4 SWAP3 ADD PUSH1 0x5 SHR ADD SWAP1 JUMPDEST DUP2 DUP2 LT PUSH2 0x4140 JUMPI POP PUSH2 0x3E55 JUMP JUMPDEST PUSH0 DUP2 SSTORE DUP5 SWAP4 POP PUSH1 0x1 ADD PUSH2 0x4133 JUMP JUMPDEST SWAP1 SWAP2 POP DUP2 SWAP1 PUSH2 0x4125 JUMP JUMPDEST ADD MLOAD SWAP1 POP PUSH0 DUP1 PUSH2 0x3DEA JUMP JUMPDEST PUSH0 DUP6 DUP2 MSTORE DUP12 DUP2 KECCAK256 SWAP4 POP PUSH1 0x1F NOT DUP6 AND SWAP1 JUMPDEST DUP13 DUP3 DUP3 LT PUSH2 0x41B0 JUMPI POP POP SWAP1 DUP5 PUSH1 0x1 SWAP6 SWAP5 SWAP4 SWAP3 LT PUSH2 0x4198 JUMPI JUMPDEST POP POP POP DUP2 SHL ADD SWAP1 SSTORE PUSH2 0x3DFE JUMP JUMPDEST ADD MLOAD PUSH0 NOT PUSH1 0xF8 DUP5 PUSH1 0x3 SHL AND SHR NOT AND SWAP1 SSTORE PUSH0 DUP1 DUP1 PUSH2 0x418B JUMP JUMPDEST PUSH1 0x1 DUP6 SWAP7 DUP3 SWAP4 SWAP7 DUP7 ADD MLOAD DUP2 SSTORE ADD SWAP6 ADD SWAP4 ADD PUSH2 0x4173 JUMP JUMPDEST SWAP1 SWAP2 POP DUP4 PUSH0 MSTORE DUP10 PUSH0 KECCAK256 PUSH1 0x1F DUP5 ADD PUSH1 0x5 SHR DUP2 ADD SWAP2 DUP12 DUP6 LT PUSH2 0x420A JUMPI JUMPDEST SWAP1 PUSH1 0x1F DUP6 SWAP5 SWAP4 SWAP3 ADD PUSH1 0x5 SHR ADD SWAP1 JUMPDEST DUP2 DUP2 LT PUSH2 0x41FC JUMPI POP PUSH2 0x3DD5 JUMP JUMPDEST PUSH0 DUP2 SSTORE DUP5 SWAP4 POP PUSH1 0x1 ADD PUSH2 0x41EF JUMP JUMPDEST SWAP1 SWAP2 POP DUP2 SWAP1 PUSH2 0x41E1 JUMP JUMPDEST ADD MLOAD SWAP1 POP PUSH0 DUP1 PUSH2 0x3D93 JUMP JUMPDEST PUSH0 DUP6 DUP2 MSTORE DUP12 DUP2 KECCAK256 SWAP4 POP PUSH1 0x1F NOT DUP6 AND SWAP1 JUMPDEST DUP13 DUP3 DUP3 LT PUSH2 0x426C JUMPI POP POP SWAP1 DUP5 PUSH1 0x1 SWAP6 SWAP5 SWAP4 SWAP3 LT PUSH2 0x4254 JUMPI JUMPDEST POP POP POP DUP2 SHL ADD SWAP1 SSTORE PUSH2 0x3DA7 JUMP JUMPDEST ADD MLOAD PUSH0 NOT PUSH1 0xF8 DUP5 PUSH1 0x3 SHL AND SHR NOT AND SWAP1 SSTORE PUSH0 DUP1 DUP1 PUSH2 0x4247 JUMP JUMPDEST PUSH1 0x1 DUP6 SWAP7 DUP3 SWAP4 SWAP7 DUP7 ADD MLOAD DUP2 SSTORE ADD SWAP6 ADD SWAP4 ADD PUSH2 0x422F JUMP JUMPDEST SWAP1 SWAP2 POP DUP4 PUSH0 MSTORE DUP10 PUSH0 KECCAK256 PUSH1 0x1F DUP5 ADD PUSH1 0x5 SHR DUP2 ADD SWAP2 DUP12 DUP6 LT PUSH2 0x42C6 JUMPI JUMPDEST SWAP1 PUSH1 0x1F DUP6 SWAP5 SWAP4 SWAP3 ADD PUSH1 0x5 SHR ADD SWAP1 JUMPDEST DUP2 DUP2 LT PUSH2 0x42B8 JUMPI POP PUSH2 0x3D7E JUMP JUMPDEST PUSH0 DUP2 SSTORE DUP5 SWAP4 POP PUSH1 0x1 ADD PUSH2 0x42AB JUMP JUMPDEST SWAP1 SWAP2 POP DUP2 SWAP1 PUSH2 0x429D JUMP INVALID LOG2 PUSH5 0x6970667358 0x22 SLT KECCAK256 0xAF 0xA7 BYTE PUSH10 0x539475ED2BEB3FBC0AA9 TLOAD EXTCODECOPY 0xB2 DELEGATECALL DUP6 PUSH13 0xC853842A200B05869889287664 PUSH20 0x6F6C634300081B00330000000000000000000000 "},"methodIdentifiers":{"allCpotbData(uint256)":"f02f5f23","approveCpotb(string,string,string,string,address,string,uint256)":"4eea4b8f","approveExtendCpotb(string,string)":"b0730436","certDetailById(string)":"34a34f30","cpotbDataById(string)":"6aa81299","createCertificateDetails((string,string,address),(string,string,address),string)":"fb5fb9a3","createUserCertificate(string,string,address)":"2e9cf827","dokuAdminById(string)":"7ab09648","dokuTeknisById(string)":"500619d0","extendCpotb(string,uint256)":"8b11d37b","getAllCpotb()":"5850607c","getAllCpotbByInstance(string)":"81fc60a5","getCertDetail(string)":"9aaa5d8b","getCertDetails(string)":"be2e2325","getCpotbDetails(string)":"70c056b0","getRejectMsg(string)":"6d1aa7d5","getRejectsMsg(string)":"761fb19a","getSenderDetail(string)":"17e68309","rejectCpotb(string,string,string,string,address)":"e462dde5","rejectMsgById(string)":"bf3f80ac","renewRequestCpotb(string,(string,string,string),(string,string))":"e8002b27","requestCpotb(string,string,string,address,uint8,string,(string,string,string),(string,string))":"64b409ff","updateBpomApproveDetails(string,string,(string,string,address))":"f5104ff1","updateBpomExtendCertificateDetails(string,string)":"f53ef126","updateBpomRejectDetails(string,string,(string,string,address))":"e9c260d7","updateExtendRenewDetails(string,uint256)":"9740dbed","updateRenewDetails(string)":"19859c87"}}}}}