{"contracts/CpotbRegistration.sol":{"CpotbRegistration":{"abi":[{"anonymous":false,"inputs":[{"indexed":true,"internalType":"string","name":"reqId","type":"string"},{"indexed":true,"internalType":"address","name":"pabrik","type":"address"},{"indexed":false,"internalType":"string","name":"pabrikName","type":"string"},{"indexed":false,"internalType":"string","name":"cpotbNumber","type":"string"}],"name":"evt_CpotbApproved","type":"event"},{"anonymous":false,"inputs":[{"indexed":true,"internalType":"string","name":"reqId","type":"string"},{"indexed":true,"internalType":"address","name":"pabrik","type":"address"},{"indexed":false,"internalType":"string","name":"pabrikName","type":"string"}],"name":"evt_CpotbRequested","type":"event"},{"inputs":[{"internalType":"string","name":"","type":"string"}],"name":"CpotbRequests","outputs":[{"internalType":"address","name":"pabrikAddress","type":"address"},{"internalType":"string","name":"pabrikName","type":"string"},{"internalType":"uint256","name":"timestampReq","type":"uint256"},{"internalType":"uint256","name":"timestampApprove","type":"uint256"},{"internalType":"string","name":"cpotbNumber","type":"string"},{"internalType":"address","name":"bpomAddress","type":"address"},{"internalType":"enum CpotbRegistration.en_StatusCpotb","name":"statusCpotb","type":"uint8"}],"stateMutability":"view","type":"function"},{"inputs":[{"internalType":"string","name":"_reqId","type":"string"},{"internalType":"string","name":"_cpotbNumber","type":"string"}],"name":"cpotb_approve","outputs":[],"stateMutability":"nonpayable","type":"function"},{"inputs":[{"internalType":"string","name":"_reqId","type":"string"},{"internalType":"string","name":"_pabrikName","type":"string"}],"name":"cpotb_request","outputs":[],"stateMutability":"nonpayable","type":"function"},{"inputs":[],"name":"get_all_cpotb_request","outputs":[{"internalType":"string[]","name":"","type":"string[]"}],"stateMutability":"view","type":"function"},{"inputs":[{"internalType":"string","name":"_reqId","type":"string"}],"name":"get_cpotb_request_byId","outputs":[{"internalType":"address","name":"pabrikAddress","type":"address"},{"internalType":"string","name":"pabrikName","type":"string"},{"internalType":"uint256","name":"timestampReq","type":"uint256"},{"internalType":"uint256","name":"timestampApprove","type":"uint256"},{"internalType":"string","name":"cpotbNumber","type":"string"},{"internalType":"address","name":"bpomAddress","type":"address"},{"internalType":"enum CpotbRegistration.en_StatusCpotb","name":"statusCpotb","type":"uint8"}],"stateMutability":"view","type":"function"},{"inputs":[{"internalType":"uint256","name":"","type":"uint256"}],"name":"reqIdCpotb","outputs":[{"internalType":"string","name":"","type":"string"}],"stateMutability":"view","type":"function"}],"evm":{"bytecode":{"linkReferences":{},"object":"60808060405234601557610bd0908161001b8239f35b600080fdfe6080604052600436101561001257600080fd5b60003560e01c806323400b311461073157806331eb1dc81461060a57806376f289491461043957806392a94f691461032f578063b9b53723146101135763c771fd951461005e57600080fd5b3461010e57602036600319011261010e5760043567ffffffffffffffff811161010e5760206100946100a7923690600401610987565b81604051938285809451938492016108de565b8101600181520301902060018060a01b038154169061010a6100cb6001830161083a565b9160028101549360038201549160056100e66004830161083a565b91015460405196879660a083901c60ff16956001600160a01b039093169488610926565b0390f35b600080fd5b3461010e57610121366109de565b9061012e81511515610a2d565b604051602081835161014381838588016108de565b81016001815203019020916005830160ff815460a01c166002811015610319576102c957805460ff60a01b1916600160a01b17815542600385015561018b8260048601610a6e565b80546001600160a01b0319163317905582546001600160a01b031692600101916101b490610b7a565b9160405191604083526000918054906101cc826107c2565b918260408701526001811690816000146102825750600114610225575b505091610220827fbf4849318c35694389e363b14b73cedc4cb70ba7b5b1d2957ba99bc14193af5d94838095036020850152610901565b0390a3005b600090815260208120929350915b81831061026b5750508201606001906102207fbf4849318c35694389e363b14b73cedc4cb70ba7b5b1d2957ba99bc14193af5d6101e9565b805460608487010152602090920191600101610233565b60ff191660608088019190915292151560051b8601909201935061022091507fbf4849318c35694389e363b14b73cedc4cb70ba7b5b1d2957ba99bc14193af5d90506101e9565b60405162461bcd60e51b815260206004820152602260248201527f526571756573742068617320616c7265616479206265656e2070726f63657373604482015261195960f21b6064820152608490fd5b634e487b7160e01b600052602160045260246000fd5b3461010e57600036600319011261010e5760005467ffffffffffffffff8111610423576040519061036660208260051b0183610818565b808252602082019081600080527f290decd9548b62a8d60345a988386fc84ba6bc95484008f6362f93160ef3e5636000915b83831061040657848660405191829160208301906020845251809152604083019060408160051b85010192916000905b8282106103d757505050500390f35b919360019193955060206103f68192603f198a82030186528851610901565b96019201920185949391926103c8565b6001602081926104158561083a565b815201920192019190610398565b634e487b7160e01b600052604160045260246000fd5b3461010e57610447366109de565b8151151561045490610a2d565b604051610460816107fc565b3381526020810192828452604082019342855260608301926000845260409384519061048c8683610818565b6001825260208201600160fd1b90526080830191825260a08301976000895260c0840194600086528751808851818160208c01916104c9926108de565b600190820181815291909103602001909120955186546001600160a01b039091166001600160a01b03199091161786559051610506918601610a6e565b516002840155516003830155516105209060048301610a6e565b945160059590950180546001600160a01b0319166001600160a01b0396909616959095178555519360028510156103195760009481549060ff60a01b9060a01b169060ff60a01b19161790558354680100000000000000008110156105f65780600161058e92018655610792565b6105e257816105c17fbd81d9a10dc7cf91612b5106e481a35f0a4b55695124fb50417a75e88130b315936105c693610a6e565b610b7a565b915160208152806105dc33956020830190610901565b0390a380f35b634e487b7160e01b85526004859052602485fd5b634e487b7160e01b85526041600452602485fd5b3461010e57602036600319011261010e5760043567ffffffffffffffff811161010e573660238201121561010e57806004013567ffffffffffffffff811161010e57366024828401011161010e57602491816020926040519485930183378101600181520301902060405161067e816107fc565b81546001600160a01b031681526106976001830161083a565b9060208101918252600283015492604082019384526003810154916060810192835260056106c76004840161083a565b608083019081529201546001600160a01b03811660a080840191825260c08401939192901c60ff166002811015610319579283905251945195519351925190516001600160a01b0395861695929392169160028410156103195761010a9460405197889788610926565b3461010e57602036600319011261010e5760043560005481101561010e5761075890610792565b61077c5761076861010a9161083a565b604051918291602083526020830190610901565b634e487b7160e01b600052600060045260246000fd5b6000548110156107ac576000805260206000200190600090565b634e487b7160e01b600052603260045260246000fd5b90600182811c921680156107f2575b60208310146107dc57565b634e487b7160e01b600052602260045260246000fd5b91607f16916107d1565b60e0810190811067ffffffffffffffff82111761042357604052565b90601f8019910116810190811067ffffffffffffffff82111761042357604052565b906040519182600082549261084e846107c2565b80845293600181169081156108bc5750600114610875575b5061087392500383610818565b565b90506000929192526020600020906000915b8183106108a05750509060206108739282010138610866565b6020919350806001915483858901015201910190918492610887565b90506020925061087394915060ff191682840152151560051b82010138610866565b60005b8381106108f15750506000910152565b81810151838201526020016108e1565b9060209161091a815180928185528580860191016108de565b601f01601f1916010190565b94916109509061096895929998979960018060a01b0316875260e0602088015260e0870190610901565b92604086015260608501528382036080850152610901565b6001600160a01b0390941660a082015260028210156103195760c00152565b81601f8201121561010e5780359067ffffffffffffffff821161042357604051926109bc601f8401601f191660200185610818565b8284526020838301011161010e57816000926020809301838601378301015290565b90604060031983011261010e5760043567ffffffffffffffff811161010e5782610a0a91600401610987565b916024359067ffffffffffffffff821161010e57610a2a91600401610987565b90565b15610a3457565b60405162461bcd60e51b8152602060048201526012602482015271125b9d985b1a590814995c5d595cdd08125160721b6044820152606490fd5b919091825167ffffffffffffffff811161042357610a8c82546107c2565b601f8111610b32575b506020601f8211600114610ad05781929394600092610ac5575b50508160011b916000199060031b1c1916179055565b015190503880610aaf565b601f1982169083600052806000209160005b818110610b1a57509583600195969710610b01575b505050811b019055565b015160001960f88460031b161c19169055388080610af7565b9192602060018192868b015181550194019201610ae2565b826000526020600020601f830160051c81019160208410610b70575b601f0160051c01905b818110610b645750610a95565b60008155600101610b57565b9091508190610b4e565b610b92906020604051928284809451938492016108de565b81010390209056fea2646970667358221220f254993533e87ac689f4dc0d3bc44d8a1ec0965733160a1068ececab1945e26e64736f6c634300081b0033","opcodes":"PUSH1 0x80 DUP1 PUSH1 0x40 MSTORE CALLVALUE PUSH1 0x15 JUMPI PUSH2 0xBD0 SWAP1 DUP2 PUSH2 0x1B DUP3 CODECOPY RETURN JUMPDEST PUSH1 0x0 DUP1 REVERT INVALID PUSH1 0x80 PUSH1 0x40 MSTORE PUSH1 0x4 CALLDATASIZE LT ISZERO PUSH2 0x12 JUMPI PUSH1 0x0 DUP1 REVERT JUMPDEST PUSH1 0x0 CALLDATALOAD PUSH1 0xE0 SHR DUP1 PUSH4 0x23400B31 EQ PUSH2 0x731 JUMPI DUP1 PUSH4 0x31EB1DC8 EQ PUSH2 0x60A JUMPI DUP1 PUSH4 0x76F28949 EQ PUSH2 0x439 JUMPI DUP1 PUSH4 0x92A94F69 EQ PUSH2 0x32F JUMPI DUP1 PUSH4 0xB9B53723 EQ PUSH2 0x113 JUMPI PUSH4 0xC771FD95 EQ PUSH2 0x5E JUMPI PUSH1 0x0 DUP1 REVERT JUMPDEST CALLVALUE PUSH2 0x10E JUMPI PUSH1 0x20 CALLDATASIZE PUSH1 0x3 NOT ADD SLT PUSH2 0x10E JUMPI PUSH1 0x4 CALLDATALOAD PUSH8 0xFFFFFFFFFFFFFFFF DUP2 GT PUSH2 0x10E JUMPI PUSH1 0x20 PUSH2 0x94 PUSH2 0xA7 SWAP3 CALLDATASIZE SWAP1 PUSH1 0x4 ADD PUSH2 0x987 JUMP JUMPDEST DUP2 PUSH1 0x40 MLOAD SWAP4 DUP3 DUP6 DUP1 SWAP5 MLOAD SWAP4 DUP5 SWAP3 ADD PUSH2 0x8DE JUMP JUMPDEST DUP2 ADD PUSH1 0x1 DUP2 MSTORE SUB ADD SWAP1 KECCAK256 PUSH1 0x1 DUP1 PUSH1 0xA0 SHL SUB DUP2 SLOAD AND SWAP1 PUSH2 0x10A PUSH2 0xCB PUSH1 0x1 DUP4 ADD PUSH2 0x83A JUMP JUMPDEST SWAP2 PUSH1 0x2 DUP2 ADD SLOAD SWAP4 PUSH1 0x3 DUP3 ADD SLOAD SWAP2 PUSH1 0x5 PUSH2 0xE6 PUSH1 0x4 DUP4 ADD PUSH2 0x83A JUMP JUMPDEST SWAP2 ADD SLOAD PUSH1 0x40 MLOAD SWAP7 DUP8 SWAP7 PUSH1 0xA0 DUP4 SWAP1 SHR PUSH1 0xFF AND SWAP6 PUSH1 0x1 PUSH1 0x1 PUSH1 0xA0 SHL SUB SWAP1 SWAP4 AND SWAP5 DUP9 PUSH2 0x926 JUMP JUMPDEST SUB SWAP1 RETURN JUMPDEST PUSH1 0x0 DUP1 REVERT JUMPDEST CALLVALUE PUSH2 0x10E JUMPI PUSH2 0x121 CALLDATASIZE PUSH2 0x9DE JUMP JUMPDEST SWAP1 PUSH2 0x12E DUP2 MLOAD ISZERO ISZERO PUSH2 0xA2D JUMP JUMPDEST PUSH1 0x40 MLOAD PUSH1 0x20 DUP2 DUP4 MLOAD PUSH2 0x143 DUP2 DUP4 DUP6 DUP9 ADD PUSH2 0x8DE JUMP JUMPDEST DUP2 ADD PUSH1 0x1 DUP2 MSTORE SUB ADD SWAP1 KECCAK256 SWAP2 PUSH1 0x5 DUP4 ADD PUSH1 0xFF DUP2 SLOAD PUSH1 0xA0 SHR AND PUSH1 0x2 DUP2 LT ISZERO PUSH2 0x319 JUMPI PUSH2 0x2C9 JUMPI DUP1 SLOAD PUSH1 0xFF PUSH1 0xA0 SHL NOT AND PUSH1 0x1 PUSH1 0xA0 SHL OR DUP2 SSTORE TIMESTAMP PUSH1 0x3 DUP6 ADD SSTORE PUSH2 0x18B DUP3 PUSH1 0x4 DUP7 ADD PUSH2 0xA6E JUMP JUMPDEST DUP1 SLOAD PUSH1 0x1 PUSH1 0x1 PUSH1 0xA0 SHL SUB NOT AND CALLER OR SWAP1 SSTORE DUP3 SLOAD PUSH1 0x1 PUSH1 0x1 PUSH1 0xA0 SHL SUB AND SWAP3 PUSH1 0x1 ADD SWAP2 PUSH2 0x1B4 SWAP1 PUSH2 0xB7A JUMP JUMPDEST SWAP2 PUSH1 0x40 MLOAD SWAP2 PUSH1 0x40 DUP4 MSTORE PUSH1 0x0 SWAP2 DUP1 SLOAD SWAP1 PUSH2 0x1CC DUP3 PUSH2 0x7C2 JUMP JUMPDEST SWAP2 DUP3 PUSH1 0x40 DUP8 ADD MSTORE PUSH1 0x1 DUP2 AND SWAP1 DUP2 PUSH1 0x0 EQ PUSH2 0x282 JUMPI POP PUSH1 0x1 EQ PUSH2 0x225 JUMPI JUMPDEST POP POP SWAP2 PUSH2 0x220 DUP3 PUSH32 0xBF4849318C35694389E363B14B73CEDC4CB70BA7B5B1D2957BA99BC14193AF5D SWAP5 DUP4 DUP1 SWAP6 SUB PUSH1 0x20 DUP6 ADD MSTORE PUSH2 0x901 JUMP JUMPDEST SUB SWAP1 LOG3 STOP JUMPDEST PUSH1 0x0 SWAP1 DUP2 MSTORE PUSH1 0x20 DUP2 KECCAK256 SWAP3 SWAP4 POP SWAP2 JUMPDEST DUP2 DUP4 LT PUSH2 0x26B JUMPI POP POP DUP3 ADD PUSH1 0x60 ADD SWAP1 PUSH2 0x220 PUSH32 0xBF4849318C35694389E363B14B73CEDC4CB70BA7B5B1D2957BA99BC14193AF5D PUSH2 0x1E9 JUMP JUMPDEST DUP1 SLOAD PUSH1 0x60 DUP5 DUP8 ADD ADD MSTORE PUSH1 0x20 SWAP1 SWAP3 ADD SWAP2 PUSH1 0x1 ADD PUSH2 0x233 JUMP JUMPDEST PUSH1 0xFF NOT AND PUSH1 0x60 DUP1 DUP9 ADD SWAP2 SWAP1 SWAP2 MSTORE SWAP3 ISZERO ISZERO PUSH1 0x5 SHL DUP7 ADD SWAP1 SWAP3 ADD SWAP4 POP PUSH2 0x220 SWAP2 POP PUSH32 0xBF4849318C35694389E363B14B73CEDC4CB70BA7B5B1D2957BA99BC14193AF5D SWAP1 POP PUSH2 0x1E9 JUMP JUMPDEST PUSH1 0x40 MLOAD PUSH3 0x461BCD PUSH1 0xE5 SHL DUP2 MSTORE PUSH1 0x20 PUSH1 0x4 DUP3 ADD MSTORE PUSH1 0x22 PUSH1 0x24 DUP3 ADD MSTORE PUSH32 0x526571756573742068617320616C7265616479206265656E2070726F63657373 PUSH1 0x44 DUP3 ADD MSTORE PUSH2 0x1959 PUSH1 0xF2 SHL PUSH1 0x64 DUP3 ADD MSTORE PUSH1 0x84 SWAP1 REVERT JUMPDEST PUSH4 0x4E487B71 PUSH1 0xE0 SHL PUSH1 0x0 MSTORE PUSH1 0x21 PUSH1 0x4 MSTORE PUSH1 0x24 PUSH1 0x0 REVERT JUMPDEST CALLVALUE PUSH2 0x10E JUMPI PUSH1 0x0 CALLDATASIZE PUSH1 0x3 NOT ADD SLT PUSH2 0x10E JUMPI PUSH1 0x0 SLOAD PUSH8 0xFFFFFFFFFFFFFFFF DUP2 GT PUSH2 0x423 JUMPI PUSH1 0x40 MLOAD SWAP1 PUSH2 0x366 PUSH1 0x20 DUP3 PUSH1 0x5 SHL ADD DUP4 PUSH2 0x818 JUMP JUMPDEST DUP1 DUP3 MSTORE PUSH1 0x20 DUP3 ADD SWAP1 DUP2 PUSH1 0x0 DUP1 MSTORE PUSH32 0x290DECD9548B62A8D60345A988386FC84BA6BC95484008F6362F93160EF3E563 PUSH1 0x0 SWAP2 JUMPDEST DUP4 DUP4 LT PUSH2 0x406 JUMPI DUP5 DUP7 PUSH1 0x40 MLOAD SWAP2 DUP3 SWAP2 PUSH1 0x20 DUP4 ADD SWAP1 PUSH1 0x20 DUP5 MSTORE MLOAD DUP1 SWAP2 MSTORE PUSH1 0x40 DUP4 ADD SWAP1 PUSH1 0x40 DUP2 PUSH1 0x5 SHL DUP6 ADD ADD SWAP3 SWAP2 PUSH1 0x0 SWAP1 JUMPDEST DUP3 DUP3 LT PUSH2 0x3D7 JUMPI POP POP POP POP SUB SWAP1 RETURN JUMPDEST SWAP2 SWAP4 PUSH1 0x1 SWAP2 SWAP4 SWAP6 POP PUSH1 0x20 PUSH2 0x3F6 DUP2 SWAP3 PUSH1 0x3F NOT DUP11 DUP3 SUB ADD DUP7 MSTORE DUP9 MLOAD PUSH2 0x901 JUMP JUMPDEST SWAP7 ADD SWAP3 ADD SWAP3 ADD DUP6 SWAP5 SWAP4 SWAP2 SWAP3 PUSH2 0x3C8 JUMP JUMPDEST PUSH1 0x1 PUSH1 0x20 DUP2 SWAP3 PUSH2 0x415 DUP6 PUSH2 0x83A JUMP JUMPDEST DUP2 MSTORE ADD SWAP3 ADD SWAP3 ADD SWAP2 SWAP1 PUSH2 0x398 JUMP JUMPDEST PUSH4 0x4E487B71 PUSH1 0xE0 SHL PUSH1 0x0 MSTORE PUSH1 0x41 PUSH1 0x4 MSTORE PUSH1 0x24 PUSH1 0x0 REVERT JUMPDEST CALLVALUE PUSH2 0x10E JUMPI PUSH2 0x447 CALLDATASIZE PUSH2 0x9DE JUMP JUMPDEST DUP2 MLOAD ISZERO ISZERO PUSH2 0x454 SWAP1 PUSH2 0xA2D JUMP JUMPDEST PUSH1 0x40 MLOAD PUSH2 0x460 DUP2 PUSH2 0x7FC JUMP JUMPDEST CALLER DUP2 MSTORE PUSH1 0x20 DUP2 ADD SWAP3 DUP3 DUP5 MSTORE PUSH1 0x40 DUP3 ADD SWAP4 TIMESTAMP DUP6 MSTORE PUSH1 0x60 DUP4 ADD SWAP3 PUSH1 0x0 DUP5 MSTORE PUSH1 0x40 SWAP4 DUP5 MLOAD SWAP1 PUSH2 0x48C DUP7 DUP4 PUSH2 0x818 JUMP JUMPDEST PUSH1 0x1 DUP3 MSTORE PUSH1 0x20 DUP3 ADD PUSH1 0x1 PUSH1 0xFD SHL SWAP1 MSTORE PUSH1 0x80 DUP4 ADD SWAP2 DUP3 MSTORE PUSH1 0xA0 DUP4 ADD SWAP8 PUSH1 0x0 DUP10 MSTORE PUSH1 0xC0 DUP5 ADD SWAP5 PUSH1 0x0 DUP7 MSTORE DUP8 MLOAD DUP1 DUP9 MLOAD DUP2 DUP2 PUSH1 0x20 DUP13 ADD SWAP2 PUSH2 0x4C9 SWAP3 PUSH2 0x8DE JUMP JUMPDEST PUSH1 0x1 SWAP1 DUP3 ADD DUP2 DUP2 MSTORE SWAP2 SWAP1 SWAP2 SUB PUSH1 0x20 ADD SWAP1 SWAP2 KECCAK256 SWAP6 MLOAD DUP7 SLOAD PUSH1 0x1 PUSH1 0x1 PUSH1 0xA0 SHL SUB SWAP1 SWAP2 AND PUSH1 0x1 PUSH1 0x1 PUSH1 0xA0 SHL SUB NOT SWAP1 SWAP2 AND OR DUP7 SSTORE SWAP1 MLOAD PUSH2 0x506 SWAP2 DUP7 ADD PUSH2 0xA6E JUMP JUMPDEST MLOAD PUSH1 0x2 DUP5 ADD SSTORE MLOAD PUSH1 0x3 DUP4 ADD SSTORE MLOAD PUSH2 0x520 SWAP1 PUSH1 0x4 DUP4 ADD PUSH2 0xA6E JUMP JUMPDEST SWAP5 MLOAD PUSH1 0x5 SWAP6 SWAP1 SWAP6 ADD DUP1 SLOAD PUSH1 0x1 PUSH1 0x1 PUSH1 0xA0 SHL SUB NOT AND PUSH1 0x1 PUSH1 0x1 PUSH1 0xA0 SHL SUB SWAP7 SWAP1 SWAP7 AND SWAP6 SWAP1 SWAP6 OR DUP6 SSTORE MLOAD SWAP4 PUSH1 0x2 DUP6 LT ISZERO PUSH2 0x319 JUMPI PUSH1 0x0 SWAP5 DUP2 SLOAD SWAP1 PUSH1 0xFF PUSH1 0xA0 SHL SWAP1 PUSH1 0xA0 SHL AND SWAP1 PUSH1 0xFF PUSH1 0xA0 SHL NOT AND OR SWAP1 SSTORE DUP4 SLOAD PUSH9 0x10000000000000000 DUP2 LT ISZERO PUSH2 0x5F6 JUMPI DUP1 PUSH1 0x1 PUSH2 0x58E SWAP3 ADD DUP7 SSTORE PUSH2 0x792 JUMP JUMPDEST PUSH2 0x5E2 JUMPI DUP2 PUSH2 0x5C1 PUSH32 0xBD81D9A10DC7CF91612B5106E481A35F0A4B55695124FB50417A75E88130B315 SWAP4 PUSH2 0x5C6 SWAP4 PUSH2 0xA6E JUMP JUMPDEST PUSH2 0xB7A JUMP JUMPDEST SWAP2 MLOAD PUSH1 0x20 DUP2 MSTORE DUP1 PUSH2 0x5DC CALLER SWAP6 PUSH1 0x20 DUP4 ADD SWAP1 PUSH2 0x901 JUMP JUMPDEST SUB SWAP1 LOG3 DUP1 RETURN JUMPDEST PUSH4 0x4E487B71 PUSH1 0xE0 SHL DUP6 MSTORE PUSH1 0x4 DUP6 SWAP1 MSTORE PUSH1 0x24 DUP6 REVERT JUMPDEST PUSH4 0x4E487B71 PUSH1 0xE0 SHL DUP6 MSTORE PUSH1 0x41 PUSH1 0x4 MSTORE PUSH1 0x24 DUP6 REVERT JUMPDEST CALLVALUE PUSH2 0x10E JUMPI PUSH1 0x20 CALLDATASIZE PUSH1 0x3 NOT ADD SLT PUSH2 0x10E JUMPI PUSH1 0x4 CALLDATALOAD PUSH8 0xFFFFFFFFFFFFFFFF DUP2 GT PUSH2 0x10E JUMPI CALLDATASIZE PUSH1 0x23 DUP3 ADD SLT ISZERO PUSH2 0x10E JUMPI DUP1 PUSH1 0x4 ADD CALLDATALOAD PUSH8 0xFFFFFFFFFFFFFFFF DUP2 GT PUSH2 0x10E JUMPI CALLDATASIZE PUSH1 0x24 DUP3 DUP5 ADD ADD GT PUSH2 0x10E JUMPI PUSH1 0x24 SWAP2 DUP2 PUSH1 0x20 SWAP3 PUSH1 0x40 MLOAD SWAP5 DUP6 SWAP4 ADD DUP4 CALLDATACOPY DUP2 ADD PUSH1 0x1 DUP2 MSTORE SUB ADD SWAP1 KECCAK256 PUSH1 0x40 MLOAD PUSH2 0x67E DUP2 PUSH2 0x7FC JUMP JUMPDEST DUP2 SLOAD PUSH1 0x1 PUSH1 0x1 PUSH1 0xA0 SHL SUB AND DUP2 MSTORE PUSH2 0x697 PUSH1 0x1 DUP4 ADD PUSH2 0x83A JUMP JUMPDEST SWAP1 PUSH1 0x20 DUP2 ADD SWAP2 DUP3 MSTORE PUSH1 0x2 DUP4 ADD SLOAD SWAP3 PUSH1 0x40 DUP3 ADD SWAP4 DUP5 MSTORE PUSH1 0x3 DUP2 ADD SLOAD SWAP2 PUSH1 0x60 DUP2 ADD SWAP3 DUP4 MSTORE PUSH1 0x5 PUSH2 0x6C7 PUSH1 0x4 DUP5 ADD PUSH2 0x83A JUMP JUMPDEST PUSH1 0x80 DUP4 ADD SWAP1 DUP2 MSTORE SWAP3 ADD SLOAD PUSH1 0x1 PUSH1 0x1 PUSH1 0xA0 SHL SUB DUP2 AND PUSH1 0xA0 DUP1 DUP5 ADD SWAP2 DUP3 MSTORE PUSH1 0xC0 DUP5 ADD SWAP4 SWAP2 SWAP3 SWAP1 SHR PUSH1 0xFF AND PUSH1 0x2 DUP2 LT ISZERO PUSH2 0x319 JUMPI SWAP3 DUP4 SWAP1 MSTORE MLOAD SWAP5 MLOAD SWAP6 MLOAD SWAP4 MLOAD SWAP3 MLOAD SWAP1 MLOAD PUSH1 0x1 PUSH1 0x1 PUSH1 0xA0 SHL SUB SWAP6 DUP7 AND SWAP6 SWAP3 SWAP4 SWAP3 AND SWAP2 PUSH1 0x2 DUP5 LT ISZERO PUSH2 0x319 JUMPI PUSH2 0x10A SWAP5 PUSH1 0x40 MLOAD SWAP8 DUP9 SWAP8 DUP9 PUSH2 0x926 JUMP JUMPDEST CALLVALUE PUSH2 0x10E JUMPI PUSH1 0x20 CALLDATASIZE PUSH1 0x3 NOT ADD SLT PUSH2 0x10E JUMPI PUSH1 0x4 CALLDATALOAD PUSH1 0x0 SLOAD DUP2 LT ISZERO PUSH2 0x10E JUMPI PUSH2 0x758 SWAP1 PUSH2 0x792 JUMP JUMPDEST PUSH2 0x77C JUMPI PUSH2 0x768 PUSH2 0x10A SWAP2 PUSH2 0x83A JUMP JUMPDEST PUSH1 0x40 MLOAD SWAP2 DUP3 SWAP2 PUSH1 0x20 DUP4 MSTORE PUSH1 0x20 DUP4 ADD SWAP1 PUSH2 0x901 JUMP JUMPDEST PUSH4 0x4E487B71 PUSH1 0xE0 SHL PUSH1 0x0 MSTORE PUSH1 0x0 PUSH1 0x4 MSTORE PUSH1 0x24 PUSH1 0x0 REVERT JUMPDEST PUSH1 0x0 SLOAD DUP2 LT ISZERO PUSH2 0x7AC JUMPI PUSH1 0x0 DUP1 MSTORE PUSH1 0x20 PUSH1 0x0 KECCAK256 ADD SWAP1 PUSH1 0x0 SWAP1 JUMP JUMPDEST PUSH4 0x4E487B71 PUSH1 0xE0 SHL PUSH1 0x0 MSTORE PUSH1 0x32 PUSH1 0x4 MSTORE PUSH1 0x24 PUSH1 0x0 REVERT JUMPDEST SWAP1 PUSH1 0x1 DUP3 DUP2 SHR SWAP3 AND DUP1 ISZERO PUSH2 0x7F2 JUMPI JUMPDEST PUSH1 0x20 DUP4 LT EQ PUSH2 0x7DC JUMPI JUMP JUMPDEST PUSH4 0x4E487B71 PUSH1 0xE0 SHL PUSH1 0x0 MSTORE PUSH1 0x22 PUSH1 0x4 MSTORE PUSH1 0x24 PUSH1 0x0 REVERT JUMPDEST SWAP2 PUSH1 0x7F AND SWAP2 PUSH2 0x7D1 JUMP JUMPDEST PUSH1 0xE0 DUP2 ADD SWAP1 DUP2 LT PUSH8 0xFFFFFFFFFFFFFFFF DUP3 GT OR PUSH2 0x423 JUMPI PUSH1 0x40 MSTORE JUMP JUMPDEST SWAP1 PUSH1 0x1F DUP1 NOT SWAP2 ADD AND DUP2 ADD SWAP1 DUP2 LT PUSH8 0xFFFFFFFFFFFFFFFF DUP3 GT OR PUSH2 0x423 JUMPI PUSH1 0x40 MSTORE JUMP JUMPDEST SWAP1 PUSH1 0x40 MLOAD SWAP2 DUP3 PUSH1 0x0 DUP3 SLOAD SWAP3 PUSH2 0x84E DUP5 PUSH2 0x7C2 JUMP JUMPDEST DUP1 DUP5 MSTORE SWAP4 PUSH1 0x1 DUP2 AND SWAP1 DUP2 ISZERO PUSH2 0x8BC JUMPI POP PUSH1 0x1 EQ PUSH2 0x875 JUMPI JUMPDEST POP PUSH2 0x873 SWAP3 POP SUB DUP4 PUSH2 0x818 JUMP JUMPDEST JUMP JUMPDEST SWAP1 POP PUSH1 0x0 SWAP3 SWAP2 SWAP3 MSTORE PUSH1 0x20 PUSH1 0x0 KECCAK256 SWAP1 PUSH1 0x0 SWAP2 JUMPDEST DUP2 DUP4 LT PUSH2 0x8A0 JUMPI POP POP SWAP1 PUSH1 0x20 PUSH2 0x873 SWAP3 DUP3 ADD ADD CODESIZE PUSH2 0x866 JUMP JUMPDEST PUSH1 0x20 SWAP2 SWAP4 POP DUP1 PUSH1 0x1 SWAP2 SLOAD DUP4 DUP6 DUP10 ADD ADD MSTORE ADD SWAP2 ADD SWAP1 SWAP2 DUP5 SWAP3 PUSH2 0x887 JUMP JUMPDEST SWAP1 POP PUSH1 0x20 SWAP3 POP PUSH2 0x873 SWAP5 SWAP2 POP PUSH1 0xFF NOT AND DUP3 DUP5 ADD MSTORE ISZERO ISZERO PUSH1 0x5 SHL DUP3 ADD ADD CODESIZE PUSH2 0x866 JUMP JUMPDEST PUSH1 0x0 JUMPDEST DUP4 DUP2 LT PUSH2 0x8F1 JUMPI POP POP PUSH1 0x0 SWAP2 ADD MSTORE JUMP JUMPDEST DUP2 DUP2 ADD MLOAD DUP4 DUP3 ADD MSTORE PUSH1 0x20 ADD PUSH2 0x8E1 JUMP JUMPDEST SWAP1 PUSH1 0x20 SWAP2 PUSH2 0x91A DUP2 MLOAD DUP1 SWAP3 DUP2 DUP6 MSTORE DUP6 DUP1 DUP7 ADD SWAP2 ADD PUSH2 0x8DE JUMP JUMPDEST PUSH1 0x1F ADD PUSH1 0x1F NOT AND ADD ADD SWAP1 JUMP JUMPDEST SWAP5 SWAP2 PUSH2 0x950 SWAP1 PUSH2 0x968 SWAP6 SWAP3 SWAP10 SWAP9 SWAP8 SWAP10 PUSH1 0x1 DUP1 PUSH1 0xA0 SHL SUB AND DUP8 MSTORE PUSH1 0xE0 PUSH1 0x20 DUP9 ADD MSTORE PUSH1 0xE0 DUP8 ADD SWAP1 PUSH2 0x901 JUMP JUMPDEST SWAP3 PUSH1 0x40 DUP7 ADD MSTORE PUSH1 0x60 DUP6 ADD MSTORE DUP4 DUP3 SUB PUSH1 0x80 DUP6 ADD MSTORE PUSH2 0x901 JUMP JUMPDEST PUSH1 0x1 PUSH1 0x1 PUSH1 0xA0 SHL SUB SWAP1 SWAP5 AND PUSH1 0xA0 DUP3 ADD MSTORE PUSH1 0x2 DUP3 LT ISZERO PUSH2 0x319 JUMPI PUSH1 0xC0 ADD MSTORE JUMP JUMPDEST DUP2 PUSH1 0x1F DUP3 ADD SLT ISZERO PUSH2 0x10E JUMPI DUP1 CALLDATALOAD SWAP1 PUSH8 0xFFFFFFFFFFFFFFFF DUP3 GT PUSH2 0x423 JUMPI PUSH1 0x40 MLOAD SWAP3 PUSH2 0x9BC PUSH1 0x1F DUP5 ADD PUSH1 0x1F NOT AND PUSH1 0x20 ADD DUP6 PUSH2 0x818 JUMP JUMPDEST DUP3 DUP5 MSTORE PUSH1 0x20 DUP4 DUP4 ADD ADD GT PUSH2 0x10E JUMPI DUP2 PUSH1 0x0 SWAP3 PUSH1 0x20 DUP1 SWAP4 ADD DUP4 DUP7 ADD CALLDATACOPY DUP4 ADD ADD MSTORE SWAP1 JUMP JUMPDEST SWAP1 PUSH1 0x40 PUSH1 0x3 NOT DUP4 ADD SLT PUSH2 0x10E JUMPI PUSH1 0x4 CALLDATALOAD PUSH8 0xFFFFFFFFFFFFFFFF DUP2 GT PUSH2 0x10E JUMPI DUP3 PUSH2 0xA0A SWAP2 PUSH1 0x4 ADD PUSH2 0x987 JUMP JUMPDEST SWAP2 PUSH1 0x24 CALLDATALOAD SWAP1 PUSH8 0xFFFFFFFFFFFFFFFF DUP3 GT PUSH2 0x10E JUMPI PUSH2 0xA2A SWAP2 PUSH1 0x4 ADD PUSH2 0x987 JUMP JUMPDEST SWAP1 JUMP JUMPDEST ISZERO PUSH2 0xA34 JUMPI JUMP JUMPDEST PUSH1 0x40 MLOAD PUSH3 0x461BCD PUSH1 0xE5 SHL DUP2 MSTORE PUSH1 0x20 PUSH1 0x4 DUP3 ADD MSTORE PUSH1 0x12 PUSH1 0x24 DUP3 ADD MSTORE PUSH18 0x125B9D985B1A590814995C5D595CDD081251 PUSH1 0x72 SHL PUSH1 0x44 DUP3 ADD MSTORE PUSH1 0x64 SWAP1 REVERT JUMPDEST SWAP2 SWAP1 SWAP2 DUP3 MLOAD PUSH8 0xFFFFFFFFFFFFFFFF DUP2 GT PUSH2 0x423 JUMPI PUSH2 0xA8C DUP3 SLOAD PUSH2 0x7C2 JUMP JUMPDEST PUSH1 0x1F DUP2 GT PUSH2 0xB32 JUMPI JUMPDEST POP PUSH1 0x20 PUSH1 0x1F DUP3 GT PUSH1 0x1 EQ PUSH2 0xAD0 JUMPI DUP2 SWAP3 SWAP4 SWAP5 PUSH1 0x0 SWAP3 PUSH2 0xAC5 JUMPI JUMPDEST POP POP DUP2 PUSH1 0x1 SHL SWAP2 PUSH1 0x0 NOT SWAP1 PUSH1 0x3 SHL SHR NOT AND OR SWAP1 SSTORE JUMP JUMPDEST ADD MLOAD SWAP1 POP CODESIZE DUP1 PUSH2 0xAAF JUMP JUMPDEST PUSH1 0x1F NOT DUP3 AND SWAP1 DUP4 PUSH1 0x0 MSTORE DUP1 PUSH1 0x0 KECCAK256 SWAP2 PUSH1 0x0 JUMPDEST DUP2 DUP2 LT PUSH2 0xB1A JUMPI POP SWAP6 DUP4 PUSH1 0x1 SWAP6 SWAP7 SWAP8 LT PUSH2 0xB01 JUMPI JUMPDEST POP POP POP DUP2 SHL ADD SWAP1 SSTORE JUMP JUMPDEST ADD MLOAD PUSH1 0x0 NOT PUSH1 0xF8 DUP5 PUSH1 0x3 SHL AND SHR NOT AND SWAP1 SSTORE CODESIZE DUP1 DUP1 PUSH2 0xAF7 JUMP JUMPDEST SWAP2 SWAP3 PUSH1 0x20 PUSH1 0x1 DUP2 SWAP3 DUP7 DUP12 ADD MLOAD DUP2 SSTORE ADD SWAP5 ADD SWAP3 ADD PUSH2 0xAE2 JUMP JUMPDEST DUP3 PUSH1 0x0 MSTORE PUSH1 0x20 PUSH1 0x0 KECCAK256 PUSH1 0x1F DUP4 ADD PUSH1 0x5 SHR DUP2 ADD SWAP2 PUSH1 0x20 DUP5 LT PUSH2 0xB70 JUMPI JUMPDEST PUSH1 0x1F ADD PUSH1 0x5 SHR ADD SWAP1 JUMPDEST DUP2 DUP2 LT PUSH2 0xB64 JUMPI POP PUSH2 0xA95 JUMP JUMPDEST PUSH1 0x0 DUP2 SSTORE PUSH1 0x1 ADD PUSH2 0xB57 JUMP JUMPDEST SWAP1 SWAP2 POP DUP2 SWAP1 PUSH2 0xB4E JUMP JUMPDEST PUSH2 0xB92 SWAP1 PUSH1 0x20 PUSH1 0x40 MLOAD SWAP3 DUP3 DUP5 DUP1 SWAP5 MLOAD SWAP4 DUP5 SWAP3 ADD PUSH2 0x8DE JUMP JUMPDEST DUP2 ADD SUB SWAP1 KECCAK256 SWAP1 JUMP INVALID LOG2 PUSH5 0x6970667358 0x22 SLT KECCAK256 CALLCODE SLOAD SWAP10 CALLDATALOAD CALLER 0xE8 PUSH27 0xC689F4DC0D3BC44D8A1EC0965733160A1068ECECAB1945E26E6473 PUSH16 0x6C634300081B00330000000000000000 "},"methodIdentifiers":{"CpotbRequests(string)":"c771fd95","cpotb_approve(string,string)":"b9b53723","cpotb_request(string,string)":"76f28949","get_all_cpotb_request()":"92a94f69","get_cpotb_request_byId(string)":"31eb1dc8","reqIdCpotb(uint256)":"23400b31"}}}}}