{"contracts/ObatTradisional.sol":{"ObatTradisional":{"abi":[{"anonymous":false,"inputs":[{"indexed":true,"internalType":"string","name":"obatId","type":"string"},{"indexed":true,"internalType":"address","name":"pabrikAddress","type":"address"}],"name":"evt_ObatRequested","type":"event"},{"anonymous":false,"inputs":[{"indexed":true,"internalType":"string","name":"obatId","type":"string"},{"indexed":true,"internalType":"address","name":"pabrikAddress","type":"address"},{"indexed":false,"internalType":"string","name":"obatName","type":"string"}],"name":"evt_obatProduction","type":"event"},{"inputs":[{"internalType":"string","name":"","type":"string"}],"name":"ObatTradisional","outputs":[{"internalType":"address","name":"pabrikAddress","type":"address"},{"internalType":"address","name":"bpomAddress","type":"address"},{"internalType":"string","name":"pabrikName","type":"string"},{"internalType":"uint256","name":"timestampReq","type":"uint256"},{"internalType":"uint256","name":"timestampApprove","type":"uint256"},{"internalType":"string","name":"obatName","type":"string"},{"internalType":"string","name":"obatId","type":"string"},{"internalType":"string","name":"obatMerk","type":"string"},{"internalType":"string","name":"obatKlaim","type":"string"},{"internalType":"string","name":"obatKomposisi","type":"string"},{"internalType":"string","name":"numberNie","type":"string"},{"internalType":"enum ObatTradisional.en_StatusObat","name":"statusObat","type":"uint8"}],"stateMutability":"view","type":"function"},{"inputs":[],"name":"get_all_obat","outputs":[{"internalType":"string[]","name":"","type":"string[]"}],"stateMutability":"view","type":"function"},{"inputs":[{"internalType":"string","name":"_obatId","type":"string"}],"name":"get_obat_byId","outputs":[{"internalType":"address","name":"pabrikAddress","type":"address"},{"internalType":"address","name":"bpomAddress","type":"address"},{"internalType":"string","name":"pabrikName","type":"string"},{"internalType":"uint256","name":"timestampReq","type":"uint256"},{"internalType":"uint256","name":"timestampApprove","type":"uint256"},{"internalType":"string","name":"obatName","type":"string"},{"internalType":"string","name":"obatId","type":"string"},{"internalType":"string","name":"obatMerk","type":"string"},{"internalType":"string","name":"obatKlaim","type":"string"},{"internalType":"string","name":"obatKomposisi","type":"string"},{"internalType":"string","name":"numberNie","type":"string"},{"internalType":"enum ObatTradisional.en_StatusObat","name":"statusObat","type":"uint8"}],"stateMutability":"view","type":"function"},{"inputs":[{"internalType":"uint256","name":"","type":"uint256"}],"name":"idObat","outputs":[{"internalType":"string","name":"","type":"string"}],"stateMutability":"view","type":"function"}],"evm":{"bytecode":{"linkReferences":{},"object":"608080604052346015576106cb908161001b8239f35b600080fdfe608080604052600436101561001357600080fd5b60003560e01c90816349bd9672146103aa57508063a6dddde3146101fd578063c723c191146101995763eb6087621461004b57600080fd5b3461017e57602036600319011261017e5760043567ffffffffffffffff811161017e573660238201121561017e5780600401359067ffffffffffffffff8211610183576040516100a5601f8401601f1916602001826105a3565b8281526020810190366024858501011161017e5760006020856100de96602483970186378301015260405193849283925192839161049a565b8101600181520301902060018060a01b0381541661017a60018060a01b036001840154169261010f600282016105c5565b9060038101546004820154610126600584016105c5565b610132600685016105c5565b61013e600786016105c5565b9161014b600887016105c5565b93610158600988016105c5565b9560ff600b610169600a8b016105c5565b99015416986040519c8d9c8d6104e2565b0390f35b600080fd5b634e487b7160e01b600052604160045260246000fd5b3461017e57602036600319011261017e5760043560005481101561017e576101e961017a91600080527f290decd9548b62a8d60345a988386fc84ba6bc95484008f6362f93160ef3e563016105c5565b6040519182916020835260208301906104bd565b3461017e57602036600319011261017e5760043567ffffffffffffffff811161017e573660238201121561017e57806004013567ffffffffffffffff811161017e57366024828401011161017e576024918160209260405194859301833781016001815203019020604051610180810181811067ffffffffffffffff8211176101835760405281546001600160a01b03908116825260018301541660208201908152906102ac600284016105c5565b9260408201938452600381015460608301908152600482015491608084019283526102d9600582016105c5565b60a085019081526102ec600683016105c5565b60c086019081526102ff600784016105c5565b60e08701908152610312600885016105c5565b916101008801928352610327600986016105c5565b93610120890194855260ff600b610340600a89016105c5565b976101408c01988952015416976003891015610394576101608a01899052985199519a51965198519051915192519351945195516040519b8c9b61017a9b9299916001600160a01b0390811691168d6104e2565b634e487b7160e01b600052602160045260246000fd5b3461017e57600036600319011261017e5760005467ffffffffffffffff8111610183576103dd60208260051b01836105a3565b808252602082019081600080527f290decd9548b62a8d60345a988386fc84ba6bc95484008f6362f93160ef3e5636000915b83831061047d57848660405191829160208301906020845251809152604083019060408160051b85010192916000905b82821061044e57505050500390f35b9193600191939550602061046d8192603f198a820301865288516104bd565b960192019201859493919261043f565b60016020819261048c856105c5565b81520192019201919061040f565b60005b8381106104ad5750506000910152565b818101518382015260200161049d565b906020916104d68151809281855285808601910161049a565b601f01601f1916010190565b9c9b9a989461056594610574978f610549936105316105929f9c9698610557986105839f9a60018060a01b0316855260018060a01b0316602085015261018060408501526101808401906104bd565b936060830152608082015260a08184039101526104bd565b8d810360c08f0152906104bd565b908b820360e08d01526104bd565b908982036101008b01526104bd565b908782036101208901526104bd565b908582036101408701526104bd565b926003821015610394576101600152565b90601f8019910116810190811067ffffffffffffffff82111761018357604052565b906040519160008154918260011c9260018116801561068b575b60208510811461067757848752869392918115610655575060011461060e575b5061060c925003836105a3565b565b90506000929192526020600020906000915b81831061063957505090602061060c92820101386105ff565b6020919350806001915483858901015201910190918492610620565b90506020925061060c94915060ff191682840152151560051b820101386105ff565b634e487b7160e01b84526022600452602484fd5b93607f16936105df56fea264697066735822122004c0db1676fda5e433b75b08c15f69fc3cc4972ffc18294c90a75b996c9c241e64736f6c634300081b0033","opcodes":"PUSH1 0x80 DUP1 PUSH1 0x40 MSTORE CALLVALUE PUSH1 0x15 JUMPI PUSH2 0x6CB SWAP1 DUP2 PUSH2 0x1B DUP3 CODECOPY RETURN JUMPDEST PUSH1 0x0 DUP1 REVERT INVALID PUSH1 0x80 DUP1 PUSH1 0x40 MSTORE PUSH1 0x4 CALLDATASIZE LT ISZERO PUSH2 0x13 JUMPI PUSH1 0x0 DUP1 REVERT JUMPDEST PUSH1 0x0 CALLDATALOAD PUSH1 0xE0 SHR SWAP1 DUP2 PUSH4 0x49BD9672 EQ PUSH2 0x3AA JUMPI POP DUP1 PUSH4 0xA6DDDDE3 EQ PUSH2 0x1FD JUMPI DUP1 PUSH4 0xC723C191 EQ PUSH2 0x199 JUMPI PUSH4 0xEB608762 EQ PUSH2 0x4B JUMPI PUSH1 0x0 DUP1 REVERT JUMPDEST CALLVALUE PUSH2 0x17E JUMPI PUSH1 0x20 CALLDATASIZE PUSH1 0x3 NOT ADD SLT PUSH2 0x17E JUMPI PUSH1 0x4 CALLDATALOAD PUSH8 0xFFFFFFFFFFFFFFFF DUP2 GT PUSH2 0x17E JUMPI CALLDATASIZE PUSH1 0x23 DUP3 ADD SLT ISZERO PUSH2 0x17E JUMPI DUP1 PUSH1 0x4 ADD CALLDATALOAD SWAP1 PUSH8 0xFFFFFFFFFFFFFFFF DUP3 GT PUSH2 0x183 JUMPI PUSH1 0x40 MLOAD PUSH2 0xA5 PUSH1 0x1F DUP5 ADD PUSH1 0x1F NOT AND PUSH1 0x20 ADD DUP3 PUSH2 0x5A3 JUMP JUMPDEST DUP3 DUP2 MSTORE PUSH1 0x20 DUP2 ADD SWAP1 CALLDATASIZE PUSH1 0x24 DUP6 DUP6 ADD ADD GT PUSH2 0x17E JUMPI PUSH1 0x0 PUSH1 0x20 DUP6 PUSH2 0xDE SWAP7 PUSH1 0x24 DUP4 SWAP8 ADD DUP7 CALLDATACOPY DUP4 ADD ADD MSTORE PUSH1 0x40 MLOAD SWAP4 DUP5 SWAP3 DUP4 SWAP3 MLOAD SWAP3 DUP4 SWAP2 PUSH2 0x49A JUMP JUMPDEST DUP2 ADD PUSH1 0x1 DUP2 MSTORE SUB ADD SWAP1 KECCAK256 PUSH1 0x1 DUP1 PUSH1 0xA0 SHL SUB DUP2 SLOAD AND PUSH2 0x17A PUSH1 0x1 DUP1 PUSH1 0xA0 SHL SUB PUSH1 0x1 DUP5 ADD SLOAD AND SWAP3 PUSH2 0x10F PUSH1 0x2 DUP3 ADD PUSH2 0x5C5 JUMP JUMPDEST SWAP1 PUSH1 0x3 DUP2 ADD SLOAD PUSH1 0x4 DUP3 ADD SLOAD PUSH2 0x126 PUSH1 0x5 DUP5 ADD PUSH2 0x5C5 JUMP JUMPDEST PUSH2 0x132 PUSH1 0x6 DUP6 ADD PUSH2 0x5C5 JUMP JUMPDEST PUSH2 0x13E PUSH1 0x7 DUP7 ADD PUSH2 0x5C5 JUMP JUMPDEST SWAP2 PUSH2 0x14B PUSH1 0x8 DUP8 ADD PUSH2 0x5C5 JUMP JUMPDEST SWAP4 PUSH2 0x158 PUSH1 0x9 DUP9 ADD PUSH2 0x5C5 JUMP JUMPDEST SWAP6 PUSH1 0xFF PUSH1 0xB PUSH2 0x169 PUSH1 0xA DUP12 ADD PUSH2 0x5C5 JUMP JUMPDEST SWAP10 ADD SLOAD AND SWAP9 PUSH1 0x40 MLOAD SWAP13 DUP14 SWAP13 DUP14 PUSH2 0x4E2 JUMP JUMPDEST SUB SWAP1 RETURN JUMPDEST PUSH1 0x0 DUP1 REVERT JUMPDEST PUSH4 0x4E487B71 PUSH1 0xE0 SHL PUSH1 0x0 MSTORE PUSH1 0x41 PUSH1 0x4 MSTORE PUSH1 0x24 PUSH1 0x0 REVERT JUMPDEST CALLVALUE PUSH2 0x17E JUMPI PUSH1 0x20 CALLDATASIZE PUSH1 0x3 NOT ADD SLT PUSH2 0x17E JUMPI PUSH1 0x4 CALLDATALOAD PUSH1 0x0 SLOAD DUP2 LT ISZERO PUSH2 0x17E JUMPI PUSH2 0x1E9 PUSH2 0x17A SWAP2 PUSH1 0x0 DUP1 MSTORE PUSH32 0x290DECD9548B62A8D60345A988386FC84BA6BC95484008F6362F93160EF3E563 ADD PUSH2 0x5C5 JUMP JUMPDEST PUSH1 0x40 MLOAD SWAP2 DUP3 SWAP2 PUSH1 0x20 DUP4 MSTORE PUSH1 0x20 DUP4 ADD SWAP1 PUSH2 0x4BD JUMP JUMPDEST CALLVALUE PUSH2 0x17E JUMPI PUSH1 0x20 CALLDATASIZE PUSH1 0x3 NOT ADD SLT PUSH2 0x17E JUMPI PUSH1 0x4 CALLDATALOAD PUSH8 0xFFFFFFFFFFFFFFFF DUP2 GT PUSH2 0x17E JUMPI CALLDATASIZE PUSH1 0x23 DUP3 ADD SLT ISZERO PUSH2 0x17E JUMPI DUP1 PUSH1 0x4 ADD CALLDATALOAD PUSH8 0xFFFFFFFFFFFFFFFF DUP2 GT PUSH2 0x17E JUMPI CALLDATASIZE PUSH1 0x24 DUP3 DUP5 ADD ADD GT PUSH2 0x17E JUMPI PUSH1 0x24 SWAP2 DUP2 PUSH1 0x20 SWAP3 PUSH1 0x40 MLOAD SWAP5 DUP6 SWAP4 ADD DUP4 CALLDATACOPY DUP2 ADD PUSH1 0x1 DUP2 MSTORE SUB ADD SWAP1 KECCAK256 PUSH1 0x40 MLOAD PUSH2 0x180 DUP2 ADD DUP2 DUP2 LT PUSH8 0xFFFFFFFFFFFFFFFF DUP3 GT OR PUSH2 0x183 JUMPI PUSH1 0x40 MSTORE DUP2 SLOAD PUSH1 0x1 PUSH1 0x1 PUSH1 0xA0 SHL SUB SWAP1 DUP2 AND DUP3 MSTORE PUSH1 0x1 DUP4 ADD SLOAD AND PUSH1 0x20 DUP3 ADD SWAP1 DUP2 MSTORE SWAP1 PUSH2 0x2AC PUSH1 0x2 DUP5 ADD PUSH2 0x5C5 JUMP JUMPDEST SWAP3 PUSH1 0x40 DUP3 ADD SWAP4 DUP5 MSTORE PUSH1 0x3 DUP2 ADD SLOAD PUSH1 0x60 DUP4 ADD SWAP1 DUP2 MSTORE PUSH1 0x4 DUP3 ADD SLOAD SWAP2 PUSH1 0x80 DUP5 ADD SWAP3 DUP4 MSTORE PUSH2 0x2D9 PUSH1 0x5 DUP3 ADD PUSH2 0x5C5 JUMP JUMPDEST PUSH1 0xA0 DUP6 ADD SWAP1 DUP2 MSTORE PUSH2 0x2EC PUSH1 0x6 DUP4 ADD PUSH2 0x5C5 JUMP JUMPDEST PUSH1 0xC0 DUP7 ADD SWAP1 DUP2 MSTORE PUSH2 0x2FF PUSH1 0x7 DUP5 ADD PUSH2 0x5C5 JUMP JUMPDEST PUSH1 0xE0 DUP8 ADD SWAP1 DUP2 MSTORE PUSH2 0x312 PUSH1 0x8 DUP6 ADD PUSH2 0x5C5 JUMP JUMPDEST SWAP2 PUSH2 0x100 DUP9 ADD SWAP3 DUP4 MSTORE PUSH2 0x327 PUSH1 0x9 DUP7 ADD PUSH2 0x5C5 JUMP JUMPDEST SWAP4 PUSH2 0x120 DUP10 ADD SWAP5 DUP6 MSTORE PUSH1 0xFF PUSH1 0xB PUSH2 0x340 PUSH1 0xA DUP10 ADD PUSH2 0x5C5 JUMP JUMPDEST SWAP8 PUSH2 0x140 DUP13 ADD SWAP9 DUP10 MSTORE ADD SLOAD AND SWAP8 PUSH1 0x3 DUP10 LT ISZERO PUSH2 0x394 JUMPI PUSH2 0x160 DUP11 ADD DUP10 SWAP1 MSTORE SWAP9 MLOAD SWAP10 MLOAD SWAP11 MLOAD SWAP7 MLOAD SWAP9 MLOAD SWAP1 MLOAD SWAP2 MLOAD SWAP3 MLOAD SWAP4 MLOAD SWAP5 MLOAD SWAP6 MLOAD PUSH1 0x40 MLOAD SWAP12 DUP13 SWAP12 PUSH2 0x17A SWAP12 SWAP3 SWAP10 SWAP2 PUSH1 0x1 PUSH1 0x1 PUSH1 0xA0 SHL SUB SWAP1 DUP2 AND SWAP2 AND DUP14 PUSH2 0x4E2 JUMP JUMPDEST PUSH4 0x4E487B71 PUSH1 0xE0 SHL PUSH1 0x0 MSTORE PUSH1 0x21 PUSH1 0x4 MSTORE PUSH1 0x24 PUSH1 0x0 REVERT JUMPDEST CALLVALUE PUSH2 0x17E JUMPI PUSH1 0x0 CALLDATASIZE PUSH1 0x3 NOT ADD SLT PUSH2 0x17E JUMPI PUSH1 0x0 SLOAD PUSH8 0xFFFFFFFFFFFFFFFF DUP2 GT PUSH2 0x183 JUMPI PUSH2 0x3DD PUSH1 0x20 DUP3 PUSH1 0x5 SHL ADD DUP4 PUSH2 0x5A3 JUMP JUMPDEST DUP1 DUP3 MSTORE PUSH1 0x20 DUP3 ADD SWAP1 DUP2 PUSH1 0x0 DUP1 MSTORE PUSH32 0x290DECD9548B62A8D60345A988386FC84BA6BC95484008F6362F93160EF3E563 PUSH1 0x0 SWAP2 JUMPDEST DUP4 DUP4 LT PUSH2 0x47D JUMPI DUP5 DUP7 PUSH1 0x40 MLOAD SWAP2 DUP3 SWAP2 PUSH1 0x20 DUP4 ADD SWAP1 PUSH1 0x20 DUP5 MSTORE MLOAD DUP1 SWAP2 MSTORE PUSH1 0x40 DUP4 ADD SWAP1 PUSH1 0x40 DUP2 PUSH1 0x5 SHL DUP6 ADD ADD SWAP3 SWAP2 PUSH1 0x0 SWAP1 JUMPDEST DUP3 DUP3 LT PUSH2 0x44E JUMPI POP POP POP POP SUB SWAP1 RETURN JUMPDEST SWAP2 SWAP4 PUSH1 0x1 SWAP2 SWAP4 SWAP6 POP PUSH1 0x20 PUSH2 0x46D DUP2 SWAP3 PUSH1 0x3F NOT DUP11 DUP3 SUB ADD DUP7 MSTORE DUP9 MLOAD PUSH2 0x4BD JUMP JUMPDEST SWAP7 ADD SWAP3 ADD SWAP3 ADD DUP6 SWAP5 SWAP4 SWAP2 SWAP3 PUSH2 0x43F JUMP JUMPDEST PUSH1 0x1 PUSH1 0x20 DUP2 SWAP3 PUSH2 0x48C DUP6 PUSH2 0x5C5 JUMP JUMPDEST DUP2 MSTORE ADD SWAP3 ADD SWAP3 ADD SWAP2 SWAP1 PUSH2 0x40F JUMP JUMPDEST PUSH1 0x0 JUMPDEST DUP4 DUP2 LT PUSH2 0x4AD JUMPI POP POP PUSH1 0x0 SWAP2 ADD MSTORE JUMP JUMPDEST DUP2 DUP2 ADD MLOAD DUP4 DUP3 ADD MSTORE PUSH1 0x20 ADD PUSH2 0x49D JUMP JUMPDEST SWAP1 PUSH1 0x20 SWAP2 PUSH2 0x4D6 DUP2 MLOAD DUP1 SWAP3 DUP2 DUP6 MSTORE DUP6 DUP1 DUP7 ADD SWAP2 ADD PUSH2 0x49A JUMP JUMPDEST PUSH1 0x1F ADD PUSH1 0x1F NOT AND ADD ADD SWAP1 JUMP JUMPDEST SWAP13 SWAP12 SWAP11 SWAP9 SWAP5 PUSH2 0x565 SWAP5 PUSH2 0x574 SWAP8 DUP16 PUSH2 0x549 SWAP4 PUSH2 0x531 PUSH2 0x592 SWAP16 SWAP13 SWAP7 SWAP9 PUSH2 0x557 SWAP9 PUSH2 0x583 SWAP16 SWAP11 PUSH1 0x1 DUP1 PUSH1 0xA0 SHL SUB AND DUP6 MSTORE PUSH1 0x1 DUP1 PUSH1 0xA0 SHL SUB AND PUSH1 0x20 DUP6 ADD MSTORE PUSH2 0x180 PUSH1 0x40 DUP6 ADD MSTORE PUSH2 0x180 DUP5 ADD SWAP1 PUSH2 0x4BD JUMP JUMPDEST SWAP4 PUSH1 0x60 DUP4 ADD MSTORE PUSH1 0x80 DUP3 ADD MSTORE PUSH1 0xA0 DUP2 DUP5 SUB SWAP2 ADD MSTORE PUSH2 0x4BD JUMP JUMPDEST DUP14 DUP2 SUB PUSH1 0xC0 DUP16 ADD MSTORE SWAP1 PUSH2 0x4BD JUMP JUMPDEST SWAP1 DUP12 DUP3 SUB PUSH1 0xE0 DUP14 ADD MSTORE PUSH2 0x4BD JUMP JUMPDEST SWAP1 DUP10 DUP3 SUB PUSH2 0x100 DUP12 ADD MSTORE PUSH2 0x4BD JUMP JUMPDEST SWAP1 DUP8 DUP3 SUB PUSH2 0x120 DUP10 ADD MSTORE PUSH2 0x4BD JUMP JUMPDEST SWAP1 DUP6 DUP3 SUB PUSH2 0x140 DUP8 ADD MSTORE PUSH2 0x4BD JUMP JUMPDEST SWAP3 PUSH1 0x3 DUP3 LT ISZERO PUSH2 0x394 JUMPI PUSH2 0x160 ADD MSTORE JUMP JUMPDEST SWAP1 PUSH1 0x1F DUP1 NOT SWAP2 ADD AND DUP2 ADD SWAP1 DUP2 LT PUSH8 0xFFFFFFFFFFFFFFFF DUP3 GT OR PUSH2 0x183 JUMPI PUSH1 0x40 MSTORE JUMP JUMPDEST SWAP1 PUSH1 0x40 MLOAD SWAP2 PUSH1 0x0 DUP2 SLOAD SWAP2 DUP3 PUSH1 0x1 SHR SWAP3 PUSH1 0x1 DUP2 AND DUP1 ISZERO PUSH2 0x68B JUMPI JUMPDEST PUSH1 0x20 DUP6 LT DUP2 EQ PUSH2 0x677 JUMPI DUP5 DUP8 MSTORE DUP7 SWAP4 SWAP3 SWAP2 DUP2 ISZERO PUSH2 0x655 JUMPI POP PUSH1 0x1 EQ PUSH2 0x60E JUMPI JUMPDEST POP PUSH2 0x60C SWAP3 POP SUB DUP4 PUSH2 0x5A3 JUMP JUMPDEST JUMP JUMPDEST SWAP1 POP PUSH1 0x0 SWAP3 SWAP2 SWAP3 MSTORE PUSH1 0x20 PUSH1 0x0 KECCAK256 SWAP1 PUSH1 0x0 SWAP2 JUMPDEST DUP2 DUP4 LT PUSH2 0x639 JUMPI POP POP SWAP1 PUSH1 0x20 PUSH2 0x60C SWAP3 DUP3 ADD ADD CODESIZE PUSH2 0x5FF JUMP JUMPDEST PUSH1 0x20 SWAP2 SWAP4 POP DUP1 PUSH1 0x1 SWAP2 SLOAD DUP4 DUP6 DUP10 ADD ADD MSTORE ADD SWAP2 ADD SWAP1 SWAP2 DUP5 SWAP3 PUSH2 0x620 JUMP JUMPDEST SWAP1 POP PUSH1 0x20 SWAP3 POP PUSH2 0x60C SWAP5 SWAP2 POP PUSH1 0xFF NOT AND DUP3 DUP5 ADD MSTORE ISZERO ISZERO PUSH1 0x5 SHL DUP3 ADD ADD CODESIZE PUSH2 0x5FF JUMP JUMPDEST PUSH4 0x4E487B71 PUSH1 0xE0 SHL DUP5 MSTORE PUSH1 0x22 PUSH1 0x4 MSTORE PUSH1 0x24 DUP5 REVERT JUMPDEST SWAP4 PUSH1 0x7F AND SWAP4 PUSH2 0x5DF JUMP INVALID LOG2 PUSH5 0x6970667358 0x22 SLT KECCAK256 DIV 0xC0 0xDB AND PUSH23 0xFDA5E433B75B08C15F69FC3CC4972FFC18294C90A75B99 PUSH13 0x9C241E64736F6C634300081B00 CALLER "},"methodIdentifiers":{"ObatTradisional(string)":"eb608762","get_all_obat()":"49bd9672","get_obat_byId(string)":"a6dddde3","idObat(uint256)":"c723c191"}}}}}