{"contracts/ObatTradisional.sol":{"ObatTradisional":{"abi":[{"inputs":[{"internalType":"address","name":"_roleManagerAddr","type":"address"},{"internalType":"address","name":"_mainSupplyChainAddr","type":"address"}],"stateMutability":"nonpayable","type":"constructor"},{"anonymous":false,"inputs":[{"indexed":false,"internalType":"string","name":"nieNumber","type":"string"},{"indexed":false,"internalType":"string","name":"namaProduk","type":"string"}],"name":"evt_nieApproved","type":"event"},{"anonymous":false,"inputs":[{"indexed":false,"internalType":"string","name":"obatId","type":"string"},{"indexed":false,"internalType":"uint256","name":"timestampRequested","type":"uint256"},{"indexed":false,"internalType":"string","name":"namaProduk","type":"string"}],"name":"evt_nieRequested","type":"event"},{"anonymous":false,"inputs":[{"indexed":false,"internalType":"string","name":"namaProduk","type":"string"},{"indexed":false,"internalType":"string","name":"factoryInstanceNames","type":"string"},{"indexed":false,"internalType":"string","name":"factoryUserNames","type":"string"},{"indexed":false,"internalType":"address","name":"factoryAddresses","type":"address"},{"indexed":false,"internalType":"string","name":"kemasan","type":"string"},{"indexed":false,"internalType":"enum ObatTradisional.en_tipeProduk","name":"en_tipeProduk","type":"uint8"}],"name":"evt_obatCreated","type":"event"},{"anonymous":false,"inputs":[{"indexed":false,"internalType":"string","name":"namaProduk","type":"string"},{"indexed":false,"internalType":"uint8","name":"quantity","type":"uint8"},{"indexed":false,"internalType":"string","name":"orderId","type":"string"},{"indexed":false,"internalType":"string","name":"instanceName","type":"string"},{"indexed":false,"internalType":"address","name":"instanceAddress","type":"address"},{"indexed":false,"internalType":"uint256","name":"latestTimestamp","type":"uint256"}],"name":"evt_obatOrdered","type":"event"},{"anonymous":false,"inputs":[{"indexed":false,"internalType":"string","name":"namaProduk","type":"string"},{"indexed":false,"internalType":"uint8","name":"quantity","type":"uint8"},{"indexed":false,"internalType":"string","name":"batchNamee","type":"string"}],"name":"evt_obatProduced","type":"event"},{"inputs":[{"internalType":"string","name":"_namaProduk","type":"string"},{"internalType":"string","name":"_batchName","type":"string"},{"internalType":"string","name":"_obatId","type":"string"},{"internalType":"uint8","name":"_obatQuantity","type":"uint8"},{"internalType":"string","name":"_factoryInstanceName","type":"string"},{"internalType":"string[]","name":"_obatIpfsHash","type":"string[]"}],"name":"addQuantityObat","outputs":[],"stateMutability":"nonpayable","type":"function"},{"inputs":[{"internalType":"uint256","name":"","type":"uint256"}],"name":"allObatData","outputs":[{"internalType":"string","name":"obatId","type":"string"},{"internalType":"string","name":"merk","type":"string"},{"internalType":"string","name":"namaProduk","type":"string"},{"internalType":"string","name":"kemasan","type":"string"},{"internalType":"enum ObatTradisional.en_tipeProduk","name":"tipeProduk","type":"uint8"},{"internalType":"enum ObatTradisional.en_nieStatus","name":"obatStatus","type":"uint8"},{"internalType":"uint256","name":"nieRequestDate","type":"uint256"},{"internalType":"uint256","name":"nieApprovalDate","type":"uint256"},{"internalType":"string","name":"nieNumber","type":"string"}],"stateMutability":"view","type":"function"},{"inputs":[{"internalType":"uint256","name":"","type":"uint256"}],"name":"allOrderedObat","outputs":[{"internalType":"string","name":"orderId","type":"string"},{"internalType":"string","name":"namaProduk","type":"string"},{"internalType":"string","name":"obatIdProduk","type":"string"},{"internalType":"uint8","name":"orderQuantity","type":"uint8"},{"internalType":"string","name":"instanceName","type":"string"},{"internalType":"address","name":"instanceAddr","type":"address"},{"internalType":"enum ObatTradisional.en_orderStatus","name":"orderStatus","type":"uint8"},{"internalType":"uint256","name":"latestTimestamp","type":"uint256"}],"stateMutability":"view","type":"function"},{"inputs":[{"internalType":"uint256","name":"","type":"uint256"}],"name":"allProducedObat","outputs":[{"internalType":"string","name":"batchName","type":"string"},{"internalType":"string","name":"obatId","type":"string"},{"internalType":"string","name":"namaProduk","type":"string"},{"internalType":"uint8","name":"obatQuantity","type":"uint8"},{"internalType":"string","name":"factoryInstanceNames","type":"string"}],"stateMutability":"view","type":"function"},{"inputs":[{"internalType":"string","name":"_obatId","type":"string"},{"internalType":"address","name":"_bpomAddr","type":"address"},{"internalType":"string","name":"_bpomInstanceName","type":"string"},{"internalType":"string","name":"_bpomUserName","type":"string"},{"internalType":"string","name":"_nieNumber","type":"string"}],"name":"approveNie","outputs":[],"stateMutability":"nonpayable","type":"function"},{"inputs":[{"internalType":"string","name":"","type":"string"}],"name":"bpomAddresses","outputs":[{"internalType":"address","name":"","type":"address"}],"stateMutability":"view","type":"function"},{"inputs":[{"internalType":"string","name":"","type":"string"}],"name":"bpomInstanceNames","outputs":[{"internalType":"string","name":"","type":"string"}],"stateMutability":"view","type":"function"},{"inputs":[{"internalType":"string","name":"","type":"string"}],"name":"bpomUserNames","outputs":[{"internalType":"string","name":"","type":"string"}],"stateMutability":"view","type":"function"},{"inputs":[{"internalType":"string","name":"_obatId","type":"string"},{"internalType":"string","name":"_merk","type":"string"},{"internalType":"string","name":"_namaProduk","type":"string"},{"internalType":"string[]","name":"_klaim","type":"string[]"},{"internalType":"string","name":"_kemasan","type":"string"},{"internalType":"string[]","name":"_komposisi","type":"string[]"},{"internalType":"address","name":"_factoryAddr","type":"address"},{"internalType":"string","name":"_factoryInstanceName","type":"string"},{"internalType":"string","name":"_factoryUserName","type":"string"},{"internalType":"enum ObatTradisional.en_tipeProduk","name":"_tipeProduk","type":"uint8"}],"name":"createObat","outputs":[],"stateMutability":"nonpayable","type":"function"},{"inputs":[{"internalType":"string","name":"","type":"string"}],"name":"factoryAddresses","outputs":[{"internalType":"address","name":"","type":"address"}],"stateMutability":"view","type":"function"},{"inputs":[{"internalType":"string","name":"","type":"string"}],"name":"factoryInstanceNames","outputs":[{"internalType":"string","name":"","type":"string"}],"stateMutability":"view","type":"function"},{"inputs":[{"internalType":"string","name":"","type":"string"}],"name":"factoryUserNames","outputs":[{"internalType":"string","name":"","type":"string"}],"stateMutability":"view","type":"function"},{"inputs":[],"name":"getAllProducedObat","outputs":[{"components":[{"internalType":"string","name":"batchName","type":"string"},{"internalType":"string","name":"obatId","type":"string"},{"internalType":"string","name":"namaProduk","type":"string"},{"internalType":"uint8","name":"obatQuantity","type":"uint8"},{"internalType":"string","name":"factoryInstanceNames","type":"string"},{"internalType":"string[]","name":"obatIpfsHash","type":"string[]"}],"internalType":"struct ObatTradisional.st_obatProduction[]","name":"","type":"tuple[]"}],"stateMutability":"view","type":"function"},{"inputs":[{"internalType":"string","name":"_obatId","type":"string"}],"name":"getDetailProducedObatById","outputs":[{"internalType":"uint8","name":"obatQuantity","type":"uint8"},{"internalType":"string[]","name":"obatIpfsHash","type":"string[]"}],"stateMutability":"view","type":"function"},{"inputs":[{"internalType":"string","name":"_factoryInstanceName","type":"string"}],"name":"getJenisSediaanAvail","outputs":[{"internalType":"uint8[]","name":"","type":"uint8[]"}],"stateMutability":"view","type":"function"},{"inputs":[],"name":"getListAllObatNie","outputs":[{"internalType":"string[]","name":"","type":"string[]"},{"internalType":"string[]","name":"","type":"string[]"},{"internalType":"string[]","name":"","type":"string[]"},{"internalType":"uint256[]","name":"","type":"uint256[]"},{"internalType":"uint8[]","name":"","type":"uint8[]"}],"stateMutability":"view","type":"function"},{"inputs":[],"name":"getListAllProducedObat","outputs":[{"internalType":"string[]","name":"obatIdArray","type":"string[]"},{"internalType":"string[]","name":"namaProdukArray","type":"string[]"},{"internalType":"uint8[]","name":"obatQuantityArray","type":"uint8[]"}],"stateMutability":"view","type":"function"},{"inputs":[{"internalType":"string","name":"_factoryInstanceName","type":"string"}],"name":"getListAllProducedObatByFactory","outputs":[{"internalType":"string[]","name":"","type":"string[]"},{"internalType":"string[]","name":"","type":"string[]"},{"internalType":"uint8[]","name":"","type":"uint8[]"}],"stateMutability":"view","type":"function"},{"inputs":[{"internalType":"string","name":"_factoryInstanceName","type":"string"}],"name":"getListObatByFactory","outputs":[{"internalType":"string[]","name":"","type":"string[]"},{"internalType":"string[]","name":"","type":"string[]"},{"internalType":"uint8[]","name":"","type":"uint8[]"},{"internalType":"uint8[]","name":"","type":"uint8[]"}],"stateMutability":"view","type":"function"},{"inputs":[{"internalType":"string","name":"_obatId","type":"string"}],"name":"getListObatById","outputs":[{"components":[{"internalType":"string","name":"obatId","type":"string"},{"internalType":"string","name":"merk","type":"string"},{"internalType":"string","name":"namaProduk","type":"string"},{"internalType":"string[]","name":"klaim","type":"string[]"},{"internalType":"string","name":"kemasan","type":"string"},{"internalType":"string[]","name":"komposisi","type":"string[]"},{"internalType":"enum ObatTradisional.en_tipeProduk","name":"tipeProduk","type":"uint8"},{"internalType":"enum ObatTradisional.en_nieStatus","name":"obatStatus","type":"uint8"},{"internalType":"uint256","name":"nieRequestDate","type":"uint256"},{"internalType":"uint256","name":"nieApprovalDate","type":"uint256"},{"internalType":"string","name":"nieNumber","type":"string"}],"internalType":"struct ObatTradisional.st_obatDetails","name":"obatDetails","type":"tuple"},{"internalType":"address","name":"factoryAddress","type":"address"},{"internalType":"string","name":"factoryInstanceName","type":"string"},{"internalType":"string","name":"factoryUserName","type":"string"},{"internalType":"address","name":"bpomAddress","type":"address"},{"internalType":"string","name":"bpomInstanceName","type":"string"},{"internalType":"string","name":"bpomUserName","type":"string"}],"stateMutability":"view","type":"function"},{"inputs":[],"name":"mainSupplyChain","outputs":[{"internalType":"contract MainSupplyChain","name":"","type":"address"}],"stateMutability":"view","type":"function"},{"inputs":[{"internalType":"string","name":"","type":"string"}],"name":"obatDetailsById","outputs":[{"internalType":"string","name":"obatId","type":"string"},{"internalType":"string","name":"merk","type":"string"},{"internalType":"string","name":"namaProduk","type":"string"},{"internalType":"string","name":"kemasan","type":"string"},{"internalType":"enum ObatTradisional.en_tipeProduk","name":"tipeProduk","type":"uint8"},{"internalType":"enum ObatTradisional.en_nieStatus","name":"obatStatus","type":"uint8"},{"internalType":"uint256","name":"nieRequestDate","type":"uint256"},{"internalType":"uint256","name":"nieApprovalDate","type":"uint256"},{"internalType":"string","name":"nieNumber","type":"string"}],"stateMutability":"view","type":"function"},{"inputs":[{"internalType":"string","name":"","type":"string"}],"name":"obatProductionDetailsById","outputs":[{"internalType":"string","name":"batchName","type":"string"},{"internalType":"string","name":"obatId","type":"string"},{"internalType":"string","name":"namaProduk","type":"string"},{"internalType":"uint8","name":"obatQuantity","type":"uint8"},{"internalType":"string","name":"factoryInstanceNames","type":"string"}],"stateMutability":"view","type":"function"},{"inputs":[{"internalType":"string","name":"","type":"string"}],"name":"orderObatById","outputs":[{"internalType":"string","name":"orderId","type":"string"},{"internalType":"string","name":"namaProduk","type":"string"},{"internalType":"string","name":"obatIdProduk","type":"string"},{"internalType":"uint8","name":"orderQuantity","type":"uint8"},{"internalType":"string","name":"instanceName","type":"string"},{"internalType":"address","name":"instanceAddr","type":"address"},{"internalType":"enum ObatTradisional.en_orderStatus","name":"orderStatus","type":"uint8"},{"internalType":"uint256","name":"latestTimestamp","type":"uint256"}],"stateMutability":"view","type":"function"},{"inputs":[{"internalType":"string","name":"_obatIdProduk","type":"string"},{"internalType":"string","name":"_orderId","type":"string"},{"internalType":"string","name":"_namaProduk","type":"string"},{"internalType":"uint8","name":"_orderQuantity","type":"uint8"},{"internalType":"address","name":"_pbfAddr","type":"address"},{"internalType":"string","name":"_pbfInstanceName","type":"string"}],"name":"pbfOrder","outputs":[],"stateMutability":"nonpayable","type":"function"},{"inputs":[{"internalType":"string","name":"_obatId","type":"string"}],"name":"requestNie","outputs":[],"stateMutability":"nonpayable","type":"function"},{"inputs":[{"internalType":"string","name":"_obatIdProduk","type":"string"},{"internalType":"string","name":"_orderId","type":"string"},{"internalType":"string","name":"_namaProduk","type":"string"},{"internalType":"uint8","name":"_orderQuantity","type":"uint8"},{"internalType":"address","name":"_retailerAddr","type":"address"},{"internalType":"string","name":"_retailerInstanceName","type":"string"},{"internalType":"string[]","name":"_orderObatIpfsHash","type":"string[]"}],"name":"retailerOrder","outputs":[],"stateMutability":"nonpayable","type":"function"},{"inputs":[],"name":"roleManager","outputs":[{"internalType":"contract RoleManager","name":"","type":"address"}],"stateMutability":"view","type":"function"},{"inputs":[{"internalType":"address","name":"","type":"address"}],"name":"userRoles","outputs":[{"internalType":"enum ObatTradisional.en_roles","name":"","type":"uint8"}],"stateMutability":"view","type":"function"}],"evm":{"bytecode":{"linkReferences":{},"object":"608034608657601f615b6938819003918201601f19168301916001600160401b03831184841017608b578084926040948552833981010312608657604b602060458360a1565b920160a1565b600080546001600160a01b039384166001600160a01b03199182161790915560018054929093169116179055604051615ab490816100b58239f35b600080fd5b634e487b7160e01b600052604160045260246000fd5b51906001600160a01b038216820360865756fe608080604052600436101561001357600080fd5b60003560e01c908162435da51461381e5750806301d62d3b146137655780630a04f9c8146137095780631a95e6721461361d5780631c0b2030146135b55780631dce6e581461338757806325606bc314612f615780632732183714612f10578063349a7a7214612ebc5780634b87568a14612e5457806374d5e10014612df45780637aad01bd14612d255780637ade51dd1461262f5780637d08414f146125f657806386f5cea61461253457806392b385c9146123a35780639413fcfd1461237a578063998c1fcb146122c65780639d9315c214612272578063a812536d1461221e578063b7e6656814611fa4578063b896cb9a14611def578063bb43bdf714611bd7578063bc4a6f6c14611983578063d19487e4146111ee578063d44faa63146110b9578063d9d284dc14610490578063e06749ba146101e85763f10228621461015d57600080fd5b346101e35760203660031901126101e3576004356001600160401b0381116101e3576101c46101cb6101ae602061019b6101df953690600401613b0b565b8160405193828580945193849201613842565b810160078152030190206040519283809261398e565b0382613a64565b604051918291602083526020830190613865565b0390f35b600080fd5b346101e35760003660031901126101e357600080600254905b818110610452575061021282613d9e565b9061021c83613d9e565b61022584613d9e565b61022e85613cc1565b9161023c6040519384613a64565b85835261025d61024b87613cc1565b602085019790601f1901368937613de8565b936000805b8281106102eb575050506020916102986102a69261028b6040519860a08a5260a08a019061388a565b90888203868a015261388a565b90868203604088015261388a565b918483036060860152519182815201939060005b8181106102d55784806101df888783820360808501526138e3565b82518652602095860195909201916001016102ba565b60ff60066102f883613c0c565b50015460081c1661030881613a85565b610315575b600101610262565b906104376001916101c461033861032b86613c0c565b506040519283809261398e565b610342828c613f0f565b5261034d818b613f0f565b50600261036d61035c86613c0c565b506101c4604051809481930161398e565b6103778288613f0f565b526103828187613f0f565b506101c46103b86103a4602061039788613c0c565b506040519283809261430a565b60098152030190206040519283809261398e565b6103c28289613f0f565b526103cd8188613f0f565b5060086103d985613c0c565b50015460076103e786613c0c565b500154101561043f5760086103fb85613c0c565b5001545b610409828a613f0f565b5260ff600661041786613c0c565b50015460081c1661042781613a85565b610431828b613f0f565b52614378565b91905061030d565b600761044a85613c0c565b5001546103ff565b60ff600661045f83613c0c565b50015460081c1661046f81613a85565b61047c575b600101610201565b91610488600191614378565b929050610474565b346101e3576101403660031901126101e3576004356001600160401b0381116101e3576104c1903690600401613b0b565b6024356001600160401b0381116101e3576104e0903690600401613b0b565b6044356001600160401b0381116101e3576104ff903690600401613b0b565b906064356001600160401b0381116101e35761051f903690600401613cd8565b906084356001600160401b0381116101e35761053f903690600401613b0b565b9060a4356001600160401b0381116101e35761055f903690600401613cd8565b60c4356001600160a01b03811691908290036101e35760e4356001600160401b0381116101e357610594903690600401613b0b565b96610104356001600160401b0381116101e3576105b5903690600401613b0b565b91610124359660028810156101e357600080546040516395a8c58d60e01b81523360048201526024810192909252602090829060449082906001600160a01b03165afa80156110ad576106109160009161107e575b5061440c565b6040519561061d87613a11565b8387526020870152886040870152606086015285608086015260a08501526106488660c086016143e9565b600260e085015260006101008501526000610120850152604090815161066e8382613a64565b60098152682a22aa29a22329a22360b91b60208201526101408601528151946106b4818760208186516106a581848a019d8e613842565b8101600c8152030190206151ae565b600254600160401b811015610f03578060016106d39201600255613c0c565b919091611068576106e3916151ae565b815160208183516106f581838b613842565b81016008815203019020846bffffffffffffffffffffffff60a01b8254161790558151602081835161072881838b613842565b8101600981520301902089516001600160401b038111610f035761074c8254613954565b601f8111611036575b506020601f8211600114610fd057908061078592600091610fc5575b508160011b916000199060031b1c19161790565b90555b8151602081835161079a81838b613842565b8101600a81520301902083516001600160401b038111610f03576107be8254613954565b601f8111610f88575b506020601f8211600114610f245790806107f692600091610f1957508160011b916000199060031b1c19161790565b90555b8151946102006108098188613a64565b600f8752601f190160005b818110610ef257505082519161082983613a49565b83516108358582613a64565b601d8152602081017f424e2d32303234313132352d5054506861726d61496e646f2d5834354100000090528352806020840152898484015260608301600f90528a608084015260a0830187815260609785516108918a82613a64565b602e81527f516d5a706a516644654452505253724834573431334777443557626239554d4760208201526d1ab4b6b8b83338b9a839a0bc369960911b878201526108da82613e1a565b526108e490613e1a565b50805185516108f38a82613a64565b602e81527f516d585655454e637a666342617242745132776944744c6d5a5632506137386e60208201526d1935b6a3a238351cb2353298acb760911b8782015261093c82613e27565b5261094690613e27565b50805185516109558a82613a64565b602e81527f516d6436517662316f58616431777a5a75354a36587259646e477039466a337460208201526d145d59559cdcce589dd1d59214d560921b8782015261099e82613e37565b526109a890613e37565b50805185516109b78a82613a64565b602e81527f516d56553255784d724a657168726e5144504a6972617546735773364a37584c60208201526d446944514b69783848566445547360901b87820152610a0082613e47565b52610a0a90613e47565b5080518551610a198a82613a64565b602e81527f516d646d523450666e6e35674344355861617776727669586d45334a7369617860208201526d524633654e727a6859314342553760901b87820152610a6282613e57565b52610a6c90613e57565b5080518551610a7b8a82613a64565b602e81527f516d517254726667674b5437366e525a563872426a6361546f576648434d7a5760208201526d715934795752705733534436596760901b87820152610ac482613e67565b52610ace90613e67565b5080518551610add8a82613a64565b602e81527f516d515848585145505032506e4662513636685367325a4d4e643653537a664660208201526d25a1a52420a2b4b9acba9c19192b60911b87820152610b2682613e77565b52610b3090613e77565b5080518551610b3f8a82613a64565b602e81527f516d554543695837714869483868346b723275346836716169473866536a395a60208201526d135d18d091d9d15210d55e5b4c5360921b87820152610b8882613e87565b52610b9290613e87565b5080518551610ba18a82613a64565b602e81527f516d55775a727439624c6a6e684d4c43693443466361547659675a6157554a5260208201526d635a444b71733963336d7179487960901b87820152610bea82613e98565b52610bf490613e98565b5080518551610c038a82613a64565b602e81527f516d4e4e75775a415548366758386854636b366f6861344e6a4d68456337357860208201526d7679474371324c7046447459434760901b87820152610c4c82613ea9565b52610c5690613ea9565b5080518551610c658a82613a64565b602e81527f516d6162687874624b796531656f47504d6664617a5743356d544a734b41745560208201526d31a33129b43319ad31b6b1b6aba760911b87820152610cae82613eba565b52610cb890613eba565b5080518551610cc78a82613a64565b602e81527f516d6552686f6b686b47363142693378656d443967635a41484b386b3663753860208201526d79434e415445637255677334547960901b87820152610d1082613ecb565b52610d1a90613ecb565b5080518551610d298a82613a64565b602e81527f516d616d526b504e4d425874706e687558344573623852516d394e4e7077433360208201526d7a64414d5461725077577269536560901b87820152610d7282613edc565b52610d7c90613edc565b5080518551610d8b8a82613a64565b602e81527f516d566b377467705573635047563267694b7779354b414a79434e506e53445360208201526d35644d4b43336d534639357a4e6f60901b87820152610dd482613eed565b52610dde90613eed565b50518451610dec8982613a64565b602e81527f516d5464734a4e4437426450414b4a5a4438484a70703373544559374474675760208201526d379b3937aa3a35ba2538b439b91960911b86820152610e3582613efe565b52610e3f90613efe565b50610e4983615159565b835180928192518092610e5b92613842565b8101600d815203602001902090610e7191614b86565b805197889760c0895260c08901610e8791613865565b88810360208a0152610e9891613865565b9087820390880152610ea991613865565b918501528381036080850152610ebe91613865565b9060a08301610ecc91613b61565b037f634ef467423c7b2abbaf26097bdddac4a495d36be69ca3d1555484b46e7899c791a1005b806060602080938b01015201610814565b634e487b7160e01b600052604160045260246000fd5b90508601518d610771565b601f1982169083600052806000209160005b818110610f7057509083600194939210610f57575b5050811b0190556107f9565b87015160001960f88460031b161c191690558c80610f4b565b9192602060018192868c015181550194019201610f36565b610fb590836000526020600020601f840160051c81019160208510610fbb575b601f0160051c01906143f5565b8b6107c7565b9091508190610fa8565b90508c01518d610771565b60008381528181209190601f198416908e5b82821061101d5750509083600194939210611004575b5050811b019055610788565b8d015160001960f88460031b161c191690558c80610ff8565b600184956020939584930151815501940192018e610fe2565b61106290836000526020600020601f840160051c81019160208510610fbb57601f0160051c01906143f5565b8b610755565b634e487b7160e01b600052600060045260246000fd5b6110a0915060203d6020116110a6575b6110988183613a64565b810190613f23565b8c61060a565b503d61108e565b6040513d6000823e3d90fd5b346101e35760203660031901126101e3576004356001600160401b0381116101e35760006110ee61111b923690600401613b0b565b60018060a01b03600154166040518080958194629a308760e31b8352602060048401526024830190613865565b03915afa9081156110ad57600091611144575b604051602080825281906101df908201856138e3565b3d8083833e6111538183613a64565b8101906020818303126111e2578051906001600160401b0382116111ea57019080601f830112156111e25781519261118a84613cc1565b926111986040519485613a64565b84845260208085019560051b8201019283116111e657602001935b8285106111c8575050506101df91509061112e565b845160ff811681036111e2578152602094850194016111b3565b8280fd5b5080fd5b8380fd5b346101e35760c03660031901126101e3576004356001600160401b0381116101e35761121e903690600401613b0b565b6024356001600160401b0381116101e35761123d903690600401613b0b565b6044356001600160401b0381116101e35761125c903690600401613b0b565b90611265613cb1565b906084356001600160401b0381116101e357611285903690600401613b0b565b9260a4356001600160401b0381116101e3576112a5903690600401613cd8565b906044602060018060a01b0360005416604051928380926395a8c58d60e01b8252336004830152600060248301525afa80156110ad576112ec91600091611964575061440c565b60ff8251941693840361190d576040519460028251966020818186019961131481838d613842565b8101600d815203019020016040516113428161133460208201809561430a565b03601f198101835282613a64565b51902087604051611374602082816113638183019687815193849201613842565b81010301601f198101835282613a64565b5190200361187d57506003604051602081845161139281838c613842565b8101600d815203019020018460ff19825416179055600560405160208184516113bc81838c613842565b8101600d81520301902001908251600160401b8111610f035782548184558082106117ff575b50602084019081936000526020600020916000905b8282106116e7575050505060005b6003548110156116b257600161133461143461142084613c41565b50604051928391602083019586910161430a565b5190206113636040516114546020828c8282019586918a51928391613842565b5190201461146457600101611405565b600592939495965061148d9150600361147c82613c41565b5001805460ff191688179055613c41565b5001915190600160401b8211610f03578254828455808310611634575b50916000526020600020916000905b82821061151b575050505091611516611503927fabb6d08782df0e4c2ee63deacc72efc9c1a9422c00fc5d8075160d11eaa40b4a945b604051948594606086526060860190613865565b9160208501528382036040850152613865565b0390a1005b80518051906001600160401b038211610f03576115388654613954565b601f8111611602575b50602090601f8311600114611595579261157b8360019594602094879660009261158a575b50508160011b916000199060031b1c19161790565b87555b019401910190926114b9565b015190508d80611566565b90601f1983169187600052816000209260005b8181106115ea57509360209360019693879693838895106115d1575b505050811b01875561157e565b015160001960f88460031b161c191690558c80806115c4565b929360206001819287860151815501950193016115a8565b61162e90876000526020600020601f850160051c81019160208610610fbb57601f0160051c01906143f5565b89611541565b8360005282602060002091820191015b81811061165157506114aa565b8061165e60019254613954565b8061166b575b5001611644565b601f811183146116815750600081555b89611664565b61169f908260005283601f6020600020920160051c820191016143f5565b806000526000602081208183555561167b565b5050505061150392507fabb6d08782df0e4c2ee63deacc72efc9c1a9422c00fc5d8075160d11eaa40b4a9391611516916114ef565b80518051906001600160401b038211610f03576117048654613954565b601f81116117cd575b50602090601f83116001146117605792611746836001959460209487966000926117555750508160011b916000199060031b1c19161790565b87555b019401910190926113f7565b015190503880611566565b90601f1983169187600052816000209260005b8181106117b5575093602093600196938796938388951061179c575b505050811b018755611749565b015160001960f88460031b161c1916905538808061178f565b92936020600181928786015181550195019301611773565b6117f990876000526020600020601f850160051c81019160208610610fbb57601f0160051c01906143f5565b8d61170d565b8360005281602060002091820191015b81811061181c57506113e2565b8061182960019254613954565b80611836575b500161180f565b601f8111831461184c5750600081555b8b61182f565b61186a908260005283601f6020600020920160051c820191016143f5565b8060005260006020812081835555611846565b7fabb6d08782df0e4c2ee63deacc72efc9c1a9422c00fc5d8075160d11eaa40b4a969492611903611908926118f460206115039a61151699976040519687956118c587613a49565b8a875282858801528d60408801528b6060880152608087015260a0860152604051938492839251928391613842565b8101600d815203019020614b86565b615159565b6114ef565b60405162461bcd60e51b815260206004820152602960248201527f5175616e7469747920646f6573206e6f74206d6174636820746865206e756d626044820152686572206f662049447360b81b6064820152608490fd5b61197d915060203d6020116110a6576110988183613a64565b8861060a565b346101e35760203660031901126101e3576004356001600160401b0381116101e3576119b3903690600401613b0b565b600080546040516395a8c58d60e01b81523360048201526024810192909252602090829060449082906001600160a01b03165afa80156110ad576119fe91600091611bb8575061440c565b60405181519060208181850193611a16818387613842565b8101600c8152030190209160068301805460ff8160081c16611a3781613a85565b611b565742600786015561ff00191661010017905560005b600254811015611b2657611a6281613c0c565b50604051611a788161133460208201809561430a565b5190206040516020810190611a96602082875161136381878c613842565b51902014611aa657600101611a4f565b611b1192507f854681db4b5190ceaacfe5894893f2e8d49873d9b8ed6c72b5618047cb3924e5936006611aeb83611adf61151695613c0c565b50600742910155613c0c565b5001805461ff0019166101001790555b6002604051948594606086526060860190613865565b9142602086015284830360408601520161398e565b50611b1191506115167f854681db4b5190ceaacfe5894893f2e8d49873d9b8ed6c72b5618047cb3924e593611afb565b60405162461bcd60e51b815260206004820152603460248201527f4f62617420547261646973696f6e616c20737461747573206d75737420626520604482015273696e206c6f63616c2070726f64756374696f6e2160601b6064820152608490fd5b611bd1915060203d6020116110a6576110988183613a64565b8361060a565b346101e35760c03660031901126101e3576004356001600160401b0381116101e357611c07903690600401613b0b565b6024356001600160401b0381116101e357611c26903690600401613b0b565b6044356001600160401b0381116101e357611c45903690600401613b0b565b91611c4e613cb1565b90611c57613bf6565b9360a4356001600160401b0381116101e357611c77903690600401613b0b565b6000546040516395a8c58d60e01b81523360048201526001602482015291969190602090829060449082906001600160a01b03165afa9081156110ad57600091611dd0575b5015611d8b577f95b629c00caaa10e5c594b3f10670964fdfeff8de039e6e3ae5acc2aed2a3fdb95611d7d6115169460ff8716611cfc6032821015614457565b611d04613d56565b9060405192611d1284613a2d565b8a84528760208501526040840152606083015283608083015260018060a01b03851660a0830152600060c08301524260e0830152610100820152611d7881611d6960208b8160405193828580945193849201613842565b8101600e8152030190206144a3565b614ad8565b604051958695429487614b2f565b60405162461bcd60e51b815260206004820152601d60248201527f416363657373207265737472696374656420746f2050424620726f6c650000006044820152606490fd5b611de9915060203d6020116110a6576110988183613a64565b87611cbc565b346101e35760203660031901126101e3576004356001600160401b0381116101e357611e1f903690600401613b0b565b606090604051611e5a611e53600184519360208181880196611e4281838a613842565b8101600d8152030190200154613954565b151561439d565b60ff60036040516020818651611e71818389613842565b8101600d8152030190200154169160018060a01b03600054166040516395a8c58d60e01b815233600482015260016024820152602081604481855afa9081156110ad57600091611f85575b5015611eed575050509050611ecf613d56565b905b6101df604051928392835260406020840152604083019061388a565b6020604491604051928380926395a8c58d60e01b8252336004830152600060248301525afa9081156110ad57600091611f66575b50611f2e575b5050611ed1565b611f5e9293506020600592611f4e92604051938492839251928391613842565b8101600d81520301902001613f3b565b908280611f27565b611f7f915060203d6020116110a6576110988183613a64565b85611f21565b611f9e915060203d6020116110a6576110988183613a64565b86611ebc565b346101e35760e03660031901126101e3576004356001600160401b0381116101e357611fd4903690600401613b0b565b6024356001600160401b0381116101e357611ff3903690600401613b0b565b6044356001600160401b0381116101e357612012903690600401613b0b565b61201a613cb1565b90612023613bf6565b60a4356001600160401b0381116101e357612042903690600401613b0b565b60c4356001600160401b0381116101e357612061903690600401613cd8565b6000546040516395a8c58d60e01b81523360048201526003602482015291979190602090829060449082906001600160a01b03165afa9081156110ad576000916121ff575b50156121af5760ff8516966120be6032891015614457565b6002546060926020810160005b838110612111575b5050505061151694939291611d7d917f95b629c00caaa10e5c594b3f10670964fdfeff8de039e6e3ae5acc2aed2a3fdb9960405192611d1284613a2d565b61211a81613c0c565b506040516121308161133460208201809561430a565b519020604051602081019061214e602082885161136381878b613842565b5190201461215e576001016120cb565b61151698979695507f95b629c00caaa10e5c594b3f10670964fdfeff8de039e6e3ae5acc2aed2a3fdb9b9350611d7d9492506101c4915061032b6121a191613c0c565b93949596829a8294506120d3565b60405162461bcd60e51b815260206004820152602260248201527f416363657373207265737472696374656420746f2052657461696c657220726f6044820152616c6560f01b6064820152608490fd5b612218915060203d6020116110a6576110988183613a64565b886120a6565b346101e35760203660031901126101e3576004356001600160401b0381116101e3576101c46101cb61225c602061019b6101df953690600401613b0b565b810160098152030190206040519283809261398e565b346101e35760203660031901126101e3576004356001600160401b0381116101e3576101c46101cb6122b0602061019b6101df953690600401613b0b565b810160068152030190206040519283809261398e565b346101e35760203660031901126101e3576004356001600160401b0381116101e357602061019b6122fb923690600401613b0b565b8101600d815203019020604051612316816101c4818561398e565b6101df60046040519361233785612330816001850161398e565b0386613a64565b60405161234b816101c4816002860161398e565b61236e60ff60038401541692612367604051809681930161398e565b0384613a64565b60405195869586613c60565b346101e35760003660031901126101e3576001546040516001600160a01b039091168152602090f35b346101e35760203660031901126101e3576004356001600160401b0381116101e3576123d3903690600401613b0b565b600080546040516395a8c58d60e01b81523360048201526024810192909252602090829060449082906001600160a01b03165afa80156110ad5761241e91600091611bb8575061440c565b6003546000916020810190835b8381106124e05750505061243e82613d9e565b9061245161244b84613d9e565b93613de8565b906000805b828210612470575050506101df906040519384938461391a565b6124d86001918261248361035c86613c41565b61248d8289613f0f565b526124988188613f0f565b5060026124a761035c86613c41565b6124b1828a613f0f565b526124bc8189613f0f565b5060ff60036124ca86613c41565b500154166104318288613f0f565b910190612456565b60046113346124f161142084613c41565b519020604051602081019061250f602082875161136381878c613842565b51902014612520575b60010161242b565b9361252c600191614378565b949050612518565b346101e35760203660031901126101e3576004356001600160401b0381116101e357602061019b612569923690600401613b0b565b8101600e815203019020604051612584816101c4818561398e565b6101df6040519161259c83612367816001880161398e565b604051936125b185612330816002850161398e565b60ff600382015416916040516125ce816101c4816004870161398e565b600660058401549301549360405197889760ff8660a01c169560018060a01b03169489613a8f565b346101e35760203660031901126101e3576004356003548110156101e35761261d90613c41565b50604051612316816101c4818561398e565b346101e35760a03660031901126101e3576004356001600160401b0381116101e35761265f903690600401613b0b565b602435906001600160a01b03821682036101e3576044356001600160401b0381116101e357612692903690600401613b0b565b906064356001600160401b0381116101e3576126b2903690600401613b0b565b906084356001600160401b0381116101e3576126d2903690600401613b0b565b9160405193825194602081818601976126ec81838b613842565b8101600c81520301902095600687018054600160ff8260081c1661270f81613a85565b03612cca574260088a015561ff001916610200179055845160098801906001600160401b038111610f03576127448254613954565b601f8111612c98575b506020601f8211600114612c3257908061277c92600091612c2757508160011b916000199060031b1c19161790565b90555b604051602081865161279281838c613842565b810160058152030190209060018060a01b03166bffffffffffffffffffffffff60a01b82541617905560405160208185516127ce81838b613842565b81016006815203019020908051906001600160401b038211610f03576127f48354613954565b601f8111612bf5575b50602090601f8311600114612b8e5761282e929160009183612b835750508160011b916000199060031b1c19161790565b90555b604051602081845161284481838a613842565b81016007815203019020908051906001600160401b038211610f035761286a8354613954565b601f8111612b51575b50602090601f8311600114612aea576128a4929160009183612adf5750508160011b916000199060031b1c19161790565b90555b60005b600254811015612aae576128bd81613c0c565b506040516128d38161133460208201809561430a565b51902060405160208101906128f1602082875161136381878d613842565b51902014612901576001016128aa565b600992935061293a915061291481613c0c565b50600842910155600661292682613c0c565b5001805461ff001916610200179055613c0c565b5001918151926001600160401b038411610f03576129588154613954565b601f8111612a7c575b50602093601f81116001146129ee5791611516916129bb846129d496957f489f165b733603cb0a992d8cafd6c42a0c13d169039003f751758b9f0019f26c986000916129e357508160011b916000199060031b1c19161790565b90555b6002604051948594604086526040860190613865565b9184830360208601520161398e565b905086015189610771565b601f1981169482600052806000209560005b818110612a645750827f489f165b733603cb0a992d8cafd6c42a0c13d169039003f751758b9f0019f26c9761151695936129d498979560019410612a4b575b5050811b0190556129be565b87015160001960f88460031b161c191690558880612a3f565b86830151885560019097019660209283019201612a00565b612aa890826000526020600020601f870160051c81019160208810610fbb57601f0160051c01906143f5565b84612961565b50506129d491506115167f489f165b733603cb0a992d8cafd6c42a0c13d169039003f751758b9f0019f26c936129be565b015190508880611566565b90601f1983169184600052816000209260005b818110612b395750908460019594939210612b20575b505050811b0190556128a7565b015160001960f88460031b161c19169055878080612b13565b92936020600181928786015181550195019301612afd565b612b7d90846000526020600020601f850160051c81019160208610610fbb57601f0160051c01906143f5565b87612873565b015190508980611566565b90601f1983169184600052816000209260005b818110612bdd5750908460019594939210612bc4575b505050811b019055612831565b015160001960f88460031b161c19169055888080612bb7565b92936020600181928786015181550195019301612ba1565b612c2190846000526020600020601f850160051c81019160208610610fbb57601f0160051c01906143f5565b886127fd565b90508801518b610771565b601f1982169083600052806000209160005b8a828210612c805750509083600194939210612c67575b5050811b01905561277f565b89015160001960f88460031b161c191690558a80612c5b565b60018495602093958493015181550194019201612c44565b612cc490836000526020600020601f840160051c81019160208510610fbb57601f0160051c01906143f5565b8961274d565b60405162461bcd60e51b815260206004820152602d60248201527f4f62617420547261646973696f6e616c20737461747573206d7573742062652060448201526c5265717565737465644e49452160981b6064820152608490fd5b346101e35760203660031901126101e3576004356002548110156101e357612d4c90613c0c565b5060405190612d6682612d5f818461398e565b0383613a64565b6101df600960405192612d8784612d80816001850161398e565b0385613a64565b60405194612da386612d9c816002860161398e565b0387613a64565b60405190612db882612d5f816004870161398e565b600683015490600784015492612ddd600886015495612d9c604051809981930161398e565b60405198899860ff808660081c169516938a613b6e565b346101e35760203660031901126101e3576004356001600160a01b038116908190036101e357600052600b60205260ff604060002054166040516004821015612e3e576020918152f35b634e487b7160e01b600052602160045260246000fd5b346101e35760203660031901126101e3576004356001600160401b0381116101e357612e866020913690600401613b0b565b81612e9a6040519283815193849201613842565b600890820190815281900382019020546040516001600160a01b039091168152f35b346101e35760203660031901126101e3576004356001600160401b0381116101e3576101c46101cb612efa602061019b6101df953690600401613b0b565b8101600a8152030190206040519283809261398e565b346101e35760203660031901126101e3576004356001600160401b0381116101e357602061019b612f45923690600401613b0b565b8101600c81520301902060405190612d6682612d5f818461398e565b346101e35760203660031901126101e3576004356001600160401b0381116101e357612f94610140913690600401613b0b565b606082604051612fa381613a11565b82815282602082015282604082015282808201528260808201528260a0820152600060c0820152600060e08201526000610100820152600061012082015201526101df6132436133796040519361301b611e538251966020818186019961300b81838d613842565b8101600c81520301902054613954565b6132156133666131bb6133586040516020818061303c8d8a51928391613842565b8101600c81520301902098600961312c6040519b6130598d613a11565b60405161306a816101c4818561398e565b8d5260405160208e61308383612367816001880161398e565b01528c604080519161309c83612367816002880161398e565b01528c60606130ad60038401613f3b565b91015260405160808e6130c783612367816004880161398e565b01528c60a06130d860058401613f3b565b9101528c60e060ff60068401546130f482821660c086016143e9565b60081c169161310283613a85565b01528c61010060078301549101528c61012060088301549101526101c4604051809481930161398e565b8b8b015261233061324a61322d60206040518a5161314b818389613842565b81019060088252828160018060a01b03930301902054169461318f8b83604051809251613179818388613842565b810160098152030190206040519687809261398e565b6131c28b836040518092516131a5818388613842565b8101600a815203019020604051998a809261398e565b0389613a64565b6040518b516131d2818385613842565b81019060058252838160018060a01b03930301902054169a61321c604051848184516131ff818389613842565b810160068152030190206040519c8d809261398e565b038c613a64565b604051938492839251928391613842565b810160078152030190206040519a8b809261398e565b038a613a64565b613345604051809d819d60e083526132f06132d96132c26132ad61329661327f865161016060e08b01526102408a0190613865565b602087015189820360df19016101008b0152613865565b604086015188820360df19016101208a0152613865565b606085015187820360df19018789015261388a565b608084015186820360df1901610160880152613865565b60a083015185820360df190161018087015261388a565b9261330460c08301516101a0830190613b61565b60e082015161331281613a85565b6101c08201526101008201516101e08201526101208201516102009091015201518d820360df19016102208f0152613865565b9160208c01528a820360408c0152613865565b9088820360608a0152613865565b91608087015285820360a0870152613865565b9083820360c0850152613865565b346101e35760203660031901126101e3576004356001600160401b0381116101e3576133b7903690600401613b0b565b60025460208201916000805b83811061354557506133d481613d9e565b926133de82613d9e565b906133eb61244b84613de8565b93600096875b8381106134465761341c886101df896134388a61342a8b60405197889760808952608089019061388a565b90878203602089015261388a565b9085820360408701526138e3565b9083820360608501526138e3565b613454602061039783613c0c565b60098152030190206040516134718161133460208201809561430a565b519020604051602081019061348f602082885161136381878b613842565b519020146134a0575b6001016133f1565b976101c46134b061032b8b613c0c565b6134ba828a613f0f565b526134c58189613f0f565b5060026134d461035c8b613c0c565b6134de8287613f0f565b526134e98186613f0f565b5060ff60066134f78b613c0c565b50015460081c1661350781613a85565b6135118288613f0f565b5260ff600661351f8b613c0c565b500154166002811015612e3e578161353d916104316001948b613f0f565b989050613498565b613553602061039783613c0c565b60098152030190206040516135708161133460208201809561430a565b5190206040516020810190613590602082846113638c8b51928391613842565b519020146135a1575b6001016133c3565b906135ad600191614378565b919050613599565b346101e35760203660031901126101e3576004356001600160401b0381116101e3576135e76020913690600401613b0b565b816135fb6040519283815193849201613842565b600590820190815281900382019020546040516001600160a01b039091168152f35b346101e35760003660031901126101e357613636613f9b565b6040518091602082016020835281518091526040830190602060408260051b8601019301916000905b82821061366e57505050500390f35b919360019193955060206136f98192603f198a820301865288519060a06136e86136c96136b76136a7865160c0875260c0870190613865565b888701518682038a880152613865565b60408601518582036040870152613865565b60ff606086015116606085015260808501518482036080860152613865565b9201519060a081840391015261388a565b960192019201859493919261365f565b346101e35760203660031901126101e3576004356004548110156101e35760006004548210156137515780600460209252209060031b01604051612584816101c4818561398e565b634e487b7160e01b81526032600452602490fd5b346101e35760003660031901126101e35760035461378281613d9e565b61378b82613d9e565b9161379581613de8565b9060005b8181106137b25750506101df906040519384938461391a565b8060016137c261035c8294613c41565b6137cc8287613f0f565b526137d78186613f0f565b5060026137e661035c83613c41565b6137f08288613f0f565b526137fb8187613f0f565b5060ff600361380983613c41565b500154166138178286613f0f565b5201613799565b346101e35760003660031901126101e3576000546001600160a01b03168152602090f35b60005b8381106138555750506000910152565b8181015183820152602001613845565b9060209161387e81518092818552858086019101613842565b601f01601f1916010190565b9080602083519182815201916020808360051b8301019401926000915b8383106138b657505050505090565b90919293946020806138d4600193601f198682030187528951613865565b970193019301919392906138a7565b906020808351928381520192019060005b8181106139015750505090565b825160ff168452602093840193909201916001016138f4565b9161394390613935613951959360608652606086019061388a565b90848203602086015261388a565b9160408184039101526138e3565b90565b90600182811c92168015613984575b602083101461396e57565b634e487b7160e01b600052602260045260246000fd5b91607f1691613963565b6000929181549161399e83613954565b80835292600181169081156139f457506001146139ba57505050565b60009081526020812093945091925b8383106139da575060209250010190565b6001816020929493945483858701015201910191906139c9565b915050602093945060ff929192191683830152151560051b010190565b61016081019081106001600160401b03821117610f0357604052565b61012081019081106001600160401b03821117610f0357604052565b60c081019081106001600160401b03821117610f0357604052565b90601f801991011681019081106001600160401b03821117610f0357604052565b60031115612e3e57565b9490613ad5613ae994613ac760e0999c9b9a9795613ab960ff956101008c526101008c0190613865565b908a820360208c0152613865565b9088820360408a0152613865565b921660608601528482036080860152613865565b6001600160a01b0390961660a0830152613b0281613a85565b60c08201520152565b81601f820112156101e3578035906001600160401b038211610f035760405192613b3f601f8401601f191660200185613a64565b828452602083830101116101e357816000926020809301838601378301015290565b906002821015612e3e5752565b959293613bb76139519a9895613ba9613bd095613b9b613bc5969d9a9d6101208d526101208d0190613865565b908b820360208d0152613865565b9089820360408b0152613865565b908782036060890152613865565b966080860190613b61565b613bd981613a85565b60a084015260c083015260e0820152610100818403910152613865565b608435906001600160a01b03821682036101e357565b600254811015613c2b576002600052600a602060002091020190600090565b634e487b7160e01b600052603260045260246000fd5b600354811015613c2b5760036000526006602060002091020190600090565b916139519593613c8f613c9d92613c8160ff9560a0885260a0880190613865565b908682036020880152613865565b908482036040860152613865565b931660608201526080818403910152613865565b6064359060ff821682036101e357565b6001600160401b038111610f035760051b60200190565b9080601f830112156101e3578135613cef81613cc1565b92613cfd6040519485613a64565b81845260208085019260051b820101918383116101e35760208201905b838210613d2957505050505090565b81356001600160401b0381116101e357602091613d4b87848094880101613b0b565b815201910190613d1a565b60405190613d65602083613a64565b600080835282815b828110613d7957505050565b806060602080938501015201613d6d565b634e487b7160e01b81526041600452602490fd5b90613da882613cc1565b613db56040519182613a64565b8281528092613dc6601f1991613cc1565b019060005b828110613dd757505050565b806060602080938501015201613dcb565b90613df282613cc1565b613dff6040519182613a64565b8281528092613e10601f1991613cc1565b0190602036910137565b805115613c2b5760200190565b805160011015613c2b5760400190565b805160021015613c2b5760600190565b805160031015613c2b5760800190565b805160041015613c2b5760a00190565b805160051015613c2b5760c00190565b805160061015613c2b5760e00190565b805160071015613c2b576101000190565b805160081015613c2b576101200190565b805160091015613c2b576101400190565b8051600a1015613c2b576101600190565b8051600b1015613c2b576101800190565b8051600c1015613c2b576101a00190565b8051600d1015613c2b576101c00190565b8051600e1015613c2b576101e00190565b8051821015613c2b5760209160051b010190565b908160209103126101e3575180151581036101e35790565b908154613f4781613cc1565b92613f556040519485613a64565b818452602084019060005260206000206000915b838310613f765750505050565b600160208192604051613f8d816101c4818961398e565b815201920192019190613f69565b6000546040516395a8c58d60e01b8152336004820152600160248201526060916001600160a01b031690602081604481855afa9081156110ad576000916142eb575b5015614139575050600354613ff181613cc1565b90613fff6040519283613a64565b808252601f1961400e82613cc1565b0160005b8181106140f857505060005b81811061402a57505090565b80614036600192613c41565b5061404082613c41565b5061404a83613c41565b5060026140b560ff600361405d88613c41565b5001541692876140a061406e613d56565b966101c461408e6040519a6140828c613a49565b6040519283809261398e565b89526101c4604051809481930161398e565b60208701526101c4604051809481930161398e565b6040840152606083015260206140ce6040519182613a64565b60008152608083015260a08201526140e68286613f0f565b526140f18185613f0f565b500161401e565b60209060405161410781613a49565b60608152606083820152606060408201526000606082015260606080820152606060a082015282828701015201614012565b6020604491604051928380926395a8c58d60e01b8252336004830152600060248301525afa9081156110ad576000916142cc575b506141d657506040516000614183602083613a64565b81526000805b81811061419557505090565b6020906040516141a481613a49565b60608152606083820152606060408201526000606082015260606080820152606060a082015282828601015201614189565b6003546141e281613cc1565b916141f06040519384613a64565b818352602083019060036000527fc2575a0e9e593c00f959f8c92f12db2869c3395a3b0502d05e2516446f71f85b906000925b84841061423257505050505090565b6006602060019260405161424581613a49565b604051614256816101c4818b61398e565b815260405161426b816101c481898c0161398e565b83820152604051614283816101c48160028c0161398e565b604082015260ff600388015416868201526040516142a8816101c48160048c0161398e565b60808201526142b960058801613f3b565b60a0820152815201930193019291614223565b6142e5915060203d6020116110a6576110988183613a64565b3861416d565b614304915060203d6020116110a6576110988183613a64565b38613fdd565b6000929181549161431a83613954565b9260018116908115614365575060011461433357505050565b909192935060005260206000206000905b8382106143515750500190565b600181602092548486015201910190614344565b60ff191683525050811515909102019150565b60001981146143875760010190565b634e487b7160e01b600052601160045260246000fd5b156143a457565b60405162461bcd60e51b815260206004820152601b60248201527f4e6f206461746120666f756e64207769746820746869732049442e00000000006044820152606490fd5b6002821015612e3e5752565b818110614400575050565b600081556001016143f5565b1561441357565b606460405162461bcd60e51b815260206004820152602060248201527f416363657373207265737472696374656420746f2050616272696b20726f6c656044820152fd5b1561445e57565b60405162461bcd60e51b815260206004820152601960248201527f4d696e696d756d206f72646572206973203530206f6261742e000000000000006044820152606490fd5b919080519283516001600160401b038111610f03576144c28254613954565b601f8111614aa6575b50602094601f8211600114614a41576144ff9293949582916000926117555750508160011b916000199060031b1c19161790565b81555b6001810160208301518051906001600160401b038211610f03576145268354613954565b601f8111614a0f575b50602090601f83116001146149a8576145609291600091836117555750508160011b916000199060031b1c19161790565b90555b6002810160408301518051906001600160401b038211610f03576145878354613954565b601f8111614976575b50602090601f831160011461490f576145c19291600091836117555750508160011b916000199060031b1c19161790565b90555b60ff60608301511660ff60038301911660ff198254161790556004810160808301518051906001600160401b038211610f03576146018354613954565b601f81116148dd575b50602090601f831160011461486f5782610100959360079593614643936000926117555750508160011b916000199060031b1c19161790565b90555b60a08401516005820180546001600160a01b0319166001600160a01b039290921691909117815560c085015161467b81613a85565b61468481613a85565b81549060ff60a01b9060a01b169060ff60a01b191617905560e0840151600682015501910151805190600160401b8211610f035782548284558083106147f1575b50602001916000526020600020916000905b8282106146e45750505050565b80518051906001600160401b038211610f03576147018654613954565b601f81116147bf575b50602090601f83116001146147525792614743836001959460209487966000926117555750508160011b916000199060031b1c19161790565b87555b019401910190926146d7565b90601f1983169187600052816000209260005b8181106147a7575093602093600196938796938388951061478e575b505050811b018755614746565b015160001960f88460031b161c19169055388080614781565b92936020600181928786015181550195019301614765565b6147eb90876000526020600020601f850160051c81019160208610610fbb57601f0160051c01906143f5565b3861470a565b8360005282602060002091820191015b81811061480e57506146c5565b8061481b60019254613954565b80614828575b5001614801565b601f8111831461483e5750600081555b38614821565b61485c908260005283601f6020600020920160051c820191016143f5565b8060005260006020812081835555614838565b90601f1983169184600052816000209260005b8181106148c55750926001928592610100989660079896106148ac575b505050811b019055614646565b015160001960f88460031b161c1916905538808061489f565b92936020600181928786015181550195019301614882565b61490990846000526020600020601f850160051c81019160208610610fbb57601f0160051c01906143f5565b3861460a565b90601f1983169184600052816000209260005b81811061495e5750908460019594939210614945575b505050811b0190556145c4565b015160001960f88460031b161c19169055388080614938565b92936020600181928786015181550195019301614922565b6149a290846000526020600020601f850160051c81019160208610610fbb57601f0160051c01906143f5565b38614590565b90601f1983169184600052816000209260005b8181106149f757509084600195949392106149de575b505050811b019055614563565b015160001960f88460031b161c191690553880806149d1565b929360206001819287860151815501950193016149bb565b614a3b90846000526020600020601f850160051c81019160208610610fbb57601f0160051c01906143f5565b3861452f565b601f1982169583600052806000209160005b888110614a8e57508360019596979810614a75575b505050811b018155614502565b015160001960f88460031b161c19169055388080614a68565b91926020600181928685015181550194019201614a53565b614ad290836000526020600020601f840160051c81019160208510610fbb57601f0160051c01906143f5565b386144cb565b600454600160401b811015610f0357600181016004556000600454821015613751576004905260031b7f8a35acfbc15ff81a39ae7d344fd709f28e8600b4aa8c65c6b64bfe7fe36bd19b0190614b2d916144a3565b565b92614b7592614b679160ff614b5360a098959b9a999b60c0895260c0890190613865565b921660208701528582036040870152613865565b908382036060850152613865565b94600180841b031660808201520152565b919080519283516001600160401b038111610f0357614ba58254613954565b601f8111615127575b50602094601f82116001146150c257614be29293949582916000926117555750508160011b916000199060031b1c19161790565b81555b6001810160208301518051906001600160401b038211610f0357614c098354613954565b601f8111615090575b50602090601f831160011461502957614c439291600091836117555750508160011b916000199060031b1c19161790565b90555b6002810160408301518051906001600160401b038211610f0357614c6a8354613954565b601f8111614ff7575b50602090601f8311600114614f9057614ca49291600091836117555750508160011b916000199060031b1c19161790565b90555b60ff60608301511660ff60038301911660ff198254161790556004810160808301518051906001600160401b038211610f0357614ce48354613954565b601f8111614f5e575b50602090601f8311600114614ef1578260a0959360059593614d25936000926117555750508160011b916000199060031b1c19161790565b90555b01910151805190600160401b8211610f03578254828455808310614e73575b50602001916000526020600020916000905b828210614d665750505050565b80518051906001600160401b038211610f0357614d838654613954565b601f8111614e41575b50602090601f8311600114614dd45792614dc5836001959460209487966000926117555750508160011b916000199060031b1c19161790565b87555b01940191019092614d59565b90601f1983169187600052816000209260005b818110614e295750936020936001969387969383889510614e10575b505050811b018755614dc8565b015160001960f88460031b161c19169055388080614e03565b92936020600181928786015181550195019301614de7565b614e6d90876000526020600020601f850160051c81019160208610610fbb57601f0160051c01906143f5565b38614d8c565b8360005282602060002091820191015b818110614e905750614d47565b80614e9d60019254613954565b80614eaa575b5001614e83565b601f81118314614ec05750600081555b38614ea3565b614ede908260005283601f6020600020920160051c820191016143f5565b8060005260006020812081835555614eba565b90601f1983169184600052816000209260005b818110614f46575092600192859260a098966005989610614f2d575b505050811b019055614d28565b015160001960f88460031b161c19169055388080614f20565b92936020600181928786015181550195019301614f04565b614f8a90846000526020600020601f850160051c81019160208610610fbb57601f0160051c01906143f5565b38614ced565b90601f1983169184600052816000209260005b818110614fdf5750908460019594939210614fc6575b505050811b019055614ca7565b015160001960f88460031b161c19169055388080614fb9565b92936020600181928786015181550195019301614fa3565b61502390846000526020600020601f850160051c81019160208610610fbb57601f0160051c01906143f5565b38614c73565b90601f1983169184600052816000209260005b818110615078575090846001959493921061505f575b505050811b019055614c46565b015160001960f88460031b161c19169055388080615052565b9293602060018192878601518155019501930161503c565b6150bc90846000526020600020601f850160051c81019160208610610fbb57601f0160051c01906143f5565b38614c12565b601f1982169583600052806000209160005b88811061510f575083600195969798106150f6575b505050811b018155614be5565b015160001960f88460031b161c191690553880806150e9565b919260206001819286850151815501940192016150d4565b61515390836000526020600020601f840160051c81019160208510610fbb57601f0160051c01906143f5565b38614bae565b600354600160401b811015610f035760018101600355600060035482101561375157600390526006027fc2575a0e9e593c00f959f8c92f12db2869c3395a3b0502d05e2516446f71f85b0190614b2d91614b86565b909182519283516001600160401b038111610f03576151cd8454613954565b601f8111615a4c575b50602094601f82116001146159e75761520a9293949582916000926117555750508160011b916000199060031b1c19161790565b83555b6001830160208201518051906001600160401b038211610f03576152318354613954565b601f81116159b5575b50602090601f831160011461594e5761526b9291600091836117555750508160011b916000199060031b1c19161790565b90555b6002830160408201518051906001600160401b038211610f03576152928354613954565b601f811161591c575b50602090601f83116001146158b5576152cc9291600091836117555750508160011b916000199060031b1c19161790565b90555b600383016060820151805190600160401b8211610f03578254828455808310615837575b50602001916000526020600020916000905b82821061572a57505050506004830160808201518051906001600160401b038211610f03576153348354613954565b601f81116156f8575b50602090601f83116001146156915761536e9291600091836117555750508160011b916000199060031b1c19161790565b90555b6005830160a0820151805190600160401b8211610f03578254828455808310615613575b50602001916000526020600020916000905b828210615506575050505060c081015192600681016002851015612e3e576101409160099160009660ff8019835416911617815560e08501516153e981613a85565b6153f281613a85565b61ff0082549160081b169061ff0019161790556101008401516007820155610120840151600882015501910151928351906001600160401b038211613d8a5761543b8354613954565b601f81116154d6575b50602090601f83116001146154785790615474939495836117555750508160011b916000199060031b1c19161790565b9055565b90601f198316848352818320925b8181106154be575095836001959697106154a5575b505050811b019055565b015160001960f88460031b161c1916905538808061549b565b9192602060018192868b015181550194019201615486565b6155009084835260208320601f850160051c81019160208610610fbb57601f0160051c01906143f5565b38615444565b80518051906001600160401b038211610f03576155238654613954565b601f81116155e1575b50602090601f83116001146155745792615565836001959460209487966000926117555750508160011b916000199060031b1c19161790565b87555b019401910190926153a7565b90601f1983169187600052816000209260005b8181106155c957509360209360019693879693838895106155b0575b505050811b018755615568565b015160001960f88460031b161c191690553880806155a3565b92936020600181928786015181550195019301615587565b61560d90876000526020600020601f850160051c81019160208610610fbb57601f0160051c01906143f5565b3861552c565b8360005282602060002091820191015b8181106156305750615395565b8061563d60019254613954565b8061564a575b5001615623565b601f811183146156605750600081555b38615643565b61567e908260005283601f6020600020920160051c820191016143f5565b806000526000602081208183555561565a565b90601f1983169184600052816000209260005b8181106156e057509084600195949392106156c7575b505050811b019055615371565b015160001960f88460031b161c191690553880806156ba565b929360206001819287860151815501950193016156a4565b61572490846000526020600020601f850160051c81019160208610610fbb57601f0160051c01906143f5565b3861533d565b80518051906001600160401b038211610f03576157478654613954565b601f8111615805575b50602090601f83116001146157985792615789836001959460209487966000926117555750508160011b916000199060031b1c19161790565b87555b01940191019092615305565b90601f1983169187600052816000209260005b8181106157ed57509360209360019693879693838895106157d4575b505050811b01875561578c565b015160001960f88460031b161c191690553880806157c7565b929360206001819287860151815501950193016157ab565b61583190876000526020600020601f850160051c81019160208610610fbb57601f0160051c01906143f5565b38615750565b8360005282602060002091820191015b81811061585457506152f3565b8061586160019254613954565b8061586e575b5001615847565b601f811183146158845750600081555b38615867565b6158a2908260005283601f6020600020920160051c820191016143f5565b806000526000602081208183555561587e565b90601f1983169184600052816000209260005b81811061590457509084600195949392106158eb575b505050811b0190556152cf565b015160001960f88460031b161c191690553880806158de565b929360206001819287860151815501950193016158c8565b61594890846000526020600020601f850160051c81019160208610610fbb57601f0160051c01906143f5565b3861529b565b90601f1983169184600052816000209260005b81811061599d5750908460019594939210615984575b505050811b01905561526e565b015160001960f88460031b161c19169055388080615977565b92936020600181928786015181550195019301615961565b6159e190846000526020600020601f850160051c81019160208610610fbb57601f0160051c01906143f5565b3861523a565b601f1982169585600052806000209160005b888110615a3457508360019596979810615a1b575b505050811b01835561520d565b015160001960f88460031b161c19169055388080615a0e565b919260206001819286850151815501940192016159f9565b615a7890856000526020600020601f840160051c81019160208510610fbb57601f0160051c01906143f5565b386151d656fea2646970667358221220272618bd05fa3dd05a448704c4a7643e2f9c299a3dc1aab82211ea4e77117d5064736f6c634300081b0033","opcodes":"PUSH1 0x80 CALLVALUE PUSH1 0x86 JUMPI PUSH1 0x1F PUSH2 0x5B69 CODESIZE DUP2 SWAP1 SUB SWAP2 DUP3 ADD PUSH1 0x1F NOT AND DUP4 ADD SWAP2 PUSH1 0x1 PUSH1 0x1 PUSH1 0x40 SHL SUB DUP4 GT DUP5 DUP5 LT OR PUSH1 0x8B JUMPI DUP1 DUP5 SWAP3 PUSH1 0x40 SWAP5 DUP6 MSTORE DUP4 CODECOPY DUP2 ADD SUB SLT PUSH1 0x86 JUMPI PUSH1 0x4B PUSH1 0x20 PUSH1 0x45 DUP4 PUSH1 0xA1 JUMP JUMPDEST SWAP3 ADD PUSH1 0xA1 JUMP JUMPDEST PUSH1 0x0 DUP1 SLOAD PUSH1 0x1 PUSH1 0x1 PUSH1 0xA0 SHL SUB SWAP4 DUP5 AND PUSH1 0x1 PUSH1 0x1 PUSH1 0xA0 SHL SUB NOT SWAP2 DUP3 AND OR SWAP1 SWAP2 SSTORE PUSH1 0x1 DUP1 SLOAD SWAP3 SWAP1 SWAP4 AND SWAP2 AND OR SWAP1 SSTORE PUSH1 0x40 MLOAD PUSH2 0x5AB4 SWAP1 DUP2 PUSH2 0xB5 DUP3 CODECOPY RETURN JUMPDEST PUSH1 0x0 DUP1 REVERT JUMPDEST PUSH4 0x4E487B71 PUSH1 0xE0 SHL PUSH1 0x0 MSTORE PUSH1 0x41 PUSH1 0x4 MSTORE PUSH1 0x24 PUSH1 0x0 REVERT JUMPDEST MLOAD SWAP1 PUSH1 0x1 PUSH1 0x1 PUSH1 0xA0 SHL SUB DUP3 AND DUP3 SUB PUSH1 0x86 JUMPI JUMP INVALID PUSH1 0x80 DUP1 PUSH1 0x40 MSTORE PUSH1 0x4 CALLDATASIZE LT ISZERO PUSH2 0x13 JUMPI PUSH1 0x0 DUP1 REVERT JUMPDEST PUSH1 0x0 CALLDATALOAD PUSH1 0xE0 SHR SWAP1 DUP2 PUSH3 0x435DA5 EQ PUSH2 0x381E JUMPI POP DUP1 PUSH4 0x1D62D3B EQ PUSH2 0x3765 JUMPI DUP1 PUSH4 0xA04F9C8 EQ PUSH2 0x3709 JUMPI DUP1 PUSH4 0x1A95E672 EQ PUSH2 0x361D JUMPI DUP1 PUSH4 0x1C0B2030 EQ PUSH2 0x35B5 JUMPI DUP1 PUSH4 0x1DCE6E58 EQ PUSH2 0x3387 JUMPI DUP1 PUSH4 0x25606BC3 EQ PUSH2 0x2F61 JUMPI DUP1 PUSH4 0x27321837 EQ PUSH2 0x2F10 JUMPI DUP1 PUSH4 0x349A7A72 EQ PUSH2 0x2EBC JUMPI DUP1 PUSH4 0x4B87568A EQ PUSH2 0x2E54 JUMPI DUP1 PUSH4 0x74D5E100 EQ PUSH2 0x2DF4 JUMPI DUP1 PUSH4 0x7AAD01BD EQ PUSH2 0x2D25 JUMPI DUP1 PUSH4 0x7ADE51DD EQ PUSH2 0x262F JUMPI DUP1 PUSH4 0x7D08414F EQ PUSH2 0x25F6 JUMPI DUP1 PUSH4 0x86F5CEA6 EQ PUSH2 0x2534 JUMPI DUP1 PUSH4 0x92B385C9 EQ PUSH2 0x23A3 JUMPI DUP1 PUSH4 0x9413FCFD EQ PUSH2 0x237A JUMPI DUP1 PUSH4 0x998C1FCB EQ PUSH2 0x22C6 JUMPI DUP1 PUSH4 0x9D9315C2 EQ PUSH2 0x2272 JUMPI DUP1 PUSH4 0xA812536D EQ PUSH2 0x221E JUMPI DUP1 PUSH4 0xB7E66568 EQ PUSH2 0x1FA4 JUMPI DUP1 PUSH4 0xB896CB9A EQ PUSH2 0x1DEF JUMPI DUP1 PUSH4 0xBB43BDF7 EQ PUSH2 0x1BD7 JUMPI DUP1 PUSH4 0xBC4A6F6C EQ PUSH2 0x1983 JUMPI DUP1 PUSH4 0xD19487E4 EQ PUSH2 0x11EE JUMPI DUP1 PUSH4 0xD44FAA63 EQ PUSH2 0x10B9 JUMPI DUP1 PUSH4 0xD9D284DC EQ PUSH2 0x490 JUMPI DUP1 PUSH4 0xE06749BA EQ PUSH2 0x1E8 JUMPI PUSH4 0xF1022862 EQ PUSH2 0x15D JUMPI PUSH1 0x0 DUP1 REVERT JUMPDEST CALLVALUE PUSH2 0x1E3 JUMPI PUSH1 0x20 CALLDATASIZE PUSH1 0x3 NOT ADD SLT PUSH2 0x1E3 JUMPI PUSH1 0x4 CALLDATALOAD PUSH1 0x1 PUSH1 0x1 PUSH1 0x40 SHL SUB DUP2 GT PUSH2 0x1E3 JUMPI PUSH2 0x1C4 PUSH2 0x1CB PUSH2 0x1AE PUSH1 0x20 PUSH2 0x19B PUSH2 0x1DF SWAP6 CALLDATASIZE SWAP1 PUSH1 0x4 ADD PUSH2 0x3B0B JUMP JUMPDEST DUP2 PUSH1 0x40 MLOAD SWAP4 DUP3 DUP6 DUP1 SWAP5 MLOAD SWAP4 DUP5 SWAP3 ADD PUSH2 0x3842 JUMP JUMPDEST DUP2 ADD PUSH1 0x7 DUP2 MSTORE SUB ADD SWAP1 KECCAK256 PUSH1 0x40 MLOAD SWAP3 DUP4 DUP1 SWAP3 PUSH2 0x398E JUMP JUMPDEST SUB DUP3 PUSH2 0x3A64 JUMP JUMPDEST PUSH1 0x40 MLOAD SWAP2 DUP3 SWAP2 PUSH1 0x20 DUP4 MSTORE PUSH1 0x20 DUP4 ADD SWAP1 PUSH2 0x3865 JUMP JUMPDEST SUB SWAP1 RETURN JUMPDEST PUSH1 0x0 DUP1 REVERT JUMPDEST CALLVALUE PUSH2 0x1E3 JUMPI PUSH1 0x0 CALLDATASIZE PUSH1 0x3 NOT ADD SLT PUSH2 0x1E3 JUMPI PUSH1 0x0 DUP1 PUSH1 0x2 SLOAD SWAP1 JUMPDEST DUP2 DUP2 LT PUSH2 0x452 JUMPI POP PUSH2 0x212 DUP3 PUSH2 0x3D9E JUMP JUMPDEST SWAP1 PUSH2 0x21C DUP4 PUSH2 0x3D9E JUMP JUMPDEST PUSH2 0x225 DUP5 PUSH2 0x3D9E JUMP JUMPDEST PUSH2 0x22E DUP6 PUSH2 0x3CC1 JUMP JUMPDEST SWAP2 PUSH2 0x23C PUSH1 0x40 MLOAD SWAP4 DUP5 PUSH2 0x3A64 JUMP JUMPDEST DUP6 DUP4 MSTORE PUSH2 0x25D PUSH2 0x24B DUP8 PUSH2 0x3CC1 JUMP JUMPDEST PUSH1 0x20 DUP6 ADD SWAP8 SWAP1 PUSH1 0x1F NOT ADD CALLDATASIZE DUP10 CALLDATACOPY PUSH2 0x3DE8 JUMP JUMPDEST SWAP4 PUSH1 0x0 DUP1 JUMPDEST DUP3 DUP2 LT PUSH2 0x2EB JUMPI POP POP POP PUSH1 0x20 SWAP2 PUSH2 0x298 PUSH2 0x2A6 SWAP3 PUSH2 0x28B PUSH1 0x40 MLOAD SWAP9 PUSH1 0xA0 DUP11 MSTORE PUSH1 0xA0 DUP11 ADD SWAP1 PUSH2 0x388A JUMP JUMPDEST SWAP1 DUP9 DUP3 SUB DUP7 DUP11 ADD MSTORE PUSH2 0x388A JUMP JUMPDEST SWAP1 DUP7 DUP3 SUB PUSH1 0x40 DUP9 ADD MSTORE PUSH2 0x388A JUMP JUMPDEST SWAP2 DUP5 DUP4 SUB PUSH1 0x60 DUP7 ADD MSTORE MLOAD SWAP2 DUP3 DUP2 MSTORE ADD SWAP4 SWAP1 PUSH1 0x0 JUMPDEST DUP2 DUP2 LT PUSH2 0x2D5 JUMPI DUP5 DUP1 PUSH2 0x1DF DUP9 DUP8 DUP4 DUP3 SUB PUSH1 0x80 DUP6 ADD MSTORE PUSH2 0x38E3 JUMP JUMPDEST DUP3 MLOAD DUP7 MSTORE PUSH1 0x20 SWAP6 DUP7 ADD SWAP6 SWAP1 SWAP3 ADD SWAP2 PUSH1 0x1 ADD PUSH2 0x2BA JUMP JUMPDEST PUSH1 0xFF PUSH1 0x6 PUSH2 0x2F8 DUP4 PUSH2 0x3C0C JUMP JUMPDEST POP ADD SLOAD PUSH1 0x8 SHR AND PUSH2 0x308 DUP2 PUSH2 0x3A85 JUMP JUMPDEST PUSH2 0x315 JUMPI JUMPDEST PUSH1 0x1 ADD PUSH2 0x262 JUMP JUMPDEST SWAP1 PUSH2 0x437 PUSH1 0x1 SWAP2 PUSH2 0x1C4 PUSH2 0x338 PUSH2 0x32B DUP7 PUSH2 0x3C0C JUMP JUMPDEST POP PUSH1 0x40 MLOAD SWAP3 DUP4 DUP1 SWAP3 PUSH2 0x398E JUMP JUMPDEST PUSH2 0x342 DUP3 DUP13 PUSH2 0x3F0F JUMP JUMPDEST MSTORE PUSH2 0x34D DUP2 DUP12 PUSH2 0x3F0F JUMP JUMPDEST POP PUSH1 0x2 PUSH2 0x36D PUSH2 0x35C DUP7 PUSH2 0x3C0C JUMP JUMPDEST POP PUSH2 0x1C4 PUSH1 0x40 MLOAD DUP1 SWAP5 DUP2 SWAP4 ADD PUSH2 0x398E JUMP JUMPDEST PUSH2 0x377 DUP3 DUP9 PUSH2 0x3F0F JUMP JUMPDEST MSTORE PUSH2 0x382 DUP2 DUP8 PUSH2 0x3F0F JUMP JUMPDEST POP PUSH2 0x1C4 PUSH2 0x3B8 PUSH2 0x3A4 PUSH1 0x20 PUSH2 0x397 DUP9 PUSH2 0x3C0C JUMP JUMPDEST POP PUSH1 0x40 MLOAD SWAP3 DUP4 DUP1 SWAP3 PUSH2 0x430A JUMP JUMPDEST PUSH1 0x9 DUP2 MSTORE SUB ADD SWAP1 KECCAK256 PUSH1 0x40 MLOAD SWAP3 DUP4 DUP1 SWAP3 PUSH2 0x398E JUMP JUMPDEST PUSH2 0x3C2 DUP3 DUP10 PUSH2 0x3F0F JUMP JUMPDEST MSTORE PUSH2 0x3CD DUP2 DUP9 PUSH2 0x3F0F JUMP JUMPDEST POP PUSH1 0x8 PUSH2 0x3D9 DUP6 PUSH2 0x3C0C JUMP JUMPDEST POP ADD SLOAD PUSH1 0x7 PUSH2 0x3E7 DUP7 PUSH2 0x3C0C JUMP JUMPDEST POP ADD SLOAD LT ISZERO PUSH2 0x43F JUMPI PUSH1 0x8 PUSH2 0x3FB DUP6 PUSH2 0x3C0C JUMP JUMPDEST POP ADD SLOAD JUMPDEST PUSH2 0x409 DUP3 DUP11 PUSH2 0x3F0F JUMP JUMPDEST MSTORE PUSH1 0xFF PUSH1 0x6 PUSH2 0x417 DUP7 PUSH2 0x3C0C JUMP JUMPDEST POP ADD SLOAD PUSH1 0x8 SHR AND PUSH2 0x427 DUP2 PUSH2 0x3A85 JUMP JUMPDEST PUSH2 0x431 DUP3 DUP12 PUSH2 0x3F0F JUMP JUMPDEST MSTORE PUSH2 0x4378 JUMP JUMPDEST SWAP2 SWAP1 POP PUSH2 0x30D JUMP JUMPDEST PUSH1 0x7 PUSH2 0x44A DUP6 PUSH2 0x3C0C JUMP JUMPDEST POP ADD SLOAD PUSH2 0x3FF JUMP JUMPDEST PUSH1 0xFF PUSH1 0x6 PUSH2 0x45F DUP4 PUSH2 0x3C0C JUMP JUMPDEST POP ADD SLOAD PUSH1 0x8 SHR AND PUSH2 0x46F DUP2 PUSH2 0x3A85 JUMP JUMPDEST PUSH2 0x47C JUMPI JUMPDEST PUSH1 0x1 ADD PUSH2 0x201 JUMP JUMPDEST SWAP2 PUSH2 0x488 PUSH1 0x1 SWAP2 PUSH2 0x4378 JUMP JUMPDEST SWAP3 SWAP1 POP PUSH2 0x474 JUMP JUMPDEST CALLVALUE PUSH2 0x1E3 JUMPI PUSH2 0x140 CALLDATASIZE PUSH1 0x3 NOT ADD SLT PUSH2 0x1E3 JUMPI PUSH1 0x4 CALLDATALOAD PUSH1 0x1 PUSH1 0x1 PUSH1 0x40 SHL SUB DUP2 GT PUSH2 0x1E3 JUMPI PUSH2 0x4C1 SWAP1 CALLDATASIZE SWAP1 PUSH1 0x4 ADD PUSH2 0x3B0B JUMP JUMPDEST PUSH1 0x24 CALLDATALOAD PUSH1 0x1 PUSH1 0x1 PUSH1 0x40 SHL SUB DUP2 GT PUSH2 0x1E3 JUMPI PUSH2 0x4E0 SWAP1 CALLDATASIZE SWAP1 PUSH1 0x4 ADD PUSH2 0x3B0B JUMP JUMPDEST PUSH1 0x44 CALLDATALOAD PUSH1 0x1 PUSH1 0x1 PUSH1 0x40 SHL SUB DUP2 GT PUSH2 0x1E3 JUMPI PUSH2 0x4FF SWAP1 CALLDATASIZE SWAP1 PUSH1 0x4 ADD PUSH2 0x3B0B JUMP JUMPDEST SWAP1 PUSH1 0x64 CALLDATALOAD PUSH1 0x1 PUSH1 0x1 PUSH1 0x40 SHL SUB DUP2 GT PUSH2 0x1E3 JUMPI PUSH2 0x51F SWAP1 CALLDATASIZE SWAP1 PUSH1 0x4 ADD PUSH2 0x3CD8 JUMP JUMPDEST SWAP1 PUSH1 0x84 CALLDATALOAD PUSH1 0x1 PUSH1 0x1 PUSH1 0x40 SHL SUB DUP2 GT PUSH2 0x1E3 JUMPI PUSH2 0x53F SWAP1 CALLDATASIZE SWAP1 PUSH1 0x4 ADD PUSH2 0x3B0B JUMP JUMPDEST SWAP1 PUSH1 0xA4 CALLDATALOAD PUSH1 0x1 PUSH1 0x1 PUSH1 0x40 SHL SUB DUP2 GT PUSH2 0x1E3 JUMPI PUSH2 0x55F SWAP1 CALLDATASIZE SWAP1 PUSH1 0x4 ADD PUSH2 0x3CD8 JUMP JUMPDEST PUSH1 0xC4 CALLDATALOAD PUSH1 0x1 PUSH1 0x1 PUSH1 0xA0 SHL SUB DUP2 AND SWAP2 SWAP1 DUP3 SWAP1 SUB PUSH2 0x1E3 JUMPI PUSH1 0xE4 CALLDATALOAD PUSH1 0x1 PUSH1 0x1 PUSH1 0x40 SHL SUB DUP2 GT PUSH2 0x1E3 JUMPI PUSH2 0x594 SWAP1 CALLDATASIZE SWAP1 PUSH1 0x4 ADD PUSH2 0x3B0B JUMP JUMPDEST SWAP7 PUSH2 0x104 CALLDATALOAD PUSH1 0x1 PUSH1 0x1 PUSH1 0x40 SHL SUB DUP2 GT PUSH2 0x1E3 JUMPI PUSH2 0x5B5 SWAP1 CALLDATASIZE SWAP1 PUSH1 0x4 ADD PUSH2 0x3B0B JUMP JUMPDEST SWAP2 PUSH2 0x124 CALLDATALOAD SWAP7 PUSH1 0x2 DUP9 LT ISZERO PUSH2 0x1E3 JUMPI PUSH1 0x0 DUP1 SLOAD PUSH1 0x40 MLOAD PUSH4 0x95A8C58D PUSH1 0xE0 SHL DUP2 MSTORE CALLER PUSH1 0x4 DUP3 ADD MSTORE PUSH1 0x24 DUP2 ADD SWAP3 SWAP1 SWAP3 MSTORE PUSH1 0x20 SWAP1 DUP3 SWAP1 PUSH1 0x44 SWAP1 DUP3 SWAP1 PUSH1 0x1 PUSH1 0x1 PUSH1 0xA0 SHL SUB AND GAS STATICCALL DUP1 ISZERO PUSH2 0x10AD JUMPI PUSH2 0x610 SWAP2 PUSH1 0x0 SWAP2 PUSH2 0x107E JUMPI JUMPDEST POP PUSH2 0x440C JUMP JUMPDEST PUSH1 0x40 MLOAD SWAP6 PUSH2 0x61D DUP8 PUSH2 0x3A11 JUMP JUMPDEST DUP4 DUP8 MSTORE PUSH1 0x20 DUP8 ADD MSTORE DUP9 PUSH1 0x40 DUP8 ADD MSTORE PUSH1 0x60 DUP7 ADD MSTORE DUP6 PUSH1 0x80 DUP7 ADD MSTORE PUSH1 0xA0 DUP6 ADD MSTORE PUSH2 0x648 DUP7 PUSH1 0xC0 DUP7 ADD PUSH2 0x43E9 JUMP JUMPDEST PUSH1 0x2 PUSH1 0xE0 DUP6 ADD MSTORE PUSH1 0x0 PUSH2 0x100 DUP6 ADD MSTORE PUSH1 0x0 PUSH2 0x120 DUP6 ADD MSTORE PUSH1 0x40 SWAP1 DUP2 MLOAD PUSH2 0x66E DUP4 DUP3 PUSH2 0x3A64 JUMP JUMPDEST PUSH1 0x9 DUP2 MSTORE PUSH9 0x2A22AA29A22329A223 PUSH1 0xB9 SHL PUSH1 0x20 DUP3 ADD MSTORE PUSH2 0x140 DUP7 ADD MSTORE DUP2 MLOAD SWAP5 PUSH2 0x6B4 DUP2 DUP8 PUSH1 0x20 DUP2 DUP7 MLOAD PUSH2 0x6A5 DUP2 DUP5 DUP11 ADD SWAP14 DUP15 PUSH2 0x3842 JUMP JUMPDEST DUP2 ADD PUSH1 0xC DUP2 MSTORE SUB ADD SWAP1 KECCAK256 PUSH2 0x51AE JUMP JUMPDEST PUSH1 0x2 SLOAD PUSH1 0x1 PUSH1 0x40 SHL DUP2 LT ISZERO PUSH2 0xF03 JUMPI DUP1 PUSH1 0x1 PUSH2 0x6D3 SWAP3 ADD PUSH1 0x2 SSTORE PUSH2 0x3C0C JUMP JUMPDEST SWAP2 SWAP1 SWAP2 PUSH2 0x1068 JUMPI PUSH2 0x6E3 SWAP2 PUSH2 0x51AE JUMP JUMPDEST DUP2 MLOAD PUSH1 0x20 DUP2 DUP4 MLOAD PUSH2 0x6F5 DUP2 DUP4 DUP12 PUSH2 0x3842 JUMP JUMPDEST DUP2 ADD PUSH1 0x8 DUP2 MSTORE SUB ADD SWAP1 KECCAK256 DUP5 PUSH12 0xFFFFFFFFFFFFFFFFFFFFFFFF PUSH1 0xA0 SHL DUP3 SLOAD AND OR SWAP1 SSTORE DUP2 MLOAD PUSH1 0x20 DUP2 DUP4 MLOAD PUSH2 0x728 DUP2 DUP4 DUP12 PUSH2 0x3842 JUMP JUMPDEST DUP2 ADD PUSH1 0x9 DUP2 MSTORE SUB ADD SWAP1 KECCAK256 DUP10 MLOAD PUSH1 0x1 PUSH1 0x1 PUSH1 0x40 SHL SUB DUP2 GT PUSH2 0xF03 JUMPI PUSH2 0x74C DUP3 SLOAD PUSH2 0x3954 JUMP JUMPDEST PUSH1 0x1F DUP2 GT PUSH2 0x1036 JUMPI JUMPDEST POP PUSH1 0x20 PUSH1 0x1F DUP3 GT PUSH1 0x1 EQ PUSH2 0xFD0 JUMPI SWAP1 DUP1 PUSH2 0x785 SWAP3 PUSH1 0x0 SWAP2 PUSH2 0xFC5 JUMPI JUMPDEST POP DUP2 PUSH1 0x1 SHL SWAP2 PUSH1 0x0 NOT SWAP1 PUSH1 0x3 SHL SHR NOT AND OR SWAP1 JUMP JUMPDEST SWAP1 SSTORE JUMPDEST DUP2 MLOAD PUSH1 0x20 DUP2 DUP4 MLOAD PUSH2 0x79A DUP2 DUP4 DUP12 PUSH2 0x3842 JUMP JUMPDEST DUP2 ADD PUSH1 0xA DUP2 MSTORE SUB ADD SWAP1 KECCAK256 DUP4 MLOAD PUSH1 0x1 PUSH1 0x1 PUSH1 0x40 SHL SUB DUP2 GT PUSH2 0xF03 JUMPI PUSH2 0x7BE DUP3 SLOAD PUSH2 0x3954 JUMP JUMPDEST PUSH1 0x1F DUP2 GT PUSH2 0xF88 JUMPI JUMPDEST POP PUSH1 0x20 PUSH1 0x1F DUP3 GT PUSH1 0x1 EQ PUSH2 0xF24 JUMPI SWAP1 DUP1 PUSH2 0x7F6 SWAP3 PUSH1 0x0 SWAP2 PUSH2 0xF19 JUMPI POP DUP2 PUSH1 0x1 SHL SWAP2 PUSH1 0x0 NOT SWAP1 PUSH1 0x3 SHL SHR NOT AND OR SWAP1 JUMP JUMPDEST SWAP1 SSTORE JUMPDEST DUP2 MLOAD SWAP5 PUSH2 0x200 PUSH2 0x809 DUP2 DUP9 PUSH2 0x3A64 JUMP JUMPDEST PUSH1 0xF DUP8 MSTORE PUSH1 0x1F NOT ADD PUSH1 0x0 JUMPDEST DUP2 DUP2 LT PUSH2 0xEF2 JUMPI POP POP DUP3 MLOAD SWAP2 PUSH2 0x829 DUP4 PUSH2 0x3A49 JUMP JUMPDEST DUP4 MLOAD PUSH2 0x835 DUP6 DUP3 PUSH2 0x3A64 JUMP JUMPDEST PUSH1 0x1D DUP2 MSTORE PUSH1 0x20 DUP2 ADD PUSH32 0x424E2D32303234313132352D5054506861726D61496E646F2D58343541000000 SWAP1 MSTORE DUP4 MSTORE DUP1 PUSH1 0x20 DUP5 ADD MSTORE DUP10 DUP5 DUP5 ADD MSTORE PUSH1 0x60 DUP4 ADD PUSH1 0xF SWAP1 MSTORE DUP11 PUSH1 0x80 DUP5 ADD MSTORE PUSH1 0xA0 DUP4 ADD DUP8 DUP2 MSTORE PUSH1 0x60 SWAP8 DUP6 MLOAD PUSH2 0x891 DUP11 DUP3 PUSH2 0x3A64 JUMP JUMPDEST PUSH1 0x2E DUP2 MSTORE PUSH32 0x516D5A706A516644654452505253724834573431334777443557626239554D47 PUSH1 0x20 DUP3 ADD MSTORE PUSH14 0x1AB4B6B8B83338B9A839A0BC3699 PUSH1 0x91 SHL DUP8 DUP3 ADD MSTORE PUSH2 0x8DA DUP3 PUSH2 0x3E1A JUMP JUMPDEST MSTORE PUSH2 0x8E4 SWAP1 PUSH2 0x3E1A JUMP JUMPDEST POP DUP1 MLOAD DUP6 MLOAD PUSH2 0x8F3 DUP11 DUP3 PUSH2 0x3A64 JUMP JUMPDEST PUSH1 0x2E DUP2 MSTORE PUSH32 0x516D585655454E637A666342617242745132776944744C6D5A5632506137386E PUSH1 0x20 DUP3 ADD MSTORE PUSH14 0x1935B6A3A238351CB2353298ACB7 PUSH1 0x91 SHL DUP8 DUP3 ADD MSTORE PUSH2 0x93C DUP3 PUSH2 0x3E27 JUMP JUMPDEST MSTORE PUSH2 0x946 SWAP1 PUSH2 0x3E27 JUMP JUMPDEST POP DUP1 MLOAD DUP6 MLOAD PUSH2 0x955 DUP11 DUP3 PUSH2 0x3A64 JUMP JUMPDEST PUSH1 0x2E DUP2 MSTORE PUSH32 0x516D6436517662316F58616431777A5A75354A36587259646E477039466A3374 PUSH1 0x20 DUP3 ADD MSTORE PUSH14 0x145D59559CDCCE589DD1D59214D5 PUSH1 0x92 SHL DUP8 DUP3 ADD MSTORE PUSH2 0x99E DUP3 PUSH2 0x3E37 JUMP JUMPDEST MSTORE PUSH2 0x9A8 SWAP1 PUSH2 0x3E37 JUMP JUMPDEST POP DUP1 MLOAD DUP6 MLOAD PUSH2 0x9B7 DUP11 DUP3 PUSH2 0x3A64 JUMP JUMPDEST PUSH1 0x2E DUP2 MSTORE PUSH32 0x516D56553255784D724A657168726E5144504A6972617546735773364A37584C PUSH1 0x20 DUP3 ADD MSTORE PUSH14 0x446944514B697838485664455473 PUSH1 0x90 SHL DUP8 DUP3 ADD MSTORE PUSH2 0xA00 DUP3 PUSH2 0x3E47 JUMP JUMPDEST MSTORE PUSH2 0xA0A SWAP1 PUSH2 0x3E47 JUMP JUMPDEST POP DUP1 MLOAD DUP6 MLOAD PUSH2 0xA19 DUP11 DUP3 PUSH2 0x3A64 JUMP JUMPDEST PUSH1 0x2E DUP2 MSTORE PUSH32 0x516D646D523450666E6E35674344355861617776727669586D45334A73696178 PUSH1 0x20 DUP3 ADD MSTORE PUSH14 0x524633654E727A68593143425537 PUSH1 0x90 SHL DUP8 DUP3 ADD MSTORE PUSH2 0xA62 DUP3 PUSH2 0x3E57 JUMP JUMPDEST MSTORE PUSH2 0xA6C SWAP1 PUSH2 0x3E57 JUMP JUMPDEST POP DUP1 MLOAD DUP6 MLOAD PUSH2 0xA7B DUP11 DUP3 PUSH2 0x3A64 JUMP JUMPDEST PUSH1 0x2E DUP2 MSTORE PUSH32 0x516D517254726667674B5437366E525A563872426A6361546F576648434D7A57 PUSH1 0x20 DUP3 ADD MSTORE PUSH14 0x7159347957527057335344365967 PUSH1 0x90 SHL DUP8 DUP3 ADD MSTORE PUSH2 0xAC4 DUP3 PUSH2 0x3E67 JUMP JUMPDEST MSTORE PUSH2 0xACE SWAP1 PUSH2 0x3E67 JUMP JUMPDEST POP DUP1 MLOAD DUP6 MLOAD PUSH2 0xADD DUP11 DUP3 PUSH2 0x3A64 JUMP JUMPDEST PUSH1 0x2E DUP2 MSTORE PUSH32 0x516D515848585145505032506E4662513636685367325A4D4E643653537A6646 PUSH1 0x20 DUP3 ADD MSTORE PUSH14 0x25A1A52420A2B4B9ACBA9C19192B PUSH1 0x91 SHL DUP8 DUP3 ADD MSTORE PUSH2 0xB26 DUP3 PUSH2 0x3E77 JUMP JUMPDEST MSTORE PUSH2 0xB30 SWAP1 PUSH2 0x3E77 JUMP JUMPDEST POP DUP1 MLOAD DUP6 MLOAD PUSH2 0xB3F DUP11 DUP3 PUSH2 0x3A64 JUMP JUMPDEST PUSH1 0x2E DUP2 MSTORE PUSH32 0x516D554543695837714869483868346B723275346836716169473866536A395A PUSH1 0x20 DUP3 ADD MSTORE PUSH14 0x135D18D091D9D15210D55E5B4C53 PUSH1 0x92 SHL DUP8 DUP3 ADD MSTORE PUSH2 0xB88 DUP3 PUSH2 0x3E87 JUMP JUMPDEST MSTORE PUSH2 0xB92 SWAP1 PUSH2 0x3E87 JUMP JUMPDEST POP DUP1 MLOAD DUP6 MLOAD PUSH2 0xBA1 DUP11 DUP3 PUSH2 0x3A64 JUMP JUMPDEST PUSH1 0x2E DUP2 MSTORE PUSH32 0x516D55775A727439624C6A6E684D4C43693443466361547659675A6157554A52 PUSH1 0x20 DUP3 ADD MSTORE PUSH14 0x635A444B71733963336D71794879 PUSH1 0x90 SHL DUP8 DUP3 ADD MSTORE PUSH2 0xBEA DUP3 PUSH2 0x3E98 JUMP JUMPDEST MSTORE PUSH2 0xBF4 SWAP1 PUSH2 0x3E98 JUMP JUMPDEST POP DUP1 MLOAD DUP6 MLOAD PUSH2 0xC03 DUP11 DUP3 PUSH2 0x3A64 JUMP JUMPDEST PUSH1 0x2E DUP2 MSTORE PUSH32 0x516D4E4E75775A415548366758386854636B366F6861344E6A4D684563373578 PUSH1 0x20 DUP3 ADD MSTORE PUSH14 0x7679474371324C70464474594347 PUSH1 0x90 SHL DUP8 DUP3 ADD MSTORE PUSH2 0xC4C DUP3 PUSH2 0x3EA9 JUMP JUMPDEST MSTORE PUSH2 0xC56 SWAP1 PUSH2 0x3EA9 JUMP JUMPDEST POP DUP1 MLOAD DUP6 MLOAD PUSH2 0xC65 DUP11 DUP3 PUSH2 0x3A64 JUMP JUMPDEST PUSH1 0x2E DUP2 MSTORE PUSH32 0x516D6162687874624B796531656F47504D6664617A5743356D544A734B417455 PUSH1 0x20 DUP3 ADD MSTORE PUSH14 0x31A33129B43319AD31B6B1B6ABA7 PUSH1 0x91 SHL DUP8 DUP3 ADD MSTORE PUSH2 0xCAE DUP3 PUSH2 0x3EBA JUMP JUMPDEST MSTORE PUSH2 0xCB8 SWAP1 PUSH2 0x3EBA JUMP JUMPDEST POP DUP1 MLOAD DUP6 MLOAD PUSH2 0xCC7 DUP11 DUP3 PUSH2 0x3A64 JUMP JUMPDEST PUSH1 0x2E DUP2 MSTORE PUSH32 0x516D6552686F6B686B47363142693378656D443967635A41484B386B36637538 PUSH1 0x20 DUP3 ADD MSTORE PUSH14 0x79434E4154456372556773345479 PUSH1 0x90 SHL DUP8 DUP3 ADD MSTORE PUSH2 0xD10 DUP3 PUSH2 0x3ECB JUMP JUMPDEST MSTORE PUSH2 0xD1A SWAP1 PUSH2 0x3ECB JUMP JUMPDEST POP DUP1 MLOAD DUP6 MLOAD PUSH2 0xD29 DUP11 DUP3 PUSH2 0x3A64 JUMP JUMPDEST PUSH1 0x2E DUP2 MSTORE PUSH32 0x516D616D526B504E4D425874706E687558344573623852516D394E4E70774333 PUSH1 0x20 DUP3 ADD MSTORE PUSH14 0x7A64414D54617250775772695365 PUSH1 0x90 SHL DUP8 DUP3 ADD MSTORE PUSH2 0xD72 DUP3 PUSH2 0x3EDC JUMP JUMPDEST MSTORE PUSH2 0xD7C SWAP1 PUSH2 0x3EDC JUMP JUMPDEST POP DUP1 MLOAD DUP6 MLOAD PUSH2 0xD8B DUP11 DUP3 PUSH2 0x3A64 JUMP JUMPDEST PUSH1 0x2E DUP2 MSTORE PUSH32 0x516D566B377467705573635047563267694B7779354B414A79434E506E534453 PUSH1 0x20 DUP3 ADD MSTORE PUSH14 0x35644D4B43336D534639357A4E6F PUSH1 0x90 SHL DUP8 DUP3 ADD MSTORE PUSH2 0xDD4 DUP3 PUSH2 0x3EED JUMP JUMPDEST MSTORE PUSH2 0xDDE SWAP1 PUSH2 0x3EED JUMP JUMPDEST POP MLOAD DUP5 MLOAD PUSH2 0xDEC DUP10 DUP3 PUSH2 0x3A64 JUMP JUMPDEST PUSH1 0x2E DUP2 MSTORE PUSH32 0x516D5464734A4E4437426450414B4A5A4438484A707033735445593744746757 PUSH1 0x20 DUP3 ADD MSTORE PUSH14 0x379B3937AA3A35BA2538B439B919 PUSH1 0x91 SHL DUP7 DUP3 ADD MSTORE PUSH2 0xE35 DUP3 PUSH2 0x3EFE JUMP JUMPDEST MSTORE PUSH2 0xE3F SWAP1 PUSH2 0x3EFE JUMP JUMPDEST POP PUSH2 0xE49 DUP4 PUSH2 0x5159 JUMP JUMPDEST DUP4 MLOAD DUP1 SWAP3 DUP2 SWAP3 MLOAD DUP1 SWAP3 PUSH2 0xE5B SWAP3 PUSH2 0x3842 JUMP JUMPDEST DUP2 ADD PUSH1 0xD DUP2 MSTORE SUB PUSH1 0x20 ADD SWAP1 KECCAK256 SWAP1 PUSH2 0xE71 SWAP2 PUSH2 0x4B86 JUMP JUMPDEST DUP1 MLOAD SWAP8 DUP9 SWAP8 PUSH1 0xC0 DUP10 MSTORE PUSH1 0xC0 DUP10 ADD PUSH2 0xE87 SWAP2 PUSH2 0x3865 JUMP JUMPDEST DUP9 DUP2 SUB PUSH1 0x20 DUP11 ADD MSTORE PUSH2 0xE98 SWAP2 PUSH2 0x3865 JUMP JUMPDEST SWAP1 DUP8 DUP3 SUB SWAP1 DUP9 ADD MSTORE PUSH2 0xEA9 SWAP2 PUSH2 0x3865 JUMP JUMPDEST SWAP2 DUP6 ADD MSTORE DUP4 DUP2 SUB PUSH1 0x80 DUP6 ADD MSTORE PUSH2 0xEBE SWAP2 PUSH2 0x3865 JUMP JUMPDEST SWAP1 PUSH1 0xA0 DUP4 ADD PUSH2 0xECC SWAP2 PUSH2 0x3B61 JUMP JUMPDEST SUB PUSH32 0x634EF467423C7B2ABBAF26097BDDDAC4A495D36BE69CA3D1555484B46E7899C7 SWAP2 LOG1 STOP JUMPDEST DUP1 PUSH1 0x60 PUSH1 0x20 DUP1 SWAP4 DUP12 ADD ADD MSTORE ADD PUSH2 0x814 JUMP JUMPDEST PUSH4 0x4E487B71 PUSH1 0xE0 SHL PUSH1 0x0 MSTORE PUSH1 0x41 PUSH1 0x4 MSTORE PUSH1 0x24 PUSH1 0x0 REVERT JUMPDEST SWAP1 POP DUP7 ADD MLOAD DUP14 PUSH2 0x771 JUMP JUMPDEST PUSH1 0x1F NOT DUP3 AND SWAP1 DUP4 PUSH1 0x0 MSTORE DUP1 PUSH1 0x0 KECCAK256 SWAP2 PUSH1 0x0 JUMPDEST DUP2 DUP2 LT PUSH2 0xF70 JUMPI POP SWAP1 DUP4 PUSH1 0x1 SWAP5 SWAP4 SWAP3 LT PUSH2 0xF57 JUMPI JUMPDEST POP POP DUP2 SHL ADD SWAP1 SSTORE PUSH2 0x7F9 JUMP JUMPDEST DUP8 ADD MLOAD PUSH1 0x0 NOT PUSH1 0xF8 DUP5 PUSH1 0x3 SHL AND SHR NOT AND SWAP1 SSTORE DUP13 DUP1 PUSH2 0xF4B JUMP JUMPDEST SWAP2 SWAP3 PUSH1 0x20 PUSH1 0x1 DUP2 SWAP3 DUP7 DUP13 ADD MLOAD DUP2 SSTORE ADD SWAP5 ADD SWAP3 ADD PUSH2 0xF36 JUMP JUMPDEST PUSH2 0xFB5 SWAP1 DUP4 PUSH1 0x0 MSTORE PUSH1 0x20 PUSH1 0x0 KECCAK256 PUSH1 0x1F DUP5 ADD PUSH1 0x5 SHR DUP2 ADD SWAP2 PUSH1 0x20 DUP6 LT PUSH2 0xFBB JUMPI JUMPDEST PUSH1 0x1F ADD PUSH1 0x5 SHR ADD SWAP1 PUSH2 0x43F5 JUMP JUMPDEST DUP12 PUSH2 0x7C7 JUMP JUMPDEST SWAP1 SWAP2 POP DUP2 SWAP1 PUSH2 0xFA8 JUMP JUMPDEST SWAP1 POP DUP13 ADD MLOAD DUP14 PUSH2 0x771 JUMP JUMPDEST PUSH1 0x0 DUP4 DUP2 MSTORE DUP2 DUP2 KECCAK256 SWAP2 SWAP1 PUSH1 0x1F NOT DUP5 AND SWAP1 DUP15 JUMPDEST DUP3 DUP3 LT PUSH2 0x101D JUMPI POP POP SWAP1 DUP4 PUSH1 0x1 SWAP5 SWAP4 SWAP3 LT PUSH2 0x1004 JUMPI JUMPDEST POP POP DUP2 SHL ADD SWAP1 SSTORE PUSH2 0x788 JUMP JUMPDEST DUP14 ADD MLOAD PUSH1 0x0 NOT PUSH1 0xF8 DUP5 PUSH1 0x3 SHL AND SHR NOT AND SWAP1 SSTORE DUP13 DUP1 PUSH2 0xFF8 JUMP JUMPDEST PUSH1 0x1 DUP5 SWAP6 PUSH1 0x20 SWAP4 SWAP6 DUP5 SWAP4 ADD MLOAD DUP2 SSTORE ADD SWAP5 ADD SWAP3 ADD DUP15 PUSH2 0xFE2 JUMP JUMPDEST PUSH2 0x1062 SWAP1 DUP4 PUSH1 0x0 MSTORE PUSH1 0x20 PUSH1 0x0 KECCAK256 PUSH1 0x1F DUP5 ADD PUSH1 0x5 SHR DUP2 ADD SWAP2 PUSH1 0x20 DUP6 LT PUSH2 0xFBB JUMPI PUSH1 0x1F ADD PUSH1 0x5 SHR ADD SWAP1 PUSH2 0x43F5 JUMP JUMPDEST DUP12 PUSH2 0x755 JUMP JUMPDEST PUSH4 0x4E487B71 PUSH1 0xE0 SHL PUSH1 0x0 MSTORE PUSH1 0x0 PUSH1 0x4 MSTORE PUSH1 0x24 PUSH1 0x0 REVERT JUMPDEST PUSH2 0x10A0 SWAP2 POP PUSH1 0x20 RETURNDATASIZE PUSH1 0x20 GT PUSH2 0x10A6 JUMPI JUMPDEST PUSH2 0x1098 DUP2 DUP4 PUSH2 0x3A64 JUMP JUMPDEST DUP2 ADD SWAP1 PUSH2 0x3F23 JUMP JUMPDEST DUP13 PUSH2 0x60A JUMP JUMPDEST POP RETURNDATASIZE PUSH2 0x108E JUMP JUMPDEST PUSH1 0x40 MLOAD RETURNDATASIZE PUSH1 0x0 DUP3 RETURNDATACOPY RETURNDATASIZE SWAP1 REVERT JUMPDEST CALLVALUE PUSH2 0x1E3 JUMPI PUSH1 0x20 CALLDATASIZE PUSH1 0x3 NOT ADD SLT PUSH2 0x1E3 JUMPI PUSH1 0x4 CALLDATALOAD PUSH1 0x1 PUSH1 0x1 PUSH1 0x40 SHL SUB DUP2 GT PUSH2 0x1E3 JUMPI PUSH1 0x0 PUSH2 0x10EE PUSH2 0x111B SWAP3 CALLDATASIZE SWAP1 PUSH1 0x4 ADD PUSH2 0x3B0B JUMP JUMPDEST PUSH1 0x1 DUP1 PUSH1 0xA0 SHL SUB PUSH1 0x1 SLOAD AND PUSH1 0x40 MLOAD DUP1 DUP1 SWAP6 DUP2 SWAP5 PUSH3 0x9A3087 PUSH1 0xE3 SHL DUP4 MSTORE PUSH1 0x20 PUSH1 0x4 DUP5 ADD MSTORE PUSH1 0x24 DUP4 ADD SWAP1 PUSH2 0x3865 JUMP JUMPDEST SUB SWAP2 GAS STATICCALL SWAP1 DUP2 ISZERO PUSH2 0x10AD JUMPI PUSH1 0x0 SWAP2 PUSH2 0x1144 JUMPI JUMPDEST PUSH1 0x40 MLOAD PUSH1 0x20 DUP1 DUP3 MSTORE DUP2 SWAP1 PUSH2 0x1DF SWAP1 DUP3 ADD DUP6 PUSH2 0x38E3 JUMP JUMPDEST RETURNDATASIZE DUP1 DUP4 DUP4 RETURNDATACOPY PUSH2 0x1153 DUP2 DUP4 PUSH2 0x3A64 JUMP JUMPDEST DUP2 ADD SWAP1 PUSH1 0x20 DUP2 DUP4 SUB SLT PUSH2 0x11E2 JUMPI DUP1 MLOAD SWAP1 PUSH1 0x1 PUSH1 0x1 PUSH1 0x40 SHL SUB DUP3 GT PUSH2 0x11EA JUMPI ADD SWAP1 DUP1 PUSH1 0x1F DUP4 ADD SLT ISZERO PUSH2 0x11E2 JUMPI DUP2 MLOAD SWAP3 PUSH2 0x118A DUP5 PUSH2 0x3CC1 JUMP JUMPDEST SWAP3 PUSH2 0x1198 PUSH1 0x40 MLOAD SWAP5 DUP6 PUSH2 0x3A64 JUMP JUMPDEST DUP5 DUP5 MSTORE PUSH1 0x20 DUP1 DUP6 ADD SWAP6 PUSH1 0x5 SHL DUP3 ADD ADD SWAP3 DUP4 GT PUSH2 0x11E6 JUMPI PUSH1 0x20 ADD SWAP4 JUMPDEST DUP3 DUP6 LT PUSH2 0x11C8 JUMPI POP POP POP PUSH2 0x1DF SWAP2 POP SWAP1 PUSH2 0x112E JUMP JUMPDEST DUP5 MLOAD PUSH1 0xFF DUP2 AND DUP2 SUB PUSH2 0x11E2 JUMPI DUP2 MSTORE PUSH1 0x20 SWAP5 DUP6 ADD SWAP5 ADD PUSH2 0x11B3 JUMP JUMPDEST DUP3 DUP1 REVERT JUMPDEST POP DUP1 REVERT JUMPDEST DUP4 DUP1 REVERT JUMPDEST CALLVALUE PUSH2 0x1E3 JUMPI PUSH1 0xC0 CALLDATASIZE PUSH1 0x3 NOT ADD SLT PUSH2 0x1E3 JUMPI PUSH1 0x4 CALLDATALOAD PUSH1 0x1 PUSH1 0x1 PUSH1 0x40 SHL SUB DUP2 GT PUSH2 0x1E3 JUMPI PUSH2 0x121E SWAP1 CALLDATASIZE SWAP1 PUSH1 0x4 ADD PUSH2 0x3B0B JUMP JUMPDEST PUSH1 0x24 CALLDATALOAD PUSH1 0x1 PUSH1 0x1 PUSH1 0x40 SHL SUB DUP2 GT PUSH2 0x1E3 JUMPI PUSH2 0x123D SWAP1 CALLDATASIZE SWAP1 PUSH1 0x4 ADD PUSH2 0x3B0B JUMP JUMPDEST PUSH1 0x44 CALLDATALOAD PUSH1 0x1 PUSH1 0x1 PUSH1 0x40 SHL SUB DUP2 GT PUSH2 0x1E3 JUMPI PUSH2 0x125C SWAP1 CALLDATASIZE SWAP1 PUSH1 0x4 ADD PUSH2 0x3B0B JUMP JUMPDEST SWAP1 PUSH2 0x1265 PUSH2 0x3CB1 JUMP JUMPDEST SWAP1 PUSH1 0x84 CALLDATALOAD PUSH1 0x1 PUSH1 0x1 PUSH1 0x40 SHL SUB DUP2 GT PUSH2 0x1E3 JUMPI PUSH2 0x1285 SWAP1 CALLDATASIZE SWAP1 PUSH1 0x4 ADD PUSH2 0x3B0B JUMP JUMPDEST SWAP3 PUSH1 0xA4 CALLDATALOAD PUSH1 0x1 PUSH1 0x1 PUSH1 0x40 SHL SUB DUP2 GT PUSH2 0x1E3 JUMPI PUSH2 0x12A5 SWAP1 CALLDATASIZE SWAP1 PUSH1 0x4 ADD PUSH2 0x3CD8 JUMP JUMPDEST SWAP1 PUSH1 0x44 PUSH1 0x20 PUSH1 0x1 DUP1 PUSH1 0xA0 SHL SUB PUSH1 0x0 SLOAD AND PUSH1 0x40 MLOAD SWAP3 DUP4 DUP1 SWAP3 PUSH4 0x95A8C58D PUSH1 0xE0 SHL DUP3 MSTORE CALLER PUSH1 0x4 DUP4 ADD MSTORE PUSH1 0x0 PUSH1 0x24 DUP4 ADD MSTORE GAS STATICCALL DUP1 ISZERO PUSH2 0x10AD JUMPI PUSH2 0x12EC SWAP2 PUSH1 0x0 SWAP2 PUSH2 0x1964 JUMPI POP PUSH2 0x440C JUMP JUMPDEST PUSH1 0xFF DUP3 MLOAD SWAP5 AND SWAP4 DUP5 SUB PUSH2 0x190D JUMPI PUSH1 0x40 MLOAD SWAP5 PUSH1 0x2 DUP3 MLOAD SWAP7 PUSH1 0x20 DUP2 DUP2 DUP7 ADD SWAP10 PUSH2 0x1314 DUP2 DUP4 DUP14 PUSH2 0x3842 JUMP JUMPDEST DUP2 ADD PUSH1 0xD DUP2 MSTORE SUB ADD SWAP1 KECCAK256 ADD PUSH1 0x40 MLOAD PUSH2 0x1342 DUP2 PUSH2 0x1334 PUSH1 0x20 DUP3 ADD DUP1 SWAP6 PUSH2 0x430A JUMP JUMPDEST SUB PUSH1 0x1F NOT DUP2 ADD DUP4 MSTORE DUP3 PUSH2 0x3A64 JUMP JUMPDEST MLOAD SWAP1 KECCAK256 DUP8 PUSH1 0x40 MLOAD PUSH2 0x1374 PUSH1 0x20 DUP3 DUP2 PUSH2 0x1363 DUP2 DUP4 ADD SWAP7 DUP8 DUP2 MLOAD SWAP4 DUP5 SWAP3 ADD PUSH2 0x3842 JUMP JUMPDEST DUP2 ADD SUB ADD PUSH1 0x1F NOT DUP2 ADD DUP4 MSTORE DUP3 PUSH2 0x3A64 JUMP JUMPDEST MLOAD SWAP1 KECCAK256 SUB PUSH2 0x187D JUMPI POP PUSH1 0x3 PUSH1 0x40 MLOAD PUSH1 0x20 DUP2 DUP5 MLOAD PUSH2 0x1392 DUP2 DUP4 DUP13 PUSH2 0x3842 JUMP JUMPDEST DUP2 ADD PUSH1 0xD DUP2 MSTORE SUB ADD SWAP1 KECCAK256 ADD DUP5 PUSH1 0xFF NOT DUP3 SLOAD AND OR SWAP1 SSTORE PUSH1 0x5 PUSH1 0x40 MLOAD PUSH1 0x20 DUP2 DUP5 MLOAD PUSH2 0x13BC DUP2 DUP4 DUP13 PUSH2 0x3842 JUMP JUMPDEST DUP2 ADD PUSH1 0xD DUP2 MSTORE SUB ADD SWAP1 KECCAK256 ADD SWAP1 DUP3 MLOAD PUSH1 0x1 PUSH1 0x40 SHL DUP2 GT PUSH2 0xF03 JUMPI DUP3 SLOAD DUP2 DUP5 SSTORE DUP1 DUP3 LT PUSH2 0x17FF JUMPI JUMPDEST POP PUSH1 0x20 DUP5 ADD SWAP1 DUP2 SWAP4 PUSH1 0x0 MSTORE PUSH1 0x20 PUSH1 0x0 KECCAK256 SWAP2 PUSH1 0x0 SWAP1 JUMPDEST DUP3 DUP3 LT PUSH2 0x16E7 JUMPI POP POP POP POP PUSH1 0x0 JUMPDEST PUSH1 0x3 SLOAD DUP2 LT ISZERO PUSH2 0x16B2 JUMPI PUSH1 0x1 PUSH2 0x1334 PUSH2 0x1434 PUSH2 0x1420 DUP5 PUSH2 0x3C41 JUMP JUMPDEST POP PUSH1 0x40 MLOAD SWAP3 DUP4 SWAP2 PUSH1 0x20 DUP4 ADD SWAP6 DUP7 SWAP2 ADD PUSH2 0x430A JUMP JUMPDEST MLOAD SWAP1 KECCAK256 PUSH2 0x1363 PUSH1 0x40 MLOAD PUSH2 0x1454 PUSH1 0x20 DUP3 DUP13 DUP3 DUP3 ADD SWAP6 DUP7 SWAP2 DUP11 MLOAD SWAP3 DUP4 SWAP2 PUSH2 0x3842 JUMP JUMPDEST MLOAD SWAP1 KECCAK256 EQ PUSH2 0x1464 JUMPI PUSH1 0x1 ADD PUSH2 0x1405 JUMP JUMPDEST PUSH1 0x5 SWAP3 SWAP4 SWAP5 SWAP6 SWAP7 POP PUSH2 0x148D SWAP2 POP PUSH1 0x3 PUSH2 0x147C DUP3 PUSH2 0x3C41 JUMP JUMPDEST POP ADD DUP1 SLOAD PUSH1 0xFF NOT AND DUP9 OR SWAP1 SSTORE PUSH2 0x3C41 JUMP JUMPDEST POP ADD SWAP2 MLOAD SWAP1 PUSH1 0x1 PUSH1 0x40 SHL DUP3 GT PUSH2 0xF03 JUMPI DUP3 SLOAD DUP3 DUP5 SSTORE DUP1 DUP4 LT PUSH2 0x1634 JUMPI JUMPDEST POP SWAP2 PUSH1 0x0 MSTORE PUSH1 0x20 PUSH1 0x0 KECCAK256 SWAP2 PUSH1 0x0 SWAP1 JUMPDEST DUP3 DUP3 LT PUSH2 0x151B JUMPI POP POP POP POP SWAP2 PUSH2 0x1516 PUSH2 0x1503 SWAP3 PUSH32 0xABB6D08782DF0E4C2EE63DEACC72EFC9C1A9422C00FC5D8075160D11EAA40B4A SWAP5 JUMPDEST PUSH1 0x40 MLOAD SWAP5 DUP6 SWAP5 PUSH1 0x60 DUP7 MSTORE PUSH1 0x60 DUP7 ADD SWAP1 PUSH2 0x3865 JUMP JUMPDEST SWAP2 PUSH1 0x20 DUP6 ADD MSTORE DUP4 DUP3 SUB PUSH1 0x40 DUP6 ADD MSTORE PUSH2 0x3865 JUMP JUMPDEST SUB SWAP1 LOG1 STOP JUMPDEST DUP1 MLOAD DUP1 MLOAD SWAP1 PUSH1 0x1 PUSH1 0x1 PUSH1 0x40 SHL SUB DUP3 GT PUSH2 0xF03 JUMPI PUSH2 0x1538 DUP7 SLOAD PUSH2 0x3954 JUMP JUMPDEST PUSH1 0x1F DUP2 GT PUSH2 0x1602 JUMPI JUMPDEST POP PUSH1 0x20 SWAP1 PUSH1 0x1F DUP4 GT PUSH1 0x1 EQ PUSH2 0x1595 JUMPI SWAP3 PUSH2 0x157B DUP4 PUSH1 0x1 SWAP6 SWAP5 PUSH1 0x20 SWAP5 DUP8 SWAP7 PUSH1 0x0 SWAP3 PUSH2 0x158A JUMPI JUMPDEST POP POP DUP2 PUSH1 0x1 SHL SWAP2 PUSH1 0x0 NOT SWAP1 PUSH1 0x3 SHL SHR NOT AND OR SWAP1 JUMP JUMPDEST DUP8 SSTORE JUMPDEST ADD SWAP5 ADD SWAP2 ADD SWAP1 SWAP3 PUSH2 0x14B9 JUMP JUMPDEST ADD MLOAD SWAP1 POP DUP14 DUP1 PUSH2 0x1566 JUMP JUMPDEST SWAP1 PUSH1 0x1F NOT DUP4 AND SWAP2 DUP8 PUSH1 0x0 MSTORE DUP2 PUSH1 0x0 KECCAK256 SWAP3 PUSH1 0x0 JUMPDEST DUP2 DUP2 LT PUSH2 0x15EA JUMPI POP SWAP4 PUSH1 0x20 SWAP4 PUSH1 0x1 SWAP7 SWAP4 DUP8 SWAP7 SWAP4 DUP4 DUP9 SWAP6 LT PUSH2 0x15D1 JUMPI JUMPDEST POP POP POP DUP2 SHL ADD DUP8 SSTORE PUSH2 0x157E JUMP JUMPDEST ADD MLOAD PUSH1 0x0 NOT PUSH1 0xF8 DUP5 PUSH1 0x3 SHL AND SHR NOT AND SWAP1 SSTORE DUP13 DUP1 DUP1 PUSH2 0x15C4 JUMP JUMPDEST SWAP3 SWAP4 PUSH1 0x20 PUSH1 0x1 DUP2 SWAP3 DUP8 DUP7 ADD MLOAD DUP2 SSTORE ADD SWAP6 ADD SWAP4 ADD PUSH2 0x15A8 JUMP JUMPDEST PUSH2 0x162E SWAP1 DUP8 PUSH1 0x0 MSTORE PUSH1 0x20 PUSH1 0x0 KECCAK256 PUSH1 0x1F DUP6 ADD PUSH1 0x5 SHR DUP2 ADD SWAP2 PUSH1 0x20 DUP7 LT PUSH2 0xFBB JUMPI PUSH1 0x1F ADD PUSH1 0x5 SHR ADD SWAP1 PUSH2 0x43F5 JUMP JUMPDEST DUP10 PUSH2 0x1541 JUMP JUMPDEST DUP4 PUSH1 0x0 MSTORE DUP3 PUSH1 0x20 PUSH1 0x0 KECCAK256 SWAP2 DUP3 ADD SWAP2 ADD JUMPDEST DUP2 DUP2 LT PUSH2 0x1651 JUMPI POP PUSH2 0x14AA JUMP JUMPDEST DUP1 PUSH2 0x165E PUSH1 0x1 SWAP3 SLOAD PUSH2 0x3954 JUMP JUMPDEST DUP1 PUSH2 0x166B JUMPI JUMPDEST POP ADD PUSH2 0x1644 JUMP JUMPDEST PUSH1 0x1F DUP2 GT DUP4 EQ PUSH2 0x1681 JUMPI POP PUSH1 0x0 DUP2 SSTORE JUMPDEST DUP10 PUSH2 0x1664 JUMP JUMPDEST PUSH2 0x169F SWAP1 DUP3 PUSH1 0x0 MSTORE DUP4 PUSH1 0x1F PUSH1 0x20 PUSH1 0x0 KECCAK256 SWAP3 ADD PUSH1 0x5 SHR DUP3 ADD SWAP2 ADD PUSH2 0x43F5 JUMP JUMPDEST DUP1 PUSH1 0x0 MSTORE PUSH1 0x0 PUSH1 0x20 DUP2 KECCAK256 DUP2 DUP4 SSTORE SSTORE PUSH2 0x167B JUMP JUMPDEST POP POP POP POP PUSH2 0x1503 SWAP3 POP PUSH32 0xABB6D08782DF0E4C2EE63DEACC72EFC9C1A9422C00FC5D8075160D11EAA40B4A SWAP4 SWAP2 PUSH2 0x1516 SWAP2 PUSH2 0x14EF JUMP JUMPDEST DUP1 MLOAD DUP1 MLOAD SWAP1 PUSH1 0x1 PUSH1 0x1 PUSH1 0x40 SHL SUB DUP3 GT PUSH2 0xF03 JUMPI PUSH2 0x1704 DUP7 SLOAD PUSH2 0x3954 JUMP JUMPDEST PUSH1 0x1F DUP2 GT PUSH2 0x17CD JUMPI JUMPDEST POP PUSH1 0x20 SWAP1 PUSH1 0x1F DUP4 GT PUSH1 0x1 EQ PUSH2 0x1760 JUMPI SWAP3 PUSH2 0x1746 DUP4 PUSH1 0x1 SWAP6 SWAP5 PUSH1 0x20 SWAP5 DUP8 SWAP7 PUSH1 0x0 SWAP3 PUSH2 0x1755 JUMPI POP POP DUP2 PUSH1 0x1 SHL SWAP2 PUSH1 0x0 NOT SWAP1 PUSH1 0x3 SHL SHR NOT AND OR SWAP1 JUMP JUMPDEST DUP8 SSTORE JUMPDEST ADD SWAP5 ADD SWAP2 ADD SWAP1 SWAP3 PUSH2 0x13F7 JUMP JUMPDEST ADD MLOAD SWAP1 POP CODESIZE DUP1 PUSH2 0x1566 JUMP JUMPDEST SWAP1 PUSH1 0x1F NOT DUP4 AND SWAP2 DUP8 PUSH1 0x0 MSTORE DUP2 PUSH1 0x0 KECCAK256 SWAP3 PUSH1 0x0 JUMPDEST DUP2 DUP2 LT PUSH2 0x17B5 JUMPI POP SWAP4 PUSH1 0x20 SWAP4 PUSH1 0x1 SWAP7 SWAP4 DUP8 SWAP7 SWAP4 DUP4 DUP9 SWAP6 LT PUSH2 0x179C JUMPI JUMPDEST POP POP POP DUP2 SHL ADD DUP8 SSTORE PUSH2 0x1749 JUMP JUMPDEST ADD MLOAD PUSH1 0x0 NOT PUSH1 0xF8 DUP5 PUSH1 0x3 SHL AND SHR NOT AND SWAP1 SSTORE CODESIZE DUP1 DUP1 PUSH2 0x178F JUMP JUMPDEST SWAP3 SWAP4 PUSH1 0x20 PUSH1 0x1 DUP2 SWAP3 DUP8 DUP7 ADD MLOAD DUP2 SSTORE ADD SWAP6 ADD SWAP4 ADD PUSH2 0x1773 JUMP JUMPDEST PUSH2 0x17F9 SWAP1 DUP8 PUSH1 0x0 MSTORE PUSH1 0x20 PUSH1 0x0 KECCAK256 PUSH1 0x1F DUP6 ADD PUSH1 0x5 SHR DUP2 ADD SWAP2 PUSH1 0x20 DUP7 LT PUSH2 0xFBB JUMPI PUSH1 0x1F ADD PUSH1 0x5 SHR ADD SWAP1 PUSH2 0x43F5 JUMP JUMPDEST DUP14 PUSH2 0x170D JUMP JUMPDEST DUP4 PUSH1 0x0 MSTORE DUP2 PUSH1 0x20 PUSH1 0x0 KECCAK256 SWAP2 DUP3 ADD SWAP2 ADD JUMPDEST DUP2 DUP2 LT PUSH2 0x181C JUMPI POP PUSH2 0x13E2 JUMP JUMPDEST DUP1 PUSH2 0x1829 PUSH1 0x1 SWAP3 SLOAD PUSH2 0x3954 JUMP JUMPDEST DUP1 PUSH2 0x1836 JUMPI JUMPDEST POP ADD PUSH2 0x180F JUMP JUMPDEST PUSH1 0x1F DUP2 GT DUP4 EQ PUSH2 0x184C JUMPI POP PUSH1 0x0 DUP2 SSTORE JUMPDEST DUP12 PUSH2 0x182F JUMP JUMPDEST PUSH2 0x186A SWAP1 DUP3 PUSH1 0x0 MSTORE DUP4 PUSH1 0x1F PUSH1 0x20 PUSH1 0x0 KECCAK256 SWAP3 ADD PUSH1 0x5 SHR DUP3 ADD SWAP2 ADD PUSH2 0x43F5 JUMP JUMPDEST DUP1 PUSH1 0x0 MSTORE PUSH1 0x0 PUSH1 0x20 DUP2 KECCAK256 DUP2 DUP4 SSTORE SSTORE PUSH2 0x1846 JUMP JUMPDEST PUSH32 0xABB6D08782DF0E4C2EE63DEACC72EFC9C1A9422C00FC5D8075160D11EAA40B4A SWAP7 SWAP5 SWAP3 PUSH2 0x1903 PUSH2 0x1908 SWAP3 PUSH2 0x18F4 PUSH1 0x20 PUSH2 0x1503 SWAP11 PUSH2 0x1516 SWAP10 SWAP8 PUSH1 0x40 MLOAD SWAP7 DUP8 SWAP6 PUSH2 0x18C5 DUP8 PUSH2 0x3A49 JUMP JUMPDEST DUP11 DUP8 MSTORE DUP3 DUP6 DUP9 ADD MSTORE DUP14 PUSH1 0x40 DUP9 ADD MSTORE DUP12 PUSH1 0x60 DUP9 ADD MSTORE PUSH1 0x80 DUP8 ADD MSTORE PUSH1 0xA0 DUP7 ADD MSTORE PUSH1 0x40 MLOAD SWAP4 DUP5 SWAP3 DUP4 SWAP3 MLOAD SWAP3 DUP4 SWAP2 PUSH2 0x3842 JUMP JUMPDEST DUP2 ADD PUSH1 0xD DUP2 MSTORE SUB ADD SWAP1 KECCAK256 PUSH2 0x4B86 JUMP JUMPDEST PUSH2 0x5159 JUMP JUMPDEST PUSH2 0x14EF JUMP JUMPDEST PUSH1 0x40 MLOAD PUSH3 0x461BCD PUSH1 0xE5 SHL DUP2 MSTORE PUSH1 0x20 PUSH1 0x4 DUP3 ADD MSTORE PUSH1 0x29 PUSH1 0x24 DUP3 ADD MSTORE PUSH32 0x5175616E7469747920646F6573206E6F74206D6174636820746865206E756D62 PUSH1 0x44 DUP3 ADD MSTORE PUSH9 0x6572206F6620494473 PUSH1 0xB8 SHL PUSH1 0x64 DUP3 ADD MSTORE PUSH1 0x84 SWAP1 REVERT JUMPDEST PUSH2 0x197D SWAP2 POP PUSH1 0x20 RETURNDATASIZE PUSH1 0x20 GT PUSH2 0x10A6 JUMPI PUSH2 0x1098 DUP2 DUP4 PUSH2 0x3A64 JUMP JUMPDEST DUP9 PUSH2 0x60A JUMP JUMPDEST CALLVALUE PUSH2 0x1E3 JUMPI PUSH1 0x20 CALLDATASIZE PUSH1 0x3 NOT ADD SLT PUSH2 0x1E3 JUMPI PUSH1 0x4 CALLDATALOAD PUSH1 0x1 PUSH1 0x1 PUSH1 0x40 SHL SUB DUP2 GT PUSH2 0x1E3 JUMPI PUSH2 0x19B3 SWAP1 CALLDATASIZE SWAP1 PUSH1 0x4 ADD PUSH2 0x3B0B JUMP JUMPDEST PUSH1 0x0 DUP1 SLOAD PUSH1 0x40 MLOAD PUSH4 0x95A8C58D PUSH1 0xE0 SHL DUP2 MSTORE CALLER PUSH1 0x4 DUP3 ADD MSTORE PUSH1 0x24 DUP2 ADD SWAP3 SWAP1 SWAP3 MSTORE PUSH1 0x20 SWAP1 DUP3 SWAP1 PUSH1 0x44 SWAP1 DUP3 SWAP1 PUSH1 0x1 PUSH1 0x1 PUSH1 0xA0 SHL SUB AND GAS STATICCALL DUP1 ISZERO PUSH2 0x10AD JUMPI PUSH2 0x19FE SWAP2 PUSH1 0x0 SWAP2 PUSH2 0x1BB8 JUMPI POP PUSH2 0x440C JUMP JUMPDEST PUSH1 0x40 MLOAD DUP2 MLOAD SWAP1 PUSH1 0x20 DUP2 DUP2 DUP6 ADD SWAP4 PUSH2 0x1A16 DUP2 DUP4 DUP8 PUSH2 0x3842 JUMP JUMPDEST DUP2 ADD PUSH1 0xC DUP2 MSTORE SUB ADD SWAP1 KECCAK256 SWAP2 PUSH1 0x6 DUP4 ADD DUP1 SLOAD PUSH1 0xFF DUP2 PUSH1 0x8 SHR AND PUSH2 0x1A37 DUP2 PUSH2 0x3A85 JUMP JUMPDEST PUSH2 0x1B56 JUMPI TIMESTAMP PUSH1 0x7 DUP7 ADD SSTORE PUSH2 0xFF00 NOT AND PUSH2 0x100 OR SWAP1 SSTORE PUSH1 0x0 JUMPDEST PUSH1 0x2 SLOAD DUP2 LT ISZERO PUSH2 0x1B26 JUMPI PUSH2 0x1A62 DUP2 PUSH2 0x3C0C JUMP JUMPDEST POP PUSH1 0x40 MLOAD PUSH2 0x1A78 DUP2 PUSH2 0x1334 PUSH1 0x20 DUP3 ADD DUP1 SWAP6 PUSH2 0x430A JUMP JUMPDEST MLOAD SWAP1 KECCAK256 PUSH1 0x40 MLOAD PUSH1 0x20 DUP2 ADD SWAP1 PUSH2 0x1A96 PUSH1 0x20 DUP3 DUP8 MLOAD PUSH2 0x1363 DUP2 DUP8 DUP13 PUSH2 0x3842 JUMP JUMPDEST MLOAD SWAP1 KECCAK256 EQ PUSH2 0x1AA6 JUMPI PUSH1 0x1 ADD PUSH2 0x1A4F JUMP JUMPDEST PUSH2 0x1B11 SWAP3 POP PUSH32 0x854681DB4B5190CEAACFE5894893F2E8D49873D9B8ED6C72B5618047CB3924E5 SWAP4 PUSH1 0x6 PUSH2 0x1AEB DUP4 PUSH2 0x1ADF PUSH2 0x1516 SWAP6 PUSH2 0x3C0C JUMP JUMPDEST POP PUSH1 0x7 TIMESTAMP SWAP2 ADD SSTORE PUSH2 0x3C0C JUMP JUMPDEST POP ADD DUP1 SLOAD PUSH2 0xFF00 NOT AND PUSH2 0x100 OR SWAP1 SSTORE JUMPDEST PUSH1 0x2 PUSH1 0x40 MLOAD SWAP5 DUP6 SWAP5 PUSH1 0x60 DUP7 MSTORE PUSH1 0x60 DUP7 ADD SWAP1 PUSH2 0x3865 JUMP JUMPDEST SWAP2 TIMESTAMP PUSH1 0x20 DUP7 ADD MSTORE DUP5 DUP4 SUB PUSH1 0x40 DUP7 ADD MSTORE ADD PUSH2 0x398E JUMP JUMPDEST POP PUSH2 0x1B11 SWAP2 POP PUSH2 0x1516 PUSH32 0x854681DB4B5190CEAACFE5894893F2E8D49873D9B8ED6C72B5618047CB3924E5 SWAP4 PUSH2 0x1AFB JUMP JUMPDEST PUSH1 0x40 MLOAD PUSH3 0x461BCD PUSH1 0xE5 SHL DUP2 MSTORE PUSH1 0x20 PUSH1 0x4 DUP3 ADD MSTORE PUSH1 0x34 PUSH1 0x24 DUP3 ADD MSTORE PUSH32 0x4F62617420547261646973696F6E616C20737461747573206D75737420626520 PUSH1 0x44 DUP3 ADD MSTORE PUSH20 0x696E206C6F63616C2070726F64756374696F6E21 PUSH1 0x60 SHL PUSH1 0x64 DUP3 ADD MSTORE PUSH1 0x84 SWAP1 REVERT JUMPDEST PUSH2 0x1BD1 SWAP2 POP PUSH1 0x20 RETURNDATASIZE PUSH1 0x20 GT PUSH2 0x10A6 JUMPI PUSH2 0x1098 DUP2 DUP4 PUSH2 0x3A64 JUMP JUMPDEST DUP4 PUSH2 0x60A JUMP JUMPDEST CALLVALUE PUSH2 0x1E3 JUMPI PUSH1 0xC0 CALLDATASIZE PUSH1 0x3 NOT ADD SLT PUSH2 0x1E3 JUMPI PUSH1 0x4 CALLDATALOAD PUSH1 0x1 PUSH1 0x1 PUSH1 0x40 SHL SUB DUP2 GT PUSH2 0x1E3 JUMPI PUSH2 0x1C07 SWAP1 CALLDATASIZE SWAP1 PUSH1 0x4 ADD PUSH2 0x3B0B JUMP JUMPDEST PUSH1 0x24 CALLDATALOAD PUSH1 0x1 PUSH1 0x1 PUSH1 0x40 SHL SUB DUP2 GT PUSH2 0x1E3 JUMPI PUSH2 0x1C26 SWAP1 CALLDATASIZE SWAP1 PUSH1 0x4 ADD PUSH2 0x3B0B JUMP JUMPDEST PUSH1 0x44 CALLDATALOAD PUSH1 0x1 PUSH1 0x1 PUSH1 0x40 SHL SUB DUP2 GT PUSH2 0x1E3 JUMPI PUSH2 0x1C45 SWAP1 CALLDATASIZE SWAP1 PUSH1 0x4 ADD PUSH2 0x3B0B JUMP JUMPDEST SWAP2 PUSH2 0x1C4E PUSH2 0x3CB1 JUMP JUMPDEST SWAP1 PUSH2 0x1C57 PUSH2 0x3BF6 JUMP JUMPDEST SWAP4 PUSH1 0xA4 CALLDATALOAD PUSH1 0x1 PUSH1 0x1 PUSH1 0x40 SHL SUB DUP2 GT PUSH2 0x1E3 JUMPI PUSH2 0x1C77 SWAP1 CALLDATASIZE SWAP1 PUSH1 0x4 ADD PUSH2 0x3B0B JUMP JUMPDEST PUSH1 0x0 SLOAD PUSH1 0x40 MLOAD PUSH4 0x95A8C58D PUSH1 0xE0 SHL DUP2 MSTORE CALLER PUSH1 0x4 DUP3 ADD MSTORE PUSH1 0x1 PUSH1 0x24 DUP3 ADD MSTORE SWAP2 SWAP7 SWAP2 SWAP1 PUSH1 0x20 SWAP1 DUP3 SWAP1 PUSH1 0x44 SWAP1 DUP3 SWAP1 PUSH1 0x1 PUSH1 0x1 PUSH1 0xA0 SHL SUB AND GAS STATICCALL SWAP1 DUP2 ISZERO PUSH2 0x10AD JUMPI PUSH1 0x0 SWAP2 PUSH2 0x1DD0 JUMPI JUMPDEST POP ISZERO PUSH2 0x1D8B JUMPI PUSH32 0x95B629C00CAAA10E5C594B3F10670964FDFEFF8DE039E6E3AE5ACC2AED2A3FDB SWAP6 PUSH2 0x1D7D PUSH2 0x1516 SWAP5 PUSH1 0xFF DUP8 AND PUSH2 0x1CFC PUSH1 0x32 DUP3 LT ISZERO PUSH2 0x4457 JUMP JUMPDEST PUSH2 0x1D04 PUSH2 0x3D56 JUMP JUMPDEST SWAP1 PUSH1 0x40 MLOAD SWAP3 PUSH2 0x1D12 DUP5 PUSH2 0x3A2D JUMP JUMPDEST DUP11 DUP5 MSTORE DUP8 PUSH1 0x20 DUP6 ADD MSTORE PUSH1 0x40 DUP5 ADD MSTORE PUSH1 0x60 DUP4 ADD MSTORE DUP4 PUSH1 0x80 DUP4 ADD MSTORE PUSH1 0x1 DUP1 PUSH1 0xA0 SHL SUB DUP6 AND PUSH1 0xA0 DUP4 ADD MSTORE PUSH1 0x0 PUSH1 0xC0 DUP4 ADD MSTORE TIMESTAMP PUSH1 0xE0 DUP4 ADD MSTORE PUSH2 0x100 DUP3 ADD MSTORE PUSH2 0x1D78 DUP2 PUSH2 0x1D69 PUSH1 0x20 DUP12 DUP2 PUSH1 0x40 MLOAD SWAP4 DUP3 DUP6 DUP1 SWAP5 MLOAD SWAP4 DUP5 SWAP3 ADD PUSH2 0x3842 JUMP JUMPDEST DUP2 ADD PUSH1 0xE DUP2 MSTORE SUB ADD SWAP1 KECCAK256 PUSH2 0x44A3 JUMP JUMPDEST PUSH2 0x4AD8 JUMP JUMPDEST PUSH1 0x40 MLOAD SWAP6 DUP7 SWAP6 TIMESTAMP SWAP5 DUP8 PUSH2 0x4B2F JUMP JUMPDEST PUSH1 0x40 MLOAD PUSH3 0x461BCD PUSH1 0xE5 SHL DUP2 MSTORE PUSH1 0x20 PUSH1 0x4 DUP3 ADD MSTORE PUSH1 0x1D PUSH1 0x24 DUP3 ADD MSTORE PUSH32 0x416363657373207265737472696374656420746F2050424620726F6C65000000 PUSH1 0x44 DUP3 ADD MSTORE PUSH1 0x64 SWAP1 REVERT JUMPDEST PUSH2 0x1DE9 SWAP2 POP PUSH1 0x20 RETURNDATASIZE PUSH1 0x20 GT PUSH2 0x10A6 JUMPI PUSH2 0x1098 DUP2 DUP4 PUSH2 0x3A64 JUMP JUMPDEST DUP8 PUSH2 0x1CBC JUMP JUMPDEST CALLVALUE PUSH2 0x1E3 JUMPI PUSH1 0x20 CALLDATASIZE PUSH1 0x3 NOT ADD SLT PUSH2 0x1E3 JUMPI PUSH1 0x4 CALLDATALOAD PUSH1 0x1 PUSH1 0x1 PUSH1 0x40 SHL SUB DUP2 GT PUSH2 0x1E3 JUMPI PUSH2 0x1E1F SWAP1 CALLDATASIZE SWAP1 PUSH1 0x4 ADD PUSH2 0x3B0B JUMP JUMPDEST PUSH1 0x60 SWAP1 PUSH1 0x40 MLOAD PUSH2 0x1E5A PUSH2 0x1E53 PUSH1 0x1 DUP5 MLOAD SWAP4 PUSH1 0x20 DUP2 DUP2 DUP9 ADD SWAP7 PUSH2 0x1E42 DUP2 DUP4 DUP11 PUSH2 0x3842 JUMP JUMPDEST DUP2 ADD PUSH1 0xD DUP2 MSTORE SUB ADD SWAP1 KECCAK256 ADD SLOAD PUSH2 0x3954 JUMP JUMPDEST ISZERO ISZERO PUSH2 0x439D JUMP JUMPDEST PUSH1 0xFF PUSH1 0x3 PUSH1 0x40 MLOAD PUSH1 0x20 DUP2 DUP7 MLOAD PUSH2 0x1E71 DUP2 DUP4 DUP10 PUSH2 0x3842 JUMP JUMPDEST DUP2 ADD PUSH1 0xD DUP2 MSTORE SUB ADD SWAP1 KECCAK256 ADD SLOAD AND SWAP2 PUSH1 0x1 DUP1 PUSH1 0xA0 SHL SUB PUSH1 0x0 SLOAD AND PUSH1 0x40 MLOAD PUSH4 0x95A8C58D PUSH1 0xE0 SHL DUP2 MSTORE CALLER PUSH1 0x4 DUP3 ADD MSTORE PUSH1 0x1 PUSH1 0x24 DUP3 ADD MSTORE PUSH1 0x20 DUP2 PUSH1 0x44 DUP2 DUP6 GAS STATICCALL SWAP1 DUP2 ISZERO PUSH2 0x10AD JUMPI PUSH1 0x0 SWAP2 PUSH2 0x1F85 JUMPI JUMPDEST POP ISZERO PUSH2 0x1EED JUMPI POP POP POP SWAP1 POP PUSH2 0x1ECF PUSH2 0x3D56 JUMP JUMPDEST SWAP1 JUMPDEST PUSH2 0x1DF PUSH1 0x40 MLOAD SWAP3 DUP4 SWAP3 DUP4 MSTORE PUSH1 0x40 PUSH1 0x20 DUP5 ADD MSTORE PUSH1 0x40 DUP4 ADD SWAP1 PUSH2 0x388A JUMP JUMPDEST PUSH1 0x20 PUSH1 0x44 SWAP2 PUSH1 0x40 MLOAD SWAP3 DUP4 DUP1 SWAP3 PUSH4 0x95A8C58D PUSH1 0xE0 SHL DUP3 MSTORE CALLER PUSH1 0x4 DUP4 ADD MSTORE PUSH1 0x0 PUSH1 0x24 DUP4 ADD MSTORE GAS STATICCALL SWAP1 DUP2 ISZERO PUSH2 0x10AD JUMPI PUSH1 0x0 SWAP2 PUSH2 0x1F66 JUMPI JUMPDEST POP PUSH2 0x1F2E JUMPI JUMPDEST POP POP PUSH2 0x1ED1 JUMP JUMPDEST PUSH2 0x1F5E SWAP3 SWAP4 POP PUSH1 0x20 PUSH1 0x5 SWAP3 PUSH2 0x1F4E SWAP3 PUSH1 0x40 MLOAD SWAP4 DUP5 SWAP3 DUP4 SWAP3 MLOAD SWAP3 DUP4 SWAP2 PUSH2 0x3842 JUMP JUMPDEST DUP2 ADD PUSH1 0xD DUP2 MSTORE SUB ADD SWAP1 KECCAK256 ADD PUSH2 0x3F3B JUMP JUMPDEST SWAP1 DUP3 DUP1 PUSH2 0x1F27 JUMP JUMPDEST PUSH2 0x1F7F SWAP2 POP PUSH1 0x20 RETURNDATASIZE PUSH1 0x20 GT PUSH2 0x10A6 JUMPI PUSH2 0x1098 DUP2 DUP4 PUSH2 0x3A64 JUMP JUMPDEST DUP6 PUSH2 0x1F21 JUMP JUMPDEST PUSH2 0x1F9E SWAP2 POP PUSH1 0x20 RETURNDATASIZE PUSH1 0x20 GT PUSH2 0x10A6 JUMPI PUSH2 0x1098 DUP2 DUP4 PUSH2 0x3A64 JUMP JUMPDEST DUP7 PUSH2 0x1EBC JUMP JUMPDEST CALLVALUE PUSH2 0x1E3 JUMPI PUSH1 0xE0 CALLDATASIZE PUSH1 0x3 NOT ADD SLT PUSH2 0x1E3 JUMPI PUSH1 0x4 CALLDATALOAD PUSH1 0x1 PUSH1 0x1 PUSH1 0x40 SHL SUB DUP2 GT PUSH2 0x1E3 JUMPI PUSH2 0x1FD4 SWAP1 CALLDATASIZE SWAP1 PUSH1 0x4 ADD PUSH2 0x3B0B JUMP JUMPDEST PUSH1 0x24 CALLDATALOAD PUSH1 0x1 PUSH1 0x1 PUSH1 0x40 SHL SUB DUP2 GT PUSH2 0x1E3 JUMPI PUSH2 0x1FF3 SWAP1 CALLDATASIZE SWAP1 PUSH1 0x4 ADD PUSH2 0x3B0B JUMP JUMPDEST PUSH1 0x44 CALLDATALOAD PUSH1 0x1 PUSH1 0x1 PUSH1 0x40 SHL SUB DUP2 GT PUSH2 0x1E3 JUMPI PUSH2 0x2012 SWAP1 CALLDATASIZE SWAP1 PUSH1 0x4 ADD PUSH2 0x3B0B JUMP JUMPDEST PUSH2 0x201A PUSH2 0x3CB1 JUMP JUMPDEST SWAP1 PUSH2 0x2023 PUSH2 0x3BF6 JUMP JUMPDEST PUSH1 0xA4 CALLDATALOAD PUSH1 0x1 PUSH1 0x1 PUSH1 0x40 SHL SUB DUP2 GT PUSH2 0x1E3 JUMPI PUSH2 0x2042 SWAP1 CALLDATASIZE SWAP1 PUSH1 0x4 ADD PUSH2 0x3B0B JUMP JUMPDEST PUSH1 0xC4 CALLDATALOAD PUSH1 0x1 PUSH1 0x1 PUSH1 0x40 SHL SUB DUP2 GT PUSH2 0x1E3 JUMPI PUSH2 0x2061 SWAP1 CALLDATASIZE SWAP1 PUSH1 0x4 ADD PUSH2 0x3CD8 JUMP JUMPDEST PUSH1 0x0 SLOAD PUSH1 0x40 MLOAD PUSH4 0x95A8C58D PUSH1 0xE0 SHL DUP2 MSTORE CALLER PUSH1 0x4 DUP3 ADD MSTORE PUSH1 0x3 PUSH1 0x24 DUP3 ADD MSTORE SWAP2 SWAP8 SWAP2 SWAP1 PUSH1 0x20 SWAP1 DUP3 SWAP1 PUSH1 0x44 SWAP1 DUP3 SWAP1 PUSH1 0x1 PUSH1 0x1 PUSH1 0xA0 SHL SUB AND GAS STATICCALL SWAP1 DUP2 ISZERO PUSH2 0x10AD JUMPI PUSH1 0x0 SWAP2 PUSH2 0x21FF JUMPI JUMPDEST POP ISZERO PUSH2 0x21AF JUMPI PUSH1 0xFF DUP6 AND SWAP7 PUSH2 0x20BE PUSH1 0x32 DUP10 LT ISZERO PUSH2 0x4457 JUMP JUMPDEST PUSH1 0x2 SLOAD PUSH1 0x60 SWAP3 PUSH1 0x20 DUP2 ADD PUSH1 0x0 JUMPDEST DUP4 DUP2 LT PUSH2 0x2111 JUMPI JUMPDEST POP POP POP POP PUSH2 0x1516 SWAP5 SWAP4 SWAP3 SWAP2 PUSH2 0x1D7D SWAP2 PUSH32 0x95B629C00CAAA10E5C594B3F10670964FDFEFF8DE039E6E3AE5ACC2AED2A3FDB SWAP10 PUSH1 0x40 MLOAD SWAP3 PUSH2 0x1D12 DUP5 PUSH2 0x3A2D JUMP JUMPDEST PUSH2 0x211A DUP2 PUSH2 0x3C0C JUMP JUMPDEST POP PUSH1 0x40 MLOAD PUSH2 0x2130 DUP2 PUSH2 0x1334 PUSH1 0x20 DUP3 ADD DUP1 SWAP6 PUSH2 0x430A JUMP JUMPDEST MLOAD SWAP1 KECCAK256 PUSH1 0x40 MLOAD PUSH1 0x20 DUP2 ADD SWAP1 PUSH2 0x214E PUSH1 0x20 DUP3 DUP9 MLOAD PUSH2 0x1363 DUP2 DUP8 DUP12 PUSH2 0x3842 JUMP JUMPDEST MLOAD SWAP1 KECCAK256 EQ PUSH2 0x215E JUMPI PUSH1 0x1 ADD PUSH2 0x20CB JUMP JUMPDEST PUSH2 0x1516 SWAP9 SWAP8 SWAP7 SWAP6 POP PUSH32 0x95B629C00CAAA10E5C594B3F10670964FDFEFF8DE039E6E3AE5ACC2AED2A3FDB SWAP12 SWAP4 POP PUSH2 0x1D7D SWAP5 SWAP3 POP PUSH2 0x1C4 SWAP2 POP PUSH2 0x32B PUSH2 0x21A1 SWAP2 PUSH2 0x3C0C JUMP JUMPDEST SWAP4 SWAP5 SWAP6 SWAP7 DUP3 SWAP11 DUP3 SWAP5 POP PUSH2 0x20D3 JUMP JUMPDEST PUSH1 0x40 MLOAD PUSH3 0x461BCD PUSH1 0xE5 SHL DUP2 MSTORE PUSH1 0x20 PUSH1 0x4 DUP3 ADD MSTORE PUSH1 0x22 PUSH1 0x24 DUP3 ADD MSTORE PUSH32 0x416363657373207265737472696374656420746F2052657461696C657220726F PUSH1 0x44 DUP3 ADD MSTORE PUSH2 0x6C65 PUSH1 0xF0 SHL PUSH1 0x64 DUP3 ADD MSTORE PUSH1 0x84 SWAP1 REVERT JUMPDEST PUSH2 0x2218 SWAP2 POP PUSH1 0x20 RETURNDATASIZE PUSH1 0x20 GT PUSH2 0x10A6 JUMPI PUSH2 0x1098 DUP2 DUP4 PUSH2 0x3A64 JUMP JUMPDEST DUP9 PUSH2 0x20A6 JUMP JUMPDEST CALLVALUE PUSH2 0x1E3 JUMPI PUSH1 0x20 CALLDATASIZE PUSH1 0x3 NOT ADD SLT PUSH2 0x1E3 JUMPI PUSH1 0x4 CALLDATALOAD PUSH1 0x1 PUSH1 0x1 PUSH1 0x40 SHL SUB DUP2 GT PUSH2 0x1E3 JUMPI PUSH2 0x1C4 PUSH2 0x1CB PUSH2 0x225C PUSH1 0x20 PUSH2 0x19B PUSH2 0x1DF SWAP6 CALLDATASIZE SWAP1 PUSH1 0x4 ADD PUSH2 0x3B0B JUMP JUMPDEST DUP2 ADD PUSH1 0x9 DUP2 MSTORE SUB ADD SWAP1 KECCAK256 PUSH1 0x40 MLOAD SWAP3 DUP4 DUP1 SWAP3 PUSH2 0x398E JUMP JUMPDEST CALLVALUE PUSH2 0x1E3 JUMPI PUSH1 0x20 CALLDATASIZE PUSH1 0x3 NOT ADD SLT PUSH2 0x1E3 JUMPI PUSH1 0x4 CALLDATALOAD PUSH1 0x1 PUSH1 0x1 PUSH1 0x40 SHL SUB DUP2 GT PUSH2 0x1E3 JUMPI PUSH2 0x1C4 PUSH2 0x1CB PUSH2 0x22B0 PUSH1 0x20 PUSH2 0x19B PUSH2 0x1DF SWAP6 CALLDATASIZE SWAP1 PUSH1 0x4 ADD PUSH2 0x3B0B JUMP JUMPDEST DUP2 ADD PUSH1 0x6 DUP2 MSTORE SUB ADD SWAP1 KECCAK256 PUSH1 0x40 MLOAD SWAP3 DUP4 DUP1 SWAP3 PUSH2 0x398E JUMP JUMPDEST CALLVALUE PUSH2 0x1E3 JUMPI PUSH1 0x20 CALLDATASIZE PUSH1 0x3 NOT ADD SLT PUSH2 0x1E3 JUMPI PUSH1 0x4 CALLDATALOAD PUSH1 0x1 PUSH1 0x1 PUSH1 0x40 SHL SUB DUP2 GT PUSH2 0x1E3 JUMPI PUSH1 0x20 PUSH2 0x19B PUSH2 0x22FB SWAP3 CALLDATASIZE SWAP1 PUSH1 0x4 ADD PUSH2 0x3B0B JUMP JUMPDEST DUP2 ADD PUSH1 0xD DUP2 MSTORE SUB ADD SWAP1 KECCAK256 PUSH1 0x40 MLOAD PUSH2 0x2316 DUP2 PUSH2 0x1C4 DUP2 DUP6 PUSH2 0x398E JUMP JUMPDEST PUSH2 0x1DF PUSH1 0x4 PUSH1 0x40 MLOAD SWAP4 PUSH2 0x2337 DUP6 PUSH2 0x2330 DUP2 PUSH1 0x1 DUP6 ADD PUSH2 0x398E JUMP JUMPDEST SUB DUP7 PUSH2 0x3A64 JUMP JUMPDEST PUSH1 0x40 MLOAD PUSH2 0x234B DUP2 PUSH2 0x1C4 DUP2 PUSH1 0x2 DUP7 ADD PUSH2 0x398E JUMP JUMPDEST PUSH2 0x236E PUSH1 0xFF PUSH1 0x3 DUP5 ADD SLOAD AND SWAP3 PUSH2 0x2367 PUSH1 0x40 MLOAD DUP1 SWAP7 DUP2 SWAP4 ADD PUSH2 0x398E JUMP JUMPDEST SUB DUP5 PUSH2 0x3A64 JUMP JUMPDEST PUSH1 0x40 MLOAD SWAP6 DUP7 SWAP6 DUP7 PUSH2 0x3C60 JUMP JUMPDEST CALLVALUE PUSH2 0x1E3 JUMPI PUSH1 0x0 CALLDATASIZE PUSH1 0x3 NOT ADD SLT PUSH2 0x1E3 JUMPI PUSH1 0x1 SLOAD PUSH1 0x40 MLOAD PUSH1 0x1 PUSH1 0x1 PUSH1 0xA0 SHL SUB SWAP1 SWAP2 AND DUP2 MSTORE PUSH1 0x20 SWAP1 RETURN JUMPDEST CALLVALUE PUSH2 0x1E3 JUMPI PUSH1 0x20 CALLDATASIZE PUSH1 0x3 NOT ADD SLT PUSH2 0x1E3 JUMPI PUSH1 0x4 CALLDATALOAD PUSH1 0x1 PUSH1 0x1 PUSH1 0x40 SHL SUB DUP2 GT PUSH2 0x1E3 JUMPI PUSH2 0x23D3 SWAP1 CALLDATASIZE SWAP1 PUSH1 0x4 ADD PUSH2 0x3B0B JUMP JUMPDEST PUSH1 0x0 DUP1 SLOAD PUSH1 0x40 MLOAD PUSH4 0x95A8C58D PUSH1 0xE0 SHL DUP2 MSTORE CALLER PUSH1 0x4 DUP3 ADD MSTORE PUSH1 0x24 DUP2 ADD SWAP3 SWAP1 SWAP3 MSTORE PUSH1 0x20 SWAP1 DUP3 SWAP1 PUSH1 0x44 SWAP1 DUP3 SWAP1 PUSH1 0x1 PUSH1 0x1 PUSH1 0xA0 SHL SUB AND GAS STATICCALL DUP1 ISZERO PUSH2 0x10AD JUMPI PUSH2 0x241E SWAP2 PUSH1 0x0 SWAP2 PUSH2 0x1BB8 JUMPI POP PUSH2 0x440C JUMP JUMPDEST PUSH1 0x3 SLOAD PUSH1 0x0 SWAP2 PUSH1 0x20 DUP2 ADD SWAP1 DUP4 JUMPDEST DUP4 DUP2 LT PUSH2 0x24E0 JUMPI POP POP POP PUSH2 0x243E DUP3 PUSH2 0x3D9E JUMP JUMPDEST SWAP1 PUSH2 0x2451 PUSH2 0x244B DUP5 PUSH2 0x3D9E JUMP JUMPDEST SWAP4 PUSH2 0x3DE8 JUMP JUMPDEST SWAP1 PUSH1 0x0 DUP1 JUMPDEST DUP3 DUP3 LT PUSH2 0x2470 JUMPI POP POP POP PUSH2 0x1DF SWAP1 PUSH1 0x40 MLOAD SWAP4 DUP5 SWAP4 DUP5 PUSH2 0x391A JUMP JUMPDEST PUSH2 0x24D8 PUSH1 0x1 SWAP2 DUP3 PUSH2 0x2483 PUSH2 0x35C DUP7 PUSH2 0x3C41 JUMP JUMPDEST PUSH2 0x248D DUP3 DUP10 PUSH2 0x3F0F JUMP JUMPDEST MSTORE PUSH2 0x2498 DUP2 DUP9 PUSH2 0x3F0F JUMP JUMPDEST POP PUSH1 0x2 PUSH2 0x24A7 PUSH2 0x35C DUP7 PUSH2 0x3C41 JUMP JUMPDEST PUSH2 0x24B1 DUP3 DUP11 PUSH2 0x3F0F JUMP JUMPDEST MSTORE PUSH2 0x24BC DUP2 DUP10 PUSH2 0x3F0F JUMP JUMPDEST POP PUSH1 0xFF PUSH1 0x3 PUSH2 0x24CA DUP7 PUSH2 0x3C41 JUMP JUMPDEST POP ADD SLOAD AND PUSH2 0x431 DUP3 DUP9 PUSH2 0x3F0F JUMP JUMPDEST SWAP2 ADD SWAP1 PUSH2 0x2456 JUMP JUMPDEST PUSH1 0x4 PUSH2 0x1334 PUSH2 0x24F1 PUSH2 0x1420 DUP5 PUSH2 0x3C41 JUMP JUMPDEST MLOAD SWAP1 KECCAK256 PUSH1 0x40 MLOAD PUSH1 0x20 DUP2 ADD SWAP1 PUSH2 0x250F PUSH1 0x20 DUP3 DUP8 MLOAD PUSH2 0x1363 DUP2 DUP8 DUP13 PUSH2 0x3842 JUMP JUMPDEST MLOAD SWAP1 KECCAK256 EQ PUSH2 0x2520 JUMPI JUMPDEST PUSH1 0x1 ADD PUSH2 0x242B JUMP JUMPDEST SWAP4 PUSH2 0x252C PUSH1 0x1 SWAP2 PUSH2 0x4378 JUMP JUMPDEST SWAP5 SWAP1 POP PUSH2 0x2518 JUMP JUMPDEST CALLVALUE PUSH2 0x1E3 JUMPI PUSH1 0x20 CALLDATASIZE PUSH1 0x3 NOT ADD SLT PUSH2 0x1E3 JUMPI PUSH1 0x4 CALLDATALOAD PUSH1 0x1 PUSH1 0x1 PUSH1 0x40 SHL SUB DUP2 GT PUSH2 0x1E3 JUMPI PUSH1 0x20 PUSH2 0x19B PUSH2 0x2569 SWAP3 CALLDATASIZE SWAP1 PUSH1 0x4 ADD PUSH2 0x3B0B JUMP JUMPDEST DUP2 ADD PUSH1 0xE DUP2 MSTORE SUB ADD SWAP1 KECCAK256 PUSH1 0x40 MLOAD PUSH2 0x2584 DUP2 PUSH2 0x1C4 DUP2 DUP6 PUSH2 0x398E JUMP JUMPDEST PUSH2 0x1DF PUSH1 0x40 MLOAD SWAP2 PUSH2 0x259C DUP4 PUSH2 0x2367 DUP2 PUSH1 0x1 DUP9 ADD PUSH2 0x398E JUMP JUMPDEST PUSH1 0x40 MLOAD SWAP4 PUSH2 0x25B1 DUP6 PUSH2 0x2330 DUP2 PUSH1 0x2 DUP6 ADD PUSH2 0x398E JUMP JUMPDEST PUSH1 0xFF PUSH1 0x3 DUP3 ADD SLOAD AND SWAP2 PUSH1 0x40 MLOAD PUSH2 0x25CE DUP2 PUSH2 0x1C4 DUP2 PUSH1 0x4 DUP8 ADD PUSH2 0x398E JUMP JUMPDEST PUSH1 0x6 PUSH1 0x5 DUP5 ADD SLOAD SWAP4 ADD SLOAD SWAP4 PUSH1 0x40 MLOAD SWAP8 DUP9 SWAP8 PUSH1 0xFF DUP7 PUSH1 0xA0 SHR AND SWAP6 PUSH1 0x1 DUP1 PUSH1 0xA0 SHL SUB AND SWAP5 DUP10 PUSH2 0x3A8F JUMP JUMPDEST CALLVALUE PUSH2 0x1E3 JUMPI PUSH1 0x20 CALLDATASIZE PUSH1 0x3 NOT ADD SLT PUSH2 0x1E3 JUMPI PUSH1 0x4 CALLDATALOAD PUSH1 0x3 SLOAD DUP2 LT ISZERO PUSH2 0x1E3 JUMPI PUSH2 0x261D SWAP1 PUSH2 0x3C41 JUMP JUMPDEST POP PUSH1 0x40 MLOAD PUSH2 0x2316 DUP2 PUSH2 0x1C4 DUP2 DUP6 PUSH2 0x398E JUMP JUMPDEST CALLVALUE PUSH2 0x1E3 JUMPI PUSH1 0xA0 CALLDATASIZE PUSH1 0x3 NOT ADD SLT PUSH2 0x1E3 JUMPI PUSH1 0x4 CALLDATALOAD PUSH1 0x1 PUSH1 0x1 PUSH1 0x40 SHL SUB DUP2 GT PUSH2 0x1E3 JUMPI PUSH2 0x265F SWAP1 CALLDATASIZE SWAP1 PUSH1 0x4 ADD PUSH2 0x3B0B JUMP JUMPDEST PUSH1 0x24 CALLDATALOAD SWAP1 PUSH1 0x1 PUSH1 0x1 PUSH1 0xA0 SHL SUB DUP3 AND DUP3 SUB PUSH2 0x1E3 JUMPI PUSH1 0x44 CALLDATALOAD PUSH1 0x1 PUSH1 0x1 PUSH1 0x40 SHL SUB DUP2 GT PUSH2 0x1E3 JUMPI PUSH2 0x2692 SWAP1 CALLDATASIZE SWAP1 PUSH1 0x4 ADD PUSH2 0x3B0B JUMP JUMPDEST SWAP1 PUSH1 0x64 CALLDATALOAD PUSH1 0x1 PUSH1 0x1 PUSH1 0x40 SHL SUB DUP2 GT PUSH2 0x1E3 JUMPI PUSH2 0x26B2 SWAP1 CALLDATASIZE SWAP1 PUSH1 0x4 ADD PUSH2 0x3B0B JUMP JUMPDEST SWAP1 PUSH1 0x84 CALLDATALOAD PUSH1 0x1 PUSH1 0x1 PUSH1 0x40 SHL SUB DUP2 GT PUSH2 0x1E3 JUMPI PUSH2 0x26D2 SWAP1 CALLDATASIZE SWAP1 PUSH1 0x4 ADD PUSH2 0x3B0B JUMP JUMPDEST SWAP2 PUSH1 0x40 MLOAD SWAP4 DUP3 MLOAD SWAP5 PUSH1 0x20 DUP2 DUP2 DUP7 ADD SWAP8 PUSH2 0x26EC DUP2 DUP4 DUP12 PUSH2 0x3842 JUMP JUMPDEST DUP2 ADD PUSH1 0xC DUP2 MSTORE SUB ADD SWAP1 KECCAK256 SWAP6 PUSH1 0x6 DUP8 ADD DUP1 SLOAD PUSH1 0x1 PUSH1 0xFF DUP3 PUSH1 0x8 SHR AND PUSH2 0x270F DUP2 PUSH2 0x3A85 JUMP JUMPDEST SUB PUSH2 0x2CCA JUMPI TIMESTAMP PUSH1 0x8 DUP11 ADD SSTORE PUSH2 0xFF00 NOT AND PUSH2 0x200 OR SWAP1 SSTORE DUP5 MLOAD PUSH1 0x9 DUP9 ADD SWAP1 PUSH1 0x1 PUSH1 0x1 PUSH1 0x40 SHL SUB DUP2 GT PUSH2 0xF03 JUMPI PUSH2 0x2744 DUP3 SLOAD PUSH2 0x3954 JUMP JUMPDEST PUSH1 0x1F DUP2 GT PUSH2 0x2C98 JUMPI JUMPDEST POP PUSH1 0x20 PUSH1 0x1F DUP3 GT PUSH1 0x1 EQ PUSH2 0x2C32 JUMPI SWAP1 DUP1 PUSH2 0x277C SWAP3 PUSH1 0x0 SWAP2 PUSH2 0x2C27 JUMPI POP DUP2 PUSH1 0x1 SHL SWAP2 PUSH1 0x0 NOT SWAP1 PUSH1 0x3 SHL SHR NOT AND OR SWAP1 JUMP JUMPDEST SWAP1 SSTORE JUMPDEST PUSH1 0x40 MLOAD PUSH1 0x20 DUP2 DUP7 MLOAD PUSH2 0x2792 DUP2 DUP4 DUP13 PUSH2 0x3842 JUMP JUMPDEST DUP2 ADD PUSH1 0x5 DUP2 MSTORE SUB ADD SWAP1 KECCAK256 SWAP1 PUSH1 0x1 DUP1 PUSH1 0xA0 SHL SUB AND PUSH12 0xFFFFFFFFFFFFFFFFFFFFFFFF PUSH1 0xA0 SHL DUP3 SLOAD AND OR SWAP1 SSTORE PUSH1 0x40 MLOAD PUSH1 0x20 DUP2 DUP6 MLOAD PUSH2 0x27CE DUP2 DUP4 DUP12 PUSH2 0x3842 JUMP JUMPDEST DUP2 ADD PUSH1 0x6 DUP2 MSTORE SUB ADD SWAP1 KECCAK256 SWAP1 DUP1 MLOAD SWAP1 PUSH1 0x1 PUSH1 0x1 PUSH1 0x40 SHL SUB DUP3 GT PUSH2 0xF03 JUMPI PUSH2 0x27F4 DUP4 SLOAD PUSH2 0x3954 JUMP JUMPDEST PUSH1 0x1F DUP2 GT PUSH2 0x2BF5 JUMPI JUMPDEST POP PUSH1 0x20 SWAP1 PUSH1 0x1F DUP4 GT PUSH1 0x1 EQ PUSH2 0x2B8E JUMPI PUSH2 0x282E SWAP3 SWAP2 PUSH1 0x0 SWAP2 DUP4 PUSH2 0x2B83 JUMPI POP POP DUP2 PUSH1 0x1 SHL SWAP2 PUSH1 0x0 NOT SWAP1 PUSH1 0x3 SHL SHR NOT AND OR SWAP1 JUMP JUMPDEST SWAP1 SSTORE JUMPDEST PUSH1 0x40 MLOAD PUSH1 0x20 DUP2 DUP5 MLOAD PUSH2 0x2844 DUP2 DUP4 DUP11 PUSH2 0x3842 JUMP JUMPDEST DUP2 ADD PUSH1 0x7 DUP2 MSTORE SUB ADD SWAP1 KECCAK256 SWAP1 DUP1 MLOAD SWAP1 PUSH1 0x1 PUSH1 0x1 PUSH1 0x40 SHL SUB DUP3 GT PUSH2 0xF03 JUMPI PUSH2 0x286A DUP4 SLOAD PUSH2 0x3954 JUMP JUMPDEST PUSH1 0x1F DUP2 GT PUSH2 0x2B51 JUMPI JUMPDEST POP PUSH1 0x20 SWAP1 PUSH1 0x1F DUP4 GT PUSH1 0x1 EQ PUSH2 0x2AEA JUMPI PUSH2 0x28A4 SWAP3 SWAP2 PUSH1 0x0 SWAP2 DUP4 PUSH2 0x2ADF JUMPI POP POP DUP2 PUSH1 0x1 SHL SWAP2 PUSH1 0x0 NOT SWAP1 PUSH1 0x3 SHL SHR NOT AND OR SWAP1 JUMP JUMPDEST SWAP1 SSTORE JUMPDEST PUSH1 0x0 JUMPDEST PUSH1 0x2 SLOAD DUP2 LT ISZERO PUSH2 0x2AAE JUMPI PUSH2 0x28BD DUP2 PUSH2 0x3C0C JUMP JUMPDEST POP PUSH1 0x40 MLOAD PUSH2 0x28D3 DUP2 PUSH2 0x1334 PUSH1 0x20 DUP3 ADD DUP1 SWAP6 PUSH2 0x430A JUMP JUMPDEST MLOAD SWAP1 KECCAK256 PUSH1 0x40 MLOAD PUSH1 0x20 DUP2 ADD SWAP1 PUSH2 0x28F1 PUSH1 0x20 DUP3 DUP8 MLOAD PUSH2 0x1363 DUP2 DUP8 DUP14 PUSH2 0x3842 JUMP JUMPDEST MLOAD SWAP1 KECCAK256 EQ PUSH2 0x2901 JUMPI PUSH1 0x1 ADD PUSH2 0x28AA JUMP JUMPDEST PUSH1 0x9 SWAP3 SWAP4 POP PUSH2 0x293A SWAP2 POP PUSH2 0x2914 DUP2 PUSH2 0x3C0C JUMP JUMPDEST POP PUSH1 0x8 TIMESTAMP SWAP2 ADD SSTORE PUSH1 0x6 PUSH2 0x2926 DUP3 PUSH2 0x3C0C JUMP JUMPDEST POP ADD DUP1 SLOAD PUSH2 0xFF00 NOT AND PUSH2 0x200 OR SWAP1 SSTORE PUSH2 0x3C0C JUMP JUMPDEST POP ADD SWAP2 DUP2 MLOAD SWAP3 PUSH1 0x1 PUSH1 0x1 PUSH1 0x40 SHL SUB DUP5 GT PUSH2 0xF03 JUMPI PUSH2 0x2958 DUP2 SLOAD PUSH2 0x3954 JUMP JUMPDEST PUSH1 0x1F DUP2 GT PUSH2 0x2A7C JUMPI JUMPDEST POP PUSH1 0x20 SWAP4 PUSH1 0x1F DUP2 GT PUSH1 0x1 EQ PUSH2 0x29EE JUMPI SWAP2 PUSH2 0x1516 SWAP2 PUSH2 0x29BB DUP5 PUSH2 0x29D4 SWAP7 SWAP6 PUSH32 0x489F165B733603CB0A992D8CAFD6C42A0C13D169039003F751758B9F0019F26C SWAP9 PUSH1 0x0 SWAP2 PUSH2 0x29E3 JUMPI POP DUP2 PUSH1 0x1 SHL SWAP2 PUSH1 0x0 NOT SWAP1 PUSH1 0x3 SHL SHR NOT AND OR SWAP1 JUMP JUMPDEST SWAP1 SSTORE JUMPDEST PUSH1 0x2 PUSH1 0x40 MLOAD SWAP5 DUP6 SWAP5 PUSH1 0x40 DUP7 MSTORE PUSH1 0x40 DUP7 ADD SWAP1 PUSH2 0x3865 JUMP JUMPDEST SWAP2 DUP5 DUP4 SUB PUSH1 0x20 DUP7 ADD MSTORE ADD PUSH2 0x398E JUMP JUMPDEST SWAP1 POP DUP7 ADD MLOAD DUP10 PUSH2 0x771 JUMP JUMPDEST PUSH1 0x1F NOT DUP2 AND SWAP5 DUP3 PUSH1 0x0 MSTORE DUP1 PUSH1 0x0 KECCAK256 SWAP6 PUSH1 0x0 JUMPDEST DUP2 DUP2 LT PUSH2 0x2A64 JUMPI POP DUP3 PUSH32 0x489F165B733603CB0A992D8CAFD6C42A0C13D169039003F751758B9F0019F26C SWAP8 PUSH2 0x1516 SWAP6 SWAP4 PUSH2 0x29D4 SWAP9 SWAP8 SWAP6 PUSH1 0x1 SWAP5 LT PUSH2 0x2A4B JUMPI JUMPDEST POP POP DUP2 SHL ADD SWAP1 SSTORE PUSH2 0x29BE JUMP JUMPDEST DUP8 ADD MLOAD PUSH1 0x0 NOT PUSH1 0xF8 DUP5 PUSH1 0x3 SHL AND SHR NOT AND SWAP1 SSTORE DUP9 DUP1 PUSH2 0x2A3F JUMP JUMPDEST DUP7 DUP4 ADD MLOAD DUP9 SSTORE PUSH1 0x1 SWAP1 SWAP8 ADD SWAP7 PUSH1 0x20 SWAP3 DUP4 ADD SWAP3 ADD PUSH2 0x2A00 JUMP JUMPDEST PUSH2 0x2AA8 SWAP1 DUP3 PUSH1 0x0 MSTORE PUSH1 0x20 PUSH1 0x0 KECCAK256 PUSH1 0x1F DUP8 ADD PUSH1 0x5 SHR DUP2 ADD SWAP2 PUSH1 0x20 DUP9 LT PUSH2 0xFBB JUMPI PUSH1 0x1F ADD PUSH1 0x5 SHR ADD SWAP1 PUSH2 0x43F5 JUMP JUMPDEST DUP5 PUSH2 0x2961 JUMP JUMPDEST POP POP PUSH2 0x29D4 SWAP2 POP PUSH2 0x1516 PUSH32 0x489F165B733603CB0A992D8CAFD6C42A0C13D169039003F751758B9F0019F26C SWAP4 PUSH2 0x29BE JUMP JUMPDEST ADD MLOAD SWAP1 POP DUP9 DUP1 PUSH2 0x1566 JUMP JUMPDEST SWAP1 PUSH1 0x1F NOT DUP4 AND SWAP2 DUP5 PUSH1 0x0 MSTORE DUP2 PUSH1 0x0 KECCAK256 SWAP3 PUSH1 0x0 JUMPDEST DUP2 DUP2 LT PUSH2 0x2B39 JUMPI POP SWAP1 DUP5 PUSH1 0x1 SWAP6 SWAP5 SWAP4 SWAP3 LT PUSH2 0x2B20 JUMPI JUMPDEST POP POP POP DUP2 SHL ADD SWAP1 SSTORE PUSH2 0x28A7 JUMP JUMPDEST ADD MLOAD PUSH1 0x0 NOT PUSH1 0xF8 DUP5 PUSH1 0x3 SHL AND SHR NOT AND SWAP1 SSTORE DUP8 DUP1 DUP1 PUSH2 0x2B13 JUMP JUMPDEST SWAP3 SWAP4 PUSH1 0x20 PUSH1 0x1 DUP2 SWAP3 DUP8 DUP7 ADD MLOAD DUP2 SSTORE ADD SWAP6 ADD SWAP4 ADD PUSH2 0x2AFD JUMP JUMPDEST PUSH2 0x2B7D SWAP1 DUP5 PUSH1 0x0 MSTORE PUSH1 0x20 PUSH1 0x0 KECCAK256 PUSH1 0x1F DUP6 ADD PUSH1 0x5 SHR DUP2 ADD SWAP2 PUSH1 0x20 DUP7 LT PUSH2 0xFBB JUMPI PUSH1 0x1F ADD PUSH1 0x5 SHR ADD SWAP1 PUSH2 0x43F5 JUMP JUMPDEST DUP8 PUSH2 0x2873 JUMP JUMPDEST ADD MLOAD SWAP1 POP DUP10 DUP1 PUSH2 0x1566 JUMP JUMPDEST SWAP1 PUSH1 0x1F NOT DUP4 AND SWAP2 DUP5 PUSH1 0x0 MSTORE DUP2 PUSH1 0x0 KECCAK256 SWAP3 PUSH1 0x0 JUMPDEST DUP2 DUP2 LT PUSH2 0x2BDD JUMPI POP SWAP1 DUP5 PUSH1 0x1 SWAP6 SWAP5 SWAP4 SWAP3 LT PUSH2 0x2BC4 JUMPI JUMPDEST POP POP POP DUP2 SHL ADD SWAP1 SSTORE PUSH2 0x2831 JUMP JUMPDEST ADD MLOAD PUSH1 0x0 NOT PUSH1 0xF8 DUP5 PUSH1 0x3 SHL AND SHR NOT AND SWAP1 SSTORE DUP9 DUP1 DUP1 PUSH2 0x2BB7 JUMP JUMPDEST SWAP3 SWAP4 PUSH1 0x20 PUSH1 0x1 DUP2 SWAP3 DUP8 DUP7 ADD MLOAD DUP2 SSTORE ADD SWAP6 ADD SWAP4 ADD PUSH2 0x2BA1 JUMP JUMPDEST PUSH2 0x2C21 SWAP1 DUP5 PUSH1 0x0 MSTORE PUSH1 0x20 PUSH1 0x0 KECCAK256 PUSH1 0x1F DUP6 ADD PUSH1 0x5 SHR DUP2 ADD SWAP2 PUSH1 0x20 DUP7 LT PUSH2 0xFBB JUMPI PUSH1 0x1F ADD PUSH1 0x5 SHR ADD SWAP1 PUSH2 0x43F5 JUMP JUMPDEST DUP9 PUSH2 0x27FD JUMP JUMPDEST SWAP1 POP DUP9 ADD MLOAD DUP12 PUSH2 0x771 JUMP JUMPDEST PUSH1 0x1F NOT DUP3 AND SWAP1 DUP4 PUSH1 0x0 MSTORE DUP1 PUSH1 0x0 KECCAK256 SWAP2 PUSH1 0x0 JUMPDEST DUP11 DUP3 DUP3 LT PUSH2 0x2C80 JUMPI POP POP SWAP1 DUP4 PUSH1 0x1 SWAP5 SWAP4 SWAP3 LT PUSH2 0x2C67 JUMPI JUMPDEST POP POP DUP2 SHL ADD SWAP1 SSTORE PUSH2 0x277F JUMP JUMPDEST DUP10 ADD MLOAD PUSH1 0x0 NOT PUSH1 0xF8 DUP5 PUSH1 0x3 SHL AND SHR NOT AND SWAP1 SSTORE DUP11 DUP1 PUSH2 0x2C5B JUMP JUMPDEST PUSH1 0x1 DUP5 SWAP6 PUSH1 0x20 SWAP4 SWAP6 DUP5 SWAP4 ADD MLOAD DUP2 SSTORE ADD SWAP5 ADD SWAP3 ADD PUSH2 0x2C44 JUMP JUMPDEST PUSH2 0x2CC4 SWAP1 DUP4 PUSH1 0x0 MSTORE PUSH1 0x20 PUSH1 0x0 KECCAK256 PUSH1 0x1F DUP5 ADD PUSH1 0x5 SHR DUP2 ADD SWAP2 PUSH1 0x20 DUP6 LT PUSH2 0xFBB JUMPI PUSH1 0x1F ADD PUSH1 0x5 SHR ADD SWAP1 PUSH2 0x43F5 JUMP JUMPDEST DUP10 PUSH2 0x274D JUMP JUMPDEST PUSH1 0x40 MLOAD PUSH3 0x461BCD PUSH1 0xE5 SHL DUP2 MSTORE PUSH1 0x20 PUSH1 0x4 DUP3 ADD MSTORE PUSH1 0x2D PUSH1 0x24 DUP3 ADD MSTORE PUSH32 0x4F62617420547261646973696F6E616C20737461747573206D75737420626520 PUSH1 0x44 DUP3 ADD MSTORE PUSH13 0x5265717565737465644E494521 PUSH1 0x98 SHL PUSH1 0x64 DUP3 ADD MSTORE PUSH1 0x84 SWAP1 REVERT JUMPDEST CALLVALUE PUSH2 0x1E3 JUMPI PUSH1 0x20 CALLDATASIZE PUSH1 0x3 NOT ADD SLT PUSH2 0x1E3 JUMPI PUSH1 0x4 CALLDATALOAD PUSH1 0x2 SLOAD DUP2 LT ISZERO PUSH2 0x1E3 JUMPI PUSH2 0x2D4C SWAP1 PUSH2 0x3C0C JUMP JUMPDEST POP PUSH1 0x40 MLOAD SWAP1 PUSH2 0x2D66 DUP3 PUSH2 0x2D5F DUP2 DUP5 PUSH2 0x398E JUMP JUMPDEST SUB DUP4 PUSH2 0x3A64 JUMP JUMPDEST PUSH2 0x1DF PUSH1 0x9 PUSH1 0x40 MLOAD SWAP3 PUSH2 0x2D87 DUP5 PUSH2 0x2D80 DUP2 PUSH1 0x1 DUP6 ADD PUSH2 0x398E JUMP JUMPDEST SUB DUP6 PUSH2 0x3A64 JUMP JUMPDEST PUSH1 0x40 MLOAD SWAP5 PUSH2 0x2DA3 DUP7 PUSH2 0x2D9C DUP2 PUSH1 0x2 DUP7 ADD PUSH2 0x398E JUMP JUMPDEST SUB DUP8 PUSH2 0x3A64 JUMP JUMPDEST PUSH1 0x40 MLOAD SWAP1 PUSH2 0x2DB8 DUP3 PUSH2 0x2D5F DUP2 PUSH1 0x4 DUP8 ADD PUSH2 0x398E JUMP JUMPDEST PUSH1 0x6 DUP4 ADD SLOAD SWAP1 PUSH1 0x7 DUP5 ADD SLOAD SWAP3 PUSH2 0x2DDD PUSH1 0x8 DUP7 ADD SLOAD SWAP6 PUSH2 0x2D9C PUSH1 0x40 MLOAD DUP1 SWAP10 DUP2 SWAP4 ADD PUSH2 0x398E JUMP JUMPDEST PUSH1 0x40 MLOAD SWAP9 DUP10 SWAP9 PUSH1 0xFF DUP1 DUP7 PUSH1 0x8 SHR AND SWAP6 AND SWAP4 DUP11 PUSH2 0x3B6E JUMP JUMPDEST CALLVALUE PUSH2 0x1E3 JUMPI PUSH1 0x20 CALLDATASIZE PUSH1 0x3 NOT ADD SLT PUSH2 0x1E3 JUMPI PUSH1 0x4 CALLDATALOAD PUSH1 0x1 PUSH1 0x1 PUSH1 0xA0 SHL SUB DUP2 AND SWAP1 DUP2 SWAP1 SUB PUSH2 0x1E3 JUMPI PUSH1 0x0 MSTORE PUSH1 0xB PUSH1 0x20 MSTORE PUSH1 0xFF PUSH1 0x40 PUSH1 0x0 KECCAK256 SLOAD AND PUSH1 0x40 MLOAD PUSH1 0x4 DUP3 LT ISZERO PUSH2 0x2E3E JUMPI PUSH1 0x20 SWAP2 DUP2 MSTORE RETURN JUMPDEST PUSH4 0x4E487B71 PUSH1 0xE0 SHL PUSH1 0x0 MSTORE PUSH1 0x21 PUSH1 0x4 MSTORE PUSH1 0x24 PUSH1 0x0 REVERT JUMPDEST CALLVALUE PUSH2 0x1E3 JUMPI PUSH1 0x20 CALLDATASIZE PUSH1 0x3 NOT ADD SLT PUSH2 0x1E3 JUMPI PUSH1 0x4 CALLDATALOAD PUSH1 0x1 PUSH1 0x1 PUSH1 0x40 SHL SUB DUP2 GT PUSH2 0x1E3 JUMPI PUSH2 0x2E86 PUSH1 0x20 SWAP2 CALLDATASIZE SWAP1 PUSH1 0x4 ADD PUSH2 0x3B0B JUMP JUMPDEST DUP2 PUSH2 0x2E9A PUSH1 0x40 MLOAD SWAP3 DUP4 DUP2 MLOAD SWAP4 DUP5 SWAP3 ADD PUSH2 0x3842 JUMP JUMPDEST PUSH1 0x8 SWAP1 DUP3 ADD SWAP1 DUP2 MSTORE DUP2 SWAP1 SUB DUP3 ADD SWAP1 KECCAK256 SLOAD PUSH1 0x40 MLOAD PUSH1 0x1 PUSH1 0x1 PUSH1 0xA0 SHL SUB SWAP1 SWAP2 AND DUP2 MSTORE RETURN JUMPDEST CALLVALUE PUSH2 0x1E3 JUMPI PUSH1 0x20 CALLDATASIZE PUSH1 0x3 NOT ADD SLT PUSH2 0x1E3 JUMPI PUSH1 0x4 CALLDATALOAD PUSH1 0x1 PUSH1 0x1 PUSH1 0x40 SHL SUB DUP2 GT PUSH2 0x1E3 JUMPI PUSH2 0x1C4 PUSH2 0x1CB PUSH2 0x2EFA PUSH1 0x20 PUSH2 0x19B PUSH2 0x1DF SWAP6 CALLDATASIZE SWAP1 PUSH1 0x4 ADD PUSH2 0x3B0B JUMP JUMPDEST DUP2 ADD PUSH1 0xA DUP2 MSTORE SUB ADD SWAP1 KECCAK256 PUSH1 0x40 MLOAD SWAP3 DUP4 DUP1 SWAP3 PUSH2 0x398E JUMP JUMPDEST CALLVALUE PUSH2 0x1E3 JUMPI PUSH1 0x20 CALLDATASIZE PUSH1 0x3 NOT ADD SLT PUSH2 0x1E3 JUMPI PUSH1 0x4 CALLDATALOAD PUSH1 0x1 PUSH1 0x1 PUSH1 0x40 SHL SUB DUP2 GT PUSH2 0x1E3 JUMPI PUSH1 0x20 PUSH2 0x19B PUSH2 0x2F45 SWAP3 CALLDATASIZE SWAP1 PUSH1 0x4 ADD PUSH2 0x3B0B JUMP JUMPDEST DUP2 ADD PUSH1 0xC DUP2 MSTORE SUB ADD SWAP1 KECCAK256 PUSH1 0x40 MLOAD SWAP1 PUSH2 0x2D66 DUP3 PUSH2 0x2D5F DUP2 DUP5 PUSH2 0x398E JUMP JUMPDEST CALLVALUE PUSH2 0x1E3 JUMPI PUSH1 0x20 CALLDATASIZE PUSH1 0x3 NOT ADD SLT PUSH2 0x1E3 JUMPI PUSH1 0x4 CALLDATALOAD PUSH1 0x1 PUSH1 0x1 PUSH1 0x40 SHL SUB DUP2 GT PUSH2 0x1E3 JUMPI PUSH2 0x2F94 PUSH2 0x140 SWAP2 CALLDATASIZE SWAP1 PUSH1 0x4 ADD PUSH2 0x3B0B JUMP JUMPDEST PUSH1 0x60 DUP3 PUSH1 0x40 MLOAD PUSH2 0x2FA3 DUP2 PUSH2 0x3A11 JUMP JUMPDEST DUP3 DUP2 MSTORE DUP3 PUSH1 0x20 DUP3 ADD MSTORE DUP3 PUSH1 0x40 DUP3 ADD MSTORE DUP3 DUP1 DUP3 ADD MSTORE DUP3 PUSH1 0x80 DUP3 ADD MSTORE DUP3 PUSH1 0xA0 DUP3 ADD MSTORE PUSH1 0x0 PUSH1 0xC0 DUP3 ADD MSTORE PUSH1 0x0 PUSH1 0xE0 DUP3 ADD MSTORE PUSH1 0x0 PUSH2 0x100 DUP3 ADD MSTORE PUSH1 0x0 PUSH2 0x120 DUP3 ADD MSTORE ADD MSTORE PUSH2 0x1DF PUSH2 0x3243 PUSH2 0x3379 PUSH1 0x40 MLOAD SWAP4 PUSH2 0x301B PUSH2 0x1E53 DUP3 MLOAD SWAP7 PUSH1 0x20 DUP2 DUP2 DUP7 ADD SWAP10 PUSH2 0x300B DUP2 DUP4 DUP14 PUSH2 0x3842 JUMP JUMPDEST DUP2 ADD PUSH1 0xC DUP2 MSTORE SUB ADD SWAP1 KECCAK256 SLOAD PUSH2 0x3954 JUMP JUMPDEST PUSH2 0x3215 PUSH2 0x3366 PUSH2 0x31BB PUSH2 0x3358 PUSH1 0x40 MLOAD PUSH1 0x20 DUP2 DUP1 PUSH2 0x303C DUP14 DUP11 MLOAD SWAP3 DUP4 SWAP2 PUSH2 0x3842 JUMP JUMPDEST DUP2 ADD PUSH1 0xC DUP2 MSTORE SUB ADD SWAP1 KECCAK256 SWAP9 PUSH1 0x9 PUSH2 0x312C PUSH1 0x40 MLOAD SWAP12 PUSH2 0x3059 DUP14 PUSH2 0x3A11 JUMP JUMPDEST PUSH1 0x40 MLOAD PUSH2 0x306A DUP2 PUSH2 0x1C4 DUP2 DUP6 PUSH2 0x398E JUMP JUMPDEST DUP14 MSTORE PUSH1 0x40 MLOAD PUSH1 0x20 DUP15 PUSH2 0x3083 DUP4 PUSH2 0x2367 DUP2 PUSH1 0x1 DUP9 ADD PUSH2 0x398E JUMP JUMPDEST ADD MSTORE DUP13 PUSH1 0x40 DUP1 MLOAD SWAP2 PUSH2 0x309C DUP4 PUSH2 0x2367 DUP2 PUSH1 0x2 DUP9 ADD PUSH2 0x398E JUMP JUMPDEST ADD MSTORE DUP13 PUSH1 0x60 PUSH2 0x30AD PUSH1 0x3 DUP5 ADD PUSH2 0x3F3B JUMP JUMPDEST SWAP2 ADD MSTORE PUSH1 0x40 MLOAD PUSH1 0x80 DUP15 PUSH2 0x30C7 DUP4 PUSH2 0x2367 DUP2 PUSH1 0x4 DUP9 ADD PUSH2 0x398E JUMP JUMPDEST ADD MSTORE DUP13 PUSH1 0xA0 PUSH2 0x30D8 PUSH1 0x5 DUP5 ADD PUSH2 0x3F3B JUMP JUMPDEST SWAP2 ADD MSTORE DUP13 PUSH1 0xE0 PUSH1 0xFF PUSH1 0x6 DUP5 ADD SLOAD PUSH2 0x30F4 DUP3 DUP3 AND PUSH1 0xC0 DUP7 ADD PUSH2 0x43E9 JUMP JUMPDEST PUSH1 0x8 SHR AND SWAP2 PUSH2 0x3102 DUP4 PUSH2 0x3A85 JUMP JUMPDEST ADD MSTORE DUP13 PUSH2 0x100 PUSH1 0x7 DUP4 ADD SLOAD SWAP2 ADD MSTORE DUP13 PUSH2 0x120 PUSH1 0x8 DUP4 ADD SLOAD SWAP2 ADD MSTORE PUSH2 0x1C4 PUSH1 0x40 MLOAD DUP1 SWAP5 DUP2 SWAP4 ADD PUSH2 0x398E JUMP JUMPDEST DUP12 DUP12 ADD MSTORE PUSH2 0x2330 PUSH2 0x324A PUSH2 0x322D PUSH1 0x20 PUSH1 0x40 MLOAD DUP11 MLOAD PUSH2 0x314B DUP2 DUP4 DUP10 PUSH2 0x3842 JUMP JUMPDEST DUP2 ADD SWAP1 PUSH1 0x8 DUP3 MSTORE DUP3 DUP2 PUSH1 0x1 DUP1 PUSH1 0xA0 SHL SUB SWAP4 SUB ADD SWAP1 KECCAK256 SLOAD AND SWAP5 PUSH2 0x318F DUP12 DUP4 PUSH1 0x40 MLOAD DUP1 SWAP3 MLOAD PUSH2 0x3179 DUP2 DUP4 DUP9 PUSH2 0x3842 JUMP JUMPDEST DUP2 ADD PUSH1 0x9 DUP2 MSTORE SUB ADD SWAP1 KECCAK256 PUSH1 0x40 MLOAD SWAP7 DUP8 DUP1 SWAP3 PUSH2 0x398E JUMP JUMPDEST PUSH2 0x31C2 DUP12 DUP4 PUSH1 0x40 MLOAD DUP1 SWAP3 MLOAD PUSH2 0x31A5 DUP2 DUP4 DUP9 PUSH2 0x3842 JUMP JUMPDEST DUP2 ADD PUSH1 0xA DUP2 MSTORE SUB ADD SWAP1 KECCAK256 PUSH1 0x40 MLOAD SWAP10 DUP11 DUP1 SWAP3 PUSH2 0x398E JUMP JUMPDEST SUB DUP10 PUSH2 0x3A64 JUMP JUMPDEST PUSH1 0x40 MLOAD DUP12 MLOAD PUSH2 0x31D2 DUP2 DUP4 DUP6 PUSH2 0x3842 JUMP JUMPDEST DUP2 ADD SWAP1 PUSH1 0x5 DUP3 MSTORE DUP4 DUP2 PUSH1 0x1 DUP1 PUSH1 0xA0 SHL SUB SWAP4 SUB ADD SWAP1 KECCAK256 SLOAD AND SWAP11 PUSH2 0x321C PUSH1 0x40 MLOAD DUP5 DUP2 DUP5 MLOAD PUSH2 0x31FF DUP2 DUP4 DUP10 PUSH2 0x3842 JUMP JUMPDEST DUP2 ADD PUSH1 0x6 DUP2 MSTORE SUB ADD SWAP1 KECCAK256 PUSH1 0x40 MLOAD SWAP13 DUP14 DUP1 SWAP3 PUSH2 0x398E JUMP JUMPDEST SUB DUP13 PUSH2 0x3A64 JUMP JUMPDEST PUSH1 0x40 MLOAD SWAP4 DUP5 SWAP3 DUP4 SWAP3 MLOAD SWAP3 DUP4 SWAP2 PUSH2 0x3842 JUMP JUMPDEST DUP2 ADD PUSH1 0x7 DUP2 MSTORE SUB ADD SWAP1 KECCAK256 PUSH1 0x40 MLOAD SWAP11 DUP12 DUP1 SWAP3 PUSH2 0x398E JUMP JUMPDEST SUB DUP11 PUSH2 0x3A64 JUMP JUMPDEST PUSH2 0x3345 PUSH1 0x40 MLOAD DUP1 SWAP14 DUP2 SWAP14 PUSH1 0xE0 DUP4 MSTORE PUSH2 0x32F0 PUSH2 0x32D9 PUSH2 0x32C2 PUSH2 0x32AD PUSH2 0x3296 PUSH2 0x327F DUP7 MLOAD PUSH2 0x160 PUSH1 0xE0 DUP12 ADD MSTORE PUSH2 0x240 DUP11 ADD SWAP1 PUSH2 0x3865 JUMP JUMPDEST PUSH1 0x20 DUP8 ADD MLOAD DUP10 DUP3 SUB PUSH1 0xDF NOT ADD PUSH2 0x100 DUP12 ADD MSTORE PUSH2 0x3865 JUMP JUMPDEST PUSH1 0x40 DUP7 ADD MLOAD DUP9 DUP3 SUB PUSH1 0xDF NOT ADD PUSH2 0x120 DUP11 ADD MSTORE PUSH2 0x3865 JUMP JUMPDEST PUSH1 0x60 DUP6 ADD MLOAD DUP8 DUP3 SUB PUSH1 0xDF NOT ADD DUP8 DUP10 ADD MSTORE PUSH2 0x388A JUMP JUMPDEST PUSH1 0x80 DUP5 ADD MLOAD DUP7 DUP3 SUB PUSH1 0xDF NOT ADD PUSH2 0x160 DUP9 ADD MSTORE PUSH2 0x3865 JUMP JUMPDEST PUSH1 0xA0 DUP4 ADD MLOAD DUP6 DUP3 SUB PUSH1 0xDF NOT ADD PUSH2 0x180 DUP8 ADD MSTORE PUSH2 0x388A JUMP JUMPDEST SWAP3 PUSH2 0x3304 PUSH1 0xC0 DUP4 ADD MLOAD PUSH2 0x1A0 DUP4 ADD SWAP1 PUSH2 0x3B61 JUMP JUMPDEST PUSH1 0xE0 DUP3 ADD MLOAD PUSH2 0x3312 DUP2 PUSH2 0x3A85 JUMP JUMPDEST PUSH2 0x1C0 DUP3 ADD MSTORE PUSH2 0x100 DUP3 ADD MLOAD PUSH2 0x1E0 DUP3 ADD MSTORE PUSH2 0x120 DUP3 ADD MLOAD PUSH2 0x200 SWAP1 SWAP2 ADD MSTORE ADD MLOAD DUP14 DUP3 SUB PUSH1 0xDF NOT ADD PUSH2 0x220 DUP16 ADD MSTORE PUSH2 0x3865 JUMP JUMPDEST SWAP2 PUSH1 0x20 DUP13 ADD MSTORE DUP11 DUP3 SUB PUSH1 0x40 DUP13 ADD MSTORE PUSH2 0x3865 JUMP JUMPDEST SWAP1 DUP9 DUP3 SUB PUSH1 0x60 DUP11 ADD MSTORE PUSH2 0x3865 JUMP JUMPDEST SWAP2 PUSH1 0x80 DUP8 ADD MSTORE DUP6 DUP3 SUB PUSH1 0xA0 DUP8 ADD MSTORE PUSH2 0x3865 JUMP JUMPDEST SWAP1 DUP4 DUP3 SUB PUSH1 0xC0 DUP6 ADD MSTORE PUSH2 0x3865 JUMP JUMPDEST CALLVALUE PUSH2 0x1E3 JUMPI PUSH1 0x20 CALLDATASIZE PUSH1 0x3 NOT ADD SLT PUSH2 0x1E3 JUMPI PUSH1 0x4 CALLDATALOAD PUSH1 0x1 PUSH1 0x1 PUSH1 0x40 SHL SUB DUP2 GT PUSH2 0x1E3 JUMPI PUSH2 0x33B7 SWAP1 CALLDATASIZE SWAP1 PUSH1 0x4 ADD PUSH2 0x3B0B JUMP JUMPDEST PUSH1 0x2 SLOAD PUSH1 0x20 DUP3 ADD SWAP2 PUSH1 0x0 DUP1 JUMPDEST DUP4 DUP2 LT PUSH2 0x3545 JUMPI POP PUSH2 0x33D4 DUP2 PUSH2 0x3D9E JUMP JUMPDEST SWAP3 PUSH2 0x33DE DUP3 PUSH2 0x3D9E JUMP JUMPDEST SWAP1 PUSH2 0x33EB PUSH2 0x244B DUP5 PUSH2 0x3DE8 JUMP JUMPDEST SWAP4 PUSH1 0x0 SWAP7 DUP8 JUMPDEST DUP4 DUP2 LT PUSH2 0x3446 JUMPI PUSH2 0x341C DUP9 PUSH2 0x1DF DUP10 PUSH2 0x3438 DUP11 PUSH2 0x342A DUP12 PUSH1 0x40 MLOAD SWAP8 DUP9 SWAP8 PUSH1 0x80 DUP10 MSTORE PUSH1 0x80 DUP10 ADD SWAP1 PUSH2 0x388A JUMP JUMPDEST SWAP1 DUP8 DUP3 SUB PUSH1 0x20 DUP10 ADD MSTORE PUSH2 0x388A JUMP JUMPDEST SWAP1 DUP6 DUP3 SUB PUSH1 0x40 DUP8 ADD MSTORE PUSH2 0x38E3 JUMP JUMPDEST SWAP1 DUP4 DUP3 SUB PUSH1 0x60 DUP6 ADD MSTORE PUSH2 0x38E3 JUMP JUMPDEST PUSH2 0x3454 PUSH1 0x20 PUSH2 0x397 DUP4 PUSH2 0x3C0C JUMP JUMPDEST PUSH1 0x9 DUP2 MSTORE SUB ADD SWAP1 KECCAK256 PUSH1 0x40 MLOAD PUSH2 0x3471 DUP2 PUSH2 0x1334 PUSH1 0x20 DUP3 ADD DUP1 SWAP6 PUSH2 0x430A JUMP JUMPDEST MLOAD SWAP1 KECCAK256 PUSH1 0x40 MLOAD PUSH1 0x20 DUP2 ADD SWAP1 PUSH2 0x348F PUSH1 0x20 DUP3 DUP9 MLOAD PUSH2 0x1363 DUP2 DUP8 DUP12 PUSH2 0x3842 JUMP JUMPDEST MLOAD SWAP1 KECCAK256 EQ PUSH2 0x34A0 JUMPI JUMPDEST PUSH1 0x1 ADD PUSH2 0x33F1 JUMP JUMPDEST SWAP8 PUSH2 0x1C4 PUSH2 0x34B0 PUSH2 0x32B DUP12 PUSH2 0x3C0C JUMP JUMPDEST PUSH2 0x34BA DUP3 DUP11 PUSH2 0x3F0F JUMP JUMPDEST MSTORE PUSH2 0x34C5 DUP2 DUP10 PUSH2 0x3F0F JUMP JUMPDEST POP PUSH1 0x2 PUSH2 0x34D4 PUSH2 0x35C DUP12 PUSH2 0x3C0C JUMP JUMPDEST PUSH2 0x34DE DUP3 DUP8 PUSH2 0x3F0F JUMP JUMPDEST MSTORE PUSH2 0x34E9 DUP2 DUP7 PUSH2 0x3F0F JUMP JUMPDEST POP PUSH1 0xFF PUSH1 0x6 PUSH2 0x34F7 DUP12 PUSH2 0x3C0C JUMP JUMPDEST POP ADD SLOAD PUSH1 0x8 SHR AND PUSH2 0x3507 DUP2 PUSH2 0x3A85 JUMP JUMPDEST PUSH2 0x3511 DUP3 DUP9 PUSH2 0x3F0F JUMP JUMPDEST MSTORE PUSH1 0xFF PUSH1 0x6 PUSH2 0x351F DUP12 PUSH2 0x3C0C JUMP JUMPDEST POP ADD SLOAD AND PUSH1 0x2 DUP2 LT ISZERO PUSH2 0x2E3E JUMPI DUP2 PUSH2 0x353D SWAP2 PUSH2 0x431 PUSH1 0x1 SWAP5 DUP12 PUSH2 0x3F0F JUMP JUMPDEST SWAP9 SWAP1 POP PUSH2 0x3498 JUMP JUMPDEST PUSH2 0x3553 PUSH1 0x20 PUSH2 0x397 DUP4 PUSH2 0x3C0C JUMP JUMPDEST PUSH1 0x9 DUP2 MSTORE SUB ADD SWAP1 KECCAK256 PUSH1 0x40 MLOAD PUSH2 0x3570 DUP2 PUSH2 0x1334 PUSH1 0x20 DUP3 ADD DUP1 SWAP6 PUSH2 0x430A JUMP JUMPDEST MLOAD SWAP1 KECCAK256 PUSH1 0x40 MLOAD PUSH1 0x20 DUP2 ADD SWAP1 PUSH2 0x3590 PUSH1 0x20 DUP3 DUP5 PUSH2 0x1363 DUP13 DUP12 MLOAD SWAP3 DUP4 SWAP2 PUSH2 0x3842 JUMP JUMPDEST MLOAD SWAP1 KECCAK256 EQ PUSH2 0x35A1 JUMPI JUMPDEST PUSH1 0x1 ADD PUSH2 0x33C3 JUMP JUMPDEST SWAP1 PUSH2 0x35AD PUSH1 0x1 SWAP2 PUSH2 0x4378 JUMP JUMPDEST SWAP2 SWAP1 POP PUSH2 0x3599 JUMP JUMPDEST CALLVALUE PUSH2 0x1E3 JUMPI PUSH1 0x20 CALLDATASIZE PUSH1 0x3 NOT ADD SLT PUSH2 0x1E3 JUMPI PUSH1 0x4 CALLDATALOAD PUSH1 0x1 PUSH1 0x1 PUSH1 0x40 SHL SUB DUP2 GT PUSH2 0x1E3 JUMPI PUSH2 0x35E7 PUSH1 0x20 SWAP2 CALLDATASIZE SWAP1 PUSH1 0x4 ADD PUSH2 0x3B0B JUMP JUMPDEST DUP2 PUSH2 0x35FB PUSH1 0x40 MLOAD SWAP3 DUP4 DUP2 MLOAD SWAP4 DUP5 SWAP3 ADD PUSH2 0x3842 JUMP JUMPDEST PUSH1 0x5 SWAP1 DUP3 ADD SWAP1 DUP2 MSTORE DUP2 SWAP1 SUB DUP3 ADD SWAP1 KECCAK256 SLOAD PUSH1 0x40 MLOAD PUSH1 0x1 PUSH1 0x1 PUSH1 0xA0 SHL SUB SWAP1 SWAP2 AND DUP2 MSTORE RETURN JUMPDEST CALLVALUE PUSH2 0x1E3 JUMPI PUSH1 0x0 CALLDATASIZE PUSH1 0x3 NOT ADD SLT PUSH2 0x1E3 JUMPI PUSH2 0x3636 PUSH2 0x3F9B JUMP JUMPDEST PUSH1 0x40 MLOAD DUP1 SWAP2 PUSH1 0x20 DUP3 ADD PUSH1 0x20 DUP4 MSTORE DUP2 MLOAD DUP1 SWAP2 MSTORE PUSH1 0x40 DUP4 ADD SWAP1 PUSH1 0x20 PUSH1 0x40 DUP3 PUSH1 0x5 SHL DUP7 ADD ADD SWAP4 ADD SWAP2 PUSH1 0x0 SWAP1 JUMPDEST DUP3 DUP3 LT PUSH2 0x366E JUMPI POP POP POP POP SUB SWAP1 RETURN JUMPDEST SWAP2 SWAP4 PUSH1 0x1 SWAP2 SWAP4 SWAP6 POP PUSH1 0x20 PUSH2 0x36F9 DUP2 SWAP3 PUSH1 0x3F NOT DUP11 DUP3 SUB ADD DUP7 MSTORE DUP9 MLOAD SWAP1 PUSH1 0xA0 PUSH2 0x36E8 PUSH2 0x36C9 PUSH2 0x36B7 PUSH2 0x36A7 DUP7 MLOAD PUSH1 0xC0 DUP8 MSTORE PUSH1 0xC0 DUP8 ADD SWAP1 PUSH2 0x3865 JUMP JUMPDEST DUP9 DUP8 ADD MLOAD DUP7 DUP3 SUB DUP11 DUP9 ADD MSTORE PUSH2 0x3865 JUMP JUMPDEST PUSH1 0x40 DUP7 ADD MLOAD DUP6 DUP3 SUB PUSH1 0x40 DUP8 ADD MSTORE PUSH2 0x3865 JUMP JUMPDEST PUSH1 0xFF PUSH1 0x60 DUP7 ADD MLOAD AND PUSH1 0x60 DUP6 ADD MSTORE PUSH1 0x80 DUP6 ADD MLOAD DUP5 DUP3 SUB PUSH1 0x80 DUP7 ADD MSTORE PUSH2 0x3865 JUMP JUMPDEST SWAP3 ADD MLOAD SWAP1 PUSH1 0xA0 DUP2 DUP5 SUB SWAP2 ADD MSTORE PUSH2 0x388A JUMP JUMPDEST SWAP7 ADD SWAP3 ADD SWAP3 ADD DUP6 SWAP5 SWAP4 SWAP2 SWAP3 PUSH2 0x365F JUMP JUMPDEST CALLVALUE PUSH2 0x1E3 JUMPI PUSH1 0x20 CALLDATASIZE PUSH1 0x3 NOT ADD SLT PUSH2 0x1E3 JUMPI PUSH1 0x4 CALLDATALOAD PUSH1 0x4 SLOAD DUP2 LT ISZERO PUSH2 0x1E3 JUMPI PUSH1 0x0 PUSH1 0x4 SLOAD DUP3 LT ISZERO PUSH2 0x3751 JUMPI DUP1 PUSH1 0x4 PUSH1 0x20 SWAP3 MSTORE KECCAK256 SWAP1 PUSH1 0x3 SHL ADD PUSH1 0x40 MLOAD PUSH2 0x2584 DUP2 PUSH2 0x1C4 DUP2 DUP6 PUSH2 0x398E JUMP JUMPDEST PUSH4 0x4E487B71 PUSH1 0xE0 SHL DUP2 MSTORE PUSH1 0x32 PUSH1 0x4 MSTORE PUSH1 0x24 SWAP1 REVERT JUMPDEST CALLVALUE PUSH2 0x1E3 JUMPI PUSH1 0x0 CALLDATASIZE PUSH1 0x3 NOT ADD SLT PUSH2 0x1E3 JUMPI PUSH1 0x3 SLOAD PUSH2 0x3782 DUP2 PUSH2 0x3D9E JUMP JUMPDEST PUSH2 0x378B DUP3 PUSH2 0x3D9E JUMP JUMPDEST SWAP2 PUSH2 0x3795 DUP2 PUSH2 0x3DE8 JUMP JUMPDEST SWAP1 PUSH1 0x0 JUMPDEST DUP2 DUP2 LT PUSH2 0x37B2 JUMPI POP POP PUSH2 0x1DF SWAP1 PUSH1 0x40 MLOAD SWAP4 DUP5 SWAP4 DUP5 PUSH2 0x391A JUMP JUMPDEST DUP1 PUSH1 0x1 PUSH2 0x37C2 PUSH2 0x35C DUP3 SWAP5 PUSH2 0x3C41 JUMP JUMPDEST PUSH2 0x37CC DUP3 DUP8 PUSH2 0x3F0F JUMP JUMPDEST MSTORE PUSH2 0x37D7 DUP2 DUP7 PUSH2 0x3F0F JUMP JUMPDEST POP PUSH1 0x2 PUSH2 0x37E6 PUSH2 0x35C DUP4 PUSH2 0x3C41 JUMP JUMPDEST PUSH2 0x37F0 DUP3 DUP9 PUSH2 0x3F0F JUMP JUMPDEST MSTORE PUSH2 0x37FB DUP2 DUP8 PUSH2 0x3F0F JUMP JUMPDEST POP PUSH1 0xFF PUSH1 0x3 PUSH2 0x3809 DUP4 PUSH2 0x3C41 JUMP JUMPDEST POP ADD SLOAD AND PUSH2 0x3817 DUP3 DUP7 PUSH2 0x3F0F JUMP JUMPDEST MSTORE ADD PUSH2 0x3799 JUMP JUMPDEST CALLVALUE PUSH2 0x1E3 JUMPI PUSH1 0x0 CALLDATASIZE PUSH1 0x3 NOT ADD SLT PUSH2 0x1E3 JUMPI PUSH1 0x0 SLOAD PUSH1 0x1 PUSH1 0x1 PUSH1 0xA0 SHL SUB AND DUP2 MSTORE PUSH1 0x20 SWAP1 RETURN JUMPDEST PUSH1 0x0 JUMPDEST DUP4 DUP2 LT PUSH2 0x3855 JUMPI POP POP PUSH1 0x0 SWAP2 ADD MSTORE JUMP JUMPDEST DUP2 DUP2 ADD MLOAD DUP4 DUP3 ADD MSTORE PUSH1 0x20 ADD PUSH2 0x3845 JUMP JUMPDEST SWAP1 PUSH1 0x20 SWAP2 PUSH2 0x387E DUP2 MLOAD DUP1 SWAP3 DUP2 DUP6 MSTORE DUP6 DUP1 DUP7 ADD SWAP2 ADD PUSH2 0x3842 JUMP JUMPDEST PUSH1 0x1F ADD PUSH1 0x1F NOT AND ADD ADD SWAP1 JUMP JUMPDEST SWAP1 DUP1 PUSH1 0x20 DUP4 MLOAD SWAP2 DUP3 DUP2 MSTORE ADD SWAP2 PUSH1 0x20 DUP1 DUP4 PUSH1 0x5 SHL DUP4 ADD ADD SWAP5 ADD SWAP3 PUSH1 0x0 SWAP2 JUMPDEST DUP4 DUP4 LT PUSH2 0x38B6 JUMPI POP POP POP POP POP SWAP1 JUMP JUMPDEST SWAP1 SWAP2 SWAP3 SWAP4 SWAP5 PUSH1 0x20 DUP1 PUSH2 0x38D4 PUSH1 0x1 SWAP4 PUSH1 0x1F NOT DUP7 DUP3 SUB ADD DUP8 MSTORE DUP10 MLOAD PUSH2 0x3865 JUMP JUMPDEST SWAP8 ADD SWAP4 ADD SWAP4 ADD SWAP2 SWAP4 SWAP3 SWAP1 PUSH2 0x38A7 JUMP JUMPDEST SWAP1 PUSH1 0x20 DUP1 DUP4 MLOAD SWAP3 DUP4 DUP2 MSTORE ADD SWAP3 ADD SWAP1 PUSH1 0x0 JUMPDEST DUP2 DUP2 LT PUSH2 0x3901 JUMPI POP POP POP SWAP1 JUMP JUMPDEST DUP3 MLOAD PUSH1 0xFF AND DUP5 MSTORE PUSH1 0x20 SWAP4 DUP5 ADD SWAP4 SWAP1 SWAP3 ADD SWAP2 PUSH1 0x1 ADD PUSH2 0x38F4 JUMP JUMPDEST SWAP2 PUSH2 0x3943 SWAP1 PUSH2 0x3935 PUSH2 0x3951 SWAP6 SWAP4 PUSH1 0x60 DUP7 MSTORE PUSH1 0x60 DUP7 ADD SWAP1 PUSH2 0x388A JUMP JUMPDEST SWAP1 DUP5 DUP3 SUB PUSH1 0x20 DUP7 ADD MSTORE PUSH2 0x388A JUMP JUMPDEST SWAP2 PUSH1 0x40 DUP2 DUP5 SUB SWAP2 ADD MSTORE PUSH2 0x38E3 JUMP JUMPDEST SWAP1 JUMP JUMPDEST SWAP1 PUSH1 0x1 DUP3 DUP2 SHR SWAP3 AND DUP1 ISZERO PUSH2 0x3984 JUMPI JUMPDEST PUSH1 0x20 DUP4 LT EQ PUSH2 0x396E JUMPI JUMP JUMPDEST PUSH4 0x4E487B71 PUSH1 0xE0 SHL PUSH1 0x0 MSTORE PUSH1 0x22 PUSH1 0x4 MSTORE PUSH1 0x24 PUSH1 0x0 REVERT JUMPDEST SWAP2 PUSH1 0x7F AND SWAP2 PUSH2 0x3963 JUMP JUMPDEST PUSH1 0x0 SWAP3 SWAP2 DUP2 SLOAD SWAP2 PUSH2 0x399E DUP4 PUSH2 0x3954 JUMP JUMPDEST DUP1 DUP4 MSTORE SWAP3 PUSH1 0x1 DUP2 AND SWAP1 DUP2 ISZERO PUSH2 0x39F4 JUMPI POP PUSH1 0x1 EQ PUSH2 0x39BA JUMPI POP POP POP JUMP JUMPDEST PUSH1 0x0 SWAP1 DUP2 MSTORE PUSH1 0x20 DUP2 KECCAK256 SWAP4 SWAP5 POP SWAP2 SWAP3 JUMPDEST DUP4 DUP4 LT PUSH2 0x39DA JUMPI POP PUSH1 0x20 SWAP3 POP ADD ADD SWAP1 JUMP JUMPDEST PUSH1 0x1 DUP2 PUSH1 0x20 SWAP3 SWAP5 SWAP4 SWAP5 SLOAD DUP4 DUP6 DUP8 ADD ADD MSTORE ADD SWAP2 ADD SWAP2 SWAP1 PUSH2 0x39C9 JUMP JUMPDEST SWAP2 POP POP PUSH1 0x20 SWAP4 SWAP5 POP PUSH1 0xFF SWAP3 SWAP2 SWAP3 NOT AND DUP4 DUP4 ADD MSTORE ISZERO ISZERO PUSH1 0x5 SHL ADD ADD SWAP1 JUMP JUMPDEST PUSH2 0x160 DUP2 ADD SWAP1 DUP2 LT PUSH1 0x1 PUSH1 0x1 PUSH1 0x40 SHL SUB DUP3 GT OR PUSH2 0xF03 JUMPI PUSH1 0x40 MSTORE JUMP JUMPDEST PUSH2 0x120 DUP2 ADD SWAP1 DUP2 LT PUSH1 0x1 PUSH1 0x1 PUSH1 0x40 SHL SUB DUP3 GT OR PUSH2 0xF03 JUMPI PUSH1 0x40 MSTORE JUMP JUMPDEST PUSH1 0xC0 DUP2 ADD SWAP1 DUP2 LT PUSH1 0x1 PUSH1 0x1 PUSH1 0x40 SHL SUB DUP3 GT OR PUSH2 0xF03 JUMPI PUSH1 0x40 MSTORE JUMP JUMPDEST SWAP1 PUSH1 0x1F DUP1 NOT SWAP2 ADD AND DUP2 ADD SWAP1 DUP2 LT PUSH1 0x1 PUSH1 0x1 PUSH1 0x40 SHL SUB DUP3 GT OR PUSH2 0xF03 JUMPI PUSH1 0x40 MSTORE JUMP JUMPDEST PUSH1 0x3 GT ISZERO PUSH2 0x2E3E JUMPI JUMP JUMPDEST SWAP5 SWAP1 PUSH2 0x3AD5 PUSH2 0x3AE9 SWAP5 PUSH2 0x3AC7 PUSH1 0xE0 SWAP10 SWAP13 SWAP12 SWAP11 SWAP8 SWAP6 PUSH2 0x3AB9 PUSH1 0xFF SWAP6 PUSH2 0x100 DUP13 MSTORE PUSH2 0x100 DUP13 ADD SWAP1 PUSH2 0x3865 JUMP JUMPDEST SWAP1 DUP11 DUP3 SUB PUSH1 0x20 DUP13 ADD MSTORE PUSH2 0x3865 JUMP JUMPDEST SWAP1 DUP9 DUP3 SUB PUSH1 0x40 DUP11 ADD MSTORE PUSH2 0x3865 JUMP JUMPDEST SWAP3 AND PUSH1 0x60 DUP7 ADD MSTORE DUP5 DUP3 SUB PUSH1 0x80 DUP7 ADD MSTORE PUSH2 0x3865 JUMP JUMPDEST PUSH1 0x1 PUSH1 0x1 PUSH1 0xA0 SHL SUB SWAP1 SWAP7 AND PUSH1 0xA0 DUP4 ADD MSTORE PUSH2 0x3B02 DUP2 PUSH2 0x3A85 JUMP JUMPDEST PUSH1 0xC0 DUP3 ADD MSTORE ADD MSTORE JUMP JUMPDEST DUP2 PUSH1 0x1F DUP3 ADD SLT ISZERO PUSH2 0x1E3 JUMPI DUP1 CALLDATALOAD SWAP1 PUSH1 0x1 PUSH1 0x1 PUSH1 0x40 SHL SUB DUP3 GT PUSH2 0xF03 JUMPI PUSH1 0x40 MLOAD SWAP3 PUSH2 0x3B3F PUSH1 0x1F DUP5 ADD PUSH1 0x1F NOT AND PUSH1 0x20 ADD DUP6 PUSH2 0x3A64 JUMP JUMPDEST DUP3 DUP5 MSTORE PUSH1 0x20 DUP4 DUP4 ADD ADD GT PUSH2 0x1E3 JUMPI DUP2 PUSH1 0x0 SWAP3 PUSH1 0x20 DUP1 SWAP4 ADD DUP4 DUP7 ADD CALLDATACOPY DUP4 ADD ADD MSTORE SWAP1 JUMP JUMPDEST SWAP1 PUSH1 0x2 DUP3 LT ISZERO PUSH2 0x2E3E JUMPI MSTORE JUMP JUMPDEST SWAP6 SWAP3 SWAP4 PUSH2 0x3BB7 PUSH2 0x3951 SWAP11 SWAP9 SWAP6 PUSH2 0x3BA9 PUSH2 0x3BD0 SWAP6 PUSH2 0x3B9B PUSH2 0x3BC5 SWAP7 SWAP14 SWAP11 SWAP14 PUSH2 0x120 DUP14 MSTORE PUSH2 0x120 DUP14 ADD SWAP1 PUSH2 0x3865 JUMP JUMPDEST SWAP1 DUP12 DUP3 SUB PUSH1 0x20 DUP14 ADD MSTORE PUSH2 0x3865 JUMP JUMPDEST SWAP1 DUP10 DUP3 SUB PUSH1 0x40 DUP12 ADD MSTORE PUSH2 0x3865 JUMP JUMPDEST SWAP1 DUP8 DUP3 SUB PUSH1 0x60 DUP10 ADD MSTORE PUSH2 0x3865 JUMP JUMPDEST SWAP7 PUSH1 0x80 DUP7 ADD SWAP1 PUSH2 0x3B61 JUMP JUMPDEST PUSH2 0x3BD9 DUP2 PUSH2 0x3A85 JUMP JUMPDEST PUSH1 0xA0 DUP5 ADD MSTORE PUSH1 0xC0 DUP4 ADD MSTORE PUSH1 0xE0 DUP3 ADD MSTORE PUSH2 0x100 DUP2 DUP5 SUB SWAP2 ADD MSTORE PUSH2 0x3865 JUMP JUMPDEST PUSH1 0x84 CALLDATALOAD SWAP1 PUSH1 0x1 PUSH1 0x1 PUSH1 0xA0 SHL SUB DUP3 AND DUP3 SUB PUSH2 0x1E3 JUMPI JUMP JUMPDEST PUSH1 0x2 SLOAD DUP2 LT ISZERO PUSH2 0x3C2B JUMPI PUSH1 0x2 PUSH1 0x0 MSTORE PUSH1 0xA PUSH1 0x20 PUSH1 0x0 KECCAK256 SWAP2 MUL ADD SWAP1 PUSH1 0x0 SWAP1 JUMP JUMPDEST PUSH4 0x4E487B71 PUSH1 0xE0 SHL PUSH1 0x0 MSTORE PUSH1 0x32 PUSH1 0x4 MSTORE PUSH1 0x24 PUSH1 0x0 REVERT JUMPDEST PUSH1 0x3 SLOAD DUP2 LT ISZERO PUSH2 0x3C2B JUMPI PUSH1 0x3 PUSH1 0x0 MSTORE PUSH1 0x6 PUSH1 0x20 PUSH1 0x0 KECCAK256 SWAP2 MUL ADD SWAP1 PUSH1 0x0 SWAP1 JUMP JUMPDEST SWAP2 PUSH2 0x3951 SWAP6 SWAP4 PUSH2 0x3C8F PUSH2 0x3C9D SWAP3 PUSH2 0x3C81 PUSH1 0xFF SWAP6 PUSH1 0xA0 DUP9 MSTORE PUSH1 0xA0 DUP9 ADD SWAP1 PUSH2 0x3865 JUMP JUMPDEST SWAP1 DUP7 DUP3 SUB PUSH1 0x20 DUP9 ADD MSTORE PUSH2 0x3865 JUMP JUMPDEST SWAP1 DUP5 DUP3 SUB PUSH1 0x40 DUP7 ADD MSTORE PUSH2 0x3865 JUMP JUMPDEST SWAP4 AND PUSH1 0x60 DUP3 ADD MSTORE PUSH1 0x80 DUP2 DUP5 SUB SWAP2 ADD MSTORE PUSH2 0x3865 JUMP JUMPDEST PUSH1 0x64 CALLDATALOAD SWAP1 PUSH1 0xFF DUP3 AND DUP3 SUB PUSH2 0x1E3 JUMPI JUMP JUMPDEST PUSH1 0x1 PUSH1 0x1 PUSH1 0x40 SHL SUB DUP2 GT PUSH2 0xF03 JUMPI PUSH1 0x5 SHL PUSH1 0x20 ADD SWAP1 JUMP JUMPDEST SWAP1 DUP1 PUSH1 0x1F DUP4 ADD SLT ISZERO PUSH2 0x1E3 JUMPI DUP2 CALLDATALOAD PUSH2 0x3CEF DUP2 PUSH2 0x3CC1 JUMP JUMPDEST SWAP3 PUSH2 0x3CFD PUSH1 0x40 MLOAD SWAP5 DUP6 PUSH2 0x3A64 JUMP JUMPDEST DUP2 DUP5 MSTORE PUSH1 0x20 DUP1 DUP6 ADD SWAP3 PUSH1 0x5 SHL DUP3 ADD ADD SWAP2 DUP4 DUP4 GT PUSH2 0x1E3 JUMPI PUSH1 0x20 DUP3 ADD SWAP1 JUMPDEST DUP4 DUP3 LT PUSH2 0x3D29 JUMPI POP POP POP POP POP SWAP1 JUMP JUMPDEST DUP2 CALLDATALOAD PUSH1 0x1 PUSH1 0x1 PUSH1 0x40 SHL SUB DUP2 GT PUSH2 0x1E3 JUMPI PUSH1 0x20 SWAP2 PUSH2 0x3D4B DUP8 DUP5 DUP1 SWAP5 DUP9 ADD ADD PUSH2 0x3B0B JUMP JUMPDEST DUP2 MSTORE ADD SWAP2 ADD SWAP1 PUSH2 0x3D1A JUMP JUMPDEST PUSH1 0x40 MLOAD SWAP1 PUSH2 0x3D65 PUSH1 0x20 DUP4 PUSH2 0x3A64 JUMP JUMPDEST PUSH1 0x0 DUP1 DUP4 MSTORE DUP3 DUP2 JUMPDEST DUP3 DUP2 LT PUSH2 0x3D79 JUMPI POP POP POP JUMP JUMPDEST DUP1 PUSH1 0x60 PUSH1 0x20 DUP1 SWAP4 DUP6 ADD ADD MSTORE ADD PUSH2 0x3D6D JUMP JUMPDEST PUSH4 0x4E487B71 PUSH1 0xE0 SHL DUP2 MSTORE PUSH1 0x41 PUSH1 0x4 MSTORE PUSH1 0x24 SWAP1 REVERT JUMPDEST SWAP1 PUSH2 0x3DA8 DUP3 PUSH2 0x3CC1 JUMP JUMPDEST PUSH2 0x3DB5 PUSH1 0x40 MLOAD SWAP2 DUP3 PUSH2 0x3A64 JUMP JUMPDEST DUP3 DUP2 MSTORE DUP1 SWAP3 PUSH2 0x3DC6 PUSH1 0x1F NOT SWAP2 PUSH2 0x3CC1 JUMP JUMPDEST ADD SWAP1 PUSH1 0x0 JUMPDEST DUP3 DUP2 LT PUSH2 0x3DD7 JUMPI POP POP POP JUMP JUMPDEST DUP1 PUSH1 0x60 PUSH1 0x20 DUP1 SWAP4 DUP6 ADD ADD MSTORE ADD PUSH2 0x3DCB JUMP JUMPDEST SWAP1 PUSH2 0x3DF2 DUP3 PUSH2 0x3CC1 JUMP JUMPDEST PUSH2 0x3DFF PUSH1 0x40 MLOAD SWAP2 DUP3 PUSH2 0x3A64 JUMP JUMPDEST DUP3 DUP2 MSTORE DUP1 SWAP3 PUSH2 0x3E10 PUSH1 0x1F NOT SWAP2 PUSH2 0x3CC1 JUMP JUMPDEST ADD SWAP1 PUSH1 0x20 CALLDATASIZE SWAP2 ADD CALLDATACOPY JUMP JUMPDEST DUP1 MLOAD ISZERO PUSH2 0x3C2B JUMPI PUSH1 0x20 ADD SWAP1 JUMP JUMPDEST DUP1 MLOAD PUSH1 0x1 LT ISZERO PUSH2 0x3C2B JUMPI PUSH1 0x40 ADD SWAP1 JUMP JUMPDEST DUP1 MLOAD PUSH1 0x2 LT ISZERO PUSH2 0x3C2B JUMPI PUSH1 0x60 ADD SWAP1 JUMP JUMPDEST DUP1 MLOAD PUSH1 0x3 LT ISZERO PUSH2 0x3C2B JUMPI PUSH1 0x80 ADD SWAP1 JUMP JUMPDEST DUP1 MLOAD PUSH1 0x4 LT ISZERO PUSH2 0x3C2B JUMPI PUSH1 0xA0 ADD SWAP1 JUMP JUMPDEST DUP1 MLOAD PUSH1 0x5 LT ISZERO PUSH2 0x3C2B JUMPI PUSH1 0xC0 ADD SWAP1 JUMP JUMPDEST DUP1 MLOAD PUSH1 0x6 LT ISZERO PUSH2 0x3C2B JUMPI PUSH1 0xE0 ADD SWAP1 JUMP JUMPDEST DUP1 MLOAD PUSH1 0x7 LT ISZERO PUSH2 0x3C2B JUMPI PUSH2 0x100 ADD SWAP1 JUMP JUMPDEST DUP1 MLOAD PUSH1 0x8 LT ISZERO PUSH2 0x3C2B JUMPI PUSH2 0x120 ADD SWAP1 JUMP JUMPDEST DUP1 MLOAD PUSH1 0x9 LT ISZERO PUSH2 0x3C2B JUMPI PUSH2 0x140 ADD SWAP1 JUMP JUMPDEST DUP1 MLOAD PUSH1 0xA LT ISZERO PUSH2 0x3C2B JUMPI PUSH2 0x160 ADD SWAP1 JUMP JUMPDEST DUP1 MLOAD PUSH1 0xB LT ISZERO PUSH2 0x3C2B JUMPI PUSH2 0x180 ADD SWAP1 JUMP JUMPDEST DUP1 MLOAD PUSH1 0xC LT ISZERO PUSH2 0x3C2B JUMPI PUSH2 0x1A0 ADD SWAP1 JUMP JUMPDEST DUP1 MLOAD PUSH1 0xD LT ISZERO PUSH2 0x3C2B JUMPI PUSH2 0x1C0 ADD SWAP1 JUMP JUMPDEST DUP1 MLOAD PUSH1 0xE LT ISZERO PUSH2 0x3C2B JUMPI PUSH2 0x1E0 ADD SWAP1 JUMP JUMPDEST DUP1 MLOAD DUP3 LT ISZERO PUSH2 0x3C2B JUMPI PUSH1 0x20 SWAP2 PUSH1 0x5 SHL ADD ADD SWAP1 JUMP JUMPDEST SWAP1 DUP2 PUSH1 0x20 SWAP2 SUB SLT PUSH2 0x1E3 JUMPI MLOAD DUP1 ISZERO ISZERO DUP2 SUB PUSH2 0x1E3 JUMPI SWAP1 JUMP JUMPDEST SWAP1 DUP2 SLOAD PUSH2 0x3F47 DUP2 PUSH2 0x3CC1 JUMP JUMPDEST SWAP3 PUSH2 0x3F55 PUSH1 0x40 MLOAD SWAP5 DUP6 PUSH2 0x3A64 JUMP JUMPDEST DUP2 DUP5 MSTORE PUSH1 0x20 DUP5 ADD SWAP1 PUSH1 0x0 MSTORE PUSH1 0x20 PUSH1 0x0 KECCAK256 PUSH1 0x0 SWAP2 JUMPDEST DUP4 DUP4 LT PUSH2 0x3F76 JUMPI POP POP POP POP JUMP JUMPDEST PUSH1 0x1 PUSH1 0x20 DUP2 SWAP3 PUSH1 0x40 MLOAD PUSH2 0x3F8D DUP2 PUSH2 0x1C4 DUP2 DUP10 PUSH2 0x398E JUMP JUMPDEST DUP2 MSTORE ADD SWAP3 ADD SWAP3 ADD SWAP2 SWAP1 PUSH2 0x3F69 JUMP JUMPDEST PUSH1 0x0 SLOAD PUSH1 0x40 MLOAD PUSH4 0x95A8C58D PUSH1 0xE0 SHL DUP2 MSTORE CALLER PUSH1 0x4 DUP3 ADD MSTORE PUSH1 0x1 PUSH1 0x24 DUP3 ADD MSTORE PUSH1 0x60 SWAP2 PUSH1 0x1 PUSH1 0x1 PUSH1 0xA0 SHL SUB AND SWAP1 PUSH1 0x20 DUP2 PUSH1 0x44 DUP2 DUP6 GAS STATICCALL SWAP1 DUP2 ISZERO PUSH2 0x10AD JUMPI PUSH1 0x0 SWAP2 PUSH2 0x42EB JUMPI JUMPDEST POP ISZERO PUSH2 0x4139 JUMPI POP POP PUSH1 0x3 SLOAD PUSH2 0x3FF1 DUP2 PUSH2 0x3CC1 JUMP JUMPDEST SWAP1 PUSH2 0x3FFF PUSH1 0x40 MLOAD SWAP3 DUP4 PUSH2 0x3A64 JUMP JUMPDEST DUP1 DUP3 MSTORE PUSH1 0x1F NOT PUSH2 0x400E DUP3 PUSH2 0x3CC1 JUMP JUMPDEST ADD PUSH1 0x0 JUMPDEST DUP2 DUP2 LT PUSH2 0x40F8 JUMPI POP POP PUSH1 0x0 JUMPDEST DUP2 DUP2 LT PUSH2 0x402A JUMPI POP POP SWAP1 JUMP JUMPDEST DUP1 PUSH2 0x4036 PUSH1 0x1 SWAP3 PUSH2 0x3C41 JUMP JUMPDEST POP PUSH2 0x4040 DUP3 PUSH2 0x3C41 JUMP JUMPDEST POP PUSH2 0x404A DUP4 PUSH2 0x3C41 JUMP JUMPDEST POP PUSH1 0x2 PUSH2 0x40B5 PUSH1 0xFF PUSH1 0x3 PUSH2 0x405D DUP9 PUSH2 0x3C41 JUMP JUMPDEST POP ADD SLOAD AND SWAP3 DUP8 PUSH2 0x40A0 PUSH2 0x406E PUSH2 0x3D56 JUMP JUMPDEST SWAP7 PUSH2 0x1C4 PUSH2 0x408E PUSH1 0x40 MLOAD SWAP11 PUSH2 0x4082 DUP13 PUSH2 0x3A49 JUMP JUMPDEST PUSH1 0x40 MLOAD SWAP3 DUP4 DUP1 SWAP3 PUSH2 0x398E JUMP JUMPDEST DUP10 MSTORE PUSH2 0x1C4 PUSH1 0x40 MLOAD DUP1 SWAP5 DUP2 SWAP4 ADD PUSH2 0x398E JUMP JUMPDEST PUSH1 0x20 DUP8 ADD MSTORE PUSH2 0x1C4 PUSH1 0x40 MLOAD DUP1 SWAP5 DUP2 SWAP4 ADD PUSH2 0x398E JUMP JUMPDEST PUSH1 0x40 DUP5 ADD MSTORE PUSH1 0x60 DUP4 ADD MSTORE PUSH1 0x20 PUSH2 0x40CE PUSH1 0x40 MLOAD SWAP2 DUP3 PUSH2 0x3A64 JUMP JUMPDEST PUSH1 0x0 DUP2 MSTORE PUSH1 0x80 DUP4 ADD MSTORE PUSH1 0xA0 DUP3 ADD MSTORE PUSH2 0x40E6 DUP3 DUP7 PUSH2 0x3F0F JUMP JUMPDEST MSTORE PUSH2 0x40F1 DUP2 DUP6 PUSH2 0x3F0F JUMP JUMPDEST POP ADD PUSH2 0x401E JUMP JUMPDEST PUSH1 0x20 SWAP1 PUSH1 0x40 MLOAD PUSH2 0x4107 DUP2 PUSH2 0x3A49 JUMP JUMPDEST PUSH1 0x60 DUP2 MSTORE PUSH1 0x60 DUP4 DUP3 ADD MSTORE PUSH1 0x60 PUSH1 0x40 DUP3 ADD MSTORE PUSH1 0x0 PUSH1 0x60 DUP3 ADD MSTORE PUSH1 0x60 PUSH1 0x80 DUP3 ADD MSTORE PUSH1 0x60 PUSH1 0xA0 DUP3 ADD MSTORE DUP3 DUP3 DUP8 ADD ADD MSTORE ADD PUSH2 0x4012 JUMP JUMPDEST PUSH1 0x20 PUSH1 0x44 SWAP2 PUSH1 0x40 MLOAD SWAP3 DUP4 DUP1 SWAP3 PUSH4 0x95A8C58D PUSH1 0xE0 SHL DUP3 MSTORE CALLER PUSH1 0x4 DUP4 ADD MSTORE PUSH1 0x0 PUSH1 0x24 DUP4 ADD MSTORE GAS STATICCALL SWAP1 DUP2 ISZERO PUSH2 0x10AD JUMPI PUSH1 0x0 SWAP2 PUSH2 0x42CC JUMPI JUMPDEST POP PUSH2 0x41D6 JUMPI POP PUSH1 0x40 MLOAD PUSH1 0x0 PUSH2 0x4183 PUSH1 0x20 DUP4 PUSH2 0x3A64 JUMP JUMPDEST DUP2 MSTORE PUSH1 0x0 DUP1 JUMPDEST DUP2 DUP2 LT PUSH2 0x4195 JUMPI POP POP SWAP1 JUMP JUMPDEST PUSH1 0x20 SWAP1 PUSH1 0x40 MLOAD PUSH2 0x41A4 DUP2 PUSH2 0x3A49 JUMP JUMPDEST PUSH1 0x60 DUP2 MSTORE PUSH1 0x60 DUP4 DUP3 ADD MSTORE PUSH1 0x60 PUSH1 0x40 DUP3 ADD MSTORE PUSH1 0x0 PUSH1 0x60 DUP3 ADD MSTORE PUSH1 0x60 PUSH1 0x80 DUP3 ADD MSTORE PUSH1 0x60 PUSH1 0xA0 DUP3 ADD MSTORE DUP3 DUP3 DUP7 ADD ADD MSTORE ADD PUSH2 0x4189 JUMP JUMPDEST PUSH1 0x3 SLOAD PUSH2 0x41E2 DUP2 PUSH2 0x3CC1 JUMP JUMPDEST SWAP2 PUSH2 0x41F0 PUSH1 0x40 MLOAD SWAP4 DUP5 PUSH2 0x3A64 JUMP JUMPDEST DUP2 DUP4 MSTORE PUSH1 0x20 DUP4 ADD SWAP1 PUSH1 0x3 PUSH1 0x0 MSTORE PUSH32 0xC2575A0E9E593C00F959F8C92F12DB2869C3395A3B0502D05E2516446F71F85B SWAP1 PUSH1 0x0 SWAP3 JUMPDEST DUP5 DUP5 LT PUSH2 0x4232 JUMPI POP POP POP POP POP SWAP1 JUMP JUMPDEST PUSH1 0x6 PUSH1 0x20 PUSH1 0x1 SWAP3 PUSH1 0x40 MLOAD PUSH2 0x4245 DUP2 PUSH2 0x3A49 JUMP JUMPDEST PUSH1 0x40 MLOAD PUSH2 0x4256 DUP2 PUSH2 0x1C4 DUP2 DUP12 PUSH2 0x398E JUMP JUMPDEST DUP2 MSTORE PUSH1 0x40 MLOAD PUSH2 0x426B DUP2 PUSH2 0x1C4 DUP2 DUP10 DUP13 ADD PUSH2 0x398E JUMP JUMPDEST DUP4 DUP3 ADD MSTORE PUSH1 0x40 MLOAD PUSH2 0x4283 DUP2 PUSH2 0x1C4 DUP2 PUSH1 0x2 DUP13 ADD PUSH2 0x398E JUMP JUMPDEST PUSH1 0x40 DUP3 ADD MSTORE PUSH1 0xFF PUSH1 0x3 DUP9 ADD SLOAD AND DUP7 DUP3 ADD MSTORE PUSH1 0x40 MLOAD PUSH2 0x42A8 DUP2 PUSH2 0x1C4 DUP2 PUSH1 0x4 DUP13 ADD PUSH2 0x398E JUMP JUMPDEST PUSH1 0x80 DUP3 ADD MSTORE PUSH2 0x42B9 PUSH1 0x5 DUP9 ADD PUSH2 0x3F3B JUMP JUMPDEST PUSH1 0xA0 DUP3 ADD MSTORE DUP2 MSTORE ADD SWAP4 ADD SWAP4 ADD SWAP3 SWAP2 PUSH2 0x4223 JUMP JUMPDEST PUSH2 0x42E5 SWAP2 POP PUSH1 0x20 RETURNDATASIZE PUSH1 0x20 GT PUSH2 0x10A6 JUMPI PUSH2 0x1098 DUP2 DUP4 PUSH2 0x3A64 JUMP JUMPDEST CODESIZE PUSH2 0x416D JUMP JUMPDEST PUSH2 0x4304 SWAP2 POP PUSH1 0x20 RETURNDATASIZE PUSH1 0x20 GT PUSH2 0x10A6 JUMPI PUSH2 0x1098 DUP2 DUP4 PUSH2 0x3A64 JUMP JUMPDEST CODESIZE PUSH2 0x3FDD JUMP JUMPDEST PUSH1 0x0 SWAP3 SWAP2 DUP2 SLOAD SWAP2 PUSH2 0x431A DUP4 PUSH2 0x3954 JUMP JUMPDEST SWAP3 PUSH1 0x1 DUP2 AND SWAP1 DUP2 ISZERO PUSH2 0x4365 JUMPI POP PUSH1 0x1 EQ PUSH2 0x4333 JUMPI POP POP POP JUMP JUMPDEST SWAP1 SWAP2 SWAP3 SWAP4 POP PUSH1 0x0 MSTORE PUSH1 0x20 PUSH1 0x0 KECCAK256 PUSH1 0x0 SWAP1 JUMPDEST DUP4 DUP3 LT PUSH2 0x4351 JUMPI POP POP ADD SWAP1 JUMP JUMPDEST PUSH1 0x1 DUP2 PUSH1 0x20 SWAP3 SLOAD DUP5 DUP7 ADD MSTORE ADD SWAP2 ADD SWAP1 PUSH2 0x4344 JUMP JUMPDEST PUSH1 0xFF NOT AND DUP4 MSTORE POP POP DUP2 ISZERO ISZERO SWAP1 SWAP2 MUL ADD SWAP2 POP JUMP JUMPDEST PUSH1 0x0 NOT DUP2 EQ PUSH2 0x4387 JUMPI PUSH1 0x1 ADD SWAP1 JUMP JUMPDEST PUSH4 0x4E487B71 PUSH1 0xE0 SHL PUSH1 0x0 MSTORE PUSH1 0x11 PUSH1 0x4 MSTORE PUSH1 0x24 PUSH1 0x0 REVERT JUMPDEST ISZERO PUSH2 0x43A4 JUMPI JUMP JUMPDEST PUSH1 0x40 MLOAD PUSH3 0x461BCD PUSH1 0xE5 SHL DUP2 MSTORE PUSH1 0x20 PUSH1 0x4 DUP3 ADD MSTORE PUSH1 0x1B PUSH1 0x24 DUP3 ADD MSTORE PUSH32 0x4E6F206461746120666F756E64207769746820746869732049442E0000000000 PUSH1 0x44 DUP3 ADD MSTORE PUSH1 0x64 SWAP1 REVERT JUMPDEST PUSH1 0x2 DUP3 LT ISZERO PUSH2 0x2E3E JUMPI MSTORE JUMP JUMPDEST DUP2 DUP2 LT PUSH2 0x4400 JUMPI POP POP JUMP JUMPDEST PUSH1 0x0 DUP2 SSTORE PUSH1 0x1 ADD PUSH2 0x43F5 JUMP JUMPDEST ISZERO PUSH2 0x4413 JUMPI JUMP JUMPDEST PUSH1 0x64 PUSH1 0x40 MLOAD PUSH3 0x461BCD PUSH1 0xE5 SHL DUP2 MSTORE PUSH1 0x20 PUSH1 0x4 DUP3 ADD MSTORE PUSH1 0x20 PUSH1 0x24 DUP3 ADD MSTORE PUSH32 0x416363657373207265737472696374656420746F2050616272696B20726F6C65 PUSH1 0x44 DUP3 ADD MSTORE REVERT JUMPDEST ISZERO PUSH2 0x445E JUMPI JUMP JUMPDEST PUSH1 0x40 MLOAD PUSH3 0x461BCD PUSH1 0xE5 SHL DUP2 MSTORE PUSH1 0x20 PUSH1 0x4 DUP3 ADD MSTORE PUSH1 0x19 PUSH1 0x24 DUP3 ADD MSTORE PUSH32 0x4D696E696D756D206F72646572206973203530206F6261742E00000000000000 PUSH1 0x44 DUP3 ADD MSTORE PUSH1 0x64 SWAP1 REVERT JUMPDEST SWAP2 SWAP1 DUP1 MLOAD SWAP3 DUP4 MLOAD PUSH1 0x1 PUSH1 0x1 PUSH1 0x40 SHL SUB DUP2 GT PUSH2 0xF03 JUMPI PUSH2 0x44C2 DUP3 SLOAD PUSH2 0x3954 JUMP JUMPDEST PUSH1 0x1F DUP2 GT PUSH2 0x4AA6 JUMPI JUMPDEST POP PUSH1 0x20 SWAP5 PUSH1 0x1F DUP3 GT PUSH1 0x1 EQ PUSH2 0x4A41 JUMPI PUSH2 0x44FF SWAP3 SWAP4 SWAP5 SWAP6 DUP3 SWAP2 PUSH1 0x0 SWAP3 PUSH2 0x1755 JUMPI POP POP DUP2 PUSH1 0x1 SHL SWAP2 PUSH1 0x0 NOT SWAP1 PUSH1 0x3 SHL SHR NOT AND OR SWAP1 JUMP JUMPDEST DUP2 SSTORE JUMPDEST PUSH1 0x1 DUP2 ADD PUSH1 0x20 DUP4 ADD MLOAD DUP1 MLOAD SWAP1 PUSH1 0x1 PUSH1 0x1 PUSH1 0x40 SHL SUB DUP3 GT PUSH2 0xF03 JUMPI PUSH2 0x4526 DUP4 SLOAD PUSH2 0x3954 JUMP JUMPDEST PUSH1 0x1F DUP2 GT PUSH2 0x4A0F JUMPI JUMPDEST POP PUSH1 0x20 SWAP1 PUSH1 0x1F DUP4 GT PUSH1 0x1 EQ PUSH2 0x49A8 JUMPI PUSH2 0x4560 SWAP3 SWAP2 PUSH1 0x0 SWAP2 DUP4 PUSH2 0x1755 JUMPI POP POP DUP2 PUSH1 0x1 SHL SWAP2 PUSH1 0x0 NOT SWAP1 PUSH1 0x3 SHL SHR NOT AND OR SWAP1 JUMP JUMPDEST SWAP1 SSTORE JUMPDEST PUSH1 0x2 DUP2 ADD PUSH1 0x40 DUP4 ADD MLOAD DUP1 MLOAD SWAP1 PUSH1 0x1 PUSH1 0x1 PUSH1 0x40 SHL SUB DUP3 GT PUSH2 0xF03 JUMPI PUSH2 0x4587 DUP4 SLOAD PUSH2 0x3954 JUMP JUMPDEST PUSH1 0x1F DUP2 GT PUSH2 0x4976 JUMPI JUMPDEST POP PUSH1 0x20 SWAP1 PUSH1 0x1F DUP4 GT PUSH1 0x1 EQ PUSH2 0x490F JUMPI PUSH2 0x45C1 SWAP3 SWAP2 PUSH1 0x0 SWAP2 DUP4 PUSH2 0x1755 JUMPI POP POP DUP2 PUSH1 0x1 SHL SWAP2 PUSH1 0x0 NOT SWAP1 PUSH1 0x3 SHL SHR NOT AND OR SWAP1 JUMP JUMPDEST SWAP1 SSTORE JUMPDEST PUSH1 0xFF PUSH1 0x60 DUP4 ADD MLOAD AND PUSH1 0xFF PUSH1 0x3 DUP4 ADD SWAP2 AND PUSH1 0xFF NOT DUP3 SLOAD AND OR SWAP1 SSTORE PUSH1 0x4 DUP2 ADD PUSH1 0x80 DUP4 ADD MLOAD DUP1 MLOAD SWAP1 PUSH1 0x1 PUSH1 0x1 PUSH1 0x40 SHL SUB DUP3 GT PUSH2 0xF03 JUMPI PUSH2 0x4601 DUP4 SLOAD PUSH2 0x3954 JUMP JUMPDEST PUSH1 0x1F DUP2 GT PUSH2 0x48DD JUMPI JUMPDEST POP PUSH1 0x20 SWAP1 PUSH1 0x1F DUP4 GT PUSH1 0x1 EQ PUSH2 0x486F JUMPI DUP3 PUSH2 0x100 SWAP6 SWAP4 PUSH1 0x7 SWAP6 SWAP4 PUSH2 0x4643 SWAP4 PUSH1 0x0 SWAP3 PUSH2 0x1755 JUMPI POP POP DUP2 PUSH1 0x1 SHL SWAP2 PUSH1 0x0 NOT SWAP1 PUSH1 0x3 SHL SHR NOT AND OR SWAP1 JUMP JUMPDEST SWAP1 SSTORE JUMPDEST PUSH1 0xA0 DUP5 ADD MLOAD PUSH1 0x5 DUP3 ADD DUP1 SLOAD PUSH1 0x1 PUSH1 0x1 PUSH1 0xA0 SHL SUB NOT AND PUSH1 0x1 PUSH1 0x1 PUSH1 0xA0 SHL SUB SWAP3 SWAP1 SWAP3 AND SWAP2 SWAP1 SWAP2 OR DUP2 SSTORE PUSH1 0xC0 DUP6 ADD MLOAD PUSH2 0x467B DUP2 PUSH2 0x3A85 JUMP JUMPDEST PUSH2 0x4684 DUP2 PUSH2 0x3A85 JUMP JUMPDEST DUP2 SLOAD SWAP1 PUSH1 0xFF PUSH1 0xA0 SHL SWAP1 PUSH1 0xA0 SHL AND SWAP1 PUSH1 0xFF PUSH1 0xA0 SHL NOT AND OR SWAP1 SSTORE PUSH1 0xE0 DUP5 ADD MLOAD PUSH1 0x6 DUP3 ADD SSTORE ADD SWAP2 ADD MLOAD DUP1 MLOAD SWAP1 PUSH1 0x1 PUSH1 0x40 SHL DUP3 GT PUSH2 0xF03 JUMPI DUP3 SLOAD DUP3 DUP5 SSTORE DUP1 DUP4 LT PUSH2 0x47F1 JUMPI JUMPDEST POP PUSH1 0x20 ADD SWAP2 PUSH1 0x0 MSTORE PUSH1 0x20 PUSH1 0x0 KECCAK256 SWAP2 PUSH1 0x0 SWAP1 JUMPDEST DUP3 DUP3 LT PUSH2 0x46E4 JUMPI POP POP POP POP JUMP JUMPDEST DUP1 MLOAD DUP1 MLOAD SWAP1 PUSH1 0x1 PUSH1 0x1 PUSH1 0x40 SHL SUB DUP3 GT PUSH2 0xF03 JUMPI PUSH2 0x4701 DUP7 SLOAD PUSH2 0x3954 JUMP JUMPDEST PUSH1 0x1F DUP2 GT PUSH2 0x47BF JUMPI JUMPDEST POP PUSH1 0x20 SWAP1 PUSH1 0x1F DUP4 GT PUSH1 0x1 EQ PUSH2 0x4752 JUMPI SWAP3 PUSH2 0x4743 DUP4 PUSH1 0x1 SWAP6 SWAP5 PUSH1 0x20 SWAP5 DUP8 SWAP7 PUSH1 0x0 SWAP3 PUSH2 0x1755 JUMPI POP POP DUP2 PUSH1 0x1 SHL SWAP2 PUSH1 0x0 NOT SWAP1 PUSH1 0x3 SHL SHR NOT AND OR SWAP1 JUMP JUMPDEST DUP8 SSTORE JUMPDEST ADD SWAP5 ADD SWAP2 ADD SWAP1 SWAP3 PUSH2 0x46D7 JUMP JUMPDEST SWAP1 PUSH1 0x1F NOT DUP4 AND SWAP2 DUP8 PUSH1 0x0 MSTORE DUP2 PUSH1 0x0 KECCAK256 SWAP3 PUSH1 0x0 JUMPDEST DUP2 DUP2 LT PUSH2 0x47A7 JUMPI POP SWAP4 PUSH1 0x20 SWAP4 PUSH1 0x1 SWAP7 SWAP4 DUP8 SWAP7 SWAP4 DUP4 DUP9 SWAP6 LT PUSH2 0x478E JUMPI JUMPDEST POP POP POP DUP2 SHL ADD DUP8 SSTORE PUSH2 0x4746 JUMP JUMPDEST ADD MLOAD PUSH1 0x0 NOT PUSH1 0xF8 DUP5 PUSH1 0x3 SHL AND SHR NOT AND SWAP1 SSTORE CODESIZE DUP1 DUP1 PUSH2 0x4781 JUMP JUMPDEST SWAP3 SWAP4 PUSH1 0x20 PUSH1 0x1 DUP2 SWAP3 DUP8 DUP7 ADD MLOAD DUP2 SSTORE ADD SWAP6 ADD SWAP4 ADD PUSH2 0x4765 JUMP JUMPDEST PUSH2 0x47EB SWAP1 DUP8 PUSH1 0x0 MSTORE PUSH1 0x20 PUSH1 0x0 KECCAK256 PUSH1 0x1F DUP6 ADD PUSH1 0x5 SHR DUP2 ADD SWAP2 PUSH1 0x20 DUP7 LT PUSH2 0xFBB JUMPI PUSH1 0x1F ADD PUSH1 0x5 SHR ADD SWAP1 PUSH2 0x43F5 JUMP JUMPDEST CODESIZE PUSH2 0x470A JUMP JUMPDEST DUP4 PUSH1 0x0 MSTORE DUP3 PUSH1 0x20 PUSH1 0x0 KECCAK256 SWAP2 DUP3 ADD SWAP2 ADD JUMPDEST DUP2 DUP2 LT PUSH2 0x480E JUMPI POP PUSH2 0x46C5 JUMP JUMPDEST DUP1 PUSH2 0x481B PUSH1 0x1 SWAP3 SLOAD PUSH2 0x3954 JUMP JUMPDEST DUP1 PUSH2 0x4828 JUMPI JUMPDEST POP ADD PUSH2 0x4801 JUMP JUMPDEST PUSH1 0x1F DUP2 GT DUP4 EQ PUSH2 0x483E JUMPI POP PUSH1 0x0 DUP2 SSTORE JUMPDEST CODESIZE PUSH2 0x4821 JUMP JUMPDEST PUSH2 0x485C SWAP1 DUP3 PUSH1 0x0 MSTORE DUP4 PUSH1 0x1F PUSH1 0x20 PUSH1 0x0 KECCAK256 SWAP3 ADD PUSH1 0x5 SHR DUP3 ADD SWAP2 ADD PUSH2 0x43F5 JUMP JUMPDEST DUP1 PUSH1 0x0 MSTORE PUSH1 0x0 PUSH1 0x20 DUP2 KECCAK256 DUP2 DUP4 SSTORE SSTORE PUSH2 0x4838 JUMP JUMPDEST SWAP1 PUSH1 0x1F NOT DUP4 AND SWAP2 DUP5 PUSH1 0x0 MSTORE DUP2 PUSH1 0x0 KECCAK256 SWAP3 PUSH1 0x0 JUMPDEST DUP2 DUP2 LT PUSH2 0x48C5 JUMPI POP SWAP3 PUSH1 0x1 SWAP3 DUP6 SWAP3 PUSH2 0x100 SWAP9 SWAP7 PUSH1 0x7 SWAP9 SWAP7 LT PUSH2 0x48AC JUMPI JUMPDEST POP POP POP DUP2 SHL ADD SWAP1 SSTORE PUSH2 0x4646 JUMP JUMPDEST ADD MLOAD PUSH1 0x0 NOT PUSH1 0xF8 DUP5 PUSH1 0x3 SHL AND SHR NOT AND SWAP1 SSTORE CODESIZE DUP1 DUP1 PUSH2 0x489F JUMP JUMPDEST SWAP3 SWAP4 PUSH1 0x20 PUSH1 0x1 DUP2 SWAP3 DUP8 DUP7 ADD MLOAD DUP2 SSTORE ADD SWAP6 ADD SWAP4 ADD PUSH2 0x4882 JUMP JUMPDEST PUSH2 0x4909 SWAP1 DUP5 PUSH1 0x0 MSTORE PUSH1 0x20 PUSH1 0x0 KECCAK256 PUSH1 0x1F DUP6 ADD PUSH1 0x5 SHR DUP2 ADD SWAP2 PUSH1 0x20 DUP7 LT PUSH2 0xFBB JUMPI PUSH1 0x1F ADD PUSH1 0x5 SHR ADD SWAP1 PUSH2 0x43F5 JUMP JUMPDEST CODESIZE PUSH2 0x460A JUMP JUMPDEST SWAP1 PUSH1 0x1F NOT DUP4 AND SWAP2 DUP5 PUSH1 0x0 MSTORE DUP2 PUSH1 0x0 KECCAK256 SWAP3 PUSH1 0x0 JUMPDEST DUP2 DUP2 LT PUSH2 0x495E JUMPI POP SWAP1 DUP5 PUSH1 0x1 SWAP6 SWAP5 SWAP4 SWAP3 LT PUSH2 0x4945 JUMPI JUMPDEST POP POP POP DUP2 SHL ADD SWAP1 SSTORE PUSH2 0x45C4 JUMP JUMPDEST ADD MLOAD PUSH1 0x0 NOT PUSH1 0xF8 DUP5 PUSH1 0x3 SHL AND SHR NOT AND SWAP1 SSTORE CODESIZE DUP1 DUP1 PUSH2 0x4938 JUMP JUMPDEST SWAP3 SWAP4 PUSH1 0x20 PUSH1 0x1 DUP2 SWAP3 DUP8 DUP7 ADD MLOAD DUP2 SSTORE ADD SWAP6 ADD SWAP4 ADD PUSH2 0x4922 JUMP JUMPDEST PUSH2 0x49A2 SWAP1 DUP5 PUSH1 0x0 MSTORE PUSH1 0x20 PUSH1 0x0 KECCAK256 PUSH1 0x1F DUP6 ADD PUSH1 0x5 SHR DUP2 ADD SWAP2 PUSH1 0x20 DUP7 LT PUSH2 0xFBB JUMPI PUSH1 0x1F ADD PUSH1 0x5 SHR ADD SWAP1 PUSH2 0x43F5 JUMP JUMPDEST CODESIZE PUSH2 0x4590 JUMP JUMPDEST SWAP1 PUSH1 0x1F NOT DUP4 AND SWAP2 DUP5 PUSH1 0x0 MSTORE DUP2 PUSH1 0x0 KECCAK256 SWAP3 PUSH1 0x0 JUMPDEST DUP2 DUP2 LT PUSH2 0x49F7 JUMPI POP SWAP1 DUP5 PUSH1 0x1 SWAP6 SWAP5 SWAP4 SWAP3 LT PUSH2 0x49DE JUMPI JUMPDEST POP POP POP DUP2 SHL ADD SWAP1 SSTORE PUSH2 0x4563 JUMP JUMPDEST ADD MLOAD PUSH1 0x0 NOT PUSH1 0xF8 DUP5 PUSH1 0x3 SHL AND SHR NOT AND SWAP1 SSTORE CODESIZE DUP1 DUP1 PUSH2 0x49D1 JUMP JUMPDEST SWAP3 SWAP4 PUSH1 0x20 PUSH1 0x1 DUP2 SWAP3 DUP8 DUP7 ADD MLOAD DUP2 SSTORE ADD SWAP6 ADD SWAP4 ADD PUSH2 0x49BB JUMP JUMPDEST PUSH2 0x4A3B SWAP1 DUP5 PUSH1 0x0 MSTORE PUSH1 0x20 PUSH1 0x0 KECCAK256 PUSH1 0x1F DUP6 ADD PUSH1 0x5 SHR DUP2 ADD SWAP2 PUSH1 0x20 DUP7 LT PUSH2 0xFBB JUMPI PUSH1 0x1F ADD PUSH1 0x5 SHR ADD SWAP1 PUSH2 0x43F5 JUMP JUMPDEST CODESIZE PUSH2 0x452F JUMP JUMPDEST PUSH1 0x1F NOT DUP3 AND SWAP6 DUP4 PUSH1 0x0 MSTORE DUP1 PUSH1 0x0 KECCAK256 SWAP2 PUSH1 0x0 JUMPDEST DUP9 DUP2 LT PUSH2 0x4A8E JUMPI POP DUP4 PUSH1 0x1 SWAP6 SWAP7 SWAP8 SWAP9 LT PUSH2 0x4A75 JUMPI JUMPDEST POP POP POP DUP2 SHL ADD DUP2 SSTORE PUSH2 0x4502 JUMP JUMPDEST ADD MLOAD PUSH1 0x0 NOT PUSH1 0xF8 DUP5 PUSH1 0x3 SHL AND SHR NOT AND SWAP1 SSTORE CODESIZE DUP1 DUP1 PUSH2 0x4A68 JUMP JUMPDEST SWAP2 SWAP3 PUSH1 0x20 PUSH1 0x1 DUP2 SWAP3 DUP7 DUP6 ADD MLOAD DUP2 SSTORE ADD SWAP5 ADD SWAP3 ADD PUSH2 0x4A53 JUMP JUMPDEST PUSH2 0x4AD2 SWAP1 DUP4 PUSH1 0x0 MSTORE PUSH1 0x20 PUSH1 0x0 KECCAK256 PUSH1 0x1F DUP5 ADD PUSH1 0x5 SHR DUP2 ADD SWAP2 PUSH1 0x20 DUP6 LT PUSH2 0xFBB JUMPI PUSH1 0x1F ADD PUSH1 0x5 SHR ADD SWAP1 PUSH2 0x43F5 JUMP JUMPDEST CODESIZE PUSH2 0x44CB JUMP JUMPDEST PUSH1 0x4 SLOAD PUSH1 0x1 PUSH1 0x40 SHL DUP2 LT ISZERO PUSH2 0xF03 JUMPI PUSH1 0x1 DUP2 ADD PUSH1 0x4 SSTORE PUSH1 0x0 PUSH1 0x4 SLOAD DUP3 LT ISZERO PUSH2 0x3751 JUMPI PUSH1 0x4 SWAP1 MSTORE PUSH1 0x3 SHL PUSH32 0x8A35ACFBC15FF81A39AE7D344FD709F28E8600B4AA8C65C6B64BFE7FE36BD19B ADD SWAP1 PUSH2 0x4B2D SWAP2 PUSH2 0x44A3 JUMP JUMPDEST JUMP JUMPDEST SWAP3 PUSH2 0x4B75 SWAP3 PUSH2 0x4B67 SWAP2 PUSH1 0xFF PUSH2 0x4B53 PUSH1 0xA0 SWAP9 SWAP6 SWAP12 SWAP11 SWAP10 SWAP12 PUSH1 0xC0 DUP10 MSTORE PUSH1 0xC0 DUP10 ADD SWAP1 PUSH2 0x3865 JUMP JUMPDEST SWAP3 AND PUSH1 0x20 DUP8 ADD MSTORE DUP6 DUP3 SUB PUSH1 0x40 DUP8 ADD MSTORE PUSH2 0x3865 JUMP JUMPDEST SWAP1 DUP4 DUP3 SUB PUSH1 0x60 DUP6 ADD MSTORE PUSH2 0x3865 JUMP JUMPDEST SWAP5 PUSH1 0x1 DUP1 DUP5 SHL SUB AND PUSH1 0x80 DUP3 ADD MSTORE ADD MSTORE JUMP JUMPDEST SWAP2 SWAP1 DUP1 MLOAD SWAP3 DUP4 MLOAD PUSH1 0x1 PUSH1 0x1 PUSH1 0x40 SHL SUB DUP2 GT PUSH2 0xF03 JUMPI PUSH2 0x4BA5 DUP3 SLOAD PUSH2 0x3954 JUMP JUMPDEST PUSH1 0x1F DUP2 GT PUSH2 0x5127 JUMPI JUMPDEST POP PUSH1 0x20 SWAP5 PUSH1 0x1F DUP3 GT PUSH1 0x1 EQ PUSH2 0x50C2 JUMPI PUSH2 0x4BE2 SWAP3 SWAP4 SWAP5 SWAP6 DUP3 SWAP2 PUSH1 0x0 SWAP3 PUSH2 0x1755 JUMPI POP POP DUP2 PUSH1 0x1 SHL SWAP2 PUSH1 0x0 NOT SWAP1 PUSH1 0x3 SHL SHR NOT AND OR SWAP1 JUMP JUMPDEST DUP2 SSTORE JUMPDEST PUSH1 0x1 DUP2 ADD PUSH1 0x20 DUP4 ADD MLOAD DUP1 MLOAD SWAP1 PUSH1 0x1 PUSH1 0x1 PUSH1 0x40 SHL SUB DUP3 GT PUSH2 0xF03 JUMPI PUSH2 0x4C09 DUP4 SLOAD PUSH2 0x3954 JUMP JUMPDEST PUSH1 0x1F DUP2 GT PUSH2 0x5090 JUMPI JUMPDEST POP PUSH1 0x20 SWAP1 PUSH1 0x1F DUP4 GT PUSH1 0x1 EQ PUSH2 0x5029 JUMPI PUSH2 0x4C43 SWAP3 SWAP2 PUSH1 0x0 SWAP2 DUP4 PUSH2 0x1755 JUMPI POP POP DUP2 PUSH1 0x1 SHL SWAP2 PUSH1 0x0 NOT SWAP1 PUSH1 0x3 SHL SHR NOT AND OR SWAP1 JUMP JUMPDEST SWAP1 SSTORE JUMPDEST PUSH1 0x2 DUP2 ADD PUSH1 0x40 DUP4 ADD MLOAD DUP1 MLOAD SWAP1 PUSH1 0x1 PUSH1 0x1 PUSH1 0x40 SHL SUB DUP3 GT PUSH2 0xF03 JUMPI PUSH2 0x4C6A DUP4 SLOAD PUSH2 0x3954 JUMP JUMPDEST PUSH1 0x1F DUP2 GT PUSH2 0x4FF7 JUMPI JUMPDEST POP PUSH1 0x20 SWAP1 PUSH1 0x1F DUP4 GT PUSH1 0x1 EQ PUSH2 0x4F90 JUMPI PUSH2 0x4CA4 SWAP3 SWAP2 PUSH1 0x0 SWAP2 DUP4 PUSH2 0x1755 JUMPI POP POP DUP2 PUSH1 0x1 SHL SWAP2 PUSH1 0x0 NOT SWAP1 PUSH1 0x3 SHL SHR NOT AND OR SWAP1 JUMP JUMPDEST SWAP1 SSTORE JUMPDEST PUSH1 0xFF PUSH1 0x60 DUP4 ADD MLOAD AND PUSH1 0xFF PUSH1 0x3 DUP4 ADD SWAP2 AND PUSH1 0xFF NOT DUP3 SLOAD AND OR SWAP1 SSTORE PUSH1 0x4 DUP2 ADD PUSH1 0x80 DUP4 ADD MLOAD DUP1 MLOAD SWAP1 PUSH1 0x1 PUSH1 0x1 PUSH1 0x40 SHL SUB DUP3 GT PUSH2 0xF03 JUMPI PUSH2 0x4CE4 DUP4 SLOAD PUSH2 0x3954 JUMP JUMPDEST PUSH1 0x1F DUP2 GT PUSH2 0x4F5E JUMPI JUMPDEST POP PUSH1 0x20 SWAP1 PUSH1 0x1F DUP4 GT PUSH1 0x1 EQ PUSH2 0x4EF1 JUMPI DUP3 PUSH1 0xA0 SWAP6 SWAP4 PUSH1 0x5 SWAP6 SWAP4 PUSH2 0x4D25 SWAP4 PUSH1 0x0 SWAP3 PUSH2 0x1755 JUMPI POP POP DUP2 PUSH1 0x1 SHL SWAP2 PUSH1 0x0 NOT SWAP1 PUSH1 0x3 SHL SHR NOT AND OR SWAP1 JUMP JUMPDEST SWAP1 SSTORE JUMPDEST ADD SWAP2 ADD MLOAD DUP1 MLOAD SWAP1 PUSH1 0x1 PUSH1 0x40 SHL DUP3 GT PUSH2 0xF03 JUMPI DUP3 SLOAD DUP3 DUP5 SSTORE DUP1 DUP4 LT PUSH2 0x4E73 JUMPI JUMPDEST POP PUSH1 0x20 ADD SWAP2 PUSH1 0x0 MSTORE PUSH1 0x20 PUSH1 0x0 KECCAK256 SWAP2 PUSH1 0x0 SWAP1 JUMPDEST DUP3 DUP3 LT PUSH2 0x4D66 JUMPI POP POP POP POP JUMP JUMPDEST DUP1 MLOAD DUP1 MLOAD SWAP1 PUSH1 0x1 PUSH1 0x1 PUSH1 0x40 SHL SUB DUP3 GT PUSH2 0xF03 JUMPI PUSH2 0x4D83 DUP7 SLOAD PUSH2 0x3954 JUMP JUMPDEST PUSH1 0x1F DUP2 GT PUSH2 0x4E41 JUMPI JUMPDEST POP PUSH1 0x20 SWAP1 PUSH1 0x1F DUP4 GT PUSH1 0x1 EQ PUSH2 0x4DD4 JUMPI SWAP3 PUSH2 0x4DC5 DUP4 PUSH1 0x1 SWAP6 SWAP5 PUSH1 0x20 SWAP5 DUP8 SWAP7 PUSH1 0x0 SWAP3 PUSH2 0x1755 JUMPI POP POP DUP2 PUSH1 0x1 SHL SWAP2 PUSH1 0x0 NOT SWAP1 PUSH1 0x3 SHL SHR NOT AND OR SWAP1 JUMP JUMPDEST DUP8 SSTORE JUMPDEST ADD SWAP5 ADD SWAP2 ADD SWAP1 SWAP3 PUSH2 0x4D59 JUMP JUMPDEST SWAP1 PUSH1 0x1F NOT DUP4 AND SWAP2 DUP8 PUSH1 0x0 MSTORE DUP2 PUSH1 0x0 KECCAK256 SWAP3 PUSH1 0x0 JUMPDEST DUP2 DUP2 LT PUSH2 0x4E29 JUMPI POP SWAP4 PUSH1 0x20 SWAP4 PUSH1 0x1 SWAP7 SWAP4 DUP8 SWAP7 SWAP4 DUP4 DUP9 SWAP6 LT PUSH2 0x4E10 JUMPI JUMPDEST POP POP POP DUP2 SHL ADD DUP8 SSTORE PUSH2 0x4DC8 JUMP JUMPDEST ADD MLOAD PUSH1 0x0 NOT PUSH1 0xF8 DUP5 PUSH1 0x3 SHL AND SHR NOT AND SWAP1 SSTORE CODESIZE DUP1 DUP1 PUSH2 0x4E03 JUMP JUMPDEST SWAP3 SWAP4 PUSH1 0x20 PUSH1 0x1 DUP2 SWAP3 DUP8 DUP7 ADD MLOAD DUP2 SSTORE ADD SWAP6 ADD SWAP4 ADD PUSH2 0x4DE7 JUMP JUMPDEST PUSH2 0x4E6D SWAP1 DUP8 PUSH1 0x0 MSTORE PUSH1 0x20 PUSH1 0x0 KECCAK256 PUSH1 0x1F DUP6 ADD PUSH1 0x5 SHR DUP2 ADD SWAP2 PUSH1 0x20 DUP7 LT PUSH2 0xFBB JUMPI PUSH1 0x1F ADD PUSH1 0x5 SHR ADD SWAP1 PUSH2 0x43F5 JUMP JUMPDEST CODESIZE PUSH2 0x4D8C JUMP JUMPDEST DUP4 PUSH1 0x0 MSTORE DUP3 PUSH1 0x20 PUSH1 0x0 KECCAK256 SWAP2 DUP3 ADD SWAP2 ADD JUMPDEST DUP2 DUP2 LT PUSH2 0x4E90 JUMPI POP PUSH2 0x4D47 JUMP JUMPDEST DUP1 PUSH2 0x4E9D PUSH1 0x1 SWAP3 SLOAD PUSH2 0x3954 JUMP JUMPDEST DUP1 PUSH2 0x4EAA JUMPI JUMPDEST POP ADD PUSH2 0x4E83 JUMP JUMPDEST PUSH1 0x1F DUP2 GT DUP4 EQ PUSH2 0x4EC0 JUMPI POP PUSH1 0x0 DUP2 SSTORE JUMPDEST CODESIZE PUSH2 0x4EA3 JUMP JUMPDEST PUSH2 0x4EDE SWAP1 DUP3 PUSH1 0x0 MSTORE DUP4 PUSH1 0x1F PUSH1 0x20 PUSH1 0x0 KECCAK256 SWAP3 ADD PUSH1 0x5 SHR DUP3 ADD SWAP2 ADD PUSH2 0x43F5 JUMP JUMPDEST DUP1 PUSH1 0x0 MSTORE PUSH1 0x0 PUSH1 0x20 DUP2 KECCAK256 DUP2 DUP4 SSTORE SSTORE PUSH2 0x4EBA JUMP JUMPDEST SWAP1 PUSH1 0x1F NOT DUP4 AND SWAP2 DUP5 PUSH1 0x0 MSTORE DUP2 PUSH1 0x0 KECCAK256 SWAP3 PUSH1 0x0 JUMPDEST DUP2 DUP2 LT PUSH2 0x4F46 JUMPI POP SWAP3 PUSH1 0x1 SWAP3 DUP6 SWAP3 PUSH1 0xA0 SWAP9 SWAP7 PUSH1 0x5 SWAP9 SWAP7 LT PUSH2 0x4F2D JUMPI JUMPDEST POP POP POP DUP2 SHL ADD SWAP1 SSTORE PUSH2 0x4D28 JUMP JUMPDEST ADD MLOAD PUSH1 0x0 NOT PUSH1 0xF8 DUP5 PUSH1 0x3 SHL AND SHR NOT AND SWAP1 SSTORE CODESIZE DUP1 DUP1 PUSH2 0x4F20 JUMP JUMPDEST SWAP3 SWAP4 PUSH1 0x20 PUSH1 0x1 DUP2 SWAP3 DUP8 DUP7 ADD MLOAD DUP2 SSTORE ADD SWAP6 ADD SWAP4 ADD PUSH2 0x4F04 JUMP JUMPDEST PUSH2 0x4F8A SWAP1 DUP5 PUSH1 0x0 MSTORE PUSH1 0x20 PUSH1 0x0 KECCAK256 PUSH1 0x1F DUP6 ADD PUSH1 0x5 SHR DUP2 ADD SWAP2 PUSH1 0x20 DUP7 LT PUSH2 0xFBB JUMPI PUSH1 0x1F ADD PUSH1 0x5 SHR ADD SWAP1 PUSH2 0x43F5 JUMP JUMPDEST CODESIZE PUSH2 0x4CED JUMP JUMPDEST SWAP1 PUSH1 0x1F NOT DUP4 AND SWAP2 DUP5 PUSH1 0x0 MSTORE DUP2 PUSH1 0x0 KECCAK256 SWAP3 PUSH1 0x0 JUMPDEST DUP2 DUP2 LT PUSH2 0x4FDF JUMPI POP SWAP1 DUP5 PUSH1 0x1 SWAP6 SWAP5 SWAP4 SWAP3 LT PUSH2 0x4FC6 JUMPI JUMPDEST POP POP POP DUP2 SHL ADD SWAP1 SSTORE PUSH2 0x4CA7 JUMP JUMPDEST ADD MLOAD PUSH1 0x0 NOT PUSH1 0xF8 DUP5 PUSH1 0x3 SHL AND SHR NOT AND SWAP1 SSTORE CODESIZE DUP1 DUP1 PUSH2 0x4FB9 JUMP JUMPDEST SWAP3 SWAP4 PUSH1 0x20 PUSH1 0x1 DUP2 SWAP3 DUP8 DUP7 ADD MLOAD DUP2 SSTORE ADD SWAP6 ADD SWAP4 ADD PUSH2 0x4FA3 JUMP JUMPDEST PUSH2 0x5023 SWAP1 DUP5 PUSH1 0x0 MSTORE PUSH1 0x20 PUSH1 0x0 KECCAK256 PUSH1 0x1F DUP6 ADD PUSH1 0x5 SHR DUP2 ADD SWAP2 PUSH1 0x20 DUP7 LT PUSH2 0xFBB JUMPI PUSH1 0x1F ADD PUSH1 0x5 SHR ADD SWAP1 PUSH2 0x43F5 JUMP JUMPDEST CODESIZE PUSH2 0x4C73 JUMP JUMPDEST SWAP1 PUSH1 0x1F NOT DUP4 AND SWAP2 DUP5 PUSH1 0x0 MSTORE DUP2 PUSH1 0x0 KECCAK256 SWAP3 PUSH1 0x0 JUMPDEST DUP2 DUP2 LT PUSH2 0x5078 JUMPI POP SWAP1 DUP5 PUSH1 0x1 SWAP6 SWAP5 SWAP4 SWAP3 LT PUSH2 0x505F JUMPI JUMPDEST POP POP POP DUP2 SHL ADD SWAP1 SSTORE PUSH2 0x4C46 JUMP JUMPDEST ADD MLOAD PUSH1 0x0 NOT PUSH1 0xF8 DUP5 PUSH1 0x3 SHL AND SHR NOT AND SWAP1 SSTORE CODESIZE DUP1 DUP1 PUSH2 0x5052 JUMP JUMPDEST SWAP3 SWAP4 PUSH1 0x20 PUSH1 0x1 DUP2 SWAP3 DUP8 DUP7 ADD MLOAD DUP2 SSTORE ADD SWAP6 ADD SWAP4 ADD PUSH2 0x503C JUMP JUMPDEST PUSH2 0x50BC SWAP1 DUP5 PUSH1 0x0 MSTORE PUSH1 0x20 PUSH1 0x0 KECCAK256 PUSH1 0x1F DUP6 ADD PUSH1 0x5 SHR DUP2 ADD SWAP2 PUSH1 0x20 DUP7 LT PUSH2 0xFBB JUMPI PUSH1 0x1F ADD PUSH1 0x5 SHR ADD SWAP1 PUSH2 0x43F5 JUMP JUMPDEST CODESIZE PUSH2 0x4C12 JUMP JUMPDEST PUSH1 0x1F NOT DUP3 AND SWAP6 DUP4 PUSH1 0x0 MSTORE DUP1 PUSH1 0x0 KECCAK256 SWAP2 PUSH1 0x0 JUMPDEST DUP9 DUP2 LT PUSH2 0x510F JUMPI POP DUP4 PUSH1 0x1 SWAP6 SWAP7 SWAP8 SWAP9 LT PUSH2 0x50F6 JUMPI JUMPDEST POP POP POP DUP2 SHL ADD DUP2 SSTORE PUSH2 0x4BE5 JUMP JUMPDEST ADD MLOAD PUSH1 0x0 NOT PUSH1 0xF8 DUP5 PUSH1 0x3 SHL AND SHR NOT AND SWAP1 SSTORE CODESIZE DUP1 DUP1 PUSH2 0x50E9 JUMP JUMPDEST SWAP2 SWAP3 PUSH1 0x20 PUSH1 0x1 DUP2 SWAP3 DUP7 DUP6 ADD MLOAD DUP2 SSTORE ADD SWAP5 ADD SWAP3 ADD PUSH2 0x50D4 JUMP JUMPDEST PUSH2 0x5153 SWAP1 DUP4 PUSH1 0x0 MSTORE PUSH1 0x20 PUSH1 0x0 KECCAK256 PUSH1 0x1F DUP5 ADD PUSH1 0x5 SHR DUP2 ADD SWAP2 PUSH1 0x20 DUP6 LT PUSH2 0xFBB JUMPI PUSH1 0x1F ADD PUSH1 0x5 SHR ADD SWAP1 PUSH2 0x43F5 JUMP JUMPDEST CODESIZE PUSH2 0x4BAE JUMP JUMPDEST PUSH1 0x3 SLOAD PUSH1 0x1 PUSH1 0x40 SHL DUP2 LT ISZERO PUSH2 0xF03 JUMPI PUSH1 0x1 DUP2 ADD PUSH1 0x3 SSTORE PUSH1 0x0 PUSH1 0x3 SLOAD DUP3 LT ISZERO PUSH2 0x3751 JUMPI PUSH1 0x3 SWAP1 MSTORE PUSH1 0x6 MUL PUSH32 0xC2575A0E9E593C00F959F8C92F12DB2869C3395A3B0502D05E2516446F71F85B ADD SWAP1 PUSH2 0x4B2D SWAP2 PUSH2 0x4B86 JUMP JUMPDEST SWAP1 SWAP2 DUP3 MLOAD SWAP3 DUP4 MLOAD PUSH1 0x1 PUSH1 0x1 PUSH1 0x40 SHL SUB DUP2 GT PUSH2 0xF03 JUMPI PUSH2 0x51CD DUP5 SLOAD PUSH2 0x3954 JUMP JUMPDEST PUSH1 0x1F DUP2 GT PUSH2 0x5A4C JUMPI JUMPDEST POP PUSH1 0x20 SWAP5 PUSH1 0x1F DUP3 GT PUSH1 0x1 EQ PUSH2 0x59E7 JUMPI PUSH2 0x520A SWAP3 SWAP4 SWAP5 SWAP6 DUP3 SWAP2 PUSH1 0x0 SWAP3 PUSH2 0x1755 JUMPI POP POP DUP2 PUSH1 0x1 SHL SWAP2 PUSH1 0x0 NOT SWAP1 PUSH1 0x3 SHL SHR NOT AND OR SWAP1 JUMP JUMPDEST DUP4 SSTORE JUMPDEST PUSH1 0x1 DUP4 ADD PUSH1 0x20 DUP3 ADD MLOAD DUP1 MLOAD SWAP1 PUSH1 0x1 PUSH1 0x1 PUSH1 0x40 SHL SUB DUP3 GT PUSH2 0xF03 JUMPI PUSH2 0x5231 DUP4 SLOAD PUSH2 0x3954 JUMP JUMPDEST PUSH1 0x1F DUP2 GT PUSH2 0x59B5 JUMPI JUMPDEST POP PUSH1 0x20 SWAP1 PUSH1 0x1F DUP4 GT PUSH1 0x1 EQ PUSH2 0x594E JUMPI PUSH2 0x526B SWAP3 SWAP2 PUSH1 0x0 SWAP2 DUP4 PUSH2 0x1755 JUMPI POP POP DUP2 PUSH1 0x1 SHL SWAP2 PUSH1 0x0 NOT SWAP1 PUSH1 0x3 SHL SHR NOT AND OR SWAP1 JUMP JUMPDEST SWAP1 SSTORE JUMPDEST PUSH1 0x2 DUP4 ADD PUSH1 0x40 DUP3 ADD MLOAD DUP1 MLOAD SWAP1 PUSH1 0x1 PUSH1 0x1 PUSH1 0x40 SHL SUB DUP3 GT PUSH2 0xF03 JUMPI PUSH2 0x5292 DUP4 SLOAD PUSH2 0x3954 JUMP JUMPDEST PUSH1 0x1F DUP2 GT PUSH2 0x591C JUMPI JUMPDEST POP PUSH1 0x20 SWAP1 PUSH1 0x1F DUP4 GT PUSH1 0x1 EQ PUSH2 0x58B5 JUMPI PUSH2 0x52CC SWAP3 SWAP2 PUSH1 0x0 SWAP2 DUP4 PUSH2 0x1755 JUMPI POP POP DUP2 PUSH1 0x1 SHL SWAP2 PUSH1 0x0 NOT SWAP1 PUSH1 0x3 SHL SHR NOT AND OR SWAP1 JUMP JUMPDEST SWAP1 SSTORE JUMPDEST PUSH1 0x3 DUP4 ADD PUSH1 0x60 DUP3 ADD MLOAD DUP1 MLOAD SWAP1 PUSH1 0x1 PUSH1 0x40 SHL DUP3 GT PUSH2 0xF03 JUMPI DUP3 SLOAD DUP3 DUP5 SSTORE DUP1 DUP4 LT PUSH2 0x5837 JUMPI JUMPDEST POP PUSH1 0x20 ADD SWAP2 PUSH1 0x0 MSTORE PUSH1 0x20 PUSH1 0x0 KECCAK256 SWAP2 PUSH1 0x0 SWAP1 JUMPDEST DUP3 DUP3 LT PUSH2 0x572A JUMPI POP POP POP POP PUSH1 0x4 DUP4 ADD PUSH1 0x80 DUP3 ADD MLOAD DUP1 MLOAD SWAP1 PUSH1 0x1 PUSH1 0x1 PUSH1 0x40 SHL SUB DUP3 GT PUSH2 0xF03 JUMPI PUSH2 0x5334 DUP4 SLOAD PUSH2 0x3954 JUMP JUMPDEST PUSH1 0x1F DUP2 GT PUSH2 0x56F8 JUMPI JUMPDEST POP PUSH1 0x20 SWAP1 PUSH1 0x1F DUP4 GT PUSH1 0x1 EQ PUSH2 0x5691 JUMPI PUSH2 0x536E SWAP3 SWAP2 PUSH1 0x0 SWAP2 DUP4 PUSH2 0x1755 JUMPI POP POP DUP2 PUSH1 0x1 SHL SWAP2 PUSH1 0x0 NOT SWAP1 PUSH1 0x3 SHL SHR NOT AND OR SWAP1 JUMP JUMPDEST SWAP1 SSTORE JUMPDEST PUSH1 0x5 DUP4 ADD PUSH1 0xA0 DUP3 ADD MLOAD DUP1 MLOAD SWAP1 PUSH1 0x1 PUSH1 0x40 SHL DUP3 GT PUSH2 0xF03 JUMPI DUP3 SLOAD DUP3 DUP5 SSTORE DUP1 DUP4 LT PUSH2 0x5613 JUMPI JUMPDEST POP PUSH1 0x20 ADD SWAP2 PUSH1 0x0 MSTORE PUSH1 0x20 PUSH1 0x0 KECCAK256 SWAP2 PUSH1 0x0 SWAP1 JUMPDEST DUP3 DUP3 LT PUSH2 0x5506 JUMPI POP POP POP POP PUSH1 0xC0 DUP2 ADD MLOAD SWAP3 PUSH1 0x6 DUP2 ADD PUSH1 0x2 DUP6 LT ISZERO PUSH2 0x2E3E JUMPI PUSH2 0x140 SWAP2 PUSH1 0x9 SWAP2 PUSH1 0x0 SWAP7 PUSH1 0xFF DUP1 NOT DUP4 SLOAD AND SWAP2 AND OR DUP2 SSTORE PUSH1 0xE0 DUP6 ADD MLOAD PUSH2 0x53E9 DUP2 PUSH2 0x3A85 JUMP JUMPDEST PUSH2 0x53F2 DUP2 PUSH2 0x3A85 JUMP JUMPDEST PUSH2 0xFF00 DUP3 SLOAD SWAP2 PUSH1 0x8 SHL AND SWAP1 PUSH2 0xFF00 NOT AND OR SWAP1 SSTORE PUSH2 0x100 DUP5 ADD MLOAD PUSH1 0x7 DUP3 ADD SSTORE PUSH2 0x120 DUP5 ADD MLOAD PUSH1 0x8 DUP3 ADD SSTORE ADD SWAP2 ADD MLOAD SWAP3 DUP4 MLOAD SWAP1 PUSH1 0x1 PUSH1 0x1 PUSH1 0x40 SHL SUB DUP3 GT PUSH2 0x3D8A JUMPI PUSH2 0x543B DUP4 SLOAD PUSH2 0x3954 JUMP JUMPDEST PUSH1 0x1F DUP2 GT PUSH2 0x54D6 JUMPI JUMPDEST POP PUSH1 0x20 SWAP1 PUSH1 0x1F DUP4 GT PUSH1 0x1 EQ PUSH2 0x5478 JUMPI SWAP1 PUSH2 0x5474 SWAP4 SWAP5 SWAP6 DUP4 PUSH2 0x1755 JUMPI POP POP DUP2 PUSH1 0x1 SHL SWAP2 PUSH1 0x0 NOT SWAP1 PUSH1 0x3 SHL SHR NOT AND OR SWAP1 JUMP JUMPDEST SWAP1 SSTORE JUMP JUMPDEST SWAP1 PUSH1 0x1F NOT DUP4 AND DUP5 DUP4 MSTORE DUP2 DUP4 KECCAK256 SWAP3 JUMPDEST DUP2 DUP2 LT PUSH2 0x54BE JUMPI POP SWAP6 DUP4 PUSH1 0x1 SWAP6 SWAP7 SWAP8 LT PUSH2 0x54A5 JUMPI JUMPDEST POP POP POP DUP2 SHL ADD SWAP1 SSTORE JUMP JUMPDEST ADD MLOAD PUSH1 0x0 NOT PUSH1 0xF8 DUP5 PUSH1 0x3 SHL AND SHR NOT AND SWAP1 SSTORE CODESIZE DUP1 DUP1 PUSH2 0x549B JUMP JUMPDEST SWAP2 SWAP3 PUSH1 0x20 PUSH1 0x1 DUP2 SWAP3 DUP7 DUP12 ADD MLOAD DUP2 SSTORE ADD SWAP5 ADD SWAP3 ADD PUSH2 0x5486 JUMP JUMPDEST PUSH2 0x5500 SWAP1 DUP5 DUP4 MSTORE PUSH1 0x20 DUP4 KECCAK256 PUSH1 0x1F DUP6 ADD PUSH1 0x5 SHR DUP2 ADD SWAP2 PUSH1 0x20 DUP7 LT PUSH2 0xFBB JUMPI PUSH1 0x1F ADD PUSH1 0x5 SHR ADD SWAP1 PUSH2 0x43F5 JUMP JUMPDEST CODESIZE PUSH2 0x5444 JUMP JUMPDEST DUP1 MLOAD DUP1 MLOAD SWAP1 PUSH1 0x1 PUSH1 0x1 PUSH1 0x40 SHL SUB DUP3 GT PUSH2 0xF03 JUMPI PUSH2 0x5523 DUP7 SLOAD PUSH2 0x3954 JUMP JUMPDEST PUSH1 0x1F DUP2 GT PUSH2 0x55E1 JUMPI JUMPDEST POP PUSH1 0x20 SWAP1 PUSH1 0x1F DUP4 GT PUSH1 0x1 EQ PUSH2 0x5574 JUMPI SWAP3 PUSH2 0x5565 DUP4 PUSH1 0x1 SWAP6 SWAP5 PUSH1 0x20 SWAP5 DUP8 SWAP7 PUSH1 0x0 SWAP3 PUSH2 0x1755 JUMPI POP POP DUP2 PUSH1 0x1 SHL SWAP2 PUSH1 0x0 NOT SWAP1 PUSH1 0x3 SHL SHR NOT AND OR SWAP1 JUMP JUMPDEST DUP8 SSTORE JUMPDEST ADD SWAP5 ADD SWAP2 ADD SWAP1 SWAP3 PUSH2 0x53A7 JUMP JUMPDEST SWAP1 PUSH1 0x1F NOT DUP4 AND SWAP2 DUP8 PUSH1 0x0 MSTORE DUP2 PUSH1 0x0 KECCAK256 SWAP3 PUSH1 0x0 JUMPDEST DUP2 DUP2 LT PUSH2 0x55C9 JUMPI POP SWAP4 PUSH1 0x20 SWAP4 PUSH1 0x1 SWAP7 SWAP4 DUP8 SWAP7 SWAP4 DUP4 DUP9 SWAP6 LT PUSH2 0x55B0 JUMPI JUMPDEST POP POP POP DUP2 SHL ADD DUP8 SSTORE PUSH2 0x5568 JUMP JUMPDEST ADD MLOAD PUSH1 0x0 NOT PUSH1 0xF8 DUP5 PUSH1 0x3 SHL AND SHR NOT AND SWAP1 SSTORE CODESIZE DUP1 DUP1 PUSH2 0x55A3 JUMP JUMPDEST SWAP3 SWAP4 PUSH1 0x20 PUSH1 0x1 DUP2 SWAP3 DUP8 DUP7 ADD MLOAD DUP2 SSTORE ADD SWAP6 ADD SWAP4 ADD PUSH2 0x5587 JUMP JUMPDEST PUSH2 0x560D SWAP1 DUP8 PUSH1 0x0 MSTORE PUSH1 0x20 PUSH1 0x0 KECCAK256 PUSH1 0x1F DUP6 ADD PUSH1 0x5 SHR DUP2 ADD SWAP2 PUSH1 0x20 DUP7 LT PUSH2 0xFBB JUMPI PUSH1 0x1F ADD PUSH1 0x5 SHR ADD SWAP1 PUSH2 0x43F5 JUMP JUMPDEST CODESIZE PUSH2 0x552C JUMP JUMPDEST DUP4 PUSH1 0x0 MSTORE DUP3 PUSH1 0x20 PUSH1 0x0 KECCAK256 SWAP2 DUP3 ADD SWAP2 ADD JUMPDEST DUP2 DUP2 LT PUSH2 0x5630 JUMPI POP PUSH2 0x5395 JUMP JUMPDEST DUP1 PUSH2 0x563D PUSH1 0x1 SWAP3 SLOAD PUSH2 0x3954 JUMP JUMPDEST DUP1 PUSH2 0x564A JUMPI JUMPDEST POP ADD PUSH2 0x5623 JUMP JUMPDEST PUSH1 0x1F DUP2 GT DUP4 EQ PUSH2 0x5660 JUMPI POP PUSH1 0x0 DUP2 SSTORE JUMPDEST CODESIZE PUSH2 0x5643 JUMP JUMPDEST PUSH2 0x567E SWAP1 DUP3 PUSH1 0x0 MSTORE DUP4 PUSH1 0x1F PUSH1 0x20 PUSH1 0x0 KECCAK256 SWAP3 ADD PUSH1 0x5 SHR DUP3 ADD SWAP2 ADD PUSH2 0x43F5 JUMP JUMPDEST DUP1 PUSH1 0x0 MSTORE PUSH1 0x0 PUSH1 0x20 DUP2 KECCAK256 DUP2 DUP4 SSTORE SSTORE PUSH2 0x565A JUMP JUMPDEST SWAP1 PUSH1 0x1F NOT DUP4 AND SWAP2 DUP5 PUSH1 0x0 MSTORE DUP2 PUSH1 0x0 KECCAK256 SWAP3 PUSH1 0x0 JUMPDEST DUP2 DUP2 LT PUSH2 0x56E0 JUMPI POP SWAP1 DUP5 PUSH1 0x1 SWAP6 SWAP5 SWAP4 SWAP3 LT PUSH2 0x56C7 JUMPI JUMPDEST POP POP POP DUP2 SHL ADD SWAP1 SSTORE PUSH2 0x5371 JUMP JUMPDEST ADD MLOAD PUSH1 0x0 NOT PUSH1 0xF8 DUP5 PUSH1 0x3 SHL AND SHR NOT AND SWAP1 SSTORE CODESIZE DUP1 DUP1 PUSH2 0x56BA JUMP JUMPDEST SWAP3 SWAP4 PUSH1 0x20 PUSH1 0x1 DUP2 SWAP3 DUP8 DUP7 ADD MLOAD DUP2 SSTORE ADD SWAP6 ADD SWAP4 ADD PUSH2 0x56A4 JUMP JUMPDEST PUSH2 0x5724 SWAP1 DUP5 PUSH1 0x0 MSTORE PUSH1 0x20 PUSH1 0x0 KECCAK256 PUSH1 0x1F DUP6 ADD PUSH1 0x5 SHR DUP2 ADD SWAP2 PUSH1 0x20 DUP7 LT PUSH2 0xFBB JUMPI PUSH1 0x1F ADD PUSH1 0x5 SHR ADD SWAP1 PUSH2 0x43F5 JUMP JUMPDEST CODESIZE PUSH2 0x533D JUMP JUMPDEST DUP1 MLOAD DUP1 MLOAD SWAP1 PUSH1 0x1 PUSH1 0x1 PUSH1 0x40 SHL SUB DUP3 GT PUSH2 0xF03 JUMPI PUSH2 0x5747 DUP7 SLOAD PUSH2 0x3954 JUMP JUMPDEST PUSH1 0x1F DUP2 GT PUSH2 0x5805 JUMPI JUMPDEST POP PUSH1 0x20 SWAP1 PUSH1 0x1F DUP4 GT PUSH1 0x1 EQ PUSH2 0x5798 JUMPI SWAP3 PUSH2 0x5789 DUP4 PUSH1 0x1 SWAP6 SWAP5 PUSH1 0x20 SWAP5 DUP8 SWAP7 PUSH1 0x0 SWAP3 PUSH2 0x1755 JUMPI POP POP DUP2 PUSH1 0x1 SHL SWAP2 PUSH1 0x0 NOT SWAP1 PUSH1 0x3 SHL SHR NOT AND OR SWAP1 JUMP JUMPDEST DUP8 SSTORE JUMPDEST ADD SWAP5 ADD SWAP2 ADD SWAP1 SWAP3 PUSH2 0x5305 JUMP JUMPDEST SWAP1 PUSH1 0x1F NOT DUP4 AND SWAP2 DUP8 PUSH1 0x0 MSTORE DUP2 PUSH1 0x0 KECCAK256 SWAP3 PUSH1 0x0 JUMPDEST DUP2 DUP2 LT PUSH2 0x57ED JUMPI POP SWAP4 PUSH1 0x20 SWAP4 PUSH1 0x1 SWAP7 SWAP4 DUP8 SWAP7 SWAP4 DUP4 DUP9 SWAP6 LT PUSH2 0x57D4 JUMPI JUMPDEST POP POP POP DUP2 SHL ADD DUP8 SSTORE PUSH2 0x578C JUMP JUMPDEST ADD MLOAD PUSH1 0x0 NOT PUSH1 0xF8 DUP5 PUSH1 0x3 SHL AND SHR NOT AND SWAP1 SSTORE CODESIZE DUP1 DUP1 PUSH2 0x57C7 JUMP JUMPDEST SWAP3 SWAP4 PUSH1 0x20 PUSH1 0x1 DUP2 SWAP3 DUP8 DUP7 ADD MLOAD DUP2 SSTORE ADD SWAP6 ADD SWAP4 ADD PUSH2 0x57AB JUMP JUMPDEST PUSH2 0x5831 SWAP1 DUP8 PUSH1 0x0 MSTORE PUSH1 0x20 PUSH1 0x0 KECCAK256 PUSH1 0x1F DUP6 ADD PUSH1 0x5 SHR DUP2 ADD SWAP2 PUSH1 0x20 DUP7 LT PUSH2 0xFBB JUMPI PUSH1 0x1F ADD PUSH1 0x5 SHR ADD SWAP1 PUSH2 0x43F5 JUMP JUMPDEST CODESIZE PUSH2 0x5750 JUMP JUMPDEST DUP4 PUSH1 0x0 MSTORE DUP3 PUSH1 0x20 PUSH1 0x0 KECCAK256 SWAP2 DUP3 ADD SWAP2 ADD JUMPDEST DUP2 DUP2 LT PUSH2 0x5854 JUMPI POP PUSH2 0x52F3 JUMP JUMPDEST DUP1 PUSH2 0x5861 PUSH1 0x1 SWAP3 SLOAD PUSH2 0x3954 JUMP JUMPDEST DUP1 PUSH2 0x586E JUMPI JUMPDEST POP ADD PUSH2 0x5847 JUMP JUMPDEST PUSH1 0x1F DUP2 GT DUP4 EQ PUSH2 0x5884 JUMPI POP PUSH1 0x0 DUP2 SSTORE JUMPDEST CODESIZE PUSH2 0x5867 JUMP JUMPDEST PUSH2 0x58A2 SWAP1 DUP3 PUSH1 0x0 MSTORE DUP4 PUSH1 0x1F PUSH1 0x20 PUSH1 0x0 KECCAK256 SWAP3 ADD PUSH1 0x5 SHR DUP3 ADD SWAP2 ADD PUSH2 0x43F5 JUMP JUMPDEST DUP1 PUSH1 0x0 MSTORE PUSH1 0x0 PUSH1 0x20 DUP2 KECCAK256 DUP2 DUP4 SSTORE SSTORE PUSH2 0x587E JUMP JUMPDEST SWAP1 PUSH1 0x1F NOT DUP4 AND SWAP2 DUP5 PUSH1 0x0 MSTORE DUP2 PUSH1 0x0 KECCAK256 SWAP3 PUSH1 0x0 JUMPDEST DUP2 DUP2 LT PUSH2 0x5904 JUMPI POP SWAP1 DUP5 PUSH1 0x1 SWAP6 SWAP5 SWAP4 SWAP3 LT PUSH2 0x58EB JUMPI JUMPDEST POP POP POP DUP2 SHL ADD SWAP1 SSTORE PUSH2 0x52CF JUMP JUMPDEST ADD MLOAD PUSH1 0x0 NOT PUSH1 0xF8 DUP5 PUSH1 0x3 SHL AND SHR NOT AND SWAP1 SSTORE CODESIZE DUP1 DUP1 PUSH2 0x58DE JUMP JUMPDEST SWAP3 SWAP4 PUSH1 0x20 PUSH1 0x1 DUP2 SWAP3 DUP8 DUP7 ADD MLOAD DUP2 SSTORE ADD SWAP6 ADD SWAP4 ADD PUSH2 0x58C8 JUMP JUMPDEST PUSH2 0x5948 SWAP1 DUP5 PUSH1 0x0 MSTORE PUSH1 0x20 PUSH1 0x0 KECCAK256 PUSH1 0x1F DUP6 ADD PUSH1 0x5 SHR DUP2 ADD SWAP2 PUSH1 0x20 DUP7 LT PUSH2 0xFBB JUMPI PUSH1 0x1F ADD PUSH1 0x5 SHR ADD SWAP1 PUSH2 0x43F5 JUMP JUMPDEST CODESIZE PUSH2 0x529B JUMP JUMPDEST SWAP1 PUSH1 0x1F NOT DUP4 AND SWAP2 DUP5 PUSH1 0x0 MSTORE DUP2 PUSH1 0x0 KECCAK256 SWAP3 PUSH1 0x0 JUMPDEST DUP2 DUP2 LT PUSH2 0x599D JUMPI POP SWAP1 DUP5 PUSH1 0x1 SWAP6 SWAP5 SWAP4 SWAP3 LT PUSH2 0x5984 JUMPI JUMPDEST POP POP POP DUP2 SHL ADD SWAP1 SSTORE PUSH2 0x526E JUMP JUMPDEST ADD MLOAD PUSH1 0x0 NOT PUSH1 0xF8 DUP5 PUSH1 0x3 SHL AND SHR NOT AND SWAP1 SSTORE CODESIZE DUP1 DUP1 PUSH2 0x5977 JUMP JUMPDEST SWAP3 SWAP4 PUSH1 0x20 PUSH1 0x1 DUP2 SWAP3 DUP8 DUP7 ADD MLOAD DUP2 SSTORE ADD SWAP6 ADD SWAP4 ADD PUSH2 0x5961 JUMP JUMPDEST PUSH2 0x59E1 SWAP1 DUP5 PUSH1 0x0 MSTORE PUSH1 0x20 PUSH1 0x0 KECCAK256 PUSH1 0x1F DUP6 ADD PUSH1 0x5 SHR DUP2 ADD SWAP2 PUSH1 0x20 DUP7 LT PUSH2 0xFBB JUMPI PUSH1 0x1F ADD PUSH1 0x5 SHR ADD SWAP1 PUSH2 0x43F5 JUMP JUMPDEST CODESIZE PUSH2 0x523A JUMP JUMPDEST PUSH1 0x1F NOT DUP3 AND SWAP6 DUP6 PUSH1 0x0 MSTORE DUP1 PUSH1 0x0 KECCAK256 SWAP2 PUSH1 0x0 JUMPDEST DUP9 DUP2 LT PUSH2 0x5A34 JUMPI POP DUP4 PUSH1 0x1 SWAP6 SWAP7 SWAP8 SWAP9 LT PUSH2 0x5A1B JUMPI JUMPDEST POP POP POP DUP2 SHL ADD DUP4 SSTORE PUSH2 0x520D JUMP JUMPDEST ADD MLOAD PUSH1 0x0 NOT PUSH1 0xF8 DUP5 PUSH1 0x3 SHL AND SHR NOT AND SWAP1 SSTORE CODESIZE DUP1 DUP1 PUSH2 0x5A0E JUMP JUMPDEST SWAP2 SWAP3 PUSH1 0x20 PUSH1 0x1 DUP2 SWAP3 DUP7 DUP6 ADD MLOAD DUP2 SSTORE ADD SWAP5 ADD SWAP3 ADD PUSH2 0x59F9 JUMP JUMPDEST PUSH2 0x5A78 SWAP1 DUP6 PUSH1 0x0 MSTORE PUSH1 0x20 PUSH1 0x0 KECCAK256 PUSH1 0x1F DUP5 ADD PUSH1 0x5 SHR DUP2 ADD SWAP2 PUSH1 0x20 DUP6 LT PUSH2 0xFBB JUMPI PUSH1 0x1F ADD PUSH1 0x5 SHR ADD SWAP1 PUSH2 0x43F5 JUMP JUMPDEST CODESIZE PUSH2 0x51D6 JUMP INVALID LOG2 PUSH5 0x6970667358 0x22 SLT KECCAK256 0x27 0x26 XOR 0xBD SDIV STATICCALL RETURNDATASIZE 0xD0 GAS PREVRANDAO DUP8 DIV 0xC4 0xA7 PUSH5 0x3E2F9C299A RETURNDATASIZE 0xC1 0xAA 0xB8 0x22 GT 0xEA 0x4E PUSH24 0x117D5064736F6C634300081B003300000000000000000000 "},"methodIdentifiers":{"addQuantityObat(string,string,string,uint8,string,string[])":"d19487e4","allObatData(uint256)":"7aad01bd","allOrderedObat(uint256)":"0a04f9c8","allProducedObat(uint256)":"7d08414f","approveNie(string,address,string,string,string)":"7ade51dd","bpomAddresses(string)":"1c0b2030","bpomInstanceNames(string)":"9d9315c2","bpomUserNames(string)":"f1022862","createObat(string,string,string,string[],string,string[],address,string,string,uint8)":"d9d284dc","factoryAddresses(string)":"4b87568a","factoryInstanceNames(string)":"a812536d","factoryUserNames(string)":"349a7a72","getAllProducedObat()":"1a95e672","getDetailProducedObatById(string)":"b896cb9a","getJenisSediaanAvail(string)":"d44faa63","getListAllObatNie()":"e06749ba","getListAllProducedObat()":"01d62d3b","getListAllProducedObatByFactory(string)":"92b385c9","getListObatByFactory(string)":"1dce6e58","getListObatById(string)":"25606bc3","mainSupplyChain()":"9413fcfd","obatDetailsById(string)":"27321837","obatProductionDetailsById(string)":"998c1fcb","orderObatById(string)":"86f5cea6","pbfOrder(string,string,string,uint8,address,string)":"bb43bdf7","requestNie(string)":"bc4a6f6c","retailerOrder(string,string,string,uint8,address,string,string[])":"b7e66568","roleManager()":"00435da5","userRoles(address)":"74d5e100"}}}}}