{"contracts/ObatTradisional.sol":{"ObatTradisional":{"abi":[{"inputs":[{"internalType":"address","name":"_roleManagerAddr","type":"address"},{"internalType":"address","name":"_mainSupplyChainAddr","type":"address"}],"stateMutability":"nonpayable","type":"constructor"},{"anonymous":false,"inputs":[{"indexed":false,"internalType":"string","name":"nieNumber","type":"string"},{"indexed":false,"internalType":"string","name":"namaProduk","type":"string"}],"name":"evt_nieApproved","type":"event"},{"anonymous":false,"inputs":[{"indexed":false,"internalType":"string","name":"obatId","type":"string"},{"indexed":false,"internalType":"uint256","name":"timestampRequested","type":"uint256"},{"indexed":false,"internalType":"string","name":"namaProduk","type":"string"}],"name":"evt_nieRequested","type":"event"},{"anonymous":false,"inputs":[{"indexed":false,"internalType":"string","name":"namaProduk","type":"string"},{"indexed":false,"internalType":"string","name":"factoryInstanceNames","type":"string"},{"indexed":false,"internalType":"string","name":"factoryUserNames","type":"string"},{"indexed":false,"internalType":"address","name":"factoryAddresses","type":"address"},{"indexed":false,"internalType":"string","name":"kemasan","type":"string"},{"indexed":false,"internalType":"enum ObatTradisional.en_tipeProduk","name":"en_tipeProduk","type":"uint8"}],"name":"evt_obatCreated","type":"event"},{"anonymous":false,"inputs":[{"indexed":false,"internalType":"string","name":"namaProduk","type":"string"},{"indexed":false,"internalType":"uint8","name":"quantity","type":"uint8"},{"indexed":false,"internalType":"string","name":"orderId","type":"string"},{"indexed":false,"internalType":"string","name":"instanceName","type":"string"},{"indexed":false,"internalType":"address","name":"instanceAddress","type":"address"},{"indexed":false,"internalType":"uint256","name":"latestTimestamp","type":"uint256"}],"name":"evt_obatOrdered","type":"event"},{"anonymous":false,"inputs":[{"indexed":false,"internalType":"string","name":"namaProduk","type":"string"},{"indexed":false,"internalType":"uint8","name":"quantity","type":"uint8"},{"indexed":false,"internalType":"string","name":"obatId","type":"string"}],"name":"evt_obatProduced","type":"event"},{"inputs":[{"internalType":"uint256","name":"","type":"uint256"}],"name":"allObatData","outputs":[{"internalType":"string","name":"obatId","type":"string"},{"internalType":"string","name":"merk","type":"string"},{"internalType":"string","name":"namaProduk","type":"string"},{"internalType":"string","name":"kemasan","type":"string"},{"internalType":"enum ObatTradisional.en_tipeProduk","name":"tipeProduk","type":"uint8"},{"internalType":"enum ObatTradisional.en_nieStatus","name":"obatStatus","type":"uint8"},{"internalType":"uint256","name":"nieRequestDate","type":"uint256"},{"internalType":"uint256","name":"nieApprovalDate","type":"uint256"},{"internalType":"string","name":"nieNumber","type":"string"}],"stateMutability":"view","type":"function"},{"inputs":[{"internalType":"uint256","name":"","type":"uint256"}],"name":"allOrderedObat","outputs":[{"internalType":"string","name":"orderId","type":"string"},{"internalType":"string","name":"namaProduk","type":"string"},{"internalType":"string","name":"obatIdProduk","type":"string"},{"internalType":"uint8","name":"orderQuantity","type":"uint8"},{"internalType":"string","name":"instanceName","type":"string"},{"internalType":"address","name":"instanceAddr","type":"address"},{"internalType":"enum ObatTradisional.en_orderStatus","name":"orderStatus","type":"uint8"},{"internalType":"uint256","name":"latestTimestamp","type":"uint256"}],"stateMutability":"view","type":"function"},{"inputs":[{"internalType":"uint256","name":"","type":"uint256"}],"name":"allProducedObat","outputs":[{"internalType":"string","name":"obatId","type":"string"},{"internalType":"string","name":"namaProduk","type":"string"},{"internalType":"uint8","name":"obatQuantity","type":"uint8"},{"internalType":"string","name":"factoryInstanceNames","type":"string"}],"stateMutability":"view","type":"function"},{"inputs":[{"internalType":"string","name":"_obatId","type":"string"},{"internalType":"address","name":"_bpomAddr","type":"address"},{"internalType":"string","name":"_bpomInstanceName","type":"string"},{"internalType":"string","name":"_bpomUserName","type":"string"},{"internalType":"string","name":"_nieNumber","type":"string"}],"name":"approveNie","outputs":[],"stateMutability":"nonpayable","type":"function"},{"inputs":[{"internalType":"string","name":"","type":"string"}],"name":"bpomAddresses","outputs":[{"internalType":"address","name":"","type":"address"}],"stateMutability":"view","type":"function"},{"inputs":[{"internalType":"string","name":"","type":"string"}],"name":"bpomInstanceNames","outputs":[{"internalType":"string","name":"","type":"string"}],"stateMutability":"view","type":"function"},{"inputs":[{"internalType":"string","name":"","type":"string"}],"name":"bpomUserNames","outputs":[{"internalType":"string","name":"","type":"string"}],"stateMutability":"view","type":"function"},{"inputs":[{"internalType":"string","name":"_obatId","type":"string"},{"internalType":"string","name":"_merk","type":"string"},{"internalType":"string","name":"_namaProduk","type":"string"},{"internalType":"string[]","name":"_klaim","type":"string[]"},{"internalType":"string","name":"_kemasan","type":"string"},{"internalType":"string[]","name":"_komposisi","type":"string[]"},{"internalType":"address","name":"_factoryAddr","type":"address"},{"internalType":"string","name":"_factoryInstanceName","type":"string"},{"internalType":"string","name":"_factoryUserName","type":"string"},{"internalType":"enum ObatTradisional.en_tipeProduk","name":"_tipeProduk","type":"uint8"}],"name":"createObat","outputs":[],"stateMutability":"nonpayable","type":"function"},{"inputs":[{"internalType":"string","name":"","type":"string"}],"name":"factoryAddresses","outputs":[{"internalType":"address","name":"","type":"address"}],"stateMutability":"view","type":"function"},{"inputs":[{"internalType":"string","name":"","type":"string"}],"name":"factoryInstanceNames","outputs":[{"internalType":"string","name":"","type":"string"}],"stateMutability":"view","type":"function"},{"inputs":[{"internalType":"string","name":"","type":"string"}],"name":"factoryUserNames","outputs":[{"internalType":"string","name":"","type":"string"}],"stateMutability":"view","type":"function"},{"inputs":[],"name":"getAllProducedObat","outputs":[{"components":[{"internalType":"string","name":"obatId","type":"string"},{"internalType":"string","name":"namaProduk","type":"string"},{"internalType":"uint8","name":"obatQuantity","type":"uint8"},{"internalType":"string","name":"factoryInstanceNames","type":"string"},{"internalType":"string[]","name":"obatIpfsHash","type":"string[]"}],"internalType":"struct ObatTradisional.st_obatProduction[]","name":"","type":"tuple[]"}],"stateMutability":"view","type":"function"},{"inputs":[{"internalType":"string","name":"_factoryInstanceName","type":"string"}],"name":"getJenisSediaanAvail","outputs":[{"internalType":"uint8[]","name":"","type":"uint8[]"}],"stateMutability":"view","type":"function"},{"inputs":[],"name":"getListAllObatNie","outputs":[{"internalType":"string[]","name":"","type":"string[]"},{"internalType":"string[]","name":"","type":"string[]"},{"internalType":"string[]","name":"","type":"string[]"},{"internalType":"uint256[]","name":"","type":"uint256[]"},{"internalType":"uint8[]","name":"","type":"uint8[]"}],"stateMutability":"view","type":"function"},{"inputs":[{"internalType":"string","name":"_factoryInstanceName","type":"string"}],"name":"getListAllProducedObatByFactory","outputs":[{"internalType":"string[]","name":"","type":"string[]"},{"internalType":"string[]","name":"","type":"string[]"},{"internalType":"uint8[]","name":"","type":"uint8[]"}],"stateMutability":"view","type":"function"},{"inputs":[{"internalType":"string","name":"_factoryInstanceName","type":"string"}],"name":"getListObatByFactory","outputs":[{"internalType":"string[]","name":"","type":"string[]"},{"internalType":"string[]","name":"","type":"string[]"},{"internalType":"uint8[]","name":"","type":"uint8[]"},{"internalType":"uint8[]","name":"","type":"uint8[]"}],"stateMutability":"view","type":"function"},{"inputs":[{"internalType":"string","name":"_obatId","type":"string"}],"name":"getListObatById","outputs":[{"components":[{"internalType":"string","name":"obatId","type":"string"},{"internalType":"string","name":"merk","type":"string"},{"internalType":"string","name":"namaProduk","type":"string"},{"internalType":"string[]","name":"klaim","type":"string[]"},{"internalType":"string","name":"kemasan","type":"string"},{"internalType":"string[]","name":"komposisi","type":"string[]"},{"internalType":"enum ObatTradisional.en_tipeProduk","name":"tipeProduk","type":"uint8"},{"internalType":"enum ObatTradisional.en_nieStatus","name":"obatStatus","type":"uint8"},{"internalType":"uint256","name":"nieRequestDate","type":"uint256"},{"internalType":"uint256","name":"nieApprovalDate","type":"uint256"},{"internalType":"string","name":"nieNumber","type":"string"}],"internalType":"struct ObatTradisional.st_obatDetails","name":"obatDetails","type":"tuple"},{"internalType":"address","name":"factoryAddress","type":"address"},{"internalType":"string","name":"factoryInstanceName","type":"string"},{"internalType":"string","name":"factoryUserName","type":"string"},{"internalType":"address","name":"bpomAddress","type":"address"},{"internalType":"string","name":"bpomInstanceName","type":"string"},{"internalType":"string","name":"bpomUserName","type":"string"}],"stateMutability":"view","type":"function"},{"inputs":[],"name":"mainSupplyChain","outputs":[{"internalType":"contract MainSupplyChain","name":"","type":"address"}],"stateMutability":"view","type":"function"},{"inputs":[{"internalType":"string","name":"","type":"string"}],"name":"obatDetailsById","outputs":[{"internalType":"string","name":"obatId","type":"string"},{"internalType":"string","name":"merk","type":"string"},{"internalType":"string","name":"namaProduk","type":"string"},{"internalType":"string","name":"kemasan","type":"string"},{"internalType":"enum ObatTradisional.en_tipeProduk","name":"tipeProduk","type":"uint8"},{"internalType":"enum ObatTradisional.en_nieStatus","name":"obatStatus","type":"uint8"},{"internalType":"uint256","name":"nieRequestDate","type":"uint256"},{"internalType":"uint256","name":"nieApprovalDate","type":"uint256"},{"internalType":"string","name":"nieNumber","type":"string"}],"stateMutability":"view","type":"function"},{"inputs":[{"internalType":"string","name":"","type":"string"}],"name":"orderObatById","outputs":[{"internalType":"string","name":"orderId","type":"string"},{"internalType":"string","name":"namaProduk","type":"string"},{"internalType":"string","name":"obatIdProduk","type":"string"},{"internalType":"uint8","name":"orderQuantity","type":"uint8"},{"internalType":"string","name":"instanceName","type":"string"},{"internalType":"address","name":"instanceAddr","type":"address"},{"internalType":"enum ObatTradisional.en_orderStatus","name":"orderStatus","type":"uint8"},{"internalType":"uint256","name":"latestTimestamp","type":"uint256"}],"stateMutability":"view","type":"function"},{"inputs":[{"internalType":"string","name":"_obatIdProduk","type":"string"},{"internalType":"string","name":"_orderId","type":"string"},{"internalType":"string","name":"_namaProduk","type":"string"},{"internalType":"uint8","name":"_orderQuantity","type":"uint8"},{"internalType":"address","name":"_pbfAddr","type":"address"},{"internalType":"string","name":"_pbfInstanceName","type":"string"},{"internalType":"string[]","name":"_orderObatIpfsHash","type":"string[]"}],"name":"pbfOrder","outputs":[],"stateMutability":"nonpayable","type":"function"},{"inputs":[{"internalType":"string","name":"_namaProduk","type":"string"},{"internalType":"string","name":"_obatId","type":"string"},{"internalType":"uint8","name":"_obatQuantity","type":"uint8"},{"internalType":"string","name":"_factoryInstanceName","type":"string"},{"internalType":"string[]","name":"_obatIpfsHash","type":"string[]"}],"name":"produceObat","outputs":[],"stateMutability":"nonpayable","type":"function"},{"inputs":[{"internalType":"string","name":"_obatId","type":"string"}],"name":"requestNie","outputs":[],"stateMutability":"nonpayable","type":"function"},{"inputs":[{"internalType":"string","name":"_obatIdProduk","type":"string"},{"internalType":"string","name":"_orderId","type":"string"},{"internalType":"string","name":"_namaProduk","type":"string"},{"internalType":"uint8","name":"_orderQuantity","type":"uint8"},{"internalType":"address","name":"_retailerAddr","type":"address"},{"internalType":"string","name":"_retailerInstanceName","type":"string"},{"internalType":"string[]","name":"_orderObatIpfsHash","type":"string[]"}],"name":"retailerOrder","outputs":[],"stateMutability":"nonpayable","type":"function"},{"inputs":[],"name":"roleManager","outputs":[{"internalType":"contract RoleManager","name":"","type":"address"}],"stateMutability":"view","type":"function"},{"inputs":[{"internalType":"address","name":"","type":"address"}],"name":"userRoles","outputs":[{"internalType":"enum ObatTradisional.en_roles","name":"","type":"uint8"}],"stateMutability":"view","type":"function"}],"evm":{"bytecode":{"linkReferences":{},"object":"608034608657601f614a7c38819003918201601f19168301916001600160401b03831184841017608b578084926040948552833981010312608657604b602060458360a1565b920160a1565b600080546001600160a01b039384166001600160a01b031991821617909155600180549290931691161790556040516149c790816100b58239f35b600080fd5b634e487b7160e01b600052604160045260246000fd5b51906001600160a01b038216820360865756fe608080604052600436101561001357600080fd5b60003560e01c908162435da514612b34575080630a04f9c814612b035780631a95e672146129765780631c0b20301461290e5780631dce6e58146126dd57806325606bc31461231357806327321837146122cb578063349a7a72146122815780634b87568a14612219578063735000eb1461214d57806374d5e100146120ed5780637aad01bd1461205e5780637ade51dd1461143e5780637d08414f146113ad57806386f5cea61461130b57806392b385c91461118a5780639413fcfd146111615780639d9315c214611117578063a812536d146110cd578063b7e6656814610ff4578063bc4a6f6c14610d81578063d14f0e4814610ba0578063d44faa6314610a6b578063d9d284dc14610440578063e06749ba146101b65763f10228621461013c57600080fd5b346101b15760203660031901126101b1576004356001600160401b0381116101b15761019961018a60206101776101ad943690600401612dea565b8160405193828580945193849201612cc3565b81016007815203019020612c1f565b604051918291602083526020830190612ce6565b0390f35b600080fd5b346101b15760003660031901126101b157600080600254905b81811061040257506101e0826131eb565b906101ea836131eb565b6101f3846131eb565b6101fc85612f01565b9161020a6040519384612bfe565b85835261022b61021987612f01565b602085019790601f1901368937613235565b936000805b8281106102b957505050602091610266610274926102596040519860a08a5260a08a0190612d91565b90888203868a0152612d91565b908682036040880152612d91565b918483036060860152519182815201939060005b8181106102a35784806101ad88878382036080850152612e40565b8251865260209586019590920191600101610288565b60ff60066102c68361305e565b50015460081c166102d681612d0b565b6102e3575b600101610230565b906103e76001916102fc6102f68561305e565b50612c1f565b610306828c613267565b52610311818b613267565b5061032760026103208661305e565b5001612c1f565b6103318288613267565b5261033c8187613267565b5061036861035b602061034e8761305e565b5060405192838092613110565b6009815203019020612c1f565b6103728289613267565b5261037d8188613267565b5060086103898561305e565b50015460076103978661305e565b50015410156103ef5760086103ab8561305e565b5001545b6103b9828a613267565b5260ff60066103c78661305e565b50015460081c166103d781612d0b565b6103e1828b613267565b5261317e565b9190506102db565b60076103fa8561305e565b5001546103af565b60ff600661040f8361305e565b50015460081c1661041f81612d0b565b61042c575b6001016101cf565b9161043860019161317e565b929050610424565b346101b1576101403660031901126101b1576004356001600160401b0381116101b157610471903690600401612dea565b6024356001600160401b0381116101b157610490903690600401612dea565b6044356001600160401b0381116101b1576104af903690600401612dea565b906064356001600160401b0381116101b1576104cf903690600401612f18565b906084356001600160401b0381116101b1576104ef903690600401612dea565b60a4356001600160401b0381116101b15761050e903690600401612f18565b60c4356001600160a01b0381169391908490036101b15760e4356001600160401b0381116101b157610544903690600401612dea565b610104356001600160401b0381116101b157610564903690600401612dea565b91610124359660028810156101b157600080546040516395a8c58d60e01b81523360048201526024810192909252602090829060449082906001600160a01b03165afa8015610a5f576105bf91600091610a30575b50614076565b604051946105cc86612be2565b8a86526020860152886040860152606085015284608085015260a08401526105f78660c0850161327b565b600260e08401526000610100840152600061012084015287604093845161061e8682612bfe565b60098152682a22aa29a22329a22360b91b602082015261014082015261066381865160208181875197019661065481838a612cc3565b8101600c8152030190206140c1565b600254600160401b81101561095c57806001610682920160025561305e565b919091610a1a57610692916140c1565b83516020818b516106a4818387612cc3565b81016008815203019020866bffffffffffffffffffffffff60a01b82541617905583516020818b516106d7818387612cc3565b8101600981520301902082516001600160401b03811161095c576106fb8254612b8d565b601f81116109e8575b506020601f821160011461097d579161073b8261074e9593602095600091610972575b508160011b916000199060031b1c19161790565b90555b8551809381928d51928391612cc3565b8101600a815203019020978251986001600160401b038a1161095c576107748154612b8d565b8a601f821161091e575b5050602099601f811160011461087d579361084261086d979461082161084f9561086299957f634ef467423c7b2abbaf26097bdddac4a495d36be69ca3d1555484b46e7899c79f6108349f9e9d9a806107ec9260009161087257508160011b916000199060031b1c19161790565b90555b6107f76131a3565b86519161080383612bc7565b82528d60208301526000878301528360608301526080820152613af3565b83519b8c9b60c08d5260c08d0190612ce6565b908b820360208d0152612ce6565b91898303908a0152612ce6565b9160608701528582036080870152612ce6565b9160a0840190612e77565b0390a1005b905088015138610727565b601f1981169a82600052806000209060005b8d811061090657509461082161084f9561086299957f634ef467423c7b2abbaf26097bdddac4a495d36be69ca3d1555484b46e7899c79f6108349f9e9d9a966108429661086d9e9b82600194106108ed575b5050811b0190556107ef565b89015160001960f88460031b161c1916905538806108e1565b9091602060018192858b01518155019301910161088f565b61094b91836000526020600020906020601f840160051c83019310610952575b601f0160051c019061329f565b8a8a61077e565b909150819061093e565b634e487b7160e01b600052604160045260246000fd5b90508701518f610727565b601f1982169083600052806000209160005b8181106109d0575092602094926001928261074e9896106109b7575b5050811b01905561073e565b88015160001960f88460031b161c191690558e806109ab565b9192602060018192868b01518155019401920161098f565b610a1490836000526020600020601f840160051c8101916020851061095257601f0160051c019061329f565b8b610704565b634e487b7160e01b600052600060045260246000fd5b610a52915060203d602011610a58575b610a4a8183612bfe565b810190613287565b8c6105b9565b503d610a40565b6040513d6000823e3d90fd5b346101b15760203660031901126101b1576004356001600160401b0381116101b1576000610aa0610acd923690600401612dea565b60018060a01b03600154166040518080958194629a308760e31b8352602060048401526024830190612ce6565b03915afa908115610a5f57600091610af6575b604051602080825281906101ad90820185612e40565b3d8083833e610b058183612bfe565b810190602081830312610b94578051906001600160401b038211610b9c57019080601f83011215610b9457815192610b3c84612f01565b92610b4a6040519485612bfe565b84845260208085019560051b820101928311610b9857602001935b828510610b7a575050506101ad915090610ae0565b845160ff81168103610b9457815260209485019401610b65565b8280fd5b5080fd5b8380fd5b346101b15760a03660031901126101b1576004356001600160401b0381116101b157610bd0903690600401612dea565b6024356001600160401b0381116101b157610bef903690600401612dea565b906044359060ff82168092036101b1576064356001600160401b0381116101b157610c1e903690600401612dea565b6084356001600160401b0381116101b157610c3d903690600401612f18565b926044602060018060a01b0360005416604051928380926395a8c58d60e01b8252336004830152600060248301525afa8015610a5f57610c8491600091610d625750614076565b83518103610d0b577fabb6d08782df0e4c2ee63deacc72efc9c1a9422c00fc5d8075160d11eaa40b4a94610ce461086d93610cf89660405191610cc683612bc7565b84835287602084015285604084015260608301526080820152613af3565b604051948594606086526060860190612ce6565b9160208501528382036040850152612ce6565b60405162461bcd60e51b815260206004820152602960248201527f5175616e7469747920646f6573206e6f74206d6174636820746865206e756d626044820152686572206f662049447360b81b6064820152608490fd5b610d7b915060203d602011610a5857610a4a8183612bfe565b876105b9565b346101b15760203660031901126101b1576004356001600160401b0381116101b157610db1903690600401612dea565b600080546040516395a8c58d60e01b81523360048201526024810192909252602090829060449082906001600160a01b03165afa8015610a5f57610dfc91600091610fd55750614076565b60405181519060208181850193610e14818387612cc3565b8101600c8152030190209160068301805460ff8160081c16610e3581612d0b565b610f735742600786015561ff00191661010017905560005b600254811015610f4357610e608161305e565b50604051610e8481610e76602082018095613110565b03601f198101835282612bfe565b5190206040516020810190610eb36020828751610ea281878c612cc3565b81010301601f198101835282612bfe565b51902014610ec357600101610e4d565b610f2e92507f854681db4b5190ceaacfe5894893f2e8d49873d9b8ed6c72b5618047cb3924e5936006610f0883610efc61086d9561305e565b5060074291015561305e565b5001805461ff0019166101001790555b6002604051948594606086526060860190612ce6565b91426020860152848303604086015201613ff3565b50610f2e915061086d7f854681db4b5190ceaacfe5894893f2e8d49873d9b8ed6c72b5618047cb3924e593610f18565b60405162461bcd60e51b815260206004820152603460248201527f4f62617420547261646973696f6e616c20737461747573206d75737420626520604482015273696e206c6f63616c2070726f64756374696f6e2160601b6064820152608490fd5b610fee915060203d602011610a5857610a4a8183612bfe565b836105b9565b346101b15761100236612f96565b6000546040516395a8c58d60e01b81523360048201526003602482015291969295939493929190602090829060449082906001600160a01b03165afa908115610a5f576000916110ae575b501561105e5761105c966138f6565b005b60405162461bcd60e51b815260206004820152602260248201527f416363657373207265737472696374656420746f2052657461696c657220726f6044820152616c6560f01b6064820152608490fd5b6110c7915060203d602011610a5857610a4a8183612bfe565b8861104d565b346101b15760203660031901126101b1576004356001600160401b0381116101b15761019961110860206101776101ad943690600401612dea565b81016009815203019020612c1f565b346101b15760203660031901126101b1576004356001600160401b0381116101b15761019961115260206101776101ad943690600401612dea565b81016006815203019020612c1f565b346101b15760003660031901126101b1576001546040516001600160a01b039091168152602090f35b346101b15760203660031901126101b1576004356001600160401b0381116101b1576111ba903690600401612dea565b6003546000916020810190835b8381106112a3575050506111da826131eb565b916111ed6111e7826131eb565b91613235565b916000805b82821061123557611219866101ad8761122788604051958695606087526060870190612d91565b908582036020870152612d91565b908382036040850152612e40565b61129b6001916112476102f68561307d565b611251828a613267565b5261125c8189613267565b5061126a836103208661307d565b6112748288613267565b5261127f8187613267565b5060ff600261128d8661307d565b500154166103e18289613267565b9101906111f2565b6003610e766112c86112b48461307d565b506040519283916020830195869101613110565b51902060405160208101906112e66020828751610ea281878c612cc3565b519020146112f7575b6001016111c7565b9361130360019161317e565b9490506112ef565b346101b15760203660031901126101b1576004356001600160401b0381116101b1576020610177611340923690600401612dea565b8101600d81520301902061135381612c1f565b6101ad61136260018401612c1f565b9161136f60028501612c1f565b9360ff6003820154169161138560048301612c1f565b600660058401549301549360405197889760ff8660a01c169560018060a01b03169489612d15565b346101b15760203660031901126101b1576004356003548110156101b1576113d761141d9161307d565b506101ad6113e482612c1f565b916113f160018201612c1f565b61142b611408600360ff6002860154169401612c1f565b91604051968796608088526080880190612ce6565b908682036020880152612ce6565b9160408501528382036060850152612ce6565b346101b15760a03660031901126101b1576004356001600160401b0381116101b15761146e903690600401612dea565b6024356001600160a01b03811681036101b1576044356001600160401b0381116101b1576114a0903690600401612dea565b6064356001600160401b0381116101b1576114bf903690600401612dea565b926084356001600160401b0381116101b1576114df903690600401612dea565b9360405192825193602081818601966114f981838a612cc3565b8101600c81520301902094600686018054600160ff8260081c1661151c81612d0b565b036120035742600889015561ff001916610200179055865160098701906001600160401b03811161095c576115518254612b8d565b601f8111611fd1575b506020601f8211600114611f6b57908061158992600091611d7457508160011b916000199060031b1c19161790565b90555b604051602081865161159f81838b612cc3565b810160058152030190209060018060a01b03166bffffffffffffffffffffffff60a01b82541617905560405160208185516115db81838a612cc3565b81016006815203019020908051906001600160401b03821161095c576116018354612b8d565b601f8111611f39575b50602090601f8311600114611ed25761163c929160009183611b80575b50508160011b916000199060031b1c19161790565b90555b6040516020818451611652818389612cc3565b81016007815203019020908051906001600160401b03821161095c576116788354612b8d565b601f8111611ea0575b50602090601f8311600114611e39576116b2929160009183611e2e5750508160011b916000199060031b1c19161790565b90555b60005b600254811015611e1e576116cb8161305e565b506040516116e181610e76602082018095613110565b51902060405160208101906116ff6020828751610ea281878c612cc3565b5190201461170f576001016116b8565b611748816117226009939694959661305e565b5060084291015560066117348261305e565b5001805461ff00191661020017905561305e565b500184516001600160401b03811161095c576117648254612b8d565b601f8111611dec575b506020601f8211600114611d7f57926020926117a5836002946117bb97600091611d7457508160011b916000199060031b1c19161790565b90555b0193604051809381928651928391612cc3565b81016009815203019020906117ce6131a3565b91604051916117dc83612bc7565b82526117e784612c1f565b9060208301918252611800604084019160008352612c1f565b916060840192835260808401948552600354600160401b81101561095c578060016118309201600355600361309c565b949094610a1a57518051906001600160401b03821161095c576118538654612b8d565b601f8111611d42575b50602090601f8311600114611cdb5761188d929160009183611cd05750508160011b916000199060031b1c19161790565b84555b51805160018501916001600160401b03821161095c576118b08354612b8d565b601f8111611c9e575b50602090601f8311600114611c335791806118ef9260ff969594600092611c285750508160011b916000199060031b1c19161790565b90555b511660ff60028401911660ff198254161790556003820190518051906001600160401b03821161095c576119268354612b8d565b601f8111611bf6575b50602090601f8311600114611b8b579180611965926004969594600092611b805750508160011b916000199060031b1c19161790565b90555b019051805190600160401b821161095c578254828455808310611b02575b50602001916000526020600020916000905b8282106119ea577f489f165b733603cb0a992d8cafd6c42a0c13d169039003f751758b9f0019f26c6119dc8761086d88604051938493604085526040850190612ce6565b908382036020850152613ff3565b80518051906001600160401b03821161095c57611a078654612b8d565b601f8111611ad0575b50602090601f8311600114611a635792611a4983600195946020948796600092611a585750508160011b916000199060031b1c19161790565b87555b01940191019092611998565b015190508c80611627565b90601f1983169187600052816000209260005b818110611ab85750936020936001969387969383889510611a9f575b505050811b018755611a4c565b015160001960f88460031b161c191690558b8080611a92565b92936020600181928786015181550195019301611a76565b611afc90876000526020600020601f850160051c8101916020861061095257601f0160051c019061329f565b88611a10565b8360005282602060002091820191015b818110611b1f5750611986565b80611b2c60019254612b8d565b80611b39575b5001611b12565b601f81118314611b4f5750600081555b88611b32565b611b6d908260005283601f6020600020920160051c8201910161329f565b8060005260006020812081835555611b49565b015190508980611627565b90601f1983169184600052816000209260005b818110611bde575091600193918560049897969410611bc5575b505050811b019055611968565b015160001960f88460031b161c19169055888080611bb8565b92936020600181928786015181550195019301611b9e565b611c2290846000526020600020601f850160051c8101916020861061095257601f0160051c019061329f565b8761192f565b015190508b80611627565b90601f1983169184600052816000209260005b818110611c86575091600193918560ff9897969410611c6d575b505050811b0190556118f2565b015160001960f88460031b161c191690558a8080611c60565b92936020600181928786015181550195019301611c46565b611cca90846000526020600020601f850160051c8101916020861061095257601f0160051c019061329f565b896118b9565b015190508a80611627565b90601f1983169187600052816000209260005b818110611d2a5750908460019594939210611d11575b505050811b018455611890565b015160001960f88460031b161c19169055898080611d04565b92936020600181928786015181550195019301611cee565b611d6e90876000526020600020601f850160051c8101916020861061095257601f0160051c019061329f565b8961185c565b90508a01518b610727565b601f1982169083600052806000209160005b818110611dd45750836117bb96936020969360029660019410611dbb575b5050811b0190556117a8565b8b015160001960f88460031b161c191690558a80611daf565b9192602060018192868d015181550194019201611d91565b611e1890836000526020600020601f840160051c8101916020851061095257601f0160051c019061329f565b8661176d565b509091602060026117bb926117a8565b015190508880611627565b90601f1983169184600052816000209260005b818110611e885750908460019594939210611e6f575b505050811b0190556116b5565b015160001960f88460031b161c19169055878080611e62565b92936020600181928786015181550195019301611e4c565b611ecc90846000526020600020601f850160051c8101916020861061095257601f0160051c019061329f565b87611681565b90601f1983169184600052816000209260005b818110611f215750908460019594939210611f08575b505050811b01905561163f565b015160001960f88460031b161c19169055888080611efb565b92936020600181928786015181550195019301611ee5565b611f6590846000526020600020601f850160051c8101916020861061095257601f0160051c019061329f565b8861160a565b601f1982169083600052806000209160005b8c828210611fb95750509083600194939210611fa0575b5050811b01905561158c565b8b015160001960f88460031b161c191690558a80611f94565b60018495602093958493015181550194019201611f7d565b611ffd90836000526020600020601f840160051c8101916020851061095257601f0160051c019061329f565b8961155a565b60405162461bcd60e51b815260206004820152602d60248201527f4f62617420547261646973696f6e616c20737461747573206d7573742062652060448201526c5265717565737465644e49452160981b6064820152608490fd5b346101b15760203660031901126101b1576004356002548110156101b1576120859061305e565b5061208f81612c1f565b6101ad61209e60018401612c1f565b916120ab60028501612c1f565b936120b860048201612c1f565b9160068201546007830154916120d5600960088601549501612c1f565b9460405198899860ff808660081c169516938a612e84565b346101b15760203660031901126101b1576004356001600160a01b038116908190036101b157600052600b60205260ff604060002054166040516004821015612137576020918152f35b634e487b7160e01b600052602160045260246000fd5b346101b15761215b36612f96565b6000546040516395a8c58d60e01b81523360048201526001602482015291969295939493929190602090829060449082906001600160a01b03165afa908115610a5f576000916121fa575b50156121b55761105c966138f6565b60405162461bcd60e51b815260206004820152601d60248201527f416363657373207265737472696374656420746f2050424620726f6c650000006044820152606490fd5b612213915060203d602011610a5857610a4a8183612bfe565b886121a6565b346101b15760203660031901126101b1576004356001600160401b0381116101b15761224b6020913690600401612dea565b8161225f6040519283815193849201612cc3565b600890820190815281900382019020546040516001600160a01b039091168152f35b346101b15760203660031901126101b1576004356001600160401b0381116101b1576101996122bc60206101776101ad943690600401612dea565b8101600a815203019020612c1f565b346101b15760203660031901126101b1576004356001600160401b0381116101b1576020610177612300923690600401612dea565b8101600c81520301902061208f81612c1f565b346101b15760203660031901126101b1576004356001600160401b0381116101b157612343903690600401612dea565b606061014060405161235481612be2565b82815282602082015282604082015282808201528260808201528260a0820152600060c0820152600060e08201526000610100820152600061012082015201526040516123bf825191602081818601946123af818388612cc3565b8101600c81520301902054612b8d565b15612698576101ad6101409261268a60405160208184516123e181838a612cc3565b8101600c815203019020936124a26009604051966123fe88612be2565b61240781612c1f565b885261241560018201612c1f565b602089015261242660028201612c1f565b6040890152612437600382016130b8565b606089015261244860048201612c1f565b6080890152612459600582016130b8565b60a089015260ff600682015461247482821660c08c0161327b565b60081c1661248181612d0b565b60e08901526007810154610100890152600881015461012089015201612c1f565b8686015260405183516124b6818385612cc3565b8101906008825260208160018060a01b0393030190205416926126776124e8604051602081855161110881838a612cc3565b9461266961250260405160208187516122bc81838c612cc3565b9161255a61018a6020604051885161251b81838d612cc3565b81019060058252828160018060a01b03930301902054169861254860405183818c51611152818388612cc3565b98604051938492839251928391612cc3565b97612656604051809d819d60e083526126016125ea6125d36125be6125a7612590865161016060e08b01526102408a0190612ce6565b602087015189820360df19016101008b0152612ce6565b604086015188820360df19016101208a0152612ce6565b606085015187820360df190187890152612d91565b608084015186820360df1901610160880152612ce6565b60a083015185820360df1901610180870152612d91565b9261261560c08301516101a0830190612e77565b60e082015161262381612d0b565b6101c08201526101008201516101e08201526101208201516102009091015201518d820360df19016102208f0152612ce6565b9160208c01528a820360408c0152612ce6565b9088820360608a0152612ce6565b91608087015285820360a0870152612ce6565b9083820360c0850152612ce6565b60405162461bcd60e51b815260206004820152601b60248201527f4e6f206461746120666f756e64207769746820746869732049442e00000000006044820152606490fd5b346101b15760203660031901126101b1576004356001600160401b0381116101b15761270d903690600401612dea565b60025460208201916000805b83811061289e575061272a816131eb565b92612734826131eb565b9061274761274184613235565b93613235565b93600096875b8381106127a257612778886101ad896127948a6127868b604051978897608089526080890190612d91565b908782036020890152612d91565b908582036040870152612e40565b908382036060850152612e40565b6127b0602061034e8361305e565b60098152030190206040516127cd81610e76602082018095613110565b51902060405160208101906127eb6020828851610ea281878b612cc3565b519020146127fc575b60010161274d565b976128096102f68a61305e565b612813828a613267565b5261281e8189613267565b5061282d60026103208b61305e565b6128378287613267565b526128428186613267565b5060ff60066128508b61305e565b50015460081c1661286081612d0b565b61286a8288613267565b5260ff60066128788b61305e565b5001541660028110156121375781612896916103e16001948b613267565b9890506127f4565b6128ac602061034e8361305e565b60098152030190206040516128c981610e76602082018095613110565b51902060405160208101906128e960208284610ea28c8b51928391612cc3565b519020146128fa575b600101612719565b9061290660019161317e565b9190506128f2565b346101b15760203660031901126101b1576004356001600160401b0381116101b1576129406020913690600401612dea565b816129546040519283815193849201612cc3565b600590820190815281900382019020546040516001600160a01b039091168152f35b346101b15760003660031901126101b15760035461299381612f01565b906129a16040519283612bfe565b80825260208201908160036000527fc2575a0e9e593c00f959f8c92f12db2869c3395a3b0502d05e2516446f71f85b6000915b838310612a9957848660405191829160208301906020845251809152604083019060408160051b85010192916000905b828210612a1357505050500390f35b91936001919395506020612a898192603f198a82030186528851906080612a78612a59612a49855160a0865260a0860190612ce6565b8786015185820389870152612ce6565b60ff604086015116604085015260608501518482036060860152612ce6565b920151906080818403910152612d91565b9601920192018594939192612a04565b60056020600192604051612aac81612bc7565b612ab586612c1f565b8152612ac2858701612c1f565b8382015260ff6002870154166040820152612adf60038701612c1f565b6060820152612af0600487016130b8565b60808201528152019201920191906129d4565b346101b15760203660031901126101b1576004356004548110156101b157612b2a90612b58565b5061135381612c1f565b346101b15760003660031901126101b1576000546001600160a01b03168152602090f35b600454811015612b7757600460005260206000209060031b0190600090565b634e487b7160e01b600052603260045260246000fd5b90600182811c92168015612bbd575b6020831014612ba757565b634e487b7160e01b600052602260045260246000fd5b91607f1691612b9c565b60a081019081106001600160401b0382111761095c57604052565b61016081019081106001600160401b0382111761095c57604052565b90601f801991011681019081106001600160401b0382111761095c57604052565b9060405191826000825492612c3384612b8d565b8084529360018116908115612ca15750600114612c5a575b50612c5892500383612bfe565b565b90506000929192526020600020906000915b818310612c85575050906020612c589282010138612c4b565b6020919350806001915483858901015201910190918492612c6c565b905060209250612c5894915060ff191682840152151560051b82010138612c4b565b60005b838110612cd65750506000910152565b8181015183820152602001612cc6565b90602091612cff81518092818552858086019101612cc3565b601f01601f1916010190565b6003111561213757565b9490612d5b612d6f94612d4d60e0999c9b9a9795612d3f60ff956101008c526101008c0190612ce6565b908a820360208c0152612ce6565b9088820360408a0152612ce6565b921660608601528482036080860152612ce6565b6001600160a01b0390961660a0830152612d8881612d0b565b60c08201520152565b9080602083519182815201916020808360051b8301019401926000915b838310612dbd57505050505090565b9091929394602080612ddb600193601f198682030187528951612ce6565b97019301930191939290612dae565b81601f820112156101b1578035906001600160401b03821161095c5760405192612e1e601f8401601f191660200185612bfe565b828452602083830101116101b157816000926020809301838601378301015290565b906020808351928381520192019060005b818110612e5e5750505090565b825160ff16845260209384019390920191600101612e51565b9060028210156121375752565b959293612ebf612efe9a9895612eb1612ed895610834612ecd969d9a9d6101208d526101208d0190612ce6565b9089820360408b0152612ce6565b908782036060890152612ce6565b966080860190612e77565b612ee181612d0b565b60a084015260c083015260e0820152610100818403910152612ce6565b90565b6001600160401b03811161095c5760051b60200190565b9080601f830112156101b1578135612f2f81612f01565b92612f3d6040519485612bfe565b81845260208085019260051b820101918383116101b15760208201905b838210612f6957505050505090565b81356001600160401b0381116101b157602091612f8b87848094880101612dea565b815201910190612f5a565b60e06003198201126101b1576004356001600160401b0381116101b15781612fc091600401612dea565b916024356001600160401b0381116101b15782612fdf91600401612dea565b916044356001600160401b0381116101b15781612ffe91600401612dea565b9160643560ff811681036101b157916084356001600160a01b03811681036101b1579160a4356001600160401b0381116101b1578261303f91600401612dea565b9160c435906001600160401b0382116101b157612efe91600401612f18565b600254811015612b77576002600052600a602060002091020190600090565b600354811015612b775760036000526005602060002091020190600090565b8054821015612b77576000526005602060002091020190600090565b9081546130c481612f01565b926130d26040519485612bfe565b818452602084019060005260206000206000915b8383106130f35750505050565b60016020819261310285612c1f565b8152019201920191906130e6565b6000929181549161312083612b8d565b926001811690811561316b575060011461313957505050565b909192935060005260206000206000905b8382106131575750500190565b60018160209254848601520191019061314a565b60ff191683525050811515909102019150565b600019811461318d5760010190565b634e487b7160e01b600052601160045260246000fd5b604051906131b2602083612bfe565b600080835282815b8281106131c657505050565b8060606020809385010152016131ba565b634e487b7160e01b81526041600452602490fd5b906131f582612f01565b6132026040519182612bfe565b8281528092613213601f1991612f01565b019060005b82811061322457505050565b806060602080938501015201613218565b9061323f82612f01565b61324c6040519182612bfe565b828152809261325d601f1991612f01565b0190602036910137565b8051821015612b775760209160051b010190565b60028210156121375752565b908160209103126101b1575180151581036101b15790565b8181106132aa575050565b6000815560010161329f565b919080519283516001600160401b03811161095c576132d58254612b8d565b601f81116138c4575b50602094601f821160011461385f576133129293949582916000926135655750508160011b916000199060031b1c19161790565b81555b6001810160208301518051906001600160401b03821161095c576133398354612b8d565b601f811161382d575b50602090601f83116001146137c6576133739291600091836135655750508160011b916000199060031b1c19161790565b90555b6002810160408301518051906001600160401b03821161095c5761339a8354612b8d565b601f8111613794575b50602090601f831160011461372d576133d49291600091836135655750508160011b916000199060031b1c19161790565b90555b60ff60608301511660ff60038301911660ff198254161790556004810160808301518051906001600160401b03821161095c576134148354612b8d565b601f81116136fb575b50602090601f831160011461368d5782610100959360079593613456936000926135655750508160011b916000199060031b1c19161790565b90555b60a08401516005820180546001600160a01b0319166001600160a01b039290921691909117815560c085015161348e81612d0b565b61349781612d0b565b81549060ff60a01b9060a01b169060ff60a01b191617905560e0840151600682015501910151805190600160401b821161095c57825482845580831061360f575b50602001916000526020600020916000905b8282106134f75750505050565b80518051906001600160401b03821161095c576135148654612b8d565b601f81116135dd575b50602090601f83116001146135705792613556836001959460209487966000926135655750508160011b916000199060031b1c19161790565b87555b019401910190926134ea565b015190503880611627565b90601f1983169187600052816000209260005b8181106135c557509360209360019693879693838895106135ac575b505050811b018755613559565b015160001960f88460031b161c1916905538808061359f565b92936020600181928786015181550195019301613583565b61360990876000526020600020601f850160051c8101916020861061095257601f0160051c019061329f565b3861351d565b8360005282602060002091820191015b81811061362c57506134d8565b8061363960019254612b8d565b80613646575b500161361f565b601f8111831461365c5750600081555b3861363f565b61367a908260005283601f6020600020920160051c8201910161329f565b8060005260006020812081835555613656565b90601f1983169184600052816000209260005b8181106136e35750926001928592610100989660079896106136ca575b505050811b019055613459565b015160001960f88460031b161c191690553880806136bd565b929360206001819287860151815501950193016136a0565b61372790846000526020600020601f850160051c8101916020861061095257601f0160051c019061329f565b3861341d565b90601f1983169184600052816000209260005b81811061377c5750908460019594939210613763575b505050811b0190556133d7565b015160001960f88460031b161c19169055388080613756565b92936020600181928786015181550195019301613740565b6137c090846000526020600020601f850160051c8101916020861061095257601f0160051c019061329f565b386133a3565b90601f1983169184600052816000209260005b81811061381557509084600195949392106137fc575b505050811b019055613376565b015160001960f88460031b161c191690553880806137ef565b929360206001819287860151815501950193016137d9565b61385990846000526020600020601f850160051c8101916020861061095257601f0160051c019061329f565b38613342565b601f1982169583600052806000209160005b8881106138ac57508360019596979810613893575b505050811b018155613315565b015160001960f88460031b161c19169055388080613886565b91926020600181928685015181550194019201613871565b6138f090836000526020600020601f840160051c8101916020851061095257601f0160051c019061329f565b386132de565b9193959260ff90959195169560328710613aae5760025460609360005b828110613a44575b5050506040519261012084018481106001600160401b0382111761095c57604052868452856020850152604084015286606084015281608084015260018060a01b0316928360a0840152600060c08401524260e08401526101008301526139a282604051602081816139938b83815193849201612cc3565b8101600d8152030190206132b6565b600454600160401b81101561095c578060016139c19201600455612b58565b929092610a1a577f95b629c00caaa10e5c594b3f10670964fdfeff8de039e6e3ae5acc2aed2a3fdb96613a12966139fe613a2593613a33966132b6565b60405197889760c0895260c0890190612ce6565b9160208801528682036040880152612ce6565b908482036060860152612ce6565b9060808301524260a08301520390a1565b613a4d8161305e565b50604051613a6381610e76602082018095613110565b5190206040516020810190613a836020828751610ea28187858c01612cc3565b51902014613a9357600101613913565b9050613aa59294506102f6915061305e565b9138808061391b565b60405162461bcd60e51b815260206004820152601960248201527f4d696e696d756d206f72646572206973203530206f6261742e000000000000006044820152606490fd5b90600354600160401b81101561095c57806001613b159201600355600361309c565b929092610a1a5780519283516001600160401b03811161095c57613b398254612b8d565b601f8111613fc1575b50602094601f8211600114613f5c57613b769293949582916000926135655750508160011b916000199060031b1c19161790565b81555b6001810160208301518051906001600160401b03821161095c57613b9d8354612b8d565b601f8111613f2a575b50602090601f8311600114613ec357613bd79291600091836135655750508160011b916000199060031b1c19161790565b90555b60ff60408301511660ff60028301911660ff198254161790556003810160608301518051906001600160401b03821161095c57613c178354612b8d565b601f8111613e91575b50602090601f8311600114613e2457826080959360049593613c58936000926135655750508160011b916000199060031b1c19161790565b90555b01910151805190600160401b821161095c578254828455808310613da6575b50602001916000526020600020916000905b828210613c995750505050565b80518051906001600160401b03821161095c57613cb68654612b8d565b601f8111613d74575b50602090601f8311600114613d075792613cf8836001959460209487966000926135655750508160011b916000199060031b1c19161790565b87555b01940191019092613c8c565b90601f1983169187600052816000209260005b818110613d5c5750936020936001969387969383889510613d43575b505050811b018755613cfb565b015160001960f88460031b161c19169055388080613d36565b92936020600181928786015181550195019301613d1a565b613da090876000526020600020601f850160051c8101916020861061095257601f0160051c019061329f565b38613cbf565b8360005282602060002091820191015b818110613dc35750613c7a565b80613dd060019254612b8d565b80613ddd575b5001613db6565b601f81118314613df35750600081555b38613dd6565b613e11908260005283601f6020600020920160051c8201910161329f565b8060005260006020812081835555613ded565b90601f1983169184600052816000209260005b818110613e795750926001928592608098966004989610613e60575b505050811b019055613c5b565b015160001960f88460031b161c19169055388080613e53565b92936020600181928786015181550195019301613e37565b613ebd90846000526020600020601f850160051c8101916020861061095257601f0160051c019061329f565b38613c20565b90601f1983169184600052816000209260005b818110613f125750908460019594939210613ef9575b505050811b019055613bda565b015160001960f88460031b161c19169055388080613eec565b92936020600181928786015181550195019301613ed6565b613f5690846000526020600020601f850160051c8101916020861061095257601f0160051c019061329f565b38613ba6565b601f1982169583600052806000209160005b888110613fa957508360019596979810613f90575b505050811b018155613b79565b015160001960f88460031b161c19169055388080613f83565b91926020600181928685015181550194019201613f6e565b613fed90836000526020600020601f840160051c8101916020851061095257601f0160051c019061329f565b38613b42565b6000929181549161400383612b8d565b8083529260018116908115614059575060011461401f57505050565b60009081526020812093945091925b83831061403f575060209250010190565b60018160209294939454838587010152019101919061402e565b915050602093945060ff929192191683830152151560051b010190565b1561407d57565b606460405162461bcd60e51b815260206004820152602060248201527f416363657373207265737472696374656420746f2050616272696b20726f6c656044820152fd5b909182519283516001600160401b03811161095c576140e08454612b8d565b601f811161495f575b50602094601f82116001146148fa5761411d9293949582916000926135655750508160011b916000199060031b1c19161790565b83555b6001830160208201518051906001600160401b03821161095c576141448354612b8d565b601f81116148c8575b50602090601f83116001146148615761417e9291600091836135655750508160011b916000199060031b1c19161790565b90555b6002830160408201518051906001600160401b03821161095c576141a58354612b8d565b601f811161482f575b50602090601f83116001146147c8576141df9291600091836135655750508160011b916000199060031b1c19161790565b90555b600383016060820151805190600160401b821161095c57825482845580831061474a575b50602001916000526020600020916000905b82821061463d57505050506004830160808201518051906001600160401b03821161095c576142478354612b8d565b601f811161460b575b50602090601f83116001146145a4576142819291600091836135655750508160011b916000199060031b1c19161790565b90555b6005830160a0820151805190600160401b821161095c578254828455808310614526575b50602001916000526020600020916000905b828210614419575050505060c081015192600681016002851015612137576101409160099160009660ff8019835416911617815560e08501516142fc81612d0b565b61430581612d0b565b61ff0082549160081b169061ff0019161790556101008401516007820155610120840151600882015501910151928351906001600160401b0382116131d75761434e8354612b8d565b601f81116143e9575b50602090601f831160011461438b5790614387939495836135655750508160011b916000199060031b1c19161790565b9055565b90601f198316848352818320925b8181106143d1575095836001959697106143b8575b505050811b019055565b015160001960f88460031b161c191690553880806143ae565b9192602060018192868b015181550194019201614399565b6144139084835260208320601f850160051c8101916020861061095257601f0160051c019061329f565b38614357565b80518051906001600160401b03821161095c576144368654612b8d565b601f81116144f4575b50602090601f83116001146144875792614478836001959460209487966000926135655750508160011b916000199060031b1c19161790565b87555b019401910190926142ba565b90601f1983169187600052816000209260005b8181106144dc57509360209360019693879693838895106144c3575b505050811b01875561447b565b015160001960f88460031b161c191690553880806144b6565b9293602060018192878601518155019501930161449a565b61452090876000526020600020601f850160051c8101916020861061095257601f0160051c019061329f565b3861443f565b8360005282602060002091820191015b81811061454357506142a8565b8061455060019254612b8d565b8061455d575b5001614536565b601f811183146145735750600081555b38614556565b614591908260005283601f6020600020920160051c8201910161329f565b806000526000602081208183555561456d565b90601f1983169184600052816000209260005b8181106145f357509084600195949392106145da575b505050811b019055614284565b015160001960f88460031b161c191690553880806145cd565b929360206001819287860151815501950193016145b7565b61463790846000526020600020601f850160051c8101916020861061095257601f0160051c019061329f565b38614250565b80518051906001600160401b03821161095c5761465a8654612b8d565b601f8111614718575b50602090601f83116001146146ab579261469c836001959460209487966000926135655750508160011b916000199060031b1c19161790565b87555b01940191019092614218565b90601f1983169187600052816000209260005b81811061470057509360209360019693879693838895106146e7575b505050811b01875561469f565b015160001960f88460031b161c191690553880806146da565b929360206001819287860151815501950193016146be565b61474490876000526020600020601f850160051c8101916020861061095257601f0160051c019061329f565b38614663565b8360005282602060002091820191015b8181106147675750614206565b8061477460019254612b8d565b80614781575b500161475a565b601f811183146147975750600081555b3861477a565b6147b5908260005283601f6020600020920160051c8201910161329f565b8060005260006020812081835555614791565b90601f1983169184600052816000209260005b81811061481757509084600195949392106147fe575b505050811b0190556141e2565b015160001960f88460031b161c191690553880806147f1565b929360206001819287860151815501950193016147db565b61485b90846000526020600020601f850160051c8101916020861061095257601f0160051c019061329f565b386141ae565b90601f1983169184600052816000209260005b8181106148b05750908460019594939210614897575b505050811b019055614181565b015160001960f88460031b161c1916905538808061488a565b92936020600181928786015181550195019301614874565b6148f490846000526020600020601f850160051c8101916020861061095257601f0160051c019061329f565b3861414d565b601f1982169585600052806000209160005b8881106149475750836001959697981061492e575b505050811b018355614120565b015160001960f88460031b161c19169055388080614921565b9192602060018192868501518155019401920161490c565b61498b90856000526020600020601f840160051c8101916020851061095257601f0160051c019061329f565b386140e956fea2646970667358221220c4f0f99ac239662c053af6af76d6b89be14263cd113d9055e8fb183f637547f964736f6c634300081b0033","opcodes":"PUSH1 0x80 CALLVALUE PUSH1 0x86 JUMPI PUSH1 0x1F PUSH2 0x4A7C CODESIZE DUP2 SWAP1 SUB SWAP2 DUP3 ADD PUSH1 0x1F NOT AND DUP4 ADD SWAP2 PUSH1 0x1 PUSH1 0x1 PUSH1 0x40 SHL SUB DUP4 GT DUP5 DUP5 LT OR PUSH1 0x8B JUMPI DUP1 DUP5 SWAP3 PUSH1 0x40 SWAP5 DUP6 MSTORE DUP4 CODECOPY DUP2 ADD SUB SLT PUSH1 0x86 JUMPI PUSH1 0x4B PUSH1 0x20 PUSH1 0x45 DUP4 PUSH1 0xA1 JUMP JUMPDEST SWAP3 ADD PUSH1 0xA1 JUMP JUMPDEST PUSH1 0x0 DUP1 SLOAD PUSH1 0x1 PUSH1 0x1 PUSH1 0xA0 SHL SUB SWAP4 DUP5 AND PUSH1 0x1 PUSH1 0x1 PUSH1 0xA0 SHL SUB NOT SWAP2 DUP3 AND OR SWAP1 SWAP2 SSTORE PUSH1 0x1 DUP1 SLOAD SWAP3 SWAP1 SWAP4 AND SWAP2 AND OR SWAP1 SSTORE PUSH1 0x40 MLOAD PUSH2 0x49C7 SWAP1 DUP2 PUSH2 0xB5 DUP3 CODECOPY RETURN JUMPDEST PUSH1 0x0 DUP1 REVERT JUMPDEST PUSH4 0x4E487B71 PUSH1 0xE0 SHL PUSH1 0x0 MSTORE PUSH1 0x41 PUSH1 0x4 MSTORE PUSH1 0x24 PUSH1 0x0 REVERT JUMPDEST MLOAD SWAP1 PUSH1 0x1 PUSH1 0x1 PUSH1 0xA0 SHL SUB DUP3 AND DUP3 SUB PUSH1 0x86 JUMPI JUMP INVALID PUSH1 0x80 DUP1 PUSH1 0x40 MSTORE PUSH1 0x4 CALLDATASIZE LT ISZERO PUSH2 0x13 JUMPI PUSH1 0x0 DUP1 REVERT JUMPDEST PUSH1 0x0 CALLDATALOAD PUSH1 0xE0 SHR SWAP1 DUP2 PUSH3 0x435DA5 EQ PUSH2 0x2B34 JUMPI POP DUP1 PUSH4 0xA04F9C8 EQ PUSH2 0x2B03 JUMPI DUP1 PUSH4 0x1A95E672 EQ PUSH2 0x2976 JUMPI DUP1 PUSH4 0x1C0B2030 EQ PUSH2 0x290E JUMPI DUP1 PUSH4 0x1DCE6E58 EQ PUSH2 0x26DD JUMPI DUP1 PUSH4 0x25606BC3 EQ PUSH2 0x2313 JUMPI DUP1 PUSH4 0x27321837 EQ PUSH2 0x22CB JUMPI DUP1 PUSH4 0x349A7A72 EQ PUSH2 0x2281 JUMPI DUP1 PUSH4 0x4B87568A EQ PUSH2 0x2219 JUMPI DUP1 PUSH4 0x735000EB EQ PUSH2 0x214D JUMPI DUP1 PUSH4 0x74D5E100 EQ PUSH2 0x20ED JUMPI DUP1 PUSH4 0x7AAD01BD EQ PUSH2 0x205E JUMPI DUP1 PUSH4 0x7ADE51DD EQ PUSH2 0x143E JUMPI DUP1 PUSH4 0x7D08414F EQ PUSH2 0x13AD JUMPI DUP1 PUSH4 0x86F5CEA6 EQ PUSH2 0x130B JUMPI DUP1 PUSH4 0x92B385C9 EQ PUSH2 0x118A JUMPI DUP1 PUSH4 0x9413FCFD EQ PUSH2 0x1161 JUMPI DUP1 PUSH4 0x9D9315C2 EQ PUSH2 0x1117 JUMPI DUP1 PUSH4 0xA812536D EQ PUSH2 0x10CD JUMPI DUP1 PUSH4 0xB7E66568 EQ PUSH2 0xFF4 JUMPI DUP1 PUSH4 0xBC4A6F6C EQ PUSH2 0xD81 JUMPI DUP1 PUSH4 0xD14F0E48 EQ PUSH2 0xBA0 JUMPI DUP1 PUSH4 0xD44FAA63 EQ PUSH2 0xA6B JUMPI DUP1 PUSH4 0xD9D284DC EQ PUSH2 0x440 JUMPI DUP1 PUSH4 0xE06749BA EQ PUSH2 0x1B6 JUMPI PUSH4 0xF1022862 EQ PUSH2 0x13C JUMPI PUSH1 0x0 DUP1 REVERT JUMPDEST CALLVALUE PUSH2 0x1B1 JUMPI PUSH1 0x20 CALLDATASIZE PUSH1 0x3 NOT ADD SLT PUSH2 0x1B1 JUMPI PUSH1 0x4 CALLDATALOAD PUSH1 0x1 PUSH1 0x1 PUSH1 0x40 SHL SUB DUP2 GT PUSH2 0x1B1 JUMPI PUSH2 0x199 PUSH2 0x18A PUSH1 0x20 PUSH2 0x177 PUSH2 0x1AD SWAP5 CALLDATASIZE SWAP1 PUSH1 0x4 ADD PUSH2 0x2DEA JUMP JUMPDEST DUP2 PUSH1 0x40 MLOAD SWAP4 DUP3 DUP6 DUP1 SWAP5 MLOAD SWAP4 DUP5 SWAP3 ADD PUSH2 0x2CC3 JUMP JUMPDEST DUP2 ADD PUSH1 0x7 DUP2 MSTORE SUB ADD SWAP1 KECCAK256 PUSH2 0x2C1F JUMP JUMPDEST PUSH1 0x40 MLOAD SWAP2 DUP3 SWAP2 PUSH1 0x20 DUP4 MSTORE PUSH1 0x20 DUP4 ADD SWAP1 PUSH2 0x2CE6 JUMP JUMPDEST SUB SWAP1 RETURN JUMPDEST PUSH1 0x0 DUP1 REVERT JUMPDEST CALLVALUE PUSH2 0x1B1 JUMPI PUSH1 0x0 CALLDATASIZE PUSH1 0x3 NOT ADD SLT PUSH2 0x1B1 JUMPI PUSH1 0x0 DUP1 PUSH1 0x2 SLOAD SWAP1 JUMPDEST DUP2 DUP2 LT PUSH2 0x402 JUMPI POP PUSH2 0x1E0 DUP3 PUSH2 0x31EB JUMP JUMPDEST SWAP1 PUSH2 0x1EA DUP4 PUSH2 0x31EB JUMP JUMPDEST PUSH2 0x1F3 DUP5 PUSH2 0x31EB JUMP JUMPDEST PUSH2 0x1FC DUP6 PUSH2 0x2F01 JUMP JUMPDEST SWAP2 PUSH2 0x20A PUSH1 0x40 MLOAD SWAP4 DUP5 PUSH2 0x2BFE JUMP JUMPDEST DUP6 DUP4 MSTORE PUSH2 0x22B PUSH2 0x219 DUP8 PUSH2 0x2F01 JUMP JUMPDEST PUSH1 0x20 DUP6 ADD SWAP8 SWAP1 PUSH1 0x1F NOT ADD CALLDATASIZE DUP10 CALLDATACOPY PUSH2 0x3235 JUMP JUMPDEST SWAP4 PUSH1 0x0 DUP1 JUMPDEST DUP3 DUP2 LT PUSH2 0x2B9 JUMPI POP POP POP PUSH1 0x20 SWAP2 PUSH2 0x266 PUSH2 0x274 SWAP3 PUSH2 0x259 PUSH1 0x40 MLOAD SWAP9 PUSH1 0xA0 DUP11 MSTORE PUSH1 0xA0 DUP11 ADD SWAP1 PUSH2 0x2D91 JUMP JUMPDEST SWAP1 DUP9 DUP3 SUB DUP7 DUP11 ADD MSTORE PUSH2 0x2D91 JUMP JUMPDEST SWAP1 DUP7 DUP3 SUB PUSH1 0x40 DUP9 ADD MSTORE PUSH2 0x2D91 JUMP JUMPDEST SWAP2 DUP5 DUP4 SUB PUSH1 0x60 DUP7 ADD MSTORE MLOAD SWAP2 DUP3 DUP2 MSTORE ADD SWAP4 SWAP1 PUSH1 0x0 JUMPDEST DUP2 DUP2 LT PUSH2 0x2A3 JUMPI DUP5 DUP1 PUSH2 0x1AD DUP9 DUP8 DUP4 DUP3 SUB PUSH1 0x80 DUP6 ADD MSTORE PUSH2 0x2E40 JUMP JUMPDEST DUP3 MLOAD DUP7 MSTORE PUSH1 0x20 SWAP6 DUP7 ADD SWAP6 SWAP1 SWAP3 ADD SWAP2 PUSH1 0x1 ADD PUSH2 0x288 JUMP JUMPDEST PUSH1 0xFF PUSH1 0x6 PUSH2 0x2C6 DUP4 PUSH2 0x305E JUMP JUMPDEST POP ADD SLOAD PUSH1 0x8 SHR AND PUSH2 0x2D6 DUP2 PUSH2 0x2D0B JUMP JUMPDEST PUSH2 0x2E3 JUMPI JUMPDEST PUSH1 0x1 ADD PUSH2 0x230 JUMP JUMPDEST SWAP1 PUSH2 0x3E7 PUSH1 0x1 SWAP2 PUSH2 0x2FC PUSH2 0x2F6 DUP6 PUSH2 0x305E JUMP JUMPDEST POP PUSH2 0x2C1F JUMP JUMPDEST PUSH2 0x306 DUP3 DUP13 PUSH2 0x3267 JUMP JUMPDEST MSTORE PUSH2 0x311 DUP2 DUP12 PUSH2 0x3267 JUMP JUMPDEST POP PUSH2 0x327 PUSH1 0x2 PUSH2 0x320 DUP7 PUSH2 0x305E JUMP JUMPDEST POP ADD PUSH2 0x2C1F JUMP JUMPDEST PUSH2 0x331 DUP3 DUP9 PUSH2 0x3267 JUMP JUMPDEST MSTORE PUSH2 0x33C DUP2 DUP8 PUSH2 0x3267 JUMP JUMPDEST POP PUSH2 0x368 PUSH2 0x35B PUSH1 0x20 PUSH2 0x34E DUP8 PUSH2 0x305E JUMP JUMPDEST POP PUSH1 0x40 MLOAD SWAP3 DUP4 DUP1 SWAP3 PUSH2 0x3110 JUMP JUMPDEST PUSH1 0x9 DUP2 MSTORE SUB ADD SWAP1 KECCAK256 PUSH2 0x2C1F JUMP JUMPDEST PUSH2 0x372 DUP3 DUP10 PUSH2 0x3267 JUMP JUMPDEST MSTORE PUSH2 0x37D DUP2 DUP9 PUSH2 0x3267 JUMP JUMPDEST POP PUSH1 0x8 PUSH2 0x389 DUP6 PUSH2 0x305E JUMP JUMPDEST POP ADD SLOAD PUSH1 0x7 PUSH2 0x397 DUP7 PUSH2 0x305E JUMP JUMPDEST POP ADD SLOAD LT ISZERO PUSH2 0x3EF JUMPI PUSH1 0x8 PUSH2 0x3AB DUP6 PUSH2 0x305E JUMP JUMPDEST POP ADD SLOAD JUMPDEST PUSH2 0x3B9 DUP3 DUP11 PUSH2 0x3267 JUMP JUMPDEST MSTORE PUSH1 0xFF PUSH1 0x6 PUSH2 0x3C7 DUP7 PUSH2 0x305E JUMP JUMPDEST POP ADD SLOAD PUSH1 0x8 SHR AND PUSH2 0x3D7 DUP2 PUSH2 0x2D0B JUMP JUMPDEST PUSH2 0x3E1 DUP3 DUP12 PUSH2 0x3267 JUMP JUMPDEST MSTORE PUSH2 0x317E JUMP JUMPDEST SWAP2 SWAP1 POP PUSH2 0x2DB JUMP JUMPDEST PUSH1 0x7 PUSH2 0x3FA DUP6 PUSH2 0x305E JUMP JUMPDEST POP ADD SLOAD PUSH2 0x3AF JUMP JUMPDEST PUSH1 0xFF PUSH1 0x6 PUSH2 0x40F DUP4 PUSH2 0x305E JUMP JUMPDEST POP ADD SLOAD PUSH1 0x8 SHR AND PUSH2 0x41F DUP2 PUSH2 0x2D0B JUMP JUMPDEST PUSH2 0x42C JUMPI JUMPDEST PUSH1 0x1 ADD PUSH2 0x1CF JUMP JUMPDEST SWAP2 PUSH2 0x438 PUSH1 0x1 SWAP2 PUSH2 0x317E JUMP JUMPDEST SWAP3 SWAP1 POP PUSH2 0x424 JUMP JUMPDEST CALLVALUE PUSH2 0x1B1 JUMPI PUSH2 0x140 CALLDATASIZE PUSH1 0x3 NOT ADD SLT PUSH2 0x1B1 JUMPI PUSH1 0x4 CALLDATALOAD PUSH1 0x1 PUSH1 0x1 PUSH1 0x40 SHL SUB DUP2 GT PUSH2 0x1B1 JUMPI PUSH2 0x471 SWAP1 CALLDATASIZE SWAP1 PUSH1 0x4 ADD PUSH2 0x2DEA JUMP JUMPDEST PUSH1 0x24 CALLDATALOAD PUSH1 0x1 PUSH1 0x1 PUSH1 0x40 SHL SUB DUP2 GT PUSH2 0x1B1 JUMPI PUSH2 0x490 SWAP1 CALLDATASIZE SWAP1 PUSH1 0x4 ADD PUSH2 0x2DEA JUMP JUMPDEST PUSH1 0x44 CALLDATALOAD PUSH1 0x1 PUSH1 0x1 PUSH1 0x40 SHL SUB DUP2 GT PUSH2 0x1B1 JUMPI PUSH2 0x4AF SWAP1 CALLDATASIZE SWAP1 PUSH1 0x4 ADD PUSH2 0x2DEA JUMP JUMPDEST SWAP1 PUSH1 0x64 CALLDATALOAD PUSH1 0x1 PUSH1 0x1 PUSH1 0x40 SHL SUB DUP2 GT PUSH2 0x1B1 JUMPI PUSH2 0x4CF SWAP1 CALLDATASIZE SWAP1 PUSH1 0x4 ADD PUSH2 0x2F18 JUMP JUMPDEST SWAP1 PUSH1 0x84 CALLDATALOAD PUSH1 0x1 PUSH1 0x1 PUSH1 0x40 SHL SUB DUP2 GT PUSH2 0x1B1 JUMPI PUSH2 0x4EF SWAP1 CALLDATASIZE SWAP1 PUSH1 0x4 ADD PUSH2 0x2DEA JUMP JUMPDEST PUSH1 0xA4 CALLDATALOAD PUSH1 0x1 PUSH1 0x1 PUSH1 0x40 SHL SUB DUP2 GT PUSH2 0x1B1 JUMPI PUSH2 0x50E SWAP1 CALLDATASIZE SWAP1 PUSH1 0x4 ADD PUSH2 0x2F18 JUMP JUMPDEST PUSH1 0xC4 CALLDATALOAD PUSH1 0x1 PUSH1 0x1 PUSH1 0xA0 SHL SUB DUP2 AND SWAP4 SWAP2 SWAP1 DUP5 SWAP1 SUB PUSH2 0x1B1 JUMPI PUSH1 0xE4 CALLDATALOAD PUSH1 0x1 PUSH1 0x1 PUSH1 0x40 SHL SUB DUP2 GT PUSH2 0x1B1 JUMPI PUSH2 0x544 SWAP1 CALLDATASIZE SWAP1 PUSH1 0x4 ADD PUSH2 0x2DEA JUMP JUMPDEST PUSH2 0x104 CALLDATALOAD PUSH1 0x1 PUSH1 0x1 PUSH1 0x40 SHL SUB DUP2 GT PUSH2 0x1B1 JUMPI PUSH2 0x564 SWAP1 CALLDATASIZE SWAP1 PUSH1 0x4 ADD PUSH2 0x2DEA JUMP JUMPDEST SWAP2 PUSH2 0x124 CALLDATALOAD SWAP7 PUSH1 0x2 DUP9 LT ISZERO PUSH2 0x1B1 JUMPI PUSH1 0x0 DUP1 SLOAD PUSH1 0x40 MLOAD PUSH4 0x95A8C58D PUSH1 0xE0 SHL DUP2 MSTORE CALLER PUSH1 0x4 DUP3 ADD MSTORE PUSH1 0x24 DUP2 ADD SWAP3 SWAP1 SWAP3 MSTORE PUSH1 0x20 SWAP1 DUP3 SWAP1 PUSH1 0x44 SWAP1 DUP3 SWAP1 PUSH1 0x1 PUSH1 0x1 PUSH1 0xA0 SHL SUB AND GAS STATICCALL DUP1 ISZERO PUSH2 0xA5F JUMPI PUSH2 0x5BF SWAP2 PUSH1 0x0 SWAP2 PUSH2 0xA30 JUMPI JUMPDEST POP PUSH2 0x4076 JUMP JUMPDEST PUSH1 0x40 MLOAD SWAP5 PUSH2 0x5CC DUP7 PUSH2 0x2BE2 JUMP JUMPDEST DUP11 DUP7 MSTORE PUSH1 0x20 DUP7 ADD MSTORE DUP9 PUSH1 0x40 DUP7 ADD MSTORE PUSH1 0x60 DUP6 ADD MSTORE DUP5 PUSH1 0x80 DUP6 ADD MSTORE PUSH1 0xA0 DUP5 ADD MSTORE PUSH2 0x5F7 DUP7 PUSH1 0xC0 DUP6 ADD PUSH2 0x327B JUMP JUMPDEST PUSH1 0x2 PUSH1 0xE0 DUP5 ADD MSTORE PUSH1 0x0 PUSH2 0x100 DUP5 ADD MSTORE PUSH1 0x0 PUSH2 0x120 DUP5 ADD MSTORE DUP8 PUSH1 0x40 SWAP4 DUP5 MLOAD PUSH2 0x61E DUP7 DUP3 PUSH2 0x2BFE JUMP JUMPDEST PUSH1 0x9 DUP2 MSTORE PUSH9 0x2A22AA29A22329A223 PUSH1 0xB9 SHL PUSH1 0x20 DUP3 ADD MSTORE PUSH2 0x140 DUP3 ADD MSTORE PUSH2 0x663 DUP2 DUP7 MLOAD PUSH1 0x20 DUP2 DUP2 DUP8 MLOAD SWAP8 ADD SWAP7 PUSH2 0x654 DUP2 DUP4 DUP11 PUSH2 0x2CC3 JUMP JUMPDEST DUP2 ADD PUSH1 0xC DUP2 MSTORE SUB ADD SWAP1 KECCAK256 PUSH2 0x40C1 JUMP JUMPDEST PUSH1 0x2 SLOAD PUSH1 0x1 PUSH1 0x40 SHL DUP2 LT ISZERO PUSH2 0x95C JUMPI DUP1 PUSH1 0x1 PUSH2 0x682 SWAP3 ADD PUSH1 0x2 SSTORE PUSH2 0x305E JUMP JUMPDEST SWAP2 SWAP1 SWAP2 PUSH2 0xA1A JUMPI PUSH2 0x692 SWAP2 PUSH2 0x40C1 JUMP JUMPDEST DUP4 MLOAD PUSH1 0x20 DUP2 DUP12 MLOAD PUSH2 0x6A4 DUP2 DUP4 DUP8 PUSH2 0x2CC3 JUMP JUMPDEST DUP2 ADD PUSH1 0x8 DUP2 MSTORE SUB ADD SWAP1 KECCAK256 DUP7 PUSH12 0xFFFFFFFFFFFFFFFFFFFFFFFF PUSH1 0xA0 SHL DUP3 SLOAD AND OR SWAP1 SSTORE DUP4 MLOAD PUSH1 0x20 DUP2 DUP12 MLOAD PUSH2 0x6D7 DUP2 DUP4 DUP8 PUSH2 0x2CC3 JUMP JUMPDEST DUP2 ADD PUSH1 0x9 DUP2 MSTORE SUB ADD SWAP1 KECCAK256 DUP3 MLOAD PUSH1 0x1 PUSH1 0x1 PUSH1 0x40 SHL SUB DUP2 GT PUSH2 0x95C JUMPI PUSH2 0x6FB DUP3 SLOAD PUSH2 0x2B8D JUMP JUMPDEST PUSH1 0x1F DUP2 GT PUSH2 0x9E8 JUMPI JUMPDEST POP PUSH1 0x20 PUSH1 0x1F DUP3 GT PUSH1 0x1 EQ PUSH2 0x97D JUMPI SWAP2 PUSH2 0x73B DUP3 PUSH2 0x74E SWAP6 SWAP4 PUSH1 0x20 SWAP6 PUSH1 0x0 SWAP2 PUSH2 0x972 JUMPI JUMPDEST POP DUP2 PUSH1 0x1 SHL SWAP2 PUSH1 0x0 NOT SWAP1 PUSH1 0x3 SHL SHR NOT AND OR SWAP1 JUMP JUMPDEST SWAP1 SSTORE JUMPDEST DUP6 MLOAD DUP1 SWAP4 DUP2 SWAP3 DUP14 MLOAD SWAP3 DUP4 SWAP2 PUSH2 0x2CC3 JUMP JUMPDEST DUP2 ADD PUSH1 0xA DUP2 MSTORE SUB ADD SWAP1 KECCAK256 SWAP8 DUP3 MLOAD SWAP9 PUSH1 0x1 PUSH1 0x1 PUSH1 0x40 SHL SUB DUP11 GT PUSH2 0x95C JUMPI PUSH2 0x774 DUP2 SLOAD PUSH2 0x2B8D JUMP JUMPDEST DUP11 PUSH1 0x1F DUP3 GT PUSH2 0x91E JUMPI JUMPDEST POP POP PUSH1 0x20 SWAP10 PUSH1 0x1F DUP2 GT PUSH1 0x1 EQ PUSH2 0x87D JUMPI SWAP4 PUSH2 0x842 PUSH2 0x86D SWAP8 SWAP5 PUSH2 0x821 PUSH2 0x84F SWAP6 PUSH2 0x862 SWAP10 SWAP6 PUSH32 0x634EF467423C7B2ABBAF26097BDDDAC4A495D36BE69CA3D1555484B46E7899C7 SWAP16 PUSH2 0x834 SWAP16 SWAP15 SWAP14 SWAP11 DUP1 PUSH2 0x7EC SWAP3 PUSH1 0x0 SWAP2 PUSH2 0x872 JUMPI POP DUP2 PUSH1 0x1 SHL SWAP2 PUSH1 0x0 NOT SWAP1 PUSH1 0x3 SHL SHR NOT AND OR SWAP1 JUMP JUMPDEST SWAP1 SSTORE JUMPDEST PUSH2 0x7F7 PUSH2 0x31A3 JUMP JUMPDEST DUP7 MLOAD SWAP2 PUSH2 0x803 DUP4 PUSH2 0x2BC7 JUMP JUMPDEST DUP3 MSTORE DUP14 PUSH1 0x20 DUP4 ADD MSTORE PUSH1 0x0 DUP8 DUP4 ADD MSTORE DUP4 PUSH1 0x60 DUP4 ADD MSTORE PUSH1 0x80 DUP3 ADD MSTORE PUSH2 0x3AF3 JUMP JUMPDEST DUP4 MLOAD SWAP12 DUP13 SWAP12 PUSH1 0xC0 DUP14 MSTORE PUSH1 0xC0 DUP14 ADD SWAP1 PUSH2 0x2CE6 JUMP JUMPDEST SWAP1 DUP12 DUP3 SUB PUSH1 0x20 DUP14 ADD MSTORE PUSH2 0x2CE6 JUMP JUMPDEST SWAP2 DUP10 DUP4 SUB SWAP1 DUP11 ADD MSTORE PUSH2 0x2CE6 JUMP JUMPDEST SWAP2 PUSH1 0x60 DUP8 ADD MSTORE DUP6 DUP3 SUB PUSH1 0x80 DUP8 ADD MSTORE PUSH2 0x2CE6 JUMP JUMPDEST SWAP2 PUSH1 0xA0 DUP5 ADD SWAP1 PUSH2 0x2E77 JUMP JUMPDEST SUB SWAP1 LOG1 STOP JUMPDEST SWAP1 POP DUP9 ADD MLOAD CODESIZE PUSH2 0x727 JUMP JUMPDEST PUSH1 0x1F NOT DUP2 AND SWAP11 DUP3 PUSH1 0x0 MSTORE DUP1 PUSH1 0x0 KECCAK256 SWAP1 PUSH1 0x0 JUMPDEST DUP14 DUP2 LT PUSH2 0x906 JUMPI POP SWAP5 PUSH2 0x821 PUSH2 0x84F SWAP6 PUSH2 0x862 SWAP10 SWAP6 PUSH32 0x634EF467423C7B2ABBAF26097BDDDAC4A495D36BE69CA3D1555484B46E7899C7 SWAP16 PUSH2 0x834 SWAP16 SWAP15 SWAP14 SWAP11 SWAP7 PUSH2 0x842 SWAP7 PUSH2 0x86D SWAP15 SWAP12 DUP3 PUSH1 0x1 SWAP5 LT PUSH2 0x8ED JUMPI JUMPDEST POP POP DUP2 SHL ADD SWAP1 SSTORE PUSH2 0x7EF JUMP JUMPDEST DUP10 ADD MLOAD PUSH1 0x0 NOT PUSH1 0xF8 DUP5 PUSH1 0x3 SHL AND SHR NOT AND SWAP1 SSTORE CODESIZE DUP1 PUSH2 0x8E1 JUMP JUMPDEST SWAP1 SWAP2 PUSH1 0x20 PUSH1 0x1 DUP2 SWAP3 DUP6 DUP12 ADD MLOAD DUP2 SSTORE ADD SWAP4 ADD SWAP2 ADD PUSH2 0x88F JUMP JUMPDEST PUSH2 0x94B SWAP2 DUP4 PUSH1 0x0 MSTORE PUSH1 0x20 PUSH1 0x0 KECCAK256 SWAP1 PUSH1 0x20 PUSH1 0x1F DUP5 ADD PUSH1 0x5 SHR DUP4 ADD SWAP4 LT PUSH2 0x952 JUMPI JUMPDEST PUSH1 0x1F ADD PUSH1 0x5 SHR ADD SWAP1 PUSH2 0x329F JUMP JUMPDEST DUP11 DUP11 PUSH2 0x77E JUMP JUMPDEST SWAP1 SWAP2 POP DUP2 SWAP1 PUSH2 0x93E JUMP JUMPDEST PUSH4 0x4E487B71 PUSH1 0xE0 SHL PUSH1 0x0 MSTORE PUSH1 0x41 PUSH1 0x4 MSTORE PUSH1 0x24 PUSH1 0x0 REVERT JUMPDEST SWAP1 POP DUP8 ADD MLOAD DUP16 PUSH2 0x727 JUMP JUMPDEST PUSH1 0x1F NOT DUP3 AND SWAP1 DUP4 PUSH1 0x0 MSTORE DUP1 PUSH1 0x0 KECCAK256 SWAP2 PUSH1 0x0 JUMPDEST DUP2 DUP2 LT PUSH2 0x9D0 JUMPI POP SWAP3 PUSH1 0x20 SWAP5 SWAP3 PUSH1 0x1 SWAP3 DUP3 PUSH2 0x74E SWAP9 SWAP7 LT PUSH2 0x9B7 JUMPI JUMPDEST POP POP DUP2 SHL ADD SWAP1 SSTORE PUSH2 0x73E JUMP JUMPDEST DUP9 ADD MLOAD PUSH1 0x0 NOT PUSH1 0xF8 DUP5 PUSH1 0x3 SHL AND SHR NOT AND SWAP1 SSTORE DUP15 DUP1 PUSH2 0x9AB JUMP JUMPDEST SWAP2 SWAP3 PUSH1 0x20 PUSH1 0x1 DUP2 SWAP3 DUP7 DUP12 ADD MLOAD DUP2 SSTORE ADD SWAP5 ADD SWAP3 ADD PUSH2 0x98F JUMP JUMPDEST PUSH2 0xA14 SWAP1 DUP4 PUSH1 0x0 MSTORE PUSH1 0x20 PUSH1 0x0 KECCAK256 PUSH1 0x1F DUP5 ADD PUSH1 0x5 SHR DUP2 ADD SWAP2 PUSH1 0x20 DUP6 LT PUSH2 0x952 JUMPI PUSH1 0x1F ADD PUSH1 0x5 SHR ADD SWAP1 PUSH2 0x329F JUMP JUMPDEST DUP12 PUSH2 0x704 JUMP JUMPDEST PUSH4 0x4E487B71 PUSH1 0xE0 SHL PUSH1 0x0 MSTORE PUSH1 0x0 PUSH1 0x4 MSTORE PUSH1 0x24 PUSH1 0x0 REVERT JUMPDEST PUSH2 0xA52 SWAP2 POP PUSH1 0x20 RETURNDATASIZE PUSH1 0x20 GT PUSH2 0xA58 JUMPI JUMPDEST PUSH2 0xA4A DUP2 DUP4 PUSH2 0x2BFE JUMP JUMPDEST DUP2 ADD SWAP1 PUSH2 0x3287 JUMP JUMPDEST DUP13 PUSH2 0x5B9 JUMP JUMPDEST POP RETURNDATASIZE PUSH2 0xA40 JUMP JUMPDEST PUSH1 0x40 MLOAD RETURNDATASIZE PUSH1 0x0 DUP3 RETURNDATACOPY RETURNDATASIZE SWAP1 REVERT JUMPDEST CALLVALUE PUSH2 0x1B1 JUMPI PUSH1 0x20 CALLDATASIZE PUSH1 0x3 NOT ADD SLT PUSH2 0x1B1 JUMPI PUSH1 0x4 CALLDATALOAD PUSH1 0x1 PUSH1 0x1 PUSH1 0x40 SHL SUB DUP2 GT PUSH2 0x1B1 JUMPI PUSH1 0x0 PUSH2 0xAA0 PUSH2 0xACD SWAP3 CALLDATASIZE SWAP1 PUSH1 0x4 ADD PUSH2 0x2DEA JUMP JUMPDEST PUSH1 0x1 DUP1 PUSH1 0xA0 SHL SUB PUSH1 0x1 SLOAD AND PUSH1 0x40 MLOAD DUP1 DUP1 SWAP6 DUP2 SWAP5 PUSH3 0x9A3087 PUSH1 0xE3 SHL DUP4 MSTORE PUSH1 0x20 PUSH1 0x4 DUP5 ADD MSTORE PUSH1 0x24 DUP4 ADD SWAP1 PUSH2 0x2CE6 JUMP JUMPDEST SUB SWAP2 GAS STATICCALL SWAP1 DUP2 ISZERO PUSH2 0xA5F JUMPI PUSH1 0x0 SWAP2 PUSH2 0xAF6 JUMPI JUMPDEST PUSH1 0x40 MLOAD PUSH1 0x20 DUP1 DUP3 MSTORE DUP2 SWAP1 PUSH2 0x1AD SWAP1 DUP3 ADD DUP6 PUSH2 0x2E40 JUMP JUMPDEST RETURNDATASIZE DUP1 DUP4 DUP4 RETURNDATACOPY PUSH2 0xB05 DUP2 DUP4 PUSH2 0x2BFE JUMP JUMPDEST DUP2 ADD SWAP1 PUSH1 0x20 DUP2 DUP4 SUB SLT PUSH2 0xB94 JUMPI DUP1 MLOAD SWAP1 PUSH1 0x1 PUSH1 0x1 PUSH1 0x40 SHL SUB DUP3 GT PUSH2 0xB9C JUMPI ADD SWAP1 DUP1 PUSH1 0x1F DUP4 ADD SLT ISZERO PUSH2 0xB94 JUMPI DUP2 MLOAD SWAP3 PUSH2 0xB3C DUP5 PUSH2 0x2F01 JUMP JUMPDEST SWAP3 PUSH2 0xB4A PUSH1 0x40 MLOAD SWAP5 DUP6 PUSH2 0x2BFE JUMP JUMPDEST DUP5 DUP5 MSTORE PUSH1 0x20 DUP1 DUP6 ADD SWAP6 PUSH1 0x5 SHL DUP3 ADD ADD SWAP3 DUP4 GT PUSH2 0xB98 JUMPI PUSH1 0x20 ADD SWAP4 JUMPDEST DUP3 DUP6 LT PUSH2 0xB7A JUMPI POP POP POP PUSH2 0x1AD SWAP2 POP SWAP1 PUSH2 0xAE0 JUMP JUMPDEST DUP5 MLOAD PUSH1 0xFF DUP2 AND DUP2 SUB PUSH2 0xB94 JUMPI DUP2 MSTORE PUSH1 0x20 SWAP5 DUP6 ADD SWAP5 ADD PUSH2 0xB65 JUMP JUMPDEST DUP3 DUP1 REVERT JUMPDEST POP DUP1 REVERT JUMPDEST DUP4 DUP1 REVERT JUMPDEST CALLVALUE PUSH2 0x1B1 JUMPI PUSH1 0xA0 CALLDATASIZE PUSH1 0x3 NOT ADD SLT PUSH2 0x1B1 JUMPI PUSH1 0x4 CALLDATALOAD PUSH1 0x1 PUSH1 0x1 PUSH1 0x40 SHL SUB DUP2 GT PUSH2 0x1B1 JUMPI PUSH2 0xBD0 SWAP1 CALLDATASIZE SWAP1 PUSH1 0x4 ADD PUSH2 0x2DEA JUMP JUMPDEST PUSH1 0x24 CALLDATALOAD PUSH1 0x1 PUSH1 0x1 PUSH1 0x40 SHL SUB DUP2 GT PUSH2 0x1B1 JUMPI PUSH2 0xBEF SWAP1 CALLDATASIZE SWAP1 PUSH1 0x4 ADD PUSH2 0x2DEA JUMP JUMPDEST SWAP1 PUSH1 0x44 CALLDATALOAD SWAP1 PUSH1 0xFF DUP3 AND DUP1 SWAP3 SUB PUSH2 0x1B1 JUMPI PUSH1 0x64 CALLDATALOAD PUSH1 0x1 PUSH1 0x1 PUSH1 0x40 SHL SUB DUP2 GT PUSH2 0x1B1 JUMPI PUSH2 0xC1E SWAP1 CALLDATASIZE SWAP1 PUSH1 0x4 ADD PUSH2 0x2DEA JUMP JUMPDEST PUSH1 0x84 CALLDATALOAD PUSH1 0x1 PUSH1 0x1 PUSH1 0x40 SHL SUB DUP2 GT PUSH2 0x1B1 JUMPI PUSH2 0xC3D SWAP1 CALLDATASIZE SWAP1 PUSH1 0x4 ADD PUSH2 0x2F18 JUMP JUMPDEST SWAP3 PUSH1 0x44 PUSH1 0x20 PUSH1 0x1 DUP1 PUSH1 0xA0 SHL SUB PUSH1 0x0 SLOAD AND PUSH1 0x40 MLOAD SWAP3 DUP4 DUP1 SWAP3 PUSH4 0x95A8C58D PUSH1 0xE0 SHL DUP3 MSTORE CALLER PUSH1 0x4 DUP4 ADD MSTORE PUSH1 0x0 PUSH1 0x24 DUP4 ADD MSTORE GAS STATICCALL DUP1 ISZERO PUSH2 0xA5F JUMPI PUSH2 0xC84 SWAP2 PUSH1 0x0 SWAP2 PUSH2 0xD62 JUMPI POP PUSH2 0x4076 JUMP JUMPDEST DUP4 MLOAD DUP2 SUB PUSH2 0xD0B JUMPI PUSH32 0xABB6D08782DF0E4C2EE63DEACC72EFC9C1A9422C00FC5D8075160D11EAA40B4A SWAP5 PUSH2 0xCE4 PUSH2 0x86D SWAP4 PUSH2 0xCF8 SWAP7 PUSH1 0x40 MLOAD SWAP2 PUSH2 0xCC6 DUP4 PUSH2 0x2BC7 JUMP JUMPDEST DUP5 DUP4 MSTORE DUP8 PUSH1 0x20 DUP5 ADD MSTORE DUP6 PUSH1 0x40 DUP5 ADD MSTORE PUSH1 0x60 DUP4 ADD MSTORE PUSH1 0x80 DUP3 ADD MSTORE PUSH2 0x3AF3 JUMP JUMPDEST PUSH1 0x40 MLOAD SWAP5 DUP6 SWAP5 PUSH1 0x60 DUP7 MSTORE PUSH1 0x60 DUP7 ADD SWAP1 PUSH2 0x2CE6 JUMP JUMPDEST SWAP2 PUSH1 0x20 DUP6 ADD MSTORE DUP4 DUP3 SUB PUSH1 0x40 DUP6 ADD MSTORE PUSH2 0x2CE6 JUMP JUMPDEST PUSH1 0x40 MLOAD PUSH3 0x461BCD PUSH1 0xE5 SHL DUP2 MSTORE PUSH1 0x20 PUSH1 0x4 DUP3 ADD MSTORE PUSH1 0x29 PUSH1 0x24 DUP3 ADD MSTORE PUSH32 0x5175616E7469747920646F6573206E6F74206D6174636820746865206E756D62 PUSH1 0x44 DUP3 ADD MSTORE PUSH9 0x6572206F6620494473 PUSH1 0xB8 SHL PUSH1 0x64 DUP3 ADD MSTORE PUSH1 0x84 SWAP1 REVERT JUMPDEST PUSH2 0xD7B SWAP2 POP PUSH1 0x20 RETURNDATASIZE PUSH1 0x20 GT PUSH2 0xA58 JUMPI PUSH2 0xA4A DUP2 DUP4 PUSH2 0x2BFE JUMP JUMPDEST DUP8 PUSH2 0x5B9 JUMP JUMPDEST CALLVALUE PUSH2 0x1B1 JUMPI PUSH1 0x20 CALLDATASIZE PUSH1 0x3 NOT ADD SLT PUSH2 0x1B1 JUMPI PUSH1 0x4 CALLDATALOAD PUSH1 0x1 PUSH1 0x1 PUSH1 0x40 SHL SUB DUP2 GT PUSH2 0x1B1 JUMPI PUSH2 0xDB1 SWAP1 CALLDATASIZE SWAP1 PUSH1 0x4 ADD PUSH2 0x2DEA JUMP JUMPDEST PUSH1 0x0 DUP1 SLOAD PUSH1 0x40 MLOAD PUSH4 0x95A8C58D PUSH1 0xE0 SHL DUP2 MSTORE CALLER PUSH1 0x4 DUP3 ADD MSTORE PUSH1 0x24 DUP2 ADD SWAP3 SWAP1 SWAP3 MSTORE PUSH1 0x20 SWAP1 DUP3 SWAP1 PUSH1 0x44 SWAP1 DUP3 SWAP1 PUSH1 0x1 PUSH1 0x1 PUSH1 0xA0 SHL SUB AND GAS STATICCALL DUP1 ISZERO PUSH2 0xA5F JUMPI PUSH2 0xDFC SWAP2 PUSH1 0x0 SWAP2 PUSH2 0xFD5 JUMPI POP PUSH2 0x4076 JUMP JUMPDEST PUSH1 0x40 MLOAD DUP2 MLOAD SWAP1 PUSH1 0x20 DUP2 DUP2 DUP6 ADD SWAP4 PUSH2 0xE14 DUP2 DUP4 DUP8 PUSH2 0x2CC3 JUMP JUMPDEST DUP2 ADD PUSH1 0xC DUP2 MSTORE SUB ADD SWAP1 KECCAK256 SWAP2 PUSH1 0x6 DUP4 ADD DUP1 SLOAD PUSH1 0xFF DUP2 PUSH1 0x8 SHR AND PUSH2 0xE35 DUP2 PUSH2 0x2D0B JUMP JUMPDEST PUSH2 0xF73 JUMPI TIMESTAMP PUSH1 0x7 DUP7 ADD SSTORE PUSH2 0xFF00 NOT AND PUSH2 0x100 OR SWAP1 SSTORE PUSH1 0x0 JUMPDEST PUSH1 0x2 SLOAD DUP2 LT ISZERO PUSH2 0xF43 JUMPI PUSH2 0xE60 DUP2 PUSH2 0x305E JUMP JUMPDEST POP PUSH1 0x40 MLOAD PUSH2 0xE84 DUP2 PUSH2 0xE76 PUSH1 0x20 DUP3 ADD DUP1 SWAP6 PUSH2 0x3110 JUMP JUMPDEST SUB PUSH1 0x1F NOT DUP2 ADD DUP4 MSTORE DUP3 PUSH2 0x2BFE JUMP JUMPDEST MLOAD SWAP1 KECCAK256 PUSH1 0x40 MLOAD PUSH1 0x20 DUP2 ADD SWAP1 PUSH2 0xEB3 PUSH1 0x20 DUP3 DUP8 MLOAD PUSH2 0xEA2 DUP2 DUP8 DUP13 PUSH2 0x2CC3 JUMP JUMPDEST DUP2 ADD SUB ADD PUSH1 0x1F NOT DUP2 ADD DUP4 MSTORE DUP3 PUSH2 0x2BFE JUMP JUMPDEST MLOAD SWAP1 KECCAK256 EQ PUSH2 0xEC3 JUMPI PUSH1 0x1 ADD PUSH2 0xE4D JUMP JUMPDEST PUSH2 0xF2E SWAP3 POP PUSH32 0x854681DB4B5190CEAACFE5894893F2E8D49873D9B8ED6C72B5618047CB3924E5 SWAP4 PUSH1 0x6 PUSH2 0xF08 DUP4 PUSH2 0xEFC PUSH2 0x86D SWAP6 PUSH2 0x305E JUMP JUMPDEST POP PUSH1 0x7 TIMESTAMP SWAP2 ADD SSTORE PUSH2 0x305E JUMP JUMPDEST POP ADD DUP1 SLOAD PUSH2 0xFF00 NOT AND PUSH2 0x100 OR SWAP1 SSTORE JUMPDEST PUSH1 0x2 PUSH1 0x40 MLOAD SWAP5 DUP6 SWAP5 PUSH1 0x60 DUP7 MSTORE PUSH1 0x60 DUP7 ADD SWAP1 PUSH2 0x2CE6 JUMP JUMPDEST SWAP2 TIMESTAMP PUSH1 0x20 DUP7 ADD MSTORE DUP5 DUP4 SUB PUSH1 0x40 DUP7 ADD MSTORE ADD PUSH2 0x3FF3 JUMP JUMPDEST POP PUSH2 0xF2E SWAP2 POP PUSH2 0x86D PUSH32 0x854681DB4B5190CEAACFE5894893F2E8D49873D9B8ED6C72B5618047CB3924E5 SWAP4 PUSH2 0xF18 JUMP JUMPDEST PUSH1 0x40 MLOAD PUSH3 0x461BCD PUSH1 0xE5 SHL DUP2 MSTORE PUSH1 0x20 PUSH1 0x4 DUP3 ADD MSTORE PUSH1 0x34 PUSH1 0x24 DUP3 ADD MSTORE PUSH32 0x4F62617420547261646973696F6E616C20737461747573206D75737420626520 PUSH1 0x44 DUP3 ADD MSTORE PUSH20 0x696E206C6F63616C2070726F64756374696F6E21 PUSH1 0x60 SHL PUSH1 0x64 DUP3 ADD MSTORE PUSH1 0x84 SWAP1 REVERT JUMPDEST PUSH2 0xFEE SWAP2 POP PUSH1 0x20 RETURNDATASIZE PUSH1 0x20 GT PUSH2 0xA58 JUMPI PUSH2 0xA4A DUP2 DUP4 PUSH2 0x2BFE JUMP JUMPDEST DUP4 PUSH2 0x5B9 JUMP JUMPDEST CALLVALUE PUSH2 0x1B1 JUMPI PUSH2 0x1002 CALLDATASIZE PUSH2 0x2F96 JUMP JUMPDEST PUSH1 0x0 SLOAD PUSH1 0x40 MLOAD PUSH4 0x95A8C58D PUSH1 0xE0 SHL DUP2 MSTORE CALLER PUSH1 0x4 DUP3 ADD MSTORE PUSH1 0x3 PUSH1 0x24 DUP3 ADD MSTORE SWAP2 SWAP7 SWAP3 SWAP6 SWAP4 SWAP5 SWAP4 SWAP3 SWAP2 SWAP1 PUSH1 0x20 SWAP1 DUP3 SWAP1 PUSH1 0x44 SWAP1 DUP3 SWAP1 PUSH1 0x1 PUSH1 0x1 PUSH1 0xA0 SHL SUB AND GAS STATICCALL SWAP1 DUP2 ISZERO PUSH2 0xA5F JUMPI PUSH1 0x0 SWAP2 PUSH2 0x10AE JUMPI JUMPDEST POP ISZERO PUSH2 0x105E JUMPI PUSH2 0x105C SWAP7 PUSH2 0x38F6 JUMP JUMPDEST STOP JUMPDEST PUSH1 0x40 MLOAD PUSH3 0x461BCD PUSH1 0xE5 SHL DUP2 MSTORE PUSH1 0x20 PUSH1 0x4 DUP3 ADD MSTORE PUSH1 0x22 PUSH1 0x24 DUP3 ADD MSTORE PUSH32 0x416363657373207265737472696374656420746F2052657461696C657220726F PUSH1 0x44 DUP3 ADD MSTORE PUSH2 0x6C65 PUSH1 0xF0 SHL PUSH1 0x64 DUP3 ADD MSTORE PUSH1 0x84 SWAP1 REVERT JUMPDEST PUSH2 0x10C7 SWAP2 POP PUSH1 0x20 RETURNDATASIZE PUSH1 0x20 GT PUSH2 0xA58 JUMPI PUSH2 0xA4A DUP2 DUP4 PUSH2 0x2BFE JUMP JUMPDEST DUP9 PUSH2 0x104D JUMP JUMPDEST CALLVALUE PUSH2 0x1B1 JUMPI PUSH1 0x20 CALLDATASIZE PUSH1 0x3 NOT ADD SLT PUSH2 0x1B1 JUMPI PUSH1 0x4 CALLDATALOAD PUSH1 0x1 PUSH1 0x1 PUSH1 0x40 SHL SUB DUP2 GT PUSH2 0x1B1 JUMPI PUSH2 0x199 PUSH2 0x1108 PUSH1 0x20 PUSH2 0x177 PUSH2 0x1AD SWAP5 CALLDATASIZE SWAP1 PUSH1 0x4 ADD PUSH2 0x2DEA JUMP JUMPDEST DUP2 ADD PUSH1 0x9 DUP2 MSTORE SUB ADD SWAP1 KECCAK256 PUSH2 0x2C1F JUMP JUMPDEST CALLVALUE PUSH2 0x1B1 JUMPI PUSH1 0x20 CALLDATASIZE PUSH1 0x3 NOT ADD SLT PUSH2 0x1B1 JUMPI PUSH1 0x4 CALLDATALOAD PUSH1 0x1 PUSH1 0x1 PUSH1 0x40 SHL SUB DUP2 GT PUSH2 0x1B1 JUMPI PUSH2 0x199 PUSH2 0x1152 PUSH1 0x20 PUSH2 0x177 PUSH2 0x1AD SWAP5 CALLDATASIZE SWAP1 PUSH1 0x4 ADD PUSH2 0x2DEA JUMP JUMPDEST DUP2 ADD PUSH1 0x6 DUP2 MSTORE SUB ADD SWAP1 KECCAK256 PUSH2 0x2C1F JUMP JUMPDEST CALLVALUE PUSH2 0x1B1 JUMPI PUSH1 0x0 CALLDATASIZE PUSH1 0x3 NOT ADD SLT PUSH2 0x1B1 JUMPI PUSH1 0x1 SLOAD PUSH1 0x40 MLOAD PUSH1 0x1 PUSH1 0x1 PUSH1 0xA0 SHL SUB SWAP1 SWAP2 AND DUP2 MSTORE PUSH1 0x20 SWAP1 RETURN JUMPDEST CALLVALUE PUSH2 0x1B1 JUMPI PUSH1 0x20 CALLDATASIZE PUSH1 0x3 NOT ADD SLT PUSH2 0x1B1 JUMPI PUSH1 0x4 CALLDATALOAD PUSH1 0x1 PUSH1 0x1 PUSH1 0x40 SHL SUB DUP2 GT PUSH2 0x1B1 JUMPI PUSH2 0x11BA SWAP1 CALLDATASIZE SWAP1 PUSH1 0x4 ADD PUSH2 0x2DEA JUMP JUMPDEST PUSH1 0x3 SLOAD PUSH1 0x0 SWAP2 PUSH1 0x20 DUP2 ADD SWAP1 DUP4 JUMPDEST DUP4 DUP2 LT PUSH2 0x12A3 JUMPI POP POP POP PUSH2 0x11DA DUP3 PUSH2 0x31EB JUMP JUMPDEST SWAP2 PUSH2 0x11ED PUSH2 0x11E7 DUP3 PUSH2 0x31EB JUMP JUMPDEST SWAP2 PUSH2 0x3235 JUMP JUMPDEST SWAP2 PUSH1 0x0 DUP1 JUMPDEST DUP3 DUP3 LT PUSH2 0x1235 JUMPI PUSH2 0x1219 DUP7 PUSH2 0x1AD DUP8 PUSH2 0x1227 DUP9 PUSH1 0x40 MLOAD SWAP6 DUP7 SWAP6 PUSH1 0x60 DUP8 MSTORE PUSH1 0x60 DUP8 ADD SWAP1 PUSH2 0x2D91 JUMP JUMPDEST SWAP1 DUP6 DUP3 SUB PUSH1 0x20 DUP8 ADD MSTORE PUSH2 0x2D91 JUMP JUMPDEST SWAP1 DUP4 DUP3 SUB PUSH1 0x40 DUP6 ADD MSTORE PUSH2 0x2E40 JUMP JUMPDEST PUSH2 0x129B PUSH1 0x1 SWAP2 PUSH2 0x1247 PUSH2 0x2F6 DUP6 PUSH2 0x307D JUMP JUMPDEST PUSH2 0x1251 DUP3 DUP11 PUSH2 0x3267 JUMP JUMPDEST MSTORE PUSH2 0x125C DUP2 DUP10 PUSH2 0x3267 JUMP JUMPDEST POP PUSH2 0x126A DUP4 PUSH2 0x320 DUP7 PUSH2 0x307D JUMP JUMPDEST PUSH2 0x1274 DUP3 DUP9 PUSH2 0x3267 JUMP JUMPDEST MSTORE PUSH2 0x127F DUP2 DUP8 PUSH2 0x3267 JUMP JUMPDEST POP PUSH1 0xFF PUSH1 0x2 PUSH2 0x128D DUP7 PUSH2 0x307D JUMP JUMPDEST POP ADD SLOAD AND PUSH2 0x3E1 DUP3 DUP10 PUSH2 0x3267 JUMP JUMPDEST SWAP2 ADD SWAP1 PUSH2 0x11F2 JUMP JUMPDEST PUSH1 0x3 PUSH2 0xE76 PUSH2 0x12C8 PUSH2 0x12B4 DUP5 PUSH2 0x307D JUMP JUMPDEST POP PUSH1 0x40 MLOAD SWAP3 DUP4 SWAP2 PUSH1 0x20 DUP4 ADD SWAP6 DUP7 SWAP2 ADD PUSH2 0x3110 JUMP JUMPDEST MLOAD SWAP1 KECCAK256 PUSH1 0x40 MLOAD PUSH1 0x20 DUP2 ADD SWAP1 PUSH2 0x12E6 PUSH1 0x20 DUP3 DUP8 MLOAD PUSH2 0xEA2 DUP2 DUP8 DUP13 PUSH2 0x2CC3 JUMP JUMPDEST MLOAD SWAP1 KECCAK256 EQ PUSH2 0x12F7 JUMPI JUMPDEST PUSH1 0x1 ADD PUSH2 0x11C7 JUMP JUMPDEST SWAP4 PUSH2 0x1303 PUSH1 0x1 SWAP2 PUSH2 0x317E JUMP JUMPDEST SWAP5 SWAP1 POP PUSH2 0x12EF JUMP JUMPDEST CALLVALUE PUSH2 0x1B1 JUMPI PUSH1 0x20 CALLDATASIZE PUSH1 0x3 NOT ADD SLT PUSH2 0x1B1 JUMPI PUSH1 0x4 CALLDATALOAD PUSH1 0x1 PUSH1 0x1 PUSH1 0x40 SHL SUB DUP2 GT PUSH2 0x1B1 JUMPI PUSH1 0x20 PUSH2 0x177 PUSH2 0x1340 SWAP3 CALLDATASIZE SWAP1 PUSH1 0x4 ADD PUSH2 0x2DEA JUMP JUMPDEST DUP2 ADD PUSH1 0xD DUP2 MSTORE SUB ADD SWAP1 KECCAK256 PUSH2 0x1353 DUP2 PUSH2 0x2C1F JUMP JUMPDEST PUSH2 0x1AD PUSH2 0x1362 PUSH1 0x1 DUP5 ADD PUSH2 0x2C1F JUMP JUMPDEST SWAP2 PUSH2 0x136F PUSH1 0x2 DUP6 ADD PUSH2 0x2C1F JUMP JUMPDEST SWAP4 PUSH1 0xFF PUSH1 0x3 DUP3 ADD SLOAD AND SWAP2 PUSH2 0x1385 PUSH1 0x4 DUP4 ADD PUSH2 0x2C1F JUMP JUMPDEST PUSH1 0x6 PUSH1 0x5 DUP5 ADD SLOAD SWAP4 ADD SLOAD SWAP4 PUSH1 0x40 MLOAD SWAP8 DUP9 SWAP8 PUSH1 0xFF DUP7 PUSH1 0xA0 SHR AND SWAP6 PUSH1 0x1 DUP1 PUSH1 0xA0 SHL SUB AND SWAP5 DUP10 PUSH2 0x2D15 JUMP JUMPDEST CALLVALUE PUSH2 0x1B1 JUMPI PUSH1 0x20 CALLDATASIZE PUSH1 0x3 NOT ADD SLT PUSH2 0x1B1 JUMPI PUSH1 0x4 CALLDATALOAD PUSH1 0x3 SLOAD DUP2 LT ISZERO PUSH2 0x1B1 JUMPI PUSH2 0x13D7 PUSH2 0x141D SWAP2 PUSH2 0x307D JUMP JUMPDEST POP PUSH2 0x1AD PUSH2 0x13E4 DUP3 PUSH2 0x2C1F JUMP JUMPDEST SWAP2 PUSH2 0x13F1 PUSH1 0x1 DUP3 ADD PUSH2 0x2C1F JUMP JUMPDEST PUSH2 0x142B PUSH2 0x1408 PUSH1 0x3 PUSH1 0xFF PUSH1 0x2 DUP7 ADD SLOAD AND SWAP5 ADD PUSH2 0x2C1F JUMP JUMPDEST SWAP2 PUSH1 0x40 MLOAD SWAP7 DUP8 SWAP7 PUSH1 0x80 DUP9 MSTORE PUSH1 0x80 DUP9 ADD SWAP1 PUSH2 0x2CE6 JUMP JUMPDEST SWAP1 DUP7 DUP3 SUB PUSH1 0x20 DUP9 ADD MSTORE PUSH2 0x2CE6 JUMP JUMPDEST SWAP2 PUSH1 0x40 DUP6 ADD MSTORE DUP4 DUP3 SUB PUSH1 0x60 DUP6 ADD MSTORE PUSH2 0x2CE6 JUMP JUMPDEST CALLVALUE PUSH2 0x1B1 JUMPI PUSH1 0xA0 CALLDATASIZE PUSH1 0x3 NOT ADD SLT PUSH2 0x1B1 JUMPI PUSH1 0x4 CALLDATALOAD PUSH1 0x1 PUSH1 0x1 PUSH1 0x40 SHL SUB DUP2 GT PUSH2 0x1B1 JUMPI PUSH2 0x146E SWAP1 CALLDATASIZE SWAP1 PUSH1 0x4 ADD PUSH2 0x2DEA JUMP JUMPDEST PUSH1 0x24 CALLDATALOAD PUSH1 0x1 PUSH1 0x1 PUSH1 0xA0 SHL SUB DUP2 AND DUP2 SUB PUSH2 0x1B1 JUMPI PUSH1 0x44 CALLDATALOAD PUSH1 0x1 PUSH1 0x1 PUSH1 0x40 SHL SUB DUP2 GT PUSH2 0x1B1 JUMPI PUSH2 0x14A0 SWAP1 CALLDATASIZE SWAP1 PUSH1 0x4 ADD PUSH2 0x2DEA JUMP JUMPDEST PUSH1 0x64 CALLDATALOAD PUSH1 0x1 PUSH1 0x1 PUSH1 0x40 SHL SUB DUP2 GT PUSH2 0x1B1 JUMPI PUSH2 0x14BF SWAP1 CALLDATASIZE SWAP1 PUSH1 0x4 ADD PUSH2 0x2DEA JUMP JUMPDEST SWAP3 PUSH1 0x84 CALLDATALOAD PUSH1 0x1 PUSH1 0x1 PUSH1 0x40 SHL SUB DUP2 GT PUSH2 0x1B1 JUMPI PUSH2 0x14DF SWAP1 CALLDATASIZE SWAP1 PUSH1 0x4 ADD PUSH2 0x2DEA JUMP JUMPDEST SWAP4 PUSH1 0x40 MLOAD SWAP3 DUP3 MLOAD SWAP4 PUSH1 0x20 DUP2 DUP2 DUP7 ADD SWAP7 PUSH2 0x14F9 DUP2 DUP4 DUP11 PUSH2 0x2CC3 JUMP JUMPDEST DUP2 ADD PUSH1 0xC DUP2 MSTORE SUB ADD SWAP1 KECCAK256 SWAP5 PUSH1 0x6 DUP7 ADD DUP1 SLOAD PUSH1 0x1 PUSH1 0xFF DUP3 PUSH1 0x8 SHR AND PUSH2 0x151C DUP2 PUSH2 0x2D0B JUMP JUMPDEST SUB PUSH2 0x2003 JUMPI TIMESTAMP PUSH1 0x8 DUP10 ADD SSTORE PUSH2 0xFF00 NOT AND PUSH2 0x200 OR SWAP1 SSTORE DUP7 MLOAD PUSH1 0x9 DUP8 ADD SWAP1 PUSH1 0x1 PUSH1 0x1 PUSH1 0x40 SHL SUB DUP2 GT PUSH2 0x95C JUMPI PUSH2 0x1551 DUP3 SLOAD PUSH2 0x2B8D JUMP JUMPDEST PUSH1 0x1F DUP2 GT PUSH2 0x1FD1 JUMPI JUMPDEST POP PUSH1 0x20 PUSH1 0x1F DUP3 GT PUSH1 0x1 EQ PUSH2 0x1F6B JUMPI SWAP1 DUP1 PUSH2 0x1589 SWAP3 PUSH1 0x0 SWAP2 PUSH2 0x1D74 JUMPI POP DUP2 PUSH1 0x1 SHL SWAP2 PUSH1 0x0 NOT SWAP1 PUSH1 0x3 SHL SHR NOT AND OR SWAP1 JUMP JUMPDEST SWAP1 SSTORE JUMPDEST PUSH1 0x40 MLOAD PUSH1 0x20 DUP2 DUP7 MLOAD PUSH2 0x159F DUP2 DUP4 DUP12 PUSH2 0x2CC3 JUMP JUMPDEST DUP2 ADD PUSH1 0x5 DUP2 MSTORE SUB ADD SWAP1 KECCAK256 SWAP1 PUSH1 0x1 DUP1 PUSH1 0xA0 SHL SUB AND PUSH12 0xFFFFFFFFFFFFFFFFFFFFFFFF PUSH1 0xA0 SHL DUP3 SLOAD AND OR SWAP1 SSTORE PUSH1 0x40 MLOAD PUSH1 0x20 DUP2 DUP6 MLOAD PUSH2 0x15DB DUP2 DUP4 DUP11 PUSH2 0x2CC3 JUMP JUMPDEST DUP2 ADD PUSH1 0x6 DUP2 MSTORE SUB ADD SWAP1 KECCAK256 SWAP1 DUP1 MLOAD SWAP1 PUSH1 0x1 PUSH1 0x1 PUSH1 0x40 SHL SUB DUP3 GT PUSH2 0x95C JUMPI PUSH2 0x1601 DUP4 SLOAD PUSH2 0x2B8D JUMP JUMPDEST PUSH1 0x1F DUP2 GT PUSH2 0x1F39 JUMPI JUMPDEST POP PUSH1 0x20 SWAP1 PUSH1 0x1F DUP4 GT PUSH1 0x1 EQ PUSH2 0x1ED2 JUMPI PUSH2 0x163C SWAP3 SWAP2 PUSH1 0x0 SWAP2 DUP4 PUSH2 0x1B80 JUMPI JUMPDEST POP POP DUP2 PUSH1 0x1 SHL SWAP2 PUSH1 0x0 NOT SWAP1 PUSH1 0x3 SHL SHR NOT AND OR SWAP1 JUMP JUMPDEST SWAP1 SSTORE JUMPDEST PUSH1 0x40 MLOAD PUSH1 0x20 DUP2 DUP5 MLOAD PUSH2 0x1652 DUP2 DUP4 DUP10 PUSH2 0x2CC3 JUMP JUMPDEST DUP2 ADD PUSH1 0x7 DUP2 MSTORE SUB ADD SWAP1 KECCAK256 SWAP1 DUP1 MLOAD SWAP1 PUSH1 0x1 PUSH1 0x1 PUSH1 0x40 SHL SUB DUP3 GT PUSH2 0x95C JUMPI PUSH2 0x1678 DUP4 SLOAD PUSH2 0x2B8D JUMP JUMPDEST PUSH1 0x1F DUP2 GT PUSH2 0x1EA0 JUMPI JUMPDEST POP PUSH1 0x20 SWAP1 PUSH1 0x1F DUP4 GT PUSH1 0x1 EQ PUSH2 0x1E39 JUMPI PUSH2 0x16B2 SWAP3 SWAP2 PUSH1 0x0 SWAP2 DUP4 PUSH2 0x1E2E JUMPI POP POP DUP2 PUSH1 0x1 SHL SWAP2 PUSH1 0x0 NOT SWAP1 PUSH1 0x3 SHL SHR NOT AND OR SWAP1 JUMP JUMPDEST SWAP1 SSTORE JUMPDEST PUSH1 0x0 JUMPDEST PUSH1 0x2 SLOAD DUP2 LT ISZERO PUSH2 0x1E1E JUMPI PUSH2 0x16CB DUP2 PUSH2 0x305E JUMP JUMPDEST POP PUSH1 0x40 MLOAD PUSH2 0x16E1 DUP2 PUSH2 0xE76 PUSH1 0x20 DUP3 ADD DUP1 SWAP6 PUSH2 0x3110 JUMP JUMPDEST MLOAD SWAP1 KECCAK256 PUSH1 0x40 MLOAD PUSH1 0x20 DUP2 ADD SWAP1 PUSH2 0x16FF PUSH1 0x20 DUP3 DUP8 MLOAD PUSH2 0xEA2 DUP2 DUP8 DUP13 PUSH2 0x2CC3 JUMP JUMPDEST MLOAD SWAP1 KECCAK256 EQ PUSH2 0x170F JUMPI PUSH1 0x1 ADD PUSH2 0x16B8 JUMP JUMPDEST PUSH2 0x1748 DUP2 PUSH2 0x1722 PUSH1 0x9 SWAP4 SWAP7 SWAP5 SWAP6 SWAP7 PUSH2 0x305E JUMP JUMPDEST POP PUSH1 0x8 TIMESTAMP SWAP2 ADD SSTORE PUSH1 0x6 PUSH2 0x1734 DUP3 PUSH2 0x305E JUMP JUMPDEST POP ADD DUP1 SLOAD PUSH2 0xFF00 NOT AND PUSH2 0x200 OR SWAP1 SSTORE PUSH2 0x305E JUMP JUMPDEST POP ADD DUP5 MLOAD PUSH1 0x1 PUSH1 0x1 PUSH1 0x40 SHL SUB DUP2 GT PUSH2 0x95C JUMPI PUSH2 0x1764 DUP3 SLOAD PUSH2 0x2B8D JUMP JUMPDEST PUSH1 0x1F DUP2 GT PUSH2 0x1DEC JUMPI JUMPDEST POP PUSH1 0x20 PUSH1 0x1F DUP3 GT PUSH1 0x1 EQ PUSH2 0x1D7F JUMPI SWAP3 PUSH1 0x20 SWAP3 PUSH2 0x17A5 DUP4 PUSH1 0x2 SWAP5 PUSH2 0x17BB SWAP8 PUSH1 0x0 SWAP2 PUSH2 0x1D74 JUMPI POP DUP2 PUSH1 0x1 SHL SWAP2 PUSH1 0x0 NOT SWAP1 PUSH1 0x3 SHL SHR NOT AND OR SWAP1 JUMP JUMPDEST SWAP1 SSTORE JUMPDEST ADD SWAP4 PUSH1 0x40 MLOAD DUP1 SWAP4 DUP2 SWAP3 DUP7 MLOAD SWAP3 DUP4 SWAP2 PUSH2 0x2CC3 JUMP JUMPDEST DUP2 ADD PUSH1 0x9 DUP2 MSTORE SUB ADD SWAP1 KECCAK256 SWAP1 PUSH2 0x17CE PUSH2 0x31A3 JUMP JUMPDEST SWAP2 PUSH1 0x40 MLOAD SWAP2 PUSH2 0x17DC DUP4 PUSH2 0x2BC7 JUMP JUMPDEST DUP3 MSTORE PUSH2 0x17E7 DUP5 PUSH2 0x2C1F JUMP JUMPDEST SWAP1 PUSH1 0x20 DUP4 ADD SWAP2 DUP3 MSTORE PUSH2 0x1800 PUSH1 0x40 DUP5 ADD SWAP2 PUSH1 0x0 DUP4 MSTORE PUSH2 0x2C1F JUMP JUMPDEST SWAP2 PUSH1 0x60 DUP5 ADD SWAP3 DUP4 MSTORE PUSH1 0x80 DUP5 ADD SWAP5 DUP6 MSTORE PUSH1 0x3 SLOAD PUSH1 0x1 PUSH1 0x40 SHL DUP2 LT ISZERO PUSH2 0x95C JUMPI DUP1 PUSH1 0x1 PUSH2 0x1830 SWAP3 ADD PUSH1 0x3 SSTORE PUSH1 0x3 PUSH2 0x309C JUMP JUMPDEST SWAP5 SWAP1 SWAP5 PUSH2 0xA1A JUMPI MLOAD DUP1 MLOAD SWAP1 PUSH1 0x1 PUSH1 0x1 PUSH1 0x40 SHL SUB DUP3 GT PUSH2 0x95C JUMPI PUSH2 0x1853 DUP7 SLOAD PUSH2 0x2B8D JUMP JUMPDEST PUSH1 0x1F DUP2 GT PUSH2 0x1D42 JUMPI JUMPDEST POP PUSH1 0x20 SWAP1 PUSH1 0x1F DUP4 GT PUSH1 0x1 EQ PUSH2 0x1CDB JUMPI PUSH2 0x188D SWAP3 SWAP2 PUSH1 0x0 SWAP2 DUP4 PUSH2 0x1CD0 JUMPI POP POP DUP2 PUSH1 0x1 SHL SWAP2 PUSH1 0x0 NOT SWAP1 PUSH1 0x3 SHL SHR NOT AND OR SWAP1 JUMP JUMPDEST DUP5 SSTORE JUMPDEST MLOAD DUP1 MLOAD PUSH1 0x1 DUP6 ADD SWAP2 PUSH1 0x1 PUSH1 0x1 PUSH1 0x40 SHL SUB DUP3 GT PUSH2 0x95C JUMPI PUSH2 0x18B0 DUP4 SLOAD PUSH2 0x2B8D JUMP JUMPDEST PUSH1 0x1F DUP2 GT PUSH2 0x1C9E JUMPI JUMPDEST POP PUSH1 0x20 SWAP1 PUSH1 0x1F DUP4 GT PUSH1 0x1 EQ PUSH2 0x1C33 JUMPI SWAP2 DUP1 PUSH2 0x18EF SWAP3 PUSH1 0xFF SWAP7 SWAP6 SWAP5 PUSH1 0x0 SWAP3 PUSH2 0x1C28 JUMPI POP POP DUP2 PUSH1 0x1 SHL SWAP2 PUSH1 0x0 NOT SWAP1 PUSH1 0x3 SHL SHR NOT AND OR SWAP1 JUMP JUMPDEST SWAP1 SSTORE JUMPDEST MLOAD AND PUSH1 0xFF PUSH1 0x2 DUP5 ADD SWAP2 AND PUSH1 0xFF NOT DUP3 SLOAD AND OR SWAP1 SSTORE PUSH1 0x3 DUP3 ADD SWAP1 MLOAD DUP1 MLOAD SWAP1 PUSH1 0x1 PUSH1 0x1 PUSH1 0x40 SHL SUB DUP3 GT PUSH2 0x95C JUMPI PUSH2 0x1926 DUP4 SLOAD PUSH2 0x2B8D JUMP JUMPDEST PUSH1 0x1F DUP2 GT PUSH2 0x1BF6 JUMPI JUMPDEST POP PUSH1 0x20 SWAP1 PUSH1 0x1F DUP4 GT PUSH1 0x1 EQ PUSH2 0x1B8B JUMPI SWAP2 DUP1 PUSH2 0x1965 SWAP3 PUSH1 0x4 SWAP7 SWAP6 SWAP5 PUSH1 0x0 SWAP3 PUSH2 0x1B80 JUMPI POP POP DUP2 PUSH1 0x1 SHL SWAP2 PUSH1 0x0 NOT SWAP1 PUSH1 0x3 SHL SHR NOT AND OR SWAP1 JUMP JUMPDEST SWAP1 SSTORE JUMPDEST ADD SWAP1 MLOAD DUP1 MLOAD SWAP1 PUSH1 0x1 PUSH1 0x40 SHL DUP3 GT PUSH2 0x95C JUMPI DUP3 SLOAD DUP3 DUP5 SSTORE DUP1 DUP4 LT PUSH2 0x1B02 JUMPI JUMPDEST POP PUSH1 0x20 ADD SWAP2 PUSH1 0x0 MSTORE PUSH1 0x20 PUSH1 0x0 KECCAK256 SWAP2 PUSH1 0x0 SWAP1 JUMPDEST DUP3 DUP3 LT PUSH2 0x19EA JUMPI PUSH32 0x489F165B733603CB0A992D8CAFD6C42A0C13D169039003F751758B9F0019F26C PUSH2 0x19DC DUP8 PUSH2 0x86D DUP9 PUSH1 0x40 MLOAD SWAP4 DUP5 SWAP4 PUSH1 0x40 DUP6 MSTORE PUSH1 0x40 DUP6 ADD SWAP1 PUSH2 0x2CE6 JUMP JUMPDEST SWAP1 DUP4 DUP3 SUB PUSH1 0x20 DUP6 ADD MSTORE PUSH2 0x3FF3 JUMP JUMPDEST DUP1 MLOAD DUP1 MLOAD SWAP1 PUSH1 0x1 PUSH1 0x1 PUSH1 0x40 SHL SUB DUP3 GT PUSH2 0x95C JUMPI PUSH2 0x1A07 DUP7 SLOAD PUSH2 0x2B8D JUMP JUMPDEST PUSH1 0x1F DUP2 GT PUSH2 0x1AD0 JUMPI JUMPDEST POP PUSH1 0x20 SWAP1 PUSH1 0x1F DUP4 GT PUSH1 0x1 EQ PUSH2 0x1A63 JUMPI SWAP3 PUSH2 0x1A49 DUP4 PUSH1 0x1 SWAP6 SWAP5 PUSH1 0x20 SWAP5 DUP8 SWAP7 PUSH1 0x0 SWAP3 PUSH2 0x1A58 JUMPI POP POP DUP2 PUSH1 0x1 SHL SWAP2 PUSH1 0x0 NOT SWAP1 PUSH1 0x3 SHL SHR NOT AND OR SWAP1 JUMP JUMPDEST DUP8 SSTORE JUMPDEST ADD SWAP5 ADD SWAP2 ADD SWAP1 SWAP3 PUSH2 0x1998 JUMP JUMPDEST ADD MLOAD SWAP1 POP DUP13 DUP1 PUSH2 0x1627 JUMP JUMPDEST SWAP1 PUSH1 0x1F NOT DUP4 AND SWAP2 DUP8 PUSH1 0x0 MSTORE DUP2 PUSH1 0x0 KECCAK256 SWAP3 PUSH1 0x0 JUMPDEST DUP2 DUP2 LT PUSH2 0x1AB8 JUMPI POP SWAP4 PUSH1 0x20 SWAP4 PUSH1 0x1 SWAP7 SWAP4 DUP8 SWAP7 SWAP4 DUP4 DUP9 SWAP6 LT PUSH2 0x1A9F JUMPI JUMPDEST POP POP POP DUP2 SHL ADD DUP8 SSTORE PUSH2 0x1A4C JUMP JUMPDEST ADD MLOAD PUSH1 0x0 NOT PUSH1 0xF8 DUP5 PUSH1 0x3 SHL AND SHR NOT AND SWAP1 SSTORE DUP12 DUP1 DUP1 PUSH2 0x1A92 JUMP JUMPDEST SWAP3 SWAP4 PUSH1 0x20 PUSH1 0x1 DUP2 SWAP3 DUP8 DUP7 ADD MLOAD DUP2 SSTORE ADD SWAP6 ADD SWAP4 ADD PUSH2 0x1A76 JUMP JUMPDEST PUSH2 0x1AFC SWAP1 DUP8 PUSH1 0x0 MSTORE PUSH1 0x20 PUSH1 0x0 KECCAK256 PUSH1 0x1F DUP6 ADD PUSH1 0x5 SHR DUP2 ADD SWAP2 PUSH1 0x20 DUP7 LT PUSH2 0x952 JUMPI PUSH1 0x1F ADD PUSH1 0x5 SHR ADD SWAP1 PUSH2 0x329F JUMP JUMPDEST DUP9 PUSH2 0x1A10 JUMP JUMPDEST DUP4 PUSH1 0x0 MSTORE DUP3 PUSH1 0x20 PUSH1 0x0 KECCAK256 SWAP2 DUP3 ADD SWAP2 ADD JUMPDEST DUP2 DUP2 LT PUSH2 0x1B1F JUMPI POP PUSH2 0x1986 JUMP JUMPDEST DUP1 PUSH2 0x1B2C PUSH1 0x1 SWAP3 SLOAD PUSH2 0x2B8D JUMP JUMPDEST DUP1 PUSH2 0x1B39 JUMPI JUMPDEST POP ADD PUSH2 0x1B12 JUMP JUMPDEST PUSH1 0x1F DUP2 GT DUP4 EQ PUSH2 0x1B4F JUMPI POP PUSH1 0x0 DUP2 SSTORE JUMPDEST DUP9 PUSH2 0x1B32 JUMP JUMPDEST PUSH2 0x1B6D SWAP1 DUP3 PUSH1 0x0 MSTORE DUP4 PUSH1 0x1F PUSH1 0x20 PUSH1 0x0 KECCAK256 SWAP3 ADD PUSH1 0x5 SHR DUP3 ADD SWAP2 ADD PUSH2 0x329F JUMP JUMPDEST DUP1 PUSH1 0x0 MSTORE PUSH1 0x0 PUSH1 0x20 DUP2 KECCAK256 DUP2 DUP4 SSTORE SSTORE PUSH2 0x1B49 JUMP JUMPDEST ADD MLOAD SWAP1 POP DUP10 DUP1 PUSH2 0x1627 JUMP JUMPDEST SWAP1 PUSH1 0x1F NOT DUP4 AND SWAP2 DUP5 PUSH1 0x0 MSTORE DUP2 PUSH1 0x0 KECCAK256 SWAP3 PUSH1 0x0 JUMPDEST DUP2 DUP2 LT PUSH2 0x1BDE JUMPI POP SWAP2 PUSH1 0x1 SWAP4 SWAP2 DUP6 PUSH1 0x4 SWAP9 SWAP8 SWAP7 SWAP5 LT PUSH2 0x1BC5 JUMPI JUMPDEST POP POP POP DUP2 SHL ADD SWAP1 SSTORE PUSH2 0x1968 JUMP JUMPDEST ADD MLOAD PUSH1 0x0 NOT PUSH1 0xF8 DUP5 PUSH1 0x3 SHL AND SHR NOT AND SWAP1 SSTORE DUP9 DUP1 DUP1 PUSH2 0x1BB8 JUMP JUMPDEST SWAP3 SWAP4 PUSH1 0x20 PUSH1 0x1 DUP2 SWAP3 DUP8 DUP7 ADD MLOAD DUP2 SSTORE ADD SWAP6 ADD SWAP4 ADD PUSH2 0x1B9E JUMP JUMPDEST PUSH2 0x1C22 SWAP1 DUP5 PUSH1 0x0 MSTORE PUSH1 0x20 PUSH1 0x0 KECCAK256 PUSH1 0x1F DUP6 ADD PUSH1 0x5 SHR DUP2 ADD SWAP2 PUSH1 0x20 DUP7 LT PUSH2 0x952 JUMPI PUSH1 0x1F ADD PUSH1 0x5 SHR ADD SWAP1 PUSH2 0x329F JUMP JUMPDEST DUP8 PUSH2 0x192F JUMP JUMPDEST ADD MLOAD SWAP1 POP DUP12 DUP1 PUSH2 0x1627 JUMP JUMPDEST SWAP1 PUSH1 0x1F NOT DUP4 AND SWAP2 DUP5 PUSH1 0x0 MSTORE DUP2 PUSH1 0x0 KECCAK256 SWAP3 PUSH1 0x0 JUMPDEST DUP2 DUP2 LT PUSH2 0x1C86 JUMPI POP SWAP2 PUSH1 0x1 SWAP4 SWAP2 DUP6 PUSH1 0xFF SWAP9 SWAP8 SWAP7 SWAP5 LT PUSH2 0x1C6D JUMPI JUMPDEST POP POP POP DUP2 SHL ADD SWAP1 SSTORE PUSH2 0x18F2 JUMP JUMPDEST ADD MLOAD PUSH1 0x0 NOT PUSH1 0xF8 DUP5 PUSH1 0x3 SHL AND SHR NOT AND SWAP1 SSTORE DUP11 DUP1 DUP1 PUSH2 0x1C60 JUMP JUMPDEST SWAP3 SWAP4 PUSH1 0x20 PUSH1 0x1 DUP2 SWAP3 DUP8 DUP7 ADD MLOAD DUP2 SSTORE ADD SWAP6 ADD SWAP4 ADD PUSH2 0x1C46 JUMP JUMPDEST PUSH2 0x1CCA SWAP1 DUP5 PUSH1 0x0 MSTORE PUSH1 0x20 PUSH1 0x0 KECCAK256 PUSH1 0x1F DUP6 ADD PUSH1 0x5 SHR DUP2 ADD SWAP2 PUSH1 0x20 DUP7 LT PUSH2 0x952 JUMPI PUSH1 0x1F ADD PUSH1 0x5 SHR ADD SWAP1 PUSH2 0x329F JUMP JUMPDEST DUP10 PUSH2 0x18B9 JUMP JUMPDEST ADD MLOAD SWAP1 POP DUP11 DUP1 PUSH2 0x1627 JUMP JUMPDEST SWAP1 PUSH1 0x1F NOT DUP4 AND SWAP2 DUP8 PUSH1 0x0 MSTORE DUP2 PUSH1 0x0 KECCAK256 SWAP3 PUSH1 0x0 JUMPDEST DUP2 DUP2 LT PUSH2 0x1D2A JUMPI POP SWAP1 DUP5 PUSH1 0x1 SWAP6 SWAP5 SWAP4 SWAP3 LT PUSH2 0x1D11 JUMPI JUMPDEST POP POP POP DUP2 SHL ADD DUP5 SSTORE PUSH2 0x1890 JUMP JUMPDEST ADD MLOAD PUSH1 0x0 NOT PUSH1 0xF8 DUP5 PUSH1 0x3 SHL AND SHR NOT AND SWAP1 SSTORE DUP10 DUP1 DUP1 PUSH2 0x1D04 JUMP JUMPDEST SWAP3 SWAP4 PUSH1 0x20 PUSH1 0x1 DUP2 SWAP3 DUP8 DUP7 ADD MLOAD DUP2 SSTORE ADD SWAP6 ADD SWAP4 ADD PUSH2 0x1CEE JUMP JUMPDEST PUSH2 0x1D6E SWAP1 DUP8 PUSH1 0x0 MSTORE PUSH1 0x20 PUSH1 0x0 KECCAK256 PUSH1 0x1F DUP6 ADD PUSH1 0x5 SHR DUP2 ADD SWAP2 PUSH1 0x20 DUP7 LT PUSH2 0x952 JUMPI PUSH1 0x1F ADD PUSH1 0x5 SHR ADD SWAP1 PUSH2 0x329F JUMP JUMPDEST DUP10 PUSH2 0x185C JUMP JUMPDEST SWAP1 POP DUP11 ADD MLOAD DUP12 PUSH2 0x727 JUMP JUMPDEST PUSH1 0x1F NOT DUP3 AND SWAP1 DUP4 PUSH1 0x0 MSTORE DUP1 PUSH1 0x0 KECCAK256 SWAP2 PUSH1 0x0 JUMPDEST DUP2 DUP2 LT PUSH2 0x1DD4 JUMPI POP DUP4 PUSH2 0x17BB SWAP7 SWAP4 PUSH1 0x20 SWAP7 SWAP4 PUSH1 0x2 SWAP7 PUSH1 0x1 SWAP5 LT PUSH2 0x1DBB JUMPI JUMPDEST POP POP DUP2 SHL ADD SWAP1 SSTORE PUSH2 0x17A8 JUMP JUMPDEST DUP12 ADD MLOAD PUSH1 0x0 NOT PUSH1 0xF8 DUP5 PUSH1 0x3 SHL AND SHR NOT AND SWAP1 SSTORE DUP11 DUP1 PUSH2 0x1DAF JUMP JUMPDEST SWAP2 SWAP3 PUSH1 0x20 PUSH1 0x1 DUP2 SWAP3 DUP7 DUP14 ADD MLOAD DUP2 SSTORE ADD SWAP5 ADD SWAP3 ADD PUSH2 0x1D91 JUMP JUMPDEST PUSH2 0x1E18 SWAP1 DUP4 PUSH1 0x0 MSTORE PUSH1 0x20 PUSH1 0x0 KECCAK256 PUSH1 0x1F DUP5 ADD PUSH1 0x5 SHR DUP2 ADD SWAP2 PUSH1 0x20 DUP6 LT PUSH2 0x952 JUMPI PUSH1 0x1F ADD PUSH1 0x5 SHR ADD SWAP1 PUSH2 0x329F JUMP JUMPDEST DUP7 PUSH2 0x176D JUMP JUMPDEST POP SWAP1 SWAP2 PUSH1 0x20 PUSH1 0x2 PUSH2 0x17BB SWAP3 PUSH2 0x17A8 JUMP JUMPDEST ADD MLOAD SWAP1 POP DUP9 DUP1 PUSH2 0x1627 JUMP JUMPDEST SWAP1 PUSH1 0x1F NOT DUP4 AND SWAP2 DUP5 PUSH1 0x0 MSTORE DUP2 PUSH1 0x0 KECCAK256 SWAP3 PUSH1 0x0 JUMPDEST DUP2 DUP2 LT PUSH2 0x1E88 JUMPI POP SWAP1 DUP5 PUSH1 0x1 SWAP6 SWAP5 SWAP4 SWAP3 LT PUSH2 0x1E6F JUMPI JUMPDEST POP POP POP DUP2 SHL ADD SWAP1 SSTORE PUSH2 0x16B5 JUMP JUMPDEST ADD MLOAD PUSH1 0x0 NOT PUSH1 0xF8 DUP5 PUSH1 0x3 SHL AND SHR NOT AND SWAP1 SSTORE DUP8 DUP1 DUP1 PUSH2 0x1E62 JUMP JUMPDEST SWAP3 SWAP4 PUSH1 0x20 PUSH1 0x1 DUP2 SWAP3 DUP8 DUP7 ADD MLOAD DUP2 SSTORE ADD SWAP6 ADD SWAP4 ADD PUSH2 0x1E4C JUMP JUMPDEST PUSH2 0x1ECC SWAP1 DUP5 PUSH1 0x0 MSTORE PUSH1 0x20 PUSH1 0x0 KECCAK256 PUSH1 0x1F DUP6 ADD PUSH1 0x5 SHR DUP2 ADD SWAP2 PUSH1 0x20 DUP7 LT PUSH2 0x952 JUMPI PUSH1 0x1F ADD PUSH1 0x5 SHR ADD SWAP1 PUSH2 0x329F JUMP JUMPDEST DUP8 PUSH2 0x1681 JUMP JUMPDEST SWAP1 PUSH1 0x1F NOT DUP4 AND SWAP2 DUP5 PUSH1 0x0 MSTORE DUP2 PUSH1 0x0 KECCAK256 SWAP3 PUSH1 0x0 JUMPDEST DUP2 DUP2 LT PUSH2 0x1F21 JUMPI POP SWAP1 DUP5 PUSH1 0x1 SWAP6 SWAP5 SWAP4 SWAP3 LT PUSH2 0x1F08 JUMPI JUMPDEST POP POP POP DUP2 SHL ADD SWAP1 SSTORE PUSH2 0x163F JUMP JUMPDEST ADD MLOAD PUSH1 0x0 NOT PUSH1 0xF8 DUP5 PUSH1 0x3 SHL AND SHR NOT AND SWAP1 SSTORE DUP9 DUP1 DUP1 PUSH2 0x1EFB JUMP JUMPDEST SWAP3 SWAP4 PUSH1 0x20 PUSH1 0x1 DUP2 SWAP3 DUP8 DUP7 ADD MLOAD DUP2 SSTORE ADD SWAP6 ADD SWAP4 ADD PUSH2 0x1EE5 JUMP JUMPDEST PUSH2 0x1F65 SWAP1 DUP5 PUSH1 0x0 MSTORE PUSH1 0x20 PUSH1 0x0 KECCAK256 PUSH1 0x1F DUP6 ADD PUSH1 0x5 SHR DUP2 ADD SWAP2 PUSH1 0x20 DUP7 LT PUSH2 0x952 JUMPI PUSH1 0x1F ADD PUSH1 0x5 SHR ADD SWAP1 PUSH2 0x329F JUMP JUMPDEST DUP9 PUSH2 0x160A JUMP JUMPDEST PUSH1 0x1F NOT DUP3 AND SWAP1 DUP4 PUSH1 0x0 MSTORE DUP1 PUSH1 0x0 KECCAK256 SWAP2 PUSH1 0x0 JUMPDEST DUP13 DUP3 DUP3 LT PUSH2 0x1FB9 JUMPI POP POP SWAP1 DUP4 PUSH1 0x1 SWAP5 SWAP4 SWAP3 LT PUSH2 0x1FA0 JUMPI JUMPDEST POP POP DUP2 SHL ADD SWAP1 SSTORE PUSH2 0x158C JUMP JUMPDEST DUP12 ADD MLOAD PUSH1 0x0 NOT PUSH1 0xF8 DUP5 PUSH1 0x3 SHL AND SHR NOT AND SWAP1 SSTORE DUP11 DUP1 PUSH2 0x1F94 JUMP JUMPDEST PUSH1 0x1 DUP5 SWAP6 PUSH1 0x20 SWAP4 SWAP6 DUP5 SWAP4 ADD MLOAD DUP2 SSTORE ADD SWAP5 ADD SWAP3 ADD PUSH2 0x1F7D JUMP JUMPDEST PUSH2 0x1FFD SWAP1 DUP4 PUSH1 0x0 MSTORE PUSH1 0x20 PUSH1 0x0 KECCAK256 PUSH1 0x1F DUP5 ADD PUSH1 0x5 SHR DUP2 ADD SWAP2 PUSH1 0x20 DUP6 LT PUSH2 0x952 JUMPI PUSH1 0x1F ADD PUSH1 0x5 SHR ADD SWAP1 PUSH2 0x329F JUMP JUMPDEST DUP10 PUSH2 0x155A JUMP JUMPDEST PUSH1 0x40 MLOAD PUSH3 0x461BCD PUSH1 0xE5 SHL DUP2 MSTORE PUSH1 0x20 PUSH1 0x4 DUP3 ADD MSTORE PUSH1 0x2D PUSH1 0x24 DUP3 ADD MSTORE PUSH32 0x4F62617420547261646973696F6E616C20737461747573206D75737420626520 PUSH1 0x44 DUP3 ADD MSTORE PUSH13 0x5265717565737465644E494521 PUSH1 0x98 SHL PUSH1 0x64 DUP3 ADD MSTORE PUSH1 0x84 SWAP1 REVERT JUMPDEST CALLVALUE PUSH2 0x1B1 JUMPI PUSH1 0x20 CALLDATASIZE PUSH1 0x3 NOT ADD SLT PUSH2 0x1B1 JUMPI PUSH1 0x4 CALLDATALOAD PUSH1 0x2 SLOAD DUP2 LT ISZERO PUSH2 0x1B1 JUMPI PUSH2 0x2085 SWAP1 PUSH2 0x305E JUMP JUMPDEST POP PUSH2 0x208F DUP2 PUSH2 0x2C1F JUMP JUMPDEST PUSH2 0x1AD PUSH2 0x209E PUSH1 0x1 DUP5 ADD PUSH2 0x2C1F JUMP JUMPDEST SWAP2 PUSH2 0x20AB PUSH1 0x2 DUP6 ADD PUSH2 0x2C1F JUMP JUMPDEST SWAP4 PUSH2 0x20B8 PUSH1 0x4 DUP3 ADD PUSH2 0x2C1F JUMP JUMPDEST SWAP2 PUSH1 0x6 DUP3 ADD SLOAD PUSH1 0x7 DUP4 ADD SLOAD SWAP2 PUSH2 0x20D5 PUSH1 0x9 PUSH1 0x8 DUP7 ADD SLOAD SWAP6 ADD PUSH2 0x2C1F JUMP JUMPDEST SWAP5 PUSH1 0x40 MLOAD SWAP9 DUP10 SWAP9 PUSH1 0xFF DUP1 DUP7 PUSH1 0x8 SHR AND SWAP6 AND SWAP4 DUP11 PUSH2 0x2E84 JUMP JUMPDEST CALLVALUE PUSH2 0x1B1 JUMPI PUSH1 0x20 CALLDATASIZE PUSH1 0x3 NOT ADD SLT PUSH2 0x1B1 JUMPI PUSH1 0x4 CALLDATALOAD PUSH1 0x1 PUSH1 0x1 PUSH1 0xA0 SHL SUB DUP2 AND SWAP1 DUP2 SWAP1 SUB PUSH2 0x1B1 JUMPI PUSH1 0x0 MSTORE PUSH1 0xB PUSH1 0x20 MSTORE PUSH1 0xFF PUSH1 0x40 PUSH1 0x0 KECCAK256 SLOAD AND PUSH1 0x40 MLOAD PUSH1 0x4 DUP3 LT ISZERO PUSH2 0x2137 JUMPI PUSH1 0x20 SWAP2 DUP2 MSTORE RETURN JUMPDEST PUSH4 0x4E487B71 PUSH1 0xE0 SHL PUSH1 0x0 MSTORE PUSH1 0x21 PUSH1 0x4 MSTORE PUSH1 0x24 PUSH1 0x0 REVERT JUMPDEST CALLVALUE PUSH2 0x1B1 JUMPI PUSH2 0x215B CALLDATASIZE PUSH2 0x2F96 JUMP JUMPDEST PUSH1 0x0 SLOAD PUSH1 0x40 MLOAD PUSH4 0x95A8C58D PUSH1 0xE0 SHL DUP2 MSTORE CALLER PUSH1 0x4 DUP3 ADD MSTORE PUSH1 0x1 PUSH1 0x24 DUP3 ADD MSTORE SWAP2 SWAP7 SWAP3 SWAP6 SWAP4 SWAP5 SWAP4 SWAP3 SWAP2 SWAP1 PUSH1 0x20 SWAP1 DUP3 SWAP1 PUSH1 0x44 SWAP1 DUP3 SWAP1 PUSH1 0x1 PUSH1 0x1 PUSH1 0xA0 SHL SUB AND GAS STATICCALL SWAP1 DUP2 ISZERO PUSH2 0xA5F JUMPI PUSH1 0x0 SWAP2 PUSH2 0x21FA JUMPI JUMPDEST POP ISZERO PUSH2 0x21B5 JUMPI PUSH2 0x105C SWAP7 PUSH2 0x38F6 JUMP JUMPDEST PUSH1 0x40 MLOAD PUSH3 0x461BCD PUSH1 0xE5 SHL DUP2 MSTORE PUSH1 0x20 PUSH1 0x4 DUP3 ADD MSTORE PUSH1 0x1D PUSH1 0x24 DUP3 ADD MSTORE PUSH32 0x416363657373207265737472696374656420746F2050424620726F6C65000000 PUSH1 0x44 DUP3 ADD MSTORE PUSH1 0x64 SWAP1 REVERT JUMPDEST PUSH2 0x2213 SWAP2 POP PUSH1 0x20 RETURNDATASIZE PUSH1 0x20 GT PUSH2 0xA58 JUMPI PUSH2 0xA4A DUP2 DUP4 PUSH2 0x2BFE JUMP JUMPDEST DUP9 PUSH2 0x21A6 JUMP JUMPDEST CALLVALUE PUSH2 0x1B1 JUMPI PUSH1 0x20 CALLDATASIZE PUSH1 0x3 NOT ADD SLT PUSH2 0x1B1 JUMPI PUSH1 0x4 CALLDATALOAD PUSH1 0x1 PUSH1 0x1 PUSH1 0x40 SHL SUB DUP2 GT PUSH2 0x1B1 JUMPI PUSH2 0x224B PUSH1 0x20 SWAP2 CALLDATASIZE SWAP1 PUSH1 0x4 ADD PUSH2 0x2DEA JUMP JUMPDEST DUP2 PUSH2 0x225F PUSH1 0x40 MLOAD SWAP3 DUP4 DUP2 MLOAD SWAP4 DUP5 SWAP3 ADD PUSH2 0x2CC3 JUMP JUMPDEST PUSH1 0x8 SWAP1 DUP3 ADD SWAP1 DUP2 MSTORE DUP2 SWAP1 SUB DUP3 ADD SWAP1 KECCAK256 SLOAD PUSH1 0x40 MLOAD PUSH1 0x1 PUSH1 0x1 PUSH1 0xA0 SHL SUB SWAP1 SWAP2 AND DUP2 MSTORE RETURN JUMPDEST CALLVALUE PUSH2 0x1B1 JUMPI PUSH1 0x20 CALLDATASIZE PUSH1 0x3 NOT ADD SLT PUSH2 0x1B1 JUMPI PUSH1 0x4 CALLDATALOAD PUSH1 0x1 PUSH1 0x1 PUSH1 0x40 SHL SUB DUP2 GT PUSH2 0x1B1 JUMPI PUSH2 0x199 PUSH2 0x22BC PUSH1 0x20 PUSH2 0x177 PUSH2 0x1AD SWAP5 CALLDATASIZE SWAP1 PUSH1 0x4 ADD PUSH2 0x2DEA JUMP JUMPDEST DUP2 ADD PUSH1 0xA DUP2 MSTORE SUB ADD SWAP1 KECCAK256 PUSH2 0x2C1F JUMP JUMPDEST CALLVALUE PUSH2 0x1B1 JUMPI PUSH1 0x20 CALLDATASIZE PUSH1 0x3 NOT ADD SLT PUSH2 0x1B1 JUMPI PUSH1 0x4 CALLDATALOAD PUSH1 0x1 PUSH1 0x1 PUSH1 0x40 SHL SUB DUP2 GT PUSH2 0x1B1 JUMPI PUSH1 0x20 PUSH2 0x177 PUSH2 0x2300 SWAP3 CALLDATASIZE SWAP1 PUSH1 0x4 ADD PUSH2 0x2DEA JUMP JUMPDEST DUP2 ADD PUSH1 0xC DUP2 MSTORE SUB ADD SWAP1 KECCAK256 PUSH2 0x208F DUP2 PUSH2 0x2C1F JUMP JUMPDEST CALLVALUE PUSH2 0x1B1 JUMPI PUSH1 0x20 CALLDATASIZE PUSH1 0x3 NOT ADD SLT PUSH2 0x1B1 JUMPI PUSH1 0x4 CALLDATALOAD PUSH1 0x1 PUSH1 0x1 PUSH1 0x40 SHL SUB DUP2 GT PUSH2 0x1B1 JUMPI PUSH2 0x2343 SWAP1 CALLDATASIZE SWAP1 PUSH1 0x4 ADD PUSH2 0x2DEA JUMP JUMPDEST PUSH1 0x60 PUSH2 0x140 PUSH1 0x40 MLOAD PUSH2 0x2354 DUP2 PUSH2 0x2BE2 JUMP JUMPDEST DUP3 DUP2 MSTORE DUP3 PUSH1 0x20 DUP3 ADD MSTORE DUP3 PUSH1 0x40 DUP3 ADD MSTORE DUP3 DUP1 DUP3 ADD MSTORE DUP3 PUSH1 0x80 DUP3 ADD MSTORE DUP3 PUSH1 0xA0 DUP3 ADD MSTORE PUSH1 0x0 PUSH1 0xC0 DUP3 ADD MSTORE PUSH1 0x0 PUSH1 0xE0 DUP3 ADD MSTORE PUSH1 0x0 PUSH2 0x100 DUP3 ADD MSTORE PUSH1 0x0 PUSH2 0x120 DUP3 ADD MSTORE ADD MSTORE PUSH1 0x40 MLOAD PUSH2 0x23BF DUP3 MLOAD SWAP2 PUSH1 0x20 DUP2 DUP2 DUP7 ADD SWAP5 PUSH2 0x23AF DUP2 DUP4 DUP9 PUSH2 0x2CC3 JUMP JUMPDEST DUP2 ADD PUSH1 0xC DUP2 MSTORE SUB ADD SWAP1 KECCAK256 SLOAD PUSH2 0x2B8D JUMP JUMPDEST ISZERO PUSH2 0x2698 JUMPI PUSH2 0x1AD PUSH2 0x140 SWAP3 PUSH2 0x268A PUSH1 0x40 MLOAD PUSH1 0x20 DUP2 DUP5 MLOAD PUSH2 0x23E1 DUP2 DUP4 DUP11 PUSH2 0x2CC3 JUMP JUMPDEST DUP2 ADD PUSH1 0xC DUP2 MSTORE SUB ADD SWAP1 KECCAK256 SWAP4 PUSH2 0x24A2 PUSH1 0x9 PUSH1 0x40 MLOAD SWAP7 PUSH2 0x23FE DUP9 PUSH2 0x2BE2 JUMP JUMPDEST PUSH2 0x2407 DUP2 PUSH2 0x2C1F JUMP JUMPDEST DUP9 MSTORE PUSH2 0x2415 PUSH1 0x1 DUP3 ADD PUSH2 0x2C1F JUMP JUMPDEST PUSH1 0x20 DUP10 ADD MSTORE PUSH2 0x2426 PUSH1 0x2 DUP3 ADD PUSH2 0x2C1F JUMP JUMPDEST PUSH1 0x40 DUP10 ADD MSTORE PUSH2 0x2437 PUSH1 0x3 DUP3 ADD PUSH2 0x30B8 JUMP JUMPDEST PUSH1 0x60 DUP10 ADD MSTORE PUSH2 0x2448 PUSH1 0x4 DUP3 ADD PUSH2 0x2C1F JUMP JUMPDEST PUSH1 0x80 DUP10 ADD MSTORE PUSH2 0x2459 PUSH1 0x5 DUP3 ADD PUSH2 0x30B8 JUMP JUMPDEST PUSH1 0xA0 DUP10 ADD MSTORE PUSH1 0xFF PUSH1 0x6 DUP3 ADD SLOAD PUSH2 0x2474 DUP3 DUP3 AND PUSH1 0xC0 DUP13 ADD PUSH2 0x327B JUMP JUMPDEST PUSH1 0x8 SHR AND PUSH2 0x2481 DUP2 PUSH2 0x2D0B JUMP JUMPDEST PUSH1 0xE0 DUP10 ADD MSTORE PUSH1 0x7 DUP2 ADD SLOAD PUSH2 0x100 DUP10 ADD MSTORE PUSH1 0x8 DUP2 ADD SLOAD PUSH2 0x120 DUP10 ADD MSTORE ADD PUSH2 0x2C1F JUMP JUMPDEST DUP7 DUP7 ADD MSTORE PUSH1 0x40 MLOAD DUP4 MLOAD PUSH2 0x24B6 DUP2 DUP4 DUP6 PUSH2 0x2CC3 JUMP JUMPDEST DUP2 ADD SWAP1 PUSH1 0x8 DUP3 MSTORE PUSH1 0x20 DUP2 PUSH1 0x1 DUP1 PUSH1 0xA0 SHL SUB SWAP4 SUB ADD SWAP1 KECCAK256 SLOAD AND SWAP3 PUSH2 0x2677 PUSH2 0x24E8 PUSH1 0x40 MLOAD PUSH1 0x20 DUP2 DUP6 MLOAD PUSH2 0x1108 DUP2 DUP4 DUP11 PUSH2 0x2CC3 JUMP JUMPDEST SWAP5 PUSH2 0x2669 PUSH2 0x2502 PUSH1 0x40 MLOAD PUSH1 0x20 DUP2 DUP8 MLOAD PUSH2 0x22BC DUP2 DUP4 DUP13 PUSH2 0x2CC3 JUMP JUMPDEST SWAP2 PUSH2 0x255A PUSH2 0x18A PUSH1 0x20 PUSH1 0x40 MLOAD DUP9 MLOAD PUSH2 0x251B DUP2 DUP4 DUP14 PUSH2 0x2CC3 JUMP JUMPDEST DUP2 ADD SWAP1 PUSH1 0x5 DUP3 MSTORE DUP3 DUP2 PUSH1 0x1 DUP1 PUSH1 0xA0 SHL SUB SWAP4 SUB ADD SWAP1 KECCAK256 SLOAD AND SWAP9 PUSH2 0x2548 PUSH1 0x40 MLOAD DUP4 DUP2 DUP13 MLOAD PUSH2 0x1152 DUP2 DUP4 DUP9 PUSH2 0x2CC3 JUMP JUMPDEST SWAP9 PUSH1 0x40 MLOAD SWAP4 DUP5 SWAP3 DUP4 SWAP3 MLOAD SWAP3 DUP4 SWAP2 PUSH2 0x2CC3 JUMP JUMPDEST SWAP8 PUSH2 0x2656 PUSH1 0x40 MLOAD DUP1 SWAP14 DUP2 SWAP14 PUSH1 0xE0 DUP4 MSTORE PUSH2 0x2601 PUSH2 0x25EA PUSH2 0x25D3 PUSH2 0x25BE PUSH2 0x25A7 PUSH2 0x2590 DUP7 MLOAD PUSH2 0x160 PUSH1 0xE0 DUP12 ADD MSTORE PUSH2 0x240 DUP11 ADD SWAP1 PUSH2 0x2CE6 JUMP JUMPDEST PUSH1 0x20 DUP8 ADD MLOAD DUP10 DUP3 SUB PUSH1 0xDF NOT ADD PUSH2 0x100 DUP12 ADD MSTORE PUSH2 0x2CE6 JUMP JUMPDEST PUSH1 0x40 DUP7 ADD MLOAD DUP9 DUP3 SUB PUSH1 0xDF NOT ADD PUSH2 0x120 DUP11 ADD MSTORE PUSH2 0x2CE6 JUMP JUMPDEST PUSH1 0x60 DUP6 ADD MLOAD DUP8 DUP3 SUB PUSH1 0xDF NOT ADD DUP8 DUP10 ADD MSTORE PUSH2 0x2D91 JUMP JUMPDEST PUSH1 0x80 DUP5 ADD MLOAD DUP7 DUP3 SUB PUSH1 0xDF NOT ADD PUSH2 0x160 DUP9 ADD MSTORE PUSH2 0x2CE6 JUMP JUMPDEST PUSH1 0xA0 DUP4 ADD MLOAD DUP6 DUP3 SUB PUSH1 0xDF NOT ADD PUSH2 0x180 DUP8 ADD MSTORE PUSH2 0x2D91 JUMP JUMPDEST SWAP3 PUSH2 0x2615 PUSH1 0xC0 DUP4 ADD MLOAD PUSH2 0x1A0 DUP4 ADD SWAP1 PUSH2 0x2E77 JUMP JUMPDEST PUSH1 0xE0 DUP3 ADD MLOAD PUSH2 0x2623 DUP2 PUSH2 0x2D0B JUMP JUMPDEST PUSH2 0x1C0 DUP3 ADD MSTORE PUSH2 0x100 DUP3 ADD MLOAD PUSH2 0x1E0 DUP3 ADD MSTORE PUSH2 0x120 DUP3 ADD MLOAD PUSH2 0x200 SWAP1 SWAP2 ADD MSTORE ADD MLOAD DUP14 DUP3 SUB PUSH1 0xDF NOT ADD PUSH2 0x220 DUP16 ADD MSTORE PUSH2 0x2CE6 JUMP JUMPDEST SWAP2 PUSH1 0x20 DUP13 ADD MSTORE DUP11 DUP3 SUB PUSH1 0x40 DUP13 ADD MSTORE PUSH2 0x2CE6 JUMP JUMPDEST SWAP1 DUP9 DUP3 SUB PUSH1 0x60 DUP11 ADD MSTORE PUSH2 0x2CE6 JUMP JUMPDEST SWAP2 PUSH1 0x80 DUP8 ADD MSTORE DUP6 DUP3 SUB PUSH1 0xA0 DUP8 ADD MSTORE PUSH2 0x2CE6 JUMP JUMPDEST SWAP1 DUP4 DUP3 SUB PUSH1 0xC0 DUP6 ADD MSTORE PUSH2 0x2CE6 JUMP JUMPDEST PUSH1 0x40 MLOAD PUSH3 0x461BCD PUSH1 0xE5 SHL DUP2 MSTORE PUSH1 0x20 PUSH1 0x4 DUP3 ADD MSTORE PUSH1 0x1B PUSH1 0x24 DUP3 ADD MSTORE PUSH32 0x4E6F206461746120666F756E64207769746820746869732049442E0000000000 PUSH1 0x44 DUP3 ADD MSTORE PUSH1 0x64 SWAP1 REVERT JUMPDEST CALLVALUE PUSH2 0x1B1 JUMPI PUSH1 0x20 CALLDATASIZE PUSH1 0x3 NOT ADD SLT PUSH2 0x1B1 JUMPI PUSH1 0x4 CALLDATALOAD PUSH1 0x1 PUSH1 0x1 PUSH1 0x40 SHL SUB DUP2 GT PUSH2 0x1B1 JUMPI PUSH2 0x270D SWAP1 CALLDATASIZE SWAP1 PUSH1 0x4 ADD PUSH2 0x2DEA JUMP JUMPDEST PUSH1 0x2 SLOAD PUSH1 0x20 DUP3 ADD SWAP2 PUSH1 0x0 DUP1 JUMPDEST DUP4 DUP2 LT PUSH2 0x289E JUMPI POP PUSH2 0x272A DUP2 PUSH2 0x31EB JUMP JUMPDEST SWAP3 PUSH2 0x2734 DUP3 PUSH2 0x31EB JUMP JUMPDEST SWAP1 PUSH2 0x2747 PUSH2 0x2741 DUP5 PUSH2 0x3235 JUMP JUMPDEST SWAP4 PUSH2 0x3235 JUMP JUMPDEST SWAP4 PUSH1 0x0 SWAP7 DUP8 JUMPDEST DUP4 DUP2 LT PUSH2 0x27A2 JUMPI PUSH2 0x2778 DUP9 PUSH2 0x1AD DUP10 PUSH2 0x2794 DUP11 PUSH2 0x2786 DUP12 PUSH1 0x40 MLOAD SWAP8 DUP9 SWAP8 PUSH1 0x80 DUP10 MSTORE PUSH1 0x80 DUP10 ADD SWAP1 PUSH2 0x2D91 JUMP JUMPDEST SWAP1 DUP8 DUP3 SUB PUSH1 0x20 DUP10 ADD MSTORE PUSH2 0x2D91 JUMP JUMPDEST SWAP1 DUP6 DUP3 SUB PUSH1 0x40 DUP8 ADD MSTORE PUSH2 0x2E40 JUMP JUMPDEST SWAP1 DUP4 DUP3 SUB PUSH1 0x60 DUP6 ADD MSTORE PUSH2 0x2E40 JUMP JUMPDEST PUSH2 0x27B0 PUSH1 0x20 PUSH2 0x34E DUP4 PUSH2 0x305E JUMP JUMPDEST PUSH1 0x9 DUP2 MSTORE SUB ADD SWAP1 KECCAK256 PUSH1 0x40 MLOAD PUSH2 0x27CD DUP2 PUSH2 0xE76 PUSH1 0x20 DUP3 ADD DUP1 SWAP6 PUSH2 0x3110 JUMP JUMPDEST MLOAD SWAP1 KECCAK256 PUSH1 0x40 MLOAD PUSH1 0x20 DUP2 ADD SWAP1 PUSH2 0x27EB PUSH1 0x20 DUP3 DUP9 MLOAD PUSH2 0xEA2 DUP2 DUP8 DUP12 PUSH2 0x2CC3 JUMP JUMPDEST MLOAD SWAP1 KECCAK256 EQ PUSH2 0x27FC JUMPI JUMPDEST PUSH1 0x1 ADD PUSH2 0x274D JUMP JUMPDEST SWAP8 PUSH2 0x2809 PUSH2 0x2F6 DUP11 PUSH2 0x305E JUMP JUMPDEST PUSH2 0x2813 DUP3 DUP11 PUSH2 0x3267 JUMP JUMPDEST MSTORE PUSH2 0x281E DUP2 DUP10 PUSH2 0x3267 JUMP JUMPDEST POP PUSH2 0x282D PUSH1 0x2 PUSH2 0x320 DUP12 PUSH2 0x305E JUMP JUMPDEST PUSH2 0x2837 DUP3 DUP8 PUSH2 0x3267 JUMP JUMPDEST MSTORE PUSH2 0x2842 DUP2 DUP7 PUSH2 0x3267 JUMP JUMPDEST POP PUSH1 0xFF PUSH1 0x6 PUSH2 0x2850 DUP12 PUSH2 0x305E JUMP JUMPDEST POP ADD SLOAD PUSH1 0x8 SHR AND PUSH2 0x2860 DUP2 PUSH2 0x2D0B JUMP JUMPDEST PUSH2 0x286A DUP3 DUP9 PUSH2 0x3267 JUMP JUMPDEST MSTORE PUSH1 0xFF PUSH1 0x6 PUSH2 0x2878 DUP12 PUSH2 0x305E JUMP JUMPDEST POP ADD SLOAD AND PUSH1 0x2 DUP2 LT ISZERO PUSH2 0x2137 JUMPI DUP2 PUSH2 0x2896 SWAP2 PUSH2 0x3E1 PUSH1 0x1 SWAP5 DUP12 PUSH2 0x3267 JUMP JUMPDEST SWAP9 SWAP1 POP PUSH2 0x27F4 JUMP JUMPDEST PUSH2 0x28AC PUSH1 0x20 PUSH2 0x34E DUP4 PUSH2 0x305E JUMP JUMPDEST PUSH1 0x9 DUP2 MSTORE SUB ADD SWAP1 KECCAK256 PUSH1 0x40 MLOAD PUSH2 0x28C9 DUP2 PUSH2 0xE76 PUSH1 0x20 DUP3 ADD DUP1 SWAP6 PUSH2 0x3110 JUMP JUMPDEST MLOAD SWAP1 KECCAK256 PUSH1 0x40 MLOAD PUSH1 0x20 DUP2 ADD SWAP1 PUSH2 0x28E9 PUSH1 0x20 DUP3 DUP5 PUSH2 0xEA2 DUP13 DUP12 MLOAD SWAP3 DUP4 SWAP2 PUSH2 0x2CC3 JUMP JUMPDEST MLOAD SWAP1 KECCAK256 EQ PUSH2 0x28FA JUMPI JUMPDEST PUSH1 0x1 ADD PUSH2 0x2719 JUMP JUMPDEST SWAP1 PUSH2 0x2906 PUSH1 0x1 SWAP2 PUSH2 0x317E JUMP JUMPDEST SWAP2 SWAP1 POP PUSH2 0x28F2 JUMP JUMPDEST CALLVALUE PUSH2 0x1B1 JUMPI PUSH1 0x20 CALLDATASIZE PUSH1 0x3 NOT ADD SLT PUSH2 0x1B1 JUMPI PUSH1 0x4 CALLDATALOAD PUSH1 0x1 PUSH1 0x1 PUSH1 0x40 SHL SUB DUP2 GT PUSH2 0x1B1 JUMPI PUSH2 0x2940 PUSH1 0x20 SWAP2 CALLDATASIZE SWAP1 PUSH1 0x4 ADD PUSH2 0x2DEA JUMP JUMPDEST DUP2 PUSH2 0x2954 PUSH1 0x40 MLOAD SWAP3 DUP4 DUP2 MLOAD SWAP4 DUP5 SWAP3 ADD PUSH2 0x2CC3 JUMP JUMPDEST PUSH1 0x5 SWAP1 DUP3 ADD SWAP1 DUP2 MSTORE DUP2 SWAP1 SUB DUP3 ADD SWAP1 KECCAK256 SLOAD PUSH1 0x40 MLOAD PUSH1 0x1 PUSH1 0x1 PUSH1 0xA0 SHL SUB SWAP1 SWAP2 AND DUP2 MSTORE RETURN JUMPDEST CALLVALUE PUSH2 0x1B1 JUMPI PUSH1 0x0 CALLDATASIZE PUSH1 0x3 NOT ADD SLT PUSH2 0x1B1 JUMPI PUSH1 0x3 SLOAD PUSH2 0x2993 DUP2 PUSH2 0x2F01 JUMP JUMPDEST SWAP1 PUSH2 0x29A1 PUSH1 0x40 MLOAD SWAP3 DUP4 PUSH2 0x2BFE JUMP JUMPDEST DUP1 DUP3 MSTORE PUSH1 0x20 DUP3 ADD SWAP1 DUP2 PUSH1 0x3 PUSH1 0x0 MSTORE PUSH32 0xC2575A0E9E593C00F959F8C92F12DB2869C3395A3B0502D05E2516446F71F85B PUSH1 0x0 SWAP2 JUMPDEST DUP4 DUP4 LT PUSH2 0x2A99 JUMPI DUP5 DUP7 PUSH1 0x40 MLOAD SWAP2 DUP3 SWAP2 PUSH1 0x20 DUP4 ADD SWAP1 PUSH1 0x20 DUP5 MSTORE MLOAD DUP1 SWAP2 MSTORE PUSH1 0x40 DUP4 ADD SWAP1 PUSH1 0x40 DUP2 PUSH1 0x5 SHL DUP6 ADD ADD SWAP3 SWAP2 PUSH1 0x0 SWAP1 JUMPDEST DUP3 DUP3 LT PUSH2 0x2A13 JUMPI POP POP POP POP SUB SWAP1 RETURN JUMPDEST SWAP2 SWAP4 PUSH1 0x1 SWAP2 SWAP4 SWAP6 POP PUSH1 0x20 PUSH2 0x2A89 DUP2 SWAP3 PUSH1 0x3F NOT DUP11 DUP3 SUB ADD DUP7 MSTORE DUP9 MLOAD SWAP1 PUSH1 0x80 PUSH2 0x2A78 PUSH2 0x2A59 PUSH2 0x2A49 DUP6 MLOAD PUSH1 0xA0 DUP7 MSTORE PUSH1 0xA0 DUP7 ADD SWAP1 PUSH2 0x2CE6 JUMP JUMPDEST DUP8 DUP7 ADD MLOAD DUP6 DUP3 SUB DUP10 DUP8 ADD MSTORE PUSH2 0x2CE6 JUMP JUMPDEST PUSH1 0xFF PUSH1 0x40 DUP7 ADD MLOAD AND PUSH1 0x40 DUP6 ADD MSTORE PUSH1 0x60 DUP6 ADD MLOAD DUP5 DUP3 SUB PUSH1 0x60 DUP7 ADD MSTORE PUSH2 0x2CE6 JUMP JUMPDEST SWAP3 ADD MLOAD SWAP1 PUSH1 0x80 DUP2 DUP5 SUB SWAP2 ADD MSTORE PUSH2 0x2D91 JUMP JUMPDEST SWAP7 ADD SWAP3 ADD SWAP3 ADD DUP6 SWAP5 SWAP4 SWAP2 SWAP3 PUSH2 0x2A04 JUMP JUMPDEST PUSH1 0x5 PUSH1 0x20 PUSH1 0x1 SWAP3 PUSH1 0x40 MLOAD PUSH2 0x2AAC DUP2 PUSH2 0x2BC7 JUMP JUMPDEST PUSH2 0x2AB5 DUP7 PUSH2 0x2C1F JUMP JUMPDEST DUP2 MSTORE PUSH2 0x2AC2 DUP6 DUP8 ADD PUSH2 0x2C1F JUMP JUMPDEST DUP4 DUP3 ADD MSTORE PUSH1 0xFF PUSH1 0x2 DUP8 ADD SLOAD AND PUSH1 0x40 DUP3 ADD MSTORE PUSH2 0x2ADF PUSH1 0x3 DUP8 ADD PUSH2 0x2C1F JUMP JUMPDEST PUSH1 0x60 DUP3 ADD MSTORE PUSH2 0x2AF0 PUSH1 0x4 DUP8 ADD PUSH2 0x30B8 JUMP JUMPDEST PUSH1 0x80 DUP3 ADD MSTORE DUP2 MSTORE ADD SWAP3 ADD SWAP3 ADD SWAP2 SWAP1 PUSH2 0x29D4 JUMP JUMPDEST CALLVALUE PUSH2 0x1B1 JUMPI PUSH1 0x20 CALLDATASIZE PUSH1 0x3 NOT ADD SLT PUSH2 0x1B1 JUMPI PUSH1 0x4 CALLDATALOAD PUSH1 0x4 SLOAD DUP2 LT ISZERO PUSH2 0x1B1 JUMPI PUSH2 0x2B2A SWAP1 PUSH2 0x2B58 JUMP JUMPDEST POP PUSH2 0x1353 DUP2 PUSH2 0x2C1F JUMP JUMPDEST CALLVALUE PUSH2 0x1B1 JUMPI PUSH1 0x0 CALLDATASIZE PUSH1 0x3 NOT ADD SLT PUSH2 0x1B1 JUMPI PUSH1 0x0 SLOAD PUSH1 0x1 PUSH1 0x1 PUSH1 0xA0 SHL SUB AND DUP2 MSTORE PUSH1 0x20 SWAP1 RETURN JUMPDEST PUSH1 0x4 SLOAD DUP2 LT ISZERO PUSH2 0x2B77 JUMPI PUSH1 0x4 PUSH1 0x0 MSTORE PUSH1 0x20 PUSH1 0x0 KECCAK256 SWAP1 PUSH1 0x3 SHL ADD SWAP1 PUSH1 0x0 SWAP1 JUMP JUMPDEST PUSH4 0x4E487B71 PUSH1 0xE0 SHL PUSH1 0x0 MSTORE PUSH1 0x32 PUSH1 0x4 MSTORE PUSH1 0x24 PUSH1 0x0 REVERT JUMPDEST SWAP1 PUSH1 0x1 DUP3 DUP2 SHR SWAP3 AND DUP1 ISZERO PUSH2 0x2BBD JUMPI JUMPDEST PUSH1 0x20 DUP4 LT EQ PUSH2 0x2BA7 JUMPI JUMP JUMPDEST PUSH4 0x4E487B71 PUSH1 0xE0 SHL PUSH1 0x0 MSTORE PUSH1 0x22 PUSH1 0x4 MSTORE PUSH1 0x24 PUSH1 0x0 REVERT JUMPDEST SWAP2 PUSH1 0x7F AND SWAP2 PUSH2 0x2B9C JUMP JUMPDEST PUSH1 0xA0 DUP2 ADD SWAP1 DUP2 LT PUSH1 0x1 PUSH1 0x1 PUSH1 0x40 SHL SUB DUP3 GT OR PUSH2 0x95C JUMPI PUSH1 0x40 MSTORE JUMP JUMPDEST PUSH2 0x160 DUP2 ADD SWAP1 DUP2 LT PUSH1 0x1 PUSH1 0x1 PUSH1 0x40 SHL SUB DUP3 GT OR PUSH2 0x95C JUMPI PUSH1 0x40 MSTORE JUMP JUMPDEST SWAP1 PUSH1 0x1F DUP1 NOT SWAP2 ADD AND DUP2 ADD SWAP1 DUP2 LT PUSH1 0x1 PUSH1 0x1 PUSH1 0x40 SHL SUB DUP3 GT OR PUSH2 0x95C JUMPI PUSH1 0x40 MSTORE JUMP JUMPDEST SWAP1 PUSH1 0x40 MLOAD SWAP2 DUP3 PUSH1 0x0 DUP3 SLOAD SWAP3 PUSH2 0x2C33 DUP5 PUSH2 0x2B8D JUMP JUMPDEST DUP1 DUP5 MSTORE SWAP4 PUSH1 0x1 DUP2 AND SWAP1 DUP2 ISZERO PUSH2 0x2CA1 JUMPI POP PUSH1 0x1 EQ PUSH2 0x2C5A JUMPI JUMPDEST POP PUSH2 0x2C58 SWAP3 POP SUB DUP4 PUSH2 0x2BFE JUMP JUMPDEST JUMP JUMPDEST SWAP1 POP PUSH1 0x0 SWAP3 SWAP2 SWAP3 MSTORE PUSH1 0x20 PUSH1 0x0 KECCAK256 SWAP1 PUSH1 0x0 SWAP2 JUMPDEST DUP2 DUP4 LT PUSH2 0x2C85 JUMPI POP POP SWAP1 PUSH1 0x20 PUSH2 0x2C58 SWAP3 DUP3 ADD ADD CODESIZE PUSH2 0x2C4B JUMP JUMPDEST PUSH1 0x20 SWAP2 SWAP4 POP DUP1 PUSH1 0x1 SWAP2 SLOAD DUP4 DUP6 DUP10 ADD ADD MSTORE ADD SWAP2 ADD SWAP1 SWAP2 DUP5 SWAP3 PUSH2 0x2C6C JUMP JUMPDEST SWAP1 POP PUSH1 0x20 SWAP3 POP PUSH2 0x2C58 SWAP5 SWAP2 POP PUSH1 0xFF NOT AND DUP3 DUP5 ADD MSTORE ISZERO ISZERO PUSH1 0x5 SHL DUP3 ADD ADD CODESIZE PUSH2 0x2C4B JUMP JUMPDEST PUSH1 0x0 JUMPDEST DUP4 DUP2 LT PUSH2 0x2CD6 JUMPI POP POP PUSH1 0x0 SWAP2 ADD MSTORE JUMP JUMPDEST DUP2 DUP2 ADD MLOAD DUP4 DUP3 ADD MSTORE PUSH1 0x20 ADD PUSH2 0x2CC6 JUMP JUMPDEST SWAP1 PUSH1 0x20 SWAP2 PUSH2 0x2CFF DUP2 MLOAD DUP1 SWAP3 DUP2 DUP6 MSTORE DUP6 DUP1 DUP7 ADD SWAP2 ADD PUSH2 0x2CC3 JUMP JUMPDEST PUSH1 0x1F ADD PUSH1 0x1F NOT AND ADD ADD SWAP1 JUMP JUMPDEST PUSH1 0x3 GT ISZERO PUSH2 0x2137 JUMPI JUMP JUMPDEST SWAP5 SWAP1 PUSH2 0x2D5B PUSH2 0x2D6F SWAP5 PUSH2 0x2D4D PUSH1 0xE0 SWAP10 SWAP13 SWAP12 SWAP11 SWAP8 SWAP6 PUSH2 0x2D3F PUSH1 0xFF SWAP6 PUSH2 0x100 DUP13 MSTORE PUSH2 0x100 DUP13 ADD SWAP1 PUSH2 0x2CE6 JUMP JUMPDEST SWAP1 DUP11 DUP3 SUB PUSH1 0x20 DUP13 ADD MSTORE PUSH2 0x2CE6 JUMP JUMPDEST SWAP1 DUP9 DUP3 SUB PUSH1 0x40 DUP11 ADD MSTORE PUSH2 0x2CE6 JUMP JUMPDEST SWAP3 AND PUSH1 0x60 DUP7 ADD MSTORE DUP5 DUP3 SUB PUSH1 0x80 DUP7 ADD MSTORE PUSH2 0x2CE6 JUMP JUMPDEST PUSH1 0x1 PUSH1 0x1 PUSH1 0xA0 SHL SUB SWAP1 SWAP7 AND PUSH1 0xA0 DUP4 ADD MSTORE PUSH2 0x2D88 DUP2 PUSH2 0x2D0B JUMP JUMPDEST PUSH1 0xC0 DUP3 ADD MSTORE ADD MSTORE JUMP JUMPDEST SWAP1 DUP1 PUSH1 0x20 DUP4 MLOAD SWAP2 DUP3 DUP2 MSTORE ADD SWAP2 PUSH1 0x20 DUP1 DUP4 PUSH1 0x5 SHL DUP4 ADD ADD SWAP5 ADD SWAP3 PUSH1 0x0 SWAP2 JUMPDEST DUP4 DUP4 LT PUSH2 0x2DBD JUMPI POP POP POP POP POP SWAP1 JUMP JUMPDEST SWAP1 SWAP2 SWAP3 SWAP4 SWAP5 PUSH1 0x20 DUP1 PUSH2 0x2DDB PUSH1 0x1 SWAP4 PUSH1 0x1F NOT DUP7 DUP3 SUB ADD DUP8 MSTORE DUP10 MLOAD PUSH2 0x2CE6 JUMP JUMPDEST SWAP8 ADD SWAP4 ADD SWAP4 ADD SWAP2 SWAP4 SWAP3 SWAP1 PUSH2 0x2DAE JUMP JUMPDEST DUP2 PUSH1 0x1F DUP3 ADD SLT ISZERO PUSH2 0x1B1 JUMPI DUP1 CALLDATALOAD SWAP1 PUSH1 0x1 PUSH1 0x1 PUSH1 0x40 SHL SUB DUP3 GT PUSH2 0x95C JUMPI PUSH1 0x40 MLOAD SWAP3 PUSH2 0x2E1E PUSH1 0x1F DUP5 ADD PUSH1 0x1F NOT AND PUSH1 0x20 ADD DUP6 PUSH2 0x2BFE JUMP JUMPDEST DUP3 DUP5 MSTORE PUSH1 0x20 DUP4 DUP4 ADD ADD GT PUSH2 0x1B1 JUMPI DUP2 PUSH1 0x0 SWAP3 PUSH1 0x20 DUP1 SWAP4 ADD DUP4 DUP7 ADD CALLDATACOPY DUP4 ADD ADD MSTORE SWAP1 JUMP JUMPDEST SWAP1 PUSH1 0x20 DUP1 DUP4 MLOAD SWAP3 DUP4 DUP2 MSTORE ADD SWAP3 ADD SWAP1 PUSH1 0x0 JUMPDEST DUP2 DUP2 LT PUSH2 0x2E5E JUMPI POP POP POP SWAP1 JUMP JUMPDEST DUP3 MLOAD PUSH1 0xFF AND DUP5 MSTORE PUSH1 0x20 SWAP4 DUP5 ADD SWAP4 SWAP1 SWAP3 ADD SWAP2 PUSH1 0x1 ADD PUSH2 0x2E51 JUMP JUMPDEST SWAP1 PUSH1 0x2 DUP3 LT ISZERO PUSH2 0x2137 JUMPI MSTORE JUMP JUMPDEST SWAP6 SWAP3 SWAP4 PUSH2 0x2EBF PUSH2 0x2EFE SWAP11 SWAP9 SWAP6 PUSH2 0x2EB1 PUSH2 0x2ED8 SWAP6 PUSH2 0x834 PUSH2 0x2ECD SWAP7 SWAP14 SWAP11 SWAP14 PUSH2 0x120 DUP14 MSTORE PUSH2 0x120 DUP14 ADD SWAP1 PUSH2 0x2CE6 JUMP JUMPDEST SWAP1 DUP10 DUP3 SUB PUSH1 0x40 DUP12 ADD MSTORE PUSH2 0x2CE6 JUMP JUMPDEST SWAP1 DUP8 DUP3 SUB PUSH1 0x60 DUP10 ADD MSTORE PUSH2 0x2CE6 JUMP JUMPDEST SWAP7 PUSH1 0x80 DUP7 ADD SWAP1 PUSH2 0x2E77 JUMP JUMPDEST PUSH2 0x2EE1 DUP2 PUSH2 0x2D0B JUMP JUMPDEST PUSH1 0xA0 DUP5 ADD MSTORE PUSH1 0xC0 DUP4 ADD MSTORE PUSH1 0xE0 DUP3 ADD MSTORE PUSH2 0x100 DUP2 DUP5 SUB SWAP2 ADD MSTORE PUSH2 0x2CE6 JUMP JUMPDEST SWAP1 JUMP JUMPDEST PUSH1 0x1 PUSH1 0x1 PUSH1 0x40 SHL SUB DUP2 GT PUSH2 0x95C JUMPI PUSH1 0x5 SHL PUSH1 0x20 ADD SWAP1 JUMP JUMPDEST SWAP1 DUP1 PUSH1 0x1F DUP4 ADD SLT ISZERO PUSH2 0x1B1 JUMPI DUP2 CALLDATALOAD PUSH2 0x2F2F DUP2 PUSH2 0x2F01 JUMP JUMPDEST SWAP3 PUSH2 0x2F3D PUSH1 0x40 MLOAD SWAP5 DUP6 PUSH2 0x2BFE JUMP JUMPDEST DUP2 DUP5 MSTORE PUSH1 0x20 DUP1 DUP6 ADD SWAP3 PUSH1 0x5 SHL DUP3 ADD ADD SWAP2 DUP4 DUP4 GT PUSH2 0x1B1 JUMPI PUSH1 0x20 DUP3 ADD SWAP1 JUMPDEST DUP4 DUP3 LT PUSH2 0x2F69 JUMPI POP POP POP POP POP SWAP1 JUMP JUMPDEST DUP2 CALLDATALOAD PUSH1 0x1 PUSH1 0x1 PUSH1 0x40 SHL SUB DUP2 GT PUSH2 0x1B1 JUMPI PUSH1 0x20 SWAP2 PUSH2 0x2F8B DUP8 DUP5 DUP1 SWAP5 DUP9 ADD ADD PUSH2 0x2DEA JUMP JUMPDEST DUP2 MSTORE ADD SWAP2 ADD SWAP1 PUSH2 0x2F5A JUMP JUMPDEST PUSH1 0xE0 PUSH1 0x3 NOT DUP3 ADD SLT PUSH2 0x1B1 JUMPI PUSH1 0x4 CALLDATALOAD PUSH1 0x1 PUSH1 0x1 PUSH1 0x40 SHL SUB DUP2 GT PUSH2 0x1B1 JUMPI DUP2 PUSH2 0x2FC0 SWAP2 PUSH1 0x4 ADD PUSH2 0x2DEA JUMP JUMPDEST SWAP2 PUSH1 0x24 CALLDATALOAD PUSH1 0x1 PUSH1 0x1 PUSH1 0x40 SHL SUB DUP2 GT PUSH2 0x1B1 JUMPI DUP3 PUSH2 0x2FDF SWAP2 PUSH1 0x4 ADD PUSH2 0x2DEA JUMP JUMPDEST SWAP2 PUSH1 0x44 CALLDATALOAD PUSH1 0x1 PUSH1 0x1 PUSH1 0x40 SHL SUB DUP2 GT PUSH2 0x1B1 JUMPI DUP2 PUSH2 0x2FFE SWAP2 PUSH1 0x4 ADD PUSH2 0x2DEA JUMP JUMPDEST SWAP2 PUSH1 0x64 CALLDATALOAD PUSH1 0xFF DUP2 AND DUP2 SUB PUSH2 0x1B1 JUMPI SWAP2 PUSH1 0x84 CALLDATALOAD PUSH1 0x1 PUSH1 0x1 PUSH1 0xA0 SHL SUB DUP2 AND DUP2 SUB PUSH2 0x1B1 JUMPI SWAP2 PUSH1 0xA4 CALLDATALOAD PUSH1 0x1 PUSH1 0x1 PUSH1 0x40 SHL SUB DUP2 GT PUSH2 0x1B1 JUMPI DUP3 PUSH2 0x303F SWAP2 PUSH1 0x4 ADD PUSH2 0x2DEA JUMP JUMPDEST SWAP2 PUSH1 0xC4 CALLDATALOAD SWAP1 PUSH1 0x1 PUSH1 0x1 PUSH1 0x40 SHL SUB DUP3 GT PUSH2 0x1B1 JUMPI PUSH2 0x2EFE SWAP2 PUSH1 0x4 ADD PUSH2 0x2F18 JUMP JUMPDEST PUSH1 0x2 SLOAD DUP2 LT ISZERO PUSH2 0x2B77 JUMPI PUSH1 0x2 PUSH1 0x0 MSTORE PUSH1 0xA PUSH1 0x20 PUSH1 0x0 KECCAK256 SWAP2 MUL ADD SWAP1 PUSH1 0x0 SWAP1 JUMP JUMPDEST PUSH1 0x3 SLOAD DUP2 LT ISZERO PUSH2 0x2B77 JUMPI PUSH1 0x3 PUSH1 0x0 MSTORE PUSH1 0x5 PUSH1 0x20 PUSH1 0x0 KECCAK256 SWAP2 MUL ADD SWAP1 PUSH1 0x0 SWAP1 JUMP JUMPDEST DUP1 SLOAD DUP3 LT ISZERO PUSH2 0x2B77 JUMPI PUSH1 0x0 MSTORE PUSH1 0x5 PUSH1 0x20 PUSH1 0x0 KECCAK256 SWAP2 MUL ADD SWAP1 PUSH1 0x0 SWAP1 JUMP JUMPDEST SWAP1 DUP2 SLOAD PUSH2 0x30C4 DUP2 PUSH2 0x2F01 JUMP JUMPDEST SWAP3 PUSH2 0x30D2 PUSH1 0x40 MLOAD SWAP5 DUP6 PUSH2 0x2BFE JUMP JUMPDEST DUP2 DUP5 MSTORE PUSH1 0x20 DUP5 ADD SWAP1 PUSH1 0x0 MSTORE PUSH1 0x20 PUSH1 0x0 KECCAK256 PUSH1 0x0 SWAP2 JUMPDEST DUP4 DUP4 LT PUSH2 0x30F3 JUMPI POP POP POP POP JUMP JUMPDEST PUSH1 0x1 PUSH1 0x20 DUP2 SWAP3 PUSH2 0x3102 DUP6 PUSH2 0x2C1F JUMP JUMPDEST DUP2 MSTORE ADD SWAP3 ADD SWAP3 ADD SWAP2 SWAP1 PUSH2 0x30E6 JUMP JUMPDEST PUSH1 0x0 SWAP3 SWAP2 DUP2 SLOAD SWAP2 PUSH2 0x3120 DUP4 PUSH2 0x2B8D JUMP JUMPDEST SWAP3 PUSH1 0x1 DUP2 AND SWAP1 DUP2 ISZERO PUSH2 0x316B JUMPI POP PUSH1 0x1 EQ PUSH2 0x3139 JUMPI POP POP POP JUMP JUMPDEST SWAP1 SWAP2 SWAP3 SWAP4 POP PUSH1 0x0 MSTORE PUSH1 0x20 PUSH1 0x0 KECCAK256 PUSH1 0x0 SWAP1 JUMPDEST DUP4 DUP3 LT PUSH2 0x3157 JUMPI POP POP ADD SWAP1 JUMP JUMPDEST PUSH1 0x1 DUP2 PUSH1 0x20 SWAP3 SLOAD DUP5 DUP7 ADD MSTORE ADD SWAP2 ADD SWAP1 PUSH2 0x314A JUMP JUMPDEST PUSH1 0xFF NOT AND DUP4 MSTORE POP POP DUP2 ISZERO ISZERO SWAP1 SWAP2 MUL ADD SWAP2 POP JUMP JUMPDEST PUSH1 0x0 NOT DUP2 EQ PUSH2 0x318D JUMPI PUSH1 0x1 ADD SWAP1 JUMP JUMPDEST PUSH4 0x4E487B71 PUSH1 0xE0 SHL PUSH1 0x0 MSTORE PUSH1 0x11 PUSH1 0x4 MSTORE PUSH1 0x24 PUSH1 0x0 REVERT JUMPDEST PUSH1 0x40 MLOAD SWAP1 PUSH2 0x31B2 PUSH1 0x20 DUP4 PUSH2 0x2BFE JUMP JUMPDEST PUSH1 0x0 DUP1 DUP4 MSTORE DUP3 DUP2 JUMPDEST DUP3 DUP2 LT PUSH2 0x31C6 JUMPI POP POP POP JUMP JUMPDEST DUP1 PUSH1 0x60 PUSH1 0x20 DUP1 SWAP4 DUP6 ADD ADD MSTORE ADD PUSH2 0x31BA JUMP JUMPDEST PUSH4 0x4E487B71 PUSH1 0xE0 SHL DUP2 MSTORE PUSH1 0x41 PUSH1 0x4 MSTORE PUSH1 0x24 SWAP1 REVERT JUMPDEST SWAP1 PUSH2 0x31F5 DUP3 PUSH2 0x2F01 JUMP JUMPDEST PUSH2 0x3202 PUSH1 0x40 MLOAD SWAP2 DUP3 PUSH2 0x2BFE JUMP JUMPDEST DUP3 DUP2 MSTORE DUP1 SWAP3 PUSH2 0x3213 PUSH1 0x1F NOT SWAP2 PUSH2 0x2F01 JUMP JUMPDEST ADD SWAP1 PUSH1 0x0 JUMPDEST DUP3 DUP2 LT PUSH2 0x3224 JUMPI POP POP POP JUMP JUMPDEST DUP1 PUSH1 0x60 PUSH1 0x20 DUP1 SWAP4 DUP6 ADD ADD MSTORE ADD PUSH2 0x3218 JUMP JUMPDEST SWAP1 PUSH2 0x323F DUP3 PUSH2 0x2F01 JUMP JUMPDEST PUSH2 0x324C PUSH1 0x40 MLOAD SWAP2 DUP3 PUSH2 0x2BFE JUMP JUMPDEST DUP3 DUP2 MSTORE DUP1 SWAP3 PUSH2 0x325D PUSH1 0x1F NOT SWAP2 PUSH2 0x2F01 JUMP JUMPDEST ADD SWAP1 PUSH1 0x20 CALLDATASIZE SWAP2 ADD CALLDATACOPY JUMP JUMPDEST DUP1 MLOAD DUP3 LT ISZERO PUSH2 0x2B77 JUMPI PUSH1 0x20 SWAP2 PUSH1 0x5 SHL ADD ADD SWAP1 JUMP JUMPDEST PUSH1 0x2 DUP3 LT ISZERO PUSH2 0x2137 JUMPI MSTORE JUMP JUMPDEST SWAP1 DUP2 PUSH1 0x20 SWAP2 SUB SLT PUSH2 0x1B1 JUMPI MLOAD DUP1 ISZERO ISZERO DUP2 SUB PUSH2 0x1B1 JUMPI SWAP1 JUMP JUMPDEST DUP2 DUP2 LT PUSH2 0x32AA JUMPI POP POP JUMP JUMPDEST PUSH1 0x0 DUP2 SSTORE PUSH1 0x1 ADD PUSH2 0x329F JUMP JUMPDEST SWAP2 SWAP1 DUP1 MLOAD SWAP3 DUP4 MLOAD PUSH1 0x1 PUSH1 0x1 PUSH1 0x40 SHL SUB DUP2 GT PUSH2 0x95C JUMPI PUSH2 0x32D5 DUP3 SLOAD PUSH2 0x2B8D JUMP JUMPDEST PUSH1 0x1F DUP2 GT PUSH2 0x38C4 JUMPI JUMPDEST POP PUSH1 0x20 SWAP5 PUSH1 0x1F DUP3 GT PUSH1 0x1 EQ PUSH2 0x385F JUMPI PUSH2 0x3312 SWAP3 SWAP4 SWAP5 SWAP6 DUP3 SWAP2 PUSH1 0x0 SWAP3 PUSH2 0x3565 JUMPI POP POP DUP2 PUSH1 0x1 SHL SWAP2 PUSH1 0x0 NOT SWAP1 PUSH1 0x3 SHL SHR NOT AND OR SWAP1 JUMP JUMPDEST DUP2 SSTORE JUMPDEST PUSH1 0x1 DUP2 ADD PUSH1 0x20 DUP4 ADD MLOAD DUP1 MLOAD SWAP1 PUSH1 0x1 PUSH1 0x1 PUSH1 0x40 SHL SUB DUP3 GT PUSH2 0x95C JUMPI PUSH2 0x3339 DUP4 SLOAD PUSH2 0x2B8D JUMP JUMPDEST PUSH1 0x1F DUP2 GT PUSH2 0x382D JUMPI JUMPDEST POP PUSH1 0x20 SWAP1 PUSH1 0x1F DUP4 GT PUSH1 0x1 EQ PUSH2 0x37C6 JUMPI PUSH2 0x3373 SWAP3 SWAP2 PUSH1 0x0 SWAP2 DUP4 PUSH2 0x3565 JUMPI POP POP DUP2 PUSH1 0x1 SHL SWAP2 PUSH1 0x0 NOT SWAP1 PUSH1 0x3 SHL SHR NOT AND OR SWAP1 JUMP JUMPDEST SWAP1 SSTORE JUMPDEST PUSH1 0x2 DUP2 ADD PUSH1 0x40 DUP4 ADD MLOAD DUP1 MLOAD SWAP1 PUSH1 0x1 PUSH1 0x1 PUSH1 0x40 SHL SUB DUP3 GT PUSH2 0x95C JUMPI PUSH2 0x339A DUP4 SLOAD PUSH2 0x2B8D JUMP JUMPDEST PUSH1 0x1F DUP2 GT PUSH2 0x3794 JUMPI JUMPDEST POP PUSH1 0x20 SWAP1 PUSH1 0x1F DUP4 GT PUSH1 0x1 EQ PUSH2 0x372D JUMPI PUSH2 0x33D4 SWAP3 SWAP2 PUSH1 0x0 SWAP2 DUP4 PUSH2 0x3565 JUMPI POP POP DUP2 PUSH1 0x1 SHL SWAP2 PUSH1 0x0 NOT SWAP1 PUSH1 0x3 SHL SHR NOT AND OR SWAP1 JUMP JUMPDEST SWAP1 SSTORE JUMPDEST PUSH1 0xFF PUSH1 0x60 DUP4 ADD MLOAD AND PUSH1 0xFF PUSH1 0x3 DUP4 ADD SWAP2 AND PUSH1 0xFF NOT DUP3 SLOAD AND OR SWAP1 SSTORE PUSH1 0x4 DUP2 ADD PUSH1 0x80 DUP4 ADD MLOAD DUP1 MLOAD SWAP1 PUSH1 0x1 PUSH1 0x1 PUSH1 0x40 SHL SUB DUP3 GT PUSH2 0x95C JUMPI PUSH2 0x3414 DUP4 SLOAD PUSH2 0x2B8D JUMP JUMPDEST PUSH1 0x1F DUP2 GT PUSH2 0x36FB JUMPI JUMPDEST POP PUSH1 0x20 SWAP1 PUSH1 0x1F DUP4 GT PUSH1 0x1 EQ PUSH2 0x368D JUMPI DUP3 PUSH2 0x100 SWAP6 SWAP4 PUSH1 0x7 SWAP6 SWAP4 PUSH2 0x3456 SWAP4 PUSH1 0x0 SWAP3 PUSH2 0x3565 JUMPI POP POP DUP2 PUSH1 0x1 SHL SWAP2 PUSH1 0x0 NOT SWAP1 PUSH1 0x3 SHL SHR NOT AND OR SWAP1 JUMP JUMPDEST SWAP1 SSTORE JUMPDEST PUSH1 0xA0 DUP5 ADD MLOAD PUSH1 0x5 DUP3 ADD DUP1 SLOAD PUSH1 0x1 PUSH1 0x1 PUSH1 0xA0 SHL SUB NOT AND PUSH1 0x1 PUSH1 0x1 PUSH1 0xA0 SHL SUB SWAP3 SWAP1 SWAP3 AND SWAP2 SWAP1 SWAP2 OR DUP2 SSTORE PUSH1 0xC0 DUP6 ADD MLOAD PUSH2 0x348E DUP2 PUSH2 0x2D0B JUMP JUMPDEST PUSH2 0x3497 DUP2 PUSH2 0x2D0B JUMP JUMPDEST DUP2 SLOAD SWAP1 PUSH1 0xFF PUSH1 0xA0 SHL SWAP1 PUSH1 0xA0 SHL AND SWAP1 PUSH1 0xFF PUSH1 0xA0 SHL NOT AND OR SWAP1 SSTORE PUSH1 0xE0 DUP5 ADD MLOAD PUSH1 0x6 DUP3 ADD SSTORE ADD SWAP2 ADD MLOAD DUP1 MLOAD SWAP1 PUSH1 0x1 PUSH1 0x40 SHL DUP3 GT PUSH2 0x95C JUMPI DUP3 SLOAD DUP3 DUP5 SSTORE DUP1 DUP4 LT PUSH2 0x360F JUMPI JUMPDEST POP PUSH1 0x20 ADD SWAP2 PUSH1 0x0 MSTORE PUSH1 0x20 PUSH1 0x0 KECCAK256 SWAP2 PUSH1 0x0 SWAP1 JUMPDEST DUP3 DUP3 LT PUSH2 0x34F7 JUMPI POP POP POP POP JUMP JUMPDEST DUP1 MLOAD DUP1 MLOAD SWAP1 PUSH1 0x1 PUSH1 0x1 PUSH1 0x40 SHL SUB DUP3 GT PUSH2 0x95C JUMPI PUSH2 0x3514 DUP7 SLOAD PUSH2 0x2B8D JUMP JUMPDEST PUSH1 0x1F DUP2 GT PUSH2 0x35DD JUMPI JUMPDEST POP PUSH1 0x20 SWAP1 PUSH1 0x1F DUP4 GT PUSH1 0x1 EQ PUSH2 0x3570 JUMPI SWAP3 PUSH2 0x3556 DUP4 PUSH1 0x1 SWAP6 SWAP5 PUSH1 0x20 SWAP5 DUP8 SWAP7 PUSH1 0x0 SWAP3 PUSH2 0x3565 JUMPI POP POP DUP2 PUSH1 0x1 SHL SWAP2 PUSH1 0x0 NOT SWAP1 PUSH1 0x3 SHL SHR NOT AND OR SWAP1 JUMP JUMPDEST DUP8 SSTORE JUMPDEST ADD SWAP5 ADD SWAP2 ADD SWAP1 SWAP3 PUSH2 0x34EA JUMP JUMPDEST ADD MLOAD SWAP1 POP CODESIZE DUP1 PUSH2 0x1627 JUMP JUMPDEST SWAP1 PUSH1 0x1F NOT DUP4 AND SWAP2 DUP8 PUSH1 0x0 MSTORE DUP2 PUSH1 0x0 KECCAK256 SWAP3 PUSH1 0x0 JUMPDEST DUP2 DUP2 LT PUSH2 0x35C5 JUMPI POP SWAP4 PUSH1 0x20 SWAP4 PUSH1 0x1 SWAP7 SWAP4 DUP8 SWAP7 SWAP4 DUP4 DUP9 SWAP6 LT PUSH2 0x35AC JUMPI JUMPDEST POP POP POP DUP2 SHL ADD DUP8 SSTORE PUSH2 0x3559 JUMP JUMPDEST ADD MLOAD PUSH1 0x0 NOT PUSH1 0xF8 DUP5 PUSH1 0x3 SHL AND SHR NOT AND SWAP1 SSTORE CODESIZE DUP1 DUP1 PUSH2 0x359F JUMP JUMPDEST SWAP3 SWAP4 PUSH1 0x20 PUSH1 0x1 DUP2 SWAP3 DUP8 DUP7 ADD MLOAD DUP2 SSTORE ADD SWAP6 ADD SWAP4 ADD PUSH2 0x3583 JUMP JUMPDEST PUSH2 0x3609 SWAP1 DUP8 PUSH1 0x0 MSTORE PUSH1 0x20 PUSH1 0x0 KECCAK256 PUSH1 0x1F DUP6 ADD PUSH1 0x5 SHR DUP2 ADD SWAP2 PUSH1 0x20 DUP7 LT PUSH2 0x952 JUMPI PUSH1 0x1F ADD PUSH1 0x5 SHR ADD SWAP1 PUSH2 0x329F JUMP JUMPDEST CODESIZE PUSH2 0x351D JUMP JUMPDEST DUP4 PUSH1 0x0 MSTORE DUP3 PUSH1 0x20 PUSH1 0x0 KECCAK256 SWAP2 DUP3 ADD SWAP2 ADD JUMPDEST DUP2 DUP2 LT PUSH2 0x362C JUMPI POP PUSH2 0x34D8 JUMP JUMPDEST DUP1 PUSH2 0x3639 PUSH1 0x1 SWAP3 SLOAD PUSH2 0x2B8D JUMP JUMPDEST DUP1 PUSH2 0x3646 JUMPI JUMPDEST POP ADD PUSH2 0x361F JUMP JUMPDEST PUSH1 0x1F DUP2 GT DUP4 EQ PUSH2 0x365C JUMPI POP PUSH1 0x0 DUP2 SSTORE JUMPDEST CODESIZE PUSH2 0x363F JUMP JUMPDEST PUSH2 0x367A SWAP1 DUP3 PUSH1 0x0 MSTORE DUP4 PUSH1 0x1F PUSH1 0x20 PUSH1 0x0 KECCAK256 SWAP3 ADD PUSH1 0x5 SHR DUP3 ADD SWAP2 ADD PUSH2 0x329F JUMP JUMPDEST DUP1 PUSH1 0x0 MSTORE PUSH1 0x0 PUSH1 0x20 DUP2 KECCAK256 DUP2 DUP4 SSTORE SSTORE PUSH2 0x3656 JUMP JUMPDEST SWAP1 PUSH1 0x1F NOT DUP4 AND SWAP2 DUP5 PUSH1 0x0 MSTORE DUP2 PUSH1 0x0 KECCAK256 SWAP3 PUSH1 0x0 JUMPDEST DUP2 DUP2 LT PUSH2 0x36E3 JUMPI POP SWAP3 PUSH1 0x1 SWAP3 DUP6 SWAP3 PUSH2 0x100 SWAP9 SWAP7 PUSH1 0x7 SWAP9 SWAP7 LT PUSH2 0x36CA JUMPI JUMPDEST POP POP POP DUP2 SHL ADD SWAP1 SSTORE PUSH2 0x3459 JUMP JUMPDEST ADD MLOAD PUSH1 0x0 NOT PUSH1 0xF8 DUP5 PUSH1 0x3 SHL AND SHR NOT AND SWAP1 SSTORE CODESIZE DUP1 DUP1 PUSH2 0x36BD JUMP JUMPDEST SWAP3 SWAP4 PUSH1 0x20 PUSH1 0x1 DUP2 SWAP3 DUP8 DUP7 ADD MLOAD DUP2 SSTORE ADD SWAP6 ADD SWAP4 ADD PUSH2 0x36A0 JUMP JUMPDEST PUSH2 0x3727 SWAP1 DUP5 PUSH1 0x0 MSTORE PUSH1 0x20 PUSH1 0x0 KECCAK256 PUSH1 0x1F DUP6 ADD PUSH1 0x5 SHR DUP2 ADD SWAP2 PUSH1 0x20 DUP7 LT PUSH2 0x952 JUMPI PUSH1 0x1F ADD PUSH1 0x5 SHR ADD SWAP1 PUSH2 0x329F JUMP JUMPDEST CODESIZE PUSH2 0x341D JUMP JUMPDEST SWAP1 PUSH1 0x1F NOT DUP4 AND SWAP2 DUP5 PUSH1 0x0 MSTORE DUP2 PUSH1 0x0 KECCAK256 SWAP3 PUSH1 0x0 JUMPDEST DUP2 DUP2 LT PUSH2 0x377C JUMPI POP SWAP1 DUP5 PUSH1 0x1 SWAP6 SWAP5 SWAP4 SWAP3 LT PUSH2 0x3763 JUMPI JUMPDEST POP POP POP DUP2 SHL ADD SWAP1 SSTORE PUSH2 0x33D7 JUMP JUMPDEST ADD MLOAD PUSH1 0x0 NOT PUSH1 0xF8 DUP5 PUSH1 0x3 SHL AND SHR NOT AND SWAP1 SSTORE CODESIZE DUP1 DUP1 PUSH2 0x3756 JUMP JUMPDEST SWAP3 SWAP4 PUSH1 0x20 PUSH1 0x1 DUP2 SWAP3 DUP8 DUP7 ADD MLOAD DUP2 SSTORE ADD SWAP6 ADD SWAP4 ADD PUSH2 0x3740 JUMP JUMPDEST PUSH2 0x37C0 SWAP1 DUP5 PUSH1 0x0 MSTORE PUSH1 0x20 PUSH1 0x0 KECCAK256 PUSH1 0x1F DUP6 ADD PUSH1 0x5 SHR DUP2 ADD SWAP2 PUSH1 0x20 DUP7 LT PUSH2 0x952 JUMPI PUSH1 0x1F ADD PUSH1 0x5 SHR ADD SWAP1 PUSH2 0x329F JUMP JUMPDEST CODESIZE PUSH2 0x33A3 JUMP JUMPDEST SWAP1 PUSH1 0x1F NOT DUP4 AND SWAP2 DUP5 PUSH1 0x0 MSTORE DUP2 PUSH1 0x0 KECCAK256 SWAP3 PUSH1 0x0 JUMPDEST DUP2 DUP2 LT PUSH2 0x3815 JUMPI POP SWAP1 DUP5 PUSH1 0x1 SWAP6 SWAP5 SWAP4 SWAP3 LT PUSH2 0x37FC JUMPI JUMPDEST POP POP POP DUP2 SHL ADD SWAP1 SSTORE PUSH2 0x3376 JUMP JUMPDEST ADD MLOAD PUSH1 0x0 NOT PUSH1 0xF8 DUP5 PUSH1 0x3 SHL AND SHR NOT AND SWAP1 SSTORE CODESIZE DUP1 DUP1 PUSH2 0x37EF JUMP JUMPDEST SWAP3 SWAP4 PUSH1 0x20 PUSH1 0x1 DUP2 SWAP3 DUP8 DUP7 ADD MLOAD DUP2 SSTORE ADD SWAP6 ADD SWAP4 ADD PUSH2 0x37D9 JUMP JUMPDEST PUSH2 0x3859 SWAP1 DUP5 PUSH1 0x0 MSTORE PUSH1 0x20 PUSH1 0x0 KECCAK256 PUSH1 0x1F DUP6 ADD PUSH1 0x5 SHR DUP2 ADD SWAP2 PUSH1 0x20 DUP7 LT PUSH2 0x952 JUMPI PUSH1 0x1F ADD PUSH1 0x5 SHR ADD SWAP1 PUSH2 0x329F JUMP JUMPDEST CODESIZE PUSH2 0x3342 JUMP JUMPDEST PUSH1 0x1F NOT DUP3 AND SWAP6 DUP4 PUSH1 0x0 MSTORE DUP1 PUSH1 0x0 KECCAK256 SWAP2 PUSH1 0x0 JUMPDEST DUP9 DUP2 LT PUSH2 0x38AC JUMPI POP DUP4 PUSH1 0x1 SWAP6 SWAP7 SWAP8 SWAP9 LT PUSH2 0x3893 JUMPI JUMPDEST POP POP POP DUP2 SHL ADD DUP2 SSTORE PUSH2 0x3315 JUMP JUMPDEST ADD MLOAD PUSH1 0x0 NOT PUSH1 0xF8 DUP5 PUSH1 0x3 SHL AND SHR NOT AND SWAP1 SSTORE CODESIZE DUP1 DUP1 PUSH2 0x3886 JUMP JUMPDEST SWAP2 SWAP3 PUSH1 0x20 PUSH1 0x1 DUP2 SWAP3 DUP7 DUP6 ADD MLOAD DUP2 SSTORE ADD SWAP5 ADD SWAP3 ADD PUSH2 0x3871 JUMP JUMPDEST PUSH2 0x38F0 SWAP1 DUP4 PUSH1 0x0 MSTORE PUSH1 0x20 PUSH1 0x0 KECCAK256 PUSH1 0x1F DUP5 ADD PUSH1 0x5 SHR DUP2 ADD SWAP2 PUSH1 0x20 DUP6 LT PUSH2 0x952 JUMPI PUSH1 0x1F ADD PUSH1 0x5 SHR ADD SWAP1 PUSH2 0x329F JUMP JUMPDEST CODESIZE PUSH2 0x32DE JUMP JUMPDEST SWAP2 SWAP4 SWAP6 SWAP3 PUSH1 0xFF SWAP1 SWAP6 SWAP2 SWAP6 AND SWAP6 PUSH1 0x32 DUP8 LT PUSH2 0x3AAE JUMPI PUSH1 0x2 SLOAD PUSH1 0x60 SWAP4 PUSH1 0x0 JUMPDEST DUP3 DUP2 LT PUSH2 0x3A44 JUMPI JUMPDEST POP POP POP PUSH1 0x40 MLOAD SWAP3 PUSH2 0x120 DUP5 ADD DUP5 DUP2 LT PUSH1 0x1 PUSH1 0x1 PUSH1 0x40 SHL SUB DUP3 GT OR PUSH2 0x95C JUMPI PUSH1 0x40 MSTORE DUP7 DUP5 MSTORE DUP6 PUSH1 0x20 DUP6 ADD MSTORE PUSH1 0x40 DUP5 ADD MSTORE DUP7 PUSH1 0x60 DUP5 ADD MSTORE DUP2 PUSH1 0x80 DUP5 ADD MSTORE PUSH1 0x1 DUP1 PUSH1 0xA0 SHL SUB AND SWAP3 DUP4 PUSH1 0xA0 DUP5 ADD MSTORE PUSH1 0x0 PUSH1 0xC0 DUP5 ADD MSTORE TIMESTAMP PUSH1 0xE0 DUP5 ADD MSTORE PUSH2 0x100 DUP4 ADD MSTORE PUSH2 0x39A2 DUP3 PUSH1 0x40 MLOAD PUSH1 0x20 DUP2 DUP2 PUSH2 0x3993 DUP12 DUP4 DUP2 MLOAD SWAP4 DUP5 SWAP3 ADD PUSH2 0x2CC3 JUMP JUMPDEST DUP2 ADD PUSH1 0xD DUP2 MSTORE SUB ADD SWAP1 KECCAK256 PUSH2 0x32B6 JUMP JUMPDEST PUSH1 0x4 SLOAD PUSH1 0x1 PUSH1 0x40 SHL DUP2 LT ISZERO PUSH2 0x95C JUMPI DUP1 PUSH1 0x1 PUSH2 0x39C1 SWAP3 ADD PUSH1 0x4 SSTORE PUSH2 0x2B58 JUMP JUMPDEST SWAP3 SWAP1 SWAP3 PUSH2 0xA1A JUMPI PUSH32 0x95B629C00CAAA10E5C594B3F10670964FDFEFF8DE039E6E3AE5ACC2AED2A3FDB SWAP7 PUSH2 0x3A12 SWAP7 PUSH2 0x39FE PUSH2 0x3A25 SWAP4 PUSH2 0x3A33 SWAP7 PUSH2 0x32B6 JUMP JUMPDEST PUSH1 0x40 MLOAD SWAP8 DUP9 SWAP8 PUSH1 0xC0 DUP10 MSTORE PUSH1 0xC0 DUP10 ADD SWAP1 PUSH2 0x2CE6 JUMP JUMPDEST SWAP2 PUSH1 0x20 DUP9 ADD MSTORE DUP7 DUP3 SUB PUSH1 0x40 DUP9 ADD MSTORE PUSH2 0x2CE6 JUMP JUMPDEST SWAP1 DUP5 DUP3 SUB PUSH1 0x60 DUP7 ADD MSTORE PUSH2 0x2CE6 JUMP JUMPDEST SWAP1 PUSH1 0x80 DUP4 ADD MSTORE TIMESTAMP PUSH1 0xA0 DUP4 ADD MSTORE SUB SWAP1 LOG1 JUMP JUMPDEST PUSH2 0x3A4D DUP2 PUSH2 0x305E JUMP JUMPDEST POP PUSH1 0x40 MLOAD PUSH2 0x3A63 DUP2 PUSH2 0xE76 PUSH1 0x20 DUP3 ADD DUP1 SWAP6 PUSH2 0x3110 JUMP JUMPDEST MLOAD SWAP1 KECCAK256 PUSH1 0x40 MLOAD PUSH1 0x20 DUP2 ADD SWAP1 PUSH2 0x3A83 PUSH1 0x20 DUP3 DUP8 MLOAD PUSH2 0xEA2 DUP2 DUP8 DUP6 DUP13 ADD PUSH2 0x2CC3 JUMP JUMPDEST MLOAD SWAP1 KECCAK256 EQ PUSH2 0x3A93 JUMPI PUSH1 0x1 ADD PUSH2 0x3913 JUMP JUMPDEST SWAP1 POP PUSH2 0x3AA5 SWAP3 SWAP5 POP PUSH2 0x2F6 SWAP2 POP PUSH2 0x305E JUMP JUMPDEST SWAP2 CODESIZE DUP1 DUP1 PUSH2 0x391B JUMP JUMPDEST PUSH1 0x40 MLOAD PUSH3 0x461BCD PUSH1 0xE5 SHL DUP2 MSTORE PUSH1 0x20 PUSH1 0x4 DUP3 ADD MSTORE PUSH1 0x19 PUSH1 0x24 DUP3 ADD MSTORE PUSH32 0x4D696E696D756D206F72646572206973203530206F6261742E00000000000000 PUSH1 0x44 DUP3 ADD MSTORE PUSH1 0x64 SWAP1 REVERT JUMPDEST SWAP1 PUSH1 0x3 SLOAD PUSH1 0x1 PUSH1 0x40 SHL DUP2 LT ISZERO PUSH2 0x95C JUMPI DUP1 PUSH1 0x1 PUSH2 0x3B15 SWAP3 ADD PUSH1 0x3 SSTORE PUSH1 0x3 PUSH2 0x309C JUMP JUMPDEST SWAP3 SWAP1 SWAP3 PUSH2 0xA1A JUMPI DUP1 MLOAD SWAP3 DUP4 MLOAD PUSH1 0x1 PUSH1 0x1 PUSH1 0x40 SHL SUB DUP2 GT PUSH2 0x95C JUMPI PUSH2 0x3B39 DUP3 SLOAD PUSH2 0x2B8D JUMP JUMPDEST PUSH1 0x1F DUP2 GT PUSH2 0x3FC1 JUMPI JUMPDEST POP PUSH1 0x20 SWAP5 PUSH1 0x1F DUP3 GT PUSH1 0x1 EQ PUSH2 0x3F5C JUMPI PUSH2 0x3B76 SWAP3 SWAP4 SWAP5 SWAP6 DUP3 SWAP2 PUSH1 0x0 SWAP3 PUSH2 0x3565 JUMPI POP POP DUP2 PUSH1 0x1 SHL SWAP2 PUSH1 0x0 NOT SWAP1 PUSH1 0x3 SHL SHR NOT AND OR SWAP1 JUMP JUMPDEST DUP2 SSTORE JUMPDEST PUSH1 0x1 DUP2 ADD PUSH1 0x20 DUP4 ADD MLOAD DUP1 MLOAD SWAP1 PUSH1 0x1 PUSH1 0x1 PUSH1 0x40 SHL SUB DUP3 GT PUSH2 0x95C JUMPI PUSH2 0x3B9D DUP4 SLOAD PUSH2 0x2B8D JUMP JUMPDEST PUSH1 0x1F DUP2 GT PUSH2 0x3F2A JUMPI JUMPDEST POP PUSH1 0x20 SWAP1 PUSH1 0x1F DUP4 GT PUSH1 0x1 EQ PUSH2 0x3EC3 JUMPI PUSH2 0x3BD7 SWAP3 SWAP2 PUSH1 0x0 SWAP2 DUP4 PUSH2 0x3565 JUMPI POP POP DUP2 PUSH1 0x1 SHL SWAP2 PUSH1 0x0 NOT SWAP1 PUSH1 0x3 SHL SHR NOT AND OR SWAP1 JUMP JUMPDEST SWAP1 SSTORE JUMPDEST PUSH1 0xFF PUSH1 0x40 DUP4 ADD MLOAD AND PUSH1 0xFF PUSH1 0x2 DUP4 ADD SWAP2 AND PUSH1 0xFF NOT DUP3 SLOAD AND OR SWAP1 SSTORE PUSH1 0x3 DUP2 ADD PUSH1 0x60 DUP4 ADD MLOAD DUP1 MLOAD SWAP1 PUSH1 0x1 PUSH1 0x1 PUSH1 0x40 SHL SUB DUP3 GT PUSH2 0x95C JUMPI PUSH2 0x3C17 DUP4 SLOAD PUSH2 0x2B8D JUMP JUMPDEST PUSH1 0x1F DUP2 GT PUSH2 0x3E91 JUMPI JUMPDEST POP PUSH1 0x20 SWAP1 PUSH1 0x1F DUP4 GT PUSH1 0x1 EQ PUSH2 0x3E24 JUMPI DUP3 PUSH1 0x80 SWAP6 SWAP4 PUSH1 0x4 SWAP6 SWAP4 PUSH2 0x3C58 SWAP4 PUSH1 0x0 SWAP3 PUSH2 0x3565 JUMPI POP POP DUP2 PUSH1 0x1 SHL SWAP2 PUSH1 0x0 NOT SWAP1 PUSH1 0x3 SHL SHR NOT AND OR SWAP1 JUMP JUMPDEST SWAP1 SSTORE JUMPDEST ADD SWAP2 ADD MLOAD DUP1 MLOAD SWAP1 PUSH1 0x1 PUSH1 0x40 SHL DUP3 GT PUSH2 0x95C JUMPI DUP3 SLOAD DUP3 DUP5 SSTORE DUP1 DUP4 LT PUSH2 0x3DA6 JUMPI JUMPDEST POP PUSH1 0x20 ADD SWAP2 PUSH1 0x0 MSTORE PUSH1 0x20 PUSH1 0x0 KECCAK256 SWAP2 PUSH1 0x0 SWAP1 JUMPDEST DUP3 DUP3 LT PUSH2 0x3C99 JUMPI POP POP POP POP JUMP JUMPDEST DUP1 MLOAD DUP1 MLOAD SWAP1 PUSH1 0x1 PUSH1 0x1 PUSH1 0x40 SHL SUB DUP3 GT PUSH2 0x95C JUMPI PUSH2 0x3CB6 DUP7 SLOAD PUSH2 0x2B8D JUMP JUMPDEST PUSH1 0x1F DUP2 GT PUSH2 0x3D74 JUMPI JUMPDEST POP PUSH1 0x20 SWAP1 PUSH1 0x1F DUP4 GT PUSH1 0x1 EQ PUSH2 0x3D07 JUMPI SWAP3 PUSH2 0x3CF8 DUP4 PUSH1 0x1 SWAP6 SWAP5 PUSH1 0x20 SWAP5 DUP8 SWAP7 PUSH1 0x0 SWAP3 PUSH2 0x3565 JUMPI POP POP DUP2 PUSH1 0x1 SHL SWAP2 PUSH1 0x0 NOT SWAP1 PUSH1 0x3 SHL SHR NOT AND OR SWAP1 JUMP JUMPDEST DUP8 SSTORE JUMPDEST ADD SWAP5 ADD SWAP2 ADD SWAP1 SWAP3 PUSH2 0x3C8C JUMP JUMPDEST SWAP1 PUSH1 0x1F NOT DUP4 AND SWAP2 DUP8 PUSH1 0x0 MSTORE DUP2 PUSH1 0x0 KECCAK256 SWAP3 PUSH1 0x0 JUMPDEST DUP2 DUP2 LT PUSH2 0x3D5C JUMPI POP SWAP4 PUSH1 0x20 SWAP4 PUSH1 0x1 SWAP7 SWAP4 DUP8 SWAP7 SWAP4 DUP4 DUP9 SWAP6 LT PUSH2 0x3D43 JUMPI JUMPDEST POP POP POP DUP2 SHL ADD DUP8 SSTORE PUSH2 0x3CFB JUMP JUMPDEST ADD MLOAD PUSH1 0x0 NOT PUSH1 0xF8 DUP5 PUSH1 0x3 SHL AND SHR NOT AND SWAP1 SSTORE CODESIZE DUP1 DUP1 PUSH2 0x3D36 JUMP JUMPDEST SWAP3 SWAP4 PUSH1 0x20 PUSH1 0x1 DUP2 SWAP3 DUP8 DUP7 ADD MLOAD DUP2 SSTORE ADD SWAP6 ADD SWAP4 ADD PUSH2 0x3D1A JUMP JUMPDEST PUSH2 0x3DA0 SWAP1 DUP8 PUSH1 0x0 MSTORE PUSH1 0x20 PUSH1 0x0 KECCAK256 PUSH1 0x1F DUP6 ADD PUSH1 0x5 SHR DUP2 ADD SWAP2 PUSH1 0x20 DUP7 LT PUSH2 0x952 JUMPI PUSH1 0x1F ADD PUSH1 0x5 SHR ADD SWAP1 PUSH2 0x329F JUMP JUMPDEST CODESIZE PUSH2 0x3CBF JUMP JUMPDEST DUP4 PUSH1 0x0 MSTORE DUP3 PUSH1 0x20 PUSH1 0x0 KECCAK256 SWAP2 DUP3 ADD SWAP2 ADD JUMPDEST DUP2 DUP2 LT PUSH2 0x3DC3 JUMPI POP PUSH2 0x3C7A JUMP JUMPDEST DUP1 PUSH2 0x3DD0 PUSH1 0x1 SWAP3 SLOAD PUSH2 0x2B8D JUMP JUMPDEST DUP1 PUSH2 0x3DDD JUMPI JUMPDEST POP ADD PUSH2 0x3DB6 JUMP JUMPDEST PUSH1 0x1F DUP2 GT DUP4 EQ PUSH2 0x3DF3 JUMPI POP PUSH1 0x0 DUP2 SSTORE JUMPDEST CODESIZE PUSH2 0x3DD6 JUMP JUMPDEST PUSH2 0x3E11 SWAP1 DUP3 PUSH1 0x0 MSTORE DUP4 PUSH1 0x1F PUSH1 0x20 PUSH1 0x0 KECCAK256 SWAP3 ADD PUSH1 0x5 SHR DUP3 ADD SWAP2 ADD PUSH2 0x329F JUMP JUMPDEST DUP1 PUSH1 0x0 MSTORE PUSH1 0x0 PUSH1 0x20 DUP2 KECCAK256 DUP2 DUP4 SSTORE SSTORE PUSH2 0x3DED JUMP JUMPDEST SWAP1 PUSH1 0x1F NOT DUP4 AND SWAP2 DUP5 PUSH1 0x0 MSTORE DUP2 PUSH1 0x0 KECCAK256 SWAP3 PUSH1 0x0 JUMPDEST DUP2 DUP2 LT PUSH2 0x3E79 JUMPI POP SWAP3 PUSH1 0x1 SWAP3 DUP6 SWAP3 PUSH1 0x80 SWAP9 SWAP7 PUSH1 0x4 SWAP9 SWAP7 LT PUSH2 0x3E60 JUMPI JUMPDEST POP POP POP DUP2 SHL ADD SWAP1 SSTORE PUSH2 0x3C5B JUMP JUMPDEST ADD MLOAD PUSH1 0x0 NOT PUSH1 0xF8 DUP5 PUSH1 0x3 SHL AND SHR NOT AND SWAP1 SSTORE CODESIZE DUP1 DUP1 PUSH2 0x3E53 JUMP JUMPDEST SWAP3 SWAP4 PUSH1 0x20 PUSH1 0x1 DUP2 SWAP3 DUP8 DUP7 ADD MLOAD DUP2 SSTORE ADD SWAP6 ADD SWAP4 ADD PUSH2 0x3E37 JUMP JUMPDEST PUSH2 0x3EBD SWAP1 DUP5 PUSH1 0x0 MSTORE PUSH1 0x20 PUSH1 0x0 KECCAK256 PUSH1 0x1F DUP6 ADD PUSH1 0x5 SHR DUP2 ADD SWAP2 PUSH1 0x20 DUP7 LT PUSH2 0x952 JUMPI PUSH1 0x1F ADD PUSH1 0x5 SHR ADD SWAP1 PUSH2 0x329F JUMP JUMPDEST CODESIZE PUSH2 0x3C20 JUMP JUMPDEST SWAP1 PUSH1 0x1F NOT DUP4 AND SWAP2 DUP5 PUSH1 0x0 MSTORE DUP2 PUSH1 0x0 KECCAK256 SWAP3 PUSH1 0x0 JUMPDEST DUP2 DUP2 LT PUSH2 0x3F12 JUMPI POP SWAP1 DUP5 PUSH1 0x1 SWAP6 SWAP5 SWAP4 SWAP3 LT PUSH2 0x3EF9 JUMPI JUMPDEST POP POP POP DUP2 SHL ADD SWAP1 SSTORE PUSH2 0x3BDA JUMP JUMPDEST ADD MLOAD PUSH1 0x0 NOT PUSH1 0xF8 DUP5 PUSH1 0x3 SHL AND SHR NOT AND SWAP1 SSTORE CODESIZE DUP1 DUP1 PUSH2 0x3EEC JUMP JUMPDEST SWAP3 SWAP4 PUSH1 0x20 PUSH1 0x1 DUP2 SWAP3 DUP8 DUP7 ADD MLOAD DUP2 SSTORE ADD SWAP6 ADD SWAP4 ADD PUSH2 0x3ED6 JUMP JUMPDEST PUSH2 0x3F56 SWAP1 DUP5 PUSH1 0x0 MSTORE PUSH1 0x20 PUSH1 0x0 KECCAK256 PUSH1 0x1F DUP6 ADD PUSH1 0x5 SHR DUP2 ADD SWAP2 PUSH1 0x20 DUP7 LT PUSH2 0x952 JUMPI PUSH1 0x1F ADD PUSH1 0x5 SHR ADD SWAP1 PUSH2 0x329F JUMP JUMPDEST CODESIZE PUSH2 0x3BA6 JUMP JUMPDEST PUSH1 0x1F NOT DUP3 AND SWAP6 DUP4 PUSH1 0x0 MSTORE DUP1 PUSH1 0x0 KECCAK256 SWAP2 PUSH1 0x0 JUMPDEST DUP9 DUP2 LT PUSH2 0x3FA9 JUMPI POP DUP4 PUSH1 0x1 SWAP6 SWAP7 SWAP8 SWAP9 LT PUSH2 0x3F90 JUMPI JUMPDEST POP POP POP DUP2 SHL ADD DUP2 SSTORE PUSH2 0x3B79 JUMP JUMPDEST ADD MLOAD PUSH1 0x0 NOT PUSH1 0xF8 DUP5 PUSH1 0x3 SHL AND SHR NOT AND SWAP1 SSTORE CODESIZE DUP1 DUP1 PUSH2 0x3F83 JUMP JUMPDEST SWAP2 SWAP3 PUSH1 0x20 PUSH1 0x1 DUP2 SWAP3 DUP7 DUP6 ADD MLOAD DUP2 SSTORE ADD SWAP5 ADD SWAP3 ADD PUSH2 0x3F6E JUMP JUMPDEST PUSH2 0x3FED SWAP1 DUP4 PUSH1 0x0 MSTORE PUSH1 0x20 PUSH1 0x0 KECCAK256 PUSH1 0x1F DUP5 ADD PUSH1 0x5 SHR DUP2 ADD SWAP2 PUSH1 0x20 DUP6 LT PUSH2 0x952 JUMPI PUSH1 0x1F ADD PUSH1 0x5 SHR ADD SWAP1 PUSH2 0x329F JUMP JUMPDEST CODESIZE PUSH2 0x3B42 JUMP JUMPDEST PUSH1 0x0 SWAP3 SWAP2 DUP2 SLOAD SWAP2 PUSH2 0x4003 DUP4 PUSH2 0x2B8D JUMP JUMPDEST DUP1 DUP4 MSTORE SWAP3 PUSH1 0x1 DUP2 AND SWAP1 DUP2 ISZERO PUSH2 0x4059 JUMPI POP PUSH1 0x1 EQ PUSH2 0x401F JUMPI POP POP POP JUMP JUMPDEST PUSH1 0x0 SWAP1 DUP2 MSTORE PUSH1 0x20 DUP2 KECCAK256 SWAP4 SWAP5 POP SWAP2 SWAP3 JUMPDEST DUP4 DUP4 LT PUSH2 0x403F JUMPI POP PUSH1 0x20 SWAP3 POP ADD ADD SWAP1 JUMP JUMPDEST PUSH1 0x1 DUP2 PUSH1 0x20 SWAP3 SWAP5 SWAP4 SWAP5 SLOAD DUP4 DUP6 DUP8 ADD ADD MSTORE ADD SWAP2 ADD SWAP2 SWAP1 PUSH2 0x402E JUMP JUMPDEST SWAP2 POP POP PUSH1 0x20 SWAP4 SWAP5 POP PUSH1 0xFF SWAP3 SWAP2 SWAP3 NOT AND DUP4 DUP4 ADD MSTORE ISZERO ISZERO PUSH1 0x5 SHL ADD ADD SWAP1 JUMP JUMPDEST ISZERO PUSH2 0x407D JUMPI JUMP JUMPDEST PUSH1 0x64 PUSH1 0x40 MLOAD PUSH3 0x461BCD PUSH1 0xE5 SHL DUP2 MSTORE PUSH1 0x20 PUSH1 0x4 DUP3 ADD MSTORE PUSH1 0x20 PUSH1 0x24 DUP3 ADD MSTORE PUSH32 0x416363657373207265737472696374656420746F2050616272696B20726F6C65 PUSH1 0x44 DUP3 ADD MSTORE REVERT JUMPDEST SWAP1 SWAP2 DUP3 MLOAD SWAP3 DUP4 MLOAD PUSH1 0x1 PUSH1 0x1 PUSH1 0x40 SHL SUB DUP2 GT PUSH2 0x95C JUMPI PUSH2 0x40E0 DUP5 SLOAD PUSH2 0x2B8D JUMP JUMPDEST PUSH1 0x1F DUP2 GT PUSH2 0x495F JUMPI JUMPDEST POP PUSH1 0x20 SWAP5 PUSH1 0x1F DUP3 GT PUSH1 0x1 EQ PUSH2 0x48FA JUMPI PUSH2 0x411D SWAP3 SWAP4 SWAP5 SWAP6 DUP3 SWAP2 PUSH1 0x0 SWAP3 PUSH2 0x3565 JUMPI POP POP DUP2 PUSH1 0x1 SHL SWAP2 PUSH1 0x0 NOT SWAP1 PUSH1 0x3 SHL SHR NOT AND OR SWAP1 JUMP JUMPDEST DUP4 SSTORE JUMPDEST PUSH1 0x1 DUP4 ADD PUSH1 0x20 DUP3 ADD MLOAD DUP1 MLOAD SWAP1 PUSH1 0x1 PUSH1 0x1 PUSH1 0x40 SHL SUB DUP3 GT PUSH2 0x95C JUMPI PUSH2 0x4144 DUP4 SLOAD PUSH2 0x2B8D JUMP JUMPDEST PUSH1 0x1F DUP2 GT PUSH2 0x48C8 JUMPI JUMPDEST POP PUSH1 0x20 SWAP1 PUSH1 0x1F DUP4 GT PUSH1 0x1 EQ PUSH2 0x4861 JUMPI PUSH2 0x417E SWAP3 SWAP2 PUSH1 0x0 SWAP2 DUP4 PUSH2 0x3565 JUMPI POP POP DUP2 PUSH1 0x1 SHL SWAP2 PUSH1 0x0 NOT SWAP1 PUSH1 0x3 SHL SHR NOT AND OR SWAP1 JUMP JUMPDEST SWAP1 SSTORE JUMPDEST PUSH1 0x2 DUP4 ADD PUSH1 0x40 DUP3 ADD MLOAD DUP1 MLOAD SWAP1 PUSH1 0x1 PUSH1 0x1 PUSH1 0x40 SHL SUB DUP3 GT PUSH2 0x95C JUMPI PUSH2 0x41A5 DUP4 SLOAD PUSH2 0x2B8D JUMP JUMPDEST PUSH1 0x1F DUP2 GT PUSH2 0x482F JUMPI JUMPDEST POP PUSH1 0x20 SWAP1 PUSH1 0x1F DUP4 GT PUSH1 0x1 EQ PUSH2 0x47C8 JUMPI PUSH2 0x41DF SWAP3 SWAP2 PUSH1 0x0 SWAP2 DUP4 PUSH2 0x3565 JUMPI POP POP DUP2 PUSH1 0x1 SHL SWAP2 PUSH1 0x0 NOT SWAP1 PUSH1 0x3 SHL SHR NOT AND OR SWAP1 JUMP JUMPDEST SWAP1 SSTORE JUMPDEST PUSH1 0x3 DUP4 ADD PUSH1 0x60 DUP3 ADD MLOAD DUP1 MLOAD SWAP1 PUSH1 0x1 PUSH1 0x40 SHL DUP3 GT PUSH2 0x95C JUMPI DUP3 SLOAD DUP3 DUP5 SSTORE DUP1 DUP4 LT PUSH2 0x474A JUMPI JUMPDEST POP PUSH1 0x20 ADD SWAP2 PUSH1 0x0 MSTORE PUSH1 0x20 PUSH1 0x0 KECCAK256 SWAP2 PUSH1 0x0 SWAP1 JUMPDEST DUP3 DUP3 LT PUSH2 0x463D JUMPI POP POP POP POP PUSH1 0x4 DUP4 ADD PUSH1 0x80 DUP3 ADD MLOAD DUP1 MLOAD SWAP1 PUSH1 0x1 PUSH1 0x1 PUSH1 0x40 SHL SUB DUP3 GT PUSH2 0x95C JUMPI PUSH2 0x4247 DUP4 SLOAD PUSH2 0x2B8D JUMP JUMPDEST PUSH1 0x1F DUP2 GT PUSH2 0x460B JUMPI JUMPDEST POP PUSH1 0x20 SWAP1 PUSH1 0x1F DUP4 GT PUSH1 0x1 EQ PUSH2 0x45A4 JUMPI PUSH2 0x4281 SWAP3 SWAP2 PUSH1 0x0 SWAP2 DUP4 PUSH2 0x3565 JUMPI POP POP DUP2 PUSH1 0x1 SHL SWAP2 PUSH1 0x0 NOT SWAP1 PUSH1 0x3 SHL SHR NOT AND OR SWAP1 JUMP JUMPDEST SWAP1 SSTORE JUMPDEST PUSH1 0x5 DUP4 ADD PUSH1 0xA0 DUP3 ADD MLOAD DUP1 MLOAD SWAP1 PUSH1 0x1 PUSH1 0x40 SHL DUP3 GT PUSH2 0x95C JUMPI DUP3 SLOAD DUP3 DUP5 SSTORE DUP1 DUP4 LT PUSH2 0x4526 JUMPI JUMPDEST POP PUSH1 0x20 ADD SWAP2 PUSH1 0x0 MSTORE PUSH1 0x20 PUSH1 0x0 KECCAK256 SWAP2 PUSH1 0x0 SWAP1 JUMPDEST DUP3 DUP3 LT PUSH2 0x4419 JUMPI POP POP POP POP PUSH1 0xC0 DUP2 ADD MLOAD SWAP3 PUSH1 0x6 DUP2 ADD PUSH1 0x2 DUP6 LT ISZERO PUSH2 0x2137 JUMPI PUSH2 0x140 SWAP2 PUSH1 0x9 SWAP2 PUSH1 0x0 SWAP7 PUSH1 0xFF DUP1 NOT DUP4 SLOAD AND SWAP2 AND OR DUP2 SSTORE PUSH1 0xE0 DUP6 ADD MLOAD PUSH2 0x42FC DUP2 PUSH2 0x2D0B JUMP JUMPDEST PUSH2 0x4305 DUP2 PUSH2 0x2D0B JUMP JUMPDEST PUSH2 0xFF00 DUP3 SLOAD SWAP2 PUSH1 0x8 SHL AND SWAP1 PUSH2 0xFF00 NOT AND OR SWAP1 SSTORE PUSH2 0x100 DUP5 ADD MLOAD PUSH1 0x7 DUP3 ADD SSTORE PUSH2 0x120 DUP5 ADD MLOAD PUSH1 0x8 DUP3 ADD SSTORE ADD SWAP2 ADD MLOAD SWAP3 DUP4 MLOAD SWAP1 PUSH1 0x1 PUSH1 0x1 PUSH1 0x40 SHL SUB DUP3 GT PUSH2 0x31D7 JUMPI PUSH2 0x434E DUP4 SLOAD PUSH2 0x2B8D JUMP JUMPDEST PUSH1 0x1F DUP2 GT PUSH2 0x43E9 JUMPI JUMPDEST POP PUSH1 0x20 SWAP1 PUSH1 0x1F DUP4 GT PUSH1 0x1 EQ PUSH2 0x438B JUMPI SWAP1 PUSH2 0x4387 SWAP4 SWAP5 SWAP6 DUP4 PUSH2 0x3565 JUMPI POP POP DUP2 PUSH1 0x1 SHL SWAP2 PUSH1 0x0 NOT SWAP1 PUSH1 0x3 SHL SHR NOT AND OR SWAP1 JUMP JUMPDEST SWAP1 SSTORE JUMP JUMPDEST SWAP1 PUSH1 0x1F NOT DUP4 AND DUP5 DUP4 MSTORE DUP2 DUP4 KECCAK256 SWAP3 JUMPDEST DUP2 DUP2 LT PUSH2 0x43D1 JUMPI POP SWAP6 DUP4 PUSH1 0x1 SWAP6 SWAP7 SWAP8 LT PUSH2 0x43B8 JUMPI JUMPDEST POP POP POP DUP2 SHL ADD SWAP1 SSTORE JUMP JUMPDEST ADD MLOAD PUSH1 0x0 NOT PUSH1 0xF8 DUP5 PUSH1 0x3 SHL AND SHR NOT AND SWAP1 SSTORE CODESIZE DUP1 DUP1 PUSH2 0x43AE JUMP JUMPDEST SWAP2 SWAP3 PUSH1 0x20 PUSH1 0x1 DUP2 SWAP3 DUP7 DUP12 ADD MLOAD DUP2 SSTORE ADD SWAP5 ADD SWAP3 ADD PUSH2 0x4399 JUMP JUMPDEST PUSH2 0x4413 SWAP1 DUP5 DUP4 MSTORE PUSH1 0x20 DUP4 KECCAK256 PUSH1 0x1F DUP6 ADD PUSH1 0x5 SHR DUP2 ADD SWAP2 PUSH1 0x20 DUP7 LT PUSH2 0x952 JUMPI PUSH1 0x1F ADD PUSH1 0x5 SHR ADD SWAP1 PUSH2 0x329F JUMP JUMPDEST CODESIZE PUSH2 0x4357 JUMP JUMPDEST DUP1 MLOAD DUP1 MLOAD SWAP1 PUSH1 0x1 PUSH1 0x1 PUSH1 0x40 SHL SUB DUP3 GT PUSH2 0x95C JUMPI PUSH2 0x4436 DUP7 SLOAD PUSH2 0x2B8D JUMP JUMPDEST PUSH1 0x1F DUP2 GT PUSH2 0x44F4 JUMPI JUMPDEST POP PUSH1 0x20 SWAP1 PUSH1 0x1F DUP4 GT PUSH1 0x1 EQ PUSH2 0x4487 JUMPI SWAP3 PUSH2 0x4478 DUP4 PUSH1 0x1 SWAP6 SWAP5 PUSH1 0x20 SWAP5 DUP8 SWAP7 PUSH1 0x0 SWAP3 PUSH2 0x3565 JUMPI POP POP DUP2 PUSH1 0x1 SHL SWAP2 PUSH1 0x0 NOT SWAP1 PUSH1 0x3 SHL SHR NOT AND OR SWAP1 JUMP JUMPDEST DUP8 SSTORE JUMPDEST ADD SWAP5 ADD SWAP2 ADD SWAP1 SWAP3 PUSH2 0x42BA JUMP JUMPDEST SWAP1 PUSH1 0x1F NOT DUP4 AND SWAP2 DUP8 PUSH1 0x0 MSTORE DUP2 PUSH1 0x0 KECCAK256 SWAP3 PUSH1 0x0 JUMPDEST DUP2 DUP2 LT PUSH2 0x44DC JUMPI POP SWAP4 PUSH1 0x20 SWAP4 PUSH1 0x1 SWAP7 SWAP4 DUP8 SWAP7 SWAP4 DUP4 DUP9 SWAP6 LT PUSH2 0x44C3 JUMPI JUMPDEST POP POP POP DUP2 SHL ADD DUP8 SSTORE PUSH2 0x447B JUMP JUMPDEST ADD MLOAD PUSH1 0x0 NOT PUSH1 0xF8 DUP5 PUSH1 0x3 SHL AND SHR NOT AND SWAP1 SSTORE CODESIZE DUP1 DUP1 PUSH2 0x44B6 JUMP JUMPDEST SWAP3 SWAP4 PUSH1 0x20 PUSH1 0x1 DUP2 SWAP3 DUP8 DUP7 ADD MLOAD DUP2 SSTORE ADD SWAP6 ADD SWAP4 ADD PUSH2 0x449A JUMP JUMPDEST PUSH2 0x4520 SWAP1 DUP8 PUSH1 0x0 MSTORE PUSH1 0x20 PUSH1 0x0 KECCAK256 PUSH1 0x1F DUP6 ADD PUSH1 0x5 SHR DUP2 ADD SWAP2 PUSH1 0x20 DUP7 LT PUSH2 0x952 JUMPI PUSH1 0x1F ADD PUSH1 0x5 SHR ADD SWAP1 PUSH2 0x329F JUMP JUMPDEST CODESIZE PUSH2 0x443F JUMP JUMPDEST DUP4 PUSH1 0x0 MSTORE DUP3 PUSH1 0x20 PUSH1 0x0 KECCAK256 SWAP2 DUP3 ADD SWAP2 ADD JUMPDEST DUP2 DUP2 LT PUSH2 0x4543 JUMPI POP PUSH2 0x42A8 JUMP JUMPDEST DUP1 PUSH2 0x4550 PUSH1 0x1 SWAP3 SLOAD PUSH2 0x2B8D JUMP JUMPDEST DUP1 PUSH2 0x455D JUMPI JUMPDEST POP ADD PUSH2 0x4536 JUMP JUMPDEST PUSH1 0x1F DUP2 GT DUP4 EQ PUSH2 0x4573 JUMPI POP PUSH1 0x0 DUP2 SSTORE JUMPDEST CODESIZE PUSH2 0x4556 JUMP JUMPDEST PUSH2 0x4591 SWAP1 DUP3 PUSH1 0x0 MSTORE DUP4 PUSH1 0x1F PUSH1 0x20 PUSH1 0x0 KECCAK256 SWAP3 ADD PUSH1 0x5 SHR DUP3 ADD SWAP2 ADD PUSH2 0x329F JUMP JUMPDEST DUP1 PUSH1 0x0 MSTORE PUSH1 0x0 PUSH1 0x20 DUP2 KECCAK256 DUP2 DUP4 SSTORE SSTORE PUSH2 0x456D JUMP JUMPDEST SWAP1 PUSH1 0x1F NOT DUP4 AND SWAP2 DUP5 PUSH1 0x0 MSTORE DUP2 PUSH1 0x0 KECCAK256 SWAP3 PUSH1 0x0 JUMPDEST DUP2 DUP2 LT PUSH2 0x45F3 JUMPI POP SWAP1 DUP5 PUSH1 0x1 SWAP6 SWAP5 SWAP4 SWAP3 LT PUSH2 0x45DA JUMPI JUMPDEST POP POP POP DUP2 SHL ADD SWAP1 SSTORE PUSH2 0x4284 JUMP JUMPDEST ADD MLOAD PUSH1 0x0 NOT PUSH1 0xF8 DUP5 PUSH1 0x3 SHL AND SHR NOT AND SWAP1 SSTORE CODESIZE DUP1 DUP1 PUSH2 0x45CD JUMP JUMPDEST SWAP3 SWAP4 PUSH1 0x20 PUSH1 0x1 DUP2 SWAP3 DUP8 DUP7 ADD MLOAD DUP2 SSTORE ADD SWAP6 ADD SWAP4 ADD PUSH2 0x45B7 JUMP JUMPDEST PUSH2 0x4637 SWAP1 DUP5 PUSH1 0x0 MSTORE PUSH1 0x20 PUSH1 0x0 KECCAK256 PUSH1 0x1F DUP6 ADD PUSH1 0x5 SHR DUP2 ADD SWAP2 PUSH1 0x20 DUP7 LT PUSH2 0x952 JUMPI PUSH1 0x1F ADD PUSH1 0x5 SHR ADD SWAP1 PUSH2 0x329F JUMP JUMPDEST CODESIZE PUSH2 0x4250 JUMP JUMPDEST DUP1 MLOAD DUP1 MLOAD SWAP1 PUSH1 0x1 PUSH1 0x1 PUSH1 0x40 SHL SUB DUP3 GT PUSH2 0x95C JUMPI PUSH2 0x465A DUP7 SLOAD PUSH2 0x2B8D JUMP JUMPDEST PUSH1 0x1F DUP2 GT PUSH2 0x4718 JUMPI JUMPDEST POP PUSH1 0x20 SWAP1 PUSH1 0x1F DUP4 GT PUSH1 0x1 EQ PUSH2 0x46AB JUMPI SWAP3 PUSH2 0x469C DUP4 PUSH1 0x1 SWAP6 SWAP5 PUSH1 0x20 SWAP5 DUP8 SWAP7 PUSH1 0x0 SWAP3 PUSH2 0x3565 JUMPI POP POP DUP2 PUSH1 0x1 SHL SWAP2 PUSH1 0x0 NOT SWAP1 PUSH1 0x3 SHL SHR NOT AND OR SWAP1 JUMP JUMPDEST DUP8 SSTORE JUMPDEST ADD SWAP5 ADD SWAP2 ADD SWAP1 SWAP3 PUSH2 0x4218 JUMP JUMPDEST SWAP1 PUSH1 0x1F NOT DUP4 AND SWAP2 DUP8 PUSH1 0x0 MSTORE DUP2 PUSH1 0x0 KECCAK256 SWAP3 PUSH1 0x0 JUMPDEST DUP2 DUP2 LT PUSH2 0x4700 JUMPI POP SWAP4 PUSH1 0x20 SWAP4 PUSH1 0x1 SWAP7 SWAP4 DUP8 SWAP7 SWAP4 DUP4 DUP9 SWAP6 LT PUSH2 0x46E7 JUMPI JUMPDEST POP POP POP DUP2 SHL ADD DUP8 SSTORE PUSH2 0x469F JUMP JUMPDEST ADD MLOAD PUSH1 0x0 NOT PUSH1 0xF8 DUP5 PUSH1 0x3 SHL AND SHR NOT AND SWAP1 SSTORE CODESIZE DUP1 DUP1 PUSH2 0x46DA JUMP JUMPDEST SWAP3 SWAP4 PUSH1 0x20 PUSH1 0x1 DUP2 SWAP3 DUP8 DUP7 ADD MLOAD DUP2 SSTORE ADD SWAP6 ADD SWAP4 ADD PUSH2 0x46BE JUMP JUMPDEST PUSH2 0x4744 SWAP1 DUP8 PUSH1 0x0 MSTORE PUSH1 0x20 PUSH1 0x0 KECCAK256 PUSH1 0x1F DUP6 ADD PUSH1 0x5 SHR DUP2 ADD SWAP2 PUSH1 0x20 DUP7 LT PUSH2 0x952 JUMPI PUSH1 0x1F ADD PUSH1 0x5 SHR ADD SWAP1 PUSH2 0x329F JUMP JUMPDEST CODESIZE PUSH2 0x4663 JUMP JUMPDEST DUP4 PUSH1 0x0 MSTORE DUP3 PUSH1 0x20 PUSH1 0x0 KECCAK256 SWAP2 DUP3 ADD SWAP2 ADD JUMPDEST DUP2 DUP2 LT PUSH2 0x4767 JUMPI POP PUSH2 0x4206 JUMP JUMPDEST DUP1 PUSH2 0x4774 PUSH1 0x1 SWAP3 SLOAD PUSH2 0x2B8D JUMP JUMPDEST DUP1 PUSH2 0x4781 JUMPI JUMPDEST POP ADD PUSH2 0x475A JUMP JUMPDEST PUSH1 0x1F DUP2 GT DUP4 EQ PUSH2 0x4797 JUMPI POP PUSH1 0x0 DUP2 SSTORE JUMPDEST CODESIZE PUSH2 0x477A JUMP JUMPDEST PUSH2 0x47B5 SWAP1 DUP3 PUSH1 0x0 MSTORE DUP4 PUSH1 0x1F PUSH1 0x20 PUSH1 0x0 KECCAK256 SWAP3 ADD PUSH1 0x5 SHR DUP3 ADD SWAP2 ADD PUSH2 0x329F JUMP JUMPDEST DUP1 PUSH1 0x0 MSTORE PUSH1 0x0 PUSH1 0x20 DUP2 KECCAK256 DUP2 DUP4 SSTORE SSTORE PUSH2 0x4791 JUMP JUMPDEST SWAP1 PUSH1 0x1F NOT DUP4 AND SWAP2 DUP5 PUSH1 0x0 MSTORE DUP2 PUSH1 0x0 KECCAK256 SWAP3 PUSH1 0x0 JUMPDEST DUP2 DUP2 LT PUSH2 0x4817 JUMPI POP SWAP1 DUP5 PUSH1 0x1 SWAP6 SWAP5 SWAP4 SWAP3 LT PUSH2 0x47FE JUMPI JUMPDEST POP POP POP DUP2 SHL ADD SWAP1 SSTORE PUSH2 0x41E2 JUMP JUMPDEST ADD MLOAD PUSH1 0x0 NOT PUSH1 0xF8 DUP5 PUSH1 0x3 SHL AND SHR NOT AND SWAP1 SSTORE CODESIZE DUP1 DUP1 PUSH2 0x47F1 JUMP JUMPDEST SWAP3 SWAP4 PUSH1 0x20 PUSH1 0x1 DUP2 SWAP3 DUP8 DUP7 ADD MLOAD DUP2 SSTORE ADD SWAP6 ADD SWAP4 ADD PUSH2 0x47DB JUMP JUMPDEST PUSH2 0x485B SWAP1 DUP5 PUSH1 0x0 MSTORE PUSH1 0x20 PUSH1 0x0 KECCAK256 PUSH1 0x1F DUP6 ADD PUSH1 0x5 SHR DUP2 ADD SWAP2 PUSH1 0x20 DUP7 LT PUSH2 0x952 JUMPI PUSH1 0x1F ADD PUSH1 0x5 SHR ADD SWAP1 PUSH2 0x329F JUMP JUMPDEST CODESIZE PUSH2 0x41AE JUMP JUMPDEST SWAP1 PUSH1 0x1F NOT DUP4 AND SWAP2 DUP5 PUSH1 0x0 MSTORE DUP2 PUSH1 0x0 KECCAK256 SWAP3 PUSH1 0x0 JUMPDEST DUP2 DUP2 LT PUSH2 0x48B0 JUMPI POP SWAP1 DUP5 PUSH1 0x1 SWAP6 SWAP5 SWAP4 SWAP3 LT PUSH2 0x4897 JUMPI JUMPDEST POP POP POP DUP2 SHL ADD SWAP1 SSTORE PUSH2 0x4181 JUMP JUMPDEST ADD MLOAD PUSH1 0x0 NOT PUSH1 0xF8 DUP5 PUSH1 0x3 SHL AND SHR NOT AND SWAP1 SSTORE CODESIZE DUP1 DUP1 PUSH2 0x488A JUMP JUMPDEST SWAP3 SWAP4 PUSH1 0x20 PUSH1 0x1 DUP2 SWAP3 DUP8 DUP7 ADD MLOAD DUP2 SSTORE ADD SWAP6 ADD SWAP4 ADD PUSH2 0x4874 JUMP JUMPDEST PUSH2 0x48F4 SWAP1 DUP5 PUSH1 0x0 MSTORE PUSH1 0x20 PUSH1 0x0 KECCAK256 PUSH1 0x1F DUP6 ADD PUSH1 0x5 SHR DUP2 ADD SWAP2 PUSH1 0x20 DUP7 LT PUSH2 0x952 JUMPI PUSH1 0x1F ADD PUSH1 0x5 SHR ADD SWAP1 PUSH2 0x329F JUMP JUMPDEST CODESIZE PUSH2 0x414D JUMP JUMPDEST PUSH1 0x1F NOT DUP3 AND SWAP6 DUP6 PUSH1 0x0 MSTORE DUP1 PUSH1 0x0 KECCAK256 SWAP2 PUSH1 0x0 JUMPDEST DUP9 DUP2 LT PUSH2 0x4947 JUMPI POP DUP4 PUSH1 0x1 SWAP6 SWAP7 SWAP8 SWAP9 LT PUSH2 0x492E JUMPI JUMPDEST POP POP POP DUP2 SHL ADD DUP4 SSTORE PUSH2 0x4120 JUMP JUMPDEST ADD MLOAD PUSH1 0x0 NOT PUSH1 0xF8 DUP5 PUSH1 0x3 SHL AND SHR NOT AND SWAP1 SSTORE CODESIZE DUP1 DUP1 PUSH2 0x4921 JUMP JUMPDEST SWAP2 SWAP3 PUSH1 0x20 PUSH1 0x1 DUP2 SWAP3 DUP7 DUP6 ADD MLOAD DUP2 SSTORE ADD SWAP5 ADD SWAP3 ADD PUSH2 0x490C JUMP JUMPDEST PUSH2 0x498B SWAP1 DUP6 PUSH1 0x0 MSTORE PUSH1 0x20 PUSH1 0x0 KECCAK256 PUSH1 0x1F DUP5 ADD PUSH1 0x5 SHR DUP2 ADD SWAP2 PUSH1 0x20 DUP6 LT PUSH2 0x952 JUMPI PUSH1 0x1F ADD PUSH1 0x5 SHR ADD SWAP1 PUSH2 0x329F JUMP JUMPDEST CODESIZE PUSH2 0x40E9 JUMP INVALID LOG2 PUSH5 0x6970667358 0x22 SLT KECCAK256 0xC4 CREATE 0xF9 SWAP11 0xC2 CODECOPY PUSH7 0x2C053AF6AF76D6 0xB8 SWAP12 0xE1 TIMESTAMP PUSH4 0xCD113D90 SSTORE 0xE8 0xFB XOR EXTCODEHASH PUSH4 0x7547F964 PUSH20 0x6F6C634300081B00330000000000000000000000 "},"methodIdentifiers":{"allObatData(uint256)":"7aad01bd","allOrderedObat(uint256)":"0a04f9c8","allProducedObat(uint256)":"7d08414f","approveNie(string,address,string,string,string)":"7ade51dd","bpomAddresses(string)":"1c0b2030","bpomInstanceNames(string)":"9d9315c2","bpomUserNames(string)":"f1022862","createObat(string,string,string,string[],string,string[],address,string,string,uint8)":"d9d284dc","factoryAddresses(string)":"4b87568a","factoryInstanceNames(string)":"a812536d","factoryUserNames(string)":"349a7a72","getAllProducedObat()":"1a95e672","getJenisSediaanAvail(string)":"d44faa63","getListAllObatNie()":"e06749ba","getListAllProducedObatByFactory(string)":"92b385c9","getListObatByFactory(string)":"1dce6e58","getListObatById(string)":"25606bc3","mainSupplyChain()":"9413fcfd","obatDetailsById(string)":"27321837","orderObatById(string)":"86f5cea6","pbfOrder(string,string,string,uint8,address,string,string[])":"735000eb","produceObat(string,string,uint8,string,string[])":"d14f0e48","requestNie(string)":"bc4a6f6c","retailerOrder(string,string,string,uint8,address,string,string[])":"b7e66568","roleManager()":"00435da5","userRoles(address)":"74d5e100"}}}}}