{"contracts/ObatTradisional.sol":{"ObatTradisional":{"abi":[{"anonymous":false,"inputs":[{"indexed":true,"internalType":"string","name":"obatId","type":"string"},{"indexed":true,"internalType":"address","name":"pabrikAddress","type":"address"}],"name":"evt_ObatRequested","type":"event"},{"anonymous":false,"inputs":[{"indexed":true,"internalType":"string","name":"obatId","type":"string"},{"indexed":true,"internalType":"address","name":"pabrikAddress","type":"address"},{"indexed":false,"internalType":"string","name":"obatName","type":"string"}],"name":"evt_obatProduction","type":"event"},{"inputs":[],"name":"get_all_obat","outputs":[{"internalType":"string[]","name":"","type":"string[]"}],"stateMutability":"view","type":"function"},{"inputs":[{"internalType":"string","name":"_obatId","type":"string"}],"name":"get_obat_byId","outputs":[{"internalType":"address","name":"pabrikAddress","type":"address"},{"internalType":"address","name":"bpomAddress","type":"address"},{"internalType":"string","name":"pabrikName","type":"string"},{"internalType":"uint256","name":"timestampReq","type":"uint256"},{"internalType":"uint256","name":"timestampApprove","type":"uint256"},{"internalType":"string","name":"obatName","type":"string"},{"internalType":"string","name":"obatId","type":"string"},{"internalType":"string","name":"obatMerk","type":"string"},{"internalType":"string","name":"obatKlaim","type":"string"},{"internalType":"string","name":"obatKomposisi","type":"string"},{"internalType":"string","name":"obatKemasan","type":"string"},{"internalType":"string","name":"numberNie","type":"string"},{"internalType":"enum ObatTradisional.en_StatusObat","name":"statusObat","type":"uint8"}],"stateMutability":"view","type":"function"},{"inputs":[{"internalType":"uint256","name":"","type":"uint256"}],"name":"idObat","outputs":[{"internalType":"string","name":"","type":"string"}],"stateMutability":"view","type":"function"},{"inputs":[{"internalType":"string","name":"","type":"string"}],"name":"obatData","outputs":[{"internalType":"address","name":"pabrikAddress","type":"address"},{"internalType":"address","name":"bpomAddress","type":"address"},{"internalType":"string","name":"pabrikName","type":"string"},{"internalType":"uint256","name":"timestampReq","type":"uint256"},{"internalType":"uint256","name":"timestampApprove","type":"uint256"},{"internalType":"string","name":"obatName","type":"string"},{"internalType":"string","name":"obatId","type":"string"},{"internalType":"string","name":"obatMerk","type":"string"},{"internalType":"string","name":"obatKlaim","type":"string"},{"internalType":"string","name":"obatKomposisi","type":"string"},{"internalType":"string","name":"obatKemasan","type":"string"},{"internalType":"string","name":"numberNie","type":"string"},{"internalType":"enum ObatTradisional.en_StatusObat","name":"statusObat","type":"uint8"}],"stateMutability":"view","type":"function"},{"inputs":[{"internalType":"string","name":"_obatId","type":"string"},{"internalType":"string","name":"_pabrikName","type":"string"},{"internalType":"string","name":"_obatName","type":"string"},{"internalType":"string","name":"_obatMerk","type":"string"},{"internalType":"string","name":"_obatKlaim","type":"string"},{"internalType":"string","name":"_obatKomposisi","type":"string"},{"internalType":"string","name":"_obatKemasan","type":"string"}],"name":"obat_production","outputs":[],"stateMutability":"nonpayable","type":"function"}],"evm":{"bytecode":{"linkReferences":{},"object":"60808060405234601557611216908161001b8239f35b600080fdfe608080604052600436101561001357600080fd5b60003560e01c9081630e96e278146104695750806349bd96721461036057806375711f491461025e578063a6dddde3146100c05763c723c1911461005657600080fd5b346100bb5760203660031901126100bb576004356000548110156100bb5761007d9061115e565b6100a55761008d6100a191610fe6565b604051918291602083526020830190610f04565b0390f35b634e487b7160e01b600052600060045260246000fd5b600080fd5b346100bb5760203660031901126100bb576004356001600160401b0381116100bb576100f26020913690600401610eb4565b91908260405193849283378101600181520301902060405161011381610f29565b81546001600160a01b039081168252600183015416602082019081529061013c60028401610fe6565b9260408201938452600381015491606081019283526004820154916080820192835261016a60058201610fe6565b60a0830190815261017d60068301610fe6565b60c0840190815261019060078401610fe6565b60e085019081526101a360088501610fe6565b9061010086019182526101b860098601610fe6565b9261012087019384526101cd600a8701610fe6565b94610140880195865260ff600c6101e6600b8a01610fe6565b986101608b01998a520154169761018081019860038110156102485798899052519a519b519951985190519151925193519451955196516001600160a01b039c8d169c909b169a979860038a1015610248576100a19a6040519d8e9d8e61108a565b634e487b7160e01b600052602160045260246000fd5b346100bb5760203660031901126100bb576004356001600160401b0381116100bb57366023820112156100bb5760206102a46102b7923690602481600401359101610f66565b8160405193828580945193849201610ee1565b8101600181520301902060018060a01b038154166100a160018060a01b03600184015416926102e860028201610fe6565b90600381015460048201546102ff60058401610fe6565b61030b60068501610fe6565b61031760078601610fe6565b9061032460088701610fe6565b9261033160098801610fe6565b9461033e600a8901610fe6565b9660ff600c61034f600b8c01610fe6565b9a015416996040519d8e9d8e61108a565b346100bb5760003660031901126100bb576000546001600160401b038111610453576040519061039660208260051b0183610f45565b808252602082019081600080527f290decd9548b62a8d60345a988386fc84ba6bc95484008f6362f93160ef3e5636000915b83831061043657848660405191829160208301906020845251809152604083019060408160051b85010192916000905b82821061040757505050500390f35b919360019193955060206104268192603f198a82030186528851610f04565b96019201920185949391926103f8565b60016020819261044585610fe6565b8152019201920191906103c8565b634e487b7160e01b600052604160045260246000fd5b346100bb5760e03660031901126100bb576004356001600160401b0381116100bb57610499903690600401610eb4565b90916024356001600160401b0381116100bb576104ba903690600401610eb4565b92906044356001600160401b0381116100bb576104db903690600401610eb4565b9390916064356001600160401b0381116100bb576104fd903690600401610eb4565b906084356001600160401b0381116100bb5761051d903690600401610eb4565b60a4356001600160401b0381116100bb5761053c903690600401610eb4565b93909460c4356001600160401b0381116100bb5761055e903690600401610eb4565b9790988b15610e7d57506040519c6105758e610f29565b8d33815260200160009052369061058b92610f66565b60408d0152600060608d0181905260808d01526105a9368c8b610f66565b60a08d01526105b9368b8f610f66565b60c08d015236906105c992610f66565b60e08b015236906105d992610f66565b61010089015236906105ea92610f66565b61012087015236906105fb92610f66565b61014085015260409182516106108482610f45565b60018152600160fd1b6020820152610160860152600061018086015282518187823760018282018181526020908390038101909220875181546001600160a01b03199081166001600160a01b039283161783559389015192820180549094169216919091179091556040860151805160028301916001600160401b038211610453576106a6826106a08554610fac565b8561118e565b602090601f8311600114610e16576106d7929160009183610ba1575b50508160011b916000199060031b1c19161790565b90555b60608601516003820155608086015160048201556005810160a08701518051906001600160401b03821161045357610716826106a08554610fac565b602090601f8311600114610daf57610746929160009183610ba15750508160011b916000199060031b1c19161790565b90555b6006810160c08701518051906001600160401b03821161045357610771826106a08554610fac565b602090601f8311600114610d48576107a1929160009183610ba15750508160011b916000199060031b1c19161790565b90555b6007810160e08701518051906001600160401b038211610453576107cc826106a08554610fac565b602090601f8311600114610ce1576107fc929160009183610ba15750508160011b916000199060031b1c19161790565b90555b600881016101008701518051906001600160401b03821161045357610828826106a08554610fac565b602090601f8311600114610c7a57610858929160009183610ba15750508160011b916000199060031b1c19161790565b90555b600981016101208701518051906001600160401b03821161045357610884826106a08554610fac565b602090601f8311600114610c13576108b4929160009183610ba15750508160011b916000199060031b1c19161790565b90555b600a81016101408701518051906001600160401b038211610453576108e0826106a08554610fac565b602090601f8311600114610bac57610910929160009183610ba15750508160011b916000199060031b1c19161790565b90555b600b81016101608701518051906001600160401b0382116104535761093c826106a08554610fac565b602090601f8311600114610b3357826101809593600c959361097493600092610b285750508160011b916000199060031b1c19161790565b90555b019501519460038610156102485760009560ff80198354169116179055845468010000000000000000811015610b00578060016109b69201875561115e565b969096610b14576001600160401b038211610b00576109df826109d98954610fac565b8961118e565b8596601f8311600114610a7c57610a318380899a7f11419415138c694473a0c3f4f8e450395791888ab0252860facc797811dbe66898999a91610a71575b508160011b916000199060031b1c19161790565b90555b818551928392833781018781520390209284815192602084528160208501528284013785818684010152813395601f80199101168101030190a380f35b90508401358b610a1d565b80875260208720601f19841698885b8a8110610ae85750847f11419415138c694473a0c3f4f8e450395791888ab0252860facc797811dbe6689798999a10610ace575b5050600183811b019055610a34565b830135600019600386901b60f8161c191690558880610abf565b90916020600181928588013581550193019101610a8b565b634e487b7160e01b86526041600452602486fd5b634e487b7160e01b86526004869052602486fd5b015190508d806106c2565b90601f1983169184600052816000209260005b818110610b8957509260019285926101809896600c989610610b70575b505050811b019055610977565b015160001960f88460031b161c191690558c8080610b63565b92936020600181928786015181550195019301610b46565b015190508b806106c2565b90601f1983169184600052816000209260005b818110610bfb5750908460019594939210610be2575b505050811b019055610913565b015160001960f88460031b161c191690558a8080610bd5565b92936020600181928786015181550195019301610bbf565b90601f1983169184600052816000209260005b818110610c625750908460019594939210610c49575b505050811b0190556108b7565b015160001960f88460031b161c191690558a8080610c3c565b92936020600181928786015181550195019301610c26565b90601f1983169184600052816000209260005b818110610cc95750908460019594939210610cb0575b505050811b01905561085b565b015160001960f88460031b161c191690558a8080610ca3565b92936020600181928786015181550195019301610c8d565b90601f1983169184600052816000209260005b818110610d305750908460019594939210610d17575b505050811b0190556107ff565b015160001960f88460031b161c191690558a8080610d0a565b92936020600181928786015181550195019301610cf4565b90601f1983169184600052816000209260005b818110610d975750908460019594939210610d7e575b505050811b0190556107a4565b015160001960f88460031b161c191690558a8080610d71565b92936020600181928786015181550195019301610d5b565b90601f1983169184600052816000209260005b818110610dfe5750908460019594939210610de5575b505050811b019055610749565b015160001960f88460031b161c191690558a8080610dd8565b92936020600181928786015181550195019301610dc2565b90601f1983169184600052816000209260005b818110610e655750908460019594939210610e4c575b505050811b0190556106da565b015160001960f88460031b161c191690558a8080610e3f565b92936020600181928786015181550195019301610e29565b62461bcd60e51b8152602060048201526012602482015271125b9d985b1a590814995c5d595cdd08125160721b6044820152606490fd5b9181601f840112156100bb578235916001600160401b0383116100bb57602083818601950101116100bb57565b60005b838110610ef45750506000910152565b8181015183820152602001610ee4565b90602091610f1d81518092818552858086019101610ee1565b601f01601f1916010190565b6101a081019081106001600160401b0382111761045357604052565b90601f801991011681019081106001600160401b0382111761045357604052565b9291926001600160401b0382116104535760405191610f8f601f8201601f191660200184610f45565b8294818452818301116100bb578281602093846000960137010152565b90600182811c92168015610fdc575b6020831014610fc657565b634e487b7160e01b600052602260045260246000fd5b91607f1691610fbb565b9060405191826000825492610ffa84610fac565b80845293600181169081156110685750600114611021575b5061101f92500383610f45565b565b90506000929192526020600020906000915b81831061104c57505090602061101f9282010138611012565b6020919350806001915483858901015201910190918492611033565b90506020925061101f94915060ff191682840152151560051b82010138611012565b61112f97819f9e9d9b9761113e9b966110f59161114d9f9c96996110dd611111996111209c6111039960018060a01b0316895260018060a01b031660208901526101a060408901526101a0880190610f04565b926060870152608086015284820360a0860152610f04565b9160c0818403910152610f04565b8d810360e08f015290610f04565b908b82036101008d0152610f04565b908982036101208b0152610f04565b90878203610140890152610f04565b90858203610160870152610f04565b926003821015610248576101800152565b600054811015611178576000805260206000200190600090565b634e487b7160e01b600052603260045260246000fd5b601f821161119b57505050565b6000526020600020906020601f840160051c830193106111d6575b601f0160051c01905b8181106111ca575050565b600081556001016111bf565b90915081906111b656fea2646970667358221220f5e84e5204ea5d7f8a48500be190c3a1bb2df1f991c9547766e3247bf303e8d364736f6c634300081b0033","opcodes":"PUSH1 0x80 DUP1 PUSH1 0x40 MSTORE CALLVALUE PUSH1 0x15 JUMPI PUSH2 0x1216 SWAP1 DUP2 PUSH2 0x1B DUP3 CODECOPY RETURN JUMPDEST PUSH1 0x0 DUP1 REVERT INVALID PUSH1 0x80 DUP1 PUSH1 0x40 MSTORE PUSH1 0x4 CALLDATASIZE LT ISZERO PUSH2 0x13 JUMPI PUSH1 0x0 DUP1 REVERT JUMPDEST PUSH1 0x0 CALLDATALOAD PUSH1 0xE0 SHR SWAP1 DUP2 PUSH4 0xE96E278 EQ PUSH2 0x469 JUMPI POP DUP1 PUSH4 0x49BD9672 EQ PUSH2 0x360 JUMPI DUP1 PUSH4 0x75711F49 EQ PUSH2 0x25E JUMPI DUP1 PUSH4 0xA6DDDDE3 EQ PUSH2 0xC0 JUMPI PUSH4 0xC723C191 EQ PUSH2 0x56 JUMPI PUSH1 0x0 DUP1 REVERT JUMPDEST CALLVALUE PUSH2 0xBB JUMPI PUSH1 0x20 CALLDATASIZE PUSH1 0x3 NOT ADD SLT PUSH2 0xBB JUMPI PUSH1 0x4 CALLDATALOAD PUSH1 0x0 SLOAD DUP2 LT ISZERO PUSH2 0xBB JUMPI PUSH2 0x7D SWAP1 PUSH2 0x115E JUMP JUMPDEST PUSH2 0xA5 JUMPI PUSH2 0x8D PUSH2 0xA1 SWAP2 PUSH2 0xFE6 JUMP JUMPDEST PUSH1 0x40 MLOAD SWAP2 DUP3 SWAP2 PUSH1 0x20 DUP4 MSTORE PUSH1 0x20 DUP4 ADD SWAP1 PUSH2 0xF04 JUMP JUMPDEST SUB SWAP1 RETURN JUMPDEST PUSH4 0x4E487B71 PUSH1 0xE0 SHL PUSH1 0x0 MSTORE PUSH1 0x0 PUSH1 0x4 MSTORE PUSH1 0x24 PUSH1 0x0 REVERT JUMPDEST PUSH1 0x0 DUP1 REVERT JUMPDEST CALLVALUE PUSH2 0xBB JUMPI PUSH1 0x20 CALLDATASIZE PUSH1 0x3 NOT ADD SLT PUSH2 0xBB JUMPI PUSH1 0x4 CALLDATALOAD PUSH1 0x1 PUSH1 0x1 PUSH1 0x40 SHL SUB DUP2 GT PUSH2 0xBB JUMPI PUSH2 0xF2 PUSH1 0x20 SWAP2 CALLDATASIZE SWAP1 PUSH1 0x4 ADD PUSH2 0xEB4 JUMP JUMPDEST SWAP2 SWAP1 DUP3 PUSH1 0x40 MLOAD SWAP4 DUP5 SWAP3 DUP4 CALLDATACOPY DUP2 ADD PUSH1 0x1 DUP2 MSTORE SUB ADD SWAP1 KECCAK256 PUSH1 0x40 MLOAD PUSH2 0x113 DUP2 PUSH2 0xF29 JUMP JUMPDEST DUP2 SLOAD PUSH1 0x1 PUSH1 0x1 PUSH1 0xA0 SHL SUB SWAP1 DUP2 AND DUP3 MSTORE PUSH1 0x1 DUP4 ADD SLOAD AND PUSH1 0x20 DUP3 ADD SWAP1 DUP2 MSTORE SWAP1 PUSH2 0x13C PUSH1 0x2 DUP5 ADD PUSH2 0xFE6 JUMP JUMPDEST SWAP3 PUSH1 0x40 DUP3 ADD SWAP4 DUP5 MSTORE PUSH1 0x3 DUP2 ADD SLOAD SWAP2 PUSH1 0x60 DUP2 ADD SWAP3 DUP4 MSTORE PUSH1 0x4 DUP3 ADD SLOAD SWAP2 PUSH1 0x80 DUP3 ADD SWAP3 DUP4 MSTORE PUSH2 0x16A PUSH1 0x5 DUP3 ADD PUSH2 0xFE6 JUMP JUMPDEST PUSH1 0xA0 DUP4 ADD SWAP1 DUP2 MSTORE PUSH2 0x17D PUSH1 0x6 DUP4 ADD PUSH2 0xFE6 JUMP JUMPDEST PUSH1 0xC0 DUP5 ADD SWAP1 DUP2 MSTORE PUSH2 0x190 PUSH1 0x7 DUP5 ADD PUSH2 0xFE6 JUMP JUMPDEST PUSH1 0xE0 DUP6 ADD SWAP1 DUP2 MSTORE PUSH2 0x1A3 PUSH1 0x8 DUP6 ADD PUSH2 0xFE6 JUMP JUMPDEST SWAP1 PUSH2 0x100 DUP7 ADD SWAP2 DUP3 MSTORE PUSH2 0x1B8 PUSH1 0x9 DUP7 ADD PUSH2 0xFE6 JUMP JUMPDEST SWAP3 PUSH2 0x120 DUP8 ADD SWAP4 DUP5 MSTORE PUSH2 0x1CD PUSH1 0xA DUP8 ADD PUSH2 0xFE6 JUMP JUMPDEST SWAP5 PUSH2 0x140 DUP9 ADD SWAP6 DUP7 MSTORE PUSH1 0xFF PUSH1 0xC PUSH2 0x1E6 PUSH1 0xB DUP11 ADD PUSH2 0xFE6 JUMP JUMPDEST SWAP9 PUSH2 0x160 DUP12 ADD SWAP10 DUP11 MSTORE ADD SLOAD AND SWAP8 PUSH2 0x180 DUP2 ADD SWAP9 PUSH1 0x3 DUP2 LT ISZERO PUSH2 0x248 JUMPI SWAP9 DUP10 SWAP1 MSTORE MLOAD SWAP11 MLOAD SWAP12 MLOAD SWAP10 MLOAD SWAP9 MLOAD SWAP1 MLOAD SWAP2 MLOAD SWAP3 MLOAD SWAP4 MLOAD SWAP5 MLOAD SWAP6 MLOAD SWAP7 MLOAD PUSH1 0x1 PUSH1 0x1 PUSH1 0xA0 SHL SUB SWAP13 DUP14 AND SWAP13 SWAP1 SWAP12 AND SWAP11 SWAP8 SWAP9 PUSH1 0x3 DUP11 LT ISZERO PUSH2 0x248 JUMPI PUSH2 0xA1 SWAP11 PUSH1 0x40 MLOAD SWAP14 DUP15 SWAP14 DUP15 PUSH2 0x108A JUMP JUMPDEST PUSH4 0x4E487B71 PUSH1 0xE0 SHL PUSH1 0x0 MSTORE PUSH1 0x21 PUSH1 0x4 MSTORE PUSH1 0x24 PUSH1 0x0 REVERT JUMPDEST CALLVALUE PUSH2 0xBB JUMPI PUSH1 0x20 CALLDATASIZE PUSH1 0x3 NOT ADD SLT PUSH2 0xBB JUMPI PUSH1 0x4 CALLDATALOAD PUSH1 0x1 PUSH1 0x1 PUSH1 0x40 SHL SUB DUP2 GT PUSH2 0xBB JUMPI CALLDATASIZE PUSH1 0x23 DUP3 ADD SLT ISZERO PUSH2 0xBB JUMPI PUSH1 0x20 PUSH2 0x2A4 PUSH2 0x2B7 SWAP3 CALLDATASIZE SWAP1 PUSH1 0x24 DUP2 PUSH1 0x4 ADD CALLDATALOAD SWAP2 ADD PUSH2 0xF66 JUMP JUMPDEST DUP2 PUSH1 0x40 MLOAD SWAP4 DUP3 DUP6 DUP1 SWAP5 MLOAD SWAP4 DUP5 SWAP3 ADD PUSH2 0xEE1 JUMP JUMPDEST DUP2 ADD PUSH1 0x1 DUP2 MSTORE SUB ADD SWAP1 KECCAK256 PUSH1 0x1 DUP1 PUSH1 0xA0 SHL SUB DUP2 SLOAD AND PUSH2 0xA1 PUSH1 0x1 DUP1 PUSH1 0xA0 SHL SUB PUSH1 0x1 DUP5 ADD SLOAD AND SWAP3 PUSH2 0x2E8 PUSH1 0x2 DUP3 ADD PUSH2 0xFE6 JUMP JUMPDEST SWAP1 PUSH1 0x3 DUP2 ADD SLOAD PUSH1 0x4 DUP3 ADD SLOAD PUSH2 0x2FF PUSH1 0x5 DUP5 ADD PUSH2 0xFE6 JUMP JUMPDEST PUSH2 0x30B PUSH1 0x6 DUP6 ADD PUSH2 0xFE6 JUMP JUMPDEST PUSH2 0x317 PUSH1 0x7 DUP7 ADD PUSH2 0xFE6 JUMP JUMPDEST SWAP1 PUSH2 0x324 PUSH1 0x8 DUP8 ADD PUSH2 0xFE6 JUMP JUMPDEST SWAP3 PUSH2 0x331 PUSH1 0x9 DUP9 ADD PUSH2 0xFE6 JUMP JUMPDEST SWAP5 PUSH2 0x33E PUSH1 0xA DUP10 ADD PUSH2 0xFE6 JUMP JUMPDEST SWAP7 PUSH1 0xFF PUSH1 0xC PUSH2 0x34F PUSH1 0xB DUP13 ADD PUSH2 0xFE6 JUMP JUMPDEST SWAP11 ADD SLOAD AND SWAP10 PUSH1 0x40 MLOAD SWAP14 DUP15 SWAP14 DUP15 PUSH2 0x108A JUMP JUMPDEST CALLVALUE PUSH2 0xBB JUMPI PUSH1 0x0 CALLDATASIZE PUSH1 0x3 NOT ADD SLT PUSH2 0xBB JUMPI PUSH1 0x0 SLOAD PUSH1 0x1 PUSH1 0x1 PUSH1 0x40 SHL SUB DUP2 GT PUSH2 0x453 JUMPI PUSH1 0x40 MLOAD SWAP1 PUSH2 0x396 PUSH1 0x20 DUP3 PUSH1 0x5 SHL ADD DUP4 PUSH2 0xF45 JUMP JUMPDEST DUP1 DUP3 MSTORE PUSH1 0x20 DUP3 ADD SWAP1 DUP2 PUSH1 0x0 DUP1 MSTORE PUSH32 0x290DECD9548B62A8D60345A988386FC84BA6BC95484008F6362F93160EF3E563 PUSH1 0x0 SWAP2 JUMPDEST DUP4 DUP4 LT PUSH2 0x436 JUMPI DUP5 DUP7 PUSH1 0x40 MLOAD SWAP2 DUP3 SWAP2 PUSH1 0x20 DUP4 ADD SWAP1 PUSH1 0x20 DUP5 MSTORE MLOAD DUP1 SWAP2 MSTORE PUSH1 0x40 DUP4 ADD SWAP1 PUSH1 0x40 DUP2 PUSH1 0x5 SHL DUP6 ADD ADD SWAP3 SWAP2 PUSH1 0x0 SWAP1 JUMPDEST DUP3 DUP3 LT PUSH2 0x407 JUMPI POP POP POP POP SUB SWAP1 RETURN JUMPDEST SWAP2 SWAP4 PUSH1 0x1 SWAP2 SWAP4 SWAP6 POP PUSH1 0x20 PUSH2 0x426 DUP2 SWAP3 PUSH1 0x3F NOT DUP11 DUP3 SUB ADD DUP7 MSTORE DUP9 MLOAD PUSH2 0xF04 JUMP JUMPDEST SWAP7 ADD SWAP3 ADD SWAP3 ADD DUP6 SWAP5 SWAP4 SWAP2 SWAP3 PUSH2 0x3F8 JUMP JUMPDEST PUSH1 0x1 PUSH1 0x20 DUP2 SWAP3 PUSH2 0x445 DUP6 PUSH2 0xFE6 JUMP JUMPDEST DUP2 MSTORE ADD SWAP3 ADD SWAP3 ADD SWAP2 SWAP1 PUSH2 0x3C8 JUMP JUMPDEST PUSH4 0x4E487B71 PUSH1 0xE0 SHL PUSH1 0x0 MSTORE PUSH1 0x41 PUSH1 0x4 MSTORE PUSH1 0x24 PUSH1 0x0 REVERT JUMPDEST CALLVALUE PUSH2 0xBB JUMPI PUSH1 0xE0 CALLDATASIZE PUSH1 0x3 NOT ADD SLT PUSH2 0xBB JUMPI PUSH1 0x4 CALLDATALOAD PUSH1 0x1 PUSH1 0x1 PUSH1 0x40 SHL SUB DUP2 GT PUSH2 0xBB JUMPI PUSH2 0x499 SWAP1 CALLDATASIZE SWAP1 PUSH1 0x4 ADD PUSH2 0xEB4 JUMP JUMPDEST SWAP1 SWAP2 PUSH1 0x24 CALLDATALOAD PUSH1 0x1 PUSH1 0x1 PUSH1 0x40 SHL SUB DUP2 GT PUSH2 0xBB JUMPI PUSH2 0x4BA SWAP1 CALLDATASIZE SWAP1 PUSH1 0x4 ADD PUSH2 0xEB4 JUMP JUMPDEST SWAP3 SWAP1 PUSH1 0x44 CALLDATALOAD PUSH1 0x1 PUSH1 0x1 PUSH1 0x40 SHL SUB DUP2 GT PUSH2 0xBB JUMPI PUSH2 0x4DB SWAP1 CALLDATASIZE SWAP1 PUSH1 0x4 ADD PUSH2 0xEB4 JUMP JUMPDEST SWAP4 SWAP1 SWAP2 PUSH1 0x64 CALLDATALOAD PUSH1 0x1 PUSH1 0x1 PUSH1 0x40 SHL SUB DUP2 GT PUSH2 0xBB JUMPI PUSH2 0x4FD SWAP1 CALLDATASIZE SWAP1 PUSH1 0x4 ADD PUSH2 0xEB4 JUMP JUMPDEST SWAP1 PUSH1 0x84 CALLDATALOAD PUSH1 0x1 PUSH1 0x1 PUSH1 0x40 SHL SUB DUP2 GT PUSH2 0xBB JUMPI PUSH2 0x51D SWAP1 CALLDATASIZE SWAP1 PUSH1 0x4 ADD PUSH2 0xEB4 JUMP JUMPDEST PUSH1 0xA4 CALLDATALOAD PUSH1 0x1 PUSH1 0x1 PUSH1 0x40 SHL SUB DUP2 GT PUSH2 0xBB JUMPI PUSH2 0x53C SWAP1 CALLDATASIZE SWAP1 PUSH1 0x4 ADD PUSH2 0xEB4 JUMP JUMPDEST SWAP4 SWAP1 SWAP5 PUSH1 0xC4 CALLDATALOAD PUSH1 0x1 PUSH1 0x1 PUSH1 0x40 SHL SUB DUP2 GT PUSH2 0xBB JUMPI PUSH2 0x55E SWAP1 CALLDATASIZE SWAP1 PUSH1 0x4 ADD PUSH2 0xEB4 JUMP JUMPDEST SWAP8 SWAP1 SWAP9 DUP12 ISZERO PUSH2 0xE7D JUMPI POP PUSH1 0x40 MLOAD SWAP13 PUSH2 0x575 DUP15 PUSH2 0xF29 JUMP JUMPDEST DUP14 CALLER DUP2 MSTORE PUSH1 0x20 ADD PUSH1 0x0 SWAP1 MSTORE CALLDATASIZE SWAP1 PUSH2 0x58B SWAP3 PUSH2 0xF66 JUMP JUMPDEST PUSH1 0x40 DUP14 ADD MSTORE PUSH1 0x0 PUSH1 0x60 DUP14 ADD DUP2 SWAP1 MSTORE PUSH1 0x80 DUP14 ADD MSTORE PUSH2 0x5A9 CALLDATASIZE DUP13 DUP12 PUSH2 0xF66 JUMP JUMPDEST PUSH1 0xA0 DUP14 ADD MSTORE PUSH2 0x5B9 CALLDATASIZE DUP12 DUP16 PUSH2 0xF66 JUMP JUMPDEST PUSH1 0xC0 DUP14 ADD MSTORE CALLDATASIZE SWAP1 PUSH2 0x5C9 SWAP3 PUSH2 0xF66 JUMP JUMPDEST PUSH1 0xE0 DUP12 ADD MSTORE CALLDATASIZE SWAP1 PUSH2 0x5D9 SWAP3 PUSH2 0xF66 JUMP JUMPDEST PUSH2 0x100 DUP10 ADD MSTORE CALLDATASIZE SWAP1 PUSH2 0x5EA SWAP3 PUSH2 0xF66 JUMP JUMPDEST PUSH2 0x120 DUP8 ADD MSTORE CALLDATASIZE SWAP1 PUSH2 0x5FB SWAP3 PUSH2 0xF66 JUMP JUMPDEST PUSH2 0x140 DUP6 ADD MSTORE PUSH1 0x40 SWAP2 DUP3 MLOAD PUSH2 0x610 DUP5 DUP3 PUSH2 0xF45 JUMP JUMPDEST PUSH1 0x1 DUP2 MSTORE PUSH1 0x1 PUSH1 0xFD SHL PUSH1 0x20 DUP3 ADD MSTORE PUSH2 0x160 DUP7 ADD MSTORE PUSH1 0x0 PUSH2 0x180 DUP7 ADD MSTORE DUP3 MLOAD DUP2 DUP8 DUP3 CALLDATACOPY PUSH1 0x1 DUP3 DUP3 ADD DUP2 DUP2 MSTORE PUSH1 0x20 SWAP1 DUP4 SWAP1 SUB DUP2 ADD SWAP1 SWAP3 KECCAK256 DUP8 MLOAD DUP2 SLOAD PUSH1 0x1 PUSH1 0x1 PUSH1 0xA0 SHL SUB NOT SWAP1 DUP2 AND PUSH1 0x1 PUSH1 0x1 PUSH1 0xA0 SHL SUB SWAP3 DUP4 AND OR DUP4 SSTORE SWAP4 DUP10 ADD MLOAD SWAP3 DUP3 ADD DUP1 SLOAD SWAP1 SWAP5 AND SWAP3 AND SWAP2 SWAP1 SWAP2 OR SWAP1 SWAP2 SSTORE PUSH1 0x40 DUP7 ADD MLOAD DUP1 MLOAD PUSH1 0x2 DUP4 ADD SWAP2 PUSH1 0x1 PUSH1 0x1 PUSH1 0x40 SHL SUB DUP3 GT PUSH2 0x453 JUMPI PUSH2 0x6A6 DUP3 PUSH2 0x6A0 DUP6 SLOAD PUSH2 0xFAC JUMP JUMPDEST DUP6 PUSH2 0x118E JUMP JUMPDEST PUSH1 0x20 SWAP1 PUSH1 0x1F DUP4 GT PUSH1 0x1 EQ PUSH2 0xE16 JUMPI PUSH2 0x6D7 SWAP3 SWAP2 PUSH1 0x0 SWAP2 DUP4 PUSH2 0xBA1 JUMPI JUMPDEST POP POP DUP2 PUSH1 0x1 SHL SWAP2 PUSH1 0x0 NOT SWAP1 PUSH1 0x3 SHL SHR NOT AND OR SWAP1 JUMP JUMPDEST SWAP1 SSTORE JUMPDEST PUSH1 0x60 DUP7 ADD MLOAD PUSH1 0x3 DUP3 ADD SSTORE PUSH1 0x80 DUP7 ADD MLOAD PUSH1 0x4 DUP3 ADD SSTORE PUSH1 0x5 DUP2 ADD PUSH1 0xA0 DUP8 ADD MLOAD DUP1 MLOAD SWAP1 PUSH1 0x1 PUSH1 0x1 PUSH1 0x40 SHL SUB DUP3 GT PUSH2 0x453 JUMPI PUSH2 0x716 DUP3 PUSH2 0x6A0 DUP6 SLOAD PUSH2 0xFAC JUMP JUMPDEST PUSH1 0x20 SWAP1 PUSH1 0x1F DUP4 GT PUSH1 0x1 EQ PUSH2 0xDAF JUMPI PUSH2 0x746 SWAP3 SWAP2 PUSH1 0x0 SWAP2 DUP4 PUSH2 0xBA1 JUMPI POP POP DUP2 PUSH1 0x1 SHL SWAP2 PUSH1 0x0 NOT SWAP1 PUSH1 0x3 SHL SHR NOT AND OR SWAP1 JUMP JUMPDEST SWAP1 SSTORE JUMPDEST PUSH1 0x6 DUP2 ADD PUSH1 0xC0 DUP8 ADD MLOAD DUP1 MLOAD SWAP1 PUSH1 0x1 PUSH1 0x1 PUSH1 0x40 SHL SUB DUP3 GT PUSH2 0x453 JUMPI PUSH2 0x771 DUP3 PUSH2 0x6A0 DUP6 SLOAD PUSH2 0xFAC JUMP JUMPDEST PUSH1 0x20 SWAP1 PUSH1 0x1F DUP4 GT PUSH1 0x1 EQ PUSH2 0xD48 JUMPI PUSH2 0x7A1 SWAP3 SWAP2 PUSH1 0x0 SWAP2 DUP4 PUSH2 0xBA1 JUMPI POP POP DUP2 PUSH1 0x1 SHL SWAP2 PUSH1 0x0 NOT SWAP1 PUSH1 0x3 SHL SHR NOT AND OR SWAP1 JUMP JUMPDEST SWAP1 SSTORE JUMPDEST PUSH1 0x7 DUP2 ADD PUSH1 0xE0 DUP8 ADD MLOAD DUP1 MLOAD SWAP1 PUSH1 0x1 PUSH1 0x1 PUSH1 0x40 SHL SUB DUP3 GT PUSH2 0x453 JUMPI PUSH2 0x7CC DUP3 PUSH2 0x6A0 DUP6 SLOAD PUSH2 0xFAC JUMP JUMPDEST PUSH1 0x20 SWAP1 PUSH1 0x1F DUP4 GT PUSH1 0x1 EQ PUSH2 0xCE1 JUMPI PUSH2 0x7FC SWAP3 SWAP2 PUSH1 0x0 SWAP2 DUP4 PUSH2 0xBA1 JUMPI POP POP DUP2 PUSH1 0x1 SHL SWAP2 PUSH1 0x0 NOT SWAP1 PUSH1 0x3 SHL SHR NOT AND OR SWAP1 JUMP JUMPDEST SWAP1 SSTORE JUMPDEST PUSH1 0x8 DUP2 ADD PUSH2 0x100 DUP8 ADD MLOAD DUP1 MLOAD SWAP1 PUSH1 0x1 PUSH1 0x1 PUSH1 0x40 SHL SUB DUP3 GT PUSH2 0x453 JUMPI PUSH2 0x828 DUP3 PUSH2 0x6A0 DUP6 SLOAD PUSH2 0xFAC JUMP JUMPDEST PUSH1 0x20 SWAP1 PUSH1 0x1F DUP4 GT PUSH1 0x1 EQ PUSH2 0xC7A JUMPI PUSH2 0x858 SWAP3 SWAP2 PUSH1 0x0 SWAP2 DUP4 PUSH2 0xBA1 JUMPI POP POP DUP2 PUSH1 0x1 SHL SWAP2 PUSH1 0x0 NOT SWAP1 PUSH1 0x3 SHL SHR NOT AND OR SWAP1 JUMP JUMPDEST SWAP1 SSTORE JUMPDEST PUSH1 0x9 DUP2 ADD PUSH2 0x120 DUP8 ADD MLOAD DUP1 MLOAD SWAP1 PUSH1 0x1 PUSH1 0x1 PUSH1 0x40 SHL SUB DUP3 GT PUSH2 0x453 JUMPI PUSH2 0x884 DUP3 PUSH2 0x6A0 DUP6 SLOAD PUSH2 0xFAC JUMP JUMPDEST PUSH1 0x20 SWAP1 PUSH1 0x1F DUP4 GT PUSH1 0x1 EQ PUSH2 0xC13 JUMPI PUSH2 0x8B4 SWAP3 SWAP2 PUSH1 0x0 SWAP2 DUP4 PUSH2 0xBA1 JUMPI POP POP DUP2 PUSH1 0x1 SHL SWAP2 PUSH1 0x0 NOT SWAP1 PUSH1 0x3 SHL SHR NOT AND OR SWAP1 JUMP JUMPDEST SWAP1 SSTORE JUMPDEST PUSH1 0xA DUP2 ADD PUSH2 0x140 DUP8 ADD MLOAD DUP1 MLOAD SWAP1 PUSH1 0x1 PUSH1 0x1 PUSH1 0x40 SHL SUB DUP3 GT PUSH2 0x453 JUMPI PUSH2 0x8E0 DUP3 PUSH2 0x6A0 DUP6 SLOAD PUSH2 0xFAC JUMP JUMPDEST PUSH1 0x20 SWAP1 PUSH1 0x1F DUP4 GT PUSH1 0x1 EQ PUSH2 0xBAC JUMPI PUSH2 0x910 SWAP3 SWAP2 PUSH1 0x0 SWAP2 DUP4 PUSH2 0xBA1 JUMPI POP POP DUP2 PUSH1 0x1 SHL SWAP2 PUSH1 0x0 NOT SWAP1 PUSH1 0x3 SHL SHR NOT AND OR SWAP1 JUMP JUMPDEST SWAP1 SSTORE JUMPDEST PUSH1 0xB DUP2 ADD PUSH2 0x160 DUP8 ADD MLOAD DUP1 MLOAD SWAP1 PUSH1 0x1 PUSH1 0x1 PUSH1 0x40 SHL SUB DUP3 GT PUSH2 0x453 JUMPI PUSH2 0x93C DUP3 PUSH2 0x6A0 DUP6 SLOAD PUSH2 0xFAC JUMP JUMPDEST PUSH1 0x20 SWAP1 PUSH1 0x1F DUP4 GT PUSH1 0x1 EQ PUSH2 0xB33 JUMPI DUP3 PUSH2 0x180 SWAP6 SWAP4 PUSH1 0xC SWAP6 SWAP4 PUSH2 0x974 SWAP4 PUSH1 0x0 SWAP3 PUSH2 0xB28 JUMPI POP POP DUP2 PUSH1 0x1 SHL SWAP2 PUSH1 0x0 NOT SWAP1 PUSH1 0x3 SHL SHR NOT AND OR SWAP1 JUMP JUMPDEST SWAP1 SSTORE JUMPDEST ADD SWAP6 ADD MLOAD SWAP5 PUSH1 0x3 DUP7 LT ISZERO PUSH2 0x248 JUMPI PUSH1 0x0 SWAP6 PUSH1 0xFF DUP1 NOT DUP4 SLOAD AND SWAP2 AND OR SWAP1 SSTORE DUP5 SLOAD PUSH9 0x10000000000000000 DUP2 LT ISZERO PUSH2 0xB00 JUMPI DUP1 PUSH1 0x1 PUSH2 0x9B6 SWAP3 ADD DUP8 SSTORE PUSH2 0x115E JUMP JUMPDEST SWAP7 SWAP1 SWAP7 PUSH2 0xB14 JUMPI PUSH1 0x1 PUSH1 0x1 PUSH1 0x40 SHL SUB DUP3 GT PUSH2 0xB00 JUMPI PUSH2 0x9DF DUP3 PUSH2 0x9D9 DUP10 SLOAD PUSH2 0xFAC JUMP JUMPDEST DUP10 PUSH2 0x118E JUMP JUMPDEST DUP6 SWAP7 PUSH1 0x1F DUP4 GT PUSH1 0x1 EQ PUSH2 0xA7C JUMPI PUSH2 0xA31 DUP4 DUP1 DUP10 SWAP11 PUSH32 0x11419415138C694473A0C3F4F8E450395791888AB0252860FACC797811DBE668 SWAP9 SWAP10 SWAP11 SWAP2 PUSH2 0xA71 JUMPI JUMPDEST POP DUP2 PUSH1 0x1 SHL SWAP2 PUSH1 0x0 NOT SWAP1 PUSH1 0x3 SHL SHR NOT AND OR SWAP1 JUMP JUMPDEST SWAP1 SSTORE JUMPDEST DUP2 DUP6 MLOAD SWAP3 DUP4 SWAP3 DUP4 CALLDATACOPY DUP2 ADD DUP8 DUP2 MSTORE SUB SWAP1 KECCAK256 SWAP3 DUP5 DUP2 MLOAD SWAP3 PUSH1 0x20 DUP5 MSTORE DUP2 PUSH1 0x20 DUP6 ADD MSTORE DUP3 DUP5 ADD CALLDATACOPY DUP6 DUP2 DUP7 DUP5 ADD ADD MSTORE DUP2 CALLER SWAP6 PUSH1 0x1F DUP1 NOT SWAP2 ADD AND DUP2 ADD SUB ADD SWAP1 LOG3 DUP1 RETURN JUMPDEST SWAP1 POP DUP5 ADD CALLDATALOAD DUP12 PUSH2 0xA1D JUMP JUMPDEST DUP1 DUP8 MSTORE PUSH1 0x20 DUP8 KECCAK256 PUSH1 0x1F NOT DUP5 AND SWAP9 DUP9 JUMPDEST DUP11 DUP2 LT PUSH2 0xAE8 JUMPI POP DUP5 PUSH32 0x11419415138C694473A0C3F4F8E450395791888AB0252860FACC797811DBE668 SWAP8 SWAP9 SWAP10 SWAP11 LT PUSH2 0xACE JUMPI JUMPDEST POP POP PUSH1 0x1 DUP4 DUP2 SHL ADD SWAP1 SSTORE PUSH2 0xA34 JUMP JUMPDEST DUP4 ADD CALLDATALOAD PUSH1 0x0 NOT PUSH1 0x3 DUP7 SWAP1 SHL PUSH1 0xF8 AND SHR NOT AND SWAP1 SSTORE DUP9 DUP1 PUSH2 0xABF JUMP JUMPDEST SWAP1 SWAP2 PUSH1 0x20 PUSH1 0x1 DUP2 SWAP3 DUP6 DUP9 ADD CALLDATALOAD DUP2 SSTORE ADD SWAP4 ADD SWAP2 ADD PUSH2 0xA8B JUMP JUMPDEST PUSH4 0x4E487B71 PUSH1 0xE0 SHL DUP7 MSTORE PUSH1 0x41 PUSH1 0x4 MSTORE PUSH1 0x24 DUP7 REVERT JUMPDEST PUSH4 0x4E487B71 PUSH1 0xE0 SHL DUP7 MSTORE PUSH1 0x4 DUP7 SWAP1 MSTORE PUSH1 0x24 DUP7 REVERT JUMPDEST ADD MLOAD SWAP1 POP DUP14 DUP1 PUSH2 0x6C2 JUMP JUMPDEST SWAP1 PUSH1 0x1F NOT DUP4 AND SWAP2 DUP5 PUSH1 0x0 MSTORE DUP2 PUSH1 0x0 KECCAK256 SWAP3 PUSH1 0x0 JUMPDEST DUP2 DUP2 LT PUSH2 0xB89 JUMPI POP SWAP3 PUSH1 0x1 SWAP3 DUP6 SWAP3 PUSH2 0x180 SWAP9 SWAP7 PUSH1 0xC SWAP9 SWAP7 LT PUSH2 0xB70 JUMPI JUMPDEST POP POP POP DUP2 SHL ADD SWAP1 SSTORE PUSH2 0x977 JUMP JUMPDEST ADD MLOAD PUSH1 0x0 NOT PUSH1 0xF8 DUP5 PUSH1 0x3 SHL AND SHR NOT AND SWAP1 SSTORE DUP13 DUP1 DUP1 PUSH2 0xB63 JUMP JUMPDEST SWAP3 SWAP4 PUSH1 0x20 PUSH1 0x1 DUP2 SWAP3 DUP8 DUP7 ADD MLOAD DUP2 SSTORE ADD SWAP6 ADD SWAP4 ADD PUSH2 0xB46 JUMP JUMPDEST ADD MLOAD SWAP1 POP DUP12 DUP1 PUSH2 0x6C2 JUMP JUMPDEST SWAP1 PUSH1 0x1F NOT DUP4 AND SWAP2 DUP5 PUSH1 0x0 MSTORE DUP2 PUSH1 0x0 KECCAK256 SWAP3 PUSH1 0x0 JUMPDEST DUP2 DUP2 LT PUSH2 0xBFB JUMPI POP SWAP1 DUP5 PUSH1 0x1 SWAP6 SWAP5 SWAP4 SWAP3 LT PUSH2 0xBE2 JUMPI JUMPDEST POP POP POP DUP2 SHL ADD SWAP1 SSTORE PUSH2 0x913 JUMP JUMPDEST ADD MLOAD PUSH1 0x0 NOT PUSH1 0xF8 DUP5 PUSH1 0x3 SHL AND SHR NOT AND SWAP1 SSTORE DUP11 DUP1 DUP1 PUSH2 0xBD5 JUMP JUMPDEST SWAP3 SWAP4 PUSH1 0x20 PUSH1 0x1 DUP2 SWAP3 DUP8 DUP7 ADD MLOAD DUP2 SSTORE ADD SWAP6 ADD SWAP4 ADD PUSH2 0xBBF JUMP JUMPDEST SWAP1 PUSH1 0x1F NOT DUP4 AND SWAP2 DUP5 PUSH1 0x0 MSTORE DUP2 PUSH1 0x0 KECCAK256 SWAP3 PUSH1 0x0 JUMPDEST DUP2 DUP2 LT PUSH2 0xC62 JUMPI POP SWAP1 DUP5 PUSH1 0x1 SWAP6 SWAP5 SWAP4 SWAP3 LT PUSH2 0xC49 JUMPI JUMPDEST POP POP POP DUP2 SHL ADD SWAP1 SSTORE PUSH2 0x8B7 JUMP JUMPDEST ADD MLOAD PUSH1 0x0 NOT PUSH1 0xF8 DUP5 PUSH1 0x3 SHL AND SHR NOT AND SWAP1 SSTORE DUP11 DUP1 DUP1 PUSH2 0xC3C JUMP JUMPDEST SWAP3 SWAP4 PUSH1 0x20 PUSH1 0x1 DUP2 SWAP3 DUP8 DUP7 ADD MLOAD DUP2 SSTORE ADD SWAP6 ADD SWAP4 ADD PUSH2 0xC26 JUMP JUMPDEST SWAP1 PUSH1 0x1F NOT DUP4 AND SWAP2 DUP5 PUSH1 0x0 MSTORE DUP2 PUSH1 0x0 KECCAK256 SWAP3 PUSH1 0x0 JUMPDEST DUP2 DUP2 LT PUSH2 0xCC9 JUMPI POP SWAP1 DUP5 PUSH1 0x1 SWAP6 SWAP5 SWAP4 SWAP3 LT PUSH2 0xCB0 JUMPI JUMPDEST POP POP POP DUP2 SHL ADD SWAP1 SSTORE PUSH2 0x85B JUMP JUMPDEST ADD MLOAD PUSH1 0x0 NOT PUSH1 0xF8 DUP5 PUSH1 0x3 SHL AND SHR NOT AND SWAP1 SSTORE DUP11 DUP1 DUP1 PUSH2 0xCA3 JUMP JUMPDEST SWAP3 SWAP4 PUSH1 0x20 PUSH1 0x1 DUP2 SWAP3 DUP8 DUP7 ADD MLOAD DUP2 SSTORE ADD SWAP6 ADD SWAP4 ADD PUSH2 0xC8D JUMP JUMPDEST SWAP1 PUSH1 0x1F NOT DUP4 AND SWAP2 DUP5 PUSH1 0x0 MSTORE DUP2 PUSH1 0x0 KECCAK256 SWAP3 PUSH1 0x0 JUMPDEST DUP2 DUP2 LT PUSH2 0xD30 JUMPI POP SWAP1 DUP5 PUSH1 0x1 SWAP6 SWAP5 SWAP4 SWAP3 LT PUSH2 0xD17 JUMPI JUMPDEST POP POP POP DUP2 SHL ADD SWAP1 SSTORE PUSH2 0x7FF JUMP JUMPDEST ADD MLOAD PUSH1 0x0 NOT PUSH1 0xF8 DUP5 PUSH1 0x3 SHL AND SHR NOT AND SWAP1 SSTORE DUP11 DUP1 DUP1 PUSH2 0xD0A JUMP JUMPDEST SWAP3 SWAP4 PUSH1 0x20 PUSH1 0x1 DUP2 SWAP3 DUP8 DUP7 ADD MLOAD DUP2 SSTORE ADD SWAP6 ADD SWAP4 ADD PUSH2 0xCF4 JUMP JUMPDEST SWAP1 PUSH1 0x1F NOT DUP4 AND SWAP2 DUP5 PUSH1 0x0 MSTORE DUP2 PUSH1 0x0 KECCAK256 SWAP3 PUSH1 0x0 JUMPDEST DUP2 DUP2 LT PUSH2 0xD97 JUMPI POP SWAP1 DUP5 PUSH1 0x1 SWAP6 SWAP5 SWAP4 SWAP3 LT PUSH2 0xD7E JUMPI JUMPDEST POP POP POP DUP2 SHL ADD SWAP1 SSTORE PUSH2 0x7A4 JUMP JUMPDEST ADD MLOAD PUSH1 0x0 NOT PUSH1 0xF8 DUP5 PUSH1 0x3 SHL AND SHR NOT AND SWAP1 SSTORE DUP11 DUP1 DUP1 PUSH2 0xD71 JUMP JUMPDEST SWAP3 SWAP4 PUSH1 0x20 PUSH1 0x1 DUP2 SWAP3 DUP8 DUP7 ADD MLOAD DUP2 SSTORE ADD SWAP6 ADD SWAP4 ADD PUSH2 0xD5B JUMP JUMPDEST SWAP1 PUSH1 0x1F NOT DUP4 AND SWAP2 DUP5 PUSH1 0x0 MSTORE DUP2 PUSH1 0x0 KECCAK256 SWAP3 PUSH1 0x0 JUMPDEST DUP2 DUP2 LT PUSH2 0xDFE JUMPI POP SWAP1 DUP5 PUSH1 0x1 SWAP6 SWAP5 SWAP4 SWAP3 LT PUSH2 0xDE5 JUMPI JUMPDEST POP POP POP DUP2 SHL ADD SWAP1 SSTORE PUSH2 0x749 JUMP JUMPDEST ADD MLOAD PUSH1 0x0 NOT PUSH1 0xF8 DUP5 PUSH1 0x3 SHL AND SHR NOT AND SWAP1 SSTORE DUP11 DUP1 DUP1 PUSH2 0xDD8 JUMP JUMPDEST SWAP3 SWAP4 PUSH1 0x20 PUSH1 0x1 DUP2 SWAP3 DUP8 DUP7 ADD MLOAD DUP2 SSTORE ADD SWAP6 ADD SWAP4 ADD PUSH2 0xDC2 JUMP JUMPDEST SWAP1 PUSH1 0x1F NOT DUP4 AND SWAP2 DUP5 PUSH1 0x0 MSTORE DUP2 PUSH1 0x0 KECCAK256 SWAP3 PUSH1 0x0 JUMPDEST DUP2 DUP2 LT PUSH2 0xE65 JUMPI POP SWAP1 DUP5 PUSH1 0x1 SWAP6 SWAP5 SWAP4 SWAP3 LT PUSH2 0xE4C JUMPI JUMPDEST POP POP POP DUP2 SHL ADD SWAP1 SSTORE PUSH2 0x6DA JUMP JUMPDEST ADD MLOAD PUSH1 0x0 NOT PUSH1 0xF8 DUP5 PUSH1 0x3 SHL AND SHR NOT AND SWAP1 SSTORE DUP11 DUP1 DUP1 PUSH2 0xE3F JUMP JUMPDEST SWAP3 SWAP4 PUSH1 0x20 PUSH1 0x1 DUP2 SWAP3 DUP8 DUP7 ADD MLOAD DUP2 SSTORE ADD SWAP6 ADD SWAP4 ADD PUSH2 0xE29 JUMP JUMPDEST PUSH3 0x461BCD PUSH1 0xE5 SHL DUP2 MSTORE PUSH1 0x20 PUSH1 0x4 DUP3 ADD MSTORE PUSH1 0x12 PUSH1 0x24 DUP3 ADD MSTORE PUSH18 0x125B9D985B1A590814995C5D595CDD081251 PUSH1 0x72 SHL PUSH1 0x44 DUP3 ADD MSTORE PUSH1 0x64 SWAP1 REVERT JUMPDEST SWAP2 DUP2 PUSH1 0x1F DUP5 ADD SLT ISZERO PUSH2 0xBB JUMPI DUP3 CALLDATALOAD SWAP2 PUSH1 0x1 PUSH1 0x1 PUSH1 0x40 SHL SUB DUP4 GT PUSH2 0xBB JUMPI PUSH1 0x20 DUP4 DUP2 DUP7 ADD SWAP6 ADD ADD GT PUSH2 0xBB JUMPI JUMP JUMPDEST PUSH1 0x0 JUMPDEST DUP4 DUP2 LT PUSH2 0xEF4 JUMPI POP POP PUSH1 0x0 SWAP2 ADD MSTORE JUMP JUMPDEST DUP2 DUP2 ADD MLOAD DUP4 DUP3 ADD MSTORE PUSH1 0x20 ADD PUSH2 0xEE4 JUMP JUMPDEST SWAP1 PUSH1 0x20 SWAP2 PUSH2 0xF1D DUP2 MLOAD DUP1 SWAP3 DUP2 DUP6 MSTORE DUP6 DUP1 DUP7 ADD SWAP2 ADD PUSH2 0xEE1 JUMP JUMPDEST PUSH1 0x1F ADD PUSH1 0x1F NOT AND ADD ADD SWAP1 JUMP JUMPDEST PUSH2 0x1A0 DUP2 ADD SWAP1 DUP2 LT PUSH1 0x1 PUSH1 0x1 PUSH1 0x40 SHL SUB DUP3 GT OR PUSH2 0x453 JUMPI PUSH1 0x40 MSTORE JUMP JUMPDEST SWAP1 PUSH1 0x1F DUP1 NOT SWAP2 ADD AND DUP2 ADD SWAP1 DUP2 LT PUSH1 0x1 PUSH1 0x1 PUSH1 0x40 SHL SUB DUP3 GT OR PUSH2 0x453 JUMPI PUSH1 0x40 MSTORE JUMP JUMPDEST SWAP3 SWAP2 SWAP3 PUSH1 0x1 PUSH1 0x1 PUSH1 0x40 SHL SUB DUP3 GT PUSH2 0x453 JUMPI PUSH1 0x40 MLOAD SWAP2 PUSH2 0xF8F PUSH1 0x1F DUP3 ADD PUSH1 0x1F NOT AND PUSH1 0x20 ADD DUP5 PUSH2 0xF45 JUMP JUMPDEST DUP3 SWAP5 DUP2 DUP5 MSTORE DUP2 DUP4 ADD GT PUSH2 0xBB JUMPI DUP3 DUP2 PUSH1 0x20 SWAP4 DUP5 PUSH1 0x0 SWAP7 ADD CALLDATACOPY ADD ADD MSTORE JUMP JUMPDEST SWAP1 PUSH1 0x1 DUP3 DUP2 SHR SWAP3 AND DUP1 ISZERO PUSH2 0xFDC JUMPI JUMPDEST PUSH1 0x20 DUP4 LT EQ PUSH2 0xFC6 JUMPI JUMP JUMPDEST PUSH4 0x4E487B71 PUSH1 0xE0 SHL PUSH1 0x0 MSTORE PUSH1 0x22 PUSH1 0x4 MSTORE PUSH1 0x24 PUSH1 0x0 REVERT JUMPDEST SWAP2 PUSH1 0x7F AND SWAP2 PUSH2 0xFBB JUMP JUMPDEST SWAP1 PUSH1 0x40 MLOAD SWAP2 DUP3 PUSH1 0x0 DUP3 SLOAD SWAP3 PUSH2 0xFFA DUP5 PUSH2 0xFAC JUMP JUMPDEST DUP1 DUP5 MSTORE SWAP4 PUSH1 0x1 DUP2 AND SWAP1 DUP2 ISZERO PUSH2 0x1068 JUMPI POP PUSH1 0x1 EQ PUSH2 0x1021 JUMPI JUMPDEST POP PUSH2 0x101F SWAP3 POP SUB DUP4 PUSH2 0xF45 JUMP JUMPDEST JUMP JUMPDEST SWAP1 POP PUSH1 0x0 SWAP3 SWAP2 SWAP3 MSTORE PUSH1 0x20 PUSH1 0x0 KECCAK256 SWAP1 PUSH1 0x0 SWAP2 JUMPDEST DUP2 DUP4 LT PUSH2 0x104C JUMPI POP POP SWAP1 PUSH1 0x20 PUSH2 0x101F SWAP3 DUP3 ADD ADD CODESIZE PUSH2 0x1012 JUMP JUMPDEST PUSH1 0x20 SWAP2 SWAP4 POP DUP1 PUSH1 0x1 SWAP2 SLOAD DUP4 DUP6 DUP10 ADD ADD MSTORE ADD SWAP2 ADD SWAP1 SWAP2 DUP5 SWAP3 PUSH2 0x1033 JUMP JUMPDEST SWAP1 POP PUSH1 0x20 SWAP3 POP PUSH2 0x101F SWAP5 SWAP2 POP PUSH1 0xFF NOT AND DUP3 DUP5 ADD MSTORE ISZERO ISZERO PUSH1 0x5 SHL DUP3 ADD ADD CODESIZE PUSH2 0x1012 JUMP JUMPDEST PUSH2 0x112F SWAP8 DUP2 SWAP16 SWAP15 SWAP14 SWAP12 SWAP8 PUSH2 0x113E SWAP12 SWAP7 PUSH2 0x10F5 SWAP2 PUSH2 0x114D SWAP16 SWAP13 SWAP7 SWAP10 PUSH2 0x10DD PUSH2 0x1111 SWAP10 PUSH2 0x1120 SWAP13 PUSH2 0x1103 SWAP10 PUSH1 0x1 DUP1 PUSH1 0xA0 SHL SUB AND DUP10 MSTORE PUSH1 0x1 DUP1 PUSH1 0xA0 SHL SUB AND PUSH1 0x20 DUP10 ADD MSTORE PUSH2 0x1A0 PUSH1 0x40 DUP10 ADD MSTORE PUSH2 0x1A0 DUP9 ADD SWAP1 PUSH2 0xF04 JUMP JUMPDEST SWAP3 PUSH1 0x60 DUP8 ADD MSTORE PUSH1 0x80 DUP7 ADD MSTORE DUP5 DUP3 SUB PUSH1 0xA0 DUP7 ADD MSTORE PUSH2 0xF04 JUMP JUMPDEST SWAP2 PUSH1 0xC0 DUP2 DUP5 SUB SWAP2 ADD MSTORE PUSH2 0xF04 JUMP JUMPDEST DUP14 DUP2 SUB PUSH1 0xE0 DUP16 ADD MSTORE SWAP1 PUSH2 0xF04 JUMP JUMPDEST SWAP1 DUP12 DUP3 SUB PUSH2 0x100 DUP14 ADD MSTORE PUSH2 0xF04 JUMP JUMPDEST SWAP1 DUP10 DUP3 SUB PUSH2 0x120 DUP12 ADD MSTORE PUSH2 0xF04 JUMP JUMPDEST SWAP1 DUP8 DUP3 SUB PUSH2 0x140 DUP10 ADD MSTORE PUSH2 0xF04 JUMP JUMPDEST SWAP1 DUP6 DUP3 SUB PUSH2 0x160 DUP8 ADD MSTORE PUSH2 0xF04 JUMP JUMPDEST SWAP3 PUSH1 0x3 DUP3 LT ISZERO PUSH2 0x248 JUMPI PUSH2 0x180 ADD MSTORE JUMP JUMPDEST PUSH1 0x0 SLOAD DUP2 LT ISZERO PUSH2 0x1178 JUMPI PUSH1 0x0 DUP1 MSTORE PUSH1 0x20 PUSH1 0x0 KECCAK256 ADD SWAP1 PUSH1 0x0 SWAP1 JUMP JUMPDEST PUSH4 0x4E487B71 PUSH1 0xE0 SHL PUSH1 0x0 MSTORE PUSH1 0x32 PUSH1 0x4 MSTORE PUSH1 0x24 PUSH1 0x0 REVERT JUMPDEST PUSH1 0x1F DUP3 GT PUSH2 0x119B JUMPI POP POP POP JUMP JUMPDEST PUSH1 0x0 MSTORE PUSH1 0x20 PUSH1 0x0 KECCAK256 SWAP1 PUSH1 0x20 PUSH1 0x1F DUP5 ADD PUSH1 0x5 SHR DUP4 ADD SWAP4 LT PUSH2 0x11D6 JUMPI JUMPDEST PUSH1 0x1F ADD PUSH1 0x5 SHR ADD SWAP1 JUMPDEST DUP2 DUP2 LT PUSH2 0x11CA JUMPI POP POP JUMP JUMPDEST PUSH1 0x0 DUP2 SSTORE PUSH1 0x1 ADD PUSH2 0x11BF JUMP JUMPDEST SWAP1 SWAP2 POP DUP2 SWAP1 PUSH2 0x11B6 JUMP INVALID LOG2 PUSH5 0x6970667358 0x22 SLT KECCAK256 CREATE2 0xE8 0x4E MSTORE DIV 0xEA TSTORE PUSH32 0x8A48500BE190C3A1BB2DF1F991C9547766E3247BF303E8D364736F6C63430008 SHL STOP CALLER "},"methodIdentifiers":{"get_all_obat()":"49bd9672","get_obat_byId(string)":"a6dddde3","idObat(uint256)":"c723c191","obatData(string)":"75711f49","obat_production(string,string,string,string,string,string,string)":"0e96e278"}}}}}