{"contracts/RoleManager.sol":{"RoleManager":{"abi":[{"anonymous":false,"inputs":[{"indexed":true,"internalType":"address","name":"user","type":"address"},{"indexed":false,"internalType":"enum EnumsLibrary.Roles","name":"role","type":"uint8"}],"name":"RoleAssigned","type":"event"},{"anonymous":false,"inputs":[{"indexed":true,"internalType":"address","name":"userAddr","type":"address"},{"indexed":false,"internalType":"string","name":"name","type":"string"},{"indexed":false,"internalType":"string","name":"instanceName","type":"string"},{"indexed":false,"internalType":"enum EnumsLibrary.Roles","name":"role","type":"uint8"}],"name":"UserRegistered","type":"event"},{"inputs":[{"internalType":"address","name":"_userAddr","type":"address"}],"name":"checkRegistration","outputs":[{"internalType":"bool","name":"","type":"bool"}],"stateMutability":"view","type":"function"},{"inputs":[{"internalType":"address","name":"_userAddr","type":"address"}],"name":"getRegisteredUser","outputs":[{"internalType":"string","name":"","type":"string"},{"internalType":"string","name":"","type":"string"},{"internalType":"address","name":"","type":"address"},{"internalType":"enum EnumsLibrary.Roles","name":"","type":"uint8"}],"stateMutability":"view","type":"function"},{"inputs":[{"internalType":"address","name":"_userAddr","type":"address"},{"internalType":"enum EnumsLibrary.Roles","name":"_role","type":"uint8"}],"name":"hasRole","outputs":[{"internalType":"bool","name":"","type":"bool"}],"stateMutability":"view","type":"function"},{"inputs":[{"internalType":"string","name":"_name","type":"string"},{"internalType":"string","name":"_instanceName","type":"string"},{"internalType":"address","name":"_userAddr","type":"address"},{"internalType":"enum EnumsLibrary.Roles","name":"_role","type":"uint8"}],"name":"registerUser","outputs":[],"stateMutability":"nonpayable","type":"function"}],"evm":{"bytecode":{"linkReferences":{},"object":"608080604052346015576108b4908161001b8239f35b600080fdfe608080604052600436101561001357600080fd5b60003560e01c90816395a8c58d1461061b57508063d1233672146101de578063e2a412831461019f5763e54a29bb1461004b57600080fd5b3461019a57602036600319011261019a576001600160a01b0361006c61069b565b1680600052600160205260ff604060002054161561015c57600052600060205260406000206040519061009e826106b1565b6100a7816107da565b825260026100b7600183016107da565b602084019081529101546001600160a01b038116604084019081529260608101916100e89060a01c60ff1683610794565b51915192519051926001600160a01b03909116906004841015610146576101249361013261014292604051968796608088526080880190610746565b908682036020880152610746565b9260408501526060840190610787565b0390f35b634e487b7160e01b600052602160045260246000fd5b60405162461bcd60e51b8152602060048201526016602482015275155cd95c881a5cc81b9bdd081c9959da5cdd195c995960521b6044820152606490fd5b600080fd5b3461019a57602036600319011261019a576001600160a01b036101c061069b565b166000526001602052602060ff604060002054166040519015158152f35b3461019a57608036600319011261019a5760043567ffffffffffffffff811161019a5761020f9036906004016106ef565b60243567ffffffffffffffff811161019a5761022f9036906004016106ef565b906044356001600160a01b038116919082900361019a57606435600481101561019a5782600052600160205260ff604060002054166105d65760405190610275826106b1565b8282526020820194808652604083019285845260608101966102978489610794565b8660005260006020526040600020915180519067ffffffffffffffff82116104fd5781906102c585546107a0565b601f8111610583575b50602090601f831160011461051e57600092610513575b50508160011b916000199060031b1c19161782555b518051600183019167ffffffffffffffff82116104fd5761031b83546107a0565b601f81116104b5575b50602090601f831160011461044a576002949392916000918361043f575b50508160011b916000199060031b1c19161790555b9351930180549651966001600160a01b03909416936004881015610146577f4ac36fa53f167ceb85964be512e01de2a3b8bdb9862f917da079deeeff689b389561041e88947fb55f2195f4d9bf657054eaed9581ba0a67e1eec660941cf665585e5352fcbea0946104119460209960009d60ff60a01b9060a01b16916affffffffffffffffffffff60a81b1617179055858b526001885260408b20600160ff19825416179055604051938493606085526060850190610746565b9083820389850152610746565b61042b6040830187610787565b0390a261043b6040518092610787565ba280f35b015190508b80610342565b90601f1983169184600052816000209260005b81811061049d575091600193918560029897969410610484575b505050811b019055610357565b015160001960f88460031b161c191690558b8080610477565b9293602060018192878601518155019501930161045d565b836000526020600020601f840160051c810191602085106104f3575b601f0160051c01905b8181106104e75750610324565b600081556001016104da565b90915081906104d1565b634e487b7160e01b600052604160045260246000fd5b015190508a806102e5565b60008681528281209350601f198516905b81811061056b5750908460019594939210610552575b505050811b0182556102fa565b015160001960f88460031b161c191690558a8080610545565b9293602060018192878601518155019501930161052f565b909150846000526020600020601f840160051c810191602085106105cc575b90601f859493920160051c01905b8181106105bd57506102ce565b600081558493506001016105b0565b90915081906105a2565b60405162461bcd60e51b815260206004820152601760248201527f5573657220616c726561647920726567697374657265640000000000000000006044820152606490fd5b3461019a57604036600319011261019a5761063461069b565b9060243591600483101561019a576001600160a01b031660008181526001602052604090205460ff16908161066e575b6020838315158152f35b9050600052600060205260ff60026040600020015460a01c16916004831015610146576020921483610664565b600435906001600160a01b038216820361019a57565b6080810190811067ffffffffffffffff8211176104fd57604052565b90601f8019910116810190811067ffffffffffffffff8211176104fd57604052565b81601f8201121561019a5780359067ffffffffffffffff82116104fd5760405192610724601f8401601f1916602001856106cd565b8284526020838301011161019a57816000926020809301838601378301015290565b919082519283825260005b848110610772575050826000602080949584010152601f8019910116010190565b80602080928401015182828601015201610751565b9060048210156101465752565b60048210156101465752565b90600182811c921680156107d0575b60208310146107ba57565b634e487b7160e01b600052602260045260246000fd5b91607f16916107af565b90604051918260008254926107ee846107a0565b808452936001811690811561085c5750600114610815575b50610813925003836106cd565b565b90506000929192526020600020906000915b8183106108405750509060206108139282010138610806565b6020919350806001915483858901015201910190918492610827565b90506020925061081394915060ff191682840152151560051b8201013861080656fea2646970667358221220b0556d2161bba46ca143b63c6cd933383190e70768d62a21836414bf122e522d64736f6c634300081b0033","opcodes":"PUSH1 0x80 DUP1 PUSH1 0x40 MSTORE CALLVALUE PUSH1 0x15 JUMPI PUSH2 0x8B4 SWAP1 DUP2 PUSH2 0x1B DUP3 CODECOPY RETURN JUMPDEST PUSH1 0x0 DUP1 REVERT INVALID PUSH1 0x80 DUP1 PUSH1 0x40 MSTORE PUSH1 0x4 CALLDATASIZE LT ISZERO PUSH2 0x13 JUMPI PUSH1 0x0 DUP1 REVERT JUMPDEST PUSH1 0x0 CALLDATALOAD PUSH1 0xE0 SHR SWAP1 DUP2 PUSH4 0x95A8C58D EQ PUSH2 0x61B JUMPI POP DUP1 PUSH4 0xD1233672 EQ PUSH2 0x1DE JUMPI DUP1 PUSH4 0xE2A41283 EQ PUSH2 0x19F JUMPI PUSH4 0xE54A29BB EQ PUSH2 0x4B JUMPI PUSH1 0x0 DUP1 REVERT JUMPDEST CALLVALUE PUSH2 0x19A JUMPI PUSH1 0x20 CALLDATASIZE PUSH1 0x3 NOT ADD SLT PUSH2 0x19A JUMPI PUSH1 0x1 PUSH1 0x1 PUSH1 0xA0 SHL SUB PUSH2 0x6C PUSH2 0x69B JUMP JUMPDEST AND DUP1 PUSH1 0x0 MSTORE PUSH1 0x1 PUSH1 0x20 MSTORE PUSH1 0xFF PUSH1 0x40 PUSH1 0x0 KECCAK256 SLOAD AND ISZERO PUSH2 0x15C JUMPI PUSH1 0x0 MSTORE PUSH1 0x0 PUSH1 0x20 MSTORE PUSH1 0x40 PUSH1 0x0 KECCAK256 PUSH1 0x40 MLOAD SWAP1 PUSH2 0x9E DUP3 PUSH2 0x6B1 JUMP JUMPDEST PUSH2 0xA7 DUP2 PUSH2 0x7DA JUMP JUMPDEST DUP3 MSTORE PUSH1 0x2 PUSH2 0xB7 PUSH1 0x1 DUP4 ADD PUSH2 0x7DA JUMP JUMPDEST PUSH1 0x20 DUP5 ADD SWAP1 DUP2 MSTORE SWAP2 ADD SLOAD PUSH1 0x1 PUSH1 0x1 PUSH1 0xA0 SHL SUB DUP2 AND PUSH1 0x40 DUP5 ADD SWAP1 DUP2 MSTORE SWAP3 PUSH1 0x60 DUP2 ADD SWAP2 PUSH2 0xE8 SWAP1 PUSH1 0xA0 SHR PUSH1 0xFF AND DUP4 PUSH2 0x794 JUMP JUMPDEST MLOAD SWAP2 MLOAD SWAP3 MLOAD SWAP1 MLOAD SWAP3 PUSH1 0x1 PUSH1 0x1 PUSH1 0xA0 SHL SUB SWAP1 SWAP2 AND SWAP1 PUSH1 0x4 DUP5 LT ISZERO PUSH2 0x146 JUMPI PUSH2 0x124 SWAP4 PUSH2 0x132 PUSH2 0x142 SWAP3 PUSH1 0x40 MLOAD SWAP7 DUP8 SWAP7 PUSH1 0x80 DUP9 MSTORE PUSH1 0x80 DUP9 ADD SWAP1 PUSH2 0x746 JUMP JUMPDEST SWAP1 DUP7 DUP3 SUB PUSH1 0x20 DUP9 ADD MSTORE PUSH2 0x746 JUMP JUMPDEST SWAP3 PUSH1 0x40 DUP6 ADD MSTORE PUSH1 0x60 DUP5 ADD SWAP1 PUSH2 0x787 JUMP JUMPDEST SUB SWAP1 RETURN JUMPDEST PUSH4 0x4E487B71 PUSH1 0xE0 SHL PUSH1 0x0 MSTORE PUSH1 0x21 PUSH1 0x4 MSTORE PUSH1 0x24 PUSH1 0x0 REVERT JUMPDEST PUSH1 0x40 MLOAD PUSH3 0x461BCD PUSH1 0xE5 SHL DUP2 MSTORE PUSH1 0x20 PUSH1 0x4 DUP3 ADD MSTORE PUSH1 0x16 PUSH1 0x24 DUP3 ADD MSTORE PUSH22 0x155CD95C881A5CC81B9BDD081C9959DA5CDD195C9959 PUSH1 0x52 SHL PUSH1 0x44 DUP3 ADD MSTORE PUSH1 0x64 SWAP1 REVERT JUMPDEST PUSH1 0x0 DUP1 REVERT JUMPDEST CALLVALUE PUSH2 0x19A JUMPI PUSH1 0x20 CALLDATASIZE PUSH1 0x3 NOT ADD SLT PUSH2 0x19A JUMPI PUSH1 0x1 PUSH1 0x1 PUSH1 0xA0 SHL SUB PUSH2 0x1C0 PUSH2 0x69B JUMP JUMPDEST AND PUSH1 0x0 MSTORE PUSH1 0x1 PUSH1 0x20 MSTORE PUSH1 0x20 PUSH1 0xFF PUSH1 0x40 PUSH1 0x0 KECCAK256 SLOAD AND PUSH1 0x40 MLOAD SWAP1 ISZERO ISZERO DUP2 MSTORE RETURN JUMPDEST CALLVALUE PUSH2 0x19A JUMPI PUSH1 0x80 CALLDATASIZE PUSH1 0x3 NOT ADD SLT PUSH2 0x19A JUMPI PUSH1 0x4 CALLDATALOAD PUSH8 0xFFFFFFFFFFFFFFFF DUP2 GT PUSH2 0x19A JUMPI PUSH2 0x20F SWAP1 CALLDATASIZE SWAP1 PUSH1 0x4 ADD PUSH2 0x6EF JUMP JUMPDEST PUSH1 0x24 CALLDATALOAD PUSH8 0xFFFFFFFFFFFFFFFF DUP2 GT PUSH2 0x19A JUMPI PUSH2 0x22F SWAP1 CALLDATASIZE SWAP1 PUSH1 0x4 ADD PUSH2 0x6EF JUMP JUMPDEST SWAP1 PUSH1 0x44 CALLDATALOAD PUSH1 0x1 PUSH1 0x1 PUSH1 0xA0 SHL SUB DUP2 AND SWAP2 SWAP1 DUP3 SWAP1 SUB PUSH2 0x19A JUMPI PUSH1 0x64 CALLDATALOAD PUSH1 0x4 DUP2 LT ISZERO PUSH2 0x19A JUMPI DUP3 PUSH1 0x0 MSTORE PUSH1 0x1 PUSH1 0x20 MSTORE PUSH1 0xFF PUSH1 0x40 PUSH1 0x0 KECCAK256 SLOAD AND PUSH2 0x5D6 JUMPI PUSH1 0x40 MLOAD SWAP1 PUSH2 0x275 DUP3 PUSH2 0x6B1 JUMP JUMPDEST DUP3 DUP3 MSTORE PUSH1 0x20 DUP3 ADD SWAP5 DUP1 DUP7 MSTORE PUSH1 0x40 DUP4 ADD SWAP3 DUP6 DUP5 MSTORE PUSH1 0x60 DUP2 ADD SWAP7 PUSH2 0x297 DUP5 DUP10 PUSH2 0x794 JUMP JUMPDEST DUP7 PUSH1 0x0 MSTORE PUSH1 0x0 PUSH1 0x20 MSTORE PUSH1 0x40 PUSH1 0x0 KECCAK256 SWAP2 MLOAD DUP1 MLOAD SWAP1 PUSH8 0xFFFFFFFFFFFFFFFF DUP3 GT PUSH2 0x4FD JUMPI DUP2 SWAP1 PUSH2 0x2C5 DUP6 SLOAD PUSH2 0x7A0 JUMP JUMPDEST PUSH1 0x1F DUP2 GT PUSH2 0x583 JUMPI JUMPDEST POP PUSH1 0x20 SWAP1 PUSH1 0x1F DUP4 GT PUSH1 0x1 EQ PUSH2 0x51E JUMPI PUSH1 0x0 SWAP3 PUSH2 0x513 JUMPI JUMPDEST POP POP DUP2 PUSH1 0x1 SHL SWAP2 PUSH1 0x0 NOT SWAP1 PUSH1 0x3 SHL SHR NOT AND OR DUP3 SSTORE JUMPDEST MLOAD DUP1 MLOAD PUSH1 0x1 DUP4 ADD SWAP2 PUSH8 0xFFFFFFFFFFFFFFFF DUP3 GT PUSH2 0x4FD JUMPI PUSH2 0x31B DUP4 SLOAD PUSH2 0x7A0 JUMP JUMPDEST PUSH1 0x1F DUP2 GT PUSH2 0x4B5 JUMPI JUMPDEST POP PUSH1 0x20 SWAP1 PUSH1 0x1F DUP4 GT PUSH1 0x1 EQ PUSH2 0x44A JUMPI PUSH1 0x2 SWAP5 SWAP4 SWAP3 SWAP2 PUSH1 0x0 SWAP2 DUP4 PUSH2 0x43F JUMPI JUMPDEST POP POP DUP2 PUSH1 0x1 SHL SWAP2 PUSH1 0x0 NOT SWAP1 PUSH1 0x3 SHL SHR NOT AND OR SWAP1 SSTORE JUMPDEST SWAP4 MLOAD SWAP4 ADD DUP1 SLOAD SWAP7 MLOAD SWAP7 PUSH1 0x1 PUSH1 0x1 PUSH1 0xA0 SHL SUB SWAP1 SWAP5 AND SWAP4 PUSH1 0x4 DUP9 LT ISZERO PUSH2 0x146 JUMPI PUSH32 0x4AC36FA53F167CEB85964BE512E01DE2A3B8BDB9862F917DA079DEEEFF689B38 SWAP6 PUSH2 0x41E DUP9 SWAP5 PUSH32 0xB55F2195F4D9BF657054EAED9581BA0A67E1EEC660941CF665585E5352FCBEA0 SWAP5 PUSH2 0x411 SWAP5 PUSH1 0x20 SWAP10 PUSH1 0x0 SWAP14 PUSH1 0xFF PUSH1 0xA0 SHL SWAP1 PUSH1 0xA0 SHL AND SWAP2 PUSH11 0xFFFFFFFFFFFFFFFFFFFFFF PUSH1 0xA8 SHL AND OR OR SWAP1 SSTORE DUP6 DUP12 MSTORE PUSH1 0x1 DUP9 MSTORE PUSH1 0x40 DUP12 KECCAK256 PUSH1 0x1 PUSH1 0xFF NOT DUP3 SLOAD AND OR SWAP1 SSTORE PUSH1 0x40 MLOAD SWAP4 DUP5 SWAP4 PUSH1 0x60 DUP6 MSTORE PUSH1 0x60 DUP6 ADD SWAP1 PUSH2 0x746 JUMP JUMPDEST SWAP1 DUP4 DUP3 SUB DUP10 DUP6 ADD MSTORE PUSH2 0x746 JUMP JUMPDEST PUSH2 0x42B PUSH1 0x40 DUP4 ADD DUP8 PUSH2 0x787 JUMP JUMPDEST SUB SWAP1 LOG2 PUSH2 0x43B PUSH1 0x40 MLOAD DUP1 SWAP3 PUSH2 0x787 JUMP JUMPDEST LOG2 DUP1 RETURN JUMPDEST ADD MLOAD SWAP1 POP DUP12 DUP1 PUSH2 0x342 JUMP JUMPDEST SWAP1 PUSH1 0x1F NOT DUP4 AND SWAP2 DUP5 PUSH1 0x0 MSTORE DUP2 PUSH1 0x0 KECCAK256 SWAP3 PUSH1 0x0 JUMPDEST DUP2 DUP2 LT PUSH2 0x49D JUMPI POP SWAP2 PUSH1 0x1 SWAP4 SWAP2 DUP6 PUSH1 0x2 SWAP9 SWAP8 SWAP7 SWAP5 LT PUSH2 0x484 JUMPI JUMPDEST POP POP POP DUP2 SHL ADD SWAP1 SSTORE PUSH2 0x357 JUMP JUMPDEST ADD MLOAD PUSH1 0x0 NOT PUSH1 0xF8 DUP5 PUSH1 0x3 SHL AND SHR NOT AND SWAP1 SSTORE DUP12 DUP1 DUP1 PUSH2 0x477 JUMP JUMPDEST SWAP3 SWAP4 PUSH1 0x20 PUSH1 0x1 DUP2 SWAP3 DUP8 DUP7 ADD MLOAD DUP2 SSTORE ADD SWAP6 ADD SWAP4 ADD PUSH2 0x45D JUMP JUMPDEST DUP4 PUSH1 0x0 MSTORE PUSH1 0x20 PUSH1 0x0 KECCAK256 PUSH1 0x1F DUP5 ADD PUSH1 0x5 SHR DUP2 ADD SWAP2 PUSH1 0x20 DUP6 LT PUSH2 0x4F3 JUMPI JUMPDEST PUSH1 0x1F ADD PUSH1 0x5 SHR ADD SWAP1 JUMPDEST DUP2 DUP2 LT PUSH2 0x4E7 JUMPI POP PUSH2 0x324 JUMP JUMPDEST PUSH1 0x0 DUP2 SSTORE PUSH1 0x1 ADD PUSH2 0x4DA JUMP JUMPDEST SWAP1 SWAP2 POP DUP2 SWAP1 PUSH2 0x4D1 JUMP JUMPDEST PUSH4 0x4E487B71 PUSH1 0xE0 SHL PUSH1 0x0 MSTORE PUSH1 0x41 PUSH1 0x4 MSTORE PUSH1 0x24 PUSH1 0x0 REVERT JUMPDEST ADD MLOAD SWAP1 POP DUP11 DUP1 PUSH2 0x2E5 JUMP JUMPDEST PUSH1 0x0 DUP7 DUP2 MSTORE DUP3 DUP2 KECCAK256 SWAP4 POP PUSH1 0x1F NOT DUP6 AND SWAP1 JUMPDEST DUP2 DUP2 LT PUSH2 0x56B JUMPI POP SWAP1 DUP5 PUSH1 0x1 SWAP6 SWAP5 SWAP4 SWAP3 LT PUSH2 0x552 JUMPI JUMPDEST POP POP POP DUP2 SHL ADD DUP3 SSTORE PUSH2 0x2FA JUMP JUMPDEST ADD MLOAD PUSH1 0x0 NOT PUSH1 0xF8 DUP5 PUSH1 0x3 SHL AND SHR NOT AND SWAP1 SSTORE DUP11 DUP1 DUP1 PUSH2 0x545 JUMP JUMPDEST SWAP3 SWAP4 PUSH1 0x20 PUSH1 0x1 DUP2 SWAP3 DUP8 DUP7 ADD MLOAD DUP2 SSTORE ADD SWAP6 ADD SWAP4 ADD PUSH2 0x52F JUMP JUMPDEST SWAP1 SWAP2 POP DUP5 PUSH1 0x0 MSTORE PUSH1 0x20 PUSH1 0x0 KECCAK256 PUSH1 0x1F DUP5 ADD PUSH1 0x5 SHR DUP2 ADD SWAP2 PUSH1 0x20 DUP6 LT PUSH2 0x5CC JUMPI JUMPDEST SWAP1 PUSH1 0x1F DUP6 SWAP5 SWAP4 SWAP3 ADD PUSH1 0x5 SHR ADD SWAP1 JUMPDEST DUP2 DUP2 LT PUSH2 0x5BD JUMPI POP PUSH2 0x2CE JUMP JUMPDEST PUSH1 0x0 DUP2 SSTORE DUP5 SWAP4 POP PUSH1 0x1 ADD PUSH2 0x5B0 JUMP JUMPDEST SWAP1 SWAP2 POP DUP2 SWAP1 PUSH2 0x5A2 JUMP JUMPDEST PUSH1 0x40 MLOAD PUSH3 0x461BCD PUSH1 0xE5 SHL DUP2 MSTORE PUSH1 0x20 PUSH1 0x4 DUP3 ADD MSTORE PUSH1 0x17 PUSH1 0x24 DUP3 ADD MSTORE PUSH32 0x5573657220616C72656164792072656769737465726564000000000000000000 PUSH1 0x44 DUP3 ADD MSTORE PUSH1 0x64 SWAP1 REVERT JUMPDEST CALLVALUE PUSH2 0x19A JUMPI PUSH1 0x40 CALLDATASIZE PUSH1 0x3 NOT ADD SLT PUSH2 0x19A JUMPI PUSH2 0x634 PUSH2 0x69B JUMP JUMPDEST SWAP1 PUSH1 0x24 CALLDATALOAD SWAP2 PUSH1 0x4 DUP4 LT ISZERO PUSH2 0x19A JUMPI PUSH1 0x1 PUSH1 0x1 PUSH1 0xA0 SHL SUB AND PUSH1 0x0 DUP2 DUP2 MSTORE PUSH1 0x1 PUSH1 0x20 MSTORE PUSH1 0x40 SWAP1 KECCAK256 SLOAD PUSH1 0xFF AND SWAP1 DUP2 PUSH2 0x66E JUMPI JUMPDEST PUSH1 0x20 DUP4 DUP4 ISZERO ISZERO DUP2 MSTORE RETURN JUMPDEST SWAP1 POP PUSH1 0x0 MSTORE PUSH1 0x0 PUSH1 0x20 MSTORE PUSH1 0xFF PUSH1 0x2 PUSH1 0x40 PUSH1 0x0 KECCAK256 ADD SLOAD PUSH1 0xA0 SHR AND SWAP2 PUSH1 0x4 DUP4 LT ISZERO PUSH2 0x146 JUMPI PUSH1 0x20 SWAP3 EQ DUP4 PUSH2 0x664 JUMP JUMPDEST PUSH1 0x4 CALLDATALOAD SWAP1 PUSH1 0x1 PUSH1 0x1 PUSH1 0xA0 SHL SUB DUP3 AND DUP3 SUB PUSH2 0x19A JUMPI JUMP JUMPDEST PUSH1 0x80 DUP2 ADD SWAP1 DUP2 LT PUSH8 0xFFFFFFFFFFFFFFFF DUP3 GT OR PUSH2 0x4FD JUMPI PUSH1 0x40 MSTORE JUMP JUMPDEST SWAP1 PUSH1 0x1F DUP1 NOT SWAP2 ADD AND DUP2 ADD SWAP1 DUP2 LT PUSH8 0xFFFFFFFFFFFFFFFF DUP3 GT OR PUSH2 0x4FD JUMPI PUSH1 0x40 MSTORE JUMP JUMPDEST DUP2 PUSH1 0x1F DUP3 ADD SLT ISZERO PUSH2 0x19A JUMPI DUP1 CALLDATALOAD SWAP1 PUSH8 0xFFFFFFFFFFFFFFFF DUP3 GT PUSH2 0x4FD JUMPI PUSH1 0x40 MLOAD SWAP3 PUSH2 0x724 PUSH1 0x1F DUP5 ADD PUSH1 0x1F NOT AND PUSH1 0x20 ADD DUP6 PUSH2 0x6CD JUMP JUMPDEST DUP3 DUP5 MSTORE PUSH1 0x20 DUP4 DUP4 ADD ADD GT PUSH2 0x19A JUMPI DUP2 PUSH1 0x0 SWAP3 PUSH1 0x20 DUP1 SWAP4 ADD DUP4 DUP7 ADD CALLDATACOPY DUP4 ADD ADD MSTORE SWAP1 JUMP JUMPDEST SWAP2 SWAP1 DUP3 MLOAD SWAP3 DUP4 DUP3 MSTORE PUSH1 0x0 JUMPDEST DUP5 DUP2 LT PUSH2 0x772 JUMPI POP POP DUP3 PUSH1 0x0 PUSH1 0x20 DUP1 SWAP5 SWAP6 DUP5 ADD ADD MSTORE PUSH1 0x1F DUP1 NOT SWAP2 ADD AND ADD ADD SWAP1 JUMP JUMPDEST DUP1 PUSH1 0x20 DUP1 SWAP3 DUP5 ADD ADD MLOAD DUP3 DUP3 DUP7 ADD ADD MSTORE ADD PUSH2 0x751 JUMP JUMPDEST SWAP1 PUSH1 0x4 DUP3 LT ISZERO PUSH2 0x146 JUMPI MSTORE JUMP JUMPDEST PUSH1 0x4 DUP3 LT ISZERO PUSH2 0x146 JUMPI MSTORE JUMP JUMPDEST SWAP1 PUSH1 0x1 DUP3 DUP2 SHR SWAP3 AND DUP1 ISZERO PUSH2 0x7D0 JUMPI JUMPDEST PUSH1 0x20 DUP4 LT EQ PUSH2 0x7BA JUMPI JUMP JUMPDEST PUSH4 0x4E487B71 PUSH1 0xE0 SHL PUSH1 0x0 MSTORE PUSH1 0x22 PUSH1 0x4 MSTORE PUSH1 0x24 PUSH1 0x0 REVERT JUMPDEST SWAP2 PUSH1 0x7F AND SWAP2 PUSH2 0x7AF JUMP JUMPDEST SWAP1 PUSH1 0x40 MLOAD SWAP2 DUP3 PUSH1 0x0 DUP3 SLOAD SWAP3 PUSH2 0x7EE DUP5 PUSH2 0x7A0 JUMP JUMPDEST DUP1 DUP5 MSTORE SWAP4 PUSH1 0x1 DUP2 AND SWAP1 DUP2 ISZERO PUSH2 0x85C JUMPI POP PUSH1 0x1 EQ PUSH2 0x815 JUMPI JUMPDEST POP PUSH2 0x813 SWAP3 POP SUB DUP4 PUSH2 0x6CD JUMP JUMPDEST JUMP JUMPDEST SWAP1 POP PUSH1 0x0 SWAP3 SWAP2 SWAP3 MSTORE PUSH1 0x20 PUSH1 0x0 KECCAK256 SWAP1 PUSH1 0x0 SWAP2 JUMPDEST DUP2 DUP4 LT PUSH2 0x840 JUMPI POP POP SWAP1 PUSH1 0x20 PUSH2 0x813 SWAP3 DUP3 ADD ADD CODESIZE PUSH2 0x806 JUMP JUMPDEST PUSH1 0x20 SWAP2 SWAP4 POP DUP1 PUSH1 0x1 SWAP2 SLOAD DUP4 DUP6 DUP10 ADD ADD MSTORE ADD SWAP2 ADD SWAP1 SWAP2 DUP5 SWAP3 PUSH2 0x827 JUMP JUMPDEST SWAP1 POP PUSH1 0x20 SWAP3 POP PUSH2 0x813 SWAP5 SWAP2 POP PUSH1 0xFF NOT AND DUP3 DUP5 ADD MSTORE ISZERO ISZERO PUSH1 0x5 SHL DUP3 ADD ADD CODESIZE PUSH2 0x806 JUMP INVALID LOG2 PUSH5 0x6970667358 0x22 SLT KECCAK256 0xB0 SSTORE PUSH14 0x2161BBA46CA143B63C6CD9333831 SWAP1 0xE7 SMOD PUSH9 0xD62A21836414BF122E MSTORE 0x2D PUSH5 0x736F6C6343 STOP ADDMOD SHL STOP CALLER "},"methodIdentifiers":{"checkRegistration(address)":"e2a41283","getRegisteredUser(address)":"e54a29bb","hasRole(address,uint8)":"95a8c58d","registerUser(string,string,address,uint8)":"d1233672"}}}}}