{"contracts/ObatTradisional.sol":{"ObatTradisional":{"abi":[{"inputs":[{"internalType":"address","name":"roleManagerAddr","type":"address"},{"internalType":"address","name":"obatSharedAddr","type":"address"},{"internalType":"address","name":"nieManagerAddr","type":"address"}],"stateMutability":"nonpayable","type":"constructor"},{"inputs":[],"name":"ReentrancyGuardReentrantCall","type":"error"},{"anonymous":false,"inputs":[{"indexed":false,"internalType":"string","name":"batchName","type":"string"},{"indexed":false,"internalType":"uint8","name":"quantity","type":"uint8"},{"indexed":false,"internalType":"string","name":"namaProduk","type":"string"},{"indexed":false,"internalType":"string","name":"factoryInstance","type":"string"},{"indexed":false,"internalType":"uint256","name":"timestamp","type":"uint256"}],"name":"AddObatBatchProduction","type":"event"},{"anonymous":false,"inputs":[{"indexed":false,"internalType":"string","name":"namaProduk","type":"string"},{"indexed":false,"internalType":"uint256","name":"tipeObat","type":"uint256"},{"indexed":false,"internalType":"string","name":"factoryInstance","type":"string"},{"indexed":false,"internalType":"address","name":"factoryAddresses","type":"address"},{"indexed":false,"internalType":"uint256","name":"timestamp","type":"uint256"}],"name":"ObatCreated","type":"event"},{"inputs":[{"internalType":"string","name":"obatId","type":"string"},{"internalType":"string","name":"namaProduk","type":"string"},{"internalType":"string","name":"batchName","type":"string"},{"internalType":"uint8","name":"obatQuantity","type":"uint8"},{"internalType":"string[]","name":"obatIpfs","type":"string[]"},{"internalType":"string","name":"factoryInstance","type":"string"}],"name":"addBatchProduction","outputs":[],"stateMutability":"nonpayable","type":"function"},{"inputs":[{"internalType":"uint256","name":"","type":"uint256"}],"name":"allObatIds","outputs":[{"internalType":"string","name":"","type":"string"}],"stateMutability":"view","type":"function"},{"inputs":[{"internalType":"string","name":"obatId","type":"string"},{"internalType":"string","name":"merk","type":"string"},{"internalType":"string","name":"namaProduk","type":"string"},{"internalType":"string[]","name":"klaim","type":"string[]"},{"internalType":"string","name":"kemasan","type":"string"},{"internalType":"string[]","name":"komposisi","type":"string[]"},{"internalType":"string","name":"factoryInstance","type":"string"},{"internalType":"enum EnumsLibrary.TipePermohonanCdob","name":"tipeObat","type":"uint8"},{"internalType":"string","name":"cpotbIpfs","type":"string"},{"internalType":"string","name":"jenisObat","type":"string"}],"name":"createObat","outputs":[],"stateMutability":"nonpayable","type":"function"},{"inputs":[{"internalType":"string","name":"obatId","type":"string"},{"internalType":"string","name":"batchName","type":"string"}],"name":"detailBatchProduction","outputs":[{"components":[{"internalType":"enum EnumsLibrary.ObatAvailability","name":"statusStok","type":"uint8"},{"internalType":"string","name":"namaProduk","type":"string"},{"internalType":"string","name":"batchName","type":"string"},{"internalType":"uint8","name":"obatQuantity","type":"uint8"},{"internalType":"string","name":"factoryInstance","type":"string"}],"internalType":"struct ObatShared.ObatProduction","name":"","type":"tuple"},{"internalType":"string[]","name":"","type":"string[]"}],"stateMutability":"view","type":"function"},{"inputs":[{"internalType":"string","name":"obatId","type":"string"}],"name":"detailObat","outputs":[{"components":[{"internalType":"string","name":"merk","type":"string"},{"internalType":"string","name":"namaProduk","type":"string"},{"internalType":"string[]","name":"klaim","type":"string[]"},{"internalType":"string[]","name":"komposisi","type":"string[]"},{"internalType":"string","name":"kemasan","type":"string"},{"internalType":"string","name":"factoryInstance","type":"string"},{"internalType":"address","name":"factoryAddr","type":"address"},{"internalType":"enum EnumsLibrary.TipePermohonanCdob","name":"tipeObat","type":"uint8"},{"internalType":"string","name":"cpotbHash","type":"string"},{"internalType":"string","name":"cdobHash","type":"string"},{"internalType":"string","name":"jenisObat","type":"string"}],"internalType":"struct ObatShared.ObatDetail","name":"","type":"tuple"}],"stateMutability":"view","type":"function"},{"inputs":[{"internalType":"string","name":"instanceName","type":"string"}],"name":"getAllBatchProductionByInstance","outputs":[{"components":[{"internalType":"string","name":"obatId","type":"string"},{"internalType":"string","name":"namaProduk","type":"string"},{"internalType":"string","name":"batchName","type":"string"},{"internalType":"uint8","name":"obatQuantity","type":"uint8"},{"internalType":"enum EnumsLibrary.ObatAvailability","name":"statusStok","type":"uint8"},{"internalType":"string","name":"ownerInstance","type":"string"}],"internalType":"struct ObatTradisional.ObatOutputBatch[]","name":"","type":"tuple[]"}],"stateMutability":"view","type":"function"},{"inputs":[],"name":"getAllBatchProductionReadyStock","outputs":[{"components":[{"internalType":"string","name":"obatId","type":"string"},{"internalType":"string","name":"namaProduk","type":"string"},{"internalType":"string","name":"batchName","type":"string"},{"internalType":"uint8","name":"obatQuantity","type":"uint8"},{"internalType":"enum EnumsLibrary.ObatAvailability","name":"statusStok","type":"uint8"},{"internalType":"string","name":"ownerInstance","type":"string"}],"internalType":"struct ObatTradisional.ObatOutputBatch[]","name":"","type":"tuple[]"}],"stateMutability":"view","type":"function"},{"inputs":[],"name":"getAllObat","outputs":[{"components":[{"internalType":"string","name":"obatId","type":"string"},{"internalType":"string","name":"namaProduk","type":"string"},{"internalType":"string","name":"nieNumber","type":"string"},{"internalType":"uint8","name":"nieStatus","type":"uint8"},{"internalType":"string","name":"factoryInstance","type":"string"},{"internalType":"uint256","name":"timestampExpired","type":"uint256"}],"internalType":"struct ObatTradisional.ObatOutputNie[]","name":"","type":"tuple[]"}],"stateMutability":"view","type":"function"},{"inputs":[{"internalType":"string","name":"instanceName","type":"string"}],"name":"getAllObatByInstance","outputs":[{"components":[{"internalType":"string","name":"obatId","type":"string"},{"internalType":"string","name":"namaProduk","type":"string"},{"internalType":"string","name":"nieNumber","type":"string"},{"internalType":"uint8","name":"nieStatus","type":"uint8"},{"internalType":"string","name":"factoryInstance","type":"string"},{"internalType":"uint256","name":"timestampExpired","type":"uint256"}],"internalType":"struct ObatTradisional.ObatOutputNie[]","name":"","type":"tuple[]"}],"stateMutability":"view","type":"function"},{"inputs":[],"name":"nieManager","outputs":[{"internalType":"contract NieManager","name":"","type":"address"}],"stateMutability":"view","type":"function"},{"inputs":[],"name":"obatShared","outputs":[{"internalType":"contract ObatShared","name":"","type":"address"}],"stateMutability":"view","type":"function"},{"inputs":[],"name":"roleManager","outputs":[{"internalType":"contract RoleManager","name":"","type":"address"}],"stateMutability":"view","type":"function"}],"evm":{"bytecode":{"linkReferences":{},"object":"60e03461011d57601f61261f38819003918201601f19168301916001600160401b038311848410176101215780849260609460405283398101031261011d5761004781610135565b90610060604061005960208401610135565b9201610135565b60015f556001600160a01b0392831660805290821660a0521660c0526040516124d5908161014a823960805181818161018a015281816104e4015281816109c501528181611116015281816112a4015281816117da0152611a01015260a0518181816101cd0152818161059a01528181610a0201528181610d6d01528181610f6f01528181611348015281816115d2015281816117520152611867015260c0518181816106d0015281816108ee01528181610b49015261136c0152f35b5f80fd5b634e487b7160e01b5f52604160045260245ffd5b51906001600160a01b038216820361011d5756fe6080806040526004361015610012575f80fd5b5f905f3560e01c908162435da5146119ef575080631bbd28f9146117815780633fca88cb1461173d5780634d17d2731461152b57806350168fbb146112725780635425368114610ef0578063a1e0a4b014610d39578063baeedfad1461096c578063cb960d6b1461091d578063dd683b28146108d9578063de966a721461037a5763e521d586146100a1575f80fd5b346103775760c0366003190112610377576004356001600160401b038111610375576100d1903690600401611abe565b6024356001600160401b038111610371576100f0903690600401611abe565b6044356001600160401b0381116103335761010f903690600401611abe565b906064359060ff821680920361032457846084356001600160401b0381116103755761013f903690600401611e40565b60a4356001600160401b0381116103715761015e903690600401611abe565b6040516395a8c58d60e01b81523360048201525f60248201529096906020816044816001600160a01b037f0000000000000000000000000000000000000000000000000000000000000000165afa8015610366576101c3918591610337575b50611ed6565b6101cb612481565b7f00000000000000000000000000000000000000000000000000000000000000006001600160a01b031691823b156103335761024a926102388580946102866102748a9661025c8e6040519b8c9a8b998a98637290eac360e11b8a5260c060048b015260c48a0190611b04565b8881036003190160248a015290611b04565b86810360031901604488015290611b04565b908d6064860152600319858303016084860152611c0f565b8281036003190160a48401528d611b04565b03925af1801561032857610309575b50926102f9856102eb7f50f3a56867c9c3b6c4af5856fac7e97e8644fe1c677c25ea989ab1ee658a6fc5956102d89560405196879660a0885260a0880190611b04565b9160208701528582036040870152611b04565b908382036060850152611b04565b4260808301520390a16001815580f35b816103179195949395611a82565b610324579091845f610295565b8480fd5b6040513d84823e3d90fd5b8380fd5b610359915060203d60201161035f575b6103518183611a82565b810190611ebe565b5f6101bd565b503d610347565b6040513d86823e3d90fd5b8280fd5b505b80fd5b50346107fb576101403660031901126107fb576004356001600160401b0381116107fb576103ac903690600401611abe565b6024356001600160401b0381116107fb576103cb903690600401611abe565b6044356001600160401b0381116107fb576103ea903690600401611abe565b916064356001600160401b0381116107fb5761040a903690600401611e40565b906084356001600160401b0381116107fb5761042a903690600401611abe565b9160a4356001600160401b0381116107fb5761044a903690600401611e40565b9260c4356001600160401b0381116107fb5761046a903690600401611abe565b9360e4359560028710156107fb57610104356001600160401b0381116107fb57610498903690600401611abe565b610124356001600160401b0381116107fb576104b8903690600401611abe565b6040516395a8c58d60e01b81523360048201525f60248201529091906020816044816001600160a01b037f0000000000000000000000000000000000000000000000000000000000000000165afa80156107f05761051c915f916103375750611ed6565b610524612481565b600154680100000000000000008110156108b2578060016105489201600155611d25565b6108c65787516001600160401b0381116108b2576105668254611d51565b601f811161086d575b50806020601f821160011461080a575f916107ff575b508160011b915f199060031b1c19161790555b7f00000000000000000000000000000000000000000000000000000000000000006001600160a01b031694853b156107fb576040516345c6f91f60e11b8152610160600482015296879586959091908d906105f761016489018d611b04565b8881036003190160248a015261060c91611b04565b87810360031901604489015261062191611b04565b86810360031901606488015261063691611c0f565b85810360031901608487015261064b91611c0f565b8481036003190160a486015261066091611b04565b8381036003190160c48501526106769089611b04565b3360e48501526106858a611b28565b89610104850152600319848203016101248501526106a291611b04565b828103600319016101448401526106b891611b04565b03815a5f948591f180156107f0576107db575b5084907f00000000000000000000000000000000000000000000000000000000000000006001600160a01b0316803b156103715761072d839161073f93836040518096819582946356003e0d60e11b8452604060048501526044840190611b04565b8281036003190160248401528a611b04565b03925af18015610328576107c2575b50926107ac83610798936107827ff4487edfbc31786288d4b0a58c9cf96191866674edc1d0aaf83cc9feebb3d1ba96611b28565b60ff60405195869560a0875260a0870190611b04565b921660208501528382036040850152611b04565b3360608301524260808301520390a16001815580f35b816107cf91959395611a82565b6103335791835f61074e565b6107e89195505f90611a82565b5f935f6106cb565b6040513d5f823e3d90fd5b5f80fd5b90508901515f610585565b5f8481528181209250601f198416905b8c828210610855575050908360019493921061083d575b5050811b019055610598565b8b01515f1960f88460031b161c191690555f80610831565b6001849560209395849301518155019401920161081a565b825f5260205f20601f830160051c810191602084106108a8575b601f0160051c01905b81811061089d575061056f565b5f8155600101610890565b9091508190610887565b634e487b7160e01b5f52604160045260245ffd5b634e487b7160e01b5f525f60045260245ffd5b346107fb575f3660031901126107fb576040517f00000000000000000000000000000000000000000000000000000000000000006001600160a01b03168152602090f35b346107fb5760203660031901126107fb576004356001548110156107fb5761094490611d25565b6108c65761095461096891611d89565b604051918291602083526020830190611b04565b0390f35b346107fb5760203660031901126107fb576004356001600160401b0381116107fb5761099c903690600401611abe565b6040516395a8c58d60e01b81523360048201525f60248201526020816044816001600160a01b037f0000000000000000000000000000000000000000000000000000000000000000165afa80156107f0576109fd915f91610d1a5750611ed6565b6001547f00000000000000000000000000000000000000000000000000000000000000006001600160a01b03169190602082015f805b838110610c385750610a449061236b565b925f91610a706020604051809382820195518091875e81015f838201520301601f198101835282611a82565b519020905f5b838110610a8b57604051806109688782611c67565b610a9d610a9782611d25565b50611d89565b604051636b2c133960e11b8152602060048201525f8180610ac16024820186611b04565b03818b5afa9081156107f0575f91610c16575b5060a0810191858351604051610b096020828180820195805191829101875e81015f838201520301601f198101835282611a82565b51902014610b1d575b505050600101610a76565b6040516374a5abcf60e01b815260206004820152939491925f8580610b456024820186611b04565b03817f00000000000000000000000000000000000000000000000000000000000000006001600160a01b03165afa9081156107f057600195610bdd955f905f925f95610be6575b5090602060ff9392015193519360405196610ba688611a4c565b875260208701526040860152166060840152608083015260a0820152610bcc8289612125565b52610bd78188612125565b50612139565b91908780610b12565b610c0b91955060ff9350602092503d805f833e610c038183611a82565b8101906123e2565b959093509091610b8c565b610c3291503d805f833e610c2a8183611a82565b8101906121c5565b88610ad4565b610c6a5f610c48610a9784611d25565b60405180938192636b2c133960e11b8352602060048401526024830190611b04565b03818a5afa80156107f05760a0915f91610d00575b500151604051610cae6020828180820195805191829101875e81015f838201520301601f198101835282611a82565b5190206040516020810190610cdb6020828a51808a875e81015f838201520301601f198101835282611a82565b51902014610cec575b600101610a33565b90610cf8600191612139565b919050610ce4565b610d1491503d805f833e610c2a8183611a82565b88610c7f565b610d33915060203d60201161035f576103518183611a82565b836101bd565b346107fb575f3660031901126107fb576001546005810281810460051482151715610edc57610d6790611f41565b905f90817f00000000000000000000000000000000000000000000000000000000000000006001600160a01b03165b828210610deb57505050610da981611f41565b915f5b828110610dc157604051806109688682611b46565b80610dce60019284612125565b51610dd98287612125565b52610de48186612125565b5001610dac565b610dfc610a97839593969496611d25565b6040516346abdd0560e11b81526020600482015290915f8280610e226024820187611b04565b0381845afa9182156107f0575f92610eb8575b505f5b8251811015610ea557610e4b8184612125565b5151610e5681611b28565b610e5f81611b28565b15610e6d575b600101610e38565b93610e9d600191610e88610e818887612125565b518761241e565b610e92828a612125565b52610bd78189612125565b949050610e65565b5093959294905060019150019091610d96565b610ed59192503d805f833e610ecd8183611a82565b810190611fe4565b9087610e35565b634e487b7160e01b5f52601160045260245ffd5b346107fb5760403660031901126107fb576004356001600160401b0381116107fb57610f20903690600401611abe565b6024356001600160401b0381116107fb57610f3f903690600401611abe565b9060606080604051610f5081611a67565b5f81528260208201528260408201525f83820152015260018060a01b037f000000000000000000000000000000000000000000000000000000000000000016906040516330804c3160e11b8152602060048201525f8180610fb46024820188611b04565b0381865afa9081156107f0575f9161122b575b50611022915f9194604051610ffb6020828180820195805191829101875e810187838201520301601f198101835282611a82565b5190209360405180809581946346abdd0560e11b8352602060048401526024830190611b04565b03915afa9081156107f0575f91611211575b506040519061104282611a67565b5f82526020916040516110558482611a82565b5f8152838201526040516110698482611a82565b5f815260408201525f60608201526040516110848482611a82565b5f81526080820152925f5b8251811015611209578160406110a58386612125565b5101516040516110d387828180820195805191829101875e81015f838201520301601f198101835282611a82565b519020146110e35760010161108f565b9190506110f1929350612125565b51905b6040516395a8c58d60e01b8152336004820152600160248201529080826044817f00000000000000000000000000000000000000000000000000000000000000006001600160a01b03165afa9384156107f0576111c994610968935f916111ec575b506111d6575b60405194859460408652805161117181611b28565b604087015260806111a86111938684015160a060608b015260e08a0190611b04565b6040840151898203603f1901848b0152611b04565b606083015160ff1660a0890152910151868203603f190160c0880152611b04565b9184830390850152611c0f565b506040516111e48282611a82565b5f815261115c565b6112039150833d851161035f576103518183611a82565b86611156565b5050506110f4565b61122591503d805f833e610ecd8183611a82565b83611034565b90503d805f833e61123c8183611a82565b8101916020828403126107fb578151916001600160401b0383116107fb57611022935f9361126a9201612147565b915091610fc7565b346107fb575f3660031901126107fb576040516395a8c58d60e01b8152336004820152600260248201526020816044817f00000000000000000000000000000000000000000000000000000000000000006001600160a01b03165afa9081156107f0575f9161150c575b50156114db576001546112ee8161236b565b906112f881611e29565b6113056040519182611a82565b8181526020810160015f527fb10e2d527612073b26eecdfd717e6a320cf44b4afac2b0732d9fcbe2b7fa0cf6905f905b8482106114be5750506001600160a01b037f00000000000000000000000000000000000000000000000000000000000000008116927f000000000000000000000000000000000000000000000000000000000000000090911691505f5b8481106113a757604051806109688882611c67565b6113b18183612125565b51604051636b2c133960e11b81526020600482015291905f83806113d86024820185611b04565b0381895afa9283156107f0575f936114a2575b506040516374a5abcf60e01b815260206004820152925f84806114116024820186611b04565b0381895afa9081156107f0576001945f5f915f9461147f575b509060ff9160a06020850151940151936040519661144788611a4c565b875260208701526040860152166060840152608083015260a082015261146d8289612125565b526114788188612125565b5001611392565b905060ff935061149991503d805f833e610c038183611a82565b9390919061142a565b6114b79193503d805f833e610c2a8183611a82565b91886113eb565b6001602081926114cd86611d89565b815201930191019091611335565b60405162461bcd60e51b81526020600482015260096024820152684f6e6c792042504f4d60b81b6044820152606490fd5b611525915060203d60201161035f576103518183611a82565b816112dc565b346107fb5760203660031901126107fb576004356001600160401b0381116107fb575f61155f6115ce923690600401611abe565b606061014060405161157081611a30565b82815282602082015282604082015282808201528260808201528260a08201528460c08201528460e08201528261010082015282610120820152015260405180938192636b2c133960e11b8352602060048401526024830190611b04565b03817f00000000000000000000000000000000000000000000000000000000000000006001600160a01b03165afa80156107f057610968915f91611723575b506040519182916020835261014061170e6116f86116b76116a161168b61167561165f6116498b61016060208c519201526101808d0190611b04565b60208a01518c8203601f190160408e0152611b04565b60408901518b8203601f190160608d0152611c0f565b60608801518a8203601f190160808c0152611c0f565b6080870151898203601f190160a08b0152611b04565b60a0860151888203601f190160c08a0152611b04565b60c08501516001600160a01b031660e0888101919091528501516116da81611b28565b610100880152610100850151601f1988830301610120890152611b04565b610120840151868203601f190184880152611b04565b910151838203601f1901610160850152611b04565b61173791503d805f833e610c2a8183611a82565b8261160d565b346107fb575f3660031901126107fb576040517f00000000000000000000000000000000000000000000000000000000000000006001600160a01b03168152602090f35b346107fb5760203660031901126107fb576004356001600160401b0381116107fb576117b1903690600401611abe565b6040516395a8c58d60e01b81523360048201525f60248201526020816044816001600160a01b037f0000000000000000000000000000000000000000000000000000000000000000165afa80156107f057611812915f91610d1a5750611ed6565b600154906040516118426020828180820195805191829101875e81015f838201520301601f198101835282611a82565b5190206005820282810460051483151715610edc5761186090611f41565b915f9182907f00000000000000000000000000000000000000000000000000000000000000006001600160a01b03165b8383106118e45785856118a281611f41565b915f5b8281106118ba57604051806109688682611b46565b806118c760019284612125565b516118d28287612125565b526118dd8186612125565b50016118a5565b6118f6610a9784969497939597611d25565b91604051916346abdd0560e11b8352602060048401525f838061191c6024820188611b04565b0381845afa9283156107f0575f936119d3575b505f5b83518110156119c0578660806119488387612125565b5101516040516119776020828180820195805191829101875e81015f838201520301601f198101835282611a82565b51902014611988575b600101611932565b946119b86001916119a361199c8988612125565b518861241e565b6119ad8287612125565b52610bd78186612125565b959050611980565b5094925095929460019150019192611890565b6119e89193503d805f833e610ecd8183611a82565b918861192f565b346107fb575f3660031901126107fb577f00000000000000000000000000000000000000000000000000000000000000006001600160a01b03168152602090f35b61016081019081106001600160401b038211176108b257604052565b60c081019081106001600160401b038211176108b257604052565b60a081019081106001600160401b038211176108b257604052565b90601f801991011681019081106001600160401b038211176108b257604052565b6001600160401b0381116108b257601f01601f191660200190565b81601f820112156107fb57803590611ad582611aa3565b92611ae36040519485611a82565b828452602083830101116107fb57815f926020809301838601378301015290565b805180835260209291819084018484015e5f828201840152601f01601f1916010190565b60021115611b3257565b634e487b7160e01b5f52602160045260245ffd5b602081016020825282518091526040820191602060408360051b8301019401925f915b838310611b7857505050505090565b9091929394602080611c00600193603f1986820301875289519060a0611bcf611bbd611bad855160c0865260c0860190611b04565b8786015185820389870152611b04565b60408501518482036040860152611b04565b9260ff60608201511660608401526080810151611beb81611b28565b608084015201519060a0818403910152611b04565b97019301930191939290611b69565b9080602083519182815201916020808360051b8301019401925f915b838310611c3a57505050505090565b9091929394602080611c58600193601f198682030187528951611b04565b97019301930191939290611c2b565b602081016020825282518091526040820191602060408360051b8301019401925f915b838310611c9957505050505090565b9091929394602080600192603f1985820301865288519060a080611d10611cf1611cdf611ccf875160c0885260c0880190611b04565b888801518782038a890152611b04565b60408701518682036040880152611b04565b60ff606087015116606086015260808601518582036080870152611b04565b93015191015297019301930191939290611c8a565b600154811015611d3d5760015f5260205f2001905f90565b634e487b7160e01b5f52603260045260245ffd5b90600182811c92168015611d7f575b6020831014611d6b57565b634e487b7160e01b5f52602260045260245ffd5b91607f1691611d60565b9060405191825f825492611d9c84611d51565b8084529360018116908115611e075750600114611dc3575b50611dc192500383611a82565b565b90505f9291925260205f20905f915b818310611deb575050906020611dc1928201015f611db4565b6020919350806001915483858901015201910190918492611dd2565b905060209250611dc194915060ff191682840152151560051b8201015f611db4565b6001600160401b0381116108b25760051b60200190565b9080601f830112156107fb578135611e5781611e29565b92611e656040519485611a82565b81845260208085019260051b820101918383116107fb5760208201905b838210611e9157505050505090565b81356001600160401b0381116107fb57602091611eb387848094880101611abe565b815201910190611e82565b908160209103126107fb575180151581036107fb5790565b15611edd57565b60405162461bcd60e51b815260206004820152600c60248201526b4f6e6c7920466163746f727960a01b6044820152606490fd5b60405190611f1e82611a4c565b606060a0838281528260208201528260408201525f838201525f60808201520152565b90611f4b82611e29565b611f586040519182611a82565b8281528092611f69601f1991611e29565b01905f5b828110611f7957505050565b602090611f84611f11565b82828501015201611f6d565b81601f820112156107fb57805190611fa782611aa3565b92611fb56040519485611a82565b828452602083830101116107fb57815f9260208093018386015e8301015290565b519060ff821682036107fb57565b6020818303126107fb578051906001600160401b0382116107fb57019080601f830112156107fb5781519161201883611e29565b926120266040519485611a82565b80845260208085019160051b830101918383116107fb5760208101915b83831061205257505050505090565b82516001600160401b0381116107fb5782019060a0828703601f1901126107fb576040519061208082611a67565b602083015160028110156107fb57825260408301516001600160401b0381116107fb578760206120b292860101611f90565b602083015260608301516001600160401b0381116107fb578760206120d992860101611f90565b60408301526120ea60808401611fd6565b606083015260a0830151916001600160401b0383116107fb5761211588602080969581960101611f90565b6080820152815201920191612043565b8051821015611d3d5760209160051b010190565b5f198114610edc5760010190565b9080601f830112156107fb57815161215e81611e29565b9261216c6040519485611a82565b81845260208085019260051b820101918383116107fb5760208201905b83821061219857505050505090565b81516001600160401b0381116107fb576020916121ba87848094880101611f90565b815201910190612189565b6020818303126107fb578051906001600160401b0382116107fb5701610160818303126107fb57604051916121f983611a30565b81516001600160401b0381116107fb5781612215918401611f90565b835260208201516001600160401b0381116107fb5781612236918401611f90565b602084015260408201516001600160401b0381116107fb578161225a918401612147565b604084015260608201516001600160401b0381116107fb578161227e918401612147565b606084015260808201516001600160401b0381116107fb57816122a2918401611f90565b608084015260a08201516001600160401b0381116107fb57816122c6918401611f90565b60a084015260c08201516001600160a01b03811681036107fb5760c084015260e082015160028110156107fb5760e08401526101008201516001600160401b0381116107fb5781612318918401611f90565b6101008401526101208201516001600160401b0381116107fb578161233e918401611f90565b6101208401526101408201516001600160401b0381116107fb576123629201611f90565b61014082015290565b9061237582611e29565b6123826040519182611a82565b8281528092612393601f1991611e29565b01905f5b8281106123a357505050565b6020906040516123b281611a4c565b60608152606083820152606060408201525f6060820152606060808201525f60a082015282828501015201612397565b906060828203126107fb578151906001600160401b0382116107fb57612409918301611f90565b91604061241860208401611fd6565b92015190565b90612427611f11565b50602081015190604081015160ff60608301511690608083519361244a85611b28565b0151936040519561245a87611a4c565b865260208601526040850152606084015261247481611b28565b608083015260a082015290565b60025f54146124905760025f55565b633ee5aeb560e01b5f5260045ffdfea264697066735822122060079693935ccdbb5fe88cf05a03bd3dae1a268f1cca376fe5c9324c143dc23364736f6c634300081b0033","opcodes":"PUSH1 0xE0 CALLVALUE PUSH2 0x11D JUMPI PUSH1 0x1F PUSH2 0x261F CODESIZE DUP2 SWAP1 SUB SWAP2 DUP3 ADD PUSH1 0x1F NOT AND DUP4 ADD SWAP2 PUSH1 0x1 PUSH1 0x1 PUSH1 0x40 SHL SUB DUP4 GT DUP5 DUP5 LT OR PUSH2 0x121 JUMPI DUP1 DUP5 SWAP3 PUSH1 0x60 SWAP5 PUSH1 0x40 MSTORE DUP4 CODECOPY DUP2 ADD SUB SLT PUSH2 0x11D JUMPI PUSH2 0x47 DUP2 PUSH2 0x135 JUMP JUMPDEST SWAP1 PUSH2 0x60 PUSH1 0x40 PUSH2 0x59 PUSH1 0x20 DUP5 ADD PUSH2 0x135 JUMP JUMPDEST SWAP3 ADD PUSH2 0x135 JUMP JUMPDEST PUSH1 0x1 PUSH0 SSTORE PUSH1 0x1 PUSH1 0x1 PUSH1 0xA0 SHL SUB SWAP3 DUP4 AND PUSH1 0x80 MSTORE SWAP1 DUP3 AND PUSH1 0xA0 MSTORE AND PUSH1 0xC0 MSTORE PUSH1 0x40 MLOAD PUSH2 0x24D5 SWAP1 DUP2 PUSH2 0x14A DUP3 CODECOPY PUSH1 0x80 MLOAD DUP2 DUP2 DUP2 PUSH2 0x18A ADD MSTORE DUP2 DUP2 PUSH2 0x4E4 ADD MSTORE DUP2 DUP2 PUSH2 0x9C5 ADD MSTORE DUP2 DUP2 PUSH2 0x1116 ADD MSTORE DUP2 DUP2 PUSH2 0x12A4 ADD MSTORE DUP2 DUP2 PUSH2 0x17DA ADD MSTORE PUSH2 0x1A01 ADD MSTORE PUSH1 0xA0 MLOAD DUP2 DUP2 DUP2 PUSH2 0x1CD ADD MSTORE DUP2 DUP2 PUSH2 0x59A ADD MSTORE DUP2 DUP2 PUSH2 0xA02 ADD MSTORE DUP2 DUP2 PUSH2 0xD6D ADD MSTORE DUP2 DUP2 PUSH2 0xF6F ADD MSTORE DUP2 DUP2 PUSH2 0x1348 ADD MSTORE DUP2 DUP2 PUSH2 0x15D2 ADD MSTORE DUP2 DUP2 PUSH2 0x1752 ADD MSTORE PUSH2 0x1867 ADD MSTORE PUSH1 0xC0 MLOAD DUP2 DUP2 DUP2 PUSH2 0x6D0 ADD MSTORE DUP2 DUP2 PUSH2 0x8EE ADD MSTORE DUP2 DUP2 PUSH2 0xB49 ADD MSTORE PUSH2 0x136C ADD MSTORE RETURN JUMPDEST PUSH0 DUP1 REVERT JUMPDEST PUSH4 0x4E487B71 PUSH1 0xE0 SHL PUSH0 MSTORE PUSH1 0x41 PUSH1 0x4 MSTORE PUSH1 0x24 PUSH0 REVERT JUMPDEST MLOAD SWAP1 PUSH1 0x1 PUSH1 0x1 PUSH1 0xA0 SHL SUB DUP3 AND DUP3 SUB PUSH2 0x11D JUMPI JUMP INVALID PUSH1 0x80 DUP1 PUSH1 0x40 MSTORE PUSH1 0x4 CALLDATASIZE LT ISZERO PUSH2 0x12 JUMPI PUSH0 DUP1 REVERT JUMPDEST PUSH0 SWAP1 PUSH0 CALLDATALOAD PUSH1 0xE0 SHR SWAP1 DUP2 PUSH3 0x435DA5 EQ PUSH2 0x19EF JUMPI POP DUP1 PUSH4 0x1BBD28F9 EQ PUSH2 0x1781 JUMPI DUP1 PUSH4 0x3FCA88CB EQ PUSH2 0x173D JUMPI DUP1 PUSH4 0x4D17D273 EQ PUSH2 0x152B JUMPI DUP1 PUSH4 0x50168FBB EQ PUSH2 0x1272 JUMPI DUP1 PUSH4 0x54253681 EQ PUSH2 0xEF0 JUMPI DUP1 PUSH4 0xA1E0A4B0 EQ PUSH2 0xD39 JUMPI DUP1 PUSH4 0xBAEEDFAD EQ PUSH2 0x96C JUMPI DUP1 PUSH4 0xCB960D6B EQ PUSH2 0x91D JUMPI DUP1 PUSH4 0xDD683B28 EQ PUSH2 0x8D9 JUMPI DUP1 PUSH4 0xDE966A72 EQ PUSH2 0x37A JUMPI PUSH4 0xE521D586 EQ PUSH2 0xA1 JUMPI PUSH0 DUP1 REVERT JUMPDEST CALLVALUE PUSH2 0x377 JUMPI PUSH1 0xC0 CALLDATASIZE PUSH1 0x3 NOT ADD SLT PUSH2 0x377 JUMPI PUSH1 0x4 CALLDATALOAD PUSH1 0x1 PUSH1 0x1 PUSH1 0x40 SHL SUB DUP2 GT PUSH2 0x375 JUMPI PUSH2 0xD1 SWAP1 CALLDATASIZE SWAP1 PUSH1 0x4 ADD PUSH2 0x1ABE JUMP JUMPDEST PUSH1 0x24 CALLDATALOAD PUSH1 0x1 PUSH1 0x1 PUSH1 0x40 SHL SUB DUP2 GT PUSH2 0x371 JUMPI PUSH2 0xF0 SWAP1 CALLDATASIZE SWAP1 PUSH1 0x4 ADD PUSH2 0x1ABE JUMP JUMPDEST PUSH1 0x44 CALLDATALOAD PUSH1 0x1 PUSH1 0x1 PUSH1 0x40 SHL SUB DUP2 GT PUSH2 0x333 JUMPI PUSH2 0x10F SWAP1 CALLDATASIZE SWAP1 PUSH1 0x4 ADD PUSH2 0x1ABE JUMP JUMPDEST SWAP1 PUSH1 0x64 CALLDATALOAD SWAP1 PUSH1 0xFF DUP3 AND DUP1 SWAP3 SUB PUSH2 0x324 JUMPI DUP5 PUSH1 0x84 CALLDATALOAD PUSH1 0x1 PUSH1 0x1 PUSH1 0x40 SHL SUB DUP2 GT PUSH2 0x375 JUMPI PUSH2 0x13F SWAP1 CALLDATASIZE SWAP1 PUSH1 0x4 ADD PUSH2 0x1E40 JUMP JUMPDEST PUSH1 0xA4 CALLDATALOAD PUSH1 0x1 PUSH1 0x1 PUSH1 0x40 SHL SUB DUP2 GT PUSH2 0x371 JUMPI PUSH2 0x15E SWAP1 CALLDATASIZE SWAP1 PUSH1 0x4 ADD PUSH2 0x1ABE JUMP JUMPDEST PUSH1 0x40 MLOAD PUSH4 0x95A8C58D PUSH1 0xE0 SHL DUP2 MSTORE CALLER PUSH1 0x4 DUP3 ADD MSTORE PUSH0 PUSH1 0x24 DUP3 ADD MSTORE SWAP1 SWAP7 SWAP1 PUSH1 0x20 DUP2 PUSH1 0x44 DUP2 PUSH1 0x1 PUSH1 0x1 PUSH1 0xA0 SHL SUB PUSH32 0x0 AND GAS STATICCALL DUP1 ISZERO PUSH2 0x366 JUMPI PUSH2 0x1C3 SWAP2 DUP6 SWAP2 PUSH2 0x337 JUMPI JUMPDEST POP PUSH2 0x1ED6 JUMP JUMPDEST PUSH2 0x1CB PUSH2 0x2481 JUMP JUMPDEST PUSH32 0x0 PUSH1 0x1 PUSH1 0x1 PUSH1 0xA0 SHL SUB AND SWAP2 DUP3 EXTCODESIZE ISZERO PUSH2 0x333 JUMPI PUSH2 0x24A SWAP3 PUSH2 0x238 DUP6 DUP1 SWAP5 PUSH2 0x286 PUSH2 0x274 DUP11 SWAP7 PUSH2 0x25C DUP15 PUSH1 0x40 MLOAD SWAP12 DUP13 SWAP11 DUP12 SWAP10 DUP11 SWAP9 PUSH4 0x7290EAC3 PUSH1 0xE1 SHL DUP11 MSTORE PUSH1 0xC0 PUSH1 0x4 DUP12 ADD MSTORE PUSH1 0xC4 DUP11 ADD SWAP1 PUSH2 0x1B04 JUMP JUMPDEST DUP9 DUP2 SUB PUSH1 0x3 NOT ADD PUSH1 0x24 DUP11 ADD MSTORE SWAP1 PUSH2 0x1B04 JUMP JUMPDEST DUP7 DUP2 SUB PUSH1 0x3 NOT ADD PUSH1 0x44 DUP9 ADD MSTORE SWAP1 PUSH2 0x1B04 JUMP JUMPDEST SWAP1 DUP14 PUSH1 0x64 DUP7 ADD MSTORE PUSH1 0x3 NOT DUP6 DUP4 SUB ADD PUSH1 0x84 DUP7 ADD MSTORE PUSH2 0x1C0F JUMP JUMPDEST DUP3 DUP2 SUB PUSH1 0x3 NOT ADD PUSH1 0xA4 DUP5 ADD MSTORE DUP14 PUSH2 0x1B04 JUMP JUMPDEST SUB SWAP3 GAS CALL DUP1 ISZERO PUSH2 0x328 JUMPI PUSH2 0x309 JUMPI JUMPDEST POP SWAP3 PUSH2 0x2F9 DUP6 PUSH2 0x2EB PUSH32 0x50F3A56867C9C3B6C4AF5856FAC7E97E8644FE1C677C25EA989AB1EE658A6FC5 SWAP6 PUSH2 0x2D8 SWAP6 PUSH1 0x40 MLOAD SWAP7 DUP8 SWAP7 PUSH1 0xA0 DUP9 MSTORE PUSH1 0xA0 DUP9 ADD SWAP1 PUSH2 0x1B04 JUMP JUMPDEST SWAP2 PUSH1 0x20 DUP8 ADD MSTORE DUP6 DUP3 SUB PUSH1 0x40 DUP8 ADD MSTORE PUSH2 0x1B04 JUMP JUMPDEST SWAP1 DUP4 DUP3 SUB PUSH1 0x60 DUP6 ADD MSTORE PUSH2 0x1B04 JUMP JUMPDEST TIMESTAMP PUSH1 0x80 DUP4 ADD MSTORE SUB SWAP1 LOG1 PUSH1 0x1 DUP2 SSTORE DUP1 RETURN JUMPDEST DUP2 PUSH2 0x317 SWAP2 SWAP6 SWAP5 SWAP4 SWAP6 PUSH2 0x1A82 JUMP JUMPDEST PUSH2 0x324 JUMPI SWAP1 SWAP2 DUP5 PUSH0 PUSH2 0x295 JUMP JUMPDEST DUP5 DUP1 REVERT JUMPDEST PUSH1 0x40 MLOAD RETURNDATASIZE DUP5 DUP3 RETURNDATACOPY RETURNDATASIZE SWAP1 REVERT JUMPDEST DUP4 DUP1 REVERT JUMPDEST PUSH2 0x359 SWAP2 POP PUSH1 0x20 RETURNDATASIZE PUSH1 0x20 GT PUSH2 0x35F JUMPI JUMPDEST PUSH2 0x351 DUP2 DUP4 PUSH2 0x1A82 JUMP JUMPDEST DUP2 ADD SWAP1 PUSH2 0x1EBE JUMP JUMPDEST PUSH0 PUSH2 0x1BD JUMP JUMPDEST POP RETURNDATASIZE PUSH2 0x347 JUMP JUMPDEST PUSH1 0x40 MLOAD RETURNDATASIZE DUP7 DUP3 RETURNDATACOPY RETURNDATASIZE SWAP1 REVERT JUMPDEST DUP3 DUP1 REVERT JUMPDEST POP JUMPDEST DUP1 REVERT JUMPDEST POP CALLVALUE PUSH2 0x7FB JUMPI PUSH2 0x140 CALLDATASIZE PUSH1 0x3 NOT ADD SLT PUSH2 0x7FB JUMPI PUSH1 0x4 CALLDATALOAD PUSH1 0x1 PUSH1 0x1 PUSH1 0x40 SHL SUB DUP2 GT PUSH2 0x7FB JUMPI PUSH2 0x3AC SWAP1 CALLDATASIZE SWAP1 PUSH1 0x4 ADD PUSH2 0x1ABE JUMP JUMPDEST PUSH1 0x24 CALLDATALOAD PUSH1 0x1 PUSH1 0x1 PUSH1 0x40 SHL SUB DUP2 GT PUSH2 0x7FB JUMPI PUSH2 0x3CB SWAP1 CALLDATASIZE SWAP1 PUSH1 0x4 ADD PUSH2 0x1ABE JUMP JUMPDEST PUSH1 0x44 CALLDATALOAD PUSH1 0x1 PUSH1 0x1 PUSH1 0x40 SHL SUB DUP2 GT PUSH2 0x7FB JUMPI PUSH2 0x3EA SWAP1 CALLDATASIZE SWAP1 PUSH1 0x4 ADD PUSH2 0x1ABE JUMP JUMPDEST SWAP2 PUSH1 0x64 CALLDATALOAD PUSH1 0x1 PUSH1 0x1 PUSH1 0x40 SHL SUB DUP2 GT PUSH2 0x7FB JUMPI PUSH2 0x40A SWAP1 CALLDATASIZE SWAP1 PUSH1 0x4 ADD PUSH2 0x1E40 JUMP JUMPDEST SWAP1 PUSH1 0x84 CALLDATALOAD PUSH1 0x1 PUSH1 0x1 PUSH1 0x40 SHL SUB DUP2 GT PUSH2 0x7FB JUMPI PUSH2 0x42A SWAP1 CALLDATASIZE SWAP1 PUSH1 0x4 ADD PUSH2 0x1ABE JUMP JUMPDEST SWAP2 PUSH1 0xA4 CALLDATALOAD PUSH1 0x1 PUSH1 0x1 PUSH1 0x40 SHL SUB DUP2 GT PUSH2 0x7FB JUMPI PUSH2 0x44A SWAP1 CALLDATASIZE SWAP1 PUSH1 0x4 ADD PUSH2 0x1E40 JUMP JUMPDEST SWAP3 PUSH1 0xC4 CALLDATALOAD PUSH1 0x1 PUSH1 0x1 PUSH1 0x40 SHL SUB DUP2 GT PUSH2 0x7FB JUMPI PUSH2 0x46A SWAP1 CALLDATASIZE SWAP1 PUSH1 0x4 ADD PUSH2 0x1ABE JUMP JUMPDEST SWAP4 PUSH1 0xE4 CALLDATALOAD SWAP6 PUSH1 0x2 DUP8 LT ISZERO PUSH2 0x7FB JUMPI PUSH2 0x104 CALLDATALOAD PUSH1 0x1 PUSH1 0x1 PUSH1 0x40 SHL SUB DUP2 GT PUSH2 0x7FB JUMPI PUSH2 0x498 SWAP1 CALLDATASIZE SWAP1 PUSH1 0x4 ADD PUSH2 0x1ABE JUMP JUMPDEST PUSH2 0x124 CALLDATALOAD PUSH1 0x1 PUSH1 0x1 PUSH1 0x40 SHL SUB DUP2 GT PUSH2 0x7FB JUMPI PUSH2 0x4B8 SWAP1 CALLDATASIZE SWAP1 PUSH1 0x4 ADD PUSH2 0x1ABE JUMP JUMPDEST PUSH1 0x40 MLOAD PUSH4 0x95A8C58D PUSH1 0xE0 SHL DUP2 MSTORE CALLER PUSH1 0x4 DUP3 ADD MSTORE PUSH0 PUSH1 0x24 DUP3 ADD MSTORE SWAP1 SWAP2 SWAP1 PUSH1 0x20 DUP2 PUSH1 0x44 DUP2 PUSH1 0x1 PUSH1 0x1 PUSH1 0xA0 SHL SUB PUSH32 0x0 AND GAS STATICCALL DUP1 ISZERO PUSH2 0x7F0 JUMPI PUSH2 0x51C SWAP2 PUSH0 SWAP2 PUSH2 0x337 JUMPI POP PUSH2 0x1ED6 JUMP JUMPDEST PUSH2 0x524 PUSH2 0x2481 JUMP JUMPDEST PUSH1 0x1 SLOAD PUSH9 0x10000000000000000 DUP2 LT ISZERO PUSH2 0x8B2 JUMPI DUP1 PUSH1 0x1 PUSH2 0x548 SWAP3 ADD PUSH1 0x1 SSTORE PUSH2 0x1D25 JUMP JUMPDEST PUSH2 0x8C6 JUMPI DUP8 MLOAD PUSH1 0x1 PUSH1 0x1 PUSH1 0x40 SHL SUB DUP2 GT PUSH2 0x8B2 JUMPI PUSH2 0x566 DUP3 SLOAD PUSH2 0x1D51 JUMP JUMPDEST PUSH1 0x1F DUP2 GT PUSH2 0x86D JUMPI JUMPDEST POP DUP1 PUSH1 0x20 PUSH1 0x1F DUP3 GT PUSH1 0x1 EQ PUSH2 0x80A JUMPI PUSH0 SWAP2 PUSH2 0x7FF JUMPI JUMPDEST POP DUP2 PUSH1 0x1 SHL SWAP2 PUSH0 NOT SWAP1 PUSH1 0x3 SHL SHR NOT AND OR SWAP1 SSTORE JUMPDEST PUSH32 0x0 PUSH1 0x1 PUSH1 0x1 PUSH1 0xA0 SHL SUB AND SWAP5 DUP6 EXTCODESIZE ISZERO PUSH2 0x7FB JUMPI PUSH1 0x40 MLOAD PUSH4 0x45C6F91F PUSH1 0xE1 SHL DUP2 MSTORE PUSH2 0x160 PUSH1 0x4 DUP3 ADD MSTORE SWAP7 DUP8 SWAP6 DUP7 SWAP6 SWAP1 SWAP2 SWAP1 DUP14 SWAP1 PUSH2 0x5F7 PUSH2 0x164 DUP10 ADD DUP14 PUSH2 0x1B04 JUMP JUMPDEST DUP9 DUP2 SUB PUSH1 0x3 NOT ADD PUSH1 0x24 DUP11 ADD MSTORE PUSH2 0x60C SWAP2 PUSH2 0x1B04 JUMP JUMPDEST DUP8 DUP2 SUB PUSH1 0x3 NOT ADD PUSH1 0x44 DUP10 ADD MSTORE PUSH2 0x621 SWAP2 PUSH2 0x1B04 JUMP JUMPDEST DUP7 DUP2 SUB PUSH1 0x3 NOT ADD PUSH1 0x64 DUP9 ADD MSTORE PUSH2 0x636 SWAP2 PUSH2 0x1C0F JUMP JUMPDEST DUP6 DUP2 SUB PUSH1 0x3 NOT ADD PUSH1 0x84 DUP8 ADD MSTORE PUSH2 0x64B SWAP2 PUSH2 0x1C0F JUMP JUMPDEST DUP5 DUP2 SUB PUSH1 0x3 NOT ADD PUSH1 0xA4 DUP7 ADD MSTORE PUSH2 0x660 SWAP2 PUSH2 0x1B04 JUMP JUMPDEST DUP4 DUP2 SUB PUSH1 0x3 NOT ADD PUSH1 0xC4 DUP6 ADD MSTORE PUSH2 0x676 SWAP1 DUP10 PUSH2 0x1B04 JUMP JUMPDEST CALLER PUSH1 0xE4 DUP6 ADD MSTORE PUSH2 0x685 DUP11 PUSH2 0x1B28 JUMP JUMPDEST DUP10 PUSH2 0x104 DUP6 ADD MSTORE PUSH1 0x3 NOT DUP5 DUP3 SUB ADD PUSH2 0x124 DUP6 ADD MSTORE PUSH2 0x6A2 SWAP2 PUSH2 0x1B04 JUMP JUMPDEST DUP3 DUP2 SUB PUSH1 0x3 NOT ADD PUSH2 0x144 DUP5 ADD MSTORE PUSH2 0x6B8 SWAP2 PUSH2 0x1B04 JUMP JUMPDEST SUB DUP2 GAS PUSH0 SWAP5 DUP6 SWAP2 CALL DUP1 ISZERO PUSH2 0x7F0 JUMPI PUSH2 0x7DB JUMPI JUMPDEST POP DUP5 SWAP1 PUSH32 0x0 PUSH1 0x1 PUSH1 0x1 PUSH1 0xA0 SHL SUB AND DUP1 EXTCODESIZE ISZERO PUSH2 0x371 JUMPI PUSH2 0x72D DUP4 SWAP2 PUSH2 0x73F SWAP4 DUP4 PUSH1 0x40 MLOAD DUP1 SWAP7 DUP2 SWAP6 DUP3 SWAP5 PUSH4 0x56003E0D PUSH1 0xE1 SHL DUP5 MSTORE PUSH1 0x40 PUSH1 0x4 DUP6 ADD MSTORE PUSH1 0x44 DUP5 ADD SWAP1 PUSH2 0x1B04 JUMP JUMPDEST DUP3 DUP2 SUB PUSH1 0x3 NOT ADD PUSH1 0x24 DUP5 ADD MSTORE DUP11 PUSH2 0x1B04 JUMP JUMPDEST SUB SWAP3 GAS CALL DUP1 ISZERO PUSH2 0x328 JUMPI PUSH2 0x7C2 JUMPI JUMPDEST POP SWAP3 PUSH2 0x7AC DUP4 PUSH2 0x798 SWAP4 PUSH2 0x782 PUSH32 0xF4487EDFBC31786288D4B0A58C9CF96191866674EDC1D0AAF83CC9FEEBB3D1BA SWAP7 PUSH2 0x1B28 JUMP JUMPDEST PUSH1 0xFF PUSH1 0x40 MLOAD SWAP6 DUP7 SWAP6 PUSH1 0xA0 DUP8 MSTORE PUSH1 0xA0 DUP8 ADD SWAP1 PUSH2 0x1B04 JUMP JUMPDEST SWAP3 AND PUSH1 0x20 DUP6 ADD MSTORE DUP4 DUP3 SUB PUSH1 0x40 DUP6 ADD MSTORE PUSH2 0x1B04 JUMP JUMPDEST CALLER PUSH1 0x60 DUP4 ADD MSTORE TIMESTAMP PUSH1 0x80 DUP4 ADD MSTORE SUB SWAP1 LOG1 PUSH1 0x1 DUP2 SSTORE DUP1 RETURN JUMPDEST DUP2 PUSH2 0x7CF SWAP2 SWAP6 SWAP4 SWAP6 PUSH2 0x1A82 JUMP JUMPDEST PUSH2 0x333 JUMPI SWAP2 DUP4 PUSH0 PUSH2 0x74E JUMP JUMPDEST PUSH2 0x7E8 SWAP2 SWAP6 POP PUSH0 SWAP1 PUSH2 0x1A82 JUMP JUMPDEST PUSH0 SWAP4 PUSH0 PUSH2 0x6CB JUMP JUMPDEST PUSH1 0x40 MLOAD RETURNDATASIZE PUSH0 DUP3 RETURNDATACOPY RETURNDATASIZE SWAP1 REVERT JUMPDEST PUSH0 DUP1 REVERT JUMPDEST SWAP1 POP DUP10 ADD MLOAD PUSH0 PUSH2 0x585 JUMP JUMPDEST PUSH0 DUP5 DUP2 MSTORE DUP2 DUP2 KECCAK256 SWAP3 POP PUSH1 0x1F NOT DUP5 AND SWAP1 JUMPDEST DUP13 DUP3 DUP3 LT PUSH2 0x855 JUMPI POP POP SWAP1 DUP4 PUSH1 0x1 SWAP5 SWAP4 SWAP3 LT PUSH2 0x83D JUMPI JUMPDEST POP POP DUP2 SHL ADD SWAP1 SSTORE PUSH2 0x598 JUMP JUMPDEST DUP12 ADD MLOAD PUSH0 NOT PUSH1 0xF8 DUP5 PUSH1 0x3 SHL AND SHR NOT AND SWAP1 SSTORE PUSH0 DUP1 PUSH2 0x831 JUMP JUMPDEST PUSH1 0x1 DUP5 SWAP6 PUSH1 0x20 SWAP4 SWAP6 DUP5 SWAP4 ADD MLOAD DUP2 SSTORE ADD SWAP5 ADD SWAP3 ADD PUSH2 0x81A JUMP JUMPDEST DUP3 PUSH0 MSTORE PUSH1 0x20 PUSH0 KECCAK256 PUSH1 0x1F DUP4 ADD PUSH1 0x5 SHR DUP2 ADD SWAP2 PUSH1 0x20 DUP5 LT PUSH2 0x8A8 JUMPI JUMPDEST PUSH1 0x1F ADD PUSH1 0x5 SHR ADD SWAP1 JUMPDEST DUP2 DUP2 LT PUSH2 0x89D JUMPI POP PUSH2 0x56F JUMP JUMPDEST PUSH0 DUP2 SSTORE PUSH1 0x1 ADD PUSH2 0x890 JUMP JUMPDEST SWAP1 SWAP2 POP DUP2 SWAP1 PUSH2 0x887 JUMP JUMPDEST PUSH4 0x4E487B71 PUSH1 0xE0 SHL PUSH0 MSTORE PUSH1 0x41 PUSH1 0x4 MSTORE PUSH1 0x24 PUSH0 REVERT JUMPDEST PUSH4 0x4E487B71 PUSH1 0xE0 SHL PUSH0 MSTORE PUSH0 PUSH1 0x4 MSTORE PUSH1 0x24 PUSH0 REVERT JUMPDEST CALLVALUE PUSH2 0x7FB JUMPI PUSH0 CALLDATASIZE PUSH1 0x3 NOT ADD SLT PUSH2 0x7FB JUMPI PUSH1 0x40 MLOAD PUSH32 0x0 PUSH1 0x1 PUSH1 0x1 PUSH1 0xA0 SHL SUB AND DUP2 MSTORE PUSH1 0x20 SWAP1 RETURN JUMPDEST CALLVALUE PUSH2 0x7FB JUMPI PUSH1 0x20 CALLDATASIZE PUSH1 0x3 NOT ADD SLT PUSH2 0x7FB JUMPI PUSH1 0x4 CALLDATALOAD PUSH1 0x1 SLOAD DUP2 LT ISZERO PUSH2 0x7FB JUMPI PUSH2 0x944 SWAP1 PUSH2 0x1D25 JUMP JUMPDEST PUSH2 0x8C6 JUMPI PUSH2 0x954 PUSH2 0x968 SWAP2 PUSH2 0x1D89 JUMP JUMPDEST PUSH1 0x40 MLOAD SWAP2 DUP3 SWAP2 PUSH1 0x20 DUP4 MSTORE PUSH1 0x20 DUP4 ADD SWAP1 PUSH2 0x1B04 JUMP JUMPDEST SUB SWAP1 RETURN JUMPDEST CALLVALUE PUSH2 0x7FB JUMPI PUSH1 0x20 CALLDATASIZE PUSH1 0x3 NOT ADD SLT PUSH2 0x7FB JUMPI PUSH1 0x4 CALLDATALOAD PUSH1 0x1 PUSH1 0x1 PUSH1 0x40 SHL SUB DUP2 GT PUSH2 0x7FB JUMPI PUSH2 0x99C SWAP1 CALLDATASIZE SWAP1 PUSH1 0x4 ADD PUSH2 0x1ABE JUMP JUMPDEST PUSH1 0x40 MLOAD PUSH4 0x95A8C58D PUSH1 0xE0 SHL DUP2 MSTORE CALLER PUSH1 0x4 DUP3 ADD MSTORE PUSH0 PUSH1 0x24 DUP3 ADD MSTORE PUSH1 0x20 DUP2 PUSH1 0x44 DUP2 PUSH1 0x1 PUSH1 0x1 PUSH1 0xA0 SHL SUB PUSH32 0x0 AND GAS STATICCALL DUP1 ISZERO PUSH2 0x7F0 JUMPI PUSH2 0x9FD SWAP2 PUSH0 SWAP2 PUSH2 0xD1A JUMPI POP PUSH2 0x1ED6 JUMP JUMPDEST PUSH1 0x1 SLOAD PUSH32 0x0 PUSH1 0x1 PUSH1 0x1 PUSH1 0xA0 SHL SUB AND SWAP2 SWAP1 PUSH1 0x20 DUP3 ADD PUSH0 DUP1 JUMPDEST DUP4 DUP2 LT PUSH2 0xC38 JUMPI POP PUSH2 0xA44 SWAP1 PUSH2 0x236B JUMP JUMPDEST SWAP3 PUSH0 SWAP2 PUSH2 0xA70 PUSH1 0x20 PUSH1 0x40 MLOAD DUP1 SWAP4 DUP3 DUP3 ADD SWAP6 MLOAD DUP1 SWAP2 DUP8 MCOPY DUP2 ADD PUSH0 DUP4 DUP3 ADD MSTORE SUB ADD PUSH1 0x1F NOT DUP2 ADD DUP4 MSTORE DUP3 PUSH2 0x1A82 JUMP JUMPDEST MLOAD SWAP1 KECCAK256 SWAP1 PUSH0 JUMPDEST DUP4 DUP2 LT PUSH2 0xA8B JUMPI PUSH1 0x40 MLOAD DUP1 PUSH2 0x968 DUP8 DUP3 PUSH2 0x1C67 JUMP JUMPDEST PUSH2 0xA9D PUSH2 0xA97 DUP3 PUSH2 0x1D25 JUMP JUMPDEST POP PUSH2 0x1D89 JUMP JUMPDEST PUSH1 0x40 MLOAD PUSH4 0x6B2C1339 PUSH1 0xE1 SHL DUP2 MSTORE PUSH1 0x20 PUSH1 0x4 DUP3 ADD MSTORE PUSH0 DUP2 DUP1 PUSH2 0xAC1 PUSH1 0x24 DUP3 ADD DUP7 PUSH2 0x1B04 JUMP JUMPDEST SUB DUP2 DUP12 GAS STATICCALL SWAP1 DUP2 ISZERO PUSH2 0x7F0 JUMPI PUSH0 SWAP2 PUSH2 0xC16 JUMPI JUMPDEST POP PUSH1 0xA0 DUP2 ADD SWAP2 DUP6 DUP4 MLOAD PUSH1 0x40 MLOAD PUSH2 0xB09 PUSH1 0x20 DUP3 DUP2 DUP1 DUP3 ADD SWAP6 DUP1 MLOAD SWAP2 DUP3 SWAP2 ADD DUP8 MCOPY DUP2 ADD PUSH0 DUP4 DUP3 ADD MSTORE SUB ADD PUSH1 0x1F NOT DUP2 ADD DUP4 MSTORE DUP3 PUSH2 0x1A82 JUMP JUMPDEST MLOAD SWAP1 KECCAK256 EQ PUSH2 0xB1D JUMPI JUMPDEST POP POP POP PUSH1 0x1 ADD PUSH2 0xA76 JUMP JUMPDEST PUSH1 0x40 MLOAD PUSH4 0x74A5ABCF PUSH1 0xE0 SHL DUP2 MSTORE PUSH1 0x20 PUSH1 0x4 DUP3 ADD MSTORE SWAP4 SWAP5 SWAP2 SWAP3 PUSH0 DUP6 DUP1 PUSH2 0xB45 PUSH1 0x24 DUP3 ADD DUP7 PUSH2 0x1B04 JUMP JUMPDEST SUB DUP2 PUSH32 0x0 PUSH1 0x1 PUSH1 0x1 PUSH1 0xA0 SHL SUB AND GAS STATICCALL SWAP1 DUP2 ISZERO PUSH2 0x7F0 JUMPI PUSH1 0x1 SWAP6 PUSH2 0xBDD SWAP6 PUSH0 SWAP1 PUSH0 SWAP3 PUSH0 SWAP6 PUSH2 0xBE6 JUMPI JUMPDEST POP SWAP1 PUSH1 0x20 PUSH1 0xFF SWAP4 SWAP3 ADD MLOAD SWAP4 MLOAD SWAP4 PUSH1 0x40 MLOAD SWAP7 PUSH2 0xBA6 DUP9 PUSH2 0x1A4C JUMP JUMPDEST DUP8 MSTORE PUSH1 0x20 DUP8 ADD MSTORE PUSH1 0x40 DUP7 ADD MSTORE AND PUSH1 0x60 DUP5 ADD MSTORE PUSH1 0x80 DUP4 ADD MSTORE PUSH1 0xA0 DUP3 ADD MSTORE PUSH2 0xBCC DUP3 DUP10 PUSH2 0x2125 JUMP JUMPDEST MSTORE PUSH2 0xBD7 DUP2 DUP9 PUSH2 0x2125 JUMP JUMPDEST POP PUSH2 0x2139 JUMP JUMPDEST SWAP2 SWAP1 DUP8 DUP1 PUSH2 0xB12 JUMP JUMPDEST PUSH2 0xC0B SWAP2 SWAP6 POP PUSH1 0xFF SWAP4 POP PUSH1 0x20 SWAP3 POP RETURNDATASIZE DUP1 PUSH0 DUP4 RETURNDATACOPY PUSH2 0xC03 DUP2 DUP4 PUSH2 0x1A82 JUMP JUMPDEST DUP2 ADD SWAP1 PUSH2 0x23E2 JUMP JUMPDEST SWAP6 SWAP1 SWAP4 POP SWAP1 SWAP2 PUSH2 0xB8C JUMP JUMPDEST PUSH2 0xC32 SWAP2 POP RETURNDATASIZE DUP1 PUSH0 DUP4 RETURNDATACOPY PUSH2 0xC2A DUP2 DUP4 PUSH2 0x1A82 JUMP JUMPDEST DUP2 ADD SWAP1 PUSH2 0x21C5 JUMP JUMPDEST DUP9 PUSH2 0xAD4 JUMP JUMPDEST PUSH2 0xC6A PUSH0 PUSH2 0xC48 PUSH2 0xA97 DUP5 PUSH2 0x1D25 JUMP JUMPDEST PUSH1 0x40 MLOAD DUP1 SWAP4 DUP2 SWAP3 PUSH4 0x6B2C1339 PUSH1 0xE1 SHL DUP4 MSTORE PUSH1 0x20 PUSH1 0x4 DUP5 ADD MSTORE PUSH1 0x24 DUP4 ADD SWAP1 PUSH2 0x1B04 JUMP JUMPDEST SUB DUP2 DUP11 GAS STATICCALL DUP1 ISZERO PUSH2 0x7F0 JUMPI PUSH1 0xA0 SWAP2 PUSH0 SWAP2 PUSH2 0xD00 JUMPI JUMPDEST POP ADD MLOAD PUSH1 0x40 MLOAD PUSH2 0xCAE PUSH1 0x20 DUP3 DUP2 DUP1 DUP3 ADD SWAP6 DUP1 MLOAD SWAP2 DUP3 SWAP2 ADD DUP8 MCOPY DUP2 ADD PUSH0 DUP4 DUP3 ADD MSTORE SUB ADD PUSH1 0x1F NOT DUP2 ADD DUP4 MSTORE DUP3 PUSH2 0x1A82 JUMP JUMPDEST MLOAD SWAP1 KECCAK256 PUSH1 0x40 MLOAD PUSH1 0x20 DUP2 ADD SWAP1 PUSH2 0xCDB PUSH1 0x20 DUP3 DUP11 MLOAD DUP1 DUP11 DUP8 MCOPY DUP2 ADD PUSH0 DUP4 DUP3 ADD MSTORE SUB ADD PUSH1 0x1F NOT DUP2 ADD DUP4 MSTORE DUP3 PUSH2 0x1A82 JUMP JUMPDEST MLOAD SWAP1 KECCAK256 EQ PUSH2 0xCEC JUMPI JUMPDEST PUSH1 0x1 ADD PUSH2 0xA33 JUMP JUMPDEST SWAP1 PUSH2 0xCF8 PUSH1 0x1 SWAP2 PUSH2 0x2139 JUMP JUMPDEST SWAP2 SWAP1 POP PUSH2 0xCE4 JUMP JUMPDEST PUSH2 0xD14 SWAP2 POP RETURNDATASIZE DUP1 PUSH0 DUP4 RETURNDATACOPY PUSH2 0xC2A DUP2 DUP4 PUSH2 0x1A82 JUMP JUMPDEST DUP9 PUSH2 0xC7F JUMP JUMPDEST PUSH2 0xD33 SWAP2 POP PUSH1 0x20 RETURNDATASIZE PUSH1 0x20 GT PUSH2 0x35F JUMPI PUSH2 0x351 DUP2 DUP4 PUSH2 0x1A82 JUMP JUMPDEST DUP4 PUSH2 0x1BD JUMP JUMPDEST CALLVALUE PUSH2 0x7FB JUMPI PUSH0 CALLDATASIZE PUSH1 0x3 NOT ADD SLT PUSH2 0x7FB JUMPI PUSH1 0x1 SLOAD PUSH1 0x5 DUP2 MUL DUP2 DUP2 DIV PUSH1 0x5 EQ DUP3 ISZERO OR ISZERO PUSH2 0xEDC JUMPI PUSH2 0xD67 SWAP1 PUSH2 0x1F41 JUMP JUMPDEST SWAP1 PUSH0 SWAP1 DUP2 PUSH32 0x0 PUSH1 0x1 PUSH1 0x1 PUSH1 0xA0 SHL SUB AND JUMPDEST DUP3 DUP3 LT PUSH2 0xDEB JUMPI POP POP POP PUSH2 0xDA9 DUP2 PUSH2 0x1F41 JUMP JUMPDEST SWAP2 PUSH0 JUMPDEST DUP3 DUP2 LT PUSH2 0xDC1 JUMPI PUSH1 0x40 MLOAD DUP1 PUSH2 0x968 DUP7 DUP3 PUSH2 0x1B46 JUMP JUMPDEST DUP1 PUSH2 0xDCE PUSH1 0x1 SWAP3 DUP5 PUSH2 0x2125 JUMP JUMPDEST MLOAD PUSH2 0xDD9 DUP3 DUP8 PUSH2 0x2125 JUMP JUMPDEST MSTORE PUSH2 0xDE4 DUP2 DUP7 PUSH2 0x2125 JUMP JUMPDEST POP ADD PUSH2 0xDAC JUMP JUMPDEST PUSH2 0xDFC PUSH2 0xA97 DUP4 SWAP6 SWAP4 SWAP7 SWAP5 SWAP7 PUSH2 0x1D25 JUMP JUMPDEST PUSH1 0x40 MLOAD PUSH4 0x46ABDD05 PUSH1 0xE1 SHL DUP2 MSTORE PUSH1 0x20 PUSH1 0x4 DUP3 ADD MSTORE SWAP1 SWAP2 PUSH0 DUP3 DUP1 PUSH2 0xE22 PUSH1 0x24 DUP3 ADD DUP8 PUSH2 0x1B04 JUMP JUMPDEST SUB DUP2 DUP5 GAS STATICCALL SWAP2 DUP3 ISZERO PUSH2 0x7F0 JUMPI PUSH0 SWAP3 PUSH2 0xEB8 JUMPI JUMPDEST POP PUSH0 JUMPDEST DUP3 MLOAD DUP2 LT ISZERO PUSH2 0xEA5 JUMPI PUSH2 0xE4B DUP2 DUP5 PUSH2 0x2125 JUMP JUMPDEST MLOAD MLOAD PUSH2 0xE56 DUP2 PUSH2 0x1B28 JUMP JUMPDEST PUSH2 0xE5F DUP2 PUSH2 0x1B28 JUMP JUMPDEST ISZERO PUSH2 0xE6D JUMPI JUMPDEST PUSH1 0x1 ADD PUSH2 0xE38 JUMP JUMPDEST SWAP4 PUSH2 0xE9D PUSH1 0x1 SWAP2 PUSH2 0xE88 PUSH2 0xE81 DUP9 DUP8 PUSH2 0x2125 JUMP JUMPDEST MLOAD DUP8 PUSH2 0x241E JUMP JUMPDEST PUSH2 0xE92 DUP3 DUP11 PUSH2 0x2125 JUMP JUMPDEST MSTORE PUSH2 0xBD7 DUP2 DUP10 PUSH2 0x2125 JUMP JUMPDEST SWAP5 SWAP1 POP PUSH2 0xE65 JUMP JUMPDEST POP SWAP4 SWAP6 SWAP3 SWAP5 SWAP1 POP PUSH1 0x1 SWAP2 POP ADD SWAP1 SWAP2 PUSH2 0xD96 JUMP JUMPDEST PUSH2 0xED5 SWAP2 SWAP3 POP RETURNDATASIZE DUP1 PUSH0 DUP4 RETURNDATACOPY PUSH2 0xECD DUP2 DUP4 PUSH2 0x1A82 JUMP JUMPDEST DUP2 ADD SWAP1 PUSH2 0x1FE4 JUMP JUMPDEST SWAP1 DUP8 PUSH2 0xE35 JUMP JUMPDEST PUSH4 0x4E487B71 PUSH1 0xE0 SHL PUSH0 MSTORE PUSH1 0x11 PUSH1 0x4 MSTORE PUSH1 0x24 PUSH0 REVERT JUMPDEST CALLVALUE PUSH2 0x7FB JUMPI PUSH1 0x40 CALLDATASIZE PUSH1 0x3 NOT ADD SLT PUSH2 0x7FB JUMPI PUSH1 0x4 CALLDATALOAD PUSH1 0x1 PUSH1 0x1 PUSH1 0x40 SHL SUB DUP2 GT PUSH2 0x7FB JUMPI PUSH2 0xF20 SWAP1 CALLDATASIZE SWAP1 PUSH1 0x4 ADD PUSH2 0x1ABE JUMP JUMPDEST PUSH1 0x24 CALLDATALOAD PUSH1 0x1 PUSH1 0x1 PUSH1 0x40 SHL SUB DUP2 GT PUSH2 0x7FB JUMPI PUSH2 0xF3F SWAP1 CALLDATASIZE SWAP1 PUSH1 0x4 ADD PUSH2 0x1ABE JUMP JUMPDEST SWAP1 PUSH1 0x60 PUSH1 0x80 PUSH1 0x40 MLOAD PUSH2 0xF50 DUP2 PUSH2 0x1A67 JUMP JUMPDEST PUSH0 DUP2 MSTORE DUP3 PUSH1 0x20 DUP3 ADD MSTORE DUP3 PUSH1 0x40 DUP3 ADD MSTORE PUSH0 DUP4 DUP3 ADD MSTORE ADD MSTORE PUSH1 0x1 DUP1 PUSH1 0xA0 SHL SUB PUSH32 0x0 AND SWAP1 PUSH1 0x40 MLOAD PUSH4 0x30804C31 PUSH1 0xE1 SHL DUP2 MSTORE PUSH1 0x20 PUSH1 0x4 DUP3 ADD MSTORE PUSH0 DUP2 DUP1 PUSH2 0xFB4 PUSH1 0x24 DUP3 ADD DUP9 PUSH2 0x1B04 JUMP JUMPDEST SUB DUP2 DUP7 GAS STATICCALL SWAP1 DUP2 ISZERO PUSH2 0x7F0 JUMPI PUSH0 SWAP2 PUSH2 0x122B JUMPI JUMPDEST POP PUSH2 0x1022 SWAP2 PUSH0 SWAP2 SWAP5 PUSH1 0x40 MLOAD PUSH2 0xFFB PUSH1 0x20 DUP3 DUP2 DUP1 DUP3 ADD SWAP6 DUP1 MLOAD SWAP2 DUP3 SWAP2 ADD DUP8 MCOPY DUP2 ADD DUP8 DUP4 DUP3 ADD MSTORE SUB ADD PUSH1 0x1F NOT DUP2 ADD DUP4 MSTORE DUP3 PUSH2 0x1A82 JUMP JUMPDEST MLOAD SWAP1 KECCAK256 SWAP4 PUSH1 0x40 MLOAD DUP1 DUP1 SWAP6 DUP2 SWAP5 PUSH4 0x46ABDD05 PUSH1 0xE1 SHL DUP4 MSTORE PUSH1 0x20 PUSH1 0x4 DUP5 ADD MSTORE PUSH1 0x24 DUP4 ADD SWAP1 PUSH2 0x1B04 JUMP JUMPDEST SUB SWAP2 GAS STATICCALL SWAP1 DUP2 ISZERO PUSH2 0x7F0 JUMPI PUSH0 SWAP2 PUSH2 0x1211 JUMPI JUMPDEST POP PUSH1 0x40 MLOAD SWAP1 PUSH2 0x1042 DUP3 PUSH2 0x1A67 JUMP JUMPDEST PUSH0 DUP3 MSTORE PUSH1 0x20 SWAP2 PUSH1 0x40 MLOAD PUSH2 0x1055 DUP5 DUP3 PUSH2 0x1A82 JUMP JUMPDEST PUSH0 DUP2 MSTORE DUP4 DUP3 ADD MSTORE PUSH1 0x40 MLOAD PUSH2 0x1069 DUP5 DUP3 PUSH2 0x1A82 JUMP JUMPDEST PUSH0 DUP2 MSTORE PUSH1 0x40 DUP3 ADD MSTORE PUSH0 PUSH1 0x60 DUP3 ADD MSTORE PUSH1 0x40 MLOAD PUSH2 0x1084 DUP5 DUP3 PUSH2 0x1A82 JUMP JUMPDEST PUSH0 DUP2 MSTORE PUSH1 0x80 DUP3 ADD MSTORE SWAP3 PUSH0 JUMPDEST DUP3 MLOAD DUP2 LT ISZERO PUSH2 0x1209 JUMPI DUP2 PUSH1 0x40 PUSH2 0x10A5 DUP4 DUP7 PUSH2 0x2125 JUMP JUMPDEST MLOAD ADD MLOAD PUSH1 0x40 MLOAD PUSH2 0x10D3 DUP8 DUP3 DUP2 DUP1 DUP3 ADD SWAP6 DUP1 MLOAD SWAP2 DUP3 SWAP2 ADD DUP8 MCOPY DUP2 ADD PUSH0 DUP4 DUP3 ADD MSTORE SUB ADD PUSH1 0x1F NOT DUP2 ADD DUP4 MSTORE DUP3 PUSH2 0x1A82 JUMP JUMPDEST MLOAD SWAP1 KECCAK256 EQ PUSH2 0x10E3 JUMPI PUSH1 0x1 ADD PUSH2 0x108F JUMP JUMPDEST SWAP2 SWAP1 POP PUSH2 0x10F1 SWAP3 SWAP4 POP PUSH2 0x2125 JUMP JUMPDEST MLOAD SWAP1 JUMPDEST PUSH1 0x40 MLOAD PUSH4 0x95A8C58D PUSH1 0xE0 SHL DUP2 MSTORE CALLER PUSH1 0x4 DUP3 ADD MSTORE PUSH1 0x1 PUSH1 0x24 DUP3 ADD MSTORE SWAP1 DUP1 DUP3 PUSH1 0x44 DUP2 PUSH32 0x0 PUSH1 0x1 PUSH1 0x1 PUSH1 0xA0 SHL SUB AND GAS STATICCALL SWAP4 DUP5 ISZERO PUSH2 0x7F0 JUMPI PUSH2 0x11C9 SWAP5 PUSH2 0x968 SWAP4 PUSH0 SWAP2 PUSH2 0x11EC JUMPI JUMPDEST POP PUSH2 0x11D6 JUMPI JUMPDEST PUSH1 0x40 MLOAD SWAP5 DUP6 SWAP5 PUSH1 0x40 DUP7 MSTORE DUP1 MLOAD PUSH2 0x1171 DUP2 PUSH2 0x1B28 JUMP JUMPDEST PUSH1 0x40 DUP8 ADD MSTORE PUSH1 0x80 PUSH2 0x11A8 PUSH2 0x1193 DUP7 DUP5 ADD MLOAD PUSH1 0xA0 PUSH1 0x60 DUP12 ADD MSTORE PUSH1 0xE0 DUP11 ADD SWAP1 PUSH2 0x1B04 JUMP JUMPDEST PUSH1 0x40 DUP5 ADD MLOAD DUP10 DUP3 SUB PUSH1 0x3F NOT ADD DUP5 DUP12 ADD MSTORE PUSH2 0x1B04 JUMP JUMPDEST PUSH1 0x60 DUP4 ADD MLOAD PUSH1 0xFF AND PUSH1 0xA0 DUP10 ADD MSTORE SWAP2 ADD MLOAD DUP7 DUP3 SUB PUSH1 0x3F NOT ADD PUSH1 0xC0 DUP9 ADD MSTORE PUSH2 0x1B04 JUMP JUMPDEST SWAP2 DUP5 DUP4 SUB SWAP1 DUP6 ADD MSTORE PUSH2 0x1C0F JUMP JUMPDEST POP PUSH1 0x40 MLOAD PUSH2 0x11E4 DUP3 DUP3 PUSH2 0x1A82 JUMP JUMPDEST PUSH0 DUP2 MSTORE PUSH2 0x115C JUMP JUMPDEST PUSH2 0x1203 SWAP2 POP DUP4 RETURNDATASIZE DUP6 GT PUSH2 0x35F JUMPI PUSH2 0x351 DUP2 DUP4 PUSH2 0x1A82 JUMP JUMPDEST DUP7 PUSH2 0x1156 JUMP JUMPDEST POP POP POP PUSH2 0x10F4 JUMP JUMPDEST PUSH2 0x1225 SWAP2 POP RETURNDATASIZE DUP1 PUSH0 DUP4 RETURNDATACOPY PUSH2 0xECD DUP2 DUP4 PUSH2 0x1A82 JUMP JUMPDEST DUP4 PUSH2 0x1034 JUMP JUMPDEST SWAP1 POP RETURNDATASIZE DUP1 PUSH0 DUP4 RETURNDATACOPY PUSH2 0x123C DUP2 DUP4 PUSH2 0x1A82 JUMP JUMPDEST DUP2 ADD SWAP2 PUSH1 0x20 DUP3 DUP5 SUB SLT PUSH2 0x7FB JUMPI DUP2 MLOAD SWAP2 PUSH1 0x1 PUSH1 0x1 PUSH1 0x40 SHL SUB DUP4 GT PUSH2 0x7FB JUMPI PUSH2 0x1022 SWAP4 PUSH0 SWAP4 PUSH2 0x126A SWAP3 ADD PUSH2 0x2147 JUMP JUMPDEST SWAP2 POP SWAP2 PUSH2 0xFC7 JUMP JUMPDEST CALLVALUE PUSH2 0x7FB JUMPI PUSH0 CALLDATASIZE PUSH1 0x3 NOT ADD SLT PUSH2 0x7FB JUMPI PUSH1 0x40 MLOAD PUSH4 0x95A8C58D PUSH1 0xE0 SHL DUP2 MSTORE CALLER PUSH1 0x4 DUP3 ADD MSTORE PUSH1 0x2 PUSH1 0x24 DUP3 ADD MSTORE PUSH1 0x20 DUP2 PUSH1 0x44 DUP2 PUSH32 0x0 PUSH1 0x1 PUSH1 0x1 PUSH1 0xA0 SHL SUB AND GAS STATICCALL SWAP1 DUP2 ISZERO PUSH2 0x7F0 JUMPI PUSH0 SWAP2 PUSH2 0x150C JUMPI JUMPDEST POP ISZERO PUSH2 0x14DB JUMPI PUSH1 0x1 SLOAD PUSH2 0x12EE DUP2 PUSH2 0x236B JUMP JUMPDEST SWAP1 PUSH2 0x12F8 DUP2 PUSH2 0x1E29 JUMP JUMPDEST PUSH2 0x1305 PUSH1 0x40 MLOAD SWAP2 DUP3 PUSH2 0x1A82 JUMP JUMPDEST DUP2 DUP2 MSTORE PUSH1 0x20 DUP2 ADD PUSH1 0x1 PUSH0 MSTORE PUSH32 0xB10E2D527612073B26EECDFD717E6A320CF44B4AFAC2B0732D9FCBE2B7FA0CF6 SWAP1 PUSH0 SWAP1 JUMPDEST DUP5 DUP3 LT PUSH2 0x14BE JUMPI POP POP PUSH1 0x1 PUSH1 0x1 PUSH1 0xA0 SHL SUB PUSH32 0x0 DUP2 AND SWAP3 PUSH32 0x0 SWAP1 SWAP2 AND SWAP2 POP PUSH0 JUMPDEST DUP5 DUP2 LT PUSH2 0x13A7 JUMPI PUSH1 0x40 MLOAD DUP1 PUSH2 0x968 DUP9 DUP3 PUSH2 0x1C67 JUMP JUMPDEST PUSH2 0x13B1 DUP2 DUP4 PUSH2 0x2125 JUMP JUMPDEST MLOAD PUSH1 0x40 MLOAD PUSH4 0x6B2C1339 PUSH1 0xE1 SHL DUP2 MSTORE PUSH1 0x20 PUSH1 0x4 DUP3 ADD MSTORE SWAP2 SWAP1 PUSH0 DUP4 DUP1 PUSH2 0x13D8 PUSH1 0x24 DUP3 ADD DUP6 PUSH2 0x1B04 JUMP JUMPDEST SUB DUP2 DUP10 GAS STATICCALL SWAP3 DUP4 ISZERO PUSH2 0x7F0 JUMPI PUSH0 SWAP4 PUSH2 0x14A2 JUMPI JUMPDEST POP PUSH1 0x40 MLOAD PUSH4 0x74A5ABCF PUSH1 0xE0 SHL DUP2 MSTORE PUSH1 0x20 PUSH1 0x4 DUP3 ADD MSTORE SWAP3 PUSH0 DUP5 DUP1 PUSH2 0x1411 PUSH1 0x24 DUP3 ADD DUP7 PUSH2 0x1B04 JUMP JUMPDEST SUB DUP2 DUP10 GAS STATICCALL SWAP1 DUP2 ISZERO PUSH2 0x7F0 JUMPI PUSH1 0x1 SWAP5 PUSH0 PUSH0 SWAP2 PUSH0 SWAP5 PUSH2 0x147F JUMPI JUMPDEST POP SWAP1 PUSH1 0xFF SWAP2 PUSH1 0xA0 PUSH1 0x20 DUP6 ADD MLOAD SWAP5 ADD MLOAD SWAP4 PUSH1 0x40 MLOAD SWAP7 PUSH2 0x1447 DUP9 PUSH2 0x1A4C JUMP JUMPDEST DUP8 MSTORE PUSH1 0x20 DUP8 ADD MSTORE PUSH1 0x40 DUP7 ADD MSTORE AND PUSH1 0x60 DUP5 ADD MSTORE PUSH1 0x80 DUP4 ADD MSTORE PUSH1 0xA0 DUP3 ADD MSTORE PUSH2 0x146D DUP3 DUP10 PUSH2 0x2125 JUMP JUMPDEST MSTORE PUSH2 0x1478 DUP2 DUP9 PUSH2 0x2125 JUMP JUMPDEST POP ADD PUSH2 0x1392 JUMP JUMPDEST SWAP1 POP PUSH1 0xFF SWAP4 POP PUSH2 0x1499 SWAP2 POP RETURNDATASIZE DUP1 PUSH0 DUP4 RETURNDATACOPY PUSH2 0xC03 DUP2 DUP4 PUSH2 0x1A82 JUMP JUMPDEST SWAP4 SWAP1 SWAP2 SWAP1 PUSH2 0x142A JUMP JUMPDEST PUSH2 0x14B7 SWAP2 SWAP4 POP RETURNDATASIZE DUP1 PUSH0 DUP4 RETURNDATACOPY PUSH2 0xC2A DUP2 DUP4 PUSH2 0x1A82 JUMP JUMPDEST SWAP2 DUP9 PUSH2 0x13EB JUMP JUMPDEST PUSH1 0x1 PUSH1 0x20 DUP2 SWAP3 PUSH2 0x14CD DUP7 PUSH2 0x1D89 JUMP JUMPDEST DUP2 MSTORE ADD SWAP4 ADD SWAP2 ADD SWAP1 SWAP2 PUSH2 0x1335 JUMP JUMPDEST PUSH1 0x40 MLOAD PUSH3 0x461BCD PUSH1 0xE5 SHL DUP2 MSTORE PUSH1 0x20 PUSH1 0x4 DUP3 ADD MSTORE PUSH1 0x9 PUSH1 0x24 DUP3 ADD MSTORE PUSH9 0x4F6E6C792042504F4D PUSH1 0xB8 SHL PUSH1 0x44 DUP3 ADD MSTORE PUSH1 0x64 SWAP1 REVERT JUMPDEST PUSH2 0x1525 SWAP2 POP PUSH1 0x20 RETURNDATASIZE PUSH1 0x20 GT PUSH2 0x35F JUMPI PUSH2 0x351 DUP2 DUP4 PUSH2 0x1A82 JUMP JUMPDEST DUP2 PUSH2 0x12DC JUMP JUMPDEST CALLVALUE PUSH2 0x7FB JUMPI PUSH1 0x20 CALLDATASIZE PUSH1 0x3 NOT ADD SLT PUSH2 0x7FB JUMPI PUSH1 0x4 CALLDATALOAD PUSH1 0x1 PUSH1 0x1 PUSH1 0x40 SHL SUB DUP2 GT PUSH2 0x7FB JUMPI PUSH0 PUSH2 0x155F PUSH2 0x15CE SWAP3 CALLDATASIZE SWAP1 PUSH1 0x4 ADD PUSH2 0x1ABE JUMP JUMPDEST PUSH1 0x60 PUSH2 0x140 PUSH1 0x40 MLOAD PUSH2 0x1570 DUP2 PUSH2 0x1A30 JUMP JUMPDEST DUP3 DUP2 MSTORE DUP3 PUSH1 0x20 DUP3 ADD MSTORE DUP3 PUSH1 0x40 DUP3 ADD MSTORE DUP3 DUP1 DUP3 ADD MSTORE DUP3 PUSH1 0x80 DUP3 ADD MSTORE DUP3 PUSH1 0xA0 DUP3 ADD MSTORE DUP5 PUSH1 0xC0 DUP3 ADD MSTORE DUP5 PUSH1 0xE0 DUP3 ADD MSTORE DUP3 PUSH2 0x100 DUP3 ADD MSTORE DUP3 PUSH2 0x120 DUP3 ADD MSTORE ADD MSTORE PUSH1 0x40 MLOAD DUP1 SWAP4 DUP2 SWAP3 PUSH4 0x6B2C1339 PUSH1 0xE1 SHL DUP4 MSTORE PUSH1 0x20 PUSH1 0x4 DUP5 ADD MSTORE PUSH1 0x24 DUP4 ADD SWAP1 PUSH2 0x1B04 JUMP JUMPDEST SUB DUP2 PUSH32 0x0 PUSH1 0x1 PUSH1 0x1 PUSH1 0xA0 SHL SUB AND GAS STATICCALL DUP1 ISZERO PUSH2 0x7F0 JUMPI PUSH2 0x968 SWAP2 PUSH0 SWAP2 PUSH2 0x1723 JUMPI JUMPDEST POP PUSH1 0x40 MLOAD SWAP2 DUP3 SWAP2 PUSH1 0x20 DUP4 MSTORE PUSH2 0x140 PUSH2 0x170E PUSH2 0x16F8 PUSH2 0x16B7 PUSH2 0x16A1 PUSH2 0x168B PUSH2 0x1675 PUSH2 0x165F PUSH2 0x1649 DUP12 PUSH2 0x160 PUSH1 0x20 DUP13 MLOAD SWAP3 ADD MSTORE PUSH2 0x180 DUP14 ADD SWAP1 PUSH2 0x1B04 JUMP JUMPDEST PUSH1 0x20 DUP11 ADD MLOAD DUP13 DUP3 SUB PUSH1 0x1F NOT ADD PUSH1 0x40 DUP15 ADD MSTORE PUSH2 0x1B04 JUMP JUMPDEST PUSH1 0x40 DUP10 ADD MLOAD DUP12 DUP3 SUB PUSH1 0x1F NOT ADD PUSH1 0x60 DUP14 ADD MSTORE PUSH2 0x1C0F JUMP JUMPDEST PUSH1 0x60 DUP9 ADD MLOAD DUP11 DUP3 SUB PUSH1 0x1F NOT ADD PUSH1 0x80 DUP13 ADD MSTORE PUSH2 0x1C0F JUMP JUMPDEST PUSH1 0x80 DUP8 ADD MLOAD DUP10 DUP3 SUB PUSH1 0x1F NOT ADD PUSH1 0xA0 DUP12 ADD MSTORE PUSH2 0x1B04 JUMP JUMPDEST PUSH1 0xA0 DUP7 ADD MLOAD DUP9 DUP3 SUB PUSH1 0x1F NOT ADD PUSH1 0xC0 DUP11 ADD MSTORE PUSH2 0x1B04 JUMP JUMPDEST PUSH1 0xC0 DUP6 ADD MLOAD PUSH1 0x1 PUSH1 0x1 PUSH1 0xA0 SHL SUB AND PUSH1 0xE0 DUP9 DUP2 ADD SWAP2 SWAP1 SWAP2 MSTORE DUP6 ADD MLOAD PUSH2 0x16DA DUP2 PUSH2 0x1B28 JUMP JUMPDEST PUSH2 0x100 DUP9 ADD MSTORE PUSH2 0x100 DUP6 ADD MLOAD PUSH1 0x1F NOT DUP9 DUP4 SUB ADD PUSH2 0x120 DUP10 ADD MSTORE PUSH2 0x1B04 JUMP JUMPDEST PUSH2 0x120 DUP5 ADD MLOAD DUP7 DUP3 SUB PUSH1 0x1F NOT ADD DUP5 DUP9 ADD MSTORE PUSH2 0x1B04 JUMP JUMPDEST SWAP2 ADD MLOAD DUP4 DUP3 SUB PUSH1 0x1F NOT ADD PUSH2 0x160 DUP6 ADD MSTORE PUSH2 0x1B04 JUMP JUMPDEST PUSH2 0x1737 SWAP2 POP RETURNDATASIZE DUP1 PUSH0 DUP4 RETURNDATACOPY PUSH2 0xC2A DUP2 DUP4 PUSH2 0x1A82 JUMP JUMPDEST DUP3 PUSH2 0x160D JUMP JUMPDEST CALLVALUE PUSH2 0x7FB JUMPI PUSH0 CALLDATASIZE PUSH1 0x3 NOT ADD SLT PUSH2 0x7FB JUMPI PUSH1 0x40 MLOAD PUSH32 0x0 PUSH1 0x1 PUSH1 0x1 PUSH1 0xA0 SHL SUB AND DUP2 MSTORE PUSH1 0x20 SWAP1 RETURN JUMPDEST CALLVALUE PUSH2 0x7FB JUMPI PUSH1 0x20 CALLDATASIZE PUSH1 0x3 NOT ADD SLT PUSH2 0x7FB JUMPI PUSH1 0x4 CALLDATALOAD PUSH1 0x1 PUSH1 0x1 PUSH1 0x40 SHL SUB DUP2 GT PUSH2 0x7FB JUMPI PUSH2 0x17B1 SWAP1 CALLDATASIZE SWAP1 PUSH1 0x4 ADD PUSH2 0x1ABE JUMP JUMPDEST PUSH1 0x40 MLOAD PUSH4 0x95A8C58D PUSH1 0xE0 SHL DUP2 MSTORE CALLER PUSH1 0x4 DUP3 ADD MSTORE PUSH0 PUSH1 0x24 DUP3 ADD MSTORE PUSH1 0x20 DUP2 PUSH1 0x44 DUP2 PUSH1 0x1 PUSH1 0x1 PUSH1 0xA0 SHL SUB PUSH32 0x0 AND GAS STATICCALL DUP1 ISZERO PUSH2 0x7F0 JUMPI PUSH2 0x1812 SWAP2 PUSH0 SWAP2 PUSH2 0xD1A JUMPI POP PUSH2 0x1ED6 JUMP JUMPDEST PUSH1 0x1 SLOAD SWAP1 PUSH1 0x40 MLOAD PUSH2 0x1842 PUSH1 0x20 DUP3 DUP2 DUP1 DUP3 ADD SWAP6 DUP1 MLOAD SWAP2 DUP3 SWAP2 ADD DUP8 MCOPY DUP2 ADD PUSH0 DUP4 DUP3 ADD MSTORE SUB ADD PUSH1 0x1F NOT DUP2 ADD DUP4 MSTORE DUP3 PUSH2 0x1A82 JUMP JUMPDEST MLOAD SWAP1 KECCAK256 PUSH1 0x5 DUP3 MUL DUP3 DUP2 DIV PUSH1 0x5 EQ DUP4 ISZERO OR ISZERO PUSH2 0xEDC JUMPI PUSH2 0x1860 SWAP1 PUSH2 0x1F41 JUMP JUMPDEST SWAP2 PUSH0 SWAP2 DUP3 SWAP1 PUSH32 0x0 PUSH1 0x1 PUSH1 0x1 PUSH1 0xA0 SHL SUB AND JUMPDEST DUP4 DUP4 LT PUSH2 0x18E4 JUMPI DUP6 DUP6 PUSH2 0x18A2 DUP2 PUSH2 0x1F41 JUMP JUMPDEST SWAP2 PUSH0 JUMPDEST DUP3 DUP2 LT PUSH2 0x18BA JUMPI PUSH1 0x40 MLOAD DUP1 PUSH2 0x968 DUP7 DUP3 PUSH2 0x1B46 JUMP JUMPDEST DUP1 PUSH2 0x18C7 PUSH1 0x1 SWAP3 DUP5 PUSH2 0x2125 JUMP JUMPDEST MLOAD PUSH2 0x18D2 DUP3 DUP8 PUSH2 0x2125 JUMP JUMPDEST MSTORE PUSH2 0x18DD DUP2 DUP7 PUSH2 0x2125 JUMP JUMPDEST POP ADD PUSH2 0x18A5 JUMP JUMPDEST PUSH2 0x18F6 PUSH2 0xA97 DUP5 SWAP7 SWAP5 SWAP8 SWAP4 SWAP6 SWAP8 PUSH2 0x1D25 JUMP JUMPDEST SWAP2 PUSH1 0x40 MLOAD SWAP2 PUSH4 0x46ABDD05 PUSH1 0xE1 SHL DUP4 MSTORE PUSH1 0x20 PUSH1 0x4 DUP5 ADD MSTORE PUSH0 DUP4 DUP1 PUSH2 0x191C PUSH1 0x24 DUP3 ADD DUP9 PUSH2 0x1B04 JUMP JUMPDEST SUB DUP2 DUP5 GAS STATICCALL SWAP3 DUP4 ISZERO PUSH2 0x7F0 JUMPI PUSH0 SWAP4 PUSH2 0x19D3 JUMPI JUMPDEST POP PUSH0 JUMPDEST DUP4 MLOAD DUP2 LT ISZERO PUSH2 0x19C0 JUMPI DUP7 PUSH1 0x80 PUSH2 0x1948 DUP4 DUP8 PUSH2 0x2125 JUMP JUMPDEST MLOAD ADD MLOAD PUSH1 0x40 MLOAD PUSH2 0x1977 PUSH1 0x20 DUP3 DUP2 DUP1 DUP3 ADD SWAP6 DUP1 MLOAD SWAP2 DUP3 SWAP2 ADD DUP8 MCOPY DUP2 ADD PUSH0 DUP4 DUP3 ADD MSTORE SUB ADD PUSH1 0x1F NOT DUP2 ADD DUP4 MSTORE DUP3 PUSH2 0x1A82 JUMP JUMPDEST MLOAD SWAP1 KECCAK256 EQ PUSH2 0x1988 JUMPI JUMPDEST PUSH1 0x1 ADD PUSH2 0x1932 JUMP JUMPDEST SWAP5 PUSH2 0x19B8 PUSH1 0x1 SWAP2 PUSH2 0x19A3 PUSH2 0x199C DUP10 DUP9 PUSH2 0x2125 JUMP JUMPDEST MLOAD DUP9 PUSH2 0x241E JUMP JUMPDEST PUSH2 0x19AD DUP3 DUP8 PUSH2 0x2125 JUMP JUMPDEST MSTORE PUSH2 0xBD7 DUP2 DUP7 PUSH2 0x2125 JUMP JUMPDEST SWAP6 SWAP1 POP PUSH2 0x1980 JUMP JUMPDEST POP SWAP5 SWAP3 POP SWAP6 SWAP3 SWAP5 PUSH1 0x1 SWAP2 POP ADD SWAP2 SWAP3 PUSH2 0x1890 JUMP JUMPDEST PUSH2 0x19E8 SWAP2 SWAP4 POP RETURNDATASIZE DUP1 PUSH0 DUP4 RETURNDATACOPY PUSH2 0xECD DUP2 DUP4 PUSH2 0x1A82 JUMP JUMPDEST SWAP2 DUP9 PUSH2 0x192F JUMP JUMPDEST CALLVALUE PUSH2 0x7FB JUMPI PUSH0 CALLDATASIZE PUSH1 0x3 NOT ADD SLT PUSH2 0x7FB JUMPI PUSH32 0x0 PUSH1 0x1 PUSH1 0x1 PUSH1 0xA0 SHL SUB AND DUP2 MSTORE PUSH1 0x20 SWAP1 RETURN JUMPDEST PUSH2 0x160 DUP2 ADD SWAP1 DUP2 LT PUSH1 0x1 PUSH1 0x1 PUSH1 0x40 SHL SUB DUP3 GT OR PUSH2 0x8B2 JUMPI PUSH1 0x40 MSTORE JUMP JUMPDEST PUSH1 0xC0 DUP2 ADD SWAP1 DUP2 LT PUSH1 0x1 PUSH1 0x1 PUSH1 0x40 SHL SUB DUP3 GT OR PUSH2 0x8B2 JUMPI PUSH1 0x40 MSTORE JUMP JUMPDEST PUSH1 0xA0 DUP2 ADD SWAP1 DUP2 LT PUSH1 0x1 PUSH1 0x1 PUSH1 0x40 SHL SUB DUP3 GT OR PUSH2 0x8B2 JUMPI PUSH1 0x40 MSTORE JUMP JUMPDEST SWAP1 PUSH1 0x1F DUP1 NOT SWAP2 ADD AND DUP2 ADD SWAP1 DUP2 LT PUSH1 0x1 PUSH1 0x1 PUSH1 0x40 SHL SUB DUP3 GT OR PUSH2 0x8B2 JUMPI PUSH1 0x40 MSTORE JUMP JUMPDEST PUSH1 0x1 PUSH1 0x1 PUSH1 0x40 SHL SUB DUP2 GT PUSH2 0x8B2 JUMPI PUSH1 0x1F ADD PUSH1 0x1F NOT AND PUSH1 0x20 ADD SWAP1 JUMP JUMPDEST DUP2 PUSH1 0x1F DUP3 ADD SLT ISZERO PUSH2 0x7FB JUMPI DUP1 CALLDATALOAD SWAP1 PUSH2 0x1AD5 DUP3 PUSH2 0x1AA3 JUMP JUMPDEST SWAP3 PUSH2 0x1AE3 PUSH1 0x40 MLOAD SWAP5 DUP6 PUSH2 0x1A82 JUMP JUMPDEST DUP3 DUP5 MSTORE PUSH1 0x20 DUP4 DUP4 ADD ADD GT PUSH2 0x7FB JUMPI DUP2 PUSH0 SWAP3 PUSH1 0x20 DUP1 SWAP4 ADD DUP4 DUP7 ADD CALLDATACOPY DUP4 ADD ADD MSTORE SWAP1 JUMP JUMPDEST DUP1 MLOAD DUP1 DUP4 MSTORE PUSH1 0x20 SWAP3 SWAP2 DUP2 SWAP1 DUP5 ADD DUP5 DUP5 ADD MCOPY PUSH0 DUP3 DUP3 ADD DUP5 ADD MSTORE PUSH1 0x1F ADD PUSH1 0x1F NOT AND ADD ADD SWAP1 JUMP JUMPDEST PUSH1 0x2 GT ISZERO PUSH2 0x1B32 JUMPI JUMP JUMPDEST PUSH4 0x4E487B71 PUSH1 0xE0 SHL PUSH0 MSTORE PUSH1 0x21 PUSH1 0x4 MSTORE PUSH1 0x24 PUSH0 REVERT JUMPDEST PUSH1 0x20 DUP2 ADD PUSH1 0x20 DUP3 MSTORE DUP3 MLOAD DUP1 SWAP2 MSTORE PUSH1 0x40 DUP3 ADD SWAP2 PUSH1 0x20 PUSH1 0x40 DUP4 PUSH1 0x5 SHL DUP4 ADD ADD SWAP5 ADD SWAP3 PUSH0 SWAP2 JUMPDEST DUP4 DUP4 LT PUSH2 0x1B78 JUMPI POP POP POP POP POP SWAP1 JUMP JUMPDEST SWAP1 SWAP2 SWAP3 SWAP4 SWAP5 PUSH1 0x20 DUP1 PUSH2 0x1C00 PUSH1 0x1 SWAP4 PUSH1 0x3F NOT DUP7 DUP3 SUB ADD DUP8 MSTORE DUP10 MLOAD SWAP1 PUSH1 0xA0 PUSH2 0x1BCF PUSH2 0x1BBD PUSH2 0x1BAD DUP6 MLOAD PUSH1 0xC0 DUP7 MSTORE PUSH1 0xC0 DUP7 ADD SWAP1 PUSH2 0x1B04 JUMP JUMPDEST DUP8 DUP7 ADD MLOAD DUP6 DUP3 SUB DUP10 DUP8 ADD MSTORE PUSH2 0x1B04 JUMP JUMPDEST PUSH1 0x40 DUP6 ADD MLOAD DUP5 DUP3 SUB PUSH1 0x40 DUP7 ADD MSTORE PUSH2 0x1B04 JUMP JUMPDEST SWAP3 PUSH1 0xFF PUSH1 0x60 DUP3 ADD MLOAD AND PUSH1 0x60 DUP5 ADD MSTORE PUSH1 0x80 DUP2 ADD MLOAD PUSH2 0x1BEB DUP2 PUSH2 0x1B28 JUMP JUMPDEST PUSH1 0x80 DUP5 ADD MSTORE ADD MLOAD SWAP1 PUSH1 0xA0 DUP2 DUP5 SUB SWAP2 ADD MSTORE PUSH2 0x1B04 JUMP JUMPDEST SWAP8 ADD SWAP4 ADD SWAP4 ADD SWAP2 SWAP4 SWAP3 SWAP1 PUSH2 0x1B69 JUMP JUMPDEST SWAP1 DUP1 PUSH1 0x20 DUP4 MLOAD SWAP2 DUP3 DUP2 MSTORE ADD SWAP2 PUSH1 0x20 DUP1 DUP4 PUSH1 0x5 SHL DUP4 ADD ADD SWAP5 ADD SWAP3 PUSH0 SWAP2 JUMPDEST DUP4 DUP4 LT PUSH2 0x1C3A JUMPI POP POP POP POP POP SWAP1 JUMP JUMPDEST SWAP1 SWAP2 SWAP3 SWAP4 SWAP5 PUSH1 0x20 DUP1 PUSH2 0x1C58 PUSH1 0x1 SWAP4 PUSH1 0x1F NOT DUP7 DUP3 SUB ADD DUP8 MSTORE DUP10 MLOAD PUSH2 0x1B04 JUMP JUMPDEST SWAP8 ADD SWAP4 ADD SWAP4 ADD SWAP2 SWAP4 SWAP3 SWAP1 PUSH2 0x1C2B JUMP JUMPDEST PUSH1 0x20 DUP2 ADD PUSH1 0x20 DUP3 MSTORE DUP3 MLOAD DUP1 SWAP2 MSTORE PUSH1 0x40 DUP3 ADD SWAP2 PUSH1 0x20 PUSH1 0x40 DUP4 PUSH1 0x5 SHL DUP4 ADD ADD SWAP5 ADD SWAP3 PUSH0 SWAP2 JUMPDEST DUP4 DUP4 LT PUSH2 0x1C99 JUMPI POP POP POP POP POP SWAP1 JUMP JUMPDEST SWAP1 SWAP2 SWAP3 SWAP4 SWAP5 PUSH1 0x20 DUP1 PUSH1 0x1 SWAP3 PUSH1 0x3F NOT DUP6 DUP3 SUB ADD DUP7 MSTORE DUP9 MLOAD SWAP1 PUSH1 0xA0 DUP1 PUSH2 0x1D10 PUSH2 0x1CF1 PUSH2 0x1CDF PUSH2 0x1CCF DUP8 MLOAD PUSH1 0xC0 DUP9 MSTORE PUSH1 0xC0 DUP9 ADD SWAP1 PUSH2 0x1B04 JUMP JUMPDEST DUP9 DUP9 ADD MLOAD DUP8 DUP3 SUB DUP11 DUP10 ADD MSTORE PUSH2 0x1B04 JUMP JUMPDEST PUSH1 0x40 DUP8 ADD MLOAD DUP7 DUP3 SUB PUSH1 0x40 DUP9 ADD MSTORE PUSH2 0x1B04 JUMP JUMPDEST PUSH1 0xFF PUSH1 0x60 DUP8 ADD MLOAD AND PUSH1 0x60 DUP7 ADD MSTORE PUSH1 0x80 DUP7 ADD MLOAD DUP6 DUP3 SUB PUSH1 0x80 DUP8 ADD MSTORE PUSH2 0x1B04 JUMP JUMPDEST SWAP4 ADD MLOAD SWAP2 ADD MSTORE SWAP8 ADD SWAP4 ADD SWAP4 ADD SWAP2 SWAP4 SWAP3 SWAP1 PUSH2 0x1C8A JUMP JUMPDEST PUSH1 0x1 SLOAD DUP2 LT ISZERO PUSH2 0x1D3D JUMPI PUSH1 0x1 PUSH0 MSTORE PUSH1 0x20 PUSH0 KECCAK256 ADD SWAP1 PUSH0 SWAP1 JUMP JUMPDEST PUSH4 0x4E487B71 PUSH1 0xE0 SHL PUSH0 MSTORE PUSH1 0x32 PUSH1 0x4 MSTORE PUSH1 0x24 PUSH0 REVERT JUMPDEST SWAP1 PUSH1 0x1 DUP3 DUP2 SHR SWAP3 AND DUP1 ISZERO PUSH2 0x1D7F JUMPI JUMPDEST PUSH1 0x20 DUP4 LT EQ PUSH2 0x1D6B JUMPI JUMP JUMPDEST PUSH4 0x4E487B71 PUSH1 0xE0 SHL PUSH0 MSTORE PUSH1 0x22 PUSH1 0x4 MSTORE PUSH1 0x24 PUSH0 REVERT JUMPDEST SWAP2 PUSH1 0x7F AND SWAP2 PUSH2 0x1D60 JUMP JUMPDEST SWAP1 PUSH1 0x40 MLOAD SWAP2 DUP3 PUSH0 DUP3 SLOAD SWAP3 PUSH2 0x1D9C DUP5 PUSH2 0x1D51 JUMP JUMPDEST DUP1 DUP5 MSTORE SWAP4 PUSH1 0x1 DUP2 AND SWAP1 DUP2 ISZERO PUSH2 0x1E07 JUMPI POP PUSH1 0x1 EQ PUSH2 0x1DC3 JUMPI JUMPDEST POP PUSH2 0x1DC1 SWAP3 POP SUB DUP4 PUSH2 0x1A82 JUMP JUMPDEST JUMP JUMPDEST SWAP1 POP PUSH0 SWAP3 SWAP2 SWAP3 MSTORE PUSH1 0x20 PUSH0 KECCAK256 SWAP1 PUSH0 SWAP2 JUMPDEST DUP2 DUP4 LT PUSH2 0x1DEB JUMPI POP POP SWAP1 PUSH1 0x20 PUSH2 0x1DC1 SWAP3 DUP3 ADD ADD PUSH0 PUSH2 0x1DB4 JUMP JUMPDEST PUSH1 0x20 SWAP2 SWAP4 POP DUP1 PUSH1 0x1 SWAP2 SLOAD DUP4 DUP6 DUP10 ADD ADD MSTORE ADD SWAP2 ADD SWAP1 SWAP2 DUP5 SWAP3 PUSH2 0x1DD2 JUMP JUMPDEST SWAP1 POP PUSH1 0x20 SWAP3 POP PUSH2 0x1DC1 SWAP5 SWAP2 POP PUSH1 0xFF NOT AND DUP3 DUP5 ADD MSTORE ISZERO ISZERO PUSH1 0x5 SHL DUP3 ADD ADD PUSH0 PUSH2 0x1DB4 JUMP JUMPDEST PUSH1 0x1 PUSH1 0x1 PUSH1 0x40 SHL SUB DUP2 GT PUSH2 0x8B2 JUMPI PUSH1 0x5 SHL PUSH1 0x20 ADD SWAP1 JUMP JUMPDEST SWAP1 DUP1 PUSH1 0x1F DUP4 ADD SLT ISZERO PUSH2 0x7FB JUMPI DUP2 CALLDATALOAD PUSH2 0x1E57 DUP2 PUSH2 0x1E29 JUMP JUMPDEST SWAP3 PUSH2 0x1E65 PUSH1 0x40 MLOAD SWAP5 DUP6 PUSH2 0x1A82 JUMP JUMPDEST DUP2 DUP5 MSTORE PUSH1 0x20 DUP1 DUP6 ADD SWAP3 PUSH1 0x5 SHL DUP3 ADD ADD SWAP2 DUP4 DUP4 GT PUSH2 0x7FB JUMPI PUSH1 0x20 DUP3 ADD SWAP1 JUMPDEST DUP4 DUP3 LT PUSH2 0x1E91 JUMPI POP POP POP POP POP SWAP1 JUMP JUMPDEST DUP2 CALLDATALOAD PUSH1 0x1 PUSH1 0x1 PUSH1 0x40 SHL SUB DUP2 GT PUSH2 0x7FB JUMPI PUSH1 0x20 SWAP2 PUSH2 0x1EB3 DUP8 DUP5 DUP1 SWAP5 DUP9 ADD ADD PUSH2 0x1ABE JUMP JUMPDEST DUP2 MSTORE ADD SWAP2 ADD SWAP1 PUSH2 0x1E82 JUMP JUMPDEST SWAP1 DUP2 PUSH1 0x20 SWAP2 SUB SLT PUSH2 0x7FB JUMPI MLOAD DUP1 ISZERO ISZERO DUP2 SUB PUSH2 0x7FB JUMPI SWAP1 JUMP JUMPDEST ISZERO PUSH2 0x1EDD JUMPI JUMP JUMPDEST PUSH1 0x40 MLOAD PUSH3 0x461BCD PUSH1 0xE5 SHL DUP2 MSTORE PUSH1 0x20 PUSH1 0x4 DUP3 ADD MSTORE PUSH1 0xC PUSH1 0x24 DUP3 ADD MSTORE PUSH12 0x4F6E6C7920466163746F7279 PUSH1 0xA0 SHL PUSH1 0x44 DUP3 ADD MSTORE PUSH1 0x64 SWAP1 REVERT JUMPDEST PUSH1 0x40 MLOAD SWAP1 PUSH2 0x1F1E DUP3 PUSH2 0x1A4C JUMP JUMPDEST PUSH1 0x60 PUSH1 0xA0 DUP4 DUP3 DUP2 MSTORE DUP3 PUSH1 0x20 DUP3 ADD MSTORE DUP3 PUSH1 0x40 DUP3 ADD MSTORE PUSH0 DUP4 DUP3 ADD MSTORE PUSH0 PUSH1 0x80 DUP3 ADD MSTORE ADD MSTORE JUMP JUMPDEST SWAP1 PUSH2 0x1F4B DUP3 PUSH2 0x1E29 JUMP JUMPDEST PUSH2 0x1F58 PUSH1 0x40 MLOAD SWAP2 DUP3 PUSH2 0x1A82 JUMP JUMPDEST DUP3 DUP2 MSTORE DUP1 SWAP3 PUSH2 0x1F69 PUSH1 0x1F NOT SWAP2 PUSH2 0x1E29 JUMP JUMPDEST ADD SWAP1 PUSH0 JUMPDEST DUP3 DUP2 LT PUSH2 0x1F79 JUMPI POP POP POP JUMP JUMPDEST PUSH1 0x20 SWAP1 PUSH2 0x1F84 PUSH2 0x1F11 JUMP JUMPDEST DUP3 DUP3 DUP6 ADD ADD MSTORE ADD PUSH2 0x1F6D JUMP JUMPDEST DUP2 PUSH1 0x1F DUP3 ADD SLT ISZERO PUSH2 0x7FB JUMPI DUP1 MLOAD SWAP1 PUSH2 0x1FA7 DUP3 PUSH2 0x1AA3 JUMP JUMPDEST SWAP3 PUSH2 0x1FB5 PUSH1 0x40 MLOAD SWAP5 DUP6 PUSH2 0x1A82 JUMP JUMPDEST DUP3 DUP5 MSTORE PUSH1 0x20 DUP4 DUP4 ADD ADD GT PUSH2 0x7FB JUMPI DUP2 PUSH0 SWAP3 PUSH1 0x20 DUP1 SWAP4 ADD DUP4 DUP7 ADD MCOPY DUP4 ADD ADD MSTORE SWAP1 JUMP JUMPDEST MLOAD SWAP1 PUSH1 0xFF DUP3 AND DUP3 SUB PUSH2 0x7FB JUMPI JUMP JUMPDEST PUSH1 0x20 DUP2 DUP4 SUB SLT PUSH2 0x7FB JUMPI DUP1 MLOAD SWAP1 PUSH1 0x1 PUSH1 0x1 PUSH1 0x40 SHL SUB DUP3 GT PUSH2 0x7FB JUMPI ADD SWAP1 DUP1 PUSH1 0x1F DUP4 ADD SLT ISZERO PUSH2 0x7FB JUMPI DUP2 MLOAD SWAP2 PUSH2 0x2018 DUP4 PUSH2 0x1E29 JUMP JUMPDEST SWAP3 PUSH2 0x2026 PUSH1 0x40 MLOAD SWAP5 DUP6 PUSH2 0x1A82 JUMP JUMPDEST DUP1 DUP5 MSTORE PUSH1 0x20 DUP1 DUP6 ADD SWAP2 PUSH1 0x5 SHL DUP4 ADD ADD SWAP2 DUP4 DUP4 GT PUSH2 0x7FB JUMPI PUSH1 0x20 DUP2 ADD SWAP2 JUMPDEST DUP4 DUP4 LT PUSH2 0x2052 JUMPI POP POP POP POP POP SWAP1 JUMP JUMPDEST DUP3 MLOAD PUSH1 0x1 PUSH1 0x1 PUSH1 0x40 SHL SUB DUP2 GT PUSH2 0x7FB JUMPI DUP3 ADD SWAP1 PUSH1 0xA0 DUP3 DUP8 SUB PUSH1 0x1F NOT ADD SLT PUSH2 0x7FB JUMPI PUSH1 0x40 MLOAD SWAP1 PUSH2 0x2080 DUP3 PUSH2 0x1A67 JUMP JUMPDEST PUSH1 0x20 DUP4 ADD MLOAD PUSH1 0x2 DUP2 LT ISZERO PUSH2 0x7FB JUMPI DUP3 MSTORE PUSH1 0x40 DUP4 ADD MLOAD PUSH1 0x1 PUSH1 0x1 PUSH1 0x40 SHL SUB DUP2 GT PUSH2 0x7FB JUMPI DUP8 PUSH1 0x20 PUSH2 0x20B2 SWAP3 DUP7 ADD ADD PUSH2 0x1F90 JUMP JUMPDEST PUSH1 0x20 DUP4 ADD MSTORE PUSH1 0x60 DUP4 ADD MLOAD PUSH1 0x1 PUSH1 0x1 PUSH1 0x40 SHL SUB DUP2 GT PUSH2 0x7FB JUMPI DUP8 PUSH1 0x20 PUSH2 0x20D9 SWAP3 DUP7 ADD ADD PUSH2 0x1F90 JUMP JUMPDEST PUSH1 0x40 DUP4 ADD MSTORE PUSH2 0x20EA PUSH1 0x80 DUP5 ADD PUSH2 0x1FD6 JUMP JUMPDEST PUSH1 0x60 DUP4 ADD MSTORE PUSH1 0xA0 DUP4 ADD MLOAD SWAP2 PUSH1 0x1 PUSH1 0x1 PUSH1 0x40 SHL SUB DUP4 GT PUSH2 0x7FB JUMPI PUSH2 0x2115 DUP9 PUSH1 0x20 DUP1 SWAP7 SWAP6 DUP2 SWAP7 ADD ADD PUSH2 0x1F90 JUMP JUMPDEST PUSH1 0x80 DUP3 ADD MSTORE DUP2 MSTORE ADD SWAP3 ADD SWAP2 PUSH2 0x2043 JUMP JUMPDEST DUP1 MLOAD DUP3 LT ISZERO PUSH2 0x1D3D JUMPI PUSH1 0x20 SWAP2 PUSH1 0x5 SHL ADD ADD SWAP1 JUMP JUMPDEST PUSH0 NOT DUP2 EQ PUSH2 0xEDC JUMPI PUSH1 0x1 ADD SWAP1 JUMP JUMPDEST SWAP1 DUP1 PUSH1 0x1F DUP4 ADD SLT ISZERO PUSH2 0x7FB JUMPI DUP2 MLOAD PUSH2 0x215E DUP2 PUSH2 0x1E29 JUMP JUMPDEST SWAP3 PUSH2 0x216C PUSH1 0x40 MLOAD SWAP5 DUP6 PUSH2 0x1A82 JUMP JUMPDEST DUP2 DUP5 MSTORE PUSH1 0x20 DUP1 DUP6 ADD SWAP3 PUSH1 0x5 SHL DUP3 ADD ADD SWAP2 DUP4 DUP4 GT PUSH2 0x7FB JUMPI PUSH1 0x20 DUP3 ADD SWAP1 JUMPDEST DUP4 DUP3 LT PUSH2 0x2198 JUMPI POP POP POP POP POP SWAP1 JUMP JUMPDEST DUP2 MLOAD PUSH1 0x1 PUSH1 0x1 PUSH1 0x40 SHL SUB DUP2 GT PUSH2 0x7FB JUMPI PUSH1 0x20 SWAP2 PUSH2 0x21BA DUP8 DUP5 DUP1 SWAP5 DUP9 ADD ADD PUSH2 0x1F90 JUMP JUMPDEST DUP2 MSTORE ADD SWAP2 ADD SWAP1 PUSH2 0x2189 JUMP JUMPDEST PUSH1 0x20 DUP2 DUP4 SUB SLT PUSH2 0x7FB JUMPI DUP1 MLOAD SWAP1 PUSH1 0x1 PUSH1 0x1 PUSH1 0x40 SHL SUB DUP3 GT PUSH2 0x7FB JUMPI ADD PUSH2 0x160 DUP2 DUP4 SUB SLT PUSH2 0x7FB JUMPI PUSH1 0x40 MLOAD SWAP2 PUSH2 0x21F9 DUP4 PUSH2 0x1A30 JUMP JUMPDEST DUP2 MLOAD PUSH1 0x1 PUSH1 0x1 PUSH1 0x40 SHL SUB DUP2 GT PUSH2 0x7FB JUMPI DUP2 PUSH2 0x2215 SWAP2 DUP5 ADD PUSH2 0x1F90 JUMP JUMPDEST DUP4 MSTORE PUSH1 0x20 DUP3 ADD MLOAD PUSH1 0x1 PUSH1 0x1 PUSH1 0x40 SHL SUB DUP2 GT PUSH2 0x7FB JUMPI DUP2 PUSH2 0x2236 SWAP2 DUP5 ADD PUSH2 0x1F90 JUMP JUMPDEST PUSH1 0x20 DUP5 ADD MSTORE PUSH1 0x40 DUP3 ADD MLOAD PUSH1 0x1 PUSH1 0x1 PUSH1 0x40 SHL SUB DUP2 GT PUSH2 0x7FB JUMPI DUP2 PUSH2 0x225A SWAP2 DUP5 ADD PUSH2 0x2147 JUMP JUMPDEST PUSH1 0x40 DUP5 ADD MSTORE PUSH1 0x60 DUP3 ADD MLOAD PUSH1 0x1 PUSH1 0x1 PUSH1 0x40 SHL SUB DUP2 GT PUSH2 0x7FB JUMPI DUP2 PUSH2 0x227E SWAP2 DUP5 ADD PUSH2 0x2147 JUMP JUMPDEST PUSH1 0x60 DUP5 ADD MSTORE PUSH1 0x80 DUP3 ADD MLOAD PUSH1 0x1 PUSH1 0x1 PUSH1 0x40 SHL SUB DUP2 GT PUSH2 0x7FB JUMPI DUP2 PUSH2 0x22A2 SWAP2 DUP5 ADD PUSH2 0x1F90 JUMP JUMPDEST PUSH1 0x80 DUP5 ADD MSTORE PUSH1 0xA0 DUP3 ADD MLOAD PUSH1 0x1 PUSH1 0x1 PUSH1 0x40 SHL SUB DUP2 GT PUSH2 0x7FB JUMPI DUP2 PUSH2 0x22C6 SWAP2 DUP5 ADD PUSH2 0x1F90 JUMP JUMPDEST PUSH1 0xA0 DUP5 ADD MSTORE PUSH1 0xC0 DUP3 ADD MLOAD PUSH1 0x1 PUSH1 0x1 PUSH1 0xA0 SHL SUB DUP2 AND DUP2 SUB PUSH2 0x7FB JUMPI PUSH1 0xC0 DUP5 ADD MSTORE PUSH1 0xE0 DUP3 ADD MLOAD PUSH1 0x2 DUP2 LT ISZERO PUSH2 0x7FB JUMPI PUSH1 0xE0 DUP5 ADD MSTORE PUSH2 0x100 DUP3 ADD MLOAD PUSH1 0x1 PUSH1 0x1 PUSH1 0x40 SHL SUB DUP2 GT PUSH2 0x7FB JUMPI DUP2 PUSH2 0x2318 SWAP2 DUP5 ADD PUSH2 0x1F90 JUMP JUMPDEST PUSH2 0x100 DUP5 ADD MSTORE PUSH2 0x120 DUP3 ADD MLOAD PUSH1 0x1 PUSH1 0x1 PUSH1 0x40 SHL SUB DUP2 GT PUSH2 0x7FB JUMPI DUP2 PUSH2 0x233E SWAP2 DUP5 ADD PUSH2 0x1F90 JUMP JUMPDEST PUSH2 0x120 DUP5 ADD MSTORE PUSH2 0x140 DUP3 ADD MLOAD PUSH1 0x1 PUSH1 0x1 PUSH1 0x40 SHL SUB DUP2 GT PUSH2 0x7FB JUMPI PUSH2 0x2362 SWAP3 ADD PUSH2 0x1F90 JUMP JUMPDEST PUSH2 0x140 DUP3 ADD MSTORE SWAP1 JUMP JUMPDEST SWAP1 PUSH2 0x2375 DUP3 PUSH2 0x1E29 JUMP JUMPDEST PUSH2 0x2382 PUSH1 0x40 MLOAD SWAP2 DUP3 PUSH2 0x1A82 JUMP JUMPDEST DUP3 DUP2 MSTORE DUP1 SWAP3 PUSH2 0x2393 PUSH1 0x1F NOT SWAP2 PUSH2 0x1E29 JUMP JUMPDEST ADD SWAP1 PUSH0 JUMPDEST DUP3 DUP2 LT PUSH2 0x23A3 JUMPI POP POP POP JUMP JUMPDEST PUSH1 0x20 SWAP1 PUSH1 0x40 MLOAD PUSH2 0x23B2 DUP2 PUSH2 0x1A4C JUMP JUMPDEST PUSH1 0x60 DUP2 MSTORE PUSH1 0x60 DUP4 DUP3 ADD MSTORE PUSH1 0x60 PUSH1 0x40 DUP3 ADD MSTORE PUSH0 PUSH1 0x60 DUP3 ADD MSTORE PUSH1 0x60 PUSH1 0x80 DUP3 ADD MSTORE PUSH0 PUSH1 0xA0 DUP3 ADD MSTORE DUP3 DUP3 DUP6 ADD ADD MSTORE ADD PUSH2 0x2397 JUMP JUMPDEST SWAP1 PUSH1 0x60 DUP3 DUP3 SUB SLT PUSH2 0x7FB JUMPI DUP2 MLOAD SWAP1 PUSH1 0x1 PUSH1 0x1 PUSH1 0x40 SHL SUB DUP3 GT PUSH2 0x7FB JUMPI PUSH2 0x2409 SWAP2 DUP4 ADD PUSH2 0x1F90 JUMP JUMPDEST SWAP2 PUSH1 0x40 PUSH2 0x2418 PUSH1 0x20 DUP5 ADD PUSH2 0x1FD6 JUMP JUMPDEST SWAP3 ADD MLOAD SWAP1 JUMP JUMPDEST SWAP1 PUSH2 0x2427 PUSH2 0x1F11 JUMP JUMPDEST POP PUSH1 0x20 DUP2 ADD MLOAD SWAP1 PUSH1 0x40 DUP2 ADD MLOAD PUSH1 0xFF PUSH1 0x60 DUP4 ADD MLOAD AND SWAP1 PUSH1 0x80 DUP4 MLOAD SWAP4 PUSH2 0x244A DUP6 PUSH2 0x1B28 JUMP JUMPDEST ADD MLOAD SWAP4 PUSH1 0x40 MLOAD SWAP6 PUSH2 0x245A DUP8 PUSH2 0x1A4C JUMP JUMPDEST DUP7 MSTORE PUSH1 0x20 DUP7 ADD MSTORE PUSH1 0x40 DUP6 ADD MSTORE PUSH1 0x60 DUP5 ADD MSTORE PUSH2 0x2474 DUP2 PUSH2 0x1B28 JUMP JUMPDEST PUSH1 0x80 DUP4 ADD MSTORE PUSH1 0xA0 DUP3 ADD MSTORE SWAP1 JUMP JUMPDEST PUSH1 0x2 PUSH0 SLOAD EQ PUSH2 0x2490 JUMPI PUSH1 0x2 PUSH0 SSTORE JUMP JUMPDEST PUSH4 0x3EE5AEB5 PUSH1 0xE0 SHL PUSH0 MSTORE PUSH1 0x4 PUSH0 REVERT INVALID LOG2 PUSH5 0x6970667358 0x22 SLT KECCAK256 PUSH1 0x7 SWAP7 SWAP4 SWAP4 TLOAD 0xCD 0xBB PUSH0 0xE8 DUP13 CREATE GAS SUB 0xBD RETURNDATASIZE 0xAE BYTE 0x26 DUP16 SHR 0xCA CALLDATACOPY PUSH16 0xE5C9324C143DC23364736F6C63430008 SHL STOP CALLER "},"methodIdentifiers":{"addBatchProduction(string,string,string,uint8,string[],string)":"e521d586","allObatIds(uint256)":"cb960d6b","createObat(string,string,string,string[],string,string[],string,uint8,string,string)":"de966a72","detailBatchProduction(string,string)":"54253681","detailObat(string)":"4d17d273","getAllBatchProductionByInstance(string)":"1bbd28f9","getAllBatchProductionReadyStock()":"a1e0a4b0","getAllObat()":"50168fbb","getAllObatByInstance(string)":"baeedfad","nieManager()":"dd683b28","obatShared()":"3fca88cb","roleManager()":"00435da5"}}}}}