{"contracts/ObatTradisional.sol":{"ObatTradisional":{"abi":[{"inputs":[],"stateMutability":"nonpayable","type":"constructor"},{"anonymous":false,"inputs":[{"indexed":false,"internalType":"string","name":"nieNumber","type":"string"},{"indexed":false,"internalType":"string","name":"namaProduk","type":"string"}],"name":"evt_nieApproved","type":"event"},{"anonymous":false,"inputs":[{"indexed":false,"internalType":"string","name":"obatId","type":"string"},{"indexed":false,"internalType":"uint256","name":"timestampRequested","type":"uint256"},{"indexed":false,"internalType":"string","name":"namaProduk","type":"string"}],"name":"evt_nieRequested","type":"event"},{"anonymous":false,"inputs":[{"indexed":false,"internalType":"string","name":"namaProduk","type":"string"},{"indexed":false,"internalType":"string","name":"factoryInstanceNames","type":"string"},{"indexed":false,"internalType":"string","name":"factoryUserNames","type":"string"},{"indexed":false,"internalType":"address","name":"factoryAddresses","type":"address"},{"indexed":false,"internalType":"string","name":"kemasan","type":"string"},{"indexed":false,"internalType":"enum ObatTradisional.en_tipeProduk","name":"en_tipeProduk","type":"uint8"}],"name":"evt_obatCreated","type":"event"},{"inputs":[{"internalType":"uint256","name":"","type":"uint256"}],"name":"allObatData","outputs":[{"internalType":"string","name":"obatId","type":"string"},{"internalType":"string","name":"merk","type":"string"},{"internalType":"string","name":"namaProduk","type":"string"},{"internalType":"string","name":"kemasan","type":"string"},{"internalType":"enum ObatTradisional.en_tipeProduk","name":"tipeProduk","type":"uint8"},{"internalType":"enum ObatTradisional.en_obatStatus","name":"obatStatus","type":"uint8"},{"internalType":"uint256","name":"nieRequestDate","type":"uint256"},{"internalType":"uint256","name":"nieApprovalDate","type":"uint256"},{"internalType":"string","name":"nieNumber","type":"string"}],"stateMutability":"view","type":"function"},{"inputs":[{"internalType":"string","name":"_obatId","type":"string"},{"internalType":"address","name":"_bpomAddr","type":"address"},{"internalType":"string","name":"_bpomInstanceName","type":"string"},{"internalType":"string","name":"_bpomUserName","type":"string"},{"internalType":"string","name":"_nieNumber","type":"string"}],"name":"approveNie","outputs":[],"stateMutability":"nonpayable","type":"function"},{"inputs":[{"internalType":"string","name":"","type":"string"}],"name":"bpomAddresses","outputs":[{"internalType":"address","name":"","type":"address"}],"stateMutability":"view","type":"function"},{"inputs":[{"internalType":"string","name":"","type":"string"}],"name":"bpomInstanceNames","outputs":[{"internalType":"string","name":"","type":"string"}],"stateMutability":"view","type":"function"},{"inputs":[{"internalType":"string","name":"","type":"string"}],"name":"bpomUserNames","outputs":[{"internalType":"string","name":"","type":"string"}],"stateMutability":"view","type":"function"},{"inputs":[{"internalType":"string","name":"_obatId","type":"string"},{"internalType":"string","name":"_merk","type":"string"},{"internalType":"string","name":"_namaProduk","type":"string"},{"internalType":"string[]","name":"_klaim","type":"string[]"},{"internalType":"string","name":"_kemasan","type":"string"},{"internalType":"string[]","name":"_komposisi","type":"string[]"},{"internalType":"address","name":"_factoryAddr","type":"address"},{"internalType":"string","name":"_factoryInstanceName","type":"string"},{"internalType":"string","name":"_factoryUserName","type":"string"},{"internalType":"enum ObatTradisional.en_tipeProduk","name":"_tipeProduk","type":"uint8"}],"name":"createObat","outputs":[],"stateMutability":"nonpayable","type":"function"},{"inputs":[{"internalType":"string","name":"","type":"string"}],"name":"factoryAddresses","outputs":[{"internalType":"address","name":"","type":"address"}],"stateMutability":"view","type":"function"},{"inputs":[{"internalType":"string","name":"","type":"string"}],"name":"factoryInstanceNames","outputs":[{"internalType":"string","name":"","type":"string"}],"stateMutability":"view","type":"function"},{"inputs":[{"internalType":"string","name":"","type":"string"}],"name":"factoryUserNames","outputs":[{"internalType":"string","name":"","type":"string"}],"stateMutability":"view","type":"function"},{"inputs":[],"name":"getListAllObatNie","outputs":[{"internalType":"string[]","name":"","type":"string[]"},{"internalType":"string[]","name":"","type":"string[]"},{"internalType":"string[]","name":"","type":"string[]"},{"internalType":"uint256[]","name":"","type":"uint256[]"},{"internalType":"uint8[]","name":"","type":"uint8[]"}],"stateMutability":"view","type":"function"},{"inputs":[{"internalType":"string","name":"_factoryInstanceName","type":"string"}],"name":"getListObatByFactory","outputs":[{"internalType":"string[]","name":"","type":"string[]"},{"internalType":"string[]","name":"","type":"string[]"},{"internalType":"uint8[]","name":"","type":"uint8[]"},{"internalType":"uint8[]","name":"","type":"uint8[]"}],"stateMutability":"view","type":"function"},{"inputs":[{"internalType":"string","name":"_obatId","type":"string"}],"name":"getListObatById","outputs":[{"components":[{"internalType":"string","name":"obatId","type":"string"},{"internalType":"string","name":"merk","type":"string"},{"internalType":"string","name":"namaProduk","type":"string"},{"internalType":"string[]","name":"klaim","type":"string[]"},{"internalType":"string","name":"kemasan","type":"string"},{"internalType":"string[]","name":"komposisi","type":"string[]"},{"internalType":"enum ObatTradisional.en_tipeProduk","name":"tipeProduk","type":"uint8"},{"internalType":"enum ObatTradisional.en_obatStatus","name":"obatStatus","type":"uint8"},{"internalType":"uint256","name":"nieRequestDate","type":"uint256"},{"internalType":"uint256","name":"nieApprovalDate","type":"uint256"},{"internalType":"string","name":"nieNumber","type":"string"}],"internalType":"struct ObatTradisional.st_obatDetails","name":"obatDetails","type":"tuple"},{"internalType":"address","name":"factoryAddress","type":"address"},{"internalType":"string","name":"factoryInstanceName","type":"string"},{"internalType":"string","name":"factoryUserName","type":"string"},{"internalType":"address","name":"bpomAddress","type":"address"},{"internalType":"string","name":"bpomInstanceName","type":"string"},{"internalType":"string","name":"bpomUserName","type":"string"}],"stateMutability":"view","type":"function"},{"inputs":[{"internalType":"address","name":"user","type":"address"}],"name":"getRole","outputs":[{"internalType":"enum ObatTradisional.en_roles","name":"","type":"uint8"},{"internalType":"address","name":"","type":"address"}],"stateMutability":"view","type":"function"},{"inputs":[{"internalType":"string","name":"","type":"string"}],"name":"obatDetailsById","outputs":[{"internalType":"string","name":"obatId","type":"string"},{"internalType":"string","name":"merk","type":"string"},{"internalType":"string","name":"namaProduk","type":"string"},{"internalType":"string","name":"kemasan","type":"string"},{"internalType":"enum ObatTradisional.en_tipeProduk","name":"tipeProduk","type":"uint8"},{"internalType":"enum ObatTradisional.en_obatStatus","name":"obatStatus","type":"uint8"},{"internalType":"uint256","name":"nieRequestDate","type":"uint256"},{"internalType":"uint256","name":"nieApprovalDate","type":"uint256"},{"internalType":"string","name":"nieNumber","type":"string"}],"stateMutability":"view","type":"function"},{"inputs":[],"name":"owner","outputs":[{"internalType":"address","name":"","type":"address"}],"stateMutability":"view","type":"function"},{"inputs":[{"internalType":"string","name":"_obatId","type":"string"}],"name":"requestNie","outputs":[],"stateMutability":"nonpayable","type":"function"},{"inputs":[{"internalType":"address","name":"","type":"address"}],"name":"userRoles","outputs":[{"internalType":"enum ObatTradisional.en_roles","name":"","type":"uint8"}],"stateMutability":"view","type":"function"}],"evm":{"bytecode":{"linkReferences":{},"object":"60808060405234602757600080546001600160a01b03191633179055612bc1908161002d8239f35b600080fdfe6080604052600436101561001257600080fd5b60003560e01c80631c0b203014611c835780631dce6e5814611a4f57806325606bc3146115ed578063273218371461159c578063349a7a721461154857806344276733146115005780634b87568a1461149857806374d5e100146114545780637aad01bd146113855780637ade51dd14610c915780638da5cb5b14610c685780639d9315c214610c14578063a812536d14610bc0578063bc4a6f6c14610991578063d9d284dc14610422578063e06749ba146101625763f1022862146100d757600080fd5b3461015d57602036600319011261015d576004356001600160401b03811161015d5761013e6101456101286020610115610159953690600401611d28565b8160405193828580945193849201611d7e565b8101600681520301902060405192838092611eaa565b0382611d07565b604051918291602083526020830190611da1565b0390f35b600080fd5b3461015d57600036600319011261015d57600080600154905b8181106103e4575061018c82612127565b9061019683612127565b61019f84612127565b6101a885611fff565b916101b66040519384611d07565b8583526101d76101c587611fff565b602085019790601f1901368937612171565b93600090815b81811061026657505050602091610213610221926102066040519860a08a5260a08a0190611dc6565b90888203868a0152611dc6565b908682036040880152611dc6565b918483036060860152519182815201939060005b81811061025057848061015988878382036080850152611e1f565b8251865260209586019590920191600101610235565b60ff600661027383611fca565b50015460081c1660038110156103bb57610290575b6001016101dd565b9161013e6102ad6102a085611fca565b5060405192838092611eaa565b6102b7828a6121a3565b526102c281896121a3565b5060026102e26102d185611fca565b5061013e6040518094819301611eaa565b6102ec82866121a3565b526102f781856121a3565b5061013e61032d610319602061030c87611fca565b5060405192838092612094565b600881520301902060405192838092611eaa565b61033782876121a3565b5261034281866121a3565b50600861034e84611fca565b500154600761035c85611fca565b50015410156103d157600861037084611fca565b5001545b61037e82886121a3565b5260ff600661038c85611fca565b50015460081c1660038110156103bb57816103b3916103ad6001948b6121a3565b52612102565b929050610288565b634e487b7160e01b600052602160045260246000fd5b60076103dc84611fca565b500154610374565b60ff60066103f183611fca565b50015460081c1660038110156103bb5761040e575b60010161017b565b9161041a600191612102565b929050610406565b3461015d5761014036600319011261015d576004356001600160401b03811161015d57610453903690600401611d28565b6024356001600160401b03811161015d57610472903690600401611d28565b6044356001600160401b03811161015d57610491903690600401611d28565b916064356001600160401b03811161015d576104b1903690600401612016565b916084356001600160401b03811161015d576104d1903690600401611d28565b9060a4356001600160401b03811161015d576104f1903690600401612016565b9060c4359360018060a01b03851680950361015d5760e4356001600160401b03811161015d57610525903690600401611d28565b90610104356001600160401b03811161015d57610546903690600401611d28565b936101243597600289101561015d5733600052600260205260ff6040600020541660048110156103bb5761057a901561223a565b6040519461058786611ceb565b8386526020860152896040860152606085015285608085015260a08401526105b28760c08501612217565b600060e0840152600061010084015260006101208401526020926040516105d98582611d07565b600081526101408201526040519061060e818451938781818801966105ff81838a611d7e565b81016003815203019020612290565b600154600160401b8110156108c35780600161062d9201600155611fca565b91909161097b5761063d91612290565b6040518481845161064f818387611d7e565b81016007815203019020876bffffffffffffffffffffffff60a01b82541617905560405184818451610682818387611d7e565b81016008815203019020908351926001600160401b0384116108c357826106aa879454611e70565b601f811161094b575b508394601f81116001146108e457806106e6916106fa976000916108d9575b508160011b916000199060031b1c19161790565b90555b604051938492839251928391611d7e565b8101600981520301902083516001600160401b0381116108c35761071e8254611e70565b601f8111610888575b5083601f82116001146107ed57946107b16107d2957f634ef467423c7b2abbaf26097bdddac4a495d36be69ca3d1555484b46e7899c79b99956107a49b999561078d866107bf976107dd9c6000916107e257508160011b916000199060031b1c19161790565b90555b6040519b8c9b60c08d5260c08d0190611da1565b918b8303908c0152611da1565b9088820360408a0152611da1565b9160608701528582036080870152611da1565b9160a0840190611e56565b0390a1005b9050870151386106d2565b601f1982169083600052856000209160005b8181106108715750957f634ef467423c7b2abbaf26097bdddac4a495d36be69ca3d1555484b46e7899c79b99956107a49b99956001866107dd9b966107b1966107bf996107d29d10610858575b5050811b019055610790565b88015160001960f88460031b161c19169055388061084c565b91928760018192868c0151815501940192016107ff565b6108b3908360005285600020601f840160051c8101918785106108b9575b601f0160051c0190612223565b89610727565b90915081906108a6565b634e487b7160e01b600052604160045260246000fd5b90508801518f6106d2565b601f1981169582600052856000209660005b81811061093357509682916001936106fa991061091a575b5050811b0190556106e9565b89015160001960f88460031b161c191690558e8061090e565b828a015189556001909801978a9792830192016108f6565b610975908260005285600020601f880160051c8101918789106108b957601f0160051c0190612223565b8c6106b3565b634e487b7160e01b600052600060045260246000fd5b3461015d57602036600319011261015d576004356001600160401b03811161015d576109c1903690600401611d28565b33600052600260205260ff6040600020541660048110156103bb576109e6901561223a565b604051815190602081818501936109fe818387611d7e565b81016003815203019020916006830160ff815460081c1660038110156103bb57610b5e57426007850155805461ff00191661010017905560005b600154811015610b2e57610a4b81611fca565b50604051610a6f81610a61602082018095612094565b03601f198101835282611d07565b5190206040516020810190610a9e6020828751610a8d81878c611d7e565b81010301601f198101835282611d07565b51902014610aae57600101610a38565b610b1992507f854681db4b5190ceaacfe5894893f2e8d49873d9b8ed6c72b5618047cb3924e5936006610af383610ae76107dd95611fca565b50600742910155611fca565b5001805461ff0019166101001790555b6002604051948594606086526060860190611da1565b91426020860152848303604086015201611eaa565b50610b1991506107dd7f854681db4b5190ceaacfe5894893f2e8d49873d9b8ed6c72b5618047cb3924e593610b03565b60405162461bcd60e51b815260206004820152603460248201527f4f62617420547261646973696f6e616c20737461747573206d75737420626520604482015273696e206c6f63616c2070726f64756374696f6e2160601b6064820152608490fd5b3461015d57602036600319011261015d576004356001600160401b03811161015d5761013e610145610bfe6020610115610159953690600401611d28565b8101600881520301902060405192838092611eaa565b3461015d57602036600319011261015d576004356001600160401b03811161015d5761013e610145610c526020610115610159953690600401611d28565b8101600581520301902060405192838092611eaa565b3461015d57600036600319011261015d576000546040516001600160a01b039091168152602090f35b3461015d5760a036600319011261015d576004356001600160401b03811161015d57610cc1903690600401611d28565b602435906001600160a01b038216820361015d576044356001600160401b03811161015d57610cf4903690600401611d28565b906064356001600160401b03811161015d57610d14903690600401611d28565b906084356001600160401b03811161015d57610d34903690600401611d28565b916040519382519460208181860197610d4e81838b611d7e565b81016003815203019020956006870160ff815460081c1660038110156103bb5760010361132d5742600889015561020061ff00198254161790556009870185516001600160401b0381116108c357610da68254611e70565b601f81116112fb575b506020601f8211600114611295579080610dde9260009161128a57508160011b916000199060031b1c19161790565b90555b6040516020818651610df481838c611d7e565b810160048152030190209060018060a01b03166bffffffffffffffffffffffff60a01b8254161790556040516020818551610e3081838b611d7e565b81016005815203019020908051906001600160401b0382116108c357610e568354611e70565b601f8111611258575b50602090601f83116001146111f157610e919291600091836111e6575b50508160011b916000199060031b1c19161790565b90555b6040516020818451610ea781838a611d7e565b81016006815203019020908051906001600160401b0382116108c357610ecd8354611e70565b601f81116111b4575b50602090601f831160011461114d57610f079291600091836111425750508160011b916000199060031b1c19161790565b90555b60005b60015481101561111157610f2081611fca565b50604051610f3681610a61602082018095612094565b5190206040516020810190610f546020828751610a8d81878d611d7e565b51902014610f6457600101610f0d565b6009929350610f9d9150610f7781611fca565b506008429101556006610f8982611fca565b5001805461ff001916610200179055611fca565b5001918151926001600160401b0384116108c357610fbb8154611e70565b601f81116110df575b50602093601f811160011461105157916107dd9161101e8461103796957f489f165b733603cb0a992d8cafd6c42a0c13d169039003f751758b9f0019f26c9860009161104657508160011b916000199060031b1c19161790565b90555b6002604051948594604086526040860190611da1565b91848303602086015201611eaa565b9050860151896106d2565b601f1981169482600052806000209560005b8181106110c75750827f489f165b733603cb0a992d8cafd6c42a0c13d169039003f751758b9f0019f26c976107dd9593611037989795600194106110ae575b5050811b019055611021565b87015160001960f88460031b161c1916905588806110a2565b86830151885560019097019660209283019201611063565b61110b90826000526020600020601f870160051c810191602088106108b957601f0160051c0190612223565b84610fc4565b505061103791506107dd7f489f165b733603cb0a992d8cafd6c42a0c13d169039003f751758b9f0019f26c93611021565b015190508880610e7c565b90601f1983169184600052816000209260005b81811061119c5750908460019594939210611183575b505050811b019055610f0a565b015160001960f88460031b161c19169055878080611176565b92936020600181928786015181550195019301611160565b6111e090846000526020600020601f850160051c810191602086106108b957601f0160051c0190612223565b87610ed6565b015190508980610e7c565b90601f1983169184600052816000209260005b8181106112405750908460019594939210611227575b505050811b019055610e94565b015160001960f88460031b161c1916905588808061121a565b92936020600181928786015181550195019301611204565b61128490846000526020600020601f850160051c810191602086106108b957601f0160051c0190612223565b88610e5f565b90508801518b6106d2565b601f1982169083600052806000209160005b8a8282106112e357505090836001949392106112ca575b5050811b019055610de1565b89015160001960f88460031b161c191690558a806112be565b600184956020939584930151815501940192016112a7565b61132790836000526020600020601f840160051c810191602085106108b957601f0160051c0190612223565b89610daf565b60405162461bcd60e51b815260206004820152602a60248201527f4f62617420547261646973696f6e616c20737461747573206d757374206265206044820152697265717565737465642160b01b6064820152608490fd5b3461015d57602036600319011261015d5760043560015481101561015d576113ac90611fca565b50604051906113c6826113bf8184611eaa565b0383611d07565b6101596009604051926113e7846113e08160018501611eaa565b0385611d07565b60405194611403866113fc8160028601611eaa565b0387611d07565b60405190611418826113bf8160048701611eaa565b60068301549060078401549261143d6008860154956113fc6040518099819301611eaa565b60405198899860ff808660081c169516938a611f2d565b3461015d57602036600319011261015d576001600160a01b03611475611fa7565b166000526002602052602060ff604060002054166114966040518092611fbd565bf35b3461015d57602036600319011261015d576004356001600160401b03811161015d576114ca6020913690600401611d28565b816114de6040519283815193849201611d7e565b600790820190815281900382019020546040516001600160a01b039091168152f35b3461015d57602036600319011261015d576001600160a01b03611521611fa7565b166000526002602052604060ff81600020541661154082518092611fbd565b336020820152f35b3461015d57602036600319011261015d576004356001600160401b03811161015d5761013e6101456115866020610115610159953690600401611d28565b8101600981520301902060405192838092611eaa565b3461015d57602036600319011261015d576004356001600160401b03811161015d5760206101156115d1923690600401611d28565b81016003815203019020604051906113c6826113bf8184611eaa565b3461015d57602036600319011261015d576004356001600160401b03811161015d5761161d903690600401611d28565b606061014060405161162e81611ceb565b82815282602082015282604082015282808201528260808201528260a0820152600060c0820152600060e082015260006101008201526000610120820152015260405161169982519160208181860194611689818388611d7e565b8101600381520301902054611e70565b15611a0a5760405160208184516116b1818387611d7e565b81016003815203019020604051916116c883611ceb565b6040516116d98161013e8186611eaa565b83526040516116ef8161013e8160018701611eaa565b60208401526040516117088161013e8160028701611eaa565b6040840152611719600383016121b7565b60608401526040516117328161013e8160048701611eaa565b6080840152611743600583016121b7565b60a084015260ff600683015461175e82821660c08701612217565b60081c169160038310156103bb57610140946118aa6119e96118506119db6118c79660096117ba6119fc986101599b60e08e01528c61010060078301549101528c610120600883015491015261013e6040518094819301611eaa565b8b8b015261181d6118ce6118b160206040518a516117d9818389611d7e565b81019060078252828160018060a01b0393030190205416946118248b83604051809251611807818388611d7e565b8101600881520301902060405196878092611eaa565b0386611d07565b6118578b8360405180925161183a818388611d7e565b81016009815203019020604051998a8092611eaa565b0389611d07565b6040518b51611867818385611d7e565b81019060048252838160018060a01b03930301902054169a6106e960405184818451611894818389611d7e565b810160058152030190206040519c8d8092611eaa565b038c611d07565b810160068152030190206040519a8b8092611eaa565b038a611d07565b6119c8604051809d819d60e0835261197461195d61194661193161191a611903865161016060e08b01526102408a0190611da1565b602087015189820360df19016101008b0152611da1565b604086015188820360df19016101208a0152611da1565b606085015187820360df190187890152611dc6565b608084015186820360df1901610160880152611da1565b60a083015185820360df1901610180870152611dc6565b9261198860c08301516101a0830190611e56565b61199b60e08301516101c0830190611e63565b6101008201516101e08201526101208201516102009091015201518d820360df19016102208f0152611da1565b9160208c01528a820360408c0152611da1565b9088820360608a0152611da1565b91608087015285820360a0870152611da1565b9083820360c0850152611da1565b60405162461bcd60e51b815260206004820152601b60248201527f4e6f206461746120666f756e64207769746820746869732049442e00000000006044820152606490fd5b3461015d57602036600319011261015d576004356001600160401b03811161015d57611a7f903690600401611d28565b60015460208201916000805b838110611c135750611a9c81612127565b92611aa682612127565b90611ab9611ab384612171565b93612171565b93600096875b838110611b1457611aea8861015989611b068a611af88b604051978897608089526080890190611dc6565b908782036020890152611dc6565b908582036040870152611e1f565b908382036060850152611e1f565b611b22602061030c83611fca565b6008815203019020604051611b3f81610a61602082018095612094565b5190206040516020810190611b5d6020828851610a8d81878b611d7e565b51902014611b6e575b600101611abf565b9761013e611b7e6102a08b611fca565b611b88828a6121a3565b52611b9381896121a3565b506002611ba26102d18b611fca565b611bac82876121a3565b52611bb781866121a3565b5060ff6006611bc58b611fca565b50015460081c1660038110156103bb57611bdf82886121a3565b5260ff6006611bed8b611fca565b5001541660028110156103bb5781611c0b916103ad6001948b6121a3565b989050611b66565b611c21602061030c83611fca565b6008815203019020604051611c3e81610a61602082018095612094565b5190206040516020810190611c5e60208284610a8d8c8b51928391611d7e565b51902014611c6f575b600101611a8b565b90611c7b600191612102565b919050611c67565b3461015d57602036600319011261015d576004356001600160401b03811161015d57611cb56020913690600401611d28565b81611cc96040519283815193849201611d7e565b600490820190815281900382019020546040516001600160a01b039091168152f35b61016081019081106001600160401b038211176108c357604052565b90601f801991011681019081106001600160401b038211176108c357604052565b81601f8201121561015d578035906001600160401b0382116108c35760405192611d5c601f8401601f191660200185611d07565b8284526020838301011161015d57816000926020809301838601378301015290565b60005b838110611d915750506000910152565b8181015183820152602001611d81565b90602091611dba81518092818552858086019101611d7e565b601f01601f1916010190565b9080602083519182815201916020808360051b8301019401926000915b838310611df257505050505090565b9091929394602080611e10600193601f198682030187528951611da1565b97019301930191939290611de3565b906020808351928381520192019060005b818110611e3d5750505090565b825160ff16845260209384019390920191600101611e30565b9060028210156103bb5752565b9060038210156103bb5752565b90600182811c92168015611ea0575b6020831014611e8a57565b634e487b7160e01b600052602260045260246000fd5b91607f1691611e7f565b60009291815491611eba83611e70565b8083529260018116908115611f105750600114611ed657505050565b60009081526020812093945091925b838310611ef6575060209250010190565b600181602092949394548385870101520191019190611ee5565b915050602093945060ff929192191683830152151560051b010190565b9591611fa49997946119db611f8c95611f69611f7794611f5b611f82979b9e9b6101208e8181520190611da1565b8c810360208e015290611da1565b908a820360408c0152611da1565b976080870190611e56565b60a0850190611e63565b60c083015260e0820152610100818403910152611da1565b90565b600435906001600160a01b038216820361015d57565b9060048210156103bb5752565b600154811015611fe9576001600052600a602060002091020190600090565b634e487b7160e01b600052603260045260246000fd5b6001600160401b0381116108c35760051b60200190565b9080601f8301121561015d57813561202d81611fff565b9261203b6040519485611d07565b81845260208085019260051b8201019183831161015d5760208201905b83821061206757505050505090565b81356001600160401b03811161015d5760209161208987848094880101611d28565b815201910190612058565b600092918154916120a483611e70565b92600181169081156120ef57506001146120bd57505050565b909192935060005260206000206000905b8382106120db5750500190565b6001816020925484860152019101906120ce565b60ff191683525050811515909102019150565b60001981146121115760010190565b634e487b7160e01b600052601160045260246000fd5b9061213182611fff565b61213e6040519182611d07565b828152809261214f601f1991611fff565b019060005b82811061216057505050565b806060602080938501015201612154565b9061217b82611fff565b6121886040519182611d07565b8281528092612199601f1991611fff565b0190602036910137565b8051821015611fe95760209160051b010190565b9081546121c381611fff565b926121d16040519485611d07565b818452602084019060005260206000206000915b8383106121f25750505050565b6001602081926040516122098161013e8189611eaa565b8152019201920191906121e5565b60028210156103bb5752565b81811061222e575050565b60008155600101612223565b1561224157565b60405162461bcd60e51b815260206004820152602160248201527f416363657373207265737472696374656420746f20466163746f727920726f6c6044820152606560f81b6064820152608490fd5b909182519283516001600160401b0381116108c3576122af8454611e70565b601f8111612b59575b50602094601f8211600114612af4576122ec9293949582916000926125525750508160011b916000199060031b1c19161790565b83555b6001830160208201518051906001600160401b0382116108c3576123138354611e70565b601f8111612ac2575b50602090601f8311600114612a5b5761234d9291600091836125525750508160011b916000199060031b1c19161790565b90555b6002830160408201518051906001600160401b0382116108c3576123748354611e70565b601f8111612a29575b50602090601f83116001146129c2576123ae9291600091836125525750508160011b916000199060031b1c19161790565b90555b600383016060820151805190600160401b82116108c3578254828455808310612944575b50602001916000526020600020916000905b82821061283757505050506004830160808201518051906001600160401b0382116108c3576124168354611e70565b601f8111612805575b50602090601f831160011461279e576124509291600091836125525750508160011b916000199060031b1c19161790565b90555b6005830160a0820151805190600160401b82116108c3578254828455808310612720575b50602001916000526020600020916000905b828210612613575050505060c0810151926006810160028510156103bb5760009460ff8019835416911617815560e083015160038110156125ff57916009916101409361ff0082549160081b169061ff0019161790556101008401516007820155610120840151600882015501910151928351906001600160401b0382116125eb576125158354611e70565b601f81116125bb575b50602090601f831160011461255d579061254e939495836125525750508160011b916000199060031b1c19161790565b9055565b015190503880610e7c565b90601f198316848352818320925b8181106125a35750958360019596971061258a575b505050811b019055565b015160001960f88460031b161c19169055388080612580565b9192602060018192868b01518155019401920161256b565b6125e59084835260208320601f850160051c810191602086106108b957601f0160051c0190612223565b3861251e565b634e487b7160e01b81526041600452602490fd5b634e487b7160e01b86526021600452602486fd5b80518051906001600160401b0382116108c3576126308654611e70565b601f81116126ee575b50602090601f83116001146126815792612672836001959460209487966000926125525750508160011b916000199060031b1c19161790565b87555b01940191019092612489565b90601f1983169187600052816000209260005b8181106126d657509360209360019693879693838895106126bd575b505050811b018755612675565b015160001960f88460031b161c191690553880806126b0565b92936020600181928786015181550195019301612694565b61271a90876000526020600020601f850160051c810191602086106108b957601f0160051c0190612223565b38612639565b8360005282602060002091820191015b81811061273d5750612477565b8061274a60019254611e70565b80612757575b5001612730565b601f8111831461276d5750600081555b38612750565b61278b908260005283601f6020600020920160051c82019101612223565b8060005260006020812081835555612767565b90601f1983169184600052816000209260005b8181106127ed57509084600195949392106127d4575b505050811b019055612453565b015160001960f88460031b161c191690553880806127c7565b929360206001819287860151815501950193016127b1565b61283190846000526020600020601f850160051c810191602086106108b957601f0160051c0190612223565b3861241f565b80518051906001600160401b0382116108c3576128548654611e70565b601f8111612912575b50602090601f83116001146128a55792612896836001959460209487966000926125525750508160011b916000199060031b1c19161790565b87555b019401910190926123e7565b90601f1983169187600052816000209260005b8181106128fa57509360209360019693879693838895106128e1575b505050811b018755612899565b015160001960f88460031b161c191690553880806128d4565b929360206001819287860151815501950193016128b8565b61293e90876000526020600020601f850160051c810191602086106108b957601f0160051c0190612223565b3861285d565b8360005282602060002091820191015b81811061296157506123d5565b8061296e60019254611e70565b8061297b575b5001612954565b601f811183146129915750600081555b38612974565b6129af908260005283601f6020600020920160051c82019101612223565b806000526000602081208183555561298b565b90601f1983169184600052816000209260005b818110612a1157509084600195949392106129f8575b505050811b0190556123b1565b015160001960f88460031b161c191690553880806129eb565b929360206001819287860151815501950193016129d5565b612a5590846000526020600020601f850160051c810191602086106108b957601f0160051c0190612223565b3861237d565b90601f1983169184600052816000209260005b818110612aaa5750908460019594939210612a91575b505050811b019055612350565b015160001960f88460031b161c19169055388080612a84565b92936020600181928786015181550195019301612a6e565b612aee90846000526020600020601f850160051c810191602086106108b957601f0160051c0190612223565b3861231c565b601f1982169585600052806000209160005b888110612b4157508360019596979810612b28575b505050811b0183556122ef565b015160001960f88460031b161c19169055388080612b1b565b91926020600181928685015181550194019201612b06565b612b8590856000526020600020601f840160051c810191602085106108b957601f0160051c0190612223565b386122b856fea26469706673582212200000aef27efa053a59620ee168fe52fdc7cd9767de5770c39d5825a52cb51d5064736f6c634300081b0033","opcodes":"PUSH1 0x80 DUP1 PUSH1 0x40 MSTORE CALLVALUE PUSH1 0x27 JUMPI PUSH1 0x0 DUP1 SLOAD PUSH1 0x1 PUSH1 0x1 PUSH1 0xA0 SHL SUB NOT AND CALLER OR SWAP1 SSTORE PUSH2 0x2BC1 SWAP1 DUP2 PUSH2 0x2D DUP3 CODECOPY RETURN JUMPDEST PUSH1 0x0 DUP1 REVERT INVALID PUSH1 0x80 PUSH1 0x40 MSTORE PUSH1 0x4 CALLDATASIZE LT ISZERO PUSH2 0x12 JUMPI PUSH1 0x0 DUP1 REVERT JUMPDEST PUSH1 0x0 CALLDATALOAD PUSH1 0xE0 SHR DUP1 PUSH4 0x1C0B2030 EQ PUSH2 0x1C83 JUMPI DUP1 PUSH4 0x1DCE6E58 EQ PUSH2 0x1A4F JUMPI DUP1 PUSH4 0x25606BC3 EQ PUSH2 0x15ED JUMPI DUP1 PUSH4 0x27321837 EQ PUSH2 0x159C JUMPI DUP1 PUSH4 0x349A7A72 EQ PUSH2 0x1548 JUMPI DUP1 PUSH4 0x44276733 EQ PUSH2 0x1500 JUMPI DUP1 PUSH4 0x4B87568A EQ PUSH2 0x1498 JUMPI DUP1 PUSH4 0x74D5E100 EQ PUSH2 0x1454 JUMPI DUP1 PUSH4 0x7AAD01BD EQ PUSH2 0x1385 JUMPI DUP1 PUSH4 0x7ADE51DD EQ PUSH2 0xC91 JUMPI DUP1 PUSH4 0x8DA5CB5B EQ PUSH2 0xC68 JUMPI DUP1 PUSH4 0x9D9315C2 EQ PUSH2 0xC14 JUMPI DUP1 PUSH4 0xA812536D EQ PUSH2 0xBC0 JUMPI DUP1 PUSH4 0xBC4A6F6C EQ PUSH2 0x991 JUMPI DUP1 PUSH4 0xD9D284DC EQ PUSH2 0x422 JUMPI DUP1 PUSH4 0xE06749BA EQ PUSH2 0x162 JUMPI PUSH4 0xF1022862 EQ PUSH2 0xD7 JUMPI PUSH1 0x0 DUP1 REVERT JUMPDEST CALLVALUE PUSH2 0x15D JUMPI PUSH1 0x20 CALLDATASIZE PUSH1 0x3 NOT ADD SLT PUSH2 0x15D JUMPI PUSH1 0x4 CALLDATALOAD PUSH1 0x1 PUSH1 0x1 PUSH1 0x40 SHL SUB DUP2 GT PUSH2 0x15D JUMPI PUSH2 0x13E PUSH2 0x145 PUSH2 0x128 PUSH1 0x20 PUSH2 0x115 PUSH2 0x159 SWAP6 CALLDATASIZE SWAP1 PUSH1 0x4 ADD PUSH2 0x1D28 JUMP JUMPDEST DUP2 PUSH1 0x40 MLOAD SWAP4 DUP3 DUP6 DUP1 SWAP5 MLOAD SWAP4 DUP5 SWAP3 ADD PUSH2 0x1D7E JUMP JUMPDEST DUP2 ADD PUSH1 0x6 DUP2 MSTORE SUB ADD SWAP1 KECCAK256 PUSH1 0x40 MLOAD SWAP3 DUP4 DUP1 SWAP3 PUSH2 0x1EAA JUMP JUMPDEST SUB DUP3 PUSH2 0x1D07 JUMP JUMPDEST PUSH1 0x40 MLOAD SWAP2 DUP3 SWAP2 PUSH1 0x20 DUP4 MSTORE PUSH1 0x20 DUP4 ADD SWAP1 PUSH2 0x1DA1 JUMP JUMPDEST SUB SWAP1 RETURN JUMPDEST PUSH1 0x0 DUP1 REVERT JUMPDEST CALLVALUE PUSH2 0x15D JUMPI PUSH1 0x0 CALLDATASIZE PUSH1 0x3 NOT ADD SLT PUSH2 0x15D JUMPI PUSH1 0x0 DUP1 PUSH1 0x1 SLOAD SWAP1 JUMPDEST DUP2 DUP2 LT PUSH2 0x3E4 JUMPI POP PUSH2 0x18C DUP3 PUSH2 0x2127 JUMP JUMPDEST SWAP1 PUSH2 0x196 DUP4 PUSH2 0x2127 JUMP JUMPDEST PUSH2 0x19F DUP5 PUSH2 0x2127 JUMP JUMPDEST PUSH2 0x1A8 DUP6 PUSH2 0x1FFF JUMP JUMPDEST SWAP2 PUSH2 0x1B6 PUSH1 0x40 MLOAD SWAP4 DUP5 PUSH2 0x1D07 JUMP JUMPDEST DUP6 DUP4 MSTORE PUSH2 0x1D7 PUSH2 0x1C5 DUP8 PUSH2 0x1FFF JUMP JUMPDEST PUSH1 0x20 DUP6 ADD SWAP8 SWAP1 PUSH1 0x1F NOT ADD CALLDATASIZE DUP10 CALLDATACOPY PUSH2 0x2171 JUMP JUMPDEST SWAP4 PUSH1 0x0 SWAP1 DUP2 JUMPDEST DUP2 DUP2 LT PUSH2 0x266 JUMPI POP POP POP PUSH1 0x20 SWAP2 PUSH2 0x213 PUSH2 0x221 SWAP3 PUSH2 0x206 PUSH1 0x40 MLOAD SWAP9 PUSH1 0xA0 DUP11 MSTORE PUSH1 0xA0 DUP11 ADD SWAP1 PUSH2 0x1DC6 JUMP JUMPDEST SWAP1 DUP9 DUP3 SUB DUP7 DUP11 ADD MSTORE PUSH2 0x1DC6 JUMP JUMPDEST SWAP1 DUP7 DUP3 SUB PUSH1 0x40 DUP9 ADD MSTORE PUSH2 0x1DC6 JUMP JUMPDEST SWAP2 DUP5 DUP4 SUB PUSH1 0x60 DUP7 ADD MSTORE MLOAD SWAP2 DUP3 DUP2 MSTORE ADD SWAP4 SWAP1 PUSH1 0x0 JUMPDEST DUP2 DUP2 LT PUSH2 0x250 JUMPI DUP5 DUP1 PUSH2 0x159 DUP9 DUP8 DUP4 DUP3 SUB PUSH1 0x80 DUP6 ADD MSTORE PUSH2 0x1E1F JUMP JUMPDEST DUP3 MLOAD DUP7 MSTORE PUSH1 0x20 SWAP6 DUP7 ADD SWAP6 SWAP1 SWAP3 ADD SWAP2 PUSH1 0x1 ADD PUSH2 0x235 JUMP JUMPDEST PUSH1 0xFF PUSH1 0x6 PUSH2 0x273 DUP4 PUSH2 0x1FCA JUMP JUMPDEST POP ADD SLOAD PUSH1 0x8 SHR AND PUSH1 0x3 DUP2 LT ISZERO PUSH2 0x3BB JUMPI PUSH2 0x290 JUMPI JUMPDEST PUSH1 0x1 ADD PUSH2 0x1DD JUMP JUMPDEST SWAP2 PUSH2 0x13E PUSH2 0x2AD PUSH2 0x2A0 DUP6 PUSH2 0x1FCA JUMP JUMPDEST POP PUSH1 0x40 MLOAD SWAP3 DUP4 DUP1 SWAP3 PUSH2 0x1EAA JUMP JUMPDEST PUSH2 0x2B7 DUP3 DUP11 PUSH2 0x21A3 JUMP JUMPDEST MSTORE PUSH2 0x2C2 DUP2 DUP10 PUSH2 0x21A3 JUMP JUMPDEST POP PUSH1 0x2 PUSH2 0x2E2 PUSH2 0x2D1 DUP6 PUSH2 0x1FCA JUMP JUMPDEST POP PUSH2 0x13E PUSH1 0x40 MLOAD DUP1 SWAP5 DUP2 SWAP4 ADD PUSH2 0x1EAA JUMP JUMPDEST PUSH2 0x2EC DUP3 DUP7 PUSH2 0x21A3 JUMP JUMPDEST MSTORE PUSH2 0x2F7 DUP2 DUP6 PUSH2 0x21A3 JUMP JUMPDEST POP PUSH2 0x13E PUSH2 0x32D PUSH2 0x319 PUSH1 0x20 PUSH2 0x30C DUP8 PUSH2 0x1FCA JUMP JUMPDEST POP PUSH1 0x40 MLOAD SWAP3 DUP4 DUP1 SWAP3 PUSH2 0x2094 JUMP JUMPDEST PUSH1 0x8 DUP2 MSTORE SUB ADD SWAP1 KECCAK256 PUSH1 0x40 MLOAD SWAP3 DUP4 DUP1 SWAP3 PUSH2 0x1EAA JUMP JUMPDEST PUSH2 0x337 DUP3 DUP8 PUSH2 0x21A3 JUMP JUMPDEST MSTORE PUSH2 0x342 DUP2 DUP7 PUSH2 0x21A3 JUMP JUMPDEST POP PUSH1 0x8 PUSH2 0x34E DUP5 PUSH2 0x1FCA JUMP JUMPDEST POP ADD SLOAD PUSH1 0x7 PUSH2 0x35C DUP6 PUSH2 0x1FCA JUMP JUMPDEST POP ADD SLOAD LT ISZERO PUSH2 0x3D1 JUMPI PUSH1 0x8 PUSH2 0x370 DUP5 PUSH2 0x1FCA JUMP JUMPDEST POP ADD SLOAD JUMPDEST PUSH2 0x37E DUP3 DUP9 PUSH2 0x21A3 JUMP JUMPDEST MSTORE PUSH1 0xFF PUSH1 0x6 PUSH2 0x38C DUP6 PUSH2 0x1FCA JUMP JUMPDEST POP ADD SLOAD PUSH1 0x8 SHR AND PUSH1 0x3 DUP2 LT ISZERO PUSH2 0x3BB JUMPI DUP2 PUSH2 0x3B3 SWAP2 PUSH2 0x3AD PUSH1 0x1 SWAP5 DUP12 PUSH2 0x21A3 JUMP JUMPDEST MSTORE PUSH2 0x2102 JUMP JUMPDEST SWAP3 SWAP1 POP PUSH2 0x288 JUMP JUMPDEST PUSH4 0x4E487B71 PUSH1 0xE0 SHL PUSH1 0x0 MSTORE PUSH1 0x21 PUSH1 0x4 MSTORE PUSH1 0x24 PUSH1 0x0 REVERT JUMPDEST PUSH1 0x7 PUSH2 0x3DC DUP5 PUSH2 0x1FCA JUMP JUMPDEST POP ADD SLOAD PUSH2 0x374 JUMP JUMPDEST PUSH1 0xFF PUSH1 0x6 PUSH2 0x3F1 DUP4 PUSH2 0x1FCA JUMP JUMPDEST POP ADD SLOAD PUSH1 0x8 SHR AND PUSH1 0x3 DUP2 LT ISZERO PUSH2 0x3BB JUMPI PUSH2 0x40E JUMPI JUMPDEST PUSH1 0x1 ADD PUSH2 0x17B JUMP JUMPDEST SWAP2 PUSH2 0x41A PUSH1 0x1 SWAP2 PUSH2 0x2102 JUMP JUMPDEST SWAP3 SWAP1 POP PUSH2 0x406 JUMP JUMPDEST CALLVALUE PUSH2 0x15D JUMPI PUSH2 0x140 CALLDATASIZE PUSH1 0x3 NOT ADD SLT PUSH2 0x15D JUMPI PUSH1 0x4 CALLDATALOAD PUSH1 0x1 PUSH1 0x1 PUSH1 0x40 SHL SUB DUP2 GT PUSH2 0x15D JUMPI PUSH2 0x453 SWAP1 CALLDATASIZE SWAP1 PUSH1 0x4 ADD PUSH2 0x1D28 JUMP JUMPDEST PUSH1 0x24 CALLDATALOAD PUSH1 0x1 PUSH1 0x1 PUSH1 0x40 SHL SUB DUP2 GT PUSH2 0x15D JUMPI PUSH2 0x472 SWAP1 CALLDATASIZE SWAP1 PUSH1 0x4 ADD PUSH2 0x1D28 JUMP JUMPDEST PUSH1 0x44 CALLDATALOAD PUSH1 0x1 PUSH1 0x1 PUSH1 0x40 SHL SUB DUP2 GT PUSH2 0x15D JUMPI PUSH2 0x491 SWAP1 CALLDATASIZE SWAP1 PUSH1 0x4 ADD PUSH2 0x1D28 JUMP JUMPDEST SWAP2 PUSH1 0x64 CALLDATALOAD PUSH1 0x1 PUSH1 0x1 PUSH1 0x40 SHL SUB DUP2 GT PUSH2 0x15D JUMPI PUSH2 0x4B1 SWAP1 CALLDATASIZE SWAP1 PUSH1 0x4 ADD PUSH2 0x2016 JUMP JUMPDEST SWAP2 PUSH1 0x84 CALLDATALOAD PUSH1 0x1 PUSH1 0x1 PUSH1 0x40 SHL SUB DUP2 GT PUSH2 0x15D JUMPI PUSH2 0x4D1 SWAP1 CALLDATASIZE SWAP1 PUSH1 0x4 ADD PUSH2 0x1D28 JUMP JUMPDEST SWAP1 PUSH1 0xA4 CALLDATALOAD PUSH1 0x1 PUSH1 0x1 PUSH1 0x40 SHL SUB DUP2 GT PUSH2 0x15D JUMPI PUSH2 0x4F1 SWAP1 CALLDATASIZE SWAP1 PUSH1 0x4 ADD PUSH2 0x2016 JUMP JUMPDEST SWAP1 PUSH1 0xC4 CALLDATALOAD SWAP4 PUSH1 0x1 DUP1 PUSH1 0xA0 SHL SUB DUP6 AND DUP1 SWAP6 SUB PUSH2 0x15D JUMPI PUSH1 0xE4 CALLDATALOAD PUSH1 0x1 PUSH1 0x1 PUSH1 0x40 SHL SUB DUP2 GT PUSH2 0x15D JUMPI PUSH2 0x525 SWAP1 CALLDATASIZE SWAP1 PUSH1 0x4 ADD PUSH2 0x1D28 JUMP JUMPDEST SWAP1 PUSH2 0x104 CALLDATALOAD PUSH1 0x1 PUSH1 0x1 PUSH1 0x40 SHL SUB DUP2 GT PUSH2 0x15D JUMPI PUSH2 0x546 SWAP1 CALLDATASIZE SWAP1 PUSH1 0x4 ADD PUSH2 0x1D28 JUMP JUMPDEST SWAP4 PUSH2 0x124 CALLDATALOAD SWAP8 PUSH1 0x2 DUP10 LT ISZERO PUSH2 0x15D JUMPI CALLER PUSH1 0x0 MSTORE PUSH1 0x2 PUSH1 0x20 MSTORE PUSH1 0xFF PUSH1 0x40 PUSH1 0x0 KECCAK256 SLOAD AND PUSH1 0x4 DUP2 LT ISZERO PUSH2 0x3BB JUMPI PUSH2 0x57A SWAP1 ISZERO PUSH2 0x223A JUMP JUMPDEST PUSH1 0x40 MLOAD SWAP5 PUSH2 0x587 DUP7 PUSH2 0x1CEB JUMP JUMPDEST DUP4 DUP7 MSTORE PUSH1 0x20 DUP7 ADD MSTORE DUP10 PUSH1 0x40 DUP7 ADD MSTORE PUSH1 0x60 DUP6 ADD MSTORE DUP6 PUSH1 0x80 DUP6 ADD MSTORE PUSH1 0xA0 DUP5 ADD MSTORE PUSH2 0x5B2 DUP8 PUSH1 0xC0 DUP6 ADD PUSH2 0x2217 JUMP JUMPDEST PUSH1 0x0 PUSH1 0xE0 DUP5 ADD MSTORE PUSH1 0x0 PUSH2 0x100 DUP5 ADD MSTORE PUSH1 0x0 PUSH2 0x120 DUP5 ADD MSTORE PUSH1 0x20 SWAP3 PUSH1 0x40 MLOAD PUSH2 0x5D9 DUP6 DUP3 PUSH2 0x1D07 JUMP JUMPDEST PUSH1 0x0 DUP2 MSTORE PUSH2 0x140 DUP3 ADD MSTORE PUSH1 0x40 MLOAD SWAP1 PUSH2 0x60E DUP2 DUP5 MLOAD SWAP4 DUP8 DUP2 DUP2 DUP9 ADD SWAP7 PUSH2 0x5FF DUP2 DUP4 DUP11 PUSH2 0x1D7E JUMP JUMPDEST DUP2 ADD PUSH1 0x3 DUP2 MSTORE SUB ADD SWAP1 KECCAK256 PUSH2 0x2290 JUMP JUMPDEST PUSH1 0x1 SLOAD PUSH1 0x1 PUSH1 0x40 SHL DUP2 LT ISZERO PUSH2 0x8C3 JUMPI DUP1 PUSH1 0x1 PUSH2 0x62D SWAP3 ADD PUSH1 0x1 SSTORE PUSH2 0x1FCA JUMP JUMPDEST SWAP2 SWAP1 SWAP2 PUSH2 0x97B JUMPI PUSH2 0x63D SWAP2 PUSH2 0x2290 JUMP JUMPDEST PUSH1 0x40 MLOAD DUP5 DUP2 DUP5 MLOAD PUSH2 0x64F DUP2 DUP4 DUP8 PUSH2 0x1D7E JUMP JUMPDEST DUP2 ADD PUSH1 0x7 DUP2 MSTORE SUB ADD SWAP1 KECCAK256 DUP8 PUSH12 0xFFFFFFFFFFFFFFFFFFFFFFFF PUSH1 0xA0 SHL DUP3 SLOAD AND OR SWAP1 SSTORE PUSH1 0x40 MLOAD DUP5 DUP2 DUP5 MLOAD PUSH2 0x682 DUP2 DUP4 DUP8 PUSH2 0x1D7E JUMP JUMPDEST DUP2 ADD PUSH1 0x8 DUP2 MSTORE SUB ADD SWAP1 KECCAK256 SWAP1 DUP4 MLOAD SWAP3 PUSH1 0x1 PUSH1 0x1 PUSH1 0x40 SHL SUB DUP5 GT PUSH2 0x8C3 JUMPI DUP3 PUSH2 0x6AA DUP8 SWAP5 SLOAD PUSH2 0x1E70 JUMP JUMPDEST PUSH1 0x1F DUP2 GT PUSH2 0x94B JUMPI JUMPDEST POP DUP4 SWAP5 PUSH1 0x1F DUP2 GT PUSH1 0x1 EQ PUSH2 0x8E4 JUMPI DUP1 PUSH2 0x6E6 SWAP2 PUSH2 0x6FA SWAP8 PUSH1 0x0 SWAP2 PUSH2 0x8D9 JUMPI JUMPDEST POP DUP2 PUSH1 0x1 SHL SWAP2 PUSH1 0x0 NOT SWAP1 PUSH1 0x3 SHL SHR NOT AND OR SWAP1 JUMP JUMPDEST SWAP1 SSTORE JUMPDEST PUSH1 0x40 MLOAD SWAP4 DUP5 SWAP3 DUP4 SWAP3 MLOAD SWAP3 DUP4 SWAP2 PUSH2 0x1D7E JUMP JUMPDEST DUP2 ADD PUSH1 0x9 DUP2 MSTORE SUB ADD SWAP1 KECCAK256 DUP4 MLOAD PUSH1 0x1 PUSH1 0x1 PUSH1 0x40 SHL SUB DUP2 GT PUSH2 0x8C3 JUMPI PUSH2 0x71E DUP3 SLOAD PUSH2 0x1E70 JUMP JUMPDEST PUSH1 0x1F DUP2 GT PUSH2 0x888 JUMPI JUMPDEST POP DUP4 PUSH1 0x1F DUP3 GT PUSH1 0x1 EQ PUSH2 0x7ED JUMPI SWAP5 PUSH2 0x7B1 PUSH2 0x7D2 SWAP6 PUSH32 0x634EF467423C7B2ABBAF26097BDDDAC4A495D36BE69CA3D1555484B46E7899C7 SWAP12 SWAP10 SWAP6 PUSH2 0x7A4 SWAP12 SWAP10 SWAP6 PUSH2 0x78D DUP7 PUSH2 0x7BF SWAP8 PUSH2 0x7DD SWAP13 PUSH1 0x0 SWAP2 PUSH2 0x7E2 JUMPI POP DUP2 PUSH1 0x1 SHL SWAP2 PUSH1 0x0 NOT SWAP1 PUSH1 0x3 SHL SHR NOT AND OR SWAP1 JUMP JUMPDEST SWAP1 SSTORE JUMPDEST PUSH1 0x40 MLOAD SWAP12 DUP13 SWAP12 PUSH1 0xC0 DUP14 MSTORE PUSH1 0xC0 DUP14 ADD SWAP1 PUSH2 0x1DA1 JUMP JUMPDEST SWAP2 DUP12 DUP4 SUB SWAP1 DUP13 ADD MSTORE PUSH2 0x1DA1 JUMP JUMPDEST SWAP1 DUP9 DUP3 SUB PUSH1 0x40 DUP11 ADD MSTORE PUSH2 0x1DA1 JUMP JUMPDEST SWAP2 PUSH1 0x60 DUP8 ADD MSTORE DUP6 DUP3 SUB PUSH1 0x80 DUP8 ADD MSTORE PUSH2 0x1DA1 JUMP JUMPDEST SWAP2 PUSH1 0xA0 DUP5 ADD SWAP1 PUSH2 0x1E56 JUMP JUMPDEST SUB SWAP1 LOG1 STOP JUMPDEST SWAP1 POP DUP8 ADD MLOAD CODESIZE PUSH2 0x6D2 JUMP JUMPDEST PUSH1 0x1F NOT DUP3 AND SWAP1 DUP4 PUSH1 0x0 MSTORE DUP6 PUSH1 0x0 KECCAK256 SWAP2 PUSH1 0x0 JUMPDEST DUP2 DUP2 LT PUSH2 0x871 JUMPI POP SWAP6 PUSH32 0x634EF467423C7B2ABBAF26097BDDDAC4A495D36BE69CA3D1555484B46E7899C7 SWAP12 SWAP10 SWAP6 PUSH2 0x7A4 SWAP12 SWAP10 SWAP6 PUSH1 0x1 DUP7 PUSH2 0x7DD SWAP12 SWAP7 PUSH2 0x7B1 SWAP7 PUSH2 0x7BF SWAP10 PUSH2 0x7D2 SWAP14 LT PUSH2 0x858 JUMPI JUMPDEST POP POP DUP2 SHL ADD SWAP1 SSTORE PUSH2 0x790 JUMP JUMPDEST DUP9 ADD MLOAD PUSH1 0x0 NOT PUSH1 0xF8 DUP5 PUSH1 0x3 SHL AND SHR NOT AND SWAP1 SSTORE CODESIZE DUP1 PUSH2 0x84C JUMP JUMPDEST SWAP2 SWAP3 DUP8 PUSH1 0x1 DUP2 SWAP3 DUP7 DUP13 ADD MLOAD DUP2 SSTORE ADD SWAP5 ADD SWAP3 ADD PUSH2 0x7FF JUMP JUMPDEST PUSH2 0x8B3 SWAP1 DUP4 PUSH1 0x0 MSTORE DUP6 PUSH1 0x0 KECCAK256 PUSH1 0x1F DUP5 ADD PUSH1 0x5 SHR DUP2 ADD SWAP2 DUP8 DUP6 LT PUSH2 0x8B9 JUMPI JUMPDEST PUSH1 0x1F ADD PUSH1 0x5 SHR ADD SWAP1 PUSH2 0x2223 JUMP JUMPDEST DUP10 PUSH2 0x727 JUMP JUMPDEST SWAP1 SWAP2 POP DUP2 SWAP1 PUSH2 0x8A6 JUMP JUMPDEST PUSH4 0x4E487B71 PUSH1 0xE0 SHL PUSH1 0x0 MSTORE PUSH1 0x41 PUSH1 0x4 MSTORE PUSH1 0x24 PUSH1 0x0 REVERT JUMPDEST SWAP1 POP DUP9 ADD MLOAD DUP16 PUSH2 0x6D2 JUMP JUMPDEST PUSH1 0x1F NOT DUP2 AND SWAP6 DUP3 PUSH1 0x0 MSTORE DUP6 PUSH1 0x0 KECCAK256 SWAP7 PUSH1 0x0 JUMPDEST DUP2 DUP2 LT PUSH2 0x933 JUMPI POP SWAP7 DUP3 SWAP2 PUSH1 0x1 SWAP4 PUSH2 0x6FA SWAP10 LT PUSH2 0x91A JUMPI JUMPDEST POP POP DUP2 SHL ADD SWAP1 SSTORE PUSH2 0x6E9 JUMP JUMPDEST DUP10 ADD MLOAD PUSH1 0x0 NOT PUSH1 0xF8 DUP5 PUSH1 0x3 SHL AND SHR NOT AND SWAP1 SSTORE DUP15 DUP1 PUSH2 0x90E JUMP JUMPDEST DUP3 DUP11 ADD MLOAD DUP10 SSTORE PUSH1 0x1 SWAP1 SWAP9 ADD SWAP8 DUP11 SWAP8 SWAP3 DUP4 ADD SWAP3 ADD PUSH2 0x8F6 JUMP JUMPDEST PUSH2 0x975 SWAP1 DUP3 PUSH1 0x0 MSTORE DUP6 PUSH1 0x0 KECCAK256 PUSH1 0x1F DUP9 ADD PUSH1 0x5 SHR DUP2 ADD SWAP2 DUP8 DUP10 LT PUSH2 0x8B9 JUMPI PUSH1 0x1F ADD PUSH1 0x5 SHR ADD SWAP1 PUSH2 0x2223 JUMP JUMPDEST DUP13 PUSH2 0x6B3 JUMP JUMPDEST PUSH4 0x4E487B71 PUSH1 0xE0 SHL PUSH1 0x0 MSTORE PUSH1 0x0 PUSH1 0x4 MSTORE PUSH1 0x24 PUSH1 0x0 REVERT JUMPDEST CALLVALUE PUSH2 0x15D JUMPI PUSH1 0x20 CALLDATASIZE PUSH1 0x3 NOT ADD SLT PUSH2 0x15D JUMPI PUSH1 0x4 CALLDATALOAD PUSH1 0x1 PUSH1 0x1 PUSH1 0x40 SHL SUB DUP2 GT PUSH2 0x15D JUMPI PUSH2 0x9C1 SWAP1 CALLDATASIZE SWAP1 PUSH1 0x4 ADD PUSH2 0x1D28 JUMP JUMPDEST CALLER PUSH1 0x0 MSTORE PUSH1 0x2 PUSH1 0x20 MSTORE PUSH1 0xFF PUSH1 0x40 PUSH1 0x0 KECCAK256 SLOAD AND PUSH1 0x4 DUP2 LT ISZERO PUSH2 0x3BB JUMPI PUSH2 0x9E6 SWAP1 ISZERO PUSH2 0x223A JUMP JUMPDEST PUSH1 0x40 MLOAD DUP2 MLOAD SWAP1 PUSH1 0x20 DUP2 DUP2 DUP6 ADD SWAP4 PUSH2 0x9FE DUP2 DUP4 DUP8 PUSH2 0x1D7E JUMP JUMPDEST DUP2 ADD PUSH1 0x3 DUP2 MSTORE SUB ADD SWAP1 KECCAK256 SWAP2 PUSH1 0x6 DUP4 ADD PUSH1 0xFF DUP2 SLOAD PUSH1 0x8 SHR AND PUSH1 0x3 DUP2 LT ISZERO PUSH2 0x3BB JUMPI PUSH2 0xB5E JUMPI TIMESTAMP PUSH1 0x7 DUP6 ADD SSTORE DUP1 SLOAD PUSH2 0xFF00 NOT AND PUSH2 0x100 OR SWAP1 SSTORE PUSH1 0x0 JUMPDEST PUSH1 0x1 SLOAD DUP2 LT ISZERO PUSH2 0xB2E JUMPI PUSH2 0xA4B DUP2 PUSH2 0x1FCA JUMP JUMPDEST POP PUSH1 0x40 MLOAD PUSH2 0xA6F DUP2 PUSH2 0xA61 PUSH1 0x20 DUP3 ADD DUP1 SWAP6 PUSH2 0x2094 JUMP JUMPDEST SUB PUSH1 0x1F NOT DUP2 ADD DUP4 MSTORE DUP3 PUSH2 0x1D07 JUMP JUMPDEST MLOAD SWAP1 KECCAK256 PUSH1 0x40 MLOAD PUSH1 0x20 DUP2 ADD SWAP1 PUSH2 0xA9E PUSH1 0x20 DUP3 DUP8 MLOAD PUSH2 0xA8D DUP2 DUP8 DUP13 PUSH2 0x1D7E JUMP JUMPDEST DUP2 ADD SUB ADD PUSH1 0x1F NOT DUP2 ADD DUP4 MSTORE DUP3 PUSH2 0x1D07 JUMP JUMPDEST MLOAD SWAP1 KECCAK256 EQ PUSH2 0xAAE JUMPI PUSH1 0x1 ADD PUSH2 0xA38 JUMP JUMPDEST PUSH2 0xB19 SWAP3 POP PUSH32 0x854681DB4B5190CEAACFE5894893F2E8D49873D9B8ED6C72B5618047CB3924E5 SWAP4 PUSH1 0x6 PUSH2 0xAF3 DUP4 PUSH2 0xAE7 PUSH2 0x7DD SWAP6 PUSH2 0x1FCA JUMP JUMPDEST POP PUSH1 0x7 TIMESTAMP SWAP2 ADD SSTORE PUSH2 0x1FCA JUMP JUMPDEST POP ADD DUP1 SLOAD PUSH2 0xFF00 NOT AND PUSH2 0x100 OR SWAP1 SSTORE JUMPDEST PUSH1 0x2 PUSH1 0x40 MLOAD SWAP5 DUP6 SWAP5 PUSH1 0x60 DUP7 MSTORE PUSH1 0x60 DUP7 ADD SWAP1 PUSH2 0x1DA1 JUMP JUMPDEST SWAP2 TIMESTAMP PUSH1 0x20 DUP7 ADD MSTORE DUP5 DUP4 SUB PUSH1 0x40 DUP7 ADD MSTORE ADD PUSH2 0x1EAA JUMP JUMPDEST POP PUSH2 0xB19 SWAP2 POP PUSH2 0x7DD PUSH32 0x854681DB4B5190CEAACFE5894893F2E8D49873D9B8ED6C72B5618047CB3924E5 SWAP4 PUSH2 0xB03 JUMP JUMPDEST PUSH1 0x40 MLOAD PUSH3 0x461BCD PUSH1 0xE5 SHL DUP2 MSTORE PUSH1 0x20 PUSH1 0x4 DUP3 ADD MSTORE PUSH1 0x34 PUSH1 0x24 DUP3 ADD MSTORE PUSH32 0x4F62617420547261646973696F6E616C20737461747573206D75737420626520 PUSH1 0x44 DUP3 ADD MSTORE PUSH20 0x696E206C6F63616C2070726F64756374696F6E21 PUSH1 0x60 SHL PUSH1 0x64 DUP3 ADD MSTORE PUSH1 0x84 SWAP1 REVERT JUMPDEST CALLVALUE PUSH2 0x15D JUMPI PUSH1 0x20 CALLDATASIZE PUSH1 0x3 NOT ADD SLT PUSH2 0x15D JUMPI PUSH1 0x4 CALLDATALOAD PUSH1 0x1 PUSH1 0x1 PUSH1 0x40 SHL SUB DUP2 GT PUSH2 0x15D JUMPI PUSH2 0x13E PUSH2 0x145 PUSH2 0xBFE PUSH1 0x20 PUSH2 0x115 PUSH2 0x159 SWAP6 CALLDATASIZE SWAP1 PUSH1 0x4 ADD PUSH2 0x1D28 JUMP JUMPDEST DUP2 ADD PUSH1 0x8 DUP2 MSTORE SUB ADD SWAP1 KECCAK256 PUSH1 0x40 MLOAD SWAP3 DUP4 DUP1 SWAP3 PUSH2 0x1EAA JUMP JUMPDEST CALLVALUE PUSH2 0x15D JUMPI PUSH1 0x20 CALLDATASIZE PUSH1 0x3 NOT ADD SLT PUSH2 0x15D JUMPI PUSH1 0x4 CALLDATALOAD PUSH1 0x1 PUSH1 0x1 PUSH1 0x40 SHL SUB DUP2 GT PUSH2 0x15D JUMPI PUSH2 0x13E PUSH2 0x145 PUSH2 0xC52 PUSH1 0x20 PUSH2 0x115 PUSH2 0x159 SWAP6 CALLDATASIZE SWAP1 PUSH1 0x4 ADD PUSH2 0x1D28 JUMP JUMPDEST DUP2 ADD PUSH1 0x5 DUP2 MSTORE SUB ADD SWAP1 KECCAK256 PUSH1 0x40 MLOAD SWAP3 DUP4 DUP1 SWAP3 PUSH2 0x1EAA JUMP JUMPDEST CALLVALUE PUSH2 0x15D JUMPI PUSH1 0x0 CALLDATASIZE PUSH1 0x3 NOT ADD SLT PUSH2 0x15D JUMPI PUSH1 0x0 SLOAD PUSH1 0x40 MLOAD PUSH1 0x1 PUSH1 0x1 PUSH1 0xA0 SHL SUB SWAP1 SWAP2 AND DUP2 MSTORE PUSH1 0x20 SWAP1 RETURN JUMPDEST CALLVALUE PUSH2 0x15D JUMPI PUSH1 0xA0 CALLDATASIZE PUSH1 0x3 NOT ADD SLT PUSH2 0x15D JUMPI PUSH1 0x4 CALLDATALOAD PUSH1 0x1 PUSH1 0x1 PUSH1 0x40 SHL SUB DUP2 GT PUSH2 0x15D JUMPI PUSH2 0xCC1 SWAP1 CALLDATASIZE SWAP1 PUSH1 0x4 ADD PUSH2 0x1D28 JUMP JUMPDEST PUSH1 0x24 CALLDATALOAD SWAP1 PUSH1 0x1 PUSH1 0x1 PUSH1 0xA0 SHL SUB DUP3 AND DUP3 SUB PUSH2 0x15D JUMPI PUSH1 0x44 CALLDATALOAD PUSH1 0x1 PUSH1 0x1 PUSH1 0x40 SHL SUB DUP2 GT PUSH2 0x15D JUMPI PUSH2 0xCF4 SWAP1 CALLDATASIZE SWAP1 PUSH1 0x4 ADD PUSH2 0x1D28 JUMP JUMPDEST SWAP1 PUSH1 0x64 CALLDATALOAD PUSH1 0x1 PUSH1 0x1 PUSH1 0x40 SHL SUB DUP2 GT PUSH2 0x15D JUMPI PUSH2 0xD14 SWAP1 CALLDATASIZE SWAP1 PUSH1 0x4 ADD PUSH2 0x1D28 JUMP JUMPDEST SWAP1 PUSH1 0x84 CALLDATALOAD PUSH1 0x1 PUSH1 0x1 PUSH1 0x40 SHL SUB DUP2 GT PUSH2 0x15D JUMPI PUSH2 0xD34 SWAP1 CALLDATASIZE SWAP1 PUSH1 0x4 ADD PUSH2 0x1D28 JUMP JUMPDEST SWAP2 PUSH1 0x40 MLOAD SWAP4 DUP3 MLOAD SWAP5 PUSH1 0x20 DUP2 DUP2 DUP7 ADD SWAP8 PUSH2 0xD4E DUP2 DUP4 DUP12 PUSH2 0x1D7E JUMP JUMPDEST DUP2 ADD PUSH1 0x3 DUP2 MSTORE SUB ADD SWAP1 KECCAK256 SWAP6 PUSH1 0x6 DUP8 ADD PUSH1 0xFF DUP2 SLOAD PUSH1 0x8 SHR AND PUSH1 0x3 DUP2 LT ISZERO PUSH2 0x3BB JUMPI PUSH1 0x1 SUB PUSH2 0x132D JUMPI TIMESTAMP PUSH1 0x8 DUP10 ADD SSTORE PUSH2 0x200 PUSH2 0xFF00 NOT DUP3 SLOAD AND OR SWAP1 SSTORE PUSH1 0x9 DUP8 ADD DUP6 MLOAD PUSH1 0x1 PUSH1 0x1 PUSH1 0x40 SHL SUB DUP2 GT PUSH2 0x8C3 JUMPI PUSH2 0xDA6 DUP3 SLOAD PUSH2 0x1E70 JUMP JUMPDEST PUSH1 0x1F DUP2 GT PUSH2 0x12FB JUMPI JUMPDEST POP PUSH1 0x20 PUSH1 0x1F DUP3 GT PUSH1 0x1 EQ PUSH2 0x1295 JUMPI SWAP1 DUP1 PUSH2 0xDDE SWAP3 PUSH1 0x0 SWAP2 PUSH2 0x128A JUMPI POP DUP2 PUSH1 0x1 SHL SWAP2 PUSH1 0x0 NOT SWAP1 PUSH1 0x3 SHL SHR NOT AND OR SWAP1 JUMP JUMPDEST SWAP1 SSTORE JUMPDEST PUSH1 0x40 MLOAD PUSH1 0x20 DUP2 DUP7 MLOAD PUSH2 0xDF4 DUP2 DUP4 DUP13 PUSH2 0x1D7E JUMP JUMPDEST DUP2 ADD PUSH1 0x4 DUP2 MSTORE SUB ADD SWAP1 KECCAK256 SWAP1 PUSH1 0x1 DUP1 PUSH1 0xA0 SHL SUB AND PUSH12 0xFFFFFFFFFFFFFFFFFFFFFFFF PUSH1 0xA0 SHL DUP3 SLOAD AND OR SWAP1 SSTORE PUSH1 0x40 MLOAD PUSH1 0x20 DUP2 DUP6 MLOAD PUSH2 0xE30 DUP2 DUP4 DUP12 PUSH2 0x1D7E JUMP JUMPDEST DUP2 ADD PUSH1 0x5 DUP2 MSTORE SUB ADD SWAP1 KECCAK256 SWAP1 DUP1 MLOAD SWAP1 PUSH1 0x1 PUSH1 0x1 PUSH1 0x40 SHL SUB DUP3 GT PUSH2 0x8C3 JUMPI PUSH2 0xE56 DUP4 SLOAD PUSH2 0x1E70 JUMP JUMPDEST PUSH1 0x1F DUP2 GT PUSH2 0x1258 JUMPI JUMPDEST POP PUSH1 0x20 SWAP1 PUSH1 0x1F DUP4 GT PUSH1 0x1 EQ PUSH2 0x11F1 JUMPI PUSH2 0xE91 SWAP3 SWAP2 PUSH1 0x0 SWAP2 DUP4 PUSH2 0x11E6 JUMPI JUMPDEST POP POP DUP2 PUSH1 0x1 SHL SWAP2 PUSH1 0x0 NOT SWAP1 PUSH1 0x3 SHL SHR NOT AND OR SWAP1 JUMP JUMPDEST SWAP1 SSTORE JUMPDEST PUSH1 0x40 MLOAD PUSH1 0x20 DUP2 DUP5 MLOAD PUSH2 0xEA7 DUP2 DUP4 DUP11 PUSH2 0x1D7E JUMP JUMPDEST DUP2 ADD PUSH1 0x6 DUP2 MSTORE SUB ADD SWAP1 KECCAK256 SWAP1 DUP1 MLOAD SWAP1 PUSH1 0x1 PUSH1 0x1 PUSH1 0x40 SHL SUB DUP3 GT PUSH2 0x8C3 JUMPI PUSH2 0xECD DUP4 SLOAD PUSH2 0x1E70 JUMP JUMPDEST PUSH1 0x1F DUP2 GT PUSH2 0x11B4 JUMPI JUMPDEST POP PUSH1 0x20 SWAP1 PUSH1 0x1F DUP4 GT PUSH1 0x1 EQ PUSH2 0x114D JUMPI PUSH2 0xF07 SWAP3 SWAP2 PUSH1 0x0 SWAP2 DUP4 PUSH2 0x1142 JUMPI POP POP DUP2 PUSH1 0x1 SHL SWAP2 PUSH1 0x0 NOT SWAP1 PUSH1 0x3 SHL SHR NOT AND OR SWAP1 JUMP JUMPDEST SWAP1 SSTORE JUMPDEST PUSH1 0x0 JUMPDEST PUSH1 0x1 SLOAD DUP2 LT ISZERO PUSH2 0x1111 JUMPI PUSH2 0xF20 DUP2 PUSH2 0x1FCA JUMP JUMPDEST POP PUSH1 0x40 MLOAD PUSH2 0xF36 DUP2 PUSH2 0xA61 PUSH1 0x20 DUP3 ADD DUP1 SWAP6 PUSH2 0x2094 JUMP JUMPDEST MLOAD SWAP1 KECCAK256 PUSH1 0x40 MLOAD PUSH1 0x20 DUP2 ADD SWAP1 PUSH2 0xF54 PUSH1 0x20 DUP3 DUP8 MLOAD PUSH2 0xA8D DUP2 DUP8 DUP14 PUSH2 0x1D7E JUMP JUMPDEST MLOAD SWAP1 KECCAK256 EQ PUSH2 0xF64 JUMPI PUSH1 0x1 ADD PUSH2 0xF0D JUMP JUMPDEST PUSH1 0x9 SWAP3 SWAP4 POP PUSH2 0xF9D SWAP2 POP PUSH2 0xF77 DUP2 PUSH2 0x1FCA JUMP JUMPDEST POP PUSH1 0x8 TIMESTAMP SWAP2 ADD SSTORE PUSH1 0x6 PUSH2 0xF89 DUP3 PUSH2 0x1FCA JUMP JUMPDEST POP ADD DUP1 SLOAD PUSH2 0xFF00 NOT AND PUSH2 0x200 OR SWAP1 SSTORE PUSH2 0x1FCA JUMP JUMPDEST POP ADD SWAP2 DUP2 MLOAD SWAP3 PUSH1 0x1 PUSH1 0x1 PUSH1 0x40 SHL SUB DUP5 GT PUSH2 0x8C3 JUMPI PUSH2 0xFBB DUP2 SLOAD PUSH2 0x1E70 JUMP JUMPDEST PUSH1 0x1F DUP2 GT PUSH2 0x10DF JUMPI JUMPDEST POP PUSH1 0x20 SWAP4 PUSH1 0x1F DUP2 GT PUSH1 0x1 EQ PUSH2 0x1051 JUMPI SWAP2 PUSH2 0x7DD SWAP2 PUSH2 0x101E DUP5 PUSH2 0x1037 SWAP7 SWAP6 PUSH32 0x489F165B733603CB0A992D8CAFD6C42A0C13D169039003F751758B9F0019F26C SWAP9 PUSH1 0x0 SWAP2 PUSH2 0x1046 JUMPI POP DUP2 PUSH1 0x1 SHL SWAP2 PUSH1 0x0 NOT SWAP1 PUSH1 0x3 SHL SHR NOT AND OR SWAP1 JUMP JUMPDEST SWAP1 SSTORE JUMPDEST PUSH1 0x2 PUSH1 0x40 MLOAD SWAP5 DUP6 SWAP5 PUSH1 0x40 DUP7 MSTORE PUSH1 0x40 DUP7 ADD SWAP1 PUSH2 0x1DA1 JUMP JUMPDEST SWAP2 DUP5 DUP4 SUB PUSH1 0x20 DUP7 ADD MSTORE ADD PUSH2 0x1EAA JUMP JUMPDEST SWAP1 POP DUP7 ADD MLOAD DUP10 PUSH2 0x6D2 JUMP JUMPDEST PUSH1 0x1F NOT DUP2 AND SWAP5 DUP3 PUSH1 0x0 MSTORE DUP1 PUSH1 0x0 KECCAK256 SWAP6 PUSH1 0x0 JUMPDEST DUP2 DUP2 LT PUSH2 0x10C7 JUMPI POP DUP3 PUSH32 0x489F165B733603CB0A992D8CAFD6C42A0C13D169039003F751758B9F0019F26C SWAP8 PUSH2 0x7DD SWAP6 SWAP4 PUSH2 0x1037 SWAP9 SWAP8 SWAP6 PUSH1 0x1 SWAP5 LT PUSH2 0x10AE JUMPI JUMPDEST POP POP DUP2 SHL ADD SWAP1 SSTORE PUSH2 0x1021 JUMP JUMPDEST DUP8 ADD MLOAD PUSH1 0x0 NOT PUSH1 0xF8 DUP5 PUSH1 0x3 SHL AND SHR NOT AND SWAP1 SSTORE DUP9 DUP1 PUSH2 0x10A2 JUMP JUMPDEST DUP7 DUP4 ADD MLOAD DUP9 SSTORE PUSH1 0x1 SWAP1 SWAP8 ADD SWAP7 PUSH1 0x20 SWAP3 DUP4 ADD SWAP3 ADD PUSH2 0x1063 JUMP JUMPDEST PUSH2 0x110B SWAP1 DUP3 PUSH1 0x0 MSTORE PUSH1 0x20 PUSH1 0x0 KECCAK256 PUSH1 0x1F DUP8 ADD PUSH1 0x5 SHR DUP2 ADD SWAP2 PUSH1 0x20 DUP9 LT PUSH2 0x8B9 JUMPI PUSH1 0x1F ADD PUSH1 0x5 SHR ADD SWAP1 PUSH2 0x2223 JUMP JUMPDEST DUP5 PUSH2 0xFC4 JUMP JUMPDEST POP POP PUSH2 0x1037 SWAP2 POP PUSH2 0x7DD PUSH32 0x489F165B733603CB0A992D8CAFD6C42A0C13D169039003F751758B9F0019F26C SWAP4 PUSH2 0x1021 JUMP JUMPDEST ADD MLOAD SWAP1 POP DUP9 DUP1 PUSH2 0xE7C JUMP JUMPDEST SWAP1 PUSH1 0x1F NOT DUP4 AND SWAP2 DUP5 PUSH1 0x0 MSTORE DUP2 PUSH1 0x0 KECCAK256 SWAP3 PUSH1 0x0 JUMPDEST DUP2 DUP2 LT PUSH2 0x119C JUMPI POP SWAP1 DUP5 PUSH1 0x1 SWAP6 SWAP5 SWAP4 SWAP3 LT PUSH2 0x1183 JUMPI JUMPDEST POP POP POP DUP2 SHL ADD SWAP1 SSTORE PUSH2 0xF0A JUMP JUMPDEST ADD MLOAD PUSH1 0x0 NOT PUSH1 0xF8 DUP5 PUSH1 0x3 SHL AND SHR NOT AND SWAP1 SSTORE DUP8 DUP1 DUP1 PUSH2 0x1176 JUMP JUMPDEST SWAP3 SWAP4 PUSH1 0x20 PUSH1 0x1 DUP2 SWAP3 DUP8 DUP7 ADD MLOAD DUP2 SSTORE ADD SWAP6 ADD SWAP4 ADD PUSH2 0x1160 JUMP JUMPDEST PUSH2 0x11E0 SWAP1 DUP5 PUSH1 0x0 MSTORE PUSH1 0x20 PUSH1 0x0 KECCAK256 PUSH1 0x1F DUP6 ADD PUSH1 0x5 SHR DUP2 ADD SWAP2 PUSH1 0x20 DUP7 LT PUSH2 0x8B9 JUMPI PUSH1 0x1F ADD PUSH1 0x5 SHR ADD SWAP1 PUSH2 0x2223 JUMP JUMPDEST DUP8 PUSH2 0xED6 JUMP JUMPDEST ADD MLOAD SWAP1 POP DUP10 DUP1 PUSH2 0xE7C JUMP JUMPDEST SWAP1 PUSH1 0x1F NOT DUP4 AND SWAP2 DUP5 PUSH1 0x0 MSTORE DUP2 PUSH1 0x0 KECCAK256 SWAP3 PUSH1 0x0 JUMPDEST DUP2 DUP2 LT PUSH2 0x1240 JUMPI POP SWAP1 DUP5 PUSH1 0x1 SWAP6 SWAP5 SWAP4 SWAP3 LT PUSH2 0x1227 JUMPI JUMPDEST POP POP POP DUP2 SHL ADD SWAP1 SSTORE PUSH2 0xE94 JUMP JUMPDEST ADD MLOAD PUSH1 0x0 NOT PUSH1 0xF8 DUP5 PUSH1 0x3 SHL AND SHR NOT AND SWAP1 SSTORE DUP9 DUP1 DUP1 PUSH2 0x121A JUMP JUMPDEST SWAP3 SWAP4 PUSH1 0x20 PUSH1 0x1 DUP2 SWAP3 DUP8 DUP7 ADD MLOAD DUP2 SSTORE ADD SWAP6 ADD SWAP4 ADD PUSH2 0x1204 JUMP JUMPDEST PUSH2 0x1284 SWAP1 DUP5 PUSH1 0x0 MSTORE PUSH1 0x20 PUSH1 0x0 KECCAK256 PUSH1 0x1F DUP6 ADD PUSH1 0x5 SHR DUP2 ADD SWAP2 PUSH1 0x20 DUP7 LT PUSH2 0x8B9 JUMPI PUSH1 0x1F ADD PUSH1 0x5 SHR ADD SWAP1 PUSH2 0x2223 JUMP JUMPDEST DUP9 PUSH2 0xE5F JUMP JUMPDEST SWAP1 POP DUP9 ADD MLOAD DUP12 PUSH2 0x6D2 JUMP JUMPDEST PUSH1 0x1F NOT DUP3 AND SWAP1 DUP4 PUSH1 0x0 MSTORE DUP1 PUSH1 0x0 KECCAK256 SWAP2 PUSH1 0x0 JUMPDEST DUP11 DUP3 DUP3 LT PUSH2 0x12E3 JUMPI POP POP SWAP1 DUP4 PUSH1 0x1 SWAP5 SWAP4 SWAP3 LT PUSH2 0x12CA JUMPI JUMPDEST POP POP DUP2 SHL ADD SWAP1 SSTORE PUSH2 0xDE1 JUMP JUMPDEST DUP10 ADD MLOAD PUSH1 0x0 NOT PUSH1 0xF8 DUP5 PUSH1 0x3 SHL AND SHR NOT AND SWAP1 SSTORE DUP11 DUP1 PUSH2 0x12BE JUMP JUMPDEST PUSH1 0x1 DUP5 SWAP6 PUSH1 0x20 SWAP4 SWAP6 DUP5 SWAP4 ADD MLOAD DUP2 SSTORE ADD SWAP5 ADD SWAP3 ADD PUSH2 0x12A7 JUMP JUMPDEST PUSH2 0x1327 SWAP1 DUP4 PUSH1 0x0 MSTORE PUSH1 0x20 PUSH1 0x0 KECCAK256 PUSH1 0x1F DUP5 ADD PUSH1 0x5 SHR DUP2 ADD SWAP2 PUSH1 0x20 DUP6 LT PUSH2 0x8B9 JUMPI PUSH1 0x1F ADD PUSH1 0x5 SHR ADD SWAP1 PUSH2 0x2223 JUMP JUMPDEST DUP10 PUSH2 0xDAF JUMP JUMPDEST PUSH1 0x40 MLOAD PUSH3 0x461BCD PUSH1 0xE5 SHL DUP2 MSTORE PUSH1 0x20 PUSH1 0x4 DUP3 ADD MSTORE PUSH1 0x2A PUSH1 0x24 DUP3 ADD MSTORE PUSH32 0x4F62617420547261646973696F6E616C20737461747573206D75737420626520 PUSH1 0x44 DUP3 ADD MSTORE PUSH10 0x72657175657374656421 PUSH1 0xB0 SHL PUSH1 0x64 DUP3 ADD MSTORE PUSH1 0x84 SWAP1 REVERT JUMPDEST CALLVALUE PUSH2 0x15D JUMPI PUSH1 0x20 CALLDATASIZE PUSH1 0x3 NOT ADD SLT PUSH2 0x15D JUMPI PUSH1 0x4 CALLDATALOAD PUSH1 0x1 SLOAD DUP2 LT ISZERO PUSH2 0x15D JUMPI PUSH2 0x13AC SWAP1 PUSH2 0x1FCA JUMP JUMPDEST POP PUSH1 0x40 MLOAD SWAP1 PUSH2 0x13C6 DUP3 PUSH2 0x13BF DUP2 DUP5 PUSH2 0x1EAA JUMP JUMPDEST SUB DUP4 PUSH2 0x1D07 JUMP JUMPDEST PUSH2 0x159 PUSH1 0x9 PUSH1 0x40 MLOAD SWAP3 PUSH2 0x13E7 DUP5 PUSH2 0x13E0 DUP2 PUSH1 0x1 DUP6 ADD PUSH2 0x1EAA JUMP JUMPDEST SUB DUP6 PUSH2 0x1D07 JUMP JUMPDEST PUSH1 0x40 MLOAD SWAP5 PUSH2 0x1403 DUP7 PUSH2 0x13FC DUP2 PUSH1 0x2 DUP7 ADD PUSH2 0x1EAA JUMP JUMPDEST SUB DUP8 PUSH2 0x1D07 JUMP JUMPDEST PUSH1 0x40 MLOAD SWAP1 PUSH2 0x1418 DUP3 PUSH2 0x13BF DUP2 PUSH1 0x4 DUP8 ADD PUSH2 0x1EAA JUMP JUMPDEST PUSH1 0x6 DUP4 ADD SLOAD SWAP1 PUSH1 0x7 DUP5 ADD SLOAD SWAP3 PUSH2 0x143D PUSH1 0x8 DUP7 ADD SLOAD SWAP6 PUSH2 0x13FC PUSH1 0x40 MLOAD DUP1 SWAP10 DUP2 SWAP4 ADD PUSH2 0x1EAA JUMP JUMPDEST PUSH1 0x40 MLOAD SWAP9 DUP10 SWAP9 PUSH1 0xFF DUP1 DUP7 PUSH1 0x8 SHR AND SWAP6 AND SWAP4 DUP11 PUSH2 0x1F2D JUMP JUMPDEST CALLVALUE PUSH2 0x15D JUMPI PUSH1 0x20 CALLDATASIZE PUSH1 0x3 NOT ADD SLT PUSH2 0x15D JUMPI PUSH1 0x1 PUSH1 0x1 PUSH1 0xA0 SHL SUB PUSH2 0x1475 PUSH2 0x1FA7 JUMP JUMPDEST AND PUSH1 0x0 MSTORE PUSH1 0x2 PUSH1 0x20 MSTORE PUSH1 0x20 PUSH1 0xFF PUSH1 0x40 PUSH1 0x0 KECCAK256 SLOAD AND PUSH2 0x1496 PUSH1 0x40 MLOAD DUP1 SWAP3 PUSH2 0x1FBD JUMP JUMPDEST RETURN JUMPDEST CALLVALUE PUSH2 0x15D JUMPI PUSH1 0x20 CALLDATASIZE PUSH1 0x3 NOT ADD SLT PUSH2 0x15D JUMPI PUSH1 0x4 CALLDATALOAD PUSH1 0x1 PUSH1 0x1 PUSH1 0x40 SHL SUB DUP2 GT PUSH2 0x15D JUMPI PUSH2 0x14CA PUSH1 0x20 SWAP2 CALLDATASIZE SWAP1 PUSH1 0x4 ADD PUSH2 0x1D28 JUMP JUMPDEST DUP2 PUSH2 0x14DE PUSH1 0x40 MLOAD SWAP3 DUP4 DUP2 MLOAD SWAP4 DUP5 SWAP3 ADD PUSH2 0x1D7E JUMP JUMPDEST PUSH1 0x7 SWAP1 DUP3 ADD SWAP1 DUP2 MSTORE DUP2 SWAP1 SUB DUP3 ADD SWAP1 KECCAK256 SLOAD PUSH1 0x40 MLOAD PUSH1 0x1 PUSH1 0x1 PUSH1 0xA0 SHL SUB SWAP1 SWAP2 AND DUP2 MSTORE RETURN JUMPDEST CALLVALUE PUSH2 0x15D JUMPI PUSH1 0x20 CALLDATASIZE PUSH1 0x3 NOT ADD SLT PUSH2 0x15D JUMPI PUSH1 0x1 PUSH1 0x1 PUSH1 0xA0 SHL SUB PUSH2 0x1521 PUSH2 0x1FA7 JUMP JUMPDEST AND PUSH1 0x0 MSTORE PUSH1 0x2 PUSH1 0x20 MSTORE PUSH1 0x40 PUSH1 0xFF DUP2 PUSH1 0x0 KECCAK256 SLOAD AND PUSH2 0x1540 DUP3 MLOAD DUP1 SWAP3 PUSH2 0x1FBD JUMP JUMPDEST CALLER PUSH1 0x20 DUP3 ADD MSTORE RETURN JUMPDEST CALLVALUE PUSH2 0x15D JUMPI PUSH1 0x20 CALLDATASIZE PUSH1 0x3 NOT ADD SLT PUSH2 0x15D JUMPI PUSH1 0x4 CALLDATALOAD PUSH1 0x1 PUSH1 0x1 PUSH1 0x40 SHL SUB DUP2 GT PUSH2 0x15D JUMPI PUSH2 0x13E PUSH2 0x145 PUSH2 0x1586 PUSH1 0x20 PUSH2 0x115 PUSH2 0x159 SWAP6 CALLDATASIZE SWAP1 PUSH1 0x4 ADD PUSH2 0x1D28 JUMP JUMPDEST DUP2 ADD PUSH1 0x9 DUP2 MSTORE SUB ADD SWAP1 KECCAK256 PUSH1 0x40 MLOAD SWAP3 DUP4 DUP1 SWAP3 PUSH2 0x1EAA JUMP JUMPDEST CALLVALUE PUSH2 0x15D JUMPI PUSH1 0x20 CALLDATASIZE PUSH1 0x3 NOT ADD SLT PUSH2 0x15D JUMPI PUSH1 0x4 CALLDATALOAD PUSH1 0x1 PUSH1 0x1 PUSH1 0x40 SHL SUB DUP2 GT PUSH2 0x15D JUMPI PUSH1 0x20 PUSH2 0x115 PUSH2 0x15D1 SWAP3 CALLDATASIZE SWAP1 PUSH1 0x4 ADD PUSH2 0x1D28 JUMP JUMPDEST DUP2 ADD PUSH1 0x3 DUP2 MSTORE SUB ADD SWAP1 KECCAK256 PUSH1 0x40 MLOAD SWAP1 PUSH2 0x13C6 DUP3 PUSH2 0x13BF DUP2 DUP5 PUSH2 0x1EAA JUMP JUMPDEST CALLVALUE PUSH2 0x15D JUMPI PUSH1 0x20 CALLDATASIZE PUSH1 0x3 NOT ADD SLT PUSH2 0x15D JUMPI PUSH1 0x4 CALLDATALOAD PUSH1 0x1 PUSH1 0x1 PUSH1 0x40 SHL SUB DUP2 GT PUSH2 0x15D JUMPI PUSH2 0x161D SWAP1 CALLDATASIZE SWAP1 PUSH1 0x4 ADD PUSH2 0x1D28 JUMP JUMPDEST PUSH1 0x60 PUSH2 0x140 PUSH1 0x40 MLOAD PUSH2 0x162E DUP2 PUSH2 0x1CEB JUMP JUMPDEST DUP3 DUP2 MSTORE DUP3 PUSH1 0x20 DUP3 ADD MSTORE DUP3 PUSH1 0x40 DUP3 ADD MSTORE DUP3 DUP1 DUP3 ADD MSTORE DUP3 PUSH1 0x80 DUP3 ADD MSTORE DUP3 PUSH1 0xA0 DUP3 ADD MSTORE PUSH1 0x0 PUSH1 0xC0 DUP3 ADD MSTORE PUSH1 0x0 PUSH1 0xE0 DUP3 ADD MSTORE PUSH1 0x0 PUSH2 0x100 DUP3 ADD MSTORE PUSH1 0x0 PUSH2 0x120 DUP3 ADD MSTORE ADD MSTORE PUSH1 0x40 MLOAD PUSH2 0x1699 DUP3 MLOAD SWAP2 PUSH1 0x20 DUP2 DUP2 DUP7 ADD SWAP5 PUSH2 0x1689 DUP2 DUP4 DUP9 PUSH2 0x1D7E JUMP JUMPDEST DUP2 ADD PUSH1 0x3 DUP2 MSTORE SUB ADD SWAP1 KECCAK256 SLOAD PUSH2 0x1E70 JUMP JUMPDEST ISZERO PUSH2 0x1A0A JUMPI PUSH1 0x40 MLOAD PUSH1 0x20 DUP2 DUP5 MLOAD PUSH2 0x16B1 DUP2 DUP4 DUP8 PUSH2 0x1D7E JUMP JUMPDEST DUP2 ADD PUSH1 0x3 DUP2 MSTORE SUB ADD SWAP1 KECCAK256 PUSH1 0x40 MLOAD SWAP2 PUSH2 0x16C8 DUP4 PUSH2 0x1CEB JUMP JUMPDEST PUSH1 0x40 MLOAD PUSH2 0x16D9 DUP2 PUSH2 0x13E DUP2 DUP7 PUSH2 0x1EAA JUMP JUMPDEST DUP4 MSTORE PUSH1 0x40 MLOAD PUSH2 0x16EF DUP2 PUSH2 0x13E DUP2 PUSH1 0x1 DUP8 ADD PUSH2 0x1EAA JUMP JUMPDEST PUSH1 0x20 DUP5 ADD MSTORE PUSH1 0x40 MLOAD PUSH2 0x1708 DUP2 PUSH2 0x13E DUP2 PUSH1 0x2 DUP8 ADD PUSH2 0x1EAA JUMP JUMPDEST PUSH1 0x40 DUP5 ADD MSTORE PUSH2 0x1719 PUSH1 0x3 DUP4 ADD PUSH2 0x21B7 JUMP JUMPDEST PUSH1 0x60 DUP5 ADD MSTORE PUSH1 0x40 MLOAD PUSH2 0x1732 DUP2 PUSH2 0x13E DUP2 PUSH1 0x4 DUP8 ADD PUSH2 0x1EAA JUMP JUMPDEST PUSH1 0x80 DUP5 ADD MSTORE PUSH2 0x1743 PUSH1 0x5 DUP4 ADD PUSH2 0x21B7 JUMP JUMPDEST PUSH1 0xA0 DUP5 ADD MSTORE PUSH1 0xFF PUSH1 0x6 DUP4 ADD SLOAD PUSH2 0x175E DUP3 DUP3 AND PUSH1 0xC0 DUP8 ADD PUSH2 0x2217 JUMP JUMPDEST PUSH1 0x8 SHR AND SWAP2 PUSH1 0x3 DUP4 LT ISZERO PUSH2 0x3BB JUMPI PUSH2 0x140 SWAP5 PUSH2 0x18AA PUSH2 0x19E9 PUSH2 0x1850 PUSH2 0x19DB PUSH2 0x18C7 SWAP7 PUSH1 0x9 PUSH2 0x17BA PUSH2 0x19FC SWAP9 PUSH2 0x159 SWAP12 PUSH1 0xE0 DUP15 ADD MSTORE DUP13 PUSH2 0x100 PUSH1 0x7 DUP4 ADD SLOAD SWAP2 ADD MSTORE DUP13 PUSH2 0x120 PUSH1 0x8 DUP4 ADD SLOAD SWAP2 ADD MSTORE PUSH2 0x13E PUSH1 0x40 MLOAD DUP1 SWAP5 DUP2 SWAP4 ADD PUSH2 0x1EAA JUMP JUMPDEST DUP12 DUP12 ADD MSTORE PUSH2 0x181D PUSH2 0x18CE PUSH2 0x18B1 PUSH1 0x20 PUSH1 0x40 MLOAD DUP11 MLOAD PUSH2 0x17D9 DUP2 DUP4 DUP10 PUSH2 0x1D7E JUMP JUMPDEST DUP2 ADD SWAP1 PUSH1 0x7 DUP3 MSTORE DUP3 DUP2 PUSH1 0x1 DUP1 PUSH1 0xA0 SHL SUB SWAP4 SUB ADD SWAP1 KECCAK256 SLOAD AND SWAP5 PUSH2 0x1824 DUP12 DUP4 PUSH1 0x40 MLOAD DUP1 SWAP3 MLOAD PUSH2 0x1807 DUP2 DUP4 DUP9 PUSH2 0x1D7E JUMP JUMPDEST DUP2 ADD PUSH1 0x8 DUP2 MSTORE SUB ADD SWAP1 KECCAK256 PUSH1 0x40 MLOAD SWAP7 DUP8 DUP1 SWAP3 PUSH2 0x1EAA JUMP JUMPDEST SUB DUP7 PUSH2 0x1D07 JUMP JUMPDEST PUSH2 0x1857 DUP12 DUP4 PUSH1 0x40 MLOAD DUP1 SWAP3 MLOAD PUSH2 0x183A DUP2 DUP4 DUP9 PUSH2 0x1D7E JUMP JUMPDEST DUP2 ADD PUSH1 0x9 DUP2 MSTORE SUB ADD SWAP1 KECCAK256 PUSH1 0x40 MLOAD SWAP10 DUP11 DUP1 SWAP3 PUSH2 0x1EAA JUMP JUMPDEST SUB DUP10 PUSH2 0x1D07 JUMP JUMPDEST PUSH1 0x40 MLOAD DUP12 MLOAD PUSH2 0x1867 DUP2 DUP4 DUP6 PUSH2 0x1D7E JUMP JUMPDEST DUP2 ADD SWAP1 PUSH1 0x4 DUP3 MSTORE DUP4 DUP2 PUSH1 0x1 DUP1 PUSH1 0xA0 SHL SUB SWAP4 SUB ADD SWAP1 KECCAK256 SLOAD AND SWAP11 PUSH2 0x6E9 PUSH1 0x40 MLOAD DUP5 DUP2 DUP5 MLOAD PUSH2 0x1894 DUP2 DUP4 DUP10 PUSH2 0x1D7E JUMP JUMPDEST DUP2 ADD PUSH1 0x5 DUP2 MSTORE SUB ADD SWAP1 KECCAK256 PUSH1 0x40 MLOAD SWAP13 DUP14 DUP1 SWAP3 PUSH2 0x1EAA JUMP JUMPDEST SUB DUP13 PUSH2 0x1D07 JUMP JUMPDEST DUP2 ADD PUSH1 0x6 DUP2 MSTORE SUB ADD SWAP1 KECCAK256 PUSH1 0x40 MLOAD SWAP11 DUP12 DUP1 SWAP3 PUSH2 0x1EAA JUMP JUMPDEST SUB DUP11 PUSH2 0x1D07 JUMP JUMPDEST PUSH2 0x19C8 PUSH1 0x40 MLOAD DUP1 SWAP14 DUP2 SWAP14 PUSH1 0xE0 DUP4 MSTORE PUSH2 0x1974 PUSH2 0x195D PUSH2 0x1946 PUSH2 0x1931 PUSH2 0x191A PUSH2 0x1903 DUP7 MLOAD PUSH2 0x160 PUSH1 0xE0 DUP12 ADD MSTORE PUSH2 0x240 DUP11 ADD SWAP1 PUSH2 0x1DA1 JUMP JUMPDEST PUSH1 0x20 DUP8 ADD MLOAD DUP10 DUP3 SUB PUSH1 0xDF NOT ADD PUSH2 0x100 DUP12 ADD MSTORE PUSH2 0x1DA1 JUMP JUMPDEST PUSH1 0x40 DUP7 ADD MLOAD DUP9 DUP3 SUB PUSH1 0xDF NOT ADD PUSH2 0x120 DUP11 ADD MSTORE PUSH2 0x1DA1 JUMP JUMPDEST PUSH1 0x60 DUP6 ADD MLOAD DUP8 DUP3 SUB PUSH1 0xDF NOT ADD DUP8 DUP10 ADD MSTORE PUSH2 0x1DC6 JUMP JUMPDEST PUSH1 0x80 DUP5 ADD MLOAD DUP7 DUP3 SUB PUSH1 0xDF NOT ADD PUSH2 0x160 DUP9 ADD MSTORE PUSH2 0x1DA1 JUMP JUMPDEST PUSH1 0xA0 DUP4 ADD MLOAD DUP6 DUP3 SUB PUSH1 0xDF NOT ADD PUSH2 0x180 DUP8 ADD MSTORE PUSH2 0x1DC6 JUMP JUMPDEST SWAP3 PUSH2 0x1988 PUSH1 0xC0 DUP4 ADD MLOAD PUSH2 0x1A0 DUP4 ADD SWAP1 PUSH2 0x1E56 JUMP JUMPDEST PUSH2 0x199B PUSH1 0xE0 DUP4 ADD MLOAD PUSH2 0x1C0 DUP4 ADD SWAP1 PUSH2 0x1E63 JUMP JUMPDEST PUSH2 0x100 DUP3 ADD MLOAD PUSH2 0x1E0 DUP3 ADD MSTORE PUSH2 0x120 DUP3 ADD MLOAD PUSH2 0x200 SWAP1 SWAP2 ADD MSTORE ADD MLOAD DUP14 DUP3 SUB PUSH1 0xDF NOT ADD PUSH2 0x220 DUP16 ADD MSTORE PUSH2 0x1DA1 JUMP JUMPDEST SWAP2 PUSH1 0x20 DUP13 ADD MSTORE DUP11 DUP3 SUB PUSH1 0x40 DUP13 ADD MSTORE PUSH2 0x1DA1 JUMP JUMPDEST SWAP1 DUP9 DUP3 SUB PUSH1 0x60 DUP11 ADD MSTORE PUSH2 0x1DA1 JUMP JUMPDEST SWAP2 PUSH1 0x80 DUP8 ADD MSTORE DUP6 DUP3 SUB PUSH1 0xA0 DUP8 ADD MSTORE PUSH2 0x1DA1 JUMP JUMPDEST SWAP1 DUP4 DUP3 SUB PUSH1 0xC0 DUP6 ADD MSTORE PUSH2 0x1DA1 JUMP JUMPDEST PUSH1 0x40 MLOAD PUSH3 0x461BCD PUSH1 0xE5 SHL DUP2 MSTORE PUSH1 0x20 PUSH1 0x4 DUP3 ADD MSTORE PUSH1 0x1B PUSH1 0x24 DUP3 ADD MSTORE PUSH32 0x4E6F206461746120666F756E64207769746820746869732049442E0000000000 PUSH1 0x44 DUP3 ADD MSTORE PUSH1 0x64 SWAP1 REVERT JUMPDEST CALLVALUE PUSH2 0x15D JUMPI PUSH1 0x20 CALLDATASIZE PUSH1 0x3 NOT ADD SLT PUSH2 0x15D JUMPI PUSH1 0x4 CALLDATALOAD PUSH1 0x1 PUSH1 0x1 PUSH1 0x40 SHL SUB DUP2 GT PUSH2 0x15D JUMPI PUSH2 0x1A7F SWAP1 CALLDATASIZE SWAP1 PUSH1 0x4 ADD PUSH2 0x1D28 JUMP JUMPDEST PUSH1 0x1 SLOAD PUSH1 0x20 DUP3 ADD SWAP2 PUSH1 0x0 DUP1 JUMPDEST DUP4 DUP2 LT PUSH2 0x1C13 JUMPI POP PUSH2 0x1A9C DUP2 PUSH2 0x2127 JUMP JUMPDEST SWAP3 PUSH2 0x1AA6 DUP3 PUSH2 0x2127 JUMP JUMPDEST SWAP1 PUSH2 0x1AB9 PUSH2 0x1AB3 DUP5 PUSH2 0x2171 JUMP JUMPDEST SWAP4 PUSH2 0x2171 JUMP JUMPDEST SWAP4 PUSH1 0x0 SWAP7 DUP8 JUMPDEST DUP4 DUP2 LT PUSH2 0x1B14 JUMPI PUSH2 0x1AEA DUP9 PUSH2 0x159 DUP10 PUSH2 0x1B06 DUP11 PUSH2 0x1AF8 DUP12 PUSH1 0x40 MLOAD SWAP8 DUP9 SWAP8 PUSH1 0x80 DUP10 MSTORE PUSH1 0x80 DUP10 ADD SWAP1 PUSH2 0x1DC6 JUMP JUMPDEST SWAP1 DUP8 DUP3 SUB PUSH1 0x20 DUP10 ADD MSTORE PUSH2 0x1DC6 JUMP JUMPDEST SWAP1 DUP6 DUP3 SUB PUSH1 0x40 DUP8 ADD MSTORE PUSH2 0x1E1F JUMP JUMPDEST SWAP1 DUP4 DUP3 SUB PUSH1 0x60 DUP6 ADD MSTORE PUSH2 0x1E1F JUMP JUMPDEST PUSH2 0x1B22 PUSH1 0x20 PUSH2 0x30C DUP4 PUSH2 0x1FCA JUMP JUMPDEST PUSH1 0x8 DUP2 MSTORE SUB ADD SWAP1 KECCAK256 PUSH1 0x40 MLOAD PUSH2 0x1B3F DUP2 PUSH2 0xA61 PUSH1 0x20 DUP3 ADD DUP1 SWAP6 PUSH2 0x2094 JUMP JUMPDEST MLOAD SWAP1 KECCAK256 PUSH1 0x40 MLOAD PUSH1 0x20 DUP2 ADD SWAP1 PUSH2 0x1B5D PUSH1 0x20 DUP3 DUP9 MLOAD PUSH2 0xA8D DUP2 DUP8 DUP12 PUSH2 0x1D7E JUMP JUMPDEST MLOAD SWAP1 KECCAK256 EQ PUSH2 0x1B6E JUMPI JUMPDEST PUSH1 0x1 ADD PUSH2 0x1ABF JUMP JUMPDEST SWAP8 PUSH2 0x13E PUSH2 0x1B7E PUSH2 0x2A0 DUP12 PUSH2 0x1FCA JUMP JUMPDEST PUSH2 0x1B88 DUP3 DUP11 PUSH2 0x21A3 JUMP JUMPDEST MSTORE PUSH2 0x1B93 DUP2 DUP10 PUSH2 0x21A3 JUMP JUMPDEST POP PUSH1 0x2 PUSH2 0x1BA2 PUSH2 0x2D1 DUP12 PUSH2 0x1FCA JUMP JUMPDEST PUSH2 0x1BAC DUP3 DUP8 PUSH2 0x21A3 JUMP JUMPDEST MSTORE PUSH2 0x1BB7 DUP2 DUP7 PUSH2 0x21A3 JUMP JUMPDEST POP PUSH1 0xFF PUSH1 0x6 PUSH2 0x1BC5 DUP12 PUSH2 0x1FCA JUMP JUMPDEST POP ADD SLOAD PUSH1 0x8 SHR AND PUSH1 0x3 DUP2 LT ISZERO PUSH2 0x3BB JUMPI PUSH2 0x1BDF DUP3 DUP9 PUSH2 0x21A3 JUMP JUMPDEST MSTORE PUSH1 0xFF PUSH1 0x6 PUSH2 0x1BED DUP12 PUSH2 0x1FCA JUMP JUMPDEST POP ADD SLOAD AND PUSH1 0x2 DUP2 LT ISZERO PUSH2 0x3BB JUMPI DUP2 PUSH2 0x1C0B SWAP2 PUSH2 0x3AD PUSH1 0x1 SWAP5 DUP12 PUSH2 0x21A3 JUMP JUMPDEST SWAP9 SWAP1 POP PUSH2 0x1B66 JUMP JUMPDEST PUSH2 0x1C21 PUSH1 0x20 PUSH2 0x30C DUP4 PUSH2 0x1FCA JUMP JUMPDEST PUSH1 0x8 DUP2 MSTORE SUB ADD SWAP1 KECCAK256 PUSH1 0x40 MLOAD PUSH2 0x1C3E DUP2 PUSH2 0xA61 PUSH1 0x20 DUP3 ADD DUP1 SWAP6 PUSH2 0x2094 JUMP JUMPDEST MLOAD SWAP1 KECCAK256 PUSH1 0x40 MLOAD PUSH1 0x20 DUP2 ADD SWAP1 PUSH2 0x1C5E PUSH1 0x20 DUP3 DUP5 PUSH2 0xA8D DUP13 DUP12 MLOAD SWAP3 DUP4 SWAP2 PUSH2 0x1D7E JUMP JUMPDEST MLOAD SWAP1 KECCAK256 EQ PUSH2 0x1C6F JUMPI JUMPDEST PUSH1 0x1 ADD PUSH2 0x1A8B JUMP JUMPDEST SWAP1 PUSH2 0x1C7B PUSH1 0x1 SWAP2 PUSH2 0x2102 JUMP JUMPDEST SWAP2 SWAP1 POP PUSH2 0x1C67 JUMP JUMPDEST CALLVALUE PUSH2 0x15D JUMPI PUSH1 0x20 CALLDATASIZE PUSH1 0x3 NOT ADD SLT PUSH2 0x15D JUMPI PUSH1 0x4 CALLDATALOAD PUSH1 0x1 PUSH1 0x1 PUSH1 0x40 SHL SUB DUP2 GT PUSH2 0x15D JUMPI PUSH2 0x1CB5 PUSH1 0x20 SWAP2 CALLDATASIZE SWAP1 PUSH1 0x4 ADD PUSH2 0x1D28 JUMP JUMPDEST DUP2 PUSH2 0x1CC9 PUSH1 0x40 MLOAD SWAP3 DUP4 DUP2 MLOAD SWAP4 DUP5 SWAP3 ADD PUSH2 0x1D7E JUMP JUMPDEST PUSH1 0x4 SWAP1 DUP3 ADD SWAP1 DUP2 MSTORE DUP2 SWAP1 SUB DUP3 ADD SWAP1 KECCAK256 SLOAD PUSH1 0x40 MLOAD PUSH1 0x1 PUSH1 0x1 PUSH1 0xA0 SHL SUB SWAP1 SWAP2 AND DUP2 MSTORE RETURN JUMPDEST PUSH2 0x160 DUP2 ADD SWAP1 DUP2 LT PUSH1 0x1 PUSH1 0x1 PUSH1 0x40 SHL SUB DUP3 GT OR PUSH2 0x8C3 JUMPI PUSH1 0x40 MSTORE JUMP JUMPDEST SWAP1 PUSH1 0x1F DUP1 NOT SWAP2 ADD AND DUP2 ADD SWAP1 DUP2 LT PUSH1 0x1 PUSH1 0x1 PUSH1 0x40 SHL SUB DUP3 GT OR PUSH2 0x8C3 JUMPI PUSH1 0x40 MSTORE JUMP JUMPDEST DUP2 PUSH1 0x1F DUP3 ADD SLT ISZERO PUSH2 0x15D JUMPI DUP1 CALLDATALOAD SWAP1 PUSH1 0x1 PUSH1 0x1 PUSH1 0x40 SHL SUB DUP3 GT PUSH2 0x8C3 JUMPI PUSH1 0x40 MLOAD SWAP3 PUSH2 0x1D5C PUSH1 0x1F DUP5 ADD PUSH1 0x1F NOT AND PUSH1 0x20 ADD DUP6 PUSH2 0x1D07 JUMP JUMPDEST DUP3 DUP5 MSTORE PUSH1 0x20 DUP4 DUP4 ADD ADD GT PUSH2 0x15D JUMPI DUP2 PUSH1 0x0 SWAP3 PUSH1 0x20 DUP1 SWAP4 ADD DUP4 DUP7 ADD CALLDATACOPY DUP4 ADD ADD MSTORE SWAP1 JUMP JUMPDEST PUSH1 0x0 JUMPDEST DUP4 DUP2 LT PUSH2 0x1D91 JUMPI POP POP PUSH1 0x0 SWAP2 ADD MSTORE JUMP JUMPDEST DUP2 DUP2 ADD MLOAD DUP4 DUP3 ADD MSTORE PUSH1 0x20 ADD PUSH2 0x1D81 JUMP JUMPDEST SWAP1 PUSH1 0x20 SWAP2 PUSH2 0x1DBA DUP2 MLOAD DUP1 SWAP3 DUP2 DUP6 MSTORE DUP6 DUP1 DUP7 ADD SWAP2 ADD PUSH2 0x1D7E JUMP JUMPDEST PUSH1 0x1F ADD PUSH1 0x1F NOT AND ADD ADD SWAP1 JUMP JUMPDEST SWAP1 DUP1 PUSH1 0x20 DUP4 MLOAD SWAP2 DUP3 DUP2 MSTORE ADD SWAP2 PUSH1 0x20 DUP1 DUP4 PUSH1 0x5 SHL DUP4 ADD ADD SWAP5 ADD SWAP3 PUSH1 0x0 SWAP2 JUMPDEST DUP4 DUP4 LT PUSH2 0x1DF2 JUMPI POP POP POP POP POP SWAP1 JUMP JUMPDEST SWAP1 SWAP2 SWAP3 SWAP4 SWAP5 PUSH1 0x20 DUP1 PUSH2 0x1E10 PUSH1 0x1 SWAP4 PUSH1 0x1F NOT DUP7 DUP3 SUB ADD DUP8 MSTORE DUP10 MLOAD PUSH2 0x1DA1 JUMP JUMPDEST SWAP8 ADD SWAP4 ADD SWAP4 ADD SWAP2 SWAP4 SWAP3 SWAP1 PUSH2 0x1DE3 JUMP JUMPDEST SWAP1 PUSH1 0x20 DUP1 DUP4 MLOAD SWAP3 DUP4 DUP2 MSTORE ADD SWAP3 ADD SWAP1 PUSH1 0x0 JUMPDEST DUP2 DUP2 LT PUSH2 0x1E3D JUMPI POP POP POP SWAP1 JUMP JUMPDEST DUP3 MLOAD PUSH1 0xFF AND DUP5 MSTORE PUSH1 0x20 SWAP4 DUP5 ADD SWAP4 SWAP1 SWAP3 ADD SWAP2 PUSH1 0x1 ADD PUSH2 0x1E30 JUMP JUMPDEST SWAP1 PUSH1 0x2 DUP3 LT ISZERO PUSH2 0x3BB JUMPI MSTORE JUMP JUMPDEST SWAP1 PUSH1 0x3 DUP3 LT ISZERO PUSH2 0x3BB JUMPI MSTORE JUMP JUMPDEST SWAP1 PUSH1 0x1 DUP3 DUP2 SHR SWAP3 AND DUP1 ISZERO PUSH2 0x1EA0 JUMPI JUMPDEST PUSH1 0x20 DUP4 LT EQ PUSH2 0x1E8A JUMPI JUMP JUMPDEST PUSH4 0x4E487B71 PUSH1 0xE0 SHL PUSH1 0x0 MSTORE PUSH1 0x22 PUSH1 0x4 MSTORE PUSH1 0x24 PUSH1 0x0 REVERT JUMPDEST SWAP2 PUSH1 0x7F AND SWAP2 PUSH2 0x1E7F JUMP JUMPDEST PUSH1 0x0 SWAP3 SWAP2 DUP2 SLOAD SWAP2 PUSH2 0x1EBA DUP4 PUSH2 0x1E70 JUMP JUMPDEST DUP1 DUP4 MSTORE SWAP3 PUSH1 0x1 DUP2 AND SWAP1 DUP2 ISZERO PUSH2 0x1F10 JUMPI POP PUSH1 0x1 EQ PUSH2 0x1ED6 JUMPI POP POP POP JUMP JUMPDEST PUSH1 0x0 SWAP1 DUP2 MSTORE PUSH1 0x20 DUP2 KECCAK256 SWAP4 SWAP5 POP SWAP2 SWAP3 JUMPDEST DUP4 DUP4 LT PUSH2 0x1EF6 JUMPI POP PUSH1 0x20 SWAP3 POP ADD ADD SWAP1 JUMP JUMPDEST PUSH1 0x1 DUP2 PUSH1 0x20 SWAP3 SWAP5 SWAP4 SWAP5 SLOAD DUP4 DUP6 DUP8 ADD ADD MSTORE ADD SWAP2 ADD SWAP2 SWAP1 PUSH2 0x1EE5 JUMP JUMPDEST SWAP2 POP POP PUSH1 0x20 SWAP4 SWAP5 POP PUSH1 0xFF SWAP3 SWAP2 SWAP3 NOT AND DUP4 DUP4 ADD MSTORE ISZERO ISZERO PUSH1 0x5 SHL ADD ADD SWAP1 JUMP JUMPDEST SWAP6 SWAP2 PUSH2 0x1FA4 SWAP10 SWAP8 SWAP5 PUSH2 0x19DB PUSH2 0x1F8C SWAP6 PUSH2 0x1F69 PUSH2 0x1F77 SWAP5 PUSH2 0x1F5B PUSH2 0x1F82 SWAP8 SWAP12 SWAP15 SWAP12 PUSH2 0x120 DUP15 DUP2 DUP2 MSTORE ADD SWAP1 PUSH2 0x1DA1 JUMP JUMPDEST DUP13 DUP2 SUB PUSH1 0x20 DUP15 ADD MSTORE SWAP1 PUSH2 0x1DA1 JUMP JUMPDEST SWAP1 DUP11 DUP3 SUB PUSH1 0x40 DUP13 ADD MSTORE PUSH2 0x1DA1 JUMP JUMPDEST SWAP8 PUSH1 0x80 DUP8 ADD SWAP1 PUSH2 0x1E56 JUMP JUMPDEST PUSH1 0xA0 DUP6 ADD SWAP1 PUSH2 0x1E63 JUMP JUMPDEST PUSH1 0xC0 DUP4 ADD MSTORE PUSH1 0xE0 DUP3 ADD MSTORE PUSH2 0x100 DUP2 DUP5 SUB SWAP2 ADD MSTORE PUSH2 0x1DA1 JUMP JUMPDEST SWAP1 JUMP JUMPDEST PUSH1 0x4 CALLDATALOAD SWAP1 PUSH1 0x1 PUSH1 0x1 PUSH1 0xA0 SHL SUB DUP3 AND DUP3 SUB PUSH2 0x15D JUMPI JUMP JUMPDEST SWAP1 PUSH1 0x4 DUP3 LT ISZERO PUSH2 0x3BB JUMPI MSTORE JUMP JUMPDEST PUSH1 0x1 SLOAD DUP2 LT ISZERO PUSH2 0x1FE9 JUMPI PUSH1 0x1 PUSH1 0x0 MSTORE PUSH1 0xA PUSH1 0x20 PUSH1 0x0 KECCAK256 SWAP2 MUL ADD SWAP1 PUSH1 0x0 SWAP1 JUMP JUMPDEST PUSH4 0x4E487B71 PUSH1 0xE0 SHL PUSH1 0x0 MSTORE PUSH1 0x32 PUSH1 0x4 MSTORE PUSH1 0x24 PUSH1 0x0 REVERT JUMPDEST PUSH1 0x1 PUSH1 0x1 PUSH1 0x40 SHL SUB DUP2 GT PUSH2 0x8C3 JUMPI PUSH1 0x5 SHL PUSH1 0x20 ADD SWAP1 JUMP JUMPDEST SWAP1 DUP1 PUSH1 0x1F DUP4 ADD SLT ISZERO PUSH2 0x15D JUMPI DUP2 CALLDATALOAD PUSH2 0x202D DUP2 PUSH2 0x1FFF JUMP JUMPDEST SWAP3 PUSH2 0x203B PUSH1 0x40 MLOAD SWAP5 DUP6 PUSH2 0x1D07 JUMP JUMPDEST DUP2 DUP5 MSTORE PUSH1 0x20 DUP1 DUP6 ADD SWAP3 PUSH1 0x5 SHL DUP3 ADD ADD SWAP2 DUP4 DUP4 GT PUSH2 0x15D JUMPI PUSH1 0x20 DUP3 ADD SWAP1 JUMPDEST DUP4 DUP3 LT PUSH2 0x2067 JUMPI POP POP POP POP POP SWAP1 JUMP JUMPDEST DUP2 CALLDATALOAD PUSH1 0x1 PUSH1 0x1 PUSH1 0x40 SHL SUB DUP2 GT PUSH2 0x15D JUMPI PUSH1 0x20 SWAP2 PUSH2 0x2089 DUP8 DUP5 DUP1 SWAP5 DUP9 ADD ADD PUSH2 0x1D28 JUMP JUMPDEST DUP2 MSTORE ADD SWAP2 ADD SWAP1 PUSH2 0x2058 JUMP JUMPDEST PUSH1 0x0 SWAP3 SWAP2 DUP2 SLOAD SWAP2 PUSH2 0x20A4 DUP4 PUSH2 0x1E70 JUMP JUMPDEST SWAP3 PUSH1 0x1 DUP2 AND SWAP1 DUP2 ISZERO PUSH2 0x20EF JUMPI POP PUSH1 0x1 EQ PUSH2 0x20BD JUMPI POP POP POP JUMP JUMPDEST SWAP1 SWAP2 SWAP3 SWAP4 POP PUSH1 0x0 MSTORE PUSH1 0x20 PUSH1 0x0 KECCAK256 PUSH1 0x0 SWAP1 JUMPDEST DUP4 DUP3 LT PUSH2 0x20DB JUMPI POP POP ADD SWAP1 JUMP JUMPDEST PUSH1 0x1 DUP2 PUSH1 0x20 SWAP3 SLOAD DUP5 DUP7 ADD MSTORE ADD SWAP2 ADD SWAP1 PUSH2 0x20CE JUMP JUMPDEST PUSH1 0xFF NOT AND DUP4 MSTORE POP POP DUP2 ISZERO ISZERO SWAP1 SWAP2 MUL ADD SWAP2 POP JUMP JUMPDEST PUSH1 0x0 NOT DUP2 EQ PUSH2 0x2111 JUMPI PUSH1 0x1 ADD SWAP1 JUMP JUMPDEST PUSH4 0x4E487B71 PUSH1 0xE0 SHL PUSH1 0x0 MSTORE PUSH1 0x11 PUSH1 0x4 MSTORE PUSH1 0x24 PUSH1 0x0 REVERT JUMPDEST SWAP1 PUSH2 0x2131 DUP3 PUSH2 0x1FFF JUMP JUMPDEST PUSH2 0x213E PUSH1 0x40 MLOAD SWAP2 DUP3 PUSH2 0x1D07 JUMP JUMPDEST DUP3 DUP2 MSTORE DUP1 SWAP3 PUSH2 0x214F PUSH1 0x1F NOT SWAP2 PUSH2 0x1FFF JUMP JUMPDEST ADD SWAP1 PUSH1 0x0 JUMPDEST DUP3 DUP2 LT PUSH2 0x2160 JUMPI POP POP POP JUMP JUMPDEST DUP1 PUSH1 0x60 PUSH1 0x20 DUP1 SWAP4 DUP6 ADD ADD MSTORE ADD PUSH2 0x2154 JUMP JUMPDEST SWAP1 PUSH2 0x217B DUP3 PUSH2 0x1FFF JUMP JUMPDEST PUSH2 0x2188 PUSH1 0x40 MLOAD SWAP2 DUP3 PUSH2 0x1D07 JUMP JUMPDEST DUP3 DUP2 MSTORE DUP1 SWAP3 PUSH2 0x2199 PUSH1 0x1F NOT SWAP2 PUSH2 0x1FFF JUMP JUMPDEST ADD SWAP1 PUSH1 0x20 CALLDATASIZE SWAP2 ADD CALLDATACOPY JUMP JUMPDEST DUP1 MLOAD DUP3 LT ISZERO PUSH2 0x1FE9 JUMPI PUSH1 0x20 SWAP2 PUSH1 0x5 SHL ADD ADD SWAP1 JUMP JUMPDEST SWAP1 DUP2 SLOAD PUSH2 0x21C3 DUP2 PUSH2 0x1FFF JUMP JUMPDEST SWAP3 PUSH2 0x21D1 PUSH1 0x40 MLOAD SWAP5 DUP6 PUSH2 0x1D07 JUMP JUMPDEST DUP2 DUP5 MSTORE PUSH1 0x20 DUP5 ADD SWAP1 PUSH1 0x0 MSTORE PUSH1 0x20 PUSH1 0x0 KECCAK256 PUSH1 0x0 SWAP2 JUMPDEST DUP4 DUP4 LT PUSH2 0x21F2 JUMPI POP POP POP POP JUMP JUMPDEST PUSH1 0x1 PUSH1 0x20 DUP2 SWAP3 PUSH1 0x40 MLOAD PUSH2 0x2209 DUP2 PUSH2 0x13E DUP2 DUP10 PUSH2 0x1EAA JUMP JUMPDEST DUP2 MSTORE ADD SWAP3 ADD SWAP3 ADD SWAP2 SWAP1 PUSH2 0x21E5 JUMP JUMPDEST PUSH1 0x2 DUP3 LT ISZERO PUSH2 0x3BB JUMPI MSTORE JUMP JUMPDEST DUP2 DUP2 LT PUSH2 0x222E JUMPI POP POP JUMP JUMPDEST PUSH1 0x0 DUP2 SSTORE PUSH1 0x1 ADD PUSH2 0x2223 JUMP JUMPDEST ISZERO PUSH2 0x2241 JUMPI JUMP JUMPDEST PUSH1 0x40 MLOAD PUSH3 0x461BCD PUSH1 0xE5 SHL DUP2 MSTORE PUSH1 0x20 PUSH1 0x4 DUP3 ADD MSTORE PUSH1 0x21 PUSH1 0x24 DUP3 ADD MSTORE PUSH32 0x416363657373207265737472696374656420746F20466163746F727920726F6C PUSH1 0x44 DUP3 ADD MSTORE PUSH1 0x65 PUSH1 0xF8 SHL PUSH1 0x64 DUP3 ADD MSTORE PUSH1 0x84 SWAP1 REVERT JUMPDEST SWAP1 SWAP2 DUP3 MLOAD SWAP3 DUP4 MLOAD PUSH1 0x1 PUSH1 0x1 PUSH1 0x40 SHL SUB DUP2 GT PUSH2 0x8C3 JUMPI PUSH2 0x22AF DUP5 SLOAD PUSH2 0x1E70 JUMP JUMPDEST PUSH1 0x1F DUP2 GT PUSH2 0x2B59 JUMPI JUMPDEST POP PUSH1 0x20 SWAP5 PUSH1 0x1F DUP3 GT PUSH1 0x1 EQ PUSH2 0x2AF4 JUMPI PUSH2 0x22EC SWAP3 SWAP4 SWAP5 SWAP6 DUP3 SWAP2 PUSH1 0x0 SWAP3 PUSH2 0x2552 JUMPI POP POP DUP2 PUSH1 0x1 SHL SWAP2 PUSH1 0x0 NOT SWAP1 PUSH1 0x3 SHL SHR NOT AND OR SWAP1 JUMP JUMPDEST DUP4 SSTORE JUMPDEST PUSH1 0x1 DUP4 ADD PUSH1 0x20 DUP3 ADD MLOAD DUP1 MLOAD SWAP1 PUSH1 0x1 PUSH1 0x1 PUSH1 0x40 SHL SUB DUP3 GT PUSH2 0x8C3 JUMPI PUSH2 0x2313 DUP4 SLOAD PUSH2 0x1E70 JUMP JUMPDEST PUSH1 0x1F DUP2 GT PUSH2 0x2AC2 JUMPI JUMPDEST POP PUSH1 0x20 SWAP1 PUSH1 0x1F DUP4 GT PUSH1 0x1 EQ PUSH2 0x2A5B JUMPI PUSH2 0x234D SWAP3 SWAP2 PUSH1 0x0 SWAP2 DUP4 PUSH2 0x2552 JUMPI POP POP DUP2 PUSH1 0x1 SHL SWAP2 PUSH1 0x0 NOT SWAP1 PUSH1 0x3 SHL SHR NOT AND OR SWAP1 JUMP JUMPDEST SWAP1 SSTORE JUMPDEST PUSH1 0x2 DUP4 ADD PUSH1 0x40 DUP3 ADD MLOAD DUP1 MLOAD SWAP1 PUSH1 0x1 PUSH1 0x1 PUSH1 0x40 SHL SUB DUP3 GT PUSH2 0x8C3 JUMPI PUSH2 0x2374 DUP4 SLOAD PUSH2 0x1E70 JUMP JUMPDEST PUSH1 0x1F DUP2 GT PUSH2 0x2A29 JUMPI JUMPDEST POP PUSH1 0x20 SWAP1 PUSH1 0x1F DUP4 GT PUSH1 0x1 EQ PUSH2 0x29C2 JUMPI PUSH2 0x23AE SWAP3 SWAP2 PUSH1 0x0 SWAP2 DUP4 PUSH2 0x2552 JUMPI POP POP DUP2 PUSH1 0x1 SHL SWAP2 PUSH1 0x0 NOT SWAP1 PUSH1 0x3 SHL SHR NOT AND OR SWAP1 JUMP JUMPDEST SWAP1 SSTORE JUMPDEST PUSH1 0x3 DUP4 ADD PUSH1 0x60 DUP3 ADD MLOAD DUP1 MLOAD SWAP1 PUSH1 0x1 PUSH1 0x40 SHL DUP3 GT PUSH2 0x8C3 JUMPI DUP3 SLOAD DUP3 DUP5 SSTORE DUP1 DUP4 LT PUSH2 0x2944 JUMPI JUMPDEST POP PUSH1 0x20 ADD SWAP2 PUSH1 0x0 MSTORE PUSH1 0x20 PUSH1 0x0 KECCAK256 SWAP2 PUSH1 0x0 SWAP1 JUMPDEST DUP3 DUP3 LT PUSH2 0x2837 JUMPI POP POP POP POP PUSH1 0x4 DUP4 ADD PUSH1 0x80 DUP3 ADD MLOAD DUP1 MLOAD SWAP1 PUSH1 0x1 PUSH1 0x1 PUSH1 0x40 SHL SUB DUP3 GT PUSH2 0x8C3 JUMPI PUSH2 0x2416 DUP4 SLOAD PUSH2 0x1E70 JUMP JUMPDEST PUSH1 0x1F DUP2 GT PUSH2 0x2805 JUMPI JUMPDEST POP PUSH1 0x20 SWAP1 PUSH1 0x1F DUP4 GT PUSH1 0x1 EQ PUSH2 0x279E JUMPI PUSH2 0x2450 SWAP3 SWAP2 PUSH1 0x0 SWAP2 DUP4 PUSH2 0x2552 JUMPI POP POP DUP2 PUSH1 0x1 SHL SWAP2 PUSH1 0x0 NOT SWAP1 PUSH1 0x3 SHL SHR NOT AND OR SWAP1 JUMP JUMPDEST SWAP1 SSTORE JUMPDEST PUSH1 0x5 DUP4 ADD PUSH1 0xA0 DUP3 ADD MLOAD DUP1 MLOAD SWAP1 PUSH1 0x1 PUSH1 0x40 SHL DUP3 GT PUSH2 0x8C3 JUMPI DUP3 SLOAD DUP3 DUP5 SSTORE DUP1 DUP4 LT PUSH2 0x2720 JUMPI JUMPDEST POP PUSH1 0x20 ADD SWAP2 PUSH1 0x0 MSTORE PUSH1 0x20 PUSH1 0x0 KECCAK256 SWAP2 PUSH1 0x0 SWAP1 JUMPDEST DUP3 DUP3 LT PUSH2 0x2613 JUMPI POP POP POP POP PUSH1 0xC0 DUP2 ADD MLOAD SWAP3 PUSH1 0x6 DUP2 ADD PUSH1 0x2 DUP6 LT ISZERO PUSH2 0x3BB JUMPI PUSH1 0x0 SWAP5 PUSH1 0xFF DUP1 NOT DUP4 SLOAD AND SWAP2 AND OR DUP2 SSTORE PUSH1 0xE0 DUP4 ADD MLOAD PUSH1 0x3 DUP2 LT ISZERO PUSH2 0x25FF JUMPI SWAP2 PUSH1 0x9 SWAP2 PUSH2 0x140 SWAP4 PUSH2 0xFF00 DUP3 SLOAD SWAP2 PUSH1 0x8 SHL AND SWAP1 PUSH2 0xFF00 NOT AND OR SWAP1 SSTORE PUSH2 0x100 DUP5 ADD MLOAD PUSH1 0x7 DUP3 ADD SSTORE PUSH2 0x120 DUP5 ADD MLOAD PUSH1 0x8 DUP3 ADD SSTORE ADD SWAP2 ADD MLOAD SWAP3 DUP4 MLOAD SWAP1 PUSH1 0x1 PUSH1 0x1 PUSH1 0x40 SHL SUB DUP3 GT PUSH2 0x25EB JUMPI PUSH2 0x2515 DUP4 SLOAD PUSH2 0x1E70 JUMP JUMPDEST PUSH1 0x1F DUP2 GT PUSH2 0x25BB JUMPI JUMPDEST POP PUSH1 0x20 SWAP1 PUSH1 0x1F DUP4 GT PUSH1 0x1 EQ PUSH2 0x255D JUMPI SWAP1 PUSH2 0x254E SWAP4 SWAP5 SWAP6 DUP4 PUSH2 0x2552 JUMPI POP POP DUP2 PUSH1 0x1 SHL SWAP2 PUSH1 0x0 NOT SWAP1 PUSH1 0x3 SHL SHR NOT AND OR SWAP1 JUMP JUMPDEST SWAP1 SSTORE JUMP JUMPDEST ADD MLOAD SWAP1 POP CODESIZE DUP1 PUSH2 0xE7C JUMP JUMPDEST SWAP1 PUSH1 0x1F NOT DUP4 AND DUP5 DUP4 MSTORE DUP2 DUP4 KECCAK256 SWAP3 JUMPDEST DUP2 DUP2 LT PUSH2 0x25A3 JUMPI POP SWAP6 DUP4 PUSH1 0x1 SWAP6 SWAP7 SWAP8 LT PUSH2 0x258A JUMPI JUMPDEST POP POP POP DUP2 SHL ADD SWAP1 SSTORE JUMP JUMPDEST ADD MLOAD PUSH1 0x0 NOT PUSH1 0xF8 DUP5 PUSH1 0x3 SHL AND SHR NOT AND SWAP1 SSTORE CODESIZE DUP1 DUP1 PUSH2 0x2580 JUMP JUMPDEST SWAP2 SWAP3 PUSH1 0x20 PUSH1 0x1 DUP2 SWAP3 DUP7 DUP12 ADD MLOAD DUP2 SSTORE ADD SWAP5 ADD SWAP3 ADD PUSH2 0x256B JUMP JUMPDEST PUSH2 0x25E5 SWAP1 DUP5 DUP4 MSTORE PUSH1 0x20 DUP4 KECCAK256 PUSH1 0x1F DUP6 ADD PUSH1 0x5 SHR DUP2 ADD SWAP2 PUSH1 0x20 DUP7 LT PUSH2 0x8B9 JUMPI PUSH1 0x1F ADD PUSH1 0x5 SHR ADD SWAP1 PUSH2 0x2223 JUMP JUMPDEST CODESIZE PUSH2 0x251E JUMP JUMPDEST PUSH4 0x4E487B71 PUSH1 0xE0 SHL DUP2 MSTORE PUSH1 0x41 PUSH1 0x4 MSTORE PUSH1 0x24 SWAP1 REVERT JUMPDEST PUSH4 0x4E487B71 PUSH1 0xE0 SHL DUP7 MSTORE PUSH1 0x21 PUSH1 0x4 MSTORE PUSH1 0x24 DUP7 REVERT JUMPDEST DUP1 MLOAD DUP1 MLOAD SWAP1 PUSH1 0x1 PUSH1 0x1 PUSH1 0x40 SHL SUB DUP3 GT PUSH2 0x8C3 JUMPI PUSH2 0x2630 DUP7 SLOAD PUSH2 0x1E70 JUMP JUMPDEST PUSH1 0x1F DUP2 GT PUSH2 0x26EE JUMPI JUMPDEST POP PUSH1 0x20 SWAP1 PUSH1 0x1F DUP4 GT PUSH1 0x1 EQ PUSH2 0x2681 JUMPI SWAP3 PUSH2 0x2672 DUP4 PUSH1 0x1 SWAP6 SWAP5 PUSH1 0x20 SWAP5 DUP8 SWAP7 PUSH1 0x0 SWAP3 PUSH2 0x2552 JUMPI POP POP DUP2 PUSH1 0x1 SHL SWAP2 PUSH1 0x0 NOT SWAP1 PUSH1 0x3 SHL SHR NOT AND OR SWAP1 JUMP JUMPDEST DUP8 SSTORE JUMPDEST ADD SWAP5 ADD SWAP2 ADD SWAP1 SWAP3 PUSH2 0x2489 JUMP JUMPDEST SWAP1 PUSH1 0x1F NOT DUP4 AND SWAP2 DUP8 PUSH1 0x0 MSTORE DUP2 PUSH1 0x0 KECCAK256 SWAP3 PUSH1 0x0 JUMPDEST DUP2 DUP2 LT PUSH2 0x26D6 JUMPI POP SWAP4 PUSH1 0x20 SWAP4 PUSH1 0x1 SWAP7 SWAP4 DUP8 SWAP7 SWAP4 DUP4 DUP9 SWAP6 LT PUSH2 0x26BD JUMPI JUMPDEST POP POP POP DUP2 SHL ADD DUP8 SSTORE PUSH2 0x2675 JUMP JUMPDEST ADD MLOAD PUSH1 0x0 NOT PUSH1 0xF8 DUP5 PUSH1 0x3 SHL AND SHR NOT AND SWAP1 SSTORE CODESIZE DUP1 DUP1 PUSH2 0x26B0 JUMP JUMPDEST SWAP3 SWAP4 PUSH1 0x20 PUSH1 0x1 DUP2 SWAP3 DUP8 DUP7 ADD MLOAD DUP2 SSTORE ADD SWAP6 ADD SWAP4 ADD PUSH2 0x2694 JUMP JUMPDEST PUSH2 0x271A SWAP1 DUP8 PUSH1 0x0 MSTORE PUSH1 0x20 PUSH1 0x0 KECCAK256 PUSH1 0x1F DUP6 ADD PUSH1 0x5 SHR DUP2 ADD SWAP2 PUSH1 0x20 DUP7 LT PUSH2 0x8B9 JUMPI PUSH1 0x1F ADD PUSH1 0x5 SHR ADD SWAP1 PUSH2 0x2223 JUMP JUMPDEST CODESIZE PUSH2 0x2639 JUMP JUMPDEST DUP4 PUSH1 0x0 MSTORE DUP3 PUSH1 0x20 PUSH1 0x0 KECCAK256 SWAP2 DUP3 ADD SWAP2 ADD JUMPDEST DUP2 DUP2 LT PUSH2 0x273D JUMPI POP PUSH2 0x2477 JUMP JUMPDEST DUP1 PUSH2 0x274A PUSH1 0x1 SWAP3 SLOAD PUSH2 0x1E70 JUMP JUMPDEST DUP1 PUSH2 0x2757 JUMPI JUMPDEST POP ADD PUSH2 0x2730 JUMP JUMPDEST PUSH1 0x1F DUP2 GT DUP4 EQ PUSH2 0x276D JUMPI POP PUSH1 0x0 DUP2 SSTORE JUMPDEST CODESIZE PUSH2 0x2750 JUMP JUMPDEST PUSH2 0x278B SWAP1 DUP3 PUSH1 0x0 MSTORE DUP4 PUSH1 0x1F PUSH1 0x20 PUSH1 0x0 KECCAK256 SWAP3 ADD PUSH1 0x5 SHR DUP3 ADD SWAP2 ADD PUSH2 0x2223 JUMP JUMPDEST DUP1 PUSH1 0x0 MSTORE PUSH1 0x0 PUSH1 0x20 DUP2 KECCAK256 DUP2 DUP4 SSTORE SSTORE PUSH2 0x2767 JUMP JUMPDEST SWAP1 PUSH1 0x1F NOT DUP4 AND SWAP2 DUP5 PUSH1 0x0 MSTORE DUP2 PUSH1 0x0 KECCAK256 SWAP3 PUSH1 0x0 JUMPDEST DUP2 DUP2 LT PUSH2 0x27ED JUMPI POP SWAP1 DUP5 PUSH1 0x1 SWAP6 SWAP5 SWAP4 SWAP3 LT PUSH2 0x27D4 JUMPI JUMPDEST POP POP POP DUP2 SHL ADD SWAP1 SSTORE PUSH2 0x2453 JUMP JUMPDEST ADD MLOAD PUSH1 0x0 NOT PUSH1 0xF8 DUP5 PUSH1 0x3 SHL AND SHR NOT AND SWAP1 SSTORE CODESIZE DUP1 DUP1 PUSH2 0x27C7 JUMP JUMPDEST SWAP3 SWAP4 PUSH1 0x20 PUSH1 0x1 DUP2 SWAP3 DUP8 DUP7 ADD MLOAD DUP2 SSTORE ADD SWAP6 ADD SWAP4 ADD PUSH2 0x27B1 JUMP JUMPDEST PUSH2 0x2831 SWAP1 DUP5 PUSH1 0x0 MSTORE PUSH1 0x20 PUSH1 0x0 KECCAK256 PUSH1 0x1F DUP6 ADD PUSH1 0x5 SHR DUP2 ADD SWAP2 PUSH1 0x20 DUP7 LT PUSH2 0x8B9 JUMPI PUSH1 0x1F ADD PUSH1 0x5 SHR ADD SWAP1 PUSH2 0x2223 JUMP JUMPDEST CODESIZE PUSH2 0x241F JUMP JUMPDEST DUP1 MLOAD DUP1 MLOAD SWAP1 PUSH1 0x1 PUSH1 0x1 PUSH1 0x40 SHL SUB DUP3 GT PUSH2 0x8C3 JUMPI PUSH2 0x2854 DUP7 SLOAD PUSH2 0x1E70 JUMP JUMPDEST PUSH1 0x1F DUP2 GT PUSH2 0x2912 JUMPI JUMPDEST POP PUSH1 0x20 SWAP1 PUSH1 0x1F DUP4 GT PUSH1 0x1 EQ PUSH2 0x28A5 JUMPI SWAP3 PUSH2 0x2896 DUP4 PUSH1 0x1 SWAP6 SWAP5 PUSH1 0x20 SWAP5 DUP8 SWAP7 PUSH1 0x0 SWAP3 PUSH2 0x2552 JUMPI POP POP DUP2 PUSH1 0x1 SHL SWAP2 PUSH1 0x0 NOT SWAP1 PUSH1 0x3 SHL SHR NOT AND OR SWAP1 JUMP JUMPDEST DUP8 SSTORE JUMPDEST ADD SWAP5 ADD SWAP2 ADD SWAP1 SWAP3 PUSH2 0x23E7 JUMP JUMPDEST SWAP1 PUSH1 0x1F NOT DUP4 AND SWAP2 DUP8 PUSH1 0x0 MSTORE DUP2 PUSH1 0x0 KECCAK256 SWAP3 PUSH1 0x0 JUMPDEST DUP2 DUP2 LT PUSH2 0x28FA JUMPI POP SWAP4 PUSH1 0x20 SWAP4 PUSH1 0x1 SWAP7 SWAP4 DUP8 SWAP7 SWAP4 DUP4 DUP9 SWAP6 LT PUSH2 0x28E1 JUMPI JUMPDEST POP POP POP DUP2 SHL ADD DUP8 SSTORE PUSH2 0x2899 JUMP JUMPDEST ADD MLOAD PUSH1 0x0 NOT PUSH1 0xF8 DUP5 PUSH1 0x3 SHL AND SHR NOT AND SWAP1 SSTORE CODESIZE DUP1 DUP1 PUSH2 0x28D4 JUMP JUMPDEST SWAP3 SWAP4 PUSH1 0x20 PUSH1 0x1 DUP2 SWAP3 DUP8 DUP7 ADD MLOAD DUP2 SSTORE ADD SWAP6 ADD SWAP4 ADD PUSH2 0x28B8 JUMP JUMPDEST PUSH2 0x293E SWAP1 DUP8 PUSH1 0x0 MSTORE PUSH1 0x20 PUSH1 0x0 KECCAK256 PUSH1 0x1F DUP6 ADD PUSH1 0x5 SHR DUP2 ADD SWAP2 PUSH1 0x20 DUP7 LT PUSH2 0x8B9 JUMPI PUSH1 0x1F ADD PUSH1 0x5 SHR ADD SWAP1 PUSH2 0x2223 JUMP JUMPDEST CODESIZE PUSH2 0x285D JUMP JUMPDEST DUP4 PUSH1 0x0 MSTORE DUP3 PUSH1 0x20 PUSH1 0x0 KECCAK256 SWAP2 DUP3 ADD SWAP2 ADD JUMPDEST DUP2 DUP2 LT PUSH2 0x2961 JUMPI POP PUSH2 0x23D5 JUMP JUMPDEST DUP1 PUSH2 0x296E PUSH1 0x1 SWAP3 SLOAD PUSH2 0x1E70 JUMP JUMPDEST DUP1 PUSH2 0x297B JUMPI JUMPDEST POP ADD PUSH2 0x2954 JUMP JUMPDEST PUSH1 0x1F DUP2 GT DUP4 EQ PUSH2 0x2991 JUMPI POP PUSH1 0x0 DUP2 SSTORE JUMPDEST CODESIZE PUSH2 0x2974 JUMP JUMPDEST PUSH2 0x29AF SWAP1 DUP3 PUSH1 0x0 MSTORE DUP4 PUSH1 0x1F PUSH1 0x20 PUSH1 0x0 KECCAK256 SWAP3 ADD PUSH1 0x5 SHR DUP3 ADD SWAP2 ADD PUSH2 0x2223 JUMP JUMPDEST DUP1 PUSH1 0x0 MSTORE PUSH1 0x0 PUSH1 0x20 DUP2 KECCAK256 DUP2 DUP4 SSTORE SSTORE PUSH2 0x298B JUMP JUMPDEST SWAP1 PUSH1 0x1F NOT DUP4 AND SWAP2 DUP5 PUSH1 0x0 MSTORE DUP2 PUSH1 0x0 KECCAK256 SWAP3 PUSH1 0x0 JUMPDEST DUP2 DUP2 LT PUSH2 0x2A11 JUMPI POP SWAP1 DUP5 PUSH1 0x1 SWAP6 SWAP5 SWAP4 SWAP3 LT PUSH2 0x29F8 JUMPI JUMPDEST POP POP POP DUP2 SHL ADD SWAP1 SSTORE PUSH2 0x23B1 JUMP JUMPDEST ADD MLOAD PUSH1 0x0 NOT PUSH1 0xF8 DUP5 PUSH1 0x3 SHL AND SHR NOT AND SWAP1 SSTORE CODESIZE DUP1 DUP1 PUSH2 0x29EB JUMP JUMPDEST SWAP3 SWAP4 PUSH1 0x20 PUSH1 0x1 DUP2 SWAP3 DUP8 DUP7 ADD MLOAD DUP2 SSTORE ADD SWAP6 ADD SWAP4 ADD PUSH2 0x29D5 JUMP JUMPDEST PUSH2 0x2A55 SWAP1 DUP5 PUSH1 0x0 MSTORE PUSH1 0x20 PUSH1 0x0 KECCAK256 PUSH1 0x1F DUP6 ADD PUSH1 0x5 SHR DUP2 ADD SWAP2 PUSH1 0x20 DUP7 LT PUSH2 0x8B9 JUMPI PUSH1 0x1F ADD PUSH1 0x5 SHR ADD SWAP1 PUSH2 0x2223 JUMP JUMPDEST CODESIZE PUSH2 0x237D JUMP JUMPDEST SWAP1 PUSH1 0x1F NOT DUP4 AND SWAP2 DUP5 PUSH1 0x0 MSTORE DUP2 PUSH1 0x0 KECCAK256 SWAP3 PUSH1 0x0 JUMPDEST DUP2 DUP2 LT PUSH2 0x2AAA JUMPI POP SWAP1 DUP5 PUSH1 0x1 SWAP6 SWAP5 SWAP4 SWAP3 LT PUSH2 0x2A91 JUMPI JUMPDEST POP POP POP DUP2 SHL ADD SWAP1 SSTORE PUSH2 0x2350 JUMP JUMPDEST ADD MLOAD PUSH1 0x0 NOT PUSH1 0xF8 DUP5 PUSH1 0x3 SHL AND SHR NOT AND SWAP1 SSTORE CODESIZE DUP1 DUP1 PUSH2 0x2A84 JUMP JUMPDEST SWAP3 SWAP4 PUSH1 0x20 PUSH1 0x1 DUP2 SWAP3 DUP8 DUP7 ADD MLOAD DUP2 SSTORE ADD SWAP6 ADD SWAP4 ADD PUSH2 0x2A6E JUMP JUMPDEST PUSH2 0x2AEE SWAP1 DUP5 PUSH1 0x0 MSTORE PUSH1 0x20 PUSH1 0x0 KECCAK256 PUSH1 0x1F DUP6 ADD PUSH1 0x5 SHR DUP2 ADD SWAP2 PUSH1 0x20 DUP7 LT PUSH2 0x8B9 JUMPI PUSH1 0x1F ADD PUSH1 0x5 SHR ADD SWAP1 PUSH2 0x2223 JUMP JUMPDEST CODESIZE PUSH2 0x231C JUMP JUMPDEST PUSH1 0x1F NOT DUP3 AND SWAP6 DUP6 PUSH1 0x0 MSTORE DUP1 PUSH1 0x0 KECCAK256 SWAP2 PUSH1 0x0 JUMPDEST DUP9 DUP2 LT PUSH2 0x2B41 JUMPI POP DUP4 PUSH1 0x1 SWAP6 SWAP7 SWAP8 SWAP9 LT PUSH2 0x2B28 JUMPI JUMPDEST POP POP POP DUP2 SHL ADD DUP4 SSTORE PUSH2 0x22EF JUMP JUMPDEST ADD MLOAD PUSH1 0x0 NOT PUSH1 0xF8 DUP5 PUSH1 0x3 SHL AND SHR NOT AND SWAP1 SSTORE CODESIZE DUP1 DUP1 PUSH2 0x2B1B JUMP JUMPDEST SWAP2 SWAP3 PUSH1 0x20 PUSH1 0x1 DUP2 SWAP3 DUP7 DUP6 ADD MLOAD DUP2 SSTORE ADD SWAP5 ADD SWAP3 ADD PUSH2 0x2B06 JUMP JUMPDEST PUSH2 0x2B85 SWAP1 DUP6 PUSH1 0x0 MSTORE PUSH1 0x20 PUSH1 0x0 KECCAK256 PUSH1 0x1F DUP5 ADD PUSH1 0x5 SHR DUP2 ADD SWAP2 PUSH1 0x20 DUP6 LT PUSH2 0x8B9 JUMPI PUSH1 0x1F ADD PUSH1 0x5 SHR ADD SWAP1 PUSH2 0x2223 JUMP JUMPDEST CODESIZE PUSH2 0x22B8 JUMP INVALID LOG2 PUSH5 0x6970667358 0x22 SLT KECCAK256 STOP STOP 0xAE CALLCODE PUSH31 0xFA053A59620EE168FE52FDC7CD9767DE5770C39D5825A52CB51D5064736F6C PUSH4 0x4300081B STOP CALLER "},"methodIdentifiers":{"allObatData(uint256)":"7aad01bd","approveNie(string,address,string,string,string)":"7ade51dd","bpomAddresses(string)":"1c0b2030","bpomInstanceNames(string)":"9d9315c2","bpomUserNames(string)":"f1022862","createObat(string,string,string,string[],string,string[],address,string,string,uint8)":"d9d284dc","factoryAddresses(string)":"4b87568a","factoryInstanceNames(string)":"a812536d","factoryUserNames(string)":"349a7a72","getListAllObatNie()":"e06749ba","getListObatByFactory(string)":"1dce6e58","getListObatById(string)":"25606bc3","getRole(address)":"44276733","obatDetailsById(string)":"27321837","owner()":"8da5cb5b","requestNie(string)":"bc4a6f6c","userRoles(address)":"74d5e100"}}}}}