{"contracts/CertificateManager.sol":{"CertificateManager":{"abi":[{"inputs":[{"internalType":"address","name":"_roleManagerAddr","type":"address"},{"internalType":"address","name":"_cpotbCertificateAddr","type":"address"},{"internalType":"address","name":"_cdobCertificateAddr","type":"address"}],"stateMutability":"nonpayable","type":"constructor"},{"anonymous":false,"inputs":[{"indexed":false,"internalType":"string","name":"bpomInstance","type":"string"},{"indexed":false,"internalType":"address","name":"bpomAddr","type":"address"},{"indexed":false,"internalType":"uint8","name":"tipePermohonan","type":"uint8"},{"indexed":false,"internalType":"string","name":"certNumber","type":"string"},{"indexed":false,"internalType":"uint256","name":"timestamp","type":"uint256"}],"name":"CertApproved","type":"event"},{"anonymous":false,"inputs":[{"indexed":false,"internalType":"string","name":"bpomInstance","type":"string"},{"indexed":false,"internalType":"address","name":"bpomAddr","type":"address"},{"indexed":false,"internalType":"uint8","name":"tipePermohonan","type":"uint8"},{"indexed":false,"internalType":"uint256","name":"timestamp","type":"uint256"},{"indexed":false,"internalType":"string","name":"rejectMsg","type":"string"}],"name":"CertRejected","type":"event"},{"anonymous":false,"inputs":[{"indexed":false,"internalType":"string","name":"senderInstance","type":"string"},{"indexed":false,"internalType":"address","name":"senderAddr","type":"address"},{"indexed":false,"internalType":"uint256","name":"timestamp","type":"uint256"}],"name":"CertRenewRequest","type":"event"},{"anonymous":false,"inputs":[{"indexed":false,"internalType":"string","name":"senderInstance","type":"string"},{"indexed":false,"internalType":"address","name":"senderAddr","type":"address"},{"indexed":false,"internalType":"uint8","name":"tipePermohonan","type":"uint8"},{"indexed":false,"internalType":"uint256","name":"timestamp","type":"uint256"}],"name":"CertRequested","type":"event"},{"inputs":[{"components":[{"internalType":"string","name":"certNumber","type":"string"},{"internalType":"string","name":"certId","type":"string"},{"internalType":"string","name":"bpomName","type":"string"},{"internalType":"string","name":"bpomInstance","type":"string"},{"internalType":"address","name":"bpomAddr","type":"address"}],"internalType":"struct CertificateManager.CertificateApproval","name":"_approvalData","type":"tuple"},{"internalType":"string","name":"_ipfsCert","type":"string"},{"internalType":"uint8","name":"_tipePermohonanCdob","type":"uint8"}],"name":"approveCdob","outputs":[],"stateMutability":"nonpayable","type":"function"},{"inputs":[{"components":[{"internalType":"string","name":"certNumber","type":"string"},{"internalType":"string","name":"certId","type":"string"},{"internalType":"string","name":"bpomName","type":"string"},{"internalType":"string","name":"bpomInstance","type":"string"},{"internalType":"address","name":"bpomAddr","type":"address"}],"internalType":"struct CertificateManager.CertificateApproval","name":"_approvalData","type":"tuple"},{"internalType":"string","name":"_ipfsCert","type":"string"},{"internalType":"uint8","name":"_jenisSediaan","type":"uint8"}],"name":"approveCpotb","outputs":[],"stateMutability":"nonpayable","type":"function"},{"inputs":[],"name":"getAllCdob","outputs":[{"components":[{"internalType":"string","name":"certId","type":"string"},{"internalType":"string","name":"certNumber","type":"string"},{"internalType":"string","name":"instanceName","type":"string"},{"internalType":"uint8","name":"tipePermohonan","type":"uint8"},{"internalType":"enum EnumsLibrary.StatusCertificate","name":"status","type":"uint8"},{"internalType":"string","name":"certHash","type":"string"}],"internalType":"struct CdobCertificate.CertificateList[]","name":"","type":"tuple[]"}],"stateMutability":"view","type":"function"},{"inputs":[],"name":"getAllCpotb","outputs":[{"components":[{"internalType":"string","name":"certId","type":"string"},{"internalType":"string","name":"certNumber","type":"string"},{"internalType":"string","name":"instanceName","type":"string"},{"internalType":"uint8","name":"tipePermohonan","type":"uint8"},{"internalType":"enum EnumsLibrary.StatusCertificate","name":"status","type":"uint8"},{"internalType":"string","name":"certHash","type":"string"}],"internalType":"struct CpotbCertificate.CertificateList[]","name":"","type":"tuple[]"}],"stateMutability":"view","type":"function"},{"inputs":[{"internalType":"string","name":"_instanceName","type":"string"}],"name":"getCdobByInstance","outputs":[{"components":[{"internalType":"string","name":"certId","type":"string"},{"internalType":"string","name":"certNumber","type":"string"},{"internalType":"string","name":"instanceName","type":"string"},{"internalType":"uint8","name":"tipePermohonan","type":"uint8"},{"internalType":"enum EnumsLibrary.StatusCertificate","name":"status","type":"uint8"},{"internalType":"string","name":"certHash","type":"string"}],"internalType":"struct CdobCertificate.CertificateList[]","name":"","type":"tuple[]"}],"stateMutability":"view","type":"function"},{"inputs":[{"internalType":"string","name":"_certId","type":"string"}],"name":"getCdobDetails","outputs":[{"components":[{"internalType":"enum EnumsLibrary.StatusCertificate","name":"status","type":"uint8"},{"internalType":"uint256","name":"timestampRequest","type":"uint256"},{"internalType":"uint256","name":"timestampApprove","type":"uint256"},{"internalType":"uint256","name":"timestampRejected","type":"uint256"},{"internalType":"uint256","name":"timestsmpRenewRequest","type":"uint256"},{"components":[{"internalType":"string","name":"userName","type":"string"},{"internalType":"string","name":"userInstance","type":"string"},{"internalType":"address","name":"userAddr","type":"address"}],"internalType":"struct BaseCertificate.UserCert","name":"sender","type":"tuple"},{"components":[{"internalType":"string","name":"userName","type":"string"},{"internalType":"string","name":"userInstance","type":"string"},{"internalType":"address","name":"userAddr","type":"address"}],"internalType":"struct BaseCertificate.UserCert","name":"bpom","type":"tuple"},{"internalType":"string","name":"ipfsCert","type":"string"}],"internalType":"struct BaseCertificate.CertificateDetails","name":"","type":"tuple"},{"components":[{"internalType":"string","name":"cdobId","type":"string"},{"internalType":"string","name":"cdobNumber","type":"string"},{"internalType":"uint8","name":"tipePermohonan","type":"uint8"}],"internalType":"struct CdobCertificate.CdobData","name":"","type":"tuple"},{"components":[{"internalType":"string","name":"suratPermohonan","type":"string"},{"internalType":"string","name":"buktiPembayaranPajak","type":"string"}],"internalType":"struct CdobCertificate.DokumenAdministrasi","name":"","type":"tuple"},{"components":[{"internalType":"string","name":"suratIzinCdob","type":"string"},{"internalType":"string","name":"denahBangunan","type":"string"},{"internalType":"string","name":"strukturOrganisasi","type":"string"},{"internalType":"string","name":"daftarPersonalia","type":"string"},{"internalType":"string","name":"daftarPeralatan","type":"string"},{"internalType":"string","name":"eksekutifQualityManagement","type":"string"},{"internalType":"string","name":"suratIzinApoteker","type":"string"},{"internalType":"string","name":"dokumenSelfAssesment","type":"string"}],"internalType":"struct CdobCertificate.DokumenTeknis","name":"","type":"tuple"}],"stateMutability":"view","type":"function"},{"inputs":[{"internalType":"string","name":"_instanceName","type":"string"}],"name":"getCpotbByInstance","outputs":[{"components":[{"internalType":"string","name":"certId","type":"string"},{"internalType":"string","name":"certNumber","type":"string"},{"internalType":"string","name":"instanceName","type":"string"},{"internalType":"uint8","name":"tipePermohonan","type":"uint8"},{"internalType":"enum EnumsLibrary.StatusCertificate","name":"status","type":"uint8"},{"internalType":"string","name":"certHash","type":"string"}],"internalType":"struct CpotbCertificate.CertificateList[]","name":"","type":"tuple[]"}],"stateMutability":"view","type":"function"},{"inputs":[{"internalType":"string","name":"_certId","type":"string"}],"name":"getCpotbDetails","outputs":[{"components":[{"internalType":"enum EnumsLibrary.StatusCertificate","name":"status","type":"uint8"},{"internalType":"uint256","name":"timestampRequest","type":"uint256"},{"internalType":"uint256","name":"timestampApprove","type":"uint256"},{"internalType":"uint256","name":"timestampRejected","type":"uint256"},{"internalType":"uint256","name":"timestsmpRenewRequest","type":"uint256"},{"components":[{"internalType":"string","name":"userName","type":"string"},{"internalType":"string","name":"userInstance","type":"string"},{"internalType":"address","name":"userAddr","type":"address"}],"internalType":"struct BaseCertificate.UserCert","name":"sender","type":"tuple"},{"components":[{"internalType":"string","name":"userName","type":"string"},{"internalType":"string","name":"userInstance","type":"string"},{"internalType":"address","name":"userAddr","type":"address"}],"internalType":"struct BaseCertificate.UserCert","name":"bpom","type":"tuple"},{"internalType":"string","name":"ipfsCert","type":"string"}],"internalType":"struct BaseCertificate.CertificateDetails","name":"","type":"tuple"},{"components":[{"internalType":"string","name":"cpotbId","type":"string"},{"internalType":"string","name":"cpotbNumber","type":"string"},{"internalType":"uint8","name":"tipePermohonan","type":"uint8"},{"internalType":"string","name":"factoryType","type":"string"}],"internalType":"struct CpotbCertificate.CpotbData","name":"","type":"tuple"},{"components":[{"internalType":"string","name":"suratPermohonan","type":"string"},{"internalType":"string","name":"buktiPembayaranNegaraBukanPajak","type":"string"},{"internalType":"string","name":"suratKomitmen","type":"string"}],"internalType":"struct CpotbCertificate.DokumenAdministrasi","name":"","type":"tuple"},{"components":[{"internalType":"string","name":"denahBangunan","type":"string"},{"internalType":"string","name":"sistemMutu","type":"string"}],"internalType":"struct CpotbCertificate.DokumenTeknis","name":"","type":"tuple"}],"stateMutability":"view","type":"function"},{"inputs":[{"internalType":"string","name":"_certId","type":"string"}],"name":"getRejectMsgCdob","outputs":[{"internalType":"string","name":"","type":"string"}],"stateMutability":"view","type":"function"},{"inputs":[{"internalType":"string","name":"_certId","type":"string"}],"name":"getRejectMsgCpotb","outputs":[{"internalType":"string","name":"","type":"string"}],"stateMutability":"view","type":"function"},{"inputs":[{"internalType":"string","name":"_certId","type":"string"},{"internalType":"string","name":"_rejectMsg","type":"string"},{"internalType":"string","name":"_bpomName","type":"string"},{"internalType":"string","name":"_bpomInstance","type":"string"},{"internalType":"uint8","name":"_tipePermohonanCdob","type":"uint8"}],"name":"rejectCdob","outputs":[],"stateMutability":"nonpayable","type":"function"},{"inputs":[{"internalType":"string","name":"_certId","type":"string"},{"internalType":"string","name":"_rejectMsg","type":"string"},{"internalType":"string","name":"_bpomName","type":"string"},{"internalType":"string","name":"_bpomInstance","type":"string"},{"internalType":"uint8","name":"_jenisSediaan","type":"uint8"}],"name":"rejectCpotb","outputs":[],"stateMutability":"nonpayable","type":"function"},{"inputs":[{"components":[{"internalType":"string","name":"certId","type":"string"},{"internalType":"string","name":"senderName","type":"string"},{"internalType":"string","name":"senderInstance","type":"string"},{"internalType":"address","name":"senderAddr","type":"address"}],"internalType":"struct CertificateManager.CertificateRequest","name":"_requestData","type":"tuple"},{"components":[{"internalType":"string","name":"suratPermohonan","type":"string"},{"internalType":"string","name":"buktiPembayaranPajak","type":"string"}],"internalType":"struct CdobCertificate.DokumenAdministrasi","name":"_newDokuAdmin","type":"tuple"},{"components":[{"internalType":"string","name":"suratIzinCdob","type":"string"},{"internalType":"string","name":"denahBangunan","type":"string"},{"internalType":"string","name":"strukturOrganisasi","type":"string"},{"internalType":"string","name":"daftarPersonalia","type":"string"},{"internalType":"string","name":"daftarPeralatan","type":"string"},{"internalType":"string","name":"eksekutifQualityManagement","type":"string"},{"internalType":"string","name":"suratIzinApoteker","type":"string"},{"internalType":"string","name":"dokumenSelfAssesment","type":"string"}],"internalType":"struct CdobCertificate.DokumenTeknis","name":"_newDokuTeknis","type":"tuple"}],"name":"renewCdob","outputs":[],"stateMutability":"nonpayable","type":"function"},{"inputs":[{"components":[{"internalType":"string","name":"certId","type":"string"},{"internalType":"string","name":"senderName","type":"string"},{"internalType":"string","name":"senderInstance","type":"string"},{"internalType":"address","name":"senderAddr","type":"address"}],"internalType":"struct CertificateManager.CertificateRequest","name":"_requestData","type":"tuple"},{"components":[{"internalType":"string","name":"suratPermohonan","type":"string"},{"internalType":"string","name":"buktiPembayaranNegaraBukanPajak","type":"string"},{"internalType":"string","name":"suratKomitmen","type":"string"}],"internalType":"struct CpotbCertificate.DokumenAdministrasi","name":"_newDokuAdmin","type":"tuple"},{"components":[{"internalType":"string","name":"denahBangunan","type":"string"},{"internalType":"string","name":"sistemMutu","type":"string"}],"internalType":"struct CpotbCertificate.DokumenTeknis","name":"_newDokuTeknis","type":"tuple"}],"name":"renewCpotb","outputs":[],"stateMutability":"nonpayable","type":"function"},{"inputs":[{"components":[{"internalType":"string","name":"certId","type":"string"},{"internalType":"string","name":"senderName","type":"string"},{"internalType":"string","name":"senderInstance","type":"string"},{"internalType":"address","name":"senderAddr","type":"address"}],"internalType":"struct CertificateManager.CertificateRequest","name":"_requestData","type":"tuple"},{"internalType":"uint8","name":"_tipePermohonanCdob","type":"uint8"},{"components":[{"internalType":"string","name":"suratPermohonan","type":"string"},{"internalType":"string","name":"buktiPembayaranPajak","type":"string"}],"internalType":"struct CdobCertificate.DokumenAdministrasi","name":"dokuAdmin","type":"tuple"},{"components":[{"internalType":"string","name":"suratIzinCdob","type":"string"},{"internalType":"string","name":"denahBangunan","type":"string"},{"internalType":"string","name":"strukturOrganisasi","type":"string"},{"internalType":"string","name":"daftarPersonalia","type":"string"},{"internalType":"string","name":"daftarPeralatan","type":"string"},{"internalType":"string","name":"eksekutifQualityManagement","type":"string"},{"internalType":"string","name":"suratIzinApoteker","type":"string"},{"internalType":"string","name":"dokumenSelfAssesment","type":"string"}],"internalType":"struct CdobCertificate.DokumenTeknis","name":"dokuTeknis","type":"tuple"}],"name":"requestCdob","outputs":[],"stateMutability":"nonpayable","type":"function"},{"inputs":[{"components":[{"internalType":"string","name":"certId","type":"string"},{"internalType":"string","name":"senderName","type":"string"},{"internalType":"string","name":"senderInstance","type":"string"},{"internalType":"address","name":"senderAddr","type":"address"}],"internalType":"struct CertificateManager.CertificateRequest","name":"_requestData","type":"tuple"},{"internalType":"uint8","name":"_jenisSediaan","type":"uint8"},{"internalType":"string","name":"_factoryType","type":"string"},{"components":[{"internalType":"string","name":"suratPermohonan","type":"string"},{"internalType":"string","name":"buktiPembayaranNegaraBukanPajak","type":"string"},{"internalType":"string","name":"suratKomitmen","type":"string"}],"internalType":"struct CpotbCertificate.DokumenAdministrasi","name":"dokuAdmin","type":"tuple"},{"components":[{"internalType":"string","name":"denahBangunan","type":"string"},{"internalType":"string","name":"sistemMutu","type":"string"}],"internalType":"struct CpotbCertificate.DokumenTeknis","name":"dokuTeknis","type":"tuple"}],"name":"requestCpotb","outputs":[],"stateMutability":"nonpayable","type":"function"}],"evm":{"bytecode":{"linkReferences":{},"object":"60803460a257601f61259838819003918201601f19168301916001600160401b0383118484101760a65780849260609460405283398101031260a25760428160ba565b906057604060516020840160ba565b920160ba565b5f80546001600160a01b039485166001600160a01b0319918216179091556001805493851693821693909317909255600280549190931691161790556040516124ca90816100ce8239f35b5f80fd5b634e487b7160e01b5f52604160045260245ffd5b51906001600160a01b038216820360a25756fe60806040526004361015610011575f80fd5b5f5f3560e01c806317d967971461151a5780631a8980441461146c5780631d430349146112615780632dbcaf0f146111a857806341ee1495146111135780634e03317b14610ff757806351c2d32614610f945780635850607c14610f3f57806370c056b014610bfa5780637e8f8da71461083457806387fecd3e146106145780639c0abfd8146104ff578063bbd0b8a9146103ba578063cb43b77f146101da578063d0927b19146101545763f14261d2146100ca575f80fd5b346101515780600319360112610151576002546040516378a130e960e11b8152908290829060049082906001600160a01b03165afa908115610146578261011f9392610123575b505060405191829182611b3b565b0390f35b61013f92503d8091833e61013781836115fd565b810190612078565b5f80610111565b6040513d84823e3d90fd5b80fd5b503461015157602036600319011261015157600435816001600160401b038211610151576101896101b7923690600401611639565b60018060a01b036002541660405180809581946306f12c2360e41b835260206004840152602483019061167f565b03915afa908115610146578261011f939261012357505060405191829182611b3b565b5034610151576060366003190112610151576004356001600160401b0381116103745761020b9036906004016116b7565b816024356001600160401b0381116103745761022b903690600401611d32565b6044356001600160401b0381116103b65761024a90369060040161175d565b82546040516395a8c58d60e01b81523360048201526024810185905290602090829060449082906001600160a01b03165afa80156103ab5761029391859161037c575b5061240e565b600154845192906001600160a01b0316803b15610378576102dc856102ee9561030082966040519889978896879563e8002b2760e01b875260606004880152606487019061167f565b85810360031901602487015290611c42565b83810360031901604485015290611c6f565b03925af180156101465761035f575b50604080830151606084015191517fc77dd947ea8bfd0bd2706c8fad9b1178313fad6bd4cb678b9342239be4f8852892909182916103599142916001600160a01b03169084612468565b0390a180f35b81610369916115fd565b61037457815f61030f565b5080fd5b8480fd5b61039e915060203d6020116103a4575b61039681836115fd565b810190611e1b565b5f61028d565b503d61038c565b6040513d86823e3d90fd5b8280fd5b5034610151576060366003190112610151576004356001600160401b038111610374576103eb9036906004016116b7565b816024356001600160401b0381116103745761040b90369060040161175d565b6044356001600160401b0381116103b65761042a9036906004016117b7565b82546040516395a8c58d60e01b81523360048201526001602482015290602090829060449082906001600160a01b03165afa80156103ab576104739185916104e0575b50611e33565b600254845192906001600160a01b0316803b15610378576104bc856104ce9561030082966040519889978896879563a722652760e01b875260606004880152606487019061167f565b85810360031901602487015290611c6f565b83810360031901604485015290611c99565b6104f9915060203d6020116103a45761039681836115fd565b5f61046d565b5034610151578061050f36611a0d565b9294916044602060018060a09895981b03855416604051928380926395a8c58d60e01b8252336004830152600260248301525afa80156103ab5761055a9185916105f5575b50611ebe565b6001546001600160a01b031690813b156105f1578391869183896105966040519788968795869463e462dde560e01b8652339360048701611fc7565b03925af18015610146576105dc575b50506103597fa4a4ed86dce7c96c7821a45fbbe8394915281a2a2fa758ab0465b199c571abfb936040519384934291339086612025565b816105e6916115fd565b6105f157835f6105a5565b8380fd5b61060e915060203d6020116103a45761039681836115fd565b5f610554565b50346101515760a0366003190112610151576004356001600160401b038111610374576106459036906004016116b7565b61064d61174d565b826044356001600160401b0381116103745761066d903690600401611639565b926064356001600160401b0381116103b65761068d903690600401611d32565b6084356001600160401b0381116105f1576106ac90369060040161175d565b916044602060018060a01b03865416604051928380926395a8c58d60e01b82523360048301528960248301525afa8015610829576106f091869161037c575061240e565b60018060a01b03600154168151966020830151906040840198895194606060018060a01b039101511696843b156108255788968793604051998a98899788966364b409ff60e01b885260048801610100905261010488016107509161167f565b8781036003190160248901526107659161167f565b86810360031901604488015261077a9161167f565b90606486015260ff8d1660848601526003198582030160a486015261079e9161167f565b8381036003190160c48501526107b391611c42565b8281036003190160e48401526107c891611c6f565b03925af1801561014657610810575b50507ff52a0795d3c1a788d33423aa105be7a0aaa157621a984632251e0c2ed142d0409151906103596040519283924291339085611e89565b8161081a916115fd565b6103b657825f6107d7565b8880fd5b6040513d87823e3d90fd5b5034610151576020366003190112610151576004356001600160401b03811161037457610865903690600401611639565b61086d612203565b506108766121e3565b5061087f61224d565b50606060e0604051610890816115c6565b82815282602082015282604082015282808201528260808201528260a08201528260c0820152015260018060a01b036002541660405190637e8f8da760e01b8252602060048301528382806108e8602482018761167f565b0381845afa9081156103ab57848091819482946109e4575b509461092a9495604051808097819463be2e232560e01b835260206004840152602483019061167f565b03915afa928315610829578561095f96946109b6575b50506109a89061011f9394604051968796608088526080880190611bc6565b8681036020880152604060ff81610994610982875160608752606087019061167f565b6020880151868203602088015261167f565b950151169101528582036040870152611c6f565b908382036060850152611c99565b61011f94506109a892916109db913d8091833e6109d381836115fd565b810190612338565b93819250610940565b9450925050503d8085843e6109f981846115fd565b820191606081840312610378578481516001600160401b038111610374578201946060868603126103745760405195610a31876115ab565b80516001600160401b0381116105f15786610a4d918301611db0565b875260208101516001600160401b0381116105f15781610a7488604093610a7f9501611db0565b60208a01520161206a565b604087015260208301516001600160401b0381116103b65785610aa3918501612266565b926040810151906001600160401b0382116105f1570195610100878703126103b65760405196610ad2886115c6565b80516001600160401b0381116103785787610aee918301611db0565b885260208101516001600160401b0381116103785787610b0f918301611db0565b602089015260408101516001600160401b0381116103785787610b33918301611db0565b604089015260608101516001600160401b0381116103785787610b57918301611db0565b606089015260808101516001600160401b0381116103785787610b7b918301611db0565b608089015260a08101516001600160401b0381116103785787610b9f918301611db0565b60a089015260c08101516001600160401b0381116103785787610bc3918301611db0565b60c089015260e0810151966001600160401b0388116103785761092a97610bea9201611db0565b60e0880152929593909594610900565b5034610151576020366003190112610151576004356001600160401b03811161037457610c2b903690600401611639565b610c33612203565b50606080604051610c438161157c565b8181528160208201528460408201520152606060408051610c63816115ab565b8281528260208201520152610c7661224d565b5060015460405163070c056b60e41b81526020600482015291906001600160a01b0316838380610ca9602482018661167f565b0381845afa9081156103ab5784809381928294610db8575b610cea959650604051808097819463be2e232560e01b835260206004840152602483019061167f565b03915afa9283156108295785610d229694610d8e575b5050610d8090610d7261011f9495604051978897608089526080890190611bc6565b87810360208901526060610d54610d42845160808552608085019061167f565b6020850151848203602086015261167f565b9260ff6040820151166040840152015190606081840391015261167f565b908582036040870152611c42565b908382036060850152611c6f565b61011f9450610dae610d809392610d72923d8091833e6109d381836115fd565b9450819250610d00565b9350935050503d8085853e610dcd81856115fd565b830191606084840312610378578484516001600160401b038111610374578501916080838603126103745760405192610e058461157c565b80516001600160401b0381116105f15786610e21918301611db0565b845260208101516001600160401b0381116105f15786610e42918301611db0565b6020850152610e536040820161206a565b60408501526060810151906001600160401b0382116105f157610e7891879101611db0565b606084015260208601516001600160401b0381116103b6578601956060878703126103b65760405196610eaa886115ab565b80516001600160401b0381116103785787610ec6918301611db0565b885260208101516001600160401b0381116103785787610ee7918301611db0565b60208901526040810151906001600160401b03821161037857610f0c91889101611db0565b60408801526040810151956001600160401b0387116105f157610cea96610f339201612266565b92959293869550610cc1565b5034610151578060031936011261015157600154604051631614181f60e21b8152908290829060049082906001600160a01b03165afa908115610146578261011f939261012357505060405191829182611b3b565b503461015157602036600319011261015157600435816001600160401b03821161015157610fc96101b7923690600401611639565b60018060a01b036001541660405180809581946381fc60a560e01b835260206004840152602483019061167f565b503461015157611006366118ea565b83546040516395a8c58d60e01b81523360048201526002602482015292939290602090829060449082906001600160a01b03165afa8015610829576110519186916105f55750611ebe565b8360018060a01b036001541692805160208201948551906040840151916060850198895195608060018060a01b039101511694833b1561110f576110b08896928793604051998a9889978896630173c92160e71b885260048801611f15565b03925af18015610146576110fa575b50506103597fc8c9ccc57ad2f7823680b448dd87b511b225eb0ac2e99e0aa88e7a26ebc6cbe593519251926040519384934292339086611f81565b81611104916115fd565b6105f157835f6110bf565b8780fd5b5034610151578061112336611a0d565b9294916044602060018060a09895981b03855416604051928380926395a8c58d60e01b8252336004830152600260248301525afa80156103ab5761116d9185916105f55750611ebe565b6002546001600160a01b031690813b156105f15783918691838961059660405197889687958694621acf2560e81b8652339360048701611fc7565b5034610151576111b7366118ea565b83546040516395a8c58d60e01b81523360048201526002602482015292939290602090829060449082906001600160a01b03165afa8015610829576112029186916105f55750611ebe565b8360018060a01b036002541692805160208201948551906040840151916060850198895195608060018060a01b039101511694833b1561110f576110b08896928793604051998a98899788966315c9fbf960e11b885260048801611f15565b5034611468576080366003190112611468576004356001600160401b038111611468576112929036906004016116b7565b9061129b61174d565b6044356001600160401b038111611468576112ba90369060040161175d565b6064356001600160401b038111611468576112d99036906004016117b7565b5f546040516395a8c58d60e01b81523360048201526001602482015290602090829060449082906001600160a01b03165afa801561145d57611321915f916104e05750611e33565b60025485516020870151604088018051606090990151909891936001600160a01b0390811693911690833b15611468576113e15f966113cf889461139d9a6113af61138b986040519d8e9c8d9b8c9a63682053d960e01b8c5260e060048d015260e48c019061167f565b8a81036003190160248c01529061167f565b8881036003190160448a01529061167f565b91606487015260ff8d1660848701526003198683030160a4870152611c6f565b8381036003190160c485015290611c99565b03925af1801561145d57611429575b507ff52a0795d3c1a788d33423aa105be7a0aaa157621a984632251e0c2ed142d040919251906103596040519283924291339085611e89565b7ff52a0795d3c1a788d33423aa105be7a0aaa157621a984632251e0c2ed142d04092505f611456916115fd565b5f916113f0565b6040513d5f823e3d90fd5b5f80fd5b34611468576020366003190112611468576004356001600160401b038111611468575f6114a06114ce923690600401611639565b60018060a01b03600154166040518080958194636d1aa7d560e01b835260206004840152602483019061167f565b03915afa801561145d5761011f915f916114f8575b5060405191829160208352602083019061167f565b61151491503d805f833e61150c81836115fd565b810190611df6565b826114e3565b34611468576020366003190112611468576004356001600160401b038111611468575f61154e6114ce923690600401611639565b60018060a01b03600254166040518080958194636d1aa7d560e01b835260206004840152602483019061167f565b608081019081106001600160401b0382111761159757604052565b634e487b7160e01b5f52604160045260245ffd5b606081019081106001600160401b0382111761159757604052565b61010081019081106001600160401b0382111761159757604052565b604081019081106001600160401b0382111761159757604052565b90601f801991011681019081106001600160401b0382111761159757604052565b6001600160401b03811161159757601f01601f191660200190565b81601f82011215611468578035906116508261161e565b9261165e60405194856115fd565b8284526020838301011161146857815f926020809301838601378301015290565b805180835260209291819084018484015e5f828201840152601f01601f1916010190565b35906001600160a01b038216820361146857565b91909160808184031261146857604051906116d18261157c565b819381356001600160401b03811161146857816116ef918401611639565b835260208201356001600160401b0381116114685781611710918401611639565b60208401526040820135906001600160401b038211611468578261173d6060949261174894869401611639565b6040860152016116a3565b910152565b6024359060ff8216820361146857565b91906040838203126114685760405190611776826115e2565b819380356001600160401b0381116114685782611794918301611639565b83526020810135916001600160401b038311611468576020926117489201611639565b91906101008382031261146857604051906117d1826115c6565b819380356001600160401b03811161146857826117ef918301611639565b835260208101356001600160401b0381116114685782611810918301611639565b602084015260408101356001600160401b0381116114685782611834918301611639565b604084015260608101356001600160401b0381116114685782611858918301611639565b606084015260808101356001600160401b038111611468578261187c918301611639565b608084015260a08101356001600160401b03811161146857826118a0918301611639565b60a084015260c08101356001600160401b03811161146857826118c4918301611639565b60c084015260e0810135916001600160401b0383116114685760e0926117489201611639565b906060600319830112611468576004356001600160401b0381116114685760a08184036003190112611468576040519060a082018281106001600160401b038211176115975760405280600401356001600160401b0381116114685784600461195592840101611639565b825260248101356001600160401b0381116114685784600461197992840101611639565b602083015260448101356001600160401b038111611468578460046119a092840101611639565b604083015260648101356001600160401b03811161146857816119cd8660046084946119d8960101611639565b6060850152016116a3565b608082015291602435906001600160401b038211611468576119fc91600401611639565b9060443560ff811681036114685790565b9060a0600319830112611468576004356001600160401b0381116114685782611a3891600401611639565b916024356001600160401b0381116114685781611a5791600401611639565b916044356001600160401b0381116114685782611a7691600401611639565b91606435906001600160401b03821161146857611a9591600401611639565b9060843560ff811681036114685790565b60041115611ab057565b634e487b7160e01b5f52602160045260245ffd5b611b389160a0611b07611af5611ae3855160c0865260c086019061167f565b6020860151858203602087015261167f565b6040850151848203604086015261167f565b9260ff60608201511660608401526080810151611b2381611aa6565b608084015201519060a081840391015261167f565b90565b602081016020825282518091526040820191602060408360051b8301019401925f915b838310611b6d57505050505090565b9091929394602080611b8b600193603f198682030187528951611ac4565b97019301930191939290611b5e565b906040611bb3610d42845160608552606085019061167f565b928101516001600160a01b031691015290565b611b38918151611bd581611aa6565b81526020820151602082015260408201516040820152606082015160608201526080820151608082015260e0611c31611c1f60a085015161010060a0860152610100850190611b9a565b60c085015184820360c0860152611b9a565b9201519060e081840391015261167f565b611b38916040611c5e610d42845160608552606085019061167f565b92015190604081840391015261167f565b611b38916020611c88835160408452604084019061167f565b92015190602081840391015261167f565b611b389160e0611c31611d20611d0e611cfc611cea611cd8611cc689516101008a526101008a019061167f565b60208a015189820360208b015261167f565b604089015188820360408a015261167f565b6060880151878203606089015261167f565b6080870151868203608088015261167f565b60a086015185820360a087015261167f565b60c085015184820360c086015261167f565b91906060838203126114685760405190611d4b826115ab565b819380356001600160401b0381116114685782611d69918301611639565b835260208101356001600160401b0381116114685782611d8a918301611639565b60208401526040810135916001600160401b038311611468576040926117489201611639565b81601f8201121561146857805190611dc78261161e565b92611dd560405194856115fd565b8284526020838301011161146857815f9260208093018386015e8301015290565b906020828203126114685781516001600160401b03811161146857611b389201611db0565b90816020910312611468575180151581036114685790565b15611e3a57565b60405162461bcd60e51b815260206004820152602160248201527f4f6e6c79205042462063616e20646f2074686973207472616e73616374696f6e6044820152602160f81b6064820152608490fd5b90606092959493611ea460ff9260808552608085019061167f565b6001600160a01b0390971660208401521660408201520152565b15611ec557565b60405162461bcd60e51b815260206004820152602260248201527f4f6e6c792042504f4d2063616e20646f2074686973207472616e73616374696f6044820152616e2160f01b6064820152608490fd5b92611f5490611f46611f6294611f38611b389a989560c0895260c089019061167f565b90878203602089015261167f565b90858203604087015261167f565b90838203606085015261167f565b6001600160a01b03909316608082015280830360a0919091015261167f565b95949360ff608094611f9f611fc2959460a08b5260a08b019061167f565b6001600160a01b0390941660208a0152166040880152868203606088015261167f565b930152565b9390608093611ff961201594611feb612007949a999a60a08a5260a08a019061167f565b9088820360208a015261167f565b90868203604088015261167f565b90848203606086015261167f565b6001600160a01b03909416910152565b919390611b38959361204160ff9260a0865260a086019061167f565b6001600160a01b039096166020850152166040830152606082015280830360809091015261167f565b519060ff8216820361146857565b602081830312611468578051906001600160401b03821161146857019080601f83011215611468576020825192016001600160401b038311611597578260051b60208101936120ca60405195866115fd565b845260208401908201918383116114685780915b8383106120ed57505050505090565b82516001600160401b03811161146857820160c081870312611468576040519160c083018381106001600160401b038211176115975760405281516001600160401b0381116114685787612142918401611db0565b835260208201516001600160401b0381116114685787612163918401611db0565b602084015260408201516001600160401b0381116114685787612187918401611db0565b60408401526121986060830161206a565b60608401526080820151600481101561146857608084015260a0820151926001600160401b038411611468576121d388602095869501611db0565b60a08201528152019201916120de565b604051906121f0826115ab565b5f60408360608152606060208201520152565b60405190612210826115c6565b606060e0835f81525f60208201525f60408201525f838201525f60808201526122376121e3565b60a08201526122446121e3565b60c08201520152565b6040519061225a826115e2565b60606020838281520152565b9190604083820312611468576040519061227f826115e2565b819380516001600160401b038111611468578261229d918301611db0565b83526020810151916001600160401b038311611468576020926117489201611db0565b919060608382031261146857604051906122d9826115ab565b819380516001600160401b03811161146857826122f7918301611db0565b835260208101516001600160401b0381116114685760409261231a918301611db0565b60208401520151906001600160a01b03821682036114685760400152565b602081830312611468578051906001600160401b038211611468570161010081830312611468576040519161236c836115c6565b815160048110156114685783526020820151602084015260408201516040840152606082015160608401526080820151608084015260a08201516001600160401b03811161146857816123c09184016122c0565b60a084015260c08201516001600160401b03811161146857816123e49184016122c0565b60c084015260e08201516001600160401b038111611468576124069201611db0565b60e082015290565b1561241557565b60405162461bcd60e51b815260206004820152602560248201527f4f6e6c7920466163746f72792063616e20646f2074686973207472616e73616360448201526474696f6e2160d81b6064820152608490fd5b6124806040929594939560608352606083019061167f565b6001600160a01b039095166020820152015256fea264697066735822122044624a2a0254beef9a28160de312fedc53ec124c3b89f46854cd3cc0ff1a30ad64736f6c634300081b0033","opcodes":"PUSH1 0x80 CALLVALUE PUSH1 0xA2 JUMPI PUSH1 0x1F PUSH2 0x2598 CODESIZE DUP2 SWAP1 SUB SWAP2 DUP3 ADD PUSH1 0x1F NOT AND DUP4 ADD SWAP2 PUSH1 0x1 PUSH1 0x1 PUSH1 0x40 SHL SUB DUP4 GT DUP5 DUP5 LT OR PUSH1 0xA6 JUMPI DUP1 DUP5 SWAP3 PUSH1 0x60 SWAP5 PUSH1 0x40 MSTORE DUP4 CODECOPY DUP2 ADD SUB SLT PUSH1 0xA2 JUMPI PUSH1 0x42 DUP2 PUSH1 0xBA JUMP JUMPDEST SWAP1 PUSH1 0x57 PUSH1 0x40 PUSH1 0x51 PUSH1 0x20 DUP5 ADD PUSH1 0xBA JUMP JUMPDEST SWAP3 ADD PUSH1 0xBA JUMP JUMPDEST PUSH0 DUP1 SLOAD PUSH1 0x1 PUSH1 0x1 PUSH1 0xA0 SHL SUB SWAP5 DUP6 AND PUSH1 0x1 PUSH1 0x1 PUSH1 0xA0 SHL SUB NOT SWAP2 DUP3 AND OR SWAP1 SWAP2 SSTORE PUSH1 0x1 DUP1 SLOAD SWAP4 DUP6 AND SWAP4 DUP3 AND SWAP4 SWAP1 SWAP4 OR SWAP1 SWAP3 SSTORE PUSH1 0x2 DUP1 SLOAD SWAP2 SWAP1 SWAP4 AND SWAP2 AND OR SWAP1 SSTORE PUSH1 0x40 MLOAD PUSH2 0x24CA SWAP1 DUP2 PUSH2 0xCE DUP3 CODECOPY RETURN JUMPDEST PUSH0 DUP1 REVERT JUMPDEST PUSH4 0x4E487B71 PUSH1 0xE0 SHL PUSH0 MSTORE PUSH1 0x41 PUSH1 0x4 MSTORE PUSH1 0x24 PUSH0 REVERT JUMPDEST MLOAD SWAP1 PUSH1 0x1 PUSH1 0x1 PUSH1 0xA0 SHL SUB DUP3 AND DUP3 SUB PUSH1 0xA2 JUMPI JUMP INVALID PUSH1 0x80 PUSH1 0x40 MSTORE PUSH1 0x4 CALLDATASIZE LT ISZERO PUSH2 0x11 JUMPI PUSH0 DUP1 REVERT JUMPDEST PUSH0 PUSH0 CALLDATALOAD PUSH1 0xE0 SHR DUP1 PUSH4 0x17D96797 EQ PUSH2 0x151A JUMPI DUP1 PUSH4 0x1A898044 EQ PUSH2 0x146C JUMPI DUP1 PUSH4 0x1D430349 EQ PUSH2 0x1261 JUMPI DUP1 PUSH4 0x2DBCAF0F EQ PUSH2 0x11A8 JUMPI DUP1 PUSH4 0x41EE1495 EQ PUSH2 0x1113 JUMPI DUP1 PUSH4 0x4E03317B EQ PUSH2 0xFF7 JUMPI DUP1 PUSH4 0x51C2D326 EQ PUSH2 0xF94 JUMPI DUP1 PUSH4 0x5850607C EQ PUSH2 0xF3F JUMPI DUP1 PUSH4 0x70C056B0 EQ PUSH2 0xBFA JUMPI DUP1 PUSH4 0x7E8F8DA7 EQ PUSH2 0x834 JUMPI DUP1 PUSH4 0x87FECD3E EQ PUSH2 0x614 JUMPI DUP1 PUSH4 0x9C0ABFD8 EQ PUSH2 0x4FF JUMPI DUP1 PUSH4 0xBBD0B8A9 EQ PUSH2 0x3BA JUMPI DUP1 PUSH4 0xCB43B77F EQ PUSH2 0x1DA JUMPI DUP1 PUSH4 0xD0927B19 EQ PUSH2 0x154 JUMPI PUSH4 0xF14261D2 EQ PUSH2 0xCA JUMPI PUSH0 DUP1 REVERT JUMPDEST CALLVALUE PUSH2 0x151 JUMPI DUP1 PUSH1 0x3 NOT CALLDATASIZE ADD SLT PUSH2 0x151 JUMPI PUSH1 0x2 SLOAD PUSH1 0x40 MLOAD PUSH4 0x78A130E9 PUSH1 0xE1 SHL DUP2 MSTORE SWAP1 DUP3 SWAP1 DUP3 SWAP1 PUSH1 0x4 SWAP1 DUP3 SWAP1 PUSH1 0x1 PUSH1 0x1 PUSH1 0xA0 SHL SUB AND GAS STATICCALL SWAP1 DUP2 ISZERO PUSH2 0x146 JUMPI DUP3 PUSH2 0x11F SWAP4 SWAP3 PUSH2 0x123 JUMPI JUMPDEST POP POP PUSH1 0x40 MLOAD SWAP2 DUP3 SWAP2 DUP3 PUSH2 0x1B3B JUMP JUMPDEST SUB SWAP1 RETURN JUMPDEST PUSH2 0x13F SWAP3 POP RETURNDATASIZE DUP1 SWAP2 DUP4 RETURNDATACOPY PUSH2 0x137 DUP2 DUP4 PUSH2 0x15FD JUMP JUMPDEST DUP2 ADD SWAP1 PUSH2 0x2078 JUMP JUMPDEST PUSH0 DUP1 PUSH2 0x111 JUMP JUMPDEST PUSH1 0x40 MLOAD RETURNDATASIZE DUP5 DUP3 RETURNDATACOPY RETURNDATASIZE SWAP1 REVERT JUMPDEST DUP1 REVERT JUMPDEST POP CALLVALUE PUSH2 0x151 JUMPI PUSH1 0x20 CALLDATASIZE PUSH1 0x3 NOT ADD SLT PUSH2 0x151 JUMPI PUSH1 0x4 CALLDATALOAD DUP2 PUSH1 0x1 PUSH1 0x1 PUSH1 0x40 SHL SUB DUP3 GT PUSH2 0x151 JUMPI PUSH2 0x189 PUSH2 0x1B7 SWAP3 CALLDATASIZE SWAP1 PUSH1 0x4 ADD PUSH2 0x1639 JUMP JUMPDEST PUSH1 0x1 DUP1 PUSH1 0xA0 SHL SUB PUSH1 0x2 SLOAD AND PUSH1 0x40 MLOAD DUP1 DUP1 SWAP6 DUP2 SWAP5 PUSH4 0x6F12C23 PUSH1 0xE4 SHL DUP4 MSTORE PUSH1 0x20 PUSH1 0x4 DUP5 ADD MSTORE PUSH1 0x24 DUP4 ADD SWAP1 PUSH2 0x167F JUMP JUMPDEST SUB SWAP2 GAS STATICCALL SWAP1 DUP2 ISZERO PUSH2 0x146 JUMPI DUP3 PUSH2 0x11F SWAP4 SWAP3 PUSH2 0x123 JUMPI POP POP PUSH1 0x40 MLOAD SWAP2 DUP3 SWAP2 DUP3 PUSH2 0x1B3B JUMP JUMPDEST POP CALLVALUE PUSH2 0x151 JUMPI PUSH1 0x60 CALLDATASIZE PUSH1 0x3 NOT ADD SLT PUSH2 0x151 JUMPI PUSH1 0x4 CALLDATALOAD PUSH1 0x1 PUSH1 0x1 PUSH1 0x40 SHL SUB DUP2 GT PUSH2 0x374 JUMPI PUSH2 0x20B SWAP1 CALLDATASIZE SWAP1 PUSH1 0x4 ADD PUSH2 0x16B7 JUMP JUMPDEST DUP2 PUSH1 0x24 CALLDATALOAD PUSH1 0x1 PUSH1 0x1 PUSH1 0x40 SHL SUB DUP2 GT PUSH2 0x374 JUMPI PUSH2 0x22B SWAP1 CALLDATASIZE SWAP1 PUSH1 0x4 ADD PUSH2 0x1D32 JUMP JUMPDEST PUSH1 0x44 CALLDATALOAD PUSH1 0x1 PUSH1 0x1 PUSH1 0x40 SHL SUB DUP2 GT PUSH2 0x3B6 JUMPI PUSH2 0x24A SWAP1 CALLDATASIZE SWAP1 PUSH1 0x4 ADD PUSH2 0x175D JUMP JUMPDEST DUP3 SLOAD PUSH1 0x40 MLOAD PUSH4 0x95A8C58D PUSH1 0xE0 SHL DUP2 MSTORE CALLER PUSH1 0x4 DUP3 ADD MSTORE PUSH1 0x24 DUP2 ADD DUP6 SWAP1 MSTORE SWAP1 PUSH1 0x20 SWAP1 DUP3 SWAP1 PUSH1 0x44 SWAP1 DUP3 SWAP1 PUSH1 0x1 PUSH1 0x1 PUSH1 0xA0 SHL SUB AND GAS STATICCALL DUP1 ISZERO PUSH2 0x3AB JUMPI PUSH2 0x293 SWAP2 DUP6 SWAP2 PUSH2 0x37C JUMPI JUMPDEST POP PUSH2 0x240E JUMP JUMPDEST PUSH1 0x1 SLOAD DUP5 MLOAD SWAP3 SWAP1 PUSH1 0x1 PUSH1 0x1 PUSH1 0xA0 SHL SUB AND DUP1 EXTCODESIZE ISZERO PUSH2 0x378 JUMPI PUSH2 0x2DC DUP6 PUSH2 0x2EE SWAP6 PUSH2 0x300 DUP3 SWAP7 PUSH1 0x40 MLOAD SWAP9 DUP10 SWAP8 DUP9 SWAP7 DUP8 SWAP6 PUSH4 0xE8002B27 PUSH1 0xE0 SHL DUP8 MSTORE PUSH1 0x60 PUSH1 0x4 DUP9 ADD MSTORE PUSH1 0x64 DUP8 ADD SWAP1 PUSH2 0x167F JUMP JUMPDEST DUP6 DUP2 SUB PUSH1 0x3 NOT ADD PUSH1 0x24 DUP8 ADD MSTORE SWAP1 PUSH2 0x1C42 JUMP JUMPDEST DUP4 DUP2 SUB PUSH1 0x3 NOT ADD PUSH1 0x44 DUP6 ADD MSTORE SWAP1 PUSH2 0x1C6F JUMP JUMPDEST SUB SWAP3 GAS CALL DUP1 ISZERO PUSH2 0x146 JUMPI PUSH2 0x35F JUMPI JUMPDEST POP PUSH1 0x40 DUP1 DUP4 ADD MLOAD PUSH1 0x60 DUP5 ADD MLOAD SWAP2 MLOAD PUSH32 0xC77DD947EA8BFD0BD2706C8FAD9B1178313FAD6BD4CB678B9342239BE4F88528 SWAP3 SWAP1 SWAP2 DUP3 SWAP2 PUSH2 0x359 SWAP2 TIMESTAMP SWAP2 PUSH1 0x1 PUSH1 0x1 PUSH1 0xA0 SHL SUB AND SWAP1 DUP5 PUSH2 0x2468 JUMP JUMPDEST SUB SWAP1 LOG1 DUP1 RETURN JUMPDEST DUP2 PUSH2 0x369 SWAP2 PUSH2 0x15FD JUMP JUMPDEST PUSH2 0x374 JUMPI DUP2 PUSH0 PUSH2 0x30F JUMP JUMPDEST POP DUP1 REVERT JUMPDEST DUP5 DUP1 REVERT JUMPDEST PUSH2 0x39E SWAP2 POP PUSH1 0x20 RETURNDATASIZE PUSH1 0x20 GT PUSH2 0x3A4 JUMPI JUMPDEST PUSH2 0x396 DUP2 DUP4 PUSH2 0x15FD JUMP JUMPDEST DUP2 ADD SWAP1 PUSH2 0x1E1B JUMP JUMPDEST PUSH0 PUSH2 0x28D JUMP JUMPDEST POP RETURNDATASIZE PUSH2 0x38C JUMP JUMPDEST PUSH1 0x40 MLOAD RETURNDATASIZE DUP7 DUP3 RETURNDATACOPY RETURNDATASIZE SWAP1 REVERT JUMPDEST DUP3 DUP1 REVERT JUMPDEST POP CALLVALUE PUSH2 0x151 JUMPI PUSH1 0x60 CALLDATASIZE PUSH1 0x3 NOT ADD SLT PUSH2 0x151 JUMPI PUSH1 0x4 CALLDATALOAD PUSH1 0x1 PUSH1 0x1 PUSH1 0x40 SHL SUB DUP2 GT PUSH2 0x374 JUMPI PUSH2 0x3EB SWAP1 CALLDATASIZE SWAP1 PUSH1 0x4 ADD PUSH2 0x16B7 JUMP JUMPDEST DUP2 PUSH1 0x24 CALLDATALOAD PUSH1 0x1 PUSH1 0x1 PUSH1 0x40 SHL SUB DUP2 GT PUSH2 0x374 JUMPI PUSH2 0x40B SWAP1 CALLDATASIZE SWAP1 PUSH1 0x4 ADD PUSH2 0x175D JUMP JUMPDEST PUSH1 0x44 CALLDATALOAD PUSH1 0x1 PUSH1 0x1 PUSH1 0x40 SHL SUB DUP2 GT PUSH2 0x3B6 JUMPI PUSH2 0x42A SWAP1 CALLDATASIZE SWAP1 PUSH1 0x4 ADD PUSH2 0x17B7 JUMP JUMPDEST DUP3 SLOAD PUSH1 0x40 MLOAD PUSH4 0x95A8C58D PUSH1 0xE0 SHL DUP2 MSTORE CALLER PUSH1 0x4 DUP3 ADD MSTORE PUSH1 0x1 PUSH1 0x24 DUP3 ADD MSTORE SWAP1 PUSH1 0x20 SWAP1 DUP3 SWAP1 PUSH1 0x44 SWAP1 DUP3 SWAP1 PUSH1 0x1 PUSH1 0x1 PUSH1 0xA0 SHL SUB AND GAS STATICCALL DUP1 ISZERO PUSH2 0x3AB JUMPI PUSH2 0x473 SWAP2 DUP6 SWAP2 PUSH2 0x4E0 JUMPI JUMPDEST POP PUSH2 0x1E33 JUMP JUMPDEST PUSH1 0x2 SLOAD DUP5 MLOAD SWAP3 SWAP1 PUSH1 0x1 PUSH1 0x1 PUSH1 0xA0 SHL SUB AND DUP1 EXTCODESIZE ISZERO PUSH2 0x378 JUMPI PUSH2 0x4BC DUP6 PUSH2 0x4CE SWAP6 PUSH2 0x300 DUP3 SWAP7 PUSH1 0x40 MLOAD SWAP9 DUP10 SWAP8 DUP9 SWAP7 DUP8 SWAP6 PUSH4 0xA7226527 PUSH1 0xE0 SHL DUP8 MSTORE PUSH1 0x60 PUSH1 0x4 DUP9 ADD MSTORE PUSH1 0x64 DUP8 ADD SWAP1 PUSH2 0x167F JUMP JUMPDEST DUP6 DUP2 SUB PUSH1 0x3 NOT ADD PUSH1 0x24 DUP8 ADD MSTORE SWAP1 PUSH2 0x1C6F JUMP JUMPDEST DUP4 DUP2 SUB PUSH1 0x3 NOT ADD PUSH1 0x44 DUP6 ADD MSTORE SWAP1 PUSH2 0x1C99 JUMP JUMPDEST PUSH2 0x4F9 SWAP2 POP PUSH1 0x20 RETURNDATASIZE PUSH1 0x20 GT PUSH2 0x3A4 JUMPI PUSH2 0x396 DUP2 DUP4 PUSH2 0x15FD JUMP JUMPDEST PUSH0 PUSH2 0x46D JUMP JUMPDEST POP CALLVALUE PUSH2 0x151 JUMPI DUP1 PUSH2 0x50F CALLDATASIZE PUSH2 0x1A0D JUMP JUMPDEST SWAP3 SWAP5 SWAP2 PUSH1 0x44 PUSH1 0x20 PUSH1 0x1 DUP1 PUSH1 0xA0 SWAP9 SWAP6 SWAP9 SHL SUB DUP6 SLOAD AND PUSH1 0x40 MLOAD SWAP3 DUP4 DUP1 SWAP3 PUSH4 0x95A8C58D PUSH1 0xE0 SHL DUP3 MSTORE CALLER PUSH1 0x4 DUP4 ADD MSTORE PUSH1 0x2 PUSH1 0x24 DUP4 ADD MSTORE GAS STATICCALL DUP1 ISZERO PUSH2 0x3AB JUMPI PUSH2 0x55A SWAP2 DUP6 SWAP2 PUSH2 0x5F5 JUMPI JUMPDEST POP PUSH2 0x1EBE JUMP JUMPDEST PUSH1 0x1 SLOAD PUSH1 0x1 PUSH1 0x1 PUSH1 0xA0 SHL SUB AND SWAP1 DUP2 EXTCODESIZE ISZERO PUSH2 0x5F1 JUMPI DUP4 SWAP2 DUP7 SWAP2 DUP4 DUP10 PUSH2 0x596 PUSH1 0x40 MLOAD SWAP8 DUP9 SWAP7 DUP8 SWAP6 DUP7 SWAP5 PUSH4 0xE462DDE5 PUSH1 0xE0 SHL DUP7 MSTORE CALLER SWAP4 PUSH1 0x4 DUP8 ADD PUSH2 0x1FC7 JUMP JUMPDEST SUB SWAP3 GAS CALL DUP1 ISZERO PUSH2 0x146 JUMPI PUSH2 0x5DC JUMPI JUMPDEST POP POP PUSH2 0x359 PUSH32 0xA4A4ED86DCE7C96C7821A45FBBE8394915281A2A2FA758AB0465B199C571ABFB SWAP4 PUSH1 0x40 MLOAD SWAP4 DUP5 SWAP4 TIMESTAMP SWAP2 CALLER SWAP1 DUP7 PUSH2 0x2025 JUMP JUMPDEST DUP2 PUSH2 0x5E6 SWAP2 PUSH2 0x15FD JUMP JUMPDEST PUSH2 0x5F1 JUMPI DUP4 PUSH0 PUSH2 0x5A5 JUMP JUMPDEST DUP4 DUP1 REVERT JUMPDEST PUSH2 0x60E SWAP2 POP PUSH1 0x20 RETURNDATASIZE PUSH1 0x20 GT PUSH2 0x3A4 JUMPI PUSH2 0x396 DUP2 DUP4 PUSH2 0x15FD JUMP JUMPDEST PUSH0 PUSH2 0x554 JUMP JUMPDEST POP CALLVALUE PUSH2 0x151 JUMPI PUSH1 0xA0 CALLDATASIZE PUSH1 0x3 NOT ADD SLT PUSH2 0x151 JUMPI PUSH1 0x4 CALLDATALOAD PUSH1 0x1 PUSH1 0x1 PUSH1 0x40 SHL SUB DUP2 GT PUSH2 0x374 JUMPI PUSH2 0x645 SWAP1 CALLDATASIZE SWAP1 PUSH1 0x4 ADD PUSH2 0x16B7 JUMP JUMPDEST PUSH2 0x64D PUSH2 0x174D JUMP JUMPDEST DUP3 PUSH1 0x44 CALLDATALOAD PUSH1 0x1 PUSH1 0x1 PUSH1 0x40 SHL SUB DUP2 GT PUSH2 0x374 JUMPI PUSH2 0x66D SWAP1 CALLDATASIZE SWAP1 PUSH1 0x4 ADD PUSH2 0x1639 JUMP JUMPDEST SWAP3 PUSH1 0x64 CALLDATALOAD PUSH1 0x1 PUSH1 0x1 PUSH1 0x40 SHL SUB DUP2 GT PUSH2 0x3B6 JUMPI PUSH2 0x68D SWAP1 CALLDATASIZE SWAP1 PUSH1 0x4 ADD PUSH2 0x1D32 JUMP JUMPDEST PUSH1 0x84 CALLDATALOAD PUSH1 0x1 PUSH1 0x1 PUSH1 0x40 SHL SUB DUP2 GT PUSH2 0x5F1 JUMPI PUSH2 0x6AC SWAP1 CALLDATASIZE SWAP1 PUSH1 0x4 ADD PUSH2 0x175D JUMP JUMPDEST SWAP2 PUSH1 0x44 PUSH1 0x20 PUSH1 0x1 DUP1 PUSH1 0xA0 SHL SUB DUP7 SLOAD AND PUSH1 0x40 MLOAD SWAP3 DUP4 DUP1 SWAP3 PUSH4 0x95A8C58D PUSH1 0xE0 SHL DUP3 MSTORE CALLER PUSH1 0x4 DUP4 ADD MSTORE DUP10 PUSH1 0x24 DUP4 ADD MSTORE GAS STATICCALL DUP1 ISZERO PUSH2 0x829 JUMPI PUSH2 0x6F0 SWAP2 DUP7 SWAP2 PUSH2 0x37C JUMPI POP PUSH2 0x240E JUMP JUMPDEST PUSH1 0x1 DUP1 PUSH1 0xA0 SHL SUB PUSH1 0x1 SLOAD AND DUP2 MLOAD SWAP7 PUSH1 0x20 DUP4 ADD MLOAD SWAP1 PUSH1 0x40 DUP5 ADD SWAP9 DUP10 MLOAD SWAP5 PUSH1 0x60 PUSH1 0x1 DUP1 PUSH1 0xA0 SHL SUB SWAP2 ADD MLOAD AND SWAP7 DUP5 EXTCODESIZE ISZERO PUSH2 0x825 JUMPI DUP9 SWAP7 DUP8 SWAP4 PUSH1 0x40 MLOAD SWAP10 DUP11 SWAP9 DUP10 SWAP8 DUP9 SWAP7 PUSH4 0x64B409FF PUSH1 0xE0 SHL DUP9 MSTORE PUSH1 0x4 DUP9 ADD PUSH2 0x100 SWAP1 MSTORE PUSH2 0x104 DUP9 ADD PUSH2 0x750 SWAP2 PUSH2 0x167F JUMP JUMPDEST DUP8 DUP2 SUB PUSH1 0x3 NOT ADD PUSH1 0x24 DUP10 ADD MSTORE PUSH2 0x765 SWAP2 PUSH2 0x167F JUMP JUMPDEST DUP7 DUP2 SUB PUSH1 0x3 NOT ADD PUSH1 0x44 DUP9 ADD MSTORE PUSH2 0x77A SWAP2 PUSH2 0x167F JUMP JUMPDEST SWAP1 PUSH1 0x64 DUP7 ADD MSTORE PUSH1 0xFF DUP14 AND PUSH1 0x84 DUP7 ADD MSTORE PUSH1 0x3 NOT DUP6 DUP3 SUB ADD PUSH1 0xA4 DUP7 ADD MSTORE PUSH2 0x79E SWAP2 PUSH2 0x167F JUMP JUMPDEST DUP4 DUP2 SUB PUSH1 0x3 NOT ADD PUSH1 0xC4 DUP6 ADD MSTORE PUSH2 0x7B3 SWAP2 PUSH2 0x1C42 JUMP JUMPDEST DUP3 DUP2 SUB PUSH1 0x3 NOT ADD PUSH1 0xE4 DUP5 ADD MSTORE PUSH2 0x7C8 SWAP2 PUSH2 0x1C6F JUMP JUMPDEST SUB SWAP3 GAS CALL DUP1 ISZERO PUSH2 0x146 JUMPI PUSH2 0x810 JUMPI JUMPDEST POP POP PUSH32 0xF52A0795D3C1A788D33423AA105BE7A0AAA157621A984632251E0C2ED142D040 SWAP2 MLOAD SWAP1 PUSH2 0x359 PUSH1 0x40 MLOAD SWAP3 DUP4 SWAP3 TIMESTAMP SWAP2 CALLER SWAP1 DUP6 PUSH2 0x1E89 JUMP JUMPDEST DUP2 PUSH2 0x81A SWAP2 PUSH2 0x15FD JUMP JUMPDEST PUSH2 0x3B6 JUMPI DUP3 PUSH0 PUSH2 0x7D7 JUMP JUMPDEST DUP9 DUP1 REVERT JUMPDEST PUSH1 0x40 MLOAD RETURNDATASIZE DUP8 DUP3 RETURNDATACOPY RETURNDATASIZE SWAP1 REVERT JUMPDEST POP CALLVALUE PUSH2 0x151 JUMPI PUSH1 0x20 CALLDATASIZE PUSH1 0x3 NOT ADD SLT PUSH2 0x151 JUMPI PUSH1 0x4 CALLDATALOAD PUSH1 0x1 PUSH1 0x1 PUSH1 0x40 SHL SUB DUP2 GT PUSH2 0x374 JUMPI PUSH2 0x865 SWAP1 CALLDATASIZE SWAP1 PUSH1 0x4 ADD PUSH2 0x1639 JUMP JUMPDEST PUSH2 0x86D PUSH2 0x2203 JUMP JUMPDEST POP PUSH2 0x876 PUSH2 0x21E3 JUMP JUMPDEST POP PUSH2 0x87F PUSH2 0x224D JUMP JUMPDEST POP PUSH1 0x60 PUSH1 0xE0 PUSH1 0x40 MLOAD PUSH2 0x890 DUP2 PUSH2 0x15C6 JUMP JUMPDEST DUP3 DUP2 MSTORE DUP3 PUSH1 0x20 DUP3 ADD MSTORE DUP3 PUSH1 0x40 DUP3 ADD MSTORE DUP3 DUP1 DUP3 ADD MSTORE DUP3 PUSH1 0x80 DUP3 ADD MSTORE DUP3 PUSH1 0xA0 DUP3 ADD MSTORE DUP3 PUSH1 0xC0 DUP3 ADD MSTORE ADD MSTORE PUSH1 0x1 DUP1 PUSH1 0xA0 SHL SUB PUSH1 0x2 SLOAD AND PUSH1 0x40 MLOAD SWAP1 PUSH4 0x7E8F8DA7 PUSH1 0xE0 SHL DUP3 MSTORE PUSH1 0x20 PUSH1 0x4 DUP4 ADD MSTORE DUP4 DUP3 DUP1 PUSH2 0x8E8 PUSH1 0x24 DUP3 ADD DUP8 PUSH2 0x167F JUMP JUMPDEST SUB DUP2 DUP5 GAS STATICCALL SWAP1 DUP2 ISZERO PUSH2 0x3AB JUMPI DUP5 DUP1 SWAP2 DUP2 SWAP5 DUP3 SWAP5 PUSH2 0x9E4 JUMPI JUMPDEST POP SWAP5 PUSH2 0x92A SWAP5 SWAP6 PUSH1 0x40 MLOAD DUP1 DUP1 SWAP8 DUP2 SWAP5 PUSH4 0xBE2E2325 PUSH1 0xE0 SHL DUP4 MSTORE PUSH1 0x20 PUSH1 0x4 DUP5 ADD MSTORE PUSH1 0x24 DUP4 ADD SWAP1 PUSH2 0x167F JUMP JUMPDEST SUB SWAP2 GAS STATICCALL SWAP3 DUP4 ISZERO PUSH2 0x829 JUMPI DUP6 PUSH2 0x95F SWAP7 SWAP5 PUSH2 0x9B6 JUMPI JUMPDEST POP POP PUSH2 0x9A8 SWAP1 PUSH2 0x11F SWAP4 SWAP5 PUSH1 0x40 MLOAD SWAP7 DUP8 SWAP7 PUSH1 0x80 DUP9 MSTORE PUSH1 0x80 DUP9 ADD SWAP1 PUSH2 0x1BC6 JUMP JUMPDEST DUP7 DUP2 SUB PUSH1 0x20 DUP9 ADD MSTORE PUSH1 0x40 PUSH1 0xFF DUP2 PUSH2 0x994 PUSH2 0x982 DUP8 MLOAD PUSH1 0x60 DUP8 MSTORE PUSH1 0x60 DUP8 ADD SWAP1 PUSH2 0x167F JUMP JUMPDEST PUSH1 0x20 DUP9 ADD MLOAD DUP7 DUP3 SUB PUSH1 0x20 DUP9 ADD MSTORE PUSH2 0x167F JUMP JUMPDEST SWAP6 ADD MLOAD AND SWAP2 ADD MSTORE DUP6 DUP3 SUB PUSH1 0x40 DUP8 ADD MSTORE PUSH2 0x1C6F JUMP JUMPDEST SWAP1 DUP4 DUP3 SUB PUSH1 0x60 DUP6 ADD MSTORE PUSH2 0x1C99 JUMP JUMPDEST PUSH2 0x11F SWAP5 POP PUSH2 0x9A8 SWAP3 SWAP2 PUSH2 0x9DB SWAP2 RETURNDATASIZE DUP1 SWAP2 DUP4 RETURNDATACOPY PUSH2 0x9D3 DUP2 DUP4 PUSH2 0x15FD JUMP JUMPDEST DUP2 ADD SWAP1 PUSH2 0x2338 JUMP JUMPDEST SWAP4 DUP2 SWAP3 POP PUSH2 0x940 JUMP JUMPDEST SWAP5 POP SWAP3 POP POP POP RETURNDATASIZE DUP1 DUP6 DUP5 RETURNDATACOPY PUSH2 0x9F9 DUP2 DUP5 PUSH2 0x15FD JUMP JUMPDEST DUP3 ADD SWAP2 PUSH1 0x60 DUP2 DUP5 SUB SLT PUSH2 0x378 JUMPI DUP5 DUP2 MLOAD PUSH1 0x1 PUSH1 0x1 PUSH1 0x40 SHL SUB DUP2 GT PUSH2 0x374 JUMPI DUP3 ADD SWAP5 PUSH1 0x60 DUP7 DUP7 SUB SLT PUSH2 0x374 JUMPI PUSH1 0x40 MLOAD SWAP6 PUSH2 0xA31 DUP8 PUSH2 0x15AB JUMP JUMPDEST DUP1 MLOAD PUSH1 0x1 PUSH1 0x1 PUSH1 0x40 SHL SUB DUP2 GT PUSH2 0x5F1 JUMPI DUP7 PUSH2 0xA4D SWAP2 DUP4 ADD PUSH2 0x1DB0 JUMP JUMPDEST DUP8 MSTORE PUSH1 0x20 DUP2 ADD MLOAD PUSH1 0x1 PUSH1 0x1 PUSH1 0x40 SHL SUB DUP2 GT PUSH2 0x5F1 JUMPI DUP2 PUSH2 0xA74 DUP9 PUSH1 0x40 SWAP4 PUSH2 0xA7F SWAP6 ADD PUSH2 0x1DB0 JUMP JUMPDEST PUSH1 0x20 DUP11 ADD MSTORE ADD PUSH2 0x206A JUMP JUMPDEST PUSH1 0x40 DUP8 ADD MSTORE PUSH1 0x20 DUP4 ADD MLOAD PUSH1 0x1 PUSH1 0x1 PUSH1 0x40 SHL SUB DUP2 GT PUSH2 0x3B6 JUMPI DUP6 PUSH2 0xAA3 SWAP2 DUP6 ADD PUSH2 0x2266 JUMP JUMPDEST SWAP3 PUSH1 0x40 DUP2 ADD MLOAD SWAP1 PUSH1 0x1 PUSH1 0x1 PUSH1 0x40 SHL SUB DUP3 GT PUSH2 0x5F1 JUMPI ADD SWAP6 PUSH2 0x100 DUP8 DUP8 SUB SLT PUSH2 0x3B6 JUMPI PUSH1 0x40 MLOAD SWAP7 PUSH2 0xAD2 DUP9 PUSH2 0x15C6 JUMP JUMPDEST DUP1 MLOAD PUSH1 0x1 PUSH1 0x1 PUSH1 0x40 SHL SUB DUP2 GT PUSH2 0x378 JUMPI DUP8 PUSH2 0xAEE SWAP2 DUP4 ADD PUSH2 0x1DB0 JUMP JUMPDEST DUP9 MSTORE PUSH1 0x20 DUP2 ADD MLOAD PUSH1 0x1 PUSH1 0x1 PUSH1 0x40 SHL SUB DUP2 GT PUSH2 0x378 JUMPI DUP8 PUSH2 0xB0F SWAP2 DUP4 ADD PUSH2 0x1DB0 JUMP JUMPDEST PUSH1 0x20 DUP10 ADD MSTORE PUSH1 0x40 DUP2 ADD MLOAD PUSH1 0x1 PUSH1 0x1 PUSH1 0x40 SHL SUB DUP2 GT PUSH2 0x378 JUMPI DUP8 PUSH2 0xB33 SWAP2 DUP4 ADD PUSH2 0x1DB0 JUMP JUMPDEST PUSH1 0x40 DUP10 ADD MSTORE PUSH1 0x60 DUP2 ADD MLOAD PUSH1 0x1 PUSH1 0x1 PUSH1 0x40 SHL SUB DUP2 GT PUSH2 0x378 JUMPI DUP8 PUSH2 0xB57 SWAP2 DUP4 ADD PUSH2 0x1DB0 JUMP JUMPDEST PUSH1 0x60 DUP10 ADD MSTORE PUSH1 0x80 DUP2 ADD MLOAD PUSH1 0x1 PUSH1 0x1 PUSH1 0x40 SHL SUB DUP2 GT PUSH2 0x378 JUMPI DUP8 PUSH2 0xB7B SWAP2 DUP4 ADD PUSH2 0x1DB0 JUMP JUMPDEST PUSH1 0x80 DUP10 ADD MSTORE PUSH1 0xA0 DUP2 ADD MLOAD PUSH1 0x1 PUSH1 0x1 PUSH1 0x40 SHL SUB DUP2 GT PUSH2 0x378 JUMPI DUP8 PUSH2 0xB9F SWAP2 DUP4 ADD PUSH2 0x1DB0 JUMP JUMPDEST PUSH1 0xA0 DUP10 ADD MSTORE PUSH1 0xC0 DUP2 ADD MLOAD PUSH1 0x1 PUSH1 0x1 PUSH1 0x40 SHL SUB DUP2 GT PUSH2 0x378 JUMPI DUP8 PUSH2 0xBC3 SWAP2 DUP4 ADD PUSH2 0x1DB0 JUMP JUMPDEST PUSH1 0xC0 DUP10 ADD MSTORE PUSH1 0xE0 DUP2 ADD MLOAD SWAP7 PUSH1 0x1 PUSH1 0x1 PUSH1 0x40 SHL SUB DUP9 GT PUSH2 0x378 JUMPI PUSH2 0x92A SWAP8 PUSH2 0xBEA SWAP3 ADD PUSH2 0x1DB0 JUMP JUMPDEST PUSH1 0xE0 DUP9 ADD MSTORE SWAP3 SWAP6 SWAP4 SWAP1 SWAP6 SWAP5 PUSH2 0x900 JUMP JUMPDEST POP CALLVALUE PUSH2 0x151 JUMPI PUSH1 0x20 CALLDATASIZE PUSH1 0x3 NOT ADD SLT PUSH2 0x151 JUMPI PUSH1 0x4 CALLDATALOAD PUSH1 0x1 PUSH1 0x1 PUSH1 0x40 SHL SUB DUP2 GT PUSH2 0x374 JUMPI PUSH2 0xC2B SWAP1 CALLDATASIZE SWAP1 PUSH1 0x4 ADD PUSH2 0x1639 JUMP JUMPDEST PUSH2 0xC33 PUSH2 0x2203 JUMP JUMPDEST POP PUSH1 0x60 DUP1 PUSH1 0x40 MLOAD PUSH2 0xC43 DUP2 PUSH2 0x157C JUMP JUMPDEST DUP2 DUP2 MSTORE DUP2 PUSH1 0x20 DUP3 ADD MSTORE DUP5 PUSH1 0x40 DUP3 ADD MSTORE ADD MSTORE PUSH1 0x60 PUSH1 0x40 DUP1 MLOAD PUSH2 0xC63 DUP2 PUSH2 0x15AB JUMP JUMPDEST DUP3 DUP2 MSTORE DUP3 PUSH1 0x20 DUP3 ADD MSTORE ADD MSTORE PUSH2 0xC76 PUSH2 0x224D JUMP JUMPDEST POP PUSH1 0x1 SLOAD PUSH1 0x40 MLOAD PUSH4 0x70C056B PUSH1 0xE4 SHL DUP2 MSTORE PUSH1 0x20 PUSH1 0x4 DUP3 ADD MSTORE SWAP2 SWAP1 PUSH1 0x1 PUSH1 0x1 PUSH1 0xA0 SHL SUB AND DUP4 DUP4 DUP1 PUSH2 0xCA9 PUSH1 0x24 DUP3 ADD DUP7 PUSH2 0x167F JUMP JUMPDEST SUB DUP2 DUP5 GAS STATICCALL SWAP1 DUP2 ISZERO PUSH2 0x3AB JUMPI DUP5 DUP1 SWAP4 DUP2 SWAP3 DUP3 SWAP5 PUSH2 0xDB8 JUMPI JUMPDEST PUSH2 0xCEA SWAP6 SWAP7 POP PUSH1 0x40 MLOAD DUP1 DUP1 SWAP8 DUP2 SWAP5 PUSH4 0xBE2E2325 PUSH1 0xE0 SHL DUP4 MSTORE PUSH1 0x20 PUSH1 0x4 DUP5 ADD MSTORE PUSH1 0x24 DUP4 ADD SWAP1 PUSH2 0x167F JUMP JUMPDEST SUB SWAP2 GAS STATICCALL SWAP3 DUP4 ISZERO PUSH2 0x829 JUMPI DUP6 PUSH2 0xD22 SWAP7 SWAP5 PUSH2 0xD8E JUMPI JUMPDEST POP POP PUSH2 0xD80 SWAP1 PUSH2 0xD72 PUSH2 0x11F SWAP5 SWAP6 PUSH1 0x40 MLOAD SWAP8 DUP9 SWAP8 PUSH1 0x80 DUP10 MSTORE PUSH1 0x80 DUP10 ADD SWAP1 PUSH2 0x1BC6 JUMP JUMPDEST DUP8 DUP2 SUB PUSH1 0x20 DUP10 ADD MSTORE PUSH1 0x60 PUSH2 0xD54 PUSH2 0xD42 DUP5 MLOAD PUSH1 0x80 DUP6 MSTORE PUSH1 0x80 DUP6 ADD SWAP1 PUSH2 0x167F JUMP JUMPDEST PUSH1 0x20 DUP6 ADD MLOAD DUP5 DUP3 SUB PUSH1 0x20 DUP7 ADD MSTORE PUSH2 0x167F JUMP JUMPDEST SWAP3 PUSH1 0xFF PUSH1 0x40 DUP3 ADD MLOAD AND PUSH1 0x40 DUP5 ADD MSTORE ADD MLOAD SWAP1 PUSH1 0x60 DUP2 DUP5 SUB SWAP2 ADD MSTORE PUSH2 0x167F JUMP JUMPDEST SWAP1 DUP6 DUP3 SUB PUSH1 0x40 DUP8 ADD MSTORE PUSH2 0x1C42 JUMP JUMPDEST SWAP1 DUP4 DUP3 SUB PUSH1 0x60 DUP6 ADD MSTORE PUSH2 0x1C6F JUMP JUMPDEST PUSH2 0x11F SWAP5 POP PUSH2 0xDAE PUSH2 0xD80 SWAP4 SWAP3 PUSH2 0xD72 SWAP3 RETURNDATASIZE DUP1 SWAP2 DUP4 RETURNDATACOPY PUSH2 0x9D3 DUP2 DUP4 PUSH2 0x15FD JUMP JUMPDEST SWAP5 POP DUP2 SWAP3 POP PUSH2 0xD00 JUMP JUMPDEST SWAP4 POP SWAP4 POP POP POP RETURNDATASIZE DUP1 DUP6 DUP6 RETURNDATACOPY PUSH2 0xDCD DUP2 DUP6 PUSH2 0x15FD JUMP JUMPDEST DUP4 ADD SWAP2 PUSH1 0x60 DUP5 DUP5 SUB SLT PUSH2 0x378 JUMPI DUP5 DUP5 MLOAD PUSH1 0x1 PUSH1 0x1 PUSH1 0x40 SHL SUB DUP2 GT PUSH2 0x374 JUMPI DUP6 ADD SWAP2 PUSH1 0x80 DUP4 DUP7 SUB SLT PUSH2 0x374 JUMPI PUSH1 0x40 MLOAD SWAP3 PUSH2 0xE05 DUP5 PUSH2 0x157C JUMP JUMPDEST DUP1 MLOAD PUSH1 0x1 PUSH1 0x1 PUSH1 0x40 SHL SUB DUP2 GT PUSH2 0x5F1 JUMPI DUP7 PUSH2 0xE21 SWAP2 DUP4 ADD PUSH2 0x1DB0 JUMP JUMPDEST DUP5 MSTORE PUSH1 0x20 DUP2 ADD MLOAD PUSH1 0x1 PUSH1 0x1 PUSH1 0x40 SHL SUB DUP2 GT PUSH2 0x5F1 JUMPI DUP7 PUSH2 0xE42 SWAP2 DUP4 ADD PUSH2 0x1DB0 JUMP JUMPDEST PUSH1 0x20 DUP6 ADD MSTORE PUSH2 0xE53 PUSH1 0x40 DUP3 ADD PUSH2 0x206A JUMP JUMPDEST PUSH1 0x40 DUP6 ADD MSTORE PUSH1 0x60 DUP2 ADD MLOAD SWAP1 PUSH1 0x1 PUSH1 0x1 PUSH1 0x40 SHL SUB DUP3 GT PUSH2 0x5F1 JUMPI PUSH2 0xE78 SWAP2 DUP8 SWAP2 ADD PUSH2 0x1DB0 JUMP JUMPDEST PUSH1 0x60 DUP5 ADD MSTORE PUSH1 0x20 DUP7 ADD MLOAD PUSH1 0x1 PUSH1 0x1 PUSH1 0x40 SHL SUB DUP2 GT PUSH2 0x3B6 JUMPI DUP7 ADD SWAP6 PUSH1 0x60 DUP8 DUP8 SUB SLT PUSH2 0x3B6 JUMPI PUSH1 0x40 MLOAD SWAP7 PUSH2 0xEAA DUP9 PUSH2 0x15AB JUMP JUMPDEST DUP1 MLOAD PUSH1 0x1 PUSH1 0x1 PUSH1 0x40 SHL SUB DUP2 GT PUSH2 0x378 JUMPI DUP8 PUSH2 0xEC6 SWAP2 DUP4 ADD PUSH2 0x1DB0 JUMP JUMPDEST DUP9 MSTORE PUSH1 0x20 DUP2 ADD MLOAD PUSH1 0x1 PUSH1 0x1 PUSH1 0x40 SHL SUB DUP2 GT PUSH2 0x378 JUMPI DUP8 PUSH2 0xEE7 SWAP2 DUP4 ADD PUSH2 0x1DB0 JUMP JUMPDEST PUSH1 0x20 DUP10 ADD MSTORE PUSH1 0x40 DUP2 ADD MLOAD SWAP1 PUSH1 0x1 PUSH1 0x1 PUSH1 0x40 SHL SUB DUP3 GT PUSH2 0x378 JUMPI PUSH2 0xF0C SWAP2 DUP9 SWAP2 ADD PUSH2 0x1DB0 JUMP JUMPDEST PUSH1 0x40 DUP9 ADD MSTORE PUSH1 0x40 DUP2 ADD MLOAD SWAP6 PUSH1 0x1 PUSH1 0x1 PUSH1 0x40 SHL SUB DUP8 GT PUSH2 0x5F1 JUMPI PUSH2 0xCEA SWAP7 PUSH2 0xF33 SWAP3 ADD PUSH2 0x2266 JUMP JUMPDEST SWAP3 SWAP6 SWAP3 SWAP4 DUP7 SWAP6 POP PUSH2 0xCC1 JUMP JUMPDEST POP CALLVALUE PUSH2 0x151 JUMPI DUP1 PUSH1 0x3 NOT CALLDATASIZE ADD SLT PUSH2 0x151 JUMPI PUSH1 0x1 SLOAD PUSH1 0x40 MLOAD PUSH4 0x1614181F PUSH1 0xE2 SHL DUP2 MSTORE SWAP1 DUP3 SWAP1 DUP3 SWAP1 PUSH1 0x4 SWAP1 DUP3 SWAP1 PUSH1 0x1 PUSH1 0x1 PUSH1 0xA0 SHL SUB AND GAS STATICCALL SWAP1 DUP2 ISZERO PUSH2 0x146 JUMPI DUP3 PUSH2 0x11F SWAP4 SWAP3 PUSH2 0x123 JUMPI POP POP PUSH1 0x40 MLOAD SWAP2 DUP3 SWAP2 DUP3 PUSH2 0x1B3B JUMP JUMPDEST POP CALLVALUE PUSH2 0x151 JUMPI PUSH1 0x20 CALLDATASIZE PUSH1 0x3 NOT ADD SLT PUSH2 0x151 JUMPI PUSH1 0x4 CALLDATALOAD DUP2 PUSH1 0x1 PUSH1 0x1 PUSH1 0x40 SHL SUB DUP3 GT PUSH2 0x151 JUMPI PUSH2 0xFC9 PUSH2 0x1B7 SWAP3 CALLDATASIZE SWAP1 PUSH1 0x4 ADD PUSH2 0x1639 JUMP JUMPDEST PUSH1 0x1 DUP1 PUSH1 0xA0 SHL SUB PUSH1 0x1 SLOAD AND PUSH1 0x40 MLOAD DUP1 DUP1 SWAP6 DUP2 SWAP5 PUSH4 0x81FC60A5 PUSH1 0xE0 SHL DUP4 MSTORE PUSH1 0x20 PUSH1 0x4 DUP5 ADD MSTORE PUSH1 0x24 DUP4 ADD SWAP1 PUSH2 0x167F JUMP JUMPDEST POP CALLVALUE PUSH2 0x151 JUMPI PUSH2 0x1006 CALLDATASIZE PUSH2 0x18EA JUMP JUMPDEST DUP4 SLOAD PUSH1 0x40 MLOAD PUSH4 0x95A8C58D PUSH1 0xE0 SHL DUP2 MSTORE CALLER PUSH1 0x4 DUP3 ADD MSTORE PUSH1 0x2 PUSH1 0x24 DUP3 ADD MSTORE SWAP3 SWAP4 SWAP3 SWAP1 PUSH1 0x20 SWAP1 DUP3 SWAP1 PUSH1 0x44 SWAP1 DUP3 SWAP1 PUSH1 0x1 PUSH1 0x1 PUSH1 0xA0 SHL SUB AND GAS STATICCALL DUP1 ISZERO PUSH2 0x829 JUMPI PUSH2 0x1051 SWAP2 DUP7 SWAP2 PUSH2 0x5F5 JUMPI POP PUSH2 0x1EBE JUMP JUMPDEST DUP4 PUSH1 0x1 DUP1 PUSH1 0xA0 SHL SUB PUSH1 0x1 SLOAD AND SWAP3 DUP1 MLOAD PUSH1 0x20 DUP3 ADD SWAP5 DUP6 MLOAD SWAP1 PUSH1 0x40 DUP5 ADD MLOAD SWAP2 PUSH1 0x60 DUP6 ADD SWAP9 DUP10 MLOAD SWAP6 PUSH1 0x80 PUSH1 0x1 DUP1 PUSH1 0xA0 SHL SUB SWAP2 ADD MLOAD AND SWAP5 DUP4 EXTCODESIZE ISZERO PUSH2 0x110F JUMPI PUSH2 0x10B0 DUP9 SWAP7 SWAP3 DUP8 SWAP4 PUSH1 0x40 MLOAD SWAP10 DUP11 SWAP9 DUP10 SWAP8 DUP9 SWAP7 PUSH4 0x173C921 PUSH1 0xE7 SHL DUP9 MSTORE PUSH1 0x4 DUP9 ADD PUSH2 0x1F15 JUMP JUMPDEST SUB SWAP3 GAS CALL DUP1 ISZERO PUSH2 0x146 JUMPI PUSH2 0x10FA JUMPI JUMPDEST POP POP PUSH2 0x359 PUSH32 0xC8C9CCC57AD2F7823680B448DD87B511B225EB0AC2E99E0AA88E7A26EBC6CBE5 SWAP4 MLOAD SWAP3 MLOAD SWAP3 PUSH1 0x40 MLOAD SWAP4 DUP5 SWAP4 TIMESTAMP SWAP3 CALLER SWAP1 DUP7 PUSH2 0x1F81 JUMP JUMPDEST DUP2 PUSH2 0x1104 SWAP2 PUSH2 0x15FD JUMP JUMPDEST PUSH2 0x5F1 JUMPI DUP4 PUSH0 PUSH2 0x10BF JUMP JUMPDEST DUP8 DUP1 REVERT JUMPDEST POP CALLVALUE PUSH2 0x151 JUMPI DUP1 PUSH2 0x1123 CALLDATASIZE PUSH2 0x1A0D JUMP JUMPDEST SWAP3 SWAP5 SWAP2 PUSH1 0x44 PUSH1 0x20 PUSH1 0x1 DUP1 PUSH1 0xA0 SWAP9 SWAP6 SWAP9 SHL SUB DUP6 SLOAD AND PUSH1 0x40 MLOAD SWAP3 DUP4 DUP1 SWAP3 PUSH4 0x95A8C58D PUSH1 0xE0 SHL DUP3 MSTORE CALLER PUSH1 0x4 DUP4 ADD MSTORE PUSH1 0x2 PUSH1 0x24 DUP4 ADD MSTORE GAS STATICCALL DUP1 ISZERO PUSH2 0x3AB JUMPI PUSH2 0x116D SWAP2 DUP6 SWAP2 PUSH2 0x5F5 JUMPI POP PUSH2 0x1EBE JUMP JUMPDEST PUSH1 0x2 SLOAD PUSH1 0x1 PUSH1 0x1 PUSH1 0xA0 SHL SUB AND SWAP1 DUP2 EXTCODESIZE ISZERO PUSH2 0x5F1 JUMPI DUP4 SWAP2 DUP7 SWAP2 DUP4 DUP10 PUSH2 0x596 PUSH1 0x40 MLOAD SWAP8 DUP9 SWAP7 DUP8 SWAP6 DUP7 SWAP5 PUSH3 0x1ACF25 PUSH1 0xE8 SHL DUP7 MSTORE CALLER SWAP4 PUSH1 0x4 DUP8 ADD PUSH2 0x1FC7 JUMP JUMPDEST POP CALLVALUE PUSH2 0x151 JUMPI PUSH2 0x11B7 CALLDATASIZE PUSH2 0x18EA JUMP JUMPDEST DUP4 SLOAD PUSH1 0x40 MLOAD PUSH4 0x95A8C58D PUSH1 0xE0 SHL DUP2 MSTORE CALLER PUSH1 0x4 DUP3 ADD MSTORE PUSH1 0x2 PUSH1 0x24 DUP3 ADD MSTORE SWAP3 SWAP4 SWAP3 SWAP1 PUSH1 0x20 SWAP1 DUP3 SWAP1 PUSH1 0x44 SWAP1 DUP3 SWAP1 PUSH1 0x1 PUSH1 0x1 PUSH1 0xA0 SHL SUB AND GAS STATICCALL DUP1 ISZERO PUSH2 0x829 JUMPI PUSH2 0x1202 SWAP2 DUP7 SWAP2 PUSH2 0x5F5 JUMPI POP PUSH2 0x1EBE JUMP JUMPDEST DUP4 PUSH1 0x1 DUP1 PUSH1 0xA0 SHL SUB PUSH1 0x2 SLOAD AND SWAP3 DUP1 MLOAD PUSH1 0x20 DUP3 ADD SWAP5 DUP6 MLOAD SWAP1 PUSH1 0x40 DUP5 ADD MLOAD SWAP2 PUSH1 0x60 DUP6 ADD SWAP9 DUP10 MLOAD SWAP6 PUSH1 0x80 PUSH1 0x1 DUP1 PUSH1 0xA0 SHL SUB SWAP2 ADD MLOAD AND SWAP5 DUP4 EXTCODESIZE ISZERO PUSH2 0x110F JUMPI PUSH2 0x10B0 DUP9 SWAP7 SWAP3 DUP8 SWAP4 PUSH1 0x40 MLOAD SWAP10 DUP11 SWAP9 DUP10 SWAP8 DUP9 SWAP7 PUSH4 0x15C9FBF9 PUSH1 0xE1 SHL DUP9 MSTORE PUSH1 0x4 DUP9 ADD PUSH2 0x1F15 JUMP JUMPDEST POP CALLVALUE PUSH2 0x1468 JUMPI PUSH1 0x80 CALLDATASIZE PUSH1 0x3 NOT ADD SLT PUSH2 0x1468 JUMPI PUSH1 0x4 CALLDATALOAD PUSH1 0x1 PUSH1 0x1 PUSH1 0x40 SHL SUB DUP2 GT PUSH2 0x1468 JUMPI PUSH2 0x1292 SWAP1 CALLDATASIZE SWAP1 PUSH1 0x4 ADD PUSH2 0x16B7 JUMP JUMPDEST SWAP1 PUSH2 0x129B PUSH2 0x174D JUMP JUMPDEST PUSH1 0x44 CALLDATALOAD PUSH1 0x1 PUSH1 0x1 PUSH1 0x40 SHL SUB DUP2 GT PUSH2 0x1468 JUMPI PUSH2 0x12BA SWAP1 CALLDATASIZE SWAP1 PUSH1 0x4 ADD PUSH2 0x175D JUMP JUMPDEST PUSH1 0x64 CALLDATALOAD PUSH1 0x1 PUSH1 0x1 PUSH1 0x40 SHL SUB DUP2 GT PUSH2 0x1468 JUMPI PUSH2 0x12D9 SWAP1 CALLDATASIZE SWAP1 PUSH1 0x4 ADD PUSH2 0x17B7 JUMP JUMPDEST PUSH0 SLOAD PUSH1 0x40 MLOAD PUSH4 0x95A8C58D PUSH1 0xE0 SHL DUP2 MSTORE CALLER PUSH1 0x4 DUP3 ADD MSTORE PUSH1 0x1 PUSH1 0x24 DUP3 ADD MSTORE SWAP1 PUSH1 0x20 SWAP1 DUP3 SWAP1 PUSH1 0x44 SWAP1 DUP3 SWAP1 PUSH1 0x1 PUSH1 0x1 PUSH1 0xA0 SHL SUB AND GAS STATICCALL DUP1 ISZERO PUSH2 0x145D JUMPI PUSH2 0x1321 SWAP2 PUSH0 SWAP2 PUSH2 0x4E0 JUMPI POP PUSH2 0x1E33 JUMP JUMPDEST PUSH1 0x2 SLOAD DUP6 MLOAD PUSH1 0x20 DUP8 ADD MLOAD PUSH1 0x40 DUP9 ADD DUP1 MLOAD PUSH1 0x60 SWAP1 SWAP10 ADD MLOAD SWAP1 SWAP9 SWAP2 SWAP4 PUSH1 0x1 PUSH1 0x1 PUSH1 0xA0 SHL SUB SWAP1 DUP2 AND SWAP4 SWAP2 AND SWAP1 DUP4 EXTCODESIZE ISZERO PUSH2 0x1468 JUMPI PUSH2 0x13E1 PUSH0 SWAP7 PUSH2 0x13CF DUP9 SWAP5 PUSH2 0x139D SWAP11 PUSH2 0x13AF PUSH2 0x138B SWAP9 PUSH1 0x40 MLOAD SWAP14 DUP15 SWAP13 DUP14 SWAP12 DUP13 SWAP11 PUSH4 0x682053D9 PUSH1 0xE0 SHL DUP13 MSTORE PUSH1 0xE0 PUSH1 0x4 DUP14 ADD MSTORE PUSH1 0xE4 DUP13 ADD SWAP1 PUSH2 0x167F JUMP JUMPDEST DUP11 DUP2 SUB PUSH1 0x3 NOT ADD PUSH1 0x24 DUP13 ADD MSTORE SWAP1 PUSH2 0x167F JUMP JUMPDEST DUP9 DUP2 SUB PUSH1 0x3 NOT ADD PUSH1 0x44 DUP11 ADD MSTORE SWAP1 PUSH2 0x167F JUMP JUMPDEST SWAP2 PUSH1 0x64 DUP8 ADD MSTORE PUSH1 0xFF DUP14 AND PUSH1 0x84 DUP8 ADD MSTORE PUSH1 0x3 NOT DUP7 DUP4 SUB ADD PUSH1 0xA4 DUP8 ADD MSTORE PUSH2 0x1C6F JUMP JUMPDEST DUP4 DUP2 SUB PUSH1 0x3 NOT ADD PUSH1 0xC4 DUP6 ADD MSTORE SWAP1 PUSH2 0x1C99 JUMP JUMPDEST SUB SWAP3 GAS CALL DUP1 ISZERO PUSH2 0x145D JUMPI PUSH2 0x1429 JUMPI JUMPDEST POP PUSH32 0xF52A0795D3C1A788D33423AA105BE7A0AAA157621A984632251E0C2ED142D040 SWAP2 SWAP3 MLOAD SWAP1 PUSH2 0x359 PUSH1 0x40 MLOAD SWAP3 DUP4 SWAP3 TIMESTAMP SWAP2 CALLER SWAP1 DUP6 PUSH2 0x1E89 JUMP JUMPDEST PUSH32 0xF52A0795D3C1A788D33423AA105BE7A0AAA157621A984632251E0C2ED142D040 SWAP3 POP PUSH0 PUSH2 0x1456 SWAP2 PUSH2 0x15FD JUMP JUMPDEST PUSH0 SWAP2 PUSH2 0x13F0 JUMP JUMPDEST PUSH1 0x40 MLOAD RETURNDATASIZE PUSH0 DUP3 RETURNDATACOPY RETURNDATASIZE SWAP1 REVERT JUMPDEST PUSH0 DUP1 REVERT JUMPDEST CALLVALUE PUSH2 0x1468 JUMPI PUSH1 0x20 CALLDATASIZE PUSH1 0x3 NOT ADD SLT PUSH2 0x1468 JUMPI PUSH1 0x4 CALLDATALOAD PUSH1 0x1 PUSH1 0x1 PUSH1 0x40 SHL SUB DUP2 GT PUSH2 0x1468 JUMPI PUSH0 PUSH2 0x14A0 PUSH2 0x14CE SWAP3 CALLDATASIZE SWAP1 PUSH1 0x4 ADD PUSH2 0x1639 JUMP JUMPDEST PUSH1 0x1 DUP1 PUSH1 0xA0 SHL SUB PUSH1 0x1 SLOAD AND PUSH1 0x40 MLOAD DUP1 DUP1 SWAP6 DUP2 SWAP5 PUSH4 0x6D1AA7D5 PUSH1 0xE0 SHL DUP4 MSTORE PUSH1 0x20 PUSH1 0x4 DUP5 ADD MSTORE PUSH1 0x24 DUP4 ADD SWAP1 PUSH2 0x167F JUMP JUMPDEST SUB SWAP2 GAS STATICCALL DUP1 ISZERO PUSH2 0x145D JUMPI PUSH2 0x11F SWAP2 PUSH0 SWAP2 PUSH2 0x14F8 JUMPI JUMPDEST POP PUSH1 0x40 MLOAD SWAP2 DUP3 SWAP2 PUSH1 0x20 DUP4 MSTORE PUSH1 0x20 DUP4 ADD SWAP1 PUSH2 0x167F JUMP JUMPDEST PUSH2 0x1514 SWAP2 POP RETURNDATASIZE DUP1 PUSH0 DUP4 RETURNDATACOPY PUSH2 0x150C DUP2 DUP4 PUSH2 0x15FD JUMP JUMPDEST DUP2 ADD SWAP1 PUSH2 0x1DF6 JUMP JUMPDEST DUP3 PUSH2 0x14E3 JUMP JUMPDEST CALLVALUE PUSH2 0x1468 JUMPI PUSH1 0x20 CALLDATASIZE PUSH1 0x3 NOT ADD SLT PUSH2 0x1468 JUMPI PUSH1 0x4 CALLDATALOAD PUSH1 0x1 PUSH1 0x1 PUSH1 0x40 SHL SUB DUP2 GT PUSH2 0x1468 JUMPI PUSH0 PUSH2 0x154E PUSH2 0x14CE SWAP3 CALLDATASIZE SWAP1 PUSH1 0x4 ADD PUSH2 0x1639 JUMP JUMPDEST PUSH1 0x1 DUP1 PUSH1 0xA0 SHL SUB PUSH1 0x2 SLOAD AND PUSH1 0x40 MLOAD DUP1 DUP1 SWAP6 DUP2 SWAP5 PUSH4 0x6D1AA7D5 PUSH1 0xE0 SHL DUP4 MSTORE PUSH1 0x20 PUSH1 0x4 DUP5 ADD MSTORE PUSH1 0x24 DUP4 ADD SWAP1 PUSH2 0x167F JUMP JUMPDEST PUSH1 0x80 DUP2 ADD SWAP1 DUP2 LT PUSH1 0x1 PUSH1 0x1 PUSH1 0x40 SHL SUB DUP3 GT OR PUSH2 0x1597 JUMPI PUSH1 0x40 MSTORE JUMP JUMPDEST PUSH4 0x4E487B71 PUSH1 0xE0 SHL PUSH0 MSTORE PUSH1 0x41 PUSH1 0x4 MSTORE PUSH1 0x24 PUSH0 REVERT JUMPDEST PUSH1 0x60 DUP2 ADD SWAP1 DUP2 LT PUSH1 0x1 PUSH1 0x1 PUSH1 0x40 SHL SUB DUP3 GT OR PUSH2 0x1597 JUMPI PUSH1 0x40 MSTORE JUMP JUMPDEST PUSH2 0x100 DUP2 ADD SWAP1 DUP2 LT PUSH1 0x1 PUSH1 0x1 PUSH1 0x40 SHL SUB DUP3 GT OR PUSH2 0x1597 JUMPI PUSH1 0x40 MSTORE JUMP JUMPDEST PUSH1 0x40 DUP2 ADD SWAP1 DUP2 LT PUSH1 0x1 PUSH1 0x1 PUSH1 0x40 SHL SUB DUP3 GT OR PUSH2 0x1597 JUMPI PUSH1 0x40 MSTORE JUMP JUMPDEST SWAP1 PUSH1 0x1F DUP1 NOT SWAP2 ADD AND DUP2 ADD SWAP1 DUP2 LT PUSH1 0x1 PUSH1 0x1 PUSH1 0x40 SHL SUB DUP3 GT OR PUSH2 0x1597 JUMPI PUSH1 0x40 MSTORE JUMP JUMPDEST PUSH1 0x1 PUSH1 0x1 PUSH1 0x40 SHL SUB DUP2 GT PUSH2 0x1597 JUMPI PUSH1 0x1F ADD PUSH1 0x1F NOT AND PUSH1 0x20 ADD SWAP1 JUMP JUMPDEST DUP2 PUSH1 0x1F DUP3 ADD SLT ISZERO PUSH2 0x1468 JUMPI DUP1 CALLDATALOAD SWAP1 PUSH2 0x1650 DUP3 PUSH2 0x161E JUMP JUMPDEST SWAP3 PUSH2 0x165E PUSH1 0x40 MLOAD SWAP5 DUP6 PUSH2 0x15FD JUMP JUMPDEST DUP3 DUP5 MSTORE PUSH1 0x20 DUP4 DUP4 ADD ADD GT PUSH2 0x1468 JUMPI DUP2 PUSH0 SWAP3 PUSH1 0x20 DUP1 SWAP4 ADD DUP4 DUP7 ADD CALLDATACOPY DUP4 ADD ADD MSTORE SWAP1 JUMP JUMPDEST DUP1 MLOAD DUP1 DUP4 MSTORE PUSH1 0x20 SWAP3 SWAP2 DUP2 SWAP1 DUP5 ADD DUP5 DUP5 ADD MCOPY PUSH0 DUP3 DUP3 ADD DUP5 ADD MSTORE PUSH1 0x1F ADD PUSH1 0x1F NOT AND ADD ADD SWAP1 JUMP JUMPDEST CALLDATALOAD SWAP1 PUSH1 0x1 PUSH1 0x1 PUSH1 0xA0 SHL SUB DUP3 AND DUP3 SUB PUSH2 0x1468 JUMPI JUMP JUMPDEST SWAP2 SWAP1 SWAP2 PUSH1 0x80 DUP2 DUP5 SUB SLT PUSH2 0x1468 JUMPI PUSH1 0x40 MLOAD SWAP1 PUSH2 0x16D1 DUP3 PUSH2 0x157C JUMP JUMPDEST DUP2 SWAP4 DUP2 CALLDATALOAD PUSH1 0x1 PUSH1 0x1 PUSH1 0x40 SHL SUB DUP2 GT PUSH2 0x1468 JUMPI DUP2 PUSH2 0x16EF SWAP2 DUP5 ADD PUSH2 0x1639 JUMP JUMPDEST DUP4 MSTORE PUSH1 0x20 DUP3 ADD CALLDATALOAD PUSH1 0x1 PUSH1 0x1 PUSH1 0x40 SHL SUB DUP2 GT PUSH2 0x1468 JUMPI DUP2 PUSH2 0x1710 SWAP2 DUP5 ADD PUSH2 0x1639 JUMP JUMPDEST PUSH1 0x20 DUP5 ADD MSTORE PUSH1 0x40 DUP3 ADD CALLDATALOAD SWAP1 PUSH1 0x1 PUSH1 0x1 PUSH1 0x40 SHL SUB DUP3 GT PUSH2 0x1468 JUMPI DUP3 PUSH2 0x173D PUSH1 0x60 SWAP5 SWAP3 PUSH2 0x1748 SWAP5 DUP7 SWAP5 ADD PUSH2 0x1639 JUMP JUMPDEST PUSH1 0x40 DUP7 ADD MSTORE ADD PUSH2 0x16A3 JUMP JUMPDEST SWAP2 ADD MSTORE JUMP JUMPDEST PUSH1 0x24 CALLDATALOAD SWAP1 PUSH1 0xFF DUP3 AND DUP3 SUB PUSH2 0x1468 JUMPI JUMP JUMPDEST SWAP2 SWAP1 PUSH1 0x40 DUP4 DUP3 SUB SLT PUSH2 0x1468 JUMPI PUSH1 0x40 MLOAD SWAP1 PUSH2 0x1776 DUP3 PUSH2 0x15E2 JUMP JUMPDEST DUP2 SWAP4 DUP1 CALLDATALOAD PUSH1 0x1 PUSH1 0x1 PUSH1 0x40 SHL SUB DUP2 GT PUSH2 0x1468 JUMPI DUP3 PUSH2 0x1794 SWAP2 DUP4 ADD PUSH2 0x1639 JUMP JUMPDEST DUP4 MSTORE PUSH1 0x20 DUP2 ADD CALLDATALOAD SWAP2 PUSH1 0x1 PUSH1 0x1 PUSH1 0x40 SHL SUB DUP4 GT PUSH2 0x1468 JUMPI PUSH1 0x20 SWAP3 PUSH2 0x1748 SWAP3 ADD PUSH2 0x1639 JUMP JUMPDEST SWAP2 SWAP1 PUSH2 0x100 DUP4 DUP3 SUB SLT PUSH2 0x1468 JUMPI PUSH1 0x40 MLOAD SWAP1 PUSH2 0x17D1 DUP3 PUSH2 0x15C6 JUMP JUMPDEST DUP2 SWAP4 DUP1 CALLDATALOAD PUSH1 0x1 PUSH1 0x1 PUSH1 0x40 SHL SUB DUP2 GT PUSH2 0x1468 JUMPI DUP3 PUSH2 0x17EF SWAP2 DUP4 ADD PUSH2 0x1639 JUMP JUMPDEST DUP4 MSTORE PUSH1 0x20 DUP2 ADD CALLDATALOAD PUSH1 0x1 PUSH1 0x1 PUSH1 0x40 SHL SUB DUP2 GT PUSH2 0x1468 JUMPI DUP3 PUSH2 0x1810 SWAP2 DUP4 ADD PUSH2 0x1639 JUMP JUMPDEST PUSH1 0x20 DUP5 ADD MSTORE PUSH1 0x40 DUP2 ADD CALLDATALOAD PUSH1 0x1 PUSH1 0x1 PUSH1 0x40 SHL SUB DUP2 GT PUSH2 0x1468 JUMPI DUP3 PUSH2 0x1834 SWAP2 DUP4 ADD PUSH2 0x1639 JUMP JUMPDEST PUSH1 0x40 DUP5 ADD MSTORE PUSH1 0x60 DUP2 ADD CALLDATALOAD PUSH1 0x1 PUSH1 0x1 PUSH1 0x40 SHL SUB DUP2 GT PUSH2 0x1468 JUMPI DUP3 PUSH2 0x1858 SWAP2 DUP4 ADD PUSH2 0x1639 JUMP JUMPDEST PUSH1 0x60 DUP5 ADD MSTORE PUSH1 0x80 DUP2 ADD CALLDATALOAD PUSH1 0x1 PUSH1 0x1 PUSH1 0x40 SHL SUB DUP2 GT PUSH2 0x1468 JUMPI DUP3 PUSH2 0x187C SWAP2 DUP4 ADD PUSH2 0x1639 JUMP JUMPDEST PUSH1 0x80 DUP5 ADD MSTORE PUSH1 0xA0 DUP2 ADD CALLDATALOAD PUSH1 0x1 PUSH1 0x1 PUSH1 0x40 SHL SUB DUP2 GT PUSH2 0x1468 JUMPI DUP3 PUSH2 0x18A0 SWAP2 DUP4 ADD PUSH2 0x1639 JUMP JUMPDEST PUSH1 0xA0 DUP5 ADD MSTORE PUSH1 0xC0 DUP2 ADD CALLDATALOAD PUSH1 0x1 PUSH1 0x1 PUSH1 0x40 SHL SUB DUP2 GT PUSH2 0x1468 JUMPI DUP3 PUSH2 0x18C4 SWAP2 DUP4 ADD PUSH2 0x1639 JUMP JUMPDEST PUSH1 0xC0 DUP5 ADD MSTORE PUSH1 0xE0 DUP2 ADD CALLDATALOAD SWAP2 PUSH1 0x1 PUSH1 0x1 PUSH1 0x40 SHL SUB DUP4 GT PUSH2 0x1468 JUMPI PUSH1 0xE0 SWAP3 PUSH2 0x1748 SWAP3 ADD PUSH2 0x1639 JUMP JUMPDEST SWAP1 PUSH1 0x60 PUSH1 0x3 NOT DUP4 ADD SLT PUSH2 0x1468 JUMPI PUSH1 0x4 CALLDATALOAD PUSH1 0x1 PUSH1 0x1 PUSH1 0x40 SHL SUB DUP2 GT PUSH2 0x1468 JUMPI PUSH1 0xA0 DUP2 DUP5 SUB PUSH1 0x3 NOT ADD SLT PUSH2 0x1468 JUMPI PUSH1 0x40 MLOAD SWAP1 PUSH1 0xA0 DUP3 ADD DUP3 DUP2 LT PUSH1 0x1 PUSH1 0x1 PUSH1 0x40 SHL SUB DUP3 GT OR PUSH2 0x1597 JUMPI PUSH1 0x40 MSTORE DUP1 PUSH1 0x4 ADD CALLDATALOAD PUSH1 0x1 PUSH1 0x1 PUSH1 0x40 SHL SUB DUP2 GT PUSH2 0x1468 JUMPI DUP5 PUSH1 0x4 PUSH2 0x1955 SWAP3 DUP5 ADD ADD PUSH2 0x1639 JUMP JUMPDEST DUP3 MSTORE PUSH1 0x24 DUP2 ADD CALLDATALOAD PUSH1 0x1 PUSH1 0x1 PUSH1 0x40 SHL SUB DUP2 GT PUSH2 0x1468 JUMPI DUP5 PUSH1 0x4 PUSH2 0x1979 SWAP3 DUP5 ADD ADD PUSH2 0x1639 JUMP JUMPDEST PUSH1 0x20 DUP4 ADD MSTORE PUSH1 0x44 DUP2 ADD CALLDATALOAD PUSH1 0x1 PUSH1 0x1 PUSH1 0x40 SHL SUB DUP2 GT PUSH2 0x1468 JUMPI DUP5 PUSH1 0x4 PUSH2 0x19A0 SWAP3 DUP5 ADD ADD PUSH2 0x1639 JUMP JUMPDEST PUSH1 0x40 DUP4 ADD MSTORE PUSH1 0x64 DUP2 ADD CALLDATALOAD PUSH1 0x1 PUSH1 0x1 PUSH1 0x40 SHL SUB DUP2 GT PUSH2 0x1468 JUMPI DUP2 PUSH2 0x19CD DUP7 PUSH1 0x4 PUSH1 0x84 SWAP5 PUSH2 0x19D8 SWAP7 ADD ADD PUSH2 0x1639 JUMP JUMPDEST PUSH1 0x60 DUP6 ADD MSTORE ADD PUSH2 0x16A3 JUMP JUMPDEST PUSH1 0x80 DUP3 ADD MSTORE SWAP2 PUSH1 0x24 CALLDATALOAD SWAP1 PUSH1 0x1 PUSH1 0x1 PUSH1 0x40 SHL SUB DUP3 GT PUSH2 0x1468 JUMPI PUSH2 0x19FC SWAP2 PUSH1 0x4 ADD PUSH2 0x1639 JUMP JUMPDEST SWAP1 PUSH1 0x44 CALLDATALOAD PUSH1 0xFF DUP2 AND DUP2 SUB PUSH2 0x1468 JUMPI SWAP1 JUMP JUMPDEST SWAP1 PUSH1 0xA0 PUSH1 0x3 NOT DUP4 ADD SLT PUSH2 0x1468 JUMPI PUSH1 0x4 CALLDATALOAD PUSH1 0x1 PUSH1 0x1 PUSH1 0x40 SHL SUB DUP2 GT PUSH2 0x1468 JUMPI DUP3 PUSH2 0x1A38 SWAP2 PUSH1 0x4 ADD PUSH2 0x1639 JUMP JUMPDEST SWAP2 PUSH1 0x24 CALLDATALOAD PUSH1 0x1 PUSH1 0x1 PUSH1 0x40 SHL SUB DUP2 GT PUSH2 0x1468 JUMPI DUP2 PUSH2 0x1A57 SWAP2 PUSH1 0x4 ADD PUSH2 0x1639 JUMP JUMPDEST SWAP2 PUSH1 0x44 CALLDATALOAD PUSH1 0x1 PUSH1 0x1 PUSH1 0x40 SHL SUB DUP2 GT PUSH2 0x1468 JUMPI DUP3 PUSH2 0x1A76 SWAP2 PUSH1 0x4 ADD PUSH2 0x1639 JUMP JUMPDEST SWAP2 PUSH1 0x64 CALLDATALOAD SWAP1 PUSH1 0x1 PUSH1 0x1 PUSH1 0x40 SHL SUB DUP3 GT PUSH2 0x1468 JUMPI PUSH2 0x1A95 SWAP2 PUSH1 0x4 ADD PUSH2 0x1639 JUMP JUMPDEST SWAP1 PUSH1 0x84 CALLDATALOAD PUSH1 0xFF DUP2 AND DUP2 SUB PUSH2 0x1468 JUMPI SWAP1 JUMP JUMPDEST PUSH1 0x4 GT ISZERO PUSH2 0x1AB0 JUMPI JUMP JUMPDEST PUSH4 0x4E487B71 PUSH1 0xE0 SHL PUSH0 MSTORE PUSH1 0x21 PUSH1 0x4 MSTORE PUSH1 0x24 PUSH0 REVERT JUMPDEST PUSH2 0x1B38 SWAP2 PUSH1 0xA0 PUSH2 0x1B07 PUSH2 0x1AF5 PUSH2 0x1AE3 DUP6 MLOAD PUSH1 0xC0 DUP7 MSTORE PUSH1 0xC0 DUP7 ADD SWAP1 PUSH2 0x167F JUMP JUMPDEST PUSH1 0x20 DUP7 ADD MLOAD DUP6 DUP3 SUB PUSH1 0x20 DUP8 ADD MSTORE PUSH2 0x167F JUMP JUMPDEST PUSH1 0x40 DUP6 ADD MLOAD DUP5 DUP3 SUB PUSH1 0x40 DUP7 ADD MSTORE PUSH2 0x167F JUMP JUMPDEST SWAP3 PUSH1 0xFF PUSH1 0x60 DUP3 ADD MLOAD AND PUSH1 0x60 DUP5 ADD MSTORE PUSH1 0x80 DUP2 ADD MLOAD PUSH2 0x1B23 DUP2 PUSH2 0x1AA6 JUMP JUMPDEST PUSH1 0x80 DUP5 ADD MSTORE ADD MLOAD SWAP1 PUSH1 0xA0 DUP2 DUP5 SUB SWAP2 ADD MSTORE PUSH2 0x167F JUMP JUMPDEST SWAP1 JUMP JUMPDEST PUSH1 0x20 DUP2 ADD PUSH1 0x20 DUP3 MSTORE DUP3 MLOAD DUP1 SWAP2 MSTORE PUSH1 0x40 DUP3 ADD SWAP2 PUSH1 0x20 PUSH1 0x40 DUP4 PUSH1 0x5 SHL DUP4 ADD ADD SWAP5 ADD SWAP3 PUSH0 SWAP2 JUMPDEST DUP4 DUP4 LT PUSH2 0x1B6D JUMPI POP POP POP POP POP SWAP1 JUMP JUMPDEST SWAP1 SWAP2 SWAP3 SWAP4 SWAP5 PUSH1 0x20 DUP1 PUSH2 0x1B8B PUSH1 0x1 SWAP4 PUSH1 0x3F NOT DUP7 DUP3 SUB ADD DUP8 MSTORE DUP10 MLOAD PUSH2 0x1AC4 JUMP JUMPDEST SWAP8 ADD SWAP4 ADD SWAP4 ADD SWAP2 SWAP4 SWAP3 SWAP1 PUSH2 0x1B5E JUMP JUMPDEST SWAP1 PUSH1 0x40 PUSH2 0x1BB3 PUSH2 0xD42 DUP5 MLOAD PUSH1 0x60 DUP6 MSTORE PUSH1 0x60 DUP6 ADD SWAP1 PUSH2 0x167F JUMP JUMPDEST SWAP3 DUP2 ADD MLOAD PUSH1 0x1 PUSH1 0x1 PUSH1 0xA0 SHL SUB AND SWAP2 ADD MSTORE SWAP1 JUMP JUMPDEST PUSH2 0x1B38 SWAP2 DUP2 MLOAD PUSH2 0x1BD5 DUP2 PUSH2 0x1AA6 JUMP JUMPDEST DUP2 MSTORE PUSH1 0x20 DUP3 ADD MLOAD PUSH1 0x20 DUP3 ADD MSTORE PUSH1 0x40 DUP3 ADD MLOAD PUSH1 0x40 DUP3 ADD MSTORE PUSH1 0x60 DUP3 ADD MLOAD PUSH1 0x60 DUP3 ADD MSTORE PUSH1 0x80 DUP3 ADD MLOAD PUSH1 0x80 DUP3 ADD MSTORE PUSH1 0xE0 PUSH2 0x1C31 PUSH2 0x1C1F PUSH1 0xA0 DUP6 ADD MLOAD PUSH2 0x100 PUSH1 0xA0 DUP7 ADD MSTORE PUSH2 0x100 DUP6 ADD SWAP1 PUSH2 0x1B9A JUMP JUMPDEST PUSH1 0xC0 DUP6 ADD MLOAD DUP5 DUP3 SUB PUSH1 0xC0 DUP7 ADD MSTORE PUSH2 0x1B9A JUMP JUMPDEST SWAP3 ADD MLOAD SWAP1 PUSH1 0xE0 DUP2 DUP5 SUB SWAP2 ADD MSTORE PUSH2 0x167F JUMP JUMPDEST PUSH2 0x1B38 SWAP2 PUSH1 0x40 PUSH2 0x1C5E PUSH2 0xD42 DUP5 MLOAD PUSH1 0x60 DUP6 MSTORE PUSH1 0x60 DUP6 ADD SWAP1 PUSH2 0x167F JUMP JUMPDEST SWAP3 ADD MLOAD SWAP1 PUSH1 0x40 DUP2 DUP5 SUB SWAP2 ADD MSTORE PUSH2 0x167F JUMP JUMPDEST PUSH2 0x1B38 SWAP2 PUSH1 0x20 PUSH2 0x1C88 DUP4 MLOAD PUSH1 0x40 DUP5 MSTORE PUSH1 0x40 DUP5 ADD SWAP1 PUSH2 0x167F JUMP JUMPDEST SWAP3 ADD MLOAD SWAP1 PUSH1 0x20 DUP2 DUP5 SUB SWAP2 ADD MSTORE PUSH2 0x167F JUMP JUMPDEST PUSH2 0x1B38 SWAP2 PUSH1 0xE0 PUSH2 0x1C31 PUSH2 0x1D20 PUSH2 0x1D0E PUSH2 0x1CFC PUSH2 0x1CEA PUSH2 0x1CD8 PUSH2 0x1CC6 DUP10 MLOAD PUSH2 0x100 DUP11 MSTORE PUSH2 0x100 DUP11 ADD SWAP1 PUSH2 0x167F JUMP JUMPDEST PUSH1 0x20 DUP11 ADD MLOAD DUP10 DUP3 SUB PUSH1 0x20 DUP12 ADD MSTORE PUSH2 0x167F JUMP JUMPDEST PUSH1 0x40 DUP10 ADD MLOAD DUP9 DUP3 SUB PUSH1 0x40 DUP11 ADD MSTORE PUSH2 0x167F JUMP JUMPDEST PUSH1 0x60 DUP9 ADD MLOAD DUP8 DUP3 SUB PUSH1 0x60 DUP10 ADD MSTORE PUSH2 0x167F JUMP JUMPDEST PUSH1 0x80 DUP8 ADD MLOAD DUP7 DUP3 SUB PUSH1 0x80 DUP9 ADD MSTORE PUSH2 0x167F JUMP JUMPDEST PUSH1 0xA0 DUP7 ADD MLOAD DUP6 DUP3 SUB PUSH1 0xA0 DUP8 ADD MSTORE PUSH2 0x167F JUMP JUMPDEST PUSH1 0xC0 DUP6 ADD MLOAD DUP5 DUP3 SUB PUSH1 0xC0 DUP7 ADD MSTORE PUSH2 0x167F JUMP JUMPDEST SWAP2 SWAP1 PUSH1 0x60 DUP4 DUP3 SUB SLT PUSH2 0x1468 JUMPI PUSH1 0x40 MLOAD SWAP1 PUSH2 0x1D4B DUP3 PUSH2 0x15AB JUMP JUMPDEST DUP2 SWAP4 DUP1 CALLDATALOAD PUSH1 0x1 PUSH1 0x1 PUSH1 0x40 SHL SUB DUP2 GT PUSH2 0x1468 JUMPI DUP3 PUSH2 0x1D69 SWAP2 DUP4 ADD PUSH2 0x1639 JUMP JUMPDEST DUP4 MSTORE PUSH1 0x20 DUP2 ADD CALLDATALOAD PUSH1 0x1 PUSH1 0x1 PUSH1 0x40 SHL SUB DUP2 GT PUSH2 0x1468 JUMPI DUP3 PUSH2 0x1D8A SWAP2 DUP4 ADD PUSH2 0x1639 JUMP JUMPDEST PUSH1 0x20 DUP5 ADD MSTORE PUSH1 0x40 DUP2 ADD CALLDATALOAD SWAP2 PUSH1 0x1 PUSH1 0x1 PUSH1 0x40 SHL SUB DUP4 GT PUSH2 0x1468 JUMPI PUSH1 0x40 SWAP3 PUSH2 0x1748 SWAP3 ADD PUSH2 0x1639 JUMP JUMPDEST DUP2 PUSH1 0x1F DUP3 ADD SLT ISZERO PUSH2 0x1468 JUMPI DUP1 MLOAD SWAP1 PUSH2 0x1DC7 DUP3 PUSH2 0x161E JUMP JUMPDEST SWAP3 PUSH2 0x1DD5 PUSH1 0x40 MLOAD SWAP5 DUP6 PUSH2 0x15FD JUMP JUMPDEST DUP3 DUP5 MSTORE PUSH1 0x20 DUP4 DUP4 ADD ADD GT PUSH2 0x1468 JUMPI DUP2 PUSH0 SWAP3 PUSH1 0x20 DUP1 SWAP4 ADD DUP4 DUP7 ADD MCOPY DUP4 ADD ADD MSTORE SWAP1 JUMP JUMPDEST SWAP1 PUSH1 0x20 DUP3 DUP3 SUB SLT PUSH2 0x1468 JUMPI DUP2 MLOAD PUSH1 0x1 PUSH1 0x1 PUSH1 0x40 SHL SUB DUP2 GT PUSH2 0x1468 JUMPI PUSH2 0x1B38 SWAP3 ADD PUSH2 0x1DB0 JUMP JUMPDEST SWAP1 DUP2 PUSH1 0x20 SWAP2 SUB SLT PUSH2 0x1468 JUMPI MLOAD DUP1 ISZERO ISZERO DUP2 SUB PUSH2 0x1468 JUMPI SWAP1 JUMP JUMPDEST ISZERO PUSH2 0x1E3A JUMPI JUMP JUMPDEST PUSH1 0x40 MLOAD PUSH3 0x461BCD PUSH1 0xE5 SHL DUP2 MSTORE PUSH1 0x20 PUSH1 0x4 DUP3 ADD MSTORE PUSH1 0x21 PUSH1 0x24 DUP3 ADD MSTORE PUSH32 0x4F6E6C79205042462063616E20646F2074686973207472616E73616374696F6E PUSH1 0x44 DUP3 ADD MSTORE PUSH1 0x21 PUSH1 0xF8 SHL PUSH1 0x64 DUP3 ADD MSTORE PUSH1 0x84 SWAP1 REVERT JUMPDEST SWAP1 PUSH1 0x60 SWAP3 SWAP6 SWAP5 SWAP4 PUSH2 0x1EA4 PUSH1 0xFF SWAP3 PUSH1 0x80 DUP6 MSTORE PUSH1 0x80 DUP6 ADD SWAP1 PUSH2 0x167F JUMP JUMPDEST PUSH1 0x1 PUSH1 0x1 PUSH1 0xA0 SHL SUB SWAP1 SWAP8 AND PUSH1 0x20 DUP5 ADD MSTORE AND PUSH1 0x40 DUP3 ADD MSTORE ADD MSTORE JUMP JUMPDEST ISZERO PUSH2 0x1EC5 JUMPI JUMP JUMPDEST PUSH1 0x40 MLOAD PUSH3 0x461BCD PUSH1 0xE5 SHL DUP2 MSTORE PUSH1 0x20 PUSH1 0x4 DUP3 ADD MSTORE PUSH1 0x22 PUSH1 0x24 DUP3 ADD MSTORE PUSH32 0x4F6E6C792042504F4D2063616E20646F2074686973207472616E73616374696F PUSH1 0x44 DUP3 ADD MSTORE PUSH2 0x6E21 PUSH1 0xF0 SHL PUSH1 0x64 DUP3 ADD MSTORE PUSH1 0x84 SWAP1 REVERT JUMPDEST SWAP3 PUSH2 0x1F54 SWAP1 PUSH2 0x1F46 PUSH2 0x1F62 SWAP5 PUSH2 0x1F38 PUSH2 0x1B38 SWAP11 SWAP9 SWAP6 PUSH1 0xC0 DUP10 MSTORE PUSH1 0xC0 DUP10 ADD SWAP1 PUSH2 0x167F JUMP JUMPDEST SWAP1 DUP8 DUP3 SUB PUSH1 0x20 DUP10 ADD MSTORE PUSH2 0x167F JUMP JUMPDEST SWAP1 DUP6 DUP3 SUB PUSH1 0x40 DUP8 ADD MSTORE PUSH2 0x167F JUMP JUMPDEST SWAP1 DUP4 DUP3 SUB PUSH1 0x60 DUP6 ADD MSTORE PUSH2 0x167F JUMP JUMPDEST PUSH1 0x1 PUSH1 0x1 PUSH1 0xA0 SHL SUB SWAP1 SWAP4 AND PUSH1 0x80 DUP3 ADD MSTORE DUP1 DUP4 SUB PUSH1 0xA0 SWAP2 SWAP1 SWAP2 ADD MSTORE PUSH2 0x167F JUMP JUMPDEST SWAP6 SWAP5 SWAP4 PUSH1 0xFF PUSH1 0x80 SWAP5 PUSH2 0x1F9F PUSH2 0x1FC2 SWAP6 SWAP5 PUSH1 0xA0 DUP12 MSTORE PUSH1 0xA0 DUP12 ADD SWAP1 PUSH2 0x167F JUMP JUMPDEST PUSH1 0x1 PUSH1 0x1 PUSH1 0xA0 SHL SUB SWAP1 SWAP5 AND PUSH1 0x20 DUP11 ADD MSTORE AND PUSH1 0x40 DUP9 ADD MSTORE DUP7 DUP3 SUB PUSH1 0x60 DUP9 ADD MSTORE PUSH2 0x167F JUMP JUMPDEST SWAP4 ADD MSTORE JUMP JUMPDEST SWAP4 SWAP1 PUSH1 0x80 SWAP4 PUSH2 0x1FF9 PUSH2 0x2015 SWAP5 PUSH2 0x1FEB PUSH2 0x2007 SWAP5 SWAP11 SWAP10 SWAP11 PUSH1 0xA0 DUP11 MSTORE PUSH1 0xA0 DUP11 ADD SWAP1 PUSH2 0x167F JUMP JUMPDEST SWAP1 DUP9 DUP3 SUB PUSH1 0x20 DUP11 ADD MSTORE PUSH2 0x167F JUMP JUMPDEST SWAP1 DUP7 DUP3 SUB PUSH1 0x40 DUP9 ADD MSTORE PUSH2 0x167F JUMP JUMPDEST SWAP1 DUP5 DUP3 SUB PUSH1 0x60 DUP7 ADD MSTORE PUSH2 0x167F JUMP JUMPDEST PUSH1 0x1 PUSH1 0x1 PUSH1 0xA0 SHL SUB SWAP1 SWAP5 AND SWAP2 ADD MSTORE JUMP JUMPDEST SWAP2 SWAP4 SWAP1 PUSH2 0x1B38 SWAP6 SWAP4 PUSH2 0x2041 PUSH1 0xFF SWAP3 PUSH1 0xA0 DUP7 MSTORE PUSH1 0xA0 DUP7 ADD SWAP1 PUSH2 0x167F JUMP JUMPDEST PUSH1 0x1 PUSH1 0x1 PUSH1 0xA0 SHL SUB SWAP1 SWAP7 AND PUSH1 0x20 DUP6 ADD MSTORE AND PUSH1 0x40 DUP4 ADD MSTORE PUSH1 0x60 DUP3 ADD MSTORE DUP1 DUP4 SUB PUSH1 0x80 SWAP1 SWAP2 ADD MSTORE PUSH2 0x167F JUMP JUMPDEST MLOAD SWAP1 PUSH1 0xFF DUP3 AND DUP3 SUB PUSH2 0x1468 JUMPI JUMP JUMPDEST PUSH1 0x20 DUP2 DUP4 SUB SLT PUSH2 0x1468 JUMPI DUP1 MLOAD SWAP1 PUSH1 0x1 PUSH1 0x1 PUSH1 0x40 SHL SUB DUP3 GT PUSH2 0x1468 JUMPI ADD SWAP1 DUP1 PUSH1 0x1F DUP4 ADD SLT ISZERO PUSH2 0x1468 JUMPI PUSH1 0x20 DUP3 MLOAD SWAP3 ADD PUSH1 0x1 PUSH1 0x1 PUSH1 0x40 SHL SUB DUP4 GT PUSH2 0x1597 JUMPI DUP3 PUSH1 0x5 SHL PUSH1 0x20 DUP2 ADD SWAP4 PUSH2 0x20CA PUSH1 0x40 MLOAD SWAP6 DUP7 PUSH2 0x15FD JUMP JUMPDEST DUP5 MSTORE PUSH1 0x20 DUP5 ADD SWAP1 DUP3 ADD SWAP2 DUP4 DUP4 GT PUSH2 0x1468 JUMPI DUP1 SWAP2 JUMPDEST DUP4 DUP4 LT PUSH2 0x20ED JUMPI POP POP POP POP POP SWAP1 JUMP JUMPDEST DUP3 MLOAD PUSH1 0x1 PUSH1 0x1 PUSH1 0x40 SHL SUB DUP2 GT PUSH2 0x1468 JUMPI DUP3 ADD PUSH1 0xC0 DUP2 DUP8 SUB SLT PUSH2 0x1468 JUMPI PUSH1 0x40 MLOAD SWAP2 PUSH1 0xC0 DUP4 ADD DUP4 DUP2 LT PUSH1 0x1 PUSH1 0x1 PUSH1 0x40 SHL SUB DUP3 GT OR PUSH2 0x1597 JUMPI PUSH1 0x40 MSTORE DUP2 MLOAD PUSH1 0x1 PUSH1 0x1 PUSH1 0x40 SHL SUB DUP2 GT PUSH2 0x1468 JUMPI DUP8 PUSH2 0x2142 SWAP2 DUP5 ADD PUSH2 0x1DB0 JUMP JUMPDEST DUP4 MSTORE PUSH1 0x20 DUP3 ADD MLOAD PUSH1 0x1 PUSH1 0x1 PUSH1 0x40 SHL SUB DUP2 GT PUSH2 0x1468 JUMPI DUP8 PUSH2 0x2163 SWAP2 DUP5 ADD PUSH2 0x1DB0 JUMP JUMPDEST PUSH1 0x20 DUP5 ADD MSTORE PUSH1 0x40 DUP3 ADD MLOAD PUSH1 0x1 PUSH1 0x1 PUSH1 0x40 SHL SUB DUP2 GT PUSH2 0x1468 JUMPI DUP8 PUSH2 0x2187 SWAP2 DUP5 ADD PUSH2 0x1DB0 JUMP JUMPDEST PUSH1 0x40 DUP5 ADD MSTORE PUSH2 0x2198 PUSH1 0x60 DUP4 ADD PUSH2 0x206A JUMP JUMPDEST PUSH1 0x60 DUP5 ADD MSTORE PUSH1 0x80 DUP3 ADD MLOAD PUSH1 0x4 DUP2 LT ISZERO PUSH2 0x1468 JUMPI PUSH1 0x80 DUP5 ADD MSTORE PUSH1 0xA0 DUP3 ADD MLOAD SWAP3 PUSH1 0x1 PUSH1 0x1 PUSH1 0x40 SHL SUB DUP5 GT PUSH2 0x1468 JUMPI PUSH2 0x21D3 DUP9 PUSH1 0x20 SWAP6 DUP7 SWAP6 ADD PUSH2 0x1DB0 JUMP JUMPDEST PUSH1 0xA0 DUP3 ADD MSTORE DUP2 MSTORE ADD SWAP3 ADD SWAP2 PUSH2 0x20DE JUMP JUMPDEST PUSH1 0x40 MLOAD SWAP1 PUSH2 0x21F0 DUP3 PUSH2 0x15AB JUMP JUMPDEST PUSH0 PUSH1 0x40 DUP4 PUSH1 0x60 DUP2 MSTORE PUSH1 0x60 PUSH1 0x20 DUP3 ADD MSTORE ADD MSTORE JUMP JUMPDEST PUSH1 0x40 MLOAD SWAP1 PUSH2 0x2210 DUP3 PUSH2 0x15C6 JUMP JUMPDEST PUSH1 0x60 PUSH1 0xE0 DUP4 PUSH0 DUP2 MSTORE PUSH0 PUSH1 0x20 DUP3 ADD MSTORE PUSH0 PUSH1 0x40 DUP3 ADD MSTORE PUSH0 DUP4 DUP3 ADD MSTORE PUSH0 PUSH1 0x80 DUP3 ADD MSTORE PUSH2 0x2237 PUSH2 0x21E3 JUMP JUMPDEST PUSH1 0xA0 DUP3 ADD MSTORE PUSH2 0x2244 PUSH2 0x21E3 JUMP JUMPDEST PUSH1 0xC0 DUP3 ADD MSTORE ADD MSTORE JUMP JUMPDEST PUSH1 0x40 MLOAD SWAP1 PUSH2 0x225A DUP3 PUSH2 0x15E2 JUMP JUMPDEST PUSH1 0x60 PUSH1 0x20 DUP4 DUP3 DUP2 MSTORE ADD MSTORE JUMP JUMPDEST SWAP2 SWAP1 PUSH1 0x40 DUP4 DUP3 SUB SLT PUSH2 0x1468 JUMPI PUSH1 0x40 MLOAD SWAP1 PUSH2 0x227F DUP3 PUSH2 0x15E2 JUMP JUMPDEST DUP2 SWAP4 DUP1 MLOAD PUSH1 0x1 PUSH1 0x1 PUSH1 0x40 SHL SUB DUP2 GT PUSH2 0x1468 JUMPI DUP3 PUSH2 0x229D SWAP2 DUP4 ADD PUSH2 0x1DB0 JUMP JUMPDEST DUP4 MSTORE PUSH1 0x20 DUP2 ADD MLOAD SWAP2 PUSH1 0x1 PUSH1 0x1 PUSH1 0x40 SHL SUB DUP4 GT PUSH2 0x1468 JUMPI PUSH1 0x20 SWAP3 PUSH2 0x1748 SWAP3 ADD PUSH2 0x1DB0 JUMP JUMPDEST SWAP2 SWAP1 PUSH1 0x60 DUP4 DUP3 SUB SLT PUSH2 0x1468 JUMPI PUSH1 0x40 MLOAD SWAP1 PUSH2 0x22D9 DUP3 PUSH2 0x15AB JUMP JUMPDEST DUP2 SWAP4 DUP1 MLOAD PUSH1 0x1 PUSH1 0x1 PUSH1 0x40 SHL SUB DUP2 GT PUSH2 0x1468 JUMPI DUP3 PUSH2 0x22F7 SWAP2 DUP4 ADD PUSH2 0x1DB0 JUMP JUMPDEST DUP4 MSTORE PUSH1 0x20 DUP2 ADD MLOAD PUSH1 0x1 PUSH1 0x1 PUSH1 0x40 SHL SUB DUP2 GT PUSH2 0x1468 JUMPI PUSH1 0x40 SWAP3 PUSH2 0x231A SWAP2 DUP4 ADD PUSH2 0x1DB0 JUMP JUMPDEST PUSH1 0x20 DUP5 ADD MSTORE ADD MLOAD SWAP1 PUSH1 0x1 PUSH1 0x1 PUSH1 0xA0 SHL SUB DUP3 AND DUP3 SUB PUSH2 0x1468 JUMPI PUSH1 0x40 ADD MSTORE JUMP JUMPDEST PUSH1 0x20 DUP2 DUP4 SUB SLT PUSH2 0x1468 JUMPI DUP1 MLOAD SWAP1 PUSH1 0x1 PUSH1 0x1 PUSH1 0x40 SHL SUB DUP3 GT PUSH2 0x1468 JUMPI ADD PUSH2 0x100 DUP2 DUP4 SUB SLT PUSH2 0x1468 JUMPI PUSH1 0x40 MLOAD SWAP2 PUSH2 0x236C DUP4 PUSH2 0x15C6 JUMP JUMPDEST DUP2 MLOAD PUSH1 0x4 DUP2 LT ISZERO PUSH2 0x1468 JUMPI DUP4 MSTORE PUSH1 0x20 DUP3 ADD MLOAD PUSH1 0x20 DUP5 ADD MSTORE PUSH1 0x40 DUP3 ADD MLOAD PUSH1 0x40 DUP5 ADD MSTORE PUSH1 0x60 DUP3 ADD MLOAD PUSH1 0x60 DUP5 ADD MSTORE PUSH1 0x80 DUP3 ADD MLOAD PUSH1 0x80 DUP5 ADD MSTORE PUSH1 0xA0 DUP3 ADD MLOAD PUSH1 0x1 PUSH1 0x1 PUSH1 0x40 SHL SUB DUP2 GT PUSH2 0x1468 JUMPI DUP2 PUSH2 0x23C0 SWAP2 DUP5 ADD PUSH2 0x22C0 JUMP JUMPDEST PUSH1 0xA0 DUP5 ADD MSTORE PUSH1 0xC0 DUP3 ADD MLOAD PUSH1 0x1 PUSH1 0x1 PUSH1 0x40 SHL SUB DUP2 GT PUSH2 0x1468 JUMPI DUP2 PUSH2 0x23E4 SWAP2 DUP5 ADD PUSH2 0x22C0 JUMP JUMPDEST PUSH1 0xC0 DUP5 ADD MSTORE PUSH1 0xE0 DUP3 ADD MLOAD PUSH1 0x1 PUSH1 0x1 PUSH1 0x40 SHL SUB DUP2 GT PUSH2 0x1468 JUMPI PUSH2 0x2406 SWAP3 ADD PUSH2 0x1DB0 JUMP JUMPDEST PUSH1 0xE0 DUP3 ADD MSTORE SWAP1 JUMP JUMPDEST ISZERO PUSH2 0x2415 JUMPI JUMP JUMPDEST PUSH1 0x40 MLOAD PUSH3 0x461BCD PUSH1 0xE5 SHL DUP2 MSTORE PUSH1 0x20 PUSH1 0x4 DUP3 ADD MSTORE PUSH1 0x25 PUSH1 0x24 DUP3 ADD MSTORE PUSH32 0x4F6E6C7920466163746F72792063616E20646F2074686973207472616E736163 PUSH1 0x44 DUP3 ADD MSTORE PUSH5 0x74696F6E21 PUSH1 0xD8 SHL PUSH1 0x64 DUP3 ADD MSTORE PUSH1 0x84 SWAP1 REVERT JUMPDEST PUSH2 0x2480 PUSH1 0x40 SWAP3 SWAP6 SWAP5 SWAP4 SWAP6 PUSH1 0x60 DUP4 MSTORE PUSH1 0x60 DUP4 ADD SWAP1 PUSH2 0x167F JUMP JUMPDEST PUSH1 0x1 PUSH1 0x1 PUSH1 0xA0 SHL SUB SWAP1 SWAP6 AND PUSH1 0x20 DUP3 ADD MSTORE ADD MSTORE JUMP INVALID LOG2 PUSH5 0x6970667358 0x22 SLT KECCAK256 PREVRANDAO PUSH3 0x4A2A02 SLOAD 0xBE 0xEF SWAP11 0x28 AND 0xD 0xE3 SLT INVALID 0xDC MSTORE8 0xEC SLT 0x4C EXTCODESIZE DUP10 DELEGATECALL PUSH9 0x54CD3CC0FF1A30AD64 PUSH20 0x6F6C634300081B00330000000000000000000000 "},"methodIdentifiers":{"approveCdob((string,string,string,string,address),string,uint8)":"2dbcaf0f","approveCpotb((string,string,string,string,address),string,uint8)":"4e03317b","getAllCdob()":"f14261d2","getAllCpotb()":"5850607c","getCdobByInstance(string)":"d0927b19","getCdobDetails(string)":"7e8f8da7","getCpotbByInstance(string)":"51c2d326","getCpotbDetails(string)":"70c056b0","getRejectMsgCdob(string)":"17d96797","getRejectMsgCpotb(string)":"1a898044","rejectCdob(string,string,string,string,uint8)":"41ee1495","rejectCpotb(string,string,string,string,uint8)":"9c0abfd8","renewCdob((string,string,string,address),(string,string),(string,string,string,string,string,string,string,string))":"bbd0b8a9","renewCpotb((string,string,string,address),(string,string,string),(string,string))":"cb43b77f","requestCdob((string,string,string,address),uint8,(string,string),(string,string,string,string,string,string,string,string))":"1d430349","requestCpotb((string,string,string,address),uint8,string,(string,string,string),(string,string))":"87fecd3e"}}}}}