{"contracts/ObatShared.sol":{"ObatShared":{"abi":[{"inputs":[{"internalType":"string","name":"","type":"string"}],"name":"ObatDetailById","outputs":[{"internalType":"string","name":"merk","type":"string"},{"internalType":"string","name":"namaProduk","type":"string"},{"internalType":"string","name":"kemasan","type":"string"},{"internalType":"string","name":"factoryInstance","type":"string"},{"internalType":"address","name":"factoryAddr","type":"address"},{"internalType":"enum EnumsLibrary.TipePermohonanCdob","name":"tipeObat","type":"uint8"},{"internalType":"string","name":"cpotbHash","type":"string"},{"internalType":"string","name":"cdobHash","type":"string"},{"internalType":"string","name":"jenisObat","type":"string"}],"stateMutability":"view","type":"function"},{"inputs":[{"internalType":"string","name":"","type":"string"},{"internalType":"uint256","name":"","type":"uint256"}],"name":"ObatIpfsbyBatchName","outputs":[{"internalType":"string","name":"","type":"string"}],"stateMutability":"view","type":"function"},{"inputs":[{"internalType":"string","name":"","type":"string"}],"name":"ObatPbfBatchName","outputs":[{"internalType":"enum EnumsLibrary.ObatAvailability","name":"statusStok","type":"uint8"},{"internalType":"string","name":"obatId","type":"string"},{"internalType":"string","name":"orderId","type":"string"},{"internalType":"string","name":"namaProduk","type":"string"},{"internalType":"string","name":"batchName","type":"string"},{"internalType":"uint8","name":"obatQuantity","type":"uint8"},{"internalType":"string","name":"pbfInstance","type":"string"}],"stateMutability":"view","type":"function"},{"inputs":[{"internalType":"string","name":"","type":"string"},{"internalType":"uint256","name":"","type":"uint256"}],"name":"ObatProductionById","outputs":[{"internalType":"enum EnumsLibrary.ObatAvailability","name":"statusStok","type":"uint8"},{"internalType":"string","name":"namaProduk","type":"string"},{"internalType":"string","name":"batchName","type":"string"},{"internalType":"uint8","name":"obatQuantity","type":"uint8"},{"internalType":"string","name":"factoryInstance","type":"string"}],"stateMutability":"view","type":"function"},{"inputs":[{"internalType":"string","name":"","type":"string"}],"name":"ObatRetailerBatchName","outputs":[{"internalType":"enum EnumsLibrary.ObatAvailability","name":"statusStok","type":"uint8"},{"internalType":"string","name":"obatId","type":"string"},{"internalType":"string","name":"orderId","type":"string"},{"internalType":"string","name":"namaProduk","type":"string"},{"internalType":"string","name":"batchName","type":"string"},{"internalType":"uint8","name":"obatQuantity","type":"uint8"},{"internalType":"string","name":"retailerInstance","type":"string"}],"stateMutability":"view","type":"function"},{"inputs":[{"internalType":"string","name":"_obatId","type":"string"},{"internalType":"string","name":"_namaProduk","type":"string"},{"internalType":"string","name":"_batchName","type":"string"},{"internalType":"uint8","name":"_obatQuantity","type":"uint8"},{"internalType":"string[]","name":"_obatIpfs","type":"string[]"},{"internalType":"string","name":"_factoryInstance","type":"string"}],"name":"addBatchProduction","outputs":[],"stateMutability":"nonpayable","type":"function"},{"inputs":[{"internalType":"string","name":"_obatId","type":"string"},{"internalType":"string","name":"_cdobHash","type":"string"}],"name":"addCdobId","outputs":[],"stateMutability":"nonpayable","type":"function"},{"inputs":[{"internalType":"string","name":"_obatId","type":"string"},{"internalType":"string","name":"_orderId","type":"string"},{"internalType":"string","name":"_namaProduk","type":"string"},{"internalType":"string","name":"_batchName","type":"string"},{"internalType":"uint8","name":"_obatQuantity","type":"uint8"},{"internalType":"string","name":"_pbfInstance","type":"string"}],"name":"addObatPbf","outputs":[],"stateMutability":"nonpayable","type":"function"},{"inputs":[{"internalType":"string","name":"_obatId","type":"string"},{"internalType":"string","name":"_orderId","type":"string"},{"internalType":"string","name":"_namaProduk","type":"string"},{"internalType":"string","name":"_batchName","type":"string"},{"internalType":"uint8","name":"_obatQuantity","type":"uint8"},{"internalType":"string","name":"_retailerInstance","type":"string"}],"name":"addObatRetailer","outputs":[],"stateMutability":"nonpayable","type":"function"},{"inputs":[{"internalType":"string","name":"_pbfInstance","type":"string"}],"name":"getAllObatPbfByInstance","outputs":[{"components":[{"internalType":"string","name":"orderId","type":"string"},{"internalType":"string","name":"obatId","type":"string"},{"internalType":"string","name":"namaProduk","type":"string"},{"internalType":"string","name":"batchName","type":"string"},{"internalType":"uint8","name":"obatQuantity","type":"uint8"},{"internalType":"enum EnumsLibrary.ObatAvailability","name":"statusStok","type":"uint8"},{"internalType":"string","name":"ownerInstance","type":"string"}],"internalType":"struct ObatShared.ObatOutputStok[]","name":"","type":"tuple[]"}],"stateMutability":"view","type":"function"},{"inputs":[],"name":"getAllObatPbfReadyStock","outputs":[{"components":[{"internalType":"string","name":"orderId","type":"string"},{"internalType":"string","name":"obatId","type":"string"},{"internalType":"string","name":"namaProduk","type":"string"},{"internalType":"string","name":"batchName","type":"string"},{"internalType":"uint8","name":"obatQuantity","type":"uint8"},{"internalType":"enum EnumsLibrary.ObatAvailability","name":"statusStok","type":"uint8"},{"internalType":"string","name":"ownerInstance","type":"string"}],"internalType":"struct ObatShared.ObatOutputStok[]","name":"","type":"tuple[]"}],"stateMutability":"view","type":"function"},{"inputs":[{"internalType":"string","name":"_retailerInstance","type":"string"}],"name":"getAllObatRetailerByInstance","outputs":[{"components":[{"internalType":"string","name":"orderId","type":"string"},{"internalType":"string","name":"obatId","type":"string"},{"internalType":"string","name":"namaProduk","type":"string"},{"internalType":"string","name":"batchName","type":"string"},{"internalType":"uint8","name":"obatQuantity","type":"uint8"},{"internalType":"enum EnumsLibrary.ObatAvailability","name":"statusStok","type":"uint8"},{"internalType":"string","name":"ownerInstance","type":"string"}],"internalType":"struct ObatShared.ObatOutputStok[]","name":"","type":"tuple[]"}],"stateMutability":"view","type":"function"},{"inputs":[{"internalType":"string","name":"_obatId","type":"string"}],"name":"getObatDetail","outputs":[{"components":[{"internalType":"string","name":"merk","type":"string"},{"internalType":"string","name":"namaProduk","type":"string"},{"internalType":"string[]","name":"klaim","type":"string[]"},{"internalType":"string[]","name":"komposisi","type":"string[]"},{"internalType":"string","name":"kemasan","type":"string"},{"internalType":"string","name":"factoryInstance","type":"string"},{"internalType":"address","name":"factoryAddr","type":"address"},{"internalType":"enum EnumsLibrary.TipePermohonanCdob","name":"tipeObat","type":"uint8"},{"internalType":"string","name":"cpotbHash","type":"string"},{"internalType":"string","name":"cdobHash","type":"string"},{"internalType":"string","name":"jenisObat","type":"string"}],"internalType":"struct ObatShared.ObatDetail","name":"","type":"tuple"}],"stateMutability":"view","type":"function"},{"inputs":[{"internalType":"string","name":"_batchName","type":"string"}],"name":"getObatIpfsByBatchName","outputs":[{"internalType":"string[]","name":"","type":"string[]"}],"stateMutability":"view","type":"function"},{"inputs":[{"internalType":"string","name":"_obatId","type":"string"}],"name":"getObatProduction","outputs":[{"components":[{"internalType":"enum EnumsLibrary.ObatAvailability","name":"statusStok","type":"uint8"},{"internalType":"string","name":"namaProduk","type":"string"},{"internalType":"string","name":"batchName","type":"string"},{"internalType":"uint8","name":"obatQuantity","type":"uint8"},{"internalType":"string","name":"factoryInstance","type":"string"}],"internalType":"struct ObatShared.ObatProduction[]","name":"","type":"tuple[]"}],"stateMutability":"view","type":"function"},{"inputs":[{"internalType":"string","name":"_obatId","type":"string"},{"internalType":"string","name":"_merk","type":"string"},{"internalType":"string","name":"_namaProduk","type":"string"},{"internalType":"string[]","name":"_klaim","type":"string[]"},{"internalType":"string[]","name":"_komposisi","type":"string[]"},{"internalType":"string","name":"_kemasan","type":"string"},{"internalType":"string","name":"_factoryInstance","type":"string"},{"internalType":"address","name":"_factoryAddr","type":"address"},{"internalType":"enum EnumsLibrary.TipePermohonanCdob","name":"_tipeObat","type":"uint8"},{"internalType":"string","name":"_cpotbHash","type":"string"},{"internalType":"string","name":"_jenisObat","type":"string"}],"name":"setObatDetail","outputs":[],"stateMutability":"nonpayable","type":"function"},{"inputs":[{"internalType":"string","name":"_obatId","type":"string"},{"internalType":"string","name":"_batchName","type":"string"},{"internalType":"enum EnumsLibrary.ObatAvailability","name":"_newStatus","type":"uint8"}],"name":"updateBatchProduction","outputs":[],"stateMutability":"nonpayable","type":"function"},{"inputs":[{"internalType":"string","name":"_batchName","type":"string"},{"internalType":"string[]","name":"_obatIpfs","type":"string[]"}],"name":"updateObatIpfs","outputs":[],"stateMutability":"nonpayable","type":"function"},{"inputs":[{"internalType":"string","name":"_batchName","type":"string"},{"internalType":"enum EnumsLibrary.ObatAvailability","name":"_newStatus","type":"uint8"}],"name":"updateObatPbf","outputs":[],"stateMutability":"nonpayable","type":"function"}],"evm":{"bytecode":{"linkReferences":{},"object":"60808060405234601557612154908161001a8239f35b5f80fdfe60806040526004361015610011575f80fd5b5f3560e01c806309a482351461155d5780634bea11a0146114c15780635345584e1461141757806361009862146113ad5780636fbef94b1461134e5780638417bc0e146112ec578063871811f1146111ec5780638b8df23e14610ec35780638d57ba0a14610d0f578063906ce01714610bbe57806395e6379514610b17578063c2cf83bc14610ab8578063c72c731414610a35578063c7f8121c14610977578063d33d8a13146108de578063d65826721461063b578063e1336da5146104e8578063e521d586146102e05763f07b2c7a146100ea575f80fd5b346102dc5760203660031901126102dc576004356001600160401b0381116102dc5761011a90369060040161171b565b5f610123612013565b916040516101506020828180820195805191829101875e81015f838201520301601f1981018352826116fa565b5190205f905f925f54935b8481106102885750505f5b83811061017f576040518061017b8782611b29565b0390f35b81600661019d602061019085611ad2565b5060405192838092611f70565b6004815203019020016040516101c9816101bb602082018095611f70565b03601f1981018352826116fa565b519020146101da575b600101610166565b916102806001916101ff6101f2602061019088611ad2565b600481520301902061209c565b6040810151906020810151906060810151608082015160ff60a0840151169160c084519461022c8661186c565b0151946040519661023c886116a8565b8752602087015260408601526060850152608084015261025b8161186c565b60a083015260c082015261026f8289611f07565b5261027a8188611f07565b5061207a565b9290506101d2565b826006610299602061019085611ad2565b6004815203019020016040516102b7816101bb602082018095611f70565b519020146102c8575b60010161015b565b906102d460019161207a565b9190506102c0565b5f80fd5b346102dc5760c03660031901126102dc576004356001600160401b0381116102dc5761031090369060040161171b565b6024356001600160401b0381116102dc5761032f90369060040161171b565b6044356001600160401b0381116102dc5761034e90369060040161171b565b6064359160ff83168093036102dc576084356001600160401b0381116102dc5761037c903690600401611959565b9160a4356001600160401b0381116102dc5761039c90369060040161171b565b91604051946103aa866116df565b5f865260208601918252604086018381526060870191825260808701948552604051946103ed85519660208181890199808b835e81016006815203019020611df5565b5f5b875181101561042b576001906104256040516020818a51808d835e8101600681520301902061041e838c611f07565b5190611d2e565b016103ef565b50876020808b604051928184925191829101835e810160038152030190208054600160401b8110156104d45761046691600182018155611c07565b9490946104c1576104a460049461049a6104bf9861049060ff965161048a8161186c565b8a611d5b565b5160018901611c36565b5160028701611c36565b511660ff60038501911660ff19825416179055519101611c36565b005b634e487b7160e01b5f525f60045260245ffd5b634e487b7160e01b5f52604160045260245ffd5b346102dc5760203660031901126102dc576004356001600160401b0381116102dc5761051890369060040161171b565b5f610521612013565b9160405161054e6020828180820195805191829101875e81015f838201520301601f1981018352826116fa565b5190205f905f92600154935b8481106105e75750505f5b83811061057a576040518061017b8782611b29565b81600661058b602061019085611afc565b6005815203019020016040516105a9816101bb602082018095611f70565b519020146105ba575b600101610565565b916105df6001916101ff6105d2602061019088611afc565b600581520301902061209c565b9290506105b2565b8260066105f8602061019085611afc565b600581520301902001604051610616816101bb602082018095611f70565b51902014610627575b60010161055a565b9061063360019161207a565b91905061061f565b346102dc5760203660031901126102dc576004356001600160401b0381116102dc5761066b90369060040161171b565b604051610677816116c3565b60608152602081016060905260408101606090526060810160609052608081016060905260a081016060905260c081015f905260e081015f90526101008101606090526101208101606090526101400160609052805115156106d890611fda565b604051818192516020819201835e8101600281520360200190206040516106fe816116c3565b610707826117a8565b8152610715600183016117a8565b602082019081529161072960028201611f1b565b604083019081529061073d60038201611f1b565b60608401908152610750600483016117a8565b6080850190815290610764600584016117a8565b60a086810191825260068501546001600160a01b03811660c089019081529460e089019392909160ff911c166107998161186c565b83526107a7600787016117a8565b6101008901908152936107bc600888016117a8565b966101208a019788526009016107d1906117a8565b976101408a019889526040519a8b9a60208c525160208c0161016090526101808c016107fc91611848565b90518b8203601f190160408d01526108149190611848565b90518a8203601f190160608c015261082c91906119d7565b9051898203601f190160808b015261084491906119d7565b9051888203601f190160a08a015261085c9190611848565b9051878203601f190160c08901526108749190611848565b92516001600160a01b031660e08701525161088e8161186c565b61010086015251848203601f19016101208601526108ac9190611848565b9051838203601f19016101408501526108c59190611848565b9051828203601f190161016084015261017b9190611848565b346102dc5760ff6108ee3661188a565b93604096939192965195610901876116a8565b5f87526020870152604086015260608501528460808501521660a083015260c08201525f54600160401b8110156104d45780600161094292015f555f611b14565b9290926104c15760208161095a82936104bf96611c36565b604051928184925191829101835e81016004815203019020611d73565b346102dc5760208061098836611aa1565b9290604051928184925191829101835e810160038152030190209081548110156102dc576109b591611c07565b5060ff81541661017b6109ca600184016117a8565b926109d7600282016117a8565b610a226109ee600460ff60038601541694016117a8565b91610a146040519787610a018a9961186c565b885260a0602089015260a0880190611848565b908682036040880152611848565b9160608501528382036080850152611848565b346102dc5760403660031901126102dc576004356001600160401b0381116102dc57610a6590369060040161171b565b602435906001600160401b0382116102dc576008602080610a8d6104bf95369060040161171b565b93610a9a81511515611fda565b604051928184925191829101835e8101600281520301902001611c36565b346102dc5760403660031901126102dc576004356001600160401b0381116102dc57610ae890369060040161171b565b60243560028110156102dc5760405182516104bf93602091839181908401835e81016004815203019020611d5b565b346102dc5760203660031901126102dc576004356001600160401b0381116102dc576020610b4a8192369060040161171b565b604051928184925191829101835e8101600581520301902060ff81541661017b610b76600184016117a8565b92610b83600282016117a8565b90610b90600382016117a8565b610b9c600483016117a8565b90610bb1600660ff60058601541694016117a8565b9360405197889788611a2f565b346102dc575f3660031901126102dc575f610bd7612013565b5f80549192815b838110610cca5750505f5b828110610bfe576040518061017b8682611b29565b60ff610c0e602061019084611ad2565b60048152030190205416610c218161186c565b15610c2f575b600101610be9565b90610cc2600191610c476101f2602061019087611ad2565b6040810151906020810151906060810151608082015160ff60a0840151169160c0845194610c748661186c565b01519460405196610c84886116a8565b87526020870152604086015260608501526080840152610ca38161186c565b60a083015260c0820152610cb78288611f07565b5261027a8187611f07565b919050610c27565b60ff610cda602061019084611ad2565b60048152030190205416610ced8161186c565b15610cfb575b600101610bde565b90610d0760019161207a565b919050610cf3565b346102dc5760203660031901126102dc576004356001600160401b0381116102dc576020610d428192369060040161171b565b610d4e81511515611fda565b604051928184925191829101835e81016003815203019020805490610d7282611942565b91610d8060405193846116fa565b8083526020830180925f5260205f205f915b838310610e5457848660405191829160208301906020845251809152604083019060408160051b85010192915f905b828210610dd057505050500390f35b91936001919395506020610e448192603f198a82030186528851908151610df68161186c565b81526080610e26610e148685015160a08886015260a0850190611848565b60408501518482036040860152611848565b9260ff60608201511660608401520151906080818403910152611848565b9601920192018594939192610dc1565b60056020600192604051610e67816116df565b60ff865416610e758161186c565b8152610e828587016117a8565b83820152610e92600287016117a8565b604082015260ff6003870154166060820152610eb0600487016117a8565b6080820152815201920192019190610d92565b346102dc576101603660031901126102dc576004356001600160401b0381116102dc57610ef490369060040161171b565b6024356001600160401b0381116102dc57610f1390369060040161171b565b6044356001600160401b0381116102dc57610f3290369060040161171b565b6064356001600160401b0381116102dc57610f51903690600401611959565b926084356001600160401b0381116102dc57610f71903690600401611959565b9060a4356001600160401b0381116102dc57610f9190369060040161171b565b9060c4356001600160401b0381116102dc57610fb190369060040161171b565b60e4356001600160a01b03811693908490036102dc57610104359260028410156102dc57610124356001600160401b0381116102dc57610ff590369060040161171b565b95610144356001600160401b0381116102dc5761101690369060040161171b565b998251151561102490611fda565b604051996110318b6116c3565b8a5260208a0198895260408a0190815260608a0191825260808a0193845260a08a0194855260c08a0196875260e08a019561106b8161186c565b86526101008a01978852602098898080956040519c61108a908e6116fa565b5f8d528d61012081019d8e52610140019e8f52604051928184925191829101835e810160028152030190209a516110c1908c611c36565b516110cf9060018c01611c36565b60028a01905190838251926110e48484611e76565b01905f52835f20845f925b8484106111ce57505050505060038901905191808351936111108585611e76565b01915f52805f205f925b8484106111b2575050506104bf8960098c6111aa8c6111a08d8d8d6111518e6111478f5160048d01611c36565b5160058b01611c36565b905160068901805492519092916001600160a01b0316906111718161186c565b61117a8161186c565b6001600160a81b03199092161760a09190911b60ff60a01b161790555160078701611c36565b5160088501611c36565b519101611c36565b600183826111c283945186611c36565b0192019301929061111a565b600191816111de84935186611c36565b0192019201919085906110ef565b346102dc5760603660031901126102dc576004356001600160401b0381116102dc5761121c90369060040161171b565b6024356001600160401b0381116102dc5761123b90369060040161171b565b906044359060028210156102dc5760208091604051928184925191829101835e81016003815203019020916040516112926020828180820195805191829101875e81015f838201520301601f1981018352826116fa565b519020915f5b81548110156104bf578360026101bb6112c86112b48587611c07565b506040519283916020830195869101611f70565b519020146112d857600101611298565b6104bf93506112e691611c07565b50611d5b565b346102dc576020806112fd36611aa1565b9290604051928184925191829101835e810160068152030190209081548110156102dc5761132a91611b14565b6104c15761133a61017b916117a8565b604051918291602083526020830190611848565b346102dc5760203660031901126102dc576004356001600160401b0381116102dc5760206113818192369060040161171b565b604051928184925191829101835e8101600481520301902060ff81541661017b610b76600184016117a8565b346102dc5760203660031901126102dc576004356001600160401b0381116102dc576114036020806113e661017b94369060040161171b565b604051928184925191829101835e81016006815203019020611f1b565b6040519182916020835260208301906119d7565b346102dc5760403660031901126102dc576004356001600160401b0381116102dc5761144790369060040161171b565b6024356001600160401b0381116102dc57611466903690600401611959565b6040519161148a815193602081818501968088835e81016006815203019020611df5565b5f5b82518110156104bf576001906114bb6040516020818651808a835e8101600681520301902061041e8387611f07565b0161148c565b346102dc5760ff6114d13661188a565b936040969391929651956114e4876116a8565b5f87526020870152604086015260608501528460808501521660a083015260c0820152600154600160401b8110156104d45780600161152892016001556001611b14565b9290926104c15760208161154082936104bf96611c36565b604051928184925191829101835e81016005815203019020611d73565b346102dc5760203660031901126102dc576004356001600160401b0381116102dc5761158d90369060040161171b565b604051818192516020819201835e8101600281520360200190206115b0816117a8565b6115bc600183016117a8565b916115c9600482016117a8565b906115d6600582016117a8565b60068201548060a01c60ff16600784016115ef906117a8565b926115fc600886016117a8565b94600901611609906117a8565b956040519889986101208a526101208a0161162391611848565b89810360208b015261163491611848565b88810360408a015261164591611848565b878103606089015261165691611848565b6001600160a01b03909216608087015261166f8161186c565b60a086015284810360c086015261168591611848565b83810360e085015261169691611848565b82810361010084015261017b91611848565b60e081019081106001600160401b038211176104d457604052565b61016081019081106001600160401b038211176104d457604052565b60a081019081106001600160401b038211176104d457604052565b90601f801991011681019081106001600160401b038211176104d457604052565b81601f820112156102dc578035906001600160401b0382116104d4576040519261174f601f8401601f1916602001856116fa565b828452602083830101116102dc57815f926020809301838601378301015290565b90600182811c9216801561179e575b602083101461178a57565b634e487b7160e01b5f52602260045260245ffd5b91607f169161177f565b9060405191825f8254926117bb84611770565b808452936001811690811561182657506001146117e2575b506117e0925003836116fa565b565b90505f9291925260205f20905f915b81831061180a5750509060206117e0928201015f6117d3565b60209193508060019154838589010152019101909184926117f1565b9050602092506117e094915060ff191682840152151560051b8201015f6117d3565b805180835260209291819084018484015e5f828201840152601f01601f1916010190565b6002111561187657565b634e487b7160e01b5f52602160045260245ffd5b9060c06003198301126102dc576004356001600160401b0381116102dc57826118b59160040161171b565b916024356001600160401b0381116102dc57816118d49160040161171b565b916044356001600160401b0381116102dc57826118f39160040161171b565b916064356001600160401b0381116102dc57816119129160040161171b565b9160843560ff811681036102dc579160a435906001600160401b0382116102dc5761193f9160040161171b565b90565b6001600160401b0381116104d45760051b60200190565b9080601f830112156102dc57813561197081611942565b9261197e60405194856116fa565b81845260208085019260051b820101918383116102dc5760208201905b8382106119aa57505050505090565b81356001600160401b0381116102dc576020916119cc8784809488010161171b565b81520191019061199b565b9080602083519182815201916020808360051b8301019401925f915b838310611a0257505050505090565b9091929394602080611a20600193601f198682030187528951611848565b970193019301919392906119f3565b93611a7f90611a7160ff95611a63611a8d9661193f9c9a96611a508161186c565b8a5260e060208b015260e08a0190611848565b9088820360408a0152611848565b908682036060880152611848565b908482036080860152611848565b931660a082015260c0818403910152611848565b60406003198201126102dc57600435906001600160401b0382116102dc57611acb9160040161171b565b9060243590565b5f54811015611ae8575f805260205f2001905f90565b634e487b7160e01b5f52603260045260245ffd5b600154811015611ae85760015f5260205f2001905f90565b8054821015611ae8575f5260205f2001905f90565b602081016020825282518091526040820191602060408360051b8301019401925f915b838310611b5b57505050505090565b9091929394602080611bf8600193603f1986820301875289519060c0611bc7611bb5611ba3611b93865160e0875260e0870190611848565b888701518682038a880152611848565b60408601518582036040870152611848565b60608501518482036060860152611848565b9260ff608082015116608084015260a0810151611be38161186c565b60a084015201519060c0818403910152611848565b97019301930191939290611b4c565b8054821015611ae8575f52600560205f20910201905f90565b818110611c2b575050565b5f8155600101611c20565b91909182516001600160401b0381116104d457611c538254611770565b601f8111611cf3575b506020601f8211600114611c9557819293945f92611c8a575b50508160011b915f199060031b1c1916179055565b015190505f80611c75565b601f19821690835f52805f20915f5b818110611cdb57509583600195969710611cc3575b505050811b019055565b01515f1960f88460031b161c191690555f8080611cb9565b9192602060018192868b015181550194019201611ca4565b611d1e90835f5260205f20601f840160051c81019160208510611d24575b601f0160051c0190611c20565b5f611c5c565b9091508190611d11565b8054600160401b8110156104d457611d4b91600182018155611b14565b9190916104c1576117e091611c36565b90611d658161186c565b60ff80198354169116179055565b600660c06117e093611d8f8151611d898161186c565b85611d5b565b611da0602082015160018601611c36565b611db1604082015160028601611c36565b611dc2606082015160038601611c36565b611dd3608082015160048601611c36565b60ff60a08201511660ff60058601911660ff1982541617905501519101611c36565b8054905f815581611e04575050565b5f5260205f20908101905b818110611e1a575050565b80611e2760019254611770565b80611e34575b5001611e0f565b601f81118314611e4957505f81555b5f611e2d565b611e6590825f5283601f60205f20920160051c82019101611c20565b805f525f6020812081835555611e43565b90600160401b81116104d457815491818155828210611e9457505050565b5f5260205f2091820191015b818110611eab575050565b80611eb860019254611770565b80611ec5575b5001611ea0565b601f81118314611eda57505f81555b5f611ebe565b611ef690825f5283601f60205f20920160051c82019101611c20565b805f525f6020812081835555611ed4565b8051821015611ae85760209160051b010190565b908154611f2781611942565b92611f3560405194856116fa565b81845260208401905f5260205f205f915b838310611f535750505050565b600160208192611f62856117a8565b815201920192019190611f46565b5f9291815491611f7f83611770565b9260018116908115611fc75750600114611f9857505050565b90919293505f5260205f205f905b838210611fb35750500190565b600181602092548486015201910190611fa6565b60ff191683525050811515909102019150565b15611fe157565b60405162461bcd60e51b815260206004820152600a602482015269125b9d985b1a5908125160b21b6044820152606490fd5b604051906120226020836116fa565b5f80835282815b82811061203557505050565b602090604051612044816116a8565b60608152606083820152606060408201526060808201525f60808201525f60a0820152606060c082015282828501015201612029565b5f1981146120885760010190565b634e487b7160e01b5f52601160045260245ffd5b906040516120a9816116a8565b60c06121196006839560ff8154166120c08161186c565b85526120ce600182016117a8565b60208601526120df600282016117a8565b60408601526120f0600382016117a8565b6060860152612101600482016117a8565b608086015260ff60058201541660a0860152016117a8565b91015256fea264697066735822122095937f66c015fbe97e0e5a55c3339e0fcdd210c549d87ff8927df932bd7d785464736f6c634300081b0033","opcodes":"PUSH1 0x80 DUP1 PUSH1 0x40 MSTORE CALLVALUE PUSH1 0x15 JUMPI PUSH2 0x2154 SWAP1 DUP2 PUSH2 0x1A DUP3 CODECOPY RETURN JUMPDEST PUSH0 DUP1 REVERT INVALID PUSH1 0x80 PUSH1 0x40 MSTORE PUSH1 0x4 CALLDATASIZE LT ISZERO PUSH2 0x11 JUMPI PUSH0 DUP1 REVERT JUMPDEST PUSH0 CALLDATALOAD PUSH1 0xE0 SHR DUP1 PUSH4 0x9A48235 EQ PUSH2 0x155D JUMPI DUP1 PUSH4 0x4BEA11A0 EQ PUSH2 0x14C1 JUMPI DUP1 PUSH4 0x5345584E EQ PUSH2 0x1417 JUMPI DUP1 PUSH4 0x61009862 EQ PUSH2 0x13AD JUMPI DUP1 PUSH4 0x6FBEF94B EQ PUSH2 0x134E JUMPI DUP1 PUSH4 0x8417BC0E EQ PUSH2 0x12EC JUMPI DUP1 PUSH4 0x871811F1 EQ PUSH2 0x11EC JUMPI DUP1 PUSH4 0x8B8DF23E EQ PUSH2 0xEC3 JUMPI DUP1 PUSH4 0x8D57BA0A EQ PUSH2 0xD0F JUMPI DUP1 PUSH4 0x906CE017 EQ PUSH2 0xBBE JUMPI DUP1 PUSH4 0x95E63795 EQ PUSH2 0xB17 JUMPI DUP1 PUSH4 0xC2CF83BC EQ PUSH2 0xAB8 JUMPI DUP1 PUSH4 0xC72C7314 EQ PUSH2 0xA35 JUMPI DUP1 PUSH4 0xC7F8121C EQ PUSH2 0x977 JUMPI DUP1 PUSH4 0xD33D8A13 EQ PUSH2 0x8DE JUMPI DUP1 PUSH4 0xD6582672 EQ PUSH2 0x63B JUMPI DUP1 PUSH4 0xE1336DA5 EQ PUSH2 0x4E8 JUMPI DUP1 PUSH4 0xE521D586 EQ PUSH2 0x2E0 JUMPI PUSH4 0xF07B2C7A EQ PUSH2 0xEA JUMPI PUSH0 DUP1 REVERT JUMPDEST CALLVALUE PUSH2 0x2DC JUMPI PUSH1 0x20 CALLDATASIZE PUSH1 0x3 NOT ADD SLT PUSH2 0x2DC JUMPI PUSH1 0x4 CALLDATALOAD PUSH1 0x1 PUSH1 0x1 PUSH1 0x40 SHL SUB DUP2 GT PUSH2 0x2DC JUMPI PUSH2 0x11A SWAP1 CALLDATASIZE SWAP1 PUSH1 0x4 ADD PUSH2 0x171B JUMP JUMPDEST PUSH0 PUSH2 0x123 PUSH2 0x2013 JUMP JUMPDEST SWAP2 PUSH1 0x40 MLOAD PUSH2 0x150 PUSH1 0x20 DUP3 DUP2 DUP1 DUP3 ADD SWAP6 DUP1 MLOAD SWAP2 DUP3 SWAP2 ADD DUP8 MCOPY DUP2 ADD PUSH0 DUP4 DUP3 ADD MSTORE SUB ADD PUSH1 0x1F NOT DUP2 ADD DUP4 MSTORE DUP3 PUSH2 0x16FA JUMP JUMPDEST MLOAD SWAP1 KECCAK256 PUSH0 SWAP1 PUSH0 SWAP3 PUSH0 SLOAD SWAP4 JUMPDEST DUP5 DUP2 LT PUSH2 0x288 JUMPI POP POP PUSH0 JUMPDEST DUP4 DUP2 LT PUSH2 0x17F JUMPI PUSH1 0x40 MLOAD DUP1 PUSH2 0x17B DUP8 DUP3 PUSH2 0x1B29 JUMP JUMPDEST SUB SWAP1 RETURN JUMPDEST DUP2 PUSH1 0x6 PUSH2 0x19D PUSH1 0x20 PUSH2 0x190 DUP6 PUSH2 0x1AD2 JUMP JUMPDEST POP PUSH1 0x40 MLOAD SWAP3 DUP4 DUP1 SWAP3 PUSH2 0x1F70 JUMP JUMPDEST PUSH1 0x4 DUP2 MSTORE SUB ADD SWAP1 KECCAK256 ADD PUSH1 0x40 MLOAD PUSH2 0x1C9 DUP2 PUSH2 0x1BB PUSH1 0x20 DUP3 ADD DUP1 SWAP6 PUSH2 0x1F70 JUMP JUMPDEST SUB PUSH1 0x1F NOT DUP2 ADD DUP4 MSTORE DUP3 PUSH2 0x16FA JUMP JUMPDEST MLOAD SWAP1 KECCAK256 EQ PUSH2 0x1DA JUMPI JUMPDEST PUSH1 0x1 ADD PUSH2 0x166 JUMP JUMPDEST SWAP2 PUSH2 0x280 PUSH1 0x1 SWAP2 PUSH2 0x1FF PUSH2 0x1F2 PUSH1 0x20 PUSH2 0x190 DUP9 PUSH2 0x1AD2 JUMP JUMPDEST PUSH1 0x4 DUP2 MSTORE SUB ADD SWAP1 KECCAK256 PUSH2 0x209C JUMP JUMPDEST PUSH1 0x40 DUP2 ADD MLOAD SWAP1 PUSH1 0x20 DUP2 ADD MLOAD SWAP1 PUSH1 0x60 DUP2 ADD MLOAD PUSH1 0x80 DUP3 ADD MLOAD PUSH1 0xFF PUSH1 0xA0 DUP5 ADD MLOAD AND SWAP2 PUSH1 0xC0 DUP5 MLOAD SWAP5 PUSH2 0x22C DUP7 PUSH2 0x186C JUMP JUMPDEST ADD MLOAD SWAP5 PUSH1 0x40 MLOAD SWAP7 PUSH2 0x23C DUP9 PUSH2 0x16A8 JUMP JUMPDEST DUP8 MSTORE PUSH1 0x20 DUP8 ADD MSTORE PUSH1 0x40 DUP7 ADD MSTORE PUSH1 0x60 DUP6 ADD MSTORE PUSH1 0x80 DUP5 ADD MSTORE PUSH2 0x25B DUP2 PUSH2 0x186C JUMP JUMPDEST PUSH1 0xA0 DUP4 ADD MSTORE PUSH1 0xC0 DUP3 ADD MSTORE PUSH2 0x26F DUP3 DUP10 PUSH2 0x1F07 JUMP JUMPDEST MSTORE PUSH2 0x27A DUP2 DUP9 PUSH2 0x1F07 JUMP JUMPDEST POP PUSH2 0x207A JUMP JUMPDEST SWAP3 SWAP1 POP PUSH2 0x1D2 JUMP JUMPDEST DUP3 PUSH1 0x6 PUSH2 0x299 PUSH1 0x20 PUSH2 0x190 DUP6 PUSH2 0x1AD2 JUMP JUMPDEST PUSH1 0x4 DUP2 MSTORE SUB ADD SWAP1 KECCAK256 ADD PUSH1 0x40 MLOAD PUSH2 0x2B7 DUP2 PUSH2 0x1BB PUSH1 0x20 DUP3 ADD DUP1 SWAP6 PUSH2 0x1F70 JUMP JUMPDEST MLOAD SWAP1 KECCAK256 EQ PUSH2 0x2C8 JUMPI JUMPDEST PUSH1 0x1 ADD PUSH2 0x15B JUMP JUMPDEST SWAP1 PUSH2 0x2D4 PUSH1 0x1 SWAP2 PUSH2 0x207A JUMP JUMPDEST SWAP2 SWAP1 POP PUSH2 0x2C0 JUMP JUMPDEST PUSH0 DUP1 REVERT JUMPDEST CALLVALUE PUSH2 0x2DC JUMPI PUSH1 0xC0 CALLDATASIZE PUSH1 0x3 NOT ADD SLT PUSH2 0x2DC JUMPI PUSH1 0x4 CALLDATALOAD PUSH1 0x1 PUSH1 0x1 PUSH1 0x40 SHL SUB DUP2 GT PUSH2 0x2DC JUMPI PUSH2 0x310 SWAP1 CALLDATASIZE SWAP1 PUSH1 0x4 ADD PUSH2 0x171B JUMP JUMPDEST PUSH1 0x24 CALLDATALOAD PUSH1 0x1 PUSH1 0x1 PUSH1 0x40 SHL SUB DUP2 GT PUSH2 0x2DC JUMPI PUSH2 0x32F SWAP1 CALLDATASIZE SWAP1 PUSH1 0x4 ADD PUSH2 0x171B JUMP JUMPDEST PUSH1 0x44 CALLDATALOAD PUSH1 0x1 PUSH1 0x1 PUSH1 0x40 SHL SUB DUP2 GT PUSH2 0x2DC JUMPI PUSH2 0x34E SWAP1 CALLDATASIZE SWAP1 PUSH1 0x4 ADD PUSH2 0x171B JUMP JUMPDEST PUSH1 0x64 CALLDATALOAD SWAP2 PUSH1 0xFF DUP4 AND DUP1 SWAP4 SUB PUSH2 0x2DC JUMPI PUSH1 0x84 CALLDATALOAD PUSH1 0x1 PUSH1 0x1 PUSH1 0x40 SHL SUB DUP2 GT PUSH2 0x2DC JUMPI PUSH2 0x37C SWAP1 CALLDATASIZE SWAP1 PUSH1 0x4 ADD PUSH2 0x1959 JUMP JUMPDEST SWAP2 PUSH1 0xA4 CALLDATALOAD PUSH1 0x1 PUSH1 0x1 PUSH1 0x40 SHL SUB DUP2 GT PUSH2 0x2DC JUMPI PUSH2 0x39C SWAP1 CALLDATASIZE SWAP1 PUSH1 0x4 ADD PUSH2 0x171B JUMP JUMPDEST SWAP2 PUSH1 0x40 MLOAD SWAP5 PUSH2 0x3AA DUP7 PUSH2 0x16DF JUMP JUMPDEST PUSH0 DUP7 MSTORE PUSH1 0x20 DUP7 ADD SWAP2 DUP3 MSTORE PUSH1 0x40 DUP7 ADD DUP4 DUP2 MSTORE PUSH1 0x60 DUP8 ADD SWAP2 DUP3 MSTORE PUSH1 0x80 DUP8 ADD SWAP5 DUP6 MSTORE PUSH1 0x40 MLOAD SWAP5 PUSH2 0x3ED DUP6 MLOAD SWAP7 PUSH1 0x20 DUP2 DUP2 DUP10 ADD SWAP10 DUP1 DUP12 DUP4 MCOPY DUP2 ADD PUSH1 0x6 DUP2 MSTORE SUB ADD SWAP1 KECCAK256 PUSH2 0x1DF5 JUMP JUMPDEST PUSH0 JUMPDEST DUP8 MLOAD DUP2 LT ISZERO PUSH2 0x42B JUMPI PUSH1 0x1 SWAP1 PUSH2 0x425 PUSH1 0x40 MLOAD PUSH1 0x20 DUP2 DUP11 MLOAD DUP1 DUP14 DUP4 MCOPY DUP2 ADD PUSH1 0x6 DUP2 MSTORE SUB ADD SWAP1 KECCAK256 PUSH2 0x41E DUP4 DUP13 PUSH2 0x1F07 JUMP JUMPDEST MLOAD SWAP1 PUSH2 0x1D2E JUMP JUMPDEST ADD PUSH2 0x3EF JUMP JUMPDEST POP DUP8 PUSH1 0x20 DUP1 DUP12 PUSH1 0x40 MLOAD SWAP3 DUP2 DUP5 SWAP3 MLOAD SWAP2 DUP3 SWAP2 ADD DUP4 MCOPY DUP2 ADD PUSH1 0x3 DUP2 MSTORE SUB ADD SWAP1 KECCAK256 DUP1 SLOAD PUSH1 0x1 PUSH1 0x40 SHL DUP2 LT ISZERO PUSH2 0x4D4 JUMPI PUSH2 0x466 SWAP2 PUSH1 0x1 DUP3 ADD DUP2 SSTORE PUSH2 0x1C07 JUMP JUMPDEST SWAP5 SWAP1 SWAP5 PUSH2 0x4C1 JUMPI PUSH2 0x4A4 PUSH1 0x4 SWAP5 PUSH2 0x49A PUSH2 0x4BF SWAP9 PUSH2 0x490 PUSH1 0xFF SWAP7 MLOAD PUSH2 0x48A DUP2 PUSH2 0x186C JUMP JUMPDEST DUP11 PUSH2 0x1D5B JUMP JUMPDEST MLOAD PUSH1 0x1 DUP10 ADD PUSH2 0x1C36 JUMP JUMPDEST MLOAD PUSH1 0x2 DUP8 ADD PUSH2 0x1C36 JUMP JUMPDEST MLOAD AND PUSH1 0xFF PUSH1 0x3 DUP6 ADD SWAP2 AND PUSH1 0xFF NOT DUP3 SLOAD AND OR SWAP1 SSTORE MLOAD SWAP2 ADD PUSH2 0x1C36 JUMP JUMPDEST STOP JUMPDEST PUSH4 0x4E487B71 PUSH1 0xE0 SHL PUSH0 MSTORE PUSH0 PUSH1 0x4 MSTORE PUSH1 0x24 PUSH0 REVERT JUMPDEST PUSH4 0x4E487B71 PUSH1 0xE0 SHL PUSH0 MSTORE PUSH1 0x41 PUSH1 0x4 MSTORE PUSH1 0x24 PUSH0 REVERT JUMPDEST CALLVALUE PUSH2 0x2DC JUMPI PUSH1 0x20 CALLDATASIZE PUSH1 0x3 NOT ADD SLT PUSH2 0x2DC JUMPI PUSH1 0x4 CALLDATALOAD PUSH1 0x1 PUSH1 0x1 PUSH1 0x40 SHL SUB DUP2 GT PUSH2 0x2DC JUMPI PUSH2 0x518 SWAP1 CALLDATASIZE SWAP1 PUSH1 0x4 ADD PUSH2 0x171B JUMP JUMPDEST PUSH0 PUSH2 0x521 PUSH2 0x2013 JUMP JUMPDEST SWAP2 PUSH1 0x40 MLOAD PUSH2 0x54E PUSH1 0x20 DUP3 DUP2 DUP1 DUP3 ADD SWAP6 DUP1 MLOAD SWAP2 DUP3 SWAP2 ADD DUP8 MCOPY DUP2 ADD PUSH0 DUP4 DUP3 ADD MSTORE SUB ADD PUSH1 0x1F NOT DUP2 ADD DUP4 MSTORE DUP3 PUSH2 0x16FA JUMP JUMPDEST MLOAD SWAP1 KECCAK256 PUSH0 SWAP1 PUSH0 SWAP3 PUSH1 0x1 SLOAD SWAP4 JUMPDEST DUP5 DUP2 LT PUSH2 0x5E7 JUMPI POP POP PUSH0 JUMPDEST DUP4 DUP2 LT PUSH2 0x57A JUMPI PUSH1 0x40 MLOAD DUP1 PUSH2 0x17B DUP8 DUP3 PUSH2 0x1B29 JUMP JUMPDEST DUP2 PUSH1 0x6 PUSH2 0x58B PUSH1 0x20 PUSH2 0x190 DUP6 PUSH2 0x1AFC JUMP JUMPDEST PUSH1 0x5 DUP2 MSTORE SUB ADD SWAP1 KECCAK256 ADD PUSH1 0x40 MLOAD PUSH2 0x5A9 DUP2 PUSH2 0x1BB PUSH1 0x20 DUP3 ADD DUP1 SWAP6 PUSH2 0x1F70 JUMP JUMPDEST MLOAD SWAP1 KECCAK256 EQ PUSH2 0x5BA JUMPI JUMPDEST PUSH1 0x1 ADD PUSH2 0x565 JUMP JUMPDEST SWAP2 PUSH2 0x5DF PUSH1 0x1 SWAP2 PUSH2 0x1FF PUSH2 0x5D2 PUSH1 0x20 PUSH2 0x190 DUP9 PUSH2 0x1AFC JUMP JUMPDEST PUSH1 0x5 DUP2 MSTORE SUB ADD SWAP1 KECCAK256 PUSH2 0x209C JUMP JUMPDEST SWAP3 SWAP1 POP PUSH2 0x5B2 JUMP JUMPDEST DUP3 PUSH1 0x6 PUSH2 0x5F8 PUSH1 0x20 PUSH2 0x190 DUP6 PUSH2 0x1AFC JUMP JUMPDEST PUSH1 0x5 DUP2 MSTORE SUB ADD SWAP1 KECCAK256 ADD PUSH1 0x40 MLOAD PUSH2 0x616 DUP2 PUSH2 0x1BB PUSH1 0x20 DUP3 ADD DUP1 SWAP6 PUSH2 0x1F70 JUMP JUMPDEST MLOAD SWAP1 KECCAK256 EQ PUSH2 0x627 JUMPI JUMPDEST PUSH1 0x1 ADD PUSH2 0x55A JUMP JUMPDEST SWAP1 PUSH2 0x633 PUSH1 0x1 SWAP2 PUSH2 0x207A JUMP JUMPDEST SWAP2 SWAP1 POP PUSH2 0x61F JUMP JUMPDEST CALLVALUE PUSH2 0x2DC JUMPI PUSH1 0x20 CALLDATASIZE PUSH1 0x3 NOT ADD SLT PUSH2 0x2DC JUMPI PUSH1 0x4 CALLDATALOAD PUSH1 0x1 PUSH1 0x1 PUSH1 0x40 SHL SUB DUP2 GT PUSH2 0x2DC JUMPI PUSH2 0x66B SWAP1 CALLDATASIZE SWAP1 PUSH1 0x4 ADD PUSH2 0x171B JUMP JUMPDEST PUSH1 0x40 MLOAD PUSH2 0x677 DUP2 PUSH2 0x16C3 JUMP JUMPDEST PUSH1 0x60 DUP2 MSTORE PUSH1 0x20 DUP2 ADD PUSH1 0x60 SWAP1 MSTORE PUSH1 0x40 DUP2 ADD PUSH1 0x60 SWAP1 MSTORE PUSH1 0x60 DUP2 ADD PUSH1 0x60 SWAP1 MSTORE PUSH1 0x80 DUP2 ADD PUSH1 0x60 SWAP1 MSTORE PUSH1 0xA0 DUP2 ADD PUSH1 0x60 SWAP1 MSTORE PUSH1 0xC0 DUP2 ADD PUSH0 SWAP1 MSTORE PUSH1 0xE0 DUP2 ADD PUSH0 SWAP1 MSTORE PUSH2 0x100 DUP2 ADD PUSH1 0x60 SWAP1 MSTORE PUSH2 0x120 DUP2 ADD PUSH1 0x60 SWAP1 MSTORE PUSH2 0x140 ADD PUSH1 0x60 SWAP1 MSTORE DUP1 MLOAD ISZERO ISZERO PUSH2 0x6D8 SWAP1 PUSH2 0x1FDA JUMP JUMPDEST PUSH1 0x40 MLOAD DUP2 DUP2 SWAP3 MLOAD PUSH1 0x20 DUP2 SWAP3 ADD DUP4 MCOPY DUP2 ADD PUSH1 0x2 DUP2 MSTORE SUB PUSH1 0x20 ADD SWAP1 KECCAK256 PUSH1 0x40 MLOAD PUSH2 0x6FE DUP2 PUSH2 0x16C3 JUMP JUMPDEST PUSH2 0x707 DUP3 PUSH2 0x17A8 JUMP JUMPDEST DUP2 MSTORE PUSH2 0x715 PUSH1 0x1 DUP4 ADD PUSH2 0x17A8 JUMP JUMPDEST PUSH1 0x20 DUP3 ADD SWAP1 DUP2 MSTORE SWAP2 PUSH2 0x729 PUSH1 0x2 DUP3 ADD PUSH2 0x1F1B JUMP JUMPDEST PUSH1 0x40 DUP4 ADD SWAP1 DUP2 MSTORE SWAP1 PUSH2 0x73D PUSH1 0x3 DUP3 ADD PUSH2 0x1F1B JUMP JUMPDEST PUSH1 0x60 DUP5 ADD SWAP1 DUP2 MSTORE PUSH2 0x750 PUSH1 0x4 DUP4 ADD PUSH2 0x17A8 JUMP JUMPDEST PUSH1 0x80 DUP6 ADD SWAP1 DUP2 MSTORE SWAP1 PUSH2 0x764 PUSH1 0x5 DUP5 ADD PUSH2 0x17A8 JUMP JUMPDEST PUSH1 0xA0 DUP7 DUP2 ADD SWAP2 DUP3 MSTORE PUSH1 0x6 DUP6 ADD SLOAD PUSH1 0x1 PUSH1 0x1 PUSH1 0xA0 SHL SUB DUP2 AND PUSH1 0xC0 DUP10 ADD SWAP1 DUP2 MSTORE SWAP5 PUSH1 0xE0 DUP10 ADD SWAP4 SWAP3 SWAP1 SWAP2 PUSH1 0xFF SWAP2 SHR AND PUSH2 0x799 DUP2 PUSH2 0x186C JUMP JUMPDEST DUP4 MSTORE PUSH2 0x7A7 PUSH1 0x7 DUP8 ADD PUSH2 0x17A8 JUMP JUMPDEST PUSH2 0x100 DUP10 ADD SWAP1 DUP2 MSTORE SWAP4 PUSH2 0x7BC PUSH1 0x8 DUP9 ADD PUSH2 0x17A8 JUMP JUMPDEST SWAP7 PUSH2 0x120 DUP11 ADD SWAP8 DUP9 MSTORE PUSH1 0x9 ADD PUSH2 0x7D1 SWAP1 PUSH2 0x17A8 JUMP JUMPDEST SWAP8 PUSH2 0x140 DUP11 ADD SWAP9 DUP10 MSTORE PUSH1 0x40 MLOAD SWAP11 DUP12 SWAP11 PUSH1 0x20 DUP13 MSTORE MLOAD PUSH1 0x20 DUP13 ADD PUSH2 0x160 SWAP1 MSTORE PUSH2 0x180 DUP13 ADD PUSH2 0x7FC SWAP2 PUSH2 0x1848 JUMP JUMPDEST SWAP1 MLOAD DUP12 DUP3 SUB PUSH1 0x1F NOT ADD PUSH1 0x40 DUP14 ADD MSTORE PUSH2 0x814 SWAP2 SWAP1 PUSH2 0x1848 JUMP JUMPDEST SWAP1 MLOAD DUP11 DUP3 SUB PUSH1 0x1F NOT ADD PUSH1 0x60 DUP13 ADD MSTORE PUSH2 0x82C SWAP2 SWAP1 PUSH2 0x19D7 JUMP JUMPDEST SWAP1 MLOAD DUP10 DUP3 SUB PUSH1 0x1F NOT ADD PUSH1 0x80 DUP12 ADD MSTORE PUSH2 0x844 SWAP2 SWAP1 PUSH2 0x19D7 JUMP JUMPDEST SWAP1 MLOAD DUP9 DUP3 SUB PUSH1 0x1F NOT ADD PUSH1 0xA0 DUP11 ADD MSTORE PUSH2 0x85C SWAP2 SWAP1 PUSH2 0x1848 JUMP JUMPDEST SWAP1 MLOAD DUP8 DUP3 SUB PUSH1 0x1F NOT ADD PUSH1 0xC0 DUP10 ADD MSTORE PUSH2 0x874 SWAP2 SWAP1 PUSH2 0x1848 JUMP JUMPDEST SWAP3 MLOAD PUSH1 0x1 PUSH1 0x1 PUSH1 0xA0 SHL SUB AND PUSH1 0xE0 DUP8 ADD MSTORE MLOAD PUSH2 0x88E DUP2 PUSH2 0x186C JUMP JUMPDEST PUSH2 0x100 DUP7 ADD MSTORE MLOAD DUP5 DUP3 SUB PUSH1 0x1F NOT ADD PUSH2 0x120 DUP7 ADD MSTORE PUSH2 0x8AC SWAP2 SWAP1 PUSH2 0x1848 JUMP JUMPDEST SWAP1 MLOAD DUP4 DUP3 SUB PUSH1 0x1F NOT ADD PUSH2 0x140 DUP6 ADD MSTORE PUSH2 0x8C5 SWAP2 SWAP1 PUSH2 0x1848 JUMP JUMPDEST SWAP1 MLOAD DUP3 DUP3 SUB PUSH1 0x1F NOT ADD PUSH2 0x160 DUP5 ADD MSTORE PUSH2 0x17B SWAP2 SWAP1 PUSH2 0x1848 JUMP JUMPDEST CALLVALUE PUSH2 0x2DC JUMPI PUSH1 0xFF PUSH2 0x8EE CALLDATASIZE PUSH2 0x188A JUMP JUMPDEST SWAP4 PUSH1 0x40 SWAP7 SWAP4 SWAP2 SWAP3 SWAP7 MLOAD SWAP6 PUSH2 0x901 DUP8 PUSH2 0x16A8 JUMP JUMPDEST PUSH0 DUP8 MSTORE PUSH1 0x20 DUP8 ADD MSTORE PUSH1 0x40 DUP7 ADD MSTORE PUSH1 0x60 DUP6 ADD MSTORE DUP5 PUSH1 0x80 DUP6 ADD MSTORE AND PUSH1 0xA0 DUP4 ADD MSTORE PUSH1 0xC0 DUP3 ADD MSTORE PUSH0 SLOAD PUSH1 0x1 PUSH1 0x40 SHL DUP2 LT ISZERO PUSH2 0x4D4 JUMPI DUP1 PUSH1 0x1 PUSH2 0x942 SWAP3 ADD PUSH0 SSTORE PUSH0 PUSH2 0x1B14 JUMP JUMPDEST SWAP3 SWAP1 SWAP3 PUSH2 0x4C1 JUMPI PUSH1 0x20 DUP2 PUSH2 0x95A DUP3 SWAP4 PUSH2 0x4BF SWAP7 PUSH2 0x1C36 JUMP JUMPDEST PUSH1 0x40 MLOAD SWAP3 DUP2 DUP5 SWAP3 MLOAD SWAP2 DUP3 SWAP2 ADD DUP4 MCOPY DUP2 ADD PUSH1 0x4 DUP2 MSTORE SUB ADD SWAP1 KECCAK256 PUSH2 0x1D73 JUMP JUMPDEST CALLVALUE PUSH2 0x2DC JUMPI PUSH1 0x20 DUP1 PUSH2 0x988 CALLDATASIZE PUSH2 0x1AA1 JUMP JUMPDEST SWAP3 SWAP1 PUSH1 0x40 MLOAD SWAP3 DUP2 DUP5 SWAP3 MLOAD SWAP2 DUP3 SWAP2 ADD DUP4 MCOPY DUP2 ADD PUSH1 0x3 DUP2 MSTORE SUB ADD SWAP1 KECCAK256 SWAP1 DUP2 SLOAD DUP2 LT ISZERO PUSH2 0x2DC JUMPI PUSH2 0x9B5 SWAP2 PUSH2 0x1C07 JUMP JUMPDEST POP PUSH1 0xFF DUP2 SLOAD AND PUSH2 0x17B PUSH2 0x9CA PUSH1 0x1 DUP5 ADD PUSH2 0x17A8 JUMP JUMPDEST SWAP3 PUSH2 0x9D7 PUSH1 0x2 DUP3 ADD PUSH2 0x17A8 JUMP JUMPDEST PUSH2 0xA22 PUSH2 0x9EE PUSH1 0x4 PUSH1 0xFF PUSH1 0x3 DUP7 ADD SLOAD AND SWAP5 ADD PUSH2 0x17A8 JUMP JUMPDEST SWAP2 PUSH2 0xA14 PUSH1 0x40 MLOAD SWAP8 DUP8 PUSH2 0xA01 DUP11 SWAP10 PUSH2 0x186C JUMP JUMPDEST DUP9 MSTORE PUSH1 0xA0 PUSH1 0x20 DUP10 ADD MSTORE PUSH1 0xA0 DUP9 ADD SWAP1 PUSH2 0x1848 JUMP JUMPDEST SWAP1 DUP7 DUP3 SUB PUSH1 0x40 DUP9 ADD MSTORE PUSH2 0x1848 JUMP JUMPDEST SWAP2 PUSH1 0x60 DUP6 ADD MSTORE DUP4 DUP3 SUB PUSH1 0x80 DUP6 ADD MSTORE PUSH2 0x1848 JUMP JUMPDEST CALLVALUE PUSH2 0x2DC JUMPI PUSH1 0x40 CALLDATASIZE PUSH1 0x3 NOT ADD SLT PUSH2 0x2DC JUMPI PUSH1 0x4 CALLDATALOAD PUSH1 0x1 PUSH1 0x1 PUSH1 0x40 SHL SUB DUP2 GT PUSH2 0x2DC JUMPI PUSH2 0xA65 SWAP1 CALLDATASIZE SWAP1 PUSH1 0x4 ADD PUSH2 0x171B JUMP JUMPDEST PUSH1 0x24 CALLDATALOAD SWAP1 PUSH1 0x1 PUSH1 0x1 PUSH1 0x40 SHL SUB DUP3 GT PUSH2 0x2DC JUMPI PUSH1 0x8 PUSH1 0x20 DUP1 PUSH2 0xA8D PUSH2 0x4BF SWAP6 CALLDATASIZE SWAP1 PUSH1 0x4 ADD PUSH2 0x171B JUMP JUMPDEST SWAP4 PUSH2 0xA9A DUP2 MLOAD ISZERO ISZERO PUSH2 0x1FDA JUMP JUMPDEST PUSH1 0x40 MLOAD SWAP3 DUP2 DUP5 SWAP3 MLOAD SWAP2 DUP3 SWAP2 ADD DUP4 MCOPY DUP2 ADD PUSH1 0x2 DUP2 MSTORE SUB ADD SWAP1 KECCAK256 ADD PUSH2 0x1C36 JUMP JUMPDEST CALLVALUE PUSH2 0x2DC JUMPI PUSH1 0x40 CALLDATASIZE PUSH1 0x3 NOT ADD SLT PUSH2 0x2DC JUMPI PUSH1 0x4 CALLDATALOAD PUSH1 0x1 PUSH1 0x1 PUSH1 0x40 SHL SUB DUP2 GT PUSH2 0x2DC JUMPI PUSH2 0xAE8 SWAP1 CALLDATASIZE SWAP1 PUSH1 0x4 ADD PUSH2 0x171B JUMP JUMPDEST PUSH1 0x24 CALLDATALOAD PUSH1 0x2 DUP2 LT ISZERO PUSH2 0x2DC JUMPI PUSH1 0x40 MLOAD DUP3 MLOAD PUSH2 0x4BF SWAP4 PUSH1 0x20 SWAP2 DUP4 SWAP2 DUP2 SWAP1 DUP5 ADD DUP4 MCOPY DUP2 ADD PUSH1 0x4 DUP2 MSTORE SUB ADD SWAP1 KECCAK256 PUSH2 0x1D5B JUMP JUMPDEST CALLVALUE PUSH2 0x2DC JUMPI PUSH1 0x20 CALLDATASIZE PUSH1 0x3 NOT ADD SLT PUSH2 0x2DC JUMPI PUSH1 0x4 CALLDATALOAD PUSH1 0x1 PUSH1 0x1 PUSH1 0x40 SHL SUB DUP2 GT PUSH2 0x2DC JUMPI PUSH1 0x20 PUSH2 0xB4A DUP2 SWAP3 CALLDATASIZE SWAP1 PUSH1 0x4 ADD PUSH2 0x171B JUMP JUMPDEST PUSH1 0x40 MLOAD SWAP3 DUP2 DUP5 SWAP3 MLOAD SWAP2 DUP3 SWAP2 ADD DUP4 MCOPY DUP2 ADD PUSH1 0x5 DUP2 MSTORE SUB ADD SWAP1 KECCAK256 PUSH1 0xFF DUP2 SLOAD AND PUSH2 0x17B PUSH2 0xB76 PUSH1 0x1 DUP5 ADD PUSH2 0x17A8 JUMP JUMPDEST SWAP3 PUSH2 0xB83 PUSH1 0x2 DUP3 ADD PUSH2 0x17A8 JUMP JUMPDEST SWAP1 PUSH2 0xB90 PUSH1 0x3 DUP3 ADD PUSH2 0x17A8 JUMP JUMPDEST PUSH2 0xB9C PUSH1 0x4 DUP4 ADD PUSH2 0x17A8 JUMP JUMPDEST SWAP1 PUSH2 0xBB1 PUSH1 0x6 PUSH1 0xFF PUSH1 0x5 DUP7 ADD SLOAD AND SWAP5 ADD PUSH2 0x17A8 JUMP JUMPDEST SWAP4 PUSH1 0x40 MLOAD SWAP8 DUP9 SWAP8 DUP9 PUSH2 0x1A2F JUMP JUMPDEST CALLVALUE PUSH2 0x2DC JUMPI PUSH0 CALLDATASIZE PUSH1 0x3 NOT ADD SLT PUSH2 0x2DC JUMPI PUSH0 PUSH2 0xBD7 PUSH2 0x2013 JUMP JUMPDEST PUSH0 DUP1 SLOAD SWAP2 SWAP3 DUP2 JUMPDEST DUP4 DUP2 LT PUSH2 0xCCA JUMPI POP POP PUSH0 JUMPDEST DUP3 DUP2 LT PUSH2 0xBFE JUMPI PUSH1 0x40 MLOAD DUP1 PUSH2 0x17B DUP7 DUP3 PUSH2 0x1B29 JUMP JUMPDEST PUSH1 0xFF PUSH2 0xC0E PUSH1 0x20 PUSH2 0x190 DUP5 PUSH2 0x1AD2 JUMP JUMPDEST PUSH1 0x4 DUP2 MSTORE SUB ADD SWAP1 KECCAK256 SLOAD AND PUSH2 0xC21 DUP2 PUSH2 0x186C JUMP JUMPDEST ISZERO PUSH2 0xC2F JUMPI JUMPDEST PUSH1 0x1 ADD PUSH2 0xBE9 JUMP JUMPDEST SWAP1 PUSH2 0xCC2 PUSH1 0x1 SWAP2 PUSH2 0xC47 PUSH2 0x1F2 PUSH1 0x20 PUSH2 0x190 DUP8 PUSH2 0x1AD2 JUMP JUMPDEST PUSH1 0x40 DUP2 ADD MLOAD SWAP1 PUSH1 0x20 DUP2 ADD MLOAD SWAP1 PUSH1 0x60 DUP2 ADD MLOAD PUSH1 0x80 DUP3 ADD MLOAD PUSH1 0xFF PUSH1 0xA0 DUP5 ADD MLOAD AND SWAP2 PUSH1 0xC0 DUP5 MLOAD SWAP5 PUSH2 0xC74 DUP7 PUSH2 0x186C JUMP JUMPDEST ADD MLOAD SWAP5 PUSH1 0x40 MLOAD SWAP7 PUSH2 0xC84 DUP9 PUSH2 0x16A8 JUMP JUMPDEST DUP8 MSTORE PUSH1 0x20 DUP8 ADD MSTORE PUSH1 0x40 DUP7 ADD MSTORE PUSH1 0x60 DUP6 ADD MSTORE PUSH1 0x80 DUP5 ADD MSTORE PUSH2 0xCA3 DUP2 PUSH2 0x186C JUMP JUMPDEST PUSH1 0xA0 DUP4 ADD MSTORE PUSH1 0xC0 DUP3 ADD MSTORE PUSH2 0xCB7 DUP3 DUP9 PUSH2 0x1F07 JUMP JUMPDEST MSTORE PUSH2 0x27A DUP2 DUP8 PUSH2 0x1F07 JUMP JUMPDEST SWAP2 SWAP1 POP PUSH2 0xC27 JUMP JUMPDEST PUSH1 0xFF PUSH2 0xCDA PUSH1 0x20 PUSH2 0x190 DUP5 PUSH2 0x1AD2 JUMP JUMPDEST PUSH1 0x4 DUP2 MSTORE SUB ADD SWAP1 KECCAK256 SLOAD AND PUSH2 0xCED DUP2 PUSH2 0x186C JUMP JUMPDEST ISZERO PUSH2 0xCFB JUMPI JUMPDEST PUSH1 0x1 ADD PUSH2 0xBDE JUMP JUMPDEST SWAP1 PUSH2 0xD07 PUSH1 0x1 SWAP2 PUSH2 0x207A JUMP JUMPDEST SWAP2 SWAP1 POP PUSH2 0xCF3 JUMP JUMPDEST CALLVALUE PUSH2 0x2DC JUMPI PUSH1 0x20 CALLDATASIZE PUSH1 0x3 NOT ADD SLT PUSH2 0x2DC JUMPI PUSH1 0x4 CALLDATALOAD PUSH1 0x1 PUSH1 0x1 PUSH1 0x40 SHL SUB DUP2 GT PUSH2 0x2DC JUMPI PUSH1 0x20 PUSH2 0xD42 DUP2 SWAP3 CALLDATASIZE SWAP1 PUSH1 0x4 ADD PUSH2 0x171B JUMP JUMPDEST PUSH2 0xD4E DUP2 MLOAD ISZERO ISZERO PUSH2 0x1FDA JUMP JUMPDEST PUSH1 0x40 MLOAD SWAP3 DUP2 DUP5 SWAP3 MLOAD SWAP2 DUP3 SWAP2 ADD DUP4 MCOPY DUP2 ADD PUSH1 0x3 DUP2 MSTORE SUB ADD SWAP1 KECCAK256 DUP1 SLOAD SWAP1 PUSH2 0xD72 DUP3 PUSH2 0x1942 JUMP JUMPDEST SWAP2 PUSH2 0xD80 PUSH1 0x40 MLOAD SWAP4 DUP5 PUSH2 0x16FA JUMP JUMPDEST DUP1 DUP4 MSTORE PUSH1 0x20 DUP4 ADD DUP1 SWAP3 PUSH0 MSTORE PUSH1 0x20 PUSH0 KECCAK256 PUSH0 SWAP2 JUMPDEST DUP4 DUP4 LT PUSH2 0xE54 JUMPI DUP5 DUP7 PUSH1 0x40 MLOAD SWAP2 DUP3 SWAP2 PUSH1 0x20 DUP4 ADD SWAP1 PUSH1 0x20 DUP5 MSTORE MLOAD DUP1 SWAP2 MSTORE PUSH1 0x40 DUP4 ADD SWAP1 PUSH1 0x40 DUP2 PUSH1 0x5 SHL DUP6 ADD ADD SWAP3 SWAP2 PUSH0 SWAP1 JUMPDEST DUP3 DUP3 LT PUSH2 0xDD0 JUMPI POP POP POP POP SUB SWAP1 RETURN JUMPDEST SWAP2 SWAP4 PUSH1 0x1 SWAP2 SWAP4 SWAP6 POP PUSH1 0x20 PUSH2 0xE44 DUP2 SWAP3 PUSH1 0x3F NOT DUP11 DUP3 SUB ADD DUP7 MSTORE DUP9 MLOAD SWAP1 DUP2 MLOAD PUSH2 0xDF6 DUP2 PUSH2 0x186C JUMP JUMPDEST DUP2 MSTORE PUSH1 0x80 PUSH2 0xE26 PUSH2 0xE14 DUP7 DUP6 ADD MLOAD PUSH1 0xA0 DUP9 DUP7 ADD MSTORE PUSH1 0xA0 DUP6 ADD SWAP1 PUSH2 0x1848 JUMP JUMPDEST PUSH1 0x40 DUP6 ADD MLOAD DUP5 DUP3 SUB PUSH1 0x40 DUP7 ADD MSTORE PUSH2 0x1848 JUMP JUMPDEST SWAP3 PUSH1 0xFF PUSH1 0x60 DUP3 ADD MLOAD AND PUSH1 0x60 DUP5 ADD MSTORE ADD MLOAD SWAP1 PUSH1 0x80 DUP2 DUP5 SUB SWAP2 ADD MSTORE PUSH2 0x1848 JUMP JUMPDEST SWAP7 ADD SWAP3 ADD SWAP3 ADD DUP6 SWAP5 SWAP4 SWAP2 SWAP3 PUSH2 0xDC1 JUMP JUMPDEST PUSH1 0x5 PUSH1 0x20 PUSH1 0x1 SWAP3 PUSH1 0x40 MLOAD PUSH2 0xE67 DUP2 PUSH2 0x16DF JUMP JUMPDEST PUSH1 0xFF DUP7 SLOAD AND PUSH2 0xE75 DUP2 PUSH2 0x186C JUMP JUMPDEST DUP2 MSTORE PUSH2 0xE82 DUP6 DUP8 ADD PUSH2 0x17A8 JUMP JUMPDEST DUP4 DUP3 ADD MSTORE PUSH2 0xE92 PUSH1 0x2 DUP8 ADD PUSH2 0x17A8 JUMP JUMPDEST PUSH1 0x40 DUP3 ADD MSTORE PUSH1 0xFF PUSH1 0x3 DUP8 ADD SLOAD AND PUSH1 0x60 DUP3 ADD MSTORE PUSH2 0xEB0 PUSH1 0x4 DUP8 ADD PUSH2 0x17A8 JUMP JUMPDEST PUSH1 0x80 DUP3 ADD MSTORE DUP2 MSTORE ADD SWAP3 ADD SWAP3 ADD SWAP2 SWAP1 PUSH2 0xD92 JUMP JUMPDEST CALLVALUE PUSH2 0x2DC JUMPI PUSH2 0x160 CALLDATASIZE PUSH1 0x3 NOT ADD SLT PUSH2 0x2DC JUMPI PUSH1 0x4 CALLDATALOAD PUSH1 0x1 PUSH1 0x1 PUSH1 0x40 SHL SUB DUP2 GT PUSH2 0x2DC JUMPI PUSH2 0xEF4 SWAP1 CALLDATASIZE SWAP1 PUSH1 0x4 ADD PUSH2 0x171B JUMP JUMPDEST PUSH1 0x24 CALLDATALOAD PUSH1 0x1 PUSH1 0x1 PUSH1 0x40 SHL SUB DUP2 GT PUSH2 0x2DC JUMPI PUSH2 0xF13 SWAP1 CALLDATASIZE SWAP1 PUSH1 0x4 ADD PUSH2 0x171B JUMP JUMPDEST PUSH1 0x44 CALLDATALOAD PUSH1 0x1 PUSH1 0x1 PUSH1 0x40 SHL SUB DUP2 GT PUSH2 0x2DC JUMPI PUSH2 0xF32 SWAP1 CALLDATASIZE SWAP1 PUSH1 0x4 ADD PUSH2 0x171B JUMP JUMPDEST PUSH1 0x64 CALLDATALOAD PUSH1 0x1 PUSH1 0x1 PUSH1 0x40 SHL SUB DUP2 GT PUSH2 0x2DC JUMPI PUSH2 0xF51 SWAP1 CALLDATASIZE SWAP1 PUSH1 0x4 ADD PUSH2 0x1959 JUMP JUMPDEST SWAP3 PUSH1 0x84 CALLDATALOAD PUSH1 0x1 PUSH1 0x1 PUSH1 0x40 SHL SUB DUP2 GT PUSH2 0x2DC JUMPI PUSH2 0xF71 SWAP1 CALLDATASIZE SWAP1 PUSH1 0x4 ADD PUSH2 0x1959 JUMP JUMPDEST SWAP1 PUSH1 0xA4 CALLDATALOAD PUSH1 0x1 PUSH1 0x1 PUSH1 0x40 SHL SUB DUP2 GT PUSH2 0x2DC JUMPI PUSH2 0xF91 SWAP1 CALLDATASIZE SWAP1 PUSH1 0x4 ADD PUSH2 0x171B JUMP JUMPDEST SWAP1 PUSH1 0xC4 CALLDATALOAD PUSH1 0x1 PUSH1 0x1 PUSH1 0x40 SHL SUB DUP2 GT PUSH2 0x2DC JUMPI PUSH2 0xFB1 SWAP1 CALLDATASIZE SWAP1 PUSH1 0x4 ADD PUSH2 0x171B JUMP JUMPDEST PUSH1 0xE4 CALLDATALOAD PUSH1 0x1 PUSH1 0x1 PUSH1 0xA0 SHL SUB DUP2 AND SWAP4 SWAP1 DUP5 SWAP1 SUB PUSH2 0x2DC JUMPI PUSH2 0x104 CALLDATALOAD SWAP3 PUSH1 0x2 DUP5 LT ISZERO PUSH2 0x2DC JUMPI PUSH2 0x124 CALLDATALOAD PUSH1 0x1 PUSH1 0x1 PUSH1 0x40 SHL SUB DUP2 GT PUSH2 0x2DC JUMPI PUSH2 0xFF5 SWAP1 CALLDATASIZE SWAP1 PUSH1 0x4 ADD PUSH2 0x171B JUMP JUMPDEST SWAP6 PUSH2 0x144 CALLDATALOAD PUSH1 0x1 PUSH1 0x1 PUSH1 0x40 SHL SUB DUP2 GT PUSH2 0x2DC JUMPI PUSH2 0x1016 SWAP1 CALLDATASIZE SWAP1 PUSH1 0x4 ADD PUSH2 0x171B JUMP JUMPDEST SWAP10 DUP3 MLOAD ISZERO ISZERO PUSH2 0x1024 SWAP1 PUSH2 0x1FDA JUMP JUMPDEST PUSH1 0x40 MLOAD SWAP10 PUSH2 0x1031 DUP12 PUSH2 0x16C3 JUMP JUMPDEST DUP11 MSTORE PUSH1 0x20 DUP11 ADD SWAP9 DUP10 MSTORE PUSH1 0x40 DUP11 ADD SWAP1 DUP2 MSTORE PUSH1 0x60 DUP11 ADD SWAP2 DUP3 MSTORE PUSH1 0x80 DUP11 ADD SWAP4 DUP5 MSTORE PUSH1 0xA0 DUP11 ADD SWAP5 DUP6 MSTORE PUSH1 0xC0 DUP11 ADD SWAP7 DUP8 MSTORE PUSH1 0xE0 DUP11 ADD SWAP6 PUSH2 0x106B DUP2 PUSH2 0x186C JUMP JUMPDEST DUP7 MSTORE PUSH2 0x100 DUP11 ADD SWAP8 DUP9 MSTORE PUSH1 0x20 SWAP9 DUP10 DUP1 DUP1 SWAP6 PUSH1 0x40 MLOAD SWAP13 PUSH2 0x108A SWAP1 DUP15 PUSH2 0x16FA JUMP JUMPDEST PUSH0 DUP14 MSTORE DUP14 PUSH2 0x120 DUP2 ADD SWAP14 DUP15 MSTORE PUSH2 0x140 ADD SWAP15 DUP16 MSTORE PUSH1 0x40 MLOAD SWAP3 DUP2 DUP5 SWAP3 MLOAD SWAP2 DUP3 SWAP2 ADD DUP4 MCOPY DUP2 ADD PUSH1 0x2 DUP2 MSTORE SUB ADD SWAP1 KECCAK256 SWAP11 MLOAD PUSH2 0x10C1 SWAP1 DUP13 PUSH2 0x1C36 JUMP JUMPDEST MLOAD PUSH2 0x10CF SWAP1 PUSH1 0x1 DUP13 ADD PUSH2 0x1C36 JUMP JUMPDEST PUSH1 0x2 DUP11 ADD SWAP1 MLOAD SWAP1 DUP4 DUP3 MLOAD SWAP3 PUSH2 0x10E4 DUP5 DUP5 PUSH2 0x1E76 JUMP JUMPDEST ADD SWAP1 PUSH0 MSTORE DUP4 PUSH0 KECCAK256 DUP5 PUSH0 SWAP3 JUMPDEST DUP5 DUP5 LT PUSH2 0x11CE JUMPI POP POP POP POP POP PUSH1 0x3 DUP10 ADD SWAP1 MLOAD SWAP2 DUP1 DUP4 MLOAD SWAP4 PUSH2 0x1110 DUP6 DUP6 PUSH2 0x1E76 JUMP JUMPDEST ADD SWAP2 PUSH0 MSTORE DUP1 PUSH0 KECCAK256 PUSH0 SWAP3 JUMPDEST DUP5 DUP5 LT PUSH2 0x11B2 JUMPI POP POP POP PUSH2 0x4BF DUP10 PUSH1 0x9 DUP13 PUSH2 0x11AA DUP13 PUSH2 0x11A0 DUP14 DUP14 DUP14 PUSH2 0x1151 DUP15 PUSH2 0x1147 DUP16 MLOAD PUSH1 0x4 DUP14 ADD PUSH2 0x1C36 JUMP JUMPDEST MLOAD PUSH1 0x5 DUP12 ADD PUSH2 0x1C36 JUMP JUMPDEST SWAP1 MLOAD PUSH1 0x6 DUP10 ADD DUP1 SLOAD SWAP3 MLOAD SWAP1 SWAP3 SWAP2 PUSH1 0x1 PUSH1 0x1 PUSH1 0xA0 SHL SUB AND SWAP1 PUSH2 0x1171 DUP2 PUSH2 0x186C JUMP JUMPDEST PUSH2 0x117A DUP2 PUSH2 0x186C JUMP JUMPDEST PUSH1 0x1 PUSH1 0x1 PUSH1 0xA8 SHL SUB NOT SWAP1 SWAP3 AND OR PUSH1 0xA0 SWAP2 SWAP1 SWAP2 SHL PUSH1 0xFF PUSH1 0xA0 SHL AND OR SWAP1 SSTORE MLOAD PUSH1 0x7 DUP8 ADD PUSH2 0x1C36 JUMP JUMPDEST MLOAD PUSH1 0x8 DUP6 ADD PUSH2 0x1C36 JUMP JUMPDEST MLOAD SWAP2 ADD PUSH2 0x1C36 JUMP JUMPDEST PUSH1 0x1 DUP4 DUP3 PUSH2 0x11C2 DUP4 SWAP5 MLOAD DUP7 PUSH2 0x1C36 JUMP JUMPDEST ADD SWAP3 ADD SWAP4 ADD SWAP3 SWAP1 PUSH2 0x111A JUMP JUMPDEST PUSH1 0x1 SWAP2 DUP2 PUSH2 0x11DE DUP5 SWAP4 MLOAD DUP7 PUSH2 0x1C36 JUMP JUMPDEST ADD SWAP3 ADD SWAP3 ADD SWAP2 SWAP1 DUP6 SWAP1 PUSH2 0x10EF JUMP JUMPDEST CALLVALUE PUSH2 0x2DC JUMPI PUSH1 0x60 CALLDATASIZE PUSH1 0x3 NOT ADD SLT PUSH2 0x2DC JUMPI PUSH1 0x4 CALLDATALOAD PUSH1 0x1 PUSH1 0x1 PUSH1 0x40 SHL SUB DUP2 GT PUSH2 0x2DC JUMPI PUSH2 0x121C SWAP1 CALLDATASIZE SWAP1 PUSH1 0x4 ADD PUSH2 0x171B JUMP JUMPDEST PUSH1 0x24 CALLDATALOAD PUSH1 0x1 PUSH1 0x1 PUSH1 0x40 SHL SUB DUP2 GT PUSH2 0x2DC JUMPI PUSH2 0x123B SWAP1 CALLDATASIZE SWAP1 PUSH1 0x4 ADD PUSH2 0x171B JUMP JUMPDEST SWAP1 PUSH1 0x44 CALLDATALOAD SWAP1 PUSH1 0x2 DUP3 LT ISZERO PUSH2 0x2DC JUMPI PUSH1 0x20 DUP1 SWAP2 PUSH1 0x40 MLOAD SWAP3 DUP2 DUP5 SWAP3 MLOAD SWAP2 DUP3 SWAP2 ADD DUP4 MCOPY DUP2 ADD PUSH1 0x3 DUP2 MSTORE SUB ADD SWAP1 KECCAK256 SWAP2 PUSH1 0x40 MLOAD PUSH2 0x1292 PUSH1 0x20 DUP3 DUP2 DUP1 DUP3 ADD SWAP6 DUP1 MLOAD SWAP2 DUP3 SWAP2 ADD DUP8 MCOPY DUP2 ADD PUSH0 DUP4 DUP3 ADD MSTORE SUB ADD PUSH1 0x1F NOT DUP2 ADD DUP4 MSTORE DUP3 PUSH2 0x16FA JUMP JUMPDEST MLOAD SWAP1 KECCAK256 SWAP2 PUSH0 JUMPDEST DUP2 SLOAD DUP2 LT ISZERO PUSH2 0x4BF JUMPI DUP4 PUSH1 0x2 PUSH2 0x1BB PUSH2 0x12C8 PUSH2 0x12B4 DUP6 DUP8 PUSH2 0x1C07 JUMP JUMPDEST POP PUSH1 0x40 MLOAD SWAP3 DUP4 SWAP2 PUSH1 0x20 DUP4 ADD SWAP6 DUP7 SWAP2 ADD PUSH2 0x1F70 JUMP JUMPDEST MLOAD SWAP1 KECCAK256 EQ PUSH2 0x12D8 JUMPI PUSH1 0x1 ADD PUSH2 0x1298 JUMP JUMPDEST PUSH2 0x4BF SWAP4 POP PUSH2 0x12E6 SWAP2 PUSH2 0x1C07 JUMP JUMPDEST POP PUSH2 0x1D5B JUMP JUMPDEST CALLVALUE PUSH2 0x2DC JUMPI PUSH1 0x20 DUP1 PUSH2 0x12FD CALLDATASIZE PUSH2 0x1AA1 JUMP JUMPDEST SWAP3 SWAP1 PUSH1 0x40 MLOAD SWAP3 DUP2 DUP5 SWAP3 MLOAD SWAP2 DUP3 SWAP2 ADD DUP4 MCOPY DUP2 ADD PUSH1 0x6 DUP2 MSTORE SUB ADD SWAP1 KECCAK256 SWAP1 DUP2 SLOAD DUP2 LT ISZERO PUSH2 0x2DC JUMPI PUSH2 0x132A SWAP2 PUSH2 0x1B14 JUMP JUMPDEST PUSH2 0x4C1 JUMPI PUSH2 0x133A PUSH2 0x17B SWAP2 PUSH2 0x17A8 JUMP JUMPDEST PUSH1 0x40 MLOAD SWAP2 DUP3 SWAP2 PUSH1 0x20 DUP4 MSTORE PUSH1 0x20 DUP4 ADD SWAP1 PUSH2 0x1848 JUMP JUMPDEST CALLVALUE PUSH2 0x2DC JUMPI PUSH1 0x20 CALLDATASIZE PUSH1 0x3 NOT ADD SLT PUSH2 0x2DC JUMPI PUSH1 0x4 CALLDATALOAD PUSH1 0x1 PUSH1 0x1 PUSH1 0x40 SHL SUB DUP2 GT PUSH2 0x2DC JUMPI PUSH1 0x20 PUSH2 0x1381 DUP2 SWAP3 CALLDATASIZE SWAP1 PUSH1 0x4 ADD PUSH2 0x171B JUMP JUMPDEST PUSH1 0x40 MLOAD SWAP3 DUP2 DUP5 SWAP3 MLOAD SWAP2 DUP3 SWAP2 ADD DUP4 MCOPY DUP2 ADD PUSH1 0x4 DUP2 MSTORE SUB ADD SWAP1 KECCAK256 PUSH1 0xFF DUP2 SLOAD AND PUSH2 0x17B PUSH2 0xB76 PUSH1 0x1 DUP5 ADD PUSH2 0x17A8 JUMP JUMPDEST CALLVALUE PUSH2 0x2DC JUMPI PUSH1 0x20 CALLDATASIZE PUSH1 0x3 NOT ADD SLT PUSH2 0x2DC JUMPI PUSH1 0x4 CALLDATALOAD PUSH1 0x1 PUSH1 0x1 PUSH1 0x40 SHL SUB DUP2 GT PUSH2 0x2DC JUMPI PUSH2 0x1403 PUSH1 0x20 DUP1 PUSH2 0x13E6 PUSH2 0x17B SWAP5 CALLDATASIZE SWAP1 PUSH1 0x4 ADD PUSH2 0x171B JUMP JUMPDEST PUSH1 0x40 MLOAD SWAP3 DUP2 DUP5 SWAP3 MLOAD SWAP2 DUP3 SWAP2 ADD DUP4 MCOPY DUP2 ADD PUSH1 0x6 DUP2 MSTORE SUB ADD SWAP1 KECCAK256 PUSH2 0x1F1B JUMP JUMPDEST PUSH1 0x40 MLOAD SWAP2 DUP3 SWAP2 PUSH1 0x20 DUP4 MSTORE PUSH1 0x20 DUP4 ADD SWAP1 PUSH2 0x19D7 JUMP JUMPDEST CALLVALUE PUSH2 0x2DC JUMPI PUSH1 0x40 CALLDATASIZE PUSH1 0x3 NOT ADD SLT PUSH2 0x2DC JUMPI PUSH1 0x4 CALLDATALOAD PUSH1 0x1 PUSH1 0x1 PUSH1 0x40 SHL SUB DUP2 GT PUSH2 0x2DC JUMPI PUSH2 0x1447 SWAP1 CALLDATASIZE SWAP1 PUSH1 0x4 ADD PUSH2 0x171B JUMP JUMPDEST PUSH1 0x24 CALLDATALOAD PUSH1 0x1 PUSH1 0x1 PUSH1 0x40 SHL SUB DUP2 GT PUSH2 0x2DC JUMPI PUSH2 0x1466 SWAP1 CALLDATASIZE SWAP1 PUSH1 0x4 ADD PUSH2 0x1959 JUMP JUMPDEST PUSH1 0x40 MLOAD SWAP2 PUSH2 0x148A DUP2 MLOAD SWAP4 PUSH1 0x20 DUP2 DUP2 DUP6 ADD SWAP7 DUP1 DUP9 DUP4 MCOPY DUP2 ADD PUSH1 0x6 DUP2 MSTORE SUB ADD SWAP1 KECCAK256 PUSH2 0x1DF5 JUMP JUMPDEST PUSH0 JUMPDEST DUP3 MLOAD DUP2 LT ISZERO PUSH2 0x4BF JUMPI PUSH1 0x1 SWAP1 PUSH2 0x14BB PUSH1 0x40 MLOAD PUSH1 0x20 DUP2 DUP7 MLOAD DUP1 DUP11 DUP4 MCOPY DUP2 ADD PUSH1 0x6 DUP2 MSTORE SUB ADD SWAP1 KECCAK256 PUSH2 0x41E DUP4 DUP8 PUSH2 0x1F07 JUMP JUMPDEST ADD PUSH2 0x148C JUMP JUMPDEST CALLVALUE PUSH2 0x2DC JUMPI PUSH1 0xFF PUSH2 0x14D1 CALLDATASIZE PUSH2 0x188A JUMP JUMPDEST SWAP4 PUSH1 0x40 SWAP7 SWAP4 SWAP2 SWAP3 SWAP7 MLOAD SWAP6 PUSH2 0x14E4 DUP8 PUSH2 0x16A8 JUMP JUMPDEST PUSH0 DUP8 MSTORE PUSH1 0x20 DUP8 ADD MSTORE PUSH1 0x40 DUP7 ADD MSTORE PUSH1 0x60 DUP6 ADD MSTORE DUP5 PUSH1 0x80 DUP6 ADD MSTORE AND PUSH1 0xA0 DUP4 ADD MSTORE PUSH1 0xC0 DUP3 ADD MSTORE PUSH1 0x1 SLOAD PUSH1 0x1 PUSH1 0x40 SHL DUP2 LT ISZERO PUSH2 0x4D4 JUMPI DUP1 PUSH1 0x1 PUSH2 0x1528 SWAP3 ADD PUSH1 0x1 SSTORE PUSH1 0x1 PUSH2 0x1B14 JUMP JUMPDEST SWAP3 SWAP1 SWAP3 PUSH2 0x4C1 JUMPI PUSH1 0x20 DUP2 PUSH2 0x1540 DUP3 SWAP4 PUSH2 0x4BF SWAP7 PUSH2 0x1C36 JUMP JUMPDEST PUSH1 0x40 MLOAD SWAP3 DUP2 DUP5 SWAP3 MLOAD SWAP2 DUP3 SWAP2 ADD DUP4 MCOPY DUP2 ADD PUSH1 0x5 DUP2 MSTORE SUB ADD SWAP1 KECCAK256 PUSH2 0x1D73 JUMP JUMPDEST CALLVALUE PUSH2 0x2DC JUMPI PUSH1 0x20 CALLDATASIZE PUSH1 0x3 NOT ADD SLT PUSH2 0x2DC JUMPI PUSH1 0x4 CALLDATALOAD PUSH1 0x1 PUSH1 0x1 PUSH1 0x40 SHL SUB DUP2 GT PUSH2 0x2DC JUMPI PUSH2 0x158D SWAP1 CALLDATASIZE SWAP1 PUSH1 0x4 ADD PUSH2 0x171B JUMP JUMPDEST PUSH1 0x40 MLOAD DUP2 DUP2 SWAP3 MLOAD PUSH1 0x20 DUP2 SWAP3 ADD DUP4 MCOPY DUP2 ADD PUSH1 0x2 DUP2 MSTORE SUB PUSH1 0x20 ADD SWAP1 KECCAK256 PUSH2 0x15B0 DUP2 PUSH2 0x17A8 JUMP JUMPDEST PUSH2 0x15BC PUSH1 0x1 DUP4 ADD PUSH2 0x17A8 JUMP JUMPDEST SWAP2 PUSH2 0x15C9 PUSH1 0x4 DUP3 ADD PUSH2 0x17A8 JUMP JUMPDEST SWAP1 PUSH2 0x15D6 PUSH1 0x5 DUP3 ADD PUSH2 0x17A8 JUMP JUMPDEST PUSH1 0x6 DUP3 ADD SLOAD DUP1 PUSH1 0xA0 SHR PUSH1 0xFF AND PUSH1 0x7 DUP5 ADD PUSH2 0x15EF SWAP1 PUSH2 0x17A8 JUMP JUMPDEST SWAP3 PUSH2 0x15FC PUSH1 0x8 DUP7 ADD PUSH2 0x17A8 JUMP JUMPDEST SWAP5 PUSH1 0x9 ADD PUSH2 0x1609 SWAP1 PUSH2 0x17A8 JUMP JUMPDEST SWAP6 PUSH1 0x40 MLOAD SWAP9 DUP10 SWAP9 PUSH2 0x120 DUP11 MSTORE PUSH2 0x120 DUP11 ADD PUSH2 0x1623 SWAP2 PUSH2 0x1848 JUMP JUMPDEST DUP10 DUP2 SUB PUSH1 0x20 DUP12 ADD MSTORE PUSH2 0x1634 SWAP2 PUSH2 0x1848 JUMP JUMPDEST DUP9 DUP2 SUB PUSH1 0x40 DUP11 ADD MSTORE PUSH2 0x1645 SWAP2 PUSH2 0x1848 JUMP JUMPDEST DUP8 DUP2 SUB PUSH1 0x60 DUP10 ADD MSTORE PUSH2 0x1656 SWAP2 PUSH2 0x1848 JUMP JUMPDEST PUSH1 0x1 PUSH1 0x1 PUSH1 0xA0 SHL SUB SWAP1 SWAP3 AND PUSH1 0x80 DUP8 ADD MSTORE PUSH2 0x166F DUP2 PUSH2 0x186C JUMP JUMPDEST PUSH1 0xA0 DUP7 ADD MSTORE DUP5 DUP2 SUB PUSH1 0xC0 DUP7 ADD MSTORE PUSH2 0x1685 SWAP2 PUSH2 0x1848 JUMP JUMPDEST DUP4 DUP2 SUB PUSH1 0xE0 DUP6 ADD MSTORE PUSH2 0x1696 SWAP2 PUSH2 0x1848 JUMP JUMPDEST DUP3 DUP2 SUB PUSH2 0x100 DUP5 ADD MSTORE PUSH2 0x17B SWAP2 PUSH2 0x1848 JUMP JUMPDEST PUSH1 0xE0 DUP2 ADD SWAP1 DUP2 LT PUSH1 0x1 PUSH1 0x1 PUSH1 0x40 SHL SUB DUP3 GT OR PUSH2 0x4D4 JUMPI PUSH1 0x40 MSTORE JUMP JUMPDEST PUSH2 0x160 DUP2 ADD SWAP1 DUP2 LT PUSH1 0x1 PUSH1 0x1 PUSH1 0x40 SHL SUB DUP3 GT OR PUSH2 0x4D4 JUMPI PUSH1 0x40 MSTORE JUMP JUMPDEST PUSH1 0xA0 DUP2 ADD SWAP1 DUP2 LT PUSH1 0x1 PUSH1 0x1 PUSH1 0x40 SHL SUB DUP3 GT OR PUSH2 0x4D4 JUMPI PUSH1 0x40 MSTORE JUMP JUMPDEST SWAP1 PUSH1 0x1F DUP1 NOT SWAP2 ADD AND DUP2 ADD SWAP1 DUP2 LT PUSH1 0x1 PUSH1 0x1 PUSH1 0x40 SHL SUB DUP3 GT OR PUSH2 0x4D4 JUMPI PUSH1 0x40 MSTORE JUMP JUMPDEST DUP2 PUSH1 0x1F DUP3 ADD SLT ISZERO PUSH2 0x2DC JUMPI DUP1 CALLDATALOAD SWAP1 PUSH1 0x1 PUSH1 0x1 PUSH1 0x40 SHL SUB DUP3 GT PUSH2 0x4D4 JUMPI PUSH1 0x40 MLOAD SWAP3 PUSH2 0x174F PUSH1 0x1F DUP5 ADD PUSH1 0x1F NOT AND PUSH1 0x20 ADD DUP6 PUSH2 0x16FA JUMP JUMPDEST DUP3 DUP5 MSTORE PUSH1 0x20 DUP4 DUP4 ADD ADD GT PUSH2 0x2DC JUMPI DUP2 PUSH0 SWAP3 PUSH1 0x20 DUP1 SWAP4 ADD DUP4 DUP7 ADD CALLDATACOPY DUP4 ADD ADD MSTORE SWAP1 JUMP JUMPDEST SWAP1 PUSH1 0x1 DUP3 DUP2 SHR SWAP3 AND DUP1 ISZERO PUSH2 0x179E JUMPI JUMPDEST PUSH1 0x20 DUP4 LT EQ PUSH2 0x178A JUMPI JUMP JUMPDEST PUSH4 0x4E487B71 PUSH1 0xE0 SHL PUSH0 MSTORE PUSH1 0x22 PUSH1 0x4 MSTORE PUSH1 0x24 PUSH0 REVERT JUMPDEST SWAP2 PUSH1 0x7F AND SWAP2 PUSH2 0x177F JUMP JUMPDEST SWAP1 PUSH1 0x40 MLOAD SWAP2 DUP3 PUSH0 DUP3 SLOAD SWAP3 PUSH2 0x17BB DUP5 PUSH2 0x1770 JUMP JUMPDEST DUP1 DUP5 MSTORE SWAP4 PUSH1 0x1 DUP2 AND SWAP1 DUP2 ISZERO PUSH2 0x1826 JUMPI POP PUSH1 0x1 EQ PUSH2 0x17E2 JUMPI JUMPDEST POP PUSH2 0x17E0 SWAP3 POP SUB DUP4 PUSH2 0x16FA JUMP JUMPDEST JUMP JUMPDEST SWAP1 POP PUSH0 SWAP3 SWAP2 SWAP3 MSTORE PUSH1 0x20 PUSH0 KECCAK256 SWAP1 PUSH0 SWAP2 JUMPDEST DUP2 DUP4 LT PUSH2 0x180A JUMPI POP POP SWAP1 PUSH1 0x20 PUSH2 0x17E0 SWAP3 DUP3 ADD ADD PUSH0 PUSH2 0x17D3 JUMP JUMPDEST PUSH1 0x20 SWAP2 SWAP4 POP DUP1 PUSH1 0x1 SWAP2 SLOAD DUP4 DUP6 DUP10 ADD ADD MSTORE ADD SWAP2 ADD SWAP1 SWAP2 DUP5 SWAP3 PUSH2 0x17F1 JUMP JUMPDEST SWAP1 POP PUSH1 0x20 SWAP3 POP PUSH2 0x17E0 SWAP5 SWAP2 POP PUSH1 0xFF NOT AND DUP3 DUP5 ADD MSTORE ISZERO ISZERO PUSH1 0x5 SHL DUP3 ADD ADD PUSH0 PUSH2 0x17D3 JUMP JUMPDEST DUP1 MLOAD DUP1 DUP4 MSTORE PUSH1 0x20 SWAP3 SWAP2 DUP2 SWAP1 DUP5 ADD DUP5 DUP5 ADD MCOPY PUSH0 DUP3 DUP3 ADD DUP5 ADD MSTORE PUSH1 0x1F ADD PUSH1 0x1F NOT AND ADD ADD SWAP1 JUMP JUMPDEST PUSH1 0x2 GT ISZERO PUSH2 0x1876 JUMPI JUMP JUMPDEST PUSH4 0x4E487B71 PUSH1 0xE0 SHL PUSH0 MSTORE PUSH1 0x21 PUSH1 0x4 MSTORE PUSH1 0x24 PUSH0 REVERT JUMPDEST SWAP1 PUSH1 0xC0 PUSH1 0x3 NOT DUP4 ADD SLT PUSH2 0x2DC JUMPI PUSH1 0x4 CALLDATALOAD PUSH1 0x1 PUSH1 0x1 PUSH1 0x40 SHL SUB DUP2 GT PUSH2 0x2DC JUMPI DUP3 PUSH2 0x18B5 SWAP2 PUSH1 0x4 ADD PUSH2 0x171B JUMP JUMPDEST SWAP2 PUSH1 0x24 CALLDATALOAD PUSH1 0x1 PUSH1 0x1 PUSH1 0x40 SHL SUB DUP2 GT PUSH2 0x2DC JUMPI DUP2 PUSH2 0x18D4 SWAP2 PUSH1 0x4 ADD PUSH2 0x171B JUMP JUMPDEST SWAP2 PUSH1 0x44 CALLDATALOAD PUSH1 0x1 PUSH1 0x1 PUSH1 0x40 SHL SUB DUP2 GT PUSH2 0x2DC JUMPI DUP3 PUSH2 0x18F3 SWAP2 PUSH1 0x4 ADD PUSH2 0x171B JUMP JUMPDEST SWAP2 PUSH1 0x64 CALLDATALOAD PUSH1 0x1 PUSH1 0x1 PUSH1 0x40 SHL SUB DUP2 GT PUSH2 0x2DC JUMPI DUP2 PUSH2 0x1912 SWAP2 PUSH1 0x4 ADD PUSH2 0x171B JUMP JUMPDEST SWAP2 PUSH1 0x84 CALLDATALOAD PUSH1 0xFF DUP2 AND DUP2 SUB PUSH2 0x2DC JUMPI SWAP2 PUSH1 0xA4 CALLDATALOAD SWAP1 PUSH1 0x1 PUSH1 0x1 PUSH1 0x40 SHL SUB DUP3 GT PUSH2 0x2DC JUMPI PUSH2 0x193F SWAP2 PUSH1 0x4 ADD PUSH2 0x171B JUMP JUMPDEST SWAP1 JUMP JUMPDEST PUSH1 0x1 PUSH1 0x1 PUSH1 0x40 SHL SUB DUP2 GT PUSH2 0x4D4 JUMPI PUSH1 0x5 SHL PUSH1 0x20 ADD SWAP1 JUMP JUMPDEST SWAP1 DUP1 PUSH1 0x1F DUP4 ADD SLT ISZERO PUSH2 0x2DC JUMPI DUP2 CALLDATALOAD PUSH2 0x1970 DUP2 PUSH2 0x1942 JUMP JUMPDEST SWAP3 PUSH2 0x197E PUSH1 0x40 MLOAD SWAP5 DUP6 PUSH2 0x16FA JUMP JUMPDEST DUP2 DUP5 MSTORE PUSH1 0x20 DUP1 DUP6 ADD SWAP3 PUSH1 0x5 SHL DUP3 ADD ADD SWAP2 DUP4 DUP4 GT PUSH2 0x2DC JUMPI PUSH1 0x20 DUP3 ADD SWAP1 JUMPDEST DUP4 DUP3 LT PUSH2 0x19AA JUMPI POP POP POP POP POP SWAP1 JUMP JUMPDEST DUP2 CALLDATALOAD PUSH1 0x1 PUSH1 0x1 PUSH1 0x40 SHL SUB DUP2 GT PUSH2 0x2DC JUMPI PUSH1 0x20 SWAP2 PUSH2 0x19CC DUP8 DUP5 DUP1 SWAP5 DUP9 ADD ADD PUSH2 0x171B JUMP JUMPDEST DUP2 MSTORE ADD SWAP2 ADD SWAP1 PUSH2 0x199B JUMP JUMPDEST SWAP1 DUP1 PUSH1 0x20 DUP4 MLOAD SWAP2 DUP3 DUP2 MSTORE ADD SWAP2 PUSH1 0x20 DUP1 DUP4 PUSH1 0x5 SHL DUP4 ADD ADD SWAP5 ADD SWAP3 PUSH0 SWAP2 JUMPDEST DUP4 DUP4 LT PUSH2 0x1A02 JUMPI POP POP POP POP POP SWAP1 JUMP JUMPDEST SWAP1 SWAP2 SWAP3 SWAP4 SWAP5 PUSH1 0x20 DUP1 PUSH2 0x1A20 PUSH1 0x1 SWAP4 PUSH1 0x1F NOT DUP7 DUP3 SUB ADD DUP8 MSTORE DUP10 MLOAD PUSH2 0x1848 JUMP JUMPDEST SWAP8 ADD SWAP4 ADD SWAP4 ADD SWAP2 SWAP4 SWAP3 SWAP1 PUSH2 0x19F3 JUMP JUMPDEST SWAP4 PUSH2 0x1A7F SWAP1 PUSH2 0x1A71 PUSH1 0xFF SWAP6 PUSH2 0x1A63 PUSH2 0x1A8D SWAP7 PUSH2 0x193F SWAP13 SWAP11 SWAP7 PUSH2 0x1A50 DUP2 PUSH2 0x186C JUMP JUMPDEST DUP11 MSTORE PUSH1 0xE0 PUSH1 0x20 DUP12 ADD MSTORE PUSH1 0xE0 DUP11 ADD SWAP1 PUSH2 0x1848 JUMP JUMPDEST SWAP1 DUP9 DUP3 SUB PUSH1 0x40 DUP11 ADD MSTORE PUSH2 0x1848 JUMP JUMPDEST SWAP1 DUP7 DUP3 SUB PUSH1 0x60 DUP9 ADD MSTORE PUSH2 0x1848 JUMP JUMPDEST SWAP1 DUP5 DUP3 SUB PUSH1 0x80 DUP7 ADD MSTORE PUSH2 0x1848 JUMP JUMPDEST SWAP4 AND PUSH1 0xA0 DUP3 ADD MSTORE PUSH1 0xC0 DUP2 DUP5 SUB SWAP2 ADD MSTORE PUSH2 0x1848 JUMP JUMPDEST PUSH1 0x40 PUSH1 0x3 NOT DUP3 ADD SLT PUSH2 0x2DC JUMPI PUSH1 0x4 CALLDATALOAD SWAP1 PUSH1 0x1 PUSH1 0x1 PUSH1 0x40 SHL SUB DUP3 GT PUSH2 0x2DC JUMPI PUSH2 0x1ACB SWAP2 PUSH1 0x4 ADD PUSH2 0x171B JUMP JUMPDEST SWAP1 PUSH1 0x24 CALLDATALOAD SWAP1 JUMP JUMPDEST PUSH0 SLOAD DUP2 LT ISZERO PUSH2 0x1AE8 JUMPI PUSH0 DUP1 MSTORE PUSH1 0x20 PUSH0 KECCAK256 ADD SWAP1 PUSH0 SWAP1 JUMP JUMPDEST PUSH4 0x4E487B71 PUSH1 0xE0 SHL PUSH0 MSTORE PUSH1 0x32 PUSH1 0x4 MSTORE PUSH1 0x24 PUSH0 REVERT JUMPDEST PUSH1 0x1 SLOAD DUP2 LT ISZERO PUSH2 0x1AE8 JUMPI PUSH1 0x1 PUSH0 MSTORE PUSH1 0x20 PUSH0 KECCAK256 ADD SWAP1 PUSH0 SWAP1 JUMP JUMPDEST DUP1 SLOAD DUP3 LT ISZERO PUSH2 0x1AE8 JUMPI PUSH0 MSTORE PUSH1 0x20 PUSH0 KECCAK256 ADD SWAP1 PUSH0 SWAP1 JUMP JUMPDEST PUSH1 0x20 DUP2 ADD PUSH1 0x20 DUP3 MSTORE DUP3 MLOAD DUP1 SWAP2 MSTORE PUSH1 0x40 DUP3 ADD SWAP2 PUSH1 0x20 PUSH1 0x40 DUP4 PUSH1 0x5 SHL DUP4 ADD ADD SWAP5 ADD SWAP3 PUSH0 SWAP2 JUMPDEST DUP4 DUP4 LT PUSH2 0x1B5B JUMPI POP POP POP POP POP SWAP1 JUMP JUMPDEST SWAP1 SWAP2 SWAP3 SWAP4 SWAP5 PUSH1 0x20 DUP1 PUSH2 0x1BF8 PUSH1 0x1 SWAP4 PUSH1 0x3F NOT DUP7 DUP3 SUB ADD DUP8 MSTORE DUP10 MLOAD SWAP1 PUSH1 0xC0 PUSH2 0x1BC7 PUSH2 0x1BB5 PUSH2 0x1BA3 PUSH2 0x1B93 DUP7 MLOAD PUSH1 0xE0 DUP8 MSTORE PUSH1 0xE0 DUP8 ADD SWAP1 PUSH2 0x1848 JUMP JUMPDEST DUP9 DUP8 ADD MLOAD DUP7 DUP3 SUB DUP11 DUP9 ADD MSTORE PUSH2 0x1848 JUMP JUMPDEST PUSH1 0x40 DUP7 ADD MLOAD DUP6 DUP3 SUB PUSH1 0x40 DUP8 ADD MSTORE PUSH2 0x1848 JUMP JUMPDEST PUSH1 0x60 DUP6 ADD MLOAD DUP5 DUP3 SUB PUSH1 0x60 DUP7 ADD MSTORE PUSH2 0x1848 JUMP JUMPDEST SWAP3 PUSH1 0xFF PUSH1 0x80 DUP3 ADD MLOAD AND PUSH1 0x80 DUP5 ADD MSTORE PUSH1 0xA0 DUP2 ADD MLOAD PUSH2 0x1BE3 DUP2 PUSH2 0x186C JUMP JUMPDEST PUSH1 0xA0 DUP5 ADD MSTORE ADD MLOAD SWAP1 PUSH1 0xC0 DUP2 DUP5 SUB SWAP2 ADD MSTORE PUSH2 0x1848 JUMP JUMPDEST SWAP8 ADD SWAP4 ADD SWAP4 ADD SWAP2 SWAP4 SWAP3 SWAP1 PUSH2 0x1B4C JUMP JUMPDEST DUP1 SLOAD DUP3 LT ISZERO PUSH2 0x1AE8 JUMPI PUSH0 MSTORE PUSH1 0x5 PUSH1 0x20 PUSH0 KECCAK256 SWAP2 MUL ADD SWAP1 PUSH0 SWAP1 JUMP JUMPDEST DUP2 DUP2 LT PUSH2 0x1C2B JUMPI POP POP JUMP JUMPDEST PUSH0 DUP2 SSTORE PUSH1 0x1 ADD PUSH2 0x1C20 JUMP JUMPDEST SWAP2 SWAP1 SWAP2 DUP3 MLOAD PUSH1 0x1 PUSH1 0x1 PUSH1 0x40 SHL SUB DUP2 GT PUSH2 0x4D4 JUMPI PUSH2 0x1C53 DUP3 SLOAD PUSH2 0x1770 JUMP JUMPDEST PUSH1 0x1F DUP2 GT PUSH2 0x1CF3 JUMPI JUMPDEST POP PUSH1 0x20 PUSH1 0x1F DUP3 GT PUSH1 0x1 EQ PUSH2 0x1C95 JUMPI DUP2 SWAP3 SWAP4 SWAP5 PUSH0 SWAP3 PUSH2 0x1C8A JUMPI JUMPDEST POP POP DUP2 PUSH1 0x1 SHL SWAP2 PUSH0 NOT SWAP1 PUSH1 0x3 SHL SHR NOT AND OR SWAP1 SSTORE JUMP JUMPDEST ADD MLOAD SWAP1 POP PUSH0 DUP1 PUSH2 0x1C75 JUMP JUMPDEST PUSH1 0x1F NOT DUP3 AND SWAP1 DUP4 PUSH0 MSTORE DUP1 PUSH0 KECCAK256 SWAP2 PUSH0 JUMPDEST DUP2 DUP2 LT PUSH2 0x1CDB JUMPI POP SWAP6 DUP4 PUSH1 0x1 SWAP6 SWAP7 SWAP8 LT PUSH2 0x1CC3 JUMPI JUMPDEST POP POP POP DUP2 SHL ADD SWAP1 SSTORE JUMP JUMPDEST ADD MLOAD PUSH0 NOT PUSH1 0xF8 DUP5 PUSH1 0x3 SHL AND SHR NOT AND SWAP1 SSTORE PUSH0 DUP1 DUP1 PUSH2 0x1CB9 JUMP JUMPDEST SWAP2 SWAP3 PUSH1 0x20 PUSH1 0x1 DUP2 SWAP3 DUP7 DUP12 ADD MLOAD DUP2 SSTORE ADD SWAP5 ADD SWAP3 ADD PUSH2 0x1CA4 JUMP JUMPDEST PUSH2 0x1D1E SWAP1 DUP4 PUSH0 MSTORE PUSH1 0x20 PUSH0 KECCAK256 PUSH1 0x1F DUP5 ADD PUSH1 0x5 SHR DUP2 ADD SWAP2 PUSH1 0x20 DUP6 LT PUSH2 0x1D24 JUMPI JUMPDEST PUSH1 0x1F ADD PUSH1 0x5 SHR ADD SWAP1 PUSH2 0x1C20 JUMP JUMPDEST PUSH0 PUSH2 0x1C5C JUMP JUMPDEST SWAP1 SWAP2 POP DUP2 SWAP1 PUSH2 0x1D11 JUMP JUMPDEST DUP1 SLOAD PUSH1 0x1 PUSH1 0x40 SHL DUP2 LT ISZERO PUSH2 0x4D4 JUMPI PUSH2 0x1D4B SWAP2 PUSH1 0x1 DUP3 ADD DUP2 SSTORE PUSH2 0x1B14 JUMP JUMPDEST SWAP2 SWAP1 SWAP2 PUSH2 0x4C1 JUMPI PUSH2 0x17E0 SWAP2 PUSH2 0x1C36 JUMP JUMPDEST SWAP1 PUSH2 0x1D65 DUP2 PUSH2 0x186C JUMP JUMPDEST PUSH1 0xFF DUP1 NOT DUP4 SLOAD AND SWAP2 AND OR SWAP1 SSTORE JUMP JUMPDEST PUSH1 0x6 PUSH1 0xC0 PUSH2 0x17E0 SWAP4 PUSH2 0x1D8F DUP2 MLOAD PUSH2 0x1D89 DUP2 PUSH2 0x186C JUMP JUMPDEST DUP6 PUSH2 0x1D5B JUMP JUMPDEST PUSH2 0x1DA0 PUSH1 0x20 DUP3 ADD MLOAD PUSH1 0x1 DUP7 ADD PUSH2 0x1C36 JUMP JUMPDEST PUSH2 0x1DB1 PUSH1 0x40 DUP3 ADD MLOAD PUSH1 0x2 DUP7 ADD PUSH2 0x1C36 JUMP JUMPDEST PUSH2 0x1DC2 PUSH1 0x60 DUP3 ADD MLOAD PUSH1 0x3 DUP7 ADD PUSH2 0x1C36 JUMP JUMPDEST PUSH2 0x1DD3 PUSH1 0x80 DUP3 ADD MLOAD PUSH1 0x4 DUP7 ADD PUSH2 0x1C36 JUMP JUMPDEST PUSH1 0xFF PUSH1 0xA0 DUP3 ADD MLOAD AND PUSH1 0xFF PUSH1 0x5 DUP7 ADD SWAP2 AND PUSH1 0xFF NOT DUP3 SLOAD AND OR SWAP1 SSTORE ADD MLOAD SWAP2 ADD PUSH2 0x1C36 JUMP JUMPDEST DUP1 SLOAD SWAP1 PUSH0 DUP2 SSTORE DUP2 PUSH2 0x1E04 JUMPI POP POP JUMP JUMPDEST PUSH0 MSTORE PUSH1 0x20 PUSH0 KECCAK256 SWAP1 DUP2 ADD SWAP1 JUMPDEST DUP2 DUP2 LT PUSH2 0x1E1A JUMPI POP POP JUMP JUMPDEST DUP1 PUSH2 0x1E27 PUSH1 0x1 SWAP3 SLOAD PUSH2 0x1770 JUMP JUMPDEST DUP1 PUSH2 0x1E34 JUMPI JUMPDEST POP ADD PUSH2 0x1E0F JUMP JUMPDEST PUSH1 0x1F DUP2 GT DUP4 EQ PUSH2 0x1E49 JUMPI POP PUSH0 DUP2 SSTORE JUMPDEST PUSH0 PUSH2 0x1E2D JUMP JUMPDEST PUSH2 0x1E65 SWAP1 DUP3 PUSH0 MSTORE DUP4 PUSH1 0x1F PUSH1 0x20 PUSH0 KECCAK256 SWAP3 ADD PUSH1 0x5 SHR DUP3 ADD SWAP2 ADD PUSH2 0x1C20 JUMP JUMPDEST DUP1 PUSH0 MSTORE PUSH0 PUSH1 0x20 DUP2 KECCAK256 DUP2 DUP4 SSTORE SSTORE PUSH2 0x1E43 JUMP JUMPDEST SWAP1 PUSH1 0x1 PUSH1 0x40 SHL DUP2 GT PUSH2 0x4D4 JUMPI DUP2 SLOAD SWAP2 DUP2 DUP2 SSTORE DUP3 DUP3 LT PUSH2 0x1E94 JUMPI POP POP POP JUMP JUMPDEST PUSH0 MSTORE PUSH1 0x20 PUSH0 KECCAK256 SWAP2 DUP3 ADD SWAP2 ADD JUMPDEST DUP2 DUP2 LT PUSH2 0x1EAB JUMPI POP POP JUMP JUMPDEST DUP1 PUSH2 0x1EB8 PUSH1 0x1 SWAP3 SLOAD PUSH2 0x1770 JUMP JUMPDEST DUP1 PUSH2 0x1EC5 JUMPI JUMPDEST POP ADD PUSH2 0x1EA0 JUMP JUMPDEST PUSH1 0x1F DUP2 GT DUP4 EQ PUSH2 0x1EDA JUMPI POP PUSH0 DUP2 SSTORE JUMPDEST PUSH0 PUSH2 0x1EBE JUMP JUMPDEST PUSH2 0x1EF6 SWAP1 DUP3 PUSH0 MSTORE DUP4 PUSH1 0x1F PUSH1 0x20 PUSH0 KECCAK256 SWAP3 ADD PUSH1 0x5 SHR DUP3 ADD SWAP2 ADD PUSH2 0x1C20 JUMP JUMPDEST DUP1 PUSH0 MSTORE PUSH0 PUSH1 0x20 DUP2 KECCAK256 DUP2 DUP4 SSTORE SSTORE PUSH2 0x1ED4 JUMP JUMPDEST DUP1 MLOAD DUP3 LT ISZERO PUSH2 0x1AE8 JUMPI PUSH1 0x20 SWAP2 PUSH1 0x5 SHL ADD ADD SWAP1 JUMP JUMPDEST SWAP1 DUP2 SLOAD PUSH2 0x1F27 DUP2 PUSH2 0x1942 JUMP JUMPDEST SWAP3 PUSH2 0x1F35 PUSH1 0x40 MLOAD SWAP5 DUP6 PUSH2 0x16FA JUMP JUMPDEST DUP2 DUP5 MSTORE PUSH1 0x20 DUP5 ADD SWAP1 PUSH0 MSTORE PUSH1 0x20 PUSH0 KECCAK256 PUSH0 SWAP2 JUMPDEST DUP4 DUP4 LT PUSH2 0x1F53 JUMPI POP POP POP POP JUMP JUMPDEST PUSH1 0x1 PUSH1 0x20 DUP2 SWAP3 PUSH2 0x1F62 DUP6 PUSH2 0x17A8 JUMP JUMPDEST DUP2 MSTORE ADD SWAP3 ADD SWAP3 ADD SWAP2 SWAP1 PUSH2 0x1F46 JUMP JUMPDEST PUSH0 SWAP3 SWAP2 DUP2 SLOAD SWAP2 PUSH2 0x1F7F DUP4 PUSH2 0x1770 JUMP JUMPDEST SWAP3 PUSH1 0x1 DUP2 AND SWAP1 DUP2 ISZERO PUSH2 0x1FC7 JUMPI POP PUSH1 0x1 EQ PUSH2 0x1F98 JUMPI POP POP POP JUMP JUMPDEST SWAP1 SWAP2 SWAP3 SWAP4 POP PUSH0 MSTORE PUSH1 0x20 PUSH0 KECCAK256 PUSH0 SWAP1 JUMPDEST DUP4 DUP3 LT PUSH2 0x1FB3 JUMPI POP POP ADD SWAP1 JUMP JUMPDEST PUSH1 0x1 DUP2 PUSH1 0x20 SWAP3 SLOAD DUP5 DUP7 ADD MSTORE ADD SWAP2 ADD SWAP1 PUSH2 0x1FA6 JUMP JUMPDEST PUSH1 0xFF NOT AND DUP4 MSTORE POP POP DUP2 ISZERO ISZERO SWAP1 SWAP2 MUL ADD SWAP2 POP JUMP JUMPDEST ISZERO PUSH2 0x1FE1 JUMPI JUMP JUMPDEST PUSH1 0x40 MLOAD PUSH3 0x461BCD PUSH1 0xE5 SHL DUP2 MSTORE PUSH1 0x20 PUSH1 0x4 DUP3 ADD MSTORE PUSH1 0xA PUSH1 0x24 DUP3 ADD MSTORE PUSH10 0x125B9D985B1A59081251 PUSH1 0xB2 SHL PUSH1 0x44 DUP3 ADD MSTORE PUSH1 0x64 SWAP1 REVERT JUMPDEST PUSH1 0x40 MLOAD SWAP1 PUSH2 0x2022 PUSH1 0x20 DUP4 PUSH2 0x16FA JUMP JUMPDEST PUSH0 DUP1 DUP4 MSTORE DUP3 DUP2 JUMPDEST DUP3 DUP2 LT PUSH2 0x2035 JUMPI POP POP POP JUMP JUMPDEST PUSH1 0x20 SWAP1 PUSH1 0x40 MLOAD PUSH2 0x2044 DUP2 PUSH2 0x16A8 JUMP JUMPDEST PUSH1 0x60 DUP2 MSTORE PUSH1 0x60 DUP4 DUP3 ADD MSTORE PUSH1 0x60 PUSH1 0x40 DUP3 ADD MSTORE PUSH1 0x60 DUP1 DUP3 ADD MSTORE PUSH0 PUSH1 0x80 DUP3 ADD MSTORE PUSH0 PUSH1 0xA0 DUP3 ADD MSTORE PUSH1 0x60 PUSH1 0xC0 DUP3 ADD MSTORE DUP3 DUP3 DUP6 ADD ADD MSTORE ADD PUSH2 0x2029 JUMP JUMPDEST PUSH0 NOT DUP2 EQ PUSH2 0x2088 JUMPI PUSH1 0x1 ADD SWAP1 JUMP JUMPDEST PUSH4 0x4E487B71 PUSH1 0xE0 SHL PUSH0 MSTORE PUSH1 0x11 PUSH1 0x4 MSTORE PUSH1 0x24 PUSH0 REVERT JUMPDEST SWAP1 PUSH1 0x40 MLOAD PUSH2 0x20A9 DUP2 PUSH2 0x16A8 JUMP JUMPDEST PUSH1 0xC0 PUSH2 0x2119 PUSH1 0x6 DUP4 SWAP6 PUSH1 0xFF DUP2 SLOAD AND PUSH2 0x20C0 DUP2 PUSH2 0x186C JUMP JUMPDEST DUP6 MSTORE PUSH2 0x20CE PUSH1 0x1 DUP3 ADD PUSH2 0x17A8 JUMP JUMPDEST PUSH1 0x20 DUP7 ADD MSTORE PUSH2 0x20DF PUSH1 0x2 DUP3 ADD PUSH2 0x17A8 JUMP JUMPDEST PUSH1 0x40 DUP7 ADD MSTORE PUSH2 0x20F0 PUSH1 0x3 DUP3 ADD PUSH2 0x17A8 JUMP JUMPDEST PUSH1 0x60 DUP7 ADD MSTORE PUSH2 0x2101 PUSH1 0x4 DUP3 ADD PUSH2 0x17A8 JUMP JUMPDEST PUSH1 0x80 DUP7 ADD MSTORE PUSH1 0xFF PUSH1 0x5 DUP3 ADD SLOAD AND PUSH1 0xA0 DUP7 ADD MSTORE ADD PUSH2 0x17A8 JUMP JUMPDEST SWAP2 ADD MSTORE JUMP INVALID LOG2 PUSH5 0x6970667358 0x22 SLT KECCAK256 SWAP6 SWAP4 PUSH32 0x66C015FBE97E0E5A55C3339E0FCDD210C549D87FF8927DF932BD7D785464736F PUSH13 0x634300081B0033000000000000 "},"methodIdentifiers":{"ObatDetailById(string)":"09a48235","ObatIpfsbyBatchName(string,uint256)":"8417bc0e","ObatPbfBatchName(string)":"6fbef94b","ObatProductionById(string,uint256)":"c7f8121c","ObatRetailerBatchName(string)":"95e63795","addBatchProduction(string,string,string,uint8,string[],string)":"e521d586","addCdobId(string,string)":"c72c7314","addObatPbf(string,string,string,string,uint8,string)":"d33d8a13","addObatRetailer(string,string,string,string,uint8,string)":"4bea11a0","getAllObatPbfByInstance(string)":"f07b2c7a","getAllObatPbfReadyStock()":"906ce017","getAllObatRetailerByInstance(string)":"e1336da5","getObatDetail(string)":"d6582672","getObatIpfsByBatchName(string)":"61009862","getObatProduction(string)":"8d57ba0a","setObatDetail(string,string,string,string[],string[],string,string,address,uint8,string,string)":"8b8df23e","updateBatchProduction(string,string,uint8)":"871811f1","updateObatIpfs(string,string[])":"5345584e","updateObatPbf(string,uint8)":"c2cf83bc"}}}}}