{
  "_format": "hh-sol-artifact-1",
  "contractName": "CpotbRegistration",
  "sourceName": "contracts/CpotbRegistration.sol",
  "abi": [
    {
      "anonymous": false,
      "inputs": [
        {
          "indexed": true,
          "internalType": "string",
          "name": "reqId",
          "type": "string"
        },
        {
          "indexed": true,
          "internalType": "address",
          "name": "pabrik",
          "type": "address"
        },
        {
          "indexed": false,
          "internalType": "string",
          "name": "pabrikName",
          "type": "string"
        }
      ],
      "name": "evt_CpotbApproved",
      "type": "event"
    },
    {
      "anonymous": false,
      "inputs": [
        {
          "indexed": true,
          "internalType": "string",
          "name": "reqId",
          "type": "string"
        },
        {
          "indexed": true,
          "internalType": "address",
          "name": "pabrik",
          "type": "address"
        },
        {
          "indexed": false,
          "internalType": "string",
          "name": "pabrikName",
          "type": "string"
        }
      ],
      "name": "evt_CpotbRequested",
      "type": "event"
    },
    {
      "inputs": [
        {
          "internalType": "string",
          "name": "",
          "type": "string"
        }
      ],
      "name": "CpotbRequests",
      "outputs": [
        {
          "internalType": "address",
          "name": "pabrik",
          "type": "address"
        },
        {
          "internalType": "string",
          "name": "pabrikName",
          "type": "string"
        },
        {
          "internalType": "uint256",
          "name": "timestamp",
          "type": "uint256"
        },
        {
          "internalType": "address",
          "name": "bpom",
          "type": "address"
        },
        {
          "internalType": "enum CpotbRegistration.en_StatusCpotb",
          "name": "statusCpotb",
          "type": "uint8"
        }
      ],
      "stateMutability": "view",
      "type": "function"
    },
    {
      "inputs": [
        {
          "internalType": "string",
          "name": "_reqId",
          "type": "string"
        }
      ],
      "name": "cpotb_approve",
      "outputs": [],
      "stateMutability": "nonpayable",
      "type": "function"
    },
    {
      "inputs": [
        {
          "internalType": "string",
          "name": "_reqId",
          "type": "string"
        },
        {
          "internalType": "string",
          "name": "_pabrikName",
          "type": "string"
        }
      ],
      "name": "cpotb_request",
      "outputs": [],
      "stateMutability": "nonpayable",
      "type": "function"
    },
    {
      "inputs": [
        {
          "internalType": "string",
          "name": "_reqId",
          "type": "string"
        }
      ],
      "name": "get_cpotb_rrequest",
      "outputs": [
        {
          "internalType": "address",
          "name": "pabrik",
          "type": "address"
        },
        {
          "internalType": "string",
          "name": "pabrikName",
          "type": "string"
        },
        {
          "internalType": "uint256",
          "name": "timestamp",
          "type": "uint256"
        },
        {
          "internalType": "address",
          "name": "bpom",
          "type": "address"
        },
        {
          "internalType": "enum CpotbRegistration.en_StatusCpotb",
          "name": "statusCpotb",
          "type": "uint8"
        }
      ],
      "stateMutability": "view",
      "type": "function"
    }
  ],
  "bytecode": "0x6080604052348015600f57600080fd5b506110d78061001f6000396000f3fe608060405234801561001057600080fd5b506004361061004c5760003560e01c806321948ae51461005157806376f289491461006d578063c771fd9514610089578063e88cb543146100bd575b600080fd5b61006b6004803603810190610066919061093f565b6100f1565b005b61008760048036038101906100829190610988565b6102cd565b005b6100a3600480360381019061009e919061093f565b6104df565b6040516100b4959493929190610b50565b60405180910390f35b6100d760048036038101906100d2919061093f565b610600565b6040516100e8959493929190610b50565b60405180910390f35b6000815111610135576040517f08c379a000000000000000000000000000000000000000000000000000000000815260040161012c90610bf6565b60405180910390fd5b600080826040516101469190610c52565b908152602001604051809103902090506000600181111561016a57610169610ad9565b5b8160030160149054906101000a900460ff16600181111561018e5761018d610ad9565b5b146101ce576040517f08c379a00000000000000000000000000000000000000000000000000000000081526004016101c590610cdb565b60405180910390fd5b60018160030160146101000a81548160ff021916908360018111156101f6576101f5610ad9565b5b0217905550338160030160006101000a81548173ffffffffffffffffffffffffffffffffffffffff021916908373ffffffffffffffffffffffffffffffffffffffff1602179055508060000160009054906101000a900473ffffffffffffffffffffffffffffffffffffffff1673ffffffffffffffffffffffffffffffffffffffff16826040516102879190610c52565b60405180910390207ff4a8bc99ecb365a6dea2d7b41d4220cd0a513a88b647a32a0fdbb94707e481b1836001016040516102c19190610df4565b60405180910390a35050565b6000825111610311576040517f08c379a000000000000000000000000000000000000000000000000000000000815260040161030890610bf6565b60405180910390fd5b6040518060a001604052803373ffffffffffffffffffffffffffffffffffffffff168152602001828152602001428152602001600073ffffffffffffffffffffffffffffffffffffffff1681526020016000600181111561037557610374610ad9565b5b8152506000836040516103889190610c52565b908152602001604051809103902060008201518160000160006101000a81548173ffffffffffffffffffffffffffffffffffffffff021916908373ffffffffffffffffffffffffffffffffffffffff16021790555060208201518160010190816103f29190610fad565b506040820151816002015560608201518160030160006101000a81548173ffffffffffffffffffffffffffffffffffffffff021916908373ffffffffffffffffffffffffffffffffffffffff16021790555060808201518160030160146101000a81548160ff0219169083600181111561046f5761046e610ad9565b5b02179055509050503373ffffffffffffffffffffffffffffffffffffffff168260405161049c9190610c52565b60405180910390207fbd81d9a10dc7cf91612b5106e481a35f0a4b55695124fb50417a75e88130b315836040516104d3919061107f565b60405180910390a35050565b6000818051602081018201805184825260208301602085012081835280955050505050506000915090508060000160009054906101000a900473ffffffffffffffffffffffffffffffffffffffff169080600101805461053e90610d2a565b80601f016020809104026020016040519081016040528092919081815260200182805461056a90610d2a565b80156105b75780601f1061058c576101008083540402835291602001916105b7565b820191906000526020600020905b81548152906001019060200180831161059a57829003601f168201915b5050505050908060020154908060030160009054906101000a900473ffffffffffffffffffffffffffffffffffffffff16908060030160149054906101000a900460ff16905085565b6000606060008060008060008760405161061a9190610c52565b90815260200160405180910390206040518060a00160405290816000820160009054906101000a900473ffffffffffffffffffffffffffffffffffffffff1673ffffffffffffffffffffffffffffffffffffffff1673ffffffffffffffffffffffffffffffffffffffff16815260200160018201805461069990610d2a565b80601f01602080910402602001604051908101604052809291908181526020018280546106c590610d2a565b80156107125780601f106106e757610100808354040283529160200191610712565b820191906000526020600020905b8154815290600101906020018083116106f557829003601f168201915b50505050508152602001600282015481526020016003820160009054906101000a900473ffffffffffffffffffffffffffffffffffffffff1673ffffffffffffffffffffffffffffffffffffffff1673ffffffffffffffffffffffffffffffffffffffff1681526020016003820160149054906101000a900460ff1660018111156107a05761079f610ad9565b5b60018111156107b2576107b1610ad9565b5b81525050905080600001518160200151826040015183606001518460800151955095509550955095505091939590929450565b6000604051905090565b600080fd5b600080fd5b600080fd5b600080fd5b6000601f19601f8301169050919050565b7f4e487b7100000000000000000000000000000000000000000000000000000000600052604160045260246000fd5b61084c82610803565b810181811067ffffffffffffffff8211171561086b5761086a610814565b5b80604052505050565b600061087e6107e5565b905061088a8282610843565b919050565b600067ffffffffffffffff8211156108aa576108a9610814565b5b6108b382610803565b9050602081019050919050565b82818337600083830152505050565b60006108e26108dd8461088f565b610874565b9050828152602081018484840111156108fe576108fd6107fe565b5b6109098482856108c0565b509392505050565b600082601f830112610926576109256107f9565b5b81356109368482602086016108cf565b91505092915050565b600060208284031215610955576109546107ef565b5b600082013567ffffffffffffffff811115610973576109726107f4565b5b61097f84828501610911565b91505092915050565b6000806040838503121561099f5761099e6107ef565b5b600083013567ffffffffffffffff8111156109bd576109bc6107f4565b5b6109c985828601610911565b925050602083013567ffffffffffffffff8111156109ea576109e96107f4565b5b6109f685828601610911565b9150509250929050565b600073ffffffffffffffffffffffffffffffffffffffff82169050919050565b6000610a2b82610a00565b9050919050565b610a3b81610a20565b82525050565b600081519050919050565b600082825260208201905092915050565b60005b83811015610a7b578082015181840152602081019050610a60565b60008484015250505050565b6000610a9282610a41565b610a9c8185610a4c565b9350610aac818560208601610a5d565b610ab581610803565b840191505092915050565b6000819050919050565b610ad381610ac0565b82525050565b7f4e487b7100000000000000000000000000000000000000000000000000000000600052602160045260246000fd5b60028110610b1957610b18610ad9565b5b50565b6000819050610b2a82610b08565b919050565b6000610b3a82610b1c565b9050919050565b610b4a81610b2f565b82525050565b600060a082019050610b656000830188610a32565b8181036020830152610b778187610a87565b9050610b866040830186610aca565b610b936060830185610a32565b610ba06080830184610b41565b9695505050505050565b7f496e76616c696420526571756573742049440000000000000000000000000000600082015250565b6000610be0601283610a4c565b9150610beb82610baa565b602082019050919050565b60006020820190508181036000830152610c0f81610bd3565b9050919050565b600081905092915050565b6000610c2c82610a41565b610c368185610c16565b9350610c46818560208601610a5d565b80840191505092915050565b6000610c5e8284610c21565b915081905092915050565b7f526571756573742068617320616c7265616479206265656e2070726f6365737360008201527f6564000000000000000000000000000000000000000000000000000000000000602082015250565b6000610cc5602283610a4c565b9150610cd082610c69565b604082019050919050565b60006020820190508181036000830152610cf481610cb8565b9050919050565b7f4e487b7100000000000000000000000000000000000000000000000000000000600052602260045260246000fd5b60006002820490506001821680610d4257607f821691505b602082108103610d5557610d54610cfb565b5b50919050565b60008190508160005260206000209050919050565b60008154610d7d81610d2a565b610d878186610a4c565b94506001821660008114610da25760018114610db857610deb565b60ff198316865281151560200286019350610deb565b610dc185610d5b565b60005b83811015610de357815481890152600182019150602081019050610dc4565b808801955050505b50505092915050565b60006020820190508181036000830152610e0e8184610d70565b905092915050565b60006020601f8301049050919050565b600082821b905092915050565b600060088302610e637fffffffffffffffffffffffffffffffffffffffffffffffffffffffffffffffff82610e26565b610e6d8683610e26565b95508019841693508086168417925050509392505050565b6000819050919050565b6000610eaa610ea5610ea084610ac0565b610e85565b610ac0565b9050919050565b6000819050919050565b610ec483610e8f565b610ed8610ed082610eb1565b848454610e33565b825550505050565b600090565b610eed610ee0565b610ef8818484610ebb565b505050565b5b81811015610f1c57610f11600082610ee5565b600181019050610efe565b5050565b601f821115610f6157610f3281610d5b565b610f3b84610e16565b81016020851015610f4a578190505b610f5e610f5685610e16565b830182610efd565b50505b505050565b600082821c905092915050565b6000610f8460001984600802610f66565b1980831691505092915050565b6000610f9d8383610f73565b9150826002028217905092915050565b610fb682610a41565b67ffffffffffffffff811115610fcf57610fce610814565b5b610fd98254610d2a565b610fe4828285610f20565b600060209050601f8311600181146110175760008415611005578287015190505b61100f8582610f91565b865550611077565b601f19841661102586610d5b565b60005b8281101561104d57848901518255600182019150602085019450602081019050611028565b8683101561106a5784890151611066601f891682610f73565b8355505b6001600288020188555050505b505050505050565b600060208201905081810360008301526110998184610a87565b90509291505056fea26469706673582212205b103511978db24e6e3f2c4707cb7e6cd0a2d1086a9eb86f99fe5118253bd44364736f6c634300081b0033",
  "linkReferences": {},
  "deployedLinkReferences": {}
}