{
  "_format": "hh-sol-artifact-1",
  "contractName": "CpotbRegistration",
  "sourceName": "contracts/CpotbRegistration.sol",
  "abi": [
    {
      "anonymous": false,
      "inputs": [
        {
          "indexed": true,
          "internalType": "string",
          "name": "reqId",
          "type": "string"
        },
        {
          "indexed": true,
          "internalType": "address",
          "name": "pabrik",
          "type": "address"
        },
        {
          "indexed": false,
          "internalType": "string",
          "name": "pabrikName",
          "type": "string"
        },
        {
          "indexed": false,
          "internalType": "string",
          "name": "cpotbNumber",
          "type": "string"
        }
      ],
      "name": "evt_CpotbApproved",
      "type": "event"
    },
    {
      "anonymous": false,
      "inputs": [
        {
          "indexed": true,
          "internalType": "string",
          "name": "reqId",
          "type": "string"
        },
        {
          "indexed": true,
          "internalType": "address",
          "name": "pabrik",
          "type": "address"
        },
        {
          "indexed": false,
          "internalType": "string",
          "name": "pabrikName",
          "type": "string"
        }
      ],
      "name": "evt_CpotbRequested",
      "type": "event"
    },
    {
      "inputs": [
        {
          "internalType": "string",
          "name": "",
          "type": "string"
        }
      ],
      "name": "CpotbRequests",
      "outputs": [
        {
          "internalType": "address",
          "name": "pabrikAddress",
          "type": "address"
        },
        {
          "internalType": "string",
          "name": "pabrikName",
          "type": "string"
        },
        {
          "internalType": "uint256",
          "name": "timestampReq",
          "type": "uint256"
        },
        {
          "internalType": "uint256",
          "name": "timestampApprove",
          "type": "uint256"
        },
        {
          "internalType": "string",
          "name": "cpotbNumber",
          "type": "string"
        },
        {
          "internalType": "address",
          "name": "bpomAddress",
          "type": "address"
        },
        {
          "internalType": "enum CpotbRegistration.en_StatusCpotb",
          "name": "statusCpotb",
          "type": "uint8"
        }
      ],
      "stateMutability": "view",
      "type": "function"
    },
    {
      "inputs": [
        {
          "internalType": "string",
          "name": "_reqId",
          "type": "string"
        },
        {
          "internalType": "string",
          "name": "_cpotbNumber",
          "type": "string"
        }
      ],
      "name": "cpotb_approve",
      "outputs": [],
      "stateMutability": "nonpayable",
      "type": "function"
    },
    {
      "inputs": [
        {
          "internalType": "string",
          "name": "_reqId",
          "type": "string"
        },
        {
          "internalType": "string",
          "name": "_pabrikName",
          "type": "string"
        }
      ],
      "name": "cpotb_request",
      "outputs": [],
      "stateMutability": "nonpayable",
      "type": "function"
    },
    {
      "inputs": [],
      "name": "get_all_cpotb_request",
      "outputs": [
        {
          "internalType": "string[]",
          "name": "",
          "type": "string[]"
        }
      ],
      "stateMutability": "view",
      "type": "function"
    },
    {
      "inputs": [
        {
          "internalType": "string",
          "name": "_reqId",
          "type": "string"
        }
      ],
      "name": "get_cpotb_request_byId",
      "outputs": [
        {
          "internalType": "address",
          "name": "pabrikAddress",
          "type": "address"
        },
        {
          "internalType": "string",
          "name": "pabrikName",
          "type": "string"
        },
        {
          "internalType": "uint256",
          "name": "timestampReq",
          "type": "uint256"
        },
        {
          "internalType": "uint256",
          "name": "timestampApprove",
          "type": "uint256"
        },
        {
          "internalType": "string",
          "name": "cpotbNumber",
          "type": "string"
        },
        {
          "internalType": "address",
          "name": "bpomAddress",
          "type": "address"
        },
        {
          "internalType": "enum CpotbRegistration.en_StatusCpotb",
          "name": "statusCpotb",
          "type": "uint8"
        }
      ],
      "stateMutability": "view",
      "type": "function"
    },
    {
      "inputs": [
        {
          "internalType": "uint256",
          "name": "",
          "type": "uint256"
        }
      ],
      "name": "reqIdCpotb",
      "outputs": [
        {
          "internalType": "string",
          "name": "",
          "type": "string"
        }
      ],
      "stateMutability": "view",
      "type": "function"
    }
  ],
  "bytecode": "0x60808060405234601557610bd0908161001b8239f35b600080fdfe6080604052600436101561001257600080fd5b60003560e01c806323400b311461073157806331eb1dc81461060a57806376f289491461043957806392a94f691461032f578063b9b53723146101135763c771fd951461005e57600080fd5b3461010e57602036600319011261010e5760043567ffffffffffffffff811161010e5760206100946100a7923690600401610987565b81604051938285809451938492016108de565b8101600181520301902060018060a01b038154169061010a6100cb6001830161083a565b9160028101549360038201549160056100e66004830161083a565b91015460405196879660a083901c60ff16956001600160a01b039093169488610926565b0390f35b600080fd5b3461010e57610121366109de565b9061012e81511515610a2d565b604051602081835161014381838588016108de565b81016001815203019020916005830160ff815460a01c166002811015610319576102c957805460ff60a01b1916600160a01b17815542600385015561018b8260048601610a6e565b80546001600160a01b0319163317905582546001600160a01b031692600101916101b490610b7a565b9160405191604083526000918054906101cc826107c2565b918260408701526001811690816000146102825750600114610225575b505091610220827fbf4849318c35694389e363b14b73cedc4cb70ba7b5b1d2957ba99bc14193af5d94838095036020850152610901565b0390a3005b600090815260208120929350915b81831061026b5750508201606001906102207fbf4849318c35694389e363b14b73cedc4cb70ba7b5b1d2957ba99bc14193af5d6101e9565b805460608487010152602090920191600101610233565b60ff191660608088019190915292151560051b8601909201935061022091507fbf4849318c35694389e363b14b73cedc4cb70ba7b5b1d2957ba99bc14193af5d90506101e9565b60405162461bcd60e51b815260206004820152602260248201527f526571756573742068617320616c7265616479206265656e2070726f63657373604482015261195960f21b6064820152608490fd5b634e487b7160e01b600052602160045260246000fd5b3461010e57600036600319011261010e5760005467ffffffffffffffff8111610423576040519061036660208260051b0183610818565b808252602082019081600080527f290decd9548b62a8d60345a988386fc84ba6bc95484008f6362f93160ef3e5636000915b83831061040657848660405191829160208301906020845251809152604083019060408160051b85010192916000905b8282106103d757505050500390f35b919360019193955060206103f68192603f198a82030186528851610901565b96019201920185949391926103c8565b6001602081926104158561083a565b815201920192019190610398565b634e487b7160e01b600052604160045260246000fd5b3461010e57610447366109de565b8151151561045490610a2d565b604051610460816107fc565b3381526020810192828452604082019342855260608301926000845260409384519061048c8683610818565b6001825260208201600160fd1b90526080830191825260a08301976000895260c0840194600086528751808851818160208c01916104c9926108de565b600190820181815291909103602001909120955186546001600160a01b039091166001600160a01b03199091161786559051610506918601610a6e565b516002840155516003830155516105209060048301610a6e565b945160059590950180546001600160a01b0319166001600160a01b0396909616959095178555519360028510156103195760009481549060ff60a01b9060a01b169060ff60a01b19161790558354680100000000000000008110156105f65780600161058e92018655610792565b6105e257816105c17fbd81d9a10dc7cf91612b5106e481a35f0a4b55695124fb50417a75e88130b315936105c693610a6e565b610b7a565b915160208152806105dc33956020830190610901565b0390a380f35b634e487b7160e01b85526004859052602485fd5b634e487b7160e01b85526041600452602485fd5b3461010e57602036600319011261010e5760043567ffffffffffffffff811161010e573660238201121561010e57806004013567ffffffffffffffff811161010e57366024828401011161010e57602491816020926040519485930183378101600181520301902060405161067e816107fc565b81546001600160a01b031681526106976001830161083a565b9060208101918252600283015492604082019384526003810154916060810192835260056106c76004840161083a565b608083019081529201546001600160a01b03811660a080840191825260c08401939192901c60ff166002811015610319579283905251945195519351925190516001600160a01b0395861695929392169160028410156103195761010a9460405197889788610926565b3461010e57602036600319011261010e5760043560005481101561010e5761075890610792565b61077c5761076861010a9161083a565b604051918291602083526020830190610901565b634e487b7160e01b600052600060045260246000fd5b6000548110156107ac576000805260206000200190600090565b634e487b7160e01b600052603260045260246000fd5b90600182811c921680156107f2575b60208310146107dc57565b634e487b7160e01b600052602260045260246000fd5b91607f16916107d1565b60e0810190811067ffffffffffffffff82111761042357604052565b90601f8019910116810190811067ffffffffffffffff82111761042357604052565b906040519182600082549261084e846107c2565b80845293600181169081156108bc5750600114610875575b5061087392500383610818565b565b90506000929192526020600020906000915b8183106108a05750509060206108739282010138610866565b6020919350806001915483858901015201910190918492610887565b90506020925061087394915060ff191682840152151560051b82010138610866565b60005b8381106108f15750506000910152565b81810151838201526020016108e1565b9060209161091a815180928185528580860191016108de565b601f01601f1916010190565b94916109509061096895929998979960018060a01b0316875260e0602088015260e0870190610901565b92604086015260608501528382036080850152610901565b6001600160a01b0390941660a082015260028210156103195760c00152565b81601f8201121561010e5780359067ffffffffffffffff821161042357604051926109bc601f8401601f191660200185610818565b8284526020838301011161010e57816000926020809301838601378301015290565b90604060031983011261010e5760043567ffffffffffffffff811161010e5782610a0a91600401610987565b916024359067ffffffffffffffff821161010e57610a2a91600401610987565b90565b15610a3457565b60405162461bcd60e51b8152602060048201526012602482015271125b9d985b1a590814995c5d595cdd08125160721b6044820152606490fd5b919091825167ffffffffffffffff811161042357610a8c82546107c2565b601f8111610b32575b506020601f8211600114610ad05781929394600092610ac5575b50508160011b916000199060031b1c1916179055565b015190503880610aaf565b601f1982169083600052806000209160005b818110610b1a57509583600195969710610b01575b505050811b019055565b015160001960f88460031b161c19169055388080610af7565b9192602060018192868b015181550194019201610ae2565b826000526020600020601f830160051c81019160208410610b70575b601f0160051c01905b818110610b645750610a95565b60008155600101610b57565b9091508190610b4e565b610b92906020604051928284809451938492016108de565b81010390209056fea2646970667358221220f254993533e87ac689f4dc0d3bc44d8a1ec0965733160a1068ececab1945e26e64736f6c634300081b0033",
  "linkReferences": {},
  "deployedLinkReferences": {}
}