{
  "_format": "hh-sol-artifact-1",
  "contractName": "BaseCertificate",
  "sourceName": "contracts/BaseCertificate.sol",
  "abi": [
    {
      "inputs": [
        {
          "internalType": "string",
          "name": "",
          "type": "string"
        }
      ],
      "name": "certDetailById",
      "outputs": [
        {
          "internalType": "enum EnumsLibrary.StatusCertificate",
          "name": "status",
          "type": "uint8"
        },
        {
          "internalType": "uint256",
          "name": "timestampRequest",
          "type": "uint256"
        },
        {
          "internalType": "uint256",
          "name": "timestampApprove",
          "type": "uint256"
        },
        {
          "internalType": "uint256",
          "name": "timestampRejected",
          "type": "uint256"
        },
        {
          "internalType": "uint256",
          "name": "timestampRenewRequest",
          "type": "uint256"
        },
        {
          "internalType": "uint256",
          "name": "timestampExpired",
          "type": "uint256"
        },
        {
          "internalType": "uint256",
          "name": "timestampExtendRequest",
          "type": "uint256"
        },
        {
          "internalType": "uint256",
          "name": "timestampExtendApprove",
          "type": "uint256"
        },
        {
          "components": [
            {
              "internalType": "string",
              "name": "userName",
              "type": "string"
            },
            {
              "internalType": "string",
              "name": "userInstance",
              "type": "string"
            },
            {
              "internalType": "address",
              "name": "userAddr",
              "type": "address"
            }
          ],
          "internalType": "struct BaseCertificate.UserCert",
          "name": "sender",
          "type": "tuple"
        },
        {
          "components": [
            {
              "internalType": "string",
              "name": "userName",
              "type": "string"
            },
            {
              "internalType": "string",
              "name": "userInstance",
              "type": "string"
            },
            {
              "internalType": "address",
              "name": "userAddr",
              "type": "address"
            }
          ],
          "internalType": "struct BaseCertificate.UserCert",
          "name": "bpom",
          "type": "tuple"
        },
        {
          "internalType": "string",
          "name": "ipfsCert",
          "type": "string"
        }
      ],
      "stateMutability": "view",
      "type": "function"
    },
    {
      "inputs": [
        {
          "components": [
            {
              "internalType": "string",
              "name": "userName",
              "type": "string"
            },
            {
              "internalType": "string",
              "name": "userInstance",
              "type": "string"
            },
            {
              "internalType": "address",
              "name": "userAddr",
              "type": "address"
            }
          ],
          "internalType": "struct BaseCertificate.UserCert",
          "name": "senderData",
          "type": "tuple"
        },
        {
          "components": [
            {
              "internalType": "string",
              "name": "userName",
              "type": "string"
            },
            {
              "internalType": "string",
              "name": "userInstance",
              "type": "string"
            },
            {
              "internalType": "address",
              "name": "userAddr",
              "type": "address"
            }
          ],
          "internalType": "struct BaseCertificate.UserCert",
          "name": "bpomData",
          "type": "tuple"
        },
        {
          "internalType": "string",
          "name": "certId",
          "type": "string"
        }
      ],
      "name": "createCertificateDetails",
      "outputs": [],
      "stateMutability": "nonpayable",
      "type": "function"
    },
    {
      "inputs": [
        {
          "internalType": "string",
          "name": "userName",
          "type": "string"
        },
        {
          "internalType": "string",
          "name": "userInstance",
          "type": "string"
        },
        {
          "internalType": "address",
          "name": "userAddr",
          "type": "address"
        }
      ],
      "name": "createUserCertificate",
      "outputs": [
        {
          "components": [
            {
              "internalType": "string",
              "name": "userName",
              "type": "string"
            },
            {
              "internalType": "string",
              "name": "userInstance",
              "type": "string"
            },
            {
              "internalType": "address",
              "name": "userAddr",
              "type": "address"
            }
          ],
          "internalType": "struct BaseCertificate.UserCert",
          "name": "",
          "type": "tuple"
        }
      ],
      "stateMutability": "pure",
      "type": "function"
    },
    {
      "inputs": [
        {
          "internalType": "string",
          "name": "certId",
          "type": "string"
        }
      ],
      "name": "getCertDetail",
      "outputs": [
        {
          "components": [
            {
              "internalType": "enum EnumsLibrary.StatusCertificate",
              "name": "status",
              "type": "uint8"
            },
            {
              "internalType": "uint256",
              "name": "timestampRequest",
              "type": "uint256"
            },
            {
              "internalType": "uint256",
              "name": "timestampApprove",
              "type": "uint256"
            },
            {
              "internalType": "uint256",
              "name": "timestampRejected",
              "type": "uint256"
            },
            {
              "internalType": "uint256",
              "name": "timestampRenewRequest",
              "type": "uint256"
            },
            {
              "internalType": "uint256",
              "name": "timestampExpired",
              "type": "uint256"
            },
            {
              "internalType": "uint256",
              "name": "timestampExtendRequest",
              "type": "uint256"
            },
            {
              "internalType": "uint256",
              "name": "timestampExtendApprove",
              "type": "uint256"
            },
            {
              "components": [
                {
                  "internalType": "string",
                  "name": "userName",
                  "type": "string"
                },
                {
                  "internalType": "string",
                  "name": "userInstance",
                  "type": "string"
                },
                {
                  "internalType": "address",
                  "name": "userAddr",
                  "type": "address"
                }
              ],
              "internalType": "struct BaseCertificate.UserCert",
              "name": "sender",
              "type": "tuple"
            },
            {
              "components": [
                {
                  "internalType": "string",
                  "name": "userName",
                  "type": "string"
                },
                {
                  "internalType": "string",
                  "name": "userInstance",
                  "type": "string"
                },
                {
                  "internalType": "address",
                  "name": "userAddr",
                  "type": "address"
                }
              ],
              "internalType": "struct BaseCertificate.UserCert",
              "name": "bpom",
              "type": "tuple"
            },
            {
              "internalType": "string",
              "name": "ipfsCert",
              "type": "string"
            }
          ],
          "internalType": "struct BaseCertificate.CertificateDetails",
          "name": "",
          "type": "tuple"
        }
      ],
      "stateMutability": "view",
      "type": "function"
    },
    {
      "inputs": [
        {
          "internalType": "string",
          "name": "certId",
          "type": "string"
        }
      ],
      "name": "getRejectMsg",
      "outputs": [
        {
          "internalType": "string",
          "name": "",
          "type": "string"
        }
      ],
      "stateMutability": "view",
      "type": "function"
    },
    {
      "inputs": [
        {
          "internalType": "string",
          "name": "certId",
          "type": "string"
        }
      ],
      "name": "getSenderDetail",
      "outputs": [
        {
          "components": [
            {
              "internalType": "string",
              "name": "userName",
              "type": "string"
            },
            {
              "internalType": "string",
              "name": "userInstance",
              "type": "string"
            },
            {
              "internalType": "address",
              "name": "userAddr",
              "type": "address"
            }
          ],
          "internalType": "struct BaseCertificate.UserCert",
          "name": "",
          "type": "tuple"
        }
      ],
      "stateMutability": "view",
      "type": "function"
    },
    {
      "inputs": [
        {
          "internalType": "string",
          "name": "",
          "type": "string"
        }
      ],
      "name": "rejectMsgById",
      "outputs": [
        {
          "internalType": "string",
          "name": "",
          "type": "string"
        }
      ],
      "stateMutability": "view",
      "type": "function"
    },
    {
      "inputs": [
        {
          "internalType": "string",
          "name": "certId",
          "type": "string"
        },
        {
          "internalType": "string",
          "name": "ipfsCert",
          "type": "string"
        },
        {
          "components": [
            {
              "internalType": "string",
              "name": "userName",
              "type": "string"
            },
            {
              "internalType": "string",
              "name": "userInstance",
              "type": "string"
            },
            {
              "internalType": "address",
              "name": "userAddr",
              "type": "address"
            }
          ],
          "internalType": "struct BaseCertificate.UserCert",
          "name": "bpomData",
          "type": "tuple"
        }
      ],
      "name": "updateBpomApproveDetails",
      "outputs": [],
      "stateMutability": "nonpayable",
      "type": "function"
    },
    {
      "inputs": [
        {
          "internalType": "string",
          "name": "certId",
          "type": "string"
        },
        {
          "internalType": "string",
          "name": "ipfsCert",
          "type": "string"
        }
      ],
      "name": "updateBpomApproveExtendCertificateDetails",
      "outputs": [],
      "stateMutability": "nonpayable",
      "type": "function"
    },
    {
      "inputs": [
        {
          "internalType": "string",
          "name": "certId",
          "type": "string"
        },
        {
          "internalType": "string",
          "name": "ipfsCert",
          "type": "string"
        }
      ],
      "name": "updateBpomExtendCertificateDetails",
      "outputs": [],
      "stateMutability": "nonpayable",
      "type": "function"
    },
    {
      "inputs": [
        {
          "internalType": "string",
          "name": "certId",
          "type": "string"
        },
        {
          "internalType": "string",
          "name": "rejectMsg",
          "type": "string"
        },
        {
          "components": [
            {
              "internalType": "string",
              "name": "userName",
              "type": "string"
            },
            {
              "internalType": "string",
              "name": "userInstance",
              "type": "string"
            },
            {
              "internalType": "address",
              "name": "userAddr",
              "type": "address"
            }
          ],
          "internalType": "struct BaseCertificate.UserCert",
          "name": "bpomData",
          "type": "tuple"
        }
      ],
      "name": "updateBpomRejectDetails",
      "outputs": [],
      "stateMutability": "nonpayable",
      "type": "function"
    },
    {
      "inputs": [
        {
          "internalType": "string",
          "name": "certId",
          "type": "string"
        },
        {
          "internalType": "uint256",
          "name": "expiredTimestamp",
          "type": "uint256"
        }
      ],
      "name": "updateExtendRenewDetails",
      "outputs": [],
      "stateMutability": "nonpayable",
      "type": "function"
    },
    {
      "inputs": [
        {
          "internalType": "string",
          "name": "certId",
          "type": "string"
        }
      ],
      "name": "updateRenewDetails",
      "outputs": [],
      "stateMutability": "nonpayable",
      "type": "function"
    }
  ],
  "bytecode": "0x60808060405234601557611a86908161001a8239f35b5f80fdfe60806040526004361015610011575f80fd5b5f3560e01c806317e683091461165b57806319859c87146115fc5780632e9cf8271461155d57806334a34f30146114525780636d1aa7d51461114d5780639740dbed146113a35780639aaa5d8b146111bb578063bf3f80ac1461114d578063d26196fd14611022578063e9c260d714610c8a578063f5104ff114610913578063f53ef126146107b15763fb5fb9a3146100a8575f80fd5b346107ad5760603660031901126107ad576004356001600160401b0381116107ad576100d8903690600401611950565b6024356001600160401b0381116107ad576100f7903690600401611950565b6044356001600160401b0381116107ad57610116903690600401611728565b604051610122816116eb565b5f81526020810193428552604082015f8152606083015f8152608084015f815260a08501905f825260c08601925f845260e08701945f865261010088019687526101208801998a5260209a8b80809b61017e6040519d8e611707565b5f8d526101408c019c8d52604051928184925191829101835e81015f815203019020985160078110156107995760ff80198b541691161789555160018901555160028801555160038701555160048601555160058501555160068401555160078301556008820190519081518051906001600160401b03821161049d57819061020784546117df565b601f811161074b575b508890601f83116001146106e8575f926106dd575b50508160011b915f199060031b1c19161790555b60098201858201518051906001600160401b03821161049d57819061025e84546117df565b601f811161068f575b508890601f831160011461062c575f92610621575b50508160011b915f199060031b1c19161790555b60400151600a820180546001600160a01b0319166001600160a01b0392909216919091179055915180518051919391600b8301916001600160401b03821161049d5781906102de84546117df565b601f81116105d3575b508790601f8311600114610570575f92610565575b50508160011b915f199060031b1c19161790555b600c81019284810151938451946001600160401b03861161049d5761033582546117df565b601f8111610522575b508690601f87116001146104bc57958091600e96975f926104b1575b50508160011b915f199060031b1c19161790555b60400151600d820180546001600160a01b0319166001600160a01b03929092169190911790559151805190939190920191906001600160401b03821161049d576103b883546117df565b601f811161045a575b5080601f83116001146103fb57508192935f926103f0575b50505f19600383901b1c191660019190911b179055005b015190505f806103d9565b90601f19831694845f52825f20925f905b87821061044257505083600195961061042a575b505050811b019055005b01515f1960f88460031b161c191690555f8080610420565b8060018596829496860151815501950193019061040c565b835f52815f20601f840160051c810191838510610493575b601f0160051c01905b81811061048857506103c1565b5f815560010161047b565b9091508190610472565b634e487b7160e01b5f52604160045260245ffd5b015190505f8061035a565b90601f19871691835f52885f20925f5b8a82821061050c575050916001939189600e999a94106104f4575b505050811b01905561036e565b01515f1960f88460031b161c191690555f80806104e7565b60018596829396860151815501950193016104cc565b825f52875f20601f880160051c81019189891061055b575b601f0160051c01905b818110610550575061033e565b5f8155600101610543565b909150819061053a565b015190505f806102fc565b5f8581528981209350601f198516905b8a8282106105bd5750509084600195949392106105a5575b505050811b019055610310565b01515f1960f88460031b161c191690555f8080610598565b6001859682939686015181550195019301610580565b909150835f52875f20601f840160051c810191898510610617575b90601f859493920160051c01905b81811061060957506102e7565b5f81558493506001016105fc565b90915081906105ee565b015190505f8061027c565b5f8581528a81209350601f198516905b8b828210610679575050908460019594939210610661575b505050811b019055610290565b01515f1960f88460031b161c191690555f8080610654565b600185968293968601518155019501930161063c565b909150835f52885f20601f840160051c8101918a85106106d3575b90601f859493920160051c01905b8181106106c55750610267565b5f81558493506001016106b8565b90915081906106aa565b015190505f80610225565b5f8581528a81209350601f198516905b8b82821061073557505090846001959493921061071d575b505050811b019055610239565b01515f1960f88460031b161c191690555f8080610710565b60018596829396860151815501950193016106f8565b909150835f52885f20601f840160051c8101918a851061078f575b90601f859493920160051c01905b8181106107815750610210565b5f8155849350600101610774565b9091508190610766565b634e487b7160e01b5f52602160045260245ffd5b5f80fd5b346107ad576020806107c236611903565b9290604051928184925191829101835e81015f81520301902042600282015560824201908142116108ff57600e916005820155600660ff198254161781550181516001600160401b03811161049d5761081b82546117df565b601f81116108ba575b50602092601f821160011461085f57928192935f926108545750505f19600383901b1c191660019190911b179055005b0151905083806103d9565b601f19821693835f52805f20915f5b8681106108a2575083600195961061088a57505050811b019055005b01515f1960f88460031b161c19169055838080610420565b9192602060018192868501518155019401920161086e565b825f5260205f20601f830160051c810191602084106108f5575b601f0160051c01905b8181106108ea5750610824565b5f81556001016108dd565b90915081906108d4565b634e487b7160e01b5f52601160045260245ffd5b346107ad57602080610924366119c8565b9391604093919351928184925191829101835e81015f815203019020918051600b8401908051906001600160401b03821161049d5761096383546117df565b601f8111610c45575b50602090601f8311600114610bde576020949392915f9183610bd3575b50508160011b915f199060031b1c19161790555b6040810151600d850180546001600160a01b0319166001600160a01b039290921691909117905501518051909290600c8201906001600160401b03811161049d576109e882546117df565b601f8111610b8e575b50602094601f8211600114610b2d579481929394955f92610b22575b50508160011b915f199060031b1c19161790555b42600282015560824201908142116108ff57600e916005820155600160ff198254161781550181516001600160401b03811161049d57610a6182546117df565b601f8111610add575b50602092601f8211600114610a9a57928192935f926108545750505f19600383901b1c191660019190911b179055005b601f19821693835f52805f20915f5b868110610ac5575083600195961061088a57505050811b019055005b91926020600181928685015181550194019201610aa9565b825f5260205f20601f830160051c81019160208410610b18575b601f0160051c01905b818110610b0d5750610a6a565b5f8155600101610b00565b9091508190610af7565b015190508580610a0d565b601f19821695835f52805f20915f5b888110610b7657508360019596979810610b5e575b505050811b019055610a21565b01515f1960f88460031b161c19169055858080610b51565b91926020600181928685015181550194019201610b3c565b825f5260205f20601f830160051c81019160208410610bc9575b601f0160051c01905b818110610bbe57506109f1565b5f8155600101610bb1565b9091508190610ba8565b015190508780610989565b90601f19831691845f52815f20925f5b818110610c2d575091600193918560209897969410610c15575b505050811b01905561099d565b01515f1960f88460031b161c19169055878080610c08565b92936020600181928786015181550195019301610bee565b835f5260205f20601f840160051c81019160208510610c80575b601f0160051c01905b818110610c75575061096c565b5f8155600101610c68565b9091508190610c5f565b346107ad57610c98366119c8565b909160405160208251918181818601948086835e81015f81520301902092604051928391518091835e8101600181520301902083516001600160401b03811161049d57610ce582546117df565b601f8111610fdd575b50602094601f8211600114610f7c579481929394955f92610f71575b50508160011b915f199060031b1c19161790555b815191600b820183516001600160401b03811161049d57610d3f82546117df565b601f8111610f2c575b506020601f8211600114610ec7578190602095965f92610ebc575b50508160011b915f199060031b1c19161790555b6040810151600d840180546001600160a01b0319166001600160a01b039290921691909117905501518051909190600c8201906001600160401b03811161049d57610dc282546117df565b601f8111610e77575b506020601f8211600114610e1657819293945f92610e0b575b50508160011b915f199060031b1c19161790555b426003820155805460ff19166002179055005b015190508480610de4565b601f19821690835f52805f20915f5b818110610e5f57509583600195969710610e47575b505050811b019055610df8565b01515f1960f88460031b161c19169055848080610e3a565b9192602060018192868b015181550194019201610e25565b825f5260205f20601f830160051c81019160208410610eb2575b601f0160051c01905b818110610ea75750610dcb565b5f8155600101610e9a565b9091508190610e91565b015190508680610d63565b601f19821695835f52815f20965f5b818110610f145750916020969791846001959410610efc575b505050811b019055610d77565b01515f1960f88460031b161c19169055868080610eef565b83830151895560019098019760209384019301610ed6565b825f5260205f20601f830160051c81019160208410610f67575b601f0160051c01905b818110610f5c5750610d48565b5f8155600101610f4f565b9091508190610f46565b015190508580610d0a565b601f19821695835f52805f20915f5b888110610fc557508360019596979810610fad575b505050811b019055610d1e565b01515f1960f88460031b161c19169055858080610fa0565b91926020600181928685015181550194019201610f8b565b825f5260205f20601f830160051c81019160208410611018575b601f0160051c01905b81811061100d5750610cee565b5f8155600101611000565b9091508190610ff7565b346107ad5760208061103336611903565b9290604051928184925191829101835e81015f81520301902042600782015560824201908142116108ff57600e916005820155600660ff198254161781550181516001600160401b03811161049d5761108c82546117df565b601f8111611108575b50602092601f82116001146110c557928192935f926108545750505f19600383901b1c191660019190911b179055005b601f19821693835f52805f20915f5b8681106110f0575083600195961061088a57505050811b019055005b919260206001819286850151815501940192016110d4565b825f5260205f20601f830160051c81019160208410611143575b601f0160051c01905b8181106111385750611095565b5f815560010161112b565b9091508190611122565b346107ad5760203660031901126107ad576004356001600160401b0381116107ad576111a36020806111866111b7943690600401611728565b604051928184925191829101835e81016001815203019020611817565b60405191829160208352602083019061177d565b0390f35b346107ad5760203660031901126107ad576004356001600160401b0381116107ad5760206111ee81923690600401611728565b60606101406040516111ff816116eb565b5f81525f858201525f60408201525f838201525f60808201525f60a08201525f60c08201525f60e0820152611232611a30565b610100820152611240611a30565b6101208201520152604051928184925191829101835e81015f81520301902060405161126b816116eb565b60ff82541660078110156107995781526001820154916020820192835260028101549060408301918252600381015460608401908152600482015460808501908152600583015460a0860190815260068401549060c0870191825260078501549260e08801938452600886016112e0906118b7565b6101008901908152946112f5600b88016118b7565b966101208a01978852600e0161130a90611817565b976101408a019889526040519a8b9a60208c5260208c0190519061132d916118f6565b5160408b01525160608a01525160808901525160a08801525160c08701525160e08601525161010085015251610120840161016090526101808401611371916117a1565b9051838203601f190161014085015261138a91906117a1565b9051828203601f19016101608401526111b7919061177d565b346107ad5760403660031901126107ad576004356001600160401b0381116107ad576113d3903690600401611728565b60243542111561140d5760208091604051928184925191829101835e5f90820190815203019020426006820155805460ff19166005179055005b60405162461bcd60e51b815260206004820152601860248201527f536572746966696b6174206d61736968206265726c616b7500000000000000006044820152606490fd5b346107ad5760203660031901126107ad576004356001600160401b0381116107ad57611482903690600401611728565b604051818192516020819201835e81015f8152036020019020805460ff16600182015491600281015490600381015460048201546005830154600684015490600785015492600886016114d4906118b7565b946114e1600b88016118b7565b96600e016114ee90611817565b976040519a6114fe8c809c6118f6565b60208b015260408a01526060890152608088015260a087015260c086015260e0850152610100840161016090526101608401611539916117a1565b83810361012085015261154b916117a1565b8281036101408401526111b79161177d565b346107ad5760603660031901126107ad576004356001600160401b0381116107ad5761158d903690600401611728565b6024356001600160401b0381116107ad576115ac903690600401611728565b906044356001600160a01b038116908190036107ad576111b7926115ce611a30565b50604051926115dc846116d0565b8352602083015260408201526040519182916020835260208301906117a1565b346107ad5760203660031901126107ad576004356001600160401b0381116107ad57602061162f81923690600401611728565b604051928184925191829101835e5f90820190815203019020426004820155805460ff19166003179055005b346107ad5760203660031901126107ad576004356001600160401b0381116107ad576116bc60086020806116966111b7953690600401611728565b61169e611a30565b50604051928184925191829101835e81015f815203019020016118b7565b6040519182916020835260208301906117a1565b606081019081106001600160401b0382111761049d57604052565b61016081019081106001600160401b0382111761049d57604052565b90601f801991011681019081106001600160401b0382111761049d57604052565b81601f820112156107ad578035906001600160401b03821161049d576040519261175c601f8401601f191660200185611707565b828452602083830101116107ad57815f926020809301838601378301015290565b805180835260209291819084018484015e5f828201840152601f01601f1916010190565b9060406117cc6117ba845160608552606085019061177d565b6020850151848203602086015261177d565b928101516001600160a01b031691015290565b90600182811c9216801561180d575b60208310146117f957565b634e487b7160e01b5f52602260045260245ffd5b91607f16916117ee565b9060405191825f82549261182a846117df565b80845293600181169081156118955750600114611851575b5061184f92500383611707565b565b90505f9291925260205f20905f915b81831061187957505090602061184f928201015f611842565b6020919350806001915483858901015201910190918492611860565b90506020925061184f94915060ff191682840152151560051b8201015f611842565b906040516118c4816116d0565b604081936118d181611817565b83526118df60018201611817565b6020840152600201546001600160a01b0316910152565b9060078210156107995752565b9060406003198301126107ad576004356001600160401b0381116107ad578261192e91600401611728565b91602435906001600160401b0382116107ad5761194d91600401611728565b90565b91906060838203126107ad5760405190611969826116d0565b819380356001600160401b0381116107ad5782611987918301611728565b835260208101356001600160401b0381116107ad576040926119aa918301611728565b60208401520135906001600160a01b03821682036107ad5760400152565b60606003198201126107ad576004356001600160401b0381116107ad57816119f291600401611728565b916024356001600160401b0381116107ad5782611a1191600401611728565b91604435906001600160401b0382116107ad5761194d91600401611950565b60405190611a3d826116d0565b5f6040836060815260606020820152015256fea2646970667358221220cd2b5477e3942b32a47a20f724f67df771667876a04d0da2ef30c5cb064406dd64736f6c634300081b0033",
  "linkReferences": {},
  "deployedLinkReferences": {}
}