{
  "_format": "hh-sol-artifact-1",
  "contractName": "BaseCertificate",
  "sourceName": "contracts/BaseCertificate.sol",
  "abi": [
    {
      "inputs": [
        {
          "internalType": "string",
          "name": "",
          "type": "string"
        }
      ],
      "name": "certDetailsById",
      "outputs": [
        {
          "internalType": "enum EnumsLibrary.StatusCertificate",
          "name": "status",
          "type": "uint8"
        },
        {
          "internalType": "uint256",
          "name": "timestampRequest",
          "type": "uint256"
        },
        {
          "internalType": "uint256",
          "name": "timestampApprove",
          "type": "uint256"
        },
        {
          "internalType": "uint256",
          "name": "timestampRejected",
          "type": "uint256"
        },
        {
          "internalType": "uint256",
          "name": "timestsmpRenewRequest",
          "type": "uint256"
        },
        {
          "components": [
            {
              "internalType": "string",
              "name": "userName",
              "type": "string"
            },
            {
              "internalType": "string",
              "name": "userInstance",
              "type": "string"
            },
            {
              "internalType": "address",
              "name": "userAddr",
              "type": "address"
            }
          ],
          "internalType": "struct BaseCertificate.st_userCertificate",
          "name": "sender",
          "type": "tuple"
        },
        {
          "components": [
            {
              "internalType": "string",
              "name": "userName",
              "type": "string"
            },
            {
              "internalType": "string",
              "name": "userInstance",
              "type": "string"
            },
            {
              "internalType": "address",
              "name": "userAddr",
              "type": "address"
            }
          ],
          "internalType": "struct BaseCertificate.st_userCertificate",
          "name": "bpom",
          "type": "tuple"
        },
        {
          "internalType": "string",
          "name": "ipfsCert",
          "type": "string"
        }
      ],
      "stateMutability": "view",
      "type": "function"
    },
    {
      "inputs": [
        {
          "components": [
            {
              "internalType": "string",
              "name": "userName",
              "type": "string"
            },
            {
              "internalType": "string",
              "name": "userInstance",
              "type": "string"
            },
            {
              "internalType": "address",
              "name": "userAddr",
              "type": "address"
            }
          ],
          "internalType": "struct BaseCertificate.st_userCertificate",
          "name": "_sender",
          "type": "tuple"
        },
        {
          "components": [
            {
              "internalType": "string",
              "name": "userName",
              "type": "string"
            },
            {
              "internalType": "string",
              "name": "userInstance",
              "type": "string"
            },
            {
              "internalType": "address",
              "name": "userAddr",
              "type": "address"
            }
          ],
          "internalType": "struct BaseCertificate.st_userCertificate",
          "name": "_bpom",
          "type": "tuple"
        },
        {
          "internalType": "string",
          "name": "_certId",
          "type": "string"
        }
      ],
      "name": "createCertificateDetails",
      "outputs": [],
      "stateMutability": "nonpayable",
      "type": "function"
    },
    {
      "inputs": [
        {
          "internalType": "string",
          "name": "_userName",
          "type": "string"
        },
        {
          "internalType": "address",
          "name": "_userAddr",
          "type": "address"
        },
        {
          "internalType": "string",
          "name": "_userInstance",
          "type": "string"
        }
      ],
      "name": "createUserCertificate",
      "outputs": [
        {
          "components": [
            {
              "internalType": "string",
              "name": "userName",
              "type": "string"
            },
            {
              "internalType": "string",
              "name": "userInstance",
              "type": "string"
            },
            {
              "internalType": "address",
              "name": "userAddr",
              "type": "address"
            }
          ],
          "internalType": "struct BaseCertificate.st_userCertificate",
          "name": "",
          "type": "tuple"
        }
      ],
      "stateMutability": "pure",
      "type": "function"
    },
    {
      "inputs": [
        {
          "internalType": "string",
          "name": "_certId",
          "type": "string"
        }
      ],
      "name": "getCertDetail",
      "outputs": [
        {
          "components": [
            {
              "internalType": "enum EnumsLibrary.StatusCertificate",
              "name": "status",
              "type": "uint8"
            },
            {
              "internalType": "uint256",
              "name": "timestampRequest",
              "type": "uint256"
            },
            {
              "internalType": "uint256",
              "name": "timestampApprove",
              "type": "uint256"
            },
            {
              "internalType": "uint256",
              "name": "timestampRejected",
              "type": "uint256"
            },
            {
              "internalType": "uint256",
              "name": "timestsmpRenewRequest",
              "type": "uint256"
            },
            {
              "components": [
                {
                  "internalType": "string",
                  "name": "userName",
                  "type": "string"
                },
                {
                  "internalType": "string",
                  "name": "userInstance",
                  "type": "string"
                },
                {
                  "internalType": "address",
                  "name": "userAddr",
                  "type": "address"
                }
              ],
              "internalType": "struct BaseCertificate.st_userCertificate",
              "name": "sender",
              "type": "tuple"
            },
            {
              "components": [
                {
                  "internalType": "string",
                  "name": "userName",
                  "type": "string"
                },
                {
                  "internalType": "string",
                  "name": "userInstance",
                  "type": "string"
                },
                {
                  "internalType": "address",
                  "name": "userAddr",
                  "type": "address"
                }
              ],
              "internalType": "struct BaseCertificate.st_userCertificate",
              "name": "bpom",
              "type": "tuple"
            },
            {
              "internalType": "string",
              "name": "ipfsCert",
              "type": "string"
            }
          ],
          "internalType": "struct BaseCertificate.st_certificateDetails",
          "name": "",
          "type": "tuple"
        }
      ],
      "stateMutability": "view",
      "type": "function"
    },
    {
      "inputs": [
        {
          "internalType": "string",
          "name": "_certId",
          "type": "string"
        }
      ],
      "name": "getRejectMsg",
      "outputs": [
        {
          "internalType": "string",
          "name": "",
          "type": "string"
        }
      ],
      "stateMutability": "view",
      "type": "function"
    },
    {
      "inputs": [
        {
          "internalType": "string",
          "name": "_certId",
          "type": "string"
        }
      ],
      "name": "getSenderDetail",
      "outputs": [
        {
          "components": [
            {
              "internalType": "string",
              "name": "userName",
              "type": "string"
            },
            {
              "internalType": "string",
              "name": "userInstance",
              "type": "string"
            },
            {
              "internalType": "address",
              "name": "userAddr",
              "type": "address"
            }
          ],
          "internalType": "struct BaseCertificate.st_userCertificate",
          "name": "",
          "type": "tuple"
        }
      ],
      "stateMutability": "view",
      "type": "function"
    },
    {
      "inputs": [
        {
          "internalType": "string",
          "name": "",
          "type": "string"
        }
      ],
      "name": "rejectMsgbyId",
      "outputs": [
        {
          "internalType": "string",
          "name": "",
          "type": "string"
        }
      ],
      "stateMutability": "view",
      "type": "function"
    },
    {
      "inputs": [
        {
          "internalType": "string",
          "name": "_certId",
          "type": "string"
        },
        {
          "internalType": "string",
          "name": "_ipfsCert",
          "type": "string"
        },
        {
          "components": [
            {
              "internalType": "string",
              "name": "userName",
              "type": "string"
            },
            {
              "internalType": "string",
              "name": "userInstance",
              "type": "string"
            },
            {
              "internalType": "address",
              "name": "userAddr",
              "type": "address"
            }
          ],
          "internalType": "struct BaseCertificate.st_userCertificate",
          "name": "_bpom",
          "type": "tuple"
        }
      ],
      "name": "updateBpomApproveDetails",
      "outputs": [],
      "stateMutability": "nonpayable",
      "type": "function"
    },
    {
      "inputs": [
        {
          "internalType": "string",
          "name": "_certId",
          "type": "string"
        },
        {
          "internalType": "string",
          "name": "_rejectMsg",
          "type": "string"
        },
        {
          "components": [
            {
              "internalType": "string",
              "name": "userName",
              "type": "string"
            },
            {
              "internalType": "string",
              "name": "userInstance",
              "type": "string"
            },
            {
              "internalType": "address",
              "name": "userAddr",
              "type": "address"
            }
          ],
          "internalType": "struct BaseCertificate.st_userCertificate",
          "name": "_bpom",
          "type": "tuple"
        }
      ],
      "name": "updateBpomRejectDetails",
      "outputs": [],
      "stateMutability": "nonpayable",
      "type": "function"
    },
    {
      "inputs": [
        {
          "internalType": "string",
          "name": "_certId",
          "type": "string"
        }
      ],
      "name": "updateRenewDetails",
      "outputs": [],
      "stateMutability": "nonpayable",
      "type": "function"
    }
  ],
  "bytecode": "0x60808060405234601557611646908161001a8239f35b5f80fdfe60806040526004361015610011575f80fd5b5f3560e01c806310159dfe1461119c57806317e683091461126557806319859c87146112065780636d1aa7d51461119c5780639aaa5d8b1461100e578063a71ed23a14610f27578063d533a3dd14610e84578063e9c260d714610aec578063f5104ff1146107635763fb5fb9a314610087575f80fd5b3461075f57606036600319011261075f576004356001600160401b03811161075f576100b790369060040161150d565b6024356001600160401b03811161075f576100d690369060040161150d565b6044356001600160401b03811161075f576100f5903690600401611332565b604051610101816112da565b5f81526020810193428552604082015f8152606083015f815260808401915f835260a0850193845260c08501968752602097888060405198610143828b611311565b5f8a5260e08901998a52604051928184925191829101835e81015f8152030190209551600481101561074b5760ff801988541691161786555160018601555160028501555160038401555160048301556005820190519081518051906001600160401b03821161044f5781906101b98454611387565b601f81116106fd575b508890601f831160011461069a575f9261068f575b50508160011b915f199060031b1c19161790555b60068201858201518051906001600160401b03821161044f5781906102108454611387565b601f8111610641575b508890601f83116001146105de575f926105d3575b50508160011b915f199060031b1c19161790555b604001516007820180546001600160a01b0319166001600160a01b039290921691909117905591518051805191939160088301916001600160401b03821161044f5781906102908454611387565b601f8111610585575b508790601f8311600114610522575f92610517575b50508160011b915f199060031b1c19161790555b600981019284810151938451946001600160401b03861161044f576102e78254611387565b601f81116104d4575b508690601f871160011461046e57958091600b96975f92610463575b50508160011b915f199060031b1c19161790555b60400151600a820180546001600160a01b0319166001600160a01b03929092169190911790559151805190939190920191906001600160401b03821161044f5761036a8354611387565b601f811161040c575b5080601f83116001146103ad57508192935f926103a2575b50505f19600383901b1c191660019190911b179055005b015190505f8061038b565b90601f19831694845f52825f20925f905b8782106103f45750508360019596106103dc575b505050811b019055005b01515f1960f88460031b161c191690555f80806103d2565b806001859682949686015181550195019301906103be565b835f52815f20601f840160051c810191838510610445575b601f0160051c01905b81811061043a5750610373565b5f815560010161042d565b9091508190610424565b634e487b7160e01b5f52604160045260245ffd5b015190505f8061030c565b90601f19871691835f52885f20925f5b8a8282106104be575050916001939189600b999a94106104a6575b505050811b019055610320565b01515f1960f88460031b161c191690555f8080610499565b600185968293968601518155019501930161047e565b825f52875f20601f880160051c81019189891061050d575b601f0160051c01905b81811061050257506102f0565b5f81556001016104f5565b90915081906104ec565b015190505f806102ae565b5f8581528981209350601f198516905b8a82821061056f575050908460019594939210610557575b505050811b0190556102c2565b01515f1960f88460031b161c191690555f808061054a565b6001859682939686015181550195019301610532565b909150835f52875f20601f840160051c8101918985106105c9575b90601f859493920160051c01905b8181106105bb5750610299565b5f81558493506001016105ae565b90915081906105a0565b015190505f8061022e565b5f8581528a81209350601f198516905b8b82821061062b575050908460019594939210610613575b505050811b019055610242565b01515f1960f88460031b161c191690555f8080610606565b60018596829396860151815501950193016105ee565b909150835f52885f20601f840160051c8101918a8510610685575b90601f859493920160051c01905b8181106106775750610219565b5f815584935060010161066a565b909150819061065c565b015190505f806101d7565b5f8581528a81209350601f198516905b8b8282106106e75750509084600195949392106106cf575b505050811b0190556101eb565b01515f1960f88460031b161c191690555f80806106c2565b60018596829396860151815501950193016106aa565b909150835f52885f20601f840160051c8101918a8510610741575b90601f859493920160051c01905b81811061073357506101c2565b5f8155849350600101610726565b9091508190610718565b634e487b7160e01b5f52602160045260245ffd5b5f80fd5b3461075f5760208061077436611585565b9391604093919351928184925191829101835e81015f81520301902091805160088401908051906001600160401b03821161044f576107b38354611387565b601f8111610aa7575b50602090601f8311600114610a40576020949392915f9183610a35575b50508160011b915f199060031b1c19161790555b6040810151600a850180546001600160a01b0319166001600160a01b03929092169190911790550151805190929060098201906001600160401b03811161044f576108388254611387565b601f81116109f0575b506020601f821160011461098b578190600b95965f92610980575b50508160011b915f199060031b1c19161790555b426002820155600160ff198254161781550181516001600160401b03811161044f5761089c8254611387565b601f811161093b575b50602092601f82116001146108e057928192935f926108d55750505f19600383901b1c191660019190911b179055005b01519050838061038b565b601f19821693835f52805f20915f5b868110610923575083600195961061090b57505050811b019055005b01515f1960f88460031b161c191690558380806103d2565b919260206001819286850151815501940192016108ef565b825f5260205f20601f830160051c81019160208410610976575b601f0160051c01905b81811061096b57506108a5565b5f815560010161095e565b9091508190610955565b01519050868061085c565b601f19821695835f52815f20965f5b8181106109d8575091600b9697918460019594106109c0575b505050811b019055610870565b01515f1960f88460031b161c191690558680806109b3565b8383015189556001909801976020938401930161099a565b825f5260205f20601f830160051c81019160208410610a2b575b601f0160051c01905b818110610a205750610841565b5f8155600101610a13565b9091508190610a0a565b0151905087806107d9565b90601f19831691845f52815f20925f5b818110610a8f575091600193918560209897969410610a77575b505050811b0190556107ed565b01515f1960f88460031b161c19169055878080610a6a565b92936020600181928786015181550195019301610a50565b835f5260205f20601f840160051c81019160208510610ae2575b601f0160051c01905b818110610ad757506107bc565b5f8155600101610aca565b9091508190610ac1565b3461075f57610afa36611585565b909160405160208251918181818601948086835e81015f81520301902092604051928391518091835e8101600181520301902083516001600160401b03811161044f57610b478254611387565b601f8111610e3f575b50602094601f8211600114610dde579481929394955f92610dd3575b50508160011b915f199060031b1c19161790555b8151916008820183516001600160401b03811161044f57610ba18254611387565b601f8111610d8e575b506020601f8211600114610d29578190602095965f92610d1e575b50508160011b915f199060031b1c19161790555b6040810151600a840180546001600160a01b0319166001600160a01b03929092169190911790550151805190919060098201906001600160401b03811161044f57610c248254611387565b601f8111610cd9575b506020601f8211600114610c7857819293945f92610c6d575b50508160011b915f199060031b1c19161790555b426003820155805460ff19166002179055005b015190508480610c46565b601f19821690835f52805f20915f5b818110610cc157509583600195969710610ca9575b505050811b019055610c5a565b01515f1960f88460031b161c19169055848080610c9c565b9192602060018192868b015181550194019201610c87565b825f5260205f20601f830160051c81019160208410610d14575b601f0160051c01905b818110610d095750610c2d565b5f8155600101610cfc565b9091508190610cf3565b015190508680610bc5565b601f19821695835f52815f20965f5b818110610d765750916020969791846001959410610d5e575b505050811b019055610bd9565b01515f1960f88460031b161c19169055868080610d51565b83830151895560019098019760209384019301610d38565b825f5260205f20601f830160051c81019160208410610dc9575b601f0160051c01905b818110610dbe5750610baa565b5f8155600101610db1565b9091508190610da8565b015190508580610b6c565b601f19821695835f52805f20915f5b888110610e2757508360019596979810610e0f575b505050811b019055610b80565b01515f1960f88460031b161c19169055858080610e02565b91926020600181928685015181550194019201610ded565b825f5260205f20601f830160051c81019160208410610e7a575b601f0160051c01905b818110610e6f5750610b50565b5f8155600101610e62565b9091508190610e59565b3461075f57606036600319011261075f576004356001600160401b03811161075f57610eb4903690600401611332565b6024356001600160a01b038116919082900361075f57604435916001600160401b03831161075f57610eed610f23933690600401611332565b610ef56115f0565b5060405192610f03846112f6565b835260208301526040820152604051918291602083526020830190611483565b0390f35b3461075f57602036600319011261075f576004356001600160401b03811161075f57602080610f5d610fcb933690600401611332565b604051928184925191829101835e81015f815203019020610f2360ff82541691611000600182015491610ff260028201546003830154600484015490610fa5600586016114ce565b92610fbe600b610fb7600889016114ce565b97016113bf565b976040519b8c809c6114c1565b60208b015260408a01526060890152608088015261010060a0880152610100870190611483565b9085820360c0870152611483565b9083820360e085015261145f565b3461075f57602036600319011261075f576004356001600160401b03811161075f57602061104181923690600401611332565b606060e0604051611051816112da565b5f81525f858201525f60408201525f838201525f60808201526110726115f0565b60a082015261107f6115f0565b60c08201520152604051928184925191829101835e81015f8152030190206040516110a9816112da565b60ff825416600481101561074b5761114992610f239183526111886001820154916020850192835261117560028201546040870190815260038301546060880190815260048401549060808901918252611105600586016114ce565b9260a08a0193845261112c600b61111e600889016114ce565b9760c08d01988952016113bf565b9760e08b019889526040519b8c9b60208d5260208d0190516114c1565b5160408b01525160608a01525160808901525160a08801525161010060c0880152610120870190611483565b9051858203601f190160e0870152611483565b9051838203601f190161010085015261145f565b3461075f57602036600319011261075f576004356001600160401b03811161075f576111f26020806111d5610f23943690600401611332565b604051928184925191829101835e810160018152030190206113bf565b60405191829160208352602083019061145f565b3461075f57602036600319011261075f576004356001600160401b03811161075f57602061123981923690600401611332565b604051928184925191829101835e5f90820190815203019020426004820155805460ff19166003179055005b3461075f57602036600319011261075f576004356001600160401b03811161075f576112c660056020806112a0610f23953690600401611332565b6112a86115f0565b50604051928184925191829101835e81015f815203019020016114ce565b604051918291602083526020830190611483565b61010081019081106001600160401b0382111761044f57604052565b606081019081106001600160401b0382111761044f57604052565b90601f801991011681019081106001600160401b0382111761044f57604052565b81601f8201121561075f578035906001600160401b03821161044f5760405192611366601f8401601f191660200185611311565b8284526020838301011161075f57815f926020809301838601378301015290565b90600182811c921680156113b5575b60208310146113a157565b634e487b7160e01b5f52602260045260245ffd5b91607f1691611396565b9060405191825f8254926113d284611387565b808452936001811690811561143d57506001146113f9575b506113f792500383611311565b565b90505f9291925260205f20905f915b8183106114215750509060206113f7928201015f6113ea565b6020919350806001915483858901015201910190918492611408565b9050602092506113f794915060ff191682840152151560051b8201015f6113ea565b805180835260209291819084018484015e5f828201840152601f01601f1916010190565b9060406114ae61149c845160608552606085019061145f565b6020850151848203602086015261145f565b928101516001600160a01b031691015290565b90600482101561074b5752565b906040516114db816112f6565b604081936114e8816113bf565b83526114f6600182016113bf565b6020840152600201546001600160a01b0316910152565b919060608382031261075f5760405190611526826112f6565b819380356001600160401b03811161075f5782611544918301611332565b835260208101356001600160401b03811161075f57604092611567918301611332565b60208401520135906001600160a01b038216820361075f5760400152565b606060031982011261075f576004356001600160401b03811161075f57816115af91600401611332565b916024356001600160401b03811161075f57826115ce91600401611332565b91604435906001600160401b03821161075f576115ed9160040161150d565b90565b604051906115fd826112f6565b5f6040836060815260606020820152015256fea2646970667358221220ca1859f0ee2a945c46af1ed23b763ae0aef0ccadd792703c5822ea84cdee5acc64736f6c634300081b0033",
  "linkReferences": {},
  "deployedLinkReferences": {}
}