{
  "_format": "hh-sol-artifact-1",
  "contractName": "BaseCertificate",
  "sourceName": "contracts/BaseCertificate.sol",
  "abi": [
    {
      "inputs": [
        {
          "internalType": "string",
          "name": "",
          "type": "string"
        }
      ],
      "name": "certDetailById",
      "outputs": [
        {
          "internalType": "enum EnumsLibrary.StatusCertificate",
          "name": "status",
          "type": "uint8"
        },
        {
          "internalType": "uint256",
          "name": "timestampRequest",
          "type": "uint256"
        },
        {
          "internalType": "uint256",
          "name": "timestampApprove",
          "type": "uint256"
        },
        {
          "internalType": "uint256",
          "name": "timestampRejected",
          "type": "uint256"
        },
        {
          "internalType": "uint256",
          "name": "timestampRenewRequest",
          "type": "uint256"
        },
        {
          "internalType": "uint256",
          "name": "timestampExpired",
          "type": "uint256"
        },
        {
          "internalType": "uint256",
          "name": "timestampExtendRequest",
          "type": "uint256"
        },
        {
          "internalType": "uint256",
          "name": "timestampExtendApprove",
          "type": "uint256"
        },
        {
          "internalType": "uint256",
          "name": "timestampExtendReject",
          "type": "uint256"
        },
        {
          "internalType": "uint256",
          "name": "timestampExtendRenew",
          "type": "uint256"
        },
        {
          "components": [
            {
              "internalType": "string",
              "name": "userName",
              "type": "string"
            },
            {
              "internalType": "string",
              "name": "userInstance",
              "type": "string"
            },
            {
              "internalType": "address",
              "name": "userAddr",
              "type": "address"
            }
          ],
          "internalType": "struct BaseCertificate.UserCert",
          "name": "sender",
          "type": "tuple"
        },
        {
          "components": [
            {
              "internalType": "string",
              "name": "userName",
              "type": "string"
            },
            {
              "internalType": "string",
              "name": "userInstance",
              "type": "string"
            },
            {
              "internalType": "address",
              "name": "userAddr",
              "type": "address"
            }
          ],
          "internalType": "struct BaseCertificate.UserCert",
          "name": "bpom",
          "type": "tuple"
        },
        {
          "internalType": "string",
          "name": "ipfsCert",
          "type": "string"
        }
      ],
      "stateMutability": "view",
      "type": "function"
    },
    {
      "inputs": [
        {
          "components": [
            {
              "internalType": "string",
              "name": "userName",
              "type": "string"
            },
            {
              "internalType": "string",
              "name": "userInstance",
              "type": "string"
            },
            {
              "internalType": "address",
              "name": "userAddr",
              "type": "address"
            }
          ],
          "internalType": "struct BaseCertificate.UserCert",
          "name": "senderData",
          "type": "tuple"
        },
        {
          "components": [
            {
              "internalType": "string",
              "name": "userName",
              "type": "string"
            },
            {
              "internalType": "string",
              "name": "userInstance",
              "type": "string"
            },
            {
              "internalType": "address",
              "name": "userAddr",
              "type": "address"
            }
          ],
          "internalType": "struct BaseCertificate.UserCert",
          "name": "bpomData",
          "type": "tuple"
        },
        {
          "internalType": "string",
          "name": "certId",
          "type": "string"
        }
      ],
      "name": "createCertificateDetails",
      "outputs": [],
      "stateMutability": "nonpayable",
      "type": "function"
    },
    {
      "inputs": [
        {
          "internalType": "string",
          "name": "userName",
          "type": "string"
        },
        {
          "internalType": "string",
          "name": "userInstance",
          "type": "string"
        },
        {
          "internalType": "address",
          "name": "userAddr",
          "type": "address"
        }
      ],
      "name": "createUserCertificate",
      "outputs": [
        {
          "components": [
            {
              "internalType": "string",
              "name": "userName",
              "type": "string"
            },
            {
              "internalType": "string",
              "name": "userInstance",
              "type": "string"
            },
            {
              "internalType": "address",
              "name": "userAddr",
              "type": "address"
            }
          ],
          "internalType": "struct BaseCertificate.UserCert",
          "name": "",
          "type": "tuple"
        }
      ],
      "stateMutability": "pure",
      "type": "function"
    },
    {
      "inputs": [
        {
          "internalType": "string",
          "name": "certId",
          "type": "string"
        }
      ],
      "name": "getCertDetail",
      "outputs": [
        {
          "components": [
            {
              "internalType": "enum EnumsLibrary.StatusCertificate",
              "name": "status",
              "type": "uint8"
            },
            {
              "internalType": "uint256",
              "name": "timestampRequest",
              "type": "uint256"
            },
            {
              "internalType": "uint256",
              "name": "timestampApprove",
              "type": "uint256"
            },
            {
              "internalType": "uint256",
              "name": "timestampRejected",
              "type": "uint256"
            },
            {
              "internalType": "uint256",
              "name": "timestampRenewRequest",
              "type": "uint256"
            },
            {
              "internalType": "uint256",
              "name": "timestampExpired",
              "type": "uint256"
            },
            {
              "internalType": "uint256",
              "name": "timestampExtendRequest",
              "type": "uint256"
            },
            {
              "internalType": "uint256",
              "name": "timestampExtendApprove",
              "type": "uint256"
            },
            {
              "internalType": "uint256",
              "name": "timestampExtendReject",
              "type": "uint256"
            },
            {
              "internalType": "uint256",
              "name": "timestampExtendRenew",
              "type": "uint256"
            },
            {
              "components": [
                {
                  "internalType": "string",
                  "name": "userName",
                  "type": "string"
                },
                {
                  "internalType": "string",
                  "name": "userInstance",
                  "type": "string"
                },
                {
                  "internalType": "address",
                  "name": "userAddr",
                  "type": "address"
                }
              ],
              "internalType": "struct BaseCertificate.UserCert",
              "name": "sender",
              "type": "tuple"
            },
            {
              "components": [
                {
                  "internalType": "string",
                  "name": "userName",
                  "type": "string"
                },
                {
                  "internalType": "string",
                  "name": "userInstance",
                  "type": "string"
                },
                {
                  "internalType": "address",
                  "name": "userAddr",
                  "type": "address"
                }
              ],
              "internalType": "struct BaseCertificate.UserCert",
              "name": "bpom",
              "type": "tuple"
            },
            {
              "internalType": "string",
              "name": "ipfsCert",
              "type": "string"
            }
          ],
          "internalType": "struct BaseCertificate.CertificateDetails",
          "name": "",
          "type": "tuple"
        }
      ],
      "stateMutability": "view",
      "type": "function"
    },
    {
      "inputs": [
        {
          "internalType": "string",
          "name": "certId",
          "type": "string"
        }
      ],
      "name": "getRejectMsg",
      "outputs": [
        {
          "internalType": "string",
          "name": "",
          "type": "string"
        },
        {
          "internalType": "string",
          "name": "",
          "type": "string"
        }
      ],
      "stateMutability": "view",
      "type": "function"
    },
    {
      "inputs": [
        {
          "internalType": "string",
          "name": "certId",
          "type": "string"
        }
      ],
      "name": "getSenderDetail",
      "outputs": [
        {
          "components": [
            {
              "internalType": "string",
              "name": "userName",
              "type": "string"
            },
            {
              "internalType": "string",
              "name": "userInstance",
              "type": "string"
            },
            {
              "internalType": "address",
              "name": "userAddr",
              "type": "address"
            }
          ],
          "internalType": "struct BaseCertificate.UserCert",
          "name": "",
          "type": "tuple"
        }
      ],
      "stateMutability": "view",
      "type": "function"
    },
    {
      "inputs": [
        {
          "internalType": "string",
          "name": "",
          "type": "string"
        }
      ],
      "name": "rejectMsgById",
      "outputs": [
        {
          "internalType": "string",
          "name": "",
          "type": "string"
        }
      ],
      "stateMutability": "view",
      "type": "function"
    },
    {
      "inputs": [
        {
          "internalType": "string",
          "name": "",
          "type": "string"
        }
      ],
      "name": "rejectMsgExtendById",
      "outputs": [
        {
          "internalType": "string",
          "name": "",
          "type": "string"
        }
      ],
      "stateMutability": "view",
      "type": "function"
    },
    {
      "inputs": [
        {
          "internalType": "string",
          "name": "certId",
          "type": "string"
        },
        {
          "internalType": "string",
          "name": "ipfsCert",
          "type": "string"
        },
        {
          "components": [
            {
              "internalType": "string",
              "name": "userName",
              "type": "string"
            },
            {
              "internalType": "string",
              "name": "userInstance",
              "type": "string"
            },
            {
              "internalType": "address",
              "name": "userAddr",
              "type": "address"
            }
          ],
          "internalType": "struct BaseCertificate.UserCert",
          "name": "bpomData",
          "type": "tuple"
        }
      ],
      "name": "updateBpomApproveDetails",
      "outputs": [],
      "stateMutability": "nonpayable",
      "type": "function"
    },
    {
      "inputs": [
        {
          "internalType": "string",
          "name": "certId",
          "type": "string"
        },
        {
          "internalType": "string",
          "name": "ipfsCert",
          "type": "string"
        }
      ],
      "name": "updateBpomApproveExtendCertificateDetails",
      "outputs": [],
      "stateMutability": "nonpayable",
      "type": "function"
    },
    {
      "inputs": [
        {
          "internalType": "string",
          "name": "certId",
          "type": "string"
        },
        {
          "internalType": "string",
          "name": "ipfsCert",
          "type": "string"
        }
      ],
      "name": "updateBpomExtendCertificateDetails",
      "outputs": [],
      "stateMutability": "nonpayable",
      "type": "function"
    },
    {
      "inputs": [
        {
          "internalType": "string",
          "name": "certId",
          "type": "string"
        },
        {
          "internalType": "string",
          "name": "rejectMsg",
          "type": "string"
        },
        {
          "components": [
            {
              "internalType": "string",
              "name": "userName",
              "type": "string"
            },
            {
              "internalType": "string",
              "name": "userInstance",
              "type": "string"
            },
            {
              "internalType": "address",
              "name": "userAddr",
              "type": "address"
            }
          ],
          "internalType": "struct BaseCertificate.UserCert",
          "name": "bpomData",
          "type": "tuple"
        }
      ],
      "name": "updateBpomRejectDetails",
      "outputs": [],
      "stateMutability": "nonpayable",
      "type": "function"
    },
    {
      "inputs": [
        {
          "internalType": "string",
          "name": "certId",
          "type": "string"
        },
        {
          "internalType": "string",
          "name": "rejectMsg",
          "type": "string"
        }
      ],
      "name": "updateBpomRejectExtendCertificateDetails",
      "outputs": [],
      "stateMutability": "nonpayable",
      "type": "function"
    },
    {
      "inputs": [
        {
          "internalType": "string",
          "name": "certId",
          "type": "string"
        },
        {
          "internalType": "uint256",
          "name": "expiredTimestamp",
          "type": "uint256"
        }
      ],
      "name": "updateExtendRenewDetails",
      "outputs": [],
      "stateMutability": "nonpayable",
      "type": "function"
    },
    {
      "inputs": [
        {
          "internalType": "string",
          "name": "certId",
          "type": "string"
        }
      ],
      "name": "updateRenewDetails",
      "outputs": [],
      "stateMutability": "nonpayable",
      "type": "function"
    },
    {
      "inputs": [
        {
          "internalType": "string",
          "name": "certId",
          "type": "string"
        }
      ],
      "name": "updateRenewExtendCertificateDetails",
      "outputs": [],
      "stateMutability": "nonpayable",
      "type": "function"
    }
  ],
  "bytecode": "0x60808060405234601557611db9908161001a8239f35b5f80fdfe60806040526004361015610011575f80fd5b5f3560e01c806317e683091461198e57806319859c871461192f57806326c6d4c5146118d95780632e9cf8271461183a57806334a34f30146117185780633a947f1a146116b95780636d1aa7d51461161d5780639740dbed1461156e5780639aaa5d8b1461134f578063bf3f80ac146112e1578063ceee10671461118d578063d26196fd14611062578063e9c260d714610cca578063f5104ff114610953578063f53ef126146107f15763fb5fb9a3146100c9575f80fd5b346107ed5760603660031901126107ed576004356001600160401b0381116107ed576100f9903690600401611c83565b6024356001600160401b0381116107ed57610118903690600401611c83565b6044356001600160401b0381116107ed57610137903690600401611a5b565b91604051809161014682611a1e565b5f825260208201428152604083015f8152606084015f8152608085015f815260a086015f815260c08701915f835260e08801935f85526101008901955f87526101208a01975f89526101408b01998a526101608b019c8d526020809e81906040519e8f6101b38482611a3a565b5f9052610180019e8f52604051928184925191829101835e81015f8152030190209a5160098110156107d95760ff80198d54169116178b555160018b01555160028a0155516003890155516004880155516005870155516006860155516007850155516008840155516009830155600a820190519081518051906001600160401b0382116104dd5781906102478454611b12565b601f811161078b575b508890601f8311600114610728575f9261071d575b50508160011b915f199060031b1c19161790555b600b8201858201518051906001600160401b0382116104dd57819061029e8454611b12565b601f81116106cf575b508890601f831160011461066c575f92610661575b50508160011b915f199060031b1c19161790555b60400151600c820180546001600160a01b0319166001600160a01b0392909216919091179055915180518051919391600d8301916001600160401b0382116104dd57819061031e8454611b12565b601f8111610613575b508790601f83116001146105b0575f926105a5575b50508160011b915f199060031b1c19161790555b600e81019284810151938451946001600160401b0386116104dd576103758254611b12565b601f8111610562575b508690601f87116001146104fc57958091601096975f926104f1575b50508160011b915f199060031b1c19161790555b60400151600f820180546001600160a01b0319166001600160a01b03929092169190911790559151805190939190920191906001600160401b0382116104dd576103f88354611b12565b601f811161049a575b5080601f831160011461043b57508192935f92610430575b50505f19600383901b1c191660019190911b179055005b015190505f80610419565b90601f19831694845f52825f20925f905b87821061048257505083600195961061046a575b505050811b019055005b01515f1960f88460031b161c191690555f8080610460565b8060018596829496860151815501950193019061044c565b835f52815f20601f840160051c8101918385106104d3575b601f0160051c01905b8181106104c85750610401565b5f81556001016104bb565b90915081906104b2565b634e487b7160e01b5f52604160045260245ffd5b015190505f8061039a565b90601f19871691835f52885f20925f5b8a82821061054c5750509160019391896010999a9410610534575b505050811b0190556103ae565b01515f1960f88460031b161c191690555f8080610527565b600185968293968601518155019501930161050c565b825f52875f20601f880160051c81019189891061059b575b601f0160051c01905b818110610590575061037e565b5f8155600101610583565b909150819061057a565b015190505f8061033c565b5f8581528981209350601f198516905b8a8282106105fd5750509084600195949392106105e5575b505050811b019055610350565b01515f1960f88460031b161c191690555f80806105d8565b60018596829396860151815501950193016105c0565b909150835f52875f20601f840160051c810191898510610657575b90601f859493920160051c01905b8181106106495750610327565b5f815584935060010161063c565b909150819061062e565b015190505f806102bc565b5f8581528a81209350601f198516905b8b8282106106b95750509084600195949392106106a1575b505050811b0190556102d0565b01515f1960f88460031b161c191690555f8080610694565b600185968293968601518155019501930161067c565b909150835f52885f20601f840160051c8101918a8510610713575b90601f859493920160051c01905b81811061070557506102a7565b5f81558493506001016106f8565b90915081906106ea565b015190505f80610265565b5f8581528a81209350601f198516905b8b82821061077557505090846001959493921061075d575b505050811b019055610279565b01515f1960f88460031b161c191690555f8080610750565b6001859682939686015181550195019301610738565b909150835f52885f20601f840160051c8101918a85106107cf575b90601f859493920160051c01905b8181106107c15750610250565b5f81558493506001016107b4565b90915081906107a6565b634e487b7160e01b5f52602160045260245ffd5b5f80fd5b346107ed5760208061080236611c36565b9290604051928184925191829101835e81015f815203019020426002820155608242019081421161093f576010916005820155600660ff198254161781550181516001600160401b0381116104dd5761085b8254611b12565b601f81116108fa575b50602092601f821160011461089f57928192935f926108945750505f19600383901b1c191660019190911b179055005b015190508380610419565b601f19821693835f52805f20915f5b8681106108e257508360019596106108ca57505050811b019055005b01515f1960f88460031b161c19169055838080610460565b919260206001819286850151815501940192016108ae565b825f5260205f20601f830160051c81019160208410610935575b601f0160051c01905b81811061092a5750610864565b5f815560010161091d565b9091508190610914565b634e487b7160e01b5f52601160045260245ffd5b346107ed5760208061096436611cfb565b9391604093919351928184925191829101835e81015f815203019020918051600d8401908051906001600160401b0382116104dd576109a38354611b12565b601f8111610c85575b50602090601f8311600114610c1e576020949392915f9183610c13575b50508160011b915f199060031b1c19161790555b6040810151600f850180546001600160a01b0319166001600160a01b039290921691909117905501518051909290600e8201906001600160401b0381116104dd57610a288254611b12565b601f8111610bce575b50602094601f8211600114610b6d579481929394955f92610b62575b50508160011b915f199060031b1c19161790555b426002820155608242019081421161093f576010916005820155600160ff198254161781550181516001600160401b0381116104dd57610aa18254611b12565b601f8111610b1d575b50602092601f8211600114610ada57928192935f926108945750505f19600383901b1c191660019190911b179055005b601f19821693835f52805f20915f5b868110610b0557508360019596106108ca57505050811b019055005b91926020600181928685015181550194019201610ae9565b825f5260205f20601f830160051c81019160208410610b58575b601f0160051c01905b818110610b4d5750610aaa565b5f8155600101610b40565b9091508190610b37565b015190508580610a4d565b601f19821695835f52805f20915f5b888110610bb657508360019596979810610b9e575b505050811b019055610a61565b01515f1960f88460031b161c19169055858080610b91565b91926020600181928685015181550194019201610b7c565b825f5260205f20601f830160051c81019160208410610c09575b601f0160051c01905b818110610bfe5750610a31565b5f8155600101610bf1565b9091508190610be8565b0151905087806109c9565b90601f19831691845f52815f20925f5b818110610c6d575091600193918560209897969410610c55575b505050811b0190556109dd565b01515f1960f88460031b161c19169055878080610c48565b92936020600181928786015181550195019301610c2e565b835f5260205f20601f840160051c81019160208510610cc0575b601f0160051c01905b818110610cb557506109ac565b5f8155600101610ca8565b9091508190610c9f565b346107ed57610cd836611cfb565b909160405160208251918181818601948086835e81015f81520301902092604051928391518091835e8101600181520301902083516001600160401b0381116104dd57610d258254611b12565b601f811161101d575b50602094601f8211600114610fbc579481929394955f92610fb1575b50508160011b915f199060031b1c19161790555b815191600d820183516001600160401b0381116104dd57610d7f8254611b12565b601f8111610f6c575b506020601f8211600114610f07578190602095965f92610efc575b50508160011b915f199060031b1c19161790555b6040810151600f840180546001600160a01b0319166001600160a01b039290921691909117905501518051909190600e8201906001600160401b0381116104dd57610e028254611b12565b601f8111610eb7575b506020601f8211600114610e5657819293945f92610e4b575b50508160011b915f199060031b1c19161790555b426003820155805460ff19166002179055005b015190508480610e24565b601f19821690835f52805f20915f5b818110610e9f57509583600195969710610e87575b505050811b019055610e38565b01515f1960f88460031b161c19169055848080610e7a565b9192602060018192868b015181550194019201610e65565b825f5260205f20601f830160051c81019160208410610ef2575b601f0160051c01905b818110610ee75750610e0b565b5f8155600101610eda565b9091508190610ed1565b015190508680610da3565b601f19821695835f52815f20965f5b818110610f545750916020969791846001959410610f3c575b505050811b019055610db7565b01515f1960f88460031b161c19169055868080610f2f565b83830151895560019098019760209384019301610f16565b825f5260205f20601f830160051c81019160208410610fa7575b601f0160051c01905b818110610f9c5750610d88565b5f8155600101610f8f565b9091508190610f86565b015190508580610d4a565b601f19821695835f52805f20915f5b88811061100557508360019596979810610fed575b505050811b019055610d5e565b01515f1960f88460031b161c19169055858080610fe0565b91926020600181928685015181550194019201610fcb565b825f5260205f20601f830160051c81019160208410611058575b601f0160051c01905b81811061104d5750610d2e565b5f8155600101611040565b9091508190611037565b346107ed5760208061107336611c36565b9290604051928184925191829101835e81015f815203019020426007820155608242019081421161093f576010916005820155600660ff198254161781550181516001600160401b0381116104dd576110cc8254611b12565b601f8111611148575b50602092601f821160011461110557928192935f926108945750505f19600383901b1c191660019190911b179055005b601f19821693835f52805f20915f5b86811061113057508360019596106108ca57505050811b019055005b91926020600181928685015181550194019201611114565b825f5260205f20601f830160051c81019160208410611183575b601f0160051c01905b81811061117857506110d5565b5f815560010161116b565b9091508190611162565b346107ed5761119b36611c36565b9060405160208251918181818601948086835e81015f81520301902092604051928391518091835e8101600281520301902082516001600160401b0381116104dd576111e78254611b12565b601f811161129c575b506020601f821160011461123b57819293945f92611230575b50508160011b915f199060031b1c19161790555b426008820155805460ff19166007179055005b015190508480611209565b601f19821690835f52805f20915f5b8181106112845750958360019596971061126c575b505050811b01905561121d565b01515f1960f88460031b161c1916905584808061125f565b9192602060018192868b01518155019401920161124a565b825f5260205f20601f830160051c810191602084106112d7575b601f0160051c01905b8181106112cc57506111f0565b5f81556001016112bf565b90915081906112b6565b346107ed5760203660031901126107ed576004356001600160401b0381116107ed5761133760208061131a61134b943690600401611a5b565b604051928184925191829101835e81016001815203019020611b4a565b604051918291602083526020830190611ab0565b0390f35b346107ed5760203660031901126107ed576004356001600160401b0381116107ed57602061138281923690600401611a5b565b606061018060405161139381611a1e565b5f81525f858201525f60408201525f838201525f60808201525f60a08201525f60c08201525f60e08201525f6101008201525f6101208201526113d4611d63565b6101408201526113e2611d63565b6101608201520152604051928184925191829101835e81015f81520301902060405161140d81611a1e565b60ff82541660098110156107d95781526001820154916020820192835260028101549060408301918252600381015460608401908152600482015460808501908152600583015460a08601908152600684015460c0870190815260078501549060e0880191825260088601549261010089019384526009870154946101208a01958652600a880161149d90611bea565b6101408b01908152966114b2600d8a01611bea565b986101608c01998a526010016114c790611b4a565b996101808c019a8b526040519c8d9c8d602081526020019051906114ea91611c29565b5160408d01525160608c01525160808b01525160a08a01525160c08901525160e08801525161010087015251610120860152516101408501525161016084016101a090526101c0840161153c91611ad4565b9051838203601f19016101808501526115559190611ad4565b9051828203601f19016101a084015261134b9190611ab0565b346107ed5760403660031901126107ed576004356001600160401b0381116107ed5761159e903690600401611a5b565b6024354211156115d85760208091604051928184925191829101835e5f90820190815203019020426006820155805460ff19166005179055005b60405162461bcd60e51b815260206004820152601860248201527f536572746966696b6174206d61736968206265726c616b7500000000000000006044820152606490fd5b346107ed5760203660031901126107ed576004356001600160401b0381116107ed576116506116ab913690600401611a5b565b61134b61169761169160405160208551918181818901948086835e8101600181520301902095604051928391518091835e8101600281520301902093611b4a565b92611b4a565b604051938493604085526040850190611ab0565b908382036020850152611ab0565b346107ed5760203660031901126107ed576004356001600160401b0381116107ed5760206116ec81923690600401611a5b565b604051928184925191829101835e5f90820190815203019020426009820155805460ff19166008179055005b346107ed5760203660031901126107ed576004356001600160401b0381116107ed57611748903690600401611a5b565b604051818192516020819201835e81015f8152036020019020805460ff166001820154916002810154906003810154600482015460058301546006840154600785015490600886015492600987015494600a88016117a590611bea565b966117b2600d8a01611bea565b986010016117bf90611b4a565b996040519c6117cf8e809e611c29565b60208d015260408c015260608b015260808a015260a089015260c088015260e087015261010086015261012085015261014084016101a090526101a0840161181691611ad4565b83810361016085015261182891611ad4565b82810361018084015261134b91611ab0565b346107ed5760603660031901126107ed576004356001600160401b0381116107ed5761186a903690600401611a5b565b6024356001600160401b0381116107ed57611889903690600401611a5b565b906044356001600160a01b038116908190036107ed5761134b926118ab611d63565b50604051926118b984611a03565b835260208301526040820152604051918291602083526020830190611ad4565b346107ed5760203660031901126107ed576004356001600160401b0381116107ed5761133760208061191261134b943690600401611a5b565b604051928184925191829101835e81016002815203019020611b4a565b346107ed5760203660031901126107ed576004356001600160401b0381116107ed57602061196281923690600401611a5b565b604051928184925191829101835e5f90820190815203019020426004820155805460ff19166003179055005b346107ed5760203660031901126107ed576004356001600160401b0381116107ed576119ef600a6020806119c961134b953690600401611a5b565b6119d1611d63565b50604051928184925191829101835e81015f81520301902001611bea565b604051918291602083526020830190611ad4565b606081019081106001600160401b038211176104dd57604052565b6101a081019081106001600160401b038211176104dd57604052565b90601f801991011681019081106001600160401b038211176104dd57604052565b81601f820112156107ed578035906001600160401b0382116104dd5760405192611a8f601f8401601f191660200185611a3a565b828452602083830101116107ed57815f926020809301838601378301015290565b805180835260209291819084018484015e5f828201840152601f01601f1916010190565b906040611aff611aed8451606085526060850190611ab0565b60208501518482036020860152611ab0565b928101516001600160a01b031691015290565b90600182811c92168015611b40575b6020831014611b2c57565b634e487b7160e01b5f52602260045260245ffd5b91607f1691611b21565b9060405191825f825492611b5d84611b12565b8084529360018116908115611bc85750600114611b84575b50611b8292500383611a3a565b565b90505f9291925260205f20905f915b818310611bac575050906020611b82928201015f611b75565b6020919350806001915483858901015201910190918492611b93565b905060209250611b8294915060ff191682840152151560051b8201015f611b75565b90604051611bf781611a03565b60408193611c0481611b4a565b8352611c1260018201611b4a565b6020840152600201546001600160a01b0316910152565b9060098210156107d95752565b9060406003198301126107ed576004356001600160401b0381116107ed5782611c6191600401611a5b565b91602435906001600160401b0382116107ed57611c8091600401611a5b565b90565b91906060838203126107ed5760405190611c9c82611a03565b819380356001600160401b0381116107ed5782611cba918301611a5b565b835260208101356001600160401b0381116107ed57604092611cdd918301611a5b565b60208401520135906001600160a01b03821682036107ed5760400152565b60606003198201126107ed576004356001600160401b0381116107ed5781611d2591600401611a5b565b916024356001600160401b0381116107ed5782611d4491600401611a5b565b91604435906001600160401b0382116107ed57611c8091600401611c83565b60405190611d7082611a03565b5f6040836060815260606020820152015256fea2646970667358221220737ca652a78e8f4ac6583a060408ccae5b89410a3f4f1daa86e5d9a26549727764736f6c634300081b0033",
  "linkReferences": {},
  "deployedLinkReferences": {}
}