{
  "_format": "hh-sol-artifact-1",
  "contractName": "RoleManager",
  "sourceName": "contracts/RoleManager.sol",
  "abi": [
    {
      "anonymous": false,
      "inputs": [
        {
          "indexed": false,
          "internalType": "address",
          "name": "userAddr",
          "type": "address"
        },
        {
          "indexed": false,
          "internalType": "string",
          "name": "name",
          "type": "string"
        },
        {
          "indexed": false,
          "internalType": "string",
          "name": "instanceName",
          "type": "string"
        },
        {
          "indexed": false,
          "internalType": "enum EnumsLibrary.Roles",
          "name": "role",
          "type": "uint8"
        },
        {
          "indexed": false,
          "internalType": "string",
          "name": "locationInstance",
          "type": "string"
        },
        {
          "indexed": false,
          "internalType": "string",
          "name": "nib",
          "type": "string"
        },
        {
          "indexed": false,
          "internalType": "string",
          "name": "npwp",
          "type": "string"
        }
      ],
      "name": "UserRegistered",
      "type": "event"
    },
    {
      "inputs": [
        {
          "internalType": "address",
          "name": "userAddr",
          "type": "address"
        }
      ],
      "name": "checkRegistration",
      "outputs": [
        {
          "internalType": "bool",
          "name": "",
          "type": "bool"
        }
      ],
      "stateMutability": "view",
      "type": "function"
    },
    {
      "inputs": [
        {
          "internalType": "address",
          "name": "userAddr",
          "type": "address"
        }
      ],
      "name": "getUserData",
      "outputs": [
        {
          "components": [
            {
              "internalType": "string",
              "name": "name",
              "type": "string"
            },
            {
              "internalType": "string",
              "name": "instanceName",
              "type": "string"
            },
            {
              "internalType": "address",
              "name": "userAddr",
              "type": "address"
            },
            {
              "internalType": "enum EnumsLibrary.Roles",
              "name": "role",
              "type": "uint8"
            },
            {
              "internalType": "string",
              "name": "locationInstance",
              "type": "string"
            },
            {
              "internalType": "string",
              "name": "factoryType",
              "type": "string"
            },
            {
              "internalType": "string",
              "name": "nib",
              "type": "string"
            },
            {
              "internalType": "string",
              "name": "npwp",
              "type": "string"
            }
          ],
          "internalType": "struct RoleManager.UserData",
          "name": "",
          "type": "tuple"
        }
      ],
      "stateMutability": "view",
      "type": "function"
    },
    {
      "inputs": [
        {
          "internalType": "address",
          "name": "userAddr",
          "type": "address"
        },
        {
          "internalType": "enum EnumsLibrary.Roles",
          "name": "role",
          "type": "uint8"
        }
      ],
      "name": "hasRole",
      "outputs": [
        {
          "internalType": "bool",
          "name": "",
          "type": "bool"
        }
      ],
      "stateMutability": "view",
      "type": "function"
    },
    {
      "inputs": [],
      "name": "loginUser",
      "outputs": [
        {
          "components": [
            {
              "internalType": "string",
              "name": "name",
              "type": "string"
            },
            {
              "internalType": "string",
              "name": "instanceName",
              "type": "string"
            },
            {
              "internalType": "address",
              "name": "userAddr",
              "type": "address"
            },
            {
              "internalType": "enum EnumsLibrary.Roles",
              "name": "role",
              "type": "uint8"
            },
            {
              "internalType": "string",
              "name": "locationInstance",
              "type": "string"
            },
            {
              "internalType": "string",
              "name": "factoryType",
              "type": "string"
            },
            {
              "internalType": "string",
              "name": "nib",
              "type": "string"
            },
            {
              "internalType": "string",
              "name": "npwp",
              "type": "string"
            }
          ],
          "internalType": "struct RoleManager.UserData",
          "name": "",
          "type": "tuple"
        }
      ],
      "stateMutability": "view",
      "type": "function"
    },
    {
      "inputs": [
        {
          "internalType": "string",
          "name": "userName",
          "type": "string"
        },
        {
          "internalType": "string",
          "name": "userInstance",
          "type": "string"
        },
        {
          "internalType": "uint8",
          "name": "role",
          "type": "uint8"
        },
        {
          "internalType": "string",
          "name": "locationInstance",
          "type": "string"
        },
        {
          "internalType": "string",
          "name": "factoryType",
          "type": "string"
        },
        {
          "internalType": "string",
          "name": "nibNumber",
          "type": "string"
        },
        {
          "internalType": "string",
          "name": "npwpNumber",
          "type": "string"
        }
      ],
      "name": "registerUser",
      "outputs": [],
      "stateMutability": "nonpayable",
      "type": "function"
    }
  ],
  "bytecode": "0x60808060405234601557610f05908161001a8239f35b5f80fdfe60806040526004361015610011575f80fd5b5f3560e01c806336c444ee146102e357806395a8c58d14610251578063a19ed686146101be578063e2a41283146101815763ffc9896b14610050575f80fd5b3461017d57602036600319011261017d57610069610ca5565b610071610df3565b506001600160a01b03165f8181526001602052604090205460ff1615610141575f525f60205261013d60405f2061012c6006604051926100b084610c13565b6100b981610e2f565b84526100c760018201610e2f565b602085015260028101546001600160a01b03811660408601526100f39060a01c60ff1660608601610daf565b6100ff60038201610e2f565b608085015261011060048201610e2f565b60a085015261012160058201610e2f565b60c085015201610e2f565b60e082015260405191829182610cec565b0390f35b60405162461bcd60e51b81526020600482015260146024820152732ab9b2b9103132b63ab6903a32b93230b33a30b960611b6044820152606490fd5b5f80fd5b3461017d57602036600319011261017d576001600160a01b036101a2610ca5565b165f526001602052602060ff60405f2054166040519015158152f35b3461017d575f36600319011261017d576101d6610df3565b50335f52600160205260ff60405f2054161561020c57335f525f60205261013d60405f2061012c6006604051926100b084610c13565b60405162461bcd60e51b815260206004820152601a60248201527f4e616d612064616e20616c616d617420557365722073616c61680000000000006044820152606490fd5b3461017d57604036600319011261017d5761026a610ca5565b60243590600482101561017d576001600160a01b03165f8181526001602052604090205460ff1690816102a5575b6020826040519015158152f35b90505f525f60205260ff600260405f20015460a01c169060048210156102cf576020911482610298565b634e487b7160e01b5f52602160045260245ffd5b3461017d5760e036600319011261017d576004356001600160401b03811161017d57610313903690600401610c50565b6024356001600160401b03811161017d57610332903690600401610c50565b9060443560ff811680910361017d576064356001600160401b03811161017d57610360903690600401610c50565b6084356001600160401b03811161017d5761037f903690600401610c50565b9360a4356001600160401b03811161017d5761039f903690600401610c50565b9360c4356001600160401b03811161017d576103bf903690600401610c50565b95335f52600160205260ff60405f205416610bd65760048510156102cf576040516103e981610c13565b82815260208101918483526040820190338252606083019161040b8984610daf565b608084019088825260a0850192835260c08501938b855260e08601968d8852335f525f60205260405f2096518051906001600160401b0382116108135781906104548a54610dbb565b601f8111610b86575b50602090601f8311600114610b23575f92610b18575b50508160011b915f199060031b1c19161787555b51805160018801916001600160401b0382116108135781906104a98454610dbb565b601f8111610ac8575b50602090601f8311600114610a65575f92610a5a575b50508160011b915f199060031b1c19161790555b905160028601805492519092916001600160a01b03169060048110156102cf576001600160a81b03199092161760a09190911b60ff60a01b1617905551805160038501916001600160401b03821161081357819061053a8454610dbb565b601f8111610a0a575b50602090601f83116001146109a7575f9261099c575b50508160011b915f199060031b1c19161790555b51805160048401916001600160401b03821161081357819061058f8454610dbb565b601f811161094c575b50602090601f83116001146108e9575f926108de575b50508160011b915f199060031b1c19161790555b51805160058301916001600160401b038211610813576105e28354610dbb565b601f8111610899575b50602090601f8311600114610832576006949392915f9183610827575b50508160011b915f199060031b1c19161790555b0190518051906001600160401b0382116108135761063a8354610dbb565b601f81116107ce575b50602090601f831160011461072d57956106f46106e97f5b736e521ab89222275c4be412aa3e2337e18af4f00903b6326ecbf7d2bd754f9b976106db61070f9860e09d98886107019960209f9961071d9f5f92610722575b50508160011b915f199060031b1c19161790555b335f5260018d5260405f20600160ff198254161790556040519d8e9d8e338152015260e08d0190610cbb565b908b820360408d0152610cbb565b9260608a0190610cdf565b8782036080890152610cbb565b9085820360a0870152610cbb565b9083820360c0850152610cbb565b0390a1005b015190505f8061069b565b90601f19831691845f52815f20925f5b8181106107b657507f5b736e521ab89222275c4be412aa3e2337e18af4f00903b6326ecbf7d2bd754f9b976106db61070f9860e09d9860018960209f9961071d9f996106f4996107019d6106e99a1061079e575b505050811b0190556106af565b01515f1960f88460031b161c191690555f8080610791565b9293602060018192878601518155019501930161073d565b835f5260205f20601f840160051c81019160208510610809575b601f0160051c01905b8181106107fe5750610643565b5f81556001016107f1565b90915081906107e8565b634e487b7160e01b5f52604160045260245ffd5b015190508c80610608565b90601f19831691845f52815f20925f5b818110610881575091600193918560069897969410610869575b505050811b01905561061c565b01515f1960f88460031b161c191690558c808061085c565b92936020600181928786015181550195019301610842565b835f5260205f20601f840160051c810191602085106108d4575b601f0160051c01905b8181106108c957506105eb565b5f81556001016108bc565b90915081906108b3565b015190508c806105ae565b5f8581528281209350601f198516905b818110610934575090846001959493921061091c575b505050811b0190556105c2565b01515f1960f88460031b161c191690558c808061090f565b929360206001819287860151815501950193016108f9565b909150835f5260205f20601f840160051c81019160208510610992575b90601f859493920160051c01905b8181106109845750610598565b5f8155849350600101610977565b9091508190610969565b015190508d80610559565b5f8581528281209350601f198516905b8181106109f257509084600195949392106109da575b505050811b01905561056d565b01515f1960f88460031b161c191690558d80806109cd565b929360206001819287860151815501950193016109b7565b909150835f5260205f20601f840160051c81019160208510610a50575b90601f859493920160051c01905b818110610a425750610543565b5f8155849350600101610a35565b9091508190610a27565b015190505f806104c8565b5f8581528281209350601f198516905b818110610ab05750908460019594939210610a98575b505050811b0190556104dc565b01515f1960f88460031b161c191690555f8080610a8b565b92936020600181928786015181550195019301610a75565b909150835f5260205f20601f840160051c81019160208510610b0e575b90601f859493920160051c01905b818110610b0057506104b2565b5f8155849350600101610af3565b9091508190610ae5565b015190505f80610473565b5f8b81528281209350601f198516905b818110610b6e5750908460019594939210610b56575b505050811b018755610487565b01515f1960f88460031b161c191690555f8080610b49565b92936020600181928786015181550195019301610b33565b909150895f5260205f20601f840160051c81019160208510610bcc575b90601f859493920160051c01905b818110610bbe575061045d565b5f8155849350600101610bb1565b9091508190610ba3565b60405162461bcd60e51b81526020600482015260156024820152742ab9b2b91039bab230b4103a32b93230b33a30b91760591b6044820152606490fd5b61010081019081106001600160401b0382111761081357604052565b90601f801991011681019081106001600160401b0382111761081357604052565b81601f8201121561017d578035906001600160401b0382116108135760405192610c84601f8401601f191660200185610c2f565b8284526020838301011161017d57815f926020809301838601378301015290565b600435906001600160a01b038216820361017d57565b805180835260209291819084018484015e5f828201840152601f01601f1916010190565b9060048210156102cf5752565b90610dac916020815260e0610d96610d81610d6b610d31610d1b87516101006020890152610120880190610cbb565b6020880151878203601f19016040890152610cbb565b60018060a01b036040880151166060870152610d5560608801516080880190610cdf565b6080870151868203601f190160a0880152610cbb565b60a0860151858203601f190160c0870152610cbb565b60c0850151848203601f190184860152610cbb565b92015190610100601f1982850301910152610cbb565b90565b60048210156102cf5752565b90600182811c92168015610de9575b6020831014610dd557565b634e487b7160e01b5f52602260045260245ffd5b91607f1691610dca565b60405190610e0082610c13565b606060e0838281528260208201525f60408201525f838201528260808201528260a08201528260c08201520152565b9060405191825f825492610e4284610dbb565b8084529360018116908115610ead5750600114610e69575b50610e6792500383610c2f565b565b90505f9291925260205f20905f915b818310610e91575050906020610e67928201015f610e5a565b6020919350806001915483858901015201910190918492610e78565b905060209250610e6794915060ff191682840152151560051b8201015f610e5a56fea2646970667358221220b6f4c854dc935002c2d39482fb3708e1a6b1730b8d36dc3cab19eca9e842f37a64736f6c634300081b0033",
  "linkReferences": {},
  "deployedLinkReferences": {}
}