{
  "_format": "hh-sol-artifact-1",
  "contractName": "RoleManager",
  "sourceName": "contracts/RoleManager.sol",
  "abi": [
    {
      "anonymous": false,
      "inputs": [
        {
          "indexed": false,
          "internalType": "address",
          "name": "userAddr",
          "type": "address"
        },
        {
          "indexed": false,
          "internalType": "string",
          "name": "name",
          "type": "string"
        },
        {
          "indexed": false,
          "internalType": "string",
          "name": "instanceName",
          "type": "string"
        },
        {
          "indexed": false,
          "internalType": "enum EnumsLibrary.Roles",
          "name": "role",
          "type": "uint8"
        },
        {
          "indexed": false,
          "internalType": "string",
          "name": "locationInstance",
          "type": "string"
        }
      ],
      "name": "evt_UserRegistered",
      "type": "event"
    },
    {
      "inputs": [
        {
          "internalType": "address",
          "name": "_userAddr",
          "type": "address"
        }
      ],
      "name": "checkRegistration",
      "outputs": [
        {
          "internalType": "bool",
          "name": "",
          "type": "bool"
        }
      ],
      "stateMutability": "view",
      "type": "function"
    },
    {
      "inputs": [
        {
          "internalType": "address",
          "name": "_userAddr",
          "type": "address"
        }
      ],
      "name": "getUserData",
      "outputs": [
        {
          "components": [
            {
              "internalType": "string",
              "name": "name",
              "type": "string"
            },
            {
              "internalType": "string",
              "name": "instanceName",
              "type": "string"
            },
            {
              "internalType": "address",
              "name": "userAddr",
              "type": "address"
            },
            {
              "internalType": "enum EnumsLibrary.Roles",
              "name": "role",
              "type": "uint8"
            },
            {
              "internalType": "string",
              "name": "locationInstance",
              "type": "string"
            },
            {
              "internalType": "string",
              "name": "factoryType",
              "type": "string"
            }
          ],
          "internalType": "struct RoleManager.st_user",
          "name": "",
          "type": "tuple"
        }
      ],
      "stateMutability": "view",
      "type": "function"
    },
    {
      "inputs": [
        {
          "internalType": "address",
          "name": "_userAddr",
          "type": "address"
        },
        {
          "internalType": "enum EnumsLibrary.Roles",
          "name": "_role",
          "type": "uint8"
        }
      ],
      "name": "hasRole",
      "outputs": [
        {
          "internalType": "bool",
          "name": "",
          "type": "bool"
        }
      ],
      "stateMutability": "view",
      "type": "function"
    },
    {
      "inputs": [],
      "name": "loginUser",
      "outputs": [
        {
          "components": [
            {
              "internalType": "string",
              "name": "name",
              "type": "string"
            },
            {
              "internalType": "string",
              "name": "instanceName",
              "type": "string"
            },
            {
              "internalType": "address",
              "name": "userAddr",
              "type": "address"
            },
            {
              "internalType": "enum EnumsLibrary.Roles",
              "name": "role",
              "type": "uint8"
            },
            {
              "internalType": "string",
              "name": "locationInstance",
              "type": "string"
            },
            {
              "internalType": "string",
              "name": "factoryType",
              "type": "string"
            }
          ],
          "internalType": "struct RoleManager.st_user",
          "name": "",
          "type": "tuple"
        }
      ],
      "stateMutability": "view",
      "type": "function"
    },
    {
      "inputs": [
        {
          "internalType": "string",
          "name": "_name",
          "type": "string"
        },
        {
          "internalType": "string",
          "name": "_instanceName",
          "type": "string"
        },
        {
          "internalType": "uint8",
          "name": "_role",
          "type": "uint8"
        },
        {
          "internalType": "string",
          "name": "_locationInstance",
          "type": "string"
        },
        {
          "internalType": "string",
          "name": "_factoryType",
          "type": "string"
        }
      ],
      "name": "registerUser",
      "outputs": [],
      "stateMutability": "nonpayable",
      "type": "function"
    }
  ],
  "bytecode": "0x60808060405234601557610c8e908161001b8239f35b600080fdfe608080604052600436101561001357600080fd5b60003560e01c90816395a8c58d1461093657508063a19ed686146108a4578063ccbfe6a2146101ab578063e2a412831461016c5763ffc9896b1461005657600080fd5b346101675760203660031901126101675761006f6109b6565b610077610b3c565b506001600160a01b031660008181526001602052604090205460ff161561012957600052600060205261012560406000206101146004604051926100ba84610aa7565b6100c381610ba8565b84526100d160018201610ba8565b602085015260028101546001600160a01b03811660408601526100fd9060a01c60ff1660608601610c4c565b61010960038201610ba8565b608085015201610ba8565b60a082015260405191829182610a1a565b0390f35b60405162461bcd60e51b8152602060048201526016602482015275155cd95c881a5cc81b9bdd081c9959da5cdd195c995960521b6044820152606490fd5b600080fd5b34610167576020366003190112610167576001600160a01b0361018d6109b6565b166000526001602052602060ff604060002054166040519015158152f35b346101675760a03660031901126101675760043567ffffffffffffffff8111610167576101dc903690600401610ae5565b60243567ffffffffffffffff8111610167576101fc903690600401610ae5565b9060443560ff81168091036101675760643567ffffffffffffffff81116101675761022b903690600401610ae5565b60843567ffffffffffffffff81116101675761024b903690600401610ae5565b9333600052600160205260ff6040600020541661085f5760048310156106ad576040519461027886610aa7565b84865260208601958287526040810196338852606082019761029a878a610c4c565b608083019186835260a084019485523360005260006020526040600020935180519067ffffffffffffffff82116107865781906102d78754610b6e565b601f811161080c575b50602090601f83116001146107a75760009261079c575b50508160011b916000199060031b1c19161784555b518051600185019167ffffffffffffffff821161078657819061032f8454610b6e565b601f8111610733575b50602090601f83116001146106ce576000926106c3575b50508160011b916000199060031b1c19161790555b5160028301805499519990916001600160a01b031660048b10156106ad5760009a60ff60a01b9060a01b16916affffffffffffffffffffff60a81b161717905560038201905180519067ffffffffffffffff8211610699576103c68354610b6e565b601f8111610654575b50602090601f83116001146105ed576004949392918b91836105e2575b50508160011b916000199060031b1c19161790555b01905180519067ffffffffffffffff82116105ce576104208354610b6e565b601f8111610589575b5060209088601f84116001146104f357946104bc9794847fc4209b66ea76b34d427f769a0e648dec4950ef2466411362ef0802c6f1498ad89a98956104d5956104ca956104e29a926104e8575b50508160011b916000199060031b1c19161790555b338a52600160205260408a20600160ff1982541617905560405197889733895260a060208a015260a08901906109cc565b9087820360408901526109cc565b926060860190610a0d565b83820360808501526109cc565b0390a180f35b015190508d80610476565b508389528189209190601f1984168a5b8181106105715750946001856104d5956104ca956104e29a957fc4209b66ea76b34d427f769a0e648dec4950ef2466411362ef0802c6f1498ad89e9c996104bc9e9b10610558575b505050811b01905561048b565b015160001960f88460031b161c191690558d808061054b565b92936020600181928786015181550195019301610503565b83895260208920601f840160051c810191602085106105c4575b601f0160051c01905b8181106105b95750610429565b8981556001016105ac565b90915081906105a3565b634e487b7160e01b88526041600452602488fd5b015190508b806103ec565b838b52818b209190601f1984168c5b81811061063c575091600193918560049897969410610623575b505050811b019055610401565b015160001960f88460031b161c191690558b8080610616565b929360206001819287860151815501950193016105fc565b838b5260208b20601f840160051c8101916020851061068f575b601f0160051c01905b81811061068457506103cf565b8b8155600101610677565b909150819061066e565b634e487b7160e01b8a52604160045260248afd5b634e487b7160e01b600052602160045260246000fd5b015190508c8061034f565b60008581528281209350601f198516905b81811061071b5750908460019594939210610702575b505050811b019055610364565b015160001960f88460031b161c191690558c80806106f5565b929360206001819287860151815501950193016106df565b909150836000526020600020601f840160051c8101916020851061077c575b90601f859493920160051c01905b81811061076d5750610338565b60008155849350600101610760565b9091508190610752565b634e487b7160e01b600052604160045260246000fd5b015190508c806102f7565b60008881528281209350601f198516905b8181106107f457509084600195949392106107db575b505050811b01845561030c565b015160001960f88460031b161c191690558c80806107ce565b929360206001819287860151815501950193016107b8565b909150866000526020600020601f840160051c81019160208510610855575b90601f859493920160051c01905b81811061084657506102e0565b60008155849350600101610839565b909150819061082b565b60405162461bcd60e51b815260206004820152601760248201527f5573657220616c726561647920726567697374657265640000000000000000006044820152606490fd5b34610167576000366003190112610167576108bd610b3c565b5033600052600160205260ff60406000205416156108f85733600052600060205261012560406000206101146004604051926100ba84610aa7565b60405162461bcd60e51b81526020600482015260166024820152750aae6cae440c2c8c8e4cae6e640dad2e6e6dac2e8c6d60531b6044820152606490fd5b346101675760403660031901126101675761094f6109b6565b90602435916004831015610167576001600160a01b031660008181526001602052604090205460ff169081610989575b6020838315158152f35b9050600052600060205260ff60026040600020015460a01c169160048310156106ad57602092148361097f565b600435906001600160a01b038216820361016757565b919082519283825260005b8481106109f8575050826000602080949584010152601f8019910116010190565b806020809284010151828286010152016109d7565b9060048210156106ad5752565b90610aa4916020815260a0610a8f610a57610a41855160c0602087015260e08601906109cc565b6020860151858203601f190160408701526109cc565b600180841b036040860151166060850152610a7a60608601516080860190610a0d565b6080850151848203601f1901848601526109cc565b9201519060c0601f19828503019101526109cc565b90565b60c0810190811067ffffffffffffffff82111761078657604052565b90601f8019910116810190811067ffffffffffffffff82111761078657604052565b81601f820112156101675780359067ffffffffffffffff82116107865760405192610b1a601f8401601f191660200185610ac3565b8284526020838301011161016757816000926020809301838601378301015290565b60405190610b4982610aa7565b606060a083828152826020820152600060408201526000838201528260808201520152565b90600182811c92168015610b9e575b6020831014610b8857565b634e487b7160e01b600052602260045260246000fd5b91607f1691610b7d565b9060405191826000825492610bbc84610b6e565b8084529360018116908115610c2a5750600114610be3575b50610be192500383610ac3565b565b90506000929192526020600020906000915b818310610c0e575050906020610be19282010138610bd4565b6020919350806001915483858901015201910190918492610bf5565b905060209250610be194915060ff191682840152151560051b82010138610bd4565b60048210156106ad575256fea2646970667358221220b9404d52c52d91a6298817a466e26d9e010792f4cc4fd4f6c53bf32590faee1864736f6c634300081b0033",
  "linkReferences": {},
  "deployedLinkReferences": {}
}