{
  "_format": "hh-sol-artifact-1",
  "contractName": "RoleManager",
  "sourceName": "contracts/RoleManager.sol",
  "abi": [
    {
      "anonymous": false,
      "inputs": [
        {
          "indexed": true,
          "internalType": "address",
          "name": "user",
          "type": "address"
        },
        {
          "indexed": false,
          "internalType": "enum RoleManager.en_roles",
          "name": "role",
          "type": "uint8"
        }
      ],
      "name": "RoleAssigned",
      "type": "event"
    },
    {
      "inputs": [
        {
          "internalType": "address",
          "name": "user",
          "type": "address"
        },
        {
          "internalType": "enum RoleManager.en_roles",
          "name": "role",
          "type": "uint8"
        }
      ],
      "name": "assignRole",
      "outputs": [],
      "stateMutability": "nonpayable",
      "type": "function"
    },
    {
      "inputs": [
        {
          "internalType": "address",
          "name": "user",
          "type": "address"
        }
      ],
      "name": "checkRegistration",
      "outputs": [
        {
          "internalType": "bool",
          "name": "",
          "type": "bool"
        }
      ],
      "stateMutability": "view",
      "type": "function"
    },
    {
      "inputs": [
        {
          "internalType": "address",
          "name": "user",
          "type": "address"
        }
      ],
      "name": "getRole",
      "outputs": [
        {
          "internalType": "enum RoleManager.en_roles",
          "name": "",
          "type": "uint8"
        }
      ],
      "stateMutability": "view",
      "type": "function"
    },
    {
      "inputs": [
        {
          "internalType": "address",
          "name": "user",
          "type": "address"
        },
        {
          "internalType": "enum RoleManager.en_roles",
          "name": "role",
          "type": "uint8"
        }
      ],
      "name": "hasRole",
      "outputs": [
        {
          "internalType": "bool",
          "name": "",
          "type": "bool"
        }
      ],
      "stateMutability": "view",
      "type": "function"
    }
  ],
  "bytecode": "0x608080604052346015576102c8908161001b8239f35b600080fdfe608080604052600436101561001357600080fd5b60003560e01c90816344276733146101a057508063630a195b1461011457806395a8c58d1461008f5763e2a412831461004b57600080fd5b3461008a57602036600319011261008a576001600160a01b0361006c61023a565b166000526001602052602060ff604060002054166040519015158152f35b600080fd5b3461008a5761009d36610263565b6001600160a01b0390911660008181526001602052604090205460ff1690816100ce575b6020826040519015158152f35b9050600052600060205260ff604060002054169060048110156100fe5760048210156100fe5760209114826100c1565b634e487b7160e01b600052602160045260246000fd5b3461008a5761012236610263565b9060018060a01b031690816000526000602052604060002060048210156100fe577f4ac36fa53f167ceb85964be512e01de2a3b8bdb9862f917da079deeeff689b389161019b9160ff1981541660ff83161790558360005260016020526040600020600160ff1982541617905560405191829182610250565b0390a2005b3461008a57602036600319011261008a576001600160a01b036101c161023a565b169081600052600160205260ff60406000205416156101ff575060005260006020526101fb60ff6040600020541660405191829182610250565b0390f35b62461bcd60e51b8152602060048201526016602482015275155cd95c881a5cc81b9bdd081c9959da5cdd195c995960521b6044820152606490fd5b600435906001600160a01b038216820361008a57565b9190602083019260048210156100fe5752565b604090600319011261008a576004356001600160a01b038116810361008a5790602435600481101561008a579056fea2646970667358221220eb442cbf0b5482eb82e38b38196e98e6cca97d137c5de69ccf86286e01f1ffaa64736f6c634300081b0033",
  "linkReferences": {},
  "deployedLinkReferences": {}
}