{
  "_format": "hh-sol-artifact-1",
  "contractName": "RoleManager",
  "sourceName": "contracts/RoleManager.sol",
  "abi": [
    {
      "anonymous": false,
      "inputs": [
        {
          "indexed": true,
          "internalType": "address",
          "name": "user",
          "type": "address"
        },
        {
          "indexed": false,
          "internalType": "enum EnumsLibrary.Roles",
          "name": "role",
          "type": "uint8"
        }
      ],
      "name": "RoleAssigned",
      "type": "event"
    },
    {
      "anonymous": false,
      "inputs": [
        {
          "indexed": true,
          "internalType": "address",
          "name": "userAddr",
          "type": "address"
        },
        {
          "indexed": false,
          "internalType": "string",
          "name": "name",
          "type": "string"
        },
        {
          "indexed": false,
          "internalType": "string",
          "name": "instanceName",
          "type": "string"
        },
        {
          "indexed": false,
          "internalType": "enum EnumsLibrary.Roles",
          "name": "role",
          "type": "uint8"
        }
      ],
      "name": "UserRegistered",
      "type": "event"
    },
    {
      "inputs": [
        {
          "internalType": "address",
          "name": "_userAddr",
          "type": "address"
        }
      ],
      "name": "checkRegistration",
      "outputs": [
        {
          "internalType": "bool",
          "name": "",
          "type": "bool"
        }
      ],
      "stateMutability": "view",
      "type": "function"
    },
    {
      "inputs": [
        {
          "internalType": "address",
          "name": "_userAddr",
          "type": "address"
        }
      ],
      "name": "getRegisteredUser",
      "outputs": [
        {
          "internalType": "string",
          "name": "",
          "type": "string"
        },
        {
          "internalType": "string",
          "name": "",
          "type": "string"
        },
        {
          "internalType": "address",
          "name": "",
          "type": "address"
        },
        {
          "internalType": "enum EnumsLibrary.Roles",
          "name": "",
          "type": "uint8"
        }
      ],
      "stateMutability": "view",
      "type": "function"
    },
    {
      "inputs": [
        {
          "internalType": "address",
          "name": "_userAddr",
          "type": "address"
        },
        {
          "internalType": "enum EnumsLibrary.Roles",
          "name": "_role",
          "type": "uint8"
        }
      ],
      "name": "hasRole",
      "outputs": [
        {
          "internalType": "bool",
          "name": "",
          "type": "bool"
        }
      ],
      "stateMutability": "view",
      "type": "function"
    },
    {
      "inputs": [
        {
          "internalType": "string",
          "name": "_name",
          "type": "string"
        },
        {
          "internalType": "string",
          "name": "_instanceName",
          "type": "string"
        },
        {
          "internalType": "address",
          "name": "_userAddr",
          "type": "address"
        },
        {
          "internalType": "enum EnumsLibrary.Roles",
          "name": "_role",
          "type": "uint8"
        }
      ],
      "name": "registerUser",
      "outputs": [],
      "stateMutability": "nonpayable",
      "type": "function"
    }
  ],
  "bytecode": "0x608080604052346015576108b4908161001b8239f35b600080fdfe608080604052600436101561001357600080fd5b60003560e01c90816395a8c58d1461061b57508063d1233672146101de578063e2a412831461019f5763e54a29bb1461004b57600080fd5b3461019a57602036600319011261019a576001600160a01b0361006c61069b565b1680600052600160205260ff604060002054161561015c57600052600060205260406000206040519061009e826106b1565b6100a7816107da565b825260026100b7600183016107da565b602084019081529101546001600160a01b038116604084019081529260608101916100e89060a01c60ff1683610794565b51915192519051926001600160a01b03909116906004841015610146576101249361013261014292604051968796608088526080880190610746565b908682036020880152610746565b9260408501526060840190610787565b0390f35b634e487b7160e01b600052602160045260246000fd5b60405162461bcd60e51b8152602060048201526016602482015275155cd95c881a5cc81b9bdd081c9959da5cdd195c995960521b6044820152606490fd5b600080fd5b3461019a57602036600319011261019a576001600160a01b036101c061069b565b166000526001602052602060ff604060002054166040519015158152f35b3461019a57608036600319011261019a5760043567ffffffffffffffff811161019a5761020f9036906004016106ef565b60243567ffffffffffffffff811161019a5761022f9036906004016106ef565b906044356001600160a01b038116919082900361019a57606435600481101561019a5782600052600160205260ff604060002054166105d65760405190610275826106b1565b8282526020820194808652604083019285845260608101966102978489610794565b8660005260006020526040600020915180519067ffffffffffffffff82116104fd5781906102c585546107a0565b601f8111610583575b50602090601f831160011461051e57600092610513575b50508160011b916000199060031b1c19161782555b518051600183019167ffffffffffffffff82116104fd5761031b83546107a0565b601f81116104b5575b50602090601f831160011461044a576002949392916000918361043f575b50508160011b916000199060031b1c19161790555b9351930180549651966001600160a01b03909416936004881015610146577f4ac36fa53f167ceb85964be512e01de2a3b8bdb9862f917da079deeeff689b389561041e88947fb55f2195f4d9bf657054eaed9581ba0a67e1eec660941cf665585e5352fcbea0946104119460209960009d60ff60a01b9060a01b16916affffffffffffffffffffff60a81b1617179055858b526001885260408b20600160ff19825416179055604051938493606085526060850190610746565b9083820389850152610746565b61042b6040830187610787565b0390a261043b6040518092610787565ba280f35b015190508b80610342565b90601f1983169184600052816000209260005b81811061049d575091600193918560029897969410610484575b505050811b019055610357565b015160001960f88460031b161c191690558b8080610477565b9293602060018192878601518155019501930161045d565b836000526020600020601f840160051c810191602085106104f3575b601f0160051c01905b8181106104e75750610324565b600081556001016104da565b90915081906104d1565b634e487b7160e01b600052604160045260246000fd5b015190508a806102e5565b60008681528281209350601f198516905b81811061056b5750908460019594939210610552575b505050811b0182556102fa565b015160001960f88460031b161c191690558a8080610545565b9293602060018192878601518155019501930161052f565b909150846000526020600020601f840160051c810191602085106105cc575b90601f859493920160051c01905b8181106105bd57506102ce565b600081558493506001016105b0565b90915081906105a2565b60405162461bcd60e51b815260206004820152601760248201527f5573657220616c726561647920726567697374657265640000000000000000006044820152606490fd5b3461019a57604036600319011261019a5761063461069b565b9060243591600483101561019a576001600160a01b031660008181526001602052604090205460ff16908161066e575b6020838315158152f35b9050600052600060205260ff60026040600020015460a01c16916004831015610146576020921483610664565b600435906001600160a01b038216820361019a57565b6080810190811067ffffffffffffffff8211176104fd57604052565b90601f8019910116810190811067ffffffffffffffff8211176104fd57604052565b81601f8201121561019a5780359067ffffffffffffffff82116104fd5760405192610724601f8401601f1916602001856106cd565b8284526020838301011161019a57816000926020809301838601378301015290565b919082519283825260005b848110610772575050826000602080949584010152601f8019910116010190565b80602080928401015182828601015201610751565b9060048210156101465752565b60048210156101465752565b90600182811c921680156107d0575b60208310146107ba57565b634e487b7160e01b600052602260045260246000fd5b91607f16916107af565b90604051918260008254926107ee846107a0565b808452936001811690811561085c5750600114610815575b50610813925003836106cd565b565b90506000929192526020600020906000915b8183106108405750509060206108139282010138610806565b6020919350806001915483858901015201910190918492610827565b90506020925061081394915060ff191682840152151560051b8201013861080656fea2646970667358221220e34b206106ad261275eff2daecfda0bd10701656e782241ec97bac8ae5b7887864736f6c634300081b0033",
  "linkReferences": {},
  "deployedLinkReferences": {}
}