{
  "_format": "hh-sol-artifact-1",
  "contractName": "RoleManager",
  "sourceName": "contracts/RoleManager.sol",
  "abi": [
    {
      "anonymous": false,
      "inputs": [
        {
          "indexed": false,
          "internalType": "address",
          "name": "userAddr",
          "type": "address"
        },
        {
          "indexed": false,
          "internalType": "string",
          "name": "name",
          "type": "string"
        },
        {
          "indexed": false,
          "internalType": "string",
          "name": "instanceName",
          "type": "string"
        },
        {
          "indexed": false,
          "internalType": "enum EnumsLibrary.Roles",
          "name": "role",
          "type": "uint8"
        },
        {
          "indexed": false,
          "internalType": "string",
          "name": "locationInstance",
          "type": "string"
        }
      ],
      "name": "evt_UserRegistered",
      "type": "event"
    },
    {
      "inputs": [
        {
          "internalType": "address",
          "name": "_userAddr",
          "type": "address"
        }
      ],
      "name": "checkRegistration",
      "outputs": [
        {
          "internalType": "bool",
          "name": "",
          "type": "bool"
        }
      ],
      "stateMutability": "view",
      "type": "function"
    },
    {
      "inputs": [
        {
          "internalType": "address",
          "name": "_userAddr",
          "type": "address"
        }
      ],
      "name": "getUserData",
      "outputs": [
        {
          "components": [
            {
              "internalType": "string",
              "name": "name",
              "type": "string"
            },
            {
              "internalType": "string",
              "name": "instanceName",
              "type": "string"
            },
            {
              "internalType": "address",
              "name": "userAddr",
              "type": "address"
            },
            {
              "internalType": "enum EnumsLibrary.Roles",
              "name": "role",
              "type": "uint8"
            },
            {
              "internalType": "string",
              "name": "locationInstance",
              "type": "string"
            }
          ],
          "internalType": "struct RoleManager.st_user",
          "name": "",
          "type": "tuple"
        }
      ],
      "stateMutability": "view",
      "type": "function"
    },
    {
      "inputs": [
        {
          "internalType": "address",
          "name": "_userAddr",
          "type": "address"
        },
        {
          "internalType": "enum EnumsLibrary.Roles",
          "name": "_role",
          "type": "uint8"
        }
      ],
      "name": "hasRole",
      "outputs": [
        {
          "internalType": "bool",
          "name": "",
          "type": "bool"
        }
      ],
      "stateMutability": "view",
      "type": "function"
    },
    {
      "inputs": [],
      "name": "loginUser",
      "outputs": [
        {
          "components": [
            {
              "internalType": "string",
              "name": "name",
              "type": "string"
            },
            {
              "internalType": "string",
              "name": "instanceName",
              "type": "string"
            },
            {
              "internalType": "address",
              "name": "userAddr",
              "type": "address"
            },
            {
              "internalType": "enum EnumsLibrary.Roles",
              "name": "role",
              "type": "uint8"
            },
            {
              "internalType": "string",
              "name": "locationInstance",
              "type": "string"
            }
          ],
          "internalType": "struct RoleManager.st_user",
          "name": "",
          "type": "tuple"
        }
      ],
      "stateMutability": "view",
      "type": "function"
    },
    {
      "inputs": [
        {
          "internalType": "string",
          "name": "_name",
          "type": "string"
        },
        {
          "internalType": "string",
          "name": "_instanceName",
          "type": "string"
        },
        {
          "internalType": "uint8",
          "name": "_role",
          "type": "uint8"
        },
        {
          "internalType": "string",
          "name": "_locationInstance",
          "type": "string"
        }
      ],
      "name": "registerUser",
      "outputs": [],
      "stateMutability": "nonpayable",
      "type": "function"
    }
  ],
  "bytecode": "0x60808060405234601557610b12908161001b8239f35b600080fdfe6080604052600436101561001257600080fd5b60003560e01c806363d915f0146102c157806395a8c58d14610229578063a19ed68614610197578063e2a41283146101585763ffc9896b1461005357600080fd5b346101535760203660031901126101535761006c6108ed565b610074610a0c565b506001600160a01b031660008181526001602052604090205460ff161561011557600052600060205261011160406000206101006003604051926100b784610858565b6100c081610a38565b84526100ce60018201610a38565b602085015260028101546001600160a01b03811660408601526100fa9060a01c60ff16606086016109c6565b01610a38565b608082015260405191829182610951565b0390f35b60405162461bcd60e51b8152602060048201526016602482015275155cd95c881a5cc81b9bdd081c9959da5cdd195c995960521b6044820152606490fd5b600080fd5b34610153576020366003190112610153576001600160a01b036101796108ed565b166000526001602052602060ff604060002054166040519015158152f35b34610153576000366003190112610153576101b0610a0c565b5033600052600160205260ff60406000205416156101eb5733600052600060205261011160406000206101006003604051926100b784610858565b60405162461bcd60e51b81526020600482015260166024820152750aae6cae440c2c8c8e4cae6e640dad2e6e6dac2e8c6d60531b6044820152606490fd5b34610153576040366003190112610153576102426108ed565b602435906004821015610153576001600160a01b031660008181526001602052604090205460ff16908161027e575b6020826040519015158152f35b9050600052600060205260ff60026040600020015460a01c169060048210156102ab576020911482610271565b634e487b7160e01b600052602160045260246000fd5b346101535760803660031901126101535760043567ffffffffffffffff8111610153576102f2903690600401610896565b60243567ffffffffffffffff811161015357610312903690600401610896565b9060443560ff81168091036101535760643567ffffffffffffffff811161015357610341903690600401610896565b33600052600160205260ff604060002054166108135760048210156102ab576040519361036d85610858565b8385526020850181815260408601338152606087019661038d86896109c6565b60808101928584523360005260006020526040600020915180519067ffffffffffffffff821161073a5781906103c385546109d2565b601f81116107c0575b50602090601f831160011461075b57600092610750575b50508160011b916000199060031b1c19161782555b518051600183019167ffffffffffffffff821161073a57819061041b84546109d2565b601f81116106e7575b50602090601f831160011461068257600092610677575b50508160011b916000199060031b1c19161790555b90516002820180549851986001600160a01b03909216929160048a10156102ab5760039360009a60ff60a01b9060a01b16916affffffffffffffffffffff60a81b161717905501905180519067ffffffffffffffff8211610663576104b583546109d2565b601f811161061e575b5060209088601f841160011461058857946105519794847fc4209b66ea76b34d427f769a0e648dec4950ef2466411362ef0802c6f1498ad89a989561056a9561055f956105779a9261057d575b50508160011b916000199060031b1c19161790555b338a52600160205260408a20600160ff1982541617905560405197889733895260a060208a015260a0890190610903565b908782036040890152610903565b926060860190610944565b8382036080850152610903565b0390a180f35b015190508d8061050b565b508389528189209190601f1984168a5b81811061060657509460018561056a9561055f956105779a957fc4209b66ea76b34d427f769a0e648dec4950ef2466411362ef0802c6f1498ad89e9c996105519e9b106105ed575b505050811b019055610520565b015160001960f88460031b161c191690558d80806105e0565b92936020600181928786015181550195019301610598565b83895260208920601f840160051c81019160208510610659575b601f0160051c01905b81811061064e57506104be565b898155600101610641565b9091508190610638565b634e487b7160e01b88526041600452602488fd5b015190508b8061043b565b60008581528281209350601f198516905b8181106106cf57509084600195949392106106b6575b505050811b019055610450565b015160001960f88460031b161c191690558b80806106a9565b92936020600181928786015181550195019301610693565b909150836000526020600020601f840160051c81019160208510610730575b90601f859493920160051c01905b8181106107215750610424565b60008155849350600101610714565b9091508190610706565b634e487b7160e01b600052604160045260246000fd5b015190508b806103e3565b60008681528281209350601f198516905b8181106107a8575090846001959493921061078f575b505050811b0182556103f8565b015160001960f88460031b161c191690558b8080610782565b9293602060018192878601518155019501930161076c565b909150846000526020600020601f840160051c81019160208510610809575b90601f859493920160051c01905b8181106107fa57506103cc565b600081558493506001016107ed565b90915081906107df565b60405162461bcd60e51b815260206004820152601760248201527f5573657220616c726561647920726567697374657265640000000000000000006044820152606490fd5b60a0810190811067ffffffffffffffff82111761073a57604052565b90601f8019910116810190811067ffffffffffffffff82111761073a57604052565b81601f820112156101535780359067ffffffffffffffff821161073a57604051926108cb601f8401601f191660200185610874565b8284526020838301011161015357816000926020809301838601378301015290565b600435906001600160a01b038216820361015357565b919082519283825260005b84811061092f575050826000602080949584010152601f8019910116010190565b8060208092840101518282860101520161090e565b9060048210156102ab5752565b906109c39160208152608061098b610975845160a0602086015260c0850190610903565b6020850151848203601f19016040860152610903565b9260018060a01b0360408201511660608401526109af606082015183850190610944565b01519060a0601f1982850301910152610903565b90565b60048210156102ab5752565b90600182811c92168015610a02575b60208310146109ec57565b634e487b7160e01b600052602260045260246000fd5b91607f16916109e1565b60405190610a1982610858565b6060608083828152826020820152600060408201526000838201520152565b9060405191826000825492610a4c846109d2565b8084529360018116908115610aba5750600114610a73575b50610a7192500383610874565b565b90506000929192526020600020906000915b818310610a9e575050906020610a719282010138610a64565b6020919350806001915483858901015201910190918492610a85565b905060209250610a7194915060ff191682840152151560051b82010138610a6456fea264697066735822122066aa7aaf81201a75bc671637ba10183f6a85f8b38e92a9537e6f7f862fbc6d9964736f6c634300081b0033",
  "linkReferences": {},
  "deployedLinkReferences": {}
}