{
  "_format": "hh-sol-artifact-1",
  "contractName": "OrderManagementPbf",
  "sourceName": "contracts/OrderManagementPbf.sol",
  "abi": [
    {
      "inputs": [
        {
          "internalType": "address",
          "name": "_obatTradisionalAddr",
          "type": "address"
        },
        {
          "internalType": "address",
          "name": "_roleManagerAddr",
          "type": "address"
        },
        {
          "internalType": "address",
          "name": "_obatSharedAddr",
          "type": "address"
        },
        {
          "internalType": "address",
          "name": "_cdobCertificateAddr",
          "type": "address"
        }
      ],
      "stateMutability": "nonpayable",
      "type": "constructor"
    },
    {
      "anonymous": false,
      "inputs": [
        {
          "indexed": false,
          "internalType": "string",
          "name": "batchName",
          "type": "string"
        },
        {
          "indexed": false,
          "internalType": "string",
          "name": "namaProduk",
          "type": "string"
        },
        {
          "indexed": false,
          "internalType": "string",
          "name": "buyerInstanceName",
          "type": "string"
        },
        {
          "indexed": false,
          "internalType": "string",
          "name": "sellerInstanceName",
          "type": "string"
        },
        {
          "indexed": false,
          "internalType": "uint8",
          "name": "orderQuantity",
          "type": "uint8"
        },
        {
          "indexed": false,
          "internalType": "uint256",
          "name": "timestamp",
          "type": "uint256"
        }
      ],
      "name": "evt_orderUpdate",
      "type": "event"
    },
    {
      "inputs": [
        {
          "internalType": "string",
          "name": "_orderId",
          "type": "string"
        },
        {
          "internalType": "string[]",
          "name": "_orderObatIpfs",
          "type": "string[]"
        }
      ],
      "name": "acceptOrderPbf",
      "outputs": [],
      "stateMutability": "nonpayable",
      "type": "function"
    },
    {
      "inputs": [],
      "name": "cdobCertificate",
      "outputs": [
        {
          "internalType": "contract CdobCertificate",
          "name": "",
          "type": "address"
        }
      ],
      "stateMutability": "view",
      "type": "function"
    },
    {
      "inputs": [
        {
          "internalType": "string",
          "name": "_orderId",
          "type": "string"
        },
        {
          "internalType": "string[]",
          "name": "_orderObatIpfs",
          "type": "string[]"
        }
      ],
      "name": "completeOrderPbf",
      "outputs": [],
      "stateMutability": "nonpayable",
      "type": "function"
    },
    {
      "inputs": [
        {
          "internalType": "string",
          "name": "_orderId",
          "type": "string"
        },
        {
          "internalType": "string",
          "name": "_obatId",
          "type": "string"
        },
        {
          "internalType": "string",
          "name": "_batchName",
          "type": "string"
        },
        {
          "internalType": "string",
          "name": "_namaProduk",
          "type": "string"
        },
        {
          "internalType": "string",
          "name": "_buyerInstance",
          "type": "string"
        },
        {
          "internalType": "string",
          "name": "_sellerInstance",
          "type": "string"
        },
        {
          "internalType": "uint8",
          "name": "_orderQuantity",
          "type": "uint8"
        },
        {
          "internalType": "string",
          "name": "_cdobHash",
          "type": "string"
        }
      ],
      "name": "createOrderPbf",
      "outputs": [],
      "stateMutability": "nonpayable",
      "type": "function"
    },
    {
      "inputs": [
        {
          "internalType": "string",
          "name": "_orderId",
          "type": "string"
        }
      ],
      "name": "detailOrder",
      "outputs": [
        {
          "components": [
            {
              "internalType": "string",
              "name": "orderId",
              "type": "string"
            },
            {
              "internalType": "string",
              "name": "obatId",
              "type": "string"
            },
            {
              "internalType": "string",
              "name": "namaProduk",
              "type": "string"
            },
            {
              "internalType": "string",
              "name": "batchName",
              "type": "string"
            },
            {
              "internalType": "uint8",
              "name": "orderQuantity",
              "type": "uint8"
            },
            {
              "components": [
                {
                  "internalType": "string",
                  "name": "instanceName",
                  "type": "string"
                },
                {
                  "internalType": "address",
                  "name": "instanceAddr",
                  "type": "address"
                }
              ],
              "internalType": "struct BaseOrderManagement.st_orderUser",
              "name": "buyerUser",
              "type": "tuple"
            },
            {
              "components": [
                {
                  "internalType": "string",
                  "name": "instanceName",
                  "type": "string"
                },
                {
                  "internalType": "address",
                  "name": "instanceAddr",
                  "type": "address"
                }
              ],
              "internalType": "struct BaseOrderManagement.st_orderUser",
              "name": "sellerUser",
              "type": "tuple"
            },
            {
              "internalType": "enum EnumsLibrary.OrderStatus",
              "name": "statusOrder",
              "type": "uint8"
            },
            {
              "internalType": "string",
              "name": "prevOrderIdPbf",
              "type": "string"
            }
          ],
          "internalType": "struct BaseOrderManagement.st_obatOrder",
          "name": "",
          "type": "tuple"
        }
      ],
      "stateMutability": "view",
      "type": "function"
    },
    {
      "inputs": [
        {
          "internalType": "string",
          "name": "_orderId",
          "type": "string"
        }
      ],
      "name": "detailTimestamp",
      "outputs": [
        {
          "components": [
            {
              "internalType": "uint256",
              "name": "timestampOrder",
              "type": "uint256"
            },
            {
              "internalType": "uint256",
              "name": "timestampShipped",
              "type": "uint256"
            },
            {
              "internalType": "uint256",
              "name": "timestampComplete",
              "type": "uint256"
            }
          ],
          "internalType": "struct BaseOrderManagement.st_orderTimestamp",
          "name": "",
          "type": "tuple"
        }
      ],
      "stateMutability": "view",
      "type": "function"
    },
    {
      "inputs": [
        {
          "internalType": "string",
          "name": "_instanceName",
          "type": "string"
        }
      ],
      "name": "getAllObatPbfByInstance",
      "outputs": [
        {
          "components": [
            {
              "internalType": "string",
              "name": "orderId",
              "type": "string"
            },
            {
              "internalType": "string",
              "name": "obatId",
              "type": "string"
            },
            {
              "internalType": "string",
              "name": "namaProduk",
              "type": "string"
            },
            {
              "internalType": "string",
              "name": "batchName",
              "type": "string"
            },
            {
              "internalType": "uint8",
              "name": "obatQuantity",
              "type": "uint8"
            },
            {
              "internalType": "enum EnumsLibrary.ObatAvailability",
              "name": "statusStok",
              "type": "uint8"
            },
            {
              "internalType": "string",
              "name": "ownerInstance",
              "type": "string"
            }
          ],
          "internalType": "struct ObatShared.st_obatOutputStock[]",
          "name": "",
          "type": "tuple[]"
        }
      ],
      "stateMutability": "view",
      "type": "function"
    },
    {
      "inputs": [],
      "name": "getAllObatPbfReadyStock",
      "outputs": [
        {
          "components": [
            {
              "internalType": "string",
              "name": "orderId",
              "type": "string"
            },
            {
              "internalType": "string",
              "name": "obatId",
              "type": "string"
            },
            {
              "internalType": "string",
              "name": "namaProduk",
              "type": "string"
            },
            {
              "internalType": "string",
              "name": "batchName",
              "type": "string"
            },
            {
              "internalType": "uint8",
              "name": "obatQuantity",
              "type": "uint8"
            },
            {
              "internalType": "enum EnumsLibrary.ObatAvailability",
              "name": "statusStok",
              "type": "uint8"
            },
            {
              "internalType": "string",
              "name": "ownerInstance",
              "type": "string"
            }
          ],
          "internalType": "struct ObatShared.st_obatOutputStock[]",
          "name": "",
          "type": "tuple[]"
        }
      ],
      "stateMutability": "view",
      "type": "function"
    },
    {
      "inputs": [
        {
          "internalType": "string",
          "name": "_buyerInstance",
          "type": "string"
        }
      ],
      "name": "getAllOrderFromPbftoPabrik",
      "outputs": [
        {
          "components": [
            {
              "internalType": "string",
              "name": "orderId",
              "type": "string"
            },
            {
              "internalType": "string",
              "name": "obatId",
              "type": "string"
            },
            {
              "internalType": "string",
              "name": "namaProduk",
              "type": "string"
            },
            {
              "internalType": "string",
              "name": "batchName",
              "type": "string"
            },
            {
              "internalType": "uint8",
              "name": "orderQuantity",
              "type": "uint8"
            },
            {
              "components": [
                {
                  "internalType": "string",
                  "name": "instanceName",
                  "type": "string"
                },
                {
                  "internalType": "address",
                  "name": "instanceAddr",
                  "type": "address"
                }
              ],
              "internalType": "struct BaseOrderManagement.st_orderUser",
              "name": "buyerUser",
              "type": "tuple"
            },
            {
              "components": [
                {
                  "internalType": "string",
                  "name": "instanceName",
                  "type": "string"
                },
                {
                  "internalType": "address",
                  "name": "instanceAddr",
                  "type": "address"
                }
              ],
              "internalType": "struct BaseOrderManagement.st_orderUser",
              "name": "sellerUser",
              "type": "tuple"
            },
            {
              "internalType": "enum EnumsLibrary.OrderStatus",
              "name": "statusOrder",
              "type": "uint8"
            },
            {
              "internalType": "string",
              "name": "prevOrderIdPbf",
              "type": "string"
            }
          ],
          "internalType": "struct BaseOrderManagement.st_obatOrder[]",
          "name": "",
          "type": "tuple[]"
        }
      ],
      "stateMutability": "view",
      "type": "function"
    },
    {
      "inputs": [],
      "name": "getAvailableObatFromFactory",
      "outputs": [
        {
          "components": [
            {
              "internalType": "string",
              "name": "obatId",
              "type": "string"
            },
            {
              "internalType": "string",
              "name": "namaProduk",
              "type": "string"
            },
            {
              "internalType": "string",
              "name": "batchName",
              "type": "string"
            },
            {
              "internalType": "uint8",
              "name": "obatQuantity",
              "type": "uint8"
            },
            {
              "internalType": "enum EnumsLibrary.ObatAvailability",
              "name": "statusStok",
              "type": "uint8"
            },
            {
              "internalType": "string",
              "name": "ownerInstance",
              "type": "string"
            }
          ],
          "internalType": "struct ObatTradisional.st_obatOutputBatch[]",
          "name": "",
          "type": "tuple[]"
        }
      ],
      "stateMutability": "view",
      "type": "function"
    },
    {
      "inputs": [
        {
          "internalType": "string",
          "name": "_sellerInstance",
          "type": "string"
        }
      ],
      "name": "getOrdersForFactory",
      "outputs": [
        {
          "components": [
            {
              "internalType": "string",
              "name": "orderId",
              "type": "string"
            },
            {
              "internalType": "string",
              "name": "obatId",
              "type": "string"
            },
            {
              "internalType": "string",
              "name": "namaProduk",
              "type": "string"
            },
            {
              "internalType": "string",
              "name": "batchName",
              "type": "string"
            },
            {
              "internalType": "uint8",
              "name": "orderQuantity",
              "type": "uint8"
            },
            {
              "components": [
                {
                  "internalType": "string",
                  "name": "instanceName",
                  "type": "string"
                },
                {
                  "internalType": "address",
                  "name": "instanceAddr",
                  "type": "address"
                }
              ],
              "internalType": "struct BaseOrderManagement.st_orderUser",
              "name": "buyerUser",
              "type": "tuple"
            },
            {
              "components": [
                {
                  "internalType": "string",
                  "name": "instanceName",
                  "type": "string"
                },
                {
                  "internalType": "address",
                  "name": "instanceAddr",
                  "type": "address"
                }
              ],
              "internalType": "struct BaseOrderManagement.st_orderUser",
              "name": "sellerUser",
              "type": "tuple"
            },
            {
              "internalType": "enum EnumsLibrary.OrderStatus",
              "name": "statusOrder",
              "type": "uint8"
            },
            {
              "internalType": "string",
              "name": "prevOrderIdPbf",
              "type": "string"
            }
          ],
          "internalType": "struct BaseOrderManagement.st_obatOrder[]",
          "name": "",
          "type": "tuple[]"
        }
      ],
      "stateMutability": "view",
      "type": "function"
    },
    {
      "inputs": [
        {
          "internalType": "string",
          "name": "_orderId",
          "type": "string"
        }
      ],
      "name": "obatIpfs",
      "outputs": [
        {
          "internalType": "string[]",
          "name": "",
          "type": "string[]"
        }
      ],
      "stateMutability": "view",
      "type": "function"
    },
    {
      "inputs": [],
      "name": "obatShared",
      "outputs": [
        {
          "internalType": "contract ObatShared",
          "name": "",
          "type": "address"
        }
      ],
      "stateMutability": "view",
      "type": "function"
    },
    {
      "inputs": [],
      "name": "obatTradisional",
      "outputs": [
        {
          "internalType": "contract ObatTradisional",
          "name": "",
          "type": "address"
        }
      ],
      "stateMutability": "view",
      "type": "function"
    },
    {
      "inputs": [],
      "name": "roleManager",
      "outputs": [
        {
          "internalType": "contract RoleManager",
          "name": "",
          "type": "address"
        }
      ],
      "stateMutability": "view",
      "type": "function"
    }
  ],
  "bytecode": "0x60803460be57601f6122d738819003918201601f19168301916001600160401b0383118484101760c25780849260809460405283398101031260be5760428160d6565b90604d6020820160d6565b9160626060605c6040850160d6565b930160d6565b600780546001600160a01b03199081166001600160a01b0396871617909155600680548216938616939093179092556008805483169385169390931790925560098054909116919092161790556040516121ed90816100ea8239f35b5f80fd5b634e487b7160e01b5f52604160045260245ffd5b51906001600160a01b038216820360be5756fe6080806040526004361015610012575f80fd5b5f905f3560e01c908162435da51461161b5750806301fd02851461157e5780630ae08328146114b1578063271962d4146113fa5780633fca88cb146113d2578063756b460f146110af578063906ce0171461105a578063986a079014610fa6578063af3a175814610f7d578063ce7ab1c714610c9e578063d597b53314610b08578063e255d74a1461054b578063ea020d5914610522578063ee399ed41461017d5763f07b2c7a146100c2575f80fd5b3461017a57602036600319011261017a57600435816001600160401b03821161017a576100f66101249236906004016116fb565b60018060a01b0360085416604051808095819463783d963d60e11b8352602060048401526024830190611741565b03915afa90811561016f5782610148939261014c575b5050604051918291826119f9565b0390f35b61016892503d8091833e61016081836116bf565b810190611d0f565b5f8061013a565b6040513d84823e3d90fd5b80fd5b503461017a5761018c3661192c565b91906044602060018060a01b0360075416604051928380926395a8c58d60e01b82523360048301528760248301525afa9081156104915783916104f3575b50156104a057604051906008815192602081818501958087835e6003908201908152030190200180546001600160a01b0319163317905560405181516009919060209082908087835e8101600381520301902001600160ff19825416179055604051600182518085845e820191818352602081429403019020015561026360405160208184518087835e810160028152030190206120f4565b825b84518110156102a15760019061029b60405160208186518089835e81016002815203019020610294838961209e565b5190612175565b01610265565b5091809360018060a01b0360085416600560405160208188518089835e8101600a8152030190200160405160208188518089835e8101600a815203019020823b1561049c57610327926103158680946040519687958694859363871811f160e01b8552606060048601526064850190611bb9565b83810360031901602485015290611bb9565b6001604483015203925af1908115610491578391610478575b505060018060a01b03600854169060405160208187518088835e8101600a81520301902090823b156104745761038f928492836040518096819582946329a2ac2760e11b845260048401611c3a565b03925af1801561016f5761045b575b50507f18cb8d3b57e0af2974ed846dca439c7419023ccdf40b1d07099e3950c47c10b39161045560405160208184518087835e8101600a815203019020600160405160208186518089835e8101600a815203019020019260ff600460026040516020818651808c835e8101600a815203019020019660206003604051828188518087835e8101600a8152030190200194604051928391518091835e8101600a81520301902001541690604051958695429487611c5f565b0390a180f35b81610465916116bf565b61047057825f61039e565b8280fd5b8380fd5b81610482916116bf565b61048d57815f610340565b5080fd5b6040513d85823e3d90fd5b8480fd5b60405162461bcd60e51b815260206004820152602560248201527f4f6e6c7920466163746f72792063616e20646f2074686973207472616e73616360448201526474696f6e2160d81b6064820152608490fd5b610515915060203d60201161051b575b61050d81836116bf565b810190611af4565b5f6101ca565b503d610503565b503461017a578060031936011261017a576006546040516001600160a01b039091168152602090f35b503461017a5761010036600319011261017a576004356001600160401b03811161048d5761057d9036906004016116fb565b6024356001600160401b0381116104705761059c9036906004016116fb565b906044356001600160401b038111610474576105bc9036906004016116fb565b906064356001600160401b03811161049c576105dc9036906004016116fb565b6084356001600160401b038111610b04576105fb9036906004016116fb565b60a4356001600160401b038111610b005761061a9036906004016116fb565b9160c4359360ff8516809503610afc5760e4356001600160401b038111610a92576106499036906004016116fb565b6007546040516395a8c58d60e01b81523360048201526001602482015291989190602090829060449082906001600160a01b03165afa8015610af157610696918b91610ad2575b50611b0c565b6020976040516106a68a826116bf565b8a81526106b1611eae565b506040516106be816116a4565b868152338b8201526106ce611eae565b50604051906106dc826116a4565b8882528c8c8301528c54600160401b811015610abe57808e600161070293018155612075565b610aaa57918d91610715888f9695611f2e565b8785808c604051928184925191829101835e810160048152030190209061073b91612175565b8785808d604051928184925191829101835e810160058152030190209061076191612175565b60405161076d8161163e565b42815283868201528360408201526040518681818c805191829101835e8101600181520301902090805182558681015160018301556040015190600201558b8d604051966107ba8861166d565b8a88528088018a815260408901918d835260608a0193845260808a0194855260a08a0195865260c08a0196875260e08a019788526101008a01988952808d604051928184925191829101835e81016003815203019020985161081c908a611f2e565b5161082a9060018a01611f2e565b516108389060028901611f2e565b516108469060038801611f2e565b5160ff16600486019060ff1660ff19825416179055518051600586019061086c91611f2e565b8d01516006850180546001600160a01b0319166001600160a01b03929092169190911790555180516108a19060078601611f2e565b8c01516008840180546001600160a01b0319166001600160a01b03929092169190911790555160098301906003811015610a96576108f4928e959492600a9260ff80198354169116179055519101611f2e565b6008546001600160a01b0316803b156104705761094883929183926040519485809481936331cb1cc560e21b835260406004840152610936604484018c611741565b83810360031901602485015290611741565b03925af1801561016f57610a7d575b50506040519161096683611689565b8783528883018481526040840186815260608501918883528b8060808801958c875260a08901978852604051928184925191829101835e8101600a81520301902095516109b39087611f2e565b516109c19060018701611f2e565b516109cf9060028601611f2e565b516109dd9060038501611f2e565b5160048301805460ff191660ff90921691909117905551610a0091600501611f2e565b60405195869560c0875260c08701610a1791611741565b9086820390870152610a2891611741565b8481036040860152610a3991611741565b8381036060850152610a4a91611741565b9060808301524260a0830152037f18cb8d3b57e0af2974ed846dca439c7419023ccdf40b1d07099e3950c47c10b391a180f35b81610a87916116bf565b610a9257885f610957565b8880fd5b634e487b7160e01b8e52602160045260248efd5b634e487b7160e01b8e5260048e905260248efd5b634e487b7160e01b8e52604160045260248efd5b610aeb915060203d60201161051b5761050d81836116bf565b5f610690565b6040513d8c823e3d90fd5b8780fd5b8680fd5b8580fd5b503461017a57602036600319011261017a576004356001600160401b03811161048d57610b399036906004016116fb565b604051815190602081818501938085835e810160058152030190205491610b5f83612026565b935b838110610b765760405180610148878261185e565b80610bba610bae610bb5610ba16001956040516020818a51808d835e81016005815203019020612075565b5060405192838092611bb9565b03826116bf565b611b62565b600a610c7c60405192610bcc8461166d565b604051610bdd81610bae8185611bb9565b8452604051610bf281610bae818a8601611bb9565b6020850152604051610c0b81610bae8160028601611bb9565b6040850152604051610c2481610bae8160038601611bb9565b606085015260ff6004820154166080850152610c42600582016120b2565b60a0850152610c53600782016120b2565b60c0850152610c6c60ff60098301541660e086016120e8565b610bae6040518094819301611bb9565b610100820152610c8c828861209e565b52610c97818761209e565b5001610b61565b503461017a578060031936011261017a576007546040516395a8c58d60e01b81523360048201526001602482015290602090829060449082906001600160a01b03165afa801561016f57610cf8918391610ad25750611b0c565b600654604051630a1e0a4b60e41b8152908290829060049082906001600160a01b03165afa90811561016f578291610dfb575b50906040519182916020830160208452825180915260408401602060408360051b870101940192905b828210610d6357505050500390f35b91936001919395506020610deb8192603f198a820301865288519060a0610dbb610da9610d99855160c0865260c0860190611741565b8786015185820389870152611741565b60408501518482036040860152611741565b9260ff6060820151166060840152610ddb608082015160808501906119ec565b01519060a0818403910152611741565b9601920192018594939192610d54565b90503d8083833e610e0c81836116bf565b810190602081830312610470578051906001600160401b038211610474570181601f8201121561047057805190610e4282611915565b92610e5060405194856116bf565b82845260208085019360051b83010191818311610b045760208101935b838510610e7f5750505050505f610d2b565b84516001600160401b038111610afc5782019060c0828503601f190112610afc5760405190610ead82611689565b60208301516001600160401b038111610f7957856020610ecf92860101611cbb565b825260408301516001600160401b038111610f7957856020610ef392860101611cbb565b602083015260608301516001600160401b038111610f7957856020610f1a92860101611cbb565b6040830152610f2b60808401611d01565b606083015260a08301516002811015610f7957608083015260c0830151916001600160401b038311610f7957610f6986602080969581960101611cbb565b60a0820152815201940193610e6d565b8980fd5b503461017a578060031936011261017a576009546040516001600160a01b039091168152602090f35b503461017a57602036600319011261017a57600435906001600160401b03821161017a57610148602080610fdd36600487016116fb565b610fe5611ec7565b50610fee611ec7565b50604051928184925191829101835e81016003815203019020600a611040604051926110198461166d565b60405161102a81610bae8185611bb9565b8452604051610bf281610bae8160018601611bb9565b61010082015260405191829160208352602083019061178e565b503461017a578060031936011261017a5760085460405163906ce01760e01b8152908290829060049082906001600160a01b03165afa90811561016f5782610148939261014c575050604051918291826119f9565b50346113ce576110be3661192c565b6007546040516395a8c58d60e01b81523360048201526001602482015291929190602090829060449082906001600160a01b03165afa80156113c35761110a915f91610ad25750611b0c565b604051906009815192602081818501958087835e8101600381520301902001600260ff19825416179055604051600282518085845e82019160018352602081429403019020015561116f60405160208184518087835e810160028152030190206120f4565b5f5b83518110156111a6576001906111a060405160208186518089835e81016002815203019020610294838861209e565b01611171565b509160018060a01b0360085416600560405160208187518088835e8101600a8152030190200160405160208187518088835e8101600a815203019020823b156113ce57611218926103155f80946040519687958694859363871811f160e01b8552606060048601526064850190611bb9565b6001604483015203925af180156113c3576113ae575b50839060018060a01b0360085416600560405160208188518089835e8101600a815203019020019060016040516020818951808a835e8101600a815203019020016040516020818951808a835e8101600a8152030190209160ff60046040516020818c51808d835e8101600a8152030190200154169160026040516020818c51808d835e8101600a8152030190200190823b15610afc576113139561134e8b95611301946113378c996113258b976040519d8e9c8d9b8c9a63d33d8a1360e01b8c5260c060048d015260c48c0190611bb9565b8a81036003190160248c015290611741565b8881036003190160448a015290611bb9565b86810360031901606488015290611bb9565b9160848501526003198483030160a4850152611bb9565b03925af190811561049157839161047857505060018060a01b03600854169060405160208187518088835e8101600a81520301902090823b156104745761038f928492836040518096819582946329a2ac2760e11b845260048401611c3a565b6113bb9194505f906116bf565b5f925f61122e565b6040513d5f823e3d90fd5b5f80fd5b346113ce575f3660031901126113ce576008546040516001600160a01b039091168152602090f35b346113ce5760203660031901126113ce576004356001600160401b0381116113ce57602061142d819236906004016116fb565b604051928184925191829101835e81016002815203019020805461145081611915565b9161145e60405193846116bf565b81835260208301905f5260205f205f915b83831061148c5760405160208082528190610148908201886118bd565b6001602081926040516114a381610bae8189611bb9565b81520192019201919061146f565b346113ce5760203660031901126113ce576004356001600160401b0381116113ce576114e19036906004016116fb565b604051815190602081818501938085835e81016004815203019020549061150782612026565b925f5b83811061151f5760405180610148878261185e565b8061154a610bae610bb5610ba16001956040516020818a51808d835e81016004815203019020612075565b600a61155c60405192610bcc8461166d565b61010082015261156c828861209e565b52611577818761209e565b500161150a565b346113ce5760203660031901126113ce576004356001600160401b0381116113ce576020806115b360609336906004016116fb565b6115bb611ad6565b506115c4611ad6565b50604051928184925191829101835e810160018152030190206040516115e98161163e565b815491828252604060026001830154926020850193845201549201918252604051928352516020830152516040820152f35b346113ce575f3660031901126113ce576007546001600160a01b03168152602090f35b606081019081106001600160401b0382111761165957604052565b634e487b7160e01b5f52604160045260245ffd5b61012081019081106001600160401b0382111761165957604052565b60c081019081106001600160401b0382111761165957604052565b604081019081106001600160401b0382111761165957604052565b90601f801991011681019081106001600160401b0382111761165957604052565b6001600160401b03811161165957601f01601f191660200190565b81601f820112156113ce57803590611712826116e0565b9261172060405194856116bf565b828452602083830101116113ce57815f926020809301838601378301015290565b805180835260209291819084018484015e5f828201840152601f01601f1916010190565b90602061177b8351604084526040840190611741565b928101516001600160a01b031691015290565b9061181a6118086117e96117d76117c56117b387516101208852610120880190611741565b60208801518782036020890152611741565b60408701518682036040880152611741565b60608601518582036060870152611741565b60ff608086015116608085015260a085015184820360a0860152611765565b60c084015183820360c0850152611765565b9060e0830151600381101561184a57611847936101009160e0840152015190610100818403910152611741565b90565b634e487b7160e01b5f52602160045260245ffd5b602081016020825282518091526040820191602060408360051b8301019401925f915b83831061189057505050505090565b90919293946020806118ae600193603f19868203018752895161178e565b97019301930191939290611881565b9080602083519182815201916020808360051b8301019401925f915b8383106118e857505050505090565b9091929394602080611906600193601f198682030187528951611741565b970193019301919392906118d9565b6001600160401b0381116116595760051b60200190565b9060406003198301126113ce576004356001600160401b0381116113ce5782611957916004016116fb565b91602435906001600160401b0382116113ce57806023830112156113ce57816004013561198381611915565b9261199160405194856116bf565b8184526024602085019260051b820101918383116113ce5760248201905b8382106119be57505050505090565b81356001600160401b0381116113ce576020916119e187602485948801016116fb565b8152019101906119af565b90600282101561184a5752565b602081016020825282518091526040820191602060408360051b8301019401925f915b838310611a2b57505050505090565b9091929394602080611ac7600193603f1986820301875289519060c0611a97611a85611a73611a63865160e0875260e0870190611741565b888701518682038a880152611741565b60408601518582036040870152611741565b60608501518482036060860152611741565b9260ff6080820151166080840152611ab760a082015160a08501906119ec565b01519060c0818403910152611741565b97019301930191939290611a1c565b60405190611ae38261163e565b5f6040838281528260208201520152565b908160209103126113ce575180151581036113ce5790565b15611b1357565b60405162461bcd60e51b815260206004820152602160248201527f4f6e6c79205042462063616e20646f2074686973207472616e73616374696f6e6044820152602160f81b6064820152608490fd5b60208091604051928184925191829101835e8101600381520301902090565b90600182811c92168015611baf575b6020831014611b9b57565b634e487b7160e01b5f52602260045260245ffd5b91607f1691611b90565b5f9291815491611bc883611b81565b8083529260018116908115611c1d5750600114611be457505050565b5f9081526020812093945091925b838310611c03575060209250010190565b600181602092949394548385870101520191019190611bf2565b915050602093945060ff929192191683830152151560051b010190565b9091611c5161184793604084526040840190611bb9565b9160208184039101526118bd565b9293611ca260a095611c9460ff95611c86611cb0969c9b9a9c60c08a5260c08a0190611bb9565b9088820360208a0152611bb9565b908682036040880152611bb9565b908482036060860152611bb9565b951660808201520152565b81601f820112156113ce57805190611cd2826116e0565b92611ce060405194856116bf565b828452602083830101116113ce57815f9260208093018386015e8301015290565b519060ff821682036113ce57565b6020818303126113ce578051906001600160401b0382116113ce57019080601f830112156113ce57815191611d4383611915565b92611d5160405194856116bf565b80845260208085019160051b830101918383116113ce5760208101915b838310611d7d57505050505090565b82516001600160401b0381116113ce5782019060e0828703601f1901126113ce576040519060e082018281106001600160401b038211176116595760405260208301516001600160401b0381116113ce57876020611ddd92860101611cbb565b825260408301516001600160401b0381116113ce57876020611e0192860101611cbb565b602083015260608301516001600160401b0381116113ce57876020611e2892860101611cbb565b604083015260808301516001600160401b0381116113ce57876020611e4f92860101611cbb565b6060830152611e6060a08401611d01565b608083015260c083015160028110156113ce5760a083015260e0830151916001600160401b0383116113ce57611e9e88602080969581960101611cbb565b60c0820152815201920191611d6e565b60405190611ebb826116a4565b5f602083606081520152565b60405190611ed48261166d565b60606101008382815282602082015282604082015282808201525f6080820152611efc611eae565b60a0820152611f09611eae565b60c08201525f60e08201520152565b818110611f23575050565b5f8155600101611f18565b91909182516001600160401b03811161165957611f4b8254611b81565b601f8111611feb575b506020601f8211600114611f8d57819293945f92611f82575b50508160011b915f199060031b1c1916179055565b015190505f80611f6d565b601f19821690835f52805f20915f5b818110611fd357509583600195969710611fbb575b505050811b019055565b01515f1960f88460031b161c191690555f8080611fb1565b9192602060018192868b015181550194019201611f9c565b61201690835f5260205f20601f840160051c8101916020851061201c575b601f0160051c0190611f18565b5f611f54565b9091508190612009565b9061203082611915565b61203d60405191826116bf565b828152809261204e601f1991611915565b01905f5b82811061205e57505050565b602090612069611ec7565b82828501015201612052565b805482101561208a575f5260205f2001905f90565b634e487b7160e01b5f52603260045260245ffd5b805182101561208a5760209160051b010190565b906040516120bf816116a4565b602081936040516120d481610bae8185611bb9565b8352600101546001600160a01b0316910152565b600382101561184a5752565b8054905f815581612103575050565b5f5260205f20908101905b818110612119575050565b8061212660019254611b81565b80612133575b500161210e565b601f8111831461214857505f81555b5f61212c565b61216490825f5283601f60205f20920160051c82019101611f18565b805f525f6020812081835555612142565b8054600160401b8110156116595761219291600182018155612075565b9190916121a4576121a291611f2e565b565b634e487b7160e01b5f525f60045260245ffdfea264697066735822122048234e91e97697b2667a21eabfe91569eea6703603dabc2a1fe294604c3621e864736f6c634300081b0033",
  "linkReferences": {},
  "deployedLinkReferences": {}
}