{
  "_format": "hh-sol-artifact-1",
  "contractName": "CpotbCertificate",
  "sourceName": "contracts/CpotbCertificate.sol",
  "abi": [
    {
      "inputs": [
        {
          "internalType": "uint256",
          "name": "",
          "type": "uint256"
        }
      ],
      "name": "allCpotbData",
      "outputs": [
        {
          "internalType": "string",
          "name": "certId",
          "type": "string"
        },
        {
          "internalType": "string",
          "name": "certNumber",
          "type": "string"
        },
        {
          "internalType": "string",
          "name": "instanceName",
          "type": "string"
        },
        {
          "internalType": "uint8",
          "name": "tipePermohonan",
          "type": "uint8"
        },
        {
          "internalType": "enum EnumsLibrary.StatusCertificate",
          "name": "status",
          "type": "uint8"
        },
        {
          "internalType": "string",
          "name": "certHash",
          "type": "string"
        },
        {
          "internalType": "uint256",
          "name": "expiredTimestamp",
          "type": "uint256"
        }
      ],
      "stateMutability": "view",
      "type": "function"
    },
    {
      "inputs": [
        {
          "internalType": "string",
          "name": "certNumber",
          "type": "string"
        },
        {
          "internalType": "string",
          "name": "certId",
          "type": "string"
        },
        {
          "internalType": "string",
          "name": "bpomName",
          "type": "string"
        },
        {
          "internalType": "string",
          "name": "bpomInstance",
          "type": "string"
        },
        {
          "internalType": "address",
          "name": "bpomAddr",
          "type": "address"
        },
        {
          "internalType": "string",
          "name": "ipfsCert",
          "type": "string"
        },
        {
          "internalType": "uint256",
          "name": "timestampExp",
          "type": "uint256"
        }
      ],
      "name": "approveCpotb",
      "outputs": [],
      "stateMutability": "nonpayable",
      "type": "function"
    },
    {
      "inputs": [
        {
          "internalType": "string",
          "name": "certId",
          "type": "string"
        },
        {
          "internalType": "string",
          "name": "ipfsCert",
          "type": "string"
        }
      ],
      "name": "approveExtendCpotb",
      "outputs": [],
      "stateMutability": "nonpayable",
      "type": "function"
    },
    {
      "inputs": [
        {
          "internalType": "string",
          "name": "",
          "type": "string"
        }
      ],
      "name": "certDetailById",
      "outputs": [
        {
          "internalType": "enum EnumsLibrary.StatusCertificate",
          "name": "status",
          "type": "uint8"
        },
        {
          "internalType": "uint256",
          "name": "timestampRequest",
          "type": "uint256"
        },
        {
          "internalType": "uint256",
          "name": "timestampApprove",
          "type": "uint256"
        },
        {
          "internalType": "uint256",
          "name": "timestampRejected",
          "type": "uint256"
        },
        {
          "internalType": "uint256",
          "name": "timestampRenewRequest",
          "type": "uint256"
        },
        {
          "internalType": "uint256",
          "name": "timestampExpired",
          "type": "uint256"
        },
        {
          "internalType": "uint256",
          "name": "timestampExtendRequest",
          "type": "uint256"
        },
        {
          "components": [
            {
              "internalType": "string",
              "name": "userName",
              "type": "string"
            },
            {
              "internalType": "string",
              "name": "userInstance",
              "type": "string"
            },
            {
              "internalType": "address",
              "name": "userAddr",
              "type": "address"
            }
          ],
          "internalType": "struct BaseCertificate.UserCert",
          "name": "sender",
          "type": "tuple"
        },
        {
          "components": [
            {
              "internalType": "string",
              "name": "userName",
              "type": "string"
            },
            {
              "internalType": "string",
              "name": "userInstance",
              "type": "string"
            },
            {
              "internalType": "address",
              "name": "userAddr",
              "type": "address"
            }
          ],
          "internalType": "struct BaseCertificate.UserCert",
          "name": "bpom",
          "type": "tuple"
        },
        {
          "internalType": "string",
          "name": "ipfsCert",
          "type": "string"
        }
      ],
      "stateMutability": "view",
      "type": "function"
    },
    {
      "inputs": [
        {
          "internalType": "string",
          "name": "",
          "type": "string"
        }
      ],
      "name": "cpotbDataById",
      "outputs": [
        {
          "internalType": "string",
          "name": "cpotbId",
          "type": "string"
        },
        {
          "internalType": "string",
          "name": "cpotbNumber",
          "type": "string"
        },
        {
          "internalType": "uint8",
          "name": "tipePermohonan",
          "type": "uint8"
        },
        {
          "internalType": "string",
          "name": "factoryType",
          "type": "string"
        }
      ],
      "stateMutability": "view",
      "type": "function"
    },
    {
      "inputs": [
        {
          "components": [
            {
              "internalType": "string",
              "name": "userName",
              "type": "string"
            },
            {
              "internalType": "string",
              "name": "userInstance",
              "type": "string"
            },
            {
              "internalType": "address",
              "name": "userAddr",
              "type": "address"
            }
          ],
          "internalType": "struct BaseCertificate.UserCert",
          "name": "senderData",
          "type": "tuple"
        },
        {
          "components": [
            {
              "internalType": "string",
              "name": "userName",
              "type": "string"
            },
            {
              "internalType": "string",
              "name": "userInstance",
              "type": "string"
            },
            {
              "internalType": "address",
              "name": "userAddr",
              "type": "address"
            }
          ],
          "internalType": "struct BaseCertificate.UserCert",
          "name": "bpomData",
          "type": "tuple"
        },
        {
          "internalType": "string",
          "name": "certId",
          "type": "string"
        }
      ],
      "name": "createCertificateDetails",
      "outputs": [],
      "stateMutability": "nonpayable",
      "type": "function"
    },
    {
      "inputs": [
        {
          "internalType": "string",
          "name": "userName",
          "type": "string"
        },
        {
          "internalType": "string",
          "name": "userInstance",
          "type": "string"
        },
        {
          "internalType": "address",
          "name": "userAddr",
          "type": "address"
        }
      ],
      "name": "createUserCertificate",
      "outputs": [
        {
          "components": [
            {
              "internalType": "string",
              "name": "userName",
              "type": "string"
            },
            {
              "internalType": "string",
              "name": "userInstance",
              "type": "string"
            },
            {
              "internalType": "address",
              "name": "userAddr",
              "type": "address"
            }
          ],
          "internalType": "struct BaseCertificate.UserCert",
          "name": "",
          "type": "tuple"
        }
      ],
      "stateMutability": "pure",
      "type": "function"
    },
    {
      "inputs": [
        {
          "internalType": "string",
          "name": "",
          "type": "string"
        }
      ],
      "name": "dokuAdminById",
      "outputs": [
        {
          "internalType": "string",
          "name": "suratPermohonan",
          "type": "string"
        },
        {
          "internalType": "string",
          "name": "buktiPembayaranNegaraBukanPajak",
          "type": "string"
        },
        {
          "internalType": "string",
          "name": "suratKomitmen",
          "type": "string"
        }
      ],
      "stateMutability": "view",
      "type": "function"
    },
    {
      "inputs": [
        {
          "internalType": "string",
          "name": "",
          "type": "string"
        }
      ],
      "name": "dokuTeknisById",
      "outputs": [
        {
          "internalType": "string",
          "name": "denahBangunan",
          "type": "string"
        },
        {
          "internalType": "string",
          "name": "sistemMutu",
          "type": "string"
        }
      ],
      "stateMutability": "view",
      "type": "function"
    },
    {
      "inputs": [
        {
          "internalType": "string",
          "name": "certId",
          "type": "string"
        },
        {
          "internalType": "uint256",
          "name": "expTimestamp",
          "type": "uint256"
        }
      ],
      "name": "extendCpotb",
      "outputs": [],
      "stateMutability": "nonpayable",
      "type": "function"
    },
    {
      "inputs": [],
      "name": "getAllCpotb",
      "outputs": [
        {
          "components": [
            {
              "internalType": "string",
              "name": "certId",
              "type": "string"
            },
            {
              "internalType": "string",
              "name": "certNumber",
              "type": "string"
            },
            {
              "internalType": "string",
              "name": "instanceName",
              "type": "string"
            },
            {
              "internalType": "uint8",
              "name": "tipePermohonan",
              "type": "uint8"
            },
            {
              "internalType": "enum EnumsLibrary.StatusCertificate",
              "name": "status",
              "type": "uint8"
            },
            {
              "internalType": "string",
              "name": "certHash",
              "type": "string"
            },
            {
              "internalType": "uint256",
              "name": "expiredTimestamp",
              "type": "uint256"
            }
          ],
          "internalType": "struct CpotbCertificate.CertificateList[]",
          "name": "",
          "type": "tuple[]"
        }
      ],
      "stateMutability": "view",
      "type": "function"
    },
    {
      "inputs": [
        {
          "internalType": "string",
          "name": "instanceName",
          "type": "string"
        }
      ],
      "name": "getAllCpotbByInstance",
      "outputs": [
        {
          "components": [
            {
              "internalType": "string",
              "name": "certId",
              "type": "string"
            },
            {
              "internalType": "string",
              "name": "certNumber",
              "type": "string"
            },
            {
              "internalType": "string",
              "name": "instanceName",
              "type": "string"
            },
            {
              "internalType": "uint8",
              "name": "tipePermohonan",
              "type": "uint8"
            },
            {
              "internalType": "enum EnumsLibrary.StatusCertificate",
              "name": "status",
              "type": "uint8"
            },
            {
              "internalType": "string",
              "name": "certHash",
              "type": "string"
            },
            {
              "internalType": "uint256",
              "name": "expiredTimestamp",
              "type": "uint256"
            }
          ],
          "internalType": "struct CpotbCertificate.CertificateList[]",
          "name": "",
          "type": "tuple[]"
        }
      ],
      "stateMutability": "view",
      "type": "function"
    },
    {
      "inputs": [
        {
          "internalType": "string",
          "name": "certId",
          "type": "string"
        }
      ],
      "name": "getCertDetail",
      "outputs": [
        {
          "components": [
            {
              "internalType": "enum EnumsLibrary.StatusCertificate",
              "name": "status",
              "type": "uint8"
            },
            {
              "internalType": "uint256",
              "name": "timestampRequest",
              "type": "uint256"
            },
            {
              "internalType": "uint256",
              "name": "timestampApprove",
              "type": "uint256"
            },
            {
              "internalType": "uint256",
              "name": "timestampRejected",
              "type": "uint256"
            },
            {
              "internalType": "uint256",
              "name": "timestampRenewRequest",
              "type": "uint256"
            },
            {
              "internalType": "uint256",
              "name": "timestampExpired",
              "type": "uint256"
            },
            {
              "internalType": "uint256",
              "name": "timestampExtendRequest",
              "type": "uint256"
            },
            {
              "components": [
                {
                  "internalType": "string",
                  "name": "userName",
                  "type": "string"
                },
                {
                  "internalType": "string",
                  "name": "userInstance",
                  "type": "string"
                },
                {
                  "internalType": "address",
                  "name": "userAddr",
                  "type": "address"
                }
              ],
              "internalType": "struct BaseCertificate.UserCert",
              "name": "sender",
              "type": "tuple"
            },
            {
              "components": [
                {
                  "internalType": "string",
                  "name": "userName",
                  "type": "string"
                },
                {
                  "internalType": "string",
                  "name": "userInstance",
                  "type": "string"
                },
                {
                  "internalType": "address",
                  "name": "userAddr",
                  "type": "address"
                }
              ],
              "internalType": "struct BaseCertificate.UserCert",
              "name": "bpom",
              "type": "tuple"
            },
            {
              "internalType": "string",
              "name": "ipfsCert",
              "type": "string"
            }
          ],
          "internalType": "struct BaseCertificate.CertificateDetails",
          "name": "",
          "type": "tuple"
        }
      ],
      "stateMutability": "view",
      "type": "function"
    },
    {
      "inputs": [
        {
          "internalType": "string",
          "name": "certId",
          "type": "string"
        }
      ],
      "name": "getCertDetails",
      "outputs": [
        {
          "components": [
            {
              "internalType": "enum EnumsLibrary.StatusCertificate",
              "name": "status",
              "type": "uint8"
            },
            {
              "internalType": "uint256",
              "name": "timestampRequest",
              "type": "uint256"
            },
            {
              "internalType": "uint256",
              "name": "timestampApprove",
              "type": "uint256"
            },
            {
              "internalType": "uint256",
              "name": "timestampRejected",
              "type": "uint256"
            },
            {
              "internalType": "uint256",
              "name": "timestampRenewRequest",
              "type": "uint256"
            },
            {
              "internalType": "uint256",
              "name": "timestampExpired",
              "type": "uint256"
            },
            {
              "internalType": "uint256",
              "name": "timestampExtendRequest",
              "type": "uint256"
            },
            {
              "components": [
                {
                  "internalType": "string",
                  "name": "userName",
                  "type": "string"
                },
                {
                  "internalType": "string",
                  "name": "userInstance",
                  "type": "string"
                },
                {
                  "internalType": "address",
                  "name": "userAddr",
                  "type": "address"
                }
              ],
              "internalType": "struct BaseCertificate.UserCert",
              "name": "sender",
              "type": "tuple"
            },
            {
              "components": [
                {
                  "internalType": "string",
                  "name": "userName",
                  "type": "string"
                },
                {
                  "internalType": "string",
                  "name": "userInstance",
                  "type": "string"
                },
                {
                  "internalType": "address",
                  "name": "userAddr",
                  "type": "address"
                }
              ],
              "internalType": "struct BaseCertificate.UserCert",
              "name": "bpom",
              "type": "tuple"
            },
            {
              "internalType": "string",
              "name": "ipfsCert",
              "type": "string"
            }
          ],
          "internalType": "struct BaseCertificate.CertificateDetails",
          "name": "",
          "type": "tuple"
        }
      ],
      "stateMutability": "view",
      "type": "function"
    },
    {
      "inputs": [
        {
          "internalType": "string",
          "name": "certId",
          "type": "string"
        }
      ],
      "name": "getCpotbDetails",
      "outputs": [
        {
          "components": [
            {
              "internalType": "string",
              "name": "cpotbId",
              "type": "string"
            },
            {
              "internalType": "string",
              "name": "cpotbNumber",
              "type": "string"
            },
            {
              "internalType": "uint8",
              "name": "tipePermohonan",
              "type": "uint8"
            },
            {
              "internalType": "string",
              "name": "factoryType",
              "type": "string"
            }
          ],
          "internalType": "struct CpotbCertificate.CpotbData",
          "name": "",
          "type": "tuple"
        },
        {
          "components": [
            {
              "internalType": "string",
              "name": "suratPermohonan",
              "type": "string"
            },
            {
              "internalType": "string",
              "name": "buktiPembayaranNegaraBukanPajak",
              "type": "string"
            },
            {
              "internalType": "string",
              "name": "suratKomitmen",
              "type": "string"
            }
          ],
          "internalType": "struct CpotbCertificate.DokumenAdministrasi",
          "name": "",
          "type": "tuple"
        },
        {
          "components": [
            {
              "internalType": "string",
              "name": "denahBangunan",
              "type": "string"
            },
            {
              "internalType": "string",
              "name": "sistemMutu",
              "type": "string"
            }
          ],
          "internalType": "struct CpotbCertificate.DokumenTeknis",
          "name": "",
          "type": "tuple"
        }
      ],
      "stateMutability": "view",
      "type": "function"
    },
    {
      "inputs": [
        {
          "internalType": "string",
          "name": "certId",
          "type": "string"
        }
      ],
      "name": "getRejectMsg",
      "outputs": [
        {
          "internalType": "string",
          "name": "",
          "type": "string"
        }
      ],
      "stateMutability": "view",
      "type": "function"
    },
    {
      "inputs": [
        {
          "internalType": "string",
          "name": "certId",
          "type": "string"
        }
      ],
      "name": "getRejectsMsg",
      "outputs": [
        {
          "internalType": "string",
          "name": "",
          "type": "string"
        }
      ],
      "stateMutability": "view",
      "type": "function"
    },
    {
      "inputs": [
        {
          "internalType": "string",
          "name": "certId",
          "type": "string"
        }
      ],
      "name": "getSenderDetail",
      "outputs": [
        {
          "components": [
            {
              "internalType": "string",
              "name": "userName",
              "type": "string"
            },
            {
              "internalType": "string",
              "name": "userInstance",
              "type": "string"
            },
            {
              "internalType": "address",
              "name": "userAddr",
              "type": "address"
            }
          ],
          "internalType": "struct BaseCertificate.UserCert",
          "name": "",
          "type": "tuple"
        }
      ],
      "stateMutability": "view",
      "type": "function"
    },
    {
      "inputs": [
        {
          "internalType": "string",
          "name": "certId",
          "type": "string"
        },
        {
          "internalType": "string",
          "name": "rejectMsg",
          "type": "string"
        },
        {
          "internalType": "string",
          "name": "bpomName",
          "type": "string"
        },
        {
          "internalType": "string",
          "name": "bpomInstance",
          "type": "string"
        },
        {
          "internalType": "address",
          "name": "bpomAddr",
          "type": "address"
        }
      ],
      "name": "rejectCpotb",
      "outputs": [],
      "stateMutability": "nonpayable",
      "type": "function"
    },
    {
      "inputs": [
        {
          "internalType": "string",
          "name": "",
          "type": "string"
        }
      ],
      "name": "rejectMsgById",
      "outputs": [
        {
          "internalType": "string",
          "name": "",
          "type": "string"
        }
      ],
      "stateMutability": "view",
      "type": "function"
    },
    {
      "inputs": [
        {
          "internalType": "string",
          "name": "certId",
          "type": "string"
        },
        {
          "components": [
            {
              "internalType": "string",
              "name": "suratPermohonan",
              "type": "string"
            },
            {
              "internalType": "string",
              "name": "buktiPembayaranNegaraBukanPajak",
              "type": "string"
            },
            {
              "internalType": "string",
              "name": "suratKomitmen",
              "type": "string"
            }
          ],
          "internalType": "struct CpotbCertificate.DokumenAdministrasi",
          "name": "newDokuAdmin",
          "type": "tuple"
        },
        {
          "components": [
            {
              "internalType": "string",
              "name": "denahBangunan",
              "type": "string"
            },
            {
              "internalType": "string",
              "name": "sistemMutu",
              "type": "string"
            }
          ],
          "internalType": "struct CpotbCertificate.DokumenTeknis",
          "name": "newDokuTeknis",
          "type": "tuple"
        }
      ],
      "name": "renewRequestCpotb",
      "outputs": [],
      "stateMutability": "nonpayable",
      "type": "function"
    },
    {
      "inputs": [
        {
          "internalType": "string",
          "name": "certId",
          "type": "string"
        },
        {
          "internalType": "string",
          "name": "factoryName",
          "type": "string"
        },
        {
          "internalType": "string",
          "name": "factoryInstance",
          "type": "string"
        },
        {
          "internalType": "address",
          "name": "factoryAddr",
          "type": "address"
        },
        {
          "internalType": "uint8",
          "name": "jenisSediaan",
          "type": "uint8"
        },
        {
          "internalType": "string",
          "name": "factoryType",
          "type": "string"
        },
        {
          "components": [
            {
              "internalType": "string",
              "name": "suratPermohonan",
              "type": "string"
            },
            {
              "internalType": "string",
              "name": "buktiPembayaranNegaraBukanPajak",
              "type": "string"
            },
            {
              "internalType": "string",
              "name": "suratKomitmen",
              "type": "string"
            }
          ],
          "internalType": "struct CpotbCertificate.DokumenAdministrasi",
          "name": "dokuAdmin",
          "type": "tuple"
        },
        {
          "components": [
            {
              "internalType": "string",
              "name": "denahBangunan",
              "type": "string"
            },
            {
              "internalType": "string",
              "name": "sistemMutu",
              "type": "string"
            }
          ],
          "internalType": "struct CpotbCertificate.DokumenTeknis",
          "name": "dokuTeknis",
          "type": "tuple"
        }
      ],
      "name": "requestCpotb",
      "outputs": [],
      "stateMutability": "nonpayable",
      "type": "function"
    },
    {
      "inputs": [
        {
          "internalType": "string",
          "name": "certId",
          "type": "string"
        },
        {
          "internalType": "string",
          "name": "ipfsCert",
          "type": "string"
        },
        {
          "components": [
            {
              "internalType": "string",
              "name": "userName",
              "type": "string"
            },
            {
              "internalType": "string",
              "name": "userInstance",
              "type": "string"
            },
            {
              "internalType": "address",
              "name": "userAddr",
              "type": "address"
            }
          ],
          "internalType": "struct BaseCertificate.UserCert",
          "name": "bpomData",
          "type": "tuple"
        }
      ],
      "name": "updateBpomApproveDetails",
      "outputs": [],
      "stateMutability": "nonpayable",
      "type": "function"
    },
    {
      "inputs": [
        {
          "internalType": "string",
          "name": "certId",
          "type": "string"
        },
        {
          "internalType": "string",
          "name": "ipfsCert",
          "type": "string"
        }
      ],
      "name": "updateBpomExtendCertificateDetails",
      "outputs": [],
      "stateMutability": "nonpayable",
      "type": "function"
    },
    {
      "inputs": [
        {
          "internalType": "string",
          "name": "certId",
          "type": "string"
        },
        {
          "internalType": "string",
          "name": "rejectMsg",
          "type": "string"
        },
        {
          "components": [
            {
              "internalType": "string",
              "name": "userName",
              "type": "string"
            },
            {
              "internalType": "string",
              "name": "userInstance",
              "type": "string"
            },
            {
              "internalType": "address",
              "name": "userAddr",
              "type": "address"
            }
          ],
          "internalType": "struct BaseCertificate.UserCert",
          "name": "bpomData",
          "type": "tuple"
        }
      ],
      "name": "updateBpomRejectDetails",
      "outputs": [],
      "stateMutability": "nonpayable",
      "type": "function"
    },
    {
      "inputs": [
        {
          "internalType": "string",
          "name": "certId",
          "type": "string"
        },
        {
          "internalType": "uint256",
          "name": "expiredTimestamp",
          "type": "uint256"
        }
      ],
      "name": "updateExtendRenewDetails",
      "outputs": [],
      "stateMutability": "nonpayable",
      "type": "function"
    },
    {
      "inputs": [
        {
          "internalType": "string",
          "name": "certId",
          "type": "string"
        }
      ],
      "name": "updateRenewDetails",
      "outputs": [],
      "stateMutability": "nonpayable",
      "type": "function"
    }
  ],
  "bytecode": "0x60808060405234601557614326908161001a8239f35b5f80fdfe60806040526004361015610011575f80fd5b5f3560e01c806317e68309146129c057806319859c87146129885780632e9cf8271461290457806334a34f30146128065780634eea4b8f1461235c578063500619d0146122db5780635850607c1461227357806364b409ff146112c45780636aa81299146112105780636d1aa7d514610f7757806370c056b014610fb2578063761fb19a14610f775780637ab0964814610ed057806381fc60a514610d615780638b11d37b14610cb95780639740dbed14610ca25780639aaa5d8b14610c67578063b073043614610b8b578063be2e232514610b3b578063bf3f80ac14610acd578063e462dde514610994578063e8002b27146102da578063e9c260d7146102c3578063f02f5f23146101ef578063f5104ff1146101d8578063f53ef126146101c15763fb5fb9a314610142575f80fd5b346101bd5760603660031901126101bd576004356001600160401b0381116101bd57610172903690600401612f87565b6024356001600160401b0381116101bd57610191903690600401612f87565b90604435916001600160401b0383116101bd576101b56101bb933690600401612aca565b91613cb1565b005b5f80fd5b346101bd576101bb6101d236612f3d565b90613b93565b346101bd576101bb6101e936612fff565b91613800565b346101bd5760203660031901126101bd576004356002548110156101bd5761021961027691613067565b5061022381612bcf565b906102b961023360018301612bcf565b9161024060028201612bcf565b906102ac610292600383015493610284600561025e60048701612bcf565b950154976040519a8b9a60e08c5260e08c0190612b1f565b908a820360208c0152612b1f565b9088820360408a0152612b1f565b9260ff8116606088015260ff608088019160081c16612cae565b84820360a0860152612b1f565b9060c08301520390f35b346101bd576101bb6102d436612fff565b91613463565b346101bd5760603660031901126101bd576004356001600160401b0381116101bd5761030a903690600401612aca565b6024356001600160401b0381116101bd57610329903690600401612d8b565b906044356001600160401b0381116101bd57610349903690600401612e0e565b610352826130b7565b6002549160208101905f5b84811061036657005b61036f81613067565b5060405161039381610385602082018095613115565b03601f198101835282612aa9565b51902060405160208101906103c06020828751808a875e81015f838201520301601f198101835282612aa9565b519020146103d1575b60010161035d565b60036103dc82613067565b5001805461ff00191661030017905561040660206103f983613067565b5060405192838092613115565b600481520301902086518051906001600160401b03821161069757819061042d8454612b97565b601f8111610944575b50602090601f83116001146108e1575f926108d6575b50508160011b915f199060031b1c19161781555b6001810160208801518051906001600160401b038211610697576104848354612b97565b601f8111610891575b50602090601f831160011461082a576002949392915f918361081f575b50508160011b915f199060031b1c19161790555b0160408701518051906001600160401b0382116106975781906104e18454612b97565b601f81116107cf575b50602090601f831160011461076c575f92610761575b50508160011b915f199060031b1c19161790555b61052260206103f983613067565b600581520301902084518051906001600160401b038211610697576105478354612b97565b601f811161071c575b50602090601f83116001146106b65760019392915f91836106ab575b50505f19600383901b1c191690831b1781555b0160208501518051906001600160401b038211610697576105a08354612b97565b601f8111610652575b50602090601f83116001146105eb576001949392915f91836105e0575b50505f19600383901b1c191690841b1790555b90506103c9565b015190508a806105c6565b90601f19831691845f52815f20925f5b81811061063a575091600196959492918388959310610622575b505050811b0190556105d9565b01515f1960f88460031b161c191690558a8080610615565b929360206001819287860151815501950193016105fb565b835f5260205f20601f840160051c8101916020851061068d575b601f0160051c01905b81811061068257506105a9565b5f8155600101610675565b909150819061066c565b634e487b7160e01b5f52604160045260245ffd5b015190508a8061056c565b90601f19831691845f52815f20925f5b81811061070457509160019594929183879593106106ec575b505050811b01815561057f565b01515f1960f88460031b161c191690558a80806106df565b929360206001819287860151815501950193016106c6565b835f5260205f20601f840160051c81019160208510610757575b601f0160051c01905b81811061074c5750610550565b5f815560010161073f565b9091508190610736565b015190508980610500565b5f8581528281209350601f198516905b8181106107b7575090846001959493921061079f575b505050811b019055610514565b01515f1960f88460031b161c19169055898080610792565b9293602060018192878601518155019501930161077c565b909150835f5260205f20601f840160051c81019160208510610815575b90601f859493920160051c01905b81811061080757506104ea565b5f81558493506001016107fa565b90915081906107ec565b015190508b806104aa565b90601f19831691845f52815f20925f5b818110610879575091600193918560029897969410610861575b505050811b0190556104be565b01515f1960f88460031b161c191690558b8080610854565b9293602060018192878601518155019501930161083a565b835f5260205f20601f840160051c810191602085106108cc575b601f0160051c01905b8181106108c1575061048d565b5f81556001016108b4565b90915081906108ab565b01519050898061044c565b5f8581528281209350601f198516905b81811061092c5750908460019594939210610914575b505050811b018155610460565b01515f1960f88460031b161c19169055898080610907565b929360206001819287860151815501950193016108f1565b909150835f5260205f20601f840160051c8101916020851061098a575b90601f859493920160051c01905b81811061097c5750610436565b5f815584935060010161096f565b9091508190610961565b346101bd5760a03660031901126101bd576004356001600160401b0381116101bd576109c4903690600401612aca565b6024356001600160401b0381116101bd576109e3903690600401612aca565b6044356001600160401b0381116101bd57610a02903690600401612aca565b906064356001600160401b0381116101bd57610a3e92610a29610a37923690600401612aca565b610a31612b81565b916130e5565b9083613463565b600254602082015f5b828110610a5057005b80610a5c600192613067565b50604051610a7281610385602082018095613115565b5190206040516020810190610a9f6020828a51808a875e81015f838201520301601f198101835282612aa9565b51902014610aae575b01610a47565b6003610ab982613067565b5001805461ff001916610200179055610aa8565b346101bd5760203660031901126101bd576004356001600160401b0381116101bd57610b23602080610b06610b37943690600401612aca565b604051928184925191829101835e81016001815203019020612bcf565b604051918291602083526020830190612b1f565b0390f35b346101bd5760203660031901126101bd576004356001600160401b0381116101bd57610b7f610b71610b37923690600401612aca565b610b79613359565b506133b1565b60405191829182612e99565b346101bd57610ba4610b9c36612f3d565b819291613b93565b6002549060208101905f5b838110610bb857005b610bc181613067565b50604051610bd781610385602082018095613115565b5190206040516020810190610c046020828751808a875e81015f838201520301601f198101835282612aa9565b51902014610c15575b600101610baf565b6003610c2082613067565b500161060061ff00198254161790556082420190814211610c53576001916005610c4983613067565b5001559050610c0d565b634e487b7160e01b5f52601160045260245ffd5b346101bd5760203660031901126101bd576004356001600160401b0381116101bd57610b7f610c9d610b37923690600401612aca565b6133b1565b346101bd576101bb610cb336612e68565b906132de565b346101bd57610cd2610cca36612e68565b8192916132de565b600254602082015f5b828110610ce457005b80610cf0600192613067565b50604051610d0681610385602082018095613115565b5190206040516020810190610d336020828a51808a875e81015f838201520301601f198101835282612aa9565b51902014610d42575b01610cdb565b6003610d4d82613067565b5001805461ff001916610500179055610d3c565b346101bd5760203660031901126101bd576004356001600160401b0381116101bd57610d91903690600401612aca565b60025460208201915f805b838110610e6d575060ff610db09116613196565b925f915f5b848110610dca5760405180610b378882612cbb565b6002610385610def610ddb84613067565b506040519283916020830195869101613115565b5190206040516020810190610e1c6020828751808a875e81015f838201520301601f198101835282612aa9565b51902014610e2d575b600101610db5565b92610e65600191610e5f610e49610e4388613067565b50613233565b60ff831690610e58828c613213565b5289613213565b506132aa565b939050610e25565b6002610385610e7e610ddb84613067565b5190206040516020810190610eab6020828851808c875e81015f838201520301601f198101835282612aa9565b51902014610ebc575b600101610d9c565b90610ec86001916132aa565b919050610eb4565b346101bd5760203660031901126101bd576004356001600160401b0381116101bd57602080610f06610f5b933690600401612aca565b604051928184925191829101835e81016004815203019020610b37610f2a82612bcf565b91610f69610f466002610f3f60018501612bcf565b9301612bcf565b91604051958695606087526060870190612b1f565b908582036020870152612b1f565b908382036040850152612b1f565b346101bd5760203660031901126101bd576004356001600160401b0381116101bd57610b23610fad610b37923690600401612aca565b6132bb565b346101bd5760203660031901126101bd576004356001600160401b0381116101bd57610fe2903690600401612aca565b604051610fee81612a21565b606081526020810160609052604081015f90526060016060905260405161101481612a57565b6060815260208101606090526040016060905260405161103381612a72565b60608152602001606090526040518151908060208401928084835e810160038152036020019020906040518084518084835e81016004815203602001902092604051918291518091835e8101600581520360200190206040519161109683612a21565b61109f81612bcf565b83526110ad60018201612bcf565b9360208401948552600282015460ff1691604085019283526003016110d190612bcf565b9160608501928352604051916110e683612a57565b6110ef81612bcf565b83526110fd60018201612bcf565b906020840191825260020161111190612bcf565b91604084019283526040519561112687612a72565b61112f81612bcf565b875260010161113d90612bcf565b946020870195865260405198899860608a525160608a016080905260e08a0161116591612b1f565b9051898203605f190160808b015261117d9190612b1f565b915160ff1660a089015251878203605f190160c089015261119e9190612b1f565b9286840360208801525160608452606084016111b991612b1f565b90519083810360208501526111cd91612b1f565b90519180820390604001526111e191612b1f565b9183830360408501525160408352604083016111fc91612b1f565b9051918082039060200152610b3791612b1f565b346101bd5760203660031901126101bd576004356001600160401b0381116101bd576020806112466112a3933690600401612aca565b604051928184925191829101835e81016003815203019020610b3761126a82612bcf565b9161127760018201612bcf565b6112b161128e600360ff6002860154169401612bcf565b91604051968796608088526080880190612b1f565b908682036020880152612b1f565b9160408501528382036060850152612b1f565b346101bd576101003660031901126101bd576004356001600160401b0381116101bd576112f5903690600401612aca565b6024356001600160401b0381116101bd57611314903690600401612aca565b6044356001600160401b0381116101bd57611333903690600401612aca565b916064356001600160a01b03811681036101bd576084359360ff85168095036101bd5760a4356001600160401b0381116101bd57611375903690600401612aca565b9460c4356001600160401b0381116101bd57611395903690600401612d8b565b9260e435906001600160401b0382116101bd57836113ba6113c0933690600401612e0e565b976130e5565b9561141085602098604051906113d68b83612aa9565b5f82526040516113e68c82612aa9565b5f81526113f1613097565b50604051926113ff84612a57565b83528b8301525f6040830152613cb1565b60405161141c81612a21565b85815260405161142c8982612aa9565b5f81528882019081526040820190848252606083019384526040518a818a5180838d01835e8101600381520301902092518051906001600160401b0382116106975781908c61147b8754612b97565b601f8111612222575b50508c908d601f84116001146121be57505f926121b3575b50508160011b915f199060031b1c19161783555b51805160018401916001600160401b038211610697578b6114d18454612b97565b601f811161216e575b50508b908c601f84116001146121035750918060ff949260039796945f926120f8575b50508160011b915f1990881b1c19161790555b511660ff60028301911660ff198254161790550190518051906001600160401b0382116106975781906115438454612b97565b601f81116120aa575b508990601f8311600114612047575f9261203c575b50508160011b915f199060031b1c19161790555b6040519061158282612a3c565b848252604051926115938885612aa9565b5f8452878301938452604083015260608201525f60808201526040516115b98782612aa9565b5f815260a08201525f60c082015260025468010000000000000000811015610697578060016115eb9201600255613067565b9290926120295781518051906001600160401b0382116106975781906116118654612b97565b601f8111611fdb575b508990601f8311600114611f78575f92611f6d575b50508160011b915f199060031b1c19161783555b518051906001600160401b0382116106975781906116646001860154612b97565b601f8111611f1c575b508890601f8311600114611eb2575f92611ea7575b50508160011b915f199060031b1c19161760018301555b6002820160408201518051906001600160401b0382116106975781906116bf8454612b97565b601f8111611e59575b508990601f8311600114611df6575f92611deb575b50508160011b915f199060031b1c19161790555b6003820160ff806060840151161660ff1982541617815560808201516007811015611dd75761ff0082549160081b169061ff0019161790556004820160a08201518051906001600160401b0382116106975761174d8354612b97565b601f8111611d94575b508890601f8311600114611d2b57918060c09492600596945f92611d20575b50508160011b915f199060031b1c19161790555b01519101556040518481845180838701835e8101600481520301902081518051906001600160401b0382116106975781906117c48454612b97565b601f8111611cd2575b508790601f8311600114611c6f575f92611c64575b50508160011b915f199060031b1c19161781555b60018101858301518051906001600160401b038211610697576118198354612b97565b601f8111611c21575b508790601f8311600114611bb857918060029492604096945f92611bad575b50508160011b915f199060031b1c19161790555b01910151918251916001600160401b0383116106975785926118778254612b97565b94601f8611611b56575b8495508490601f8311600114611aef575f919083611ae4575b50508160011b915f199060031b1c19161790555b604051928184925191829101835e8101600581520301902081519081516001600160401b0381116106975784926118e58354612b97565b601f8111611a92575b508390601f8311600114611a2c5760019392915f9183611a21575b50505f19600383901b1c191690831b1781555b01910151918251906001600160401b0382116106975761193c8354612b97565b601f81116119de575b5080601f831160011461197f57508192935f92611974575b50505f19600383901b1c191660019190911b179055005b01519050838061195d565b90601f19831694845f52825f20925f905b8782106119c65750508360019596106119ae575b505050811b019055005b01515f1960f88460031b161c191690558380806119a4565b80600185968294968601518155019501930190611990565b835f52815f20601f840160051c810191838510611a17575b601f0160051c01905b818110611a0c5750611945565b5f81556001016119ff565b90915081906119f6565b015190508780611909565b90601f19831691845f52855f20925f5b87828210611a7c575050916001959492918387959310611a64575b505050811b01815561191c565b01515f1960f88460031b161c19169055878080611a57565b6001859682939686015181550195019301611a3c565b9091928094505f52855f20601f840160051c810191878510611ada575b90601f8896959493920160051c01905b818110611acc57506118ee565b5f8155879550600101611abf565b9091508190611aaf565b01519050888061189a565b601f95949392919519821695835f52855f20915f5b888110611b3e57508360019596979810611b26575b505050811b0190556118ae565b01515f1960f88460031b161c19169055888080611b19565b82820151845589976001909401939283019201611b04565b918094505f9591939552865f20601f840160051c810191888510611ba3575b90601f899694979593920160051c01905b818110611b9557505084611881565b5f8155889550600101611b86565b9091508190611b75565b015190508a80611841565b90601f19831691845f52895f20925f5b8b828210611c0b575050926001928592604098966002989610611bf3575b505050811b019055611855565b01515f1960f88460031b161c191690558a8080611be6565b6001859682939686015181550195019301611bc8565b835f52885f20601f840160051c8101918a8510611c5a575b601f0160051c01905b818110611c4f5750611822565b5f8155600101611c42565b9091508190611c39565b0151905087806117e2565b5f8581528981209350601f198516905b8a828210611cbc575050908460019594939210611ca4575b505050811b0181556117f6565b01515f1960f88460031b161c19169055878080611c97565b6001859682939686015181550195019301611c7f565b909150835f52875f20601f840160051c810191898510611d16575b90601f859493920160051c01905b818110611d0857506117cd565b5f8155849350600101611cfb565b9091508190611ced565b015190508b80611775565b90601f19831691845f528a5f20925f5b8c828210611d7e5750509260019285926005989660c0989610611d66575b505050811b019055611789565b01515f1960f88460031b161c191690558b8080611d59565b6001859682939686015181550195019301611d3b565b835f52895f20601f840160051c8101918b8510611dcd575b601f0160051c01905b818110611dc25750611756565b5f8155600101611db5565b9091508190611dac565b634e487b7160e01b5f52602160045260245ffd5b0151905089806116dd565b5f8581528b81209350601f198516905b8c828210611e43575050908460019594939210611e2b575b505050811b0190556116f1565b01515f1960f88460031b161c19169055898080611e1e565b6001859682939686015181550195019301611e06565b909150835f52895f20601f840160051c8101918b8510611e9d575b90601f859493920160051c01905b818110611e8f57506116c8565b5f8155849350600101611e82565b9091508190611e74565b015190508880611682565b600186015f9081528a81209350601f198516905b8b828210611f06575050908460019594939210611eee575b505050811b016001830155611699565b01515f1960f88460031b161c19169055888080611ede565b6001859682939686015181550195019301611ec6565b909150600185015f52885f20601f840160051c8101918a8510611f63575b90601f859493920160051c01905b818110611f55575061166d565b5f8155849350600101611f48565b9091508190611f3a565b01519050898061162f565b5f8781528b81209350601f198516905b8c828210611fc5575050908460019594939210611fad575b505050811b018355611643565b01515f1960f88460031b161c19169055898080611fa0565b6001859682939686015181550195019301611f88565b909150855f52895f20601f840160051c8101918b851061201f575b90601f859493920160051c01905b818110612011575061161a565b5f8155849350600101612004565b9091508190611ff6565b634e487b7160e01b5f525f60045260245ffd5b015190508980611561565b5f8581528b81209350601f198516905b8c82821061209457505090846001959493921061207c575b505050811b019055611575565b01515f1960f88460031b161c1916905589808061206f565b6001859682939686015181550195019301612057565b909150835f52895f20601f840160051c8101918b85106120ee575b90601f859493920160051c01905b8181106120e0575061154c565b5f81558493506001016120d3565b90915081906120c5565b015190508e806114fd565b9190601f198416855f52835f20935f905b828210612156575050926001928592600399989660ff98961061213f575b505050811b019055611510565b01515f19838a1b60f8161c191690558e8080612132565b80600186978294978701518155019601940190612114565b845f52815f2090601f850160051c82019285106121a9575b601f0160051c01905b81811061219e578d91506114da565b5f815560010161218f565b9091508190612186565b015190508c8061149c565b5f8881528181209450601f198616915b82821061220a5750509084600195949392106121f2575b505050811b0183556114b0565b01515f1960f88460031b161c191690558c80806121e5565b806001869782949787015181550196019401906121ce565b90919250865f52815f2090601f850160051c8201928510612269575b90601f859493920160051c01905b81811061225b578e9150611484565b5f815584935060010161224c565b909150819061223e565b346101bd575f3660031901126101bd5760025461228f81613196565b905f805b8282106122a85760405180610b378682612cbb565b6122d3600191610e5f6122bd610e4386613067565b60ff8316906122cc828a613213565b5287613213565b910190612293565b346101bd5760203660031901126101bd576004356001600160401b0381116101bd5760208061231161234e933690600401612aca565b604051928184925191829101835e81016005815203019020610b3761233a6001610f3f84612bcf565b604051938493604085526040850190612b1f565b908382036020850152612b1f565b346101bd5760e03660031901126101bd576004356001600160401b0381116101bd5761238c903690600401612aca565b6024356001600160401b0381116101bd576123ab903690600401612aca565b6044356001600160401b0381116101bd576123ca903690600401612aca565b6064356001600160401b0381116101bd576123e9903690600401612aca565b926123f2612b81565b60a435906001600160401b0382116101bd5761241561241f923690600401612aca565b9560c435946130e5565b604051906001855192602081818901958087835e810160038152030190200183516001600160401b038111610697576124588254612b97565b601f81116127c1575b506020601f821160011461275c5790806124989493925f91612751575b508160011b915f199060031b1c19161790555b8686613800565b600254935f5b8581106124a757005b6124b081613067565b506040516124c681610385602082018095613115565b51902060405160208101906124f36020828751808a875e81015f838201520301601f198101835282612aa9565b51902014612504575b60010161249e565b600161250f82613067565b500184516001600160401b0381116106975761252b8254612b97565b601f811161270c575b50806020601f82116001146126ab575f916126a0575b508160011b915f199060031b1c19161790555b600361256882613067565b5001805461ff001916610100179055600461258282613067565b500187516001600160401b0381116106975761259e8254612b97565b601f811161265b575b506020601f82116001146125f657908060019493925f916125eb575b505f19600383901b1c191690841b1790555b8560056125e183613067565b50015590506124fc565b90508a01518b6125c3565b601f19821690835f52805f20915f5b8c828210612643575050918391600196959487941061262b575b5050811b0190556125d5565b8c01515f1960f88460031b161c191690558b8061261f565b60018495602093958493015181550194019201612605565b825f5260205f20601f830160051c81019160208410612696575b601f0160051c01905b81811061268b57506125a7565b5f815560010161267e565b9091508190612675565b90508601518a61254a565b5f8481528181209250601f198416905b8181106126f4575090836001949392106126dc575b5050811b01905561255d565b8801515f1960f88460031b161c191690558a806126d0565b9192602060018192868d0151815501940192016126bb565b825f5260205f20601f830160051c81019160208410612747575b601f0160051c01905b81811061273c5750612534565b5f815560010161272f565b9091508190612726565b90508601518a61247e565b601f19821690835f52805f20915f5b8181106127a9575091839161249896959460019410612791575b5050811b019055612491565b8801515f1960f88460031b161c191690558a80612785565b9192602060018192868c01518155019401920161276b565b825f5260205f20601f830160051c810191602084106127fc575b601f0160051c01905b8181106127f15750612461565b5f81556001016127e4565b90915081906127db565b346101bd5760203660031901126101bd576004356001600160401b0381116101bd5760208061283c6128b5933690600401612aca565b604051928184925191829101835e81015f815203019020610b3760ff825416916128f56001820154916128e660028201546003830154600484015460058501549060068601549261288f60078801612c6f565b946128a8600d6128a1600a8b01612c6f565b9901612bcf565b996040519d8e809e612cae565b60208d015260408c015260608b015260808a015260a089015260c088015261014060e0880152610140870190612b43565b90858203610100870152612b43565b90838203610120850152612b1f565b346101bd5760603660031901126101bd576004356001600160401b0381116101bd57612934903690600401612aca565b6024356001600160401b0381116101bd57612953903690600401612aca565b906044356001600160a01b03811681036101bd57610b3792612974926130e5565b604051918291602083526020830190612b43565b346101bd5760203660031901126101bd576004356001600160401b0381116101bd576129bb6101bb913690600401612aca565b6130b7565b346101bd5760203660031901126101bd576004356001600160401b0381116101bd5761297460076020806129fb610b37953690600401612aca565b612a03613097565b50604051928184925191829101835e81015f81520301902001612c6f565b608081019081106001600160401b0382111761069757604052565b60e081019081106001600160401b0382111761069757604052565b606081019081106001600160401b0382111761069757604052565b604081019081106001600160401b0382111761069757604052565b61014081019081106001600160401b0382111761069757604052565b90601f801991011681019081106001600160401b0382111761069757604052565b81601f820112156101bd578035906001600160401b0382116106975760405192612afe601f8401601f191660200185612aa9565b828452602083830101116101bd57815f926020809301838601378301015290565b805180835260209291819084018484015e5f828201840152601f01601f1916010190565b906040612b6e612b5c8451606085526060850190612b1f565b60208501518482036020860152612b1f565b928101516001600160a01b031691015290565b608435906001600160a01b03821682036101bd57565b90600182811c92168015612bc5575b6020831014612bb157565b634e487b7160e01b5f52602260045260245ffd5b91607f1691612ba6565b9060405191825f825492612be284612b97565b8084529360018116908115612c4d5750600114612c09575b50612c0792500383612aa9565b565b90505f9291925260205f20905f915b818310612c31575050906020612c07928201015f612bfa565b6020919350806001915483858901015201910190918492612c18565b905060209250612c0794915060ff191682840152151560051b8201015f612bfa565b90604051612c7c81612a57565b60408193612c8981612bcf565b8352612c9760018201612bcf565b6020840152600201546001600160a01b0316910152565b906007821015611dd75752565b602081016020825282518091526040820191602060408360051b8301019401925f915b838310612ced57505050505090565b9091929394602080600192603f1985820301865288519060c080612d76612d45612d33612d23875160e0885260e0880190612b1f565b888801518782038a890152612b1f565b60408701518682036040880152612b1f565b60ff6060870151166060860152612d6460808701516080870190612cae565b60a086015185820360a0870152612b1f565b93015191015297019301930191939290612cde565b91906060838203126101bd5760405190612da482612a57565b819380356001600160401b0381116101bd5782612dc2918301612aca565b835260208101356001600160401b0381116101bd5782612de3918301612aca565b60208401526040810135916001600160401b0383116101bd57604092612e099201612aca565b910152565b91906040838203126101bd5760405190612e2782612a72565b819380356001600160401b0381116101bd5782612e45918301612aca565b83526020810135916001600160401b0383116101bd57602092612e099201612aca565b60406003198201126101bd57600435906001600160401b0382116101bd57612e9291600401612aca565b9060243590565b90612f3a9160208152612eb0602082018351612cae565b602082015160408201526040820151606082015260608201516080820152608082015160a082015260a082015160c082015260c082015160e0820152610120612f24612f0e60e0850151610140610100860152610160850190612b43565b610100850151848203601f190184860152612b43565b92015190610140601f1982850301910152612b1f565b90565b9060406003198301126101bd576004356001600160401b0381116101bd5782612f6891600401612aca565b91602435906001600160401b0382116101bd57612f3a91600401612aca565b91906060838203126101bd5760405190612fa082612a57565b819380356001600160401b0381116101bd5782612fbe918301612aca565b835260208101356001600160401b0381116101bd57604092612fe1918301612aca565b60208401520135906001600160a01b03821682036101bd5760400152565b60606003198201126101bd576004356001600160401b0381116101bd578161302991600401612aca565b916024356001600160401b0381116101bd578261304891600401612aca565b91604435906001600160401b0382116101bd57612f3a91600401612f87565b6002548110156130835760025f52600660205f20910201905f90565b634e487b7160e01b5f52603260045260245ffd5b604051906130a482612a57565b5f60408360608152606060208201520152565b60208091604051928184925191829101835e81015f815203019020426004820155600360ff19825416179055565b91906130ef613097565b50604051926130fd84612a57565b835260208301526001600160a01b0316604082015290565b5f929181549161312483612b97565b926001811690811561316c575060011461313d57505050565b90919293505f5260205f205f905b8382106131585750500190565b60018160209254848601520191019061314b565b60ff191683525050811515909102019150565b6001600160401b0381116106975760051b60200190565b906131a08261317f565b6131ad6040519182612aa9565b82815280926131be601f199161317f565b01905f5b8281106131ce57505050565b6020906040516131dd81612a3c565b60608152606083820152606060408201525f60608201525f6080820152606060a08201525f60c0820152828285010152016131c2565b80518210156130835760209160051b010190565b6007821015611dd75752565b9060405161324081612a3c565b60c06005829461324f81612bcf565b845261325d60018201612bcf565b602085015261326e60028201612bcf565b604085015261329260ff6003830154818116606088015260081c1660808601613227565b61329e60048201612bcf565b60a08501520154910152565b60ff1660ff8114610c535760010190565b6040518151612f3a92602091839181908401835e81016001815203019020612bcf565b904211156133145760208091604051928184925191829101835e81015f815203019020426006820155600560ff19825416179055565b60405162461bcd60e51b815260206004820152601860248201527f536572746966696b6174206d61736968206265726c616b7500000000000000006044820152606490fd5b6040519061336682612a8d565b6060610120835f81525f60208201525f60408201525f838201525f60808201525f60a08201525f60c082015261339a613097565b60e08201526133a7613097565b6101008201520152565b602080916133bd613359565b50604051928184925191829101835e81015f81520301902061345a600d604051926133e784612a8d565b6133f560ff82541685613227565b60018101546020850152600281015460408501526003810154606085015260048101546080850152600581015460a0850152600681015460c085015261343d60078201612c6f565b60e085015261344e600a8201612c6f565b61010085015201612bcf565b61012082015290565b92919060405160208551918181818901948086835e81015f81520301902095604051928391518091835e81016001815203019020908051906001600160401b0382116106975781906134b58454612b97565b601f81116137b0575b50602090601f831160011461374d575f92613742575b50508160011b915f199060031b1c19161790555b80518051600a8501916001600160401b038211610697576135098354612b97565b601f81116136fd575b50602090601f8311600114613696576020949392915f918361368b575b50508160011b915f199060031b1c19161790555b6040810151600c850180546001600160a01b0319166001600160a01b039290921691909117905501518051909290600b8201906001600160401b0381116106975761358e8254612b97565b601f8111613646575b50602094601f82116001146135e5579481929394955f926135da575b50508160011b915f199060031b1c19161790555b426003820155805460ff19166002179055565b015190505f806135b3565b601f19821695835f52805f20915f5b88811061362e57508360019596979810613616575b505050811b0190556135c7565b01515f1960f88460031b161c191690555f8080613609565b919260206001819286850151815501940192016135f4565b825f5260205f20601f830160051c81019160208410613681575b601f0160051c01905b8181106136765750613597565b5f8155600101613669565b9091508190613660565b015190505f8061352f565b90601f19831691845f52815f20925f5b8181106136e55750916001939185602098979694106136cd575b505050811b019055613543565b01515f1960f88460031b161c191690555f80806136c0565b929360206001819287860151815501950193016136a6565b835f5260205f20601f840160051c81019160208510613738575b601f0160051c01905b81811061372d5750613512565b5f8155600101613720565b9091508190613717565b015190505f806134d4565b5f8581528281209350601f198516905b8181106137985750908460019594939210613780575b505050811b0190556134e8565b01515f1960f88460031b161c191690555f8080613773565b9293602060018192878601518155019501930161375d565b909150835f5260205f20601f840160051c810191602085106137f6575b90601f859493920160051c01905b8181106137e857506134be565b5f81558493506001016137db565b90915081906137cd565b6020809194939294604051928184925191829101835e81015f815203019020908051600a8301908051906001600160401b038211610697576138428354612b97565b601f8111613b4e575b50602090601f8311600114613ae7576020949392915f9183613adc575b50508160011b915f199060031b1c19161790555b6040810151600c840180546001600160a01b0319166001600160a01b039290921691909117905501518051600b8301916001600160401b0382116106975781906138c68454612b97565b601f8111613a8c575b50602090601f8311600114613a29575f92613a1e575b50508160011b915f199060031b1c19161790555b4260028201556082420190814211610c5357600d916005820155600160ff198254161781550182516001600160401b038111610697576139398254612b97565b601f81116139d9575b506020601f821160011461397b57819293945f92613970575b50508160011b915f199060031b1c1916179055565b015190505f8061395b565b601f19821690835f52805f20915f5b8181106139c1575095836001959697106139a9575b505050811b019055565b01515f1960f88460031b161c191690555f808061399f565b9192602060018192868b01518155019401920161398a565b825f5260205f20601f830160051c81019160208410613a14575b601f0160051c01905b818110613a095750613942565b5f81556001016139fc565b90915081906139f3565b015190505f806138e5565b5f8581528281209350601f198516905b818110613a745750908460019594939210613a5c575b505050811b0190556138f9565b01515f1960f88460031b161c191690555f8080613a4f565b92936020600181928786015181550195019301613a39565b909150835f5260205f20601f840160051c81019160208510613ad2575b90601f859493920160051c01905b818110613ac457506138cf565b5f8155849350600101613ab7565b9091508190613aa9565b015190505f80613868565b90601f19831691845f52815f20925f5b818110613b36575091600193918560209897969410613b1e575b505050811b01905561387c565b01515f1960f88460031b161c191690555f8080613b11565b92936020600181928786015181550195019301613af7565b835f5260205f20601f840160051c81019160208510613b89575b601f0160051c01905b818110613b7e575061384b565b5f8155600101613b71565b9091508190613b68565b60208091939293604051928184925191829101835e81015f8152030190204260028201556082420190814211610c5357600d916005820155600660ff198254161781550182516001600160401b03811161069757613bf18254612b97565b601f8111613c6c575b506020601f8211600114613c2757819293945f926139705750508160011b915f199060031b1c1916179055565b601f19821690835f52805f20915f5b818110613c54575095836001959697106139a957505050811b019055565b9192602060018192868b015181550194019201613c36565b825f5260205f20601f830160051c81019160208410613ca7575b601f0160051c01905b818110613c9c5750613bfa565b5f8155600101613c8f565b9091508190613c86565b929091604051613cc081612a8d565b5f81526020810194428652604082015f8152606083015f8152608084015f815260a08501915f835260c08601935f855260e087019586526101008701998a5260209a8b806040519a613d12828d612aa9565b5f8c526101208b019b8c52604051928184925191829101835e81015f81520301902097516007811015611dd75760ff80198a541691161788555160018801555160028701555160038601555160048501555160058401555160068301556007820190519081518051906001600160401b038211610697578190613d958454612b97565b601f81116142a2575b508990601f831160011461423f575f92614234575b50508160011b915f199060031b1c19161790555b60088201868201518051906001600160401b038211610697578190613dec8454612b97565b601f81116141e6575b508990601f8311600114614183575f92614178575b50508160011b915f199060031b1c19161790555b604001516009820180546001600160a01b0319166001600160a01b0392909216919091179055925180518051919491600a8301916001600160401b038211610697578190613e6c8454612b97565b601f811161412a575b508890601f83116001146140c7575f926140bc575b50508160011b915f199060031b1c19161790555b600b81019385810151948551956001600160401b03871161069757613ec38254612b97565b601f8111614079575b508790601f881160011461401257968091600d9697985f92614007575b50508160011b915f199060031b1c19161790555b60400151600c820180546001600160a01b0319166001600160a01b03929092169190911790559151805190949190920191906001600160401b03821161069757613f478354612b97565b601f8111613fc4575b5080601f8311600114613f7d5750819293945f926139705750508160011b915f199060031b1c1916179055565b90601f19831695845f52825f20925f905b888210613fac575050836001959697106139a957505050811b019055565b80600185968294968601518155019501930190613f8e565b835f52815f20601f840160051c810191838510613ffd575b601f0160051c01905b818110613ff25750613f50565b5f8155600101613fe5565b9091508190613fdc565b015190505f80613ee9565b90601f19881691835f52895f20925f5b8b82821061406357505091600193918a600d999a9b941061404b575b505050811b019055613efd565b01515f1960f88460031b161c191690555f808061403e565b6001859682939686015181550195019301614022565b825f52885f20601f890160051c8101918a8a106140b2575b601f0160051c01905b8181106140a75750613ecc565b5f815560010161409a565b9091508190614091565b015190505f80613e8a565b5f8581528a81209350601f198516905b8b8282106141145750509084600195949392106140fc575b505050811b019055613e9e565b01515f1960f88460031b161c191690555f80806140ef565b60018596829396860151815501950193016140d7565b909150835f52885f20601f840160051c8101918a851061416e575b90601f859493920160051c01905b8181106141605750613e75565b5f8155849350600101614153565b9091508190614145565b015190505f80613e0a565b5f8581528b81209350601f198516905b8c8282106141d05750509084600195949392106141b8575b505050811b019055613e1e565b01515f1960f88460031b161c191690555f80806141ab565b6001859682939686015181550195019301614193565b909150835f52895f20601f840160051c8101918b851061422a575b90601f859493920160051c01905b81811061421c5750613df5565b5f815584935060010161420f565b9091508190614201565b015190505f80613db3565b5f8581528b81209350601f198516905b8c82821061428c575050908460019594939210614274575b505050811b019055613dc7565b01515f1960f88460031b161c191690555f8080614267565b600185968293968601518155019501930161424f565b909150835f52895f20601f840160051c8101918b85106142e6575b90601f859493920160051c01905b8181106142d85750613d9e565b5f81558493506001016142cb565b90915081906142bd56fea2646970667358221220e6b01775f0129ee13e48ed376bf40e81945fb2393490bca83baf50f7a01b4cf564736f6c634300081b0033",
  "linkReferences": {},
  "deployedLinkReferences": {}
}