{
  "_format": "hh-sol-artifact-1",
  "contractName": "CpotbCertificate",
  "sourceName": "contracts/CpotbCertificate.sol",
  "abi": [
    {
      "inputs": [
        {
          "internalType": "uint256",
          "name": "",
          "type": "uint256"
        }
      ],
      "name": "AllCpotbData",
      "outputs": [
        {
          "internalType": "string",
          "name": "certId",
          "type": "string"
        },
        {
          "internalType": "string",
          "name": "certNumber",
          "type": "string"
        },
        {
          "internalType": "string",
          "name": "instanceName",
          "type": "string"
        },
        {
          "internalType": "uint8",
          "name": "tipePermohonan",
          "type": "uint8"
        },
        {
          "internalType": "enum EnumsLibrary.StatusCertificate",
          "name": "status",
          "type": "uint8"
        },
        {
          "internalType": "string",
          "name": "certHash",
          "type": "string"
        }
      ],
      "stateMutability": "view",
      "type": "function"
    },
    {
      "inputs": [
        {
          "internalType": "string",
          "name": "",
          "type": "string"
        }
      ],
      "name": "CertDetailsById",
      "outputs": [
        {
          "internalType": "enum EnumsLibrary.StatusCertificate",
          "name": "status",
          "type": "uint8"
        },
        {
          "internalType": "uint256",
          "name": "timestampRequest",
          "type": "uint256"
        },
        {
          "internalType": "uint256",
          "name": "timestampApprove",
          "type": "uint256"
        },
        {
          "internalType": "uint256",
          "name": "timestampRejected",
          "type": "uint256"
        },
        {
          "internalType": "uint256",
          "name": "timestsmpRenewRequest",
          "type": "uint256"
        },
        {
          "components": [
            {
              "internalType": "string",
              "name": "userName",
              "type": "string"
            },
            {
              "internalType": "string",
              "name": "userInstance",
              "type": "string"
            },
            {
              "internalType": "address",
              "name": "userAddr",
              "type": "address"
            }
          ],
          "internalType": "struct BaseCertificate.UserCert",
          "name": "sender",
          "type": "tuple"
        },
        {
          "components": [
            {
              "internalType": "string",
              "name": "userName",
              "type": "string"
            },
            {
              "internalType": "string",
              "name": "userInstance",
              "type": "string"
            },
            {
              "internalType": "address",
              "name": "userAddr",
              "type": "address"
            }
          ],
          "internalType": "struct BaseCertificate.UserCert",
          "name": "bpom",
          "type": "tuple"
        },
        {
          "internalType": "string",
          "name": "ipfsCert",
          "type": "string"
        }
      ],
      "stateMutability": "view",
      "type": "function"
    },
    {
      "inputs": [
        {
          "internalType": "string",
          "name": "",
          "type": "string"
        }
      ],
      "name": "CpotbDataById",
      "outputs": [
        {
          "internalType": "string",
          "name": "cpotbId",
          "type": "string"
        },
        {
          "internalType": "string",
          "name": "cpotbNumber",
          "type": "string"
        },
        {
          "internalType": "uint8",
          "name": "tipePermohonan",
          "type": "uint8"
        },
        {
          "internalType": "string",
          "name": "factoryType",
          "type": "string"
        }
      ],
      "stateMutability": "view",
      "type": "function"
    },
    {
      "inputs": [
        {
          "internalType": "string",
          "name": "",
          "type": "string"
        }
      ],
      "name": "DokuAdminById",
      "outputs": [
        {
          "internalType": "string",
          "name": "suratPermohonan",
          "type": "string"
        },
        {
          "internalType": "string",
          "name": "buktiPembayaranNegaraBukanPajak",
          "type": "string"
        },
        {
          "internalType": "string",
          "name": "suratKomitmen",
          "type": "string"
        }
      ],
      "stateMutability": "view",
      "type": "function"
    },
    {
      "inputs": [
        {
          "internalType": "string",
          "name": "",
          "type": "string"
        }
      ],
      "name": "DokuTeknisById",
      "outputs": [
        {
          "internalType": "string",
          "name": "denahBangunan",
          "type": "string"
        },
        {
          "internalType": "string",
          "name": "sistemMutu",
          "type": "string"
        }
      ],
      "stateMutability": "view",
      "type": "function"
    },
    {
      "inputs": [
        {
          "internalType": "string",
          "name": "",
          "type": "string"
        }
      ],
      "name": "RejectMsgById",
      "outputs": [
        {
          "internalType": "string",
          "name": "",
          "type": "string"
        }
      ],
      "stateMutability": "view",
      "type": "function"
    },
    {
      "inputs": [
        {
          "internalType": "string",
          "name": "_certNumber",
          "type": "string"
        },
        {
          "internalType": "string",
          "name": "_certId",
          "type": "string"
        },
        {
          "internalType": "string",
          "name": "_bpomName",
          "type": "string"
        },
        {
          "internalType": "string",
          "name": "_bpomInstance",
          "type": "string"
        },
        {
          "internalType": "address",
          "name": "_bpomAddr",
          "type": "address"
        },
        {
          "internalType": "string",
          "name": "_ipfsCert",
          "type": "string"
        }
      ],
      "name": "approveCpotb",
      "outputs": [],
      "stateMutability": "nonpayable",
      "type": "function"
    },
    {
      "inputs": [
        {
          "components": [
            {
              "internalType": "string",
              "name": "userName",
              "type": "string"
            },
            {
              "internalType": "string",
              "name": "userInstance",
              "type": "string"
            },
            {
              "internalType": "address",
              "name": "userAddr",
              "type": "address"
            }
          ],
          "internalType": "struct BaseCertificate.UserCert",
          "name": "_sender",
          "type": "tuple"
        },
        {
          "components": [
            {
              "internalType": "string",
              "name": "userName",
              "type": "string"
            },
            {
              "internalType": "string",
              "name": "userInstance",
              "type": "string"
            },
            {
              "internalType": "address",
              "name": "userAddr",
              "type": "address"
            }
          ],
          "internalType": "struct BaseCertificate.UserCert",
          "name": "_bpom",
          "type": "tuple"
        },
        {
          "internalType": "string",
          "name": "_certId",
          "type": "string"
        }
      ],
      "name": "createCertificateDetails",
      "outputs": [],
      "stateMutability": "nonpayable",
      "type": "function"
    },
    {
      "inputs": [
        {
          "internalType": "string",
          "name": "_userName",
          "type": "string"
        },
        {
          "internalType": "string",
          "name": "_userInstance",
          "type": "string"
        },
        {
          "internalType": "address",
          "name": "_userAddr",
          "type": "address"
        }
      ],
      "name": "createUserCertificate",
      "outputs": [
        {
          "components": [
            {
              "internalType": "string",
              "name": "userName",
              "type": "string"
            },
            {
              "internalType": "string",
              "name": "userInstance",
              "type": "string"
            },
            {
              "internalType": "address",
              "name": "userAddr",
              "type": "address"
            }
          ],
          "internalType": "struct BaseCertificate.UserCert",
          "name": "",
          "type": "tuple"
        }
      ],
      "stateMutability": "pure",
      "type": "function"
    },
    {
      "inputs": [],
      "name": "getAllCpotb",
      "outputs": [
        {
          "components": [
            {
              "internalType": "string",
              "name": "certId",
              "type": "string"
            },
            {
              "internalType": "string",
              "name": "certNumber",
              "type": "string"
            },
            {
              "internalType": "string",
              "name": "instanceName",
              "type": "string"
            },
            {
              "internalType": "uint8",
              "name": "tipePermohonan",
              "type": "uint8"
            },
            {
              "internalType": "enum EnumsLibrary.StatusCertificate",
              "name": "status",
              "type": "uint8"
            },
            {
              "internalType": "string",
              "name": "certHash",
              "type": "string"
            }
          ],
          "internalType": "struct CpotbCertificate.CertificateList[]",
          "name": "",
          "type": "tuple[]"
        }
      ],
      "stateMutability": "view",
      "type": "function"
    },
    {
      "inputs": [
        {
          "internalType": "string",
          "name": "_instanceName",
          "type": "string"
        }
      ],
      "name": "getAllCpotbByInstance",
      "outputs": [
        {
          "components": [
            {
              "internalType": "string",
              "name": "certId",
              "type": "string"
            },
            {
              "internalType": "string",
              "name": "certNumber",
              "type": "string"
            },
            {
              "internalType": "string",
              "name": "instanceName",
              "type": "string"
            },
            {
              "internalType": "uint8",
              "name": "tipePermohonan",
              "type": "uint8"
            },
            {
              "internalType": "enum EnumsLibrary.StatusCertificate",
              "name": "status",
              "type": "uint8"
            },
            {
              "internalType": "string",
              "name": "certHash",
              "type": "string"
            }
          ],
          "internalType": "struct CpotbCertificate.CertificateList[]",
          "name": "",
          "type": "tuple[]"
        }
      ],
      "stateMutability": "view",
      "type": "function"
    },
    {
      "inputs": [
        {
          "internalType": "string",
          "name": "_certId",
          "type": "string"
        }
      ],
      "name": "getCertDetail",
      "outputs": [
        {
          "components": [
            {
              "internalType": "enum EnumsLibrary.StatusCertificate",
              "name": "status",
              "type": "uint8"
            },
            {
              "internalType": "uint256",
              "name": "timestampRequest",
              "type": "uint256"
            },
            {
              "internalType": "uint256",
              "name": "timestampApprove",
              "type": "uint256"
            },
            {
              "internalType": "uint256",
              "name": "timestampRejected",
              "type": "uint256"
            },
            {
              "internalType": "uint256",
              "name": "timestsmpRenewRequest",
              "type": "uint256"
            },
            {
              "components": [
                {
                  "internalType": "string",
                  "name": "userName",
                  "type": "string"
                },
                {
                  "internalType": "string",
                  "name": "userInstance",
                  "type": "string"
                },
                {
                  "internalType": "address",
                  "name": "userAddr",
                  "type": "address"
                }
              ],
              "internalType": "struct BaseCertificate.UserCert",
              "name": "sender",
              "type": "tuple"
            },
            {
              "components": [
                {
                  "internalType": "string",
                  "name": "userName",
                  "type": "string"
                },
                {
                  "internalType": "string",
                  "name": "userInstance",
                  "type": "string"
                },
                {
                  "internalType": "address",
                  "name": "userAddr",
                  "type": "address"
                }
              ],
              "internalType": "struct BaseCertificate.UserCert",
              "name": "bpom",
              "type": "tuple"
            },
            {
              "internalType": "string",
              "name": "ipfsCert",
              "type": "string"
            }
          ],
          "internalType": "struct BaseCertificate.CertificateDetails",
          "name": "",
          "type": "tuple"
        }
      ],
      "stateMutability": "view",
      "type": "function"
    },
    {
      "inputs": [
        {
          "internalType": "string",
          "name": "_certId",
          "type": "string"
        }
      ],
      "name": "getCertDetails",
      "outputs": [
        {
          "components": [
            {
              "internalType": "enum EnumsLibrary.StatusCertificate",
              "name": "status",
              "type": "uint8"
            },
            {
              "internalType": "uint256",
              "name": "timestampRequest",
              "type": "uint256"
            },
            {
              "internalType": "uint256",
              "name": "timestampApprove",
              "type": "uint256"
            },
            {
              "internalType": "uint256",
              "name": "timestampRejected",
              "type": "uint256"
            },
            {
              "internalType": "uint256",
              "name": "timestsmpRenewRequest",
              "type": "uint256"
            },
            {
              "components": [
                {
                  "internalType": "string",
                  "name": "userName",
                  "type": "string"
                },
                {
                  "internalType": "string",
                  "name": "userInstance",
                  "type": "string"
                },
                {
                  "internalType": "address",
                  "name": "userAddr",
                  "type": "address"
                }
              ],
              "internalType": "struct BaseCertificate.UserCert",
              "name": "sender",
              "type": "tuple"
            },
            {
              "components": [
                {
                  "internalType": "string",
                  "name": "userName",
                  "type": "string"
                },
                {
                  "internalType": "string",
                  "name": "userInstance",
                  "type": "string"
                },
                {
                  "internalType": "address",
                  "name": "userAddr",
                  "type": "address"
                }
              ],
              "internalType": "struct BaseCertificate.UserCert",
              "name": "bpom",
              "type": "tuple"
            },
            {
              "internalType": "string",
              "name": "ipfsCert",
              "type": "string"
            }
          ],
          "internalType": "struct BaseCertificate.CertificateDetails",
          "name": "",
          "type": "tuple"
        }
      ],
      "stateMutability": "view",
      "type": "function"
    },
    {
      "inputs": [
        {
          "internalType": "string",
          "name": "_certId",
          "type": "string"
        }
      ],
      "name": "getCpotbDetails",
      "outputs": [
        {
          "components": [
            {
              "internalType": "string",
              "name": "cpotbId",
              "type": "string"
            },
            {
              "internalType": "string",
              "name": "cpotbNumber",
              "type": "string"
            },
            {
              "internalType": "uint8",
              "name": "tipePermohonan",
              "type": "uint8"
            },
            {
              "internalType": "string",
              "name": "factoryType",
              "type": "string"
            }
          ],
          "internalType": "struct CpotbCertificate.CpotbData",
          "name": "",
          "type": "tuple"
        },
        {
          "components": [
            {
              "internalType": "string",
              "name": "suratPermohonan",
              "type": "string"
            },
            {
              "internalType": "string",
              "name": "buktiPembayaranNegaraBukanPajak",
              "type": "string"
            },
            {
              "internalType": "string",
              "name": "suratKomitmen",
              "type": "string"
            }
          ],
          "internalType": "struct CpotbCertificate.DokumenAdministrasi",
          "name": "",
          "type": "tuple"
        },
        {
          "components": [
            {
              "internalType": "string",
              "name": "denahBangunan",
              "type": "string"
            },
            {
              "internalType": "string",
              "name": "sistemMutu",
              "type": "string"
            }
          ],
          "internalType": "struct CpotbCertificate.DokumenTeknis",
          "name": "",
          "type": "tuple"
        }
      ],
      "stateMutability": "view",
      "type": "function"
    },
    {
      "inputs": [
        {
          "internalType": "string",
          "name": "_certId",
          "type": "string"
        }
      ],
      "name": "getRejectMsg",
      "outputs": [
        {
          "internalType": "string",
          "name": "",
          "type": "string"
        }
      ],
      "stateMutability": "view",
      "type": "function"
    },
    {
      "inputs": [
        {
          "internalType": "string",
          "name": "_certId",
          "type": "string"
        }
      ],
      "name": "getRejectsMsg",
      "outputs": [
        {
          "internalType": "string",
          "name": "",
          "type": "string"
        }
      ],
      "stateMutability": "view",
      "type": "function"
    },
    {
      "inputs": [
        {
          "internalType": "string",
          "name": "_certId",
          "type": "string"
        }
      ],
      "name": "getSenderDetail",
      "outputs": [
        {
          "components": [
            {
              "internalType": "string",
              "name": "userName",
              "type": "string"
            },
            {
              "internalType": "string",
              "name": "userInstance",
              "type": "string"
            },
            {
              "internalType": "address",
              "name": "userAddr",
              "type": "address"
            }
          ],
          "internalType": "struct BaseCertificate.UserCert",
          "name": "",
          "type": "tuple"
        }
      ],
      "stateMutability": "view",
      "type": "function"
    },
    {
      "inputs": [
        {
          "internalType": "string",
          "name": "_certId",
          "type": "string"
        },
        {
          "internalType": "string",
          "name": "_rejectMsg",
          "type": "string"
        },
        {
          "internalType": "string",
          "name": "_bpomName",
          "type": "string"
        },
        {
          "internalType": "string",
          "name": "_bpomInstance",
          "type": "string"
        },
        {
          "internalType": "address",
          "name": "_bpomAddr",
          "type": "address"
        }
      ],
      "name": "rejectCpotb",
      "outputs": [],
      "stateMutability": "nonpayable",
      "type": "function"
    },
    {
      "inputs": [
        {
          "internalType": "string",
          "name": "_certId",
          "type": "string"
        },
        {
          "components": [
            {
              "internalType": "string",
              "name": "suratPermohonan",
              "type": "string"
            },
            {
              "internalType": "string",
              "name": "buktiPembayaranNegaraBukanPajak",
              "type": "string"
            },
            {
              "internalType": "string",
              "name": "suratKomitmen",
              "type": "string"
            }
          ],
          "internalType": "struct CpotbCertificate.DokumenAdministrasi",
          "name": "newDokuAdmin",
          "type": "tuple"
        },
        {
          "components": [
            {
              "internalType": "string",
              "name": "denahBangunan",
              "type": "string"
            },
            {
              "internalType": "string",
              "name": "sistemMutu",
              "type": "string"
            }
          ],
          "internalType": "struct CpotbCertificate.DokumenTeknis",
          "name": "newDokuTeknis",
          "type": "tuple"
        }
      ],
      "name": "renewRequestCpotb",
      "outputs": [],
      "stateMutability": "nonpayable",
      "type": "function"
    },
    {
      "inputs": [
        {
          "internalType": "string",
          "name": "_certId",
          "type": "string"
        },
        {
          "internalType": "string",
          "name": "_factoryName",
          "type": "string"
        },
        {
          "internalType": "string",
          "name": "_factoryInstance",
          "type": "string"
        },
        {
          "internalType": "address",
          "name": "_factoryAddr",
          "type": "address"
        },
        {
          "internalType": "uint8",
          "name": "_tipePermohonanCpotb",
          "type": "uint8"
        },
        {
          "internalType": "string",
          "name": "_factoryType",
          "type": "string"
        },
        {
          "components": [
            {
              "internalType": "string",
              "name": "suratPermohonan",
              "type": "string"
            },
            {
              "internalType": "string",
              "name": "buktiPembayaranNegaraBukanPajak",
              "type": "string"
            },
            {
              "internalType": "string",
              "name": "suratKomitmen",
              "type": "string"
            }
          ],
          "internalType": "struct CpotbCertificate.DokumenAdministrasi",
          "name": "_dokuAdmin",
          "type": "tuple"
        },
        {
          "components": [
            {
              "internalType": "string",
              "name": "denahBangunan",
              "type": "string"
            },
            {
              "internalType": "string",
              "name": "sistemMutu",
              "type": "string"
            }
          ],
          "internalType": "struct CpotbCertificate.DokumenTeknis",
          "name": "_dokuTeknis",
          "type": "tuple"
        }
      ],
      "name": "requestCpotb",
      "outputs": [],
      "stateMutability": "nonpayable",
      "type": "function"
    },
    {
      "inputs": [
        {
          "internalType": "string",
          "name": "_certId",
          "type": "string"
        },
        {
          "internalType": "string",
          "name": "_ipfsCert",
          "type": "string"
        },
        {
          "components": [
            {
              "internalType": "string",
              "name": "userName",
              "type": "string"
            },
            {
              "internalType": "string",
              "name": "userInstance",
              "type": "string"
            },
            {
              "internalType": "address",
              "name": "userAddr",
              "type": "address"
            }
          ],
          "internalType": "struct BaseCertificate.UserCert",
          "name": "_bpom",
          "type": "tuple"
        }
      ],
      "name": "updateBpomApproveDetails",
      "outputs": [],
      "stateMutability": "nonpayable",
      "type": "function"
    },
    {
      "inputs": [
        {
          "internalType": "string",
          "name": "_certId",
          "type": "string"
        },
        {
          "internalType": "string",
          "name": "_rejectMsg",
          "type": "string"
        },
        {
          "components": [
            {
              "internalType": "string",
              "name": "userName",
              "type": "string"
            },
            {
              "internalType": "string",
              "name": "userInstance",
              "type": "string"
            },
            {
              "internalType": "address",
              "name": "userAddr",
              "type": "address"
            }
          ],
          "internalType": "struct BaseCertificate.UserCert",
          "name": "_bpom",
          "type": "tuple"
        }
      ],
      "name": "updateBpomRejectDetails",
      "outputs": [],
      "stateMutability": "nonpayable",
      "type": "function"
    },
    {
      "inputs": [
        {
          "internalType": "string",
          "name": "_certId",
          "type": "string"
        }
      ],
      "name": "updateRenewDetails",
      "outputs": [],
      "stateMutability": "nonpayable",
      "type": "function"
    }
  ],
  "bytecode": "0x60808060405234601557613e71908161001a8239f35b5f80fdfe60806040526004361015610011575f80fd5b5f3560e01c806308b10db31461277657806317e683091461271557806319859c87146126dd5780632e9cf827146126595780632f4ba1d5146126035780635850607c1461259b57806364b409ff146115f45780636d1aa7d51461134757806370c056b014611396578063761fb19a1461134757806381fc60a5146111d85780639aaa5d8b1461119d5780639ba3e6b0146110db5780639d38109314611027578063b9e4908014610b92578063be2e232514610b42578063d0e5da8914610a9b578063dd963753146109b0578063e462dde514610879578063e8002b27146101c3578063e9c260d7146101ac578063f5104ff1146101955763fb5fb9a314610116575f80fd5b34610191576060366003190112610191576004356001600160401b03811161019157610146903690600401612cf3565b6024356001600160401b03811161019157610165903690600401612cf3565b90604435916001600160401b0383116101915761018961018f9336906004016128a0565b91613819565b005b5f80fd5b346101915761018f6101a636612d6b565b9161349c565b346101915761018f6101bd36612d6b565b916130ff565b34610191576060366003190112610191576004356001600160401b038111610191576101f39036906004016128a0565b6024356001600160401b03811161019157610212903690600401612b1a565b906044356001600160401b03811161019157610232903690600401612b9d565b61023b82612df3565b602082015f5b60025481101561018f5761025481612c84565b506040516102788161026a602082018095612faf565b03601f19810183528261287f565b51902060405160208101906102a560208289518089875e81015f838201520301601f19810183528261287f565b519020146102b6575b600101610241565b60036102c182612c84565b5001805461ff0019166103001790556102eb60206102de83612c84565b5060405192838092612faf565b600481520301902085518051906001600160401b03821161057c57819061031284546128f5565b601f8111610829575b50602090601f83116001146107c6575f926107bb575b50508160011b915f199060031b1c19161781555b6001810160208701518051906001600160401b03821161057c5761036983546128f5565b601f8111610776575b50602090601f831160011461070f576002949392915f9183610704575b50508160011b915f199060031b1c19161790555b0160408601518051906001600160401b03821161057c5781906103c684546128f5565b601f81116106b4575b50602090601f8311600114610651575f92610646575b50508160011b915f199060031b1c19161790555b61040760206102de83612c84565b600581520301902083518051906001600160401b03821161057c5761042c83546128f5565b601f8111610601575b50602090601f831160011461059b5760019392915f9183610590575b50505f19600383901b1c191690831b1781555b0160208401518051906001600160401b03821161057c5761048583546128f5565b601f8111610537575b50602090601f83116001146104d0576001949392915f91836104c5575b50505f19600383901b1c191690841b1790555b90506102ae565b0151905089806104ab565b90601f19831691845f52815f20925f5b81811061051f575091600196959492918388959310610507575b505050811b0190556104be565b01515f1960f88460031b161c191690558980806104fa565b929360206001819287860151815501950193016104e0565b835f5260205f20601f840160051c81019160208510610572575b601f0160051c01905b818110610567575061048e565b5f815560010161055a565b9091508190610551565b634e487b7160e01b5f52604160045260245ffd5b015190508980610451565b90601f19831691845f52815f20925f5b8181106105e957509160019594929183879593106105d1575b505050811b018155610464565b01515f1960f88460031b161c191690558980806105c4565b929360206001819287860151815501950193016105ab565b835f5260205f20601f840160051c8101916020851061063c575b601f0160051c01905b8181106106315750610435565b5f8155600101610624565b909150819061061b565b0151905088806103e5565b5f8581528281209350601f198516905b81811061069c5750908460019594939210610684575b505050811b0190556103f9565b01515f1960f88460031b161c19169055888080610677565b92936020600181928786015181550195019301610661565b909150835f5260205f20601f840160051c810191602085106106fa575b90601f859493920160051c01905b8181106106ec57506103cf565b5f81558493506001016106df565b90915081906106d1565b015190508a8061038f565b90601f19831691845f52815f20925f5b81811061075e575091600193918560029897969410610746575b505050811b0190556103a3565b01515f1960f88460031b161c191690558a8080610739565b9293602060018192878601518155019501930161071f565b835f5260205f20601f840160051c810191602085106107b1575b601f0160051c01905b8181106107a65750610372565b5f8155600101610799565b9091508190610790565b015190508880610331565b5f8581528281209350601f198516905b81811061081157509084600195949392106107f9575b505050811b018155610345565b01515f1960f88460031b161c191690558880806107ec565b929360206001819287860151815501950193016107d6565b909150835f5260205f20601f840160051c8101916020851061086f575b90601f859493920160051c01905b818110610861575061031b565b5f8155849350600101610854565b9091508190610846565b346101915760a0366003190112610191576004356001600160401b038111610191576108a99036906004016128a0565b6024356001600160401b038111610191576108c89036906004016128a0565b6044356001600160401b038111610191576108e79036906004016128a0565b906064356001600160401b038111610191576109239261090e61091c9236906004016128a0565b610916612a2f565b91612e21565b90836130ff565b602081015f5b60025481101561018f578061093f600192612c84565b506040516109558161026a602082018095612faf565b51902060405160208101906109826020828951808a875e81015f838201520301601f19810183528261287f565b51902014610991575b01610929565b600361099c82612c84565b5001805461ff00191661020017905561098b565b34610191576020366003190112610191576004356001600160401b038111610191576020806109e6610a549336906004016128a0565b604051928184925191829101835e81015f815203019020610a9760ff82541691610a89600182015491610a7b60028201546003830154600484015490610a2e60058601612cb4565b92610a47600b610a4060088901612cb4565b970161292d565b976040519b8c809c612a45565b60208b015260408a01526060890152608088015261010060a08801526101008701906129f1565b9085820360c08701526129f1565b9083820360e08501526129cd565b0390f35b34610191576020366003190112610191576004356001600160401b03811161019157602080610ad1610b269336906004016128a0565b604051928184925191829101835e81016004815203019020610a97610af58261292d565b91610b34610b116002610b0a6001850161292d565b930161292d565b916040519586956060875260608701906129cd565b9085820360208701526129cd565b9083820360408501526129cd565b34610191576020366003190112610191576004356001600160401b03811161019157610b86610b78610a979236906004016128a0565b610b80613019565b50613063565b60405191829182612bf7565b346101915760c0366003190112610191576004356001600160401b03811161019157610bc29036906004016128a0565b6024356001600160401b03811161019157610be19036906004016128a0565b6044356001600160401b03811161019157610c009036906004016128a0565b6064356001600160401b03811161019157610c1f9036906004016128a0565b610c27612a2f565b60a435916001600160401b03831161019157610c4a610c509336906004016128a0565b93612e21565b604051906001845192602081818801958087835e810160038152030190200185516001600160401b03811161057c57610c8982546128f5565b601f8111610fe2575b506020601f8211600114610f7b579080610cc99493925f91610f70575b508160011b915f199060031b1c19161790555b838561349c565b5f5b60025481101561018f57610cde81612c84565b50604051610cf48161026a602082018095612faf565b5190206040516020810190610d2160208289518089875e81015f838201520301601f19810183528261287f565b51902014610d32575b600101610ccb565b6001610d3d82612c84565b500185516001600160401b03811161057c57610d5982546128f5565b601f8111610f2b575b50806020601f8211600114610ec8575f91610ebd575b508160011b915f199060031b1c19161790555b6003610d9682612c84565b5001805461ff0019166101001790556004610db082612c84565b500183516001600160401b03811161057c57610dcc82546128f5565b601f8111610e78575b506020601f8211600114610e1557908060019493925f91610e0a575b505f19600383901b1c191690841b1790555b9050610d2a565b905086015189610df1565b601f19821690835f52805f20915f5b818110610e6057509183916001969594879410610e48575b5050811b019055610e03565b8801515f1960f88460031b161c191690558980610e3c565b9192602060018192868c015181550194019201610e24565b825f5260205f20601f830160051c81019160208410610eb3575b601f0160051c01905b818110610ea85750610dd5565b5f8155600101610e9b565b9091508190610e92565b905087015188610d78565b5f8481528181209250601f198416905b8a828210610f135750509083600194939210610efb575b5050811b019055610d8b565b8901515f1960f88460031b161c191690558880610eef565b60018495602093958493015181550194019201610ed8565b825f5260205f20601f830160051c81019160208410610f66575b601f0160051c01905b818110610f5b5750610d62565b5f8155600101610f4e565b9091508190610f45565b905088015189610caf565b601f19821690835f52805f20915f5b8a828210610fca575050918391610cc996959460019410610fb2575b5050811b019055610cc2565b8a01515f1960f88460031b161c191690558980610fa6565b60018495602093958493015181550194019201610f8a565b825f5260205f20601f830160051c8101916020841061101d575b601f0160051c01905b8181106110125750610c92565b5f8155600101611005565b9091508190610ffc565b34610191576020366003190112610191576004356001600160401b0381116101915760208061105d6110ba9336906004016128a0565b604051928184925191829101835e81016003815203019020610a976110818261292d565b9161108e6001820161292d565b6110c86110a5600360ff600286015416940161292d565b916040519687966080885260808801906129cd565b9086820360208801526129cd565b91604085015283820360608501526129cd565b34610191576020366003190112610191576004356002548110156101915761110561115a91612c84565b50610a976111128261292d565b9161111f6001820161292d565b6111906111766111316002850161292d565b61116861114560046003880154970161292d565b94604051998a9960c08b5260c08b01906129cd565b9089820360208b01526129cd565b9087820360408901526129cd565b9260ff8116606087015260ff608087019160081c16612a45565b83820360a08501526129cd565b34610191576020366003190112610191576004356001600160401b03811161019157610b866111d3610a979236906004016128a0565b613063565b34610191576020366003190112610191576004356001600160401b038111610191576112089036906004016128a0565b60025460208201915f805b8381106112e4575060ff6112279116612e68565b925f915f5b8481106112415760405180610a978882612a52565b600261026a61126661125284612c84565b506040519283916020830195869101612faf565b51902060405160208101906112936020828751808a875e81015f838201520301601f19810183528261287f565b519020146112a4575b60010161122c565b926112dc6001916112d66112c06112ba88612c84565b50612eff565b60ff8316906112cf828c612edf565b5289612edf565b50612f67565b93905061129c565b600261026a6112f561125284612c84565b51902060405160208101906113226020828851808c875e81015f838201520301601f19810183528261287f565b51902014611333575b600101611213565b9061133f600191612f67565b91905061132b565b34610191576020366003190112610191576004356001600160401b0381116101915761138261137d610a979236906004016128a0565b612f8c565b6040519182916020835260208301906129cd565b34610191576020366003190112610191576004356001600160401b038111610191576113c69036906004016128a0565b6040516113d2816127f7565b606081526020810160609052604081015f9052606001606090526040516113f88161282d565b6060815260208101606090526040016060905260405161141781612848565b60608152602001606090526040518151908060208401928084835e810160038152036020019020906040518084518084835e81016004815203602001902092604051918291518091835e8101600581520360200190206040519161147a836127f7565b6114838161292d565b83526114916001820161292d565b9360208401948552600282015460ff1691604085019283526003016114b59061292d565b9160608501928352604051916114ca8361282d565b6114d38161292d565b83526114e16001820161292d565b90602084019182526002016114f59061292d565b91604084019283526040519561150a87612848565b6115138161292d565b87526001016115219061292d565b946020870195865260405198899860608a525160608a016080905260e08a01611549916129cd565b9051898203605f190160808b015261156191906129cd565b915160ff1660a089015251878203605f190160c089015261158291906129cd565b92868403602088015251606084526060840161159d916129cd565b90519083810360208501526115b1916129cd565b90519180820390604001526115c5916129cd565b9183830360408501525160408352604083016115e0916129cd565b9051918082039060200152610a97916129cd565b3461019157610100366003190112610191576004356001600160401b038111610191576116259036906004016128a0565b6024356001600160401b038111610191576116449036906004016128a0565b6044356001600160401b038111610191576116639036906004016128a0565b6064356001600160a01b0381168103610191576084359360ff85168095036101915760a4356001600160401b038111610191576116a49036906004016128a0565b9260c4356001600160401b038111610191576116c4903690600401612b1a565b9260e435906001600160401b03821161019157826116e96116ef933690600401612b9d565b97612e21565b9561173f83602098604051906117058b8361287f565b5f82526040516117158c8261287f565b5f8152611720612dd3565b506040519261172e8461282d565b83528b8301525f6040830152613819565b6040519461174c866127f7565b8386526040519561175d898861287f565b5f87528881019687526040810183815260608201928352604051978651988b81818a019b808d835e8101600381520301902092518051906001600160401b03821161057c578c82916117af87546128f5565b601f8111612543575b5081601f84116001146124df57505f926124d4575b50508160011b915f199060031b1c19161783555b51805160018401916001600160401b03821161057c578c61180284546128f5565b601f811161248f575b50508c908d601f84116001146124245750918060ff949260039796945f92612419575b50508160011b915f1990881b1c19161790555b511660ff60028301911660ff198254161790550190518051906001600160401b03821161057c57819061187484546128f5565b601f81116123cb575b508a90601f8311600114612368575f9261235d575b50508160011b915f199060031b1c19161790555b6040516118b281612812565b838152604051926118c3898561287f565b5f8452888201938452604082019081526060820192835260808201905f8252604051946118f08b8761287f565b5f865260a084019586526002546801000000000000000081101561057c5780600161191e9201600255612c84565b94909461234a57518051906001600160401b03821161057c578c829161194488546128f5565b601f81116122f2575b5081601f841160011461228e57505f92612283575b50508160011b915f199060031b1c19161784555b51805160018501916001600160401b03821161057c578c829161199985546128f5565b601f811161222b575b5081601f84116001146121c757505f926121bc575b50508160011b915f199060031b1c19161790555b51805160028401916001600160401b03821161057c5781908c6119ee85546128f5565b601f811161216b575b50508c908d601f841160011461210757505f926120fc575b50508160011b915f199060031b1c19161790555b60ff80600384019451161660ff19845416178355519160048310156120e85760049261ff0082549160081b169061ff0019161790550190518051906001600160401b03821161057c578190611a7884546128f5565b601f811161209a575b508890601f8311600114612037575f9261202c575b50508160011b915f199060031b1c19161790555b604051858183518087835e8101600481520301902082518051906001600160401b03821161057c578190611ade84546128f5565b601f8111611fde575b508890601f8311600114611f7b575f92611f70575b50508160011b915f199060031b1c19161781555b60018101868401518051906001600160401b03821161057c57611b3383546128f5565b601f8111611f2d575b508890601f8311600114611ec457918060029492604096945f92611eb9575b50508160011b915f199060031b1c19161790555b019201519182516001600160401b03811161057c578693611b9083546128f5565b601f8111611e65575b5081908590601f8311600114611e02575f92611df7575b50508160011b915f199060031b1c19161790555b604051928391518091835e8101600581520301902081519081516001600160401b03811161057c578492611bf883546128f5565b601f8111611da5575b508390601f8311600114611d3f5760019392915f9183611d34575b50505f19600383901b1c191690831b1781555b01910151918251906001600160401b03821161057c57611c4f83546128f5565b601f8111611cf1575b5080601f8311600114611c9257508192935f92611c87575b50505f19600383901b1c191660019190911b179055005b015190508380611c70565b90601f19831694845f52825f20925f905b878210611cd9575050836001959610611cc1575b505050811b019055005b01515f1960f88460031b161c19169055838080611cb7565b80600185968294968601518155019501930190611ca3565b835f52815f20601f840160051c810191838510611d2a575b601f0160051c01905b818110611d1f5750611c58565b5f8155600101611d12565b9091508190611d09565b015190508780611c1c565b90601f19831691845f52855f20925f5b87828210611d8f575050916001959492918387959310611d77575b505050811b018155611c2f565b01515f1960f88460031b161c19169055878080611d6a565b6001859682939686015181550195019301611d4f565b9091928094505f52855f20601f840160051c810191878510611ded575b90601f8896959493920160051c01905b818110611ddf5750611c01565b5f8155879550600101611dd2565b9091508190611dc2565b015190508880611bb0565b5f8581528781209350601f198516905b88828210611e4f575050908460019594939210611e37575b505050811b019055611bc4565b01515f1960f88460031b161c19169055888080611e2a565b6001859682939686015181550195019301611e12565b909192809495505f52875f20601f840160051c810191898510611eaf575b90601f8a9796959493920160051c01905b818110611ea15750611b99565b5f8155899650600101611e94565b9091508190611e83565b015190508b80611b5b565b90601f19831691845f528a5f20925f5b8c828210611f17575050926001928592604098966002989610611eff575b505050811b019055611b6f565b01515f1960f88460031b161c191690558b8080611ef2565b6001859682939686015181550195019301611ed4565b835f52895f20601f840160051c8101918b8510611f66575b601f0160051c01905b818110611f5b5750611b3c565b5f8155600101611f4e565b9091508190611f45565b015190508880611afc565b5f8581528a81209350601f198516905b8b828210611fc8575050908460019594939210611fb0575b505050811b018155611b10565b01515f1960f88460031b161c19169055888080611fa3565b6001859682939686015181550195019301611f8b565b909150835f52885f20601f840160051c8101918a8510612022575b90601f859493920160051c01905b8181106120145750611ae7565b5f8155849350600101612007565b9091508190611ff9565b015190508880611a96565b5f8581528a81209350601f198516905b8b82821061208457505090846001959493921061206c575b505050811b019055611aaa565b01515f1960f88460031b161c1916905588808061205f565b6001859682939686015181550195019301612047565b909150835f52885f20601f840160051c8101918a85106120de575b90601f859493920160051c01905b8181106120d05750611a81565b5f81558493506001016120c3565b90915081906120b5565b634e487b7160e01b5f52602160045260245ffd5b015190508c80611a0f565b5f8681528181209450601f198616915b82821061215357505090846001959493921061213b575b505050811b019055611a23565b01515f1960f88460031b161c191690558c808061212e565b80600186978294978701518155019601940190612117565b90919250845f52815f2090601f850160051c82019285106121b2575b90601f859493920160051c01905b8181106121a4578e91506119f7565b5f8155849350600101612195565b9091508190612187565b015190508d806119b7565b5f8681528181209450601f198616915b8282106122135750509084600195949392106121fb575b505050811b0190556119cb565b01515f1960f88460031b161c191690558d80806121ee565b806001869782949787015181550196019401906121d7565b909250845f52815f2090601f850160051c8201928510612279575b918f9291601f8695930160051c01905b81811061226357506119a2565b90925060019193505f815501918e918493612256565b9091508190612246565b015190508d80611962565b5f8981528181209450601f198616915b8282106122da5750509084600195949392106122c2575b505050811b018455611976565b01515f1960f88460031b161c191690558d80806122b5565b8060018697829497870151815501960194019061229e565b909250875f52815f2090601f850160051c8201928510612340575b918f9291601f8695930160051c01905b81811061232a575061194d565b90925060019193505f815501918e91849361231d565b909150819061230d565b634e487b7160e01b5f525f60045260245ffd5b015190508a80611892565b5f8581528c81209350601f198516905b8d8282106123b557505090846001959493921061239d575b505050811b0190556118a6565b01515f1960f88460031b161c191690558a8080612390565b6001859682939686015181550195019301612378565b909150835f528a5f20601f840160051c8101918c851061240f575b90601f859493920160051c01905b818110612401575061187d565b5f81558493506001016123f4565b90915081906123e6565b015190508f8061182e565b9190601f198416855f52835f20935f905b828210612477575050926001928592600399989660ff989610612460575b505050811b019055611841565b01515f19838a1b60f8161c191690558f8080612453565b80600186978294978701518155019601940190612435565b845f52815f2090601f850160051c82019285106124ca575b601f0160051c01905b8181106124bf578e915061180b565b5f81556001016124b0565b90915081906124a7565b015190508d806117cd565b5f8881528181209450601f198616915b82821061252b575050908460019594939210612513575b505050811b0183556117e1565b01515f1960f88460031b161c191690558d8080612506565b806001869782949787015181550196019401906124ef565b909250865f52815f2090601f850160051c8201928510612591575b918f9291601f8695930160051c01905b81811061257b57506117b8565b90925060019193505f815501918e91849361256e565b909150819061255e565b34610191575f366003190112610191576002546125b781612e68565b905f805b8282106125d05760405180610a978682612a52565b6125fb6001916112d66125e56112ba86612c84565b60ff8316906125f4828a612edf565b5287612edf565b9101906125bb565b34610191576020366003190112610191576004356001600160401b0381116101915761138260208061263c610a979436906004016128a0565b604051928184925191829101835e8101600181520301902061292d565b34610191576060366003190112610191576004356001600160401b038111610191576126899036906004016128a0565b6024356001600160401b038111610191576126a89036906004016128a0565b906044356001600160a01b038116810361019157610a97926126c992612e21565b6040519182916020835260208301906129f1565b34610191576020366003190112610191576004356001600160401b0381116101915761271061018f9136906004016128a0565b612df3565b34610191576020366003190112610191576004356001600160401b038111610191576126c96005602080612750610a979536906004016128a0565b612758612dd3565b50604051928184925191829101835e81015f81520301902001612cb4565b34610191576020366003190112610191576004356001600160401b038111610191576020806127ac6127e99336906004016128a0565b604051928184925191829101835e81016005815203019020610a976127d56001610b0a8461292d565b6040519384936040855260408501906129cd565b9083820360208501526129cd565b608081019081106001600160401b0382111761057c57604052565b60c081019081106001600160401b0382111761057c57604052565b606081019081106001600160401b0382111761057c57604052565b604081019081106001600160401b0382111761057c57604052565b61010081019081106001600160401b0382111761057c57604052565b90601f801991011681019081106001600160401b0382111761057c57604052565b81601f82011215610191578035906001600160401b03821161057c57604051926128d4601f8401601f19166020018561287f565b8284526020838301011161019157815f926020809301838601378301015290565b90600182811c92168015612923575b602083101461290f57565b634e487b7160e01b5f52602260045260245ffd5b91607f1691612904565b9060405191825f825492612940846128f5565b80845293600181169081156129ab5750600114612967575b506129659250038361287f565b565b90505f9291925260205f20905f915b81831061298f575050906020612965928201015f612958565b6020919350806001915483858901015201910190918492612976565b90506020925061296594915060ff191682840152151560051b8201015f612958565b805180835260209291819084018484015e5f828201840152601f01601f1916010190565b906040612a1c612a0a84516060855260608501906129cd565b602085015184820360208601526129cd565b928101516001600160a01b031691015290565b608435906001600160a01b038216820361019157565b9060048210156120e85752565b602081016020825282518091526040820191602060408360051b8301019401925f915b838310612a8457505050505090565b9091929394602080612b0b600193603f1986820301875289519060a0612adb612ac9612ab9855160c0865260c08601906129cd565b87860151858203898701526129cd565b604085015184820360408601526129cd565b9260ff6060820151166060840152612afb60808201516080850190612a45565b01519060a08184039101526129cd565b97019301930191939290612a75565b91906060838203126101915760405190612b338261282d565b819380356001600160401b0381116101915782612b519183016128a0565b835260208101356001600160401b0381116101915782612b729183016128a0565b60208401526040810135916001600160401b03831161019157604092612b9892016128a0565b910152565b91906040838203126101915760405190612bb682612848565b819380356001600160401b0381116101915782612bd49183016128a0565b83526020810135916001600160401b03831161019157602092612b9892016128a0565b90612c819160208152612c0e602082018351612a45565b602082015160408201526040820151606082015260608201516080820152608082015160a082015260e0612c6b612c5660a085015161010060c08601526101208501906129f1565b60c0850151848203601f1901848601526129f1565b92015190610100601f19828503019101526129cd565b90565b600254811015612ca05760025f52600560205f20910201905f90565b634e487b7160e01b5f52603260045260245ffd5b90604051612cc18161282d565b60408193612cce8161292d565b8352612cdc6001820161292d565b6020840152600201546001600160a01b0316910152565b91906060838203126101915760405190612d0c8261282d565b819380356001600160401b0381116101915782612d2a9183016128a0565b835260208101356001600160401b03811161019157604092612d4d9183016128a0565b60208401520135906001600160a01b03821682036101915760400152565b6060600319820112610191576004356001600160401b0381116101915781612d95916004016128a0565b916024356001600160401b0381116101915782612db4916004016128a0565b91604435906001600160401b03821161019157612c8191600401612cf3565b60405190612de08261282d565b5f60408360608152606060208201520152565b60208091604051928184925191829101835e81015f815203019020426004820155600360ff19825416179055565b9190612e2b612dd3565b5060405192612e398461282d565b835260208301526001600160a01b0316604082015290565b6001600160401b03811161057c5760051b60200190565b90612e7282612e51565b612e7f604051918261287f565b8281528092612e90601f1991612e51565b01905f5b828110612ea057505050565b602090604051612eaf81612812565b60608152606083820152606060408201525f60608201525f6080820152606060a082015282828501015201612e94565b8051821015612ca05760209160051b010190565b60048210156120e85752565b90604051612f0c81612812565b60a0612b9860048395612f1e8161292d565b8552612f2c6001820161292d565b6020860152612f3d6002820161292d565b6040860152612f6160ff6003830154818116606089015260081c1660808701612ef3565b0161292d565b60ff1660ff8114612f785760010190565b634e487b7160e01b5f52601160045260245ffd5b6040518151612c8192602091839181908401835e8101600181520301902061292d565b5f9291815491612fbe836128f5565b92600181169081156130065750600114612fd757505050565b90919293505f5260205f205f905b838210612ff25750500190565b600181602092548486015201910190612fe5565b60ff191683525050811515909102019150565b6040519061302682612863565b606060e0835f81525f60208201525f60408201525f838201525f608082015261304d612dd3565b60a082015261305a612dd3565b60c08201520152565b6020809161306f613019565b50604051928184925191829101835e81015f8152030190206130f7600b6040519261309984612863565b6130a760ff82541685612ef3565b600181015460208501526002810154604085015260038101546060850152600481015460808501526130db60058201612cb4565b60a08501526130ec60088201612cb4565b60c08501520161292d565b60e082015290565b92919060405160208551918181818901948086835e81015f81520301902095604051928391518091835e81016001815203019020908051906001600160401b03821161057c57819061315184546128f5565b601f811161344c575b50602090601f83116001146133e9575f926133de575b50508160011b915f199060031b1c19161790555b8051805160088501916001600160401b03821161057c576131a583546128f5565b601f8111613399575b50602090601f8311600114613332576020949392915f9183613327575b50508160011b915f199060031b1c19161790555b6040810151600a850180546001600160a01b0319166001600160a01b03929092169190911790550151805190929060098201906001600160401b03811161057c5761322a82546128f5565b601f81116132e2575b50602094601f8211600114613281579481929394955f92613276575b50508160011b915f199060031b1c19161790555b426003820155805460ff19166002179055565b015190505f8061324f565b601f19821695835f52805f20915f5b8881106132ca575083600195969798106132b2575b505050811b019055613263565b01515f1960f88460031b161c191690555f80806132a5565b91926020600181928685015181550194019201613290565b825f5260205f20601f830160051c8101916020841061331d575b601f0160051c01905b8181106133125750613233565b5f8155600101613305565b90915081906132fc565b015190505f806131cb565b90601f19831691845f52815f20925f5b818110613381575091600193918560209897969410613369575b505050811b0190556131df565b01515f1960f88460031b161c191690555f808061335c565b92936020600181928786015181550195019301613342565b835f5260205f20601f840160051c810191602085106133d4575b601f0160051c01905b8181106133c957506131ae565b5f81556001016133bc565b90915081906133b3565b015190505f80613170565b5f8581528281209350601f198516905b818110613434575090846001959493921061341c575b505050811b019055613184565b01515f1960f88460031b161c191690555f808061340f565b929360206001819287860151815501950193016133f9565b909150835f5260205f20601f840160051c81019160208510613492575b90601f859493920160051c01905b818110613484575061315a565b5f8155849350600101613477565b9091508190613469565b6020809194939294604051928184925191829101835e81015f81520301902090805160088301908051906001600160401b03821161057c576134de83546128f5565b601f81116137d4575b50602090601f831160011461376d576020949392915f9183613762575b50508160011b915f199060031b1c19161790555b6040810151600a840180546001600160a01b0319166001600160a01b03929092169190911790550151805160098301916001600160401b03821161057c5761356083546128f5565b601f811161371d575b50602090601f83116001146136b657600b949392915f91836136ab575b50508160011b915f199060031b1c19161790555b426002820155600160ff198254161781550182516001600160401b03811161057c576135c682546128f5565b601f8111613666575b506020601f821160011461360857819293945f926135fd575b50508160011b915f199060031b1c1916179055565b015190505f806135e8565b601f19821690835f52805f20915f5b81811061364e57509583600195969710613636575b505050811b019055565b01515f1960f88460031b161c191690555f808061362c565b9192602060018192868b015181550194019201613617565b825f5260205f20601f830160051c810191602084106136a1575b601f0160051c01905b81811061369657506135cf565b5f8155600101613689565b9091508190613680565b015190505f80613586565b90601f19831691845f52815f20925f5b8181106137055750916001939185600b98979694106136ed575b505050811b01905561359a565b01515f1960f88460031b161c191690555f80806136e0565b929360206001819287860151815501950193016136c6565b835f5260205f20601f840160051c81019160208510613758575b601f0160051c01905b81811061374d5750613569565b5f8155600101613740565b9091508190613737565b015190505f80613504565b90601f19831691845f52815f20925f5b8181106137bc5750916001939185602098979694106137a4575b505050811b019055613518565b01515f1960f88460031b161c191690555f8080613797565b9293602060018192878601518155019501930161377d565b835f5260205f20601f840160051c8101916020851061380f575b601f0160051c01905b81811061380457506134e7565b5f81556001016137f7565b90915081906137ee565b92909160405161382881612863565b5f81526020810194428652604082015f8152606083015f815260808401915f835260a0850193845260c0850197885260209889806040519861386a828b61287f565b5f8a5260e08901998a52604051928184925191829101835e81015f815203019020955160048110156120e85760ff801988541691161786555160018601555160028501555160038401555160048301556005820190519081518051906001600160401b03821161057c5781906138e084546128f5565b601f8111613ded575b508990601f8311600114613d8a575f92613d7f575b50508160011b915f199060031b1c19161790555b60068201868201518051906001600160401b03821161057c57819061393784546128f5565b601f8111613d31575b508990601f8311600114613cce575f92613cc3575b50508160011b915f199060031b1c19161790555b604001516007820180546001600160a01b0319166001600160a01b039290921691909117905592518051805191949160088301916001600160401b03821161057c5781906139b784546128f5565b601f8111613c75575b508890601f8311600114613c12575f92613c07575b50508160011b915f199060031b1c19161790555b600981019385810151948551956001600160401b03871161057c57613a0e82546128f5565b601f8111613bc4575b508790601f8811600114613b5d57968091600b9697985f92613b52575b50508160011b915f199060031b1c19161790555b60400151600a820180546001600160a01b0319166001600160a01b03929092169190911790559151805190949190920191906001600160401b03821161057c57613a9283546128f5565b601f8111613b0f575b5080601f8311600114613ac85750819293945f926135fd5750508160011b915f199060031b1c1916179055565b90601f19831695845f52825f20925f905b888210613af75750508360019596971061363657505050811b019055565b80600185968294968601518155019501930190613ad9565b835f52815f20601f840160051c810191838510613b48575b601f0160051c01905b818110613b3d5750613a9b565b5f8155600101613b30565b9091508190613b27565b015190505f80613a34565b90601f19881691835f52895f20925f5b8b828210613bae57505091600193918a600b999a9b9410613b96575b505050811b019055613a48565b01515f1960f88460031b161c191690555f8080613b89565b6001859682939686015181550195019301613b6d565b825f52885f20601f890160051c8101918a8a10613bfd575b601f0160051c01905b818110613bf25750613a17565b5f8155600101613be5565b9091508190613bdc565b015190505f806139d5565b5f8581528a81209350601f198516905b8b828210613c5f575050908460019594939210613c47575b505050811b0190556139e9565b01515f1960f88460031b161c191690555f8080613c3a565b6001859682939686015181550195019301613c22565b909150835f52885f20601f840160051c8101918a8510613cb9575b90601f859493920160051c01905b818110613cab57506139c0565b5f8155849350600101613c9e565b9091508190613c90565b015190505f80613955565b5f8581528b81209350601f198516905b8c828210613d1b575050908460019594939210613d03575b505050811b019055613969565b01515f1960f88460031b161c191690555f8080613cf6565b6001859682939686015181550195019301613cde565b909150835f52895f20601f840160051c8101918b8510613d75575b90601f859493920160051c01905b818110613d675750613940565b5f8155849350600101613d5a565b9091508190613d4c565b015190505f806138fe565b5f8581528b81209350601f198516905b8c828210613dd7575050908460019594939210613dbf575b505050811b019055613912565b01515f1960f88460031b161c191690555f8080613db2565b6001859682939686015181550195019301613d9a565b909150835f52895f20601f840160051c8101918b8510613e31575b90601f859493920160051c01905b818110613e2357506138e9565b5f8155849350600101613e16565b9091508190613e0856fea2646970667358221220b3c4ac365f6aeae28edf68f86060ebe36eccd31ad8625d4d0185687f326dafd264736f6c634300081b0033",
  "linkReferences": {},
  "deployedLinkReferences": {}
}