{
  "_format": "hh-sol-artifact-1",
  "contractName": "CpotbCertificate",
  "sourceName": "contracts/CpotbCertificate.sol",
  "abi": [
    {
      "inputs": [
        {
          "internalType": "uint256",
          "name": "",
          "type": "uint256"
        }
      ],
      "name": "allCpotbData",
      "outputs": [
        {
          "internalType": "string",
          "name": "certId",
          "type": "string"
        },
        {
          "internalType": "string",
          "name": "certNumber",
          "type": "string"
        },
        {
          "internalType": "string",
          "name": "instanceName",
          "type": "string"
        },
        {
          "internalType": "uint8",
          "name": "tipePermohonan",
          "type": "uint8"
        },
        {
          "internalType": "enum EnumsLibrary.StatusCertificate",
          "name": "status",
          "type": "uint8"
        },
        {
          "internalType": "string",
          "name": "certHash",
          "type": "string"
        },
        {
          "internalType": "uint256",
          "name": "expiredTimestamp",
          "type": "uint256"
        }
      ],
      "stateMutability": "view",
      "type": "function"
    },
    {
      "inputs": [
        {
          "internalType": "string",
          "name": "certNumber",
          "type": "string"
        },
        {
          "internalType": "string",
          "name": "certId",
          "type": "string"
        },
        {
          "internalType": "string",
          "name": "bpomName",
          "type": "string"
        },
        {
          "internalType": "string",
          "name": "bpomInstance",
          "type": "string"
        },
        {
          "internalType": "address",
          "name": "bpomAddr",
          "type": "address"
        },
        {
          "internalType": "string",
          "name": "ipfsCert",
          "type": "string"
        }
      ],
      "name": "approveCpotb",
      "outputs": [],
      "stateMutability": "nonpayable",
      "type": "function"
    },
    {
      "inputs": [
        {
          "internalType": "string",
          "name": "certId",
          "type": "string"
        },
        {
          "internalType": "string",
          "name": "ipfsCert",
          "type": "string"
        }
      ],
      "name": "approveExtendCpotb",
      "outputs": [],
      "stateMutability": "nonpayable",
      "type": "function"
    },
    {
      "inputs": [
        {
          "internalType": "string",
          "name": "",
          "type": "string"
        }
      ],
      "name": "certDetailById",
      "outputs": [
        {
          "internalType": "enum EnumsLibrary.StatusCertificate",
          "name": "status",
          "type": "uint8"
        },
        {
          "internalType": "uint256",
          "name": "timestampRequest",
          "type": "uint256"
        },
        {
          "internalType": "uint256",
          "name": "timestampApprove",
          "type": "uint256"
        },
        {
          "internalType": "uint256",
          "name": "timestampRejected",
          "type": "uint256"
        },
        {
          "internalType": "uint256",
          "name": "timestampRenewRequest",
          "type": "uint256"
        },
        {
          "internalType": "uint256",
          "name": "timestampExpired",
          "type": "uint256"
        },
        {
          "internalType": "uint256",
          "name": "timestampExtendRequest",
          "type": "uint256"
        },
        {
          "components": [
            {
              "internalType": "string",
              "name": "userName",
              "type": "string"
            },
            {
              "internalType": "string",
              "name": "userInstance",
              "type": "string"
            },
            {
              "internalType": "address",
              "name": "userAddr",
              "type": "address"
            }
          ],
          "internalType": "struct BaseCertificate.UserCert",
          "name": "sender",
          "type": "tuple"
        },
        {
          "components": [
            {
              "internalType": "string",
              "name": "userName",
              "type": "string"
            },
            {
              "internalType": "string",
              "name": "userInstance",
              "type": "string"
            },
            {
              "internalType": "address",
              "name": "userAddr",
              "type": "address"
            }
          ],
          "internalType": "struct BaseCertificate.UserCert",
          "name": "bpom",
          "type": "tuple"
        },
        {
          "internalType": "string",
          "name": "ipfsCert",
          "type": "string"
        }
      ],
      "stateMutability": "view",
      "type": "function"
    },
    {
      "inputs": [
        {
          "internalType": "string",
          "name": "",
          "type": "string"
        }
      ],
      "name": "cpotbDataById",
      "outputs": [
        {
          "internalType": "string",
          "name": "cpotbId",
          "type": "string"
        },
        {
          "internalType": "string",
          "name": "cpotbNumber",
          "type": "string"
        },
        {
          "internalType": "uint8",
          "name": "tipePermohonan",
          "type": "uint8"
        },
        {
          "internalType": "string",
          "name": "factoryType",
          "type": "string"
        }
      ],
      "stateMutability": "view",
      "type": "function"
    },
    {
      "inputs": [
        {
          "components": [
            {
              "internalType": "string",
              "name": "userName",
              "type": "string"
            },
            {
              "internalType": "string",
              "name": "userInstance",
              "type": "string"
            },
            {
              "internalType": "address",
              "name": "userAddr",
              "type": "address"
            }
          ],
          "internalType": "struct BaseCertificate.UserCert",
          "name": "senderData",
          "type": "tuple"
        },
        {
          "components": [
            {
              "internalType": "string",
              "name": "userName",
              "type": "string"
            },
            {
              "internalType": "string",
              "name": "userInstance",
              "type": "string"
            },
            {
              "internalType": "address",
              "name": "userAddr",
              "type": "address"
            }
          ],
          "internalType": "struct BaseCertificate.UserCert",
          "name": "bpomData",
          "type": "tuple"
        },
        {
          "internalType": "string",
          "name": "certId",
          "type": "string"
        }
      ],
      "name": "createCertificateDetails",
      "outputs": [],
      "stateMutability": "nonpayable",
      "type": "function"
    },
    {
      "inputs": [
        {
          "internalType": "string",
          "name": "userName",
          "type": "string"
        },
        {
          "internalType": "string",
          "name": "userInstance",
          "type": "string"
        },
        {
          "internalType": "address",
          "name": "userAddr",
          "type": "address"
        }
      ],
      "name": "createUserCertificate",
      "outputs": [
        {
          "components": [
            {
              "internalType": "string",
              "name": "userName",
              "type": "string"
            },
            {
              "internalType": "string",
              "name": "userInstance",
              "type": "string"
            },
            {
              "internalType": "address",
              "name": "userAddr",
              "type": "address"
            }
          ],
          "internalType": "struct BaseCertificate.UserCert",
          "name": "",
          "type": "tuple"
        }
      ],
      "stateMutability": "pure",
      "type": "function"
    },
    {
      "inputs": [
        {
          "internalType": "string",
          "name": "",
          "type": "string"
        }
      ],
      "name": "dokuAdminById",
      "outputs": [
        {
          "internalType": "string",
          "name": "suratPermohonan",
          "type": "string"
        },
        {
          "internalType": "string",
          "name": "buktiPembayaranNegaraBukanPajak",
          "type": "string"
        },
        {
          "internalType": "string",
          "name": "suratKomitmen",
          "type": "string"
        }
      ],
      "stateMutability": "view",
      "type": "function"
    },
    {
      "inputs": [
        {
          "internalType": "string",
          "name": "",
          "type": "string"
        }
      ],
      "name": "dokuTeknisById",
      "outputs": [
        {
          "internalType": "string",
          "name": "denahBangunan",
          "type": "string"
        },
        {
          "internalType": "string",
          "name": "sistemMutu",
          "type": "string"
        }
      ],
      "stateMutability": "view",
      "type": "function"
    },
    {
      "inputs": [
        {
          "internalType": "string",
          "name": "certId",
          "type": "string"
        },
        {
          "internalType": "uint256",
          "name": "expTimestamp",
          "type": "uint256"
        }
      ],
      "name": "extendCpotb",
      "outputs": [],
      "stateMutability": "nonpayable",
      "type": "function"
    },
    {
      "inputs": [],
      "name": "getAllCpotb",
      "outputs": [
        {
          "components": [
            {
              "internalType": "string",
              "name": "certId",
              "type": "string"
            },
            {
              "internalType": "string",
              "name": "certNumber",
              "type": "string"
            },
            {
              "internalType": "string",
              "name": "instanceName",
              "type": "string"
            },
            {
              "internalType": "uint8",
              "name": "tipePermohonan",
              "type": "uint8"
            },
            {
              "internalType": "enum EnumsLibrary.StatusCertificate",
              "name": "status",
              "type": "uint8"
            },
            {
              "internalType": "string",
              "name": "certHash",
              "type": "string"
            },
            {
              "internalType": "uint256",
              "name": "expiredTimestamp",
              "type": "uint256"
            }
          ],
          "internalType": "struct CpotbCertificate.CertificateList[]",
          "name": "",
          "type": "tuple[]"
        }
      ],
      "stateMutability": "view",
      "type": "function"
    },
    {
      "inputs": [
        {
          "internalType": "string",
          "name": "instanceName",
          "type": "string"
        }
      ],
      "name": "getAllCpotbByInstance",
      "outputs": [
        {
          "components": [
            {
              "internalType": "string",
              "name": "certId",
              "type": "string"
            },
            {
              "internalType": "string",
              "name": "certNumber",
              "type": "string"
            },
            {
              "internalType": "string",
              "name": "instanceName",
              "type": "string"
            },
            {
              "internalType": "uint8",
              "name": "tipePermohonan",
              "type": "uint8"
            },
            {
              "internalType": "enum EnumsLibrary.StatusCertificate",
              "name": "status",
              "type": "uint8"
            },
            {
              "internalType": "string",
              "name": "certHash",
              "type": "string"
            },
            {
              "internalType": "uint256",
              "name": "expiredTimestamp",
              "type": "uint256"
            }
          ],
          "internalType": "struct CpotbCertificate.CertificateList[]",
          "name": "",
          "type": "tuple[]"
        }
      ],
      "stateMutability": "view",
      "type": "function"
    },
    {
      "inputs": [
        {
          "internalType": "string",
          "name": "certId",
          "type": "string"
        }
      ],
      "name": "getCertDetail",
      "outputs": [
        {
          "components": [
            {
              "internalType": "enum EnumsLibrary.StatusCertificate",
              "name": "status",
              "type": "uint8"
            },
            {
              "internalType": "uint256",
              "name": "timestampRequest",
              "type": "uint256"
            },
            {
              "internalType": "uint256",
              "name": "timestampApprove",
              "type": "uint256"
            },
            {
              "internalType": "uint256",
              "name": "timestampRejected",
              "type": "uint256"
            },
            {
              "internalType": "uint256",
              "name": "timestampRenewRequest",
              "type": "uint256"
            },
            {
              "internalType": "uint256",
              "name": "timestampExpired",
              "type": "uint256"
            },
            {
              "internalType": "uint256",
              "name": "timestampExtendRequest",
              "type": "uint256"
            },
            {
              "components": [
                {
                  "internalType": "string",
                  "name": "userName",
                  "type": "string"
                },
                {
                  "internalType": "string",
                  "name": "userInstance",
                  "type": "string"
                },
                {
                  "internalType": "address",
                  "name": "userAddr",
                  "type": "address"
                }
              ],
              "internalType": "struct BaseCertificate.UserCert",
              "name": "sender",
              "type": "tuple"
            },
            {
              "components": [
                {
                  "internalType": "string",
                  "name": "userName",
                  "type": "string"
                },
                {
                  "internalType": "string",
                  "name": "userInstance",
                  "type": "string"
                },
                {
                  "internalType": "address",
                  "name": "userAddr",
                  "type": "address"
                }
              ],
              "internalType": "struct BaseCertificate.UserCert",
              "name": "bpom",
              "type": "tuple"
            },
            {
              "internalType": "string",
              "name": "ipfsCert",
              "type": "string"
            }
          ],
          "internalType": "struct BaseCertificate.CertificateDetails",
          "name": "",
          "type": "tuple"
        }
      ],
      "stateMutability": "view",
      "type": "function"
    },
    {
      "inputs": [
        {
          "internalType": "string",
          "name": "certId",
          "type": "string"
        }
      ],
      "name": "getCertDetails",
      "outputs": [
        {
          "components": [
            {
              "internalType": "enum EnumsLibrary.StatusCertificate",
              "name": "status",
              "type": "uint8"
            },
            {
              "internalType": "uint256",
              "name": "timestampRequest",
              "type": "uint256"
            },
            {
              "internalType": "uint256",
              "name": "timestampApprove",
              "type": "uint256"
            },
            {
              "internalType": "uint256",
              "name": "timestampRejected",
              "type": "uint256"
            },
            {
              "internalType": "uint256",
              "name": "timestampRenewRequest",
              "type": "uint256"
            },
            {
              "internalType": "uint256",
              "name": "timestampExpired",
              "type": "uint256"
            },
            {
              "internalType": "uint256",
              "name": "timestampExtendRequest",
              "type": "uint256"
            },
            {
              "components": [
                {
                  "internalType": "string",
                  "name": "userName",
                  "type": "string"
                },
                {
                  "internalType": "string",
                  "name": "userInstance",
                  "type": "string"
                },
                {
                  "internalType": "address",
                  "name": "userAddr",
                  "type": "address"
                }
              ],
              "internalType": "struct BaseCertificate.UserCert",
              "name": "sender",
              "type": "tuple"
            },
            {
              "components": [
                {
                  "internalType": "string",
                  "name": "userName",
                  "type": "string"
                },
                {
                  "internalType": "string",
                  "name": "userInstance",
                  "type": "string"
                },
                {
                  "internalType": "address",
                  "name": "userAddr",
                  "type": "address"
                }
              ],
              "internalType": "struct BaseCertificate.UserCert",
              "name": "bpom",
              "type": "tuple"
            },
            {
              "internalType": "string",
              "name": "ipfsCert",
              "type": "string"
            }
          ],
          "internalType": "struct BaseCertificate.CertificateDetails",
          "name": "",
          "type": "tuple"
        }
      ],
      "stateMutability": "view",
      "type": "function"
    },
    {
      "inputs": [
        {
          "internalType": "string",
          "name": "certId",
          "type": "string"
        }
      ],
      "name": "getCpotbDetails",
      "outputs": [
        {
          "components": [
            {
              "internalType": "string",
              "name": "cpotbId",
              "type": "string"
            },
            {
              "internalType": "string",
              "name": "cpotbNumber",
              "type": "string"
            },
            {
              "internalType": "uint8",
              "name": "tipePermohonan",
              "type": "uint8"
            },
            {
              "internalType": "string",
              "name": "factoryType",
              "type": "string"
            }
          ],
          "internalType": "struct CpotbCertificate.CpotbData",
          "name": "",
          "type": "tuple"
        },
        {
          "components": [
            {
              "internalType": "string",
              "name": "suratPermohonan",
              "type": "string"
            },
            {
              "internalType": "string",
              "name": "buktiPembayaranNegaraBukanPajak",
              "type": "string"
            },
            {
              "internalType": "string",
              "name": "suratKomitmen",
              "type": "string"
            }
          ],
          "internalType": "struct CpotbCertificate.DokumenAdministrasi",
          "name": "",
          "type": "tuple"
        },
        {
          "components": [
            {
              "internalType": "string",
              "name": "denahBangunan",
              "type": "string"
            },
            {
              "internalType": "string",
              "name": "sistemMutu",
              "type": "string"
            }
          ],
          "internalType": "struct CpotbCertificate.DokumenTeknis",
          "name": "",
          "type": "tuple"
        }
      ],
      "stateMutability": "view",
      "type": "function"
    },
    {
      "inputs": [
        {
          "internalType": "string",
          "name": "certId",
          "type": "string"
        }
      ],
      "name": "getRejectMsg",
      "outputs": [
        {
          "internalType": "string",
          "name": "",
          "type": "string"
        }
      ],
      "stateMutability": "view",
      "type": "function"
    },
    {
      "inputs": [
        {
          "internalType": "string",
          "name": "certId",
          "type": "string"
        }
      ],
      "name": "getRejectsMsg",
      "outputs": [
        {
          "internalType": "string",
          "name": "",
          "type": "string"
        }
      ],
      "stateMutability": "view",
      "type": "function"
    },
    {
      "inputs": [
        {
          "internalType": "string",
          "name": "certId",
          "type": "string"
        }
      ],
      "name": "getSenderDetail",
      "outputs": [
        {
          "components": [
            {
              "internalType": "string",
              "name": "userName",
              "type": "string"
            },
            {
              "internalType": "string",
              "name": "userInstance",
              "type": "string"
            },
            {
              "internalType": "address",
              "name": "userAddr",
              "type": "address"
            }
          ],
          "internalType": "struct BaseCertificate.UserCert",
          "name": "",
          "type": "tuple"
        }
      ],
      "stateMutability": "view",
      "type": "function"
    },
    {
      "inputs": [
        {
          "internalType": "string",
          "name": "certId",
          "type": "string"
        },
        {
          "internalType": "string",
          "name": "rejectMsg",
          "type": "string"
        },
        {
          "internalType": "string",
          "name": "bpomName",
          "type": "string"
        },
        {
          "internalType": "string",
          "name": "bpomInstance",
          "type": "string"
        },
        {
          "internalType": "address",
          "name": "bpomAddr",
          "type": "address"
        }
      ],
      "name": "rejectCpotb",
      "outputs": [],
      "stateMutability": "nonpayable",
      "type": "function"
    },
    {
      "inputs": [
        {
          "internalType": "string",
          "name": "",
          "type": "string"
        }
      ],
      "name": "rejectMsgById",
      "outputs": [
        {
          "internalType": "string",
          "name": "",
          "type": "string"
        }
      ],
      "stateMutability": "view",
      "type": "function"
    },
    {
      "inputs": [
        {
          "internalType": "string",
          "name": "certId",
          "type": "string"
        },
        {
          "components": [
            {
              "internalType": "string",
              "name": "suratPermohonan",
              "type": "string"
            },
            {
              "internalType": "string",
              "name": "buktiPembayaranNegaraBukanPajak",
              "type": "string"
            },
            {
              "internalType": "string",
              "name": "suratKomitmen",
              "type": "string"
            }
          ],
          "internalType": "struct CpotbCertificate.DokumenAdministrasi",
          "name": "newDokuAdmin",
          "type": "tuple"
        },
        {
          "components": [
            {
              "internalType": "string",
              "name": "denahBangunan",
              "type": "string"
            },
            {
              "internalType": "string",
              "name": "sistemMutu",
              "type": "string"
            }
          ],
          "internalType": "struct CpotbCertificate.DokumenTeknis",
          "name": "newDokuTeknis",
          "type": "tuple"
        }
      ],
      "name": "renewRequestCpotb",
      "outputs": [],
      "stateMutability": "nonpayable",
      "type": "function"
    },
    {
      "inputs": [
        {
          "internalType": "string",
          "name": "certId",
          "type": "string"
        },
        {
          "internalType": "string",
          "name": "factoryName",
          "type": "string"
        },
        {
          "internalType": "string",
          "name": "factoryInstance",
          "type": "string"
        },
        {
          "internalType": "address",
          "name": "factoryAddr",
          "type": "address"
        },
        {
          "internalType": "uint8",
          "name": "jenisSediaan",
          "type": "uint8"
        },
        {
          "internalType": "string",
          "name": "factoryType",
          "type": "string"
        },
        {
          "components": [
            {
              "internalType": "string",
              "name": "suratPermohonan",
              "type": "string"
            },
            {
              "internalType": "string",
              "name": "buktiPembayaranNegaraBukanPajak",
              "type": "string"
            },
            {
              "internalType": "string",
              "name": "suratKomitmen",
              "type": "string"
            }
          ],
          "internalType": "struct CpotbCertificate.DokumenAdministrasi",
          "name": "dokuAdmin",
          "type": "tuple"
        },
        {
          "components": [
            {
              "internalType": "string",
              "name": "denahBangunan",
              "type": "string"
            },
            {
              "internalType": "string",
              "name": "sistemMutu",
              "type": "string"
            }
          ],
          "internalType": "struct CpotbCertificate.DokumenTeknis",
          "name": "dokuTeknis",
          "type": "tuple"
        }
      ],
      "name": "requestCpotb",
      "outputs": [],
      "stateMutability": "nonpayable",
      "type": "function"
    },
    {
      "inputs": [
        {
          "internalType": "string",
          "name": "certId",
          "type": "string"
        },
        {
          "internalType": "string",
          "name": "ipfsCert",
          "type": "string"
        },
        {
          "components": [
            {
              "internalType": "string",
              "name": "userName",
              "type": "string"
            },
            {
              "internalType": "string",
              "name": "userInstance",
              "type": "string"
            },
            {
              "internalType": "address",
              "name": "userAddr",
              "type": "address"
            }
          ],
          "internalType": "struct BaseCertificate.UserCert",
          "name": "bpomData",
          "type": "tuple"
        }
      ],
      "name": "updateBpomApproveDetails",
      "outputs": [],
      "stateMutability": "nonpayable",
      "type": "function"
    },
    {
      "inputs": [
        {
          "internalType": "string",
          "name": "certId",
          "type": "string"
        },
        {
          "internalType": "string",
          "name": "ipfsCert",
          "type": "string"
        }
      ],
      "name": "updateBpomExtendCertificateDetails",
      "outputs": [],
      "stateMutability": "nonpayable",
      "type": "function"
    },
    {
      "inputs": [
        {
          "internalType": "string",
          "name": "certId",
          "type": "string"
        },
        {
          "internalType": "string",
          "name": "rejectMsg",
          "type": "string"
        },
        {
          "components": [
            {
              "internalType": "string",
              "name": "userName",
              "type": "string"
            },
            {
              "internalType": "string",
              "name": "userInstance",
              "type": "string"
            },
            {
              "internalType": "address",
              "name": "userAddr",
              "type": "address"
            }
          ],
          "internalType": "struct BaseCertificate.UserCert",
          "name": "bpomData",
          "type": "tuple"
        }
      ],
      "name": "updateBpomRejectDetails",
      "outputs": [],
      "stateMutability": "nonpayable",
      "type": "function"
    },
    {
      "inputs": [
        {
          "internalType": "string",
          "name": "certId",
          "type": "string"
        },
        {
          "internalType": "uint256",
          "name": "expiredTimestamp",
          "type": "uint256"
        }
      ],
      "name": "updateExtendRenewDetails",
      "outputs": [],
      "stateMutability": "nonpayable",
      "type": "function"
    },
    {
      "inputs": [
        {
          "internalType": "string",
          "name": "certId",
          "type": "string"
        }
      ],
      "name": "updateRenewDetails",
      "outputs": [],
      "stateMutability": "nonpayable",
      "type": "function"
    }
  ],
  "bytecode": "0x6080806040523460155761432a908161001a8239f35b5f80fdfe60806040526004361015610011575f80fd5b5f3560e01c806317e68309146129c457806319859c871461298c5780632e9cf8271461290857806334a34f301461280a578063500619d0146127895780635850607c1461272157806364b409ff146117725780636aa81299146116be5780636d1aa7d51461142557806370c056b014611460578063761fb19a146114255780637ab096481461137e57806381fc60a51461120f5780638b11d37b146111675780639740dbed146111505780639aaa5d8b14611115578063b07304361461104d578063b9e4908014610b8b578063be2e232514610b3b578063bf3f80ac14610acd578063e462dde514610994578063e8002b27146102da578063e9c260d7146102c3578063f02f5f23146101ef578063f5104ff1146101d8578063f53ef126146101c15763fb5fb9a314610142575f80fd5b346101bd5760603660031901126101bd576004356001600160401b0381116101bd57610172903690600401612f8b565b6024356001600160401b0381116101bd57610191903690600401612f8b565b90604435916001600160401b0383116101bd576101b56101bb933690600401612ace565b91613cb5565b005b5f80fd5b346101bd576101bb6101d236612f41565b90613b97565b346101bd576101bb6101e936613003565b91613804565b346101bd5760203660031901126101bd576004356002548110156101bd576102196102769161306b565b5061022381612bd3565b906102b961023360018301612bd3565b9161024060028201612bd3565b906102ac610292600383015493610284600561025e60048701612bd3565b950154976040519a8b9a60e08c5260e08c0190612b23565b908a820360208c0152612b23565b9088820360408a0152612b23565b9260ff8116606088015260ff608088019160081c16612cb2565b84820360a0860152612b23565b9060c08301520390f35b346101bd576101bb6102d436613003565b91613467565b346101bd5760603660031901126101bd576004356001600160401b0381116101bd5761030a903690600401612ace565b6024356001600160401b0381116101bd57610329903690600401612d8f565b906044356001600160401b0381116101bd57610349903690600401612e12565b610352826130bb565b6002549160208101905f5b84811061036657005b61036f8161306b565b5060405161039381610385602082018095613278565b03601f198101835282612aad565b51902060405160208101906103c06020828751808a875e81015f838201520301601f198101835282612aad565b519020146103d1575b60010161035d565b60036103dc8261306b565b5001805461ff00191661030017905561040660206103f98361306b565b5060405192838092613278565b600481520301902086518051906001600160401b03821161069757819061042d8454612b9b565b601f8111610944575b50602090601f83116001146108e1575f926108d6575b50508160011b915f199060031b1c19161781555b6001810160208801518051906001600160401b038211610697576104848354612b9b565b601f8111610891575b50602090601f831160011461082a576002949392915f918361081f575b50508160011b915f199060031b1c19161790555b0160408701518051906001600160401b0382116106975781906104e18454612b9b565b601f81116107cf575b50602090601f831160011461076c575f92610761575b50508160011b915f199060031b1c19161790555b61052260206103f98361306b565b600581520301902084518051906001600160401b038211610697576105478354612b9b565b601f811161071c575b50602090601f83116001146106b65760019392915f91836106ab575b50505f19600383901b1c191690831b1781555b0160208501518051906001600160401b038211610697576105a08354612b9b565b601f8111610652575b50602090601f83116001146105eb576001949392915f91836105e0575b50505f19600383901b1c191690841b1790555b90506103c9565b015190508a806105c6565b90601f19831691845f52815f20925f5b81811061063a575091600196959492918388959310610622575b505050811b0190556105d9565b01515f1960f88460031b161c191690558a8080610615565b929360206001819287860151815501950193016105fb565b835f5260205f20601f840160051c8101916020851061068d575b601f0160051c01905b81811061068257506105a9565b5f8155600101610675565b909150819061066c565b634e487b7160e01b5f52604160045260245ffd5b015190508a8061056c565b90601f19831691845f52815f20925f5b81811061070457509160019594929183879593106106ec575b505050811b01815561057f565b01515f1960f88460031b161c191690558a80806106df565b929360206001819287860151815501950193016106c6565b835f5260205f20601f840160051c81019160208510610757575b601f0160051c01905b81811061074c5750610550565b5f815560010161073f565b9091508190610736565b015190508980610500565b5f8581528281209350601f198516905b8181106107b7575090846001959493921061079f575b505050811b019055610514565b01515f1960f88460031b161c19169055898080610792565b9293602060018192878601518155019501930161077c565b909150835f5260205f20601f840160051c81019160208510610815575b90601f859493920160051c01905b81811061080757506104ea565b5f81558493506001016107fa565b90915081906107ec565b015190508b806104aa565b90601f19831691845f52815f20925f5b818110610879575091600193918560029897969410610861575b505050811b0190556104be565b01515f1960f88460031b161c191690558b8080610854565b9293602060018192878601518155019501930161083a565b835f5260205f20601f840160051c810191602085106108cc575b601f0160051c01905b8181106108c1575061048d565b5f81556001016108b4565b90915081906108ab565b01519050898061044c565b5f8581528281209350601f198516905b81811061092c5750908460019594939210610914575b505050811b018155610460565b01515f1960f88460031b161c19169055898080610907565b929360206001819287860151815501950193016108f1565b909150835f5260205f20601f840160051c8101916020851061098a575b90601f859493920160051c01905b81811061097c5750610436565b5f815584935060010161096f565b9091508190610961565b346101bd5760a03660031901126101bd576004356001600160401b0381116101bd576109c4903690600401612ace565b6024356001600160401b0381116101bd576109e3903690600401612ace565b6044356001600160401b0381116101bd57610a02903690600401612ace565b906064356001600160401b0381116101bd57610a3e92610a29610a37923690600401612ace565b610a31612b85565b916130e9565b9083613467565b600254602082015f5b828110610a5057005b80610a5c60019261306b565b50604051610a7281610385602082018095613278565b5190206040516020810190610a9f6020828a51808a875e81015f838201520301601f198101835282612aad565b51902014610aae575b01610a47565b6003610ab98261306b565b5001805461ff001916610200179055610aa8565b346101bd5760203660031901126101bd576004356001600160401b0381116101bd57610b23602080610b06610b37943690600401612ace565b604051928184925191829101835e81016001815203019020612bd3565b604051918291602083526020830190612b23565b0390f35b346101bd5760203660031901126101bd576004356001600160401b0381116101bd57610b7f610b71610b37923690600401612ace565b610b7961335d565b506133b5565b60405191829182612e9d565b346101bd5760c03660031901126101bd576004356001600160401b0381116101bd57610bbb903690600401612ace565b6024356001600160401b0381116101bd57610bda903690600401612ace565b6044356001600160401b0381116101bd57610bf9903690600401612ace565b6064356001600160401b0381116101bd57610c18903690600401612ace565b610c20612b85565b60a435916001600160401b0383116101bd57610c43610c49933690600401612ace565b936130e9565b604051906001845192602081818801958087835e810160038152030190200185516001600160401b03811161069757610c828254612b9b565b601f8111611008575b506020601f8211600114610fa1579080610cc29493925f91610f96575b508160011b915f199060031b1c19161790555b8385613804565b600254925f5b848110610cd157005b610cda8161306b565b50604051610cf081610385602082018095613278565b5190206040516020810190610d1d6020828751808a875e81015f838201520301601f198101835282612aad565b51902014610d2e575b600101610cc8565b6001610d398261306b565b500186516001600160401b03811161069757610d558254612b9b565b601f8111610f51575b50806020601f8211600114610eee575f91610ee3575b508160011b915f199060031b1c19161790555b6003610d928261306b565b5001805461ff0019166101001790556004610dac8261306b565b500184516001600160401b03811161069757610dc88254612b9b565b601f8111610e9e575b50806020601f8211600114610e3d575f91610e32575b508160011b915f199060031b1c19161790555b60be420190814211610e1e576001916005610e148361306b565b5001559050610d26565b634e487b7160e01b5f52601160045260245ffd5b905086015189610de7565b5f8481528181209250601f198416905b818110610e8657509083600194939210610e6e575b5050811b019055610dfa565b8801515f1960f88460031b161c191690558980610e62565b9192602060018192868d015181550194019201610e4d565b825f5260205f20601f830160051c81019160208410610ed9575b601f0160051c01905b818110610ece5750610dd1565b5f8155600101610ec1565b9091508190610eb8565b905088015189610d74565b5f8481528181209250601f198416905b8b828210610f395750509083600194939210610f21575b5050811b019055610d87565b8a01515f1960f88460031b161c191690558980610f15565b60018495602093958493015181550194019201610efe565b825f5260205f20601f830160051c81019160208410610f8c575b601f0160051c01905b818110610f815750610d5e565b5f8155600101610f74565b9091508190610f6b565b905088015189610ca8565b601f19821690835f52805f20915f5b8a828210610ff0575050918391610cc296959460019410610fd8575b5050811b019055610cbb565b8a01515f1960f88460031b161c191690558980610fcc565b60018495602093958493015181550194019201610fb0565b825f5260205f20601f830160051c81019160208410611043575b601f0160051c01905b8181106110385750610c8b565b5f815560010161102b565b9091508190611022565b346101bd5761106661105e36612f41565b819291613b97565b6002549060208101905f5b83811061107a57005b6110838161306b565b5060405161109981610385602082018095613278565b51902060405160208101906110c66020828751808a875e81015f838201520301601f198101835282612aad565b519020146110d7575b600101611071565b60036110e28261306b565b500161060061ff001982541617905560be420190814211610e1e57600191600561110b8361306b565b50015590506110cf565b346101bd5760203660031901126101bd576004356001600160401b0381116101bd57610b7f61114b610b37923690600401612ace565b6133b5565b346101bd576101bb61116136612e6c565b906132e2565b346101bd5761118061117836612e6c565b8192916132e2565b600254602082015f5b82811061119257005b8061119e60019261306b565b506040516111b481610385602082018095613278565b51902060405160208101906111e16020828a51808a875e81015f838201520301601f198101835282612aad565b519020146111f0575b01611189565b60036111fb8261306b565b5001805461ff0019166105001790556111ea565b346101bd5760203660031901126101bd576004356001600160401b0381116101bd5761123f903690600401612ace565b60025460208201915f805b83811061131b575060ff61125e9116613130565b925f915f5b8481106112785760405180610b378882612cbf565b600261038561129d6112898461306b565b506040519283916020830195869101613278565b51902060405160208101906112ca6020828751808a875e81015f838201520301601f198101835282612aad565b519020146112db575b600101611263565b9261131360019161130d6112f76112f18861306b565b506131cd565b60ff831690611306828c6131ad565b52896131ad565b50613244565b9390506112d3565b600261038561132c6112898461306b565b51902060405160208101906113596020828851808c875e81015f838201520301601f198101835282612aad565b5190201461136a575b60010161124a565b90611376600191613244565b919050611362565b346101bd5760203660031901126101bd576004356001600160401b0381116101bd576020806113b4611409933690600401612ace565b604051928184925191829101835e81016004815203019020610b376113d882612bd3565b916114176113f460026113ed60018501612bd3565b9301612bd3565b91604051958695606087526060870190612b23565b908582036020870152612b23565b908382036040850152612b23565b346101bd5760203660031901126101bd576004356001600160401b0381116101bd57610b2361145b610b37923690600401612ace565b613255565b346101bd5760203660031901126101bd576004356001600160401b0381116101bd57611490903690600401612ace565b60405161149c81612a25565b606081526020810160609052604081015f9052606001606090526040516114c281612a5b565b606081526020810160609052604001606090526040516114e181612a76565b60608152602001606090526040518151908060208401928084835e810160038152036020019020906040518084518084835e81016004815203602001902092604051918291518091835e8101600581520360200190206040519161154483612a25565b61154d81612bd3565b835261155b60018201612bd3565b9360208401948552600282015460ff16916040850192835260030161157f90612bd3565b91606085019283526040519161159483612a5b565b61159d81612bd3565b83526115ab60018201612bd3565b90602084019182526002016115bf90612bd3565b9160408401928352604051956115d487612a76565b6115dd81612bd3565b87526001016115eb90612bd3565b946020870195865260405198899860608a525160608a016080905260e08a0161161391612b23565b9051898203605f190160808b015261162b9190612b23565b915160ff1660a089015251878203605f190160c089015261164c9190612b23565b92868403602088015251606084526060840161166791612b23565b905190838103602085015261167b91612b23565b905191808203906040015261168f91612b23565b9183830360408501525160408352604083016116aa91612b23565b9051918082039060200152610b3791612b23565b346101bd5760203660031901126101bd576004356001600160401b0381116101bd576020806116f4611751933690600401612ace565b604051928184925191829101835e81016003815203019020610b3761171882612bd3565b9161172560018201612bd3565b61175f61173c600360ff6002860154169401612bd3565b91604051968796608088526080880190612b23565b908682036020880152612b23565b9160408501528382036060850152612b23565b346101bd576101003660031901126101bd576004356001600160401b0381116101bd576117a3903690600401612ace565b6024356001600160401b0381116101bd576117c2903690600401612ace565b6044356001600160401b0381116101bd576117e1903690600401612ace565b916064356001600160a01b03811681036101bd576084359360ff85168095036101bd5760a4356001600160401b0381116101bd57611823903690600401612ace565b9460c4356001600160401b0381116101bd57611843903690600401612d8f565b9260e435906001600160401b0382116101bd578361186861186e933690600401612e12565b976130e9565b956118be85602098604051906118848b83612aad565b5f82526040516118948c82612aad565b5f815261189f61309b565b50604051926118ad84612a5b565b83528b8301525f6040830152613cb5565b6040516118ca81612a25565b8581526040516118da8982612aad565b5f81528882019081526040820190848252606083019384526040518a818a5180838d01835e8101600381520301902092518051906001600160401b0382116106975781908c6119298754612b9b565b601f81116126d0575b50508c908d601f841160011461266c57505f92612661575b50508160011b915f199060031b1c19161783555b51805160018401916001600160401b038211610697578b61197f8454612b9b565b601f811161261c575b50508b908c601f84116001146125b15750918060ff949260039796945f926125a6575b50508160011b915f1990881b1c19161790555b511660ff60028301911660ff198254161790550190518051906001600160401b0382116106975781906119f18454612b9b565b601f8111612558575b508990601f83116001146124f5575f926124ea575b50508160011b915f199060031b1c19161790555b60405190611a3082612a40565b84825260405192611a418885612aad565b5f8452878301938452604083015260608201525f6080820152604051611a678782612aad565b5f815260a08201525f60c08201526002546801000000000000000081101561069757806001611a99920160025561306b565b9290926124d75781518051906001600160401b038211610697578190611abf8654612b9b565b601f8111612489575b508990601f8311600114612426575f9261241b575b50508160011b915f199060031b1c19161783555b518051906001600160401b038211610697578190611b126001860154612b9b565b601f81116123ca575b508890601f8311600114612360575f92612355575b50508160011b915f199060031b1c19161760018301555b6002820160408201518051906001600160401b038211610697578190611b6d8454612b9b565b601f8111612307575b508990601f83116001146122a4575f92612299575b50508160011b915f199060031b1c19161790555b6003820160ff806060840151161660ff19825416178155608082015160078110156122855761ff0082549160081b169061ff0019161790556004820160a08201518051906001600160401b03821161069757611bfb8354612b9b565b601f8111612242575b508890601f83116001146121d957918060c09492600596945f926121ce575b50508160011b915f199060031b1c19161790555b01519101556040518481845180838701835e8101600481520301902081518051906001600160401b038211610697578190611c728454612b9b565b601f8111612180575b508790601f831160011461211d575f92612112575b50508160011b915f199060031b1c19161781555b60018101858301518051906001600160401b03821161069757611cc78354612b9b565b601f81116120cf575b508790601f831160011461206657918060029492604096945f9261205b575b50508160011b915f199060031b1c19161790555b01910151918251916001600160401b038311610697578592611d258254612b9b565b94601f8611612004575b8495508490601f8311600114611f9d575f919083611f92575b50508160011b915f199060031b1c19161790555b604051928184925191829101835e8101600581520301902081519081516001600160401b038111610697578492611d938354612b9b565b601f8111611f40575b508390601f8311600114611eda5760019392915f9183611ecf575b50505f19600383901b1c191690831b1781555b01910151918251906001600160401b03821161069757611dea8354612b9b565b601f8111611e8c575b5080601f8311600114611e2d57508192935f92611e22575b50505f19600383901b1c191660019190911b179055005b015190508380611e0b565b90601f19831694845f52825f20925f905b878210611e74575050836001959610611e5c575b505050811b019055005b01515f1960f88460031b161c19169055838080611e52565b80600185968294968601518155019501930190611e3e565b835f52815f20601f840160051c810191838510611ec5575b601f0160051c01905b818110611eba5750611df3565b5f8155600101611ead565b9091508190611ea4565b015190508780611db7565b90601f19831691845f52855f20925f5b87828210611f2a575050916001959492918387959310611f12575b505050811b018155611dca565b01515f1960f88460031b161c19169055878080611f05565b6001859682939686015181550195019301611eea565b9091928094505f52855f20601f840160051c810191878510611f88575b90601f8896959493920160051c01905b818110611f7a5750611d9c565b5f8155879550600101611f6d565b9091508190611f5d565b015190508880611d48565b601f95949392919519821695835f52855f20915f5b888110611fec57508360019596979810611fd4575b505050811b019055611d5c565b01515f1960f88460031b161c19169055888080611fc7565b82820151845589976001909401939283019201611fb2565b918094505f9591939552865f20601f840160051c810191888510612051575b90601f899694979593920160051c01905b81811061204357505084611d2f565b5f8155889550600101612034565b9091508190612023565b015190508a80611cef565b90601f19831691845f52895f20925f5b8b8282106120b95750509260019285926040989660029896106120a1575b505050811b019055611d03565b01515f1960f88460031b161c191690558a8080612094565b6001859682939686015181550195019301612076565b835f52885f20601f840160051c8101918a8510612108575b601f0160051c01905b8181106120fd5750611cd0565b5f81556001016120f0565b90915081906120e7565b015190508780611c90565b5f8581528981209350601f198516905b8a82821061216a575050908460019594939210612152575b505050811b018155611ca4565b01515f1960f88460031b161c19169055878080612145565b600185968293968601518155019501930161212d565b909150835f52875f20601f840160051c8101918985106121c4575b90601f859493920160051c01905b8181106121b65750611c7b565b5f81558493506001016121a9565b909150819061219b565b015190508b80611c23565b90601f19831691845f528a5f20925f5b8c82821061222c5750509260019285926005989660c0989610612214575b505050811b019055611c37565b01515f1960f88460031b161c191690558b8080612207565b60018596829396860151815501950193016121e9565b835f52895f20601f840160051c8101918b851061227b575b601f0160051c01905b8181106122705750611c04565b5f8155600101612263565b909150819061225a565b634e487b7160e01b5f52602160045260245ffd5b015190508980611b8b565b5f8581528b81209350601f198516905b8c8282106122f15750509084600195949392106122d9575b505050811b019055611b9f565b01515f1960f88460031b161c191690558980806122cc565b60018596829396860151815501950193016122b4565b909150835f52895f20601f840160051c8101918b851061234b575b90601f859493920160051c01905b81811061233d5750611b76565b5f8155849350600101612330565b9091508190612322565b015190508880611b30565b600186015f9081528a81209350601f198516905b8b8282106123b457505090846001959493921061239c575b505050811b016001830155611b47565b01515f1960f88460031b161c1916905588808061238c565b6001859682939686015181550195019301612374565b909150600185015f52885f20601f840160051c8101918a8510612411575b90601f859493920160051c01905b8181106124035750611b1b565b5f81558493506001016123f6565b90915081906123e8565b015190508980611add565b5f8781528b81209350601f198516905b8c82821061247357505090846001959493921061245b575b505050811b018355611af1565b01515f1960f88460031b161c1916905589808061244e565b6001859682939686015181550195019301612436565b909150855f52895f20601f840160051c8101918b85106124cd575b90601f859493920160051c01905b8181106124bf5750611ac8565b5f81558493506001016124b2565b90915081906124a4565b634e487b7160e01b5f525f60045260245ffd5b015190508980611a0f565b5f8581528b81209350601f198516905b8c82821061254257505090846001959493921061252a575b505050811b019055611a23565b01515f1960f88460031b161c1916905589808061251d565b6001859682939686015181550195019301612505565b909150835f52895f20601f840160051c8101918b851061259c575b90601f859493920160051c01905b81811061258e57506119fa565b5f8155849350600101612581565b9091508190612573565b015190508e806119ab565b9190601f198416855f52835f20935f905b828210612604575050926001928592600399989660ff9896106125ed575b505050811b0190556119be565b01515f19838a1b60f8161c191690558e80806125e0565b806001869782949787015181550196019401906125c2565b845f52815f2090601f850160051c8201928510612657575b601f0160051c01905b81811061264c578d9150611988565b5f815560010161263d565b9091508190612634565b015190508c8061194a565b5f8881528181209450601f198616915b8282106126b85750509084600195949392106126a0575b505050811b01835561195e565b01515f1960f88460031b161c191690558c8080612693565b8060018697829497870151815501960194019061267c565b90919250865f52815f2090601f850160051c8201928510612717575b90601f859493920160051c01905b818110612709578e9150611932565b5f81558493506001016126fa565b90915081906126ec565b346101bd575f3660031901126101bd5760025461273d81613130565b905f805b8282106127565760405180610b378682612cbf565b61278160019161130d61276b6112f18661306b565b60ff83169061277a828a6131ad565b52876131ad565b910190612741565b346101bd5760203660031901126101bd576004356001600160401b0381116101bd576020806127bf6127fc933690600401612ace565b604051928184925191829101835e81016005815203019020610b376127e860016113ed84612bd3565b604051938493604085526040850190612b23565b908382036020850152612b23565b346101bd5760203660031901126101bd576004356001600160401b0381116101bd576020806128406128b9933690600401612ace565b604051928184925191829101835e81015f815203019020610b3760ff825416916128f96001820154916128ea60028201546003830154600484015460058501549060068601549261289360078801612c73565b946128ac600d6128a5600a8b01612c73565b9901612bd3565b996040519d8e809e612cb2565b60208d015260408c015260608b015260808a015260a089015260c088015261014060e0880152610140870190612b47565b90858203610100870152612b47565b90838203610120850152612b23565b346101bd5760603660031901126101bd576004356001600160401b0381116101bd57612938903690600401612ace565b6024356001600160401b0381116101bd57612957903690600401612ace565b906044356001600160a01b03811681036101bd57610b3792612978926130e9565b604051918291602083526020830190612b47565b346101bd5760203660031901126101bd576004356001600160401b0381116101bd576129bf6101bb913690600401612ace565b6130bb565b346101bd5760203660031901126101bd576004356001600160401b0381116101bd5761297860076020806129ff610b37953690600401612ace565b612a0761309b565b50604051928184925191829101835e81015f81520301902001612c73565b608081019081106001600160401b0382111761069757604052565b60e081019081106001600160401b0382111761069757604052565b606081019081106001600160401b0382111761069757604052565b604081019081106001600160401b0382111761069757604052565b61014081019081106001600160401b0382111761069757604052565b90601f801991011681019081106001600160401b0382111761069757604052565b81601f820112156101bd578035906001600160401b0382116106975760405192612b02601f8401601f191660200185612aad565b828452602083830101116101bd57815f926020809301838601378301015290565b805180835260209291819084018484015e5f828201840152601f01601f1916010190565b906040612b72612b608451606085526060850190612b23565b60208501518482036020860152612b23565b928101516001600160a01b031691015290565b608435906001600160a01b03821682036101bd57565b90600182811c92168015612bc9575b6020831014612bb557565b634e487b7160e01b5f52602260045260245ffd5b91607f1691612baa565b9060405191825f825492612be684612b9b565b8084529360018116908115612c515750600114612c0d575b50612c0b92500383612aad565b565b90505f9291925260205f20905f915b818310612c35575050906020612c0b928201015f612bfe565b6020919350806001915483858901015201910190918492612c1c565b905060209250612c0b94915060ff191682840152151560051b8201015f612bfe565b90604051612c8081612a5b565b60408193612c8d81612bd3565b8352612c9b60018201612bd3565b6020840152600201546001600160a01b0316910152565b9060078210156122855752565b602081016020825282518091526040820191602060408360051b8301019401925f915b838310612cf157505050505090565b9091929394602080600192603f1985820301865288519060c080612d7a612d49612d37612d27875160e0885260e0880190612b23565b888801518782038a890152612b23565b60408701518682036040880152612b23565b60ff6060870151166060860152612d6860808701516080870190612cb2565b60a086015185820360a0870152612b23565b93015191015297019301930191939290612ce2565b91906060838203126101bd5760405190612da882612a5b565b819380356001600160401b0381116101bd5782612dc6918301612ace565b835260208101356001600160401b0381116101bd5782612de7918301612ace565b60208401526040810135916001600160401b0383116101bd57604092612e0d9201612ace565b910152565b91906040838203126101bd5760405190612e2b82612a76565b819380356001600160401b0381116101bd5782612e49918301612ace565b83526020810135916001600160401b0383116101bd57602092612e0d9201612ace565b60406003198201126101bd57600435906001600160401b0382116101bd57612e9691600401612ace565b9060243590565b90612f3e9160208152612eb4602082018351612cb2565b602082015160408201526040820151606082015260608201516080820152608082015160a082015260a082015160c082015260c082015160e0820152610120612f28612f1260e0850151610140610100860152610160850190612b47565b610100850151848203601f190184860152612b47565b92015190610140601f1982850301910152612b23565b90565b9060406003198301126101bd576004356001600160401b0381116101bd5782612f6c91600401612ace565b91602435906001600160401b0382116101bd57612f3e91600401612ace565b91906060838203126101bd5760405190612fa482612a5b565b819380356001600160401b0381116101bd5782612fc2918301612ace565b835260208101356001600160401b0381116101bd57604092612fe5918301612ace565b60208401520135906001600160a01b03821682036101bd5760400152565b60606003198201126101bd576004356001600160401b0381116101bd578161302d91600401612ace565b916024356001600160401b0381116101bd578261304c91600401612ace565b91604435906001600160401b0382116101bd57612f3e91600401612f8b565b6002548110156130875760025f52600660205f20910201905f90565b634e487b7160e01b5f52603260045260245ffd5b604051906130a882612a5b565b5f60408360608152606060208201520152565b60208091604051928184925191829101835e81015f815203019020426004820155600360ff19825416179055565b91906130f361309b565b506040519261310184612a5b565b835260208301526001600160a01b0316604082015290565b6001600160401b0381116106975760051b60200190565b9061313a82613119565b6131476040519182612aad565b8281528092613158601f1991613119565b01905f5b82811061316857505050565b60209060405161317781612a40565b60608152606083820152606060408201525f60608201525f6080820152606060a08201525f60c08201528282850101520161315c565b80518210156130875760209160051b010190565b60078210156122855752565b906040516131da81612a40565b60c0600582946131e981612bd3565b84526131f760018201612bd3565b602085015261320860028201612bd3565b604085015261322c60ff6003830154818116606088015260081c16608086016131c1565b61323860048201612bd3565b60a08501520154910152565b60ff1660ff8114610e1e5760010190565b6040518151612f3e92602091839181908401835e81016001815203019020612bd3565b5f929181549161328783612b9b565b92600181169081156132cf57506001146132a057505050565b90919293505f5260205f205f905b8382106132bb5750500190565b6001816020925484860152019101906132ae565b60ff191683525050811515909102019150565b904211156133185760208091604051928184925191829101835e81015f815203019020426006820155600560ff19825416179055565b60405162461bcd60e51b815260206004820152601860248201527f536572746966696b6174206d61736968206265726c616b7500000000000000006044820152606490fd5b6040519061336a82612a91565b6060610120835f81525f60208201525f60408201525f838201525f60808201525f60a08201525f60c082015261339e61309b565b60e08201526133ab61309b565b6101008201520152565b602080916133c161335d565b50604051928184925191829101835e81015f81520301902061345e600d604051926133eb84612a91565b6133f960ff825416856131c1565b60018101546020850152600281015460408501526003810154606085015260048101546080850152600581015460a0850152600681015460c085015261344160078201612c73565b60e0850152613452600a8201612c73565b61010085015201612bd3565b61012082015290565b92919060405160208551918181818901948086835e81015f81520301902095604051928391518091835e81016001815203019020908051906001600160401b0382116106975781906134b98454612b9b565b601f81116137b4575b50602090601f8311600114613751575f92613746575b50508160011b915f199060031b1c19161790555b80518051600a8501916001600160401b0382116106975761350d8354612b9b565b601f8111613701575b50602090601f831160011461369a576020949392915f918361368f575b50508160011b915f199060031b1c19161790555b6040810151600c850180546001600160a01b0319166001600160a01b039290921691909117905501518051909290600b8201906001600160401b038111610697576135928254612b9b565b601f811161364a575b50602094601f82116001146135e9579481929394955f926135de575b50508160011b915f199060031b1c19161790555b426003820155805460ff19166002179055565b015190505f806135b7565b601f19821695835f52805f20915f5b8881106136325750836001959697981061361a575b505050811b0190556135cb565b01515f1960f88460031b161c191690555f808061360d565b919260206001819286850151815501940192016135f8565b825f5260205f20601f830160051c81019160208410613685575b601f0160051c01905b81811061367a575061359b565b5f815560010161366d565b9091508190613664565b015190505f80613533565b90601f19831691845f52815f20925f5b8181106136e95750916001939185602098979694106136d1575b505050811b019055613547565b01515f1960f88460031b161c191690555f80806136c4565b929360206001819287860151815501950193016136aa565b835f5260205f20601f840160051c8101916020851061373c575b601f0160051c01905b8181106137315750613516565b5f8155600101613724565b909150819061371b565b015190505f806134d8565b5f8581528281209350601f198516905b81811061379c5750908460019594939210613784575b505050811b0190556134ec565b01515f1960f88460031b161c191690555f8080613777565b92936020600181928786015181550195019301613761565b909150835f5260205f20601f840160051c810191602085106137fa575b90601f859493920160051c01905b8181106137ec57506134c2565b5f81558493506001016137df565b90915081906137d1565b6020809194939294604051928184925191829101835e81015f815203019020908051600a8301908051906001600160401b038211610697576138468354612b9b565b601f8111613b52575b50602090601f8311600114613aeb576020949392915f9183613ae0575b50508160011b915f199060031b1c19161790555b6040810151600c840180546001600160a01b0319166001600160a01b039290921691909117905501518051600b8301916001600160401b0382116106975781906138ca8454612b9b565b601f8111613a90575b50602090601f8311600114613a2d575f92613a22575b50508160011b915f199060031b1c19161790555b42600282015560be420190814211610e1e57600d916005820155600160ff198254161781550182516001600160401b0381116106975761393d8254612b9b565b601f81116139dd575b506020601f821160011461397f57819293945f92613974575b50508160011b915f199060031b1c1916179055565b015190505f8061395f565b601f19821690835f52805f20915f5b8181106139c5575095836001959697106139ad575b505050811b019055565b01515f1960f88460031b161c191690555f80806139a3565b9192602060018192868b01518155019401920161398e565b825f5260205f20601f830160051c81019160208410613a18575b601f0160051c01905b818110613a0d5750613946565b5f8155600101613a00565b90915081906139f7565b015190505f806138e9565b5f8581528281209350601f198516905b818110613a785750908460019594939210613a60575b505050811b0190556138fd565b01515f1960f88460031b161c191690555f8080613a53565b92936020600181928786015181550195019301613a3d565b909150835f5260205f20601f840160051c81019160208510613ad6575b90601f859493920160051c01905b818110613ac857506138d3565b5f8155849350600101613abb565b9091508190613aad565b015190505f8061386c565b90601f19831691845f52815f20925f5b818110613b3a575091600193918560209897969410613b22575b505050811b019055613880565b01515f1960f88460031b161c191690555f8080613b15565b92936020600181928786015181550195019301613afb565b835f5260205f20601f840160051c81019160208510613b8d575b601f0160051c01905b818110613b82575061384f565b5f8155600101613b75565b9091508190613b6c565b60208091939293604051928184925191829101835e81015f81520301902042600282015560be420190814211610e1e57600d916005820155600660ff198254161781550182516001600160401b03811161069757613bf58254612b9b565b601f8111613c70575b506020601f8211600114613c2b57819293945f926139745750508160011b915f199060031b1c1916179055565b601f19821690835f52805f20915f5b818110613c58575095836001959697106139ad57505050811b019055565b9192602060018192868b015181550194019201613c3a565b825f5260205f20601f830160051c81019160208410613cab575b601f0160051c01905b818110613ca05750613bfe565b5f8155600101613c93565b9091508190613c8a565b929091604051613cc481612a91565b5f81526020810194428652604082015f8152606083015f8152608084015f815260a08501915f835260c08601935f855260e087019586526101008701998a5260209a8b806040519a613d16828d612aad565b5f8c526101208b019b8c52604051928184925191829101835e81015f815203019020975160078110156122855760ff80198a541691161788555160018801555160028701555160038601555160048501555160058401555160068301556007820190519081518051906001600160401b038211610697578190613d998454612b9b565b601f81116142a6575b508990601f8311600114614243575f92614238575b50508160011b915f199060031b1c19161790555b60088201868201518051906001600160401b038211610697578190613df08454612b9b565b601f81116141ea575b508990601f8311600114614187575f9261417c575b50508160011b915f199060031b1c19161790555b604001516009820180546001600160a01b0319166001600160a01b0392909216919091179055925180518051919491600a8301916001600160401b038211610697578190613e708454612b9b565b601f811161412e575b508890601f83116001146140cb575f926140c0575b50508160011b915f199060031b1c19161790555b600b81019385810151948551956001600160401b03871161069757613ec78254612b9b565b601f811161407d575b508790601f881160011461401657968091600d9697985f9261400b575b50508160011b915f199060031b1c19161790555b60400151600c820180546001600160a01b0319166001600160a01b03929092169190911790559151805190949190920191906001600160401b03821161069757613f4b8354612b9b565b601f8111613fc8575b5080601f8311600114613f815750819293945f926139745750508160011b915f199060031b1c1916179055565b90601f19831695845f52825f20925f905b888210613fb0575050836001959697106139ad57505050811b019055565b80600185968294968601518155019501930190613f92565b835f52815f20601f840160051c810191838510614001575b601f0160051c01905b818110613ff65750613f54565b5f8155600101613fe9565b9091508190613fe0565b015190505f80613eed565b90601f19881691835f52895f20925f5b8b82821061406757505091600193918a600d999a9b941061404f575b505050811b019055613f01565b01515f1960f88460031b161c191690555f8080614042565b6001859682939686015181550195019301614026565b825f52885f20601f890160051c8101918a8a106140b6575b601f0160051c01905b8181106140ab5750613ed0565b5f815560010161409e565b9091508190614095565b015190505f80613e8e565b5f8581528a81209350601f198516905b8b828210614118575050908460019594939210614100575b505050811b019055613ea2565b01515f1960f88460031b161c191690555f80806140f3565b60018596829396860151815501950193016140db565b909150835f52885f20601f840160051c8101918a8510614172575b90601f859493920160051c01905b8181106141645750613e79565b5f8155849350600101614157565b9091508190614149565b015190505f80613e0e565b5f8581528b81209350601f198516905b8c8282106141d45750509084600195949392106141bc575b505050811b019055613e22565b01515f1960f88460031b161c191690555f80806141af565b6001859682939686015181550195019301614197565b909150835f52895f20601f840160051c8101918b851061422e575b90601f859493920160051c01905b8181106142205750613df9565b5f8155849350600101614213565b9091508190614205565b015190505f80613db7565b5f8581528b81209350601f198516905b8c828210614290575050908460019594939210614278575b505050811b019055613dcb565b01515f1960f88460031b161c191690555f808061426b565b6001859682939686015181550195019301614253565b909150835f52895f20601f840160051c8101918b85106142ea575b90601f859493920160051c01905b8181106142dc5750613da2565b5f81558493506001016142cf565b90915081906142c156fea2646970667358221220e7bf909b4abd6d55cd7ad9654b87b4ac4444013bad6198510650347156950ff164736f6c634300081b0033",
  "linkReferences": {},
  "deployedLinkReferences": {}
}