{
  "_format": "hh-sol-artifact-1",
  "contractName": "CpotbCertificate",
  "sourceName": "contracts/CpotbCertificate.sol",
  "abi": [
    {
      "inputs": [
        {
          "internalType": "uint256",
          "name": "",
          "type": "uint256"
        }
      ],
      "name": "allCpotbData",
      "outputs": [
        {
          "internalType": "string",
          "name": "certId",
          "type": "string"
        },
        {
          "internalType": "string",
          "name": "certNumber",
          "type": "string"
        },
        {
          "internalType": "string",
          "name": "instanceName",
          "type": "string"
        },
        {
          "internalType": "uint8",
          "name": "tipePermohonan",
          "type": "uint8"
        },
        {
          "internalType": "enum EnumsLibrary.StatusCertificate",
          "name": "status",
          "type": "uint8"
        },
        {
          "internalType": "string",
          "name": "certHash",
          "type": "string"
        },
        {
          "internalType": "uint256",
          "name": "expiredTimestamp",
          "type": "uint256"
        }
      ],
      "stateMutability": "view",
      "type": "function"
    },
    {
      "inputs": [
        {
          "internalType": "string",
          "name": "certNumber",
          "type": "string"
        },
        {
          "internalType": "string",
          "name": "certId",
          "type": "string"
        },
        {
          "internalType": "string",
          "name": "bpomName",
          "type": "string"
        },
        {
          "internalType": "string",
          "name": "bpomInstance",
          "type": "string"
        },
        {
          "internalType": "address",
          "name": "bpomAddr",
          "type": "address"
        },
        {
          "internalType": "string",
          "name": "ipfsCert",
          "type": "string"
        }
      ],
      "name": "approveCpotb",
      "outputs": [],
      "stateMutability": "nonpayable",
      "type": "function"
    },
    {
      "inputs": [
        {
          "internalType": "string",
          "name": "certId",
          "type": "string"
        },
        {
          "internalType": "string",
          "name": "ipfsCert",
          "type": "string"
        }
      ],
      "name": "approveExtendCpotb",
      "outputs": [],
      "stateMutability": "nonpayable",
      "type": "function"
    },
    {
      "inputs": [
        {
          "internalType": "string",
          "name": "",
          "type": "string"
        }
      ],
      "name": "certDetailById",
      "outputs": [
        {
          "internalType": "enum EnumsLibrary.StatusCertificate",
          "name": "status",
          "type": "uint8"
        },
        {
          "internalType": "uint256",
          "name": "timestampRequest",
          "type": "uint256"
        },
        {
          "internalType": "uint256",
          "name": "timestampApprove",
          "type": "uint256"
        },
        {
          "internalType": "uint256",
          "name": "timestampRejected",
          "type": "uint256"
        },
        {
          "internalType": "uint256",
          "name": "timestampRenewRequest",
          "type": "uint256"
        },
        {
          "internalType": "uint256",
          "name": "timestampExpired",
          "type": "uint256"
        },
        {
          "internalType": "uint256",
          "name": "timestampExtendRequest",
          "type": "uint256"
        },
        {
          "internalType": "uint256",
          "name": "timestampExtendApprove",
          "type": "uint256"
        },
        {
          "internalType": "uint256",
          "name": "timestampExtendReject",
          "type": "uint256"
        },
        {
          "internalType": "uint256",
          "name": "timestampExtendRenew",
          "type": "uint256"
        },
        {
          "components": [
            {
              "internalType": "string",
              "name": "userName",
              "type": "string"
            },
            {
              "internalType": "string",
              "name": "userInstance",
              "type": "string"
            },
            {
              "internalType": "address",
              "name": "userAddr",
              "type": "address"
            }
          ],
          "internalType": "struct BaseCertificate.UserCert",
          "name": "sender",
          "type": "tuple"
        },
        {
          "components": [
            {
              "internalType": "string",
              "name": "userName",
              "type": "string"
            },
            {
              "internalType": "string",
              "name": "userInstance",
              "type": "string"
            },
            {
              "internalType": "address",
              "name": "userAddr",
              "type": "address"
            }
          ],
          "internalType": "struct BaseCertificate.UserCert",
          "name": "bpom",
          "type": "tuple"
        },
        {
          "internalType": "string",
          "name": "ipfsCert",
          "type": "string"
        }
      ],
      "stateMutability": "view",
      "type": "function"
    },
    {
      "inputs": [
        {
          "internalType": "string",
          "name": "",
          "type": "string"
        }
      ],
      "name": "cpotbDataById",
      "outputs": [
        {
          "internalType": "string",
          "name": "cpotbId",
          "type": "string"
        },
        {
          "internalType": "string",
          "name": "cpotbNumber",
          "type": "string"
        },
        {
          "internalType": "uint8",
          "name": "tipePermohonan",
          "type": "uint8"
        },
        {
          "internalType": "string",
          "name": "factoryType",
          "type": "string"
        }
      ],
      "stateMutability": "view",
      "type": "function"
    },
    {
      "inputs": [
        {
          "components": [
            {
              "internalType": "string",
              "name": "userName",
              "type": "string"
            },
            {
              "internalType": "string",
              "name": "userInstance",
              "type": "string"
            },
            {
              "internalType": "address",
              "name": "userAddr",
              "type": "address"
            }
          ],
          "internalType": "struct BaseCertificate.UserCert",
          "name": "senderData",
          "type": "tuple"
        },
        {
          "components": [
            {
              "internalType": "string",
              "name": "userName",
              "type": "string"
            },
            {
              "internalType": "string",
              "name": "userInstance",
              "type": "string"
            },
            {
              "internalType": "address",
              "name": "userAddr",
              "type": "address"
            }
          ],
          "internalType": "struct BaseCertificate.UserCert",
          "name": "bpomData",
          "type": "tuple"
        },
        {
          "internalType": "string",
          "name": "certId",
          "type": "string"
        }
      ],
      "name": "createCertificateDetails",
      "outputs": [],
      "stateMutability": "nonpayable",
      "type": "function"
    },
    {
      "inputs": [
        {
          "internalType": "string",
          "name": "userName",
          "type": "string"
        },
        {
          "internalType": "string",
          "name": "userInstance",
          "type": "string"
        },
        {
          "internalType": "address",
          "name": "userAddr",
          "type": "address"
        }
      ],
      "name": "createUserCertificate",
      "outputs": [
        {
          "components": [
            {
              "internalType": "string",
              "name": "userName",
              "type": "string"
            },
            {
              "internalType": "string",
              "name": "userInstance",
              "type": "string"
            },
            {
              "internalType": "address",
              "name": "userAddr",
              "type": "address"
            }
          ],
          "internalType": "struct BaseCertificate.UserCert",
          "name": "",
          "type": "tuple"
        }
      ],
      "stateMutability": "pure",
      "type": "function"
    },
    {
      "inputs": [
        {
          "internalType": "string",
          "name": "",
          "type": "string"
        }
      ],
      "name": "dokuAdminById",
      "outputs": [
        {
          "internalType": "string",
          "name": "suratPermohonan",
          "type": "string"
        },
        {
          "internalType": "string",
          "name": "buktiPembayaranNegaraBukanPajak",
          "type": "string"
        },
        {
          "internalType": "string",
          "name": "suratKomitmen",
          "type": "string"
        }
      ],
      "stateMutability": "view",
      "type": "function"
    },
    {
      "inputs": [
        {
          "internalType": "string",
          "name": "",
          "type": "string"
        }
      ],
      "name": "dokuReSertifikasiById",
      "outputs": [
        {
          "internalType": "string",
          "name": "suratPermohonan",
          "type": "string"
        },
        {
          "internalType": "string",
          "name": "buktiPembayaranNegaraBukanPajak",
          "type": "string"
        },
        {
          "internalType": "string",
          "name": "denahBangunan",
          "type": "string"
        },
        {
          "internalType": "string",
          "name": "sistemMutu",
          "type": "string"
        },
        {
          "internalType": "string",
          "name": "cpotbIpfs",
          "type": "string"
        },
        {
          "internalType": "string",
          "name": "dokumenCapa",
          "type": "string"
        }
      ],
      "stateMutability": "view",
      "type": "function"
    },
    {
      "inputs": [
        {
          "internalType": "string",
          "name": "",
          "type": "string"
        }
      ],
      "name": "dokuTeknisById",
      "outputs": [
        {
          "internalType": "string",
          "name": "denahBangunan",
          "type": "string"
        },
        {
          "internalType": "string",
          "name": "sistemMutu",
          "type": "string"
        }
      ],
      "stateMutability": "view",
      "type": "function"
    },
    {
      "inputs": [
        {
          "internalType": "string",
          "name": "certId",
          "type": "string"
        },
        {
          "internalType": "uint256",
          "name": "expTimestamp",
          "type": "uint256"
        },
        {
          "components": [
            {
              "internalType": "string",
              "name": "suratPermohonan",
              "type": "string"
            },
            {
              "internalType": "string",
              "name": "buktiPembayaranNegaraBukanPajak",
              "type": "string"
            },
            {
              "internalType": "string",
              "name": "denahBangunan",
              "type": "string"
            },
            {
              "internalType": "string",
              "name": "sistemMutu",
              "type": "string"
            },
            {
              "internalType": "string",
              "name": "cpotbIpfs",
              "type": "string"
            },
            {
              "internalType": "string",
              "name": "dokumenCapa",
              "type": "string"
            }
          ],
          "internalType": "struct CpotbCertificate.DokumenReSertifikasi",
          "name": "newDoku",
          "type": "tuple"
        }
      ],
      "name": "extendCpotb",
      "outputs": [],
      "stateMutability": "nonpayable",
      "type": "function"
    },
    {
      "inputs": [],
      "name": "getAllCpotb",
      "outputs": [
        {
          "components": [
            {
              "internalType": "string",
              "name": "certId",
              "type": "string"
            },
            {
              "internalType": "string",
              "name": "certNumber",
              "type": "string"
            },
            {
              "internalType": "string",
              "name": "instanceName",
              "type": "string"
            },
            {
              "internalType": "uint8",
              "name": "tipePermohonan",
              "type": "uint8"
            },
            {
              "internalType": "enum EnumsLibrary.StatusCertificate",
              "name": "status",
              "type": "uint8"
            },
            {
              "internalType": "string",
              "name": "certHash",
              "type": "string"
            },
            {
              "internalType": "uint256",
              "name": "expiredTimestamp",
              "type": "uint256"
            }
          ],
          "internalType": "struct CpotbCertificate.CertificateList[]",
          "name": "",
          "type": "tuple[]"
        }
      ],
      "stateMutability": "view",
      "type": "function"
    },
    {
      "inputs": [
        {
          "internalType": "string",
          "name": "instanceName",
          "type": "string"
        }
      ],
      "name": "getAllCpotbByInstance",
      "outputs": [
        {
          "components": [
            {
              "internalType": "string",
              "name": "certId",
              "type": "string"
            },
            {
              "internalType": "string",
              "name": "certNumber",
              "type": "string"
            },
            {
              "internalType": "string",
              "name": "instanceName",
              "type": "string"
            },
            {
              "internalType": "uint8",
              "name": "tipePermohonan",
              "type": "uint8"
            },
            {
              "internalType": "enum EnumsLibrary.StatusCertificate",
              "name": "status",
              "type": "uint8"
            },
            {
              "internalType": "string",
              "name": "certHash",
              "type": "string"
            },
            {
              "internalType": "uint256",
              "name": "expiredTimestamp",
              "type": "uint256"
            }
          ],
          "internalType": "struct CpotbCertificate.CertificateList[]",
          "name": "",
          "type": "tuple[]"
        }
      ],
      "stateMutability": "view",
      "type": "function"
    },
    {
      "inputs": [
        {
          "internalType": "string",
          "name": "certId",
          "type": "string"
        }
      ],
      "name": "getCertDetail",
      "outputs": [
        {
          "components": [
            {
              "internalType": "enum EnumsLibrary.StatusCertificate",
              "name": "status",
              "type": "uint8"
            },
            {
              "internalType": "uint256",
              "name": "timestampRequest",
              "type": "uint256"
            },
            {
              "internalType": "uint256",
              "name": "timestampApprove",
              "type": "uint256"
            },
            {
              "internalType": "uint256",
              "name": "timestampRejected",
              "type": "uint256"
            },
            {
              "internalType": "uint256",
              "name": "timestampRenewRequest",
              "type": "uint256"
            },
            {
              "internalType": "uint256",
              "name": "timestampExpired",
              "type": "uint256"
            },
            {
              "internalType": "uint256",
              "name": "timestampExtendRequest",
              "type": "uint256"
            },
            {
              "internalType": "uint256",
              "name": "timestampExtendApprove",
              "type": "uint256"
            },
            {
              "internalType": "uint256",
              "name": "timestampExtendReject",
              "type": "uint256"
            },
            {
              "internalType": "uint256",
              "name": "timestampExtendRenew",
              "type": "uint256"
            },
            {
              "components": [
                {
                  "internalType": "string",
                  "name": "userName",
                  "type": "string"
                },
                {
                  "internalType": "string",
                  "name": "userInstance",
                  "type": "string"
                },
                {
                  "internalType": "address",
                  "name": "userAddr",
                  "type": "address"
                }
              ],
              "internalType": "struct BaseCertificate.UserCert",
              "name": "sender",
              "type": "tuple"
            },
            {
              "components": [
                {
                  "internalType": "string",
                  "name": "userName",
                  "type": "string"
                },
                {
                  "internalType": "string",
                  "name": "userInstance",
                  "type": "string"
                },
                {
                  "internalType": "address",
                  "name": "userAddr",
                  "type": "address"
                }
              ],
              "internalType": "struct BaseCertificate.UserCert",
              "name": "bpom",
              "type": "tuple"
            },
            {
              "internalType": "string",
              "name": "ipfsCert",
              "type": "string"
            }
          ],
          "internalType": "struct BaseCertificate.CertificateDetails",
          "name": "",
          "type": "tuple"
        }
      ],
      "stateMutability": "view",
      "type": "function"
    },
    {
      "inputs": [
        {
          "internalType": "string",
          "name": "certId",
          "type": "string"
        }
      ],
      "name": "getCertDetails",
      "outputs": [
        {
          "components": [
            {
              "internalType": "enum EnumsLibrary.StatusCertificate",
              "name": "status",
              "type": "uint8"
            },
            {
              "internalType": "uint256",
              "name": "timestampRequest",
              "type": "uint256"
            },
            {
              "internalType": "uint256",
              "name": "timestampApprove",
              "type": "uint256"
            },
            {
              "internalType": "uint256",
              "name": "timestampRejected",
              "type": "uint256"
            },
            {
              "internalType": "uint256",
              "name": "timestampRenewRequest",
              "type": "uint256"
            },
            {
              "internalType": "uint256",
              "name": "timestampExpired",
              "type": "uint256"
            },
            {
              "internalType": "uint256",
              "name": "timestampExtendRequest",
              "type": "uint256"
            },
            {
              "internalType": "uint256",
              "name": "timestampExtendApprove",
              "type": "uint256"
            },
            {
              "internalType": "uint256",
              "name": "timestampExtendReject",
              "type": "uint256"
            },
            {
              "internalType": "uint256",
              "name": "timestampExtendRenew",
              "type": "uint256"
            },
            {
              "components": [
                {
                  "internalType": "string",
                  "name": "userName",
                  "type": "string"
                },
                {
                  "internalType": "string",
                  "name": "userInstance",
                  "type": "string"
                },
                {
                  "internalType": "address",
                  "name": "userAddr",
                  "type": "address"
                }
              ],
              "internalType": "struct BaseCertificate.UserCert",
              "name": "sender",
              "type": "tuple"
            },
            {
              "components": [
                {
                  "internalType": "string",
                  "name": "userName",
                  "type": "string"
                },
                {
                  "internalType": "string",
                  "name": "userInstance",
                  "type": "string"
                },
                {
                  "internalType": "address",
                  "name": "userAddr",
                  "type": "address"
                }
              ],
              "internalType": "struct BaseCertificate.UserCert",
              "name": "bpom",
              "type": "tuple"
            },
            {
              "internalType": "string",
              "name": "ipfsCert",
              "type": "string"
            }
          ],
          "internalType": "struct BaseCertificate.CertificateDetails",
          "name": "",
          "type": "tuple"
        }
      ],
      "stateMutability": "view",
      "type": "function"
    },
    {
      "inputs": [
        {
          "internalType": "string",
          "name": "certId",
          "type": "string"
        }
      ],
      "name": "getCpotbDetails",
      "outputs": [
        {
          "components": [
            {
              "internalType": "string",
              "name": "cpotbId",
              "type": "string"
            },
            {
              "internalType": "string",
              "name": "cpotbNumber",
              "type": "string"
            },
            {
              "internalType": "uint8",
              "name": "tipePermohonan",
              "type": "uint8"
            },
            {
              "internalType": "string",
              "name": "factoryType",
              "type": "string"
            }
          ],
          "internalType": "struct CpotbCertificate.CpotbData",
          "name": "",
          "type": "tuple"
        },
        {
          "components": [
            {
              "internalType": "string",
              "name": "suratPermohonan",
              "type": "string"
            },
            {
              "internalType": "string",
              "name": "buktiPembayaranNegaraBukanPajak",
              "type": "string"
            },
            {
              "internalType": "string",
              "name": "suratKomitmen",
              "type": "string"
            }
          ],
          "internalType": "struct CpotbCertificate.DokumenAdministrasi",
          "name": "",
          "type": "tuple"
        },
        {
          "components": [
            {
              "internalType": "string",
              "name": "denahBangunan",
              "type": "string"
            },
            {
              "internalType": "string",
              "name": "sistemMutu",
              "type": "string"
            }
          ],
          "internalType": "struct CpotbCertificate.DokumenTeknis",
          "name": "",
          "type": "tuple"
        },
        {
          "components": [
            {
              "internalType": "string",
              "name": "suratPermohonan",
              "type": "string"
            },
            {
              "internalType": "string",
              "name": "buktiPembayaranNegaraBukanPajak",
              "type": "string"
            },
            {
              "internalType": "string",
              "name": "denahBangunan",
              "type": "string"
            },
            {
              "internalType": "string",
              "name": "sistemMutu",
              "type": "string"
            },
            {
              "internalType": "string",
              "name": "cpotbIpfs",
              "type": "string"
            },
            {
              "internalType": "string",
              "name": "dokumenCapa",
              "type": "string"
            }
          ],
          "internalType": "struct CpotbCertificate.DokumenReSertifikasi",
          "name": "",
          "type": "tuple"
        }
      ],
      "stateMutability": "view",
      "type": "function"
    },
    {
      "inputs": [
        {
          "internalType": "string",
          "name": "certId",
          "type": "string"
        }
      ],
      "name": "getRejectMsg",
      "outputs": [
        {
          "internalType": "string",
          "name": "",
          "type": "string"
        },
        {
          "internalType": "string",
          "name": "",
          "type": "string"
        }
      ],
      "stateMutability": "view",
      "type": "function"
    },
    {
      "inputs": [
        {
          "internalType": "string",
          "name": "certId",
          "type": "string"
        }
      ],
      "name": "getRejectsMsg",
      "outputs": [
        {
          "internalType": "string",
          "name": "",
          "type": "string"
        },
        {
          "internalType": "string",
          "name": "",
          "type": "string"
        }
      ],
      "stateMutability": "view",
      "type": "function"
    },
    {
      "inputs": [
        {
          "internalType": "string",
          "name": "certId",
          "type": "string"
        }
      ],
      "name": "getSenderDetail",
      "outputs": [
        {
          "components": [
            {
              "internalType": "string",
              "name": "userName",
              "type": "string"
            },
            {
              "internalType": "string",
              "name": "userInstance",
              "type": "string"
            },
            {
              "internalType": "address",
              "name": "userAddr",
              "type": "address"
            }
          ],
          "internalType": "struct BaseCertificate.UserCert",
          "name": "",
          "type": "tuple"
        }
      ],
      "stateMutability": "view",
      "type": "function"
    },
    {
      "inputs": [
        {
          "internalType": "string",
          "name": "certId",
          "type": "string"
        },
        {
          "internalType": "string",
          "name": "rejectMsg",
          "type": "string"
        },
        {
          "internalType": "string",
          "name": "bpomName",
          "type": "string"
        },
        {
          "internalType": "string",
          "name": "bpomInstance",
          "type": "string"
        },
        {
          "internalType": "address",
          "name": "bpomAddr",
          "type": "address"
        }
      ],
      "name": "rejectCpotb",
      "outputs": [],
      "stateMutability": "nonpayable",
      "type": "function"
    },
    {
      "inputs": [
        {
          "internalType": "string",
          "name": "certId",
          "type": "string"
        },
        {
          "internalType": "string",
          "name": "rejectExtendMsg",
          "type": "string"
        }
      ],
      "name": "rejectExtendCpotb",
      "outputs": [],
      "stateMutability": "nonpayable",
      "type": "function"
    },
    {
      "inputs": [
        {
          "internalType": "string",
          "name": "",
          "type": "string"
        }
      ],
      "name": "rejectMsgById",
      "outputs": [
        {
          "internalType": "string",
          "name": "",
          "type": "string"
        }
      ],
      "stateMutability": "view",
      "type": "function"
    },
    {
      "inputs": [
        {
          "internalType": "string",
          "name": "",
          "type": "string"
        }
      ],
      "name": "rejectMsgExtendById",
      "outputs": [
        {
          "internalType": "string",
          "name": "",
          "type": "string"
        }
      ],
      "stateMutability": "view",
      "type": "function"
    },
    {
      "inputs": [
        {
          "internalType": "string",
          "name": "certId",
          "type": "string"
        },
        {
          "components": [
            {
              "internalType": "string",
              "name": "suratPermohonan",
              "type": "string"
            },
            {
              "internalType": "string",
              "name": "buktiPembayaranNegaraBukanPajak",
              "type": "string"
            },
            {
              "internalType": "string",
              "name": "denahBangunan",
              "type": "string"
            },
            {
              "internalType": "string",
              "name": "sistemMutu",
              "type": "string"
            },
            {
              "internalType": "string",
              "name": "cpotbIpfs",
              "type": "string"
            },
            {
              "internalType": "string",
              "name": "dokumenCapa",
              "type": "string"
            }
          ],
          "internalType": "struct CpotbCertificate.DokumenReSertifikasi",
          "name": "newDoku",
          "type": "tuple"
        }
      ],
      "name": "renewExtendCpotb",
      "outputs": [],
      "stateMutability": "nonpayable",
      "type": "function"
    },
    {
      "inputs": [
        {
          "internalType": "string",
          "name": "certId",
          "type": "string"
        },
        {
          "components": [
            {
              "internalType": "string",
              "name": "suratPermohonan",
              "type": "string"
            },
            {
              "internalType": "string",
              "name": "buktiPembayaranNegaraBukanPajak",
              "type": "string"
            },
            {
              "internalType": "string",
              "name": "suratKomitmen",
              "type": "string"
            }
          ],
          "internalType": "struct CpotbCertificate.DokumenAdministrasi",
          "name": "newDokuAdmin",
          "type": "tuple"
        },
        {
          "components": [
            {
              "internalType": "string",
              "name": "denahBangunan",
              "type": "string"
            },
            {
              "internalType": "string",
              "name": "sistemMutu",
              "type": "string"
            }
          ],
          "internalType": "struct CpotbCertificate.DokumenTeknis",
          "name": "newDokuTeknis",
          "type": "tuple"
        }
      ],
      "name": "renewRequestCpotb",
      "outputs": [],
      "stateMutability": "nonpayable",
      "type": "function"
    },
    {
      "inputs": [
        {
          "internalType": "string",
          "name": "certId",
          "type": "string"
        },
        {
          "internalType": "string",
          "name": "factoryName",
          "type": "string"
        },
        {
          "internalType": "string",
          "name": "factoryInstance",
          "type": "string"
        },
        {
          "internalType": "address",
          "name": "factoryAddr",
          "type": "address"
        },
        {
          "internalType": "uint8",
          "name": "jenisSediaan",
          "type": "uint8"
        },
        {
          "internalType": "string",
          "name": "factoryType",
          "type": "string"
        },
        {
          "components": [
            {
              "internalType": "string",
              "name": "suratPermohonan",
              "type": "string"
            },
            {
              "internalType": "string",
              "name": "buktiPembayaranNegaraBukanPajak",
              "type": "string"
            },
            {
              "internalType": "string",
              "name": "suratKomitmen",
              "type": "string"
            }
          ],
          "internalType": "struct CpotbCertificate.DokumenAdministrasi",
          "name": "dokuAdmin",
          "type": "tuple"
        },
        {
          "components": [
            {
              "internalType": "string",
              "name": "denahBangunan",
              "type": "string"
            },
            {
              "internalType": "string",
              "name": "sistemMutu",
              "type": "string"
            }
          ],
          "internalType": "struct CpotbCertificate.DokumenTeknis",
          "name": "dokuTeknis",
          "type": "tuple"
        }
      ],
      "name": "requestCpotb",
      "outputs": [],
      "stateMutability": "nonpayable",
      "type": "function"
    },
    {
      "inputs": [
        {
          "internalType": "string",
          "name": "certId",
          "type": "string"
        },
        {
          "internalType": "string",
          "name": "ipfsCert",
          "type": "string"
        },
        {
          "components": [
            {
              "internalType": "string",
              "name": "userName",
              "type": "string"
            },
            {
              "internalType": "string",
              "name": "userInstance",
              "type": "string"
            },
            {
              "internalType": "address",
              "name": "userAddr",
              "type": "address"
            }
          ],
          "internalType": "struct BaseCertificate.UserCert",
          "name": "bpomData",
          "type": "tuple"
        }
      ],
      "name": "updateBpomApproveDetails",
      "outputs": [],
      "stateMutability": "nonpayable",
      "type": "function"
    },
    {
      "inputs": [
        {
          "internalType": "string",
          "name": "certId",
          "type": "string"
        },
        {
          "internalType": "string",
          "name": "ipfsCert",
          "type": "string"
        }
      ],
      "name": "updateBpomApproveExtendCertificateDetails",
      "outputs": [],
      "stateMutability": "nonpayable",
      "type": "function"
    },
    {
      "inputs": [
        {
          "internalType": "string",
          "name": "certId",
          "type": "string"
        },
        {
          "internalType": "string",
          "name": "ipfsCert",
          "type": "string"
        }
      ],
      "name": "updateBpomExtendCertificateDetails",
      "outputs": [],
      "stateMutability": "nonpayable",
      "type": "function"
    },
    {
      "inputs": [
        {
          "internalType": "string",
          "name": "certId",
          "type": "string"
        },
        {
          "internalType": "string",
          "name": "rejectMsg",
          "type": "string"
        },
        {
          "components": [
            {
              "internalType": "string",
              "name": "userName",
              "type": "string"
            },
            {
              "internalType": "string",
              "name": "userInstance",
              "type": "string"
            },
            {
              "internalType": "address",
              "name": "userAddr",
              "type": "address"
            }
          ],
          "internalType": "struct BaseCertificate.UserCert",
          "name": "bpomData",
          "type": "tuple"
        }
      ],
      "name": "updateBpomRejectDetails",
      "outputs": [],
      "stateMutability": "nonpayable",
      "type": "function"
    },
    {
      "inputs": [
        {
          "internalType": "string",
          "name": "certId",
          "type": "string"
        },
        {
          "internalType": "string",
          "name": "rejectMsg",
          "type": "string"
        }
      ],
      "name": "updateBpomRejectExtendCertificateDetails",
      "outputs": [],
      "stateMutability": "nonpayable",
      "type": "function"
    },
    {
      "inputs": [
        {
          "internalType": "string",
          "name": "certId",
          "type": "string"
        },
        {
          "internalType": "uint256",
          "name": "expiredTimestamp",
          "type": "uint256"
        }
      ],
      "name": "updateExtendRenewDetails",
      "outputs": [],
      "stateMutability": "nonpayable",
      "type": "function"
    },
    {
      "inputs": [
        {
          "internalType": "string",
          "name": "certId",
          "type": "string"
        }
      ],
      "name": "updateRenewDetails",
      "outputs": [],
      "stateMutability": "nonpayable",
      "type": "function"
    },
    {
      "inputs": [
        {
          "internalType": "string",
          "name": "certId",
          "type": "string"
        }
      ],
      "name": "updateRenewExtendCertificateDetails",
      "outputs": [],
      "stateMutability": "nonpayable",
      "type": "function"
    }
  ],
  "bytecode": "0x608080604052346015576159e7908161001a8239f35b5f80fdfe60806040526004361015610011575f80fd5b5f3560e01c806317e6830914613d6457806319859c8714613d2c57806326c6d4c514613cd65780632e9cf82714613c5257806334a34f3014613b305780633a947f1a14613af85780633bb6ff3f14613a505780634ad8f1a4146132cc578063500619d01461326c5780635691acf71461316c5780635850607c1461310457806364b409ff1461217a5780636aa81299146120c65780636d1aa7d514611cd157806370c056b014611d19578063761fb19a14611cd15780637ab0964814611c2a57806381fc60a514611abb5780639740dbed14611a7f5780639914d854146113045780639aaa5d8b146112c9578063b073043614611201578063b9e4908014610d53578063be2e232514610d03578063bf3f80ac14610c95578063ceee106714610c7e578063d26196fd14610c67578063e462dde514610b2e578063e8002b2714610488578063e9c260d714610471578063f02f5f231461039d578063f5104ff114610386578063f53ef1261461020e5763fb5fb9a31461018f575f80fd5b3461020a57606036600319011261020a576004356001600160401b03811161020a576101bf903690600401614448565b6024356001600160401b03811161020a576101de903690600401614448565b90604435916001600160401b03831161020a57610202610208933690600401613e89565b91615343565b005b5f80fd5b3461020a5760208061021f3661407a565b9290604051928184925191829101835e81015f8152030190204260028201556082420190814211610372576010916005820155600660ff198254161781550181516001600160401b03811161035e576102788254613f40565b601f8111610319575b50602092601f82116001146102bd57928192935f926102b2575b50505f19600383901b1c191660019190911b179055005b01519050838061029b565b601f19821693835f52805f20915f5b86811061030157508360019596106102e9575b505050811b019055005b01515f1960f88460031b161c191690558380806102df565b919260206001819286850151815501940192016102cc565b825f5260205f20601f830160051c81019160208410610354575b601f0160051c01905b8181106103495750610281565b5f815560010161033c565b9091508190610333565b634e487b7160e01b5f52604160045260245ffd5b634e487b7160e01b5f52601160045260245ffd5b3461020a57610208610397366144c0565b91614fd5565b3461020a57602036600319011261020a5760043560035481101561020a576103c761042491614528565b506103d181613f78565b906104676103e160018301613f78565b916103ee60028201613f78565b9061045a610440600383015493610432600561040c60048701613f78565b950154976040519a8b9a60e08c5260e08c0190613ede565b908a820360208c0152613ede565b9088820360408a0152613ede565b9260ff8116606088015260ff608088019160081c1661406d565b84820360a0860152613ede565b9060c08301520390f35b3461020a57610208610482366144c0565b91614c38565b3461020a57606036600319011261020a576004356001600160401b03811161020a576104b8903690600401613e89565b6024356001600160401b03811161020a576104d79036906004016142ab565b906044356001600160401b03811161020a576104f7903690600401614329565b61050082614578565b6003549160208101905f5b84811061051457005b61051d81614528565b5060405161054181610533602082018095614604565b03601f198101835282613e68565b519020604051602081019061056e6020828751808a875e81015f838201520301601f198101835282613e68565b5190201461057f575b60010161050b565b600361058a82614528565b5001805461ff0019166103001790556105b460206105a783614528565b5060405192838092614604565b600581520301902086518051906001600160401b03821161035e5781906105db8454613f40565b601f8111610ade575b50602090601f8311600114610a7b575f92610a70575b50508160011b915f199060031b1c19161781555b6001810160208801518051906001600160401b03821161035e576106328354613f40565b601f8111610a2b575b50602090601f83116001146109c4576002949392915f91836109b9575b50508160011b915f199060031b1c19161790555b0160408701518051906001600160401b03821161035e57819061068f8454613f40565b601f8111610969575b50602090601f8311600114610906575f926108fb575b50508160011b915f199060031b1c19161790555b6106d060206105a783614528565b600681520301902084518051906001600160401b03821161035e576106f58354613f40565b601f81116108b6575b50602090601f83116001146108505760019392915f9183610845575b50505f19600383901b1c191690831b1781555b0160208501518051906001600160401b03821161035e5761074e8354613f40565b601f8111610800575b50602090601f8311600114610799576001949392915f918361078e575b50505f19600383901b1c191690841b1790555b9050610577565b015190508a80610774565b90601f19831691845f52815f20925f5b8181106107e85750916001969594929183889593106107d0575b505050811b019055610787565b01515f1960f88460031b161c191690558a80806107c3565b929360206001819287860151815501950193016107a9565b835f5260205f20601f840160051c8101916020851061083b575b601f0160051c01905b8181106108305750610757565b5f8155600101610823565b909150819061081a565b015190508a8061071a565b90601f19831691845f52815f20925f5b81811061089e5750916001959492918387959310610886575b505050811b01815561072d565b01515f1960f88460031b161c191690558a8080610879565b92936020600181928786015181550195019301610860565b835f5260205f20601f840160051c810191602085106108f1575b601f0160051c01905b8181106108e657506106fe565b5f81556001016108d9565b90915081906108d0565b0151905089806106ae565b5f8581528281209350601f198516905b8181106109515750908460019594939210610939575b505050811b0190556106c2565b01515f1960f88460031b161c1916905589808061092c565b92936020600181928786015181550195019301610916565b909150835f5260205f20601f840160051c810191602085106109af575b90601f859493920160051c01905b8181106109a15750610698565b5f8155849350600101610994565b9091508190610986565b015190508b80610658565b90601f19831691845f52815f20925f5b818110610a135750916001939185600298979694106109fb575b505050811b01905561066c565b01515f1960f88460031b161c191690558b80806109ee565b929360206001819287860151815501950193016109d4565b835f5260205f20601f840160051c81019160208510610a66575b601f0160051c01905b818110610a5b575061063b565b5f8155600101610a4e565b9091508190610a45565b0151905089806105fa565b5f8581528281209350601f198516905b818110610ac65750908460019594939210610aae575b505050811b01815561060e565b01515f1960f88460031b161c19169055898080610aa1565b92936020600181928786015181550195019301610a8b565b909150835f5260205f20601f840160051c81019160208510610b24575b90601f859493920160051c01905b818110610b1657506105e4565b5f8155849350600101610b09565b9091508190610afb565b3461020a5760a036600319011261020a576004356001600160401b03811161020a57610b5e903690600401613e89565b6024356001600160401b03811161020a57610b7d903690600401613e89565b6044356001600160401b03811161020a57610b9c903690600401613e89565b906064356001600160401b03811161020a57610bd892610bc3610bd1923690600401613e89565b610bcb614018565b916145a6565b9083614c38565b600354602082015f5b828110610bea57005b80610bf6600192614528565b50604051610c0c81610533602082018095614604565b5190206040516020810190610c396020828a51808a875e81015f838201520301601f198101835282613e68565b51902014610c48575b01610be1565b6003610c5382614528565b5001805461ff001916610200179055610c42565b3461020a57610208610c783661407a565b90614af5565b3461020a57610208610c8f3661407a565b906149aa565b3461020a57602036600319011261020a576004356001600160401b03811161020a57610ceb602080610cce610cff943690600401613e89565b604051928184925191829101835e81016001815203019020613f78565b604051918291602083526020830190613ede565b0390f35b3461020a57602036600319011261020a576004356001600160401b03811161020a57610d47610d39610cff923690600401613e89565b610d4161486a565b506148d7565b60405191829182614383565b3461020a5760c036600319011261020a576004356001600160401b03811161020a57610d83903690600401613e89565b6024356001600160401b03811161020a57610da2903690600401613e89565b6044356001600160401b03811161020a57610dc1903690600401613e89565b6064356001600160401b03811161020a57610de0903690600401613e89565b610de8614018565b60a435916001600160401b03831161020a57610e0b610e11933690600401613e89565b936145a6565b604051906001845192602081818801958087835e810160048152030190200185516001600160401b03811161035e57610e4a8254613f40565b601f81116111bc575b506020601f8211600114611155579080610e8a9493925f9161114a575b508160011b915f199060031b1c19161790555b8385614fd5565b600354925f5b848110610e9957005b610ea281614528565b50604051610eb881610533602082018095614604565b5190206040516020810190610ee56020828751808a875e81015f838201520301601f198101835282613e68565b51902014610ef6575b600101610e90565b6001610f0182614528565b500186516001600160401b03811161035e57610f1d8254613f40565b601f8111611105575b50806020601f82116001146110a2575f91611097575b508160011b915f199060031b1c19161790555b6003610f5a82614528565b5001805461ff0019166101001790556004610f7482614528565b500184516001600160401b03811161035e57610f908254613f40565b601f8111611052575b50806020601f8211600114610ff1575f91610fe6575b508160011b915f199060031b1c19161790555b6082420190814211610372576001916005610fdc83614528565b5001559050610eee565b905086015189610faf565b5f8481528181209250601f198416905b81811061103a57509083600194939210611022575b5050811b019055610fc2565b8801515f1960f88460031b161c191690558980611016565b9192602060018192868d015181550194019201611001565b825f5260205f20601f830160051c8101916020841061108d575b601f0160051c01905b8181106110825750610f99565b5f8155600101611075565b909150819061106c565b905088015189610f3c565b5f8481528181209250601f198416905b8b8282106110ed57505090836001949392106110d5575b5050811b019055610f4f565b8a01515f1960f88460031b161c1916905589806110c9565b600184956020939584930151815501940192016110b2565b825f5260205f20601f830160051c81019160208410611140575b601f0160051c01905b8181106111355750610f26565b5f8155600101611128565b909150819061111f565b905088015189610e70565b601f19821690835f52805f20915f5b8a8282106111a4575050918391610e8a9695946001941061118c575b5050811b019055610e83565b8a01515f1960f88460031b161c191690558980611180565b60018495602093958493015181550194019201611164565b825f5260205f20601f830160051c810191602084106111f7575b601f0160051c01905b8181106111ec5750610e53565b5f81556001016111df565b90915081906111d6565b3461020a5761121a6112123661407a565b819291614af5565b6003549060208101905f5b83811061122e57005b61123781614528565b5060405161124d81610533602082018095614604565b519020604051602081019061127a6020828751808a875e81015f838201520301601f198101835282613e68565b5190201461128b575b600101611225565b600361129682614528565b500161060061ff001982541617905560824201908142116103725760019160056112bf83614528565b5001559050611283565b3461020a57602036600319011261020a576004356001600160401b03811161020a57610d476112ff610cff923690600401613e89565b6148d7565b3461020a57604036600319011261020a576004356001600160401b03811161020a57611334903690600401613e89565b6024356001600160401b03811161020a576113539036906004016140c7565b61135c826145d6565b6003549160208101905f5b84811061137057005b61137981614528565b5060405161138f81610533602082018095614604565b51902060405160208101906113bc6020828751808a875e81015f838201520301601f198101835282613e68565b519020146113cd575b600101611367565b60036113d882614528565b5001805461ff0019166108001790556113f560206105a783614528565b600781520301902084518051906001600160401b03821161035e57819061141c8454613f40565b601f8111611a2f575b50602090601f83116001146119cc575f926119c1575b50508160011b915f199060031b1c19161781555b6001810160208601518051906001600160401b03821161035e5781906114758454613f40565b601f8111611971575b50602090601f831160011461190e575f92611903575b50508160011b915f199060031b1c19161790555b6002810160408601518051906001600160401b03821161035e5781906114ce8454613f40565b601f81116118b3575b50602090601f8311600114611850575f92611845575b50508160011b915f199060031b1c19161790555b6003810160608601518051906001600160401b03821161035e5781906115278454613f40565b601f81116117f5575b50602090601f8311600114611792575f92611787575b50508160011b915f199060031b1c19161790555b6004810160808601518051906001600160401b03821161035e5761157e8354613f40565b601f8111611742575b50602090601f83116001146116db576005949392915f91836116d0575b50508160011b915f199060031b1c19161790555b0160a08501518051906001600160401b03821161035e576115d98354613f40565b601f811161168b575b50602090601f8311600114611624576001949392915f9183611619575b50505f19600383901b1c191690841b1790555b90506113c5565b0151905089806115ff565b90601f19831691845f52815f20925f5b81811061167357509160019695949291838895931061165b575b505050811b019055611612565b01515f1960f88460031b161c1916905589808061164e565b92936020600181928786015181550195019301611634565b835f5260205f20601f840160051c810191602085106116c6575b601f0160051c01905b8181106116bb57506115e2565b5f81556001016116ae565b90915081906116a5565b015190508a806115a4565b90601f19831691845f52815f20925f5b81811061172a575091600193918560059897969410611712575b505050811b0190556115b8565b01515f1960f88460031b161c191690558a8080611705565b929360206001819287860151815501950193016116eb565b835f5260205f20601f840160051c8101916020851061177d575b601f0160051c01905b8181106117725750611587565b5f8155600101611765565b909150819061175c565b015190508980611546565b5f8581528281209350601f198516905b8181106117dd57509084600195949392106117c5575b505050811b01905561155a565b01515f1960f88460031b161c191690558980806117b8565b929360206001819287860151815501950193016117a2565b909150835f5260205f20601f840160051c8101916020851061183b575b90601f859493920160051c01905b81811061182d5750611530565b5f8155849350600101611820565b9091508190611812565b0151905089806114ed565b5f8581528281209350601f198516905b81811061189b5750908460019594939210611883575b505050811b019055611501565b01515f1960f88460031b161c19169055898080611876565b92936020600181928786015181550195019301611860565b909150835f5260205f20601f840160051c810191602085106118f9575b90601f859493920160051c01905b8181106118eb57506114d7565b5f81558493506001016118de565b90915081906118d0565b015190508980611494565b5f8581528281209350601f198516905b8181106119595750908460019594939210611941575b505050811b0190556114a8565b01515f1960f88460031b161c19169055898080611934565b9293602060018192878601518155019501930161191e565b909150835f5260205f20601f840160051c810191602085106119b7575b90601f859493920160051c01905b8181106119a9575061147e565b5f815584935060010161199c565b909150819061198e565b01519050888061143b565b5f8581528281209350601f198516905b818110611a1757509084600195949392106119ff575b505050811b01815561144f565b01515f1960f88460031b161c191690558880806119f2565b929360206001819287860151815501950193016119dc565b909150835f5260205f20601f840160051c81019160208510611a75575b90601f859493920160051c01905b818110611a675750611425565b5f8155849350600101611a5a565b9091508190611a4c565b3461020a57604036600319011261020a576004356001600160401b03811161020a57611ab2610208913690600401613e89565b602435906147ef565b3461020a57602036600319011261020a576004356001600160401b03811161020a57611aeb903690600401613e89565b60035460208201915f805b838110611bc7575060ff611b0a9116614685565b925f915f5b848110611b245760405180610cff88826141db565b6002610533611b49611b3584614528565b506040519283916020830195869101614604565b5190206040516020810190611b766020828751808a875e81015f838201520301601f198101835282613e68565b51902014611b87575b600101611b0f565b92611bbf600191611bb9611ba3611b9d88614528565b50614722565b60ff831690611bb2828c614702565b5289614702565b50614799565b939050611b7f565b6002610533611bd8611b3584614528565b5190206040516020810190611c056020828851808c875e81015f838201520301601f198101835282613e68565b51902014611c16575b600101611af6565b90611c22600191614799565b919050611c0e565b3461020a57602036600319011261020a576004356001600160401b03811161020a57602080611c60611cb5933690600401613e89565b604051928184925191829101835e81016005815203019020610cff611c8482613f78565b91611cc3611ca06002611c9960018501613f78565b9301613f78565b91604051958695606087526060870190613ede565b908582036020870152613ede565b908382036040850152613ede565b3461020a57602036600319011261020a576004356001600160401b03811161020a57611d04611d09913690600401613e89565b6147aa565b90610cff604051928392836141b6565b3461020a57602036600319011261020a576004356001600160401b03811161020a57611d49903690600401613e89565b604051611d5581613dc5565b606081526020810160609052604081015f905260600160609052604051611d7b81613dfb565b60608152602081016060905260400160609052604051611d9a81613e16565b6060815260200160609052604051611db181613e31565b60608152602081016060905260408101606090526060810160609052608081016060905260a00160609052604051908051918060208301938085835e810160048152036020019020906040518082518086835e810160058152036020019020926040518083518084835e81016006815203602001902091604051918291518091835e8101600781520360200190209260405193611e4d85613dc5565b611e5684613f78565b8552611e6460018501613f78565b9360208601948552600281015460ff169060408701918252600301611e8890613f78565b926060870193845260405194611e9d86613dfb565b611ea682613f78565b8652611eb460018301613f78565b9160208701928352600201611ec890613f78565b906040870191825260405190611edd82613e16565b611ee681613f78565b8252600101611ef490613f78565b6020820190815260405197611f0889613e31565b611f1187613f78565b8952611f1f60018801613f78565b60208a0190815293611f3360028901613f78565b60408b0190815295611f4760038a01613f78565b60608c0190815297611f5b60048b01613f78565b9960808d019a8b52600501611f6f90613f78565b9a60a08d019b8c526040519e8f9e8f91608083525160808301608090526101008301611f9a91613ede565b9051828203607f190160a0840152611fb29190613ede565b925160ff1660c090910152518d8203607f190160e08f0152611fd49190613ede565b928c8085039060200152516060845260608401611ff091613ede565b905190838103602085015261200491613ede565b905191808203906040015261201891613ede565b9189830360408b015251604083526040830161203391613ede565b905191808203906020015261204791613ede565b9587870360608901525160c0875260c0870161206291613ede565b905190868103602088015261207691613ede565b905190858103604087015261208a91613ede565b905190848103606086015261209e91613ede565b90519083810360808501526120b291613ede565b9051918082039060a00152610cff91613ede565b3461020a57602036600319011261020a576004356001600160401b03811161020a576020806120fc612159933690600401613e89565b604051928184925191829101835e81016004815203019020610cff61212082613f78565b9161212d60018201613f78565b612167612144600360ff6002860154169401613f78565b91604051968796608088526080880190613ede565b908682036020880152613ede565b9160408501528382036060850152613ede565b3461020a5761010036600319011261020a576004356001600160401b03811161020a576121ab903690600401613e89565b6024356001600160401b03811161020a576121ca903690600401613e89565b6044356001600160401b03811161020a576121e9903690600401613e89565b916064356001600160a01b038116810361020a576084359360ff851680950361020a5760a4356001600160401b03811161020a5761222b903690600401613e89565b9460c4356001600160401b03811161020a5761224b9036906004016142ab565b9260e435906001600160401b03821161020a5783612270612276933690600401614329565b976145a6565b956122c6856020986040519061228c8b83613e68565b5f825260405161229c8c82613e68565b5f81526122a7614558565b50604051926122b584613dfb565b83528b8301525f6040830152615343565b6040516122d281613dc5565b8581526040516122e28982613e68565b5f81528882019081526040820190848252606083019384526040518a818a5180838d01835e8101600481520301902092518051906001600160401b03821161035e5781908c6123318754613f40565b601f81116130b3575b50508c908d601f841160011461304f57505f92613044575b50508160011b915f199060031b1c19161783555b51805160018401916001600160401b03821161035e578b6123878454613f40565b601f8111612fff575b50508b908c601f8411600114612f945750918060ff949260039796945f92612f89575b50508160011b915f1990881b1c19161790555b511660ff60028301911660ff198254161790550190518051906001600160401b03821161035e5781906123f98454613f40565b601f8111612f3b575b508990601f8311600114612ed8575f92612ecd575b50508160011b915f199060031b1c19161790555b6040519061243882613de0565b848252604051926124498885613e68565b5f8452878301938452604083015260608201525f608082015260405161246f8782613e68565b5f815260a08201525f60c08201526003546801000000000000000081101561035e578060016124a19201600355614528565b929092612eba5781518051906001600160401b03821161035e5781906124c78654613f40565b601f8111612e6c575b508990601f8311600114612e09575f92612dfe575b50508160011b915f199060031b1c19161783555b518051906001600160401b03821161035e57819061251a6001860154613f40565b601f8111612dad575b508890601f8311600114612d43575f92612d38575b50508160011b915f199060031b1c19161760018301555b6002820160408201518051906001600160401b03821161035e5781906125758454613f40565b601f8111612cea575b508990601f8311600114612c87575f92612c7c575b50508160011b915f199060031b1c19161790555b6003820160ff806060840151161660ff1982541617815560808201516009811015612c685761ff0082549160081b169061ff0019161790556004820160a08201518051906001600160401b03821161035e576126038354613f40565b601f8111612c25575b508890601f8311600114612bbc57918060c09492600596945f92612bb1575b50508160011b915f199060031b1c19161790555b01519101556040518481845180838701835e8101600581520301902081518051906001600160401b03821161035e57819061267a8454613f40565b601f8111612b63575b508790601f8311600114612b00575f92612af5575b50508160011b915f199060031b1c19161781555b60018101858301518051906001600160401b03821161035e576126cf8354613f40565b601f8111612ab2575b508790601f8311600114612a4957918060029492604096945f92612a3e575b50508160011b915f199060031b1c19161790555b01910151918251916001600160401b03831161035e57859261272d8254613f40565b94601f86116129e7575b8495508490601f8311600114612980575f919083612975575b50508160011b915f199060031b1c19161790555b604051928184925191829101835e8101600681520301902081519081516001600160401b03811161035e57849261279b8354613f40565b601f8111612923575b508390601f83116001146128bd5760019392915f91836128b2575b50505f19600383901b1c191690831b1781555b01910151918251906001600160401b03821161035e576127f28354613f40565b601f811161286f575b5080601f831160011461282957508192935f926102b25750505f19600383901b1c191660019190911b179055005b90601f19831694845f52825f20925f905b8782106128575750508360019596106102e957505050811b019055005b8060018596829496860151815501950193019061283a565b835f52815f20601f840160051c8101918385106128a8575b601f0160051c01905b81811061289d57506127fb565b5f8155600101612890565b9091508190612887565b0151905087806127bf565b90601f19831691845f52855f20925f5b8782821061290d5750509160019594929183879593106128f5575b505050811b0181556127d2565b01515f1960f88460031b161c191690558780806128e8565b60018596829396860151815501950193016128cd565b9091928094505f52855f20601f840160051c81019187851061296b575b90601f8896959493920160051c01905b81811061295d57506127a4565b5f8155879550600101612950565b9091508190612940565b015190508880612750565b601f95949392919519821695835f52855f20915f5b8881106129cf575083600195969798106129b7575b505050811b019055612764565b01515f1960f88460031b161c191690558880806129aa565b82820151845589976001909401939283019201612995565b918094505f9591939552865f20601f840160051c810191888510612a34575b90601f899694979593920160051c01905b818110612a2657505084612737565b5f8155889550600101612a17565b9091508190612a06565b015190508a806126f7565b90601f19831691845f52895f20925f5b8b828210612a9c575050926001928592604098966002989610612a84575b505050811b01905561270b565b01515f1960f88460031b161c191690558a8080612a77565b6001859682939686015181550195019301612a59565b835f52885f20601f840160051c8101918a8510612aeb575b601f0160051c01905b818110612ae057506126d8565b5f8155600101612ad3565b9091508190612aca565b015190508780612698565b5f8581528981209350601f198516905b8a828210612b4d575050908460019594939210612b35575b505050811b0181556126ac565b01515f1960f88460031b161c19169055878080612b28565b6001859682939686015181550195019301612b10565b909150835f52875f20601f840160051c810191898510612ba7575b90601f859493920160051c01905b818110612b995750612683565b5f8155849350600101612b8c565b9091508190612b7e565b015190508b8061262b565b90601f19831691845f528a5f20925f5b8c828210612c0f5750509260019285926005989660c0989610612bf7575b505050811b01905561263f565b01515f1960f88460031b161c191690558b8080612bea565b6001859682939686015181550195019301612bcc565b835f52895f20601f840160051c8101918b8510612c5e575b601f0160051c01905b818110612c53575061260c565b5f8155600101612c46565b9091508190612c3d565b634e487b7160e01b5f52602160045260245ffd5b015190508980612593565b5f8581528b81209350601f198516905b8c828210612cd4575050908460019594939210612cbc575b505050811b0190556125a7565b01515f1960f88460031b161c19169055898080612caf565b6001859682939686015181550195019301612c97565b909150835f52895f20601f840160051c8101918b8510612d2e575b90601f859493920160051c01905b818110612d20575061257e565b5f8155849350600101612d13565b9091508190612d05565b015190508880612538565b600186015f9081528a81209350601f198516905b8b828210612d97575050908460019594939210612d7f575b505050811b01600183015561254f565b01515f1960f88460031b161c19169055888080612d6f565b6001859682939686015181550195019301612d57565b909150600185015f52885f20601f840160051c8101918a8510612df4575b90601f859493920160051c01905b818110612de65750612523565b5f8155849350600101612dd9565b9091508190612dcb565b0151905089806124e5565b5f8781528b81209350601f198516905b8c828210612e56575050908460019594939210612e3e575b505050811b0183556124f9565b01515f1960f88460031b161c19169055898080612e31565b6001859682939686015181550195019301612e19565b909150855f52895f20601f840160051c8101918b8510612eb0575b90601f859493920160051c01905b818110612ea257506124d0565b5f8155849350600101612e95565b9091508190612e87565b634e487b7160e01b5f525f60045260245ffd5b015190508980612417565b5f8581528b81209350601f198516905b8c828210612f25575050908460019594939210612f0d575b505050811b01905561242b565b01515f1960f88460031b161c19169055898080612f00565b6001859682939686015181550195019301612ee8565b909150835f52895f20601f840160051c8101918b8510612f7f575b90601f859493920160051c01905b818110612f715750612402565b5f8155849350600101612f64565b9091508190612f56565b015190508e806123b3565b9190601f198416855f52835f20935f905b828210612fe7575050926001928592600399989660ff989610612fd0575b505050811b0190556123c6565b01515f19838a1b60f8161c191690558e8080612fc3565b80600186978294978701518155019601940190612fa5565b845f52815f2090601f850160051c820192851061303a575b601f0160051c01905b81811061302f578d9150612390565b5f8155600101613020565b9091508190613017565b015190508c80612352565b5f8881528181209450601f198616915b82821061309b575050908460019594939210613083575b505050811b018355612366565b01515f1960f88460031b161c191690558c8080613076565b8060018697829497870151815501960194019061305f565b90919250865f52815f2090601f850160051c82019285106130fa575b90601f859493920160051c01905b8181106130ec578e915061233a565b5f81558493506001016130dd565b90915081906130cf565b3461020a575f36600319011261020a5760035461312081614685565b905f805b8282106131395760405180610cff86826141db565b613164600191611bb961314e611b9d86614528565b60ff83169061315d828a614702565b5287614702565b910190613124565b3461020a57602036600319011261020a576004356001600160401b03811161020a576020806131a2613226933690600401613e89565b604051928184925191829101835e81016007815203019020610cff6131c682613f78565b9161325e6131d660018301613f78565b916132506131e660028301613f78565b6132426131f560038501613f78565b91613234613211600561320a60048901613f78565b9701613f78565b976040519b8c9b60c08d5260c08d0190613ede565b908b820360208d0152613ede565b9089820360408b0152613ede565b908782036060890152613ede565b908582036080870152613ede565b9083820360a0850152613ede565b3461020a57602036600319011261020a576004356001600160401b03811161020a57602061329f81923690600401613e89565b604051928184925191829101835e81016006815203019020611d0960016132c583613f78565b9201613f78565b3461020a57606036600319011261020a576004356001600160401b03811161020a576132fc903690600401613e89565b6044356001600160401b03811161020a5761331b9036906004016140c7565b613327602435836147ef565b6003549060405190835191602081818701948086835e8101600781520301902081518051906001600160401b03821161035e5781906133668454613f40565b601f8111613a00575b50602090601f831160011461399d575f92613992575b50508160011b915f199060031b1c19161781555b6001810160208301518051906001600160401b03821161035e5781906133bf8454613f40565b601f8111613942575b50602090601f83116001146138df575f926138d4575b50508160011b915f199060031b1c19161790555b6002810160408301518051906001600160401b03821161035e5781906134188454613f40565b601f8111613884575b50602090601f8311600114613821575f92613816575b50508160011b915f199060031b1c19161790555b6003810160608301518051906001600160401b03821161035e5781906134718454613f40565b601f81116137c6575b50602090601f8311600114613763575f92613758575b50508160011b915f199060031b1c19161790555b6004810160808301518051906001600160401b03821161035e576134c88354613f40565b601f8111613713575b50602090601f83116001146136aa5791806005949260a096945f9261369f575b50508160011b915f199060031b1c19161790555b019101518051906001600160401b03821161035e5781906135268454613f40565b601f811161364f575b50602090601f83116001146135ec575f926135e1575b50508160011b915f199060031b1c19161790555b5f5b82811061356457005b80613570600192614528565b5060405161358681610533602082018095614604565b51902060405160208101906135b36020828a51808a875e81015f838201520301601f198101835282613e68565b519020146135c2575b0161355b565b60036135cd82614528565b5001805461ff0019166105001790556135bc565b015190508680613545565b5f8581528281209350601f198516905b818110613637575090846001959493921061361f575b505050811b019055613559565b01515f1960f88460031b161c19169055868080613612565b929360206001819287860151815501950193016135fc565b909150835f5260205f20601f840160051c81019160208510613695575b90601f859493920160051c01905b818110613687575061352f565b5f815584935060010161367a565b909150819061366c565b015190508a806134f1565b90601f19831691845f52815f20925f5b8181106136fb575092600192859260a0989660059896106136e3575b505050811b019055613505565b01515f1960f88460031b161c191690558a80806136d6565b929360206001819287860151815501950193016136ba565b835f5260205f20601f840160051c8101916020851061374e575b601f0160051c01905b81811061374357506134d1565b5f8155600101613736565b909150819061372d565b015190508880613490565b5f8581528281209350601f198516905b8181106137ae5750908460019594939210613796575b505050811b0190556134a4565b01515f1960f88460031b161c19169055888080613789565b92936020600181928786015181550195019301613773565b909150835f5260205f20601f840160051c8101916020851061380c575b90601f859493920160051c01905b8181106137fe575061347a565b5f81558493506001016137f1565b90915081906137e3565b015190508880613437565b5f8581528281209350601f198516905b81811061386c5750908460019594939210613854575b505050811b01905561344b565b01515f1960f88460031b161c19169055888080613847565b92936020600181928786015181550195019301613831565b909150835f5260205f20601f840160051c810191602085106138ca575b90601f859493920160051c01905b8181106138bc5750613421565b5f81558493506001016138af565b90915081906138a1565b0151905088806133de565b5f8581528281209350601f198516905b81811061392a5750908460019594939210613912575b505050811b0190556133f2565b01515f1960f88460031b161c19169055888080613905565b929360206001819287860151815501950193016138ef565b909150835f5260205f20601f840160051c81019160208510613988575b90601f859493920160051c01905b81811061397a57506133c8565b5f815584935060010161396d565b909150819061395f565b015190508780613385565b5f8581528281209350601f198516905b8181106139e857509084600195949392106139d0575b505050811b018155613399565b01515f1960f88460031b161c191690558780806139c3565b929360206001819287860151815501950193016139ad565b909150835f5260205f20601f840160051c81019160208510613a46575b90601f859493920160051c01905b818110613a38575061336f565b5f8155849350600101613a2b565b9091508190613a1d565b3461020a57613a69613a613661407a565b8192916149aa565b600354602082015f5b828110613a7b57005b80613a87600192614528565b50604051613a9d81610533602082018095614604565b5190206040516020810190613aca6020828a51808a875e81015f838201520301601f198101835282613e68565b51902014613ad9575b01613a72565b6003613ae482614528565b5001805461ff001916610700179055613ad3565b3461020a57602036600319011261020a576004356001600160401b03811161020a57613b2b610208913690600401613e89565b6145d6565b3461020a57602036600319011261020a576004356001600160401b03811161020a57613b60903690600401613e89565b604051818192516020819201835e81015f8152036020019020805460ff166001820154916002810154906003810154600482015460058301546006840154600785015490600886015492600987015494600a8801613bbd9061402e565b96613bca600d8a0161402e565b98601001613bd790613f78565b996040519c613be78e809e61406d565b60208d015260408c015260608b015260808a015260a089015260c088015260e087015261010086015261012085015261014084016101a090526101a08401613c2e91613f02565b838103610160850152613c4091613f02565b828103610180840152610cff91613ede565b3461020a57606036600319011261020a576004356001600160401b03811161020a57613c82903690600401613e89565b6024356001600160401b03811161020a57613ca1903690600401613e89565b906044356001600160a01b038116810361020a57610cff92613cc2926145a6565b604051918291602083526020830190613f02565b3461020a57602036600319011261020a576004356001600160401b03811161020a57610ceb602080613d0f610cff943690600401613e89565b604051928184925191829101835e81016002815203019020613f78565b3461020a57602036600319011261020a576004356001600160401b03811161020a57613d5f610208913690600401613e89565b614578565b3461020a57602036600319011261020a576004356001600160401b03811161020a57613cc2600a602080613d9f610cff953690600401613e89565b613da7614558565b50604051928184925191829101835e81015f8152030190200161402e565b608081019081106001600160401b0382111761035e57604052565b60e081019081106001600160401b0382111761035e57604052565b606081019081106001600160401b0382111761035e57604052565b604081019081106001600160401b0382111761035e57604052565b60c081019081106001600160401b0382111761035e57604052565b6101a081019081106001600160401b0382111761035e57604052565b90601f801991011681019081106001600160401b0382111761035e57604052565b81601f8201121561020a578035906001600160401b03821161035e5760405192613ebd601f8401601f191660200185613e68565b8284526020838301011161020a57815f926020809301838601378301015290565b805180835260209291819084018484015e5f828201840152601f01601f1916010190565b906040613f2d613f1b8451606085526060850190613ede565b60208501518482036020860152613ede565b928101516001600160a01b031691015290565b90600182811c92168015613f6e575b6020831014613f5a57565b634e487b7160e01b5f52602260045260245ffd5b91607f1691613f4f565b9060405191825f825492613f8b84613f40565b8084529360018116908115613ff65750600114613fb2575b50613fb092500383613e68565b565b90505f9291925260205f20905f915b818310613fda575050906020613fb0928201015f613fa3565b6020919350806001915483858901015201910190918492613fc1565b905060209250613fb094915060ff191682840152151560051b8201015f613fa3565b608435906001600160a01b038216820361020a57565b9060405161403b81613dfb565b6040819361404881613f78565b835261405660018201613f78565b6020840152600201546001600160a01b0316910152565b906009821015612c685752565b90604060031983011261020a576004356001600160401b03811161020a57826140a591600401613e89565b91602435906001600160401b03821161020a576140c491600401613e89565b90565b919060c08382031261020a57604051906140e082613e31565b819380356001600160401b03811161020a57826140fe918301613e89565b835260208101356001600160401b03811161020a578261411f918301613e89565b602084015260408101356001600160401b03811161020a5782614143918301613e89565b604084015260608101356001600160401b03811161020a5782614167918301613e89565b606084015260808101356001600160401b03811161020a578261418b918301613e89565b608084015260a0810135916001600160401b03831161020a5760a0926141b19201613e89565b910152565b90916141cd6140c493604084526040840190613ede565b916020818403910152613ede565b602081016020825282518091526040820191602060408360051b8301019401925f915b83831061420d57505050505090565b9091929394602080600192603f1985820301865288519060c080614296614265614253614243875160e0885260e0880190613ede565b888801518782038a890152613ede565b60408701518682036040880152613ede565b60ff60608701511660608601526142846080870151608087019061406d565b60a086015185820360a0870152613ede565b930151910152970193019301919392906141fe565b919060608382031261020a57604051906142c482613dfb565b819380356001600160401b03811161020a57826142e2918301613e89565b835260208101356001600160401b03811161020a5782614303918301613e89565b60208401526040810135916001600160401b03831161020a576040926141b19201613e89565b919060408382031261020a576040519061434282613e16565b819380356001600160401b03811161020a5782614360918301613e89565b83526020810135916001600160401b03831161020a576020926141b19201613e89565b906140c4916020815261439a60208201835161406d565b602082015160408201526040820151606082015260608201516080820152608082015160a082015260a082015160c082015260c082015160e082015260e082015161010082015261010082015161012082015261012082015161014082015261018061443261441c6101408501516101a06101608601526101c0850190613f02565b610160850151848203601f190184860152613f02565b920151906101a0601f1982850301910152613ede565b919060608382031261020a576040519061446182613dfb565b819380356001600160401b03811161020a578261447f918301613e89565b835260208101356001600160401b03811161020a576040926144a2918301613e89565b60208401520135906001600160a01b038216820361020a5760400152565b606060031982011261020a576004356001600160401b03811161020a57816144ea91600401613e89565b916024356001600160401b03811161020a578261450991600401613e89565b91604435906001600160401b03821161020a576140c491600401614448565b6003548110156145445760035f52600660205f20910201905f90565b634e487b7160e01b5f52603260045260245ffd5b6040519061456582613dfb565b5f60408360608152606060208201520152565b60208091604051928184925191829101835e81015f815203019020426004820155600360ff19825416179055565b91906145b0614558565b50604051926145be84613dfb565b835260208301526001600160a01b0316604082015290565b60208091604051928184925191829101835e81015f815203019020426009820155600860ff19825416179055565b5f929181549161461383613f40565b926001811690811561465b575060011461462c57505050565b90919293505f5260205f205f905b8382106146475750500190565b60018160209254848601520191019061463a565b60ff191683525050811515909102019150565b6001600160401b03811161035e5760051b60200190565b9061468f8261466e565b61469c6040519182613e68565b82815280926146ad601f199161466e565b01905f5b8281106146bd57505050565b6020906040516146cc81613de0565b60608152606083820152606060408201525f60608201525f6080820152606060a08201525f60c0820152828285010152016146b1565b80518210156145445760209160051b010190565b6009821015612c685752565b9060405161472f81613de0565b60c06005829461473e81613f78565b845261474c60018201613f78565b602085015261475d60028201613f78565b604085015261478160ff6003830154818116606088015260081c1660808601614716565b61478d60048201613f78565b60a08501520154910152565b60ff1660ff81146103725760010190565b906140c46147e960405160208551918181818901948086835e8101600181520301902095604051928391518091835e8101600281520301902093613f78565b92613f78565b904211156148255760208091604051928184925191829101835e81015f815203019020426006820155600560ff19825416179055565b60405162461bcd60e51b815260206004820152601860248201527f536572746966696b6174206d61736968206265726c616b7500000000000000006044820152606490fd5b6040519061487782613e4c565b6060610180835f81525f60208201525f60408201525f838201525f60808201525f60a08201525f60c08201525f60e08201525f6101008201525f6101208201526148bf614558565b6101408201526148cd614558565b6101608201520152565b602080916148e361486a565b50604051928184925191829101835e81015f8152030190206149a160106040519261490d84613e4c565b61491b60ff82541685614716565b60018101546020850152600281015460408501526003810154606085015260048101546080850152600581015460a0850152600681015460c0850152600781015460e085015260088101546101008501526009810154610120850152614983600a820161402e565b610140850152614995600d820161402e565b61016085015201613f78565b61018082015290565b91909160405160208251918181818601948086835e81015f81520301902092604051928391518091835e8101600281520301902083516001600160401b03811161035e576149f88254613f40565b601f8111614ab0575b50602094601f8211600114614a4f579481929394955f92614a44575b50508160011b915f199060031b1c19161790555b426008820155805460ff19166007179055565b015190505f80614a1d565b601f19821695835f52805f20915f5b888110614a9857508360019596979810614a80575b505050811b019055614a31565b01515f1960f88460031b161c191690555f8080614a73565b91926020600181928685015181550194019201614a5e565b825f5260205f20601f830160051c81019160208410614aeb575b601f0160051c01905b818110614ae05750614a01565b5f8155600101614ad3565b9091508190614aca565b60208091939293604051928184925191829101835e81015f8152030190204260078201556082420190814211610372576010916005820155600660ff198254161781550182516001600160401b03811161035e57614b538254613f40565b601f8111614bf3575b506020601f8211600114614b9557819293945f92614b8a575b50508160011b915f199060031b1c1916179055565b015190505f80614b75565b601f19821690835f52805f20915f5b818110614bdb57509583600195969710614bc3575b505050811b019055565b01515f1960f88460031b161c191690555f8080614bb9565b9192602060018192868b015181550194019201614ba4565b825f5260205f20601f830160051c81019160208410614c2e575b601f0160051c01905b818110614c235750614b5c565b5f8155600101614c16565b9091508190614c0d565b92919060405160208551918181818901948086835e81015f81520301902095604051928391518091835e81016001815203019020908051906001600160401b03821161035e578190614c8a8454613f40565b601f8111614f85575b50602090601f8311600114614f22575f92614f17575b50508160011b915f199060031b1c19161790555b80518051600d8501916001600160401b03821161035e57614cde8354613f40565b601f8111614ed2575b50602090601f8311600114614e6b576020949392915f9183614e60575b50508160011b915f199060031b1c19161790555b6040810151600f850180546001600160a01b0319166001600160a01b039290921691909117905501518051909290600e8201906001600160401b03811161035e57614d638254613f40565b601f8111614e1b575b50602094601f8211600114614dba579481929394955f92614daf575b50508160011b915f199060031b1c19161790555b426003820155805460ff19166002179055565b015190505f80614d88565b601f19821695835f52805f20915f5b888110614e0357508360019596979810614deb575b505050811b019055614d9c565b01515f1960f88460031b161c191690555f8080614dde565b91926020600181928685015181550194019201614dc9565b825f5260205f20601f830160051c81019160208410614e56575b601f0160051c01905b818110614e4b5750614d6c565b5f8155600101614e3e565b9091508190614e35565b015190505f80614d04565b90601f19831691845f52815f20925f5b818110614eba575091600193918560209897969410614ea2575b505050811b019055614d18565b01515f1960f88460031b161c191690555f8080614e95565b92936020600181928786015181550195019301614e7b565b835f5260205f20601f840160051c81019160208510614f0d575b601f0160051c01905b818110614f025750614ce7565b5f8155600101614ef5565b9091508190614eec565b015190505f80614ca9565b5f8581528281209350601f198516905b818110614f6d5750908460019594939210614f55575b505050811b019055614cbd565b01515f1960f88460031b161c191690555f8080614f48565b92936020600181928786015181550195019301614f32565b909150835f5260205f20601f840160051c81019160208510614fcb575b90601f859493920160051c01905b818110614fbd5750614c93565b5f8155849350600101614fb0565b9091508190614fa2565b6020809194939294604051928184925191829101835e81015f815203019020908051600d8301908051906001600160401b03821161035e576150178354613f40565b601f81116152fe575b50602090601f8311600114615297576020949392915f918361528c575b50508160011b915f199060031b1c19161790555b6040810151600f840180546001600160a01b0319166001600160a01b039290921691909117905501518051600e8301916001600160401b03821161035e57819061509b8454613f40565b601f811161523c575b50602090601f83116001146151d9575f926151ce575b50508160011b915f199060031b1c19161790555b4260028201556082420190814211610372576010916005820155600160ff198254161781550182516001600160401b03811161035e5761510e8254613f40565b601f8111615189575b506020601f821160011461514457819293945f92614b8a5750508160011b915f199060031b1c1916179055565b601f19821690835f52805f20915f5b81811061517157509583600195969710614bc357505050811b019055565b9192602060018192868b015181550194019201615153565b825f5260205f20601f830160051c810191602084106151c4575b601f0160051c01905b8181106151b95750615117565b5f81556001016151ac565b90915081906151a3565b015190505f806150ba565b5f8581528281209350601f198516905b818110615224575090846001959493921061520c575b505050811b0190556150ce565b01515f1960f88460031b161c191690555f80806151ff565b929360206001819287860151815501950193016151e9565b909150835f5260205f20601f840160051c81019160208510615282575b90601f859493920160051c01905b81811061527457506150a4565b5f8155849350600101615267565b9091508190615259565b015190505f8061503d565b90601f19831691845f52815f20925f5b8181106152e65750916001939185602098979694106152ce575b505050811b019055615051565b01515f1960f88460031b161c191690555f80806152c1565b929360206001819287860151815501950193016152a7565b835f5260205f20601f840160051c81019160208510615339575b601f0160051c01905b81811061532e5750615020565b5f8155600101615321565b9091508190615318565b92909192604051809161535582613e4c565b5f825260208201428152604083015f8152606084015f8152608085015f815260a086015f815260c08701915f835260e08801935f85526101008901955f87526101208a01975f89526101408b01998a526101608b019d8e5260209e8f80916040519e8f6153c28482613e68565b5f9052610180019e8f52604051928184925191829101835e81015f8152030190209a516009811015612c685760ff80198d54169116178b555160018b01555160028a0155516003890155516004880155516005870155516006860155516007850155516008840155516009830155600a820190519081518051906001600160401b03821161035e5781906154568454613f40565b601f8111615963575b508990601f8311600114615900575f926158f5575b50508160011b915f199060031b1c19161790555b600b8201868201518051906001600160401b03821161035e5781906154ad8454613f40565b601f81116158a7575b508990601f8311600114615844575f92615839575b50508160011b915f199060031b1c19161790555b60400151600c820180546001600160a01b0319166001600160a01b0392909216919091179055925180518051919491600d8301916001600160401b03821161035e57819061552d8454613f40565b601f81116157eb575b508890601f8311600114615788575f9261577d575b50508160011b915f199060031b1c19161790555b600e81019385810151948551956001600160401b03871161035e576155848254613f40565b601f811161573a575b508790601f88116001146156d35796809160109697985f926156c8575b50508160011b915f199060031b1c19161790555b60400151600f820180546001600160a01b0319166001600160a01b03929092169190911790559151805190949190920191906001600160401b03821161035e576156088354613f40565b601f8111615685575b5080601f831160011461563e5750819293945f92614b8a5750508160011b915f199060031b1c1916179055565b90601f19831695845f52825f20925f905b88821061566d57505083600195969710614bc357505050811b019055565b8060018596829496860151815501950193019061564f565b835f52815f20601f840160051c8101918385106156be575b601f0160051c01905b8181106156b35750615611565b5f81556001016156a6565b909150819061569d565b015190505f806155aa565b90601f19881691835f52895f20925f5b8b82821061572457505091600193918a6010999a9b941061570c575b505050811b0190556155be565b01515f1960f88460031b161c191690555f80806156ff565b60018596829396860151815501950193016156e3565b825f52885f20601f890160051c8101918a8a10615773575b601f0160051c01905b818110615768575061558d565b5f815560010161575b565b9091508190615752565b015190505f8061554b565b5f8581528a81209350601f198516905b8b8282106157d55750509084600195949392106157bd575b505050811b01905561555f565b01515f1960f88460031b161c191690555f80806157b0565b6001859682939686015181550195019301615798565b909150835f52885f20601f840160051c8101918a851061582f575b90601f859493920160051c01905b8181106158215750615536565b5f8155849350600101615814565b9091508190615806565b015190505f806154cb565b5f8581528b81209350601f198516905b8c828210615891575050908460019594939210615879575b505050811b0190556154df565b01515f1960f88460031b161c191690555f808061586c565b6001859682939686015181550195019301615854565b909150835f52895f20601f840160051c8101918b85106158eb575b90601f859493920160051c01905b8181106158dd57506154b6565b5f81558493506001016158d0565b90915081906158c2565b015190505f80615474565b5f8581528b81209350601f198516905b8c82821061594d575050908460019594939210615935575b505050811b019055615488565b01515f1960f88460031b161c191690555f8080615928565b6001859682939686015181550195019301615910565b909150835f52895f20601f840160051c8101918b85106159a7575b90601f859493920160051c01905b818110615999575061545f565b5f815584935060010161598c565b909150819061597e56fea264697066735822122001ab8e3637e616b090cc974f18ab998160bfc75171873533f5912420ac5082ae64736f6c634300081b0033",
  "linkReferences": {},
  "deployedLinkReferences": {}
}