{
  "_format": "hh-sol-artifact-1",
  "contractName": "CpotbCertificate",
  "sourceName": "contracts/CpotbCertificate.sol",
  "abi": [
    {
      "inputs": [
        {
          "internalType": "uint256",
          "name": "",
          "type": "uint256"
        }
      ],
      "name": "allCpotbData",
      "outputs": [
        {
          "internalType": "string",
          "name": "certId",
          "type": "string"
        },
        {
          "internalType": "string",
          "name": "certNumber",
          "type": "string"
        },
        {
          "internalType": "string",
          "name": "instanceName",
          "type": "string"
        },
        {
          "internalType": "uint8",
          "name": "tipePermohonan",
          "type": "uint8"
        },
        {
          "internalType": "enum EnumsLibrary.StatusCertificate",
          "name": "status",
          "type": "uint8"
        },
        {
          "internalType": "string",
          "name": "certHash",
          "type": "string"
        }
      ],
      "stateMutability": "view",
      "type": "function"
    },
    {
      "inputs": [
        {
          "internalType": "string",
          "name": "_certNumber",
          "type": "string"
        },
        {
          "internalType": "string",
          "name": "_certId",
          "type": "string"
        },
        {
          "internalType": "string",
          "name": "_bpomName",
          "type": "string"
        },
        {
          "internalType": "string",
          "name": "_bpomInstance",
          "type": "string"
        },
        {
          "internalType": "address",
          "name": "_bpomAddr",
          "type": "address"
        },
        {
          "internalType": "string",
          "name": "_ipfsCert",
          "type": "string"
        }
      ],
      "name": "approveCpotb",
      "outputs": [],
      "stateMutability": "nonpayable",
      "type": "function"
    },
    {
      "inputs": [
        {
          "internalType": "string",
          "name": "",
          "type": "string"
        },
        {
          "internalType": "uint256",
          "name": "",
          "type": "uint256"
        }
      ],
      "name": "approvedTipePermohonanByFactory",
      "outputs": [
        {
          "internalType": "string",
          "name": "ipfsCert",
          "type": "string"
        },
        {
          "internalType": "uint8",
          "name": "tipePermohonan",
          "type": "uint8"
        }
      ],
      "stateMutability": "view",
      "type": "function"
    },
    {
      "inputs": [
        {
          "internalType": "string",
          "name": "",
          "type": "string"
        }
      ],
      "name": "certDetailsById",
      "outputs": [
        {
          "internalType": "enum EnumsLibrary.StatusCertificate",
          "name": "status",
          "type": "uint8"
        },
        {
          "internalType": "uint256",
          "name": "timestampRequest",
          "type": "uint256"
        },
        {
          "internalType": "uint256",
          "name": "timestampApprove",
          "type": "uint256"
        },
        {
          "internalType": "uint256",
          "name": "timestampRejected",
          "type": "uint256"
        },
        {
          "internalType": "uint256",
          "name": "timestsmpRenewRequest",
          "type": "uint256"
        },
        {
          "components": [
            {
              "internalType": "string",
              "name": "userName",
              "type": "string"
            },
            {
              "internalType": "string",
              "name": "userInstance",
              "type": "string"
            },
            {
              "internalType": "address",
              "name": "userAddr",
              "type": "address"
            }
          ],
          "internalType": "struct BaseCertificate.st_userCertificate",
          "name": "sender",
          "type": "tuple"
        },
        {
          "components": [
            {
              "internalType": "string",
              "name": "userName",
              "type": "string"
            },
            {
              "internalType": "string",
              "name": "userInstance",
              "type": "string"
            },
            {
              "internalType": "address",
              "name": "userAddr",
              "type": "address"
            }
          ],
          "internalType": "struct BaseCertificate.st_userCertificate",
          "name": "bpom",
          "type": "tuple"
        },
        {
          "internalType": "string",
          "name": "ipfsCert",
          "type": "string"
        }
      ],
      "stateMutability": "view",
      "type": "function"
    },
    {
      "inputs": [
        {
          "internalType": "string",
          "name": "",
          "type": "string"
        }
      ],
      "name": "cpotbDataById",
      "outputs": [
        {
          "internalType": "string",
          "name": "cpotbId",
          "type": "string"
        },
        {
          "internalType": "string",
          "name": "cpotbNumber",
          "type": "string"
        },
        {
          "internalType": "uint8",
          "name": "tipePermohonan",
          "type": "uint8"
        },
        {
          "internalType": "string",
          "name": "factoryType",
          "type": "string"
        }
      ],
      "stateMutability": "view",
      "type": "function"
    },
    {
      "inputs": [
        {
          "components": [
            {
              "internalType": "string",
              "name": "userName",
              "type": "string"
            },
            {
              "internalType": "string",
              "name": "userInstance",
              "type": "string"
            },
            {
              "internalType": "address",
              "name": "userAddr",
              "type": "address"
            }
          ],
          "internalType": "struct BaseCertificate.st_userCertificate",
          "name": "_sender",
          "type": "tuple"
        },
        {
          "components": [
            {
              "internalType": "string",
              "name": "userName",
              "type": "string"
            },
            {
              "internalType": "string",
              "name": "userInstance",
              "type": "string"
            },
            {
              "internalType": "address",
              "name": "userAddr",
              "type": "address"
            }
          ],
          "internalType": "struct BaseCertificate.st_userCertificate",
          "name": "_bpom",
          "type": "tuple"
        },
        {
          "internalType": "string",
          "name": "_certId",
          "type": "string"
        }
      ],
      "name": "createCertificateDetails",
      "outputs": [],
      "stateMutability": "nonpayable",
      "type": "function"
    },
    {
      "inputs": [
        {
          "internalType": "string",
          "name": "_userName",
          "type": "string"
        },
        {
          "internalType": "address",
          "name": "_userAddr",
          "type": "address"
        },
        {
          "internalType": "string",
          "name": "_userInstance",
          "type": "string"
        }
      ],
      "name": "createUserCertificate",
      "outputs": [
        {
          "components": [
            {
              "internalType": "string",
              "name": "userName",
              "type": "string"
            },
            {
              "internalType": "string",
              "name": "userInstance",
              "type": "string"
            },
            {
              "internalType": "address",
              "name": "userAddr",
              "type": "address"
            }
          ],
          "internalType": "struct BaseCertificate.st_userCertificate",
          "name": "",
          "type": "tuple"
        }
      ],
      "stateMutability": "pure",
      "type": "function"
    },
    {
      "inputs": [],
      "name": "getAllCpotb",
      "outputs": [
        {
          "components": [
            {
              "internalType": "string",
              "name": "certId",
              "type": "string"
            },
            {
              "internalType": "string",
              "name": "certNumber",
              "type": "string"
            },
            {
              "internalType": "string",
              "name": "instanceName",
              "type": "string"
            },
            {
              "internalType": "uint8",
              "name": "tipePermohonan",
              "type": "uint8"
            },
            {
              "internalType": "enum EnumsLibrary.StatusCertificate",
              "name": "status",
              "type": "uint8"
            },
            {
              "internalType": "string",
              "name": "certHash",
              "type": "string"
            }
          ],
          "internalType": "struct CpotbCertificate.st_certificateList[]",
          "name": "",
          "type": "tuple[]"
        }
      ],
      "stateMutability": "view",
      "type": "function"
    },
    {
      "inputs": [
        {
          "internalType": "string",
          "name": "_instanceName",
          "type": "string"
        }
      ],
      "name": "getAllCpotbByInstance",
      "outputs": [
        {
          "components": [
            {
              "internalType": "string",
              "name": "certId",
              "type": "string"
            },
            {
              "internalType": "string",
              "name": "certNumber",
              "type": "string"
            },
            {
              "internalType": "string",
              "name": "instanceName",
              "type": "string"
            },
            {
              "internalType": "uint8",
              "name": "tipePermohonan",
              "type": "uint8"
            },
            {
              "internalType": "enum EnumsLibrary.StatusCertificate",
              "name": "status",
              "type": "uint8"
            },
            {
              "internalType": "string",
              "name": "certHash",
              "type": "string"
            }
          ],
          "internalType": "struct CpotbCertificate.st_certificateList[]",
          "name": "",
          "type": "tuple[]"
        }
      ],
      "stateMutability": "view",
      "type": "function"
    },
    {
      "inputs": [
        {
          "internalType": "string",
          "name": "_certId",
          "type": "string"
        }
      ],
      "name": "getCertDetail",
      "outputs": [
        {
          "components": [
            {
              "internalType": "enum EnumsLibrary.StatusCertificate",
              "name": "status",
              "type": "uint8"
            },
            {
              "internalType": "uint256",
              "name": "timestampRequest",
              "type": "uint256"
            },
            {
              "internalType": "uint256",
              "name": "timestampApprove",
              "type": "uint256"
            },
            {
              "internalType": "uint256",
              "name": "timestampRejected",
              "type": "uint256"
            },
            {
              "internalType": "uint256",
              "name": "timestsmpRenewRequest",
              "type": "uint256"
            },
            {
              "components": [
                {
                  "internalType": "string",
                  "name": "userName",
                  "type": "string"
                },
                {
                  "internalType": "string",
                  "name": "userInstance",
                  "type": "string"
                },
                {
                  "internalType": "address",
                  "name": "userAddr",
                  "type": "address"
                }
              ],
              "internalType": "struct BaseCertificate.st_userCertificate",
              "name": "sender",
              "type": "tuple"
            },
            {
              "components": [
                {
                  "internalType": "string",
                  "name": "userName",
                  "type": "string"
                },
                {
                  "internalType": "string",
                  "name": "userInstance",
                  "type": "string"
                },
                {
                  "internalType": "address",
                  "name": "userAddr",
                  "type": "address"
                }
              ],
              "internalType": "struct BaseCertificate.st_userCertificate",
              "name": "bpom",
              "type": "tuple"
            },
            {
              "internalType": "string",
              "name": "ipfsCert",
              "type": "string"
            }
          ],
          "internalType": "struct BaseCertificate.st_certificateDetails",
          "name": "",
          "type": "tuple"
        }
      ],
      "stateMutability": "view",
      "type": "function"
    },
    {
      "inputs": [
        {
          "internalType": "string",
          "name": "_certId",
          "type": "string"
        }
      ],
      "name": "getCertDetails",
      "outputs": [
        {
          "components": [
            {
              "internalType": "enum EnumsLibrary.StatusCertificate",
              "name": "status",
              "type": "uint8"
            },
            {
              "internalType": "uint256",
              "name": "timestampRequest",
              "type": "uint256"
            },
            {
              "internalType": "uint256",
              "name": "timestampApprove",
              "type": "uint256"
            },
            {
              "internalType": "uint256",
              "name": "timestampRejected",
              "type": "uint256"
            },
            {
              "internalType": "uint256",
              "name": "timestsmpRenewRequest",
              "type": "uint256"
            },
            {
              "components": [
                {
                  "internalType": "string",
                  "name": "userName",
                  "type": "string"
                },
                {
                  "internalType": "string",
                  "name": "userInstance",
                  "type": "string"
                },
                {
                  "internalType": "address",
                  "name": "userAddr",
                  "type": "address"
                }
              ],
              "internalType": "struct BaseCertificate.st_userCertificate",
              "name": "sender",
              "type": "tuple"
            },
            {
              "components": [
                {
                  "internalType": "string",
                  "name": "userName",
                  "type": "string"
                },
                {
                  "internalType": "string",
                  "name": "userInstance",
                  "type": "string"
                },
                {
                  "internalType": "address",
                  "name": "userAddr",
                  "type": "address"
                }
              ],
              "internalType": "struct BaseCertificate.st_userCertificate",
              "name": "bpom",
              "type": "tuple"
            },
            {
              "internalType": "string",
              "name": "ipfsCert",
              "type": "string"
            }
          ],
          "internalType": "struct BaseCertificate.st_certificateDetails",
          "name": "",
          "type": "tuple"
        }
      ],
      "stateMutability": "view",
      "type": "function"
    },
    {
      "inputs": [
        {
          "internalType": "string",
          "name": "_certId",
          "type": "string"
        }
      ],
      "name": "getCpotbDetails",
      "outputs": [
        {
          "components": [
            {
              "internalType": "string",
              "name": "cpotbId",
              "type": "string"
            },
            {
              "internalType": "string",
              "name": "cpotbNumber",
              "type": "string"
            },
            {
              "internalType": "uint8",
              "name": "tipePermohonan",
              "type": "uint8"
            },
            {
              "internalType": "string",
              "name": "factoryType",
              "type": "string"
            }
          ],
          "internalType": "struct CpotbCertificate.st_cpotb",
          "name": "",
          "type": "tuple"
        }
      ],
      "stateMutability": "view",
      "type": "function"
    },
    {
      "inputs": [
        {
          "internalType": "string",
          "name": "_certId",
          "type": "string"
        }
      ],
      "name": "getRejectMsg",
      "outputs": [
        {
          "internalType": "string",
          "name": "",
          "type": "string"
        }
      ],
      "stateMutability": "view",
      "type": "function"
    },
    {
      "inputs": [
        {
          "internalType": "string",
          "name": "_certId",
          "type": "string"
        }
      ],
      "name": "getRejectsMsg",
      "outputs": [
        {
          "internalType": "string",
          "name": "",
          "type": "string"
        }
      ],
      "stateMutability": "view",
      "type": "function"
    },
    {
      "inputs": [
        {
          "internalType": "string",
          "name": "_certId",
          "type": "string"
        }
      ],
      "name": "getSenderDetail",
      "outputs": [
        {
          "components": [
            {
              "internalType": "string",
              "name": "userName",
              "type": "string"
            },
            {
              "internalType": "string",
              "name": "userInstance",
              "type": "string"
            },
            {
              "internalType": "address",
              "name": "userAddr",
              "type": "address"
            }
          ],
          "internalType": "struct BaseCertificate.st_userCertificate",
          "name": "",
          "type": "tuple"
        }
      ],
      "stateMutability": "view",
      "type": "function"
    },
    {
      "inputs": [
        {
          "internalType": "string",
          "name": "_certId",
          "type": "string"
        },
        {
          "internalType": "string",
          "name": "_rejectMsg",
          "type": "string"
        },
        {
          "internalType": "string",
          "name": "_bpomName",
          "type": "string"
        },
        {
          "internalType": "string",
          "name": "_bpomInstance",
          "type": "string"
        },
        {
          "internalType": "address",
          "name": "_bpomAddr",
          "type": "address"
        }
      ],
      "name": "rejectCpotb",
      "outputs": [],
      "stateMutability": "nonpayable",
      "type": "function"
    },
    {
      "inputs": [
        {
          "internalType": "string",
          "name": "",
          "type": "string"
        }
      ],
      "name": "rejectMsgbyId",
      "outputs": [
        {
          "internalType": "string",
          "name": "",
          "type": "string"
        }
      ],
      "stateMutability": "view",
      "type": "function"
    },
    {
      "inputs": [
        {
          "internalType": "string",
          "name": "_certId",
          "type": "string"
        },
        {
          "internalType": "uint8",
          "name": "_tipePermohonanCpotb",
          "type": "uint8"
        }
      ],
      "name": "renewRequestCpotb",
      "outputs": [],
      "stateMutability": "nonpayable",
      "type": "function"
    },
    {
      "inputs": [
        {
          "internalType": "string",
          "name": "_certId",
          "type": "string"
        },
        {
          "internalType": "string",
          "name": "_factoryName",
          "type": "string"
        },
        {
          "internalType": "string",
          "name": "_factoryInstance",
          "type": "string"
        },
        {
          "internalType": "address",
          "name": "_factoryAddr",
          "type": "address"
        },
        {
          "internalType": "uint8",
          "name": "_tipePermohonanCpotb",
          "type": "uint8"
        },
        {
          "internalType": "string",
          "name": "_factoryType",
          "type": "string"
        }
      ],
      "name": "requestCpotb",
      "outputs": [],
      "stateMutability": "nonpayable",
      "type": "function"
    },
    {
      "inputs": [
        {
          "internalType": "string",
          "name": "_certId",
          "type": "string"
        },
        {
          "internalType": "string",
          "name": "_ipfsCert",
          "type": "string"
        },
        {
          "components": [
            {
              "internalType": "string",
              "name": "userName",
              "type": "string"
            },
            {
              "internalType": "string",
              "name": "userInstance",
              "type": "string"
            },
            {
              "internalType": "address",
              "name": "userAddr",
              "type": "address"
            }
          ],
          "internalType": "struct BaseCertificate.st_userCertificate",
          "name": "_bpom",
          "type": "tuple"
        }
      ],
      "name": "updateBpomApproveDetails",
      "outputs": [],
      "stateMutability": "nonpayable",
      "type": "function"
    },
    {
      "inputs": [
        {
          "internalType": "string",
          "name": "_certId",
          "type": "string"
        },
        {
          "internalType": "string",
          "name": "_rejectMsg",
          "type": "string"
        },
        {
          "components": [
            {
              "internalType": "string",
              "name": "userName",
              "type": "string"
            },
            {
              "internalType": "string",
              "name": "userInstance",
              "type": "string"
            },
            {
              "internalType": "address",
              "name": "userAddr",
              "type": "address"
            }
          ],
          "internalType": "struct BaseCertificate.st_userCertificate",
          "name": "_bpom",
          "type": "tuple"
        }
      ],
      "name": "updateBpomRejectDetails",
      "outputs": [],
      "stateMutability": "nonpayable",
      "type": "function"
    },
    {
      "inputs": [
        {
          "internalType": "string",
          "name": "_certId",
          "type": "string"
        }
      ],
      "name": "updateRenewDetails",
      "outputs": [],
      "stateMutability": "nonpayable",
      "type": "function"
    }
  ],
  "bytecode": "0x6080806040523460155761300e908161001a8239f35b5f80fdfe60806040526004361015610011575f80fd5b5f3560e01c806310159dfe14611a3257806317e68309146119d157806319859c87146119995780635850607c146119315780636aa812991461187d5780636d1aa7d51461172357806370c056b014611772578063761fb19a146117235780637ee90ded1461168d57806381fc60a51461151e5780639aaa5d8b146114e3578063a71ed23a146113fc578063b5881e7014610a58578063b9e49080146105ae578063be2e23251461055e578063d533a3dd146104d9578063e462dde5146103a1578063e9c260d71461038a578063f02f5f23146102c4578063f5104ff1146102ad578063fb5fb9a3146102345763fcac71c41461010b575f80fd5b34610230576040366003190112610230576004356001600160401b0381116102305761013b903690600401611b16565b60243560ff811681036102305761015182611f8c565b604051906002835192602081818701958087835e810160038152030190200160ff821660ff198254161790555f5b60025481101561022e5780610195600192611f3c565b506040516101b9816101ab60208201809561211d565b03601f198101835282611af5565b51902060405160208101906101e66020828a51808b875e81015f838201520301601f198101835282611af5565b519020146101f5575b0161017f565b600361020082611f3c565b5001805461ff001916610300179055600361021a82611f3c565b5001805460ff191660ff85161790556101ef565b005b5f80fd5b34610230576060366003190112610230576004356001600160401b03811161023057610264903690600401611e5c565b6024356001600160401b03811161023057610283903690600401611e5c565b90604435916001600160401b038311610230576102a761022e933690600401611b16565b916129b6565b346102305761022e6102be36611ed4565b91612639565b3461023057602036600319011261023057600435600254811015610230576102ee61034391611f3c565b506103866102fb82611ba3565b9161030860018201611ba3565b61037961035f61031a60028501611ba3565b61035161032e600460038801549701611ba3565b94604051998a9960c08b5260c08b0190611c43565b9089820360208b0152611c43565b908782036040890152611c43565b9260ff8116606087015260ff608087019160081c16611ca5565b83820360a0850152611c43565b0390f35b346102305761022e61039b36611ed4565b9161229c565b346102305760a0366003190112610230576004356001600160401b038111610230576103d1903690600401611b16565b6024356001600160401b038111610230576103f0903690600401611b16565b6044356001600160401b0381116102305761040f903690600401611b16565b906064356001600160401b0381116102305761044c92610436610445923690600401611b16565b9061043f611e46565b9061226d565b908361229c565b602081015f5b60025481101561022e5780610468600192611f3c565b5060405161047e816101ab60208201809561211d565b51902060405160208101906104ab6020828951808a875e81015f838201520301601f198101835282611af5565b519020146104ba575b01610452565b60036104c582611f3c565b5001805461ff0019166102001790556104b4565b34610230576060366003190112610230576004356001600160401b03811161023057610509903690600401611b16565b602435906001600160a01b038216820361023057604435906001600160401b038211610230576103869261054461054a933690600401611b16565b9161226d565b604051918291602083526020830190611c67565b34610230576020366003190112610230576004356001600160401b038111610230576105a2610594610386923690600401611b16565b61059c612187565b506121d1565b60405191829182611d7a565b346102305760c0366003190112610230576004356001600160401b038111610230576105de903690600401611b16565b6024356001600160401b038111610230576105fd903690600401611b16565b6044356001600160401b0381116102305761061c903690600401611b16565b6064356001600160401b0381116102305761063b903690600401611b16565b610643611e46565b9060a435916001600160401b0383116102305761066761066d933690600401611b16565b9361226d565b604051906001845192602081818801958087835e810160038152030190200185516001600160401b0381116108da576106a68254611b6b565b601f8111610a13575b506020601f82116001146109ac5790806106e69493925f916109a1575b508160011b915f199060031b1c19161790555b8385612639565b5f5b60025481101561022e576106fb81611f3c565b50604051610711816101ab60208201809561211d565b519020604051602081019061073e60208289518089875e81015f838201520301601f198101835282611af5565b5190201461074f575b6001016106e8565b600161075a82611f3c565b500185516001600160401b0381116108da576107768254611b6b565b601f811161095c575b50806020601f82116001146108f9575f916108ee575b508160011b915f199060031b1c19161790555b60036107b382611f3c565b5001805461ff00191661010017905560046107cd82611f3c565b500183516001600160401b0381116108da576107e98254611b6b565b601f8111610895575b506020601f821160011461083257908060019493925f91610827575b505f19600383901b1c191690841b1790555b9050610747565b90508601518961080e565b601f19821690835f52805f20915f5b81811061087d57509183916001969594879410610865575b5050811b019055610820565b8801515f1960f88460031b161c191690558980610859565b9192602060018192868c015181550194019201610841565b825f5260205f20601f830160051c810191602084106108d0575b601f0160051c01905b8181106108c557506107f2565b5f81556001016108b8565b90915081906108af565b634e487b7160e01b5f52604160045260245ffd5b905087015188610795565b5f8481528181209250601f198416905b8a828210610944575050908360019493921061092c575b5050811b0190556107a8565b8901515f1960f88460031b161c191690558880610920565b60018495602093958493015181550194019201610909565b825f5260205f20601f830160051c81019160208410610997575b601f0160051c01905b81811061098c575061077f565b5f815560010161097f565b9091508190610976565b9050880151896106cc565b601f19821690835f52805f20915f5b8a8282106109fb5750509183916106e6969594600194106109e3575b5050811b0190556106df565b8a01515f1960f88460031b161c1916905589806109d7565b600184956020939584930151815501940192016109bb565b825f5260205f20601f830160051c81019160208410610a4e575b601f0160051c01905b818110610a4357506106af565b5f8155600101610a36565b9091508190610a2d565b346102305760c0366003190112610230576004356001600160401b03811161023057610a88903690600401611b16565b6024356001600160401b03811161023057610aa7903690600401611b16565b906044356001600160401b03811161023057610ac7903690600401611b16565b90606435906001600160a01b0382168203610230576084359160ff83168093036102305760a4356001600160401b03811161023057610b1591610b0f86923690600401611b16565b9661226d565b93610b658260209660405190610b2b8983611af5565b5f8252604051610b3b8a82611af5565b5f8152610b46611f6c565b5060405192610b5484611abe565b8352898301525f60408301526129b6565b604051610b7181611a88565b828152604051610b818782611af5565b5f81528682019081526040820190858252606083019384526040518881875180838a01835e8101600381520301902092518051906001600160401b0382116108da578190610bcf8654611b6b565b601f81116113ae575b508a90601f831160011461134b575f92611340575b50508160011b915f199060031b1c19161783555b51805160018401916001600160401b0382116108da57610c218354611b6b565b601f81116112fd575b508990601f831160011461129457918060ff949260039796945f92611289575b50508160011b915f1990881b1c19161790555b511660ff60028301911660ff198254161790550190518051906001600160401b0382116108da578190610c908454611b6b565b601f811161123b575b508790601f83116001146111d8575f926111cd575b50508160011b915f199060031b1c19161790555b60405190610ccf82611aa3565b815260405192610cdf8585611af5565b5f8452848201938452604082019081526060820192835260808201905f825260405194610d0c8787611af5565b5f865260a08401958652600254680100000000000000008110156108da57806001610d3a9201600255611f3c565b9490946111ba57518051906001600160401b0382116108da578190610d5f8754611b6b565b601f811161116c575b508990601f8311600114611109575f926110fe575b50508160011b915f199060031b1c19161784555b51805160018501916001600160401b0382116108da578190610db38454611b6b565b601f81116110b0575b508990601f831160011461104d575f92611042575b50508160011b915f199060031b1c19161790555b51805160028401916001600160401b0382116108da578190610e078454611b6b565b601f8111610ff4575b508890601f8311600114610f91575f92610f86575b50508160011b915f199060031b1c19161790555b60ff80600384019451161660ff1984541617835551916004831015610f725760049261ff0082549160081b169061ff001916179055019051918251906001600160401b0382116108da57610e8d8354611b6b565b601f8111610f2f575b5080601f8311600114610ed057508192935f92610ec5575b50505f19600383901b1c191660019190911b179055005b015190508380610eae565b90601f19831694845f52825f20925f905b878210610f17575050836001959610610eff575b505050811b019055005b01515f1960f88460031b161c19169055838080610ef5565b80600185968294968601518155019501930190610ee1565b835f52815f20601f840160051c810191838510610f68575b601f0160051c01905b818110610f5d5750610e96565b5f8155600101610f50565b9091508190610f47565b634e487b7160e01b5f52602160045260245ffd5b015190508880610e25565b5f8581528a81209350601f198516905b8b828210610fde575050908460019594939210610fc6575b505050811b019055610e39565b01515f1960f88460031b161c19169055888080610fb9565b6001859682939686015181550195019301610fa1565b909150835f52885f20601f840160051c8101918a8510611038575b90601f859493920160051c01905b81811061102a5750610e10565b5f815584935060010161101d565b909150819061100f565b015190508980610dd1565b5f8581528b81209350601f198516905b8c82821061109a575050908460019594939210611082575b505050811b019055610de5565b01515f1960f88460031b161c19169055898080611075565b600185968293968601518155019501930161105d565b909150835f52895f20601f840160051c8101918b85106110f4575b90601f859493920160051c01905b8181106110e65750610dbc565b5f81558493506001016110d9565b90915081906110cb565b015190508980610d7d565b5f8881528b81209350601f198516905b8c82821061115657505090846001959493921061113e575b505050811b018455610d91565b01515f1960f88460031b161c19169055898080611131565b6001859682939686015181550195019301611119565b909150865f52895f20601f840160051c8101918b85106111b0575b90601f859493920160051c01905b8181106111a25750610d68565b5f8155849350600101611195565b9091508190611187565b634e487b7160e01b5f525f60045260245ffd5b015190508780610cae565b5f8581528981209350601f198516905b8a82821061122557505090846001959493921061120d575b505050811b019055610cc2565b01515f1960f88460031b161c19169055878080611200565b60018596829396860151815501950193016111e8565b909150835f52875f20601f840160051c81019189851061127f575b90601f859493920160051c01905b8181106112715750610c99565b5f8155849350600101611264565b9091508190611256565b015190508c80610c4a565b90601f19831691845f528b5f20925f5b8d8282106112e7575050926001928592600399989660ff9896106112d0575b505050811b019055610c5d565b01515f19838a1b60f8161c191690558c80806112c3565b60018596829396860151815501950193016112a4565b835f528a5f20601f840160051c8101918c8510611336575b601f0160051c01905b81811061132b5750610c2a565b5f815560010161131e565b9091508190611315565b015190508a80610bed565b5f8781528c81209350601f198516905b8d828210611398575050908460019594939210611380575b505050811b018355610c01565b01515f1960f88460031b161c191690558a8080611373565b600185968293968601518155019501930161135b565b909150855f528a5f20601f840160051c8101918c85106113f2575b90601f859493920160051c01905b8181106113e45750610bd8565b5f81558493506001016113d7565b90915081906113c9565b34610230576020366003190112610230576004356001600160401b038111610230576020806114326114a0933690600401611b16565b604051928184925191829101835e81015f81520301902061038660ff825416916114d56001820154916114c76002820154600383015460048401549061147a60058601611e07565b92611493600b61148c60088901611e07565b9701611ba3565b976040519b8c809c611ca5565b60208b015260408a01526060890152608088015261010060a0880152610100870190611c67565b9085820360c0870152611c67565b9083820360e0850152611c43565b34610230576020366003190112610230576004356001600160401b038111610230576105a2611519610386923690600401611b16565b6121d1565b34610230576020366003190112610230576004356001600160401b0381116102305761154e903690600401611b16565b60025460208201915f805b83811061162a575060ff61156d9116611fd1565b925f915f5b84811061158757604051806103868882611cb2565b60026101ab6115ac61159884611f3c565b50604051928391602083019586910161211d565b51902060405160208101906115d96020828751808a875e81015f838201520301601f198101835282611af5565b519020146115ea575b600101611572565b9261162260019161161c61160661160088611f3c565b50612068565b60ff831690611615828c612048565b5289612048565b506120d5565b9390506115e2565b60026101ab61163b61159884611f3c565b51902060405160208101906116686020828851808c875e81015f838201520301601f198101835282611af5565b51902014611679575b600101611559565b906116856001916120d5565b919050611671565b34610230576040366003190112610230576004356001600160401b038111610230576116bd903690600401611b16565b604051815160243592602091839181908401835e8101600481520301902090815481101561023057611719915f5260205f209060011b0160ff600161170183611ba3565b92015416604051928392604084526040840190611c43565b9060208301520390f35b34610230576020366003190112610230576004356001600160401b0381116102305761175e611759610386923690600401611b16565b6120fa565b604051918291602083526020830190611c43565b34610230576020366003190112610230576004356001600160401b038111610230576020806117a8611850933690600401611b16565b6060806040516117b781611a88565b81815281858201525f60408201520152604051928184925191829101835e81016003815203019020610386604051916117ef83611a88565b6117f881611ba3565b835261180660018201611ba3565b6020840190815260ff61186361182c600383600287015416956040890196875201611ba3565b92606087019384526040519788976020895251608060208a015260a0890190611c43565b9051878203601f19016040890152611c43565b925116606085015251838203601f19016080850152611c43565b34610230576020366003190112610230576004356001600160401b038111610230576020806118b3611910933690600401611b16565b604051928184925191829101835e810160038152030190206103866118d782611ba3565b916118e460018201611ba3565b61191e6118fb600360ff6002860154169401611ba3565b91604051968796608088526080880190611c43565b908682036020880152611c43565b9160408501528382036060850152611c43565b34610230575f3660031901126102305760025461194d81611fd1565b905f805b82821061196657604051806103868682611cb2565b61199160019161161c61197b61160086611f3c565b60ff83169061198a828a612048565b5287612048565b910190611951565b34610230576020366003190112610230576004356001600160401b038111610230576119cc61022e913690600401611b16565b611f8c565b34610230576020366003190112610230576004356001600160401b0381116102305761054a6005602080611a0c610386953690600401611b16565b611a14611f6c565b50604051928184925191829101835e81015f81520301902001611e07565b34610230576020366003190112610230576004356001600160401b0381116102305761175e602080611a6b610386943690600401611b16565b604051928184925191829101835e81016001815203019020611ba3565b608081019081106001600160401b038211176108da57604052565b60c081019081106001600160401b038211176108da57604052565b606081019081106001600160401b038211176108da57604052565b61010081019081106001600160401b038211176108da57604052565b90601f801991011681019081106001600160401b038211176108da57604052565b81601f82011215610230578035906001600160401b0382116108da5760405192611b4a601f8401601f191660200185611af5565b8284526020838301011161023057815f926020809301838601378301015290565b90600182811c92168015611b99575b6020831014611b8557565b634e487b7160e01b5f52602260045260245ffd5b91607f1691611b7a565b9060405191825f825492611bb684611b6b565b8084529360018116908115611c215750600114611bdd575b50611bdb92500383611af5565b565b90505f9291925260205f20905f915b818310611c05575050906020611bdb928201015f611bce565b6020919350806001915483858901015201910190918492611bec565b905060209250611bdb94915060ff191682840152151560051b8201015f611bce565b805180835260209291819084018484015e5f828201840152601f01601f1916010190565b906040611c92611c808451606085526060850190611c43565b60208501518482036020860152611c43565b928101516001600160a01b031691015290565b906004821015610f725752565b602081016020825282518091526040820191602060408360051b8301019401925f915b838310611ce457505050505090565b9091929394602080611d6b600193603f1986820301875289519060a0611d3b611d29611d19855160c0865260c0860190611c43565b8786015185820389870152611c43565b60408501518482036040860152611c43565b9260ff6060820151166060840152611d5b60808201516080850190611ca5565b01519060a0818403910152611c43565b97019301930191939290611cd5565b90611e049160208152611d91602082018351611ca5565b602082015160408201526040820151606082015260608201516080820152608082015160a082015260e0611dee611dd960a085015161010060c0860152610120850190611c67565b60c0850151848203601f190184860152611c67565b92015190610100601f1982850301910152611c43565b90565b90604051611e1481611abe565b60408193611e2181611ba3565b8352611e2f60018201611ba3565b6020840152600201546001600160a01b0316910152565b608435906001600160a01b038216820361023057565b91906060838203126102305760405190611e7582611abe565b819380356001600160401b0381116102305782611e93918301611b16565b835260208101356001600160401b03811161023057604092611eb6918301611b16565b60208401520135906001600160a01b03821682036102305760400152565b6060600319820112610230576004356001600160401b0381116102305781611efe91600401611b16565b916024356001600160401b0381116102305782611f1d91600401611b16565b91604435906001600160401b03821161023057611e0491600401611e5c565b600254811015611f585760025f52600560205f20910201905f90565b634e487b7160e01b5f52603260045260245ffd5b60405190611f7982611abe565b5f60408360608152606060208201520152565b60208091604051928184925191829101835e81015f815203019020426004820155600360ff19825416179055565b6001600160401b0381116108da5760051b60200190565b90611fdb82611fba565b611fe86040519182611af5565b8281528092611ff9601f1991611fba565b01905f5b82811061200957505050565b60209060405161201881611aa3565b60608152606083820152606060408201525f60608201525f6080820152606060a082015282828501015201611ffd565b8051821015611f585760209160051b010190565b6004821015610f725752565b9060405161207581611aa3565b60a06120d06004839561208781611ba3565b855261209560018201611ba3565b60208601526120a660028201611ba3565b60408601526120ca60ff6003830154818116606089015260081c166080870161205c565b01611ba3565b910152565b60ff1660ff81146120e65760010190565b634e487b7160e01b5f52601160045260245ffd5b6040518151611e0492602091839181908401835e81016001815203019020611ba3565b5f929181549161212c83611b6b565b9260018116908115612174575060011461214557505050565b90919293505f5260205f205f905b8382106121605750500190565b600181602092548486015201910190612153565b60ff191683525050811515909102019150565b6040519061219482611ad9565b606060e0835f81525f60208201525f60408201525f838201525f60808201526121bb611f6c565b60a08201526121c8611f6c565b60c08201520152565b602080916121dd612187565b50604051928184925191829101835e81015f815203019020612265600b6040519261220784611ad9565b61221560ff8254168561205c565b6001810154602085015260028101546040850152600381015460608501526004810154608085015261224960058201611e07565b60a085015261225a60088201611e07565b60c085015201611ba3565b60e082015290565b91612276611f6c565b506040519261228484611abe565b835260208301526001600160a01b0316604082015290565b92919060405160208551918181818901948086835e81015f81520301902095604051928391518091835e81016001815203019020908051906001600160401b0382116108da5781906122ee8454611b6b565b601f81116125e9575b50602090601f8311600114612586575f9261257b575b50508160011b915f199060031b1c19161790555b8051805160088501916001600160401b0382116108da576123428354611b6b565b601f8111612536575b50602090601f83116001146124cf576020949392915f91836124c4575b50508160011b915f199060031b1c19161790555b6040810151600a850180546001600160a01b0319166001600160a01b03929092169190911790550151805190929060098201906001600160401b0381116108da576123c78254611b6b565b601f811161247f575b50602094601f821160011461241e579481929394955f92612413575b50508160011b915f199060031b1c19161790555b426003820155805460ff19166002179055565b015190505f806123ec565b601f19821695835f52805f20915f5b8881106124675750836001959697981061244f575b505050811b019055612400565b01515f1960f88460031b161c191690555f8080612442565b9192602060018192868501518155019401920161242d565b825f5260205f20601f830160051c810191602084106124ba575b601f0160051c01905b8181106124af57506123d0565b5f81556001016124a2565b9091508190612499565b015190505f80612368565b90601f19831691845f52815f20925f5b81811061251e575091600193918560209897969410612506575b505050811b01905561237c565b01515f1960f88460031b161c191690555f80806124f9565b929360206001819287860151815501950193016124df565b835f5260205f20601f840160051c81019160208510612571575b601f0160051c01905b818110612566575061234b565b5f8155600101612559565b9091508190612550565b015190505f8061230d565b5f8581528281209350601f198516905b8181106125d157509084600195949392106125b9575b505050811b019055612321565b01515f1960f88460031b161c191690555f80806125ac565b92936020600181928786015181550195019301612596565b909150835f5260205f20601f840160051c8101916020851061262f575b90601f859493920160051c01905b81811061262157506122f7565b5f8155849350600101612614565b9091508190612606565b6020809194939294604051928184925191829101835e81015f81520301902090805160088301908051906001600160401b0382116108da5761267b8354611b6b565b601f8111612971575b50602090601f831160011461290a576020949392915f91836128ff575b50508160011b915f199060031b1c19161790555b6040810151600a840180546001600160a01b0319166001600160a01b03929092169190911790550151805160098301916001600160401b0382116108da576126fd8354611b6b565b601f81116128ba575b50602090601f831160011461285357600b949392915f9183612848575b50508160011b915f199060031b1c19161790555b426002820155600160ff198254161781550182516001600160401b0381116108da576127638254611b6b565b601f8111612803575b506020601f82116001146127a557819293945f9261279a575b50508160011b915f199060031b1c1916179055565b015190505f80612785565b601f19821690835f52805f20915f5b8181106127eb575095836001959697106127d3575b505050811b019055565b01515f1960f88460031b161c191690555f80806127c9565b9192602060018192868b0151815501940192016127b4565b825f5260205f20601f830160051c8101916020841061283e575b601f0160051c01905b818110612833575061276c565b5f8155600101612826565b909150819061281d565b015190505f80612723565b90601f19831691845f52815f20925f5b8181106128a25750916001939185600b989796941061288a575b505050811b019055612737565b01515f1960f88460031b161c191690555f808061287d565b92936020600181928786015181550195019301612863565b835f5260205f20601f840160051c810191602085106128f5575b601f0160051c01905b8181106128ea5750612706565b5f81556001016128dd565b90915081906128d4565b015190505f806126a1565b90601f19831691845f52815f20925f5b818110612959575091600193918560209897969410612941575b505050811b0190556126b5565b01515f1960f88460031b161c191690555f8080612934565b9293602060018192878601518155019501930161291a565b835f5260205f20601f840160051c810191602085106129ac575b601f0160051c01905b8181106129a15750612684565b5f8155600101612994565b909150819061298b565b9290916040516129c581611ad9565b5f81526020810194428652604082015f8152606083015f815260808401915f835260a0850193845260c08501978852602098898060405198612a07828b611af5565b5f8a5260e08901998a52604051928184925191829101835e81015f81520301902095516004811015610f725760ff801988541691161786555160018601555160028501555160038401555160048301556005820190519081518051906001600160401b0382116108da578190612a7d8454611b6b565b601f8111612f8a575b508990601f8311600114612f27575f92612f1c575b50508160011b915f199060031b1c19161790555b60068201868201518051906001600160401b0382116108da578190612ad48454611b6b565b601f8111612ece575b508990601f8311600114612e6b575f92612e60575b50508160011b915f199060031b1c19161790555b604001516007820180546001600160a01b0319166001600160a01b039290921691909117905592518051805191949160088301916001600160401b0382116108da578190612b548454611b6b565b601f8111612e12575b508890601f8311600114612daf575f92612da4575b50508160011b915f199060031b1c19161790555b600981019385810151948551956001600160401b0387116108da57612bab8254611b6b565b601f8111612d61575b508790601f8811600114612cfa57968091600b9697985f92612cef575b50508160011b915f199060031b1c19161790555b60400151600a820180546001600160a01b0319166001600160a01b03929092169190911790559151805190949190920191906001600160401b0382116108da57612c2f8354611b6b565b601f8111612cac575b5080601f8311600114612c655750819293945f9261279a5750508160011b915f199060031b1c1916179055565b90601f19831695845f52825f20925f905b888210612c94575050836001959697106127d357505050811b019055565b80600185968294968601518155019501930190612c76565b835f52815f20601f840160051c810191838510612ce5575b601f0160051c01905b818110612cda5750612c38565b5f8155600101612ccd565b9091508190612cc4565b015190505f80612bd1565b90601f19881691835f52895f20925f5b8b828210612d4b57505091600193918a600b999a9b9410612d33575b505050811b019055612be5565b01515f1960f88460031b161c191690555f8080612d26565b6001859682939686015181550195019301612d0a565b825f52885f20601f890160051c8101918a8a10612d9a575b601f0160051c01905b818110612d8f5750612bb4565b5f8155600101612d82565b9091508190612d79565b015190505f80612b72565b5f8581528a81209350601f198516905b8b828210612dfc575050908460019594939210612de4575b505050811b019055612b86565b01515f1960f88460031b161c191690555f8080612dd7565b6001859682939686015181550195019301612dbf565b909150835f52885f20601f840160051c8101918a8510612e56575b90601f859493920160051c01905b818110612e485750612b5d565b5f8155849350600101612e3b565b9091508190612e2d565b015190505f80612af2565b5f8581528b81209350601f198516905b8c828210612eb8575050908460019594939210612ea0575b505050811b019055612b06565b01515f1960f88460031b161c191690555f8080612e93565b6001859682939686015181550195019301612e7b565b909150835f52895f20601f840160051c8101918b8510612f12575b90601f859493920160051c01905b818110612f045750612add565b5f8155849350600101612ef7565b9091508190612ee9565b015190505f80612a9b565b5f8581528b81209350601f198516905b8c828210612f74575050908460019594939210612f5c575b505050811b019055612aaf565b01515f1960f88460031b161c191690555f8080612f4f565b6001859682939686015181550195019301612f37565b909150835f52895f20601f840160051c8101918b8510612fce575b90601f859493920160051c01905b818110612fc05750612a86565b5f8155849350600101612fb3565b9091508190612fa556fea2646970667358221220ad76f69b51cf75584325dd42ee69a608728f4980c7e1bcd3d1224f30548db90564736f6c634300081b0033",
  "linkReferences": {},
  "deployedLinkReferences": {}
}