{
  "_format": "hh-sol-artifact-1",
  "contractName": "OrderManagement",
  "sourceName": "contracts/OrderManagement.sol",
  "abi": [
    {
      "inputs": [
        {
          "internalType": "address",
          "name": "_obatTradisionalAddr",
          "type": "address"
        },
        {
          "internalType": "address",
          "name": "_roleManagerAddr",
          "type": "address"
        }
      ],
      "stateMutability": "nonpayable",
      "type": "constructor"
    },
    {
      "anonymous": false,
      "inputs": [
        {
          "indexed": false,
          "internalType": "string",
          "name": "namaProduk",
          "type": "string"
        },
        {
          "indexed": false,
          "internalType": "uint8",
          "name": "quantity",
          "type": "uint8"
        },
        {
          "indexed": false,
          "internalType": "string",
          "name": "orderId",
          "type": "string"
        },
        {
          "indexed": false,
          "internalType": "string",
          "name": "senderInstanceName",
          "type": "string"
        },
        {
          "indexed": false,
          "internalType": "string",
          "name": "targetInstanceName",
          "type": "string"
        },
        {
          "indexed": false,
          "internalType": "uint256",
          "name": "latestTimestamp",
          "type": "uint256"
        }
      ],
      "name": "evt_obatOrdered",
      "type": "event"
    },
    {
      "anonymous": false,
      "inputs": [
        {
          "indexed": false,
          "internalType": "string",
          "name": "namaProduk",
          "type": "string"
        },
        {
          "indexed": false,
          "internalType": "string",
          "name": "batchName",
          "type": "string"
        },
        {
          "indexed": false,
          "internalType": "string",
          "name": "targetInstance",
          "type": "string"
        },
        {
          "indexed": false,
          "internalType": "string",
          "name": "senderInstance",
          "type": "string"
        },
        {
          "indexed": false,
          "internalType": "uint8",
          "name": "quantity",
          "type": "uint8"
        },
        {
          "indexed": false,
          "internalType": "uint256",
          "name": "latestTimestamp",
          "type": "uint256"
        }
      ],
      "name": "evt_updateOrder",
      "type": "event"
    },
    {
      "inputs": [
        {
          "internalType": "string",
          "name": "_batchName",
          "type": "string"
        },
        {
          "internalType": "string",
          "name": "_orderId",
          "type": "string"
        },
        {
          "internalType": "string[]",
          "name": "_obatIpfsHash",
          "type": "string[]"
        }
      ],
      "name": "acceptOrderFactory",
      "outputs": [],
      "stateMutability": "nonpayable",
      "type": "function"
    },
    {
      "inputs": [
        {
          "internalType": "string",
          "name": "_batchName",
          "type": "string"
        },
        {
          "internalType": "string",
          "name": "_orderId",
          "type": "string"
        },
        {
          "internalType": "string",
          "name": "_obatId",
          "type": "string"
        },
        {
          "internalType": "string[]",
          "name": "_obatIpfsHash",
          "type": "string[]"
        }
      ],
      "name": "acceptOrderPbf",
      "outputs": [],
      "stateMutability": "nonpayable",
      "type": "function"
    },
    {
      "inputs": [
        {
          "internalType": "uint256",
          "name": "",
          "type": "uint256"
        }
      ],
      "name": "allObatPbf",
      "outputs": [
        {
          "internalType": "string",
          "name": "orderId",
          "type": "string"
        },
        {
          "internalType": "string",
          "name": "batchName",
          "type": "string"
        },
        {
          "internalType": "string",
          "name": "obatIdProduk",
          "type": "string"
        },
        {
          "internalType": "string",
          "name": "namaProduk",
          "type": "string"
        },
        {
          "internalType": "enum OrderManagement.en_obatAvailability",
          "name": "statusStok",
          "type": "uint8"
        },
        {
          "internalType": "uint8",
          "name": "obatQuantity",
          "type": "uint8"
        },
        {
          "internalType": "string",
          "name": "ownerInstanceName",
          "type": "string"
        }
      ],
      "stateMutability": "view",
      "type": "function"
    },
    {
      "inputs": [
        {
          "internalType": "uint256",
          "name": "",
          "type": "uint256"
        }
      ],
      "name": "allObatRetailer",
      "outputs": [
        {
          "internalType": "string",
          "name": "orderId",
          "type": "string"
        },
        {
          "internalType": "string",
          "name": "batchName",
          "type": "string"
        },
        {
          "internalType": "string",
          "name": "obatIdProduk",
          "type": "string"
        },
        {
          "internalType": "string",
          "name": "namaProduk",
          "type": "string"
        },
        {
          "internalType": "enum OrderManagement.en_obatAvailability",
          "name": "statusStok",
          "type": "uint8"
        },
        {
          "internalType": "uint8",
          "name": "obatQuantity",
          "type": "uint8"
        },
        {
          "internalType": "string",
          "name": "ownerInstanceName",
          "type": "string"
        }
      ],
      "stateMutability": "view",
      "type": "function"
    },
    {
      "inputs": [
        {
          "internalType": "uint256",
          "name": "",
          "type": "uint256"
        }
      ],
      "name": "allOrderedObat",
      "outputs": [
        {
          "internalType": "string",
          "name": "orderId",
          "type": "string"
        },
        {
          "internalType": "string",
          "name": "namaProduk",
          "type": "string"
        },
        {
          "internalType": "string",
          "name": "obatIdProduk",
          "type": "string"
        },
        {
          "internalType": "string",
          "name": "batchName",
          "type": "string"
        },
        {
          "internalType": "uint8",
          "name": "orderQuantity",
          "type": "uint8"
        },
        {
          "internalType": "string",
          "name": "senderInstanceName",
          "type": "string"
        },
        {
          "internalType": "string",
          "name": "targetInstanceName",
          "type": "string"
        },
        {
          "internalType": "enum OrderManagement.en_orderStatus",
          "name": "statusOrder",
          "type": "uint8"
        },
        {
          "internalType": "uint256",
          "name": "timestampOrder",
          "type": "uint256"
        },
        {
          "internalType": "uint256",
          "name": "timestampShipped",
          "type": "uint256"
        },
        {
          "internalType": "uint256",
          "name": "timestampComplete",
          "type": "uint256"
        }
      ],
      "stateMutability": "view",
      "type": "function"
    },
    {
      "inputs": [
        {
          "internalType": "string",
          "name": "_orderId",
          "type": "string"
        },
        {
          "internalType": "string[]",
          "name": "_obatIpfsHash",
          "type": "string[]"
        }
      ],
      "name": "completeOrder",
      "outputs": [],
      "stateMutability": "nonpayable",
      "type": "function"
    },
    {
      "inputs": [
        {
          "internalType": "string",
          "name": "_obatIdProduk",
          "type": "string"
        },
        {
          "internalType": "string",
          "name": "_orderId",
          "type": "string"
        },
        {
          "internalType": "string",
          "name": "_namaProduk",
          "type": "string"
        },
        {
          "internalType": "uint8",
          "name": "_orderQuantity",
          "type": "uint8"
        },
        {
          "internalType": "string",
          "name": "_senderInstanceName",
          "type": "string"
        },
        {
          "internalType": "address",
          "name": "_senderInstanceAddr",
          "type": "address"
        },
        {
          "internalType": "string",
          "name": "_targetInstanceName",
          "type": "string"
        }
      ],
      "name": "createOrder",
      "outputs": [],
      "stateMutability": "nonpayable",
      "type": "function"
    },
    {
      "inputs": [
        {
          "internalType": "string",
          "name": "_orderId",
          "type": "string"
        }
      ],
      "name": "getDetailOrderedObat",
      "outputs": [
        {
          "components": [
            {
              "internalType": "string",
              "name": "orderId",
              "type": "string"
            },
            {
              "internalType": "string",
              "name": "namaProduk",
              "type": "string"
            },
            {
              "internalType": "string",
              "name": "obatIdProduk",
              "type": "string"
            },
            {
              "internalType": "string",
              "name": "batchName",
              "type": "string"
            },
            {
              "internalType": "uint8",
              "name": "orderQuantity",
              "type": "uint8"
            },
            {
              "internalType": "string",
              "name": "senderInstanceName",
              "type": "string"
            },
            {
              "internalType": "string",
              "name": "targetInstanceName",
              "type": "string"
            },
            {
              "internalType": "enum OrderManagement.en_orderStatus",
              "name": "statusOrder",
              "type": "uint8"
            },
            {
              "internalType": "uint256",
              "name": "timestampOrder",
              "type": "uint256"
            },
            {
              "internalType": "uint256",
              "name": "timestampShipped",
              "type": "uint256"
            },
            {
              "internalType": "uint256",
              "name": "timestampComplete",
              "type": "uint256"
            },
            {
              "internalType": "string[]",
              "name": "orderObatIpfsHash",
              "type": "string[]"
            }
          ],
          "internalType": "struct OrderManagement.st_orderObat",
          "name": "",
          "type": "tuple"
        }
      ],
      "stateMutability": "view",
      "type": "function"
    },
    {
      "inputs": [
        {
          "internalType": "string",
          "name": "_obatId",
          "type": "string"
        },
        {
          "internalType": "string",
          "name": "_userInstanceName",
          "type": "string"
        }
      ],
      "name": "getDetailPbfObat",
      "outputs": [
        {
          "components": [
            {
              "internalType": "string",
              "name": "orderId",
              "type": "string"
            },
            {
              "internalType": "string",
              "name": "batchName",
              "type": "string"
            },
            {
              "internalType": "string",
              "name": "obatIdProduk",
              "type": "string"
            },
            {
              "internalType": "string",
              "name": "namaProduk",
              "type": "string"
            },
            {
              "internalType": "enum OrderManagement.en_obatAvailability",
              "name": "statusStok",
              "type": "uint8"
            },
            {
              "internalType": "uint8",
              "name": "obatQuantity",
              "type": "uint8"
            },
            {
              "internalType": "string[]",
              "name": "obatIpfsHash",
              "type": "string[]"
            },
            {
              "internalType": "string",
              "name": "ownerInstanceName",
              "type": "string"
            }
          ],
          "internalType": "struct OrderManagement.st_obatPbf",
          "name": "",
          "type": "tuple"
        }
      ],
      "stateMutability": "view",
      "type": "function"
    },
    {
      "inputs": [
        {
          "internalType": "string",
          "name": "_obatId",
          "type": "string"
        },
        {
          "internalType": "string",
          "name": "_userInstanceName",
          "type": "string"
        }
      ],
      "name": "getDetailRetailerObat",
      "outputs": [
        {
          "components": [
            {
              "internalType": "string",
              "name": "orderId",
              "type": "string"
            },
            {
              "internalType": "string",
              "name": "batchName",
              "type": "string"
            },
            {
              "internalType": "string",
              "name": "obatIdProduk",
              "type": "string"
            },
            {
              "internalType": "string",
              "name": "namaProduk",
              "type": "string"
            },
            {
              "internalType": "enum OrderManagement.en_obatAvailability",
              "name": "statusStok",
              "type": "uint8"
            },
            {
              "internalType": "uint8",
              "name": "obatQuantity",
              "type": "uint8"
            },
            {
              "internalType": "string[]",
              "name": "obatIpfsHash",
              "type": "string[]"
            },
            {
              "internalType": "string",
              "name": "ownerInstanceName",
              "type": "string"
            }
          ],
          "internalType": "struct OrderManagement.st_obatRetailer",
          "name": "",
          "type": "tuple"
        }
      ],
      "stateMutability": "view",
      "type": "function"
    },
    {
      "inputs": [
        {
          "internalType": "string",
          "name": "_batchName",
          "type": "string"
        }
      ],
      "name": "getHistoryOrderObatPbf",
      "outputs": [
        {
          "internalType": "uint256",
          "name": "orderQuantity",
          "type": "uint256"
        },
        {
          "internalType": "string",
          "name": "senderInstanceName",
          "type": "string"
        },
        {
          "internalType": "string",
          "name": "targetInstanceName",
          "type": "string"
        },
        {
          "internalType": "uint256",
          "name": "timestampOrder",
          "type": "uint256"
        },
        {
          "internalType": "uint256",
          "name": "timestampShipped",
          "type": "uint256"
        },
        {
          "internalType": "uint256",
          "name": "timestampComplete",
          "type": "uint256"
        }
      ],
      "stateMutability": "view",
      "type": "function"
    },
    {
      "inputs": [
        {
          "internalType": "string",
          "name": "_senderInstanceName",
          "type": "string"
        }
      ],
      "name": "getListAllOrderedObatFromSender",
      "outputs": [
        {
          "internalType": "string[]",
          "name": "orderIdArray",
          "type": "string[]"
        },
        {
          "internalType": "string[]",
          "name": "namaProdukArray",
          "type": "string[]"
        },
        {
          "internalType": "uint8[]",
          "name": "statusOrderArray",
          "type": "uint8[]"
        },
        {
          "internalType": "uint8[]",
          "name": "obatQuantityArray",
          "type": "uint8[]"
        },
        {
          "internalType": "string[]",
          "name": "obatIdProdukArray",
          "type": "string[]"
        },
        {
          "internalType": "string[]",
          "name": "batchNameArray",
          "type": "string[]"
        }
      ],
      "stateMutability": "view",
      "type": "function"
    },
    {
      "inputs": [
        {
          "internalType": "string",
          "name": "_targetInstanceName",
          "type": "string"
        }
      ],
      "name": "getListAllOrderedObatFromTarget",
      "outputs": [
        {
          "internalType": "string[]",
          "name": "orderIdArray",
          "type": "string[]"
        },
        {
          "internalType": "string[]",
          "name": "namaProdukArray",
          "type": "string[]"
        },
        {
          "internalType": "uint8[]",
          "name": "statusOrderArray",
          "type": "uint8[]"
        },
        {
          "internalType": "uint8[]",
          "name": "obatQuantityArray",
          "type": "uint8[]"
        },
        {
          "internalType": "string[]",
          "name": "obatIdProdukArray",
          "type": "string[]"
        },
        {
          "internalType": "string[]",
          "name": "batchNameArray",
          "type": "string[]"
        }
      ],
      "stateMutability": "view",
      "type": "function"
    },
    {
      "inputs": [
        {
          "internalType": "string",
          "name": "_instanceName",
          "type": "string"
        }
      ],
      "name": "getListAllReadyObatPbf",
      "outputs": [
        {
          "internalType": "string[]",
          "name": "obatIdProduk",
          "type": "string[]"
        },
        {
          "internalType": "string[]",
          "name": "namaProduk",
          "type": "string[]"
        },
        {
          "internalType": "uint8[]",
          "name": "obatQuantity",
          "type": "uint8[]"
        },
        {
          "internalType": "string[]",
          "name": "batchName",
          "type": "string[]"
        }
      ],
      "stateMutability": "view",
      "type": "function"
    },
    {
      "inputs": [
        {
          "internalType": "string",
          "name": "_instanceName",
          "type": "string"
        }
      ],
      "name": "getListAllReadyObatRetailer",
      "outputs": [
        {
          "internalType": "string[]",
          "name": "obatIdProduk",
          "type": "string[]"
        },
        {
          "internalType": "string[]",
          "name": "namaProduk",
          "type": "string[]"
        },
        {
          "internalType": "uint8[]",
          "name": "obatQuantity",
          "type": "uint8[]"
        },
        {
          "internalType": "string[]",
          "name": "batchName",
          "type": "string[]"
        }
      ],
      "stateMutability": "view",
      "type": "function"
    },
    {
      "inputs": [
        {
          "internalType": "string",
          "name": "",
          "type": "string"
        }
      ],
      "name": "obatPbfByIdProduk",
      "outputs": [
        {
          "internalType": "string",
          "name": "orderId",
          "type": "string"
        },
        {
          "internalType": "string",
          "name": "batchName",
          "type": "string"
        },
        {
          "internalType": "string",
          "name": "obatIdProduk",
          "type": "string"
        },
        {
          "internalType": "string",
          "name": "namaProduk",
          "type": "string"
        },
        {
          "internalType": "enum OrderManagement.en_obatAvailability",
          "name": "statusStok",
          "type": "uint8"
        },
        {
          "internalType": "uint8",
          "name": "obatQuantity",
          "type": "uint8"
        },
        {
          "internalType": "string",
          "name": "ownerInstanceName",
          "type": "string"
        }
      ],
      "stateMutability": "view",
      "type": "function"
    },
    {
      "inputs": [
        {
          "internalType": "string",
          "name": "",
          "type": "string"
        }
      ],
      "name": "obatRetailerByIdProduk",
      "outputs": [
        {
          "internalType": "string",
          "name": "orderId",
          "type": "string"
        },
        {
          "internalType": "string",
          "name": "batchName",
          "type": "string"
        },
        {
          "internalType": "string",
          "name": "obatIdProduk",
          "type": "string"
        },
        {
          "internalType": "string",
          "name": "namaProduk",
          "type": "string"
        },
        {
          "internalType": "enum OrderManagement.en_obatAvailability",
          "name": "statusStok",
          "type": "uint8"
        },
        {
          "internalType": "uint8",
          "name": "obatQuantity",
          "type": "uint8"
        },
        {
          "internalType": "string",
          "name": "ownerInstanceName",
          "type": "string"
        }
      ],
      "stateMutability": "view",
      "type": "function"
    },
    {
      "inputs": [],
      "name": "obatTradisional",
      "outputs": [
        {
          "internalType": "contract ObatTradisional",
          "name": "",
          "type": "address"
        }
      ],
      "stateMutability": "view",
      "type": "function"
    },
    {
      "inputs": [
        {
          "internalType": "string",
          "name": "",
          "type": "string"
        }
      ],
      "name": "orderHistoryPbfByBatchName",
      "outputs": [
        {
          "internalType": "string",
          "name": "",
          "type": "string"
        }
      ],
      "stateMutability": "view",
      "type": "function"
    },
    {
      "inputs": [
        {
          "internalType": "string",
          "name": "",
          "type": "string"
        }
      ],
      "name": "orderObatById",
      "outputs": [
        {
          "internalType": "string",
          "name": "orderId",
          "type": "string"
        },
        {
          "internalType": "string",
          "name": "namaProduk",
          "type": "string"
        },
        {
          "internalType": "string",
          "name": "obatIdProduk",
          "type": "string"
        },
        {
          "internalType": "string",
          "name": "batchName",
          "type": "string"
        },
        {
          "internalType": "uint8",
          "name": "orderQuantity",
          "type": "uint8"
        },
        {
          "internalType": "string",
          "name": "senderInstanceName",
          "type": "string"
        },
        {
          "internalType": "string",
          "name": "targetInstanceName",
          "type": "string"
        },
        {
          "internalType": "enum OrderManagement.en_orderStatus",
          "name": "statusOrder",
          "type": "uint8"
        },
        {
          "internalType": "uint256",
          "name": "timestampOrder",
          "type": "uint256"
        },
        {
          "internalType": "uint256",
          "name": "timestampShipped",
          "type": "uint256"
        },
        {
          "internalType": "uint256",
          "name": "timestampComplete",
          "type": "uint256"
        }
      ],
      "stateMutability": "view",
      "type": "function"
    },
    {
      "inputs": [
        {
          "internalType": "string",
          "name": "",
          "type": "string"
        },
        {
          "internalType": "uint256",
          "name": "",
          "type": "uint256"
        }
      ],
      "name": "orderRetailerInstanceAddress",
      "outputs": [
        {
          "internalType": "address",
          "name": "",
          "type": "address"
        }
      ],
      "stateMutability": "view",
      "type": "function"
    },
    {
      "inputs": [
        {
          "internalType": "string",
          "name": "",
          "type": "string"
        },
        {
          "internalType": "uint256",
          "name": "",
          "type": "uint256"
        }
      ],
      "name": "orderSenderInstanceAddress",
      "outputs": [
        {
          "internalType": "address",
          "name": "",
          "type": "address"
        }
      ],
      "stateMutability": "view",
      "type": "function"
    },
    {
      "inputs": [],
      "name": "roleManager",
      "outputs": [
        {
          "internalType": "contract RoleManager",
          "name": "",
          "type": "address"
        }
      ],
      "stateMutability": "view",
      "type": "function"
    }
  ],
  "bytecode": "0x608034608d57601f61534438819003918201601f19168301916001600160401b038311848410176092578084926040948552833981010312608d5760418160a8565b906001600160a01b039060559060200160a8565b1660018060a01b0319600154161760015560018060a01b031660018060a01b0319600054161760005560405161528890816100bc8239f35b600080fd5b634e487b7160e01b600052604160045260246000fd5b51906001600160a01b0382168203608d5756fe608080604052600436101561001357600080fd5b60003560e01c908162435da514613406575080630a04f9c8146133d55780630e59a675146133a35780634e09fdbc1461316157806376ca2b0414612fb957806386f5cea614612f0157806388fadd8114612ea35780638eaca41d14612e5b5780639836ccb7146123315780639aa3405014611ba75780639cf8b57e14611b8d578063aefb977d1461179e578063b1199d1b14611770578063c2d48dca146115c8578063d4af6823146115a1578063d5e30e5214611297578063dbac3f8f1461083a578063dfb4936414610809578063e7ca3787146107a9578063ea020d5914610780578063ed7212cd146106d2578063ef470b55146104a45763ffef1f621461011b57600080fd5b3461049f57602036600319011261049f576004356001600160401b03811161049f5761014b9036906004016136a5565b6004546001546001600160a01b031691600090815b8381106103975750610171826147a2565b9161017b816147a2565b9361018e61018883615200565b926147a2565b92600090815b8381106101b057604051806101ac88888c8c85613a60565b0390f35b6040516395a8c58d60e01b8152336004820152600360248201526000906020816044818e5afa90811561038c57829161035e575b501561033857600661020f61021d6101fb85613a41565b506040519283916020830195869101613b05565b03601f1981018352826134d1565b519020604051602081019061024e602082885161023d8187858d01613596565b81010301601f1981018352826134d1565b5190201480610317575b61030f575b61026a575b600101610194565b91610307600191610286600261027f87613a41565b50016134f2565b610290828b613f31565b5261029b818a613f31565b506102aa600361027f87613a41565b6102b4828c613f31565b526102bf818b613f31565b5060ff60046102cd87613a41565b50015460081c166102de8289613f31565b526102ec8361027f87613a41565b6102f6828a613f31565b526103018189613f31565b506151db565b929050610262565b50600161025d565b5060ff600461032584613a41565b500154166103328161378e565b15610258565b60ff600461034584613a41565b500154166103528161378e565b61025d5750600161025d565b61037f915060203d8111610385575b61037781836134d1565b810190614024565b386101e4565b503d61036d565b6040513d84823e3d90fd5b6040516395a8c58d60e01b8152336004820152600360248201526000906020816044818a5afa90811561038c578291610481575b501561045b57600661020f6103e26101fb85613a41565b5190206040516020810190610402602082885161023d8187858d01613596565b519020148061043a575b610432575b61041e575b600101610160565b9161042a6001916151db565b929050610416565b506001610411565b5060ff600461044884613a41565b500154166104558161378e565b1561040c565b60ff600461046884613a41565b500154166104758161378e565b61041157506001610411565b610499915060203d81116103855761037781836134d1565b386103cb565b600080fd5b3461049f57602036600319011261049f576004356001600160401b03811161049f576104d49036906004016136a5565b6000806002549260208101925b84811061067e57506104f2826147a2565b916104fc816147a2565b9361050682615200565b61050f83615200565b9161052261051c856147a2565b946147a2565b94600091825b8a81106105445789896101ac8a8a8a8a604051968796876139b5565b600661020f6105556101fb8461342a565b5190206040516020810190610573602082885161023d81878b613596565b51902014610584575b600101610528565b926105976105918561342a565b506134f2565b6105a1828b613f31565b526105ac818a613f31565b506105bb600161027f8661342a565b6105c5828c613f31565b526105d0818b613f31565b5060ff60076105de8661342a565b5001541660038110156106685781610660916105fc60019489613f31565b5260ff600461060a8861342a565b50015416610618828a613f31565b52610627600261027f8861342a565b610631828b613f31565b5261063c818a613f31565b5061064b600361027f8861342a565b610655828c613f31565b52610301818b613f31565b93905061057c565b634e487b7160e01b600052602160045260246000fd5b600661020f61068f6101fb8461342a565b51902060405160208101906106ad602082875161023d81878d613596565b519020146106be575b6001016104e1565b916106ca6001916151db565b9290506106b6565b3461049f57602036600319011261049f576004356001600160401b03811161049f57602061070761071a9236906004016136a5565b8160405193828580945193849201613596565b8101600781520301902061072d816134f2565b6101ac61073c600184016134f2565b91610749600285016134f2565b93610756600382016134f2565b916107686006600484015493016134f2565b9260405196879660ff808660081c1695169388613798565b3461049f57600036600319011261049f576000546040516001600160a01b039091168152602090f35b3461049f5760206107d16107bc366136ec565b92908160405193828580945193849201613596565b81016009815203019020805482101561049f576020916107f09161371d565b905460405160039290921b1c6001600160a01b03168152f35b3461049f57602036600319011261049f5760043560045481101561049f5761083090613a41565b5061072d816134f2565b3461049f57606036600319011261049f576004356001600160401b03811161049f5761086a9036906004016136a5565b6024356001600160401b03811161049f576108899036906004016136a5565b906044356001600160401b03811161049f576108a9903690600401613816565b9060018060a01b0360005416604051632a721ced60e21b815260206004820152600081806108da60248201876135b9565b0381855afa9081156112465761091c9160409160009161127c575b50015161091460206040518361023d8295518092858086019101613596565b511515613b73565b604051632a721ced60e21b815260206004820152906000828061094260248201876135b9565b0381845afa91821561124657600092611252575b5060006004916040519283809263110037fd60e21b82525afa90811561124657600091611225575b50604051938551946020818189019761099881838b613596565b8101600581520301902093600b85018251600160401b8111610d9d5781548183558082106111a7575b50602084019081926000526020600020916000905b82821061109a57505050506003860182516001600160401b038111610d9d576109ff825461345f565b601f8111611068575b506020601f8211600114611004579080610a3892600091610ff9575b508160011b916000199060031b1c19161790565b90555b60078601600160ff19825416179055426009870155600185528260c086015260405197886020818551610a72818489019e8f613596565b8101600a81520301902081516001600160401b038111610d9d57610a96825461345f565b601f8111610fc7575b506020601f8211600114610f63579080610ace92600091610f5857508160011b916000199060031b1c19161790565b90555b60005b600254811015610f4a57610ae78161342a565b50604051610afd8161020f602082018095613b05565b51902061023d8a610b1e602060405180938282019586918a51928391613596565b51902014610b2e57600101610ad4565b9293949596975050600b610b418361342a565b500190845190600160401b8211610d9d578254828455808310610ecc575b50916000526020600020916000905b828210610db357505050506003610b848261342a565b500182516001600160401b038111610d9d57610ba0825461345f565b601f8111610d60575b506020601f8211600114610cf75781610bfd949392610bdd92600091610cec57508160011b916000199060031b1c19161790565b90555b6007610beb8261342a565b5001805460ff1916600117905561342a565b506009429101555b60005b8351811015610ccf576020610c1d8286613f31565b510151604051610c3d6020828161023d8183019687815193849201613596565b51902061023d604051610c5d6020828c8282019586918a51928391613596565b51902014610c6d57600101610c08565b6000805160206152338339815191529650610c9e91508360019360c0610c968460209998613f31565b510152613f31565b51525b0151610cca60ff6004840154169260405193849342926005810191600160068301920187613fc8565b0390a1005b505050506000805160206152338339815191529250602090610ca1565b90508601518c610a24565b601f1982169083600052806000209160005b818110610d485750918391610bfd96959460019410610d2f575b5050811b019055610be0565b87015160001960f88460031b161c191690558b80610d23565b9192602060018192868b015181550194019201610d09565b610d8d90836000526020600020601f840160051c81019160208510610d93575b601f0160051c0190613f1a565b89610ba9565b9091508190610d80565b634e487b7160e01b600052604160045260246000fd5b80518051906001600160401b038211610d9d57610dd0865461345f565b601f8111610e9a575b50602090601f8311600114610e2d5792610e1383600195946020948796600092610e22575b50508160011b916000199060031b1c19161790565b87555b01940191019092610b6e565b015190503880610dfe565b90601f1983169187600052816000209260005b818110610e825750936020936001969387969383889510610e69575b505050811b018755610e16565b015160001960f88460031b161c19169055388080610e5c565b92936020600181928786015181550195019301610e40565b610ec690876000526020600020601f850160051c81019160208610610d9357601f0160051c0190613f1a565b8d610dd9565b8360005282602060002091820191015b818110610ee95750610b5f565b80610ef66001925461345f565b80610f03575b5001610edc565b601f81118314610f195750600081555b8d610efc565b610f37908260005283601f6020600020920160051c82019101613f1a565b8060005260006020812081835555610f13565b505050909192939450610c05565b90508401518d610a24565b601f1982169083600052806000209160005b818110610faf57509083600194939210610f96575b5050811b019055610ad1565b85015160001960f88460031b161c191690558c80610f8a565b9192602060018192868a015181550194019201610f75565b610ff390836000526020600020601f840160051c81019160208510610d9357601f0160051c0190613f1a565b8b610a9f565b90508501518c610a24565b601f1982169083600052806000209160005b81811061105057509083600194939210611037575b5050811b019055610a3b565b86015160001960f88460031b161c191690558b8061102b565b9192602060018192868b015181550194019201611016565b61109490836000526020600020601f840160051c81019160208510610d9357601f0160051c0190613f1a565b8a610a08565b80518051906001600160401b038211610d9d576110b7865461345f565b601f8111611175575b50602090601f831160011461110857926110f983600195946020948796600092610e225750508160011b916000199060031b1c19161790565b87555b019401910190926109d6565b90601f1983169187600052816000209260005b81811061115d5750936020936001969387969383889510611144575b505050811b0187556110fc565b015160001960f88460031b161c19169055388080611137565b9293602060018192878601518155019501930161111b565b6111a190876000526020600020601f850160051c81019160208610610d9357601f0160051c0190613f1a565b8e6110c0565b8260005281602060002091820191015b8181106111c457506109c1565b806111d16001925461345f565b806111de575b50016111b7565b601f811183146111f45750600081555b8c6111d7565b611212908260005283601f6020600020920160051c82019101613f1a565b80600052600060208120818355556111ee565b611240913d8091833e61123881836134d1565b810190613e80565b8561097e565b6040513d6000823e3d90fd5b60049192506112746000913d8084833e61126c81836134d1565b810190613e5b565b929150610956565b61129191503d806000833e61126c81836134d1565b876108f5565b3461049f57602036600319011261049f576004356001600160401b03811161049f576112c79036906004016136a5565b6003546001546001600160a01b031691600090815b83811061149957506112ed826147a2565b916112f7816147a2565b9361130461018883615200565b92600090815b83811061132257604051806101ac88888c8c85613a60565b6040516395a8c58d60e01b8152336004820152600160248201526000906020816044818e5afa90811561038c57829161147b575b501561145557600661020f61136d6101fb85613a22565b519020604051602081019061138d602082885161023d8187858d01613596565b5190201480611434575b61142c575b6113a9575b60010161130a565b916114246001916113be600261027f87613a22565b6113c8828b613f31565b526113d3818a613f31565b506113e2600361027f87613a22565b6113ec828c613f31565b526113f7818b613f31565b5060ff600461140587613a22565b50015460081c166114168289613f31565b526102ec8361027f87613a22565b9290506113a1565b50600161139c565b5060ff600461144284613a22565b5001541661144f8161378e565b15611397565b60ff600461146284613a22565b5001541661146f8161378e565b61139c5750600161139c565b611493915060203d81116103855761037781836134d1565b8b611356565b6040516395a8c58d60e01b8152336004820152600160248201526000906020816044818a5afa90811561038c578291611583575b501561155d57600661020f6114e46101fb85613a22565b5190206040516020810190611504602082885161023d8187858d01613596565b519020148061153c575b611534575b611520575b6001016112dc565b9161152c6001916151db565b929050611518565b506001611513565b5060ff600461154a84613a22565b500154166115578161378e565b1561150e565b60ff600461156a84613a22565b500154166115778161378e565b61151357506001611513565b61159b915060203d81116103855761037781836134d1565b876114cd565b3461049f57602036600319011261049f5760043560035481101561049f5761083090613a22565b3461049f57602036600319011261049f576004356001600160401b03811161049f576115f89036906004016136a5565b6000806002549260208101925b84811061171c5750611616826147a2565b91611620816147a2565b9361162a82615200565b61163383615200565b9161164061051c856147a2565b94600091825b8a81106116625789896101ac8a8a8a8a604051968796876139b5565b600561020f6116736101fb8461342a565b5190206040516020810190611691602082885161023d81878b613596565b519020146116a2575b600101611646565b926116af6105918561342a565b6116b9828b613f31565b526116c4818a613f31565b506116d3600161027f8661342a565b6116dd828c613f31565b526116e8818b613f31565b5060ff60076116f68661342a565b5001541660038110156106685781611714916105fc60019489613f31565b93905061169a565b600561020f61172d6101fb8461342a565b519020604051602081019061174b602082875161023d81878d613596565b5190201461175c575b600101611605565b916117686001916151db565b929050611754565b3461049f576101ac61178a61178436613894565b906150fd565b6040519182916020835260208301906138de565b3461049f5760e036600319011261049f576004356001600160401b03811161049f576117ce9036906004016136a5565b6024356001600160401b03811161049f576117ed9036906004016136a5565b6044356001600160401b03811161049f5761180c9036906004016136a5565b6064359260ff841680940361049f576084356001600160401b03811161049f5761183a9036906004016136a5565b60a4356001600160a01b03811692919083900361049f5760c4356001600160401b03811161049f576118709036906004016136a5565b91611879613aa8565b600180546040516395a8c58d60e01b815233600482015260248101929092529192916001600160a01b031690602081604481855afa90811561124657600091611b6e575b5015611a7c575090506118ce61476e565b604051916118db83613499565b87835286602084015260408301526040516118f76020826134d1565b6000815260608301528760808301528260a08301528360c0830152600060e083015242610100830152600061012083015260006101408301526101608201525b600254600160401b811015610d9d57806001611956920160025561342a565b919091611a665761196a81611990936148e5565b604051602081816119818b83815193849201613596565b810160058152030190206148e5565b60405160208183516119a58183858801613596565b81016008815203019020908154600160401b811015610d9d577f292bbb6d1836d1c84f14bc8632586c9cdc3b938748d1a94348313ce41a29519997611a2c97611a5b966119fe84611a4d976001611a3f9701815561371d565b819291549060031b91821b9160018060a01b03901b191617905560405198899860c08a5260c08a01906135b9565b91602089015287820360408901526135b9565b9085820360608701526135b9565b9083820360808501526135b9565b4260a08301520390a1005b634e487b7160e01b600052600060045260246000fd5b6040516395a8c58d60e01b81523360048201526003602482015290602090829060449082905afa90811561124657600091611b4f575b50611abe575b50611937565b905060016040516020818451611ad78183858901613596565b8101600681520301902001611b0e611aed61476e565b9160405193611afb85613499565b89855288602086015260408501526134f2565b60608301528760808301528260a08301528360c0830152600060e0830152426101008301526000610120830152600061014083015261016082015287611ab8565b611b68915060203d6020116103855761037781836134d1565b89611ab2565b611b87915060203d6020116103855761037781836134d1565b8a6118bd565b3461049f576101ac61178a611ba136613894565b906147ec565b3461049f57604036600319011261049f576004356001600160401b03811161049f57611bd79036906004016136a5565b6024356001600160401b03811161049f57611bf6903690600401613816565b60405190611c3261020f61091485519460208181890197611c1881838b613596565b810160058152030190206040519283916020830190613b05565b6040516020818551611c45818388613596565b810160058152030190209260078401600260ff1982541617905542600a850155600b84018251600160401b8111610d9d5781548183558082106122b3575b50602084019081926000526020600020916000905b82821061219b575050505060005b60025481101561219157611cb98161342a565b50604051611ccf8161020f602082018095613b05565b5190206040516020810190611cef6020828461023d8c8b51928391613596565b51902014611cff57600101611ca6565b600b9192939450806007611d15611d379361342a565b5001805460ff19166002179055611d2b8161342a565b50600a4291015561342a565b500190835190600160401b8211610d9d578254828455808310612113575b50916000526020600020916000905b828210611ffb57505050505b600180546040516395a8c58d60e01b815233600482015260248101929092526001600160a01b031690602081604481855afa90811561124657600091611fdc575b5015611efc5750611e5490611e45602060ff600487015416604051958694611dd8866134b5565b8552611de6600389016134f2565b83860152611df6600289016134f2565b9160408601928352611e0a60018a016134f2565b60608701526000608087015260a086015260c0850152611e2c600588016134f2565b60e0850152518160405193828580945193849201613596565b8101600681520301902061403c565b60035491600160401b831015610d9d57611e90611eeb92611e8a8560016000805160206152338339815191529701600355613a22565b90614721565b60ff60048201541660405192839260c084526005611edc611ecb611eba60c0880160018601613f45565b878103602089015260038501613f45565b868103604088015260068401613f45565b91858303606087015201613f45565b9060808301524260a08301520390a1005b6040516395a8c58d60e01b81523360048201526003602482015290602090829060449082905afa90811561124657600091611fbd575b50611f52575b5050611eeb60008051602061523383398151915291611e90565b611f8190611f72602060ff600487015416604051958694611dd8866134b5565b8101600781520301902061403c565b60045491600160401b831015610d9d57611fb7611eeb92611e8a8560016000805160206152338339815191529701600455613a41565b91611f38565b611fd6915060203d6020116103855761037781836134d1565b84611f32565b611ff5915060203d6020116103855761037781836134d1565b85611db1565b80518051906001600160401b038211610d9d57612018865461345f565b601f81116120e1575b50602090601f8311600114612074579261205a836001959460209487966000926120695750508160011b916000199060031b1c19161790565b87555b01940191019092611d64565b015190508d80610dfe565b90601f1983169187600052816000209260005b8181106120c957509360209360019693879693838895106120b0575b505050811b01875561205d565b015160001960f88460031b161c191690558c80806120a3565b92936020600181928786015181550195019301612087565b61210d90876000526020600020601f850160051c81019160208610610d9357601f0160051c0190613f1a565b89612021565b8360005282602060002091820191015b8181106121305750611d55565b8061213d6001925461345f565b8061214a575b5001612123565b601f811183146121605750600081555b89612143565b61217e908260005283601f6020600020920160051c82019101613f1a565b806000526000602081208183555561215a565b5050909150611d70565b80518051906001600160401b038211610d9d576121b8865461345f565b601f8111612281575b50602090601f831160011461221457926121fa836001959460209487966000926122095750508160011b916000199060031b1c19161790565b87555b01940191019092611c98565b015190508f80610dfe565b90601f1983169187600052816000209260005b8181106122695750936020936001969387969383889510612250575b505050811b0187556121fd565b015160001960f88460031b161c191690558e8080612243565b92936020600181928786015181550195019301612227565b6122ad90876000526020600020601f850160051c81019160208610610d9357601f0160051c0190613f1a565b8b6121c1565b8260005281602060002091820191015b8181106122d05750611c83565b806122dd6001925461345f565b806122ea575b50016122c3565b601f811183146123005750600081555b896122e3565b61231e908260005283601f6020600020920160051c82019101613f1a565b80600052600060208120818355556122fa565b3461049f57608036600319011261049f576004356001600160401b03811161049f576123619036906004016136a5565b6024356001600160401b03811161049f576123809036906004016136a5565b6044356001600160401b03811161049f5761239f9036906004016136a5565b916064356001600160401b03811161049f5761020f61091460026123e360206123cf6123fe963690600401613816565b988160405193828580945193849201613596565b81016006815203019020016040519283916020830190613b05565b604051916124298151936020818185019661241a81838a613596565b81016006815203019020613c17565b604051602081845161243c81838a613596565b810160058152030190209060018060a01b03600054169560405196632a721ced60e21b88526020600489015260008880612479602482018a6135b9565b0381845afa90811561124657600498600092612e3c575b50600090604051998a809263110037fd60e21b82525afa97881561124657600098612e1f575b50600b8401948251600160401b8111610d9d578654818855808210612da1575b50602084019081976000526020600020916000905b828210612c9457505050506003850187516001600160401b038111610d9d57612514825461345f565b601f8111612c62575b506020601f8211600114612bfc57908061254c92600091612bf157508160011b916000199060031b1c19161790565b90555b60078501600160ff198254161790554260098601558260c08086019382855260016080880152015260005b600254811015612be45761258d8161342a565b506040516125a38161020f602082018095613b05565b51902061023d8a6125c4602060405180938282019586918a51928391613596565b519020146125d45760010161257a565b929394959697505051600b6125e88361342a565b500190805190600160401b8211610d9d578254828455808310612b66575b50602001916000526020600020916000905b828210612a595750505050600361262e8261342a565b500186516001600160401b038111610d9d5761264a825461345f565b601f8111612a27575b506020601f82116001146129bd5781612687949392610bdd926000916129b257508160011b916000199060031b1c19161790565b506009429101559392935b602084019360005b6003548110156129a657600161020f6126b56101fb84613a22565b51902060405160208101906126d56020828461023d8d8a51928391613596565b519020146126e55760010161269a565b90919293949560056126f683613a22565b500190845190600160401b8211610d9d578254828455808310612928575b50916000526020600020916000905b82821061281b5750505050612739600491613a22565b5001805460ff191660011790555b60005b86518110156127fd57602061275f8289613f31565b51015160405161277f6020828161023d8183019687815193849201613596565b519020604051602081019061279f6020828461023d8d8a51928391613596565b519020146127af5760010161274a565b602094955060c091506127d19060008051602061523383398151915297613f31565b5101520151610cca60ff6004840154169260405193849342926005810191600160068301920187613fc8565b50505060008051602061523383398151915293506020919250610ca1565b80518051906001600160401b038211610d9d57612838865461345f565b601f81116128f6575b50602090601f8311600114612889579261287a83600195946020948796600092610e225750508160011b916000199060031b1c19161790565b87555b01940191019092612723565b90601f1983169187600052816000209260005b8181106128de57509360209360019693879693838895106128c5575b505050811b01875561287d565b015160001960f88460031b161c191690553880806128b8565b9293602060018192878601518155019501930161289c565b61292290876000526020600020601f850160051c81019160208610610d9357601f0160051c0190613f1a565b8d612841565b8360005282602060002091820191015b8181106129455750612714565b806129526001925461345f565b8061295f575b5001612938565b601f811183146129755750600081555b8d612958565b612993908260005283601f6020600020920160051c82019101613f1a565b806000526000602081208183555561296f565b50909192939450612747565b90508a01518c610a24565b601f1982169083600052806000209160005b8b828210612a0f575050918391612687969594600194106129f6575050811b019055610be0565b8b015160001960f88460031b161c191690558b80610d23565b600184956020939584930151815501940192016129cf565b612a5390836000526020600020601f840160051c81019160208510610d9357601f0160051c0190613f1a565b89612653565b80518051906001600160401b038211610d9d57612a76865461345f565b601f8111612b34575b50602090601f8311600114612ac75792612ab883600195946020948796600092610e225750508160011b916000199060031b1c19161790565b87555b01940191019092612618565b90601f1983169187600052816000209260005b818110612b1c5750936020936001969387969383889510612b03575b505050811b018755612abb565b015160001960f88460031b161c19169055388080612af6565b92936020600181928786015181550195019301612ada565b612b6090876000526020600020601f850160051c81019160208610610d9357601f0160051c0190613f1a565b8d612a7f565b8360005282602060002091820191015b818110612b835750612606565b80612b906001925461345f565b80612b9d575b5001612b76565b601f81118314612bb35750600081555b8d612b96565b612bd1908260005283601f6020600020920160051c82019101613f1a565b8060005260006020812081835555612bad565b5050509091929450612692565b90508a01518d610a24565b601f1982169083600052806000209160005b8c828210612c4a5750509083600194939210612c31575b5050811b01905561254f565b8b015160001960f88460031b161c191690558c80612c25565b60018495602093958493015181550194019201612c0e565b612c8e90836000526020600020601f840160051c81019160208510610d9357601f0160051c0190613f1a565b8b61251d565b80518051906001600160401b038211610d9d57612cb1865461345f565b601f8111612d6f575b50602090601f8311600114612d025792612cf383600195946020948796600092610e225750508160011b916000199060031b1c19161790565b87555b019401910190926124eb565b90601f1983169187600052816000209260005b818110612d575750936020936001969387969383889510612d3e575b505050811b018755612cf6565b015160001960f88460031b161c19169055388080612d31565b92936020600181928786015181550195019301612d15565b612d9b90876000526020600020601f850160051c81019160208610610d9357601f0160051c0190613f1a565b8f612cba565b8760005281602060002091820191015b818110612dbe57506124d6565b80612dcb6001925461345f565b80612dd8575b5001612db1565b601f81118314612dee5750600081555b8d612dd1565b612e0c908260005283601f6020600020920160051c82019101613f1a565b8060005260006020812081835555612de8565b612e359198503d806000833e61123881836134d1565b96886124b6565b6000919250612e54903d8084833e61126c81836134d1565b9190612490565b3461049f57602036600319011261049f576004356001600160401b03811161049f576020610707612e909236906004016136a5565b8101600681520301902061072d816134f2565b3461049f57602036600319011261049f576004356001600160401b03811161049f57612eed612ede60206107076101ac9436906004016136a5565b8101600a8152030190206134f2565b6040519182916020835260208301906135b9565b3461049f57602036600319011261049f576004356001600160401b03811161049f576020610707612f369236906004016136a5565b81016005815203019020612f49816134f2565b6101ac612f58600184016134f2565b92612f65600282016134f2565b90612f72600382016134f2565b60ff600483015416612f86600584016134f2565b612f92600685016134f2565b9060ff60078601541692600886015494600a6009880154970154976040519b8c9b8c6135eb565b3461049f57602036600319011261049f576004356001600160401b03811161049f57612ede6020612ff161303c9336906004016136a5565b6040519061302b61020f61091483519486818187019761301281838b613596565b8101600a81520301902060405192839188830190613b05565b604051938492839251928391613596565b60405160ff600483519260208181870195613058818389613596565b810160058152030190200154169061308d6005604051602081875161307e818389613596565b810184815203019020016134f2565b926130b6600660405160208185516130a681838a613596565b81016005815203019020016134f2565b9061314d600a613116602060086040518281806130d78c8b51928391613596565b810160058152030190200154966009604051838189516130f8818388613596565b81016005815203019020015495604051938492839251928391613596565b8101600581520301902001549261313f604051978897885260c0602089015260c08801906135b9565b9086820360408801526135b9565b926060850152608084015260a08301520390f35b3461049f57602036600319011261049f576004356001600160401b03811161049f5760206131966131d99236906004016136a5565b61319e613aa8565b506040519061302b61020f6109148351948681818701976131c081838b613596565b8101600581520301902060405192839188830190613b05565b810160058152030190206040516131ef81613499565b6131f8826134f2565b8152613206600183016134f2565b916020820192835261321a600282016134f2565b6040830190815261322d600383016134f2565b916060840192835260ff6004820154169260808501938452613251600583016134f2565b60a08601908152613264600684016134f2565b60c0870190815260ff6007850154169560e0880196600381101561066857875260088501549261010089019384526009860154946101208a01958652600a870154966101408b01978852600b016132ba90613bbf565b976101608b019889526040519b8c9b60208d525160208d0161018090526101a08d016132e5916135b9565b90518c8203601f190160408e01526132fd91906135b9565b90518b8203601f190160608d015261331591906135b9565b90518a8203601f190160808c015261332d91906135b9565b915160ff1660a08a015251888203601f190160c08a015261334e91906135b9565b9051878203601f190160e089015261336691906135b9565b94516101008701613376916135de565b51610120860152516101408501525161016084015251828203601f19016101808401526101ac9190613735565b3461049f5760206133b66107bc366136ec565b81016008815203019020805482101561049f576020916107f09161371d565b3461049f57602036600319011261049f5760043560025481101561049f576133fc9061342a565b50612f49816134f2565b3461049f57600036600319011261049f576001546001600160a01b03168152602090f35b600254811015613449576002600052600c602060002091020190600090565b634e487b7160e01b600052603260045260246000fd5b90600182811c9216801561348f575b602083101461347957565b634e487b7160e01b600052602260045260246000fd5b91607f169161346e565b61018081019081106001600160401b03821117610d9d57604052565b61010081019081106001600160401b03821117610d9d57604052565b90601f801991011681019081106001600160401b03821117610d9d57604052565b90604051918260008254926135068461345f565b8084529360018116908115613574575060011461352d575b5061352b925003836134d1565b565b90506000929192526020600020906000915b81831061355857505090602061352b928201013861351e565b602091935080600191548385890101520191019091849261353f565b90506020925061352b94915060ff191682840152151560051b8201013861351e565b60005b8381106135a95750506000910152565b8181015183820152602001613599565b906020916135d281518092818552858086019101613596565b601f01601f1916010190565b9060038210156106685752565b979b9a9996929560ff61364d61366f9661363f8c6101409e9b6136316136619961362361367a9e9a61016086526101608601906135b9565b9084820360208601526135b9565b9160408184039101526135b9565b8c810360608e0152906135b9565b921660808a015288820360a08a01526135b9565b9086820360c08801526135b9565b9760e08501906135de565b6101008301526101208201520152565b6001600160401b038111610d9d57601f01601f191660200190565b81601f8201121561049f578035906136bc8261368a565b926136ca60405194856134d1565b8284526020838301011161049f57816000926020809301838601378301015290565b604060031982011261049f57600435906001600160401b03821161049f57613716916004016136a5565b9060243590565b80548210156134495760005260206000200190600090565b9080602083519182815201916020808360051b8301019401926000915b83831061376157505050505090565b909192939460208061377f600193601f1986820301875289516135b9565b97019301930191939290613752565b6002111561066857565b93611a3f60ff946137cc6137fc9a9899956137be6137da9660e08b5260e08b01906135b9565b9089820360208b01526135b9565b9087820360408901526135b9565b946137e48161378e565b60808401521660a082015260c08184039101526135b9565b90565b6001600160401b038111610d9d5760051b60200190565b9080601f8301121561049f57813561382d816137ff565b9261383b60405194856134d1565b81845260208085019260051b8201019183831161049f5760208201905b83821061386757505050505090565b81356001600160401b03811161049f57602091613889878480948801016136a5565b815201910190613858565b90604060031983011261049f576004356001600160401b03811161049f57826138bf916004016136a5565b91602435906001600160401b03821161049f576137fc916004016136a5565b6137fc9160e061396d61393b613929613917613905875161010088526101008801906135b9565b602088015187820360208901526135b9565b604087015186820360408801526135b9565b606086015185820360608701526135b9565b60808501516139498161378e565b608085015260ff60a08601511660a085015260c085015184820360c0860152613735565b9201519060e08184039101526135b9565b906020808351928381520192019060005b81811061399c5750505090565b825160ff1684526020938401939092019160010161398f565b9491936139f8613a14946139ea6137fc99976139dc613a069660c08c5260c08c0190613735565b908a820360208c0152613735565b9088820360408a015261397e565b90868203606088015261397e565b908482036080860152613735565b9160a0818403910152613735565b6003548110156134495760036000526007602060002091020190600090565b6004548110156134495760046000526007602060002091020190600090565b92613a8c6137fc9593613a7e613a9a94608088526080880190613735565b908682036020880152613735565b90848203604086015261397e565b916060818403910152613735565b60405190613ab582613499565b6060610160838281528260208201528260408201528280820152600060808201528260a08201528260c0820152600060e08201526000610100820152600061012082015260006101408201520152565b60009291815491613b158361345f565b9260018116908115613b605750600114613b2e57505050565b909192935060005260206000206000905b838210613b4c5750500190565b600181602092548486015201910190613b3f565b60ff191683525050811515909102019150565b15613b7a57565b60405162461bcd60e51b815260206004820152601b60248201527f4e6f206461746120666f756e64207769746820746869732049442e00000000006044820152606490fd5b908154613bcb816137ff565b92613bd960405194856134d1565b818452602084019060005260206000206000915b838310613bfa5750505050565b600160208192613c09856134f2565b815201920192019190613bed565b90604051613c24816134b5565b60e0613ca360068395613c36816134f2565b8552613c44600182016134f2565b6020860152613c55600282016134f2565b6040860152613c66600382016134f2565b606086015260ff6004820154818116613c7e8161378e565b608088015260081c1660a0860152613c9860058201613bbf565b60c0860152016134f2565b910152565b81601f8201121561049f578051613cbe8161368a565b92613ccc60405194856134d1565b8184526020828401011161049f576137fc9160208085019101613596565b919060e08382031261049f5760405160e081018181106001600160401b03821117610d9d5760405280938051600281101561049f57825260208101516001600160401b03811161049f5783613d40918301613ca8565b602083015260408101516001600160401b03811161049f5783613d64918301613ca8565b604083015260608101516001600160401b03811161049f5783613d88918301613ca8565b6060830152608081015160ff8116810361049f57608083015260a08101516001600160401b03811161049f5783613dc0918301613ca8565b60a083015260c0810151906001600160401b03821161049f57019180601f8401121561049f578251613df1816137ff565b93613dff60405195866134d1565b81855260208086019260051b8201019183831161049f5760208201905b838210613e2e57505050505060c00152565b81516001600160401b03811161049f57602091613e5087848094880101613ca8565b815201910190613e1c565b9060208282031261049f5781516001600160401b03811161049f576137fc9201613cea565b60208183031261049f578051906001600160401b03821161049f57019080601f8301121561049f578151613eb3816137ff565b92613ec160405194856134d1565b81845260208085019260051b8201019183831161049f5760208201905b838210613eed57505050505090565b81516001600160401b03811161049f57602091613f0f87848094880101613cea565b815201910190613ede565b818110613f25575050565b60008155600101613f1a565b80518210156134495760209160051b010190565b60009291815491613f558361345f565b8083529260018116908115613fab5750600114613f7157505050565b60009081526020812093945091925b838310613f91575060209250010190565b600181602092949394548385870101520191019190613f80565b915050602093945060ff929192191683830152151560051b010190565b929361400b60a095613ffd60ff95613fef614019969c9b9a9c60c08a5260c08a0190613f45565b9088820360208a01526135b9565b908682036040880152613f45565b908482036060860152613f45565b951660808201520152565b9081602091031261049f5751801515810361049f5790565b9181519283516001600160401b038111610d9d5761405a825461345f565b601f81116146ef575b50602094601f821160011461468a57614097929394958291600092610e225750508160011b916000199060031b1c19161790565b81555b6001810160208401518051906001600160401b038211610d9d576140be835461345f565b601f8111614658575b50602090601f83116001146145f1576140f8929160009183610e225750508160011b916000199060031b1c19161790565b90555b6002810160408401518051906001600160401b038211610d9d5761411f835461345f565b601f81116145bf575b50602090601f831160011461455857614159929160009183610e225750508160011b916000199060031b1c19161790565b90555b6003810160608401518051906001600160401b038211610d9d57614180835461345f565b601f8111614526575b50602090601f83116001146144bf576141ba929160009183610e225750508160011b916000199060031b1c19161790565b90555b6004810160808401516141cf8161378e565b6141d88161378e565b60ff8019835416911617815560a084015161ff0082549160081b169061ff0019161790556005810160c0840151805190600160401b8211610d9d578254828455808310614441575b50602001916000526020600020916000905b8282106143345750505050600660e091019201519182516001600160401b038111610d9d57614261825461345f565b601f8111614302575b506020601f82116001146142a057819061429c939495600092610e225750508160011b916000199060031b1c19161790565b9055565b601f1982169083600052806000209160005b8181106142ea575095836001959697106142d1575b505050811b019055565b015160001960f88460031b161c191690553880806142c7565b9192602060018192868b0151815501940192016142b2565b61432e90836000526020600020601f840160051c81019160208510610d9357601f0160051c0190613f1a565b3861426a565b80518051906001600160401b038211610d9d57614351865461345f565b601f811161440f575b50602090601f83116001146143a2579261439383600195946020948796600092610e225750508160011b916000199060031b1c19161790565b87555b01940191019092614232565b90601f1983169187600052816000209260005b8181106143f757509360209360019693879693838895106143de575b505050811b018755614396565b015160001960f88460031b161c191690553880806143d1565b929360206001819287860151815501950193016143b5565b61443b90876000526020600020601f850160051c81019160208610610d9357601f0160051c0190613f1a565b3861435a565b8360005282602060002091820191015b81811061445e5750614220565b8061446b6001925461345f565b80614478575b5001614451565b601f8111831461448e5750600081555b38614471565b6144ac908260005283601f6020600020920160051c82019101613f1a565b8060005260006020812081835555614488565b90601f1983169184600052816000209260005b81811061450e57509084600195949392106144f5575b505050811b0190556141bd565b015160001960f88460031b161c191690553880806144e8565b929360206001819287860151815501950193016144d2565b61455290846000526020600020601f850160051c81019160208610610d9357601f0160051c0190613f1a565b38614189565b90601f1983169184600052816000209260005b8181106145a7575090846001959493921061458e575b505050811b01905561415c565b015160001960f88460031b161c19169055388080614581565b9293602060018192878601518155019501930161456b565b6145eb90846000526020600020601f850160051c81019160208610610d9357601f0160051c0190613f1a565b38614128565b90601f1983169184600052816000209260005b8181106146405750908460019594939210614627575b505050811b0190556140fb565b015160001960f88460031b161c1916905538808061461a565b92936020600181928786015181550195019301614604565b61468490846000526020600020601f850160051c81019160208610610d9357601f0160051c0190613f1a565b386140c7565b601f1982169583600052806000209160005b8881106146d7575083600195969798106146be575b505050811b01815561409a565b015160001960f88460031b161c191690553880806146b1565b9192602060018192868501518155019401920161469c565b61471b90836000526020600020601f840160051c81019160208510610d9357601f0160051c0190613f1a565b38614063565b9190611a665761352b9161403c565b6040519061473d826134b5565b606060e083828152826020820152826040820152828082015260006080820152600060a08201528260c08201520152565b6040519061477d6020836134d1565b600080835282815b82811061479157505050565b806060602080938501015201614785565b906147ac826137ff565b6147b960405191826134d1565b82815280926147ca601f19916137ff565b019060005b8281106147db57505050565b8060606020809385010152016147cf565b6147f4614730565b506040519161482e61482760028451956020818188019861481681838c613596565b81016006815203019020015461345f565b1515613b73565b6006604051602081855161484381838a613596565b810184815203019020016040516148628161020f602082018095613b05565b519020906040516148836020828161023d8183019687815193849201613596565b519020036148a65760206137fc9261241a92604051938492839251928391613596565b60206148c19261241a92604051938492839251928391613596565b6040516148cf6020826134d1565b6000815281526148dd61476e565b60c082015290565b91909182519283516001600160401b038111610d9d57614905835461345f565b601f81116150cb575b50602094601f821160011461506657614942929394958291600092610e225750508160011b916000199060031b1c19161790565b82555b6001820160208201518051906001600160401b038211610d9d57614969835461345f565b601f8111615034575b50602090601f8311600114614fcd576149a3929160009183610e225750508160011b916000199060031b1c19161790565b90555b6002820160408201518051906001600160401b038211610d9d576149ca835461345f565b601f8111614f9b575b50602090601f8311600114614f3457614a04929160009183610e225750508160011b916000199060031b1c19161790565b90555b6003820160608201518051906001600160401b038211610d9d57614a2b835461345f565b601f8111614f02575b50602090601f8311600114614e9b57614a65929160009183610e225750508160011b916000199060031b1c19161790565b90555b6004820160ff60808301511660ff198254161790556005820160a08201518051906001600160401b038211610d9d57614aa1835461345f565b601f8111614e69575b50602090601f8311600114614e0257614adb929160009183610e225750508160011b916000199060031b1c19161790565b90555b6006820160c08201518051906001600160401b038211610d9d57614b02835461345f565b601f8111614dd0575b50602090601f8311600114614d6957614b3c929160009183610e225750508160011b916000199060031b1c19161790565b90555b60e0810151916007810160038410156106685761016091600b9160009560ff8019835416911617905561010084015160088201556101208401516009820155610140840151600a8201550191015190815191600160401b8311614d55578154838355808410614cdf575b506020019083526020832083915b838310614bc5575050505050565b80518051906001600160401b038211614ccb57614be2845461345f565b601f8111614c9b575b50602090601f8311600114614c325792614c23836001959460209487968c92610e225750508160011b916000199060031b1c19161790565b85555b01920192019190614bb7565b8488528188209190601f198416895b818110614c835750936020936001969387969383889510614c6a575b505050811b018555614c26565b015160001960f88460031b161c19169055388080614c5d565b92936020600181928786015181550195019301614c41565b614cc59085895260208920601f850160051c81019160208610610d9357601f0160051c0190613f1a565b38614beb565b634e487b7160e01b87526041600452602487fd5b828552836020862091820191015b818110614cfa5750614ba9565b80614d076001925461345f565b80614d14575b5001614ced565b601f81118314614d2957508681555b38614d0d565b81885260208820614d4491601f0160051c8101908401613f1a565b808752866020812081835555614d23565b634e487b7160e01b84526041600452602484fd5b90601f1983169184600052816000209260005b818110614db85750908460019594939210614d9f575b505050811b019055614b3f565b015160001960f88460031b161c19169055388080614d92565b92936020600181928786015181550195019301614d7c565b614dfc90846000526020600020601f850160051c81019160208610610d9357601f0160051c0190613f1a565b38614b0b565b90601f1983169184600052816000209260005b818110614e515750908460019594939210614e38575b505050811b019055614ade565b015160001960f88460031b161c19169055388080614e2b565b92936020600181928786015181550195019301614e15565b614e9590846000526020600020601f850160051c81019160208610610d9357601f0160051c0190613f1a565b38614aaa565b90601f1983169184600052816000209260005b818110614eea5750908460019594939210614ed1575b505050811b019055614a68565b015160001960f88460031b161c19169055388080614ec4565b92936020600181928786015181550195019301614eae565b614f2e90846000526020600020601f850160051c81019160208610610d9357601f0160051c0190613f1a565b38614a34565b90601f1983169184600052816000209260005b818110614f835750908460019594939210614f6a575b505050811b019055614a07565b015160001960f88460031b161c19169055388080614f5d565b92936020600181928786015181550195019301614f47565b614fc790846000526020600020601f850160051c81019160208610610d9357601f0160051c0190613f1a565b386149d3565b90601f1983169184600052816000209260005b81811061501c5750908460019594939210615003575b505050811b0190556149a6565b015160001960f88460031b161c19169055388080614ff6565b92936020600181928786015181550195019301614fe0565b61506090846000526020600020601f850160051c81019160208610610d9357601f0160051c0190613f1a565b38614972565b601f1982169584600052806000209160005b8881106150b35750836001959697981061509a575b505050811b018255614945565b015160001960f88460031b161c1916905538808061508d565b91926020600181928685015181550194019201615078565b6150f790846000526020600020601f840160051c81019160208510610d9357601f0160051c0190613f1a565b3861490e565b615105614730565b506040519161513861482760028451956020818188019861512781838c613596565b81016007815203019020015461345f565b6006604051602081855161514d81838a613596565b810160078152030190200160405161516d8161020f602082018095613b05565b5190209060405161518e6020828161023d8183019687815193849201613596565b519020036151c05760206137fc926151b192604051938492839251928391613596565b81016007815203019020613c17565b60206148c1926151b192604051938492839251928391613596565b60001981146151ea5760010190565b634e487b7160e01b600052601160045260246000fd5b9061520a826137ff565b61521760405191826134d1565b8281528092615228601f19916137ff565b019060203691013756fe6185e892b495921d623cf19a02c2565e2522589cc1edae45bc123c650b0def61a264697066735822122069b3481fa0882bd9e5e074685db0caee0a353513abd18f2b0c9697fa65de013864736f6c634300081b0033",
  "linkReferences": {},
  "deployedLinkReferences": {}
}