{
  "_format": "hh-sol-artifact-1",
  "contractName": "OrderManagement",
  "sourceName": "contracts/OrderManagement.sol",
  "abi": [
    {
      "inputs": [
        {
          "internalType": "address",
          "name": "_obatTradisionalAddr",
          "type": "address"
        },
        {
          "internalType": "address",
          "name": "_roleManagerAddr",
          "type": "address"
        }
      ],
      "stateMutability": "nonpayable",
      "type": "constructor"
    },
    {
      "anonymous": false,
      "inputs": [
        {
          "indexed": false,
          "internalType": "string",
          "name": "namaProduk",
          "type": "string"
        },
        {
          "indexed": false,
          "internalType": "uint8",
          "name": "quantity",
          "type": "uint8"
        },
        {
          "indexed": false,
          "internalType": "string",
          "name": "orderId",
          "type": "string"
        },
        {
          "indexed": false,
          "internalType": "string",
          "name": "senderInstanceName",
          "type": "string"
        },
        {
          "indexed": false,
          "internalType": "string",
          "name": "targetInstanceName",
          "type": "string"
        },
        {
          "indexed": false,
          "internalType": "uint256",
          "name": "latestTimestamp",
          "type": "uint256"
        }
      ],
      "name": "evt_obatOrdered",
      "type": "event"
    },
    {
      "anonymous": false,
      "inputs": [
        {
          "indexed": false,
          "internalType": "string",
          "name": "namaProduk",
          "type": "string"
        },
        {
          "indexed": false,
          "internalType": "string",
          "name": "batchName",
          "type": "string"
        },
        {
          "indexed": false,
          "internalType": "string",
          "name": "targetInstance",
          "type": "string"
        },
        {
          "indexed": false,
          "internalType": "string",
          "name": "senderInstance",
          "type": "string"
        },
        {
          "indexed": false,
          "internalType": "uint8",
          "name": "quantity",
          "type": "uint8"
        },
        {
          "indexed": false,
          "internalType": "uint256",
          "name": "latestTimestamp",
          "type": "uint256"
        }
      ],
      "name": "evt_updateOrder",
      "type": "event"
    },
    {
      "inputs": [
        {
          "internalType": "string",
          "name": "_batchName",
          "type": "string"
        },
        {
          "internalType": "string",
          "name": "_orderId",
          "type": "string"
        },
        {
          "internalType": "string[]",
          "name": "_obatIpfsHash",
          "type": "string[]"
        }
      ],
      "name": "acceptOrderFactory",
      "outputs": [],
      "stateMutability": "nonpayable",
      "type": "function"
    },
    {
      "inputs": [
        {
          "internalType": "string",
          "name": "_batchName",
          "type": "string"
        },
        {
          "internalType": "string",
          "name": "_orderId",
          "type": "string"
        },
        {
          "internalType": "string",
          "name": "_obatId",
          "type": "string"
        },
        {
          "internalType": "string[]",
          "name": "_obatIpfsHash",
          "type": "string[]"
        }
      ],
      "name": "acceptOrderPbf",
      "outputs": [],
      "stateMutability": "nonpayable",
      "type": "function"
    },
    {
      "inputs": [
        {
          "internalType": "uint256",
          "name": "",
          "type": "uint256"
        }
      ],
      "name": "allObatPbf",
      "outputs": [
        {
          "internalType": "string",
          "name": "orderId",
          "type": "string"
        },
        {
          "internalType": "string",
          "name": "batchName",
          "type": "string"
        },
        {
          "internalType": "string",
          "name": "obatIdProduk",
          "type": "string"
        },
        {
          "internalType": "string",
          "name": "namaProduk",
          "type": "string"
        },
        {
          "internalType": "enum OrderManagement.en_obatAvailability",
          "name": "statusStok",
          "type": "uint8"
        },
        {
          "internalType": "uint8",
          "name": "obatQuantity",
          "type": "uint8"
        },
        {
          "internalType": "string",
          "name": "ownerInstanceName",
          "type": "string"
        }
      ],
      "stateMutability": "view",
      "type": "function"
    },
    {
      "inputs": [
        {
          "internalType": "uint256",
          "name": "",
          "type": "uint256"
        }
      ],
      "name": "allObatRetailer",
      "outputs": [
        {
          "internalType": "string",
          "name": "orderId",
          "type": "string"
        },
        {
          "internalType": "string",
          "name": "batchName",
          "type": "string"
        },
        {
          "internalType": "string",
          "name": "obatIdProduk",
          "type": "string"
        },
        {
          "internalType": "string",
          "name": "namaProduk",
          "type": "string"
        },
        {
          "internalType": "enum OrderManagement.en_obatAvailability",
          "name": "statusStok",
          "type": "uint8"
        },
        {
          "internalType": "uint8",
          "name": "obatQuantity",
          "type": "uint8"
        },
        {
          "internalType": "string",
          "name": "ownerInstanceName",
          "type": "string"
        }
      ],
      "stateMutability": "view",
      "type": "function"
    },
    {
      "inputs": [
        {
          "internalType": "uint256",
          "name": "",
          "type": "uint256"
        }
      ],
      "name": "allOrderedObat",
      "outputs": [
        {
          "internalType": "string",
          "name": "orderId",
          "type": "string"
        },
        {
          "internalType": "string",
          "name": "namaProduk",
          "type": "string"
        },
        {
          "internalType": "string",
          "name": "obatIdProduk",
          "type": "string"
        },
        {
          "internalType": "string",
          "name": "batchName",
          "type": "string"
        },
        {
          "internalType": "uint8",
          "name": "orderQuantity",
          "type": "uint8"
        },
        {
          "internalType": "string",
          "name": "senderInstanceName",
          "type": "string"
        },
        {
          "internalType": "string",
          "name": "targetInstanceName",
          "type": "string"
        },
        {
          "internalType": "enum OrderManagement.en_orderStatus",
          "name": "statusOrder",
          "type": "uint8"
        },
        {
          "internalType": "uint256",
          "name": "timestampOrder",
          "type": "uint256"
        },
        {
          "internalType": "uint256",
          "name": "timestampShipped",
          "type": "uint256"
        },
        {
          "internalType": "uint256",
          "name": "timestampComplete",
          "type": "uint256"
        }
      ],
      "stateMutability": "view",
      "type": "function"
    },
    {
      "inputs": [
        {
          "internalType": "string",
          "name": "_orderId",
          "type": "string"
        },
        {
          "internalType": "string[]",
          "name": "_obatIpfsHash",
          "type": "string[]"
        }
      ],
      "name": "completeOrder",
      "outputs": [],
      "stateMutability": "nonpayable",
      "type": "function"
    },
    {
      "inputs": [
        {
          "internalType": "string",
          "name": "_obatIdProduk",
          "type": "string"
        },
        {
          "internalType": "string",
          "name": "_orderId",
          "type": "string"
        },
        {
          "internalType": "string",
          "name": "_namaProduk",
          "type": "string"
        },
        {
          "internalType": "uint8",
          "name": "_orderQuantity",
          "type": "uint8"
        },
        {
          "internalType": "string",
          "name": "_senderInstanceName",
          "type": "string"
        },
        {
          "internalType": "address",
          "name": "_senderInstanceAddr",
          "type": "address"
        },
        {
          "internalType": "string",
          "name": "_targetInstanceName",
          "type": "string"
        }
      ],
      "name": "createOrder",
      "outputs": [],
      "stateMutability": "nonpayable",
      "type": "function"
    },
    {
      "inputs": [
        {
          "internalType": "string",
          "name": "_orderId",
          "type": "string"
        }
      ],
      "name": "getDetailOrderedObat",
      "outputs": [
        {
          "components": [
            {
              "internalType": "string",
              "name": "orderId",
              "type": "string"
            },
            {
              "internalType": "string",
              "name": "namaProduk",
              "type": "string"
            },
            {
              "internalType": "string",
              "name": "obatIdProduk",
              "type": "string"
            },
            {
              "internalType": "string",
              "name": "batchName",
              "type": "string"
            },
            {
              "internalType": "uint8",
              "name": "orderQuantity",
              "type": "uint8"
            },
            {
              "internalType": "string",
              "name": "senderInstanceName",
              "type": "string"
            },
            {
              "internalType": "string",
              "name": "targetInstanceName",
              "type": "string"
            },
            {
              "internalType": "enum OrderManagement.en_orderStatus",
              "name": "statusOrder",
              "type": "uint8"
            },
            {
              "internalType": "uint256",
              "name": "timestampOrder",
              "type": "uint256"
            },
            {
              "internalType": "uint256",
              "name": "timestampShipped",
              "type": "uint256"
            },
            {
              "internalType": "uint256",
              "name": "timestampComplete",
              "type": "uint256"
            },
            {
              "internalType": "string[]",
              "name": "orderObatIpfsHash",
              "type": "string[]"
            }
          ],
          "internalType": "struct OrderManagement.st_orderObat",
          "name": "",
          "type": "tuple"
        }
      ],
      "stateMutability": "view",
      "type": "function"
    },
    {
      "inputs": [
        {
          "internalType": "string",
          "name": "_obatId",
          "type": "string"
        },
        {
          "internalType": "string",
          "name": "_userInstanceName",
          "type": "string"
        }
      ],
      "name": "getDetailPbfObat",
      "outputs": [
        {
          "components": [
            {
              "internalType": "string",
              "name": "orderId",
              "type": "string"
            },
            {
              "internalType": "string",
              "name": "batchName",
              "type": "string"
            },
            {
              "internalType": "string",
              "name": "obatIdProduk",
              "type": "string"
            },
            {
              "internalType": "string",
              "name": "namaProduk",
              "type": "string"
            },
            {
              "internalType": "enum OrderManagement.en_obatAvailability",
              "name": "statusStok",
              "type": "uint8"
            },
            {
              "internalType": "uint8",
              "name": "obatQuantity",
              "type": "uint8"
            },
            {
              "internalType": "string[]",
              "name": "obatIpfsHash",
              "type": "string[]"
            },
            {
              "internalType": "string",
              "name": "ownerInstanceName",
              "type": "string"
            }
          ],
          "internalType": "struct OrderManagement.st_obatPbf",
          "name": "",
          "type": "tuple"
        }
      ],
      "stateMutability": "view",
      "type": "function"
    },
    {
      "inputs": [
        {
          "internalType": "string",
          "name": "_obatId",
          "type": "string"
        },
        {
          "internalType": "string",
          "name": "_userInstanceName",
          "type": "string"
        }
      ],
      "name": "getDetailRetailerObat",
      "outputs": [
        {
          "components": [
            {
              "internalType": "string",
              "name": "orderId",
              "type": "string"
            },
            {
              "internalType": "string",
              "name": "batchName",
              "type": "string"
            },
            {
              "internalType": "string",
              "name": "obatIdProduk",
              "type": "string"
            },
            {
              "internalType": "string",
              "name": "namaProduk",
              "type": "string"
            },
            {
              "internalType": "enum OrderManagement.en_obatAvailability",
              "name": "statusStok",
              "type": "uint8"
            },
            {
              "internalType": "uint8",
              "name": "obatQuantity",
              "type": "uint8"
            },
            {
              "internalType": "string[]",
              "name": "obatIpfsHash",
              "type": "string[]"
            },
            {
              "internalType": "string",
              "name": "ownerInstanceName",
              "type": "string"
            }
          ],
          "internalType": "struct OrderManagement.st_obatRetailer",
          "name": "",
          "type": "tuple"
        }
      ],
      "stateMutability": "view",
      "type": "function"
    },
    {
      "inputs": [
        {
          "internalType": "string",
          "name": "_batchName",
          "type": "string"
        }
      ],
      "name": "getHistoryOrderObatPbf",
      "outputs": [
        {
          "internalType": "uint256",
          "name": "orderQuantity",
          "type": "uint256"
        },
        {
          "internalType": "string",
          "name": "senderInstanceName",
          "type": "string"
        },
        {
          "internalType": "string",
          "name": "targetInstanceName",
          "type": "string"
        },
        {
          "internalType": "uint256",
          "name": "timestampOrder",
          "type": "uint256"
        },
        {
          "internalType": "uint256",
          "name": "timestampShipped",
          "type": "uint256"
        },
        {
          "internalType": "uint256",
          "name": "timestampComplete",
          "type": "uint256"
        }
      ],
      "stateMutability": "view",
      "type": "function"
    },
    {
      "inputs": [
        {
          "internalType": "string",
          "name": "_senderInstanceName",
          "type": "string"
        }
      ],
      "name": "getListAllOrderedObatFromSender",
      "outputs": [
        {
          "internalType": "string[]",
          "name": "orderIdArray",
          "type": "string[]"
        },
        {
          "internalType": "string[]",
          "name": "namaProdukArray",
          "type": "string[]"
        },
        {
          "internalType": "uint8[]",
          "name": "statusOrderArray",
          "type": "uint8[]"
        },
        {
          "internalType": "uint8[]",
          "name": "obatQuantityArray",
          "type": "uint8[]"
        },
        {
          "internalType": "string[]",
          "name": "obatIdProdukArray",
          "type": "string[]"
        },
        {
          "internalType": "string[]",
          "name": "batchNameArray",
          "type": "string[]"
        }
      ],
      "stateMutability": "view",
      "type": "function"
    },
    {
      "inputs": [
        {
          "internalType": "string",
          "name": "_targetInstanceName",
          "type": "string"
        }
      ],
      "name": "getListAllOrderedObatFromTarget",
      "outputs": [
        {
          "internalType": "string[]",
          "name": "orderIdArray",
          "type": "string[]"
        },
        {
          "internalType": "string[]",
          "name": "namaProdukArray",
          "type": "string[]"
        },
        {
          "internalType": "uint8[]",
          "name": "statusOrderArray",
          "type": "uint8[]"
        },
        {
          "internalType": "uint8[]",
          "name": "obatQuantityArray",
          "type": "uint8[]"
        },
        {
          "internalType": "string[]",
          "name": "obatIdProdukArray",
          "type": "string[]"
        },
        {
          "internalType": "string[]",
          "name": "batchNameArray",
          "type": "string[]"
        }
      ],
      "stateMutability": "view",
      "type": "function"
    },
    {
      "inputs": [
        {
          "internalType": "string",
          "name": "_instanceName",
          "type": "string"
        }
      ],
      "name": "getListAllReadyObatPbf",
      "outputs": [
        {
          "internalType": "string[]",
          "name": "obatIdProduk",
          "type": "string[]"
        },
        {
          "internalType": "string[]",
          "name": "namaProduk",
          "type": "string[]"
        },
        {
          "internalType": "uint8[]",
          "name": "obatQuantity",
          "type": "uint8[]"
        },
        {
          "internalType": "string[]",
          "name": "batchName",
          "type": "string[]"
        }
      ],
      "stateMutability": "view",
      "type": "function"
    },
    {
      "inputs": [
        {
          "internalType": "string",
          "name": "_instanceName",
          "type": "string"
        }
      ],
      "name": "getListAllReadyObatRetailer",
      "outputs": [
        {
          "internalType": "string[]",
          "name": "obatIdProduk",
          "type": "string[]"
        },
        {
          "internalType": "string[]",
          "name": "namaProduk",
          "type": "string[]"
        },
        {
          "internalType": "uint8[]",
          "name": "obatQuantity",
          "type": "uint8[]"
        },
        {
          "internalType": "string[]",
          "name": "batchName",
          "type": "string[]"
        }
      ],
      "stateMutability": "view",
      "type": "function"
    },
    {
      "inputs": [
        {
          "internalType": "string",
          "name": "",
          "type": "string"
        }
      ],
      "name": "obatPbfByIdProduk",
      "outputs": [
        {
          "internalType": "string",
          "name": "orderId",
          "type": "string"
        },
        {
          "internalType": "string",
          "name": "batchName",
          "type": "string"
        },
        {
          "internalType": "string",
          "name": "obatIdProduk",
          "type": "string"
        },
        {
          "internalType": "string",
          "name": "namaProduk",
          "type": "string"
        },
        {
          "internalType": "enum OrderManagement.en_obatAvailability",
          "name": "statusStok",
          "type": "uint8"
        },
        {
          "internalType": "uint8",
          "name": "obatQuantity",
          "type": "uint8"
        },
        {
          "internalType": "string",
          "name": "ownerInstanceName",
          "type": "string"
        }
      ],
      "stateMutability": "view",
      "type": "function"
    },
    {
      "inputs": [
        {
          "internalType": "string",
          "name": "",
          "type": "string"
        }
      ],
      "name": "obatRetailerByIdProduk",
      "outputs": [
        {
          "internalType": "string",
          "name": "orderId",
          "type": "string"
        },
        {
          "internalType": "string",
          "name": "batchName",
          "type": "string"
        },
        {
          "internalType": "string",
          "name": "obatIdProduk",
          "type": "string"
        },
        {
          "internalType": "string",
          "name": "namaProduk",
          "type": "string"
        },
        {
          "internalType": "enum OrderManagement.en_obatAvailability",
          "name": "statusStok",
          "type": "uint8"
        },
        {
          "internalType": "uint8",
          "name": "obatQuantity",
          "type": "uint8"
        },
        {
          "internalType": "string",
          "name": "ownerInstanceName",
          "type": "string"
        }
      ],
      "stateMutability": "view",
      "type": "function"
    },
    {
      "inputs": [],
      "name": "obatTradisional",
      "outputs": [
        {
          "internalType": "contract ObatTradisional",
          "name": "",
          "type": "address"
        }
      ],
      "stateMutability": "view",
      "type": "function"
    },
    {
      "inputs": [
        {
          "internalType": "string",
          "name": "",
          "type": "string"
        }
      ],
      "name": "orderHistoryPbfByBatchName",
      "outputs": [
        {
          "internalType": "string",
          "name": "",
          "type": "string"
        }
      ],
      "stateMutability": "view",
      "type": "function"
    },
    {
      "inputs": [
        {
          "internalType": "string",
          "name": "",
          "type": "string"
        }
      ],
      "name": "orderObatById",
      "outputs": [
        {
          "internalType": "string",
          "name": "orderId",
          "type": "string"
        },
        {
          "internalType": "string",
          "name": "namaProduk",
          "type": "string"
        },
        {
          "internalType": "string",
          "name": "obatIdProduk",
          "type": "string"
        },
        {
          "internalType": "string",
          "name": "batchName",
          "type": "string"
        },
        {
          "internalType": "uint8",
          "name": "orderQuantity",
          "type": "uint8"
        },
        {
          "internalType": "string",
          "name": "senderInstanceName",
          "type": "string"
        },
        {
          "internalType": "string",
          "name": "targetInstanceName",
          "type": "string"
        },
        {
          "internalType": "enum OrderManagement.en_orderStatus",
          "name": "statusOrder",
          "type": "uint8"
        },
        {
          "internalType": "uint256",
          "name": "timestampOrder",
          "type": "uint256"
        },
        {
          "internalType": "uint256",
          "name": "timestampShipped",
          "type": "uint256"
        },
        {
          "internalType": "uint256",
          "name": "timestampComplete",
          "type": "uint256"
        }
      ],
      "stateMutability": "view",
      "type": "function"
    },
    {
      "inputs": [
        {
          "internalType": "string",
          "name": "",
          "type": "string"
        },
        {
          "internalType": "uint256",
          "name": "",
          "type": "uint256"
        }
      ],
      "name": "orderRetailerInstanceAddress",
      "outputs": [
        {
          "internalType": "address",
          "name": "",
          "type": "address"
        }
      ],
      "stateMutability": "view",
      "type": "function"
    },
    {
      "inputs": [
        {
          "internalType": "string",
          "name": "",
          "type": "string"
        },
        {
          "internalType": "uint256",
          "name": "",
          "type": "uint256"
        }
      ],
      "name": "orderSenderInstanceAddress",
      "outputs": [
        {
          "internalType": "address",
          "name": "",
          "type": "address"
        }
      ],
      "stateMutability": "view",
      "type": "function"
    },
    {
      "inputs": [],
      "name": "roleManager",
      "outputs": [
        {
          "internalType": "contract RoleManager",
          "name": "",
          "type": "address"
        }
      ],
      "stateMutability": "view",
      "type": "function"
    }
  ],
  "bytecode": "0x608034608d57601f614f6238819003918201601f19168301916001600160401b038311848410176092578084926040948552833981010312608d5760418160a8565b906001600160a01b039060559060200160a8565b1660018060a01b0319600154161760015560018060a01b031660018060a01b03196000541617600055604051614ea690816100bc8239f35b600080fd5b634e487b7160e01b600052604160045260246000fd5b51906001600160a01b0382168203608d5756fe608080604052600436101561001357600080fd5b600090813560e01c908162435da51461324b575080630a04f9c8146132195780630e59a675146131e45780634e09fdbc14612f8a57806376ca2b0414612de157806386f5cea614612d2857806388fadd8114612cc95780638eaca41d14612c805780639836ccb7146122655780639aa3405014611a965780639cf8b57e14611a7b578063aefb977d14611670578063b1199d1b14611641578063c2d48dca1461149a578063d4af682314611472578063d5e30e521461116c578063dbac3f8f14610838578063dfb4936414610806578063e7ca3787146107a3578063ea020d591461077c578063ed7212cd146106cd578063ef470b55146104bb5763ffef1f621461011d57600080fd5b346104b85760203660031901126104b8576004356001600160401b0381116104b65761014d9036906004016134fc565b6004546001546001600160a01b03169290919080805b8481106103ad5750610174816143d4565b9261017e826143d4565b9561019161018b84614e0a565b936143d4565b938092815b8881106101b257604051806101ae89898e8d856138db565b0390f35b6040516395a8c58d60e01b8152336004820152600360248201528390602081604481895afa9081156103a2578591610374575b501561034e57600661021061021e6101fc856138bc565b506040519283916020830195869101613980565b03601f19810183528261332d565b519020604051602081019061024f602082885161023e8187858d016133f2565b81010301601f19810183528261332d565b5190201480610319575b610311575b61026b575b600101610196565b936103096001916102876002610280896138bc565b500161334e565b610291828c614e3c565b5261029c818b614e3c565b508b6102b6826102b060036102808c6138bc565b92614e3c565b526102c1818d614e3c565b5060ff60046102cf896138bc565b50015460081c166102e0828a614e3c565b526102ee83610280896138bc565b6102f8828b614e3c565b52610303818a614e3c565b50614de5565b949050610263565b50600161025e565b5060ff6004610327846138bc565b50015416600281101561033a5715610259565b634e487b7160e01b85526021600452602485fd5b60ff600461035b846138bc565b50015416600281101561033a5761025e5750600161025e565b610395915060203d811161039b575b61038d818361332d565b810190613c43565b386101e5565b503d610383565b6040513d87823e3d90fd5b6040516395a8c58d60e01b81523360048201526003602482015283906020816044818b5afa9081156103a2578591610498575b50156104725760066102106103f76101fc856138bc565b51902060405160208101906104196020828161023e8c878151938492016133f2565b5190201480610451575b610449575b610435575b600101610163565b90610441600191614de5565b91905061042d565b506001610428565b5060ff600461045f846138bc565b50015416600281101561033a5715610423565b60ff600461047f846138bc565b50015416600281101561033a5761042857506001610428565b6104b0915060203d811161039b5761038d818361332d565b386103e0565b505b80fd5b50346104b85760203660031901126104b8576004356001600160401b0381116104b6576104ec9036906004016134fc565b600254602082019290919080805b848110610677575061050b826143d4565b93610515836143d4565b9561051f84614e0a565b9161052985614e0a565b9361053c610536876143d4565b966143d4565b968193825b84811061055d578b8b6101ae8c8c8c8c60405196879687613830565b600661021061056e6101fc84613270565b519020604051602081019061058c602082885161023e81878b6133f2565b5190201461059d575b600101610541565b946105b06105aa87613270565b5061334e565b6105ba828d614e3c565b526105c5818c614e3c565b508b6105d9826102b060016102808b613270565b526105e4818d614e3c565b5060ff60076105f288613270565b50015416600381101561033a578161066f916106106001948b614e3c565b5260ff600461061e8a613270565b5001541661062c828c614e3c565b5261063b60026102808a613270565b610645828d614e3c565b52610650818c614e3c565b508b610664826102b060036102808d613270565b52610303818d614e3c565b959050610595565b60066102106106886101fc84613270565b51902060405160208101906106a86020828461023e8d8c519283916133f2565b519020146106b9575b6001016104fa565b916106c5600191614de5565b9290506106b1565b50346104b85760203660031901126104b857600435906001600160401b0382116104b857610716602061070336600486016134fc565b81604051938285809451938492016133f2565b810160078152030190206107298161334e565b6101ae6107386001840161334e565b916107456002850161334e565b936107526003820161334e565b9161076460066004840154930161334e565b9260405196879660ff808660081c1695169388613606565b50346104b857806003193601126104b857546040516001600160a01b039091168152602090f35b50346104b8576020906107cd6107b836613557565b939081604051938285809451938492016133f2565b810160098152030190209081548310156104b85760206107ed8484613588565b905460405160039290921b1c6001600160a01b03168152f35b50346104b85760203660031901126104b8576004356004548110156104b65761082e906138bc565b506107298161334e565b50346104b85760603660031901126104b8576004356001600160401b0381116104b6576108699036906004016134fc565b6024356001600160401b038111610bf3576108889036906004016134fc565b6044356001600160401b038111610c02576108a7903690600401613692565b91604051926108ee6102106108e660028760208189516108cb81848d019d8e6133f2565b81016005815203019020016040519283916020830190613980565b5115156139ee565b604051602081855161090181838a6133f2565b8101600581520301902091600b83018251600160401b8111610cb45781548183558082106110f2575b5060208401809289526020892089915b838310610fd55750505050600384019482516001600160401b038111610e6b5761096487546132a5565b601f8111610fa5575b506020601f8211600114610f4557908061099c928b91610f3a575b508160011b916000199060031b1c19161790565b86555b60078501600160ff1982541617905542600986015560405160208185516109c98183858a016133f2565b8101600a81520301902081516001600160401b038111610f26576109ed82546132a5565b601f8111610ef6575b506020601f8211600114610e96579080610a24928c91610e8b57508160011b916000199060031b1c19161790565b90555b875b88600254821015610e7f5750610a3e81613270565b50604051610a5481610210602082018095613980565b51902061023e604051610a746020828d8282019586918a519283916133f2565b51902014610a8457600101610a29565b92939495965050600b610a9683613270565b5001845191600160401b8311610e6b578154838355808410610df1575b509088526020882088915b838310610cc857505050506003610ad482613270565b500182516001600160401b038111610cb457908794939291610af682546132a5565b601f8111610c79575b506020601f8211600114610c115781610b52949392610b32928991610c0657508160011b916000199060031b1c19161790565b90555b6007610b4082613270565b5001805460ff19166001179055613270565b506009429101555b82546001600160a01b031691823b15610c0257610b909284928360405180968195829463c8673f4b60e01b845260048401613b3f565b03925af18015610bf757610bde575b5050600080516020614e5183398151915291610bd860ff6004840154169260405193849342926005810191600160068301920187613be7565b0390a180f35b81610be89161332d565b610bf3578238610b9f565b8280fd5b6040513d84823e3d90fd5b8380fd5b905086015138610988565b82875280872090601f198316885b818110610c5e5750918391610b5296959460019410610c45575b5050811b019055610b35565b87015160001960f88460031b161c191690553880610c39565b8288015184558c995060019093019260209283019201610c1f565b610ca49083885260208820601f840160051c81019160208510610caa575b601f0160051c0190613b28565b38610aff565b9091508190610c97565b634e487b7160e01b88526041600452602488fd5b80518051906001600160401b038211610ddd578b610ce685546132a5565b601f8111610dad575b50506020908c601f8411600114610d44578360019592946020948796610d2a9492610d39575b50508160011b916000199060031b1c19161790565b85555b01920192019190610abe565b015190503880610d15565b9190601f198416868452828420935b818110610d955750936020936001969387969383889510610d7c575b505050811b018555610d2d565b015160001960f88460031b161c19169055388080610d6f565b92936020600181928786015181550195019301610d53565b60208287610dd6945220601f850160051c81019160208610610caa57601f0160051c0190613b28565b8b38610cef565b634e487b7160e01b8c52604160045260248cfd5b828a528360208b2091820191015b818110610e0c5750610ab3565b808b610e1a600193546132a5565b80610e28575b505001610dff565b601f81118414610e3f5750508b81555b8b38610e20565b83601f60208486610e5a965220920160051c82019101613b28565b808c528b6020812081835555610e38565b634e487b7160e01b89526041600452602489fd5b95969750505050610b5a565b905084015138610988565b828b52808b2090601f1983168c5b818110610ede57509083600194939210610ec5575b5050811b019055610a27565b85015160001960f88460031b161c191690553880610eb9565b9192602060018192868a015181550194019201610ea4565b610f2090838c5260208c20601f840160051c81019160208510610caa57601f0160051c0190613b28565b386109f6565b634e487b7160e01b8a52604160045260248afd5b905085015138610988565b878a52808a2090601f1983168b5b818110610f8d57509083600194939210610f74575b5050811b01865561099f565b86015160001960f88460031b161c191690553880610f68565b9192602060018192868b015181550194019201610f53565b610fcf90888b5260208b20601f840160051c81019160208510610caa57601f0160051c0190613b28565b3861096d565b80518051906001600160401b0382116110de578c610ff385546132a5565b601f81116110ae575b50506020908d601f84116001146110455783600195929460209487966110369492610d395750508160011b916000199060031b1c19161790565b85555b0192019201919061093a565b9190601f198416868452828420935b818110611096575093602093600196938796938388951061107d575b505050811b018555611039565b015160001960f88460031b161c19169055388080611070565b92936020600181928786015181550195019301611054565b602082876110d7945220601f850160051c81019160208610610caa57601f0160051c0190613b28565b8c38610ffc565b634e487b7160e01b8d52604160045260248dfd5b8289528160208a2091820191015b81811061110d575061092a565b808a61111b600193546132a5565b80611129575b505001611100565b601f811184146111405750508a81555b8a38611121565b83601f6020848661115b965220920160051c82019101613b28565b808b528a6020812081835555611139565b50346104b85760203660031901126104b8576004356001600160401b0381116104b65761119d9036906004016134fc565b6003546001546001600160a01b03169290919080805b84811061136957506111c4816143d4565b926111ce826143d4565b956111db61018b84614e0a565b938092815b8881106111f857604051806101ae89898e8d856138db565b6040516395a8c58d60e01b8152336004820152600160248201528390602081604481895afa9081156103a257859161134b575b50156113255760066102106112426101fc8561389d565b5190206040516020810190611262602082885161023e8187858d016133f2565b5190201480611304575b6112fc575b61127e575b6001016111e0565b936112f460019161129360026102808961389d565b61129d828c614e3c565b526112a8818b614e3c565b508b6112bc826102b060036102808c61389d565b526112c7818d614e3c565b5060ff60046112d58961389d565b50015460081c166112e6828a614e3c565b526102ee836102808961389d565b949050611276565b506001611271565b5060ff60046113128461389d565b50015416600281101561033a571561126c565b60ff60046113328461389d565b50015416600281101561033a5761127157506001611271565b611363915060203d811161039b5761038d818361332d565b3861122b565b6040516395a8c58d60e01b81523360048201526001602482015283906020816044818b5afa9081156103a2578591611454575b501561142e5760066102106113b36101fc8561389d565b51902060405160208101906113d56020828161023e8c878151938492016133f2565b519020148061140d575b611405575b6113f1575b6001016111b3565b906113fd600191614de5565b9190506113e9565b5060016113e4565b5060ff600461141b8461389d565b50015416600281101561033a57156113df565b60ff600461143b8461389d565b50015416600281101561033a576113e4575060016113e4565b61146c915060203d811161039b5761038d818361332d565b3861139c565b50346104b85760203660031901126104b8576004356003548110156104b65761082e9061389d565b50346104b85760203660031901126104b8576004356001600160401b0381116104b6576114cb9036906004016134fc565b600254602082019290919080805b8481106115eb57506114ea826143d4565b936114f4836143d4565b956114fe84614e0a565b9161150885614e0a565b93611515610536876143d4565b968193825b848110611536578b8b6101ae8c8c8c8c60405196879687613830565b60056102106115476101fc84613270565b5190206040516020810190611565602082885161023e81878b6133f2565b51902014611576575b60010161151a565b946115836105aa87613270565b61158d828d614e3c565b52611598818c614e3c565b508b6115ac826102b060016102808b613270565b526115b7818d614e3c565b5060ff60076115c588613270565b50015416600381101561033a57816115e3916106106001948b614e3c565b95905061156e565b60056102106115fc6101fc84613270565b519020604051602081019061161c6020828461023e8d8c519283916133f2565b5190201461162d575b6001016114d9565b91611639600191614de5565b929050611625565b50346104b8576101ae61165c61165636613710565b90614d07565b60405191829160208352602083019061375a565b50346104b85760e03660031901126104b8576004356001600160401b0381116104b6576116a19036906004016134fc565b6024356001600160401b038111610bf3576116c09036906004016134fc565b906044356001600160401b038111610c02576116e09036906004016134fc565b9160643560ff8116809103611a77576084356001600160401b038111611a735761170e9036906004016134fc565b9160a4356001600160a01b03811690819003611a6f5760c4356001600160401b038111611a6b576117439036906004016134fc565b9461174c613923565b600180546040516395a8c58d60e01b815233600482015260248101929092529192916001600160a01b031690602081604481855afa908115611a60578b91611a41575b5015611948575090506117a06143a0565b604051916117ad836132df565b84835288602084015260408301526040516117c960208261332d565b89815260608301528460808301528560a08301528660c08301528860e08301524261010083015288610120830152886101408301526101608201525b600254600160401b811015610e6b578060016118249201600255613270565b61193457906118368161185a93614517565b604051602081865161184b8183858b016133f2565b81016005815203019020614517565b604051602081865161186f8183858b016133f2565b81016008815203019020805490600160401b821015610e6b57611928946118f9979461191a946118cb8561190c9560017f292bbb6d1836d1c84f14bc8632586c9cdc3b938748d1a94348313ce41a2951999e9c98018155613588565b819291549060031b91821b9160018060a01b03901b191617905560405198899860c08a5260c08a0190613415565b9160208901528782036040890152613415565b908582036060870152613415565b908382036080850152613415565b4260a08301520390a180f35b634e487b7160e01b89526004899052602489fd5b6040516395a8c58d60e01b81523360048201526003602482015290602090829060449082905afa908115611a36578a91611a17575b50611989575b50611805565b9050600160405160208184516119a281838589016133f2565b81016006815203019020016119d96119b86143a0565b91604051936119c6856132df565b8685528a6020860152604085015261334e565b60608301528460808301528560a08301528660c08301528860e083015242610100830152886101208301528861014083015261016082015238611983565b611a30915060203d60201161039b5761038d818361332d565b3861197d565b6040513d8c823e3d90fd5b611a5a915060203d60201161039b5761038d818361332d565b3861178f565b6040513d8d823e3d90fd5b8780fd5b8680fd5b8580fd5b8480fd5b50346104b8576101ae61165c611a9036613710565b9061441e565b50346104b85760403660031901126104b8576004356001600160401b0381116104b657611ac79036906004016134fc565b6024356001600160401b038111610bf357611ae6903690600401613692565b9160405191611b236102106108e683519560208181870198611b0981838c6133f2565b810160058152030190206040519283916020830190613980565b6040516020818351611b368183896133f2565b810160058152030190209060078201600260ff1982541617905542600a830155600b8201908551600160401b81116122515782548184558082106121db575b5060208701809386526020862086915b8383106120d35750508554600386019492506001600160a01b03169050803b15611a735785611be981928a60405194858094819363c8673f4b60e01b835260406004840152611bd7604484018d613b64565b838103600319016024850152906135a0565b03925af18015611f11579086916120be575b505b6002548110156120b257611c1081613270565b50604051611c2681610210602082018095613980565b51902061023e604051611c466020828c8282019586918b519283916133f2565b51902014611c5657600101611bfd565b600b91929394959650806007611c6e611c9093613270565b5001805460ff19166002179055611c8481613270565b50600a42910155613270565b5001865191600160401b831161209e578154838355808410612024575b509086526020862086915b838310611f1c57505050505b600180546040516395a8c58d60e01b815233600482015260248101929092526001600160a01b031690602081604481855afa908115611f11578691611ef2575b5015611e175750611da390611d94602060ff600487015416604051988994611d2b86613311565b8552611d368761334e565b83860152611d466002890161334e565b9160408601928352611d5a60018a0161334e565b606087015289608087015260a086015260c0850152611d7b6005880161334e565b60e08501525181604051938285809451938492016133f2565b81016006815203019020613c5b565b600354600160401b811015611e0357600080516020614e518339815191529394611dd6826001611ddc940160035561389d565b9061433d565b610bd860ff6004840154169260405193849342926005810191600160068301920187613be7565b634e487b7160e01b84526041600452602484fd5b6040516395a8c58d60e01b81523360048201526003602482015290602090829060449082905afa9081156103a2578591611ed3575b50611e6a575b50600080516020614e51833981519152929350611ddc565b611e9990611e8a602060ff600487015416604051988994611d2b86613311565b81016007815203019020613c5b565b600454600160401b811015611e0357600080516020614e518339815191529394611dd6826001611ecc94016004556138bc565b8392611e52565b611eec915060203d60201161039b5761038d818361332d565b38611e4c565b611f0b915060203d60201161039b5761038d818361332d565b38611d04565b6040513d88823e3d90fd5b80518051906001600160401b038211610f2657611f3984546132a5565b601f8111611ff4575b506020908a601f8411600114611f8a578360019592946020948796611f7b9492610d395750508160011b916000199060031b1c19161790565b85555b01920192019190611cb8565b50848b52818b209190601f1984168c5b818110611fdc5750936020936001969387969383889510611fc3575b505050811b018555611f7e565b015160001960f88460031b161c19169055388080611fb6565b92936020600181928786015181550195019301611f9a565b61201e90858c5260208c20601f850160051c81019160208610610caa57601f0160051c0190613b28565b38611f42565b828852836020892091820191015b81811061203f5750611cad565b808961204d600193546132a5565b8061205b575b505001612032565b601f811184146120725750508981555b8938612053565b83601f6020848661208d965220920160051c82019101613b28565b808a5289602081208183555561206b565b634e487b7160e01b87526041600452602487fd5b50509091929350611cc4565b816120c89161332d565b611a77578438611bfb565b80518051906001600160401b038211610f26576120f084546132a5565b601f81116121ab575b506020908a601f84116001146121415783600195929460209487966121329492610d395750508160011b916000199060031b1c19161790565b85555b01920192019190611b85565b50848b52818b209190601f1984168c5b818110612193575093602093600196938796938388951061217a575b505050811b018555612135565b015160001960f88460031b161c1916905538808061216d565b92936020600181928786015181550195019301612151565b6121d590858c5260208c20601f850160051c81019160208610610caa57601f0160051c0190613b28565b386120f9565b838652816020872091820191015b8181106121f65750611b75565b80612203600192546132a5565b80612210575b50016121e9565b601f8111831461222557508781555b38612209565b8189526020892061224091601f0160051c8101908401613b28565b80885287602081208183555561221f565b634e487b7160e01b85526041600452602485fd5b50346104b85760803660031901126104b8576004356001600160401b0381116104b6576122969036906004016134fc565b6024356001600160401b038111610bf3576122b59036906004016134fc565b906044356001600160401b038111610c02576122d59036906004016134fc565b6064356001600160401b038111611a77576102106108e660026123186020612304612333963690600401613692565b9681604051938285809451938492016133f2565b81016006815203019020016040519283916020830190613980565b6040519261235e8151946020818185019761234f81838b6133f2565b81016006815203019020613a92565b604051602081845161237181838b6133f2565b8101600581520301902092600b8401918151600160401b8111610e6b578354818555808210612c06575b506020830180948a5260208a208a915b838310612aea5750505050600385019386516001600160401b038111610f26576123d586546132a5565b601f8111612aba575b506020601f8211600114612a5857908061240c928c91612a4d57508160011b916000199060031b1c19161790565b85555b60078601805460ff1916600190811790915542600988015560c083018481526080939093015288546001600160a01b031689813b156104b85760405163c8673f4b60e01b81529182908183816124698a8f60048401613b3f565b03925af18015611a3657612a39575b50885b600254811015612a2b5761248e81613270565b506040516124a481610210602082018095613980565b51902061023e8a6124c5602060405180938282019586918a519283916133f2565b519020146124d55760010161247b565b929394959697505051600b6124e983613270565b5001815191600160401b8311610f265781548383558084106129b1575b506020019089526020892089915b8383106128a85750505050600361252a82613270565b500186516001600160401b038111610e6b5761254682546132a5565b601f8111612878575b506020601f82116001146128125781612582949392610b32928c9161280757508160011b916000199060031b1c19161790565b506009429101555b6020850194865b6003548110156127ed5760016102106125ac6101fc8461389d565b51902061023e6040516125cc6020828c8282019586918a519283916133f2565b519020146125dc57600101612591565b95505060056125ea8661389d565b5001905191600160401b831161209e578154838355808410612773575b509086526020862086915b83831061266b57505050506004612637600080516020614e518339815191529461389d565b5001805460ff19166001179055610bd860ff6004840154169260405193849342926005810191600160068301920187613be7565b80518051906001600160401b038211610f265761268884546132a5565b601f8111612743575b506020908a601f84116001146126d95783600195929460209487966126ca9492610d395750508160011b916000199060031b1c19161790565b85555b01920192019190612612565b50848b52818b209190601f1984168c5b81811061272b5750936020936001969387969383889510612712575b505050811b0185556126cd565b015160001960f88460031b161c19169055388080612705565b929360206001819287860151815501950193016126e9565b61276d90858c5260208c20601f850160051c81019160208610610caa57601f0160051c0190613b28565b38612691565b828852836020892091820191015b81811061278e5750612607565b808961279c600193546132a5565b806127aa575b505001612781565b601f811184146127c15750508981555b89386127a2565b83601f602084866127dc965220920160051c82019101613b28565b808a528960208120818355556127ba565b50505050600080516020614e518339815191529250611ddc565b90508a015138610988565b828a52808a2090601f1983168b5b8b82821061286057505091839161258296959460019410612847575050811b019055610b35565b8b015160001960f88460031b161c191690553880610c39565b60018495602093958493015181550194019201612820565b6128a290838b5260208b20601f840160051c81019160208510610caa57601f0160051c0190613b28565b3861254f565b80518051906001600160401b0382116110de578c6128c685546132a5565b601f8111612981575b50506020908d601f84116001146129185783600195929460209487966129099492610d395750508160011b916000199060031b1c19161790565b85555b01920192019190612514565b9190601f198416868452828420935b8181106129695750936020936001969387969383889510612950575b505050811b01855561290c565b015160001960f88460031b161c19169055388080612943565b92936020600181928786015181550195019301612927565b602082876129aa945220601f850160051c81019160208610610caa57601f0160051c0190613b28565b8c386128cf565b828b528360208c2091820191015b8181106129cc5750612506565b808c6129da600193546132a5565b806129e8575b5050016129bf565b601f811184146129ff5750508c81555b8c386129e0565b83601f60208486612a1a965220920160051c82019101613b28565b808d528c60208120818355556129f8565b50505090919293945061258a565b89612a46919a929a61332d565b9738612478565b905089015138610988565b868b52808b2090601f1983168c5b8b828210612aa25750509083600194939210612a89575b5050811b01855561240f565b8a015160001960f88460031b161c191690553880612a7d565b60018495602093958493015181550194019201612a66565b612ae490878c5260208c20601f840160051c81019160208510610caa57601f0160051c0190613b28565b386123de565b80518051906001600160401b038211612bf2578d90612b0985546132a5565b601f8111612bc2575b50602091601f8411600114612b59578360019592946020948796612b4a9492610d395750508160011b916000199060031b1c19161790565b85555b019201920191906123ab565b9190601f198416868452828420935b818110612baa5750936020936001969387969383889510612b91575b505050811b018555612b4d565b015160001960f88460031b161c19169055388080612b84565b92936020600181928786015181550195019301612b68565b612bec9086845260208420601f860160051c81019160208710610caa57601f0160051c0190613b28565b38612b12565b634e487b7160e01b8e52604160045260248efd5b848a528160208b2091820191015b818110612c21575061239b565b808b612c2f600193546132a5565b80612c3d575b505001612c14565b601f81118414612c545750508b81555b8b38612c35565b83601f60208486612c6f965220920160051c82019101613b28565b808c528b6020812081835555612c4d565b50346104b85760203660031901126104b857600435906001600160401b0382116104b857612cb6602061070336600486016134fc565b810160068152030190206107298161334e565b50346104b85760203660031901126104b857600435906001600160401b0382116104b8576101ae612d14612d05602061070336600488016134fc565b8101600a81520301902061334e565b604051918291602083526020830190613415565b50346104b85760203660031901126104b857600435906001600160401b0382116104b857612d5e602061070336600486016134fc565b81016005815203019020612d718161334e565b6101ae612d806001840161334e565b92612d8d6002820161334e565b90612d9a6003820161334e565b60ff600483015416612dae6005840161334e565b612dba6006850161334e565b9060ff60078601541692600886015494600a6009880154970154976040519b8c9b8c61345d565b50346104b85760203660031901126104b857600435906001600160401b0382116104b857612e65612d056020612e1a36600487016134fc565b60405190612e546102106108e6835194868181870197612e3b81838b6133f2565b8101600a81520301902060405192839188830190613980565b6040519384928392519283916133f2565b60405160ff600483519260208181870195612e818183896133f2565b8101600581520301902001541690612eb660056040516020818751612ea78183896133f2565b8101848152030190200161334e565b92612edf60066040516020818551612ecf81838a6133f2565b810160058152030190200161334e565b90612f76600a612f3f60206008604051828180612f008c8b519283916133f2565b81016005815203019020015496600960405183818951612f218183886133f2565b810160058152030190200154956040519384928392519283916133f2565b81016005815203019020015492612f68604051978897885260c0602089015260c0880190613415565b908682036040880152613415565b926060850152608084015260a08301520390f35b50346104b85760203660031901126104b8576004356001600160401b0381116104b6576020612fc06130039236906004016134fc565b612fc8613923565b5060405190612e546102106108e6835194868181870197612fea81838b6133f2565b8101600581520301902060405192839188830190613980565b81016005815203019020906040519061301b826132df565b6130248361334e565b82526130326001840161334e565b92602083019384526130466002820161334e565b906040840191825261305a6003820161334e565b6060850190815260ff6004830154166080860190815261307c6005840161334e565b9060a087019182526130906006850161334e565b9060c0880191825260ff60078601541660e089019760038210156131d05750875260088501549261010089019384526009860154946101208a01958652600a870154966101408b01978852600b016130e790613a3a565b976101608b019889526040519b8c9b60208d525160208d0161018090526101a08d0161311291613415565b90518c8203601f190160408e015261312a9190613415565b90518b8203601f190160608d01526131429190613415565b90518a8203601f190160808c015261315a9190613415565b915160ff1660a08a015251888203601f190160c08a015261317b9190613415565b9051878203601f190160e08901526131939190613415565b945161010087016131a39161343a565b51610120860152516101408501525161016084015251828203601f19016101808401526101ae91906135a0565b634e487b7160e01b81526021600452602490fd5b50346104b8576020906131f96107b836613557565b810160088152030190209081548310156104b85760206107ed8484613588565b50346104b85760203660031901126104b8576004356002548110156104b65761324190613270565b50612d718161334e565b9050346104b657816003193601126104b6576001546001600160a01b03168152602090f35b60025481101561328f576002600052600c602060002091020190600090565b634e487b7160e01b600052603260045260246000fd5b90600182811c921680156132d5575b60208310146132bf57565b634e487b7160e01b600052602260045260246000fd5b91607f16916132b4565b61018081019081106001600160401b038211176132fb57604052565b634e487b7160e01b600052604160045260246000fd5b61010081019081106001600160401b038211176132fb57604052565b90601f801991011681019081106001600160401b038211176132fb57604052565b9060405191826000825492613362846132a5565b80845293600181169081156133d05750600114613389575b506133879250038361332d565b565b90506000929192526020600020906000915b8183106133b4575050906020613387928201013861337a565b602091935080600191548385890101520191019091849261339b565b90506020925061338794915060ff191682840152151560051b8201013861337a565b60005b8381106134055750506000910152565b81810151838201526020016133f5565b9060209161342e815180928185528580860191016133f2565b601f01601f1916010190565b9060038210156134475752565b634e487b7160e01b600052602160045260246000fd5b979b9a9996929560ff6134bf6134e1966134b18c6101409e9b6134a36134d3996134956134ec9e9a6101608652610160860190613415565b908482036020860152613415565b916040818403910152613415565b8c810360608e015290613415565b921660808a015288820360a08a0152613415565b9086820360c0880152613415565b9760e085019061343a565b6101008301526101208201520152565b81601f82011215613552578035906001600160401b0382116132fb5760405192613530601f8401601f19166020018561332d565b8284526020838301011161355257816000926020809301838601378301015290565b600080fd5b604060031982011261355257600435906001600160401b03821161355257613581916004016134fc565b9060243590565b805482101561328f5760005260206000200190600090565b9080602083519182815201916020808360051b8301019401926000915b8383106135cc57505050505090565b90919293946020806135ea600193601f198682030187528951613415565b970193019301919392906135bd565b9060028210156134475752565b9361365a9061364c60ff9561363e6136789b999a966136306136659760e08c5260e08c0190613415565b908a820360208c0152613415565b9088820360408a0152613415565b908682036060880152613415565b9560808501906135f9565b1660a082015260c0818403910152613415565b90565b6001600160401b0381116132fb5760051b60200190565b9080601f830112156135525781356136a98161367b565b926136b7604051948561332d565b81845260208085019260051b820101918383116135525760208201905b8382106136e357505050505090565b81356001600160401b03811161355257602091613705878480948801016134fc565b8152019101906136d4565b906040600319830112613552576004356001600160401b038111613552578261373b916004016134fc565b91602435906001600160401b03821161355257613678916004016134fc565b6136789160e06137e86137b76137a561379361378187516101008852610100880190613415565b60208801518782036020890152613415565b60408701518682036040880152613415565b60608601518582036060870152613415565b6137c9608086015160808601906135f9565b60ff60a08601511660a085015260c085015184820360c08601526135a0565b9201519060e0818403910152613415565b906020808351928381520192019060005b8181106138175750505090565b825160ff1684526020938401939092019160010161380a565b94919361387361388f9461386561367899976138576138819660c08c5260c08c01906135a0565b908a820360208c01526135a0565b9088820360408a01526137f9565b9086820360608801526137f9565b9084820360808601526135a0565b9160a08184039101526135a0565b60035481101561328f5760036000526007602060002091020190600090565b60045481101561328f5760046000526007602060002091020190600090565b9261390761367895936138f9613915946080885260808801906135a0565b9086820360208801526135a0565b9084820360408601526137f9565b9160608184039101526135a0565b60405190613930826132df565b6060610160838281528260208201528260408201528280820152600060808201528260a08201528260c0820152600060e08201526000610100820152600061012082015260006101408201520152565b60009291815491613990836132a5565b92600181169081156139db57506001146139a957505050565b909192935060005260206000206000905b8382106139c75750500190565b6001816020925484860152019101906139ba565b60ff191683525050811515909102019150565b156139f557565b60405162461bcd60e51b815260206004820152601b60248201527f4e6f206461746120666f756e64207769746820746869732049442e00000000006044820152606490fd5b908154613a468161367b565b92613a54604051948561332d565b818452602084019060005260206000206000915b838310613a755750505050565b600160208192613a848561334e565b815201920192019190613a68565b90604051613a9f81613311565b8092613aaa8161334e565b8252613ab86001820161334e565b6020830152613ac96002820161334e565b6040830152613ada6003820161334e565b6060830152600481015460ff81169060028210156134475760e09260ff600692613b2394608088015260081c1660a0860152613b1860058201613a3a565b60c08601520161334e565b910152565b818110613b33575050565b60008155600101613b28565b9091613b5661367893604084526040840190613415565b9160208184039101526135a0565b60009291815491613b74836132a5565b8083529260018116908115613bca5750600114613b9057505050565b60009081526020812093945091925b838310613bb0575060209250010190565b600181602092949394548385870101520191019190613b9f565b915050602093945060ff929192191683830152151560051b010190565b9293613c2a60a095613c1c60ff95613c0e613c38969c9b9a9c60c08a5260c08a0190613b64565b9088820360208a0152613b64565b908682036040880152613b64565b908482036060860152613b64565b951660808201520152565b90816020910312613552575180151581036135525790565b909182519283516001600160401b0381116132fb57613c7a84546132a5565b601f811161430b575b50602094601f82116001146142a657613cb7929394958291600092610d395750508160011b916000199060031b1c19161790565b83555b6001830160208201518051906001600160401b0382116132fb57613cde83546132a5565b601f8111614274575b50602090601f831160011461420d57613d18929160009183610d395750508160011b916000199060031b1c19161790565b90555b6002830160408201518051906001600160401b0382116132fb57613d3f83546132a5565b601f81116141db575b50602090601f831160011461417457613d79929160009183610d395750508160011b916000199060031b1c19161790565b90555b6003830160608201518051906001600160401b0382116132fb57613da083546132a5565b601f8111614142575b50602090601f83116001146140db57613dda929160009183610d395750508160011b916000199060031b1c19161790565b90555b6080810151926004810160028510156134475760009460ff8019835416911617815560a083015161ff0082549160081b169061ff0019161790556005810160c083015190815191600160401b831161209e578154838355808410614061575b506020019086526020862086915b838310613f595750505050600660e09101910151928351906001600160401b038211613f4557613e7a83546132a5565b601f8111613f15575b50602090601f8311600114613eb75790613eb393949583610d395750508160011b916000199060031b1c19161790565b9055565b90601f198316848352818320925b818110613efd57509583600195969710613ee4575b505050811b019055565b015160001960f88460031b161c19169055388080613eda565b9192602060018192868b015181550194019201613ec5565b613f3f9084835260208320601f850160051c81019160208610610caa57601f0160051c0190613b28565b38613e83565b634e487b7160e01b81526041600452602490fd5b80518051906001600160401b038211610f2657613f7684546132a5565b601f8111614031575b506020908a601f8411600114613fc7578360019592946020948796613fb89492610d395750508160011b916000199060031b1c19161790565b85555b01920192019190613e4a565b50848b52818b209190601f1984168c5b8181106140195750936020936001969387969383889510614000575b505050811b018555613fbb565b015160001960f88460031b161c19169055388080613ff3565b92936020600181928786015181550195019301613fd7565b61405b90858c5260208c20601f850160051c81019160208610610caa57601f0160051c0190613b28565b38613f7f565b828852836020892091820191015b81811061407c5750613e3c565b808961408a600193546132a5565b80614098575b50500161406f565b601f811184146140af5750508981555b8938614090565b83601f602084866140ca965220920160051c82019101613b28565b808a528960208120818355556140a8565b90601f1983169184600052816000209260005b81811061412a5750908460019594939210614111575b505050811b019055613ddd565b015160001960f88460031b161c19169055388080614104565b929360206001819287860151815501950193016140ee565b61416e90846000526020600020601f850160051c81019160208610610caa57601f0160051c0190613b28565b38613da9565b90601f1983169184600052816000209260005b8181106141c357509084600195949392106141aa575b505050811b019055613d7c565b015160001960f88460031b161c1916905538808061419d565b92936020600181928786015181550195019301614187565b61420790846000526020600020601f850160051c81019160208610610caa57601f0160051c0190613b28565b38613d48565b90601f1983169184600052816000209260005b81811061425c5750908460019594939210614243575b505050811b019055613d1b565b015160001960f88460031b161c19169055388080614236565b92936020600181928786015181550195019301614220565b6142a090846000526020600020601f850160051c81019160208610610caa57601f0160051c0190613b28565b38613ce7565b601f1982169585600052806000209160005b8881106142f3575083600195969798106142da575b505050811b018355613cba565b015160001960f88460031b161c191690553880806142cd565b919260206001819286850151815501940192016142b8565b61433790856000526020600020601f840160051c81019160208510610caa57601f0160051c0190613b28565b38613c83565b919061434c5761338791613c5b565b634e487b7160e01b600052600060045260246000fd5b6040519061436f82613311565b606060e083828152826020820152826040820152828082015260006080820152600060a08201528260c08201520152565b604051906143af60208361332d565b600080835282815b8281106143c357505050565b8060606020809385010152016143b7565b906143de8261367b565b6143eb604051918261332d565b82815280926143fc601f199161367b565b019060005b82811061440d57505050565b806060602080938501015201614401565b614426614362565b506040519161446061445960028451956020818188019861444881838c6133f2565b8101600681520301902001546132a5565b15156139ee565b6006604051602081855161447581838a6133f2565b8101848152030190200160405161449481610210602082018095613980565b519020906040516144b56020828161023e81830196878151938492016133f2565b519020036144d85760206136789261234f926040519384928392519283916133f2565b60206144f39261234f926040519384928392519283916133f2565b60405161450160208261332d565b60008152815261450f6143a0565b60c082015290565b91909182519283516001600160401b0381116132fb5761453783546132a5565b601f8111614cd5575b50602094601f8211600114614c7057614574929394958291600092610d395750508160011b916000199060031b1c19161790565b82555b6001820160208201518051906001600160401b0382116132fb5761459b83546132a5565b601f8111614c3e575b50602090601f8311600114614bd7576145d5929160009183610d395750508160011b916000199060031b1c19161790565b90555b6002820160408201518051906001600160401b0382116132fb576145fc83546132a5565b601f8111614ba5575b50602090601f8311600114614b3e57614636929160009183610d395750508160011b916000199060031b1c19161790565b90555b6003820160608201518051906001600160401b0382116132fb5761465d83546132a5565b601f8111614b0c575b50602090601f8311600114614aa557614697929160009183610d395750508160011b916000199060031b1c19161790565b90555b6004820160ff60808301511660ff198254161790556005820160a08201518051906001600160401b0382116132fb576146d383546132a5565b601f8111614a73575b50602090601f8311600114614a0c5761470d929160009183610d395750508160011b916000199060031b1c19161790565b90555b6006820160c08201518051906001600160401b0382116132fb5761473483546132a5565b601f81116149da575b50602090601f83116001146149735761476e929160009183610d395750508160011b916000199060031b1c19161790565b90555b60e0810151916007810160038410156134475761016091600b9160009560ff8019835416911617905561010084015160088201556101208401516009820155610140840151600a8201550191015190815191600160401b8311611e035781548383558084106148fd575b506020019083526020832083915b8383106147f7575050505050565b80518051906001600160401b03821161209e5761481484546132a5565b601f81116148cd575b50602090601f83116001146148645792614855836001959460209487968c92610d395750508160011b916000199060031b1c19161790565b85555b019201920191906147e9565b8488528188209190601f198416895b8181106148b5575093602093600196938796938388951061489c575b505050811b018555614858565b015160001960f88460031b161c1916905538808061488f565b92936020600181928786015181550195019301614873565b6148f79085895260208920601f850160051c81019160208610610caa57601f0160051c0190613b28565b3861481d565b828552836020862091820191015b81811061491857506147db565b80614925600192546132a5565b80614932575b500161490b565b601f8111831461494757508681555b3861492b565b8188526020882061496291601f0160051c8101908401613b28565b808752866020812081835555614941565b90601f1983169184600052816000209260005b8181106149c257509084600195949392106149a9575b505050811b019055614771565b015160001960f88460031b161c1916905538808061499c565b92936020600181928786015181550195019301614986565b614a0690846000526020600020601f850160051c81019160208610610caa57601f0160051c0190613b28565b3861473d565b90601f1983169184600052816000209260005b818110614a5b5750908460019594939210614a42575b505050811b019055614710565b015160001960f88460031b161c19169055388080614a35565b92936020600181928786015181550195019301614a1f565b614a9f90846000526020600020601f850160051c81019160208610610caa57601f0160051c0190613b28565b386146dc565b90601f1983169184600052816000209260005b818110614af45750908460019594939210614adb575b505050811b01905561469a565b015160001960f88460031b161c19169055388080614ace565b92936020600181928786015181550195019301614ab8565b614b3890846000526020600020601f850160051c81019160208610610caa57601f0160051c0190613b28565b38614666565b90601f1983169184600052816000209260005b818110614b8d5750908460019594939210614b74575b505050811b019055614639565b015160001960f88460031b161c19169055388080614b67565b92936020600181928786015181550195019301614b51565b614bd190846000526020600020601f850160051c81019160208610610caa57601f0160051c0190613b28565b38614605565b90601f1983169184600052816000209260005b818110614c265750908460019594939210614c0d575b505050811b0190556145d8565b015160001960f88460031b161c19169055388080614c00565b92936020600181928786015181550195019301614bea565b614c6a90846000526020600020601f850160051c81019160208610610caa57601f0160051c0190613b28565b386145a4565b601f1982169584600052806000209160005b888110614cbd57508360019596979810614ca4575b505050811b018255614577565b015160001960f88460031b161c19169055388080614c97565b91926020600181928685015181550194019201614c82565b614d0190846000526020600020601f840160051c81019160208510610caa57601f0160051c0190613b28565b38614540565b614d0f614362565b5060405191614d42614459600284519560208181880198614d3181838c6133f2565b8101600781520301902001546132a5565b60066040516020818551614d5781838a6133f2565b8101600781520301902001604051614d7781610210602082018095613980565b51902090604051614d986020828161023e81830196878151938492016133f2565b51902003614dca57602061367892614dbb926040519384928392519283916133f2565b81016007815203019020613a92565b60206144f392614dbb926040519384928392519283916133f2565b6000198114614df45760010190565b634e487b7160e01b600052601160045260246000fd5b90614e148261367b565b614e21604051918261332d565b8281528092614e32601f199161367b565b0190602036910137565b805182101561328f5760209160051b01019056fe6185e892b495921d623cf19a02c2565e2522589cc1edae45bc123c650b0def61a26469706673582212209c3cebc6d1a7bc186c239ef7576ec78ed5e002ae259f008d5c867e2e6b37146464736f6c634300081b0033",
  "linkReferences": {},
  "deployedLinkReferences": {}
}