{
  "_format": "hh-sol-artifact-1",
  "contractName": "OrderManagement",
  "sourceName": "contracts/OrderManagement.sol",
  "abi": [
    {
      "inputs": [
        {
          "internalType": "address",
          "name": "roleManagerAddr",
          "type": "address"
        },
        {
          "internalType": "address",
          "name": "obatSharedAddr",
          "type": "address"
        },
        {
          "internalType": "address",
          "name": "cdobCertificateAddr",
          "type": "address"
        }
      ],
      "stateMutability": "nonpayable",
      "type": "constructor"
    },
    {
      "inputs": [],
      "name": "ReentrancyGuardReentrantCall",
      "type": "error"
    },
    {
      "anonymous": false,
      "inputs": [
        {
          "indexed": false,
          "internalType": "string",
          "name": "batchName",
          "type": "string"
        },
        {
          "indexed": false,
          "internalType": "string",
          "name": "namaProduk",
          "type": "string"
        },
        {
          "indexed": false,
          "internalType": "string",
          "name": "buyerInstanceName",
          "type": "string"
        },
        {
          "indexed": false,
          "internalType": "string",
          "name": "sellerInstanceName",
          "type": "string"
        },
        {
          "indexed": false,
          "internalType": "uint8",
          "name": "orderQuantity",
          "type": "uint8"
        },
        {
          "indexed": false,
          "internalType": "uint256",
          "name": "timestamp",
          "type": "uint256"
        }
      ],
      "name": "OrderUpdate",
      "type": "event"
    },
    {
      "inputs": [
        {
          "internalType": "string",
          "name": "orderId",
          "type": "string"
        },
        {
          "internalType": "string[]",
          "name": "orderObatIpfs",
          "type": "string[]"
        }
      ],
      "name": "acceptOrderPbf",
      "outputs": [],
      "stateMutability": "nonpayable",
      "type": "function"
    },
    {
      "inputs": [
        {
          "internalType": "string",
          "name": "orderId",
          "type": "string"
        },
        {
          "internalType": "string[]",
          "name": "orderObatIpfs",
          "type": "string[]"
        }
      ],
      "name": "acceptOrderRetailer",
      "outputs": [],
      "stateMutability": "nonpayable",
      "type": "function"
    },
    {
      "inputs": [
        {
          "internalType": "uint256",
          "name": "",
          "type": "uint256"
        }
      ],
      "name": "allOrderIds",
      "outputs": [
        {
          "internalType": "string",
          "name": "",
          "type": "string"
        }
      ],
      "stateMutability": "view",
      "type": "function"
    },
    {
      "inputs": [],
      "name": "cdobCertificate",
      "outputs": [
        {
          "internalType": "contract CdobCertificate",
          "name": "",
          "type": "address"
        }
      ],
      "stateMutability": "view",
      "type": "function"
    },
    {
      "inputs": [
        {
          "internalType": "string",
          "name": "orderId",
          "type": "string"
        },
        {
          "internalType": "string[]",
          "name": "orderObatIpfs",
          "type": "string[]"
        }
      ],
      "name": "completeOrderPbf",
      "outputs": [],
      "stateMutability": "nonpayable",
      "type": "function"
    },
    {
      "inputs": [
        {
          "internalType": "string",
          "name": "orderId",
          "type": "string"
        },
        {
          "internalType": "string[]",
          "name": "orderObatIpfs",
          "type": "string[]"
        }
      ],
      "name": "completeOrderRetailer",
      "outputs": [],
      "stateMutability": "nonpayable",
      "type": "function"
    },
    {
      "inputs": [
        {
          "internalType": "string",
          "name": "prevOrderIdPbf",
          "type": "string"
        },
        {
          "internalType": "string",
          "name": "orderId",
          "type": "string"
        },
        {
          "internalType": "string",
          "name": "obatId",
          "type": "string"
        },
        {
          "internalType": "string",
          "name": "batchName",
          "type": "string"
        },
        {
          "internalType": "string",
          "name": "namaProduk",
          "type": "string"
        },
        {
          "internalType": "string",
          "name": "buyerInstance",
          "type": "string"
        },
        {
          "internalType": "string",
          "name": "sellerInstance",
          "type": "string"
        },
        {
          "internalType": "uint8",
          "name": "orderQuantity",
          "type": "uint8"
        },
        {
          "internalType": "string",
          "name": "cdobHash",
          "type": "string"
        }
      ],
      "name": "createOrder",
      "outputs": [],
      "stateMutability": "nonpayable",
      "type": "function"
    },
    {
      "inputs": [
        {
          "internalType": "string",
          "name": "orderId",
          "type": "string"
        }
      ],
      "name": "detailOrder",
      "outputs": [
        {
          "components": [
            {
              "internalType": "string",
              "name": "orderId",
              "type": "string"
            },
            {
              "internalType": "string",
              "name": "obatId",
              "type": "string"
            },
            {
              "internalType": "string",
              "name": "namaProduk",
              "type": "string"
            },
            {
              "internalType": "string",
              "name": "batchName",
              "type": "string"
            },
            {
              "internalType": "uint8",
              "name": "orderQuantity",
              "type": "uint8"
            },
            {
              "components": [
                {
                  "internalType": "string",
                  "name": "instanceName",
                  "type": "string"
                },
                {
                  "internalType": "address",
                  "name": "instanceAddr",
                  "type": "address"
                }
              ],
              "internalType": "struct OrderManagement.OrderUser",
              "name": "buyerUser",
              "type": "tuple"
            },
            {
              "components": [
                {
                  "internalType": "string",
                  "name": "instanceName",
                  "type": "string"
                },
                {
                  "internalType": "address",
                  "name": "instanceAddr",
                  "type": "address"
                }
              ],
              "internalType": "struct OrderManagement.OrderUser",
              "name": "sellerUser",
              "type": "tuple"
            },
            {
              "internalType": "enum EnumsLibrary.OrderStatus",
              "name": "statusOrder",
              "type": "uint8"
            },
            {
              "internalType": "string",
              "name": "prevOrderIdPbf",
              "type": "string"
            }
          ],
          "internalType": "struct OrderManagement.OrderDetail",
          "name": "",
          "type": "tuple"
        }
      ],
      "stateMutability": "view",
      "type": "function"
    },
    {
      "inputs": [
        {
          "internalType": "string",
          "name": "instanceName",
          "type": "string"
        }
      ],
      "name": "getAllObatPbfByInstance",
      "outputs": [
        {
          "components": [
            {
              "internalType": "string",
              "name": "orderId",
              "type": "string"
            },
            {
              "internalType": "string",
              "name": "obatId",
              "type": "string"
            },
            {
              "internalType": "string",
              "name": "namaProduk",
              "type": "string"
            },
            {
              "internalType": "string",
              "name": "batchName",
              "type": "string"
            },
            {
              "internalType": "uint8",
              "name": "obatQuantity",
              "type": "uint8"
            },
            {
              "internalType": "enum EnumsLibrary.ObatAvailability",
              "name": "statusStok",
              "type": "uint8"
            },
            {
              "internalType": "string",
              "name": "ownerInstance",
              "type": "string"
            }
          ],
          "internalType": "struct ObatShared.ObatOutputStok[]",
          "name": "",
          "type": "tuple[]"
        }
      ],
      "stateMutability": "view",
      "type": "function"
    },
    {
      "inputs": [],
      "name": "getAllObatPbfReadyStock",
      "outputs": [
        {
          "components": [
            {
              "internalType": "string",
              "name": "orderId",
              "type": "string"
            },
            {
              "internalType": "string",
              "name": "obatId",
              "type": "string"
            },
            {
              "internalType": "string",
              "name": "namaProduk",
              "type": "string"
            },
            {
              "internalType": "string",
              "name": "batchName",
              "type": "string"
            },
            {
              "internalType": "uint8",
              "name": "obatQuantity",
              "type": "uint8"
            },
            {
              "internalType": "enum EnumsLibrary.ObatAvailability",
              "name": "statusStok",
              "type": "uint8"
            },
            {
              "internalType": "string",
              "name": "ownerInstance",
              "type": "string"
            }
          ],
          "internalType": "struct ObatShared.ObatOutputStok[]",
          "name": "",
          "type": "tuple[]"
        }
      ],
      "stateMutability": "view",
      "type": "function"
    },
    {
      "inputs": [
        {
          "internalType": "string",
          "name": "instanceName",
          "type": "string"
        }
      ],
      "name": "getAllObatRetailerByInstance",
      "outputs": [
        {
          "components": [
            {
              "internalType": "string",
              "name": "orderId",
              "type": "string"
            },
            {
              "internalType": "string",
              "name": "obatId",
              "type": "string"
            },
            {
              "internalType": "string",
              "name": "namaProduk",
              "type": "string"
            },
            {
              "internalType": "string",
              "name": "batchName",
              "type": "string"
            },
            {
              "internalType": "uint8",
              "name": "obatQuantity",
              "type": "uint8"
            },
            {
              "internalType": "enum EnumsLibrary.ObatAvailability",
              "name": "statusStok",
              "type": "uint8"
            },
            {
              "internalType": "string",
              "name": "ownerInstance",
              "type": "string"
            }
          ],
          "internalType": "struct ObatShared.ObatOutputStok[]",
          "name": "",
          "type": "tuple[]"
        }
      ],
      "stateMutability": "view",
      "type": "function"
    },
    {
      "inputs": [
        {
          "internalType": "string",
          "name": "buyerInstance",
          "type": "string"
        }
      ],
      "name": "getAllOrderFromBuyer",
      "outputs": [
        {
          "components": [
            {
              "internalType": "string",
              "name": "orderId",
              "type": "string"
            },
            {
              "internalType": "string",
              "name": "obatId",
              "type": "string"
            },
            {
              "internalType": "string",
              "name": "namaProduk",
              "type": "string"
            },
            {
              "internalType": "string",
              "name": "batchName",
              "type": "string"
            },
            {
              "internalType": "uint8",
              "name": "orderQuantity",
              "type": "uint8"
            },
            {
              "components": [
                {
                  "internalType": "string",
                  "name": "instanceName",
                  "type": "string"
                },
                {
                  "internalType": "address",
                  "name": "instanceAddr",
                  "type": "address"
                }
              ],
              "internalType": "struct OrderManagement.OrderUser",
              "name": "buyerUser",
              "type": "tuple"
            },
            {
              "components": [
                {
                  "internalType": "string",
                  "name": "instanceName",
                  "type": "string"
                },
                {
                  "internalType": "address",
                  "name": "instanceAddr",
                  "type": "address"
                }
              ],
              "internalType": "struct OrderManagement.OrderUser",
              "name": "sellerUser",
              "type": "tuple"
            },
            {
              "internalType": "enum EnumsLibrary.OrderStatus",
              "name": "statusOrder",
              "type": "uint8"
            },
            {
              "internalType": "string",
              "name": "prevOrderIdPbf",
              "type": "string"
            }
          ],
          "internalType": "struct OrderManagement.OrderDetail[]",
          "name": "",
          "type": "tuple[]"
        }
      ],
      "stateMutability": "view",
      "type": "function"
    },
    {
      "inputs": [
        {
          "internalType": "string",
          "name": "sellerInstance",
          "type": "string"
        }
      ],
      "name": "getAllOrderFromSeller",
      "outputs": [
        {
          "components": [
            {
              "internalType": "string",
              "name": "orderId",
              "type": "string"
            },
            {
              "internalType": "string",
              "name": "obatId",
              "type": "string"
            },
            {
              "internalType": "string",
              "name": "namaProduk",
              "type": "string"
            },
            {
              "internalType": "string",
              "name": "batchName",
              "type": "string"
            },
            {
              "internalType": "uint8",
              "name": "orderQuantity",
              "type": "uint8"
            },
            {
              "components": [
                {
                  "internalType": "string",
                  "name": "instanceName",
                  "type": "string"
                },
                {
                  "internalType": "address",
                  "name": "instanceAddr",
                  "type": "address"
                }
              ],
              "internalType": "struct OrderManagement.OrderUser",
              "name": "buyerUser",
              "type": "tuple"
            },
            {
              "components": [
                {
                  "internalType": "string",
                  "name": "instanceName",
                  "type": "string"
                },
                {
                  "internalType": "address",
                  "name": "instanceAddr",
                  "type": "address"
                }
              ],
              "internalType": "struct OrderManagement.OrderUser",
              "name": "sellerUser",
              "type": "tuple"
            },
            {
              "internalType": "enum EnumsLibrary.OrderStatus",
              "name": "statusOrder",
              "type": "uint8"
            },
            {
              "internalType": "string",
              "name": "prevOrderIdPbf",
              "type": "string"
            }
          ],
          "internalType": "struct OrderManagement.OrderDetail[]",
          "name": "",
          "type": "tuple[]"
        }
      ],
      "stateMutability": "view",
      "type": "function"
    },
    {
      "inputs": [
        {
          "internalType": "string",
          "name": "orderId",
          "type": "string"
        }
      ],
      "name": "obatIpfs",
      "outputs": [
        {
          "internalType": "string[]",
          "name": "",
          "type": "string[]"
        }
      ],
      "stateMutability": "view",
      "type": "function"
    },
    {
      "inputs": [],
      "name": "obatShared",
      "outputs": [
        {
          "internalType": "contract ObatShared",
          "name": "",
          "type": "address"
        }
      ],
      "stateMutability": "view",
      "type": "function"
    },
    {
      "inputs": [
        {
          "internalType": "string",
          "name": "orderId",
          "type": "string"
        }
      ],
      "name": "orderTimestamp",
      "outputs": [
        {
          "components": [
            {
              "internalType": "uint256",
              "name": "timestampOrder",
              "type": "uint256"
            },
            {
              "internalType": "uint256",
              "name": "timestampShipped",
              "type": "uint256"
            },
            {
              "internalType": "uint256",
              "name": "timestampComplete",
              "type": "uint256"
            }
          ],
          "internalType": "struct OrderManagement.OrderTimestamp",
          "name": "",
          "type": "tuple"
        }
      ],
      "stateMutability": "view",
      "type": "function"
    },
    {
      "inputs": [],
      "name": "roleManager",
      "outputs": [
        {
          "internalType": "contract RoleManager",
          "name": "",
          "type": "address"
        }
      ],
      "stateMutability": "view",
      "type": "function"
    }
  ],
  "bytecode": "0x60e0346100fa57601f61255838819003918201601f19168301916001600160401b038311848410176100fe578084926060946040528339810103126100fa5761004781610112565b90610060604061005960208401610112565b9201610112565b60015f556001600160a01b0392831660805290821660a0521660c0526040516124319081610127823960805181818161029b0152818161070301528181610ac001528181610f06015281816111f10152611776015260a0518181816104c301528181610656015281816107e401528181610b7e01528181610e8401528181610fcd015281816112cb015261153e015260c05181610cf40152f35b5f80fd5b634e487b7160e01b5f52604160045260245ffd5b51906001600160a01b03821682036100fa5756fe6080806040526004361015610012575f80fd5b5f905f3560e01c908162435da514611764575080631c2fc29214611697578063271962d4146115e05780632bf05e9b1461156d5780633fca88cb1461152857806360e4b3cf1461142357806364484ac9146111b8578063756b460f14610ecd578063906ce01714610e5f578063986a079014610d23578063af3a175814610cde578063af9bf53d14610a8f578063b711e82b146109ea578063e1336da514610993578063ee399ed4146106d2578063f07b2c7a146105fb5763fc0e6523146100d8575f80fd5b346105f8576101203660031901126105f8576004356001600160401b03811161057857610109903690600401611847565b6024356001600160401b0381116105f657610128903690600401611847565b906044356001600160401b0381116105f257610148903690600401611847565b906064356001600160401b0381116105ee57610168903690600401611847565b6084356001600160401b0381116105ea57610187903690600401611847565b9060a4356001600160401b0381116105e6576101a7903690600401611847565b60c4356001600160401b0381116105e2576101c6903690600401611847565b9160e4359060ff821680920361056757610104356001600160401b0381116105de576101f6903690600401611847565b946101ff61224b565b600154600160401b8110156105ca5780600161022092016001556001611a61565b6105b6578961022e91611f04565b61024f89604051602081885180838b01835e81016005815203019020611ffc565b61027089604051602081895180838c01835e81016006815203019020611ffc565b6040516395a8c58d60e01b815233600482015260016024820152956020876044816001600160a01b037f0000000000000000000000000000000000000000000000000000000000000000165afa80156105ab578a978c9161057c575b506104be575b506040516102df816117d5565b428152602081018b815260408201908c8252604051808a519a6020019a808c835e81016004815203602001902092518355516001830155519060020155610324611d08565b5060405193610332856117f0565b8452336020850152610342611d08565b5060405194610350866117f0565b855289602086015260405197610365896117a5565b8989526020890190815260408901918252606089019283526080890193845260a0890194855260c0890195865260e08901968b88526101008a0198895260405180918c518091835e81016003815203602001902098516103c5908a611f04565b516103d39060018a01611f04565b516103e19060028901611f04565b516103ef9060038801611f04565b60048601905160ff1660ff19825416179055518051600586019061041291611f04565b602001516006850180546001600160a01b0319166001600160a01b03929092169190911790555180516104489060078601611f04565b602001516008840180546001600160a01b0319166001600160a01b039290921691909117905551600983019060038110156104aa5761049e926104a3959492600a9260ff80198354169116179055519101611f04565b612269565b6001815580f35b634e487b7160e01b86526021600452602486fd5b9550897f00000000000000000000000000000000000000000000000000000000000000006001600160a01b0316803b1561057857610534978291610522838d6040519c8d95869485936331cb1cc560e21b855260406004860152604485019061188d565b8381036003190160248501529061188d565b03925af196871561056b578a9761054c575b506102d2565b819297509061055a9161180b565b610567578794895f610546565b8880fd5b50604051903d90823e3d90fd5b5080fd5b61059e915060203d6020116105a4575b610596818361180b565b810190611e17565b5f6102cc565b503d61058c565b6040513d8d823e3d90fd5b634e487b7160e01b8b5260048b905260248bfd5b634e487b7160e01b8b52604160045260248bfd5b8980fd5b8780fd5b8680fd5b8580fd5b8480fd5b8380fd5b825b80fd5b50346105f85760203660031901126105f857600435816001600160401b0382116105f857610630610652923690600401611847565b6040518093819263783d963d60e11b835260206004840152602483019061188d565b03817f00000000000000000000000000000000000000000000000000000000000000006001600160a01b03165afa9081156106c757826106a093926106a4575b505060405191829182611c06565b0390f35b6106c092503d8091833e6106b8818361180b565b8101906120a9565b5f80610692565b6040513d84823e3d90fd5b50346105f8576106e136611b46565b6040516395a8c58d60e01b8152336004820152602481018490526020816044817f00000000000000000000000000000000000000000000000000000000000000006001600160a01b03165afa908115610988578491610969575b501561092f57829061074b61224b565b805160405190845191602081818801948086835e81016003815203019020916008830160018060a01b0333166bffffffffffffffffffffffff60a01b82541617905560098301600160ff19825416179055604051600187518084845e8201916004835260208142940301902001556107d760405160208189518086835e81016002815203019020611e83565b845b8281106108f15750507f00000000000000000000000000000000000000000000000000000000000000006001600160a01b0316926003830192909150833b156105ee578461084a61085c92604051938492839263871811f160e01b8452606060048501526001606485019101611aae565b82810360031901602484015287611aae565b60016044830152038183885af19081156108e65785916108d1575b5050823b156105f2576108a3928492836040518096819582946329a2ac2760e11b84526004840161203e565b03925af180156106c7576108bc575b506104a382612269565b816108c69161180b565b61057857815f6108b2565b816108db9161180b565b6105f257835f610877565b6040513d87823e3d90fd5b60019192939495506109236040516020818a518088835e8101600281520301902061091c8389611dc1565b5190611ffc565b019086949392916107d9565b60405162461bcd60e51b815260206004820152601260248201527150616272696b20616363657373206f6e6c7960701b6044820152606490fd5b610982915060203d6020116105a457610596818361180b565b5f61073b565b6040513d86823e3d90fd5b50346105f85760203660031901126105f857600435816001600160401b0382116105f8576109c8610652923690600401611847565b6040518093819263e1336da560e01b835260206004840152602483019061188d565b50346105f85760203660031901126105f8576004356001600160401b038111610578576020606092610a2182933690600401611847565b9060408051610a2f816117d5565b82815282858201520152604051928184925191829101835e81016004815203019020604051610a5d816117d5565b815491828252604060026001830154926020850193845201549201918252604051928352516020830152516040820152f35b50346105f857610a9e36611b46565b6040516395a8c58d60e01b8152336004820152600360248201526020816044817f00000000000000000000000000000000000000000000000000000000000000006001600160a01b03165afa908115610988578491610cbf575b5015610c83578290610b0861224b565b805160405190845191602081818801948086835e810160038152030190209160098301600260ff19825416179055604051600287518084845e820191600483526020814294030190200155610b7160405160208189518086835e81016002815203019020611e83565b845b828110610c4c5750507f00000000000000000000000000000000000000000000000000000000000000006001600160a01b0316926003830192909150833b156105ee576040516330b3e0ef60e21b815260406004820152858180610bda6044820188611aae565b60016024830152038183895af1908115610c41578691610c2c575b5050833b156105ee578461084a61085c92604051938492839263871811f160e01b8452606060048501526001606485019101611aae565b81610c369161180b565b6105ee57845f610bf5565b6040513d88823e3d90fd5b6001919293949550610c776040516020818a518088835e8101600281520301902061091c8389611dc1565b01908694939291610b73565b60405162461bcd60e51b815260206004820152601460248201527352657461696c657220616363657373206f6e6c7960601b6044820152606490fd5b610cd8915060203d6020116105a457610596818361180b565b5f610af8565b50346105f857806003193601126105f8576040517f00000000000000000000000000000000000000000000000000000000000000006001600160a01b03168152602090f35b50346105f85760203660031901126105f857600435906001600160401b0382116105f8576106a0602080610d5a3660048701611847565b610d62611d21565b50604051928184925191829101835e81016003815203019020600a610e4560405192610d8d846117a5565b604051610da581610d9e8185611aae565b038261180b565b8452604051610dbb81610d9e8160018601611aae565b6020850152604051610dd481610d9e8160028601611aae565b6040850152604051610ded81610d9e8160038601611aae565b606085015260ff6004820154166080850152610e0b60058201611dd5565b60a0850152610e1c60078201611dd5565b60c0850152610e3560ff60098301541660e08601611e0b565b610d9e6040518094819301611aae565b6101008201526040519182916020835260208301906118da565b50346105f857806003193601126105f85760405163906ce01760e01b815281816004817f00000000000000000000000000000000000000000000000000000000000000006001600160a01b03165afa9081156106c757826106a093926106a457505060405191829182611c06565b50346105f857610edc36611b46565b6040516395a8c58d60e01b8152336004820152600160248201526020816044816001600160a01b037f0000000000000000000000000000000000000000000000000000000000000000165afa801561098857610f43918591611199575b5090849291611e2f565b610f4b61224b565b805160405190845191602081818801948086835e810160038152030190209160098301600260ff19825416179055604051600287518084845e820191600483526020814294030190200155610fb460405160208189518086835e81016002815203019020611e83565b845b8281106111625750506003820192600183019291507f00000000000000000000000000000000000000000000000000000000000000006001600160a01b031690813b156105ea5760405163871811f160e01b815260606004820152868180611036611024606483018a611aae565b8281036003190160248401528a611aae565b60016044830152038183875af1908115611157578791611142575b5050813b156105ea578561107a91604051809381926329a2ac2760e11b8352896004840161203e565b038183865af1908115610c4157869161112d575b505060ff600483015416813b156105ea578580946108a36110dc9360058b976111156110ee9b6111036040519d8e9c8d9b8c9a63d33d8a1360e01b8c5260c060048d015260c48c0190611aae565b8a81036003190160248c01529061188d565b8881036003190160448a015260028501611aae565b87810360031901606489015290611aae565b9260848601526003198584030160a486015201611aae565b816111379161180b565b6105ee57845f61108e565b8161114c9161180b565b6105ea57855f611051565b6040513d89823e3d90fd5b600191929394955061118d6040516020818a518088835e8101600281520301902061091c8389611dc1565b01908694939291610fb6565b6111b2915060203d6020116105a457610596818361180b565b5f610f39565b50346105f8576111c736611b46565b6040516395a8c58d60e01b8152336004820152600160248201526020816044816001600160a01b037f0000000000000000000000000000000000000000000000000000000000000000165afa80156109885761122a918591611404575b50611e2f565b61123261224b565b805160405190835191602081818701948086835e81016003815203019020916008830160018060a01b0333166bffffffffffffffffffffffff60a01b82541617905560098301600160ff19825416179055604051600186518084845e8201916004835260208142940301902001556112be60405160208188518086835e81016002815203019020611e83565b855b8281106113d85750507f00000000000000000000000000000000000000000000000000000000000000006001600160a01b031692600383019290915085843b156105f85760405163871811f160e01b81526060600482015291829081906113329061084a906064840190600101611aae565b60016044830152038183885af18015610c41576113c0575b5090829185933b156105f2576040516330b3e0ef60e21b81526040600482015284818061137a6044820187611aae565b60016024830152038183885af19081156108e65785916108d1575050823b156105f2576108a3928492836040518096819582946329a2ac2760e11b84526004840161203e565b856113cf91969294939661180b565b9390915f61134a565b6001906113fe6040516020818a518088835e8101600281520301902061091c8389611dc1565b016112c0565b61141d915060203d6020116105a457610596818361180b565b5f611224565b50346105f85760203660031901126105f8576004356001600160401b03811161057857611454903690600401611847565b604051815190602081818501938085835e81016005815203019020549161147a83611d72565b935b83811061149157604051806106a087826119aa565b806114ce610d9e6114c96114bc6001956040516020818a51808d835e81016005815203019020611a61565b5060405192838092611aae565b611ce9565b600a611506604051926114e0846117a5565b6040516114f181610d9e8185611aae565b8452604051610dbb81610d9e818a8601611aae565b6101008201526115168288611dc1565b526115218187611dc1565b500161147c565b50346105f857806003193601126105f8576040517f00000000000000000000000000000000000000000000000000000000000000006001600160a01b03168152602090f35b346115dc5760203660031901126115dc576004356001548110156115dc576001548110156115c857610d9e6115b46106a09260015f5260205f200160405192838092611aae565b60405191829160208352602083019061188d565b634e487b7160e01b5f52603260045260245ffd5b5f80fd5b346115dc5760203660031901126115dc576004356001600160401b0381116115dc57602061161381923690600401611847565b604051928184925191829101835e81016002815203019020805461163681611b2f565b91611644604051938461180b565b81835260208301905f5260205f205f915b83831061167257604051602080825281906106a090820188611a09565b60016020819260405161168981610d9e8189611aae565b815201920192019190611655565b346115dc5760203660031901126115dc576004356001600160401b0381116115dc576116c7903690600401611847565b604051815190602081818501938085835e8101600681520301902054906116ed82611d72565b925f5b83811061170557604051806106a087826119aa565b80611730610d9e6114c96114bc6001956040516020818a51808d835e81016006815203019020611a61565b600a611742604051926114e0846117a5565b6101008201526117528288611dc1565b5261175d8187611dc1565b50016116f0565b346115dc575f3660031901126115dc577f00000000000000000000000000000000000000000000000000000000000000006001600160a01b03168152602090f35b61012081019081106001600160401b038211176117c157604052565b634e487b7160e01b5f52604160045260245ffd5b606081019081106001600160401b038211176117c157604052565b604081019081106001600160401b038211176117c157604052565b90601f801991011681019081106001600160401b038211176117c157604052565b6001600160401b0381116117c157601f01601f191660200190565b81601f820112156115dc5780359061185e8261182c565b9261186c604051948561180b565b828452602083830101116115dc57815f926020809301838601378301015290565b805180835260209291819084018484015e5f828201840152601f01601f1916010190565b9060206118c7835160408452604084019061188d565b928101516001600160a01b031691015290565b906119666119546119356119236119116118ff8751610120885261012088019061188d565b6020880151878203602089015261188d565b6040870151868203604088015261188d565b6060860151858203606087015261188d565b60ff608086015116608085015260a085015184820360a08601526118b1565b60c084015183820360c08501526118b1565b9060e0830151600381101561199657611993936101009160e084015201519061010081840391015261188d565b90565b634e487b7160e01b5f52602160045260245ffd5b602081016020825282518091526040820191602060408360051b8301019401925f915b8383106119dc57505050505090565b90919293946020806119fa600193603f1986820301875289516118da565b970193019301919392906119cd565b9080602083519182815201916020808360051b8301019401925f915b838310611a3457505050505090565b9091929394602080611a52600193601f19868203018752895161188d565b97019301930191939290611a25565b80548210156115c8575f5260205f2001905f90565b90600182811c92168015611aa4575b6020831014611a9057565b634e487b7160e01b5f52602260045260245ffd5b91607f1691611a85565b5f9291815491611abd83611a76565b8083529260018116908115611b125750600114611ad957505050565b5f9081526020812093945091925b838310611af8575060209250010190565b600181602092949394548385870101520191019190611ae7565b915050602093945060ff929192191683830152151560051b010190565b6001600160401b0381116117c15760051b60200190565b9060406003198301126115dc576004356001600160401b0381116115dc5782611b7191600401611847565b91602435906001600160401b0382116115dc57806023830112156115dc578160040135611b9d81611b2f565b92611bab604051948561180b565b8184526024602085019260051b820101918383116115dc5760248201905b838210611bd857505050505090565b81356001600160401b0381116115dc57602091611bfb8760248594880101611847565b815201910190611bc9565b602081016020825282518091526040820190602060408260051b8501019401925f905b828210611c3857505050505090565b9091929394603f19828203018552855190611c9b611c89611c77611c65855160e0865260e086019061188d565b6020860151858203602087015261188d565b6040850151848203604086015261188d565b6060840151838203606085015261188d565b9160ff608082015116608083015260a0810151906002821015611996576001938360c0611cdc936020969560a08897015201519060c081840391015261188d565b9701950193920190611c29565b60208091604051928184925191829101835e8101600381520301902090565b60405190611d15826117f0565b5f602083606081520152565b60405190611d2e826117a5565b60606101008382815282602082015282604082015282808201525f6080820152611d56611d08565b60a0820152611d63611d08565b60c08201525f60e08201520152565b90611d7c82611b2f565b611d89604051918261180b565b8281528092611d9a601f1991611b2f565b01905f5b828110611daa57505050565b602090611db5611d21565b82828501015201611d9e565b80518210156115c85760209160051b010190565b90604051611de2816117f0565b60208193604051611df781610d9e8185611aae565b8352600101546001600160a01b0316910152565b60038210156119965752565b908160209103126115dc575180151581036115dc5790565b15611e3657565b60405162461bcd60e51b815260206004820152600f60248201526e50424620616363657373206f6e6c7960881b6044820152606490fd5b818110611e78575050565b5f8155600101611e6d565b8054905f815581611e92575050565b5f5260205f20908101905b818110611ea8575050565b80611eb560019254611a76565b80611ec2575b5001611e9d565b601f81118314611ed757505f81555b5f611ebb565b611ef390825f5283601f60205f20920160051c82019101611e6d565b805f525f6020812081835555611ed1565b91909182516001600160401b0381116117c157611f218254611a76565b601f8111611fc1575b506020601f8211600114611f6357819293945f92611f58575b50508160011b915f199060031b1c1916179055565b015190505f80611f43565b601f19821690835f52805f20915f5b818110611fa957509583600195969710611f91575b505050811b019055565b01515f1960f88460031b161c191690555f8080611f87565b9192602060018192868b015181550194019201611f72565b611fec90835f5260205f20601f840160051c81019160208510611ff2575b601f0160051c0190611e6d565b5f611f2a565b9091508190611fdf565b8054600160401b8110156117c15761201991600182018155611a61565b91909161202b5761202991611f04565b565b634e487b7160e01b5f525f60045260245ffd5b909161205561199393604084526040840190611aae565b916020818403910152611a09565b81601f820112156115dc5780519061207a8261182c565b92612088604051948561180b565b828452602083830101116115dc57815f9260208093018386015e8301015290565b6020818303126115dc578051906001600160401b0382116115dc57019080601f830112156115dc578151916120dd83611b2f565b926120eb604051948561180b565b80845260208085019160051b830101918383116115dc5760208101915b83831061211757505050505090565b82516001600160401b0381116115dc5782019060e0828703601f1901126115dc576040519060e082018281106001600160401b038211176117c15760405260208301516001600160401b0381116115dc5787602061217792860101612063565b825260408301516001600160401b0381116115dc5787602061219b92860101612063565b602083015260608301516001600160401b0381116115dc578760206121c292860101612063565b604083015260808301516001600160401b0381116115dc578760206121e992860101612063565b606083015260a083015160ff811681036115dc57608083015260c083015160028110156115dc5760a083015260e0830151916001600160401b0383116115dc5761223b88602080969581960101612063565b60c0820152815201920191612108565b60025f541461225a5760025f55565b633ee5aeb560e01b5f5260045ffd5b6123c06020807f1d1b0398fce0e5341c30c157d9d5b2976f5dcce30f83882d674ebcd6839ce24f93612299611d21565b50604051928184925191829101835e810160038152030190206040516122be816117a5565b6040516122cf81610d9e8186611aae565b81526040516122e581610d9e8160018701611aae565b60208201526123ea60405192612309846123028160028501611aae565b038561180b565b604083019384526123dc6040519161232f836123288160038501611aae565b038461180b565b606085019283526123ce60ff806004840154169460808801958652600a61010061235b60058701611dd5565b9960a081019a8b5261239d61237260078901611dd5565b9760c0830198895261238d8760098301541660e08501611e0b565b6123286040518096819301611aae565b01525197519651519251519451169560405198899860c08a5260c08a019061188d565b9088820360208a015261188d565b90868203604088015261188d565b90848203606086015261188d565b9060808301524260a08301520390a156fea2646970667358221220f87f2800f994680034bef59184c360d98b86c657e2943ef7ed4b099f3c85db5e64736f6c634300081b0033",
  "linkReferences": {},
  "deployedLinkReferences": {}
}