{
  "_format": "hh-sol-artifact-1",
  "contractName": "OrderManagement",
  "sourceName": "contracts/OrderManagement.sol",
  "abi": [
    {
      "inputs": [
        {
          "internalType": "address",
          "name": "_obatTradisionalAddr",
          "type": "address"
        },
        {
          "internalType": "address",
          "name": "_roleManagerAddr",
          "type": "address"
        },
        {
          "internalType": "address",
          "name": "_obatSharedAddr",
          "type": "address"
        }
      ],
      "stateMutability": "nonpayable",
      "type": "constructor"
    },
    {
      "anonymous": false,
      "inputs": [
        {
          "indexed": false,
          "internalType": "string",
          "name": "batchName",
          "type": "string"
        },
        {
          "indexed": false,
          "internalType": "string",
          "name": "namaProduk",
          "type": "string"
        },
        {
          "indexed": false,
          "internalType": "string",
          "name": "buyerInstanceName",
          "type": "string"
        },
        {
          "indexed": false,
          "internalType": "string",
          "name": "sellerInstanceName",
          "type": "string"
        },
        {
          "indexed": false,
          "internalType": "uint8",
          "name": "orderQuantity",
          "type": "uint8"
        },
        {
          "indexed": false,
          "internalType": "uint256",
          "name": "timestamp",
          "type": "uint256"
        }
      ],
      "name": "evt_orderUpdate",
      "type": "event"
    },
    {
      "inputs": [
        {
          "internalType": "string",
          "name": "_orderId",
          "type": "string"
        },
        {
          "internalType": "string[]",
          "name": "_orderObatIpfs",
          "type": "string[]"
        }
      ],
      "name": "acceptOrderPbf",
      "outputs": [],
      "stateMutability": "nonpayable",
      "type": "function"
    },
    {
      "inputs": [
        {
          "internalType": "string",
          "name": "_orderId",
          "type": "string"
        },
        {
          "internalType": "string[]",
          "name": "_orderObatIpfs",
          "type": "string[]"
        }
      ],
      "name": "acceptOrderRetailer",
      "outputs": [],
      "stateMutability": "nonpayable",
      "type": "function"
    },
    {
      "inputs": [
        {
          "internalType": "uint256",
          "name": "",
          "type": "uint256"
        }
      ],
      "name": "allOrderId",
      "outputs": [
        {
          "internalType": "string",
          "name": "",
          "type": "string"
        }
      ],
      "stateMutability": "view",
      "type": "function"
    },
    {
      "inputs": [
        {
          "internalType": "string",
          "name": "_orderId",
          "type": "string"
        },
        {
          "internalType": "string[]",
          "name": "_orderObatIpfs",
          "type": "string[]"
        }
      ],
      "name": "completeOrderPbf",
      "outputs": [],
      "stateMutability": "nonpayable",
      "type": "function"
    },
    {
      "inputs": [
        {
          "internalType": "string",
          "name": "_orderId",
          "type": "string"
        },
        {
          "internalType": "string[]",
          "name": "_orderObatIpfs",
          "type": "string[]"
        }
      ],
      "name": "completeOrderRetailer",
      "outputs": [],
      "stateMutability": "nonpayable",
      "type": "function"
    },
    {
      "inputs": [
        {
          "internalType": "string",
          "name": "_orderId",
          "type": "string"
        },
        {
          "internalType": "string",
          "name": "_obatId",
          "type": "string"
        },
        {
          "internalType": "string",
          "name": "_batchName",
          "type": "string"
        },
        {
          "internalType": "string",
          "name": "_namaProduk",
          "type": "string"
        },
        {
          "internalType": "string",
          "name": "_buyerInstance",
          "type": "string"
        },
        {
          "internalType": "string",
          "name": "_sellerInstance",
          "type": "string"
        },
        {
          "internalType": "uint8",
          "name": "_orderQuantity",
          "type": "uint8"
        }
      ],
      "name": "createOrderPbf",
      "outputs": [],
      "stateMutability": "nonpayable",
      "type": "function"
    },
    {
      "inputs": [
        {
          "internalType": "string",
          "name": "_prevOrderIdPbf",
          "type": "string"
        },
        {
          "internalType": "string",
          "name": "_orderId",
          "type": "string"
        },
        {
          "internalType": "string",
          "name": "_obatId",
          "type": "string"
        },
        {
          "internalType": "string",
          "name": "_batchName",
          "type": "string"
        },
        {
          "internalType": "string",
          "name": "_namaProduk",
          "type": "string"
        },
        {
          "internalType": "string",
          "name": "_buyerInstance",
          "type": "string"
        },
        {
          "internalType": "string",
          "name": "_sellerInstance",
          "type": "string"
        },
        {
          "internalType": "uint8",
          "name": "_orderQuantity",
          "type": "uint8"
        }
      ],
      "name": "createOrderRetailer",
      "outputs": [],
      "stateMutability": "nonpayable",
      "type": "function"
    },
    {
      "inputs": [
        {
          "internalType": "string",
          "name": "_orderId",
          "type": "string"
        }
      ],
      "name": "detailOrder",
      "outputs": [
        {
          "components": [
            {
              "internalType": "string",
              "name": "orderId",
              "type": "string"
            },
            {
              "internalType": "string",
              "name": "obatId",
              "type": "string"
            },
            {
              "internalType": "string",
              "name": "namaProduk",
              "type": "string"
            },
            {
              "internalType": "string",
              "name": "batchName",
              "type": "string"
            },
            {
              "internalType": "uint8",
              "name": "orderQuantity",
              "type": "uint8"
            },
            {
              "components": [
                {
                  "internalType": "string",
                  "name": "instanceName",
                  "type": "string"
                },
                {
                  "internalType": "address",
                  "name": "instanceAddr",
                  "type": "address"
                }
              ],
              "internalType": "struct OrderManagement.st_orderUser",
              "name": "buyerUser",
              "type": "tuple"
            },
            {
              "components": [
                {
                  "internalType": "string",
                  "name": "instanceName",
                  "type": "string"
                },
                {
                  "internalType": "address",
                  "name": "instanceAddr",
                  "type": "address"
                }
              ],
              "internalType": "struct OrderManagement.st_orderUser",
              "name": "sellerUser",
              "type": "tuple"
            },
            {
              "internalType": "enum EnumsLibrary.OrderStatus",
              "name": "statusOrder",
              "type": "uint8"
            }
          ],
          "internalType": "struct OrderManagement.st_obatOrder",
          "name": "",
          "type": "tuple"
        },
        {
          "components": [
            {
              "internalType": "uint256",
              "name": "timestampOrder",
              "type": "uint256"
            },
            {
              "internalType": "uint256",
              "name": "timestampShipped",
              "type": "uint256"
            },
            {
              "internalType": "uint256",
              "name": "timestampComplete",
              "type": "uint256"
            }
          ],
          "internalType": "struct OrderManagement.st_orderTimestamp",
          "name": "",
          "type": "tuple"
        },
        {
          "internalType": "string[]",
          "name": "",
          "type": "string[]"
        }
      ],
      "stateMutability": "view",
      "type": "function"
    },
    {
      "inputs": [
        {
          "internalType": "string",
          "name": "_orderId",
          "type": "string"
        }
      ],
      "name": "detailOrderRetailer",
      "outputs": [
        {
          "components": [
            {
              "internalType": "string",
              "name": "prevOrderIdPbf",
              "type": "string"
            },
            {
              "internalType": "string",
              "name": "orderId",
              "type": "string"
            },
            {
              "internalType": "string",
              "name": "obatId",
              "type": "string"
            },
            {
              "internalType": "string",
              "name": "namaProduk",
              "type": "string"
            },
            {
              "internalType": "string",
              "name": "batchName",
              "type": "string"
            },
            {
              "internalType": "uint8",
              "name": "orderQuantity",
              "type": "uint8"
            },
            {
              "components": [
                {
                  "internalType": "string",
                  "name": "instanceName",
                  "type": "string"
                },
                {
                  "internalType": "address",
                  "name": "instanceAddr",
                  "type": "address"
                }
              ],
              "internalType": "struct OrderManagement.st_orderUser",
              "name": "buyerUser",
              "type": "tuple"
            },
            {
              "components": [
                {
                  "internalType": "string",
                  "name": "instanceName",
                  "type": "string"
                },
                {
                  "internalType": "address",
                  "name": "instanceAddr",
                  "type": "address"
                }
              ],
              "internalType": "struct OrderManagement.st_orderUser",
              "name": "sellerUser",
              "type": "tuple"
            },
            {
              "internalType": "enum EnumsLibrary.OrderStatus",
              "name": "statusOrder",
              "type": "uint8"
            }
          ],
          "internalType": "struct OrderManagement.st_obatOrderRetailer",
          "name": "",
          "type": "tuple"
        },
        {
          "components": [
            {
              "internalType": "uint256",
              "name": "timestampOrder",
              "type": "uint256"
            },
            {
              "internalType": "uint256",
              "name": "timestampShipped",
              "type": "uint256"
            },
            {
              "internalType": "uint256",
              "name": "timestampComplete",
              "type": "uint256"
            }
          ],
          "internalType": "struct OrderManagement.st_orderTimestamp",
          "name": "",
          "type": "tuple"
        },
        {
          "internalType": "string[]",
          "name": "",
          "type": "string[]"
        }
      ],
      "stateMutability": "view",
      "type": "function"
    },
    {
      "inputs": [
        {
          "internalType": "string",
          "name": "_instanceName",
          "type": "string"
        }
      ],
      "name": "getAllObatPbfByInstance",
      "outputs": [
        {
          "components": [
            {
              "internalType": "string",
              "name": "orderId",
              "type": "string"
            },
            {
              "internalType": "string",
              "name": "obatId",
              "type": "string"
            },
            {
              "internalType": "string",
              "name": "namaProduk",
              "type": "string"
            },
            {
              "internalType": "string",
              "name": "batchName",
              "type": "string"
            },
            {
              "internalType": "uint8",
              "name": "obatQuantity",
              "type": "uint8"
            },
            {
              "internalType": "enum EnumsLibrary.ObatAvailability",
              "name": "statusStok",
              "type": "uint8"
            },
            {
              "internalType": "string",
              "name": "ownerInstance",
              "type": "string"
            }
          ],
          "internalType": "struct ObatShared.st_obatOutputStock[]",
          "name": "",
          "type": "tuple[]"
        }
      ],
      "stateMutability": "view",
      "type": "function"
    },
    {
      "inputs": [],
      "name": "getAllObatPbfReadyStock",
      "outputs": [
        {
          "components": [
            {
              "internalType": "string",
              "name": "orderId",
              "type": "string"
            },
            {
              "internalType": "string",
              "name": "obatId",
              "type": "string"
            },
            {
              "internalType": "string",
              "name": "namaProduk",
              "type": "string"
            },
            {
              "internalType": "string",
              "name": "batchName",
              "type": "string"
            },
            {
              "internalType": "uint8",
              "name": "obatQuantity",
              "type": "uint8"
            },
            {
              "internalType": "enum EnumsLibrary.ObatAvailability",
              "name": "statusStok",
              "type": "uint8"
            },
            {
              "internalType": "string",
              "name": "ownerInstance",
              "type": "string"
            }
          ],
          "internalType": "struct ObatShared.st_obatOutputStock[]",
          "name": "",
          "type": "tuple[]"
        }
      ],
      "stateMutability": "view",
      "type": "function"
    },
    {
      "inputs": [
        {
          "internalType": "string",
          "name": "_instanceName",
          "type": "string"
        }
      ],
      "name": "getAllObatRetailerByInstance",
      "outputs": [
        {
          "components": [
            {
              "internalType": "string",
              "name": "orderId",
              "type": "string"
            },
            {
              "internalType": "string",
              "name": "obatId",
              "type": "string"
            },
            {
              "internalType": "string",
              "name": "namaProduk",
              "type": "string"
            },
            {
              "internalType": "string",
              "name": "batchName",
              "type": "string"
            },
            {
              "internalType": "uint8",
              "name": "obatQuantity",
              "type": "uint8"
            },
            {
              "internalType": "enum EnumsLibrary.ObatAvailability",
              "name": "statusStok",
              "type": "uint8"
            },
            {
              "internalType": "string",
              "name": "ownerInstance",
              "type": "string"
            }
          ],
          "internalType": "struct ObatShared.st_obatOutputStock[]",
          "name": "",
          "type": "tuple[]"
        }
      ],
      "stateMutability": "view",
      "type": "function"
    },
    {
      "inputs": [
        {
          "internalType": "string",
          "name": "_buyerInstance",
          "type": "string"
        }
      ],
      "name": "getAllOrderFromBuyer",
      "outputs": [
        {
          "components": [
            {
              "internalType": "string",
              "name": "orderId",
              "type": "string"
            },
            {
              "internalType": "string",
              "name": "obatId",
              "type": "string"
            },
            {
              "internalType": "string",
              "name": "namaProduk",
              "type": "string"
            },
            {
              "internalType": "string",
              "name": "batchName",
              "type": "string"
            },
            {
              "internalType": "uint8",
              "name": "orderQuantity",
              "type": "uint8"
            },
            {
              "components": [
                {
                  "internalType": "string",
                  "name": "instanceName",
                  "type": "string"
                },
                {
                  "internalType": "address",
                  "name": "instanceAddr",
                  "type": "address"
                }
              ],
              "internalType": "struct OrderManagement.st_orderUser",
              "name": "buyerUser",
              "type": "tuple"
            },
            {
              "components": [
                {
                  "internalType": "string",
                  "name": "instanceName",
                  "type": "string"
                },
                {
                  "internalType": "address",
                  "name": "instanceAddr",
                  "type": "address"
                }
              ],
              "internalType": "struct OrderManagement.st_orderUser",
              "name": "sellerUser",
              "type": "tuple"
            },
            {
              "internalType": "enum EnumsLibrary.OrderStatus",
              "name": "statusOrder",
              "type": "uint8"
            }
          ],
          "internalType": "struct OrderManagement.st_obatOrder[]",
          "name": "",
          "type": "tuple[]"
        }
      ],
      "stateMutability": "view",
      "type": "function"
    },
    {
      "inputs": [
        {
          "internalType": "string",
          "name": "_buyerInstance",
          "type": "string"
        }
      ],
      "name": "getAllOrderFromBuyerRetailer",
      "outputs": [
        {
          "components": [
            {
              "internalType": "string",
              "name": "prevOrderIdPbf",
              "type": "string"
            },
            {
              "internalType": "string",
              "name": "orderId",
              "type": "string"
            },
            {
              "internalType": "string",
              "name": "obatId",
              "type": "string"
            },
            {
              "internalType": "string",
              "name": "namaProduk",
              "type": "string"
            },
            {
              "internalType": "string",
              "name": "batchName",
              "type": "string"
            },
            {
              "internalType": "uint8",
              "name": "orderQuantity",
              "type": "uint8"
            },
            {
              "components": [
                {
                  "internalType": "string",
                  "name": "instanceName",
                  "type": "string"
                },
                {
                  "internalType": "address",
                  "name": "instanceAddr",
                  "type": "address"
                }
              ],
              "internalType": "struct OrderManagement.st_orderUser",
              "name": "buyerUser",
              "type": "tuple"
            },
            {
              "components": [
                {
                  "internalType": "string",
                  "name": "instanceName",
                  "type": "string"
                },
                {
                  "internalType": "address",
                  "name": "instanceAddr",
                  "type": "address"
                }
              ],
              "internalType": "struct OrderManagement.st_orderUser",
              "name": "sellerUser",
              "type": "tuple"
            },
            {
              "internalType": "enum EnumsLibrary.OrderStatus",
              "name": "statusOrder",
              "type": "uint8"
            }
          ],
          "internalType": "struct OrderManagement.st_obatOrderRetailer[]",
          "name": "",
          "type": "tuple[]"
        }
      ],
      "stateMutability": "view",
      "type": "function"
    },
    {
      "inputs": [
        {
          "internalType": "string",
          "name": "_sellerInstance",
          "type": "string"
        }
      ],
      "name": "getAllOrderFromSeller",
      "outputs": [
        {
          "components": [
            {
              "internalType": "string",
              "name": "orderId",
              "type": "string"
            },
            {
              "internalType": "string",
              "name": "obatId",
              "type": "string"
            },
            {
              "internalType": "string",
              "name": "namaProduk",
              "type": "string"
            },
            {
              "internalType": "string",
              "name": "batchName",
              "type": "string"
            },
            {
              "internalType": "uint8",
              "name": "orderQuantity",
              "type": "uint8"
            },
            {
              "components": [
                {
                  "internalType": "string",
                  "name": "instanceName",
                  "type": "string"
                },
                {
                  "internalType": "address",
                  "name": "instanceAddr",
                  "type": "address"
                }
              ],
              "internalType": "struct OrderManagement.st_orderUser",
              "name": "buyerUser",
              "type": "tuple"
            },
            {
              "components": [
                {
                  "internalType": "string",
                  "name": "instanceName",
                  "type": "string"
                },
                {
                  "internalType": "address",
                  "name": "instanceAddr",
                  "type": "address"
                }
              ],
              "internalType": "struct OrderManagement.st_orderUser",
              "name": "sellerUser",
              "type": "tuple"
            },
            {
              "internalType": "enum EnumsLibrary.OrderStatus",
              "name": "statusOrder",
              "type": "uint8"
            }
          ],
          "internalType": "struct OrderManagement.st_obatOrder[]",
          "name": "",
          "type": "tuple[]"
        }
      ],
      "stateMutability": "view",
      "type": "function"
    },
    {
      "inputs": [
        {
          "internalType": "string",
          "name": "_sellerInstance",
          "type": "string"
        }
      ],
      "name": "getAllOrderFromSellerRetailer",
      "outputs": [
        {
          "components": [
            {
              "internalType": "string",
              "name": "prevOrderIdPbf",
              "type": "string"
            },
            {
              "internalType": "string",
              "name": "orderId",
              "type": "string"
            },
            {
              "internalType": "string",
              "name": "obatId",
              "type": "string"
            },
            {
              "internalType": "string",
              "name": "namaProduk",
              "type": "string"
            },
            {
              "internalType": "string",
              "name": "batchName",
              "type": "string"
            },
            {
              "internalType": "uint8",
              "name": "orderQuantity",
              "type": "uint8"
            },
            {
              "components": [
                {
                  "internalType": "string",
                  "name": "instanceName",
                  "type": "string"
                },
                {
                  "internalType": "address",
                  "name": "instanceAddr",
                  "type": "address"
                }
              ],
              "internalType": "struct OrderManagement.st_orderUser",
              "name": "buyerUser",
              "type": "tuple"
            },
            {
              "components": [
                {
                  "internalType": "string",
                  "name": "instanceName",
                  "type": "string"
                },
                {
                  "internalType": "address",
                  "name": "instanceAddr",
                  "type": "address"
                }
              ],
              "internalType": "struct OrderManagement.st_orderUser",
              "name": "sellerUser",
              "type": "tuple"
            },
            {
              "internalType": "enum EnumsLibrary.OrderStatus",
              "name": "statusOrder",
              "type": "uint8"
            }
          ],
          "internalType": "struct OrderManagement.st_obatOrderRetailer[]",
          "name": "",
          "type": "tuple[]"
        }
      ],
      "stateMutability": "view",
      "type": "function"
    },
    {
      "inputs": [],
      "name": "getAvailableObatFromFactory",
      "outputs": [
        {
          "components": [
            {
              "internalType": "string",
              "name": "obatId",
              "type": "string"
            },
            {
              "internalType": "string",
              "name": "namaProduk",
              "type": "string"
            },
            {
              "internalType": "string",
              "name": "batchName",
              "type": "string"
            },
            {
              "internalType": "uint8",
              "name": "obatQuantity",
              "type": "uint8"
            },
            {
              "internalType": "enum EnumsLibrary.ObatAvailability",
              "name": "statusStok",
              "type": "uint8"
            },
            {
              "internalType": "string",
              "name": "ownerInstance",
              "type": "string"
            }
          ],
          "internalType": "struct ObatTradisional.st_obatOutputBatch[]",
          "name": "",
          "type": "tuple[]"
        }
      ],
      "stateMutability": "view",
      "type": "function"
    },
    {
      "inputs": [],
      "name": "obatShared",
      "outputs": [
        {
          "internalType": "contract ObatShared",
          "name": "",
          "type": "address"
        }
      ],
      "stateMutability": "view",
      "type": "function"
    },
    {
      "inputs": [],
      "name": "obatTradisional",
      "outputs": [
        {
          "internalType": "contract ObatTradisional",
          "name": "",
          "type": "address"
        }
      ],
      "stateMutability": "view",
      "type": "function"
    },
    {
      "inputs": [],
      "name": "roleManager",
      "outputs": [
        {
          "internalType": "contract RoleManager",
          "name": "",
          "type": "address"
        }
      ],
      "stateMutability": "view",
      "type": "function"
    }
  ],
  "bytecode": "0x60803460a257601f612be138819003918201601f19168301916001600160401b0383118484101760a75780849260609460405283398101031260a25760428160bd565b6056604060506020850160bd565b930160bd565b600180546001600160a01b039485166001600160a01b031991821617909155600080549385169382169390931790925560028054919093169116179055604051612b1090816100d18239f35b600080fd5b634e487b7160e01b600052604160045260246000fd5b51906001600160a01b038216820360a25756fe608080604052600436101561001357600080fd5b600090813560e01c908162435da51461194f57508063059436131461189d5780631c2fc292146117e15780633fca88cb146117b857806360e4b3cf146116f257806364484ac914611519578063756b460f146113865780637ad30187146110fe5780637ed35ba514611033578063906ce01714610fde578063986a079014610ed8578063af9bf53d14610bcf578063bde9ac5414610931578063ce7ab1c7146105b5578063d3179bda146104d3578063dd5739ae14610426578063e1336da5146103c3578063ea020d591461039c578063ee399ed4146101b75763f07b2c7a146100fc57600080fd5b346101b45760203660031901126101b457600435816001600160401b0382116101b45761013061015e923690600401611a34565b60018060a01b0360025416604051808095819463783d963d60e11b8352602060048401526024830190611aa3565b03915afa9081156101a957826101829392610186575b505060405191829182611e5b565b0390f35b6101a292503d8091833e61019a81836119f8565b81019061275b565b3880610174565b6040513d84823e3d90fd5b80fd5b50346101b4576102006101c936611d2e565b9290604051916102076001835194602081818701976101e981838b611a80565b810160068152030190200160405195868092611fa1565b03856119f8565b6008604051602081855161021c81838a611a80565b6006908201908152030190200180546001600160a01b03191633179055604051825160099190602090829061025281838a611a80565b8101600681520301902001600160ff198254161790556040516001835161027a818488611a80565b820191600883526020814294030190200155805b85518110156102d1576001906102cb60405160208187516102b081838c611a80565b810160048152030190206102c4838a612331565b5190612569565b0161028e565b508385829460036102fa602060018060a01b036002541693604051809381928b51928391611a80565b810160068152030190200190803b156103985761033f8561035195610363829660405198899788968795631d38299760e31b8752606060048801526064870190611aa3565b85810360031901602487015290611fa1565b83810360031901604485015290611bcb565b03925af180156101a95761037f575b5061037c826129ca565b80f35b81610389916119f8565b610394578183610372565b5080fd5b8480fd5b50346101b457806003193601126101b457546040516001600160a01b039091168152602090f35b50346101b45760203660031901126101b457600435816001600160401b0382116101b4576103f861015e923690600401611a34565b60018060a01b0360025416604051808095819463e1336da560e01b8352602060048401526024830190611aa3565b50346101b45760203660031901126101b457600435600354811015610394576003548110156104bf57600382527fc2575a0e9e593c00f959f8c92f12db2869c3395a3b0502d05e2516446f71f85b0190806104ab5760405161018290610497816104908187611fa1565b03826119f8565b604051918291602083526020830190611aa3565b634e487b7160e01b81526004819052602490fd5b634e487b7160e01b82526032600452602482fd5b50346101b45760203660031901126101b4576004356001600160401b03811161039457610504903690600401611a34565b6040518151906020818185019361051c818387611a80565b810160098152030190205491610531836126bb565b935b83811061054857604051806101828782611dee565b8061059961059461049061058f61058260019661057360208b8b604051938492839251928391611a80565b81016009815203019020611f39565b5060405192838092611fa1565b6120d9565b612141565b6105a38288612331565b526105ae8187612331565b5001610533565b50346101b457806003193601126101b457600180546040516395a8c58d60e01b81523360048201526024810192909252602090829060449082906001600160a01b03165afa9081156101a95782916108f6575b50156108c6578054604051630a1e0a4b60e41b8152908290829060049082906001600160a01b03165afa9081156101a9578291610710575b50906040519182916020830160208452825180915260408401602060408360051b870101940192905b82821061067857505050500390f35b919360019193955060206107008192603f198a820301865288519060a06106d06106be6106ae855160c0865260c0860190611aa3565b8786015185820389870152611aa3565b60408501518482036040860152611aa3565b9260ff60608201511660608401526106f060808201516080850190611e4e565b01519060a0818403910152611aa3565b9601920192018594939192610669565b90503d8083833e61072181836119f8565b8101906020818303126108be578051906001600160401b0382116108c2570181601f820112156108be5780519061075782611d17565b9261076560405194856119f8565b82845260208085019360051b830101918183116108ba5760208101935b83851061079457505050505038610640565b84516001600160401b0381116108b65782019060c0828503601f1901126108b6576040519060c082018281106001600160401b038211176108a25760405260208301516001600160401b03811161089e578560206107f49286010161270b565b825260408301516001600160401b03811161089e578560206108189286010161270b565b602083015260608301516001600160401b03811161089e5785602061083f9286010161270b565b60408301526108506080840161274d565b606083015260a0830151600281101561089e57608083015260c0830151916001600160401b03831161089e5761088e8660208096958196010161270b565b60a0820152815201940193610782565b8980fd5b634e487b7160e01b8a52604160045260248afd5b8780fd5b8580fd5b8280fd5b8380fd5b60405162461bcd60e51b815260206004820152600860248201526727b7363c9028212360c11b6044820152606490fd5b90506020813d602011610929575b81610911602093836119f8565b81010312610394575180151581036103945738610608565b3d9150610904565b50346101b45760e03660031901126101b4576004356001600160401b03811161039457610962903690600401611a34565b6024356001600160401b0381116108be57610981903690600401611a34565b6044356001600160401b0381116108c2576109a0903690600401611a34565b906064356001600160401b038111610398576109c0903690600401611a34565b6084356001600160401b0381116108ba576109df903690600401611a34565b9160a4356001600160401b038111610bcb576109ff903690600401611a34565b9360c43560ff81168091036108b657610a183386612a5b565b90610a2287612a39565b9260405195610a30876119a6565b8987526020870195865260408701908152606087019182526080870192835260a0870193845260c0870194855260e08701958b8752604051808c818151602081930191610a7c92611a80565b8101600681520360200190209751610a949089612422565b51610aa29060018901612422565b51610ab09060028801612422565b51610abe9060038701612422565b5160ff16600485019060ff1660ff198254161790555180516005850190610ae491612422565b602001516006840180546001600160a01b0319166001600160a01b0392909216919091179055518051610b1a9060078501612422565b602001516008830180546001600160a01b0319166001600160a01b039290921691909117905551906003821015610bb75760208594610b7886610b8b84610ba998610b6f61037c9c996009610b9a9a016123f3565b610b7884612522565b8160405193828580945193849201611a80565b81016009815203019020612569565b8101600a815203019020612569565b610bb281612a85565b6129ca565b634e487b7160e01b86526021600452602486fd5b8680fd5b50346101b457610bde36611d2e565b919060405190610c0b81519260208181850195610bfc818389611a80565b81016007815203019020612141565b600a6040516020818551610c2081838a611a80565b8101600781520301902001600260ff1982541617905560405160028351610c48818488611a80565b820191600883526020814294030190200155610490610c896040516020818651610c7381838b611a80565b8101600781520301902060405192838092611fa1565b610cae6040516020818651610c9f81838b611a80565b81016005815203019020612586565b60405190610cd981519260208181850195610cca818389611a80565b81016004815203019020612586565b855b8751811015610d1957600190610d1360405160208180610cff8c8c51928391611a80565b810160058152030190206102c4838c612331565b01610cdb565b50858794815b8651811015610d5b57600190610d556040516020818851610d4181838d611a80565b810160048152030190206102c4838b612331565b01610d1f565b5081868660018060a01b0360025416604082018051916080840192835190823b156108b657610da692889283899360405196879586948593631d38299760e31b85526004850161260f565b03925af1908115610eb8578691610ec3575b50506002548251906001600160a01b0316803b15610bcb57610dfd8791610e0f9383604051809681958294627481d960e01b8452604060048501526044840190611aa3565b8281036003190160248401528c611bcb565b03925af1908115610eb8578691610ea3575b505060018060a01b03600254169051606084015192519460c060ff60a0870151169501515191833b156108b657610e75899389979388946040519a8b998a9889976306d512ff60e21b895260048901612646565b03925af180156101a957610e8e575b5061037c82612956565b81610e98916119f8565b610394578183610e84565b81610ead916119f8565b610398578488610e21565b6040513d88823e3d90fd5b81610ecd916119f8565b610398578488610db8565b50346101b45760203660031901126101b457600435906001600160401b0382116101b457610fb2610f0c3660048501611a34565b610f14612293565b50610f1d612094565b50610182604051610f9b610f95610f8f610f7f60208751958181818b0198610f4681838c611a80565b810160068152030190209560405182818b51610f63818387611a80565b8101600881520301902098604051938492839251928391611a80565b8101600481520301902093612345565b9461220b565b91612233565b610fd160405195869560a0875260a0870190611c24565b9260208601906040809180518452602081015160208501520151910152565b8382036080850152611bcb565b50346101b457806003193601126101b45760025460405163906ce01760e01b8152908290829060049082906001600160a01b03165afa9081156101a95782610182939261018657505060405191829182611e5b565b50346101b45760203660031901126101b4576004356001600160401b03811161039457611064903690600401611a34565b6040518151906020818185019361107c818387611a80565b8101600a8152030190205491611091836126bb565b935b8381106110a857604051806101828782611dee565b806110e261059461049061058f6105826001966110d360208b8b604051938492839251928391611a80565b8101600a815203019020611f39565b6110ec8288612331565b526110f78187612331565b5001611093565b50346101b4576101003660031901126101b4576004356001600160401b03811161039457611130903690600401611a34565b6024356001600160401b0381116108be5761114f903690600401611a34565b906044356001600160401b0381116108c25761116f903690600401611a34565b6064356001600160401b0381116103985761118e903690600401611a34565b916084356001600160401b0381116108ba576111ae903690600401611a34565b9160a4356001600160401b038111610bcb576111ce903690600401611a34565b9260c4356001600160401b0381116108b6576111ee903690600401611a34565b9460e43560ff8116809103611382576112073387612a5b565b9161121188612a39565b936040519661121f88611974565b875260208701958a875260408801908152606088019182526080880192835260a0880193845260c0880194855260e088019586526101008801968c8852604051808d81815160208193019161127392611a80565b810160078152036020019020985161128b908a612422565b516112999060018a01612422565b516112a79060028901612422565b516112b59060038801612422565b516112c39060048701612422565b5160ff16600585019060ff1660ff1982541617905551805160068501906112e991612422565b602001516007840180546001600160a01b0319166001600160a01b039290921691909117905551805161131f9060088501612422565b602001516009830180546001600160a01b0319166001600160a01b039290921691909117905551906003821015610bb75760208594610b7886610b8b8461137498610b6f61037c9c99600a610b9a9a016123f3565b61137d81612a85565b612956565b8880fd5b50346101b45761139536611d2e565b9190604051906113c2815192602081818501956113b3818389611a80565b81016006815203019020612345565b92600960405160208185516113d881838a611a80565b8101600681520301902001600260ff1982541617905560405160028351611400818488611a80565b8201916008835260208142940301902001556114286040516020818551610cca81838a611a80565b805b85518110156114525760019061144c60405160208187516102b081838c611a80565b0161142a565b509081858560018060a01b0360025416602082018051916060840192835190823b156108b65761149e92889283899360405196879586948593631d38299760e31b85526004850161260f565b03925af1908115610eb8578691611504575b505060018060a01b03600254169051604084015192519460a060ff6080870151169501515191833b156108b657610363899389979388946040519a8b998a9889976301fabf1f60e01b895260048901612646565b8161150e916119f8565b6103985784886114b0565b50346101b45761152836611d2e565b919060405190600981519260208181850195611545818389611a80565b6007908201908152030190200180546001600160a01b031916331790556040518151600a9190602090829061157b818389611a80565b8101600781520301902001600160ff19825416179055604051600182516115a3818487611a80565b8201916008835260208142940301902001556104906115ce6040516020818551610c7381838a611a80565b835b855181101561160c5760019061160660405160208187516115f281838c611a80565b810160058152030190206102c4838a612331565b016115d0565b509192602083019291815b865181101561163f576001906116396040516020818851610d4181838d611a80565b01611617565b508482876004611667602060018060a01b036002541695604051809381928a51928391611a80565b810160078152030190200192803b156108be576116a6836116b89560405196879586948593627481d960e01b8552604060048601526044850190611fa1565b83810360031901602485015290611bcb565b03925af180156116e7576116d1575b5061037c90612956565b916116e08161037c93946119f8565b91906116c7565b6040513d85823e3d90fd5b50346101b45760203660031901126101b4576004356001600160401b03811161039457611723903690600401611a34565b6040518151906020818185019361173b818387611a80565b810160098152030190205491611750836122e1565b935b83811061176757604051806101828782611cb7565b8061179c61179761049061179261058260019661057360208b8b604051938492839251928391611a80565b6120b3565b612345565b6117a68288612331565b526117b18187612331565b5001611752565b50346101b457806003193601126101b4576002546040516001600160a01b039091168152602090f35b50346101b45760203660031901126101b4576004356001600160401b03811161039457611812903690600401611a34565b6040518151906020818185019361182a818387611a80565b8101600a815203019020549161183f836122e1565b935b83811061185657604051806101828782611cb7565b806118816117976104906117926105826001966110d360208b8b604051938492839251928391611a80565b61188b8288612331565b526118968187612331565b5001611841565b50346101b45760203660031901126101b457600435906001600160401b0382116101b457610fb26118d13660048501611a34565b6118d961203e565b506118e2612094565b50610182604051611938610f95610f8f61192860208751958181818b019861190b81838c611a80565b810160078152030190209560405182818b51610f63818387611a80565b8101600581520301902093612141565b610fd160405195869560a0875260a0870190611b14565b9050346103945781600319360112610394576001546001600160a01b03168152602090f35b61012081019081106001600160401b0382111761199057604052565b634e487b7160e01b600052604160045260246000fd5b61010081019081106001600160401b0382111761199057604052565b604081019081106001600160401b0382111761199057604052565b606081019081106001600160401b0382111761199057604052565b90601f801991011681019081106001600160401b0382111761199057604052565b6001600160401b03811161199057601f01601f191660200190565b81601f82011215611a7b57803590611a4b82611a19565b92611a5960405194856119f8565b82845260208383010111611a7b57816000926020809301838601378301015290565b600080fd5b60005b838110611a935750506000910152565b8181015183820152602001611a83565b90602091611abc81518092818552858086019101611a80565b601f01601f1916010190565b906020611ade8351604084526040840190611aa3565b928101516001600160a01b031691015290565b906003821015611afe5752565b634e487b7160e01b600052602160045260246000fd5b90611bc89061010080611bbd611bab611b8c611b7a611b68611b56611b448b516101208b526101208b0190611aa3565b60208c01518a820360208c0152611aa3565b60408b015189820360408b0152611aa3565b60608a015188820360608a0152611aa3565b60808901518782036080890152611aa3565b60ff60a08901511660a087015260c088015186820360c0880152611ac8565b60e087015185820360e0870152611ac8565b940151910190611af1565b90565b9080602083519182815201916020808360051b8301019401926000915b838310611bf757505050505090565b9091929394602080611c15600193601f198682030187528951611aa3565b97019301930191939290611be8565b90611bc89060e080611bbd611ca5611c86611c74611c62611c508a516101008a526101008a0190611aa3565b60208b015189820360208b0152611aa3565b60408a015188820360408a0152611aa3565b60608901518782036060890152611aa3565b60ff608089015116608087015260a088015186820360a0880152611ac8565b60c087015185820360c0870152611ac8565b602081016020825282518091526040820191602060408360051b8301019401926000915b838310611cea57505050505090565b9091929394602080611d08600193603f198682030187528951611c24565b97019301930191939290611cdb565b6001600160401b0381116119905760051b60200190565b906040600319830112611a7b576004356001600160401b038111611a7b5782611d5991600401611a34565b91602435906001600160401b038211611a7b5780602383011215611a7b578160040135611d8581611d17565b92611d9360405194856119f8565b8184526024602085019260051b82010191838311611a7b5760248201905b838210611dc057505050505090565b81356001600160401b038111611a7b57602091611de38760248594880101611a34565b815201910190611db1565b602081016020825282518091526040820191602060408360051b8301019401926000915b838310611e2157505050505090565b9091929394602080611e3f600193603f198682030187528951611b14565b97019301930191939290611e12565b906002821015611afe5752565b602081016020825282518091526040820191602060408360051b8301019401926000915b838310611e8e57505050505090565b9091929394602080611f2a600193603f1986820301875289519060c0611efa611ee8611ed6611ec6865160e0875260e0870190611aa3565b888701518682038a880152611aa3565b60408601518582036040870152611aa3565b60608501518482036060860152611aa3565b9260ff6080820151166080840152611f1a60a082015160a0850190611e4e565b01519060c0818403910152611aa3565b97019301930191939290611e7f565b8054821015611f515760005260206000200190600090565b634e487b7160e01b600052603260045260246000fd5b90600182811c92168015611f97575b6020831014611f8157565b634e487b7160e01b600052602260045260246000fd5b91607f1691611f76565b60009291815491611fb183611f67565b80835292600181169081156120075750600114611fcd57505050565b60009081526020812093945091925b838310611fed575060209250010190565b600181602092949394548385870101520191019190611fdc565b915050602093945060ff929192191683830152151560051b010190565b60405190612031826119c2565b6000602083606081520152565b6040519061204b82611974565b600061010083606081526060602082015260606040820152606080820152606060808201528260a082015261207e612024565b60c082015261208b612024565b60e08201520152565b604051906120a1826119dd565b60006040838281528260208201520152565b60206120cc918160405193828580945193849201611a80565b8101600681520301902090565b60206120f2918160405193828580945193849201611a80565b8101600781520301902090565b9060405161210c816119c2565b60208193604051612121816104908185611fa1565b8352600101546001600160a01b0316910152565b6003821015611afe5752565b9061220960405161215181611974565b61010060ff600a839660405161216b816104908185611fa1565b8552604051612181816104908160018601611fa1565b602086015260405161219a816104908160028601611fa1565b60408601526040516121b3816104908160038601611fa1565b60608601526040516121cc816104908160048601611fa1565b60808601528260058201541660a08601526121e9600682016120ff565b60c08601526121fa600882016120ff565b60e08601520154169101612135565b565b90604051612218816119dd565b60406002829480548452600181015460208501520154910152565b90815461223f81611d17565b9261224d60405194856119f8565b818452602084019060005260206000206000915b83831061226e5750505050565b600160208192604051612285816104908189611fa1565b815201920192019190612261565b604051906122a0826119a6565b600060e0836060815260606020820152606060408201526060808201528260808201526122cb612024565b60a08201526122d8612024565b60c08201520152565b906122eb82611d17565b6122f860405191826119f8565b8281528092612309601f1991611d17565b019060005b82811061231a57505050565b602090612325612293565b8282850101520161230e565b8051821015611f515760209160051b010190565b90612209604051612355816119a6565b60e060ff6009839660405161236e816104908185611fa1565b8552604051612384816104908160018601611fa1565b602086015260405161239d816104908160028601611fa1565b60408601526040516123b6816104908160038601611fa1565b60608601528260048201541660808601526123d3600582016120ff565b60a08601526123e4600782016120ff565b60c08601520154169101612135565b906003811015611afe5760ff80198354169116179055565b818110612416575050565b6000815560010161240b565b91909182516001600160401b0381116119905761243f8254611f67565b601f81116124e5575b506020601f82116001146124835781929394600092612478575b50508160011b916000199060031b1c1916179055565b015190503880612462565b601f1982169083600052806000209160005b8181106124cd575095836001959697106124b4575b505050811b019055565b015160001960f88460031b161c191690553880806124aa565b9192602060018192868b015181550194019201612495565b61251290836000526020600020601f840160051c81019160208510612518575b601f0160051c019061240b565b38612448565b9091508190612505565b600354600160401b8110156119905780600161254392016003556003611f39565b9190916125535761220991612422565b634e487b7160e01b600052600060045260246000fd5b8054600160401b8110156119905761254391600182018155611f39565b8054906000815581612596575050565b6000526020600020908101905b8181106125ae575050565b806125bb60019254611f67565b806125c8575b50016125a3565b601f811183146125de5750600081555b386125c1565b6125fc908260005283601f6020600020920160051c8201910161240b565b80600052600060208120818355556125d8565b916126389061262a611bc89593606086526060860190611aa3565b908482036020860152611aa3565b916040818403910152611bcb565b95916126ad9461268b611bc899979561267d6126999461266f60ff9760e08e8181520190611aa3565b8c810360208e015290611aa3565b908a820360408c0152611aa3565b9088820360608a0152611aa3565b9216608086015284820360a0860152611bcb565b9160c0818403910152611aa3565b906126c582611d17565b6126d260405191826119f8565b82815280926126e3601f1991611d17565b019060005b8281106126f457505050565b6020906126ff61203e565b828285010152016126e8565b81601f82011215611a7b57805161272181611a19565b9261272f60405194856119f8565b81845260208284010111611a7b57611bc89160208085019101611a80565b519060ff82168203611a7b57565b602081830312611a7b578051906001600160401b038211611a7b57019080601f83011215611a7b5781519161278f83611d17565b9261279d60405194856119f8565b80845260208085019160051b83010191838311611a7b5760208101915b8383106127c957505050505090565b82516001600160401b038111611a7b5782019060e0828703601f190112611a7b576040519060e082018281106001600160401b038211176119905760405260208301516001600160401b038111611a7b578760206128299286010161270b565b825260408301516001600160401b038111611a7b5787602061284d9286010161270b565b602083015260608301516001600160401b038111611a7b578760206128749286010161270b565b604083015260808301516001600160401b038111611a7b5787602061289b9286010161270b565b60608301526128ac60a0840161274d565b608083015260c08301516002811015611a7b5760a083015260e0830151916001600160401b038311611a7b576128ea8860208096958196010161270b565b60c08201528152019201916127ba565b929361293d60a09561292f60ff9561292161294b969c9b9a9c60c08a5260c08a0190611aa3565b9088820360208a0152611aa3565b908682036040880152611aa3565b908482036060860152611aa3565b951660808201520152565b612993610bfc60207f18cb8d3b57e0af2974ed846dca439c7419023ccdf40b1d07099e3950c47c10b3938160405193828580945193849201611a80565b60808101516129c560608301519160c0840151519360ff60a060e08301515192015116906040519586954294876128fa565b0390a1565b612a076113b360207f18cb8d3b57e0af2974ed846dca439c7419023ccdf40b1d07099e3950c47c10b3938160405193828580945193849201611a80565b60608101516129c560408301519160a0840151519360ff608060c08301515192015116906040519586954294876128fa565b612a41612024565b5060405190612a4f826119c2565b81526000602082015290565b90612a64612024565b5060405191612a72836119c2565b82526001600160a01b0316602082015290565b600260405191612a94836119dd565b4283526020830160008152612ac060206040860193600085528160405193828580945193849201611a80565b81016008815203019020935184555160018401555191015556fea2646970667358221220b7a51691a34fd7d016a4b28f63ad252c4409873cb74b53df236e24f4ed820af164736f6c634300081b0033",
  "linkReferences": {},
  "deployedLinkReferences": {}
}