{
  "_format": "hh-sol-artifact-1",
  "contractName": "OrderManagement",
  "sourceName": "contracts/OrderManagement.sol",
  "abi": [
    {
      "inputs": [
        {
          "internalType": "address",
          "name": "_obatTradisionalAddr",
          "type": "address"
        },
        {
          "internalType": "address",
          "name": "_roleManagerAddr",
          "type": "address"
        }
      ],
      "stateMutability": "nonpayable",
      "type": "constructor"
    },
    {
      "anonymous": false,
      "inputs": [
        {
          "indexed": false,
          "internalType": "string",
          "name": "namaProduk",
          "type": "string"
        },
        {
          "indexed": false,
          "internalType": "uint8",
          "name": "quantity",
          "type": "uint8"
        },
        {
          "indexed": false,
          "internalType": "string",
          "name": "orderId",
          "type": "string"
        },
        {
          "indexed": false,
          "internalType": "string",
          "name": "senderInstanceName",
          "type": "string"
        },
        {
          "indexed": false,
          "internalType": "string",
          "name": "targetInstanceName",
          "type": "string"
        },
        {
          "indexed": false,
          "internalType": "uint256",
          "name": "latestTimestamp",
          "type": "uint256"
        }
      ],
      "name": "evt_obatOrdered",
      "type": "event"
    },
    {
      "anonymous": false,
      "inputs": [
        {
          "indexed": false,
          "internalType": "string",
          "name": "namaProduk",
          "type": "string"
        },
        {
          "indexed": false,
          "internalType": "string",
          "name": "batchName",
          "type": "string"
        },
        {
          "indexed": false,
          "internalType": "string",
          "name": "targetInstance",
          "type": "string"
        },
        {
          "indexed": false,
          "internalType": "string",
          "name": "senderInstance",
          "type": "string"
        },
        {
          "indexed": false,
          "internalType": "uint8",
          "name": "quantity",
          "type": "uint8"
        },
        {
          "indexed": false,
          "internalType": "uint256",
          "name": "latestTimestamp",
          "type": "uint256"
        }
      ],
      "name": "evt_updateOrder",
      "type": "event"
    },
    {
      "inputs": [
        {
          "internalType": "string",
          "name": "_batchName",
          "type": "string"
        },
        {
          "internalType": "string",
          "name": "_orderId",
          "type": "string"
        },
        {
          "internalType": "string",
          "name": "_obatId",
          "type": "string"
        },
        {
          "internalType": "string[]",
          "name": "_obatIpfsHash",
          "type": "string[]"
        }
      ],
      "name": "acceptOrder",
      "outputs": [],
      "stateMutability": "nonpayable",
      "type": "function"
    },
    {
      "inputs": [
        {
          "internalType": "uint256",
          "name": "",
          "type": "uint256"
        }
      ],
      "name": "allObatPbf",
      "outputs": [
        {
          "internalType": "string",
          "name": "orderId",
          "type": "string"
        },
        {
          "internalType": "string",
          "name": "batchName",
          "type": "string"
        },
        {
          "internalType": "string",
          "name": "obatIdProduk",
          "type": "string"
        },
        {
          "internalType": "string",
          "name": "namaProduk",
          "type": "string"
        },
        {
          "internalType": "enum OrderManagement.en_obatAvailability",
          "name": "statusStok",
          "type": "uint8"
        },
        {
          "internalType": "uint8",
          "name": "obatQuantity",
          "type": "uint8"
        },
        {
          "internalType": "string",
          "name": "ownerInstanceName",
          "type": "string"
        }
      ],
      "stateMutability": "view",
      "type": "function"
    },
    {
      "inputs": [
        {
          "internalType": "uint256",
          "name": "",
          "type": "uint256"
        }
      ],
      "name": "allObatRetailer",
      "outputs": [
        {
          "internalType": "string",
          "name": "orderId",
          "type": "string"
        },
        {
          "internalType": "string",
          "name": "batchName",
          "type": "string"
        },
        {
          "internalType": "string",
          "name": "obatIdProduk",
          "type": "string"
        },
        {
          "internalType": "string",
          "name": "namaProduk",
          "type": "string"
        },
        {
          "internalType": "enum OrderManagement.en_obatAvailability",
          "name": "statusStok",
          "type": "uint8"
        },
        {
          "internalType": "uint8",
          "name": "obatQuantity",
          "type": "uint8"
        },
        {
          "internalType": "string",
          "name": "ownerInstanceName",
          "type": "string"
        }
      ],
      "stateMutability": "view",
      "type": "function"
    },
    {
      "inputs": [
        {
          "internalType": "uint256",
          "name": "",
          "type": "uint256"
        }
      ],
      "name": "allOrderedObat",
      "outputs": [
        {
          "internalType": "string",
          "name": "orderId",
          "type": "string"
        },
        {
          "internalType": "string",
          "name": "namaProduk",
          "type": "string"
        },
        {
          "internalType": "string",
          "name": "obatIdProduk",
          "type": "string"
        },
        {
          "internalType": "string",
          "name": "batchName",
          "type": "string"
        },
        {
          "internalType": "uint8",
          "name": "orderQuantity",
          "type": "uint8"
        },
        {
          "internalType": "string",
          "name": "senderInstanceName",
          "type": "string"
        },
        {
          "internalType": "string",
          "name": "targetInstanceName",
          "type": "string"
        },
        {
          "internalType": "enum OrderManagement.en_orderStatus",
          "name": "statusOrder",
          "type": "uint8"
        },
        {
          "internalType": "uint256",
          "name": "timestampOrder",
          "type": "uint256"
        },
        {
          "internalType": "uint256",
          "name": "timestampShipped",
          "type": "uint256"
        },
        {
          "internalType": "uint256",
          "name": "timestampComplete",
          "type": "uint256"
        }
      ],
      "stateMutability": "view",
      "type": "function"
    },
    {
      "inputs": [
        {
          "internalType": "string",
          "name": "_orderId",
          "type": "string"
        }
      ],
      "name": "completeOrder",
      "outputs": [],
      "stateMutability": "nonpayable",
      "type": "function"
    },
    {
      "inputs": [
        {
          "internalType": "string",
          "name": "_obatIdProduk",
          "type": "string"
        },
        {
          "internalType": "string",
          "name": "_orderId",
          "type": "string"
        },
        {
          "internalType": "string",
          "name": "_namaProduk",
          "type": "string"
        },
        {
          "internalType": "uint8",
          "name": "_orderQuantity",
          "type": "uint8"
        },
        {
          "internalType": "string",
          "name": "_senderInstanceName",
          "type": "string"
        },
        {
          "internalType": "address",
          "name": "_senderInstanceAddr",
          "type": "address"
        },
        {
          "internalType": "string",
          "name": "_targetInstanceName",
          "type": "string"
        }
      ],
      "name": "createOrder",
      "outputs": [],
      "stateMutability": "nonpayable",
      "type": "function"
    },
    {
      "inputs": [
        {
          "internalType": "string",
          "name": "_orderId",
          "type": "string"
        }
      ],
      "name": "getDetailOrderedObat",
      "outputs": [
        {
          "internalType": "uint8",
          "name": "orderQuantity",
          "type": "uint8"
        },
        {
          "internalType": "string",
          "name": "senderInstanceName",
          "type": "string"
        },
        {
          "internalType": "uint8",
          "name": "statusOrder",
          "type": "uint8"
        },
        {
          "internalType": "string",
          "name": "targetInstanceName",
          "type": "string"
        },
        {
          "internalType": "string[]",
          "name": "orderObatIpfsHash",
          "type": "string[]"
        },
        {
          "internalType": "uint256",
          "name": "timestampOrder",
          "type": "uint256"
        },
        {
          "internalType": "uint256",
          "name": "timestampShipped",
          "type": "uint256"
        },
        {
          "internalType": "uint256",
          "name": "timestampComplete",
          "type": "uint256"
        }
      ],
      "stateMutability": "view",
      "type": "function"
    },
    {
      "inputs": [
        {
          "internalType": "string",
          "name": "_obatId",
          "type": "string"
        },
        {
          "internalType": "string",
          "name": "_userInstanceName",
          "type": "string"
        }
      ],
      "name": "getDetailPbfObat",
      "outputs": [
        {
          "components": [
            {
              "internalType": "string",
              "name": "orderId",
              "type": "string"
            },
            {
              "internalType": "string",
              "name": "batchName",
              "type": "string"
            },
            {
              "internalType": "string",
              "name": "obatIdProduk",
              "type": "string"
            },
            {
              "internalType": "string",
              "name": "namaProduk",
              "type": "string"
            },
            {
              "internalType": "enum OrderManagement.en_obatAvailability",
              "name": "statusStok",
              "type": "uint8"
            },
            {
              "internalType": "uint8",
              "name": "obatQuantity",
              "type": "uint8"
            },
            {
              "internalType": "string[]",
              "name": "obatIpfsHash",
              "type": "string[]"
            },
            {
              "internalType": "string",
              "name": "ownerInstanceName",
              "type": "string"
            }
          ],
          "internalType": "struct OrderManagement.st_obatPbf",
          "name": "",
          "type": "tuple"
        }
      ],
      "stateMutability": "view",
      "type": "function"
    },
    {
      "inputs": [
        {
          "internalType": "string",
          "name": "_obatId",
          "type": "string"
        },
        {
          "internalType": "string",
          "name": "_userInstanceName",
          "type": "string"
        }
      ],
      "name": "getDetailRetailerObat",
      "outputs": [
        {
          "components": [
            {
              "internalType": "string",
              "name": "orderId",
              "type": "string"
            },
            {
              "internalType": "string",
              "name": "batchName",
              "type": "string"
            },
            {
              "internalType": "string",
              "name": "obatIdProduk",
              "type": "string"
            },
            {
              "internalType": "string",
              "name": "namaProduk",
              "type": "string"
            },
            {
              "internalType": "enum OrderManagement.en_obatAvailability",
              "name": "statusStok",
              "type": "uint8"
            },
            {
              "internalType": "uint8",
              "name": "obatQuantity",
              "type": "uint8"
            },
            {
              "internalType": "string[]",
              "name": "obatIpfsHash",
              "type": "string[]"
            },
            {
              "internalType": "string",
              "name": "ownerInstanceName",
              "type": "string"
            }
          ],
          "internalType": "struct OrderManagement.st_obatRetailer",
          "name": "",
          "type": "tuple"
        }
      ],
      "stateMutability": "view",
      "type": "function"
    },
    {
      "inputs": [
        {
          "internalType": "string",
          "name": "_senderInstanceName",
          "type": "string"
        }
      ],
      "name": "getListAllOrderedObatFromSender",
      "outputs": [
        {
          "internalType": "string[]",
          "name": "orderIdArray",
          "type": "string[]"
        },
        {
          "internalType": "string[]",
          "name": "namaProdukArray",
          "type": "string[]"
        },
        {
          "internalType": "uint8[]",
          "name": "statusOrderArray",
          "type": "uint8[]"
        },
        {
          "internalType": "uint8[]",
          "name": "obatQuantityArray",
          "type": "uint8[]"
        },
        {
          "internalType": "string[]",
          "name": "obatIdProdukArray",
          "type": "string[]"
        },
        {
          "internalType": "string[]",
          "name": "batchNameArray",
          "type": "string[]"
        }
      ],
      "stateMutability": "view",
      "type": "function"
    },
    {
      "inputs": [
        {
          "internalType": "string",
          "name": "_targetInstanceName",
          "type": "string"
        }
      ],
      "name": "getListAllOrderedObatFromTarget",
      "outputs": [
        {
          "internalType": "string[]",
          "name": "orderIdArray",
          "type": "string[]"
        },
        {
          "internalType": "string[]",
          "name": "namaProdukArray",
          "type": "string[]"
        },
        {
          "internalType": "uint8[]",
          "name": "statusOrderArray",
          "type": "uint8[]"
        },
        {
          "internalType": "uint8[]",
          "name": "obatQuantityArray",
          "type": "uint8[]"
        },
        {
          "internalType": "string[]",
          "name": "obatIdProdukArray",
          "type": "string[]"
        },
        {
          "internalType": "string[]",
          "name": "batchNameArray",
          "type": "string[]"
        }
      ],
      "stateMutability": "view",
      "type": "function"
    },
    {
      "inputs": [
        {
          "internalType": "string",
          "name": "_instanceName",
          "type": "string"
        }
      ],
      "name": "getListAllReadyObatPbf",
      "outputs": [
        {
          "internalType": "string[]",
          "name": "obatIdProduk",
          "type": "string[]"
        },
        {
          "internalType": "string[]",
          "name": "namaProduk",
          "type": "string[]"
        },
        {
          "internalType": "uint8[]",
          "name": "obatQuantity",
          "type": "uint8[]"
        },
        {
          "internalType": "string[]",
          "name": "batchName",
          "type": "string[]"
        }
      ],
      "stateMutability": "view",
      "type": "function"
    },
    {
      "inputs": [
        {
          "internalType": "string",
          "name": "_instanceName",
          "type": "string"
        }
      ],
      "name": "getListAllReadyObatRetailer",
      "outputs": [
        {
          "internalType": "string[]",
          "name": "obatIdProduk",
          "type": "string[]"
        },
        {
          "internalType": "string[]",
          "name": "namaProduk",
          "type": "string[]"
        },
        {
          "internalType": "uint8[]",
          "name": "obatQuantity",
          "type": "uint8[]"
        },
        {
          "internalType": "string[]",
          "name": "batchName",
          "type": "string[]"
        }
      ],
      "stateMutability": "view",
      "type": "function"
    },
    {
      "inputs": [
        {
          "internalType": "string",
          "name": "",
          "type": "string"
        }
      ],
      "name": "obatPbfByIdProduk",
      "outputs": [
        {
          "internalType": "string",
          "name": "orderId",
          "type": "string"
        },
        {
          "internalType": "string",
          "name": "batchName",
          "type": "string"
        },
        {
          "internalType": "string",
          "name": "obatIdProduk",
          "type": "string"
        },
        {
          "internalType": "string",
          "name": "namaProduk",
          "type": "string"
        },
        {
          "internalType": "enum OrderManagement.en_obatAvailability",
          "name": "statusStok",
          "type": "uint8"
        },
        {
          "internalType": "uint8",
          "name": "obatQuantity",
          "type": "uint8"
        },
        {
          "internalType": "string",
          "name": "ownerInstanceName",
          "type": "string"
        }
      ],
      "stateMutability": "view",
      "type": "function"
    },
    {
      "inputs": [
        {
          "internalType": "string",
          "name": "",
          "type": "string"
        }
      ],
      "name": "obatRetailerByIdProduk",
      "outputs": [
        {
          "internalType": "string",
          "name": "orderId",
          "type": "string"
        },
        {
          "internalType": "string",
          "name": "batchName",
          "type": "string"
        },
        {
          "internalType": "string",
          "name": "obatIdProduk",
          "type": "string"
        },
        {
          "internalType": "string",
          "name": "namaProduk",
          "type": "string"
        },
        {
          "internalType": "enum OrderManagement.en_obatAvailability",
          "name": "statusStok",
          "type": "uint8"
        },
        {
          "internalType": "uint8",
          "name": "obatQuantity",
          "type": "uint8"
        },
        {
          "internalType": "string",
          "name": "ownerInstanceName",
          "type": "string"
        }
      ],
      "stateMutability": "view",
      "type": "function"
    },
    {
      "inputs": [],
      "name": "obatTradisional",
      "outputs": [
        {
          "internalType": "contract ObatTradisional",
          "name": "",
          "type": "address"
        }
      ],
      "stateMutability": "view",
      "type": "function"
    },
    {
      "inputs": [
        {
          "internalType": "string",
          "name": "",
          "type": "string"
        }
      ],
      "name": "orderObatById",
      "outputs": [
        {
          "internalType": "string",
          "name": "orderId",
          "type": "string"
        },
        {
          "internalType": "string",
          "name": "namaProduk",
          "type": "string"
        },
        {
          "internalType": "string",
          "name": "obatIdProduk",
          "type": "string"
        },
        {
          "internalType": "string",
          "name": "batchName",
          "type": "string"
        },
        {
          "internalType": "uint8",
          "name": "orderQuantity",
          "type": "uint8"
        },
        {
          "internalType": "string",
          "name": "senderInstanceName",
          "type": "string"
        },
        {
          "internalType": "string",
          "name": "targetInstanceName",
          "type": "string"
        },
        {
          "internalType": "enum OrderManagement.en_orderStatus",
          "name": "statusOrder",
          "type": "uint8"
        },
        {
          "internalType": "uint256",
          "name": "timestampOrder",
          "type": "uint256"
        },
        {
          "internalType": "uint256",
          "name": "timestampShipped",
          "type": "uint256"
        },
        {
          "internalType": "uint256",
          "name": "timestampComplete",
          "type": "uint256"
        }
      ],
      "stateMutability": "view",
      "type": "function"
    },
    {
      "inputs": [
        {
          "internalType": "string",
          "name": "",
          "type": "string"
        },
        {
          "internalType": "uint256",
          "name": "",
          "type": "uint256"
        }
      ],
      "name": "orderRetailerInstanceAddress",
      "outputs": [
        {
          "internalType": "address",
          "name": "",
          "type": "address"
        }
      ],
      "stateMutability": "view",
      "type": "function"
    },
    {
      "inputs": [
        {
          "internalType": "string",
          "name": "",
          "type": "string"
        },
        {
          "internalType": "uint256",
          "name": "",
          "type": "uint256"
        }
      ],
      "name": "orderSenderInstanceAddress",
      "outputs": [
        {
          "internalType": "address",
          "name": "",
          "type": "address"
        }
      ],
      "stateMutability": "view",
      "type": "function"
    },
    {
      "inputs": [],
      "name": "roleManager",
      "outputs": [
        {
          "internalType": "contract RoleManager",
          "name": "",
          "type": "address"
        }
      ],
      "stateMutability": "view",
      "type": "function"
    }
  ],
  "bytecode": "0x608034608d57601f614b9e38819003918201601f19168301916001600160401b038311848410176092578084926040948552833981010312608d5760418160a8565b906001600160a01b039060559060200160a8565b1660018060a01b0319600154161760015560018060a01b031660018060a01b03196000541617600055604051614ae290816100bc8239f35b600080fd5b634e487b7160e01b600052604160045260246000fd5b51906001600160a01b0382168203608d5756fe608080604052600436101561001357600080fd5b60003560e01c908162435da514612df6575080630a04f9c814612dc55780630e59a67514612d935780634e09fdbc14612bae57806386f5cea614612af65780638eaca41d14612aae5780639cf8b57e14612a94578063aefb977d14612641578063b1199d1b14612613578063b96c08661461222f578063c2d48dca14612087578063d4af682314612060578063d5e30e5214611d56578063d6e8ab8f14610819578063dfb49364146107e8578063e7ca378714610788578063ea020d591461075f578063ed7212cd146106b1578063ef470b55146104835763ffef1f62146100fa57600080fd5b3461047e57602036600319011261047e576004356001600160401b03811161047e5761012a90369060040161308a565b6004546001546001600160a01b031691600090815b838110610376575061015082613624565b9161015a81613624565b9361016d61016783614812565b92613624565b92600090815b83811061018f576040518061018b88888c8c856133b0565b0390f35b6040516395a8c58d60e01b8152336004820152600360248201526000906020816044818e5afa90811561036b57829161033d575b50156103175760066101ee6101fc6101da85613372565b50604051928391602083019586910161340f565b03601f198101835282612ec1565b519020604051602081019061022d602082885161021c8187858d01612f86565b81010301601f198101835282612ec1565b51902014806102f6575b6102ee575b610249575b600101610173565b916102e6600191610265600261025e87613372565b5001612ee2565b61026f828b614844565b5261027a818a614844565b50610289600361025e87613372565b610293828c614844565b5261029e818b614844565b5060ff60046102ac87613372565b50015460081c166102bd8289614844565b526102cb8361025e87613372565b6102d5828a614844565b526102e08189614844565b506147ed565b929050610241565b50600161023c565b5060ff600461030484613372565b5001541661031181613173565b15610237565b60ff600461032484613372565b5001541661033181613173565b61023c5750600161023c565b61035e915060203d8111610364575b6103568183612ec1565b810190613767565b386101c3565b503d61034c565b6040513d84823e3d90fd5b6040516395a8c58d60e01b8152336004820152600360248201526000906020816044818a5afa90811561036b578291610460575b501561043a5760066101ee6103c16101da85613372565b51902060405160208101906103e1602082885161021c8187858d01612f86565b5190201480610419575b610411575b6103fd575b60010161013f565b916104096001916147ed565b9290506103f5565b5060016103f0565b5060ff600461042784613372565b5001541661043481613173565b156103eb565b60ff600461044784613372565b5001541661045481613173565b6103f0575060016103f0565b610478915060203d8111610364576103568183612ec1565b386103aa565b600080fd5b3461047e57602036600319011261047e576004356001600160401b03811161047e576104b390369060040161308a565b6000806002549260208101925b84811061065d57506104d182613624565b916104db81613624565b936104e582614812565b6104ee83614812565b916105016104fb85613624565b94613624565b94600091825b8a811061052357898961018b8a8a8a8a60405196879687613305565b60066101ee6105346101da84612e1a565b5190206040516020810190610552602082885161021c81878b612f86565b51902014610563575b600101610507565b9261057661057085612e1a565b50612ee2565b610580828b614844565b5261058b818a614844565b5061059a600161025e86612e1a565b6105a4828c614844565b526105af818b614844565b5060ff60076105bd86612e1a565b500154166003811015610647578161063f916105db60019489614844565b5260ff60046105e988612e1a565b500154166105f7828a614844565b52610606600261025e88612e1a565b610610828b614844565b5261061b818a614844565b5061062a600361025e88612e1a565b610634828c614844565b526102e0818b614844565b93905061055b565b634e487b7160e01b600052602160045260246000fd5b60066101ee61066e6101da84612e1a565b519020604051602081019061068c602082875161021c81878d612f86565b5190201461069d575b6001016104c0565b916106a96001916147ed565b929050610695565b3461047e57602036600319011261047e576004356001600160401b03811161047e5760206106e66106f992369060040161308a565b8160405193828580945193849201612f86565b8101600781520301902061070c81612ee2565b61018b61071b60018401612ee2565b9161072860028501612ee2565b9361073560038201612ee2565b91610747600660048401549301612ee2565b9260405196879660ff808660081c169516938861317d565b3461047e57600036600319011261047e576000546040516001600160a01b039091168152602090f35b3461047e5760206107b061079b366130d1565b92908160405193828580945193849201612f86565b81016009815203019020805482101561047e576020916107cf91613102565b905460405160039290921b1c6001600160a01b03168152f35b3461047e57602036600319011261047e5760043560045481101561047e5761080f90613372565b5061070c81612ee2565b3461047e57608036600319011261047e576004356001600160401b03811161047e5761084990369060040161308a565b6024356001600160401b03811161047e5761086890369060040161308a565b906044356001600160401b03811161047e5761088890369060040161308a565b906064356001600160401b03811161047e573660238201121561047e578060040135936108b4856133f8565b916108c26040519384612ec1565b85835260208301906024829760051b8201019036821161047e5760248101925b828410611d275750506001546040516395a8c58d60e01b81523360048201526000602482018190529793506001600160a01b039091169150602081604481855afa908115611d1c578791611cfd575b50156112ff5750508354604051632a721ced60e21b8152602060048201526001600160a01b03909116919085818061096c6024820189612fa9565b0381865afa9081156112b5576109ad9160409188916112e5575b5001516109a560206040518361021c8295518092858086019101612f86565b51151561347d565b604051632a721ced60e21b815260206004820152908582806109d26024820189612fa9565b0381865afa9182156112b557869081936112c0575b5060405163110037fd60e21b81529293839060049082905afa9182156112b55786926111f1575b5060405196876020818451610a27818488019d8e612f86565b8101600581520301902094600b8601905191600160401b83116111dd578154838355808410611163575b509088526020882088915b83831061104657505050506003840185516001600160401b038111610f8757610a858254612e4f565b601f8111611016575b506020601f8211600114610fb4579080610abd928a91610fa9575b508160011b916000199060031b1c19161790565b90555b60078401805460ff19166001179055426009850155610add6135f0565b9060c0840191825286608085015260018452865b600254811015610f9b57610b0481612e1a565b50604051610b1a816101ee60208201809561340f565b51902061021c8a610b3b602060405180938282019586918a51928391612f86565b51902014610b4b57600101610af1565b97505051600b610b5a88612e1a565b5001815191600160401b8311610f87578154838355808410610f0d575b506020019087526020872087915b838310610de557505050506003610b9b87612e1a565b5001958451966001600160401b038811610dd157610bb98154612e4f565b601f8111610d96575b50602097601f8111600114610d2f5780610bf991899a610c19969798999a91610d2457508160011b916000199060031b1c19161790565b90555b6007610c0782612e1a565b5001805460ff19166001179055612e1a565b506009429101555b6020840193855b8251811015610d08576020610c3d8285614844565b510151604051610c5d6020828161021c8183019687815193849201612f86565b5190206040516020810190610c7d6020828461021c8d8a51928391612f86565b51902014610c8d57600101610c28565b600080516020614a8d8339815191529550600191508083886080610cb7610cd69560209998614844565b510152610cc26135f0565b60c0610cce8484614844565b510152614844565b51525b0151610d0260ff6004840154169260405193849342926005810191600160068301920187614858565b0390a180f35b505050600080516020614a8d8339815191529250602090610cd9565b90508901518b610aa9565b818852888820601f198216895b818110610d7e575090610c1995969798999a836001949310610d65575b5050811b019055610bfc565b8a015160001960f88460031b161c191690558a80610d59565b898c0151835560209b8c019b60019093019201610d3c565b610dc19082895260208920601f8b0160051c81019160208c10610dc7575b601f0160051c019061377f565b88610bc2565b9091508190610db4565b634e487b7160e01b87526041600452602487fd5b80518051906001600160401b038211610ef957610e028454612e4f565b601f8111610ec9575b506020908b601f8411600114610e5f578360019592946020948796610e459492610e54575b50508160011b916000199060031b1c19161790565b85555b01920192019190610b85565b015190503880610e30565b50848c52818c209190601f1984168d5b818110610eb15750936020936001969387969383889510610e98575b505050811b018555610e48565b015160001960f88460031b161c191690558f8080610e8b565b92936020600181928786015181550195019301610e6f565b610ef390858d5260208d20601f850160051c81019160208610610dc757601f0160051c019061377f565b8c610e0b565b634e487b7160e01b8b52604160045260248bfd5b8289528360208a2091820191015b818110610f285750610b77565b808a610f3660019354612e4f565b80610f44575b505001610f1b565b601f81118414610f5b5750508a81555b8a8d610f3c565b83601f60208486610f76965220920160051c8201910161377f565b808b528a6020812081835555610f54565b634e487b7160e01b88526041600452602488fd5b505050909192939450610c21565b90508801518b610aa9565b82895280892090601f1983168a5b8a828210610ffe5750509083600194939210610fe5575b5050811b019055610ac0565b89015160001960f88460031b161c191690558a80610fd9565b60018495602093958493015181550194019201610fc2565b61104090838a5260208a20601f840160051c81019160208510610dc757601f0160051c019061377f565b89610a8e565b80518051906001600160401b03821161114f578b6110648554612e4f565b601f811161111f575b50506020908c601f84116001146110b65783600195929460209487966110a79492610e545750508160011b916000199060031b1c19161790565b85555b01920192019190610a5c565b9190601f198416868452828420935b81811061110757509360209360019693879693838895106110ee575b505050811b0185556110aa565b015160001960f88460031b161c191690553880806110e1565b929360206001819287860151815501950193016110c5565b60208287611148945220601f850160051c81019160208610610dc757601f0160051c019061377f565b8b8e61106d565b634e487b7160e01b8c52604160045260248cfd5b828a528360208b2091820191015b81811061117e5750610a51565b808b61118c60019354612e4f565b8061119a575b505001611171565b601f811184146111b15750508b81555b8b8e611192565b83601f602084866111cc965220920160051c8201910161377f565b808c528b60208120818355556111aa565b634e487b7160e01b89526041600452602489fd5b9091503d8087833e6112038183612ec1565b8101906020818303126112ad578051906001600160401b0382116112b157019080601f830112156112ad5781519161123a836133f8565b926112486040519485612ec1565b80845260208085019160051b830101918383116112a95760208101915b8383106112785750505050509087610a0e565b82516001600160401b0381116112a55760209161129a878480948701016148f6565b815201920191611265565b8b80fd5b8980fd5b8680fd5b8780fd5b6040513d88823e3d90fd5b600493506112df903d8084833e6112d78183612ec1565b810190614a67565b926109e7565b6112f991503d808a833e6112d78183612ec1565b89610986565b6040516395a8c58d60e01b8152336004820152600160248201529296939290602090829060449082905afa9081156112b5578691611cde575b50611347575b50505050905080f35b6101ee6109a5600261136b6020611386958160405193828580945193849201612f86565b8101600681520301902001604051928391602083019061340f565b604051946113b1815196602081818501996113a281838d612f86565b8101600681520301902061355f565b9260405160208184516113c581838d612f86565b8101600581520301902092600b8401905191600160401b8311610f87578154838355808410611c64575b509087526020872087915b838310611b5c57505050506003820184516001600160401b038111610dd1576114238254612e4f565b601f8111611b2c575b506020601f8211600114611acc57908061145a928991611ac157508160011b916000199060031b1c19161790565b90555b60078201805460ff1916600117905542600983015561147a6135f0565b9060c084019182528560a085015260016080850152855b600254811015611ab4576114a481612e1a565b506040516114ba816101ee60208201809561340f565b51902061021c6040516114da6020828d8282019586918a51928391612f86565b519020146114ea57600101611491565b96505051600b6114f987612e1a565b5001815191600160401b8311610dd1578154838355808410611a3a575b506020019086526020862086915b8383106119275750505050600361153a86612e1a565b5001948351956001600160401b038711611913576115588154612e4f565b601f81116118e3575b50602096601f811160011461187e5780610bf9918899611597969798999161187357508160011b916000199060031b1c19161790565b506009429101555b6020830192845b6003548110156118575760016101ee6115c16101da84613391565b51902060405160208101906115e16020828461021c8c8a51928391612f86565b519020146115f1576001016115a6565b9192935050600461160182613391565b5001805461ff00191690556116146135f0565b600561161f83613391565b5001815191600160401b8311610dd15781548383558084106117dd575b506020019086526020862086915b8383106116b65750505050600080516020614a8d833981519152926004611672602093613391565b5001805460ff191660011790555b01516116a960ff6004840154169260405193849342926005810191600160068301920187614858565b0390a1808280808061133e565b80518051906001600160401b0382116117c9576116d38454612e4f565b601f8111611799575b506020908a601f841160011461172f57836001959294602094879661171594926117245750508160011b916000199060031b1c19161790565b85555b0192019201919061164a565b015190508e80610e30565b50848b52818b209190601f1984168c5b8181106117815750936020936001969387969383889510611768575b505050811b018555611718565b015160001960f88460031b161c191690558d808061175b565b9293602060018192878601518155019501930161173f565b6117c390858c5260208c20601f850160051c81019160208610610dc757601f0160051c019061377f565b8a6116dc565b634e487b7160e01b8a52604160045260248afd5b828852836020892091820191015b8181106117f8575061163c565b808961180660019354612e4f565b80611814575b5050016117eb565b601f8111841461182b5750508981555b898b61180c565b83601f60208486611846965220920160051c8201910161377f565b808a52896020812081835555611824565b505090600080516020614a8d8339815191529250602090611680565b90508801518a610aa9565b818752878720601f198216885b8181106118cb57509061159795969798998360019493106118b2575050811b019055610bfc565b89015160001960f88460031b161c191690558980610d59565b888b0151835560209a8b019a6001909301920161188b565b61190d9082885260208820601f8a0160051c81019160208b10610dc757601f0160051c019061377f565b87611561565b634e487b7160e01b86526041600452602486fd5b80518051906001600160401b0382116117c9576119448454612e4f565b601f8111611a0a575b506020908a601f84116001146119a057836001959294602094879661198694926119955750508160011b916000199060031b1c19161790565b85555b01920192019190611524565b015190508f80610e30565b50848b52818b209190601f1984168c5b8181106119f257509360209360019693879693838895106119d9575b505050811b018555611989565b015160001960f88460031b161c191690558e80806119cc565b929360206001819287860151815501950193016119b0565b611a3490858c5260208c20601f850160051c81019160208610610dc757601f0160051c019061377f565b8b61194d565b828852836020892091820191015b818110611a555750611516565b8089611a6360019354612e4f565b80611a71575b505001611a48565b601f81118414611a885750508981555b898c611a69565b83601f60208486611aa3965220920160051c8201910161377f565b808a52896020812081835555611a81565b505050909192935061159f565b90508701518a610aa9565b82885280882090601f198316895b818110611b1457509083600194939210611afb575b5050811b01905561145d565b88015160001960f88460031b161c191690558980611aef565b9192602060018192868d015181550194019201611ada565b611b569083895260208920601f840160051c81019160208510610dc757601f0160051c019061377f565b8861142c565b80518051906001600160401b038211610ef957611b798454612e4f565b601f8111611c34575b506020908b601f8411600114611bca578360019592946020948796611bbb9492610e545750508160011b916000199060031b1c19161790565b85555b019201920191906113fa565b50848c52818c209190601f1984168d5b818110611c1c5750936020936001969387969383889510611c03575b505050811b018555611bbe565b015160001960f88460031b161c191690558f8080611bf6565b92936020600181928786015181550195019301611bda565b611c5e90858d5260208d20601f850160051c81019160208610610dc757601f0160051c019061377f565b8c611b82565b8289528360208a2091820191015b818110611c7f57506113ef565b808a611c8d60019354612e4f565b80611c9b575b505001611c72565b601f81118414611cb25750508a81555b8a8d611c93565b83601f60208486611ccd965220920160051c8201910161377f565b808b528a6020812081835555611cab565b611cf7915060203d602011610364576103568183612ec1565b87611338565b611d16915060203d602011610364576103568183612ec1565b88610931565b6040513d89823e3d90fd5b83356001600160401b03811161047e57602091611d4b83926024369187010161308a565b8152019301926108e2565b3461047e57602036600319011261047e576004356001600160401b03811161047e57611d8690369060040161308a565b6003546001546001600160a01b031691600090815b838110611f585750611dac82613624565b91611db681613624565b93611dc361016783614812565b92600090815b838110611de1576040518061018b88888c8c856133b0565b6040516395a8c58d60e01b8152336004820152600160248201526000906020816044818e5afa90811561036b578291611f3a575b5015611f145760066101ee611e2c6101da85613391565b5190206040516020810190611e4c602082885161021c8187858d01612f86565b5190201480611ef3575b611eeb575b611e68575b600101611dc9565b91611ee3600191611e7d600261025e87613391565b611e87828b614844565b52611e92818a614844565b50611ea1600361025e87613391565b611eab828c614844565b52611eb6818b614844565b5060ff6004611ec487613391565b50015460081c16611ed58289614844565b526102cb8361025e87613391565b929050611e60565b506001611e5b565b5060ff6004611f0184613391565b50015416611f0e81613173565b15611e56565b60ff6004611f2184613391565b50015416611f2e81613173565b611e5b57506001611e5b565b611f52915060203d8111610364576103568183612ec1565b8b611e15565b6040516395a8c58d60e01b8152336004820152600160248201526000906020816044818a5afa90811561036b578291612042575b501561201c5760066101ee611fa36101da85613391565b5190206040516020810190611fc3602082885161021c8187858d01612f86565b5190201480611ffb575b611ff3575b611fdf575b600101611d9b565b91611feb6001916147ed565b929050611fd7565b506001611fd2565b5060ff600461200984613391565b5001541661201681613173565b15611fcd565b60ff600461202984613391565b5001541661203681613173565b611fd257506001611fd2565b61205a915060203d8111610364576103568183612ec1565b87611f8c565b3461047e57602036600319011261047e5760043560035481101561047e5761080f90613391565b3461047e57602036600319011261047e576004356001600160401b03811161047e576120b790369060040161308a565b6000806002549260208101925b8481106121db57506120d582613624565b916120df81613624565b936120e982614812565b6120f283614812565b916120ff6104fb85613624565b94600091825b8a811061212157898961018b8a8a8a8a60405196879687613305565b60056101ee6121326101da84612e1a565b5190206040516020810190612150602082885161021c81878b612f86565b51902014612161575b600101612105565b9261216e61057085612e1a565b612178828b614844565b52612183818a614844565b50612192600161025e86612e1a565b61219c828c614844565b526121a7818b614844565b5060ff60076121b586612e1a565b50015416600381101561064757816121d3916105db60019489614844565b939050612159565b60056101ee6121ec6101da84612e1a565b519020604051602081019061220a602082875161021c81878d612f86565b5190201461221b575b6001016120c4565b916122276001916147ed565b929050612213565b3461047e57602036600319011261047e576004356001600160401b03811161047e5761225f90369060040161308a565b60405161229a6101ee6109a58451936020818188019661228081838a612f86565b81016005815203019020604051928391602083019061340f565b60405160208184516122ad818387612f86565b810160058152030190209160078301600260ff1982541617905542600a84015560005b60025481101561260b576122e381612e1a565b506040516122f9816101ee60208201809561340f565b5190206040516020810190612317602082875161021c81878c612f86565b51902014612327576001016122d0565b61234a919250600761233882612e1a565b5001805460ff19166002179055612e1a565b50600a429101555b600180546040516395a8c58d60e01b815233600482015260248101929092526001600160a01b031690602081604481855afa9081156125e0576000916125ec575b5015612500575061244260ff6004840154169161243360206040519485936123ba85612ea5565b84526123c860038801612ee2565b828501526123d860028801612ee2565b90604085019182526123ec60018901612ee2565b60608601526000608086015260a0850152612409600b88016134c9565b60c085015261241a60058801612ee2565b60e0850152518160405193828580945193849201612f86565b81016006815203019020614078565b60035491600160401b8310156124ea5761247e6124d992612478856001600080516020614a8d8339815191529701600355613391565b9061475b565b60ff60048201541660405192839260c0845260056124ca6124b96124a860c088016001860161476a565b87810360208901526003850161476a565b86810360408801526006840161476a565b9185830360608701520161476a565b9060808301524260a08301520390a1005b634e487b7160e01b600052604160045260246000fd5b6040516395a8c58d60e01b81523360048201526003602482015290602090829060449082905afa9081156125e0576000916125c1575b50612555575b506124d9600080516020614a8d8339815191529161247e565b61258460ff6004840154169161257560206040519485936123ba85612ea5565b81016007815203019020614078565b60045491600160401b8310156124ea576125ba6124d992612478856001600080516020614a8d8339815191529701600455613372565b915061253c565b6125da915060203d602011610364576103568183612ec1565b83612536565b6040513d6000823e3d90fd5b612605915060203d602011610364576103568183612ec1565b84612393565b509050612352565b3461047e5761018b61262d612627366131e4565b90613f9a565b60405191829160208352602083019061322e565b3461047e5760e036600319011261047e576004356001600160401b03811161047e5761267190369060040161308a565b6024356001600160401b03811161047e5761269090369060040161308a565b6044356001600160401b03811161047e576126af90369060040161308a565b6064359260ff841680940361047e576084356001600160401b03811161047e576126dd90369060040161308a565b60a4356001600160a01b03811692919083900361047e5760c4356001600160401b03811161047e5761271390369060040161308a565b9160006040519061272382612e89565b606082526060602083015260606040830152606080830152806080830152606060a0830152606060c08301528060e0830152806101008301528061012083015261014082015260606101608201529060018060a01b03600154166040516395a8c58d60e01b8152602081806127b0336004830160206001919392936040810194838060a01b031681520152565b0381855afa9081156125e057600091612a75575b5015612983575090506127d56135f0565b604051916127e283612e89565b87835286602084015260408301526040516127fe602082612ec1565b6000815260608301528760808301528260a08301528360c0830152600060e083015242610100830152600061012083015260006101408301526101608201525b600254600160401b8110156124ea5780600161285d9201600255612e1a565b91909161296d576128718161289793613796565b604051602081816128888b83815193849201612f86565b81016005815203019020613796565b60405160208183516128ac8183858801612f86565b81016008815203019020908154600160401b8110156124ea577f292bbb6d1836d1c84f14bc8632586c9cdc3b938748d1a94348313ce41a2951999761293397612962966129058461295497600161294697018155613102565b819291549060031b91821b9160018060a01b03901b191617905560405198899860c08a5260c08a0190612fa9565b9160208901528782036040890152612fa9565b908582036060870152612fa9565b908382036080850152612fa9565b4260a08301520390a1005b634e487b7160e01b600052600060045260246000fd5b6040516395a8c58d60e01b81523360048201526003602482015290602090829060449082905afa9081156125e057600091612a56575b506129c5575b5061283e565b9050600160405160208184516129de8183858901612f86565b8101600681520301902001612a156129f46135f0565b9160405193612a0285612e89565b8985528860208601526040850152612ee2565b60608301528760808301528260a08301528360c0830152600060e08301524261010083015260006101208301526000610140830152610160820152876129bf565b612a6f915060203d602011610364576103568183612ec1565b896129b9565b612a8e915060203d602011610364576103568183612ec1565b8a6127c4565b3461047e5761018b61262d612aa8366131e4565b9061366e565b3461047e57602036600319011261047e576004356001600160401b03811161047e5760206106e6612ae392369060040161308a565b8101600681520301902061070c81612ee2565b3461047e57602036600319011261047e576004356001600160401b03811161047e5760206106e6612b2b92369060040161308a565b81016005815203019020612b3e81612ee2565b61018b612b4d60018401612ee2565b92612b5a60028201612ee2565b90612b6760038201612ee2565b60ff600483015416612b7b60058401612ee2565b612b8760068501612ee2565b9060ff60078601541692600886015494600a6009880154970154976040519b8c9b8c612fce565b3461047e57602036600319011261047e576004356001600160401b03811161047e57612bde90369060040161308a565b604051612bff6101ee6109a58451936020818188019661228081838a612f86565b60ff60046040516020818651612c16818389612f86565b8101600581520301902001541690612c4b60056040516020818751612c3c818389612f86565b81018481520301902001612ee2565b92612c7460066040516020818551612c6481838a612f86565b8101600581520301902001612ee2565b9060ff60076040516020818551612c8c81838b612f86565b81016005815203019020015416600381101561064757612d7f90612d71612cd3600b60405160208180612cc38c8b51928391612f86565b81016005815203019020016134c9565b91600a612d3360206008612cf4828c8b604051938492839251928391612f86565b81016005815203019020015499600960405183818c51612d15818388612f86565b81016005815203019020015498604051938492839251928391612f86565b81016005815203019020015495612d5e6040519a8b9a8b5261010060208c01526101008b0190612fa9565b9160408a015288820360608a0152612fa9565b90868203608088015261311a565b9260a085015260c084015260e08301520390f35b3461047e576020612da661079b366130d1565b81016008815203019020805482101561047e576020916107cf91613102565b3461047e57602036600319011261047e5760043560025481101561047e57612dec90612e1a565b50612b3e81612ee2565b3461047e57600036600319011261047e576001546001600160a01b03168152602090f35b600254811015612e39576002600052600c602060002091020190600090565b634e487b7160e01b600052603260045260246000fd5b90600182811c92168015612e7f575b6020831014612e6957565b634e487b7160e01b600052602260045260246000fd5b91607f1691612e5e565b61018081019081106001600160401b038211176124ea57604052565b61010081019081106001600160401b038211176124ea57604052565b90601f801991011681019081106001600160401b038211176124ea57604052565b9060405191826000825492612ef684612e4f565b8084529360018116908115612f645750600114612f1d575b50612f1b92500383612ec1565b565b90506000929192526020600020906000915b818310612f48575050906020612f1b9282010138612f0e565b6020919350806001915483858901015201910190918492612f2f565b905060209250612f1b94915060ff191682840152151560051b82010138612f0e565b60005b838110612f995750506000910152565b8181015183820152602001612f89565b90602091612fc281518092818552858086019101612f86565b601f01601f1916010190565b97989b9a9996949261303e9461301c61302a9261300e8c61304c9b9761300060ff986101608452610160840190612fa9565b916020818403910152612fa9565b8c810360408e015290612fa9565b908a820360608c0152612fa9565b9216608088015286820360a0880152612fa9565b9084820360c0860152612fa9565b956003841015610647576101409360e08401526101008301526101208201520152565b6001600160401b0381116124ea57601f01601f191660200190565b81601f8201121561047e578035906130a18261306f565b926130af6040519485612ec1565b8284526020838301011161047e57816000926020809301838601378301015290565b604060031982011261047e57600435906001600160401b03821161047e576130fb9160040161308a565b9060243590565b8054821015612e395760005260206000200190600090565b9080602083519182815201916020808360051b8301019401926000915b83831061314657505050505090565b9091929394602080613164600193601f198682030187528951612fa9565b97019301930191939290613137565b6002111561064757565b9361294660ff946131b16131e19a9899956131a36131bf9660e08b5260e08b0190612fa9565b9089820360208b0152612fa9565b908782036040890152612fa9565b946131c981613173565b60808401521660a082015260c0818403910152612fa9565b90565b90604060031983011261047e576004356001600160401b03811161047e578261320f9160040161308a565b91602435906001600160401b03821161047e576131e19160040161308a565b6131e19160e06132bd61328b61327961326761325587516101008852610100880190612fa9565b60208801518782036020890152612fa9565b60408701518682036040880152612fa9565b60608601518582036060870152612fa9565b608085015161329981613173565b608085015260ff60a08601511660a085015260c085015184820360c086015261311a565b9201519060e0818403910152612fa9565b906020808351928381520192019060005b8181106132ec5750505090565b825160ff168452602093840193909201916001016132df565b9491936133486133649461333a6131e1999761332c6133569660c08c5260c08c019061311a565b908a820360208c015261311a565b9088820360408a01526132ce565b9086820360608801526132ce565b90848203608086015261311a565b9160a081840391015261311a565b600454811015612e395760046000526007602060002091020190600090565b600354811015612e395760036000526007602060002091020190600090565b926133dc6131e195936133ce6133ea9460808852608088019061311a565b90868203602088015261311a565b9084820360408601526132ce565b91606081840391015261311a565b6001600160401b0381116124ea5760051b60200190565b6000929181549161341f83612e4f565b926001811690811561346a575060011461343857505050565b909192935060005260206000206000905b8382106134565750500190565b600181602092548486015201910190613449565b60ff191683525050811515909102019150565b1561348457565b60405162461bcd60e51b815260206004820152601b60248201527f4e6f206461746120666f756e64207769746820746869732049442e00000000006044820152606490fd5b9081546134d5816133f8565b926134e36040519485612ec1565b818452602084019060005260206000206000915b8383106135045750505050565b60016020819261351385612ee2565b8152019201920191906134f7565b6040519061352e82612ea5565b606060e083828152826020820152826040820152828082015260006080820152600060a08201528260c08201520152565b9060405161356c81612ea5565b60e06135eb6006839561357e81612ee2565b855261358c60018201612ee2565b602086015261359d60028201612ee2565b60408601526135ae60038201612ee2565b606086015260ff60048201548181166135c681613173565b608088015260081c1660a08601526135e0600582016134c9565b60c086015201612ee2565b910152565b604051906135ff602083612ec1565b600080835282815b82811061361357505050565b806060602080938501015201613607565b9061362e826133f8565b61363b6040519182612ec1565b828152809261364c601f19916133f8565b019060005b82811061365d57505050565b806060602080938501015201613651565b613676613521565b50604051916136b06136a960028451956020818188019861369881838c612f86565b810160068152030190200154612e4f565b151561347d565b600660405160208185516136c581838a612f86565b810184815203019020016040516136e4816101ee60208201809561340f565b519020906040516137056020828161021c8183019687815193849201612f86565b519020036137285760206131e1926113a292604051938492839251928391612f86565b6020613743926113a292604051938492839251928391612f86565b604051613751602082612ec1565b60008152815261375f6135f0565b60c082015290565b9081602091031261047e5751801515810361047e5790565b81811061378a575050565b6000815560010161377f565b91909182519283516001600160401b0381116124ea576137b68354612e4f565b601f8111613f68575b50602094601f8211600114613f03576137f3929394958291600092610e545750508160011b916000199060031b1c19161790565b82555b6001820160208201518051906001600160401b0382116124ea5761381a8354612e4f565b601f8111613ed1575b50602090601f8311600114613e6a57613854929160009183610e545750508160011b916000199060031b1c19161790565b90555b6002820160408201518051906001600160401b0382116124ea5761387b8354612e4f565b601f8111613e38575b50602090601f8311600114613dd1576138b5929160009183610e545750508160011b916000199060031b1c19161790565b90555b6003820160608201518051906001600160401b0382116124ea576138dc8354612e4f565b601f8111613d9f575b50602090601f8311600114613d3857613916929160009183610e545750508160011b916000199060031b1c19161790565b90555b6004820160ff60808301511660ff198254161790556005820160a08201518051906001600160401b0382116124ea576139528354612e4f565b601f8111613d06575b50602090601f8311600114613c9f5761398c929160009183610e545750508160011b916000199060031b1c19161790565b90555b6006820160c08201518051906001600160401b0382116124ea576139b38354612e4f565b601f8111613c6d575b50602090601f8311600114613c06576139ed929160009183610e545750508160011b916000199060031b1c19161790565b90555b60e0810151916007810160038410156106475761016091600b9160009560ff8019835416911617905561010084015160088201556101208401516009820155610140840151600a8201550191015190815191600160401b8311613bf2578154838355808410613b7c575b506020019083526020832083915b838310613a76575050505050565b80518051906001600160401b038211610dd157613a938454612e4f565b601f8111613b4c575b50602090601f8311600114613ae35792613ad4836001959460209487968c92610e545750508160011b916000199060031b1c19161790565b85555b01920192019190613a68565b8488528188209190601f198416895b818110613b345750936020936001969387969383889510613b1b575b505050811b018555613ad7565b015160001960f88460031b161c19169055388080613b0e565b92936020600181928786015181550195019301613af2565b613b769085895260208920601f850160051c81019160208610610dc757601f0160051c019061377f565b38613a9c565b828552836020862091820191015b818110613b975750613a5a565b80613ba460019254612e4f565b80613bb1575b5001613b8a565b601f81118314613bc657508681555b38613baa565b81885260208820613be191601f0160051c810190840161377f565b808752866020812081835555613bc0565b634e487b7160e01b84526041600452602484fd5b90601f1983169184600052816000209260005b818110613c555750908460019594939210613c3c575b505050811b0190556139f0565b015160001960f88460031b161c19169055388080613c2f565b92936020600181928786015181550195019301613c19565b613c9990846000526020600020601f850160051c81019160208610610dc757601f0160051c019061377f565b386139bc565b90601f1983169184600052816000209260005b818110613cee5750908460019594939210613cd5575b505050811b01905561398f565b015160001960f88460031b161c19169055388080613cc8565b92936020600181928786015181550195019301613cb2565b613d3290846000526020600020601f850160051c81019160208610610dc757601f0160051c019061377f565b3861395b565b90601f1983169184600052816000209260005b818110613d875750908460019594939210613d6e575b505050811b019055613919565b015160001960f88460031b161c19169055388080613d61565b92936020600181928786015181550195019301613d4b565b613dcb90846000526020600020601f850160051c81019160208610610dc757601f0160051c019061377f565b386138e5565b90601f1983169184600052816000209260005b818110613e205750908460019594939210613e07575b505050811b0190556138b8565b015160001960f88460031b161c19169055388080613dfa565b92936020600181928786015181550195019301613de4565b613e6490846000526020600020601f850160051c81019160208610610dc757601f0160051c019061377f565b38613884565b90601f1983169184600052816000209260005b818110613eb95750908460019594939210613ea0575b505050811b019055613857565b015160001960f88460031b161c19169055388080613e93565b92936020600181928786015181550195019301613e7d565b613efd90846000526020600020601f850160051c81019160208610610dc757601f0160051c019061377f565b38613823565b601f1982169584600052806000209160005b888110613f5057508360019596979810613f37575b505050811b0182556137f6565b015160001960f88460031b161c19169055388080613f2a565b91926020600181928685015181550194019201613f15565b613f9490846000526020600020601f840160051c81019160208510610dc757601f0160051c019061377f565b386137bf565b613fa2613521565b5060405191613fd56136a9600284519560208181880198613fc481838c612f86565b810160078152030190200154612e4f565b60066040516020818551613fea81838a612f86565b810160078152030190200160405161400a816101ee60208201809561340f565b5190209060405161402b6020828161021c8183019687815193849201612f86565b5190200361405d5760206131e19261404e92604051938492839251928391612f86565b8101600781520301902061355f565b60206137439261404e92604051938492839251928391612f86565b9181519283516001600160401b0381116124ea576140968254612e4f565b601f8111614729575b50602094601f82116001146146c4576140d3929394958291600092610e545750508160011b916000199060031b1c19161790565b81555b6001810160208401518051906001600160401b0382116124ea576140fa8354612e4f565b601f8111614692575b50602090601f831160011461462b57614134929160009183610e545750508160011b916000199060031b1c19161790565b90555b6002810160408401518051906001600160401b0382116124ea5761415b8354612e4f565b601f81116145f9575b50602090601f831160011461459257614195929160009183610e545750508160011b916000199060031b1c19161790565b90555b6003810160608401518051906001600160401b0382116124ea576141bc8354612e4f565b601f8111614560575b50602090601f83116001146144f9576141f6929160009183610e545750508160011b916000199060031b1c19161790565b90555b60048101608084015161420b81613173565b61421481613173565b815460a086015161ff0060089190911b1660ff9290921661ffff199091161717905560c083015180516005830191600160401b82116124ea57825482845580831061447b575b50602001916000526020600020916000905b82821061436e5750505050600660e091019201519182516001600160401b0381116124ea5761429b8254612e4f565b601f811161433c575b506020601f82116001146142da5781906142d6939495600092610e545750508160011b916000199060031b1c19161790565b9055565b601f1982169083600052806000209160005b8181106143245750958360019596971061430b575b505050811b019055565b015160001960f88460031b161c19169055388080614301565b9192602060018192868b0151815501940192016142ec565b61436890836000526020600020601f840160051c81019160208510610dc757601f0160051c019061377f565b386142a4565b80518051906001600160401b0382116124ea5761438b8654612e4f565b601f8111614449575b50602090601f83116001146143dc57926143cd83600195946020948796600092610e545750508160011b916000199060031b1c19161790565b87555b0194019101909261426c565b90601f1983169187600052816000209260005b8181106144315750936020936001969387969383889510614418575b505050811b0187556143d0565b015160001960f88460031b161c1916905538808061440b565b929360206001819287860151815501950193016143ef565b61447590876000526020600020601f850160051c81019160208610610dc757601f0160051c019061377f565b38614394565b8360005282602060002091820191015b818110614498575061425a565b806144a560019254612e4f565b806144b2575b500161448b565b601f811183146144c85750600081555b386144ab565b6144e6908260005283601f6020600020920160051c8201910161377f565b80600052600060208120818355556144c2565b90601f1983169184600052816000209260005b818110614548575090846001959493921061452f575b505050811b0190556141f9565b015160001960f88460031b161c19169055388080614522565b9293602060018192878601518155019501930161450c565b61458c90846000526020600020601f850160051c81019160208610610dc757601f0160051c019061377f565b386141c5565b90601f1983169184600052816000209260005b8181106145e157509084600195949392106145c8575b505050811b019055614198565b015160001960f88460031b161c191690553880806145bb565b929360206001819287860151815501950193016145a5565b61462590846000526020600020601f850160051c81019160208610610dc757601f0160051c019061377f565b38614164565b90601f1983169184600052816000209260005b81811061467a5750908460019594939210614661575b505050811b019055614137565b015160001960f88460031b161c19169055388080614654565b9293602060018192878601518155019501930161463e565b6146be90846000526020600020601f850160051c81019160208610610dc757601f0160051c019061377f565b38614103565b601f1982169583600052806000209160005b888110614711575083600195969798106146f8575b505050811b0181556140d6565b015160001960f88460031b161c191690553880806146eb565b919260206001819286850151815501940192016146d6565b61475590836000526020600020601f840160051c81019160208510610dc757601f0160051c019061377f565b3861409f565b919061296d57612f1b91614078565b6000929181549161477a83612e4f565b80835292600181169081156147d0575060011461479657505050565b60009081526020812093945091925b8383106147b6575060209250010190565b6001816020929493945483858701015201910191906147a5565b915050602093945060ff929192191683830152151560051b010190565b60001981146147fc5760010190565b634e487b7160e01b600052601160045260246000fd5b9061481c826133f8565b6148296040519182612ec1565b828152809261483a601f19916133f8565b0190602036910137565b8051821015612e395760209160051b010190565b929361489b60a09561488d60ff9561487f6148a9969c9b9a9c60c08a5260c08a019061476a565b9088820360208a0152612fa9565b90868203604088015261476a565b90848203606086015261476a565b951660808201520152565b81601f8201121561047e5780516148ca8161306f565b926148d86040519485612ec1565b8184526020828401011161047e576131e19160208085019101612f86565b919060e08382031261047e5760405160e081018181106001600160401b038211176124ea5760405280938051600281101561047e57825260208101516001600160401b03811161047e578361494c9183016148b4565b602083015260408101516001600160401b03811161047e57836149709183016148b4565b604083015260608101516001600160401b03811161047e57836149949183016148b4565b6060830152608081015160ff8116810361047e57608083015260a08101516001600160401b03811161047e57836149cc9183016148b4565b60a083015260c0810151906001600160401b03821161047e57019180601f8401121561047e5782516149fd816133f8565b93614a0b6040519586612ec1565b81855260208086019260051b8201019183831161047e5760208201905b838210614a3a57505050505060c00152565b81516001600160401b03811161047e57602091614a5c878480948801016148b4565b815201910190614a28565b9060208282031261047e5781516001600160401b03811161047e576131e192016148f656fe6185e892b495921d623cf19a02c2565e2522589cc1edae45bc123c650b0def61a2646970667358221220c6e8769abddcb2b170575829793b595173bd2f90a8e5a71056785f3c8a33309664736f6c634300081b0033",
  "linkReferences": {},
  "deployedLinkReferences": {}
}