{
  "_format": "hh-sol-artifact-1",
  "contractName": "OrderManagement",
  "sourceName": "contracts/OrderManagement.sol",
  "abi": [
    {
      "inputs": [
        {
          "internalType": "address",
          "name": "_obatTradisionalAddr",
          "type": "address"
        },
        {
          "internalType": "address",
          "name": "_roleManagerAddr",
          "type": "address"
        },
        {
          "internalType": "address",
          "name": "_obatSharedAddr",
          "type": "address"
        },
        {
          "internalType": "address",
          "name": "_cdobCertificateAddr",
          "type": "address"
        }
      ],
      "stateMutability": "nonpayable",
      "type": "constructor"
    },
    {
      "anonymous": false,
      "inputs": [
        {
          "indexed": false,
          "internalType": "string",
          "name": "batchName",
          "type": "string"
        },
        {
          "indexed": false,
          "internalType": "string",
          "name": "namaProduk",
          "type": "string"
        },
        {
          "indexed": false,
          "internalType": "string",
          "name": "buyerInstanceName",
          "type": "string"
        },
        {
          "indexed": false,
          "internalType": "string",
          "name": "sellerInstanceName",
          "type": "string"
        },
        {
          "indexed": false,
          "internalType": "uint8",
          "name": "orderQuantity",
          "type": "uint8"
        },
        {
          "indexed": false,
          "internalType": "uint256",
          "name": "timestamp",
          "type": "uint256"
        }
      ],
      "name": "evt_orderUpdate",
      "type": "event"
    },
    {
      "inputs": [
        {
          "internalType": "string",
          "name": "_orderId",
          "type": "string"
        },
        {
          "internalType": "string[]",
          "name": "_orderObatIpfs",
          "type": "string[]"
        }
      ],
      "name": "acceptOrderPbf",
      "outputs": [],
      "stateMutability": "nonpayable",
      "type": "function"
    },
    {
      "inputs": [
        {
          "internalType": "string",
          "name": "_orderId",
          "type": "string"
        },
        {
          "internalType": "string[]",
          "name": "_orderObatIpfs",
          "type": "string[]"
        }
      ],
      "name": "acceptOrderRetailer",
      "outputs": [],
      "stateMutability": "nonpayable",
      "type": "function"
    },
    {
      "inputs": [
        {
          "internalType": "uint256",
          "name": "",
          "type": "uint256"
        }
      ],
      "name": "allOrderId",
      "outputs": [
        {
          "internalType": "string",
          "name": "",
          "type": "string"
        }
      ],
      "stateMutability": "view",
      "type": "function"
    },
    {
      "inputs": [],
      "name": "cdobCertificate",
      "outputs": [
        {
          "internalType": "contract CdobCertificate",
          "name": "",
          "type": "address"
        }
      ],
      "stateMutability": "view",
      "type": "function"
    },
    {
      "inputs": [
        {
          "internalType": "string",
          "name": "_orderId",
          "type": "string"
        },
        {
          "internalType": "string[]",
          "name": "_orderObatIpfs",
          "type": "string[]"
        }
      ],
      "name": "completeOrderPbf",
      "outputs": [],
      "stateMutability": "nonpayable",
      "type": "function"
    },
    {
      "inputs": [
        {
          "internalType": "string",
          "name": "_orderId",
          "type": "string"
        },
        {
          "internalType": "string[]",
          "name": "_orderObatIpfs",
          "type": "string[]"
        }
      ],
      "name": "completeOrderRetailer",
      "outputs": [],
      "stateMutability": "nonpayable",
      "type": "function"
    },
    {
      "inputs": [
        {
          "internalType": "string",
          "name": "_prevOrderIdPbf",
          "type": "string"
        },
        {
          "internalType": "string",
          "name": "_orderId",
          "type": "string"
        },
        {
          "internalType": "string",
          "name": "_obatId",
          "type": "string"
        },
        {
          "internalType": "string",
          "name": "_batchName",
          "type": "string"
        },
        {
          "internalType": "string",
          "name": "_namaProduk",
          "type": "string"
        },
        {
          "internalType": "string",
          "name": "_buyerInstance",
          "type": "string"
        },
        {
          "internalType": "string",
          "name": "_sellerInstance",
          "type": "string"
        },
        {
          "internalType": "uint8",
          "name": "_orderQuantity",
          "type": "uint8"
        },
        {
          "internalType": "string",
          "name": "_cdobHash",
          "type": "string"
        }
      ],
      "name": "createOrder",
      "outputs": [],
      "stateMutability": "nonpayable",
      "type": "function"
    },
    {
      "inputs": [
        {
          "internalType": "string",
          "name": "_orderId",
          "type": "string"
        }
      ],
      "name": "detailOrder",
      "outputs": [
        {
          "components": [
            {
              "internalType": "string",
              "name": "orderId",
              "type": "string"
            },
            {
              "internalType": "string",
              "name": "obatId",
              "type": "string"
            },
            {
              "internalType": "string",
              "name": "namaProduk",
              "type": "string"
            },
            {
              "internalType": "string",
              "name": "batchName",
              "type": "string"
            },
            {
              "internalType": "uint8",
              "name": "orderQuantity",
              "type": "uint8"
            },
            {
              "components": [
                {
                  "internalType": "string",
                  "name": "instanceName",
                  "type": "string"
                },
                {
                  "internalType": "address",
                  "name": "instanceAddr",
                  "type": "address"
                }
              ],
              "internalType": "struct OrderManagement.st_orderUser",
              "name": "buyerUser",
              "type": "tuple"
            },
            {
              "components": [
                {
                  "internalType": "string",
                  "name": "instanceName",
                  "type": "string"
                },
                {
                  "internalType": "address",
                  "name": "instanceAddr",
                  "type": "address"
                }
              ],
              "internalType": "struct OrderManagement.st_orderUser",
              "name": "sellerUser",
              "type": "tuple"
            },
            {
              "internalType": "enum EnumsLibrary.OrderStatus",
              "name": "statusOrder",
              "type": "uint8"
            },
            {
              "internalType": "string",
              "name": "prevOrderIdPbf",
              "type": "string"
            }
          ],
          "internalType": "struct OrderManagement.st_obatOrder",
          "name": "",
          "type": "tuple"
        }
      ],
      "stateMutability": "view",
      "type": "function"
    },
    {
      "inputs": [
        {
          "internalType": "string",
          "name": "_instanceName",
          "type": "string"
        }
      ],
      "name": "getAllObatPbfByInstance",
      "outputs": [
        {
          "components": [
            {
              "internalType": "string",
              "name": "orderId",
              "type": "string"
            },
            {
              "internalType": "string",
              "name": "obatId",
              "type": "string"
            },
            {
              "internalType": "string",
              "name": "namaProduk",
              "type": "string"
            },
            {
              "internalType": "string",
              "name": "batchName",
              "type": "string"
            },
            {
              "internalType": "uint8",
              "name": "obatQuantity",
              "type": "uint8"
            },
            {
              "internalType": "enum EnumsLibrary.ObatAvailability",
              "name": "statusStok",
              "type": "uint8"
            },
            {
              "internalType": "string",
              "name": "ownerInstance",
              "type": "string"
            }
          ],
          "internalType": "struct ObatShared.st_obatOutputStock[]",
          "name": "",
          "type": "tuple[]"
        }
      ],
      "stateMutability": "view",
      "type": "function"
    },
    {
      "inputs": [],
      "name": "getAllObatPbfReadyStock",
      "outputs": [
        {
          "components": [
            {
              "internalType": "string",
              "name": "orderId",
              "type": "string"
            },
            {
              "internalType": "string",
              "name": "obatId",
              "type": "string"
            },
            {
              "internalType": "string",
              "name": "namaProduk",
              "type": "string"
            },
            {
              "internalType": "string",
              "name": "batchName",
              "type": "string"
            },
            {
              "internalType": "uint8",
              "name": "obatQuantity",
              "type": "uint8"
            },
            {
              "internalType": "enum EnumsLibrary.ObatAvailability",
              "name": "statusStok",
              "type": "uint8"
            },
            {
              "internalType": "string",
              "name": "ownerInstance",
              "type": "string"
            }
          ],
          "internalType": "struct ObatShared.st_obatOutputStock[]",
          "name": "",
          "type": "tuple[]"
        }
      ],
      "stateMutability": "view",
      "type": "function"
    },
    {
      "inputs": [
        {
          "internalType": "string",
          "name": "_instanceName",
          "type": "string"
        }
      ],
      "name": "getAllObatRetailerByInstance",
      "outputs": [
        {
          "components": [
            {
              "internalType": "string",
              "name": "orderId",
              "type": "string"
            },
            {
              "internalType": "string",
              "name": "obatId",
              "type": "string"
            },
            {
              "internalType": "string",
              "name": "namaProduk",
              "type": "string"
            },
            {
              "internalType": "string",
              "name": "batchName",
              "type": "string"
            },
            {
              "internalType": "uint8",
              "name": "obatQuantity",
              "type": "uint8"
            },
            {
              "internalType": "enum EnumsLibrary.ObatAvailability",
              "name": "statusStok",
              "type": "uint8"
            },
            {
              "internalType": "string",
              "name": "ownerInstance",
              "type": "string"
            }
          ],
          "internalType": "struct ObatShared.st_obatOutputStock[]",
          "name": "",
          "type": "tuple[]"
        }
      ],
      "stateMutability": "view",
      "type": "function"
    },
    {
      "inputs": [
        {
          "internalType": "string",
          "name": "_buyerInstance",
          "type": "string"
        }
      ],
      "name": "getAllOrderFromBuyer",
      "outputs": [
        {
          "components": [
            {
              "internalType": "string",
              "name": "orderId",
              "type": "string"
            },
            {
              "internalType": "string",
              "name": "obatId",
              "type": "string"
            },
            {
              "internalType": "string",
              "name": "namaProduk",
              "type": "string"
            },
            {
              "internalType": "string",
              "name": "batchName",
              "type": "string"
            },
            {
              "internalType": "uint8",
              "name": "orderQuantity",
              "type": "uint8"
            },
            {
              "components": [
                {
                  "internalType": "string",
                  "name": "instanceName",
                  "type": "string"
                },
                {
                  "internalType": "address",
                  "name": "instanceAddr",
                  "type": "address"
                }
              ],
              "internalType": "struct OrderManagement.st_orderUser",
              "name": "buyerUser",
              "type": "tuple"
            },
            {
              "components": [
                {
                  "internalType": "string",
                  "name": "instanceName",
                  "type": "string"
                },
                {
                  "internalType": "address",
                  "name": "instanceAddr",
                  "type": "address"
                }
              ],
              "internalType": "struct OrderManagement.st_orderUser",
              "name": "sellerUser",
              "type": "tuple"
            },
            {
              "internalType": "enum EnumsLibrary.OrderStatus",
              "name": "statusOrder",
              "type": "uint8"
            },
            {
              "internalType": "string",
              "name": "prevOrderIdPbf",
              "type": "string"
            }
          ],
          "internalType": "struct OrderManagement.st_obatOrder[]",
          "name": "",
          "type": "tuple[]"
        }
      ],
      "stateMutability": "view",
      "type": "function"
    },
    {
      "inputs": [
        {
          "internalType": "string",
          "name": "_sellerInstance",
          "type": "string"
        }
      ],
      "name": "getAllOrderFromSeller",
      "outputs": [
        {
          "components": [
            {
              "internalType": "string",
              "name": "orderId",
              "type": "string"
            },
            {
              "internalType": "string",
              "name": "obatId",
              "type": "string"
            },
            {
              "internalType": "string",
              "name": "namaProduk",
              "type": "string"
            },
            {
              "internalType": "string",
              "name": "batchName",
              "type": "string"
            },
            {
              "internalType": "uint8",
              "name": "orderQuantity",
              "type": "uint8"
            },
            {
              "components": [
                {
                  "internalType": "string",
                  "name": "instanceName",
                  "type": "string"
                },
                {
                  "internalType": "address",
                  "name": "instanceAddr",
                  "type": "address"
                }
              ],
              "internalType": "struct OrderManagement.st_orderUser",
              "name": "buyerUser",
              "type": "tuple"
            },
            {
              "components": [
                {
                  "internalType": "string",
                  "name": "instanceName",
                  "type": "string"
                },
                {
                  "internalType": "address",
                  "name": "instanceAddr",
                  "type": "address"
                }
              ],
              "internalType": "struct OrderManagement.st_orderUser",
              "name": "sellerUser",
              "type": "tuple"
            },
            {
              "internalType": "enum EnumsLibrary.OrderStatus",
              "name": "statusOrder",
              "type": "uint8"
            },
            {
              "internalType": "string",
              "name": "prevOrderIdPbf",
              "type": "string"
            }
          ],
          "internalType": "struct OrderManagement.st_obatOrder[]",
          "name": "",
          "type": "tuple[]"
        }
      ],
      "stateMutability": "view",
      "type": "function"
    },
    {
      "inputs": [],
      "name": "getAvailableObatFromFactory",
      "outputs": [
        {
          "components": [
            {
              "internalType": "string",
              "name": "obatId",
              "type": "string"
            },
            {
              "internalType": "string",
              "name": "namaProduk",
              "type": "string"
            },
            {
              "internalType": "string",
              "name": "batchName",
              "type": "string"
            },
            {
              "internalType": "uint8",
              "name": "obatQuantity",
              "type": "uint8"
            },
            {
              "internalType": "enum EnumsLibrary.ObatAvailability",
              "name": "statusStok",
              "type": "uint8"
            },
            {
              "internalType": "string",
              "name": "ownerInstance",
              "type": "string"
            }
          ],
          "internalType": "struct ObatTradisional.st_obatOutputBatch[]",
          "name": "",
          "type": "tuple[]"
        }
      ],
      "stateMutability": "view",
      "type": "function"
    },
    {
      "inputs": [
        {
          "internalType": "string",
          "name": "_orderId",
          "type": "string"
        }
      ],
      "name": "obatIpfs",
      "outputs": [
        {
          "internalType": "string[]",
          "name": "",
          "type": "string[]"
        }
      ],
      "stateMutability": "view",
      "type": "function"
    },
    {
      "inputs": [],
      "name": "obatShared",
      "outputs": [
        {
          "internalType": "contract ObatShared",
          "name": "",
          "type": "address"
        }
      ],
      "stateMutability": "view",
      "type": "function"
    },
    {
      "inputs": [],
      "name": "obatTradisional",
      "outputs": [
        {
          "internalType": "contract ObatTradisional",
          "name": "",
          "type": "address"
        }
      ],
      "stateMutability": "view",
      "type": "function"
    },
    {
      "inputs": [
        {
          "internalType": "string",
          "name": "_orderId",
          "type": "string"
        }
      ],
      "name": "orderTimestamp",
      "outputs": [
        {
          "components": [
            {
              "internalType": "uint256",
              "name": "timestampOrder",
              "type": "uint256"
            },
            {
              "internalType": "uint256",
              "name": "timestampShipped",
              "type": "uint256"
            },
            {
              "internalType": "uint256",
              "name": "timestampComplete",
              "type": "uint256"
            }
          ],
          "internalType": "struct OrderManagement.st_orderTimestamp",
          "name": "",
          "type": "tuple"
        }
      ],
      "stateMutability": "view",
      "type": "function"
    },
    {
      "inputs": [
        {
          "internalType": "string",
          "name": "_pbfName",
          "type": "string"
        }
      ],
      "name": "pbfAvailableToBuy",
      "outputs": [
        {
          "components": [
            {
              "internalType": "string",
              "name": "certId",
              "type": "string"
            },
            {
              "internalType": "string",
              "name": "certNumber",
              "type": "string"
            },
            {
              "internalType": "string",
              "name": "instanceName",
              "type": "string"
            },
            {
              "internalType": "uint8",
              "name": "tipePermohonan",
              "type": "uint8"
            },
            {
              "internalType": "enum EnumsLibrary.StatusCertificate",
              "name": "status",
              "type": "uint8"
            },
            {
              "internalType": "string",
              "name": "certHash",
              "type": "string"
            }
          ],
          "internalType": "struct CdobCertificate.st_certificateList[]",
          "name": "",
          "type": "tuple[]"
        }
      ],
      "stateMutability": "view",
      "type": "function"
    },
    {
      "inputs": [],
      "name": "roleManager",
      "outputs": [
        {
          "internalType": "contract RoleManager",
          "name": "",
          "type": "address"
        }
      ],
      "stateMutability": "view",
      "type": "function"
    }
  ],
  "bytecode": "0x60803460bd57601f612c3138819003918201601f19168301916001600160401b0383118484101760c15780849260809460405283398101031260bd5760428160d5565b90604d6020820160d5565b9160626060605c6040850160d5565b930160d5565b600180546001600160a01b03199081166001600160a01b03968716179091555f8054821693861693909317909255600280548316938516939093179092556003805490911691909216179055604051612b4890816100e98239f35b5f80fd5b634e487b7160e01b5f52604160045260245ffd5b51906001600160a01b038216820360bd5756fe6080806040526004361015610012575f80fd5b5f905f3560e01c908162435da514611d4c575080631c2fc29214611c82578063271962d414611bd35780633fca88cb14611bab57806360e4b3cf14611ac057806364484ac91461180f578063756b460f146115be5780638d095e08146112e1578063906ce0171461128c578063986a079014611187578063af3a17581461115e578063af9bf53d14610e55578063b711e82b14610db0578063ce7ab1c714610ad5578063dd5739ae14610a38578063e1336da5146109d5578063ea020d59146109ae578063ee399ed414610686578063f07b2c7a146105d85763fc0e6523146100f9575f80fd5b346105d5576101203660031901126105d5576004356001600160401b0381116105d35761012a903690600401611e2c565b906024356001600160401b0381116105d35761014a903690600401611e2c565b6044356001600160401b03811161055557610169903690600401611e2c565b6064356001600160401b0381116105cf57610188903690600401611e2c565b936084356001600160401b0381116105cb576101a8903690600401611e2c565b60a4356001600160401b0381116105c7576101c7903690600401611e2c565b9060c4356001600160401b0381116105c3576101e7903690600401611e2c565b9660e4359060ff82168092036105bf57610104356001600160401b0381116105bb57610217903690600401611e2c565b92610220612346565b506040519361022e85611dd5565b85855233602086015261023f612346565b506040519561024d87611dd5565b8b87528a6020880152600454600160401b8110156105a75780600161027792016004556004612207565b61059357998b9c81809d949361029082809d9e9f6125c1565b604051818192516020819201835e810160088152036020019020906102b4916126b9565b604051818192516020819201835e810160098152036020019020906102d8916126b9565b6040516102e481611dba565b428152602081018381526040820190848252604051808c516020819e019d8e835e81016007815203602001902092518355516001830155519060020155600160a01b60019003600154166040518080926395a8c58d60e01b825233600483015260248201600190525a92604491602094fa908115610588578391610559575b506104cd575b50506040519761037889611d6f565b8989526020890190815260408901918252606089019283526080890193845260a0890194855260c0890195865260e08901968b88526101008a0198895260405180918c518091835e81016006815203602001902098516103d8908a6125c1565b516103e69060018a016125c1565b516103f490600289016125c1565b5161040290600388016125c1565b60048601905160ff1660ff198254161790555180516005860190610425916125c1565b602001516006850180546001600160a01b0319166001600160a01b039290921691909117905551805161045b90600786016125c1565b602001516008840180546001600160a01b0319166001600160a01b039290921691909117905551600983019060038110156104b9576104b1926104b6959492600a9260ff801983541691161790555191016125c1565b6129bd565b80f35b634e487b7160e01b86526021600452602486fd5b6002546001600160a01b0316803b1561055557610522918391610510838e604051968795869485936331cb1cc560e21b8552604060048601526044850190611e72565b83810360031901602485015290611e72565b03925af1801561054a5715610369578161053b91611df0565b61054657895f610369565b8980fd5b6040513d84823e3d90fd5b8280fd5b61057b915060203d602011610581575b6105738183611df0565b81019061244d565b5f610363565b503d610569565b6040513d85823e3d90fd5b634e487b7160e01b8c5260048c905260248cfd5b634e487b7160e01b8c52604160045260248cfd5b8880fd5b8780fd5b8680fd5b8580fd5b8480fd5b8380fd5b505b80fd5b50346105d55760203660031901126105d557600435816001600160401b0382116105d55761060d61063b923690600401611e2c565b60018060a01b0360025416604051808095819463783d963d60e11b8352602060048401526024830190611e72565b03915afa90811561054a578261065f9392610663575b50506040519182918261212a565b0390f35b61067f92503d8091833e6106778183611df0565b81019061281e565b5f80610651565b50346105d55760403660031901126105d5576004356001600160401b0381116105d3576106b7903690600401611e2c565b906024356001600160401b0381116105d357366023820112156105d3578060040135906106e382612046565b916106f16040519384611df0565b80835260051b8101602401602083013682116105cb5760248301905b82821061097f5750506001546040516395a8c58d60e01b815233600482015260248101869052925060209150829060449082906001600160a01b03165afa9081156105885790610764918491610960575b50612465565b60405192805193602081818401968088835e810160068152030190209260405161078d81611d6f565b61079685612268565b81526107a460018601612268565b90602081019182526107b860028701612268565b6040820152610100610822600a6107d160038a01612268565b9860608501998a5260ff60048201541660808601526107f260058201612413565b60a086015261080360078201612413565b60c086015261081c60ff60098301541660e08701612441565b01612268565b91015260086040516020818651808b835e6006908201908152030190200180546001600160a01b031916331790556040518351600991906020908290808b835e8101600681520301902001600160ff19825416179055604051600184518089845e8201916007835260208142940301902001556108b36040516020818651808b835e81016005815203019020612540565b815b84518110156108f1576001906108eb6040516020818851808d835e810160058152030190206108e483896123ff565b51906126b9565b016108b5565b506002549051855192948593926001600160a01b0316803b156105cb576109329385809460405196879586948593631d38299760e31b8552600485016126f9565b03925af1801561054a5761094b575b506104b6826129bd565b8161095591611df0565b6105d3578183610941565b610979915060203d602011610581576105738183611df0565b5f61075e565b81356001600160401b0381116105c3576020916109a3839260243691890101611e2c565b81520191019061070d565b50346105d557806003193601126105d557546040516001600160a01b039091168152602090f35b50346105d55760203660031901126105d557600435816001600160401b0382116105d557610a0a61063b923690600401611e2c565b60018060a01b0360025416604051808095819463e1336da560e01b8352602060048401526024830190611e72565b50346105d55760203660031901126105d5576004356004548110156105d357600454811015610ac157600482527f8a35acfbc15ff81a39ae7d344fd709f28e8600b4aa8c65c6b64bfe7fe36bd19b019080610aad5761065f610a9983612268565b604051918291602083526020830190611e72565b634e487b7160e01b81526004819052602490fd5b634e487b7160e01b82526032600452602482fd5b50346105d557806003193601126105d557600180546040516395a8c58d60e01b81523360048201526024810192909252602090829060449082906001600160a01b03165afa801561054a57610b309183916109605750612465565b8054604051630a1e0a4b60e41b8152908290829060049082906001600160a01b03165afa90811561054a578291610c32575b50906040519182916020830160208452825180915260408401602060408360051b870101940192905b828210610b9a57505050500390f35b91936001919395506020610c228192603f198a820301865288519060a0610bf2610be0610bd0855160c0865260c0860190611e72565b8786015185820389870152611e72565b60408501518482036040860152611e72565b9260ff6060820151166060840152610c126080820151608085019061211d565b01519060a0818403910152611e72565b9601920192018594939192610b8b565b90503d8083833e610c438183611df0565b810190602081830312610555578051906001600160401b0382116105cf570181601f8201121561055557805190610c7982612046565b92610c876040519485611df0565b82845260208085019360051b830101918183116105c75760208101935b838510610cb65750505050505f610b62565b84516001600160401b0381116105bf5782019060c0828503601f1901126105bf5760405190610ce482611d9f565b60208301516001600160401b03811161054657856020610d06928601016127ca565b825260408301516001600160401b03811161054657856020610d2a928601016127ca565b602083015260608301516001600160401b03811161054657856020610d51928601016127ca565b6040830152610d6260808401612810565b606083015260a0830151600281101561054657608083015260c0830151916001600160401b03831161054657610da0866020809695819601016127ca565b60a0820152815201940193610ca4565b50346105d55760203660031901126105d5576004356001600160401b0381116105d3576020606092610de782933690600401611e2c565b9060408051610df581611dba565b82815282858201520152604051928184925191829101835e81016007815203019020604051610e2381611dba565b815491828252604060026001830154926020850193845201549201918252604051928352516020830152516040820152f35b50346105d557610e643661205d565b6001546040516395a8c58d60e01b8152336004820152600360248201529193929190602090829060449082906001600160a01b03165afa9081156105885790610eb39184916109605750612465565b60405190805191602081818401948086835e810160068152030190209260405190610edd82611d6f565b610ee685612268565b8252610ef460018601612268565b60208301908152610f0760028701612268565b9560408401968752610f1b60038201612268565b6060850190815260ff6004830154169260808601938452610100610f73600a610f4660058701612413565b9560a08a01968752610f5a60078201612413565b60c08b015261081c60ff60098301541660e08c01612441565b960195865260096040516020818a51808d835e8101600681520301902001600260ff1982541617905560405160028851808b845e820191600783526020814294030190200155610fcb610fc68751612327565b612540565b610fe96040516020818a51808d835e81016005815203019020612540565b845b8a5181101561103c57806110368c6108e46001948d60208e61101b8f6110119051612327565b6108e486896123ff565b604051928391518091835e81016005815203019020926123ff565b01610feb565b5084969550888a60018060a01b03600254168351855190823b1561054657611080928a9283869360405196879586948593631d38299760e31b8552600485016126f9565b03925af190811561113e578891611149575b50506002548451906001600160a01b0316803b156105bb578289916110cd9383604051809681958294627481d960e01b845260048401612730565b03925af190811561113e578891611129575b505060ff60018060a01b036002541693519251945196511694515191833b156105bf57610932899389979388946040519a8b998a9889976306d512ff60e21b895260048901612755565b8161113391611df0565b6105c357868a6110df565b6040513d8a823e3d90fd5b8161115391611df0565b6105c357868a611092565b50346105d557806003193601126105d5576003546040516001600160a01b039091168152602090f35b50346105d55760203660031901126105d557600435906001600160401b0382116105d55761065f6020806111be3660048701611e2c565b6111c661235f565b50604051928184925191829101835e81016006815203019020611272600a604051926111f184611d6f565b6111fa81612268565b845261120860018201612268565b602085015261121960028201612268565b604085015261122a60038201612268565b606085015260ff600482015416608085015261124860058201612413565b60a085015261125960078201612413565b60c085015261081c60ff60098301541660e08601612441565b610100820152604051918291602083526020830190611ebf565b50346105d557806003193601126105d55760025460405163906ce01760e01b8152908290829060049082906001600160a01b03165afa90811561054a578261065f93926106635750506040519182918261212a565b50346105d55760203660031901126105d557600435816001600160401b0382116105d557611316611344923690600401611e2c565b60018060a01b036003541660405180809581946306f12c2360e41b8352602060048401526024830190611e72565b03915afa90811561054a578291611440575b5090604051918291602083016020845282518091526040840190602060408260051b870101940192805b82821061138d5786860387f35b919395509193603f198782030185528551906113dc6113ca6113b8845160c0855260c0850190611e72565b60208501518482036020860152611e72565b60408401518382036040850152611e72565b9160ff60608201511660608301526080810151600481101561142c576001938360a06020959461141c9460808897015201519060a0818403910152611e72565b9701950192018695949391611380565b634e487b7160e01b85526021600452602485fd5b90503d8083833e6114518183611df0565b810190602081830312610555578051906001600160401b0382116105cf570181601f820112156105555780519061148782612046565b926114956040519485611df0565b82845260208085019360051b830101918183116105c75760208101935b8385106114c45750505050505f611356565b84516001600160401b0381116105bf5782019060c0828503601f1901126105bf57604051906114f282611d9f565b60208301516001600160401b03811161054657856020611514928601016127ca565b825260408301516001600160401b03811161054657856020611538928601016127ca565b602083015260608301516001600160401b0381116105465785602061155f928601016127ca565b604083015261157060808401612810565b606083015260a0830151600481101561054657608083015260c0830151916001600160401b038311610546576115ae866020809695819601016127ca565b60a08201528152019401936114b2565b50346105d5576115cd3661205d565b91906044602060018060a01b0360015416604051928380926395a8c58d60e01b8252336004830152600160248301525afa90811561058857906116169184916109605750612465565b60405190805191602081818401948086835e810160068152030190209260405161163f81611d6f565b61164885612268565b815261165660018601612268565b946020820195865261166a60028201612268565b956040830196875261167e60038301612268565b906060840191825260ff60048401541693608081019485526101006116be600a6116aa60058801612413565b9660a0850197885261080360078201612413565b91015260096040516020818951808c835e8101600681520301902001600260ff1982541617905560405160028751808a845e8201916007835260208142940301902001556117206040516020818951808c835e81016005815203019020612540565b845b895181101561175b57806117558b6108e46001948c60208d604051928391518091835e81016005815203019020926123ff565b01611722565b50849650878960018060a01b03600254168351855190823b156105465761179e928a9283869360405196879586948593631d38299760e31b8552600485016126f9565b03925af190811561113e5788916117fa575b505060ff60018060a01b036002541693519251945196511694515191833b156105bf57610932899389979388946040519a8b998a9889976301fabf1f60e01b895260048901612755565b8161180491611df0565b6105c357868a6117b0565b5034611abc5761181e3661205d565b91906044602060018060a01b0360015416604051928380926395a8c58d60e01b8252336004830152600160248301525afa8015611ab157611865915f916109605750612465565b60405190805191602081818401948086835e81016006815203019020926040519361188f85611d6f565b61189881612268565b85526118a660018201612268565b94602081019586526118ba60028301612268565b60408201526101006118f4600a6118d360038601612268565b946060850195865260ff60048201541660808601526107f260058201612413565b910152600860405160208186518089835e6006908201908152030190200180546001600160a01b0319163317905560405183516009919060209082908089835e8101600681520301902001600160ff19825416179055604051600184518087845e82019160078352602081429403019020015561198b610fc6600a6040516020818851808b835e81016006815203019020016124a0565b6119a960405160208186518089835e81016005815203019020612540565b5f5b8651811015611a0e576001906119e56119db600a6040516020818a51808d835e81016006815203019020016124a0565b6108e4838b6123ff565b611a086040516020818851808b835e810160058152030190206108e4838b6123ff565b016119ab565b508290868660018060a01b03600254169051835190823b15611abc57611a50925f9283869360405196879586948593631d38299760e31b8552600485016126f9565b03925af18015611ab157611a9a575b50600254915184926001600160a01b031691823b156105cf5761093292849283604051809681958294627481d960e01b845260048401612730565b611aa8919294505f90611df0565b5f929084611a5f565b6040513d5f823e3d90fd5b5f80fd5b34611abc576020366003190112611abc576004356001600160401b038111611abc57611af0903690600401611e2c565b604051815190602081818501938085835e810160088152030190205490611b16826123b0565b925f5b838110611b2e576040518061065f8782611f8f565b80611b61611b5c611b566001946040516020818951808c835e81016008815203019020612207565b50612268565b612308565b611b89600a60405192611b7384611d6f565b611b7c81612268565b8452611208868201612268565b610100820152611b9982886123ff565b52611ba481876123ff565b5001611b19565b34611abc575f366003190112611abc576002546040516001600160a01b039091168152602090f35b34611abc576020366003190112611abc576004356001600160401b038111611abc576020611c0681923690600401611e2c565b604051928184925191829101835e810160058152030190208054611c2981612046565b91611c376040519384611df0565b81835260208301905f5260205f205f915b838310611c65576040516020808252819061065f90820188611fee565b600160208192611c7485612268565b815201920192019190611c48565b34611abc576020366003190112611abc576004356001600160401b038111611abc57611cb2903690600401611e2c565b604051815190602081818501938085835e810160098152030190205490611cd8826123b0565b925f5b838110611cf0576040518061065f8782611f8f565b80611d18611b5c611b566001946040516020818951808c835e81016009815203019020612207565b611d2a600a60405192611b7384611d6f565b610100820152611d3a82886123ff565b52611d4581876123ff565b5001611cdb565b34611abc575f366003190112611abc576001546001600160a01b03168152602090f35b61012081019081106001600160401b03821117611d8b57604052565b634e487b7160e01b5f52604160045260245ffd5b60c081019081106001600160401b03821117611d8b57604052565b606081019081106001600160401b03821117611d8b57604052565b604081019081106001600160401b03821117611d8b57604052565b90601f801991011681019081106001600160401b03821117611d8b57604052565b6001600160401b038111611d8b57601f01601f191660200190565b81601f82011215611abc57803590611e4382611e11565b92611e516040519485611df0565b82845260208383010111611abc57815f926020809301838601378301015290565b805180835260209291819084018484015e5f828201840152601f01601f1916010190565b906020611eac8351604084526040840190611e72565b928101516001600160a01b031691015290565b90611f4b611f39611f1a611f08611ef6611ee487516101208852610120880190611e72565b60208801518782036020890152611e72565b60408701518682036040880152611e72565b60608601518582036060870152611e72565b60ff608086015116608085015260a085015184820360a0860152611e96565b60c084015183820360c0850152611e96565b9060e08301516003811015611f7b57611f78936101009160e0840152015190610100818403910152611e72565b90565b634e487b7160e01b5f52602160045260245ffd5b602081016020825282518091526040820191602060408360051b8301019401925f915b838310611fc157505050505090565b9091929394602080611fdf600193603f198682030187528951611ebf565b97019301930191939290611fb2565b9080602083519182815201916020808360051b8301019401925f915b83831061201957505050505090565b9091929394602080612037600193601f198682030187528951611e72565b9701930193019193929061200a565b6001600160401b038111611d8b5760051b60200190565b906040600319830112611abc576004356001600160401b038111611abc578261208891600401611e2c565b91602435906001600160401b038211611abc5780602383011215611abc5781600401356120b481612046565b926120c26040519485611df0565b8184526024602085019260051b82010191838311611abc5760248201905b8382106120ef57505050505090565b81356001600160401b038111611abc576020916121128760248594880101611e2c565b8152019101906120e0565b906002821015611f7b5752565b602081016020825282518091526040820191602060408360051b8301019401925f915b83831061215c57505050505090565b90919293946020806121f8600193603f1986820301875289519060c06121c86121b66121a4612194865160e0875260e0870190611e72565b888701518682038a880152611e72565b60408601518582036040870152611e72565b60608501518482036060860152611e72565b9260ff60808201511660808401526121e860a082015160a085019061211d565b01519060c0818403910152611e72565b9701930193019193929061214d565b805482101561221c575f5260205f2001905f90565b634e487b7160e01b5f52603260045260245ffd5b90600182811c9216801561225e575b602083101461224a57565b634e487b7160e01b5f52602260045260245ffd5b91607f169161223f565b9060405191825f82549261227b84612230565b80845293600181169081156122e657506001146122a2575b506122a092500383611df0565b565b90505f9291925260205f20905f915b8183106122ca5750509060206122a0928201015f612293565b60209193508060019154838589010152019101909184926122b1565b9050602092506122a094915060ff191682840152151560051b8201015f612293565b60208091604051928184925191829101835e8101600681520301902090565b60208091604051928184925191829101835e8101600581520301902090565b6040519061235382611dd5565b5f602083606081520152565b6040519061236c82611d6f565b60606101008382815282602082015282604082015282808201525f6080820152612394612346565b60a08201526123a1612346565b60c08201525f60e08201520152565b906123ba82612046565b6123c76040519182611df0565b82815280926123d8601f1991612046565b01905f5b8281106123e857505050565b6020906123f361235f565b828285010152016123dc565b805182101561221c5760209160051b010190565b9060405161242081611dd5565b6020819361242d81612268565b8352600101546001600160a01b0316910152565b6003821015611f7b5752565b90816020910312611abc57518015158103611abc5790565b1561246c57565b60405162461bcd60e51b815260206004820152600c60248201526b155b985d5d1a1bdc9a5e995960a21b6044820152606490fd5b60405190815f8254926124b284612230565b936001811690811561251057506001146124d7575b5060209250600581520301902090565b9150505f528160205f205f905b8382106124f857505060209181015f6124c7565b602091925080600191548487015201910183916124e4565b60ff191684525060209380151502830191505f90506124c7565b818110612535575050565b5f815560010161252a565b8054905f81558161254f575050565b5f5260205f20908101905b818110612565575050565b8061257260019254612230565b8061257f575b500161255a565b601f8111831461259457505f81555b5f612578565b6125b090825f5283601f60205f20920160051c8201910161252a565b805f525f602081208183555561258e565b91909182516001600160401b038111611d8b576125de8254612230565b601f811161267e575b506020601f821160011461262057819293945f92612615575b50508160011b915f199060031b1c1916179055565b015190505f80612600565b601f19821690835f52805f20915f5b8181106126665750958360019596971061264e575b505050811b019055565b01515f1960f88460031b161c191690555f8080612644565b9192602060018192868b01518155019401920161262f565b6126a990835f5260205f20601f840160051c810191602085106126af575b601f0160051c019061252a565b5f6125e7565b909150819061269c565b8054600160401b811015611d8b576126d691600182018155612207565b9190916126e6576122a0916125c1565b634e487b7160e01b5f525f60045260245ffd5b9161272290612714611f789593606086526060860190611e72565b908482036020860152611e72565b916040818403910152611fee565b9091612747611f7893604084526040840190611e72565b916020818403910152611fee565b95916127bc9461279a611f7899979561278c6127a89461277e60ff9760e08e8181520190611e72565b8c810360208e015290611e72565b908a820360408c0152611e72565b9088820360608a0152611e72565b9216608086015284820360a0860152611fee565b9160c0818403910152611e72565b81601f82011215611abc578051906127e182611e11565b926127ef6040519485611df0565b82845260208383010111611abc57815f9260208093018386015e8301015290565b519060ff82168203611abc57565b602081830312611abc578051906001600160401b038211611abc57019080601f83011215611abc5781519161285283612046565b926128606040519485611df0565b80845260208085019160051b83010191838311611abc5760208101915b83831061288c57505050505090565b82516001600160401b038111611abc5782019060e0828703601f190112611abc576040519060e082018281106001600160401b03821117611d8b5760405260208301516001600160401b038111611abc578760206128ec928601016127ca565b825260408301516001600160401b038111611abc57876020612910928601016127ca565b602083015260608301516001600160401b038111611abc57876020612937928601016127ca565b604083015260808301516001600160401b038111611abc5787602061295e928601016127ca565b606083015261296f60a08401612810565b608083015260c08301516002811015611abc5760a083015260e0830151916001600160401b038311611abc576129ad886020809695819601016127ca565b60c082015281520192019161287d565b612ad76020807f18cb8d3b57e0af2974ed846dca439c7419023ccdf40b1d07099e3950c47c10b3936129ed61235f565b50604051928184925191829101835e81016006815203019020604051612a1281611d6f565b612a1b82612268565b8152612a2960018301612268565b6020820152612b01612a3d60028401612268565b9260408301938452612af3612a5460038301612268565b9160608501928352612ae560ff806004840154169460808801958652612a7c60058501612413565b9760a08101988952610100612ab3600a612a9860078901612413565b9760c0850198895261081c8760098301541660e08701612441565b9101525197519651519251519451169560405198899860c08a5260c08a0190611e72565b9088820360208a0152611e72565b908682036040880152611e72565b908482036060860152611e72565b9060808301524260a08301520390a156fea264697066735822122089f3e721c8147ea6b7ab583c9e7570e155c1f817976f70683c995416f3deb5a264736f6c634300081b0033",
  "linkReferences": {},
  "deployedLinkReferences": {}
}