{
  "_format": "hh-sol-artifact-1",
  "contractName": "OrderManagement",
  "sourceName": "contracts/OrderManagement.sol",
  "abi": [
    {
      "inputs": [
        {
          "internalType": "address",
          "name": "_obatTradisionalAddr",
          "type": "address"
        },
        {
          "internalType": "address",
          "name": "_roleManagerAddr",
          "type": "address"
        },
        {
          "internalType": "address",
          "name": "_obatSharedAddr",
          "type": "address"
        },
        {
          "internalType": "address",
          "name": "_cdobCertificateAddr",
          "type": "address"
        }
      ],
      "stateMutability": "nonpayable",
      "type": "constructor"
    },
    {
      "anonymous": false,
      "inputs": [
        {
          "indexed": false,
          "internalType": "string",
          "name": "batchName",
          "type": "string"
        },
        {
          "indexed": false,
          "internalType": "string",
          "name": "namaProduk",
          "type": "string"
        },
        {
          "indexed": false,
          "internalType": "string",
          "name": "buyerInstanceName",
          "type": "string"
        },
        {
          "indexed": false,
          "internalType": "string",
          "name": "sellerInstanceName",
          "type": "string"
        },
        {
          "indexed": false,
          "internalType": "uint8",
          "name": "orderQuantity",
          "type": "uint8"
        },
        {
          "indexed": false,
          "internalType": "uint256",
          "name": "timestamp",
          "type": "uint256"
        }
      ],
      "name": "evt_orderUpdate",
      "type": "event"
    },
    {
      "inputs": [
        {
          "internalType": "string",
          "name": "_orderId",
          "type": "string"
        },
        {
          "internalType": "string[]",
          "name": "_orderObatIpfs",
          "type": "string[]"
        }
      ],
      "name": "acceptOrderPbf",
      "outputs": [],
      "stateMutability": "nonpayable",
      "type": "function"
    },
    {
      "inputs": [
        {
          "internalType": "string",
          "name": "_orderId",
          "type": "string"
        },
        {
          "internalType": "string[]",
          "name": "_orderObatIpfs",
          "type": "string[]"
        }
      ],
      "name": "acceptOrderRetailer",
      "outputs": [],
      "stateMutability": "nonpayable",
      "type": "function"
    },
    {
      "inputs": [
        {
          "internalType": "uint256",
          "name": "",
          "type": "uint256"
        }
      ],
      "name": "allOrderId",
      "outputs": [
        {
          "internalType": "string",
          "name": "",
          "type": "string"
        }
      ],
      "stateMutability": "view",
      "type": "function"
    },
    {
      "inputs": [],
      "name": "cdobCertificate",
      "outputs": [
        {
          "internalType": "contract CdobCertificate",
          "name": "",
          "type": "address"
        }
      ],
      "stateMutability": "view",
      "type": "function"
    },
    {
      "inputs": [
        {
          "internalType": "string",
          "name": "_orderId",
          "type": "string"
        },
        {
          "internalType": "string[]",
          "name": "_orderObatIpfs",
          "type": "string[]"
        }
      ],
      "name": "completeOrderPbf",
      "outputs": [],
      "stateMutability": "nonpayable",
      "type": "function"
    },
    {
      "inputs": [
        {
          "internalType": "string",
          "name": "_orderId",
          "type": "string"
        },
        {
          "internalType": "string[]",
          "name": "_orderObatIpfs",
          "type": "string[]"
        }
      ],
      "name": "completeOrderRetailer",
      "outputs": [],
      "stateMutability": "nonpayable",
      "type": "function"
    },
    {
      "inputs": [
        {
          "internalType": "string",
          "name": "_prevOrderIdPbf",
          "type": "string"
        },
        {
          "internalType": "string",
          "name": "_orderId",
          "type": "string"
        },
        {
          "internalType": "string",
          "name": "_obatId",
          "type": "string"
        },
        {
          "internalType": "string",
          "name": "_batchName",
          "type": "string"
        },
        {
          "internalType": "string",
          "name": "_namaProduk",
          "type": "string"
        },
        {
          "internalType": "string",
          "name": "_buyerInstance",
          "type": "string"
        },
        {
          "internalType": "string",
          "name": "_sellerInstance",
          "type": "string"
        },
        {
          "internalType": "uint8",
          "name": "_orderQuantity",
          "type": "uint8"
        },
        {
          "internalType": "string",
          "name": "_cdobHash",
          "type": "string"
        }
      ],
      "name": "createOrder",
      "outputs": [],
      "stateMutability": "nonpayable",
      "type": "function"
    },
    {
      "inputs": [
        {
          "internalType": "string",
          "name": "_orderId",
          "type": "string"
        }
      ],
      "name": "detailOrder",
      "outputs": [
        {
          "components": [
            {
              "internalType": "string",
              "name": "orderId",
              "type": "string"
            },
            {
              "internalType": "string",
              "name": "obatId",
              "type": "string"
            },
            {
              "internalType": "string",
              "name": "namaProduk",
              "type": "string"
            },
            {
              "internalType": "string",
              "name": "batchName",
              "type": "string"
            },
            {
              "internalType": "uint8",
              "name": "orderQuantity",
              "type": "uint8"
            },
            {
              "components": [
                {
                  "internalType": "string",
                  "name": "instanceName",
                  "type": "string"
                },
                {
                  "internalType": "address",
                  "name": "instanceAddr",
                  "type": "address"
                }
              ],
              "internalType": "struct OrderManagement.st_orderUser",
              "name": "buyerUser",
              "type": "tuple"
            },
            {
              "components": [
                {
                  "internalType": "string",
                  "name": "instanceName",
                  "type": "string"
                },
                {
                  "internalType": "address",
                  "name": "instanceAddr",
                  "type": "address"
                }
              ],
              "internalType": "struct OrderManagement.st_orderUser",
              "name": "sellerUser",
              "type": "tuple"
            },
            {
              "internalType": "enum EnumsLibrary.OrderStatus",
              "name": "statusOrder",
              "type": "uint8"
            },
            {
              "internalType": "string",
              "name": "prevOrderIdPbf",
              "type": "string"
            }
          ],
          "internalType": "struct OrderManagement.st_obatOrder",
          "name": "",
          "type": "tuple"
        }
      ],
      "stateMutability": "view",
      "type": "function"
    },
    {
      "inputs": [
        {
          "internalType": "string",
          "name": "_instanceName",
          "type": "string"
        }
      ],
      "name": "getAllObatPbfByInstance",
      "outputs": [
        {
          "components": [
            {
              "internalType": "string",
              "name": "orderId",
              "type": "string"
            },
            {
              "internalType": "string",
              "name": "obatId",
              "type": "string"
            },
            {
              "internalType": "string",
              "name": "namaProduk",
              "type": "string"
            },
            {
              "internalType": "string",
              "name": "batchName",
              "type": "string"
            },
            {
              "internalType": "uint8",
              "name": "obatQuantity",
              "type": "uint8"
            },
            {
              "internalType": "enum EnumsLibrary.ObatAvailability",
              "name": "statusStok",
              "type": "uint8"
            },
            {
              "internalType": "string",
              "name": "ownerInstance",
              "type": "string"
            }
          ],
          "internalType": "struct ObatShared.st_obatOutputStock[]",
          "name": "",
          "type": "tuple[]"
        }
      ],
      "stateMutability": "view",
      "type": "function"
    },
    {
      "inputs": [],
      "name": "getAllObatPbfReadyStock",
      "outputs": [
        {
          "components": [
            {
              "internalType": "string",
              "name": "orderId",
              "type": "string"
            },
            {
              "internalType": "string",
              "name": "obatId",
              "type": "string"
            },
            {
              "internalType": "string",
              "name": "namaProduk",
              "type": "string"
            },
            {
              "internalType": "string",
              "name": "batchName",
              "type": "string"
            },
            {
              "internalType": "uint8",
              "name": "obatQuantity",
              "type": "uint8"
            },
            {
              "internalType": "enum EnumsLibrary.ObatAvailability",
              "name": "statusStok",
              "type": "uint8"
            },
            {
              "internalType": "string",
              "name": "ownerInstance",
              "type": "string"
            }
          ],
          "internalType": "struct ObatShared.st_obatOutputStock[]",
          "name": "",
          "type": "tuple[]"
        }
      ],
      "stateMutability": "view",
      "type": "function"
    },
    {
      "inputs": [
        {
          "internalType": "string",
          "name": "_instanceName",
          "type": "string"
        }
      ],
      "name": "getAllObatRetailerByInstance",
      "outputs": [
        {
          "components": [
            {
              "internalType": "string",
              "name": "orderId",
              "type": "string"
            },
            {
              "internalType": "string",
              "name": "obatId",
              "type": "string"
            },
            {
              "internalType": "string",
              "name": "namaProduk",
              "type": "string"
            },
            {
              "internalType": "string",
              "name": "batchName",
              "type": "string"
            },
            {
              "internalType": "uint8",
              "name": "obatQuantity",
              "type": "uint8"
            },
            {
              "internalType": "enum EnumsLibrary.ObatAvailability",
              "name": "statusStok",
              "type": "uint8"
            },
            {
              "internalType": "string",
              "name": "ownerInstance",
              "type": "string"
            }
          ],
          "internalType": "struct ObatShared.st_obatOutputStock[]",
          "name": "",
          "type": "tuple[]"
        }
      ],
      "stateMutability": "view",
      "type": "function"
    },
    {
      "inputs": [
        {
          "internalType": "string",
          "name": "_buyerInstance",
          "type": "string"
        }
      ],
      "name": "getAllOrderFromBuyer",
      "outputs": [
        {
          "components": [
            {
              "internalType": "string",
              "name": "orderId",
              "type": "string"
            },
            {
              "internalType": "string",
              "name": "obatId",
              "type": "string"
            },
            {
              "internalType": "string",
              "name": "namaProduk",
              "type": "string"
            },
            {
              "internalType": "string",
              "name": "batchName",
              "type": "string"
            },
            {
              "internalType": "uint8",
              "name": "orderQuantity",
              "type": "uint8"
            },
            {
              "components": [
                {
                  "internalType": "string",
                  "name": "instanceName",
                  "type": "string"
                },
                {
                  "internalType": "address",
                  "name": "instanceAddr",
                  "type": "address"
                }
              ],
              "internalType": "struct OrderManagement.st_orderUser",
              "name": "buyerUser",
              "type": "tuple"
            },
            {
              "components": [
                {
                  "internalType": "string",
                  "name": "instanceName",
                  "type": "string"
                },
                {
                  "internalType": "address",
                  "name": "instanceAddr",
                  "type": "address"
                }
              ],
              "internalType": "struct OrderManagement.st_orderUser",
              "name": "sellerUser",
              "type": "tuple"
            },
            {
              "internalType": "enum EnumsLibrary.OrderStatus",
              "name": "statusOrder",
              "type": "uint8"
            },
            {
              "internalType": "string",
              "name": "prevOrderIdPbf",
              "type": "string"
            }
          ],
          "internalType": "struct OrderManagement.st_obatOrder[]",
          "name": "",
          "type": "tuple[]"
        }
      ],
      "stateMutability": "view",
      "type": "function"
    },
    {
      "inputs": [
        {
          "internalType": "string",
          "name": "_sellerInstance",
          "type": "string"
        }
      ],
      "name": "getAllOrderFromSeller",
      "outputs": [
        {
          "components": [
            {
              "internalType": "string",
              "name": "orderId",
              "type": "string"
            },
            {
              "internalType": "string",
              "name": "obatId",
              "type": "string"
            },
            {
              "internalType": "string",
              "name": "namaProduk",
              "type": "string"
            },
            {
              "internalType": "string",
              "name": "batchName",
              "type": "string"
            },
            {
              "internalType": "uint8",
              "name": "orderQuantity",
              "type": "uint8"
            },
            {
              "components": [
                {
                  "internalType": "string",
                  "name": "instanceName",
                  "type": "string"
                },
                {
                  "internalType": "address",
                  "name": "instanceAddr",
                  "type": "address"
                }
              ],
              "internalType": "struct OrderManagement.st_orderUser",
              "name": "buyerUser",
              "type": "tuple"
            },
            {
              "components": [
                {
                  "internalType": "string",
                  "name": "instanceName",
                  "type": "string"
                },
                {
                  "internalType": "address",
                  "name": "instanceAddr",
                  "type": "address"
                }
              ],
              "internalType": "struct OrderManagement.st_orderUser",
              "name": "sellerUser",
              "type": "tuple"
            },
            {
              "internalType": "enum EnumsLibrary.OrderStatus",
              "name": "statusOrder",
              "type": "uint8"
            },
            {
              "internalType": "string",
              "name": "prevOrderIdPbf",
              "type": "string"
            }
          ],
          "internalType": "struct OrderManagement.st_obatOrder[]",
          "name": "",
          "type": "tuple[]"
        }
      ],
      "stateMutability": "view",
      "type": "function"
    },
    {
      "inputs": [
        {
          "internalType": "string",
          "name": "_orderId",
          "type": "string"
        }
      ],
      "name": "obatIpfs",
      "outputs": [
        {
          "internalType": "string[]",
          "name": "",
          "type": "string[]"
        }
      ],
      "stateMutability": "view",
      "type": "function"
    },
    {
      "inputs": [],
      "name": "obatShared",
      "outputs": [
        {
          "internalType": "contract ObatShared",
          "name": "",
          "type": "address"
        }
      ],
      "stateMutability": "view",
      "type": "function"
    },
    {
      "inputs": [],
      "name": "obatTradisional",
      "outputs": [
        {
          "internalType": "contract ObatTradisional",
          "name": "",
          "type": "address"
        }
      ],
      "stateMutability": "view",
      "type": "function"
    },
    {
      "inputs": [
        {
          "internalType": "string",
          "name": "_orderId",
          "type": "string"
        }
      ],
      "name": "orderTimestamp",
      "outputs": [
        {
          "components": [
            {
              "internalType": "uint256",
              "name": "timestampOrder",
              "type": "uint256"
            },
            {
              "internalType": "uint256",
              "name": "timestampShipped",
              "type": "uint256"
            },
            {
              "internalType": "uint256",
              "name": "timestampComplete",
              "type": "uint256"
            }
          ],
          "internalType": "struct OrderManagement.st_orderTimestamp",
          "name": "",
          "type": "tuple"
        }
      ],
      "stateMutability": "view",
      "type": "function"
    },
    {
      "inputs": [],
      "name": "roleManager",
      "outputs": [
        {
          "internalType": "contract RoleManager",
          "name": "",
          "type": "address"
        }
      ],
      "stateMutability": "view",
      "type": "function"
    }
  ],
  "bytecode": "0x60803460bd57601f6124d438819003918201601f19168301916001600160401b0383118484101760c15780849260809460405283398101031260bd5760428160d5565b90604d6020820160d5565b9160626060605c6040850160d5565b930160d5565b600180546001600160a01b03199081166001600160a01b03968716179091555f80548216938616939093179092556002805483169385169390931790925560038054909116919092161790556040516123eb90816100e98239f35b5f80fd5b634e487b7160e01b5f52604160045260245ffd5b51906001600160a01b038216820360bd5756fe6080806040526004361015610012575f80fd5b5f905f3560e01c908162435da5146116bc575080631c2fc292146115ef578063271962d4146115385780633fca88cb1461151057806360e4b3cf1461140b57806364484ac914611180578063756b460f14610ec0578063906ce01714610e6b578063986a079014610d36578063af3a175814610d0d578063af9bf53d14610ac7578063b711e82b14610a22578063dd5739ae14610975578063e1336da514610912578063ea020d59146108eb578063ee399ed414610677578063f07b2c7a146105c95763fc0e6523146100e3575f80fd5b346105c6576101203660031901126105c6576004356001600160401b0381116105c457610114903690600401611781565b906024356001600160401b0381116105c457610134903690600401611781565b6044356001600160401b03811161054657610153903690600401611781565b6064356001600160401b0381116105c057610172903690600401611781565b936084356001600160401b0381116105bc57610192903690600401611781565b60a4356001600160401b0381116105b8576101b1903690600401611781565b9060c4356001600160401b0381116105b4576101d1903690600401611781565b9660e4359060ff82168092036105b057610104356001600160401b0381116105ac57610201903690600401611781565b9261020a611c56565b50604051936102188561172a565b858552336020860152610229611c56565b50604051956102378761172a565b8b87528a6020880152600454600160401b8110156105985780600161026192016004556004611b55565b61058457998b9c81809d949361027a82809d9e9f611edc565b604051818192516020819201835e8101600881520360200190209061029e91611fd4565b604051818192516020819201835e810160098152036020019020906102c291611fd4565b6040516102ce8161170f565b428152602081018381526040820190848252604051808c516020819e019d8e835e60079082019081520360200190209251835551600180840191909155905160029092019190915580546040516395a8c58d60e01b815233600482015260248101929092526001600160a01b0316816044815a93602094fa90811561057957839161054a575b506104be575b505060405197610369896116df565b8989526020890190815260408901918252606089019283526080890193845260a0890194855260c0890195865260e08901968b88526101008a0198895260405180918c518091835e81016006815203602001902098516103c9908a611edc565b516103d79060018a01611edc565b516103e59060028901611edc565b516103f39060038801611edc565b60048601905160ff1660ff19825416179055518051600586019061041691611edc565b602001516006850180546001600160a01b0319166001600160a01b039290921691909117905551805161044c9060078601611edc565b602001516008840180546001600160a01b0319166001600160a01b039290921691909117905551600983019060038110156104aa576104a2926104a7959492600a9260ff80198354169116179055519101611edc565b612223565b80f35b634e487b7160e01b86526021600452602486fd5b6002546001600160a01b0316803b1561054657610513918391610501838e604051968795869485936331cb1cc560e21b85526040600486015260448501906117c7565b838103600319016024850152906117c7565b03925af1801561053b571561035a578161052c91611745565b61053757895f61035a565b8980fd5b6040513d84823e3d90fd5b8280fd5b61056c915060203d602011610572575b6105648183611745565b810190611d65565b5f610354565b503d61055a565b6040513d85823e3d90fd5b634e487b7160e01b8c5260048c905260248cfd5b634e487b7160e01b8c52604160045260248cfd5b8880fd5b8780fd5b8680fd5b8580fd5b8480fd5b8380fd5b505b80fd5b50346105c65760203660031901126105c657600435816001600160401b0382116105c6576105fe61062c923690600401611781565b60018060a01b0360025416604051808095819463783d963d60e11b83526020600484015260248301906117c7565b03915afa90811561053b57826106509392610654575b505060405191829182611a72565b0390f35b61067092503d8091833e6106688183611745565b810190612081565b5f80610642565b50346105c657610686366119b2565b91906044602060018060a01b0360015416604051928380926395a8c58d60e01b82523360048301528760248301525afa9081156105795783916108cc575b50156108925760405190805191602081818401948086835e81016006815203019020926008840160018060a01b0333166bffffffffffffffffffffffff60a01b82541617905560098401600160ff19825416179055604051600183518086845e82019160078352602081429403019020015561075460405160208185518088835e81016005815203019020611e5b565b805b85518110156107925760019061078c6040516020818751808a835e81016005815203019020610785838a611d0f565b5190611fd4565b01610756565b509081858560018060a01b0360025416906003810191803b156105bc576107e085916107f2938360405180968195829463871811f160e01b8452606060048501526001606485019101611bb6565b82810360031901602484015289611bb6565b6001604483015203925af1908115610887578491610872575b50506002546001600160a01b031691823b156105c057610844928492836040518096819582946329a2ac2760e11b845260048401612016565b03925af1801561053b5761085d575b506104a782612223565b8161086791611745565b6105c4578183610853565b8161087c91611745565b61054657828661080b565b6040513d86823e3d90fd5b60405162461bcd60e51b815260206004820152601260248201527150616272696b20616363657373206f6e6c7960701b6044820152606490fd5b6108e5915060203d602011610572576105648183611745565b5f6106c4565b50346105c657806003193601126105c657546040516001600160a01b039091168152602090f35b50346105c65760203660031901126105c657600435816001600160401b0382116105c65761094761062c923690600401611781565b60018060a01b0360025416604051808095819463e1336da560e01b83526020600484015260248301906117c7565b50346105c65760203660031901126105c6576004356004548110156105c457600454811015610a0e57600482527f8a35acfbc15ff81a39ae7d344fd709f28e8600b4aa8c65c6b64bfe7fe36bd19b0190806109fa57604051610650906109e6816109df8187611bb6565b0382611745565b6040519182916020835260208301906117c7565b634e487b7160e01b81526004819052602490fd5b634e487b7160e01b82526032600452602482fd5b50346105c65760203660031901126105c6576004356001600160401b0381116105c4576020606092610a5982933690600401611781565b9060408051610a678161170f565b82815282858201520152604051928184925191829101835e81016007815203019020604051610a958161170f565b815491828252604060026001830154926020850193845201549201918252604051928352516020830152516040820152f35b50346105c657610ad6366119b2565b6001546040516395a8c58d60e01b8152336004820152600360248201529193929190602090829060449082906001600160a01b03165afa908115610579578391610cee575b5015610cb25760405190805191602081818401948086835e810160068152030190209260098401600260ff19825416179055604051600283518086845e820191600783526020814294030190200155600a840190610b80610b7b83611dbb565b611e5b565b610b9e60405160208186518089835e81016005815203019020611e5b565b805b8651811015610beb57600190610bc2610bb885611dbb565b610785838b611d0f565b610be56040516020818851808b835e81016005815203019020610785838b611d0f565b01610ba0565b50600254839082908890600389019089906001600160a01b0316803b156105bc578460405180926330b3e0ef60e21b825260406004830152818381610c33604482018a611bb6565b6001602483015203925af1908115610ca7578591610c92575b50506002546001600160a01b0316803b156105bc576107e085916107f2938360405180968195829463871811f160e01b8452606060048501526001606485019101611bb6565b81610c9c91611745565b6105c0578387610c4c565b6040513d87823e3d90fd5b60405162461bcd60e51b815260206004820152601460248201527352657461696c657220616363657373206f6e6c7960601b6044820152606490fd5b610d07915060203d602011610572576105648183611745565b5f610b1b565b50346105c657806003193601126105c6576003546040516001600160a01b039091168152602090f35b50346105c65760203660031901126105c657600435906001600160401b0382116105c657610650602080610d6d3660048701611781565b610d75611c6f565b50604051928184925191829101835e81016006815203019020600a610e5160405192610da0846116df565b604051610db1816109df8185611bb6565b8452604051610dc7816109df8160018601611bb6565b6020850152604051610de0816109df8160028601611bb6565b6040850152604051610df9816109df8160038601611bb6565b606085015260ff6004820154166080850152610e1760058201611d23565b60a0850152610e2860078201611d23565b60c0850152610e4160ff60098301541660e08601611d59565b6109df6040518094819301611bb6565b610100820152604051918291602083526020830190611814565b50346105c657806003193601126105c65760025460405163906ce01760e01b8152908290829060049082906001600160a01b03165afa90811561053b5782610650939261065457505060405191829182611a72565b50346105c657610ecf366119b2565b600180546040516395a8c58d60e01b8152336004820152602481019290925291939291602090829060449082906001600160a01b03165afa9081156105795790610f20918491611161575b50611d7d565b60405190805191602081818401948086835e810160068152030190209260098401600260ff19825416179055604051600283518086845e820191600783526020814294030190200155610f8760405160208185518088835e81016005815203019020611e5b565b805b8551811015610fbe57600190610fb86040516020818751808a835e81016005815203019020610785838a611d0f565b01610f89565b509081848660018060a01b03600254169160018101916003820193803b156105b85785604051809263871811f160e01b82526060600483015281838161101c61100a606483018c611bb6565b8281036003190160248401528c611bb6565b6001604483015203925af1908115611156578691611141575b50506002546001600160a01b0316803b156105b8576040516329a2ac2760e11b81529186918391829084908290611070908b60048401612016565b03925af1908115610ca757859161112c575b505060018060a01b036002541660ff600483015416813b156105b8578580946108446110db9360058b976111146110ed9b6111026040519d8e9c8d9b8c9a63d33d8a1360e01b8c5260c060048d015260c48c0190611bb6565b8a81036003190160248c0152906117c7565b8881036003190160448a015260028501611bb6565b87810360031901606489015290611bb6565b9260848601526003198584030160a486015201611bb6565b8161113691611745565b6105c0578387611082565b8161114b91611745565b6105bc578488611035565b6040513d88823e3d90fd5b61117a915060203d602011610572576105648183611745565b5f610f1a565b50346114075761118f366119b2565b600180546040516395a8c58d60e01b81523360048201526024810192909252929392602090829060449082906001600160a01b03165afa80156113fc576111dc915f916111615750611d7d565b60405192805193602081818401968088835e81016006815203019020926008840160018060a01b0333166bffffffffffffffffffffffff60a01b82541617905560098401600160ff19825416179055604051600183518088845e82019160078352602081429403019020015561126c610b7b600a6040516020818751808c835e8101600681520301902001611dbb565b61128a6040516020818551808a835e81016005815203019020611e5b565b5f5b83518110156112f0576001906112c76112bd600a6040516020818c8a518091835e8101600681520301902001611dbb565b6107858388611d0f565b6112ea6040516020818751808c835e810160058152030190206107858388611d0f565b0161128c565b50600254909290600385019085906001600160a01b0316803b15611407576107e05f9161133f938360405180968195829463871811f160e01b8452606060048501526001606485019101611bb6565b6001604483015203925af180156113fc576113e5575b50600254849291906001600160a01b0316803b156105c0578360405180926330b3e0ef60e21b8252604060048301528183816113946044820189611bb6565b6001602483015203925af19081156108875784916108725750506002546001600160a01b031691823b156105c057610844928492836040518096819582946329a2ac2760e11b845260048401612016565b6113f3919294505f90611745565b5f929084611355565b6040513d5f823e3d90fd5b5f80fd5b34611407576020366003190112611407576004356001600160401b0381116114075761143b903690600401611781565b604051815190602081818501938085835e81016008815203019020549061146182611cc0565b925f5b838110611479576040518061065087826118e4565b806114b66109df6114b16114a46001956040516020818a51808d835e81016008815203019020611b55565b5060405192838092611bb6565b611c37565b600a6114ee604051926114c8846116df565b6040516114d9816109df8185611bb6565b8452604051610dc7816109df818a8601611bb6565b6101008201526114fe8288611d0f565b526115098187611d0f565b5001611464565b34611407575f366003190112611407576002546040516001600160a01b039091168152602090f35b34611407576020366003190112611407576004356001600160401b03811161140757602061156b81923690600401611781565b604051928184925191829101835e81016005815203019020805461158e8161199b565b9161159c6040519384611745565b81835260208301905f5260205f205f915b8383106115ca576040516020808252819061065090820188611943565b6001602081926040516115e1816109df8189611bb6565b8152019201920191906115ad565b34611407576020366003190112611407576004356001600160401b0381116114075761161f903690600401611781565b604051815190602081818501938085835e81016009815203019020549061164582611cc0565b925f5b83811061165d576040518061065087826118e4565b806116886109df6114b16114a46001956040516020818a51808d835e81016009815203019020611b55565b600a61169a604051926114c8846116df565b6101008201526116aa8288611d0f565b526116b58187611d0f565b5001611648565b34611407575f366003190112611407576001546001600160a01b03168152602090f35b61012081019081106001600160401b038211176116fb57604052565b634e487b7160e01b5f52604160045260245ffd5b606081019081106001600160401b038211176116fb57604052565b604081019081106001600160401b038211176116fb57604052565b90601f801991011681019081106001600160401b038211176116fb57604052565b6001600160401b0381116116fb57601f01601f191660200190565b81601f820112156114075780359061179882611766565b926117a66040519485611745565b8284526020838301011161140757815f926020809301838601378301015290565b805180835260209291819084018484015e5f828201840152601f01601f1916010190565b90602061180183516040845260408401906117c7565b928101516001600160a01b031691015290565b906118a061188e61186f61185d61184b611839875161012088526101208801906117c7565b602088015187820360208901526117c7565b604087015186820360408801526117c7565b606086015185820360608701526117c7565b60ff608086015116608085015260a085015184820360a08601526117eb565b60c084015183820360c08501526117eb565b9060e083015160038110156118d0576118cd936101009160e08401520151906101008184039101526117c7565b90565b634e487b7160e01b5f52602160045260245ffd5b602081016020825282518091526040820191602060408360051b8301019401925f915b83831061191657505050505090565b9091929394602080611934600193603f198682030187528951611814565b97019301930191939290611907565b9080602083519182815201916020808360051b8301019401925f915b83831061196e57505050505090565b909192939460208061198c600193601f1986820301875289516117c7565b9701930193019193929061195f565b6001600160401b0381116116fb5760051b60200190565b906040600319830112611407576004356001600160401b03811161140757826119dd91600401611781565b91602435906001600160401b0382116114075780602383011215611407578160040135611a098161199b565b92611a176040519485611745565b8184526024602085019260051b820101918383116114075760248201905b838210611a4457505050505090565b81356001600160401b03811161140757602091611a678760248594880101611781565b815201910190611a35565b602081016020825282518091526040820190602060408260051b8501019401925f905b828210611aa457505050505090565b9091929394603f19828203018552855190611b07611af5611ae3611ad1855160e0865260e08601906117c7565b602086015185820360208701526117c7565b604085015184820360408601526117c7565b606084015183820360608501526117c7565b9160ff608082015116608083015260a08101519060028210156118d0576001938360c0611b48936020969560a08897015201519060c08184039101526117c7565b9701950193920190611a95565b8054821015611b6a575f5260205f2001905f90565b634e487b7160e01b5f52603260045260245ffd5b90600182811c92168015611bac575b6020831014611b9857565b634e487b7160e01b5f52602260045260245ffd5b91607f1691611b8d565b5f9291815491611bc583611b7e565b8083529260018116908115611c1a5750600114611be157505050565b5f9081526020812093945091925b838310611c00575060209250010190565b600181602092949394548385870101520191019190611bef565b915050602093945060ff929192191683830152151560051b010190565b60208091604051928184925191829101835e8101600681520301902090565b60405190611c638261172a565b5f602083606081520152565b60405190611c7c826116df565b60606101008382815282602082015282604082015282808201525f6080820152611ca4611c56565b60a0820152611cb1611c56565b60c08201525f60e08201520152565b90611cca8261199b565b611cd76040519182611745565b8281528092611ce8601f199161199b565b01905f5b828110611cf857505050565b602090611d03611c6f565b82828501015201611cec565b8051821015611b6a5760209160051b010190565b90604051611d308161172a565b60208193604051611d45816109df8185611bb6565b8352600101546001600160a01b0316910152565b60038210156118d05752565b90816020910312611407575180151581036114075790565b15611d8457565b60405162461bcd60e51b815260206004820152600f60248201526e50424620616363657373206f6e6c7960881b6044820152606490fd5b60405190815f825492611dcd84611b7e565b9360018116908115611e2b5750600114611df2575b5060209250600581520301902090565b9150505f528160205f205f905b838210611e1357505060209181015f611de2565b60209192508060019154848701520191018391611dff565b60ff191684525060209380151502830191505f9050611de2565b818110611e50575050565b5f8155600101611e45565b8054905f815581611e6a575050565b5f5260205f20908101905b818110611e80575050565b80611e8d60019254611b7e565b80611e9a575b5001611e75565b601f81118314611eaf57505f81555b5f611e93565b611ecb90825f5283601f60205f20920160051c82019101611e45565b805f525f6020812081835555611ea9565b91909182516001600160401b0381116116fb57611ef98254611b7e565b601f8111611f99575b506020601f8211600114611f3b57819293945f92611f30575b50508160011b915f199060031b1c1916179055565b015190505f80611f1b565b601f19821690835f52805f20915f5b818110611f8157509583600195969710611f69575b505050811b019055565b01515f1960f88460031b161c191690555f8080611f5f565b9192602060018192868b015181550194019201611f4a565b611fc490835f5260205f20601f840160051c81019160208510611fca575b601f0160051c0190611e45565b5f611f02565b9091508190611fb7565b8054600160401b8110156116fb57611ff191600182018155611b55565b9190916120035761200191611edc565b565b634e487b7160e01b5f525f60045260245ffd5b909161202d6118cd93604084526040840190611bb6565b916020818403910152611943565b81601f820112156114075780519061205282611766565b926120606040519485611745565b8284526020838301011161140757815f9260208093018386015e8301015290565b602081830312611407578051906001600160401b03821161140757019080601f83011215611407578151916120b58361199b565b926120c36040519485611745565b80845260208085019160051b830101918383116114075760208101915b8383106120ef57505050505090565b82516001600160401b0381116114075782019060e0828703601f190112611407576040519060e082018281106001600160401b038211176116fb5760405260208301516001600160401b0381116114075787602061214f9286010161203b565b825260408301516001600160401b038111611407578760206121739286010161203b565b602083015260608301516001600160401b0381116114075787602061219a9286010161203b565b604083015260808301516001600160401b038111611407578760206121c19286010161203b565b606083015260a083015160ff8116810361140757608083015260c083015160028110156114075760a083015260e0830151916001600160401b038311611407576122138860208096958196010161203b565b60c08201528152019201916120e0565b61237a6020807f18cb8d3b57e0af2974ed846dca439c7419023ccdf40b1d07099e3950c47c10b393612253611c6f565b50604051928184925191829101835e81016006815203019020604051612278816116df565b604051612289816109df8186611bb6565b815260405161229f816109df8160018701611bb6565b60208201526123a4604051926122c3846122bc8160028501611bb6565b0385611745565b60408301938452612396604051916122e9836122e28160038501611bb6565b0384611745565b6060850192835261238860ff806004840154169460808801958652600a61010061231560058701611d23565b9960a081019a8b5261235761232c60078901611d23565b9760c083019889526123478760098301541660e08501611d59565b6122e26040518096819301611bb6565b01525197519651519251519451169560405198899860c08a5260c08a01906117c7565b9088820360208a01526117c7565b9086820360408801526117c7565b9084820360608601526117c7565b9060808301524260a08301520390a156fea26469706673582212205e5d78078e2767b8ffebdef132dbaa65c4edd087aac2f9124f32b9f6e663c1ed64736f6c634300081b0033",
  "linkReferences": {},
  "deployedLinkReferences": {}
}