{
  "_format": "hh-sol-artifact-1",
  "contractName": "OrderManagement",
  "sourceName": "contracts/OrderManagement.sol",
  "abi": [
    {
      "inputs": [
        {
          "internalType": "address",
          "name": "_obatTradisionalAddr",
          "type": "address"
        },
        {
          "internalType": "address",
          "name": "_roleManagerAddr",
          "type": "address"
        },
        {
          "internalType": "address",
          "name": "_obatSharedAddr",
          "type": "address"
        }
      ],
      "stateMutability": "nonpayable",
      "type": "constructor"
    },
    {
      "anonymous": false,
      "inputs": [
        {
          "indexed": false,
          "internalType": "string",
          "name": "batchName",
          "type": "string"
        },
        {
          "indexed": false,
          "internalType": "string",
          "name": "namaProduk",
          "type": "string"
        },
        {
          "indexed": false,
          "internalType": "string",
          "name": "buyerInstanceName",
          "type": "string"
        },
        {
          "indexed": false,
          "internalType": "string",
          "name": "sellerInstanceName",
          "type": "string"
        },
        {
          "indexed": false,
          "internalType": "uint8",
          "name": "orderQuantity",
          "type": "uint8"
        },
        {
          "indexed": false,
          "internalType": "uint256",
          "name": "timestamp",
          "type": "uint256"
        }
      ],
      "name": "evt_orderUpdate",
      "type": "event"
    },
    {
      "inputs": [
        {
          "internalType": "string",
          "name": "_orderId",
          "type": "string"
        },
        {
          "internalType": "string[]",
          "name": "_orderObatIpfs",
          "type": "string[]"
        }
      ],
      "name": "acceptOrderPbf",
      "outputs": [],
      "stateMutability": "nonpayable",
      "type": "function"
    },
    {
      "inputs": [
        {
          "internalType": "string",
          "name": "_orderId",
          "type": "string"
        },
        {
          "internalType": "string[]",
          "name": "_orderObatIpfs",
          "type": "string[]"
        }
      ],
      "name": "acceptOrderRetailer",
      "outputs": [],
      "stateMutability": "nonpayable",
      "type": "function"
    },
    {
      "inputs": [
        {
          "internalType": "uint256",
          "name": "",
          "type": "uint256"
        }
      ],
      "name": "allOrderId",
      "outputs": [
        {
          "internalType": "string",
          "name": "",
          "type": "string"
        }
      ],
      "stateMutability": "view",
      "type": "function"
    },
    {
      "inputs": [
        {
          "internalType": "string",
          "name": "_orderId",
          "type": "string"
        },
        {
          "internalType": "string[]",
          "name": "_orderObatIpfs",
          "type": "string[]"
        }
      ],
      "name": "completeOrderPbf",
      "outputs": [],
      "stateMutability": "nonpayable",
      "type": "function"
    },
    {
      "inputs": [
        {
          "internalType": "string",
          "name": "_orderId",
          "type": "string"
        },
        {
          "internalType": "string[]",
          "name": "_orderObatIpfs",
          "type": "string[]"
        }
      ],
      "name": "completeOrderRetailer",
      "outputs": [],
      "stateMutability": "nonpayable",
      "type": "function"
    },
    {
      "inputs": [
        {
          "internalType": "string",
          "name": "_orderId",
          "type": "string"
        },
        {
          "internalType": "string",
          "name": "_obatId",
          "type": "string"
        },
        {
          "internalType": "string",
          "name": "_batchName",
          "type": "string"
        },
        {
          "internalType": "string",
          "name": "_namaProduk",
          "type": "string"
        },
        {
          "internalType": "string",
          "name": "_buyerInstance",
          "type": "string"
        },
        {
          "internalType": "string",
          "name": "_sellerInstance",
          "type": "string"
        },
        {
          "internalType": "uint8",
          "name": "_orderQuantity",
          "type": "uint8"
        }
      ],
      "name": "createOrderPbf",
      "outputs": [],
      "stateMutability": "nonpayable",
      "type": "function"
    },
    {
      "inputs": [
        {
          "internalType": "string",
          "name": "_prevOrderIdPbf",
          "type": "string"
        },
        {
          "internalType": "string",
          "name": "_orderId",
          "type": "string"
        },
        {
          "internalType": "string",
          "name": "_obatId",
          "type": "string"
        },
        {
          "internalType": "string",
          "name": "_batchName",
          "type": "string"
        },
        {
          "internalType": "string",
          "name": "_namaProduk",
          "type": "string"
        },
        {
          "internalType": "string",
          "name": "_buyerInstance",
          "type": "string"
        },
        {
          "internalType": "string",
          "name": "_sellerInstance",
          "type": "string"
        },
        {
          "internalType": "uint8",
          "name": "_orderQuantity",
          "type": "uint8"
        }
      ],
      "name": "createOrderRetailer",
      "outputs": [],
      "stateMutability": "nonpayable",
      "type": "function"
    },
    {
      "inputs": [
        {
          "internalType": "string",
          "name": "_orderId",
          "type": "string"
        }
      ],
      "name": "detailOrder",
      "outputs": [
        {
          "components": [
            {
              "internalType": "string",
              "name": "orderId",
              "type": "string"
            },
            {
              "internalType": "string",
              "name": "obatId",
              "type": "string"
            },
            {
              "internalType": "string",
              "name": "namaProduk",
              "type": "string"
            },
            {
              "internalType": "string",
              "name": "batchName",
              "type": "string"
            },
            {
              "internalType": "uint8",
              "name": "orderQuantity",
              "type": "uint8"
            },
            {
              "components": [
                {
                  "internalType": "string",
                  "name": "instanceName",
                  "type": "string"
                },
                {
                  "internalType": "address",
                  "name": "instanceAddr",
                  "type": "address"
                }
              ],
              "internalType": "struct OrderManagement.st_orderUser",
              "name": "buyerUser",
              "type": "tuple"
            },
            {
              "components": [
                {
                  "internalType": "string",
                  "name": "instanceName",
                  "type": "string"
                },
                {
                  "internalType": "address",
                  "name": "instanceAddr",
                  "type": "address"
                }
              ],
              "internalType": "struct OrderManagement.st_orderUser",
              "name": "sellerUser",
              "type": "tuple"
            },
            {
              "internalType": "enum EnumsLibrary.OrderStatus",
              "name": "statusOrder",
              "type": "uint8"
            }
          ],
          "internalType": "struct OrderManagement.st_obatOrder",
          "name": "",
          "type": "tuple"
        },
        {
          "components": [
            {
              "internalType": "uint256",
              "name": "timestampOrder",
              "type": "uint256"
            },
            {
              "internalType": "uint256",
              "name": "timestampShipped",
              "type": "uint256"
            },
            {
              "internalType": "uint256",
              "name": "timestampComplete",
              "type": "uint256"
            }
          ],
          "internalType": "struct OrderManagement.st_orderTimestamp",
          "name": "",
          "type": "tuple"
        },
        {
          "internalType": "string[]",
          "name": "",
          "type": "string[]"
        }
      ],
      "stateMutability": "view",
      "type": "function"
    },
    {
      "inputs": [
        {
          "internalType": "string",
          "name": "_orderId",
          "type": "string"
        }
      ],
      "name": "detailOrderRetailer",
      "outputs": [
        {
          "components": [
            {
              "internalType": "string",
              "name": "prevOrderIdPbf",
              "type": "string"
            },
            {
              "internalType": "string",
              "name": "orderId",
              "type": "string"
            },
            {
              "internalType": "string",
              "name": "obatId",
              "type": "string"
            },
            {
              "internalType": "string",
              "name": "namaProduk",
              "type": "string"
            },
            {
              "internalType": "string",
              "name": "batchName",
              "type": "string"
            },
            {
              "internalType": "uint8",
              "name": "orderQuantity",
              "type": "uint8"
            },
            {
              "components": [
                {
                  "internalType": "string",
                  "name": "instanceName",
                  "type": "string"
                },
                {
                  "internalType": "address",
                  "name": "instanceAddr",
                  "type": "address"
                }
              ],
              "internalType": "struct OrderManagement.st_orderUser",
              "name": "buyerUser",
              "type": "tuple"
            },
            {
              "components": [
                {
                  "internalType": "string",
                  "name": "instanceName",
                  "type": "string"
                },
                {
                  "internalType": "address",
                  "name": "instanceAddr",
                  "type": "address"
                }
              ],
              "internalType": "struct OrderManagement.st_orderUser",
              "name": "sellerUser",
              "type": "tuple"
            },
            {
              "internalType": "enum EnumsLibrary.OrderStatus",
              "name": "statusOrder",
              "type": "uint8"
            }
          ],
          "internalType": "struct OrderManagement.st_obatOrderRetailer",
          "name": "",
          "type": "tuple"
        },
        {
          "components": [
            {
              "internalType": "uint256",
              "name": "timestampOrder",
              "type": "uint256"
            },
            {
              "internalType": "uint256",
              "name": "timestampShipped",
              "type": "uint256"
            },
            {
              "internalType": "uint256",
              "name": "timestampComplete",
              "type": "uint256"
            }
          ],
          "internalType": "struct OrderManagement.st_orderTimestamp",
          "name": "",
          "type": "tuple"
        },
        {
          "internalType": "string[]",
          "name": "",
          "type": "string[]"
        }
      ],
      "stateMutability": "view",
      "type": "function"
    },
    {
      "inputs": [
        {
          "internalType": "string",
          "name": "_instanceName",
          "type": "string"
        }
      ],
      "name": "getAllObatPbfByInstance",
      "outputs": [
        {
          "components": [
            {
              "internalType": "string",
              "name": "orderId",
              "type": "string"
            },
            {
              "internalType": "string",
              "name": "obatId",
              "type": "string"
            },
            {
              "internalType": "string",
              "name": "namaProduk",
              "type": "string"
            },
            {
              "internalType": "string",
              "name": "batchName",
              "type": "string"
            },
            {
              "internalType": "uint8",
              "name": "obatQuantity",
              "type": "uint8"
            },
            {
              "internalType": "enum EnumsLibrary.ObatAvailability",
              "name": "statusStok",
              "type": "uint8"
            },
            {
              "internalType": "string",
              "name": "ownerInstance",
              "type": "string"
            }
          ],
          "internalType": "struct ObatShared.st_obatOutputStock[]",
          "name": "",
          "type": "tuple[]"
        }
      ],
      "stateMutability": "view",
      "type": "function"
    },
    {
      "inputs": [],
      "name": "getAllObatPbfReadyStock",
      "outputs": [
        {
          "components": [
            {
              "internalType": "string",
              "name": "orderId",
              "type": "string"
            },
            {
              "internalType": "string",
              "name": "obatId",
              "type": "string"
            },
            {
              "internalType": "string",
              "name": "namaProduk",
              "type": "string"
            },
            {
              "internalType": "string",
              "name": "batchName",
              "type": "string"
            },
            {
              "internalType": "uint8",
              "name": "obatQuantity",
              "type": "uint8"
            },
            {
              "internalType": "enum EnumsLibrary.ObatAvailability",
              "name": "statusStok",
              "type": "uint8"
            },
            {
              "internalType": "string",
              "name": "ownerInstance",
              "type": "string"
            }
          ],
          "internalType": "struct ObatShared.st_obatOutputStock[]",
          "name": "",
          "type": "tuple[]"
        }
      ],
      "stateMutability": "view",
      "type": "function"
    },
    {
      "inputs": [
        {
          "internalType": "string",
          "name": "_instanceName",
          "type": "string"
        }
      ],
      "name": "getAllObatRetailerByInstance",
      "outputs": [
        {
          "components": [
            {
              "internalType": "string",
              "name": "orderId",
              "type": "string"
            },
            {
              "internalType": "string",
              "name": "obatId",
              "type": "string"
            },
            {
              "internalType": "string",
              "name": "namaProduk",
              "type": "string"
            },
            {
              "internalType": "string",
              "name": "batchName",
              "type": "string"
            },
            {
              "internalType": "uint8",
              "name": "obatQuantity",
              "type": "uint8"
            },
            {
              "internalType": "enum EnumsLibrary.ObatAvailability",
              "name": "statusStok",
              "type": "uint8"
            },
            {
              "internalType": "string",
              "name": "ownerInstance",
              "type": "string"
            }
          ],
          "internalType": "struct ObatShared.st_obatOutputStock[]",
          "name": "",
          "type": "tuple[]"
        }
      ],
      "stateMutability": "view",
      "type": "function"
    },
    {
      "inputs": [
        {
          "internalType": "string",
          "name": "_buyerInstance",
          "type": "string"
        }
      ],
      "name": "getAllOrderFromBuyer",
      "outputs": [
        {
          "components": [
            {
              "internalType": "string",
              "name": "orderId",
              "type": "string"
            },
            {
              "internalType": "string",
              "name": "obatId",
              "type": "string"
            },
            {
              "internalType": "string",
              "name": "namaProduk",
              "type": "string"
            },
            {
              "internalType": "string",
              "name": "batchName",
              "type": "string"
            },
            {
              "internalType": "uint8",
              "name": "orderQuantity",
              "type": "uint8"
            },
            {
              "components": [
                {
                  "internalType": "string",
                  "name": "instanceName",
                  "type": "string"
                },
                {
                  "internalType": "address",
                  "name": "instanceAddr",
                  "type": "address"
                }
              ],
              "internalType": "struct OrderManagement.st_orderUser",
              "name": "buyerUser",
              "type": "tuple"
            },
            {
              "components": [
                {
                  "internalType": "string",
                  "name": "instanceName",
                  "type": "string"
                },
                {
                  "internalType": "address",
                  "name": "instanceAddr",
                  "type": "address"
                }
              ],
              "internalType": "struct OrderManagement.st_orderUser",
              "name": "sellerUser",
              "type": "tuple"
            },
            {
              "internalType": "enum EnumsLibrary.OrderStatus",
              "name": "statusOrder",
              "type": "uint8"
            }
          ],
          "internalType": "struct OrderManagement.st_obatOrder[]",
          "name": "",
          "type": "tuple[]"
        }
      ],
      "stateMutability": "view",
      "type": "function"
    },
    {
      "inputs": [
        {
          "internalType": "string",
          "name": "_buyerInstance",
          "type": "string"
        }
      ],
      "name": "getAllOrderFromBuyerRetailer",
      "outputs": [
        {
          "components": [
            {
              "internalType": "string",
              "name": "prevOrderIdPbf",
              "type": "string"
            },
            {
              "internalType": "string",
              "name": "orderId",
              "type": "string"
            },
            {
              "internalType": "string",
              "name": "obatId",
              "type": "string"
            },
            {
              "internalType": "string",
              "name": "namaProduk",
              "type": "string"
            },
            {
              "internalType": "string",
              "name": "batchName",
              "type": "string"
            },
            {
              "internalType": "uint8",
              "name": "orderQuantity",
              "type": "uint8"
            },
            {
              "components": [
                {
                  "internalType": "string",
                  "name": "instanceName",
                  "type": "string"
                },
                {
                  "internalType": "address",
                  "name": "instanceAddr",
                  "type": "address"
                }
              ],
              "internalType": "struct OrderManagement.st_orderUser",
              "name": "buyerUser",
              "type": "tuple"
            },
            {
              "components": [
                {
                  "internalType": "string",
                  "name": "instanceName",
                  "type": "string"
                },
                {
                  "internalType": "address",
                  "name": "instanceAddr",
                  "type": "address"
                }
              ],
              "internalType": "struct OrderManagement.st_orderUser",
              "name": "sellerUser",
              "type": "tuple"
            },
            {
              "internalType": "enum EnumsLibrary.OrderStatus",
              "name": "statusOrder",
              "type": "uint8"
            }
          ],
          "internalType": "struct OrderManagement.st_obatOrderRetailer[]",
          "name": "",
          "type": "tuple[]"
        }
      ],
      "stateMutability": "view",
      "type": "function"
    },
    {
      "inputs": [
        {
          "internalType": "string",
          "name": "_sellerInstance",
          "type": "string"
        }
      ],
      "name": "getAllOrderFromSeller",
      "outputs": [
        {
          "components": [
            {
              "internalType": "string",
              "name": "orderId",
              "type": "string"
            },
            {
              "internalType": "string",
              "name": "obatId",
              "type": "string"
            },
            {
              "internalType": "string",
              "name": "namaProduk",
              "type": "string"
            },
            {
              "internalType": "string",
              "name": "batchName",
              "type": "string"
            },
            {
              "internalType": "uint8",
              "name": "orderQuantity",
              "type": "uint8"
            },
            {
              "components": [
                {
                  "internalType": "string",
                  "name": "instanceName",
                  "type": "string"
                },
                {
                  "internalType": "address",
                  "name": "instanceAddr",
                  "type": "address"
                }
              ],
              "internalType": "struct OrderManagement.st_orderUser",
              "name": "buyerUser",
              "type": "tuple"
            },
            {
              "components": [
                {
                  "internalType": "string",
                  "name": "instanceName",
                  "type": "string"
                },
                {
                  "internalType": "address",
                  "name": "instanceAddr",
                  "type": "address"
                }
              ],
              "internalType": "struct OrderManagement.st_orderUser",
              "name": "sellerUser",
              "type": "tuple"
            },
            {
              "internalType": "enum EnumsLibrary.OrderStatus",
              "name": "statusOrder",
              "type": "uint8"
            }
          ],
          "internalType": "struct OrderManagement.st_obatOrder[]",
          "name": "",
          "type": "tuple[]"
        }
      ],
      "stateMutability": "view",
      "type": "function"
    },
    {
      "inputs": [
        {
          "internalType": "string",
          "name": "_sellerInstance",
          "type": "string"
        }
      ],
      "name": "getAllOrderFromSellerRetailer",
      "outputs": [
        {
          "components": [
            {
              "internalType": "string",
              "name": "prevOrderIdPbf",
              "type": "string"
            },
            {
              "internalType": "string",
              "name": "orderId",
              "type": "string"
            },
            {
              "internalType": "string",
              "name": "obatId",
              "type": "string"
            },
            {
              "internalType": "string",
              "name": "namaProduk",
              "type": "string"
            },
            {
              "internalType": "string",
              "name": "batchName",
              "type": "string"
            },
            {
              "internalType": "uint8",
              "name": "orderQuantity",
              "type": "uint8"
            },
            {
              "components": [
                {
                  "internalType": "string",
                  "name": "instanceName",
                  "type": "string"
                },
                {
                  "internalType": "address",
                  "name": "instanceAddr",
                  "type": "address"
                }
              ],
              "internalType": "struct OrderManagement.st_orderUser",
              "name": "buyerUser",
              "type": "tuple"
            },
            {
              "components": [
                {
                  "internalType": "string",
                  "name": "instanceName",
                  "type": "string"
                },
                {
                  "internalType": "address",
                  "name": "instanceAddr",
                  "type": "address"
                }
              ],
              "internalType": "struct OrderManagement.st_orderUser",
              "name": "sellerUser",
              "type": "tuple"
            },
            {
              "internalType": "enum EnumsLibrary.OrderStatus",
              "name": "statusOrder",
              "type": "uint8"
            }
          ],
          "internalType": "struct OrderManagement.st_obatOrderRetailer[]",
          "name": "",
          "type": "tuple[]"
        }
      ],
      "stateMutability": "view",
      "type": "function"
    },
    {
      "inputs": [],
      "name": "getAvailableObatFromFactory",
      "outputs": [
        {
          "components": [
            {
              "internalType": "string",
              "name": "obatId",
              "type": "string"
            },
            {
              "internalType": "string",
              "name": "namaProduk",
              "type": "string"
            },
            {
              "internalType": "string",
              "name": "batchName",
              "type": "string"
            },
            {
              "internalType": "uint8",
              "name": "obatQuantity",
              "type": "uint8"
            },
            {
              "internalType": "enum EnumsLibrary.ObatAvailability",
              "name": "statusStok",
              "type": "uint8"
            },
            {
              "internalType": "string",
              "name": "ownerInstance",
              "type": "string"
            }
          ],
          "internalType": "struct ObatTradisional.st_obatOutputBatch[]",
          "name": "",
          "type": "tuple[]"
        }
      ],
      "stateMutability": "view",
      "type": "function"
    },
    {
      "inputs": [],
      "name": "obatShared",
      "outputs": [
        {
          "internalType": "contract ObatShared",
          "name": "",
          "type": "address"
        }
      ],
      "stateMutability": "view",
      "type": "function"
    },
    {
      "inputs": [],
      "name": "obatTradisional",
      "outputs": [
        {
          "internalType": "contract ObatTradisional",
          "name": "",
          "type": "address"
        }
      ],
      "stateMutability": "view",
      "type": "function"
    },
    {
      "inputs": [],
      "name": "roleManager",
      "outputs": [
        {
          "internalType": "contract RoleManager",
          "name": "",
          "type": "address"
        }
      ],
      "stateMutability": "view",
      "type": "function"
    }
  ],
  "bytecode": "0x60803460a257601f612b2438819003918201601f19168301916001600160401b0383118484101760a75780849260609460405283398101031260a25760428160bd565b6056604060506020850160bd565b930160bd565b600180546001600160a01b039485166001600160a01b031991821617909155600080549385169382169390931790925560028054919093169116179055604051612a5390816100d18239f35b600080fd5b634e487b7160e01b600052604160045260246000fd5b51906001600160a01b038216820360a25756fe608080604052600436101561001357600080fd5b600090813560e01c908162435da5146118a65750806305943613146117f45780631c2fc2921461173e5780633fca88cb1461171557806360e4b3cf1461165557806364484ac914611462578063756b460f146112de5780637ad30187146110565780637ed35ba514610f91578063906ce01714610f3c578063986a079014610e36578063af9bf53d14610b79578063bde9ac54146108db578063ce7ab1c71461055f578063d3179bda1461048a578063dd5739ae146103ed578063e1336da51461038a578063ea020d5914610363578063ee399ed4146101b75763f07b2c7a146100fc57600080fd5b346101b45760203660031901126101b457600435816001600160401b0382116101b45761013061015e92369060040161198b565b60018060a01b0360025416604051808095819463783d963d60e11b83526020600484015260248301906119fa565b03915afa9081156101a957826101829392610186575b505060405191829182611db2565b0390f35b6101a292503d8091833e61019a818361194f565b81019061269e565b3880610174565b6040513d84823e3d90fd5b80fd5b50346101b4576101c636611c85565b9190604051906101f3815192602081818501956101e48183896119d7565b81016006815203019020612283565b926008604051602081855161020981838a6119d7565b6006908201908152030190200180546001600160a01b03191633179055604051825160099190602090829061023f81838a6119d7565b8101600681520301902001600160ff19825416179055604051600183516102678184886119d7565b82019160088352602081429403019020015561029e604051602081855161028f81838a6119d7565b81016004815203019020612340565b805b85518110156102e3576001906102dd60405160208187516102c281838c6119d7565b810160048152030190206102d6838a61226f565b5190612510565b016102a0565b509081858560018060a01b0360025416916060602083015192015192803b1561035f5761032a9385809460405196879586948593631d38299760e31b85526004850161252d565b03925af180156101a957610346575b506103438261290d565b80f35b816103509161194f565b61035b578183610339565b5080fd5b8480fd5b50346101b457806003193601126101b457546040516001600160a01b039091168152602090f35b50346101b45760203660031901126101b457600435816001600160401b0382116101b4576103bf61015e92369060040161198b565b60018060a01b0360025416604051808095819463e1336da560e01b83526020600484015260248301906119fa565b50346101b45760203660031901126101b45760043560035481101561035b5760035481101561047657600382527fc2575a0e9e593c00f959f8c92f12db2869c3395a3b0502d05e2516446f71f85b0190806104625761018261044e83611ef8565b6040519182916020835260208301906119fa565b634e487b7160e01b81526004819052602490fd5b634e487b7160e01b82526032600452602482fd5b50346101b45760203660031901126101b4576004356001600160401b03811161035b576104bb90369060040161198b565b604051815190602081818501936104d38183876119d7565b8101600981520301902054916104e8836125fe565b935b8381106104ff57604051806101828782611d45565b8061054361053e610539610533600195604051602081806105248d8d519283916119d7565b81016009815203019020611e90565b50611ef8565b612051565b6120b1565b61054d828861226f565b52610558818761226f565b50016104ea565b50346101b457806003193601126101b457600180546040516395a8c58d60e01b81523360048201526024810192909252602090829060449082906001600160a01b03165afa9081156101a95782916108a0575b5015610870578054604051630a1e0a4b60e41b8152908290829060049082906001600160a01b03165afa9081156101a95782916106ba575b50906040519182916020830160208452825180915260408401602060408360051b870101940192905b82821061062257505050500390f35b919360019193955060206106aa8192603f198a820301865288519060a061067a610668610658855160c0865260c08601906119fa565b87860151858203898701526119fa565b604085015184820360408601526119fa565b9260ff606082015116606084015261069a60808201516080850190611da5565b01519060a08184039101526119fa565b9601920192018594939192610613565b90503d8083833e6106cb818361194f565b810190602081830312610868578051906001600160401b03821161086c570181601f820112156108685780519061070182611c6e565b9261070f604051948561194f565b82845260208085019360051b830101918183116108645760208101935b83851061073e575050505050386105ea565b84516001600160401b0381116108605782019060c0828503601f190112610860576040519060c082018281106001600160401b0382111761084c5760405260208301516001600160401b0381116108485785602061079e9286010161264e565b825260408301516001600160401b038111610848578560206107c29286010161264e565b602083015260608301516001600160401b038111610848578560206107e99286010161264e565b60408301526107fa60808401612690565b606083015260a0830151600281101561084857608083015260c0830151916001600160401b038311610848576108388660208096958196010161264e565b60a082015281520194019361072c565b8980fd5b634e487b7160e01b8a52604160045260248afd5b8780fd5b8580fd5b8280fd5b8380fd5b60405162461bcd60e51b815260206004820152600860248201526727b7363c9028212360c11b6044820152606490fd5b90506020813d6020116108d3575b816108bb6020938361194f565b8101031261035b5751801515810361035b57386105b2565b3d91506108ae565b50346101b45760e03660031901126101b4576004356001600160401b03811161035b5761090c90369060040161198b565b6024356001600160401b0381116108685761092b90369060040161198b565b6044356001600160401b03811161086c5761094a90369060040161198b565b906064356001600160401b03811161035f5761096a90369060040161198b565b6084356001600160401b0381116108645761098990369060040161198b565b9160a4356001600160401b038111610b75576109a990369060040161198b565b9360c43560ff8116809103610860576109c2338661299e565b906109cc8761297c565b92604051956109da876118fd565b8987526020870195865260408701908152606087019182526080870192835260a0870193845260c0870194855260e08701958b8752604051808c818151602081930191610a26926119d7565b8101600681520360200190209751610a3e90896123c9565b51610a4c90600189016123c9565b51610a5a90600288016123c9565b51610a6890600387016123c9565b5160ff16600485019060ff1660ff198254161790555180516005850190610a8e916123c9565b602001516006840180546001600160a01b0319166001600160a01b0392909216919091179055518051610ac490600785016123c9565b602001516008830180546001600160a01b0319166001600160a01b039290921691909117905551906003821015610b615760208594610b2286610b3584610b5398610b196103439c996009610b449a01612311565b610b22846124c9565b81604051938285809451938492016119d7565b81016009815203019020612510565b8101600a815203019020612510565b610b5c816129c8565b61290d565b634e487b7160e01b86526021600452602486fd5b8680fd5b50346101b457610b8836611c85565b91604051610bb383519160208181870194610ba48183886119d7565b81016007815203019020611ef8565b90610bd96040516020818751610bca8183886119d7565b810160078152030190206120b1565b93600a6040516020818451610bef8183896119d7565b8101600781520301902001600260ff1982541617905560405160028251610c178184876119d7565b820191600883526020814294030190200155610c4e6040516020818451610c3f8183896119d7565b81016005815203019020612340565b60405193610c6a8451956020818188019861028f81838c6119d7565b805b8751811015610cd457600190610ca26040516020818751610c8e81838c6119d7565b810160058152030190206102d6838c61226f565b610cce60405160208180610cba8c8c519283916119d7565b810160048152030190206102d6838c61226f565b01610c6c565b509081878760018060a01b0360025416604082018051916080840192835190823b1561086057610d2092889283899360405196879586948593631d38299760e31b85526004850161252d565b03925af1908115610e16578691610e21575b50506002548251906001600160a01b0316803b15610b7557858791610d6d9383604051809681958294627481d960e01b845260048401612564565b03925af1908115610e16578691610e01575b505060018060a01b03600254169051606084015192519460c060ff60a0870151169501515191833b1561086057610dd3899389979388946040519a8b998a9889976306d512ff60e21b895260048901612589565b03925af180156101a957610dec575b5061034382612899565b81610df69161194f565b61035b578183610de2565b81610e0b9161194f565b61035f578488610d7f565b6040513d88823e3d90fd5b81610e2b9161194f565b61035f578488610d32565b50346101b45760203660031901126101b457600435906001600160401b0382116101b457610f10610e6a366004850161198b565b610e726121d1565b50610e7b61200c565b50610182604051610ef9610ef3610eed610edd60208751958181818b0198610ea481838c6119d7565b810160068152030190209560405182818b51610ec18183876119d7565b81016008815203019020986040519384928392519283916119d7565b8101600481520301902093612283565b94612151565b91612179565b610f2f60405195869560a0875260a0870190611b7b565b9260208601906040809180518452602081015160208501520151910152565b8382036080850152611b22565b50346101b457806003193601126101b45760025460405163906ce01760e01b8152908290829060049082906001600160a01b03165afa9081156101a95782610182939261018657505060405191829182611db2565b50346101b45760203660031901126101b4576004356001600160401b03811161035b57610fc290369060040161198b565b60405181519060208181850193610fda8183876119d7565b8101600a8152030190205491610fef836125fe565b935b83811061100657604051806101828782611d45565b8061103a61053e6105396105336001956040516020818061102b8d8d519283916119d7565b8101600a815203019020611e90565b611044828861226f565b5261104f818761226f565b5001610ff1565b50346101b4576101003660031901126101b4576004356001600160401b03811161035b5761108890369060040161198b565b6024356001600160401b038111610868576110a790369060040161198b565b906044356001600160401b03811161086c576110c790369060040161198b565b6064356001600160401b03811161035f576110e690369060040161198b565b916084356001600160401b0381116108645761110690369060040161198b565b9160a4356001600160401b038111610b755761112690369060040161198b565b9260c4356001600160401b0381116108605761114690369060040161198b565b9460e43560ff81168091036112da5761115f338761299e565b916111698861297c565b9360405196611177886118cb565b875260208701958a875260408801908152606088019182526080880192835260a0880193845260c0880194855260e088019586526101008801968c8852604051808d8181516020819301916111cb926119d7565b81016007815203602001902098516111e3908a6123c9565b516111f19060018a016123c9565b516111ff90600289016123c9565b5161120d90600388016123c9565b5161121b90600487016123c9565b5160ff16600585019060ff1660ff198254161790555180516006850190611241916123c9565b602001516007840180546001600160a01b0319166001600160a01b039290921691909117905551805161127790600885016123c9565b602001516009830180546001600160a01b0319166001600160a01b039290921691909117905551906003821015610b615760208594610b2286610b35846112cc98610b196103439c99600a610b449a01612311565b6112d5816129c8565b612899565b8880fd5b50346101b4576112ed36611c85565b91906040519061130b815192602081818501956101e48183896119d7565b926009604051602081855161132181838a6119d7565b8101600681520301902001600260ff19825416179055604051600283516113498184886119d7565b820191600883526020814294030190200155611371604051602081855161028f81838a6119d7565b805b855181101561139b5760019061139560405160208187516102c281838c6119d7565b01611373565b509081858560018060a01b0360025416602082018051916060840192835190823b15610860576113e792889283899360405196879586948593631d38299760e31b85526004850161252d565b03925af1908115610e1657869161144d575b505060018060a01b03600254169051604084015192519460a060ff6080870151169501515191833b156108605761032a899389979388946040519a8b998a9889976301fabf1f60e01b895260048901612589565b816114579161194f565b61035f5784886113f9565b50346101b45761147136611c85565b9160405161148d83519160208181870194610ba48183886119d7565b906114a46040516020818751610bca8183886119d7565b93600960405160208184516114ba8183896119d7565b6007908201908152030190200180546001600160a01b031916331790556040518151600a919060209082906114f08183896119d7565b8101600781520301902001600160ff19825416179055604051600182516115188184876119d7565b8201916008835260208142940301902001556115406040516020818451610c3f8183896119d7565b6040519361155c8451956020818188019861028f81838c6119d7565b805b875181101561159e576001906115806040516020818751610c8e81838c6119d7565b61159860405160208180610cba8c8c519283916119d7565b0161155e565b50600254604087015160808801805193949390928a9286916001600160a01b0316803b15610868576115ea9383869360405196879586948593631d38299760e31b85526004850161252d565b03925af1801561164a57611634575b50600254915184926001600160a01b031691823b1561086c57610dd392849283604051809681958294627481d960e01b845260048401612564565b84611642919592939561194f565b9290846115f9565b6040513d87823e3d90fd5b50346101b45760203660031901126101b4576004356001600160401b03811161035b5761168690369060040161198b565b6040518151906020818185019361169e8183876119d7565b8101600981520301902054916116b38361221f565b935b8381106116ca57604051806101828782611c0e565b806116f96116f46116ef610533600195604051602081806105248d8d519283916119d7565b61202b565b612283565b611703828861226f565b5261170e818761226f565b50016116b5565b50346101b457806003193601126101b4576002546040516001600160a01b039091168152602090f35b50346101b45760203660031901126101b4576004356001600160401b03811161035b5761176f90369060040161198b565b604051815190602081818501936117878183876119d7565b8101600a815203019020549161179c8361221f565b935b8381106117b357604051806101828782611c0e565b806117d86116f46116ef6105336001956040516020818061102b8d8d519283916119d7565b6117e2828861226f565b526117ed818761226f565b500161179e565b50346101b45760203660031901126101b457600435906001600160401b0382116101b457610f10611828366004850161198b565b611830611fb6565b5061183961200c565b5061018260405161188f610ef3610eed61187f60208751958181818b019861186281838c6119d7565b810160078152030190209560405182818b51610ec18183876119d7565b81016005815203019020936120b1565b610f2f60405195869560a0875260a0870190611a6b565b90503461035b578160031936011261035b576001546001600160a01b03168152602090f35b61012081019081106001600160401b038211176118e757604052565b634e487b7160e01b600052604160045260246000fd5b61010081019081106001600160401b038211176118e757604052565b604081019081106001600160401b038211176118e757604052565b606081019081106001600160401b038211176118e757604052565b90601f801991011681019081106001600160401b038211176118e757604052565b6001600160401b0381116118e757601f01601f191660200190565b81601f820112156119d2578035906119a282611970565b926119b0604051948561194f565b828452602083830101116119d257816000926020809301838601378301015290565b600080fd5b60005b8381106119ea5750506000910152565b81810151838201526020016119da565b90602091611a13815180928185528580860191016119d7565b601f01601f1916010190565b906020611a3583516040845260408401906119fa565b928101516001600160a01b031691015290565b906003821015611a555752565b634e487b7160e01b600052602160045260246000fd5b90611b1f9061010080611b14611b02611ae3611ad1611abf611aad611a9b8b516101208b526101208b01906119fa565b60208c01518a820360208c01526119fa565b60408b015189820360408b01526119fa565b60608a015188820360608a01526119fa565b608089015187820360808901526119fa565b60ff60a08901511660a087015260c088015186820360c0880152611a1f565b60e087015185820360e0870152611a1f565b940151910190611a48565b90565b9080602083519182815201916020808360051b8301019401926000915b838310611b4e57505050505090565b9091929394602080611b6c600193601f1986820301875289516119fa565b97019301930191939290611b3f565b90611b1f9060e080611b14611bfc611bdd611bcb611bb9611ba78a516101008a526101008a01906119fa565b60208b015189820360208b01526119fa565b60408a015188820360408a01526119fa565b606089015187820360608901526119fa565b60ff608089015116608087015260a088015186820360a0880152611a1f565b60c087015185820360c0870152611a1f565b602081016020825282518091526040820191602060408360051b8301019401926000915b838310611c4157505050505090565b9091929394602080611c5f600193603f198682030187528951611b7b565b97019301930191939290611c32565b6001600160401b0381116118e75760051b60200190565b9060406003198301126119d2576004356001600160401b0381116119d25782611cb09160040161198b565b91602435906001600160401b0382116119d257806023830112156119d2578160040135611cdc81611c6e565b92611cea604051948561194f565b8184526024602085019260051b820101918383116119d25760248201905b838210611d1757505050505090565b81356001600160401b0381116119d257602091611d3a876024859488010161198b565b815201910190611d08565b602081016020825282518091526040820191602060408360051b8301019401926000915b838310611d7857505050505090565b9091929394602080611d96600193603f198682030187528951611a6b565b97019301930191939290611d69565b906002821015611a555752565b602081016020825282518091526040820191602060408360051b8301019401926000915b838310611de557505050505090565b9091929394602080611e81600193603f1986820301875289519060c0611e51611e3f611e2d611e1d865160e0875260e08701906119fa565b888701518682038a8801526119fa565b604086015185820360408701526119fa565b606085015184820360608601526119fa565b9260ff6080820151166080840152611e7160a082015160a0850190611da5565b01519060c08184039101526119fa565b97019301930191939290611dd6565b8054821015611ea85760005260206000200190600090565b634e487b7160e01b600052603260045260246000fd5b90600182811c92168015611eee575b6020831014611ed857565b634e487b7160e01b600052602260045260246000fd5b91607f1691611ecd565b9060405191826000825492611f0c84611ebe565b8084529360018116908115611f7a5750600114611f33575b50611f319250038361194f565b565b90506000929192526020600020906000915b818310611f5e575050906020611f319282010138611f24565b6020919350806001915483858901015201910190918492611f45565b905060209250611f3194915060ff191682840152151560051b82010138611f24565b60405190611fa982611919565b6000602083606081520152565b60405190611fc3826118cb565b600061010083606081526060602082015260606040820152606080820152606060808201528260a0820152611ff6611f9c565b60c0820152612003611f9c565b60e08201520152565b6040519061201982611934565b60006040838281528260208201520152565b60206120449181604051938285809451938492016119d7565b8101600681520301902090565b602061206a9181604051938285809451938492016119d7565b8101600781520301902090565b9060405161208481611919565b6020819361209181611ef8565b8352600101546001600160a01b0316910152565b6003821015611a555752565b90611f316040516120c1816118cb565b61010060ff600a83966120d381611ef8565b85526120e160018201611ef8565b60208601526120f260028201611ef8565b604086015261210360038201611ef8565b606086015261211460048201611ef8565b60808601528260058201541660a086015261213160068201612077565b60c086015261214260088201612077565b60e086015201541691016120a5565b9060405161215e81611934565b60406002829480548452600181015460208501520154910152565b90815461218581611c6e565b92612193604051948561194f565b818452602084019060005260206000206000915b8383106121b45750505050565b6001602081926121c385611ef8565b8152019201920191906121a7565b604051906121de826118fd565b600060e083606081526060602082015260606040820152606080820152826080820152612209611f9c565b60a0820152612216611f9c565b60c08201520152565b9061222982611c6e565b612236604051918261194f565b8281528092612247601f1991611c6e565b019060005b82811061225857505050565b6020906122636121d1565b8282850101520161224c565b8051821015611ea85760209160051b010190565b90611f31604051612293816118fd565b60e060ff600983966122a481611ef8565b85526122b260018201611ef8565b60208601526122c360028201611ef8565b60408601526122d460038201611ef8565b60608601528260048201541660808601526122f160058201612077565b60a086015261230260078201612077565b60c086015201541691016120a5565b906003811015611a555760ff80198354169116179055565b818110612334575050565b60008155600101612329565b8054906000815581612350575050565b6000526020600020908101905b818110612368575050565b8061237560019254611ebe565b80612382575b500161235d565b601f811183146123985750600081555b3861237b565b6123b6908260005283601f6020600020920160051c82019101612329565b8060005260006020812081835555612392565b91909182516001600160401b0381116118e7576123e68254611ebe565b601f811161248c575b506020601f821160011461242a578192939460009261241f575b50508160011b916000199060031b1c1916179055565b015190503880612409565b601f1982169083600052806000209160005b8181106124745750958360019596971061245b575b505050811b019055565b015160001960f88460031b161c19169055388080612451565b9192602060018192868b01518155019401920161243c565b6124b990836000526020600020601f840160051c810191602085106124bf575b601f0160051c0190612329565b386123ef565b90915081906124ac565b600354600160401b8110156118e7578060016124ea92016003556003611e90565b9190916124fa57611f31916123c9565b634e487b7160e01b600052600060045260246000fd5b8054600160401b8110156118e7576124ea91600182018155611e90565b9161255690612548611b1f95936060865260608601906119fa565b9084820360208601526119fa565b916040818403910152611b22565b909161257b611b1f936040845260408401906119fa565b916020818403910152611b22565b95916125f0946125ce611b1f9997956125c06125dc946125b260ff9760e08e81815201906119fa565b8c810360208e0152906119fa565b908a820360408c01526119fa565b9088820360608a01526119fa565b9216608086015284820360a0860152611b22565b9160c08184039101526119fa565b9061260882611c6e565b612615604051918261194f565b8281528092612626601f1991611c6e565b019060005b82811061263757505050565b602090612642611fb6565b8282850101520161262b565b81601f820112156119d257805161266481611970565b92612672604051948561194f565b818452602082840101116119d257611b1f91602080850191016119d7565b519060ff821682036119d257565b6020818303126119d2578051906001600160401b0382116119d257019080601f830112156119d2578151916126d283611c6e565b926126e0604051948561194f565b80845260208085019160051b830101918383116119d25760208101915b83831061270c57505050505090565b82516001600160401b0381116119d25782019060e0828703601f1901126119d2576040519060e082018281106001600160401b038211176118e75760405260208301516001600160401b0381116119d25787602061276c9286010161264e565b825260408301516001600160401b0381116119d2578760206127909286010161264e565b602083015260608301516001600160401b0381116119d2578760206127b79286010161264e565b604083015260808301516001600160401b0381116119d2578760206127de9286010161264e565b60608301526127ef60a08401612690565b608083015260c083015160028110156119d25760a083015260e0830151916001600160401b0383116119d25761282d8860208096958196010161264e565b60c08201528152019201916126fd565b929361288060a09561287260ff9561286461288e969c9b9a9c60c08a5260c08a01906119fa565b9088820360208a01526119fa565b9086820360408801526119fa565b9084820360608601526119fa565b951660808201520152565b6128d6610bca60207f18cb8d3b57e0af2974ed846dca439c7419023ccdf40b1d07099e3950c47c10b39381604051938285809451938492016119d7565b608081015161290860608301519160c0840151519360ff60a060e083015151920151169060405195869542948761283d565b0390a1565b61294a6101e460207f18cb8d3b57e0af2974ed846dca439c7419023ccdf40b1d07099e3950c47c10b39381604051938285809451938492016119d7565b606081015161290860408301519160a0840151519360ff608060c083015151920151169060405195869542948761283d565b612984611f9c565b506040519061299282611919565b81526000602082015290565b906129a7611f9c565b50604051916129b583611919565b82526001600160a01b0316602082015290565b6002604051916129d783611934565b4283526020830160008152612a03602060408601936000855281604051938285809451938492016119d7565b81016008815203019020935184555160018401555191015556fea26469706673582212206a45f68c7f447e9fa06b1af901484c4d4b1d5e0d8df74598469ec2f315c21ce164736f6c634300081b0033",
  "linkReferences": {},
  "deployedLinkReferences": {}
}