{
  "_format": "hh-sol-artifact-1",
  "contractName": "OrderManagement",
  "sourceName": "contracts/OrderManagement.sol",
  "abi": [
    {
      "inputs": [
        {
          "internalType": "address",
          "name": "_obatTradisionalAddr",
          "type": "address"
        },
        {
          "internalType": "address",
          "name": "_roleManagerAddr",
          "type": "address"
        }
      ],
      "stateMutability": "nonpayable",
      "type": "constructor"
    },
    {
      "anonymous": false,
      "inputs": [
        {
          "indexed": false,
          "internalType": "string",
          "name": "namaProduk",
          "type": "string"
        },
        {
          "indexed": false,
          "internalType": "uint8",
          "name": "quantity",
          "type": "uint8"
        },
        {
          "indexed": false,
          "internalType": "string",
          "name": "orderId",
          "type": "string"
        },
        {
          "indexed": false,
          "internalType": "string",
          "name": "senderInstanceName",
          "type": "string"
        },
        {
          "indexed": false,
          "internalType": "string",
          "name": "targetInstanceName",
          "type": "string"
        },
        {
          "indexed": false,
          "internalType": "uint256",
          "name": "latestTimestamp",
          "type": "uint256"
        }
      ],
      "name": "evt_obatOrdered",
      "type": "event"
    },
    {
      "anonymous": false,
      "inputs": [
        {
          "indexed": false,
          "internalType": "string",
          "name": "namaProduk",
          "type": "string"
        },
        {
          "indexed": false,
          "internalType": "string",
          "name": "batchName",
          "type": "string"
        },
        {
          "indexed": false,
          "internalType": "string",
          "name": "targetInstance",
          "type": "string"
        },
        {
          "indexed": false,
          "internalType": "string",
          "name": "senderInstance",
          "type": "string"
        },
        {
          "indexed": false,
          "internalType": "uint8",
          "name": "quantity",
          "type": "uint8"
        },
        {
          "indexed": false,
          "internalType": "uint256",
          "name": "latestTimestamp",
          "type": "uint256"
        }
      ],
      "name": "evt_updateOrder",
      "type": "event"
    },
    {
      "inputs": [
        {
          "internalType": "string",
          "name": "_batchName",
          "type": "string"
        },
        {
          "internalType": "string",
          "name": "_orderId",
          "type": "string"
        },
        {
          "internalType": "string[]",
          "name": "_obatIpfsHash",
          "type": "string[]"
        }
      ],
      "name": "acceptOrder",
      "outputs": [],
      "stateMutability": "nonpayable",
      "type": "function"
    },
    {
      "inputs": [
        {
          "internalType": "uint256",
          "name": "",
          "type": "uint256"
        }
      ],
      "name": "allObatPbf",
      "outputs": [
        {
          "internalType": "string",
          "name": "orderId",
          "type": "string"
        },
        {
          "internalType": "string",
          "name": "batchName",
          "type": "string"
        },
        {
          "internalType": "string",
          "name": "obatIdProduk",
          "type": "string"
        },
        {
          "internalType": "string",
          "name": "namaProduk",
          "type": "string"
        },
        {
          "internalType": "enum OrderManagement.en_obatAvailability",
          "name": "statusStok",
          "type": "uint8"
        },
        {
          "internalType": "uint8",
          "name": "obatQuantity",
          "type": "uint8"
        },
        {
          "internalType": "string",
          "name": "ownerInstanceName",
          "type": "string"
        }
      ],
      "stateMutability": "view",
      "type": "function"
    },
    {
      "inputs": [
        {
          "internalType": "uint256",
          "name": "",
          "type": "uint256"
        }
      ],
      "name": "allOrderedObat",
      "outputs": [
        {
          "internalType": "string",
          "name": "orderId",
          "type": "string"
        },
        {
          "internalType": "string",
          "name": "namaProduk",
          "type": "string"
        },
        {
          "internalType": "string",
          "name": "obatIdProduk",
          "type": "string"
        },
        {
          "internalType": "string",
          "name": "batchName",
          "type": "string"
        },
        {
          "internalType": "uint8",
          "name": "orderQuantity",
          "type": "uint8"
        },
        {
          "internalType": "string",
          "name": "senderInstanceName",
          "type": "string"
        },
        {
          "internalType": "string",
          "name": "targetInstanceName",
          "type": "string"
        },
        {
          "internalType": "enum OrderManagement.en_orderStatus",
          "name": "statusOrder",
          "type": "uint8"
        },
        {
          "internalType": "uint256",
          "name": "timestampOrder",
          "type": "uint256"
        },
        {
          "internalType": "uint256",
          "name": "timestampShipped",
          "type": "uint256"
        },
        {
          "internalType": "uint256",
          "name": "timestampComplete",
          "type": "uint256"
        }
      ],
      "stateMutability": "view",
      "type": "function"
    },
    {
      "inputs": [
        {
          "internalType": "string",
          "name": "_orderId",
          "type": "string"
        }
      ],
      "name": "completeOrder",
      "outputs": [],
      "stateMutability": "nonpayable",
      "type": "function"
    },
    {
      "inputs": [
        {
          "internalType": "string",
          "name": "_obatIdProduk",
          "type": "string"
        },
        {
          "internalType": "string",
          "name": "_orderId",
          "type": "string"
        },
        {
          "internalType": "string",
          "name": "_namaProduk",
          "type": "string"
        },
        {
          "internalType": "uint8",
          "name": "_orderQuantity",
          "type": "uint8"
        },
        {
          "internalType": "string",
          "name": "_senderInstanceName",
          "type": "string"
        },
        {
          "internalType": "address",
          "name": "_senderInstanceAddr",
          "type": "address"
        },
        {
          "internalType": "string",
          "name": "_targetInstanceName",
          "type": "string"
        }
      ],
      "name": "createOrder",
      "outputs": [],
      "stateMutability": "nonpayable",
      "type": "function"
    },
    {
      "inputs": [
        {
          "internalType": "string",
          "name": "_orderId",
          "type": "string"
        }
      ],
      "name": "getDetailOrderedObat",
      "outputs": [
        {
          "internalType": "uint8",
          "name": "orderQuantity",
          "type": "uint8"
        },
        {
          "internalType": "string",
          "name": "senderInstanceName",
          "type": "string"
        },
        {
          "internalType": "uint8",
          "name": "statusOrder",
          "type": "uint8"
        },
        {
          "internalType": "string",
          "name": "targetInstanceName",
          "type": "string"
        },
        {
          "internalType": "string[]",
          "name": "orderObatIpfsHash",
          "type": "string[]"
        },
        {
          "internalType": "uint256",
          "name": "timestampOrder",
          "type": "uint256"
        },
        {
          "internalType": "uint256",
          "name": "timestampShipped",
          "type": "uint256"
        },
        {
          "internalType": "uint256",
          "name": "timestampComplete",
          "type": "uint256"
        }
      ],
      "stateMutability": "view",
      "type": "function"
    },
    {
      "inputs": [
        {
          "internalType": "string",
          "name": "_obatId",
          "type": "string"
        },
        {
          "internalType": "string",
          "name": "_userInstanceName",
          "type": "string"
        }
      ],
      "name": "getDetailPbfObat",
      "outputs": [
        {
          "components": [
            {
              "internalType": "string",
              "name": "orderId",
              "type": "string"
            },
            {
              "internalType": "string",
              "name": "batchName",
              "type": "string"
            },
            {
              "internalType": "string",
              "name": "obatIdProduk",
              "type": "string"
            },
            {
              "internalType": "string",
              "name": "namaProduk",
              "type": "string"
            },
            {
              "internalType": "enum OrderManagement.en_obatAvailability",
              "name": "statusStok",
              "type": "uint8"
            },
            {
              "internalType": "uint8",
              "name": "obatQuantity",
              "type": "uint8"
            },
            {
              "internalType": "string[]",
              "name": "obatIpfsHash",
              "type": "string[]"
            },
            {
              "internalType": "string",
              "name": "ownerInstanceName",
              "type": "string"
            }
          ],
          "internalType": "struct OrderManagement.st_obatPbf",
          "name": "",
          "type": "tuple"
        }
      ],
      "stateMutability": "view",
      "type": "function"
    },
    {
      "inputs": [
        {
          "internalType": "string",
          "name": "_senderInstanceName",
          "type": "string"
        }
      ],
      "name": "getListAllOrderedObatFromSender",
      "outputs": [
        {
          "internalType": "string[]",
          "name": "orderIdArray",
          "type": "string[]"
        },
        {
          "internalType": "string[]",
          "name": "namaProdukArray",
          "type": "string[]"
        },
        {
          "internalType": "uint8[]",
          "name": "statusOrderArray",
          "type": "uint8[]"
        },
        {
          "internalType": "uint8[]",
          "name": "obatQuantityArray",
          "type": "uint8[]"
        },
        {
          "internalType": "string[]",
          "name": "obatIdProdukArray",
          "type": "string[]"
        },
        {
          "internalType": "string[]",
          "name": "batchNameArray",
          "type": "string[]"
        }
      ],
      "stateMutability": "view",
      "type": "function"
    },
    {
      "inputs": [
        {
          "internalType": "string",
          "name": "_targetInstanceName",
          "type": "string"
        }
      ],
      "name": "getListAllOrderedObatFromTarget",
      "outputs": [
        {
          "internalType": "string[]",
          "name": "orderIdArray",
          "type": "string[]"
        },
        {
          "internalType": "string[]",
          "name": "namaProdukArray",
          "type": "string[]"
        },
        {
          "internalType": "uint8[]",
          "name": "statusOrderArray",
          "type": "uint8[]"
        },
        {
          "internalType": "uint8[]",
          "name": "obatQuantityArray",
          "type": "uint8[]"
        },
        {
          "internalType": "string[]",
          "name": "obatIdProdukArray",
          "type": "string[]"
        },
        {
          "internalType": "string[]",
          "name": "batchNameArray",
          "type": "string[]"
        }
      ],
      "stateMutability": "view",
      "type": "function"
    },
    {
      "inputs": [
        {
          "internalType": "string",
          "name": "_instanceName",
          "type": "string"
        }
      ],
      "name": "getListAllReadyObat",
      "outputs": [
        {
          "internalType": "string[]",
          "name": "obatIdProduk",
          "type": "string[]"
        },
        {
          "internalType": "string[]",
          "name": "namaProduk",
          "type": "string[]"
        },
        {
          "internalType": "uint8[]",
          "name": "obatQuantity",
          "type": "uint8[]"
        },
        {
          "internalType": "string[]",
          "name": "batchName",
          "type": "string[]"
        }
      ],
      "stateMutability": "view",
      "type": "function"
    },
    {
      "inputs": [
        {
          "internalType": "string",
          "name": "",
          "type": "string"
        }
      ],
      "name": "obatPbfByIdProduk",
      "outputs": [
        {
          "internalType": "string",
          "name": "orderId",
          "type": "string"
        },
        {
          "internalType": "string",
          "name": "batchName",
          "type": "string"
        },
        {
          "internalType": "string",
          "name": "obatIdProduk",
          "type": "string"
        },
        {
          "internalType": "string",
          "name": "namaProduk",
          "type": "string"
        },
        {
          "internalType": "enum OrderManagement.en_obatAvailability",
          "name": "statusStok",
          "type": "uint8"
        },
        {
          "internalType": "uint8",
          "name": "obatQuantity",
          "type": "uint8"
        },
        {
          "internalType": "string",
          "name": "ownerInstanceName",
          "type": "string"
        }
      ],
      "stateMutability": "view",
      "type": "function"
    },
    {
      "inputs": [],
      "name": "obatTradisional",
      "outputs": [
        {
          "internalType": "contract ObatTradisional",
          "name": "",
          "type": "address"
        }
      ],
      "stateMutability": "view",
      "type": "function"
    },
    {
      "inputs": [
        {
          "internalType": "string",
          "name": "",
          "type": "string"
        }
      ],
      "name": "orderObatById",
      "outputs": [
        {
          "internalType": "string",
          "name": "orderId",
          "type": "string"
        },
        {
          "internalType": "string",
          "name": "namaProduk",
          "type": "string"
        },
        {
          "internalType": "string",
          "name": "obatIdProduk",
          "type": "string"
        },
        {
          "internalType": "string",
          "name": "batchName",
          "type": "string"
        },
        {
          "internalType": "uint8",
          "name": "orderQuantity",
          "type": "uint8"
        },
        {
          "internalType": "string",
          "name": "senderInstanceName",
          "type": "string"
        },
        {
          "internalType": "string",
          "name": "targetInstanceName",
          "type": "string"
        },
        {
          "internalType": "enum OrderManagement.en_orderStatus",
          "name": "statusOrder",
          "type": "uint8"
        },
        {
          "internalType": "uint256",
          "name": "timestampOrder",
          "type": "uint256"
        },
        {
          "internalType": "uint256",
          "name": "timestampShipped",
          "type": "uint256"
        },
        {
          "internalType": "uint256",
          "name": "timestampComplete",
          "type": "uint256"
        }
      ],
      "stateMutability": "view",
      "type": "function"
    },
    {
      "inputs": [
        {
          "internalType": "string",
          "name": "",
          "type": "string"
        },
        {
          "internalType": "uint256",
          "name": "",
          "type": "uint256"
        }
      ],
      "name": "orderRetailerInstanceAddress",
      "outputs": [
        {
          "internalType": "address",
          "name": "",
          "type": "address"
        }
      ],
      "stateMutability": "view",
      "type": "function"
    },
    {
      "inputs": [
        {
          "internalType": "string",
          "name": "",
          "type": "string"
        },
        {
          "internalType": "uint256",
          "name": "",
          "type": "uint256"
        }
      ],
      "name": "orderSenderInstanceAddress",
      "outputs": [
        {
          "internalType": "address",
          "name": "",
          "type": "address"
        }
      ],
      "stateMutability": "view",
      "type": "function"
    },
    {
      "inputs": [],
      "name": "roleManager",
      "outputs": [
        {
          "internalType": "contract RoleManager",
          "name": "",
          "type": "address"
        }
      ],
      "stateMutability": "view",
      "type": "function"
    }
  ],
  "bytecode": "0x608034608d57601f613b2838819003918201601f19168301916001600160401b038311848410176092578084926040948552833981010312608d5760418160a8565b906001600160a01b039060559060200160a8565b1660018060a01b0319600154161760015560018060a01b031660018060a01b03196000541617600055604051613a6c90816100bc8239f35b600080fd5b634e487b7160e01b600052604160045260246000fd5b51906001600160a01b0382168203608d5756fe608080604052600436101561001357600080fd5b60003560e01c908162435da514611f24575080630a04f9c814611ef35780630e59a67514611ec157806333cec588146113fd5780634e09fdbc1461122857806386f5cea6146111705780638eaca41d146111155780639cf8b57e14610ffd578063aefb977d14610bd0578063b7757f1414610852578063b96c0866146105fa578063c2d48dca14610452578063d4af6823146103ce578063e7ca37871461036e578063ea020d59146103455763ef470b55146100ce57600080fd5b34610340576020366003190112610340576004356001600160401b038111610340576100fe90369060040161219c565b6000806002549260208101925b8481106102ec575061011c82612665565b9161012681612665565b9361013082613a04565b61013983613a04565b9161014c61014685612665565b94612665565b94600091825b8a811061017257898961016e8a8a8a8a6040519687968761236a565b0390f35b60066101976101a561018384611f48565b5060405192839160208301958691016126af565b03601f198101835282611fd3565b51902060405160208101906101d460208288516101c381878b612098565b81010301601f198101835282611fd3565b519020146101e5575b600101610152565b926101f86101f285611f48565b50611ff4565b610202828b61271d565b5261020d818a61271d565b50610223600161021c86611f48565b5001611ff4565b61022d828c61271d565b52610238818b61271d565b5060ff600761024686611f48565b5001541660038110156102d657816102ce916102646001948961271d565b5260ff600461027288611f48565b50015416610280828a61271d565b5261028f600261021c88611f48565b610299828b61271d565b526102a4818a61271d565b506102b3600361021c88611f48565b6102bd828c61271d565b526102c8818b61271d565b506139df565b9390506101dd565b634e487b7160e01b600052602160045260246000fd5b60066101976102fd61018384611f48565b519020604051602081019061031b60208287516101c381878d612098565b5190201461032c575b60010161010b565b916103386001916139df565b929050610324565b600080fd5b34610340576000366003190112610340576000546040516001600160a01b039091168152602090f35b34610340576020610396610381366121e3565b92908160405193828580945193849201612098565b810160078152030190208054821015610340576020916103b59161223a565b905460405160039290921b1c6001600160a01b03168152f35b3461034057602036600319011261034057600435600354811015610340576103f5906123d7565b506103ff81611ff4565b61016e61040e60018401611ff4565b9161041b60028501611ff4565b9361042860038201611ff4565b9161043a600660048401549301611ff4565b9260405196879660ff808660081c16951693886122cc565b34610340576020366003190112610340576004356001600160401b0381116103405761048290369060040161219c565b6000806002549260208101925b8481106105a657506104a082612665565b916104aa81612665565b936104b482613a04565b6104bd83613a04565b916104ca61014685612665565b94600091825b8a81106104ec57898961016e8a8a8a8a6040519687968761236a565b60056101976104fd61018384611f48565b519020604051602081019061051b60208288516101c381878b612098565b5190201461052c575b6001016104d0565b926105396101f285611f48565b610543828b61271d565b5261054e818a61271d565b5061055d600161021c86611f48565b610567828c61271d565b52610572818b61271d565b5060ff600761058086611f48565b5001541660038110156102d6578161059e916102646001948961271d565b939050610524565b60056101976105b761018384611f48565b51902060405160208101906105d560208287516101c381878d612098565b519020146105e6575b60010161048f565b916105f26001916139df565b9290506105de565b34610340576020366003190112610340576004356001600160401b0381116103405761062a90369060040161219c565b60405161066d6101976106658451936020818188019661064b81838a612098565b8101600481520301902060405192839160208301906126af565b5115156125ce565b6040516020818451610680818387612098565b810160048152030190209160078301600260ff1982541617905542600a84015560005b60025481101561084a576106b681611f48565b506040516106cc816101976020820180956126af565b51902060405160208101906106ea60208287516101c381878c612098565b519020146106fa576001016106a3565b61071d919250600761070b82611f48565b5001805460ff19166002179055611f48565b50600a429101555b6003820191600181019160048201805460ff16600584019260405191829161074c83611fb7565b825261075788611ff4565b602083015261076860028701611ff4565b906040830191825261077988611ff4565b60608401526000608084015260a0830152610796600b87016127b4565b60c08301526107a485611ff4565b60e0830152516107b390612214565b906107bd91612a69565b6107c690613146565b5460ff169160405194859460c0865260c086016107e291612731565b85810360208701526107f391612731565b848103604086015261080791600601612731565b838103606085015261081891612731565b9060808301524260a0830152037f6185e892b495921d623cf19a02c2565e2522589cc1edae45bc123c650b0def6191a1005b509050610725565b34610340576020366003190112610340576004356001600160401b0381116103405761088290369060040161219c565b6003546001546001600160a01b0316906000805b828110610ac657506108a781612665565b926108b182612665565b906108c46108be84613a04565b93612665565b936000805b82811061091e576108f48861016e896109108a6109028b604051978897608089526080890190612269565b908782036020890152612269565b908582036040870152612333565b908382036060850152612269565b6040516395a8c58d60e01b815233600482015260016024820152600090602081604481895afa908115610abb578291610a8d575b5015610a67576006610197610969610183856123d7565b5190208a60405161098a602082816101c38183019687815193849201612098565b5190201480610a46575b610a3e575b6109a6575b6001016108c9565b90610a366001916109bb600261021c866123d7565b6109c5828c61271d565b526109d0818b61271d565b506109df600361021c866123d7565b6109e9828961271d565b526109f4818861271d565b5060ff6004610a02866123d7565b50015460081c16610a13828a61271d565b52610a218361021c866123d7565b610a2b828b61271d565b526102c8818a61271d565b91905061099e565b506001610999565b5060ff6004610a54846123d7565b50015416610a61816122c2565b15610994565b60ff6004610a74846123d7565b50015416610a81816122c2565b61099957506001610999565b610aae915060203d8111610ab4575b610aa68183611fd3565b8101906139c7565b8b610952565b503d610a9c565b6040513d84823e3d90fd5b6040516395a8c58d60e01b815233600482015260016024820152600090602081604481895afa908115610abb578291610bb2575b5015610b8c576006610197610b11610183856123d7565b5190206040516020810190610b33602082816101c38d87815193849201612098565b5190201480610b6b575b610b63575b610b4f575b600101610896565b90610b5b6001916139df565b919050610b47565b506001610b42565b5060ff6004610b79846123d7565b50015416610b86816122c2565b15610b3d565b60ff6004610b99846123d7565b50015416610ba6816122c2565b610b4257506001610b42565b610bca915060203d8111610ab457610aa68183611fd3565b87610afa565b346103405760e0366003190112610340576004356001600160401b03811161034057610c0090369060040161219c565b6024356001600160401b03811161034057610c1f90369060040161219c565b6044356001600160401b03811161034057610c3e90369060040161219c565b6064359160ff8316809303610340576084356001600160401b03811161034057610c6c90369060040161219c565b60a4356001600160a01b03811691908290036103405760c4356001600160401b03811161034057610ca190369060040161219c565b9160018060a01b036000541696604051631abf957b60e21b81526020600482015260008180610cd360248201866120bb565b03818c5afa8015610fbb57602091600091610fe2575b500151604051631abf957b60e21b81526020600482015260008180610d1160248201876120bb565b03818d5afa908115610fbb5760ff91608091600091610fc7575b500151169860006040518092631abf957b60e21b8252602060048301528180610d5760248201896120bb565b03915afa8015610fbb5760c091600091610f98575b50015198604051996101808b01938b85106001600160401b03861117610f825789610e3c9383898f610e37958e976101608f9360ff94610e419e6040528b825260208201998a52604082019485528d60608301526080820198895260a0820196875260c0820152600260e08201524261010082015242610120820152426101408201520152519451935116905192604051988997610e0989611fb7565b885260208801526040870185905260608701526000608087015260a086015260c085015260e0840152612214565b612a69565b613146565b6040516020818451610e568183858901612098565b810160068152030190208054600160401b811015610f8257610e7d9160018201815561223a565b819291549060031b91821b9160018060a01b03901b1916179055610ebf866040516020818751610eb08183858c01612098565b810160048152030190206131af565b600254600160401b811015610f8257806001610ede9201600255611f48565b919091610f6c57610f45610f3296610f6195610f1e7f292bbb6d1836d1c84f14bc8632586c9cdc3b938748d1a94348313ce41a2951999a610f53966131af565b60405198899860c08a5260c08a01906120bb565b91602089015287820360408901526120bb565b9085820360608701526120bb565b9083820360808501526120bb565b4260a08301520390a1005b634e487b7160e01b600052600060045260246000fd5b634e487b7160e01b600052604160045260246000fd5b610fb591503d806000833e610fad8183611fd3565b8101906125a9565b8b610d6c565b6040513d6000823e3d90fd5b610fdc91503d806000833e610fad8183611fd3565b8c610d2b565b610ff791503d806000833e610fad8183611fd3565b8a610ce9565b34610340576040366003190112610340576004356001600160401b0381116103405761102d90369060040161219c565b6024356001600160401b0381116103405761016e9161105361105992369060040161219c565b9061280c565b6040519182916020835260e06111006110cb6110b561109f611089865161010060208b01526101208a01906120bb565b6020870151898203601f190160408b01526120bb565b6040860151888203601f190160608a01526120bb565b6060850151878203601f190160808901526120bb565b60808401516110d9816122c2565b60a087015260ff60a08501511660c087015260c0840151601f198783030184880152612269565b910151838203601f19016101008501526120bb565b34610340576020366003190112610340576004356001600160401b03811161034057602061114a61115d92369060040161219c565b8160405193828580945193849201612098565b810160058152030190206103ff81611ff4565b34610340576020366003190112610340576004356001600160401b03811161034057602061114a6111a592369060040161219c565b810160048152030190206111b881611ff4565b61016e6111c760018401611ff4565b926111d460028201611ff4565b906111e160038201611ff4565b60ff6004830154166111f560058401611ff4565b61120160068501611ff4565b9060ff60078601541692600886015494600a6009880154970154976040519b8c9b8c6120e0565b34610340576020366003190112610340576004356001600160401b0381116103405761125890369060040161219c565b6040516112796101976106658451936020818188019661064b81838a612098565b60ff60046040516020818651611290818389612098565b810184815203019020015416906112c5600560405160208187516112b5818389612098565b8101600481520301902001611ff4565b926112de600660405160208185516112b581838a612098565b9060ff600760405160208185516112f681838b612098565b8101600481520301902001541660038110156102d6576113e9906113db61133d600b6040516020818061132d8c8b51928391612098565b81016004815203019020016127b4565b91600a61139d6020600861135e828c8b604051938492839251928391612098565b81016004815203019020015499600960405183818c5161137f818388612098565b81016004815203019020015498604051938492839251928391612098565b810160048152030190200154956113c86040519a8b9a8b5261010060208c01526101008b01906120bb565b9160408a015288820360608a01526120bb565b908682036080880152612269565b9260a085015260c084015260e08301520390f35b34610340576060366003190112610340576004356001600160401b0381116103405761142d90369060040161219c565b6024356001600160401b0381116103405761144c90369060040161219c565b604435916001600160401b038311610340573660238401121561034057826004013561147781612252565b936114856040519586611fd3565b81855260208501906024829360051b820101903682116103405760248101925b828410611e9257505060008054604051632a721ced60e21b8152602060048201526001600160a01b03909116969350915081806114e560248201886120bb565b0381885afa908115610fbb5761151f91604091600091611e77575b5001516106656020604051836101c38295518092858086019101612098565b604051632a721ced60e21b815260206004820152936000858061154560248201886120bb565b0381845afa948515610fbb57600095611e56575b5060006004916040519283809263110037fd60e21b82525afa908115610fbb57600091611d9b575b5090604051958151966020818185019961159c81838d612098565b8101600481520301902093600b8501915190600160401b8211610f82578254828455808310611d1d575b50916000526020600020916000905b828210611c0557505050506003830184516001600160401b038111610f82576115fe8254611f7d565b601f8111611bd3575b506020601f8211600114611b6f57908061163792600091611b64575b508160011b916000199060031b1c19161790565b90555b60078301805460ff19166001179055426009840155611657612631565b9060c08601918252600060808701526001865260005b600254811015611b575761168081611f48565b50604051611696816101976020820180956126af565b5190206101c36040516116b66020828d8282019586918a51928391612098565b519020146116c65760010161166d565b96505051600b6116d587611f48565b500190805190600160401b8211610f82578254828455808310611ad9575b50602001916000526020600020916000905b8282106119c05750505050600361171b86611f48565b5001948351956001600160401b038711610f82576117398154611f7d565b601f8111611983575b50602096601f8111600114611919578061177991611799959697989960009161190e57508160011b916000199060031b1c19161790565b90555b600761178782611f48565b5001805460ff19166001179055611f48565b506009429101555b602083019260005b82518110156118dd5760206117be828561271d565b5101516040516117de602082816101c38183019687815193849201612098565b51902060405160208101906117fe602082846101c38c8a51928391612098565b5190201461180e576001016117a9565b6118ac94507f6185e892b495921d623cf19a02c2565e2522589cc1edae45bc123c650b0def6195915061186d81846000608061184e60019660209961271d565b510152611859612631565b60c0611865848461271d565b51015261271d565b51525b0151906118cc60ff6004830154169160056118bd60405196879660c0885261189e60c0890160018701612731565b9088820360208a01526120bb565b868103604088015260068401612731565b91858303606087015201612731565b9060808301524260a08301520390a1005b5050506118ac915060207f6185e892b495921d623cf19a02c2565e2522589cc1edae45bc123c650b0def6193611870565b90508801518a611623565b601f19811682600052886000209060005b81811061196b5750906117999596979899836001949310611952575b5050811b01905561177c565b89015160001960f88460031b161c191690558980611946565b888b0151835560209a8b019a6001909301920161192a565b6119b090826000526020600020601f8a0160051c81019160208b106119b6575b601f0160051c019061261a565b87611742565b90915081906119a3565b80518051906001600160401b038211610f82576119dd8654611f7d565b601f8111611aa7575b50602090601f8311600114611a3a5792611a2083600195946020948796600092611a2f575b50508160011b916000199060031b1c19161790565b87555b01940191019092611705565b015190508f80611a0b565b90601f1983169187600052816000209260005b818110611a8f5750936020936001969387969383889510611a76575b505050811b018755611a23565b015160001960f88460031b161c191690558e8080611a69565b92936020600181928786015181550195019301611a4d565b611ad390876000526020600020601f850160051c810191602086106119b657601f0160051c019061261a565b8b6119e6565b8360005282602060002091820191015b818110611af657506116f3565b80611b0360019254611f7d565b80611b10575b5001611ae9565b601f81118314611b265750600081555b8b611b09565b611b44908260005283601f6020600020920160051c8201910161261a565b8060005260006020812081835555611b20565b50505090919293506117a1565b90508701518a611623565b601f1982169083600052806000209160005b818110611bbb57509083600194939210611ba2575b5050811b01905561163a565b88015160001960f88460031b161c191690558980611b96565b9192602060018192868d015181550194019201611b81565b611bff90836000526020600020601f840160051c810191602085106119b657601f0160051c019061261a565b88611607565b80518051906001600160401b038211610f8257611c228654611f7d565b601f8111611ceb575b50602090601f8311600114611c7e5792611c6483600195946020948796600092611c735750508160011b916000199060031b1c19161790565b87555b019401910190926115d5565b015190503880611a0b565b90601f1983169187600052816000209260005b818110611cd35750936020936001969387969383889510611cba575b505050811b018755611c67565b015160001960f88460031b161c191690558f8080611cad565b92936020600181928786015181550195019301611c91565b611d1790876000526020600020601f850160051c810191602086106119b657601f0160051c019061261a565b8c611c2b565b8360005282602060002091820191015b818110611d3a57506115c6565b80611d4760019254611f7d565b80611d54575b5001611d2d565b601f81118314611d6a5750600081555b8c611d4d565b611d88908260005283601f6020600020920160051c8201910161261a565b8060005260006020812081835555611d64565b3d8083833e611daa8183611fd3565b810190602081830312611e52578051906001600160401b038211611e4a570181601f82011215611e52578051611ddf81612252565b93611ded6040519586611fd3565b81855260208086019260051b84010192848411611e4e5760208101925b848410611e1d5750505050505086611581565b83516001600160401b038111611e4a57602091611e3f88848094870101612438565b815201930192611e0a565b8380fd5b5080fd5b8280fd5b611e6f600091600493973d8091833e610fad8183611fd3565b959150611559565b611e8c91503d806000833e610fad8183611fd3565b88611500565b83356001600160401b03811161034057602091611eb683926024369187010161219c565b8152019301926114a5565b34610340576020611ed4610381366121e3565b810160068152030190208054821015610340576020916103b59161223a565b346103405760203660031901126103405760043560025481101561034057611f1a90611f48565b506111b881611ff4565b34610340576000366003190112610340576001546001600160a01b03168152602090f35b600254811015611f67576002600052600c602060002091020190600090565b634e487b7160e01b600052603260045260246000fd5b90600182811c92168015611fad575b6020831014611f9757565b634e487b7160e01b600052602260045260246000fd5b91607f1691611f8c565b61010081019081106001600160401b03821117610f8257604052565b90601f801991011681019081106001600160401b03821117610f8257604052565b906040519182600082549261200884611f7d565b8084529360018116908115612076575060011461202f575b5061202d92500383611fd3565b565b90506000929192526020600020906000915b81831061205a57505090602061202d9282010138612020565b6020919350806001915483858901015201910190918492612041565b90506020925061202d94915060ff191682840152151560051b82010138612020565b60005b8381106120ab5750506000910152565b818101518382015260200161209b565b906020916120d481518092818552858086019101612098565b601f01601f1916010190565b97989b9a999694926121509461212e61213c926121208c61215e9b9761211260ff9861016084526101608401906120bb565b9160208184039101526120bb565b8c810360408e0152906120bb565b908a820360608c01526120bb565b9216608088015286820360a08801526120bb565b9084820360c08601526120bb565b9560038410156102d6576101409360e08401526101008301526101208201520152565b6001600160401b038111610f8257601f01601f191660200190565b81601f82011215610340578035906121b382612181565b926121c16040519485611fd3565b8284526020838301011161034057816000926020809301838601378301015290565b604060031982011261034057600435906001600160401b0382116103405761220d9160040161219c565b9060243590565b602061222d918160405193828580945193849201612098565b8101600581520301902090565b8054821015611f675760005260206000200190600090565b6001600160401b038111610f825760051b60200190565b9080602083519182815201916020808360051b8301019401926000915b83831061229557505050505090565b90919293946020806122b3600193601f1986820301875289516120bb565b97019301930191939290612286565b600211156102d657565b93610f4560ff946123006123309a9899956122f261230e9660e08b5260e08b01906120bb565b9089820360208b01526120bb565b9087820360408901526120bb565b94612318816122c2565b60808401521660a082015260c08184039101526120bb565b90565b906020808351928381520192019060005b8181106123515750505090565b825160ff16845260209384019390920191600101612344565b9491936123ad6123c99461239f61233099976123916123bb9660c08c5260c08c0190612269565b908a820360208c0152612269565b9088820360408a0152612333565b908682036060880152612333565b908482036080860152612269565b9160a0818403910152612269565b600354811015611f675760036000526007602060002091020190600090565b81601f8201121561034057805161240c81612181565b9261241a6040519485611fd3565b81845260208284010111610340576123309160208085019101612098565b919060e0838203126103405760405160e081018181106001600160401b03821117610f825760405280938051600281101561034057825260208101516001600160401b038111610340578361248e9183016123f6565b602083015260408101516001600160401b03811161034057836124b29183016123f6565b604083015260608101516001600160401b03811161034057836124d69183016123f6565b6060830152608081015160ff8116810361034057608083015260a08101516001600160401b038111610340578361250e9183016123f6565b60a083015260c0810151906001600160401b03821161034057019180601f8401121561034057825161253f81612252565b9361254d6040519586611fd3565b81855260208086019260051b820101918383116103405760208201905b83821061257c57505050505060c00152565b81516001600160401b0381116103405760209161259e878480948801016123f6565b81520191019061256a565b906020828203126103405781516001600160401b038111610340576123309201612438565b156125d557565b60405162461bcd60e51b815260206004820152601b60248201527f4e6f206461746120666f756e64207769746820746869732049442e00000000006044820152606490fd5b818110612625575050565b6000815560010161261a565b60405190612640602083611fd3565b600080835282815b82811061265457505050565b806060602080938501015201612648565b9061266f82612252565b61267c6040519182611fd3565b828152809261268d601f1991612252565b019060005b82811061269e57505050565b806060602080938501015201612692565b600092918154916126bf83611f7d565b926001811690811561270a57506001146126d857505050565b909192935060005260206000206000905b8382106126f65750500190565b6001816020925484860152019101906126e9565b60ff191683525050811515909102019150565b8051821015611f675760209160051b010190565b6000929181549161274183611f7d565b8083529260018116908115612797575060011461275d57505050565b60009081526020812093945091925b83831061277d575060209250010190565b60018160209294939454838587010152019101919061276c565b915050602093945060ff929192191683830152151560051b010190565b9081546127c081612252565b926127ce6040519485611fd3565b818452602084019060005260206000206000915b8383106127ef5750505050565b6001602081926127fe85611ff4565b8152019201920191906127e2565b60405161281881611fb7565b60608152606060208201526060604082015260608082015260006080820152600060a0820152606060c0820152606060e0820152506040519161288661287f60028451956020818188019861286e81838c612098565b810160058152030190200154611f7d565b15156125ce565b6006604051602081855161289b81838a612098565b81016005815203019020016040516128bb816101976020820180956126af565b519020906040516128dc602082816101c38183019687815193849201612098565b51902003612996576128fc91602091604051938492839251928391612098565b8101600581520301902061298e60066040519261291884611fb7565b61292181611ff4565b845261292f60018201611ff4565b602085015261294060028201611ff4565b604085015261295160038201611ff4565b606085015260ff6004820154818116612969816122c2565b608087015260081c1660a0850152612983600582016127b4565b60c085015201611ff4565b60e082015290565b6129ae91602091604051938492839251928391612098565b81016005815203019020604051906129c582611fb7565b6129ce81611ff4565b82526129dc60018201611ff4565b60208301526129ed60028201611ff4565b60408301526129fe60038201611ff4565b606083015260ff6004820154818116612a16816122c2565b608085015260081c1660a0830152612a436006612a35600584016127b4565b9260c0850193845201611ff4565b60e0830152604051612a56602082611fd3565b600081528252612a64612631565b905290565b9181519283516001600160401b038111610f8257612a878254611f7d565b601f8111613114575b50602094601f82116001146130af57612ac4929394958291600092611c735750508160011b916000199060031b1c19161790565b81555b6001810160208401518051906001600160401b038211610f8257612aeb8354611f7d565b601f811161307d575b50602090601f831160011461301657612b25929160009183611c735750508160011b916000199060031b1c19161790565b90555b6002810160408401518051906001600160401b038211610f8257612b4c8354611f7d565b601f8111612fe4575b50602090601f8311600114612f7d57612b86929160009183611c735750508160011b916000199060031b1c19161790565b90555b6003810160608401518051906001600160401b038211610f8257612bad8354611f7d565b601f8111612f4b575b50602090601f8311600114612ee457612be7929160009183611c735750508160011b916000199060031b1c19161790565b90555b600481016080840151612bfc816122c2565b612c05816122c2565b815460ff61ff0060a088015160081b1692169061ffff1916171790556005810160c0840151805190600160401b8211610f82578254828455808310612e66575b50602001916000526020600020916000905b828210612d595750505050600660e091019201519182516001600160401b038111610f8257612c868254611f7d565b601f8111612d27575b506020601f8211600114612cc5578190612cc1939495600092611c735750508160011b916000199060031b1c19161790565b9055565b601f1982169083600052806000209160005b818110612d0f57509583600195969710612cf6575b505050811b019055565b015160001960f88460031b161c19169055388080612cec565b9192602060018192868b015181550194019201612cd7565b612d5390836000526020600020601f840160051c810191602085106119b657601f0160051c019061261a565b38612c8f565b80518051906001600160401b038211610f8257612d768654611f7d565b601f8111612e34575b50602090601f8311600114612dc75792612db883600195946020948796600092611c735750508160011b916000199060031b1c19161790565b87555b01940191019092612c57565b90601f1983169187600052816000209260005b818110612e1c5750936020936001969387969383889510612e03575b505050811b018755612dbb565b015160001960f88460031b161c19169055388080612df6565b92936020600181928786015181550195019301612dda565b612e6090876000526020600020601f850160051c810191602086106119b657601f0160051c019061261a565b38612d7f565b8360005282602060002091820191015b818110612e835750612c45565b80612e9060019254611f7d565b80612e9d575b5001612e76565b601f81118314612eb35750600081555b38612e96565b612ed1908260005283601f6020600020920160051c8201910161261a565b8060005260006020812081835555612ead565b90601f1983169184600052816000209260005b818110612f335750908460019594939210612f1a575b505050811b019055612bea565b015160001960f88460031b161c19169055388080612f0d565b92936020600181928786015181550195019301612ef7565b612f7790846000526020600020601f850160051c810191602086106119b657601f0160051c019061261a565b38612bb6565b90601f1983169184600052816000209260005b818110612fcc5750908460019594939210612fb3575b505050811b019055612b89565b015160001960f88460031b161c19169055388080612fa6565b92936020600181928786015181550195019301612f90565b61301090846000526020600020601f850160051c810191602086106119b657601f0160051c019061261a565b38612b55565b90601f1983169184600052816000209260005b818110613065575090846001959493921061304c575b505050811b019055612b28565b015160001960f88460031b161c1916905538808061303f565b92936020600181928786015181550195019301613029565b6130a990846000526020600020601f850160051c810191602086106119b657601f0160051c019061261a565b38612af4565b601f1982169583600052806000209160005b8881106130fc575083600195969798106130e3575b505050811b018155612ac7565b015160001960f88460031b161c191690553880806130d6565b919260206001819286850151815501940192016130c1565b61314090836000526020600020601f840160051c810191602085106119b657601f0160051c019061261a565b38612a90565b600354600160401b811015610f825760018101600355600060035482101561319b57600390526007027fc2575a0e9e593c00f959f8c92f12db2869c3395a3b0502d05e2516446f71f85b019061202d91612a69565b634e487b7160e01b81526032600452602490fd5b91909182519283516001600160401b038111610f82576131cf8354611f7d565b601f8111613995575b50602094601f82116001146139305761320c929394958291600092611c735750508160011b916000199060031b1c19161790565b82555b6001820160208201518051906001600160401b038211610f82576132338354611f7d565b601f81116138fe575b50602090601f83116001146138975761326d929160009183611c735750508160011b916000199060031b1c19161790565b90555b6002820160408201518051906001600160401b038211610f82576132948354611f7d565b601f8111613865575b50602090601f83116001146137fe576132ce929160009183611c735750508160011b916000199060031b1c19161790565b90555b6003820160608201518051906001600160401b038211610f82576132f58354611f7d565b601f81116137cc575b50602090601f83116001146137655761332f929160009183611c735750508160011b916000199060031b1c19161790565b90555b6004820160ff60808301511660ff198254161790556005820160a08201518051906001600160401b038211610f825761336b8354611f7d565b601f8111613733575b50602090601f83116001146136cc576133a5929160009183611c735750508160011b916000199060031b1c19161790565b90555b6006820160c08201518051906001600160401b038211610f82576133cc8354611f7d565b601f811161369a575b50602090601f831160011461363357613406929160009183611c735750508160011b916000199060031b1c19161790565b90555b60e0810151916007810160038410156102d65761016091600b9160009560ff8019835416911617905561010084015160088201556101208401516009820155610140840151600a8201550191015190815191600160401b831161361f5781548383558084106135a9575b506020019083526020832083915b83831061348f575050505050565b80518051906001600160401b038211613595576134ac8454611f7d565b601f8111613565575b50602090601f83116001146134fc57926134ed836001959460209487968c92611c735750508160011b916000199060031b1c19161790565b85555b01920192019190613481565b8488528188209190601f198416895b81811061354d5750936020936001969387969383889510613534575b505050811b0185556134f0565b015160001960f88460031b161c19169055388080613527565b9293602060018192878601518155019501930161350b565b61358f9085895260208920601f850160051c810191602086106119b657601f0160051c019061261a565b386134b5565b634e487b7160e01b87526041600452602487fd5b828552836020862091820191015b8181106135c45750613473565b806135d160019254611f7d565b806135de575b50016135b7565b601f811183146135f357508681555b386135d7565b8188526020882061360e91601f0160051c810190840161261a565b8087528660208120818355556135ed565b634e487b7160e01b84526041600452602484fd5b90601f1983169184600052816000209260005b8181106136825750908460019594939210613669575b505050811b019055613409565b015160001960f88460031b161c1916905538808061365c565b92936020600181928786015181550195019301613646565b6136c690846000526020600020601f850160051c810191602086106119b657601f0160051c019061261a565b386133d5565b90601f1983169184600052816000209260005b81811061371b5750908460019594939210613702575b505050811b0190556133a8565b015160001960f88460031b161c191690553880806136f5565b929360206001819287860151815501950193016136df565b61375f90846000526020600020601f850160051c810191602086106119b657601f0160051c019061261a565b38613374565b90601f1983169184600052816000209260005b8181106137b4575090846001959493921061379b575b505050811b019055613332565b015160001960f88460031b161c1916905538808061378e565b92936020600181928786015181550195019301613778565b6137f890846000526020600020601f850160051c810191602086106119b657601f0160051c019061261a565b386132fe565b90601f1983169184600052816000209260005b81811061384d5750908460019594939210613834575b505050811b0190556132d1565b015160001960f88460031b161c19169055388080613827565b92936020600181928786015181550195019301613811565b61389190846000526020600020601f850160051c810191602086106119b657601f0160051c019061261a565b3861329d565b90601f1983169184600052816000209260005b8181106138e657509084600195949392106138cd575b505050811b019055613270565b015160001960f88460031b161c191690553880806138c0565b929360206001819287860151815501950193016138aa565b61392a90846000526020600020601f850160051c810191602086106119b657601f0160051c019061261a565b3861323c565b601f1982169584600052806000209160005b88811061397d57508360019596979810613964575b505050811b01825561320f565b015160001960f88460031b161c19169055388080613957565b91926020600181928685015181550194019201613942565b6139c190846000526020600020601f840160051c810191602085106119b657601f0160051c019061261a565b386131d8565b90816020910312610340575180151581036103405790565b60001981146139ee5760010190565b634e487b7160e01b600052601160045260246000fd5b90613a0e82612252565b613a1b6040519182611fd3565b8281528092613a2c601f1991612252565b019060203691013756fea2646970667358221220496fd454d39a9971698d3457528a5c2463e7067f36939c21167b8c8074350e1564736f6c634300081b0033",
  "linkReferences": {},
  "deployedLinkReferences": {}
}