{
  "_format": "hh-sol-artifact-1",
  "contractName": "OrderManagement",
  "sourceName": "contracts/OrderManagement.sol",
  "abi": [
    {
      "inputs": [
        {
          "internalType": "address",
          "name": "_obatTradisionalAddr",
          "type": "address"
        },
        {
          "internalType": "address",
          "name": "_roleManagerAddr",
          "type": "address"
        }
      ],
      "stateMutability": "nonpayable",
      "type": "constructor"
    },
    {
      "anonymous": false,
      "inputs": [
        {
          "indexed": false,
          "internalType": "string",
          "name": "namaProduk",
          "type": "string"
        },
        {
          "indexed": false,
          "internalType": "uint8",
          "name": "quantity",
          "type": "uint8"
        },
        {
          "indexed": false,
          "internalType": "string",
          "name": "orderId",
          "type": "string"
        },
        {
          "indexed": false,
          "internalType": "string",
          "name": "senderInstanceName",
          "type": "string"
        },
        {
          "indexed": false,
          "internalType": "string",
          "name": "targetInstanceName",
          "type": "string"
        },
        {
          "indexed": false,
          "internalType": "uint256",
          "name": "latestTimestamp",
          "type": "uint256"
        }
      ],
      "name": "evt_obatOrdered",
      "type": "event"
    },
    {
      "anonymous": false,
      "inputs": [
        {
          "indexed": false,
          "internalType": "string",
          "name": "namaProduk",
          "type": "string"
        },
        {
          "indexed": false,
          "internalType": "string",
          "name": "batchName",
          "type": "string"
        },
        {
          "indexed": false,
          "internalType": "string",
          "name": "targetInstance",
          "type": "string"
        },
        {
          "indexed": false,
          "internalType": "string",
          "name": "senderInstance",
          "type": "string"
        },
        {
          "indexed": false,
          "internalType": "uint8",
          "name": "quantity",
          "type": "uint8"
        },
        {
          "indexed": false,
          "internalType": "uint256",
          "name": "latestTimestamp",
          "type": "uint256"
        }
      ],
      "name": "evt_updateOrder",
      "type": "event"
    },
    {
      "inputs": [
        {
          "internalType": "string",
          "name": "_batchName",
          "type": "string"
        },
        {
          "internalType": "string",
          "name": "_orderId",
          "type": "string"
        },
        {
          "internalType": "string[]",
          "name": "_obatIpfsHash",
          "type": "string[]"
        }
      ],
      "name": "acceptOrderFactory",
      "outputs": [],
      "stateMutability": "nonpayable",
      "type": "function"
    },
    {
      "inputs": [
        {
          "internalType": "string",
          "name": "_batchName",
          "type": "string"
        },
        {
          "internalType": "string",
          "name": "_orderId",
          "type": "string"
        },
        {
          "internalType": "string",
          "name": "_obatId",
          "type": "string"
        },
        {
          "internalType": "string[]",
          "name": "_obatIpfsHash",
          "type": "string[]"
        }
      ],
      "name": "acceptOrderPbf",
      "outputs": [],
      "stateMutability": "nonpayable",
      "type": "function"
    },
    {
      "inputs": [
        {
          "internalType": "uint256",
          "name": "",
          "type": "uint256"
        }
      ],
      "name": "allObatPbf",
      "outputs": [
        {
          "internalType": "string",
          "name": "orderId",
          "type": "string"
        },
        {
          "internalType": "string",
          "name": "batchName",
          "type": "string"
        },
        {
          "internalType": "string",
          "name": "obatIdProduk",
          "type": "string"
        },
        {
          "internalType": "string",
          "name": "namaProduk",
          "type": "string"
        },
        {
          "internalType": "enum OrderManagement.en_obatAvailability",
          "name": "statusStok",
          "type": "uint8"
        },
        {
          "internalType": "uint8",
          "name": "obatQuantity",
          "type": "uint8"
        },
        {
          "internalType": "string",
          "name": "ownerInstanceName",
          "type": "string"
        }
      ],
      "stateMutability": "view",
      "type": "function"
    },
    {
      "inputs": [
        {
          "internalType": "uint256",
          "name": "",
          "type": "uint256"
        }
      ],
      "name": "allObatRetailer",
      "outputs": [
        {
          "internalType": "string",
          "name": "orderId",
          "type": "string"
        },
        {
          "internalType": "string",
          "name": "batchName",
          "type": "string"
        },
        {
          "internalType": "string",
          "name": "obatIdProduk",
          "type": "string"
        },
        {
          "internalType": "string",
          "name": "namaProduk",
          "type": "string"
        },
        {
          "internalType": "enum OrderManagement.en_obatAvailability",
          "name": "statusStok",
          "type": "uint8"
        },
        {
          "internalType": "uint8",
          "name": "obatQuantity",
          "type": "uint8"
        },
        {
          "internalType": "string",
          "name": "ownerInstanceName",
          "type": "string"
        }
      ],
      "stateMutability": "view",
      "type": "function"
    },
    {
      "inputs": [
        {
          "internalType": "uint256",
          "name": "",
          "type": "uint256"
        }
      ],
      "name": "allOrderedObat",
      "outputs": [
        {
          "internalType": "string",
          "name": "orderId",
          "type": "string"
        },
        {
          "internalType": "string",
          "name": "namaProduk",
          "type": "string"
        },
        {
          "internalType": "string",
          "name": "obatIdProduk",
          "type": "string"
        },
        {
          "internalType": "string",
          "name": "batchName",
          "type": "string"
        },
        {
          "internalType": "uint8",
          "name": "orderQuantity",
          "type": "uint8"
        },
        {
          "internalType": "string",
          "name": "senderInstanceName",
          "type": "string"
        },
        {
          "internalType": "string",
          "name": "targetInstanceName",
          "type": "string"
        },
        {
          "internalType": "enum OrderManagement.en_orderStatus",
          "name": "statusOrder",
          "type": "uint8"
        },
        {
          "internalType": "uint256",
          "name": "timestampOrder",
          "type": "uint256"
        },
        {
          "internalType": "uint256",
          "name": "timestampShipped",
          "type": "uint256"
        },
        {
          "internalType": "uint256",
          "name": "timestampComplete",
          "type": "uint256"
        }
      ],
      "stateMutability": "view",
      "type": "function"
    },
    {
      "inputs": [
        {
          "internalType": "string",
          "name": "_orderId",
          "type": "string"
        },
        {
          "internalType": "string[]",
          "name": "_obatIpfsHash",
          "type": "string[]"
        }
      ],
      "name": "completeOrder",
      "outputs": [],
      "stateMutability": "nonpayable",
      "type": "function"
    },
    {
      "inputs": [
        {
          "internalType": "string",
          "name": "_obatIdProduk",
          "type": "string"
        },
        {
          "internalType": "string",
          "name": "_orderId",
          "type": "string"
        },
        {
          "internalType": "string",
          "name": "_namaProduk",
          "type": "string"
        },
        {
          "internalType": "uint8",
          "name": "_orderQuantity",
          "type": "uint8"
        },
        {
          "internalType": "string",
          "name": "_senderInstanceName",
          "type": "string"
        },
        {
          "internalType": "address",
          "name": "_senderInstanceAddr",
          "type": "address"
        },
        {
          "internalType": "string",
          "name": "_targetInstanceName",
          "type": "string"
        }
      ],
      "name": "createOrder",
      "outputs": [],
      "stateMutability": "nonpayable",
      "type": "function"
    },
    {
      "inputs": [
        {
          "internalType": "string",
          "name": "_orderId",
          "type": "string"
        }
      ],
      "name": "getDetailOrderedObat",
      "outputs": [
        {
          "components": [
            {
              "internalType": "string",
              "name": "orderId",
              "type": "string"
            },
            {
              "internalType": "string",
              "name": "namaProduk",
              "type": "string"
            },
            {
              "internalType": "string",
              "name": "obatIdProduk",
              "type": "string"
            },
            {
              "internalType": "string",
              "name": "batchName",
              "type": "string"
            },
            {
              "internalType": "uint8",
              "name": "orderQuantity",
              "type": "uint8"
            },
            {
              "internalType": "string",
              "name": "senderInstanceName",
              "type": "string"
            },
            {
              "internalType": "string",
              "name": "targetInstanceName",
              "type": "string"
            },
            {
              "internalType": "enum OrderManagement.en_orderStatus",
              "name": "statusOrder",
              "type": "uint8"
            },
            {
              "internalType": "uint256",
              "name": "timestampOrder",
              "type": "uint256"
            },
            {
              "internalType": "uint256",
              "name": "timestampShipped",
              "type": "uint256"
            },
            {
              "internalType": "uint256",
              "name": "timestampComplete",
              "type": "uint256"
            },
            {
              "internalType": "string[]",
              "name": "orderObatIpfsHash",
              "type": "string[]"
            }
          ],
          "internalType": "struct OrderManagement.st_orderObat",
          "name": "",
          "type": "tuple"
        }
      ],
      "stateMutability": "view",
      "type": "function"
    },
    {
      "inputs": [
        {
          "internalType": "string",
          "name": "_obatId",
          "type": "string"
        },
        {
          "internalType": "string",
          "name": "_userInstanceName",
          "type": "string"
        }
      ],
      "name": "getDetailPbfObat",
      "outputs": [
        {
          "components": [
            {
              "internalType": "string",
              "name": "orderId",
              "type": "string"
            },
            {
              "internalType": "string",
              "name": "batchName",
              "type": "string"
            },
            {
              "internalType": "string",
              "name": "obatIdProduk",
              "type": "string"
            },
            {
              "internalType": "string",
              "name": "namaProduk",
              "type": "string"
            },
            {
              "internalType": "enum OrderManagement.en_obatAvailability",
              "name": "statusStok",
              "type": "uint8"
            },
            {
              "internalType": "uint8",
              "name": "obatQuantity",
              "type": "uint8"
            },
            {
              "internalType": "string[]",
              "name": "obatIpfsHash",
              "type": "string[]"
            },
            {
              "internalType": "string",
              "name": "ownerInstanceName",
              "type": "string"
            }
          ],
          "internalType": "struct OrderManagement.st_obatPbf",
          "name": "",
          "type": "tuple"
        }
      ],
      "stateMutability": "view",
      "type": "function"
    },
    {
      "inputs": [
        {
          "internalType": "string",
          "name": "_obatId",
          "type": "string"
        },
        {
          "internalType": "string",
          "name": "_userInstanceName",
          "type": "string"
        }
      ],
      "name": "getDetailRetailerObat",
      "outputs": [
        {
          "components": [
            {
              "internalType": "string",
              "name": "orderId",
              "type": "string"
            },
            {
              "internalType": "string",
              "name": "batchName",
              "type": "string"
            },
            {
              "internalType": "string",
              "name": "obatIdProduk",
              "type": "string"
            },
            {
              "internalType": "string",
              "name": "namaProduk",
              "type": "string"
            },
            {
              "internalType": "enum OrderManagement.en_obatAvailability",
              "name": "statusStok",
              "type": "uint8"
            },
            {
              "internalType": "uint8",
              "name": "obatQuantity",
              "type": "uint8"
            },
            {
              "internalType": "string[]",
              "name": "obatIpfsHash",
              "type": "string[]"
            },
            {
              "internalType": "string",
              "name": "ownerInstanceName",
              "type": "string"
            }
          ],
          "internalType": "struct OrderManagement.st_obatRetailer",
          "name": "",
          "type": "tuple"
        }
      ],
      "stateMutability": "view",
      "type": "function"
    },
    {
      "inputs": [
        {
          "internalType": "string",
          "name": "_batchName",
          "type": "string"
        }
      ],
      "name": "getHistoryOrderObatPbf",
      "outputs": [
        {
          "components": [
            {
              "internalType": "string",
              "name": "orderId",
              "type": "string"
            },
            {
              "internalType": "string",
              "name": "namaProduk",
              "type": "string"
            },
            {
              "internalType": "string",
              "name": "obatIdProduk",
              "type": "string"
            },
            {
              "internalType": "string",
              "name": "batchName",
              "type": "string"
            },
            {
              "internalType": "uint8",
              "name": "orderQuantity",
              "type": "uint8"
            },
            {
              "internalType": "string",
              "name": "senderInstanceName",
              "type": "string"
            },
            {
              "internalType": "string",
              "name": "targetInstanceName",
              "type": "string"
            },
            {
              "internalType": "enum OrderManagement.en_orderStatus",
              "name": "statusOrder",
              "type": "uint8"
            },
            {
              "internalType": "uint256",
              "name": "timestampOrder",
              "type": "uint256"
            },
            {
              "internalType": "uint256",
              "name": "timestampShipped",
              "type": "uint256"
            },
            {
              "internalType": "uint256",
              "name": "timestampComplete",
              "type": "uint256"
            },
            {
              "internalType": "string[]",
              "name": "orderObatIpfsHash",
              "type": "string[]"
            }
          ],
          "internalType": "struct OrderManagement.st_orderObat",
          "name": "orderObatPbf",
          "type": "tuple"
        }
      ],
      "stateMutability": "view",
      "type": "function"
    },
    {
      "inputs": [
        {
          "internalType": "string",
          "name": "_batchName",
          "type": "string"
        }
      ],
      "name": "getHistoryOrderObatRetailer",
      "outputs": [
        {
          "components": [
            {
              "internalType": "string",
              "name": "orderId",
              "type": "string"
            },
            {
              "internalType": "string",
              "name": "namaProduk",
              "type": "string"
            },
            {
              "internalType": "string",
              "name": "obatIdProduk",
              "type": "string"
            },
            {
              "internalType": "string",
              "name": "batchName",
              "type": "string"
            },
            {
              "internalType": "uint8",
              "name": "orderQuantity",
              "type": "uint8"
            },
            {
              "internalType": "string",
              "name": "senderInstanceName",
              "type": "string"
            },
            {
              "internalType": "string",
              "name": "targetInstanceName",
              "type": "string"
            },
            {
              "internalType": "enum OrderManagement.en_orderStatus",
              "name": "statusOrder",
              "type": "uint8"
            },
            {
              "internalType": "uint256",
              "name": "timestampOrder",
              "type": "uint256"
            },
            {
              "internalType": "uint256",
              "name": "timestampShipped",
              "type": "uint256"
            },
            {
              "internalType": "uint256",
              "name": "timestampComplete",
              "type": "uint256"
            },
            {
              "internalType": "string[]",
              "name": "orderObatIpfsHash",
              "type": "string[]"
            }
          ],
          "internalType": "struct OrderManagement.st_orderObat",
          "name": "orderObatPbf",
          "type": "tuple"
        },
        {
          "components": [
            {
              "internalType": "string",
              "name": "orderId",
              "type": "string"
            },
            {
              "internalType": "string",
              "name": "namaProduk",
              "type": "string"
            },
            {
              "internalType": "string",
              "name": "obatIdProduk",
              "type": "string"
            },
            {
              "internalType": "string",
              "name": "batchName",
              "type": "string"
            },
            {
              "internalType": "uint8",
              "name": "orderQuantity",
              "type": "uint8"
            },
            {
              "internalType": "string",
              "name": "senderInstanceName",
              "type": "string"
            },
            {
              "internalType": "string",
              "name": "targetInstanceName",
              "type": "string"
            },
            {
              "internalType": "enum OrderManagement.en_orderStatus",
              "name": "statusOrder",
              "type": "uint8"
            },
            {
              "internalType": "uint256",
              "name": "timestampOrder",
              "type": "uint256"
            },
            {
              "internalType": "uint256",
              "name": "timestampShipped",
              "type": "uint256"
            },
            {
              "internalType": "uint256",
              "name": "timestampComplete",
              "type": "uint256"
            },
            {
              "internalType": "string[]",
              "name": "orderObatIpfsHash",
              "type": "string[]"
            }
          ],
          "internalType": "struct OrderManagement.st_orderObat",
          "name": "orderObatRetailer",
          "type": "tuple"
        }
      ],
      "stateMutability": "view",
      "type": "function"
    },
    {
      "inputs": [
        {
          "internalType": "string",
          "name": "_senderInstanceName",
          "type": "string"
        }
      ],
      "name": "getListAllOrderedObatFromSender",
      "outputs": [
        {
          "internalType": "string[]",
          "name": "orderIdArray",
          "type": "string[]"
        },
        {
          "internalType": "string[]",
          "name": "namaProdukArray",
          "type": "string[]"
        },
        {
          "internalType": "uint8[]",
          "name": "statusOrderArray",
          "type": "uint8[]"
        },
        {
          "internalType": "uint8[]",
          "name": "obatQuantityArray",
          "type": "uint8[]"
        },
        {
          "internalType": "string[]",
          "name": "obatIdProdukArray",
          "type": "string[]"
        },
        {
          "internalType": "string[]",
          "name": "batchNameArray",
          "type": "string[]"
        }
      ],
      "stateMutability": "view",
      "type": "function"
    },
    {
      "inputs": [
        {
          "internalType": "string",
          "name": "_targetInstanceName",
          "type": "string"
        }
      ],
      "name": "getListAllOrderedObatFromTarget",
      "outputs": [
        {
          "internalType": "string[]",
          "name": "orderIdArray",
          "type": "string[]"
        },
        {
          "internalType": "string[]",
          "name": "namaProdukArray",
          "type": "string[]"
        },
        {
          "internalType": "uint8[]",
          "name": "statusOrderArray",
          "type": "uint8[]"
        },
        {
          "internalType": "uint8[]",
          "name": "obatQuantityArray",
          "type": "uint8[]"
        },
        {
          "internalType": "string[]",
          "name": "obatIdProdukArray",
          "type": "string[]"
        },
        {
          "internalType": "string[]",
          "name": "batchNameArray",
          "type": "string[]"
        }
      ],
      "stateMutability": "view",
      "type": "function"
    },
    {
      "inputs": [
        {
          "internalType": "string",
          "name": "_instanceName",
          "type": "string"
        }
      ],
      "name": "getListAllReadyObatPbf",
      "outputs": [
        {
          "internalType": "string[]",
          "name": "obatIdProduk",
          "type": "string[]"
        },
        {
          "internalType": "string[]",
          "name": "namaProduk",
          "type": "string[]"
        },
        {
          "internalType": "uint8[]",
          "name": "obatQuantity",
          "type": "uint8[]"
        },
        {
          "internalType": "string[]",
          "name": "batchName",
          "type": "string[]"
        }
      ],
      "stateMutability": "view",
      "type": "function"
    },
    {
      "inputs": [
        {
          "internalType": "string",
          "name": "_instanceName",
          "type": "string"
        }
      ],
      "name": "getListAllReadyObatRetailer",
      "outputs": [
        {
          "internalType": "string[]",
          "name": "obatIdProduk",
          "type": "string[]"
        },
        {
          "internalType": "string[]",
          "name": "namaProduk",
          "type": "string[]"
        },
        {
          "internalType": "uint8[]",
          "name": "obatQuantity",
          "type": "uint8[]"
        },
        {
          "internalType": "string[]",
          "name": "batchName",
          "type": "string[]"
        }
      ],
      "stateMutability": "view",
      "type": "function"
    },
    {
      "inputs": [
        {
          "internalType": "string",
          "name": "",
          "type": "string"
        }
      ],
      "name": "obatPbfByIdProduk",
      "outputs": [
        {
          "internalType": "string",
          "name": "orderId",
          "type": "string"
        },
        {
          "internalType": "string",
          "name": "batchName",
          "type": "string"
        },
        {
          "internalType": "string",
          "name": "obatIdProduk",
          "type": "string"
        },
        {
          "internalType": "string",
          "name": "namaProduk",
          "type": "string"
        },
        {
          "internalType": "enum OrderManagement.en_obatAvailability",
          "name": "statusStok",
          "type": "uint8"
        },
        {
          "internalType": "uint8",
          "name": "obatQuantity",
          "type": "uint8"
        },
        {
          "internalType": "string",
          "name": "ownerInstanceName",
          "type": "string"
        }
      ],
      "stateMutability": "view",
      "type": "function"
    },
    {
      "inputs": [
        {
          "internalType": "string",
          "name": "",
          "type": "string"
        }
      ],
      "name": "obatRetailerByIdProduk",
      "outputs": [
        {
          "internalType": "string",
          "name": "orderId",
          "type": "string"
        },
        {
          "internalType": "string",
          "name": "batchName",
          "type": "string"
        },
        {
          "internalType": "string",
          "name": "obatIdProduk",
          "type": "string"
        },
        {
          "internalType": "string",
          "name": "namaProduk",
          "type": "string"
        },
        {
          "internalType": "enum OrderManagement.en_obatAvailability",
          "name": "statusStok",
          "type": "uint8"
        },
        {
          "internalType": "uint8",
          "name": "obatQuantity",
          "type": "uint8"
        },
        {
          "internalType": "string",
          "name": "ownerInstanceName",
          "type": "string"
        }
      ],
      "stateMutability": "view",
      "type": "function"
    },
    {
      "inputs": [],
      "name": "obatTradisional",
      "outputs": [
        {
          "internalType": "contract ObatTradisional",
          "name": "",
          "type": "address"
        }
      ],
      "stateMutability": "view",
      "type": "function"
    },
    {
      "inputs": [
        {
          "internalType": "string",
          "name": "",
          "type": "string"
        }
      ],
      "name": "orderHistoryPbfRetailerByBatchName",
      "outputs": [
        {
          "internalType": "string",
          "name": "orderIdPbf",
          "type": "string"
        },
        {
          "internalType": "string",
          "name": "orderIdRetailer",
          "type": "string"
        }
      ],
      "stateMutability": "view",
      "type": "function"
    },
    {
      "inputs": [
        {
          "internalType": "string",
          "name": "",
          "type": "string"
        }
      ],
      "name": "orderObatById",
      "outputs": [
        {
          "internalType": "string",
          "name": "orderId",
          "type": "string"
        },
        {
          "internalType": "string",
          "name": "namaProduk",
          "type": "string"
        },
        {
          "internalType": "string",
          "name": "obatIdProduk",
          "type": "string"
        },
        {
          "internalType": "string",
          "name": "batchName",
          "type": "string"
        },
        {
          "internalType": "uint8",
          "name": "orderQuantity",
          "type": "uint8"
        },
        {
          "internalType": "string",
          "name": "senderInstanceName",
          "type": "string"
        },
        {
          "internalType": "string",
          "name": "targetInstanceName",
          "type": "string"
        },
        {
          "internalType": "enum OrderManagement.en_orderStatus",
          "name": "statusOrder",
          "type": "uint8"
        },
        {
          "internalType": "uint256",
          "name": "timestampOrder",
          "type": "uint256"
        },
        {
          "internalType": "uint256",
          "name": "timestampShipped",
          "type": "uint256"
        },
        {
          "internalType": "uint256",
          "name": "timestampComplete",
          "type": "uint256"
        }
      ],
      "stateMutability": "view",
      "type": "function"
    },
    {
      "inputs": [
        {
          "internalType": "string",
          "name": "",
          "type": "string"
        },
        {
          "internalType": "uint256",
          "name": "",
          "type": "uint256"
        }
      ],
      "name": "orderRetailerInstanceAddress",
      "outputs": [
        {
          "internalType": "address",
          "name": "",
          "type": "address"
        }
      ],
      "stateMutability": "view",
      "type": "function"
    },
    {
      "inputs": [
        {
          "internalType": "string",
          "name": "",
          "type": "string"
        },
        {
          "internalType": "uint256",
          "name": "",
          "type": "uint256"
        }
      ],
      "name": "orderSenderInstanceAddress",
      "outputs": [
        {
          "internalType": "address",
          "name": "",
          "type": "address"
        }
      ],
      "stateMutability": "view",
      "type": "function"
    },
    {
      "inputs": [],
      "name": "roleManager",
      "outputs": [
        {
          "internalType": "contract RoleManager",
          "name": "",
          "type": "address"
        }
      ],
      "stateMutability": "view",
      "type": "function"
    }
  ],
  "bytecode": "0x608034608d57601f61507338819003918201601f19168301916001600160401b038311848410176092578084926040948552833981010312608d5760418160a8565b906001600160a01b039060559060200160a8565b1660018060a01b0319600154161760015560018060a01b031660018060a01b03196000541617600055604051614fb790816100bc8239f35b600080fd5b634e487b7160e01b600052604160045260246000fd5b51906001600160a01b0382168203608d5756fe608080604052600436101561001357600080fd5b60003560e01c908162435da5146132d4575080630a04f9c8146132a35780630e59a675146132715780634e09fdbc146131f657806358dd8f821461317a578063722caf6414612f7a57806376ca2b0414612dfa57806386f5cea614612d425780638eaca41d14612cfa5780639836ccb71461220f5780639aa3405014611af55780639cf8b57e14611adb578063aefb977d146116ec578063b1199d1b146116be578063c2d48dca14611516578063d4af6823146114ef578063d5e30e52146111e5578063dbac3f8f14610845578063dfb4936414610814578063e7ca3787146107b4578063ea020d591461078b578063ed7212cd146106dd578063ef470b55146104af5763ffef1f621461012657600080fd5b346104aa5760203660031901126104aa576004356001600160401b0381116104aa57610156903690600401613573565b6004546001546001600160a01b031691600090815b8381106103a2575061017c82614651565b9161018681614651565b9361019961019383614f2f565b92614651565b92600090815b8381106101bb57604051806101b788888c8c85613a08565b0390f35b6040516395a8c58d60e01b8152336004820152600360248201526000906020816044818e5afa908115610397578291610369575b501561034357600661021a610228610206856139e9565b506040519283916020830195869101613aad565b03601f19810183528261339f565b519020604051602081019061025960208288516102488187858d01613464565b81010301601f19810183528261339f565b5190201480610322575b61031a575b610275575b60010161019f565b91610312600191610291600261028a876139e9565b50016133c0565b61029b828b613f2a565b526102a6818a613f2a565b506102b5600361028a876139e9565b6102bf828c613f2a565b526102ca818b613f2a565b5060ff60046102d8876139e9565b50015460081c166102e98289613f2a565b526102f78361028a876139e9565b610301828a613f2a565b5261030c8189613f2a565b50614f0a565b92905061026d565b506001610268565b5060ff6004610330846139e9565b5001541661033d81613739565b15610263565b60ff6004610350846139e9565b5001541661035d81613739565b61026857506001610268565b61038a915060203d8111610390575b610382818361339f565b81019061401d565b386101ef565b503d610378565b6040513d84823e3d90fd5b6040516395a8c58d60e01b8152336004820152600360248201526000906020816044818a5afa90811561039757829161048c575b501561046657600661021a6103ed610206856139e9565b519020604051602081019061040d60208288516102488187858d01613464565b5190201480610445575b61043d575b610429575b60010161016b565b91610435600191614f0a565b929050610421565b50600161041c565b5060ff6004610453846139e9565b5001541661046081613739565b15610417565b60ff6004610473846139e9565b5001541661048081613739565b61041c5750600161041c565b6104a4915060203d811161039057610382818361339f565b386103d6565b600080fd5b346104aa5760203660031901126104aa576004356001600160401b0381116104aa576104df903690600401613573565b6000806002549260208101925b84811061068957506104fd82614651565b9161050781614651565b9361051182614f2f565b61051a83614f2f565b9161052d61052785614651565b94614651565b94600091825b8a811061054f5789896101b78a8a8a8a6040519687968761395d565b600661021a610560610206846132f8565b519020604051602081019061057e602082885161024881878b613464565b5190201461058f575b600101610533565b926105a261059c856132f8565b506133c0565b6105ac828b613f2a565b526105b7818a613f2a565b506105c6600161028a866132f8565b6105d0828c613f2a565b526105db818b613f2a565b5060ff60076105e9866132f8565b500154166003811015610673578161066b9161060760019489613f2a565b5260ff6004610615886132f8565b50015416610623828a613f2a565b52610632600261028a886132f8565b61063c828b613f2a565b52610647818a613f2a565b50610656600361028a886132f8565b610660828c613f2a565b5261030c818b613f2a565b939050610587565b634e487b7160e01b600052602160045260246000fd5b600661021a61069a610206846132f8565b51902060405160208101906106b8602082875161024881878d613464565b519020146106c9575b6001016104ec565b916106d5600191614f0a565b9290506106c1565b346104aa5760203660031901126104aa576004356001600160401b0381116104aa576020610712610725923690600401613573565b8160405193828580945193849201613464565b81016007815203019020610738816133c0565b6101b7610747600184016133c0565b91610754600285016133c0565b93610761600382016133c0565b916107736006600484015493016133c0565b9260405196879660ff808660081c1695169388613743565b346104aa5760003660031901126104aa576000546040516001600160a01b039091168152602090f35b346104aa5760206107dc6107c7366135ba565b92908160405193828580945193849201613464565b8101600981520301902080548210156104aa576020916107fb916135eb565b905460405160039290921b1c6001600160a01b03168152f35b346104aa5760203660031901126104aa576004356004548110156104aa5761083b906139e9565b50610738816133c0565b346104aa5760603660031901126104aa576004356001600160401b0381116104aa57610875903690600401613573565b6024356001600160401b0381116104aa57610894903690600401613573565b906044356001600160401b0381116104aa576108b49036906004016137be565b9060018060a01b0360005416604051632a721ced60e21b815260206004820152600081806108e56024820187613487565b0381855afa90811561119457610927916040916000916111ca575b50015161091f6020604051836102488295518092858086019101613464565b511515613b1b565b604051632a721ced60e21b815260206004820152906000828061094d6024820187613487565b0381845afa918215611194576000926111a0575b5060006004916040519283809263110037fd60e21b82525afa90811561119457600091611173575b5060405193855194602081818901976109a381838b613464565b8101600581520301902093600b85018251600160401b8111610d9a5781548183558082106110f5575b50602084019081926000526020600020916000905b82821061102057505050506003860182516001600160401b038111610d9a57610a1481610a0e845461332d565b84613ee5565b6020601f8211600114610fbc579080610a4392600091610fb1575b508160011b916000199060031b1c19161790565b90555b60078601600160ff19825416179055426009870155600185528260c086015260405197886020818551610a7d818489019e8f613464565b8101600a81520301902081516001600160401b038111610d9a57610aa581610a0e845461332d565b6020601f8211600114610f4d579080610ad392600091610f4257508160011b916000199060031b1c19161790565b90555b60006001610af160208c604051809381928a51928391613464565b8101600a81520301902001610b06815461332d565b601f8111610f23575b505560005b600254811015610f1557610b27816132f8565b50604051610b3d8161021a602082018095613aad565b5190206102488a610b5e602060405180938282019586918a51928391613464565b51902014610b6e57600101610b14565b9293949596975050600b610b81836132f8565b500190845190600160401b8211610d9a578254828455808310610e97575b50916000526020600020916000905b828210610db057505050506003610bc4826132f8565b500182516001600160401b038111610d9a57610be481610a0e845461332d565b6020601f8211600114610d315781610c37949392610c1792600091610d2657508160011b916000199060031b1c19161790565b90555b6007610c25826132f8565b5001805460ff191660011790556132f8565b506009429101555b60005b8351811015610d09576020610c578286613f2a565b510151604051610c77602082816102488183019687815193849201613464565b519020610248604051610c976020828c8282019586918a51928391613464565b51902014610ca757600101610c42565b600080516020614f628339815191529650610cd891508360019360c0610cd08460209998613f2a565b510152613f2a565b51525b0151610d0460ff6004840154169260405193849342926005810191600160068301920187613fc1565b0390a1005b50505050600080516020614f628339815191529250602090610cdb565b90508601518c610a2f565b601f1982169083600052806000209160005b818110610d825750918391610c3796959460019410610d69575b5050811b019055610c1a565b87015160001960f88460031b161c191690558b80610d5d565b9192602060018192868b015181550194019201610d43565b634e487b7160e01b600052604160045260246000fd5b80518051906001600160401b038211610d9a57610dd782610dd1885461332d565b88613ee5565b602090601f8311600114610e2a5792610e1083600195946020948796600092610e1f575b50508160011b916000199060031b1c19161790565b87555b01940191019092610bae565b015190503880610dfb565b90601f1983169187600052816000209260005b818110610e7f5750936020936001969387969383889510610e66575b505050811b018755610e13565b015160001960f88460031b161c19169055388080610e59565b92936020600181928786015181550195019301610e3d565b8360005282602060002091820191015b818110610eb45750610b9f565b80610ec16001925461332d565b80610ece575b5001610ea7565b601f81118314610ee45750600081555b8d610ec7565b610f02908260005283601f6020600020920160051c82019101613ece565b8060005260006020812081835555610ede565b505050909192939450610c3f565b81835260208320610f3c91601f0160051c810190613ece565b8b610b0f565b90508401518d610a2f565b601f1982169083600052806000209160005b818110610f9957509083600194939210610f80575b5050811b019055610ad6565b85015160001960f88460031b161c191690558c80610f74565b9192602060018192868a015181550194019201610f5f565b90508501518c610a2f565b601f1982169083600052806000209160005b81811061100857509083600194939210610fef575b5050811b019055610a46565b86015160001960f88460031b161c191690558b80610fe3565b9192602060018192868b015181550194019201610fce565b80518051906001600160401b038211610d9a5761104182610dd1885461332d565b602090601f8311600114611088579261107983600195946020948796600092610e1f5750508160011b916000199060031b1c19161790565b87555b019401910190926109e1565b90601f1983169187600052816000209260005b8181106110dd57509360209360019693879693838895106110c4575b505050811b01875561107c565b015160001960f88460031b161c191690553880806110b7565b9293602060018192878601518155019501930161109b565b8260005281602060002091820191015b81811061111257506109cc565b8061111f6001925461332d565b8061112c575b5001611105565b601f811183146111425750600081555b8c611125565b611160908260005283601f6020600020920160051c82019101613ece565b806000526000602081208183555561113c565b61118e913d8091833e611186818361339f565b810190613e34565b85610989565b6040513d6000823e3d90fd5b60049192506111c26000913d8084833e6111ba818361339f565b810190613e0f565b929150610961565b6111df91503d806000833e6111ba818361339f565b87610900565b346104aa5760203660031901126104aa576004356001600160401b0381116104aa57611215903690600401613573565b6003546001546001600160a01b031691600090815b8381106113e7575061123b82614651565b9161124581614651565b9361125261019383614f2f565b92600090815b83811061127057604051806101b788888c8c85613a08565b6040516395a8c58d60e01b8152336004820152600160248201526000906020816044818e5afa9081156103975782916113c9575b50156113a357600661021a6112bb610206856139ca565b51902060405160208101906112db60208288516102488187858d01613464565b5190201480611382575b61137a575b6112f7575b600101611258565b9161137260019161130c600261028a876139ca565b611316828b613f2a565b52611321818a613f2a565b50611330600361028a876139ca565b61133a828c613f2a565b52611345818b613f2a565b5060ff6004611353876139ca565b50015460081c166113648289613f2a565b526102f78361028a876139ca565b9290506112ef565b5060016112ea565b5060ff6004611390846139ca565b5001541661139d81613739565b156112e5565b60ff60046113b0846139ca565b500154166113bd81613739565b6112ea575060016112ea565b6113e1915060203d811161039057610382818361339f565b8b6112a4565b6040516395a8c58d60e01b8152336004820152600160248201526000906020816044818a5afa9081156103975782916114d1575b50156114ab57600661021a611432610206856139ca565b519020604051602081019061145260208288516102488187858d01613464565b519020148061148a575b611482575b61146e575b60010161122a565b9161147a600191614f0a565b929050611466565b506001611461565b5060ff6004611498846139ca565b500154166114a581613739565b1561145c565b60ff60046114b8846139ca565b500154166114c581613739565b61146157506001611461565b6114e9915060203d811161039057610382818361339f565b8761141b565b346104aa5760203660031901126104aa576004356003548110156104aa5761083b906139ca565b346104aa5760203660031901126104aa576004356001600160401b0381116104aa57611546903690600401613573565b6000806002549260208101925b84811061166a575061156482614651565b9161156e81614651565b9361157882614f2f565b61158183614f2f565b9161158e61052785614651565b94600091825b8a81106115b05789896101b78a8a8a8a6040519687968761395d565b600561021a6115c1610206846132f8565b51902060405160208101906115df602082885161024881878b613464565b519020146115f0575b600101611594565b926115fd61059c856132f8565b611607828b613f2a565b52611612818a613f2a565b50611621600161028a866132f8565b61162b828c613f2a565b52611636818b613f2a565b5060ff6007611644866132f8565b50015416600381101561067357816116629161060760019489613f2a565b9390506115e8565b600561021a61167b610206846132f8565b5190206040516020810190611699602082875161024881878d613464565b519020146116aa575b600101611553565b916116b6600191614f0a565b9290506116a2565b346104aa576101b76116d86116d23661383c565b90614e2c565b604051918291602083526020830190613886565b346104aa5760e03660031901126104aa576004356001600160401b0381116104aa5761171c903690600401613573565b6024356001600160401b0381116104aa5761173b903690600401613573565b6044356001600160401b0381116104aa5761175a903690600401613573565b6064359260ff84168094036104aa576084356001600160401b0381116104aa57611788903690600401613573565b60a4356001600160a01b0381169291908390036104aa5760c4356001600160401b0381116104aa576117be903690600401613573565b916117c7613a50565b600180546040516395a8c58d60e01b815233600482015260248101929092529192916001600160a01b031690602081604481855afa90811561119457600091611abc575b50156119ca5750905061181c61461d565b6040519161182983613367565b878352866020840152604083015260405161184560208261339f565b6000815260608301528760808301528260a08301528360c0830152600060e083015242610100830152600061012083015260006101408301526101608201525b600254600160401b811015610d9a578060016118a492016002556132f8565b9190916119b4576118b8816118de93614794565b604051602081816118cf8b83815193849201613464565b81016005815203019020614794565b60405160208183516118f38183858801613464565b81016008815203019020908154600160401b811015610d9a577f292bbb6d1836d1c84f14bc8632586c9cdc3b938748d1a94348313ce41a2951999761197a976119a99661194c8461199b97600161198d970181556135eb565b819291549060031b91821b9160018060a01b03901b191617905560405198899860c08a5260c08a0190613487565b9160208901528782036040890152613487565b908582036060870152613487565b908382036080850152613487565b4260a08301520390a1005b634e487b7160e01b600052600060045260246000fd5b6040516395a8c58d60e01b81523360048201526003602482015290602090829060449082905afa90811561119457600091611a9d575b50611a0c575b50611885565b905060016040516020818451611a258183858901613464565b8101600681520301902001611a5c611a3b61461d565b9160405193611a4985613367565b89855288602086015260408501526133c0565b60608301528760808301528260a08301528360c0830152600060e0830152426101008301526000610120830152600061014083015261016082015287611a06565b611ab6915060203d60201161039057610382818361339f565b89611a00565b611ad5915060203d60201161039057610382818361339f565b8a61180b565b346104aa576101b76116d8611aef3661383c565b9061469b565b346104aa5760403660031901126104aa576004356001600160401b0381116104aa57611b25903690600401613573565b6024356001600160401b0381116104aa57611b449036906004016137be565b60405190611b8061021a61091f85519460208181890197611b6681838b613464565b810160058152030190206040519283916020830190613aad565b6040516020818551611b93818388613464565b810160058152030190209260078401600260ff1982541617905542600a850155600b84018251600160401b8111610d9a578154818355808210612191575b50602084019081926000526020600020916000905b8282106120b1575050505060005b6002548110156120a757611c07816132f8565b50604051611c1d8161021a602082018095613aad565b5190206040516020810190611c3d602082846102488c8b51928391613464565b51902014611c4d57600101611bf4565b600b9192939450806007611c63611c85936132f8565b5001805460ff19166002179055611c79816132f8565b50600a429101556132f8565b500190835190600160401b8211610d9a578254828455808310612029575b50916000526020600020916000905b828210611f4957505050505b600180546040516395a8c58d60e01b815233600482015260248101929092526001600160a01b031690602081604481855afa90811561119457600091611f2a575b5015611e4a5750611da290611d93602060ff600487015416604051958694611d2686613383565b8552611d34600389016133c0565b83860152611d44600289016133c0565b9160408601928352611d5860018a016133c0565b60608701526000608087015260a086015260c0850152611d7a600588016133c0565b60e0850152518160405193828580945193849201613464565b81016006815203019020614035565b60035491600160401b831015610d9a57611dde611e3992611dd8856001600080516020614f6283398151915297016003556139ca565b906145d0565b60ff60048201541660405192839260c084526005611e2a611e19611e0860c0880160018601613f3e565b878103602089015260038501613f3e565b868103604088015260068401613f3e565b91858303606087015201613f3e565b9060808301524260a08301520390a1005b6040516395a8c58d60e01b81523360048201526003602482015290602090829060449082905afa90811561119457600091611f0b575b50611ea0575b5050611e39600080516020614f6283398151915291611dde565b611ecf90611ec0602060ff600487015416604051958694611d2686613383565b81016007815203019020614035565b60045491600160401b831015610d9a57611f05611e3992611dd8856001600080516020614f6283398151915297016004556139e9565b91611e86565b611f24915060203d60201161039057610382818361339f565b84611e80565b611f43915060203d60201161039057610382818361339f565b85611cff565b80518051906001600160401b038211610d9a57611f6a82610dd1885461332d565b602090601f8311600114611fbc5792611fa283600195946020948796600092611fb15750508160011b916000199060031b1c19161790565b87555b01940191019092611cb2565b015190508d80610dfb565b90601f1983169187600052816000209260005b8181106120115750936020936001969387969383889510611ff8575b505050811b018755611fa5565b015160001960f88460031b161c191690558c8080611feb565b92936020600181928786015181550195019301611fcf565b8360005282602060002091820191015b8181106120465750611ca3565b806120536001925461332d565b80612060575b5001612039565b601f811183146120765750600081555b89612059565b612094908260005283601f6020600020920160051c82019101613ece565b8060005260006020812081835555612070565b5050909150611cbe565b80518051906001600160401b038211610d9a576120d282610dd1885461332d565b602090601f8311600114612124579261210a836001959460209487966000926121195750508160011b916000199060031b1c19161790565b87555b01940191019092611be6565b015190508f80610dfb565b90601f1983169187600052816000209260005b8181106121795750936020936001969387969383889510612160575b505050811b01875561210d565b015160001960f88460031b161c191690558e8080612153565b92936020600181928786015181550195019301612137565b8260005281602060002091820191015b8181106121ae5750611bd1565b806121bb6001925461332d565b806121c8575b50016121a1565b601f811183146121de5750600081555b896121c1565b6121fc908260005283601f6020600020920160051c82019101613ece565b80600052600060208120818355556121d8565b346104aa5760803660031901126104aa576004356001600160401b0381116104aa5761223f903690600401613573565b6024356001600160401b0381116104aa5761225e903690600401613573565b6044356001600160401b0381116104aa5761227d903690600401613573565b6064356001600160401b0381116104aa5761021a61091f60026122c060206122ac6122db9636906004016137be565b968160405193828580945193849201613464565b81016006815203019020016040519283916020830190613aad565b60405191612306815193602081818501966122f781838a613464565b81016006815203019020613bcb565b604051602081845161231981838a613464565b810160058152030190209060018060a01b03600054169360405196632a721ced60e21b885260206004890152600088806123566024820185613487565b0381895afa95861561119457600498600097612cdb575b50600090604051998a809263110037fd60e21b82525afa97881561119457600098612cbe575b50600b8401958251600160401b8111610d9a578754818955808210612c40575b50602084019081986000526020600020916000905b828210612b6b57505050506003850182516001600160401b038111610d9a576123f581610a0e845461332d565b6020601f8211600114612b0757908061242392600091612afc57508160011b916000199060031b1c19161790565b90555b60078501600160ff198254161790554260098601558260c08086019282845260016080880152015260405195600187602081865161246881848a019d8e613464565b8101600a8152030190200181516001600160401b038111610d9a5761249181610a0e845461332d565b6020601f8211600114612a985790806124bf92600091612a8d57508160011b916000199060031b1c19161790565b90555b60005b600254811015612a7e576124d8816132f8565b506040516124ee8161021a602082018095613aad565b5190206102488b61250f602060405180938282019586918a51928391613464565b5190201461251f576001016124c5565b92939495969798505051600b612534836132f8565b500190805190600160401b8211610d9a578254828455808310612a00575b50602001916000526020600020916000905b82821061292b5750505050600361257a826132f8565b500182516001600160401b038111610d9a5761259a81610a0e845461332d565b6020601f82116001146128c357816125cd949392610c17926000916128b857508160011b916000199060031b1c19161790565b506009429101555b60005b6003548110156128ac57600161021a6125f3610206846139ca565b5190206040516020810190612613602082846102488d8a51928391613464565b51902014612623576001016125d8565b9091929394956005612634836139ca565b500190845190600160401b8211610d9a57825482845580831061282e575b50916000526020600020916000905b82821061275957505050506126776004916139ca565b5001805460ff191660011790555b60005b865181101561273b57602061269d8289613f2a565b5101516040516126bd602082816102488183019687815193849201613464565b51902060405160208101906126dd602082846102488d8a51928391613464565b519020146126ed57600101612688565b602094955060c0915061270f90600080516020614f6283398151915297613f2a565b5101520151610d0460ff6004840154169260405193849342926005810191600160068301920187613fc1565b505050600080516020614f6283398151915293506020919250610cdb565b80518051906001600160401b038211610d9a5761277a82610dd1885461332d565b602090601f83116001146127c157926127b283600195946020948796600092610e1f5750508160011b916000199060031b1c19161790565b87555b01940191019092612661565b90601f1983169187600052816000209260005b81811061281657509360209360019693879693838895106127fd575b505050811b0187556127b5565b015160001960f88460031b161c191690553880806127f0565b929360206001819287860151815501950193016127d4565b8360005282602060002091820191015b81811061284b5750612652565b806128586001925461332d565b80612865575b500161283e565b601f8111831461287b5750600081555b8d61285e565b612899908260005283601f6020600020920160051c82019101613ece565b8060005260006020812081835555612875565b50909192939450612685565b90508601518d610a2f565b601f1982169083600052806000209160005b81811061291357509183916125cd969594600194106128fa575050811b019055610c1a565b87015160001960f88460031b161c191690558c80610d5d565b9192602060018192868b0151815501940192016128d5565b80518051906001600160401b038211610d9a5761294c82610dd1885461332d565b602090601f8311600114612993579261298483600195946020948796600092610e1f5750508160011b916000199060031b1c19161790565b87555b01940191019092612564565b90601f1983169187600052816000209260005b8181106129e857509360209360019693879693838895106129cf575b505050811b018755612987565b015160001960f88460031b161c191690553880806129c2565b929360206001819287860151815501950193016129a6565b8360005282602060002091820191015b818110612a1d5750612552565b80612a2a6001925461332d565b80612a37575b5001612a10565b601f81118314612a4d5750600081555b8e612a30565b612a6b908260005283601f6020600020920160051c82019101613ece565b8060005260006020812081835555612a47565b505050909192939495506125d5565b90508401518e610a2f565b601f1982169083600052806000209160005b818110612ae457509083600194939210612acb575b5050811b0190556124c2565b85015160001960f88460031b161c191690558d80612abf565b9192602060018192868a015181550194019201612aaa565b90508501518d610a2f565b601f1982169083600052806000209160005b818110612b5357509083600194939210612b3a575b5050811b019055612426565b86015160001960f88460031b161c191690558c80612b2e565b9192602060018192868b015181550194019201612b19565b80518051906001600160401b038211610d9a57612b8c82610dd1885461332d565b602090601f8311600114612bd35792612bc483600195946020948796600092610e1f5750508160011b916000199060031b1c19161790565b87555b019401910190926123c8565b90601f1983169187600052816000209260005b818110612c285750936020936001969387969383889510612c0f575b505050811b018755612bc7565b015160001960f88460031b161c19169055388080612c02565b92936020600181928786015181550195019301612be6565b8860005281602060002091820191015b818110612c5d57506123b3565b80612c6a6001925461332d565b80612c77575b5001612c50565b601f81118314612c8d5750600081555b8d612c70565b612cab908260005283601f6020600020920160051c82019101613ece565b8060005260006020812081835555612c87565b612cd49198503d806000833e611186818361339f565b9688612393565b6000919750612cf3903d8084833e6111ba818361339f565b969061236d565b346104aa5760203660031901126104aa576004356001600160401b0381116104aa576020610712612d2f923690600401613573565b81016006815203019020610738816133c0565b346104aa5760203660031901126104aa576004356001600160401b0381116104aa576020610712612d77923690600401613573565b81016005815203019020612d8a816133c0565b6101b7612d99600184016133c0565b92612da6600282016133c0565b90612db3600382016133c0565b60ff600483015416612dc7600584016133c0565b612dd3600685016133c0565b9060ff60078601541692600886015494600a6009880154970154976040519b8c9b8c6134b9565b346104aa5760203660031901126104aa576004356001600160401b0381116104aa57612e9c6020610712612e8d82612e396101b7963690600401613573565b612e41613a50565b5060405190612e7c61021a61091f835194868181870197612e6381838b613464565b8101600a81520301902060405192839188830190613aad565b604051938492839251928391613464565b8101600a8152030190206133c0565b81016005815203019020612f60600b60405192612eb884613367565b612ec1816133c0565b8452612ecf600182016133c0565b6020850152612ee0600282016133c0565b6040850152612ef1600382016133c0565b606085015260ff6004820154166080850152612f0f600582016133c0565b60a0850152612f20600682016133c0565b60c0850152612f3960ff60078301541660e08601613b67565b60088101546101008501526009810154610120850152600a81015461014085015201613b73565b61016082015260405191829160208352602083019061365c565b346104aa5760203660031901126104aa576004356001600160401b0381116104aa57612fad61316c913690600401613573565b612fb5613a50565b50612fbe613a50565b506101b76131366020613059816130456001613035838961300d61021a61091f6040518581818751970196612ff481838a613464565b8101600a81520301902060405192839187830190613aad565b6130238b83604051809251612e8d818388613464565b9a604051938492839251928391613464565b8101600a815203019020016133c0565b958160405193828580945193849201613464565b810160058152030190209361311d600b6040519661307688613367565b61307f816133c0565b885261308d600182016133c0565b8589015261309d600282016133c0565b60408901526130ae600382016133c0565b606089015260ff60048201541660808901526130cc600582016133c0565b60a08901526130dd600682016133c0565b60c08901526130f660ff60078301541660e08a01613b67565b60088101546101008901526009810154610120890152600a81015461014089015201613b73565b6101608601528160405193828580945193849201613464565b81016005815203019020613152600b60405192612eb884613367565b61016082015260405193849360408552604085019061365c565b90838203602085015261365c565b346104aa5760203660031901126104aa576004356001600160401b0381116104aa576131b260206107126131e8933690600401613573565b8101600a8152030190206101b76131d460016131cd846133c0565b93016133c0565b604051938493604085526040850190613487565b908382036020850152613487565b346104aa5760203660031901126104aa576004356001600160401b0381116104aa57612e9c602061322e6101b7933690600401613573565b613236613a50565b5060405190612e7c61021a61091f83519486818187019761325881838b613464565b8101600581520301902060405192839188830190613aad565b346104aa5760206132846107c7366135ba565b8101600881520301902080548210156104aa576020916107fb916135eb565b346104aa5760203660031901126104aa576004356002548110156104aa576132ca906132f8565b50612d8a816133c0565b346104aa5760003660031901126104aa576001546001600160a01b03168152602090f35b600254811015613317576002600052600c602060002091020190600090565b634e487b7160e01b600052603260045260246000fd5b90600182811c9216801561335d575b602083101461334757565b634e487b7160e01b600052602260045260246000fd5b91607f169161333c565b61018081019081106001600160401b03821117610d9a57604052565b61010081019081106001600160401b03821117610d9a57604052565b90601f801991011681019081106001600160401b03821117610d9a57604052565b90604051918260008254926133d48461332d565b808452936001811690811561344257506001146133fb575b506133f99250038361339f565b565b90506000929192526020600020906000915b8183106134265750509060206133f992820101386133ec565b602091935080600191548385890101520191019091849261340d565b9050602092506133f994915060ff191682840152151560051b820101386133ec565b60005b8381106134775750506000910152565b8181015183820152602001613467565b906020916134a081518092818552858086019101613464565b601f01601f1916010190565b9060038210156106735752565b979b9a9996929560ff61351b61353d9661350d8c6101409e9b6134ff61352f996134f16135489e9a6101608652610160860190613487565b908482036020860152613487565b916040818403910152613487565b8c810360608e015290613487565b921660808a015288820360a08a0152613487565b9086820360c0880152613487565b9760e08501906134ac565b6101008301526101208201520152565b6001600160401b038111610d9a57601f01601f191660200190565b81601f820112156104aa5780359061358a82613558565b92613598604051948561339f565b828452602083830101116104aa57816000926020809301838601378301015290565b60406003198201126104aa57600435906001600160401b0382116104aa576135e491600401613573565b9060243590565b80548210156133175760005260206000200190600090565b9080602083519182815201916020808360051b8301019401926000915b83831061362f57505050505090565b909192939460208061364d600193601f198682030187528951613487565b97019301930191939290613620565b613736916101606136ee6136dc6136bd6136ab61369961368788516101808952610180890190613487565b602089015188820360208a0152613487565b60408801518782036040890152613487565b60608701518682036060880152613487565b60ff608087015116608086015260a086015185820360a0870152613487565b60c085015184820360c0860152613487565b9261370160e082015160e08501906134ac565b610100810151610100840152610120810151610120840152610140810151610140840152015190610160818403910152613603565b90565b6002111561067357565b9361198d60ff946137776137369a9899956137696137859660e08b5260e08b0190613487565b9089820360208b0152613487565b908782036040890152613487565b9461378f81613739565b60808401521660a082015260c0818403910152613487565b6001600160401b038111610d9a5760051b60200190565b9080601f830112156104aa5781356137d5816137a7565b926137e3604051948561339f565b81845260208085019260051b820101918383116104aa5760208201905b83821061380f57505050505090565b81356001600160401b0381116104aa5760209161383187848094880101613573565b815201910190613800565b9060406003198301126104aa576004356001600160401b0381116104aa578261386791600401613573565b91602435906001600160401b0382116104aa5761373691600401613573565b6137369160e06139156138e36138d16138bf6138ad87516101008852610100880190613487565b60208801518782036020890152613487565b60408701518682036040880152613487565b60608601518582036060870152613487565b60808501516138f181613739565b608085015260ff60a08601511660a085015260c085015184820360c0860152613603565b9201519060e0818403910152613487565b906020808351928381520192019060005b8181106139445750505090565b825160ff16845260209384019390920191600101613937565b9491936139a06139bc9461399261373699976139846139ae9660c08c5260c08c0190613603565b908a820360208c0152613603565b9088820360408a0152613926565b908682036060880152613926565b908482036080860152613603565b9160a0818403910152613603565b6003548110156133175760036000526007602060002091020190600090565b6004548110156133175760046000526007602060002091020190600090565b92613a346137369593613a26613a4294608088526080880190613603565b908682036020880152613603565b908482036040860152613926565b916060818403910152613603565b60405190613a5d82613367565b6060610160838281528260208201528260408201528280820152600060808201528260a08201528260c0820152600060e08201526000610100820152600061012082015260006101408201520152565b60009291815491613abd8361332d565b9260018116908115613b085750600114613ad657505050565b909192935060005260206000206000905b838210613af45750500190565b600181602092548486015201910190613ae7565b60ff191683525050811515909102019150565b15613b2257565b60405162461bcd60e51b815260206004820152601b60248201527f4e6f206461746120666f756e64207769746820746869732049442e00000000006044820152606490fd5b60038210156106735752565b908154613b7f816137a7565b92613b8d604051948561339f565b818452602084019060005260206000206000915b838310613bae5750505050565b600160208192613bbd856133c0565b815201920192019190613ba1565b90604051613bd881613383565b60e0613c5760068395613bea816133c0565b8552613bf8600182016133c0565b6020860152613c09600282016133c0565b6040860152613c1a600382016133c0565b606086015260ff6004820154818116613c3281613739565b608088015260081c1660a0860152613c4c60058201613b73565b60c0860152016133c0565b910152565b81601f820112156104aa578051613c7281613558565b92613c80604051948561339f565b818452602082840101116104aa576137369160208085019101613464565b919060e0838203126104aa5760405160e081018181106001600160401b03821117610d9a576040528093805160028110156104aa57825260208101516001600160401b0381116104aa5783613cf4918301613c5c565b602083015260408101516001600160401b0381116104aa5783613d18918301613c5c565b604083015260608101516001600160401b0381116104aa5783613d3c918301613c5c565b6060830152608081015160ff811681036104aa57608083015260a08101516001600160401b0381116104aa5783613d74918301613c5c565b60a083015260c0810151906001600160401b0382116104aa57019180601f840112156104aa578251613da5816137a7565b93613db3604051958661339f565b81855260208086019260051b820101918383116104aa5760208201905b838210613de257505050505060c00152565b81516001600160401b0381116104aa57602091613e0487848094880101613c5c565b815201910190613dd0565b906020828203126104aa5781516001600160401b0381116104aa576137369201613c9e565b6020818303126104aa578051906001600160401b0382116104aa57019080601f830112156104aa578151613e67816137a7565b92613e75604051948561339f565b81845260208085019260051b820101918383116104aa5760208201905b838210613ea157505050505090565b81516001600160401b0381116104aa57602091613ec387848094880101613c9e565b815201910190613e92565b818110613ed9575050565b60008155600101613ece565b9190601f8111613ef457505050565b6133f9926000526020600020906020601f840160051c83019310613f20575b601f0160051c0190613ece565b9091508190613f13565b80518210156133175760209160051b010190565b60009291815491613f4e8361332d565b8083529260018116908115613fa45750600114613f6a57505050565b60009081526020812093945091925b838310613f8a575060209250010190565b600181602092949394548385870101520191019190613f79565b915050602093945060ff929192191683830152151560051b010190565b929361400460a095613ff660ff95613fe8614012969c9b9a9c60c08a5260c08a0190613f3e565b9088820360208a0152613487565b908682036040880152613f3e565b908482036060860152613f3e565b951660808201520152565b908160209103126104aa575180151581036104aa5790565b9181519283516001600160401b038111610d9a5761405781610a0e845461332d565b602094601f821160011461456b5761408a929394958291600092610e1f5750508160011b916000199060031b1c19161790565b81555b6001810160208401518051906001600160401b038211610d9a576140bb826140b5855461332d565b85613ee5565b602090601f8311600114614504576140eb929160009183610e1f5750508160011b916000199060031b1c19161790565b90555b6002810160408401518051906001600160401b038211610d9a57614116826140b5855461332d565b602090601f831160011461449d57614146929160009183610e1f5750508160011b916000199060031b1c19161790565b90555b6003810160608401518051906001600160401b038211610d9a57614171826140b5855461332d565b602090601f8311600114614436576141a1929160009183610e1f5750508160011b916000199060031b1c19161790565b90555b6004810160808401516141b681613739565b6141bf81613739565b60ff8019835416911617815560a084015161ff0082549160081b169061ff0019161790556005810160c0840151805190600160401b8211610d9a5782548284558083106143b8575b50602001916000526020600020916000905b8282106142e35750505050600660e091019201519182516001600160401b038111610d9a5761424c81610a0e845461332d565b6020601f821160011461428157819061427d939495600092610e1f5750508160011b916000199060031b1c19161790565b9055565b601f1982169083600052806000209160005b8181106142cb575095836001959697106142b2575b505050811b019055565b015160001960f88460031b161c191690553880806142a8565b9192602060018192868b015181550194019201614293565b80518051906001600160401b038211610d9a5761430482610dd1885461332d565b602090601f831160011461434b579261433c83600195946020948796600092610e1f5750508160011b916000199060031b1c19161790565b87555b01940191019092614219565b90601f1983169187600052816000209260005b8181106143a05750936020936001969387969383889510614387575b505050811b01875561433f565b015160001960f88460031b161c1916905538808061437a565b9293602060018192878601518155019501930161435e565b8360005282602060002091820191015b8181106143d55750614207565b806143e26001925461332d565b806143ef575b50016143c8565b601f811183146144055750600081555b386143e8565b614423908260005283601f6020600020920160051c82019101613ece565b80600052600060208120818355556143ff565b90601f1983169184600052816000209260005b818110614485575090846001959493921061446c575b505050811b0190556141a4565b015160001960f88460031b161c1916905538808061445f565b92936020600181928786015181550195019301614449565b90601f1983169184600052816000209260005b8181106144ec57509084600195949392106144d3575b505050811b019055614149565b015160001960f88460031b161c191690553880806144c6565b929360206001819287860151815501950193016144b0565b90601f1983169184600052816000209260005b818110614553575090846001959493921061453a575b505050811b0190556140ee565b015160001960f88460031b161c1916905538808061452d565b92936020600181928786015181550195019301614517565b601f1982169583600052806000209160005b8881106145b85750836001959697981061459f575b505050811b01815561408d565b015160001960f88460031b161c19169055388080614592565b9192602060018192868501518155019401920161457d565b91906119b4576133f991614035565b604051906145ec82613383565b606060e083828152826020820152826040820152828082015260006080820152600060a08201528260c08201520152565b6040519061462c60208361339f565b600080835282815b82811061464057505050565b806060602080938501015201614634565b9061465b826137a7565b614668604051918261339f565b8281528092614679601f19916137a7565b019060005b82811061468a57505050565b80606060208093850101520161467e565b6146a36145df565b50604051916146dd6146d66002845195602081818801986146c581838c613464565b81016006815203019020015461332d565b1515613b1b565b600660405160208185516146f281838a613464565b810184815203019020016040516147118161021a602082018095613aad565b51902090604051614732602082816102488183019687815193849201613464565b51902003614755576020613736926122f792604051938492839251928391613464565b6020614770926122f792604051938492839251928391613464565b60405161477e60208261339f565b60008152815261478c61461d565b60c082015290565b91909182519283516001600160401b038111610d9a576147b8816140b5855461332d565b602094601f8211600114614dc7576147eb929394958291600092610e1f5750508160011b916000199060031b1c19161790565b82555b6001820160208201518051906001600160401b038211610d9a57614816826140b5855461332d565b602090601f8311600114614d6057614846929160009183610e1f5750508160011b916000199060031b1c19161790565b90555b6002820160408201518051906001600160401b038211610d9a57614871826140b5855461332d565b602090601f8311600114614cf9576148a1929160009183610e1f5750508160011b916000199060031b1c19161790565b90555b6003820160608201518051906001600160401b038211610d9a576148cc826140b5855461332d565b602090601f8311600114614c92576148fc929160009183610e1f5750508160011b916000199060031b1c19161790565b90555b6004820160ff60808301511660ff198254161790556005820160a08201518051906001600160401b038211610d9a5761493c826140b5855461332d565b602090601f8311600114614c2b5761496c929160009183610e1f5750508160011b916000199060031b1c19161790565b90555b6006820160c08201518051906001600160401b038211610d9a57614997826140b5855461332d565b602090601f8311600114614bc4576149c7929160009183610e1f5750508160011b916000199060031b1c19161790565b90555b60e0810151916007810160038410156106735761016091600b9160009560ff8019835416911617905561010084015160088201556101208401516009820155610140840151600a8201550191015190815191600160401b8311614bb0578154838355808410614b3a575b506020019083526020832083915b838310614a50575050505050565b80518051906001600160401b038211614b2657614a7782614a71865461332d565b86613ee5565b602090601f8311600114614abd5792614aae836001959460209487968c92610e1f5750508160011b916000199060031b1c19161790565b85555b01920192019190614a42565b8488528188209190601f198416895b818110614b0e5750936020936001969387969383889510614af5575b505050811b018555614ab1565b015160001960f88460031b161c19169055388080614ae8565b92936020600181928786015181550195019301614acc565b634e487b7160e01b87526041600452602487fd5b828552836020862091820191015b818110614b555750614a34565b80614b626001925461332d565b80614b6f575b5001614b48565b601f81118314614b8457508681555b38614b68565b81885260208820614b9f91601f0160051c8101908401613ece565b808752866020812081835555614b7e565b634e487b7160e01b84526041600452602484fd5b90601f1983169184600052816000209260005b818110614c135750908460019594939210614bfa575b505050811b0190556149ca565b015160001960f88460031b161c19169055388080614bed565b92936020600181928786015181550195019301614bd7565b90601f1983169184600052816000209260005b818110614c7a5750908460019594939210614c61575b505050811b01905561496f565b015160001960f88460031b161c19169055388080614c54565b92936020600181928786015181550195019301614c3e565b90601f1983169184600052816000209260005b818110614ce15750908460019594939210614cc8575b505050811b0190556148ff565b015160001960f88460031b161c19169055388080614cbb565b92936020600181928786015181550195019301614ca5565b90601f1983169184600052816000209260005b818110614d485750908460019594939210614d2f575b505050811b0190556148a4565b015160001960f88460031b161c19169055388080614d22565b92936020600181928786015181550195019301614d0c565b90601f1983169184600052816000209260005b818110614daf5750908460019594939210614d96575b505050811b019055614849565b015160001960f88460031b161c19169055388080614d89565b92936020600181928786015181550195019301614d73565b601f1982169584600052806000209160005b888110614e1457508360019596979810614dfb575b505050811b0182556147ee565b015160001960f88460031b161c19169055388080614dee565b91926020600181928685015181550194019201614dd9565b614e346145df565b5060405191614e676146d6600284519560208181880198614e5681838c613464565b81016007815203019020015461332d565b60066040516020818551614e7c81838a613464565b8101600781520301902001604051614e9c8161021a602082018095613aad565b51902090604051614ebd602082816102488183019687815193849201613464565b51902003614eef57602061373692614ee092604051938492839251928391613464565b81016007815203019020613bcb565b602061477092614ee092604051938492839251928391613464565b6000198114614f195760010190565b634e487b7160e01b600052601160045260246000fd5b90614f39826137a7565b614f46604051918261339f565b8281528092614f57601f19916137a7565b019060203691013756fe6185e892b495921d623cf19a02c2565e2522589cc1edae45bc123c650b0def61a2646970667358221220223e7663cd4c6a4163639431139171318decac979bb4da4128048f8c6b3b45c764736f6c634300081b0033",
  "linkReferences": {},
  "deployedLinkReferences": {}
}