{
  "_format": "hh-sol-artifact-1",
  "contractName": "OrderManagement",
  "sourceName": "contracts/OrderManagement.sol",
  "abi": [
    {
      "inputs": [
        {
          "internalType": "address",
          "name": "_obatTradisionalAddr",
          "type": "address"
        },
        {
          "internalType": "address",
          "name": "_roleManagerAddr",
          "type": "address"
        },
        {
          "internalType": "address",
          "name": "_obatSharedAddr",
          "type": "address"
        }
      ],
      "stateMutability": "nonpayable",
      "type": "constructor"
    },
    {
      "anonymous": false,
      "inputs": [
        {
          "indexed": false,
          "internalType": "string",
          "name": "namaProduk",
          "type": "string"
        },
        {
          "indexed": false,
          "internalType": "string",
          "name": "buyerInstanceName",
          "type": "string"
        },
        {
          "indexed": false,
          "internalType": "string",
          "name": "sellerInstanceName",
          "type": "string"
        },
        {
          "indexed": false,
          "internalType": "uint8",
          "name": "orderQuantity",
          "type": "uint8"
        },
        {
          "indexed": false,
          "internalType": "uint256",
          "name": "timestamp",
          "type": "uint256"
        }
      ],
      "name": "evt_orderUpdate",
      "type": "event"
    },
    {
      "inputs": [
        {
          "internalType": "string",
          "name": "_orderId",
          "type": "string"
        },
        {
          "internalType": "string[]",
          "name": "_orderObatIpfs",
          "type": "string[]"
        }
      ],
      "name": "acceptOrder",
      "outputs": [],
      "stateMutability": "nonpayable",
      "type": "function"
    },
    {
      "inputs": [
        {
          "internalType": "uint256",
          "name": "",
          "type": "uint256"
        }
      ],
      "name": "allOrderId",
      "outputs": [
        {
          "internalType": "string",
          "name": "",
          "type": "string"
        }
      ],
      "stateMutability": "view",
      "type": "function"
    },
    {
      "inputs": [
        {
          "internalType": "string",
          "name": "_orderId",
          "type": "string"
        },
        {
          "internalType": "string[]",
          "name": "_orderObatIpfs",
          "type": "string[]"
        }
      ],
      "name": "completeOrder",
      "outputs": [],
      "stateMutability": "nonpayable",
      "type": "function"
    },
    {
      "inputs": [
        {
          "internalType": "string",
          "name": "_orderId",
          "type": "string"
        },
        {
          "internalType": "string",
          "name": "_obatId",
          "type": "string"
        },
        {
          "internalType": "string",
          "name": "_batchName",
          "type": "string"
        },
        {
          "internalType": "string",
          "name": "_namaProduk",
          "type": "string"
        },
        {
          "internalType": "string",
          "name": "_buyerInstance",
          "type": "string"
        },
        {
          "internalType": "string",
          "name": "_sellerInstance",
          "type": "string"
        },
        {
          "internalType": "uint8",
          "name": "_orderQuantity",
          "type": "uint8"
        }
      ],
      "name": "createOrder",
      "outputs": [],
      "stateMutability": "nonpayable",
      "type": "function"
    },
    {
      "inputs": [
        {
          "internalType": "string",
          "name": "_orderId",
          "type": "string"
        }
      ],
      "name": "detailOrder",
      "outputs": [
        {
          "components": [
            {
              "internalType": "string",
              "name": "orderId",
              "type": "string"
            },
            {
              "internalType": "string",
              "name": "obatId",
              "type": "string"
            },
            {
              "internalType": "string",
              "name": "namaProduk",
              "type": "string"
            },
            {
              "internalType": "string",
              "name": "batchName",
              "type": "string"
            },
            {
              "internalType": "uint8",
              "name": "orderQuantity",
              "type": "uint8"
            },
            {
              "components": [
                {
                  "internalType": "string",
                  "name": "instanceName",
                  "type": "string"
                },
                {
                  "internalType": "address",
                  "name": "instanceAddr",
                  "type": "address"
                }
              ],
              "internalType": "struct OrderManagement.st_orderUser",
              "name": "buyerUser",
              "type": "tuple"
            },
            {
              "components": [
                {
                  "internalType": "string",
                  "name": "instanceName",
                  "type": "string"
                },
                {
                  "internalType": "address",
                  "name": "instanceAddr",
                  "type": "address"
                }
              ],
              "internalType": "struct OrderManagement.st_orderUser",
              "name": "sellerUser",
              "type": "tuple"
            },
            {
              "internalType": "enum EnumsLibrary.OrderStatus",
              "name": "statusOrder",
              "type": "uint8"
            }
          ],
          "internalType": "struct OrderManagement.st_obatOrder",
          "name": "",
          "type": "tuple"
        },
        {
          "components": [
            {
              "internalType": "uint256",
              "name": "timestampOrder",
              "type": "uint256"
            },
            {
              "internalType": "uint256",
              "name": "timestampShipped",
              "type": "uint256"
            },
            {
              "internalType": "uint256",
              "name": "timestampComplete",
              "type": "uint256"
            }
          ],
          "internalType": "struct OrderManagement.st_orderTimestamp",
          "name": "",
          "type": "tuple"
        },
        {
          "internalType": "string[]",
          "name": "",
          "type": "string[]"
        }
      ],
      "stateMutability": "view",
      "type": "function"
    },
    {
      "inputs": [],
      "name": "getAllObatPbfReadyStock",
      "outputs": [
        {
          "components": [
            {
              "internalType": "string",
              "name": "obatId",
              "type": "string"
            },
            {
              "internalType": "string",
              "name": "namaProduk",
              "type": "string"
            },
            {
              "internalType": "string",
              "name": "batchName",
              "type": "string"
            },
            {
              "internalType": "uint8",
              "name": "obatQuantity",
              "type": "uint8"
            },
            {
              "internalType": "enum EnumsLibrary.ObatAvailability",
              "name": "statusStok",
              "type": "uint8"
            },
            {
              "internalType": "string",
              "name": "ownerInstance",
              "type": "string"
            }
          ],
          "internalType": "struct ObatShared.st_obatOutputStock[]",
          "name": "",
          "type": "tuple[]"
        }
      ],
      "stateMutability": "view",
      "type": "function"
    },
    {
      "inputs": [
        {
          "internalType": "string",
          "name": "_buyerInstance",
          "type": "string"
        }
      ],
      "name": "getAllOrderFromBuyer",
      "outputs": [
        {
          "components": [
            {
              "internalType": "string",
              "name": "orderId",
              "type": "string"
            },
            {
              "internalType": "string",
              "name": "obatId",
              "type": "string"
            },
            {
              "internalType": "string",
              "name": "namaProduk",
              "type": "string"
            },
            {
              "internalType": "string",
              "name": "batchName",
              "type": "string"
            },
            {
              "internalType": "uint8",
              "name": "orderQuantity",
              "type": "uint8"
            },
            {
              "components": [
                {
                  "internalType": "string",
                  "name": "instanceName",
                  "type": "string"
                },
                {
                  "internalType": "address",
                  "name": "instanceAddr",
                  "type": "address"
                }
              ],
              "internalType": "struct OrderManagement.st_orderUser",
              "name": "buyerUser",
              "type": "tuple"
            },
            {
              "components": [
                {
                  "internalType": "string",
                  "name": "instanceName",
                  "type": "string"
                },
                {
                  "internalType": "address",
                  "name": "instanceAddr",
                  "type": "address"
                }
              ],
              "internalType": "struct OrderManagement.st_orderUser",
              "name": "sellerUser",
              "type": "tuple"
            },
            {
              "internalType": "enum EnumsLibrary.OrderStatus",
              "name": "statusOrder",
              "type": "uint8"
            }
          ],
          "internalType": "struct OrderManagement.st_obatOrder[]",
          "name": "",
          "type": "tuple[]"
        }
      ],
      "stateMutability": "view",
      "type": "function"
    },
    {
      "inputs": [
        {
          "internalType": "string",
          "name": "_sellerInstance",
          "type": "string"
        }
      ],
      "name": "getAllOrderFromSeller",
      "outputs": [
        {
          "components": [
            {
              "internalType": "string",
              "name": "orderId",
              "type": "string"
            },
            {
              "internalType": "string",
              "name": "obatId",
              "type": "string"
            },
            {
              "internalType": "string",
              "name": "namaProduk",
              "type": "string"
            },
            {
              "internalType": "string",
              "name": "batchName",
              "type": "string"
            },
            {
              "internalType": "uint8",
              "name": "orderQuantity",
              "type": "uint8"
            },
            {
              "components": [
                {
                  "internalType": "string",
                  "name": "instanceName",
                  "type": "string"
                },
                {
                  "internalType": "address",
                  "name": "instanceAddr",
                  "type": "address"
                }
              ],
              "internalType": "struct OrderManagement.st_orderUser",
              "name": "buyerUser",
              "type": "tuple"
            },
            {
              "components": [
                {
                  "internalType": "string",
                  "name": "instanceName",
                  "type": "string"
                },
                {
                  "internalType": "address",
                  "name": "instanceAddr",
                  "type": "address"
                }
              ],
              "internalType": "struct OrderManagement.st_orderUser",
              "name": "sellerUser",
              "type": "tuple"
            },
            {
              "internalType": "enum EnumsLibrary.OrderStatus",
              "name": "statusOrder",
              "type": "uint8"
            }
          ],
          "internalType": "struct OrderManagement.st_obatOrder[]",
          "name": "",
          "type": "tuple[]"
        }
      ],
      "stateMutability": "view",
      "type": "function"
    },
    {
      "inputs": [],
      "name": "getAvailableObatFromFactory",
      "outputs": [
        {
          "components": [
            {
              "internalType": "string",
              "name": "obatId",
              "type": "string"
            },
            {
              "internalType": "string",
              "name": "namaProduk",
              "type": "string"
            },
            {
              "internalType": "string",
              "name": "batchName",
              "type": "string"
            },
            {
              "internalType": "uint8",
              "name": "obatQuantity",
              "type": "uint8"
            },
            {
              "internalType": "enum EnumsLibrary.ObatAvailability",
              "name": "statusStok",
              "type": "uint8"
            },
            {
              "internalType": "string",
              "name": "ownerInstance",
              "type": "string"
            }
          ],
          "internalType": "struct ObatTradisional.st_obatOutputBatch[]",
          "name": "",
          "type": "tuple[]"
        }
      ],
      "stateMutability": "view",
      "type": "function"
    },
    {
      "inputs": [],
      "name": "obatShared",
      "outputs": [
        {
          "internalType": "contract ObatShared",
          "name": "",
          "type": "address"
        }
      ],
      "stateMutability": "view",
      "type": "function"
    },
    {
      "inputs": [],
      "name": "obatTradisional",
      "outputs": [
        {
          "internalType": "contract ObatTradisional",
          "name": "",
          "type": "address"
        }
      ],
      "stateMutability": "view",
      "type": "function"
    },
    {
      "inputs": [],
      "name": "roleManager",
      "outputs": [
        {
          "internalType": "contract RoleManager",
          "name": "",
          "type": "address"
        }
      ],
      "stateMutability": "view",
      "type": "function"
    }
  ],
  "bytecode": "0x60803460a257601f611c2c38819003918201601f19168301916001600160401b0383118484101760a75780849260609460405283398101031260a25760428160bd565b6056604060506020850160bd565b930160bd565b600180546001600160a01b039485166001600160a01b031991821617909155600080549385169382169390931790925560028054919093169116179055604051611b5b90816100d18239f35b600080fd5b634e487b7160e01b600052604160045260246000fd5b51906001600160a01b038216820360a25756fe608080604052600436101561001357600080fd5b600090813560e01c908162435da514610fc3575080631c2fc29214610ef85780633fca88cb14610ecf57806357b347bd14610cc157806360e4b3cf14610bdf578063906ce01714610ae4578063986a0790146109685780639aa34050146106ae578063cb855d5c14610342578063ce7ab1c714610182578063dd5739ae146100cd5763ea020d59146100a457600080fd5b346100ca57806003193601126100ca57546040516001600160a01b039091168152602090f35b80fd5b50346100ca5760203660031901126100ca5760043560035481101561017e5760035481101561016a57600382527fc2575a0e9e593c00f959f8c92f12db2869c3395a3b0502d05e2516446f71f85b019080610156576040516101529061013e816101378187611472565b0382611050565b6040519182916020835260208301906110fb565b0390f35b634e487b7160e01b81526004819052602490fd5b634e487b7160e01b82526032600452602482fd5b5080fd5b50346100ca57806003193601126100ca57600180546040516395a8c58d60e01b81523360048201526024810192909252602090829060449082906001600160a01b03165afa9081156102cc578291610307575b50156102d7578054604051630a1e0a4b60e41b8152908290829060049082906001600160a01b03165afa9081156102cc578291610274575b50906040519182916020830160208452825180915260408401602060408360051b870101940192905b82821061024557505050500390f35b919360019193955060206102648192603f198a82030186528851611338565b9601920192018594939192610236565b90503d8083833e6102858183611050565b8101906020818303126102c4578051906001600160401b0382116102c857019080601f830112156102c45781516102be9260200161192f565b3861020d565b8280fd5b8380fd5b6040513d84823e3d90fd5b60405162461bcd60e51b815260206004820152600860248201526727b7363c9028212360c11b6044820152606490fd5b90506020813d60201161033a575b8161032260209383611050565b8101031261017e5751801515810361017e57386101d5565b3d9150610315565b50346100ca5760e03660031901126100ca576004356001600160401b03811161017e5761037390369060040161108c565b906024356001600160401b03811161017e5761039390369060040161108c565b916044356001600160401b0381116102c4576103b390369060040161108c565b926064356001600160401b0381116102c8576103d390369060040161108c565b6084356001600160401b0381116106aa576103f290369060040161108c565b9060a4356001600160401b0381116106a65761041290369060040161108c565b9560c43560ff81168091036106a25761042961151b565b5060405161043681611035565b84815233602082015261044761151b565b506040519161045583611035565b8983528860208401526040519361046b85611019565b8885526020850197885260408501958652606085019081526080850191825260a0850192835260c0850193845260e08501958a87526040519889808c80519c60208e92019d6104ba918f6110d8565b81016005815203602001902096516104d290886117a8565b516104e090600188016117a8565b516104ee90600287016117a8565b516104fc90600386016117a8565b60048401905160ff1660ff19825416179055518051600584019061051f916117a8565b602001516006830180546001600160a01b0319166001600160a01b039290921691909117905551805161055590600784016117a8565b602001516008820180546001600160a01b0319166001600160a01b03929092169190911790559051600990910190600381101561068e5760ff80198354169116179055600354600160401b81101561067a578060016105b99201600355600361140a565b61066657610600602061066396976105de876105f18461060f986105de84809a6117a8565b81604051938285809451938492016110d8565b810160078152030190206118a8565b810160088152030190206118a8565b60026040519161061e83610fe8565b4283526020830186815261064660206040860193898552604051809381928a519283916110d8565b810160068152030190209351845551600184015551910155611a82565b80f35b634e487b7160e01b85526004859052602485fd5b634e487b7160e01b85526041600452602485fd5b634e487b7160e01b86526021600452602486fd5b8680fd5b8580fd5b8480fd5b50346100ca576106bd36611278565b9190604051906106f56106ee825193602081818601966106de81838a6110d8565b8101600581520301902054611438565b15156116cf565b61071a604051602081845161070b8183896110d8565b8101600581520301902061161d565b926009604051602081855161073081838a6110d8565b8101600581520301902001600260ff19825416179055604051600283516107588184886110d8565b82019160068352602081429403019020015561078f604051602081855161078081838a6110d8565b8101600481520301902061171f565b805b85518110156107d4576001906107ce60405160208187516107b381838c6110d8565b810160048152030190206107c7838a6115d3565b51906118a8565b01610791565b509081858560018060a01b03600254166020820180519160608401928351823b156109445761083d9261082b89809461084f60405197889687958694631d38299760e31b86526060600487015260648601906110fb565b848103600319016024860152906110fb565b8281036003190160448401528c6113b1565b03925af190811561095d578691610948575b505060018060a01b0360025416905192604081015192519060a060ff6080830151169101515194833b1561094457610916889661090488946108db9a6108ed6108c9986040519d8e9c8d9b8c9a63431f0b5d60e11b8c5260c060048d015260c48c01906110fb565b8a81036003190160248c0152906110fb565b8881036003190160448a0152906110fb565b9160648701526003198683030160848701526113b1565b8381036003190160a4850152906110fb565b03925af180156102cc5761092f575b5061066382611a82565b8161093991611050565b61017e578183610925565b8780fd5b8161095291611050565b6106aa578488610861565b6040513d88823e3d90fd5b50346100ca5760203660031901126100ca576004356001600160401b03811161017e5761099990369060040161108c565b906109a2611535565b5080604080516109b181610fe8565b828152826020820152015260405190610a25610a1560208551948181818901976109dc81838b6110d8565b8101600581520301902094604051828189516109f98183876110d8565b81016006815203019020966040519384928392519283916110d8565b810160048152030190209261161d565b9160405193610a3385610fe8565b8054855260026001820154916020870192835201549160408601928352805490610a5c82611261565b94610a6a6040519687611050565b82865290815260208082209086015b838310610abf57610a9f886101528b8a8a8a60405196879660a0885260a0880190611149565b9351602087015251604086015251606085015283820360808501526113b1565b600160208192604051610ad6816101378189611472565b815201920192019190610a79565b50346100ca57806003193601126100ca5760025460405163906ce01760e01b8152908290829060049082906001600160a01b03165afa9081156102cc578291610b8f575b50906040519182916020830160208452825180915260408401602060408360051b870101940192905b828210610b6057505050500390f35b91936001919395506020610b7f8192603f198a82030186528851611338565b9601920192018594939192610b51565b90503d8083833e610ba08183611050565b8101906020818303126102c4578051906001600160401b0382116102c857019080601f830112156102c4578151610bd99260200161192f565b38610b28565b50346100ca5760203660031901126100ca576004356001600160401b03811161017e57610c1090369060040161108c565b60405181519060208181850193610c288183876110d8565b810160078152030190205491610c3d83611583565b935b838110610c5457604051806101528782611201565b80610ca5610ca0610137610c9b610c8e600196610c7f60208b8b6040519384928392519283916110d8565b8101600781520301902061140a565b5060405192838092611472565b6114f5565b61161d565b610caf82886115d3565b52610cba81876115d3565b5001610c3f565b50346100ca57610d22610cd336611278565b9060405193610cf36106ee835196602081818701996106de81838d6110d8565b610d2960016040516020818651610d0b81838d6110d8565b810160058152030190200160405195868092611472565b0385611050565b60086040516020818551610d3e81838c6110d8565b6005908201908152030190200180546001600160a01b031916331790556040518251600991906020908290610d7481838c6110d8565b8101600581520301902001600160ff1982541617905560405160018351610d9c81848a6110d8565b820191600683526020814294030190200155610dc4604051602081855161078081838c6110d8565b805b8351811015610e0457600190610dfe60405160208180610dea8c8a519283916110d8565b810160048152030190206107c783886115d3565b01610dc6565b50918284866003610e2d602060018060a01b036002541693604051809381928b519283916110d8565b810160058152030190200191813b156102c85783610e7191610e95610e839760405198899788968795631d38299760e31b87526060600488015260648701906110fb565b85810360031901602487015290611472565b838103600319016044850152906113b1565b03925af18015610ec457610eae575b5061066390611a82565b91610ebd816106639394611050565b9190610ea4565b6040513d85823e3d90fd5b50346100ca57806003193601126100ca576002546040516001600160a01b039091168152602090f35b50346100ca5760203660031901126100ca576004356001600160401b03811161017e57610f2990369060040161108c565b60405181519060208181850193610f418183876110d8565b810160088152030190205491610f5683611583565b935b838110610f6d57604051806101528782611201565b80610fa7610ca0610137610c9b610c8e600196610f9860208b8b6040519384928392519283916110d8565b8101600881520301902061140a565b610fb182886115d3565b52610fbc81876115d3565b5001610f58565b90503461017e578160031936011261017e576001546001600160a01b03168152602090f35b606081019081106001600160401b0382111761100357604052565b634e487b7160e01b600052604160045260246000fd5b61010081019081106001600160401b0382111761100357604052565b604081019081106001600160401b0382111761100357604052565b90601f801991011681019081106001600160401b0382111761100357604052565b6001600160401b03811161100357601f01601f191660200190565b81601f820112156110d3578035906110a382611071565b926110b16040519485611050565b828452602083830101116110d357816000926020809301838601378301015290565b600080fd5b60005b8381106110eb5750506000910152565b81810151838201526020016110db565b90602091611114815180928185528580860191016110d8565b601f01601f1916010190565b90602061113683516040845260408401906110fb565b928101516001600160a01b031691015290565b9060e06111d76111c56111a6611194611182611170885161010089526101008901906110fb565b602089015188820360208a01526110fb565b604088015187820360408901526110fb565b606087015186820360608801526110fb565b60ff608087015116608086015260a086015185820360a0870152611120565b60c085015184820360c0860152611120565b9201519060038210156111eb5760e0015290565b634e487b7160e01b600052602160045260246000fd5b602081016020825282518091526040820191602060408360051b8301019401926000915b83831061123457505050505090565b9091929394602080611252600193603f198682030187528951611149565b97019301930191939290611225565b6001600160401b0381116110035760051b60200190565b9060406003198301126110d3576004356001600160401b0381116110d357826112a39160040161108c565b91602435906001600160401b0382116110d357806023830112156110d35781600401356112cf81611261565b926112dd6040519485611050565b8184526024602085019260051b820101918383116110d35760248201905b83821061130a57505050505090565b81356001600160401b0381116110d35760209161132d876024859488010161108c565b8152019101906112fb565b90611376611364611352845160c0855260c08501906110fb565b602085015184820360208601526110fb565b604084015183820360408501526110fb565b9060ff6060840151166060820152608083015160028110156111eb576113ae9360a091608084015201519060a08184039101526110fb565b90565b9080602083519182815201916020808360051b8301019401926000915b8383106113dd57505050505090565b90919293946020806113fb600193601f1986820301875289516110fb565b970193019301919392906113ce565b80548210156114225760005260206000200190600090565b634e487b7160e01b600052603260045260246000fd5b90600182811c92168015611468575b602083101461145257565b634e487b7160e01b600052602260045260246000fd5b91607f1691611447565b6000929181549161148283611438565b80835292600181169081156114d8575060011461149e57505050565b60009081526020812093945091925b8383106114be575060209250010190565b6001816020929493945483858701015201910191906114ad565b915050602093945060ff929192191683830152151560051b010190565b602061150e9181604051938285809451938492016110d8565b8101600581520301902090565b6040519061152882611035565b6000602083606081520152565b6040519061154282611019565b600060e08360608152606060208201526060604082015260608082015282608082015261156d61151b565b60a082015261157a61151b565b60c08201520152565b9061158d82611261565b61159a6040519182611050565b82815280926115ab601f1991611261565b019060005b8281106115bc57505050565b6020906115c7611535565b828285010152016115b0565b80518210156114225760209160051b010190565b906040516115f481611035565b60208193604051611609816101378185611472565b8352600101546001600160a01b0316910152565b9060405161162a81611019565b60ff60098294604051611641816101378185611472565b8452604051611657816101378160018601611472565b6020850152604051611670816101378160028601611472565b6040850152604051611689816101378160038601611472565b60608501528260048201541660808501526116a6600582016115e7565b60a08501526116b7600782016115e7565b60c08501520154169060038210156111eb5760e00152565b156116d657565b60405162461bcd60e51b815260206004820152600a602482015269125108125b9d985b1a5960b21b6044820152606490fd5b818110611713575050565b60008155600101611708565b805490600081558161172f575050565b6000526020600020908101905b818110611747575050565b8061175460019254611438565b80611761575b500161173c565b601f811183146117775750600081555b3861175a565b611795908260005283601f6020600020920160051c82019101611708565b8060005260006020812081835555611771565b91909182516001600160401b038111611003576117c58254611438565b601f811161186b575b506020601f821160011461180957819293946000926117fe575b50508160011b916000199060031b1c1916179055565b0151905038806117e8565b601f1982169083600052806000209160005b8181106118535750958360019596971061183a575b505050811b019055565b015160001960f88460031b161c19169055388080611830565b9192602060018192868b01518155019401920161181b565b61189890836000526020600020601f840160051c8101916020851061189e575b601f0160051c0190611708565b386117ce565b909150819061188b565b8054600160401b811015611003576118c59160018201815561140a565b9190916118d7576118d5916117a8565b565b634e487b7160e01b600052600060045260246000fd5b81601f820112156110d357805161190381611071565b926119116040519485611050565b818452602082840101116110d3576113ae91602080850191016110d8565b9291909261193c84611261565b9361194a6040519586611050565b602085828152019060051b8201918383116110d35780915b838310611970575050505050565b82516001600160401b0381116110d357820160009160c0828803126102c4576040519260c08401908482106001600160401b03831117611a6e575060405281516001600160401b0381116110d357876119ca9184016118ed565b835260208201516001600160401b0381116110d357876119eb9184016118ed565b602084015260408201516001600160401b0381116110d35787611a0f9184016118ed565b6040840152606082015160ff811681036110d3576060840152608082015160028110156110d357608084015260a0820151926001600160401b0384116110d357611a5e886020958695016118ed565b60a0820152815201920191611962565b634e487b7160e01b81526041600452602490fd5b611af8611ac261070b60207f51442564a7c47c90ee6057daec7dada1d5132c3a496854bbc4c003de6f7113369481604051938285809451938492016110d8565b604081015190611b1460a08201515191611b0660ff608060c084015151930151169360405196879660a0885260a08801906110fb565b9086820360208801526110fb565b9084820360408601526110fb565b9060608301524260808301520390a156fea26469706673582212206f4f23fc67e50fba6c2705d3958e55d861e346a2211477d403d8906f6c01eb8664736f6c634300081b0033",
  "linkReferences": {},
  "deployedLinkReferences": {}
}