{
  "_format": "hh-sol-artifact-1",
  "contractName": "OrderManagement",
  "sourceName": "contracts/OrderManagement.sol",
  "abi": [
    {
      "inputs": [
        {
          "internalType": "address",
          "name": "_obatTradisionalAddr",
          "type": "address"
        },
        {
          "internalType": "address",
          "name": "_roleManagerAddr",
          "type": "address"
        },
        {
          "internalType": "address",
          "name": "_obatSharedAddr",
          "type": "address"
        }
      ],
      "stateMutability": "nonpayable",
      "type": "constructor"
    },
    {
      "anonymous": false,
      "inputs": [
        {
          "indexed": false,
          "internalType": "string",
          "name": "namaProduk",
          "type": "string"
        },
        {
          "indexed": false,
          "internalType": "string",
          "name": "buyerInstanceName",
          "type": "string"
        },
        {
          "indexed": false,
          "internalType": "string",
          "name": "sellerInstanceName",
          "type": "string"
        },
        {
          "indexed": false,
          "internalType": "uint8",
          "name": "orderQuantity",
          "type": "uint8"
        },
        {
          "indexed": false,
          "internalType": "uint256",
          "name": "timestamp",
          "type": "uint256"
        }
      ],
      "name": "evt_orderUpdate",
      "type": "event"
    },
    {
      "inputs": [
        {
          "internalType": "string",
          "name": "_orderId",
          "type": "string"
        },
        {
          "internalType": "string[]",
          "name": "_orderObatIpfs",
          "type": "string[]"
        }
      ],
      "name": "acceptOrderPbf",
      "outputs": [],
      "stateMutability": "nonpayable",
      "type": "function"
    },
    {
      "inputs": [
        {
          "internalType": "string",
          "name": "_orderId",
          "type": "string"
        },
        {
          "internalType": "string[]",
          "name": "_orderObatIpfs",
          "type": "string[]"
        }
      ],
      "name": "acceptOrderRetailer",
      "outputs": [],
      "stateMutability": "nonpayable",
      "type": "function"
    },
    {
      "inputs": [
        {
          "internalType": "uint256",
          "name": "",
          "type": "uint256"
        }
      ],
      "name": "allOrderId",
      "outputs": [
        {
          "internalType": "string",
          "name": "",
          "type": "string"
        }
      ],
      "stateMutability": "view",
      "type": "function"
    },
    {
      "inputs": [
        {
          "internalType": "string",
          "name": "_orderId",
          "type": "string"
        },
        {
          "internalType": "string[]",
          "name": "_orderObatIpfs",
          "type": "string[]"
        }
      ],
      "name": "completeOrderPbf",
      "outputs": [],
      "stateMutability": "nonpayable",
      "type": "function"
    },
    {
      "inputs": [
        {
          "internalType": "string",
          "name": "_orderId",
          "type": "string"
        },
        {
          "internalType": "string[]",
          "name": "_orderObatIpfs",
          "type": "string[]"
        }
      ],
      "name": "completeOrderRetailer",
      "outputs": [],
      "stateMutability": "nonpayable",
      "type": "function"
    },
    {
      "inputs": [
        {
          "internalType": "string",
          "name": "_orderId",
          "type": "string"
        },
        {
          "internalType": "string",
          "name": "_obatId",
          "type": "string"
        },
        {
          "internalType": "string",
          "name": "_batchName",
          "type": "string"
        },
        {
          "internalType": "string",
          "name": "_namaProduk",
          "type": "string"
        },
        {
          "internalType": "string",
          "name": "_buyerInstance",
          "type": "string"
        },
        {
          "internalType": "string",
          "name": "_sellerInstance",
          "type": "string"
        },
        {
          "internalType": "uint8",
          "name": "_orderQuantity",
          "type": "uint8"
        }
      ],
      "name": "createOrderPbf",
      "outputs": [],
      "stateMutability": "nonpayable",
      "type": "function"
    },
    {
      "inputs": [
        {
          "internalType": "string",
          "name": "_prevOrderIdPbf",
          "type": "string"
        },
        {
          "internalType": "string",
          "name": "_orderId",
          "type": "string"
        },
        {
          "internalType": "string",
          "name": "_obatId",
          "type": "string"
        },
        {
          "internalType": "string",
          "name": "_batchName",
          "type": "string"
        },
        {
          "internalType": "string",
          "name": "_namaProduk",
          "type": "string"
        },
        {
          "internalType": "string",
          "name": "_buyerInstance",
          "type": "string"
        },
        {
          "internalType": "string",
          "name": "_sellerInstance",
          "type": "string"
        },
        {
          "internalType": "uint8",
          "name": "_orderQuantity",
          "type": "uint8"
        }
      ],
      "name": "createOrderRetailer",
      "outputs": [],
      "stateMutability": "nonpayable",
      "type": "function"
    },
    {
      "inputs": [
        {
          "internalType": "string",
          "name": "_orderId",
          "type": "string"
        }
      ],
      "name": "detailOrder",
      "outputs": [
        {
          "components": [
            {
              "internalType": "string",
              "name": "orderId",
              "type": "string"
            },
            {
              "internalType": "string",
              "name": "obatId",
              "type": "string"
            },
            {
              "internalType": "string",
              "name": "namaProduk",
              "type": "string"
            },
            {
              "internalType": "string",
              "name": "batchName",
              "type": "string"
            },
            {
              "internalType": "uint8",
              "name": "orderQuantity",
              "type": "uint8"
            },
            {
              "components": [
                {
                  "internalType": "string",
                  "name": "instanceName",
                  "type": "string"
                },
                {
                  "internalType": "address",
                  "name": "instanceAddr",
                  "type": "address"
                }
              ],
              "internalType": "struct OrderManagement.st_orderUser",
              "name": "buyerUser",
              "type": "tuple"
            },
            {
              "components": [
                {
                  "internalType": "string",
                  "name": "instanceName",
                  "type": "string"
                },
                {
                  "internalType": "address",
                  "name": "instanceAddr",
                  "type": "address"
                }
              ],
              "internalType": "struct OrderManagement.st_orderUser",
              "name": "sellerUser",
              "type": "tuple"
            },
            {
              "internalType": "enum EnumsLibrary.OrderStatus",
              "name": "statusOrder",
              "type": "uint8"
            }
          ],
          "internalType": "struct OrderManagement.st_obatOrder",
          "name": "",
          "type": "tuple"
        },
        {
          "components": [
            {
              "internalType": "uint256",
              "name": "timestampOrder",
              "type": "uint256"
            },
            {
              "internalType": "uint256",
              "name": "timestampShipped",
              "type": "uint256"
            },
            {
              "internalType": "uint256",
              "name": "timestampComplete",
              "type": "uint256"
            }
          ],
          "internalType": "struct OrderManagement.st_orderTimestamp",
          "name": "",
          "type": "tuple"
        },
        {
          "internalType": "string[]",
          "name": "",
          "type": "string[]"
        }
      ],
      "stateMutability": "view",
      "type": "function"
    },
    {
      "inputs": [
        {
          "internalType": "string",
          "name": "_orderId",
          "type": "string"
        }
      ],
      "name": "detailOrderRetailer",
      "outputs": [
        {
          "components": [
            {
              "components": [
                {
                  "internalType": "string",
                  "name": "orderId",
                  "type": "string"
                },
                {
                  "internalType": "string",
                  "name": "obatId",
                  "type": "string"
                },
                {
                  "internalType": "string",
                  "name": "namaProduk",
                  "type": "string"
                },
                {
                  "internalType": "string",
                  "name": "batchName",
                  "type": "string"
                },
                {
                  "internalType": "uint8",
                  "name": "orderQuantity",
                  "type": "uint8"
                },
                {
                  "components": [
                    {
                      "internalType": "string",
                      "name": "instanceName",
                      "type": "string"
                    },
                    {
                      "internalType": "address",
                      "name": "instanceAddr",
                      "type": "address"
                    }
                  ],
                  "internalType": "struct OrderManagement.st_orderUser",
                  "name": "buyerUser",
                  "type": "tuple"
                },
                {
                  "components": [
                    {
                      "internalType": "string",
                      "name": "instanceName",
                      "type": "string"
                    },
                    {
                      "internalType": "address",
                      "name": "instanceAddr",
                      "type": "address"
                    }
                  ],
                  "internalType": "struct OrderManagement.st_orderUser",
                  "name": "sellerUser",
                  "type": "tuple"
                },
                {
                  "internalType": "enum EnumsLibrary.OrderStatus",
                  "name": "statusOrder",
                  "type": "uint8"
                }
              ],
              "internalType": "struct OrderManagement.st_obatOrder",
              "name": "dataOrderRetailer",
              "type": "tuple"
            },
            {
              "internalType": "string",
              "name": "prevOrderIdPbf",
              "type": "string"
            }
          ],
          "internalType": "struct OrderManagement.st_obatOrderRetailer",
          "name": "",
          "type": "tuple"
        },
        {
          "components": [
            {
              "internalType": "uint256",
              "name": "timestampOrder",
              "type": "uint256"
            },
            {
              "internalType": "uint256",
              "name": "timestampShipped",
              "type": "uint256"
            },
            {
              "internalType": "uint256",
              "name": "timestampComplete",
              "type": "uint256"
            }
          ],
          "internalType": "struct OrderManagement.st_orderTimestamp",
          "name": "",
          "type": "tuple"
        },
        {
          "internalType": "string[]",
          "name": "",
          "type": "string[]"
        }
      ],
      "stateMutability": "view",
      "type": "function"
    },
    {
      "inputs": [
        {
          "internalType": "string",
          "name": "_orderId",
          "type": "string"
        }
      ],
      "name": "detailPastOrderPbf",
      "outputs": [
        {
          "components": [
            {
              "internalType": "string",
              "name": "orderId",
              "type": "string"
            },
            {
              "internalType": "string",
              "name": "obatId",
              "type": "string"
            },
            {
              "internalType": "string",
              "name": "namaProduk",
              "type": "string"
            },
            {
              "internalType": "string",
              "name": "batchName",
              "type": "string"
            },
            {
              "internalType": "uint8",
              "name": "orderQuantity",
              "type": "uint8"
            },
            {
              "components": [
                {
                  "internalType": "string",
                  "name": "instanceName",
                  "type": "string"
                },
                {
                  "internalType": "address",
                  "name": "instanceAddr",
                  "type": "address"
                }
              ],
              "internalType": "struct OrderManagement.st_orderUser",
              "name": "buyerUser",
              "type": "tuple"
            },
            {
              "components": [
                {
                  "internalType": "string",
                  "name": "instanceName",
                  "type": "string"
                },
                {
                  "internalType": "address",
                  "name": "instanceAddr",
                  "type": "address"
                }
              ],
              "internalType": "struct OrderManagement.st_orderUser",
              "name": "sellerUser",
              "type": "tuple"
            },
            {
              "internalType": "enum EnumsLibrary.OrderStatus",
              "name": "statusOrder",
              "type": "uint8"
            }
          ],
          "internalType": "struct OrderManagement.st_obatOrder",
          "name": "",
          "type": "tuple"
        },
        {
          "components": [
            {
              "internalType": "uint256",
              "name": "timestampOrder",
              "type": "uint256"
            },
            {
              "internalType": "uint256",
              "name": "timestampShipped",
              "type": "uint256"
            },
            {
              "internalType": "uint256",
              "name": "timestampComplete",
              "type": "uint256"
            }
          ],
          "internalType": "struct OrderManagement.st_orderTimestamp",
          "name": "",
          "type": "tuple"
        }
      ],
      "stateMutability": "view",
      "type": "function"
    },
    {
      "inputs": [
        {
          "internalType": "string",
          "name": "_instanceName",
          "type": "string"
        }
      ],
      "name": "getAllObatPbfByInstance",
      "outputs": [
        {
          "components": [
            {
              "internalType": "string",
              "name": "orderId",
              "type": "string"
            },
            {
              "internalType": "string",
              "name": "obatId",
              "type": "string"
            },
            {
              "internalType": "string",
              "name": "namaProduk",
              "type": "string"
            },
            {
              "internalType": "string",
              "name": "batchName",
              "type": "string"
            },
            {
              "internalType": "uint8",
              "name": "obatQuantity",
              "type": "uint8"
            },
            {
              "internalType": "enum EnumsLibrary.ObatAvailability",
              "name": "statusStok",
              "type": "uint8"
            },
            {
              "internalType": "string",
              "name": "ownerInstance",
              "type": "string"
            }
          ],
          "internalType": "struct ObatShared.st_obatOutputStock[]",
          "name": "",
          "type": "tuple[]"
        }
      ],
      "stateMutability": "view",
      "type": "function"
    },
    {
      "inputs": [],
      "name": "getAllObatPbfReadyStock",
      "outputs": [
        {
          "components": [
            {
              "internalType": "string",
              "name": "orderId",
              "type": "string"
            },
            {
              "internalType": "string",
              "name": "obatId",
              "type": "string"
            },
            {
              "internalType": "string",
              "name": "namaProduk",
              "type": "string"
            },
            {
              "internalType": "string",
              "name": "batchName",
              "type": "string"
            },
            {
              "internalType": "uint8",
              "name": "obatQuantity",
              "type": "uint8"
            },
            {
              "internalType": "enum EnumsLibrary.ObatAvailability",
              "name": "statusStok",
              "type": "uint8"
            },
            {
              "internalType": "string",
              "name": "ownerInstance",
              "type": "string"
            }
          ],
          "internalType": "struct ObatShared.st_obatOutputStock[]",
          "name": "",
          "type": "tuple[]"
        }
      ],
      "stateMutability": "view",
      "type": "function"
    },
    {
      "inputs": [
        {
          "internalType": "string",
          "name": "_instanceName",
          "type": "string"
        }
      ],
      "name": "getAllObatRetailerByInstance",
      "outputs": [
        {
          "components": [
            {
              "internalType": "string",
              "name": "orderId",
              "type": "string"
            },
            {
              "internalType": "string",
              "name": "obatId",
              "type": "string"
            },
            {
              "internalType": "string",
              "name": "namaProduk",
              "type": "string"
            },
            {
              "internalType": "string",
              "name": "batchName",
              "type": "string"
            },
            {
              "internalType": "uint8",
              "name": "obatQuantity",
              "type": "uint8"
            },
            {
              "internalType": "enum EnumsLibrary.ObatAvailability",
              "name": "statusStok",
              "type": "uint8"
            },
            {
              "internalType": "string",
              "name": "ownerInstance",
              "type": "string"
            }
          ],
          "internalType": "struct ObatShared.st_obatOutputStock[]",
          "name": "",
          "type": "tuple[]"
        }
      ],
      "stateMutability": "view",
      "type": "function"
    },
    {
      "inputs": [
        {
          "internalType": "string",
          "name": "_buyerInstance",
          "type": "string"
        }
      ],
      "name": "getAllOrderFromBuyer",
      "outputs": [
        {
          "components": [
            {
              "internalType": "string",
              "name": "orderId",
              "type": "string"
            },
            {
              "internalType": "string",
              "name": "obatId",
              "type": "string"
            },
            {
              "internalType": "string",
              "name": "namaProduk",
              "type": "string"
            },
            {
              "internalType": "string",
              "name": "batchName",
              "type": "string"
            },
            {
              "internalType": "uint8",
              "name": "orderQuantity",
              "type": "uint8"
            },
            {
              "components": [
                {
                  "internalType": "string",
                  "name": "instanceName",
                  "type": "string"
                },
                {
                  "internalType": "address",
                  "name": "instanceAddr",
                  "type": "address"
                }
              ],
              "internalType": "struct OrderManagement.st_orderUser",
              "name": "buyerUser",
              "type": "tuple"
            },
            {
              "components": [
                {
                  "internalType": "string",
                  "name": "instanceName",
                  "type": "string"
                },
                {
                  "internalType": "address",
                  "name": "instanceAddr",
                  "type": "address"
                }
              ],
              "internalType": "struct OrderManagement.st_orderUser",
              "name": "sellerUser",
              "type": "tuple"
            },
            {
              "internalType": "enum EnumsLibrary.OrderStatus",
              "name": "statusOrder",
              "type": "uint8"
            }
          ],
          "internalType": "struct OrderManagement.st_obatOrder[]",
          "name": "",
          "type": "tuple[]"
        }
      ],
      "stateMutability": "view",
      "type": "function"
    },
    {
      "inputs": [
        {
          "internalType": "string",
          "name": "_buyerInstance",
          "type": "string"
        }
      ],
      "name": "getAllOrderFromBuyerRetailer",
      "outputs": [
        {
          "components": [
            {
              "components": [
                {
                  "internalType": "string",
                  "name": "orderId",
                  "type": "string"
                },
                {
                  "internalType": "string",
                  "name": "obatId",
                  "type": "string"
                },
                {
                  "internalType": "string",
                  "name": "namaProduk",
                  "type": "string"
                },
                {
                  "internalType": "string",
                  "name": "batchName",
                  "type": "string"
                },
                {
                  "internalType": "uint8",
                  "name": "orderQuantity",
                  "type": "uint8"
                },
                {
                  "components": [
                    {
                      "internalType": "string",
                      "name": "instanceName",
                      "type": "string"
                    },
                    {
                      "internalType": "address",
                      "name": "instanceAddr",
                      "type": "address"
                    }
                  ],
                  "internalType": "struct OrderManagement.st_orderUser",
                  "name": "buyerUser",
                  "type": "tuple"
                },
                {
                  "components": [
                    {
                      "internalType": "string",
                      "name": "instanceName",
                      "type": "string"
                    },
                    {
                      "internalType": "address",
                      "name": "instanceAddr",
                      "type": "address"
                    }
                  ],
                  "internalType": "struct OrderManagement.st_orderUser",
                  "name": "sellerUser",
                  "type": "tuple"
                },
                {
                  "internalType": "enum EnumsLibrary.OrderStatus",
                  "name": "statusOrder",
                  "type": "uint8"
                }
              ],
              "internalType": "struct OrderManagement.st_obatOrder",
              "name": "dataOrderRetailer",
              "type": "tuple"
            },
            {
              "internalType": "string",
              "name": "prevOrderIdPbf",
              "type": "string"
            }
          ],
          "internalType": "struct OrderManagement.st_obatOrderRetailer[]",
          "name": "",
          "type": "tuple[]"
        }
      ],
      "stateMutability": "view",
      "type": "function"
    },
    {
      "inputs": [
        {
          "internalType": "string",
          "name": "_sellerInstance",
          "type": "string"
        }
      ],
      "name": "getAllOrderFromSeller",
      "outputs": [
        {
          "components": [
            {
              "internalType": "string",
              "name": "orderId",
              "type": "string"
            },
            {
              "internalType": "string",
              "name": "obatId",
              "type": "string"
            },
            {
              "internalType": "string",
              "name": "namaProduk",
              "type": "string"
            },
            {
              "internalType": "string",
              "name": "batchName",
              "type": "string"
            },
            {
              "internalType": "uint8",
              "name": "orderQuantity",
              "type": "uint8"
            },
            {
              "components": [
                {
                  "internalType": "string",
                  "name": "instanceName",
                  "type": "string"
                },
                {
                  "internalType": "address",
                  "name": "instanceAddr",
                  "type": "address"
                }
              ],
              "internalType": "struct OrderManagement.st_orderUser",
              "name": "buyerUser",
              "type": "tuple"
            },
            {
              "components": [
                {
                  "internalType": "string",
                  "name": "instanceName",
                  "type": "string"
                },
                {
                  "internalType": "address",
                  "name": "instanceAddr",
                  "type": "address"
                }
              ],
              "internalType": "struct OrderManagement.st_orderUser",
              "name": "sellerUser",
              "type": "tuple"
            },
            {
              "internalType": "enum EnumsLibrary.OrderStatus",
              "name": "statusOrder",
              "type": "uint8"
            }
          ],
          "internalType": "struct OrderManagement.st_obatOrder[]",
          "name": "",
          "type": "tuple[]"
        }
      ],
      "stateMutability": "view",
      "type": "function"
    },
    {
      "inputs": [
        {
          "internalType": "string",
          "name": "_sellerInstance",
          "type": "string"
        }
      ],
      "name": "getAllOrderFromSellerRetailer",
      "outputs": [
        {
          "components": [
            {
              "components": [
                {
                  "internalType": "string",
                  "name": "orderId",
                  "type": "string"
                },
                {
                  "internalType": "string",
                  "name": "obatId",
                  "type": "string"
                },
                {
                  "internalType": "string",
                  "name": "namaProduk",
                  "type": "string"
                },
                {
                  "internalType": "string",
                  "name": "batchName",
                  "type": "string"
                },
                {
                  "internalType": "uint8",
                  "name": "orderQuantity",
                  "type": "uint8"
                },
                {
                  "components": [
                    {
                      "internalType": "string",
                      "name": "instanceName",
                      "type": "string"
                    },
                    {
                      "internalType": "address",
                      "name": "instanceAddr",
                      "type": "address"
                    }
                  ],
                  "internalType": "struct OrderManagement.st_orderUser",
                  "name": "buyerUser",
                  "type": "tuple"
                },
                {
                  "components": [
                    {
                      "internalType": "string",
                      "name": "instanceName",
                      "type": "string"
                    },
                    {
                      "internalType": "address",
                      "name": "instanceAddr",
                      "type": "address"
                    }
                  ],
                  "internalType": "struct OrderManagement.st_orderUser",
                  "name": "sellerUser",
                  "type": "tuple"
                },
                {
                  "internalType": "enum EnumsLibrary.OrderStatus",
                  "name": "statusOrder",
                  "type": "uint8"
                }
              ],
              "internalType": "struct OrderManagement.st_obatOrder",
              "name": "dataOrderRetailer",
              "type": "tuple"
            },
            {
              "internalType": "string",
              "name": "prevOrderIdPbf",
              "type": "string"
            }
          ],
          "internalType": "struct OrderManagement.st_obatOrderRetailer[]",
          "name": "",
          "type": "tuple[]"
        }
      ],
      "stateMutability": "view",
      "type": "function"
    },
    {
      "inputs": [],
      "name": "getAvailableObatFromFactory",
      "outputs": [
        {
          "components": [
            {
              "internalType": "string",
              "name": "obatId",
              "type": "string"
            },
            {
              "internalType": "string",
              "name": "namaProduk",
              "type": "string"
            },
            {
              "internalType": "string",
              "name": "batchName",
              "type": "string"
            },
            {
              "internalType": "uint8",
              "name": "obatQuantity",
              "type": "uint8"
            },
            {
              "internalType": "enum EnumsLibrary.ObatAvailability",
              "name": "statusStok",
              "type": "uint8"
            },
            {
              "internalType": "string",
              "name": "ownerInstance",
              "type": "string"
            }
          ],
          "internalType": "struct ObatTradisional.st_obatOutputBatch[]",
          "name": "",
          "type": "tuple[]"
        }
      ],
      "stateMutability": "view",
      "type": "function"
    },
    {
      "inputs": [],
      "name": "obatShared",
      "outputs": [
        {
          "internalType": "contract ObatShared",
          "name": "",
          "type": "address"
        }
      ],
      "stateMutability": "view",
      "type": "function"
    },
    {
      "inputs": [],
      "name": "obatTradisional",
      "outputs": [
        {
          "internalType": "contract ObatTradisional",
          "name": "",
          "type": "address"
        }
      ],
      "stateMutability": "view",
      "type": "function"
    },
    {
      "inputs": [],
      "name": "roleManager",
      "outputs": [
        {
          "internalType": "contract RoleManager",
          "name": "",
          "type": "address"
        }
      ],
      "stateMutability": "view",
      "type": "function"
    }
  ],
  "bytecode": "0x60803460a257601f61291d38819003918201601f19168301916001600160401b0383118484101760a75780849260609460405283398101031260a25760428160bd565b6056604060506020850160bd565b930160bd565b600180546001600160a01b039485166001600160a01b03199182161790915560008054938516938216939093179092556002805491909316911617905560405161284c90816100d18239f35b600080fd5b634e487b7160e01b600052604160045260246000fd5b51906001600160a01b038216820360a25756fe608080604052600436101561001357600080fd5b60003560e01c908162435da5146118675750806305943613146117b65780631c2fc292146116f95780633fca88cb146116d057806341bc5f781461160157806360e4b3cf1461153a57806364484ac9146113c3578063756b460f146112175780637ad3018714610f865780637ed35ba514610eba578063906ce01714610e65578063986a079014610d60578063af9bf53d14610bd8578063bde9ac541461093f578063ce7ab1c7146105c0578063d3179bda146104dd578063dd5739ae14610465578063e1336da5146103c5578063ea020d591461039c578063ee399ed4146101c35763f07b2c7a1461010557600080fd5b346101be5760203660031901126101be576004356001600160401b0381116101be57600061013a61016892369060040161192f565b60018060a01b0360025416604051808095819463783d963d60e11b8352602060048401526024830190611999565b03915afa80156101b25761018b9160009161018f575b5060405191829182611cb3565b0390f35b6101ac91503d806000833e6101a481836118f3565b8101906124e2565b3861017e565b6040513d6000823e3d90fd5b600080fd5b346101be5761020b6101d436611b86565b6040929192516102126001855192602081818901956101f4818389611976565b810160068152030190200160405194858092611df9565b03846118f3565b60086040516020818751610227818388611976565b6006908201908152030190200180546001600160a01b03191633179055604051845160099190602090829061025d818388611976565b8101600681520301902001600160ff1982541617905560405160018551610285818486611976565b82019160088352602081429403019020015560005b82518110156102dd576001906102d760405160208189516102bc81838a611976565b810160048152030190206102d08387612164565b51906122f0565b0161029a565b509291926003610305602060018060a01b036002541693604051809381928951928391611976565b810160068152030190200190803b156101be5761034b600061035d9661036f8296604051998a9788968795631d38299760e31b8752606060048801526064870190611999565b85810360031901602487015290611df9565b83810360031901604485015290611ab6565b03925af19182156101b2576103899261038b575b50612738565b005b6000610396916118f3565b82610383565b346101be5760003660031901126101be576000546040516001600160a01b039091168152602090f35b346101be5760203660031901126101be576004356001600160401b0381116101be5760006103fa61042892369060040161192f565b60018060a01b0360025416604051808095819463e1336da560e01b8352602060048401526024830190611999565b03915afa80156101b25761018b9160009161044a575060405191829182611cb3565b61045f91503d806000833e6101a481836118f3565b8261017e565b346101be5760203660031901126101be576004356003548110156101be5760006003548210156104c9576104b561018b9260208360036104ae9552200160405192838092611df9565b03826118f3565b604051918291602083526020830190611999565b634e487b7160e01b81526032600452602490fd5b346101be5760203660031901126101be576004356001600160401b0381116101be5761050d90369060040161192f565b60405181519060208181850193610525818387611976565b81016009815203019020549061053a82612442565b9260005b838110610553576040518061018b8782611c46565b806105a461059f6104ae61059a61058d60019661057e60208b8b604051938492839251928391611976565b81016009815203019020611d91565b5060405192838092611df9565b611f49565b612057565b6105ae8288612164565b526105b98187612164565b500161053e565b346101be5760003660031901126101be57600180546040516395a8c58d60e01b81523360048201526024810192909252602090829060449082906001600160a01b03165afa9081156101b257600091610901575b50156108d15760008054604051630a1e0a4b60e41b81529190829060049082906001600160a01b03165afa9081156101b25760009161071f575b506040518091602082016020835281518091526040830190602060408260051b8601019301916000905b82821061068757505050500390f35b9193600191939550602061070f8192603f198a820301865288519060a06106df6106cd6106bd855160c0865260c0860190611999565b8786015185820389870152611999565b60408501518482036040860152611999565b9260ff60608201511660608401526106ff60808201516080850190611ca6565b01519060a0818403910152611999565b9601920192018594939192610678565b903d8082843e61072f81846118f3565b8201916020818403126108cd578051906001600160401b0382116108c9570182601f820112156108cd5780519161076583611b6f565b9361077360405195866118f3565b83855260208086019460051b840101928184116108c95760208101945b8486106107a3575050505050508161064e565b85516001600160401b0381116108c557820160c0818503601f1901126108c5576040519060c082018281106001600160401b038211176108b15760405260208101516001600160401b0381116108ad5785602061080292840101612492565b825260408101516001600160401b0381116108ad5785602061082692840101612492565b602083015260608101516001600160401b0381116108ad5785602061084d92840101612492565b604083015261085e608082016124d4565b606083015260a081015160028110156108ad57608083015260c0810151906001600160401b0382116108ad579161089d86602080969481960101612492565b60a0820152815201950194610790565b8680fd5b634e487b7160e01b87526041600452602487fd5b8480fd5b8280fd5b5080fd5b60405162461bcd60e51b815260206004820152600860248201526727b7363c9028212360c11b6044820152606490fd5b6020813d602011610937575b8161091a602093836118f3565b810103126108cd5751908115158203610934575081610614565b80fd5b3d915061090d565b346101be5760e03660031901126101be576004356001600160401b0381116101be5761096f90369060040161192f565b6024356001600160401b0381116101be5761098e90369060040161192f565b906044356001600160401b0381116101be576109ae90369060040161192f565b6064356001600160401b0381116101be576109cd90369060040161192f565b926084356001600160401b0381116101be576109ed90369060040161192f565b9060a4356001600160401b0381116101be57610a0d90369060040161192f565b9260c43560ff81168091036101be57610a263385612797565b90610a3086612775565b9260405198610a3e8a61188b565b888a5260208a0195865260408a0190815260608a0191825260808a0192835260a08a0193845260c08a0194855260e08a019560008752604051808b818151602081930191610a8b92611976565b8101600681520360200190209a51610aa3908c6121a7565b51610ab19060018c016121a7565b51610abf9060028b016121a7565b51610acd9060038a016121a7565b60048801905160ff1660ff198254161790555180516005880190610af0916121a7565b602001516006870180546001600160a01b0319166001600160a01b0392909216919091179055518051610b2690600788016121a7565b602001516008860180546001600160a01b0319166001600160a01b039290921691909117905551906003821015610bc2576020610bb493610b8386610b9684610ba596610b7a849960096103899e01612178565b610b83846122a7565b8160405193828580945193849201611976565b810160098152030190206122f0565b8101600a8152030190206122f0565b610bbd816127c1565b612738565b634e487b7160e01b600052602160045260246000fd5b346101be57610be636611b86565b90604051610c1182519160208181860194610c02818388611976565b81016007815203019020611fa5565b91610c376040516020818451610c28818389611976565b8101600581520301902061230d565b60005b8451811015610c7657600190610c706040516020818651610c5c81838b611976565b810160058152030190206102d08389612164565b01610c3a565b84828560018060a01b0360025416602082018051916060840192835190823b156101be57610cc192600092838a9360405196879586948593631d38299760e31b855260048501612396565b03925af180156101b257610d4f575b5060018060a01b03600254169051604084015192519560a060ff6080870151169501515191833b156101be57610d2487936000979388946040519b8c998a9889976306d512ff60e21b8952600489016123cd565b03925af19182156101b25761038992610d3e575b506126cb565b6000610d49916118f3565b82610d38565b6000610d5a916118f3565b85610cd0565b346101be5760203660031901126101be576004356001600160401b0381116101be57610d93610e3991369060040161192f565b610d9b611e96565b50610da4611f04565b5061018b604051610e22610e1c610e16610e0660208751958181818b0198610dcd81838c611976565b810160068152030190209560405182818b51610dea818387611976565b8101600881520301902098604051938492839251928391611976565b8101600481520301902093611fa5565b9461208c565b916120b4565b610e5860405195869560a0875260a08701906119e7565b9260208601906040809180518452602081015160208501520151910152565b8382036080850152611ab6565b346101be5760003660031901126101be5760025460405163906ce01760e01b815290600090829060049082906001600160a01b03165afa80156101b25761018b9160009161044a575060405191829182611cb3565b346101be5760203660031901126101be576004356001600160401b0381116101be57610eea90369060040161192f565b60405181519060208181850193610f02818387611976565b8101600a8152030190205490610f1782612442565b9260005b838110610f30576040518061018b8782611c46565b80610f6a61059f6104ae61059a61058d600196610f5b60208b8b604051938492839251928391611976565b8101600a815203019020611d91565b610f748288612164565b52610f7f8187612164565b5001610f1b565b346101be576101003660031901126101be576004356001600160401b0381116101be57610fb790369060040161192f565b6024356001600160401b0381116101be57610fd690369060040161192f565b6044356001600160401b0381116101be57610ff590369060040161192f565b6064356001600160401b0381116101be5761101490369060040161192f565b926084356001600160401b0381116101be5761103490369060040161192f565b9160a4356001600160401b0381116101be5761105490369060040161192f565b9260c4356001600160401b0381116101be5761107490369060040161192f565b9560e43560ff81168091036101be5761108d3387612797565b9161109789612775565b93604051956110a58761188b565b898752602087015260408601526060850152608084015260a083015260c0820152600060e0820152604051906110da826118bd565b81526020810191825260e060405160208187516110fa8183858c01611976565b8101600781520301902091516111118151846121a7565b6111226020820151600185016121a7565b6111336040820151600285016121a7565b6111446060820151600385016121a7565b6004830160ff60808301511660ff1982541617905560a081015161116c8151600586016121a7565b602001516006840180546001600160a01b0319166001600160a01b039290921691909117905560c081015180516111a690600786016121a7565b602001516008840180546001600160a01b0319166001600160a01b039290921691909117905501516003811015610bc25761038995610b8386610b96602061120998610b7a88600a869b611201869b6009610ba59e01612178565b5191016121a7565b611212816127c1565b6126cb565b346101be5761122536611b86565b9060405161125082519160208181860194611241818388611976565b81016006815203019020611fa5565b9160096040516020818451611266818389611976565b8101600681520301902001600260ff198254161790556040516002825161128e818487611976565b8201916008835260208142940301902001556112c560405160208184516112b6818389611976565b8101600481520301902061230d565b60005b8451811015611304576001906112fe60405160208186516112ea81838b611976565b810160048152030190206102d08389612164565b016112c8565b84828560018060a01b0360025416602082018051916060840192835190823b156101be5761134f92600092838a9360405196879586948593631d38299760e31b855260048501612396565b03925af180156101b2576113b2575b5060018060a01b03600254169051604084015192519560a060ff6080870151169501515191833b156101be5761036f87936000979388946040519b8c998a9889976301fabf1f60e01b8952600489016123cd565b60006113bd916118f3565b8561135e565b346101be576113d136611b86565b604051906008835192602081818701956113ec818389611976565b6007908201908152030190200180546001600160a01b031916331790556040518351600991906020908290611422818389611976565b8101600781520301902001600160ff198254161790556040516001845161144a818487611976565b82019160088352602081429403019020015560005b815181101561153157611492604051602081875161147e81838a611976565b810160058152030190206102d08385612164565b60018060a01b036002541690600360405160208188516114b381838b611976565b810160068152030190200191803b156101be576114f46000916115069483604051809781958294627481d960e01b8452604060048501526044840190611df9565b8281036003190160248401528a611ab6565b03925af19182156101b257600192611520575b500161145f565b600061152b916118f3565b85611519565b610389846126cb565b346101be5760203660031901126101be576004356001600160401b0381116101be5761156a90369060040161192f565b60405181519060208181850193611582818387611976565b81016009815203019020549061159782612114565b9260005b8381106115b0576040518061018b8782611b0f565b806115e56115e06104ae6115db61058d60019661057e60208b8b604051938492839251928391611976565b611f23565b611fa5565b6115ef8288612164565b526115fa8187612164565b500161159b565b346101be5760203660031901126101be576004356001600160401b0381116101be576116346116b191369060040161192f565b61163c611e96565b50611645611f04565b5061169a6116946116846020604051855190828181890193611668818387611976565b8101600681520301902095604051938492839251928391611976565b8101600881520301902092611fa5565b9161208c565b61018b6040519384936080855260808501906119e7565b9160208401906040809180518452602081015160208501520151910152565b346101be5760003660031901126101be576002546040516001600160a01b039091168152602090f35b346101be5760203660031901126101be576004356001600160401b0381116101be5761172990369060040161192f565b60405181519060208181850193611741818387611976565b8101600a815203019020549061175682612114565b9260005b83811061176f576040518061018b8782611b0f565b8061179a6115e06104ae6115db61058d600196610f5b60208b8b604051938492839251928391611976565b6117a48288612164565b526117af8187612164565b500161175a565b346101be5760203660031901126101be576004356001600160401b0381116101be576117e9610e3991369060040161192f565b6117f1611ee4565b506117fa611f04565b5061018b604051611850610e1c610e1661184060208751958181818b019861182381838c611976565b810160078152030190209560405182818b51610dea818387611976565b8101600581520301902093612057565b610e5860405195869560a0875260a0870190611a89565b346101be5760003660031901126101be576001546001600160a01b03168152602090f35b61010081019081106001600160401b038211176118a757604052565b634e487b7160e01b600052604160045260246000fd5b604081019081106001600160401b038211176118a757604052565b606081019081106001600160401b038211176118a757604052565b90601f801991011681019081106001600160401b038211176118a757604052565b6001600160401b0381116118a757601f01601f191660200190565b81601f820112156101be5780359061194682611914565b9261195460405194856118f3565b828452602083830101116101be57816000926020809301838601378301015290565b60005b8381106119895750506000910152565b8181015183820152602001611979565b906020916119b281518092818552858086019101611976565b601f01601f1916010190565b9060206119d48351604084526040840190611999565b928101516001600160a01b031691015290565b9060e0611a75611a63611a44611a32611a20611a0e88516101008952610100890190611999565b602089015188820360208a0152611999565b60408801518782036040890152611999565b60608701518682036060880152611999565b60ff608087015116608086015260a086015185820360a08701526119be565b60c085015184820360c08601526119be565b920151906003821015610bc25760e0015290565b611ab3916020611aa283516040845260408401906119e7565b920151906020818403910152611999565b90565b9080602083519182815201916020808360051b8301019401926000915b838310611ae257505050505090565b9091929394602080611b00600193601f198682030187528951611999565b97019301930191939290611ad3565b602081016020825282518091526040820191602060408360051b8301019401926000915b838310611b4257505050505090565b9091929394602080611b60600193603f1986820301875289516119e7565b97019301930191939290611b33565b6001600160401b0381116118a75760051b60200190565b9060406003198301126101be576004356001600160401b0381116101be5782611bb19160040161192f565b91602435906001600160401b0382116101be57806023830112156101be578160040135611bdd81611b6f565b92611beb60405194856118f3565b8184526024602085019260051b820101918383116101be5760248201905b838210611c1857505050505090565b81356001600160401b0381116101be57602091611c3b876024859488010161192f565b815201910190611c09565b602081016020825282518091526040820191602060408360051b8301019401926000915b838310611c7957505050505090565b9091929394602080611c97600193603f198682030187528951611a89565b97019301930191939290611c6a565b906002821015610bc25752565b602081016020825282518091526040820191602060408360051b8301019401926000915b838310611ce657505050505090565b9091929394602080611d82600193603f1986820301875289519060c0611d52611d40611d2e611d1e865160e0875260e0870190611999565b888701518682038a880152611999565b60408601518582036040870152611999565b60608501518482036060860152611999565b9260ff6080820151166080840152611d7260a082015160a0850190611ca6565b01519060c0818403910152611999565b97019301930191939290611cd7565b8054821015611da95760005260206000200190600090565b634e487b7160e01b600052603260045260246000fd5b90600182811c92168015611def575b6020831014611dd957565b634e487b7160e01b600052602260045260246000fd5b91607f1691611dce565b60009291815491611e0983611dbf565b8083529260018116908115611e5f5750600114611e2557505050565b60009081526020812093945091925b838310611e45575060209250010190565b600181602092949394548385870101520191019190611e34565b915050602093945060ff929192191683830152151560051b010190565b60405190611e89826118bd565b6000602083606081520152565b60405190611ea38261188b565b600060e083606081526060602082015260606040820152606080820152826080820152611ece611e7c565b60a0820152611edb611e7c565b60c08201520152565b60405190611ef1826118bd565b6060602083611efe611e96565b81520152565b60405190611f11826118d8565b60006040838281528260208201520152565b6020611f3c918160405193828580945193849201611976565b8101600681520301902090565b6020611f62918160405193828580945193849201611976565b8101600781520301902090565b90604051611f7c816118bd565b60208193604051611f91816104ae8185611df9565b8352600101546001600160a01b0316910152565b90604051611fb28161188b565b60ff60098294604051611fc9816104ae8185611df9565b8452604051611fdf816104ae8160018601611df9565b6020850152604051611ff8816104ae8160028601611df9565b6040850152604051612011816104ae8160038601611df9565b606085015282600482015416608085015261202e60058201611f6f565b60a085015261203f60078201611f6f565b60c0850152015416906003821015610bc25760e00152565b90600a6020604051612068816118bd565b612088819561207681611fa5565b835261020b6040518096819301611df9565b0152565b90604051612099816118d8565b60406002829480548452600181015460208501520154910152565b9081546120c081611b6f565b926120ce60405194856118f3565b818452602084019060005260206000206000915b8383106120ef5750505050565b600160208192604051612106816104ae8189611df9565b8152019201920191906120e2565b9061211e82611b6f565b61212b60405191826118f3565b828152809261213c601f1991611b6f565b019060005b82811061214d57505050565b602090612158611e96565b82828501015201612141565b8051821015611da95760209160051b010190565b906003811015610bc25760ff80198354169116179055565b81811061219b575050565b60008155600101612190565b91909182516001600160401b0381116118a7576121c48254611dbf565b601f811161226a575b506020601f821160011461220857819293946000926121fd575b50508160011b916000199060031b1c1916179055565b0151905038806121e7565b601f1982169083600052806000209160005b81811061225257509583600195969710612239575b505050811b019055565b015160001960f88460031b161c1916905538808061222f565b9192602060018192868b01518155019401920161221a565b61229790836000526020600020601f840160051c8101916020851061229d575b601f0160051c0190612190565b386121cd565b909150819061228a565b600354600160401b8110156118a7578060016122c892016003556003611d91565b9190916122da576122d8916121a7565b565b634e487b7160e01b600052600060045260246000fd5b8054600160401b8110156118a7576122c891600182018155611d91565b805490600081558161231d575050565b6000526020600020908101905b818110612335575050565b8061234260019254611dbf565b8061234f575b500161232a565b601f811183146123655750600081555b38612348565b612383908260005283601f6020600020920160051c82019101612190565b806000526000602081208183555561235f565b916123bf906123b1611ab39593606086526060860190611999565b908482036020860152611999565b916040818403910152611ab6565b959161243494612412611ab3999795612404612420946123f660ff9760e08e8181520190611999565b8c810360208e015290611999565b908a820360408c0152611999565b9088820360608a0152611999565b9216608086015284820360a0860152611ab6565b9160c0818403910152611999565b9061244c82611b6f565b61245960405191826118f3565b828152809261246a601f1991611b6f565b019060005b82811061247b57505050565b602090612486611ee4565b8282850101520161246f565b81601f820112156101be5780516124a881611914565b926124b660405194856118f3565b818452602082840101116101be57611ab39160208085019101611976565b519060ff821682036101be57565b6020818303126101be578051906001600160401b0382116101be57019080601f830112156101be5781519161251683611b6f565b9261252460405194856118f3565b80845260208085019160051b830101918383116101be5760208101915b83831061255057505050505090565b82516001600160401b0381116101be5782019060e0828703601f1901126101be576040519060e082018281106001600160401b038211176118a75760405260208301516001600160401b0381116101be578760206125b092860101612492565b825260408301516001600160401b0381116101be578760206125d492860101612492565b602083015260608301516001600160401b0381116101be578760206125fb92860101612492565b604083015260808301516001600160401b0381116101be5787602061262292860101612492565b606083015261263360a084016124d4565b608083015260c083015160028110156101be5760a083015260e0830151916001600160401b0383116101be5761267188602080969581960101612492565b60c0820152815201920191612541565b916080936126b26126c0926126a460ff959a99989a60a0885260a0880190611999565b908682036020880152611999565b908482036040860152611999565b951660608201520152565b612708610c0260207f51442564a7c47c90ee6057daec7dada1d5132c3a496854bbc4c003de6f711336938160405193828580945193849201611976565b604081015161273360a0830151519160ff608060c08601515195015116604051948594429386612681565b0390a1565b61270861124160207f51442564a7c47c90ee6057daec7dada1d5132c3a496854bbc4c003de6f711336938160405193828580945193849201611976565b61277d611e7c565b506040519061278b826118bd565b81526000602082015290565b906127a0611e7c565b50604051916127ae836118bd565b82526001600160a01b0316602082015290565b6002604051916127d0836118d8565b42835260208301600081526127fc60206040860193600085528160405193828580945193849201611976565b81016008815203019020935184555160018401555191015556fea2646970667358221220c2bb8fe16a0490f51c112b84b41b3739dae0da01efc07bb217b5f1b8cda3201864736f6c634300081b0033",
  "linkReferences": {},
  "deployedLinkReferences": {}
}