{
  "_format": "hh-sol-artifact-1",
  "contractName": "OrderManagement",
  "sourceName": "contracts/OrderManagement.sol",
  "abi": [
    {
      "inputs": [
        {
          "internalType": "address",
          "name": "_obatTradisionalAddr",
          "type": "address"
        },
        {
          "internalType": "address",
          "name": "_roleManagerAddr",
          "type": "address"
        },
        {
          "internalType": "address",
          "name": "_obatSharedAddr",
          "type": "address"
        },
        {
          "internalType": "address",
          "name": "_cdobCertificateAddr",
          "type": "address"
        }
      ],
      "stateMutability": "nonpayable",
      "type": "constructor"
    },
    {
      "anonymous": false,
      "inputs": [
        {
          "indexed": false,
          "internalType": "string",
          "name": "batchName",
          "type": "string"
        },
        {
          "indexed": false,
          "internalType": "string",
          "name": "namaProduk",
          "type": "string"
        },
        {
          "indexed": false,
          "internalType": "string",
          "name": "buyerInstanceName",
          "type": "string"
        },
        {
          "indexed": false,
          "internalType": "string",
          "name": "sellerInstanceName",
          "type": "string"
        },
        {
          "indexed": false,
          "internalType": "uint8",
          "name": "orderQuantity",
          "type": "uint8"
        },
        {
          "indexed": false,
          "internalType": "uint256",
          "name": "timestamp",
          "type": "uint256"
        }
      ],
      "name": "evt_orderUpdate",
      "type": "event"
    },
    {
      "inputs": [
        {
          "internalType": "string",
          "name": "_orderId",
          "type": "string"
        },
        {
          "internalType": "string[]",
          "name": "_orderObatIpfs",
          "type": "string[]"
        }
      ],
      "name": "acceptOrderPbf",
      "outputs": [],
      "stateMutability": "nonpayable",
      "type": "function"
    },
    {
      "inputs": [
        {
          "internalType": "string",
          "name": "_orderId",
          "type": "string"
        },
        {
          "internalType": "string[]",
          "name": "_orderObatIpfs",
          "type": "string[]"
        }
      ],
      "name": "acceptOrderRetailer",
      "outputs": [],
      "stateMutability": "nonpayable",
      "type": "function"
    },
    {
      "inputs": [
        {
          "internalType": "uint256",
          "name": "",
          "type": "uint256"
        }
      ],
      "name": "allOrderId",
      "outputs": [
        {
          "internalType": "string",
          "name": "",
          "type": "string"
        }
      ],
      "stateMutability": "view",
      "type": "function"
    },
    {
      "inputs": [],
      "name": "cdobCertificate",
      "outputs": [
        {
          "internalType": "contract CdobCertificate",
          "name": "",
          "type": "address"
        }
      ],
      "stateMutability": "view",
      "type": "function"
    },
    {
      "inputs": [
        {
          "internalType": "string",
          "name": "_orderId",
          "type": "string"
        },
        {
          "internalType": "string[]",
          "name": "_orderObatIpfs",
          "type": "string[]"
        }
      ],
      "name": "completeOrderPbf",
      "outputs": [],
      "stateMutability": "nonpayable",
      "type": "function"
    },
    {
      "inputs": [
        {
          "internalType": "string",
          "name": "_orderId",
          "type": "string"
        },
        {
          "internalType": "string[]",
          "name": "_orderObatIpfs",
          "type": "string[]"
        }
      ],
      "name": "completeOrderRetailer",
      "outputs": [],
      "stateMutability": "nonpayable",
      "type": "function"
    },
    {
      "inputs": [
        {
          "internalType": "string",
          "name": "_prevOrderIdPbf",
          "type": "string"
        },
        {
          "internalType": "string",
          "name": "_orderId",
          "type": "string"
        },
        {
          "internalType": "string",
          "name": "_obatId",
          "type": "string"
        },
        {
          "internalType": "string",
          "name": "_batchName",
          "type": "string"
        },
        {
          "internalType": "string",
          "name": "_namaProduk",
          "type": "string"
        },
        {
          "internalType": "string",
          "name": "_buyerInstance",
          "type": "string"
        },
        {
          "internalType": "string",
          "name": "_sellerInstance",
          "type": "string"
        },
        {
          "internalType": "uint8",
          "name": "_orderQuantity",
          "type": "uint8"
        },
        {
          "internalType": "string",
          "name": "_cdobHash",
          "type": "string"
        }
      ],
      "name": "createOrder",
      "outputs": [],
      "stateMutability": "nonpayable",
      "type": "function"
    },
    {
      "inputs": [
        {
          "internalType": "string",
          "name": "_orderId",
          "type": "string"
        }
      ],
      "name": "detailOrder",
      "outputs": [
        {
          "components": [
            {
              "internalType": "string",
              "name": "orderId",
              "type": "string"
            },
            {
              "internalType": "string",
              "name": "obatId",
              "type": "string"
            },
            {
              "internalType": "string",
              "name": "namaProduk",
              "type": "string"
            },
            {
              "internalType": "string",
              "name": "batchName",
              "type": "string"
            },
            {
              "internalType": "uint8",
              "name": "orderQuantity",
              "type": "uint8"
            },
            {
              "components": [
                {
                  "internalType": "string",
                  "name": "instanceName",
                  "type": "string"
                },
                {
                  "internalType": "address",
                  "name": "instanceAddr",
                  "type": "address"
                }
              ],
              "internalType": "struct OrderManagement.st_orderUser",
              "name": "buyerUser",
              "type": "tuple"
            },
            {
              "components": [
                {
                  "internalType": "string",
                  "name": "instanceName",
                  "type": "string"
                },
                {
                  "internalType": "address",
                  "name": "instanceAddr",
                  "type": "address"
                }
              ],
              "internalType": "struct OrderManagement.st_orderUser",
              "name": "sellerUser",
              "type": "tuple"
            },
            {
              "internalType": "enum EnumsLibrary.OrderStatus",
              "name": "statusOrder",
              "type": "uint8"
            },
            {
              "internalType": "string",
              "name": "prevOrderIdPbf",
              "type": "string"
            }
          ],
          "internalType": "struct OrderManagement.st_obatOrder",
          "name": "",
          "type": "tuple"
        }
      ],
      "stateMutability": "view",
      "type": "function"
    },
    {
      "inputs": [
        {
          "internalType": "string",
          "name": "_instanceName",
          "type": "string"
        }
      ],
      "name": "getAllObatPbfByInstance",
      "outputs": [
        {
          "components": [
            {
              "internalType": "string",
              "name": "orderId",
              "type": "string"
            },
            {
              "internalType": "string",
              "name": "obatId",
              "type": "string"
            },
            {
              "internalType": "string",
              "name": "namaProduk",
              "type": "string"
            },
            {
              "internalType": "string",
              "name": "batchName",
              "type": "string"
            },
            {
              "internalType": "uint8",
              "name": "obatQuantity",
              "type": "uint8"
            },
            {
              "internalType": "enum EnumsLibrary.ObatAvailability",
              "name": "statusStok",
              "type": "uint8"
            },
            {
              "internalType": "string",
              "name": "ownerInstance",
              "type": "string"
            }
          ],
          "internalType": "struct ObatShared.st_obatOutputStock[]",
          "name": "",
          "type": "tuple[]"
        }
      ],
      "stateMutability": "view",
      "type": "function"
    },
    {
      "inputs": [],
      "name": "getAllObatPbfReadyStock",
      "outputs": [
        {
          "components": [
            {
              "internalType": "string",
              "name": "orderId",
              "type": "string"
            },
            {
              "internalType": "string",
              "name": "obatId",
              "type": "string"
            },
            {
              "internalType": "string",
              "name": "namaProduk",
              "type": "string"
            },
            {
              "internalType": "string",
              "name": "batchName",
              "type": "string"
            },
            {
              "internalType": "uint8",
              "name": "obatQuantity",
              "type": "uint8"
            },
            {
              "internalType": "enum EnumsLibrary.ObatAvailability",
              "name": "statusStok",
              "type": "uint8"
            },
            {
              "internalType": "string",
              "name": "ownerInstance",
              "type": "string"
            }
          ],
          "internalType": "struct ObatShared.st_obatOutputStock[]",
          "name": "",
          "type": "tuple[]"
        }
      ],
      "stateMutability": "view",
      "type": "function"
    },
    {
      "inputs": [
        {
          "internalType": "string",
          "name": "_instanceName",
          "type": "string"
        }
      ],
      "name": "getAllObatRetailerByInstance",
      "outputs": [
        {
          "components": [
            {
              "internalType": "string",
              "name": "orderId",
              "type": "string"
            },
            {
              "internalType": "string",
              "name": "obatId",
              "type": "string"
            },
            {
              "internalType": "string",
              "name": "namaProduk",
              "type": "string"
            },
            {
              "internalType": "string",
              "name": "batchName",
              "type": "string"
            },
            {
              "internalType": "uint8",
              "name": "obatQuantity",
              "type": "uint8"
            },
            {
              "internalType": "enum EnumsLibrary.ObatAvailability",
              "name": "statusStok",
              "type": "uint8"
            },
            {
              "internalType": "string",
              "name": "ownerInstance",
              "type": "string"
            }
          ],
          "internalType": "struct ObatShared.st_obatOutputStock[]",
          "name": "",
          "type": "tuple[]"
        }
      ],
      "stateMutability": "view",
      "type": "function"
    },
    {
      "inputs": [
        {
          "internalType": "string",
          "name": "_buyerInstance",
          "type": "string"
        }
      ],
      "name": "getAllOrderFromBuyer",
      "outputs": [
        {
          "components": [
            {
              "internalType": "string",
              "name": "orderId",
              "type": "string"
            },
            {
              "internalType": "string",
              "name": "obatId",
              "type": "string"
            },
            {
              "internalType": "string",
              "name": "namaProduk",
              "type": "string"
            },
            {
              "internalType": "string",
              "name": "batchName",
              "type": "string"
            },
            {
              "internalType": "uint8",
              "name": "orderQuantity",
              "type": "uint8"
            },
            {
              "components": [
                {
                  "internalType": "string",
                  "name": "instanceName",
                  "type": "string"
                },
                {
                  "internalType": "address",
                  "name": "instanceAddr",
                  "type": "address"
                }
              ],
              "internalType": "struct OrderManagement.st_orderUser",
              "name": "buyerUser",
              "type": "tuple"
            },
            {
              "components": [
                {
                  "internalType": "string",
                  "name": "instanceName",
                  "type": "string"
                },
                {
                  "internalType": "address",
                  "name": "instanceAddr",
                  "type": "address"
                }
              ],
              "internalType": "struct OrderManagement.st_orderUser",
              "name": "sellerUser",
              "type": "tuple"
            },
            {
              "internalType": "enum EnumsLibrary.OrderStatus",
              "name": "statusOrder",
              "type": "uint8"
            },
            {
              "internalType": "string",
              "name": "prevOrderIdPbf",
              "type": "string"
            }
          ],
          "internalType": "struct OrderManagement.st_obatOrder[]",
          "name": "",
          "type": "tuple[]"
        }
      ],
      "stateMutability": "view",
      "type": "function"
    },
    {
      "inputs": [
        {
          "internalType": "string",
          "name": "_sellerInstance",
          "type": "string"
        }
      ],
      "name": "getAllOrderFromSeller",
      "outputs": [
        {
          "components": [
            {
              "internalType": "string",
              "name": "orderId",
              "type": "string"
            },
            {
              "internalType": "string",
              "name": "obatId",
              "type": "string"
            },
            {
              "internalType": "string",
              "name": "namaProduk",
              "type": "string"
            },
            {
              "internalType": "string",
              "name": "batchName",
              "type": "string"
            },
            {
              "internalType": "uint8",
              "name": "orderQuantity",
              "type": "uint8"
            },
            {
              "components": [
                {
                  "internalType": "string",
                  "name": "instanceName",
                  "type": "string"
                },
                {
                  "internalType": "address",
                  "name": "instanceAddr",
                  "type": "address"
                }
              ],
              "internalType": "struct OrderManagement.st_orderUser",
              "name": "buyerUser",
              "type": "tuple"
            },
            {
              "components": [
                {
                  "internalType": "string",
                  "name": "instanceName",
                  "type": "string"
                },
                {
                  "internalType": "address",
                  "name": "instanceAddr",
                  "type": "address"
                }
              ],
              "internalType": "struct OrderManagement.st_orderUser",
              "name": "sellerUser",
              "type": "tuple"
            },
            {
              "internalType": "enum EnumsLibrary.OrderStatus",
              "name": "statusOrder",
              "type": "uint8"
            },
            {
              "internalType": "string",
              "name": "prevOrderIdPbf",
              "type": "string"
            }
          ],
          "internalType": "struct OrderManagement.st_obatOrder[]",
          "name": "",
          "type": "tuple[]"
        }
      ],
      "stateMutability": "view",
      "type": "function"
    },
    {
      "inputs": [
        {
          "internalType": "string",
          "name": "_orderId",
          "type": "string"
        }
      ],
      "name": "obatIpfs",
      "outputs": [
        {
          "internalType": "string[]",
          "name": "",
          "type": "string[]"
        }
      ],
      "stateMutability": "view",
      "type": "function"
    },
    {
      "inputs": [],
      "name": "obatShared",
      "outputs": [
        {
          "internalType": "contract ObatShared",
          "name": "",
          "type": "address"
        }
      ],
      "stateMutability": "view",
      "type": "function"
    },
    {
      "inputs": [],
      "name": "obatTradisional",
      "outputs": [
        {
          "internalType": "contract ObatTradisional",
          "name": "",
          "type": "address"
        }
      ],
      "stateMutability": "view",
      "type": "function"
    },
    {
      "inputs": [
        {
          "internalType": "string",
          "name": "_orderId",
          "type": "string"
        }
      ],
      "name": "orderTimestamp",
      "outputs": [
        {
          "components": [
            {
              "internalType": "uint256",
              "name": "timestampOrder",
              "type": "uint256"
            },
            {
              "internalType": "uint256",
              "name": "timestampShipped",
              "type": "uint256"
            },
            {
              "internalType": "uint256",
              "name": "timestampComplete",
              "type": "uint256"
            }
          ],
          "internalType": "struct OrderManagement.st_orderTimestamp",
          "name": "",
          "type": "tuple"
        }
      ],
      "stateMutability": "view",
      "type": "function"
    },
    {
      "inputs": [],
      "name": "roleManager",
      "outputs": [
        {
          "internalType": "contract RoleManager",
          "name": "",
          "type": "address"
        }
      ],
      "stateMutability": "view",
      "type": "function"
    }
  ],
  "bytecode": "0x60803460bd57601f61287d38819003918201601f19168301916001600160401b0383118484101760c15780849260809460405283398101031260bd5760428160d5565b90604d6020820160d5565b9160626060605c6040850160d5565b930160d5565b600180546001600160a01b03199081166001600160a01b03968716179091555f805482169386169390931790925560028054831693851693909317909255600380549091169190921617905560405161279490816100e98239f35b5f80fd5b634e487b7160e01b5f52604160045260245ffd5b51906001600160a01b038216820360bd5756fe6080806040526004361015610012575f80fd5b5f905f3560e01c908162435da514611a1f575080631c2fc29214611952578063271962d41461189b5780633fca88cb1461187357806360e4b3cf1461176e57806364484ac91461146e578063756b460f146110f5578063906ce017146110a0578063986a079014610f6b578063af3a175814610f42578063af9bf53d14610b2d578063b711e82b14610a88578063dd5739ae146109db578063e1336da514610978578063ea020d5914610951578063ee399ed414610677578063f07b2c7a146105c95763fc0e6523146100e3575f80fd5b346105c6576101203660031901126105c6576004356001600160401b0381116105c457610114903690600401611ae4565b906024356001600160401b0381116105c457610134903690600401611ae4565b6044356001600160401b03811161054657610153903690600401611ae4565b6064356001600160401b0381116105c057610172903690600401611ae4565b936084356001600160401b0381116105bc57610192903690600401611ae4565b60a4356001600160401b0381116105b8576101b1903690600401611ae4565b9060c4356001600160401b0381116105b4576101d1903690600401611ae4565b9660e4359060ff82168092036105b057610104356001600160401b0381116105ac57610201903690600401611ae4565b9261020a611fd8565b506040519361021885611a8d565b858552336020860152610229611fd8565b506040519561023787611a8d565b8b87528a6020880152600454600160401b8110156105985780600161026192016004556004611eb8565b61058457998b9c81809d949361027a82809d9e9f61228c565b604051818192516020819201835e8101600881520360200190209061029e91612384565b604051818192516020819201835e810160098152036020019020906102c291612384565b6040516102ce81611a72565b428152602081018381526040820190848252604051808c516020819e019d8e835e60079082019081520360200190209251835551600180840191909155905160029092019190915580546040516395a8c58d60e01b815233600482015260248101929092526001600160a01b0316816044815a93602094fa90811561057957839161054a575b506104be575b50506040519761036989611a42565b8989526020890190815260408901918252606089019283526080890193845260a0890194855260c0890195865260e08901968b88526101008a0198895260405180918c518091835e81016006815203602001902098516103c9908a61228c565b516103d79060018a0161228c565b516103e5906002890161228c565b516103f3906003880161228c565b60048601905160ff1660ff1982541617905551805160058601906104169161228c565b602001516006850180546001600160a01b0319166001600160a01b039290921691909117905551805161044c906007860161228c565b602001516008840180546001600160a01b0319166001600160a01b039290921691909117905551600983019060038110156104aa576104a2926104a7959492600a9260ff8019835416911617905551910161228c565b6125d3565b80f35b634e487b7160e01b86526021600452602486fd5b6002546001600160a01b0316803b1561054657610513918391610501838e604051968795869485936331cb1cc560e21b8552604060048601526044850190611b2a565b83810360031901602485015290611b2a565b03925af1801561053b571561035a578161052c91611aa8565b61053757895f61035a565b8980fd5b6040513d84823e3d90fd5b8280fd5b61056c915060203d602011610572575b6105648183611aa8565b8101906120e7565b5f610354565b503d61055a565b6040513d85823e3d90fd5b634e487b7160e01b8c5260048c905260248cfd5b634e487b7160e01b8c52604160045260248cfd5b8880fd5b8780fd5b8680fd5b8580fd5b8480fd5b8380fd5b505b80fd5b50346105c65760203660031901126105c657600435816001600160401b0382116105c6576105fe61062c923690600401611ae4565b60018060a01b0360025416604051808095819463783d963d60e11b8352602060048401526024830190611b2a565b03915afa90811561053b57826106509392610654575b505060405191829182611dd5565b0390f35b61067092503d8091833e6106688183611aa8565b810190612431565b5f80610642565b50346105c65761068636611d15565b6001546040516395a8c58d60e01b81523360048201526024810185905292939290602090829060449082906001600160a01b03165afa908115610579579061071d918491610932575b506040519064027b7363c960dd1b6020830152846025830152771031b0b7103237903a3434b9903a3930b739b0b1ba34b7b760411b6026830152601e8252610718603e83611aa8565b61213b565b6040516008845191602081818801948086835e6006908201908152030190200180546001600160a01b0319163317905560405184516009919060209082908086835e8101600681520301902001600160ff19825416179055604051600185518084845e8201916007835260208142940301902001556107b060405160208187518086835e8101600581520301902061220b565b825b82518110156107ee576001906107e860405160208189518088835e810160058152030190206107e18387612091565b5190612384565b016107b2565b508293929160018060a01b0360025416600160405160208188518088835e8101600681520301902001600360405160208189518089835e8101600681520301902001823b156105b857610878926108668780946040519687958694859363871811f160e01b8552606060048601526064850190611f19565b83810360031901602485015290611f19565b6001604483015203925af1908115610927578491610912575b5050600360018060a01b0360025416926020604051809288518091835e810160068152030190200190823b156105c0576108e4928492836040518096819582946329a2ac2760e11b8452600484016123c6565b03925af1801561053b576108fd575b506104a7826125d3565b8161090791611aa8565b6105c457815f6108f3565b8161091c91611aa8565b61054657825f610891565b6040513d86823e3d90fd5b61094b915060203d602011610572576105648183611aa8565b5f6106cf565b50346105c657806003193601126105c657546040516001600160a01b039091168152602090f35b50346105c65760203660031901126105c657600435816001600160401b0382116105c6576109ad61062c923690600401611ae4565b60018060a01b0360025416604051808095819463e1336da560e01b8352602060048401526024830190611b2a565b50346105c65760203660031901126105c6576004356004548110156105c457600454811015610a7457600482527f8a35acfbc15ff81a39ae7d344fd709f28e8600b4aa8c65c6b64bfe7fe36bd19b019080610a605760405161065090610a4c81610a458187611f19565b0382611aa8565b604051918291602083526020830190611b2a565b634e487b7160e01b81526004819052602490fd5b634e487b7160e01b82526032600452602482fd5b50346105c65760203660031901126105c6576004356001600160401b0381116105c4576020606092610abf82933690600401611ae4565b9060408051610acd81611a72565b82815282858201520152604051928184925191829101835e81016007815203019020604051610afb81611a72565b815491828252604060026001830154926020850193845201549201918252604051928352516020830152516040820152f35b50346105c657610b3c36611d15565b6001546040516395a8c58d60e01b81523360048201526003602482015292939290602090829060449082906001600160a01b03165afa9081156105795790610bd2918491610f23575b5060405164027b7363c960dd1b6020820152600360f81b6025820152771031b0b7103237903a3434b9903a3930b739b0b1ba34b7b760411b6026820152601e815290610718603e83611aa8565b604051600a845191602081818801948086835e8101600681520301902093610100604051610bff81611a42565b604051610c1081610a45818b611f19565b8152604051610c2681610a458160018c01611f19565b6020820152604051610c3f81610a458160028c01611f19565b6040820152610cc460405197610c6389610c5c8160038501611f19565b038a611aa8565b6060830198895260ff6004820154166080840152610c83600582016120a5565b60a0840152610c94600782016120a5565b60c0840152610cad60ff60098301541660e085016120db565b610cbd6040518097819301611f19565b0385611aa8565b01918252600960405160208189518088835e8101600681520301902001600260ff19825416179055604051600287518086845e820191600783526020814294030190200155610d1b610d168351611fb9565b61220b565b610d3960405160208189518088835e8101600581520301902061220b565b805b8451811015610d8757600190610d5e610d548551611fb9565b6107e18389612091565b610d816040516020818b51808a835e810160058152030190206107e18389612091565b01610d3b565b5060025485518791839186918891906001600160a01b0316803b156105bc57610dd285929183926040519485809481936330b3e0ef60e21b8352604060048401526044830190611b2a565b6001602483015203925af1908115610927578491610f0e575b505060018060a01b0360025416600160405160208188518088835e8101600681520301902001600360405160208189518089835e8101600681520301902001823b156105b857610e60926108668780946040519687958694859363871811f160e01b8552606060048601526064850190611f19565b6001604483015203925af1908115610927578491610ef9575b5050600360018060a01b0360025416926020604051809288518091835e810160068152030190200190823b156105c057610ecc928492836040518096819582946329a2ac2760e11b8452600484016123c6565b03925af1801561053b57610ee457506104a7826125d3565b81610eee91611aa8565b6105c45781836108f3565b81610f0391611aa8565b610546578286610e79565b81610f1891611aa8565b610546578286610deb565b610f3c915060203d602011610572576105648183611aa8565b5f610b85565b50346105c657806003193601126105c6576003546040516001600160a01b039091168152602090f35b50346105c65760203660031901126105c657600435906001600160401b0382116105c657610650602080610fa23660048701611ae4565b610faa611ff1565b50604051928184925191829101835e81016006815203019020600a61108660405192610fd584611a42565b604051610fe681610a458185611f19565b8452604051610ffc81610a458160018601611f19565b602085015260405161101581610a458160028601611f19565b604085015260405161102e81610a458160038601611f19565b606085015260ff600482015416608085015261104c600582016120a5565b60a085015261105d600782016120a5565b60c085015261107660ff60098301541660e086016120db565b610a456040518094819301611f19565b610100820152604051918291602083526020830190611b77565b50346105c657806003193601126105c65760025460405163906ce01760e01b8152908290829060049082906001600160a01b03165afa90811561053b5782610650939261065457505060405191829182611dd5565b50346105c65761110436611d15565b600180546040516395a8c58d60e01b81523360048201526024810192909252929392602090829060449082906001600160a01b03165afa908115610579579061117191849161144f575b506040519061071882611163602082016120ff565b03601f198101845283611aa8565b6040516009845191602081818801948086835e8101600681520301902001600260ff19825416179055604051600285518084845e8201916007835260208142940301902001556111d560405160208187518086835e8101600581520301902061220b565b825b825181101561120c5760019061120660405160208189518088835e810160058152030190206107e18387612091565b016111d7565b508293929160018060a01b0360025416600160405160208188518088835e8101600681520301902001600360405160208189518089835e8101600681520301902001823b156105b857611284926108668780946040519687958694859363871811f160e01b8552606060048601526064850190611f19565b6001604483015203925af190811561092757849161143a575b505060018060a01b036002541690600360405160208188518088835e810160068152030190200190823b156105bc576112ef928592836040518096819582946329a2ac2760e11b8452600484016123c6565b03925af1908115610579578391611425575b505060018060a01b0360025416600160405160208187518087835e810160068152030190200191600260405160208188518086835e810160068152030190200191600360405160208189518087835e810160068152030190200192600560ff60046040516020818c51808a835e8101600681520301902001541693602060405180928b518091835e810160068152030190200190823b156105b4576113ea956108e489956113d89461140e8b996113fc8b976040519d8e9c8d9b8c9a63d33d8a1360e01b8c5260c060048d015260c48c0190611f19565b8a81036003190160248c015290611b2a565b8881036003190160448a015290611f19565b86810360031901606488015290611f19565b9160848501526003198483030160a4850152611f19565b8161142f91611aa8565b6105c457815f611301565b8161144491611aa8565b61054657825f61129d565b611468915060203d602011610572576105648183611aa8565b5f61114e565b503461176a5761147d36611d15565b600180546040516395a8c58d60e01b81523360048201526024810192909252919291602090829060449082906001600160a01b03165afa801561175f576114d9915f9161144f57506040519061071882611163602082016120ff565b604051906008815192602081818501958087835e6006908201908152030190200180546001600160a01b0319163317905560405181516009919060209082908087835e8101600681520301902001600160ff19825416179055604051600182518085845e820191600783526020814294030190200155611573610d16600a60405160208186518089835e810160068152030190200161216b565b61159160405160208184518087835e8101600581520301902061220b565b5f5b83518110156115f6576001906115cd6115c3600a6040516020818851808b835e810160068152030190200161216b565b6107e18388612091565b6115f060405160208186518089835e810160058152030190206107e18388612091565b01611593565b509160018060a01b0360025416600160405160208187518088835e8101600681520301902001600360405160208188518089835e8101600681520301902001823b1561176a5761166b926108665f80946040519687958694859363871811f160e01b8552606060048601526064850190611f19565b6001604483015203925af1801561175f57611748575b5090839160018060a01b0360025416600360405160208188518088835e810160068152030190200190803b156105bc576116dd85929183926040519485809481936330b3e0ef60e21b8352604060048401526044830190611f19565b6001602483015203925af1908115610927578491610912575050600360018060a01b0360025416926020604051809288518091835e810160068152030190200190823b156105c0576108e4928492836040518096819582946329a2ac2760e11b8452600484016123c6565b611756919294505f90611aa8565b5f92905f611681565b6040513d5f823e3d90fd5b5f80fd5b3461176a57602036600319011261176a576004356001600160401b03811161176a5761179e903690600401611ae4565b604051815190602081818501938085835e8101600881520301902054906117c482612042565b925f5b8381106117dc57604051806106508782611c47565b80611819610a456118146118076001956040516020818a51808d835e81016008815203019020611eb8565b5060405192838092611f19565b611f9a565b600a6118516040519261182b84611a42565b60405161183c81610a458185611f19565b8452604051610ffc81610a45818a8601611f19565b6101008201526118618288612091565b5261186c8187612091565b50016117c7565b3461176a575f36600319011261176a576002546040516001600160a01b039091168152602090f35b3461176a57602036600319011261176a576004356001600160401b03811161176a5760206118ce81923690600401611ae4565b604051928184925191829101835e8101600581520301902080546118f181611cfe565b916118ff6040519384611aa8565b81835260208301905f5260205f205f915b83831061192d576040516020808252819061065090820188611ca6565b60016020819260405161194481610a458189611f19565b815201920192019190611910565b3461176a57602036600319011261176a576004356001600160401b03811161176a57611982903690600401611ae4565b604051815190602081818501938085835e8101600981520301902054906119a882612042565b925f5b8381106119c057604051806106508782611c47565b806119eb610a456118146118076001956040516020818a51808d835e81016009815203019020611eb8565b600a6119fd6040519261182b84611a42565b610100820152611a0d8288612091565b52611a188187612091565b50016119ab565b3461176a575f36600319011261176a576001546001600160a01b03168152602090f35b61012081019081106001600160401b03821117611a5e57604052565b634e487b7160e01b5f52604160045260245ffd5b606081019081106001600160401b03821117611a5e57604052565b604081019081106001600160401b03821117611a5e57604052565b90601f801991011681019081106001600160401b03821117611a5e57604052565b6001600160401b038111611a5e57601f01601f191660200190565b81601f8201121561176a57803590611afb82611ac9565b92611b096040519485611aa8565b8284526020838301011161176a57815f926020809301838601378301015290565b805180835260209291819084018484015e5f828201840152601f01601f1916010190565b906020611b648351604084526040840190611b2a565b928101516001600160a01b031691015290565b90611c03611bf1611bd2611bc0611bae611b9c87516101208852610120880190611b2a565b60208801518782036020890152611b2a565b60408701518682036040880152611b2a565b60608601518582036060870152611b2a565b60ff608086015116608085015260a085015184820360a0860152611b4e565b60c084015183820360c0850152611b4e565b9060e08301516003811015611c3357611c30936101009160e0840152015190610100818403910152611b2a565b90565b634e487b7160e01b5f52602160045260245ffd5b602081016020825282518091526040820191602060408360051b8301019401925f915b838310611c7957505050505090565b9091929394602080611c97600193603f198682030187528951611b77565b97019301930191939290611c6a565b9080602083519182815201916020808360051b8301019401925f915b838310611cd157505050505090565b9091929394602080611cef600193601f198682030187528951611b2a565b97019301930191939290611cc2565b6001600160401b038111611a5e5760051b60200190565b90604060031983011261176a576004356001600160401b03811161176a5782611d4091600401611ae4565b91602435906001600160401b03821161176a578060238301121561176a578160040135611d6c81611cfe565b92611d7a6040519485611aa8565b8184526024602085019260051b8201019183831161176a5760248201905b838210611da757505050505090565b81356001600160401b03811161176a57602091611dca8760248594880101611ae4565b815201910190611d98565b602081016020825282518091526040820190602060408260051b8501019401925f905b828210611e0757505050505090565b9091929394603f19828203018552855190611e6a611e58611e46611e34855160e0865260e0860190611b2a565b60208601518582036020870152611b2a565b60408501518482036040860152611b2a565b60608401518382036060850152611b2a565b9160ff608082015116608083015260a0810151906002821015611c33576001938360c0611eab936020969560a08897015201519060c0818403910152611b2a565b9701950193920190611df8565b8054821015611ecd575f5260205f2001905f90565b634e487b7160e01b5f52603260045260245ffd5b90600182811c92168015611f0f575b6020831014611efb57565b634e487b7160e01b5f52602260045260245ffd5b91607f1691611ef0565b5f9291815491611f2883611ee1565b8083529260018116908115611f7d5750600114611f4457505050565b5f9081526020812093945091925b838310611f63575060209250010190565b600181602092949394548385870101520191019190611f52565b915050602093945060ff929192191683830152151560051b010190565b60208091604051928184925191829101835e8101600681520301902090565b60208091604051928184925191829101835e8101600581520301902090565b60405190611fe582611a8d565b5f602083606081520152565b60405190611ffe82611a42565b60606101008382815282602082015282604082015282808201525f6080820152612026611fd8565b60a0820152612033611fd8565b60c08201525f60e08201520152565b9061204c82611cfe565b6120596040519182611aa8565b828152809261206a601f1991611cfe565b01905f5b82811061207a57505050565b602090612085611ff1565b8282850101520161206e565b8051821015611ecd5760209160051b010190565b906040516120b281611a8d565b602081936040516120c781610a458185611f19565b8352600101546001600160a01b0316910152565b6003821015611c335752565b9081602091031261176a5751801515810361176a5790565b64027b7363c960dd1b8152600160f81b6005820152771031b0b7103237903a3434b9903a3930b739b0b1ba34b7b760411b6006820152601e0190565b156121435750565b60405162461bcd60e51b815260206004820152908190612167906024830190611b2a565b0390fd5b60405190815f82549261217d84611ee1565b93600181169081156121db57506001146121a2575b5060209250600581520301902090565b9150505f528160205f205f905b8382106121c357505060209181015f612192565b602091925080600191548487015201910183916121af565b60ff191684525060209380151502830191505f9050612192565b818110612200575050565b5f81556001016121f5565b8054905f81558161221a575050565b5f5260205f20908101905b818110612230575050565b8061223d60019254611ee1565b8061224a575b5001612225565b601f8111831461225f57505f81555b5f612243565b61227b90825f5283601f60205f20920160051c820191016121f5565b805f525f6020812081835555612259565b91909182516001600160401b038111611a5e576122a98254611ee1565b601f8111612349575b506020601f82116001146122eb57819293945f926122e0575b50508160011b915f199060031b1c1916179055565b015190505f806122cb565b601f19821690835f52805f20915f5b81811061233157509583600195969710612319575b505050811b019055565b01515f1960f88460031b161c191690555f808061230f565b9192602060018192868b0151815501940192016122fa565b61237490835f5260205f20601f840160051c8101916020851061237a575b601f0160051c01906121f5565b5f6122b2565b9091508190612367565b8054600160401b811015611a5e576123a191600182018155611eb8565b9190916123b3576123b19161228c565b565b634e487b7160e01b5f525f60045260245ffd5b90916123dd611c3093604084526040840190611f19565b916020818403910152611ca6565b81601f8201121561176a5780519061240282611ac9565b926124106040519485611aa8565b8284526020838301011161176a57815f9260208093018386015e8301015290565b60208183031261176a578051906001600160401b03821161176a57019080601f8301121561176a5781519161246583611cfe565b926124736040519485611aa8565b80845260208085019160051b8301019183831161176a5760208101915b83831061249f57505050505090565b82516001600160401b03811161176a5782019060e0828703601f19011261176a576040519060e082018281106001600160401b03821117611a5e5760405260208301516001600160401b03811161176a578760206124ff928601016123eb565b825260408301516001600160401b03811161176a57876020612523928601016123eb565b602083015260608301516001600160401b03811161176a5787602061254a928601016123eb565b604083015260808301516001600160401b03811161176a57876020612571928601016123eb565b606083015260a083015160ff8116810361176a57608083015260c0830151600281101561176a5760a083015260e0830151916001600160401b03831161176a576125c3886020809695819601016123eb565b60c0820152815201920191612490565b6127236020807f18cb8d3b57e0af2974ed846dca439c7419023ccdf40b1d07099e3950c47c10b393612603611ff1565b50604051928184925191829101835e8101600681520301902060405161262881611a42565b60405161263981610a458186611f19565b815260405161264f81610a458160018701611f19565b602082015261274d6040519261266c84610cbd8160028501611f19565b6040830193845261273f604051916126928361268b8160038501611f19565b0384611aa8565b6060850192835261273160ff806004840154169460808801958652600a6101006126be600587016120a5565b9960a081019a8b526127006126d5600789016120a5565b9760c083019889526126f08760098301541660e085016120db565b61268b6040518096819301611f19565b01525197519651519251519451169560405198899860c08a5260c08a0190611b2a565b9088820360208a0152611b2a565b908682036040880152611b2a565b908482036060860152611b2a565b9060808301524260a08301520390a156fea264697066735822122066d6ca7fe8f3ecb0e24d27b8202673ee568f95d670e0ed5526b7179cbefc038664736f6c634300081b0033",
  "linkReferences": {},
  "deployedLinkReferences": {}
}