{
  "_format": "hh-sol-artifact-1",
  "contractName": "OrderManagement",
  "sourceName": "contracts/OrderManagement.sol",
  "abi": [
    {
      "inputs": [
        {
          "internalType": "address",
          "name": "_obatTradisionalAddr",
          "type": "address"
        },
        {
          "internalType": "address",
          "name": "_roleManagerAddr",
          "type": "address"
        },
        {
          "internalType": "address",
          "name": "_obatSharedAddr",
          "type": "address"
        },
        {
          "internalType": "address",
          "name": "_mainSupplyChainAddr",
          "type": "address"
        }
      ],
      "stateMutability": "nonpayable",
      "type": "constructor"
    },
    {
      "anonymous": false,
      "inputs": [
        {
          "indexed": false,
          "internalType": "string",
          "name": "batchName",
          "type": "string"
        },
        {
          "indexed": false,
          "internalType": "string",
          "name": "namaProduk",
          "type": "string"
        },
        {
          "indexed": false,
          "internalType": "string",
          "name": "buyerInstanceName",
          "type": "string"
        },
        {
          "indexed": false,
          "internalType": "string",
          "name": "sellerInstanceName",
          "type": "string"
        },
        {
          "indexed": false,
          "internalType": "uint8",
          "name": "orderQuantity",
          "type": "uint8"
        },
        {
          "indexed": false,
          "internalType": "uint256",
          "name": "timestamp",
          "type": "uint256"
        }
      ],
      "name": "evt_orderUpdate",
      "type": "event"
    },
    {
      "inputs": [
        {
          "internalType": "string",
          "name": "_orderId",
          "type": "string"
        },
        {
          "internalType": "string[]",
          "name": "_orderObatIpfs",
          "type": "string[]"
        }
      ],
      "name": "acceptOrderPbf",
      "outputs": [],
      "stateMutability": "nonpayable",
      "type": "function"
    },
    {
      "inputs": [
        {
          "internalType": "string",
          "name": "_orderId",
          "type": "string"
        },
        {
          "internalType": "string[]",
          "name": "_orderObatIpfs",
          "type": "string[]"
        }
      ],
      "name": "acceptOrderRetailer",
      "outputs": [],
      "stateMutability": "nonpayable",
      "type": "function"
    },
    {
      "inputs": [
        {
          "internalType": "uint256",
          "name": "",
          "type": "uint256"
        }
      ],
      "name": "allOrderId",
      "outputs": [
        {
          "internalType": "string",
          "name": "",
          "type": "string"
        }
      ],
      "stateMutability": "view",
      "type": "function"
    },
    {
      "inputs": [
        {
          "internalType": "string",
          "name": "_orderId",
          "type": "string"
        },
        {
          "internalType": "string[]",
          "name": "_orderObatIpfs",
          "type": "string[]"
        }
      ],
      "name": "completeOrderPbf",
      "outputs": [],
      "stateMutability": "nonpayable",
      "type": "function"
    },
    {
      "inputs": [
        {
          "internalType": "string",
          "name": "_orderId",
          "type": "string"
        },
        {
          "internalType": "string[]",
          "name": "_orderObatIpfs",
          "type": "string[]"
        }
      ],
      "name": "completeOrderRetailer",
      "outputs": [],
      "stateMutability": "nonpayable",
      "type": "function"
    },
    {
      "inputs": [
        {
          "internalType": "string",
          "name": "_prevOrderIdPbf",
          "type": "string"
        },
        {
          "internalType": "string",
          "name": "_orderId",
          "type": "string"
        },
        {
          "internalType": "string",
          "name": "_obatId",
          "type": "string"
        },
        {
          "internalType": "string",
          "name": "_batchName",
          "type": "string"
        },
        {
          "internalType": "string",
          "name": "_namaProduk",
          "type": "string"
        },
        {
          "internalType": "string",
          "name": "_buyerInstance",
          "type": "string"
        },
        {
          "internalType": "string",
          "name": "_sellerInstance",
          "type": "string"
        },
        {
          "internalType": "uint8",
          "name": "_orderQuantity",
          "type": "uint8"
        },
        {
          "internalType": "string",
          "name": "_cdobHash",
          "type": "string"
        }
      ],
      "name": "createOrder",
      "outputs": [],
      "stateMutability": "nonpayable",
      "type": "function"
    },
    {
      "inputs": [
        {
          "internalType": "string",
          "name": "_orderId",
          "type": "string"
        }
      ],
      "name": "detailOrder",
      "outputs": [
        {
          "components": [
            {
              "internalType": "string",
              "name": "orderId",
              "type": "string"
            },
            {
              "internalType": "string",
              "name": "obatId",
              "type": "string"
            },
            {
              "internalType": "string",
              "name": "namaProduk",
              "type": "string"
            },
            {
              "internalType": "string",
              "name": "batchName",
              "type": "string"
            },
            {
              "internalType": "uint8",
              "name": "orderQuantity",
              "type": "uint8"
            },
            {
              "components": [
                {
                  "internalType": "string",
                  "name": "instanceName",
                  "type": "string"
                },
                {
                  "internalType": "address",
                  "name": "instanceAddr",
                  "type": "address"
                }
              ],
              "internalType": "struct OrderManagement.st_orderUser",
              "name": "buyerUser",
              "type": "tuple"
            },
            {
              "components": [
                {
                  "internalType": "string",
                  "name": "instanceName",
                  "type": "string"
                },
                {
                  "internalType": "address",
                  "name": "instanceAddr",
                  "type": "address"
                }
              ],
              "internalType": "struct OrderManagement.st_orderUser",
              "name": "sellerUser",
              "type": "tuple"
            },
            {
              "internalType": "enum EnumsLibrary.OrderStatus",
              "name": "statusOrder",
              "type": "uint8"
            },
            {
              "internalType": "string",
              "name": "prevOrderIdPbf",
              "type": "string"
            }
          ],
          "internalType": "struct OrderManagement.st_obatOrder",
          "name": "",
          "type": "tuple"
        }
      ],
      "stateMutability": "view",
      "type": "function"
    },
    {
      "inputs": [
        {
          "internalType": "string",
          "name": "_instanceName",
          "type": "string"
        }
      ],
      "name": "getAllObatPbfByInstance",
      "outputs": [
        {
          "components": [
            {
              "internalType": "string",
              "name": "orderId",
              "type": "string"
            },
            {
              "internalType": "string",
              "name": "obatId",
              "type": "string"
            },
            {
              "internalType": "string",
              "name": "namaProduk",
              "type": "string"
            },
            {
              "internalType": "string",
              "name": "batchName",
              "type": "string"
            },
            {
              "internalType": "uint8",
              "name": "obatQuantity",
              "type": "uint8"
            },
            {
              "internalType": "enum EnumsLibrary.ObatAvailability",
              "name": "statusStok",
              "type": "uint8"
            },
            {
              "internalType": "string",
              "name": "ownerInstance",
              "type": "string"
            }
          ],
          "internalType": "struct ObatShared.st_obatOutputStock[]",
          "name": "",
          "type": "tuple[]"
        }
      ],
      "stateMutability": "view",
      "type": "function"
    },
    {
      "inputs": [],
      "name": "getAllObatPbfReadyStock",
      "outputs": [
        {
          "components": [
            {
              "internalType": "string",
              "name": "orderId",
              "type": "string"
            },
            {
              "internalType": "string",
              "name": "obatId",
              "type": "string"
            },
            {
              "internalType": "string",
              "name": "namaProduk",
              "type": "string"
            },
            {
              "internalType": "string",
              "name": "batchName",
              "type": "string"
            },
            {
              "internalType": "uint8",
              "name": "obatQuantity",
              "type": "uint8"
            },
            {
              "internalType": "enum EnumsLibrary.ObatAvailability",
              "name": "statusStok",
              "type": "uint8"
            },
            {
              "internalType": "string",
              "name": "ownerInstance",
              "type": "string"
            }
          ],
          "internalType": "struct ObatShared.st_obatOutputStock[]",
          "name": "",
          "type": "tuple[]"
        }
      ],
      "stateMutability": "view",
      "type": "function"
    },
    {
      "inputs": [
        {
          "internalType": "string",
          "name": "_instanceName",
          "type": "string"
        }
      ],
      "name": "getAllObatRetailerByInstance",
      "outputs": [
        {
          "components": [
            {
              "internalType": "string",
              "name": "orderId",
              "type": "string"
            },
            {
              "internalType": "string",
              "name": "obatId",
              "type": "string"
            },
            {
              "internalType": "string",
              "name": "namaProduk",
              "type": "string"
            },
            {
              "internalType": "string",
              "name": "batchName",
              "type": "string"
            },
            {
              "internalType": "uint8",
              "name": "obatQuantity",
              "type": "uint8"
            },
            {
              "internalType": "enum EnumsLibrary.ObatAvailability",
              "name": "statusStok",
              "type": "uint8"
            },
            {
              "internalType": "string",
              "name": "ownerInstance",
              "type": "string"
            }
          ],
          "internalType": "struct ObatShared.st_obatOutputStock[]",
          "name": "",
          "type": "tuple[]"
        }
      ],
      "stateMutability": "view",
      "type": "function"
    },
    {
      "inputs": [
        {
          "internalType": "string",
          "name": "_buyerInstance",
          "type": "string"
        }
      ],
      "name": "getAllOrderFromBuyer",
      "outputs": [
        {
          "components": [
            {
              "internalType": "string",
              "name": "orderId",
              "type": "string"
            },
            {
              "internalType": "string",
              "name": "obatId",
              "type": "string"
            },
            {
              "internalType": "string",
              "name": "namaProduk",
              "type": "string"
            },
            {
              "internalType": "string",
              "name": "batchName",
              "type": "string"
            },
            {
              "internalType": "uint8",
              "name": "orderQuantity",
              "type": "uint8"
            },
            {
              "components": [
                {
                  "internalType": "string",
                  "name": "instanceName",
                  "type": "string"
                },
                {
                  "internalType": "address",
                  "name": "instanceAddr",
                  "type": "address"
                }
              ],
              "internalType": "struct OrderManagement.st_orderUser",
              "name": "buyerUser",
              "type": "tuple"
            },
            {
              "components": [
                {
                  "internalType": "string",
                  "name": "instanceName",
                  "type": "string"
                },
                {
                  "internalType": "address",
                  "name": "instanceAddr",
                  "type": "address"
                }
              ],
              "internalType": "struct OrderManagement.st_orderUser",
              "name": "sellerUser",
              "type": "tuple"
            },
            {
              "internalType": "enum EnumsLibrary.OrderStatus",
              "name": "statusOrder",
              "type": "uint8"
            },
            {
              "internalType": "string",
              "name": "prevOrderIdPbf",
              "type": "string"
            }
          ],
          "internalType": "struct OrderManagement.st_obatOrder[]",
          "name": "",
          "type": "tuple[]"
        }
      ],
      "stateMutability": "view",
      "type": "function"
    },
    {
      "inputs": [
        {
          "internalType": "string",
          "name": "_sellerInstance",
          "type": "string"
        }
      ],
      "name": "getAllOrderFromSeller",
      "outputs": [
        {
          "components": [
            {
              "internalType": "string",
              "name": "orderId",
              "type": "string"
            },
            {
              "internalType": "string",
              "name": "obatId",
              "type": "string"
            },
            {
              "internalType": "string",
              "name": "namaProduk",
              "type": "string"
            },
            {
              "internalType": "string",
              "name": "batchName",
              "type": "string"
            },
            {
              "internalType": "uint8",
              "name": "orderQuantity",
              "type": "uint8"
            },
            {
              "components": [
                {
                  "internalType": "string",
                  "name": "instanceName",
                  "type": "string"
                },
                {
                  "internalType": "address",
                  "name": "instanceAddr",
                  "type": "address"
                }
              ],
              "internalType": "struct OrderManagement.st_orderUser",
              "name": "buyerUser",
              "type": "tuple"
            },
            {
              "components": [
                {
                  "internalType": "string",
                  "name": "instanceName",
                  "type": "string"
                },
                {
                  "internalType": "address",
                  "name": "instanceAddr",
                  "type": "address"
                }
              ],
              "internalType": "struct OrderManagement.st_orderUser",
              "name": "sellerUser",
              "type": "tuple"
            },
            {
              "internalType": "enum EnumsLibrary.OrderStatus",
              "name": "statusOrder",
              "type": "uint8"
            },
            {
              "internalType": "string",
              "name": "prevOrderIdPbf",
              "type": "string"
            }
          ],
          "internalType": "struct OrderManagement.st_obatOrder[]",
          "name": "",
          "type": "tuple[]"
        }
      ],
      "stateMutability": "view",
      "type": "function"
    },
    {
      "inputs": [],
      "name": "getAvailableObatFromFactory",
      "outputs": [
        {
          "components": [
            {
              "internalType": "string",
              "name": "obatId",
              "type": "string"
            },
            {
              "internalType": "string",
              "name": "namaProduk",
              "type": "string"
            },
            {
              "internalType": "string",
              "name": "batchName",
              "type": "string"
            },
            {
              "internalType": "uint8",
              "name": "obatQuantity",
              "type": "uint8"
            },
            {
              "internalType": "enum EnumsLibrary.ObatAvailability",
              "name": "statusStok",
              "type": "uint8"
            },
            {
              "internalType": "string",
              "name": "ownerInstance",
              "type": "string"
            }
          ],
          "internalType": "struct ObatTradisional.st_obatOutputBatch[]",
          "name": "",
          "type": "tuple[]"
        }
      ],
      "stateMutability": "view",
      "type": "function"
    },
    {
      "inputs": [],
      "name": "mainSupplyChain",
      "outputs": [
        {
          "internalType": "contract MainSupplyChain",
          "name": "",
          "type": "address"
        }
      ],
      "stateMutability": "view",
      "type": "function"
    },
    {
      "inputs": [
        {
          "internalType": "string",
          "name": "_orderId",
          "type": "string"
        }
      ],
      "name": "obatIpfs",
      "outputs": [
        {
          "internalType": "string[]",
          "name": "",
          "type": "string[]"
        }
      ],
      "stateMutability": "view",
      "type": "function"
    },
    {
      "inputs": [],
      "name": "obatShared",
      "outputs": [
        {
          "internalType": "contract ObatShared",
          "name": "",
          "type": "address"
        }
      ],
      "stateMutability": "view",
      "type": "function"
    },
    {
      "inputs": [],
      "name": "obatTradisional",
      "outputs": [
        {
          "internalType": "contract ObatTradisional",
          "name": "",
          "type": "address"
        }
      ],
      "stateMutability": "view",
      "type": "function"
    },
    {
      "inputs": [
        {
          "internalType": "string",
          "name": "_orderId",
          "type": "string"
        }
      ],
      "name": "orderTimestamp",
      "outputs": [
        {
          "components": [
            {
              "internalType": "uint256",
              "name": "timestampOrder",
              "type": "uint256"
            },
            {
              "internalType": "uint256",
              "name": "timestampShipped",
              "type": "uint256"
            },
            {
              "internalType": "uint256",
              "name": "timestampComplete",
              "type": "uint256"
            }
          ],
          "internalType": "struct OrderManagement.st_orderTimestamp",
          "name": "",
          "type": "tuple"
        }
      ],
      "stateMutability": "view",
      "type": "function"
    },
    {
      "inputs": [
        {
          "internalType": "string",
          "name": "_pbfName",
          "type": "string"
        },
        {
          "internalType": "uint8",
          "name": "_tipeObat",
          "type": "uint8"
        }
      ],
      "name": "pbfAvailableToBuy",
      "outputs": [
        {
          "internalType": "string",
          "name": "ipfsCert",
          "type": "string"
        }
      ],
      "stateMutability": "view",
      "type": "function"
    },
    {
      "inputs": [],
      "name": "roleManager",
      "outputs": [
        {
          "internalType": "contract RoleManager",
          "name": "",
          "type": "address"
        }
      ],
      "stateMutability": "view",
      "type": "function"
    }
  ],
  "bytecode": "0x60803460bd57601f612b5138819003918201601f19168301916001600160401b0383118484101760c15780849260809460405283398101031260bd5760428160d5565b90604d6020820160d5565b9160626060605c6040850160d5565b930160d5565b600180546001600160a01b03199081166001600160a01b03968716179091555f8054821693861693909317909255600280548316938516939093179092556003805490911691909216179055604051612a6890816100e98239f35b5f80fd5b634e487b7160e01b5f52604160045260245ffd5b51906001600160a01b038216820360bd5756fe6080806040526004361015610012575f80fd5b5f905f3560e01c908162435da514611af6575080630428706d14611aab5780631c2fc292146119e1578063271962d4146119325780633fca88cb1461190a57806360e4b3cf1461181f57806364484ac9146114b5578063756b460f1461125d578063906ce017146112085780639413fcfd146111df578063986a0790146110da578063af9bf53d14610dd1578063b711e82b14610d2c578063ce7ab1c714610a2d578063dd5739ae14610990578063e1336da51461092d578063ea020d5914610906578063ee399ed41461068d578063f07b2c7a146105df5763fc0e6523146100f9575f80fd5b346105dc576101203660031901126105dc576004356001600160401b0381116105da5761012a903690600401611bbb565b906024356001600160401b0381116105da5761014a903690600401611bbb565b6044356001600160401b03811161055c57610169903690600401611bbb565b6064356001600160401b0381116105d657610188903690600401611bbb565b936084356001600160401b0381116105d2576101a8903690600401611bbb565b60a4356001600160401b0381116105ce576101c7903690600401611bbb565b9060c4356001600160401b0381116105ca576101e7903690600401611bbb565b9660e4359060ff82168092036105c657610104356001600160401b0381116105c257610217903690600401611bbb565b926102206122ce565b506040519361022e85611b64565b85855233602086015261023f6122ce565b506040519561024d87611b64565b8b87528a6020880152600454600160401b8110156105ae5780600161027792016004556004611f96565b61059a57998b9c81809d949361029082809d9e9f612535565b604051818192516020819201835e810160088152036020019020906102b49161262d565b604051818192516020819201835e810160098152036020019020906102d89161262d565b6040516102e481611b49565b428152602081018381526040820190848252604051808c516020819e019d8e835e60079082019081520360200190209251835551600180840191909155905160029092019190915580546040516395a8c58d60e01b815233600482015260248101929092526001600160a01b0316816044815a93602094fa90811561058f578391610560575b506104d4575b50506040519761037f89611b19565b8989526020890190815260408901918252606089019283526080890193845260a0890194855260c0890195865260e08901968b88526101008a0198895260405180918c518091835e81016006815203602001902098516103df908a612535565b516103ed9060018a01612535565b516103fb9060028901612535565b516104099060038801612535565b60048601905160ff1660ff19825416179055518051600586019061042c91612535565b602001516006850180546001600160a01b0319166001600160a01b03929092169190911790555180516104629060078601612535565b602001516008840180546001600160a01b0319166001600160a01b039290921691909117905551600983019060038110156104c0576104b8926104bd959492600a9260ff80198354169116179055519101612535565b6128dd565b80f35b634e487b7160e01b86526021600452602486fd5b6002546001600160a01b0316803b1561055c57610529918391610517838e604051968795869485936331cb1cc560e21b8552604060048601526044850190611c01565b83810360031901602485015290611c01565b03925af180156105515715610370578161054291611b7f565b61054d57895f610370565b8980fd5b6040513d84823e3d90fd5b8280fd5b610582915060203d602011610588575b61057a8183611b7f565b8101906123c1565b5f61036a565b503d610570565b6040513d85823e3d90fd5b634e487b7160e01b8c5260048c905260248cfd5b634e487b7160e01b8c52604160045260248cfd5b8880fd5b8780fd5b8680fd5b8580fd5b8480fd5b8380fd5b505b80fd5b50346105dc5760203660031901126105dc57600435816001600160401b0382116105dc57610614610642923690600401611bbb565b60018060a01b0360025416604051808095819463783d963d60e11b8352602060048401526024830190611c01565b03915afa9081156105515782610666939261066a575b505060405191829182611eb9565b0390f35b61068692503d8091833e61067e8183611b7f565b81019061273e565b5f80610658565b50346105dc5761069c36611dec565b6001546040516395a8c58d60e01b81523360048201526024810185905292939290602090829060449082906001600160a01b03165afa90811561058f57906106eb9184916108e7575b506123d9565b60405192805193602081818401968088835e810160068152030190209260405161071481611b19565b61071d85611ff7565b815261072b60018601611ff7565b906020810191825261073f60028701611ff7565b60408201526101006107a9600a61075860038a01611ff7565b9860608501998a5260ff600482015416608086015261077960058201612387565b60a086015261078a60078201612387565b60c08601526107a360ff60098301541660e087016123b5565b01611ff7565b91015260086040516020818651808b835e6006908201908152030190200180546001600160a01b031916331790556040518351600991906020908290808b835e8101600681520301902001600160ff19825416179055604051600184518089845e82019160078352602081429403019020015561083a6040516020818651808b835e810160058152030190206124b4565b815b8451811015610878576001906108726040516020818851808d835e8101600581520301902061086b83896120eb565b519061262d565b0161083c565b506002549051855192948593926001600160a01b0316803b156105d2576108b99385809460405196879586948593631d38299760e31b85526004850161266d565b03925af18015610551576108d2575b506104bd826128dd565b816108dc91611b7f565b6105da5781836108c8565b610900915060203d6020116105885761057a8183611b7f565b5f6106e5565b50346105dc57806003193601126105dc57546040516001600160a01b039091168152602090f35b50346105dc5760203660031901126105dc57600435816001600160401b0382116105dc57610962610642923690600401611bbb565b60018060a01b0360025416604051808095819463e1336da560e01b8352602060048401526024830190611c01565b50346105dc5760203660031901126105dc576004356004548110156105da57600454811015610a1957600482527f8a35acfbc15ff81a39ae7d344fd709f28e8600b4aa8c65c6b64bfe7fe36bd19b019080610a05576106666109f183611ff7565b604051918291602083526020830190611c01565b634e487b7160e01b81526004819052602490fd5b634e487b7160e01b82526032600452602482fd5b50346105dc57806003193601126105dc57600180546040516395a8c58d60e01b81523360048201526024810192909252602090829060449082906001600160a01b03165afa801561055157610a889183916108e757506123d9565b8054604051630a1e0a4b60e41b8152908290829060049082906001600160a01b03165afa908115610551578291610b8a575b50906040519182916020830160208452825180915260408401602060408360051b870101940192905b828210610af257505050500390f35b91936001919395506020610b7a8192603f198a820301865288519060a0610b4a610b38610b28855160c0865260c0860190611c01565b8786015185820389870152611c01565b60408501518482036040860152611c01565b9260ff6060820151166060840152610b6a60808201516080850190611eac565b01519060a0818403910152611c01565b9601920192018594939192610ae3565b90503d8083833e610b9b8183611b7f565b81019060208183031261055c578051906001600160401b0382116105d6570181601f8201121561055c57805190610bd182611dd5565b92610bdf6040519485611b7f565b82845260208085019360051b830101918183116105ce5760208101935b838510610c0e5750505050505f610aba565b84516001600160401b0381116105c65782019060c0828503601f1901126105c6576040519060c082018281106001600160401b03821117610d185760405260208301516001600160401b03811161054d57856020610c6e92860101612097565b825260408301516001600160401b03811161054d57856020610c9292860101612097565b602083015260608301516001600160401b03811161054d57856020610cb992860101612097565b6040830152610cca608084016120dd565b606083015260a0830151600281101561054d57608083015260c0830151916001600160401b03831161054d57610d0886602080969581960101612097565b60a0820152815201940193610bfc565b634e487b7160e01b8a52604160045260248afd5b50346105dc5760203660031901126105dc576004356001600160401b0381116105da576020606092610d6382933690600401611bbb565b9060408051610d7181611b49565b82815282858201520152604051928184925191829101835e81016007815203019020604051610d9f81611b49565b815491828252604060026001830154926020850193845201549201918252604051928352516020830152516040820152f35b50346105dc57610de036611dec565b6001546040516395a8c58d60e01b8152336004820152600360248201529193929190602090829060449082906001600160a01b03165afa90811561058f5790610e2f9184916108e757506123d9565b60405190805191602081818401948086835e810160068152030190209260405190610e5982611b19565b610e6285611ff7565b8252610e7060018601611ff7565b60208301908152610e8360028701611ff7565b9560408401968752610e9760038201611ff7565b6060850190815260ff6004830154169260808601938452610100610eef600a610ec260058701612387565b9560a08a01968752610ed660078201612387565b60c08b01526107a360ff60098301541660e08c016123b5565b960195865260096040516020818a51808d835e8101600681520301902001600260ff1982541617905560405160028851808b845e820191600783526020814294030190200155610f47610f4287516122af565b6124b4565b610f656040516020818a51808d835e810160058152030190206124b4565b845b8a51811015610fb85780610fb28c61086b6001948d60208e610f978f610f8d90516122af565b61086b86896120eb565b604051928391518091835e81016005815203019020926120eb565b01610f67565b5084969550888a60018060a01b03600254168351855190823b1561054d57610ffc928a9283869360405196879586948593631d38299760e31b85526004850161266d565b03925af19081156110ba5788916110c5575b50506002548451906001600160a01b0316803b156105c2578289916110499383604051809681958294627481d960e01b8452600484016126a4565b03925af19081156110ba5788916110a5575b505060ff60018060a01b036002541693519251945196511694515191833b156105c6576108b9899389979388946040519a8b998a9889976306d512ff60e21b8952600489016126c9565b816110af91611b7f565b6105ca57868a61105b565b6040513d8a823e3d90fd5b816110cf91611b7f565b6105ca57868a61100e565b50346105dc5760203660031901126105dc57600435906001600160401b0382116105dc576106666020806111113660048701611bbb565b6111196122e7565b50604051928184925191829101835e810160068152030190206111c5600a6040519261114484611b19565b61114d81611ff7565b845261115b60018201611ff7565b602085015261116c60028201611ff7565b604085015261117d60038201611ff7565b606085015260ff600482015416608085015261119b60058201612387565b60a08501526111ac60078201612387565b60c08501526107a360ff60098301541660e086016123b5565b610100820152604051918291602083526020830190611c4e565b50346105dc57806003193601126105dc576003546040516001600160a01b039091168152602090f35b50346105dc57806003193601126105dc5760025460405163906ce01760e01b8152908290829060049082906001600160a01b03165afa9081156105515782610666939261066a57505060405191829182611eb9565b50346105dc5761126c36611dec565b600180546040516395a8c58d60e01b8152336004820152602481019290925291939291602090829060449082906001600160a01b03165afa90811561058f57906112bc9184916108e757506123d9565b60405190805191602081818401948086835e81016006815203019020926040516112e581611b19565b6112ee85611ff7565b81526112fc60018601611ff7565b946020820195865261131060028201611ff7565b956040830196875261132460038301611ff7565b906060840191825260ff6004840154169360808101948552610100611364600a61135060058801612387565b9660a0850197885261078a60078201612387565b91015260096040516020818951808c835e8101600681520301902001600260ff1982541617905560405160028751808a845e8201916007835260208142940301902001556113c66040516020818951808c835e810160058152030190206124b4565b845b895181101561140157806113fb8b61086b6001948c60208d604051928391518091835e81016005815203019020926120eb565b016113c8565b50849650878960018060a01b03600254168351855190823b1561054d57611444928a9283869360405196879586948593631d38299760e31b85526004850161266d565b03925af19081156110ba5788916114a0575b505060ff60018060a01b036002541693519251945196511694515191833b156105c6576108b9899389979388946040519a8b998a9889976301fabf1f60e01b8952600489016126c9565b816114aa91611b7f565b6105ca57868a611456565b50346117ec5760403660031901126117ec576004356001600160401b0381116117ec576114e6903690600401611bbb565b90602435916001600160401b0383116117ec57366023840112156117ec57826004013561151281611dd5565b936115206040519586611b7f565b8185526024602086019260051b820101903682116117ec5760248101925b8284106117f0575050600180546040516395a8c58d60e01b8152336004820152602481019290925290925060209150829060449082906001600160a01b03165afa80156117e157611595915f916108e757506123d9565b60405190805191602081818401948086835e8101600681520301902092604051936115bf85611b19565b6115c881611ff7565b85526115d660018201611ff7565b94602081019586526115ea60028301611ff7565b6040820152610100611624600a61160360038601611ff7565b946060850195865260ff600482015416608086015261077960058201612387565b910152600860405160208186518089835e6006908201908152030190200180546001600160a01b0319163317905560405183516009919060209082908089835e8101600681520301902001600160ff19825416179055604051600184518087845e8201916007835260208142940301902001556116bb610f42600a6040516020818851808b835e8101600681520301902001612414565b6116d960405160208186518089835e810160058152030190206124b4565b5f5b865181101561173e5760019061171561170b600a6040516020818a51808d835e8101600681520301902001612414565b61086b838b6120eb565b6117386040516020818851808b835e8101600581520301902061086b838b6120eb565b016116db565b508290868660018060a01b03600254169051835190823b156117ec57611780925f9283869360405196879586948593631d38299760e31b85526004850161266d565b03925af180156117e1576117ca575b50600254915184926001600160a01b031691823b156105d6576108b992849283604051809681958294627481d960e01b8452600484016126a4565b6117d8919294505f90611b7f565b5f92908461178f565b6040513d5f823e3d90fd5b5f80fd5b83356001600160401b0381116117ec57602091611814839260243691870101611bbb565b81520193019261153e565b346117ec5760203660031901126117ec576004356001600160401b0381116117ec5761184f903690600401611bbb565b604051815190602081818501938085835e81016008815203019020549061187582612338565b925f5b83811061188d57604051806106668782611d1e565b806118c06118bb6118b56001946040516020818951808c835e81016008815203019020611f96565b50611ff7565b612290565b6118e8600a604051926118d284611b19565b6118db81611ff7565b845261115b868201611ff7565b6101008201526118f882886120eb565b5261190381876120eb565b5001611878565b346117ec575f3660031901126117ec576002546040516001600160a01b039091168152602090f35b346117ec5760203660031901126117ec576004356001600160401b0381116117ec57602061196581923690600401611bbb565b604051928184925191829101835e81016005815203019020805461198881611dd5565b916119966040519384611b7f565b81835260208301905f5260205f205f915b8383106119c4576040516020808252819061066690820188611d7d565b6001602081926119d385611ff7565b8152019201920191906119a7565b346117ec5760203660031901126117ec576004356001600160401b0381116117ec57611a11903690600401611bbb565b604051815190602081818501938085835e810160098152030190205490611a3782612338565b925f5b838110611a4f57604051806106668782611d1e565b80611a776118bb6118b56001946040516020818951808c835e81016009815203019020611f96565b611a89600a604051926118d284611b19565b610100820152611a9982886120eb565b52611aa481876120eb565b5001611a3a565b346117ec5760403660031901126117ec576004356001600160401b0381116117ec57611adb903690600401611bbb565b6024359060ff821682036117ec57610666916109f1916120ff565b346117ec575f3660031901126117ec576001546001600160a01b03168152602090f35b61012081019081106001600160401b03821117611b3557604052565b634e487b7160e01b5f52604160045260245ffd5b606081019081106001600160401b03821117611b3557604052565b604081019081106001600160401b03821117611b3557604052565b90601f801991011681019081106001600160401b03821117611b3557604052565b6001600160401b038111611b3557601f01601f191660200190565b81601f820112156117ec57803590611bd282611ba0565b92611be06040519485611b7f565b828452602083830101116117ec57815f926020809301838601378301015290565b805180835260209291819084018484015e5f828201840152601f01601f1916010190565b906020611c3b8351604084526040840190611c01565b928101516001600160a01b031691015290565b90611cda611cc8611ca9611c97611c85611c7387516101208852610120880190611c01565b60208801518782036020890152611c01565b60408701518682036040880152611c01565b60608601518582036060870152611c01565b60ff608086015116608085015260a085015184820360a0860152611c25565b60c084015183820360c0850152611c25565b9060e08301516003811015611d0a57611d07936101009160e0840152015190610100818403910152611c01565b90565b634e487b7160e01b5f52602160045260245ffd5b602081016020825282518091526040820191602060408360051b8301019401925f915b838310611d5057505050505090565b9091929394602080611d6e600193603f198682030187528951611c4e565b97019301930191939290611d41565b9080602083519182815201916020808360051b8301019401925f915b838310611da857505050505090565b9091929394602080611dc6600193601f198682030187528951611c01565b97019301930191939290611d99565b6001600160401b038111611b355760051b60200190565b9060406003198301126117ec576004356001600160401b0381116117ec5782611e1791600401611bbb565b91602435906001600160401b0382116117ec57806023830112156117ec578160040135611e4381611dd5565b92611e516040519485611b7f565b8184526024602085019260051b820101918383116117ec5760248201905b838210611e7e57505050505090565b81356001600160401b0381116117ec57602091611ea18760248594880101611bbb565b815201910190611e6f565b906002821015611d0a5752565b602081016020825282518091526040820191602060408360051b8301019401925f915b838310611eeb57505050505090565b9091929394602080611f87600193603f1986820301875289519060c0611f57611f45611f33611f23865160e0875260e0870190611c01565b888701518682038a880152611c01565b60408601518582036040870152611c01565b60608501518482036060860152611c01565b9260ff6080820151166080840152611f7760a082015160a0850190611eac565b01519060c0818403910152611c01565b97019301930191939290611edc565b8054821015611fab575f5260205f2001905f90565b634e487b7160e01b5f52603260045260245ffd5b90600182811c92168015611fed575b6020831014611fd957565b634e487b7160e01b5f52602260045260245ffd5b91607f1691611fce565b9060405191825f82549261200a84611fbf565b80845293600181169081156120755750600114612031575b5061202f92500383611b7f565b565b90505f9291925260205f20905f915b81831061205957505090602061202f928201015f612022565b6020919350806001915483858901015201910190918492612040565b90506020925061202f94915060ff191682840152151560051b8201015f612022565b81601f820112156117ec578051906120ae82611ba0565b926120bc6040519485611b7f565b828452602083830101116117ec57815f9260208093018386015e8301015290565b519060ff821682036117ec57565b8051821015611fab5760209160051b010190565b5f6121329160018060a01b0360035416604051808095819463fb70545960e01b8352602060048401526024830190611c01565b03915afa9081156117e1575f9161219a575b505f5b81518110156121835760ff602061215e83856120eb565b5101511660ff84161461217357600101612147565b9061217e92506120eb565b515190565b505050604051612194602082611b7f565b5f815290565b90503d805f833e6121ab8183611b7f565b8101906020818303126117ec578051906001600160401b0382116117ec57019080601f830112156117ec578151916121e283611dd5565b926121f06040519485611b7f565b80845260208085019160051b830101918383116117ec5760208101915b83831061221f5750505050505f612144565b82516001600160401b0381116117ec578201906040828703601f1901126117ec576040519061224d82611b64565b6020830151916001600160401b0383116117ec576122816040856122798b602080999881990101612097565b8452016120dd565b8382015281520192019161220d565b60208091604051928184925191829101835e8101600681520301902090565b60208091604051928184925191829101835e8101600581520301902090565b604051906122db82611b64565b5f602083606081520152565b604051906122f482611b19565b60606101008382815282602082015282604082015282808201525f608082015261231c6122ce565b60a08201526123296122ce565b60c08201525f60e08201520152565b9061234282611dd5565b61234f6040519182611b7f565b8281528092612360601f1991611dd5565b01905f5b82811061237057505050565b60209061237b6122e7565b82828501015201612364565b9060405161239481611b64565b602081936123a181611ff7565b8352600101546001600160a01b0316910152565b6003821015611d0a5752565b908160209103126117ec575180151581036117ec5790565b156123e057565b60405162461bcd60e51b815260206004820152600c60248201526b155b985d5d1a1bdc9a5e995960a21b6044820152606490fd5b60405190815f82549261242684611fbf565b9360018116908115612484575060011461244b575b5060209250600581520301902090565b9150505f528160205f205f905b83821061246c57505060209181015f61243b565b60209192508060019154848701520191018391612458565b60ff191684525060209380151502830191505f905061243b565b8181106124a9575050565b5f815560010161249e565b8054905f8155816124c3575050565b5f5260205f20908101905b8181106124d9575050565b806124e660019254611fbf565b806124f3575b50016124ce565b601f8111831461250857505f81555b5f6124ec565b61252490825f5283601f60205f20920160051c8201910161249e565b805f525f6020812081835555612502565b91909182516001600160401b038111611b35576125528254611fbf565b601f81116125f2575b506020601f821160011461259457819293945f92612589575b50508160011b915f199060031b1c1916179055565b015190505f80612574565b601f19821690835f52805f20915f5b8181106125da575095836001959697106125c2575b505050811b019055565b01515f1960f88460031b161c191690555f80806125b8565b9192602060018192868b0151815501940192016125a3565b61261d90835f5260205f20601f840160051c81019160208510612623575b601f0160051c019061249e565b5f61255b565b9091508190612610565b8054600160401b811015611b355761264a91600182018155611f96565b91909161265a5761202f91612535565b634e487b7160e01b5f525f60045260245ffd5b9161269690612688611d079593606086526060860190611c01565b908482036020860152611c01565b916040818403910152611d7d565b90916126bb611d0793604084526040840190611c01565b916020818403910152611d7d565b95916127309461270e611d0799979561270061271c946126f260ff9760e08e8181520190611c01565b8c810360208e015290611c01565b908a820360408c0152611c01565b9088820360608a0152611c01565b9216608086015284820360a0860152611d7d565b9160c0818403910152611c01565b6020818303126117ec578051906001600160401b0382116117ec57019080601f830112156117ec5781519161277283611dd5565b926127806040519485611b7f565b80845260208085019160051b830101918383116117ec5760208101915b8383106127ac57505050505090565b82516001600160401b0381116117ec5782019060e0828703601f1901126117ec576040519060e082018281106001600160401b03821117611b355760405260208301516001600160401b0381116117ec5787602061280c92860101612097565b825260408301516001600160401b0381116117ec5787602061283092860101612097565b602083015260608301516001600160401b0381116117ec5787602061285792860101612097565b604083015260808301516001600160401b0381116117ec5787602061287e92860101612097565b606083015261288f60a084016120dd565b608083015260c083015160028110156117ec5760a083015260e0830151916001600160401b0383116117ec576128cd88602080969581960101612097565b60c082015281520192019161279d565b6129f76020807f18cb8d3b57e0af2974ed846dca439c7419023ccdf40b1d07099e3950c47c10b39361290d6122e7565b50604051928184925191829101835e8101600681520301902060405161293281611b19565b61293b82611ff7565b815261294960018301611ff7565b6020820152612a2161295d60028401611ff7565b9260408301938452612a1361297460038301611ff7565b9160608501928352612a0560ff80600484015416946080880195865261299c60058501612387565b9760a081019889526101006129d3600a6129b860078901612387565b9760c085019889526107a38760098301541660e087016123b5565b9101525197519651519251519451169560405198899860c08a5260c08a0190611c01565b9088820360208a0152611c01565b908682036040880152611c01565b908482036060860152611c01565b9060808301524260a08301520390a156fea2646970667358221220c8f3ce19596932826df74d464d69bfa11b7873f17ec5d2f108ca212d88984d8c64736f6c634300081b0033",
  "linkReferences": {},
  "deployedLinkReferences": {}
}