{
  "_format": "hh-sol-artifact-1",
  "contractName": "ObatTradisional",
  "sourceName": "contracts/ObatTradisional.sol",
  "abi": [
    {
      "inputs": [
        {
          "internalType": "address",
          "name": "_roleManagerAddr",
          "type": "address"
        },
        {
          "internalType": "address",
          "name": "_obatSharedAddr",
          "type": "address"
        },
        {
          "internalType": "address",
          "name": "_nieManagerAddr",
          "type": "address"
        }
      ],
      "stateMutability": "nonpayable",
      "type": "constructor"
    },
    {
      "anonymous": false,
      "inputs": [
        {
          "indexed": false,
          "internalType": "string",
          "name": "batchName",
          "type": "string"
        },
        {
          "indexed": false,
          "internalType": "uint8",
          "name": "quantity",
          "type": "uint8"
        },
        {
          "indexed": false,
          "internalType": "string",
          "name": "namaProduk",
          "type": "string"
        },
        {
          "indexed": false,
          "internalType": "string",
          "name": "factoryInstance",
          "type": "string"
        }
      ],
      "name": "AddObatBatchProduction",
      "type": "event"
    },
    {
      "anonymous": false,
      "inputs": [
        {
          "indexed": false,
          "internalType": "string",
          "name": "namaProduk",
          "type": "string"
        },
        {
          "indexed": false,
          "internalType": "uint256",
          "name": "tipeObat",
          "type": "uint256"
        },
        {
          "indexed": false,
          "internalType": "string",
          "name": "factoryInstance",
          "type": "string"
        },
        {
          "indexed": false,
          "internalType": "address",
          "name": "factoryAddresses",
          "type": "address"
        }
      ],
      "name": "ObatCreated",
      "type": "event"
    },
    {
      "inputs": [
        {
          "internalType": "uint256",
          "name": "",
          "type": "uint256"
        }
      ],
      "name": "AllObatIds",
      "outputs": [
        {
          "internalType": "string",
          "name": "",
          "type": "string"
        }
      ],
      "stateMutability": "view",
      "type": "function"
    },
    {
      "inputs": [
        {
          "internalType": "string",
          "name": "_obatId",
          "type": "string"
        },
        {
          "internalType": "string",
          "name": "_namaProduk",
          "type": "string"
        },
        {
          "internalType": "string",
          "name": "_batchName",
          "type": "string"
        },
        {
          "internalType": "uint8",
          "name": "_obatQuantity",
          "type": "uint8"
        },
        {
          "internalType": "string[]",
          "name": "_obatIpfsHash",
          "type": "string[]"
        },
        {
          "internalType": "string",
          "name": "_factoryInstance",
          "type": "string"
        }
      ],
      "name": "addBatchProduction",
      "outputs": [],
      "stateMutability": "nonpayable",
      "type": "function"
    },
    {
      "inputs": [
        {
          "internalType": "string",
          "name": "_obatId",
          "type": "string"
        },
        {
          "internalType": "string",
          "name": "_merk",
          "type": "string"
        },
        {
          "internalType": "string",
          "name": "_namaProduk",
          "type": "string"
        },
        {
          "internalType": "string[]",
          "name": "_klaim",
          "type": "string[]"
        },
        {
          "internalType": "string",
          "name": "_kemasan",
          "type": "string"
        },
        {
          "internalType": "string[]",
          "name": "_komposisi",
          "type": "string[]"
        },
        {
          "internalType": "string",
          "name": "_factoryInstance",
          "type": "string"
        },
        {
          "internalType": "enum EnumsLibrary.TipePermohonanCdob",
          "name": "_tipeObat",
          "type": "uint8"
        },
        {
          "internalType": "string",
          "name": "_cpotbIpfs",
          "type": "string"
        },
        {
          "internalType": "string",
          "name": "_jenisObat",
          "type": "string"
        }
      ],
      "name": "createObat",
      "outputs": [],
      "stateMutability": "nonpayable",
      "type": "function"
    },
    {
      "inputs": [
        {
          "internalType": "string",
          "name": "_obatId",
          "type": "string"
        },
        {
          "internalType": "string",
          "name": "_batchName",
          "type": "string"
        }
      ],
      "name": "detailBatchProduction",
      "outputs": [
        {
          "components": [
            {
              "internalType": "enum EnumsLibrary.ObatAvailability",
              "name": "statusStok",
              "type": "uint8"
            },
            {
              "internalType": "string",
              "name": "namaProduk",
              "type": "string"
            },
            {
              "internalType": "string",
              "name": "batchName",
              "type": "string"
            },
            {
              "internalType": "uint8",
              "name": "obatQuantity",
              "type": "uint8"
            },
            {
              "internalType": "string",
              "name": "factoryInstance",
              "type": "string"
            }
          ],
          "internalType": "struct ObatShared.ObatProduction",
          "name": "",
          "type": "tuple"
        },
        {
          "internalType": "string[]",
          "name": "",
          "type": "string[]"
        }
      ],
      "stateMutability": "view",
      "type": "function"
    },
    {
      "inputs": [
        {
          "internalType": "string",
          "name": "_obatId",
          "type": "string"
        }
      ],
      "name": "detailObat",
      "outputs": [
        {
          "components": [
            {
              "internalType": "string",
              "name": "merk",
              "type": "string"
            },
            {
              "internalType": "string",
              "name": "namaProduk",
              "type": "string"
            },
            {
              "internalType": "string[]",
              "name": "klaim",
              "type": "string[]"
            },
            {
              "internalType": "string[]",
              "name": "komposisi",
              "type": "string[]"
            },
            {
              "internalType": "string",
              "name": "kemasan",
              "type": "string"
            },
            {
              "internalType": "string",
              "name": "factoryInstance",
              "type": "string"
            },
            {
              "internalType": "address",
              "name": "factoryAddr",
              "type": "address"
            },
            {
              "internalType": "enum EnumsLibrary.TipePermohonanCdob",
              "name": "tipeObat",
              "type": "uint8"
            },
            {
              "internalType": "string",
              "name": "cpotbHash",
              "type": "string"
            },
            {
              "internalType": "string",
              "name": "cdobHash",
              "type": "string"
            },
            {
              "internalType": "string",
              "name": "jenisObat",
              "type": "string"
            }
          ],
          "internalType": "struct ObatShared.ObatDetail",
          "name": "",
          "type": "tuple"
        }
      ],
      "stateMutability": "view",
      "type": "function"
    },
    {
      "inputs": [
        {
          "internalType": "string",
          "name": "_instanceName",
          "type": "string"
        }
      ],
      "name": "getAllBatchProductionByInstance",
      "outputs": [
        {
          "components": [
            {
              "internalType": "string",
              "name": "obatId",
              "type": "string"
            },
            {
              "internalType": "string",
              "name": "namaProduk",
              "type": "string"
            },
            {
              "internalType": "string",
              "name": "batchName",
              "type": "string"
            },
            {
              "internalType": "uint8",
              "name": "obatQuantity",
              "type": "uint8"
            },
            {
              "internalType": "enum EnumsLibrary.ObatAvailability",
              "name": "statusStok",
              "type": "uint8"
            },
            {
              "internalType": "string",
              "name": "ownerInstance",
              "type": "string"
            }
          ],
          "internalType": "struct ObatTradisional.ObatOutputBatch[]",
          "name": "",
          "type": "tuple[]"
        }
      ],
      "stateMutability": "view",
      "type": "function"
    },
    {
      "inputs": [],
      "name": "getAllBatchProductionReadyStock",
      "outputs": [
        {
          "components": [
            {
              "internalType": "string",
              "name": "obatId",
              "type": "string"
            },
            {
              "internalType": "string",
              "name": "namaProduk",
              "type": "string"
            },
            {
              "internalType": "string",
              "name": "batchName",
              "type": "string"
            },
            {
              "internalType": "uint8",
              "name": "obatQuantity",
              "type": "uint8"
            },
            {
              "internalType": "enum EnumsLibrary.ObatAvailability",
              "name": "statusStok",
              "type": "uint8"
            },
            {
              "internalType": "string",
              "name": "ownerInstance",
              "type": "string"
            }
          ],
          "internalType": "struct ObatTradisional.ObatOutputBatch[]",
          "name": "",
          "type": "tuple[]"
        }
      ],
      "stateMutability": "view",
      "type": "function"
    },
    {
      "inputs": [],
      "name": "getAllObat",
      "outputs": [
        {
          "components": [
            {
              "internalType": "string",
              "name": "obatId",
              "type": "string"
            },
            {
              "internalType": "string",
              "name": "namaProduk",
              "type": "string"
            },
            {
              "internalType": "string",
              "name": "nieNumber",
              "type": "string"
            },
            {
              "internalType": "uint8",
              "name": "nieStatus",
              "type": "uint8"
            },
            {
              "internalType": "string",
              "name": "factoryInstance",
              "type": "string"
            }
          ],
          "internalType": "struct ObatTradisional.ObatOutputNie[]",
          "name": "",
          "type": "tuple[]"
        }
      ],
      "stateMutability": "view",
      "type": "function"
    },
    {
      "inputs": [
        {
          "internalType": "string",
          "name": "_instanceName",
          "type": "string"
        }
      ],
      "name": "getAllObatByInstance",
      "outputs": [
        {
          "components": [
            {
              "internalType": "string",
              "name": "obatId",
              "type": "string"
            },
            {
              "internalType": "string",
              "name": "namaProduk",
              "type": "string"
            },
            {
              "internalType": "string",
              "name": "nieNumber",
              "type": "string"
            },
            {
              "internalType": "uint8",
              "name": "nieStatus",
              "type": "uint8"
            },
            {
              "internalType": "string",
              "name": "factoryInstance",
              "type": "string"
            }
          ],
          "internalType": "struct ObatTradisional.ObatOutputNie[]",
          "name": "",
          "type": "tuple[]"
        }
      ],
      "stateMutability": "view",
      "type": "function"
    },
    {
      "inputs": [],
      "name": "nieManager",
      "outputs": [
        {
          "internalType": "contract NieManager",
          "name": "",
          "type": "address"
        }
      ],
      "stateMutability": "view",
      "type": "function"
    },
    {
      "inputs": [],
      "name": "obatShared",
      "outputs": [
        {
          "internalType": "contract ObatShared",
          "name": "",
          "type": "address"
        }
      ],
      "stateMutability": "view",
      "type": "function"
    },
    {
      "inputs": [],
      "name": "roleManager",
      "outputs": [
        {
          "internalType": "contract RoleManager",
          "name": "",
          "type": "address"
        }
      ],
      "stateMutability": "view",
      "type": "function"
    }
  ],
  "bytecode": "0x60803460a257601f61246f38819003918201601f19168301916001600160401b0383118484101760a65780849260609460405283398101031260a25760428160ba565b906057604060516020840160ba565b920160ba565b5f80546001600160a01b039485166001600160a01b0319918216179091556001805493851693821693909317909255600280549190931691161790556040516123a190816100ce8239f35b5f80fd5b634e487b7160e01b5f52604160045260245ffd5b51906001600160a01b038216820360a25756fe6080806040526004361015610012575f80fd5b5f905f3560e01c908162435da5146116b1575080631bbd28f91461137d5780633fca88cb146113555780634d17d2731461116157806350168fbb14610f795780635425368114610c8e57806373dce71514610c30578063a1e0a4b014610c09578063baeedfad14610893578063dd683b281461086b578063de966a72146103305763e521d586146100a1575f80fd5b3461032d5760c036600319011261032d576004356001600160401b03811161032b576100d1903690600401611775565b6024356001600160401b038111610327576100f0903690600401611775565b6044356001600160401b0381116102e95761010f903690600401611775565b906064359060ff82168092036102da57846084356001600160401b03811161032b5761013f903690600401611acd565b60a4356001600160401b0381116103275761015e903690600401611775565b82546040516395a8c58d60e01b81523360048201525f602482015291979190602090829060449082906001600160a01b03165afa801561031c576101a99185916102ed575b50611b63565b6001546001600160a01b031691823b156102e95761020a926101f88580946102466102348a9661021c8e6040519b8c9a8b998a98637290eac360e11b8a5260c060048b015260c48a01906117bb565b8881036003190160248a0152906117bb565b868103600319016044880152906117bb565b908d60648601526003198583030160848601526118c6565b8281036003190160a48401528d6117bb565b03925af180156102de576102bf575b50926102b9856102ab7f4fcbbb1d8af8186a49511da0542a88a07178358d87f68d90b008888e781eca4c95610298956040519687966080885260808801906117bb565b91602087015285820360408701526117bb565b9083820360608501526117bb565b0390a180f35b816102cd9195949395611739565b6102da579091845f610255565b8480fd5b6040513d84823e3d90fd5b8380fd5b61030f915060203d602011610315575b6103078183611739565b810190611b4b565b5f6101a3565b503d6102fd565b6040513d86823e3d90fd5b8280fd5b505b80fd5b503461086757610140366003190112610867576004356001600160401b03811161086757610362903690600401611775565b6024356001600160401b03811161086757610381903690600401611775565b6044356001600160401b038111610867576103a0903690600401611775565b916064356001600160401b038111610867576103c0903690600401611acd565b906084356001600160401b038111610867576103e0903690600401611775565b9160a4356001600160401b03811161086757610400903690600401611acd565b9260c4356001600160401b03811161086757610420903690600401611775565b9360e43595600287101561086757610104356001600160401b0381116108675761044e903690600401611775565b610124356001600160401b0381116108675761046e903690600401611775565b5f80546040516395a8c58d60e01b81523360048201526024810192909252919291602090829060449082906001600160a01b03165afa801561085c576104ba915f916102ed5750611b63565b6001546001600160a01b031694853b15610867576040516345c6f91f60e11b8152610160600482015296879586959091908d906104fb61016489018d6117bb565b8881036003190160248a0152610510916117bb565b878103600319016044890152610525916117bb565b86810360031901606488015261053a916118c6565b85810360031901608487015261054f916118c6565b8481036003190160a4860152610564916117bb565b8381036003190160c485015261057a90896117bb565b3360e48501526105898a6117df565b89610104850152600319848203016101248501526105a6916117bb565b828103600319016101448401526105bc916117bb565b03815a5f948591f1801561085c57610847575b5060025485906001600160a01b0316803b1561032b578160405180926356003e0d60e11b82526040600483015281838161062161060f604483018b6117bb565b8281036003190160248401528b6117bb565b03925af180156102de57610832575b50506003546801000000000000000081101561081e5780600161065692016003556119b2565b91909161080a578051906001600160401b0382116107f65761067883546119de565b601f81116107b1575b50602090601f83116001146107245792826106f996937f298589a24b2d5539a9208ce8de951a268d13ca7d6d00d508fc46d2cc17f0d48598969361070d968b92610719575b50508160011b915f199060031b1c19161790555b6106e3826117df565b60ff6040519586956080875260808701906117bb565b9216602085015283820360408501526117bb565b3360608301520390a180f35b015190505f806106c6565b8388528188209190601f198416895b8181106107995750937f298589a24b2d5539a9208ce8de951a268d13ca7d6d00d508fc46d2cc17f0d48598969361070d9693600193836106f99b9810610781575b505050811b0190556106da565b01515f1960f88460031b161c191690555f8080610774565b92936020600181928786015181550195019301610733565b83885260208820601f840160051c810191602085106107ec575b601f0160051c01905b8181106107e15750610681565b8881556001016107d4565b90915081906107cb565b634e487b7160e01b87526041600452602487fd5b634e487b7160e01b86526004869052602486fd5b634e487b7160e01b86526041600452602486fd5b8161083c91611739565b6102da57845f610630565b6108549195505f90611739565b5f935f6105cf565b6040513d5f823e3d90fd5b5f80fd5b34610867575f366003190112610867576002546040516001600160a01b039091168152602090f35b34610867576020366003190112610867576004356001600160401b038111610867576108c3903690600401611775565b5f80546040516395a8c58d60e01b81523360048201526024810192909252602090829060449082906001600160a01b03165afa801561085c5761090c915f91610bea5750611b63565b60035460015460208301915f916001600160a01b031690825b818110610b085750506109378261200c565b925f905f5b8481106109555760405180610951888261191e565b0390f35b610967610961826119b2565b50611a16565b604051636b2c133960e11b815260206004820152905f828061098c60248201856117bb565b0381895afa91821561085c575f92610ae4575b5060a082019081516040516109d36020828180820195805191829101875e81015f838201520301601f198101835282611739565b5190208a6040516109ff6020828181019451808c875e81015f838201520301601f198101835282611739565b51902014610a13575b50505060010161093c565b6002546040516374a5abcf60e01b815260206004820152949693949392905f9085906001600160a01b03168180610a4d60248201886117bb565b03915afa94851561085c57600195610ab29560ff925f915f93610abb575b506020015193519360405195610a8087611703565b8652602086015260408501521660608301526080820152610aa1828a611db2565b52610aac8189611db2565b50611dc6565b92908880610a08565b610adc919350602092503d805f833e610ad48183611739565b81019061207d565b929091610a6b565b610b019192503d805f833e610af98183611739565b810190611e66565b908961099f565b610b3a5f610b18610961846119b2565b60405180938192636b2c133960e11b83526020600484015260248301906117bb565b0381875afa801561085c5760a0915f91610bd0575b500151604051610b7e6020828180820195805191829101875e81015f838201520301601f198101835282611739565b5190206040516020810190610bab6020828b51808c875e81015f838201520301601f198101835282611739565b51902014610bbc575b600101610925565b92610bc8600191611dc6565b939050610bb4565b610be491503d805f833e610af98183611739565b88610b4f565b610c03915060203d602011610315576103078183611739565b836101a3565b34610867575f36600319011261086757610951610c246120df565b604051918291826117fd565b346108675760203660031901126108675760043560035481101561086757610c57906119b2565b610c7b57610c6761095191611a16565b6040519182916020835260208301906117bb565b634e487b7160e01b5f525f60045260245ffd5b34610867576040366003190112610867576004356001600160401b03811161086757610cbe903690600401611775565b6024356001600160401b03811161086757610cdd903690600401611775565b610ce56120b5565b506001546040516346abdd0560e11b8152602060048201526001600160a01b03909116925f9082908190610d1d9060248301906117bb565b0381865afa90811561085c575f91610f57575b50610d396120b5565b925f60405180926330804c3160e11b8252602060048301528180610d6060248201896117bb565b03915afa90811561085c575f91610f1a575b5091604051610da06020828180820195805191829101875e81015f838201520301601f198101835282611739565b5190205f5b8251811015610f0e57816040610dbb8386611db2565b510151604051610dea6020828180820195805191829101875e81015f838201520301601f198101835282611739565b51902014610dfa57600101610da5565b905060449350610e0991611db2565b51905b5f546040516395a8c58d60e01b8152336004820152600160248201529360209185919082906001600160a01b03165afa801561085c57610ec5935f91610eef575b50610ed3575b61095190604051938493604085528051610e6c816117df565b60408601526080610ea4610e8f602084015160a060608a015260e08901906117bb565b6040840151888203603f1901848a01526117bb565b606083015160ff1660a0880152910151858203603f190160c08701526117bb565b9083820360208501526118c6565b50610951604051610ee5602082611739565b5f81529050610e53565b610f08915060203d602011610315576103078183611739565b84610e4d565b50505090604491610e0c565b90503d805f833e610f2b8183611739565b81016020828203126108675781516001600160401b03811161086757610f519201611de8565b84610d72565b610f7391503d805f833e610f6b8183611739565b810190611c71565b83610d30565b34610867575f366003190112610867575f546040516395a8c58d60e01b81523360048201526002602482015290602090829060449082906001600160a01b03165afa90811561085c575f91611142575b501561111157600354610fdb8161200c565b6001546002546001600160a01b039182169391165f5b8281106110065760405180610951868261191e565b611012610961826119b2565b604051636b2c133960e11b81526020600482015291905f838061103860248201856117bb565b03818a5afa92831561085c575f936110f5575b506040516374a5abcf60e01b815260206004820152925f848061107160248201866117bb565b0381885afa93841561085c5760019460ff915f905f926110d8575b5060a0602085015194015193604051956110a587611703565b86526020860152604085015216606083015260808201526110c68287611db2565b526110d18186611db2565b5001610ff1565b90506110ee91503d805f833e610ad48183611739565b908b61108c565b61110a9193503d805f833e610af98183611739565b918761104b565b60405162461bcd60e51b81526020600482015260096024820152684f6e6c792042504f4d60b81b6044820152606490fd5b61115b915060203d602011610315576103078183611739565b81610fc9565b34610867576020366003190112610867576004356001600160401b038111610867575f611195611210923690600401611775565b60606101406040516111a6816116d3565b82815282602082015282604082015282808201528260808201528260a08201528460c08201528460e08201528261010082015282610120820152015260018060a01b03600154166040518080958194636b2c133960e11b83526020600484015260248301906117bb565b03915afa801561085c57610951915f9161133b575b50604051918291602083526101406113266113106112cf6112b96112a361128d6112776112618b61016060208c519201526101808d01906117bb565b60208a01518c8203601f190160408e01526117bb565b60408901518b8203601f190160608d01526118c6565b60608801518a8203601f190160808c01526118c6565b6080870151898203601f190160a08b01526117bb565b60a0860151888203601f190160c08a01526117bb565b60c08501516001600160a01b031660e0888101919091528501516112f2816117df565b610100880152610100850151601f19888303016101208901526117bb565b610120840151868203601f1901848801526117bb565b910151838203601f19016101608501526117bb565b61134f91503d805f833e610af98183611739565b82611225565b34610867575f366003190112610867576001546040516001600160a01b039091168152602090f35b34610867576020366003190112610867576004356001600160401b038111610867576113ad903690600401611775565b5f80546040516395a8c58d60e01b81523360048201526024810192909252602090829060449082906001600160a01b03165afa801561085c576113f6915f91610bea5750611b63565b5f6040519060208201835192611426602082818801968088875e81015f838201520301601f198101835282611739565b5190206003546001546001600160a01b031694909290915f905b8482106115b557505061145290611bce565b9261147c6020604051809382820195518091875e81015f838201520301601f198101835282611739565b5190205f5f925b808410611498576040518061095187826117fd565b6114a861096185969394956119b2565b91604051916346abdd0560e11b8352602060048401525f83806114ce60248201886117bb565b03818b5afa92831561085c575f93611599575b5082511561158b575f5b8351811015611579578660806115018387611db2565b5101516040516115306020828180820195805191829101875e81015f838201520301601f198101835282611739565b51902014611541575b6001016114eb565b9461157160019161155c6115558988611db2565b5188612308565b6115668287611db2565b52610aac8186611db2565b959050611539565b509493925094600191505b0192611483565b949392509460019150611584565b6115ae9193503d805f833e610f6b8183611739565b91886114e1565b9290946115ec92945f6115ca610961896119b2565b604051809681926346abdd0560e11b83526020600484015260248301906117bb565b03818b5afa93841561085c575f94611695575b50835115611686575f5b84518110156116735785608061161f8388611db2565b51015160405161164e6020828180820195805191829101875e81015f838201520301601f198101835282611739565b5190201461165f575b600101611609565b9561166b600191611dc6565b969050611657565b50949250946001909391935b0190611440565b9492509460019093919361167f565b6116aa9194503d805f833e610f6b8183611739565b92886115ff565b34610867575f366003190112610867575f546001600160a01b03168152602090f35b61016081019081106001600160401b038211176116ef57604052565b634e487b7160e01b5f52604160045260245ffd5b60a081019081106001600160401b038211176116ef57604052565b60c081019081106001600160401b038211176116ef57604052565b90601f801991011681019081106001600160401b038211176116ef57604052565b6001600160401b0381116116ef57601f01601f191660200190565b81601f820112156108675780359061178c8261175a565b9261179a6040519485611739565b8284526020838301011161086757815f926020809301838601378301015290565b805180835260209291819084018484015e5f828201840152601f01601f1916010190565b600211156117e957565b634e487b7160e01b5f52602160045260245ffd5b602081016020825282518091526040820191602060408360051b8301019401925f915b83831061182f57505050505090565b90919293946020806118b7600193603f1986820301875289519060a0611886611874611864855160c0865260c08601906117bb565b87860151858203898701526117bb565b604085015184820360408601526117bb565b9260ff606082015116606084015260808101516118a2816117df565b608084015201519060a08184039101526117bb565b97019301930191939290611820565b9080602083519182815201916020808360051b8301019401925f915b8383106118f157505050505090565b909192939460208061190f600193601f1986820301875289516117bb565b970193019301919392906118e2565b602081016020825282518091526040820191602060408360051b8301019401925f915b83831061195057505050505090565b90919293946020806119a3600193603f198682030187528951906080611985611874611864855160a0865260a08601906117bb565b9260ff606082015116606084015201519060808184039101526117bb565b97019301930191939290611941565b6003548110156119ca5760035f5260205f2001905f90565b634e487b7160e01b5f52603260045260245ffd5b90600182811c92168015611a0c575b60208310146119f857565b634e487b7160e01b5f52602260045260245ffd5b91607f16916119ed565b9060405191825f825492611a29846119de565b8084529360018116908115611a945750600114611a50575b50611a4e92500383611739565b565b90505f9291925260205f20905f915b818310611a78575050906020611a4e928201015f611a41565b6020919350806001915483858901015201910190918492611a5f565b905060209250611a4e94915060ff191682840152151560051b8201015f611a41565b6001600160401b0381116116ef5760051b60200190565b9080601f83011215610867578135611ae481611ab6565b92611af26040519485611739565b81845260208085019260051b820101918383116108675760208201905b838210611b1e57505050505090565b81356001600160401b03811161086757602091611b4087848094880101611775565b815201910190611b0f565b90816020910312610867575180151581036108675790565b15611b6a57565b60405162461bcd60e51b815260206004820152600c60248201526b4f6e6c7920466163746f727960a01b6044820152606490fd5b60405190611bab8261171e565b606060a0838281528260208201528260408201525f838201525f60808201520152565b90611bd882611ab6565b611be56040519182611739565b8281528092611bf6601f1991611ab6565b01905f5b828110611c0657505050565b602090611c11611b9e565b82828501015201611bfa565b81601f8201121561086757805190611c348261175a565b92611c426040519485611739565b8284526020838301011161086757815f9260208093018386015e8301015290565b519060ff8216820361086757565b602081830312610867578051906001600160401b03821161086757019080601f8301121561086757815191611ca583611ab6565b92611cb36040519485611739565b80845260208085019160051b830101918383116108675760208101915b838310611cdf57505050505090565b82516001600160401b0381116108675782019060a0828703601f1901126108675760405190611d0d82611703565b6020830151600281101561086757825260408301516001600160401b03811161086757876020611d3f92860101611c1d565b602083015260608301516001600160401b03811161086757876020611d6692860101611c1d565b6040830152611d7760808401611c63565b606083015260a0830151916001600160401b03831161086757611da288602080969581960101611c1d565b6080820152815201920191611cd0565b80518210156119ca5760209160051b010190565b5f198114611dd45760010190565b634e487b7160e01b5f52601160045260245ffd5b9080601f83011215610867578151611dff81611ab6565b92611e0d6040519485611739565b81845260208085019260051b820101918383116108675760208201905b838210611e3957505050505090565b81516001600160401b03811161086757602091611e5b87848094880101611c1d565b815201910190611e2a565b602081830312610867578051906001600160401b0382116108675701610160818303126108675760405191611e9a836116d3565b81516001600160401b0381116108675781611eb6918401611c1d565b835260208201516001600160401b0381116108675781611ed7918401611c1d565b602084015260408201516001600160401b0381116108675781611efb918401611de8565b604084015260608201516001600160401b0381116108675781611f1f918401611de8565b606084015260808201516001600160401b0381116108675781611f43918401611c1d565b608084015260a08201516001600160401b0381116108675781611f67918401611c1d565b60a084015260c08201516001600160a01b03811681036108675760c084015260e082015160028110156108675760e08401526101008201516001600160401b0381116108675781611fb9918401611c1d565b6101008401526101208201516001600160401b0381116108675781611fdf918401611c1d565b6101208401526101408201516001600160401b038111610867576120039201611c1d565b61014082015290565b9061201682611ab6565b6120236040519182611739565b8281528092612034601f1991611ab6565b01905f5b82811061204457505050565b60209060405161205381611703565b60608152606083820152606060408201525f60608201526060608082015282828501015201612038565b9190604083820312610867578251906001600160401b038211610867576120ab6020916120b2938601611c1d565b9301611c63565b90565b604051906120c282611703565b60606080835f81528260208201528260408201525f838201520152565b6003546001546001600160a01b03165f805b838110612235575080156121fb5761210b90929192611bce565b905f905f935b81851061212057505050905090565b61212c610961866119b2565b91604051916346abdd0560e11b8352602060048401525f838061215260248201886117bb565b0381845afa92831561085c575f936121df575b505f5b83518110156121ce5761217b8185611db2565b5151612186816117df565b61218f816117df565b1561219d575b600101612168565b946121c66001916121b16115558988611db2565b6121bb828b611db2565b52610aac818a611db2565b959050612195565b506001909601959092509050612111565b6121f49193503d805f833e610f6b8183611739565b915f612165565b50505060405161220c602082611739565b5f81525f805b81811061221e57505090565b602090612229611b9e565b82828601015201612212565b929161226b91925f612249610961876119b2565b604051809581926346abdd0560e11b83526020600484015260248301906117bb565b0381855afa92831561085c575f936122ec575b508251156122e0575f5b83518110156122d15761229b8185611db2565b51516122a6816117df565b6122af816117df565b156122bd575b600101612288565b936122c9600191611dc6565b9490506122b5565b50936001919392505b016120f1565b936001919392506122da565b6123019193503d805f833e610f6b8183611739565b915f61227e565b90612311611b9e565b50602081015190604081015160ff606083015116906080835193612334856117df565b015193604051956123448761171e565b865260208601526040850152606084015261235e816117df565b608083015260a08201529056fea2646970667358221220321c1069506e29dbd053674b696c485d93829aefcfbf855e0130a804d51a16a964736f6c634300081b0033",
  "linkReferences": {},
  "deployedLinkReferences": {}
}