{
  "_format": "hh-sol-artifact-1",
  "contractName": "ObatTradisional",
  "sourceName": "contracts/ObatTradisional.sol",
  "abi": [
    {
      "inputs": [
        {
          "internalType": "address",
          "name": "roleManagerAddr",
          "type": "address"
        },
        {
          "internalType": "address",
          "name": "obatSharedAddr",
          "type": "address"
        },
        {
          "internalType": "address",
          "name": "nieManagerAddr",
          "type": "address"
        }
      ],
      "stateMutability": "nonpayable",
      "type": "constructor"
    },
    {
      "inputs": [],
      "name": "ReentrancyGuardReentrantCall",
      "type": "error"
    },
    {
      "anonymous": false,
      "inputs": [
        {
          "indexed": false,
          "internalType": "string",
          "name": "batchName",
          "type": "string"
        },
        {
          "indexed": false,
          "internalType": "uint8",
          "name": "quantity",
          "type": "uint8"
        },
        {
          "indexed": false,
          "internalType": "string",
          "name": "namaProduk",
          "type": "string"
        },
        {
          "indexed": false,
          "internalType": "string",
          "name": "factoryInstance",
          "type": "string"
        },
        {
          "indexed": false,
          "internalType": "uint256",
          "name": "timestamp",
          "type": "uint256"
        }
      ],
      "name": "AddObatBatchProduction",
      "type": "event"
    },
    {
      "anonymous": false,
      "inputs": [
        {
          "indexed": false,
          "internalType": "string",
          "name": "namaProduk",
          "type": "string"
        },
        {
          "indexed": false,
          "internalType": "uint256",
          "name": "tipeObat",
          "type": "uint256"
        },
        {
          "indexed": false,
          "internalType": "string",
          "name": "factoryInstance",
          "type": "string"
        },
        {
          "indexed": false,
          "internalType": "address",
          "name": "factoryAddresses",
          "type": "address"
        },
        {
          "indexed": false,
          "internalType": "uint256",
          "name": "timestamp",
          "type": "uint256"
        }
      ],
      "name": "ObatCreated",
      "type": "event"
    },
    {
      "inputs": [
        {
          "internalType": "string",
          "name": "obatId",
          "type": "string"
        },
        {
          "internalType": "string",
          "name": "namaProduk",
          "type": "string"
        },
        {
          "internalType": "string",
          "name": "batchName",
          "type": "string"
        },
        {
          "internalType": "uint8",
          "name": "obatQuantity",
          "type": "uint8"
        },
        {
          "internalType": "string[]",
          "name": "obatIpfs",
          "type": "string[]"
        },
        {
          "internalType": "string",
          "name": "factoryInstance",
          "type": "string"
        }
      ],
      "name": "addBatchProduction",
      "outputs": [],
      "stateMutability": "nonpayable",
      "type": "function"
    },
    {
      "inputs": [
        {
          "internalType": "uint256",
          "name": "",
          "type": "uint256"
        }
      ],
      "name": "allObatIds",
      "outputs": [
        {
          "internalType": "string",
          "name": "",
          "type": "string"
        }
      ],
      "stateMutability": "view",
      "type": "function"
    },
    {
      "inputs": [
        {
          "internalType": "string",
          "name": "obatId",
          "type": "string"
        },
        {
          "internalType": "string",
          "name": "merk",
          "type": "string"
        },
        {
          "internalType": "string",
          "name": "namaProduk",
          "type": "string"
        },
        {
          "internalType": "string[]",
          "name": "klaim",
          "type": "string[]"
        },
        {
          "internalType": "string",
          "name": "kemasan",
          "type": "string"
        },
        {
          "internalType": "string[]",
          "name": "komposisi",
          "type": "string[]"
        },
        {
          "internalType": "string",
          "name": "factoryInstance",
          "type": "string"
        },
        {
          "internalType": "enum EnumsLibrary.TipePermohonanCdob",
          "name": "tipeObat",
          "type": "uint8"
        },
        {
          "internalType": "string",
          "name": "cpotbIpfs",
          "type": "string"
        },
        {
          "internalType": "string",
          "name": "jenisObat",
          "type": "string"
        }
      ],
      "name": "createObat",
      "outputs": [],
      "stateMutability": "nonpayable",
      "type": "function"
    },
    {
      "inputs": [
        {
          "internalType": "string",
          "name": "obatId",
          "type": "string"
        },
        {
          "internalType": "string",
          "name": "batchName",
          "type": "string"
        }
      ],
      "name": "detailBatchProduction",
      "outputs": [
        {
          "components": [
            {
              "internalType": "enum EnumsLibrary.ObatAvailability",
              "name": "statusStok",
              "type": "uint8"
            },
            {
              "internalType": "string",
              "name": "namaProduk",
              "type": "string"
            },
            {
              "internalType": "string",
              "name": "batchName",
              "type": "string"
            },
            {
              "internalType": "uint8",
              "name": "obatQuantity",
              "type": "uint8"
            },
            {
              "internalType": "string",
              "name": "factoryInstance",
              "type": "string"
            }
          ],
          "internalType": "struct ObatShared.ObatProduction",
          "name": "",
          "type": "tuple"
        },
        {
          "internalType": "string[]",
          "name": "",
          "type": "string[]"
        }
      ],
      "stateMutability": "view",
      "type": "function"
    },
    {
      "inputs": [
        {
          "internalType": "string",
          "name": "obatId",
          "type": "string"
        }
      ],
      "name": "detailObat",
      "outputs": [
        {
          "components": [
            {
              "internalType": "string",
              "name": "merk",
              "type": "string"
            },
            {
              "internalType": "string",
              "name": "namaProduk",
              "type": "string"
            },
            {
              "internalType": "string[]",
              "name": "klaim",
              "type": "string[]"
            },
            {
              "internalType": "string[]",
              "name": "komposisi",
              "type": "string[]"
            },
            {
              "internalType": "string",
              "name": "kemasan",
              "type": "string"
            },
            {
              "internalType": "string",
              "name": "factoryInstance",
              "type": "string"
            },
            {
              "internalType": "address",
              "name": "factoryAddr",
              "type": "address"
            },
            {
              "internalType": "enum EnumsLibrary.TipePermohonanCdob",
              "name": "tipeObat",
              "type": "uint8"
            },
            {
              "internalType": "string",
              "name": "cpotbHash",
              "type": "string"
            },
            {
              "internalType": "string",
              "name": "cdobHash",
              "type": "string"
            },
            {
              "internalType": "string",
              "name": "jenisObat",
              "type": "string"
            }
          ],
          "internalType": "struct ObatShared.ObatDetail",
          "name": "",
          "type": "tuple"
        }
      ],
      "stateMutability": "view",
      "type": "function"
    },
    {
      "inputs": [
        {
          "internalType": "string",
          "name": "instanceName",
          "type": "string"
        }
      ],
      "name": "getAllBatchProductionByInstance",
      "outputs": [
        {
          "components": [
            {
              "internalType": "string",
              "name": "obatId",
              "type": "string"
            },
            {
              "internalType": "string",
              "name": "namaProduk",
              "type": "string"
            },
            {
              "internalType": "string",
              "name": "batchName",
              "type": "string"
            },
            {
              "internalType": "uint8",
              "name": "obatQuantity",
              "type": "uint8"
            },
            {
              "internalType": "enum EnumsLibrary.ObatAvailability",
              "name": "statusStok",
              "type": "uint8"
            },
            {
              "internalType": "string",
              "name": "ownerInstance",
              "type": "string"
            }
          ],
          "internalType": "struct ObatTradisional.ObatOutputBatch[]",
          "name": "",
          "type": "tuple[]"
        }
      ],
      "stateMutability": "view",
      "type": "function"
    },
    {
      "inputs": [],
      "name": "getAllBatchProductionReadyStock",
      "outputs": [
        {
          "components": [
            {
              "internalType": "string",
              "name": "obatId",
              "type": "string"
            },
            {
              "internalType": "string",
              "name": "namaProduk",
              "type": "string"
            },
            {
              "internalType": "string",
              "name": "batchName",
              "type": "string"
            },
            {
              "internalType": "uint8",
              "name": "obatQuantity",
              "type": "uint8"
            },
            {
              "internalType": "enum EnumsLibrary.ObatAvailability",
              "name": "statusStok",
              "type": "uint8"
            },
            {
              "internalType": "string",
              "name": "ownerInstance",
              "type": "string"
            }
          ],
          "internalType": "struct ObatTradisional.ObatOutputBatch[]",
          "name": "",
          "type": "tuple[]"
        }
      ],
      "stateMutability": "view",
      "type": "function"
    },
    {
      "inputs": [],
      "name": "getAllObat",
      "outputs": [
        {
          "components": [
            {
              "internalType": "string",
              "name": "obatId",
              "type": "string"
            },
            {
              "internalType": "string",
              "name": "namaProduk",
              "type": "string"
            },
            {
              "internalType": "string",
              "name": "nieNumber",
              "type": "string"
            },
            {
              "internalType": "uint8",
              "name": "nieStatus",
              "type": "uint8"
            },
            {
              "internalType": "string",
              "name": "factoryInstance",
              "type": "string"
            }
          ],
          "internalType": "struct ObatTradisional.ObatOutputNie[]",
          "name": "",
          "type": "tuple[]"
        }
      ],
      "stateMutability": "view",
      "type": "function"
    },
    {
      "inputs": [
        {
          "internalType": "string",
          "name": "instanceName",
          "type": "string"
        }
      ],
      "name": "getAllObatByInstance",
      "outputs": [
        {
          "components": [
            {
              "internalType": "string",
              "name": "obatId",
              "type": "string"
            },
            {
              "internalType": "string",
              "name": "namaProduk",
              "type": "string"
            },
            {
              "internalType": "string",
              "name": "nieNumber",
              "type": "string"
            },
            {
              "internalType": "uint8",
              "name": "nieStatus",
              "type": "uint8"
            },
            {
              "internalType": "string",
              "name": "factoryInstance",
              "type": "string"
            }
          ],
          "internalType": "struct ObatTradisional.ObatOutputNie[]",
          "name": "",
          "type": "tuple[]"
        }
      ],
      "stateMutability": "view",
      "type": "function"
    },
    {
      "inputs": [],
      "name": "nieManager",
      "outputs": [
        {
          "internalType": "contract NieManager",
          "name": "",
          "type": "address"
        }
      ],
      "stateMutability": "view",
      "type": "function"
    },
    {
      "inputs": [],
      "name": "obatShared",
      "outputs": [
        {
          "internalType": "contract ObatShared",
          "name": "",
          "type": "address"
        }
      ],
      "stateMutability": "view",
      "type": "function"
    },
    {
      "inputs": [],
      "name": "roleManager",
      "outputs": [
        {
          "internalType": "contract RoleManager",
          "name": "",
          "type": "address"
        }
      ],
      "stateMutability": "view",
      "type": "function"
    }
  ],
  "bytecode": "0x60e03461011d57601f6125d338819003918201601f19168301916001600160401b038311848410176101215780849260609460405283398101031261011d5761004781610135565b90610060604061005960208401610135565b9201610135565b60015f556001600160a01b0392831660805290821660a0521660c052604051612489908161014a823960805181818161018a015281816104e4015281816109c50152818161110b01528181611299015281816117c201526119e9015260a0518181816101cd0152818161059a01528181610a0801528181610d6201528181610f640152818161133d015281816115ba0152818161173a015261184f015260c0518181816106d0015281816108ee01528181610b4c01526113610152f35b5f80fd5b634e487b7160e01b5f52604160045260245ffd5b51906001600160a01b038216820361011d5756fe6080806040526004361015610012575f80fd5b5f905f3560e01c908162435da5146119d7575080631bbd28f9146117695780633fca88cb146117255780634d17d2731461151357806350168fbb146112675780635425368114610ee5578063a1e0a4b014610d2e578063baeedfad1461096c578063cb960d6b1461091d578063dd683b28146108d9578063de966a721461037a5763e521d586146100a1575f80fd5b346103775760c0366003190112610377576004356001600160401b038111610375576100d1903690600401611aa6565b6024356001600160401b038111610371576100f0903690600401611aa6565b6044356001600160401b0381116103335761010f903690600401611aa6565b906064359060ff821680920361032457846084356001600160401b0381116103755761013f903690600401611dfe565b60a4356001600160401b0381116103715761015e903690600401611aa6565b6040516395a8c58d60e01b81523360048201525f60248201529096906020816044816001600160a01b037f0000000000000000000000000000000000000000000000000000000000000000165afa8015610366576101c3918591610337575b50611e94565b6101cb612435565b7f00000000000000000000000000000000000000000000000000000000000000006001600160a01b031691823b156103335761024a926102388580946102866102748a9661025c8e6040519b8c9a8b998a98637290eac360e11b8a5260c060048b015260c48a0190611aec565b8881036003190160248a015290611aec565b86810360031901604488015290611aec565b908d6064860152600319858303016084860152611bf7565b8281036003190160a48401528d611aec565b03925af1801561032857610309575b50926102f9856102eb7f50f3a56867c9c3b6c4af5856fac7e97e8644fe1c677c25ea989ab1ee658a6fc5956102d89560405196879660a0885260a0880190611aec565b9160208701528582036040870152611aec565b908382036060850152611aec565b4260808301520390a16001815580f35b816103179195949395611a6a565b610324579091845f610295565b8480fd5b6040513d84823e3d90fd5b8380fd5b610359915060203d60201161035f575b6103518183611a6a565b810190611e7c565b5f6101bd565b503d610347565b6040513d86823e3d90fd5b8280fd5b505b80fd5b50346107fb576101403660031901126107fb576004356001600160401b0381116107fb576103ac903690600401611aa6565b6024356001600160401b0381116107fb576103cb903690600401611aa6565b6044356001600160401b0381116107fb576103ea903690600401611aa6565b916064356001600160401b0381116107fb5761040a903690600401611dfe565b906084356001600160401b0381116107fb5761042a903690600401611aa6565b9160a4356001600160401b0381116107fb5761044a903690600401611dfe565b9260c4356001600160401b0381116107fb5761046a903690600401611aa6565b9360e4359560028710156107fb57610104356001600160401b0381116107fb57610498903690600401611aa6565b610124356001600160401b0381116107fb576104b8903690600401611aa6565b6040516395a8c58d60e01b81523360048201525f60248201529091906020816044816001600160a01b037f0000000000000000000000000000000000000000000000000000000000000000165afa80156107f05761051c915f916103375750611e94565b610524612435565b600154680100000000000000008110156108b2578060016105489201600155611ce3565b6108c65787516001600160401b0381116108b2576105668254611d0f565b601f811161086d575b50806020601f821160011461080a575f916107ff575b508160011b915f199060031b1c19161790555b7f00000000000000000000000000000000000000000000000000000000000000006001600160a01b031694853b156107fb576040516345c6f91f60e11b8152610160600482015296879586959091908d906105f761016489018d611aec565b8881036003190160248a015261060c91611aec565b87810360031901604489015261062191611aec565b86810360031901606488015261063691611bf7565b85810360031901608487015261064b91611bf7565b8481036003190160a486015261066091611aec565b8381036003190160c48501526106769089611aec565b3360e48501526106858a611b10565b89610104850152600319848203016101248501526106a291611aec565b828103600319016101448401526106b891611aec565b03815a5f948591f180156107f0576107db575b5084907f00000000000000000000000000000000000000000000000000000000000000006001600160a01b0316803b156103715761072d839161073f93836040518096819582946356003e0d60e11b8452604060048501526044840190611aec565b8281036003190160248401528a611aec565b03925af18015610328576107c2575b50926107ac83610798936107827ff4487edfbc31786288d4b0a58c9cf96191866674edc1d0aaf83cc9feebb3d1ba96611b10565b60ff60405195869560a0875260a0870190611aec565b921660208501528382036040850152611aec565b3360608301524260808301520390a16001815580f35b816107cf91959395611a6a565b6103335791835f61074e565b6107e89195505f90611a6a565b5f935f6106cb565b6040513d5f823e3d90fd5b5f80fd5b90508901515f610585565b5f8481528181209250601f198416905b8c828210610855575050908360019493921061083d575b5050811b019055610598565b8b01515f1960f88460031b161c191690555f80610831565b6001849560209395849301518155019401920161081a565b825f5260205f20601f830160051c810191602084106108a8575b601f0160051c01905b81811061089d575061056f565b5f8155600101610890565b9091508190610887565b634e487b7160e01b5f52604160045260245ffd5b634e487b7160e01b5f525f60045260245ffd5b346107fb575f3660031901126107fb576040517f00000000000000000000000000000000000000000000000000000000000000006001600160a01b03168152602090f35b346107fb5760203660031901126107fb576004356001548110156107fb5761094490611ce3565b6108c65761095461096891611d47565b604051918291602083526020830190611aec565b0390f35b346107fb5760203660031901126107fb576004356001600160401b0381116107fb5761099c903690600401611aa6565b6040516395a8c58d60e01b81523360048201525f60248201526020816044816001600160a01b037f0000000000000000000000000000000000000000000000000000000000000000165afa80156107f0576109fd915f91610d0f5750611e94565b6001546020820191907f00000000000000000000000000000000000000000000000000000000000000006001600160a01b03165f805b838110610c2d5750610a4490612329565b925f94610a706020604051809382820195518091875e81015f838201520301601f198101835282611a6a565b519020935f5b838110610a8b57604051806109688782611c4f565b610a9d610a9782611ce3565b50611d47565b604051636b2c133960e11b815260206004820152905f8280610ac26024820185611aec565b0381885afa9182156107f0575f92610c09575b5060a0820190888251604051610b0a6020828180820195805191829101875e81015f838201520301601f198101835282611a6a565b51902014610b1e575b505050600101610a76565b6040516374a5abcf60e01b8152602060048201529394929392915f8480610b486024820186611aec565b03817f00000000000000000000000000000000000000000000000000000000000000006001600160a01b03165afa9485156107f057600195610bd79560ff925f915f93610be0575b506020015193519360405195610ba587611a34565b8652602086015260408501521660608301526080820152610bc682896120e3565b52610bd181886120e3565b506120f7565b91908780610b13565b610c01919350602092503d805f833e610bf98183611a6a565b81019061239a565b929091610b90565b610c269192503d805f833e610c1e8183611a6a565b810190612183565b9088610ad5565b610c5f5f610c3d610a9784611ce3565b60405180938192636b2c133960e11b8352602060048401526024830190611aec565b0381875afa80156107f05760a0915f91610cf5575b500151604051610ca36020828180820195805191829101875e81015f838201520301601f198101835282611a6a565b5190206040516020810190610cd06020828a51808d875e81015f838201520301601f198101835282611a6a565b51902014610ce1575b600101610a33565b90610ced6001916120f7565b919050610cd9565b610d0991503d805f833e610c1e8183611a6a565b88610c74565b610d28915060203d60201161035f576103518183611a6a565b836101bd565b346107fb575f3660031901126107fb576001546005810281810460051482151715610ed157610d5c90611eff565b905f90817f00000000000000000000000000000000000000000000000000000000000000006001600160a01b03165b828210610de057505050610d9e81611eff565b915f5b828110610db657604051806109688682611b2e565b80610dc3600192846120e3565b51610dce82876120e3565b52610dd981866120e3565b5001610da1565b610df1610a97839593969496611ce3565b6040516346abdd0560e11b81526020600482015290915f8280610e176024820187611aec565b0381845afa9182156107f0575f92610ead575b505f5b8251811015610e9a57610e4081846120e3565b5151610e4b81611b10565b610e5481611b10565b15610e62575b600101610e2d565b93610e92600191610e7d610e7688876120e3565b51876123d2565b610e87828a6120e3565b52610bd181896120e3565b949050610e5a565b5093959294905060019150019091610d8b565b610eca9192503d805f833e610ec28183611a6a565b810190611fa2565b9087610e2a565b634e487b7160e01b5f52601160045260245ffd5b346107fb5760403660031901126107fb576004356001600160401b0381116107fb57610f15903690600401611aa6565b6024356001600160401b0381116107fb57610f34903690600401611aa6565b9060606080604051610f4581611a34565b5f81528260208201528260408201525f83820152015260018060a01b037f000000000000000000000000000000000000000000000000000000000000000016906040516330804c3160e11b8152602060048201525f8180610fa96024820188611aec565b0381865afa9081156107f0575f91611220575b50611017915f9194604051610ff06020828180820195805191829101875e810187838201520301601f198101835282611a6a565b5190209360405180809581946346abdd0560e11b8352602060048401526024830190611aec565b03915afa9081156107f0575f91611206575b506040519061103782611a34565b5f825260209160405161104a8482611a6a565b5f81528382015260405161105e8482611a6a565b5f815260408201525f60608201526040516110798482611a6a565b5f81526080820152925f5b82518110156111fe5781604061109a83866120e3565b5101516040516110c887828180820195805191829101875e81015f838201520301601f198101835282611a6a565b519020146110d857600101611084565b9190506110e69293506120e3565b51905b6040516395a8c58d60e01b8152336004820152600160248201529080826044817f00000000000000000000000000000000000000000000000000000000000000006001600160a01b03165afa9384156107f0576111be94610968935f916111e1575b506111cb575b60405194859460408652805161116681611b10565b6040870152608061119d6111888684015160a060608b015260e08a0190611aec565b6040840151898203603f1901848b0152611aec565b606083015160ff1660a0890152910151868203603f190160c0880152611aec565b9184830390850152611bf7565b506040516111d98282611a6a565b5f8152611151565b6111f89150833d851161035f576103518183611a6a565b8661114b565b5050506110e9565b61121a91503d805f833e610ec28183611a6a565b83611029565b90503d805f833e6112318183611a6a565b8101916020828403126107fb578151916001600160401b0383116107fb57611017935f9361125f9201612105565b915091610fbc565b346107fb575f3660031901126107fb576040516395a8c58d60e01b8152336004820152600260248201526020816044817f00000000000000000000000000000000000000000000000000000000000000006001600160a01b03165afa9081156107f0575f916114f4575b50156114c3576001546112e381612329565b6112ec82611de7565b916112fa6040519384611a6a565b8083526020830160015f527fb10e2d527612073b26eecdfd717e6a320cf44b4afac2b0732d9fcbe2b7fa0cf6905f905b8382106114a65750506001600160a01b037f00000000000000000000000000000000000000000000000000000000000000008116947f000000000000000000000000000000000000000000000000000000000000000090911691505f5b83811061139c57604051806109688782611c4f565b6113a681836120e3565b51604051636b2c133960e11b81526020600482015291905f83806113cd6024820185611aec565b03818b5afa9283156107f0575f9361148a575b506040516374a5abcf60e01b815260206004820152925f84806114066024820186611aec565b0381895afa9384156107f05760019460ff915f905f9261146d575b5060a06020850151940151936040519561143a87611a34565b865260208601526040850152166060830152608082015261145b82886120e3565b5261146681876120e3565b5001611387565b905061148391503d805f833e610bf98183611a6a565b908c611421565b61149f9193503d805f833e610c1e8183611a6a565b91886113e0565b6001602081926114b586611d47565b81520193019101909161132a565b60405162461bcd60e51b81526020600482015260096024820152684f6e6c792042504f4d60b81b6044820152606490fd5b61150d915060203d60201161035f576103518183611a6a565b816112d1565b346107fb5760203660031901126107fb576004356001600160401b0381116107fb575f6115476115b6923690600401611aa6565b606061014060405161155881611a18565b82815282602082015282604082015282808201528260808201528260a08201528460c08201528460e08201528261010082015282610120820152015260405180938192636b2c133960e11b8352602060048401526024830190611aec565b03817f00000000000000000000000000000000000000000000000000000000000000006001600160a01b03165afa80156107f057610968915f9161170b575b50604051918291602083526101406116f66116e061169f61168961167361165d6116476116318b61016060208c519201526101808d0190611aec565b60208a01518c8203601f190160408e0152611aec565b60408901518b8203601f190160608d0152611bf7565b60608801518a8203601f190160808c0152611bf7565b6080870151898203601f190160a08b0152611aec565b60a0860151888203601f190160c08a0152611aec565b60c08501516001600160a01b031660e0888101919091528501516116c281611b10565b610100880152610100850151601f1988830301610120890152611aec565b610120840151868203601f190184880152611aec565b910151838203601f1901610160850152611aec565b61171f91503d805f833e610c1e8183611a6a565b826115f5565b346107fb575f3660031901126107fb576040517f00000000000000000000000000000000000000000000000000000000000000006001600160a01b03168152602090f35b346107fb5760203660031901126107fb576004356001600160401b0381116107fb57611799903690600401611aa6565b6040516395a8c58d60e01b81523360048201525f60248201526020816044816001600160a01b037f0000000000000000000000000000000000000000000000000000000000000000165afa80156107f0576117fa915f91610d0f5750611e94565b6001549060405161182a6020828180820195805191829101875e81015f838201520301601f198101835282611a6a565b5190206005820282810460051483151715610ed15761184890611eff565b915f9182907f00000000000000000000000000000000000000000000000000000000000000006001600160a01b03165b8383106118cc57858561188a81611eff565b915f5b8281106118a257604051806109688682611b2e565b806118af600192846120e3565b516118ba82876120e3565b526118c581866120e3565b500161188d565b6118de610a9784969497939597611ce3565b91604051916346abdd0560e11b8352602060048401525f83806119046024820188611aec565b0381845afa9283156107f0575f936119bb575b505f5b83518110156119a85786608061193083876120e3565b51015160405161195f6020828180820195805191829101875e81015f838201520301601f198101835282611a6a565b51902014611970575b60010161191a565b946119a060019161198b61198489886120e3565b51886123d2565b61199582876120e3565b52610bd181866120e3565b959050611968565b5094925095929460019150019192611878565b6119d09193503d805f833e610ec28183611a6a565b9188611917565b346107fb575f3660031901126107fb577f00000000000000000000000000000000000000000000000000000000000000006001600160a01b03168152602090f35b61016081019081106001600160401b038211176108b257604052565b60a081019081106001600160401b038211176108b257604052565b60c081019081106001600160401b038211176108b257604052565b90601f801991011681019081106001600160401b038211176108b257604052565b6001600160401b0381116108b257601f01601f191660200190565b81601f820112156107fb57803590611abd82611a8b565b92611acb6040519485611a6a565b828452602083830101116107fb57815f926020809301838601378301015290565b805180835260209291819084018484015e5f828201840152601f01601f1916010190565b60021115611b1a57565b634e487b7160e01b5f52602160045260245ffd5b602081016020825282518091526040820191602060408360051b8301019401925f915b838310611b6057505050505090565b9091929394602080611be8600193603f1986820301875289519060a0611bb7611ba5611b95855160c0865260c0860190611aec565b8786015185820389870152611aec565b60408501518482036040860152611aec565b9260ff60608201511660608401526080810151611bd381611b10565b608084015201519060a0818403910152611aec565b97019301930191939290611b51565b9080602083519182815201916020808360051b8301019401925f915b838310611c2257505050505090565b9091929394602080611c40600193601f198682030187528951611aec565b97019301930191939290611c13565b602081016020825282518091526040820191602060408360051b8301019401925f915b838310611c8157505050505090565b9091929394602080611cd4600193603f198682030187528951906080611cb6611ba5611b95855160a0865260a0860190611aec565b9260ff60608201511660608401520151906080818403910152611aec565b97019301930191939290611c72565b600154811015611cfb5760015f5260205f2001905f90565b634e487b7160e01b5f52603260045260245ffd5b90600182811c92168015611d3d575b6020831014611d2957565b634e487b7160e01b5f52602260045260245ffd5b91607f1691611d1e565b9060405191825f825492611d5a84611d0f565b8084529360018116908115611dc55750600114611d81575b50611d7f92500383611a6a565b565b90505f9291925260205f20905f915b818310611da9575050906020611d7f928201015f611d72565b6020919350806001915483858901015201910190918492611d90565b905060209250611d7f94915060ff191682840152151560051b8201015f611d72565b6001600160401b0381116108b25760051b60200190565b9080601f830112156107fb578135611e1581611de7565b92611e236040519485611a6a565b81845260208085019260051b820101918383116107fb5760208201905b838210611e4f57505050505090565b81356001600160401b0381116107fb57602091611e7187848094880101611aa6565b815201910190611e40565b908160209103126107fb575180151581036107fb5790565b15611e9b57565b60405162461bcd60e51b815260206004820152600c60248201526b4f6e6c7920466163746f727960a01b6044820152606490fd5b60405190611edc82611a4f565b606060a0838281528260208201528260408201525f838201525f60808201520152565b90611f0982611de7565b611f166040519182611a6a565b8281528092611f27601f1991611de7565b01905f5b828110611f3757505050565b602090611f42611ecf565b82828501015201611f2b565b81601f820112156107fb57805190611f6582611a8b565b92611f736040519485611a6a565b828452602083830101116107fb57815f9260208093018386015e8301015290565b519060ff821682036107fb57565b6020818303126107fb578051906001600160401b0382116107fb57019080601f830112156107fb57815191611fd683611de7565b92611fe46040519485611a6a565b80845260208085019160051b830101918383116107fb5760208101915b83831061201057505050505090565b82516001600160401b0381116107fb5782019060a0828703601f1901126107fb576040519061203e82611a34565b602083015160028110156107fb57825260408301516001600160401b0381116107fb5787602061207092860101611f4e565b602083015260608301516001600160401b0381116107fb5787602061209792860101611f4e565b60408301526120a860808401611f94565b606083015260a0830151916001600160401b0383116107fb576120d388602080969581960101611f4e565b6080820152815201920191612001565b8051821015611cfb5760209160051b010190565b5f198114610ed15760010190565b9080601f830112156107fb57815161211c81611de7565b9261212a6040519485611a6a565b81845260208085019260051b820101918383116107fb5760208201905b83821061215657505050505090565b81516001600160401b0381116107fb5760209161217887848094880101611f4e565b815201910190612147565b6020818303126107fb578051906001600160401b0382116107fb5701610160818303126107fb57604051916121b783611a18565b81516001600160401b0381116107fb57816121d3918401611f4e565b835260208201516001600160401b0381116107fb57816121f4918401611f4e565b602084015260408201516001600160401b0381116107fb5781612218918401612105565b604084015260608201516001600160401b0381116107fb578161223c918401612105565b606084015260808201516001600160401b0381116107fb5781612260918401611f4e565b608084015260a08201516001600160401b0381116107fb5781612284918401611f4e565b60a084015260c08201516001600160a01b03811681036107fb5760c084015260e082015160028110156107fb5760e08401526101008201516001600160401b0381116107fb57816122d6918401611f4e565b6101008401526101208201516001600160401b0381116107fb57816122fc918401611f4e565b6101208401526101408201516001600160401b0381116107fb576123209201611f4e565b61014082015290565b9061233382611de7565b6123406040519182611a6a565b8281528092612351601f1991611de7565b01905f5b82811061236157505050565b60209060405161237081611a34565b60608152606083820152606060408201525f60608201526060608082015282828501015201612355565b91906040838203126107fb578251906001600160401b0382116107fb576123c86020916123cf938601611f4e565b9301611f94565b90565b906123db611ecf565b50602081015190604081015160ff6060830151169060808351936123fe85611b10565b0151936040519561240e87611a4f565b865260208601526040850152606084015261242881611b10565b608083015260a082015290565b60025f54146124445760025f55565b633ee5aeb560e01b5f5260045ffdfea26469706673582212202a6c7697d12f0e0d21559165be4141bfec8b6594b6998d2c4f2c341edfcb52de64736f6c634300081b0033",
  "linkReferences": {},
  "deployedLinkReferences": {}
}