{
  "_format": "hh-sol-artifact-1",
  "contractName": "ObatTradisional",
  "sourceName": "contracts/ObatTradisional.sol",
  "abi": [
    {
      "inputs": [
        {
          "internalType": "address",
          "name": "_roleManagerAddr",
          "type": "address"
        },
        {
          "internalType": "address",
          "name": "_mainSupplyChainAddr",
          "type": "address"
        }
      ],
      "stateMutability": "nonpayable",
      "type": "constructor"
    },
    {
      "anonymous": false,
      "inputs": [
        {
          "indexed": false,
          "internalType": "string",
          "name": "nieNumber",
          "type": "string"
        },
        {
          "indexed": false,
          "internalType": "string",
          "name": "namaProduk",
          "type": "string"
        }
      ],
      "name": "evt_nieApproved",
      "type": "event"
    },
    {
      "anonymous": false,
      "inputs": [
        {
          "indexed": false,
          "internalType": "string",
          "name": "obatId",
          "type": "string"
        },
        {
          "indexed": false,
          "internalType": "uint256",
          "name": "timestampRequested",
          "type": "uint256"
        },
        {
          "indexed": false,
          "internalType": "string",
          "name": "namaProduk",
          "type": "string"
        }
      ],
      "name": "evt_nieRequested",
      "type": "event"
    },
    {
      "anonymous": false,
      "inputs": [
        {
          "indexed": false,
          "internalType": "string",
          "name": "namaProduk",
          "type": "string"
        },
        {
          "indexed": false,
          "internalType": "string",
          "name": "factoryInstanceNames",
          "type": "string"
        },
        {
          "indexed": false,
          "internalType": "string",
          "name": "factoryUserNames",
          "type": "string"
        },
        {
          "indexed": false,
          "internalType": "address",
          "name": "factoryAddresses",
          "type": "address"
        },
        {
          "indexed": false,
          "internalType": "string",
          "name": "kemasan",
          "type": "string"
        },
        {
          "indexed": false,
          "internalType": "enum ObatTradisional.en_tipeProduk",
          "name": "en_tipeProduk",
          "type": "uint8"
        }
      ],
      "name": "evt_obatCreated",
      "type": "event"
    },
    {
      "anonymous": false,
      "inputs": [
        {
          "indexed": false,
          "internalType": "string",
          "name": "namaProduk",
          "type": "string"
        },
        {
          "indexed": false,
          "internalType": "uint8",
          "name": "quantity",
          "type": "uint8"
        },
        {
          "indexed": false,
          "internalType": "string",
          "name": "batchName",
          "type": "string"
        }
      ],
      "name": "evt_obatProduced",
      "type": "event"
    },
    {
      "inputs": [
        {
          "internalType": "uint256",
          "name": "",
          "type": "uint256"
        }
      ],
      "name": "allObatData",
      "outputs": [
        {
          "internalType": "string",
          "name": "obatId",
          "type": "string"
        },
        {
          "internalType": "string",
          "name": "merk",
          "type": "string"
        },
        {
          "internalType": "string",
          "name": "namaProduk",
          "type": "string"
        },
        {
          "internalType": "string",
          "name": "kemasan",
          "type": "string"
        },
        {
          "internalType": "enum ObatTradisional.en_tipeProduk",
          "name": "tipeProduk",
          "type": "uint8"
        },
        {
          "internalType": "enum ObatTradisional.en_nieStatus",
          "name": "obatStatus",
          "type": "uint8"
        },
        {
          "internalType": "uint256",
          "name": "nieRequestDate",
          "type": "uint256"
        },
        {
          "internalType": "uint256",
          "name": "nieApprovalDate",
          "type": "uint256"
        },
        {
          "internalType": "string",
          "name": "nieNumber",
          "type": "string"
        }
      ],
      "stateMutability": "view",
      "type": "function"
    },
    {
      "inputs": [
        {
          "internalType": "uint256",
          "name": "",
          "type": "uint256"
        }
      ],
      "name": "allProducedObat",
      "outputs": [
        {
          "internalType": "enum ObatTradisional.en_obatAvailability",
          "name": "statusStok",
          "type": "uint8"
        },
        {
          "internalType": "string",
          "name": "batchName",
          "type": "string"
        },
        {
          "internalType": "string",
          "name": "obatId",
          "type": "string"
        },
        {
          "internalType": "string",
          "name": "namaProduk",
          "type": "string"
        },
        {
          "internalType": "uint8",
          "name": "obatQuantity",
          "type": "uint8"
        },
        {
          "internalType": "string",
          "name": "factoryInstanceNames",
          "type": "string"
        }
      ],
      "stateMutability": "view",
      "type": "function"
    },
    {
      "inputs": [
        {
          "internalType": "string",
          "name": "_obatId",
          "type": "string"
        },
        {
          "internalType": "address",
          "name": "_bpomAddr",
          "type": "address"
        },
        {
          "internalType": "string",
          "name": "_bpomInstanceName",
          "type": "string"
        },
        {
          "internalType": "string",
          "name": "_bpomUserName",
          "type": "string"
        },
        {
          "internalType": "string",
          "name": "_nieNumber",
          "type": "string"
        }
      ],
      "name": "approveNie",
      "outputs": [],
      "stateMutability": "nonpayable",
      "type": "function"
    },
    {
      "inputs": [
        {
          "internalType": "string",
          "name": "",
          "type": "string"
        }
      ],
      "name": "bpomAddresses",
      "outputs": [
        {
          "internalType": "address",
          "name": "",
          "type": "address"
        }
      ],
      "stateMutability": "view",
      "type": "function"
    },
    {
      "inputs": [
        {
          "internalType": "string",
          "name": "",
          "type": "string"
        }
      ],
      "name": "bpomInstanceNames",
      "outputs": [
        {
          "internalType": "string",
          "name": "",
          "type": "string"
        }
      ],
      "stateMutability": "view",
      "type": "function"
    },
    {
      "inputs": [
        {
          "internalType": "string",
          "name": "",
          "type": "string"
        }
      ],
      "name": "bpomUserNames",
      "outputs": [
        {
          "internalType": "string",
          "name": "",
          "type": "string"
        }
      ],
      "stateMutability": "view",
      "type": "function"
    },
    {
      "inputs": [
        {
          "internalType": "string",
          "name": "_obatId",
          "type": "string"
        },
        {
          "internalType": "string",
          "name": "_merk",
          "type": "string"
        },
        {
          "internalType": "string",
          "name": "_namaProduk",
          "type": "string"
        },
        {
          "internalType": "string[]",
          "name": "_klaim",
          "type": "string[]"
        },
        {
          "internalType": "string",
          "name": "_kemasan",
          "type": "string"
        },
        {
          "internalType": "string[]",
          "name": "_komposisi",
          "type": "string[]"
        },
        {
          "internalType": "address",
          "name": "_factoryAddr",
          "type": "address"
        },
        {
          "internalType": "string",
          "name": "_factoryInstanceName",
          "type": "string"
        },
        {
          "internalType": "string",
          "name": "_factoryUserName",
          "type": "string"
        },
        {
          "internalType": "enum ObatTradisional.en_tipeProduk",
          "name": "_tipeProduk",
          "type": "uint8"
        }
      ],
      "name": "createObat",
      "outputs": [],
      "stateMutability": "nonpayable",
      "type": "function"
    },
    {
      "inputs": [
        {
          "internalType": "string",
          "name": "",
          "type": "string"
        }
      ],
      "name": "factoryAddresses",
      "outputs": [
        {
          "internalType": "address",
          "name": "",
          "type": "address"
        }
      ],
      "stateMutability": "view",
      "type": "function"
    },
    {
      "inputs": [
        {
          "internalType": "string",
          "name": "",
          "type": "string"
        }
      ],
      "name": "factoryInstanceNames",
      "outputs": [
        {
          "internalType": "string",
          "name": "",
          "type": "string"
        }
      ],
      "stateMutability": "view",
      "type": "function"
    },
    {
      "inputs": [
        {
          "internalType": "string",
          "name": "",
          "type": "string"
        }
      ],
      "name": "factoryUserNames",
      "outputs": [
        {
          "internalType": "string",
          "name": "",
          "type": "string"
        }
      ],
      "stateMutability": "view",
      "type": "function"
    },
    {
      "inputs": [],
      "name": "getAllProducedObat",
      "outputs": [
        {
          "components": [
            {
              "internalType": "enum ObatTradisional.en_obatAvailability",
              "name": "statusStok",
              "type": "uint8"
            },
            {
              "internalType": "string",
              "name": "batchName",
              "type": "string"
            },
            {
              "internalType": "string",
              "name": "obatId",
              "type": "string"
            },
            {
              "internalType": "string",
              "name": "namaProduk",
              "type": "string"
            },
            {
              "internalType": "uint8",
              "name": "obatQuantity",
              "type": "uint8"
            },
            {
              "internalType": "string",
              "name": "factoryInstanceNames",
              "type": "string"
            },
            {
              "internalType": "string[]",
              "name": "obatIpfsHash",
              "type": "string[]"
            }
          ],
          "internalType": "struct ObatTradisional.st_obatProduction[]",
          "name": "",
          "type": "tuple[]"
        }
      ],
      "stateMutability": "view",
      "type": "function"
    },
    {
      "inputs": [],
      "name": "getAllProducedObatArray",
      "outputs": [
        {
          "components": [
            {
              "internalType": "enum ObatTradisional.en_obatAvailability",
              "name": "statusStok",
              "type": "uint8"
            },
            {
              "internalType": "string",
              "name": "batchName",
              "type": "string"
            },
            {
              "internalType": "string",
              "name": "obatId",
              "type": "string"
            },
            {
              "internalType": "string",
              "name": "namaProduk",
              "type": "string"
            },
            {
              "internalType": "uint8",
              "name": "obatQuantity",
              "type": "uint8"
            },
            {
              "internalType": "string",
              "name": "factoryInstanceNames",
              "type": "string"
            },
            {
              "internalType": "string[]",
              "name": "obatIpfsHash",
              "type": "string[]"
            }
          ],
          "internalType": "struct ObatTradisional.st_obatProduction[]",
          "name": "",
          "type": "tuple[]"
        }
      ],
      "stateMutability": "view",
      "type": "function"
    },
    {
      "inputs": [
        {
          "internalType": "string",
          "name": "_batchName",
          "type": "string"
        }
      ],
      "name": "getDetailProducedObat",
      "outputs": [
        {
          "internalType": "uint8",
          "name": "obatQuantity",
          "type": "uint8"
        },
        {
          "internalType": "string[]",
          "name": "obatIpfsHash",
          "type": "string[]"
        },
        {
          "internalType": "uint8",
          "name": "statusStok",
          "type": "uint8"
        }
      ],
      "stateMutability": "view",
      "type": "function"
    },
    {
      "inputs": [
        {
          "internalType": "string",
          "name": "_factoryInstanceName",
          "type": "string"
        }
      ],
      "name": "getJenisSediaanAvail",
      "outputs": [
        {
          "internalType": "uint8[]",
          "name": "",
          "type": "uint8[]"
        }
      ],
      "stateMutability": "view",
      "type": "function"
    },
    {
      "inputs": [],
      "name": "getListAllObatNie",
      "outputs": [
        {
          "internalType": "string[]",
          "name": "obatIdArray",
          "type": "string[]"
        },
        {
          "internalType": "string[]",
          "name": "namaProdukArray",
          "type": "string[]"
        },
        {
          "internalType": "string[]",
          "name": "factoryInstanceNameArray",
          "type": "string[]"
        },
        {
          "internalType": "uint256[]",
          "name": "latestTimestampArray",
          "type": "uint256[]"
        },
        {
          "internalType": "uint8[]",
          "name": "obatStatusArray",
          "type": "uint8[]"
        }
      ],
      "stateMutability": "view",
      "type": "function"
    },
    {
      "inputs": [
        {
          "internalType": "string",
          "name": "_factoryInstanceName",
          "type": "string"
        }
      ],
      "name": "getListAllProducedObatByFactory",
      "outputs": [
        {
          "internalType": "string[]",
          "name": "obatIdArray",
          "type": "string[]"
        },
        {
          "internalType": "string[]",
          "name": "namaProdukArray",
          "type": "string[]"
        },
        {
          "internalType": "uint8[]",
          "name": "obatQuantityArray",
          "type": "uint8[]"
        },
        {
          "internalType": "string[]",
          "name": "batchNameArray",
          "type": "string[]"
        }
      ],
      "stateMutability": "view",
      "type": "function"
    },
    {
      "inputs": [
        {
          "internalType": "string",
          "name": "_factoryInstanceName",
          "type": "string"
        }
      ],
      "name": "getListObatByFactory",
      "outputs": [
        {
          "internalType": "string[]",
          "name": "obatIdArray",
          "type": "string[]"
        },
        {
          "internalType": "string[]",
          "name": "namaProdukArray",
          "type": "string[]"
        },
        {
          "internalType": "uint8[]",
          "name": "obatStatusArray",
          "type": "uint8[]"
        },
        {
          "internalType": "uint8[]",
          "name": "tipeProdukArray",
          "type": "uint8[]"
        }
      ],
      "stateMutability": "view",
      "type": "function"
    },
    {
      "inputs": [
        {
          "internalType": "string",
          "name": "_obatId",
          "type": "string"
        }
      ],
      "name": "getListObatById",
      "outputs": [
        {
          "components": [
            {
              "internalType": "string",
              "name": "obatId",
              "type": "string"
            },
            {
              "internalType": "string",
              "name": "merk",
              "type": "string"
            },
            {
              "internalType": "string",
              "name": "namaProduk",
              "type": "string"
            },
            {
              "internalType": "string[]",
              "name": "klaim",
              "type": "string[]"
            },
            {
              "internalType": "string",
              "name": "kemasan",
              "type": "string"
            },
            {
              "internalType": "string[]",
              "name": "komposisi",
              "type": "string[]"
            },
            {
              "internalType": "enum ObatTradisional.en_tipeProduk",
              "name": "tipeProduk",
              "type": "uint8"
            },
            {
              "internalType": "enum ObatTradisional.en_nieStatus",
              "name": "obatStatus",
              "type": "uint8"
            },
            {
              "internalType": "uint256",
              "name": "nieRequestDate",
              "type": "uint256"
            },
            {
              "internalType": "uint256",
              "name": "nieApprovalDate",
              "type": "uint256"
            },
            {
              "internalType": "string",
              "name": "nieNumber",
              "type": "string"
            }
          ],
          "internalType": "struct ObatTradisional.st_obatDetails",
          "name": "obatDetails",
          "type": "tuple"
        },
        {
          "internalType": "address",
          "name": "factoryAddress",
          "type": "address"
        },
        {
          "internalType": "string",
          "name": "factoryInstanceName",
          "type": "string"
        },
        {
          "internalType": "string",
          "name": "factoryUserName",
          "type": "string"
        },
        {
          "internalType": "address",
          "name": "bpomAddress",
          "type": "address"
        },
        {
          "internalType": "string",
          "name": "bpomInstanceName",
          "type": "string"
        },
        {
          "internalType": "string",
          "name": "bpomUserName",
          "type": "string"
        }
      ],
      "stateMutability": "view",
      "type": "function"
    },
    {
      "inputs": [
        {
          "internalType": "string",
          "name": "_namaProduk",
          "type": "string"
        }
      ],
      "name": "getListObatByNameProduct",
      "outputs": [
        {
          "components": [
            {
              "internalType": "string",
              "name": "obatId",
              "type": "string"
            },
            {
              "internalType": "string",
              "name": "merk",
              "type": "string"
            },
            {
              "internalType": "string",
              "name": "namaProduk",
              "type": "string"
            },
            {
              "internalType": "string[]",
              "name": "klaim",
              "type": "string[]"
            },
            {
              "internalType": "string",
              "name": "kemasan",
              "type": "string"
            },
            {
              "internalType": "string[]",
              "name": "komposisi",
              "type": "string[]"
            },
            {
              "internalType": "enum ObatTradisional.en_tipeProduk",
              "name": "tipeProduk",
              "type": "uint8"
            },
            {
              "internalType": "enum ObatTradisional.en_nieStatus",
              "name": "obatStatus",
              "type": "uint8"
            },
            {
              "internalType": "uint256",
              "name": "nieRequestDate",
              "type": "uint256"
            },
            {
              "internalType": "uint256",
              "name": "nieApprovalDate",
              "type": "uint256"
            },
            {
              "internalType": "string",
              "name": "nieNumber",
              "type": "string"
            }
          ],
          "internalType": "struct ObatTradisional.st_obatDetails",
          "name": "obatDetails",
          "type": "tuple"
        },
        {
          "internalType": "address",
          "name": "factoryAddress",
          "type": "address"
        },
        {
          "internalType": "string",
          "name": "factoryInstanceName",
          "type": "string"
        },
        {
          "internalType": "string",
          "name": "factoryUserName",
          "type": "string"
        },
        {
          "internalType": "address",
          "name": "bpomAddress",
          "type": "address"
        },
        {
          "internalType": "string",
          "name": "bpomInstanceName",
          "type": "string"
        },
        {
          "internalType": "string",
          "name": "bpomUserName",
          "type": "string"
        }
      ],
      "stateMutability": "view",
      "type": "function"
    },
    {
      "inputs": [
        {
          "internalType": "string",
          "name": "_batchName",
          "type": "string"
        }
      ],
      "name": "getObatProductionDetailsByBatchName",
      "outputs": [
        {
          "components": [
            {
              "internalType": "enum ObatTradisional.en_obatAvailability",
              "name": "statusStok",
              "type": "uint8"
            },
            {
              "internalType": "string",
              "name": "batchName",
              "type": "string"
            },
            {
              "internalType": "string",
              "name": "obatId",
              "type": "string"
            },
            {
              "internalType": "string",
              "name": "namaProduk",
              "type": "string"
            },
            {
              "internalType": "uint8",
              "name": "obatQuantity",
              "type": "uint8"
            },
            {
              "internalType": "string",
              "name": "factoryInstanceNames",
              "type": "string"
            },
            {
              "internalType": "string[]",
              "name": "obatIpfsHash",
              "type": "string[]"
            }
          ],
          "internalType": "struct ObatTradisional.st_obatProduction",
          "name": "",
          "type": "tuple"
        }
      ],
      "stateMutability": "view",
      "type": "function"
    },
    {
      "inputs": [
        {
          "internalType": "string",
          "name": "_obatId",
          "type": "string"
        }
      ],
      "name": "getObatProductionDetailsByOrderId",
      "outputs": [
        {
          "components": [
            {
              "internalType": "enum ObatTradisional.en_obatAvailability",
              "name": "statusStok",
              "type": "uint8"
            },
            {
              "internalType": "string",
              "name": "batchName",
              "type": "string"
            },
            {
              "internalType": "string",
              "name": "obatId",
              "type": "string"
            },
            {
              "internalType": "string",
              "name": "namaProduk",
              "type": "string"
            },
            {
              "internalType": "uint8",
              "name": "obatQuantity",
              "type": "uint8"
            },
            {
              "internalType": "string",
              "name": "factoryInstanceNames",
              "type": "string"
            },
            {
              "internalType": "string[]",
              "name": "obatIpfsHash",
              "type": "string[]"
            }
          ],
          "internalType": "struct ObatTradisional.st_obatProduction",
          "name": "",
          "type": "tuple"
        }
      ],
      "stateMutability": "view",
      "type": "function"
    },
    {
      "inputs": [],
      "name": "mainSupplyChain",
      "outputs": [
        {
          "internalType": "contract MainSupplyChain",
          "name": "",
          "type": "address"
        }
      ],
      "stateMutability": "view",
      "type": "function"
    },
    {
      "inputs": [
        {
          "internalType": "string",
          "name": "",
          "type": "string"
        }
      ],
      "name": "obatDetailsById",
      "outputs": [
        {
          "internalType": "string",
          "name": "obatId",
          "type": "string"
        },
        {
          "internalType": "string",
          "name": "merk",
          "type": "string"
        },
        {
          "internalType": "string",
          "name": "namaProduk",
          "type": "string"
        },
        {
          "internalType": "string",
          "name": "kemasan",
          "type": "string"
        },
        {
          "internalType": "enum ObatTradisional.en_tipeProduk",
          "name": "tipeProduk",
          "type": "uint8"
        },
        {
          "internalType": "enum ObatTradisional.en_nieStatus",
          "name": "obatStatus",
          "type": "uint8"
        },
        {
          "internalType": "uint256",
          "name": "nieRequestDate",
          "type": "uint256"
        },
        {
          "internalType": "uint256",
          "name": "nieApprovalDate",
          "type": "uint256"
        },
        {
          "internalType": "string",
          "name": "nieNumber",
          "type": "string"
        }
      ],
      "stateMutability": "view",
      "type": "function"
    },
    {
      "inputs": [
        {
          "internalType": "string",
          "name": "",
          "type": "string"
        }
      ],
      "name": "obatDetailsByNameProduct",
      "outputs": [
        {
          "internalType": "string",
          "name": "obatId",
          "type": "string"
        },
        {
          "internalType": "string",
          "name": "merk",
          "type": "string"
        },
        {
          "internalType": "string",
          "name": "namaProduk",
          "type": "string"
        },
        {
          "internalType": "string",
          "name": "kemasan",
          "type": "string"
        },
        {
          "internalType": "enum ObatTradisional.en_tipeProduk",
          "name": "tipeProduk",
          "type": "uint8"
        },
        {
          "internalType": "enum ObatTradisional.en_nieStatus",
          "name": "obatStatus",
          "type": "uint8"
        },
        {
          "internalType": "uint256",
          "name": "nieRequestDate",
          "type": "uint256"
        },
        {
          "internalType": "uint256",
          "name": "nieApprovalDate",
          "type": "uint256"
        },
        {
          "internalType": "string",
          "name": "nieNumber",
          "type": "string"
        }
      ],
      "stateMutability": "view",
      "type": "function"
    },
    {
      "inputs": [
        {
          "internalType": "string",
          "name": "",
          "type": "string"
        }
      ],
      "name": "obatProductionDetailsByBatchName",
      "outputs": [
        {
          "internalType": "enum ObatTradisional.en_obatAvailability",
          "name": "statusStok",
          "type": "uint8"
        },
        {
          "internalType": "string",
          "name": "batchName",
          "type": "string"
        },
        {
          "internalType": "string",
          "name": "obatId",
          "type": "string"
        },
        {
          "internalType": "string",
          "name": "namaProduk",
          "type": "string"
        },
        {
          "internalType": "uint8",
          "name": "obatQuantity",
          "type": "uint8"
        },
        {
          "internalType": "string",
          "name": "factoryInstanceNames",
          "type": "string"
        }
      ],
      "stateMutability": "view",
      "type": "function"
    },
    {
      "inputs": [
        {
          "internalType": "string",
          "name": "",
          "type": "string"
        }
      ],
      "name": "obatProductionDetailsByObatId",
      "outputs": [
        {
          "internalType": "enum ObatTradisional.en_obatAvailability",
          "name": "statusStok",
          "type": "uint8"
        },
        {
          "internalType": "string",
          "name": "batchName",
          "type": "string"
        },
        {
          "internalType": "string",
          "name": "obatId",
          "type": "string"
        },
        {
          "internalType": "string",
          "name": "namaProduk",
          "type": "string"
        },
        {
          "internalType": "uint8",
          "name": "obatQuantity",
          "type": "uint8"
        },
        {
          "internalType": "string",
          "name": "factoryInstanceNames",
          "type": "string"
        }
      ],
      "stateMutability": "view",
      "type": "function"
    },
    {
      "inputs": [
        {
          "internalType": "string",
          "name": "_namaProduk",
          "type": "string"
        },
        {
          "internalType": "string",
          "name": "_batchName",
          "type": "string"
        },
        {
          "internalType": "string",
          "name": "_obatId",
          "type": "string"
        },
        {
          "internalType": "uint8",
          "name": "_obatQuantity",
          "type": "uint8"
        },
        {
          "internalType": "string",
          "name": "_factoryInstanceName",
          "type": "string"
        },
        {
          "internalType": "string[]",
          "name": "_obatIpfsHash",
          "type": "string[]"
        }
      ],
      "name": "producedObat",
      "outputs": [],
      "stateMutability": "nonpayable",
      "type": "function"
    },
    {
      "inputs": [
        {
          "internalType": "string",
          "name": "_obatId",
          "type": "string"
        }
      ],
      "name": "requestNie",
      "outputs": [],
      "stateMutability": "nonpayable",
      "type": "function"
    },
    {
      "inputs": [],
      "name": "roleManager",
      "outputs": [
        {
          "internalType": "contract RoleManager",
          "name": "",
          "type": "address"
        }
      ],
      "stateMutability": "view",
      "type": "function"
    },
    {
      "inputs": [
        {
          "internalType": "string",
          "name": "_batchName",
          "type": "string"
        },
        {
          "internalType": "string[]",
          "name": "_obatIpfsHash",
          "type": "string[]"
        }
      ],
      "name": "updateObatProductionDetails",
      "outputs": [],
      "stateMutability": "nonpayable",
      "type": "function"
    },
    {
      "inputs": [
        {
          "internalType": "address",
          "name": "",
          "type": "address"
        }
      ],
      "name": "userRoles",
      "outputs": [
        {
          "internalType": "enum ObatTradisional.en_roles",
          "name": "",
          "type": "uint8"
        }
      ],
      "stateMutability": "view",
      "type": "function"
    }
  ],
  "bytecode": "0x608034608657601f61578d38819003918201601f19168301916001600160401b03831184841017608b578084926040948552833981010312608657604b602060458360a1565b920160a1565b600080546001600160a01b039384166001600160a01b031991821617909155600180549290931691161790556040516156d890816100b58239f35b600080fd5b634e487b7160e01b600052604160045260246000fd5b51906001600160a01b038216820360865756fe608080604052600436101561001357600080fd5b60003560e01c908162435da51461388b575080631a95e6721461386f5780631c0b2030146138075780631dce6e58146135f257806325606bc3146135515780632732183714613500578063349a7a72146134ac5780634400dff4146134845780634b87568a1461341c5780635673fdf6146133cb578063620823da14612c615780636afe55ec14612c1757806374d5e10014612bcd5780637aad01bd14612b135780637ade51dd146123b25780637d08414f1461236b57806392b385c91461212a5780639413fcfd146121015780639d9315c2146120ad578063a812536d14612059578063a9c873b414611fdf578063aab28e3814611f81578063bbf2698d14611d98578063bc4a6f6c14611b3e578063c8673f4b1461165c578063d0ff723d1461159f578063d44faa631461146a578063d9d284dc146107e9578063e06749ba146104a3578063f1022862146104285763fd42aefd1461017357600080fd5b34610423576020366003190112610423576004356001600160401b038111610423576101a3903690600401613a9e565b6101ab61460a565b50604051906101e26101db825193602081818601966101cb81838a6138b9565b8101600c81520301902054613c99565b151561465f565b61041f6103596103e560405160208186516101fe81838b6138b9565b8101600c8152030190209360096102f06040519661021b88613a46565b6040516102338161022c8185613cd3565b0382613a7d565b88526040516102498161022c8160018601613cd3565b60208901526040516102628161022c8160028601613cd3565b604089015261027360038201613f69565b606089015260405161028c8161022c8160048601613cd3565b608089015261029d60058201613f69565b60a08901526102ca60ff60068301548181166102b8816138af565b60c08c015260081c1660e08a016146ab565b6007810154610100890152600881015461012089015261022c6040518094819301613cd3565b61014086015261038b6103596104136103fd6020604051806103168d89519283916138b9565b81019060078252828160018060a01b03930301902054169a61036060405183818a516103438183886138b9565b8101600881520301902060405196878092613cd3565b0386613a7d565b61039260405183818a516103758183886138b9565b8101600981520301902060405197888092613cd3565b0387613a7d565b60405187516103a28183856138b9565b81019060048252838160018060a01b0393030190205416966103ec604051848184516103cf8183896138b9565b810160058152030190206040519a8b8092613cd3565b038a613a7d565b6040519384928392519283916138b9565b8101600681520301902060405196878092613cd3565b60405197889788613b38565b0390f35b600080fd5b34610423576020366003190112610423576004356001600160401b0381116104235761022c61048f610479602061046661041f953690600401613a9e565b81604051938285809451938492016138b9565b8101600681520301902060405192838092613cd3565b6040519182916020835260208301906138dc565b34610423576000366003190112610423576000546040516395a8c58d60e01b81523360048201526002602482015290602090829060449082906001600160a01b03165afa80156107dd576104ff916000916107ae575b50614d86565b600080600254905b81811061077057506105188261414e565b906105228361414e565b61052b8461414e565b61053485613dd0565b916105426040519384613a7d565b85835261056361055187613dd0565b602085019790601f19013689376145d8565b93600090815b8181106105f25750505060209161059f6105ad926105926040519860a08a5260a08a0190613901565b90888203868a0152613901565b908682036040880152613901565b918483036060860152519182815201939060005b8181106105dc57848061041f88878382036080850152613af4565b82518652602095860195909201916001016105c1565b60ff60066105ff83613e65565b50015460081c1660038110156107475761061c575b600101610569565b9161022c61063961062c85613e65565b5060405192838092613cd3565b610643828a61428d565b5261064e818961428d565b50600261066e61065d85613e65565b5061022c6040518094819301613cd3565b610678828661428d565b52610683818561428d565b5061022c6106b96106a5602061069887613e65565b506040519283809261456a565b600881520301902060405192838092613cd3565b6106c3828761428d565b526106ce818661428d565b5060086106da84613e65565b50015460076106e885613e65565b500154101561075d5760086106fc84613e65565b5001545b61070a828861428d565b5260ff600661071885613e65565b50015460081c166003811015610747578161073f916107396001948b61428d565b526140e1565b929050610614565b634e487b7160e01b600052602160045260246000fd5b600761076884613e65565b500154610700565b60ff600661077d83613e65565b50015460081c1660038110156107475761079a575b600101610507565b916107a66001916140e1565b929050610792565b6107d0915060203d6020116107d6575b6107c88183613a7d565b810190613f19565b826104f9565b503d6107be565b6040513d6000823e3d90fd5b3461042357610140366003190112610423576004356001600160401b0381116104235761081a903690600401613a9e565b6024356001600160401b03811161042357610839903690600401613a9e565b906044356001600160401b03811161042357610859903690600401613a9e565b906064356001600160401b03811161042357610879903690600401613de7565b906084356001600160401b03811161042357610899903690600401613a9e565b9060a4356001600160401b038111610423576108b9903690600401613de7565b60c4356001600160a01b03811691908290036104235760e4356001600160401b038111610423576108ee903690600401613a9e565b96610104356001600160401b0381116104235761090f903690600401613a9e565b916101243596600288101561042357600080546040516395a8c58d60e01b81523360048201526024810192909252602090829060449082906001600160a01b03165afa80156107dd5761096a9160009161144b575b506146b7565b6040519261097784613a46565b8684526020840152886040840152606083015285608083015260a082015261099e866138af565b8560c0820152600260e08201526000610100820152600061012082015260409081516109ca8382613a7d565b60098152682a22aa29a22329a22360b91b6020820152610140820152815190610a1181875193602081818b0196610a0281838a6138b9565b8101600b815203019020614dd2565b610a3c81610a2d60208c818851938285809451938492016138b9565b8101600c815203019020614dd2565b600254600160401b8110156112c557806001610a5b9201600255613e65565b91909161143557610a6b91614dd2565b81516020818751610a7d8183876138b9565b81016007815203019020846bffffffffffffffffffffffff60a01b82541617905581516020818751610ab08183876138b9565b8101600881520301902089516001600160401b0381116112c557610ad48254613c99565b601f8111611403575b5060208b601f83116001146113925782610b2a959360209593610b1793600092611387575b50508160011b916000199060031b1c19161790565b90555b83518093819289519283916138b9565b8101600981520301902082516001600160401b0381116112c557610b4e8254613c99565b601f811161134a575b506020601f82116001146112e6579080610b87926000916112db575b508160011b916000199060031b1c19161790565b90555b805193610200610b9a8187613a7d565b600f8652601f190160005b8181106112b4575050815190610bba82613a62565b60008252818351610bcb8582613a7d565b60108152602081016f2127169918191a1899181916a2291b2b60811b9052602082019081528482019283528a606083015260808201600f90528b60a083015260c082018881526060988651610c208b82613a7d565b602e81527f516d5a706a516644654452505253724834573431334777443557626239554d4760208201526d1ab4b6b8b83338b9a839a0bc369960911b88820152610c6982614198565b52610c7390614198565b5080518651610c828b82613a7d565b602e81527f516d585655454e637a666342617242745132776944744c6d5a5632506137386e60208201526d1935b6a3a238351cb2353298acb760911b88820152610ccb826141a5565b52610cd5906141a5565b5080518651610ce48b82613a7d565b602e81527f516d6436517662316f58616431777a5a75354a36587259646e477039466a337460208201526d145d59559cdcce589dd1d59214d560921b88820152610d2d826141b5565b52610d37906141b5565b5080518651610d468b82613a7d565b602e81527f516d56553255784d724a657168726e5144504a6972617546735773364a37584c60208201526d446944514b69783848566445547360901b88820152610d8f826141c5565b52610d99906141c5565b5080518651610da88b82613a7d565b602e81527f516d646d523450666e6e35674344355861617776727669586d45334a7369617860208201526d524633654e727a6859314342553760901b88820152610df1826141d5565b52610dfb906141d5565b5080518651610e0a8b82613a7d565b602e81527f516d517254726667674b5437366e525a563872426a6361546f576648434d7a5760208201526d715934795752705733534436596760901b88820152610e53826141e5565b52610e5d906141e5565b5080518651610e6c8b82613a7d565b602e81527f516d515848585145505032506e4662513636685367325a4d4e643653537a664660208201526d25a1a52420a2b4b9acba9c19192b60911b88820152610eb5826141f5565b52610ebf906141f5565b5080518651610ece8b82613a7d565b602e81527f516d554543695837714869483868346b723275346836716169473866536a395a60208201526d135d18d091d9d15210d55e5b4c5360921b88820152610f1782614205565b52610f2190614205565b5080518651610f308b82613a7d565b602e81527f516d55775a727439624c6a6e684d4c43693443466361547659675a6157554a5260208201526d635a444b71733963336d7179487960901b88820152610f7982614216565b52610f8390614216565b5080518651610f928b82613a7d565b602e81527f516d4e4e75775a415548366758386854636b366f6861344e6a4d68456337357860208201526d7679474371324c7046447459434760901b88820152610fdb82614227565b52610fe590614227565b5080518651610ff48b82613a7d565b602e81527f516d6162687874624b796531656f47504d6664617a5743356d544a734b41745560208201526d31a33129b43319ad31b6b1b6aba760911b8882015261103d82614238565b5261104790614238565b50805186516110568b82613a7d565b602e81527f516d6552686f6b686b47363142693378656d443967635a41484b386b3663753860208201526d79434e415445637255677334547960901b8882015261109f82614249565b526110a990614249565b50805186516110b88b82613a7d565b602e81527f516d616d526b504e4d425874706e687558344573623852516d394e4e7077433360208201526d7a64414d5461725077577269536560901b888201526111018261425a565b5261110b9061425a565b508051865161111a8b82613a7d565b602e81527f516d566b377467705573635047563267694b7779354b414a79434e506e53445360208201526d35644d4b43336d534639357a4e6f60901b888201526111638261426b565b5261116d9061426b565b5051855161117b8a82613a7d565b602e81527f516d5464734a4e4437426450414b4a5a4438484a70703373544559374474675760208201526d379b3937aa3a35ba2538b439b91960911b878201526111c48261427c565b526111ce9061427c565b506111d882614d1b565b51845181818093516020819301916111ef926138b9565b8101600d81520360200190209061120591614724565b518251818180935160208193019161121c926138b9565b8101600e81520360200190209061123291614724565b805197889760c0895260c08901611248916138dc565b88810360208a0152611259916138dc565b908782039088015261126a916138dc565b91850152838103608085015261127f916138dc565b90611289816138af565b60a0830152037f634ef467423c7b2abbaf26097bdddac4a495d36be69ca3d1555484b46e7899c791a1005b806060602080938a01015201610ba5565b634e487b7160e01b600052604160045260246000fd5b90508501518c610b73565b601f1982169083600052806000209160005b81811061133257509083600194939210611319575b5050811b019055610b8a565b86015160001960f88460031b161c191690558b8061130d565b9192602060018192868b0151815501940192016112f8565b61137790836000526020600020601f840160051c8101916020851061137d575b601f0160051c019061470d565b8a610b57565b909150819061136a565b015190508f8f610b02565b50601f19821690836000528c816000209260005b8181106113e95750926001928592610b2a989660209896106113d0575b505050811b019055610b1a565b015160001960f88460031b161c191690558e808f6113c3565b9183015184556001909301926020928301928f92016113a6565b61142f90836000526020600020601f840160051c8101916020851061137d57601f0160051c019061470d565b8b610add565b634e487b7160e01b600052600060045260246000fd5b611464915060203d6020116107d6576107c88183613a7d565b8c610964565b34610423576020366003190112610423576004356001600160401b03811161042357600061149f6114cc923690600401613a9e565b60018060a01b03600154166040518080958194629a308760e31b83526020600484015260248301906138dc565b03915afa9081156107dd576000916114f5575b6040516020808252819061041f90820185613af4565b3d8083833e6115048183613a7d565b810190602081830312611593578051906001600160401b03821161159b57019080601f830112156115935781519261153b84613dd0565b926115496040519485613a7d565b84845260208085019560051b82010192831161159757602001935b8285106115795750505061041f9150906114df565b845160ff8116810361159357815260209485019401611564565b8280fd5b5080fd5b8380fd5b34610423576020366003190112610423576004356001600160401b0381116104235760206104666115d4923690600401613a9e565b8101600d81520301902060ff81541661041f6005604051936115fd856103598160018501613cd3565b6040516116118161022c8160028601613cd3565b6040519061162d826116268160038701613cd3565b0383613a7d565b61165060ff600485015416936116496040518097819301613cd3565b0385613a7d565b60405196879687613eb9565b34610423576040366003190112610423576004356001600160401b0381116104235761168c903690600401613a9e565b6024356001600160401b038111610423576116ab903690600401613de7565b9060405190805191602081818401946116c58183886138b9565b8101600d815203019020600160ff19825416179055600660405160208184516116ef8183896138b9565b8101600d81520301902001908351600160401b81116112c5578254818455808210611ac0575b50602085019081936000526020600020916000905b8282106119a8575050505060005b6003548110156119a657600161176761177561175384613e9a565b50604051928391602083019586910161456a565b03601f198101835282613a7d565b51902060405160208101906117a4602082875161179381878d6138b9565b81010301601f198101835282613a7d565b519020146117b457600101611738565b92505060066117c283613e9a565b5001925190600160401b82116112c5578354828555808310611928575b50926000526020600020926000905b828210611810575050506118029150613e9a565b50805460ff19166001179055005b80518051906001600160401b0382116112c55761182d8754613c99565b601f81116118f6575b50602090601f8311600114611889579261186f8360019594602094879660009261187e5750508160011b916000199060031b1c19161790565b88555b019501910190936117ee565b015190508b80610b02565b90601f1983169188600052816000209260005b8181106118de57509360209360019693879693838895106118c5575b505050811b018855611872565b015160001960f88460031b161c191690558a80806118b8565b9293602060018192878601518155019501930161189c565b61192290886000526020600020601f850160051c8101916020861061137d57601f0160051c019061470d565b87611836565b8460005282602060002091820191015b81811061194557506117df565b8061195260019254613c99565b8061195f575b5001611938565b601f811183146119755750600081555b87611958565b611993908260005283601f6020600020920160051c8201910161470d565b806000526000602081208183555561196f565b005b80518051906001600160401b0382116112c5576119c58654613c99565b601f8111611a8e575b50602090601f8311600114611a215792611a0783600195946020948796600092611a165750508160011b916000199060031b1c19161790565b87555b0194019101909261172a565b015190508e80610b02565b90601f1983169187600052816000209260005b818110611a765750936020936001969387969383889510611a5d575b505050811b018755611a0a565b015160001960f88460031b161c191690558d8080611a50565b92936020600181928786015181550195019301611a34565b611aba90876000526020600020601f850160051c8101916020861061137d57601f0160051c019061470d565b8a6119ce565b8360005281602060002091820191015b818110611add5750611715565b80611aea60019254613c99565b80611af7575b5001611ad0565b601f81118314611b0d5750600081555b88611af0565b611b2b908260005283601f6020600020920160051c8201910161470d565b8060005260006020812081835555611b07565b34610423576020366003190112610423576004356001600160401b03811161042357611b6e903690600401613a9e565b600080546040516395a8c58d60e01b81523360048201526024810192909252602090829060449082906001600160a01b03165afa80156107dd57611bb991600091611d7957506146b7565b60405181519060208181850193611bd18183876138b9565b8101600b815203019020916006830160ff815460081c16600381101561074757611d1757426007850155805461ff00191661010017905560005b600254811015611ce757611c1e81613e65565b50604051611c348161176760208201809561456a565b5190206040516020810190611c52602082875161179381878c6138b9565b51902014611c6257600101611c0b565b611ccd92507f854681db4b5190ceaacfe5894893f2e8d49873d9b8ed6c72b5618047cb3924e5936006611ca783611c9b611ce295613e65565b50600742910155613e65565b5001805461ff0019166101001790555b60026040519485946060865260608601906138dc565b91426020860152848303604086015201613cd3565b0390a1005b50611ccd9150611ce27f854681db4b5190ceaacfe5894893f2e8d49873d9b8ed6c72b5618047cb3924e593611cb7565b60405162461bcd60e51b815260206004820152603460248201527f4f62617420547261646973696f6e616c20737461747573206d75737420626520604482015273696e206c6f63616c2070726f64756374696f6e2160601b6064820152608490fd5b611d92915060203d6020116107d6576107c88183613a7d565b83610964565b34610423576020366003190112610423576004356001600160401b03811161042357611dc8903690600401613a9e565b606060405190611dfc6101db600285519460208181890197611deb81838b6138b9565b8101600d8152030190200154613c99565b60ff60046040516020818751611e1381838a6138b9565b8101600d8152030190200154169160ff6040516020818751611e368183886138b9565b8101600d815203019020541693611e4c856138af565b6000546040516395a8c58d60e01b8152336004820152600160248201526001600160a01b0390911690602081604481855afa9081156107dd57600091611f62575b5015611ec75750505050611e9f614106565b915b611ebd6040519384938452606060208501526060840190613901565b9060408301520390f35b6020604491604097959751928380926395a8c58d60e01b8252336004830152600060248301525afa9081156107dd57600091611f43575b50611f0b575b5050611ea1565b611f3b9294506020600692611f2b926040519384928392519283916138b9565b8101600d81520301902001613f69565b918380611f04565b611f5c915060203d6020116107d6576107c88183613a7d565b86611efe565b611f7b915060203d6020116107d6576107c88183613a7d565b87611e8d565b34610423576020366003190112610423576004356001600160401b038111610423576020610466611fb6923690600401613a9e565b8101600e81520301902060ff81541661041f6005604051936115fd856103598160018501613cd3565b34610423576020366003190112610423576004356001600160401b03811161042357612045612036602061201a61041f943690600401613a9e565b612022613f31565b5081604051938285809451938492016138b9565b8101600d815203019020613fc9565b60405191829160208352602083019061395a565b34610423576020366003190112610423576004356001600160401b0381116104235761022c61048f612097602061046661041f953690600401613a9e565b8101600881520301902060405192838092613cd3565b34610423576020366003190112610423576004356001600160401b0381116104235761022c61048f6120eb602061046661041f953690600401613a9e565b8101600581520301902060405192838092613cd3565b34610423576000366003190112610423576001546040516001600160a01b039091168152602090f35b34610423576020366003190112610423576004356001600160401b0381116104235761215a903690600401613a9e565b600080546040516395a8c58d60e01b81523360048201526024810192909252602090829060449082906001600160a01b03165afa80156107dd576121a591600091611d7957506146b7565b60035460208201916000805b83811061231557506121c28161414e565b926121cc8261414e565b946121df6121d9846145d8565b9361414e565b93600091825b84811061223a576122108861041f8961222c8a61221e8f604051978897608089526080890190613901565b908782036020890152613901565b908582036040870152613af4565b908382036060850152613901565b600561176761224b61175384613e9a565b5190206040516020810190612269602082885161179381878b6138b9565b5190201461227a575b6001016121e5565b9261230d600191600261228f61065d88613e9a565b612299828c61428d565b526122a4818b61428d565b5060036122b361065d88613e9a565b6122bd828d61428d565b526122c8818c61428d565b5060ff60046122d688613e9a565b500154166122e4828a61428d565b52826122f261065d88613e9a565b6122fc828b61428d565b52612307818a61428d565b506140e1565b939050612272565b600561176761232661175384613e9a565b5190206040516020810190612346602082846117938c8b519283916138b9565b51902014612357575b6001016121b1565b906123636001916140e1565b91905061234f565b34610423576020366003190112610423576004356003548110156104235761239290613e9a565b5060ff81541661041f6005604051936115fd856103598160018501613cd3565b346104235760a0366003190112610423576004356001600160401b038111610423576123e2903690600401613a9e565b602435906001600160a01b0382168203610423576044356001600160401b03811161042357612415903690600401613a9e565b906064356001600160401b03811161042357612435903690600401613a9e565b906084356001600160401b03811161042357612455903690600401613a9e565b6000546040516395a8c58d60e01b81523360048201526002602482015291939190602090829060449082906001600160a01b03165afa80156107dd576124a291600091612af45750614d86565b60405193825194602081818601976124bb81838b6138b9565b8101600b815203019020956006870160ff815460081c16600381101561074757600103612a995742600889015561020061ff00198254161790556009870185516001600160401b0381116112c5576125138254613c99565b601f8111612a67575b506020601f8211600114612a0157908061254b926000916129f657508160011b916000199060031b1c19161790565b90555b604051602081865161256181838c6138b9565b810160048152030190209060018060a01b03166bffffffffffffffffffffffff60a01b825416179055604051602081855161259d81838b6138b9565b81016005815203019020908051906001600160401b0382116112c5576125c38354613c99565b601f81116129c4575b50602090601f831160011461295d576125fd9291600091836129525750508160011b916000199060031b1c19161790565b90555b604051602081845161261381838a6138b9565b81016006815203019020908051906001600160401b0382116112c5576126398354613c99565b601f8111612920575b50602090601f83116001146128b9576126739291600091836128ae5750508160011b916000199060031b1c19161790565b90555b60005b60025481101561287d5761268c81613e65565b506040516126a28161176760208201809561456a565b51902060405160208101906126c0602082875161179381878d6138b9565b519020146126d057600101612679565b600992935061270991506126e381613e65565b5060084291015560066126f582613e65565b5001805461ff001916610200179055613e65565b5001918151926001600160401b0384116112c5576127278154613c99565b601f811161284b575b50602093601f81116001146127bd5791611ce29161278a846127a396957f489f165b733603cb0a992d8cafd6c42a0c13d169039003f751758b9f0019f26c986000916127b257508160011b916000199060031b1c19161790565b90555b60026040519485946040865260408601906138dc565b91848303602086015201613cd3565b905086015189610b73565b601f1981169482600052806000209560005b8181106128335750827f489f165b733603cb0a992d8cafd6c42a0c13d169039003f751758b9f0019f26c97611ce295936127a39897956001941061281a575b5050811b01905561278d565b87015160001960f88460031b161c19169055888061280e565b868301518855600190970196602092830192016127cf565b61287790826000526020600020601f870160051c8101916020881061137d57601f0160051c019061470d565b84612730565b50506127a39150611ce27f489f165b733603cb0a992d8cafd6c42a0c13d169039003f751758b9f0019f26c9361278d565b015190508880610b02565b90601f1983169184600052816000209260005b81811061290857509084600195949392106128ef575b505050811b019055612676565b015160001960f88460031b161c191690558780806128e2565b929360206001819287860151815501950193016128cc565b61294c90846000526020600020601f850160051c8101916020861061137d57601f0160051c019061470d565b87612642565b015190508980610b02565b90601f1983169184600052816000209260005b8181106129ac5750908460019594939210612993575b505050811b019055612600565b015160001960f88460031b161c19169055888080612986565b92936020600181928786015181550195019301612970565b6129f090846000526020600020601f850160051c8101916020861061137d57601f0160051c019061470d565b886125cc565b90508801518b610b73565b601f1982169083600052806000209160005b8a828210612a4f5750509083600194939210612a36575b5050811b01905561254e565b89015160001960f88460031b161c191690558a80612a2a565b60018495602093958493015181550194019201612a13565b612a9390836000526020600020601f840160051c8101916020851061137d57601f0160051c019061470d565b8961251c565b60405162461bcd60e51b815260206004820152602d60248201527f4f62617420547261646973696f6e616c20737461747573206d7573742062652060448201526c5265717565737465644e49452160981b6064820152608490fd5b612b0d915060203d6020116107d6576107c88183613a7d565b876104f9565b346104235760203660031901126104235760043560025481101561042357612b3a90613e65565b5060405190612b4d826116268184613cd3565b61041f600960405192612b67846116498160018501613cd3565b60405194612b7c8661038b8160028601613cd3565b60405190612b91826116268160048701613cd3565b600683015490600784015492612bb660088601549561038b6040518099819301613cd3565b60405198899860ff808660081c169516938a613d56565b34610423576020366003190112610423576004356001600160a01b0381169081900361042357600052600a60205260ff604060002054166040516004821015610747576020918152f35b34610423576020366003190112610423576004356001600160401b03811161042357612045612c52602061201a61041f943690600401613a9e565b8101600e815203019020613fc9565b346104235760c0366003190112610423576004356001600160401b03811161042357612c91903690600401613a9e565b6024356001600160401b03811161042357612cb0903690600401613a9e565b6044356001600160401b03811161042357612ccf903690600401613a9e565b906064359060ff8216809203610423576084356001600160401b03811161042357612cfe903690600401613a9e565b60a4356001600160401b03811161042357612d1d903690600401613de7565b906044602060018060a01b0360005416604051928380926395a8c58d60e01b8252336004830152600060248301525afa80156107dd57612d64916000916133ac57506146b7565b815184036133555760405190600384519260208181880195612d878183896138b9565b8101600d81520301902001604051612da78161176760208201809561456a565b51902087604051612dc86020828161179381830196878151938492016138b9565b519020036132bf5750612e136020600692600460405183818951612ded8183886138b9565b8101600d815203019020018760ff198254161790556040518093819288519283916138b9565b8101600d815203019020018151600160401b81116112c5578154818355808210613241575b50602083019081926000526020600020916000905b828210613129575050505060009460208101955b6003548110156130f4576002611767612e7c61175384613e9a565b519020611793604051612e9c6020828c8282019586918a519283916138b9565b51902014612eac57600101612e61565b6006929394959650612ed591506004612ec482613e9a565b5001805460ff191688179055613e9a565b5001915190600160401b82116112c5578254828455808310613076575b50916000526020600020916000905b828210612f5e575050505091611ce2612f4b927fabb6d08782df0e4c2ee63deacc72efc9c1a9422c00fc5d8075160d11eaa40b4a945b6040519485946060865260608601906138dc565b91602085015283820360408501526138dc565b80518051906001600160401b0382116112c557612f7b8654613c99565b601f8111613044575b50602090601f8311600114612fd75792612fbd83600195946020948796600092612fcc5750508160011b916000199060031b1c19161790565b87555b01940191019092612f01565b015190508d80610b02565b90601f1983169187600052816000209260005b81811061302c5750936020936001969387969383889510613013575b505050811b018755612fc0565b015160001960f88460031b161c191690558c8080613006565b92936020600181928786015181550195019301612fea565b61307090876000526020600020601f850160051c8101916020861061137d57601f0160051c019061470d565b89612f84565b8360005282602060002091820191015b8181106130935750612ef2565b806130a060019254613c99565b806130ad575b5001613086565b601f811183146130c35750600081555b896130a6565b6130e1908260005283601f6020600020920160051c8201910161470d565b80600052600060208120818355556130bd565b50505050612f4b92507fabb6d08782df0e4c2ee63deacc72efc9c1a9422c00fc5d8075160d11eaa40b4a9391611ce291612f37565b80518051906001600160401b0382116112c5576131468654613c99565b601f811161320f575b50602090601f83116001146131a25792613188836001959460209487966000926131975750508160011b916000199060031b1c19161790565b87555b01940191019092612e4d565b015190503880610b02565b90601f1983169187600052816000209260005b8181106131f757509360209360019693879693838895106131de575b505050811b01875561318b565b015160001960f88460031b161c191690558f80806131d1565b929360206001819287860151815501950193016131b5565b61323b90876000526020600020601f850160051c8101916020861061137d57601f0160051c019061470d565b8c61314f565b8260005281602060002091820191015b81811061325e5750612e38565b8061326b60019254613c99565b80613278575b5001613251565b601f8111831461328e5750600081555b8a613271565b6132ac908260005283601f6020600020920160051c8201910161470d565b8060005260006020812081835555613288565b6133509061334b612f4b9761333c6020611ce298967fabb6d08782df0e4c2ee63deacc72efc9c1a9422c00fc5d8075160d11eaa40b4a9c9a9860405196879561330787613a62565b600087528a8588015260408701528c60608701528a608087015260a086015260c0850152604051809381928a519283916138b9565b8101600d815203019020614724565b614d1b565b612f37565b60405162461bcd60e51b815260206004820152602960248201527f5175616e7469747920646f6573206e6f74206d6174636820746865206e756d626044820152686572206f662049447360b81b6064820152608490fd5b6133c5915060203d6020116107d6576107c88183613a7d565b88610964565b34610423576020366003190112610423576004356001600160401b038111610423576020610466613400923690600401613a9e565b8101600c81520301902060405190612b4d826116268184613cd3565b34610423576020366003190112610423576004356001600160401b0381116104235761344e6020913690600401613a9e565b8161346260405192838151938492016138b9565b600790820190815281900382019020546040516001600160a01b039091168152f35b346104235760003660031901126104235761041f6134a061406b565b604051918291826139e6565b34610423576020366003190112610423576004356001600160401b0381116104235761022c61048f6134ea602061046661041f953690600401613a9e565b8101600981520301902060405192838092613cd3565b34610423576020366003190112610423576004356001600160401b038111610423576020610466613535923690600401613a9e565b8101600b81520301902060405190612b4d826116268184613cd3565b34610423576020366003190112610423576004356001600160401b03811161042357613581903690600401613a9e565b61358961460a565b50604051906135b96101db825193602081818601966135a981838a6138b9565b8101600b81520301902054613c99565b61041f6103596103e560405160208186516135d581838b6138b9565b8101600b8152030190209360096102f06040519661021b88613a46565b34610423576020366003190112610423576004356001600160401b03811161042357613622903690600401613a9e565b600254600060208301815b838110613799575061363e8261414e565b926136488361414e565b9161365b613655856145d8565b946145d8565b95600091825b84811061369a576122108861041f8b61368c8b61221e8c604051978897608089526080890190613901565b908382036060850152613af4565b6136a8602061069883613e65565b60088152030190206040516136c58161176760208201809561456a565b51902060405160208101906136e3602082885161179381878b6138b9565b519020146136f4575b600101613661565b9261022c61370461062c86613e65565b61370e828a61428d565b52613719818961428d565b50600261372861065d86613e65565b613732828861428d565b5261373d818761428d565b5060ff600661374b86613e65565b50015460081c16600381101561074757816137919161376c6001948b61428d565b5260ff600661377a88613e65565b50015416613787816138af565b610739828d61428d565b9390506136ec565b6137a7602061069883613e65565b60088152030190206040516137c48161176760208201809561456a565b51902060405160208101906137e26020828a5161179381878b6138b9565b519020146137f3575b60010161362d565b916137ff6001916140e1565b9290506137eb565b34610423576020366003190112610423576004356001600160401b038111610423576138396020913690600401613a9e565b8161384d60405192838151938492016138b9565b600490820190815281900382019020546040516001600160a01b039091168152f35b346104235760003660031901126104235761041f6134a06142a1565b34610423576000366003190112610423576000546001600160a01b03168152602090f35b6002111561074757565b60005b8381106138cc5750506000910152565b81810151838201526020016138bc565b906020916138f5815180928185528580860191016138b9565b601f01601f1916010190565b9080602083519182815201916020808360051b8301019401926000915b83831061392d57505050505090565b909192939460208061394b600193601f1986820301875289516138dc565b9701930193019193929061391e565b6139e3918151613969816138af565b815260c06139d26139b36139a161398f602087015160e0602088015260e08701906138dc565b604087015186820360408801526138dc565b606086015185820360608701526138dc565b60ff608086015116608085015260a085015184820360a08601526138dc565b9201519060c0818403910152613901565b90565b602081016020825282518091526040820191602060408360051b8301019401926000915b838310613a1957505050505090565b9091929394602080613a37600193603f19868203018752895161395a565b97019301930191939290613a0a565b61016081019081106001600160401b038211176112c557604052565b60e081019081106001600160401b038211176112c557604052565b90601f801991011681019081106001600160401b038211176112c557604052565b81601f82011215610423578035906001600160401b0382116112c55760405192613ad2601f8401601f191660200185613a7d565b8284526020838301011161042357816000926020809301838601378301015290565b906020808351928381520192019060005b818110613b125750505090565b825160ff16845260209384019390920191600101613b05565b9060038210156107475752565b959193613c60613c8b956139e3999795613c438a610140613c6e9760e08352613c17613bf2613bdb613bc4613baf613b98613b81875161016060e08c01526102408b01906138dc565b60208801518a820360df19016101008c01526138dc565b604087015189820360df19016101208b01526138dc565b606086015188820360df1901888a0152613901565b608085015187820360df19016101608901526138dc565b60a084015186820360df1901610180880152613901565b9360c0830151613c01816138af565b6101a08201526101c060e0840151910190613b2b565b6101008101516101e08f01526101208101516102008f015201518c820360df19016102208e01526138dc565b6001600160a01b0390921660208b015289820360408b01526138dc565b9087820360608901526138dc565b6001600160a01b03909216608086015284820360a08601526138dc565b9160c08184039101526138dc565b90600182811c92168015613cc9575b6020831014613cb357565b634e487b7160e01b600052602260045260246000fd5b91607f1691613ca8565b60009291815491613ce383613c99565b8083529260018116908115613d395750600114613cff57505050565b60009081526020812093945091925b838310613d1f575060209250010190565b600181602092949394548385870101520191019190613d0e565b915050602093945060ff929192191683830152151560051b010190565b959193613c60613db894613d916139e39c9a97613d83613d9f969d9a9d6101208d526101208d01906138dc565b908b820360208d01526138dc565b9089820360408b01526138dc565b96613da9816138af565b608086015260a0850190613b2b565b60c083015260e08201526101008184039101526138dc565b6001600160401b0381116112c55760051b60200190565b9080601f83011215610423578135613dfe81613dd0565b92613e0c6040519485613a7d565b81845260208085019260051b820101918383116104235760208201905b838210613e3857505050505090565b81356001600160401b03811161042357602091613e5a87848094880101613a9e565b815201910190613e29565b600254811015613e84576002600052600a602060002091020190600090565b634e487b7160e01b600052603260045260246000fd5b600354811015613e845760036000526007602060002091020190600090565b9293613ef76139e39795613ee960ff95613f0595613ed6816138af565b885260c0602089015260c08801906138dc565b9086820360408801526138dc565b9084820360608601526138dc565b9316608082015260a08184039101526138dc565b90816020910312610423575180151581036104235790565b60405190613f3e82613a62565b606060c083600081528260208201528260408201528280820152600060808201528260a08201520152565b908154613f7581613dd0565b92613f836040519485613a7d565b818452602084019060005260206000206000915b838310613fa45750505050565b600160208192604051613fbb8161022c8189613cd3565b815201920192019190613f97565b90604051613fd681613a62565b60c06140666006839560ff815416613fed816138af565b85526040516140038161022c8160018601613cd3565b602086015260405161401c8161022c8160028601613cd3565b60408601526040516140358161022c8160038601613cd3565b606086015260ff600482015416608086015260405161405b8161022c8160058601613cd3565b60a086015201613f69565b910152565b6003549061407882613dd0565b916140866040519384613a7d565b808352600360009081527fc2575a0e9e593c00f959f8c92f12db2869c3395a3b0502d05e2516446f71f85b602085015b8383106140c35750505050565b600760206001926140d385613fc9565b8152019201920191906140b6565b60001981146140f05760010190565b634e487b7160e01b600052601160045260246000fd5b60405190614115602083613a7d565b600080835282815b82811061412957505050565b80606060208093850101520161411d565b634e487b7160e01b81526041600452602490fd5b9061415882613dd0565b6141656040519182613a7d565b8281528092614176601f1991613dd0565b019060005b82811061418757505050565b80606060208093850101520161417b565b805115613e845760200190565b805160011015613e845760400190565b805160021015613e845760600190565b805160031015613e845760800190565b805160041015613e845760a00190565b805160051015613e845760c00190565b805160061015613e845760e00190565b805160071015613e84576101000190565b805160081015613e84576101200190565b805160091015613e84576101400190565b8051600a1015613e84576101600190565b8051600b1015613e84576101800190565b8051600c1015613e84576101a00190565b8051600d1015613e84576101c00190565b8051600e1015613e84576101e00190565b8051821015613e845760209160051b010190565b6000546040516395a8c58d60e01b8152336004820152600160248201526001600160a01b0390911690602081604481855afa9081156107dd5760009161454b575b50156144b15750600080600354905b818110614478575061430282613dd0565b916143106040519384613a7d565b80835261431f601f1991613dd0565b0160005b8181106144615750506000805b82811061433d5750505090565b60ff61434882613e9a565b505416614354816138af565b15614362575b600101614330565b9061445960019160ff61437485613e9a565b50541661438085613e9a565b50600561443a61438f88613e9a565b5088600361442061439f83613e9a565b50600261440b6143bf60ff60046143b589613e9a565b5001541696613e9a565b50968e6143f66143cd614106565b9c6040519e8f6143dc81613a62565b6143e5826138af565b5261022c6040518094819301613cd3565b60208d015261022c6040518094819301613cd3565b60408a015261022c6040518094819301613cd3565b6060870152608086015261022c6040518094819301613cd3565b60a083015260c082015261444e828861428d565b52612307818761428d565b91905061435a565b60209061446c613f31565b82828701015201614323565b60ff61448382613e9a565b50541661448f816138af565b1561449d575b6001016142f1565b916144a96001916140e1565b929050614495565b6020604491604051928380926395a8c58d60e01b8252336004830152600060248301525afa9081156107dd5760009161452c575b50156144f3576139e361406b565b6040516000614503602083613a7d565b81526000805b81811061451557505090565b602090614520613f31565b82828601015201614509565b614545915060203d6020116107d6576107c88183613a7d565b386144e5565b614564915060203d6020116107d6576107c88183613a7d565b386142e2565b6000929181549161457a83613c99565b92600181169081156145c5575060011461459357505050565b909192935060005260206000206000905b8382106145b15750500190565b6001816020925484860152019101906145a4565b60ff191683525050811515909102019150565b906145e282613dd0565b6145ef6040519182613a7d565b8281528092614600601f1991613dd0565b0190602036910137565b6040519061461782613a46565b60606101408382815282602082015282604082015282808201528260808201528260a0820152600060c0820152600060e0820152600061010082015260006101208201520152565b1561466657565b60405162461bcd60e51b815260206004820152601b60248201527f4e6f206461746120666f756e64207769746820746869732049442e00000000006044820152606490fd5b60038210156107475752565b156146be57565b60405162461bcd60e51b815260206004820152602160248201527f416363657373207265737472696374656420746f20466163746f727920726f6c6044820152606560f81b6064820152608490fd5b818110614718575050565b6000815560010161470d565b815161472f816138af565b614738816138af565b60ff801983541691161781556001810160208301518051906001600160401b0382116112c5576147688354613c99565b601f8111614ce9575b50602090601f8311600114614c82576147a29291600091836131975750508160011b916000199060031b1c19161790565b90555b6002810160408301518051906001600160401b0382116112c5576147c98354613c99565b601f8111614c50575b50602090601f8311600114614be9576148039291600091836131975750508160011b916000199060031b1c19161790565b90555b6003810160608301518051906001600160401b0382116112c55761482a8354613c99565b601f8111614bb7575b50602090601f8311600114614b50576148649291600091836131975750508160011b916000199060031b1c19161790565b90555b60ff60808301511660ff60048301911660ff198254161790556005810160a08301518051906001600160401b0382116112c5576148a48354613c99565b601f8111614b1e575b50602090601f8311600114614ab1578260c09593600695936148e5936000926131975750508160011b916000199060031b1c19161790565b90555b01910151805190600160401b82116112c5578254828455808310614a33575b50602001916000526020600020916000905b8282106149265750505050565b80518051906001600160401b0382116112c5576149438654613c99565b601f8111614a01575b50602090601f83116001146149945792614985836001959460209487966000926131975750508160011b916000199060031b1c19161790565b87555b01940191019092614919565b90601f1983169187600052816000209260005b8181106149e957509360209360019693879693838895106149d0575b505050811b018755614988565b015160001960f88460031b161c191690553880806149c3565b929360206001819287860151815501950193016149a7565b614a2d90876000526020600020601f850160051c8101916020861061137d57601f0160051c019061470d565b3861494c565b8360005282602060002091820191015b818110614a505750614907565b80614a5d60019254613c99565b80614a6a575b5001614a43565b601f81118314614a805750600081555b38614a63565b614a9e908260005283601f6020600020920160051c8201910161470d565b8060005260006020812081835555614a7a565b90601f1983169184600052816000209260005b818110614b06575092600192859260c098966006989610614aed575b505050811b0190556148e8565b015160001960f88460031b161c19169055388080614ae0565b92936020600181928786015181550195019301614ac4565b614b4a90846000526020600020601f850160051c8101916020861061137d57601f0160051c019061470d565b386148ad565b90601f1983169184600052816000209260005b818110614b9f5750908460019594939210614b86575b505050811b019055614867565b015160001960f88460031b161c19169055388080614b79565b92936020600181928786015181550195019301614b63565b614be390846000526020600020601f850160051c8101916020861061137d57601f0160051c019061470d565b38614833565b90601f1983169184600052816000209260005b818110614c385750908460019594939210614c1f575b505050811b019055614806565b015160001960f88460031b161c19169055388080614c12565b92936020600181928786015181550195019301614bfc565b614c7c90846000526020600020601f850160051c8101916020861061137d57601f0160051c019061470d565b386147d2565b90601f1983169184600052816000209260005b818110614cd15750908460019594939210614cb8575b505050811b0190556147a5565b015160001960f88460031b161c19169055388080614cab565b92936020600181928786015181550195019301614c95565b614d1590846000526020600020601f850160051c8101916020861061137d57601f0160051c019061470d565b38614771565b600354600160401b8110156112c557600181016003556000600354821015614d7257600390526007027fc2575a0e9e593c00f959f8c92f12db2869c3395a3b0502d05e2516446f71f85b0190614d7091614724565b565b634e487b7160e01b81526032600452602490fd5b15614d8d57565b60405162461bcd60e51b815260206004820152601e60248201527f416363657373207265737472696374656420746f2042504f4d20726f6c6500006044820152606490fd5b909182519283516001600160401b0381116112c557614df18454613c99565b601f8111615670575b50602094601f821160011461560b57614e2e9293949582916000926131975750508160011b916000199060031b1c19161790565b83555b6001830160208201518051906001600160401b0382116112c557614e558354613c99565b601f81116155d9575b50602090601f831160011461557257614e8f9291600091836131975750508160011b916000199060031b1c19161790565b90555b6002830160408201518051906001600160401b0382116112c557614eb68354613c99565b601f8111615540575b50602090601f83116001146154d957614ef09291600091836131975750508160011b916000199060031b1c19161790565b90555b600383016060820151805190600160401b82116112c557825482845580831061545b575b50602001916000526020600020916000905b82821061534e57505050506004830160808201518051906001600160401b0382116112c557614f588354613c99565b601f811161531c575b50602090601f83116001146152b557614f929291600091836131975750508160011b916000199060031b1c19161790565b90555b6005830160a0820151805190600160401b82116112c5578254828455808310615237575b50602001916000526020600020916000905b82821061512a5750505050600683019260c0820151614fe9816138af565b614ff2816138af565b60ff8019865416911617845560e082015193600385101561074757805461ff001916600895861b61ff00161790556101008201516007820155610120820151938101939093556101400151805190926009019060006001600160401b03821161413a5761505f8354613c99565b601f81116150fa575b50602090601f831160011461509c5790615098939495836131975750508160011b916000199060031b1c19161790565b9055565b90601f198316848352818320925b8181106150e2575095836001959697106150c9575b505050811b019055565b015160001960f88460031b161c191690553880806150bf565b9192602060018192868b0151815501940192016150aa565b6151249084835260208320601f850160051c8101916020861061137d57601f0160051c019061470d565b38615068565b80518051906001600160401b0382116112c5576151478654613c99565b601f8111615205575b50602090601f83116001146151985792615189836001959460209487966000926131975750508160011b916000199060031b1c19161790565b87555b01940191019092614fcb565b90601f1983169187600052816000209260005b8181106151ed57509360209360019693879693838895106151d4575b505050811b01875561518c565b015160001960f88460031b161c191690553880806151c7565b929360206001819287860151815501950193016151ab565b61523190876000526020600020601f850160051c8101916020861061137d57601f0160051c019061470d565b38615150565b8360005282602060002091820191015b8181106152545750614fb9565b8061526160019254613c99565b8061526e575b5001615247565b601f811183146152845750600081555b38615267565b6152a2908260005283601f6020600020920160051c8201910161470d565b806000526000602081208183555561527e565b90601f1983169184600052816000209260005b81811061530457509084600195949392106152eb575b505050811b019055614f95565b015160001960f88460031b161c191690553880806152de565b929360206001819287860151815501950193016152c8565b61534890846000526020600020601f850160051c8101916020861061137d57601f0160051c019061470d565b38614f61565b80518051906001600160401b0382116112c55761536b8654613c99565b601f8111615429575b50602090601f83116001146153bc57926153ad836001959460209487966000926131975750508160011b916000199060031b1c19161790565b87555b01940191019092614f29565b90601f1983169187600052816000209260005b81811061541157509360209360019693879693838895106153f8575b505050811b0187556153b0565b015160001960f88460031b161c191690553880806153eb565b929360206001819287860151815501950193016153cf565b61545590876000526020600020601f850160051c8101916020861061137d57601f0160051c019061470d565b38615374565b8360005282602060002091820191015b8181106154785750614f17565b8061548560019254613c99565b80615492575b500161546b565b601f811183146154a85750600081555b3861548b565b6154c6908260005283601f6020600020920160051c8201910161470d565b80600052600060208120818355556154a2565b90601f1983169184600052816000209260005b818110615528575090846001959493921061550f575b505050811b019055614ef3565b015160001960f88460031b161c19169055388080615502565b929360206001819287860151815501950193016154ec565b61556c90846000526020600020601f850160051c8101916020861061137d57601f0160051c019061470d565b38614ebf565b90601f1983169184600052816000209260005b8181106155c157509084600195949392106155a8575b505050811b019055614e92565b015160001960f88460031b161c1916905538808061559b565b92936020600181928786015181550195019301615585565b61560590846000526020600020601f850160051c8101916020861061137d57601f0160051c019061470d565b38614e5e565b601f1982169585600052806000209160005b8881106156585750836001959697981061563f575b505050811b018355614e31565b015160001960f88460031b161c19169055388080615632565b9192602060018192868501518155019401920161561d565b61569c90856000526020600020601f840160051c8101916020851061137d57601f0160051c019061470d565b38614dfa56fea2646970667358221220b4ce44526527f81517901391360cb51a650fdd9a33ad3206ee7d5240ed826f4864736f6c634300081b0033",
  "linkReferences": {},
  "deployedLinkReferences": {}
}