{
  "_format": "hh-sol-artifact-1",
  "contractName": "ObatTradisional",
  "sourceName": "contracts/ObatTradisional.sol",
  "abi": [
    {
      "inputs": [
        {
          "internalType": "address",
          "name": "_roleManagerAddr",
          "type": "address"
        },
        {
          "internalType": "address",
          "name": "_mainSupplyChainAddr",
          "type": "address"
        }
      ],
      "stateMutability": "nonpayable",
      "type": "constructor"
    },
    {
      "anonymous": false,
      "inputs": [
        {
          "indexed": false,
          "internalType": "string",
          "name": "namaProduk",
          "type": "string"
        },
        {
          "indexed": false,
          "internalType": "uint8",
          "name": "quantity",
          "type": "uint8"
        },
        {
          "indexed": false,
          "internalType": "string",
          "name": "batchName",
          "type": "string"
        }
      ],
      "name": "evt_addObatQuantity",
      "type": "event"
    },
    {
      "anonymous": false,
      "inputs": [
        {
          "indexed": false,
          "internalType": "string",
          "name": "nieNumber",
          "type": "string"
        },
        {
          "indexed": false,
          "internalType": "string",
          "name": "namaProduk",
          "type": "string"
        },
        {
          "indexed": false,
          "internalType": "uint256",
          "name": "timestampApproved",
          "type": "uint256"
        }
      ],
      "name": "evt_nieApproved",
      "type": "event"
    },
    {
      "anonymous": false,
      "inputs": [
        {
          "indexed": false,
          "internalType": "string",
          "name": "obatId",
          "type": "string"
        },
        {
          "indexed": false,
          "internalType": "uint256",
          "name": "timestampRequested",
          "type": "uint256"
        },
        {
          "indexed": false,
          "internalType": "string",
          "name": "namaProduk",
          "type": "string"
        }
      ],
      "name": "evt_nieRequested",
      "type": "event"
    },
    {
      "anonymous": false,
      "inputs": [
        {
          "indexed": false,
          "internalType": "string",
          "name": "namaProduk",
          "type": "string"
        },
        {
          "indexed": false,
          "internalType": "string",
          "name": "factoryInstanceNames",
          "type": "string"
        },
        {
          "indexed": false,
          "internalType": "string",
          "name": "factoryUserNames",
          "type": "string"
        },
        {
          "indexed": false,
          "internalType": "address",
          "name": "factoryAddresses",
          "type": "address"
        },
        {
          "indexed": false,
          "internalType": "string",
          "name": "kemasan",
          "type": "string"
        },
        {
          "indexed": false,
          "internalType": "enum EnumsLibrary.TipeProduk",
          "name": "tipeProduk",
          "type": "uint8"
        }
      ],
      "name": "evt_obatCreated",
      "type": "event"
    },
    {
      "inputs": [
        {
          "internalType": "string",
          "name": "_obatId",
          "type": "string"
        },
        {
          "internalType": "string",
          "name": "_batchName",
          "type": "string"
        },
        {
          "internalType": "string",
          "name": "_factoryInstanceName",
          "type": "string"
        },
        {
          "internalType": "uint8",
          "name": "_obatQuantity",
          "type": "uint8"
        },
        {
          "internalType": "string[]",
          "name": "_obatIpfsHash",
          "type": "string[]"
        }
      ],
      "name": "addObatQuantity",
      "outputs": [],
      "stateMutability": "nonpayable",
      "type": "function"
    },
    {
      "inputs": [
        {
          "internalType": "uint256",
          "name": "",
          "type": "uint256"
        }
      ],
      "name": "allObatData",
      "outputs": [
        {
          "internalType": "string",
          "name": "obatId",
          "type": "string"
        },
        {
          "internalType": "string",
          "name": "merk",
          "type": "string"
        },
        {
          "internalType": "string",
          "name": "namaProduk",
          "type": "string"
        },
        {
          "internalType": "string",
          "name": "kemasan",
          "type": "string"
        },
        {
          "internalType": "enum EnumsLibrary.TipeProduk",
          "name": "tipeProduk",
          "type": "uint8"
        },
        {
          "internalType": "enum EnumsLibrary.NieStatus",
          "name": "obatStatus",
          "type": "uint8"
        },
        {
          "internalType": "uint256",
          "name": "productionTimestamp",
          "type": "uint256"
        },
        {
          "internalType": "uint256",
          "name": "nieRequestDate",
          "type": "uint256"
        },
        {
          "internalType": "uint256",
          "name": "nieApprovalDate",
          "type": "uint256"
        },
        {
          "internalType": "string",
          "name": "nieNumber",
          "type": "string"
        },
        {
          "internalType": "string",
          "name": "factoryInstanceName",
          "type": "string"
        }
      ],
      "stateMutability": "view",
      "type": "function"
    },
    {
      "inputs": [
        {
          "internalType": "uint256",
          "name": "",
          "type": "uint256"
        }
      ],
      "name": "allProducedObat",
      "outputs": [
        {
          "internalType": "enum EnumsLibrary.ObatAvailability",
          "name": "statusStok",
          "type": "uint8"
        },
        {
          "internalType": "string",
          "name": "batchName",
          "type": "string"
        },
        {
          "internalType": "string",
          "name": "obatId",
          "type": "string"
        },
        {
          "internalType": "string",
          "name": "namaProduk",
          "type": "string"
        },
        {
          "internalType": "uint8",
          "name": "obatQuantity",
          "type": "uint8"
        },
        {
          "internalType": "string",
          "name": "factoryInstanceNames",
          "type": "string"
        }
      ],
      "stateMutability": "view",
      "type": "function"
    },
    {
      "inputs": [
        {
          "internalType": "string",
          "name": "_obatId",
          "type": "string"
        },
        {
          "internalType": "address",
          "name": "_bpomAddr",
          "type": "address"
        },
        {
          "internalType": "string",
          "name": "_bpomInstanceName",
          "type": "string"
        },
        {
          "internalType": "string",
          "name": "_bpomUserName",
          "type": "string"
        },
        {
          "internalType": "string",
          "name": "_nieNumber",
          "type": "string"
        }
      ],
      "name": "approveNie",
      "outputs": [],
      "stateMutability": "nonpayable",
      "type": "function"
    },
    {
      "inputs": [
        {
          "internalType": "string",
          "name": "",
          "type": "string"
        }
      ],
      "name": "bpomAddresses",
      "outputs": [
        {
          "internalType": "address",
          "name": "",
          "type": "address"
        }
      ],
      "stateMutability": "view",
      "type": "function"
    },
    {
      "inputs": [
        {
          "internalType": "string",
          "name": "",
          "type": "string"
        }
      ],
      "name": "bpomInstanceNames",
      "outputs": [
        {
          "internalType": "string",
          "name": "",
          "type": "string"
        }
      ],
      "stateMutability": "view",
      "type": "function"
    },
    {
      "inputs": [
        {
          "internalType": "string",
          "name": "",
          "type": "string"
        }
      ],
      "name": "bpomUserNames",
      "outputs": [
        {
          "internalType": "string",
          "name": "",
          "type": "string"
        }
      ],
      "stateMutability": "view",
      "type": "function"
    },
    {
      "inputs": [
        {
          "internalType": "string",
          "name": "_obatId",
          "type": "string"
        },
        {
          "internalType": "string",
          "name": "_merk",
          "type": "string"
        },
        {
          "internalType": "string",
          "name": "_namaProduk",
          "type": "string"
        },
        {
          "internalType": "string[]",
          "name": "_klaim",
          "type": "string[]"
        },
        {
          "internalType": "string",
          "name": "_kemasan",
          "type": "string"
        },
        {
          "internalType": "string[]",
          "name": "_komposisi",
          "type": "string[]"
        },
        {
          "internalType": "address",
          "name": "_factoryAddr",
          "type": "address"
        },
        {
          "internalType": "string",
          "name": "_factoryInstanceName",
          "type": "string"
        },
        {
          "internalType": "string",
          "name": "_factoryUserName",
          "type": "string"
        },
        {
          "internalType": "enum EnumsLibrary.TipeProduk",
          "name": "_tipeProduk",
          "type": "uint8"
        }
      ],
      "name": "createObat",
      "outputs": [],
      "stateMutability": "nonpayable",
      "type": "function"
    },
    {
      "inputs": [
        {
          "internalType": "string",
          "name": "",
          "type": "string"
        }
      ],
      "name": "factoryAddresses",
      "outputs": [
        {
          "internalType": "address",
          "name": "",
          "type": "address"
        }
      ],
      "stateMutability": "view",
      "type": "function"
    },
    {
      "inputs": [
        {
          "internalType": "string",
          "name": "",
          "type": "string"
        }
      ],
      "name": "factoryUserNames",
      "outputs": [
        {
          "internalType": "string",
          "name": "",
          "type": "string"
        }
      ],
      "stateMutability": "view",
      "type": "function"
    },
    {
      "inputs": [],
      "name": "getAllProducedObat",
      "outputs": [
        {
          "components": [
            {
              "internalType": "enum EnumsLibrary.ObatAvailability",
              "name": "statusStok",
              "type": "uint8"
            },
            {
              "internalType": "string",
              "name": "batchName",
              "type": "string"
            },
            {
              "internalType": "string",
              "name": "obatId",
              "type": "string"
            },
            {
              "internalType": "string",
              "name": "namaProduk",
              "type": "string"
            },
            {
              "internalType": "uint8",
              "name": "obatQuantity",
              "type": "uint8"
            },
            {
              "internalType": "string",
              "name": "factoryInstanceNames",
              "type": "string"
            },
            {
              "internalType": "string[]",
              "name": "obatIpfsHash",
              "type": "string[]"
            }
          ],
          "internalType": "struct ObatTradisional.st_obatProduction[]",
          "name": "",
          "type": "tuple[]"
        }
      ],
      "stateMutability": "view",
      "type": "function"
    },
    {
      "inputs": [
        {
          "internalType": "string",
          "name": "_batchName",
          "type": "string"
        }
      ],
      "name": "getDetailProducedObat",
      "outputs": [
        {
          "internalType": "uint8",
          "name": "obatQuantity",
          "type": "uint8"
        },
        {
          "internalType": "string[]",
          "name": "obatIpfsHash",
          "type": "string[]"
        },
        {
          "internalType": "uint8",
          "name": "statusStok",
          "type": "uint8"
        }
      ],
      "stateMutability": "view",
      "type": "function"
    },
    {
      "inputs": [
        {
          "internalType": "string",
          "name": "_factoryInstanceName",
          "type": "string"
        }
      ],
      "name": "getJenisSediaanAvail",
      "outputs": [
        {
          "internalType": "uint8[]",
          "name": "",
          "type": "uint8[]"
        }
      ],
      "stateMutability": "view",
      "type": "function"
    },
    {
      "inputs": [
        {
          "internalType": "string",
          "name": "_factoryInstanceName",
          "type": "string"
        }
      ],
      "name": "getListAllApprovedObatNie",
      "outputs": [
        {
          "internalType": "string[]",
          "name": "obatIdArray",
          "type": "string[]"
        },
        {
          "internalType": "string[]",
          "name": "namaProdukArray",
          "type": "string[]"
        }
      ],
      "stateMutability": "view",
      "type": "function"
    },
    {
      "inputs": [],
      "name": "getListAllObatNie",
      "outputs": [
        {
          "internalType": "string[]",
          "name": "obatIdArray",
          "type": "string[]"
        },
        {
          "internalType": "string[]",
          "name": "namaProdukArray",
          "type": "string[]"
        },
        {
          "internalType": "string[]",
          "name": "factoryInstanceArray",
          "type": "string[]"
        },
        {
          "internalType": "uint256[]",
          "name": "latestTimestampArray",
          "type": "uint256[]"
        },
        {
          "internalType": "uint8[]",
          "name": "obatStatusArray",
          "type": "uint8[]"
        }
      ],
      "stateMutability": "view",
      "type": "function"
    },
    {
      "inputs": [
        {
          "internalType": "string",
          "name": "_factoryInstanceName",
          "type": "string"
        }
      ],
      "name": "getListAllProducedObatByFactory",
      "outputs": [
        {
          "internalType": "string[]",
          "name": "obatIdArray",
          "type": "string[]"
        },
        {
          "internalType": "string[]",
          "name": "namaProdukArray",
          "type": "string[]"
        },
        {
          "internalType": "uint8[]",
          "name": "obatQuantityArray",
          "type": "uint8[]"
        },
        {
          "internalType": "string[]",
          "name": "batchNameArray",
          "type": "string[]"
        }
      ],
      "stateMutability": "view",
      "type": "function"
    },
    {
      "inputs": [
        {
          "internalType": "string",
          "name": "_factoryInstanceName",
          "type": "string"
        }
      ],
      "name": "getListObatByFactory",
      "outputs": [
        {
          "internalType": "string[]",
          "name": "obatIdArray",
          "type": "string[]"
        },
        {
          "internalType": "string[]",
          "name": "namaProdukArray",
          "type": "string[]"
        },
        {
          "internalType": "uint8[]",
          "name": "obatStatusArray",
          "type": "uint8[]"
        },
        {
          "internalType": "uint8[]",
          "name": "tipeProdukArray",
          "type": "uint8[]"
        }
      ],
      "stateMutability": "view",
      "type": "function"
    },
    {
      "inputs": [
        {
          "internalType": "string",
          "name": "_obatId",
          "type": "string"
        }
      ],
      "name": "getListObatById",
      "outputs": [
        {
          "components": [
            {
              "internalType": "string",
              "name": "obatId",
              "type": "string"
            },
            {
              "internalType": "string",
              "name": "merk",
              "type": "string"
            },
            {
              "internalType": "string",
              "name": "namaProduk",
              "type": "string"
            },
            {
              "internalType": "string[]",
              "name": "klaim",
              "type": "string[]"
            },
            {
              "internalType": "string",
              "name": "kemasan",
              "type": "string"
            },
            {
              "internalType": "string[]",
              "name": "komposisi",
              "type": "string[]"
            },
            {
              "internalType": "enum EnumsLibrary.TipeProduk",
              "name": "tipeProduk",
              "type": "uint8"
            },
            {
              "internalType": "enum EnumsLibrary.NieStatus",
              "name": "obatStatus",
              "type": "uint8"
            },
            {
              "internalType": "uint256",
              "name": "productionTimestamp",
              "type": "uint256"
            },
            {
              "internalType": "uint256",
              "name": "nieRequestDate",
              "type": "uint256"
            },
            {
              "internalType": "uint256",
              "name": "nieApprovalDate",
              "type": "uint256"
            },
            {
              "internalType": "string",
              "name": "nieNumber",
              "type": "string"
            },
            {
              "internalType": "string",
              "name": "factoryInstanceName",
              "type": "string"
            }
          ],
          "internalType": "struct ObatTradisional.st_obatDetails",
          "name": "obatDetails",
          "type": "tuple"
        },
        {
          "internalType": "address",
          "name": "factoryAddress",
          "type": "address"
        },
        {
          "internalType": "string",
          "name": "factoryInstanceName",
          "type": "string"
        },
        {
          "internalType": "string",
          "name": "factoryUserName",
          "type": "string"
        },
        {
          "internalType": "address",
          "name": "bpomAddress",
          "type": "address"
        },
        {
          "internalType": "string",
          "name": "bpomInstanceName",
          "type": "string"
        },
        {
          "internalType": "string",
          "name": "bpomUserName",
          "type": "string"
        }
      ],
      "stateMutability": "view",
      "type": "function"
    },
    {
      "inputs": [
        {
          "internalType": "string",
          "name": "_namaProduk",
          "type": "string"
        }
      ],
      "name": "getListObatByNameProduct",
      "outputs": [
        {
          "components": [
            {
              "internalType": "string",
              "name": "obatId",
              "type": "string"
            },
            {
              "internalType": "string",
              "name": "merk",
              "type": "string"
            },
            {
              "internalType": "string",
              "name": "namaProduk",
              "type": "string"
            },
            {
              "internalType": "string[]",
              "name": "klaim",
              "type": "string[]"
            },
            {
              "internalType": "string",
              "name": "kemasan",
              "type": "string"
            },
            {
              "internalType": "string[]",
              "name": "komposisi",
              "type": "string[]"
            },
            {
              "internalType": "enum EnumsLibrary.TipeProduk",
              "name": "tipeProduk",
              "type": "uint8"
            },
            {
              "internalType": "enum EnumsLibrary.NieStatus",
              "name": "obatStatus",
              "type": "uint8"
            },
            {
              "internalType": "uint256",
              "name": "productionTimestamp",
              "type": "uint256"
            },
            {
              "internalType": "uint256",
              "name": "nieRequestDate",
              "type": "uint256"
            },
            {
              "internalType": "uint256",
              "name": "nieApprovalDate",
              "type": "uint256"
            },
            {
              "internalType": "string",
              "name": "nieNumber",
              "type": "string"
            },
            {
              "internalType": "string",
              "name": "factoryInstanceName",
              "type": "string"
            }
          ],
          "internalType": "struct ObatTradisional.st_obatDetails",
          "name": "obatDetails",
          "type": "tuple"
        },
        {
          "internalType": "address",
          "name": "factoryAddress",
          "type": "address"
        },
        {
          "internalType": "string",
          "name": "factoryUserName",
          "type": "string"
        },
        {
          "internalType": "address",
          "name": "bpomAddress",
          "type": "address"
        },
        {
          "internalType": "string",
          "name": "bpomInstanceName",
          "type": "string"
        },
        {
          "internalType": "string",
          "name": "bpomUserName",
          "type": "string"
        }
      ],
      "stateMutability": "view",
      "type": "function"
    },
    {
      "inputs": [
        {
          "internalType": "string",
          "name": "_namaProduk",
          "type": "string"
        },
        {
          "internalType": "string",
          "name": "_batchName",
          "type": "string"
        },
        {
          "internalType": "string",
          "name": "_obatId",
          "type": "string"
        },
        {
          "internalType": "uint8",
          "name": "_obatQuantity",
          "type": "uint8"
        },
        {
          "internalType": "string",
          "name": "_factoryInstanceName",
          "type": "string"
        },
        {
          "internalType": "string[]",
          "name": "_obatIpfsHash",
          "type": "string[]"
        }
      ],
      "name": "getListProducedObat",
      "outputs": [],
      "stateMutability": "nonpayable",
      "type": "function"
    },
    {
      "inputs": [],
      "name": "mainSupplyChain",
      "outputs": [
        {
          "internalType": "contract MainSupplyChain",
          "name": "",
          "type": "address"
        }
      ],
      "stateMutability": "view",
      "type": "function"
    },
    {
      "inputs": [
        {
          "internalType": "string",
          "name": "",
          "type": "string"
        }
      ],
      "name": "obatDetailsById",
      "outputs": [
        {
          "internalType": "string",
          "name": "obatId",
          "type": "string"
        },
        {
          "internalType": "string",
          "name": "merk",
          "type": "string"
        },
        {
          "internalType": "string",
          "name": "namaProduk",
          "type": "string"
        },
        {
          "internalType": "string",
          "name": "kemasan",
          "type": "string"
        },
        {
          "internalType": "enum EnumsLibrary.TipeProduk",
          "name": "tipeProduk",
          "type": "uint8"
        },
        {
          "internalType": "enum EnumsLibrary.NieStatus",
          "name": "obatStatus",
          "type": "uint8"
        },
        {
          "internalType": "uint256",
          "name": "productionTimestamp",
          "type": "uint256"
        },
        {
          "internalType": "uint256",
          "name": "nieRequestDate",
          "type": "uint256"
        },
        {
          "internalType": "uint256",
          "name": "nieApprovalDate",
          "type": "uint256"
        },
        {
          "internalType": "string",
          "name": "nieNumber",
          "type": "string"
        },
        {
          "internalType": "string",
          "name": "factoryInstanceName",
          "type": "string"
        }
      ],
      "stateMutability": "view",
      "type": "function"
    },
    {
      "inputs": [
        {
          "internalType": "string",
          "name": "",
          "type": "string"
        }
      ],
      "name": "obatDetailsByNameProduct",
      "outputs": [
        {
          "internalType": "string",
          "name": "obatId",
          "type": "string"
        },
        {
          "internalType": "string",
          "name": "merk",
          "type": "string"
        },
        {
          "internalType": "string",
          "name": "namaProduk",
          "type": "string"
        },
        {
          "internalType": "string",
          "name": "kemasan",
          "type": "string"
        },
        {
          "internalType": "enum EnumsLibrary.TipeProduk",
          "name": "tipeProduk",
          "type": "uint8"
        },
        {
          "internalType": "enum EnumsLibrary.NieStatus",
          "name": "obatStatus",
          "type": "uint8"
        },
        {
          "internalType": "uint256",
          "name": "productionTimestamp",
          "type": "uint256"
        },
        {
          "internalType": "uint256",
          "name": "nieRequestDate",
          "type": "uint256"
        },
        {
          "internalType": "uint256",
          "name": "nieApprovalDate",
          "type": "uint256"
        },
        {
          "internalType": "string",
          "name": "nieNumber",
          "type": "string"
        },
        {
          "internalType": "string",
          "name": "factoryInstanceName",
          "type": "string"
        }
      ],
      "stateMutability": "view",
      "type": "function"
    },
    {
      "inputs": [
        {
          "internalType": "string",
          "name": "",
          "type": "string"
        }
      ],
      "name": "obatProductionDetailsByBatchName",
      "outputs": [
        {
          "internalType": "enum EnumsLibrary.ObatAvailability",
          "name": "statusStok",
          "type": "uint8"
        },
        {
          "internalType": "string",
          "name": "batchName",
          "type": "string"
        },
        {
          "internalType": "string",
          "name": "obatId",
          "type": "string"
        },
        {
          "internalType": "string",
          "name": "namaProduk",
          "type": "string"
        },
        {
          "internalType": "uint8",
          "name": "obatQuantity",
          "type": "uint8"
        },
        {
          "internalType": "string",
          "name": "factoryInstanceNames",
          "type": "string"
        }
      ],
      "stateMutability": "view",
      "type": "function"
    },
    {
      "inputs": [
        {
          "internalType": "string",
          "name": "_obatId",
          "type": "string"
        }
      ],
      "name": "requestNie",
      "outputs": [],
      "stateMutability": "nonpayable",
      "type": "function"
    },
    {
      "inputs": [],
      "name": "roleManager",
      "outputs": [
        {
          "internalType": "contract RoleManager",
          "name": "",
          "type": "address"
        }
      ],
      "stateMutability": "view",
      "type": "function"
    },
    {
      "inputs": [
        {
          "internalType": "string",
          "name": "_batchName",
          "type": "string"
        },
        {
          "internalType": "string[]",
          "name": "_obatIpfsHash",
          "type": "string[]"
        }
      ],
      "name": "updateObatProductionDetails",
      "outputs": [],
      "stateMutability": "nonpayable",
      "type": "function"
    },
    {
      "inputs": [
        {
          "internalType": "address",
          "name": "",
          "type": "address"
        }
      ],
      "name": "userRoles",
      "outputs": [
        {
          "internalType": "enum EnumsLibrary.Roles",
          "name": "",
          "type": "uint8"
        }
      ],
      "stateMutability": "view",
      "type": "function"
    }
  ],
  "bytecode": "0x608034608657601f61524438819003918201601f19168301916001600160401b03831184841017608b578084926040948552833981010312608657604b602060458360a1565b920160a1565b600080546001600160a01b039384166001600160a01b0319918216179091556001805492909316911617905560405161518f90816100b58239f35b600080fd5b634e487b7160e01b600052604160045260246000fd5b51906001600160a01b038216820360865756fe608080604052600436101561001357600080fd5b60003560e01c908162435da5146133f9575080631a95e672146132fa5780631c0b2030146132925780631dce6e58146130b457806325606bc314612ef15780632732183714612ea9578063349a7a7214612e6e5780634b87568a14612e065780635673fdf614612dbe57806374d5e10014612d745780637aad01bd14612cd35780637ade51dd146125675780637d08414f1461252b57806392b385c91461230b5780639413fcfd146122e25780639d9315c2146122a7578063a1dc510914612099578063bbf2698d14611eb0578063bc4a6f6c14611b85578063c14b3f1314611482578063c8673f4b14610f9f578063d0ff723d14610f11578063d44faa6314610ddb578063d9d284dc14610903578063e06749ba14610614578063f1022862146105b2578063fd42aefd1461032f5763ff96d4a91461015257600080fd5b3461032a5760a036600319011261032a576004356001600160401b03811161032a57610182903690600401613520565b6024356001600160401b03811161032a576101a1903690600401613520565b906044356001600160401b03811161032a576101c1903690600401613520565b916101ca6138e8565b91608435936001600160401b03851161032a576101ed604495369060040161390f565b91602060018060a01b0360005416604051978880926395a8c58d60e01b8252336004830152600060248301525afa92831561031e576102cf60206102de936102506102ec9760008051602061513a8339815191529b6000916102f1575b5061406b565b6002604051838184516102668183858901613427565b8101600a815203019020019361029760405195610282876134e4565b60008752848701938b855260408801526136ee565b966060860197885260ff8b16608087015260a086015260c08501526102bb846146b8565b518160405193828580945193849201613427565b8101600c8152030190206140c1565b519160405193849384614721565b0390a1005b6103119150843d8611610317575b61030981836134ff565b81019061398d565b3861024a565b503d6102ff565b6040513d6000823e3d90fd5b600080fd5b3461032a57602036600319011261032a576004356001600160401b03811161032a5761036261057a913690600401613520565b61036a613f4c565b506105ae604051916103a461039d8251946020818186019761038d81838b613427565b8101600b815203019020546136b4565b1515613fb0565b6105a060405160208184516103ba81838a613427565b8101600b81520301902093610498600b604051966103d7886134c8565b6103e0816136ee565b88526103ee600182016136ee565b60208901526103ff600282016136ee565b6040890152610410600382016139a5565b6060890152610421600482016136ee565b6080890152610432600582016139a5565b60a089015261045f60ff600683015481811661044d8161341d565b60c08c015260081c1660e08a01613ffc565b60078101546101008901526008810154610120890152600981015461014089015261048c600a82016136ee565b610160890152016136ee565b61018086015260405183516104ae818385613427565b8101906007825260208160018060a01b03930301902054169261058d6104ef60405160208185516104e081838a613427565b810160088152030190206136ee565b946105656105566020604051865161050881838b613427565b81019060048252828160018060a01b03930301902054169661054460405183818a51610535818388613427565b810160058152030190206136ee565b96604051938492839251928391613427565b810160068152030190206136ee565b95604051998a9960c08b5260c08b01906135ba565b9160208a015288820360408a015261344a565b916060870152858203608087015261344a565b9083820360a085015261344a565b0390f35b3461032a57602036600319011261032a576004356001600160401b03811161032a5761060061055660206105ed6105ae943690600401613520565b8160405193828580945193849201613427565b60405191829160208352602083019061344a565b3461032a57600036600319011261032a576000546040516395a8c58d60e01b81523360048201526002602482015290602090829060449082906001600160a01b03165afa801561031e57610670916000916108e4575b50614008565b600080600254905b8181106108a6575061068982613a6a565b9061069383613a6a565b61069c84613a6a565b6106a5856138f8565b916106b360405193846134ff565b8583526106d46106c2876138f8565b602085019790601f1901368937613f1a565b93600090815b8181106107635750505060209161071061071e926107036040519860a08a5260a08a019061346f565b90888203868a015261346f565b90868203604088015261346f565b918483036060860152519182815201939060005b81811061074d5784806105ae88878382036080850152613576565b8251865260209586019590920191600101610732565b60ff600661077083613834565b50015460081c16600381101561087d5761078d575b6001016106da565b916107a061079a84613834565b506136ee565b6107aa828a613ab4565b526107b58189613ab4565b506107cb60026107c485613834565b50016136ee565b6107d58286613ab4565b526107e08185613ab4565b506107ef600b6107c485613834565b6107f98287613ab4565b526108048186613ab4565b50600961081084613834565b500154600861081e85613834565b500154101561089357600961083284613834565b5001545b6108408288613ab4565b5260ff600661084e85613834565b50015460081c16600381101561087d57816108759161086f6001948b613ab4565b526139fd565b929050610785565b634e487b7160e01b600052602160045260246000fd5b600861089e84613834565b500154610836565b60ff60066108b383613834565b50015460081c16600381101561087d576108d0575b600101610678565b916108dc6001916139fd565b9290506108c8565b6108fd915060203d6020116103175761030981836134ff565b8261066a565b3461032a5761014036600319011261032a576004356001600160401b03811161032a57610934903690600401613520565b6024356001600160401b03811161032a57610953903690600401613520565b6044356001600160401b03811161032a57610972903690600401613520565b916064356001600160401b03811161032a5761099290369060040161390f565b916084356001600160401b03811161032a576109b2903690600401613520565b9060a4356001600160401b03811161032a576109d290369060040161390f565b9060c4359360018060a01b03851680950361032a5760e4356001600160401b03811161032a57610a06903690600401613520565b90610104356001600160401b03811161032a57610a27903690600401613520565b936101243597600289101561032a57600080546040516395a8c58d60e01b81523360048201526024810192909252602090829060449082906001600160a01b03165afa801561031e57610a8191600091610dbc575061406b565b60405194610a8e866134c8565b8386526020860152896040860152606085015285608085015260a0840152610ab58761341d565b8660c0840152600060e08401524261010084015260006101208401526000610140840152602092604051610ae985826134ff565b6000815261016082015282610180820152604051610b2482845192878181880195610b15818389613427565b8101600a81520301902061474d565b610b4f82610b40878d8160405193828580945193849201613427565b8101600b81520301902061474d565b600254600160401b811015610d9057806001610b6e9201600255613834565b939093610da657610b838693610bc79561474d565b60405183818351610b95818388613427565b81016007815203019020896bffffffffffffffffffffffff60a01b825416179055604051938492839251928391613427565b8101600881520301902083516001600160401b038111610d9057610beb82546136b4565b601f8111610d55575b5083601f8211600114610cbc577f634ef467423c7b2abbaf26097bdddac4a495d36be69ca3d1555484b46e7899c7999794610c6f999794610c8a94610c5885610c9d9a96610c7c96600091610cb1575b508160011b916000199060031b1c19161790565b90555b6040519a8b9a60c08c5260c08c019061344a565b918a8303908b015261344a565b90878203604089015261344a565b916060860152848203608086015261344a565b90610ca78161341d565b60a08301520390a1005b905087015138610c44565b601f1982169083600052856000209160005b818110610d3e575094610c8a94600185610c7c957f634ef467423c7b2abbaf26097bdddac4a495d36be69ca3d1555484b46e7899c79f9d9a95610c6f9f9d9a98610c9d9d9910610d25575b5050811b019055610c5b565b88015160001960f88460031b161c191690558f80610d19565b91928760018192868c015181550194019201610cce565b610d80908360005285600020601f840160051c810191878510610d86575b601f0160051c0190614054565b89610bf4565b9091508190610d73565b634e487b7160e01b600052604160045260246000fd5b634e487b7160e01b600052600060045260246000fd5b610dd5915060203d6020116103175761030981836134ff565b8c61024a565b3461032a57602036600319011261032a576004356001600160401b03811161032a576000610e10610e3e923690600401613520565b60018060a01b0360015416604051808095819463e49d032760e01b835260206004840152602483019061344a565b03915afa90811561031e57600091610e67575b604051602080825281906105ae90820185613576565b3d8083833e610e7681836134ff565b810190602081830312610f05578051906001600160401b038211610f0d57019080601f83011215610f0557815192610ead846138f8565b92610ebb60405194856134ff565b84845260208085019560051b820101928311610f0957602001935b828510610eeb575050506105ae915090610e51565b845160ff81168103610f0557815260209485019401610ed6565b8280fd5b5080fd5b8380fd5b3461032a57602036600319011261032a576004356001600160401b03811161032a5760206105ed610f46923690600401613520565b8101600c81520301902060ff8154166105ae610f64600184016136ee565b92610f71600282016136ee565b90610f7e600382016136ee565b610f92600560ff60048501541693016136ee565b9260405196879687613888565b3461032a57604036600319011261032a576004356001600160401b03811161032a57610fcf903690600401613520565b6024356001600160401b03811161032a57610fee90369060040161390f565b906040519080519160208181840194611008818388613427565b8101600c815203019020600160ff1982541617905560066040516020818451611032818389613427565b8101600c81520301902001908351600160401b8111610d90578254818455808210611404575b50602085019081936000526020600020916000905b8282106112ec575050505060005b6003548110156112ea5760016110aa6110b861109684613869565b506040519283916020830195869101613eac565b03601f1981018352826134ff565b51902060405160208101906110e760208287516110d681878d613427565b81010301601f1981018352826134ff565b519020146110f75760010161107b565b925050600661110583613869565b5001925190600160401b8211610d9057835482855580831061126c575b50926000526020600020926000905b828210611153575050506111459150613869565b50805460ff19166001179055005b80518051906001600160401b038211610d905761117087546136b4565b601f811161123a575b50602090601f83116001146111cd57926111b3836001959460209487966000926111c2575b50508160011b916000199060031b1c19161790565b88555b01950191019093611131565b015190508b8061119e565b90601f1983169188600052816000209260005b8181106112225750936020936001969387969383889510611209575b505050811b0188556111b6565b015160001960f88460031b161c191690558a80806111fc565b929360206001819287860151815501950193016111e0565b61126690886000526020600020601f850160051c81019160208610610d8657601f0160051c0190614054565b87611179565b8460005282602060002091820191015b8181106112895750611122565b80611296600192546136b4565b806112a3575b500161127c565b601f811183146112b95750600081555b8761129c565b6112d7908260005283601f6020600020920160051c82019101614054565b80600052600060208120818355556112b3565b005b80518051906001600160401b038211610d905761130986546136b4565b601f81116113d2575b50602090601f8311600114611365579261134b8360019594602094879660009261135a5750508160011b916000199060031b1c19161790565b87555b0194019101909261106d565b015190508e8061119e565b90601f1983169187600052816000209260005b8181106113ba57509360209360019693879693838895106113a1575b505050811b01875561134e565b015160001960f88460031b161c191690558d8080611394565b92936020600181928786015181550195019301611378565b6113fe90876000526020600020601f850160051c81019160208610610d8657601f0160051c0190614054565b8a611312565b8360005281602060002091820191015b8181106114215750611058565b8061142e600192546136b4565b8061143b575b5001611414565b601f811183146114515750600081555b88611434565b61146f908260005283601f6020600020920160051c82019101614054565b806000526000602081208183555561144b565b3461032a5760c036600319011261032a576004356001600160401b03811161032a576114b2903690600401613520565b6024356001600160401b03811161032a576114d1903690600401613520565b906044356001600160401b03811161032a576114f1903690600401613520565b906114fa6138e8565b906084356001600160401b03811161032a5761151a903690600401613520565b60a4356001600160401b03811161032a5761153990369060040161390f565b906044602060018060a01b0360005416604051928380926395a8c58d60e01b8252336004830152600060248301525afa801561031e5761158091600091611b66575061406b565b81519060ff8516918203611b0f57604051906003885192602081818c01956115a9818389613427565b8101600c815203019020016040516115c9816110aa602082018095613eac565b51902060405160208101906115eb602082816110d68c87815193849201613427565b51902003611a9d57506116366020600692600460405183818d51611610818388613427565b8101600c815203019020018560ff19825416179055604051809381928c51928391613427565b8101600c81520301902001908251600160401b8111610d90578254818455808210611a1f575b50602084019081936000526020600020916000905b828210611907575050505060009560208101965b6003548110156118e75760026110aa6116a061109684613869565b5190206110d66040516116c06020828d8282019586918a51928391613427565b519020146116d057600101611685565b905060069293949596506116fa9160046116e983613869565b50019060ff19825416179055613869565b5001915190600160401b8211610d90578254828455808310611869575b50916000526020600020916000905b82821061175157505050506102ec60008051602061513a833981519152935b60405193849384614721565b80518051906001600160401b038211610d905761176e86546136b4565b601f8111611837575b50602090601f83116001146117ca57926117b0836001959460209487966000926117bf5750508160011b916000199060031b1c19161790565b87555b01940191019092611726565b015190508d8061119e565b90601f1983169187600052816000209260005b81811061181f5750936020936001969387969383889510611806575b505050811b0187556117b3565b015160001960f88460031b161c191690558c80806117f9565b929360206001819287860151815501950193016117dd565b61186390876000526020600020601f850160051c81019160208610610d8657601f0160051c0190614054565b89611777565b8360005282602060002091820191015b8181106118865750611717565b80611893600192546136b4565b806118a0575b5001611879565b601f811183146118b65750600081555b89611899565b6118d4908260005283601f6020600020920160051c82019101614054565b80600052600060208120818355556118b0565b50505050509091506102ec60008051602061513a83398151915293611745565b80518051906001600160401b038211610d905761192486546136b4565b601f81116119ed575b50602090601f83116001146119805792611966836001959460209487966000926119755750508160011b916000199060031b1c19161790565b87555b01940191019092611671565b01519050388061119e565b90601f1983169187600052816000209260005b8181106119d557509360209360019693879693838895106119bc575b505050811b018755611969565b015160001960f88460031b161c191690553880806119af565b92936020600181928786015181550195019301611993565b611a1990876000526020600020601f850160051c81019160208610610d8657601f0160051c0190614054565b8d61192d565b8360005281602060002091820191015b818110611a3c575061165c565b80611a49600192546136b4565b80611a56575b5001611a2f565b601f81118314611a6c5750600081555b8b611a4f565b611a8a908260005283601f6020600020920160051c82019101614054565b8060005260006020812081835555611a66565b6102ec9495966102cf6020611b0a959460008051602061513a8339815191529b97611b0595604051978896611ad1886134e4565b600088528b8689015260408801528c6060880152608087015260a086015260c0850152604051809381928a51928391613427565b6146b8565b611745565b60405162461bcd60e51b815260206004820152602960248201527f5175616e7469747920646f6573206e6f74206d6174636820746865206e756d626044820152686572206f662049447360b81b6064820152608490fd5b611b7f915060203d6020116103175761030981836134ff565b8861024a565b3461032a57602036600319011261032a576004356001600160401b03811161032a57611bb5903690600401613520565b600080546040516395a8c58d60e01b81523360048201526024810192909252602090829060449082906001600160a01b03165afa801561031e57611c0091600091611e91575061406b565b60405181519060208181850193611c18818387613427565b8101600a8152030190209160405192611c30846134c8565b611c39816136ee565b8452611c47600182016136ee565b6020850152611c58600282016136ee565b9060408501918252611c6c600382016139a5565b6060860152611c7d600482016136ee565b6080860152611c8e600582016139a5565b60a086015260068101549460ff8616611ca68161341d565b60c0820152611cbf60ff60e083019760081c1687613ffc565b6007820154610100820152610180611d03600b60088501549461012085019586526009810154610140860152611cf7600a82016136ee565b610160860152016136ee565b910152845194600386101561087d57600095611e2f5760019142905252835b600254811015611dfe57611d3581613834565b50604051611d4b816110aa602082018095613eac565b5190206040516020810190611d6960208288516110d681878d613427565b51902014611d7957600101611d22565b7f854681db4b5190ceaacfe5894893f2e8d49873d9b8ed6c72b5618047cb3924e59350611de492916006611dbf83611db3611df895613834565b50600842910155613834565b5001805461ff0019166101001790555b5160405193849360608552606085019061344a565b90426020850152838203604085015261344a565b0390a180f35b507f854681db4b5190ceaacfe5894893f2e8d49873d9b8ed6c72b5618047cb3924e5925090611df8611de492611dcf565b60405162461bcd60e51b815260206004820152603460248201527f4f62617420547261646973696f6e616c20737461747573206d75737420626520604482015273696e206c6f63616c2070726f64756374696f6e2160601b6064820152608490fd5b611eaa915060203d6020116103175761030981836134ff565b8361024a565b3461032a57602036600319011261032a576004356001600160401b03811161032a57611ee0903690600401613520565b606060405190611f1461039d600285519460208181890197611f0381838b613427565b8101600c81520301902001546136b4565b60ff60046040516020818751611f2b81838a613427565b8101600c8152030190200154169160ff6040516020818751611f4e818388613427565b8101600c815203019020541693611f648561341d565b6000546040516395a8c58d60e01b8152336004820152600160248201526001600160a01b0390911690602081604481855afa90811561031e5760009161207a575b5015611fdf5750505050611fb7613a22565b915b611fd5604051938493845260606020850152606084019061346f565b9060408301520390f35b6020604491604097959751928380926395a8c58d60e01b8252336004830152600060248301525afa90811561031e5760009161205b575b50612023575b5050611fb9565b612053929450602060069261204392604051938492839251928391613427565b8101600c815203019020016139a5565b91838061201c565b612074915060203d6020116103175761030981836134ff565b86612016565b612093915060203d6020116103175761030981836134ff565b87611fa5565b3461032a57602036600319011261032a576004356001600160401b03811161032a576120c9903690600401613520565b600080546040516395a8c58d60e01b81523360048201526024810192909252602090829060449082906001600160a01b03165afa801561031e5761211491600091611e91575061406b565b60025460009060208301825b82811061222f575061213a61213484613a6a565b93613a6a565b93600091825b84811061217157612163866105ae8960405193849360408552604085019061346f565b90838203602085015261346f565b600b6110aa61218261109684613834565b51902060405160208101906121a060208288516110d681878b613427565b519020146121b1575b600101612140565b60ff60066121be83613834565b50015460081c16600381101561087d576002036121a957926122276001916121e861079a87613834565b6121f2828a613ab4565b526121fd8189613ab4565b5061220c60026107c488613834565b612216828b613ab4565b52612221818a613ab4565b506139fd565b9390506121a9565b600b6110aa61224061109684613834565b519020604051602081019061225e6020828a516110d681878b613427565b5190201461226f575b600101612120565b60ff600661227c83613834565b50015460081c16600381101561087d57600203612267579261229f6001916139fd565b939050612267565b3461032a57602036600319011261032a576004356001600160401b03811161032a5761060061053560206105ed6105ae943690600401613520565b3461032a57600036600319011261032a576001546040516001600160a01b039091168152602090f35b3461032a57602036600319011261032a576004356001600160401b03811161032a5761233b903690600401613520565b600080546040516395a8c58d60e01b81523360048201526024810192909252602090829060449082906001600160a01b03165afa801561031e5761238691600091611e91575061406b565b60035460208201916000805b8381106124d557506123a381613a6a565b926123ad82613a6a565b946123ba61213484613f1a565b93600091825b848110612415576123eb886105ae896124078a6123f98f60405197889760808952608089019061346f565b90878203602089015261346f565b908582036040870152613576565b90838203606085015261346f565b60056110aa61242661109684613869565b519020604051602081019061244460208288516110d681878b613427565b51902014612455575b6001016123c0565b926124cd60019161246a60026107c488613869565b612474828c613ab4565b5261247f818b613ab4565b5061248e60036107c488613869565b612498828d613ab4565b526124a3818c613ab4565b5060ff60046124b188613869565b500154166124bf828a613ab4565b5261220c836107c488613869565b93905061244d565b60056110aa6124e661109684613869565b5190206040516020810190612506602082846110d68c8b51928391613427565b51902014612517575b600101612392565b906125236001916139fd565b91905061250f565b3461032a57602036600319011261032a5760043560035481101561032a5761255290613869565b5060ff8154166105ae610f64600184016136ee565b3461032a5760a036600319011261032a576004356001600160401b03811161032a57612597903690600401613520565b602435906001600160a01b038216820361032a576044356001600160401b03811161032a576125ca903690600401613520565b906064356001600160401b03811161032a576125ea903690600401613520565b916084356001600160401b03811161032a5761260a903690600401613520565b6000546040516395a8c58d60e01b81523360048201526002602482015291939190602090829060449082906001600160a01b03165afa801561031e5761265791600091612cb45750614008565b604051938151946020818185019761267081838b613427565b8101600a8152030190209260405196612688886134c8565b612691856136ee565b885261269f600186016136ee565b60208901526126b0600286016136ee565b94604089019586526126c4600382016139a5565b60608a01526126d5600482016136ee565b60808a01526126e6600582016139a5565b60a08a015260068101549060ff82166126fe8161341d565b60c08b015261271760ff60e08c019360081c1683613ffc565b60078101546101008b015260088101546101208b015260098101549961014081019a8b5261018061275e600b61274f600a86016136ee565b946101608501958652016136ee565b91015281519960038b101561087d57600160009b03612c595788926002914290525252604051602081865161279481838d613427565b810160048152030190209060018060a01b03166bffffffffffffffffffffffff60a01b82541617905560405160208185516127d081838c613427565b81016005815203019020908051906001600160401b038211612c45576127f683546136b4565b601f8111612c15575b50602090601f8311600114612bb25761282f92918a9183612ba75750508160011b916000199060031b1c19161790565b90555b604051602081845161284581838b613427565b81016006815203019020908051906001600160401b038211612b935761286b83546136b4565b601f8111612b63575b50602090601f8311600114612b00576128a49291899183612af55750508160011b916000199060031b1c19161790565b90555b845b600254811015612ac3576128bc81613834565b506040516128d2816110aa602082018095613eac565b51902060405160208101906128f2602082846110d68c8a51928391613427565b51902014612902576001016128a9565b600a9293945061293c915061291681613834565b50600942910155600661292882613834565b5001805461ff001916610200179055613834565b500182516001600160401b038111612aaf5761295882546136b4565b601f8111612a7f575b506020601f82116001146129f557927f3bcf51fd1e4f6c43be831b7abb904e4434bf564e87fa0ea1f522d929d30b2da894926129b9836129de946129d0978a916129ea57508160011b916000199060031b1c19161790565b90555160405193849360608552606085019061344a565b90838203602085015261344a565b4260408301520390a180f35b90508601518a610c44565b82865280862090601f198316875b818110612a675750836129d096937f3bcf51fd1e4f6c43be831b7abb904e4434bf564e87fa0ea1f522d929d30b2da89896936129de9660019410612a4e575b5050811b019055611dcf565b87015160001960f88460031b161c191690558980612a42565b9192602060018192868b015181550194019201612a03565b612aa99083875260208720601f840160051c81019160208510610d8657601f0160051c0190614054565b85612961565b634e487b7160e01b85526041600452602485fd5b50507f3bcf51fd1e4f6c43be831b7abb904e4434bf564e87fa0ea1f522d929d30b2da89250906129de6129d092611dcf565b01519050898061119e565b8389528189209190601f1984168a5b818110612b4b5750908460019594939210612b32575b505050811b0190556128a7565b015160001960f88460031b161c19169055888080612b25565b92936020600181928786015181550195019301612b0f565b612b8d90848a5260208a20601f850160051c81019160208610610d8657601f0160051c0190614054565b88612874565b634e487b7160e01b88526041600452602488fd5b015190508a8061119e565b838a52818a209190601f1984168b5b818110612bfd5750908460019594939210612be4575b505050811b019055612832565b015160001960f88460031b161c19169055898080612bd7565b92936020600181928786015181550195019301612bc1565b612c3f90848b5260208b20601f850160051c81019160208610610d8657601f0160051c0190614054565b896127ff565b634e487b7160e01b89526041600452602489fd5b60405162461bcd60e51b815260206004820152602d60248201527f4f62617420547261646973696f6e616c20737461747573206d7573742062652060448201526c5265717565737465644e49452160981b6064820152608490fd5b612ccd915060203d6020116103175761030981836134ff565b8761066a565b3461032a57602036600319011261032a5760043560025481101561032a57612cfa90613834565b50612d04816136ee565b6105ae612d13600184016136ee565b91612d20600285016136ee565b93612d2d600482016136ee565b9160068201546007830154600884015491600985015493612d5c600b612d55600a89016136ee565b97016136ee565b966040519a8b9a60ff808660081c169516938c613792565b3461032a57602036600319011261032a576004356001600160a01b0381169081900361032a57600052600960205260ff60406000205416604051600482101561087d576020918152f35b3461032a57602036600319011261032a576004356001600160401b03811161032a5760206105ed612df3923690600401613520565b8101600b815203019020612d04816136ee565b3461032a57602036600319011261032a576004356001600160401b03811161032a57612e386020913690600401613520565b81612e4c6040519283815193849201613427565b600790820190815281900382019020546040516001600160a01b039091168152f35b3461032a57602036600319011261032a576004356001600160401b03811161032a576106006104e060206105ed6105ae943690600401613520565b3461032a57602036600319011261032a576004356001600160401b03811161032a5760206105ed612ede923690600401613520565b8101600a815203019020612d04816136ee565b3461032a57602036600319011261032a576004356001600160401b03811161032a57612f24613072913690600401613520565b612f2c613f4c565b506105ae60405191612f5f61039d82519460208181860197612f4f81838b613427565b8101600a815203019020546136b4565b6130a66040516020818451612f7581838a613427565b8101600a81520301902093612f92600b604051966103d7886134c8565b6101808601526040518351612fa8818385613427565b8101906007825260208160018060a01b039303019020541692613093612fda60405160208185516104e081838a613427565b613085613005600b6040516020818851612ff581838d613427565b8101600a815203019020016136ee565b9661305d6105566020604051885161301e81838d613427565b81019060048252828160018060a01b03930301902054169861304b60405183818c51610535818388613427565b98604051938492839251928391613427565b976040519b8c9b60e08d5260e08d01906135ba565b9160208c01528a820360408c015261344a565b9088820360608a015261344a565b91608087015285820360a087015261344a565b9083820360c085015261344a565b3461032a57602036600319011261032a576004356001600160401b03811161032a576130e4903690600401613520565b600254600060208301815b83811061323e575061310082613a6a565b9261310a83613a6a565b9161311d61311785613f1a565b94613f1a565b95600091825b84811061315c576123eb886105ae8b61314e8b6123f98c60405197889760808952608089019061346f565b908382036060850152613576565b600b6110aa61316d61109684613834565b519020604051602081019061318b60208288516110d681878b613427565b5190201461319c575b600101613123565b926131a961079a85613834565b6131b3828a613ab4565b526131be8189613ab4565b506131cd60026107c486613834565b6131d78288613ab4565b526131e28187613ab4565b5060ff60066131f086613834565b50015460081c16600381101561087d5781613236916132116001948b613ab4565b5260ff600661321f88613834565b5001541661322c8161341d565b61086f828d613ab4565b939050613194565b600b6110aa61324f61109684613834565b519020604051602081019061326d6020828a516110d681878b613427565b5190201461327e575b6001016130ef565b9161328a6001916139fd565b929050613276565b3461032a57602036600319011261032a576004356001600160401b03811161032a576132c46020913690600401613520565b816132d86040519283815193849201613427565b600490820190815281900382019020546040516001600160a01b039091168152f35b3461032a57600036600319011261032a57613313613ac8565b6040518091602082016020835281518091526040830190602060408260051b8601019301916000905b82821061334b57505050500390f35b919360019193955060206133e98192603f198a820301865288519081516133718161341d565b815260c06133d86133b96133a76133958887015160e08a88015260e087019061344a565b6040870151868203604088015261344a565b6060860151858203606087015261344a565b60ff608086015116608085015260a085015184820360a086015261344a565b9201519060c081840391015261346f565b960192019201859493919261333c565b3461032a57600036600319011261032a576000546001600160a01b03168152602090f35b6002111561087d57565b60005b83811061343a5750506000910152565b818101518382015260200161342a565b9060209161346381518092818552858086019101613427565b601f01601f1916010190565b9080602083519182815201916020808360051b8301019401926000915b83831061349b57505050505090565b90919293946020806134b9600193601f19868203018752895161344a565b9701930193019193929061348c565b6101a081019081106001600160401b03821117610d9057604052565b60e081019081106001600160401b03821117610d9057604052565b90601f801991011681019081106001600160401b03821117610d9057604052565b81601f8201121561032a578035906001600160401b038211610d905760405192613554601f8401601f1916602001856134ff565b8284526020838301011161032a57816000926020809301838601378301015290565b906020808351928381520192019060005b8181106135945750505090565b825160ff16845260209384019390920191600101613587565b90600382101561087d5752565b6136b19161018061369f61364261363061361e61360c6135fa6135e889516101a08a526101a08a019061344a565b60208a015189820360208b015261344a565b604089015188820360408a015261344a565b6060880151878203606089015261346f565b6080870151868203608088015261344a565b60a086015185820360a087015261346f565b60c08501516136508161341d565b60c085015261366760e086015160e08601906135ad565b61010085015161010085015261012085015161012085015261014085015161014085015261016085015184820361016086015261344a565b9201519061018081840391015261344a565b90565b90600182811c921680156136e4575b60208310146136ce57565b634e487b7160e01b600052602260045260246000fd5b91607f16916136c3565b9060405191826000825492613702846136b4565b80845293600181169081156137705750600114613729575b50613727925003836134ff565b565b90506000929192526020600020906000915b818310613754575050906020613727928201013861371a565b602091935080600191548385890101520191019091849261373b565b90506020925061372794915060ff191682840152151560051b8201013861371a565b99959061382598946137e08c6136b19e9c989a966137d2613807976137c46137ee97610160865261016086019061344a565b90848203602086015261344a565b91604081840391015261344a565b8c810360608e01529061344a565b966137f88161341d565b60808b015260a08a01906135ad565b60c088015260e087015261010086015284820361012086015261344a565b9161014081840391015261344a565b600254811015613853576002600052600c602060002091020190600090565b634e487b7160e01b600052603260045260246000fd5b6003548110156138535760036000526007602060002091020190600090565b92936138c66136b197956138b860ff956138d4956138a58161341d565b885260c0602089015260c088019061344a565b90868203604088015261344a565b90848203606086015261344a565b9316608082015260a081840391015261344a565b6064359060ff8216820361032a57565b6001600160401b038111610d905760051b60200190565b9080601f8301121561032a578135613926816138f8565b9261393460405194856134ff565b81845260208085019260051b8201019183831161032a5760208201905b83821061396057505050505090565b81356001600160401b03811161032a5760209161398287848094880101613520565b815201910190613951565b9081602091031261032a5751801515810361032a5790565b9081546139b1816138f8565b926139bf60405194856134ff565b818452602084019060005260206000206000915b8383106139e05750505050565b6001602081926139ef856136ee565b8152019201920191906139d3565b6000198114613a0c5760010190565b634e487b7160e01b600052601160045260246000fd5b60405190613a316020836134ff565b600080835282815b828110613a4557505050565b806060602080938501015201613a39565b634e487b7160e01b81526041600452602490fd5b90613a74826138f8565b613a8160405191826134ff565b8281528092613a92601f19916138f8565b019060005b828110613aa357505050565b806060602080938501015201613a97565b80518210156138535760209160051b010190565b6000546040516395a8c58d60e01b8152336004820152600160248201526060916001600160a01b031690602081604481855afa90811561031e57600091613e8d575b5015613ce2575050600080600354905b818110613ca95750613b2b826138f8565b91613b3960405193846134ff565b808352613b48601f19916138f8565b0160005b818110613c625750506000805b828110613b665750505090565b60ff613b7182613869565b505416613b7d8161341d565b15613b8b575b600101613b59565b90613c5a60019160ff613b9d85613869565b505416613ba985613869565b50613c3b6005613bb888613869565b5088613c2b6003613bc883613869565b50613c206002613be860ff6004613bde89613869565b5001541696613869565b5096613c158f613bf6613a22565b9c6040519e8f613c05816134e4565b613c0e8261341d565b52016136ee565b60208d0152016136ee565b60408a0152016136ee565b60608701526080860152016136ee565b60a083015260c0820152613c4f8288613ab4565b526122218187613ab4565b919050613b83565b602090604051613c71816134e4565b600081526060838201526060604082015260608082015260006080820152606060a0820152606060c082015282828701015201613b4c565b60ff613cb482613869565b505416613cc08161341d565b15613cce575b600101613b1a565b91613cda6001916139fd565b929050613cc6565b6020604491604051928380926395a8c58d60e01b8252336004830152600060248301525afa90811561031e57600091613e6e575b5015613e075750600354613d29816138f8565b90613d3760405192836134ff565b8082526020820160036000527fc2575a0e9e593c00f959f8c92f12db2869c3395a3b0502d05e2516446f71f85b6000915b838310613d76575050505090565b60076020600192604051613d89816134e4565b60ff865416613d978161341d565b8152613da48587016136ee565b83820152613db4600287016136ee565b6040820152613dc5600387016136ee565b606082015260ff6004870154166080820152613de3600587016136ee565b60a0820152613df4600687016139a5565b60c0820152815201920192019190613d68565b604051906000613e186020846134ff565b8252600090815b828110613e2c5750505090565b602090604051613e3b816134e4565b6000815283838201528360408201528380820152600060808201528360a08201528360c082015282828701015201613e1f565b613e87915060203d6020116103175761030981836134ff565b38613d16565b613ea6915060203d6020116103175761030981836134ff565b38613b0a565b60009291815491613ebc836136b4565b9260018116908115613f075750600114613ed557505050565b909192935060005260206000206000905b838210613ef35750500190565b600181602092548486015201910190613ee6565b60ff191683525050811515909102019150565b90613f24826138f8565b613f3160405191826134ff565b8281528092613f42601f19916138f8565b0190602036910137565b60405190613f59826134c8565b60606101808382815282602082015282604082015282808201528260808201528260a0820152600060c0820152600060e0820152600061010082015260006101208201526000610140820152826101608201520152565b15613fb757565b60405162461bcd60e51b815260206004820152601b60248201527f4e6f206461746120666f756e64207769746820746869732049442e00000000006044820152606490fd5b600382101561087d5752565b1561400f57565b60405162461bcd60e51b815260206004820152601e60248201527f416363657373207265737472696374656420746f2042504f4d20726f6c6500006044820152606490fd5b81811061405f575050565b60008155600101614054565b1561407257565b60405162461bcd60e51b815260206004820152602160248201527f416363657373207265737472696374656420746f20466163746f727920726f6c6044820152606560f81b6064820152608490fd5b81516140cc8161341d565b6140d58161341d565b60ff801983541691161781556001810160208301518051906001600160401b038211610d905761410583546136b4565b601f8111614686575b50602090601f831160011461461f5761413f9291600091836119755750508160011b916000199060031b1c19161790565b90555b6002810160408301518051906001600160401b038211610d905761416683546136b4565b601f81116145ed575b50602090601f8311600114614586576141a09291600091836119755750508160011b916000199060031b1c19161790565b90555b6003810160608301518051906001600160401b038211610d90576141c783546136b4565b601f8111614554575b50602090601f83116001146144ed576142019291600091836119755750508160011b916000199060031b1c19161790565b90555b60ff60808301511660ff60048301911660ff198254161790556005810160a08301518051906001600160401b038211610d905761424183546136b4565b601f81116144bb575b50602090601f831160011461444e578260c0959360069593614282936000926119755750508160011b916000199060031b1c19161790565b90555b01910151805190600160401b8211610d905782548284558083106143d0575b50602001916000526020600020916000905b8282106142c35750505050565b80518051906001600160401b038211610d90576142e086546136b4565b601f811161439e575b50602090601f83116001146143315792614322836001959460209487966000926119755750508160011b916000199060031b1c19161790565b87555b019401910190926142b6565b90601f1983169187600052816000209260005b818110614386575093602093600196938796938388951061436d575b505050811b018755614325565b015160001960f88460031b161c19169055388080614360565b92936020600181928786015181550195019301614344565b6143ca90876000526020600020601f850160051c81019160208610610d8657601f0160051c0190614054565b386142e9565b8360005282602060002091820191015b8181106143ed57506142a4565b806143fa600192546136b4565b80614407575b50016143e0565b601f8111831461441d5750600081555b38614400565b61443b908260005283601f6020600020920160051c82019101614054565b8060005260006020812081835555614417565b90601f1983169184600052816000209260005b8181106144a3575092600192859260c09896600698961061448a575b505050811b019055614285565b015160001960f88460031b161c1916905538808061447d565b92936020600181928786015181550195019301614461565b6144e790846000526020600020601f850160051c81019160208610610d8657601f0160051c0190614054565b3861424a565b90601f1983169184600052816000209260005b81811061453c5750908460019594939210614523575b505050811b019055614204565b015160001960f88460031b161c19169055388080614516565b92936020600181928786015181550195019301614500565b61458090846000526020600020601f850160051c81019160208610610d8657601f0160051c0190614054565b386141d0565b90601f1983169184600052816000209260005b8181106145d557509084600195949392106145bc575b505050811b0190556141a3565b015160001960f88460031b161c191690553880806145af565b92936020600181928786015181550195019301614599565b61461990846000526020600020601f850160051c81019160208610610d8657601f0160051c0190614054565b3861416f565b90601f1983169184600052816000209260005b81811061466e5750908460019594939210614655575b505050811b019055614142565b015160001960f88460031b161c19169055388080614648565b92936020600181928786015181550195019301614632565b6146b290846000526020600020601f850160051c81019160208610610d8657601f0160051c0190614054565b3861410e565b600354600160401b811015610d905760018101600355600060035482101561470d57600390526007027fc2575a0e9e593c00f959f8c92f12db2869c3395a3b0502d05e2516446f71f85b0190613727916140c1565b634e487b7160e01b81526032600452602490fd5b60ff6147396136b1959360608452606084019061344a565b93166020820152604081840391015261344a565b909182519283516001600160401b038111610d905761476c84546136b4565b601f8111615107575b50602094601f82116001146150a2576147a99293949582916000926119755750508160011b916000199060031b1c19161790565b83555b6001830160208201518051906001600160401b038211610d90576147d083546136b4565b601f8111615070575b50602090601f83116001146150095761480a9291600091836119755750508160011b916000199060031b1c19161790565b90555b6002830160408201518051906001600160401b038211610d905761483183546136b4565b601f8111614fd7575b50602090601f8311600114614f705761486b9291600091836119755750508160011b916000199060031b1c19161790565b90555b600383016060820151805190600160401b8211610d90578254828455808310614ef2575b50602001916000526020600020916000905b828210614de557505050506004830160808201518051906001600160401b038211610d90576148d383546136b4565b601f8111614db3575b50602090601f8311600114614d4c5761490d9291600091836119755750508160011b916000199060031b1c19161790565b90555b6005830160a0820151805190600160401b8211610d90578254828455808310614cce575b50602001916000526020600020916000905b828210614bc15750505050600683019260c08201516149648161341d565b61496d8161341d565b60ff8019865416911617845560e082015193600385101561087d5760009461ff0082549160081b169061ff001916179055610100820151600782015561012082015160088201556101408201516009820155600a81016101608301518051906001600160401b038211614bad576149e483546136b4565b601f8111614b7d575b50602090601f8311600114614b1357826101809593600b9593614a25938b926119755750508160011b916000199060031b1c19161790565b90555b01910151928351906001600160401b038211613a5657614a4883546136b4565b601f8111614ae3575b50602090601f8311600114614a855790614a81939495836119755750508160011b916000199060031b1c19161790565b9055565b90601f198316848352818320925b818110614acb57509583600195969710614ab2575b505050811b019055565b015160001960f88460031b161c19169055388080614aa8565b9192602060018192868b015181550194019201614a93565b614b0d9084835260208320601f850160051c81019160208610610d8657601f0160051c0190614054565b38614a51565b8388528188209190601f198416895b818110614b6557509260019285926101809896600b989610614b4c575b505050811b019055614a28565b015160001960f88460031b161c19169055388080614b3f565b92936020600181928786015181550195019301614b22565b614ba79084895260208920601f850160051c81019160208610610d8657601f0160051c0190614054565b386149ed565b634e487b7160e01b87526041600452602487fd5b80518051906001600160401b038211610d9057614bde86546136b4565b601f8111614c9c575b50602090601f8311600114614c2f5792614c20836001959460209487966000926119755750508160011b916000199060031b1c19161790565b87555b01940191019092614946565b90601f1983169187600052816000209260005b818110614c845750936020936001969387969383889510614c6b575b505050811b018755614c23565b015160001960f88460031b161c19169055388080614c5e565b92936020600181928786015181550195019301614c42565b614cc890876000526020600020601f850160051c81019160208610610d8657601f0160051c0190614054565b38614be7565b8360005282602060002091820191015b818110614ceb5750614934565b80614cf8600192546136b4565b80614d05575b5001614cde565b601f81118314614d1b5750600081555b38614cfe565b614d39908260005283601f6020600020920160051c82019101614054565b8060005260006020812081835555614d15565b90601f1983169184600052816000209260005b818110614d9b5750908460019594939210614d82575b505050811b019055614910565b015160001960f88460031b161c19169055388080614d75565b92936020600181928786015181550195019301614d5f565b614ddf90846000526020600020601f850160051c81019160208610610d8657601f0160051c0190614054565b386148dc565b80518051906001600160401b038211610d9057614e0286546136b4565b601f8111614ec0575b50602090601f8311600114614e535792614e44836001959460209487966000926119755750508160011b916000199060031b1c19161790565b87555b019401910190926148a4565b90601f1983169187600052816000209260005b818110614ea85750936020936001969387969383889510614e8f575b505050811b018755614e47565b015160001960f88460031b161c19169055388080614e82565b92936020600181928786015181550195019301614e66565b614eec90876000526020600020601f850160051c81019160208610610d8657601f0160051c0190614054565b38614e0b565b8360005282602060002091820191015b818110614f0f5750614892565b80614f1c600192546136b4565b80614f29575b5001614f02565b601f81118314614f3f5750600081555b38614f22565b614f5d908260005283601f6020600020920160051c82019101614054565b8060005260006020812081835555614f39565b90601f1983169184600052816000209260005b818110614fbf5750908460019594939210614fa6575b505050811b01905561486e565b015160001960f88460031b161c19169055388080614f99565b92936020600181928786015181550195019301614f83565b61500390846000526020600020601f850160051c81019160208610610d8657601f0160051c0190614054565b3861483a565b90601f1983169184600052816000209260005b818110615058575090846001959493921061503f575b505050811b01905561480d565b015160001960f88460031b161c19169055388080615032565b9293602060018192878601518155019501930161501c565b61509c90846000526020600020601f850160051c81019160208610610d8657601f0160051c0190614054565b386147d9565b601f1982169585600052806000209160005b8881106150ef575083600195969798106150d6575b505050811b0183556147ac565b015160001960f88460031b161c191690553880806150c9565b919260206001819286850151815501940192016150b4565b61513390856000526020600020601f840160051c81019160208510610d8657601f0160051c0190614054565b3861477556fe5a970a8218c65de6a8aa64c073fc3786921cd891f15743b0606810ccad35b922a26469706673582212204dcf5eb1347e52d9745736cabc22c75af162e0a98a0bbbdbff6dcfe6aa03a7b664736f6c634300081b0033",
  "linkReferences": {},
  "deployedLinkReferences": {}
}