{
  "_format": "hh-sol-artifact-1",
  "contractName": "ObatTradisional",
  "sourceName": "contracts/ObatTradisional.sol",
  "abi": [
    {
      "inputs": [
        {
          "internalType": "address",
          "name": "_roleManagerAddr",
          "type": "address"
        }
      ],
      "stateMutability": "nonpayable",
      "type": "constructor"
    },
    {
      "anonymous": false,
      "inputs": [
        {
          "indexed": false,
          "internalType": "string",
          "name": "nieNumber",
          "type": "string"
        },
        {
          "indexed": false,
          "internalType": "string",
          "name": "namaProduk",
          "type": "string"
        }
      ],
      "name": "evt_nieApproved",
      "type": "event"
    },
    {
      "anonymous": false,
      "inputs": [
        {
          "indexed": false,
          "internalType": "string",
          "name": "obatId",
          "type": "string"
        },
        {
          "indexed": false,
          "internalType": "uint256",
          "name": "timestampRequested",
          "type": "uint256"
        },
        {
          "indexed": false,
          "internalType": "string",
          "name": "namaProduk",
          "type": "string"
        }
      ],
      "name": "evt_nieRequested",
      "type": "event"
    },
    {
      "anonymous": false,
      "inputs": [
        {
          "indexed": false,
          "internalType": "string",
          "name": "namaProduk",
          "type": "string"
        },
        {
          "indexed": false,
          "internalType": "string",
          "name": "factoryInstanceNames",
          "type": "string"
        },
        {
          "indexed": false,
          "internalType": "string",
          "name": "factoryUserNames",
          "type": "string"
        },
        {
          "indexed": false,
          "internalType": "address",
          "name": "factoryAddresses",
          "type": "address"
        },
        {
          "indexed": false,
          "internalType": "string",
          "name": "kemasan",
          "type": "string"
        },
        {
          "indexed": false,
          "internalType": "enum ObatTradisional.en_tipeProduk",
          "name": "en_tipeProduk",
          "type": "uint8"
        }
      ],
      "name": "evt_obatCreated",
      "type": "event"
    },
    {
      "inputs": [
        {
          "internalType": "uint256",
          "name": "",
          "type": "uint256"
        }
      ],
      "name": "allObatData",
      "outputs": [
        {
          "internalType": "string",
          "name": "obatId",
          "type": "string"
        },
        {
          "internalType": "string",
          "name": "merk",
          "type": "string"
        },
        {
          "internalType": "string",
          "name": "namaProduk",
          "type": "string"
        },
        {
          "internalType": "string",
          "name": "kemasan",
          "type": "string"
        },
        {
          "internalType": "enum ObatTradisional.en_tipeProduk",
          "name": "tipeProduk",
          "type": "uint8"
        },
        {
          "internalType": "enum ObatTradisional.en_obatStatus",
          "name": "obatStatus",
          "type": "uint8"
        },
        {
          "internalType": "uint256",
          "name": "nieRequestDate",
          "type": "uint256"
        },
        {
          "internalType": "uint256",
          "name": "nieApprovalDate",
          "type": "uint256"
        },
        {
          "internalType": "string",
          "name": "nieNumber",
          "type": "string"
        }
      ],
      "stateMutability": "view",
      "type": "function"
    },
    {
      "inputs": [
        {
          "internalType": "string",
          "name": "_obatId",
          "type": "string"
        },
        {
          "internalType": "address",
          "name": "_bpomAddr",
          "type": "address"
        },
        {
          "internalType": "string",
          "name": "_bpomInstanceName",
          "type": "string"
        },
        {
          "internalType": "string",
          "name": "_bpomUserName",
          "type": "string"
        },
        {
          "internalType": "string",
          "name": "_nieNumber",
          "type": "string"
        }
      ],
      "name": "approveNie",
      "outputs": [],
      "stateMutability": "nonpayable",
      "type": "function"
    },
    {
      "inputs": [
        {
          "internalType": "string",
          "name": "",
          "type": "string"
        }
      ],
      "name": "bpomAddresses",
      "outputs": [
        {
          "internalType": "address",
          "name": "",
          "type": "address"
        }
      ],
      "stateMutability": "view",
      "type": "function"
    },
    {
      "inputs": [
        {
          "internalType": "string",
          "name": "",
          "type": "string"
        }
      ],
      "name": "bpomInstanceNames",
      "outputs": [
        {
          "internalType": "string",
          "name": "",
          "type": "string"
        }
      ],
      "stateMutability": "view",
      "type": "function"
    },
    {
      "inputs": [
        {
          "internalType": "string",
          "name": "",
          "type": "string"
        }
      ],
      "name": "bpomUserNames",
      "outputs": [
        {
          "internalType": "string",
          "name": "",
          "type": "string"
        }
      ],
      "stateMutability": "view",
      "type": "function"
    },
    {
      "inputs": [
        {
          "internalType": "string",
          "name": "_obatId",
          "type": "string"
        },
        {
          "internalType": "string",
          "name": "_merk",
          "type": "string"
        },
        {
          "internalType": "string",
          "name": "_namaProduk",
          "type": "string"
        },
        {
          "internalType": "string[]",
          "name": "_klaim",
          "type": "string[]"
        },
        {
          "internalType": "string",
          "name": "_kemasan",
          "type": "string"
        },
        {
          "internalType": "string[]",
          "name": "_komposisi",
          "type": "string[]"
        },
        {
          "internalType": "address",
          "name": "_factoryAddr",
          "type": "address"
        },
        {
          "internalType": "string",
          "name": "_factoryInstanceName",
          "type": "string"
        },
        {
          "internalType": "string",
          "name": "_factoryUserName",
          "type": "string"
        },
        {
          "internalType": "enum ObatTradisional.en_tipeProduk",
          "name": "_tipeProduk",
          "type": "uint8"
        }
      ],
      "name": "createObat",
      "outputs": [],
      "stateMutability": "nonpayable",
      "type": "function"
    },
    {
      "inputs": [
        {
          "internalType": "string",
          "name": "",
          "type": "string"
        }
      ],
      "name": "factoryAddresses",
      "outputs": [
        {
          "internalType": "address",
          "name": "",
          "type": "address"
        }
      ],
      "stateMutability": "view",
      "type": "function"
    },
    {
      "inputs": [
        {
          "internalType": "string",
          "name": "",
          "type": "string"
        }
      ],
      "name": "factoryInstanceNames",
      "outputs": [
        {
          "internalType": "string",
          "name": "",
          "type": "string"
        }
      ],
      "stateMutability": "view",
      "type": "function"
    },
    {
      "inputs": [
        {
          "internalType": "string",
          "name": "",
          "type": "string"
        }
      ],
      "name": "factoryUserNames",
      "outputs": [
        {
          "internalType": "string",
          "name": "",
          "type": "string"
        }
      ],
      "stateMutability": "view",
      "type": "function"
    },
    {
      "inputs": [],
      "name": "getListAllObatNie",
      "outputs": [
        {
          "internalType": "string[]",
          "name": "",
          "type": "string[]"
        },
        {
          "internalType": "string[]",
          "name": "",
          "type": "string[]"
        },
        {
          "internalType": "string[]",
          "name": "",
          "type": "string[]"
        },
        {
          "internalType": "uint256[]",
          "name": "",
          "type": "uint256[]"
        },
        {
          "internalType": "uint8[]",
          "name": "",
          "type": "uint8[]"
        }
      ],
      "stateMutability": "view",
      "type": "function"
    },
    {
      "inputs": [
        {
          "internalType": "string",
          "name": "_factoryInstanceName",
          "type": "string"
        }
      ],
      "name": "getListObatByFactory",
      "outputs": [
        {
          "internalType": "string[]",
          "name": "",
          "type": "string[]"
        },
        {
          "internalType": "string[]",
          "name": "",
          "type": "string[]"
        },
        {
          "internalType": "uint8[]",
          "name": "",
          "type": "uint8[]"
        },
        {
          "internalType": "uint8[]",
          "name": "",
          "type": "uint8[]"
        }
      ],
      "stateMutability": "view",
      "type": "function"
    },
    {
      "inputs": [
        {
          "internalType": "string",
          "name": "_obatId",
          "type": "string"
        }
      ],
      "name": "getListObatById",
      "outputs": [
        {
          "components": [
            {
              "internalType": "string",
              "name": "obatId",
              "type": "string"
            },
            {
              "internalType": "string",
              "name": "merk",
              "type": "string"
            },
            {
              "internalType": "string",
              "name": "namaProduk",
              "type": "string"
            },
            {
              "internalType": "string[]",
              "name": "klaim",
              "type": "string[]"
            },
            {
              "internalType": "string",
              "name": "kemasan",
              "type": "string"
            },
            {
              "internalType": "string[]",
              "name": "komposisi",
              "type": "string[]"
            },
            {
              "internalType": "enum ObatTradisional.en_tipeProduk",
              "name": "tipeProduk",
              "type": "uint8"
            },
            {
              "internalType": "enum ObatTradisional.en_obatStatus",
              "name": "obatStatus",
              "type": "uint8"
            },
            {
              "internalType": "uint256",
              "name": "nieRequestDate",
              "type": "uint256"
            },
            {
              "internalType": "uint256",
              "name": "nieApprovalDate",
              "type": "uint256"
            },
            {
              "internalType": "string",
              "name": "nieNumber",
              "type": "string"
            }
          ],
          "internalType": "struct ObatTradisional.st_obatDetails",
          "name": "obatDetails",
          "type": "tuple"
        },
        {
          "internalType": "address",
          "name": "factoryAddress",
          "type": "address"
        },
        {
          "internalType": "string",
          "name": "factoryInstanceName",
          "type": "string"
        },
        {
          "internalType": "string",
          "name": "factoryUserName",
          "type": "string"
        },
        {
          "internalType": "address",
          "name": "bpomAddress",
          "type": "address"
        },
        {
          "internalType": "string",
          "name": "bpomInstanceName",
          "type": "string"
        },
        {
          "internalType": "string",
          "name": "bpomUserName",
          "type": "string"
        }
      ],
      "stateMutability": "view",
      "type": "function"
    },
    {
      "inputs": [
        {
          "internalType": "address",
          "name": "user",
          "type": "address"
        }
      ],
      "name": "getRole",
      "outputs": [
        {
          "internalType": "enum ObatTradisional.en_roles",
          "name": "",
          "type": "uint8"
        },
        {
          "internalType": "address",
          "name": "",
          "type": "address"
        }
      ],
      "stateMutability": "view",
      "type": "function"
    },
    {
      "inputs": [
        {
          "internalType": "string",
          "name": "",
          "type": "string"
        }
      ],
      "name": "obatDetailsById",
      "outputs": [
        {
          "internalType": "string",
          "name": "obatId",
          "type": "string"
        },
        {
          "internalType": "string",
          "name": "merk",
          "type": "string"
        },
        {
          "internalType": "string",
          "name": "namaProduk",
          "type": "string"
        },
        {
          "internalType": "string",
          "name": "kemasan",
          "type": "string"
        },
        {
          "internalType": "enum ObatTradisional.en_tipeProduk",
          "name": "tipeProduk",
          "type": "uint8"
        },
        {
          "internalType": "enum ObatTradisional.en_obatStatus",
          "name": "obatStatus",
          "type": "uint8"
        },
        {
          "internalType": "uint256",
          "name": "nieRequestDate",
          "type": "uint256"
        },
        {
          "internalType": "uint256",
          "name": "nieApprovalDate",
          "type": "uint256"
        },
        {
          "internalType": "string",
          "name": "nieNumber",
          "type": "string"
        }
      ],
      "stateMutability": "view",
      "type": "function"
    },
    {
      "inputs": [
        {
          "internalType": "string",
          "name": "_obatId",
          "type": "string"
        }
      ],
      "name": "requestNie",
      "outputs": [],
      "stateMutability": "nonpayable",
      "type": "function"
    },
    {
      "inputs": [
        {
          "internalType": "address",
          "name": "",
          "type": "address"
        }
      ],
      "name": "userRoles",
      "outputs": [
        {
          "internalType": "enum ObatTradisional.en_roles",
          "name": "",
          "type": "uint8"
        }
      ],
      "stateMutability": "view",
      "type": "function"
    }
  ],
  "bytecode": "0x608034607057601f612cce38819003918201601f19168301916001600160401b03831184841017607557808492602094604052833981010312607057516001600160a01b03811690819003607057600080546001600160a01b031916919091179055604051612c42908161008c8239f35b600080fd5b634e487b7160e01b600052604160045260246000fdfe6080604052600436101561001257600080fd5b60003560e01c80631c0b203014611cfa5780631dce6e5814611ac657806325606bc3146116645780632732183714611613578063349a7a72146115bf57806344276733146115755780634b87568a1461150d57806374d5e100146114c75780637aad01bd146113f85780637ade51dd14610d045780639d9315c214610cb0578063a812536d14610c5c578063bc4a6f6c146109e8578063d9d284dc14610417578063e06749ba146101575763f1022862146100cc57600080fd5b34610152576020366003190112610152576004356001600160401b0381116101525761013361013a61011d602061010a61014e953690600401611d9f565b8160405193828580945193849201611df5565b8101600681520301902060405192838092611f21565b0382611d7e565b604051918291602083526020830190611e18565b0390f35b600080fd5b3461015257600036600319011261015257600080600154905b8181106103d957506101818261219b565b9061018b8361219b565b6101948461219b565b61019d85612073565b916101ab6040519384611d7e565b8583526101cc6101ba87612073565b602085019790601f19013689376121e5565b93600090815b81811061025b57505050602091610208610216926101fb6040519860a08a5260a08a0190611e3d565b90888203868a0152611e3d565b908682036040880152611e3d565b918483036060860152519182815201939060005b81811061024557848061014e88878382036080850152611e96565b825186526020958601959092019160010161022a565b60ff60066102688361203e565b50015460081c1660038110156103b057610285575b6001016101d2565b916101336102a26102958561203e565b5060405192838092611f21565b6102ac828a612217565b526102b78189612217565b5060026102d76102c68561203e565b506101336040518094819301611f21565b6102e18286612217565b526102ec8185612217565b5061013361032261030e60206103018761203e565b5060405192838092612108565b600881520301902060405192838092611f21565b61032c8287612217565b526103378186612217565b5060086103438461203e565b50015460076103518561203e565b50015410156103c65760086103658461203e565b5001545b6103738288612217565b5260ff60066103818561203e565b50015460081c1660038110156103b057816103a8916103a26001948b612217565b52612176565b92905061027d565b634e487b7160e01b600052602160045260246000fd5b60076103d18461203e565b500154610369565b60ff60066103e68361203e565b50015460081c1660038110156103b057610403575b600101610170565b9161040f600191612176565b9290506103fb565b3461015257610140366003190112610152576004356001600160401b03811161015257610448903690600401611d9f565b6024356001600160401b03811161015257610467903690600401611d9f565b6044356001600160401b03811161015257610486903690600401611d9f565b916064356001600160401b038111610152576104a690369060040161208a565b916084356001600160401b038111610152576104c6903690600401611d9f565b9060a4356001600160401b038111610152576104e690369060040161208a565b9060c4359360018060a01b0385168095036101525760e4356001600160401b0381116101525761051a903690600401611d9f565b90610104356001600160401b0381116101525761053b903690600401611d9f565b936101243597600289101561015257600080546040516395a8c58d60e01b81523360048201526024810192909252602090829060449082906001600160a01b03165afa80156109dc57610596916000916109ad575b506122c6565b604051946105a386611d62565b8386526020860152896040860152606085015285608085015260a08401526105ce8760c0850161228b565b600060e0840152600061010084015260006101208401526020926040516105f58582611d7e565b600081526101408201526040519061062a8184519387818188019661061b81838a611df5565b81016003815203019020612311565b600154600160401b8110156108df57806001610649920160015561203e565b9190916109975761065991612311565b6040518481845161066b818387611df5565b81016007815203019020876bffffffffffffffffffffffff60a01b8254161790556040518481845161069e818387611df5565b81016008815203019020908351926001600160401b0384116108df57826106c6879454611ee7565b601f8111610967575b508394601f8111600114610900578061070291610716976000916108f5575b508160011b916000199060031b1c19161790565b90555b604051938492839251928391611df5565b8101600981520301902083516001600160401b0381116108df5761073a8254611ee7565b601f81116108a4575b5083601f821160011461080957946107cd6107ee957f634ef467423c7b2abbaf26097bdddac4a495d36be69ca3d1555484b46e7899c79b99956107c09b99956107a9866107db976107f99c6000916107fe57508160011b916000199060031b1c19161790565b90555b6040519b8c9b60c08d5260c08d0190611e18565b918b8303908c0152611e18565b9088820360408a0152611e18565b9160608701528582036080870152611e18565b9160a0840190611ecd565b0390a1005b9050870151386106ee565b601f1982169083600052856000209160005b81811061088d5750957f634ef467423c7b2abbaf26097bdddac4a495d36be69ca3d1555484b46e7899c79b99956107c09b99956001866107f99b966107cd966107db996107ee9d10610874575b5050811b0190556107ac565b88015160001960f88460031b161c191690553880610868565b91928760018192868c01518155019401920161081b565b6108cf908360005285600020601f840160051c8101918785106108d5575b601f0160051c0190612297565b89610743565b90915081906108c2565b634e487b7160e01b600052604160045260246000fd5b90508801518f6106ee565b601f1981169582600052856000209660005b81811061094f57509682916001936107169910610936575b5050811b019055610705565b89015160001960f88460031b161c191690558e8061092a565b828a015189556001909801978a979283019201610912565b610991908260005285600020601f880160051c8101918789106108d557601f0160051c0190612297565b8c6106cf565b634e487b7160e01b600052600060045260246000fd5b6109cf915060203d6020116109d5575b6109c78183611d7e565b8101906122ae565b8c610590565b503d6109bd565b6040513d6000823e3d90fd5b34610152576020366003190112610152576004356001600160401b03811161015257610a18903690600401611d9f565b600080546040516395a8c58d60e01b81523360048201526024810192909252602090829060449082906001600160a01b03165afa80156109dc57610a6391600091610c3d57506122c6565b60405181519060208181850193610a7b818387611df5565b81016003815203019020916006830160ff815460081c1660038110156103b057610bdb57426007850155805461ff00191661010017905560005b600154811015610bab57610ac88161203e565b50604051610aec81610ade602082018095612108565b03601f198101835282611d7e565b5190206040516020810190610b1b6020828751610b0a81878c611df5565b81010301601f198101835282611d7e565b51902014610b2b57600101610ab5565b610b9692507f854681db4b5190ceaacfe5894893f2e8d49873d9b8ed6c72b5618047cb3924e5936006610b7083610b646107f99561203e565b5060074291015561203e565b5001805461ff0019166101001790555b6002604051948594606086526060860190611e18565b91426020860152848303604086015201611f21565b50610b9691506107f97f854681db4b5190ceaacfe5894893f2e8d49873d9b8ed6c72b5618047cb3924e593610b80565b60405162461bcd60e51b815260206004820152603460248201527f4f62617420547261646973696f6e616c20737461747573206d75737420626520604482015273696e206c6f63616c2070726f64756374696f6e2160601b6064820152608490fd5b610c56915060203d6020116109d5576109c78183611d7e565b83610590565b34610152576020366003190112610152576004356001600160401b0381116101525761013361013a610c9a602061010a61014e953690600401611d9f565b8101600881520301902060405192838092611f21565b34610152576020366003190112610152576004356001600160401b0381116101525761013361013a610cee602061010a61014e953690600401611d9f565b8101600581520301902060405192838092611f21565b346101525760a0366003190112610152576004356001600160401b03811161015257610d34903690600401611d9f565b602435906001600160a01b0382168203610152576044356001600160401b03811161015257610d67903690600401611d9f565b906064356001600160401b03811161015257610d87903690600401611d9f565b906084356001600160401b03811161015257610da7903690600401611d9f565b916040519382519460208181860197610dc181838b611df5565b81016003815203019020956006870160ff815460081c1660038110156103b0576001036113a05742600889015561020061ff00198254161790556009870185516001600160401b0381116108df57610e198254611ee7565b601f811161136e575b506020601f8211600114611308579080610e51926000916112fd57508160011b916000199060031b1c19161790565b90555b6040516020818651610e6781838c611df5565b810160048152030190209060018060a01b03166bffffffffffffffffffffffff60a01b8254161790556040516020818551610ea381838b611df5565b81016005815203019020908051906001600160401b0382116108df57610ec98354611ee7565b601f81116112cb575b50602090601f831160011461126457610f04929160009183611259575b50508160011b916000199060031b1c19161790565b90555b6040516020818451610f1a81838a611df5565b81016006815203019020908051906001600160401b0382116108df57610f408354611ee7565b601f8111611227575b50602090601f83116001146111c057610f7a9291600091836111b55750508160011b916000199060031b1c19161790565b90555b60005b60015481101561118457610f938161203e565b50604051610fa981610ade602082018095612108565b5190206040516020810190610fc76020828751610b0a81878d611df5565b51902014610fd757600101610f80565b60099293506110109150610fea8161203e565b506008429101556006610ffc8261203e565b5001805461ff00191661020017905561203e565b5001918151926001600160401b0384116108df5761102e8154611ee7565b601f8111611152575b50602093601f81116001146110c457916107f991611091846110aa96957f489f165b733603cb0a992d8cafd6c42a0c13d169039003f751758b9f0019f26c986000916110b957508160011b916000199060031b1c19161790565b90555b6002604051948594604086526040860190611e18565b91848303602086015201611f21565b9050860151896106ee565b601f1981169482600052806000209560005b81811061113a5750827f489f165b733603cb0a992d8cafd6c42a0c13d169039003f751758b9f0019f26c976107f995936110aa98979560019410611121575b5050811b019055611094565b87015160001960f88460031b161c191690558880611115565b868301518855600190970196602092830192016110d6565b61117e90826000526020600020601f870160051c810191602088106108d557601f0160051c0190612297565b84611037565b50506110aa91506107f97f489f165b733603cb0a992d8cafd6c42a0c13d169039003f751758b9f0019f26c93611094565b015190508880610eef565b90601f1983169184600052816000209260005b81811061120f57509084600195949392106111f6575b505050811b019055610f7d565b015160001960f88460031b161c191690558780806111e9565b929360206001819287860151815501950193016111d3565b61125390846000526020600020601f850160051c810191602086106108d557601f0160051c0190612297565b87610f49565b015190508980610eef565b90601f1983169184600052816000209260005b8181106112b3575090846001959493921061129a575b505050811b019055610f07565b015160001960f88460031b161c1916905588808061128d565b92936020600181928786015181550195019301611277565b6112f790846000526020600020601f850160051c810191602086106108d557601f0160051c0190612297565b88610ed2565b90508801518b6106ee565b601f1982169083600052806000209160005b8a828210611356575050908360019493921061133d575b5050811b019055610e54565b89015160001960f88460031b161c191690558a80611331565b6001849560209395849301518155019401920161131a565b61139a90836000526020600020601f840160051c810191602085106108d557601f0160051c0190612297565b89610e22565b60405162461bcd60e51b815260206004820152602a60248201527f4f62617420547261646973696f6e616c20737461747573206d757374206265206044820152697265717565737465642160b01b6064820152608490fd5b34610152576020366003190112610152576004356001548110156101525761141f9061203e565b5060405190611439826114328184611f21565b0383611d7e565b61014e60096040519261145a846114538160018501611f21565b0385611d7e565b604051946114768661146f8160028601611f21565b0387611d7e565b6040519061148b826114328160048701611f21565b6006830154906007840154926114b060088601549561146f6040518099819301611f21565b60405198899860ff808660081c169516938a611fa4565b34610152576020366003190112610152576001600160a01b036114e861201e565b166000526002602052602060ff604060002054166040519061150981612034565b8152f35b34610152576020366003190112610152576004356001600160401b0381116101525761153f6020913690600401611d9f565b816115536040519283815193849201611df5565b600790820190815281900382019020546040516001600160a01b039091168152f35b34610152576020366003190112610152576001600160a01b0361159661201e565b166000526002602052604060ff8160002054168151906115b581612034565b8152336020820152f35b34610152576020366003190112610152576004356001600160401b0381116101525761013361013a6115fd602061010a61014e953690600401611d9f565b8101600981520301902060405192838092611f21565b34610152576020366003190112610152576004356001600160401b03811161015257602061010a611648923690600401611d9f565b8101600381520301902060405190611439826114328184611f21565b34610152576020366003190112610152576004356001600160401b03811161015257611694903690600401611d9f565b60606101406040516116a581611d62565b82815282602082015282604082015282808201528260808201528260a0820152600060c0820152600060e082015260006101008201526000610120820152015260405161171082519160208181860194611700818388611df5565b8101600381520301902054611ee7565b15611a81576040516020818451611728818387611df5565b810160038152030190206040519161173f83611d62565b604051611750816101338186611f21565b8352604051611766816101338160018701611f21565b602084015260405161177f816101338160028701611f21565b60408401526117906003830161222b565b60608401526040516117a9816101338160048701611f21565b60808401526117ba6005830161222b565b60a084015260ff60068301546117d582821660c0870161228b565b60081c169160038310156103b05761014094611921611a606118c7611a5261193e966009611831611a739861014e9b60e08e01528c61010060078301549101528c61012060088301549101526101336040518094819301611f21565b8b8b015261189461194561192860206040518a51611850818389611df5565b81019060078252828160018060a01b03930301902054169461189b8b8360405180925161187e818388611df5565b8101600881520301902060405196878092611f21565b0386611d7e565b6118ce8b836040518092516118b1818388611df5565b81016009815203019020604051998a8092611f21565b0389611d7e565b6040518b516118de818385611df5565b81019060048252838160018060a01b03930301902054169a6107056040518481845161190b818389611df5565b810160058152030190206040519c8d8092611f21565b038c611d7e565b810160068152030190206040519a8b8092611f21565b038a611d7e565b611a3f604051809d819d60e083526119eb6119d46119bd6119a861199161197a865161016060e08b01526102408a0190611e18565b602087015189820360df19016101008b0152611e18565b604086015188820360df19016101208a0152611e18565b606085015187820360df190187890152611e3d565b608084015186820360df1901610160880152611e18565b60a083015185820360df1901610180870152611e3d565b926119ff60c08301516101a0830190611ecd565b611a1260e08301516101c0830190611eda565b6101008201516101e08201526101208201516102009091015201518d820360df19016102208f0152611e18565b9160208c01528a820360408c0152611e18565b9088820360608a0152611e18565b91608087015285820360a0870152611e18565b9083820360c0850152611e18565b60405162461bcd60e51b815260206004820152601b60248201527f4e6f206461746120666f756e64207769746820746869732049442e00000000006044820152606490fd5b34610152576020366003190112610152576004356001600160401b03811161015257611af6903690600401611d9f565b60015460208201916000805b838110611c8a5750611b138161219b565b92611b1d8261219b565b90611b30611b2a846121e5565b936121e5565b93600096875b838110611b8b57611b618861014e89611b7d8a611b6f8b604051978897608089526080890190611e3d565b908782036020890152611e3d565b908582036040870152611e96565b908382036060850152611e96565b611b9960206103018361203e565b6008815203019020604051611bb681610ade602082018095612108565b5190206040516020810190611bd46020828851610b0a81878b611df5565b51902014611be5575b600101611b36565b97610133611bf56102958b61203e565b611bff828a612217565b52611c0a8189612217565b506002611c196102c68b61203e565b611c238287612217565b52611c2e8186612217565b5060ff6006611c3c8b61203e565b50015460081c1660038110156103b057611c568288612217565b5260ff6006611c648b61203e565b5001541660028110156103b05781611c82916103a26001948b612217565b989050611bdd565b611c9860206103018361203e565b6008815203019020604051611cb581610ade602082018095612108565b5190206040516020810190611cd560208284610b0a8c8b51928391611df5565b51902014611ce6575b600101611b02565b90611cf2600191612176565b919050611cde565b34610152576020366003190112610152576004356001600160401b03811161015257611d2c6020913690600401611d9f565b81611d406040519283815193849201611df5565b600490820190815281900382019020546040516001600160a01b039091168152f35b61016081019081106001600160401b038211176108df57604052565b90601f801991011681019081106001600160401b038211176108df57604052565b81601f82011215610152578035906001600160401b0382116108df5760405192611dd3601f8401601f191660200185611d7e565b8284526020838301011161015257816000926020809301838601378301015290565b60005b838110611e085750506000910152565b8181015183820152602001611df8565b90602091611e3181518092818552858086019101611df5565b601f01601f1916010190565b9080602083519182815201916020808360051b8301019401926000915b838310611e6957505050505090565b9091929394602080611e87600193601f198682030187528951611e18565b97019301930191939290611e5a565b906020808351928381520192019060005b818110611eb45750505090565b825160ff16845260209384019390920191600101611ea7565b9060028210156103b05752565b9060038210156103b05752565b90600182811c92168015611f17575b6020831014611f0157565b634e487b7160e01b600052602260045260246000fd5b91607f1691611ef6565b60009291815491611f3183611ee7565b8083529260018116908115611f875750600114611f4d57505050565b60009081526020812093945091925b838310611f6d575060209250010190565b600181602092949394548385870101520191019190611f5c565b915050602093945060ff929192191683830152151560051b010190565b959161201b999794611a5261200395611fe0611fee94611fd2611ff9979b9e9b6101208e8181520190611e18565b8c810360208e015290611e18565b908a820360408c0152611e18565b976080870190611ecd565b60a0850190611eda565b60c083015260e0820152610100818403910152611e18565b90565b600435906001600160a01b038216820361015257565b600411156103b057565b60015481101561205d576001600052600a602060002091020190600090565b634e487b7160e01b600052603260045260246000fd5b6001600160401b0381116108df5760051b60200190565b9080601f830112156101525781356120a181612073565b926120af6040519485611d7e565b81845260208085019260051b820101918383116101525760208201905b8382106120db57505050505090565b81356001600160401b038111610152576020916120fd87848094880101611d9f565b8152019101906120cc565b6000929181549161211883611ee7565b9260018116908115612163575060011461213157505050565b909192935060005260206000206000905b83821061214f5750500190565b600181602092548486015201910190612142565b60ff191683525050811515909102019150565b60001981146121855760010190565b634e487b7160e01b600052601160045260246000fd5b906121a582612073565b6121b26040519182611d7e565b82815280926121c3601f1991612073565b019060005b8281106121d457505050565b8060606020809385010152016121c8565b906121ef82612073565b6121fc6040519182611d7e565b828152809261220d601f1991612073565b0190602036910137565b805182101561205d5760209160051b010190565b90815461223781612073565b926122456040519485611d7e565b818452602084019060005260206000206000915b8383106122665750505050565b60016020819260405161227d816101338189611f21565b815201920192019190612259565b60028210156103b05752565b8181106122a2575050565b60008155600101612297565b90816020910312610152575180151581036101525790565b156122cd57565b606460405162461bcd60e51b815260206004820152602060248201527f416363657373207265737472696374656420746f2050616272696b20726f6c656044820152fd5b909182519283516001600160401b0381116108df576123308454611ee7565b601f8111612bda575b50602094601f8211600114612b755761236d9293949582916000926125d35750508160011b916000199060031b1c19161790565b83555b6001830160208201518051906001600160401b0382116108df576123948354611ee7565b601f8111612b43575b50602090601f8311600114612adc576123ce9291600091836125d35750508160011b916000199060031b1c19161790565b90555b6002830160408201518051906001600160401b0382116108df576123f58354611ee7565b601f8111612aaa575b50602090601f8311600114612a435761242f9291600091836125d35750508160011b916000199060031b1c19161790565b90555b600383016060820151805190600160401b82116108df5782548284558083106129c5575b50602001916000526020600020916000905b8282106128b857505050506004830160808201518051906001600160401b0382116108df576124978354611ee7565b601f8111612886575b50602090601f831160011461281f576124d19291600091836125d35750508160011b916000199060031b1c19161790565b90555b6005830160a0820151805190600160401b82116108df5782548284558083106127a1575b50602001916000526020600020916000905b828210612694575050505060c0810151926006810160028510156103b05760009460ff8019835416911617815560e0830151600381101561268057916009916101409361ff0082549160081b169061ff0019161790556101008401516007820155610120840151600882015501910151928351906001600160401b03821161266c576125968354611ee7565b601f811161263c575b50602090601f83116001146125de57906125cf939495836125d35750508160011b916000199060031b1c19161790565b9055565b015190503880610eef565b90601f198316848352818320925b8181106126245750958360019596971061260b575b505050811b019055565b015160001960f88460031b161c19169055388080612601565b9192602060018192868b0151815501940192016125ec565b6126669084835260208320601f850160051c810191602086106108d557601f0160051c0190612297565b3861259f565b634e487b7160e01b81526041600452602490fd5b634e487b7160e01b86526021600452602486fd5b80518051906001600160401b0382116108df576126b18654611ee7565b601f811161276f575b50602090601f831160011461270257926126f3836001959460209487966000926125d35750508160011b916000199060031b1c19161790565b87555b0194019101909261250a565b90601f1983169187600052816000209260005b818110612757575093602093600196938796938388951061273e575b505050811b0187556126f6565b015160001960f88460031b161c19169055388080612731565b92936020600181928786015181550195019301612715565b61279b90876000526020600020601f850160051c810191602086106108d557601f0160051c0190612297565b386126ba565b8360005282602060002091820191015b8181106127be57506124f8565b806127cb60019254611ee7565b806127d8575b50016127b1565b601f811183146127ee5750600081555b386127d1565b61280c908260005283601f6020600020920160051c82019101612297565b80600052600060208120818355556127e8565b90601f1983169184600052816000209260005b81811061286e5750908460019594939210612855575b505050811b0190556124d4565b015160001960f88460031b161c19169055388080612848565b92936020600181928786015181550195019301612832565b6128b290846000526020600020601f850160051c810191602086106108d557601f0160051c0190612297565b386124a0565b80518051906001600160401b0382116108df576128d58654611ee7565b601f8111612993575b50602090601f83116001146129265792612917836001959460209487966000926125d35750508160011b916000199060031b1c19161790565b87555b01940191019092612468565b90601f1983169187600052816000209260005b81811061297b5750936020936001969387969383889510612962575b505050811b01875561291a565b015160001960f88460031b161c19169055388080612955565b92936020600181928786015181550195019301612939565b6129bf90876000526020600020601f850160051c810191602086106108d557601f0160051c0190612297565b386128de565b8360005282602060002091820191015b8181106129e25750612456565b806129ef60019254611ee7565b806129fc575b50016129d5565b601f81118314612a125750600081555b386129f5565b612a30908260005283601f6020600020920160051c82019101612297565b8060005260006020812081835555612a0c565b90601f1983169184600052816000209260005b818110612a925750908460019594939210612a79575b505050811b019055612432565b015160001960f88460031b161c19169055388080612a6c565b92936020600181928786015181550195019301612a56565b612ad690846000526020600020601f850160051c810191602086106108d557601f0160051c0190612297565b386123fe565b90601f1983169184600052816000209260005b818110612b2b5750908460019594939210612b12575b505050811b0190556123d1565b015160001960f88460031b161c19169055388080612b05565b92936020600181928786015181550195019301612aef565b612b6f90846000526020600020601f850160051c810191602086106108d557601f0160051c0190612297565b3861239d565b601f1982169585600052806000209160005b888110612bc257508360019596979810612ba9575b505050811b018355612370565b015160001960f88460031b161c19169055388080612b9c565b91926020600181928685015181550194019201612b87565b612c0690856000526020600020601f840160051c810191602085106108d557601f0160051c0190612297565b3861233956fea2646970667358221220219674c9dade0345d3b76c57cf6d3e40bf13afbabcc7203ebaa7b0d7f18f3f9964736f6c634300081b0033",
  "linkReferences": {},
  "deployedLinkReferences": {}
}