{
  "_format": "hh-sol-artifact-1",
  "contractName": "ObatTradisional",
  "sourceName": "contracts/ObatTradisional.sol",
  "abi": [
    {
      "inputs": [
        {
          "internalType": "address",
          "name": "_roleManagerAddr",
          "type": "address"
        },
        {
          "internalType": "address",
          "name": "_mainSupplyChainAddr",
          "type": "address"
        },
        {
          "internalType": "address",
          "name": "_obatSharedAddr",
          "type": "address"
        }
      ],
      "stateMutability": "nonpayable",
      "type": "constructor"
    },
    {
      "anonymous": false,
      "inputs": [
        {
          "indexed": false,
          "internalType": "string",
          "name": "batchName",
          "type": "string"
        },
        {
          "indexed": false,
          "internalType": "uint8",
          "name": "quantity",
          "type": "uint8"
        },
        {
          "indexed": false,
          "internalType": "string",
          "name": "namaProduk",
          "type": "string"
        },
        {
          "indexed": false,
          "internalType": "string",
          "name": "factoryInstance",
          "type": "string"
        }
      ],
      "name": "evt_addBatchProduction",
      "type": "event"
    },
    {
      "anonymous": false,
      "inputs": [
        {
          "indexed": false,
          "internalType": "string",
          "name": "bpomInstance",
          "type": "string"
        },
        {
          "indexed": false,
          "internalType": "address",
          "name": "bpomAddr",
          "type": "address"
        },
        {
          "indexed": false,
          "internalType": "string",
          "name": "nieNumber",
          "type": "string"
        },
        {
          "indexed": false,
          "internalType": "uint256",
          "name": "timestampApproved",
          "type": "uint256"
        }
      ],
      "name": "evt_nieApproved",
      "type": "event"
    },
    {
      "anonymous": false,
      "inputs": [
        {
          "indexed": false,
          "internalType": "string",
          "name": "factoryInstance",
          "type": "string"
        },
        {
          "indexed": false,
          "internalType": "address",
          "name": "factoryAddr",
          "type": "address"
        },
        {
          "indexed": false,
          "internalType": "uint256",
          "name": "timestampRequest",
          "type": "uint256"
        }
      ],
      "name": "evt_nieRequested",
      "type": "event"
    },
    {
      "anonymous": false,
      "inputs": [
        {
          "indexed": false,
          "internalType": "string",
          "name": "namaProduk",
          "type": "string"
        },
        {
          "indexed": false,
          "internalType": "string",
          "name": "factoryInstance",
          "type": "string"
        },
        {
          "indexed": false,
          "internalType": "address",
          "name": "factoryAddresses",
          "type": "address"
        }
      ],
      "name": "evt_obatCreated",
      "type": "event"
    },
    {
      "inputs": [
        {
          "internalType": "string",
          "name": "_obatId",
          "type": "string"
        },
        {
          "internalType": "string",
          "name": "_namaProduk",
          "type": "string"
        },
        {
          "internalType": "string",
          "name": "_batchName",
          "type": "string"
        },
        {
          "internalType": "uint8",
          "name": "_obatQuantity",
          "type": "uint8"
        },
        {
          "internalType": "string[]",
          "name": "_obatIpfsHash",
          "type": "string[]"
        },
        {
          "internalType": "string",
          "name": "_factoryInstance",
          "type": "string"
        }
      ],
      "name": "addBatchProduction",
      "outputs": [],
      "stateMutability": "nonpayable",
      "type": "function"
    },
    {
      "inputs": [
        {
          "internalType": "uint256",
          "name": "",
          "type": "uint256"
        }
      ],
      "name": "allObatIds",
      "outputs": [
        {
          "internalType": "string",
          "name": "",
          "type": "string"
        }
      ],
      "stateMutability": "view",
      "type": "function"
    },
    {
      "inputs": [
        {
          "internalType": "string",
          "name": "_obatId",
          "type": "string"
        },
        {
          "internalType": "string",
          "name": "_nieNumber",
          "type": "string"
        },
        {
          "internalType": "string",
          "name": "_instanceName",
          "type": "string"
        },
        {
          "internalType": "address",
          "name": "_instanceAddr",
          "type": "address"
        }
      ],
      "name": "approveNie",
      "outputs": [],
      "stateMutability": "nonpayable",
      "type": "function"
    },
    {
      "inputs": [
        {
          "internalType": "string",
          "name": "_obatId",
          "type": "string"
        },
        {
          "internalType": "string",
          "name": "_merk",
          "type": "string"
        },
        {
          "internalType": "string",
          "name": "_namaProduk",
          "type": "string"
        },
        {
          "internalType": "string[]",
          "name": "_klaim",
          "type": "string[]"
        },
        {
          "internalType": "string",
          "name": "_kemasan",
          "type": "string"
        },
        {
          "internalType": "string[]",
          "name": "_komposisi",
          "type": "string[]"
        },
        {
          "internalType": "string",
          "name": "_factoryInstance",
          "type": "string"
        },
        {
          "internalType": "enum EnumsLibrary.TipeProduk",
          "name": "_tipeProduk",
          "type": "uint8"
        }
      ],
      "name": "createObat",
      "outputs": [],
      "stateMutability": "nonpayable",
      "type": "function"
    },
    {
      "inputs": [
        {
          "internalType": "string",
          "name": "_obatId",
          "type": "string"
        },
        {
          "internalType": "string",
          "name": "_batchName",
          "type": "string"
        }
      ],
      "name": "detailBatchProduction",
      "outputs": [
        {
          "components": [
            {
              "internalType": "enum EnumsLibrary.ObatAvailability",
              "name": "statusStok",
              "type": "uint8"
            },
            {
              "internalType": "string",
              "name": "namaProduk",
              "type": "string"
            },
            {
              "internalType": "string",
              "name": "batchName",
              "type": "string"
            },
            {
              "internalType": "uint8",
              "name": "obatQuantity",
              "type": "uint8"
            },
            {
              "internalType": "string",
              "name": "factoryInstance",
              "type": "string"
            }
          ],
          "internalType": "struct ObatShared.st_obatProduction",
          "name": "",
          "type": "tuple"
        },
        {
          "internalType": "string[]",
          "name": "",
          "type": "string[]"
        }
      ],
      "stateMutability": "view",
      "type": "function"
    },
    {
      "inputs": [
        {
          "internalType": "string",
          "name": "_obatId",
          "type": "string"
        }
      ],
      "name": "detailObat",
      "outputs": [
        {
          "components": [
            {
              "internalType": "string",
              "name": "merk",
              "type": "string"
            },
            {
              "internalType": "string",
              "name": "namaProduk",
              "type": "string"
            },
            {
              "internalType": "string[]",
              "name": "klaim",
              "type": "string[]"
            },
            {
              "internalType": "string[]",
              "name": "komposisi",
              "type": "string[]"
            },
            {
              "internalType": "string",
              "name": "kemasan",
              "type": "string"
            },
            {
              "internalType": "enum EnumsLibrary.TipeProduk",
              "name": "tipeProduk",
              "type": "uint8"
            },
            {
              "internalType": "string",
              "name": "factoryInstance",
              "type": "string"
            },
            {
              "internalType": "address",
              "name": "factoryAddr",
              "type": "address"
            }
          ],
          "internalType": "struct ObatShared.st_obatDetails",
          "name": "",
          "type": "tuple"
        },
        {
          "components": [
            {
              "internalType": "string",
              "name": "nieNumber",
              "type": "string"
            },
            {
              "internalType": "enum EnumsLibrary.NieStatus",
              "name": "nieStatus",
              "type": "uint8"
            },
            {
              "internalType": "uint256",
              "name": "timestampProduction",
              "type": "uint256"
            },
            {
              "internalType": "uint256",
              "name": "timestampNieRequest",
              "type": "uint256"
            },
            {
              "internalType": "uint256",
              "name": "timestampNieApprove",
              "type": "uint256"
            },
            {
              "internalType": "string",
              "name": "bpomInstance",
              "type": "string"
            },
            {
              "internalType": "address",
              "name": "bpomAddr",
              "type": "address"
            }
          ],
          "internalType": "struct ObatTradisional.st_obatNie",
          "name": "",
          "type": "tuple"
        }
      ],
      "stateMutability": "view",
      "type": "function"
    },
    {
      "inputs": [
        {
          "internalType": "string",
          "name": "_instanceName",
          "type": "string"
        }
      ],
      "name": "getAllBatchProductionByInstance",
      "outputs": [
        {
          "components": [
            {
              "internalType": "string",
              "name": "obatId",
              "type": "string"
            },
            {
              "internalType": "string",
              "name": "namaProduk",
              "type": "string"
            },
            {
              "internalType": "string",
              "name": "batchName",
              "type": "string"
            },
            {
              "internalType": "uint8",
              "name": "obatQuantity",
              "type": "uint8"
            },
            {
              "internalType": "enum EnumsLibrary.ObatAvailability",
              "name": "statusStok",
              "type": "uint8"
            },
            {
              "internalType": "string",
              "name": "ownerInstance",
              "type": "string"
            }
          ],
          "internalType": "struct ObatTradisional.st_obatOutputBatch[]",
          "name": "",
          "type": "tuple[]"
        }
      ],
      "stateMutability": "view",
      "type": "function"
    },
    {
      "inputs": [],
      "name": "getAllBatchProductionReadyStock",
      "outputs": [
        {
          "components": [
            {
              "internalType": "string",
              "name": "obatId",
              "type": "string"
            },
            {
              "internalType": "string",
              "name": "namaProduk",
              "type": "string"
            },
            {
              "internalType": "string",
              "name": "batchName",
              "type": "string"
            },
            {
              "internalType": "uint8",
              "name": "obatQuantity",
              "type": "uint8"
            },
            {
              "internalType": "enum EnumsLibrary.ObatAvailability",
              "name": "statusStok",
              "type": "uint8"
            },
            {
              "internalType": "string",
              "name": "ownerInstance",
              "type": "string"
            }
          ],
          "internalType": "struct ObatTradisional.st_obatOutputBatch[]",
          "name": "",
          "type": "tuple[]"
        }
      ],
      "stateMutability": "view",
      "type": "function"
    },
    {
      "inputs": [],
      "name": "getAllObat",
      "outputs": [
        {
          "components": [
            {
              "internalType": "string",
              "name": "obatId",
              "type": "string"
            },
            {
              "internalType": "string",
              "name": "namaProduk",
              "type": "string"
            },
            {
              "internalType": "string",
              "name": "nieNumber",
              "type": "string"
            },
            {
              "internalType": "enum EnumsLibrary.NieStatus",
              "name": "nieStatus",
              "type": "uint8"
            },
            {
              "internalType": "string",
              "name": "factoryInstance",
              "type": "string"
            }
          ],
          "internalType": "struct ObatTradisional.st_obatOutputNie[]",
          "name": "",
          "type": "tuple[]"
        }
      ],
      "stateMutability": "view",
      "type": "function"
    },
    {
      "inputs": [
        {
          "internalType": "string",
          "name": "_instanceName",
          "type": "string"
        }
      ],
      "name": "getAllObatByInstance",
      "outputs": [
        {
          "components": [
            {
              "internalType": "string",
              "name": "obatId",
              "type": "string"
            },
            {
              "internalType": "string",
              "name": "namaProduk",
              "type": "string"
            },
            {
              "internalType": "string",
              "name": "nieNumber",
              "type": "string"
            },
            {
              "internalType": "enum EnumsLibrary.NieStatus",
              "name": "nieStatus",
              "type": "uint8"
            },
            {
              "internalType": "string",
              "name": "factoryInstance",
              "type": "string"
            }
          ],
          "internalType": "struct ObatTradisional.st_obatOutputNie[]",
          "name": "",
          "type": "tuple[]"
        }
      ],
      "stateMutability": "view",
      "type": "function"
    },
    {
      "inputs": [
        {
          "internalType": "string",
          "name": "_instanceName",
          "type": "string"
        }
      ],
      "name": "getAllObatNameApprovedNie",
      "outputs": [
        {
          "components": [
            {
              "internalType": "string",
              "name": "obatId",
              "type": "string"
            },
            {
              "internalType": "string",
              "name": "namaProduk",
              "type": "string"
            }
          ],
          "internalType": "struct ObatTradisional.st_obatNameApprovedNie[]",
          "name": "",
          "type": "tuple[]"
        }
      ],
      "stateMutability": "view",
      "type": "function"
    },
    {
      "inputs": [
        {
          "internalType": "string",
          "name": "_factoryInstanceName",
          "type": "string"
        }
      ],
      "name": "getJenisSediaanAvail",
      "outputs": [
        {
          "internalType": "uint8[]",
          "name": "",
          "type": "uint8[]"
        }
      ],
      "stateMutability": "view",
      "type": "function"
    },
    {
      "inputs": [],
      "name": "mainSupplyChain",
      "outputs": [
        {
          "internalType": "contract MainSupplyChain",
          "name": "",
          "type": "address"
        }
      ],
      "stateMutability": "view",
      "type": "function"
    },
    {
      "inputs": [
        {
          "internalType": "string",
          "name": "",
          "type": "string"
        }
      ],
      "name": "obatNieById",
      "outputs": [
        {
          "internalType": "string",
          "name": "nieNumber",
          "type": "string"
        },
        {
          "internalType": "enum EnumsLibrary.NieStatus",
          "name": "nieStatus",
          "type": "uint8"
        },
        {
          "internalType": "uint256",
          "name": "timestampProduction",
          "type": "uint256"
        },
        {
          "internalType": "uint256",
          "name": "timestampNieRequest",
          "type": "uint256"
        },
        {
          "internalType": "uint256",
          "name": "timestampNieApprove",
          "type": "uint256"
        },
        {
          "internalType": "string",
          "name": "bpomInstance",
          "type": "string"
        },
        {
          "internalType": "address",
          "name": "bpomAddr",
          "type": "address"
        }
      ],
      "stateMutability": "view",
      "type": "function"
    },
    {
      "inputs": [
        {
          "internalType": "string",
          "name": "",
          "type": "string"
        },
        {
          "internalType": "uint256",
          "name": "",
          "type": "uint256"
        }
      ],
      "name": "obatProductNameApprovedByFactory",
      "outputs": [
        {
          "internalType": "string",
          "name": "obatId",
          "type": "string"
        },
        {
          "internalType": "string",
          "name": "namaProduk",
          "type": "string"
        }
      ],
      "stateMutability": "view",
      "type": "function"
    },
    {
      "inputs": [],
      "name": "obatShared",
      "outputs": [
        {
          "internalType": "contract ObatShared",
          "name": "",
          "type": "address"
        }
      ],
      "stateMutability": "view",
      "type": "function"
    },
    {
      "inputs": [
        {
          "internalType": "string",
          "name": "_obatId",
          "type": "string"
        },
        {
          "internalType": "string",
          "name": "_factoryInstance",
          "type": "string"
        }
      ],
      "name": "requestNie",
      "outputs": [],
      "stateMutability": "nonpayable",
      "type": "function"
    },
    {
      "inputs": [],
      "name": "roleManager",
      "outputs": [
        {
          "internalType": "contract RoleManager",
          "name": "",
          "type": "address"
        }
      ],
      "stateMutability": "view",
      "type": "function"
    }
  ],
  "bytecode": "0x60803460a357601f61306138819003918201601f19168301916001600160401b0383118484101760a85780849260609460405283398101031260a35760428160be565b906057604060516020840160be565b920160be565b600080546001600160a01b039485166001600160a01b031991821617909155600180549385169382169390931790925560028054919093169116179055604051612f8f90816100d28239f35b600080fd5b634e487b7160e01b600052604160045260246000fd5b51906001600160a01b038216820360a35756fe608080604052600436101561001357600080fd5b600090813560e01c908162435da51461207f5750806302d4a86b14611de85780631bbd28f914611aeb5780633fca88cb14611ac25780634d17d2731461187757806350168fbb1461162d5780635162659c1461156157806354253681146112c557806365e90bcc1461121b5780636b0a3fe5146110d65780639413fcfd146110ad578063a1e0a4b014611085578063baeedfad14610d7b578063cb960d6b14610d14578063d44faa6314610bbe578063e521d58614610944578063e5dd1d061461021e5763e8982035146100e657600080fd5b3461021b576100f4366124d9565b82546040516395a8c58d60e01b815233600482015260006024820152929190602090849060449082906001600160a01b03165afa918215610210576101a7602060019261016d6101d1967fb15dd5852a569d549821835c26451fad3d4015817430a7f3e7557f6875389353988a916101e3575b50612921565b604051908051916003848301936101858184876121c9565b82019160048352858142940301902001556040519384928392519283916121c9565b8101600481520301902001600160ff198254161790556040519182916060835260608301906121ec565b3360208301524260408301520390a180f35b6102039150843d8611610209575b6101fb8183612141565b810190612909565b38610167565b503d6101f1565b6040513d86823e3d90fd5b80fd5b503461021b5761010036600319011261021b576004356001600160401b0381116109405761025090369060040161217d565b6024356001600160401b03811161093c5761026f90369060040161217d565b906044356001600160401b0381116108c35761028f90369060040161217d565b916064356001600160401b038111610938576102af90369060040161258a565b906084356001600160401b038111610934576102cf90369060040161217d565b9160a4356001600160401b0381116108d2576102ef90369060040161258a565b60c4356001600160401b0381116109305761030e90369060040161217d565b9360e43590600282101561092c5788546040516395a8c58d60e01b81523360048201526000602482015290602090829060449082906001600160a01b03165afa801561092157610364918b916109085750612921565b8651156108d65760025489956001600160a01b0390911691823b156108d257888a948896928793604051998a988997889663a24f650960e01b885260048801610120905261012488016103b6916121ec565b8781036003190160248901526103cb916121ec565b8681036003190160448801526103e0916121ec565b8581036003190160648701526103f5916122fb565b84810360031901608486015261040a916122fb565b8381036003190160a485015261041f916121ec565b9061042981612211565b60c48301528181036003190160e4830152610444908a6121ec565b3361010483015203925af180156108c7576108ae575b5050610464612b66565b50604051906104728261210b565b602080926040516104838382612141565b8781528152818101878152604082014281526060830189815260808401908a8252604051926104b28785612141565b8b845260a0860193845260c08601948c86526104f36104e1898d6040519b8c9382859351928391019e8f6121c9565b81016004815203019020975188612608565b600187019051600381101561089a57815460ff191660ff9190911617905551600286015551600385015551600484015551600691906105359060058501612608565b51910180546001600160a01b0319166001600160a01b0392909216919091179055600354600160401b811015610886578060016105759201600355612558565b610872578461058391612608565b6040938451906105938683612141565b600b82526a4c414c414c414c31322d3160a81b85830152600161069b868851956105bd8a88612141565b600d87526c212827a69026b0b5b0b9b9b0b960991b828801526105fd8760058c5185818a516105ed81838a6121c9565b8101600481520301902001612608565b60068a51838188516106108183886121c9565b81016004815203019020017370997970c51812dc3a010c7d01b50e0d17dc79c86bffffffffffffffffffffffff60a01b82541617905561066a868b518481895161065b8183896121c9565b81016004815203019020612608565b89516004865161067b8184866121c9565b8201918183528481429403019020015589518093819287519283916121c9565b8101600481520301902001600260ff1982541617905560018060a01b03600254168887518092636b2c133960e11b825288600483015281806106e060248201886121ec565b03915afa908115610868578991610846575b506107268660c08184015193015189519461070c866120f0565b8552818501938452818a51938285809451938492016121c9565b81016005815203019020805490600160401b821015610832579061074f91600182018155612526565b92909261081e57610812946107e97fa8a9f5de4b20098e7555472ad4adfbbb072e2fdd6bfa4c1b1a7b7645f47803519a98956107c46108059b999660017f40bd250f4e1cad69631af5d42189453e9c51f25278bd4232fe29ed01aa2f6ee4976107bc6107d7985184612608565b519101612608565b88519384936080855260808501906121ec565b9033888501528382038a8501526121ec565b4260608301520390a183519586956060875260608701906121ec565b91858303908601526121ec565b9033908301520390a180f35b634e487b7160e01b8a5260048a905260248afd5b634e487b7160e01b8b52604160045260248bfd5b61086291503d808b833e61085a8183612141565b8101906127d3565b386106f2565b87513d8b823e3d90fd5b634e487b7160e01b87526004879052602487fd5b634e487b7160e01b87526041600452602487fd5b634e487b7160e01b8e52602160045260248efd5b816108b891612141565b6108c357833861045a565b8380fd5b6040513d84823e3d90fd5b8680fd5b60405162461bcd60e51b815260206004820152600a602482015269125b9d985b1a5908125160b21b6044820152606490fd5b610203915060203d602011610209576101fb8183612141565b6040513d8c823e3d90fd5b8880fd5b8780fd5b8580fd5b8480fd5b8280fd5b5080fd5b503461021b5760c036600319011261021b576004356001600160401b0381116109405761097590369060040161217d565b6024356001600160401b03811161093c5761099490369060040161217d565b906044356001600160401b0381116108c3576109b490369060040161217d565b916064359060ff8216809203610938576084356001600160401b038111610934576109e390369060040161258a565b928560a4356001600160401b03811161094057610a0490369060040161217d565b81546040516395a8c58d60e01b81523360048201526000602482015291969190602090829060449082906001600160a01b03165afa8015610bb357610a4f9184916109085750612921565b6002546001600160a01b0316803b1561093c57610a9b83610aad95610ae9610ad78996610abf8e6040519b8c9a8b998a98637290eac360e11b8a5260c060048b015260c48a01906121ec565b8881036003190160248a0152906121ec565b868103600319016044880152906121ec565b908c60648601526003198583030160848601526122fb565b8281036003190160a48401528b6121ec565b03925af18015610ba857610b62575b50610b3b92610b4e7f48086aa029a355c9dd13e9f17292a5cc49f3b533bf3324ad5a543814b0ff5f139593610b5c936040519687966080885260808801906121ec565b91602087015285820360408701526121ec565b9083820360608501526121ec565b0390a180f35b92610b4e7f48086aa029a355c9dd13e9f17292a5cc49f3b533bf3324ad5a543814b0ff5f13959387610b9b610b5c9599610b3b98612141565b9793509395505092610af8565b6040513d88823e3d90fd5b6040513d85823e3d90fd5b503461021b57602036600319011261021b57600435816001600160401b03821161021b57610bf3610c2192369060040161217d565b60018060a01b0360015416604051808095819463e49d032760e01b83526020600484015260248301906121ec565b03915afa9081156108c7578291610c7c575b5090604051918291602083016020845282518091526020604085019301915b818110610c60575050500390f35b825160ff16845285945060209384019390920191600101610c52565b90503d8083833e610c8d8183612141565b81019060208183031261093c578051906001600160401b0382116108c357019080601f8301121561093c578151610cc381612573565b92610cd16040519485612141565b81845260208085019260051b82010192831161093857602001905b828210610cfc5750505038610c33565b60208091610d09846129de565b815201910190610cec565b503461021b57602036600319011261021b5760043560035481101561094057610d3c90612558565b919091610d6757610d63610d4f83612435565b6040519182916020835260208301906121ec565b0390f35b634e487b7160e01b81526004819052602490fd5b503461021b57602036600319011261021b576004356001600160401b03811161094057610dac90369060040161217d565b81546040516395a8c58d60e01b81523360048201526000602482015290602090829060449082906001600160a01b03165afa8015610bb357610df49184916109085750612921565b60035460025460208301906001600160a01b031684805b848110610fb65750610e1c90612c1c565b938592865b858110610e365760405180610d638982612361565b610e48610e4282612558565b50612435565b604051636b2c133960e11b815260206004820152898180610e6c60248201866121ec565b0381895afa908115610921578a91610f9c575b50610ea76040516020818551610e988183858a016121c9565b81016004815203019020612bab565b9060c08101908151604051610edd60208281610ecc81830196878151938492016121c9565b81010301601f198101835282612141565b51902086604051610efd6020828c610ecc838301968792519283916121c9565b51902014610f12575b50505050600101610e21565b60209098949801519160208151910151916003831015610f8857610f7e94926001969492610f5e92519360405195610f49876120d5565b86526020860152604085015260608401612b9f565b6080820152610f6d828b612b2d565b52610f78818a612b2d565b50612b41565b9490388080610f06565b634e487b7160e01b8d52602160045260248dfd5b610fb091503d808c833e61085a8183612141565b38610e7f565b610fe887610fc6610e4284612558565b60405180938192636b2c133960e11b83526020600484015260248301906121ec565b0381875afa801561107a5760c0918991611060575b50015160405161101d60208281610ecc81830196878151938492016121c9565b519020604051602081019061103b6020828b51610ecc81878d6121c9565b5190201461104c575b600101610e0b565b90611058600191612b41565b919050611044565b61107491503d808b833e61085a8183612141565b38610ffd565b6040513d8a823e3d90fd5b503461021b578060031936011261021b57610d636110a1612cbb565b60405191829182612231565b503461021b578060031936011261021b576001546040516001600160a01b039091168152602090f35b503461021b57602036600319011261021b576004356001600160401b03811161094057602061110c61111f92369060040161217d565b81604051938285809451938492016121c9565b81016005815203019020805461113481612573565b906111426040519283612141565b80825260208201809385526020852085915b8383106111e057868587604051928392602084019060208552518091526040840160408260051b8601019392905b82821061119157505050500390f35b919360019193955060206111d08192603f198a8203018652885190836111c083516040845260408401906121ec565b92015190848184039101526121ec565b9601920192018594939192611182565b600260206001926040516111f3816120f0565b6111fc86612435565b8152611209858701612435565b83820152815201920192019190611154565b503461021b57604036600319011261021b576004356001600160401b0381116109405761124c90369060040161217d565b9061126960206024359381604051938285809451938492016121c9565b8101600581520301902090815483101561021b576112b761128a8484612526565b50610d636112a3600161129c84612435565b9301612435565b6040519384936040855260408501906121ec565b9083820360208501526121ec565b503461021b576113126112d7366124d9565b9190926112e2612c8f565b508060018060a01b036002541694604051809481926346abdd0560e11b83526020600484015260248301906121ec565b0381875afa918215611554578192611530575b5061132e612c8f565b938160405180926330804c3160e11b8252602060048301528180611355602482018a6121ec565b03915afa9081156108c75782916114f0575b509260405161138660208281610ecc81830196878151938492016121c9565b51902093815b83518110156113ea578560406113a28387612b2d565b5101516040516113c260208281610ecc81830196878151938492016121c9565b519020146113d3575b60010161138c565b905060016113e18285612b2d565b519190506113cb565b5081546040516395a8c58d60e01b8152336004820152600160248201528591602090829060449082906001600160a01b03165afa9081156102105793610d6392916114ab9582916114d1575b506114b9575b5060405193849360408552805161145281612211565b6040860152608061148a611475602084015160a060608a015260e08901906121ec565b6040840151888203603f1901848a01526121ec565b606083015160ff1660a0880152910151858203603f190160c08701526121ec565b9083820360208501526122fb565b60405191506114c9602083612141565b81528461143c565b6114ea915060203d602011610209576101fb8183612141565b86611436565b90503d8083833e6115018183612141565b81019060208183031261093c578051906001600160401b0382116108c35761152a929101612755565b38611367565b61154d9192503d8084833e6115458183612141565b8101906129ec565b9038611325565b50604051903d90823e3d90fd5b503461021b57602036600319011261021b57600435906001600160401b03821161021b576115fc61159a602061110c366004870161217d565b810160048152030190206115ad81612435565b9061162360ff60018301541660028301549260038101546004820154906115d660058401612435565b92600660018060a01b039101541695611607604051998a9960e08b5260e08b01906121ec565b9560208a0190612354565b60408801526060870152608086015284820360a08601526121ec565b9060c08301520390f35b503461021b578060031936011261021b5780546040516395a8c58d60e01b81523360048201526002602482015290602090829060449082906001600160a01b03165afa9081156108c7578291611858575b50156118275760035481825b8281106117d2575061169b90612c1c565b60025490919083906001600160a01b0316815b8381106116c35760405180610d638782612361565b6116cf610e4282612558565b6116e76040516020818451610e9881838589016121c9565b604051636b2c133960e11b81526020600482015288818061170b60248201876121ec565b0381885afa9081156117c75789916117ad575b5060208201805160038110156117995761173f575b505050506001016116ae565b6020829795970151925190519160038310156117995761178f9492600196949260c06117759301519360405195610f49876120d5565b60808201526117848289612b2d565b52610f788188612b2d565b9290388080611733565b634e487b7160e01b8b52602160045260248bfd5b6117c191503d808b833e61085a8183612141565b3861171e565b6040513d8b823e3d90fd5b60206117e7610e988261110c610e4286612558565b01516003811015611813576117ff575b60010161168a565b9061180b600191612b41565b9190506117f7565b634e487b7160e01b85526021600452602485fd5b60405162461bcd60e51b81526020600482015260096024820152684f6e6c792042504f4d60b81b6044820152606490fd5b611871915060203d602011610209576101fb8183612141565b3861167e565b503461021b57602036600319011261021b576004356001600160401b038111610940576118a890369060040161217d565b8160e06040516118b7816120a3565b606081526060602082015260606040820152606080820152606060808201528260a0820152606060c082015201526118ed612b66565b50600254604051636b2c133960e11b81526020600482015290839082906001600160a01b0316818061192260248201886121ec565b03915afa928315611ab6578093611a8f575b83611951610e9860208681604051938285809451938492016121c9565b9060405191829160408352611a056119db6119c56119af611999611983865161010060408b01526101408a01906121ec565b6020870151898203603f190160608b01526121ec565b6040860151888203603f190160808a01526122fb565b6060850151878203603f190160a08901526122fb565b6080840151868203603f190160c08801526121ec565b60a08301516119e981612211565b60e086015260c0830151858203603f19016101008701526121ec565b9060e060018060a01b0391015116610120840152828103602084015260c0611a7b611a39845160e0855260e08501906121ec565b611a4b60208601516020860190612354565b60408501516040850152606085015160608501526080850151608085015260a085015184820360a08601526121ec565b928101516001600160a01b03169101520390f35b611951929350611aae610e98926020923d8091833e61085a8183612141565b939250611934565b604051903d90823e3d90fd5b503461021b578060031936011261021b576002546040516001600160a01b039091168152602090f35b503461021b57602036600319011261021b576004356001600160401b03811161094057611b1c90369060040161217d565b81546040516395a8c58d60e01b81523360048201526000602482015290602090829060449082906001600160a01b03165afa8015610bb357611b649184916109085750612921565b8160405160208101835191611b8460208281880195610ecc8187896121c9565b5190209084926003549360018060a01b0360025416935b858210611cf9575050611bad9061298e565b93611bca60206040518093610ecc838301968792519283916121c9565b51902090849085935b808510611be85760405180610d638882612231565b9091929394611bf9610e4287612558565b92604051926346abdd0560e11b845260206004850152888480611c1f60248201896121ec565b0381855afa9384156117c7578994611cdd575b50835115611cce57885b8451811015611cbb57876080611c528388612b2d565b510151604051611c7260208281610ecc81830196878151938492016121c9565b51902014611c83575b600101611c3c565b95611cb3600191611c9e611c978a89612b2d565b5189612ef6565b611ca88288612b2d565b52610f788187612b2d565b969050611c7b565b50959493509150946001905b0193611bd3565b95949350915094600190611cc7565b611cf29194503d808b833e6115458183612141565b9238611c32565b9394611d3293929588611d10610e42859a95612558565b604051809781926346abdd0560e11b83526020600484015260248301906121ec565b0381845afa9485156117c7578995611dcc575b50845115611dbd57885b8551811015611daa57866080611d658389612b2d565b510151604051611d8560208281610ecc81830196878151938492016121c9565b51902014611d96575b600101611d4f565b96611da2600191612b41565b979050611d8e565b50949196600191969394505b0190611b9b565b94919660019196939450611db6565b611de19195503d808b833e6115458183612141565b9338611d45565b503461021b57608036600319011261021b576004356001600160401b03811161094057611e1990369060040161217d565b6024356001600160401b03811161093c57611e3890369060040161217d565b6044356001600160401b0381116108c357611e5790369060040161217d565b916064356001600160a01b038116810361093857611f17602060019260405190611e918860058851948681818c01976105ed81838b6121c9565b600660405184818951611ea58183896121c9565b810160048152030190200190858060a01b03166bffffffffffffffffffffffff60a01b825416179055611ee4866040518481895161065b8183896121c9565b60405160048651611ef68184866121c9565b820191818352848142940301902001556040518093819287519283916121c9565b8101600481520301902001600260ff1982541617905560018060a01b0360025416846040518092636b2c133960e11b8252602060048301528180611f5e60248201886121ec565b03915afa90811561207457859161205a575b50611fa7602060c08184015193015160405194611f8c866120f0565b855281850193845281604051938285809451938492016121c9565b81016005815203019020805490600160401b8210156108865790611fd091600182018155612526565b92909261204657926120127f40bd250f4e1cad69631af5d42189453e9c51f25278bd4232fe29ed01aa2f6ee49593600161203a946107bc612026985184612608565b6040519384936080855260808501906121ec565b9033602085015283820360408501526121ec565b4260608301520390a180f35b634e487b7160e01b86526004869052602486fd5b61206e91503d8087833e61085a8183612141565b38611f70565b6040513d87823e3d90fd5b90503461094057816003193601126109405790546001600160a01b03168152602090f35b61010081019081106001600160401b038211176120bf57604052565b634e487b7160e01b600052604160045260246000fd5b60a081019081106001600160401b038211176120bf57604052565b604081019081106001600160401b038211176120bf57604052565b60e081019081106001600160401b038211176120bf57604052565b60c081019081106001600160401b038211176120bf57604052565b90601f801991011681019081106001600160401b038211176120bf57604052565b6001600160401b0381116120bf57601f01601f191660200190565b81601f820112156121c45780359061219482612162565b926121a26040519485612141565b828452602083830101116121c457816000926020809301838601378301015290565b600080fd5b60005b8381106121dc5750506000910152565b81810151838201526020016121cc565b90602091612205815180928185528580860191016121c9565b601f01601f1916010190565b6002111561221b57565b634e487b7160e01b600052602160045260246000fd5b602081016020825282518091526040820191602060408360051b8301019401926000915b83831061226457505050505090565b90919293946020806122ec600193603f1986820301875289519060a06122bb6122a9612299855160c0865260c08601906121ec565b87860151858203898701526121ec565b604085015184820360408601526121ec565b9260ff606082015116606084015260808101516122d781612211565b608084015201519060a08184039101526121ec565b97019301930191939290612255565b9080602083519182815201916020808360051b8301019401926000915b83831061232757505050505090565b9091929394602080612345600193601f1986820301875289516121ec565b97019301930191939290612318565b90600382101561221b5752565b602081016020825282518091526040820191602060408360051b8301019401926000915b83831061239457505050505090565b90919293946020806123ec600193603f1986820301875289519060806123c96122a9612299855160a0865260a08601906121ec565b926123dc60608201516060850190612354565b01519060808184039101526121ec565b97019301930191939290612385565b90600182811c9216801561242b575b602083101461241557565b634e487b7160e01b600052602260045260246000fd5b91607f169161240a565b9060405191826000825492612449846123fb565b80845293600181169081156124b75750600114612470575b5061246e92500383612141565b565b90506000929192526020600020906000915b81831061249b57505090602061246e9282010138612461565b6020919350806001915483858901015201910190918492612482565b90506020925061246e94915060ff191682840152151560051b82010138612461565b9060406003198301126121c4576004356001600160401b0381116121c457826125049160040161217d565b91602435906001600160401b0382116121c4576125239160040161217d565b90565b80548210156125425760005260206000209060011b0190600090565b634e487b7160e01b600052603260045260246000fd5b60035481101561254257600360005260206000200190600090565b6001600160401b0381116120bf5760051b60200190565b9080601f830112156121c45781356125a181612573565b926125af6040519485612141565b81845260208085019260051b820101918383116121c45760208201905b8382106125db57505050505090565b81356001600160401b0381116121c4576020916125fd8784809488010161217d565b8152019101906125cc565b91909182516001600160401b0381116120bf5761262582546123fb565b601f81116126cb575b506020601f8211600114612669578192939460009261265e575b50508160011b916000199060031b1c1916179055565b015190503880612648565b601f1982169083600052806000209160005b8181106126b35750958360019596971061269a575b505050811b019055565b015160001960f88460031b161c19169055388080612690565b9192602060018192868b01518155019401920161267b565b826000526020600020601f830160051c81019160208410612709575b601f0160051c01905b8181106126fd575061262e565b600081556001016126f0565b90915081906126e7565b81601f820112156121c457805161272981612162565b926127376040519485612141565b818452602082840101116121c45761252391602080850191016121c9565b9080601f830112156121c457815161276c81612573565b9261277a6040519485612141565b81845260208085019260051b820101918383116121c45760208201905b8382106127a657505050505090565b81516001600160401b0381116121c4576020916127c887848094880101612713565b815201910190612797565b6020818303126121c4578051906001600160401b0382116121c4570190610100828203126121c45760405191612808836120a3565b80516001600160401b0381116121c45782612824918301612713565b835260208101516001600160401b0381116121c45782612845918301612713565b602084015260408101516001600160401b0381116121c45782612869918301612755565b604084015260608101516001600160401b0381116121c4578261288d918301612755565b606084015260808101516001600160401b0381116121c457826128b1918301612713565b608084015260a081015160028110156121c45760a084015260c08101516001600160401b0381116121c45760e0926128ea918301612713565b60c084015201516001600160a01b03811681036121c45760e082015290565b908160209103126121c4575180151581036121c45790565b1561292857565b60405162461bcd60e51b815260206004820152600c60248201526b4f6e6c7920466163746f727960a01b6044820152606490fd5b6040519061296982612126565b606060a083828152826020820152826040820152600083820152600060808201520152565b9061299882612573565b6129a56040519182612141565b82815280926129b6601f1991612573565b019060005b8281106129c757505050565b6020906129d261295c565b828285010152016129bb565b519060ff821682036121c457565b6020818303126121c4578051906001600160401b0382116121c457019080601f830112156121c457815191612a2083612573565b92612a2e6040519485612141565b80845260208085019160051b830101918383116121c45760208101915b838310612a5a57505050505090565b82516001600160401b0381116121c45782019060a0828703601f1901126121c45760405190612a88826120d5565b602083015160028110156121c457825260408301516001600160401b0381116121c457876020612aba92860101612713565b602083015260608301516001600160401b0381116121c457876020612ae192860101612713565b6040830152612af2608084016129de565b606083015260a0830151916001600160401b0383116121c457612b1d88602080969581960101612713565b6080820152815201920191612a4b565b80518210156125425760209160051b010190565b6000198114612b505760010190565b634e487b7160e01b600052601160045260246000fd5b60405190612b738261210b565b600060c08360608152826020820152826040820152826060820152826080820152606060a08201520152565b600382101561221b5752565b90604051612bb88161210b565b60c08193612bc581612435565b8352612bdb60ff60018301541660208501612b9f565b600281015460408401526003810154606084015260048101546080840152612c0560058201612435565b60a0840152600601546001600160a01b0316910152565b90612c2682612573565b612c336040519182612141565b8281528092612c44601f1991612573565b019060005b828110612c5557505050565b602090604051612c64816120d5565b6060815260608382015260606040820152600060608201526060608082015282828501015201612c49565b60405190612c9c826120d5565b6060608083600081528260208201528260408201526000838201520152565b6003546002546001600160a01b03166000805b838110612e2157508015612de457612ce89092919261298e565b906000906000935b818510612cff57505050905090565b612d0b610e4286612558565b91604051916346abdd0560e11b83526020600484015260008380612d3260248201886121ec565b0381845afa928315612dd857600093612dbd575b5060005b8351811015612dac57612d5d8185612b2d565b5151612d6881612211565b612d7181612211565b15612d7f575b600101612d4a565b94612da4600191612d9a612d938988612b2d565b5188612ef6565b610f6d828b612b2d565b959050612d77565b506001909601959092509050612cf0565b612dd191933d8091833e6115458183612141565b9138612d46565b6040513d6000823e3d90fd5b505060405190506000612df8602083612141565b81526000805b818110612e0a57505090565b602090612e1561295c565b82828601015201612dfe565b9291612e5891926000612e36610e4287612558565b604051809581926346abdd0560e11b83526020600484015260248301906121ec565b0381855afa928315612dd857600093612edb575b50825115612ecf5760005b8351811015612ec057612e8a8185612b2d565b5151612e9581612211565b612e9e81612211565b15612eac575b600101612e77565b93612eb8600191612b41565b949050612ea4565b50936001919392505b01612cce565b93600191939250612ec9565b612eef91933d8091833e6115458183612141565b9138612e6c565b90612eff61295c565b50602081015190604081015160ff606083015116906080835193612f2285612211565b01519360405195612f3287612126565b8652602086015260408501526060840152612f4c81612211565b608083015260a08201529056fea26469706673582212208ec06f0c7e04b77a305afaadccf9f00c512b932612de3db8b20eb8a16c32732864736f6c634300081b0033",
  "linkReferences": {},
  "deployedLinkReferences": {}
}