{
  "_format": "hh-sol-artifact-1",
  "contractName": "ObatTradisional",
  "sourceName": "contracts/ObatTradisional.sol",
  "abi": [
    {
      "inputs": [],
      "stateMutability": "nonpayable",
      "type": "constructor"
    },
    {
      "anonymous": false,
      "inputs": [
        {
          "indexed": false,
          "internalType": "string",
          "name": "nieNumber",
          "type": "string"
        },
        {
          "indexed": false,
          "internalType": "uint256",
          "name": "timestampApprove",
          "type": "uint256"
        },
        {
          "indexed": false,
          "internalType": "string",
          "name": "namaProduk",
          "type": "string"
        }
      ],
      "name": "evt_nieApproved",
      "type": "event"
    },
    {
      "anonymous": false,
      "inputs": [
        {
          "indexed": false,
          "internalType": "string",
          "name": "obatId",
          "type": "string"
        },
        {
          "indexed": false,
          "internalType": "uint256",
          "name": "timestampRequested",
          "type": "uint256"
        },
        {
          "indexed": false,
          "internalType": "string",
          "name": "namaProduk",
          "type": "string"
        }
      ],
      "name": "evt_nieRequested",
      "type": "event"
    },
    {
      "anonymous": false,
      "inputs": [
        {
          "indexed": false,
          "internalType": "string",
          "name": "namaProduk",
          "type": "string"
        },
        {
          "indexed": false,
          "internalType": "string",
          "name": "factoryInstanceNames",
          "type": "string"
        },
        {
          "indexed": false,
          "internalType": "string",
          "name": "factoryUserNames",
          "type": "string"
        },
        {
          "indexed": false,
          "internalType": "address",
          "name": "factoryAddresses",
          "type": "address"
        },
        {
          "indexed": false,
          "internalType": "string",
          "name": "kemasan",
          "type": "string"
        },
        {
          "indexed": false,
          "internalType": "enum ObatTradisional.en_tipeProduk",
          "name": "en_tipeProduk",
          "type": "uint8"
        }
      ],
      "name": "evt_obatCreated",
      "type": "event"
    },
    {
      "inputs": [
        {
          "internalType": "uint256",
          "name": "",
          "type": "uint256"
        }
      ],
      "name": "allObatData",
      "outputs": [
        {
          "internalType": "string",
          "name": "obatId",
          "type": "string"
        },
        {
          "internalType": "string",
          "name": "merk",
          "type": "string"
        },
        {
          "internalType": "string",
          "name": "namaProduk",
          "type": "string"
        },
        {
          "internalType": "string",
          "name": "kemasan",
          "type": "string"
        },
        {
          "internalType": "enum ObatTradisional.en_tipeProduk",
          "name": "tipeProduk",
          "type": "uint8"
        },
        {
          "internalType": "enum ObatTradisional.en_obatStatus",
          "name": "obatStatus",
          "type": "uint8"
        },
        {
          "internalType": "uint256",
          "name": "nieRequestDate",
          "type": "uint256"
        },
        {
          "internalType": "uint256",
          "name": "nieApprovalDate",
          "type": "uint256"
        },
        {
          "internalType": "string",
          "name": "nieNumber",
          "type": "string"
        }
      ],
      "stateMutability": "view",
      "type": "function"
    },
    {
      "inputs": [
        {
          "internalType": "string",
          "name": "_obatId",
          "type": "string"
        },
        {
          "internalType": "address",
          "name": "_bpomAddr",
          "type": "address"
        },
        {
          "internalType": "string",
          "name": "_bpomInstanceName",
          "type": "string"
        },
        {
          "internalType": "string",
          "name": "_bpomUserName",
          "type": "string"
        },
        {
          "internalType": "string",
          "name": "_nieNumber",
          "type": "string"
        }
      ],
      "name": "approveNie",
      "outputs": [],
      "stateMutability": "nonpayable",
      "type": "function"
    },
    {
      "inputs": [
        {
          "internalType": "string",
          "name": "",
          "type": "string"
        }
      ],
      "name": "bpomAddresses",
      "outputs": [
        {
          "internalType": "address",
          "name": "",
          "type": "address"
        }
      ],
      "stateMutability": "view",
      "type": "function"
    },
    {
      "inputs": [
        {
          "internalType": "string",
          "name": "",
          "type": "string"
        }
      ],
      "name": "bpomInstanceNames",
      "outputs": [
        {
          "internalType": "string",
          "name": "",
          "type": "string"
        }
      ],
      "stateMutability": "view",
      "type": "function"
    },
    {
      "inputs": [
        {
          "internalType": "string",
          "name": "",
          "type": "string"
        }
      ],
      "name": "bpomUserNames",
      "outputs": [
        {
          "internalType": "string",
          "name": "",
          "type": "string"
        }
      ],
      "stateMutability": "view",
      "type": "function"
    },
    {
      "inputs": [
        {
          "internalType": "string",
          "name": "_obatId",
          "type": "string"
        },
        {
          "internalType": "string",
          "name": "_merk",
          "type": "string"
        },
        {
          "internalType": "string",
          "name": "_namaProduk",
          "type": "string"
        },
        {
          "internalType": "string[]",
          "name": "_klaim",
          "type": "string[]"
        },
        {
          "internalType": "string",
          "name": "_kemasan",
          "type": "string"
        },
        {
          "internalType": "string[]",
          "name": "_komposisi",
          "type": "string[]"
        },
        {
          "internalType": "address",
          "name": "_factoryAddr",
          "type": "address"
        },
        {
          "internalType": "string",
          "name": "_factoryInstanceName",
          "type": "string"
        },
        {
          "internalType": "string",
          "name": "_factoryUserName",
          "type": "string"
        },
        {
          "internalType": "enum ObatTradisional.en_tipeProduk",
          "name": "_tipeProduk",
          "type": "uint8"
        }
      ],
      "name": "createObat",
      "outputs": [],
      "stateMutability": "nonpayable",
      "type": "function"
    },
    {
      "inputs": [
        {
          "internalType": "string",
          "name": "",
          "type": "string"
        }
      ],
      "name": "factoryAddresses",
      "outputs": [
        {
          "internalType": "address",
          "name": "",
          "type": "address"
        }
      ],
      "stateMutability": "view",
      "type": "function"
    },
    {
      "inputs": [
        {
          "internalType": "string",
          "name": "",
          "type": "string"
        }
      ],
      "name": "factoryInstanceNames",
      "outputs": [
        {
          "internalType": "string",
          "name": "",
          "type": "string"
        }
      ],
      "stateMutability": "view",
      "type": "function"
    },
    {
      "inputs": [
        {
          "internalType": "string",
          "name": "",
          "type": "string"
        }
      ],
      "name": "factoryUserNames",
      "outputs": [
        {
          "internalType": "string",
          "name": "",
          "type": "string"
        }
      ],
      "stateMutability": "view",
      "type": "function"
    },
    {
      "inputs": [],
      "name": "getListAllObat",
      "outputs": [
        {
          "internalType": "string[]",
          "name": "",
          "type": "string[]"
        },
        {
          "internalType": "string[]",
          "name": "",
          "type": "string[]"
        },
        {
          "internalType": "string[]",
          "name": "",
          "type": "string[]"
        },
        {
          "internalType": "uint8[]",
          "name": "",
          "type": "uint8[]"
        }
      ],
      "stateMutability": "view",
      "type": "function"
    },
    {
      "inputs": [
        {
          "internalType": "string",
          "name": "_factoryInstanceName",
          "type": "string"
        }
      ],
      "name": "getListObatByFactory",
      "outputs": [
        {
          "internalType": "string[]",
          "name": "",
          "type": "string[]"
        },
        {
          "internalType": "string[]",
          "name": "",
          "type": "string[]"
        },
        {
          "internalType": "uint8[]",
          "name": "",
          "type": "uint8[]"
        },
        {
          "internalType": "uint8[]",
          "name": "",
          "type": "uint8[]"
        }
      ],
      "stateMutability": "view",
      "type": "function"
    },
    {
      "inputs": [
        {
          "internalType": "string",
          "name": "_obatId",
          "type": "string"
        }
      ],
      "name": "getListObatById",
      "outputs": [
        {
          "components": [
            {
              "internalType": "string",
              "name": "obatId",
              "type": "string"
            },
            {
              "internalType": "string",
              "name": "merk",
              "type": "string"
            },
            {
              "internalType": "string",
              "name": "namaProduk",
              "type": "string"
            },
            {
              "internalType": "string[]",
              "name": "klaim",
              "type": "string[]"
            },
            {
              "internalType": "string",
              "name": "kemasan",
              "type": "string"
            },
            {
              "internalType": "string[]",
              "name": "komposisi",
              "type": "string[]"
            },
            {
              "internalType": "enum ObatTradisional.en_tipeProduk",
              "name": "tipeProduk",
              "type": "uint8"
            },
            {
              "internalType": "enum ObatTradisional.en_obatStatus",
              "name": "obatStatus",
              "type": "uint8"
            },
            {
              "internalType": "uint256",
              "name": "nieRequestDate",
              "type": "uint256"
            },
            {
              "internalType": "uint256",
              "name": "nieApprovalDate",
              "type": "uint256"
            },
            {
              "internalType": "string",
              "name": "nieNumber",
              "type": "string"
            }
          ],
          "internalType": "struct ObatTradisional.st_obatDetails",
          "name": "obatDetails",
          "type": "tuple"
        },
        {
          "internalType": "address",
          "name": "factoryAddress",
          "type": "address"
        },
        {
          "internalType": "string",
          "name": "factoryInstanceName",
          "type": "string"
        },
        {
          "internalType": "string",
          "name": "factoryUserName",
          "type": "string"
        },
        {
          "internalType": "address",
          "name": "bpomAddress",
          "type": "address"
        },
        {
          "internalType": "string",
          "name": "bpomInstanceName",
          "type": "string"
        },
        {
          "internalType": "string",
          "name": "bpomUserName",
          "type": "string"
        }
      ],
      "stateMutability": "view",
      "type": "function"
    },
    {
      "inputs": [
        {
          "internalType": "string",
          "name": "",
          "type": "string"
        }
      ],
      "name": "obatDetailsById",
      "outputs": [
        {
          "internalType": "string",
          "name": "obatId",
          "type": "string"
        },
        {
          "internalType": "string",
          "name": "merk",
          "type": "string"
        },
        {
          "internalType": "string",
          "name": "namaProduk",
          "type": "string"
        },
        {
          "internalType": "string",
          "name": "kemasan",
          "type": "string"
        },
        {
          "internalType": "enum ObatTradisional.en_tipeProduk",
          "name": "tipeProduk",
          "type": "uint8"
        },
        {
          "internalType": "enum ObatTradisional.en_obatStatus",
          "name": "obatStatus",
          "type": "uint8"
        },
        {
          "internalType": "uint256",
          "name": "nieRequestDate",
          "type": "uint256"
        },
        {
          "internalType": "uint256",
          "name": "nieApprovalDate",
          "type": "uint256"
        },
        {
          "internalType": "string",
          "name": "nieNumber",
          "type": "string"
        }
      ],
      "stateMutability": "view",
      "type": "function"
    },
    {
      "inputs": [],
      "name": "owner",
      "outputs": [
        {
          "internalType": "address",
          "name": "",
          "type": "address"
        }
      ],
      "stateMutability": "view",
      "type": "function"
    },
    {
      "inputs": [
        {
          "internalType": "string",
          "name": "_obatId",
          "type": "string"
        }
      ],
      "name": "requestNie",
      "outputs": [],
      "stateMutability": "nonpayable",
      "type": "function"
    },
    {
      "inputs": [
        {
          "internalType": "address",
          "name": "",
          "type": "address"
        }
      ],
      "name": "userRoles",
      "outputs": [
        {
          "internalType": "enum ObatTradisional.en_roles",
          "name": "",
          "type": "uint8"
        }
      ],
      "stateMutability": "view",
      "type": "function"
    }
  ],
  "bytecode": "0x60808060405234602757600080546001600160a01b031916331790556127e4908161002d8239f35b600080fdfe6080604052600436101561001257600080fd5b60003560e01c80631c0b2030146118a05780631dce6e581461166357806325606bc31461120157806327321837146111b0578063349a7a721461115c5780634b87568a146110f457806374d5e100146110aa5780637aad01bd14610fdb5780637ade51dd14610a5f5780638da5cb5b14610a365780639d4edfe1146108c05780639d9315c21461086c578063a812536d14610818578063bc4a6f6c146106dc578063d9d284dc146101575763f1022862146100cc57600080fd5b34610152576020366003190112610152576004356001600160401b0381116101525761013361013a61011d602061010a61014e953690600401611945565b816040519382858094519384920161199b565b8101600681520301902060405192838092611ac7565b0382611924565b6040519182916020835260208301906119be565b0390f35b600080fd5b3461015257610140366003190112610152576004356001600160401b03811161015257610188903690600401611945565b6024356001600160401b038111610152576101a7903690600401611945565b6044356001600160401b038111610152576101c6903690600401611945565b916064356001600160401b038111610152576101e6903690600401611c10565b916084356001600160401b03811161015257610206903690600401611945565b9060a4356001600160401b03811161015257610226903690600401611c10565b9060c4359360018060a01b0385168095036101525760e4356001600160401b0381116101525761025a903690600401611945565b90610104356001600160401b0381116101525761027b903690600401611945565b93610124359760028910156101525733600052600260205260ff6040600020541660048110156106c6576102af9015611e5d565b604051946102bc86611908565b8386526020860152896040860152606085015285608085015260a08401526102e78760c08501611e11565b600060e08401526000610100840152600061012084015260209260405161030e8582611924565b60008152610140820152604051906103438184519387818188019661033481838a61199b565b81016003815203019020611eb3565b600154600160401b8110156105f8578060016103629201600155611bc4565b9190916106b05761037291611eb3565b6040518481845161038481838761199b565b81016007815203019020876bffffffffffffffffffffffff60a01b825416179055604051848184516103b781838761199b565b81016008815203019020908351926001600160401b0384116105f857826103df879454611a8d565b601f8111610680575b508394601f8111600114610619578061041b9161042f9760009161060e575b508160011b916000199060031b1c19161790565b90555b60405193849283925192839161199b565b8101600981520301902083516001600160401b0381116105f8576104538254611a8d565b601f81116105bd575b5083601f821160011461052257946104e6610507957f634ef467423c7b2abbaf26097bdddac4a495d36be69ca3d1555484b46e7899c79b99956104d99b99956104c2866104f4976105129c60009161051757508160011b916000199060031b1c19161790565b90555b6040519b8c9b60c08d5260c08d01906119be565b918b8303908c01526119be565b9088820360408a01526119be565b91606087015285820360808701526119be565b9160a0840190611a73565b0390a1005b905087015138610407565b601f1982169083600052856000209160005b8181106105a65750957f634ef467423c7b2abbaf26097bdddac4a495d36be69ca3d1555484b46e7899c79b99956104d99b99956001866105129b966104e6966104f4996105079d1061058d575b5050811b0190556104c5565b88015160001960f88460031b161c191690553880610581565b91928760018192868c015181550194019201610534565b6105e8908360005285600020601f840160051c8101918785106105ee575b601f0160051c0190611e1d565b8961045c565b90915081906105db565b634e487b7160e01b600052604160045260246000fd5b90508801518f610407565b601f1981169582600052856000209660005b818110610668575096829160019361042f991061064f575b5050811b01905561041e565b89015160001960f88460031b161c191690558e80610643565b828a015189556001909801978a97928301920161062b565b6106aa908260005285600020601f880160051c8101918789106105ee57601f0160051c0190611e1d565b8c6103e8565b634e487b7160e01b600052600060045260246000fd5b634e487b7160e01b600052602160045260246000fd5b34610152576020366003190112610152576004356001600160401b0381116101525761070c903690600401611945565b33600052600260205260ff6040600020541660048110156106c6576107319015611e5d565b6040516020818351610746818385880161199b565b8101600381520301902090600682019160ff835460081c1660038110156106c6576107b6576105126002927f854681db4b5190ceaacfe5894893f2e8d49873d9b8ed6c72b5618047cb3924e59442600785015561010061ff00198254161790556040519384930190429084611e34565b60405162461bcd60e51b815260206004820152603460248201527f4f62617420547261646973696f6e616c20737461747573206d75737420626520604482015273696e206c6f63616c2070726f64756374696f6e2160601b6064820152608490fd5b34610152576020366003190112610152576004356001600160401b0381116101525761013361013a610856602061010a61014e953690600401611945565b8101600881520301902060405192838092611ac7565b34610152576020366003190112610152576004356001600160401b0381116101525761013361013a6108aa602061010a61014e953690600401611945565b8101600581520301902060405192838092611ac7565b34610152576000366003190112610152576001546108dd81611d6b565b6108e682611d21565b916108f081611d21565b6108f982611d21565b9160005b818110610952576109288661014e8761094488610936896040519788976080895260808901906119e3565b9087820360208901526119e3565b9085820360408701526119e3565b908382036060850152611a3c565b60ff600661095f83611bc4565b50015460081c169060038210156106c65760019161097d8288611d9d565b5261013361099a61098d83611bc4565b5060405192838092611ac7565b6109a48289611d9d565b526109af8188611d9d565b5060026109cf6109be83611bc4565b506101336040518094819301611ac7565b6109d98286611d9d565b526109e48185611d9d565b50610133610a1a610a0660206109f985611bc4565b5060405192838092611c8e565b600881520301902060405192838092611ac7565b610a248287611d9d565b52610a2f8186611d9d565b50016108fd565b34610152576000366003190112610152576000546040516001600160a01b039091168152602090f35b346101525760a0366003190112610152576004356001600160401b03811161015257610a8f903690600401611945565b6024356001600160a01b0381168103610152576044356001600160401b03811161015257610ac1903690600401611945565b916064356001600160401b03811161015257610ae1903690600401611945565b926084356001600160401b03811161015257610b01903690600401611945565b9133600052600260205260ff6040600020541660048110156106c657600203610f96576040519181519260208181850195610b3d81838961199b565b81016003815203019020946006860160ff815460081c1660038110156106c657600103610f3e5742600888015561020061ff00198254161790556009860185516001600160401b0381116105f857610b958254611a8d565b601f8111610f0c575b506020601f8211600114610ea6579080610bcd92600091610e9b57508160011b916000199060031b1c19161790565b90555b6040516020818551610be381838a61199b565b810160048152030190209060018060a01b03166bffffffffffffffffffffffff60a01b8254161790556040516020818451610c1f81838961199b565b81016005815203019020908051906001600160401b0382116105f857610c458354611a8d565b601f8111610e69575b50602090601f8311600114610dfa578260209593610c8997959361041b93600092610def575b50508160011b916000199060031b1c19161790565b8101600681520301902083516001600160401b0381116105f857610cad8254611a8d565b601f8111610dbd575b506020601f8211600114610d2e5791610d10826002969593610512957fd40bb83004f253a064fc3f847543dfacdf7bcf19bffefb66451b4fa5852a42f499600092610d235750508160011b916000199060031b1c19161790565b90555b6040519384930190429084611e34565b015190508980610c74565b601f1982169583600052816000209660005b818110610da55750927fd40bb83004f253a064fc3f847543dfacdf7bcf19bffefb66451b4fa5852a42f49761051295936001938360029a999710610d8c575b505050811b019055610d13565b015160001960f88460031b161c19169055888080610d7f565b83830151895560019098019760209384019301610d40565b610de990836000526020600020601f840160051c810191602085106105ee57601f0160051c0190611e1d565b85610cb6565b015190508b80610c74565b90601f1983169184600052816000209260005b818110610e51575092600192859260209896610c899a989610610e38575b505050811b01905561041e565b015160001960f88460031b161c191690558a8080610e2b565b92936020600181928786015181550195019301610e0d565b610e9590846000526020600020601f850160051c810191602086106105ee57601f0160051c0190611e1d565b88610c4e565b90508801518b610407565b601f1982169083600052806000209160005b8a828210610ef45750509083600194939210610edb575b5050811b019055610bd0565b89015160001960f88460031b161c191690558a80610ecf565b60018495602093958493015181550194019201610eb8565b610f3890836000526020600020601f840160051c810191602085106105ee57601f0160051c0190611e1d565b89610b9e565b60405162461bcd60e51b815260206004820152602a60248201527f4f62617420547261646973696f6e616c20737461747573206d757374206265206044820152697265717565737465642160b01b6064820152608490fd5b60405162461bcd60e51b815260206004820152601e60248201527f416363657373207265737472696374656420746f2042504f4d20726f6c6500006044820152606490fd5b34610152576020366003190112610152576004356001548110156101525761100290611bc4565b506040519061101c826110158184611ac7565b0383611924565b61014e60096040519261103d846110368160018501611ac7565b0385611924565b60405194611059866110528160028601611ac7565b0387611924565b6040519061106e826110158160048701611ac7565b6006830154906007840154926110936008860154956110526040518099819301611ac7565b60405198899860ff808660081c169516938a611b4a565b34610152576020366003190112610152576004356001600160a01b0381169081900361015257600052600260205260ff6040600020541660405160048210156106c6576020918152f35b34610152576020366003190112610152576004356001600160401b038111610152576111266020913690600401611945565b8161113a604051928381519384920161199b565b600790820190815281900382019020546040516001600160a01b039091168152f35b34610152576020366003190112610152576004356001600160401b0381116101525761013361013a61119a602061010a61014e953690600401611945565b8101600981520301902060405192838092611ac7565b34610152576020366003190112610152576004356001600160401b03811161015257602061010a6111e5923690600401611945565b810160038152030190206040519061101c826110158184611ac7565b34610152576020366003190112610152576004356001600160401b03811161015257611231903690600401611945565b606061014060405161124281611908565b82815282602082015282604082015282808201528260808201528260a0820152600060c0820152600060e08201526000610100820152600061012082015201526040516112ad8251916020818186019461129d81838861199b565b8101600381520301902054611a8d565b1561161e5760405160208184516112c581838761199b565b81016003815203019020604051916112dc83611908565b6040516112ed816101338186611ac7565b8352604051611303816101338160018701611ac7565b602084015260405161131c816101338160028701611ac7565b604084015261132d60038301611db1565b6060840152604051611346816101338160048701611ac7565b608084015261135760058301611db1565b60a084015260ff600683015461137282821660c08701611e11565b60081c169160038310156106c657610140946114be6115fd6114646115ef6114db9660096113ce6116109861014e9b60e08e01528c61010060078301549101528c61012060088301549101526101336040518094819301611ac7565b8b8b01526114316114e26114c560206040518a516113ed81838961199b565b81019060078252828160018060a01b0393030190205416946114388b8360405180925161141b81838861199b565b8101600881520301902060405196878092611ac7565b0386611924565b61146b8b8360405180925161144e81838861199b565b81016009815203019020604051998a8092611ac7565b0389611924565b6040518b5161147b81838561199b565b81019060048252838160018060a01b03930301902054169a61041e604051848184516114a881838961199b565b810160058152030190206040519c8d8092611ac7565b038c611924565b810160068152030190206040519a8b8092611ac7565b038a611924565b6115dc604051809d819d60e0835261158861157161155a61154561152e611517865161016060e08b01526102408a01906119be565b602087015189820360df19016101008b01526119be565b604086015188820360df19016101208a01526119be565b606085015187820360df1901878901526119e3565b608084015186820360df19016101608801526119be565b60a083015185820360df19016101808701526119e3565b9261159c60c08301516101a0830190611a73565b6115af60e08301516101c0830190611a80565b6101008201516101e08201526101208201516102009091015201518d820360df19016102208f01526119be565b9160208c01528a820360408c01526119be565b9088820360608a01526119be565b91608087015285820360a08701526119be565b9083820360c08501526119be565b60405162461bcd60e51b815260206004820152601b60248201527f4e6f206461746120666f756e64207769746820746869732049442e00000000006044820152606490fd5b34610152576020366003190112610152576004356001600160401b03811161015257611693903690600401611945565b60015460208201916000805b83811061183057506116b081611d21565b926116ba82611d21565b906116cd6116c784611d6b565b93611d6b565b93600096875b83811061170c576109288861014e896109448a6116fe8b6040519788976080895260808901906119e3565b908582036040870152611a3c565b61171a60206109f983611bc4565b600881520301902060405161174581611737602082018095611c8e565b03601f198101835282611924565b5190206040516020810190611774602082885161176381878b61199b565b81010301601f198101835282611924565b51902014611785575b6001016116d3565b9761013361179561098d8b611bc4565b61179f828a611d9d565b526117aa8189611d9d565b5060026117b96109be8b611bc4565b6117c38287611d9d565b526117ce8186611d9d565b5060ff60066117dc8b611bc4565b50015460081c1660038110156106c6576117f68288611d9d565b5260ff60066118048b611bc4565b5001541660028110156106c65781611828916118226001948b611d9d565b52611cfc565b98905061177d565b61183e60206109f983611bc4565b600881520301902060405161185b81611737602082018095611c8e565b519020604051602081019061187b602082846117638c8b5192839161199b565b5190201461188c575b60010161169f565b90611898600191611cfc565b919050611884565b34610152576020366003190112610152576004356001600160401b038111610152576118d26020913690600401611945565b816118e6604051928381519384920161199b565b600490820190815281900382019020546040516001600160a01b039091168152f35b61016081019081106001600160401b038211176105f857604052565b90601f801991011681019081106001600160401b038211176105f857604052565b81601f82011215610152578035906001600160401b0382116105f85760405192611979601f8401601f191660200185611924565b8284526020838301011161015257816000926020809301838601378301015290565b60005b8381106119ae5750506000910152565b818101518382015260200161199e565b906020916119d78151809281855285808601910161199b565b601f01601f1916010190565b9080602083519182815201916020808360051b8301019401926000915b838310611a0f57505050505090565b9091929394602080611a2d600193601f1986820301875289516119be565b97019301930191939290611a00565b906020808351928381520192019060005b818110611a5a5750505090565b825160ff16845260209384019390920191600101611a4d565b9060028210156106c65752565b9060038210156106c65752565b90600182811c92168015611abd575b6020831014611aa757565b634e487b7160e01b600052602260045260246000fd5b91607f1691611a9c565b60009291815491611ad783611a8d565b8083529260018116908115611b2d5750600114611af357505050565b60009081526020812093945091925b838310611b13575060209250010190565b600181602092949394548385870101520191019190611b02565b915050602093945060ff929192191683830152151560051b010190565b9591611bc19997946115ef611ba995611b86611b9494611b78611b9f979b9e9b6101208e81815201906119be565b8c810360208e0152906119be565b908a820360408c01526119be565b976080870190611a73565b60a0850190611a80565b60c083015260e08201526101008184039101526119be565b90565b600154811015611be3576001600052600a602060002091020190600090565b634e487b7160e01b600052603260045260246000fd5b6001600160401b0381116105f85760051b60200190565b9080601f83011215610152578135611c2781611bf9565b92611c356040519485611924565b81845260208085019260051b820101918383116101525760208201905b838210611c6157505050505090565b81356001600160401b03811161015257602091611c8387848094880101611945565b815201910190611c52565b60009291815491611c9e83611a8d565b9260018116908115611ce95750600114611cb757505050565b909192935060005260206000206000905b838210611cd55750500190565b600181602092548486015201910190611cc8565b60ff191683525050811515909102019150565b6000198114611d0b5760010190565b634e487b7160e01b600052601160045260246000fd5b90611d2b82611bf9565b611d386040519182611924565b8281528092611d49601f1991611bf9565b019060005b828110611d5a57505050565b806060602080938501015201611d4e565b90611d7582611bf9565b611d826040519182611924565b8281528092611d93601f1991611bf9565b0190602036910137565b8051821015611be35760209160051b010190565b908154611dbd81611bf9565b92611dcb6040519485611924565b818452602084019060005260206000206000915b838310611dec5750505050565b600160208192604051611e03816101338189611ac7565b815201920192019190611ddf565b60028210156106c65752565b818110611e28575050565b60008155600101611e1d565b611e4a611bc194926060835260608301906119be565b9260208201526040818403910152611ac7565b15611e6457565b60405162461bcd60e51b815260206004820152602160248201527f416363657373207265737472696374656420746f20466163746f727920726f6c6044820152606560f81b6064820152608490fd5b909182519283516001600160401b0381116105f857611ed28454611a8d565b601f811161277c575b50602094601f821160011461271757611f0f9293949582916000926121755750508160011b916000199060031b1c19161790565b83555b6001830160208201518051906001600160401b0382116105f857611f368354611a8d565b601f81116126e5575b50602090601f831160011461267e57611f709291600091836121755750508160011b916000199060031b1c19161790565b90555b6002830160408201518051906001600160401b0382116105f857611f978354611a8d565b601f811161264c575b50602090601f83116001146125e557611fd19291600091836121755750508160011b916000199060031b1c19161790565b90555b600383016060820151805190600160401b82116105f8578254828455808310612567575b50602001916000526020600020916000905b82821061245a57505050506004830160808201518051906001600160401b0382116105f8576120398354611a8d565b601f8111612428575b50602090601f83116001146123c1576120739291600091836121755750508160011b916000199060031b1c19161790565b90555b6005830160a0820151805190600160401b82116105f8578254828455808310612343575b50602001916000526020600020916000905b828210612236575050505060c0810151926006810160028510156106c65760009460ff8019835416911617815560e0830151600381101561222257916009916101409361ff0082549160081b169061ff0019161790556101008401516007820155610120840151600882015501910151928351906001600160401b03821161220e576121388354611a8d565b601f81116121de575b50602090601f83116001146121805790612171939495836121755750508160011b916000199060031b1c19161790565b9055565b015190503880610c74565b90601f198316848352818320925b8181106121c6575095836001959697106121ad575b505050811b019055565b015160001960f88460031b161c191690553880806121a3565b9192602060018192868b01518155019401920161218e565b6122089084835260208320601f850160051c810191602086106105ee57601f0160051c0190611e1d565b38612141565b634e487b7160e01b81526041600452602490fd5b634e487b7160e01b86526021600452602486fd5b80518051906001600160401b0382116105f8576122538654611a8d565b601f8111612311575b50602090601f83116001146122a45792612295836001959460209487966000926121755750508160011b916000199060031b1c19161790565b87555b019401910190926120ac565b90601f1983169187600052816000209260005b8181106122f957509360209360019693879693838895106122e0575b505050811b018755612298565b015160001960f88460031b161c191690553880806122d3565b929360206001819287860151815501950193016122b7565b61233d90876000526020600020601f850160051c810191602086106105ee57601f0160051c0190611e1d565b3861225c565b8360005282602060002091820191015b818110612360575061209a565b8061236d60019254611a8d565b8061237a575b5001612353565b601f811183146123905750600081555b38612373565b6123ae908260005283601f6020600020920160051c82019101611e1d565b806000526000602081208183555561238a565b90601f1983169184600052816000209260005b81811061241057509084600195949392106123f7575b505050811b019055612076565b015160001960f88460031b161c191690553880806123ea565b929360206001819287860151815501950193016123d4565b61245490846000526020600020601f850160051c810191602086106105ee57601f0160051c0190611e1d565b38612042565b80518051906001600160401b0382116105f8576124778654611a8d565b601f8111612535575b50602090601f83116001146124c857926124b9836001959460209487966000926121755750508160011b916000199060031b1c19161790565b87555b0194019101909261200a565b90601f1983169187600052816000209260005b81811061251d5750936020936001969387969383889510612504575b505050811b0187556124bc565b015160001960f88460031b161c191690553880806124f7565b929360206001819287860151815501950193016124db565b61256190876000526020600020601f850160051c810191602086106105ee57601f0160051c0190611e1d565b38612480565b8360005282602060002091820191015b8181106125845750611ff8565b8061259160019254611a8d565b8061259e575b5001612577565b601f811183146125b45750600081555b38612597565b6125d2908260005283601f6020600020920160051c82019101611e1d565b80600052600060208120818355556125ae565b90601f1983169184600052816000209260005b818110612634575090846001959493921061261b575b505050811b019055611fd4565b015160001960f88460031b161c1916905538808061260e565b929360206001819287860151815501950193016125f8565b61267890846000526020600020601f850160051c810191602086106105ee57601f0160051c0190611e1d565b38611fa0565b90601f1983169184600052816000209260005b8181106126cd57509084600195949392106126b4575b505050811b019055611f73565b015160001960f88460031b161c191690553880806126a7565b92936020600181928786015181550195019301612691565b61271190846000526020600020601f850160051c810191602086106105ee57601f0160051c0190611e1d565b38611f3f565b601f1982169585600052806000209160005b8881106127645750836001959697981061274b575b505050811b018355611f12565b015160001960f88460031b161c1916905538808061273e565b91926020600181928685015181550194019201612729565b6127a890856000526020600020601f840160051c810191602085106105ee57601f0160051c0190611e1d565b38611edb56fea2646970667358221220fdc74311c17f6e375905f30d6db079b6ff6fe5bac2d163d7d6f8df897ab86a4364736f6c634300081b0033",
  "linkReferences": {},
  "deployedLinkReferences": {}
}