{
  "_format": "hh-sol-artifact-1",
  "contractName": "ObatTradisional",
  "sourceName": "contracts/ObatTradisional.sol",
  "abi": [
    {
      "inputs": [
        {
          "internalType": "address",
          "name": "_roleManagerAddr",
          "type": "address"
        },
        {
          "internalType": "address",
          "name": "_mainSupplyChainAddr",
          "type": "address"
        }
      ],
      "stateMutability": "nonpayable",
      "type": "constructor"
    },
    {
      "anonymous": false,
      "inputs": [
        {
          "indexed": false,
          "internalType": "string",
          "name": "nieNumber",
          "type": "string"
        },
        {
          "indexed": false,
          "internalType": "string",
          "name": "namaProduk",
          "type": "string"
        }
      ],
      "name": "evt_nieApproved",
      "type": "event"
    },
    {
      "anonymous": false,
      "inputs": [
        {
          "indexed": false,
          "internalType": "string",
          "name": "obatId",
          "type": "string"
        },
        {
          "indexed": false,
          "internalType": "uint256",
          "name": "timestampRequested",
          "type": "uint256"
        },
        {
          "indexed": false,
          "internalType": "string",
          "name": "namaProduk",
          "type": "string"
        }
      ],
      "name": "evt_nieRequested",
      "type": "event"
    },
    {
      "anonymous": false,
      "inputs": [
        {
          "indexed": false,
          "internalType": "string",
          "name": "namaProduk",
          "type": "string"
        },
        {
          "indexed": false,
          "internalType": "string",
          "name": "factoryInstanceNames",
          "type": "string"
        },
        {
          "indexed": false,
          "internalType": "string",
          "name": "factoryUserNames",
          "type": "string"
        },
        {
          "indexed": false,
          "internalType": "address",
          "name": "factoryAddresses",
          "type": "address"
        },
        {
          "indexed": false,
          "internalType": "string",
          "name": "kemasan",
          "type": "string"
        },
        {
          "indexed": false,
          "internalType": "enum ObatTradisional.en_tipeProduk",
          "name": "en_tipeProduk",
          "type": "uint8"
        }
      ],
      "name": "evt_obatCreated",
      "type": "event"
    },
    {
      "anonymous": false,
      "inputs": [
        {
          "indexed": false,
          "internalType": "string",
          "name": "namaProduk",
          "type": "string"
        },
        {
          "indexed": false,
          "internalType": "uint8",
          "name": "quantity",
          "type": "uint8"
        },
        {
          "indexed": false,
          "internalType": "string",
          "name": "orderId",
          "type": "string"
        },
        {
          "indexed": false,
          "internalType": "string",
          "name": "instanceName",
          "type": "string"
        },
        {
          "indexed": false,
          "internalType": "address",
          "name": "instanceAddress",
          "type": "address"
        },
        {
          "indexed": false,
          "internalType": "uint256",
          "name": "latestTimestamp",
          "type": "uint256"
        }
      ],
      "name": "evt_obatOrdered",
      "type": "event"
    },
    {
      "anonymous": false,
      "inputs": [
        {
          "indexed": false,
          "internalType": "string",
          "name": "namaProduk",
          "type": "string"
        },
        {
          "indexed": false,
          "internalType": "uint8",
          "name": "quantity",
          "type": "uint8"
        },
        {
          "indexed": false,
          "internalType": "string",
          "name": "obatId",
          "type": "string"
        }
      ],
      "name": "evt_obatProduced",
      "type": "event"
    },
    {
      "inputs": [
        {
          "internalType": "uint256",
          "name": "",
          "type": "uint256"
        }
      ],
      "name": "allObatData",
      "outputs": [
        {
          "internalType": "string",
          "name": "obatId",
          "type": "string"
        },
        {
          "internalType": "string",
          "name": "merk",
          "type": "string"
        },
        {
          "internalType": "string",
          "name": "namaProduk",
          "type": "string"
        },
        {
          "internalType": "string",
          "name": "kemasan",
          "type": "string"
        },
        {
          "internalType": "enum ObatTradisional.en_tipeProduk",
          "name": "tipeProduk",
          "type": "uint8"
        },
        {
          "internalType": "enum ObatTradisional.en_nieStatus",
          "name": "obatStatus",
          "type": "uint8"
        },
        {
          "internalType": "uint256",
          "name": "nieRequestDate",
          "type": "uint256"
        },
        {
          "internalType": "uint256",
          "name": "nieApprovalDate",
          "type": "uint256"
        },
        {
          "internalType": "string",
          "name": "nieNumber",
          "type": "string"
        }
      ],
      "stateMutability": "view",
      "type": "function"
    },
    {
      "inputs": [
        {
          "internalType": "uint256",
          "name": "",
          "type": "uint256"
        }
      ],
      "name": "allOrderedObat",
      "outputs": [
        {
          "internalType": "string",
          "name": "orderId",
          "type": "string"
        },
        {
          "internalType": "string",
          "name": "namaProduk",
          "type": "string"
        },
        {
          "internalType": "string",
          "name": "obatIdProduk",
          "type": "string"
        },
        {
          "internalType": "uint8",
          "name": "orderQuantity",
          "type": "uint8"
        },
        {
          "internalType": "string",
          "name": "instanceName",
          "type": "string"
        },
        {
          "internalType": "address",
          "name": "instanceAddr",
          "type": "address"
        },
        {
          "internalType": "enum ObatTradisional.en_orderStatus",
          "name": "orderStatus",
          "type": "uint8"
        },
        {
          "internalType": "uint256",
          "name": "latestTimestamp",
          "type": "uint256"
        }
      ],
      "stateMutability": "view",
      "type": "function"
    },
    {
      "inputs": [
        {
          "internalType": "uint256",
          "name": "",
          "type": "uint256"
        }
      ],
      "name": "allProducedObat",
      "outputs": [
        {
          "internalType": "string",
          "name": "obatId",
          "type": "string"
        },
        {
          "internalType": "string",
          "name": "namaProduk",
          "type": "string"
        },
        {
          "internalType": "uint8",
          "name": "obatQuantity",
          "type": "uint8"
        },
        {
          "internalType": "string",
          "name": "factoryInstanceNames",
          "type": "string"
        }
      ],
      "stateMutability": "view",
      "type": "function"
    },
    {
      "inputs": [
        {
          "internalType": "string",
          "name": "_obatId",
          "type": "string"
        },
        {
          "internalType": "address",
          "name": "_bpomAddr",
          "type": "address"
        },
        {
          "internalType": "string",
          "name": "_bpomInstanceName",
          "type": "string"
        },
        {
          "internalType": "string",
          "name": "_bpomUserName",
          "type": "string"
        },
        {
          "internalType": "string",
          "name": "_nieNumber",
          "type": "string"
        }
      ],
      "name": "approveNie",
      "outputs": [],
      "stateMutability": "nonpayable",
      "type": "function"
    },
    {
      "inputs": [
        {
          "internalType": "string",
          "name": "",
          "type": "string"
        }
      ],
      "name": "bpomAddresses",
      "outputs": [
        {
          "internalType": "address",
          "name": "",
          "type": "address"
        }
      ],
      "stateMutability": "view",
      "type": "function"
    },
    {
      "inputs": [
        {
          "internalType": "string",
          "name": "",
          "type": "string"
        }
      ],
      "name": "bpomInstanceNames",
      "outputs": [
        {
          "internalType": "string",
          "name": "",
          "type": "string"
        }
      ],
      "stateMutability": "view",
      "type": "function"
    },
    {
      "inputs": [
        {
          "internalType": "string",
          "name": "",
          "type": "string"
        }
      ],
      "name": "bpomUserNames",
      "outputs": [
        {
          "internalType": "string",
          "name": "",
          "type": "string"
        }
      ],
      "stateMutability": "view",
      "type": "function"
    },
    {
      "inputs": [
        {
          "internalType": "string",
          "name": "_obatId",
          "type": "string"
        },
        {
          "internalType": "string",
          "name": "_merk",
          "type": "string"
        },
        {
          "internalType": "string",
          "name": "_namaProduk",
          "type": "string"
        },
        {
          "internalType": "string[]",
          "name": "_klaim",
          "type": "string[]"
        },
        {
          "internalType": "string",
          "name": "_kemasan",
          "type": "string"
        },
        {
          "internalType": "string[]",
          "name": "_komposisi",
          "type": "string[]"
        },
        {
          "internalType": "address",
          "name": "_factoryAddr",
          "type": "address"
        },
        {
          "internalType": "string",
          "name": "_factoryInstanceName",
          "type": "string"
        },
        {
          "internalType": "string",
          "name": "_factoryUserName",
          "type": "string"
        },
        {
          "internalType": "enum ObatTradisional.en_tipeProduk",
          "name": "_tipeProduk",
          "type": "uint8"
        }
      ],
      "name": "createObat",
      "outputs": [],
      "stateMutability": "nonpayable",
      "type": "function"
    },
    {
      "inputs": [
        {
          "internalType": "string",
          "name": "",
          "type": "string"
        }
      ],
      "name": "factoryAddresses",
      "outputs": [
        {
          "internalType": "address",
          "name": "",
          "type": "address"
        }
      ],
      "stateMutability": "view",
      "type": "function"
    },
    {
      "inputs": [
        {
          "internalType": "string",
          "name": "",
          "type": "string"
        }
      ],
      "name": "factoryInstanceNames",
      "outputs": [
        {
          "internalType": "string",
          "name": "",
          "type": "string"
        }
      ],
      "stateMutability": "view",
      "type": "function"
    },
    {
      "inputs": [
        {
          "internalType": "string",
          "name": "",
          "type": "string"
        }
      ],
      "name": "factoryUserNames",
      "outputs": [
        {
          "internalType": "string",
          "name": "",
          "type": "string"
        }
      ],
      "stateMutability": "view",
      "type": "function"
    },
    {
      "inputs": [],
      "name": "getAllProducedObat",
      "outputs": [
        {
          "components": [
            {
              "internalType": "string",
              "name": "obatId",
              "type": "string"
            },
            {
              "internalType": "string",
              "name": "namaProduk",
              "type": "string"
            },
            {
              "internalType": "uint8",
              "name": "obatQuantity",
              "type": "uint8"
            },
            {
              "internalType": "string",
              "name": "factoryInstanceNames",
              "type": "string"
            },
            {
              "internalType": "string[]",
              "name": "obatIpfsHash",
              "type": "string[]"
            }
          ],
          "internalType": "struct ObatTradisional.st_obatProduction[]",
          "name": "",
          "type": "tuple[]"
        }
      ],
      "stateMutability": "view",
      "type": "function"
    },
    {
      "inputs": [
        {
          "internalType": "string",
          "name": "_factoryInstanceName",
          "type": "string"
        }
      ],
      "name": "getJenisSediaanAvail",
      "outputs": [
        {
          "internalType": "uint8[]",
          "name": "",
          "type": "uint8[]"
        }
      ],
      "stateMutability": "view",
      "type": "function"
    },
    {
      "inputs": [],
      "name": "getListAllObatNie",
      "outputs": [
        {
          "internalType": "string[]",
          "name": "",
          "type": "string[]"
        },
        {
          "internalType": "string[]",
          "name": "",
          "type": "string[]"
        },
        {
          "internalType": "string[]",
          "name": "",
          "type": "string[]"
        },
        {
          "internalType": "uint256[]",
          "name": "",
          "type": "uint256[]"
        },
        {
          "internalType": "uint8[]",
          "name": "",
          "type": "uint8[]"
        }
      ],
      "stateMutability": "view",
      "type": "function"
    },
    {
      "inputs": [
        {
          "internalType": "string",
          "name": "_factoryInstanceName",
          "type": "string"
        }
      ],
      "name": "getListAllProducedObatByFactory",
      "outputs": [
        {
          "internalType": "string[]",
          "name": "",
          "type": "string[]"
        },
        {
          "internalType": "string[]",
          "name": "",
          "type": "string[]"
        },
        {
          "internalType": "uint8[]",
          "name": "",
          "type": "uint8[]"
        }
      ],
      "stateMutability": "view",
      "type": "function"
    },
    {
      "inputs": [
        {
          "internalType": "string",
          "name": "_factoryInstanceName",
          "type": "string"
        }
      ],
      "name": "getListObatByFactory",
      "outputs": [
        {
          "internalType": "string[]",
          "name": "",
          "type": "string[]"
        },
        {
          "internalType": "string[]",
          "name": "",
          "type": "string[]"
        },
        {
          "internalType": "uint8[]",
          "name": "",
          "type": "uint8[]"
        },
        {
          "internalType": "uint8[]",
          "name": "",
          "type": "uint8[]"
        }
      ],
      "stateMutability": "view",
      "type": "function"
    },
    {
      "inputs": [
        {
          "internalType": "string",
          "name": "_obatId",
          "type": "string"
        }
      ],
      "name": "getListObatById",
      "outputs": [
        {
          "components": [
            {
              "internalType": "string",
              "name": "obatId",
              "type": "string"
            },
            {
              "internalType": "string",
              "name": "merk",
              "type": "string"
            },
            {
              "internalType": "string",
              "name": "namaProduk",
              "type": "string"
            },
            {
              "internalType": "string[]",
              "name": "klaim",
              "type": "string[]"
            },
            {
              "internalType": "string",
              "name": "kemasan",
              "type": "string"
            },
            {
              "internalType": "string[]",
              "name": "komposisi",
              "type": "string[]"
            },
            {
              "internalType": "enum ObatTradisional.en_tipeProduk",
              "name": "tipeProduk",
              "type": "uint8"
            },
            {
              "internalType": "enum ObatTradisional.en_nieStatus",
              "name": "obatStatus",
              "type": "uint8"
            },
            {
              "internalType": "uint256",
              "name": "nieRequestDate",
              "type": "uint256"
            },
            {
              "internalType": "uint256",
              "name": "nieApprovalDate",
              "type": "uint256"
            },
            {
              "internalType": "string",
              "name": "nieNumber",
              "type": "string"
            }
          ],
          "internalType": "struct ObatTradisional.st_obatDetails",
          "name": "obatDetails",
          "type": "tuple"
        },
        {
          "internalType": "address",
          "name": "factoryAddress",
          "type": "address"
        },
        {
          "internalType": "string",
          "name": "factoryInstanceName",
          "type": "string"
        },
        {
          "internalType": "string",
          "name": "factoryUserName",
          "type": "string"
        },
        {
          "internalType": "address",
          "name": "bpomAddress",
          "type": "address"
        },
        {
          "internalType": "string",
          "name": "bpomInstanceName",
          "type": "string"
        },
        {
          "internalType": "string",
          "name": "bpomUserName",
          "type": "string"
        }
      ],
      "stateMutability": "view",
      "type": "function"
    },
    {
      "inputs": [],
      "name": "mainSupplyChain",
      "outputs": [
        {
          "internalType": "contract MainSupplyChain",
          "name": "",
          "type": "address"
        }
      ],
      "stateMutability": "view",
      "type": "function"
    },
    {
      "inputs": [
        {
          "internalType": "string",
          "name": "",
          "type": "string"
        }
      ],
      "name": "obatDetailsById",
      "outputs": [
        {
          "internalType": "string",
          "name": "obatId",
          "type": "string"
        },
        {
          "internalType": "string",
          "name": "merk",
          "type": "string"
        },
        {
          "internalType": "string",
          "name": "namaProduk",
          "type": "string"
        },
        {
          "internalType": "string",
          "name": "kemasan",
          "type": "string"
        },
        {
          "internalType": "enum ObatTradisional.en_tipeProduk",
          "name": "tipeProduk",
          "type": "uint8"
        },
        {
          "internalType": "enum ObatTradisional.en_nieStatus",
          "name": "obatStatus",
          "type": "uint8"
        },
        {
          "internalType": "uint256",
          "name": "nieRequestDate",
          "type": "uint256"
        },
        {
          "internalType": "uint256",
          "name": "nieApprovalDate",
          "type": "uint256"
        },
        {
          "internalType": "string",
          "name": "nieNumber",
          "type": "string"
        }
      ],
      "stateMutability": "view",
      "type": "function"
    },
    {
      "inputs": [
        {
          "internalType": "string",
          "name": "",
          "type": "string"
        }
      ],
      "name": "orderObatById",
      "outputs": [
        {
          "internalType": "string",
          "name": "orderId",
          "type": "string"
        },
        {
          "internalType": "string",
          "name": "namaProduk",
          "type": "string"
        },
        {
          "internalType": "string",
          "name": "obatIdProduk",
          "type": "string"
        },
        {
          "internalType": "uint8",
          "name": "orderQuantity",
          "type": "uint8"
        },
        {
          "internalType": "string",
          "name": "instanceName",
          "type": "string"
        },
        {
          "internalType": "address",
          "name": "instanceAddr",
          "type": "address"
        },
        {
          "internalType": "enum ObatTradisional.en_orderStatus",
          "name": "orderStatus",
          "type": "uint8"
        },
        {
          "internalType": "uint256",
          "name": "latestTimestamp",
          "type": "uint256"
        }
      ],
      "stateMutability": "view",
      "type": "function"
    },
    {
      "inputs": [
        {
          "internalType": "string",
          "name": "_obatIdProduk",
          "type": "string"
        },
        {
          "internalType": "string",
          "name": "_orderId",
          "type": "string"
        },
        {
          "internalType": "string",
          "name": "_namaProduk",
          "type": "string"
        },
        {
          "internalType": "uint8",
          "name": "_orderQuantity",
          "type": "uint8"
        },
        {
          "internalType": "address",
          "name": "_pbfAddr",
          "type": "address"
        },
        {
          "internalType": "string",
          "name": "_pbfInstanceName",
          "type": "string"
        },
        {
          "internalType": "string[]",
          "name": "_orderObatIpfsHash",
          "type": "string[]"
        }
      ],
      "name": "pbfOrder",
      "outputs": [],
      "stateMutability": "nonpayable",
      "type": "function"
    },
    {
      "inputs": [
        {
          "internalType": "string",
          "name": "_namaProduk",
          "type": "string"
        },
        {
          "internalType": "string",
          "name": "_obatId",
          "type": "string"
        },
        {
          "internalType": "uint8",
          "name": "_obatQuantity",
          "type": "uint8"
        },
        {
          "internalType": "string",
          "name": "_factoryInstanceName",
          "type": "string"
        },
        {
          "internalType": "string[]",
          "name": "_obatIpfsHash",
          "type": "string[]"
        }
      ],
      "name": "produceObat",
      "outputs": [],
      "stateMutability": "nonpayable",
      "type": "function"
    },
    {
      "inputs": [
        {
          "internalType": "string",
          "name": "_obatId",
          "type": "string"
        }
      ],
      "name": "requestNie",
      "outputs": [],
      "stateMutability": "nonpayable",
      "type": "function"
    },
    {
      "inputs": [
        {
          "internalType": "string",
          "name": "_obatIdProduk",
          "type": "string"
        },
        {
          "internalType": "string",
          "name": "_orderId",
          "type": "string"
        },
        {
          "internalType": "string",
          "name": "_namaProduk",
          "type": "string"
        },
        {
          "internalType": "uint8",
          "name": "_orderQuantity",
          "type": "uint8"
        },
        {
          "internalType": "address",
          "name": "_retailerAddr",
          "type": "address"
        },
        {
          "internalType": "string",
          "name": "_retailerInstanceName",
          "type": "string"
        },
        {
          "internalType": "string[]",
          "name": "_orderObatIpfsHash",
          "type": "string[]"
        }
      ],
      "name": "retailerOrder",
      "outputs": [],
      "stateMutability": "nonpayable",
      "type": "function"
    },
    {
      "inputs": [],
      "name": "roleManager",
      "outputs": [
        {
          "internalType": "contract RoleManager",
          "name": "",
          "type": "address"
        }
      ],
      "stateMutability": "view",
      "type": "function"
    },
    {
      "inputs": [
        {
          "internalType": "address",
          "name": "",
          "type": "address"
        }
      ],
      "name": "userRoles",
      "outputs": [
        {
          "internalType": "enum ObatTradisional.en_roles",
          "name": "",
          "type": "uint8"
        }
      ],
      "stateMutability": "view",
      "type": "function"
    }
  ],
  "bytecode": "0x608034608657601f614a7c38819003918201601f19168301916001600160401b03831184841017608b578084926040948552833981010312608657604b602060458360a1565b920160a1565b600080546001600160a01b039384166001600160a01b031991821617909155600180549290931691161790556040516149c790816100b58239f35b600080fd5b634e487b7160e01b600052604160045260246000fd5b51906001600160a01b038216820360865756fe608080604052600436101561001357600080fd5b60003560e01c908162435da514612b34575080630a04f9c814612b035780631a95e672146129765780631c0b20301461290e5780631dce6e58146126dd57806325606bc31461231357806327321837146122cb578063349a7a72146122815780634b87568a14612219578063735000eb1461214d57806374d5e100146120ed5780637aad01bd1461205e5780637ade51dd1461143e5780637d08414f146113ad57806386f5cea61461130b57806392b385c91461118a5780639413fcfd146111615780639d9315c214611117578063a812536d146110cd578063b7e6656814610ff4578063bc4a6f6c14610d81578063d14f0e4814610ba0578063d44faa6314610a6b578063d9d284dc14610440578063e06749ba146101b65763f10228621461013c57600080fd5b346101b15760203660031901126101b1576004356001600160401b0381116101b15761019961018a60206101776101ad943690600401612dea565b8160405193828580945193849201612cc3565b81016007815203019020612c1f565b604051918291602083526020830190612ce6565b0390f35b600080fd5b346101b15760003660031901126101b157600080600254905b81811061040257506101e0826131eb565b906101ea836131eb565b6101f3846131eb565b6101fc85612f01565b9161020a6040519384612bfe565b85835261022b61021987612f01565b602085019790601f1901368937613235565b936000805b8281106102b957505050602091610266610274926102596040519860a08a5260a08a0190612d91565b90888203868a0152612d91565b908682036040880152612d91565b918483036060860152519182815201939060005b8181106102a35784806101ad88878382036080850152612e40565b8251865260209586019590920191600101610288565b60ff60066102c68361305e565b50015460081c166102d681612d0b565b6102e3575b600101610230565b906103e76001916102fc6102f68561305e565b50612c1f565b610306828c613267565b52610311818b613267565b5061032760026103208661305e565b5001612c1f565b6103318288613267565b5261033c8187613267565b5061036861035b602061034e8761305e565b5060405192838092613110565b6009815203019020612c1f565b6103728289613267565b5261037d8188613267565b5060086103898561305e565b50015460076103978661305e565b50015410156103ef5760086103ab8561305e565b5001545b6103b9828a613267565b5260ff60066103c78661305e565b50015460081c166103d781612d0b565b6103e1828b613267565b5261317e565b9190506102db565b60076103fa8561305e565b5001546103af565b60ff600661040f8361305e565b50015460081c1661041f81612d0b565b61042c575b6001016101cf565b9161043860019161317e565b929050610424565b346101b1576101403660031901126101b1576004356001600160401b0381116101b157610471903690600401612dea565b6024356001600160401b0381116101b157610490903690600401612dea565b6044356001600160401b0381116101b1576104af903690600401612dea565b906064356001600160401b0381116101b1576104cf903690600401612f18565b906084356001600160401b0381116101b1576104ef903690600401612dea565b60a4356001600160401b0381116101b15761050e903690600401612f18565b60c4356001600160a01b0381169391908490036101b15760e4356001600160401b0381116101b157610544903690600401612dea565b610104356001600160401b0381116101b157610564903690600401612dea565b91610124359660028810156101b157600080546040516395a8c58d60e01b81523360048201526024810192909252602090829060449082906001600160a01b03165afa8015610a5f576105bf91600091610a30575b50614076565b604051946105cc86612be2565b8a86526020860152886040860152606085015284608085015260a08401526105f78660c0850161327b565b600260e08401526000610100840152600061012084015287604093845161061e8682612bfe565b60098152682a22aa29a22329a22360b91b602082015261014082015261066381865160208181875197019661065481838a612cc3565b8101600c8152030190206140c1565b600254600160401b81101561095c57806001610682920160025561305e565b919091610a1a57610692916140c1565b83516020818b516106a4818387612cc3565b81016008815203019020866bffffffffffffffffffffffff60a01b82541617905583516020818b516106d7818387612cc3565b8101600981520301902082516001600160401b03811161095c576106fb8254612b8d565b601f81116109e8575b506020601f821160011461097d579161073b8261074e9593602095600091610972575b508160011b916000199060031b1c19161790565b90555b8551809381928d51928391612cc3565b8101600a815203019020978251986001600160401b038a1161095c576107748154612b8d565b8a601f821161091e575b5050602099601f811160011461087d579361084261086d979461082161084f9561086299957f634ef467423c7b2abbaf26097bdddac4a495d36be69ca3d1555484b46e7899c79f6108349f9e9d9a806107ec9260009161087257508160011b916000199060031b1c19161790565b90555b6107f76131a3565b86519161080383612bc7565b82528d60208301526000878301528360608301526080820152613af3565b83519b8c9b60c08d5260c08d0190612ce6565b908b820360208d0152612ce6565b91898303908a0152612ce6565b9160608701528582036080870152612ce6565b9160a0840190612e77565b0390a1005b905088015138610727565b601f1981169a82600052806000209060005b8d811061090657509461082161084f9561086299957f634ef467423c7b2abbaf26097bdddac4a495d36be69ca3d1555484b46e7899c79f6108349f9e9d9a966108429661086d9e9b82600194106108ed575b5050811b0190556107ef565b89015160001960f88460031b161c1916905538806108e1565b9091602060018192858b01518155019301910161088f565b61094b91836000526020600020906020601f840160051c83019310610952575b601f0160051c019061329f565b8a8a61077e565b909150819061093e565b634e487b7160e01b600052604160045260246000fd5b90508701518f610727565b601f1982169083600052806000209160005b8181106109d0575092602094926001928261074e9896106109b7575b5050811b01905561073e565b88015160001960f88460031b161c191690558e806109ab565b9192602060018192868b01518155019401920161098f565b610a1490836000526020600020601f840160051c8101916020851061095257601f0160051c019061329f565b8b610704565b634e487b7160e01b600052600060045260246000fd5b610a52915060203d602011610a58575b610a4a8183612bfe565b810190613287565b8c6105b9565b503d610a40565b6040513d6000823e3d90fd5b346101b15760203660031901126101b1576004356001600160401b0381116101b1576000610aa0610acd923690600401612dea565b60018060a01b03600154166040518080958194629a308760e31b8352602060048401526024830190612ce6565b03915afa908115610a5f57600091610af6575b604051602080825281906101ad90820185612e40565b3d8083833e610b058183612bfe565b810190602081830312610b94578051906001600160401b038211610b9c57019080601f83011215610b9457815192610b3c84612f01565b92610b4a6040519485612bfe565b84845260208085019560051b820101928311610b9857602001935b828510610b7a575050506101ad915090610ae0565b845160ff81168103610b9457815260209485019401610b65565b8280fd5b5080fd5b8380fd5b346101b15760a03660031901126101b1576004356001600160401b0381116101b157610bd0903690600401612dea565b6024356001600160401b0381116101b157610bef903690600401612dea565b906044359060ff82168092036101b1576064356001600160401b0381116101b157610c1e903690600401612dea565b6084356001600160401b0381116101b157610c3d903690600401612f18565b926044602060018060a01b0360005416604051928380926395a8c58d60e01b8252336004830152600060248301525afa8015610a5f57610c8491600091610d625750614076565b83518103610d0b577fabb6d08782df0e4c2ee63deacc72efc9c1a9422c00fc5d8075160d11eaa40b4a94610ce461086d93610cf89660405191610cc683612bc7565b84835287602084015285604084015260608301526080820152613af3565b604051948594606086526060860190612ce6565b9160208501528382036040850152612ce6565b60405162461bcd60e51b815260206004820152602960248201527f5175616e7469747920646f6573206e6f74206d6174636820746865206e756d626044820152686572206f662049447360b81b6064820152608490fd5b610d7b915060203d602011610a5857610a4a8183612bfe565b876105b9565b346101b15760203660031901126101b1576004356001600160401b0381116101b157610db1903690600401612dea565b600080546040516395a8c58d60e01b81523360048201526024810192909252602090829060449082906001600160a01b03165afa8015610a5f57610dfc91600091610fd55750614076565b60405181519060208181850193610e14818387612cc3565b8101600c8152030190209160068301805460ff8160081c16610e3581612d0b565b610f735742600786015561ff00191661010017905560005b600254811015610f4357610e608161305e565b50604051610e8481610e76602082018095613110565b03601f198101835282612bfe565b5190206040516020810190610eb36020828751610ea281878c612cc3565b81010301601f198101835282612bfe565b51902014610ec357600101610e4d565b610f2e92507f854681db4b5190ceaacfe5894893f2e8d49873d9b8ed6c72b5618047cb3924e5936006610f0883610efc61086d9561305e565b5060074291015561305e565b5001805461ff0019166101001790555b6002604051948594606086526060860190612ce6565b91426020860152848303604086015201613ff3565b50610f2e915061086d7f854681db4b5190ceaacfe5894893f2e8d49873d9b8ed6c72b5618047cb3924e593610f18565b60405162461bcd60e51b815260206004820152603460248201527f4f62617420547261646973696f6e616c20737461747573206d75737420626520604482015273696e206c6f63616c2070726f64756374696f6e2160601b6064820152608490fd5b610fee915060203d602011610a5857610a4a8183612bfe565b836105b9565b346101b15761100236612f96565b6000546040516395a8c58d60e01b81523360048201526003602482015291969295939493929190602090829060449082906001600160a01b03165afa908115610a5f576000916110ae575b501561105e5761105c966138f6565b005b60405162461bcd60e51b815260206004820152602260248201527f416363657373207265737472696374656420746f2052657461696c657220726f6044820152616c6560f01b6064820152608490fd5b6110c7915060203d602011610a5857610a4a8183612bfe565b8861104d565b346101b15760203660031901126101b1576004356001600160401b0381116101b15761019961110860206101776101ad943690600401612dea565b81016009815203019020612c1f565b346101b15760203660031901126101b1576004356001600160401b0381116101b15761019961115260206101776101ad943690600401612dea565b81016006815203019020612c1f565b346101b15760003660031901126101b1576001546040516001600160a01b039091168152602090f35b346101b15760203660031901126101b1576004356001600160401b0381116101b1576111ba903690600401612dea565b6003546000916020810190835b8381106112a3575050506111da826131eb565b916111ed6111e7826131eb565b91613235565b916000805b82821061123557611219866101ad8761122788604051958695606087526060870190612d91565b908582036020870152612d91565b908382036040850152612e40565b61129b6001916112476102f68561307d565b611251828a613267565b5261125c8189613267565b5061126a836103208661307d565b6112748288613267565b5261127f8187613267565b5060ff600261128d8661307d565b500154166103e18289613267565b9101906111f2565b6003610e766112c86112b48461307d565b506040519283916020830195869101613110565b51902060405160208101906112e66020828751610ea281878c612cc3565b519020146112f7575b6001016111c7565b9361130360019161317e565b9490506112ef565b346101b15760203660031901126101b1576004356001600160401b0381116101b1576020610177611340923690600401612dea565b8101600d81520301902061135381612c1f565b6101ad61136260018401612c1f565b9161136f60028501612c1f565b9360ff6003820154169161138560048301612c1f565b600660058401549301549360405197889760ff8660a01c169560018060a01b03169489612d15565b346101b15760203660031901126101b1576004356003548110156101b1576113d761141d9161307d565b506101ad6113e482612c1f565b916113f160018201612c1f565b61142b611408600360ff6002860154169401612c1f565b91604051968796608088526080880190612ce6565b908682036020880152612ce6565b9160408501528382036060850152612ce6565b346101b15760a03660031901126101b1576004356001600160401b0381116101b15761146e903690600401612dea565b6024356001600160a01b03811681036101b1576044356001600160401b0381116101b1576114a0903690600401612dea565b6064356001600160401b0381116101b1576114bf903690600401612dea565b926084356001600160401b0381116101b1576114df903690600401612dea565b9360405192825193602081818601966114f981838a612cc3565b8101600c81520301902094600686018054600160ff8260081c1661151c81612d0b565b036120035742600889015561ff001916610200179055865160098701906001600160401b03811161095c576115518254612b8d565b601f8111611fd1575b506020601f8211600114611f6b57908061158992600091611d7457508160011b916000199060031b1c19161790565b90555b604051602081865161159f81838b612cc3565b810160058152030190209060018060a01b03166bffffffffffffffffffffffff60a01b82541617905560405160208185516115db81838a612cc3565b81016006815203019020908051906001600160401b03821161095c576116018354612b8d565b601f8111611f39575b50602090601f8311600114611ed25761163c929160009183611b80575b50508160011b916000199060031b1c19161790565b90555b6040516020818451611652818389612cc3565b81016007815203019020908051906001600160401b03821161095c576116788354612b8d565b601f8111611ea0575b50602090601f8311600114611e39576116b2929160009183611e2e5750508160011b916000199060031b1c19161790565b90555b60005b600254811015611e1e576116cb8161305e565b506040516116e181610e76602082018095613110565b51902060405160208101906116ff6020828751610ea281878c612cc3565b5190201461170f576001016116b8565b611748816117226009939694959661305e565b5060084291015560066117348261305e565b5001805461ff00191661020017905561305e565b500184516001600160401b03811161095c576117648254612b8d565b601f8111611dec575b506020601f8211600114611d7f57926020926117a5836002946117bb97600091611d7457508160011b916000199060031b1c19161790565b90555b0193604051809381928651928391612cc3565b81016009815203019020906117ce6131a3565b91604051916117dc83612bc7565b82526117e784612c1f565b9060208301918252611800604084019160008352612c1f565b916060840192835260808401948552600354600160401b81101561095c578060016118309201600355600361309c565b949094610a1a57518051906001600160401b03821161095c576118538654612b8d565b601f8111611d42575b50602090601f8311600114611cdb5761188d929160009183611cd05750508160011b916000199060031b1c19161790565b84555b51805160018501916001600160401b03821161095c576118b08354612b8d565b601f8111611c9e575b50602090601f8311600114611c335791806118ef9260ff969594600092611c285750508160011b916000199060031b1c19161790565b90555b511660ff60028401911660ff198254161790556003820190518051906001600160401b03821161095c576119268354612b8d565b601f8111611bf6575b50602090601f8311600114611b8b579180611965926004969594600092611b805750508160011b916000199060031b1c19161790565b90555b019051805190600160401b821161095c578254828455808310611b02575b50602001916000526020600020916000905b8282106119ea577f489f165b733603cb0a992d8cafd6c42a0c13d169039003f751758b9f0019f26c6119dc8761086d88604051938493604085526040850190612ce6565b908382036020850152613ff3565b80518051906001600160401b03821161095c57611a078654612b8d565b601f8111611ad0575b50602090601f8311600114611a635792611a4983600195946020948796600092611a585750508160011b916000199060031b1c19161790565b87555b01940191019092611998565b015190508c80611627565b90601f1983169187600052816000209260005b818110611ab85750936020936001969387969383889510611a9f575b505050811b018755611a4c565b015160001960f88460031b161c191690558b8080611a92565b92936020600181928786015181550195019301611a76565b611afc90876000526020600020601f850160051c8101916020861061095257601f0160051c019061329f565b88611a10565b8360005282602060002091820191015b818110611b1f5750611986565b80611b2c60019254612b8d565b80611b39575b5001611b12565b601f81118314611b4f5750600081555b88611b32565b611b6d908260005283601f6020600020920160051c8201910161329f565b8060005260006020812081835555611b49565b015190508980611627565b90601f1983169184600052816000209260005b818110611bde575091600193918560049897969410611bc5575b505050811b019055611968565b015160001960f88460031b161c19169055888080611bb8565b92936020600181928786015181550195019301611b9e565b611c2290846000526020600020601f850160051c8101916020861061095257601f0160051c019061329f565b8761192f565b015190508b80611627565b90601f1983169184600052816000209260005b818110611c86575091600193918560ff9897969410611c6d575b505050811b0190556118f2565b015160001960f88460031b161c191690558a8080611c60565b92936020600181928786015181550195019301611c46565b611cca90846000526020600020601f850160051c8101916020861061095257601f0160051c019061329f565b896118b9565b015190508a80611627565b90601f1983169187600052816000209260005b818110611d2a5750908460019594939210611d11575b505050811b018455611890565b015160001960f88460031b161c19169055898080611d04565b92936020600181928786015181550195019301611cee565b611d6e90876000526020600020601f850160051c8101916020861061095257601f0160051c019061329f565b8961185c565b90508a01518b610727565b601f1982169083600052806000209160005b818110611dd45750836117bb96936020969360029660019410611dbb575b5050811b0190556117a8565b8b015160001960f88460031b161c191690558a80611daf565b9192602060018192868d015181550194019201611d91565b611e1890836000526020600020601f840160051c8101916020851061095257601f0160051c019061329f565b8661176d565b509091602060026117bb926117a8565b015190508880611627565b90601f1983169184600052816000209260005b818110611e885750908460019594939210611e6f575b505050811b0190556116b5565b015160001960f88460031b161c19169055878080611e62565b92936020600181928786015181550195019301611e4c565b611ecc90846000526020600020601f850160051c8101916020861061095257601f0160051c019061329f565b87611681565b90601f1983169184600052816000209260005b818110611f215750908460019594939210611f08575b505050811b01905561163f565b015160001960f88460031b161c19169055888080611efb565b92936020600181928786015181550195019301611ee5565b611f6590846000526020600020601f850160051c8101916020861061095257601f0160051c019061329f565b8861160a565b601f1982169083600052806000209160005b8c828210611fb95750509083600194939210611fa0575b5050811b01905561158c565b8b015160001960f88460031b161c191690558a80611f94565b60018495602093958493015181550194019201611f7d565b611ffd90836000526020600020601f840160051c8101916020851061095257601f0160051c019061329f565b8961155a565b60405162461bcd60e51b815260206004820152602d60248201527f4f62617420547261646973696f6e616c20737461747573206d7573742062652060448201526c5265717565737465644e49452160981b6064820152608490fd5b346101b15760203660031901126101b1576004356002548110156101b1576120859061305e565b5061208f81612c1f565b6101ad61209e60018401612c1f565b916120ab60028501612c1f565b936120b860048201612c1f565b9160068201546007830154916120d5600960088601549501612c1f565b9460405198899860ff808660081c169516938a612e84565b346101b15760203660031901126101b1576004356001600160a01b038116908190036101b157600052600b60205260ff604060002054166040516004821015612137576020918152f35b634e487b7160e01b600052602160045260246000fd5b346101b15761215b36612f96565b6000546040516395a8c58d60e01b81523360048201526001602482015291969295939493929190602090829060449082906001600160a01b03165afa908115610a5f576000916121fa575b50156121b55761105c966138f6565b60405162461bcd60e51b815260206004820152601d60248201527f416363657373207265737472696374656420746f2050424620726f6c650000006044820152606490fd5b612213915060203d602011610a5857610a4a8183612bfe565b886121a6565b346101b15760203660031901126101b1576004356001600160401b0381116101b15761224b6020913690600401612dea565b8161225f6040519283815193849201612cc3565b600890820190815281900382019020546040516001600160a01b039091168152f35b346101b15760203660031901126101b1576004356001600160401b0381116101b1576101996122bc60206101776101ad943690600401612dea565b8101600a815203019020612c1f565b346101b15760203660031901126101b1576004356001600160401b0381116101b1576020610177612300923690600401612dea565b8101600c81520301902061208f81612c1f565b346101b15760203660031901126101b1576004356001600160401b0381116101b157612343903690600401612dea565b606061014060405161235481612be2565b82815282602082015282604082015282808201528260808201528260a0820152600060c0820152600060e08201526000610100820152600061012082015201526040516123bf825191602081818601946123af818388612cc3565b8101600c81520301902054612b8d565b15612698576101ad6101409261268a60405160208184516123e181838a612cc3565b8101600c815203019020936124a26009604051966123fe88612be2565b61240781612c1f565b885261241560018201612c1f565b602089015261242660028201612c1f565b6040890152612437600382016130b8565b606089015261244860048201612c1f565b6080890152612459600582016130b8565b60a089015260ff600682015461247482821660c08c0161327b565b60081c1661248181612d0b565b60e08901526007810154610100890152600881015461012089015201612c1f565b8686015260405183516124b6818385612cc3565b8101906008825260208160018060a01b0393030190205416926126776124e8604051602081855161110881838a612cc3565b9461266961250260405160208187516122bc81838c612cc3565b9161255a61018a6020604051885161251b81838d612cc3565b81019060058252828160018060a01b03930301902054169861254860405183818c51611152818388612cc3565b98604051938492839251928391612cc3565b97612656604051809d819d60e083526126016125ea6125d36125be6125a7612590865161016060e08b01526102408a0190612ce6565b602087015189820360df19016101008b0152612ce6565b604086015188820360df19016101208a0152612ce6565b606085015187820360df190187890152612d91565b608084015186820360df1901610160880152612ce6565b60a083015185820360df1901610180870152612d91565b9261261560c08301516101a0830190612e77565b60e082015161262381612d0b565b6101c08201526101008201516101e08201526101208201516102009091015201518d820360df19016102208f0152612ce6565b9160208c01528a820360408c0152612ce6565b9088820360608a0152612ce6565b91608087015285820360a0870152612ce6565b9083820360c0850152612ce6565b60405162461bcd60e51b815260206004820152601b60248201527f4e6f206461746120666f756e64207769746820746869732049442e00000000006044820152606490fd5b346101b15760203660031901126101b1576004356001600160401b0381116101b15761270d903690600401612dea565b60025460208201916000805b83811061289e575061272a816131eb565b92612734826131eb565b9061274761274184613235565b93613235565b93600096875b8381106127a257612778886101ad896127948a6127868b604051978897608089526080890190612d91565b908782036020890152612d91565b908582036040870152612e40565b908382036060850152612e40565b6127b0602061034e8361305e565b60098152030190206040516127cd81610e76602082018095613110565b51902060405160208101906127eb6020828851610ea281878b612cc3565b519020146127fc575b60010161274d565b976128096102f68a61305e565b612813828a613267565b5261281e8189613267565b5061282d60026103208b61305e565b6128378287613267565b526128428186613267565b5060ff60066128508b61305e565b50015460081c1661286081612d0b565b61286a8288613267565b5260ff60066128788b61305e565b5001541660028110156121375781612896916103e16001948b613267565b9890506127f4565b6128ac602061034e8361305e565b60098152030190206040516128c981610e76602082018095613110565b51902060405160208101906128e960208284610ea28c8b51928391612cc3565b519020146128fa575b600101612719565b9061290660019161317e565b9190506128f2565b346101b15760203660031901126101b1576004356001600160401b0381116101b1576129406020913690600401612dea565b816129546040519283815193849201612cc3565b600590820190815281900382019020546040516001600160a01b039091168152f35b346101b15760003660031901126101b15760035461299381612f01565b906129a16040519283612bfe565b80825260208201908160036000527fc2575a0e9e593c00f959f8c92f12db2869c3395a3b0502d05e2516446f71f85b6000915b838310612a9957848660405191829160208301906020845251809152604083019060408160051b85010192916000905b828210612a1357505050500390f35b91936001919395506020612a898192603f198a82030186528851906080612a78612a59612a49855160a0865260a0860190612ce6565b8786015185820389870152612ce6565b60ff604086015116604085015260608501518482036060860152612ce6565b920151906080818403910152612d91565b9601920192018594939192612a04565b60056020600192604051612aac81612bc7565b612ab586612c1f565b8152612ac2858701612c1f565b8382015260ff6002870154166040820152612adf60038701612c1f565b6060820152612af0600487016130b8565b60808201528152019201920191906129d4565b346101b15760203660031901126101b1576004356004548110156101b157612b2a90612b58565b5061135381612c1f565b346101b15760003660031901126101b1576000546001600160a01b03168152602090f35b600454811015612b7757600460005260206000209060031b0190600090565b634e487b7160e01b600052603260045260246000fd5b90600182811c92168015612bbd575b6020831014612ba757565b634e487b7160e01b600052602260045260246000fd5b91607f1691612b9c565b60a081019081106001600160401b0382111761095c57604052565b61016081019081106001600160401b0382111761095c57604052565b90601f801991011681019081106001600160401b0382111761095c57604052565b9060405191826000825492612c3384612b8d565b8084529360018116908115612ca15750600114612c5a575b50612c5892500383612bfe565b565b90506000929192526020600020906000915b818310612c85575050906020612c589282010138612c4b565b6020919350806001915483858901015201910190918492612c6c565b905060209250612c5894915060ff191682840152151560051b82010138612c4b565b60005b838110612cd65750506000910152565b8181015183820152602001612cc6565b90602091612cff81518092818552858086019101612cc3565b601f01601f1916010190565b6003111561213757565b9490612d5b612d6f94612d4d60e0999c9b9a9795612d3f60ff956101008c526101008c0190612ce6565b908a820360208c0152612ce6565b9088820360408a0152612ce6565b921660608601528482036080860152612ce6565b6001600160a01b0390961660a0830152612d8881612d0b565b60c08201520152565b9080602083519182815201916020808360051b8301019401926000915b838310612dbd57505050505090565b9091929394602080612ddb600193601f198682030187528951612ce6565b97019301930191939290612dae565b81601f820112156101b1578035906001600160401b03821161095c5760405192612e1e601f8401601f191660200185612bfe565b828452602083830101116101b157816000926020809301838601378301015290565b906020808351928381520192019060005b818110612e5e5750505090565b825160ff16845260209384019390920191600101612e51565b9060028210156121375752565b959293612ebf612efe9a9895612eb1612ed895610834612ecd969d9a9d6101208d526101208d0190612ce6565b9089820360408b0152612ce6565b908782036060890152612ce6565b966080860190612e77565b612ee181612d0b565b60a084015260c083015260e0820152610100818403910152612ce6565b90565b6001600160401b03811161095c5760051b60200190565b9080601f830112156101b1578135612f2f81612f01565b92612f3d6040519485612bfe565b81845260208085019260051b820101918383116101b15760208201905b838210612f6957505050505090565b81356001600160401b0381116101b157602091612f8b87848094880101612dea565b815201910190612f5a565b60e06003198201126101b1576004356001600160401b0381116101b15781612fc091600401612dea565b916024356001600160401b0381116101b15782612fdf91600401612dea565b916044356001600160401b0381116101b15781612ffe91600401612dea565b9160643560ff811681036101b157916084356001600160a01b03811681036101b1579160a4356001600160401b0381116101b1578261303f91600401612dea565b9160c435906001600160401b0382116101b157612efe91600401612f18565b600254811015612b77576002600052600a602060002091020190600090565b600354811015612b775760036000526005602060002091020190600090565b8054821015612b77576000526005602060002091020190600090565b9081546130c481612f01565b926130d26040519485612bfe565b818452602084019060005260206000206000915b8383106130f35750505050565b60016020819261310285612c1f565b8152019201920191906130e6565b6000929181549161312083612b8d565b926001811690811561316b575060011461313957505050565b909192935060005260206000206000905b8382106131575750500190565b60018160209254848601520191019061314a565b60ff191683525050811515909102019150565b600019811461318d5760010190565b634e487b7160e01b600052601160045260246000fd5b604051906131b2602083612bfe565b600080835282815b8281106131c657505050565b8060606020809385010152016131ba565b634e487b7160e01b81526041600452602490fd5b906131f582612f01565b6132026040519182612bfe565b8281528092613213601f1991612f01565b019060005b82811061322457505050565b806060602080938501015201613218565b9061323f82612f01565b61324c6040519182612bfe565b828152809261325d601f1991612f01565b0190602036910137565b8051821015612b775760209160051b010190565b60028210156121375752565b908160209103126101b1575180151581036101b15790565b8181106132aa575050565b6000815560010161329f565b919080519283516001600160401b03811161095c576132d58254612b8d565b601f81116138c4575b50602094601f821160011461385f576133129293949582916000926135655750508160011b916000199060031b1c19161790565b81555b6001810160208301518051906001600160401b03821161095c576133398354612b8d565b601f811161382d575b50602090601f83116001146137c6576133739291600091836135655750508160011b916000199060031b1c19161790565b90555b6002810160408301518051906001600160401b03821161095c5761339a8354612b8d565b601f8111613794575b50602090601f831160011461372d576133d49291600091836135655750508160011b916000199060031b1c19161790565b90555b60ff60608301511660ff60038301911660ff198254161790556004810160808301518051906001600160401b03821161095c576134148354612b8d565b601f81116136fb575b50602090601f831160011461368d5782610100959360079593613456936000926135655750508160011b916000199060031b1c19161790565b90555b60a08401516005820180546001600160a01b0319166001600160a01b039290921691909117815560c085015161348e81612d0b565b61349781612d0b565b81549060ff60a01b9060a01b169060ff60a01b191617905560e0840151600682015501910151805190600160401b821161095c57825482845580831061360f575b50602001916000526020600020916000905b8282106134f75750505050565b80518051906001600160401b03821161095c576135148654612b8d565b601f81116135dd575b50602090601f83116001146135705792613556836001959460209487966000926135655750508160011b916000199060031b1c19161790565b87555b019401910190926134ea565b015190503880611627565b90601f1983169187600052816000209260005b8181106135c557509360209360019693879693838895106135ac575b505050811b018755613559565b015160001960f88460031b161c1916905538808061359f565b92936020600181928786015181550195019301613583565b61360990876000526020600020601f850160051c8101916020861061095257601f0160051c019061329f565b3861351d565b8360005282602060002091820191015b81811061362c57506134d8565b8061363960019254612b8d565b80613646575b500161361f565b601f8111831461365c5750600081555b3861363f565b61367a908260005283601f6020600020920160051c8201910161329f565b8060005260006020812081835555613656565b90601f1983169184600052816000209260005b8181106136e35750926001928592610100989660079896106136ca575b505050811b019055613459565b015160001960f88460031b161c191690553880806136bd565b929360206001819287860151815501950193016136a0565b61372790846000526020600020601f850160051c8101916020861061095257601f0160051c019061329f565b3861341d565b90601f1983169184600052816000209260005b81811061377c5750908460019594939210613763575b505050811b0190556133d7565b015160001960f88460031b161c19169055388080613756565b92936020600181928786015181550195019301613740565b6137c090846000526020600020601f850160051c8101916020861061095257601f0160051c019061329f565b386133a3565b90601f1983169184600052816000209260005b81811061381557509084600195949392106137fc575b505050811b019055613376565b015160001960f88460031b161c191690553880806137ef565b929360206001819287860151815501950193016137d9565b61385990846000526020600020601f850160051c8101916020861061095257601f0160051c019061329f565b38613342565b601f1982169583600052806000209160005b8881106138ac57508360019596979810613893575b505050811b018155613315565b015160001960f88460031b161c19169055388080613886565b91926020600181928685015181550194019201613871565b6138f090836000526020600020601f840160051c8101916020851061095257601f0160051c019061329f565b386132de565b9193959260ff90959195169560328710613aae5760025460609360005b828110613a44575b5050506040519261012084018481106001600160401b0382111761095c57604052868452856020850152604084015286606084015281608084015260018060a01b0316928360a0840152600060c08401524260e08401526101008301526139a282604051602081816139938b83815193849201612cc3565b8101600d8152030190206132b6565b600454600160401b81101561095c578060016139c19201600455612b58565b929092610a1a577f95b629c00caaa10e5c594b3f10670964fdfeff8de039e6e3ae5acc2aed2a3fdb96613a12966139fe613a2593613a33966132b6565b60405197889760c0895260c0890190612ce6565b9160208801528682036040880152612ce6565b908482036060860152612ce6565b9060808301524260a08301520390a1565b613a4d8161305e565b50604051613a6381610e76602082018095613110565b5190206040516020810190613a836020828751610ea28187858c01612cc3565b51902014613a9357600101613913565b9050613aa59294506102f6915061305e565b9138808061391b565b60405162461bcd60e51b815260206004820152601960248201527f4d696e696d756d206f72646572206973203530206f6261742e000000000000006044820152606490fd5b90600354600160401b81101561095c57806001613b159201600355600361309c565b929092610a1a5780519283516001600160401b03811161095c57613b398254612b8d565b601f8111613fc1575b50602094601f8211600114613f5c57613b769293949582916000926135655750508160011b916000199060031b1c19161790565b81555b6001810160208301518051906001600160401b03821161095c57613b9d8354612b8d565b601f8111613f2a575b50602090601f8311600114613ec357613bd79291600091836135655750508160011b916000199060031b1c19161790565b90555b60ff60408301511660ff60028301911660ff198254161790556003810160608301518051906001600160401b03821161095c57613c178354612b8d565b601f8111613e91575b50602090601f8311600114613e2457826080959360049593613c58936000926135655750508160011b916000199060031b1c19161790565b90555b01910151805190600160401b821161095c578254828455808310613da6575b50602001916000526020600020916000905b828210613c995750505050565b80518051906001600160401b03821161095c57613cb68654612b8d565b601f8111613d74575b50602090601f8311600114613d075792613cf8836001959460209487966000926135655750508160011b916000199060031b1c19161790565b87555b01940191019092613c8c565b90601f1983169187600052816000209260005b818110613d5c5750936020936001969387969383889510613d43575b505050811b018755613cfb565b015160001960f88460031b161c19169055388080613d36565b92936020600181928786015181550195019301613d1a565b613da090876000526020600020601f850160051c8101916020861061095257601f0160051c019061329f565b38613cbf565b8360005282602060002091820191015b818110613dc35750613c7a565b80613dd060019254612b8d565b80613ddd575b5001613db6565b601f81118314613df35750600081555b38613dd6565b613e11908260005283601f6020600020920160051c8201910161329f565b8060005260006020812081835555613ded565b90601f1983169184600052816000209260005b818110613e795750926001928592608098966004989610613e60575b505050811b019055613c5b565b015160001960f88460031b161c19169055388080613e53565b92936020600181928786015181550195019301613e37565b613ebd90846000526020600020601f850160051c8101916020861061095257601f0160051c019061329f565b38613c20565b90601f1983169184600052816000209260005b818110613f125750908460019594939210613ef9575b505050811b019055613bda565b015160001960f88460031b161c19169055388080613eec565b92936020600181928786015181550195019301613ed6565b613f5690846000526020600020601f850160051c8101916020861061095257601f0160051c019061329f565b38613ba6565b601f1982169583600052806000209160005b888110613fa957508360019596979810613f90575b505050811b018155613b79565b015160001960f88460031b161c19169055388080613f83565b91926020600181928685015181550194019201613f6e565b613fed90836000526020600020601f840160051c8101916020851061095257601f0160051c019061329f565b38613b42565b6000929181549161400383612b8d565b8083529260018116908115614059575060011461401f57505050565b60009081526020812093945091925b83831061403f575060209250010190565b60018160209294939454838587010152019101919061402e565b915050602093945060ff929192191683830152151560051b010190565b1561407d57565b606460405162461bcd60e51b815260206004820152602060248201527f416363657373207265737472696374656420746f2050616272696b20726f6c656044820152fd5b909182519283516001600160401b03811161095c576140e08454612b8d565b601f811161495f575b50602094601f82116001146148fa5761411d9293949582916000926135655750508160011b916000199060031b1c19161790565b83555b6001830160208201518051906001600160401b03821161095c576141448354612b8d565b601f81116148c8575b50602090601f83116001146148615761417e9291600091836135655750508160011b916000199060031b1c19161790565b90555b6002830160408201518051906001600160401b03821161095c576141a58354612b8d565b601f811161482f575b50602090601f83116001146147c8576141df9291600091836135655750508160011b916000199060031b1c19161790565b90555b600383016060820151805190600160401b821161095c57825482845580831061474a575b50602001916000526020600020916000905b82821061463d57505050506004830160808201518051906001600160401b03821161095c576142478354612b8d565b601f811161460b575b50602090601f83116001146145a4576142819291600091836135655750508160011b916000199060031b1c19161790565b90555b6005830160a0820151805190600160401b821161095c578254828455808310614526575b50602001916000526020600020916000905b828210614419575050505060c081015192600681016002851015612137576101409160099160009660ff8019835416911617815560e08501516142fc81612d0b565b61430581612d0b565b61ff0082549160081b169061ff0019161790556101008401516007820155610120840151600882015501910151928351906001600160401b0382116131d75761434e8354612b8d565b601f81116143e9575b50602090601f831160011461438b5790614387939495836135655750508160011b916000199060031b1c19161790565b9055565b90601f198316848352818320925b8181106143d1575095836001959697106143b8575b505050811b019055565b015160001960f88460031b161c191690553880806143ae565b9192602060018192868b015181550194019201614399565b6144139084835260208320601f850160051c8101916020861061095257601f0160051c019061329f565b38614357565b80518051906001600160401b03821161095c576144368654612b8d565b601f81116144f4575b50602090601f83116001146144875792614478836001959460209487966000926135655750508160011b916000199060031b1c19161790565b87555b019401910190926142ba565b90601f1983169187600052816000209260005b8181106144dc57509360209360019693879693838895106144c3575b505050811b01875561447b565b015160001960f88460031b161c191690553880806144b6565b9293602060018192878601518155019501930161449a565b61452090876000526020600020601f850160051c8101916020861061095257601f0160051c019061329f565b3861443f565b8360005282602060002091820191015b81811061454357506142a8565b8061455060019254612b8d565b8061455d575b5001614536565b601f811183146145735750600081555b38614556565b614591908260005283601f6020600020920160051c8201910161329f565b806000526000602081208183555561456d565b90601f1983169184600052816000209260005b8181106145f357509084600195949392106145da575b505050811b019055614284565b015160001960f88460031b161c191690553880806145cd565b929360206001819287860151815501950193016145b7565b61463790846000526020600020601f850160051c8101916020861061095257601f0160051c019061329f565b38614250565b80518051906001600160401b03821161095c5761465a8654612b8d565b601f8111614718575b50602090601f83116001146146ab579261469c836001959460209487966000926135655750508160011b916000199060031b1c19161790565b87555b01940191019092614218565b90601f1983169187600052816000209260005b81811061470057509360209360019693879693838895106146e7575b505050811b01875561469f565b015160001960f88460031b161c191690553880806146da565b929360206001819287860151815501950193016146be565b61474490876000526020600020601f850160051c8101916020861061095257601f0160051c019061329f565b38614663565b8360005282602060002091820191015b8181106147675750614206565b8061477460019254612b8d565b80614781575b500161475a565b601f811183146147975750600081555b3861477a565b6147b5908260005283601f6020600020920160051c8201910161329f565b8060005260006020812081835555614791565b90601f1983169184600052816000209260005b81811061481757509084600195949392106147fe575b505050811b0190556141e2565b015160001960f88460031b161c191690553880806147f1565b929360206001819287860151815501950193016147db565b61485b90846000526020600020601f850160051c8101916020861061095257601f0160051c019061329f565b386141ae565b90601f1983169184600052816000209260005b8181106148b05750908460019594939210614897575b505050811b019055614181565b015160001960f88460031b161c1916905538808061488a565b92936020600181928786015181550195019301614874565b6148f490846000526020600020601f850160051c8101916020861061095257601f0160051c019061329f565b3861414d565b601f1982169585600052806000209160005b8881106149475750836001959697981061492e575b505050811b018355614120565b015160001960f88460031b161c19169055388080614921565b9192602060018192868501518155019401920161490c565b61498b90856000526020600020601f840160051c8101916020851061095257601f0160051c019061329f565b386140e956fea2646970667358221220c4f0f99ac239662c053af6af76d6b89be14263cd113d9055e8fb183f637547f964736f6c634300081b0033",
  "linkReferences": {},
  "deployedLinkReferences": {}
}