{
  "_format": "hh-sol-artifact-1",
  "contractName": "ObatTradisional",
  "sourceName": "contracts/ObatTradisional.sol",
  "abi": [
    {
      "anonymous": false,
      "inputs": [
        {
          "indexed": true,
          "internalType": "string",
          "name": "obatId",
          "type": "string"
        },
        {
          "indexed": true,
          "internalType": "address",
          "name": "pabrikAddress",
          "type": "address"
        }
      ],
      "name": "evt_ObatRequested",
      "type": "event"
    },
    {
      "anonymous": false,
      "inputs": [
        {
          "indexed": true,
          "internalType": "string",
          "name": "obatId",
          "type": "string"
        },
        {
          "indexed": true,
          "internalType": "address",
          "name": "pabrikAddress",
          "type": "address"
        },
        {
          "indexed": false,
          "internalType": "string",
          "name": "obatName",
          "type": "string"
        }
      ],
      "name": "evt_obatProduction",
      "type": "event"
    },
    {
      "inputs": [],
      "name": "get_all_obat",
      "outputs": [
        {
          "internalType": "string[]",
          "name": "",
          "type": "string[]"
        }
      ],
      "stateMutability": "view",
      "type": "function"
    },
    {
      "inputs": [
        {
          "internalType": "string",
          "name": "_obatId",
          "type": "string"
        }
      ],
      "name": "get_obat_byId",
      "outputs": [
        {
          "internalType": "address",
          "name": "pabrikAddress",
          "type": "address"
        },
        {
          "internalType": "address",
          "name": "bpomAddress",
          "type": "address"
        },
        {
          "internalType": "string",
          "name": "pabrikName",
          "type": "string"
        },
        {
          "internalType": "uint256",
          "name": "timestampReq",
          "type": "uint256"
        },
        {
          "internalType": "uint256",
          "name": "timestampApprove",
          "type": "uint256"
        },
        {
          "internalType": "string",
          "name": "obatName",
          "type": "string"
        },
        {
          "internalType": "string",
          "name": "obatId",
          "type": "string"
        },
        {
          "internalType": "string",
          "name": "obatMerk",
          "type": "string"
        },
        {
          "internalType": "string",
          "name": "obatKlaim",
          "type": "string"
        },
        {
          "internalType": "string",
          "name": "obatKomposisi",
          "type": "string"
        },
        {
          "internalType": "string",
          "name": "obatKemasan",
          "type": "string"
        },
        {
          "internalType": "string",
          "name": "numberNie",
          "type": "string"
        },
        {
          "internalType": "enum ObatTradisional.en_StatusObat",
          "name": "statusObat",
          "type": "uint8"
        }
      ],
      "stateMutability": "view",
      "type": "function"
    },
    {
      "inputs": [
        {
          "internalType": "uint256",
          "name": "",
          "type": "uint256"
        }
      ],
      "name": "idObat",
      "outputs": [
        {
          "internalType": "string",
          "name": "",
          "type": "string"
        }
      ],
      "stateMutability": "view",
      "type": "function"
    },
    {
      "inputs": [
        {
          "internalType": "string",
          "name": "",
          "type": "string"
        }
      ],
      "name": "obatData",
      "outputs": [
        {
          "internalType": "address",
          "name": "pabrikAddress",
          "type": "address"
        },
        {
          "internalType": "address",
          "name": "bpomAddress",
          "type": "address"
        },
        {
          "internalType": "string",
          "name": "pabrikName",
          "type": "string"
        },
        {
          "internalType": "uint256",
          "name": "timestampReq",
          "type": "uint256"
        },
        {
          "internalType": "uint256",
          "name": "timestampApprove",
          "type": "uint256"
        },
        {
          "internalType": "string",
          "name": "obatName",
          "type": "string"
        },
        {
          "internalType": "string",
          "name": "obatId",
          "type": "string"
        },
        {
          "internalType": "string",
          "name": "obatMerk",
          "type": "string"
        },
        {
          "internalType": "string",
          "name": "obatKlaim",
          "type": "string"
        },
        {
          "internalType": "string",
          "name": "obatKomposisi",
          "type": "string"
        },
        {
          "internalType": "string",
          "name": "obatKemasan",
          "type": "string"
        },
        {
          "internalType": "string",
          "name": "numberNie",
          "type": "string"
        },
        {
          "internalType": "enum ObatTradisional.en_StatusObat",
          "name": "statusObat",
          "type": "uint8"
        }
      ],
      "stateMutability": "view",
      "type": "function"
    },
    {
      "inputs": [
        {
          "internalType": "string",
          "name": "_obatId",
          "type": "string"
        },
        {
          "internalType": "string",
          "name": "_pabrikName",
          "type": "string"
        },
        {
          "internalType": "string",
          "name": "_obatName",
          "type": "string"
        },
        {
          "internalType": "string",
          "name": "_obatMerk",
          "type": "string"
        },
        {
          "internalType": "string",
          "name": "_obatKlaim",
          "type": "string"
        },
        {
          "internalType": "string",
          "name": "_obatKomposisi",
          "type": "string"
        },
        {
          "internalType": "string",
          "name": "_obatKemasan",
          "type": "string"
        }
      ],
      "name": "obat_production",
      "outputs": [],
      "stateMutability": "nonpayable",
      "type": "function"
    }
  ],
  "bytecode": "0x60808060405234601557611216908161001b8239f35b600080fdfe608080604052600436101561001357600080fd5b60003560e01c9081630e96e278146104695750806349bd96721461036057806375711f491461025e578063a6dddde3146100c05763c723c1911461005657600080fd5b346100bb5760203660031901126100bb576004356000548110156100bb5761007d9061115e565b6100a55761008d6100a191610fe6565b604051918291602083526020830190610f04565b0390f35b634e487b7160e01b600052600060045260246000fd5b600080fd5b346100bb5760203660031901126100bb576004356001600160401b0381116100bb576100f26020913690600401610eb4565b91908260405193849283378101600181520301902060405161011381610f29565b81546001600160a01b039081168252600183015416602082019081529061013c60028401610fe6565b9260408201938452600381015491606081019283526004820154916080820192835261016a60058201610fe6565b60a0830190815261017d60068301610fe6565b60c0840190815261019060078401610fe6565b60e085019081526101a360088501610fe6565b9061010086019182526101b860098601610fe6565b9261012087019384526101cd600a8701610fe6565b94610140880195865260ff600c6101e6600b8a01610fe6565b986101608b01998a520154169761018081019860038110156102485798899052519a519b519951985190519151925193519451955196516001600160a01b039c8d169c909b169a979860038a1015610248576100a19a6040519d8e9d8e61108a565b634e487b7160e01b600052602160045260246000fd5b346100bb5760203660031901126100bb576004356001600160401b0381116100bb57366023820112156100bb5760206102a46102b7923690602481600401359101610f66565b8160405193828580945193849201610ee1565b8101600181520301902060018060a01b038154166100a160018060a01b03600184015416926102e860028201610fe6565b90600381015460048201546102ff60058401610fe6565b61030b60068501610fe6565b61031760078601610fe6565b9061032460088701610fe6565b9261033160098801610fe6565b9461033e600a8901610fe6565b9660ff600c61034f600b8c01610fe6565b9a015416996040519d8e9d8e61108a565b346100bb5760003660031901126100bb576000546001600160401b038111610453576040519061039660208260051b0183610f45565b808252602082019081600080527f290decd9548b62a8d60345a988386fc84ba6bc95484008f6362f93160ef3e5636000915b83831061043657848660405191829160208301906020845251809152604083019060408160051b85010192916000905b82821061040757505050500390f35b919360019193955060206104268192603f198a82030186528851610f04565b96019201920185949391926103f8565b60016020819261044585610fe6565b8152019201920191906103c8565b634e487b7160e01b600052604160045260246000fd5b346100bb5760e03660031901126100bb576004356001600160401b0381116100bb57610499903690600401610eb4565b90916024356001600160401b0381116100bb576104ba903690600401610eb4565b92906044356001600160401b0381116100bb576104db903690600401610eb4565b9390916064356001600160401b0381116100bb576104fd903690600401610eb4565b906084356001600160401b0381116100bb5761051d903690600401610eb4565b60a4356001600160401b0381116100bb5761053c903690600401610eb4565b93909460c4356001600160401b0381116100bb5761055e903690600401610eb4565b9790988b15610e7d57506040519c6105758e610f29565b8d33815260200160009052369061058b92610f66565b60408d0152600060608d0181905260808d01526105a9368c8b610f66565b60a08d01526105b9368b8f610f66565b60c08d015236906105c992610f66565b60e08b015236906105d992610f66565b61010089015236906105ea92610f66565b61012087015236906105fb92610f66565b61014085015260409182516106108482610f45565b60018152600160fd1b6020820152610160860152600061018086015282518187823760018282018181526020908390038101909220875181546001600160a01b03199081166001600160a01b039283161783559389015192820180549094169216919091179091556040860151805160028301916001600160401b038211610453576106a6826106a08554610fac565b8561118e565b602090601f8311600114610e16576106d7929160009183610ba1575b50508160011b916000199060031b1c19161790565b90555b60608601516003820155608086015160048201556005810160a08701518051906001600160401b03821161045357610716826106a08554610fac565b602090601f8311600114610daf57610746929160009183610ba15750508160011b916000199060031b1c19161790565b90555b6006810160c08701518051906001600160401b03821161045357610771826106a08554610fac565b602090601f8311600114610d48576107a1929160009183610ba15750508160011b916000199060031b1c19161790565b90555b6007810160e08701518051906001600160401b038211610453576107cc826106a08554610fac565b602090601f8311600114610ce1576107fc929160009183610ba15750508160011b916000199060031b1c19161790565b90555b600881016101008701518051906001600160401b03821161045357610828826106a08554610fac565b602090601f8311600114610c7a57610858929160009183610ba15750508160011b916000199060031b1c19161790565b90555b600981016101208701518051906001600160401b03821161045357610884826106a08554610fac565b602090601f8311600114610c13576108b4929160009183610ba15750508160011b916000199060031b1c19161790565b90555b600a81016101408701518051906001600160401b038211610453576108e0826106a08554610fac565b602090601f8311600114610bac57610910929160009183610ba15750508160011b916000199060031b1c19161790565b90555b600b81016101608701518051906001600160401b0382116104535761093c826106a08554610fac565b602090601f8311600114610b3357826101809593600c959361097493600092610b285750508160011b916000199060031b1c19161790565b90555b019501519460038610156102485760009560ff80198354169116179055845468010000000000000000811015610b00578060016109b69201875561115e565b969096610b14576001600160401b038211610b00576109df826109d98954610fac565b8961118e565b8596601f8311600114610a7c57610a318380899a7f11419415138c694473a0c3f4f8e450395791888ab0252860facc797811dbe66898999a91610a71575b508160011b916000199060031b1c19161790565b90555b818551928392833781018781520390209284815192602084528160208501528284013785818684010152813395601f80199101168101030190a380f35b90508401358b610a1d565b80875260208720601f19841698885b8a8110610ae85750847f11419415138c694473a0c3f4f8e450395791888ab0252860facc797811dbe6689798999a10610ace575b5050600183811b019055610a34565b830135600019600386901b60f8161c191690558880610abf565b90916020600181928588013581550193019101610a8b565b634e487b7160e01b86526041600452602486fd5b634e487b7160e01b86526004869052602486fd5b015190508d806106c2565b90601f1983169184600052816000209260005b818110610b8957509260019285926101809896600c989610610b70575b505050811b019055610977565b015160001960f88460031b161c191690558c8080610b63565b92936020600181928786015181550195019301610b46565b015190508b806106c2565b90601f1983169184600052816000209260005b818110610bfb5750908460019594939210610be2575b505050811b019055610913565b015160001960f88460031b161c191690558a8080610bd5565b92936020600181928786015181550195019301610bbf565b90601f1983169184600052816000209260005b818110610c625750908460019594939210610c49575b505050811b0190556108b7565b015160001960f88460031b161c191690558a8080610c3c565b92936020600181928786015181550195019301610c26565b90601f1983169184600052816000209260005b818110610cc95750908460019594939210610cb0575b505050811b01905561085b565b015160001960f88460031b161c191690558a8080610ca3565b92936020600181928786015181550195019301610c8d565b90601f1983169184600052816000209260005b818110610d305750908460019594939210610d17575b505050811b0190556107ff565b015160001960f88460031b161c191690558a8080610d0a565b92936020600181928786015181550195019301610cf4565b90601f1983169184600052816000209260005b818110610d975750908460019594939210610d7e575b505050811b0190556107a4565b015160001960f88460031b161c191690558a8080610d71565b92936020600181928786015181550195019301610d5b565b90601f1983169184600052816000209260005b818110610dfe5750908460019594939210610de5575b505050811b019055610749565b015160001960f88460031b161c191690558a8080610dd8565b92936020600181928786015181550195019301610dc2565b90601f1983169184600052816000209260005b818110610e655750908460019594939210610e4c575b505050811b0190556106da565b015160001960f88460031b161c191690558a8080610e3f565b92936020600181928786015181550195019301610e29565b62461bcd60e51b8152602060048201526012602482015271125b9d985b1a590814995c5d595cdd08125160721b6044820152606490fd5b9181601f840112156100bb578235916001600160401b0383116100bb57602083818601950101116100bb57565b60005b838110610ef45750506000910152565b8181015183820152602001610ee4565b90602091610f1d81518092818552858086019101610ee1565b601f01601f1916010190565b6101a081019081106001600160401b0382111761045357604052565b90601f801991011681019081106001600160401b0382111761045357604052565b9291926001600160401b0382116104535760405191610f8f601f8201601f191660200184610f45565b8294818452818301116100bb578281602093846000960137010152565b90600182811c92168015610fdc575b6020831014610fc657565b634e487b7160e01b600052602260045260246000fd5b91607f1691610fbb565b9060405191826000825492610ffa84610fac565b80845293600181169081156110685750600114611021575b5061101f92500383610f45565b565b90506000929192526020600020906000915b81831061104c57505090602061101f9282010138611012565b6020919350806001915483858901015201910190918492611033565b90506020925061101f94915060ff191682840152151560051b82010138611012565b61112f97819f9e9d9b9761113e9b966110f59161114d9f9c96996110dd611111996111209c6111039960018060a01b0316895260018060a01b031660208901526101a060408901526101a0880190610f04565b926060870152608086015284820360a0860152610f04565b9160c0818403910152610f04565b8d810360e08f015290610f04565b908b82036101008d0152610f04565b908982036101208b0152610f04565b90878203610140890152610f04565b90858203610160870152610f04565b926003821015610248576101800152565b600054811015611178576000805260206000200190600090565b634e487b7160e01b600052603260045260246000fd5b601f821161119b57505050565b6000526020600020906020601f840160051c830193106111d6575b601f0160051c01905b8181106111ca575050565b600081556001016111bf565b90915081906111b656fea2646970667358221220f5e84e5204ea5d7f8a48500be190c3a1bb2df1f991c9547766e3247bf303e8d364736f6c634300081b0033",
  "linkReferences": {},
  "deployedLinkReferences": {}
}