{
  "_format": "hh-sol-artifact-1",
  "contractName": "ObatTradisional",
  "sourceName": "contracts/ObatTradisional.sol",
  "abi": [
    {
      "inputs": [
        {
          "internalType": "address",
          "name": "_roleManagerAddr",
          "type": "address"
        },
        {
          "internalType": "address",
          "name": "_mainSupplyChainAddr",
          "type": "address"
        },
        {
          "internalType": "address",
          "name": "_obatSharedAddr",
          "type": "address"
        }
      ],
      "stateMutability": "nonpayable",
      "type": "constructor"
    },
    {
      "anonymous": false,
      "inputs": [
        {
          "indexed": false,
          "internalType": "string",
          "name": "batchName",
          "type": "string"
        },
        {
          "indexed": false,
          "internalType": "uint8",
          "name": "quantity",
          "type": "uint8"
        },
        {
          "indexed": false,
          "internalType": "string",
          "name": "namaProduk",
          "type": "string"
        },
        {
          "indexed": false,
          "internalType": "string",
          "name": "factoryInstance",
          "type": "string"
        }
      ],
      "name": "evt_addBatchProduction",
      "type": "event"
    },
    {
      "anonymous": false,
      "inputs": [
        {
          "indexed": false,
          "internalType": "string",
          "name": "bpomInstance",
          "type": "string"
        },
        {
          "indexed": false,
          "internalType": "address",
          "name": "bpomAddr",
          "type": "address"
        },
        {
          "indexed": false,
          "internalType": "string",
          "name": "nieNumber",
          "type": "string"
        },
        {
          "indexed": false,
          "internalType": "uint256",
          "name": "timestampApproved",
          "type": "uint256"
        }
      ],
      "name": "evt_nieApproved",
      "type": "event"
    },
    {
      "anonymous": false,
      "inputs": [
        {
          "indexed": false,
          "internalType": "string",
          "name": "factoryInstance",
          "type": "string"
        },
        {
          "indexed": false,
          "internalType": "address",
          "name": "factoryAddr",
          "type": "address"
        },
        {
          "indexed": false,
          "internalType": "uint256",
          "name": "timestampRequest",
          "type": "uint256"
        }
      ],
      "name": "evt_nieRequested",
      "type": "event"
    },
    {
      "anonymous": false,
      "inputs": [
        {
          "indexed": false,
          "internalType": "string",
          "name": "namaProduk",
          "type": "string"
        },
        {
          "indexed": false,
          "internalType": "uint256",
          "name": "tipeObat",
          "type": "uint256"
        },
        {
          "indexed": false,
          "internalType": "string",
          "name": "factoryInstance",
          "type": "string"
        },
        {
          "indexed": false,
          "internalType": "address",
          "name": "factoryAddresses",
          "type": "address"
        }
      ],
      "name": "evt_obatCreated",
      "type": "event"
    },
    {
      "inputs": [
        {
          "internalType": "string",
          "name": "_obatId",
          "type": "string"
        },
        {
          "internalType": "string",
          "name": "_namaProduk",
          "type": "string"
        },
        {
          "internalType": "string",
          "name": "_batchName",
          "type": "string"
        },
        {
          "internalType": "uint8",
          "name": "_obatQuantity",
          "type": "uint8"
        },
        {
          "internalType": "string[]",
          "name": "_obatIpfsHash",
          "type": "string[]"
        },
        {
          "internalType": "string",
          "name": "_factoryInstance",
          "type": "string"
        }
      ],
      "name": "addBatchProduction",
      "outputs": [],
      "stateMutability": "nonpayable",
      "type": "function"
    },
    {
      "inputs": [
        {
          "internalType": "uint256",
          "name": "",
          "type": "uint256"
        }
      ],
      "name": "allObatIds",
      "outputs": [
        {
          "internalType": "string",
          "name": "",
          "type": "string"
        }
      ],
      "stateMutability": "view",
      "type": "function"
    },
    {
      "inputs": [
        {
          "internalType": "string",
          "name": "_obatId",
          "type": "string"
        },
        {
          "internalType": "string",
          "name": "_nieNumber",
          "type": "string"
        },
        {
          "internalType": "string",
          "name": "_instanceName",
          "type": "string"
        }
      ],
      "name": "approveNie",
      "outputs": [],
      "stateMutability": "nonpayable",
      "type": "function"
    },
    {
      "inputs": [
        {
          "internalType": "string",
          "name": "_obatId",
          "type": "string"
        },
        {
          "internalType": "string",
          "name": "_merk",
          "type": "string"
        },
        {
          "internalType": "string",
          "name": "_namaProduk",
          "type": "string"
        },
        {
          "internalType": "string[]",
          "name": "_klaim",
          "type": "string[]"
        },
        {
          "internalType": "string",
          "name": "_kemasan",
          "type": "string"
        },
        {
          "internalType": "string[]",
          "name": "_komposisi",
          "type": "string[]"
        },
        {
          "internalType": "string",
          "name": "_factoryInstance",
          "type": "string"
        },
        {
          "internalType": "enum EnumsLibrary.TipeProduk",
          "name": "_tipeProduk",
          "type": "uint8"
        },
        {
          "internalType": "enum EnumsLibrary.TipePermohonanCdob",
          "name": "_tipeObat",
          "type": "uint8"
        },
        {
          "internalType": "string",
          "name": "_cpotbIpfs",
          "type": "string"
        }
      ],
      "name": "createObat",
      "outputs": [],
      "stateMutability": "nonpayable",
      "type": "function"
    },
    {
      "inputs": [
        {
          "internalType": "string",
          "name": "_obatId",
          "type": "string"
        },
        {
          "internalType": "string",
          "name": "_batchName",
          "type": "string"
        }
      ],
      "name": "detailBatchProduction",
      "outputs": [
        {
          "components": [
            {
              "internalType": "enum EnumsLibrary.ObatAvailability",
              "name": "statusStok",
              "type": "uint8"
            },
            {
              "internalType": "string",
              "name": "namaProduk",
              "type": "string"
            },
            {
              "internalType": "string",
              "name": "batchName",
              "type": "string"
            },
            {
              "internalType": "uint8",
              "name": "obatQuantity",
              "type": "uint8"
            },
            {
              "internalType": "string",
              "name": "factoryInstance",
              "type": "string"
            }
          ],
          "internalType": "struct ObatShared.st_obatProduction",
          "name": "",
          "type": "tuple"
        },
        {
          "internalType": "string[]",
          "name": "",
          "type": "string[]"
        }
      ],
      "stateMutability": "view",
      "type": "function"
    },
    {
      "inputs": [
        {
          "internalType": "string",
          "name": "_obatId",
          "type": "string"
        }
      ],
      "name": "detailObat",
      "outputs": [
        {
          "components": [
            {
              "internalType": "string",
              "name": "merk",
              "type": "string"
            },
            {
              "internalType": "string",
              "name": "namaProduk",
              "type": "string"
            },
            {
              "internalType": "string[]",
              "name": "klaim",
              "type": "string[]"
            },
            {
              "internalType": "string[]",
              "name": "komposisi",
              "type": "string[]"
            },
            {
              "internalType": "string",
              "name": "kemasan",
              "type": "string"
            },
            {
              "internalType": "enum EnumsLibrary.TipeProduk",
              "name": "tipeProduk",
              "type": "uint8"
            },
            {
              "internalType": "string",
              "name": "factoryInstance",
              "type": "string"
            },
            {
              "internalType": "address",
              "name": "factoryAddr",
              "type": "address"
            },
            {
              "internalType": "enum EnumsLibrary.TipePermohonanCdob",
              "name": "tipeObat",
              "type": "uint8"
            },
            {
              "internalType": "string",
              "name": "cpotbHash",
              "type": "string"
            },
            {
              "internalType": "string",
              "name": "cdobHash",
              "type": "string"
            }
          ],
          "internalType": "struct ObatShared.st_obatDetails",
          "name": "",
          "type": "tuple"
        },
        {
          "components": [
            {
              "internalType": "string",
              "name": "nieNumber",
              "type": "string"
            },
            {
              "internalType": "enum EnumsLibrary.NieStatus",
              "name": "nieStatus",
              "type": "uint8"
            },
            {
              "internalType": "uint256",
              "name": "timestampProduction",
              "type": "uint256"
            },
            {
              "internalType": "uint256",
              "name": "timestampNieRequest",
              "type": "uint256"
            },
            {
              "internalType": "uint256",
              "name": "timestampNieApprove",
              "type": "uint256"
            },
            {
              "internalType": "string",
              "name": "bpomInstance",
              "type": "string"
            },
            {
              "internalType": "address",
              "name": "bpomAddr",
              "type": "address"
            }
          ],
          "internalType": "struct ObatTradisional.st_obatNie",
          "name": "",
          "type": "tuple"
        }
      ],
      "stateMutability": "view",
      "type": "function"
    },
    {
      "inputs": [
        {
          "internalType": "string",
          "name": "_instanceName",
          "type": "string"
        }
      ],
      "name": "getAllBatchProductionByInstance",
      "outputs": [
        {
          "components": [
            {
              "internalType": "string",
              "name": "obatId",
              "type": "string"
            },
            {
              "internalType": "string",
              "name": "namaProduk",
              "type": "string"
            },
            {
              "internalType": "string",
              "name": "batchName",
              "type": "string"
            },
            {
              "internalType": "uint8",
              "name": "obatQuantity",
              "type": "uint8"
            },
            {
              "internalType": "enum EnumsLibrary.ObatAvailability",
              "name": "statusStok",
              "type": "uint8"
            },
            {
              "internalType": "string",
              "name": "ownerInstance",
              "type": "string"
            }
          ],
          "internalType": "struct ObatTradisional.st_obatOutputBatch[]",
          "name": "",
          "type": "tuple[]"
        }
      ],
      "stateMutability": "view",
      "type": "function"
    },
    {
      "inputs": [],
      "name": "getAllBatchProductionReadyStock",
      "outputs": [
        {
          "components": [
            {
              "internalType": "string",
              "name": "obatId",
              "type": "string"
            },
            {
              "internalType": "string",
              "name": "namaProduk",
              "type": "string"
            },
            {
              "internalType": "string",
              "name": "batchName",
              "type": "string"
            },
            {
              "internalType": "uint8",
              "name": "obatQuantity",
              "type": "uint8"
            },
            {
              "internalType": "enum EnumsLibrary.ObatAvailability",
              "name": "statusStok",
              "type": "uint8"
            },
            {
              "internalType": "string",
              "name": "ownerInstance",
              "type": "string"
            }
          ],
          "internalType": "struct ObatTradisional.st_obatOutputBatch[]",
          "name": "",
          "type": "tuple[]"
        }
      ],
      "stateMutability": "view",
      "type": "function"
    },
    {
      "inputs": [],
      "name": "getAllObat",
      "outputs": [
        {
          "components": [
            {
              "internalType": "string",
              "name": "obatId",
              "type": "string"
            },
            {
              "internalType": "string",
              "name": "namaProduk",
              "type": "string"
            },
            {
              "internalType": "string",
              "name": "nieNumber",
              "type": "string"
            },
            {
              "internalType": "enum EnumsLibrary.NieStatus",
              "name": "nieStatus",
              "type": "uint8"
            },
            {
              "internalType": "string",
              "name": "factoryInstance",
              "type": "string"
            }
          ],
          "internalType": "struct ObatTradisional.st_obatOutputNie[]",
          "name": "",
          "type": "tuple[]"
        }
      ],
      "stateMutability": "view",
      "type": "function"
    },
    {
      "inputs": [
        {
          "internalType": "string",
          "name": "_instanceName",
          "type": "string"
        }
      ],
      "name": "getAllObatByInstance",
      "outputs": [
        {
          "components": [
            {
              "internalType": "string",
              "name": "obatId",
              "type": "string"
            },
            {
              "internalType": "string",
              "name": "namaProduk",
              "type": "string"
            },
            {
              "internalType": "string",
              "name": "nieNumber",
              "type": "string"
            },
            {
              "internalType": "enum EnumsLibrary.NieStatus",
              "name": "nieStatus",
              "type": "uint8"
            },
            {
              "internalType": "string",
              "name": "factoryInstance",
              "type": "string"
            }
          ],
          "internalType": "struct ObatTradisional.st_obatOutputNie[]",
          "name": "",
          "type": "tuple[]"
        }
      ],
      "stateMutability": "view",
      "type": "function"
    },
    {
      "inputs": [
        {
          "internalType": "string",
          "name": "_instanceName",
          "type": "string"
        }
      ],
      "name": "getAllObatNameApprovedNie",
      "outputs": [
        {
          "components": [
            {
              "internalType": "string",
              "name": "obatId",
              "type": "string"
            },
            {
              "internalType": "string",
              "name": "namaProduk",
              "type": "string"
            }
          ],
          "internalType": "struct ObatTradisional.st_obatNameApprovedNie[]",
          "name": "",
          "type": "tuple[]"
        }
      ],
      "stateMutability": "view",
      "type": "function"
    },
    {
      "inputs": [
        {
          "internalType": "string",
          "name": "_factoryInstanceName",
          "type": "string"
        }
      ],
      "name": "getJenisSediaanAvail",
      "outputs": [
        {
          "components": [
            {
              "internalType": "string",
              "name": "ipfsCert",
              "type": "string"
            },
            {
              "internalType": "uint8",
              "name": "tipePermohonan",
              "type": "uint8"
            }
          ],
          "internalType": "struct MainSupplyChain.st_approvedCert[]",
          "name": "",
          "type": "tuple[]"
        }
      ],
      "stateMutability": "view",
      "type": "function"
    },
    {
      "inputs": [],
      "name": "mainSupplyChain",
      "outputs": [
        {
          "internalType": "contract MainSupplyChain",
          "name": "",
          "type": "address"
        }
      ],
      "stateMutability": "view",
      "type": "function"
    },
    {
      "inputs": [
        {
          "internalType": "string",
          "name": "",
          "type": "string"
        }
      ],
      "name": "obatNieById",
      "outputs": [
        {
          "internalType": "string",
          "name": "nieNumber",
          "type": "string"
        },
        {
          "internalType": "enum EnumsLibrary.NieStatus",
          "name": "nieStatus",
          "type": "uint8"
        },
        {
          "internalType": "uint256",
          "name": "timestampProduction",
          "type": "uint256"
        },
        {
          "internalType": "uint256",
          "name": "timestampNieRequest",
          "type": "uint256"
        },
        {
          "internalType": "uint256",
          "name": "timestampNieApprove",
          "type": "uint256"
        },
        {
          "internalType": "string",
          "name": "bpomInstance",
          "type": "string"
        },
        {
          "internalType": "address",
          "name": "bpomAddr",
          "type": "address"
        }
      ],
      "stateMutability": "view",
      "type": "function"
    },
    {
      "inputs": [
        {
          "internalType": "string",
          "name": "",
          "type": "string"
        },
        {
          "internalType": "uint256",
          "name": "",
          "type": "uint256"
        }
      ],
      "name": "obatProductNameApprovedByFactory",
      "outputs": [
        {
          "internalType": "string",
          "name": "obatId",
          "type": "string"
        },
        {
          "internalType": "string",
          "name": "namaProduk",
          "type": "string"
        }
      ],
      "stateMutability": "view",
      "type": "function"
    },
    {
      "inputs": [],
      "name": "obatShared",
      "outputs": [
        {
          "internalType": "contract ObatShared",
          "name": "",
          "type": "address"
        }
      ],
      "stateMutability": "view",
      "type": "function"
    },
    {
      "inputs": [
        {
          "internalType": "string",
          "name": "_obatId",
          "type": "string"
        },
        {
          "internalType": "string",
          "name": "_factoryInstance",
          "type": "string"
        }
      ],
      "name": "requestNie",
      "outputs": [],
      "stateMutability": "nonpayable",
      "type": "function"
    },
    {
      "inputs": [],
      "name": "roleManager",
      "outputs": [
        {
          "internalType": "contract RoleManager",
          "name": "",
          "type": "address"
        }
      ],
      "stateMutability": "view",
      "type": "function"
    }
  ],
  "bytecode": "0x60803460a357601f612f8538819003918201601f19168301916001600160401b0383118484101760a85780849260609460405283398101031260a35760428160be565b906057604060516020840160be565b920160be565b600080546001600160a01b039485166001600160a01b031991821617909155600180549385169382169390931790925560028054919093169116179055604051612eb390816100d28239f35b600080fd5b634e487b7160e01b600052604160045260246000fd5b51906001600160a01b038216820360a35756fe608080604052600436101561001357600080fd5b600090813560e01c908162435da514611f185750806306e3aa3114611a7f5780631bbd28f9146117775780633fca88cb1461174e5780634d17d273146114b257806350168fbb146112bd5780635162659c146111f05780635425368114610f6257806365e90bcc14610eb85780636b0a3fe514610d735780639413fcfd14610d4a578063a1e0a4b014610d22578063baeedfad14610a14578063cb960d6b146109ad578063d44faa63146107b9578063e521d58614610557578063e8982035146104315763f21dea86146100e657600080fd5b3461042e57606036600319011261042e576004356001600160401b03811161042c57610116903690600401612016565b6024356001600160401b03811161042857610135903690600401612016565b6044356001600160401b03811161042457610154903690600401612016565b83546040516395a8c58d60e01b81523360048201526002602482015291939190602090829060449082906001600160a01b03165afa80156103ea576101a09186916103f5575b50612b08565b600161026960206040516101d48760058751938581818b01966101c481838a6120f7565b81016004815203019020016124f2565b6006604051838188516101e88183886120f7565b8101600481520301902001848060a01b0333166bffffffffffffffffffffffff60a01b82541617905561023686604051848189516102278183896120f7565b810160048152030190206124f2565b604051600486516102488184866120f7565b820191818352848142940301902001556040518093819287519283916120f7565b8101600481520301902001600260ff1982541617905560018060a01b0360025416846040518092636b2c133960e11b82526020600483015281806102b0602482018861211a565b03915afa9081156103ea5785916103c8575b506102f9602060c081840151930151604051946102de86611fa4565b855281850193845281604051938285809451938492016120f7565b81016005815203019020805490600160401b8210156103b4579061032291600182018155612452565b9290926103a0579261036c7f40bd250f4e1cad69631af5d42189453e9c51f25278bd4232fe29ed01aa2f6ee495936001610394946103646103809851846124f2565b5191016124f2565b60405193849360808552608085019061211a565b90336020850152838203604085015261211a565b4260608301520390a180f35b634e487b7160e01b86526004869052602486fd5b634e487b7160e01b87526041600452602487fd5b6103e491503d8087833e6103dc8183611fda565b810190612900565b386102c2565b6040513d87823e3d90fd5b610417915060203d60201161041d575b61040f8183611fda565b81019061249f565b3861019a565b503d610405565b8380fd5b8280fd5b505b80fd5b503461042e5761044036612405565b82546040516395a8c58d60e01b815233600482015260006024820152929190602090849060449082906001600160a01b03165afa91821561054c576104f360206001926104b961051d967fb15dd5852a569d549821835c26451fad3d4015817430a7f3e7557f6875389353988a9161052f575b506124b7565b604051908051916003848301936104d18184876120f7565b82019160048352858142940301902001556040519384928392519283916120f7565b8101600481520301902001600160ff1982541617905560405191829160608352606083019061211a565b3360208301524260408301520390a180f35b6105469150843d861161041d5761040f8183611fda565b386104b3565b6040513d86823e3d90fd5b503461042e5760c036600319011261042e576004356001600160401b03811161042c57610588903690600401612016565b6024356001600160401b038111610428576105a7903690600401612016565b6044356001600160401b038111610424576105c6903690600401612016565b906064359060ff821680920361079157846084356001600160401b03811161042c576105f6903690600401612079565b60a4356001600160401b03811161042857610615903690600401612016565b82546040516395a8c58d60e01b81523360048201526000602482015291979190602090829060449082906001600160a01b03165afa801561054c576106609185916107a057506124b7565b6002546001600160a01b031691823b15610424576106c1926106af8580946106fd6106eb8a966106d38e6040519b8c9a8b998a98637290eac360e11b8a5260c060048b015260c48a019061211a565b8881036003190160248a01529061211a565b8681036003190160448801529061211a565b908d6064860152600319858303016084860152612229565b8281036003190160a48401528d61211a565b03925af1801561079557610776575b5092610770856107627f48086aa029a355c9dd13e9f17292a5cc49f3b533bf3324ad5a543814b0ff5f139561074f9560405196879660808852608088019061211a565b916020870152858203604087015261211a565b90838203606085015261211a565b0390a180f35b816107849195949395611fda565b610791579091843861070c565b8480fd5b6040513d84823e3d90fd5b610546915060203d60201161041d5761040f8183611fda565b503461042e57602036600319011261042e57600435816001600160401b03821161042e576107ee61081c923690600401612016565b60018060a01b0360015416604051808095819463e49d032760e01b835260206004840152602483019061211a565b03915afa9081156107955782916108ac575b50906040519182916020830160208452825180915260408401602060408360051b870101940192905b82821061086657505050500390f35b919360019193955060208091603f198982030185528751908260ff81610895855160408652604086019061211a565b940151169101529601920192018594939192610857565b90503d8083833e6108bd8183611fda565b810190602081830312610428578051906001600160401b038211610424570181601f82011215610428578051906108f382612062565b926109016040519485611fda565b82845260208085019360051b830101918183116109a95760208101935b8385106109305750505050503861082e565b84516001600160401b0381116109a5578201906040828503601f1901126109a5576040519061095e82611fa4565b6020830151916001600160401b0383116109a15761099260408561098a8960208099988199010161267f565b8452016126c1565b8382015281520194019361091e565b8980fd5b8780fd5b8580fd5b503461042e57602036600319011261042e5760043560035481101561042c576109d590612484565b919091610a00576109fc6109e883612361565b60405191829160208352602083019061211a565b0390f35b634e487b7160e01b81526004819052602490fd5b503461042e57602036600319011261042e576004356001600160401b03811161042c57610a45903690600401612016565b81546040516395a8c58d60e01b81523360048201526000602482015290602090829060449082906001600160a01b03165afa8015610d1757610a8d9184916107a057506124b7565b6003546002546020830192906001600160a01b031684805b848110610c465750610ab690612b40565b938591865b858110610ad057604051806109fc898261228c565b610ae2610adc82612484565b50612361565b604051636b2c133960e11b815260206004820152898180610b06602482018661211a565b0381875afa908115610c3b578a91610c21575b50610b416040516020818551610b328183858a016120f7565b81016004815203019020612a95565b9060c08101908151604051610b7760208281610b6681830196878151938492016120f7565b81010301601f198101835282611fda565b519020878a610b9860206040518093610b66838301968792519283916120f7565b51902014610bad575b50505050600101610abb565b91610c179391602060019699940151916020815191015191610bce83612282565b519260405194610bdd86611f89565b855260208501526040840152610bf281612282565b60608301526080820152610c06828b612810565b52610c11818a612810565b50612824565b9390388080610ba1565b610c3591503d808c833e6103dc8183611fda565b38610b19565b6040513d8c823e3d90fd5b610c7887610c56610adc84612484565b60405180938192636b2c133960e11b835260206004840152602483019061211a565b0381875afa8015610d0c5760c0918991610cf2575b500151604051610cad60208281610b6681830196878151938492016120f7565b5190206040516020810190610ccd60208284610b668d8c519283916120f7565b51902014610cde575b600101610aa5565b90610cea600191612824565b919050610cd6565b610d0691503d808b833e6103dc8183611fda565b38610c8d565b6040513d8a823e3d90fd5b6040513d85823e3d90fd5b503461042e578060031936011261042e576109fc610d3e612bdf565b6040519182918261215f565b503461042e578060031936011261042e576001546040516001600160a01b039091168152602090f35b503461042e57602036600319011261042e576004356001600160401b03811161042c576020610da9610dbc923690600401612016565b81604051938285809451938492016120f7565b810160058152030190208054610dd181612062565b90610ddf6040519283611fda565b80825260208201809385526020852085915b838310610e7d57868587604051928392602084019060208552518091526040840160408260051b8601019392905b828210610e2e57505050500390f35b91936001919395506020610e6d8192603f198a820301865288519083610e5d835160408452604084019061211a565b920151908481840391015261211a565b9601920192018594939192610e1f565b60026020600192604051610e9081611fa4565b610e9986612361565b8152610ea6858701612361565b83820152815201920192019190610df1565b503461042e57604036600319011261042e576004356001600160401b03811161042c57610ee9903690600401612016565b90610f0660206024359381604051938285809451938492016120f7565b8101600581520301902090815483101561042e57610f54610f278484612452565b506109fc610f406001610f3984612361565b9301612361565b60405193849360408552604085019061211a565b90838203602085015261211a565b503461042e57610f7136612405565b610f79612bb3565b506002546040516346abdd0560e11b8152602060048201526001600160a01b0390911692849082908190610fb190602483019061211a565b0381865afa90811561054c5784916111ce575b50610fcd612bb3565b928460405180926330804c3160e11b8252602060048301528180610ff4602482018961211a565b03915afa9081156103ea57859161118d575b509160405161102560208281610b6681830196878151938492016120f7565b519020845b8251811015611185578160406110408386612810565b51015160405161106060208281610b6681830196878151938492016120f7565b519020146110705760010161102a565b91905061107e929350612810565b51905b82546040516395a8c58d60e01b81523360048201526001602482015290602090829060449082906001600160a01b03165afa90811561054c57936109fc9291611140958291611166575b5061114e575b506040519384936040855280516110e78161213f565b6040860152608061111f61110a602084015160a060608a015260e089019061211a565b6040840151888203603f1901848a015261211a565b606083015160ff1660a0880152910151858203603f190160c087015261211a565b908382036020850152612229565b604051915061115e602083611fda565b8152386110d1565b61117f915060203d60201161041d5761040f8183611fda565b386110cb565b505050611081565b90503d8086833e61119e8183611fda565b81016020828203126109a95781516001600160401b0381116111ca576111c49201612882565b38611006565b8680fd5b6111ea91503d8086833e6111e28183611fda565b8101906126cf565b38610fc4565b503461042e57602036600319011261042e57600435906001600160401b03821161042e576112886112296020610da93660048701612016565b8101600481520301902061123c81612361565b906112b360ff600183015416600283015492600381015460048201549061126560058401612361565b92600660018060a01b03910154169560405198899860e08a5260e08a019061211a565b9461129281612282565b602089015260408801526060870152608086015284820360a086015261211a565b9060c08301520390f35b503461042e578060031936011261042e5780546040516395a8c58d60e01b81523360048201526002602482015290602090829060449082906001600160a01b03165afa8015610795576113169183916103f55750612b08565b60035481825b828110611462575061132d90612b40565b6002546001600160a01b03169290919080805b83811061135557604051806109fc878261228c565b611361610adc82612484565b6113796040516020818451610b3281838589016120f7565b604051636b2c133960e11b81526020600482015284818061139d602482018761211a565b03818c5afa9081156103ea578591611448575b506020820180516113c081612282565b6113c981612282565b6113da575b50505050600101611340565b9181600195979360c0602061143e9795015193519151926113fa84612282565b0151926040519461140a86611f89565b85526020850152604084015261141f81612282565b606083015260808201526114338289612810565b52610c118188612810565b92903880806113ce565b61145c91503d8087833e6103dc8183611fda565b386113b0565b602061147a610b3282610da9610adc86999899612484565b015161148581612282565b61148e81612282565b61149e575b60010192919261131c565b906114aa600191612824565b919050611493565b503461042e57602036600319011261042e576004356001600160401b03811161042c576114e3903690600401612016565b60606101406040516114f481611f6d565b82815282602082015282604082015282808201528260808201528460a08201528260c08201528460e082015284610100820152826101208201520152611538612849565b50600254604051636b2c133960e11b8152602060048201529190839083906001600160a01b0316818061156e602482018761211a565b03915afa918215610d1757836116b09493611727575b5050610b3260206115a29281604051938285809451938492016120f7565b6040519283926040845261014061169b61165c61163261161c6116066115f06115da8b61016060408b519201526101a08d019061211a565b60208901518c8203603f190160608e015261211a565b60408801518b8203603f190160808d0152612229565b60608701518a8203603f190160a08c0152612229565b6080860151898203603f190160c08b015261211a565b60a08501516116408161213f565b60e089015260c0850151888203603f19016101008a015261211a565b60e08401516001600160a01b031661012088015261010084015161167f81612282565b87840152610120840151878203603f190161016089015261211a565b910151848203603f190161018086015261211a565b828103602084015260c06117136116d0845160e0855260e085019061211a565b60208501516116de81612282565b602085015260408501516040850152606085015160608501526080850151608085015260a085015184820360a086015261211a565b928101516001600160a01b03169101520390f35b6115a2929350611746610b32926020923d8091833e6103dc8183611fda565b939250611584565b503461042e578060031936011261042e576002546040516001600160a01b039091168152602090f35b503461042e57602036600319011261042e576004356001600160401b03811161042c576117a8903690600401612016565b81546040516395a8c58d60e01b81523360048201526000602482015290602090829060449082906001600160a01b03165afa8015610d17576117f09184916107a057506124b7565b816040516020810183519161181060208281880195610b668187896120f7565b5190209084926003549360018060a01b0360025416935b8582106119905750506118399061262f565b9361185660206040518093610b66838301968792519283916120f7565b51902090849085935b80851061187457604051806109fc888261215f565b9091929394611885610adc87612484565b92604051926346abdd0560e11b8452602060048501528884806118ab602482018961211a565b0381855afa938415611985578994611969575b5083511561195a57885b8451811015611947578760806118de8388612810565b5101516040516118fe60208281610b6681830196878151938492016120f7565b5190201461190f575b6001016118c8565b9561193f60019161192a6119238a89612810565b5189612e1a565b6119348288612810565b52610c118187612810565b969050611907565b50959493509150946001905b019361185f565b95949350915094600190611953565b61197e9194503d808b833e6111e28183611fda565b92386118be565b6040513d8b823e3d90fd5b93946119c9939295886119a7610adc859a95612484565b604051809781926346abdd0560e11b835260206004840152602483019061211a565b0381845afa948515611985578995611a63575b50845115611a5457885b8551811015611a41578660806119fc8389612810565b510151604051611a1c60208281610b6681830196878151938492016120f7565b51902014611a2d575b6001016119e6565b96611a39600191612824565b979050611a25565b50949196600191969394505b0190611827565b94919660019196939450611a4d565b611a789195503d808b833e6111e28183611fda565b93386119dc565b503461042e5761014036600319011261042e576004356001600160401b03811161042c57611ab1903690600401612016565b6024356001600160401b03811161042857611ad0903690600401612016565b6044356001600160401b03811161042457611aef903690600401612016565b916064356001600160401b03811161079157611b0f903690600401612079565b906084356001600160401b0381116109a957611b2f903690600401612016565b9160a4356001600160401b0381116111ca57611b4f903690600401612079565b60c4356001600160401b0381116109a557611b6e903690600401612016565b9360e435906002821015611f1457610104359660038810156109a157610124356001600160401b038111611f1057611baa903690600401612016565b8a546040516395a8c58d60e01b81523360048201526000602482015291939190602090829060449082906001600160a01b03165afa8015611f0557611bf5918d916107a057506124b7565b865115611ed3576002548b956001600160a01b0390911693843b156111ca578b9587938a936040519a8b998a988997630e595a0f60e31b89526004890161016090526101648901611c459161211a565b8881036003190160248a0152611c5a9161211a565b878103600319016044890152611c6f9161211a565b868103600319016064880152611c8491612229565b858103600319016084870152611c9991612229565b8481036003190160a4860152611cae9161211a565b90611cb88161213f565b60c48401528281036003190160e4840152611cd3908b61211a565b33610104840152611ce38c612282565b8b61012484015260031983820301610144840152611d009161211a565b03925af18015611ec857611eb4575b50611d18612849565b5060405190611d2682611f3c565b602091604051611d368482611fda565b8781528152600687611de98584018281526040850142815260608601848152608087019185835260405193611d6b8b86611fda565b86855260a0890194855260c08901968752611da9611d978c8c81604051938285809451938492016120f7565b8101600481520301902099518a6124f2565b600189019051611db881612282565b611dc181612282565b60ff8019835416911617905551600288015551600387015551600486015551600585016124f2565b51910180546001600160a01b0319166001600160a01b0392909216919091179055600354600160401b8110156103b457806001611e299201600355612484565b611ea05792611e9492611e62611e8196937fd6fdae7757673e302126c42cfc834b8fbda5720cf34a58943f28db1ff3e522da98966124f2565b611e6b83612282565b60ff60405196879660808852608088019061211a565b931690850152838203604085015261211a565b3360608301520390a180f35b634e487b7160e01b87526004879052602487fd5b85611ec191969296611fda565b9338611d0f565b6040513d88823e3d90fd5b60405162461bcd60e51b815260206004820152600a602482015269125b9d985b1a5908125160b21b6044820152606490fd5b6040513d8e823e3d90fd5b8a80fd5b8880fd5b90503461042c578160031936011261042c5790546001600160a01b03168152602090f35b60e081019081106001600160401b03821117611f5757604052565b634e487b7160e01b600052604160045260246000fd5b61016081019081106001600160401b03821117611f5757604052565b60a081019081106001600160401b03821117611f5757604052565b604081019081106001600160401b03821117611f5757604052565b60c081019081106001600160401b03821117611f5757604052565b90601f801991011681019081106001600160401b03821117611f5757604052565b6001600160401b038111611f5757601f01601f191660200190565b81601f8201121561205d5780359061202d82611ffb565b9261203b6040519485611fda565b8284526020838301011161205d57816000926020809301838601378301015290565b600080fd5b6001600160401b038111611f575760051b60200190565b9080601f8301121561205d57813561209081612062565b9261209e6040519485611fda565b81845260208085019260051b8201019183831161205d5760208201905b8382106120ca57505050505090565b81356001600160401b03811161205d576020916120ec87848094880101612016565b8152019101906120bb565b60005b83811061210a5750506000910152565b81810151838201526020016120fa565b90602091612133815180928185528580860191016120f7565b601f01601f1916010190565b6002111561214957565b634e487b7160e01b600052602160045260246000fd5b602081016020825282518091526040820191602060408360051b8301019401926000915b83831061219257505050505090565b909192939460208061221a600193603f1986820301875289519060a06121e96121d76121c7855160c0865260c086019061211a565b878601518582038987015261211a565b6040850151848203604086015261211a565b9260ff606082015116606084015260808101516122058161213f565b608084015201519060a081840391015261211a565b97019301930191939290612183565b9080602083519182815201916020808360051b8301019401926000915b83831061225557505050505090565b9091929394602080612273600193601f19868203018752895161211a565b97019301930191939290612246565b6003111561214957565b602081016020825282518091526040820191602060408360051b8301019401926000915b8383106122bf57505050505090565b9091929394602080612318600193603f1986820301875289519060806122f46121d76121c7855160a0865260a086019061211a565b92606081015161230381612282565b6060840152015190608081840391015261211a565b970193019301919392906122b0565b90600182811c92168015612357575b602083101461234157565b634e487b7160e01b600052602260045260246000fd5b91607f1691612336565b906040519182600082549261237584612327565b80845293600181169081156123e3575060011461239c575b5061239a92500383611fda565b565b90506000929192526020600020906000915b8183106123c757505090602061239a928201013861238d565b60209193508060019154838589010152019101909184926123ae565b90506020925061239a94915060ff191682840152151560051b8201013861238d565b90604060031983011261205d576004356001600160401b03811161205d578261243091600401612016565b91602435906001600160401b03821161205d5761244f91600401612016565b90565b805482101561246e5760005260206000209060011b0190600090565b634e487b7160e01b600052603260045260246000fd5b60035481101561246e57600360005260206000200190600090565b9081602091031261205d5751801515810361205d5790565b156124be57565b60405162461bcd60e51b815260206004820152600c60248201526b4f6e6c7920466163746f727960a01b6044820152606490fd5b91909182516001600160401b038111611f575761250f8254612327565b601f81116125b5575b506020601f82116001146125535781929394600092612548575b50508160011b916000199060031b1c1916179055565b015190503880612532565b601f1982169083600052806000209160005b81811061259d57509583600195969710612584575b505050811b019055565b015160001960f88460031b161c1916905538808061257a565b9192602060018192868b015181550194019201612565565b826000526020600020601f830160051c810191602084106125f3575b601f0160051c01905b8181106125e75750612518565b600081556001016125da565b90915081906125d1565b6040519061260a82611fbf565b606060a083828152826020820152826040820152600083820152600060808201520152565b9061263982612062565b6126466040519182611fda565b8281528092612657601f1991612062565b019060005b82811061266857505050565b6020906126736125fd565b8282850101520161265c565b81601f8201121561205d57805161269581611ffb565b926126a36040519485611fda565b8184526020828401011161205d5761244f91602080850191016120f7565b519060ff8216820361205d57565b60208183031261205d578051906001600160401b03821161205d57019080601f8301121561205d5781519161270383612062565b926127116040519485611fda565b80845260208085019160051b8301019183831161205d5760208101915b83831061273d57505050505090565b82516001600160401b03811161205d5782019060a0828703601f19011261205d576040519061276b82611f89565b6020830151600281101561205d57825260408301516001600160401b03811161205d5787602061279d9286010161267f565b602083015260608301516001600160401b03811161205d578760206127c49286010161267f565b60408301526127d5608084016126c1565b606083015260a0830151916001600160401b03831161205d576128008860208096958196010161267f565b608082015281520192019161272e565b805182101561246e5760209160051b010190565b60001981146128335760010190565b634e487b7160e01b600052601160045260246000fd5b6040519061285682611f3c565b600060c08360608152826020820152826040820152826060820152826080820152606060a08201520152565b9080601f8301121561205d57815161289981612062565b926128a76040519485611fda565b81845260208085019260051b8201019183831161205d5760208201905b8382106128d357505050505090565b81516001600160401b03811161205d576020916128f58784809488010161267f565b8152019101906128c4565b60208183031261205d578051906001600160401b03821161205d57016101608183031261205d576040519161293483611f6d565b81516001600160401b03811161205d578161295091840161267f565b835260208201516001600160401b03811161205d578161297191840161267f565b602084015260408201516001600160401b03811161205d5781612995918401612882565b604084015260608201516001600160401b03811161205d57816129b9918401612882565b606084015260808201516001600160401b03811161205d57816129dd91840161267f565b608084015260a0820151600281101561205d5760a084015260c08201516001600160401b03811161205d5781612a1491840161267f565b60c084015260e08201516001600160a01b038116810361205d5760e0840152610100820151600381101561205d576101008401526101208201516001600160401b03811161205d5781612a6891840161267f565b6101208401526101408201516001600160401b03811161205d57612a8c920161267f565b61014082015290565b90604051612aa281611f3c565b60c08193612aaf81612361565b835260ff600182015416612ac281612282565b6020840152600281015460408401526003810154606084015260048101546080840152612af160058201612361565b60a0840152600601546001600160a01b0316910152565b15612b0f57565b60405162461bcd60e51b81526020600482015260096024820152684f6e6c792042504f4d60b81b6044820152606490fd5b90612b4a82612062565b612b576040519182611fda565b8281528092612b68601f1991612062565b019060005b828110612b7957505050565b602090604051612b8881611f89565b6060815260608382015260606040820152600060608201526060608082015282828501015201612b6d565b60405190612bc082611f89565b6060608083600081528260208201528260408201526000838201520152565b6003546002546001600160a01b03166000805b838110612d4557508015612d0857612c0c9092919261262f565b906000906000935b818510612c2357505050905090565b612c2f610adc86612484565b91604051916346abdd0560e11b83526020600484015260008380612c56602482018861211a565b0381845afa928315612cfc57600093612ce1575b5060005b8351811015612cd057612c818185612810565b5151612c8c8161213f565b612c958161213f565b15612ca3575b600101612c6e565b94612cc8600191612cbe612cb78988612810565b5188612e1a565b610c06828b612810565b959050612c9b565b506001909601959092509050612c14565b612cf591933d8091833e6111e28183611fda565b9138612c6a565b6040513d6000823e3d90fd5b505060405190506000612d1c602083611fda565b81526000805b818110612d2e57505090565b602090612d396125fd565b82828601015201612d22565b9291612d7c91926000612d5a610adc87612484565b604051809581926346abdd0560e11b835260206004840152602483019061211a565b0381855afa928315612cfc57600093612dff575b50825115612df35760005b8351811015612de457612dae8185612810565b5151612db98161213f565b612dc28161213f565b15612dd0575b600101612d9b565b93612ddc600191612824565b949050612dc8565b50936001919392505b01612bf2565b93600191939250612ded565b612e1391933d8091833e6111e28183611fda565b9138612d90565b90612e236125fd565b50602081015190604081015160ff606083015116906080835193612e468561213f565b01519360405195612e5687611fbf565b8652602086015260408501526060840152612e708161213f565b608083015260a08201529056fea26469706673582212203f51fd12414de4636673782e562c03c2f0c84396d04d5f48fd63fedad3f99e4464736f6c634300081b0033",
  "linkReferences": {},
  "deployedLinkReferences": {}
}