{
  "_format": "hh-sol-artifact-1",
  "contractName": "ObatTradisional",
  "sourceName": "contracts/ObatTradisional.sol",
  "abi": [
    {
      "inputs": [
        {
          "internalType": "address",
          "name": "_roleManagerAddr",
          "type": "address"
        },
        {
          "internalType": "address",
          "name": "_mainSupplyChainAddr",
          "type": "address"
        }
      ],
      "stateMutability": "nonpayable",
      "type": "constructor"
    },
    {
      "anonymous": false,
      "inputs": [
        {
          "indexed": false,
          "internalType": "string",
          "name": "nieNumber",
          "type": "string"
        },
        {
          "indexed": false,
          "internalType": "string",
          "name": "namaProduk",
          "type": "string"
        }
      ],
      "name": "evt_nieApproved",
      "type": "event"
    },
    {
      "anonymous": false,
      "inputs": [
        {
          "indexed": false,
          "internalType": "string",
          "name": "obatId",
          "type": "string"
        },
        {
          "indexed": false,
          "internalType": "uint256",
          "name": "timestampRequested",
          "type": "uint256"
        },
        {
          "indexed": false,
          "internalType": "string",
          "name": "namaProduk",
          "type": "string"
        }
      ],
      "name": "evt_nieRequested",
      "type": "event"
    },
    {
      "anonymous": false,
      "inputs": [
        {
          "indexed": false,
          "internalType": "string",
          "name": "namaProduk",
          "type": "string"
        },
        {
          "indexed": false,
          "internalType": "string",
          "name": "factoryInstanceNames",
          "type": "string"
        },
        {
          "indexed": false,
          "internalType": "string",
          "name": "factoryUserNames",
          "type": "string"
        },
        {
          "indexed": false,
          "internalType": "address",
          "name": "factoryAddresses",
          "type": "address"
        },
        {
          "indexed": false,
          "internalType": "string",
          "name": "kemasan",
          "type": "string"
        },
        {
          "indexed": false,
          "internalType": "enum ObatTradisional.en_tipeProduk",
          "name": "en_tipeProduk",
          "type": "uint8"
        }
      ],
      "name": "evt_obatCreated",
      "type": "event"
    },
    {
      "anonymous": false,
      "inputs": [
        {
          "indexed": false,
          "internalType": "string",
          "name": "namaProduk",
          "type": "string"
        },
        {
          "indexed": false,
          "internalType": "uint8",
          "name": "quantity",
          "type": "uint8"
        },
        {
          "indexed": false,
          "internalType": "string",
          "name": "batchName",
          "type": "string"
        }
      ],
      "name": "evt_obatProduced",
      "type": "event"
    },
    {
      "inputs": [
        {
          "internalType": "uint256",
          "name": "",
          "type": "uint256"
        }
      ],
      "name": "allObatData",
      "outputs": [
        {
          "internalType": "string",
          "name": "obatId",
          "type": "string"
        },
        {
          "internalType": "string",
          "name": "merk",
          "type": "string"
        },
        {
          "internalType": "string",
          "name": "namaProduk",
          "type": "string"
        },
        {
          "internalType": "string",
          "name": "kemasan",
          "type": "string"
        },
        {
          "internalType": "enum ObatTradisional.en_tipeProduk",
          "name": "tipeProduk",
          "type": "uint8"
        },
        {
          "internalType": "enum ObatTradisional.en_nieStatus",
          "name": "obatStatus",
          "type": "uint8"
        },
        {
          "internalType": "uint256",
          "name": "nieRequestDate",
          "type": "uint256"
        },
        {
          "internalType": "uint256",
          "name": "nieApprovalDate",
          "type": "uint256"
        },
        {
          "internalType": "string",
          "name": "nieNumber",
          "type": "string"
        }
      ],
      "stateMutability": "view",
      "type": "function"
    },
    {
      "inputs": [
        {
          "internalType": "uint256",
          "name": "",
          "type": "uint256"
        }
      ],
      "name": "allProducedObat",
      "outputs": [
        {
          "internalType": "enum ObatTradisional.en_obatAvailability",
          "name": "statusStok",
          "type": "uint8"
        },
        {
          "internalType": "string",
          "name": "batchName",
          "type": "string"
        },
        {
          "internalType": "string",
          "name": "obatId",
          "type": "string"
        },
        {
          "internalType": "string",
          "name": "namaProduk",
          "type": "string"
        },
        {
          "internalType": "uint8",
          "name": "obatQuantity",
          "type": "uint8"
        },
        {
          "internalType": "string",
          "name": "factoryInstanceNames",
          "type": "string"
        }
      ],
      "stateMutability": "view",
      "type": "function"
    },
    {
      "inputs": [
        {
          "internalType": "string",
          "name": "_obatId",
          "type": "string"
        },
        {
          "internalType": "address",
          "name": "_bpomAddr",
          "type": "address"
        },
        {
          "internalType": "string",
          "name": "_bpomInstanceName",
          "type": "string"
        },
        {
          "internalType": "string",
          "name": "_bpomUserName",
          "type": "string"
        },
        {
          "internalType": "string",
          "name": "_nieNumber",
          "type": "string"
        }
      ],
      "name": "approveNie",
      "outputs": [],
      "stateMutability": "nonpayable",
      "type": "function"
    },
    {
      "inputs": [
        {
          "internalType": "string",
          "name": "",
          "type": "string"
        }
      ],
      "name": "bpomAddresses",
      "outputs": [
        {
          "internalType": "address",
          "name": "",
          "type": "address"
        }
      ],
      "stateMutability": "view",
      "type": "function"
    },
    {
      "inputs": [
        {
          "internalType": "string",
          "name": "",
          "type": "string"
        }
      ],
      "name": "bpomInstanceNames",
      "outputs": [
        {
          "internalType": "string",
          "name": "",
          "type": "string"
        }
      ],
      "stateMutability": "view",
      "type": "function"
    },
    {
      "inputs": [
        {
          "internalType": "string",
          "name": "",
          "type": "string"
        }
      ],
      "name": "bpomUserNames",
      "outputs": [
        {
          "internalType": "string",
          "name": "",
          "type": "string"
        }
      ],
      "stateMutability": "view",
      "type": "function"
    },
    {
      "inputs": [
        {
          "internalType": "string",
          "name": "_obatId",
          "type": "string"
        },
        {
          "internalType": "string",
          "name": "_merk",
          "type": "string"
        },
        {
          "internalType": "string",
          "name": "_namaProduk",
          "type": "string"
        },
        {
          "internalType": "string[]",
          "name": "_klaim",
          "type": "string[]"
        },
        {
          "internalType": "string",
          "name": "_kemasan",
          "type": "string"
        },
        {
          "internalType": "string[]",
          "name": "_komposisi",
          "type": "string[]"
        },
        {
          "internalType": "address",
          "name": "_factoryAddr",
          "type": "address"
        },
        {
          "internalType": "string",
          "name": "_factoryInstanceName",
          "type": "string"
        },
        {
          "internalType": "string",
          "name": "_factoryUserName",
          "type": "string"
        },
        {
          "internalType": "enum ObatTradisional.en_tipeProduk",
          "name": "_tipeProduk",
          "type": "uint8"
        }
      ],
      "name": "createObat",
      "outputs": [],
      "stateMutability": "nonpayable",
      "type": "function"
    },
    {
      "inputs": [
        {
          "internalType": "string",
          "name": "",
          "type": "string"
        }
      ],
      "name": "factoryAddresses",
      "outputs": [
        {
          "internalType": "address",
          "name": "",
          "type": "address"
        }
      ],
      "stateMutability": "view",
      "type": "function"
    },
    {
      "inputs": [
        {
          "internalType": "string",
          "name": "",
          "type": "string"
        }
      ],
      "name": "factoryInstanceNames",
      "outputs": [
        {
          "internalType": "string",
          "name": "",
          "type": "string"
        }
      ],
      "stateMutability": "view",
      "type": "function"
    },
    {
      "inputs": [
        {
          "internalType": "string",
          "name": "",
          "type": "string"
        }
      ],
      "name": "factoryUserNames",
      "outputs": [
        {
          "internalType": "string",
          "name": "",
          "type": "string"
        }
      ],
      "stateMutability": "view",
      "type": "function"
    },
    {
      "inputs": [],
      "name": "getAllProducedObat",
      "outputs": [
        {
          "components": [
            {
              "internalType": "enum ObatTradisional.en_obatAvailability",
              "name": "statusStok",
              "type": "uint8"
            },
            {
              "internalType": "string",
              "name": "batchName",
              "type": "string"
            },
            {
              "internalType": "string",
              "name": "obatId",
              "type": "string"
            },
            {
              "internalType": "string",
              "name": "namaProduk",
              "type": "string"
            },
            {
              "internalType": "uint8",
              "name": "obatQuantity",
              "type": "uint8"
            },
            {
              "internalType": "string",
              "name": "factoryInstanceNames",
              "type": "string"
            },
            {
              "internalType": "string[]",
              "name": "obatIpfsHash",
              "type": "string[]"
            }
          ],
          "internalType": "struct ObatTradisional.st_obatProduction[]",
          "name": "",
          "type": "tuple[]"
        }
      ],
      "stateMutability": "view",
      "type": "function"
    },
    {
      "inputs": [],
      "name": "getAllProducedObatArray",
      "outputs": [
        {
          "components": [
            {
              "internalType": "enum ObatTradisional.en_obatAvailability",
              "name": "statusStok",
              "type": "uint8"
            },
            {
              "internalType": "string",
              "name": "batchName",
              "type": "string"
            },
            {
              "internalType": "string",
              "name": "obatId",
              "type": "string"
            },
            {
              "internalType": "string",
              "name": "namaProduk",
              "type": "string"
            },
            {
              "internalType": "uint8",
              "name": "obatQuantity",
              "type": "uint8"
            },
            {
              "internalType": "string",
              "name": "factoryInstanceNames",
              "type": "string"
            },
            {
              "internalType": "string[]",
              "name": "obatIpfsHash",
              "type": "string[]"
            }
          ],
          "internalType": "struct ObatTradisional.st_obatProduction[]",
          "name": "",
          "type": "tuple[]"
        }
      ],
      "stateMutability": "view",
      "type": "function"
    },
    {
      "inputs": [
        {
          "internalType": "string",
          "name": "_batchName",
          "type": "string"
        }
      ],
      "name": "getDetailProducedObat",
      "outputs": [
        {
          "internalType": "uint8",
          "name": "obatQuantity",
          "type": "uint8"
        },
        {
          "internalType": "string[]",
          "name": "obatIpfsHash",
          "type": "string[]"
        },
        {
          "internalType": "uint8",
          "name": "statusStok",
          "type": "uint8"
        }
      ],
      "stateMutability": "view",
      "type": "function"
    },
    {
      "inputs": [
        {
          "internalType": "string",
          "name": "_factoryInstanceName",
          "type": "string"
        }
      ],
      "name": "getJenisSediaanAvail",
      "outputs": [
        {
          "internalType": "uint8[]",
          "name": "",
          "type": "uint8[]"
        }
      ],
      "stateMutability": "view",
      "type": "function"
    },
    {
      "inputs": [],
      "name": "getListAllObatNie",
      "outputs": [
        {
          "internalType": "string[]",
          "name": "obatIdArray",
          "type": "string[]"
        },
        {
          "internalType": "string[]",
          "name": "namaProdukArray",
          "type": "string[]"
        },
        {
          "internalType": "string[]",
          "name": "factoryInstanceNameArray",
          "type": "string[]"
        },
        {
          "internalType": "uint256[]",
          "name": "latestTimestampArray",
          "type": "uint256[]"
        },
        {
          "internalType": "uint8[]",
          "name": "obatStatusArray",
          "type": "uint8[]"
        }
      ],
      "stateMutability": "view",
      "type": "function"
    },
    {
      "inputs": [
        {
          "internalType": "string",
          "name": "_factoryInstanceName",
          "type": "string"
        }
      ],
      "name": "getListAllProducedObatByFactory",
      "outputs": [
        {
          "internalType": "string[]",
          "name": "obatIdArray",
          "type": "string[]"
        },
        {
          "internalType": "string[]",
          "name": "namaProdukArray",
          "type": "string[]"
        },
        {
          "internalType": "uint8[]",
          "name": "obatQuantityArray",
          "type": "uint8[]"
        },
        {
          "internalType": "string[]",
          "name": "batchNameArray",
          "type": "string[]"
        }
      ],
      "stateMutability": "view",
      "type": "function"
    },
    {
      "inputs": [
        {
          "internalType": "string",
          "name": "_factoryInstanceName",
          "type": "string"
        }
      ],
      "name": "getListObatByFactory",
      "outputs": [
        {
          "internalType": "string[]",
          "name": "obatIdArray",
          "type": "string[]"
        },
        {
          "internalType": "string[]",
          "name": "namaProdukArray",
          "type": "string[]"
        },
        {
          "internalType": "uint8[]",
          "name": "obatStatusArray",
          "type": "uint8[]"
        },
        {
          "internalType": "uint8[]",
          "name": "tipeProdukArray",
          "type": "uint8[]"
        }
      ],
      "stateMutability": "view",
      "type": "function"
    },
    {
      "inputs": [
        {
          "internalType": "string",
          "name": "_obatId",
          "type": "string"
        }
      ],
      "name": "getListObatById",
      "outputs": [
        {
          "components": [
            {
              "internalType": "string",
              "name": "obatId",
              "type": "string"
            },
            {
              "internalType": "string",
              "name": "merk",
              "type": "string"
            },
            {
              "internalType": "string",
              "name": "namaProduk",
              "type": "string"
            },
            {
              "internalType": "string[]",
              "name": "klaim",
              "type": "string[]"
            },
            {
              "internalType": "string",
              "name": "kemasan",
              "type": "string"
            },
            {
              "internalType": "string[]",
              "name": "komposisi",
              "type": "string[]"
            },
            {
              "internalType": "enum ObatTradisional.en_tipeProduk",
              "name": "tipeProduk",
              "type": "uint8"
            },
            {
              "internalType": "enum ObatTradisional.en_nieStatus",
              "name": "obatStatus",
              "type": "uint8"
            },
            {
              "internalType": "uint256",
              "name": "nieRequestDate",
              "type": "uint256"
            },
            {
              "internalType": "uint256",
              "name": "nieApprovalDate",
              "type": "uint256"
            },
            {
              "internalType": "string",
              "name": "nieNumber",
              "type": "string"
            }
          ],
          "internalType": "struct ObatTradisional.st_obatDetails",
          "name": "obatDetails",
          "type": "tuple"
        },
        {
          "internalType": "address",
          "name": "factoryAddress",
          "type": "address"
        },
        {
          "internalType": "string",
          "name": "factoryInstanceName",
          "type": "string"
        },
        {
          "internalType": "string",
          "name": "factoryUserName",
          "type": "string"
        },
        {
          "internalType": "address",
          "name": "bpomAddress",
          "type": "address"
        },
        {
          "internalType": "string",
          "name": "bpomInstanceName",
          "type": "string"
        },
        {
          "internalType": "string",
          "name": "bpomUserName",
          "type": "string"
        }
      ],
      "stateMutability": "view",
      "type": "function"
    },
    {
      "inputs": [
        {
          "internalType": "string",
          "name": "_namaProduk",
          "type": "string"
        }
      ],
      "name": "getListObatByNameProduct",
      "outputs": [
        {
          "components": [
            {
              "internalType": "string",
              "name": "obatId",
              "type": "string"
            },
            {
              "internalType": "string",
              "name": "merk",
              "type": "string"
            },
            {
              "internalType": "string",
              "name": "namaProduk",
              "type": "string"
            },
            {
              "internalType": "string[]",
              "name": "klaim",
              "type": "string[]"
            },
            {
              "internalType": "string",
              "name": "kemasan",
              "type": "string"
            },
            {
              "internalType": "string[]",
              "name": "komposisi",
              "type": "string[]"
            },
            {
              "internalType": "enum ObatTradisional.en_tipeProduk",
              "name": "tipeProduk",
              "type": "uint8"
            },
            {
              "internalType": "enum ObatTradisional.en_nieStatus",
              "name": "obatStatus",
              "type": "uint8"
            },
            {
              "internalType": "uint256",
              "name": "nieRequestDate",
              "type": "uint256"
            },
            {
              "internalType": "uint256",
              "name": "nieApprovalDate",
              "type": "uint256"
            },
            {
              "internalType": "string",
              "name": "nieNumber",
              "type": "string"
            }
          ],
          "internalType": "struct ObatTradisional.st_obatDetails",
          "name": "obatDetails",
          "type": "tuple"
        },
        {
          "internalType": "address",
          "name": "factoryAddress",
          "type": "address"
        },
        {
          "internalType": "string",
          "name": "factoryInstanceName",
          "type": "string"
        },
        {
          "internalType": "string",
          "name": "factoryUserName",
          "type": "string"
        },
        {
          "internalType": "address",
          "name": "bpomAddress",
          "type": "address"
        },
        {
          "internalType": "string",
          "name": "bpomInstanceName",
          "type": "string"
        },
        {
          "internalType": "string",
          "name": "bpomUserName",
          "type": "string"
        }
      ],
      "stateMutability": "view",
      "type": "function"
    },
    {
      "inputs": [
        {
          "internalType": "string",
          "name": "_batchName",
          "type": "string"
        }
      ],
      "name": "getObatProductionDetailsByBatchName",
      "outputs": [
        {
          "components": [
            {
              "internalType": "enum ObatTradisional.en_obatAvailability",
              "name": "statusStok",
              "type": "uint8"
            },
            {
              "internalType": "string",
              "name": "batchName",
              "type": "string"
            },
            {
              "internalType": "string",
              "name": "obatId",
              "type": "string"
            },
            {
              "internalType": "string",
              "name": "namaProduk",
              "type": "string"
            },
            {
              "internalType": "uint8",
              "name": "obatQuantity",
              "type": "uint8"
            },
            {
              "internalType": "string",
              "name": "factoryInstanceNames",
              "type": "string"
            },
            {
              "internalType": "string[]",
              "name": "obatIpfsHash",
              "type": "string[]"
            }
          ],
          "internalType": "struct ObatTradisional.st_obatProduction",
          "name": "",
          "type": "tuple"
        }
      ],
      "stateMutability": "view",
      "type": "function"
    },
    {
      "inputs": [
        {
          "internalType": "string",
          "name": "_obatId",
          "type": "string"
        }
      ],
      "name": "getObatProductionDetailsByOrderId",
      "outputs": [
        {
          "components": [
            {
              "internalType": "enum ObatTradisional.en_obatAvailability",
              "name": "statusStok",
              "type": "uint8"
            },
            {
              "internalType": "string",
              "name": "batchName",
              "type": "string"
            },
            {
              "internalType": "string",
              "name": "obatId",
              "type": "string"
            },
            {
              "internalType": "string",
              "name": "namaProduk",
              "type": "string"
            },
            {
              "internalType": "uint8",
              "name": "obatQuantity",
              "type": "uint8"
            },
            {
              "internalType": "string",
              "name": "factoryInstanceNames",
              "type": "string"
            },
            {
              "internalType": "string[]",
              "name": "obatIpfsHash",
              "type": "string[]"
            }
          ],
          "internalType": "struct ObatTradisional.st_obatProduction",
          "name": "",
          "type": "tuple"
        }
      ],
      "stateMutability": "view",
      "type": "function"
    },
    {
      "inputs": [],
      "name": "mainSupplyChain",
      "outputs": [
        {
          "internalType": "contract MainSupplyChain",
          "name": "",
          "type": "address"
        }
      ],
      "stateMutability": "view",
      "type": "function"
    },
    {
      "inputs": [
        {
          "internalType": "string",
          "name": "",
          "type": "string"
        }
      ],
      "name": "obatDetailsById",
      "outputs": [
        {
          "internalType": "string",
          "name": "obatId",
          "type": "string"
        },
        {
          "internalType": "string",
          "name": "merk",
          "type": "string"
        },
        {
          "internalType": "string",
          "name": "namaProduk",
          "type": "string"
        },
        {
          "internalType": "string",
          "name": "kemasan",
          "type": "string"
        },
        {
          "internalType": "enum ObatTradisional.en_tipeProduk",
          "name": "tipeProduk",
          "type": "uint8"
        },
        {
          "internalType": "enum ObatTradisional.en_nieStatus",
          "name": "obatStatus",
          "type": "uint8"
        },
        {
          "internalType": "uint256",
          "name": "nieRequestDate",
          "type": "uint256"
        },
        {
          "internalType": "uint256",
          "name": "nieApprovalDate",
          "type": "uint256"
        },
        {
          "internalType": "string",
          "name": "nieNumber",
          "type": "string"
        }
      ],
      "stateMutability": "view",
      "type": "function"
    },
    {
      "inputs": [
        {
          "internalType": "string",
          "name": "",
          "type": "string"
        }
      ],
      "name": "obatDetailsByNameProduct",
      "outputs": [
        {
          "internalType": "string",
          "name": "obatId",
          "type": "string"
        },
        {
          "internalType": "string",
          "name": "merk",
          "type": "string"
        },
        {
          "internalType": "string",
          "name": "namaProduk",
          "type": "string"
        },
        {
          "internalType": "string",
          "name": "kemasan",
          "type": "string"
        },
        {
          "internalType": "enum ObatTradisional.en_tipeProduk",
          "name": "tipeProduk",
          "type": "uint8"
        },
        {
          "internalType": "enum ObatTradisional.en_nieStatus",
          "name": "obatStatus",
          "type": "uint8"
        },
        {
          "internalType": "uint256",
          "name": "nieRequestDate",
          "type": "uint256"
        },
        {
          "internalType": "uint256",
          "name": "nieApprovalDate",
          "type": "uint256"
        },
        {
          "internalType": "string",
          "name": "nieNumber",
          "type": "string"
        }
      ],
      "stateMutability": "view",
      "type": "function"
    },
    {
      "inputs": [
        {
          "internalType": "string",
          "name": "",
          "type": "string"
        }
      ],
      "name": "obatProductionDetailsByBatchName",
      "outputs": [
        {
          "internalType": "enum ObatTradisional.en_obatAvailability",
          "name": "statusStok",
          "type": "uint8"
        },
        {
          "internalType": "string",
          "name": "batchName",
          "type": "string"
        },
        {
          "internalType": "string",
          "name": "obatId",
          "type": "string"
        },
        {
          "internalType": "string",
          "name": "namaProduk",
          "type": "string"
        },
        {
          "internalType": "uint8",
          "name": "obatQuantity",
          "type": "uint8"
        },
        {
          "internalType": "string",
          "name": "factoryInstanceNames",
          "type": "string"
        }
      ],
      "stateMutability": "view",
      "type": "function"
    },
    {
      "inputs": [
        {
          "internalType": "string",
          "name": "",
          "type": "string"
        }
      ],
      "name": "obatProductionDetailsByObatId",
      "outputs": [
        {
          "internalType": "enum ObatTradisional.en_obatAvailability",
          "name": "statusStok",
          "type": "uint8"
        },
        {
          "internalType": "string",
          "name": "batchName",
          "type": "string"
        },
        {
          "internalType": "string",
          "name": "obatId",
          "type": "string"
        },
        {
          "internalType": "string",
          "name": "namaProduk",
          "type": "string"
        },
        {
          "internalType": "uint8",
          "name": "obatQuantity",
          "type": "uint8"
        },
        {
          "internalType": "string",
          "name": "factoryInstanceNames",
          "type": "string"
        }
      ],
      "stateMutability": "view",
      "type": "function"
    },
    {
      "inputs": [
        {
          "internalType": "string",
          "name": "_namaProduk",
          "type": "string"
        },
        {
          "internalType": "string",
          "name": "_batchName",
          "type": "string"
        },
        {
          "internalType": "string",
          "name": "_obatId",
          "type": "string"
        },
        {
          "internalType": "uint8",
          "name": "_obatQuantity",
          "type": "uint8"
        },
        {
          "internalType": "string",
          "name": "_factoryInstanceName",
          "type": "string"
        },
        {
          "internalType": "string[]",
          "name": "_obatIpfsHash",
          "type": "string[]"
        }
      ],
      "name": "producedObat",
      "outputs": [],
      "stateMutability": "nonpayable",
      "type": "function"
    },
    {
      "inputs": [
        {
          "internalType": "string",
          "name": "_obatId",
          "type": "string"
        }
      ],
      "name": "requestNie",
      "outputs": [],
      "stateMutability": "nonpayable",
      "type": "function"
    },
    {
      "inputs": [],
      "name": "roleManager",
      "outputs": [
        {
          "internalType": "contract RoleManager",
          "name": "",
          "type": "address"
        }
      ],
      "stateMutability": "view",
      "type": "function"
    },
    {
      "inputs": [
        {
          "internalType": "address",
          "name": "",
          "type": "address"
        }
      ],
      "name": "userRoles",
      "outputs": [
        {
          "internalType": "enum ObatTradisional.en_roles",
          "name": "",
          "type": "uint8"
        }
      ],
      "stateMutability": "view",
      "type": "function"
    }
  ],
  "bytecode": "0x608034608657601f6152d338819003918201601f19168301916001600160401b03831184841017608b578084926040948552833981010312608657604b602060458360a1565b920160a1565b600080546001600160a01b039384166001600160a01b0319918216179091556001805492909316911617905560405161521e90816100b58239f35b600080fd5b634e487b7160e01b600052604160045260246000fd5b51906001600160a01b038216820360865756fe608080604052600436101561001357600080fd5b60003560e01c908162435da5146133d1575080631a95e672146133b55780631c0b20301461334d5780631dce6e581461313857806325606bc3146130975780632732183714613046578063349a7a7214612ff25780634400dff414612fca5780634b87568a14612f625780635673fdf614612f11578063620823da146127a75780636afe55ec1461275d57806374d5e100146127135780637aad01bd146126595780637ade51dd14611ef85780637d08414f14611eb157806392b385c914611c5c5780639413fcfd14611c335780639d9315c214611bdf578063a812536d14611b8b578063a9c873b414611b11578063aab28e3814611ab3578063bbf2698d146118ca578063bc4a6f6c14611651578063d0ff723d14611594578063d44faa631461145f578063d9d284dc146107de578063e06749ba14610498578063f10228621461041d5763fd42aefd1461016857600080fd5b34610418576020366003190112610418576004356001600160401b038111610418576101989036906004016135e4565b6101a0614150565b50604051906101d76101d0825193602081818601966101c081838a6133ff565b8101600c815203019020546137df565b15156141a5565b61041461034e6103da60405160208186516101f381838b6133ff565b8101600c8152030190209360096102e5604051966102108861358c565b604051610228816102218185613819565b03826135c3565b885260405161023e816102218160018601613819565b6020890152604051610257816102218160028601613819565b604089015261026860038201613aaf565b6060890152604051610281816102218160048601613819565b608089015261029260058201613aaf565b60a08901526102bf60ff60068301548181166102ad816133f5565b60c08c015260081c1660e08a016141f1565b600781015461010089015260088101546101208901526102216040518094819301613819565b61014086015261038061034e6104086103f260206040518061030b8d89519283916133ff565b81019060078252828160018060a01b03930301902054169a61035560405183818a516103388183886133ff565b8101600881520301902060405196878092613819565b03866135c3565b61038760405183818a5161036a8183886133ff565b8101600981520301902060405197888092613819565b03876135c3565b60405187516103978183856133ff565b81019060048252838160018060a01b0393030190205416966103e1604051848184516103c48183896133ff565b810160058152030190206040519a8b8092613819565b038a6135c3565b6040519384928392519283916133ff565b8101600681520301902060405196878092613819565b6040519788978861367e565b0390f35b600080fd5b34610418576020366003190112610418576004356001600160401b0381116104185761022161048461046e602061045b6104149536906004016135e4565b81604051938285809451938492016133ff565b8101600681520301902060405192838092613819565b604051918291602083526020830190613422565b34610418576000366003190112610418576000546040516395a8c58d60e01b81523360048201526002602482015290602090829060449082906001600160a01b03165afa80156107d2576104f4916000916107a3575b506148cc565b600080600254905b818110610765575061050d82613c94565b9061051783613c94565b61052084613c94565b61052985613916565b9161053760405193846135c3565b85835261055861054687613916565b602085019790601f190136893761411e565b93600090815b8181106105e7575050506020916105946105a2926105876040519860a08a5260a08a0190613447565b90888203868a0152613447565b908682036040880152613447565b918483036060860152519182815201939060005b8181106105d15784806104148887838203608085015261363a565b82518652602095860195909201916001016105b6565b60ff60066105f4836139ab565b50015460081c16600381101561073c57610611575b60010161055e565b9161022161062e610621856139ab565b5060405192838092613819565b610638828a613dd3565b526106438189613dd3565b506002610663610652856139ab565b506102216040518094819301613819565b61066d8286613dd3565b526106788185613dd3565b506102216106ae61069a602061068d876139ab565b50604051928380926140b0565b600881520301902060405192838092613819565b6106b88287613dd3565b526106c38186613dd3565b5060086106cf846139ab565b50015460076106dd856139ab565b50015410156107525760086106f1846139ab565b5001545b6106ff8288613dd3565b5260ff600661070d856139ab565b50015460081c16600381101561073c57816107349161072e6001948b613dd3565b52613c27565b929050610609565b634e487b7160e01b600052602160045260246000fd5b600761075d846139ab565b5001546106f5565b60ff6006610772836139ab565b50015460081c16600381101561073c5761078f575b6001016104fc565b9161079b600191613c27565b929050610787565b6107c5915060203d6020116107cb575b6107bd81836135c3565b810190613a5f565b826104ee565b503d6107b3565b6040513d6000823e3d90fd5b3461041857610140366003190112610418576004356001600160401b0381116104185761080f9036906004016135e4565b6024356001600160401b0381116104185761082e9036906004016135e4565b906044356001600160401b0381116104185761084e9036906004016135e4565b906064356001600160401b0381116104185761086e90369060040161392d565b906084356001600160401b0381116104185761088e9036906004016135e4565b9060a4356001600160401b038111610418576108ae90369060040161392d565b60c4356001600160a01b03811691908290036104185760e4356001600160401b038111610418576108e39036906004016135e4565b96610104356001600160401b038111610418576109049036906004016135e4565b916101243596600288101561041857600080546040516395a8c58d60e01b81523360048201526024810192909252602090829060449082906001600160a01b03165afa80156107d25761095f91600091611440575b506141fd565b6040519261096c8461358c565b8684526020840152886040840152606083015285608083015260a0820152610993866133f5565b8560c0820152600260e08201526000610100820152600061012082015260409081516109bf83826135c3565b60098152682a22aa29a22329a22360b91b6020820152610140820152815190610a0681875193602081818b01966109f781838a6133ff565b8101600b815203019020614918565b610a3181610a2260208c818851938285809451938492016133ff565b8101600c815203019020614918565b600254600160401b8110156112ba57806001610a5092016002556139ab565b91909161142a57610a6091614918565b81516020818751610a728183876133ff565b81016007815203019020846bffffffffffffffffffffffff60a01b82541617905581516020818751610aa58183876133ff565b8101600881520301902089516001600160401b0381116112ba57610ac982546137df565b601f81116113f8575b5060208b601f83116001146113875782610b1f959360209593610b0c9360009261137c575b50508160011b916000199060031b1c19161790565b90555b83518093819289519283916133ff565b8101600981520301902082516001600160401b0381116112ba57610b4382546137df565b601f811161133f575b506020601f82116001146112db579080610b7c926000916112d0575b508160011b916000199060031b1c19161790565b90555b805193610200610b8f81876135c3565b600f8652601f190160005b8181106112a9575050815190610baf826135a8565b60008252818351610bc085826135c3565b60108152602081016f2127169918191a1899181916a2291b2b60811b9052602082019081528482019283528a606083015260808201600f90528b60a083015260c082018881526060988651610c158b826135c3565b602e81527f516d5a706a516644654452505253724834573431334777443557626239554d4760208201526d1ab4b6b8b83338b9a839a0bc369960911b88820152610c5e82613cde565b52610c6890613cde565b5080518651610c778b826135c3565b602e81527f516d585655454e637a666342617242745132776944744c6d5a5632506137386e60208201526d1935b6a3a238351cb2353298acb760911b88820152610cc082613ceb565b52610cca90613ceb565b5080518651610cd98b826135c3565b602e81527f516d6436517662316f58616431777a5a75354a36587259646e477039466a337460208201526d145d59559cdcce589dd1d59214d560921b88820152610d2282613cfb565b52610d2c90613cfb565b5080518651610d3b8b826135c3565b602e81527f516d56553255784d724a657168726e5144504a6972617546735773364a37584c60208201526d446944514b69783848566445547360901b88820152610d8482613d0b565b52610d8e90613d0b565b5080518651610d9d8b826135c3565b602e81527f516d646d523450666e6e35674344355861617776727669586d45334a7369617860208201526d524633654e727a6859314342553760901b88820152610de682613d1b565b52610df090613d1b565b5080518651610dff8b826135c3565b602e81527f516d517254726667674b5437366e525a563872426a6361546f576648434d7a5760208201526d715934795752705733534436596760901b88820152610e4882613d2b565b52610e5290613d2b565b5080518651610e618b826135c3565b602e81527f516d515848585145505032506e4662513636685367325a4d4e643653537a664660208201526d25a1a52420a2b4b9acba9c19192b60911b88820152610eaa82613d3b565b52610eb490613d3b565b5080518651610ec38b826135c3565b602e81527f516d554543695837714869483868346b723275346836716169473866536a395a60208201526d135d18d091d9d15210d55e5b4c5360921b88820152610f0c82613d4b565b52610f1690613d4b565b5080518651610f258b826135c3565b602e81527f516d55775a727439624c6a6e684d4c43693443466361547659675a6157554a5260208201526d635a444b71733963336d7179487960901b88820152610f6e82613d5c565b52610f7890613d5c565b5080518651610f878b826135c3565b602e81527f516d4e4e75775a415548366758386854636b366f6861344e6a4d68456337357860208201526d7679474371324c7046447459434760901b88820152610fd082613d6d565b52610fda90613d6d565b5080518651610fe98b826135c3565b602e81527f516d6162687874624b796531656f47504d6664617a5743356d544a734b41745560208201526d31a33129b43319ad31b6b1b6aba760911b8882015261103282613d7e565b5261103c90613d7e565b508051865161104b8b826135c3565b602e81527f516d6552686f6b686b47363142693378656d443967635a41484b386b3663753860208201526d79434e415445637255677334547960901b8882015261109482613d8f565b5261109e90613d8f565b50805186516110ad8b826135c3565b602e81527f516d616d526b504e4d425874706e687558344573623852516d394e4e7077433360208201526d7a64414d5461725077577269536560901b888201526110f682613da0565b5261110090613da0565b508051865161110f8b826135c3565b602e81527f516d566b377467705573635047563267694b7779354b414a79434e506e53445360208201526d35644d4b43336d534639357a4e6f60901b8882015261115882613db1565b5261116290613db1565b505185516111708a826135c3565b602e81527f516d5464734a4e4437426450414b4a5a4438484a70703373544559374474675760208201526d379b3937aa3a35ba2538b439b91960911b878201526111b982613dc2565b526111c390613dc2565b506111cd82614861565b51845181818093516020819301916111e4926133ff565b8101600d8152036020019020906111fa9161426a565b5182518181809351602081930191611211926133ff565b8101600e8152036020019020906112279161426a565b805197889760c0895260c0890161123d91613422565b88810360208a015261124e91613422565b908782039088015261125f91613422565b91850152838103608085015261127491613422565b9061127e816133f5565b60a0830152037f634ef467423c7b2abbaf26097bdddac4a495d36be69ca3d1555484b46e7899c791a1005b806060602080938a01015201610b9a565b634e487b7160e01b600052604160045260246000fd5b90508501518c610b68565b601f1982169083600052806000209160005b8181106113275750908360019493921061130e575b5050811b019055610b7f565b86015160001960f88460031b161c191690558b80611302565b9192602060018192868b0151815501940192016112ed565b61136c90836000526020600020601f840160051c81019160208510611372575b601f0160051c0190614253565b8a610b4c565b909150819061135f565b015190508f8f610af7565b50601f19821690836000528c816000209260005b8181106113de5750926001928592610b1f989660209896106113c5575b505050811b019055610b0f565b015160001960f88460031b161c191690558e808f6113b8565b9183015184556001909301926020928301928f920161139b565b61142490836000526020600020601f840160051c8101916020851061137257601f0160051c0190614253565b8b610ad2565b634e487b7160e01b600052600060045260246000fd5b611459915060203d6020116107cb576107bd81836135c3565b8c610959565b34610418576020366003190112610418576004356001600160401b0381116104185760006114946114c19236906004016135e4565b60018060a01b03600154166040518080958194629a308760e31b8352602060048401526024830190613422565b03915afa9081156107d2576000916114ea575b604051602080825281906104149082018561363a565b3d8083833e6114f981836135c3565b810190602081830312611588578051906001600160401b03821161159057019080601f830112156115885781519261153084613916565b9261153e60405194856135c3565b84845260208085019560051b82010192831161158c57602001935b82851061156e575050506104149150906114d4565b845160ff8116810361158857815260209485019401611559565b8280fd5b5080fd5b8380fd5b34610418576020366003190112610418576004356001600160401b03811161041857602061045b6115c99236906004016135e4565b8101600d81520301902060ff8154166104146005604051936115f28561034e8160018501613819565b604051611606816102218160028601613819565b604051906116228261161b8160038701613819565b03836135c3565b61164560ff6004850154169361163e6040518097819301613819565b03856135c3565b604051968796876139ff565b34610418576020366003190112610418576004356001600160401b038111610418576116819036906004016135e4565b600080546040516395a8c58d60e01b81523360048201526024810192909252602090829060449082906001600160a01b03165afa80156107d2576116cc916000916118ab57506141fd565b604051815190602081818501936116e48183876133ff565b8101600b815203019020916006830160ff815460081c16600381101561073c5761184957426007850155805461ff00191661010017905560005b60025481101561181957611731816139ab565b50604051611755816117476020820180956140b0565b03601f1981018352826135c3565b5190206040516020810190611784602082875161177381878c6133ff565b81010301601f1981018352826135c3565b519020146117945760010161171e565b6117ff92507f854681db4b5190ceaacfe5894893f2e8d49873d9b8ed6c72b5618047cb3924e59360066117d9836117cd611814956139ab565b506007429101556139ab565b5001805461ff0019166101001790555b6002604051948594606086526060860190613422565b91426020860152848303604086015201613819565b0390a1005b506117ff91506118147f854681db4b5190ceaacfe5894893f2e8d49873d9b8ed6c72b5618047cb3924e5936117e9565b60405162461bcd60e51b815260206004820152603460248201527f4f62617420547261646973696f6e616c20737461747573206d75737420626520604482015273696e206c6f63616c2070726f64756374696f6e2160601b6064820152608490fd5b6118c4915060203d6020116107cb576107bd81836135c3565b83610959565b34610418576020366003190112610418576004356001600160401b038111610418576118fa9036906004016135e4565b60606040519061192e6101d060028551946020818189019761191d81838b6133ff565b8101600d81520301902001546137df565b60ff6004604051602081875161194581838a6133ff565b8101600d8152030190200154169160ff60405160208187516119688183886133ff565b8101600d81520301902054169361197e856133f5565b6000546040516395a8c58d60e01b8152336004820152600160248201526001600160a01b0390911690602081604481855afa9081156107d257600091611a94575b50156119f957505050506119d1613c4c565b915b6119ef6040519384938452606060208501526060840190613447565b9060408301520390f35b6020604491604097959751928380926395a8c58d60e01b8252336004830152600060248301525afa9081156107d257600091611a75575b50611a3d575b50506119d3565b611a6d9294506020600692611a5d926040519384928392519283916133ff565b8101600d81520301902001613aaf565b918380611a36565b611a8e915060203d6020116107cb576107bd81836135c3565b86611a30565b611aad915060203d6020116107cb576107bd81836135c3565b876119bf565b34610418576020366003190112610418576004356001600160401b03811161041857602061045b611ae89236906004016135e4565b8101600e81520301902060ff8154166104146005604051936115f28561034e8160018501613819565b34610418576020366003190112610418576004356001600160401b03811161041857611b77611b686020611b4c6104149436906004016135e4565b611b54613a77565b5081604051938285809451938492016133ff565b8101600d815203019020613b0f565b6040519182916020835260208301906134a0565b34610418576020366003190112610418576004356001600160401b03811161041857610221610484611bc9602061045b6104149536906004016135e4565b8101600881520301902060405192838092613819565b34610418576020366003190112610418576004356001600160401b03811161041857610221610484611c1d602061045b6104149536906004016135e4565b8101600581520301902060405192838092613819565b34610418576000366003190112610418576001546040516001600160a01b039091168152602090f35b34610418576020366003190112610418576004356001600160401b03811161041857611c8c9036906004016135e4565b600080546040516395a8c58d60e01b81523360048201526024810192909252602090829060449082906001600160a01b03165afa80156107d257611cd7916000916118ab57506141fd565b60035460208201916000805b838110611e5b5750611cf481613c94565b92611cfe82613c94565b94611d11611d0b8461411e565b93613c94565b93600091825b848110611d6c57611d428861041489611d5e8a611d508f604051978897608089526080890190613447565b908782036020890152613447565b90858203604087015261363a565b908382036060850152613447565b6005611747611d91611d7d846139e0565b5060405192839160208301958691016140b0565b5190206040516020810190611daf602082885161177381878b6133ff565b51902014611dc0575b600101611d17565b92611e536001916002611dd5610652886139e0565b611ddf828c613dd3565b52611dea818b613dd3565b506003611df9610652886139e0565b611e03828d613dd3565b52611e0e818c613dd3565b5060ff6004611e1c886139e0565b50015416611e2a828a613dd3565b5282611e38610652886139e0565b611e42828b613dd3565b52611e4d818a613dd3565b50613c27565b939050611db8565b6005611747611e6c611d7d846139e0565b5190206040516020810190611e8c602082846117738c8b519283916133ff565b51902014611e9d575b600101611ce3565b90611ea9600191613c27565b919050611e95565b346104185760203660031901126104185760043560035481101561041857611ed8906139e0565b5060ff8154166104146005604051936115f28561034e8160018501613819565b346104185760a0366003190112610418576004356001600160401b03811161041857611f289036906004016135e4565b602435906001600160a01b0382168203610418576044356001600160401b03811161041857611f5b9036906004016135e4565b906064356001600160401b03811161041857611f7b9036906004016135e4565b906084356001600160401b03811161041857611f9b9036906004016135e4565b6000546040516395a8c58d60e01b81523360048201526002602482015291939190602090829060449082906001600160a01b03165afa80156107d257611fe89160009161263a57506148cc565b604051938251946020818186019761200181838b6133ff565b8101600b815203019020956006870160ff815460081c16600381101561073c576001036125df5742600889015561020061ff00198254161790556009870185516001600160401b0381116112ba5761205982546137df565b601f81116125ad575b506020601f82116001146125475790806120919260009161253c57508160011b916000199060031b1c19161790565b90555b60405160208186516120a781838c6133ff565b810160048152030190209060018060a01b03166bffffffffffffffffffffffff60a01b82541617905560405160208185516120e381838b6133ff565b81016005815203019020908051906001600160401b0382116112ba5761210983546137df565b601f811161250a575b50602090601f83116001146124a3576121439291600091836124985750508160011b916000199060031b1c19161790565b90555b604051602081845161215981838a6133ff565b81016006815203019020908051906001600160401b0382116112ba5761217f83546137df565b601f8111612466575b50602090601f83116001146123ff576121b99291600091836123f45750508160011b916000199060031b1c19161790565b90555b60005b6002548110156123c3576121d2816139ab565b506040516121e8816117476020820180956140b0565b5190206040516020810190612206602082875161177381878d6133ff565b51902014612216576001016121bf565b600992935061224f9150612229816139ab565b50600842910155600661223b826139ab565b5001805461ff0019166102001790556139ab565b5001918151926001600160401b0384116112ba5761226d81546137df565b601f8111612391575b50602093601f81116001146123035791611814916122d0846122e996957f489f165b733603cb0a992d8cafd6c42a0c13d169039003f751758b9f0019f26c986000916122f857508160011b916000199060031b1c19161790565b90555b6002604051948594604086526040860190613422565b91848303602086015201613819565b905086015189610b68565b601f1981169482600052806000209560005b8181106123795750827f489f165b733603cb0a992d8cafd6c42a0c13d169039003f751758b9f0019f26c9761181495936122e998979560019410612360575b5050811b0190556122d3565b87015160001960f88460031b161c191690558880612354565b86830151885560019097019660209283019201612315565b6123bd90826000526020600020601f870160051c8101916020881061137257601f0160051c0190614253565b84612276565b50506122e991506118147f489f165b733603cb0a992d8cafd6c42a0c13d169039003f751758b9f0019f26c936122d3565b015190508880610af7565b90601f1983169184600052816000209260005b81811061244e5750908460019594939210612435575b505050811b0190556121bc565b015160001960f88460031b161c19169055878080612428565b92936020600181928786015181550195019301612412565b61249290846000526020600020601f850160051c8101916020861061137257601f0160051c0190614253565b87612188565b015190508980610af7565b90601f1983169184600052816000209260005b8181106124f257509084600195949392106124d9575b505050811b019055612146565b015160001960f88460031b161c191690558880806124cc565b929360206001819287860151815501950193016124b6565b61253690846000526020600020601f850160051c8101916020861061137257601f0160051c0190614253565b88612112565b90508801518b610b68565b601f1982169083600052806000209160005b8a828210612595575050908360019493921061257c575b5050811b019055612094565b89015160001960f88460031b161c191690558a80612570565b60018495602093958493015181550194019201612559565b6125d990836000526020600020601f840160051c8101916020851061137257601f0160051c0190614253565b89612062565b60405162461bcd60e51b815260206004820152602d60248201527f4f62617420547261646973696f6e616c20737461747573206d7573742062652060448201526c5265717565737465644e49452160981b6064820152608490fd5b612653915060203d6020116107cb576107bd81836135c3565b876104ee565b346104185760203660031901126104185760043560025481101561041857612680906139ab565b50604051906126938261161b8184613819565b6104146009604051926126ad8461163e8160018501613819565b604051946126c2866103808160028601613819565b604051906126d78261161b8160048701613819565b6006830154906007840154926126fc6008860154956103806040518099819301613819565b60405198899860ff808660081c169516938a61389c565b34610418576020366003190112610418576004356001600160a01b0381169081900361041857600052600a60205260ff60406000205416604051600482101561073c576020918152f35b34610418576020366003190112610418576004356001600160401b03811161041857611b776127986020611b4c6104149436906004016135e4565b8101600e815203019020613b0f565b346104185760c0366003190112610418576004356001600160401b038111610418576127d79036906004016135e4565b6024356001600160401b038111610418576127f69036906004016135e4565b6044356001600160401b038111610418576128159036906004016135e4565b906064359060ff8216809203610418576084356001600160401b038111610418576128449036906004016135e4565b60a4356001600160401b0381116104185761286390369060040161392d565b906044602060018060a01b0360005416604051928380926395a8c58d60e01b8252336004830152600060248301525afa80156107d2576128aa91600091612ef257506141fd565b81518403612e9b57604051906003845192602081818801956128cd8183896133ff565b8101600d815203019020016040516128ed816117476020820180956140b0565b5190208760405161290e6020828161177381830196878151938492016133ff565b51902003612e05575061295960206006926004604051838189516129338183886133ff565b8101600d815203019020018760ff198254161790556040518093819288519283916133ff565b8101600d815203019020018151600160401b81116112ba578154818355808210612d87575b50602083019081926000526020600020916000905b828210612c6f575050505060009460208101955b600354811015612c3a5760026117476129c2611d7d846139e0565b5190206117736040516129e26020828c8282019586918a519283916133ff565b519020146129f2576001016129a7565b6006929394959650612a1b91506004612a0a826139e0565b5001805460ff1916881790556139e0565b5001915190600160401b82116112ba578254828455808310612bbc575b50916000526020600020916000905b828210612aa4575050505091611814612a91927fabb6d08782df0e4c2ee63deacc72efc9c1a9422c00fc5d8075160d11eaa40b4a945b604051948594606086526060860190613422565b9160208501528382036040850152613422565b80518051906001600160401b0382116112ba57612ac186546137df565b601f8111612b8a575b50602090601f8311600114612b1d5792612b0383600195946020948796600092612b125750508160011b916000199060031b1c19161790565b87555b01940191019092612a47565b015190508d80610af7565b90601f1983169187600052816000209260005b818110612b725750936020936001969387969383889510612b59575b505050811b018755612b06565b015160001960f88460031b161c191690558c8080612b4c565b92936020600181928786015181550195019301612b30565b612bb690876000526020600020601f850160051c8101916020861061137257601f0160051c0190614253565b89612aca565b8360005282602060002091820191015b818110612bd95750612a38565b80612be6600192546137df565b80612bf3575b5001612bcc565b601f81118314612c095750600081555b89612bec565b612c27908260005283601f6020600020920160051c82019101614253565b8060005260006020812081835555612c03565b50505050612a9192507fabb6d08782df0e4c2ee63deacc72efc9c1a9422c00fc5d8075160d11eaa40b4a939161181491612a7d565b80518051906001600160401b0382116112ba57612c8c86546137df565b601f8111612d55575b50602090601f8311600114612ce85792612cce83600195946020948796600092612cdd5750508160011b916000199060031b1c19161790565b87555b01940191019092612993565b015190503880610af7565b90601f1983169187600052816000209260005b818110612d3d5750936020936001969387969383889510612d24575b505050811b018755612cd1565b015160001960f88460031b161c191690558f8080612d17565b92936020600181928786015181550195019301612cfb565b612d8190876000526020600020601f850160051c8101916020861061137257601f0160051c0190614253565b8c612c95565b8260005281602060002091820191015b818110612da4575061297e565b80612db1600192546137df565b80612dbe575b5001612d97565b601f81118314612dd45750600081555b8a612db7565b612df2908260005283601f6020600020920160051c82019101614253565b8060005260006020812081835555612dce565b612e9690612e91612a9197612e82602061181498967fabb6d08782df0e4c2ee63deacc72efc9c1a9422c00fc5d8075160d11eaa40b4a9c9a98604051968795612e4d876135a8565b600087528a8588015260408701528c60608701528a608087015260a086015260c0850152604051809381928a519283916133ff565b8101600d81520301902061426a565b614861565b612a7d565b60405162461bcd60e51b815260206004820152602960248201527f5175616e7469747920646f6573206e6f74206d6174636820746865206e756d626044820152686572206f662049447360b81b6064820152608490fd5b612f0b915060203d6020116107cb576107bd81836135c3565b88610959565b34610418576020366003190112610418576004356001600160401b03811161041857602061045b612f469236906004016135e4565b8101600c815203019020604051906126938261161b8184613819565b34610418576020366003190112610418576004356001600160401b03811161041857612f9460209136906004016135e4565b81612fa860405192838151938492016133ff565b600790820190815281900382019020546040516001600160a01b039091168152f35b3461041857600036600319011261041857610414612fe6613bb1565b6040519182918261352c565b34610418576020366003190112610418576004356001600160401b03811161041857610221610484613030602061045b6104149536906004016135e4565b8101600981520301902060405192838092613819565b34610418576020366003190112610418576004356001600160401b03811161041857602061045b61307b9236906004016135e4565b8101600b815203019020604051906126938261161b8184613819565b34610418576020366003190112610418576004356001600160401b038111610418576130c79036906004016135e4565b6130cf614150565b50604051906130ff6101d0825193602081818601966130ef81838a6133ff565b8101600b815203019020546137df565b61041461034e6103da604051602081865161311b81838b6133ff565b8101600b8152030190209360096102e5604051966102108861358c565b34610418576020366003190112610418576004356001600160401b038111610418576131689036906004016135e4565b600254600060208301815b8381106132df575061318482613c94565b9261318e83613c94565b916131a161319b8561411e565b9461411e565b95600091825b8481106131e057611d42886104148b6131d28b611d508c604051978897608089526080890190613447565b90838203606085015261363a565b6131ee602061068d836139ab565b600881520301902060405161320b816117476020820180956140b0565b5190206040516020810190613229602082885161177381878b6133ff565b5190201461323a575b6001016131a7565b9261022161324a610621866139ab565b613254828a613dd3565b5261325f8189613dd3565b50600261326e610652866139ab565b6132788288613dd3565b526132838187613dd3565b5060ff6006613291866139ab565b50015460081c16600381101561073c57816132d7916132b26001948b613dd3565b5260ff60066132c0886139ab565b500154166132cd816133f5565b61072e828d613dd3565b939050613232565b6132ed602061068d836139ab565b600881520301902060405161330a816117476020820180956140b0565b51902060405160208101906133286020828a5161177381878b6133ff565b51902014613339575b600101613173565b91613345600191613c27565b929050613331565b34610418576020366003190112610418576004356001600160401b0381116104185761337f60209136906004016135e4565b8161339360405192838151938492016133ff565b600490820190815281900382019020546040516001600160a01b039091168152f35b3461041857600036600319011261041857610414612fe6613de7565b34610418576000366003190112610418576000546001600160a01b03168152602090f35b6002111561073c57565b60005b8381106134125750506000910152565b8181015183820152602001613402565b9060209161343b815180928185528580860191016133ff565b601f01601f1916010190565b9080602083519182815201916020808360051b8301019401926000915b83831061347357505050505090565b9091929394602080613491600193601f198682030187528951613422565b97019301930191939290613464565b6135299181516134af816133f5565b815260c06135186134f96134e76134d5602087015160e0602088015260e0870190613422565b60408701518682036040880152613422565b60608601518582036060870152613422565b60ff608086015116608085015260a085015184820360a0860152613422565b9201519060c0818403910152613447565b90565b602081016020825282518091526040820191602060408360051b8301019401926000915b83831061355f57505050505090565b909192939460208061357d600193603f1986820301875289516134a0565b97019301930191939290613550565b61016081019081106001600160401b038211176112ba57604052565b60e081019081106001600160401b038211176112ba57604052565b90601f801991011681019081106001600160401b038211176112ba57604052565b81601f82011215610418578035906001600160401b0382116112ba5760405192613618601f8401601f1916602001856135c3565b8284526020838301011161041857816000926020809301838601378301015290565b906020808351928381520192019060005b8181106136585750505090565b825160ff1684526020938401939092019160010161364b565b90600382101561073c5752565b9591936137a66137d1956135299997956137898a6101406137b49760e0835261375d61373861372161370a6136f56136de6136c7875161016060e08c01526102408b0190613422565b60208801518a820360df19016101008c0152613422565b604087015189820360df19016101208b0152613422565b606086015188820360df1901888a0152613447565b608085015187820360df1901610160890152613422565b60a084015186820360df1901610180880152613447565b9360c0830151613747816133f5565b6101a08201526101c060e0840151910190613671565b6101008101516101e08f01526101208101516102008f015201518c820360df19016102208e0152613422565b6001600160a01b0390921660208b015289820360408b0152613422565b908782036060890152613422565b6001600160a01b03909216608086015284820360a0860152613422565b9160c0818403910152613422565b90600182811c9216801561380f575b60208310146137f957565b634e487b7160e01b600052602260045260246000fd5b91607f16916137ee565b60009291815491613829836137df565b808352926001811690811561387f575060011461384557505050565b60009081526020812093945091925b838310613865575060209250010190565b600181602092949394548385870101520191019190613854565b915050602093945060ff929192191683830152151560051b010190565b9591936137a66138fe946138d76135299c9a976138c96138e5969d9a9d6101208d526101208d0190613422565b908b820360208d0152613422565b9089820360408b0152613422565b966138ef816133f5565b608086015260a0850190613671565b60c083015260e0820152610100818403910152613422565b6001600160401b0381116112ba5760051b60200190565b9080601f8301121561041857813561394481613916565b9261395260405194856135c3565b81845260208085019260051b820101918383116104185760208201905b83821061397e57505050505090565b81356001600160401b038111610418576020916139a0878480948801016135e4565b81520191019061396f565b6002548110156139ca576002600052600a602060002091020190600090565b634e487b7160e01b600052603260045260246000fd5b6003548110156139ca5760036000526007602060002091020190600090565b9293613a3d6135299795613a2f60ff95613a4b95613a1c816133f5565b885260c0602089015260c0880190613422565b908682036040880152613422565b908482036060860152613422565b9316608082015260a0818403910152613422565b90816020910312610418575180151581036104185790565b60405190613a84826135a8565b606060c083600081528260208201528260408201528280820152600060808201528260a08201520152565b908154613abb81613916565b92613ac960405194856135c3565b818452602084019060005260206000206000915b838310613aea5750505050565b600160208192604051613b01816102218189613819565b815201920192019190613add565b90604051613b1c816135a8565b60c0613bac6006839560ff815416613b33816133f5565b8552604051613b49816102218160018601613819565b6020860152604051613b62816102218160028601613819565b6040860152604051613b7b816102218160038601613819565b606086015260ff6004820154166080860152604051613ba1816102218160058601613819565b60a086015201613aaf565b910152565b60035490613bbe82613916565b91613bcc60405193846135c3565b808352600360009081527fc2575a0e9e593c00f959f8c92f12db2869c3395a3b0502d05e2516446f71f85b602085015b838310613c095750505050565b60076020600192613c1985613b0f565b815201920192019190613bfc565b6000198114613c365760010190565b634e487b7160e01b600052601160045260246000fd5b60405190613c5b6020836135c3565b600080835282815b828110613c6f57505050565b806060602080938501015201613c63565b634e487b7160e01b81526041600452602490fd5b90613c9e82613916565b613cab60405191826135c3565b8281528092613cbc601f1991613916565b019060005b828110613ccd57505050565b806060602080938501015201613cc1565b8051156139ca5760200190565b8051600110156139ca5760400190565b8051600210156139ca5760600190565b8051600310156139ca5760800190565b8051600410156139ca5760a00190565b8051600510156139ca5760c00190565b8051600610156139ca5760e00190565b8051600710156139ca576101000190565b8051600810156139ca576101200190565b8051600910156139ca576101400190565b8051600a10156139ca576101600190565b8051600b10156139ca576101800190565b8051600c10156139ca576101a00190565b8051600d10156139ca576101c00190565b8051600e10156139ca576101e00190565b80518210156139ca5760209160051b010190565b6000546040516395a8c58d60e01b8152336004820152600160248201526001600160a01b0390911690602081604481855afa9081156107d257600091614091575b5015613ff75750600080600354905b818110613fbe5750613e4882613916565b91613e5660405193846135c3565b808352613e65601f1991613916565b0160005b818110613fa75750506000805b828110613e835750505090565b60ff613e8e826139e0565b505416613e9a816133f5565b15613ea8575b600101613e76565b90613f9f60019160ff613eba856139e0565b505416613ec6856139e0565b506005613f80613ed5886139e0565b50886003613f66613ee5836139e0565b506002613f51613f0560ff6004613efb896139e0565b50015416966139e0565b50968e613f3c613f13613c4c565b9c6040519e8f613f22816135a8565b613f2b826133f5565b526102216040518094819301613819565b60208d01526102216040518094819301613819565b60408a01526102216040518094819301613819565b606087015260808601526102216040518094819301613819565b60a083015260c0820152613f948288613dd3565b52611e4d8187613dd3565b919050613ea0565b602090613fb2613a77565b82828701015201613e69565b60ff613fc9826139e0565b505416613fd5816133f5565b15613fe3575b600101613e37565b91613fef600191613c27565b929050613fdb565b6020604491604051928380926395a8c58d60e01b8252336004830152600060248301525afa9081156107d257600091614072575b501561403957613529613bb1565b60405160006140496020836135c3565b81526000805b81811061405b57505090565b602090614066613a77565b8282860101520161404f565b61408b915060203d6020116107cb576107bd81836135c3565b3861402b565b6140aa915060203d6020116107cb576107bd81836135c3565b38613e28565b600092918154916140c0836137df565b926001811690811561410b57506001146140d957505050565b909192935060005260206000206000905b8382106140f75750500190565b6001816020925484860152019101906140ea565b60ff191683525050811515909102019150565b9061412882613916565b61413560405191826135c3565b8281528092614146601f1991613916565b0190602036910137565b6040519061415d8261358c565b60606101408382815282602082015282604082015282808201528260808201528260a0820152600060c0820152600060e0820152600061010082015260006101208201520152565b156141ac57565b60405162461bcd60e51b815260206004820152601b60248201527f4e6f206461746120666f756e64207769746820746869732049442e00000000006044820152606490fd5b600382101561073c5752565b1561420457565b60405162461bcd60e51b815260206004820152602160248201527f416363657373207265737472696374656420746f20466163746f727920726f6c6044820152606560f81b6064820152608490fd5b81811061425e575050565b60008155600101614253565b8151614275816133f5565b61427e816133f5565b60ff801983541691161781556001810160208301518051906001600160401b0382116112ba576142ae83546137df565b601f811161482f575b50602090601f83116001146147c8576142e8929160009183612cdd5750508160011b916000199060031b1c19161790565b90555b6002810160408301518051906001600160401b0382116112ba5761430f83546137df565b601f8111614796575b50602090601f831160011461472f57614349929160009183612cdd5750508160011b916000199060031b1c19161790565b90555b6003810160608301518051906001600160401b0382116112ba5761437083546137df565b601f81116146fd575b50602090601f8311600114614696576143aa929160009183612cdd5750508160011b916000199060031b1c19161790565b90555b60ff60808301511660ff60048301911660ff198254161790556005810160a08301518051906001600160401b0382116112ba576143ea83546137df565b601f8111614664575b50602090601f83116001146145f7578260c095936006959361442b93600092612cdd5750508160011b916000199060031b1c19161790565b90555b01910151805190600160401b82116112ba578254828455808310614579575b50602001916000526020600020916000905b82821061446c5750505050565b80518051906001600160401b0382116112ba5761448986546137df565b601f8111614547575b50602090601f83116001146144da57926144cb83600195946020948796600092612cdd5750508160011b916000199060031b1c19161790565b87555b0194019101909261445f565b90601f1983169187600052816000209260005b81811061452f5750936020936001969387969383889510614516575b505050811b0187556144ce565b015160001960f88460031b161c19169055388080614509565b929360206001819287860151815501950193016144ed565b61457390876000526020600020601f850160051c8101916020861061137257601f0160051c0190614253565b38614492565b8360005282602060002091820191015b818110614596575061444d565b806145a3600192546137df565b806145b0575b5001614589565b601f811183146145c65750600081555b386145a9565b6145e4908260005283601f6020600020920160051c82019101614253565b80600052600060208120818355556145c0565b90601f1983169184600052816000209260005b81811061464c575092600192859260c098966006989610614633575b505050811b01905561442e565b015160001960f88460031b161c19169055388080614626565b9293602060018192878601518155019501930161460a565b61469090846000526020600020601f850160051c8101916020861061137257601f0160051c0190614253565b386143f3565b90601f1983169184600052816000209260005b8181106146e557509084600195949392106146cc575b505050811b0190556143ad565b015160001960f88460031b161c191690553880806146bf565b929360206001819287860151815501950193016146a9565b61472990846000526020600020601f850160051c8101916020861061137257601f0160051c0190614253565b38614379565b90601f1983169184600052816000209260005b81811061477e5750908460019594939210614765575b505050811b01905561434c565b015160001960f88460031b161c19169055388080614758565b92936020600181928786015181550195019301614742565b6147c290846000526020600020601f850160051c8101916020861061137257601f0160051c0190614253565b38614318565b90601f1983169184600052816000209260005b81811061481757509084600195949392106147fe575b505050811b0190556142eb565b015160001960f88460031b161c191690553880806147f1565b929360206001819287860151815501950193016147db565b61485b90846000526020600020601f850160051c8101916020861061137257601f0160051c0190614253565b386142b7565b600354600160401b8110156112ba576001810160035560006003548210156148b857600390526007027fc2575a0e9e593c00f959f8c92f12db2869c3395a3b0502d05e2516446f71f85b01906148b69161426a565b565b634e487b7160e01b81526032600452602490fd5b156148d357565b60405162461bcd60e51b815260206004820152601e60248201527f416363657373207265737472696374656420746f2042504f4d20726f6c6500006044820152606490fd5b909182519283516001600160401b0381116112ba5761493784546137df565b601f81116151b6575b50602094601f821160011461515157614974929394958291600092612cdd5750508160011b916000199060031b1c19161790565b83555b6001830160208201518051906001600160401b0382116112ba5761499b83546137df565b601f811161511f575b50602090601f83116001146150b8576149d5929160009183612cdd5750508160011b916000199060031b1c19161790565b90555b6002830160408201518051906001600160401b0382116112ba576149fc83546137df565b601f8111615086575b50602090601f831160011461501f57614a36929160009183612cdd5750508160011b916000199060031b1c19161790565b90555b600383016060820151805190600160401b82116112ba578254828455808310614fa1575b50602001916000526020600020916000905b828210614e9457505050506004830160808201518051906001600160401b0382116112ba57614a9e83546137df565b601f8111614e62575b50602090601f8311600114614dfb57614ad8929160009183612cdd5750508160011b916000199060031b1c19161790565b90555b6005830160a0820151805190600160401b82116112ba578254828455808310614d7d575b50602001916000526020600020916000905b828210614c705750505050600683019260c0820151614b2f816133f5565b614b38816133f5565b60ff8019865416911617845560e082015193600385101561073c57805461ff001916600895861b61ff00161790556101008201516007820155610120820151938101939093556101400151805190926009019060006001600160401b038211613c8057614ba583546137df565b601f8111614c40575b50602090601f8311600114614be25790614bde93949583612cdd5750508160011b916000199060031b1c19161790565b9055565b90601f198316848352818320925b818110614c2857509583600195969710614c0f575b505050811b019055565b015160001960f88460031b161c19169055388080614c05565b9192602060018192868b015181550194019201614bf0565b614c6a9084835260208320601f850160051c8101916020861061137257601f0160051c0190614253565b38614bae565b80518051906001600160401b0382116112ba57614c8d86546137df565b601f8111614d4b575b50602090601f8311600114614cde5792614ccf83600195946020948796600092612cdd5750508160011b916000199060031b1c19161790565b87555b01940191019092614b11565b90601f1983169187600052816000209260005b818110614d335750936020936001969387969383889510614d1a575b505050811b018755614cd2565b015160001960f88460031b161c19169055388080614d0d565b92936020600181928786015181550195019301614cf1565b614d7790876000526020600020601f850160051c8101916020861061137257601f0160051c0190614253565b38614c96565b8360005282602060002091820191015b818110614d9a5750614aff565b80614da7600192546137df565b80614db4575b5001614d8d565b601f81118314614dca5750600081555b38614dad565b614de8908260005283601f6020600020920160051c82019101614253565b8060005260006020812081835555614dc4565b90601f1983169184600052816000209260005b818110614e4a5750908460019594939210614e31575b505050811b019055614adb565b015160001960f88460031b161c19169055388080614e24565b92936020600181928786015181550195019301614e0e565b614e8e90846000526020600020601f850160051c8101916020861061137257601f0160051c0190614253565b38614aa7565b80518051906001600160401b0382116112ba57614eb186546137df565b601f8111614f6f575b50602090601f8311600114614f025792614ef383600195946020948796600092612cdd5750508160011b916000199060031b1c19161790565b87555b01940191019092614a6f565b90601f1983169187600052816000209260005b818110614f575750936020936001969387969383889510614f3e575b505050811b018755614ef6565b015160001960f88460031b161c19169055388080614f31565b92936020600181928786015181550195019301614f15565b614f9b90876000526020600020601f850160051c8101916020861061137257601f0160051c0190614253565b38614eba565b8360005282602060002091820191015b818110614fbe5750614a5d565b80614fcb600192546137df565b80614fd8575b5001614fb1565b601f81118314614fee5750600081555b38614fd1565b61500c908260005283601f6020600020920160051c82019101614253565b8060005260006020812081835555614fe8565b90601f1983169184600052816000209260005b81811061506e5750908460019594939210615055575b505050811b019055614a39565b015160001960f88460031b161c19169055388080615048565b92936020600181928786015181550195019301615032565b6150b290846000526020600020601f850160051c8101916020861061137257601f0160051c0190614253565b38614a05565b90601f1983169184600052816000209260005b81811061510757509084600195949392106150ee575b505050811b0190556149d8565b015160001960f88460031b161c191690553880806150e1565b929360206001819287860151815501950193016150cb565b61514b90846000526020600020601f850160051c8101916020861061137257601f0160051c0190614253565b386149a4565b601f1982169585600052806000209160005b88811061519e57508360019596979810615185575b505050811b018355614977565b015160001960f88460031b161c19169055388080615178565b91926020600181928685015181550194019201615163565b6151e290856000526020600020601f840160051c8101916020851061137257601f0160051c0190614253565b3861494056fea2646970667358221220e52331fa7aa83a68bba0311f60ec4151f0adb717be5294f2be19ade4d3184b5c64736f6c634300081b0033",
  "linkReferences": {},
  "deployedLinkReferences": {}
}