{
  "_format": "hh-sol-artifact-1",
  "contractName": "ObatTradisional",
  "sourceName": "contracts/ObatTradisional.sol",
  "abi": [
    {
      "anonymous": false,
      "inputs": [
        {
          "indexed": true,
          "internalType": "string",
          "name": "obatId",
          "type": "string"
        },
        {
          "indexed": true,
          "internalType": "address",
          "name": "pabrikAddress",
          "type": "address"
        },
        {
          "indexed": false,
          "internalType": "string",
          "name": "obatName",
          "type": "string"
        }
      ],
      "name": "evt_obatProduction",
      "type": "event"
    },
    {
      "inputs": [],
      "name": "get_all_obat",
      "outputs": [
        {
          "internalType": "string[]",
          "name": "",
          "type": "string[]"
        }
      ],
      "stateMutability": "view",
      "type": "function"
    },
    {
      "inputs": [
        {
          "internalType": "string",
          "name": "_obatId",
          "type": "string"
        }
      ],
      "name": "get_obat_byId",
      "outputs": [
        {
          "internalType": "address",
          "name": "pabrikAddress",
          "type": "address"
        },
        {
          "internalType": "address",
          "name": "bpomAddress",
          "type": "address"
        },
        {
          "internalType": "string",
          "name": "pabrikName",
          "type": "string"
        },
        {
          "internalType": "uint256",
          "name": "timestampReq",
          "type": "uint256"
        },
        {
          "internalType": "uint256",
          "name": "timestampApprove",
          "type": "uint256"
        },
        {
          "internalType": "string",
          "name": "obatName",
          "type": "string"
        },
        {
          "internalType": "string",
          "name": "obatId",
          "type": "string"
        },
        {
          "internalType": "string",
          "name": "obatMerk",
          "type": "string"
        },
        {
          "internalType": "string",
          "name": "obatKlaim",
          "type": "string"
        },
        {
          "internalType": "string",
          "name": "obatKomposisi",
          "type": "string"
        },
        {
          "internalType": "string",
          "name": "obatKemasan",
          "type": "string"
        },
        {
          "internalType": "string",
          "name": "numberNie",
          "type": "string"
        },
        {
          "internalType": "enum ObatTradisional.en_StatusObat",
          "name": "statusObat",
          "type": "uint8"
        }
      ],
      "stateMutability": "view",
      "type": "function"
    },
    {
      "inputs": [
        {
          "internalType": "uint256",
          "name": "",
          "type": "uint256"
        }
      ],
      "name": "idObat",
      "outputs": [
        {
          "internalType": "string",
          "name": "",
          "type": "string"
        }
      ],
      "stateMutability": "view",
      "type": "function"
    },
    {
      "inputs": [
        {
          "internalType": "string",
          "name": "_nieNumber",
          "type": "string"
        },
        {
          "internalType": "string",
          "name": "_obatId",
          "type": "string"
        }
      ],
      "name": "nie_approve",
      "outputs": [],
      "stateMutability": "nonpayable",
      "type": "function"
    },
    {
      "inputs": [
        {
          "internalType": "string",
          "name": "_obatId",
          "type": "string"
        }
      ],
      "name": "nie_request",
      "outputs": [],
      "stateMutability": "nonpayable",
      "type": "function"
    },
    {
      "inputs": [
        {
          "internalType": "string",
          "name": "",
          "type": "string"
        }
      ],
      "name": "obatData",
      "outputs": [
        {
          "internalType": "address",
          "name": "pabrikAddress",
          "type": "address"
        },
        {
          "internalType": "address",
          "name": "bpomAddress",
          "type": "address"
        },
        {
          "internalType": "string",
          "name": "pabrikName",
          "type": "string"
        },
        {
          "internalType": "uint256",
          "name": "timestampReq",
          "type": "uint256"
        },
        {
          "internalType": "uint256",
          "name": "timestampApprove",
          "type": "uint256"
        },
        {
          "internalType": "string",
          "name": "obatName",
          "type": "string"
        },
        {
          "internalType": "string",
          "name": "obatId",
          "type": "string"
        },
        {
          "internalType": "string",
          "name": "obatMerk",
          "type": "string"
        },
        {
          "internalType": "string",
          "name": "obatKlaim",
          "type": "string"
        },
        {
          "internalType": "string",
          "name": "obatKomposisi",
          "type": "string"
        },
        {
          "internalType": "string",
          "name": "obatKemasan",
          "type": "string"
        },
        {
          "internalType": "string",
          "name": "numberNie",
          "type": "string"
        },
        {
          "internalType": "enum ObatTradisional.en_StatusObat",
          "name": "statusObat",
          "type": "uint8"
        }
      ],
      "stateMutability": "view",
      "type": "function"
    },
    {
      "inputs": [
        {
          "internalType": "string",
          "name": "_obatId",
          "type": "string"
        },
        {
          "internalType": "string",
          "name": "_pabrikName",
          "type": "string"
        },
        {
          "internalType": "string",
          "name": "_obatName",
          "type": "string"
        },
        {
          "internalType": "string",
          "name": "_obatMerk",
          "type": "string"
        },
        {
          "internalType": "string",
          "name": "_obatKlaim",
          "type": "string"
        },
        {
          "internalType": "string",
          "name": "_obatKomposisi",
          "type": "string"
        },
        {
          "internalType": "string",
          "name": "_obatKemasan",
          "type": "string"
        }
      ],
      "name": "obat_production",
      "outputs": [],
      "stateMutability": "nonpayable",
      "type": "function"
    }
  ],
  "bytecode": "0x608080604052346015576114c0908161001b8239f35b600080fdfe608080604052600436101561001357600080fd5b60003560e01c9081630e96e278146106b8575080630f39431c1461051d57806349bd9672146103d057806375711f49146102df578063a6dddde314610141578063c723c191146100dc5763e960ae5e1461006c57600080fd5b346100d75760203660031901126100d7576004356001600160401b0381116100d75760206100a0600c923690600401611102565b91906100ad83151561144c565b8260405193849283378101600181520301902042600382015501600160ff19825416179055600080f35b600080fd5b346100d75760203660031901126100d7576004356000548110156100d757610103906113ca565b61012b5761011361012791611252565b6040519182916020835260208301906111f3565b0390f35b634e487b7160e01b600052600060045260246000fd5b346100d75760203660031901126100d7576004356001600160401b0381116100d7576101736020913690600401611102565b9190826040519384928337810160018152030190206040516101948161112f565b81546001600160a01b03908116825260018301541660208201908152906101bd60028401611252565b926040820193845260038101549160608101928352600482015491608082019283526101eb60058201611252565b60a083019081526101fe60068301611252565b60c0840190815261021160078401611252565b60e0850190815261022460088501611252565b90610100860191825261023960098601611252565b92610120870193845261024e600a8701611252565b94610140880195865260ff600c610267600b8a01611252565b986101608b01998a520154169761018081019860038110156102c95798899052519a519b519951985190519151925193519451955196516001600160a01b039c8d169c909b169a979860038a10156102c9576101279a6040519d8e9d8e6112f6565b634e487b7160e01b600052602160045260246000fd5b346100d75760203660031901126100d7576004356001600160401b0381116100d75760206103146103279236906004016111b2565b81604051938285809451938492016111d0565b8101600181520301902060018060a01b0381541661012760018060a01b036001840154169261035860028201611252565b906003810154600482015461036f60058401611252565b61037b60068501611252565b61038760078601611252565b9061039460088701611252565b926103a160098801611252565b946103ae600a8901611252565b9660ff600c6103bf600b8c01611252565b9a015416996040519d8e9d8e6112f6565b346100d75760003660031901126100d75760005480156104df576001600160401b0381116104c9576040519061040c60208260051b018361114b565b808252602082019081600080527f290decd9548b62a8d60345a988386fc84ba6bc95484008f6362f93160ef3e5636000915b8383106104ac57848660405191829160208301906020845251809152604083019060408160051b85010192916000905b82821061047d57505050500390f35b9193600191939550602061049c8192603f198a820301865288516111f3565b960192019201859493919261046e565b6001602081926104bb85611252565b81520192019201919061043e565b634e487b7160e01b600052604160045260246000fd5b60405162461bcd60e51b81526020600482015260166024820152754e6f206f626174206461746120617661696c61626c6560501b6044820152606490fd5b346100d75760403660031901126100d7576004356001600160401b0381116100d75761054d9036906004016111b2565b6024356001600160401b0381116100d75761056c903690600401611102565b9082511561067d5760209061058283151561144c565b82604051938492833781016001815203019020600b81018251926001600160401b0384116104c9576105be846105b88454611218565b846113fa565b602090601f85116001146106145793806105f292600c96600092610609575b50508160011b916000199060031b1c19161790565b90555b42600482015501805460ff19166002179055005b0151905086806105dd565b90601f1985169183600052816000209260005b8181106106655750916001939187600c98941061064c575b505050811b0190556105f5565b015160001960f88460031b161c1916905585808061063f565b92936020600181928786015181550195019301610627565b60405162461bcd60e51b8152602060048201526013602482015272496e76616c69642052657175657374204e494560681b6044820152606490fd5b346100d75760e03660031901126100d7576004356001600160401b0381116100d7576106e8903690600401611102565b90916024356001600160401b0381116100d757610709903690600401611102565b92906044356001600160401b0381116100d75761072a903690600401611102565b9390916064356001600160401b0381116100d75761074c903690600401611102565b906084356001600160401b0381116100d75761076c903690600401611102565b60a4356001600160401b0381116100d75761078b903690600401611102565b93909460c4356001600160401b0381116100d7576107ad903690600401611102565b9790988b156110cb57506040519c6107c48e61112f565b8d3381526020016000905236906107da9261116c565b60408d0152600060608d0181905260808d01526107f8368c8b61116c565b60a08d0152610808368b8f61116c565b60c08d015236906108189261116c565b60e08b015236906108289261116c565b61010089015236906108399261116c565b610120870152369061084a9261116c565b610140850152604091825161085f848261114b565b60018152600360fc1b6020820152610160860152600061018086015282518187823760018282018181526020908390038101909220875181546001600160a01b03199081166001600160a01b039283161783559389015192820180549094169216919091179091556040860151805160028301916001600160401b0382116104c9576108f5826108ef8554611218565b856113fa565b602090601f831160011461106457610925929160009183610def5750508160011b916000199060031b1c19161790565b90555b60608601516003820155608086015160048201556005810160a08701518051906001600160401b0382116104c957610964826108ef8554611218565b602090601f8311600114610ffd57610994929160009183610def5750508160011b916000199060031b1c19161790565b90555b6006810160c08701518051906001600160401b0382116104c9576109bf826108ef8554611218565b602090601f8311600114610f96576109ef929160009183610def5750508160011b916000199060031b1c19161790565b90555b6007810160e08701518051906001600160401b0382116104c957610a1a826108ef8554611218565b602090601f8311600114610f2f57610a4a929160009183610def5750508160011b916000199060031b1c19161790565b90555b600881016101008701518051906001600160401b0382116104c957610a76826108ef8554611218565b602090601f8311600114610ec857610aa6929160009183610def5750508160011b916000199060031b1c19161790565b90555b600981016101208701518051906001600160401b0382116104c957610ad2826108ef8554611218565b602090601f8311600114610e6157610b02929160009183610def5750508160011b916000199060031b1c19161790565b90555b600a81016101408701518051906001600160401b0382116104c957610b2e826108ef8554611218565b602090601f8311600114610dfa57610b5e929160009183610def5750508160011b916000199060031b1c19161790565b90555b600b81016101608701518051906001600160401b0382116104c957610b8a826108ef8554611218565b602090601f8311600114610d8157826101809593600c9593610bc293600092610d765750508160011b916000199060031b1c19161790565b90555b019501519460038610156102c95760009560ff80198354169116179055845468010000000000000000811015610d4e57806001610c04920187556113ca565b969096610d62576001600160401b038211610d4e57610c2d82610c278954611218565b896113fa565b8596601f8311600114610cca57610c7f8380899a7f11419415138c694473a0c3f4f8e450395791888ab0252860facc797811dbe66898999a91610cbf575b508160011b916000199060031b1c19161790565b90555b818551928392833781018781520390209284815192602084528160208501528284013785818684010152813395601f80199101168101030190a380f35b90508401358b610c6b565b80875260208720601f19841698885b8a8110610d365750847f11419415138c694473a0c3f4f8e450395791888ab0252860facc797811dbe6689798999a10610d1c575b5050600183811b019055610c82565b830135600019600386901b60f8161c191690558880610d0d565b90916020600181928588013581550193019101610cd9565b634e487b7160e01b86526041600452602486fd5b634e487b7160e01b86526004869052602486fd5b015190508d806105dd565b90601f1983169184600052816000209260005b818110610dd757509260019285926101809896600c989610610dbe575b505050811b019055610bc5565b015160001960f88460031b161c191690558c8080610db1565b92936020600181928786015181550195019301610d94565b015190508b806105dd565b90601f1983169184600052816000209260005b818110610e495750908460019594939210610e30575b505050811b019055610b61565b015160001960f88460031b161c191690558a8080610e23565b92936020600181928786015181550195019301610e0d565b90601f1983169184600052816000209260005b818110610eb05750908460019594939210610e97575b505050811b019055610b05565b015160001960f88460031b161c191690558a8080610e8a565b92936020600181928786015181550195019301610e74565b90601f1983169184600052816000209260005b818110610f175750908460019594939210610efe575b505050811b019055610aa9565b015160001960f88460031b161c191690558a8080610ef1565b92936020600181928786015181550195019301610edb565b90601f1983169184600052816000209260005b818110610f7e5750908460019594939210610f65575b505050811b019055610a4d565b015160001960f88460031b161c191690558a8080610f58565b92936020600181928786015181550195019301610f42565b90601f1983169184600052816000209260005b818110610fe55750908460019594939210610fcc575b505050811b0190556109f2565b015160001960f88460031b161c191690558a8080610fbf565b92936020600181928786015181550195019301610fa9565b90601f1983169184600052816000209260005b81811061104c5750908460019594939210611033575b505050811b019055610997565b015160001960f88460031b161c191690558a8080611026565b92936020600181928786015181550195019301611010565b90601f1983169184600052816000209260005b8181106110b3575090846001959493921061109a575b505050811b019055610928565b015160001960f88460031b161c191690558a808061108d565b92936020600181928786015181550195019301611077565b62461bcd60e51b8152602060048201526012602482015271125b9d985b1a590814995c5d595cdd08125160721b6044820152606490fd5b9181601f840112156100d7578235916001600160401b0383116100d757602083818601950101116100d757565b6101a081019081106001600160401b038211176104c957604052565b90601f801991011681019081106001600160401b038211176104c957604052565b9291926001600160401b0382116104c95760405191611195601f8201601f19166020018461114b565b8294818452818301116100d7578281602093846000960137010152565b9080601f830112156100d7578160206111cd9335910161116c565b90565b60005b8381106111e35750506000910152565b81810151838201526020016111d3565b9060209161120c815180928185528580860191016111d0565b601f01601f1916010190565b90600182811c92168015611248575b602083101461123257565b634e487b7160e01b600052602260045260246000fd5b91607f1691611227565b906040519182600082549261126684611218565b80845293600181169081156112d4575060011461128d575b5061128b9250038361114b565b565b90506000929192526020600020906000915b8183106112b857505090602061128b928201013861127e565b602091935080600191548385890101520191019091849261129f565b90506020925061128b94915060ff191682840152151560051b8201013861127e565b61139b97819f9e9d9b976113aa9b96611361916113b99f9c969961134961137d9961138c9c61136f9960018060a01b0316895260018060a01b031660208901526101a060408901526101a08801906111f3565b926060870152608086015284820360a08601526111f3565b9160c08184039101526111f3565b8d810360e08f0152906111f3565b908b82036101008d01526111f3565b908982036101208b01526111f3565b908782036101408901526111f3565b908582036101608701526111f3565b9260038210156102c9576101800152565b6000548110156113e4576000805260206000200190600090565b634e487b7160e01b600052603260045260246000fd5b601f821161140757505050565b6000526020600020906020601f840160051c83019310611442575b601f0160051c01905b818110611436575050565b6000815560010161142b565b9091508190611422565b1561145357565b60405162461bcd60e51b815260206004820152600f60248201526e125b9d985b1a590812510813d8985d608a1b6044820152606490fdfea264697066735822122081f5b806e5a6de12bf62ad226c7d8d766dcae6ce2f3960558804b58a4717a5db64736f6c634300081b0033",
  "linkReferences": {},
  "deployedLinkReferences": {}
}