{
  "_format": "hh-sol-artifact-1",
  "contractName": "ObatTradisional",
  "sourceName": "contracts/ObatTradisional.sol",
  "abi": [
    {
      "inputs": [
        {
          "internalType": "address",
          "name": "_roleManagerAddr",
          "type": "address"
        },
        {
          "internalType": "address",
          "name": "_mainSupplyChainAddr",
          "type": "address"
        },
        {
          "internalType": "address",
          "name": "_obatCreatorAddr",
          "type": "address"
        }
      ],
      "stateMutability": "nonpayable",
      "type": "constructor"
    },
    {
      "anonymous": false,
      "inputs": [
        {
          "indexed": false,
          "internalType": "string",
          "name": "batchName",
          "type": "string"
        },
        {
          "indexed": false,
          "internalType": "uint8",
          "name": "quantity",
          "type": "uint8"
        },
        {
          "indexed": false,
          "internalType": "string",
          "name": "namaProduk",
          "type": "string"
        },
        {
          "indexed": false,
          "internalType": "string",
          "name": "factoryInstance",
          "type": "string"
        }
      ],
      "name": "evt_addBatchProduction",
      "type": "event"
    },
    {
      "anonymous": false,
      "inputs": [
        {
          "indexed": false,
          "internalType": "string",
          "name": "bpomInstance",
          "type": "string"
        },
        {
          "indexed": false,
          "internalType": "address",
          "name": "bpomAddr",
          "type": "address"
        },
        {
          "indexed": false,
          "internalType": "string",
          "name": "nieNumber",
          "type": "string"
        },
        {
          "indexed": false,
          "internalType": "uint256",
          "name": "timestampApproved",
          "type": "uint256"
        }
      ],
      "name": "evt_nieApproved",
      "type": "event"
    },
    {
      "anonymous": false,
      "inputs": [
        {
          "indexed": false,
          "internalType": "string",
          "name": "factoryInstance",
          "type": "string"
        },
        {
          "indexed": false,
          "internalType": "address",
          "name": "factoryAddr",
          "type": "address"
        },
        {
          "indexed": false,
          "internalType": "uint256",
          "name": "timestampRequest",
          "type": "uint256"
        }
      ],
      "name": "evt_nieRequested",
      "type": "event"
    },
    {
      "anonymous": false,
      "inputs": [
        {
          "indexed": false,
          "internalType": "string",
          "name": "namaProduk",
          "type": "string"
        },
        {
          "indexed": false,
          "internalType": "string",
          "name": "factoryInstance",
          "type": "string"
        },
        {
          "indexed": false,
          "internalType": "address",
          "name": "factoryAddresses",
          "type": "address"
        }
      ],
      "name": "evt_obatCreated",
      "type": "event"
    },
    {
      "inputs": [
        {
          "internalType": "string",
          "name": "_obatId",
          "type": "string"
        },
        {
          "internalType": "string",
          "name": "_namaProduk",
          "type": "string"
        },
        {
          "internalType": "string",
          "name": "_batchName",
          "type": "string"
        },
        {
          "internalType": "uint8",
          "name": "_obatQuantity",
          "type": "uint8"
        },
        {
          "internalType": "string[]",
          "name": "_obatIpfsHash",
          "type": "string[]"
        },
        {
          "internalType": "string",
          "name": "_factoryInstance",
          "type": "string"
        }
      ],
      "name": "addBatchProduction",
      "outputs": [],
      "stateMutability": "nonpayable",
      "type": "function"
    },
    {
      "inputs": [
        {
          "internalType": "uint256",
          "name": "",
          "type": "uint256"
        }
      ],
      "name": "allObatIds",
      "outputs": [
        {
          "internalType": "string",
          "name": "",
          "type": "string"
        }
      ],
      "stateMutability": "view",
      "type": "function"
    },
    {
      "inputs": [
        {
          "internalType": "string",
          "name": "_obatId",
          "type": "string"
        },
        {
          "internalType": "string",
          "name": "_nieNumber",
          "type": "string"
        },
        {
          "internalType": "string",
          "name": "_instanceName",
          "type": "string"
        },
        {
          "internalType": "address",
          "name": "_instanceAddr",
          "type": "address"
        }
      ],
      "name": "approveNie",
      "outputs": [],
      "stateMutability": "nonpayable",
      "type": "function"
    },
    {
      "inputs": [
        {
          "internalType": "string",
          "name": "_obatId",
          "type": "string"
        },
        {
          "internalType": "string",
          "name": "_merk",
          "type": "string"
        },
        {
          "internalType": "string",
          "name": "_namaProduk",
          "type": "string"
        },
        {
          "internalType": "string[]",
          "name": "_klaim",
          "type": "string[]"
        },
        {
          "internalType": "string",
          "name": "_kemasan",
          "type": "string"
        },
        {
          "internalType": "string[]",
          "name": "_komposisi",
          "type": "string[]"
        },
        {
          "internalType": "string",
          "name": "_factoryInstance",
          "type": "string"
        },
        {
          "internalType": "enum EnumsLibrary.TipeProduk",
          "name": "_tipeProduk",
          "type": "uint8"
        }
      ],
      "name": "createObat",
      "outputs": [],
      "stateMutability": "nonpayable",
      "type": "function"
    },
    {
      "inputs": [
        {
          "internalType": "string",
          "name": "_obatId",
          "type": "string"
        },
        {
          "internalType": "string",
          "name": "_batchName",
          "type": "string"
        }
      ],
      "name": "detailBatchProduction",
      "outputs": [
        {
          "components": [
            {
              "internalType": "enum EnumsLibrary.ObatAvailability",
              "name": "statusStok",
              "type": "uint8"
            },
            {
              "internalType": "string",
              "name": "namaProduk",
              "type": "string"
            },
            {
              "internalType": "string",
              "name": "batchName",
              "type": "string"
            },
            {
              "internalType": "uint8",
              "name": "obatQuantity",
              "type": "uint8"
            },
            {
              "internalType": "string[]",
              "name": "obatIpfs",
              "type": "string[]"
            },
            {
              "internalType": "string",
              "name": "factoryInstance",
              "type": "string"
            }
          ],
          "internalType": "struct ObatCreator.st_obatProduction",
          "name": "",
          "type": "tuple"
        }
      ],
      "stateMutability": "view",
      "type": "function"
    },
    {
      "inputs": [
        {
          "internalType": "string",
          "name": "_obatId",
          "type": "string"
        }
      ],
      "name": "detailObat",
      "outputs": [
        {
          "components": [
            {
              "internalType": "string",
              "name": "merk",
              "type": "string"
            },
            {
              "internalType": "string",
              "name": "namaProduk",
              "type": "string"
            },
            {
              "internalType": "string[]",
              "name": "klaim",
              "type": "string[]"
            },
            {
              "internalType": "string[]",
              "name": "komposisi",
              "type": "string[]"
            },
            {
              "internalType": "string",
              "name": "kemasan",
              "type": "string"
            },
            {
              "internalType": "enum EnumsLibrary.TipeProduk",
              "name": "tipeProduk",
              "type": "uint8"
            },
            {
              "internalType": "string",
              "name": "factoryInstance",
              "type": "string"
            },
            {
              "internalType": "address",
              "name": "factoryAddr",
              "type": "address"
            }
          ],
          "internalType": "struct ObatCreator.st_obatDetails",
          "name": "",
          "type": "tuple"
        },
        {
          "components": [
            {
              "internalType": "string",
              "name": "nieNumber",
              "type": "string"
            },
            {
              "internalType": "enum EnumsLibrary.NieStatus",
              "name": "nieStatus",
              "type": "uint8"
            },
            {
              "internalType": "uint256",
              "name": "timestampProduction",
              "type": "uint256"
            },
            {
              "internalType": "uint256",
              "name": "timestampNieRequest",
              "type": "uint256"
            },
            {
              "internalType": "uint256",
              "name": "timestampNieApprove",
              "type": "uint256"
            },
            {
              "internalType": "string",
              "name": "bpomInstance",
              "type": "string"
            },
            {
              "internalType": "address",
              "name": "bpomAddr",
              "type": "address"
            }
          ],
          "internalType": "struct ObatTradisional.st_obatNie",
          "name": "",
          "type": "tuple"
        }
      ],
      "stateMutability": "view",
      "type": "function"
    },
    {
      "inputs": [
        {
          "internalType": "string",
          "name": "_instanceName",
          "type": "string"
        }
      ],
      "name": "getAllBatchProductionByInstance",
      "outputs": [
        {
          "components": [
            {
              "internalType": "string",
              "name": "obatId",
              "type": "string"
            },
            {
              "internalType": "string",
              "name": "namaProduk",
              "type": "string"
            },
            {
              "internalType": "string",
              "name": "batchName",
              "type": "string"
            },
            {
              "internalType": "uint8",
              "name": "obatQuantity",
              "type": "uint8"
            },
            {
              "internalType": "enum EnumsLibrary.ObatAvailability",
              "name": "statusStok",
              "type": "uint8"
            },
            {
              "internalType": "string",
              "name": "ownerInstance",
              "type": "string"
            }
          ],
          "internalType": "struct ObatTradisional.st_obatOutputBatch[]",
          "name": "",
          "type": "tuple[]"
        }
      ],
      "stateMutability": "view",
      "type": "function"
    },
    {
      "inputs": [],
      "name": "getAllBatchProductionReadyStock",
      "outputs": [
        {
          "components": [
            {
              "internalType": "string",
              "name": "obatId",
              "type": "string"
            },
            {
              "internalType": "string",
              "name": "namaProduk",
              "type": "string"
            },
            {
              "internalType": "string",
              "name": "batchName",
              "type": "string"
            },
            {
              "internalType": "uint8",
              "name": "obatQuantity",
              "type": "uint8"
            },
            {
              "internalType": "enum EnumsLibrary.ObatAvailability",
              "name": "statusStok",
              "type": "uint8"
            },
            {
              "internalType": "string",
              "name": "ownerInstance",
              "type": "string"
            }
          ],
          "internalType": "struct ObatTradisional.st_obatOutputBatch[]",
          "name": "",
          "type": "tuple[]"
        }
      ],
      "stateMutability": "view",
      "type": "function"
    },
    {
      "inputs": [],
      "name": "getAllObat",
      "outputs": [
        {
          "components": [
            {
              "internalType": "string",
              "name": "obatId",
              "type": "string"
            },
            {
              "internalType": "string",
              "name": "namaProduk",
              "type": "string"
            },
            {
              "internalType": "string",
              "name": "nieNumber",
              "type": "string"
            },
            {
              "internalType": "enum EnumsLibrary.NieStatus",
              "name": "nieStatus",
              "type": "uint8"
            },
            {
              "internalType": "string",
              "name": "factoryInstance",
              "type": "string"
            }
          ],
          "internalType": "struct ObatTradisional.st_obatOutputNie[]",
          "name": "",
          "type": "tuple[]"
        }
      ],
      "stateMutability": "view",
      "type": "function"
    },
    {
      "inputs": [
        {
          "internalType": "string",
          "name": "_instanceName",
          "type": "string"
        }
      ],
      "name": "getAllObatByInstance",
      "outputs": [
        {
          "components": [
            {
              "internalType": "string",
              "name": "obatId",
              "type": "string"
            },
            {
              "internalType": "string",
              "name": "namaProduk",
              "type": "string"
            },
            {
              "internalType": "string",
              "name": "nieNumber",
              "type": "string"
            },
            {
              "internalType": "enum EnumsLibrary.NieStatus",
              "name": "nieStatus",
              "type": "uint8"
            },
            {
              "internalType": "string",
              "name": "factoryInstance",
              "type": "string"
            }
          ],
          "internalType": "struct ObatTradisional.st_obatOutputNie[]",
          "name": "",
          "type": "tuple[]"
        }
      ],
      "stateMutability": "view",
      "type": "function"
    },
    {
      "inputs": [
        {
          "internalType": "string",
          "name": "_instanceName",
          "type": "string"
        }
      ],
      "name": "getAllObatNameApprovedNie",
      "outputs": [
        {
          "components": [
            {
              "internalType": "string",
              "name": "obatId",
              "type": "string"
            },
            {
              "internalType": "string",
              "name": "namaProduk",
              "type": "string"
            }
          ],
          "internalType": "struct ObatTradisional.st_obatNameApprovedNie[]",
          "name": "",
          "type": "tuple[]"
        }
      ],
      "stateMutability": "view",
      "type": "function"
    },
    {
      "inputs": [
        {
          "internalType": "string",
          "name": "_factoryInstanceName",
          "type": "string"
        }
      ],
      "name": "getJenisSediaanAvail",
      "outputs": [
        {
          "internalType": "uint8[]",
          "name": "",
          "type": "uint8[]"
        }
      ],
      "stateMutability": "view",
      "type": "function"
    },
    {
      "inputs": [],
      "name": "mainSupplyChain",
      "outputs": [
        {
          "internalType": "contract MainSupplyChain",
          "name": "",
          "type": "address"
        }
      ],
      "stateMutability": "view",
      "type": "function"
    },
    {
      "inputs": [],
      "name": "obatCreator",
      "outputs": [
        {
          "internalType": "contract ObatCreator",
          "name": "",
          "type": "address"
        }
      ],
      "stateMutability": "view",
      "type": "function"
    },
    {
      "inputs": [
        {
          "internalType": "string",
          "name": "",
          "type": "string"
        }
      ],
      "name": "obatNieById",
      "outputs": [
        {
          "internalType": "string",
          "name": "nieNumber",
          "type": "string"
        },
        {
          "internalType": "enum EnumsLibrary.NieStatus",
          "name": "nieStatus",
          "type": "uint8"
        },
        {
          "internalType": "uint256",
          "name": "timestampProduction",
          "type": "uint256"
        },
        {
          "internalType": "uint256",
          "name": "timestampNieRequest",
          "type": "uint256"
        },
        {
          "internalType": "uint256",
          "name": "timestampNieApprove",
          "type": "uint256"
        },
        {
          "internalType": "string",
          "name": "bpomInstance",
          "type": "string"
        },
        {
          "internalType": "address",
          "name": "bpomAddr",
          "type": "address"
        }
      ],
      "stateMutability": "view",
      "type": "function"
    },
    {
      "inputs": [
        {
          "internalType": "string",
          "name": "",
          "type": "string"
        },
        {
          "internalType": "uint256",
          "name": "",
          "type": "uint256"
        }
      ],
      "name": "obatProductNameApprovedByFactory",
      "outputs": [
        {
          "internalType": "string",
          "name": "obatId",
          "type": "string"
        },
        {
          "internalType": "string",
          "name": "namaProduk",
          "type": "string"
        }
      ],
      "stateMutability": "view",
      "type": "function"
    },
    {
      "inputs": [
        {
          "internalType": "string",
          "name": "_obatId",
          "type": "string"
        },
        {
          "internalType": "string",
          "name": "_factoryInstance",
          "type": "string"
        }
      ],
      "name": "requestNie",
      "outputs": [],
      "stateMutability": "nonpayable",
      "type": "function"
    },
    {
      "inputs": [],
      "name": "roleManager",
      "outputs": [
        {
          "internalType": "contract RoleManager",
          "name": "",
          "type": "address"
        }
      ],
      "stateMutability": "view",
      "type": "function"
    },
    {
      "inputs": [
        {
          "internalType": "string",
          "name": "_obatId",
          "type": "string"
        },
        {
          "internalType": "string",
          "name": "_batchName",
          "type": "string"
        },
        {
          "internalType": "string[]",
          "name": "_obatIpfs",
          "type": "string[]"
        }
      ],
      "name": "updateBatchProduction",
      "outputs": [],
      "stateMutability": "view",
      "type": "function"
    }
  ],
  "bytecode": "0x60803460a357601f61321c38819003918201601f19168301916001600160401b0383118484101760a85780849260609460405283398101031260a35760428160be565b906057604060516020840160be565b920160be565b600080546001600160a01b039485166001600160a01b03199182161790915560018054938516938216939093179092556002805491909316911617905560405161314a90816100d28239f35b600080fd5b634e487b7160e01b600052604160045260246000fd5b51906001600160a01b038216820360a35756fe608080604052600436101561001357600080fd5b600090813560e01c908162435da51461220d5750806302d4a86b14611f815780631bbd28f914611c845780634d17d27314611a3957806350168fbb146117ef5780635162659c14611723578063542536811461150457806365e90bcc1461145a5780636b0a3fe5146113155780639413fcfd146112ec578063a1e0a4b0146112c4578063baeedfad14610fcb578063cb960d6b14610f64578063d44faa6314610e0e578063e521d58614610b94578063e5dd1d061461047a578063e89820351461035f578063e8f1db64146103365763e9c14cb8146100f157600080fd5b34610333576060366003190112610333576004356001600160401b0381116103315761012190369060040161230b565b6024356001600160401b03811161032d5761014090369060040161230b565b6044356001600160401b0381116103295761015f903690600401612718565b83546040516395a8c58d60e01b81523360048201526001602482015291929190602090829060449082906001600160a01b03165afa90811561031e5785916102ef575b50156102bf57836101db9360018060a01b036002541660405180809781946346abdd0560e11b835260206004840152602483019061237a565b03915afa9283156102b4578493610290575b5060405161021c6020828161020b8183019687815193849201612357565b81010301601f1981018352826122cf565b51902091835b815181101561028c578084604061023b60019486612ce2565b51015160405161025b6020828161020b8183019687815193849201612357565b5190201461026a575b01610222565b816102758285612ce2565b51528360806102848386612ce2565b510152610264565b8480f35b6102ad9193503d8086833e6102a581836122cf565b810190612b7a565b91386101ed565b6040513d86823e3d90fd5b60405162461bcd60e51b815260206004820152600860248201526727b7363c9028212360c11b6044820152606490fd5b610311915060203d602011610317575b61030981836122cf565b810190612a97565b386101a2565b503d6102ff565b6040513d87823e3d90fd5b8380fd5b8280fd5b505b80fd5b50346103335780600319360112610333576002546040516001600160a01b039091168152602090f35b50346103335761036e36612667565b82546040516395a8c58d60e01b815233600482015260006024820152929190602090849060449082906001600160a01b03165afa9182156102b45761042160206001926103e761044b967fb15dd5852a569d549821835c26451fad3d4015817430a7f3e7557f6875389353988a9161045d575b50612aaf565b604051908051916003848301936103ff818487612357565b8201916004835285814294030190200155604051938492839251928391612357565b8101600481520301902001600160ff1982541617905560405191829160608352606083019061237a565b3360208301524260408301520390a180f35b6104749150843d86116103175761030981836122cf565b386103e1565b503461033357610100366003190112610333576004356001600160401b038111610331576104ac90369060040161230b565b6024356001600160401b03811161032d576104cb90369060040161230b565b906044356001600160401b038111610329576104eb90369060040161230b565b916064356001600160401b038111610b905761050b903690600401612718565b906084356001600160401b038111610b8c5761052b90369060040161230b565b9160a4356001600160401b038111610b2a5761054b903690600401612718565b60c4356001600160401b038111610b885761056a90369060040161230b565b9360e435906002821015610b845788546040516395a8c58d60e01b81523360048201526000602482015290602090829060449082906001600160a01b03165afa8015610b79576105c0918b91610b605750612aaf565b865115610b2e5760025489956001600160a01b0390911691823b15610b2a57888a948896928793604051998a988997889663a24f650960e01b885260048801610120905261012488016106129161237a565b8781036003190160248901526106279161237a565b86810360031901604488015261063c9161237a565b85810360031901606487015261065191612489565b84810360031901608486015261066691612489565b8381036003190160a485015261067b9161237a565b906106858161239f565b60c48301528181036003190160e48301526106a0908a61237a565b3361010483015203925af18015610b1f57610b0a575b50506106c0612d1b565b50604051906106ce82612299565b602080926040516106df83826122cf565b8781528152818101878152604082014281526060830189815260808401908a82526040519261070e87856122cf565b8b845260a0860193845260c08601948c865261074f61073d898d6040519b8c9382859351928391019e8f612357565b81016004815203019020975188612796565b6001870190516003811015610af657815460ff191660ff9190911617905551600286015551600385015551600484015551600691906107919060058501612796565b51910180546001600160a01b0319166001600160a01b0392909216919091179055600354600160401b811015610ae2578060016107d192016003556126e6565b610ace57846107df91612796565b6040938451906107ef86836122cf565b600b82526a4c414c414c414c31322d3160a81b8583015260016108f7868851956108198a886122cf565b600d87526c212827a69026b0b5b0b9b9b0b960991b828801526108598760058c5185818a5161084981838a612357565b8101600481520301902001612796565b60068a518381885161086c818388612357565b81016004815203019020017370997970c51812dc3a010c7d01b50e0d17dc79c86bffffffffffffffffffffffff60a01b8254161790556108c6868b51848189516108b7818389612357565b81016004815203019020612796565b8951600486516108d7818486612357565b820191818352848142940301902001558951809381928751928391612357565b8101600481520301902001600260ff1982541617905560018060a01b03600254168887518092636b2c133960e11b8252886004830152818061093c602482018861237a565b03915afa908115610ac4578991610aa2575b506109828660c0818401519301518951946109688661227e565b8552818501938452818a5193828580945193849201612357565b81016005815203019020805490600160401b821015610a8e57906109ab916001820181556126b4565b929092610a7a57610a6e94610a457fa8a9f5de4b20098e7555472ad4adfbbb072e2fdd6bfa4c1b1a7b7645f47803519a9895610a20610a619b999660017f40bd250f4e1cad69631af5d42189453e9c51f25278bd4232fe29ed01aa2f6ee497610a18610a33985184612796565b519101612796565b885193849360808552608085019061237a565b9033888501528382038a85015261237a565b4260608301520390a1835195869560608752606087019061237a565b918583039086015261237a565b9033908301520390a180f35b634e487b7160e01b8a5260048a905260248afd5b634e487b7160e01b8b52604160045260248bfd5b610abe91503d808b833e610ab681836122cf565b810190612961565b3861094e565b87513d8b823e3d90fd5b634e487b7160e01b87526004879052602487fd5b634e487b7160e01b87526041600452602487fd5b634e487b7160e01b8e52602160045260248efd5b81610b14916122cf565b6103295783386106b6565b6040513d84823e3d90fd5b8680fd5b60405162461bcd60e51b815260206004820152600a602482015269125b9d985b1a5908125160b21b6044820152606490fd5b610474915060203d6020116103175761030981836122cf565b6040513d8c823e3d90fd5b8880fd5b8780fd5b8580fd5b8480fd5b50346103335760c0366003190112610333576004356001600160401b03811161033157610bc590369060040161230b565b6024356001600160401b03811161032d57610be490369060040161230b565b906044356001600160401b03811161032957610c0490369060040161230b565b916064359060ff8216809203610b90576084356001600160401b038111610b8c57610c33903690600401612718565b928560a4356001600160401b03811161033157610c5490369060040161230b565b81546040516395a8c58d60e01b81523360048201526000602482015291969190602090829060449082906001600160a01b03165afa8015610e0357610c9f918491610b605750612aaf565b6002546001600160a01b0316803b1561032d57610ceb83610cfd95610d39610d278996610d0f8e6040519b8c9a8b998a98637290eac360e11b8a5260c060048b015260c48a019061237a565b8881036003190160248a01529061237a565b8681036003190160448801529061237a565b908c6064860152600319858303016084860152612489565b8281036003190160a48401528b61237a565b03925af18015610df857610db2575b50610d8b92610d9e7f48086aa029a355c9dd13e9f17292a5cc49f3b533bf3324ad5a543814b0ff5f139593610dac9360405196879660808852608088019061237a565b916020870152858203604087015261237a565b90838203606085015261237a565b0390a180f35b92610d9e7f48086aa029a355c9dd13e9f17292a5cc49f3b533bf3324ad5a543814b0ff5f13959387610deb610dac9599610d8b986122cf565b9793509395505092610d48565b6040513d88823e3d90fd5b6040513d85823e3d90fd5b503461033357602036600319011261033357600435816001600160401b03821161033357610e43610e7192369060040161230b565b60018060a01b0360015416604051808095819463e49d032760e01b835260206004840152602483019061237a565b03915afa908115610b1f578291610ecc575b5090604051918291602083016020845282518091526020604085019301915b818110610eb0575050500390f35b825160ff16845285945060209384019390920191600101610ea2565b90503d8083833e610edd81836122cf565b81019060208183031261032d578051906001600160401b03821161032957019080601f8301121561032d578151610f1381612701565b92610f2160405194856122cf565b81845260208085019260051b820101928311610b9057602001905b828210610f4c5750505038610e83565b60208091610f5984612b6c565b815201910190610f3c565b50346103335760203660031901126103335760043560035481101561033157610f8c906126e6565b919091610fb757610fb3610f9f836125c3565b60405191829160208352602083019061237a565b0390f35b634e487b7160e01b81526004819052602490fd5b5034610333576020366003190112610333576004356001600160401b03811161033157610ffc90369060040161230b565b81546040516395a8c58d60e01b81523360048201526000602482015290602090829060449082906001600160a01b03165afa8015610e0357611044918491610b605750612aaf565b60035460025460208301906001600160a01b031684805b8481106111f5575061106c90612dd1565b938592865b8581106110865760405180610fb389826124ef565b611098611092826126e6565b506125c3565b604051636b2c133960e11b8152602060048201528981806110bc602482018661237a565b0381895afa908115610b79578a916111db575b506110f760405160208185516110e88183858a01612357565b81016004815203019020612d60565b9060c0810190815160405161111c6020828161020b8183019687815193849201612357565b5190208660405161113c6020828c61020b83830196879251928391612357565b51902014611151575b50505050600101611071565b602090989498015191602081519101519160038310156111c7576111bd9492600196949261119d9251936040519561118887612263565b86526020860152604085015260608401612d54565b60808201526111ac828b612ce2565b526111b7818a612ce2565b50612cf6565b9490388080611145565b634e487b7160e01b8d52602160045260248dfd5b6111ef91503d808c833e610ab681836122cf565b386110cf565b61122787611205611092846126e6565b60405180938192636b2c133960e11b835260206004840152602483019061237a565b0381875afa80156112b95760c091899161129f575b50015160405161125c6020828161020b8183019687815193849201612357565b519020604051602081019061127a6020828b5161020b81878d612357565b5190201461128b575b60010161105b565b90611297600191612cf6565b919050611283565b6112b391503d808b833e610ab681836122cf565b3861123c565b6040513d8a823e3d90fd5b5034610333578060031936011261033357610fb36112e0612e76565b604051918291826123bf565b50346103335780600319360112610333576001546040516001600160a01b039091168152602090f35b5034610333576020366003190112610333576004356001600160401b03811161033157602061134b61135e92369060040161230b565b8160405193828580945193849201612357565b81016005815203019020805461137381612701565b9061138160405192836122cf565b80825260208201809385526020852085915b83831061141f57868587604051928392602084019060208552518091526040840160408260051b8601019392905b8282106113d057505050500390f35b9193600191939550602061140f8192603f198a8203018652885190836113ff835160408452604084019061237a565b920151908481840391015261237a565b96019201920185949391926113c1565b600260206001926040516114328161227e565b61143b866125c3565b81526114488587016125c3565b83820152815201920192019190611393565b5034610333576040366003190112610333576004356001600160401b0381116103315761148b90369060040161230b565b906114a86020602435938160405193828580945193849201612357565b81016005815203019020908154831015610333576114f66114c984846126b4565b50610fb36114e260016114db846125c3565b93016125c3565b60405193849360408552604085019061237a565b90838203602085015261237a565b5034610333578061155061151736612667565b9290611521612e44565b5060018060a01b036002541660405180809581946346abdd0560e11b835260206004840152602483019061237a565b03915afa908115610e03578391611709575b5061156b612e44565b916040516115896020828161020b8183019687815193849201612357565b51902092805b82518110156115ed578460406115a58386612ce2565b5101516040516115c56020828161020b8183019687815193849201612357565b519020146115d6575b60010161158f565b925060016115e48484612ce2565b519390506115ce565b5080546040516395a8c58d60e01b815233600482015260016024820152918491602090849060449082906001600160a01b03165afa80156116fc57610fb39382916116dd575b506116c1575b5060405191829160208352805161164f8161239f565b602084015260a06116ad61168b611675602085015160c0604089015260e088019061237a565b6040850151878203601f1901606089015261237a565b60ff60608501511660808701526080840151601f198783030184880152612489565b910151838203601f190160c085015261237a565b604051906116d06020836122cf565b8152608082015282611639565b6116f6915060203d6020116103175761030981836122cf565b84611633565b50604051903d90823e3d90fd5b61171d91503d8085833e6102a581836122cf565b38611562565b503461033357602036600319011261033357600435906001600160401b038211610333576117be61175c602061134b366004870161230b565b8101600481520301902061176f816125c3565b906117e560ff6001830154166002830154926003810154600482015490611798600584016125c3565b92600660018060a01b0391015416956117c9604051998a9960e08b5260e08b019061237a565b9560208a01906124e2565b60408801526060870152608086015284820360a086015261237a565b9060c08301520390f35b503461033357806003193601126103335780546040516395a8c58d60e01b81523360048201526002602482015290602090829060449082906001600160a01b03165afa908115610b1f578291611a1a575b50156119e95760035481825b828110611994575061185d90612dd1565b60025490919083906001600160a01b0316815b8381106118855760405180610fb387826124ef565b611891611092826126e6565b6118a960405160208184516110e88183858901612357565b604051636b2c133960e11b8152602060048201528881806118cd602482018761237a565b0381885afa90811561198957899161196f575b50602082018051600381101561195b57611901575b50505050600101611870565b60208297959701519251905191600383101561195b576119519492600196949260c0611937930151936040519561118887612263565b60808201526119468289612ce2565b526111b78188612ce2565b92903880806118f5565b634e487b7160e01b8b52602160045260248bfd5b61198391503d808b833e610ab681836122cf565b386118e0565b6040513d8b823e3d90fd5b60206119a96110e88261134b611092866126e6565b015160038110156119d5576119c1575b60010161184c565b906119cd600191612cf6565b9190506119b9565b634e487b7160e01b85526021600452602485fd5b60405162461bcd60e51b81526020600482015260096024820152684f6e6c792042504f4d60b81b6044820152606490fd5b611a33915060203d6020116103175761030981836122cf565b38611840565b5034610333576020366003190112610333576004356001600160401b03811161033157611a6a90369060040161230b565b8160e0604051611a7981612231565b606081526060602082015260606040820152606080820152606060808201528260a0820152606060c08201520152611aaf612d1b565b50600254604051636b2c133960e11b81526020600482015290839082906001600160a01b03168180611ae4602482018861237a565b03915afa928315611c78578093611c51575b83611b136110e86020868160405193828580945193849201612357565b9060405191829160408352611bc7611b9d611b87611b71611b5b611b45865161010060408b01526101408a019061237a565b6020870151898203603f190160608b015261237a565b6040860151888203603f190160808a0152612489565b6060850151878203603f190160a0890152612489565b6080840151868203603f190160c088015261237a565b60a0830151611bab8161239f565b60e086015260c0830151858203603f190161010087015261237a565b9060e060018060a01b0391015116610120840152828103602084015260c0611c3d611bfb845160e0855260e085019061237a565b611c0d602086015160208601906124e2565b60408501516040850152606085015160608501526080850151608085015260a085015184820360a086015261237a565b928101516001600160a01b03169101520390f35b611b13929350611c706110e8926020923d8091833e610ab681836122cf565b939250611af6565b604051903d90823e3d90fd5b5034610333576020366003190112610333576004356001600160401b03811161033157611cb590369060040161230b565b81546040516395a8c58d60e01b81523360048201526000602482015290602090829060449082906001600160a01b03165afa8015610e0357611cfd918491610b605750612aaf565b8160405160208101835191611d1d6020828188019561020b818789612357565b5190209084926003549360018060a01b0360025416935b858210611e92575050611d4690612b1c565b93611d636020604051809361020b83830196879251928391612357565b51902090849085935b808510611d815760405180610fb388826123bf565b9091929394611d92611092876126e6565b92604051926346abdd0560e11b845260206004850152888480611db8602482018961237a565b0381855afa938415611989578994611e76575b50835115611e6757885b8451811015611e54578760a0611deb8388612ce2565b510151604051611e0b6020828161020b8183019687815193849201612357565b51902014611e1c575b600101611dd5565b95611e4c600191611e37611e308a89612ce2565b51896130b1565b611e418288612ce2565b526111b78187612ce2565b969050611e14565b50959493509150946001905b0193611d6c565b95949350915094600190611e60565b611e8b9194503d808b833e6102a581836122cf565b9238611dcb565b9394611ecb93929588611ea9611092859a956126e6565b604051809781926346abdd0560e11b835260206004840152602483019061237a565b0381845afa948515611989578995611f65575b50845115611f5657885b8551811015611f43578660a0611efe8389612ce2565b510151604051611f1e6020828161020b8183019687815193849201612357565b51902014611f2f575b600101611ee8565b96611f3b600191612cf6565b979050611f27565b50949196600191969394505b0190611d34565b94919660019196939450611f4f565b611f7a9195503d808b833e6102a581836122cf565b9338611ede565b5034610333576080366003190112610333576004356001600160401b03811161033157611fb290369060040161230b565b6024356001600160401b03811161032d57611fd190369060040161230b565b6044356001600160401b03811161032957611ff090369060040161230b565b916064356001600160a01b0381168103610b90576120b060206001926040519061202a8860058851948681818c019761084981838b612357565b60066040518481895161203e818389612357565b810160048152030190200190858060a01b03166bffffffffffffffffffffffff60a01b82541617905561207d86604051848189516108b7818389612357565b6040516004865161208f818486612357565b82019181835284814294030190200155604051809381928751928391612357565b8101600481520301902001600260ff1982541617905560018060a01b0360025416846040518092636b2c133960e11b82526020600483015281806120f7602482018861237a565b03915afa90811561031e5785916121f3575b50612140602060c081840151930151604051946121258661227e565b85528185019384528160405193828580945193849201612357565b81016005815203019020805490600160401b821015610ae25790612169916001820181556126b4565b9290926121df57926121ab7f40bd250f4e1cad69631af5d42189453e9c51f25278bd4232fe29ed01aa2f6ee4959360016121d394610a186121bf985184612796565b60405193849360808552608085019061237a565b90336020850152838203604085015261237a565b4260608301520390a180f35b634e487b7160e01b86526004869052602486fd5b61220791503d8087833e610ab681836122cf565b38612109565b90503461033157816003193601126103315790546001600160a01b03168152602090f35b61010081019081106001600160401b0382111761224d57604052565b634e487b7160e01b600052604160045260246000fd5b60a081019081106001600160401b0382111761224d57604052565b604081019081106001600160401b0382111761224d57604052565b60e081019081106001600160401b0382111761224d57604052565b60c081019081106001600160401b0382111761224d57604052565b90601f801991011681019081106001600160401b0382111761224d57604052565b6001600160401b03811161224d57601f01601f191660200190565b81601f8201121561235257803590612322826122f0565b9261233060405194856122cf565b8284526020838301011161235257816000926020809301838601378301015290565b600080fd5b60005b83811061236a5750506000910152565b818101518382015260200161235a565b9060209161239381518092818552858086019101612357565b601f01601f1916010190565b600211156123a957565b634e487b7160e01b600052602160045260246000fd5b602081016020825282518091526040820191602060408360051b8301019401926000915b8383106123f257505050505090565b909192939460208061247a600193603f1986820301875289519060a0612449612437612427855160c0865260c086019061237a565b878601518582038987015261237a565b6040850151848203604086015261237a565b9260ff606082015116606084015260808101516124658161239f565b608084015201519060a081840391015261237a565b970193019301919392906123e3565b9080602083519182815201916020808360051b8301019401926000915b8383106124b557505050505090565b90919293946020806124d3600193601f19868203018752895161237a565b970193019301919392906124a6565b9060038210156123a95752565b602081016020825282518091526040820191602060408360051b8301019401926000915b83831061252257505050505090565b909192939460208061257a600193603f198682030187528951906080612557612437612427855160a0865260a086019061237a565b9261256a606082015160608501906124e2565b015190608081840391015261237a565b97019301930191939290612513565b90600182811c921680156125b9575b60208310146125a357565b634e487b7160e01b600052602260045260246000fd5b91607f1691612598565b90604051918260008254926125d784612589565b808452936001811690811561264557506001146125fe575b506125fc925003836122cf565b565b90506000929192526020600020906000915b8183106126295750509060206125fc92820101386125ef565b6020919350806001915483858901015201910190918492612610565b9050602092506125fc94915060ff191682840152151560051b820101386125ef565b906040600319830112612352576004356001600160401b03811161235257826126929160040161230b565b91602435906001600160401b038211612352576126b19160040161230b565b90565b80548210156126d05760005260206000209060011b0190600090565b634e487b7160e01b600052603260045260246000fd5b6003548110156126d057600360005260206000200190600090565b6001600160401b03811161224d5760051b60200190565b9080601f8301121561235257813561272f81612701565b9261273d60405194856122cf565b81845260208085019260051b820101918383116123525760208201905b83821061276957505050505090565b81356001600160401b0381116123525760209161278b8784809488010161230b565b81520191019061275a565b91909182516001600160401b03811161224d576127b38254612589565b601f8111612859575b506020601f82116001146127f757819293946000926127ec575b50508160011b916000199060031b1c1916179055565b0151905038806127d6565b601f1982169083600052806000209160005b81811061284157509583600195969710612828575b505050811b019055565b015160001960f88460031b161c1916905538808061281e565b9192602060018192868b015181550194019201612809565b826000526020600020601f830160051c81019160208410612897575b601f0160051c01905b81811061288b57506127bc565b6000815560010161287e565b9091508190612875565b81601f820112156123525780516128b7816122f0565b926128c560405194856122cf565b81845260208284010111612352576126b19160208085019101612357565b9080601f830112156123525781516128fa81612701565b9261290860405194856122cf565b81845260208085019260051b820101918383116123525760208201905b83821061293457505050505090565b81516001600160401b03811161235257602091612956878480948801016128a1565b815201910190612925565b602081830312612352578051906001600160401b03821161235257019061010082820312612352576040519161299683612231565b80516001600160401b03811161235257826129b29183016128a1565b835260208101516001600160401b03811161235257826129d39183016128a1565b602084015260408101516001600160401b03811161235257826129f79183016128e3565b604084015260608101516001600160401b0381116123525782612a1b9183016128e3565b606084015260808101516001600160401b0381116123525782612a3f9183016128a1565b608084015260a081015160028110156123525760a084015260c08101516001600160401b0381116123525760e092612a789183016128a1565b60c084015201516001600160a01b03811681036123525760e082015290565b90816020910312612352575180151581036123525790565b15612ab657565b60405162461bcd60e51b815260206004820152600c60248201526b4f6e6c7920466163746f727960a01b6044820152606490fd5b60405190612af7826122b4565b606060a083828152826020820152826040820152600083820152600060808201520152565b90612b2682612701565b612b3360405191826122cf565b8281528092612b44601f1991612701565b019060005b828110612b5557505050565b602090612b60612aea565b82828501015201612b49565b519060ff8216820361235257565b602081830312612352578051906001600160401b03821161235257019080601f8301121561235257815191612bae83612701565b92612bbc60405194856122cf565b80845260208085019160051b830101918383116123525760208101915b838310612be857505050505090565b82516001600160401b0381116123525782019060c0828703601f1901126123525760405190612c16826122b4565b6020830151600281101561235257825260408301516001600160401b03811161235257876020612c48928601016128a1565b602083015260608301516001600160401b03811161235257876020612c6f928601016128a1565b6040830152612c8060808401612b6c565b606083015260a08301516001600160401b03811161235257876020612ca7928601016128e3565b608083015260c0830151916001600160401b03831161235257612cd2886020809695819601016128a1565b60a0820152815201920191612bd9565b80518210156126d05760209160051b010190565b6000198114612d055760010190565b634e487b7160e01b600052601160045260246000fd5b60405190612d2882612299565b600060c08360608152826020820152826040820152826060820152826080820152606060a08201520152565b60038210156123a95752565b90604051612d6d81612299565b60c08193612d7a816125c3565b8352612d9060ff60018301541660208501612d54565b600281015460408401526003810154606084015260048101546080840152612dba600582016125c3565b60a0840152600601546001600160a01b0316910152565b90612ddb82612701565b612de860405191826122cf565b8281528092612df9601f1991612701565b019060005b828110612e0a57505050565b602090604051612e1981612263565b6060815260608382015260606040820152600060608201526060608082015282828501015201612dfe565b60405190612e51826122b4565b606060a083600081528260208201528260408201526000838201528260808201520152565b6003546002546001600160a01b03166000805b838110612fdc57508015612f9f57612ea390929192612b1c565b906000906000935b818510612eba57505050905090565b612ec6611092866126e6565b91604051916346abdd0560e11b83526020600484015260008380612eed602482018861237a565b0381845afa928315612f9357600093612f78575b5060005b8351811015612f6757612f188185612ce2565b5151612f238161239f565b612f2c8161239f565b15612f3a575b600101612f05565b94612f5f600191612f55612f4e8988612ce2565b51886130b1565b6111ac828b612ce2565b959050612f32565b506001909601959092509050612eab565b612f8c91933d8091833e6102a581836122cf565b9138612f01565b6040513d6000823e3d90fd5b505060405190506000612fb36020836122cf565b81526000805b818110612fc557505090565b602090612fd0612aea565b82828601015201612fb9565b929161301391926000612ff1611092876126e6565b604051809581926346abdd0560e11b835260206004840152602483019061237a565b0381855afa928315612f9357600093613096575b5082511561308a5760005b835181101561307b576130458185612ce2565b51516130508161239f565b6130598161239f565b15613067575b600101613032565b93613073600191612cf6565b94905061305f565b50936001919392505b01612e89565b93600191939250613084565b6130aa91933d8091833e6102a581836122cf565b9138613027565b906130ba612aea565b50602081015190604081015160ff6060830151169060a08351936130dd8561239f565b015193604051956130ed876122b4565b86526020860152604085015260608401526131078161239f565b608083015260a08201529056fea26469706673582212202a94b31fadad6e0aa5461dbdaee169f1116e9c5e2cab6d46d3c0674b61bd871764736f6c634300081b0033",
  "linkReferences": {},
  "deployedLinkReferences": {}
}