{
  "_format": "hh-sol-artifact-1",
  "contractName": "ObatTradisional",
  "sourceName": "contracts/ObatTradisional.sol",
  "abi": [
    {
      "inputs": [],
      "stateMutability": "nonpayable",
      "type": "constructor"
    },
    {
      "anonymous": false,
      "inputs": [
        {
          "indexed": false,
          "internalType": "string",
          "name": "nieNumber",
          "type": "string"
        },
        {
          "indexed": false,
          "internalType": "string",
          "name": "namaProduk",
          "type": "string"
        }
      ],
      "name": "evt_nieApproved",
      "type": "event"
    },
    {
      "anonymous": false,
      "inputs": [
        {
          "indexed": false,
          "internalType": "string",
          "name": "obatId",
          "type": "string"
        },
        {
          "indexed": false,
          "internalType": "uint256",
          "name": "timestampRequested",
          "type": "uint256"
        },
        {
          "indexed": false,
          "internalType": "string",
          "name": "namaProduk",
          "type": "string"
        }
      ],
      "name": "evt_nieRequested",
      "type": "event"
    },
    {
      "anonymous": false,
      "inputs": [
        {
          "indexed": false,
          "internalType": "string",
          "name": "namaProduk",
          "type": "string"
        },
        {
          "indexed": false,
          "internalType": "string",
          "name": "factoryInstanceNames",
          "type": "string"
        },
        {
          "indexed": false,
          "internalType": "string",
          "name": "factoryUserNames",
          "type": "string"
        },
        {
          "indexed": false,
          "internalType": "address",
          "name": "factoryAddresses",
          "type": "address"
        },
        {
          "indexed": false,
          "internalType": "string",
          "name": "kemasan",
          "type": "string"
        },
        {
          "indexed": false,
          "internalType": "enum ObatTradisional.en_tipeProduk",
          "name": "en_tipeProduk",
          "type": "uint8"
        }
      ],
      "name": "evt_obatCreated",
      "type": "event"
    },
    {
      "inputs": [
        {
          "internalType": "uint256",
          "name": "",
          "type": "uint256"
        }
      ],
      "name": "allObatData",
      "outputs": [
        {
          "internalType": "string",
          "name": "obatId",
          "type": "string"
        },
        {
          "internalType": "string",
          "name": "merk",
          "type": "string"
        },
        {
          "internalType": "string",
          "name": "namaProduk",
          "type": "string"
        },
        {
          "internalType": "string",
          "name": "kemasan",
          "type": "string"
        },
        {
          "internalType": "enum ObatTradisional.en_tipeProduk",
          "name": "tipeProduk",
          "type": "uint8"
        },
        {
          "internalType": "enum ObatTradisional.en_obatStatus",
          "name": "obatStatus",
          "type": "uint8"
        },
        {
          "internalType": "uint256",
          "name": "nieRequestDate",
          "type": "uint256"
        },
        {
          "internalType": "uint256",
          "name": "nieApprovalDate",
          "type": "uint256"
        },
        {
          "internalType": "string",
          "name": "nieNumber",
          "type": "string"
        }
      ],
      "stateMutability": "view",
      "type": "function"
    },
    {
      "inputs": [
        {
          "internalType": "string",
          "name": "_obatId",
          "type": "string"
        },
        {
          "internalType": "address",
          "name": "_bpomAddr",
          "type": "address"
        },
        {
          "internalType": "string",
          "name": "_bpomInstanceName",
          "type": "string"
        },
        {
          "internalType": "string",
          "name": "_bpomUserName",
          "type": "string"
        },
        {
          "internalType": "string",
          "name": "_nieNumber",
          "type": "string"
        }
      ],
      "name": "approveNie",
      "outputs": [],
      "stateMutability": "nonpayable",
      "type": "function"
    },
    {
      "inputs": [
        {
          "internalType": "string",
          "name": "",
          "type": "string"
        }
      ],
      "name": "bpomAddresses",
      "outputs": [
        {
          "internalType": "address",
          "name": "",
          "type": "address"
        }
      ],
      "stateMutability": "view",
      "type": "function"
    },
    {
      "inputs": [
        {
          "internalType": "string",
          "name": "",
          "type": "string"
        }
      ],
      "name": "bpomInstanceNames",
      "outputs": [
        {
          "internalType": "string",
          "name": "",
          "type": "string"
        }
      ],
      "stateMutability": "view",
      "type": "function"
    },
    {
      "inputs": [
        {
          "internalType": "string",
          "name": "",
          "type": "string"
        }
      ],
      "name": "bpomUserNames",
      "outputs": [
        {
          "internalType": "string",
          "name": "",
          "type": "string"
        }
      ],
      "stateMutability": "view",
      "type": "function"
    },
    {
      "inputs": [
        {
          "internalType": "string",
          "name": "_obatId",
          "type": "string"
        },
        {
          "internalType": "string",
          "name": "_merk",
          "type": "string"
        },
        {
          "internalType": "string",
          "name": "_namaProduk",
          "type": "string"
        },
        {
          "internalType": "string[]",
          "name": "_klaim",
          "type": "string[]"
        },
        {
          "internalType": "string",
          "name": "_kemasan",
          "type": "string"
        },
        {
          "internalType": "string[]",
          "name": "_komposisi",
          "type": "string[]"
        },
        {
          "internalType": "address",
          "name": "_factoryAddr",
          "type": "address"
        },
        {
          "internalType": "string",
          "name": "_factoryInstanceName",
          "type": "string"
        },
        {
          "internalType": "string",
          "name": "_factoryUserName",
          "type": "string"
        },
        {
          "internalType": "enum ObatTradisional.en_tipeProduk",
          "name": "_tipeProduk",
          "type": "uint8"
        }
      ],
      "name": "createObat",
      "outputs": [],
      "stateMutability": "nonpayable",
      "type": "function"
    },
    {
      "inputs": [
        {
          "internalType": "string",
          "name": "",
          "type": "string"
        }
      ],
      "name": "factoryAddresses",
      "outputs": [
        {
          "internalType": "address",
          "name": "",
          "type": "address"
        }
      ],
      "stateMutability": "view",
      "type": "function"
    },
    {
      "inputs": [
        {
          "internalType": "string",
          "name": "",
          "type": "string"
        }
      ],
      "name": "factoryInstanceNames",
      "outputs": [
        {
          "internalType": "string",
          "name": "",
          "type": "string"
        }
      ],
      "stateMutability": "view",
      "type": "function"
    },
    {
      "inputs": [
        {
          "internalType": "string",
          "name": "",
          "type": "string"
        }
      ],
      "name": "factoryUserNames",
      "outputs": [
        {
          "internalType": "string",
          "name": "",
          "type": "string"
        }
      ],
      "stateMutability": "view",
      "type": "function"
    },
    {
      "inputs": [],
      "name": "getListAllObatNie",
      "outputs": [
        {
          "internalType": "string[]",
          "name": "",
          "type": "string[]"
        },
        {
          "internalType": "string[]",
          "name": "",
          "type": "string[]"
        },
        {
          "internalType": "string[]",
          "name": "",
          "type": "string[]"
        },
        {
          "internalType": "uint256[]",
          "name": "",
          "type": "uint256[]"
        },
        {
          "internalType": "uint8[]",
          "name": "",
          "type": "uint8[]"
        }
      ],
      "stateMutability": "view",
      "type": "function"
    },
    {
      "inputs": [
        {
          "internalType": "string",
          "name": "_factoryInstanceName",
          "type": "string"
        }
      ],
      "name": "getListObatByFactory",
      "outputs": [
        {
          "internalType": "string[]",
          "name": "",
          "type": "string[]"
        },
        {
          "internalType": "string[]",
          "name": "",
          "type": "string[]"
        },
        {
          "internalType": "uint8[]",
          "name": "",
          "type": "uint8[]"
        },
        {
          "internalType": "uint8[]",
          "name": "",
          "type": "uint8[]"
        }
      ],
      "stateMutability": "view",
      "type": "function"
    },
    {
      "inputs": [
        {
          "internalType": "string",
          "name": "_obatId",
          "type": "string"
        }
      ],
      "name": "getListObatById",
      "outputs": [
        {
          "components": [
            {
              "internalType": "string",
              "name": "obatId",
              "type": "string"
            },
            {
              "internalType": "string",
              "name": "merk",
              "type": "string"
            },
            {
              "internalType": "string",
              "name": "namaProduk",
              "type": "string"
            },
            {
              "internalType": "string[]",
              "name": "klaim",
              "type": "string[]"
            },
            {
              "internalType": "string",
              "name": "kemasan",
              "type": "string"
            },
            {
              "internalType": "string[]",
              "name": "komposisi",
              "type": "string[]"
            },
            {
              "internalType": "enum ObatTradisional.en_tipeProduk",
              "name": "tipeProduk",
              "type": "uint8"
            },
            {
              "internalType": "enum ObatTradisional.en_obatStatus",
              "name": "obatStatus",
              "type": "uint8"
            },
            {
              "internalType": "uint256",
              "name": "nieRequestDate",
              "type": "uint256"
            },
            {
              "internalType": "uint256",
              "name": "nieApprovalDate",
              "type": "uint256"
            },
            {
              "internalType": "string",
              "name": "nieNumber",
              "type": "string"
            }
          ],
          "internalType": "struct ObatTradisional.st_obatDetails",
          "name": "obatDetails",
          "type": "tuple"
        },
        {
          "internalType": "address",
          "name": "factoryAddress",
          "type": "address"
        },
        {
          "internalType": "string",
          "name": "factoryInstanceName",
          "type": "string"
        },
        {
          "internalType": "string",
          "name": "factoryUserName",
          "type": "string"
        },
        {
          "internalType": "address",
          "name": "bpomAddress",
          "type": "address"
        },
        {
          "internalType": "string",
          "name": "bpomInstanceName",
          "type": "string"
        },
        {
          "internalType": "string",
          "name": "bpomUserName",
          "type": "string"
        }
      ],
      "stateMutability": "view",
      "type": "function"
    },
    {
      "inputs": [
        {
          "internalType": "address",
          "name": "user",
          "type": "address"
        }
      ],
      "name": "getRole",
      "outputs": [
        {
          "internalType": "enum ObatTradisional.en_roles",
          "name": "",
          "type": "uint8"
        },
        {
          "internalType": "address",
          "name": "",
          "type": "address"
        }
      ],
      "stateMutability": "view",
      "type": "function"
    },
    {
      "inputs": [
        {
          "internalType": "string",
          "name": "",
          "type": "string"
        }
      ],
      "name": "obatDetailsById",
      "outputs": [
        {
          "internalType": "string",
          "name": "obatId",
          "type": "string"
        },
        {
          "internalType": "string",
          "name": "merk",
          "type": "string"
        },
        {
          "internalType": "string",
          "name": "namaProduk",
          "type": "string"
        },
        {
          "internalType": "string",
          "name": "kemasan",
          "type": "string"
        },
        {
          "internalType": "enum ObatTradisional.en_tipeProduk",
          "name": "tipeProduk",
          "type": "uint8"
        },
        {
          "internalType": "enum ObatTradisional.en_obatStatus",
          "name": "obatStatus",
          "type": "uint8"
        },
        {
          "internalType": "uint256",
          "name": "nieRequestDate",
          "type": "uint256"
        },
        {
          "internalType": "uint256",
          "name": "nieApprovalDate",
          "type": "uint256"
        },
        {
          "internalType": "string",
          "name": "nieNumber",
          "type": "string"
        }
      ],
      "stateMutability": "view",
      "type": "function"
    },
    {
      "inputs": [],
      "name": "owner",
      "outputs": [
        {
          "internalType": "address",
          "name": "",
          "type": "address"
        }
      ],
      "stateMutability": "view",
      "type": "function"
    },
    {
      "inputs": [
        {
          "internalType": "string",
          "name": "_obatId",
          "type": "string"
        }
      ],
      "name": "requestNie",
      "outputs": [],
      "stateMutability": "nonpayable",
      "type": "function"
    },
    {
      "inputs": [
        {
          "internalType": "address",
          "name": "",
          "type": "address"
        }
      ],
      "name": "userRoles",
      "outputs": [
        {
          "internalType": "enum ObatTradisional.en_roles",
          "name": "",
          "type": "uint8"
        }
      ],
      "stateMutability": "view",
      "type": "function"
    }
  ],
  "bytecode": "0x60808060405234602757600080546001600160a01b03191633179055612bc1908161002d8239f35b600080fdfe6080604052600436101561001257600080fd5b60003560e01c80631c0b203014611c835780631dce6e5814611a4f57806325606bc3146115ed578063273218371461159c578063349a7a721461154857806344276733146115005780634b87568a1461149857806374d5e100146114545780637aad01bd146113855780637ade51dd14610c915780638da5cb5b14610c685780639d9315c214610c14578063a812536d14610bc0578063bc4a6f6c14610991578063d9d284dc14610422578063e06749ba146101625763f1022862146100d757600080fd5b3461015d57602036600319011261015d576004356001600160401b03811161015d5761013e6101456101286020610115610159953690600401611d28565b8160405193828580945193849201611d7e565b8101600681520301902060405192838092611eaa565b0382611d07565b604051918291602083526020830190611da1565b0390f35b600080fd5b3461015d57600036600319011261015d57600080600154905b8181106103e4575061018c82612127565b9061019683612127565b61019f84612127565b6101a885611fff565b916101b66040519384611d07565b8583526101d76101c587611fff565b602085019790601f1901368937612171565b93600090815b81811061026657505050602091610213610221926102066040519860a08a5260a08a0190611dc6565b90888203868a0152611dc6565b908682036040880152611dc6565b918483036060860152519182815201939060005b81811061025057848061015988878382036080850152611e1f565b8251865260209586019590920191600101610235565b60ff600661027383611fca565b50015460081c1660038110156103bb57610290575b6001016101dd565b9161013e6102ad6102a085611fca565b5060405192838092611eaa565b6102b7828a6121a3565b526102c281896121a3565b5060026102e26102d185611fca565b5061013e6040518094819301611eaa565b6102ec82866121a3565b526102f781856121a3565b5061013e61032d610319602061030c87611fca565b5060405192838092612094565b600881520301902060405192838092611eaa565b61033782876121a3565b5261034281866121a3565b50600861034e84611fca565b500154600761035c85611fca565b50015410156103d157600861037084611fca565b5001545b61037e82886121a3565b5260ff600661038c85611fca565b50015460081c1660038110156103bb57816103b3916103ad6001948b6121a3565b52612102565b929050610288565b634e487b7160e01b600052602160045260246000fd5b60076103dc84611fca565b500154610374565b60ff60066103f183611fca565b50015460081c1660038110156103bb5761040e575b60010161017b565b9161041a600191612102565b929050610406565b3461015d5761014036600319011261015d576004356001600160401b03811161015d57610453903690600401611d28565b6024356001600160401b03811161015d57610472903690600401611d28565b6044356001600160401b03811161015d57610491903690600401611d28565b916064356001600160401b03811161015d576104b1903690600401612016565b916084356001600160401b03811161015d576104d1903690600401611d28565b9060a4356001600160401b03811161015d576104f1903690600401612016565b9060c4359360018060a01b03851680950361015d5760e4356001600160401b03811161015d57610525903690600401611d28565b90610104356001600160401b03811161015d57610546903690600401611d28565b936101243597600289101561015d5733600052600260205260ff6040600020541660048110156103bb5761057a901561223a565b6040519461058786611ceb565b8386526020860152896040860152606085015285608085015260a08401526105b28760c08501612217565b600060e0840152600061010084015260006101208401526020926040516105d98582611d07565b600081526101408201526040519061060e818451938781818801966105ff81838a611d7e565b81016003815203019020612290565b600154600160401b8110156108c35780600161062d9201600155611fca565b91909161097b5761063d91612290565b6040518481845161064f818387611d7e565b81016007815203019020876bffffffffffffffffffffffff60a01b82541617905560405184818451610682818387611d7e565b81016008815203019020908351926001600160401b0384116108c357826106aa879454611e70565b601f811161094b575b508394601f81116001146108e457806106e6916106fa976000916108d9575b508160011b916000199060031b1c19161790565b90555b604051938492839251928391611d7e565b8101600981520301902083516001600160401b0381116108c35761071e8254611e70565b601f8111610888575b5083601f82116001146107ed57946107b16107d2957f634ef467423c7b2abbaf26097bdddac4a495d36be69ca3d1555484b46e7899c79b99956107a49b999561078d866107bf976107dd9c6000916107e257508160011b916000199060031b1c19161790565b90555b6040519b8c9b60c08d5260c08d0190611da1565b918b8303908c0152611da1565b9088820360408a0152611da1565b9160608701528582036080870152611da1565b9160a0840190611e56565b0390a1005b9050870151386106d2565b601f1982169083600052856000209160005b8181106108715750957f634ef467423c7b2abbaf26097bdddac4a495d36be69ca3d1555484b46e7899c79b99956107a49b99956001866107dd9b966107b1966107bf996107d29d10610858575b5050811b019055610790565b88015160001960f88460031b161c19169055388061084c565b91928760018192868c0151815501940192016107ff565b6108b3908360005285600020601f840160051c8101918785106108b9575b601f0160051c0190612223565b89610727565b90915081906108a6565b634e487b7160e01b600052604160045260246000fd5b90508801518f6106d2565b601f1981169582600052856000209660005b81811061093357509682916001936106fa991061091a575b5050811b0190556106e9565b89015160001960f88460031b161c191690558e8061090e565b828a015189556001909801978a9792830192016108f6565b610975908260005285600020601f880160051c8101918789106108b957601f0160051c0190612223565b8c6106b3565b634e487b7160e01b600052600060045260246000fd5b3461015d57602036600319011261015d576004356001600160401b03811161015d576109c1903690600401611d28565b33600052600260205260ff6040600020541660048110156103bb576109e6901561223a565b604051815190602081818501936109fe818387611d7e565b81016003815203019020916006830160ff815460081c1660038110156103bb57610b5e57426007850155805461ff00191661010017905560005b600154811015610b2e57610a4b81611fca565b50604051610a6f81610a61602082018095612094565b03601f198101835282611d07565b5190206040516020810190610a9e6020828751610a8d81878c611d7e565b81010301601f198101835282611d07565b51902014610aae57600101610a38565b610b1992507f854681db4b5190ceaacfe5894893f2e8d49873d9b8ed6c72b5618047cb3924e5936006610af383610ae76107dd95611fca565b50600742910155611fca565b5001805461ff0019166101001790555b6002604051948594606086526060860190611da1565b91426020860152848303604086015201611eaa565b50610b1991506107dd7f854681db4b5190ceaacfe5894893f2e8d49873d9b8ed6c72b5618047cb3924e593610b03565b60405162461bcd60e51b815260206004820152603460248201527f4f62617420547261646973696f6e616c20737461747573206d75737420626520604482015273696e206c6f63616c2070726f64756374696f6e2160601b6064820152608490fd5b3461015d57602036600319011261015d576004356001600160401b03811161015d5761013e610145610bfe6020610115610159953690600401611d28565b8101600881520301902060405192838092611eaa565b3461015d57602036600319011261015d576004356001600160401b03811161015d5761013e610145610c526020610115610159953690600401611d28565b8101600581520301902060405192838092611eaa565b3461015d57600036600319011261015d576000546040516001600160a01b039091168152602090f35b3461015d5760a036600319011261015d576004356001600160401b03811161015d57610cc1903690600401611d28565b602435906001600160a01b038216820361015d576044356001600160401b03811161015d57610cf4903690600401611d28565b906064356001600160401b03811161015d57610d14903690600401611d28565b906084356001600160401b03811161015d57610d34903690600401611d28565b916040519382519460208181860197610d4e81838b611d7e565b81016003815203019020956006870160ff815460081c1660038110156103bb5760010361132d5742600889015561020061ff00198254161790556009870185516001600160401b0381116108c357610da68254611e70565b601f81116112fb575b506020601f8211600114611295579080610dde9260009161128a57508160011b916000199060031b1c19161790565b90555b6040516020818651610df481838c611d7e565b810160048152030190209060018060a01b03166bffffffffffffffffffffffff60a01b8254161790556040516020818551610e3081838b611d7e565b81016005815203019020908051906001600160401b0382116108c357610e568354611e70565b601f8111611258575b50602090601f83116001146111f157610e919291600091836111e6575b50508160011b916000199060031b1c19161790565b90555b6040516020818451610ea781838a611d7e565b81016006815203019020908051906001600160401b0382116108c357610ecd8354611e70565b601f81116111b4575b50602090601f831160011461114d57610f079291600091836111425750508160011b916000199060031b1c19161790565b90555b60005b60015481101561111157610f2081611fca565b50604051610f3681610a61602082018095612094565b5190206040516020810190610f546020828751610a8d81878d611d7e565b51902014610f6457600101610f0d565b6009929350610f9d9150610f7781611fca565b506008429101556006610f8982611fca565b5001805461ff001916610200179055611fca565b5001918151926001600160401b0384116108c357610fbb8154611e70565b601f81116110df575b50602093601f811160011461105157916107dd9161101e8461103796957f489f165b733603cb0a992d8cafd6c42a0c13d169039003f751758b9f0019f26c9860009161104657508160011b916000199060031b1c19161790565b90555b6002604051948594604086526040860190611da1565b91848303602086015201611eaa565b9050860151896106d2565b601f1981169482600052806000209560005b8181106110c75750827f489f165b733603cb0a992d8cafd6c42a0c13d169039003f751758b9f0019f26c976107dd9593611037989795600194106110ae575b5050811b019055611021565b87015160001960f88460031b161c1916905588806110a2565b86830151885560019097019660209283019201611063565b61110b90826000526020600020601f870160051c810191602088106108b957601f0160051c0190612223565b84610fc4565b505061103791506107dd7f489f165b733603cb0a992d8cafd6c42a0c13d169039003f751758b9f0019f26c93611021565b015190508880610e7c565b90601f1983169184600052816000209260005b81811061119c5750908460019594939210611183575b505050811b019055610f0a565b015160001960f88460031b161c19169055878080611176565b92936020600181928786015181550195019301611160565b6111e090846000526020600020601f850160051c810191602086106108b957601f0160051c0190612223565b87610ed6565b015190508980610e7c565b90601f1983169184600052816000209260005b8181106112405750908460019594939210611227575b505050811b019055610e94565b015160001960f88460031b161c1916905588808061121a565b92936020600181928786015181550195019301611204565b61128490846000526020600020601f850160051c810191602086106108b957601f0160051c0190612223565b88610e5f565b90508801518b6106d2565b601f1982169083600052806000209160005b8a8282106112e357505090836001949392106112ca575b5050811b019055610de1565b89015160001960f88460031b161c191690558a806112be565b600184956020939584930151815501940192016112a7565b61132790836000526020600020601f840160051c810191602085106108b957601f0160051c0190612223565b89610daf565b60405162461bcd60e51b815260206004820152602a60248201527f4f62617420547261646973696f6e616c20737461747573206d757374206265206044820152697265717565737465642160b01b6064820152608490fd5b3461015d57602036600319011261015d5760043560015481101561015d576113ac90611fca565b50604051906113c6826113bf8184611eaa565b0383611d07565b6101596009604051926113e7846113e08160018501611eaa565b0385611d07565b60405194611403866113fc8160028601611eaa565b0387611d07565b60405190611418826113bf8160048701611eaa565b60068301549060078401549261143d6008860154956113fc6040518099819301611eaa565b60405198899860ff808660081c169516938a611f2d565b3461015d57602036600319011261015d576001600160a01b03611475611fa7565b166000526002602052602060ff604060002054166114966040518092611fbd565bf35b3461015d57602036600319011261015d576004356001600160401b03811161015d576114ca6020913690600401611d28565b816114de6040519283815193849201611d7e565b600790820190815281900382019020546040516001600160a01b039091168152f35b3461015d57602036600319011261015d576001600160a01b03611521611fa7565b166000526002602052604060ff81600020541661154082518092611fbd565b336020820152f35b3461015d57602036600319011261015d576004356001600160401b03811161015d5761013e6101456115866020610115610159953690600401611d28565b8101600981520301902060405192838092611eaa565b3461015d57602036600319011261015d576004356001600160401b03811161015d5760206101156115d1923690600401611d28565b81016003815203019020604051906113c6826113bf8184611eaa565b3461015d57602036600319011261015d576004356001600160401b03811161015d5761161d903690600401611d28565b606061014060405161162e81611ceb565b82815282602082015282604082015282808201528260808201528260a0820152600060c0820152600060e082015260006101008201526000610120820152015260405161169982519160208181860194611689818388611d7e565b8101600381520301902054611e70565b15611a0a5760405160208184516116b1818387611d7e565b81016003815203019020604051916116c883611ceb565b6040516116d98161013e8186611eaa565b83526040516116ef8161013e8160018701611eaa565b60208401526040516117088161013e8160028701611eaa565b6040840152611719600383016121b7565b60608401526040516117328161013e8160048701611eaa565b6080840152611743600583016121b7565b60a084015260ff600683015461175e82821660c08701612217565b60081c169160038310156103bb57610140946118aa6119e96118506119db6118c79660096117ba6119fc986101599b60e08e01528c61010060078301549101528c610120600883015491015261013e6040518094819301611eaa565b8b8b015261181d6118ce6118b160206040518a516117d9818389611d7e565b81019060078252828160018060a01b0393030190205416946118248b83604051809251611807818388611d7e565b8101600881520301902060405196878092611eaa565b0386611d07565b6118578b8360405180925161183a818388611d7e565b81016009815203019020604051998a8092611eaa565b0389611d07565b6040518b51611867818385611d7e565b81019060048252838160018060a01b03930301902054169a6106e960405184818451611894818389611d7e565b810160058152030190206040519c8d8092611eaa565b038c611d07565b810160068152030190206040519a8b8092611eaa565b038a611d07565b6119c8604051809d819d60e0835261197461195d61194661193161191a611903865161016060e08b01526102408a0190611da1565b602087015189820360df19016101008b0152611da1565b604086015188820360df19016101208a0152611da1565b606085015187820360df190187890152611dc6565b608084015186820360df1901610160880152611da1565b60a083015185820360df1901610180870152611dc6565b9261198860c08301516101a0830190611e56565b61199b60e08301516101c0830190611e63565b6101008201516101e08201526101208201516102009091015201518d820360df19016102208f0152611da1565b9160208c01528a820360408c0152611da1565b9088820360608a0152611da1565b91608087015285820360a0870152611da1565b9083820360c0850152611da1565b60405162461bcd60e51b815260206004820152601b60248201527f4e6f206461746120666f756e64207769746820746869732049442e00000000006044820152606490fd5b3461015d57602036600319011261015d576004356001600160401b03811161015d57611a7f903690600401611d28565b60015460208201916000805b838110611c135750611a9c81612127565b92611aa682612127565b90611ab9611ab384612171565b93612171565b93600096875b838110611b1457611aea8861015989611b068a611af88b604051978897608089526080890190611dc6565b908782036020890152611dc6565b908582036040870152611e1f565b908382036060850152611e1f565b611b22602061030c83611fca565b6008815203019020604051611b3f81610a61602082018095612094565b5190206040516020810190611b5d6020828851610a8d81878b611d7e565b51902014611b6e575b600101611abf565b9761013e611b7e6102a08b611fca565b611b88828a6121a3565b52611b9381896121a3565b506002611ba26102d18b611fca565b611bac82876121a3565b52611bb781866121a3565b5060ff6006611bc58b611fca565b50015460081c1660038110156103bb57611bdf82886121a3565b5260ff6006611bed8b611fca565b5001541660028110156103bb5781611c0b916103ad6001948b6121a3565b989050611b66565b611c21602061030c83611fca565b6008815203019020604051611c3e81610a61602082018095612094565b5190206040516020810190611c5e60208284610a8d8c8b51928391611d7e565b51902014611c6f575b600101611a8b565b90611c7b600191612102565b919050611c67565b3461015d57602036600319011261015d576004356001600160401b03811161015d57611cb56020913690600401611d28565b81611cc96040519283815193849201611d7e565b600490820190815281900382019020546040516001600160a01b039091168152f35b61016081019081106001600160401b038211176108c357604052565b90601f801991011681019081106001600160401b038211176108c357604052565b81601f8201121561015d578035906001600160401b0382116108c35760405192611d5c601f8401601f191660200185611d07565b8284526020838301011161015d57816000926020809301838601378301015290565b60005b838110611d915750506000910152565b8181015183820152602001611d81565b90602091611dba81518092818552858086019101611d7e565b601f01601f1916010190565b9080602083519182815201916020808360051b8301019401926000915b838310611df257505050505090565b9091929394602080611e10600193601f198682030187528951611da1565b97019301930191939290611de3565b906020808351928381520192019060005b818110611e3d5750505090565b825160ff16845260209384019390920191600101611e30565b9060028210156103bb5752565b9060038210156103bb5752565b90600182811c92168015611ea0575b6020831014611e8a57565b634e487b7160e01b600052602260045260246000fd5b91607f1691611e7f565b60009291815491611eba83611e70565b8083529260018116908115611f105750600114611ed657505050565b60009081526020812093945091925b838310611ef6575060209250010190565b600181602092949394548385870101520191019190611ee5565b915050602093945060ff929192191683830152151560051b010190565b9591611fa49997946119db611f8c95611f69611f7794611f5b611f82979b9e9b6101208e8181520190611da1565b8c810360208e015290611da1565b908a820360408c0152611da1565b976080870190611e56565b60a0850190611e63565b60c083015260e0820152610100818403910152611da1565b90565b600435906001600160a01b038216820361015d57565b9060048210156103bb5752565b600154811015611fe9576001600052600a602060002091020190600090565b634e487b7160e01b600052603260045260246000fd5b6001600160401b0381116108c35760051b60200190565b9080601f8301121561015d57813561202d81611fff565b9261203b6040519485611d07565b81845260208085019260051b8201019183831161015d5760208201905b83821061206757505050505090565b81356001600160401b03811161015d5760209161208987848094880101611d28565b815201910190612058565b600092918154916120a483611e70565b92600181169081156120ef57506001146120bd57505050565b909192935060005260206000206000905b8382106120db5750500190565b6001816020925484860152019101906120ce565b60ff191683525050811515909102019150565b60001981146121115760010190565b634e487b7160e01b600052601160045260246000fd5b9061213182611fff565b61213e6040519182611d07565b828152809261214f601f1991611fff565b019060005b82811061216057505050565b806060602080938501015201612154565b9061217b82611fff565b6121886040519182611d07565b8281528092612199601f1991611fff565b0190602036910137565b8051821015611fe95760209160051b010190565b9081546121c381611fff565b926121d16040519485611d07565b818452602084019060005260206000206000915b8383106121f25750505050565b6001602081926040516122098161013e8189611eaa565b8152019201920191906121e5565b60028210156103bb5752565b81811061222e575050565b60008155600101612223565b1561224157565b60405162461bcd60e51b815260206004820152602160248201527f416363657373207265737472696374656420746f20466163746f727920726f6c6044820152606560f81b6064820152608490fd5b909182519283516001600160401b0381116108c3576122af8454611e70565b601f8111612b59575b50602094601f8211600114612af4576122ec9293949582916000926125525750508160011b916000199060031b1c19161790565b83555b6001830160208201518051906001600160401b0382116108c3576123138354611e70565b601f8111612ac2575b50602090601f8311600114612a5b5761234d9291600091836125525750508160011b916000199060031b1c19161790565b90555b6002830160408201518051906001600160401b0382116108c3576123748354611e70565b601f8111612a29575b50602090601f83116001146129c2576123ae9291600091836125525750508160011b916000199060031b1c19161790565b90555b600383016060820151805190600160401b82116108c3578254828455808310612944575b50602001916000526020600020916000905b82821061283757505050506004830160808201518051906001600160401b0382116108c3576124168354611e70565b601f8111612805575b50602090601f831160011461279e576124509291600091836125525750508160011b916000199060031b1c19161790565b90555b6005830160a0820151805190600160401b82116108c3578254828455808310612720575b50602001916000526020600020916000905b828210612613575050505060c0810151926006810160028510156103bb5760009460ff8019835416911617815560e083015160038110156125ff57916009916101409361ff0082549160081b169061ff0019161790556101008401516007820155610120840151600882015501910151928351906001600160401b0382116125eb576125158354611e70565b601f81116125bb575b50602090601f831160011461255d579061254e939495836125525750508160011b916000199060031b1c19161790565b9055565b015190503880610e7c565b90601f198316848352818320925b8181106125a35750958360019596971061258a575b505050811b019055565b015160001960f88460031b161c19169055388080612580565b9192602060018192868b01518155019401920161256b565b6125e59084835260208320601f850160051c810191602086106108b957601f0160051c0190612223565b3861251e565b634e487b7160e01b81526041600452602490fd5b634e487b7160e01b86526021600452602486fd5b80518051906001600160401b0382116108c3576126308654611e70565b601f81116126ee575b50602090601f83116001146126815792612672836001959460209487966000926125525750508160011b916000199060031b1c19161790565b87555b01940191019092612489565b90601f1983169187600052816000209260005b8181106126d657509360209360019693879693838895106126bd575b505050811b018755612675565b015160001960f88460031b161c191690553880806126b0565b92936020600181928786015181550195019301612694565b61271a90876000526020600020601f850160051c810191602086106108b957601f0160051c0190612223565b38612639565b8360005282602060002091820191015b81811061273d5750612477565b8061274a60019254611e70565b80612757575b5001612730565b601f8111831461276d5750600081555b38612750565b61278b908260005283601f6020600020920160051c82019101612223565b8060005260006020812081835555612767565b90601f1983169184600052816000209260005b8181106127ed57509084600195949392106127d4575b505050811b019055612453565b015160001960f88460031b161c191690553880806127c7565b929360206001819287860151815501950193016127b1565b61283190846000526020600020601f850160051c810191602086106108b957601f0160051c0190612223565b3861241f565b80518051906001600160401b0382116108c3576128548654611e70565b601f8111612912575b50602090601f83116001146128a55792612896836001959460209487966000926125525750508160011b916000199060031b1c19161790565b87555b019401910190926123e7565b90601f1983169187600052816000209260005b8181106128fa57509360209360019693879693838895106128e1575b505050811b018755612899565b015160001960f88460031b161c191690553880806128d4565b929360206001819287860151815501950193016128b8565b61293e90876000526020600020601f850160051c810191602086106108b957601f0160051c0190612223565b3861285d565b8360005282602060002091820191015b81811061296157506123d5565b8061296e60019254611e70565b8061297b575b5001612954565b601f811183146129915750600081555b38612974565b6129af908260005283601f6020600020920160051c82019101612223565b806000526000602081208183555561298b565b90601f1983169184600052816000209260005b818110612a1157509084600195949392106129f8575b505050811b0190556123b1565b015160001960f88460031b161c191690553880806129eb565b929360206001819287860151815501950193016129d5565b612a5590846000526020600020601f850160051c810191602086106108b957601f0160051c0190612223565b3861237d565b90601f1983169184600052816000209260005b818110612aaa5750908460019594939210612a91575b505050811b019055612350565b015160001960f88460031b161c19169055388080612a84565b92936020600181928786015181550195019301612a6e565b612aee90846000526020600020601f850160051c810191602086106108b957601f0160051c0190612223565b3861231c565b601f1982169585600052806000209160005b888110612b4157508360019596979810612b28575b505050811b0183556122ef565b015160001960f88460031b161c19169055388080612b1b565b91926020600181928685015181550194019201612b06565b612b8590856000526020600020601f840160051c810191602085106108b957601f0160051c0190612223565b386122b856fea26469706673582212200000aef27efa053a59620ee168fe52fdc7cd9767de5770c39d5825a52cb51d5064736f6c634300081b0033",
  "linkReferences": {},
  "deployedLinkReferences": {}
}