{
  "_format": "hh-sol-artifact-1",
  "contractName": "ObatTradisional",
  "sourceName": "contracts/ObatTradisional.sol",
  "abi": [
    {
      "inputs": [
        {
          "internalType": "address",
          "name": "_roleManagerAddr",
          "type": "address"
        },
        {
          "internalType": "address",
          "name": "_mainSupplyChainAddr",
          "type": "address"
        }
      ],
      "stateMutability": "nonpayable",
      "type": "constructor"
    },
    {
      "anonymous": false,
      "inputs": [
        {
          "indexed": false,
          "internalType": "string",
          "name": "namaProduk",
          "type": "string"
        },
        {
          "indexed": false,
          "internalType": "uint8",
          "name": "quantity",
          "type": "uint8"
        },
        {
          "indexed": false,
          "internalType": "string",
          "name": "batchName",
          "type": "string"
        }
      ],
      "name": "evt_addObatQuantity",
      "type": "event"
    },
    {
      "anonymous": false,
      "inputs": [
        {
          "indexed": false,
          "internalType": "string",
          "name": "nieNumber",
          "type": "string"
        },
        {
          "indexed": false,
          "internalType": "string",
          "name": "namaProduk",
          "type": "string"
        }
      ],
      "name": "evt_nieApproved",
      "type": "event"
    },
    {
      "anonymous": false,
      "inputs": [
        {
          "indexed": false,
          "internalType": "string",
          "name": "obatId",
          "type": "string"
        },
        {
          "indexed": false,
          "internalType": "uint256",
          "name": "timestampRequested",
          "type": "uint256"
        },
        {
          "indexed": false,
          "internalType": "string",
          "name": "namaProduk",
          "type": "string"
        }
      ],
      "name": "evt_nieRequested",
      "type": "event"
    },
    {
      "anonymous": false,
      "inputs": [
        {
          "indexed": false,
          "internalType": "string",
          "name": "namaProduk",
          "type": "string"
        },
        {
          "indexed": false,
          "internalType": "string",
          "name": "factoryInstanceNames",
          "type": "string"
        },
        {
          "indexed": false,
          "internalType": "string",
          "name": "factoryUserNames",
          "type": "string"
        },
        {
          "indexed": false,
          "internalType": "address",
          "name": "factoryAddresses",
          "type": "address"
        },
        {
          "indexed": false,
          "internalType": "string",
          "name": "kemasan",
          "type": "string"
        },
        {
          "indexed": false,
          "internalType": "enum ObatTradisional.en_tipeProduk",
          "name": "en_tipeProduk",
          "type": "uint8"
        }
      ],
      "name": "evt_obatCreated",
      "type": "event"
    },
    {
      "inputs": [
        {
          "internalType": "string",
          "name": "_obatId",
          "type": "string"
        },
        {
          "internalType": "string",
          "name": "_batchName",
          "type": "string"
        },
        {
          "internalType": "string",
          "name": "_factoryInstanceName",
          "type": "string"
        },
        {
          "internalType": "uint8",
          "name": "_obatQuantity",
          "type": "uint8"
        },
        {
          "internalType": "string[]",
          "name": "_obatIpfsHash",
          "type": "string[]"
        }
      ],
      "name": "addObatQuantity",
      "outputs": [],
      "stateMutability": "nonpayable",
      "type": "function"
    },
    {
      "inputs": [
        {
          "internalType": "uint256",
          "name": "",
          "type": "uint256"
        }
      ],
      "name": "allObatData",
      "outputs": [
        {
          "internalType": "string",
          "name": "obatId",
          "type": "string"
        },
        {
          "internalType": "string",
          "name": "merk",
          "type": "string"
        },
        {
          "internalType": "string",
          "name": "namaProduk",
          "type": "string"
        },
        {
          "internalType": "string",
          "name": "kemasan",
          "type": "string"
        },
        {
          "internalType": "enum ObatTradisional.en_tipeProduk",
          "name": "tipeProduk",
          "type": "uint8"
        },
        {
          "internalType": "enum ObatTradisional.en_nieStatus",
          "name": "obatStatus",
          "type": "uint8"
        },
        {
          "internalType": "uint256",
          "name": "nieRequestDate",
          "type": "uint256"
        },
        {
          "internalType": "uint256",
          "name": "nieApprovalDate",
          "type": "uint256"
        },
        {
          "internalType": "string",
          "name": "nieNumber",
          "type": "string"
        },
        {
          "internalType": "string",
          "name": "factoryInstanceName",
          "type": "string"
        }
      ],
      "stateMutability": "view",
      "type": "function"
    },
    {
      "inputs": [
        {
          "internalType": "uint256",
          "name": "",
          "type": "uint256"
        }
      ],
      "name": "allProducedObat",
      "outputs": [
        {
          "internalType": "enum ObatTradisional.en_obatAvailability",
          "name": "statusStok",
          "type": "uint8"
        },
        {
          "internalType": "string",
          "name": "batchName",
          "type": "string"
        },
        {
          "internalType": "string",
          "name": "obatId",
          "type": "string"
        },
        {
          "internalType": "string",
          "name": "namaProduk",
          "type": "string"
        },
        {
          "internalType": "uint8",
          "name": "obatQuantity",
          "type": "uint8"
        },
        {
          "internalType": "string",
          "name": "factoryInstanceNames",
          "type": "string"
        }
      ],
      "stateMutability": "view",
      "type": "function"
    },
    {
      "inputs": [
        {
          "internalType": "string",
          "name": "_obatId",
          "type": "string"
        },
        {
          "internalType": "address",
          "name": "_bpomAddr",
          "type": "address"
        },
        {
          "internalType": "string",
          "name": "_bpomInstanceName",
          "type": "string"
        },
        {
          "internalType": "string",
          "name": "_bpomUserName",
          "type": "string"
        },
        {
          "internalType": "string",
          "name": "_nieNumber",
          "type": "string"
        }
      ],
      "name": "approveNie",
      "outputs": [],
      "stateMutability": "nonpayable",
      "type": "function"
    },
    {
      "inputs": [
        {
          "internalType": "string",
          "name": "",
          "type": "string"
        }
      ],
      "name": "bpomAddresses",
      "outputs": [
        {
          "internalType": "address",
          "name": "",
          "type": "address"
        }
      ],
      "stateMutability": "view",
      "type": "function"
    },
    {
      "inputs": [
        {
          "internalType": "string",
          "name": "",
          "type": "string"
        }
      ],
      "name": "bpomInstanceNames",
      "outputs": [
        {
          "internalType": "string",
          "name": "",
          "type": "string"
        }
      ],
      "stateMutability": "view",
      "type": "function"
    },
    {
      "inputs": [
        {
          "internalType": "string",
          "name": "",
          "type": "string"
        }
      ],
      "name": "bpomUserNames",
      "outputs": [
        {
          "internalType": "string",
          "name": "",
          "type": "string"
        }
      ],
      "stateMutability": "view",
      "type": "function"
    },
    {
      "inputs": [
        {
          "internalType": "string",
          "name": "_obatId",
          "type": "string"
        },
        {
          "internalType": "string",
          "name": "_merk",
          "type": "string"
        },
        {
          "internalType": "string",
          "name": "_namaProduk",
          "type": "string"
        },
        {
          "internalType": "string[]",
          "name": "_klaim",
          "type": "string[]"
        },
        {
          "internalType": "string",
          "name": "_kemasan",
          "type": "string"
        },
        {
          "internalType": "string[]",
          "name": "_komposisi",
          "type": "string[]"
        },
        {
          "internalType": "address",
          "name": "_factoryAddr",
          "type": "address"
        },
        {
          "internalType": "string",
          "name": "_factoryInstanceName",
          "type": "string"
        },
        {
          "internalType": "string",
          "name": "_factoryUserName",
          "type": "string"
        },
        {
          "internalType": "enum ObatTradisional.en_tipeProduk",
          "name": "_tipeProduk",
          "type": "uint8"
        }
      ],
      "name": "createObat",
      "outputs": [],
      "stateMutability": "nonpayable",
      "type": "function"
    },
    {
      "inputs": [
        {
          "internalType": "string",
          "name": "",
          "type": "string"
        }
      ],
      "name": "factoryAddresses",
      "outputs": [
        {
          "internalType": "address",
          "name": "",
          "type": "address"
        }
      ],
      "stateMutability": "view",
      "type": "function"
    },
    {
      "inputs": [
        {
          "internalType": "string",
          "name": "",
          "type": "string"
        }
      ],
      "name": "factoryUserNames",
      "outputs": [
        {
          "internalType": "string",
          "name": "",
          "type": "string"
        }
      ],
      "stateMutability": "view",
      "type": "function"
    },
    {
      "inputs": [],
      "name": "getAllProducedObat",
      "outputs": [
        {
          "components": [
            {
              "internalType": "enum ObatTradisional.en_obatAvailability",
              "name": "statusStok",
              "type": "uint8"
            },
            {
              "internalType": "string",
              "name": "batchName",
              "type": "string"
            },
            {
              "internalType": "string",
              "name": "obatId",
              "type": "string"
            },
            {
              "internalType": "string",
              "name": "namaProduk",
              "type": "string"
            },
            {
              "internalType": "uint8",
              "name": "obatQuantity",
              "type": "uint8"
            },
            {
              "internalType": "string",
              "name": "factoryInstanceNames",
              "type": "string"
            },
            {
              "internalType": "string[]",
              "name": "obatIpfsHash",
              "type": "string[]"
            }
          ],
          "internalType": "struct ObatTradisional.st_obatProduction[]",
          "name": "",
          "type": "tuple[]"
        }
      ],
      "stateMutability": "view",
      "type": "function"
    },
    {
      "inputs": [
        {
          "internalType": "string",
          "name": "_batchName",
          "type": "string"
        }
      ],
      "name": "getDetailProducedObat",
      "outputs": [
        {
          "internalType": "uint8",
          "name": "obatQuantity",
          "type": "uint8"
        },
        {
          "internalType": "string[]",
          "name": "obatIpfsHash",
          "type": "string[]"
        },
        {
          "internalType": "uint8",
          "name": "statusStok",
          "type": "uint8"
        }
      ],
      "stateMutability": "view",
      "type": "function"
    },
    {
      "inputs": [
        {
          "internalType": "string",
          "name": "_factoryInstanceName",
          "type": "string"
        }
      ],
      "name": "getJenisSediaanAvail",
      "outputs": [
        {
          "internalType": "uint8[]",
          "name": "",
          "type": "uint8[]"
        }
      ],
      "stateMutability": "view",
      "type": "function"
    },
    {
      "inputs": [
        {
          "internalType": "string",
          "name": "_factoryInstanceName",
          "type": "string"
        }
      ],
      "name": "getListAllApprovedObatNie",
      "outputs": [
        {
          "internalType": "string[]",
          "name": "obatIdArray",
          "type": "string[]"
        },
        {
          "internalType": "string[]",
          "name": "namaProdukArray",
          "type": "string[]"
        }
      ],
      "stateMutability": "view",
      "type": "function"
    },
    {
      "inputs": [],
      "name": "getListAllObatNie",
      "outputs": [
        {
          "internalType": "string[]",
          "name": "obatIdArray",
          "type": "string[]"
        },
        {
          "internalType": "string[]",
          "name": "namaProdukArray",
          "type": "string[]"
        },
        {
          "internalType": "string[]",
          "name": "factoryInstanceArray",
          "type": "string[]"
        },
        {
          "internalType": "uint256[]",
          "name": "latestTimestampArray",
          "type": "uint256[]"
        },
        {
          "internalType": "uint8[]",
          "name": "obatStatusArray",
          "type": "uint8[]"
        }
      ],
      "stateMutability": "view",
      "type": "function"
    },
    {
      "inputs": [
        {
          "internalType": "string",
          "name": "_factoryInstanceName",
          "type": "string"
        }
      ],
      "name": "getListAllProducedObatByFactory",
      "outputs": [
        {
          "internalType": "string[]",
          "name": "obatIdArray",
          "type": "string[]"
        },
        {
          "internalType": "string[]",
          "name": "namaProdukArray",
          "type": "string[]"
        },
        {
          "internalType": "uint8[]",
          "name": "obatQuantityArray",
          "type": "uint8[]"
        },
        {
          "internalType": "string[]",
          "name": "batchNameArray",
          "type": "string[]"
        }
      ],
      "stateMutability": "view",
      "type": "function"
    },
    {
      "inputs": [
        {
          "internalType": "string",
          "name": "_factoryInstanceName",
          "type": "string"
        }
      ],
      "name": "getListObatByFactory",
      "outputs": [
        {
          "internalType": "string[]",
          "name": "obatIdArray",
          "type": "string[]"
        },
        {
          "internalType": "string[]",
          "name": "namaProdukArray",
          "type": "string[]"
        },
        {
          "internalType": "uint8[]",
          "name": "obatStatusArray",
          "type": "uint8[]"
        },
        {
          "internalType": "uint8[]",
          "name": "tipeProdukArray",
          "type": "uint8[]"
        }
      ],
      "stateMutability": "view",
      "type": "function"
    },
    {
      "inputs": [
        {
          "internalType": "string",
          "name": "_obatId",
          "type": "string"
        }
      ],
      "name": "getListObatById",
      "outputs": [
        {
          "components": [
            {
              "internalType": "string",
              "name": "obatId",
              "type": "string"
            },
            {
              "internalType": "string",
              "name": "merk",
              "type": "string"
            },
            {
              "internalType": "string",
              "name": "namaProduk",
              "type": "string"
            },
            {
              "internalType": "string[]",
              "name": "klaim",
              "type": "string[]"
            },
            {
              "internalType": "string",
              "name": "kemasan",
              "type": "string"
            },
            {
              "internalType": "string[]",
              "name": "komposisi",
              "type": "string[]"
            },
            {
              "internalType": "enum ObatTradisional.en_tipeProduk",
              "name": "tipeProduk",
              "type": "uint8"
            },
            {
              "internalType": "enum ObatTradisional.en_nieStatus",
              "name": "obatStatus",
              "type": "uint8"
            },
            {
              "internalType": "uint256",
              "name": "nieRequestDate",
              "type": "uint256"
            },
            {
              "internalType": "uint256",
              "name": "nieApprovalDate",
              "type": "uint256"
            },
            {
              "internalType": "string",
              "name": "nieNumber",
              "type": "string"
            },
            {
              "internalType": "string",
              "name": "factoryInstanceName",
              "type": "string"
            }
          ],
          "internalType": "struct ObatTradisional.st_obatDetails",
          "name": "obatDetails",
          "type": "tuple"
        },
        {
          "internalType": "address",
          "name": "factoryAddress",
          "type": "address"
        },
        {
          "internalType": "string",
          "name": "factoryInstanceName",
          "type": "string"
        },
        {
          "internalType": "string",
          "name": "factoryUserName",
          "type": "string"
        },
        {
          "internalType": "address",
          "name": "bpomAddress",
          "type": "address"
        },
        {
          "internalType": "string",
          "name": "bpomInstanceName",
          "type": "string"
        },
        {
          "internalType": "string",
          "name": "bpomUserName",
          "type": "string"
        }
      ],
      "stateMutability": "view",
      "type": "function"
    },
    {
      "inputs": [
        {
          "internalType": "string",
          "name": "_namaProduk",
          "type": "string"
        }
      ],
      "name": "getListObatByNameProduct",
      "outputs": [
        {
          "components": [
            {
              "internalType": "string",
              "name": "obatId",
              "type": "string"
            },
            {
              "internalType": "string",
              "name": "merk",
              "type": "string"
            },
            {
              "internalType": "string",
              "name": "namaProduk",
              "type": "string"
            },
            {
              "internalType": "string[]",
              "name": "klaim",
              "type": "string[]"
            },
            {
              "internalType": "string",
              "name": "kemasan",
              "type": "string"
            },
            {
              "internalType": "string[]",
              "name": "komposisi",
              "type": "string[]"
            },
            {
              "internalType": "enum ObatTradisional.en_tipeProduk",
              "name": "tipeProduk",
              "type": "uint8"
            },
            {
              "internalType": "enum ObatTradisional.en_nieStatus",
              "name": "obatStatus",
              "type": "uint8"
            },
            {
              "internalType": "uint256",
              "name": "nieRequestDate",
              "type": "uint256"
            },
            {
              "internalType": "uint256",
              "name": "nieApprovalDate",
              "type": "uint256"
            },
            {
              "internalType": "string",
              "name": "nieNumber",
              "type": "string"
            },
            {
              "internalType": "string",
              "name": "factoryInstanceName",
              "type": "string"
            }
          ],
          "internalType": "struct ObatTradisional.st_obatDetails",
          "name": "obatDetails",
          "type": "tuple"
        },
        {
          "internalType": "address",
          "name": "factoryAddress",
          "type": "address"
        },
        {
          "internalType": "string",
          "name": "factoryUserName",
          "type": "string"
        },
        {
          "internalType": "address",
          "name": "bpomAddress",
          "type": "address"
        },
        {
          "internalType": "string",
          "name": "bpomInstanceName",
          "type": "string"
        },
        {
          "internalType": "string",
          "name": "bpomUserName",
          "type": "string"
        }
      ],
      "stateMutability": "view",
      "type": "function"
    },
    {
      "inputs": [
        {
          "internalType": "string",
          "name": "_namaProduk",
          "type": "string"
        },
        {
          "internalType": "string",
          "name": "_batchName",
          "type": "string"
        },
        {
          "internalType": "string",
          "name": "_obatId",
          "type": "string"
        },
        {
          "internalType": "uint8",
          "name": "_obatQuantity",
          "type": "uint8"
        },
        {
          "internalType": "string",
          "name": "_factoryInstanceName",
          "type": "string"
        },
        {
          "internalType": "string[]",
          "name": "_obatIpfsHash",
          "type": "string[]"
        }
      ],
      "name": "getListProducedObat",
      "outputs": [],
      "stateMutability": "nonpayable",
      "type": "function"
    },
    {
      "inputs": [],
      "name": "mainSupplyChain",
      "outputs": [
        {
          "internalType": "contract MainSupplyChain",
          "name": "",
          "type": "address"
        }
      ],
      "stateMutability": "view",
      "type": "function"
    },
    {
      "inputs": [
        {
          "internalType": "string",
          "name": "",
          "type": "string"
        }
      ],
      "name": "obatDetailsById",
      "outputs": [
        {
          "internalType": "string",
          "name": "obatId",
          "type": "string"
        },
        {
          "internalType": "string",
          "name": "merk",
          "type": "string"
        },
        {
          "internalType": "string",
          "name": "namaProduk",
          "type": "string"
        },
        {
          "internalType": "string",
          "name": "kemasan",
          "type": "string"
        },
        {
          "internalType": "enum ObatTradisional.en_tipeProduk",
          "name": "tipeProduk",
          "type": "uint8"
        },
        {
          "internalType": "enum ObatTradisional.en_nieStatus",
          "name": "obatStatus",
          "type": "uint8"
        },
        {
          "internalType": "uint256",
          "name": "nieRequestDate",
          "type": "uint256"
        },
        {
          "internalType": "uint256",
          "name": "nieApprovalDate",
          "type": "uint256"
        },
        {
          "internalType": "string",
          "name": "nieNumber",
          "type": "string"
        },
        {
          "internalType": "string",
          "name": "factoryInstanceName",
          "type": "string"
        }
      ],
      "stateMutability": "view",
      "type": "function"
    },
    {
      "inputs": [
        {
          "internalType": "string",
          "name": "",
          "type": "string"
        }
      ],
      "name": "obatDetailsByNameProduct",
      "outputs": [
        {
          "internalType": "string",
          "name": "obatId",
          "type": "string"
        },
        {
          "internalType": "string",
          "name": "merk",
          "type": "string"
        },
        {
          "internalType": "string",
          "name": "namaProduk",
          "type": "string"
        },
        {
          "internalType": "string",
          "name": "kemasan",
          "type": "string"
        },
        {
          "internalType": "enum ObatTradisional.en_tipeProduk",
          "name": "tipeProduk",
          "type": "uint8"
        },
        {
          "internalType": "enum ObatTradisional.en_nieStatus",
          "name": "obatStatus",
          "type": "uint8"
        },
        {
          "internalType": "uint256",
          "name": "nieRequestDate",
          "type": "uint256"
        },
        {
          "internalType": "uint256",
          "name": "nieApprovalDate",
          "type": "uint256"
        },
        {
          "internalType": "string",
          "name": "nieNumber",
          "type": "string"
        },
        {
          "internalType": "string",
          "name": "factoryInstanceName",
          "type": "string"
        }
      ],
      "stateMutability": "view",
      "type": "function"
    },
    {
      "inputs": [
        {
          "internalType": "string",
          "name": "",
          "type": "string"
        }
      ],
      "name": "obatProductionDetailsByBatchName",
      "outputs": [
        {
          "internalType": "enum ObatTradisional.en_obatAvailability",
          "name": "statusStok",
          "type": "uint8"
        },
        {
          "internalType": "string",
          "name": "batchName",
          "type": "string"
        },
        {
          "internalType": "string",
          "name": "obatId",
          "type": "string"
        },
        {
          "internalType": "string",
          "name": "namaProduk",
          "type": "string"
        },
        {
          "internalType": "uint8",
          "name": "obatQuantity",
          "type": "uint8"
        },
        {
          "internalType": "string",
          "name": "factoryInstanceNames",
          "type": "string"
        }
      ],
      "stateMutability": "view",
      "type": "function"
    },
    {
      "inputs": [
        {
          "internalType": "string",
          "name": "_obatId",
          "type": "string"
        }
      ],
      "name": "requestNie",
      "outputs": [],
      "stateMutability": "nonpayable",
      "type": "function"
    },
    {
      "inputs": [],
      "name": "roleManager",
      "outputs": [
        {
          "internalType": "contract RoleManager",
          "name": "",
          "type": "address"
        }
      ],
      "stateMutability": "view",
      "type": "function"
    },
    {
      "inputs": [
        {
          "internalType": "string",
          "name": "_batchName",
          "type": "string"
        },
        {
          "internalType": "string[]",
          "name": "_obatIpfsHash",
          "type": "string[]"
        }
      ],
      "name": "updateObatProductionDetails",
      "outputs": [],
      "stateMutability": "nonpayable",
      "type": "function"
    },
    {
      "inputs": [
        {
          "internalType": "address",
          "name": "",
          "type": "address"
        }
      ],
      "name": "userRoles",
      "outputs": [
        {
          "internalType": "enum ObatTradisional.en_roles",
          "name": "",
          "type": "uint8"
        }
      ],
      "stateMutability": "view",
      "type": "function"
    }
  ],
  "bytecode": "0x608034608657601f61540538819003918201601f19168301916001600160401b03831184841017608b578084926040948552833981010312608657604b602060458360a1565b920160a1565b600080546001600160a01b039384166001600160a01b0319918216179091556001805492909316911617905560405161535090816100b58239f35b600080fd5b634e487b7160e01b600052604160045260246000fd5b51906001600160a01b038216820360865756fe608080604052600436101561001357600080fd5b60003560e01c908162435da5146135af575080631a95e672146134b05780631c0b2030146134485780631dce6e581461326757806325606bc314612f6a5780632732183714612f19578063349a7a7214612ec55780634b87568a14612e5d5780635673fdf614612e0c57806374d5e10014612dc25780637aad01bd14612ced5780637ade51dd1461258c5780637d08414f1461254557806392b385c9146123255780639413fcfd146122fc5780639d9315c2146122a8578063a1dc510914612097578063bbf2698d14611eae578063bc4a6f6c14611c59578063c14b3f1314611556578063c8673f4b14611073578063d0ff723d14610fb6578063d44faa6314610e81578063d9d284dc1461099c578063e06749ba14610699578063f10228621461061e578063fd42aefd1461033e5763ff96d4a91461015257600080fd5b346103395760a0366003190112610339576004356001600160401b038111610339576101829036906004016136d6565b6024356001600160401b038111610339576101a19036906004016136d6565b6044356001600160401b038111610339576101c09036906004016136d6565b906101c9613a6a565b91608435936001600160401b038511610339576101ec6044953690600401613a91565b602060018060a01b0360005416604051978880926395a8c58d60e01b8252336004830152600060248301525afa92831561032d576102de60206102a0946102ed946102526102fb986000805160206152fb8339815191529c600091610300575b50614235565b6002604051848185516102688183858a016135dd565b8101600a81520301902001946102a7604051966102848861369a565b60008852858801948c86526040890152604051998a8092613898565b03896136b5565b6060860197885260ff8b16608087015260a086015260c08501526102ca84614882565b5181604051938285809451938492016135dd565b8101600c81520301902061428b565b5191604051938493846148ed565b0390a1005b6103209150853d8711610326575b61031881836136b5565b810190613b0f565b3861024c565b503d61030e565b6040513d6000823e3d90fd5b600080fd5b34610339576020366003190112610339576004356001600160401b038111610339576103716105e69136906004016136d6565b61037961411e565b5061061a6105cb61060c604051936103b96103b2825196602081818601996103a281838d6135dd565b8101600b8152030190205461385e565b151561417a565b61059d6105f960405160208185516103d281838d6135dd565b8101600b81520301902096600a6104df604051996103ef8b61367e565b604051610407816104008185613898565b03826136b5565b8b5260405161041d816104008160018601613898565b60208c0152604051610436816104008160028601613898565b60408c015261044760038201613b27565b60608c0152604051610460816104008160048601613898565b60808c015261047160058201613b27565b60a08c015261049f60ff60068301548d60c083831691610490836135d3565b015260081c1660e08d016141c6565b60078101546101008c015260088101546101208c01526040516104c9816104008160098601613898565b6101408c01526104006040518094819301613898565b6101608901526105436105d26105b5602060405188516105008183896135dd565b81019060078252828160018060a01b03930301902054169461054a60405183818c5161052d8183886135dd565b8101600881520301902060405196878092613898565b03866136b5565b604051895161055a8183856135dd565b81019060048252838160018060a01b0393030190205416986105a4604051848184516105878183896135dd565b810160058152030190206040519a8b8092613898565b038a6136b5565b6040519384928392519283916135dd565b8101600681520301902060405198898092613898565b03886136b5565b604051998a9960c08b5260c08b0190613770565b9160208a015288820360408a0152613600565b9160608701528582036080870152613600565b9083820360a0850152613600565b0390f35b34610339576020366003190112610339576004356001600160401b0381116103395761040061068561066f602061065c61061a9536906004016136d6565b81604051938285809451938492016135dd565b8101600681520301902060405192838092613898565b604051918291602083526020830190613600565b34610339576000366003190112610339576000546040516395a8c58d60e01b81523360048201526002602482015290602090829060449082906001600160a01b03165afa801561032d576106f59160009161097d575b506141d2565b600080600254905b81811061093f575061070e82613bf4565b9061071883613bf4565b61072184613bf4565b61072a85613a7a565b9161073860405193846136b5565b85835261075961074787613a7a565b602085019790601f19013689376140ec565b93600090815b8181106107e8575050506020916107956107a3926107886040519860a08a5260a08a0190613625565b90888203868a0152613625565b908682036040880152613625565b918483036060860152519182815201939060005b8181106107d257848061061a8887838203608085015261372c565b82518652602095860195909201916001016107b7565b60ff60066107f5836139b6565b50015460081c16600381101561091657610812575b60010161075f565b9161040061082f610822856139b6565b5060405192838092613898565b610839828a613c3e565b526108448189613c3e565b506002610864610853856139b6565b506104006040518094819301613898565b61086e8286613c3e565b526108798185613c3e565b50600a610888610853856139b6565b6108928287613c3e565b5261089d8186613c3e565b5060086108a9846139b6565b50015460076108b7856139b6565b500154101561092c5760086108cb846139b6565b5001545b6108d98288613c3e565b5260ff60066108e7856139b6565b50015460081c166003811015610916578161090e916109086001948b613c3e565b52613b87565b92905061080a565b634e487b7160e01b600052602160045260246000fd5b6007610937846139b6565b5001546108cf565b60ff600661094c836139b6565b50015460081c16600381101561091657610969575b6001016106fd565b91610975600191613b87565b929050610961565b610996915060203d6020116103265761031881836136b5565b826106ef565b3461033957610140366003190112610339576004356001600160401b038111610339576109cd9036906004016136d6565b6024356001600160401b038111610339576109ec9036906004016136d6565b906044356001600160401b03811161033957610a0c9036906004016136d6565b906064356001600160401b03811161033957610a2c903690600401613a91565b906084356001600160401b03811161033957610a4c9036906004016136d6565b60a4356001600160401b03811161033957610a6b903690600401613a91565b9460c4356001600160a01b03811693908490036103395760e4356001600160401b03811161033957610aa19036906004016136d6565b90610104356001600160401b03811161033957610ac29036906004016136d6565b976101243596600288101561033957600080546040516395a8c58d60e01b81523360048201526024810192909252602090829060449082906001600160a01b03165afa801561032d57610b1c91600091610e625750614235565b60405194610b298661367e565b8386526020860152886040860152606085015284608085015260a0840152610b50866135d3565b8560c0840152600260e0840152600061010084015260006101208401526040928351610b7c85826136b5565b60098152682a22aa29a22329a22360b91b6020820152610140820152826101608201528351610bc98284519260208181880195610bba8183896135dd565b8101600a815203019020614919565b610bf482610be560208c818a51938285809451938492016135dd565b8101600b815203019020614919565b600254600160401b811015610e3657806001610c1392016002556139b6565b939093610e4c57610c29602093610c6b95614919565b855183818351610c3a8183886135dd565b81016007815203019020886bffffffffffffffffffffffff60a01b82541617905585519384928392519283916135dd565b8101600881520301902087516001600160401b038111610e3657610c8f825461385e565b601f8111610df9575b506020601f8211600114610d605798610d21610d419694610d2e94610cfd85610d139d9c9b99967f634ef467423c7b2abbaf26097bdddac4a495d36be69ca3d1555484b46e7899c79f600091610d55575b508160011b916000199060031b1c19161790565b90555b83519a8b9a60c08c5260c08c0190613600565b908a820360208c0152613600565b9188830390890152613600565b9160608601528482036080860152613600565b90610d4b816135d3565b60a08301520390a1005b905086015138610ce9565b601f1982169083600052806000209160005b818110610de1575094610d2e946001857f634ef467423c7b2abbaf26097bdddac4a495d36be69ca3d1555484b46e7899c79e95610d2195610d139f9e9d9b98610d419d9b10610dc8575b5050811b019055610d00565b87015160001960f88460031b161c191690558f80610dbc565b91926020600181928f87015181550194019201610d72565b610e2690836000526020600020601f840160051c81019160208510610e2c575b601f0160051c019061421e565b89610c98565b9091508190610e19565b634e487b7160e01b600052604160045260246000fd5b634e487b7160e01b600052600060045260246000fd5b610e7b915060203d6020116103265761031881836136b5565b8c61024c565b34610339576020366003190112610339576004356001600160401b038111610339576000610eb6610ee39236906004016136d6565b60018060a01b03600154166040518080958194629a308760e31b8352602060048401526024830190613600565b03915afa90811561032d57600091610f0c575b6040516020808252819061061a9082018561372c565b3d8083833e610f1b81836136b5565b810190602081830312610faa578051906001600160401b038211610fb257019080601f83011215610faa57815192610f5284613a7a565b92610f6060405194856136b5565b84845260208085019560051b820101928311610fae57602001935b828510610f905750505061061a915090610ef6565b845160ff81168103610faa57815260209485019401610f7b565b8280fd5b5080fd5b8380fd5b34610339576020366003190112610339576004356001600160401b03811161033957602061065c610feb9236906004016136d6565b8101600c81520301902060ff81541661061a600560405193611014856105438160018501613898565b604051611028816104008160028601613898565b604051906110448261103d8160038701613898565b03836136b5565b61106760ff600485015416936110606040518097819301613898565b03856136b5565b60405196879687613a0a565b34610339576040366003190112610339576004356001600160401b038111610339576110a39036906004016136d6565b6024356001600160401b038111610339576110c2903690600401613a91565b9060405190805191602081818401946110dc8183886135dd565b8101600c815203019020600160ff19825416179055600660405160208184516111068183896135dd565b8101600c81520301902001908351600160401b8111610e365782548184558082106114d8575b50602085019081936000526020600020916000905b8282106113c0575050505060005b6003548110156113be57600161117e61118c61116a846139eb565b50604051928391602083019586910161407e565b03601f1981018352826136b5565b51902060405160208101906111bb60208287516111aa81878d6135dd565b81010301601f1981018352826136b5565b519020146111cb5760010161114f565b92505060066111d9836139eb565b5001925190600160401b8211610e36578354828555808310611340575b50926000526020600020926000905b8282106112275750505061121991506139eb565b50805460ff19166001179055005b80518051906001600160401b038211610e3657611244875461385e565b601f811161130e575b50602090601f83116001146112a1579261128783600195946020948796600092611296575b50508160011b916000199060031b1c19161790565b88555b01950191019093611205565b015190508b80611272565b90601f1983169188600052816000209260005b8181106112f657509360209360019693879693838895106112dd575b505050811b01885561128a565b015160001960f88460031b161c191690558a80806112d0565b929360206001819287860151815501950193016112b4565b61133a90886000526020600020601f850160051c81019160208610610e2c57601f0160051c019061421e565b8761124d565b8460005282602060002091820191015b81811061135d57506111f6565b8061136a6001925461385e565b80611377575b5001611350565b601f8111831461138d5750600081555b87611370565b6113ab908260005283601f6020600020920160051c8201910161421e565b8060005260006020812081835555611387565b005b80518051906001600160401b038211610e36576113dd865461385e565b601f81116114a6575b50602090601f8311600114611439579261141f8360019594602094879660009261142e5750508160011b916000199060031b1c19161790565b87555b01940191019092611141565b015190508e80611272565b90601f1983169187600052816000209260005b81811061148e5750936020936001969387969383889510611475575b505050811b018755611422565b015160001960f88460031b161c191690558d8080611468565b9293602060018192878601518155019501930161144c565b6114d290876000526020600020601f850160051c81019160208610610e2c57601f0160051c019061421e565b8a6113e6565b8360005281602060002091820191015b8181106114f5575061112c565b806115026001925461385e565b8061150f575b50016114e8565b601f811183146115255750600081555b88611508565b611543908260005283601f6020600020920160051c8201910161421e565b806000526000602081208183555561151f565b346103395760c0366003190112610339576004356001600160401b038111610339576115869036906004016136d6565b6024356001600160401b038111610339576115a59036906004016136d6565b906044356001600160401b038111610339576115c59036906004016136d6565b906115ce613a6a565b906084356001600160401b038111610339576115ee9036906004016136d6565b60a4356001600160401b0381116103395761160d903690600401613a91565b906044602060018060a01b0360005416604051928380926395a8c58d60e01b8252336004830152600060248301525afa801561032d5761165491600091611c3a5750614235565b81519060ff8516918203611be357604051906003885192602081818c019561167d8183896135dd565b8101600c8152030190200160405161169d8161117e60208201809561407e565b51902060405160208101906116bf602082816111aa8c878151938492016135dd565b51902003611b71575061170a6020600692600460405183818d516116e48183886135dd565b8101600c815203019020018560ff19825416179055604051809381928c519283916135dd565b8101600c81520301902001908251600160401b8111610e36578254818455808210611af3575b50602084019081936000526020600020916000905b8282106119db575050505060009560208101965b6003548110156119bb57600261117e61177461116a846139eb565b5190206111aa6040516117946020828d8282019586918a519283916135dd565b519020146117a457600101611759565b905060069293949596506117ce9160046117bd836139eb565b50019060ff198254161790556139eb565b5001915190600160401b8211610e3657825482845580831061193d575b50916000526020600020916000905b82821061182557505050506102fb6000805160206152fb833981519152935b604051938493846148ed565b80518051906001600160401b038211610e3657611842865461385e565b601f811161190b575b50602090601f831160011461189e5792611884836001959460209487966000926118935750508160011b916000199060031b1c19161790565b87555b019401910190926117fa565b015190508d80611272565b90601f1983169187600052816000209260005b8181106118f357509360209360019693879693838895106118da575b505050811b018755611887565b015160001960f88460031b161c191690558c80806118cd565b929360206001819287860151815501950193016118b1565b61193790876000526020600020601f850160051c81019160208610610e2c57601f0160051c019061421e565b8961184b565b8360005282602060002091820191015b81811061195a57506117eb565b806119676001925461385e565b80611974575b500161194d565b601f8111831461198a5750600081555b8961196d565b6119a8908260005283601f6020600020920160051c8201910161421e565b8060005260006020812081835555611984565b50505050509091506102fb6000805160206152fb83398151915293611819565b80518051906001600160401b038211610e36576119f8865461385e565b601f8111611ac1575b50602090601f8311600114611a545792611a3a83600195946020948796600092611a495750508160011b916000199060031b1c19161790565b87555b01940191019092611745565b015190503880611272565b90601f1983169187600052816000209260005b818110611aa95750936020936001969387969383889510611a90575b505050811b018755611a3d565b015160001960f88460031b161c19169055388080611a83565b92936020600181928786015181550195019301611a67565b611aed90876000526020600020601f850160051c81019160208610610e2c57601f0160051c019061421e565b8d611a01565b8360005281602060002091820191015b818110611b105750611730565b80611b1d6001925461385e565b80611b2a575b5001611b03565b601f81118314611b405750600081555b8b611b23565b611b5e908260005283601f6020600020920160051c8201910161421e565b8060005260006020812081835555611b3a565b6102fb9495966102de6020611bde95946000805160206152fb8339815191529b97611bd995604051978896611ba58861369a565b600088528b8689015260408801528c6060880152608087015260a086015260c0850152604051809381928a519283916135dd565b614882565b611819565b60405162461bcd60e51b815260206004820152602960248201527f5175616e7469747920646f6573206e6f74206d6174636820746865206e756d626044820152686572206f662049447360b81b6064820152608490fd5b611c53915060203d6020116103265761031881836136b5565b8861024c565b34610339576020366003190112610339576004356001600160401b03811161033957611c899036906004016136d6565b600080546040516395a8c58d60e01b81523360048201526024810192909252602090829060449082906001600160a01b03165afa801561032d57611cd491600091611e8f5750614235565b60405181519060208181850193611cec8183876135dd565b8101600a815203019020916006830160ff815460081c16600381101561091657611e2d57426007850155805461ff00191661010017905560005b600254811015611dfd57611d39816139b6565b50604051611d4f8161117e60208201809561407e565b5190206040516020810190611d6d60208287516111aa81878c6135dd565b51902014611d7d57600101611d26565b611de892507f854681db4b5190ceaacfe5894893f2e8d49873d9b8ed6c72b5618047cb3924e5936006611dc283611db66102fb956139b6565b506007429101556139b6565b5001805461ff0019166101001790555b6002604051948594606086526060860190613600565b91426020860152848303604086015201613898565b50611de891506102fb7f854681db4b5190ceaacfe5894893f2e8d49873d9b8ed6c72b5618047cb3924e593611dd2565b60405162461bcd60e51b815260206004820152603460248201527f4f62617420547261646973696f6e616c20737461747573206d75737420626520604482015273696e206c6f63616c2070726f64756374696f6e2160601b6064820152608490fd5b611ea8915060203d6020116103265761031881836136b5565b8361024c565b34610339576020366003190112610339576004356001600160401b03811161033957611ede9036906004016136d6565b606060405190611f126103b2600285519460208181890197611f0181838b6135dd565b8101600c815203019020015461385e565b60ff60046040516020818751611f2981838a6135dd565b8101600c8152030190200154169160ff6040516020818751611f4c8183886135dd565b8101600c815203019020541693611f62856135d3565b6000546040516395a8c58d60e01b8152336004820152600160248201526001600160a01b0390911690602081604481855afa90811561032d57600091612078575b5015611fdd5750505050611fb5613bac565b915b611fd36040519384938452606060208501526060840190613625565b9060408301520390f35b6020604491604097959751928380926395a8c58d60e01b8252336004830152600060248301525afa90811561032d57600091612059575b50612021575b5050611fb7565b6120519294506020600692612041926040519384928392519283916135dd565b8101600c81520301902001613b27565b91838061201a565b612072915060203d6020116103265761031881836136b5565b86612014565b612091915060203d6020116103265761031881836136b5565b87611fa3565b34610339576020366003190112610339576004356001600160401b038111610339576120c79036906004016136d6565b600080546040516395a8c58d60e01b81523360048201526024810192909252602090829060449082906001600160a01b03165afa801561032d5761211291600091611e8f5750614235565b60025460009060208301825b828110612230575061213861213284613bf4565b93613bf4565b93600091825b84811061216f576121618661061a89604051938493604085526040850190613625565b908382036020850152613625565b600a61117e61218061116a846139b6565b519020604051602081019061219e60208288516111aa81878b6135dd565b519020146121af575b60010161213e565b60ff60066121bc836139b6565b50015460081c166003811015610916576002036121a757926122286001916104006121e9610822886139b6565b6121f3828a613c3e565b526121fe8189613c3e565b50600261220d610853886139b6565b612217828b613c3e565b52612222818a613c3e565b50613b87565b9390506121a7565b600a61117e61224161116a846139b6565b519020604051602081019061225f6020828a516111aa81878b6135dd565b51902014612270575b60010161211e565b60ff600661227d836139b6565b50015460081c1660038110156109165760020361226857926122a0600191613b87565b939050612268565b34610339576020366003190112610339576004356001600160401b038111610339576104006106856122e6602061065c61061a9536906004016136d6565b8101600581520301902060405192838092613898565b34610339576000366003190112610339576001546040516001600160a01b039091168152602090f35b34610339576020366003190112610339576004356001600160401b038111610339576123559036906004016136d6565b600080546040516395a8c58d60e01b81523360048201526024810192909252602090829060449082906001600160a01b03165afa801561032d576123a091600091611e8f5750614235565b60035460208201916000805b8381106124ef57506123bd81613bf4565b926123c782613bf4565b946123d4612132846140ec565b93600091825b84811061242f576124058861061a896124218a6124138f604051978897608089526080890190613625565b908782036020890152613625565b90858203604087015261372c565b908382036060850152613625565b600561117e61244061116a846139eb565b519020604051602081019061245e60208288516111aa81878b6135dd565b5190201461246f575b6001016123da565b926124e76001916002612484610853886139eb565b61248e828c613c3e565b52612499818b613c3e565b5060036124a8610853886139eb565b6124b2828d613c3e565b526124bd818c613c3e565b5060ff60046124cb886139eb565b500154166124d9828a613c3e565b528261220d610853886139eb565b939050612467565b600561117e61250061116a846139eb565b5190206040516020810190612520602082846111aa8c8b519283916135dd565b51902014612531575b6001016123ac565b9061253d600191613b87565b919050612529565b34610339576020366003190112610339576004356003548110156103395761256c906139eb565b5060ff81541661061a600560405193611014856105438160018501613898565b346103395760a0366003190112610339576004356001600160401b038111610339576125bc9036906004016136d6565b602435906001600160a01b0382168203610339576044356001600160401b038111610339576125ef9036906004016136d6565b906064356001600160401b0381116103395761260f9036906004016136d6565b906084356001600160401b0381116103395761262f9036906004016136d6565b6000546040516395a8c58d60e01b81523360048201526002602482015291939190602090829060449082906001600160a01b03165afa801561032d5761267c91600091612cce57506141d2565b604051938251946020818186019761269581838b6135dd565b8101600a815203019020956006870160ff815460081c16600381101561091657600103612c735742600889015561020061ff00198254161790556009870185516001600160401b038111610e36576126ed825461385e565b601f8111612c41575b506020601f8211600114612bdb57908061272592600091612bd057508160011b916000199060031b1c19161790565b90555b604051602081865161273b81838c6135dd565b810160048152030190209060018060a01b03166bffffffffffffffffffffffff60a01b825416179055604051602081855161277781838b6135dd565b81016005815203019020908051906001600160401b038211610e365761279d835461385e565b601f8111612b9e575b50602090601f8311600114612b37576127d7929160009183612b2c5750508160011b916000199060031b1c19161790565b90555b60405160208184516127ed81838a6135dd565b81016006815203019020908051906001600160401b038211610e3657612813835461385e565b601f8111612afa575b50602090601f8311600114612a935761284d929160009183612a885750508160011b916000199060031b1c19161790565b90555b60005b600254811015612a5757612866816139b6565b5060405161287c8161117e60208201809561407e565b519020604051602081019061289a60208287516111aa81878d6135dd565b519020146128aa57600101612853565b60099293506128e391506128bd816139b6565b5060084291015560066128cf826139b6565b5001805461ff0019166102001790556139b6565b5001918151926001600160401b038411610e3657612901815461385e565b601f8111612a25575b50602093601f811160011461299757916102fb916129648461297d96957f489f165b733603cb0a992d8cafd6c42a0c13d169039003f751758b9f0019f26c9860009161298c57508160011b916000199060031b1c19161790565b90555b6002604051948594604086526040860190613600565b91848303602086015201613898565b905086015189610ce9565b601f1981169482600052806000209560005b818110612a0d5750827f489f165b733603cb0a992d8cafd6c42a0c13d169039003f751758b9f0019f26c976102fb959361297d989795600194106129f4575b5050811b019055612967565b87015160001960f88460031b161c1916905588806129e8565b868301518855600190970196602092830192016129a9565b612a5190826000526020600020601f870160051c81019160208810610e2c57601f0160051c019061421e565b8461290a565b505061297d91506102fb7f489f165b733603cb0a992d8cafd6c42a0c13d169039003f751758b9f0019f26c93612967565b015190508880611272565b90601f1983169184600052816000209260005b818110612ae25750908460019594939210612ac9575b505050811b019055612850565b015160001960f88460031b161c19169055878080612abc565b92936020600181928786015181550195019301612aa6565b612b2690846000526020600020601f850160051c81019160208610610e2c57601f0160051c019061421e565b8761281c565b015190508980611272565b90601f1983169184600052816000209260005b818110612b865750908460019594939210612b6d575b505050811b0190556127da565b015160001960f88460031b161c19169055888080612b60565b92936020600181928786015181550195019301612b4a565b612bca90846000526020600020601f850160051c81019160208610610e2c57601f0160051c019061421e565b886127a6565b90508801518b610ce9565b601f1982169083600052806000209160005b8a828210612c295750509083600194939210612c10575b5050811b019055612728565b89015160001960f88460031b161c191690558a80612c04565b60018495602093958493015181550194019201612bed565b612c6d90836000526020600020601f840160051c81019160208510610e2c57601f0160051c019061421e565b896126f6565b60405162461bcd60e51b815260206004820152602d60248201527f4f62617420547261646973696f6e616c20737461747573206d7573742062652060448201526c5265717565737465644e49452160981b6064820152608490fd5b612ce7915060203d6020116103265761031881836136b5565b876106ef565b346103395760203660031901126103395760043560025481101561033957612d14906139b6565b5060405190612d278261103d8184613898565b61061a600a60405192612d41846110608160018501613898565b60405194612d5d86612d568160028601613898565b03876136b5565b60405190612d728261103d8160048701613898565b6006830154600784015491600885015493612dab60405196612d9b886102a08160098501613898565b6105cb604051809a819301613898565b604051998a9960ff808660081c169516938b61391b565b34610339576020366003190112610339576004356001600160a01b0381169081900361033957600052600960205260ff604060002054166040516004821015610916576020918152f35b34610339576020366003190112610339576004356001600160401b03811161033957602061065c612e419236906004016136d6565b8101600b81520301902060405190612d278261103d8184613898565b34610339576020366003190112610339576004356001600160401b03811161033957612e8f60209136906004016136d6565b81612ea360405192838151938492016135dd565b600790820190815281900382019020546040516001600160a01b039091168152f35b34610339576020366003190112610339576004356001600160401b03811161033957610400610685612f03602061065c61061a9536906004016136d6565b8101600881520301902060405192838092613898565b34610339576020366003190112610339576004356001600160401b03811161033957602061065c612f4e9236906004016136d6565b8101600a81520301902060405190612d278261103d8184613898565b34610339576020366003190112610339576004356001600160401b03811161033957612f9d6132259136906004016136d6565b612fa561411e565b5061061a61059d61325960405193612fde6103b282519660208181860199612fce81838d6135dd565b8101600a8152030190205461385e565b6131f46132466102a061323860405160208180612fff8d8a519283916135dd565b8101600a81520301902098600a61310e6040519b61301c8d61367e565b60405161302d816104008185613898565b8d5260405160208e61304d836130468160018801613898565b03846136b5565b01528c6040805191613066836130468160028801613898565b01528c606061307760038401613b27565b91015260405160808e613091836130468160048801613898565b01528c60a06130a260058401613b27565b9101526130ce8d60e060ff60068501548181166130be816135d3565b60c085015260081c1691016141c6565b60078101546101008e015260088101546101208e01526040516101408e6130fc836130468160098801613898565b01526104006040518094819301613898565b6101608b01526105436132116131fb60206040518a5161312f8183896135dd565b81019060078252828160018060a01b0393030190205416946131738b8360405180925161315d8183886135dd565b81016008815203019020604051998a8092613898565b6131a1600a8c8460405180925161318b8183896135dd565b8101848152030190200160405196878092613898565b6040518b516131b18183856135dd565b81019060048252838160018060a01b03930301902054169a6105a4604051848184516131de8183896135dd565b810160058152030190206040519c8d8092613898565b038c6136b5565b810160068152030190206040519a8b8092613898565b6040519b8c9b60e08d5260e08d0190613770565b9160208c01528a820360408c0152613600565b9088820360608a0152613600565b91608087015285820360a0870152613600565b9083820360c0850152613600565b34610339576020366003190112610339576004356001600160401b038111610339576132979036906004016136d6565b600254600060208301815b8381106133f457506132b382613bf4565b926132bd83613bf4565b916132d06132ca856140ec565b946140ec565b95600091825b84811061330f576124058861061a8b6133018b6124138c604051978897608089526080890190613625565b90838203606085015261372c565b600a61117e61332061116a846139b6565b519020604051602081019061333e60208288516111aa81878b6135dd565b5190201461334f575b6001016132d6565b9261040061335f610822866139b6565b613369828a613c3e565b526133748189613c3e565b506002613383610853866139b6565b61338d8288613c3e565b526133988187613c3e565b5060ff60066133a6866139b6565b50015460081c16600381101561091657816133ec916133c76001948b613c3e565b5260ff60066133d5886139b6565b500154166133e2816135d3565b610908828d613c3e565b939050613347565b600a61117e61340561116a846139b6565b51902060405160208101906134236020828a516111aa81878b6135dd565b51902014613434575b6001016132a2565b91613440600191613b87565b92905061342c565b34610339576020366003190112610339576004356001600160401b0381116103395761347a60209136906004016136d6565b8161348e60405192838151938492016135dd565b600490820190815281900382019020546040516001600160a01b039091168152f35b34610339576000366003190112610339576134c9613c52565b6040518091602082016020835281518091526040830190602060408260051b8601019301916000905b82821061350157505050500390f35b9193600191939550602061359f8192603f198a82030186528851908151613527816135d3565b815260c061358e61356f61355d61354b8887015160e08a88015260e0870190613600565b60408701518682036040880152613600565b60608601518582036060870152613600565b60ff608086015116608085015260a085015184820360a0860152613600565b9201519060c0818403910152613625565b96019201920185949391926134f2565b34610339576000366003190112610339576000546001600160a01b03168152602090f35b6002111561091657565b60005b8381106135f05750506000910152565b81810151838201526020016135e0565b90602091613619815180928185528580860191016135dd565b601f01601f1916010190565b9080602083519182815201916020808360051b8301019401926000915b83831061365157505050505090565b909192939460208061366f600193601f198682030187528951613600565b97019301930191939290613642565b61018081019081106001600160401b03821117610e3657604052565b60e081019081106001600160401b03821117610e3657604052565b90601f801991011681019081106001600160401b03821117610e3657604052565b81601f82011215610339578035906001600160401b038211610e36576040519261370a601f8401601f1916602001856136b5565b8284526020838301011161033957816000926020809301838601378301015290565b906020808351928381520192019060005b81811061374a5750505090565b825160ff1684526020938401939092019160010161373d565b9060038210156109165752565b61385b916101606138496137f86137e66137d46137c26137b061379e89516101808a526101808a0190613600565b60208a015189820360208b0152613600565b604089015188820360408a0152613600565b60608801518782036060890152613625565b60808701518682036080880152613600565b60a086015185820360a0870152613625565b60c0850151613806816135d3565b60c085015261381d60e086015160e0860190613763565b610100850151610100850152610120850151610120850152610140850151848203610140860152613600565b92015190610160818403910152613600565b90565b90600182811c9216801561388e575b602083101461387857565b634e487b7160e01b600052602260045260246000fd5b91607f169161386d565b600092918154916138a88361385e565b80835292600181169081156138fe57506001146138c457505050565b60009081526020812093945091925b8383106138e4575060209250010190565b6001816020929493945483858701015201910191906138d3565b915050602093945060ff929192191683830152151560051b010190565b9894959061385b9a98946139686139a7999561395a8d61398f9761394c613976976101408452610140840190613600565b916020818403910152613600565b8d810360408f015290613600565b908b820360608d0152613600565b95613980816135d3565b60808a015260a0890190613763565b60c087015260e0860152848203610100860152613600565b91610120818403910152613600565b6002548110156139d5576002600052600b602060002091020190600090565b634e487b7160e01b600052603260045260246000fd5b6003548110156139d55760036000526007602060002091020190600090565b9293613a4861385b9795613a3a60ff95613a5695613a27816135d3565b885260c0602089015260c0880190613600565b908682036040880152613600565b908482036060860152613600565b9316608082015260a0818403910152613600565b6064359060ff8216820361033957565b6001600160401b038111610e365760051b60200190565b9080601f83011215610339578135613aa881613a7a565b92613ab660405194856136b5565b81845260208085019260051b820101918383116103395760208201905b838210613ae257505050505090565b81356001600160401b03811161033957602091613b04878480948801016136d6565b815201910190613ad3565b90816020910312610339575180151581036103395790565b908154613b3381613a7a565b92613b4160405194856136b5565b818452602084019060005260206000206000915b838310613b625750505050565b600160208192604051613b79816104008189613898565b815201920192019190613b55565b6000198114613b965760010190565b634e487b7160e01b600052601160045260246000fd5b60405190613bbb6020836136b5565b600080835282815b828110613bcf57505050565b806060602080938501015201613bc3565b634e487b7160e01b81526041600452602490fd5b90613bfe82613a7a565b613c0b60405191826136b5565b8281528092613c1c601f1991613a7a565b019060005b828110613c2d57505050565b806060602080938501015201613c21565b80518210156139d55760209160051b010190565b6000546040516395a8c58d60e01b8152336004820152600160248201526060916001600160a01b031690602081604481855afa90811561032d5760009161405f575b5015613e94575050600080600354905b818110613e5b5750613cb582613a7a565b91613cc360405193846136b5565b808352613cd2601f1991613a7a565b0160005b818110613e145750506000805b828110613cf05750505090565b60ff613cfb826139eb565b505416613d07816135d3565b15613d15575b600101613ce3565b90613e0c60019160ff613d27856139eb565b505416613d33856139eb565b506005613ded613d42886139eb565b50886003613dd3613d52836139eb565b506002613dbe613d7260ff6004613d68896139eb565b50015416966139eb565b50968e613da9613d80613bac565b9c6040519e8f613d8f8161369a565b613d98826135d3565b526104006040518094819301613898565b60208d01526104006040518094819301613898565b60408a01526104006040518094819301613898565b606087015260808601526104006040518094819301613898565b60a083015260c0820152613e018288613c3e565b526122228187613c3e565b919050613d0d565b602090604051613e238161369a565b600081526060838201526060604082015260608082015260006080820152606060a0820152606060c082015282828701015201613cd6565b60ff613e66826139eb565b505416613e72816135d3565b15613e80575b600101613ca4565b91613e8c600191613b87565b929050613e78565b6020604491604051928380926395a8c58d60e01b8252336004830152600060248301525afa90811561032d57600091614040575b5015613fd95750600354613edb81613a7a565b90613ee960405192836136b5565b8082526020820160036000527fc2575a0e9e593c00f959f8c92f12db2869c3395a3b0502d05e2516446f71f85b6000915b838310613f28575050505090565b60076020600192604051613f3b8161369a565b60ff865416613f49816135d3565b8152604051613f5e8161040081898b01613898565b83820152604051613f76816104008160028b01613898565b6040820152604051613f8f816104008160038b01613898565b606082015260ff6004870154166080820152604051613fb5816104008160058b01613898565b60a0820152613fc660068701613b27565b60c0820152815201920192019190613f1a565b604051906000613fea6020846136b5565b8252600090815b828110613ffe5750505090565b60209060405161400d8161369a565b6000815283838201528360408201528380820152600060808201528360a08201528360c082015282828701015201613ff1565b614059915060203d6020116103265761031881836136b5565b38613ec8565b614078915060203d6020116103265761031881836136b5565b38613c94565b6000929181549161408e8361385e565b92600181169081156140d957506001146140a757505050565b909192935060005260206000206000905b8382106140c55750500190565b6001816020925484860152019101906140b8565b60ff191683525050811515909102019150565b906140f682613a7a565b61410360405191826136b5565b8281528092614114601f1991613a7a565b0190602036910137565b6040519061412b8261367e565b60606101608382815282602082015282604082015282808201528260808201528260a0820152600060c0820152600060e082015260006101008201526000610120820152826101408201520152565b1561418157565b60405162461bcd60e51b815260206004820152601b60248201527f4e6f206461746120666f756e64207769746820746869732049442e00000000006044820152606490fd5b60038210156109165752565b156141d957565b60405162461bcd60e51b815260206004820152601e60248201527f416363657373207265737472696374656420746f2042504f4d20726f6c6500006044820152606490fd5b818110614229575050565b6000815560010161421e565b1561423c57565b60405162461bcd60e51b815260206004820152602160248201527f416363657373207265737472696374656420746f20466163746f727920726f6c6044820152606560f81b6064820152608490fd5b8151614296816135d3565b61429f816135d3565b60ff801983541691161781556001810160208301518051906001600160401b038211610e36576142cf835461385e565b601f8111614850575b50602090601f83116001146147e957614309929160009183611a495750508160011b916000199060031b1c19161790565b90555b6002810160408301518051906001600160401b038211610e3657614330835461385e565b601f81116147b7575b50602090601f83116001146147505761436a929160009183611a495750508160011b916000199060031b1c19161790565b90555b6003810160608301518051906001600160401b038211610e3657614391835461385e565b601f811161471e575b50602090601f83116001146146b7576143cb929160009183611a495750508160011b916000199060031b1c19161790565b90555b60ff60808301511660ff60048301911660ff198254161790556005810160a08301518051906001600160401b038211610e365761440b835461385e565b601f8111614685575b50602090601f8311600114614618578260c095936006959361444c93600092611a495750508160011b916000199060031b1c19161790565b90555b01910151805190600160401b8211610e3657825482845580831061459a575b50602001916000526020600020916000905b82821061448d5750505050565b80518051906001600160401b038211610e36576144aa865461385e565b601f8111614568575b50602090601f83116001146144fb57926144ec83600195946020948796600092611a495750508160011b916000199060031b1c19161790565b87555b01940191019092614480565b90601f1983169187600052816000209260005b8181106145505750936020936001969387969383889510614537575b505050811b0187556144ef565b015160001960f88460031b161c1916905538808061452a565b9293602060018192878601518155019501930161450e565b61459490876000526020600020601f850160051c81019160208610610e2c57601f0160051c019061421e565b386144b3565b8360005282602060002091820191015b8181106145b7575061446e565b806145c46001925461385e565b806145d1575b50016145aa565b601f811183146145e75750600081555b386145ca565b614605908260005283601f6020600020920160051c8201910161421e565b80600052600060208120818355556145e1565b90601f1983169184600052816000209260005b81811061466d575092600192859260c098966006989610614654575b505050811b01905561444f565b015160001960f88460031b161c19169055388080614647565b9293602060018192878601518155019501930161462b565b6146b190846000526020600020601f850160051c81019160208610610e2c57601f0160051c019061421e565b38614414565b90601f1983169184600052816000209260005b81811061470657509084600195949392106146ed575b505050811b0190556143ce565b015160001960f88460031b161c191690553880806146e0565b929360206001819287860151815501950193016146ca565b61474a90846000526020600020601f850160051c81019160208610610e2c57601f0160051c019061421e565b3861439a565b90601f1983169184600052816000209260005b81811061479f5750908460019594939210614786575b505050811b01905561436d565b015160001960f88460031b161c19169055388080614779565b92936020600181928786015181550195019301614763565b6147e390846000526020600020601f850160051c81019160208610610e2c57601f0160051c019061421e565b38614339565b90601f1983169184600052816000209260005b818110614838575090846001959493921061481f575b505050811b01905561430c565b015160001960f88460031b161c19169055388080614812565b929360206001819287860151815501950193016147fc565b61487c90846000526020600020601f850160051c81019160208610610e2c57601f0160051c019061421e565b386142d8565b600354600160401b811015610e36576001810160035560006003548210156148d957600390526007027fc2575a0e9e593c00f959f8c92f12db2869c3395a3b0502d05e2516446f71f85b01906148d79161428b565b565b634e487b7160e01b81526032600452602490fd5b60ff61490561385b9593606084526060840190613600565b931660208201526040818403910152613600565b909182519283516001600160401b038111610e3657614938845461385e565b601f81116152c8575b50602094601f821160011461526357614975929394958291600092611a495750508160011b916000199060031b1c19161790565b83555b6001830160208201518051906001600160401b038211610e365761499c835461385e565b601f8111615231575b50602090601f83116001146151ca576149d6929160009183611a495750508160011b916000199060031b1c19161790565b90555b6002830160408201518051906001600160401b038211610e36576149fd835461385e565b601f8111615198575b50602090601f831160011461513157614a37929160009183611a495750508160011b916000199060031b1c19161790565b90555b600383016060820151805190600160401b8211610e365782548284558083106150b3575b50602001916000526020600020916000905b828210614fa657505050506004830160808201518051906001600160401b038211610e3657614a9f835461385e565b601f8111614f74575b50602090601f8311600114614f0d57614ad9929160009183611a495750508160011b916000199060031b1c19161790565b90555b6005830160a0820151805190600160401b8211610e36578254828455808310614e8f575b50602001916000526020600020916000905b828210614d825750505050600683019260c0820151614b30816135d3565b614b39816135d3565b60ff8019865416911617845560e08201519360038510156109165760009461ff0082549160081b169061ff00191617905561010082015160078201556101208201516008820155600981016101408301518051906001600160401b038211614d6e57614ba5835461385e565b601f8111614d3e575b50602090601f8311600114614cd457826101609593600a9593614be6938b92611a495750508160011b916000199060031b1c19161790565b90555b01910151928351906001600160401b038211613be057614c09835461385e565b601f8111614ca4575b50602090601f8311600114614c465790614c4293949583611a495750508160011b916000199060031b1c19161790565b9055565b90601f198316848352818320925b818110614c8c57509583600195969710614c73575b505050811b019055565b015160001960f88460031b161c19169055388080614c69565b9192602060018192868b015181550194019201614c54565b614cce9084835260208320601f850160051c81019160208610610e2c57601f0160051c019061421e565b38614c12565b8388528188209190601f198416895b818110614d2657509260019285926101609896600a989610614d0d575b505050811b019055614be9565b015160001960f88460031b161c19169055388080614d00565b92936020600181928786015181550195019301614ce3565b614d689084895260208920601f850160051c81019160208610610e2c57601f0160051c019061421e565b38614bae565b634e487b7160e01b87526041600452602487fd5b80518051906001600160401b038211610e3657614d9f865461385e565b601f8111614e5d575b50602090601f8311600114614df05792614de183600195946020948796600092611a495750508160011b916000199060031b1c19161790565b87555b01940191019092614b12565b90601f1983169187600052816000209260005b818110614e455750936020936001969387969383889510614e2c575b505050811b018755614de4565b015160001960f88460031b161c19169055388080614e1f565b92936020600181928786015181550195019301614e03565b614e8990876000526020600020601f850160051c81019160208610610e2c57601f0160051c019061421e565b38614da8565b8360005282602060002091820191015b818110614eac5750614b00565b80614eb96001925461385e565b80614ec6575b5001614e9f565b601f81118314614edc5750600081555b38614ebf565b614efa908260005283601f6020600020920160051c8201910161421e565b8060005260006020812081835555614ed6565b90601f1983169184600052816000209260005b818110614f5c5750908460019594939210614f43575b505050811b019055614adc565b015160001960f88460031b161c19169055388080614f36565b92936020600181928786015181550195019301614f20565b614fa090846000526020600020601f850160051c81019160208610610e2c57601f0160051c019061421e565b38614aa8565b80518051906001600160401b038211610e3657614fc3865461385e565b601f8111615081575b50602090601f8311600114615014579261500583600195946020948796600092611a495750508160011b916000199060031b1c19161790565b87555b01940191019092614a70565b90601f1983169187600052816000209260005b8181106150695750936020936001969387969383889510615050575b505050811b018755615008565b015160001960f88460031b161c19169055388080615043565b92936020600181928786015181550195019301615027565b6150ad90876000526020600020601f850160051c81019160208610610e2c57601f0160051c019061421e565b38614fcc565b8360005282602060002091820191015b8181106150d05750614a5e565b806150dd6001925461385e565b806150ea575b50016150c3565b601f811183146151005750600081555b386150e3565b61511e908260005283601f6020600020920160051c8201910161421e565b80600052600060208120818355556150fa565b90601f1983169184600052816000209260005b8181106151805750908460019594939210615167575b505050811b019055614a3a565b015160001960f88460031b161c1916905538808061515a565b92936020600181928786015181550195019301615144565b6151c490846000526020600020601f850160051c81019160208610610e2c57601f0160051c019061421e565b38614a06565b90601f1983169184600052816000209260005b8181106152195750908460019594939210615200575b505050811b0190556149d9565b015160001960f88460031b161c191690553880806151f3565b929360206001819287860151815501950193016151dd565b61525d90846000526020600020601f850160051c81019160208610610e2c57601f0160051c019061421e565b386149a5565b601f1982169585600052806000209160005b8881106152b057508360019596979810615297575b505050811b018355614978565b015160001960f88460031b161c1916905538808061528a565b91926020600181928685015181550194019201615275565b6152f490856000526020600020601f840160051c81019160208510610e2c57601f0160051c019061421e565b3861494156fe5a970a8218c65de6a8aa64c073fc3786921cd891f15743b0606810ccad35b922a26469706673582212207973a3ee7485427ead93866b929443385e2fb9face293de5b7de5abeee2ad25c64736f6c634300081b0033",
  "linkReferences": {},
  "deployedLinkReferences": {}
}