{
  "_format": "hh-sol-artifact-1",
  "contractName": "ObatTradisional",
  "sourceName": "contracts/ObatTradisional.sol",
  "abi": [
    {
      "inputs": [
        {
          "internalType": "address",
          "name": "_roleManagerAddr",
          "type": "address"
        },
        {
          "internalType": "address",
          "name": "_mainSupplyChainAddr",
          "type": "address"
        }
      ],
      "stateMutability": "nonpayable",
      "type": "constructor"
    },
    {
      "anonymous": false,
      "inputs": [
        {
          "indexed": false,
          "internalType": "string",
          "name": "nieNumber",
          "type": "string"
        },
        {
          "indexed": false,
          "internalType": "string",
          "name": "namaProduk",
          "type": "string"
        }
      ],
      "name": "evt_nieApproved",
      "type": "event"
    },
    {
      "anonymous": false,
      "inputs": [
        {
          "indexed": false,
          "internalType": "string",
          "name": "obatId",
          "type": "string"
        },
        {
          "indexed": false,
          "internalType": "uint256",
          "name": "timestampRequested",
          "type": "uint256"
        },
        {
          "indexed": false,
          "internalType": "string",
          "name": "namaProduk",
          "type": "string"
        }
      ],
      "name": "evt_nieRequested",
      "type": "event"
    },
    {
      "anonymous": false,
      "inputs": [
        {
          "indexed": false,
          "internalType": "string",
          "name": "namaProduk",
          "type": "string"
        },
        {
          "indexed": false,
          "internalType": "string",
          "name": "factoryInstanceNames",
          "type": "string"
        },
        {
          "indexed": false,
          "internalType": "string",
          "name": "factoryUserNames",
          "type": "string"
        },
        {
          "indexed": false,
          "internalType": "address",
          "name": "factoryAddresses",
          "type": "address"
        },
        {
          "indexed": false,
          "internalType": "string",
          "name": "kemasan",
          "type": "string"
        },
        {
          "indexed": false,
          "internalType": "enum ObatTradisional.en_tipeProduk",
          "name": "en_tipeProduk",
          "type": "uint8"
        }
      ],
      "name": "evt_obatCreated",
      "type": "event"
    },
    {
      "anonymous": false,
      "inputs": [
        {
          "indexed": false,
          "internalType": "string",
          "name": "namaProduk",
          "type": "string"
        },
        {
          "indexed": false,
          "internalType": "uint8",
          "name": "quantity",
          "type": "uint8"
        },
        {
          "indexed": false,
          "internalType": "string",
          "name": "orderId",
          "type": "string"
        },
        {
          "indexed": false,
          "internalType": "string",
          "name": "instanceName",
          "type": "string"
        },
        {
          "indexed": false,
          "internalType": "address",
          "name": "instanceAddress",
          "type": "address"
        },
        {
          "indexed": false,
          "internalType": "uint256",
          "name": "latestTimestamp",
          "type": "uint256"
        }
      ],
      "name": "evt_obatOrdered",
      "type": "event"
    },
    {
      "anonymous": false,
      "inputs": [
        {
          "indexed": false,
          "internalType": "string",
          "name": "namaProduk",
          "type": "string"
        },
        {
          "indexed": false,
          "internalType": "uint8",
          "name": "quantity",
          "type": "uint8"
        },
        {
          "indexed": false,
          "internalType": "string",
          "name": "batchNamee",
          "type": "string"
        }
      ],
      "name": "evt_obatProduced",
      "type": "event"
    },
    {
      "inputs": [
        {
          "internalType": "string",
          "name": "_namaProduk",
          "type": "string"
        },
        {
          "internalType": "string",
          "name": "_batchName",
          "type": "string"
        },
        {
          "internalType": "string",
          "name": "_obatId",
          "type": "string"
        },
        {
          "internalType": "uint8",
          "name": "_obatQuantity",
          "type": "uint8"
        },
        {
          "internalType": "string",
          "name": "_factoryInstanceName",
          "type": "string"
        },
        {
          "internalType": "string[]",
          "name": "_obatIpfsHash",
          "type": "string[]"
        }
      ],
      "name": "addQuantityObat",
      "outputs": [],
      "stateMutability": "nonpayable",
      "type": "function"
    },
    {
      "inputs": [
        {
          "internalType": "uint256",
          "name": "",
          "type": "uint256"
        }
      ],
      "name": "allObatData",
      "outputs": [
        {
          "internalType": "string",
          "name": "obatId",
          "type": "string"
        },
        {
          "internalType": "string",
          "name": "merk",
          "type": "string"
        },
        {
          "internalType": "string",
          "name": "namaProduk",
          "type": "string"
        },
        {
          "internalType": "string",
          "name": "kemasan",
          "type": "string"
        },
        {
          "internalType": "enum ObatTradisional.en_tipeProduk",
          "name": "tipeProduk",
          "type": "uint8"
        },
        {
          "internalType": "enum ObatTradisional.en_nieStatus",
          "name": "obatStatus",
          "type": "uint8"
        },
        {
          "internalType": "uint256",
          "name": "nieRequestDate",
          "type": "uint256"
        },
        {
          "internalType": "uint256",
          "name": "nieApprovalDate",
          "type": "uint256"
        },
        {
          "internalType": "string",
          "name": "nieNumber",
          "type": "string"
        }
      ],
      "stateMutability": "view",
      "type": "function"
    },
    {
      "inputs": [
        {
          "internalType": "uint256",
          "name": "",
          "type": "uint256"
        }
      ],
      "name": "allOrderedObat",
      "outputs": [
        {
          "internalType": "string",
          "name": "orderId",
          "type": "string"
        },
        {
          "internalType": "string",
          "name": "namaProduk",
          "type": "string"
        },
        {
          "internalType": "string",
          "name": "obatIdProduk",
          "type": "string"
        },
        {
          "internalType": "uint8",
          "name": "orderQuantity",
          "type": "uint8"
        },
        {
          "internalType": "string",
          "name": "instanceName",
          "type": "string"
        },
        {
          "internalType": "address",
          "name": "instanceAddr",
          "type": "address"
        },
        {
          "internalType": "enum ObatTradisional.en_orderStatus",
          "name": "orderStatus",
          "type": "uint8"
        },
        {
          "internalType": "uint256",
          "name": "latestTimestamp",
          "type": "uint256"
        }
      ],
      "stateMutability": "view",
      "type": "function"
    },
    {
      "inputs": [
        {
          "internalType": "uint256",
          "name": "",
          "type": "uint256"
        }
      ],
      "name": "allProducedObat",
      "outputs": [
        {
          "internalType": "string",
          "name": "batchName",
          "type": "string"
        },
        {
          "internalType": "string",
          "name": "obatId",
          "type": "string"
        },
        {
          "internalType": "string",
          "name": "namaProduk",
          "type": "string"
        },
        {
          "internalType": "uint8",
          "name": "obatQuantity",
          "type": "uint8"
        },
        {
          "internalType": "string",
          "name": "factoryInstanceNames",
          "type": "string"
        }
      ],
      "stateMutability": "view",
      "type": "function"
    },
    {
      "inputs": [
        {
          "internalType": "string",
          "name": "_obatId",
          "type": "string"
        },
        {
          "internalType": "address",
          "name": "_bpomAddr",
          "type": "address"
        },
        {
          "internalType": "string",
          "name": "_bpomInstanceName",
          "type": "string"
        },
        {
          "internalType": "string",
          "name": "_bpomUserName",
          "type": "string"
        },
        {
          "internalType": "string",
          "name": "_nieNumber",
          "type": "string"
        }
      ],
      "name": "approveNie",
      "outputs": [],
      "stateMutability": "nonpayable",
      "type": "function"
    },
    {
      "inputs": [
        {
          "internalType": "string",
          "name": "",
          "type": "string"
        }
      ],
      "name": "bpomAddresses",
      "outputs": [
        {
          "internalType": "address",
          "name": "",
          "type": "address"
        }
      ],
      "stateMutability": "view",
      "type": "function"
    },
    {
      "inputs": [
        {
          "internalType": "string",
          "name": "",
          "type": "string"
        }
      ],
      "name": "bpomInstanceNames",
      "outputs": [
        {
          "internalType": "string",
          "name": "",
          "type": "string"
        }
      ],
      "stateMutability": "view",
      "type": "function"
    },
    {
      "inputs": [
        {
          "internalType": "string",
          "name": "",
          "type": "string"
        }
      ],
      "name": "bpomUserNames",
      "outputs": [
        {
          "internalType": "string",
          "name": "",
          "type": "string"
        }
      ],
      "stateMutability": "view",
      "type": "function"
    },
    {
      "inputs": [
        {
          "internalType": "string",
          "name": "_obatId",
          "type": "string"
        },
        {
          "internalType": "string",
          "name": "_merk",
          "type": "string"
        },
        {
          "internalType": "string",
          "name": "_namaProduk",
          "type": "string"
        },
        {
          "internalType": "string[]",
          "name": "_klaim",
          "type": "string[]"
        },
        {
          "internalType": "string",
          "name": "_kemasan",
          "type": "string"
        },
        {
          "internalType": "string[]",
          "name": "_komposisi",
          "type": "string[]"
        },
        {
          "internalType": "address",
          "name": "_factoryAddr",
          "type": "address"
        },
        {
          "internalType": "string",
          "name": "_factoryInstanceName",
          "type": "string"
        },
        {
          "internalType": "string",
          "name": "_factoryUserName",
          "type": "string"
        },
        {
          "internalType": "enum ObatTradisional.en_tipeProduk",
          "name": "_tipeProduk",
          "type": "uint8"
        }
      ],
      "name": "createObat",
      "outputs": [],
      "stateMutability": "nonpayable",
      "type": "function"
    },
    {
      "inputs": [
        {
          "internalType": "string",
          "name": "",
          "type": "string"
        }
      ],
      "name": "factoryAddresses",
      "outputs": [
        {
          "internalType": "address",
          "name": "",
          "type": "address"
        }
      ],
      "stateMutability": "view",
      "type": "function"
    },
    {
      "inputs": [
        {
          "internalType": "string",
          "name": "",
          "type": "string"
        }
      ],
      "name": "factoryInstanceNames",
      "outputs": [
        {
          "internalType": "string",
          "name": "",
          "type": "string"
        }
      ],
      "stateMutability": "view",
      "type": "function"
    },
    {
      "inputs": [
        {
          "internalType": "string",
          "name": "",
          "type": "string"
        }
      ],
      "name": "factoryUserNames",
      "outputs": [
        {
          "internalType": "string",
          "name": "",
          "type": "string"
        }
      ],
      "stateMutability": "view",
      "type": "function"
    },
    {
      "inputs": [],
      "name": "getAllProducedObat",
      "outputs": [
        {
          "components": [
            {
              "internalType": "string",
              "name": "batchName",
              "type": "string"
            },
            {
              "internalType": "string",
              "name": "obatId",
              "type": "string"
            },
            {
              "internalType": "string",
              "name": "namaProduk",
              "type": "string"
            },
            {
              "internalType": "uint8",
              "name": "obatQuantity",
              "type": "uint8"
            },
            {
              "internalType": "string",
              "name": "factoryInstanceNames",
              "type": "string"
            },
            {
              "internalType": "string[]",
              "name": "obatIpfsHash",
              "type": "string[]"
            }
          ],
          "internalType": "struct ObatTradisional.st_obatProduction[]",
          "name": "",
          "type": "tuple[]"
        }
      ],
      "stateMutability": "view",
      "type": "function"
    },
    {
      "inputs": [
        {
          "internalType": "string",
          "name": "_obatId",
          "type": "string"
        }
      ],
      "name": "getDetailProducedObatById",
      "outputs": [
        {
          "internalType": "uint8",
          "name": "obatQuantity",
          "type": "uint8"
        },
        {
          "internalType": "string[]",
          "name": "obatIpfsHash",
          "type": "string[]"
        }
      ],
      "stateMutability": "view",
      "type": "function"
    },
    {
      "inputs": [
        {
          "internalType": "string",
          "name": "_factoryInstanceName",
          "type": "string"
        }
      ],
      "name": "getJenisSediaanAvail",
      "outputs": [
        {
          "internalType": "uint8[]",
          "name": "",
          "type": "uint8[]"
        }
      ],
      "stateMutability": "view",
      "type": "function"
    },
    {
      "inputs": [],
      "name": "getListAllObatNie",
      "outputs": [
        {
          "internalType": "string[]",
          "name": "",
          "type": "string[]"
        },
        {
          "internalType": "string[]",
          "name": "",
          "type": "string[]"
        },
        {
          "internalType": "string[]",
          "name": "",
          "type": "string[]"
        },
        {
          "internalType": "uint256[]",
          "name": "",
          "type": "uint256[]"
        },
        {
          "internalType": "uint8[]",
          "name": "",
          "type": "uint8[]"
        }
      ],
      "stateMutability": "view",
      "type": "function"
    },
    {
      "inputs": [],
      "name": "getListAllProducedObat",
      "outputs": [
        {
          "internalType": "string[]",
          "name": "obatIdArray",
          "type": "string[]"
        },
        {
          "internalType": "string[]",
          "name": "namaProdukArray",
          "type": "string[]"
        },
        {
          "internalType": "uint8[]",
          "name": "obatQuantityArray",
          "type": "uint8[]"
        }
      ],
      "stateMutability": "view",
      "type": "function"
    },
    {
      "inputs": [
        {
          "internalType": "string",
          "name": "_factoryInstanceName",
          "type": "string"
        }
      ],
      "name": "getListAllProducedObatByFactory",
      "outputs": [
        {
          "internalType": "string[]",
          "name": "",
          "type": "string[]"
        },
        {
          "internalType": "string[]",
          "name": "",
          "type": "string[]"
        },
        {
          "internalType": "uint8[]",
          "name": "",
          "type": "uint8[]"
        }
      ],
      "stateMutability": "view",
      "type": "function"
    },
    {
      "inputs": [
        {
          "internalType": "string",
          "name": "_factoryInstanceName",
          "type": "string"
        }
      ],
      "name": "getListObatByFactory",
      "outputs": [
        {
          "internalType": "string[]",
          "name": "",
          "type": "string[]"
        },
        {
          "internalType": "string[]",
          "name": "",
          "type": "string[]"
        },
        {
          "internalType": "uint8[]",
          "name": "",
          "type": "uint8[]"
        },
        {
          "internalType": "uint8[]",
          "name": "",
          "type": "uint8[]"
        }
      ],
      "stateMutability": "view",
      "type": "function"
    },
    {
      "inputs": [
        {
          "internalType": "string",
          "name": "_obatId",
          "type": "string"
        }
      ],
      "name": "getListObatById",
      "outputs": [
        {
          "components": [
            {
              "internalType": "string",
              "name": "obatId",
              "type": "string"
            },
            {
              "internalType": "string",
              "name": "merk",
              "type": "string"
            },
            {
              "internalType": "string",
              "name": "namaProduk",
              "type": "string"
            },
            {
              "internalType": "string[]",
              "name": "klaim",
              "type": "string[]"
            },
            {
              "internalType": "string",
              "name": "kemasan",
              "type": "string"
            },
            {
              "internalType": "string[]",
              "name": "komposisi",
              "type": "string[]"
            },
            {
              "internalType": "enum ObatTradisional.en_tipeProduk",
              "name": "tipeProduk",
              "type": "uint8"
            },
            {
              "internalType": "enum ObatTradisional.en_nieStatus",
              "name": "obatStatus",
              "type": "uint8"
            },
            {
              "internalType": "uint256",
              "name": "nieRequestDate",
              "type": "uint256"
            },
            {
              "internalType": "uint256",
              "name": "nieApprovalDate",
              "type": "uint256"
            },
            {
              "internalType": "string",
              "name": "nieNumber",
              "type": "string"
            }
          ],
          "internalType": "struct ObatTradisional.st_obatDetails",
          "name": "obatDetails",
          "type": "tuple"
        },
        {
          "internalType": "address",
          "name": "factoryAddress",
          "type": "address"
        },
        {
          "internalType": "string",
          "name": "factoryInstanceName",
          "type": "string"
        },
        {
          "internalType": "string",
          "name": "factoryUserName",
          "type": "string"
        },
        {
          "internalType": "address",
          "name": "bpomAddress",
          "type": "address"
        },
        {
          "internalType": "string",
          "name": "bpomInstanceName",
          "type": "string"
        },
        {
          "internalType": "string",
          "name": "bpomUserName",
          "type": "string"
        }
      ],
      "stateMutability": "view",
      "type": "function"
    },
    {
      "inputs": [],
      "name": "mainSupplyChain",
      "outputs": [
        {
          "internalType": "contract MainSupplyChain",
          "name": "",
          "type": "address"
        }
      ],
      "stateMutability": "view",
      "type": "function"
    },
    {
      "inputs": [
        {
          "internalType": "string",
          "name": "",
          "type": "string"
        }
      ],
      "name": "obatDetailsById",
      "outputs": [
        {
          "internalType": "string",
          "name": "obatId",
          "type": "string"
        },
        {
          "internalType": "string",
          "name": "merk",
          "type": "string"
        },
        {
          "internalType": "string",
          "name": "namaProduk",
          "type": "string"
        },
        {
          "internalType": "string",
          "name": "kemasan",
          "type": "string"
        },
        {
          "internalType": "enum ObatTradisional.en_tipeProduk",
          "name": "tipeProduk",
          "type": "uint8"
        },
        {
          "internalType": "enum ObatTradisional.en_nieStatus",
          "name": "obatStatus",
          "type": "uint8"
        },
        {
          "internalType": "uint256",
          "name": "nieRequestDate",
          "type": "uint256"
        },
        {
          "internalType": "uint256",
          "name": "nieApprovalDate",
          "type": "uint256"
        },
        {
          "internalType": "string",
          "name": "nieNumber",
          "type": "string"
        }
      ],
      "stateMutability": "view",
      "type": "function"
    },
    {
      "inputs": [
        {
          "internalType": "string",
          "name": "",
          "type": "string"
        }
      ],
      "name": "obatProductionDetailsById",
      "outputs": [
        {
          "internalType": "string",
          "name": "batchName",
          "type": "string"
        },
        {
          "internalType": "string",
          "name": "obatId",
          "type": "string"
        },
        {
          "internalType": "string",
          "name": "namaProduk",
          "type": "string"
        },
        {
          "internalType": "uint8",
          "name": "obatQuantity",
          "type": "uint8"
        },
        {
          "internalType": "string",
          "name": "factoryInstanceNames",
          "type": "string"
        }
      ],
      "stateMutability": "view",
      "type": "function"
    },
    {
      "inputs": [
        {
          "internalType": "string",
          "name": "",
          "type": "string"
        }
      ],
      "name": "orderObatById",
      "outputs": [
        {
          "internalType": "string",
          "name": "orderId",
          "type": "string"
        },
        {
          "internalType": "string",
          "name": "namaProduk",
          "type": "string"
        },
        {
          "internalType": "string",
          "name": "obatIdProduk",
          "type": "string"
        },
        {
          "internalType": "uint8",
          "name": "orderQuantity",
          "type": "uint8"
        },
        {
          "internalType": "string",
          "name": "instanceName",
          "type": "string"
        },
        {
          "internalType": "address",
          "name": "instanceAddr",
          "type": "address"
        },
        {
          "internalType": "enum ObatTradisional.en_orderStatus",
          "name": "orderStatus",
          "type": "uint8"
        },
        {
          "internalType": "uint256",
          "name": "latestTimestamp",
          "type": "uint256"
        }
      ],
      "stateMutability": "view",
      "type": "function"
    },
    {
      "inputs": [
        {
          "internalType": "string",
          "name": "_obatIdProduk",
          "type": "string"
        },
        {
          "internalType": "string",
          "name": "_orderId",
          "type": "string"
        },
        {
          "internalType": "string",
          "name": "_namaProduk",
          "type": "string"
        },
        {
          "internalType": "uint8",
          "name": "_orderQuantity",
          "type": "uint8"
        },
        {
          "internalType": "address",
          "name": "_pbfAddr",
          "type": "address"
        },
        {
          "internalType": "string",
          "name": "_pbfInstanceName",
          "type": "string"
        }
      ],
      "name": "pbfOrder",
      "outputs": [],
      "stateMutability": "nonpayable",
      "type": "function"
    },
    {
      "inputs": [
        {
          "internalType": "string",
          "name": "_obatId",
          "type": "string"
        }
      ],
      "name": "requestNie",
      "outputs": [],
      "stateMutability": "nonpayable",
      "type": "function"
    },
    {
      "inputs": [
        {
          "internalType": "string",
          "name": "_obatIdProduk",
          "type": "string"
        },
        {
          "internalType": "string",
          "name": "_orderId",
          "type": "string"
        },
        {
          "internalType": "string",
          "name": "_namaProduk",
          "type": "string"
        },
        {
          "internalType": "uint8",
          "name": "_orderQuantity",
          "type": "uint8"
        },
        {
          "internalType": "address",
          "name": "_retailerAddr",
          "type": "address"
        },
        {
          "internalType": "string",
          "name": "_retailerInstanceName",
          "type": "string"
        },
        {
          "internalType": "string[]",
          "name": "_orderObatIpfsHash",
          "type": "string[]"
        }
      ],
      "name": "retailerOrder",
      "outputs": [],
      "stateMutability": "nonpayable",
      "type": "function"
    },
    {
      "inputs": [],
      "name": "roleManager",
      "outputs": [
        {
          "internalType": "contract RoleManager",
          "name": "",
          "type": "address"
        }
      ],
      "stateMutability": "view",
      "type": "function"
    },
    {
      "inputs": [
        {
          "internalType": "address",
          "name": "",
          "type": "address"
        }
      ],
      "name": "userRoles",
      "outputs": [
        {
          "internalType": "enum ObatTradisional.en_roles",
          "name": "",
          "type": "uint8"
        }
      ],
      "stateMutability": "view",
      "type": "function"
    }
  ],
  "bytecode": "0x608034608657601f615b6938819003918201601f19168301916001600160401b03831184841017608b578084926040948552833981010312608657604b602060458360a1565b920160a1565b600080546001600160a01b039384166001600160a01b03199182161790915560018054929093169116179055604051615ab490816100b58239f35b600080fd5b634e487b7160e01b600052604160045260246000fd5b51906001600160a01b038216820360865756fe608080604052600436101561001357600080fd5b60003560e01c908162435da51461381e5750806301d62d3b146137655780630a04f9c8146137095780631a95e6721461361d5780631c0b2030146135b55780631dce6e581461338757806325606bc314612f615780632732183714612f10578063349a7a7214612ebc5780634b87568a14612e5457806374d5e10014612df45780637aad01bd14612d255780637ade51dd1461262f5780637d08414f146125f657806386f5cea61461253457806392b385c9146123a35780639413fcfd1461237a578063998c1fcb146122c65780639d9315c214612272578063a812536d1461221e578063b7e6656814611fa4578063b896cb9a14611def578063bb43bdf714611bd7578063bc4a6f6c14611983578063d19487e4146111ee578063d44faa63146110b9578063d9d284dc14610490578063e06749ba146101e85763f10228621461015d57600080fd5b346101e35760203660031901126101e3576004356001600160401b0381116101e3576101c46101cb6101ae602061019b6101df953690600401613b0b565b8160405193828580945193849201613842565b810160078152030190206040519283809261398e565b0382613a64565b604051918291602083526020830190613865565b0390f35b600080fd5b346101e35760003660031901126101e357600080600254905b818110610452575061021282613d9e565b9061021c83613d9e565b61022584613d9e565b61022e85613cc1565b9161023c6040519384613a64565b85835261025d61024b87613cc1565b602085019790601f1901368937613de8565b936000805b8281106102eb575050506020916102986102a69261028b6040519860a08a5260a08a019061388a565b90888203868a015261388a565b90868203604088015261388a565b918483036060860152519182815201939060005b8181106102d55784806101df888783820360808501526138e3565b82518652602095860195909201916001016102ba565b60ff60066102f883613c0c565b50015460081c1661030881613a85565b610315575b600101610262565b906104376001916101c461033861032b86613c0c565b506040519283809261398e565b610342828c613f0f565b5261034d818b613f0f565b50600261036d61035c86613c0c565b506101c4604051809481930161398e565b6103778288613f0f565b526103828187613f0f565b506101c46103b86103a4602061039788613c0c565b506040519283809261430a565b60098152030190206040519283809261398e565b6103c28289613f0f565b526103cd8188613f0f565b5060086103d985613c0c565b50015460076103e786613c0c565b500154101561043f5760086103fb85613c0c565b5001545b610409828a613f0f565b5260ff600661041786613c0c565b50015460081c1661042781613a85565b610431828b613f0f565b52614378565b91905061030d565b600761044a85613c0c565b5001546103ff565b60ff600661045f83613c0c565b50015460081c1661046f81613a85565b61047c575b600101610201565b91610488600191614378565b929050610474565b346101e3576101403660031901126101e3576004356001600160401b0381116101e3576104c1903690600401613b0b565b6024356001600160401b0381116101e3576104e0903690600401613b0b565b6044356001600160401b0381116101e3576104ff903690600401613b0b565b906064356001600160401b0381116101e35761051f903690600401613cd8565b906084356001600160401b0381116101e35761053f903690600401613b0b565b9060a4356001600160401b0381116101e35761055f903690600401613cd8565b60c4356001600160a01b03811691908290036101e35760e4356001600160401b0381116101e357610594903690600401613b0b565b96610104356001600160401b0381116101e3576105b5903690600401613b0b565b91610124359660028810156101e357600080546040516395a8c58d60e01b81523360048201526024810192909252602090829060449082906001600160a01b03165afa80156110ad576106109160009161107e575b5061440c565b6040519561061d87613a11565b8387526020870152886040870152606086015285608086015260a08501526106488660c086016143e9565b600260e085015260006101008501526000610120850152604090815161066e8382613a64565b60098152682a22aa29a22329a22360b91b60208201526101408601528151946106b4818760208186516106a581848a019d8e613842565b8101600c8152030190206151ae565b600254600160401b811015610f03578060016106d39201600255613c0c565b919091611068576106e3916151ae565b815160208183516106f581838b613842565b81016008815203019020846bffffffffffffffffffffffff60a01b8254161790558151602081835161072881838b613842565b8101600981520301902089516001600160401b038111610f035761074c8254613954565b601f8111611036575b506020601f8211600114610fd057908061078592600091610fc5575b508160011b916000199060031b1c19161790565b90555b8151602081835161079a81838b613842565b8101600a81520301902083516001600160401b038111610f03576107be8254613954565b601f8111610f88575b506020601f8211600114610f245790806107f692600091610f1957508160011b916000199060031b1c19161790565b90555b8151946102006108098188613a64565b600f8752601f190160005b818110610ef257505082519161082983613a49565b83516108358582613a64565b601d8152602081017f424e2d32303234313132352d5054506861726d61496e646f2d5834354100000090528352806020840152898484015260608301600f90528a608084015260a0830187815260609785516108918a82613a64565b602e81527f516d5a706a516644654452505253724834573431334777443557626239554d4760208201526d1ab4b6b8b83338b9a839a0bc369960911b878201526108da82613e1a565b526108e490613e1a565b50805185516108f38a82613a64565b602e81527f516d585655454e637a666342617242745132776944744c6d5a5632506137386e60208201526d1935b6a3a238351cb2353298acb760911b8782015261093c82613e27565b5261094690613e27565b50805185516109558a82613a64565b602e81527f516d6436517662316f58616431777a5a75354a36587259646e477039466a337460208201526d145d59559cdcce589dd1d59214d560921b8782015261099e82613e37565b526109a890613e37565b50805185516109b78a82613a64565b602e81527f516d56553255784d724a657168726e5144504a6972617546735773364a37584c60208201526d446944514b69783848566445547360901b87820152610a0082613e47565b52610a0a90613e47565b5080518551610a198a82613a64565b602e81527f516d646d523450666e6e35674344355861617776727669586d45334a7369617860208201526d524633654e727a6859314342553760901b87820152610a6282613e57565b52610a6c90613e57565b5080518551610a7b8a82613a64565b602e81527f516d517254726667674b5437366e525a563872426a6361546f576648434d7a5760208201526d715934795752705733534436596760901b87820152610ac482613e67565b52610ace90613e67565b5080518551610add8a82613a64565b602e81527f516d515848585145505032506e4662513636685367325a4d4e643653537a664660208201526d25a1a52420a2b4b9acba9c19192b60911b87820152610b2682613e77565b52610b3090613e77565b5080518551610b3f8a82613a64565b602e81527f516d554543695837714869483868346b723275346836716169473866536a395a60208201526d135d18d091d9d15210d55e5b4c5360921b87820152610b8882613e87565b52610b9290613e87565b5080518551610ba18a82613a64565b602e81527f516d55775a727439624c6a6e684d4c43693443466361547659675a6157554a5260208201526d635a444b71733963336d7179487960901b87820152610bea82613e98565b52610bf490613e98565b5080518551610c038a82613a64565b602e81527f516d4e4e75775a415548366758386854636b366f6861344e6a4d68456337357860208201526d7679474371324c7046447459434760901b87820152610c4c82613ea9565b52610c5690613ea9565b5080518551610c658a82613a64565b602e81527f516d6162687874624b796531656f47504d6664617a5743356d544a734b41745560208201526d31a33129b43319ad31b6b1b6aba760911b87820152610cae82613eba565b52610cb890613eba565b5080518551610cc78a82613a64565b602e81527f516d6552686f6b686b47363142693378656d443967635a41484b386b3663753860208201526d79434e415445637255677334547960901b87820152610d1082613ecb565b52610d1a90613ecb565b5080518551610d298a82613a64565b602e81527f516d616d526b504e4d425874706e687558344573623852516d394e4e7077433360208201526d7a64414d5461725077577269536560901b87820152610d7282613edc565b52610d7c90613edc565b5080518551610d8b8a82613a64565b602e81527f516d566b377467705573635047563267694b7779354b414a79434e506e53445360208201526d35644d4b43336d534639357a4e6f60901b87820152610dd482613eed565b52610dde90613eed565b50518451610dec8982613a64565b602e81527f516d5464734a4e4437426450414b4a5a4438484a70703373544559374474675760208201526d379b3937aa3a35ba2538b439b91960911b86820152610e3582613efe565b52610e3f90613efe565b50610e4983615159565b835180928192518092610e5b92613842565b8101600d815203602001902090610e7191614b86565b805197889760c0895260c08901610e8791613865565b88810360208a0152610e9891613865565b9087820390880152610ea991613865565b918501528381036080850152610ebe91613865565b9060a08301610ecc91613b61565b037f634ef467423c7b2abbaf26097bdddac4a495d36be69ca3d1555484b46e7899c791a1005b806060602080938b01015201610814565b634e487b7160e01b600052604160045260246000fd5b90508601518d610771565b601f1982169083600052806000209160005b818110610f7057509083600194939210610f57575b5050811b0190556107f9565b87015160001960f88460031b161c191690558c80610f4b565b9192602060018192868c015181550194019201610f36565b610fb590836000526020600020601f840160051c81019160208510610fbb575b601f0160051c01906143f5565b8b6107c7565b9091508190610fa8565b90508c01518d610771565b60008381528181209190601f198416908e5b82821061101d5750509083600194939210611004575b5050811b019055610788565b8d015160001960f88460031b161c191690558c80610ff8565b600184956020939584930151815501940192018e610fe2565b61106290836000526020600020601f840160051c81019160208510610fbb57601f0160051c01906143f5565b8b610755565b634e487b7160e01b600052600060045260246000fd5b6110a0915060203d6020116110a6575b6110988183613a64565b810190613f23565b8c61060a565b503d61108e565b6040513d6000823e3d90fd5b346101e35760203660031901126101e3576004356001600160401b0381116101e35760006110ee61111b923690600401613b0b565b60018060a01b03600154166040518080958194629a308760e31b8352602060048401526024830190613865565b03915afa9081156110ad57600091611144575b604051602080825281906101df908201856138e3565b3d8083833e6111538183613a64565b8101906020818303126111e2578051906001600160401b0382116111ea57019080601f830112156111e25781519261118a84613cc1565b926111986040519485613a64565b84845260208085019560051b8201019283116111e657602001935b8285106111c8575050506101df91509061112e565b845160ff811681036111e2578152602094850194016111b3565b8280fd5b5080fd5b8380fd5b346101e35760c03660031901126101e3576004356001600160401b0381116101e35761121e903690600401613b0b565b6024356001600160401b0381116101e35761123d903690600401613b0b565b6044356001600160401b0381116101e35761125c903690600401613b0b565b90611265613cb1565b906084356001600160401b0381116101e357611285903690600401613b0b565b9260a4356001600160401b0381116101e3576112a5903690600401613cd8565b906044602060018060a01b0360005416604051928380926395a8c58d60e01b8252336004830152600060248301525afa80156110ad576112ec91600091611964575061440c565b60ff8251941693840361190d576040519460028251966020818186019961131481838d613842565b8101600d815203019020016040516113428161133460208201809561430a565b03601f198101835282613a64565b51902087604051611374602082816113638183019687815193849201613842565b81010301601f198101835282613a64565b5190200361187d57506003604051602081845161139281838c613842565b8101600d815203019020018460ff19825416179055600560405160208184516113bc81838c613842565b8101600d81520301902001908251600160401b8111610f035782548184558082106117ff575b50602084019081936000526020600020916000905b8282106116e7575050505060005b6003548110156116b257600161133461143461142084613c41565b50604051928391602083019586910161430a565b5190206113636040516114546020828c8282019586918a51928391613842565b5190201461146457600101611405565b600592939495965061148d9150600361147c82613c41565b5001805460ff191688179055613c41565b5001915190600160401b8211610f03578254828455808310611634575b50916000526020600020916000905b82821061151b575050505091611516611503927fabb6d08782df0e4c2ee63deacc72efc9c1a9422c00fc5d8075160d11eaa40b4a945b604051948594606086526060860190613865565b9160208501528382036040850152613865565b0390a1005b80518051906001600160401b038211610f03576115388654613954565b601f8111611602575b50602090601f8311600114611595579261157b8360019594602094879660009261158a575b50508160011b916000199060031b1c19161790565b87555b019401910190926114b9565b015190508d80611566565b90601f1983169187600052816000209260005b8181106115ea57509360209360019693879693838895106115d1575b505050811b01875561157e565b015160001960f88460031b161c191690558c80806115c4565b929360206001819287860151815501950193016115a8565b61162e90876000526020600020601f850160051c81019160208610610fbb57601f0160051c01906143f5565b89611541565b8360005282602060002091820191015b81811061165157506114aa565b8061165e60019254613954565b8061166b575b5001611644565b601f811183146116815750600081555b89611664565b61169f908260005283601f6020600020920160051c820191016143f5565b806000526000602081208183555561167b565b5050505061150392507fabb6d08782df0e4c2ee63deacc72efc9c1a9422c00fc5d8075160d11eaa40b4a9391611516916114ef565b80518051906001600160401b038211610f03576117048654613954565b601f81116117cd575b50602090601f83116001146117605792611746836001959460209487966000926117555750508160011b916000199060031b1c19161790565b87555b019401910190926113f7565b015190503880611566565b90601f1983169187600052816000209260005b8181106117b5575093602093600196938796938388951061179c575b505050811b018755611749565b015160001960f88460031b161c1916905538808061178f565b92936020600181928786015181550195019301611773565b6117f990876000526020600020601f850160051c81019160208610610fbb57601f0160051c01906143f5565b8d61170d565b8360005281602060002091820191015b81811061181c57506113e2565b8061182960019254613954565b80611836575b500161180f565b601f8111831461184c5750600081555b8b61182f565b61186a908260005283601f6020600020920160051c820191016143f5565b8060005260006020812081835555611846565b7fabb6d08782df0e4c2ee63deacc72efc9c1a9422c00fc5d8075160d11eaa40b4a969492611903611908926118f460206115039a61151699976040519687956118c587613a49565b8a875282858801528d60408801528b6060880152608087015260a0860152604051938492839251928391613842565b8101600d815203019020614b86565b615159565b6114ef565b60405162461bcd60e51b815260206004820152602960248201527f5175616e7469747920646f6573206e6f74206d6174636820746865206e756d626044820152686572206f662049447360b81b6064820152608490fd5b61197d915060203d6020116110a6576110988183613a64565b8861060a565b346101e35760203660031901126101e3576004356001600160401b0381116101e3576119b3903690600401613b0b565b600080546040516395a8c58d60e01b81523360048201526024810192909252602090829060449082906001600160a01b03165afa80156110ad576119fe91600091611bb8575061440c565b60405181519060208181850193611a16818387613842565b8101600c8152030190209160068301805460ff8160081c16611a3781613a85565b611b565742600786015561ff00191661010017905560005b600254811015611b2657611a6281613c0c565b50604051611a788161133460208201809561430a565b5190206040516020810190611a96602082875161136381878c613842565b51902014611aa657600101611a4f565b611b1192507f854681db4b5190ceaacfe5894893f2e8d49873d9b8ed6c72b5618047cb3924e5936006611aeb83611adf61151695613c0c565b50600742910155613c0c565b5001805461ff0019166101001790555b6002604051948594606086526060860190613865565b9142602086015284830360408601520161398e565b50611b1191506115167f854681db4b5190ceaacfe5894893f2e8d49873d9b8ed6c72b5618047cb3924e593611afb565b60405162461bcd60e51b815260206004820152603460248201527f4f62617420547261646973696f6e616c20737461747573206d75737420626520604482015273696e206c6f63616c2070726f64756374696f6e2160601b6064820152608490fd5b611bd1915060203d6020116110a6576110988183613a64565b8361060a565b346101e35760c03660031901126101e3576004356001600160401b0381116101e357611c07903690600401613b0b565b6024356001600160401b0381116101e357611c26903690600401613b0b565b6044356001600160401b0381116101e357611c45903690600401613b0b565b91611c4e613cb1565b90611c57613bf6565b9360a4356001600160401b0381116101e357611c77903690600401613b0b565b6000546040516395a8c58d60e01b81523360048201526001602482015291969190602090829060449082906001600160a01b03165afa9081156110ad57600091611dd0575b5015611d8b577f95b629c00caaa10e5c594b3f10670964fdfeff8de039e6e3ae5acc2aed2a3fdb95611d7d6115169460ff8716611cfc6032821015614457565b611d04613d56565b9060405192611d1284613a2d565b8a84528760208501526040840152606083015283608083015260018060a01b03851660a0830152600060c08301524260e0830152610100820152611d7881611d6960208b8160405193828580945193849201613842565b8101600e8152030190206144a3565b614ad8565b604051958695429487614b2f565b60405162461bcd60e51b815260206004820152601d60248201527f416363657373207265737472696374656420746f2050424620726f6c650000006044820152606490fd5b611de9915060203d6020116110a6576110988183613a64565b87611cbc565b346101e35760203660031901126101e3576004356001600160401b0381116101e357611e1f903690600401613b0b565b606090604051611e5a611e53600184519360208181880196611e4281838a613842565b8101600d8152030190200154613954565b151561439d565b60ff60036040516020818651611e71818389613842565b8101600d8152030190200154169160018060a01b03600054166040516395a8c58d60e01b815233600482015260016024820152602081604481855afa9081156110ad57600091611f85575b5015611eed575050509050611ecf613d56565b905b6101df604051928392835260406020840152604083019061388a565b6020604491604051928380926395a8c58d60e01b8252336004830152600060248301525afa9081156110ad57600091611f66575b50611f2e575b5050611ed1565b611f5e9293506020600592611f4e92604051938492839251928391613842565b8101600d81520301902001613f3b565b908280611f27565b611f7f915060203d6020116110a6576110988183613a64565b85611f21565b611f9e915060203d6020116110a6576110988183613a64565b86611ebc565b346101e35760e03660031901126101e3576004356001600160401b0381116101e357611fd4903690600401613b0b565b6024356001600160401b0381116101e357611ff3903690600401613b0b565b6044356001600160401b0381116101e357612012903690600401613b0b565b61201a613cb1565b90612023613bf6565b60a4356001600160401b0381116101e357612042903690600401613b0b565b60c4356001600160401b0381116101e357612061903690600401613cd8565b6000546040516395a8c58d60e01b81523360048201526003602482015291979190602090829060449082906001600160a01b03165afa9081156110ad576000916121ff575b50156121af5760ff8516966120be6032891015614457565b6002546060926020810160005b838110612111575b5050505061151694939291611d7d917f95b629c00caaa10e5c594b3f10670964fdfeff8de039e6e3ae5acc2aed2a3fdb9960405192611d1284613a2d565b61211a81613c0c565b506040516121308161133460208201809561430a565b519020604051602081019061214e602082885161136381878b613842565b5190201461215e576001016120cb565b61151698979695507f95b629c00caaa10e5c594b3f10670964fdfeff8de039e6e3ae5acc2aed2a3fdb9b9350611d7d9492506101c4915061032b6121a191613c0c565b93949596829a8294506120d3565b60405162461bcd60e51b815260206004820152602260248201527f416363657373207265737472696374656420746f2052657461696c657220726f6044820152616c6560f01b6064820152608490fd5b612218915060203d6020116110a6576110988183613a64565b886120a6565b346101e35760203660031901126101e3576004356001600160401b0381116101e3576101c46101cb61225c602061019b6101df953690600401613b0b565b810160098152030190206040519283809261398e565b346101e35760203660031901126101e3576004356001600160401b0381116101e3576101c46101cb6122b0602061019b6101df953690600401613b0b565b810160068152030190206040519283809261398e565b346101e35760203660031901126101e3576004356001600160401b0381116101e357602061019b6122fb923690600401613b0b565b8101600d815203019020604051612316816101c4818561398e565b6101df60046040519361233785612330816001850161398e565b0386613a64565b60405161234b816101c4816002860161398e565b61236e60ff60038401541692612367604051809681930161398e565b0384613a64565b60405195869586613c60565b346101e35760003660031901126101e3576001546040516001600160a01b039091168152602090f35b346101e35760203660031901126101e3576004356001600160401b0381116101e3576123d3903690600401613b0b565b600080546040516395a8c58d60e01b81523360048201526024810192909252602090829060449082906001600160a01b03165afa80156110ad5761241e91600091611bb8575061440c565b6003546000916020810190835b8381106124e05750505061243e82613d9e565b9061245161244b84613d9e565b93613de8565b906000805b828210612470575050506101df906040519384938461391a565b6124d86001918261248361035c86613c41565b61248d8289613f0f565b526124988188613f0f565b5060026124a761035c86613c41565b6124b1828a613f0f565b526124bc8189613f0f565b5060ff60036124ca86613c41565b500154166104318288613f0f565b910190612456565b60046113346124f161142084613c41565b519020604051602081019061250f602082875161136381878c613842565b51902014612520575b60010161242b565b9361252c600191614378565b949050612518565b346101e35760203660031901126101e3576004356001600160401b0381116101e357602061019b612569923690600401613b0b565b8101600e815203019020604051612584816101c4818561398e565b6101df6040519161259c83612367816001880161398e565b604051936125b185612330816002850161398e565b60ff600382015416916040516125ce816101c4816004870161398e565b600660058401549301549360405197889760ff8660a01c169560018060a01b03169489613a8f565b346101e35760203660031901126101e3576004356003548110156101e35761261d90613c41565b50604051612316816101c4818561398e565b346101e35760a03660031901126101e3576004356001600160401b0381116101e35761265f903690600401613b0b565b602435906001600160a01b03821682036101e3576044356001600160401b0381116101e357612692903690600401613b0b565b906064356001600160401b0381116101e3576126b2903690600401613b0b565b906084356001600160401b0381116101e3576126d2903690600401613b0b565b9160405193825194602081818601976126ec81838b613842565b8101600c81520301902095600687018054600160ff8260081c1661270f81613a85565b03612cca574260088a015561ff001916610200179055845160098801906001600160401b038111610f03576127448254613954565b601f8111612c98575b506020601f8211600114612c3257908061277c92600091612c2757508160011b916000199060031b1c19161790565b90555b604051602081865161279281838c613842565b810160058152030190209060018060a01b03166bffffffffffffffffffffffff60a01b82541617905560405160208185516127ce81838b613842565b81016006815203019020908051906001600160401b038211610f03576127f48354613954565b601f8111612bf5575b50602090601f8311600114612b8e5761282e929160009183612b835750508160011b916000199060031b1c19161790565b90555b604051602081845161284481838a613842565b81016007815203019020908051906001600160401b038211610f035761286a8354613954565b601f8111612b51575b50602090601f8311600114612aea576128a4929160009183612adf5750508160011b916000199060031b1c19161790565b90555b60005b600254811015612aae576128bd81613c0c565b506040516128d38161133460208201809561430a565b51902060405160208101906128f1602082875161136381878d613842565b51902014612901576001016128aa565b600992935061293a915061291481613c0c565b50600842910155600661292682613c0c565b5001805461ff001916610200179055613c0c565b5001918151926001600160401b038411610f03576129588154613954565b601f8111612a7c575b50602093601f81116001146129ee5791611516916129bb846129d496957f489f165b733603cb0a992d8cafd6c42a0c13d169039003f751758b9f0019f26c986000916129e357508160011b916000199060031b1c19161790565b90555b6002604051948594604086526040860190613865565b9184830360208601520161398e565b905086015189610771565b601f1981169482600052806000209560005b818110612a645750827f489f165b733603cb0a992d8cafd6c42a0c13d169039003f751758b9f0019f26c9761151695936129d498979560019410612a4b575b5050811b0190556129be565b87015160001960f88460031b161c191690558880612a3f565b86830151885560019097019660209283019201612a00565b612aa890826000526020600020601f870160051c81019160208810610fbb57601f0160051c01906143f5565b84612961565b50506129d491506115167f489f165b733603cb0a992d8cafd6c42a0c13d169039003f751758b9f0019f26c936129be565b015190508880611566565b90601f1983169184600052816000209260005b818110612b395750908460019594939210612b20575b505050811b0190556128a7565b015160001960f88460031b161c19169055878080612b13565b92936020600181928786015181550195019301612afd565b612b7d90846000526020600020601f850160051c81019160208610610fbb57601f0160051c01906143f5565b87612873565b015190508980611566565b90601f1983169184600052816000209260005b818110612bdd5750908460019594939210612bc4575b505050811b019055612831565b015160001960f88460031b161c19169055888080612bb7565b92936020600181928786015181550195019301612ba1565b612c2190846000526020600020601f850160051c81019160208610610fbb57601f0160051c01906143f5565b886127fd565b90508801518b610771565b601f1982169083600052806000209160005b8a828210612c805750509083600194939210612c67575b5050811b01905561277f565b89015160001960f88460031b161c191690558a80612c5b565b60018495602093958493015181550194019201612c44565b612cc490836000526020600020601f840160051c81019160208510610fbb57601f0160051c01906143f5565b8961274d565b60405162461bcd60e51b815260206004820152602d60248201527f4f62617420547261646973696f6e616c20737461747573206d7573742062652060448201526c5265717565737465644e49452160981b6064820152608490fd5b346101e35760203660031901126101e3576004356002548110156101e357612d4c90613c0c565b5060405190612d6682612d5f818461398e565b0383613a64565b6101df600960405192612d8784612d80816001850161398e565b0385613a64565b60405194612da386612d9c816002860161398e565b0387613a64565b60405190612db882612d5f816004870161398e565b600683015490600784015492612ddd600886015495612d9c604051809981930161398e565b60405198899860ff808660081c169516938a613b6e565b346101e35760203660031901126101e3576004356001600160a01b038116908190036101e357600052600b60205260ff604060002054166040516004821015612e3e576020918152f35b634e487b7160e01b600052602160045260246000fd5b346101e35760203660031901126101e3576004356001600160401b0381116101e357612e866020913690600401613b0b565b81612e9a6040519283815193849201613842565b600890820190815281900382019020546040516001600160a01b039091168152f35b346101e35760203660031901126101e3576004356001600160401b0381116101e3576101c46101cb612efa602061019b6101df953690600401613b0b565b8101600a8152030190206040519283809261398e565b346101e35760203660031901126101e3576004356001600160401b0381116101e357602061019b612f45923690600401613b0b565b8101600c81520301902060405190612d6682612d5f818461398e565b346101e35760203660031901126101e3576004356001600160401b0381116101e357612f94610140913690600401613b0b565b606082604051612fa381613a11565b82815282602082015282604082015282808201528260808201528260a0820152600060c0820152600060e08201526000610100820152600061012082015201526101df6132436133796040519361301b611e538251966020818186019961300b81838d613842565b8101600c81520301902054613954565b6132156133666131bb6133586040516020818061303c8d8a51928391613842565b8101600c81520301902098600961312c6040519b6130598d613a11565b60405161306a816101c4818561398e565b8d5260405160208e61308383612367816001880161398e565b01528c604080519161309c83612367816002880161398e565b01528c60606130ad60038401613f3b565b91015260405160808e6130c783612367816004880161398e565b01528c60a06130d860058401613f3b565b9101528c60e060ff60068401546130f482821660c086016143e9565b60081c169161310283613a85565b01528c61010060078301549101528c61012060088301549101526101c4604051809481930161398e565b8b8b015261233061324a61322d60206040518a5161314b818389613842565b81019060088252828160018060a01b03930301902054169461318f8b83604051809251613179818388613842565b810160098152030190206040519687809261398e565b6131c28b836040518092516131a5818388613842565b8101600a815203019020604051998a809261398e565b0389613a64565b6040518b516131d2818385613842565b81019060058252838160018060a01b03930301902054169a61321c604051848184516131ff818389613842565b810160068152030190206040519c8d809261398e565b038c613a64565b604051938492839251928391613842565b810160078152030190206040519a8b809261398e565b038a613a64565b613345604051809d819d60e083526132f06132d96132c26132ad61329661327f865161016060e08b01526102408a0190613865565b602087015189820360df19016101008b0152613865565b604086015188820360df19016101208a0152613865565b606085015187820360df19018789015261388a565b608084015186820360df1901610160880152613865565b60a083015185820360df190161018087015261388a565b9261330460c08301516101a0830190613b61565b60e082015161331281613a85565b6101c08201526101008201516101e08201526101208201516102009091015201518d820360df19016102208f0152613865565b9160208c01528a820360408c0152613865565b9088820360608a0152613865565b91608087015285820360a0870152613865565b9083820360c0850152613865565b346101e35760203660031901126101e3576004356001600160401b0381116101e3576133b7903690600401613b0b565b60025460208201916000805b83811061354557506133d481613d9e565b926133de82613d9e565b906133eb61244b84613de8565b93600096875b8381106134465761341c886101df896134388a61342a8b60405197889760808952608089019061388a565b90878203602089015261388a565b9085820360408701526138e3565b9083820360608501526138e3565b613454602061039783613c0c565b60098152030190206040516134718161133460208201809561430a565b519020604051602081019061348f602082885161136381878b613842565b519020146134a0575b6001016133f1565b976101c46134b061032b8b613c0c565b6134ba828a613f0f565b526134c58189613f0f565b5060026134d461035c8b613c0c565b6134de8287613f0f565b526134e98186613f0f565b5060ff60066134f78b613c0c565b50015460081c1661350781613a85565b6135118288613f0f565b5260ff600661351f8b613c0c565b500154166002811015612e3e578161353d916104316001948b613f0f565b989050613498565b613553602061039783613c0c565b60098152030190206040516135708161133460208201809561430a565b5190206040516020810190613590602082846113638c8b51928391613842565b519020146135a1575b6001016133c3565b906135ad600191614378565b919050613599565b346101e35760203660031901126101e3576004356001600160401b0381116101e3576135e76020913690600401613b0b565b816135fb6040519283815193849201613842565b600590820190815281900382019020546040516001600160a01b039091168152f35b346101e35760003660031901126101e357613636613f9b565b6040518091602082016020835281518091526040830190602060408260051b8601019301916000905b82821061366e57505050500390f35b919360019193955060206136f98192603f198a820301865288519060a06136e86136c96136b76136a7865160c0875260c0870190613865565b888701518682038a880152613865565b60408601518582036040870152613865565b60ff606086015116606085015260808501518482036080860152613865565b9201519060a081840391015261388a565b960192019201859493919261365f565b346101e35760203660031901126101e3576004356004548110156101e35760006004548210156137515780600460209252209060031b01604051612584816101c4818561398e565b634e487b7160e01b81526032600452602490fd5b346101e35760003660031901126101e35760035461378281613d9e565b61378b82613d9e565b9161379581613de8565b9060005b8181106137b25750506101df906040519384938461391a565b8060016137c261035c8294613c41565b6137cc8287613f0f565b526137d78186613f0f565b5060026137e661035c83613c41565b6137f08288613f0f565b526137fb8187613f0f565b5060ff600361380983613c41565b500154166138178286613f0f565b5201613799565b346101e35760003660031901126101e3576000546001600160a01b03168152602090f35b60005b8381106138555750506000910152565b8181015183820152602001613845565b9060209161387e81518092818552858086019101613842565b601f01601f1916010190565b9080602083519182815201916020808360051b8301019401926000915b8383106138b657505050505090565b90919293946020806138d4600193601f198682030187528951613865565b970193019301919392906138a7565b906020808351928381520192019060005b8181106139015750505090565b825160ff168452602093840193909201916001016138f4565b9161394390613935613951959360608652606086019061388a565b90848203602086015261388a565b9160408184039101526138e3565b90565b90600182811c92168015613984575b602083101461396e57565b634e487b7160e01b600052602260045260246000fd5b91607f1691613963565b6000929181549161399e83613954565b80835292600181169081156139f457506001146139ba57505050565b60009081526020812093945091925b8383106139da575060209250010190565b6001816020929493945483858701015201910191906139c9565b915050602093945060ff929192191683830152151560051b010190565b61016081019081106001600160401b03821117610f0357604052565b61012081019081106001600160401b03821117610f0357604052565b60c081019081106001600160401b03821117610f0357604052565b90601f801991011681019081106001600160401b03821117610f0357604052565b60031115612e3e57565b9490613ad5613ae994613ac760e0999c9b9a9795613ab960ff956101008c526101008c0190613865565b908a820360208c0152613865565b9088820360408a0152613865565b921660608601528482036080860152613865565b6001600160a01b0390961660a0830152613b0281613a85565b60c08201520152565b81601f820112156101e3578035906001600160401b038211610f035760405192613b3f601f8401601f191660200185613a64565b828452602083830101116101e357816000926020809301838601378301015290565b906002821015612e3e5752565b959293613bb76139519a9895613ba9613bd095613b9b613bc5969d9a9d6101208d526101208d0190613865565b908b820360208d0152613865565b9089820360408b0152613865565b908782036060890152613865565b966080860190613b61565b613bd981613a85565b60a084015260c083015260e0820152610100818403910152613865565b608435906001600160a01b03821682036101e357565b600254811015613c2b576002600052600a602060002091020190600090565b634e487b7160e01b600052603260045260246000fd5b600354811015613c2b5760036000526006602060002091020190600090565b916139519593613c8f613c9d92613c8160ff9560a0885260a0880190613865565b908682036020880152613865565b908482036040860152613865565b931660608201526080818403910152613865565b6064359060ff821682036101e357565b6001600160401b038111610f035760051b60200190565b9080601f830112156101e3578135613cef81613cc1565b92613cfd6040519485613a64565b81845260208085019260051b820101918383116101e35760208201905b838210613d2957505050505090565b81356001600160401b0381116101e357602091613d4b87848094880101613b0b565b815201910190613d1a565b60405190613d65602083613a64565b600080835282815b828110613d7957505050565b806060602080938501015201613d6d565b634e487b7160e01b81526041600452602490fd5b90613da882613cc1565b613db56040519182613a64565b8281528092613dc6601f1991613cc1565b019060005b828110613dd757505050565b806060602080938501015201613dcb565b90613df282613cc1565b613dff6040519182613a64565b8281528092613e10601f1991613cc1565b0190602036910137565b805115613c2b5760200190565b805160011015613c2b5760400190565b805160021015613c2b5760600190565b805160031015613c2b5760800190565b805160041015613c2b5760a00190565b805160051015613c2b5760c00190565b805160061015613c2b5760e00190565b805160071015613c2b576101000190565b805160081015613c2b576101200190565b805160091015613c2b576101400190565b8051600a1015613c2b576101600190565b8051600b1015613c2b576101800190565b8051600c1015613c2b576101a00190565b8051600d1015613c2b576101c00190565b8051600e1015613c2b576101e00190565b8051821015613c2b5760209160051b010190565b908160209103126101e3575180151581036101e35790565b908154613f4781613cc1565b92613f556040519485613a64565b818452602084019060005260206000206000915b838310613f765750505050565b600160208192604051613f8d816101c4818961398e565b815201920192019190613f69565b6000546040516395a8c58d60e01b8152336004820152600160248201526060916001600160a01b031690602081604481855afa9081156110ad576000916142eb575b5015614139575050600354613ff181613cc1565b90613fff6040519283613a64565b808252601f1961400e82613cc1565b0160005b8181106140f857505060005b81811061402a57505090565b80614036600192613c41565b5061404082613c41565b5061404a83613c41565b5060026140b560ff600361405d88613c41565b5001541692876140a061406e613d56565b966101c461408e6040519a6140828c613a49565b6040519283809261398e565b89526101c4604051809481930161398e565b60208701526101c4604051809481930161398e565b6040840152606083015260206140ce6040519182613a64565b60008152608083015260a08201526140e68286613f0f565b526140f18185613f0f565b500161401e565b60209060405161410781613a49565b60608152606083820152606060408201526000606082015260606080820152606060a082015282828701015201614012565b6020604491604051928380926395a8c58d60e01b8252336004830152600060248301525afa9081156110ad576000916142cc575b506141d657506040516000614183602083613a64565b81526000805b81811061419557505090565b6020906040516141a481613a49565b60608152606083820152606060408201526000606082015260606080820152606060a082015282828601015201614189565b6003546141e281613cc1565b916141f06040519384613a64565b818352602083019060036000527fc2575a0e9e593c00f959f8c92f12db2869c3395a3b0502d05e2516446f71f85b906000925b84841061423257505050505090565b6006602060019260405161424581613a49565b604051614256816101c4818b61398e565b815260405161426b816101c481898c0161398e565b83820152604051614283816101c48160028c0161398e565b604082015260ff600388015416868201526040516142a8816101c48160048c0161398e565b60808201526142b960058801613f3b565b60a0820152815201930193019291614223565b6142e5915060203d6020116110a6576110988183613a64565b3861416d565b614304915060203d6020116110a6576110988183613a64565b38613fdd565b6000929181549161431a83613954565b9260018116908115614365575060011461433357505050565b909192935060005260206000206000905b8382106143515750500190565b600181602092548486015201910190614344565b60ff191683525050811515909102019150565b60001981146143875760010190565b634e487b7160e01b600052601160045260246000fd5b156143a457565b60405162461bcd60e51b815260206004820152601b60248201527f4e6f206461746120666f756e64207769746820746869732049442e00000000006044820152606490fd5b6002821015612e3e5752565b818110614400575050565b600081556001016143f5565b1561441357565b606460405162461bcd60e51b815260206004820152602060248201527f416363657373207265737472696374656420746f2050616272696b20726f6c656044820152fd5b1561445e57565b60405162461bcd60e51b815260206004820152601960248201527f4d696e696d756d206f72646572206973203530206f6261742e000000000000006044820152606490fd5b919080519283516001600160401b038111610f03576144c28254613954565b601f8111614aa6575b50602094601f8211600114614a41576144ff9293949582916000926117555750508160011b916000199060031b1c19161790565b81555b6001810160208301518051906001600160401b038211610f03576145268354613954565b601f8111614a0f575b50602090601f83116001146149a8576145609291600091836117555750508160011b916000199060031b1c19161790565b90555b6002810160408301518051906001600160401b038211610f03576145878354613954565b601f8111614976575b50602090601f831160011461490f576145c19291600091836117555750508160011b916000199060031b1c19161790565b90555b60ff60608301511660ff60038301911660ff198254161790556004810160808301518051906001600160401b038211610f03576146018354613954565b601f81116148dd575b50602090601f831160011461486f5782610100959360079593614643936000926117555750508160011b916000199060031b1c19161790565b90555b60a08401516005820180546001600160a01b0319166001600160a01b039290921691909117815560c085015161467b81613a85565b61468481613a85565b81549060ff60a01b9060a01b169060ff60a01b191617905560e0840151600682015501910151805190600160401b8211610f035782548284558083106147f1575b50602001916000526020600020916000905b8282106146e45750505050565b80518051906001600160401b038211610f03576147018654613954565b601f81116147bf575b50602090601f83116001146147525792614743836001959460209487966000926117555750508160011b916000199060031b1c19161790565b87555b019401910190926146d7565b90601f1983169187600052816000209260005b8181106147a7575093602093600196938796938388951061478e575b505050811b018755614746565b015160001960f88460031b161c19169055388080614781565b92936020600181928786015181550195019301614765565b6147eb90876000526020600020601f850160051c81019160208610610fbb57601f0160051c01906143f5565b3861470a565b8360005282602060002091820191015b81811061480e57506146c5565b8061481b60019254613954565b80614828575b5001614801565b601f8111831461483e5750600081555b38614821565b61485c908260005283601f6020600020920160051c820191016143f5565b8060005260006020812081835555614838565b90601f1983169184600052816000209260005b8181106148c55750926001928592610100989660079896106148ac575b505050811b019055614646565b015160001960f88460031b161c1916905538808061489f565b92936020600181928786015181550195019301614882565b61490990846000526020600020601f850160051c81019160208610610fbb57601f0160051c01906143f5565b3861460a565b90601f1983169184600052816000209260005b81811061495e5750908460019594939210614945575b505050811b0190556145c4565b015160001960f88460031b161c19169055388080614938565b92936020600181928786015181550195019301614922565b6149a290846000526020600020601f850160051c81019160208610610fbb57601f0160051c01906143f5565b38614590565b90601f1983169184600052816000209260005b8181106149f757509084600195949392106149de575b505050811b019055614563565b015160001960f88460031b161c191690553880806149d1565b929360206001819287860151815501950193016149bb565b614a3b90846000526020600020601f850160051c81019160208610610fbb57601f0160051c01906143f5565b3861452f565b601f1982169583600052806000209160005b888110614a8e57508360019596979810614a75575b505050811b018155614502565b015160001960f88460031b161c19169055388080614a68565b91926020600181928685015181550194019201614a53565b614ad290836000526020600020601f840160051c81019160208510610fbb57601f0160051c01906143f5565b386144cb565b600454600160401b811015610f0357600181016004556000600454821015613751576004905260031b7f8a35acfbc15ff81a39ae7d344fd709f28e8600b4aa8c65c6b64bfe7fe36bd19b0190614b2d916144a3565b565b92614b7592614b679160ff614b5360a098959b9a999b60c0895260c0890190613865565b921660208701528582036040870152613865565b908382036060850152613865565b94600180841b031660808201520152565b919080519283516001600160401b038111610f0357614ba58254613954565b601f8111615127575b50602094601f82116001146150c257614be29293949582916000926117555750508160011b916000199060031b1c19161790565b81555b6001810160208301518051906001600160401b038211610f0357614c098354613954565b601f8111615090575b50602090601f831160011461502957614c439291600091836117555750508160011b916000199060031b1c19161790565b90555b6002810160408301518051906001600160401b038211610f0357614c6a8354613954565b601f8111614ff7575b50602090601f8311600114614f9057614ca49291600091836117555750508160011b916000199060031b1c19161790565b90555b60ff60608301511660ff60038301911660ff198254161790556004810160808301518051906001600160401b038211610f0357614ce48354613954565b601f8111614f5e575b50602090601f8311600114614ef1578260a0959360059593614d25936000926117555750508160011b916000199060031b1c19161790565b90555b01910151805190600160401b8211610f03578254828455808310614e73575b50602001916000526020600020916000905b828210614d665750505050565b80518051906001600160401b038211610f0357614d838654613954565b601f8111614e41575b50602090601f8311600114614dd45792614dc5836001959460209487966000926117555750508160011b916000199060031b1c19161790565b87555b01940191019092614d59565b90601f1983169187600052816000209260005b818110614e295750936020936001969387969383889510614e10575b505050811b018755614dc8565b015160001960f88460031b161c19169055388080614e03565b92936020600181928786015181550195019301614de7565b614e6d90876000526020600020601f850160051c81019160208610610fbb57601f0160051c01906143f5565b38614d8c565b8360005282602060002091820191015b818110614e905750614d47565b80614e9d60019254613954565b80614eaa575b5001614e83565b601f81118314614ec05750600081555b38614ea3565b614ede908260005283601f6020600020920160051c820191016143f5565b8060005260006020812081835555614eba565b90601f1983169184600052816000209260005b818110614f46575092600192859260a098966005989610614f2d575b505050811b019055614d28565b015160001960f88460031b161c19169055388080614f20565b92936020600181928786015181550195019301614f04565b614f8a90846000526020600020601f850160051c81019160208610610fbb57601f0160051c01906143f5565b38614ced565b90601f1983169184600052816000209260005b818110614fdf5750908460019594939210614fc6575b505050811b019055614ca7565b015160001960f88460031b161c19169055388080614fb9565b92936020600181928786015181550195019301614fa3565b61502390846000526020600020601f850160051c81019160208610610fbb57601f0160051c01906143f5565b38614c73565b90601f1983169184600052816000209260005b818110615078575090846001959493921061505f575b505050811b019055614c46565b015160001960f88460031b161c19169055388080615052565b9293602060018192878601518155019501930161503c565b6150bc90846000526020600020601f850160051c81019160208610610fbb57601f0160051c01906143f5565b38614c12565b601f1982169583600052806000209160005b88811061510f575083600195969798106150f6575b505050811b018155614be5565b015160001960f88460031b161c191690553880806150e9565b919260206001819286850151815501940192016150d4565b61515390836000526020600020601f840160051c81019160208510610fbb57601f0160051c01906143f5565b38614bae565b600354600160401b811015610f035760018101600355600060035482101561375157600390526006027fc2575a0e9e593c00f959f8c92f12db2869c3395a3b0502d05e2516446f71f85b0190614b2d91614b86565b909182519283516001600160401b038111610f03576151cd8454613954565b601f8111615a4c575b50602094601f82116001146159e75761520a9293949582916000926117555750508160011b916000199060031b1c19161790565b83555b6001830160208201518051906001600160401b038211610f03576152318354613954565b601f81116159b5575b50602090601f831160011461594e5761526b9291600091836117555750508160011b916000199060031b1c19161790565b90555b6002830160408201518051906001600160401b038211610f03576152928354613954565b601f811161591c575b50602090601f83116001146158b5576152cc9291600091836117555750508160011b916000199060031b1c19161790565b90555b600383016060820151805190600160401b8211610f03578254828455808310615837575b50602001916000526020600020916000905b82821061572a57505050506004830160808201518051906001600160401b038211610f03576153348354613954565b601f81116156f8575b50602090601f83116001146156915761536e9291600091836117555750508160011b916000199060031b1c19161790565b90555b6005830160a0820151805190600160401b8211610f03578254828455808310615613575b50602001916000526020600020916000905b828210615506575050505060c081015192600681016002851015612e3e576101409160099160009660ff8019835416911617815560e08501516153e981613a85565b6153f281613a85565b61ff0082549160081b169061ff0019161790556101008401516007820155610120840151600882015501910151928351906001600160401b038211613d8a5761543b8354613954565b601f81116154d6575b50602090601f83116001146154785790615474939495836117555750508160011b916000199060031b1c19161790565b9055565b90601f198316848352818320925b8181106154be575095836001959697106154a5575b505050811b019055565b015160001960f88460031b161c1916905538808061549b565b9192602060018192868b015181550194019201615486565b6155009084835260208320601f850160051c81019160208610610fbb57601f0160051c01906143f5565b38615444565b80518051906001600160401b038211610f03576155238654613954565b601f81116155e1575b50602090601f83116001146155745792615565836001959460209487966000926117555750508160011b916000199060031b1c19161790565b87555b019401910190926153a7565b90601f1983169187600052816000209260005b8181106155c957509360209360019693879693838895106155b0575b505050811b018755615568565b015160001960f88460031b161c191690553880806155a3565b92936020600181928786015181550195019301615587565b61560d90876000526020600020601f850160051c81019160208610610fbb57601f0160051c01906143f5565b3861552c565b8360005282602060002091820191015b8181106156305750615395565b8061563d60019254613954565b8061564a575b5001615623565b601f811183146156605750600081555b38615643565b61567e908260005283601f6020600020920160051c820191016143f5565b806000526000602081208183555561565a565b90601f1983169184600052816000209260005b8181106156e057509084600195949392106156c7575b505050811b019055615371565b015160001960f88460031b161c191690553880806156ba565b929360206001819287860151815501950193016156a4565b61572490846000526020600020601f850160051c81019160208610610fbb57601f0160051c01906143f5565b3861533d565b80518051906001600160401b038211610f03576157478654613954565b601f8111615805575b50602090601f83116001146157985792615789836001959460209487966000926117555750508160011b916000199060031b1c19161790565b87555b01940191019092615305565b90601f1983169187600052816000209260005b8181106157ed57509360209360019693879693838895106157d4575b505050811b01875561578c565b015160001960f88460031b161c191690553880806157c7565b929360206001819287860151815501950193016157ab565b61583190876000526020600020601f850160051c81019160208610610fbb57601f0160051c01906143f5565b38615750565b8360005282602060002091820191015b81811061585457506152f3565b8061586160019254613954565b8061586e575b5001615847565b601f811183146158845750600081555b38615867565b6158a2908260005283601f6020600020920160051c820191016143f5565b806000526000602081208183555561587e565b90601f1983169184600052816000209260005b81811061590457509084600195949392106158eb575b505050811b0190556152cf565b015160001960f88460031b161c191690553880806158de565b929360206001819287860151815501950193016158c8565b61594890846000526020600020601f850160051c81019160208610610fbb57601f0160051c01906143f5565b3861529b565b90601f1983169184600052816000209260005b81811061599d5750908460019594939210615984575b505050811b01905561526e565b015160001960f88460031b161c19169055388080615977565b92936020600181928786015181550195019301615961565b6159e190846000526020600020601f850160051c81019160208610610fbb57601f0160051c01906143f5565b3861523a565b601f1982169585600052806000209160005b888110615a3457508360019596979810615a1b575b505050811b01835561520d565b015160001960f88460031b161c19169055388080615a0e565b919260206001819286850151815501940192016159f9565b615a7890856000526020600020601f840160051c81019160208510610fbb57601f0160051c01906143f5565b386151d656fea2646970667358221220272618bd05fa3dd05a448704c4a7643e2f9c299a3dc1aab82211ea4e77117d5064736f6c634300081b0033",
  "linkReferences": {},
  "deployedLinkReferences": {}
}