{
  "_format": "hh-sol-artifact-1",
  "contractName": "ObatShared",
  "sourceName": "contracts/ObatShared.sol",
  "abi": [
    {
      "inputs": [
        {
          "internalType": "string",
          "name": "_obatId",
          "type": "string"
        },
        {
          "internalType": "string",
          "name": "_namaProduk",
          "type": "string"
        },
        {
          "internalType": "string",
          "name": "_batchName",
          "type": "string"
        },
        {
          "internalType": "uint8",
          "name": "_obatQuantity",
          "type": "uint8"
        },
        {
          "internalType": "string[]",
          "name": "_obatIpfs",
          "type": "string[]"
        },
        {
          "internalType": "string",
          "name": "_factoryInstance",
          "type": "string"
        }
      ],
      "name": "addBatchProduction",
      "outputs": [],
      "stateMutability": "nonpayable",
      "type": "function"
    },
    {
      "inputs": [
        {
          "internalType": "string",
          "name": "_obatId",
          "type": "string"
        },
        {
          "internalType": "string",
          "name": "_cdobHash",
          "type": "string"
        }
      ],
      "name": "addCdobId",
      "outputs": [],
      "stateMutability": "nonpayable",
      "type": "function"
    },
    {
      "inputs": [
        {
          "internalType": "string",
          "name": "_obatId",
          "type": "string"
        },
        {
          "internalType": "string",
          "name": "_orderId",
          "type": "string"
        },
        {
          "internalType": "string",
          "name": "_namaProduk",
          "type": "string"
        },
        {
          "internalType": "string",
          "name": "_batchName",
          "type": "string"
        },
        {
          "internalType": "uint8",
          "name": "_obatQuantity",
          "type": "uint8"
        },
        {
          "internalType": "string",
          "name": "_pbfInstance",
          "type": "string"
        }
      ],
      "name": "addObatPbf",
      "outputs": [],
      "stateMutability": "nonpayable",
      "type": "function"
    },
    {
      "inputs": [
        {
          "internalType": "string",
          "name": "_obatId",
          "type": "string"
        },
        {
          "internalType": "string",
          "name": "_orderId",
          "type": "string"
        },
        {
          "internalType": "string",
          "name": "_namaProduk",
          "type": "string"
        },
        {
          "internalType": "string",
          "name": "_batchName",
          "type": "string"
        },
        {
          "internalType": "uint8",
          "name": "_obatQuantity",
          "type": "uint8"
        },
        {
          "internalType": "string",
          "name": "_retailerInstance",
          "type": "string"
        }
      ],
      "name": "addObatRetailer",
      "outputs": [],
      "stateMutability": "nonpayable",
      "type": "function"
    },
    {
      "inputs": [
        {
          "internalType": "string",
          "name": "_pbfInstance",
          "type": "string"
        }
      ],
      "name": "getAllObatPbfByInstance",
      "outputs": [
        {
          "components": [
            {
              "internalType": "string",
              "name": "orderId",
              "type": "string"
            },
            {
              "internalType": "string",
              "name": "obatId",
              "type": "string"
            },
            {
              "internalType": "string",
              "name": "namaProduk",
              "type": "string"
            },
            {
              "internalType": "string",
              "name": "batchName",
              "type": "string"
            },
            {
              "internalType": "uint8",
              "name": "obatQuantity",
              "type": "uint8"
            },
            {
              "internalType": "enum EnumsLibrary.ObatAvailability",
              "name": "statusStok",
              "type": "uint8"
            },
            {
              "internalType": "string",
              "name": "ownerInstance",
              "type": "string"
            }
          ],
          "internalType": "struct ObatShared.st_obatOutputStock[]",
          "name": "",
          "type": "tuple[]"
        }
      ],
      "stateMutability": "view",
      "type": "function"
    },
    {
      "inputs": [],
      "name": "getAllObatPbfReadyStock",
      "outputs": [
        {
          "components": [
            {
              "internalType": "string",
              "name": "orderId",
              "type": "string"
            },
            {
              "internalType": "string",
              "name": "obatId",
              "type": "string"
            },
            {
              "internalType": "string",
              "name": "namaProduk",
              "type": "string"
            },
            {
              "internalType": "string",
              "name": "batchName",
              "type": "string"
            },
            {
              "internalType": "uint8",
              "name": "obatQuantity",
              "type": "uint8"
            },
            {
              "internalType": "enum EnumsLibrary.ObatAvailability",
              "name": "statusStok",
              "type": "uint8"
            },
            {
              "internalType": "string",
              "name": "ownerInstance",
              "type": "string"
            }
          ],
          "internalType": "struct ObatShared.st_obatOutputStock[]",
          "name": "",
          "type": "tuple[]"
        }
      ],
      "stateMutability": "view",
      "type": "function"
    },
    {
      "inputs": [
        {
          "internalType": "string",
          "name": "_retailerInstance",
          "type": "string"
        }
      ],
      "name": "getAllObatRetailerByInstance",
      "outputs": [
        {
          "components": [
            {
              "internalType": "string",
              "name": "orderId",
              "type": "string"
            },
            {
              "internalType": "string",
              "name": "obatId",
              "type": "string"
            },
            {
              "internalType": "string",
              "name": "namaProduk",
              "type": "string"
            },
            {
              "internalType": "string",
              "name": "batchName",
              "type": "string"
            },
            {
              "internalType": "uint8",
              "name": "obatQuantity",
              "type": "uint8"
            },
            {
              "internalType": "enum EnumsLibrary.ObatAvailability",
              "name": "statusStok",
              "type": "uint8"
            },
            {
              "internalType": "string",
              "name": "ownerInstance",
              "type": "string"
            }
          ],
          "internalType": "struct ObatShared.st_obatOutputStock[]",
          "name": "",
          "type": "tuple[]"
        }
      ],
      "stateMutability": "view",
      "type": "function"
    },
    {
      "inputs": [
        {
          "internalType": "string",
          "name": "_obatId",
          "type": "string"
        }
      ],
      "name": "getObatDetail",
      "outputs": [
        {
          "components": [
            {
              "internalType": "string",
              "name": "merk",
              "type": "string"
            },
            {
              "internalType": "string",
              "name": "namaProduk",
              "type": "string"
            },
            {
              "internalType": "string[]",
              "name": "klaim",
              "type": "string[]"
            },
            {
              "internalType": "string[]",
              "name": "komposisi",
              "type": "string[]"
            },
            {
              "internalType": "string",
              "name": "kemasan",
              "type": "string"
            },
            {
              "internalType": "string",
              "name": "factoryInstance",
              "type": "string"
            },
            {
              "internalType": "address",
              "name": "factoryAddr",
              "type": "address"
            },
            {
              "internalType": "enum EnumsLibrary.TipePermohonanCdob",
              "name": "tipeObat",
              "type": "uint8"
            },
            {
              "internalType": "string",
              "name": "cpotbHash",
              "type": "string"
            },
            {
              "internalType": "string",
              "name": "cdobHash",
              "type": "string"
            },
            {
              "internalType": "string",
              "name": "jenisObat",
              "type": "string"
            }
          ],
          "internalType": "struct ObatShared.st_obatDetails",
          "name": "",
          "type": "tuple"
        }
      ],
      "stateMutability": "view",
      "type": "function"
    },
    {
      "inputs": [
        {
          "internalType": "string",
          "name": "_batchName",
          "type": "string"
        }
      ],
      "name": "getObatIpfsByBatchName",
      "outputs": [
        {
          "internalType": "string[]",
          "name": "",
          "type": "string[]"
        }
      ],
      "stateMutability": "view",
      "type": "function"
    },
    {
      "inputs": [
        {
          "internalType": "string",
          "name": "_obatId",
          "type": "string"
        }
      ],
      "name": "getObatProduction",
      "outputs": [
        {
          "components": [
            {
              "internalType": "enum EnumsLibrary.ObatAvailability",
              "name": "statusStok",
              "type": "uint8"
            },
            {
              "internalType": "string",
              "name": "namaProduk",
              "type": "string"
            },
            {
              "internalType": "string",
              "name": "batchName",
              "type": "string"
            },
            {
              "internalType": "uint8",
              "name": "obatQuantity",
              "type": "uint8"
            },
            {
              "internalType": "string",
              "name": "factoryInstance",
              "type": "string"
            }
          ],
          "internalType": "struct ObatShared.st_obatProduction[]",
          "name": "",
          "type": "tuple[]"
        }
      ],
      "stateMutability": "view",
      "type": "function"
    },
    {
      "inputs": [
        {
          "internalType": "string",
          "name": "",
          "type": "string"
        }
      ],
      "name": "obatDetailsById",
      "outputs": [
        {
          "internalType": "string",
          "name": "merk",
          "type": "string"
        },
        {
          "internalType": "string",
          "name": "namaProduk",
          "type": "string"
        },
        {
          "internalType": "string",
          "name": "kemasan",
          "type": "string"
        },
        {
          "internalType": "string",
          "name": "factoryInstance",
          "type": "string"
        },
        {
          "internalType": "address",
          "name": "factoryAddr",
          "type": "address"
        },
        {
          "internalType": "enum EnumsLibrary.TipePermohonanCdob",
          "name": "tipeObat",
          "type": "uint8"
        },
        {
          "internalType": "string",
          "name": "cpotbHash",
          "type": "string"
        },
        {
          "internalType": "string",
          "name": "cdobHash",
          "type": "string"
        },
        {
          "internalType": "string",
          "name": "jenisObat",
          "type": "string"
        }
      ],
      "stateMutability": "view",
      "type": "function"
    },
    {
      "inputs": [
        {
          "internalType": "string",
          "name": "",
          "type": "string"
        },
        {
          "internalType": "uint256",
          "name": "",
          "type": "uint256"
        }
      ],
      "name": "obatIpfsbyBatchName",
      "outputs": [
        {
          "internalType": "string",
          "name": "",
          "type": "string"
        }
      ],
      "stateMutability": "view",
      "type": "function"
    },
    {
      "inputs": [
        {
          "internalType": "string",
          "name": "",
          "type": "string"
        }
      ],
      "name": "obatPbfBatchName",
      "outputs": [
        {
          "internalType": "enum EnumsLibrary.ObatAvailability",
          "name": "statusStok",
          "type": "uint8"
        },
        {
          "internalType": "string",
          "name": "obatId",
          "type": "string"
        },
        {
          "internalType": "string",
          "name": "orderId",
          "type": "string"
        },
        {
          "internalType": "string",
          "name": "namaProduk",
          "type": "string"
        },
        {
          "internalType": "string",
          "name": "batchName",
          "type": "string"
        },
        {
          "internalType": "uint8",
          "name": "obatQuantity",
          "type": "uint8"
        },
        {
          "internalType": "string",
          "name": "pbfInstance",
          "type": "string"
        }
      ],
      "stateMutability": "view",
      "type": "function"
    },
    {
      "inputs": [
        {
          "internalType": "string",
          "name": "",
          "type": "string"
        },
        {
          "internalType": "uint256",
          "name": "",
          "type": "uint256"
        }
      ],
      "name": "obatProductionById",
      "outputs": [
        {
          "internalType": "enum EnumsLibrary.ObatAvailability",
          "name": "statusStok",
          "type": "uint8"
        },
        {
          "internalType": "string",
          "name": "namaProduk",
          "type": "string"
        },
        {
          "internalType": "string",
          "name": "batchName",
          "type": "string"
        },
        {
          "internalType": "uint8",
          "name": "obatQuantity",
          "type": "uint8"
        },
        {
          "internalType": "string",
          "name": "factoryInstance",
          "type": "string"
        }
      ],
      "stateMutability": "view",
      "type": "function"
    },
    {
      "inputs": [
        {
          "internalType": "string",
          "name": "",
          "type": "string"
        }
      ],
      "name": "obatRetailerBatchName",
      "outputs": [
        {
          "internalType": "enum EnumsLibrary.ObatAvailability",
          "name": "statusStok",
          "type": "uint8"
        },
        {
          "internalType": "string",
          "name": "obatId",
          "type": "string"
        },
        {
          "internalType": "string",
          "name": "orderId",
          "type": "string"
        },
        {
          "internalType": "string",
          "name": "namaProduk",
          "type": "string"
        },
        {
          "internalType": "string",
          "name": "batchName",
          "type": "string"
        },
        {
          "internalType": "uint8",
          "name": "obatQuantity",
          "type": "uint8"
        },
        {
          "internalType": "string",
          "name": "retailerInstance",
          "type": "string"
        }
      ],
      "stateMutability": "view",
      "type": "function"
    },
    {
      "inputs": [
        {
          "internalType": "string",
          "name": "_obatId",
          "type": "string"
        },
        {
          "internalType": "string",
          "name": "_merk",
          "type": "string"
        },
        {
          "internalType": "string",
          "name": "_namaProduk",
          "type": "string"
        },
        {
          "internalType": "string[]",
          "name": "_klaim",
          "type": "string[]"
        },
        {
          "internalType": "string[]",
          "name": "_komposisi",
          "type": "string[]"
        },
        {
          "internalType": "string",
          "name": "_kemasan",
          "type": "string"
        },
        {
          "internalType": "string",
          "name": "_factoryInstance",
          "type": "string"
        },
        {
          "internalType": "address",
          "name": "_factoryAddr",
          "type": "address"
        },
        {
          "internalType": "enum EnumsLibrary.TipePermohonanCdob",
          "name": "_tipeObat",
          "type": "uint8"
        },
        {
          "internalType": "string",
          "name": "_cpotbHash",
          "type": "string"
        },
        {
          "internalType": "string",
          "name": "_jenisObat",
          "type": "string"
        }
      ],
      "name": "setObatDetail",
      "outputs": [],
      "stateMutability": "nonpayable",
      "type": "function"
    },
    {
      "inputs": [
        {
          "internalType": "string",
          "name": "_obatId",
          "type": "string"
        },
        {
          "internalType": "string",
          "name": "_batchName",
          "type": "string"
        },
        {
          "internalType": "enum EnumsLibrary.ObatAvailability",
          "name": "_newStatus",
          "type": "uint8"
        }
      ],
      "name": "updateBatchProduction",
      "outputs": [],
      "stateMutability": "nonpayable",
      "type": "function"
    },
    {
      "inputs": [
        {
          "internalType": "string",
          "name": "_batchName",
          "type": "string"
        },
        {
          "internalType": "string[]",
          "name": "_obatIpfs",
          "type": "string[]"
        }
      ],
      "name": "updateObatIpfs",
      "outputs": [],
      "stateMutability": "nonpayable",
      "type": "function"
    },
    {
      "inputs": [
        {
          "internalType": "string",
          "name": "_batchName",
          "type": "string"
        },
        {
          "internalType": "enum EnumsLibrary.ObatAvailability",
          "name": "_newStatus",
          "type": "uint8"
        }
      ],
      "name": "updateObatPbf",
      "outputs": [],
      "stateMutability": "nonpayable",
      "type": "function"
    }
  ],
  "bytecode": "0x6080806040523460155761216d908161001a8239f35b5f80fdfe60806040526004361015610011575f80fd5b5f3560e01c806327321837146115605780634bea11a0146114c45780635345584e1461141a57806361009862146113b0578063871811f1146112b05780638b8df23e14610f875780638d57ba0a14610dd3578063906ce01714610c825780639ad9e15314610c235780639d8ec71914610b7c578063ba2ffe4c14610abe578063c2cf83bc14610a5f578063c72c7314146109dc578063c74acb8b1461097a578063d33d8a13146108e1578063d65826721461063e578063e1336da5146104ea578063e521d586146102e25763f07b2c7a146100ea575f80fd5b346102de5760203660031901126102de576004356001600160401b0381116102de5761011a90369060040161171e565b5f906040516101486020828180820195805191829101875e81015f838201520301601f1981018352826116fd565b519020905f905f54915b82811061028a575061016390612038565b915f905f5b838110610181576040518061017d8782611a32565b0390f35b81600661019f602061019285611be0565b5060405192838092611f73565b6004815203019020016040516101cb816101bd602082018095611f73565b03601f1981018352826116fd565b519020146101dc575b600101610168565b916102826001916102016101f4602061019288611be0565b60048152030190206120b5565b6040810151906020810151906060810151608082015160ff60a0840151169160c084519461022e8661186f565b0151946040519661023e886116ab565b8752602087015260408601526060850152608084015261025d8161186f565b60a083015260c08201526102718289611f0a565b5261027c8188611f0a565b50612016565b9290506101d4565b83600661029b602061019285611be0565b6004815203019020016040516102b9816101bd602082018095611f73565b519020146102ca575b600101610152565b906102d6600191612016565b9190506102c2565b5f80fd5b346102de5760c03660031901126102de576004356001600160401b0381116102de5761031290369060040161171e565b6024356001600160401b0381116102de5761033190369060040161171e565b6044356001600160401b0381116102de5761035090369060040161171e565b6064359160ff83168093036102de576084356001600160401b0381116102de5761037e90369060040161195c565b9160a4356001600160401b0381116102de5761039e90369060040161171e565b91604051946103ac866116e2565b5f865260208601918252604086018381526060870191825260808701948552604051946103ef85519660208181890199808b835e81016006815203019020611df8565b5f5b875181101561042d576001906104276040516020818a51808d835e81016006815203019020610420838c611f0a565b5190611d31565b016103f1565b50876020808b604051928184925191829101835e810160038152030190208054600160401b8110156104d65761046891600182018155611bb3565b9490946104c3576104a660049461049c6104c19861049260ff965161048c8161186f565b8a611d5e565b5160018901611c39565b5160028701611c39565b511660ff60038501911660ff19825416179055519101611c39565b005b634e487b7160e01b5f525f60045260245ffd5b634e487b7160e01b5f52604160045260245ffd5b346102de5760203660031901126102de576004356001600160401b0381116102de5761051a90369060040161171e565b5f906040516105486020828180820195805191829101875e81015f838201520301601f1981018352826116fd565b51902060015490915f5b8281106105ea575061056390612038565b915f905f5b83811061057d576040518061017d8782611a32565b81600661058e602061019285611bf6565b6005815203019020016040516105ac816101bd602082018095611f73565b519020146105bd575b600101610568565b916105e26001916102016105d5602061019288611bf6565b60058152030190206120b5565b9290506105b5565b8360066105fb602061019285611bf6565b600581520301902001604051610619816101bd602082018095611f73565b5190201461062a575b600101610552565b90610636600191612016565b919050610622565b346102de5760203660031901126102de576004356001600160401b0381116102de5761066e90369060040161171e565b60405161067a816116c6565b60608152602081016060905260408101606090526060810160609052608081016060905260a081016060905260c081015f905260e081015f90526101008101606090526101208101606090526101400160609052805115156106db90611fdd565b604051818192516020819201835e810160028152036020019020604051610701816116c6565b61070a826117ab565b8152610718600183016117ab565b602082019081529161072c60028201611f1e565b604083019081529061074060038201611f1e565b60608401908152610753600483016117ab565b6080850190815290610767600584016117ab565b60a086810191825260068501546001600160a01b03811660c089019081529460e089019392909160ff911c1661079c8161186f565b83526107aa600787016117ab565b6101008901908152936107bf600888016117ab565b966101208a019788526009016107d4906117ab565b976101408a019889526040519a8b9a60208c525160208c0161016090526101808c016107ff9161184b565b90518b8203601f190160408d0152610817919061184b565b90518a8203601f190160608c015261082f91906119da565b9051898203601f190160808b015261084791906119da565b9051888203601f190160a08a015261085f919061184b565b9051878203601f190160c0890152610877919061184b565b92516001600160a01b031660e0870152516108918161186f565b61010086015251848203601f19016101208601526108af919061184b565b9051838203601f19016101408501526108c8919061184b565b9051828203601f190161016084015261017d919061184b565b346102de5760ff6108f13661188d565b93604096939192965195610904876116ab565b5f87526020870152604086015260608501528460808501521660a083015260c08201525f54600160401b8110156104d65780600161094592015f555f611c0e565b9290926104c35760208161095d82936104c196611c39565b604051928184925191829101835e81016004815203019020611d76565b346102de5760208061098b36611b82565b9290604051928184925191829101835e810160068152030190209081548110156102de576109b891611c0e565b6104c3576109c861017d916117ab565b60405191829160208352602083019061184b565b346102de5760403660031901126102de576004356001600160401b0381116102de57610a0c90369060040161171e565b602435906001600160401b0382116102de576008602080610a346104c195369060040161171e565b93610a4181511515611fdd565b604051928184925191829101835e8101600281520301902001611c39565b346102de5760403660031901126102de576004356001600160401b0381116102de57610a8f90369060040161171e565b60243560028110156102de5760405182516104c193602091839181908401835e81016004815203019020611d5e565b346102de57602080610acf36611b82565b9290604051928184925191829101835e810160038152030190209081548110156102de57610afc91611bb3565b5060ff81541661017d610b11600184016117ab565b92610b1e600282016117ab565b610b69610b35600460ff60038601541694016117ab565b91610b5b6040519787610b488a9961186f565b885260a0602089015260a088019061184b565b90868203604088015261184b565b916060850152838203608085015261184b565b346102de5760203660031901126102de576004356001600160401b0381116102de576020610baf8192369060040161171e565b604051928184925191829101835e8101600481520301902060ff81541661017d610bdb600184016117ab565b92610be8600282016117ab565b90610bf5600382016117ab565b610c01600483016117ab565b90610c16600660ff60058601541694016117ab565b9360405197889788611b10565b346102de5760203660031901126102de576004356001600160401b0381116102de576020610c568192369060040161171e565b604051928184925191829101835e8101600581520301902060ff81541661017d610bdb600184016117ab565b346102de575f3660031901126102de575f805490805b828110610d8e5750610ca990612038565b905f5f5b828110610cc2576040518061017d8682611a32565b60ff610cd2602061019284611be0565b60048152030190205416610ce58161186f565b15610cf3575b600101610cad565b90610d86600191610d0b6101f4602061019287611be0565b6040810151906020810151906060810151608082015160ff60a0840151169160c0845194610d388661186f565b01519460405196610d48886116ab565b87526020870152604086015260608501526080840152610d678161186f565b60a083015260c0820152610d7b8288611f0a565b5261027c8187611f0a565b919050610ceb565b60ff610d9e602061019284611be0565b60048152030190205416610db18161186f565b15610dbf575b600101610c98565b90610dcb600191612016565b919050610db7565b346102de5760203660031901126102de576004356001600160401b0381116102de576020610e068192369060040161171e565b610e1281511515611fdd565b604051928184925191829101835e81016003815203019020805490610e3682611945565b91610e4460405193846116fd565b8083526020830180925f5260205f205f915b838310610f1857848660405191829160208301906020845251809152604083019060408160051b85010192915f905b828210610e9457505050500390f35b91936001919395506020610f088192603f198a82030186528851908151610eba8161186f565b81526080610eea610ed88685015160a08886015260a085019061184b565b6040850151848203604086015261184b565b9260ff6060820151166060840152015190608081840391015261184b565b9601920192018594939192610e85565b60056020600192604051610f2b816116e2565b60ff865416610f398161186f565b8152610f468587016117ab565b83820152610f56600287016117ab565b604082015260ff6003870154166060820152610f74600487016117ab565b6080820152815201920192019190610e56565b346102de576101603660031901126102de576004356001600160401b0381116102de57610fb890369060040161171e565b6024356001600160401b0381116102de57610fd790369060040161171e565b6044356001600160401b0381116102de57610ff690369060040161171e565b6064356001600160401b0381116102de5761101590369060040161195c565b926084356001600160401b0381116102de5761103590369060040161195c565b9060a4356001600160401b0381116102de5761105590369060040161171e565b9060c4356001600160401b0381116102de5761107590369060040161171e565b60e4356001600160a01b03811693908490036102de57610104359260028410156102de57610124356001600160401b0381116102de576110b990369060040161171e565b95610144356001600160401b0381116102de576110da90369060040161171e565b99825115156110e890611fdd565b604051996110f58b6116c6565b8a5260208a0198895260408a0190815260608a0191825260808a0193845260a08a0194855260c08a0196875260e08a019561112f8161186f565b86526101008a01978852602098898080956040519c61114e908e6116fd565b5f8d528d61012081019d8e52610140019e8f52604051928184925191829101835e810160028152030190209a51611185908c611c39565b516111939060018c01611c39565b60028a01905190838251926111a88484611e79565b01905f52835f20845f925b84841061129257505050505060038901905191808351936111d48585611e79565b01915f52805f205f925b848410611276575050506104c18960098c61126e8c6112648d8d8d6112158e61120b8f5160048d01611c39565b5160058b01611c39565b905160068901805492519092916001600160a01b0316906112358161186f565b61123e8161186f565b6001600160a81b03199092161760a09190911b60ff60a01b161790555160078701611c39565b5160088501611c39565b519101611c39565b6001838261128683945186611c39565b019201930192906111de565b600191816112a284935186611c39565b0192019201919085906111b3565b346102de5760603660031901126102de576004356001600160401b0381116102de576112e090369060040161171e565b6024356001600160401b0381116102de576112ff90369060040161171e565b906044359060028210156102de5760208091604051928184925191829101835e81016003815203019020916040516113566020828180820195805191829101875e81015f838201520301601f1981018352826116fd565b519020915f5b81548110156104c1578360026101bd61138c6113788587611bb3565b506040519283916020830195869101611f73565b5190201461139c5760010161135c565b6104c193506113aa91611bb3565b50611d5e565b346102de5760203660031901126102de576004356001600160401b0381116102de576114066020806113e961017d94369060040161171e565b604051928184925191829101835e81016006815203019020611f1e565b6040519182916020835260208301906119da565b346102de5760403660031901126102de576004356001600160401b0381116102de5761144a90369060040161171e565b6024356001600160401b0381116102de5761146990369060040161195c565b6040519161148d815193602081818501968088835e81016006815203019020611df8565b5f5b82518110156104c1576001906114be6040516020818651808a835e810160068152030190206104208387611f0a565b0161148f565b346102de5760ff6114d43661188d565b936040969391929651956114e7876116ab565b5f87526020870152604086015260608501528460808501521660a083015260c0820152600154600160401b8110156104d65780600161152b92016001556001611c0e565b9290926104c35760208161154382936104c196611c39565b604051928184925191829101835e81016005815203019020611d76565b346102de5760203660031901126102de576004356001600160401b0381116102de5761159090369060040161171e565b604051818192516020819201835e8101600281520360200190206115b3816117ab565b6115bf600183016117ab565b916115cc600482016117ab565b906115d9600582016117ab565b60068201548060a01c60ff16600784016115f2906117ab565b926115ff600886016117ab565b9460090161160c906117ab565b956040519889986101208a526101208a016116269161184b565b89810360208b01526116379161184b565b88810360408a01526116489161184b565b87810360608901526116599161184b565b6001600160a01b0390921660808701526116728161186f565b60a086015284810360c08601526116889161184b565b83810360e08501526116999161184b565b82810361010084015261017d9161184b565b60e081019081106001600160401b038211176104d657604052565b61016081019081106001600160401b038211176104d657604052565b60a081019081106001600160401b038211176104d657604052565b90601f801991011681019081106001600160401b038211176104d657604052565b81601f820112156102de578035906001600160401b0382116104d65760405192611752601f8401601f1916602001856116fd565b828452602083830101116102de57815f926020809301838601378301015290565b90600182811c921680156117a1575b602083101461178d57565b634e487b7160e01b5f52602260045260245ffd5b91607f1691611782565b9060405191825f8254926117be84611773565b808452936001811690811561182957506001146117e5575b506117e3925003836116fd565b565b90505f9291925260205f20905f915b81831061180d5750509060206117e3928201015f6117d6565b60209193508060019154838589010152019101909184926117f4565b9050602092506117e394915060ff191682840152151560051b8201015f6117d6565b805180835260209291819084018484015e5f828201840152601f01601f1916010190565b6002111561187957565b634e487b7160e01b5f52602160045260245ffd5b9060c06003198301126102de576004356001600160401b0381116102de57826118b89160040161171e565b916024356001600160401b0381116102de57816118d79160040161171e565b916044356001600160401b0381116102de57826118f69160040161171e565b916064356001600160401b0381116102de57816119159160040161171e565b9160843560ff811681036102de579160a435906001600160401b0382116102de576119429160040161171e565b90565b6001600160401b0381116104d65760051b60200190565b9080601f830112156102de57813561197381611945565b9261198160405194856116fd565b81845260208085019260051b820101918383116102de5760208201905b8382106119ad57505050505090565b81356001600160401b0381116102de576020916119cf8784809488010161171e565b81520191019061199e565b9080602083519182815201916020808360051b8301019401925f915b838310611a0557505050505090565b9091929394602080611a23600193601f19868203018752895161184b565b970193019301919392906119f6565b602081016020825282518091526040820191602060408360051b8301019401925f915b838310611a6457505050505090565b9091929394602080611b01600193603f1986820301875289519060c0611ad0611abe611aac611a9c865160e0875260e087019061184b565b888701518682038a88015261184b565b6040860151858203604087015261184b565b6060850151848203606086015261184b565b9260ff608082015116608084015260a0810151611aec8161186f565b60a084015201519060c081840391015261184b565b97019301930191939290611a55565b93611b6090611b5260ff95611b44611b6e966119429c9a96611b318161186f565b8a5260e060208b015260e08a019061184b565b9088820360408a015261184b565b90868203606088015261184b565b90848203608086015261184b565b931660a082015260c081840391015261184b565b60406003198201126102de57600435906001600160401b0382116102de57611bac9160040161171e565b9060243590565b8054821015611bcc575f52600560205f20910201905f90565b634e487b7160e01b5f52603260045260245ffd5b5f54811015611bcc575f805260205f2001905f90565b600154811015611bcc5760015f5260205f2001905f90565b8054821015611bcc575f5260205f2001905f90565b818110611c2e575050565b5f8155600101611c23565b91909182516001600160401b0381116104d657611c568254611773565b601f8111611cf6575b506020601f8211600114611c9857819293945f92611c8d575b50508160011b915f199060031b1c1916179055565b015190505f80611c78565b601f19821690835f52805f20915f5b818110611cde57509583600195969710611cc6575b505050811b019055565b01515f1960f88460031b161c191690555f8080611cbc565b9192602060018192868b015181550194019201611ca7565b611d2190835f5260205f20601f840160051c81019160208510611d27575b601f0160051c0190611c23565b5f611c5f565b9091508190611d14565b8054600160401b8110156104d657611d4e91600182018155611c0e565b9190916104c3576117e391611c39565b90611d688161186f565b60ff80198354169116179055565b600660c06117e393611d928151611d8c8161186f565b85611d5e565b611da3602082015160018601611c39565b611db4604082015160028601611c39565b611dc5606082015160038601611c39565b611dd6608082015160048601611c39565b60ff60a08201511660ff60058601911660ff1982541617905501519101611c39565b8054905f815581611e07575050565b5f5260205f20908101905b818110611e1d575050565b80611e2a60019254611773565b80611e37575b5001611e12565b601f81118314611e4c57505f81555b5f611e30565b611e6890825f5283601f60205f20920160051c82019101611c23565b805f525f6020812081835555611e46565b90600160401b81116104d657815491818155828210611e9757505050565b5f5260205f2091820191015b818110611eae575050565b80611ebb60019254611773565b80611ec8575b5001611ea3565b601f81118314611edd57505f81555b5f611ec1565b611ef990825f5283601f60205f20920160051c82019101611c23565b805f525f6020812081835555611ed7565b8051821015611bcc5760209160051b010190565b908154611f2a81611945565b92611f3860405194856116fd565b81845260208401905f5260205f205f915b838310611f565750505050565b600160208192611f65856117ab565b815201920192019190611f49565b5f9291815491611f8283611773565b9260018116908115611fca5750600114611f9b57505050565b90919293505f5260205f205f905b838210611fb65750500190565b600181602092548486015201910190611fa9565b60ff191683525050811515909102019150565b15611fe457565b60405162461bcd60e51b815260206004820152600a602482015269125b9d985b1a5908125160b21b6044820152606490fd5b5f1981146120245760010190565b634e487b7160e01b5f52601160045260245ffd5b9061204282611945565b61204f60405191826116fd565b8281528092612060601f1991611945565b01905f5b82811061207057505050565b60209060405161207f816116ab565b60608152606083820152606060408201526060808201525f60808201525f60a0820152606060c082015282828501015201612064565b906040516120c2816116ab565b60c06121326006839560ff8154166120d98161186f565b85526120e7600182016117ab565b60208601526120f8600282016117ab565b6040860152612109600382016117ab565b606086015261211a600482016117ab565b608086015260ff60058201541660a0860152016117ab565b91015256fea2646970667358221220290050a68dd69efcccad83a2542f19535a439c62d02b5360150bb06ca4a29d9664736f6c634300081b0033",
  "linkReferences": {},
  "deployedLinkReferences": {}
}