{
  "_format": "hh-sol-artifact-1",
  "contractName": "ObatShared",
  "sourceName": "contracts/ObatShared.sol",
  "abi": [
    {
      "inputs": [
        {
          "internalType": "string",
          "name": "_obatId",
          "type": "string"
        },
        {
          "internalType": "string",
          "name": "_namaProduk",
          "type": "string"
        },
        {
          "internalType": "string",
          "name": "_batchName",
          "type": "string"
        },
        {
          "internalType": "uint8",
          "name": "_obatQuantity",
          "type": "uint8"
        },
        {
          "internalType": "string[]",
          "name": "_obatIpfs",
          "type": "string[]"
        },
        {
          "internalType": "string",
          "name": "_factoryInstance",
          "type": "string"
        }
      ],
      "name": "addBatchProduction",
      "outputs": [],
      "stateMutability": "nonpayable",
      "type": "function"
    },
    {
      "inputs": [
        {
          "internalType": "string",
          "name": "_obatId",
          "type": "string"
        },
        {
          "internalType": "string",
          "name": "_cdobHash",
          "type": "string"
        }
      ],
      "name": "addCdobId",
      "outputs": [],
      "stateMutability": "nonpayable",
      "type": "function"
    },
    {
      "inputs": [
        {
          "internalType": "string",
          "name": "_obatId",
          "type": "string"
        },
        {
          "internalType": "string",
          "name": "_orderId",
          "type": "string"
        },
        {
          "internalType": "string",
          "name": "_namaProduk",
          "type": "string"
        },
        {
          "internalType": "string",
          "name": "_batchName",
          "type": "string"
        },
        {
          "internalType": "uint8",
          "name": "_obatQuantity",
          "type": "uint8"
        },
        {
          "internalType": "string[]",
          "name": "_obatIpfs",
          "type": "string[]"
        },
        {
          "internalType": "string",
          "name": "_pbfInstance",
          "type": "string"
        }
      ],
      "name": "addObatPbf",
      "outputs": [],
      "stateMutability": "nonpayable",
      "type": "function"
    },
    {
      "inputs": [
        {
          "internalType": "string",
          "name": "_obatId",
          "type": "string"
        },
        {
          "internalType": "string",
          "name": "_orderId",
          "type": "string"
        },
        {
          "internalType": "string",
          "name": "_namaProduk",
          "type": "string"
        },
        {
          "internalType": "string",
          "name": "_batchName",
          "type": "string"
        },
        {
          "internalType": "uint8",
          "name": "_obatQuantity",
          "type": "uint8"
        },
        {
          "internalType": "string[]",
          "name": "_obatIpfs",
          "type": "string[]"
        },
        {
          "internalType": "string",
          "name": "_retailerInstance",
          "type": "string"
        }
      ],
      "name": "addObatRetailer",
      "outputs": [],
      "stateMutability": "nonpayable",
      "type": "function"
    },
    {
      "inputs": [
        {
          "internalType": "string",
          "name": "_pbfInstance",
          "type": "string"
        }
      ],
      "name": "getAllObatPbfByInstance",
      "outputs": [
        {
          "components": [
            {
              "internalType": "string",
              "name": "orderId",
              "type": "string"
            },
            {
              "internalType": "string",
              "name": "obatId",
              "type": "string"
            },
            {
              "internalType": "string",
              "name": "namaProduk",
              "type": "string"
            },
            {
              "internalType": "string",
              "name": "batchName",
              "type": "string"
            },
            {
              "internalType": "uint8",
              "name": "obatQuantity",
              "type": "uint8"
            },
            {
              "internalType": "enum EnumsLibrary.ObatAvailability",
              "name": "statusStok",
              "type": "uint8"
            },
            {
              "internalType": "string",
              "name": "ownerInstance",
              "type": "string"
            }
          ],
          "internalType": "struct ObatShared.st_obatOutputStock[]",
          "name": "",
          "type": "tuple[]"
        }
      ],
      "stateMutability": "view",
      "type": "function"
    },
    {
      "inputs": [],
      "name": "getAllObatPbfReadyStock",
      "outputs": [
        {
          "components": [
            {
              "internalType": "string",
              "name": "orderId",
              "type": "string"
            },
            {
              "internalType": "string",
              "name": "obatId",
              "type": "string"
            },
            {
              "internalType": "string",
              "name": "namaProduk",
              "type": "string"
            },
            {
              "internalType": "string",
              "name": "batchName",
              "type": "string"
            },
            {
              "internalType": "uint8",
              "name": "obatQuantity",
              "type": "uint8"
            },
            {
              "internalType": "enum EnumsLibrary.ObatAvailability",
              "name": "statusStok",
              "type": "uint8"
            },
            {
              "internalType": "string",
              "name": "ownerInstance",
              "type": "string"
            }
          ],
          "internalType": "struct ObatShared.st_obatOutputStock[]",
          "name": "",
          "type": "tuple[]"
        }
      ],
      "stateMutability": "view",
      "type": "function"
    },
    {
      "inputs": [
        {
          "internalType": "string",
          "name": "_retailerInstance",
          "type": "string"
        }
      ],
      "name": "getAllObatRetailerByInstance",
      "outputs": [
        {
          "components": [
            {
              "internalType": "string",
              "name": "orderId",
              "type": "string"
            },
            {
              "internalType": "string",
              "name": "obatId",
              "type": "string"
            },
            {
              "internalType": "string",
              "name": "namaProduk",
              "type": "string"
            },
            {
              "internalType": "string",
              "name": "batchName",
              "type": "string"
            },
            {
              "internalType": "uint8",
              "name": "obatQuantity",
              "type": "uint8"
            },
            {
              "internalType": "enum EnumsLibrary.ObatAvailability",
              "name": "statusStok",
              "type": "uint8"
            },
            {
              "internalType": "string",
              "name": "ownerInstance",
              "type": "string"
            }
          ],
          "internalType": "struct ObatShared.st_obatOutputStock[]",
          "name": "",
          "type": "tuple[]"
        }
      ],
      "stateMutability": "view",
      "type": "function"
    },
    {
      "inputs": [
        {
          "internalType": "string",
          "name": "_obatId",
          "type": "string"
        }
      ],
      "name": "getObatDetail",
      "outputs": [
        {
          "components": [
            {
              "internalType": "string",
              "name": "merk",
              "type": "string"
            },
            {
              "internalType": "string",
              "name": "namaProduk",
              "type": "string"
            },
            {
              "internalType": "string[]",
              "name": "klaim",
              "type": "string[]"
            },
            {
              "internalType": "string[]",
              "name": "komposisi",
              "type": "string[]"
            },
            {
              "internalType": "string",
              "name": "kemasan",
              "type": "string"
            },
            {
              "internalType": "enum EnumsLibrary.TipeProduk",
              "name": "tipeProduk",
              "type": "uint8"
            },
            {
              "internalType": "string",
              "name": "factoryInstance",
              "type": "string"
            },
            {
              "internalType": "address",
              "name": "factoryAddr",
              "type": "address"
            },
            {
              "internalType": "enum EnumsLibrary.TipePermohonanCdob",
              "name": "tipeObat",
              "type": "uint8"
            },
            {
              "internalType": "string",
              "name": "cpotbHash",
              "type": "string"
            },
            {
              "internalType": "string",
              "name": "cdobHash",
              "type": "string"
            }
          ],
          "internalType": "struct ObatShared.st_obatDetails",
          "name": "",
          "type": "tuple"
        }
      ],
      "stateMutability": "view",
      "type": "function"
    },
    {
      "inputs": [
        {
          "internalType": "string",
          "name": "_batchName",
          "type": "string"
        }
      ],
      "name": "getObatIpfsByBatchName",
      "outputs": [
        {
          "internalType": "string[]",
          "name": "",
          "type": "string[]"
        }
      ],
      "stateMutability": "view",
      "type": "function"
    },
    {
      "inputs": [
        {
          "internalType": "string",
          "name": "_obatId",
          "type": "string"
        }
      ],
      "name": "getObatProduction",
      "outputs": [
        {
          "components": [
            {
              "internalType": "enum EnumsLibrary.ObatAvailability",
              "name": "statusStok",
              "type": "uint8"
            },
            {
              "internalType": "string",
              "name": "namaProduk",
              "type": "string"
            },
            {
              "internalType": "string",
              "name": "batchName",
              "type": "string"
            },
            {
              "internalType": "uint8",
              "name": "obatQuantity",
              "type": "uint8"
            },
            {
              "internalType": "string",
              "name": "factoryInstance",
              "type": "string"
            }
          ],
          "internalType": "struct ObatShared.st_obatProduction[]",
          "name": "",
          "type": "tuple[]"
        }
      ],
      "stateMutability": "view",
      "type": "function"
    },
    {
      "inputs": [
        {
          "internalType": "string",
          "name": "",
          "type": "string"
        }
      ],
      "name": "obatDetailsById",
      "outputs": [
        {
          "internalType": "string",
          "name": "merk",
          "type": "string"
        },
        {
          "internalType": "string",
          "name": "namaProduk",
          "type": "string"
        },
        {
          "internalType": "string",
          "name": "kemasan",
          "type": "string"
        },
        {
          "internalType": "enum EnumsLibrary.TipeProduk",
          "name": "tipeProduk",
          "type": "uint8"
        },
        {
          "internalType": "string",
          "name": "factoryInstance",
          "type": "string"
        },
        {
          "internalType": "address",
          "name": "factoryAddr",
          "type": "address"
        },
        {
          "internalType": "enum EnumsLibrary.TipePermohonanCdob",
          "name": "tipeObat",
          "type": "uint8"
        },
        {
          "internalType": "string",
          "name": "cpotbHash",
          "type": "string"
        },
        {
          "internalType": "string",
          "name": "cdobHash",
          "type": "string"
        }
      ],
      "stateMutability": "view",
      "type": "function"
    },
    {
      "inputs": [
        {
          "internalType": "string",
          "name": "",
          "type": "string"
        },
        {
          "internalType": "uint256",
          "name": "",
          "type": "uint256"
        }
      ],
      "name": "obatIpfsbyBatchName",
      "outputs": [
        {
          "internalType": "string",
          "name": "",
          "type": "string"
        }
      ],
      "stateMutability": "view",
      "type": "function"
    },
    {
      "inputs": [
        {
          "internalType": "string",
          "name": "",
          "type": "string"
        }
      ],
      "name": "obatPbfBatchName",
      "outputs": [
        {
          "internalType": "enum EnumsLibrary.ObatAvailability",
          "name": "statusStok",
          "type": "uint8"
        },
        {
          "internalType": "string",
          "name": "obatId",
          "type": "string"
        },
        {
          "internalType": "string",
          "name": "orderId",
          "type": "string"
        },
        {
          "internalType": "string",
          "name": "namaProduk",
          "type": "string"
        },
        {
          "internalType": "string",
          "name": "batchName",
          "type": "string"
        },
        {
          "internalType": "uint8",
          "name": "obatQuantity",
          "type": "uint8"
        },
        {
          "internalType": "string",
          "name": "pbfInstance",
          "type": "string"
        }
      ],
      "stateMutability": "view",
      "type": "function"
    },
    {
      "inputs": [
        {
          "internalType": "string",
          "name": "",
          "type": "string"
        },
        {
          "internalType": "uint256",
          "name": "",
          "type": "uint256"
        }
      ],
      "name": "obatProductionById",
      "outputs": [
        {
          "internalType": "enum EnumsLibrary.ObatAvailability",
          "name": "statusStok",
          "type": "uint8"
        },
        {
          "internalType": "string",
          "name": "namaProduk",
          "type": "string"
        },
        {
          "internalType": "string",
          "name": "batchName",
          "type": "string"
        },
        {
          "internalType": "uint8",
          "name": "obatQuantity",
          "type": "uint8"
        },
        {
          "internalType": "string",
          "name": "factoryInstance",
          "type": "string"
        }
      ],
      "stateMutability": "view",
      "type": "function"
    },
    {
      "inputs": [
        {
          "internalType": "string",
          "name": "",
          "type": "string"
        }
      ],
      "name": "obatRetailerBatchName",
      "outputs": [
        {
          "internalType": "enum EnumsLibrary.ObatAvailability",
          "name": "statusStok",
          "type": "uint8"
        },
        {
          "internalType": "string",
          "name": "obatId",
          "type": "string"
        },
        {
          "internalType": "string",
          "name": "orderId",
          "type": "string"
        },
        {
          "internalType": "string",
          "name": "namaProduk",
          "type": "string"
        },
        {
          "internalType": "string",
          "name": "batchName",
          "type": "string"
        },
        {
          "internalType": "uint8",
          "name": "obatQuantity",
          "type": "uint8"
        },
        {
          "internalType": "string",
          "name": "retailerInstance",
          "type": "string"
        }
      ],
      "stateMutability": "view",
      "type": "function"
    },
    {
      "inputs": [
        {
          "internalType": "string",
          "name": "_obatId",
          "type": "string"
        },
        {
          "internalType": "string",
          "name": "_merk",
          "type": "string"
        },
        {
          "internalType": "string",
          "name": "_namaProduk",
          "type": "string"
        },
        {
          "internalType": "string[]",
          "name": "_klaim",
          "type": "string[]"
        },
        {
          "internalType": "string[]",
          "name": "_komposisi",
          "type": "string[]"
        },
        {
          "internalType": "string",
          "name": "_kemasan",
          "type": "string"
        },
        {
          "internalType": "enum EnumsLibrary.TipeProduk",
          "name": "_tipeProduk",
          "type": "uint8"
        },
        {
          "internalType": "string",
          "name": "_factoryInstance",
          "type": "string"
        },
        {
          "internalType": "address",
          "name": "_factoryAddr",
          "type": "address"
        },
        {
          "internalType": "enum EnumsLibrary.TipePermohonanCdob",
          "name": "_tipeObat",
          "type": "uint8"
        },
        {
          "internalType": "string",
          "name": "_cpotbHash",
          "type": "string"
        }
      ],
      "name": "setObatDetail",
      "outputs": [],
      "stateMutability": "nonpayable",
      "type": "function"
    },
    {
      "inputs": [
        {
          "internalType": "string",
          "name": "_obatId",
          "type": "string"
        },
        {
          "internalType": "string",
          "name": "_batchName",
          "type": "string"
        },
        {
          "internalType": "string[]",
          "name": "_obatIpfs",
          "type": "string[]"
        }
      ],
      "name": "updateBatchProduction",
      "outputs": [],
      "stateMutability": "nonpayable",
      "type": "function"
    },
    {
      "inputs": [
        {
          "internalType": "string",
          "name": "_batchName",
          "type": "string"
        },
        {
          "internalType": "string[]",
          "name": "_obatIpfs",
          "type": "string[]"
        }
      ],
      "name": "updateObatPbf",
      "outputs": [],
      "stateMutability": "nonpayable",
      "type": "function"
    }
  ],
  "bytecode": "0x608080604052346015576122ae908161001b8239f35b600080fdfe6080604052600436101561001257600080fd5b60003560e01c80627481d9146116aa57806301fabf1f146115d15780631b544bfc146114d3578063273218371461139e578063610098621461134057806372cad07814610ff05780638d57ba0a14610e44578063906ce01714610cef5780639ad9e15314610c9c5780639d8ec71914610c01578063ba2ffe4c14610b51578063c72c731414610ac7578063c74acb8b14610a5e578063d6582672146107b8578063e1336da51461066f578063e521d58614610461578063e9c14cb8146102e15763f07b2c7a146100e157600080fd5b346102dc5760203660031901126102dc576004356001600160401b0381116102dc576101119036906004016117db565b60009060405161014260208281610131818301968781519384920161199c565b81010301601f1981018352826117ba565b51902090600090600054915b828110610288575061015f90612176565b9160009060005b83811061017f576040518061017b8782611b32565b0390f35b81600661019d602061019085611ce6565b50604051928380926120e3565b6004815203019020016040516101c9816101bb6020820180956120e3565b03601f1981018352826117ba565b519020146101da575b600101610166565b916102806001916101ff6101f2602061019088611ce6565b60048152030190206121f6565b6040810151906020810151906060810151608082015160ff60a0840151169160c084519461022c86611ac2565b0151946040519661023c88611768565b8752602087015260408601526060850152608084015261025b81611ac2565b60a083015260c082015261026f8289611e83565b5261027a8188611e83565b50612151565b9290506101d2565b836006610299602061019085611ce6565b6004815203019020016040516102b7816101bb6020820180956120e3565b519020146102c8575b60010161014e565b906102d4600191612151565b9190506102c0565b600080fd5b346102dc5760603660031901126102dc576004356001600160401b0381116102dc576103119036906004016117db565b6024356001600160401b0381116102dc576103309036906004016117db565b6044356001600160401b0381116102dc576020610354610368923690600401611848565b93816040519382858094519384920161199c565b81016003815203019020906040519061039e8151926020818185019561038f81838961199c565b81016006815203019020611d62565b60005b84518110156103e4576001906103de60405160208186516103c381838b61199c565b810160068152030190206103d78389611e83565b5190611f97565b016103a1565b50610401602060405180936101318383019687925192839161199c565b51902060005b825481101561045f578160026101bb6104376104238588611cb4565b5060405192839160208301958691016120e3565b5190201461044757600101610407565b905061045291611cb4565b50805460ff191660011790555b005b346102dc5760c03660031901126102dc576004356001600160401b0381116102dc576104919036906004016117db565b6024356001600160401b0381116102dc576104b09036906004016117db565b6044356001600160401b0381116102dc576104cf9036906004016117db565b6064359160ff83168093036102dc576084356001600160401b0381116102dc576104fd903690600401611848565b9160a4356001600160401b0381116102dc5761051d9036906004016117db565b916040519461052b8661179f565b6000865260208601918252604086018381526060870191825260808701948552604051946105678551966020818189019961038f81838d61199c565b60005b87518110156105a8576001906105a26040516020818061058e8d8d5192839161199c565b810160068152030190206103d7838c611e83565b0161056a565b50876105c360208b816040519382858094519384920161199c565b810160038152030190208054600160401b811015610659576105ea91600182018155611cb4565b9490946106435761062860049461061e61045f9861061460ff965161060e81611ac2565b8a611d33565b5160018901611e97565b5160028701611e97565b511660ff60038501911660ff19825416179055519101611e97565b634e487b7160e01b600052600060045260246000fd5b634e487b7160e01b600052604160045260246000fd5b346102dc5760203660031901126102dc576004356001600160401b0381116102dc5761069f9036906004016117db565b6000906040516106bf60208281610131818301968781519384920161199c565b519020600154909160005b82811061076457506106db90612176565b9160009060005b8381106106f7576040518061017b8782611b32565b816006610708602061019085611d00565b600581520301902001604051610726816101bb6020820180956120e3565b51902014610737575b6001016106e2565b9161075c6001916101ff61074f602061019088611d00565b60058152030190206121f6565b92905061072f565b836006610775602061019085611d00565b600581520301902001604051610793816101bb6020820180956120e3565b519020146107a4575b6001016106ca565b906107b0600191612151565b91905061079c565b346102dc5760203660031901126102dc576004356001600160401b0381116102dc576107e89036906004016117db565b6040516107f481611783565b60608152602081016060905260408101606090526060810160609052608081016060905260a081016000905260c081016060905260e08101600090526101008101600090526101208101606090526101400160609052805115156108579061209e565b604051818180935160208193019161086e9261199c565b81016002815203602001902060405161088681611783565b61088f826119f9565b815261089d600183016119f9565b60208201908152916108b160028201612046565b60408301908152906108c560038201612046565b60608401908152906108d9600482016119f9565b60808501908152600582015460ff1660a08601906108f681611ac2565b8152610904600684016119f9565b60c0870190815260078401546001600160a01b03811660e0890190815295610100890194916109399060a01c60ff16866120d7565b610945600887016119f9565b956101208a0196875260090161095a906119f9565b976101408a019889526040519a8b9a60208c525160208c0161016090526101808c0161098591611a9d565b90518b8203601f190160408d015261099d9190611a9d565b90518a8203601f190160608c01526109b59190611ad9565b9051898203601f190160808b01526109cd9190611ad9565b9051888203601f190160a08a01526109e59190611a9d565b91516109f081611ac2565b60c088015251868203601f190160e0880152610a0c9190611a9d565b92516001600160a01b031661010086015251610a2d90610120860190611acc565b51838203601f1901610140850152610a459190611a9d565b9051828203601f190161016084015261017b9190611a9d565b346102dc576020610a86610a7136611c83565b9290816040519382858094519384920161199c565b810160068152030190209081548110156102dc57610aa391611d1b565b61064357610ab361017b916119f9565b604051918291602083526020830190611a9d565b346102dc5760403660031901126102dc576004356001600160401b0381116102dc57610af79036906004016117db565b602435906001600160401b0382116102dc576009610b416020610b2161045f9536906004016117db565b93610b2e8151151561209e565b816040519382858094519384920161199c565b8101600281520301902001611e97565b346102dc576020610b64610a7136611c83565b810160038152030190209081548110156102dc57610b8191611cb4565b5060ff81541661017b610b96600184016119f9565b92610ba3600282016119f9565b610bee610bba600460ff60038601541694016119f9565b91610be06040519787610bcd8a99611ac2565b885260a0602089015260a0880190611a9d565b908682036040880152611a9d565b9160608501528382036080850152611a9d565b346102dc5760203660031901126102dc576004356001600160401b0381116102dc576020610b2e610c369236906004016117db565b8101600481520301902060ff81541661017b610c54600184016119f9565b92610c61600282016119f9565b90610c6e600382016119f9565b610c7a600483016119f9565b90610c8f600660ff60058601541694016119f9565b9360405197889788611c11565b346102dc5760203660031901126102dc576004356001600160401b0381116102dc576020610b2e610cd19236906004016117db565b8101600581520301902060ff81541661017b610c54600184016119f9565b346102dc5760003660031901126102dc57600080600054915b828110610dff5750610d1990612176565b906000805b828110610d33576040518061017b8682611b32565b60ff610d43602061019084611ce6565b60048152030190205416610d5681611ac2565b15610d64575b600101610d1e565b90610df7600191610d7c6101f2602061019087611ce6565b6040810151906020810151906060810151608082015160ff60a0840151169160c0845194610da986611ac2565b01519460405196610db988611768565b87526020870152604086015260608501526080840152610dd881611ac2565b60a083015260c0820152610dec8288611e83565b5261027a8187611e83565b919050610d5c565b60ff610e0f602061019084611ce6565b60048152030190205416610e2281611ac2565b15610e30575b600101610d08565b90610e3c600191612151565b919050610e28565b346102dc5760203660031901126102dc576004356001600160401b0381116102dc576020610e79610e859236906004016117db565b610b2e8151151561209e565b81016003815203019020805490610e9b82611831565b91610ea960405193846117ba565b80835260208301809260005260206000206000915b838310610f8157848660405191829160208301906020845251809152604083019060408160051b85010192916000905b828210610efd57505050500390f35b91936001919395506020610f718192603f198a82030186528851908151610f2381611ac2565b81526080610f53610f418685015160a08886015260a0850190611a9d565b60408501518482036040860152611a9d565b9260ff60608201511660608401520151906080818403910152611a9d565b9601920192018594939192610eee565b60056020600192604051610f948161179f565b60ff865416610fa281611ac2565b8152610faf8587016119f9565b83820152610fbf600287016119f9565b604082015260ff6003870154166060820152610fdd600487016119f9565b6080820152815201920192019190610ebe565b346102dc576101603660031901126102dc576004356001600160401b0381116102dc576110219036906004016117db565b6024356001600160401b0381116102dc576110409036906004016117db565b6044356001600160401b0381116102dc5761105f9036906004016117db565b916064356001600160401b0381116102dc5761107f903690600401611848565b906084356001600160401b0381116102dc5761109f903690600401611848565b9360a4356001600160401b0381116102dc576110bf9036906004016117db565b60c43560028110156102dc5760e4356001600160401b0381116102dc576110ea9036906004016117db565b91610104359360018060a01b0385168095036102dc57610124359860038a10156102dc57610144356001600160401b0381116102dc5761112e9036906004016117db565b978751151561113c9061209e565b604051996111498b611783565b8a5260208a0192835260408a0190815260608a0191825260808a0193845260a08a019461117581611ac2565b855260c08a0195865260e08a019687526101008a019a611195908c6120d7565b6101208a0198895260209283806040519a6111b0828d6117ba565b8d60008d52610140019b8c5260405192838281935192839101916111d39261199c565b810160028152030190209a516111e9908c611e97565b516111f79060018c01611e97565b60028a019051908382519261120c8484611deb565b019060005283600020846000925b848410611322575050505050600389019051918083519361123b8585611deb565b0191600052806000206000925b8484106113065750505050509061126761129593925160048901611e97565b60058701905161127681611ac2565b61127f81611ac2565b60ff801983541691161790555160068601611e97565b5160078401805495516001600160a01b03909216939060038310156112f05761045f966009956112e89460ff60a01b9060a01b16916affffffffffffffffffffff60a81b16171790555160088501611e97565b519101611e97565b634e487b7160e01b600052602160045260246000fd5b6001838261131683945186611e97565b01920193019290611248565b6001918161133284935186611e97565b01920192019190859061121a565b346102dc5760203660031901126102dc576004356001600160401b0381116102dc5761138a61137b6020610b2e61017b9436906004016117db565b81016006815203019020612046565b604051918291602083526020830190611ad9565b346102dc5760203660031901126102dc576004356001600160401b0381116102dc576020610b2e6113d39236906004016117db565b8101600281520301902061146061017b6113ec836119f9565b6114c46113fb600186016119f9565b94611408600482016119f9565b906114b761149860ff600584015416611423600685016119f9565b61147c60078601549661146e611447600961144060088b016119f9565b99016119f9565b9a6040519e8f9e8f926101208452610120840190611a9d565b916020818403910152611a9d565b8c810360408e015290611a9d565b9161148681611ac2565b60608b015289820360808b0152611a9d565b9260018060a01b03811660a089015260ff60c089019160a01c16611acc565b85820360e0870152611a9d565b90838203610100850152611a9d565b346102dc5760ff6114e3366118c6565b939094604097939751966114f688611768565b600088526020880152604087015260608601528560808601521660a084015260c0830152604051926115368151946020818185019761038f81838b61199c565b60005b82518110156115755760019061156f604051602081865161155b81838d61199c565b810160068152030190206103d78387611e83565b01611539565b509050600154600160401b8110156106595780600161159992016001556001611d1b565b6106435761045f93826115b16115c294602094611e97565b60405193849283925192839161199c565b81016005815203019020611fc4565b346102dc5760ff6115e1366118c6565b939094604097939751966115f488611768565b600088526020880152604087015260608601528560808601521660a084015260c0830152604051926116348151946020818185019761038f81838b61199c565b60005b825181101561165f57600190611659604051602081865161155b81838d61199c565b01611637565b509050600054600160401b8110156106595780600161168392016000556000611d1b565b6106435761045f93826115b161169b94602094611e97565b81016004815203019020611fc4565b346102dc5760403660031901126102dc576004356001600160401b0381116102dc576116da9036906004016117db565b6024356001600160401b0381116102dc576116f9903690600401611848565b604051918051926020818184019561171281838961199c565b81016004815203019020600160ff1982541617905561173d604051602081845161038f81838a61199c565b60005b825181101561045f57600190611762604051602081865161155b81838c61199c565b01611740565b60e081019081106001600160401b0382111761065957604052565b61016081019081106001600160401b0382111761065957604052565b60a081019081106001600160401b0382111761065957604052565b90601f801991011681019081106001600160401b0382111761065957604052565b81601f820112156102dc578035906001600160401b038211610659576040519261180f601f8401601f1916602001856117ba565b828452602083830101116102dc57816000926020809301838601378301015290565b6001600160401b0381116106595760051b60200190565b9080601f830112156102dc57813561185f81611831565b9261186d60405194856117ba565b81845260208085019260051b820101918383116102dc5760208201905b83821061189957505050505090565b81356001600160401b0381116102dc576020916118bb878480948801016117db565b81520191019061188a565b60e06003198201126102dc576004356001600160401b0381116102dc57816118f0916004016117db565b916024356001600160401b0381116102dc578261190f916004016117db565b916044356001600160401b0381116102dc578161192e916004016117db565b916064356001600160401b0381116102dc578261194d916004016117db565b9160843560ff811681036102dc579160a4356001600160401b0381116102dc578261197a91600401611848565b9160c435906001600160401b0382116102dc57611999916004016117db565b90565b60005b8381106119af5750506000910152565b818101518382015260200161199f565b90600182811c921680156119ef575b60208310146119d957565b634e487b7160e01b600052602260045260246000fd5b91607f16916119ce565b9060405191826000825492611a0d846119bf565b8084529360018116908115611a7b5750600114611a34575b50611a32925003836117ba565b565b90506000929192526020600020906000915b818310611a5f575050906020611a329282010138611a25565b6020919350806001915483858901015201910190918492611a46565b905060209250611a3294915060ff191682840152151560051b82010138611a25565b90602091611ab68151809281855285808601910161199c565b601f01601f1916010190565b600211156112f057565b9060038210156112f05752565b9080602083519182815201916020808360051b8301019401926000915b838310611b0557505050505090565b9091929394602080611b23600193601f198682030187528951611a9d565b97019301930191939290611af6565b602081016020825282518091526040820191602060408360051b8301019401926000915b838310611b6557505050505090565b9091929394602080611c02600193603f1986820301875289519060c0611bd1611bbf611bad611b9d865160e0875260e0870190611a9d565b888701518682038a880152611a9d565b60408601518582036040870152611a9d565b60608501518482036060860152611a9d565b9260ff608082015116608084015260a0810151611bed81611ac2565b60a084015201519060c0818403910152611a9d565b97019301930191939290611b56565b93611c6190611c5360ff95611c45611c6f966119999c9a96611c3281611ac2565b8a5260e060208b015260e08a0190611a9d565b9088820360408a0152611a9d565b908682036060880152611a9d565b908482036080860152611a9d565b931660a082015260c0818403910152611a9d565b60406003198201126102dc57600435906001600160401b0382116102dc57611cad916004016117db565b9060243590565b8054821015611cd0576000526005602060002091020190600090565b634e487b7160e01b600052603260045260246000fd5b600054811015611cd0576000805260206000200190600090565b600154811015611cd057600160005260206000200190600090565b8054821015611cd05760005260206000200190600090565b90611d3d81611ac2565b60ff80198354169116179055565b818110611d56575050565b60008155600101611d4b565b8054906000815581611d72575050565b6000526020600020908101905b818110611d8a575050565b80611d97600192546119bf565b80611da4575b5001611d7f565b601f81118314611dba5750600081555b38611d9d565b611dd8908260005283601f6020600020920160051c82019101611d4b565b8060005260006020812081835555611db4565b90600160401b811161065957815491818155828210611e0957505050565b600052602060002091820191015b818110611e22575050565b80611e2f600192546119bf565b80611e3c575b5001611e17565b601f81118314611e525750600081555b38611e35565b611e70908260005283601f6020600020920160051c82019101611d4b565b8060005260006020812081835555611e4c565b8051821015611cd05760209160051b010190565b91909182516001600160401b03811161065957611eb482546119bf565b601f8111611f5a575b506020601f8211600114611ef85781929394600092611eed575b50508160011b916000199060031b1c1916179055565b015190503880611ed7565b601f1982169083600052806000209160005b818110611f4257509583600195969710611f29575b505050811b019055565b015160001960f88460031b161c19169055388080611f1f565b9192602060018192868b015181550194019201611f0a565b611f8790836000526020600020601f840160051c81019160208510611f8d575b601f0160051c0190611d4b565b38611ebd565b9091508190611f7a565b8054600160401b81101561065957611fb491600182018155611d1b565b91909161064357611a3291611e97565b600660c0611a3293611fe08151611fda81611ac2565b85611d33565b611ff1602082015160018601611e97565b612002604082015160028601611e97565b612013606082015160038601611e97565b612024608082015160048601611e97565b60ff60a08201511660ff60058601911660ff1982541617905501519101611e97565b90815461205281611831565b9261206060405194856117ba565b818452602084019060005260206000206000915b8383106120815750505050565b600160208192612090856119f9565b815201920192019190612074565b156120a557565b60405162461bcd60e51b815260206004820152600a602482015269125b9d985b1a5908125160b21b6044820152606490fd5b60038210156112f05752565b600092918154916120f3836119bf565b926001811690811561213e575060011461210c57505050565b909192935060005260206000206000905b83821061212a5750500190565b60018160209254848601520191019061211d565b60ff191683525050811515909102019150565b60001981146121605760010190565b634e487b7160e01b600052601160045260246000fd5b9061218082611831565b61218d60405191826117ba565b828152809261219e601f1991611831565b019060005b8281106121af57505050565b6020906040516121be81611768565b606081526060838201526060604082015260608082015260006080820152600060a0820152606060c0820152828285010152016121a3565b9060405161220381611768565b60c06122736006839560ff81541661221a81611ac2565b8552612228600182016119f9565b6020860152612239600282016119f9565b604086015261224a600382016119f9565b606086015261225b600482016119f9565b608086015260ff60058201541660a0860152016119f9565b91015256fea2646970667358221220db2b6ef7f819ac568a78d9e2a79f58b0df4ddf149bfa0a455e51c560adb2347064736f6c634300081b0033",
  "linkReferences": {},
  "deployedLinkReferences": {}
}