{
  "_format": "hh-sol-artifact-1",
  "contractName": "ObatShared",
  "sourceName": "contracts/ObatShared.sol",
  "abi": [
    {
      "inputs": [
        {
          "internalType": "string",
          "name": "_obatId",
          "type": "string"
        },
        {
          "internalType": "string",
          "name": "_namaProduk",
          "type": "string"
        },
        {
          "internalType": "string",
          "name": "_batchName",
          "type": "string"
        },
        {
          "internalType": "uint8",
          "name": "_obatQuantity",
          "type": "uint8"
        },
        {
          "internalType": "string[]",
          "name": "_obatIpfs",
          "type": "string[]"
        },
        {
          "internalType": "string",
          "name": "_factoryInstance",
          "type": "string"
        }
      ],
      "name": "addBatchProduction",
      "outputs": [],
      "stateMutability": "nonpayable",
      "type": "function"
    },
    {
      "inputs": [
        {
          "internalType": "string",
          "name": "_obatId",
          "type": "string"
        },
        {
          "internalType": "string",
          "name": "_orderId",
          "type": "string"
        },
        {
          "internalType": "string",
          "name": "_namaProduk",
          "type": "string"
        },
        {
          "internalType": "string",
          "name": "_batchName",
          "type": "string"
        },
        {
          "internalType": "uint8",
          "name": "_obatQuantity",
          "type": "uint8"
        },
        {
          "internalType": "string[]",
          "name": "_obatIpfs",
          "type": "string[]"
        },
        {
          "internalType": "string",
          "name": "_pbfInstance",
          "type": "string"
        }
      ],
      "name": "addObatPbf",
      "outputs": [],
      "stateMutability": "nonpayable",
      "type": "function"
    },
    {
      "inputs": [
        {
          "internalType": "string",
          "name": "_obatId",
          "type": "string"
        },
        {
          "internalType": "string",
          "name": "_orderId",
          "type": "string"
        },
        {
          "internalType": "string",
          "name": "_namaProduk",
          "type": "string"
        },
        {
          "internalType": "string",
          "name": "_batchName",
          "type": "string"
        },
        {
          "internalType": "uint8",
          "name": "_obatQuantity",
          "type": "uint8"
        },
        {
          "internalType": "string[]",
          "name": "_obatIpfs",
          "type": "string[]"
        },
        {
          "internalType": "string",
          "name": "_retailerInstance",
          "type": "string"
        }
      ],
      "name": "addObatRetailer",
      "outputs": [],
      "stateMutability": "nonpayable",
      "type": "function"
    },
    {
      "inputs": [
        {
          "internalType": "string",
          "name": "_pbfInstance",
          "type": "string"
        }
      ],
      "name": "getAllObatPbfByInstance",
      "outputs": [
        {
          "components": [
            {
              "internalType": "string",
              "name": "orderId",
              "type": "string"
            },
            {
              "internalType": "string",
              "name": "obatId",
              "type": "string"
            },
            {
              "internalType": "string",
              "name": "namaProduk",
              "type": "string"
            },
            {
              "internalType": "string",
              "name": "batchName",
              "type": "string"
            },
            {
              "internalType": "uint8",
              "name": "obatQuantity",
              "type": "uint8"
            },
            {
              "internalType": "enum EnumsLibrary.ObatAvailability",
              "name": "statusStok",
              "type": "uint8"
            },
            {
              "internalType": "string",
              "name": "ownerInstance",
              "type": "string"
            }
          ],
          "internalType": "struct ObatShared.st_obatOutputStock[]",
          "name": "",
          "type": "tuple[]"
        }
      ],
      "stateMutability": "view",
      "type": "function"
    },
    {
      "inputs": [],
      "name": "getAllObatPbfReadyStock",
      "outputs": [
        {
          "components": [
            {
              "internalType": "string",
              "name": "orderId",
              "type": "string"
            },
            {
              "internalType": "string",
              "name": "obatId",
              "type": "string"
            },
            {
              "internalType": "string",
              "name": "namaProduk",
              "type": "string"
            },
            {
              "internalType": "string",
              "name": "batchName",
              "type": "string"
            },
            {
              "internalType": "uint8",
              "name": "obatQuantity",
              "type": "uint8"
            },
            {
              "internalType": "enum EnumsLibrary.ObatAvailability",
              "name": "statusStok",
              "type": "uint8"
            },
            {
              "internalType": "string",
              "name": "ownerInstance",
              "type": "string"
            }
          ],
          "internalType": "struct ObatShared.st_obatOutputStock[]",
          "name": "",
          "type": "tuple[]"
        }
      ],
      "stateMutability": "view",
      "type": "function"
    },
    {
      "inputs": [
        {
          "internalType": "string",
          "name": "_retailerInstance",
          "type": "string"
        }
      ],
      "name": "getAllObatRetailerByInstance",
      "outputs": [
        {
          "components": [
            {
              "internalType": "string",
              "name": "orderId",
              "type": "string"
            },
            {
              "internalType": "string",
              "name": "obatId",
              "type": "string"
            },
            {
              "internalType": "string",
              "name": "namaProduk",
              "type": "string"
            },
            {
              "internalType": "string",
              "name": "batchName",
              "type": "string"
            },
            {
              "internalType": "uint8",
              "name": "obatQuantity",
              "type": "uint8"
            },
            {
              "internalType": "enum EnumsLibrary.ObatAvailability",
              "name": "statusStok",
              "type": "uint8"
            },
            {
              "internalType": "string",
              "name": "ownerInstance",
              "type": "string"
            }
          ],
          "internalType": "struct ObatShared.st_obatOutputStock[]",
          "name": "",
          "type": "tuple[]"
        }
      ],
      "stateMutability": "view",
      "type": "function"
    },
    {
      "inputs": [
        {
          "internalType": "string",
          "name": "_obatId",
          "type": "string"
        }
      ],
      "name": "getObatDetail",
      "outputs": [
        {
          "components": [
            {
              "internalType": "string",
              "name": "merk",
              "type": "string"
            },
            {
              "internalType": "string",
              "name": "namaProduk",
              "type": "string"
            },
            {
              "internalType": "string[]",
              "name": "klaim",
              "type": "string[]"
            },
            {
              "internalType": "string[]",
              "name": "komposisi",
              "type": "string[]"
            },
            {
              "internalType": "string",
              "name": "kemasan",
              "type": "string"
            },
            {
              "internalType": "enum EnumsLibrary.TipeProduk",
              "name": "tipeProduk",
              "type": "uint8"
            },
            {
              "internalType": "string",
              "name": "factoryInstance",
              "type": "string"
            },
            {
              "internalType": "address",
              "name": "factoryAddr",
              "type": "address"
            }
          ],
          "internalType": "struct ObatShared.st_obatDetails",
          "name": "",
          "type": "tuple"
        }
      ],
      "stateMutability": "view",
      "type": "function"
    },
    {
      "inputs": [
        {
          "internalType": "string",
          "name": "_batchName",
          "type": "string"
        }
      ],
      "name": "getObatIpfsByBatchName",
      "outputs": [
        {
          "internalType": "string[]",
          "name": "",
          "type": "string[]"
        }
      ],
      "stateMutability": "view",
      "type": "function"
    },
    {
      "inputs": [
        {
          "internalType": "string",
          "name": "_obatId",
          "type": "string"
        }
      ],
      "name": "getObatProduction",
      "outputs": [
        {
          "components": [
            {
              "internalType": "enum EnumsLibrary.ObatAvailability",
              "name": "statusStok",
              "type": "uint8"
            },
            {
              "internalType": "string",
              "name": "namaProduk",
              "type": "string"
            },
            {
              "internalType": "string",
              "name": "batchName",
              "type": "string"
            },
            {
              "internalType": "uint8",
              "name": "obatQuantity",
              "type": "uint8"
            },
            {
              "internalType": "string",
              "name": "factoryInstance",
              "type": "string"
            }
          ],
          "internalType": "struct ObatShared.st_obatProduction[]",
          "name": "",
          "type": "tuple[]"
        }
      ],
      "stateMutability": "view",
      "type": "function"
    },
    {
      "inputs": [
        {
          "internalType": "string",
          "name": "",
          "type": "string"
        }
      ],
      "name": "obatDetailsById",
      "outputs": [
        {
          "internalType": "string",
          "name": "merk",
          "type": "string"
        },
        {
          "internalType": "string",
          "name": "namaProduk",
          "type": "string"
        },
        {
          "internalType": "string",
          "name": "kemasan",
          "type": "string"
        },
        {
          "internalType": "enum EnumsLibrary.TipeProduk",
          "name": "tipeProduk",
          "type": "uint8"
        },
        {
          "internalType": "string",
          "name": "factoryInstance",
          "type": "string"
        },
        {
          "internalType": "address",
          "name": "factoryAddr",
          "type": "address"
        }
      ],
      "stateMutability": "view",
      "type": "function"
    },
    {
      "inputs": [
        {
          "internalType": "string",
          "name": "",
          "type": "string"
        },
        {
          "internalType": "uint256",
          "name": "",
          "type": "uint256"
        }
      ],
      "name": "obatIpfsbyBatchName",
      "outputs": [
        {
          "internalType": "string",
          "name": "",
          "type": "string"
        }
      ],
      "stateMutability": "view",
      "type": "function"
    },
    {
      "inputs": [
        {
          "internalType": "string",
          "name": "",
          "type": "string"
        }
      ],
      "name": "obatPbfBatchName",
      "outputs": [
        {
          "internalType": "enum EnumsLibrary.ObatAvailability",
          "name": "statusStok",
          "type": "uint8"
        },
        {
          "internalType": "string",
          "name": "obatId",
          "type": "string"
        },
        {
          "internalType": "string",
          "name": "orderId",
          "type": "string"
        },
        {
          "internalType": "string",
          "name": "namaProduk",
          "type": "string"
        },
        {
          "internalType": "string",
          "name": "batchName",
          "type": "string"
        },
        {
          "internalType": "uint8",
          "name": "obatQuantity",
          "type": "uint8"
        },
        {
          "internalType": "string",
          "name": "pbfInstance",
          "type": "string"
        }
      ],
      "stateMutability": "view",
      "type": "function"
    },
    {
      "inputs": [
        {
          "internalType": "string",
          "name": "",
          "type": "string"
        },
        {
          "internalType": "uint256",
          "name": "",
          "type": "uint256"
        }
      ],
      "name": "obatProductionById",
      "outputs": [
        {
          "internalType": "enum EnumsLibrary.ObatAvailability",
          "name": "statusStok",
          "type": "uint8"
        },
        {
          "internalType": "string",
          "name": "namaProduk",
          "type": "string"
        },
        {
          "internalType": "string",
          "name": "batchName",
          "type": "string"
        },
        {
          "internalType": "uint8",
          "name": "obatQuantity",
          "type": "uint8"
        },
        {
          "internalType": "string",
          "name": "factoryInstance",
          "type": "string"
        }
      ],
      "stateMutability": "view",
      "type": "function"
    },
    {
      "inputs": [
        {
          "internalType": "string",
          "name": "",
          "type": "string"
        }
      ],
      "name": "obatRetailerBatchName",
      "outputs": [
        {
          "internalType": "enum EnumsLibrary.ObatAvailability",
          "name": "statusStok",
          "type": "uint8"
        },
        {
          "internalType": "string",
          "name": "obatId",
          "type": "string"
        },
        {
          "internalType": "string",
          "name": "orderId",
          "type": "string"
        },
        {
          "internalType": "string",
          "name": "namaProduk",
          "type": "string"
        },
        {
          "internalType": "string",
          "name": "batchName",
          "type": "string"
        },
        {
          "internalType": "uint8",
          "name": "obatQuantity",
          "type": "uint8"
        },
        {
          "internalType": "string",
          "name": "retailerInstance",
          "type": "string"
        }
      ],
      "stateMutability": "view",
      "type": "function"
    },
    {
      "inputs": [
        {
          "internalType": "string",
          "name": "_obatId",
          "type": "string"
        },
        {
          "internalType": "string",
          "name": "_merk",
          "type": "string"
        },
        {
          "internalType": "string",
          "name": "_namaProduk",
          "type": "string"
        },
        {
          "internalType": "string[]",
          "name": "_klaim",
          "type": "string[]"
        },
        {
          "internalType": "string[]",
          "name": "_komposisi",
          "type": "string[]"
        },
        {
          "internalType": "string",
          "name": "_kemasan",
          "type": "string"
        },
        {
          "internalType": "enum EnumsLibrary.TipeProduk",
          "name": "_tipeProduk",
          "type": "uint8"
        },
        {
          "internalType": "string",
          "name": "_factoryInstance",
          "type": "string"
        },
        {
          "internalType": "address",
          "name": "_factoryAddr",
          "type": "address"
        }
      ],
      "name": "setObatDetail",
      "outputs": [],
      "stateMutability": "nonpayable",
      "type": "function"
    },
    {
      "inputs": [
        {
          "internalType": "string",
          "name": "_obatId",
          "type": "string"
        },
        {
          "internalType": "string",
          "name": "_batchName",
          "type": "string"
        },
        {
          "internalType": "string[]",
          "name": "_obatIpfs",
          "type": "string[]"
        }
      ],
      "name": "updateBatchProduction",
      "outputs": [],
      "stateMutability": "nonpayable",
      "type": "function"
    },
    {
      "inputs": [
        {
          "internalType": "string",
          "name": "_batchName",
          "type": "string"
        },
        {
          "internalType": "string[]",
          "name": "_obatIpfs",
          "type": "string[]"
        }
      ],
      "name": "updateObatPbf",
      "outputs": [],
      "stateMutability": "nonpayable",
      "type": "function"
    }
  ],
  "bytecode": "0x608080604052346015576120c7908161001b8239f35b600080fdfe6080604052600436101561001257600080fd5b60003560e01c80627481d9146114c657806301fabf1f146113ed5780631b544bfc146112ef578063273218371461120657806361009862146111a85780638d57ba0a14610ffc578063906ce01714610ea75780639ad9e15314610e545780639d8ec71914610db9578063a24f650914610aab578063ba2ffe4c146109fb578063c74acb8b14610992578063d658267214610799578063e1336da514610650578063e521d58614610456578063e9c14cb8146102d65763f07b2c7a146100d657600080fd5b346102d15760203660031901126102d1576004356001600160401b0381116102d1576101069036906004016115f7565b6000906040516101376020828161012681830196878151938492016117b8565b81010301601f1981018352826115d6565b51902090600090600054915b82811061027d575061015490611f8f565b9160009060005b83811061017457604051806101708782611957565b0390f35b816006610192602061018585611b0b565b5060405192838092611efc565b6004815203019020016040516101be816101b0602082018095611efc565b03601f1981018352826115d6565b519020146101cf575b60010161015b565b916102756001916101f46101e7602061018588611b0b565b600481520301902061200f565b6040810151906020810151906060810151608082015160ff60a0840151169160c0845194610221866118de565b0151946040519661023188611584565b87526020870152604086015260608501526080840152610250816118de565b60a083015260c08201526102648289611ca8565b5261026f8188611ca8565b50611f6a565b9290506101c7565b83600661028e602061018585611b0b565b6004815203019020016040516102ac816101b0602082018095611efc565b519020146102bd575b600101610143565b906102c9600191611f6a565b9190506102b5565b600080fd5b346102d15760603660031901126102d1576004356001600160401b0381116102d1576103069036906004016115f7565b6024356001600160401b0381116102d1576103259036906004016115f7565b6044356001600160401b0381116102d157602061034961035d923690600401611664565b9381604051938285809451938492016117b8565b810160038152030190209060405190610393815192602081818501956103848183896117b8565b81016006815203019020611b87565b60005b84518110156103d9576001906103d360405160208186516103b881838b6117b8565b810160068152030190206103cc8389611ca8565b5190611dbc565b01610396565b506103f660206040518093610126838301968792519283916117b8565b51902060005b8254811015610454578160026101b061042c6104188588611ad9565b506040519283916020830195869101611efc565b5190201461043c576001016103fc565b905061044791611ad9565b50805460ff191660011790555b005b346102d15760c03660031901126102d1576004356001600160401b0381116102d1576104869036906004016115f7565b6024356001600160401b0381116102d1576104a59036906004016115f7565b6044356001600160401b0381116102d1576104c49036906004016115f7565b60643560ff81168091036102d1576084356001600160401b0381116102d1576104f1903690600401611664565b9160a4356001600160401b0381116102d1576105149094929436906004016115f7565b91604051946105228661159f565b600086526020860191825260408601838152606087019182526080870194855260009460208501955b8751811015610589576001906105836040516020818061056f8d8d519283916117b8565b810160068152030190206103cc838c611ca8565b0161054b565b50876105a460208b81604051938285809451938492016117b8565b810160038152030190208054600160401b81101561063a576105cb91600182018155611ad9565b949094610624576106096004946105ff610454986105f560ff96516105ef816118de565b8a611b58565b5160018901611cbc565b5160028701611cbc565b511660ff60038501911660ff19825416179055519101611cbc565b634e487b7160e01b600052600060045260246000fd5b634e487b7160e01b600052604160045260246000fd5b346102d15760203660031901126102d1576004356001600160401b0381116102d1576106809036906004016115f7565b6000906040516106a06020828161012681830196878151938492016117b8565b519020600154909160005b82811061074557506106bc90611f8f565b9160009060005b8381106106d857604051806101708782611957565b8160066106e9602061018585611b25565b600581520301902001604051610707816101b0602082018095611efc565b51902014610718575b6001016106c3565b9161073d6001916101f4610730602061018588611b25565b600581520301902061200f565b929050610710565b836006610756602061018585611b25565b600581520301902001604051610774816101b0602082018095611efc565b51902014610785575b6001016106ab565b90610791600191611f6a565b91905061077d565b346102d15760203660031901126102d1576004356001600160401b0381116102d15761012061083060206107d461097d9436906004016115f7565b600060e06040516107e4816115ba565b6060815260608582015260606040820152606080820152606060808201528260a0820152606060c0820152015261081d81511515611ec3565b81604051938285809451938492016117b8565b81016002815203019020604051928391610849836115ba565b61085281611815565b83528261095b61086460018401611815565b6020830190815261094861087a60028601611e6b565b6040850190815261093561089060038801611e6b565b91606087019283526109226108a760048a01611815565b956080890196875260e060ff60058c0154169a60a08b019b6108c8816118de565b8c5260c06108d860068301611815565b9b019a8b52600760018060a01b03910154169c019b8c5261090f6040519e8f9e8f91602083525191610100602082015201906118b9565b90518d8203601f190160408f01526118b9565b90518b8203601f190160608d01526118fe565b9051898203601f190160808b01526118fe565b9051878203601f190160a08901526118b9565b9151610966816118de565b60c086015251848203601f190160e08601526118b9565b90516001600160a01b03166101008301520390f35b346102d15760206109ba6109a536611aa8565b929081604051938285809451938492016117b8565b810160068152030190209081548110156102d1576109d791611b40565b610624576109e761017091611815565b6040519182916020835260208301906118b9565b346102d1576020610a0e6109a536611aa8565b810160038152030190209081548110156102d157610a2b91611ad9565b5060ff815416610170610a4060018401611815565b92610a4d60028201611815565b610a98610a64600460ff6003860154169401611815565b91610a8a6040519787610a778a996118de565b885260a0602089015260a08801906118b9565b9086820360408801526118b9565b91606085015283820360808501526118b9565b346102d1576101203660031901126102d1576004356001600160401b0381116102d157610adc9036906004016115f7565b6024356001600160401b0381116102d157610afb9036906004016115f7565b6044356001600160401b0381116102d157610b1a9036906004016115f7565b916064356001600160401b0381116102d157610b3a903690600401611664565b6084356001600160401b0381116102d157610b59903690600401611664565b60a4356001600160401b0381116102d157610b789036906004016115f7565b9060c4359260028410156102d15760e4356001600160401b0381116102d157610ba59036906004016115f7565b94610104359760018060a01b0389168099036102d157815115610d8257805115610d4957610c42610c306020610c4c946040519b610be28d6115ba565b8c52818c0194855260408c0196875260608c0197885260808c0198895260a08c0199610c0d816118de565b8a5260c08c019a8b5260e08c019c8d5281604051938285809451938492016117b8565b81016002815203019020985189611cbc565b5160018801611cbc565b600286019051906020825192610c628484611c10565b019060005260206000206000915b838310610d2c5750505050600385019051906020825192610c918484611c10565b019060005260206000206000915b838310610d0f5788600789610ceb8a8a610cbd8b5160048601611cbc565b600584019051610ccc816118de565b610cd5816118de565b60ff801983541691161790555160068301611cbc565b9151910180546001600160a01b0319166001600160a01b0392909216919091179055005b6001602082610d2083945186611cbc565b01920192019190610c9f565b6001602082610d3d83945186611cbc565b01920192019190610c70565b60405162461bcd60e51b8152602060048201526011602482015270496e76616c6964204f626174204e616d6560781b6044820152606490fd5b60405162461bcd60e51b815260206004820152600f60248201526e125b9d985b1a590813d8985d081251608a1b6044820152606490fd5b346102d15760203660031901126102d1576004356001600160401b0381116102d157602061081d610dee9236906004016115f7565b8101600481520301902060ff815416610170610e0c60018401611815565b92610e1960028201611815565b90610e2660038201611815565b610e3260048301611815565b90610e47600660ff6005860154169401611815565b9360405197889788611a36565b346102d15760203660031901126102d1576004356001600160401b0381116102d157602061081d610e899236906004016115f7565b8101600581520301902060ff815416610170610e0c60018401611815565b346102d15760003660031901126102d157600080600054915b828110610fb75750610ed190611f8f565b906000805b828110610eeb57604051806101708682611957565b60ff610efb602061018584611b0b565b60048152030190205416610f0e816118de565b15610f1c575b600101610ed6565b90610faf600191610f346101e7602061018587611b0b565b6040810151906020810151906060810151608082015160ff60a0840151169160c0845194610f61866118de565b01519460405196610f7188611584565b87526020870152604086015260608501526080840152610f90816118de565b60a083015260c0820152610fa48288611ca8565b5261026f8187611ca8565b919050610f14565b60ff610fc7602061018584611b0b565b60048152030190205416610fda816118de565b15610fe8575b600101610ec0565b90610ff4600191611f6a565b919050610fe0565b346102d15760203660031901126102d1576004356001600160401b0381116102d157602061103161103d9236906004016115f7565b61081d81511515611ec3565b810160038152030190208054906110538261164d565b9161106160405193846115d6565b80835260208301809260005260206000206000915b83831061113957848660405191829160208301906020845251809152604083019060408160051b85010192916000905b8282106110b557505050500390f35b919360019193955060206111298192603f198a820301865288519081516110db816118de565b8152608061110b6110f98685015160a08886015260a08501906118b9565b604085015184820360408601526118b9565b9260ff606082015116606084015201519060808184039101526118b9565b96019201920185949391926110a6565b6005602060019260405161114c8161159f565b60ff86541661115a816118de565b8152611167858701611815565b8382015261117760028701611815565b604082015260ff600387015416606082015261119560048701611815565b6080820152815201920192019190611076565b346102d15760203660031901126102d1576004356001600160401b0381116102d1576111f26111e3602061081d6101709436906004016115f7565b81016006815203019020611e6b565b6040519182916020835260208301906118fe565b346102d15760203660031901126102d1576004356001600160401b0381116102d15761123e602061081d6112ad9336906004016115f7565b8101600281520301902061125181611815565b906112e561126160018301611815565b9161126e60048201611815565b906112c960ff600583015416926112bb61128a60068501611815565b93600760018060a01b039101541696604051998a9960c08b5260c08b01906118b9565b9089820360208b01526118b9565b9087820360408901526118b9565b916112d3816118de565b606086015284820360808601526118b9565b9060a08301520390f35b346102d15760ff6112ff366116e2565b9390946040979397519661131288611584565b600088526020880152604087015260608601528560808601521660a084015260c0830152604051926113528151946020818185019761038481838b6117b8565b60005b82518110156113915760019061138b604051602081865161137781838d6117b8565b810160068152030190206103cc8387611ca8565b01611355565b509050600154600160401b81101561063a578060016113b592016001556001611b40565b6106245761045493826113cd6113de94602094611cbc565b6040519384928392519283916117b8565b81016005815203019020611de9565b346102d15760ff6113fd366116e2565b9390946040979397519661141088611584565b600088526020880152604087015260608601528560808601521660a084015260c0830152604051926114508151946020818185019761038481838b6117b8565b60005b825181101561147b57600190611475604051602081865161137781838d6117b8565b01611453565b509050600054600160401b81101561063a5780600161149f92016000556000611b40565b6106245761045493826113cd6114b794602094611cbc565b81016004815203019020611de9565b346102d15760403660031901126102d1576004356001600160401b0381116102d1576114f69036906004016115f7565b6024356001600160401b0381116102d157611515903690600401611664565b604051918051926020818184019561152e8183896117b8565b81016004815203019020600160ff19825416179055611559604051602081845161038481838a6117b8565b60005b82518110156104545760019061157e604051602081865161137781838c6117b8565b0161155c565b60e081019081106001600160401b0382111761063a57604052565b60a081019081106001600160401b0382111761063a57604052565b61010081019081106001600160401b0382111761063a57604052565b90601f801991011681019081106001600160401b0382111761063a57604052565b81601f820112156102d1578035906001600160401b03821161063a576040519261162b601f8401601f1916602001856115d6565b828452602083830101116102d157816000926020809301838601378301015290565b6001600160401b03811161063a5760051b60200190565b9080601f830112156102d157813561167b8161164d565b9261168960405194856115d6565b81845260208085019260051b820101918383116102d15760208201905b8382106116b557505050505090565b81356001600160401b0381116102d1576020916116d7878480948801016115f7565b8152019101906116a6565b60e06003198201126102d1576004356001600160401b0381116102d1578161170c916004016115f7565b916024356001600160401b0381116102d1578261172b916004016115f7565b916044356001600160401b0381116102d1578161174a916004016115f7565b916064356001600160401b0381116102d15782611769916004016115f7565b9160843560ff811681036102d1579160a4356001600160401b0381116102d1578261179691600401611664565b9160c435906001600160401b0382116102d1576117b5916004016115f7565b90565b60005b8381106117cb5750506000910152565b81810151838201526020016117bb565b90600182811c9216801561180b575b60208310146117f557565b634e487b7160e01b600052602260045260246000fd5b91607f16916117ea565b9060405191826000825492611829846117db565b80845293600181169081156118975750600114611850575b5061184e925003836115d6565b565b90506000929192526020600020906000915b81831061187b57505090602061184e9282010138611841565b6020919350806001915483858901015201910190918492611862565b90506020925061184e94915060ff191682840152151560051b82010138611841565b906020916118d2815180928185528580860191016117b8565b601f01601f1916010190565b600211156118e857565b634e487b7160e01b600052602160045260246000fd5b9080602083519182815201916020808360051b8301019401926000915b83831061192a57505050505090565b9091929394602080611948600193601f1986820301875289516118b9565b9701930193019193929061191b565b602081016020825282518091526040820191602060408360051b8301019401926000915b83831061198a57505050505090565b9091929394602080611a27600193603f1986820301875289519060c06119f66119e46119d26119c2865160e0875260e08701906118b9565b888701518682038a8801526118b9565b604086015185820360408701526118b9565b606085015184820360608601526118b9565b9260ff608082015116608084015260a0810151611a12816118de565b60a084015201519060c08184039101526118b9565b9701930193019193929061197b565b93611a8690611a7860ff95611a6a611a94966117b59c9a96611a57816118de565b8a5260e060208b015260e08a01906118b9565b9088820360408a01526118b9565b9086820360608801526118b9565b9084820360808601526118b9565b931660a082015260c08184039101526118b9565b60406003198201126102d157600435906001600160401b0382116102d157611ad2916004016115f7565b9060243590565b8054821015611af5576000526005602060002091020190600090565b634e487b7160e01b600052603260045260246000fd5b600054811015611af5576000805260206000200190600090565b600154811015611af557600160005260206000200190600090565b8054821015611af55760005260206000200190600090565b90611b62816118de565b60ff80198354169116179055565b818110611b7b575050565b60008155600101611b70565b8054906000815581611b97575050565b6000526020600020908101905b818110611baf575050565b80611bbc600192546117db565b80611bc9575b5001611ba4565b601f81118314611bdf5750600081555b38611bc2565b611bfd908260005283601f6020600020920160051c82019101611b70565b8060005260006020812081835555611bd9565b90600160401b811161063a57815491818155828210611c2e57505050565b600052602060002091820191015b818110611c47575050565b80611c54600192546117db565b80611c61575b5001611c3c565b601f81118314611c775750600081555b38611c5a565b611c95908260005283601f6020600020920160051c82019101611b70565b8060005260006020812081835555611c71565b8051821015611af55760209160051b010190565b91909182516001600160401b03811161063a57611cd982546117db565b601f8111611d7f575b506020601f8211600114611d1d5781929394600092611d12575b50508160011b916000199060031b1c1916179055565b015190503880611cfc565b601f1982169083600052806000209160005b818110611d6757509583600195969710611d4e575b505050811b019055565b015160001960f88460031b161c19169055388080611d44565b9192602060018192868b015181550194019201611d2f565b611dac90836000526020600020601f840160051c81019160208510611db2575b601f0160051c0190611b70565b38611ce2565b9091508190611d9f565b8054600160401b81101561063a57611dd991600182018155611b40565b9190916106245761184e91611cbc565b600660c061184e93611e058151611dff816118de565b85611b58565b611e16602082015160018601611cbc565b611e27604082015160028601611cbc565b611e38606082015160038601611cbc565b611e49608082015160048601611cbc565b60ff60a08201511660ff60058601911660ff1982541617905501519101611cbc565b908154611e778161164d565b92611e8560405194856115d6565b818452602084019060005260206000206000915b838310611ea65750505050565b600160208192611eb585611815565b815201920192019190611e99565b15611eca57565b60405162461bcd60e51b815260206004820152600a602482015269125b9d985b1a5908125160b21b6044820152606490fd5b60009291815491611f0c836117db565b9260018116908115611f575750600114611f2557505050565b909192935060005260206000206000905b838210611f435750500190565b600181602092548486015201910190611f36565b60ff191683525050811515909102019150565b6000198114611f795760010190565b634e487b7160e01b600052601160045260246000fd5b90611f998261164d565b611fa660405191826115d6565b8281528092611fb7601f199161164d565b019060005b828110611fc857505050565b602090604051611fd781611584565b606081526060838201526060604082015260608082015260006080820152600060a0820152606060c082015282828501015201611fbc565b9060405161201c81611584565b60c061208c6006839560ff815416612033816118de565b855261204160018201611815565b602086015261205260028201611815565b604086015261206360038201611815565b606086015261207460048201611815565b608086015260ff60058201541660a086015201611815565b91015256fea2646970667358221220ee712337411042dedda4969e3a779e6cdf775bc64499eb0633445007dc28d40d64736f6c634300081b0033",
  "linkReferences": {},
  "deployedLinkReferences": {}
}