{
  "_format": "hh-sol-artifact-1",
  "contractName": "ObatShared",
  "sourceName": "contracts/ObatShared.sol",
  "abi": [
    {
      "inputs": [
        {
          "internalType": "string",
          "name": "_obatId",
          "type": "string"
        },
        {
          "internalType": "string",
          "name": "_namaProduk",
          "type": "string"
        },
        {
          "internalType": "string",
          "name": "_batchName",
          "type": "string"
        },
        {
          "internalType": "uint8",
          "name": "_obatQuantity",
          "type": "uint8"
        },
        {
          "internalType": "string[]",
          "name": "_obatIpfs",
          "type": "string[]"
        },
        {
          "internalType": "string",
          "name": "_factoryInstance",
          "type": "string"
        }
      ],
      "name": "addBatchProduction",
      "outputs": [],
      "stateMutability": "nonpayable",
      "type": "function"
    },
    {
      "inputs": [
        {
          "internalType": "string",
          "name": "_obatId",
          "type": "string"
        },
        {
          "internalType": "string",
          "name": "_orderId",
          "type": "string"
        },
        {
          "internalType": "string",
          "name": "_namaProduk",
          "type": "string"
        },
        {
          "internalType": "string",
          "name": "_batchName",
          "type": "string"
        },
        {
          "internalType": "uint8",
          "name": "_obatQuantity",
          "type": "uint8"
        },
        {
          "internalType": "string[]",
          "name": "_obatIpfs",
          "type": "string[]"
        },
        {
          "internalType": "string",
          "name": "_pbfInstance",
          "type": "string"
        }
      ],
      "name": "addObatPbf",
      "outputs": [],
      "stateMutability": "nonpayable",
      "type": "function"
    },
    {
      "inputs": [
        {
          "internalType": "string",
          "name": "_obatId",
          "type": "string"
        },
        {
          "internalType": "string",
          "name": "_orderId",
          "type": "string"
        },
        {
          "internalType": "string",
          "name": "_namaProduk",
          "type": "string"
        },
        {
          "internalType": "string",
          "name": "_batchName",
          "type": "string"
        },
        {
          "internalType": "uint8",
          "name": "_obatQuantity",
          "type": "uint8"
        },
        {
          "internalType": "string[]",
          "name": "_obatIpfs",
          "type": "string[]"
        },
        {
          "internalType": "string",
          "name": "_retailerInstance",
          "type": "string"
        }
      ],
      "name": "addObatRetailer",
      "outputs": [],
      "stateMutability": "nonpayable",
      "type": "function"
    },
    {
      "inputs": [
        {
          "internalType": "string",
          "name": "_pbfInstance",
          "type": "string"
        }
      ],
      "name": "getAllObatPbfByInstance",
      "outputs": [
        {
          "components": [
            {
              "internalType": "string",
              "name": "orderId",
              "type": "string"
            },
            {
              "internalType": "string",
              "name": "obatId",
              "type": "string"
            },
            {
              "internalType": "string",
              "name": "namaProduk",
              "type": "string"
            },
            {
              "internalType": "string",
              "name": "batchName",
              "type": "string"
            },
            {
              "internalType": "uint8",
              "name": "obatQuantity",
              "type": "uint8"
            },
            {
              "internalType": "enum EnumsLibrary.ObatAvailability",
              "name": "statusStok",
              "type": "uint8"
            },
            {
              "internalType": "string",
              "name": "ownerInstance",
              "type": "string"
            }
          ],
          "internalType": "struct ObatShared.st_obatOutputStock[]",
          "name": "",
          "type": "tuple[]"
        }
      ],
      "stateMutability": "view",
      "type": "function"
    },
    {
      "inputs": [],
      "name": "getAllObatPbfReadyStock",
      "outputs": [
        {
          "components": [
            {
              "internalType": "string",
              "name": "orderId",
              "type": "string"
            },
            {
              "internalType": "string",
              "name": "obatId",
              "type": "string"
            },
            {
              "internalType": "string",
              "name": "namaProduk",
              "type": "string"
            },
            {
              "internalType": "string",
              "name": "batchName",
              "type": "string"
            },
            {
              "internalType": "uint8",
              "name": "obatQuantity",
              "type": "uint8"
            },
            {
              "internalType": "enum EnumsLibrary.ObatAvailability",
              "name": "statusStok",
              "type": "uint8"
            },
            {
              "internalType": "string",
              "name": "ownerInstance",
              "type": "string"
            }
          ],
          "internalType": "struct ObatShared.st_obatOutputStock[]",
          "name": "",
          "type": "tuple[]"
        }
      ],
      "stateMutability": "view",
      "type": "function"
    },
    {
      "inputs": [
        {
          "internalType": "string",
          "name": "_retailerInstance",
          "type": "string"
        }
      ],
      "name": "getAllObatRetailerByInstance",
      "outputs": [
        {
          "components": [
            {
              "internalType": "string",
              "name": "orderId",
              "type": "string"
            },
            {
              "internalType": "string",
              "name": "obatId",
              "type": "string"
            },
            {
              "internalType": "string",
              "name": "namaProduk",
              "type": "string"
            },
            {
              "internalType": "string",
              "name": "batchName",
              "type": "string"
            },
            {
              "internalType": "uint8",
              "name": "obatQuantity",
              "type": "uint8"
            },
            {
              "internalType": "enum EnumsLibrary.ObatAvailability",
              "name": "statusStok",
              "type": "uint8"
            },
            {
              "internalType": "string",
              "name": "ownerInstance",
              "type": "string"
            }
          ],
          "internalType": "struct ObatShared.st_obatOutputStock[]",
          "name": "",
          "type": "tuple[]"
        }
      ],
      "stateMutability": "view",
      "type": "function"
    },
    {
      "inputs": [
        {
          "internalType": "string",
          "name": "_obatId",
          "type": "string"
        }
      ],
      "name": "getObatDetail",
      "outputs": [
        {
          "components": [
            {
              "internalType": "string",
              "name": "merk",
              "type": "string"
            },
            {
              "internalType": "string",
              "name": "namaProduk",
              "type": "string"
            },
            {
              "internalType": "string[]",
              "name": "klaim",
              "type": "string[]"
            },
            {
              "internalType": "string[]",
              "name": "komposisi",
              "type": "string[]"
            },
            {
              "internalType": "string",
              "name": "kemasan",
              "type": "string"
            },
            {
              "internalType": "enum EnumsLibrary.TipeProduk",
              "name": "tipeProduk",
              "type": "uint8"
            },
            {
              "internalType": "string",
              "name": "factoryInstance",
              "type": "string"
            },
            {
              "internalType": "address",
              "name": "factoryAddr",
              "type": "address"
            }
          ],
          "internalType": "struct ObatShared.st_obatDetails",
          "name": "",
          "type": "tuple"
        }
      ],
      "stateMutability": "view",
      "type": "function"
    },
    {
      "inputs": [
        {
          "internalType": "string",
          "name": "_batchName",
          "type": "string"
        }
      ],
      "name": "getObatIpfsByBatchName",
      "outputs": [
        {
          "internalType": "string[]",
          "name": "",
          "type": "string[]"
        }
      ],
      "stateMutability": "view",
      "type": "function"
    },
    {
      "inputs": [
        {
          "internalType": "string",
          "name": "_obatId",
          "type": "string"
        }
      ],
      "name": "getObatProduction",
      "outputs": [
        {
          "components": [
            {
              "internalType": "enum EnumsLibrary.ObatAvailability",
              "name": "statusStok",
              "type": "uint8"
            },
            {
              "internalType": "string",
              "name": "namaProduk",
              "type": "string"
            },
            {
              "internalType": "string",
              "name": "batchName",
              "type": "string"
            },
            {
              "internalType": "uint8",
              "name": "obatQuantity",
              "type": "uint8"
            },
            {
              "internalType": "string",
              "name": "factoryInstance",
              "type": "string"
            }
          ],
          "internalType": "struct ObatShared.st_obatProduction[]",
          "name": "",
          "type": "tuple[]"
        }
      ],
      "stateMutability": "view",
      "type": "function"
    },
    {
      "inputs": [
        {
          "internalType": "string",
          "name": "",
          "type": "string"
        }
      ],
      "name": "obatDetailsById",
      "outputs": [
        {
          "internalType": "string",
          "name": "merk",
          "type": "string"
        },
        {
          "internalType": "string",
          "name": "namaProduk",
          "type": "string"
        },
        {
          "internalType": "string",
          "name": "kemasan",
          "type": "string"
        },
        {
          "internalType": "enum EnumsLibrary.TipeProduk",
          "name": "tipeProduk",
          "type": "uint8"
        },
        {
          "internalType": "string",
          "name": "factoryInstance",
          "type": "string"
        },
        {
          "internalType": "address",
          "name": "factoryAddr",
          "type": "address"
        }
      ],
      "stateMutability": "view",
      "type": "function"
    },
    {
      "inputs": [
        {
          "internalType": "string",
          "name": "",
          "type": "string"
        },
        {
          "internalType": "uint256",
          "name": "",
          "type": "uint256"
        }
      ],
      "name": "obatIpfsbyBatchName",
      "outputs": [
        {
          "internalType": "string",
          "name": "",
          "type": "string"
        }
      ],
      "stateMutability": "view",
      "type": "function"
    },
    {
      "inputs": [
        {
          "internalType": "string",
          "name": "",
          "type": "string"
        }
      ],
      "name": "obatPbfBatchName",
      "outputs": [
        {
          "internalType": "enum EnumsLibrary.ObatAvailability",
          "name": "statusStok",
          "type": "uint8"
        },
        {
          "internalType": "string",
          "name": "obatId",
          "type": "string"
        },
        {
          "internalType": "string",
          "name": "orderId",
          "type": "string"
        },
        {
          "internalType": "string",
          "name": "namaProduk",
          "type": "string"
        },
        {
          "internalType": "string",
          "name": "batchName",
          "type": "string"
        },
        {
          "internalType": "uint8",
          "name": "obatQuantity",
          "type": "uint8"
        },
        {
          "internalType": "string",
          "name": "pbfInstance",
          "type": "string"
        }
      ],
      "stateMutability": "view",
      "type": "function"
    },
    {
      "inputs": [
        {
          "internalType": "string",
          "name": "",
          "type": "string"
        },
        {
          "internalType": "uint256",
          "name": "",
          "type": "uint256"
        }
      ],
      "name": "obatProductionById",
      "outputs": [
        {
          "internalType": "enum EnumsLibrary.ObatAvailability",
          "name": "statusStok",
          "type": "uint8"
        },
        {
          "internalType": "string",
          "name": "namaProduk",
          "type": "string"
        },
        {
          "internalType": "string",
          "name": "batchName",
          "type": "string"
        },
        {
          "internalType": "uint8",
          "name": "obatQuantity",
          "type": "uint8"
        },
        {
          "internalType": "string",
          "name": "factoryInstance",
          "type": "string"
        }
      ],
      "stateMutability": "view",
      "type": "function"
    },
    {
      "inputs": [
        {
          "internalType": "string",
          "name": "",
          "type": "string"
        }
      ],
      "name": "obatRetailerBatchName",
      "outputs": [
        {
          "internalType": "enum EnumsLibrary.ObatAvailability",
          "name": "statusStok",
          "type": "uint8"
        },
        {
          "internalType": "string",
          "name": "obatId",
          "type": "string"
        },
        {
          "internalType": "string",
          "name": "orderId",
          "type": "string"
        },
        {
          "internalType": "string",
          "name": "namaProduk",
          "type": "string"
        },
        {
          "internalType": "string",
          "name": "batchName",
          "type": "string"
        },
        {
          "internalType": "uint8",
          "name": "obatQuantity",
          "type": "uint8"
        },
        {
          "internalType": "string",
          "name": "retailerInstance",
          "type": "string"
        }
      ],
      "stateMutability": "view",
      "type": "function"
    },
    {
      "inputs": [
        {
          "internalType": "string",
          "name": "_obatId",
          "type": "string"
        },
        {
          "internalType": "string",
          "name": "_merk",
          "type": "string"
        },
        {
          "internalType": "string",
          "name": "_namaProduk",
          "type": "string"
        },
        {
          "internalType": "string[]",
          "name": "_klaim",
          "type": "string[]"
        },
        {
          "internalType": "string[]",
          "name": "_komposisi",
          "type": "string[]"
        },
        {
          "internalType": "string",
          "name": "_kemasan",
          "type": "string"
        },
        {
          "internalType": "enum EnumsLibrary.TipeProduk",
          "name": "_tipeProduk",
          "type": "uint8"
        },
        {
          "internalType": "string",
          "name": "_factoryInstance",
          "type": "string"
        },
        {
          "internalType": "address",
          "name": "_factoryAddr",
          "type": "address"
        }
      ],
      "name": "setObatDetail",
      "outputs": [],
      "stateMutability": "nonpayable",
      "type": "function"
    },
    {
      "inputs": [
        {
          "internalType": "string",
          "name": "_obatId",
          "type": "string"
        },
        {
          "internalType": "string",
          "name": "_batchName",
          "type": "string"
        },
        {
          "internalType": "string[]",
          "name": "_obatIpfs",
          "type": "string[]"
        }
      ],
      "name": "updateBatchProduction",
      "outputs": [],
      "stateMutability": "nonpayable",
      "type": "function"
    },
    {
      "inputs": [
        {
          "internalType": "string",
          "name": "_batchName",
          "type": "string"
        },
        {
          "internalType": "string[]",
          "name": "_obatIpfs",
          "type": "string[]"
        }
      ],
      "name": "updateObatPbf",
      "outputs": [],
      "stateMutability": "nonpayable",
      "type": "function"
    }
  ],
  "bytecode": "0x60808060405234601557612069908161001b8239f35b600080fdfe6080604052600436101561001257600080fd5b60003560e01c80627481d91461146857806301fabf1f1461138f5780631b544bfc1461129157806327321837146111a8578063610098621461114a5780638d57ba0a14610f9e578063906ce01714610e495780639ad9e15314610df65780639d8ec71914610d5b578063a24f650914610abf578063ba2ffe4c14610a0f578063c74acb8b146109a6578063d6582672146107ad578063e1336da514610664578063e521d58614610456578063e9c14cb8146102d65763f07b2c7a146100d657600080fd5b346102d15760203660031901126102d1576004356001600160401b0381116102d157610106903690600401611599565b60009060405161013760208281610126818301968781519384920161175a565b81010301601f198101835282611578565b51902090600090600054915b82811061027d575061015490611f31565b9160009060005b838110610174576040518061017087826118f9565b0390f35b816006610192602061018585611aad565b5060405192838092611e9e565b6004815203019020016040516101be816101b0602082018095611e9e565b03601f198101835282611578565b519020146101cf575b60010161015b565b916102756001916101f46101e7602061018588611aad565b6004815203019020611fb1565b6040810151906020810151906060810151608082015160ff60a0840151169160c084519461022186611880565b0151946040519661023188611526565b8752602087015260408601526060850152608084015261025081611880565b60a083015260c08201526102648289611c4a565b5261026f8188611c4a565b50611f0c565b9290506101c7565b83600661028e602061018585611aad565b6004815203019020016040516102ac816101b0602082018095611e9e565b519020146102bd575b600101610143565b906102c9600191611f0c565b9190506102b5565b600080fd5b346102d15760603660031901126102d1576004356001600160401b0381116102d157610306903690600401611599565b6024356001600160401b0381116102d157610325903690600401611599565b6044356001600160401b0381116102d157602061034961035d923690600401611606565b93816040519382858094519384920161175a565b8101600381520301902090604051906103938151926020818185019561038481838961175a565b81016006815203019020611b29565b60005b84518110156103d9576001906103d360405160208186516103b881838b61175a565b810160068152030190206103cc8389611c4a565b5190611d5e565b01610396565b506103f6602060405180936101268383019687925192839161175a565b51902060005b8254811015610454578160026101b061042c6104188588611a7b565b506040519283916020830195869101611e9e565b5190201461043c576001016103fc565b905061044791611a7b565b50805460ff191660011790555b005b346102d15760c03660031901126102d1576004356001600160401b0381116102d157610486903690600401611599565b6024356001600160401b0381116102d1576104a5903690600401611599565b6044356001600160401b0381116102d1576104c4903690600401611599565b6064359160ff83168093036102d1576084356001600160401b0381116102d1576104f2903690600401611606565b9160a4356001600160401b0381116102d157610512903690600401611599565b916040519461052086611541565b60008652602086019182526040860183815260608701918252608087019485526040519461055c8551966020818189019961038481838d61175a565b60005b875181101561059d57600190610597604051602081806105838d8d5192839161175a565b810160068152030190206103cc838c611c4a565b0161055f565b50876105b860208b816040519382858094519384920161175a565b810160038152030190208054600160401b81101561064e576105df91600182018155611a7b565b9490946106385761061d6004946106136104549861060960ff965161060381611880565b8a611afa565b5160018901611c5e565b5160028701611c5e565b511660ff60038501911660ff19825416179055519101611c5e565b634e487b7160e01b600052600060045260246000fd5b634e487b7160e01b600052604160045260246000fd5b346102d15760203660031901126102d1576004356001600160401b0381116102d157610694903690600401611599565b6000906040516106b460208281610126818301968781519384920161175a565b519020600154909160005b82811061075957506106d090611f31565b9160009060005b8381106106ec576040518061017087826118f9565b8160066106fd602061018585611ac7565b60058152030190200160405161071b816101b0602082018095611e9e565b5190201461072c575b6001016106d7565b916107516001916101f4610744602061018588611ac7565b6005815203019020611fb1565b929050610724565b83600661076a602061018585611ac7565b600581520301902001604051610788816101b0602082018095611e9e565b51902014610799575b6001016106bf565b906107a5600191611f0c565b919050610791565b346102d15760203660031901126102d1576004356001600160401b0381116102d15761012061084460206107e8610991943690600401611599565b600060e06040516107f88161155c565b6060815260608582015260606040820152606080820152606060808201528260a0820152606060c0820152015261083181511515611e65565b816040519382858094519384920161175a565b8101600281520301902060405192839161085d8361155c565b610866816117b7565b83528261096f610878600184016117b7565b6020830190815261095c61088e60028601611e0d565b604085019081526109496108a460038801611e0d565b91606087019283526109366108bb60048a016117b7565b956080890196875260e060ff60058c0154169a60a08b019b6108dc81611880565b8c5260c06108ec600683016117b7565b9b019a8b52600760018060a01b03910154169c019b8c526109236040519e8f9e8f916020835251916101006020820152019061185b565b90518d8203601f190160408f015261185b565b90518b8203601f190160608d01526118a0565b9051898203601f190160808b01526118a0565b9051878203601f190160a089015261185b565b915161097a81611880565b60c086015251848203601f190160e086015261185b565b90516001600160a01b03166101008301520390f35b346102d15760206109ce6109b936611a4a565b9290816040519382858094519384920161175a565b810160068152030190209081548110156102d1576109eb91611ae2565b610638576109fb610170916117b7565b60405191829160208352602083019061185b565b346102d1576020610a226109b936611a4a565b810160038152030190209081548110156102d157610a3f91611a7b565b5060ff815416610170610a54600184016117b7565b92610a61600282016117b7565b610aac610a78600460ff60038601541694016117b7565b91610a9e6040519787610a8b8a99611880565b885260a0602089015260a088019061185b565b90868203604088015261185b565b916060850152838203608085015261185b565b346102d1576101203660031901126102d1576004356001600160401b0381116102d157610af0903690600401611599565b6024356001600160401b0381116102d157610b0f903690600401611599565b6044356001600160401b0381116102d157610b2e903690600401611599565b916064356001600160401b0381116102d157610b4e903690600401611606565b6084356001600160401b0381116102d157610b6d903690600401611606565b60a4356001600160401b0381116102d157610b8c903690600401611599565b9060c4359260028410156102d15760e4356001600160401b0381116102d157610bb9903690600401611599565b94610104359760018060a01b0389168099036102d157610c54610c42602084610be7610c5e96511515611e65565b6040519b610bf48d61155c565b8c52818c0194855260408c0196875260608c0197885260808c0198895260a08c0199610c1f81611880565b8a5260c08c019a8b5260e08c019c8d52816040519382858094519384920161175a565b81016002815203019020985189611c5e565b5160018801611c5e565b600286019051906020825192610c748484611bb2565b019060005260206000206000915b838310610d3e5750505050600385019051906020825192610ca38484611bb2565b019060005260206000206000915b838310610d215788600789610cfd8a8a610ccf8b5160048601611c5e565b600584019051610cde81611880565b610ce781611880565b60ff801983541691161790555160068301611c5e565b9151910180546001600160a01b0319166001600160a01b0392909216919091179055005b6001602082610d3283945186611c5e565b01920192019190610cb1565b6001602082610d4f83945186611c5e565b01920192019190610c82565b346102d15760203660031901126102d1576004356001600160401b0381116102d1576020610831610d90923690600401611599565b8101600481520301902060ff815416610170610dae600184016117b7565b92610dbb600282016117b7565b90610dc8600382016117b7565b610dd4600483016117b7565b90610de9600660ff60058601541694016117b7565b93604051978897886119d8565b346102d15760203660031901126102d1576004356001600160401b0381116102d1576020610831610e2b923690600401611599565b8101600581520301902060ff815416610170610dae600184016117b7565b346102d15760003660031901126102d157600080600054915b828110610f595750610e7390611f31565b906000805b828110610e8d576040518061017086826118f9565b60ff610e9d602061018584611aad565b60048152030190205416610eb081611880565b15610ebe575b600101610e78565b90610f51600191610ed66101e7602061018587611aad565b6040810151906020810151906060810151608082015160ff60a0840151169160c0845194610f0386611880565b01519460405196610f1388611526565b87526020870152604086015260608501526080840152610f3281611880565b60a083015260c0820152610f468288611c4a565b5261026f8187611c4a565b919050610eb6565b60ff610f69602061018584611aad565b60048152030190205416610f7c81611880565b15610f8a575b600101610e62565b90610f96600191611f0c565b919050610f82565b346102d15760203660031901126102d1576004356001600160401b0381116102d1576020610fd3610fdf923690600401611599565b61083181511515611e65565b81016003815203019020805490610ff5826115ef565b916110036040519384611578565b80835260208301809260005260206000206000915b8383106110db57848660405191829160208301906020845251809152604083019060408160051b85010192916000905b82821061105757505050500390f35b919360019193955060206110cb8192603f198a8203018652885190815161107d81611880565b815260806110ad61109b8685015160a08886015260a085019061185b565b6040850151848203604086015261185b565b9260ff6060820151166060840152015190608081840391015261185b565b9601920192018594939192611048565b600560206001926040516110ee81611541565b60ff8654166110fc81611880565b81526111098587016117b7565b83820152611119600287016117b7565b604082015260ff6003870154166060820152611137600487016117b7565b6080820152815201920192019190611018565b346102d15760203660031901126102d1576004356001600160401b0381116102d1576111946111856020610831610170943690600401611599565b81016006815203019020611e0d565b6040519182916020835260208301906118a0565b346102d15760203660031901126102d1576004356001600160401b0381116102d1576111e0602061083161124f933690600401611599565b810160028152030190206111f3816117b7565b90611287611203600183016117b7565b91611210600482016117b7565b9061126b60ff6005830154169261125d61122c600685016117b7565b93600760018060a01b039101541696604051998a9960c08b5260c08b019061185b565b9089820360208b015261185b565b90878203604089015261185b565b9161127581611880565b6060860152848203608086015261185b565b9060a08301520390f35b346102d15760ff6112a136611684565b939094604097939751966112b488611526565b600088526020880152604087015260608601528560808601521660a084015260c0830152604051926112f48151946020818185019761038481838b61175a565b60005b82518110156113335760019061132d604051602081865161131981838d61175a565b810160068152030190206103cc8387611c4a565b016112f7565b509050600154600160401b81101561064e5780600161135792016001556001611ae2565b61063857610454938261136f61138094602094611c5e565b60405193849283925192839161175a565b81016005815203019020611d8b565b346102d15760ff61139f36611684565b939094604097939751966113b288611526565b600088526020880152604087015260608601528560808601521660a084015260c0830152604051926113f28151946020818185019761038481838b61175a565b60005b825181101561141d57600190611417604051602081865161131981838d61175a565b016113f5565b509050600054600160401b81101561064e5780600161144192016000556000611ae2565b61063857610454938261136f61145994602094611c5e565b81016004815203019020611d8b565b346102d15760403660031901126102d1576004356001600160401b0381116102d157611498903690600401611599565b6024356001600160401b0381116102d1576114b7903690600401611606565b60405191805192602081818401956114d081838961175a565b81016004815203019020600160ff198254161790556114fb604051602081845161038481838a61175a565b60005b825181101561045457600190611520604051602081865161131981838c61175a565b016114fe565b60e081019081106001600160401b0382111761064e57604052565b60a081019081106001600160401b0382111761064e57604052565b61010081019081106001600160401b0382111761064e57604052565b90601f801991011681019081106001600160401b0382111761064e57604052565b81601f820112156102d1578035906001600160401b03821161064e57604051926115cd601f8401601f191660200185611578565b828452602083830101116102d157816000926020809301838601378301015290565b6001600160401b03811161064e5760051b60200190565b9080601f830112156102d157813561161d816115ef565b9261162b6040519485611578565b81845260208085019260051b820101918383116102d15760208201905b83821061165757505050505090565b81356001600160401b0381116102d15760209161167987848094880101611599565b815201910190611648565b60e06003198201126102d1576004356001600160401b0381116102d157816116ae91600401611599565b916024356001600160401b0381116102d157826116cd91600401611599565b916044356001600160401b0381116102d157816116ec91600401611599565b916064356001600160401b0381116102d1578261170b91600401611599565b9160843560ff811681036102d1579160a4356001600160401b0381116102d1578261173891600401611606565b9160c435906001600160401b0382116102d15761175791600401611599565b90565b60005b83811061176d5750506000910152565b818101518382015260200161175d565b90600182811c921680156117ad575b602083101461179757565b634e487b7160e01b600052602260045260246000fd5b91607f169161178c565b90604051918260008254926117cb8461177d565b808452936001811690811561183957506001146117f2575b506117f092500383611578565b565b90506000929192526020600020906000915b81831061181d5750509060206117f092820101386117e3565b6020919350806001915483858901015201910190918492611804565b9050602092506117f094915060ff191682840152151560051b820101386117e3565b906020916118748151809281855285808601910161175a565b601f01601f1916010190565b6002111561188a57565b634e487b7160e01b600052602160045260246000fd5b9080602083519182815201916020808360051b8301019401926000915b8383106118cc57505050505090565b90919293946020806118ea600193601f19868203018752895161185b565b970193019301919392906118bd565b602081016020825282518091526040820191602060408360051b8301019401926000915b83831061192c57505050505090565b90919293946020806119c9600193603f1986820301875289519060c0611998611986611974611964865160e0875260e087019061185b565b888701518682038a88015261185b565b6040860151858203604087015261185b565b6060850151848203606086015261185b565b9260ff608082015116608084015260a08101516119b481611880565b60a084015201519060c081840391015261185b565b9701930193019193929061191d565b93611a2890611a1a60ff95611a0c611a36966117579c9a966119f981611880565b8a5260e060208b015260e08a019061185b565b9088820360408a015261185b565b90868203606088015261185b565b90848203608086015261185b565b931660a082015260c081840391015261185b565b60406003198201126102d157600435906001600160401b0382116102d157611a7491600401611599565b9060243590565b8054821015611a97576000526005602060002091020190600090565b634e487b7160e01b600052603260045260246000fd5b600054811015611a97576000805260206000200190600090565b600154811015611a9757600160005260206000200190600090565b8054821015611a975760005260206000200190600090565b90611b0481611880565b60ff80198354169116179055565b818110611b1d575050565b60008155600101611b12565b8054906000815581611b39575050565b6000526020600020908101905b818110611b51575050565b80611b5e6001925461177d565b80611b6b575b5001611b46565b601f81118314611b815750600081555b38611b64565b611b9f908260005283601f6020600020920160051c82019101611b12565b8060005260006020812081835555611b7b565b90600160401b811161064e57815491818155828210611bd057505050565b600052602060002091820191015b818110611be9575050565b80611bf66001925461177d565b80611c03575b5001611bde565b601f81118314611c195750600081555b38611bfc565b611c37908260005283601f6020600020920160051c82019101611b12565b8060005260006020812081835555611c13565b8051821015611a975760209160051b010190565b91909182516001600160401b03811161064e57611c7b825461177d565b601f8111611d21575b506020601f8211600114611cbf5781929394600092611cb4575b50508160011b916000199060031b1c1916179055565b015190503880611c9e565b601f1982169083600052806000209160005b818110611d0957509583600195969710611cf0575b505050811b019055565b015160001960f88460031b161c19169055388080611ce6565b9192602060018192868b015181550194019201611cd1565b611d4e90836000526020600020601f840160051c81019160208510611d54575b601f0160051c0190611b12565b38611c84565b9091508190611d41565b8054600160401b81101561064e57611d7b91600182018155611ae2565b919091610638576117f091611c5e565b600660c06117f093611da78151611da181611880565b85611afa565b611db8602082015160018601611c5e565b611dc9604082015160028601611c5e565b611dda606082015160038601611c5e565b611deb608082015160048601611c5e565b60ff60a08201511660ff60058601911660ff1982541617905501519101611c5e565b908154611e19816115ef565b92611e276040519485611578565b818452602084019060005260206000206000915b838310611e485750505050565b600160208192611e57856117b7565b815201920192019190611e3b565b15611e6c57565b60405162461bcd60e51b815260206004820152600a602482015269125b9d985b1a5908125160b21b6044820152606490fd5b60009291815491611eae8361177d565b9260018116908115611ef95750600114611ec757505050565b909192935060005260206000206000905b838210611ee55750500190565b600181602092548486015201910190611ed8565b60ff191683525050811515909102019150565b6000198114611f1b5760010190565b634e487b7160e01b600052601160045260246000fd5b90611f3b826115ef565b611f486040519182611578565b8281528092611f59601f19916115ef565b019060005b828110611f6a57505050565b602090604051611f7981611526565b606081526060838201526060604082015260608082015260006080820152600060a0820152606060c082015282828501015201611f5e565b90604051611fbe81611526565b60c061202e6006839560ff815416611fd581611880565b8552611fe3600182016117b7565b6020860152611ff4600282016117b7565b6040860152612005600382016117b7565b6060860152612016600482016117b7565b608086015260ff60058201541660a0860152016117b7565b91015256fea2646970667358221220b18e0cf7fa9b3baaa9a33eb9c39963e8ab8ec9dfa17d2f5897459f3c2fe2e2e464736f6c634300081b0033",
  "linkReferences": {},
  "deployedLinkReferences": {}
}