{
  "_format": "hh-sol-artifact-1",
  "contractName": "ObatShared",
  "sourceName": "contracts/ObatShared.sol",
  "abi": [
    {
      "inputs": [
        {
          "internalType": "string",
          "name": "_obatId",
          "type": "string"
        },
        {
          "internalType": "string",
          "name": "_namaProduk",
          "type": "string"
        },
        {
          "internalType": "string",
          "name": "_batchName",
          "type": "string"
        },
        {
          "internalType": "uint8",
          "name": "_obatQuantity",
          "type": "uint8"
        },
        {
          "internalType": "string[]",
          "name": "_obatIpfs",
          "type": "string[]"
        },
        {
          "internalType": "string",
          "name": "_factoryInstance",
          "type": "string"
        }
      ],
      "name": "addBatchProduction",
      "outputs": [],
      "stateMutability": "nonpayable",
      "type": "function"
    },
    {
      "inputs": [
        {
          "internalType": "string",
          "name": "_obatId",
          "type": "string"
        },
        {
          "internalType": "string",
          "name": "_cdobHash",
          "type": "string"
        }
      ],
      "name": "addCdobId",
      "outputs": [],
      "stateMutability": "nonpayable",
      "type": "function"
    },
    {
      "inputs": [
        {
          "internalType": "string",
          "name": "_obatId",
          "type": "string"
        },
        {
          "internalType": "string",
          "name": "_orderId",
          "type": "string"
        },
        {
          "internalType": "string",
          "name": "_namaProduk",
          "type": "string"
        },
        {
          "internalType": "string",
          "name": "_batchName",
          "type": "string"
        },
        {
          "internalType": "uint8",
          "name": "_obatQuantity",
          "type": "uint8"
        },
        {
          "internalType": "string[]",
          "name": "_obatIpfs",
          "type": "string[]"
        },
        {
          "internalType": "string",
          "name": "_pbfInstance",
          "type": "string"
        }
      ],
      "name": "addObatPbf",
      "outputs": [],
      "stateMutability": "nonpayable",
      "type": "function"
    },
    {
      "inputs": [
        {
          "internalType": "string",
          "name": "_obatId",
          "type": "string"
        },
        {
          "internalType": "string",
          "name": "_orderId",
          "type": "string"
        },
        {
          "internalType": "string",
          "name": "_namaProduk",
          "type": "string"
        },
        {
          "internalType": "string",
          "name": "_batchName",
          "type": "string"
        },
        {
          "internalType": "uint8",
          "name": "_obatQuantity",
          "type": "uint8"
        },
        {
          "internalType": "string[]",
          "name": "_obatIpfs",
          "type": "string[]"
        },
        {
          "internalType": "string",
          "name": "_retailerInstance",
          "type": "string"
        }
      ],
      "name": "addObatRetailer",
      "outputs": [],
      "stateMutability": "nonpayable",
      "type": "function"
    },
    {
      "inputs": [
        {
          "internalType": "string",
          "name": "_pbfInstance",
          "type": "string"
        }
      ],
      "name": "getAllObatPbfByInstance",
      "outputs": [
        {
          "components": [
            {
              "internalType": "string",
              "name": "orderId",
              "type": "string"
            },
            {
              "internalType": "string",
              "name": "obatId",
              "type": "string"
            },
            {
              "internalType": "string",
              "name": "namaProduk",
              "type": "string"
            },
            {
              "internalType": "string",
              "name": "batchName",
              "type": "string"
            },
            {
              "internalType": "uint8",
              "name": "obatQuantity",
              "type": "uint8"
            },
            {
              "internalType": "enum EnumsLibrary.ObatAvailability",
              "name": "statusStok",
              "type": "uint8"
            },
            {
              "internalType": "string",
              "name": "ownerInstance",
              "type": "string"
            }
          ],
          "internalType": "struct ObatShared.st_obatOutputStock[]",
          "name": "",
          "type": "tuple[]"
        }
      ],
      "stateMutability": "view",
      "type": "function"
    },
    {
      "inputs": [],
      "name": "getAllObatPbfReadyStock",
      "outputs": [
        {
          "components": [
            {
              "internalType": "string",
              "name": "orderId",
              "type": "string"
            },
            {
              "internalType": "string",
              "name": "obatId",
              "type": "string"
            },
            {
              "internalType": "string",
              "name": "namaProduk",
              "type": "string"
            },
            {
              "internalType": "string",
              "name": "batchName",
              "type": "string"
            },
            {
              "internalType": "uint8",
              "name": "obatQuantity",
              "type": "uint8"
            },
            {
              "internalType": "enum EnumsLibrary.ObatAvailability",
              "name": "statusStok",
              "type": "uint8"
            },
            {
              "internalType": "string",
              "name": "ownerInstance",
              "type": "string"
            }
          ],
          "internalType": "struct ObatShared.st_obatOutputStock[]",
          "name": "",
          "type": "tuple[]"
        }
      ],
      "stateMutability": "view",
      "type": "function"
    },
    {
      "inputs": [
        {
          "internalType": "string",
          "name": "_retailerInstance",
          "type": "string"
        }
      ],
      "name": "getAllObatRetailerByInstance",
      "outputs": [
        {
          "components": [
            {
              "internalType": "string",
              "name": "orderId",
              "type": "string"
            },
            {
              "internalType": "string",
              "name": "obatId",
              "type": "string"
            },
            {
              "internalType": "string",
              "name": "namaProduk",
              "type": "string"
            },
            {
              "internalType": "string",
              "name": "batchName",
              "type": "string"
            },
            {
              "internalType": "uint8",
              "name": "obatQuantity",
              "type": "uint8"
            },
            {
              "internalType": "enum EnumsLibrary.ObatAvailability",
              "name": "statusStok",
              "type": "uint8"
            },
            {
              "internalType": "string",
              "name": "ownerInstance",
              "type": "string"
            }
          ],
          "internalType": "struct ObatShared.st_obatOutputStock[]",
          "name": "",
          "type": "tuple[]"
        }
      ],
      "stateMutability": "view",
      "type": "function"
    },
    {
      "inputs": [
        {
          "internalType": "string",
          "name": "_obatId",
          "type": "string"
        }
      ],
      "name": "getObatDetail",
      "outputs": [
        {
          "components": [
            {
              "internalType": "string",
              "name": "merk",
              "type": "string"
            },
            {
              "internalType": "string",
              "name": "namaProduk",
              "type": "string"
            },
            {
              "internalType": "string[]",
              "name": "klaim",
              "type": "string[]"
            },
            {
              "internalType": "string[]",
              "name": "komposisi",
              "type": "string[]"
            },
            {
              "internalType": "string",
              "name": "kemasan",
              "type": "string"
            },
            {
              "internalType": "string",
              "name": "factoryInstance",
              "type": "string"
            },
            {
              "internalType": "address",
              "name": "factoryAddr",
              "type": "address"
            },
            {
              "internalType": "enum EnumsLibrary.TipePermohonanCdob",
              "name": "tipeObat",
              "type": "uint8"
            },
            {
              "internalType": "string",
              "name": "cpotbHash",
              "type": "string"
            },
            {
              "internalType": "string",
              "name": "cdobHash",
              "type": "string"
            },
            {
              "internalType": "string",
              "name": "jenisObat",
              "type": "string"
            }
          ],
          "internalType": "struct ObatShared.st_obatDetails",
          "name": "",
          "type": "tuple"
        }
      ],
      "stateMutability": "view",
      "type": "function"
    },
    {
      "inputs": [
        {
          "internalType": "string",
          "name": "_batchName",
          "type": "string"
        }
      ],
      "name": "getObatIpfsByBatchName",
      "outputs": [
        {
          "internalType": "string[]",
          "name": "",
          "type": "string[]"
        }
      ],
      "stateMutability": "view",
      "type": "function"
    },
    {
      "inputs": [
        {
          "internalType": "string",
          "name": "_obatId",
          "type": "string"
        }
      ],
      "name": "getObatProduction",
      "outputs": [
        {
          "components": [
            {
              "internalType": "enum EnumsLibrary.ObatAvailability",
              "name": "statusStok",
              "type": "uint8"
            },
            {
              "internalType": "string",
              "name": "namaProduk",
              "type": "string"
            },
            {
              "internalType": "string",
              "name": "batchName",
              "type": "string"
            },
            {
              "internalType": "uint8",
              "name": "obatQuantity",
              "type": "uint8"
            },
            {
              "internalType": "string",
              "name": "factoryInstance",
              "type": "string"
            }
          ],
          "internalType": "struct ObatShared.st_obatProduction[]",
          "name": "",
          "type": "tuple[]"
        }
      ],
      "stateMutability": "view",
      "type": "function"
    },
    {
      "inputs": [
        {
          "internalType": "string",
          "name": "",
          "type": "string"
        }
      ],
      "name": "obatDetailsById",
      "outputs": [
        {
          "internalType": "string",
          "name": "merk",
          "type": "string"
        },
        {
          "internalType": "string",
          "name": "namaProduk",
          "type": "string"
        },
        {
          "internalType": "string",
          "name": "kemasan",
          "type": "string"
        },
        {
          "internalType": "string",
          "name": "factoryInstance",
          "type": "string"
        },
        {
          "internalType": "address",
          "name": "factoryAddr",
          "type": "address"
        },
        {
          "internalType": "enum EnumsLibrary.TipePermohonanCdob",
          "name": "tipeObat",
          "type": "uint8"
        },
        {
          "internalType": "string",
          "name": "cpotbHash",
          "type": "string"
        },
        {
          "internalType": "string",
          "name": "cdobHash",
          "type": "string"
        },
        {
          "internalType": "string",
          "name": "jenisObat",
          "type": "string"
        }
      ],
      "stateMutability": "view",
      "type": "function"
    },
    {
      "inputs": [
        {
          "internalType": "string",
          "name": "",
          "type": "string"
        },
        {
          "internalType": "uint256",
          "name": "",
          "type": "uint256"
        }
      ],
      "name": "obatIpfsbyBatchName",
      "outputs": [
        {
          "internalType": "string",
          "name": "",
          "type": "string"
        }
      ],
      "stateMutability": "view",
      "type": "function"
    },
    {
      "inputs": [
        {
          "internalType": "string",
          "name": "",
          "type": "string"
        }
      ],
      "name": "obatPbfBatchName",
      "outputs": [
        {
          "internalType": "enum EnumsLibrary.ObatAvailability",
          "name": "statusStok",
          "type": "uint8"
        },
        {
          "internalType": "string",
          "name": "obatId",
          "type": "string"
        },
        {
          "internalType": "string",
          "name": "orderId",
          "type": "string"
        },
        {
          "internalType": "string",
          "name": "namaProduk",
          "type": "string"
        },
        {
          "internalType": "string",
          "name": "batchName",
          "type": "string"
        },
        {
          "internalType": "uint8",
          "name": "obatQuantity",
          "type": "uint8"
        },
        {
          "internalType": "string",
          "name": "pbfInstance",
          "type": "string"
        }
      ],
      "stateMutability": "view",
      "type": "function"
    },
    {
      "inputs": [
        {
          "internalType": "string",
          "name": "",
          "type": "string"
        },
        {
          "internalType": "uint256",
          "name": "",
          "type": "uint256"
        }
      ],
      "name": "obatProductionById",
      "outputs": [
        {
          "internalType": "enum EnumsLibrary.ObatAvailability",
          "name": "statusStok",
          "type": "uint8"
        },
        {
          "internalType": "string",
          "name": "namaProduk",
          "type": "string"
        },
        {
          "internalType": "string",
          "name": "batchName",
          "type": "string"
        },
        {
          "internalType": "uint8",
          "name": "obatQuantity",
          "type": "uint8"
        },
        {
          "internalType": "string",
          "name": "factoryInstance",
          "type": "string"
        }
      ],
      "stateMutability": "view",
      "type": "function"
    },
    {
      "inputs": [
        {
          "internalType": "string",
          "name": "",
          "type": "string"
        }
      ],
      "name": "obatRetailerBatchName",
      "outputs": [
        {
          "internalType": "enum EnumsLibrary.ObatAvailability",
          "name": "statusStok",
          "type": "uint8"
        },
        {
          "internalType": "string",
          "name": "obatId",
          "type": "string"
        },
        {
          "internalType": "string",
          "name": "orderId",
          "type": "string"
        },
        {
          "internalType": "string",
          "name": "namaProduk",
          "type": "string"
        },
        {
          "internalType": "string",
          "name": "batchName",
          "type": "string"
        },
        {
          "internalType": "uint8",
          "name": "obatQuantity",
          "type": "uint8"
        },
        {
          "internalType": "string",
          "name": "retailerInstance",
          "type": "string"
        }
      ],
      "stateMutability": "view",
      "type": "function"
    },
    {
      "inputs": [
        {
          "internalType": "string",
          "name": "_obatId",
          "type": "string"
        },
        {
          "internalType": "string",
          "name": "_merk",
          "type": "string"
        },
        {
          "internalType": "string",
          "name": "_namaProduk",
          "type": "string"
        },
        {
          "internalType": "string[]",
          "name": "_klaim",
          "type": "string[]"
        },
        {
          "internalType": "string[]",
          "name": "_komposisi",
          "type": "string[]"
        },
        {
          "internalType": "string",
          "name": "_kemasan",
          "type": "string"
        },
        {
          "internalType": "string",
          "name": "_factoryInstance",
          "type": "string"
        },
        {
          "internalType": "address",
          "name": "_factoryAddr",
          "type": "address"
        },
        {
          "internalType": "enum EnumsLibrary.TipePermohonanCdob",
          "name": "_tipeObat",
          "type": "uint8"
        },
        {
          "internalType": "string",
          "name": "_cpotbHash",
          "type": "string"
        },
        {
          "internalType": "string",
          "name": "_jenisObat",
          "type": "string"
        }
      ],
      "name": "setObatDetail",
      "outputs": [],
      "stateMutability": "nonpayable",
      "type": "function"
    },
    {
      "inputs": [
        {
          "internalType": "string",
          "name": "_obatId",
          "type": "string"
        },
        {
          "internalType": "string",
          "name": "_batchName",
          "type": "string"
        },
        {
          "internalType": "string[]",
          "name": "_obatIpfs",
          "type": "string[]"
        }
      ],
      "name": "updateBatchProduction",
      "outputs": [],
      "stateMutability": "nonpayable",
      "type": "function"
    },
    {
      "inputs": [
        {
          "internalType": "string",
          "name": "_obatId",
          "type": "string"
        },
        {
          "internalType": "string",
          "name": "_merk",
          "type": "string"
        },
        {
          "internalType": "string",
          "name": "_namaProduk",
          "type": "string"
        },
        {
          "internalType": "string[]",
          "name": "_klaim",
          "type": "string[]"
        },
        {
          "internalType": "string[]",
          "name": "_komposisi",
          "type": "string[]"
        },
        {
          "internalType": "string",
          "name": "_kemasan",
          "type": "string"
        },
        {
          "internalType": "enum EnumsLibrary.TipePermohonanCdob",
          "name": "_tipeObat",
          "type": "uint8"
        },
        {
          "internalType": "string",
          "name": "_jenisObat",
          "type": "string"
        }
      ],
      "name": "updateObatDetail",
      "outputs": [],
      "stateMutability": "nonpayable",
      "type": "function"
    },
    {
      "inputs": [
        {
          "internalType": "string",
          "name": "_batchName",
          "type": "string"
        },
        {
          "internalType": "string[]",
          "name": "_obatIpfs",
          "type": "string[]"
        }
      ],
      "name": "updateObatPbf",
      "outputs": [],
      "stateMutability": "nonpayable",
      "type": "function"
    }
  ],
  "bytecode": "0x608080604052346015576124de908161001a8239f35b5f80fdfe60806040526004361015610011575f80fd5b5f3560e01c80627481d91461190f57806301fabf1f146118205780631b544bfc1461172e57806327321837146115e357806361009862146115795780638b8df23e1461125b5780638d57ba0a146110a7578063906ce01714610f565780639ad9e15314610ef75780639d8ec71914610e50578063ba2ffe4c14610d92578063c72c731414610d0f578063c74acb8b14610cad578063d658267214610a0a578063e1336da5146108b6578063e521d586146106b7578063e9c14cb814610541578063efdce185146102e15763f07b2c7a146100e9575f80fd5b346102dd5760203660031901126102dd576004356001600160401b0381116102dd57610119903690600401611a4d565b5f906040516101476020828180820195805191829101875e81015f838201520301601f198101835282611a2c565b519020905f905f54915b8281106102895750610162906123a9565b915f905f5b838110610180576040518061017c8782611d7f565b0390f35b81600661019e602061019185611f2d565b506040519283809261231d565b6004815203019020016040516101ca816101bc60208201809561231d565b03601f198101835282611a2c565b519020146101db575b600101610167565b916102816001916102006101f3602061019188611f2d565b6004815203019020612426565b6040810151906020810151906060810151608082015160ff60a0840151169160c084519461022d86611d09565b0151946040519661023d886119da565b8752602087015260408601526060850152608084015261025c81611d09565b60a083015260c082015261027082896120b0565b5261027b81886120b0565b50612387565b9290506101d3565b83600661029a602061019185611f2d565b6004815203019020016040516102b8816101bc60208201809561231d565b519020146102c9575b600101610151565b906102d5600191612387565b9190506102c1565b5f80fd5b346102dd576101003660031901126102dd576004356001600160401b0381116102dd57610312903690600401611a4d565b6024356001600160401b0381116102dd57610331903690600401611a4d565b6044356001600160401b0381116102dd57610350903690600401611a4d565b916064356001600160401b0381116102dd57610370903690600401611ab9565b6084356001600160401b0381116102dd5761038f903690600401611ab9565b60a4356001600160401b0381116102dd576103ae903690600401611a4d565b9060c4359260028410156102dd5760e4356001600160401b0381116102dd576103db903690600401611a4d565b956040519786519880602089019a808c835e81016002815203602001902060010190610406916120c4565b604051808751808b835e81016002815203602001902090610426916120c4565b604051808651808a835e81016002815203602001902060020181519161044c838361201f565b602001905f5260205f205f915b838310610524575050505060036040516020818751808b835e8101600281520301902001602082519261048c848461201f565b01905f5260205f205f915b838310610507576105058860098b60208b6104ea8c6104cd8d600460405187818851808c835e81016002815203019020016120c4565b600660405185818651808a835e81016002815203019020016122f9565b604051928391518091835e81016002815203019020016120c4565b005b6001602082610518839451866120c4565b01920192019190610497565b6001602082610535839451866120c4565b01920192019190610459565b346102dd5760603660031901126102dd576004356001600160401b0381116102dd57610571903690600401611a4d565b6024356001600160401b0381116102dd57610590903690600401611a4d565b6044356001600160401b0381116102dd5760206105b281923690600401611ab9565b93604051928184925191829101835e8101600381520301902090604051906105f0815192602081818501958087835e81016006815203019020611f9e565b5f5b845181101561062e5760019061062860405160208186518089835e8101600681520301902061062183896120b0565b51906121bc565b016105f2565b50906106596020604051809382820195518091875e81015f838201520301601f198101835282611a2c565b5190205f5b8254811015610505578160026101bc61068e61067a8588611f00565b50604051928391602083019586910161231d565b5190201461069e5760010161065e565b90506106a991611f00565b50805460ff19166001179055005b346102dd5760c03660031901126102dd576004356001600160401b0381116102dd576106e7903690600401611a4d565b6024356001600160401b0381116102dd57610706903690600401611a4d565b6044356001600160401b0381116102dd57610725903690600401611a4d565b6064359160ff83168093036102dd576084356001600160401b0381116102dd57610753903690600401611ab9565b9160a4356001600160401b0381116102dd57610773903690600401611a4d565b916040519461078186611a11565b5f865260208601918252604086018381526060870191825260808701948552604051946107c485519660208181890199808b835e81016006815203019020611f9e565b5f5b87518110156107fb576001906107f56040516020818a51808d835e81016006815203019020610621838c6120b0565b016107c6565b50876020808b604051928184925191829101835e810160038152030190208054600160401b8110156108a25761083691600182018155611f00565b94909461088f5761087460049461086a6105059861086060ff965161085a81611d09565b8a611f70565b51600189016120c4565b51600287016120c4565b511660ff60038501911660ff198254161790555191016120c4565b634e487b7160e01b5f525f60045260245ffd5b634e487b7160e01b5f52604160045260245ffd5b346102dd5760203660031901126102dd576004356001600160401b0381116102dd576108e6903690600401611a4d565b5f906040516109146020828180820195805191829101875e81015f838201520301601f198101835282611a2c565b51902060015490915f5b8281106109b6575061092f906123a9565b915f905f5b838110610949576040518061017c8782611d7f565b81600661095a602061019185611f43565b600581520301902001604051610978816101bc60208201809561231d565b51902014610989575b600101610934565b916109ae6001916102006109a1602061019188611f43565b6005815203019020612426565b929050610981565b8360066109c7602061019185611f43565b6005815203019020016040516109e5816101bc60208201809561231d565b519020146109f6575b60010161091e565b90610a02600191612387565b9190506109ee565b346102dd5760203660031901126102dd576004356001600160401b0381116102dd57610a3a903690600401611a4d565b604051610a46816119f5565b60608152602081016060905260408101606090526060810160609052608081016060905260a081016060905260c081015f905260e081015f9052610100810160609052610120810160609052610140016060905280511515610aa7906122c0565b604051818192516020819201835e810160028152036020019020604051610acd816119f5565b610ad682611c45565b8152610ae460018301611c45565b6020820190815291610af86002820161226b565b6040830190815290610b0c6003820161226b565b60608401908152610b1f60048301611c45565b6080850190815290610b3360058401611c45565b60a086810191825260068501546001600160a01b03811660c089019081529460e089019392909160ff911c16610b6881611d09565b8352610b7660078701611c45565b610100890190815293610b8b60088801611c45565b966101208a01978852600901610ba090611c45565b976101408a019889526040519a8b9a60208c525160208c0161016090526101808c01610bcb91611ce5565b90518b8203601f190160408d0152610be39190611ce5565b90518a8203601f190160608c0152610bfb9190611d27565b9051898203601f190160808b0152610c139190611d27565b9051888203601f190160a08a0152610c2b9190611ce5565b9051878203601f190160c0890152610c439190611ce5565b92516001600160a01b031660e087015251610c5d81611d09565b61010086015251848203601f1901610120860152610c7b9190611ce5565b9051838203601f1901610140850152610c949190611ce5565b9051828203601f190161016084015261017c9190611ce5565b346102dd57602080610cbe36611ecf565b9290604051928184925191829101835e810160068152030190209081548110156102dd57610ceb91611f5b565b61088f57610cfb61017c91611c45565b604051918291602083526020830190611ce5565b346102dd5760403660031901126102dd576004356001600160401b0381116102dd57610d3f903690600401611a4d565b602435906001600160401b0382116102dd576008602080610d67610505953690600401611a4d565b93610d74815115156122c0565b604051928184925191829101835e81016002815203019020016120c4565b346102dd57602080610da336611ecf565b9290604051928184925191829101835e810160038152030190209081548110156102dd57610dd091611f00565b5060ff81541661017c610de560018401611c45565b92610df260028201611c45565b610e3d610e09600460ff6003860154169401611c45565b91610e2f6040519787610e1c8a99611d09565b885260a0602089015260a0880190611ce5565b908682036040880152611ce5565b9160608501528382036080850152611ce5565b346102dd5760203660031901126102dd576004356001600160401b0381116102dd576020610e8381923690600401611a4d565b604051928184925191829101835e8101600481520301902060ff81541661017c610eaf60018401611c45565b92610ebc60028201611c45565b90610ec960038201611c45565b610ed560048301611c45565b90610eea600660ff6005860154169401611c45565b9360405197889788611e5d565b346102dd5760203660031901126102dd576004356001600160401b0381116102dd576020610f2a81923690600401611a4d565b604051928184925191829101835e8101600581520301902060ff81541661017c610eaf60018401611c45565b346102dd575f3660031901126102dd575f805490805b8281106110625750610f7d906123a9565b905f5f5b828110610f96576040518061017c8682611d7f565b60ff610fa6602061019184611f2d565b60048152030190205416610fb981611d09565b15610fc7575b600101610f81565b9061105a600191610fdf6101f3602061019187611f2d565b6040810151906020810151906060810151608082015160ff60a0840151169160c084519461100c86611d09565b0151946040519661101c886119da565b8752602087015260408601526060850152608084015261103b81611d09565b60a083015260c082015261104f82886120b0565b5261027b81876120b0565b919050610fbf565b60ff611072602061019184611f2d565b6004815203019020541661108581611d09565b15611093575b600101610f6c565b9061109f600191612387565b91905061108b565b346102dd5760203660031901126102dd576004356001600160401b0381116102dd5760206110da81923690600401611a4d565b6110e6815115156122c0565b604051928184925191829101835e8101600381520301902080549061110a82611aa2565b916111186040519384611a2c565b8083526020830180925f5260205f205f915b8383106111ec57848660405191829160208301906020845251809152604083019060408160051b85010192915f905b82821061116857505050500390f35b919360019193955060206111dc8192603f198a8203018652885190815161118e81611d09565b815260806111be6111ac8685015160a08886015260a0850190611ce5565b60408501518482036040860152611ce5565b9260ff60608201511660608401520151906080818403910152611ce5565b9601920192018594939192611159565b600560206001926040516111ff81611a11565b60ff86541661120d81611d09565b815261121a858701611c45565b8382015261122a60028701611c45565b604082015260ff600387015416606082015261124860048701611c45565b608082015281520192019201919061112a565b346102dd576101603660031901126102dd576004356001600160401b0381116102dd5761128c903690600401611a4d565b6024356001600160401b0381116102dd576112ab903690600401611a4d565b6044356001600160401b0381116102dd576112ca903690600401611a4d565b6064356001600160401b0381116102dd576112e9903690600401611ab9565b926084356001600160401b0381116102dd57611309903690600401611ab9565b9060a4356001600160401b0381116102dd57611329903690600401611a4d565b9060c4356001600160401b0381116102dd57611349903690600401611a4d565b60e4356001600160a01b03811693908490036102dd57610104359260028410156102dd57610124356001600160401b0381116102dd5761138d903690600401611a4d565b95610144356001600160401b0381116102dd576113ae903690600401611a4d565b99825115156113bc906122c0565b604051996113c98b6119f5565b8a5260208a0198895260408a0190815260608a0191825260808a0193845260a08a0194855260c08a0196875260e08a019561140381611d09565b86526101008a01978852602098898080956040519c611422908e611a2c565b5f8d528d61012081019d8e52610140019e8f52604051928184925191829101835e810160028152030190209a51611459908c6120c4565b516114679060018c016120c4565b60028a019051908382519261147c848461201f565b01905f52835f20845f925b84841061155b57505050505060038901905191808351936114a8858561201f565b01915f52805f205f925b84841061153f5750505050509361152361153794600997946114ee61152d956114e48c60046105059f9c5191016120c4565b5160058c016120c4565b60068a019160018060a01b039051166bffffffffffffffffffffffff60a01b835416178255519061151e82611d09565b6122f9565b51600787016120c4565b51600885016120c4565b5191016120c4565b6001838261154f839451866120c4565b019201930192906114b2565b6001918161156b849351866120c4565b019201920191908590611487565b346102dd5760203660031901126102dd576004356001600160401b0381116102dd576115cf6020806115b261017c943690600401611a4d565b604051928184925191829101835e8101600681520301902061226b565b604051918291602083526020830190611d27565b346102dd5760203660031901126102dd576004356001600160401b0381116102dd57611613903690600401611a4d565b604051818192516020819201835e81016002815203602001902061163681611c45565b61164260018301611c45565b9161164f60048201611c45565b9061165c60058201611c45565b60068201548060a01c60ff166007840161167590611c45565b9261168260088601611c45565b9460090161168f90611c45565b956040519889986101208a526101208a016116a991611ce5565b89810360208b01526116ba91611ce5565b88810360408a01526116cb91611ce5565b87810360608901526116dc91611ce5565b6001600160a01b0390921660808701526116f581611d09565b60a086015284810360c086015261170b91611ce5565b83810360e085015261171c91611ce5565b82810361010084015261017c91611ce5565b346102dd5760ff61173e36611b37565b939096929460405196611750886119da565b5f88526020880152604087015260608601528360808601521660a084015260c083015260405190611797815192602081818501958087835e81016006815203019020611f9e565b5f5b84518110156117ce576001906117c860405160208186518089835e8101600681520301902061062183896120b0565b01611799565b509250600154600160401b8110156108a2578060016117f292016001556001611f5b565b61088f5783611806610505956020936120c4565b604051928391518091835e810160058152030190206121e9565b346102dd5760ff61183036611b37565b939096929460405196611842886119da565b5f88526020880152604087015260608601528360808601521660a084015260c083015260405190611889815192602081818501958087835e81016006815203019020611f9e565b5f5b84518110156118c0576001906118ba60405160208186518089835e8101600681520301902061062183896120b0565b0161188b565b5092505f54600160401b8110156108a2578060016118e192015f555f611f5b565b61088f57836118f5610505956020936120c4565b604051928391518091835e810160048152030190206121e9565b346102dd5760403660031901126102dd576004356001600160401b0381116102dd5761193f903690600401611a4d565b6024356001600160401b0381116102dd5761195e903690600401611ab9565b60405191805192602081818401958087835e81016004815203019020600160ff198254161790556119a360405160208184518088835e81016006815203019020611f9e565b5f5b8251811015610505576001906119d46040516020818651808a835e8101600681520301902061062183876120b0565b016119a5565b60e081019081106001600160401b038211176108a257604052565b61016081019081106001600160401b038211176108a257604052565b60a081019081106001600160401b038211176108a257604052565b90601f801991011681019081106001600160401b038211176108a257604052565b81601f820112156102dd578035906001600160401b0382116108a25760405192611a81601f8401601f191660200185611a2c565b828452602083830101116102dd57815f926020809301838601378301015290565b6001600160401b0381116108a25760051b60200190565b9080601f830112156102dd578135611ad081611aa2565b92611ade6040519485611a2c565b81845260208085019260051b820101918383116102dd5760208201905b838210611b0a57505050505090565b81356001600160401b0381116102dd57602091611b2c87848094880101611a4d565b815201910190611afb565b60e06003198201126102dd576004356001600160401b0381116102dd5781611b6191600401611a4d565b916024356001600160401b0381116102dd5782611b8091600401611a4d565b916044356001600160401b0381116102dd5781611b9f91600401611a4d565b916064356001600160401b0381116102dd5782611bbe91600401611a4d565b9160843560ff811681036102dd579160a4356001600160401b0381116102dd5782611beb91600401611ab9565b9160c435906001600160401b0382116102dd57611c0a91600401611a4d565b90565b90600182811c92168015611c3b575b6020831014611c2757565b634e487b7160e01b5f52602260045260245ffd5b91607f1691611c1c565b9060405191825f825492611c5884611c0d565b8084529360018116908115611cc35750600114611c7f575b50611c7d92500383611a2c565b565b90505f9291925260205f20905f915b818310611ca7575050906020611c7d928201015f611c70565b6020919350806001915483858901015201910190918492611c8e565b905060209250611c7d94915060ff191682840152151560051b8201015f611c70565b805180835260209291819084018484015e5f828201840152601f01601f1916010190565b60021115611d1357565b634e487b7160e01b5f52602160045260245ffd5b9080602083519182815201916020808360051b8301019401925f915b838310611d5257505050505090565b9091929394602080611d70600193601f198682030187528951611ce5565b97019301930191939290611d43565b602081016020825282518091526040820191602060408360051b8301019401925f915b838310611db157505050505090565b9091929394602080611e4e600193603f1986820301875289519060c0611e1d611e0b611df9611de9865160e0875260e0870190611ce5565b888701518682038a880152611ce5565b60408601518582036040870152611ce5565b60608501518482036060860152611ce5565b9260ff608082015116608084015260a0810151611e3981611d09565b60a084015201519060c0818403910152611ce5565b97019301930191939290611da2565b93611ead90611e9f60ff95611e91611ebb96611c0a9c9a96611e7e81611d09565b8a5260e060208b015260e08a0190611ce5565b9088820360408a0152611ce5565b908682036060880152611ce5565b908482036080860152611ce5565b931660a082015260c0818403910152611ce5565b60406003198201126102dd57600435906001600160401b0382116102dd57611ef991600401611a4d565b9060243590565b8054821015611f19575f52600560205f20910201905f90565b634e487b7160e01b5f52603260045260245ffd5b5f54811015611f19575f805260205f2001905f90565b600154811015611f195760015f5260205f2001905f90565b8054821015611f19575f5260205f2001905f90565b90611f7a81611d09565b60ff80198354169116179055565b818110611f93575050565b5f8155600101611f88565b8054905f815581611fad575050565b5f5260205f20908101905b818110611fc3575050565b80611fd060019254611c0d565b80611fdd575b5001611fb8565b601f81118314611ff257505f81555b5f611fd6565b61200e90825f5283601f60205f20920160051c82019101611f88565b805f525f6020812081835555611fec565b90600160401b81116108a25781549181815582821061203d57505050565b5f5260205f2091820191015b818110612054575050565b8061206160019254611c0d565b8061206e575b5001612049565b601f8111831461208357505f81555b5f612067565b61209f90825f5283601f60205f20920160051c82019101611f88565b805f525f602081208183555561207d565b8051821015611f195760209160051b010190565b91909182516001600160401b0381116108a2576120e18254611c0d565b601f8111612181575b506020601f821160011461212357819293945f92612118575b50508160011b915f199060031b1c1916179055565b015190505f80612103565b601f19821690835f52805f20915f5b81811061216957509583600195969710612151575b505050811b019055565b01515f1960f88460031b161c191690555f8080612147565b9192602060018192868b015181550194019201612132565b6121ac90835f5260205f20601f840160051c810191602085106121b2575b601f0160051c0190611f88565b5f6120ea565b909150819061219f565b8054600160401b8110156108a2576121d991600182018155611f5b565b91909161088f57611c7d916120c4565b600660c0611c7d9361220581516121ff81611d09565b85611f70565b6122166020820151600186016120c4565b6122276040820151600286016120c4565b6122386060820151600386016120c4565b6122496080820151600486016120c4565b60ff60a08201511660ff60058601911660ff19825416179055015191016120c4565b90815461227781611aa2565b926122856040519485611a2c565b81845260208401905f5260205f205f915b8383106122a35750505050565b6001602081926122b285611c45565b815201920192019190612296565b156122c757565b60405162461bcd60e51b815260206004820152600a602482015269125b9d985b1a5908125160b21b6044820152606490fd5b9061230381611d09565b815460ff60a01b191660a09190911b60ff60a01b16179055565b5f929181549161232c83611c0d565b9260018116908115612374575060011461234557505050565b90919293505f5260205f205f905b8382106123605750500190565b600181602092548486015201910190612353565b60ff191683525050811515909102019150565b5f1981146123955760010190565b634e487b7160e01b5f52601160045260245ffd5b906123b382611aa2565b6123c06040519182611a2c565b82815280926123d1601f1991611aa2565b01905f5b8281106123e157505050565b6020906040516123f0816119da565b60608152606083820152606060408201526060808201525f60808201525f60a0820152606060c0820152828285010152016123d5565b90604051612433816119da565b60c06124a36006839560ff81541661244a81611d09565b855261245860018201611c45565b602086015261246960028201611c45565b604086015261247a60038201611c45565b606086015261248b60048201611c45565b608086015260ff60058201541660a086015201611c45565b91015256fea2646970667358221220c3624025ece6b9afeefe2cf82203b7a28d90eefe981b29f5bd8edb48536b09b564736f6c634300081b0033",
  "linkReferences": {},
  "deployedLinkReferences": {}
}