{
  "_format": "hh-sol-artifact-1",
  "contractName": "ObatShared",
  "sourceName": "contracts/ObatShared.sol",
  "abi": [
    {
      "inputs": [
        {
          "internalType": "string",
          "name": "_obatId",
          "type": "string"
        },
        {
          "internalType": "string",
          "name": "_namaProduk",
          "type": "string"
        },
        {
          "internalType": "string",
          "name": "_batchName",
          "type": "string"
        },
        {
          "internalType": "uint8",
          "name": "_obatQuantity",
          "type": "uint8"
        },
        {
          "internalType": "string[]",
          "name": "_obatIpfsHash",
          "type": "string[]"
        },
        {
          "internalType": "string",
          "name": "_factoryInstance",
          "type": "string"
        }
      ],
      "name": "addBatchProduction",
      "outputs": [],
      "stateMutability": "nonpayable",
      "type": "function"
    },
    {
      "inputs": [
        {
          "internalType": "string",
          "name": "_obatId",
          "type": "string"
        },
        {
          "internalType": "string",
          "name": "_orderId",
          "type": "string"
        },
        {
          "internalType": "string",
          "name": "_namaProduk",
          "type": "string"
        },
        {
          "internalType": "string",
          "name": "_batchName",
          "type": "string"
        },
        {
          "internalType": "uint8",
          "name": "_obatQuantity",
          "type": "uint8"
        },
        {
          "internalType": "string[]",
          "name": "_obatIpfsHash",
          "type": "string[]"
        },
        {
          "internalType": "string",
          "name": "_pbfInstance",
          "type": "string"
        }
      ],
      "name": "addObatPbf",
      "outputs": [],
      "stateMutability": "nonpayable",
      "type": "function"
    },
    {
      "inputs": [
        {
          "internalType": "string",
          "name": "_obatId",
          "type": "string"
        },
        {
          "internalType": "string",
          "name": "_orderId",
          "type": "string"
        },
        {
          "internalType": "string",
          "name": "_namaProduk",
          "type": "string"
        },
        {
          "internalType": "string",
          "name": "_batchName",
          "type": "string"
        },
        {
          "internalType": "uint8",
          "name": "_obatQuantity",
          "type": "uint8"
        },
        {
          "internalType": "string[]",
          "name": "_obatIpfsHash",
          "type": "string[]"
        },
        {
          "internalType": "string",
          "name": "_retailerInstance",
          "type": "string"
        }
      ],
      "name": "addObatRetailer",
      "outputs": [],
      "stateMutability": "nonpayable",
      "type": "function"
    },
    {
      "inputs": [
        {
          "internalType": "string",
          "name": "_pbfInstance",
          "type": "string"
        }
      ],
      "name": "getAllObatPbfByInstance",
      "outputs": [
        {
          "components": [
            {
              "internalType": "string",
              "name": "orderId",
              "type": "string"
            },
            {
              "internalType": "string",
              "name": "obatId",
              "type": "string"
            },
            {
              "internalType": "string",
              "name": "namaProduk",
              "type": "string"
            },
            {
              "internalType": "string",
              "name": "batchName",
              "type": "string"
            },
            {
              "internalType": "uint8",
              "name": "obatQuantity",
              "type": "uint8"
            },
            {
              "internalType": "enum EnumsLibrary.ObatAvailability",
              "name": "statusStok",
              "type": "uint8"
            },
            {
              "internalType": "string",
              "name": "ownerInstance",
              "type": "string"
            }
          ],
          "internalType": "struct ObatShared.st_obatOutputStock[]",
          "name": "",
          "type": "tuple[]"
        }
      ],
      "stateMutability": "view",
      "type": "function"
    },
    {
      "inputs": [],
      "name": "getAllObatPbfReadyStock",
      "outputs": [
        {
          "components": [
            {
              "internalType": "string",
              "name": "orderId",
              "type": "string"
            },
            {
              "internalType": "string",
              "name": "obatId",
              "type": "string"
            },
            {
              "internalType": "string",
              "name": "namaProduk",
              "type": "string"
            },
            {
              "internalType": "string",
              "name": "batchName",
              "type": "string"
            },
            {
              "internalType": "uint8",
              "name": "obatQuantity",
              "type": "uint8"
            },
            {
              "internalType": "enum EnumsLibrary.ObatAvailability",
              "name": "statusStok",
              "type": "uint8"
            },
            {
              "internalType": "string",
              "name": "ownerInstance",
              "type": "string"
            }
          ],
          "internalType": "struct ObatShared.st_obatOutputStock[]",
          "name": "",
          "type": "tuple[]"
        }
      ],
      "stateMutability": "view",
      "type": "function"
    },
    {
      "inputs": [
        {
          "internalType": "string",
          "name": "_retailerInstance",
          "type": "string"
        }
      ],
      "name": "getAllObatRetailerByInstance",
      "outputs": [
        {
          "components": [
            {
              "internalType": "string",
              "name": "orderId",
              "type": "string"
            },
            {
              "internalType": "string",
              "name": "obatId",
              "type": "string"
            },
            {
              "internalType": "string",
              "name": "namaProduk",
              "type": "string"
            },
            {
              "internalType": "string",
              "name": "batchName",
              "type": "string"
            },
            {
              "internalType": "uint8",
              "name": "obatQuantity",
              "type": "uint8"
            },
            {
              "internalType": "enum EnumsLibrary.ObatAvailability",
              "name": "statusStok",
              "type": "uint8"
            },
            {
              "internalType": "string",
              "name": "ownerInstance",
              "type": "string"
            }
          ],
          "internalType": "struct ObatShared.st_obatOutputStock[]",
          "name": "",
          "type": "tuple[]"
        }
      ],
      "stateMutability": "view",
      "type": "function"
    },
    {
      "inputs": [
        {
          "internalType": "string",
          "name": "_obatId",
          "type": "string"
        }
      ],
      "name": "getObatDetail",
      "outputs": [
        {
          "components": [
            {
              "internalType": "string",
              "name": "merk",
              "type": "string"
            },
            {
              "internalType": "string",
              "name": "namaProduk",
              "type": "string"
            },
            {
              "internalType": "string[]",
              "name": "klaim",
              "type": "string[]"
            },
            {
              "internalType": "string[]",
              "name": "komposisi",
              "type": "string[]"
            },
            {
              "internalType": "string",
              "name": "kemasan",
              "type": "string"
            },
            {
              "internalType": "enum EnumsLibrary.TipeProduk",
              "name": "tipeProduk",
              "type": "uint8"
            },
            {
              "internalType": "string",
              "name": "factoryInstance",
              "type": "string"
            },
            {
              "internalType": "address",
              "name": "factoryAddr",
              "type": "address"
            }
          ],
          "internalType": "struct ObatShared.st_obatDetails",
          "name": "",
          "type": "tuple"
        }
      ],
      "stateMutability": "view",
      "type": "function"
    },
    {
      "inputs": [
        {
          "internalType": "string",
          "name": "_obatId",
          "type": "string"
        }
      ],
      "name": "getObatProduction",
      "outputs": [
        {
          "components": [
            {
              "internalType": "enum EnumsLibrary.ObatAvailability",
              "name": "statusStok",
              "type": "uint8"
            },
            {
              "internalType": "string",
              "name": "namaProduk",
              "type": "string"
            },
            {
              "internalType": "string",
              "name": "batchName",
              "type": "string"
            },
            {
              "internalType": "uint8",
              "name": "obatQuantity",
              "type": "uint8"
            },
            {
              "internalType": "string[]",
              "name": "obatIpfs",
              "type": "string[]"
            },
            {
              "internalType": "string",
              "name": "factoryInstance",
              "type": "string"
            }
          ],
          "internalType": "struct ObatShared.st_obatProduction[]",
          "name": "",
          "type": "tuple[]"
        }
      ],
      "stateMutability": "view",
      "type": "function"
    },
    {
      "inputs": [
        {
          "internalType": "string",
          "name": "",
          "type": "string"
        }
      ],
      "name": "obatDetailsById",
      "outputs": [
        {
          "internalType": "string",
          "name": "merk",
          "type": "string"
        },
        {
          "internalType": "string",
          "name": "namaProduk",
          "type": "string"
        },
        {
          "internalType": "string",
          "name": "kemasan",
          "type": "string"
        },
        {
          "internalType": "enum EnumsLibrary.TipeProduk",
          "name": "tipeProduk",
          "type": "uint8"
        },
        {
          "internalType": "string",
          "name": "factoryInstance",
          "type": "string"
        },
        {
          "internalType": "address",
          "name": "factoryAddr",
          "type": "address"
        }
      ],
      "stateMutability": "view",
      "type": "function"
    },
    {
      "inputs": [
        {
          "internalType": "string",
          "name": "",
          "type": "string"
        }
      ],
      "name": "obatPbfBatchName",
      "outputs": [
        {
          "internalType": "enum EnumsLibrary.ObatAvailability",
          "name": "statusStok",
          "type": "uint8"
        },
        {
          "internalType": "string",
          "name": "obatId",
          "type": "string"
        },
        {
          "internalType": "string",
          "name": "orderId",
          "type": "string"
        },
        {
          "internalType": "string",
          "name": "namaProduk",
          "type": "string"
        },
        {
          "internalType": "string",
          "name": "batchName",
          "type": "string"
        },
        {
          "internalType": "uint8",
          "name": "obatQuantity",
          "type": "uint8"
        },
        {
          "internalType": "string",
          "name": "pbfInstance",
          "type": "string"
        }
      ],
      "stateMutability": "view",
      "type": "function"
    },
    {
      "inputs": [
        {
          "internalType": "string",
          "name": "",
          "type": "string"
        },
        {
          "internalType": "uint256",
          "name": "",
          "type": "uint256"
        }
      ],
      "name": "obatProductionById",
      "outputs": [
        {
          "internalType": "enum EnumsLibrary.ObatAvailability",
          "name": "statusStok",
          "type": "uint8"
        },
        {
          "internalType": "string",
          "name": "namaProduk",
          "type": "string"
        },
        {
          "internalType": "string",
          "name": "batchName",
          "type": "string"
        },
        {
          "internalType": "uint8",
          "name": "obatQuantity",
          "type": "uint8"
        },
        {
          "internalType": "string",
          "name": "factoryInstance",
          "type": "string"
        }
      ],
      "stateMutability": "view",
      "type": "function"
    },
    {
      "inputs": [
        {
          "internalType": "string",
          "name": "",
          "type": "string"
        }
      ],
      "name": "obatRetailerBatchName",
      "outputs": [
        {
          "internalType": "enum EnumsLibrary.ObatAvailability",
          "name": "statusStok",
          "type": "uint8"
        },
        {
          "internalType": "string",
          "name": "obatId",
          "type": "string"
        },
        {
          "internalType": "string",
          "name": "orderId",
          "type": "string"
        },
        {
          "internalType": "string",
          "name": "namaProduk",
          "type": "string"
        },
        {
          "internalType": "string",
          "name": "batchName",
          "type": "string"
        },
        {
          "internalType": "uint8",
          "name": "obatQuantity",
          "type": "uint8"
        },
        {
          "internalType": "string",
          "name": "retailerInstance",
          "type": "string"
        }
      ],
      "stateMutability": "view",
      "type": "function"
    },
    {
      "inputs": [
        {
          "internalType": "string",
          "name": "_obatId",
          "type": "string"
        },
        {
          "internalType": "string",
          "name": "_merk",
          "type": "string"
        },
        {
          "internalType": "string",
          "name": "_namaProduk",
          "type": "string"
        },
        {
          "internalType": "string[]",
          "name": "_klaim",
          "type": "string[]"
        },
        {
          "internalType": "string[]",
          "name": "_komposisi",
          "type": "string[]"
        },
        {
          "internalType": "string",
          "name": "_kemasan",
          "type": "string"
        },
        {
          "internalType": "enum EnumsLibrary.TipeProduk",
          "name": "_tipeProduk",
          "type": "uint8"
        },
        {
          "internalType": "string",
          "name": "_factoryInstance",
          "type": "string"
        },
        {
          "internalType": "address",
          "name": "_factoryAddr",
          "type": "address"
        }
      ],
      "name": "setObatDetail",
      "outputs": [],
      "stateMutability": "nonpayable",
      "type": "function"
    },
    {
      "inputs": [
        {
          "internalType": "string",
          "name": "_obatId",
          "type": "string"
        },
        {
          "internalType": "string",
          "name": "_batchName",
          "type": "string"
        },
        {
          "internalType": "string[]",
          "name": "_obatIpfs",
          "type": "string[]"
        }
      ],
      "name": "updateBatchProduction",
      "outputs": [],
      "stateMutability": "nonpayable",
      "type": "function"
    },
    {
      "inputs": [
        {
          "internalType": "string",
          "name": "_batchName",
          "type": "string"
        },
        {
          "internalType": "string[]",
          "name": "_obatIpfs",
          "type": "string[]"
        }
      ],
      "name": "updateObatPbf",
      "outputs": [],
      "stateMutability": "nonpayable",
      "type": "function"
    }
  ],
  "bytecode": "0x608080604052346015576121c9908161001b8239f35b600080fdfe6080604052600436101561001257600080fd5b60003560e01c80627481d9146115b757806301fabf1f146115205780631b544bfc1461148957806327321837146113a05780638d57ba0a146111ce578063906ce017146110795780639ad9e153146110265780639d8ec71914610f8b578063a24f650914610b6e578063ba2ffe4c14610a85578063d65826721461088c578063e1336da514610742578063e521d586146104cc578063e9c14cb8146102c05763f07b2c7a146100c057600080fd5b346102bb5760203660031901126102bb576004356001600160401b0381116102bb576100f090369060040161179b565b60009060405161012160208281610110818301968781519384920161195c565b81010301601f19810183528261177a565b51902090600090600054915b828110610267575061013e9061206c565b9160009060005b83811061015e576040518061015a8782611afb565b0390f35b81600761017c602061016f85611d9b565b5060405192838092611fd9565b6004815203019020016040516101a88161019a602082018095611fd9565b03601f19810183528261177a565b519020146101b9575b600101610145565b9161025f6001916101de6101d1602061016f88611d9b565b60048152030190206120ec565b6040810151906020810151906060810151608082015160ff60a0840151169160e084519461020b86611a82565b0151946040519661021b8861175f565b8752602087015260408601526060850152608084015261023a81611a82565b60a083015260c082015261024e828961217f565b52610259818861217f565b50612047565b9290506101b1565b836007610278602061016f85611d9b565b6004815203019020016040516102968161019a602082018095611fd9565b519020146102a7575b60010161012d565b906102b3600191612047565b91905061029f565b600080fd5b346102bb5760603660031901126102bb576004356001600160401b0381116102bb576102f090369060040161179b565b6024356001600160401b0381116102bb5761030f90369060040161179b565b6044356001600160401b0381116102bb576020610333610347923690600401611808565b93816040519382858094519384920161195c565b810160038152030190209060405161036f60208281610110818301968781519384920161195c565b5190209060005b81548110156104ca5782600261019a6103a66103928587611c3a565b506040519283916020830195869101611fd9565b519020146103b7575b600101610376565b6103c18183611c3a565b50805460ff1916600117905560046103d98284611c3a565b5001845190600160401b82116104b4578054828255808310610436575b5060208601906000526020600020906000905b83821061041957505050506103af565b600160208261042a83945187611c9b565b01930191019091610409565b8160005282602060002091820191015b81811061045357506103f6565b806104606001925461197f565b8061046d575b5001610446565b601f811183146104835750600081555b89610466565b6104a1908260005283601f6020600020920160051c82019101611c84565b806000526000602081208183555561047d565b634e487b7160e01b600052604160045260246000fd5b005b346102bb5760c03660031901126102bb576004356001600160401b0381116102bb576104fc90369060040161179b565b6024356001600160401b0381116102bb5761051b90369060040161179b565b906044356001600160401b0381116102bb5761053b90369060040161179b565b906064359060ff82168092036102bb576084356001600160401b0381116102bb5761056a903690600401611808565b9160a4356001600160401b0381116102bb5761058a90369060040161179b565b946105d660206040519461059d86611744565b6000865281860193845260408601978852606086019485526080860196875260a08601988952816040519382858094519384920161195c565b810160038152030190208054600160401b8110156104b4576105fd91600182018155611c3a565b95909561072c5761062b6106359261062160ff965161061b81611a82565b89611c6c565b5160018801611c9b565b5160028601611c9b565b511660ff60038401911660ff1982541617905560048201905190815191600160401b83116104b45781548383558084106106ae575b506020019060005260206000206000915b838310610691576104ca85600588519101611c9b565b60016020826106a283945186611c9b565b0192019201919061067b565b8260005283602060002091820191015b8181106106cb575061066a565b806106d86001925461197f565b806106e5575b50016106be565b601f811183146106fb5750600081555b886106de565b610719908260005283601f6020600020920160051c82019101611c84565b80600052600060208120818355556106f5565b634e487b7160e01b600052600060045260246000fd5b346102bb5760203660031901126102bb576004356001600160401b0381116102bb5761077290369060040161179b565b60009060405161079260208281610110818301968781519384920161195c565b519020906000600154905b81811061083857836107ae8461206c565b600080549192815b8381106107cb576040518061015a8782611afb565b8160076107dc602061016f85611db5565b6005815203019020016040516107fa8161019a602082018095611fd9565b5190201461080b575b6001016107b6565b916108306001916101de610823602061016f88611d9b565b60058152030190206120ec565b929050610803565b836007610849602061016f85611db5565b6005815203019020016040516108678161019a602082018095611fd9565b51902014610878575b60010161079d565b91610884600191612047565b929050610870565b346102bb5760203660031901126102bb576004356001600160401b0381116102bb5761012061092360206108c7610a7094369060040161179b565b600060e06040516108d781611728565b6060815260608582015260606040820152606080820152606060808201528260a0820152606060c0820152015261091081511515611f48565b816040519382858094519384920161195c565b8101600281520301902060405192839161093c83611728565b610945816119b9565b835282610a4e610957600184016119b9565b60208301908152610a3b61096d60028601611f81565b60408501908152610a2861098360038801611f81565b9160608701928352610a1561099a60048a016119b9565b956080890196875260e060ff60058c0154169a60a08b019b6109bb81611a82565b8c5260c06109cb600683016119b9565b9b019a8b52600760018060a01b03910154169c019b8c52610a026040519e8f9e8f9160208352519161010060208201520190611a5d565b90518d8203601f190160408f0152611a5d565b90518b8203601f190160608d0152611aa2565b9051898203601f190160808b0152611aa2565b9051878203601f190160a0890152611a5d565b9151610a5981611a82565b60c086015251848203601f190160e0860152611a5d565b90516001600160a01b03166101008301520390f35b346102bb5760403660031901126102bb576004356001600160401b0381116102bb57610ab590369060040161179b565b610ad1602060243592816040519382858094519384920161195c565b810160038152030190209081548110156102bb57610aee91611c3a565b5060ff81541661015a610b03600184016119b9565b92610b10600282016119b9565b610b5b610b27600560ff60038601541694016119b9565b91610b4d6040519787610b3a8a99611a82565b885260a0602089015260a0880190611a5d565b908682036040880152611a5d565b9160608501528382036080850152611a5d565b346102bb576101203660031901126102bb576004356001600160401b0381116102bb57610b9f90369060040161179b565b6024356001600160401b0381116102bb57610bbe90369060040161179b565b6044356001600160401b0381116102bb57610bdd90369060040161179b565b916064356001600160401b0381116102bb57610bfd903690600401611808565b6084356001600160401b0381116102bb57610c1c903690600401611808565b60a4356001600160401b0381116102bb57610c3b90369060040161179b565b9060c4359260028410156102bb5760e4356001600160401b0381116102bb57610c6890369060040161179b565b94610104359760018060a01b0389168099036102bb57815115610f5457805115610f1b57610621610cf36020610d05946040519b610ca58d611728565b8c52818c0194855260408c0196875260608c0197885260808c0198895260a08c0199610cd081611a82565b8a5260c08c019a8b5260e08c019c8d52816040519382858094519384920161195c565b81016002815203019020985189611c9b565b518051906002870190600160401b83116104b4578154838355808410610e9d575b506020019060005260206000206000915b838310610e80575050505060038501905190815191600160401b83116104b4578154838355808410610e02575b506020019060005260206000206000915b838310610de55788600789610dc18a8a610d938b5160048601611c9b565b600584019051610da281611a82565b610dab81611a82565b60ff801983541691161790555160068301611c9b565b9151910180546001600160a01b0319166001600160a01b0392909216919091179055005b6001602082610df683945186611c9b565b01920192019190610d75565b8260005283602060002091820191015b818110610e1f5750610d64565b80610e2c6001925461197f565b80610e39575b5001610e12565b601f81118314610e4f5750600081555b8b610e32565b610e6d908260005283601f6020600020920160051c82019101611c84565b8060005260006020812081835555610e49565b6001602082610e9183945186611c9b565b01920192019190610d37565b8260005283602060002091820191015b818110610eba5750610d26565b80610ec76001925461197f565b80610ed4575b5001610ead565b601f81118314610eea5750600081555b8c610ecd565b610f08908260005283601f6020600020920160051c82019101611c84565b8060005260006020812081835555610ee4565b60405162461bcd60e51b8152602060048201526011602482015270496e76616c6964204f626174204e616d6560781b6044820152606490fd5b60405162461bcd60e51b815260206004820152600f60248201526e125b9d985b1a590813d8985d081251608a1b6044820152606490fd5b346102bb5760203660031901126102bb576004356001600160401b0381116102bb576020610910610fc092369060040161179b565b8101600481520301902060ff81541661015a610fde600184016119b9565b92610feb600282016119b9565b90610ff8600382016119b9565b611004600483016119b9565b90611019600760ff60058601541694016119b9565b9360405197889788611bc8565b346102bb5760203660031901126102bb576004356001600160401b0381116102bb57602061091061105b92369060040161179b565b8101600581520301902060ff81541661015a610fde600184016119b9565b346102bb5760003660031901126102bb57600080600054915b82811061118957506110a39061206c565b906000805b8281106110bd576040518061015a8682611afb565b60ff6110cd602061016f84611d9b565b600481520301902054166110e081611a82565b156110ee575b6001016110a8565b906111816001916111066101d1602061016f87611d9b565b6040810151906020810151906060810151608082015160ff60a0840151169160e084519461113386611a82565b015194604051966111438861175f565b8752602087015260408601526060850152608084015261116281611a82565b60a083015260c0820152611176828861217f565b52610259818761217f565b9190506110e6565b60ff611199602061016f84611d9b565b600481520301902054166111ac81611a82565b156111ba575b600101611092565b906111c6600191612047565b9190506111b2565b346102bb5760203660031901126102bb576004356001600160401b0381116102bb57602061120361120f92369060040161179b565b61091081511515611f48565b81016003815203019020805490611225826117f1565b91611233604051938461177a565b80835260208301809260005260206000206000915b83831061132057848660405191829160208301906020845251809152604083019060408160051b85010192916000905b82821061128757505050500390f35b919360019193955060206113108192603f198a820301865288519081516112ad81611a82565b815260a06112ff6112e06112ce8786015160c08987015260c0860190611a5d565b60408601518582036040870152611a5d565b60ff606086015116606085015260808501518482036080860152611aa2565b9201519060a0818403910152611a5d565b9601920192018594939192611278565b6006602060019260405161133381611744565b60ff86541661134181611a82565b815261134e8587016119b9565b8382015261135e600287016119b9565b604082015260ff600387015416606082015261137c60048701611f81565b608082015261138d600587016119b9565b60a0820152815201920192019190611248565b346102bb5760203660031901126102bb576004356001600160401b0381116102bb576113d8602061091061144793369060040161179b565b810160028152030190206113eb816119b9565b9061147f6113fb600183016119b9565b91611408600482016119b9565b9061146360ff60058301541692611455611424600685016119b9565b93600760018060a01b039101541696604051998a9960c08b5260c08b0190611a5d565b9089820360208b0152611a5d565b908782036040890152611a5d565b9161146d81611a82565b60608601528482036080860152611a5d565b9060a08301520390f35b346102bb5760ff61149936611886565b94604097939794919451966114ad88611728565b600088526020880152604087015260608601528560808601521660a084015260c083015260e0820152600154600160401b8110156104b4578060016114f792016001556001611dd0565b92909261072c57602081610910611511936104ca96611c9b565b81016005815203019020611de8565b346102bb5760ff61153036611886565b946040979397949194519661154488611728565b600088526020880152604087015260608601528560808601521660a084015260c083015260e0820152600054600160401b8110156104b45780600161158e92016000556000611dd0565b92909261072c576020816109106115a8936104ca96611c9b565b81016004815203019020611de8565b346102bb5760403660031901126102bb576004356001600160401b0381116102bb576115e790369060040161179b565b6024356001600160401b0381116102bb5761164c602061160d6006933690600401611808565b936040519080519183818184019461162681838861195c565b81016004815203019020600160ff1982541617905560405193849283925192839161195c565b810160048152030190200190805190600160401b82116104b45782548284558083106116aa575b506020019160005260206000206000925b82841061168d57005b600160208261169e83945186611c9b565b01920193019290611684565b8360005282602060002091820191015b8181106116c75750611673565b806116d46001925461197f565b806116e1575b50016116ba565b601f811183146116f75750600081555b866116da565b611715908260005283601f6020600020920160051c82019101611c84565b80600052600060208120818355556116f1565b61010081019081106001600160401b038211176104b457604052565b60c081019081106001600160401b038211176104b457604052565b60e081019081106001600160401b038211176104b457604052565b90601f801991011681019081106001600160401b038211176104b457604052565b81601f820112156102bb578035906001600160401b0382116104b457604051926117cf601f8401601f19166020018561177a565b828452602083830101116102bb57816000926020809301838601378301015290565b6001600160401b0381116104b45760051b60200190565b9080601f830112156102bb57813561181f816117f1565b9261182d604051948561177a565b81845260208085019260051b820101918383116102bb5760208201905b83821061185957505050505090565b81356001600160401b0381116102bb5760209161187b8784809488010161179b565b81520191019061184a565b60e06003198201126102bb576004356001600160401b0381116102bb57816118b09160040161179b565b916024356001600160401b0381116102bb57826118cf9160040161179b565b916044356001600160401b0381116102bb57816118ee9160040161179b565b916064356001600160401b0381116102bb578261190d9160040161179b565b9160843560ff811681036102bb579160a4356001600160401b0381116102bb578261193a91600401611808565b9160c435906001600160401b0382116102bb576119599160040161179b565b90565b60005b83811061196f5750506000910152565b818101518382015260200161195f565b90600182811c921680156119af575b602083101461199957565b634e487b7160e01b600052602260045260246000fd5b91607f169161198e565b90604051918260008254926119cd8461197f565b8084529360018116908115611a3b57506001146119f4575b506119f29250038361177a565b565b90506000929192526020600020906000915b818310611a1f5750509060206119f292820101386119e5565b6020919350806001915483858901015201910190918492611a06565b9050602092506119f294915060ff191682840152151560051b820101386119e5565b90602091611a768151809281855285808601910161195c565b601f01601f1916010190565b60021115611a8c57565b634e487b7160e01b600052602160045260246000fd5b9080602083519182815201916020808360051b8301019401926000915b838310611ace57505050505090565b9091929394602080611aec600193601f198682030187528951611a5d565b97019301930191939290611abf565b602081016020825282518091526040820191602060408360051b8301019401926000915b838310611b2e57505050505090565b9091929394602080611bb9600193603f1986820301875289519060c0611b88611b766112ce611b66865160e0875260e0870190611a5d565b888701518682038a880152611a5d565b60608501518482036060860152611a5d565b9260ff608082015116608084015260a0810151611ba481611a82565b60a084015201519060c0818403910152611a5d565b97019301930191939290611b1f565b93611c1890611c0a60ff95611bfc611c26966119599c9a96611be981611a82565b8a5260e060208b015260e08a0190611a5d565b9088820360408a0152611a5d565b908682036060880152611a5d565b908482036080860152611a5d565b931660a082015260c0818403910152611a5d565b8054821015611c56576000526006602060002091020190600090565b634e487b7160e01b600052603260045260246000fd5b90611c7681611a82565b60ff80198354169116179055565b818110611c8f575050565b60008155600101611c84565b91909182516001600160401b0381116104b457611cb8825461197f565b601f8111611d5e575b506020601f8211600114611cfc5781929394600092611cf1575b50508160011b916000199060031b1c1916179055565b015190503880611cdb565b601f1982169083600052806000209160005b818110611d4657509583600195969710611d2d575b505050811b019055565b015160001960f88460031b161c19169055388080611d23565b9192602060018192868b015181550194019201611d0e565b611d8b90836000526020600020601f840160051c81019160208510611d91575b601f0160051c0190611c84565b38611cc1565b9091508190611d7e565b600054811015611c56576000805260206000200190600090565b600154811015611c5657600160005260206000200190600090565b8054821015611c565760005260206000200190600090565b90611dfd8151611df781611a82565b83611c6c565b611e0e602082015160018401611c9b565b611e1f604082015160028401611c9b565b611e30606082015160038401611c9b565b611e41608082015160048401611c9b565b60ff60a08201511660ff60058401911660ff198254161790556006820160c082015190815191600160401b83116104b4578154838355808410611eca575b506020019060005260206000206000915b838310611ead575050505090600760e06119f29301519101611c9b565b6001602082611ebe83945186611c9b565b01920192019190611e90565b8260005283602060002091820191015b818110611ee75750611e7f565b80611ef46001925461197f565b80611f01575b5001611eda565b601f81118314611f175750600081555b38611efa565b611f35908260005283601f6020600020920160051c82019101611c84565b8060005260006020812081835555611f11565b15611f4f57565b60405162461bcd60e51b815260206004820152600a602482015269125b9d985b1a5908125160b21b6044820152606490fd5b908154611f8d816117f1565b92611f9b604051948561177a565b818452602084019060005260206000206000915b838310611fbc5750505050565b600160208192611fcb856119b9565b815201920192019190611faf565b60009291815491611fe98361197f565b9260018116908115612034575060011461200257505050565b909192935060005260206000206000905b8382106120205750500190565b600181602092548486015201910190612013565b60ff191683525050811515909102019150565b60001981146120565760010190565b634e487b7160e01b600052601160045260246000fd5b90612076826117f1565b612083604051918261177a565b8281528092612094601f19916117f1565b019060005b8281106120a557505050565b6020906040516120b48161175f565b606081526060838201526060604082015260608082015260006080820152600060a0820152606060c082015282828501015201612099565b906040516120f981611728565b60e061217a6007839560ff81541661211081611a82565b855261211e600182016119b9565b602086015261212f600282016119b9565b6040860152612140600382016119b9565b6060860152612151600482016119b9565b608086015260ff60058201541660a086015261216f60068201611f81565b60c0860152016119b9565b910152565b8051821015611c565760209160051b01019056fea2646970667358221220145f8c55942318551d1f236e4bd89c4d43dcadd3d46affd15f6ae6f253b64b1b64736f6c634300081b0033",
  "linkReferences": {},
  "deployedLinkReferences": {}
}