{
  "_format": "hh-sol-artifact-1",
  "contractName": "ObatShared",
  "sourceName": "contracts/ObatShared.sol",
  "abi": [
    {
      "inputs": [
        {
          "internalType": "string",
          "name": "",
          "type": "string"
        }
      ],
      "name": "ObatPbfBatchName",
      "outputs": [
        {
          "internalType": "enum EnumsLibrary.ObatAvailability",
          "name": "statusStok",
          "type": "uint8"
        },
        {
          "internalType": "string",
          "name": "namaProduk",
          "type": "string"
        },
        {
          "internalType": "string",
          "name": "batchName",
          "type": "string"
        },
        {
          "internalType": "uint8",
          "name": "obatQuantity",
          "type": "uint8"
        },
        {
          "internalType": "string",
          "name": "pbfInstance",
          "type": "string"
        },
        {
          "internalType": "string",
          "name": "obatId",
          "type": "string"
        }
      ],
      "stateMutability": "view",
      "type": "function"
    },
    {
      "inputs": [
        {
          "internalType": "string",
          "name": "_obatId",
          "type": "string"
        },
        {
          "internalType": "string",
          "name": "_namaProduk",
          "type": "string"
        },
        {
          "internalType": "string",
          "name": "_batchName",
          "type": "string"
        },
        {
          "internalType": "uint8",
          "name": "_obatQuantity",
          "type": "uint8"
        },
        {
          "internalType": "string[]",
          "name": "_obatIpfsHash",
          "type": "string[]"
        },
        {
          "internalType": "string",
          "name": "_factoryInstance",
          "type": "string"
        }
      ],
      "name": "addBatchProduction",
      "outputs": [],
      "stateMutability": "nonpayable",
      "type": "function"
    },
    {
      "inputs": [
        {
          "internalType": "string",
          "name": "_obatId",
          "type": "string"
        },
        {
          "internalType": "string",
          "name": "_namaProduk",
          "type": "string"
        },
        {
          "internalType": "string",
          "name": "_batchName",
          "type": "string"
        },
        {
          "internalType": "uint8",
          "name": "_obatQuantity",
          "type": "uint8"
        },
        {
          "internalType": "string[]",
          "name": "_obatIpfsHash",
          "type": "string[]"
        },
        {
          "internalType": "string",
          "name": "_pbfInstance",
          "type": "string"
        }
      ],
      "name": "addObatPbf",
      "outputs": [],
      "stateMutability": "nonpayable",
      "type": "function"
    },
    {
      "inputs": [],
      "name": "getAllObatPbfReadyStock",
      "outputs": [
        {
          "components": [
            {
              "internalType": "string",
              "name": "obatId",
              "type": "string"
            },
            {
              "internalType": "string",
              "name": "namaProduk",
              "type": "string"
            },
            {
              "internalType": "string",
              "name": "batchName",
              "type": "string"
            },
            {
              "internalType": "uint8",
              "name": "obatQuantity",
              "type": "uint8"
            },
            {
              "internalType": "enum EnumsLibrary.ObatAvailability",
              "name": "statusStok",
              "type": "uint8"
            },
            {
              "internalType": "string",
              "name": "ownerInstance",
              "type": "string"
            }
          ],
          "internalType": "struct ObatShared.st_obatOutputStock[]",
          "name": "",
          "type": "tuple[]"
        }
      ],
      "stateMutability": "view",
      "type": "function"
    },
    {
      "inputs": [
        {
          "internalType": "string",
          "name": "_obatId",
          "type": "string"
        }
      ],
      "name": "getObatDetail",
      "outputs": [
        {
          "components": [
            {
              "internalType": "string",
              "name": "merk",
              "type": "string"
            },
            {
              "internalType": "string",
              "name": "namaProduk",
              "type": "string"
            },
            {
              "internalType": "string[]",
              "name": "klaim",
              "type": "string[]"
            },
            {
              "internalType": "string[]",
              "name": "komposisi",
              "type": "string[]"
            },
            {
              "internalType": "string",
              "name": "kemasan",
              "type": "string"
            },
            {
              "internalType": "enum EnumsLibrary.TipeProduk",
              "name": "tipeProduk",
              "type": "uint8"
            },
            {
              "internalType": "string",
              "name": "factoryInstance",
              "type": "string"
            },
            {
              "internalType": "address",
              "name": "factoryAddr",
              "type": "address"
            }
          ],
          "internalType": "struct ObatShared.st_obatDetails",
          "name": "",
          "type": "tuple"
        }
      ],
      "stateMutability": "view",
      "type": "function"
    },
    {
      "inputs": [
        {
          "internalType": "string",
          "name": "_obatId",
          "type": "string"
        }
      ],
      "name": "getObatProduction",
      "outputs": [
        {
          "components": [
            {
              "internalType": "enum EnumsLibrary.ObatAvailability",
              "name": "statusStok",
              "type": "uint8"
            },
            {
              "internalType": "string",
              "name": "namaProduk",
              "type": "string"
            },
            {
              "internalType": "string",
              "name": "batchName",
              "type": "string"
            },
            {
              "internalType": "uint8",
              "name": "obatQuantity",
              "type": "uint8"
            },
            {
              "internalType": "string[]",
              "name": "obatIpfs",
              "type": "string[]"
            },
            {
              "internalType": "string",
              "name": "factoryInstance",
              "type": "string"
            }
          ],
          "internalType": "struct ObatShared.st_obatProduction[]",
          "name": "",
          "type": "tuple[]"
        }
      ],
      "stateMutability": "view",
      "type": "function"
    },
    {
      "inputs": [
        {
          "internalType": "string",
          "name": "",
          "type": "string"
        }
      ],
      "name": "obatDetailsById",
      "outputs": [
        {
          "internalType": "string",
          "name": "merk",
          "type": "string"
        },
        {
          "internalType": "string",
          "name": "namaProduk",
          "type": "string"
        },
        {
          "internalType": "string",
          "name": "kemasan",
          "type": "string"
        },
        {
          "internalType": "enum EnumsLibrary.TipeProduk",
          "name": "tipeProduk",
          "type": "uint8"
        },
        {
          "internalType": "string",
          "name": "factoryInstance",
          "type": "string"
        },
        {
          "internalType": "address",
          "name": "factoryAddr",
          "type": "address"
        }
      ],
      "stateMutability": "view",
      "type": "function"
    },
    {
      "inputs": [
        {
          "internalType": "string",
          "name": "",
          "type": "string"
        },
        {
          "internalType": "uint256",
          "name": "",
          "type": "uint256"
        }
      ],
      "name": "obatProductionById",
      "outputs": [
        {
          "internalType": "enum EnumsLibrary.ObatAvailability",
          "name": "statusStok",
          "type": "uint8"
        },
        {
          "internalType": "string",
          "name": "namaProduk",
          "type": "string"
        },
        {
          "internalType": "string",
          "name": "batchName",
          "type": "string"
        },
        {
          "internalType": "uint8",
          "name": "obatQuantity",
          "type": "uint8"
        },
        {
          "internalType": "string",
          "name": "factoryInstance",
          "type": "string"
        }
      ],
      "stateMutability": "view",
      "type": "function"
    },
    {
      "inputs": [
        {
          "internalType": "string",
          "name": "_obatId",
          "type": "string"
        },
        {
          "internalType": "string",
          "name": "_merk",
          "type": "string"
        },
        {
          "internalType": "string",
          "name": "_namaProduk",
          "type": "string"
        },
        {
          "internalType": "string[]",
          "name": "_klaim",
          "type": "string[]"
        },
        {
          "internalType": "string[]",
          "name": "_komposisi",
          "type": "string[]"
        },
        {
          "internalType": "string",
          "name": "_kemasan",
          "type": "string"
        },
        {
          "internalType": "enum EnumsLibrary.TipeProduk",
          "name": "_tipeProduk",
          "type": "uint8"
        },
        {
          "internalType": "string",
          "name": "_factoryInstance",
          "type": "string"
        },
        {
          "internalType": "address",
          "name": "_factoryAddr",
          "type": "address"
        }
      ],
      "name": "setObatDetail",
      "outputs": [],
      "stateMutability": "nonpayable",
      "type": "function"
    },
    {
      "inputs": [
        {
          "internalType": "string",
          "name": "_obatId",
          "type": "string"
        },
        {
          "internalType": "string",
          "name": "_batchName",
          "type": "string"
        },
        {
          "internalType": "string[]",
          "name": "_obatIpfs",
          "type": "string[]"
        }
      ],
      "name": "updateBatchProduction",
      "outputs": [],
      "stateMutability": "nonpayable",
      "type": "function"
    }
  ],
  "bytecode": "0x60808060405234601557611a89908161001b8239f35b600080fdfe6080604052600436101561001257600080fd5b60003560e01c806327321837146113025780636fbef94b14611225578063863e16ba1461105f5780638d57ba0a14610e8d578063906ce01714610b8a578063a24f65091461076d578063ba2ffe4c14610680578063d658267214610487578063e521d586146102ba5763e9c14cb81461008a57600080fd5b346102b55760603660031901126102b5576004356001600160401b0381116102b5576100ba90369060040161145e565b6024356001600160401b0381116102b5576100d990369060040161145e565b6044356001600160401b0381116102b55760206100fd610111923690600401611611565b9381604051938285809451938492016114b4565b810160028152030190209060405161014a6020828161013981830196878151938492016114b4565b81010301601f19810183528261143d565b5190209060005b81548110156102b35782600261018161018f61016d85876117a0565b5060405192839160208301958691016119ac565b03601f19810183528261143d565b519020146101a0575b600101610151565b6101aa81836117a0565b50805460ff1916600117905560046101c282846117a0565b5001845190600160401b821161029d57805482825580831061021f575b5060208601906000526020600020906000905b8382106102025750505050610198565b600160208261021383945187611803565b019301910190916101f2565b8160005282602060002091820191015b81811061023c57506101df565b80610249600192546114d7565b80610256575b500161022f565b601f8111831461026c5750600081555b3861024f565b61028a908260005283601f6020600020920160051c820191016117ec565b8060005260006020812081835555610266565b634e487b7160e01b600052604160045260246000fd5b005b600080fd5b346102b5576102c83661168f565b949190929361031b6020604051946102df86611406565b600086528186019384526040860197885260ff60608701951685526080860196875260a0860198895281604051938285809451938492016114b4565b810160028152030190208054600160401b81101561029d57610342916001820181556117a0565b9590956104715761037061037a9261036660ff9651610360816115da565b89611903565b5160018801611803565b5160028601611803565b511660ff60038401911660ff1982541617905560048201905190815191600160401b831161029d5781548383558084106103f3575b506020019060005260206000206000915b8383106103d6576102b385600588519101611803565b60016020826103e783945186611803565b019201920191906103c0565b8260005283602060002091820191015b81811061041057506103af565b8061041d600192546114d7565b8061042a575b5001610403565b601f811183146104405750600081555b88610423565b61045e908260005283601f6020600020920160051c820191016117ec565b806000526000602081208183555561043a565b634e487b7160e01b600052600060045260246000fd5b346102b55760203660031901126102b5576004356001600160401b0381116102b55761012061051e60206104c261066b94369060040161145e565b600060e06040516104d281611421565b6060815260608582015260606040820152606080820152606060808201528260a0820152606060c0820152015261050b8151151561191b565b81604051938285809451938492016114b4565b8101600181520301902060405192839161053783611421565b61054081611511565b83528261064961055260018401611511565b6020830190815261063661056860028601611954565b6040850190815261062361057e60038801611954565b916060870192835261061061059560048a01611511565b956080890196875260e060ff60058c0154169a60a08b019b6105b6816115da565b8c5260c06105c660068301611511565b9b019a8b52600760018060a01b03910154169c019b8c526105fd6040519e8f9e8f91602083525191610100602082015201906115b5565b90518d8203601f190160408f01526115b5565b90518b8203601f190160608d0152611747565b9051898203601f190160808b0152611747565b9051878203601f190160a08901526115b5565b9151610654816115da565b60c086015251848203601f190160e08601526115b5565b90516001600160a01b03166101008301520390f35b346102b55760403660031901126102b5576004356001600160401b0381116102b5576106b090369060040161145e565b6106cc60206024359281604051938285809451938492016114b4565b810160028152030190209081548110156102b5576106e9916117a0565b5060ff8154166107696106fe60018401611511565b9261070b60028201611511565b610756610722600560ff6003860154169401611511565b9161074860405197876107358a996115da565b885260a0602089015260a08801906115b5565b9086820360408801526115b5565b91606085015283820360808501526115b5565b0390f35b346102b5576101203660031901126102b5576004356001600160401b0381116102b55761079e90369060040161145e565b6024356001600160401b0381116102b5576107bd90369060040161145e565b6044356001600160401b0381116102b5576107dc90369060040161145e565b916064356001600160401b0381116102b5576107fc903690600401611611565b6084356001600160401b0381116102b55761081b903690600401611611565b60a4356001600160401b0381116102b55761083a90369060040161145e565b9060c4359260028410156102b55760e4356001600160401b0381116102b55761086790369060040161145e565b94610104359760018060a01b0389168099036102b557815115610b5357805115610b1a576103666108f26020610904946040519b6108a48d611421565b8c52818c0194855260408c0196875260608c0197885260808c0198895260a08c01996108cf816115da565b8a5260c08c019a8b5260e08c019c8d5281604051938285809451938492016114b4565b81016001815203019020985189611803565b518051906002870190600160401b831161029d578154838355808410610a9c575b506020019060005260206000206000915b838310610a7f575050505060038501905190815191600160401b831161029d578154838355808410610a01575b506020019060005260206000206000915b8383106109e457886007896109c08a8a6109928b5160048601611803565b6005840190516109a1816115da565b6109aa816115da565b60ff801983541691161790555160068301611803565b9151910180546001600160a01b0319166001600160a01b0392909216919091179055005b60016020826109f583945186611803565b01920192019190610974565b8260005283602060002091820191015b818110610a1e5750610963565b80610a2b600192546114d7565b80610a38575b5001610a11565b601f81118314610a4e5750600081555b8b610a31565b610a6c908260005283601f6020600020920160051c820191016117ec565b8060005260006020812081835555610a48565b6001602082610a9083945186611803565b01920192019190610936565b8260005283602060002091820191015b818110610ab95750610925565b80610ac6600192546114d7565b80610ad3575b5001610aac565b601f81118314610ae95750600081555b8c610acc565b610b07908260005283601f6020600020920160051c820191016117ec565b8060005260006020812081835555610ae3565b60405162461bcd60e51b8152602060048201526011602482015270496e76616c6964204f626174204e616d6560781b6044820152606490fd5b60405162461bcd60e51b815260206004820152600f60248201526e125b9d985b1a590813d8985d081251608a1b6044820152606490fd5b346102b55760003660031901126102b55760008054815b818110610e485750610bb2826115fa565b91610bc0604051938461143d565b808352610bcf601f19916115fa565b0160005b818110610e075750506000805b828110610cb957836040518091602082016020835281518091526040830190602060408260051b8601019301916000905b828210610c2057505050500390f35b91936001919395506020610ca98192603f198a820301865288519060a0610c78610c66610c56855160c0865260c08601906115b5565b87860151858203898701526115b5565b604085015184820360408601526115b5565b9260ff60608201511660608401526080810151610c94816115da565b608084015201519060a08184039101526115b5565b9601920192018594939192610c11565b60ff610cd66020610cc9846117d2565b50604051928380926119ac565b60038152030190205416610ce9816115da565b15610cf7575b600101610be0565b90610dff600191610d0c6020610cc9866117d2565b6003815203019020604051610d20816113eb565b60ff825416610d2e816115da565b8152610d3b858301611511565b9160208201928352610d4f60028201611511565b916040810192835260ff60038301541660608201908152610d7260048401611954565b608083015260ff610d986006610d8a60058701611511565b9560a0860196875201611511565b958660c0850152519451915116915192610db1846115da565b519360405195610dc087611406565b8652602086015260408501526060840152610dda816115da565b608083015260a0820152610dee8288611a3f565b52610df98187611a3f565b50611a1a565b919050610cef565b602090604051610e1681611406565b60608152606083820152606060408201526000606082015260006080820152606060a082015282828701015201610bd3565b60ff610e586020610cc9846117d2565b60038152030190205416610e6b816115da565b15610e79575b600101610ba1565b91610e85600191611a1a565b929050610e71565b346102b55760203660031901126102b5576004356001600160401b0381116102b5576020610ec2610ece92369060040161145e565b61050b8151151561191b565b81016002815203019020805490610ee4826115fa565b91610ef2604051938461143d565b80835260208301809260005260206000206000915b838310610fdf57848660405191829160208301906020845251809152604083019060408160051b85010192916000905b828210610f4657505050500390f35b91936001919395506020610fcf8192603f198a82030186528851908151610f6c816115da565b815260a0610fbe610f9f610f8d8786015160c08987015260c08601906115b5565b604086015185820360408701526115b5565b60ff606086015116606085015260808501518482036080860152611747565b9201519060a08184039101526115b5565b9601920192018594939192610f37565b60066020600192604051610ff281611406565b60ff865416611000816115da565b815261100d858701611511565b8382015261101d60028701611511565b604082015260ff600387015416606082015261103b60048701611954565b608082015261104c60058701611511565b60a0820152815201920192019190610f07565b346102b55761106d3661168f565b929390916040519461107e866113eb565b60008652602086019283526040860181815260ff60608801931683526080870194855260a0870195865260c08701978852600054600160401b81101561029d578060016110ce92016000556117d2565b9290926104715760ff9461110c6110f160208461050b6111169661112099611803565b810160038152030190209951611106816115da565b8a611903565b5160018901611803565b5160028701611803565b511660ff60038501911660ff1982541617905560048301905190815191600160401b831161029d5781548383558084106111a7575b506020019060005260206000206000915b83831061118a576102b386600689611182895160058501611803565b519101611803565b600160208261119b83945186611803565b01920192019190611166565b8260005283602060002091820191015b8181106111c45750611155565b806111d1600192546114d7565b806111de575b50016111b7565b601f811183146111f45750600081555b896111d7565b611212908260005283601f6020600020920160051c820191016117ec565b80600052600060208120818355556111ee565b346102b55760203660031901126102b5576004356001600160401b0381116102b557602061050b61125a92369060040161145e565b8101600381520301902060ff81541661076961127860018401611511565b926112f461128860028301611511565b9160ff600382015416906112e16112ad60066112a660058501611511565b9301611511565b946112d360405199896112c08c9b6115da565b8a5260c060208b015260c08a01906115b5565b9088820360408a01526115b5565b91606087015285820360808701526115b5565b9083820360a08501526115b5565b346102b55760203660031901126102b5576004356001600160401b0381116102b55761133a602061050b6113a993369060040161145e565b8101600181520301902061134d81611511565b906113e161135d60018301611511565b9161136a60048201611511565b906113c560ff600583015416926113b761138660068501611511565b93600760018060a01b039101541696604051998a9960c08b5260c08b01906115b5565b9089820360208b01526115b5565b9087820360408901526115b5565b916113cf816115da565b606086015284820360808601526115b5565b9060a08301520390f35b60e081019081106001600160401b0382111761029d57604052565b60c081019081106001600160401b0382111761029d57604052565b61010081019081106001600160401b0382111761029d57604052565b90601f801991011681019081106001600160401b0382111761029d57604052565b81601f820112156102b5578035906001600160401b03821161029d5760405192611492601f8401601f19166020018561143d565b828452602083830101116102b557816000926020809301838601378301015290565b60005b8381106114c75750506000910152565b81810151838201526020016114b7565b90600182811c92168015611507575b60208310146114f157565b634e487b7160e01b600052602260045260246000fd5b91607f16916114e6565b9060405191826000825492611525846114d7565b8084529360018116908115611593575060011461154c575b5061154a9250038361143d565b565b90506000929192526020600020906000915b81831061157757505090602061154a928201013861153d565b602091935080600191548385890101520191019091849261155e565b90506020925061154a94915060ff191682840152151560051b8201013861153d565b906020916115ce815180928185528580860191016114b4565b601f01601f1916010190565b600211156115e457565b634e487b7160e01b600052602160045260246000fd5b6001600160401b03811161029d5760051b60200190565b9080601f830112156102b5578135611628816115fa565b92611636604051948561143d565b81845260208085019260051b820101918383116102b55760208201905b83821061166257505050505090565b81356001600160401b0381116102b5576020916116848784809488010161145e565b815201910190611653565b9060c06003198301126102b5576004356001600160401b0381116102b557826116ba9160040161145e565b916024356001600160401b0381116102b557816116d99160040161145e565b916044356001600160401b0381116102b557826116f89160040161145e565b9160643560ff811681036102b557916084356001600160401b0381116102b5578261172591600401611611565b9160a435906001600160401b0382116102b5576117449160040161145e565b90565b9080602083519182815201916020808360051b8301019401926000915b83831061177357505050505090565b9091929394602080611791600193601f1986820301875289516115b5565b97019301930191939290611764565b80548210156117bc576000526006602060002091020190600090565b634e487b7160e01b600052603260045260246000fd5b6000548110156117bc576000805260206000200190600090565b8181106117f7575050565b600081556001016117ec565b91909182516001600160401b03811161029d5761182082546114d7565b601f81116118c6575b506020601f82116001146118645781929394600092611859575b50508160011b916000199060031b1c1916179055565b015190503880611843565b601f1982169083600052806000209160005b8181106118ae57509583600195969710611895575b505050811b019055565b015160001960f88460031b161c1916905538808061188b565b9192602060018192868b015181550194019201611876565b6118f390836000526020600020601f840160051c810191602085106118f9575b601f0160051c01906117ec565b38611829565b90915081906118e6565b9061190d816115da565b60ff80198354169116179055565b1561192257565b60405162461bcd60e51b815260206004820152600a602482015269125b9d985b1a5908125160b21b6044820152606490fd5b908154611960816115fa565b9261196e604051948561143d565b818452602084019060005260206000206000915b83831061198f5750505050565b60016020819261199e85611511565b815201920192019190611982565b600092918154916119bc836114d7565b9260018116908115611a0757506001146119d557505050565b909192935060005260206000206000905b8382106119f35750500190565b6001816020925484860152019101906119e6565b60ff191683525050811515909102019150565b6000198114611a295760010190565b634e487b7160e01b600052601160045260246000fd5b80518210156117bc5760209160051b01019056fea2646970667358221220613ed1d872ed3174010dd051fadf9213eab4c63c26cf6aa764af6d79f745bdfc64736f6c634300081b0033",
  "linkReferences": {},
  "deployedLinkReferences": {}
}