{
  "_format": "hh-sol-artifact-1",
  "contractName": "CdobCertificate",
  "sourceName": "contracts/CdobCertificate.sol",
  "abi": [
    {
      "inputs": [
        {
          "internalType": "string",
          "name": "",
          "type": "string"
        }
      ],
      "name": "CdobDataById",
      "outputs": [
        {
          "internalType": "string",
          "name": "cdobId",
          "type": "string"
        },
        {
          "internalType": "string",
          "name": "cdobNumber",
          "type": "string"
        },
        {
          "internalType": "uint8",
          "name": "tipePermohonan",
          "type": "uint8"
        }
      ],
      "stateMutability": "view",
      "type": "function"
    },
    {
      "inputs": [
        {
          "internalType": "string",
          "name": "",
          "type": "string"
        }
      ],
      "name": "CertDetailsById",
      "outputs": [
        {
          "internalType": "enum EnumsLibrary.StatusCertificate",
          "name": "status",
          "type": "uint8"
        },
        {
          "internalType": "uint256",
          "name": "timestampRequest",
          "type": "uint256"
        },
        {
          "internalType": "uint256",
          "name": "timestampApprove",
          "type": "uint256"
        },
        {
          "internalType": "uint256",
          "name": "timestampRejected",
          "type": "uint256"
        },
        {
          "internalType": "uint256",
          "name": "timestsmpRenewRequest",
          "type": "uint256"
        },
        {
          "components": [
            {
              "internalType": "string",
              "name": "userName",
              "type": "string"
            },
            {
              "internalType": "string",
              "name": "userInstance",
              "type": "string"
            },
            {
              "internalType": "address",
              "name": "userAddr",
              "type": "address"
            }
          ],
          "internalType": "struct BaseCertificate.UserCert",
          "name": "sender",
          "type": "tuple"
        },
        {
          "components": [
            {
              "internalType": "string",
              "name": "userName",
              "type": "string"
            },
            {
              "internalType": "string",
              "name": "userInstance",
              "type": "string"
            },
            {
              "internalType": "address",
              "name": "userAddr",
              "type": "address"
            }
          ],
          "internalType": "struct BaseCertificate.UserCert",
          "name": "bpom",
          "type": "tuple"
        },
        {
          "internalType": "string",
          "name": "ipfsCert",
          "type": "string"
        }
      ],
      "stateMutability": "view",
      "type": "function"
    },
    {
      "inputs": [
        {
          "internalType": "string",
          "name": "",
          "type": "string"
        }
      ],
      "name": "DokuAdminById",
      "outputs": [
        {
          "internalType": "string",
          "name": "suratPermohonan",
          "type": "string"
        },
        {
          "internalType": "string",
          "name": "buktiPembayaranPajak",
          "type": "string"
        }
      ],
      "stateMutability": "view",
      "type": "function"
    },
    {
      "inputs": [
        {
          "internalType": "string",
          "name": "",
          "type": "string"
        }
      ],
      "name": "DokuTeknisById",
      "outputs": [
        {
          "internalType": "string",
          "name": "suratIzinCdob",
          "type": "string"
        },
        {
          "internalType": "string",
          "name": "denahBangunan",
          "type": "string"
        },
        {
          "internalType": "string",
          "name": "strukturOrganisasi",
          "type": "string"
        },
        {
          "internalType": "string",
          "name": "daftarPersonalia",
          "type": "string"
        },
        {
          "internalType": "string",
          "name": "daftarPeralatan",
          "type": "string"
        },
        {
          "internalType": "string",
          "name": "eksekutifQualityManagement",
          "type": "string"
        },
        {
          "internalType": "string",
          "name": "suratIzinApoteker",
          "type": "string"
        },
        {
          "internalType": "string",
          "name": "dokumenSelfAssesment",
          "type": "string"
        }
      ],
      "stateMutability": "view",
      "type": "function"
    },
    {
      "inputs": [
        {
          "internalType": "string",
          "name": "",
          "type": "string"
        }
      ],
      "name": "RejectMsgById",
      "outputs": [
        {
          "internalType": "string",
          "name": "",
          "type": "string"
        }
      ],
      "stateMutability": "view",
      "type": "function"
    },
    {
      "inputs": [
        {
          "internalType": "uint256",
          "name": "",
          "type": "uint256"
        }
      ],
      "name": "allCdobData",
      "outputs": [
        {
          "internalType": "string",
          "name": "certId",
          "type": "string"
        },
        {
          "internalType": "string",
          "name": "certNumber",
          "type": "string"
        },
        {
          "internalType": "string",
          "name": "instanceName",
          "type": "string"
        },
        {
          "internalType": "uint8",
          "name": "tipePermohonan",
          "type": "uint8"
        },
        {
          "internalType": "enum EnumsLibrary.StatusCertificate",
          "name": "status",
          "type": "uint8"
        },
        {
          "internalType": "string",
          "name": "certHash",
          "type": "string"
        }
      ],
      "stateMutability": "view",
      "type": "function"
    },
    {
      "inputs": [
        {
          "internalType": "string",
          "name": "_certNumber",
          "type": "string"
        },
        {
          "internalType": "string",
          "name": "_certId",
          "type": "string"
        },
        {
          "internalType": "string",
          "name": "_bpomName",
          "type": "string"
        },
        {
          "internalType": "string",
          "name": "_bpomInstance",
          "type": "string"
        },
        {
          "internalType": "address",
          "name": "_bpomAddr",
          "type": "address"
        },
        {
          "internalType": "string",
          "name": "_ipfsCert",
          "type": "string"
        }
      ],
      "name": "approveCdob",
      "outputs": [],
      "stateMutability": "nonpayable",
      "type": "function"
    },
    {
      "inputs": [
        {
          "components": [
            {
              "internalType": "string",
              "name": "userName",
              "type": "string"
            },
            {
              "internalType": "string",
              "name": "userInstance",
              "type": "string"
            },
            {
              "internalType": "address",
              "name": "userAddr",
              "type": "address"
            }
          ],
          "internalType": "struct BaseCertificate.UserCert",
          "name": "_sender",
          "type": "tuple"
        },
        {
          "components": [
            {
              "internalType": "string",
              "name": "userName",
              "type": "string"
            },
            {
              "internalType": "string",
              "name": "userInstance",
              "type": "string"
            },
            {
              "internalType": "address",
              "name": "userAddr",
              "type": "address"
            }
          ],
          "internalType": "struct BaseCertificate.UserCert",
          "name": "_bpom",
          "type": "tuple"
        },
        {
          "internalType": "string",
          "name": "_certId",
          "type": "string"
        }
      ],
      "name": "createCertificateDetails",
      "outputs": [],
      "stateMutability": "nonpayable",
      "type": "function"
    },
    {
      "inputs": [
        {
          "internalType": "string",
          "name": "_userName",
          "type": "string"
        },
        {
          "internalType": "string",
          "name": "_userInstance",
          "type": "string"
        },
        {
          "internalType": "address",
          "name": "_userAddr",
          "type": "address"
        }
      ],
      "name": "createUserCertificate",
      "outputs": [
        {
          "components": [
            {
              "internalType": "string",
              "name": "userName",
              "type": "string"
            },
            {
              "internalType": "string",
              "name": "userInstance",
              "type": "string"
            },
            {
              "internalType": "address",
              "name": "userAddr",
              "type": "address"
            }
          ],
          "internalType": "struct BaseCertificate.UserCert",
          "name": "",
          "type": "tuple"
        }
      ],
      "stateMutability": "pure",
      "type": "function"
    },
    {
      "inputs": [],
      "name": "getAllCdob",
      "outputs": [
        {
          "components": [
            {
              "internalType": "string",
              "name": "certId",
              "type": "string"
            },
            {
              "internalType": "string",
              "name": "certNumber",
              "type": "string"
            },
            {
              "internalType": "string",
              "name": "instanceName",
              "type": "string"
            },
            {
              "internalType": "uint8",
              "name": "tipePermohonan",
              "type": "uint8"
            },
            {
              "internalType": "enum EnumsLibrary.StatusCertificate",
              "name": "status",
              "type": "uint8"
            },
            {
              "internalType": "string",
              "name": "certHash",
              "type": "string"
            }
          ],
          "internalType": "struct CdobCertificate.CertificateList[]",
          "name": "",
          "type": "tuple[]"
        }
      ],
      "stateMutability": "view",
      "type": "function"
    },
    {
      "inputs": [
        {
          "internalType": "string",
          "name": "_instanceName",
          "type": "string"
        }
      ],
      "name": "getAllCdobByInstance",
      "outputs": [
        {
          "components": [
            {
              "internalType": "string",
              "name": "certId",
              "type": "string"
            },
            {
              "internalType": "string",
              "name": "certNumber",
              "type": "string"
            },
            {
              "internalType": "string",
              "name": "instanceName",
              "type": "string"
            },
            {
              "internalType": "uint8",
              "name": "tipePermohonan",
              "type": "uint8"
            },
            {
              "internalType": "enum EnumsLibrary.StatusCertificate",
              "name": "status",
              "type": "uint8"
            },
            {
              "internalType": "string",
              "name": "certHash",
              "type": "string"
            }
          ],
          "internalType": "struct CdobCertificate.CertificateList[]",
          "name": "",
          "type": "tuple[]"
        }
      ],
      "stateMutability": "view",
      "type": "function"
    },
    {
      "inputs": [
        {
          "internalType": "string",
          "name": "_certId",
          "type": "string"
        }
      ],
      "name": "getCdobDetails",
      "outputs": [
        {
          "components": [
            {
              "internalType": "string",
              "name": "cdobId",
              "type": "string"
            },
            {
              "internalType": "string",
              "name": "cdobNumber",
              "type": "string"
            },
            {
              "internalType": "uint8",
              "name": "tipePermohonan",
              "type": "uint8"
            }
          ],
          "internalType": "struct CdobCertificate.CdobData",
          "name": "",
          "type": "tuple"
        },
        {
          "components": [
            {
              "internalType": "string",
              "name": "suratPermohonan",
              "type": "string"
            },
            {
              "internalType": "string",
              "name": "buktiPembayaranPajak",
              "type": "string"
            }
          ],
          "internalType": "struct CdobCertificate.DokumenAdministrasi",
          "name": "",
          "type": "tuple"
        },
        {
          "components": [
            {
              "internalType": "string",
              "name": "suratIzinCdob",
              "type": "string"
            },
            {
              "internalType": "string",
              "name": "denahBangunan",
              "type": "string"
            },
            {
              "internalType": "string",
              "name": "strukturOrganisasi",
              "type": "string"
            },
            {
              "internalType": "string",
              "name": "daftarPersonalia",
              "type": "string"
            },
            {
              "internalType": "string",
              "name": "daftarPeralatan",
              "type": "string"
            },
            {
              "internalType": "string",
              "name": "eksekutifQualityManagement",
              "type": "string"
            },
            {
              "internalType": "string",
              "name": "suratIzinApoteker",
              "type": "string"
            },
            {
              "internalType": "string",
              "name": "dokumenSelfAssesment",
              "type": "string"
            }
          ],
          "internalType": "struct CdobCertificate.DokumenTeknis",
          "name": "",
          "type": "tuple"
        }
      ],
      "stateMutability": "view",
      "type": "function"
    },
    {
      "inputs": [
        {
          "internalType": "string",
          "name": "_certId",
          "type": "string"
        }
      ],
      "name": "getCertDetail",
      "outputs": [
        {
          "components": [
            {
              "internalType": "enum EnumsLibrary.StatusCertificate",
              "name": "status",
              "type": "uint8"
            },
            {
              "internalType": "uint256",
              "name": "timestampRequest",
              "type": "uint256"
            },
            {
              "internalType": "uint256",
              "name": "timestampApprove",
              "type": "uint256"
            },
            {
              "internalType": "uint256",
              "name": "timestampRejected",
              "type": "uint256"
            },
            {
              "internalType": "uint256",
              "name": "timestsmpRenewRequest",
              "type": "uint256"
            },
            {
              "components": [
                {
                  "internalType": "string",
                  "name": "userName",
                  "type": "string"
                },
                {
                  "internalType": "string",
                  "name": "userInstance",
                  "type": "string"
                },
                {
                  "internalType": "address",
                  "name": "userAddr",
                  "type": "address"
                }
              ],
              "internalType": "struct BaseCertificate.UserCert",
              "name": "sender",
              "type": "tuple"
            },
            {
              "components": [
                {
                  "internalType": "string",
                  "name": "userName",
                  "type": "string"
                },
                {
                  "internalType": "string",
                  "name": "userInstance",
                  "type": "string"
                },
                {
                  "internalType": "address",
                  "name": "userAddr",
                  "type": "address"
                }
              ],
              "internalType": "struct BaseCertificate.UserCert",
              "name": "bpom",
              "type": "tuple"
            },
            {
              "internalType": "string",
              "name": "ipfsCert",
              "type": "string"
            }
          ],
          "internalType": "struct BaseCertificate.CertificateDetails",
          "name": "",
          "type": "tuple"
        }
      ],
      "stateMutability": "view",
      "type": "function"
    },
    {
      "inputs": [
        {
          "internalType": "string",
          "name": "_certId",
          "type": "string"
        }
      ],
      "name": "getCertDetails",
      "outputs": [
        {
          "components": [
            {
              "internalType": "enum EnumsLibrary.StatusCertificate",
              "name": "status",
              "type": "uint8"
            },
            {
              "internalType": "uint256",
              "name": "timestampRequest",
              "type": "uint256"
            },
            {
              "internalType": "uint256",
              "name": "timestampApprove",
              "type": "uint256"
            },
            {
              "internalType": "uint256",
              "name": "timestampRejected",
              "type": "uint256"
            },
            {
              "internalType": "uint256",
              "name": "timestsmpRenewRequest",
              "type": "uint256"
            },
            {
              "components": [
                {
                  "internalType": "string",
                  "name": "userName",
                  "type": "string"
                },
                {
                  "internalType": "string",
                  "name": "userInstance",
                  "type": "string"
                },
                {
                  "internalType": "address",
                  "name": "userAddr",
                  "type": "address"
                }
              ],
              "internalType": "struct BaseCertificate.UserCert",
              "name": "sender",
              "type": "tuple"
            },
            {
              "components": [
                {
                  "internalType": "string",
                  "name": "userName",
                  "type": "string"
                },
                {
                  "internalType": "string",
                  "name": "userInstance",
                  "type": "string"
                },
                {
                  "internalType": "address",
                  "name": "userAddr",
                  "type": "address"
                }
              ],
              "internalType": "struct BaseCertificate.UserCert",
              "name": "bpom",
              "type": "tuple"
            },
            {
              "internalType": "string",
              "name": "ipfsCert",
              "type": "string"
            }
          ],
          "internalType": "struct BaseCertificate.CertificateDetails",
          "name": "",
          "type": "tuple"
        }
      ],
      "stateMutability": "view",
      "type": "function"
    },
    {
      "inputs": [
        {
          "internalType": "string",
          "name": "_certId",
          "type": "string"
        }
      ],
      "name": "getRejectMsg",
      "outputs": [
        {
          "internalType": "string",
          "name": "",
          "type": "string"
        }
      ],
      "stateMutability": "view",
      "type": "function"
    },
    {
      "inputs": [
        {
          "internalType": "string",
          "name": "_certId",
          "type": "string"
        }
      ],
      "name": "getRejectsMsg",
      "outputs": [
        {
          "internalType": "string",
          "name": "",
          "type": "string"
        }
      ],
      "stateMutability": "view",
      "type": "function"
    },
    {
      "inputs": [
        {
          "internalType": "string",
          "name": "_certId",
          "type": "string"
        }
      ],
      "name": "getSenderDetail",
      "outputs": [
        {
          "components": [
            {
              "internalType": "string",
              "name": "userName",
              "type": "string"
            },
            {
              "internalType": "string",
              "name": "userInstance",
              "type": "string"
            },
            {
              "internalType": "address",
              "name": "userAddr",
              "type": "address"
            }
          ],
          "internalType": "struct BaseCertificate.UserCert",
          "name": "",
          "type": "tuple"
        }
      ],
      "stateMutability": "view",
      "type": "function"
    },
    {
      "inputs": [
        {
          "internalType": "string",
          "name": "_certId",
          "type": "string"
        },
        {
          "internalType": "string",
          "name": "_rejectMsg",
          "type": "string"
        },
        {
          "internalType": "string",
          "name": "_bpomName",
          "type": "string"
        },
        {
          "internalType": "string",
          "name": "_bpomInstance",
          "type": "string"
        },
        {
          "internalType": "address",
          "name": "_bpomAddr",
          "type": "address"
        }
      ],
      "name": "rejectCdob",
      "outputs": [],
      "stateMutability": "nonpayable",
      "type": "function"
    },
    {
      "inputs": [
        {
          "internalType": "string",
          "name": "_certId",
          "type": "string"
        },
        {
          "components": [
            {
              "internalType": "string",
              "name": "suratPermohonan",
              "type": "string"
            },
            {
              "internalType": "string",
              "name": "buktiPembayaranPajak",
              "type": "string"
            }
          ],
          "internalType": "struct CdobCertificate.DokumenAdministrasi",
          "name": "_newDokuAdmin",
          "type": "tuple"
        },
        {
          "components": [
            {
              "internalType": "string",
              "name": "suratIzinCdob",
              "type": "string"
            },
            {
              "internalType": "string",
              "name": "denahBangunan",
              "type": "string"
            },
            {
              "internalType": "string",
              "name": "strukturOrganisasi",
              "type": "string"
            },
            {
              "internalType": "string",
              "name": "daftarPersonalia",
              "type": "string"
            },
            {
              "internalType": "string",
              "name": "daftarPeralatan",
              "type": "string"
            },
            {
              "internalType": "string",
              "name": "eksekutifQualityManagement",
              "type": "string"
            },
            {
              "internalType": "string",
              "name": "suratIzinApoteker",
              "type": "string"
            },
            {
              "internalType": "string",
              "name": "dokumenSelfAssesment",
              "type": "string"
            }
          ],
          "internalType": "struct CdobCertificate.DokumenTeknis",
          "name": "_newDokuTeknis",
          "type": "tuple"
        }
      ],
      "name": "renewRequestCdob",
      "outputs": [],
      "stateMutability": "nonpayable",
      "type": "function"
    },
    {
      "inputs": [
        {
          "internalType": "string",
          "name": "_certId",
          "type": "string"
        },
        {
          "internalType": "string",
          "name": "_pbfName",
          "type": "string"
        },
        {
          "internalType": "string",
          "name": "_pbfInstance",
          "type": "string"
        },
        {
          "internalType": "address",
          "name": "_pbfAddr",
          "type": "address"
        },
        {
          "internalType": "uint8",
          "name": "_tipePermohonanCdob",
          "type": "uint8"
        },
        {
          "components": [
            {
              "internalType": "string",
              "name": "suratPermohonan",
              "type": "string"
            },
            {
              "internalType": "string",
              "name": "buktiPembayaranPajak",
              "type": "string"
            }
          ],
          "internalType": "struct CdobCertificate.DokumenAdministrasi",
          "name": "_dokuAdmin",
          "type": "tuple"
        },
        {
          "components": [
            {
              "internalType": "string",
              "name": "suratIzinCdob",
              "type": "string"
            },
            {
              "internalType": "string",
              "name": "denahBangunan",
              "type": "string"
            },
            {
              "internalType": "string",
              "name": "strukturOrganisasi",
              "type": "string"
            },
            {
              "internalType": "string",
              "name": "daftarPersonalia",
              "type": "string"
            },
            {
              "internalType": "string",
              "name": "daftarPeralatan",
              "type": "string"
            },
            {
              "internalType": "string",
              "name": "eksekutifQualityManagement",
              "type": "string"
            },
            {
              "internalType": "string",
              "name": "suratIzinApoteker",
              "type": "string"
            },
            {
              "internalType": "string",
              "name": "dokumenSelfAssesment",
              "type": "string"
            }
          ],
          "internalType": "struct CdobCertificate.DokumenTeknis",
          "name": "_dokuTeknis",
          "type": "tuple"
        }
      ],
      "name": "requestCdob",
      "outputs": [],
      "stateMutability": "nonpayable",
      "type": "function"
    },
    {
      "inputs": [
        {
          "internalType": "string",
          "name": "_certId",
          "type": "string"
        },
        {
          "internalType": "string",
          "name": "_ipfsCert",
          "type": "string"
        },
        {
          "components": [
            {
              "internalType": "string",
              "name": "userName",
              "type": "string"
            },
            {
              "internalType": "string",
              "name": "userInstance",
              "type": "string"
            },
            {
              "internalType": "address",
              "name": "userAddr",
              "type": "address"
            }
          ],
          "internalType": "struct BaseCertificate.UserCert",
          "name": "_bpom",
          "type": "tuple"
        }
      ],
      "name": "updateBpomApproveDetails",
      "outputs": [],
      "stateMutability": "nonpayable",
      "type": "function"
    },
    {
      "inputs": [
        {
          "internalType": "string",
          "name": "_certId",
          "type": "string"
        },
        {
          "internalType": "string",
          "name": "_rejectMsg",
          "type": "string"
        },
        {
          "components": [
            {
              "internalType": "string",
              "name": "userName",
              "type": "string"
            },
            {
              "internalType": "string",
              "name": "userInstance",
              "type": "string"
            },
            {
              "internalType": "address",
              "name": "userAddr",
              "type": "address"
            }
          ],
          "internalType": "struct BaseCertificate.UserCert",
          "name": "_bpom",
          "type": "tuple"
        }
      ],
      "name": "updateBpomRejectDetails",
      "outputs": [],
      "stateMutability": "nonpayable",
      "type": "function"
    },
    {
      "inputs": [
        {
          "internalType": "string",
          "name": "_certId",
          "type": "string"
        }
      ],
      "name": "updateRenewDetails",
      "outputs": [],
      "stateMutability": "nonpayable",
      "type": "function"
    }
  ],
  "bytecode": "0x608080604052346015576149c8908161001a8239f35b5f80fdfe60806040526004361015610011575f80fd5b5f3560e01c806308b10db31461317857806317e683091461311757806319859c87146130df5780631acf250014612fa857806323be1c9d14612f0c5780632b93f7f214612a775780632e9cf827146129f35780632f4ba1d51461299d57806343762aa8146128db578063682053d9146115145780636d1aa7d5146113625780636f12c230146113b1578063761fb19a146113625780637e8f8da71461105e5780639aaa5d8b14611023578063a7226527146103fa578063be2e2325146103aa578063d0e5da8914610322578063dd9637531461023b578063e9c260d714610224578063f14261d2146101ac578063f5104ff1146101955763fb5fb9a314610116575f80fd5b34610191576060366003190112610191576004356001600160401b0381116101915761014690369060040161384a565b6024356001600160401b0381116101915761016590369060040161384a565b90604435916001600160401b0383116101915761018961018f933690600401613342565b91614370565b005b5f80fd5b346101915761018f6101a6366138c2565b91613ff3565b34610191575f366003190112610191576002546101c881613a7d565b905f805b8282106101e557604051806101e186826136b6565b0390f35b61021c6001916102166102006101fa866134e7565b50613b08565b60ff83169061020f828a613af4565b5287613af4565b50613a41565b9101906101cc565b346101915761018f610235366138c2565b91613c56565b34610191576020366003190112610191576004356001600160401b038111610191576020806102716102df933690600401613342565b604051928184925191829101835e81015f8152030190206101e160ff82541691610314600182015491610306600282015460038301546004840154906102b96005860161380b565b926102d2600b6102cb6008890161380b565b97016133cf565b976040519b8c809c613517565b60208b015260408a01526060890152608088015261010060a0880152610100870190613493565b9085820360c0870152613493565b9083820360e085015261346f565b34610191576020366003190112610191576004356001600160401b0381116101915760208061035861039c933690600401613342565b604051928184925191829101835e810160048152030190206101e16103886001610381846133cf565b93016133cf565b60405193849360408552604085019061346f565b90838203602085015261346f565b34610191576020366003190112610191576004356001600160401b038111610191576103ee6103e06101e1923690600401613342565b6103e8613b70565b50613bba565b6040519182918261377e565b34610191576060366003190112610191576004356001600160401b0381116101915761042a903690600401613342565b6024356001600160401b03811161019157610449903690600401613524565b906044356001600160401b03811161019157610469903690600401613583565b6104728261394a565b602082015f5b60025481101561018f5761048b816134e7565b506040516104af816104a1602082018095613978565b03601f198101835282613321565b51902060405160208101906104dc60208289518089875e81015f838201520301601f198101835282613321565b519020146104ed575b600101610478565b60036104f8826134e7565b5001805461ff0019166103001790556105226020610515836134e7565b5060405192838092613978565b600481520301902085518051906001600160401b038211610970576105478354613397565b601f8111610fde575b50602090601f8311600114610f785760019392915f9183610f6d575b50505f19600383901b1c191690831b1781555b0160208601518051906001600160401b0382116109705781906105a28454613397565b601f8111610f1d575b50602090601f8311600114610eba575f92610eaf575b50508160011b915f199060031b1c19161790555b6105e36020610515836134e7565b600581520301902083518051906001600160401b03821161097057819061060a8454613397565b601f8111610e5f575b50602090601f8311600114610dfc575f92610df1575b50508160011b915f199060031b1c19161781555b6001810160208501518051906001600160401b0382116109705781906106638454613397565b601f8111610da1575b50602090601f8311600114610d3e575f92610d33575b50508160011b915f199060031b1c19161790555b6002810160408501518051906001600160401b0382116109705781906106bc8454613397565b601f8111610ce3575b50602090601f8311600114610c80575f92610c75575b50508160011b915f199060031b1c19161790555b6003810160608501518051906001600160401b0382116109705781906107158454613397565b601f8111610c25575b50602090601f8311600114610bc2575f92610bb7575b50508160011b915f199060031b1c19161790555b6004810160808501518051906001600160401b03821161097057819061076e8454613397565b601f8111610b67575b50602090601f8311600114610b04575f92610af9575b50508160011b915f199060031b1c19161790555b6005810160a08501518051906001600160401b0382116109705781906107c78454613397565b601f8111610aa9575b50602090601f8311600114610a46575f92610a3b575b50508160011b915f199060031b1c19161790555b6006810160c08501518051906001600160401b0382116109705761081e8354613397565b601f81116109f6575b50602090601f831160011461098f576007949392915f9183610984575b50508160011b915f199060031b1c19161790555b0160e08401518051906001600160401b038211610970576108798354613397565b601f811161092b575b50602090601f83116001146108c4576001949392915f91836108b9575b50505f19600383901b1c191690841b1790555b90506104e5565b01519050898061089f565b90601f19831691845f52815f20925f5b8181106109135750916001969594929183889593106108fb575b505050811b0190556108b2565b01515f1960f88460031b161c191690558980806108ee565b929360206001819287860151815501950193016108d4565b835f5260205f20601f840160051c81019160208510610966575b601f0160051c01905b81811061095b5750610882565b5f815560010161094e565b9091508190610945565b634e487b7160e01b5f52604160045260245ffd5b015190508a80610844565b90601f19831691845f52815f20925f5b8181106109de5750916001939185600798979694106109c6575b505050811b019055610858565b01515f1960f88460031b161c191690558a80806109b9565b9293602060018192878601518155019501930161099f565b835f5260205f20601f840160051c81019160208510610a31575b601f0160051c01905b818110610a265750610827565b5f8155600101610a19565b9091508190610a10565b0151905089806107e6565b5f8581528281209350601f198516905b818110610a915750908460019594939210610a79575b505050811b0190556107fa565b01515f1960f88460031b161c19169055898080610a6c565b92936020600181928786015181550195019301610a56565b909150835f5260205f20601f840160051c81019160208510610aef575b90601f859493920160051c01905b818110610ae157506107d0565b5f8155849350600101610ad4565b9091508190610ac6565b01519050898061078d565b5f8581528281209350601f198516905b818110610b4f5750908460019594939210610b37575b505050811b0190556107a1565b01515f1960f88460031b161c19169055898080610b2a565b92936020600181928786015181550195019301610b14565b909150835f5260205f20601f840160051c81019160208510610bad575b90601f859493920160051c01905b818110610b9f5750610777565b5f8155849350600101610b92565b9091508190610b84565b015190508980610734565b5f8581528281209350601f198516905b818110610c0d5750908460019594939210610bf5575b505050811b019055610748565b01515f1960f88460031b161c19169055898080610be8565b92936020600181928786015181550195019301610bd2565b909150835f5260205f20601f840160051c81019160208510610c6b575b90601f859493920160051c01905b818110610c5d575061071e565b5f8155849350600101610c50565b9091508190610c42565b0151905089806106db565b5f8581528281209350601f198516905b818110610ccb5750908460019594939210610cb3575b505050811b0190556106ef565b01515f1960f88460031b161c19169055898080610ca6565b92936020600181928786015181550195019301610c90565b909150835f5260205f20601f840160051c81019160208510610d29575b90601f859493920160051c01905b818110610d1b57506106c5565b5f8155849350600101610d0e565b9091508190610d00565b015190508980610682565b5f8581528281209350601f198516905b818110610d895750908460019594939210610d71575b505050811b019055610696565b01515f1960f88460031b161c19169055898080610d64565b92936020600181928786015181550195019301610d4e565b909150835f5260205f20601f840160051c81019160208510610de7575b90601f859493920160051c01905b818110610dd9575061066c565b5f8155849350600101610dcc565b9091508190610dbe565b015190508880610629565b5f8581528281209350601f198516905b818110610e475750908460019594939210610e2f575b505050811b01815561063d565b01515f1960f88460031b161c19169055888080610e22565b92936020600181928786015181550195019301610e0c565b909150835f5260205f20601f840160051c81019160208510610ea5575b90601f859493920160051c01905b818110610e975750610613565b5f8155849350600101610e8a565b9091508190610e7c565b0151905088806105c1565b5f8581528281209350601f198516905b818110610f055750908460019594939210610eed575b505050811b0190556105d5565b01515f1960f88460031b161c19169055888080610ee0565b92936020600181928786015181550195019301610eca565b909150835f5260205f20601f840160051c81019160208510610f63575b90601f859493920160051c01905b818110610f5557506105ab565b5f8155849350600101610f48565b9091508190610f3a565b01519050898061056c565b90601f19831691845f52815f20925f5b818110610fc65750916001959492918387959310610fae575b505050811b01815561057f565b01515f1960f88460031b161c19169055898080610fa1565b92936020600181928786015181550195019301610f88565b835f5260205f20601f840160051c81019160208510611019575b601f0160051c01905b81811061100e5750610550565b5f8155600101611001565b9091508190610ff8565b34610191576020366003190112610191576004356001600160401b038111610191576103ee6110596101e1923690600401613342565b613bba565b34610191576020366003190112610191576004356001600160401b0381116101915761108e903690600401613342565b61109661392a565b506040516110a3816132ea565b60608152602001606090526040516110ba81613305565b60608152602081016060905260408101606090526060810160609052608081016060905260a081016060905260c081016060905260e00160609052604051908051918060208301938085835e810160038152036020019020916040518083518084835e81016004815203602001902091604051918291518091835e8101600581520360200190206040519161114e836132b4565b611157846133cf565b8352611165600185016133cf565b93602084019485526002015460ff16916040840192835260405191611189836132ea565b611192816133cf565b83526001016111a0906133cf565b60208301908152604051936111b485613305565b6111bd836133cf565b85526111cb600184016133cf565b602086019081526111de600285016133cf565b604087019081526111f1600386016133cf565b6060880190815291611205600487016133cf565b6080890190815293611219600588016133cf565b60a08a019081529561122d600689016133cf565b9760c08b01988952600701611241906133cf565b9860e08b01998a526040519c8d9c60608e52518d606081016060905260c0016112699161346f565b90518d8203605f190160808f0152611281919061346f565b925160ff1660a08d01528b830360208d01525160408352604083016112a59161346f565b90519180820390602001526112b99161346f565b9789890360408b015251610100895261010089016112d69161346f565b90519088810360208a01526112ea9161346f565b90519087810360408901526112fe9161346f565b90519086810360608801526113129161346f565b90519085810360808701526113269161346f565b90519084810360a086015261133a9161346f565b90519083810360c085015261134e9161346f565b9051918082039060e001526101e19161346f565b34610191576020366003190112610191576004356001600160401b0381116101915761139d6113986101e1923690600401613342565b613a1e565b60405191829160208352602083019061346f565b34610191576020366003190112610191576004356001600160401b038111610191576113e1903690600401613342565b60025460208201915f805b8381106114b1575060ff6114009116613a7d565b925f915f5b84811061141a57604051806101e188826136b6565b60026104a161143f61142b846134e7565b506040519283916020830195869101613978565b519020604051602081019061146c6020828751808a875e81015f838201520301601f198101835282613321565b5190201461147d575b600101611405565b926114a96001916102166114936101fa886134e7565b60ff8316906114a2828c613af4565b5289613af4565b939050611475565b60026104a16114c261142b846134e7565b51902060405160208101906114ef6020828851808c875e81015f838201520301601f198101835282613321565b51902014611500575b6001016113ec565b9061150c600191613a41565b9190506114f8565b346101915760e0366003190112610191576004356001600160401b03811161019157611544903690600401613342565b6024356001600160401b03811161019157611563903690600401613342565b6044356001600160401b03811161019157611582903690600401613342565b916064356001600160a01b0381168103610191576084359160ff83168093036101915760a4356001600160401b038111610191576115c4903690600401613524565b9160c435906001600160401b03821161019157866115e96115ef933690600401613583565b966139e2565b9461163f82602097604051906116058a83613321565b5f82526040516116158b82613321565b5f815261162061392a565b506040519261162e846132b4565b83528a8301525f6040830152614370565b6040519361164c856132b4565b8285526040519461165d8887613321565b5f865287810195865260408101828152604051968551978a818189019a808c835e8101600381520301902092518051906001600160401b0382116109705781908c6116a88754613397565b601f811161288a575b50508c908d601f841160011461282657505f9261281b575b50508160011b915f199060031b1c19161783555b51805160018401916001600160401b038211610970578b6116fe8454613397565b601f81116127d6575b50508b908c601f841160011461276a5750928260ff95929386946002965f9261275f575b50508160011b915f199060031b1c19161790555b51169201911660ff1982541617905560405161175a816132cf565b8381526040519261176b8985613321565b5f8452888201938452604082019081526060820192835260808201905f8252604051946117988b87613321565b5f865260a0840195865260025468010000000000000000811015610970578060016117c692016002556134e7565b94909461274c57518051906001600160401b038211610970578c82916117ec8854613397565b601f81116126f4575b5081601f841160011461269057505f92612685575b50508160011b915f199060031b1c19161784555b51805160018501916001600160401b038211610970578c82916118418554613397565b601f811161262d575b5081601f84116001146125c957505f926125be575b50508160011b915f199060031b1c19161790555b51805160028401916001600160401b0382116109705781908c6118968554613397565b601f811161256d575b50508c908d601f841160011461250957505f926124fe575b50508160011b915f199060031b1c19161790555b60ff80600384019451161660ff19845416178355519160048310156124ea5760049261ff0082549160081b169061ff0019161790550190518051906001600160401b0382116109705781906119208454613397565b601f811161249c575b508890601f8311600114612439575f9261242e575b50508160011b915f199060031b1c19161790555b604051858183518087835e8101600481520301902082519081516001600160401b0381116109705787926119868354613397565b601f81116123dc575b508390601f83116001146123765760019392915f918361236b575b50505f19600383901b1c191690831b1781555b019201519182516001600160401b0381116109705786936119de8354613397565b601f8111612317575b5081908590601f83116001146122b4575f926122a9575b50508160011b915f199060031b1c19161790555b604051928391518091835e810160058152030190209080519182516001600160401b03811161097057611a458254613397565b601f8111612266575b508493601f82116001146122065793819293945f926121fb575b50508160011b915f199060031b1c19161781555b60018101838301518051906001600160401b038211610970578190611aa18454613397565b601f81116121ad575b508690601f831160011461214a575f9261213f575b50508160011b915f199060031b1c19161790555b6002810160408301518051906001600160401b038211610970578190611af98454613397565b601f81116120f1575b508690601f831160011461208e575f92612083575b50508160011b915f199060031b1c19161790555b6003810160608301518051906001600160401b038211610970578190611b518454613397565b601f8111612035575b508690601f8311600114611fd2575f92611fc7575b50508160011b915f199060031b1c19161790555b6004810160808301518051906001600160401b038211610970578190611ba98454613397565b601f8111611f79575b508690601f8311600114611f16575f92611f0b575b50508160011b915f199060031b1c19161790555b6005810160a08301518051906001600160401b038211610970578190611c018454613397565b601f8111611ebd575b508690601f8311600114611e5a575f92611e4f575b50508160011b915f199060031b1c19161790555b6006810160c08301518051906001600160401b03821161097057611c578354613397565b601f8111611e0c575b508590601f8311600114611da35791806007949260e096945f92611d98575b50508160011b915f199060031b1c19161790555b01910151918251906001600160401b03821161097057611cb38354613397565b601f8111611d55575b5080601f8311600114611cf657508192935f92611ceb575b50505f19600383901b1c191660019190911b179055005b015190508380611cd4565b90601f19831694845f52825f20925f905b878210611d3d575050836001959610611d25575b505050811b019055005b01515f1960f88460031b161c19169055838080611d1b565b80600185968294968601518155019501930190611d07565b835f52815f20601f840160051c810191838510611d8e575b601f0160051c01905b818110611d835750611cbc565b5f8155600101611d76565b9091508190611d6d565b015190508880611c7f565b90601f19831691845f52875f20925f5b89828210611df657505092600192859260e098966007989610611dde575b505050811b019055611c93565b01515f1960f88460031b161c19169055888080611dd1565b6001859682939686015181550195019301611db3565b835f52865f20601f840160051c810191888510611e45575b601f0160051c01905b818110611e3a5750611c60565b5f8155600101611e2d565b9091508190611e24565b015190508680611c1f565b5f8581528881209350601f198516905b89828210611ea7575050908460019594939210611e8f575b505050811b019055611c33565b01515f1960f88460031b161c19169055868080611e82565b6001859682939686015181550195019301611e6a565b909150835f52865f20601f840160051c810191888510611f01575b90601f859493920160051c01905b818110611ef35750611c0a565b5f8155849350600101611ee6565b9091508190611ed8565b015190508680611bc7565b5f8581528881209350601f198516905b89828210611f63575050908460019594939210611f4b575b505050811b019055611bdb565b01515f1960f88460031b161c19169055868080611f3e565b6001859682939686015181550195019301611f26565b909150835f52865f20601f840160051c810191888510611fbd575b90601f859493920160051c01905b818110611faf5750611bb2565b5f8155849350600101611fa2565b9091508190611f94565b015190508680611b6f565b5f8581528881209350601f198516905b8982821061201f575050908460019594939210612007575b505050811b019055611b83565b01515f1960f88460031b161c19169055868080611ffa565b6001859682939686015181550195019301611fe2565b909150835f52865f20601f840160051c810191888510612079575b90601f859493920160051c01905b81811061206b5750611b5a565b5f815584935060010161205e565b9091508190612050565b015190508680611b17565b5f8581528881209350601f198516905b898282106120db5750509084600195949392106120c3575b505050811b019055611b2b565b01515f1960f88460031b161c191690558680806120b6565b600185968293968601518155019501930161209e565b909150835f52865f20601f840160051c810191888510612135575b90601f859493920160051c01905b8181106121275750611b02565b5f815584935060010161211a565b909150819061210c565b015190508680611abf565b5f8581528881209350601f198516905b8982821061219757505090846001959493921061217f575b505050811b019055611ad3565b01515f1960f88460031b161c19169055868080612172565b600185968293968601518155019501930161215a565b909150835f52865f20601f840160051c8101918885106121f1575b90601f859493920160051c01905b8181106121e35750611aaa565b5f81558493506001016121d6565b90915081906121c8565b015190508580611a68565b601f19821694835f52865f20915f5b8888821061225057505083600195969710612238575b505050811b018155611a7c565b01515f1960f88460031b161c1916905585808061222b565b6001849582939585015181550194019201612215565b825f52855f20601f830160051c81019187841061229f575b601f0160051c01905b8181106122945750611a4e565b5f8155600101612287565b909150819061227e565b0151905088806119fe565b5f8581528781209350601f198516905b888282106123015750509084600195949392106122e9575b505050811b019055611a12565b01515f1960f88460031b161c191690558880806122dc565b60018596829396860151815501950193016122c4565b909192809495505f52875f20601f840160051c810191898510612361575b90601f8a9796959493920160051c01905b81811061235357506119e7565b5f8155899650600101612346565b9091508190612335565b015190508a806119aa565b90601f19831691845f52855f20925f5b878282106123c65750509160019594929183879593106123ae575b505050811b0181556119bd565b01515f1960f88460031b161c191690558a80806123a1565b6001859682939686015181550195019301612386565b9091928094505f52885f20601f840160051c8101918a8510612424575b90601f8b96959493920160051c01905b818110612416575061198f565b5f81558a9550600101612409565b90915081906123f9565b01519050888061193e565b5f8581528a81209350601f198516905b8b82821061248657505090846001959493921061246e575b505050811b019055611952565b01515f1960f88460031b161c19169055888080612461565b6001859682939686015181550195019301612449565b909150835f52885f20601f840160051c8101918a85106124e0575b90601f859493920160051c01905b8181106124d25750611929565b5f81558493506001016124c5565b90915081906124b7565b634e487b7160e01b5f52602160045260245ffd5b015190508c806118b7565b5f8681528181209450601f198616915b82821061255557505090846001959493921061253d575b505050811b0190556118cb565b01515f1960f88460031b161c191690558c8080612530565b80600186978294978701518155019601940190612519565b90919250845f52815f2090601f850160051c82019285106125b4575b90601f859493920160051c01905b8181106125a6578e915061189f565b5f8155849350600101612597565b9091508190612589565b015190508d8061185f565b5f8681528181209450601f198616915b8282106126155750509084600195949392106125fd575b505050811b019055611873565b01515f1960f88460031b161c191690558d80806125f0565b806001869782949787015181550196019401906125d9565b909250845f52815f2090601f850160051c820192851061267b575b918f9291601f8695930160051c01905b818110612665575061184a565b90925060019193505f815501918e918493612658565b9091508190612648565b015190508d8061180a565b5f8981528181209450601f198616915b8282106126dc5750509084600195949392106126c4575b505050811b01845561181e565b01515f1960f88460031b161c191690558d80806126b7565b806001869782949787015181550196019401906126a0565b909250875f52815f2090601f850160051c8201928510612742575b918f9291601f8695930160051c01905b81811061272c57506117f5565b90925060019193505f815501918e91849361271f565b909150819061270f565b634e487b7160e01b5f525f60045260245ffd5b015190508f8061172b565b9190601f198416855f52835f20935f905b8282106127be5750509360ff969360029693600193838a98106127a6575b505050811b01905561173f565b01515f1960f88460031b161c191690558f8080612799565b8060018697829497870151815501960194019061277b565b845f52815f2090601f850160051c8201928510612811575b601f0160051c01905b818110612806578d9150611707565b5f81556001016127f7565b90915081906127ee565b015190508c806116c9565b5f8881528181209450601f198616915b82821061287257505090846001959493921061285a575b505050811b0183556116dd565b01515f1960f88460031b161c191690558c808061284d565b80600186978294978701518155019601940190612836565b90919250865f52815f2090601f850160051c82019285106128d1575b90601f859493920160051c01905b8181106128c3578e91506116b1565b5f81558493506001016128b4565b90915081906128a6565b34610191576020366003190112610191576004356002548110156101915761290561295a916134e7565b506101e1612912826133cf565b9161291f600182016133cf565b612990612976612931600285016133cf565b6129686129456004600388015497016133cf565b94604051998a9960c08b5260c08b019061346f565b9089820360208b015261346f565b90878203604089015261346f565b9260ff8116606087015260ff608087019160081c16613517565b83820360a085015261346f565b34610191576020366003190112610191576004356001600160401b0381116101915761139d6020806129d66101e1943690600401613342565b604051928184925191829101835e810160018152030190206133cf565b34610191576060366003190112610191576004356001600160401b03811161019157612a23903690600401613342565b6024356001600160401b03811161019157612a42903690600401613342565b906044356001600160a01b0381168103610191576101e192612a63926139e2565b604051918291602083526020830190613493565b346101915760c0366003190112610191576004356001600160401b03811161019157612aa7903690600401613342565b6024356001600160401b03811161019157612ac6903690600401613342565b6044356001600160401b03811161019157612ae5903690600401613342565b6064356001600160401b03811161019157612b04903690600401613342565b612b0c6134d1565b60a435916001600160401b03831161019157612b2f612b35933690600401613342565b936139e2565b604051906001845192602081818801958087835e810160038152030190200185516001600160401b03811161097057612b6e8254613397565b601f8111612ec7575b506020601f8211600114612e60579080612bae9493925f91612e55575b508160011b915f199060031b1c19161790555b8385613ff3565b5f5b60025481101561018f57612bc3816134e7565b50604051612bd9816104a1602082018095613978565b5190206040516020810190612c0660208289518089875e81015f838201520301601f198101835282613321565b51902014612c17575b600101612bb0565b6001612c22826134e7565b500185516001600160401b03811161097057612c3e8254613397565b601f8111612e10575b50806020601f8211600114612dad575f91612da2575b508160011b915f199060031b1c19161790555b6003612c7b826134e7565b5001805461ff0019166101001790556004612c95826134e7565b500183516001600160401b03811161097057612cb18254613397565b601f8111612d5d575b506020601f8211600114612cfa57908060019493925f91612cef575b505f19600383901b1c191690841b1790555b9050612c0f565b905086015189612cd6565b601f19821690835f52805f20915f5b818110612d4557509183916001969594879410612d2d575b5050811b019055612ce8565b8801515f1960f88460031b161c191690558980612d21565b9192602060018192868c015181550194019201612d09565b825f5260205f20601f830160051c81019160208410612d98575b601f0160051c01905b818110612d8d5750612cba565b5f8155600101612d80565b9091508190612d77565b905087015188612c5d565b5f8481528181209250601f198416905b8a828210612df85750509083600194939210612de0575b5050811b019055612c70565b8901515f1960f88460031b161c191690558880612dd4565b60018495602093958493015181550194019201612dbd565b825f5260205f20601f830160051c81019160208410612e4b575b601f0160051c01905b818110612e405750612c47565b5f8155600101612e33565b9091508190612e2a565b905088015189612b94565b601f19821690835f52805f20915f5b8a828210612eaf575050918391612bae96959460019410612e97575b5050811b019055612ba7565b8a01515f1960f88460031b161c191690558980612e8b565b60018495602093958493015181550194019201612e6f565b825f5260205f20601f830160051c81019160208410612f02575b601f0160051c01905b818110612ef75750612b77565b5f8155600101612eea565b9091508190612ee1565b34610191576020366003190112610191576004356001600160401b03811161019157602080612f42612f90933690600401613342565b604051928184925191829101835e81016003815203019020612f63816133cf565b90612f9e60ff6002612f77600185016133cf565b930154169160405194859460608652606086019061346f565b90848203602086015261346f565b9060408301520390f35b346101915760a0366003190112610191576004356001600160401b03811161019157612fd8903690600401613342565b6024356001600160401b03811161019157612ff7903690600401613342565b6044356001600160401b03811161019157613016903690600401613342565b906064356001600160401b038111610191576130529261303d61304b923690600401613342565b6130456134d1565b916139e2565b9083613c56565b602081015f5b60025481101561018f578061306e6001926134e7565b50604051613084816104a1602082018095613978565b51902060405160208101906130b16020828951808a875e81015f838201520301601f198101835282613321565b519020146130c0575b01613058565b60036130cb826134e7565b5001805461ff0019166102001790556130ba565b34610191576020366003190112610191576004356001600160401b0381116101915761311261018f913690600401613342565b61394a565b34610191576020366003190112610191576004356001600160401b03811161019157612a6360056020806131526101e1953690600401613342565b61315a61392a565b50604051928184925191829101835e81015f8152030190200161380b565b34610191576020366003190112610191576004356001600160401b038111610191576131a8903690600401613342565b604051818192516020819201835e8101600581520360200190206131cb816133cf565b6131d7600183016133cf565b916131e4600282016133cf565b906131f1600382016133cf565b6131fd600483016133cf565b613209600584016133cf565b91613216600685016133cf565b93600701613223906133cf565b946040519788976101008952610100890161323d9161346f565b88810360208a015261324e9161346f565b878103604089015261325f9161346f565b86810360608801526132709161346f565b85810360808701526132819161346f565b84810360a08601526132929161346f565b83810360c08501526132a39161346f565b82810360e08401526101e19161346f565b606081019081106001600160401b0382111761097057604052565b60c081019081106001600160401b0382111761097057604052565b604081019081106001600160401b0382111761097057604052565b61010081019081106001600160401b0382111761097057604052565b90601f801991011681019081106001600160401b0382111761097057604052565b81601f82011215610191578035906001600160401b0382116109705760405192613376601f8401601f191660200185613321565b8284526020838301011161019157815f926020809301838601378301015290565b90600182811c921680156133c5575b60208310146133b157565b634e487b7160e01b5f52602260045260245ffd5b91607f16916133a6565b9060405191825f8254926133e284613397565b808452936001811690811561344d5750600114613409575b5061340792500383613321565b565b90505f9291925260205f20905f915b818310613431575050906020613407928201015f6133fa565b6020919350806001915483858901015201910190918492613418565b90506020925061340794915060ff191682840152151560051b8201015f6133fa565b805180835260209291819084018484015e5f828201840152601f01601f1916010190565b9060406134be6134ac845160608552606085019061346f565b6020850151848203602086015261346f565b928101516001600160a01b031691015290565b608435906001600160a01b038216820361019157565b6002548110156135035760025f52600560205f20910201905f90565b634e487b7160e01b5f52603260045260245ffd5b9060048210156124ea5752565b9190604083820312610191576040519061353d826132ea565b819380356001600160401b038111610191578261355b918301613342565b83526020810135916001600160401b0383116101915760209261357e9201613342565b910152565b919061010083820312610191576040519061359d82613305565b819380356001600160401b03811161019157826135bb918301613342565b835260208101356001600160401b03811161019157826135dc918301613342565b602084015260408101356001600160401b0381116101915782613600918301613342565b604084015260608101356001600160401b0381116101915782613624918301613342565b606084015260808101356001600160401b0381116101915782613648918301613342565b608084015260a08101356001600160401b038111610191578261366c918301613342565b60a084015260c08101356001600160401b0381116101915782613690918301613342565b60c084015260e0810135916001600160401b0383116101915760e09261357e9201613342565b602081016020825282518091526040820191602060408360051b8301019401925f915b8383106136e857505050505090565b909192939460208061376f600193603f1986820301875289519060a061373f61372d61371d855160c0865260c086019061346f565b878601518582038987015261346f565b6040850151848203604086015261346f565b9260ff606082015116606084015261375f60808201516080850190613517565b01519060a081840391015261346f565b970193019301919392906136d9565b906138089160208152613795602082018351613517565b602082015160408201526040820151606082015260608201516080820152608082015160a082015260e06137f26137dd60a085015161010060c0860152610120850190613493565b60c0850151848203601f190184860152613493565b92015190610100601f198285030191015261346f565b90565b90604051613818816132b4565b60408193613825816133cf565b8352613833600182016133cf565b6020840152600201546001600160a01b0316910152565b91906060838203126101915760405190613863826132b4565b819380356001600160401b0381116101915782613881918301613342565b835260208101356001600160401b038111610191576040926138a4918301613342565b60208401520135906001600160a01b03821682036101915760400152565b6060600319820112610191576004356001600160401b03811161019157816138ec91600401613342565b916024356001600160401b038111610191578261390b91600401613342565b91604435906001600160401b038211610191576138089160040161384a565b60405190613937826132b4565b5f60408360608152606060208201520152565b60208091604051928184925191829101835e81015f815203019020426004820155600360ff19825416179055565b5f929181549161398783613397565b92600181169081156139cf57506001146139a057505050565b90919293505f5260205f205f905b8382106139bb5750500190565b6001816020925484860152019101906139ae565b60ff191683525050811515909102019150565b91906139ec61392a565b50604051926139fa846132b4565b835260208301526001600160a01b0316604082015290565b60048210156124ea5752565b604051815161380892602091839181908401835e810160018152030190206133cf565b60ff1660ff8114613a525760010190565b634e487b7160e01b5f52601160045260245ffd5b6001600160401b0381116109705760051b60200190565b90613a8782613a66565b613a946040519182613321565b8281528092613aa5601f1991613a66565b01905f5b828110613ab557505050565b602090604051613ac4816132cf565b60608152606083820152606060408201525f60608201525f6080820152606060a082015282828501015201613aa9565b80518210156135035760209160051b010190565b90604051613b15816132cf565b60a061357e60048395613b27816133cf565b8552613b35600182016133cf565b6020860152613b46600282016133cf565b6040860152613b6a60ff6003830154818116606089015260081c1660808701613a12565b016133cf565b60405190613b7d82613305565b606060e0835f81525f60208201525f60408201525f838201525f6080820152613ba461392a565b60a0820152613bb161392a565b60c08201520152565b60208091613bc6613b70565b50604051928184925191829101835e81015f815203019020613c4e600b60405192613bf084613305565b613bfe60ff82541685613a12565b60018101546020850152600281015460408501526003810154606085015260048101546080850152613c326005820161380b565b60a0850152613c436008820161380b565b60c0850152016133cf565b60e082015290565b92919060405160208551918181818901948086835e81015f81520301902095604051928391518091835e81016001815203019020908051906001600160401b038211610970578190613ca88454613397565b601f8111613fa3575b50602090601f8311600114613f40575f92613f35575b50508160011b915f199060031b1c19161790555b8051805160088501916001600160401b03821161097057613cfc8354613397565b601f8111613ef0575b50602090601f8311600114613e89576020949392915f9183613e7e575b50508160011b915f199060031b1c19161790555b6040810151600a850180546001600160a01b0319166001600160a01b03929092169190911790550151805190929060098201906001600160401b03811161097057613d818254613397565b601f8111613e39575b50602094601f8211600114613dd8579481929394955f92613dcd575b50508160011b915f199060031b1c19161790555b426003820155805460ff19166002179055565b015190505f80613da6565b601f19821695835f52805f20915f5b888110613e2157508360019596979810613e09575b505050811b019055613dba565b01515f1960f88460031b161c191690555f8080613dfc565b91926020600181928685015181550194019201613de7565b825f5260205f20601f830160051c81019160208410613e74575b601f0160051c01905b818110613e695750613d8a565b5f8155600101613e5c565b9091508190613e53565b015190505f80613d22565b90601f19831691845f52815f20925f5b818110613ed8575091600193918560209897969410613ec0575b505050811b019055613d36565b01515f1960f88460031b161c191690555f8080613eb3565b92936020600181928786015181550195019301613e99565b835f5260205f20601f840160051c81019160208510613f2b575b601f0160051c01905b818110613f205750613d05565b5f8155600101613f13565b9091508190613f0a565b015190505f80613cc7565b5f8581528281209350601f198516905b818110613f8b5750908460019594939210613f73575b505050811b019055613cdb565b01515f1960f88460031b161c191690555f8080613f66565b92936020600181928786015181550195019301613f50565b909150835f5260205f20601f840160051c81019160208510613fe9575b90601f859493920160051c01905b818110613fdb5750613cb1565b5f8155849350600101613fce565b9091508190613fc0565b6020809194939294604051928184925191829101835e81015f81520301902090805160088301908051906001600160401b038211610970576140358354613397565b601f811161432b575b50602090601f83116001146142c4576020949392915f91836142b9575b50508160011b915f199060031b1c19161790555b6040810151600a840180546001600160a01b0319166001600160a01b03929092169190911790550151805160098301916001600160401b038211610970576140b78354613397565b601f8111614274575b50602090601f831160011461420d57600b949392915f9183614202575b50508160011b915f199060031b1c19161790555b426002820155600160ff198254161781550182516001600160401b0381116109705761411d8254613397565b601f81116141bd575b506020601f821160011461415f57819293945f92614154575b50508160011b915f199060031b1c1916179055565b015190505f8061413f565b601f19821690835f52805f20915f5b8181106141a55750958360019596971061418d575b505050811b019055565b01515f1960f88460031b161c191690555f8080614183565b9192602060018192868b01518155019401920161416e565b825f5260205f20601f830160051c810191602084106141f8575b601f0160051c01905b8181106141ed5750614126565b5f81556001016141e0565b90915081906141d7565b015190505f806140dd565b90601f19831691845f52815f20925f5b81811061425c5750916001939185600b9897969410614244575b505050811b0190556140f1565b01515f1960f88460031b161c191690555f8080614237565b9293602060018192878601518155019501930161421d565b835f5260205f20601f840160051c810191602085106142af575b601f0160051c01905b8181106142a457506140c0565b5f8155600101614297565b909150819061428e565b015190505f8061405b565b90601f19831691845f52815f20925f5b8181106143135750916001939185602098979694106142fb575b505050811b01905561406f565b01515f1960f88460031b161c191690555f80806142ee565b929360206001819287860151815501950193016142d4565b835f5260205f20601f840160051c81019160208510614366575b601f0160051c01905b81811061435b575061403e565b5f815560010161434e565b9091508190614345565b92909160405161437f81613305565b5f81526020810194428652604082015f8152606083015f815260808401915f835260a0850193845260c085019788526020988980604051986143c1828b613321565b5f8a5260e08901998a52604051928184925191829101835e81015f815203019020955160048110156124ea5760ff801988541691161786555160018601555160028501555160038401555160048301556005820190519081518051906001600160401b0382116109705781906144378454613397565b601f8111614944575b508990601f83116001146148e1575f926148d6575b50508160011b915f199060031b1c19161790555b60068201868201518051906001600160401b03821161097057819061448e8454613397565b601f8111614888575b508990601f8311600114614825575f9261481a575b50508160011b915f199060031b1c19161790555b604001516007820180546001600160a01b0319166001600160a01b039290921691909117905592518051805191949160088301916001600160401b03821161097057819061450e8454613397565b601f81116147cc575b508890601f8311600114614769575f9261475e575b50508160011b915f199060031b1c19161790555b600981019385810151948551956001600160401b038711610970576145658254613397565b601f811161471b575b508790601f88116001146146b457968091600b9697985f926146a9575b50508160011b915f199060031b1c19161790555b60400151600a820180546001600160a01b0319166001600160a01b03929092169190911790559151805190949190920191906001600160401b038211610970576145e98354613397565b601f8111614666575b5080601f831160011461461f5750819293945f926141545750508160011b915f199060031b1c1916179055565b90601f19831695845f52825f20925f905b88821061464e5750508360019596971061418d57505050811b019055565b80600185968294968601518155019501930190614630565b835f52815f20601f840160051c81019183851061469f575b601f0160051c01905b81811061469457506145f2565b5f8155600101614687565b909150819061467e565b015190505f8061458b565b90601f19881691835f52895f20925f5b8b82821061470557505091600193918a600b999a9b94106146ed575b505050811b01905561459f565b01515f1960f88460031b161c191690555f80806146e0565b60018596829396860151815501950193016146c4565b825f52885f20601f890160051c8101918a8a10614754575b601f0160051c01905b818110614749575061456e565b5f815560010161473c565b9091508190614733565b015190505f8061452c565b5f8581528a81209350601f198516905b8b8282106147b657505090846001959493921061479e575b505050811b019055614540565b01515f1960f88460031b161c191690555f8080614791565b6001859682939686015181550195019301614779565b909150835f52885f20601f840160051c8101918a8510614810575b90601f859493920160051c01905b8181106148025750614517565b5f81558493506001016147f5565b90915081906147e7565b015190505f806144ac565b5f8581528b81209350601f198516905b8c82821061487257505090846001959493921061485a575b505050811b0190556144c0565b01515f1960f88460031b161c191690555f808061484d565b6001859682939686015181550195019301614835565b909150835f52895f20601f840160051c8101918b85106148cc575b90601f859493920160051c01905b8181106148be5750614497565b5f81558493506001016148b1565b90915081906148a3565b015190505f80614455565b5f8581528b81209350601f198516905b8c82821061492e575050908460019594939210614916575b505050811b019055614469565b01515f1960f88460031b161c191690555f8080614909565b60018596829396860151815501950193016148f1565b909150835f52895f20601f840160051c8101918b8510614988575b90601f859493920160051c01905b81811061497a5750614440565b5f815584935060010161496d565b909150819061495f56fea26469706673582212200adef6500d9299859ec4de2a508ca6de27988f8733dce8952c5b28c1b649b42b64736f6c634300081b0033",
  "linkReferences": {},
  "deployedLinkReferences": {}
}