{
  "_format": "hh-sol-artifact-1",
  "contractName": "CdobCertificate",
  "sourceName": "contracts/CdobCertificate.sol",
  "abi": [
    {
      "inputs": [
        {
          "internalType": "uint256",
          "name": "",
          "type": "uint256"
        }
      ],
      "name": "allCdobData",
      "outputs": [
        {
          "internalType": "string",
          "name": "certId",
          "type": "string"
        },
        {
          "internalType": "string",
          "name": "certNumber",
          "type": "string"
        },
        {
          "internalType": "string",
          "name": "instanceName",
          "type": "string"
        },
        {
          "internalType": "uint8",
          "name": "tipePermohonan",
          "type": "uint8"
        },
        {
          "internalType": "enum EnumsLibrary.StatusCertificate",
          "name": "status",
          "type": "uint8"
        },
        {
          "internalType": "string",
          "name": "certHash",
          "type": "string"
        },
        {
          "internalType": "uint256",
          "name": "expiredTimestamp",
          "type": "uint256"
        }
      ],
      "stateMutability": "view",
      "type": "function"
    },
    {
      "inputs": [
        {
          "internalType": "string",
          "name": "certNumber",
          "type": "string"
        },
        {
          "internalType": "string",
          "name": "certId",
          "type": "string"
        },
        {
          "internalType": "string",
          "name": "bpomName",
          "type": "string"
        },
        {
          "internalType": "string",
          "name": "bpomInstance",
          "type": "string"
        },
        {
          "internalType": "address",
          "name": "bpomAddr",
          "type": "address"
        },
        {
          "internalType": "string",
          "name": "ipfsCert",
          "type": "string"
        }
      ],
      "name": "approveCdob",
      "outputs": [],
      "stateMutability": "nonpayable",
      "type": "function"
    },
    {
      "inputs": [
        {
          "internalType": "string",
          "name": "certId",
          "type": "string"
        },
        {
          "internalType": "string",
          "name": "ipfsCert",
          "type": "string"
        }
      ],
      "name": "approveExtendCdob",
      "outputs": [],
      "stateMutability": "nonpayable",
      "type": "function"
    },
    {
      "inputs": [
        {
          "internalType": "string",
          "name": "",
          "type": "string"
        }
      ],
      "name": "cdobDataById",
      "outputs": [
        {
          "internalType": "string",
          "name": "cdobId",
          "type": "string"
        },
        {
          "internalType": "string",
          "name": "cdobNumber",
          "type": "string"
        },
        {
          "internalType": "uint8",
          "name": "tipePermohonan",
          "type": "uint8"
        }
      ],
      "stateMutability": "view",
      "type": "function"
    },
    {
      "inputs": [
        {
          "internalType": "string",
          "name": "",
          "type": "string"
        }
      ],
      "name": "certDetailById",
      "outputs": [
        {
          "internalType": "enum EnumsLibrary.StatusCertificate",
          "name": "status",
          "type": "uint8"
        },
        {
          "internalType": "uint256",
          "name": "timestampRequest",
          "type": "uint256"
        },
        {
          "internalType": "uint256",
          "name": "timestampApprove",
          "type": "uint256"
        },
        {
          "internalType": "uint256",
          "name": "timestampRejected",
          "type": "uint256"
        },
        {
          "internalType": "uint256",
          "name": "timestampRenewRequest",
          "type": "uint256"
        },
        {
          "internalType": "uint256",
          "name": "timestampExpired",
          "type": "uint256"
        },
        {
          "internalType": "uint256",
          "name": "timestampExtendRequest",
          "type": "uint256"
        },
        {
          "components": [
            {
              "internalType": "string",
              "name": "userName",
              "type": "string"
            },
            {
              "internalType": "string",
              "name": "userInstance",
              "type": "string"
            },
            {
              "internalType": "address",
              "name": "userAddr",
              "type": "address"
            }
          ],
          "internalType": "struct BaseCertificate.UserCert",
          "name": "sender",
          "type": "tuple"
        },
        {
          "components": [
            {
              "internalType": "string",
              "name": "userName",
              "type": "string"
            },
            {
              "internalType": "string",
              "name": "userInstance",
              "type": "string"
            },
            {
              "internalType": "address",
              "name": "userAddr",
              "type": "address"
            }
          ],
          "internalType": "struct BaseCertificate.UserCert",
          "name": "bpom",
          "type": "tuple"
        },
        {
          "internalType": "string",
          "name": "ipfsCert",
          "type": "string"
        }
      ],
      "stateMutability": "view",
      "type": "function"
    },
    {
      "inputs": [
        {
          "components": [
            {
              "internalType": "string",
              "name": "userName",
              "type": "string"
            },
            {
              "internalType": "string",
              "name": "userInstance",
              "type": "string"
            },
            {
              "internalType": "address",
              "name": "userAddr",
              "type": "address"
            }
          ],
          "internalType": "struct BaseCertificate.UserCert",
          "name": "senderData",
          "type": "tuple"
        },
        {
          "components": [
            {
              "internalType": "string",
              "name": "userName",
              "type": "string"
            },
            {
              "internalType": "string",
              "name": "userInstance",
              "type": "string"
            },
            {
              "internalType": "address",
              "name": "userAddr",
              "type": "address"
            }
          ],
          "internalType": "struct BaseCertificate.UserCert",
          "name": "bpomData",
          "type": "tuple"
        },
        {
          "internalType": "string",
          "name": "certId",
          "type": "string"
        }
      ],
      "name": "createCertificateDetails",
      "outputs": [],
      "stateMutability": "nonpayable",
      "type": "function"
    },
    {
      "inputs": [
        {
          "internalType": "string",
          "name": "userName",
          "type": "string"
        },
        {
          "internalType": "string",
          "name": "userInstance",
          "type": "string"
        },
        {
          "internalType": "address",
          "name": "userAddr",
          "type": "address"
        }
      ],
      "name": "createUserCertificate",
      "outputs": [
        {
          "components": [
            {
              "internalType": "string",
              "name": "userName",
              "type": "string"
            },
            {
              "internalType": "string",
              "name": "userInstance",
              "type": "string"
            },
            {
              "internalType": "address",
              "name": "userAddr",
              "type": "address"
            }
          ],
          "internalType": "struct BaseCertificate.UserCert",
          "name": "",
          "type": "tuple"
        }
      ],
      "stateMutability": "pure",
      "type": "function"
    },
    {
      "inputs": [
        {
          "internalType": "string",
          "name": "",
          "type": "string"
        }
      ],
      "name": "dokuAdminById",
      "outputs": [
        {
          "internalType": "string",
          "name": "suratPermohonan",
          "type": "string"
        },
        {
          "internalType": "string",
          "name": "buktiPembayaranPajak",
          "type": "string"
        }
      ],
      "stateMutability": "view",
      "type": "function"
    },
    {
      "inputs": [
        {
          "internalType": "string",
          "name": "",
          "type": "string"
        }
      ],
      "name": "dokuTeknisById",
      "outputs": [
        {
          "internalType": "string",
          "name": "suratIzinCdob",
          "type": "string"
        },
        {
          "internalType": "string",
          "name": "denahBangunan",
          "type": "string"
        },
        {
          "internalType": "string",
          "name": "strukturOrganisasi",
          "type": "string"
        },
        {
          "internalType": "string",
          "name": "daftarPersonalia",
          "type": "string"
        },
        {
          "internalType": "string",
          "name": "daftarPeralatan",
          "type": "string"
        },
        {
          "internalType": "string",
          "name": "eksekutifQualityManagement",
          "type": "string"
        },
        {
          "internalType": "string",
          "name": "suratIzinApoteker",
          "type": "string"
        },
        {
          "internalType": "string",
          "name": "dokumenSelfAssesment",
          "type": "string"
        }
      ],
      "stateMutability": "view",
      "type": "function"
    },
    {
      "inputs": [
        {
          "internalType": "string",
          "name": "certId",
          "type": "string"
        },
        {
          "internalType": "uint256",
          "name": "expTimestamp",
          "type": "uint256"
        }
      ],
      "name": "extendCdob",
      "outputs": [],
      "stateMutability": "nonpayable",
      "type": "function"
    },
    {
      "inputs": [],
      "name": "getAllCdob",
      "outputs": [
        {
          "components": [
            {
              "internalType": "string",
              "name": "certId",
              "type": "string"
            },
            {
              "internalType": "string",
              "name": "certNumber",
              "type": "string"
            },
            {
              "internalType": "string",
              "name": "instanceName",
              "type": "string"
            },
            {
              "internalType": "uint8",
              "name": "tipePermohonan",
              "type": "uint8"
            },
            {
              "internalType": "enum EnumsLibrary.StatusCertificate",
              "name": "status",
              "type": "uint8"
            },
            {
              "internalType": "string",
              "name": "certHash",
              "type": "string"
            },
            {
              "internalType": "uint256",
              "name": "expiredTimestamp",
              "type": "uint256"
            }
          ],
          "internalType": "struct CdobCertificate.CertificateList[]",
          "name": "",
          "type": "tuple[]"
        }
      ],
      "stateMutability": "view",
      "type": "function"
    },
    {
      "inputs": [
        {
          "internalType": "string",
          "name": "instanceName",
          "type": "string"
        }
      ],
      "name": "getAllCdobByInstance",
      "outputs": [
        {
          "components": [
            {
              "internalType": "string",
              "name": "certId",
              "type": "string"
            },
            {
              "internalType": "string",
              "name": "certNumber",
              "type": "string"
            },
            {
              "internalType": "string",
              "name": "instanceName",
              "type": "string"
            },
            {
              "internalType": "uint8",
              "name": "tipePermohonan",
              "type": "uint8"
            },
            {
              "internalType": "enum EnumsLibrary.StatusCertificate",
              "name": "status",
              "type": "uint8"
            },
            {
              "internalType": "string",
              "name": "certHash",
              "type": "string"
            },
            {
              "internalType": "uint256",
              "name": "expiredTimestamp",
              "type": "uint256"
            }
          ],
          "internalType": "struct CdobCertificate.CertificateList[]",
          "name": "",
          "type": "tuple[]"
        }
      ],
      "stateMutability": "view",
      "type": "function"
    },
    {
      "inputs": [
        {
          "internalType": "string",
          "name": "certId",
          "type": "string"
        }
      ],
      "name": "getCdobDetails",
      "outputs": [
        {
          "components": [
            {
              "internalType": "string",
              "name": "cdobId",
              "type": "string"
            },
            {
              "internalType": "string",
              "name": "cdobNumber",
              "type": "string"
            },
            {
              "internalType": "uint8",
              "name": "tipePermohonan",
              "type": "uint8"
            }
          ],
          "internalType": "struct CdobCertificate.CdobData",
          "name": "",
          "type": "tuple"
        },
        {
          "components": [
            {
              "internalType": "string",
              "name": "suratPermohonan",
              "type": "string"
            },
            {
              "internalType": "string",
              "name": "buktiPembayaranPajak",
              "type": "string"
            }
          ],
          "internalType": "struct CdobCertificate.DokumenAdministrasi",
          "name": "",
          "type": "tuple"
        },
        {
          "components": [
            {
              "internalType": "string",
              "name": "suratIzinCdob",
              "type": "string"
            },
            {
              "internalType": "string",
              "name": "denahBangunan",
              "type": "string"
            },
            {
              "internalType": "string",
              "name": "strukturOrganisasi",
              "type": "string"
            },
            {
              "internalType": "string",
              "name": "daftarPersonalia",
              "type": "string"
            },
            {
              "internalType": "string",
              "name": "daftarPeralatan",
              "type": "string"
            },
            {
              "internalType": "string",
              "name": "eksekutifQualityManagement",
              "type": "string"
            },
            {
              "internalType": "string",
              "name": "suratIzinApoteker",
              "type": "string"
            },
            {
              "internalType": "string",
              "name": "dokumenSelfAssesment",
              "type": "string"
            }
          ],
          "internalType": "struct CdobCertificate.DokumenTeknis",
          "name": "",
          "type": "tuple"
        }
      ],
      "stateMutability": "view",
      "type": "function"
    },
    {
      "inputs": [
        {
          "internalType": "string",
          "name": "certId",
          "type": "string"
        }
      ],
      "name": "getCertDetail",
      "outputs": [
        {
          "components": [
            {
              "internalType": "enum EnumsLibrary.StatusCertificate",
              "name": "status",
              "type": "uint8"
            },
            {
              "internalType": "uint256",
              "name": "timestampRequest",
              "type": "uint256"
            },
            {
              "internalType": "uint256",
              "name": "timestampApprove",
              "type": "uint256"
            },
            {
              "internalType": "uint256",
              "name": "timestampRejected",
              "type": "uint256"
            },
            {
              "internalType": "uint256",
              "name": "timestampRenewRequest",
              "type": "uint256"
            },
            {
              "internalType": "uint256",
              "name": "timestampExpired",
              "type": "uint256"
            },
            {
              "internalType": "uint256",
              "name": "timestampExtendRequest",
              "type": "uint256"
            },
            {
              "components": [
                {
                  "internalType": "string",
                  "name": "userName",
                  "type": "string"
                },
                {
                  "internalType": "string",
                  "name": "userInstance",
                  "type": "string"
                },
                {
                  "internalType": "address",
                  "name": "userAddr",
                  "type": "address"
                }
              ],
              "internalType": "struct BaseCertificate.UserCert",
              "name": "sender",
              "type": "tuple"
            },
            {
              "components": [
                {
                  "internalType": "string",
                  "name": "userName",
                  "type": "string"
                },
                {
                  "internalType": "string",
                  "name": "userInstance",
                  "type": "string"
                },
                {
                  "internalType": "address",
                  "name": "userAddr",
                  "type": "address"
                }
              ],
              "internalType": "struct BaseCertificate.UserCert",
              "name": "bpom",
              "type": "tuple"
            },
            {
              "internalType": "string",
              "name": "ipfsCert",
              "type": "string"
            }
          ],
          "internalType": "struct BaseCertificate.CertificateDetails",
          "name": "",
          "type": "tuple"
        }
      ],
      "stateMutability": "view",
      "type": "function"
    },
    {
      "inputs": [
        {
          "internalType": "string",
          "name": "certId",
          "type": "string"
        }
      ],
      "name": "getCertDetails",
      "outputs": [
        {
          "components": [
            {
              "internalType": "enum EnumsLibrary.StatusCertificate",
              "name": "status",
              "type": "uint8"
            },
            {
              "internalType": "uint256",
              "name": "timestampRequest",
              "type": "uint256"
            },
            {
              "internalType": "uint256",
              "name": "timestampApprove",
              "type": "uint256"
            },
            {
              "internalType": "uint256",
              "name": "timestampRejected",
              "type": "uint256"
            },
            {
              "internalType": "uint256",
              "name": "timestampRenewRequest",
              "type": "uint256"
            },
            {
              "internalType": "uint256",
              "name": "timestampExpired",
              "type": "uint256"
            },
            {
              "internalType": "uint256",
              "name": "timestampExtendRequest",
              "type": "uint256"
            },
            {
              "components": [
                {
                  "internalType": "string",
                  "name": "userName",
                  "type": "string"
                },
                {
                  "internalType": "string",
                  "name": "userInstance",
                  "type": "string"
                },
                {
                  "internalType": "address",
                  "name": "userAddr",
                  "type": "address"
                }
              ],
              "internalType": "struct BaseCertificate.UserCert",
              "name": "sender",
              "type": "tuple"
            },
            {
              "components": [
                {
                  "internalType": "string",
                  "name": "userName",
                  "type": "string"
                },
                {
                  "internalType": "string",
                  "name": "userInstance",
                  "type": "string"
                },
                {
                  "internalType": "address",
                  "name": "userAddr",
                  "type": "address"
                }
              ],
              "internalType": "struct BaseCertificate.UserCert",
              "name": "bpom",
              "type": "tuple"
            },
            {
              "internalType": "string",
              "name": "ipfsCert",
              "type": "string"
            }
          ],
          "internalType": "struct BaseCertificate.CertificateDetails",
          "name": "",
          "type": "tuple"
        }
      ],
      "stateMutability": "view",
      "type": "function"
    },
    {
      "inputs": [
        {
          "internalType": "string",
          "name": "certId",
          "type": "string"
        }
      ],
      "name": "getRejectMsg",
      "outputs": [
        {
          "internalType": "string",
          "name": "",
          "type": "string"
        }
      ],
      "stateMutability": "view",
      "type": "function"
    },
    {
      "inputs": [
        {
          "internalType": "string",
          "name": "certId",
          "type": "string"
        }
      ],
      "name": "getRejectsMsg",
      "outputs": [
        {
          "internalType": "string",
          "name": "",
          "type": "string"
        }
      ],
      "stateMutability": "view",
      "type": "function"
    },
    {
      "inputs": [
        {
          "internalType": "string",
          "name": "certId",
          "type": "string"
        }
      ],
      "name": "getSenderDetail",
      "outputs": [
        {
          "components": [
            {
              "internalType": "string",
              "name": "userName",
              "type": "string"
            },
            {
              "internalType": "string",
              "name": "userInstance",
              "type": "string"
            },
            {
              "internalType": "address",
              "name": "userAddr",
              "type": "address"
            }
          ],
          "internalType": "struct BaseCertificate.UserCert",
          "name": "",
          "type": "tuple"
        }
      ],
      "stateMutability": "view",
      "type": "function"
    },
    {
      "inputs": [
        {
          "internalType": "string",
          "name": "certId",
          "type": "string"
        },
        {
          "internalType": "string",
          "name": "rejectMsg",
          "type": "string"
        },
        {
          "internalType": "string",
          "name": "bpomName",
          "type": "string"
        },
        {
          "internalType": "string",
          "name": "bpomInstance",
          "type": "string"
        },
        {
          "internalType": "address",
          "name": "bpomAddr",
          "type": "address"
        }
      ],
      "name": "rejectCdob",
      "outputs": [],
      "stateMutability": "nonpayable",
      "type": "function"
    },
    {
      "inputs": [
        {
          "internalType": "string",
          "name": "",
          "type": "string"
        }
      ],
      "name": "rejectMsgById",
      "outputs": [
        {
          "internalType": "string",
          "name": "",
          "type": "string"
        }
      ],
      "stateMutability": "view",
      "type": "function"
    },
    {
      "inputs": [
        {
          "internalType": "string",
          "name": "certId",
          "type": "string"
        },
        {
          "components": [
            {
              "internalType": "string",
              "name": "suratPermohonan",
              "type": "string"
            },
            {
              "internalType": "string",
              "name": "buktiPembayaranPajak",
              "type": "string"
            }
          ],
          "internalType": "struct CdobCertificate.DokumenAdministrasi",
          "name": "newDokuAdmin",
          "type": "tuple"
        },
        {
          "components": [
            {
              "internalType": "string",
              "name": "suratIzinCdob",
              "type": "string"
            },
            {
              "internalType": "string",
              "name": "denahBangunan",
              "type": "string"
            },
            {
              "internalType": "string",
              "name": "strukturOrganisasi",
              "type": "string"
            },
            {
              "internalType": "string",
              "name": "daftarPersonalia",
              "type": "string"
            },
            {
              "internalType": "string",
              "name": "daftarPeralatan",
              "type": "string"
            },
            {
              "internalType": "string",
              "name": "eksekutifQualityManagement",
              "type": "string"
            },
            {
              "internalType": "string",
              "name": "suratIzinApoteker",
              "type": "string"
            },
            {
              "internalType": "string",
              "name": "dokumenSelfAssesment",
              "type": "string"
            }
          ],
          "internalType": "struct CdobCertificate.DokumenTeknis",
          "name": "newDokuTeknis",
          "type": "tuple"
        }
      ],
      "name": "renewRequestCdob",
      "outputs": [],
      "stateMutability": "nonpayable",
      "type": "function"
    },
    {
      "inputs": [
        {
          "internalType": "string",
          "name": "certId",
          "type": "string"
        },
        {
          "internalType": "string",
          "name": "pbfName",
          "type": "string"
        },
        {
          "internalType": "string",
          "name": "pbfInstance",
          "type": "string"
        },
        {
          "internalType": "address",
          "name": "pbfAddr",
          "type": "address"
        },
        {
          "internalType": "uint8",
          "name": "tipePermohonan",
          "type": "uint8"
        },
        {
          "components": [
            {
              "internalType": "string",
              "name": "suratPermohonan",
              "type": "string"
            },
            {
              "internalType": "string",
              "name": "buktiPembayaranPajak",
              "type": "string"
            }
          ],
          "internalType": "struct CdobCertificate.DokumenAdministrasi",
          "name": "dokuAdmin",
          "type": "tuple"
        },
        {
          "components": [
            {
              "internalType": "string",
              "name": "suratIzinCdob",
              "type": "string"
            },
            {
              "internalType": "string",
              "name": "denahBangunan",
              "type": "string"
            },
            {
              "internalType": "string",
              "name": "strukturOrganisasi",
              "type": "string"
            },
            {
              "internalType": "string",
              "name": "daftarPersonalia",
              "type": "string"
            },
            {
              "internalType": "string",
              "name": "daftarPeralatan",
              "type": "string"
            },
            {
              "internalType": "string",
              "name": "eksekutifQualityManagement",
              "type": "string"
            },
            {
              "internalType": "string",
              "name": "suratIzinApoteker",
              "type": "string"
            },
            {
              "internalType": "string",
              "name": "dokumenSelfAssesment",
              "type": "string"
            }
          ],
          "internalType": "struct CdobCertificate.DokumenTeknis",
          "name": "dokuTeknis",
          "type": "tuple"
        }
      ],
      "name": "requestCdob",
      "outputs": [],
      "stateMutability": "nonpayable",
      "type": "function"
    },
    {
      "inputs": [
        {
          "internalType": "string",
          "name": "certId",
          "type": "string"
        },
        {
          "internalType": "string",
          "name": "ipfsCert",
          "type": "string"
        },
        {
          "components": [
            {
              "internalType": "string",
              "name": "userName",
              "type": "string"
            },
            {
              "internalType": "string",
              "name": "userInstance",
              "type": "string"
            },
            {
              "internalType": "address",
              "name": "userAddr",
              "type": "address"
            }
          ],
          "internalType": "struct BaseCertificate.UserCert",
          "name": "bpomData",
          "type": "tuple"
        }
      ],
      "name": "updateBpomApproveDetails",
      "outputs": [],
      "stateMutability": "nonpayable",
      "type": "function"
    },
    {
      "inputs": [
        {
          "internalType": "string",
          "name": "certId",
          "type": "string"
        },
        {
          "internalType": "string",
          "name": "ipfsCert",
          "type": "string"
        }
      ],
      "name": "updateBpomExtendCertificateDetails",
      "outputs": [],
      "stateMutability": "nonpayable",
      "type": "function"
    },
    {
      "inputs": [
        {
          "internalType": "string",
          "name": "certId",
          "type": "string"
        },
        {
          "internalType": "string",
          "name": "rejectMsg",
          "type": "string"
        },
        {
          "components": [
            {
              "internalType": "string",
              "name": "userName",
              "type": "string"
            },
            {
              "internalType": "string",
              "name": "userInstance",
              "type": "string"
            },
            {
              "internalType": "address",
              "name": "userAddr",
              "type": "address"
            }
          ],
          "internalType": "struct BaseCertificate.UserCert",
          "name": "bpomData",
          "type": "tuple"
        }
      ],
      "name": "updateBpomRejectDetails",
      "outputs": [],
      "stateMutability": "nonpayable",
      "type": "function"
    },
    {
      "inputs": [
        {
          "internalType": "string",
          "name": "certId",
          "type": "string"
        },
        {
          "internalType": "uint256",
          "name": "expiredTimestamp",
          "type": "uint256"
        }
      ],
      "name": "updateExtendRenewDetails",
      "outputs": [],
      "stateMutability": "nonpayable",
      "type": "function"
    },
    {
      "inputs": [
        {
          "internalType": "string",
          "name": "certId",
          "type": "string"
        }
      ],
      "name": "updateRenewDetails",
      "outputs": [],
      "stateMutability": "nonpayable",
      "type": "function"
    }
  ],
  "bytecode": "0x60808060405234601557614e95908161001a8239f35b5f80fdfe60806040526004361015610011575f80fd5b5f3560e01c806317e683091461347957806319859c87146134415780631acf2500146133085780632b93f7f214612e5a5780632e9cf82714612dd657806334a34f3014612cd857806343762aa814612c04578063500619d014612ac8578063682053d9146117015780636d1aa7d5146114c75780636f12c2301461159e57806372c17cb914611502578063761fb19a146114c75780637ab096481461143f5780637e8f8da71461113b57806393b73ba2146110935780639740dbed1461107c5780639aaa5d8b146110415780639c6b1f1014610f65578063a722652714610338578063be2e2325146102e8578063bf3f80ac1461027e578063e9c260d714610267578063f14261d2146101ef578063f5104ff1146101d8578063f53ef126146101c15763fb5fb9a314610142575f80fd5b346101bd5760603660031901126101bd576004356001600160401b0381116101bd57610172903690600401613b26565b6024356001600160401b0381116101bd57610191903690600401613b26565b90604435916001600160401b0383116101bd576101b56101bb933690600401613584565b91614820565b005b5f80fd5b346101bd576101bb6101d236613adc565b90614702565b346101bd576101bb6101e936613b9e565b9161436f565b346101bd575f3660031901126101bd5760025461020b81613d45565b905f805b82821061022857604051806102248682613937565b0390f35b61025f60019161025961024361023d86613775565b50613dd6565b60ff831690610252828a613dc2565b5287613dc2565b50613d1d565b91019061020f565b346101bd576101bb61027836613b9e565b91613fd2565b346101bd5760203660031901126101bd576004356001600160401b0381116101bd576102d46020806102b7610224943690600401613584565b604051928184925191829101835e81016001815203019020613689565b6040519182916020835260208301906135d9565b346101bd5760203660031901126101bd576004356001600160401b0381116101bd5761032c61031e610224923690600401613584565b610326613ec8565b50613f20565b60405191829182613a38565b346101bd5760603660031901126101bd576004356001600160401b0381116101bd57610368903690600401613584565b6024356001600160401b0381116101bd576103879036906004016137a5565b906044356001600160401b0381116101bd576103a7903690600401613804565b6103b082613c26565b6002549160208101905f5b8481106103c457005b6103cd81613775565b506040516103f1816103e3602082018095613c54565b03601f198101835282613563565b519020604051602081019061041e6020828751808a875e81015f838201520301601f198101835282613563565b5190201461042f575b6001016103bb565b600361043a82613775565b5001805461ff001916610300179055610464602061045783613775565b5060405192838092613c54565b600481520301902086518051906001600160401b0382116108b2576104898354613651565b601f8111610f20575b50602090601f8311600114610eba5760019392915f9183610eaf575b50505f19600383901b1c191690831b1781555b0160208701518051906001600160401b0382116108b25781906104e48454613651565b601f8111610e5f575b50602090601f8311600114610dfc575f92610df1575b50508160011b915f199060031b1c19161790555b610525602061045783613775565b600581520301902084518051906001600160401b0382116108b257819061054c8454613651565b601f8111610da1575b50602090601f8311600114610d3e575f92610d33575b50508160011b915f199060031b1c19161781555b6001810160208601518051906001600160401b0382116108b25781906105a58454613651565b601f8111610ce3575b50602090601f8311600114610c80575f92610c75575b50508160011b915f199060031b1c19161790555b6002810160408601518051906001600160401b0382116108b25781906105fe8454613651565b601f8111610c25575b50602090601f8311600114610bc2575f92610bb7575b50508160011b915f199060031b1c19161790555b6003810160608601518051906001600160401b0382116108b25781906106578454613651565b601f8111610b67575b50602090601f8311600114610b04575f92610af9575b50508160011b915f199060031b1c19161790555b6004810160808601518051906001600160401b0382116108b25781906106b08454613651565b601f8111610aa9575b50602090601f8311600114610a46575f92610a3b575b50508160011b915f199060031b1c19161790555b6005810160a08601518051906001600160401b0382116108b25781906107098454613651565b601f81116109eb575b50602090601f8311600114610988575f9261097d575b50508160011b915f199060031b1c19161790555b6006810160c08601518051906001600160401b0382116108b2576107608354613651565b601f8111610938575b50602090601f83116001146108d1576007949392915f91836108c6575b50508160011b915f199060031b1c19161790555b0160e08501518051906001600160401b0382116108b2576107bb8354613651565b601f811161086d575b50602090601f8311600114610806576001949392915f91836107fb575b50505f19600383901b1c191690841b1790555b9050610427565b015190508a806107e1565b90601f19831691845f52815f20925f5b81811061085557509160019695949291838895931061083d575b505050811b0190556107f4565b01515f1960f88460031b161c191690558a8080610830565b92936020600181928786015181550195019301610816565b835f5260205f20601f840160051c810191602085106108a8575b601f0160051c01905b81811061089d57506107c4565b5f8155600101610890565b9091508190610887565b634e487b7160e01b5f52604160045260245ffd5b015190508b80610786565b90601f19831691845f52815f20925f5b818110610920575091600193918560079897969410610908575b505050811b01905561079a565b01515f1960f88460031b161c191690558b80806108fb565b929360206001819287860151815501950193016108e1565b835f5260205f20601f840160051c81019160208510610973575b601f0160051c01905b8181106109685750610769565b5f815560010161095b565b9091508190610952565b015190508a80610728565b5f8581528281209350601f198516905b8181106109d357509084600195949392106109bb575b505050811b01905561073c565b01515f1960f88460031b161c191690558a80806109ae565b92936020600181928786015181550195019301610998565b909150835f5260205f20601f840160051c81019160208510610a31575b90601f859493920160051c01905b818110610a235750610712565b5f8155849350600101610a16565b9091508190610a08565b015190508a806106cf565b5f8581528281209350601f198516905b818110610a915750908460019594939210610a79575b505050811b0190556106e3565b01515f1960f88460031b161c191690558a8080610a6c565b92936020600181928786015181550195019301610a56565b909150835f5260205f20601f840160051c81019160208510610aef575b90601f859493920160051c01905b818110610ae157506106b9565b5f8155849350600101610ad4565b9091508190610ac6565b015190508a80610676565b5f8581528281209350601f198516905b818110610b4f5750908460019594939210610b37575b505050811b01905561068a565b01515f1960f88460031b161c191690558a8080610b2a565b92936020600181928786015181550195019301610b14565b909150835f5260205f20601f840160051c81019160208510610bad575b90601f859493920160051c01905b818110610b9f5750610660565b5f8155849350600101610b92565b9091508190610b84565b015190508a8061061d565b5f8581528281209350601f198516905b818110610c0d5750908460019594939210610bf5575b505050811b019055610631565b01515f1960f88460031b161c191690558a8080610be8565b92936020600181928786015181550195019301610bd2565b909150835f5260205f20601f840160051c81019160208510610c6b575b90601f859493920160051c01905b818110610c5d5750610607565b5f8155849350600101610c50565b9091508190610c42565b015190508a806105c4565b5f8581528281209350601f198516905b818110610ccb5750908460019594939210610cb3575b505050811b0190556105d8565b01515f1960f88460031b161c191690558a8080610ca6565b92936020600181928786015181550195019301610c90565b909150835f5260205f20601f840160051c81019160208510610d29575b90601f859493920160051c01905b818110610d1b57506105ae565b5f8155849350600101610d0e565b9091508190610d00565b01519050898061056b565b5f8581528281209350601f198516905b818110610d895750908460019594939210610d71575b505050811b01815561057f565b01515f1960f88460031b161c19169055898080610d64565b92936020600181928786015181550195019301610d4e565b909150835f5260205f20601f840160051c81019160208510610de7575b90601f859493920160051c01905b818110610dd95750610555565b5f8155849350600101610dcc565b9091508190610dbe565b015190508980610503565b5f8581528281209350601f198516905b818110610e475750908460019594939210610e2f575b505050811b019055610517565b01515f1960f88460031b161c19169055898080610e22565b92936020600181928786015181550195019301610e0c565b909150835f5260205f20601f840160051c81019160208510610ea5575b90601f859493920160051c01905b818110610e9757506104ed565b5f8155849350600101610e8a565b9091508190610e7c565b015190508a806104ae565b90601f19831691845f52815f20925f5b818110610f085750916001959492918387959310610ef0575b505050811b0181556104c1565b01515f1960f88460031b161c191690558a8080610ee3565b92936020600181928786015181550195019301610eca565b835f5260205f20601f840160051c81019160208510610f5b575b601f0160051c01905b818110610f505750610492565b5f8155600101610f43565b9091508190610f3a565b346101bd57610f7e610f7636613adc565b819291614702565b6002549060208101905f5b838110610f9257005b610f9b81613775565b50604051610fb1816103e3602082018095613c54565b5190206040516020810190610fde6020828751808a875e81015f838201520301601f198101835282613563565b51902014610fef575b600101610f89565b6003610ffa82613775565b500161060061ff0019825416179055608242019081421161102d57600191600561102383613775565b5001559050610fe7565b634e487b7160e01b5f52601160045260245ffd5b346101bd5760203660031901126101bd576004356001600160401b0381116101bd5761032c611077610224923690600401613584565b613f20565b346101bd576101bb61108d36613a07565b90613e4d565b346101bd576110ac6110a436613a07565b819291613e4d565b600254602082015f5b8281106110be57005b806110ca600192613775565b506040516110e0816103e3602082018095613c54565b519020604051602081019061110d6020828a51808a875e81015f838201520301601f198101835282613563565b5190201461111c575b016110b5565b600361112782613775565b5001805461ff001916610500179055611116565b346101bd5760203660031901126101bd576004356001600160401b0381116101bd5761116b903690600401613584565b611173613c06565b5060405161118081613510565b60608152602001606090526040516111978161352b565b60608152602081016060905260408101606090526060810160609052608081016060905260a081016060905260c081016060905260e00160609052604051908051918060208301938085835e810160038152036020019020916040518083518084835e81016004815203602001902091604051918291518091835e8101600581520360200190206040519161122b836134da565b61123484613689565b835261124260018501613689565b93602084019485526002015460ff1691604084019283526040519161126683613510565b61126f81613689565b835260010161127d90613689565b60208301908152604051936112918561352b565b61129a83613689565b85526112a860018401613689565b602086019081526112bb60028501613689565b604087019081526112ce60038601613689565b60608801908152916112e260048701613689565b60808901908152936112f660058801613689565b60a08a019081529561130a60068901613689565b9760c08b0198895260070161131e90613689565b9860e08b01998a526040519c8d9c60608e52518d606081016060905260c001611346916135d9565b90518d8203605f190160808f015261135e91906135d9565b925160ff1660a08d01528b830360208d0152516040835260408301611382916135d9565b9051918082039060200152611396916135d9565b9789890360408b015251610100895261010089016113b3916135d9565b90519088810360208a01526113c7916135d9565b90519087810360408901526113db916135d9565b90519086810360608801526113ef916135d9565b9051908581036080870152611403916135d9565b90519084810360a0860152611417916135d9565b90519083810360c085015261142b916135d9565b9051918082039060e00152610224916135d9565b346101bd5760203660031901126101bd576004356001600160401b0381116101bd576020806114756114b9933690600401613584565b604051928184925191829101835e810160048152030190206102246114a5600161149e84613689565b9301613689565b6040519384936040855260408501906135d9565b9083820360208501526135d9565b346101bd5760203660031901126101bd576004356001600160401b0381116101bd576102d46114fd610224923690600401613584565b613cfa565b346101bd5760203660031901126101bd576004356001600160401b0381116101bd57602080611538611586933690600401613584565b604051928184925191829101835e8101600381520301902061155981613689565b9061159460ff600261156d60018501613689565b93015416916040519485946060865260608601906135d9565b9084820360208601526135d9565b9060408301520390f35b346101bd5760203660031901126101bd576004356001600160401b0381116101bd576115ce903690600401613584565b60025460208201915f805b83811061169e575060ff6115ed9116613d45565b925f915f5b84811061160757604051806102248882613937565b60026103e361162c61161884613775565b506040519283916020830195869101613c54565b51902060405160208101906116596020828751808a875e81015f838201520301601f198101835282613563565b5190201461166a575b6001016115f2565b9261169660019161025961168061023d88613775565b60ff83169061168f828c613dc2565b5289613dc2565b939050611662565b60026103e36116af61161884613775565b51902060405160208101906116dc6020828851808c875e81015f838201520301601f198101835282613563565b519020146116ed575b6001016115d9565b906116f9600191613d1d565b9190506116e5565b346101bd5760e03660031901126101bd576004356001600160401b0381116101bd57611731903690600401613584565b6024356001600160401b0381116101bd57611750903690600401613584565b6044356001600160401b0381116101bd5761176f903690600401613584565b916064356001600160a01b03811681036101bd576084359360ff85168095036101bd5760a4356001600160401b0381116101bd576117b19036906004016137a5565b9160c435906001600160401b0382116101bd57826117d66117dc933690600401613804565b96613cbe565b9461182c84602097604051906117f28a83613563565b5f82526040516118028b82613563565b5f815261180d613c06565b506040519261181b846134da565b83528a8301525f6040830152614820565b604051611838816134da565b8481526040516118488882613563565b5f815287820190815260408201908382526040518981895180838c01835e8101600381520301902092518051906001600160401b0382116108b257819061188f8654613651565b601f8111612a7a575b508b90601f8311600114612a15575f92612a0a575b50508160011b915f199060031b1c19161783555b51805160018401916001600160401b0382116108b2576118e18354613651565b601f81116129c7575b508a90601f831160011461295a57928260ff95929386946002965f9261294f575b50508160011b915f199060031b1c19161790555b51169201911660ff198254161790556040519061193b826134f5565b8482526040519261194c8885613563565b5f8452878301938452604083015260608201525f60808201526040516119728782613563565b5f815260a08201525f60c0820152600254680100000000000000008110156108b2578060016119a49201600255613775565b92909261293c5781518051906001600160401b0382116108b25781906119ca8654613651565b601f81116128ee575b508990601f831160011461288b575f92612880575b50508160011b915f199060031b1c19161783555b518051906001600160401b0382116108b2578190611a1d6001860154613651565b601f811161282f575b508890601f83116001146127c5575f926127ba575b50508160011b915f199060031b1c19161760018301555b6002820160408201518051906001600160401b0382116108b2578190611a788454613651565b601f811161276c575b508990601f8311600114612709575f926126fe575b50508160011b915f199060031b1c19161790555b6003820160ff806060840151161660ff19825416178155608082015160078110156126ea5761ff0082549160081b169061ff0019161790556004820160a08201518051906001600160401b0382116108b257611b068354613651565b601f81116126a7575b508890601f831160011461263e57918060c09492600596945f92612633575b50508160011b915f199060031b1c19161790555b01519101556040518481845180838701835e8101600481520301902081519081516001600160401b0381116108b2578692611b7d8354613651565b601f81116125e1575b508390601f831160011461257b5760019392915f9183612570575b50505f19600383901b1c191690831b1781555b01910151918251916001600160401b0383116108b2578592611bd68254613651565b94601f8611612519575b8495508490601f83116001146124b2575f9190836124a7575b50508160011b915f199060031b1c19161790555b604051928184925191829101835e810160058152030190209080519182516001600160401b0381116108b257611c438254613651565b601f8111612464575b508493601f82116001146124045793819293945f926123f9575b50508160011b915f199060031b1c19161781555b60018101838301518051906001600160401b0382116108b2578190611c9f8454613651565b601f81116123ab575b508690601f8311600114612348575f9261233d575b50508160011b915f199060031b1c19161790555b6002810160408301518051906001600160401b0382116108b2578190611cf78454613651565b601f81116122ef575b508690601f831160011461228c575f92612281575b50508160011b915f199060031b1c19161790555b6003810160608301518051906001600160401b0382116108b2578190611d4f8454613651565b601f8111612233575b508690601f83116001146121d0575f926121c5575b50508160011b915f199060031b1c19161790555b6004810160808301518051906001600160401b0382116108b2578190611da78454613651565b601f8111612177575b508690601f8311600114612114575f92612109575b50508160011b915f199060031b1c19161790555b6005810160a08301518051906001600160401b0382116108b2578190611dff8454613651565b601f81116120bb575b508690601f8311600114612058575f9261204d575b50508160011b915f199060031b1c19161790555b6006810160c08301518051906001600160401b0382116108b257611e558354613651565b601f811161200a575b508590601f8311600114611fa15791806007949260e096945f92611f96575b50508160011b915f199060031b1c19161790555b01910151918251906001600160401b0382116108b257611eb18354613651565b601f8111611f53575b5080601f8311600114611ef457508192935f92611ee9575b50505f19600383901b1c191660019190911b179055005b015190508380611ed2565b90601f19831694845f52825f20925f905b878210611f3b575050836001959610611f23575b505050811b019055005b01515f1960f88460031b161c19169055838080611f19565b80600185968294968601518155019501930190611f05565b835f52815f20601f840160051c810191838510611f8c575b601f0160051c01905b818110611f815750611eba565b5f8155600101611f74565b9091508190611f6b565b015190508880611e7d565b90601f19831691845f52875f20925f5b89828210611ff457505092600192859260e098966007989610611fdc575b505050811b019055611e91565b01515f1960f88460031b161c19169055888080611fcf565b6001859682939686015181550195019301611fb1565b835f52865f20601f840160051c810191888510612043575b601f0160051c01905b8181106120385750611e5e565b5f815560010161202b565b9091508190612022565b015190508680611e1d565b5f8581528881209350601f198516905b898282106120a557505090846001959493921061208d575b505050811b019055611e31565b01515f1960f88460031b161c19169055868080612080565b6001859682939686015181550195019301612068565b909150835f52865f20601f840160051c8101918885106120ff575b90601f859493920160051c01905b8181106120f15750611e08565b5f81558493506001016120e4565b90915081906120d6565b015190508680611dc5565b5f8581528881209350601f198516905b89828210612161575050908460019594939210612149575b505050811b019055611dd9565b01515f1960f88460031b161c1916905586808061213c565b6001859682939686015181550195019301612124565b909150835f52865f20601f840160051c8101918885106121bb575b90601f859493920160051c01905b8181106121ad5750611db0565b5f81558493506001016121a0565b9091508190612192565b015190508680611d6d565b5f8581528881209350601f198516905b8982821061221d575050908460019594939210612205575b505050811b019055611d81565b01515f1960f88460031b161c191690558680806121f8565b60018596829396860151815501950193016121e0565b909150835f52865f20601f840160051c810191888510612277575b90601f859493920160051c01905b8181106122695750611d58565b5f815584935060010161225c565b909150819061224e565b015190508680611d15565b5f8581528881209350601f198516905b898282106122d95750509084600195949392106122c1575b505050811b019055611d29565b01515f1960f88460031b161c191690558680806122b4565b600185968293968601518155019501930161229c565b909150835f52865f20601f840160051c810191888510612333575b90601f859493920160051c01905b8181106123255750611d00565b5f8155849350600101612318565b909150819061230a565b015190508680611cbd565b5f8581528881209350601f198516905b8982821061239557505090846001959493921061237d575b505050811b019055611cd1565b01515f1960f88460031b161c19169055868080612370565b6001859682939686015181550195019301612358565b909150835f52865f20601f840160051c8101918885106123ef575b90601f859493920160051c01905b8181106123e15750611ca8565b5f81558493506001016123d4565b90915081906123c6565b015190508580611c66565b601f19821694835f52865f20915f5b8888821061244e57505083600195969710612436575b505050811b018155611c7a565b01515f1960f88460031b161c19169055858080612429565b6001849582939585015181550194019201612413565b825f52855f20601f830160051c81019187841061249d575b601f0160051c01905b8181106124925750611c4c565b5f8155600101612485565b909150819061247c565b015190508880611bf9565b601f95949392919519821695835f52855f20915f5b888110612501575083600195969798106124e9575b505050811b019055611c0d565b01515f1960f88460031b161c191690558880806124dc565b828201518455899760019094019392830192016124c7565b918094505f9591939552865f20601f840160051c810191888510612566575b90601f899694979593920160051c01905b81811061255857505084611be0565b5f8155889550600101612549565b9091508190612538565b015190508980611ba1565b90601f19831691845f52855f20925f5b878282106125cb5750509160019594929183879593106125b3575b505050811b018155611bb4565b01515f1960f88460031b161c191690558980806125a6565b600185968293968601518155019501930161258b565b9091928094505f52875f20601f840160051c810191898510612629575b90601f8a96959493920160051c01905b81811061261b5750611b86565b5f815589955060010161260e565b90915081906125fe565b015190508b80611b2e565b90601f19831691845f528a5f20925f5b8c8282106126915750509260019285926005989660c0989610612679575b505050811b019055611b42565b01515f1960f88460031b161c191690558b808061266c565b600185968293968601518155019501930161264e565b835f52895f20601f840160051c8101918b85106126e0575b601f0160051c01905b8181106126d55750611b0f565b5f81556001016126c8565b90915081906126bf565b634e487b7160e01b5f52602160045260245ffd5b015190508980611a96565b5f8581528b81209350601f198516905b8c82821061275657505090846001959493921061273e575b505050811b019055611aaa565b01515f1960f88460031b161c19169055898080612731565b6001859682939686015181550195019301612719565b909150835f52895f20601f840160051c8101918b85106127b0575b90601f859493920160051c01905b8181106127a25750611a81565b5f8155849350600101612795565b9091508190612787565b015190508880611a3b565b600186015f9081528a81209350601f198516905b8b828210612819575050908460019594939210612801575b505050811b016001830155611a52565b01515f1960f88460031b161c191690558880806127f1565b60018596829396860151815501950193016127d9565b909150600185015f52885f20601f840160051c8101918a8510612876575b90601f859493920160051c01905b8181106128685750611a26565b5f815584935060010161285b565b909150819061284d565b0151905089806119e8565b5f8781528b81209350601f198516905b8c8282106128d85750509084600195949392106128c0575b505050811b0183556119fc565b01515f1960f88460031b161c191690558980806128b3565b600185968293968601518155019501930161289b565b909150855f52895f20601f840160051c8101918b8510612932575b90601f859493920160051c01905b81811061292457506119d3565b5f8155849350600101612917565b9091508190612909565b634e487b7160e01b5f525f60045260245ffd5b015190508e8061190b565b5f8481528c8120929190601f198516908e5b8282106129af5750509360ff969360029693600193838a9810612997575b505050811b01905561191f565b01515f1960f88460031b161c191690558e808061298a565b8060018697829497870151815501960194019061296c565b835f528b5f20601f840160051c8101918d8510612a00575b601f0160051c01905b8181106129f557506118ea565b5f81556001016129e8565b90915081906129df565b015190508b806118ad565b5f8781528d81209350601f198516908e5b828210612a62575050908460019594939210612a4a575b505050811b0183556118c1565b01515f1960f88460031b161c191690558b8080612a3d565b80600186978294978701518155019601940190612a26565b909150855f528b5f20601f840160051c8101918d8510612abe575b90601f859493920160051c01905b818110612ab05750611898565b5f8155849350600101612aa3565b9091508190612a95565b346101bd5760203660031901126101bd576004356001600160401b0381116101bd57612af8903690600401613584565b604051818192516020819201835e810160058152036020019020612b1b81613689565b612b2760018301613689565b91612b3460028201613689565b90612b4160038201613689565b612b4d60048301613689565b612b5960058401613689565b91612b6660068501613689565b93600701612b7390613689565b9460405197889761010089526101008901612b8d916135d9565b88810360208a0152612b9e916135d9565b8781036040890152612baf916135d9565b8681036060880152612bc0916135d9565b8581036080870152612bd1916135d9565b84810360a0860152612be2916135d9565b83810360c0850152612bf3916135d9565b82810360e0840152610224916135d9565b346101bd5760203660031901126101bd576004356002548110156101bd57612c2e612c8b91613775565b50612c3881613689565b90612cce612c4860018301613689565b91612c5560028201613689565b90612cc1612ca7600383015493612c996005612c7360048701613689565b950154976040519a8b9a60e08c5260e08c01906135d9565b908a820360208c01526135d9565b9088820360408a01526135d9565b9260ff8116606088015260ff608088019160081c16613768565b84820360a08601526135d9565b9060c08301520390f35b346101bd5760203660031901126101bd576004356001600160401b0381116101bd57602080612d0e612d87933690600401613584565b604051928184925191829101835e81015f81520301902061022460ff82541691612dc7600182015491612db8600282015460038301546004840154600585015490600686015492612d6160078801613729565b94612d7a600d612d73600a8b01613729565b9901613689565b996040519d8e809e613768565b60208d015260408c015260608b015260808a015260a089015260c088015261014060e08801526101408701906135fd565b908582036101008701526135fd565b908382036101208501526135d9565b346101bd5760603660031901126101bd576004356001600160401b0381116101bd57612e06903690600401613584565b6024356001600160401b0381116101bd57612e25903690600401613584565b906044356001600160a01b03811681036101bd5761022492612e4692613cbe565b6040519182916020835260208301906135fd565b346101bd5760c03660031901126101bd576004356001600160401b0381116101bd57612e8a903690600401613584565b6024356001600160401b0381116101bd57612ea9903690600401613584565b6044356001600160401b0381116101bd57612ec8903690600401613584565b6064356001600160401b0381116101bd57612ee7903690600401613584565b612eef61363b565b60a435916001600160401b0383116101bd57612f12612f18933690600401613584565b93613cbe565b604051906001845192602081818801958087835e810160038152030190200185516001600160401b0381116108b257612f518254613651565b601f81116132c3575b506020601f821160011461325c579080612f919493925f91613251575b508160011b915f199060031b1c19161790555b838561436f565b600254925f5b848110612fa057005b612fa981613775565b50604051612fbf816103e3602082018095613c54565b5190206040516020810190612fec6020828751808a875e81015f838201520301601f198101835282613563565b51902014612ffd575b600101612f97565b600161300882613775565b500186516001600160401b0381116108b2576130248254613651565b601f811161320c575b50806020601f82116001146131a9575f9161319e575b508160011b915f199060031b1c19161790555b600361306182613775565b5001805461ff001916610100179055600461307b82613775565b500184516001600160401b0381116108b2576130978254613651565b601f8111613159575b50806020601f82116001146130f8575f916130ed575b508160011b915f199060031b1c19161790555b608242019081421161102d5760019160056130e383613775565b5001559050612ff5565b9050860151896130b6565b5f8481528181209250601f198416905b81811061314157509083600194939210613129575b5050811b0190556130c9565b8801515f1960f88460031b161c19169055898061311d565b9192602060018192868d015181550194019201613108565b825f5260205f20601f830160051c81019160208410613194575b601f0160051c01905b81811061318957506130a0565b5f815560010161317c565b9091508190613173565b905088015189613043565b5f8481528181209250601f198416905b8b8282106131f457505090836001949392106131dc575b5050811b019055613056565b8a01515f1960f88460031b161c1916905589806131d0565b600184956020939584930151815501940192016131b9565b825f5260205f20601f830160051c81019160208410613247575b601f0160051c01905b81811061323c575061302d565b5f815560010161322f565b9091508190613226565b905088015189612f77565b601f19821690835f52805f20915f5b8a8282106132ab575050918391612f9196959460019410613293575b5050811b019055612f8a565b8a01515f1960f88460031b161c191690558980613287565b6001849560209395849301518155019401920161326b565b825f5260205f20601f830160051c810191602084106132fe575b601f0160051c01905b8181106132f35750612f5a565b5f81556001016132e6565b90915081906132dd565b346101bd5760a03660031901126101bd576004356001600160401b0381116101bd57613338903690600401613584565b6024356001600160401b0381116101bd57613357903690600401613584565b6044356001600160401b0381116101bd57613376903690600401613584565b906064356001600160401b0381116101bd576133b29261339d6133ab923690600401613584565b6133a561363b565b91613cbe565b9083613fd2565b600254602082015f5b8281106133c457005b806133d0600192613775565b506040516133e6816103e3602082018095613c54565b51902060405160208101906134136020828a51808a875e81015f838201520301601f198101835282613563565b51902014613422575b016133bb565b600361342d82613775565b5001805461ff00191661020017905561341c565b346101bd5760203660031901126101bd576004356001600160401b0381116101bd576134746101bb913690600401613584565b613c26565b346101bd5760203660031901126101bd576004356001600160401b0381116101bd57612e4660076020806134b4610224953690600401613584565b6134bc613c06565b50604051928184925191829101835e81015f81520301902001613729565b606081019081106001600160401b038211176108b257604052565b60e081019081106001600160401b038211176108b257604052565b604081019081106001600160401b038211176108b257604052565b61010081019081106001600160401b038211176108b257604052565b61014081019081106001600160401b038211176108b257604052565b90601f801991011681019081106001600160401b038211176108b257604052565b81601f820112156101bd578035906001600160401b0382116108b257604051926135b8601f8401601f191660200185613563565b828452602083830101116101bd57815f926020809301838601378301015290565b805180835260209291819084018484015e5f828201840152601f01601f1916010190565b90604061362861361684516060855260608501906135d9565b602085015184820360208601526135d9565b928101516001600160a01b031691015290565b608435906001600160a01b03821682036101bd57565b90600182811c9216801561367f575b602083101461366b57565b634e487b7160e01b5f52602260045260245ffd5b91607f1691613660565b9060405191825f82549261369c84613651565b808452936001811690811561370757506001146136c3575b506136c192500383613563565b565b90505f9291925260205f20905f915b8183106136eb5750509060206136c1928201015f6136b4565b60209193508060019154838589010152019101909184926136d2565b9050602092506136c194915060ff191682840152151560051b8201015f6136b4565b90604051613736816134da565b6040819361374381613689565b835261375160018201613689565b6020840152600201546001600160a01b0316910152565b9060078210156126ea5752565b6002548110156137915760025f52600660205f20910201905f90565b634e487b7160e01b5f52603260045260245ffd5b91906040838203126101bd57604051906137be82613510565b819380356001600160401b0381116101bd57826137dc918301613584565b83526020810135916001600160401b0383116101bd576020926137ff9201613584565b910152565b9190610100838203126101bd576040519061381e8261352b565b819380356001600160401b0381116101bd578261383c918301613584565b835260208101356001600160401b0381116101bd578261385d918301613584565b602084015260408101356001600160401b0381116101bd5782613881918301613584565b604084015260608101356001600160401b0381116101bd57826138a5918301613584565b606084015260808101356001600160401b0381116101bd57826138c9918301613584565b608084015260a08101356001600160401b0381116101bd57826138ed918301613584565b60a084015260c08101356001600160401b0381116101bd5782613911918301613584565b60c084015260e0810135916001600160401b0383116101bd5760e0926137ff9201613584565b602081016020825282518091526040820191602060408360051b8301019401925f915b83831061396957505050505090565b9091929394602080600192603f1985820301865288519060c0806139f26139c16139af61399f875160e0885260e08801906135d9565b888801518782038a8901526135d9565b604087015186820360408801526135d9565b60ff60608701511660608601526139e060808701516080870190613768565b60a086015185820360a08701526135d9565b9301519101529701930193019193929061395a565b60406003198201126101bd57600435906001600160401b0382116101bd57613a3191600401613584565b9060243590565b90613ad99160208152613a4f602082018351613768565b602082015160408201526040820151606082015260608201516080820152608082015160a082015260a082015160c082015260c082015160e0820152610120613ac3613aad60e08501516101406101008601526101608501906135fd565b610100850151848203601f1901848601526135fd565b92015190610140601f19828503019101526135d9565b90565b9060406003198301126101bd576004356001600160401b0381116101bd5782613b0791600401613584565b91602435906001600160401b0382116101bd57613ad991600401613584565b91906060838203126101bd5760405190613b3f826134da565b819380356001600160401b0381116101bd5782613b5d918301613584565b835260208101356001600160401b0381116101bd57604092613b80918301613584565b60208401520135906001600160a01b03821682036101bd5760400152565b60606003198201126101bd576004356001600160401b0381116101bd5781613bc891600401613584565b916024356001600160401b0381116101bd5782613be791600401613584565b91604435906001600160401b0382116101bd57613ad991600401613b26565b60405190613c13826134da565b5f60408360608152606060208201520152565b60208091604051928184925191829101835e81015f815203019020426004820155600360ff19825416179055565b5f9291815491613c6383613651565b9260018116908115613cab5750600114613c7c57505050565b90919293505f5260205f205f905b838210613c975750500190565b600181602092548486015201910190613c8a565b60ff191683525050811515909102019150565b9190613cc8613c06565b5060405192613cd6846134da565b835260208301526001600160a01b0316604082015290565b60078210156126ea5752565b6040518151613ad992602091839181908401835e81016001815203019020613689565b60ff1660ff811461102d5760010190565b6001600160401b0381116108b25760051b60200190565b90613d4f82613d2e565b613d5c6040519182613563565b8281528092613d6d601f1991613d2e565b01905f5b828110613d7d57505050565b602090604051613d8c816134f5565b60608152606083820152606060408201525f60608201525f6080820152606060a08201525f60c082015282828501015201613d71565b80518210156137915760209160051b010190565b90604051613de3816134f5565b60c060058294613df281613689565b8452613e0060018201613689565b6020850152613e1160028201613689565b6040850152613e3560ff6003830154818116606088015260081c1660808601613cee565b613e4160048201613689565b60a08501520154910152565b90421115613e835760208091604051928184925191829101835e81015f815203019020426006820155600560ff19825416179055565b60405162461bcd60e51b815260206004820152601860248201527f536572746966696b6174206d61736968206265726c616b7500000000000000006044820152606490fd5b60405190613ed582613547565b6060610120835f81525f60208201525f60408201525f838201525f60808201525f60a08201525f60c0820152613f09613c06565b60e0820152613f16613c06565b6101008201520152565b60208091613f2c613ec8565b50604051928184925191829101835e81015f815203019020613fc9600d60405192613f5684613547565b613f6460ff82541685613cee565b60018101546020850152600281015460408501526003810154606085015260048101546080850152600581015460a0850152600681015460c0850152613fac60078201613729565b60e0850152613fbd600a8201613729565b61010085015201613689565b61012082015290565b92919060405160208551918181818901948086835e81015f81520301902095604051928391518091835e81016001815203019020908051906001600160401b0382116108b25781906140248454613651565b601f811161431f575b50602090601f83116001146142bc575f926142b1575b50508160011b915f199060031b1c19161790555b80518051600a8501916001600160401b0382116108b2576140788354613651565b601f811161426c575b50602090601f8311600114614205576020949392915f91836141fa575b50508160011b915f199060031b1c19161790555b6040810151600c850180546001600160a01b0319166001600160a01b039290921691909117905501518051909290600b8201906001600160401b0381116108b2576140fd8254613651565b601f81116141b5575b50602094601f8211600114614154579481929394955f92614149575b50508160011b915f199060031b1c19161790555b426003820155805460ff19166002179055565b015190505f80614122565b601f19821695835f52805f20915f5b88811061419d57508360019596979810614185575b505050811b019055614136565b01515f1960f88460031b161c191690555f8080614178565b91926020600181928685015181550194019201614163565b825f5260205f20601f830160051c810191602084106141f0575b601f0160051c01905b8181106141e55750614106565b5f81556001016141d8565b90915081906141cf565b015190505f8061409e565b90601f19831691845f52815f20925f5b81811061425457509160019391856020989796941061423c575b505050811b0190556140b2565b01515f1960f88460031b161c191690555f808061422f565b92936020600181928786015181550195019301614215565b835f5260205f20601f840160051c810191602085106142a7575b601f0160051c01905b81811061429c5750614081565b5f815560010161428f565b9091508190614286565b015190505f80614043565b5f8581528281209350601f198516905b81811061430757509084600195949392106142ef575b505050811b019055614057565b01515f1960f88460031b161c191690555f80806142e2565b929360206001819287860151815501950193016142cc565b909150835f5260205f20601f840160051c81019160208510614365575b90601f859493920160051c01905b818110614357575061402d565b5f815584935060010161434a565b909150819061433c565b6020809194939294604051928184925191829101835e81015f815203019020908051600a8301908051906001600160401b0382116108b2576143b18354613651565b601f81116146bd575b50602090601f8311600114614656576020949392915f918361464b575b50508160011b915f199060031b1c19161790555b6040810151600c840180546001600160a01b0319166001600160a01b039290921691909117905501518051600b8301916001600160401b0382116108b25781906144358454613651565b601f81116145fb575b50602090601f8311600114614598575f9261458d575b50508160011b915f199060031b1c19161790555b426002820155608242019081421161102d57600d916005820155600160ff198254161781550182516001600160401b0381116108b2576144a88254613651565b601f8111614548575b506020601f82116001146144ea57819293945f926144df575b50508160011b915f199060031b1c1916179055565b015190505f806144ca565b601f19821690835f52805f20915f5b81811061453057509583600195969710614518575b505050811b019055565b01515f1960f88460031b161c191690555f808061450e565b9192602060018192868b0151815501940192016144f9565b825f5260205f20601f830160051c81019160208410614583575b601f0160051c01905b81811061457857506144b1565b5f815560010161456b565b9091508190614562565b015190505f80614454565b5f8581528281209350601f198516905b8181106145e357509084600195949392106145cb575b505050811b019055614468565b01515f1960f88460031b161c191690555f80806145be565b929360206001819287860151815501950193016145a8565b909150835f5260205f20601f840160051c81019160208510614641575b90601f859493920160051c01905b818110614633575061443e565b5f8155849350600101614626565b9091508190614618565b015190505f806143d7565b90601f19831691845f52815f20925f5b8181106146a557509160019391856020989796941061468d575b505050811b0190556143eb565b01515f1960f88460031b161c191690555f8080614680565b92936020600181928786015181550195019301614666565b835f5260205f20601f840160051c810191602085106146f8575b601f0160051c01905b8181106146ed57506143ba565b5f81556001016146e0565b90915081906146d7565b60208091939293604051928184925191829101835e81015f815203019020426002820155608242019081421161102d57600d916005820155600660ff198254161781550182516001600160401b0381116108b2576147608254613651565b601f81116147db575b506020601f821160011461479657819293945f926144df5750508160011b915f199060031b1c1916179055565b601f19821690835f52805f20915f5b8181106147c35750958360019596971061451857505050811b019055565b9192602060018192868b0151815501940192016147a5565b825f5260205f20601f830160051c81019160208410614816575b601f0160051c01905b81811061480b5750614769565b5f81556001016147fe565b90915081906147f5565b92909160405161482f81613547565b5f81526020810194428652604082015f8152606083015f8152608084015f815260a08501915f835260c08601935f855260e087019586526101008701998a5260209a8b806040519a614881828d613563565b5f8c526101208b019b8c52604051928184925191829101835e81015f815203019020975160078110156126ea5760ff80198a541691161788555160018801555160028701555160038601555160048501555160058401555160068301556007820190519081518051906001600160401b0382116108b25781906149048454613651565b601f8111614e11575b508990601f8311600114614dae575f92614da3575b50508160011b915f199060031b1c19161790555b60088201868201518051906001600160401b0382116108b257819061495b8454613651565b601f8111614d55575b508990601f8311600114614cf2575f92614ce7575b50508160011b915f199060031b1c19161790555b604001516009820180546001600160a01b0319166001600160a01b0392909216919091179055925180518051919491600a8301916001600160401b0382116108b25781906149db8454613651565b601f8111614c99575b508890601f8311600114614c36575f92614c2b575b50508160011b915f199060031b1c19161790555b600b81019385810151948551956001600160401b0387116108b257614a328254613651565b601f8111614be8575b508790601f8811600114614b8157968091600d9697985f92614b76575b50508160011b915f199060031b1c19161790555b60400151600c820180546001600160a01b0319166001600160a01b03929092169190911790559151805190949190920191906001600160401b0382116108b257614ab68354613651565b601f8111614b33575b5080601f8311600114614aec5750819293945f926144df5750508160011b915f199060031b1c1916179055565b90601f19831695845f52825f20925f905b888210614b1b5750508360019596971061451857505050811b019055565b80600185968294968601518155019501930190614afd565b835f52815f20601f840160051c810191838510614b6c575b601f0160051c01905b818110614b615750614abf565b5f8155600101614b54565b9091508190614b4b565b015190505f80614a58565b90601f19881691835f52895f20925f5b8b828210614bd257505091600193918a600d999a9b9410614bba575b505050811b019055614a6c565b01515f1960f88460031b161c191690555f8080614bad565b6001859682939686015181550195019301614b91565b825f52885f20601f890160051c8101918a8a10614c21575b601f0160051c01905b818110614c165750614a3b565b5f8155600101614c09565b9091508190614c00565b015190505f806149f9565b5f8581528a81209350601f198516905b8b828210614c83575050908460019594939210614c6b575b505050811b019055614a0d565b01515f1960f88460031b161c191690555f8080614c5e565b6001859682939686015181550195019301614c46565b909150835f52885f20601f840160051c8101918a8510614cdd575b90601f859493920160051c01905b818110614ccf57506149e4565b5f8155849350600101614cc2565b9091508190614cb4565b015190505f80614979565b5f8581528b81209350601f198516905b8c828210614d3f575050908460019594939210614d27575b505050811b01905561498d565b01515f1960f88460031b161c191690555f8080614d1a565b6001859682939686015181550195019301614d02565b909150835f52895f20601f840160051c8101918b8510614d99575b90601f859493920160051c01905b818110614d8b5750614964565b5f8155849350600101614d7e565b9091508190614d70565b015190505f80614922565b5f8581528b81209350601f198516905b8c828210614dfb575050908460019594939210614de3575b505050811b019055614936565b01515f1960f88460031b161c191690555f8080614dd6565b6001859682939686015181550195019301614dbe565b909150835f52895f20601f840160051c8101918b8510614e55575b90601f859493920160051c01905b818110614e47575061490d565b5f8155849350600101614e3a565b9091508190614e2c56fea2646970667358221220e2c036fa71e8c136c5b78867c039009bd18b4ec46ca7e14470d9f2a2518759ee64736f6c634300081b0033",
  "linkReferences": {},
  "deployedLinkReferences": {}
}