{
  "_format": "hh-sol-artifact-1",
  "contractName": "CdobCertificate",
  "sourceName": "contracts/CdobCertificate.sol",
  "abi": [
    {
      "inputs": [
        {
          "internalType": "uint256",
          "name": "",
          "type": "uint256"
        }
      ],
      "name": "allCdobData",
      "outputs": [
        {
          "internalType": "string",
          "name": "certId",
          "type": "string"
        },
        {
          "internalType": "string",
          "name": "certNumber",
          "type": "string"
        },
        {
          "internalType": "string",
          "name": "instanceName",
          "type": "string"
        },
        {
          "internalType": "uint8",
          "name": "tipePermohonan",
          "type": "uint8"
        },
        {
          "internalType": "enum EnumsLibrary.StatusCertificate",
          "name": "status",
          "type": "uint8"
        },
        {
          "internalType": "string",
          "name": "certHash",
          "type": "string"
        }
      ],
      "stateMutability": "view",
      "type": "function"
    },
    {
      "inputs": [
        {
          "internalType": "string",
          "name": "certNumber",
          "type": "string"
        },
        {
          "internalType": "string",
          "name": "certId",
          "type": "string"
        },
        {
          "internalType": "string",
          "name": "bpomName",
          "type": "string"
        },
        {
          "internalType": "string",
          "name": "bpomInstance",
          "type": "string"
        },
        {
          "internalType": "address",
          "name": "bpomAddr",
          "type": "address"
        },
        {
          "internalType": "string",
          "name": "ipfsCert",
          "type": "string"
        }
      ],
      "name": "approveCdob",
      "outputs": [],
      "stateMutability": "nonpayable",
      "type": "function"
    },
    {
      "inputs": [
        {
          "internalType": "string",
          "name": "",
          "type": "string"
        }
      ],
      "name": "cdobDataById",
      "outputs": [
        {
          "internalType": "string",
          "name": "cdobId",
          "type": "string"
        },
        {
          "internalType": "string",
          "name": "cdobNumber",
          "type": "string"
        },
        {
          "internalType": "uint8",
          "name": "tipePermohonan",
          "type": "uint8"
        }
      ],
      "stateMutability": "view",
      "type": "function"
    },
    {
      "inputs": [
        {
          "internalType": "string",
          "name": "",
          "type": "string"
        }
      ],
      "name": "certDetailById",
      "outputs": [
        {
          "internalType": "enum EnumsLibrary.StatusCertificate",
          "name": "status",
          "type": "uint8"
        },
        {
          "internalType": "uint256",
          "name": "timestampRequest",
          "type": "uint256"
        },
        {
          "internalType": "uint256",
          "name": "timestampApprove",
          "type": "uint256"
        },
        {
          "internalType": "uint256",
          "name": "timestampRejected",
          "type": "uint256"
        },
        {
          "internalType": "uint256",
          "name": "timestampRenewRequest",
          "type": "uint256"
        },
        {
          "internalType": "uint256",
          "name": "timestampExpired",
          "type": "uint256"
        },
        {
          "internalType": "uint256",
          "name": "timestampExtendRequest",
          "type": "uint256"
        },
        {
          "components": [
            {
              "internalType": "string",
              "name": "userName",
              "type": "string"
            },
            {
              "internalType": "string",
              "name": "userInstance",
              "type": "string"
            },
            {
              "internalType": "address",
              "name": "userAddr",
              "type": "address"
            }
          ],
          "internalType": "struct BaseCertificate.UserCert",
          "name": "sender",
          "type": "tuple"
        },
        {
          "components": [
            {
              "internalType": "string",
              "name": "userName",
              "type": "string"
            },
            {
              "internalType": "string",
              "name": "userInstance",
              "type": "string"
            },
            {
              "internalType": "address",
              "name": "userAddr",
              "type": "address"
            }
          ],
          "internalType": "struct BaseCertificate.UserCert",
          "name": "bpom",
          "type": "tuple"
        },
        {
          "internalType": "string",
          "name": "ipfsCert",
          "type": "string"
        }
      ],
      "stateMutability": "view",
      "type": "function"
    },
    {
      "inputs": [
        {
          "components": [
            {
              "internalType": "string",
              "name": "userName",
              "type": "string"
            },
            {
              "internalType": "string",
              "name": "userInstance",
              "type": "string"
            },
            {
              "internalType": "address",
              "name": "userAddr",
              "type": "address"
            }
          ],
          "internalType": "struct BaseCertificate.UserCert",
          "name": "senderData",
          "type": "tuple"
        },
        {
          "components": [
            {
              "internalType": "string",
              "name": "userName",
              "type": "string"
            },
            {
              "internalType": "string",
              "name": "userInstance",
              "type": "string"
            },
            {
              "internalType": "address",
              "name": "userAddr",
              "type": "address"
            }
          ],
          "internalType": "struct BaseCertificate.UserCert",
          "name": "bpomData",
          "type": "tuple"
        },
        {
          "internalType": "string",
          "name": "certId",
          "type": "string"
        }
      ],
      "name": "createCertificateDetails",
      "outputs": [],
      "stateMutability": "nonpayable",
      "type": "function"
    },
    {
      "inputs": [
        {
          "internalType": "string",
          "name": "userName",
          "type": "string"
        },
        {
          "internalType": "string",
          "name": "userInstance",
          "type": "string"
        },
        {
          "internalType": "address",
          "name": "userAddr",
          "type": "address"
        }
      ],
      "name": "createUserCertificate",
      "outputs": [
        {
          "components": [
            {
              "internalType": "string",
              "name": "userName",
              "type": "string"
            },
            {
              "internalType": "string",
              "name": "userInstance",
              "type": "string"
            },
            {
              "internalType": "address",
              "name": "userAddr",
              "type": "address"
            }
          ],
          "internalType": "struct BaseCertificate.UserCert",
          "name": "",
          "type": "tuple"
        }
      ],
      "stateMutability": "pure",
      "type": "function"
    },
    {
      "inputs": [
        {
          "internalType": "string",
          "name": "",
          "type": "string"
        }
      ],
      "name": "dokuAdminById",
      "outputs": [
        {
          "internalType": "string",
          "name": "suratPermohonan",
          "type": "string"
        },
        {
          "internalType": "string",
          "name": "buktiPembayaranPajak",
          "type": "string"
        }
      ],
      "stateMutability": "view",
      "type": "function"
    },
    {
      "inputs": [
        {
          "internalType": "string",
          "name": "",
          "type": "string"
        }
      ],
      "name": "dokuTeknisById",
      "outputs": [
        {
          "internalType": "string",
          "name": "suratIzinCdob",
          "type": "string"
        },
        {
          "internalType": "string",
          "name": "denahBangunan",
          "type": "string"
        },
        {
          "internalType": "string",
          "name": "strukturOrganisasi",
          "type": "string"
        },
        {
          "internalType": "string",
          "name": "daftarPersonalia",
          "type": "string"
        },
        {
          "internalType": "string",
          "name": "daftarPeralatan",
          "type": "string"
        },
        {
          "internalType": "string",
          "name": "eksekutifQualityManagement",
          "type": "string"
        },
        {
          "internalType": "string",
          "name": "suratIzinApoteker",
          "type": "string"
        },
        {
          "internalType": "string",
          "name": "dokumenSelfAssesment",
          "type": "string"
        }
      ],
      "stateMutability": "view",
      "type": "function"
    },
    {
      "inputs": [],
      "name": "getAllCdob",
      "outputs": [
        {
          "components": [
            {
              "internalType": "string",
              "name": "certId",
              "type": "string"
            },
            {
              "internalType": "string",
              "name": "certNumber",
              "type": "string"
            },
            {
              "internalType": "string",
              "name": "instanceName",
              "type": "string"
            },
            {
              "internalType": "uint8",
              "name": "tipePermohonan",
              "type": "uint8"
            },
            {
              "internalType": "enum EnumsLibrary.StatusCertificate",
              "name": "status",
              "type": "uint8"
            },
            {
              "internalType": "string",
              "name": "certHash",
              "type": "string"
            }
          ],
          "internalType": "struct CdobCertificate.CertificateList[]",
          "name": "",
          "type": "tuple[]"
        }
      ],
      "stateMutability": "view",
      "type": "function"
    },
    {
      "inputs": [
        {
          "internalType": "string",
          "name": "instanceName",
          "type": "string"
        }
      ],
      "name": "getAllCdobByInstance",
      "outputs": [
        {
          "components": [
            {
              "internalType": "string",
              "name": "certId",
              "type": "string"
            },
            {
              "internalType": "string",
              "name": "certNumber",
              "type": "string"
            },
            {
              "internalType": "string",
              "name": "instanceName",
              "type": "string"
            },
            {
              "internalType": "uint8",
              "name": "tipePermohonan",
              "type": "uint8"
            },
            {
              "internalType": "enum EnumsLibrary.StatusCertificate",
              "name": "status",
              "type": "uint8"
            },
            {
              "internalType": "string",
              "name": "certHash",
              "type": "string"
            }
          ],
          "internalType": "struct CdobCertificate.CertificateList[]",
          "name": "",
          "type": "tuple[]"
        }
      ],
      "stateMutability": "view",
      "type": "function"
    },
    {
      "inputs": [
        {
          "internalType": "string",
          "name": "certId",
          "type": "string"
        }
      ],
      "name": "getCdobDetails",
      "outputs": [
        {
          "components": [
            {
              "internalType": "string",
              "name": "cdobId",
              "type": "string"
            },
            {
              "internalType": "string",
              "name": "cdobNumber",
              "type": "string"
            },
            {
              "internalType": "uint8",
              "name": "tipePermohonan",
              "type": "uint8"
            }
          ],
          "internalType": "struct CdobCertificate.CdobData",
          "name": "",
          "type": "tuple"
        },
        {
          "components": [
            {
              "internalType": "string",
              "name": "suratPermohonan",
              "type": "string"
            },
            {
              "internalType": "string",
              "name": "buktiPembayaranPajak",
              "type": "string"
            }
          ],
          "internalType": "struct CdobCertificate.DokumenAdministrasi",
          "name": "",
          "type": "tuple"
        },
        {
          "components": [
            {
              "internalType": "string",
              "name": "suratIzinCdob",
              "type": "string"
            },
            {
              "internalType": "string",
              "name": "denahBangunan",
              "type": "string"
            },
            {
              "internalType": "string",
              "name": "strukturOrganisasi",
              "type": "string"
            },
            {
              "internalType": "string",
              "name": "daftarPersonalia",
              "type": "string"
            },
            {
              "internalType": "string",
              "name": "daftarPeralatan",
              "type": "string"
            },
            {
              "internalType": "string",
              "name": "eksekutifQualityManagement",
              "type": "string"
            },
            {
              "internalType": "string",
              "name": "suratIzinApoteker",
              "type": "string"
            },
            {
              "internalType": "string",
              "name": "dokumenSelfAssesment",
              "type": "string"
            }
          ],
          "internalType": "struct CdobCertificate.DokumenTeknis",
          "name": "",
          "type": "tuple"
        }
      ],
      "stateMutability": "view",
      "type": "function"
    },
    {
      "inputs": [
        {
          "internalType": "string",
          "name": "certId",
          "type": "string"
        }
      ],
      "name": "getCertDetail",
      "outputs": [
        {
          "components": [
            {
              "internalType": "enum EnumsLibrary.StatusCertificate",
              "name": "status",
              "type": "uint8"
            },
            {
              "internalType": "uint256",
              "name": "timestampRequest",
              "type": "uint256"
            },
            {
              "internalType": "uint256",
              "name": "timestampApprove",
              "type": "uint256"
            },
            {
              "internalType": "uint256",
              "name": "timestampRejected",
              "type": "uint256"
            },
            {
              "internalType": "uint256",
              "name": "timestampRenewRequest",
              "type": "uint256"
            },
            {
              "internalType": "uint256",
              "name": "timestampExpired",
              "type": "uint256"
            },
            {
              "internalType": "uint256",
              "name": "timestampExtendRequest",
              "type": "uint256"
            },
            {
              "components": [
                {
                  "internalType": "string",
                  "name": "userName",
                  "type": "string"
                },
                {
                  "internalType": "string",
                  "name": "userInstance",
                  "type": "string"
                },
                {
                  "internalType": "address",
                  "name": "userAddr",
                  "type": "address"
                }
              ],
              "internalType": "struct BaseCertificate.UserCert",
              "name": "sender",
              "type": "tuple"
            },
            {
              "components": [
                {
                  "internalType": "string",
                  "name": "userName",
                  "type": "string"
                },
                {
                  "internalType": "string",
                  "name": "userInstance",
                  "type": "string"
                },
                {
                  "internalType": "address",
                  "name": "userAddr",
                  "type": "address"
                }
              ],
              "internalType": "struct BaseCertificate.UserCert",
              "name": "bpom",
              "type": "tuple"
            },
            {
              "internalType": "string",
              "name": "ipfsCert",
              "type": "string"
            }
          ],
          "internalType": "struct BaseCertificate.CertificateDetails",
          "name": "",
          "type": "tuple"
        }
      ],
      "stateMutability": "view",
      "type": "function"
    },
    {
      "inputs": [
        {
          "internalType": "string",
          "name": "certId",
          "type": "string"
        }
      ],
      "name": "getCertDetails",
      "outputs": [
        {
          "components": [
            {
              "internalType": "enum EnumsLibrary.StatusCertificate",
              "name": "status",
              "type": "uint8"
            },
            {
              "internalType": "uint256",
              "name": "timestampRequest",
              "type": "uint256"
            },
            {
              "internalType": "uint256",
              "name": "timestampApprove",
              "type": "uint256"
            },
            {
              "internalType": "uint256",
              "name": "timestampRejected",
              "type": "uint256"
            },
            {
              "internalType": "uint256",
              "name": "timestampRenewRequest",
              "type": "uint256"
            },
            {
              "internalType": "uint256",
              "name": "timestampExpired",
              "type": "uint256"
            },
            {
              "internalType": "uint256",
              "name": "timestampExtendRequest",
              "type": "uint256"
            },
            {
              "components": [
                {
                  "internalType": "string",
                  "name": "userName",
                  "type": "string"
                },
                {
                  "internalType": "string",
                  "name": "userInstance",
                  "type": "string"
                },
                {
                  "internalType": "address",
                  "name": "userAddr",
                  "type": "address"
                }
              ],
              "internalType": "struct BaseCertificate.UserCert",
              "name": "sender",
              "type": "tuple"
            },
            {
              "components": [
                {
                  "internalType": "string",
                  "name": "userName",
                  "type": "string"
                },
                {
                  "internalType": "string",
                  "name": "userInstance",
                  "type": "string"
                },
                {
                  "internalType": "address",
                  "name": "userAddr",
                  "type": "address"
                }
              ],
              "internalType": "struct BaseCertificate.UserCert",
              "name": "bpom",
              "type": "tuple"
            },
            {
              "internalType": "string",
              "name": "ipfsCert",
              "type": "string"
            }
          ],
          "internalType": "struct BaseCertificate.CertificateDetails",
          "name": "",
          "type": "tuple"
        }
      ],
      "stateMutability": "view",
      "type": "function"
    },
    {
      "inputs": [
        {
          "internalType": "string",
          "name": "certId",
          "type": "string"
        }
      ],
      "name": "getRejectMsg",
      "outputs": [
        {
          "internalType": "string",
          "name": "",
          "type": "string"
        }
      ],
      "stateMutability": "view",
      "type": "function"
    },
    {
      "inputs": [
        {
          "internalType": "string",
          "name": "certId",
          "type": "string"
        }
      ],
      "name": "getRejectsMsg",
      "outputs": [
        {
          "internalType": "string",
          "name": "",
          "type": "string"
        }
      ],
      "stateMutability": "view",
      "type": "function"
    },
    {
      "inputs": [
        {
          "internalType": "string",
          "name": "certId",
          "type": "string"
        }
      ],
      "name": "getSenderDetail",
      "outputs": [
        {
          "components": [
            {
              "internalType": "string",
              "name": "userName",
              "type": "string"
            },
            {
              "internalType": "string",
              "name": "userInstance",
              "type": "string"
            },
            {
              "internalType": "address",
              "name": "userAddr",
              "type": "address"
            }
          ],
          "internalType": "struct BaseCertificate.UserCert",
          "name": "",
          "type": "tuple"
        }
      ],
      "stateMutability": "view",
      "type": "function"
    },
    {
      "inputs": [
        {
          "internalType": "string",
          "name": "certId",
          "type": "string"
        },
        {
          "internalType": "string",
          "name": "rejectMsg",
          "type": "string"
        },
        {
          "internalType": "string",
          "name": "bpomName",
          "type": "string"
        },
        {
          "internalType": "string",
          "name": "bpomInstance",
          "type": "string"
        },
        {
          "internalType": "address",
          "name": "bpomAddr",
          "type": "address"
        }
      ],
      "name": "rejectCdob",
      "outputs": [],
      "stateMutability": "nonpayable",
      "type": "function"
    },
    {
      "inputs": [
        {
          "internalType": "string",
          "name": "",
          "type": "string"
        }
      ],
      "name": "rejectMsgById",
      "outputs": [
        {
          "internalType": "string",
          "name": "",
          "type": "string"
        }
      ],
      "stateMutability": "view",
      "type": "function"
    },
    {
      "inputs": [
        {
          "internalType": "string",
          "name": "certId",
          "type": "string"
        },
        {
          "components": [
            {
              "internalType": "string",
              "name": "suratPermohonan",
              "type": "string"
            },
            {
              "internalType": "string",
              "name": "buktiPembayaranPajak",
              "type": "string"
            }
          ],
          "internalType": "struct CdobCertificate.DokumenAdministrasi",
          "name": "newDokuAdmin",
          "type": "tuple"
        },
        {
          "components": [
            {
              "internalType": "string",
              "name": "suratIzinCdob",
              "type": "string"
            },
            {
              "internalType": "string",
              "name": "denahBangunan",
              "type": "string"
            },
            {
              "internalType": "string",
              "name": "strukturOrganisasi",
              "type": "string"
            },
            {
              "internalType": "string",
              "name": "daftarPersonalia",
              "type": "string"
            },
            {
              "internalType": "string",
              "name": "daftarPeralatan",
              "type": "string"
            },
            {
              "internalType": "string",
              "name": "eksekutifQualityManagement",
              "type": "string"
            },
            {
              "internalType": "string",
              "name": "suratIzinApoteker",
              "type": "string"
            },
            {
              "internalType": "string",
              "name": "dokumenSelfAssesment",
              "type": "string"
            }
          ],
          "internalType": "struct CdobCertificate.DokumenTeknis",
          "name": "newDokuTeknis",
          "type": "tuple"
        }
      ],
      "name": "renewRequestCdob",
      "outputs": [],
      "stateMutability": "nonpayable",
      "type": "function"
    },
    {
      "inputs": [
        {
          "internalType": "string",
          "name": "certId",
          "type": "string"
        },
        {
          "internalType": "string",
          "name": "pbfName",
          "type": "string"
        },
        {
          "internalType": "string",
          "name": "pbfInstance",
          "type": "string"
        },
        {
          "internalType": "address",
          "name": "pbfAddr",
          "type": "address"
        },
        {
          "internalType": "uint8",
          "name": "tipePermohonan",
          "type": "uint8"
        },
        {
          "components": [
            {
              "internalType": "string",
              "name": "suratPermohonan",
              "type": "string"
            },
            {
              "internalType": "string",
              "name": "buktiPembayaranPajak",
              "type": "string"
            }
          ],
          "internalType": "struct CdobCertificate.DokumenAdministrasi",
          "name": "dokuAdmin",
          "type": "tuple"
        },
        {
          "components": [
            {
              "internalType": "string",
              "name": "suratIzinCdob",
              "type": "string"
            },
            {
              "internalType": "string",
              "name": "denahBangunan",
              "type": "string"
            },
            {
              "internalType": "string",
              "name": "strukturOrganisasi",
              "type": "string"
            },
            {
              "internalType": "string",
              "name": "daftarPersonalia",
              "type": "string"
            },
            {
              "internalType": "string",
              "name": "daftarPeralatan",
              "type": "string"
            },
            {
              "internalType": "string",
              "name": "eksekutifQualityManagement",
              "type": "string"
            },
            {
              "internalType": "string",
              "name": "suratIzinApoteker",
              "type": "string"
            },
            {
              "internalType": "string",
              "name": "dokumenSelfAssesment",
              "type": "string"
            }
          ],
          "internalType": "struct CdobCertificate.DokumenTeknis",
          "name": "dokuTeknis",
          "type": "tuple"
        }
      ],
      "name": "requestCdob",
      "outputs": [],
      "stateMutability": "nonpayable",
      "type": "function"
    },
    {
      "inputs": [
        {
          "internalType": "string",
          "name": "certId",
          "type": "string"
        },
        {
          "internalType": "string",
          "name": "ipfsCert",
          "type": "string"
        },
        {
          "components": [
            {
              "internalType": "string",
              "name": "userName",
              "type": "string"
            },
            {
              "internalType": "string",
              "name": "userInstance",
              "type": "string"
            },
            {
              "internalType": "address",
              "name": "userAddr",
              "type": "address"
            }
          ],
          "internalType": "struct BaseCertificate.UserCert",
          "name": "bpomData",
          "type": "tuple"
        }
      ],
      "name": "updateBpomApproveDetails",
      "outputs": [],
      "stateMutability": "nonpayable",
      "type": "function"
    },
    {
      "inputs": [
        {
          "internalType": "string",
          "name": "certId",
          "type": "string"
        },
        {
          "internalType": "string",
          "name": "ipfsCert",
          "type": "string"
        }
      ],
      "name": "updateBpomExtendCertificateDetails",
      "outputs": [],
      "stateMutability": "nonpayable",
      "type": "function"
    },
    {
      "inputs": [
        {
          "internalType": "string",
          "name": "certId",
          "type": "string"
        },
        {
          "internalType": "string",
          "name": "rejectMsg",
          "type": "string"
        },
        {
          "components": [
            {
              "internalType": "string",
              "name": "userName",
              "type": "string"
            },
            {
              "internalType": "string",
              "name": "userInstance",
              "type": "string"
            },
            {
              "internalType": "address",
              "name": "userAddr",
              "type": "address"
            }
          ],
          "internalType": "struct BaseCertificate.UserCert",
          "name": "bpomData",
          "type": "tuple"
        }
      ],
      "name": "updateBpomRejectDetails",
      "outputs": [],
      "stateMutability": "nonpayable",
      "type": "function"
    },
    {
      "inputs": [
        {
          "internalType": "string",
          "name": "certId",
          "type": "string"
        },
        {
          "internalType": "uint256",
          "name": "expiredTimestamp",
          "type": "uint256"
        }
      ],
      "name": "updateExtendRenewDetails",
      "outputs": [],
      "stateMutability": "nonpayable",
      "type": "function"
    },
    {
      "inputs": [
        {
          "internalType": "string",
          "name": "certId",
          "type": "string"
        }
      ],
      "name": "updateRenewDetails",
      "outputs": [],
      "stateMutability": "nonpayable",
      "type": "function"
    }
  ],
  "bytecode": "0x60808060405234601557614ca2908161001a8239f35b5f80fdfe60806040526004361015610011575f80fd5b5f3560e01c806317e68309146134b757806319859c871461347f5780631acf2500146133465780632b93f7f214612eae5780632e9cf82714612e2a57806334a34f3014612d2c57806343762aa814612c6a578063500619d014612b2e578063682053d91461178c5780636d1aa7d5146115525780636f12c2301461162957806372c17cb91461158d578063761fb19a146115525780637ab09648146114ca5780637e8f8da7146111c65780639740dbed146111175780639aaa5d8b146110dc578063a7226527146104c3578063be2e232514610473578063bf3f80ac14610409578063e9c260d7146103f2578063f14261d21461037a578063f5104ff114610363578063f53ef126146101ab5763fb5fb9a31461012c575f80fd5b346101a75760603660031901126101a7576004356001600160401b0381116101a75761015c903690600401613ae1565b6024356001600160401b0381116101a75761017b903690600401613ae1565b90604435916001600160401b0383116101a75761019f6101a59336906004016135c2565b9161462d565b005b5f80fd5b346101a75760403660031901126101a7576004356001600160401b0381116101a7576101db9036906004016135c2565b6024356001600160401b0381116101a75760206101fd819236906004016135c2565b92604051928184925191829101835e81015f815203019020426002820155608242019081421161034f57600d916005820155600660ff198254161781550181516001600160401b03811161033b57610255825461368f565b601f81116102f6575b50602092601f821160011461029a57928192935f9261028f575b50505f19600383901b1c191660019190911b179055005b015190508380610278565b601f19821693835f52805f20915f5b8681106102de57508360019596106102c6575b505050811b019055005b01515f1960f88460031b161c191690558380806102bc565b919260206001819286850151815501940192016102a9565b825f5260205f20601f830160051c81019160208410610331575b601f0160051c01905b818110610326575061025e565b5f8155600101610319565b9091508190610310565b634e487b7160e01b5f52604160045260245ffd5b634e487b7160e01b5f52601160045260245ffd5b346101a7576101a561037436613b59565b9161429a565b346101a7575f3660031901126101a75760025461039681613d00565b905f805b8282106103b357604051806103af8682613975565b0390f35b6103ea6001916103e46103ce6103c8866137b3565b50613d8b565b60ff8316906103dd828a613d77565b5287613d77565b50613cd8565b91019061039a565b346101a7576101a561040336613b59565b91613efd565b346101a75760203660031901126101a7576004356001600160401b0381116101a75761045f6020806104426103af9436906004016135c2565b604051928184925191829101835e810160018152030190206136c7565b604051918291602083526020830190613617565b346101a75760203660031901126101a7576004356001600160401b0381116101a7576104b76104a96103af9236906004016135c2565b6104b1613df3565b50613e4b565b60405191829182613a3d565b346101a75760603660031901126101a7576004356001600160401b0381116101a7576104f39036906004016135c2565b6024356001600160401b0381116101a7576105129036906004016137e3565b906044356001600160401b0381116101a757610532903690600401613842565b61053b82613be1565b6002549160208101905f5b84811061054f57005b610558816137b3565b5060405161057c8161056e602082018095613c0f565b03601f1981018352826135a1565b51902060405160208101906105a96020828751808a875e81015f838201520301601f1981018352826135a1565b519020146105ba575b600101610546565b60036105c5826137b3565b5001805461ff0019166103001790556105ef60206105e2836137b3565b5060405192838092613c0f565b600481520301902086518051906001600160401b03821161033b57610614835461368f565b601f8111611097575b50602090601f83116001146110315760019392915f9183611026575b50505f19600383901b1c191690831b1781555b0160208701518051906001600160401b03821161033b57819061066f845461368f565b601f8111610fd6575b50602090601f8311600114610f73575f92610f68575b50508160011b915f199060031b1c19161790555b6106b060206105e2836137b3565b600581520301902084518051906001600160401b03821161033b5781906106d7845461368f565b601f8111610f18575b50602090601f8311600114610eb5575f92610eaa575b50508160011b915f199060031b1c19161781555b6001810160208601518051906001600160401b03821161033b578190610730845461368f565b601f8111610e5a575b50602090601f8311600114610df7575f92610dec575b50508160011b915f199060031b1c19161790555b6002810160408601518051906001600160401b03821161033b578190610789845461368f565b601f8111610d9c575b50602090601f8311600114610d39575f92610d2e575b50508160011b915f199060031b1c19161790555b6003810160608601518051906001600160401b03821161033b5781906107e2845461368f565b601f8111610cde575b50602090601f8311600114610c7b575f92610c70575b50508160011b915f199060031b1c19161790555b6004810160808601518051906001600160401b03821161033b57819061083b845461368f565b601f8111610c20575b50602090601f8311600114610bbd575f92610bb2575b50508160011b915f199060031b1c19161790555b6005810160a08601518051906001600160401b03821161033b578190610894845461368f565b601f8111610b62575b50602090601f8311600114610aff575f92610af4575b50508160011b915f199060031b1c19161790555b6006810160c08601518051906001600160401b03821161033b576108eb835461368f565b601f8111610aaf575b50602090601f8311600114610a48576007949392915f9183610a3d575b50508160011b915f199060031b1c19161790555b0160e08501518051906001600160401b03821161033b57610946835461368f565b601f81116109f8575b50602090601f8311600114610991576001949392915f9183610986575b50505f19600383901b1c191690841b1790555b90506105b2565b015190508a8061096c565b90601f19831691845f52815f20925f5b8181106109e05750916001969594929183889593106109c8575b505050811b01905561097f565b01515f1960f88460031b161c191690558a80806109bb565b929360206001819287860151815501950193016109a1565b835f5260205f20601f840160051c81019160208510610a33575b601f0160051c01905b818110610a28575061094f565b5f8155600101610a1b565b9091508190610a12565b015190508b80610911565b90601f19831691845f52815f20925f5b818110610a97575091600193918560079897969410610a7f575b505050811b019055610925565b01515f1960f88460031b161c191690558b8080610a72565b92936020600181928786015181550195019301610a58565b835f5260205f20601f840160051c81019160208510610aea575b601f0160051c01905b818110610adf57506108f4565b5f8155600101610ad2565b9091508190610ac9565b015190508a806108b3565b5f8581528281209350601f198516905b818110610b4a5750908460019594939210610b32575b505050811b0190556108c7565b01515f1960f88460031b161c191690558a8080610b25565b92936020600181928786015181550195019301610b0f565b909150835f5260205f20601f840160051c81019160208510610ba8575b90601f859493920160051c01905b818110610b9a575061089d565b5f8155849350600101610b8d565b9091508190610b7f565b015190508a8061085a565b5f8581528281209350601f198516905b818110610c085750908460019594939210610bf0575b505050811b01905561086e565b01515f1960f88460031b161c191690558a8080610be3565b92936020600181928786015181550195019301610bcd565b909150835f5260205f20601f840160051c81019160208510610c66575b90601f859493920160051c01905b818110610c585750610844565b5f8155849350600101610c4b565b9091508190610c3d565b015190508a80610801565b5f8581528281209350601f198516905b818110610cc65750908460019594939210610cae575b505050811b019055610815565b01515f1960f88460031b161c191690558a8080610ca1565b92936020600181928786015181550195019301610c8b565b909150835f5260205f20601f840160051c81019160208510610d24575b90601f859493920160051c01905b818110610d1657506107eb565b5f8155849350600101610d09565b9091508190610cfb565b015190508a806107a8565b5f8581528281209350601f198516905b818110610d845750908460019594939210610d6c575b505050811b0190556107bc565b01515f1960f88460031b161c191690558a8080610d5f565b92936020600181928786015181550195019301610d49565b909150835f5260205f20601f840160051c81019160208510610de2575b90601f859493920160051c01905b818110610dd45750610792565b5f8155849350600101610dc7565b9091508190610db9565b015190508a8061074f565b5f8581528281209350601f198516905b818110610e425750908460019594939210610e2a575b505050811b019055610763565b01515f1960f88460031b161c191690558a8080610e1d565b92936020600181928786015181550195019301610e07565b909150835f5260205f20601f840160051c81019160208510610ea0575b90601f859493920160051c01905b818110610e925750610739565b5f8155849350600101610e85565b9091508190610e77565b0151905089806106f6565b5f8581528281209350601f198516905b818110610f005750908460019594939210610ee8575b505050811b01815561070a565b01515f1960f88460031b161c19169055898080610edb565b92936020600181928786015181550195019301610ec5565b909150835f5260205f20601f840160051c81019160208510610f5e575b90601f859493920160051c01905b818110610f5057506106e0565b5f8155849350600101610f43565b9091508190610f35565b01519050898061068e565b5f8581528281209350601f198516905b818110610fbe5750908460019594939210610fa6575b505050811b0190556106a2565b01515f1960f88460031b161c19169055898080610f99565b92936020600181928786015181550195019301610f83565b909150835f5260205f20601f840160051c8101916020851061101c575b90601f859493920160051c01905b81811061100e5750610678565b5f8155849350600101611001565b9091508190610ff3565b015190508a80610639565b90601f19831691845f52815f20925f5b81811061107f5750916001959492918387959310611067575b505050811b01815561064c565b01515f1960f88460031b161c191690558a808061105a565b92936020600181928786015181550195019301611041565b835f5260205f20601f840160051c810191602085106110d2575b601f0160051c01905b8181106110c7575061061d565b5f81556001016110ba565b90915081906110b1565b346101a75760203660031901126101a7576004356001600160401b0381116101a7576104b76111126103af9236906004016135c2565b613e4b565b346101a75760403660031901126101a7576004356001600160401b0381116101a7576111479036906004016135c2565b6024354211156111815760208091604051928184925191829101835e5f90820190815203019020426006820155805460ff19166005179055005b60405162461bcd60e51b815260206004820152601860248201527f536572746966696b6174206d61736968206265726c616b7500000000000000006044820152606490fd5b346101a75760203660031901126101a7576004356001600160401b0381116101a7576111f69036906004016135c2565b6111fe613bc1565b5060405161120b8161354e565b606081526020016060905260405161122281613569565b60608152602081016060905260408101606090526060810160609052608081016060905260a081016060905260c081016060905260e00160609052604051908051918060208301938085835e810160038152036020019020916040518083518084835e81016004815203602001902091604051918291518091835e810160058152036020019020604051916112b683613518565b6112bf846136c7565b83526112cd600185016136c7565b93602084019485526002015460ff169160408401928352604051916112f18361354e565b6112fa816136c7565b8352600101611308906136c7565b602083019081526040519361131c85613569565b611325836136c7565b8552611333600184016136c7565b60208601908152611346600285016136c7565b60408701908152611359600386016136c7565b606088019081529161136d600487016136c7565b6080890190815293611381600588016136c7565b60a08a0190815295611395600689016136c7565b9760c08b019889526007016113a9906136c7565b9860e08b01998a526040519c8d9c60608e52518d606081016060905260c0016113d191613617565b90518d8203605f190160808f01526113e99190613617565b925160ff1660a08d01528b830360208d015251604083526040830161140d91613617565b905191808203906020015261142191613617565b9789890360408b0152516101008952610100890161143e91613617565b90519088810360208a015261145291613617565b905190878103604089015261146691613617565b905190868103606088015261147a91613617565b905190858103608087015261148e91613617565b90519084810360a08601526114a291613617565b90519083810360c08501526114b691613617565b9051918082039060e001526103af91613617565b346101a75760203660031901126101a7576004356001600160401b0381116101a7576020806115006115449336906004016135c2565b604051928184925191829101835e810160048152030190206103af6115306001611529846136c7565b93016136c7565b604051938493604085526040850190613617565b908382036020850152613617565b346101a75760203660031901126101a7576004356001600160401b0381116101a75761045f6115886103af9236906004016135c2565b613cb5565b346101a75760203660031901126101a7576004356001600160401b0381116101a7576020806115c36116119336906004016135c2565b604051928184925191829101835e810160038152030190206115e4816136c7565b9061161f60ff60026115f8600185016136c7565b9301541691604051948594606086526060860190613617565b908482036020860152613617565b9060408301520390f35b346101a75760203660031901126101a7576004356001600160401b0381116101a7576116599036906004016135c2565b60025460208201915f805b838110611729575060ff6116789116613d00565b925f915f5b84811061169257604051806103af8882613975565b600261056e6116b76116a3846137b3565b506040519283916020830195869101613c0f565b51902060405160208101906116e46020828751808a875e81015f838201520301601f1981018352826135a1565b519020146116f5575b60010161167d565b926117216001916103e461170b6103c8886137b3565b60ff83169061171a828c613d77565b5289613d77565b9390506116ed565b600261056e61173a6116a3846137b3565b51902060405160208101906117676020828851808c875e81015f838201520301601f1981018352826135a1565b51902014611778575b600101611664565b90611784600191613cd8565b919050611770565b346101a75760e03660031901126101a7576004356001600160401b0381116101a7576117bc9036906004016135c2565b6024356001600160401b0381116101a7576117db9036906004016135c2565b6044356001600160401b0381116101a7576117fa9036906004016135c2565b916064356001600160a01b03811681036101a7576084359160ff83168093036101a75760a4356001600160401b0381116101a75761183c9036906004016137e3565b9160c435906001600160401b0382116101a75786611861611867933690600401613842565b96613c79565b946118b7826020976040519061187d8a836135a1565b5f825260405161188d8b826135a1565b5f8152611898613bc1565b50604051926118a684613518565b83528a8301525f604083015261462d565b604051936118c485613518565b828552604051946118d588876135a1565b5f865287810195865260408101828152604051968551978a818189019a808c835e8101600381520301902092518051906001600160401b03821161033b5781908c611920875461368f565b601f8111612add575b50508c908d601f8411600114612a7957505f92612a6e575b50508160011b915f199060031b1c19161783555b51805160018401916001600160401b03821161033b578b611976845461368f565b601f8111612a29575b50508b908c601f84116001146129bd5750928260ff95929386946002965f926129b2575b50508160011b915f199060031b1c19161790555b51169201911660ff198254161790556040516119d281613533565b838152604051926119e389856135a1565b5f8452888201938452604082019081526060820192835260808201905f825260405194611a108b876135a1565b5f865260a084019586526002546801000000000000000081101561033b57806001611a3e92016002556137b3565b94909461299f57518051906001600160401b03821161033b578c8291611a64885461368f565b601f8111612947575b5081601f84116001146128e357505f926128d8575b50508160011b915f199060031b1c19161784555b51805160018501916001600160401b03821161033b578c8291611ab9855461368f565b601f8111612880575b5081601f841160011461281c57505f92612811575b50508160011b915f199060031b1c19161790555b51805160028401916001600160401b03821161033b5781908c611b0e855461368f565b601f81116127c0575b50508c908d601f841160011461275c57505f92612751575b50508160011b915f199060031b1c19161790555b60ff80600384019451161660ff198454161783555191600783101561273d5760049261ff0082549160081b169061ff0019161790550190518051906001600160401b03821161033b578190611b98845461368f565b601f81116126ef575b508890601f831160011461268c575f92612681575b50508160011b915f199060031b1c19161790555b604051858183518087835e8101600481520301902082519081516001600160401b03811161033b578792611bfe835461368f565b601f811161262f575b508390601f83116001146125c95760019392915f91836125be575b50505f19600383901b1c191690831b1781555b019201519182516001600160401b03811161033b578693611c56835461368f565b601f811161256a575b5081908590601f8311600114612507575f926124fc575b50508160011b915f199060031b1c19161790555b604051928391518091835e810160058152030190209080519182516001600160401b03811161033b57611cbd825461368f565b601f81116124b9575b508493601f82116001146124595793819293945f9261244e575b50508160011b915f199060031b1c19161781555b60018101838301518051906001600160401b03821161033b578190611d19845461368f565b601f8111612400575b508690601f831160011461239d575f92612392575b50508160011b915f199060031b1c19161790555b6002810160408301518051906001600160401b03821161033b578190611d71845461368f565b601f8111612344575b508690601f83116001146122e1575f926122d6575b50508160011b915f199060031b1c19161790555b6003810160608301518051906001600160401b03821161033b578190611dc9845461368f565b601f8111612288575b508690601f8311600114612225575f9261221a575b50508160011b915f199060031b1c19161790555b6004810160808301518051906001600160401b03821161033b578190611e21845461368f565b601f81116121cc575b508690601f8311600114612169575f9261215e575b50508160011b915f199060031b1c19161790555b6005810160a08301518051906001600160401b03821161033b578190611e79845461368f565b601f8111612110575b508690601f83116001146120ad575f926120a2575b50508160011b915f199060031b1c19161790555b6006810160c08301518051906001600160401b03821161033b57611ecf835461368f565b601f811161205f575b508590601f8311600114611ff65791806007949260e096945f92611feb575b50508160011b915f199060031b1c19161790555b01910151918251906001600160401b03821161033b57611f2b835461368f565b601f8111611fa8575b5080601f8311600114611f6257508192935f9261028f5750505f19600383901b1c191660019190911b179055005b90601f19831694845f52825f20925f905b878210611f905750508360019596106102c657505050811b019055005b80600185968294968601518155019501930190611f73565b835f52815f20601f840160051c810191838510611fe1575b601f0160051c01905b818110611fd65750611f34565b5f8155600101611fc9565b9091508190611fc0565b015190508880611ef7565b90601f19831691845f52875f20925f5b8982821061204957505092600192859260e098966007989610612031575b505050811b019055611f0b565b01515f1960f88460031b161c19169055888080612024565b6001859682939686015181550195019301612006565b835f52865f20601f840160051c810191888510612098575b601f0160051c01905b81811061208d5750611ed8565b5f8155600101612080565b9091508190612077565b015190508680611e97565b5f8581528881209350601f198516905b898282106120fa5750509084600195949392106120e2575b505050811b019055611eab565b01515f1960f88460031b161c191690558680806120d5565b60018596829396860151815501950193016120bd565b909150835f52865f20601f840160051c810191888510612154575b90601f859493920160051c01905b8181106121465750611e82565b5f8155849350600101612139565b909150819061212b565b015190508680611e3f565b5f8581528881209350601f198516905b898282106121b657505090846001959493921061219e575b505050811b019055611e53565b01515f1960f88460031b161c19169055868080612191565b6001859682939686015181550195019301612179565b909150835f52865f20601f840160051c810191888510612210575b90601f859493920160051c01905b8181106122025750611e2a565b5f81558493506001016121f5565b90915081906121e7565b015190508680611de7565b5f8581528881209350601f198516905b8982821061227257505090846001959493921061225a575b505050811b019055611dfb565b01515f1960f88460031b161c1916905586808061224d565b6001859682939686015181550195019301612235565b909150835f52865f20601f840160051c8101918885106122cc575b90601f859493920160051c01905b8181106122be5750611dd2565b5f81558493506001016122b1565b90915081906122a3565b015190508680611d8f565b5f8581528881209350601f198516905b8982821061232e575050908460019594939210612316575b505050811b019055611da3565b01515f1960f88460031b161c19169055868080612309565b60018596829396860151815501950193016122f1565b909150835f52865f20601f840160051c810191888510612388575b90601f859493920160051c01905b81811061237a5750611d7a565b5f815584935060010161236d565b909150819061235f565b015190508680611d37565b5f8581528881209350601f198516905b898282106123ea5750509084600195949392106123d2575b505050811b019055611d4b565b01515f1960f88460031b161c191690558680806123c5565b60018596829396860151815501950193016123ad565b909150835f52865f20601f840160051c810191888510612444575b90601f859493920160051c01905b8181106124365750611d22565b5f8155849350600101612429565b909150819061241b565b015190508580611ce0565b601f19821694835f52865f20915f5b888882106124a35750508360019596971061248b575b505050811b018155611cf4565b01515f1960f88460031b161c1916905585808061247e565b6001849582939585015181550194019201612468565b825f52855f20601f830160051c8101918784106124f2575b601f0160051c01905b8181106124e75750611cc6565b5f81556001016124da565b90915081906124d1565b015190508880611c76565b5f8581528781209350601f198516905b8882821061255457505090846001959493921061253c575b505050811b019055611c8a565b01515f1960f88460031b161c1916905588808061252f565b6001859682939686015181550195019301612517565b909192809495505f52875f20601f840160051c8101918985106125b4575b90601f8a9796959493920160051c01905b8181106125a65750611c5f565b5f8155899650600101612599565b9091508190612588565b015190508a80611c22565b90601f19831691845f52855f20925f5b87828210612619575050916001959492918387959310612601575b505050811b018155611c35565b01515f1960f88460031b161c191690558a80806125f4565b60018596829396860151815501950193016125d9565b9091928094505f52885f20601f840160051c8101918a8510612677575b90601f8b96959493920160051c01905b8181106126695750611c07565b5f81558a955060010161265c565b909150819061264c565b015190508880611bb6565b5f8581528a81209350601f198516905b8b8282106126d95750509084600195949392106126c1575b505050811b019055611bca565b01515f1960f88460031b161c191690558880806126b4565b600185968293968601518155019501930161269c565b909150835f52885f20601f840160051c8101918a8510612733575b90601f859493920160051c01905b8181106127255750611ba1565b5f8155849350600101612718565b909150819061270a565b634e487b7160e01b5f52602160045260245ffd5b015190508c80611b2f565b5f8681528181209450601f198616915b8282106127a8575050908460019594939210612790575b505050811b019055611b43565b01515f1960f88460031b161c191690558c8080612783565b8060018697829497870151815501960194019061276c565b90919250845f52815f2090601f850160051c8201928510612807575b90601f859493920160051c01905b8181106127f9578e9150611b17565b5f81558493506001016127ea565b90915081906127dc565b015190508d80611ad7565b5f8681528181209450601f198616915b828210612868575050908460019594939210612850575b505050811b019055611aeb565b01515f1960f88460031b161c191690558d8080612843565b8060018697829497870151815501960194019061282c565b909250845f52815f2090601f850160051c82019285106128ce575b918f9291601f8695930160051c01905b8181106128b85750611ac2565b90925060019193505f815501918e9184936128ab565b909150819061289b565b015190508d80611a82565b5f8981528181209450601f198616915b82821061292f575050908460019594939210612917575b505050811b018455611a96565b01515f1960f88460031b161c191690558d808061290a565b806001869782949787015181550196019401906128f3565b909250875f52815f2090601f850160051c8201928510612995575b918f9291601f8695930160051c01905b81811061297f5750611a6d565b90925060019193505f815501918e918493612972565b9091508190612962565b634e487b7160e01b5f525f60045260245ffd5b015190508f806119a3565b9190601f198416855f52835f20935f905b828210612a115750509360ff969360029693600193838a98106129f9575b505050811b0190556119b7565b01515f1960f88460031b161c191690558f80806129ec565b806001869782949787015181550196019401906129ce565b845f52815f2090601f850160051c8201928510612a64575b601f0160051c01905b818110612a59578d915061197f565b5f8155600101612a4a565b9091508190612a41565b015190508c80611941565b5f8881528181209450601f198616915b828210612ac5575050908460019594939210612aad575b505050811b018355611955565b01515f1960f88460031b161c191690558c8080612aa0565b80600186978294978701518155019601940190612a89565b90919250865f52815f2090601f850160051c8201928510612b24575b90601f859493920160051c01905b818110612b16578e9150611929565b5f8155849350600101612b07565b9091508190612af9565b346101a75760203660031901126101a7576004356001600160401b0381116101a757612b5e9036906004016135c2565b604051818192516020819201835e810160058152036020019020612b81816136c7565b612b8d600183016136c7565b91612b9a600282016136c7565b90612ba7600382016136c7565b612bb3600483016136c7565b612bbf600584016136c7565b91612bcc600685016136c7565b93600701612bd9906136c7565b9460405197889761010089526101008901612bf391613617565b88810360208a0152612c0491613617565b8781036040890152612c1591613617565b8681036060880152612c2691613617565b8581036080870152612c3791613617565b84810360a0860152612c4891613617565b83810360c0850152612c5991613617565b82810360e08401526103af91613617565b346101a75760203660031901126101a7576004356002548110156101a757612c94612ce9916137b3565b506103af612ca1826136c7565b91612cae600182016136c7565b612d1f612d05612cc0600285016136c7565b612cf7612cd46004600388015497016136c7565b94604051998a9960c08b5260c08b0190613617565b9089820360208b0152613617565b908782036040890152613617565b9260ff8116606087015260ff608087019160081c166137a6565b83820360a0850152613617565b346101a75760203660031901126101a7576004356001600160401b0381116101a757602080612d62612ddb9336906004016135c2565b604051928184925191829101835e81015f8152030190206103af60ff82541691612e1b600182015491612e0c600282015460038301546004840154600585015490600686015492612db560078801613767565b94612dce600d612dc7600a8b01613767565b99016136c7565b996040519d8e809e6137a6565b60208d015260408c015260608b015260808a015260a089015260c088015261014060e088015261014087019061363b565b9085820361010087015261363b565b90838203610120850152613617565b346101a75760603660031901126101a7576004356001600160401b0381116101a757612e5a9036906004016135c2565b6024356001600160401b0381116101a757612e799036906004016135c2565b906044356001600160a01b03811681036101a7576103af92612e9a92613c79565b60405191829160208352602083019061363b565b346101a75760c03660031901126101a7576004356001600160401b0381116101a757612ede9036906004016135c2565b6024356001600160401b0381116101a757612efd9036906004016135c2565b6044356001600160401b0381116101a757612f1c9036906004016135c2565b6064356001600160401b0381116101a757612f3b9036906004016135c2565b612f43613679565b60a435916001600160401b0383116101a757612f66612f6c9336906004016135c2565b93613c79565b604051906001845192602081818801958087835e810160038152030190200185516001600160401b03811161033b57612fa5825461368f565b601f8111613301575b506020601f821160011461329a579080612fe59493925f9161328f575b508160011b915f199060031b1c19161790555b838561429a565b600254925f5b848110612ff457005b612ffd816137b3565b506040516130138161056e602082018095613c0f565b51902060405160208101906130406020828751808a875e81015f838201520301601f1981018352826135a1565b51902014613051575b600101612feb565b600161305c826137b3565b500186516001600160401b03811161033b57613078825461368f565b601f811161324a575b50806020601f82116001146131e7575f916131dc575b508160011b915f199060031b1c19161790555b60036130b5826137b3565b5001805461ff00191661010017905560046130cf826137b3565b500184516001600160401b03811161033b576130eb825461368f565b601f8111613197575b506020601f821160011461313457908060019493925f91613129575b505f19600383901b1c191690841b1790555b9050613049565b90508701518a613110565b601f19821690835f52805f20915f5b81811061317f57509183916001969594879410613167575b5050811b019055613122565b8901515f1960f88460031b161c191690558a8061315b565b9192602060018192868d015181550194019201613143565b825f5260205f20601f830160051c810191602084106131d2575b601f0160051c01905b8181106131c757506130f4565b5f81556001016131ba565b90915081906131b1565b905088015189613097565b5f8481528181209250601f198416905b8b828210613232575050908360019493921061321a575b5050811b0190556130aa565b8a01515f1960f88460031b161c19169055898061320e565b600184956020939584930151815501940192016131f7565b825f5260205f20601f830160051c81019160208410613285575b601f0160051c01905b81811061327a5750613081565b5f815560010161326d565b9091508190613264565b905088015189612fcb565b601f19821690835f52805f20915f5b8a8282106132e9575050918391612fe5969594600194106132d1575b5050811b019055612fde565b8a01515f1960f88460031b161c1916905589806132c5565b600184956020939584930151815501940192016132a9565b825f5260205f20601f830160051c8101916020841061333c575b601f0160051c01905b8181106133315750612fae565b5f8155600101613324565b909150819061331b565b346101a75760a03660031901126101a7576004356001600160401b0381116101a7576133769036906004016135c2565b6024356001600160401b0381116101a7576133959036906004016135c2565b6044356001600160401b0381116101a7576133b49036906004016135c2565b906064356001600160401b0381116101a7576133f0926133db6133e99236906004016135c2565b6133e3613679565b91613c79565b9083613efd565b600254602082015f5b82811061340257005b8061340e6001926137b3565b506040516134248161056e602082018095613c0f565b51902060405160208101906134516020828a51808a875e81015f838201520301601f1981018352826135a1565b51902014613460575b016133f9565b600361346b826137b3565b5001805461ff00191661020017905561345a565b346101a75760203660031901126101a7576004356001600160401b0381116101a7576134b26101a59136906004016135c2565b613be1565b346101a75760203660031901126101a7576004356001600160401b0381116101a757612e9a60076020806134f26103af9536906004016135c2565b6134fa613bc1565b50604051928184925191829101835e81015f81520301902001613767565b606081019081106001600160401b0382111761033b57604052565b60c081019081106001600160401b0382111761033b57604052565b604081019081106001600160401b0382111761033b57604052565b61010081019081106001600160401b0382111761033b57604052565b61014081019081106001600160401b0382111761033b57604052565b90601f801991011681019081106001600160401b0382111761033b57604052565b81601f820112156101a7578035906001600160401b03821161033b57604051926135f6601f8401601f1916602001856135a1565b828452602083830101116101a757815f926020809301838601378301015290565b805180835260209291819084018484015e5f828201840152601f01601f1916010190565b9060406136666136548451606085526060850190613617565b60208501518482036020860152613617565b928101516001600160a01b031691015290565b608435906001600160a01b03821682036101a757565b90600182811c921680156136bd575b60208310146136a957565b634e487b7160e01b5f52602260045260245ffd5b91607f169161369e565b9060405191825f8254926136da8461368f565b80845293600181169081156137455750600114613701575b506136ff925003836135a1565b565b90505f9291925260205f20905f915b8183106137295750509060206136ff928201015f6136f2565b6020919350806001915483858901015201910190918492613710565b9050602092506136ff94915060ff191682840152151560051b8201015f6136f2565b9060405161377481613518565b60408193613781816136c7565b835261378f600182016136c7565b6020840152600201546001600160a01b0316910152565b90600782101561273d5752565b6002548110156137cf5760025f52600560205f20910201905f90565b634e487b7160e01b5f52603260045260245ffd5b91906040838203126101a757604051906137fc8261354e565b819380356001600160401b0381116101a7578261381a9183016135c2565b83526020810135916001600160401b0383116101a75760209261383d92016135c2565b910152565b9190610100838203126101a7576040519061385c82613569565b819380356001600160401b0381116101a7578261387a9183016135c2565b835260208101356001600160401b0381116101a7578261389b9183016135c2565b602084015260408101356001600160401b0381116101a757826138bf9183016135c2565b604084015260608101356001600160401b0381116101a757826138e39183016135c2565b606084015260808101356001600160401b0381116101a757826139079183016135c2565b608084015260a08101356001600160401b0381116101a7578261392b9183016135c2565b60a084015260c08101356001600160401b0381116101a7578261394f9183016135c2565b60c084015260e0810135916001600160401b0383116101a75760e09261383d92016135c2565b602081016020825282518091526040820191602060408360051b8301019401925f915b8383106139a757505050505090565b9091929394602080613a2e600193603f1986820301875289519060a06139fe6139ec6139dc855160c0865260c0860190613617565b8786015185820389870152613617565b60408501518482036040860152613617565b9260ff6060820151166060840152613a1e608082015160808501906137a6565b01519060a0818403910152613617565b97019301930191939290613998565b90613ade9160208152613a546020820183516137a6565b602082015160408201526040820151606082015260608201516080820152608082015160a082015260a082015160c082015260c082015160e0820152610120613ac8613ab260e085015161014061010086015261016085019061363b565b610100850151848203601f19018486015261363b565b92015190610140601f1982850301910152613617565b90565b91906060838203126101a75760405190613afa82613518565b819380356001600160401b0381116101a75782613b189183016135c2565b835260208101356001600160401b0381116101a757604092613b3b9183016135c2565b60208401520135906001600160a01b03821682036101a75760400152565b60606003198201126101a7576004356001600160401b0381116101a75781613b83916004016135c2565b916024356001600160401b0381116101a75782613ba2916004016135c2565b91604435906001600160401b0382116101a757613ade91600401613ae1565b60405190613bce82613518565b5f60408360608152606060208201520152565b60208091604051928184925191829101835e81015f815203019020426004820155600360ff19825416179055565b5f9291815491613c1e8361368f565b9260018116908115613c665750600114613c3757505050565b90919293505f5260205f205f905b838210613c525750500190565b600181602092548486015201910190613c45565b60ff191683525050811515909102019150565b9190613c83613bc1565b5060405192613c9184613518565b835260208301526001600160a01b0316604082015290565b600782101561273d5752565b6040518151613ade92602091839181908401835e810160018152030190206136c7565b60ff1660ff811461034f5760010190565b6001600160401b03811161033b5760051b60200190565b90613d0a82613ce9565b613d1760405191826135a1565b8281528092613d28601f1991613ce9565b01905f5b828110613d3857505050565b602090604051613d4781613533565b60608152606083820152606060408201525f60608201525f6080820152606060a082015282828501015201613d2c565b80518210156137cf5760209160051b010190565b90604051613d9881613533565b60a061383d60048395613daa816136c7565b8552613db8600182016136c7565b6020860152613dc9600282016136c7565b6040860152613ded60ff6003830154818116606089015260081c1660808701613ca9565b016136c7565b60405190613e0082613585565b6060610120835f81525f60208201525f60408201525f838201525f60808201525f60a08201525f60c0820152613e34613bc1565b60e0820152613e41613bc1565b6101008201520152565b60208091613e57613df3565b50604051928184925191829101835e81015f815203019020613ef4600d60405192613e8184613585565b613e8f60ff82541685613ca9565b60018101546020850152600281015460408501526003810154606085015260048101546080850152600581015460a0850152600681015460c0850152613ed760078201613767565b60e0850152613ee8600a8201613767565b610100850152016136c7565b61012082015290565b92919060405160208551918181818901948086835e81015f81520301902095604051928391518091835e81016001815203019020908051906001600160401b03821161033b578190613f4f845461368f565b601f811161424a575b50602090601f83116001146141e7575f926141dc575b50508160011b915f199060031b1c19161790555b80518051600a8501916001600160401b03821161033b57613fa3835461368f565b601f8111614197575b50602090601f8311600114614130576020949392915f9183614125575b50508160011b915f199060031b1c19161790555b6040810151600c850180546001600160a01b0319166001600160a01b039290921691909117905501518051909290600b8201906001600160401b03811161033b57614028825461368f565b601f81116140e0575b50602094601f821160011461407f579481929394955f92614074575b50508160011b915f199060031b1c19161790555b426003820155805460ff19166002179055565b015190505f8061404d565b601f19821695835f52805f20915f5b8881106140c8575083600195969798106140b0575b505050811b019055614061565b01515f1960f88460031b161c191690555f80806140a3565b9192602060018192868501518155019401920161408e565b825f5260205f20601f830160051c8101916020841061411b575b601f0160051c01905b8181106141105750614031565b5f8155600101614103565b90915081906140fa565b015190505f80613fc9565b90601f19831691845f52815f20925f5b81811061417f575091600193918560209897969410614167575b505050811b019055613fdd565b01515f1960f88460031b161c191690555f808061415a565b92936020600181928786015181550195019301614140565b835f5260205f20601f840160051c810191602085106141d2575b601f0160051c01905b8181106141c75750613fac565b5f81556001016141ba565b90915081906141b1565b015190505f80613f6e565b5f8581528281209350601f198516905b818110614232575090846001959493921061421a575b505050811b019055613f82565b01515f1960f88460031b161c191690555f808061420d565b929360206001819287860151815501950193016141f7565b909150835f5260205f20601f840160051c81019160208510614290575b90601f859493920160051c01905b8181106142825750613f58565b5f8155849350600101614275565b9091508190614267565b6020809194939294604051928184925191829101835e81015f815203019020908051600a8301908051906001600160401b03821161033b576142dc835461368f565b601f81116145e8575b50602090601f8311600114614581576020949392915f9183614576575b50508160011b915f199060031b1c19161790555b6040810151600c840180546001600160a01b0319166001600160a01b039290921691909117905501518051600b8301916001600160401b03821161033b578190614360845461368f565b601f8111614526575b50602090601f83116001146144c3575f926144b8575b50508160011b915f199060031b1c19161790555b426002820155608242019081421161034f57600d916005820155600160ff198254161781550182516001600160401b03811161033b576143d3825461368f565b601f8111614473575b506020601f821160011461441557819293945f9261440a575b50508160011b915f199060031b1c1916179055565b015190505f806143f5565b601f19821690835f52805f20915f5b81811061445b57509583600195969710614443575b505050811b019055565b01515f1960f88460031b161c191690555f8080614439565b9192602060018192868b015181550194019201614424565b825f5260205f20601f830160051c810191602084106144ae575b601f0160051c01905b8181106144a357506143dc565b5f8155600101614496565b909150819061448d565b015190505f8061437f565b5f8581528281209350601f198516905b81811061450e57509084600195949392106144f6575b505050811b019055614393565b01515f1960f88460031b161c191690555f80806144e9565b929360206001819287860151815501950193016144d3565b909150835f5260205f20601f840160051c8101916020851061456c575b90601f859493920160051c01905b81811061455e5750614369565b5f8155849350600101614551565b9091508190614543565b015190505f80614302565b90601f19831691845f52815f20925f5b8181106145d05750916001939185602098979694106145b8575b505050811b019055614316565b01515f1960f88460031b161c191690555f80806145ab565b92936020600181928786015181550195019301614591565b835f5260205f20601f840160051c81019160208510614623575b601f0160051c01905b81811061461857506142e5565b5f815560010161460b565b9091508190614602565b92909160405161463c81613585565b5f81526020810194428652604082015f8152606083015f8152608084015f815260a08501915f835260c08601935f855260e087019586526101008701998a5260209a8b806040519a61468e828d6135a1565b5f8c526101208b019b8c52604051928184925191829101835e81015f8152030190209751600781101561273d5760ff80198a541691161788555160018801555160028701555160038601555160048501555160058401555160068301556007820190519081518051906001600160401b03821161033b578190614711845461368f565b601f8111614c1e575b508990601f8311600114614bbb575f92614bb0575b50508160011b915f199060031b1c19161790555b60088201868201518051906001600160401b03821161033b578190614768845461368f565b601f8111614b62575b508990601f8311600114614aff575f92614af4575b50508160011b915f199060031b1c19161790555b604001516009820180546001600160a01b0319166001600160a01b0392909216919091179055925180518051919491600a8301916001600160401b03821161033b5781906147e8845461368f565b601f8111614aa6575b508890601f8311600114614a43575f92614a38575b50508160011b915f199060031b1c19161790555b600b81019385810151948551956001600160401b03871161033b5761483f825461368f565b601f81116149f5575b508790601f881160011461498e57968091600d9697985f92614983575b50508160011b915f199060031b1c19161790555b60400151600c820180546001600160a01b0319166001600160a01b03929092169190911790559151805190949190920191906001600160401b03821161033b576148c3835461368f565b601f8111614940575b5080601f83116001146148f95750819293945f9261440a5750508160011b915f199060031b1c1916179055565b90601f19831695845f52825f20925f905b8882106149285750508360019596971061444357505050811b019055565b8060018596829496860151815501950193019061490a565b835f52815f20601f840160051c810191838510614979575b601f0160051c01905b81811061496e57506148cc565b5f8155600101614961565b9091508190614958565b015190505f80614865565b90601f19881691835f52895f20925f5b8b8282106149df57505091600193918a600d999a9b94106149c7575b505050811b019055614879565b01515f1960f88460031b161c191690555f80806149ba565b600185968293968601518155019501930161499e565b825f52885f20601f890160051c8101918a8a10614a2e575b601f0160051c01905b818110614a235750614848565b5f8155600101614a16565b9091508190614a0d565b015190505f80614806565b5f8581528a81209350601f198516905b8b828210614a90575050908460019594939210614a78575b505050811b01905561481a565b01515f1960f88460031b161c191690555f8080614a6b565b6001859682939686015181550195019301614a53565b909150835f52885f20601f840160051c8101918a8510614aea575b90601f859493920160051c01905b818110614adc57506147f1565b5f8155849350600101614acf565b9091508190614ac1565b015190505f80614786565b5f8581528b81209350601f198516905b8c828210614b4c575050908460019594939210614b34575b505050811b01905561479a565b01515f1960f88460031b161c191690555f8080614b27565b6001859682939686015181550195019301614b0f565b909150835f52895f20601f840160051c8101918b8510614ba6575b90601f859493920160051c01905b818110614b985750614771565b5f8155849350600101614b8b565b9091508190614b7d565b015190505f8061472f565b5f8581528b81209350601f198516905b8c828210614c08575050908460019594939210614bf0575b505050811b019055614743565b01515f1960f88460031b161c191690555f8080614be3565b6001859682939686015181550195019301614bcb565b909150835f52895f20601f840160051c8101918b8510614c62575b90601f859493920160051c01905b818110614c54575061471a565b5f8155849350600101614c47565b9091508190614c3956fea2646970667358221220744df9ceda998903ca0c150cad5f72fc13ecc4a475aac7ac62374da62502d93c64736f6c634300081b0033",
  "linkReferences": {},
  "deployedLinkReferences": {}
}