{
  "_format": "hh-sol-artifact-1",
  "contractName": "CdobCertificate",
  "sourceName": "contracts/CdobCertificate.sol",
  "abi": [
    {
      "inputs": [
        {
          "internalType": "uint256",
          "name": "",
          "type": "uint256"
        }
      ],
      "name": "allCdobData",
      "outputs": [
        {
          "internalType": "string",
          "name": "certId",
          "type": "string"
        },
        {
          "internalType": "string",
          "name": "certNumber",
          "type": "string"
        },
        {
          "internalType": "string",
          "name": "instanceName",
          "type": "string"
        },
        {
          "internalType": "uint8",
          "name": "tipePermohonan",
          "type": "uint8"
        },
        {
          "internalType": "enum EnumsLibrary.StatusCertificate",
          "name": "status",
          "type": "uint8"
        },
        {
          "internalType": "string",
          "name": "certHash",
          "type": "string"
        }
      ],
      "stateMutability": "view",
      "type": "function"
    },
    {
      "inputs": [
        {
          "internalType": "string",
          "name": "_certNumber",
          "type": "string"
        },
        {
          "internalType": "string",
          "name": "_certId",
          "type": "string"
        },
        {
          "internalType": "string",
          "name": "_bpomName",
          "type": "string"
        },
        {
          "internalType": "string",
          "name": "_bpomInstance",
          "type": "string"
        },
        {
          "internalType": "address",
          "name": "_bpomAddr",
          "type": "address"
        },
        {
          "internalType": "string",
          "name": "_ipfsCert",
          "type": "string"
        }
      ],
      "name": "approveCdob",
      "outputs": [],
      "stateMutability": "nonpayable",
      "type": "function"
    },
    {
      "inputs": [
        {
          "internalType": "string",
          "name": "",
          "type": "string"
        }
      ],
      "name": "cdobDataById",
      "outputs": [
        {
          "internalType": "string",
          "name": "cdobId",
          "type": "string"
        },
        {
          "internalType": "string",
          "name": "cdobNumber",
          "type": "string"
        },
        {
          "internalType": "uint8",
          "name": "tipePermohonan",
          "type": "uint8"
        }
      ],
      "stateMutability": "view",
      "type": "function"
    },
    {
      "inputs": [
        {
          "internalType": "string",
          "name": "",
          "type": "string"
        }
      ],
      "name": "certDetailsById",
      "outputs": [
        {
          "internalType": "enum EnumsLibrary.StatusCertificate",
          "name": "status",
          "type": "uint8"
        },
        {
          "internalType": "uint256",
          "name": "timestampRequest",
          "type": "uint256"
        },
        {
          "internalType": "uint256",
          "name": "timestampApprove",
          "type": "uint256"
        },
        {
          "internalType": "uint256",
          "name": "timestampRejected",
          "type": "uint256"
        },
        {
          "internalType": "uint256",
          "name": "timestsmpRenewRequest",
          "type": "uint256"
        },
        {
          "components": [
            {
              "internalType": "string",
              "name": "userName",
              "type": "string"
            },
            {
              "internalType": "string",
              "name": "userInstance",
              "type": "string"
            },
            {
              "internalType": "address",
              "name": "userAddr",
              "type": "address"
            }
          ],
          "internalType": "struct BaseCertificate.st_userCertificate",
          "name": "sender",
          "type": "tuple"
        },
        {
          "components": [
            {
              "internalType": "string",
              "name": "userName",
              "type": "string"
            },
            {
              "internalType": "string",
              "name": "userInstance",
              "type": "string"
            },
            {
              "internalType": "address",
              "name": "userAddr",
              "type": "address"
            }
          ],
          "internalType": "struct BaseCertificate.st_userCertificate",
          "name": "bpom",
          "type": "tuple"
        },
        {
          "internalType": "string",
          "name": "ipfsCert",
          "type": "string"
        }
      ],
      "stateMutability": "view",
      "type": "function"
    },
    {
      "inputs": [
        {
          "components": [
            {
              "internalType": "string",
              "name": "userName",
              "type": "string"
            },
            {
              "internalType": "string",
              "name": "userInstance",
              "type": "string"
            },
            {
              "internalType": "address",
              "name": "userAddr",
              "type": "address"
            }
          ],
          "internalType": "struct BaseCertificate.st_userCertificate",
          "name": "_sender",
          "type": "tuple"
        },
        {
          "components": [
            {
              "internalType": "string",
              "name": "userName",
              "type": "string"
            },
            {
              "internalType": "string",
              "name": "userInstance",
              "type": "string"
            },
            {
              "internalType": "address",
              "name": "userAddr",
              "type": "address"
            }
          ],
          "internalType": "struct BaseCertificate.st_userCertificate",
          "name": "_bpom",
          "type": "tuple"
        },
        {
          "internalType": "string",
          "name": "_certId",
          "type": "string"
        }
      ],
      "name": "createCertificateDetails",
      "outputs": [],
      "stateMutability": "nonpayable",
      "type": "function"
    },
    {
      "inputs": [
        {
          "internalType": "string",
          "name": "_userName",
          "type": "string"
        },
        {
          "internalType": "string",
          "name": "_userInstance",
          "type": "string"
        },
        {
          "internalType": "address",
          "name": "_userAddr",
          "type": "address"
        }
      ],
      "name": "createUserCertificate",
      "outputs": [
        {
          "components": [
            {
              "internalType": "string",
              "name": "userName",
              "type": "string"
            },
            {
              "internalType": "string",
              "name": "userInstance",
              "type": "string"
            },
            {
              "internalType": "address",
              "name": "userAddr",
              "type": "address"
            }
          ],
          "internalType": "struct BaseCertificate.st_userCertificate",
          "name": "",
          "type": "tuple"
        }
      ],
      "stateMutability": "pure",
      "type": "function"
    },
    {
      "inputs": [
        {
          "internalType": "string",
          "name": "",
          "type": "string"
        }
      ],
      "name": "dokuAdminById",
      "outputs": [
        {
          "internalType": "string",
          "name": "suratPermohonan",
          "type": "string"
        },
        {
          "internalType": "string",
          "name": "buktiPembayaranPajak",
          "type": "string"
        }
      ],
      "stateMutability": "view",
      "type": "function"
    },
    {
      "inputs": [
        {
          "internalType": "string",
          "name": "",
          "type": "string"
        }
      ],
      "name": "dokuTeknisById",
      "outputs": [
        {
          "internalType": "string",
          "name": "suratIzinCdob",
          "type": "string"
        },
        {
          "internalType": "string",
          "name": "denahBangunan",
          "type": "string"
        },
        {
          "internalType": "string",
          "name": "strukturOrganisasi",
          "type": "string"
        },
        {
          "internalType": "string",
          "name": "daftarPersonalia",
          "type": "string"
        },
        {
          "internalType": "string",
          "name": "daftarPeralatan",
          "type": "string"
        },
        {
          "internalType": "string",
          "name": "eksekutifQualityManagement",
          "type": "string"
        },
        {
          "internalType": "string",
          "name": "suratIzinApoteker",
          "type": "string"
        },
        {
          "internalType": "string",
          "name": "dokumenSelfAssesment",
          "type": "string"
        }
      ],
      "stateMutability": "view",
      "type": "function"
    },
    {
      "inputs": [],
      "name": "getAllCdob",
      "outputs": [
        {
          "components": [
            {
              "internalType": "string",
              "name": "certId",
              "type": "string"
            },
            {
              "internalType": "string",
              "name": "certNumber",
              "type": "string"
            },
            {
              "internalType": "string",
              "name": "instanceName",
              "type": "string"
            },
            {
              "internalType": "uint8",
              "name": "tipePermohonan",
              "type": "uint8"
            },
            {
              "internalType": "enum EnumsLibrary.StatusCertificate",
              "name": "status",
              "type": "uint8"
            },
            {
              "internalType": "string",
              "name": "certHash",
              "type": "string"
            }
          ],
          "internalType": "struct CdobCertificate.st_certificateList[]",
          "name": "",
          "type": "tuple[]"
        }
      ],
      "stateMutability": "view",
      "type": "function"
    },
    {
      "inputs": [
        {
          "internalType": "string",
          "name": "_instanceName",
          "type": "string"
        }
      ],
      "name": "getAllCdobByInstance",
      "outputs": [
        {
          "components": [
            {
              "internalType": "string",
              "name": "certId",
              "type": "string"
            },
            {
              "internalType": "string",
              "name": "certNumber",
              "type": "string"
            },
            {
              "internalType": "string",
              "name": "instanceName",
              "type": "string"
            },
            {
              "internalType": "uint8",
              "name": "tipePermohonan",
              "type": "uint8"
            },
            {
              "internalType": "enum EnumsLibrary.StatusCertificate",
              "name": "status",
              "type": "uint8"
            },
            {
              "internalType": "string",
              "name": "certHash",
              "type": "string"
            }
          ],
          "internalType": "struct CdobCertificate.st_certificateList[]",
          "name": "",
          "type": "tuple[]"
        }
      ],
      "stateMutability": "view",
      "type": "function"
    },
    {
      "inputs": [
        {
          "internalType": "string",
          "name": "_certId",
          "type": "string"
        }
      ],
      "name": "getCdobDetails",
      "outputs": [
        {
          "components": [
            {
              "internalType": "string",
              "name": "cdobId",
              "type": "string"
            },
            {
              "internalType": "string",
              "name": "cdobNumber",
              "type": "string"
            },
            {
              "internalType": "uint8",
              "name": "tipePermohonan",
              "type": "uint8"
            }
          ],
          "internalType": "struct CdobCertificate.st_cdob",
          "name": "",
          "type": "tuple"
        },
        {
          "components": [
            {
              "internalType": "string",
              "name": "suratPermohonan",
              "type": "string"
            },
            {
              "internalType": "string",
              "name": "buktiPembayaranPajak",
              "type": "string"
            }
          ],
          "internalType": "struct CdobCertificate.st_dokumenAdministrasiIpfs",
          "name": "",
          "type": "tuple"
        },
        {
          "components": [
            {
              "internalType": "string",
              "name": "suratIzinCdob",
              "type": "string"
            },
            {
              "internalType": "string",
              "name": "denahBangunan",
              "type": "string"
            },
            {
              "internalType": "string",
              "name": "strukturOrganisasi",
              "type": "string"
            },
            {
              "internalType": "string",
              "name": "daftarPersonalia",
              "type": "string"
            },
            {
              "internalType": "string",
              "name": "daftarPeralatan",
              "type": "string"
            },
            {
              "internalType": "string",
              "name": "eksekutifQualityManagement",
              "type": "string"
            },
            {
              "internalType": "string",
              "name": "suratIzinApoteker",
              "type": "string"
            },
            {
              "internalType": "string",
              "name": "dokumenSelfAssesment",
              "type": "string"
            }
          ],
          "internalType": "struct CdobCertificate.st_dokumenTeknisIpfs",
          "name": "",
          "type": "tuple"
        }
      ],
      "stateMutability": "view",
      "type": "function"
    },
    {
      "inputs": [
        {
          "internalType": "string",
          "name": "_certId",
          "type": "string"
        }
      ],
      "name": "getCertDetail",
      "outputs": [
        {
          "components": [
            {
              "internalType": "enum EnumsLibrary.StatusCertificate",
              "name": "status",
              "type": "uint8"
            },
            {
              "internalType": "uint256",
              "name": "timestampRequest",
              "type": "uint256"
            },
            {
              "internalType": "uint256",
              "name": "timestampApprove",
              "type": "uint256"
            },
            {
              "internalType": "uint256",
              "name": "timestampRejected",
              "type": "uint256"
            },
            {
              "internalType": "uint256",
              "name": "timestsmpRenewRequest",
              "type": "uint256"
            },
            {
              "components": [
                {
                  "internalType": "string",
                  "name": "userName",
                  "type": "string"
                },
                {
                  "internalType": "string",
                  "name": "userInstance",
                  "type": "string"
                },
                {
                  "internalType": "address",
                  "name": "userAddr",
                  "type": "address"
                }
              ],
              "internalType": "struct BaseCertificate.st_userCertificate",
              "name": "sender",
              "type": "tuple"
            },
            {
              "components": [
                {
                  "internalType": "string",
                  "name": "userName",
                  "type": "string"
                },
                {
                  "internalType": "string",
                  "name": "userInstance",
                  "type": "string"
                },
                {
                  "internalType": "address",
                  "name": "userAddr",
                  "type": "address"
                }
              ],
              "internalType": "struct BaseCertificate.st_userCertificate",
              "name": "bpom",
              "type": "tuple"
            },
            {
              "internalType": "string",
              "name": "ipfsCert",
              "type": "string"
            }
          ],
          "internalType": "struct BaseCertificate.st_certificateDetails",
          "name": "",
          "type": "tuple"
        }
      ],
      "stateMutability": "view",
      "type": "function"
    },
    {
      "inputs": [
        {
          "internalType": "string",
          "name": "_certId",
          "type": "string"
        }
      ],
      "name": "getCertDetails",
      "outputs": [
        {
          "components": [
            {
              "internalType": "enum EnumsLibrary.StatusCertificate",
              "name": "status",
              "type": "uint8"
            },
            {
              "internalType": "uint256",
              "name": "timestampRequest",
              "type": "uint256"
            },
            {
              "internalType": "uint256",
              "name": "timestampApprove",
              "type": "uint256"
            },
            {
              "internalType": "uint256",
              "name": "timestampRejected",
              "type": "uint256"
            },
            {
              "internalType": "uint256",
              "name": "timestsmpRenewRequest",
              "type": "uint256"
            },
            {
              "components": [
                {
                  "internalType": "string",
                  "name": "userName",
                  "type": "string"
                },
                {
                  "internalType": "string",
                  "name": "userInstance",
                  "type": "string"
                },
                {
                  "internalType": "address",
                  "name": "userAddr",
                  "type": "address"
                }
              ],
              "internalType": "struct BaseCertificate.st_userCertificate",
              "name": "sender",
              "type": "tuple"
            },
            {
              "components": [
                {
                  "internalType": "string",
                  "name": "userName",
                  "type": "string"
                },
                {
                  "internalType": "string",
                  "name": "userInstance",
                  "type": "string"
                },
                {
                  "internalType": "address",
                  "name": "userAddr",
                  "type": "address"
                }
              ],
              "internalType": "struct BaseCertificate.st_userCertificate",
              "name": "bpom",
              "type": "tuple"
            },
            {
              "internalType": "string",
              "name": "ipfsCert",
              "type": "string"
            }
          ],
          "internalType": "struct BaseCertificate.st_certificateDetails",
          "name": "",
          "type": "tuple"
        }
      ],
      "stateMutability": "view",
      "type": "function"
    },
    {
      "inputs": [
        {
          "internalType": "string",
          "name": "_certId",
          "type": "string"
        }
      ],
      "name": "getRejectMsg",
      "outputs": [
        {
          "internalType": "string",
          "name": "",
          "type": "string"
        }
      ],
      "stateMutability": "view",
      "type": "function"
    },
    {
      "inputs": [
        {
          "internalType": "string",
          "name": "_certId",
          "type": "string"
        }
      ],
      "name": "getRejectsMsg",
      "outputs": [
        {
          "internalType": "string",
          "name": "",
          "type": "string"
        }
      ],
      "stateMutability": "view",
      "type": "function"
    },
    {
      "inputs": [
        {
          "internalType": "string",
          "name": "_certId",
          "type": "string"
        }
      ],
      "name": "getSenderDetail",
      "outputs": [
        {
          "components": [
            {
              "internalType": "string",
              "name": "userName",
              "type": "string"
            },
            {
              "internalType": "string",
              "name": "userInstance",
              "type": "string"
            },
            {
              "internalType": "address",
              "name": "userAddr",
              "type": "address"
            }
          ],
          "internalType": "struct BaseCertificate.st_userCertificate",
          "name": "",
          "type": "tuple"
        }
      ],
      "stateMutability": "view",
      "type": "function"
    },
    {
      "inputs": [
        {
          "internalType": "string",
          "name": "_certId",
          "type": "string"
        },
        {
          "internalType": "string",
          "name": "_rejectMsg",
          "type": "string"
        },
        {
          "internalType": "string",
          "name": "_bpomName",
          "type": "string"
        },
        {
          "internalType": "string",
          "name": "_bpomInstance",
          "type": "string"
        },
        {
          "internalType": "address",
          "name": "_bpomAddr",
          "type": "address"
        }
      ],
      "name": "rejectCdob",
      "outputs": [],
      "stateMutability": "nonpayable",
      "type": "function"
    },
    {
      "inputs": [
        {
          "internalType": "string",
          "name": "",
          "type": "string"
        }
      ],
      "name": "rejectMsgbyId",
      "outputs": [
        {
          "internalType": "string",
          "name": "",
          "type": "string"
        }
      ],
      "stateMutability": "view",
      "type": "function"
    },
    {
      "inputs": [
        {
          "internalType": "string",
          "name": "_certId",
          "type": "string"
        },
        {
          "components": [
            {
              "internalType": "string",
              "name": "suratPermohonan",
              "type": "string"
            },
            {
              "internalType": "string",
              "name": "buktiPembayaranPajak",
              "type": "string"
            }
          ],
          "internalType": "struct CdobCertificate.st_dokumenAdministrasiIpfs",
          "name": "newDokuAdmin",
          "type": "tuple"
        },
        {
          "components": [
            {
              "internalType": "string",
              "name": "suratIzinCdob",
              "type": "string"
            },
            {
              "internalType": "string",
              "name": "denahBangunan",
              "type": "string"
            },
            {
              "internalType": "string",
              "name": "strukturOrganisasi",
              "type": "string"
            },
            {
              "internalType": "string",
              "name": "daftarPersonalia",
              "type": "string"
            },
            {
              "internalType": "string",
              "name": "daftarPeralatan",
              "type": "string"
            },
            {
              "internalType": "string",
              "name": "eksekutifQualityManagement",
              "type": "string"
            },
            {
              "internalType": "string",
              "name": "suratIzinApoteker",
              "type": "string"
            },
            {
              "internalType": "string",
              "name": "dokumenSelfAssesment",
              "type": "string"
            }
          ],
          "internalType": "struct CdobCertificate.st_dokumenTeknisIpfs",
          "name": "newDokuTeknis",
          "type": "tuple"
        }
      ],
      "name": "renewRequestCdob",
      "outputs": [],
      "stateMutability": "nonpayable",
      "type": "function"
    },
    {
      "inputs": [
        {
          "internalType": "string",
          "name": "_certId",
          "type": "string"
        },
        {
          "internalType": "string",
          "name": "_pbfName",
          "type": "string"
        },
        {
          "internalType": "string",
          "name": "_pbfInstance",
          "type": "string"
        },
        {
          "internalType": "address",
          "name": "_pbfAddr",
          "type": "address"
        },
        {
          "internalType": "uint8",
          "name": "_tipePermohonanCdob",
          "type": "uint8"
        },
        {
          "components": [
            {
              "internalType": "string",
              "name": "suratPermohonan",
              "type": "string"
            },
            {
              "internalType": "string",
              "name": "buktiPembayaranPajak",
              "type": "string"
            }
          ],
          "internalType": "struct CdobCertificate.st_dokumenAdministrasiIpfs",
          "name": "_dokuAdmin",
          "type": "tuple"
        },
        {
          "components": [
            {
              "internalType": "string",
              "name": "suratIzinCdob",
              "type": "string"
            },
            {
              "internalType": "string",
              "name": "denahBangunan",
              "type": "string"
            },
            {
              "internalType": "string",
              "name": "strukturOrganisasi",
              "type": "string"
            },
            {
              "internalType": "string",
              "name": "daftarPersonalia",
              "type": "string"
            },
            {
              "internalType": "string",
              "name": "daftarPeralatan",
              "type": "string"
            },
            {
              "internalType": "string",
              "name": "eksekutifQualityManagement",
              "type": "string"
            },
            {
              "internalType": "string",
              "name": "suratIzinApoteker",
              "type": "string"
            },
            {
              "internalType": "string",
              "name": "dokumenSelfAssesment",
              "type": "string"
            }
          ],
          "internalType": "struct CdobCertificate.st_dokumenTeknisIpfs",
          "name": "_dokuTeknis",
          "type": "tuple"
        }
      ],
      "name": "requestCdob",
      "outputs": [],
      "stateMutability": "nonpayable",
      "type": "function"
    },
    {
      "inputs": [
        {
          "internalType": "string",
          "name": "_certId",
          "type": "string"
        },
        {
          "internalType": "string",
          "name": "_ipfsCert",
          "type": "string"
        },
        {
          "components": [
            {
              "internalType": "string",
              "name": "userName",
              "type": "string"
            },
            {
              "internalType": "string",
              "name": "userInstance",
              "type": "string"
            },
            {
              "internalType": "address",
              "name": "userAddr",
              "type": "address"
            }
          ],
          "internalType": "struct BaseCertificate.st_userCertificate",
          "name": "_bpom",
          "type": "tuple"
        }
      ],
      "name": "updateBpomApproveDetails",
      "outputs": [],
      "stateMutability": "nonpayable",
      "type": "function"
    },
    {
      "inputs": [
        {
          "internalType": "string",
          "name": "_certId",
          "type": "string"
        },
        {
          "internalType": "string",
          "name": "_rejectMsg",
          "type": "string"
        },
        {
          "components": [
            {
              "internalType": "string",
              "name": "userName",
              "type": "string"
            },
            {
              "internalType": "string",
              "name": "userInstance",
              "type": "string"
            },
            {
              "internalType": "address",
              "name": "userAddr",
              "type": "address"
            }
          ],
          "internalType": "struct BaseCertificate.st_userCertificate",
          "name": "_bpom",
          "type": "tuple"
        }
      ],
      "name": "updateBpomRejectDetails",
      "outputs": [],
      "stateMutability": "nonpayable",
      "type": "function"
    },
    {
      "inputs": [
        {
          "internalType": "string",
          "name": "_certId",
          "type": "string"
        }
      ],
      "name": "updateRenewDetails",
      "outputs": [],
      "stateMutability": "nonpayable",
      "type": "function"
    }
  ],
  "bytecode": "0x608080604052346015576149c8908161001a8239f35b5f80fdfe60806040526004361015610011575f80fd5b5f3560e01c806310159dfe1461325e57806317e68309146131fd57806319859c87146131c55780631acf25001461308e5780632b93f7f214612bf95780632e9cf82714612b7557806343762aa814612ab3578063500619d014612977578063682053d9146115b05780636d1aa7d5146113625780636f12c2301461144d57806372c17cb9146113b1578063761fb19a146113625780637ab09648146112da5780637e8f8da714610fd65780639aaa5d8b14610f9b578063a71ed23a14610eb4578063a72265271461028b578063be2e23251461023b578063e9c260d714610224578063f14261d2146101ac578063f5104ff1146101955763fb5fb9a314610116575f80fd5b34610191576060366003190112610191576004356001600160401b0381116101915761014690369060040161384a565b6024356001600160401b0381116101915761016590369060040161384a565b90604435916001600160401b0383116101915761018961018f933690600401613342565b91614370565b005b5f80fd5b346101915761018f6101a6366138c2565b91613ff3565b34610191575f366003190112610191576002546101c881613a7d565b905f805b8282106101e557604051806101e186826136b6565b0390f35b61021c6001916102166102006101fa866134e7565b50613b08565b60ff83169061020f828a613af4565b5287613af4565b50613a41565b9101906101cc565b346101915761018f610235366138c2565b91613c56565b34610191576020366003190112610191576004356001600160401b0381116101915761027f6102716101e1923690600401613342565b610279613b70565b50613bba565b6040519182918261377e565b34610191576060366003190112610191576004356001600160401b038111610191576102bb903690600401613342565b6024356001600160401b038111610191576102da903690600401613524565b906044356001600160401b038111610191576102fa903690600401613583565b6103038261394a565b602082015f5b60025481101561018f5761031c816134e7565b5060405161034081610332602082018095613978565b03601f198101835282613321565b519020604051602081019061036d60208289518089875e81015f838201520301601f198101835282613321565b5190201461037e575b600101610309565b6003610389826134e7565b5001805461ff0019166103001790556103b360206103a6836134e7565b5060405192838092613978565b600481520301902085518051906001600160401b038211610801576103d88354613397565b601f8111610e6f575b50602090601f8311600114610e095760019392915f9183610dfe575b50505f19600383901b1c191690831b1781555b0160208601518051906001600160401b0382116108015781906104338454613397565b601f8111610dae575b50602090601f8311600114610d4b575f92610d40575b50508160011b915f199060031b1c19161790555b61047460206103a6836134e7565b600581520301902083518051906001600160401b03821161080157819061049b8454613397565b601f8111610cf0575b50602090601f8311600114610c8d575f92610c82575b50508160011b915f199060031b1c19161781555b6001810160208501518051906001600160401b0382116108015781906104f48454613397565b601f8111610c32575b50602090601f8311600114610bcf575f92610bc4575b50508160011b915f199060031b1c19161790555b6002810160408501518051906001600160401b03821161080157819061054d8454613397565b601f8111610b74575b50602090601f8311600114610b11575f92610b06575b50508160011b915f199060031b1c19161790555b6003810160608501518051906001600160401b0382116108015781906105a68454613397565b601f8111610ab6575b50602090601f8311600114610a53575f92610a48575b50508160011b915f199060031b1c19161790555b6004810160808501518051906001600160401b0382116108015781906105ff8454613397565b601f81116109f8575b50602090601f8311600114610995575f9261098a575b50508160011b915f199060031b1c19161790555b6005810160a08501518051906001600160401b0382116108015781906106588454613397565b601f811161093a575b50602090601f83116001146108d7575f926108cc575b50508160011b915f199060031b1c19161790555b6006810160c08501518051906001600160401b038211610801576106af8354613397565b601f8111610887575b50602090601f8311600114610820576007949392915f9183610815575b50508160011b915f199060031b1c19161790555b0160e08401518051906001600160401b0382116108015761070a8354613397565b601f81116107bc575b50602090601f8311600114610755576001949392915f918361074a575b50505f19600383901b1c191690841b1790555b9050610376565b015190508980610730565b90601f19831691845f52815f20925f5b8181106107a457509160019695949291838895931061078c575b505050811b019055610743565b01515f1960f88460031b161c1916905589808061077f565b92936020600181928786015181550195019301610765565b835f5260205f20601f840160051c810191602085106107f7575b601f0160051c01905b8181106107ec5750610713565b5f81556001016107df565b90915081906107d6565b634e487b7160e01b5f52604160045260245ffd5b015190508a806106d5565b90601f19831691845f52815f20925f5b81811061086f575091600193918560079897969410610857575b505050811b0190556106e9565b01515f1960f88460031b161c191690558a808061084a565b92936020600181928786015181550195019301610830565b835f5260205f20601f840160051c810191602085106108c2575b601f0160051c01905b8181106108b757506106b8565b5f81556001016108aa565b90915081906108a1565b015190508980610677565b5f8581528281209350601f198516905b818110610922575090846001959493921061090a575b505050811b01905561068b565b01515f1960f88460031b161c191690558980806108fd565b929360206001819287860151815501950193016108e7565b909150835f5260205f20601f840160051c81019160208510610980575b90601f859493920160051c01905b8181106109725750610661565b5f8155849350600101610965565b9091508190610957565b01519050898061061e565b5f8581528281209350601f198516905b8181106109e057509084600195949392106109c8575b505050811b019055610632565b01515f1960f88460031b161c191690558980806109bb565b929360206001819287860151815501950193016109a5565b909150835f5260205f20601f840160051c81019160208510610a3e575b90601f859493920160051c01905b818110610a305750610608565b5f8155849350600101610a23565b9091508190610a15565b0151905089806105c5565b5f8581528281209350601f198516905b818110610a9e5750908460019594939210610a86575b505050811b0190556105d9565b01515f1960f88460031b161c19169055898080610a79565b92936020600181928786015181550195019301610a63565b909150835f5260205f20601f840160051c81019160208510610afc575b90601f859493920160051c01905b818110610aee57506105af565b5f8155849350600101610ae1565b9091508190610ad3565b01519050898061056c565b5f8581528281209350601f198516905b818110610b5c5750908460019594939210610b44575b505050811b019055610580565b01515f1960f88460031b161c19169055898080610b37565b92936020600181928786015181550195019301610b21565b909150835f5260205f20601f840160051c81019160208510610bba575b90601f859493920160051c01905b818110610bac5750610556565b5f8155849350600101610b9f565b9091508190610b91565b015190508980610513565b5f8581528281209350601f198516905b818110610c1a5750908460019594939210610c02575b505050811b019055610527565b01515f1960f88460031b161c19169055898080610bf5565b92936020600181928786015181550195019301610bdf565b909150835f5260205f20601f840160051c81019160208510610c78575b90601f859493920160051c01905b818110610c6a57506104fd565b5f8155849350600101610c5d565b9091508190610c4f565b0151905088806104ba565b5f8581528281209350601f198516905b818110610cd85750908460019594939210610cc0575b505050811b0181556104ce565b01515f1960f88460031b161c19169055888080610cb3565b92936020600181928786015181550195019301610c9d565b909150835f5260205f20601f840160051c81019160208510610d36575b90601f859493920160051c01905b818110610d2857506104a4565b5f8155849350600101610d1b565b9091508190610d0d565b015190508880610452565b5f8581528281209350601f198516905b818110610d965750908460019594939210610d7e575b505050811b019055610466565b01515f1960f88460031b161c19169055888080610d71565b92936020600181928786015181550195019301610d5b565b909150835f5260205f20601f840160051c81019160208510610df4575b90601f859493920160051c01905b818110610de6575061043c565b5f8155849350600101610dd9565b9091508190610dcb565b0151905089806103fd565b90601f19831691845f52815f20925f5b818110610e575750916001959492918387959310610e3f575b505050811b018155610410565b01515f1960f88460031b161c19169055898080610e32565b92936020600181928786015181550195019301610e19565b835f5260205f20601f840160051c81019160208510610eaa575b601f0160051c01905b818110610e9f57506103e1565b5f8155600101610e92565b9091508190610e89565b34610191576020366003190112610191576004356001600160401b03811161019157602080610eea610f58933690600401613342565b604051928184925191829101835e81015f8152030190206101e160ff82541691610f8d600182015491610f7f60028201546003830154600484015490610f326005860161380b565b92610f4b600b610f446008890161380b565b97016133cf565b976040519b8c809c613517565b60208b015260408a01526060890152608088015261010060a0880152610100870190613493565b9085820360c0870152613493565b9083820360e085015261346f565b34610191576020366003190112610191576004356001600160401b0381116101915761027f610fd16101e1923690600401613342565b613bba565b34610191576020366003190112610191576004356001600160401b03811161019157611006903690600401613342565b61100e61392a565b5060405161101b816132ea565b606081526020016060905260405161103281613305565b60608152602081016060905260408101606090526060810160609052608081016060905260a081016060905260c081016060905260e00160609052604051908051918060208301938085835e810160038152036020019020916040518083518084835e81016004815203602001902091604051918291518091835e810160058152036020019020604051916110c6836132b4565b6110cf846133cf565b83526110dd600185016133cf565b93602084019485526002015460ff16916040840192835260405191611101836132ea565b61110a816133cf565b8352600101611118906133cf565b602083019081526040519361112c85613305565b611135836133cf565b8552611143600184016133cf565b60208601908152611156600285016133cf565b60408701908152611169600386016133cf565b606088019081529161117d600487016133cf565b6080890190815293611191600588016133cf565b60a08a01908152956111a5600689016133cf565b9760c08b019889526007016111b9906133cf565b9860e08b01998a526040519c8d9c60608e52518d606081016060905260c0016111e19161346f565b90518d8203605f190160808f01526111f9919061346f565b925160ff1660a08d01528b830360208d015251604083526040830161121d9161346f565b90519180820390602001526112319161346f565b9789890360408b0152516101008952610100890161124e9161346f565b90519088810360208a01526112629161346f565b90519087810360408901526112769161346f565b905190868103606088015261128a9161346f565b905190858103608087015261129e9161346f565b90519084810360a08601526112b29161346f565b90519083810360c08501526112c69161346f565b9051918082039060e001526101e19161346f565b34610191576020366003190112610191576004356001600160401b03811161019157602080611310611354933690600401613342565b604051928184925191829101835e810160048152030190206101e16113406001611339846133cf565b93016133cf565b60405193849360408552604085019061346f565b90838203602085015261346f565b34610191576020366003190112610191576004356001600160401b0381116101915761139d6113986101e1923690600401613342565b613a1e565b60405191829160208352602083019061346f565b34610191576020366003190112610191576004356001600160401b038111610191576020806113e7611435933690600401613342565b604051928184925191829101835e81016003815203019020611408816133cf565b9061144360ff600261141c600185016133cf565b930154169160405194859460608652606086019061346f565b90848203602086015261346f565b9060408301520390f35b34610191576020366003190112610191576004356001600160401b0381116101915761147d903690600401613342565b60025460208201915f805b83811061154d575060ff61149c9116613a7d565b925f915f5b8481106114b657604051806101e188826136b6565b60026103326114db6114c7846134e7565b506040519283916020830195869101613978565b51902060405160208101906115086020828751808a875e81015f838201520301601f198101835282613321565b51902014611519575b6001016114a1565b9261154560019161021661152f6101fa886134e7565b60ff83169061153e828c613af4565b5289613af4565b939050611511565b600261033261155e6114c7846134e7565b519020604051602081019061158b6020828851808c875e81015f838201520301601f198101835282613321565b5190201461159c575b600101611488565b906115a8600191613a41565b919050611594565b346101915760e0366003190112610191576004356001600160401b038111610191576115e0903690600401613342565b6024356001600160401b038111610191576115ff903690600401613342565b6044356001600160401b0381116101915761161e903690600401613342565b916064356001600160a01b0381168103610191576084359160ff83168093036101915760a4356001600160401b03811161019157611660903690600401613524565b9160c435906001600160401b038211610191578661168561168b933690600401613583565b966139e2565b946116db82602097604051906116a18a83613321565b5f82526040516116b18b82613321565b5f81526116bc61392a565b50604051926116ca846132b4565b83528a8301525f6040830152614370565b604051936116e8856132b4565b828552604051946116f98887613321565b5f865287810195865260408101828152604051968551978a818189019a808c835e8101600381520301902092518051906001600160401b0382116108015781908c6117448754613397565b601f8111612926575b50508c908d601f84116001146128c257505f926128b7575b50508160011b915f199060031b1c19161783555b51805160018401916001600160401b038211610801578b61179a8454613397565b601f8111612872575b50508b908c601f84116001146128065750928260ff95929386946002965f926127fb575b50508160011b915f199060031b1c19161790555b51169201911660ff198254161790556040516117f6816132cf565b838152604051926118078985613321565b5f8452888201938452604082019081526060820192835260808201905f8252604051946118348b87613321565b5f865260a08401958652600254680100000000000000008110156108015780600161186292016002556134e7565b9490946127e857518051906001600160401b038211610801578c82916118888854613397565b601f8111612790575b5081601f841160011461272c57505f92612721575b50508160011b915f199060031b1c19161784555b51805160018501916001600160401b038211610801578c82916118dd8554613397565b601f81116126c9575b5081601f841160011461266557505f9261265a575b50508160011b915f199060031b1c19161790555b51805160028401916001600160401b0382116108015781908c6119328554613397565b601f8111612609575b50508c908d601f84116001146125a557505f9261259a575b50508160011b915f199060031b1c19161790555b60ff80600384019451161660ff19845416178355519160048310156125865760049261ff0082549160081b169061ff0019161790550190518051906001600160401b0382116108015781906119bc8454613397565b601f8111612538575b508890601f83116001146124d5575f926124ca575b50508160011b915f199060031b1c19161790555b604051858183518087835e8101600481520301902082519081516001600160401b038111610801578792611a228354613397565b601f8111612478575b508390601f83116001146124125760019392915f9183612407575b50505f19600383901b1c191690831b1781555b019201519182516001600160401b038111610801578693611a7a8354613397565b601f81116123b3575b5081908590601f8311600114612350575f92612345575b50508160011b915f199060031b1c19161790555b604051928391518091835e810160058152030190209080519182516001600160401b03811161080157611ae18254613397565b601f8111612302575b508493601f82116001146122a25793819293945f92612297575b50508160011b915f199060031b1c19161781555b60018101838301518051906001600160401b038211610801578190611b3d8454613397565b601f8111612249575b508690601f83116001146121e6575f926121db575b50508160011b915f199060031b1c19161790555b6002810160408301518051906001600160401b038211610801578190611b958454613397565b601f811161218d575b508690601f831160011461212a575f9261211f575b50508160011b915f199060031b1c19161790555b6003810160608301518051906001600160401b038211610801578190611bed8454613397565b601f81116120d1575b508690601f831160011461206e575f92612063575b50508160011b915f199060031b1c19161790555b6004810160808301518051906001600160401b038211610801578190611c458454613397565b601f8111612015575b508690601f8311600114611fb2575f92611fa7575b50508160011b915f199060031b1c19161790555b6005810160a08301518051906001600160401b038211610801578190611c9d8454613397565b601f8111611f59575b508690601f8311600114611ef6575f92611eeb575b50508160011b915f199060031b1c19161790555b6006810160c08301518051906001600160401b03821161080157611cf38354613397565b601f8111611ea8575b508590601f8311600114611e3f5791806007949260e096945f92611e34575b50508160011b915f199060031b1c19161790555b01910151918251906001600160401b03821161080157611d4f8354613397565b601f8111611df1575b5080601f8311600114611d9257508192935f92611d87575b50505f19600383901b1c191660019190911b179055005b015190508380611d70565b90601f19831694845f52825f20925f905b878210611dd9575050836001959610611dc1575b505050811b019055005b01515f1960f88460031b161c19169055838080611db7565b80600185968294968601518155019501930190611da3565b835f52815f20601f840160051c810191838510611e2a575b601f0160051c01905b818110611e1f5750611d58565b5f8155600101611e12565b9091508190611e09565b015190508880611d1b565b90601f19831691845f52875f20925f5b89828210611e9257505092600192859260e098966007989610611e7a575b505050811b019055611d2f565b01515f1960f88460031b161c19169055888080611e6d565b6001859682939686015181550195019301611e4f565b835f52865f20601f840160051c810191888510611ee1575b601f0160051c01905b818110611ed65750611cfc565b5f8155600101611ec9565b9091508190611ec0565b015190508680611cbb565b5f8581528881209350601f198516905b89828210611f43575050908460019594939210611f2b575b505050811b019055611ccf565b01515f1960f88460031b161c19169055868080611f1e565b6001859682939686015181550195019301611f06565b909150835f52865f20601f840160051c810191888510611f9d575b90601f859493920160051c01905b818110611f8f5750611ca6565b5f8155849350600101611f82565b9091508190611f74565b015190508680611c63565b5f8581528881209350601f198516905b89828210611fff575050908460019594939210611fe7575b505050811b019055611c77565b01515f1960f88460031b161c19169055868080611fda565b6001859682939686015181550195019301611fc2565b909150835f52865f20601f840160051c810191888510612059575b90601f859493920160051c01905b81811061204b5750611c4e565b5f815584935060010161203e565b9091508190612030565b015190508680611c0b565b5f8581528881209350601f198516905b898282106120bb5750509084600195949392106120a3575b505050811b019055611c1f565b01515f1960f88460031b161c19169055868080612096565b600185968293968601518155019501930161207e565b909150835f52865f20601f840160051c810191888510612115575b90601f859493920160051c01905b8181106121075750611bf6565b5f81558493506001016120fa565b90915081906120ec565b015190508680611bb3565b5f8581528881209350601f198516905b8982821061217757505090846001959493921061215f575b505050811b019055611bc7565b01515f1960f88460031b161c19169055868080612152565b600185968293968601518155019501930161213a565b909150835f52865f20601f840160051c8101918885106121d1575b90601f859493920160051c01905b8181106121c35750611b9e565b5f81558493506001016121b6565b90915081906121a8565b015190508680611b5b565b5f8581528881209350601f198516905b8982821061223357505090846001959493921061221b575b505050811b019055611b6f565b01515f1960f88460031b161c1916905586808061220e565b60018596829396860151815501950193016121f6565b909150835f52865f20601f840160051c81019188851061228d575b90601f859493920160051c01905b81811061227f5750611b46565b5f8155849350600101612272565b9091508190612264565b015190508580611b04565b601f19821694835f52865f20915f5b888882106122ec575050836001959697106122d4575b505050811b018155611b18565b01515f1960f88460031b161c191690558580806122c7565b60018495829395850151815501940192016122b1565b825f52855f20601f830160051c81019187841061233b575b601f0160051c01905b8181106123305750611aea565b5f8155600101612323565b909150819061231a565b015190508880611a9a565b5f8581528781209350601f198516905b8882821061239d575050908460019594939210612385575b505050811b019055611aae565b01515f1960f88460031b161c19169055888080612378565b6001859682939686015181550195019301612360565b909192809495505f52875f20601f840160051c8101918985106123fd575b90601f8a9796959493920160051c01905b8181106123ef5750611a83565b5f81558996506001016123e2565b90915081906123d1565b015190508a80611a46565b90601f19831691845f52855f20925f5b8782821061246257505091600195949291838795931061244a575b505050811b018155611a59565b01515f1960f88460031b161c191690558a808061243d565b6001859682939686015181550195019301612422565b9091928094505f52885f20601f840160051c8101918a85106124c0575b90601f8b96959493920160051c01905b8181106124b25750611a2b565b5f81558a95506001016124a5565b9091508190612495565b0151905088806119da565b5f8581528a81209350601f198516905b8b82821061252257505090846001959493921061250a575b505050811b0190556119ee565b01515f1960f88460031b161c191690558880806124fd565b60018596829396860151815501950193016124e5565b909150835f52885f20601f840160051c8101918a851061257c575b90601f859493920160051c01905b81811061256e57506119c5565b5f8155849350600101612561565b9091508190612553565b634e487b7160e01b5f52602160045260245ffd5b015190508c80611953565b5f8681528181209450601f198616915b8282106125f15750509084600195949392106125d9575b505050811b019055611967565b01515f1960f88460031b161c191690558c80806125cc565b806001869782949787015181550196019401906125b5565b90919250845f52815f2090601f850160051c8201928510612650575b90601f859493920160051c01905b818110612642578e915061193b565b5f8155849350600101612633565b9091508190612625565b015190508d806118fb565b5f8681528181209450601f198616915b8282106126b1575050908460019594939210612699575b505050811b01905561190f565b01515f1960f88460031b161c191690558d808061268c565b80600186978294978701518155019601940190612675565b909250845f52815f2090601f850160051c8201928510612717575b918f9291601f8695930160051c01905b81811061270157506118e6565b90925060019193505f815501918e9184936126f4565b90915081906126e4565b015190508d806118a6565b5f8981528181209450601f198616915b828210612778575050908460019594939210612760575b505050811b0184556118ba565b01515f1960f88460031b161c191690558d8080612753565b8060018697829497870151815501960194019061273c565b909250875f52815f2090601f850160051c82019285106127de575b918f9291601f8695930160051c01905b8181106127c85750611891565b90925060019193505f815501918e9184936127bb565b90915081906127ab565b634e487b7160e01b5f525f60045260245ffd5b015190508f806117c7565b9190601f198416855f52835f20935f905b82821061285a5750509360ff969360029693600193838a9810612842575b505050811b0190556117db565b01515f1960f88460031b161c191690558f8080612835565b80600186978294978701518155019601940190612817565b845f52815f2090601f850160051c82019285106128ad575b601f0160051c01905b8181106128a2578d91506117a3565b5f8155600101612893565b909150819061288a565b015190508c80611765565b5f8881528181209450601f198616915b82821061290e5750509084600195949392106128f6575b505050811b018355611779565b01515f1960f88460031b161c191690558c80806128e9565b806001869782949787015181550196019401906128d2565b90919250865f52815f2090601f850160051c820192851061296d575b90601f859493920160051c01905b81811061295f578e915061174d565b5f8155849350600101612950565b9091508190612942565b34610191576020366003190112610191576004356001600160401b038111610191576129a7903690600401613342565b604051818192516020819201835e8101600581520360200190206129ca816133cf565b6129d6600183016133cf565b916129e3600282016133cf565b906129f0600382016133cf565b6129fc600483016133cf565b612a08600584016133cf565b91612a15600685016133cf565b93600701612a22906133cf565b9460405197889761010089526101008901612a3c9161346f565b88810360208a0152612a4d9161346f565b8781036040890152612a5e9161346f565b8681036060880152612a6f9161346f565b8581036080870152612a809161346f565b84810360a0860152612a919161346f565b83810360c0850152612aa29161346f565b82810360e08401526101e19161346f565b346101915760203660031901126101915760043560025481101561019157612add612b32916134e7565b506101e1612aea826133cf565b91612af7600182016133cf565b612b68612b4e612b09600285016133cf565b612b40612b1d6004600388015497016133cf565b94604051998a9960c08b5260c08b019061346f565b9089820360208b015261346f565b90878203604089015261346f565b9260ff8116606087015260ff608087019160081c16613517565b83820360a085015261346f565b34610191576060366003190112610191576004356001600160401b03811161019157612ba5903690600401613342565b6024356001600160401b03811161019157612bc4903690600401613342565b906044356001600160a01b0381168103610191576101e192612be5926139e2565b604051918291602083526020830190613493565b346101915760c0366003190112610191576004356001600160401b03811161019157612c29903690600401613342565b6024356001600160401b03811161019157612c48903690600401613342565b6044356001600160401b03811161019157612c67903690600401613342565b6064356001600160401b03811161019157612c86903690600401613342565b612c8e6134d1565b60a435916001600160401b03831161019157612cb1612cb7933690600401613342565b936139e2565b604051906001845192602081818801958087835e810160038152030190200185516001600160401b03811161080157612cf08254613397565b601f8111613049575b506020601f8211600114612fe2579080612d309493925f91612fd7575b508160011b915f199060031b1c19161790555b8385613ff3565b5f5b60025481101561018f57612d45816134e7565b50604051612d5b81610332602082018095613978565b5190206040516020810190612d8860208289518089875e81015f838201520301601f198101835282613321565b51902014612d99575b600101612d32565b6001612da4826134e7565b500185516001600160401b03811161080157612dc08254613397565b601f8111612f92575b50806020601f8211600114612f2f575f91612f24575b508160011b915f199060031b1c19161790555b6003612dfd826134e7565b5001805461ff0019166101001790556004612e17826134e7565b500183516001600160401b03811161080157612e338254613397565b601f8111612edf575b506020601f8211600114612e7c57908060019493925f91612e71575b505f19600383901b1c191690841b1790555b9050612d91565b905086015189612e58565b601f19821690835f52805f20915f5b818110612ec757509183916001969594879410612eaf575b5050811b019055612e6a565b8801515f1960f88460031b161c191690558980612ea3565b9192602060018192868c015181550194019201612e8b565b825f5260205f20601f830160051c81019160208410612f1a575b601f0160051c01905b818110612f0f5750612e3c565b5f8155600101612f02565b9091508190612ef9565b905087015188612ddf565b5f8481528181209250601f198416905b8a828210612f7a5750509083600194939210612f62575b5050811b019055612df2565b8901515f1960f88460031b161c191690558880612f56565b60018495602093958493015181550194019201612f3f565b825f5260205f20601f830160051c81019160208410612fcd575b601f0160051c01905b818110612fc25750612dc9565b5f8155600101612fb5565b9091508190612fac565b905088015189612d16565b601f19821690835f52805f20915f5b8a828210613031575050918391612d3096959460019410613019575b5050811b019055612d29565b8a01515f1960f88460031b161c19169055898061300d565b60018495602093958493015181550194019201612ff1565b825f5260205f20601f830160051c81019160208410613084575b601f0160051c01905b8181106130795750612cf9565b5f815560010161306c565b9091508190613063565b346101915760a0366003190112610191576004356001600160401b038111610191576130be903690600401613342565b6024356001600160401b038111610191576130dd903690600401613342565b6044356001600160401b038111610191576130fc903690600401613342565b906064356001600160401b0381116101915761313892613123613131923690600401613342565b61312b6134d1565b916139e2565b9083613c56565b602081015f5b60025481101561018f57806131546001926134e7565b5060405161316a81610332602082018095613978565b51902060405160208101906131976020828951808a875e81015f838201520301601f198101835282613321565b519020146131a6575b0161313e565b60036131b1826134e7565b5001805461ff0019166102001790556131a0565b34610191576020366003190112610191576004356001600160401b038111610191576131f861018f913690600401613342565b61394a565b34610191576020366003190112610191576004356001600160401b03811161019157612be560056020806132386101e1953690600401613342565b61324061392a565b50604051928184925191829101835e81015f8152030190200161380b565b34610191576020366003190112610191576004356001600160401b0381116101915761139d6020806132976101e1943690600401613342565b604051928184925191829101835e810160018152030190206133cf565b606081019081106001600160401b0382111761080157604052565b60c081019081106001600160401b0382111761080157604052565b604081019081106001600160401b0382111761080157604052565b61010081019081106001600160401b0382111761080157604052565b90601f801991011681019081106001600160401b0382111761080157604052565b81601f82011215610191578035906001600160401b0382116108015760405192613376601f8401601f191660200185613321565b8284526020838301011161019157815f926020809301838601378301015290565b90600182811c921680156133c5575b60208310146133b157565b634e487b7160e01b5f52602260045260245ffd5b91607f16916133a6565b9060405191825f8254926133e284613397565b808452936001811690811561344d5750600114613409575b5061340792500383613321565b565b90505f9291925260205f20905f915b818310613431575050906020613407928201015f6133fa565b6020919350806001915483858901015201910190918492613418565b90506020925061340794915060ff191682840152151560051b8201015f6133fa565b805180835260209291819084018484015e5f828201840152601f01601f1916010190565b9060406134be6134ac845160608552606085019061346f565b6020850151848203602086015261346f565b928101516001600160a01b031691015290565b608435906001600160a01b038216820361019157565b6002548110156135035760025f52600560205f20910201905f90565b634e487b7160e01b5f52603260045260245ffd5b9060048210156125865752565b9190604083820312610191576040519061353d826132ea565b819380356001600160401b038111610191578261355b918301613342565b83526020810135916001600160401b0383116101915760209261357e9201613342565b910152565b919061010083820312610191576040519061359d82613305565b819380356001600160401b03811161019157826135bb918301613342565b835260208101356001600160401b03811161019157826135dc918301613342565b602084015260408101356001600160401b0381116101915782613600918301613342565b604084015260608101356001600160401b0381116101915782613624918301613342565b606084015260808101356001600160401b0381116101915782613648918301613342565b608084015260a08101356001600160401b038111610191578261366c918301613342565b60a084015260c08101356001600160401b0381116101915782613690918301613342565b60c084015260e0810135916001600160401b0383116101915760e09261357e9201613342565b602081016020825282518091526040820191602060408360051b8301019401925f915b8383106136e857505050505090565b909192939460208061376f600193603f1986820301875289519060a061373f61372d61371d855160c0865260c086019061346f565b878601518582038987015261346f565b6040850151848203604086015261346f565b9260ff606082015116606084015261375f60808201516080850190613517565b01519060a081840391015261346f565b970193019301919392906136d9565b906138089160208152613795602082018351613517565b602082015160408201526040820151606082015260608201516080820152608082015160a082015260e06137f26137dd60a085015161010060c0860152610120850190613493565b60c0850151848203601f190184860152613493565b92015190610100601f198285030191015261346f565b90565b90604051613818816132b4565b60408193613825816133cf565b8352613833600182016133cf565b6020840152600201546001600160a01b0316910152565b91906060838203126101915760405190613863826132b4565b819380356001600160401b0381116101915782613881918301613342565b835260208101356001600160401b038111610191576040926138a4918301613342565b60208401520135906001600160a01b03821682036101915760400152565b6060600319820112610191576004356001600160401b03811161019157816138ec91600401613342565b916024356001600160401b038111610191578261390b91600401613342565b91604435906001600160401b038211610191576138089160040161384a565b60405190613937826132b4565b5f60408360608152606060208201520152565b60208091604051928184925191829101835e81015f815203019020426004820155600360ff19825416179055565b5f929181549161398783613397565b92600181169081156139cf57506001146139a057505050565b90919293505f5260205f205f905b8382106139bb5750500190565b6001816020925484860152019101906139ae565b60ff191683525050811515909102019150565b91906139ec61392a565b50604051926139fa846132b4565b835260208301526001600160a01b0316604082015290565b60048210156125865752565b604051815161380892602091839181908401835e810160018152030190206133cf565b60ff1660ff8114613a525760010190565b634e487b7160e01b5f52601160045260245ffd5b6001600160401b0381116108015760051b60200190565b90613a8782613a66565b613a946040519182613321565b8281528092613aa5601f1991613a66565b01905f5b828110613ab557505050565b602090604051613ac4816132cf565b60608152606083820152606060408201525f60608201525f6080820152606060a082015282828501015201613aa9565b80518210156135035760209160051b010190565b90604051613b15816132cf565b60a061357e60048395613b27816133cf565b8552613b35600182016133cf565b6020860152613b46600282016133cf565b6040860152613b6a60ff6003830154818116606089015260081c1660808701613a12565b016133cf565b60405190613b7d82613305565b606060e0835f81525f60208201525f60408201525f838201525f6080820152613ba461392a565b60a0820152613bb161392a565b60c08201520152565b60208091613bc6613b70565b50604051928184925191829101835e81015f815203019020613c4e600b60405192613bf084613305565b613bfe60ff82541685613a12565b60018101546020850152600281015460408501526003810154606085015260048101546080850152613c326005820161380b565b60a0850152613c436008820161380b565b60c0850152016133cf565b60e082015290565b92919060405160208551918181818901948086835e81015f81520301902095604051928391518091835e81016001815203019020908051906001600160401b038211610801578190613ca88454613397565b601f8111613fa3575b50602090601f8311600114613f40575f92613f35575b50508160011b915f199060031b1c19161790555b8051805160088501916001600160401b03821161080157613cfc8354613397565b601f8111613ef0575b50602090601f8311600114613e89576020949392915f9183613e7e575b50508160011b915f199060031b1c19161790555b6040810151600a850180546001600160a01b0319166001600160a01b03929092169190911790550151805190929060098201906001600160401b03811161080157613d818254613397565b601f8111613e39575b50602094601f8211600114613dd8579481929394955f92613dcd575b50508160011b915f199060031b1c19161790555b426003820155805460ff19166002179055565b015190505f80613da6565b601f19821695835f52805f20915f5b888110613e2157508360019596979810613e09575b505050811b019055613dba565b01515f1960f88460031b161c191690555f8080613dfc565b91926020600181928685015181550194019201613de7565b825f5260205f20601f830160051c81019160208410613e74575b601f0160051c01905b818110613e695750613d8a565b5f8155600101613e5c565b9091508190613e53565b015190505f80613d22565b90601f19831691845f52815f20925f5b818110613ed8575091600193918560209897969410613ec0575b505050811b019055613d36565b01515f1960f88460031b161c191690555f8080613eb3565b92936020600181928786015181550195019301613e99565b835f5260205f20601f840160051c81019160208510613f2b575b601f0160051c01905b818110613f205750613d05565b5f8155600101613f13565b9091508190613f0a565b015190505f80613cc7565b5f8581528281209350601f198516905b818110613f8b5750908460019594939210613f73575b505050811b019055613cdb565b01515f1960f88460031b161c191690555f8080613f66565b92936020600181928786015181550195019301613f50565b909150835f5260205f20601f840160051c81019160208510613fe9575b90601f859493920160051c01905b818110613fdb5750613cb1565b5f8155849350600101613fce565b9091508190613fc0565b6020809194939294604051928184925191829101835e81015f81520301902090805160088301908051906001600160401b038211610801576140358354613397565b601f811161432b575b50602090601f83116001146142c4576020949392915f91836142b9575b50508160011b915f199060031b1c19161790555b6040810151600a840180546001600160a01b0319166001600160a01b03929092169190911790550151805160098301916001600160401b038211610801576140b78354613397565b601f8111614274575b50602090601f831160011461420d57600b949392915f9183614202575b50508160011b915f199060031b1c19161790555b426002820155600160ff198254161781550182516001600160401b0381116108015761411d8254613397565b601f81116141bd575b506020601f821160011461415f57819293945f92614154575b50508160011b915f199060031b1c1916179055565b015190505f8061413f565b601f19821690835f52805f20915f5b8181106141a55750958360019596971061418d575b505050811b019055565b01515f1960f88460031b161c191690555f8080614183565b9192602060018192868b01518155019401920161416e565b825f5260205f20601f830160051c810191602084106141f8575b601f0160051c01905b8181106141ed5750614126565b5f81556001016141e0565b90915081906141d7565b015190505f806140dd565b90601f19831691845f52815f20925f5b81811061425c5750916001939185600b9897969410614244575b505050811b0190556140f1565b01515f1960f88460031b161c191690555f8080614237565b9293602060018192878601518155019501930161421d565b835f5260205f20601f840160051c810191602085106142af575b601f0160051c01905b8181106142a457506140c0565b5f8155600101614297565b909150819061428e565b015190505f8061405b565b90601f19831691845f52815f20925f5b8181106143135750916001939185602098979694106142fb575b505050811b01905561406f565b01515f1960f88460031b161c191690555f80806142ee565b929360206001819287860151815501950193016142d4565b835f5260205f20601f840160051c81019160208510614366575b601f0160051c01905b81811061435b575061403e565b5f815560010161434e565b9091508190614345565b92909160405161437f81613305565b5f81526020810194428652604082015f8152606083015f815260808401915f835260a0850193845260c085019788526020988980604051986143c1828b613321565b5f8a5260e08901998a52604051928184925191829101835e81015f815203019020955160048110156125865760ff801988541691161786555160018601555160028501555160038401555160048301556005820190519081518051906001600160401b0382116108015781906144378454613397565b601f8111614944575b508990601f83116001146148e1575f926148d6575b50508160011b915f199060031b1c19161790555b60068201868201518051906001600160401b03821161080157819061448e8454613397565b601f8111614888575b508990601f8311600114614825575f9261481a575b50508160011b915f199060031b1c19161790555b604001516007820180546001600160a01b0319166001600160a01b039290921691909117905592518051805191949160088301916001600160401b03821161080157819061450e8454613397565b601f81116147cc575b508890601f8311600114614769575f9261475e575b50508160011b915f199060031b1c19161790555b600981019385810151948551956001600160401b038711610801576145658254613397565b601f811161471b575b508790601f88116001146146b457968091600b9697985f926146a9575b50508160011b915f199060031b1c19161790555b60400151600a820180546001600160a01b0319166001600160a01b03929092169190911790559151805190949190920191906001600160401b038211610801576145e98354613397565b601f8111614666575b5080601f831160011461461f5750819293945f926141545750508160011b915f199060031b1c1916179055565b90601f19831695845f52825f20925f905b88821061464e5750508360019596971061418d57505050811b019055565b80600185968294968601518155019501930190614630565b835f52815f20601f840160051c81019183851061469f575b601f0160051c01905b81811061469457506145f2565b5f8155600101614687565b909150819061467e565b015190505f8061458b565b90601f19881691835f52895f20925f5b8b82821061470557505091600193918a600b999a9b94106146ed575b505050811b01905561459f565b01515f1960f88460031b161c191690555f80806146e0565b60018596829396860151815501950193016146c4565b825f52885f20601f890160051c8101918a8a10614754575b601f0160051c01905b818110614749575061456e565b5f815560010161473c565b9091508190614733565b015190505f8061452c565b5f8581528a81209350601f198516905b8b8282106147b657505090846001959493921061479e575b505050811b019055614540565b01515f1960f88460031b161c191690555f8080614791565b6001859682939686015181550195019301614779565b909150835f52885f20601f840160051c8101918a8510614810575b90601f859493920160051c01905b8181106148025750614517565b5f81558493506001016147f5565b90915081906147e7565b015190505f806144ac565b5f8581528b81209350601f198516905b8c82821061487257505090846001959493921061485a575b505050811b0190556144c0565b01515f1960f88460031b161c191690555f808061484d565b6001859682939686015181550195019301614835565b909150835f52895f20601f840160051c8101918b85106148cc575b90601f859493920160051c01905b8181106148be5750614497565b5f81558493506001016148b1565b90915081906148a3565b015190505f80614455565b5f8581528b81209350601f198516905b8c82821061492e575050908460019594939210614916575b505050811b019055614469565b01515f1960f88460031b161c191690555f8080614909565b60018596829396860151815501950193016148f1565b909150835f52895f20601f840160051c8101918b8510614988575b90601f859493920160051c01905b81811061497a5750614440565b5f815584935060010161496d565b909150819061495f56fea26469706673582212209818beb3b242a44a69830da5dc18229326d53275466b7b241e4ac2970907824a64736f6c634300081b0033",
  "linkReferences": {},
  "deployedLinkReferences": {}
}