{
  "_format": "hh-sol-artifact-1",
  "contractName": "CdobCertificate",
  "sourceName": "contracts/CdobCertificate.sol",
  "abi": [
    {
      "inputs": [
        {
          "internalType": "uint256",
          "name": "",
          "type": "uint256"
        }
      ],
      "name": "allCdobData",
      "outputs": [
        {
          "internalType": "string",
          "name": "certId",
          "type": "string"
        },
        {
          "internalType": "string",
          "name": "certNumber",
          "type": "string"
        },
        {
          "internalType": "string",
          "name": "instanceName",
          "type": "string"
        },
        {
          "internalType": "uint8",
          "name": "tipePermohonan",
          "type": "uint8"
        },
        {
          "internalType": "enum EnumsLibrary.StatusCertificate",
          "name": "status",
          "type": "uint8"
        },
        {
          "internalType": "string",
          "name": "certHash",
          "type": "string"
        },
        {
          "internalType": "uint256",
          "name": "expiredTimestamp",
          "type": "uint256"
        }
      ],
      "stateMutability": "view",
      "type": "function"
    },
    {
      "inputs": [
        {
          "internalType": "string",
          "name": "certNumber",
          "type": "string"
        },
        {
          "internalType": "string",
          "name": "certId",
          "type": "string"
        },
        {
          "internalType": "string",
          "name": "bpomName",
          "type": "string"
        },
        {
          "internalType": "string",
          "name": "bpomInstance",
          "type": "string"
        },
        {
          "internalType": "address",
          "name": "bpomAddr",
          "type": "address"
        },
        {
          "internalType": "string",
          "name": "ipfsCert",
          "type": "string"
        }
      ],
      "name": "approveCdob",
      "outputs": [],
      "stateMutability": "nonpayable",
      "type": "function"
    },
    {
      "inputs": [
        {
          "internalType": "string",
          "name": "certId",
          "type": "string"
        },
        {
          "internalType": "string",
          "name": "ipfsCert",
          "type": "string"
        }
      ],
      "name": "approveExtendCdob",
      "outputs": [],
      "stateMutability": "nonpayable",
      "type": "function"
    },
    {
      "inputs": [
        {
          "internalType": "string",
          "name": "",
          "type": "string"
        }
      ],
      "name": "cdobDataById",
      "outputs": [
        {
          "internalType": "string",
          "name": "cdobId",
          "type": "string"
        },
        {
          "internalType": "string",
          "name": "cdobNumber",
          "type": "string"
        },
        {
          "internalType": "uint8",
          "name": "tipePermohonan",
          "type": "uint8"
        }
      ],
      "stateMutability": "view",
      "type": "function"
    },
    {
      "inputs": [
        {
          "internalType": "string",
          "name": "",
          "type": "string"
        }
      ],
      "name": "certDetailById",
      "outputs": [
        {
          "internalType": "enum EnumsLibrary.StatusCertificate",
          "name": "status",
          "type": "uint8"
        },
        {
          "internalType": "uint256",
          "name": "timestampRequest",
          "type": "uint256"
        },
        {
          "internalType": "uint256",
          "name": "timestampApprove",
          "type": "uint256"
        },
        {
          "internalType": "uint256",
          "name": "timestampRejected",
          "type": "uint256"
        },
        {
          "internalType": "uint256",
          "name": "timestampRenewRequest",
          "type": "uint256"
        },
        {
          "internalType": "uint256",
          "name": "timestampExpired",
          "type": "uint256"
        },
        {
          "internalType": "uint256",
          "name": "timestampExtendRequest",
          "type": "uint256"
        },
        {
          "internalType": "uint256",
          "name": "timestampExtendApprove",
          "type": "uint256"
        },
        {
          "components": [
            {
              "internalType": "string",
              "name": "userName",
              "type": "string"
            },
            {
              "internalType": "string",
              "name": "userInstance",
              "type": "string"
            },
            {
              "internalType": "address",
              "name": "userAddr",
              "type": "address"
            }
          ],
          "internalType": "struct BaseCertificate.UserCert",
          "name": "sender",
          "type": "tuple"
        },
        {
          "components": [
            {
              "internalType": "string",
              "name": "userName",
              "type": "string"
            },
            {
              "internalType": "string",
              "name": "userInstance",
              "type": "string"
            },
            {
              "internalType": "address",
              "name": "userAddr",
              "type": "address"
            }
          ],
          "internalType": "struct BaseCertificate.UserCert",
          "name": "bpom",
          "type": "tuple"
        },
        {
          "internalType": "string",
          "name": "ipfsCert",
          "type": "string"
        }
      ],
      "stateMutability": "view",
      "type": "function"
    },
    {
      "inputs": [
        {
          "components": [
            {
              "internalType": "string",
              "name": "userName",
              "type": "string"
            },
            {
              "internalType": "string",
              "name": "userInstance",
              "type": "string"
            },
            {
              "internalType": "address",
              "name": "userAddr",
              "type": "address"
            }
          ],
          "internalType": "struct BaseCertificate.UserCert",
          "name": "senderData",
          "type": "tuple"
        },
        {
          "components": [
            {
              "internalType": "string",
              "name": "userName",
              "type": "string"
            },
            {
              "internalType": "string",
              "name": "userInstance",
              "type": "string"
            },
            {
              "internalType": "address",
              "name": "userAddr",
              "type": "address"
            }
          ],
          "internalType": "struct BaseCertificate.UserCert",
          "name": "bpomData",
          "type": "tuple"
        },
        {
          "internalType": "string",
          "name": "certId",
          "type": "string"
        }
      ],
      "name": "createCertificateDetails",
      "outputs": [],
      "stateMutability": "nonpayable",
      "type": "function"
    },
    {
      "inputs": [
        {
          "internalType": "string",
          "name": "userName",
          "type": "string"
        },
        {
          "internalType": "string",
          "name": "userInstance",
          "type": "string"
        },
        {
          "internalType": "address",
          "name": "userAddr",
          "type": "address"
        }
      ],
      "name": "createUserCertificate",
      "outputs": [
        {
          "components": [
            {
              "internalType": "string",
              "name": "userName",
              "type": "string"
            },
            {
              "internalType": "string",
              "name": "userInstance",
              "type": "string"
            },
            {
              "internalType": "address",
              "name": "userAddr",
              "type": "address"
            }
          ],
          "internalType": "struct BaseCertificate.UserCert",
          "name": "",
          "type": "tuple"
        }
      ],
      "stateMutability": "pure",
      "type": "function"
    },
    {
      "inputs": [
        {
          "internalType": "string",
          "name": "",
          "type": "string"
        }
      ],
      "name": "dokuAdminById",
      "outputs": [
        {
          "internalType": "string",
          "name": "suratPermohonan",
          "type": "string"
        },
        {
          "internalType": "string",
          "name": "buktiPembayaranPajak",
          "type": "string"
        }
      ],
      "stateMutability": "view",
      "type": "function"
    },
    {
      "inputs": [
        {
          "internalType": "string",
          "name": "",
          "type": "string"
        }
      ],
      "name": "dokuTeknisById",
      "outputs": [
        {
          "internalType": "string",
          "name": "suratIzinCdob",
          "type": "string"
        },
        {
          "internalType": "string",
          "name": "denahBangunan",
          "type": "string"
        },
        {
          "internalType": "string",
          "name": "strukturOrganisasi",
          "type": "string"
        },
        {
          "internalType": "string",
          "name": "daftarPersonalia",
          "type": "string"
        },
        {
          "internalType": "string",
          "name": "daftarPeralatan",
          "type": "string"
        },
        {
          "internalType": "string",
          "name": "eksekutifQualityManagement",
          "type": "string"
        },
        {
          "internalType": "string",
          "name": "suratIzinApoteker",
          "type": "string"
        },
        {
          "internalType": "string",
          "name": "dokumenSelfAssesment",
          "type": "string"
        }
      ],
      "stateMutability": "view",
      "type": "function"
    },
    {
      "inputs": [
        {
          "internalType": "string",
          "name": "certId",
          "type": "string"
        },
        {
          "internalType": "uint256",
          "name": "expTimestamp",
          "type": "uint256"
        }
      ],
      "name": "extendCdob",
      "outputs": [],
      "stateMutability": "nonpayable",
      "type": "function"
    },
    {
      "inputs": [],
      "name": "getAllCdob",
      "outputs": [
        {
          "components": [
            {
              "internalType": "string",
              "name": "certId",
              "type": "string"
            },
            {
              "internalType": "string",
              "name": "certNumber",
              "type": "string"
            },
            {
              "internalType": "string",
              "name": "instanceName",
              "type": "string"
            },
            {
              "internalType": "uint8",
              "name": "tipePermohonan",
              "type": "uint8"
            },
            {
              "internalType": "enum EnumsLibrary.StatusCertificate",
              "name": "status",
              "type": "uint8"
            },
            {
              "internalType": "string",
              "name": "certHash",
              "type": "string"
            },
            {
              "internalType": "uint256",
              "name": "expiredTimestamp",
              "type": "uint256"
            }
          ],
          "internalType": "struct CdobCertificate.CertificateList[]",
          "name": "",
          "type": "tuple[]"
        }
      ],
      "stateMutability": "view",
      "type": "function"
    },
    {
      "inputs": [
        {
          "internalType": "string",
          "name": "instanceName",
          "type": "string"
        }
      ],
      "name": "getAllCdobByInstance",
      "outputs": [
        {
          "components": [
            {
              "internalType": "string",
              "name": "certId",
              "type": "string"
            },
            {
              "internalType": "string",
              "name": "certNumber",
              "type": "string"
            },
            {
              "internalType": "string",
              "name": "instanceName",
              "type": "string"
            },
            {
              "internalType": "uint8",
              "name": "tipePermohonan",
              "type": "uint8"
            },
            {
              "internalType": "enum EnumsLibrary.StatusCertificate",
              "name": "status",
              "type": "uint8"
            },
            {
              "internalType": "string",
              "name": "certHash",
              "type": "string"
            },
            {
              "internalType": "uint256",
              "name": "expiredTimestamp",
              "type": "uint256"
            }
          ],
          "internalType": "struct CdobCertificate.CertificateList[]",
          "name": "",
          "type": "tuple[]"
        }
      ],
      "stateMutability": "view",
      "type": "function"
    },
    {
      "inputs": [
        {
          "internalType": "string",
          "name": "certId",
          "type": "string"
        }
      ],
      "name": "getCdobDetails",
      "outputs": [
        {
          "components": [
            {
              "internalType": "string",
              "name": "cdobId",
              "type": "string"
            },
            {
              "internalType": "string",
              "name": "cdobNumber",
              "type": "string"
            },
            {
              "internalType": "uint8",
              "name": "tipePermohonan",
              "type": "uint8"
            }
          ],
          "internalType": "struct CdobCertificate.CdobData",
          "name": "",
          "type": "tuple"
        },
        {
          "components": [
            {
              "internalType": "string",
              "name": "suratPermohonan",
              "type": "string"
            },
            {
              "internalType": "string",
              "name": "buktiPembayaranPajak",
              "type": "string"
            }
          ],
          "internalType": "struct CdobCertificate.DokumenAdministrasi",
          "name": "",
          "type": "tuple"
        },
        {
          "components": [
            {
              "internalType": "string",
              "name": "suratIzinCdob",
              "type": "string"
            },
            {
              "internalType": "string",
              "name": "denahBangunan",
              "type": "string"
            },
            {
              "internalType": "string",
              "name": "strukturOrganisasi",
              "type": "string"
            },
            {
              "internalType": "string",
              "name": "daftarPersonalia",
              "type": "string"
            },
            {
              "internalType": "string",
              "name": "daftarPeralatan",
              "type": "string"
            },
            {
              "internalType": "string",
              "name": "eksekutifQualityManagement",
              "type": "string"
            },
            {
              "internalType": "string",
              "name": "suratIzinApoteker",
              "type": "string"
            },
            {
              "internalType": "string",
              "name": "dokumenSelfAssesment",
              "type": "string"
            }
          ],
          "internalType": "struct CdobCertificate.DokumenTeknis",
          "name": "",
          "type": "tuple"
        }
      ],
      "stateMutability": "view",
      "type": "function"
    },
    {
      "inputs": [
        {
          "internalType": "string",
          "name": "certId",
          "type": "string"
        }
      ],
      "name": "getCertDetail",
      "outputs": [
        {
          "components": [
            {
              "internalType": "enum EnumsLibrary.StatusCertificate",
              "name": "status",
              "type": "uint8"
            },
            {
              "internalType": "uint256",
              "name": "timestampRequest",
              "type": "uint256"
            },
            {
              "internalType": "uint256",
              "name": "timestampApprove",
              "type": "uint256"
            },
            {
              "internalType": "uint256",
              "name": "timestampRejected",
              "type": "uint256"
            },
            {
              "internalType": "uint256",
              "name": "timestampRenewRequest",
              "type": "uint256"
            },
            {
              "internalType": "uint256",
              "name": "timestampExpired",
              "type": "uint256"
            },
            {
              "internalType": "uint256",
              "name": "timestampExtendRequest",
              "type": "uint256"
            },
            {
              "internalType": "uint256",
              "name": "timestampExtendApprove",
              "type": "uint256"
            },
            {
              "components": [
                {
                  "internalType": "string",
                  "name": "userName",
                  "type": "string"
                },
                {
                  "internalType": "string",
                  "name": "userInstance",
                  "type": "string"
                },
                {
                  "internalType": "address",
                  "name": "userAddr",
                  "type": "address"
                }
              ],
              "internalType": "struct BaseCertificate.UserCert",
              "name": "sender",
              "type": "tuple"
            },
            {
              "components": [
                {
                  "internalType": "string",
                  "name": "userName",
                  "type": "string"
                },
                {
                  "internalType": "string",
                  "name": "userInstance",
                  "type": "string"
                },
                {
                  "internalType": "address",
                  "name": "userAddr",
                  "type": "address"
                }
              ],
              "internalType": "struct BaseCertificate.UserCert",
              "name": "bpom",
              "type": "tuple"
            },
            {
              "internalType": "string",
              "name": "ipfsCert",
              "type": "string"
            }
          ],
          "internalType": "struct BaseCertificate.CertificateDetails",
          "name": "",
          "type": "tuple"
        }
      ],
      "stateMutability": "view",
      "type": "function"
    },
    {
      "inputs": [
        {
          "internalType": "string",
          "name": "certId",
          "type": "string"
        }
      ],
      "name": "getCertDetails",
      "outputs": [
        {
          "components": [
            {
              "internalType": "enum EnumsLibrary.StatusCertificate",
              "name": "status",
              "type": "uint8"
            },
            {
              "internalType": "uint256",
              "name": "timestampRequest",
              "type": "uint256"
            },
            {
              "internalType": "uint256",
              "name": "timestampApprove",
              "type": "uint256"
            },
            {
              "internalType": "uint256",
              "name": "timestampRejected",
              "type": "uint256"
            },
            {
              "internalType": "uint256",
              "name": "timestampRenewRequest",
              "type": "uint256"
            },
            {
              "internalType": "uint256",
              "name": "timestampExpired",
              "type": "uint256"
            },
            {
              "internalType": "uint256",
              "name": "timestampExtendRequest",
              "type": "uint256"
            },
            {
              "internalType": "uint256",
              "name": "timestampExtendApprove",
              "type": "uint256"
            },
            {
              "components": [
                {
                  "internalType": "string",
                  "name": "userName",
                  "type": "string"
                },
                {
                  "internalType": "string",
                  "name": "userInstance",
                  "type": "string"
                },
                {
                  "internalType": "address",
                  "name": "userAddr",
                  "type": "address"
                }
              ],
              "internalType": "struct BaseCertificate.UserCert",
              "name": "sender",
              "type": "tuple"
            },
            {
              "components": [
                {
                  "internalType": "string",
                  "name": "userName",
                  "type": "string"
                },
                {
                  "internalType": "string",
                  "name": "userInstance",
                  "type": "string"
                },
                {
                  "internalType": "address",
                  "name": "userAddr",
                  "type": "address"
                }
              ],
              "internalType": "struct BaseCertificate.UserCert",
              "name": "bpom",
              "type": "tuple"
            },
            {
              "internalType": "string",
              "name": "ipfsCert",
              "type": "string"
            }
          ],
          "internalType": "struct BaseCertificate.CertificateDetails",
          "name": "",
          "type": "tuple"
        }
      ],
      "stateMutability": "view",
      "type": "function"
    },
    {
      "inputs": [
        {
          "internalType": "string",
          "name": "certId",
          "type": "string"
        }
      ],
      "name": "getRejectMsg",
      "outputs": [
        {
          "internalType": "string",
          "name": "",
          "type": "string"
        }
      ],
      "stateMutability": "view",
      "type": "function"
    },
    {
      "inputs": [
        {
          "internalType": "string",
          "name": "certId",
          "type": "string"
        }
      ],
      "name": "getRejectsMsg",
      "outputs": [
        {
          "internalType": "string",
          "name": "",
          "type": "string"
        }
      ],
      "stateMutability": "view",
      "type": "function"
    },
    {
      "inputs": [
        {
          "internalType": "string",
          "name": "certId",
          "type": "string"
        }
      ],
      "name": "getSenderDetail",
      "outputs": [
        {
          "components": [
            {
              "internalType": "string",
              "name": "userName",
              "type": "string"
            },
            {
              "internalType": "string",
              "name": "userInstance",
              "type": "string"
            },
            {
              "internalType": "address",
              "name": "userAddr",
              "type": "address"
            }
          ],
          "internalType": "struct BaseCertificate.UserCert",
          "name": "",
          "type": "tuple"
        }
      ],
      "stateMutability": "view",
      "type": "function"
    },
    {
      "inputs": [
        {
          "internalType": "string",
          "name": "certId",
          "type": "string"
        },
        {
          "internalType": "string",
          "name": "rejectMsg",
          "type": "string"
        },
        {
          "internalType": "string",
          "name": "bpomName",
          "type": "string"
        },
        {
          "internalType": "string",
          "name": "bpomInstance",
          "type": "string"
        },
        {
          "internalType": "address",
          "name": "bpomAddr",
          "type": "address"
        }
      ],
      "name": "rejectCdob",
      "outputs": [],
      "stateMutability": "nonpayable",
      "type": "function"
    },
    {
      "inputs": [
        {
          "internalType": "string",
          "name": "",
          "type": "string"
        }
      ],
      "name": "rejectMsgById",
      "outputs": [
        {
          "internalType": "string",
          "name": "",
          "type": "string"
        }
      ],
      "stateMutability": "view",
      "type": "function"
    },
    {
      "inputs": [
        {
          "internalType": "string",
          "name": "certId",
          "type": "string"
        },
        {
          "components": [
            {
              "internalType": "string",
              "name": "suratPermohonan",
              "type": "string"
            },
            {
              "internalType": "string",
              "name": "buktiPembayaranPajak",
              "type": "string"
            }
          ],
          "internalType": "struct CdobCertificate.DokumenAdministrasi",
          "name": "newDokuAdmin",
          "type": "tuple"
        },
        {
          "components": [
            {
              "internalType": "string",
              "name": "suratIzinCdob",
              "type": "string"
            },
            {
              "internalType": "string",
              "name": "denahBangunan",
              "type": "string"
            },
            {
              "internalType": "string",
              "name": "strukturOrganisasi",
              "type": "string"
            },
            {
              "internalType": "string",
              "name": "daftarPersonalia",
              "type": "string"
            },
            {
              "internalType": "string",
              "name": "daftarPeralatan",
              "type": "string"
            },
            {
              "internalType": "string",
              "name": "eksekutifQualityManagement",
              "type": "string"
            },
            {
              "internalType": "string",
              "name": "suratIzinApoteker",
              "type": "string"
            },
            {
              "internalType": "string",
              "name": "dokumenSelfAssesment",
              "type": "string"
            }
          ],
          "internalType": "struct CdobCertificate.DokumenTeknis",
          "name": "newDokuTeknis",
          "type": "tuple"
        }
      ],
      "name": "renewRequestCdob",
      "outputs": [],
      "stateMutability": "nonpayable",
      "type": "function"
    },
    {
      "inputs": [
        {
          "internalType": "string",
          "name": "certId",
          "type": "string"
        },
        {
          "internalType": "string",
          "name": "pbfName",
          "type": "string"
        },
        {
          "internalType": "string",
          "name": "pbfInstance",
          "type": "string"
        },
        {
          "internalType": "address",
          "name": "pbfAddr",
          "type": "address"
        },
        {
          "internalType": "uint8",
          "name": "tipePermohonan",
          "type": "uint8"
        },
        {
          "components": [
            {
              "internalType": "string",
              "name": "suratPermohonan",
              "type": "string"
            },
            {
              "internalType": "string",
              "name": "buktiPembayaranPajak",
              "type": "string"
            }
          ],
          "internalType": "struct CdobCertificate.DokumenAdministrasi",
          "name": "dokuAdmin",
          "type": "tuple"
        },
        {
          "components": [
            {
              "internalType": "string",
              "name": "suratIzinCdob",
              "type": "string"
            },
            {
              "internalType": "string",
              "name": "denahBangunan",
              "type": "string"
            },
            {
              "internalType": "string",
              "name": "strukturOrganisasi",
              "type": "string"
            },
            {
              "internalType": "string",
              "name": "daftarPersonalia",
              "type": "string"
            },
            {
              "internalType": "string",
              "name": "daftarPeralatan",
              "type": "string"
            },
            {
              "internalType": "string",
              "name": "eksekutifQualityManagement",
              "type": "string"
            },
            {
              "internalType": "string",
              "name": "suratIzinApoteker",
              "type": "string"
            },
            {
              "internalType": "string",
              "name": "dokumenSelfAssesment",
              "type": "string"
            }
          ],
          "internalType": "struct CdobCertificate.DokumenTeknis",
          "name": "dokuTeknis",
          "type": "tuple"
        }
      ],
      "name": "requestCdob",
      "outputs": [],
      "stateMutability": "nonpayable",
      "type": "function"
    },
    {
      "inputs": [
        {
          "internalType": "string",
          "name": "certId",
          "type": "string"
        },
        {
          "internalType": "string",
          "name": "ipfsCert",
          "type": "string"
        },
        {
          "components": [
            {
              "internalType": "string",
              "name": "userName",
              "type": "string"
            },
            {
              "internalType": "string",
              "name": "userInstance",
              "type": "string"
            },
            {
              "internalType": "address",
              "name": "userAddr",
              "type": "address"
            }
          ],
          "internalType": "struct BaseCertificate.UserCert",
          "name": "bpomData",
          "type": "tuple"
        }
      ],
      "name": "updateBpomApproveDetails",
      "outputs": [],
      "stateMutability": "nonpayable",
      "type": "function"
    },
    {
      "inputs": [
        {
          "internalType": "string",
          "name": "certId",
          "type": "string"
        },
        {
          "internalType": "string",
          "name": "ipfsCert",
          "type": "string"
        }
      ],
      "name": "updateBpomApproveExtendCertificateDetails",
      "outputs": [],
      "stateMutability": "nonpayable",
      "type": "function"
    },
    {
      "inputs": [
        {
          "internalType": "string",
          "name": "certId",
          "type": "string"
        },
        {
          "internalType": "string",
          "name": "ipfsCert",
          "type": "string"
        }
      ],
      "name": "updateBpomExtendCertificateDetails",
      "outputs": [],
      "stateMutability": "nonpayable",
      "type": "function"
    },
    {
      "inputs": [
        {
          "internalType": "string",
          "name": "certId",
          "type": "string"
        },
        {
          "internalType": "string",
          "name": "rejectMsg",
          "type": "string"
        },
        {
          "components": [
            {
              "internalType": "string",
              "name": "userName",
              "type": "string"
            },
            {
              "internalType": "string",
              "name": "userInstance",
              "type": "string"
            },
            {
              "internalType": "address",
              "name": "userAddr",
              "type": "address"
            }
          ],
          "internalType": "struct BaseCertificate.UserCert",
          "name": "bpomData",
          "type": "tuple"
        }
      ],
      "name": "updateBpomRejectDetails",
      "outputs": [],
      "stateMutability": "nonpayable",
      "type": "function"
    },
    {
      "inputs": [
        {
          "internalType": "string",
          "name": "certId",
          "type": "string"
        },
        {
          "internalType": "uint256",
          "name": "expiredTimestamp",
          "type": "uint256"
        }
      ],
      "name": "updateExtendRenewDetails",
      "outputs": [],
      "stateMutability": "nonpayable",
      "type": "function"
    },
    {
      "inputs": [
        {
          "internalType": "string",
          "name": "certId",
          "type": "string"
        }
      ],
      "name": "updateRenewDetails",
      "outputs": [],
      "stateMutability": "nonpayable",
      "type": "function"
    }
  ],
  "bytecode": "0x60808060405234601557615006908161001a8239f35b5f80fdfe60806040526004361015610011575f80fd5b5f3560e01c806317e68309146135bc57806319859c87146135845780631acf25001461344b5780632b93f7f214612f9d5780632e9cf82714612f1957806334a34f3014612e0e57806343762aa814612d3a578063500619d014612bfe578063682053d91461185c5780636d1aa7d5146116225780636f12c230146116f957806372c17cb91461165d578063761fb19a146116225780637ab096481461159a5780637e8f8da71461129657806393b73ba2146111ee5780639740dbed146111d75780639aaa5d8b1461119c5780639c6b1f10146110d4578063a7226527146104bb578063be2e23251461046b578063bf3f80ac14610401578063d26196fd146103ea578063e9c260d7146103d3578063f14261d21461035b578063f5104ff114610344578063f53ef126146101cc5763fb5fb9a31461014d575f80fd5b346101c85760603660031901126101c8576004356001600160401b0381116101c85761017d903690600401613c75565b6024356001600160401b0381116101c85761019c903690600401613c75565b90604435916001600160401b0383116101c8576101c06101c69336906004016136c7565b91614981565b005b5f80fd5b346101c8576020806101dd36613c2b565b9290604051928184925191829101835e81015f815203019020426002820155608242019081421161033057600e916005820155600660ff198254161781550181516001600160401b03811161031c576102368254613794565b601f81116102d7575b50602092601f821160011461027b57928192935f92610270575b50505f19600383901b1c191660019190911b179055005b015190508380610259565b601f19821693835f52805f20915f5b8681106102bf57508360019596106102a7575b505050811b019055005b01515f1960f88460031b161c1916905583808061029d565b9192602060018192868501518155019401920161028a565b825f5260205f20601f830160051c81019160208410610312575b601f0160051c01905b818110610307575061023f565b5f81556001016102fa565b90915081906102f1565b634e487b7160e01b5f52604160045260245ffd5b634e487b7160e01b5f52601160045260245ffd5b346101c8576101c661035536613ced565b91614613565b346101c8575f3660031901126101c85760025461037781613e94565b905f805b82821061039457604051806103908682613a7a565b0390f35b6103cb6001916103c56103af6103a9866138b8565b50613f25565b60ff8316906103be828a613f11565b5287613f11565b50613e6c565b91019061037b565b346101c8576101c66103e436613ced565b91614276565b346101c8576101c66103fb36613c2b565b90614133565b346101c85760203660031901126101c8576004356001600160401b0381116101c85761045760208061043a6103909436906004016136c7565b604051928184925191829101835e810160018152030190206137cc565b60405191829160208352602083019061371c565b346101c85760203660031901126101c8576004356001600160401b0381116101c8576104af6104a16103909236906004016136c7565b6104a9614017565b50614076565b60405191829182613b7b565b346101c85760603660031901126101c8576004356001600160401b0381116101c8576104eb9036906004016136c7565b6024356001600160401b0381116101c85761050a9036906004016138e8565b906044356001600160401b0381116101c85761052a903690600401613947565b61053382613d75565b6002549160208101905f5b84811061054757005b610550816138b8565b5060405161057481610566602082018095613da3565b03601f1981018352826136a6565b51902060405160208101906105a16020828751808a875e81015f838201520301601f1981018352826136a6565b519020146105b2575b60010161053e565b60036105bd826138b8565b5001805461ff0019166103001790556105e760206105da836138b8565b5060405192838092613da3565b600481520301902086518051906001600160401b03821161031c5761060c8354613794565b601f811161108f575b50602090601f83116001146110295760019392915f918361101e575b50505f19600383901b1c191690831b1781555b0160208701518051906001600160401b03821161031c5781906106678454613794565b601f8111610fce575b50602090601f8311600114610f6b575f92610f60575b50508160011b915f199060031b1c19161790555b6106a860206105da836138b8565b600581520301902084518051906001600160401b03821161031c5781906106cf8454613794565b601f8111610f10575b50602090601f8311600114610ead575f92610ea2575b50508160011b915f199060031b1c19161781555b6001810160208601518051906001600160401b03821161031c5781906107288454613794565b601f8111610e52575b50602090601f8311600114610def575f92610de4575b50508160011b915f199060031b1c19161790555b6002810160408601518051906001600160401b03821161031c5781906107818454613794565b601f8111610d94575b50602090601f8311600114610d31575f92610d26575b50508160011b915f199060031b1c19161790555b6003810160608601518051906001600160401b03821161031c5781906107da8454613794565b601f8111610cd6575b50602090601f8311600114610c73575f92610c68575b50508160011b915f199060031b1c19161790555b6004810160808601518051906001600160401b03821161031c5781906108338454613794565b601f8111610c18575b50602090601f8311600114610bb5575f92610baa575b50508160011b915f199060031b1c19161790555b6005810160a08601518051906001600160401b03821161031c57819061088c8454613794565b601f8111610b5a575b50602090601f8311600114610af7575f92610aec575b50508160011b915f199060031b1c19161790555b6006810160c08601518051906001600160401b03821161031c576108e38354613794565b601f8111610aa7575b50602090601f8311600114610a40576007949392915f9183610a35575b50508160011b915f199060031b1c19161790555b0160e08501518051906001600160401b03821161031c5761093e8354613794565b601f81116109f0575b50602090601f8311600114610989576001949392915f918361097e575b50505f19600383901b1c191690841b1790555b90506105aa565b015190508a80610964565b90601f19831691845f52815f20925f5b8181106109d85750916001969594929183889593106109c0575b505050811b019055610977565b01515f1960f88460031b161c191690558a80806109b3565b92936020600181928786015181550195019301610999565b835f5260205f20601f840160051c81019160208510610a2b575b601f0160051c01905b818110610a205750610947565b5f8155600101610a13565b9091508190610a0a565b015190508b80610909565b90601f19831691845f52815f20925f5b818110610a8f575091600193918560079897969410610a77575b505050811b01905561091d565b01515f1960f88460031b161c191690558b8080610a6a565b92936020600181928786015181550195019301610a50565b835f5260205f20601f840160051c81019160208510610ae2575b601f0160051c01905b818110610ad757506108ec565b5f8155600101610aca565b9091508190610ac1565b015190508a806108ab565b5f8581528281209350601f198516905b818110610b425750908460019594939210610b2a575b505050811b0190556108bf565b01515f1960f88460031b161c191690558a8080610b1d565b92936020600181928786015181550195019301610b07565b909150835f5260205f20601f840160051c81019160208510610ba0575b90601f859493920160051c01905b818110610b925750610895565b5f8155849350600101610b85565b9091508190610b77565b015190508a80610852565b5f8581528281209350601f198516905b818110610c005750908460019594939210610be8575b505050811b019055610866565b01515f1960f88460031b161c191690558a8080610bdb565b92936020600181928786015181550195019301610bc5565b909150835f5260205f20601f840160051c81019160208510610c5e575b90601f859493920160051c01905b818110610c50575061083c565b5f8155849350600101610c43565b9091508190610c35565b015190508a806107f9565b5f8581528281209350601f198516905b818110610cbe5750908460019594939210610ca6575b505050811b01905561080d565b01515f1960f88460031b161c191690558a8080610c99565b92936020600181928786015181550195019301610c83565b909150835f5260205f20601f840160051c81019160208510610d1c575b90601f859493920160051c01905b818110610d0e57506107e3565b5f8155849350600101610d01565b9091508190610cf3565b015190508a806107a0565b5f8581528281209350601f198516905b818110610d7c5750908460019594939210610d64575b505050811b0190556107b4565b01515f1960f88460031b161c191690558a8080610d57565b92936020600181928786015181550195019301610d41565b909150835f5260205f20601f840160051c81019160208510610dda575b90601f859493920160051c01905b818110610dcc575061078a565b5f8155849350600101610dbf565b9091508190610db1565b015190508a80610747565b5f8581528281209350601f198516905b818110610e3a5750908460019594939210610e22575b505050811b01905561075b565b01515f1960f88460031b161c191690558a8080610e15565b92936020600181928786015181550195019301610dff565b909150835f5260205f20601f840160051c81019160208510610e98575b90601f859493920160051c01905b818110610e8a5750610731565b5f8155849350600101610e7d565b9091508190610e6f565b0151905089806106ee565b5f8581528281209350601f198516905b818110610ef85750908460019594939210610ee0575b505050811b018155610702565b01515f1960f88460031b161c19169055898080610ed3565b92936020600181928786015181550195019301610ebd565b909150835f5260205f20601f840160051c81019160208510610f56575b90601f859493920160051c01905b818110610f4857506106d8565b5f8155849350600101610f3b565b9091508190610f2d565b015190508980610686565b5f8581528281209350601f198516905b818110610fb65750908460019594939210610f9e575b505050811b01905561069a565b01515f1960f88460031b161c19169055898080610f91565b92936020600181928786015181550195019301610f7b565b909150835f5260205f20601f840160051c81019160208510611014575b90601f859493920160051c01905b8181106110065750610670565b5f8155849350600101610ff9565b9091508190610feb565b015190508a80610631565b90601f19831691845f52815f20925f5b818110611077575091600195949291838795931061105f575b505050811b018155610644565b01515f1960f88460031b161c191690558a8080611052565b92936020600181928786015181550195019301611039565b835f5260205f20601f840160051c810191602085106110ca575b601f0160051c01905b8181106110bf5750610615565b5f81556001016110b2565b90915081906110a9565b346101c8576110ed6110e536613c2b565b819291614133565b6002549060208101905f5b83811061110157005b61110a816138b8565b5060405161112081610566602082018095613da3565b519020604051602081019061114d6020828751808a875e81015f838201520301601f1981018352826136a6565b5190201461115e575b6001016110f8565b6003611169826138b8565b500161060061ff00198254161790556082420190814211610330576001916005611192836138b8565b5001559050611156565b346101c85760203660031901126101c8576004356001600160401b0381116101c8576104af6111d26103909236906004016136c7565b614076565b346101c8576101c66111e836613b4a565b90613f9c565b346101c8576112076111ff36613b4a565b819291613f9c565b600254602082015f5b82811061121957005b806112256001926138b8565b5060405161123b81610566602082018095613da3565b51902060405160208101906112686020828a51808a875e81015f838201520301601f1981018352826136a6565b51902014611277575b01611210565b6003611282826138b8565b5001805461ff001916610500179055611271565b346101c85760203660031901126101c8576004356001600160401b0381116101c8576112c69036906004016136c7565b6112ce613d55565b506040516112db81613653565b60608152602001606090526040516112f28161366e565b60608152602081016060905260408101606090526060810160609052608081016060905260a081016060905260c081016060905260e00160609052604051908051918060208301938085835e810160038152036020019020916040518083518084835e81016004815203602001902091604051918291518091835e810160058152036020019020604051916113868361361d565b61138f846137cc565b835261139d600185016137cc565b93602084019485526002015460ff169160408401928352604051916113c183613653565b6113ca816137cc565b83526001016113d8906137cc565b60208301908152604051936113ec8561366e565b6113f5836137cc565b8552611403600184016137cc565b60208601908152611416600285016137cc565b60408701908152611429600386016137cc565b606088019081529161143d600487016137cc565b6080890190815293611451600588016137cc565b60a08a0190815295611465600689016137cc565b9760c08b01988952600701611479906137cc565b9860e08b01998a526040519c8d9c60608e52518d606081016060905260c0016114a19161371c565b90518d8203605f190160808f01526114b9919061371c565b925160ff1660a08d01528b830360208d01525160408352604083016114dd9161371c565b90519180820390602001526114f19161371c565b9789890360408b0152516101008952610100890161150e9161371c565b90519088810360208a01526115229161371c565b90519087810360408901526115369161371c565b905190868103606088015261154a9161371c565b905190858103608087015261155e9161371c565b90519084810360a08601526115729161371c565b90519083810360c08501526115869161371c565b9051918082039060e001526103909161371c565b346101c85760203660031901126101c8576004356001600160401b0381116101c8576020806115d06116149336906004016136c7565b604051928184925191829101835e8101600481520301902061039061160060016115f9846137cc565b93016137cc565b60405193849360408552604085019061371c565b90838203602085015261371c565b346101c85760203660031901126101c8576004356001600160401b0381116101c8576104576116586103909236906004016136c7565b613e49565b346101c85760203660031901126101c8576004356001600160401b0381116101c8576020806116936116e19336906004016136c7565b604051928184925191829101835e810160038152030190206116b4816137cc565b906116ef60ff60026116c8600185016137cc565b930154169160405194859460608652606086019061371c565b90848203602086015261371c565b9060408301520390f35b346101c85760203660031901126101c8576004356001600160401b0381116101c8576117299036906004016136c7565b60025460208201915f805b8381106117f9575060ff6117489116613e94565b925f915f5b84811061176257604051806103908882613a7a565b6002610566611787611773846138b8565b506040519283916020830195869101613da3565b51902060405160208101906117b46020828751808a875e81015f838201520301601f1981018352826136a6565b519020146117c5575b60010161174d565b926117f16001916103c56117db6103a9886138b8565b60ff8316906117ea828c613f11565b5289613f11565b9390506117bd565b600261056661180a611773846138b8565b51902060405160208101906118376020828851808c875e81015f838201520301601f1981018352826136a6565b51902014611848575b600101611734565b90611854600191613e6c565b919050611840565b346101c85760e03660031901126101c8576004356001600160401b0381116101c85761188c9036906004016136c7565b6024356001600160401b0381116101c8576118ab9036906004016136c7565b6044356001600160401b0381116101c8576118ca9036906004016136c7565b916064356001600160a01b03811681036101c8576084359360ff85168095036101c85760a4356001600160401b0381116101c85761190c9036906004016138e8565b9160c435906001600160401b0382116101c85782611931611937933690600401613947565b96613e0d565b94611987846020976040519061194d8a836136a6565b5f825260405161195d8b826136a6565b5f8152611968613d55565b50604051926119768461361d565b83528a8301525f6040830152614981565b6040516119938161361d565b8481526040516119a388826136a6565b5f815287820190815260408201908382526040518981895180838c01835e8101600381520301902092518051906001600160401b03821161031c5781906119ea8654613794565b601f8111612bb0575b508b90601f8311600114612b4b575f92612b40575b50508160011b915f199060031b1c19161783555b51805160018401916001600160401b03821161031c57611a3c8354613794565b601f8111612afd575b508a90601f8311600114612a9057928260ff95929386946002965f92612a85575b50508160011b915f199060031b1c19161790555b51169201911660ff1982541617905560405190611a9682613638565b84825260405192611aa788856136a6565b5f8452878301938452604083015260608201525f6080820152604051611acd87826136a6565b5f815260a08201525f60c08201526002546801000000000000000081101561031c57806001611aff92016002556138b8565b929092612a725781518051906001600160401b03821161031c578190611b258654613794565b601f8111612a24575b508990601f83116001146129c1575f926129b6575b50508160011b915f199060031b1c19161783555b518051906001600160401b03821161031c578190611b786001860154613794565b601f8111612965575b508890601f83116001146128fb575f926128f0575b50508160011b915f199060031b1c19161760018301555b6002820160408201518051906001600160401b03821161031c578190611bd38454613794565b601f81116128a2575b508990601f831160011461283f575f92612834575b50508160011b915f199060031b1c19161790555b6003820160ff806060840151161660ff19825416178155608082015160078110156128205761ff0082549160081b169061ff0019161790556004820160a08201518051906001600160401b03821161031c57611c618354613794565b601f81116127dd575b508890601f831160011461277457918060c09492600596945f92612769575b50508160011b915f199060031b1c19161790555b01519101556040518481845180838701835e8101600481520301902081519081516001600160401b03811161031c578692611cd88354613794565b601f8111612717575b508390601f83116001146126b15760019392915f91836126a6575b50505f19600383901b1c191690831b1781555b01910151918251916001600160401b03831161031c578592611d318254613794565b94601f861161264f575b8495508490601f83116001146125e8575f9190836125dd575b50508160011b915f199060031b1c19161790555b604051928184925191829101835e810160058152030190209080519182516001600160401b03811161031c57611d9e8254613794565b601f811161259a575b508493601f821160011461253a5793819293945f9261252f575b50508160011b915f199060031b1c19161781555b60018101838301518051906001600160401b03821161031c578190611dfa8454613794565b601f81116124e1575b508690601f831160011461247e575f92612473575b50508160011b915f199060031b1c19161790555b6002810160408301518051906001600160401b03821161031c578190611e528454613794565b601f8111612425575b508690601f83116001146123c2575f926123b7575b50508160011b915f199060031b1c19161790555b6003810160608301518051906001600160401b03821161031c578190611eaa8454613794565b601f8111612369575b508690601f8311600114612306575f926122fb575b50508160011b915f199060031b1c19161790555b6004810160808301518051906001600160401b03821161031c578190611f028454613794565b601f81116122ad575b508690601f831160011461224a575f9261223f575b50508160011b915f199060031b1c19161790555b6005810160a08301518051906001600160401b03821161031c578190611f5a8454613794565b601f81116121f1575b508690601f831160011461218e575f92612183575b50508160011b915f199060031b1c19161790555b6006810160c08301518051906001600160401b03821161031c57611fb08354613794565b601f8111612140575b508590601f83116001146120d75791806007949260e096945f926120cc575b50508160011b915f199060031b1c19161790555b01910151918251906001600160401b03821161031c5761200c8354613794565b601f8111612089575b5080601f831160011461204357508192935f926102705750505f19600383901b1c191660019190911b179055005b90601f19831694845f52825f20925f905b8782106120715750508360019596106102a757505050811b019055005b80600185968294968601518155019501930190612054565b835f52815f20601f840160051c8101918385106120c2575b601f0160051c01905b8181106120b75750612015565b5f81556001016120aa565b90915081906120a1565b015190508880611fd8565b90601f19831691845f52875f20925f5b8982821061212a57505092600192859260e098966007989610612112575b505050811b019055611fec565b01515f1960f88460031b161c19169055888080612105565b60018596829396860151815501950193016120e7565b835f52865f20601f840160051c810191888510612179575b601f0160051c01905b81811061216e5750611fb9565b5f8155600101612161565b9091508190612158565b015190508680611f78565b5f8581528881209350601f198516905b898282106121db5750509084600195949392106121c3575b505050811b019055611f8c565b01515f1960f88460031b161c191690558680806121b6565b600185968293968601518155019501930161219e565b909150835f52865f20601f840160051c810191888510612235575b90601f859493920160051c01905b8181106122275750611f63565b5f815584935060010161221a565b909150819061220c565b015190508680611f20565b5f8581528881209350601f198516905b8982821061229757505090846001959493921061227f575b505050811b019055611f34565b01515f1960f88460031b161c19169055868080612272565b600185968293968601518155019501930161225a565b909150835f52865f20601f840160051c8101918885106122f1575b90601f859493920160051c01905b8181106122e35750611f0b565b5f81558493506001016122d6565b90915081906122c8565b015190508680611ec8565b5f8581528881209350601f198516905b8982821061235357505090846001959493921061233b575b505050811b019055611edc565b01515f1960f88460031b161c1916905586808061232e565b6001859682939686015181550195019301612316565b909150835f52865f20601f840160051c8101918885106123ad575b90601f859493920160051c01905b81811061239f5750611eb3565b5f8155849350600101612392565b9091508190612384565b015190508680611e70565b5f8581528881209350601f198516905b8982821061240f5750509084600195949392106123f7575b505050811b019055611e84565b01515f1960f88460031b161c191690558680806123ea565b60018596829396860151815501950193016123d2565b909150835f52865f20601f840160051c810191888510612469575b90601f859493920160051c01905b81811061245b5750611e5b565b5f815584935060010161244e565b9091508190612440565b015190508680611e18565b5f8581528881209350601f198516905b898282106124cb5750509084600195949392106124b3575b505050811b019055611e2c565b01515f1960f88460031b161c191690558680806124a6565b600185968293968601518155019501930161248e565b909150835f52865f20601f840160051c810191888510612525575b90601f859493920160051c01905b8181106125175750611e03565b5f815584935060010161250a565b90915081906124fc565b015190508580611dc1565b601f19821694835f52865f20915f5b888882106125845750508360019596971061256c575b505050811b018155611dd5565b01515f1960f88460031b161c1916905585808061255f565b6001849582939585015181550194019201612549565b825f52855f20601f830160051c8101918784106125d3575b601f0160051c01905b8181106125c85750611da7565b5f81556001016125bb565b90915081906125b2565b015190508880611d54565b601f95949392919519821695835f52855f20915f5b8881106126375750836001959697981061261f575b505050811b019055611d68565b01515f1960f88460031b161c19169055888080612612565b828201518455899760019094019392830192016125fd565b918094505f9591939552865f20601f840160051c81019188851061269c575b90601f899694979593920160051c01905b81811061268e57505084611d3b565b5f815588955060010161267f565b909150819061266e565b015190508980611cfc565b90601f19831691845f52855f20925f5b878282106127015750509160019594929183879593106126e9575b505050811b018155611d0f565b01515f1960f88460031b161c191690558980806126dc565b60018596829396860151815501950193016126c1565b9091928094505f52875f20601f840160051c81019189851061275f575b90601f8a96959493920160051c01905b8181106127515750611ce1565b5f8155899550600101612744565b9091508190612734565b015190508b80611c89565b90601f19831691845f528a5f20925f5b8c8282106127c75750509260019285926005989660c09896106127af575b505050811b019055611c9d565b01515f1960f88460031b161c191690558b80806127a2565b6001859682939686015181550195019301612784565b835f52895f20601f840160051c8101918b8510612816575b601f0160051c01905b81811061280b5750611c6a565b5f81556001016127fe565b90915081906127f5565b634e487b7160e01b5f52602160045260245ffd5b015190508980611bf1565b5f8581528b81209350601f198516905b8c82821061288c575050908460019594939210612874575b505050811b019055611c05565b01515f1960f88460031b161c19169055898080612867565b600185968293968601518155019501930161284f565b909150835f52895f20601f840160051c8101918b85106128e6575b90601f859493920160051c01905b8181106128d85750611bdc565b5f81558493506001016128cb565b90915081906128bd565b015190508880611b96565b600186015f9081528a81209350601f198516905b8b82821061294f575050908460019594939210612937575b505050811b016001830155611bad565b01515f1960f88460031b161c19169055888080612927565b600185968293968601518155019501930161290f565b909150600185015f52885f20601f840160051c8101918a85106129ac575b90601f859493920160051c01905b81811061299e5750611b81565b5f8155849350600101612991565b9091508190612983565b015190508980611b43565b5f8781528b81209350601f198516905b8c828210612a0e5750509084600195949392106129f6575b505050811b018355611b57565b01515f1960f88460031b161c191690558980806129e9565b60018596829396860151815501950193016129d1565b909150855f52895f20601f840160051c8101918b8510612a68575b90601f859493920160051c01905b818110612a5a5750611b2e565b5f8155849350600101612a4d565b9091508190612a3f565b634e487b7160e01b5f525f60045260245ffd5b015190508e80611a66565b5f8481528c8120929190601f198516908e5b828210612ae55750509360ff969360029693600193838a9810612acd575b505050811b019055611a7a565b01515f1960f88460031b161c191690558e8080612ac0565b80600186978294978701518155019601940190612aa2565b835f528b5f20601f840160051c8101918d8510612b36575b601f0160051c01905b818110612b2b5750611a45565b5f8155600101612b1e565b9091508190612b15565b015190508b80611a08565b5f8781528d81209350601f198516908e5b828210612b98575050908460019594939210612b80575b505050811b018355611a1c565b01515f1960f88460031b161c191690558b8080612b73565b80600186978294978701518155019601940190612b5c565b909150855f528b5f20601f840160051c8101918d8510612bf4575b90601f859493920160051c01905b818110612be657506119f3565b5f8155849350600101612bd9565b9091508190612bcb565b346101c85760203660031901126101c8576004356001600160401b0381116101c857612c2e9036906004016136c7565b604051818192516020819201835e810160058152036020019020612c51816137cc565b612c5d600183016137cc565b91612c6a600282016137cc565b90612c77600382016137cc565b612c83600483016137cc565b612c8f600584016137cc565b91612c9c600685016137cc565b93600701612ca9906137cc565b9460405197889761010089526101008901612cc39161371c565b88810360208a0152612cd49161371c565b8781036040890152612ce59161371c565b8681036060880152612cf69161371c565b8581036080870152612d079161371c565b84810360a0860152612d189161371c565b83810360c0850152612d299161371c565b82810360e08401526103909161371c565b346101c85760203660031901126101c8576004356002548110156101c857612d64612dc1916138b8565b50612d6e816137cc565b90612e04612d7e600183016137cc565b91612d8b600282016137cc565b90612df7612ddd600383015493612dcf6005612da9600487016137cc565b950154976040519a8b9a60e08c5260e08c019061371c565b908a820360208c015261371c565b9088820360408a015261371c565b9260ff8116606088015260ff608088019160081c166138ab565b84820360a086015261371c565b9060c08301520390f35b346101c85760203660031901126101c8576004356001600160401b0381116101c857612e3e9036906004016136c7565b604051818192516020819201835e81015f8152036020019020805460ff1660018201549160028101549060038101546004820154600583015460068401549060078501549260088601612e909061386c565b94612e9d600b880161386c565b96600e01612eaa906137cc565b976040519a612eba8c809c6138ab565b60208b015260408a01526060890152608088015260a087015260c086015260e0850152610100840161016090526101608401612ef591613740565b838103610120850152612f0791613740565b8281036101408401526103909161371c565b346101c85760603660031901126101c8576004356001600160401b0381116101c857612f499036906004016136c7565b6024356001600160401b0381116101c857612f689036906004016136c7565b906044356001600160a01b03811681036101c85761039092612f8992613e0d565b604051918291602083526020830190613740565b346101c85760c03660031901126101c8576004356001600160401b0381116101c857612fcd9036906004016136c7565b6024356001600160401b0381116101c857612fec9036906004016136c7565b6044356001600160401b0381116101c85761300b9036906004016136c7565b6064356001600160401b0381116101c85761302a9036906004016136c7565b61303261377e565b60a435916001600160401b0383116101c85761305561305b9336906004016136c7565b93613e0d565b604051906001845192602081818801958087835e810160038152030190200185516001600160401b03811161031c576130948254613794565b601f8111613406575b506020601f821160011461339f5790806130d49493925f91613394575b508160011b915f199060031b1c19161790555b8385614613565b600254925f5b8481106130e357005b6130ec816138b8565b5060405161310281610566602082018095613da3565b519020604051602081019061312f6020828751808a875e81015f838201520301601f1981018352826136a6565b51902014613140575b6001016130da565b600161314b826138b8565b500186516001600160401b03811161031c576131678254613794565b601f811161334f575b50806020601f82116001146132ec575f916132e1575b508160011b915f199060031b1c19161790555b60036131a4826138b8565b5001805461ff00191661010017905560046131be826138b8565b500184516001600160401b03811161031c576131da8254613794565b601f811161329c575b50806020601f821160011461323b575f91613230575b508160011b915f199060031b1c19161790555b6082420190814211610330576001916005613226836138b8565b5001559050613138565b9050860151896131f9565b5f8481528181209250601f198416905b8181106132845750908360019493921061326c575b5050811b01905561320c565b8801515f1960f88460031b161c191690558980613260565b9192602060018192868d01518155019401920161324b565b825f5260205f20601f830160051c810191602084106132d7575b601f0160051c01905b8181106132cc57506131e3565b5f81556001016132bf565b90915081906132b6565b905088015189613186565b5f8481528181209250601f198416905b8b828210613337575050908360019493921061331f575b5050811b019055613199565b8a01515f1960f88460031b161c191690558980613313565b600184956020939584930151815501940192016132fc565b825f5260205f20601f830160051c8101916020841061338a575b601f0160051c01905b81811061337f5750613170565b5f8155600101613372565b9091508190613369565b9050880151896130ba565b601f19821690835f52805f20915f5b8a8282106133ee5750509183916130d4969594600194106133d6575b5050811b0190556130cd565b8a01515f1960f88460031b161c1916905589806133ca565b600184956020939584930151815501940192016133ae565b825f5260205f20601f830160051c81019160208410613441575b601f0160051c01905b818110613436575061309d565b5f8155600101613429565b9091508190613420565b346101c85760a03660031901126101c8576004356001600160401b0381116101c85761347b9036906004016136c7565b6024356001600160401b0381116101c85761349a9036906004016136c7565b6044356001600160401b0381116101c8576134b99036906004016136c7565b906064356001600160401b0381116101c8576134f5926134e06134ee9236906004016136c7565b6134e861377e565b91613e0d565b9083614276565b600254602082015f5b82811061350757005b806135136001926138b8565b5060405161352981610566602082018095613da3565b51902060405160208101906135566020828a51808a875e81015f838201520301601f1981018352826136a6565b51902014613565575b016134fe565b6003613570826138b8565b5001805461ff00191661020017905561355f565b346101c85760203660031901126101c8576004356001600160401b0381116101c8576135b76101c69136906004016136c7565b613d75565b346101c85760203660031901126101c8576004356001600160401b0381116101c857612f8960086020806135f76103909536906004016136c7565b6135ff613d55565b50604051928184925191829101835e81015f8152030190200161386c565b606081019081106001600160401b0382111761031c57604052565b60e081019081106001600160401b0382111761031c57604052565b604081019081106001600160401b0382111761031c57604052565b61010081019081106001600160401b0382111761031c57604052565b61016081019081106001600160401b0382111761031c57604052565b90601f801991011681019081106001600160401b0382111761031c57604052565b81601f820112156101c8578035906001600160401b03821161031c57604051926136fb601f8401601f1916602001856136a6565b828452602083830101116101c857815f926020809301838601378301015290565b805180835260209291819084018484015e5f828201840152601f01601f1916010190565b90604061376b613759845160608552606085019061371c565b6020850151848203602086015261371c565b928101516001600160a01b031691015290565b608435906001600160a01b03821682036101c857565b90600182811c921680156137c2575b60208310146137ae57565b634e487b7160e01b5f52602260045260245ffd5b91607f16916137a3565b9060405191825f8254926137df84613794565b808452936001811690811561384a5750600114613806575b50613804925003836136a6565b565b90505f9291925260205f20905f915b81831061382e575050906020613804928201015f6137f7565b6020919350806001915483858901015201910190918492613815565b90506020925061380494915060ff191682840152151560051b8201015f6137f7565b906040516138798161361d565b60408193613886816137cc565b8352613894600182016137cc565b6020840152600201546001600160a01b0316910152565b9060078210156128205752565b6002548110156138d45760025f52600660205f20910201905f90565b634e487b7160e01b5f52603260045260245ffd5b91906040838203126101c8576040519061390182613653565b819380356001600160401b0381116101c8578261391f9183016136c7565b83526020810135916001600160401b0383116101c85760209261394292016136c7565b910152565b9190610100838203126101c857604051906139618261366e565b819380356001600160401b0381116101c8578261397f9183016136c7565b835260208101356001600160401b0381116101c857826139a09183016136c7565b602084015260408101356001600160401b0381116101c857826139c49183016136c7565b604084015260608101356001600160401b0381116101c857826139e89183016136c7565b606084015260808101356001600160401b0381116101c85782613a0c9183016136c7565b608084015260a08101356001600160401b0381116101c85782613a309183016136c7565b60a084015260c08101356001600160401b0381116101c85782613a549183016136c7565b60c084015260e0810135916001600160401b0383116101c85760e09261394292016136c7565b602081016020825282518091526040820191602060408360051b8301019401925f915b838310613aac57505050505090565b9091929394602080600192603f1985820301865288519060c080613b35613b04613af2613ae2875160e0885260e088019061371c565b888801518782038a89015261371c565b6040870151868203604088015261371c565b60ff6060870151166060860152613b23608087015160808701906138ab565b60a086015185820360a087015261371c565b93015191015297019301930191939290613a9d565b60406003198201126101c857600435906001600160401b0382116101c857613b74916004016136c7565b9060243590565b90613c289160208152613b926020820183516138ab565b602082015160408201526040820151606082015260608201516080820152608082015160a082015260a082015160c082015260c082015160e082015260e0820151610100820152610140613c12613bfc610100850151610160610120860152610180850190613740565b610120850151848203601f190184860152613740565b92015190610160601f198285030191015261371c565b90565b9060406003198301126101c8576004356001600160401b0381116101c85782613c56916004016136c7565b91602435906001600160401b0382116101c857613c28916004016136c7565b91906060838203126101c85760405190613c8e8261361d565b819380356001600160401b0381116101c85782613cac9183016136c7565b835260208101356001600160401b0381116101c857604092613ccf9183016136c7565b60208401520135906001600160a01b03821682036101c85760400152565b60606003198201126101c8576004356001600160401b0381116101c85781613d17916004016136c7565b916024356001600160401b0381116101c85782613d36916004016136c7565b91604435906001600160401b0382116101c857613c2891600401613c75565b60405190613d628261361d565b5f60408360608152606060208201520152565b60208091604051928184925191829101835e81015f815203019020426004820155600360ff19825416179055565b5f9291815491613db283613794565b9260018116908115613dfa5750600114613dcb57505050565b90919293505f5260205f205f905b838210613de65750500190565b600181602092548486015201910190613dd9565b60ff191683525050811515909102019150565b9190613e17613d55565b5060405192613e258461361d565b835260208301526001600160a01b0316604082015290565b60078210156128205752565b6040518151613c2892602091839181908401835e810160018152030190206137cc565b60ff1660ff81146103305760010190565b6001600160401b03811161031c5760051b60200190565b90613e9e82613e7d565b613eab60405191826136a6565b8281528092613ebc601f1991613e7d565b01905f5b828110613ecc57505050565b602090604051613edb81613638565b60608152606083820152606060408201525f60608201525f6080820152606060a08201525f60c082015282828501015201613ec0565b80518210156138d45760209160051b010190565b90604051613f3281613638565b60c060058294613f41816137cc565b8452613f4f600182016137cc565b6020850152613f60600282016137cc565b6040850152613f8460ff6003830154818116606088015260081c1660808601613e3d565b613f90600482016137cc565b60a08501520154910152565b90421115613fd25760208091604051928184925191829101835e81015f815203019020426006820155600560ff19825416179055565b60405162461bcd60e51b815260206004820152601860248201527f536572746966696b6174206d61736968206265726c616b7500000000000000006044820152606490fd5b604051906140248261368a565b6060610140835f81525f60208201525f60408201525f838201525f60808201525f60a08201525f60c08201525f60e082015261405e613d55565b61010082015261406c613d55565b6101208201520152565b60208091614082614017565b50604051928184925191829101835e81015f81520301902061412a600e604051926140ac8461368a565b6140ba60ff82541685613e3d565b60018101546020850152600281015460408501526003810154606085015260048101546080850152600581015460a0850152600681015460c0850152600781015460e085015261410c6008820161386c565b61010085015261411e600b820161386c565b610120850152016137cc565b61014082015290565b60208091939293604051928184925191829101835e81015f815203019020426007820155608242019081421161033057600e916005820155600660ff198254161781550182516001600160401b03811161031c576141918254613794565b601f8111614231575b506020601f82116001146141d357819293945f926141c8575b50508160011b915f199060031b1c1916179055565b015190505f806141b3565b601f19821690835f52805f20915f5b81811061421957509583600195969710614201575b505050811b019055565b01515f1960f88460031b161c191690555f80806141f7565b9192602060018192868b0151815501940192016141e2565b825f5260205f20601f830160051c8101916020841061426c575b601f0160051c01905b818110614261575061419a565b5f8155600101614254565b909150819061424b565b92919060405160208551918181818901948086835e81015f81520301902095604051928391518091835e81016001815203019020908051906001600160401b03821161031c5781906142c88454613794565b601f81116145c3575b50602090601f8311600114614560575f92614555575b50508160011b915f199060031b1c19161790555b80518051600b8501916001600160401b03821161031c5761431c8354613794565b601f8111614510575b50602090601f83116001146144a9576020949392915f918361449e575b50508160011b915f199060031b1c19161790555b6040810151600d850180546001600160a01b0319166001600160a01b039290921691909117905501518051909290600c8201906001600160401b03811161031c576143a18254613794565b601f8111614459575b50602094601f82116001146143f8579481929394955f926143ed575b50508160011b915f199060031b1c19161790555b426003820155805460ff19166002179055565b015190505f806143c6565b601f19821695835f52805f20915f5b88811061444157508360019596979810614429575b505050811b0190556143da565b01515f1960f88460031b161c191690555f808061441c565b91926020600181928685015181550194019201614407565b825f5260205f20601f830160051c81019160208410614494575b601f0160051c01905b81811061448957506143aa565b5f815560010161447c565b9091508190614473565b015190505f80614342565b90601f19831691845f52815f20925f5b8181106144f85750916001939185602098979694106144e0575b505050811b019055614356565b01515f1960f88460031b161c191690555f80806144d3565b929360206001819287860151815501950193016144b9565b835f5260205f20601f840160051c8101916020851061454b575b601f0160051c01905b8181106145405750614325565b5f8155600101614533565b909150819061452a565b015190505f806142e7565b5f8581528281209350601f198516905b8181106145ab5750908460019594939210614593575b505050811b0190556142fb565b01515f1960f88460031b161c191690555f8080614586565b92936020600181928786015181550195019301614570565b909150835f5260205f20601f840160051c81019160208510614609575b90601f859493920160051c01905b8181106145fb57506142d1565b5f81558493506001016145ee565b90915081906145e0565b6020809194939294604051928184925191829101835e81015f815203019020908051600b8301908051906001600160401b03821161031c576146558354613794565b601f811161493c575b50602090601f83116001146148d5576020949392915f91836148ca575b50508160011b915f199060031b1c19161790555b6040810151600d840180546001600160a01b0319166001600160a01b039290921691909117905501518051600c8301916001600160401b03821161031c5781906146d98454613794565b601f811161487a575b50602090601f8311600114614817575f9261480c575b50508160011b915f199060031b1c19161790555b426002820155608242019081421161033057600e916005820155600160ff198254161781550182516001600160401b03811161031c5761474c8254613794565b601f81116147c7575b506020601f821160011461478257819293945f926141c85750508160011b915f199060031b1c1916179055565b601f19821690835f52805f20915f5b8181106147af5750958360019596971061420157505050811b019055565b9192602060018192868b015181550194019201614791565b825f5260205f20601f830160051c81019160208410614802575b601f0160051c01905b8181106147f75750614755565b5f81556001016147ea565b90915081906147e1565b015190505f806146f8565b5f8581528281209350601f198516905b818110614862575090846001959493921061484a575b505050811b01905561470c565b01515f1960f88460031b161c191690555f808061483d565b92936020600181928786015181550195019301614827565b909150835f5260205f20601f840160051c810191602085106148c0575b90601f859493920160051c01905b8181106148b257506146e2565b5f81558493506001016148a5565b9091508190614897565b015190505f8061467b565b90601f19831691845f52815f20925f5b81811061492457509160019391856020989796941061490c575b505050811b01905561468f565b01515f1960f88460031b161c191690555f80806148ff565b929360206001819287860151815501950193016148e5565b835f5260205f20601f840160051c81019160208510614977575b601f0160051c01905b81811061496c575061465e565b5f815560010161495f565b9091508190614956565b9290916040516149908161368a565b5f81526020810194428652604082015f8152606083015f8152608084015f815260a08501905f825260c08601925f845260e08701945f8652610100880196875261012088019a8b5260209b8c80809b6149ec6040519d8e6136a6565b5f8d526101408c019c8d52604051928184925191829101835e81015f815203019020985160078110156128205760ff80198b541691161789555160018901555160028801555160038701555160048601555160058501555160068401555160078301556008820190519081518051906001600160401b03821161031c578190614a758454613794565b601f8111614f82575b508990601f8311600114614f1f575f92614f14575b50508160011b915f199060031b1c19161790555b60098201868201518051906001600160401b03821161031c578190614acc8454613794565b601f8111614ec6575b508990601f8311600114614e63575f92614e58575b50508160011b915f199060031b1c19161790555b60400151600a820180546001600160a01b0319166001600160a01b0392909216919091179055925180518051919491600b8301916001600160401b03821161031c578190614b4c8454613794565b601f8111614e0a575b508890601f8311600114614da7575f92614d9c575b50508160011b915f199060031b1c19161790555b600c81019385810151948551956001600160401b03871161031c57614ba38254613794565b601f8111614d59575b508790601f8811600114614cf257968091600e9697985f92614ce7575b50508160011b915f199060031b1c19161790555b60400151600d820180546001600160a01b0319166001600160a01b03929092169190911790559151805190949190920191906001600160401b03821161031c57614c278354613794565b601f8111614ca4575b5080601f8311600114614c5d5750819293945f926141c85750508160011b915f199060031b1c1916179055565b90601f19831695845f52825f20925f905b888210614c8c5750508360019596971061420157505050811b019055565b80600185968294968601518155019501930190614c6e565b835f52815f20601f840160051c810191838510614cdd575b601f0160051c01905b818110614cd25750614c30565b5f8155600101614cc5565b9091508190614cbc565b015190505f80614bc9565b90601f19881691835f52895f20925f5b8b828210614d4357505091600193918a600e999a9b9410614d2b575b505050811b019055614bdd565b01515f1960f88460031b161c191690555f8080614d1e565b6001859682939686015181550195019301614d02565b825f52885f20601f890160051c8101918a8a10614d92575b601f0160051c01905b818110614d875750614bac565b5f8155600101614d7a565b9091508190614d71565b015190505f80614b6a565b5f8581528a81209350601f198516905b8b828210614df4575050908460019594939210614ddc575b505050811b019055614b7e565b01515f1960f88460031b161c191690555f8080614dcf565b6001859682939686015181550195019301614db7565b909150835f52885f20601f840160051c8101918a8510614e4e575b90601f859493920160051c01905b818110614e405750614b55565b5f8155849350600101614e33565b9091508190614e25565b015190505f80614aea565b5f8581528b81209350601f198516905b8c828210614eb0575050908460019594939210614e98575b505050811b019055614afe565b01515f1960f88460031b161c191690555f8080614e8b565b6001859682939686015181550195019301614e73565b909150835f52895f20601f840160051c8101918b8510614f0a575b90601f859493920160051c01905b818110614efc5750614ad5565b5f8155849350600101614eef565b9091508190614ee1565b015190505f80614a93565b5f8581528b81209350601f198516905b8c828210614f6c575050908460019594939210614f54575b505050811b019055614aa7565b01515f1960f88460031b161c191690555f8080614f47565b6001859682939686015181550195019301614f2f565b909150835f52895f20601f840160051c8101918b8510614fc6575b90601f859493920160051c01905b818110614fb85750614a7e565b5f8155849350600101614fab565b9091508190614f9d56fea2646970667358221220127d3fd6997316e9745d0a57dfec9f736a54d88510ab19f1deb40d9719524bb964736f6c634300081b0033",
  "linkReferences": {},
  "deployedLinkReferences": {}
}