{
  "_format": "hh-sol-artifact-1",
  "contractName": "CdobCertificate",
  "sourceName": "contracts/CdobCertificate.sol",
  "abi": [
    {
      "inputs": [
        {
          "internalType": "uint256",
          "name": "",
          "type": "uint256"
        }
      ],
      "name": "allCdobData",
      "outputs": [
        {
          "internalType": "string",
          "name": "certId",
          "type": "string"
        },
        {
          "internalType": "string",
          "name": "certNumber",
          "type": "string"
        },
        {
          "internalType": "string",
          "name": "instanceName",
          "type": "string"
        },
        {
          "internalType": "uint8",
          "name": "tipePermohonan",
          "type": "uint8"
        },
        {
          "internalType": "enum EnumsLibrary.StatusCertificate",
          "name": "status",
          "type": "uint8"
        },
        {
          "internalType": "string",
          "name": "certHash",
          "type": "string"
        },
        {
          "internalType": "uint256",
          "name": "expiredTimestamp",
          "type": "uint256"
        }
      ],
      "stateMutability": "view",
      "type": "function"
    },
    {
      "inputs": [
        {
          "internalType": "string",
          "name": "certNumber",
          "type": "string"
        },
        {
          "internalType": "string",
          "name": "certId",
          "type": "string"
        },
        {
          "internalType": "string",
          "name": "bpomName",
          "type": "string"
        },
        {
          "internalType": "string",
          "name": "bpomInstance",
          "type": "string"
        },
        {
          "internalType": "address",
          "name": "bpomAddr",
          "type": "address"
        },
        {
          "internalType": "string",
          "name": "ipfsCert",
          "type": "string"
        }
      ],
      "name": "approveCdob",
      "outputs": [],
      "stateMutability": "nonpayable",
      "type": "function"
    },
    {
      "inputs": [
        {
          "internalType": "string",
          "name": "certId",
          "type": "string"
        },
        {
          "internalType": "string",
          "name": "ipfsCert",
          "type": "string"
        }
      ],
      "name": "approveExtendCdob",
      "outputs": [],
      "stateMutability": "nonpayable",
      "type": "function"
    },
    {
      "inputs": [
        {
          "internalType": "string",
          "name": "",
          "type": "string"
        }
      ],
      "name": "cdobDataById",
      "outputs": [
        {
          "internalType": "string",
          "name": "cdobId",
          "type": "string"
        },
        {
          "internalType": "string",
          "name": "cdobNumber",
          "type": "string"
        },
        {
          "internalType": "uint8",
          "name": "tipePermohonan",
          "type": "uint8"
        }
      ],
      "stateMutability": "view",
      "type": "function"
    },
    {
      "inputs": [
        {
          "internalType": "string",
          "name": "",
          "type": "string"
        }
      ],
      "name": "certDetailById",
      "outputs": [
        {
          "internalType": "enum EnumsLibrary.StatusCertificate",
          "name": "status",
          "type": "uint8"
        },
        {
          "internalType": "uint256",
          "name": "timestampRequest",
          "type": "uint256"
        },
        {
          "internalType": "uint256",
          "name": "timestampApprove",
          "type": "uint256"
        },
        {
          "internalType": "uint256",
          "name": "timestampRejected",
          "type": "uint256"
        },
        {
          "internalType": "uint256",
          "name": "timestampRenewRequest",
          "type": "uint256"
        },
        {
          "internalType": "uint256",
          "name": "timestampExpired",
          "type": "uint256"
        },
        {
          "internalType": "uint256",
          "name": "timestampExtendRequest",
          "type": "uint256"
        },
        {
          "internalType": "uint256",
          "name": "timestampExtendApprove",
          "type": "uint256"
        },
        {
          "internalType": "uint256",
          "name": "timestampExtendReject",
          "type": "uint256"
        },
        {
          "internalType": "uint256",
          "name": "timestampExtendRenew",
          "type": "uint256"
        },
        {
          "components": [
            {
              "internalType": "string",
              "name": "userName",
              "type": "string"
            },
            {
              "internalType": "string",
              "name": "userInstance",
              "type": "string"
            },
            {
              "internalType": "address",
              "name": "userAddr",
              "type": "address"
            }
          ],
          "internalType": "struct BaseCertificate.UserCert",
          "name": "sender",
          "type": "tuple"
        },
        {
          "components": [
            {
              "internalType": "string",
              "name": "userName",
              "type": "string"
            },
            {
              "internalType": "string",
              "name": "userInstance",
              "type": "string"
            },
            {
              "internalType": "address",
              "name": "userAddr",
              "type": "address"
            }
          ],
          "internalType": "struct BaseCertificate.UserCert",
          "name": "bpom",
          "type": "tuple"
        },
        {
          "internalType": "string",
          "name": "ipfsCert",
          "type": "string"
        }
      ],
      "stateMutability": "view",
      "type": "function"
    },
    {
      "inputs": [
        {
          "components": [
            {
              "internalType": "string",
              "name": "userName",
              "type": "string"
            },
            {
              "internalType": "string",
              "name": "userInstance",
              "type": "string"
            },
            {
              "internalType": "address",
              "name": "userAddr",
              "type": "address"
            }
          ],
          "internalType": "struct BaseCertificate.UserCert",
          "name": "senderData",
          "type": "tuple"
        },
        {
          "components": [
            {
              "internalType": "string",
              "name": "userName",
              "type": "string"
            },
            {
              "internalType": "string",
              "name": "userInstance",
              "type": "string"
            },
            {
              "internalType": "address",
              "name": "userAddr",
              "type": "address"
            }
          ],
          "internalType": "struct BaseCertificate.UserCert",
          "name": "bpomData",
          "type": "tuple"
        },
        {
          "internalType": "string",
          "name": "certId",
          "type": "string"
        }
      ],
      "name": "createCertificateDetails",
      "outputs": [],
      "stateMutability": "nonpayable",
      "type": "function"
    },
    {
      "inputs": [
        {
          "internalType": "string",
          "name": "userName",
          "type": "string"
        },
        {
          "internalType": "string",
          "name": "userInstance",
          "type": "string"
        },
        {
          "internalType": "address",
          "name": "userAddr",
          "type": "address"
        }
      ],
      "name": "createUserCertificate",
      "outputs": [
        {
          "components": [
            {
              "internalType": "string",
              "name": "userName",
              "type": "string"
            },
            {
              "internalType": "string",
              "name": "userInstance",
              "type": "string"
            },
            {
              "internalType": "address",
              "name": "userAddr",
              "type": "address"
            }
          ],
          "internalType": "struct BaseCertificate.UserCert",
          "name": "",
          "type": "tuple"
        }
      ],
      "stateMutability": "pure",
      "type": "function"
    },
    {
      "inputs": [
        {
          "internalType": "string",
          "name": "",
          "type": "string"
        }
      ],
      "name": "dokuAdminById",
      "outputs": [
        {
          "internalType": "string",
          "name": "suratPermohonan",
          "type": "string"
        },
        {
          "internalType": "string",
          "name": "buktiPembayaranPajak",
          "type": "string"
        }
      ],
      "stateMutability": "view",
      "type": "function"
    },
    {
      "inputs": [
        {
          "internalType": "string",
          "name": "",
          "type": "string"
        }
      ],
      "name": "dokuReSertifikasiById",
      "outputs": [
        {
          "internalType": "string",
          "name": "suratPernyataanPimpinan",
          "type": "string"
        },
        {
          "internalType": "string",
          "name": "dokumenInspeksiDiri",
          "type": "string"
        },
        {
          "internalType": "string",
          "name": "dokumenPerbaikan",
          "type": "string"
        }
      ],
      "stateMutability": "view",
      "type": "function"
    },
    {
      "inputs": [
        {
          "internalType": "string",
          "name": "",
          "type": "string"
        }
      ],
      "name": "dokuTeknisById",
      "outputs": [
        {
          "internalType": "string",
          "name": "suratIzinCdob",
          "type": "string"
        },
        {
          "internalType": "string",
          "name": "denahBangunan",
          "type": "string"
        },
        {
          "internalType": "string",
          "name": "strukturOrganisasi",
          "type": "string"
        },
        {
          "internalType": "string",
          "name": "daftarPersonalia",
          "type": "string"
        },
        {
          "internalType": "string",
          "name": "daftarPeralatan",
          "type": "string"
        },
        {
          "internalType": "string",
          "name": "eksekutifQualityManagement",
          "type": "string"
        },
        {
          "internalType": "string",
          "name": "suratIzinApoteker",
          "type": "string"
        },
        {
          "internalType": "string",
          "name": "dokumenSelfAssesment",
          "type": "string"
        }
      ],
      "stateMutability": "view",
      "type": "function"
    },
    {
      "inputs": [
        {
          "internalType": "string",
          "name": "certId",
          "type": "string"
        },
        {
          "internalType": "uint256",
          "name": "expTimestamp",
          "type": "uint256"
        },
        {
          "components": [
            {
              "internalType": "string",
              "name": "suratPernyataanPimpinan",
              "type": "string"
            },
            {
              "internalType": "string",
              "name": "dokumenInspeksiDiri",
              "type": "string"
            },
            {
              "internalType": "string",
              "name": "dokumenPerbaikan",
              "type": "string"
            }
          ],
          "internalType": "struct CdobCertificate.DokumenReSertifikasi",
          "name": "newDoku",
          "type": "tuple"
        }
      ],
      "name": "extendCdob",
      "outputs": [],
      "stateMutability": "nonpayable",
      "type": "function"
    },
    {
      "inputs": [],
      "name": "getAllCdob",
      "outputs": [
        {
          "components": [
            {
              "internalType": "string",
              "name": "certId",
              "type": "string"
            },
            {
              "internalType": "string",
              "name": "certNumber",
              "type": "string"
            },
            {
              "internalType": "string",
              "name": "instanceName",
              "type": "string"
            },
            {
              "internalType": "uint8",
              "name": "tipePermohonan",
              "type": "uint8"
            },
            {
              "internalType": "enum EnumsLibrary.StatusCertificate",
              "name": "status",
              "type": "uint8"
            },
            {
              "internalType": "string",
              "name": "certHash",
              "type": "string"
            },
            {
              "internalType": "uint256",
              "name": "expiredTimestamp",
              "type": "uint256"
            }
          ],
          "internalType": "struct CdobCertificate.CertificateList[]",
          "name": "",
          "type": "tuple[]"
        }
      ],
      "stateMutability": "view",
      "type": "function"
    },
    {
      "inputs": [
        {
          "internalType": "string",
          "name": "instanceName",
          "type": "string"
        }
      ],
      "name": "getAllCdobByInstance",
      "outputs": [
        {
          "components": [
            {
              "internalType": "string",
              "name": "certId",
              "type": "string"
            },
            {
              "internalType": "string",
              "name": "certNumber",
              "type": "string"
            },
            {
              "internalType": "string",
              "name": "instanceName",
              "type": "string"
            },
            {
              "internalType": "uint8",
              "name": "tipePermohonan",
              "type": "uint8"
            },
            {
              "internalType": "enum EnumsLibrary.StatusCertificate",
              "name": "status",
              "type": "uint8"
            },
            {
              "internalType": "string",
              "name": "certHash",
              "type": "string"
            },
            {
              "internalType": "uint256",
              "name": "expiredTimestamp",
              "type": "uint256"
            }
          ],
          "internalType": "struct CdobCertificate.CertificateList[]",
          "name": "",
          "type": "tuple[]"
        }
      ],
      "stateMutability": "view",
      "type": "function"
    },
    {
      "inputs": [
        {
          "internalType": "string",
          "name": "certId",
          "type": "string"
        }
      ],
      "name": "getCdobDetails",
      "outputs": [
        {
          "components": [
            {
              "internalType": "string",
              "name": "cdobId",
              "type": "string"
            },
            {
              "internalType": "string",
              "name": "cdobNumber",
              "type": "string"
            },
            {
              "internalType": "uint8",
              "name": "tipePermohonan",
              "type": "uint8"
            }
          ],
          "internalType": "struct CdobCertificate.CdobData",
          "name": "",
          "type": "tuple"
        },
        {
          "components": [
            {
              "internalType": "string",
              "name": "suratPermohonan",
              "type": "string"
            },
            {
              "internalType": "string",
              "name": "buktiPembayaranPajak",
              "type": "string"
            }
          ],
          "internalType": "struct CdobCertificate.DokumenAdministrasi",
          "name": "",
          "type": "tuple"
        },
        {
          "components": [
            {
              "internalType": "string",
              "name": "suratIzinCdob",
              "type": "string"
            },
            {
              "internalType": "string",
              "name": "denahBangunan",
              "type": "string"
            },
            {
              "internalType": "string",
              "name": "strukturOrganisasi",
              "type": "string"
            },
            {
              "internalType": "string",
              "name": "daftarPersonalia",
              "type": "string"
            },
            {
              "internalType": "string",
              "name": "daftarPeralatan",
              "type": "string"
            },
            {
              "internalType": "string",
              "name": "eksekutifQualityManagement",
              "type": "string"
            },
            {
              "internalType": "string",
              "name": "suratIzinApoteker",
              "type": "string"
            },
            {
              "internalType": "string",
              "name": "dokumenSelfAssesment",
              "type": "string"
            }
          ],
          "internalType": "struct CdobCertificate.DokumenTeknis",
          "name": "",
          "type": "tuple"
        },
        {
          "components": [
            {
              "internalType": "string",
              "name": "suratPernyataanPimpinan",
              "type": "string"
            },
            {
              "internalType": "string",
              "name": "dokumenInspeksiDiri",
              "type": "string"
            },
            {
              "internalType": "string",
              "name": "dokumenPerbaikan",
              "type": "string"
            }
          ],
          "internalType": "struct CdobCertificate.DokumenReSertifikasi",
          "name": "",
          "type": "tuple"
        }
      ],
      "stateMutability": "view",
      "type": "function"
    },
    {
      "inputs": [
        {
          "internalType": "string",
          "name": "certId",
          "type": "string"
        }
      ],
      "name": "getCertDetail",
      "outputs": [
        {
          "components": [
            {
              "internalType": "enum EnumsLibrary.StatusCertificate",
              "name": "status",
              "type": "uint8"
            },
            {
              "internalType": "uint256",
              "name": "timestampRequest",
              "type": "uint256"
            },
            {
              "internalType": "uint256",
              "name": "timestampApprove",
              "type": "uint256"
            },
            {
              "internalType": "uint256",
              "name": "timestampRejected",
              "type": "uint256"
            },
            {
              "internalType": "uint256",
              "name": "timestampRenewRequest",
              "type": "uint256"
            },
            {
              "internalType": "uint256",
              "name": "timestampExpired",
              "type": "uint256"
            },
            {
              "internalType": "uint256",
              "name": "timestampExtendRequest",
              "type": "uint256"
            },
            {
              "internalType": "uint256",
              "name": "timestampExtendApprove",
              "type": "uint256"
            },
            {
              "internalType": "uint256",
              "name": "timestampExtendReject",
              "type": "uint256"
            },
            {
              "internalType": "uint256",
              "name": "timestampExtendRenew",
              "type": "uint256"
            },
            {
              "components": [
                {
                  "internalType": "string",
                  "name": "userName",
                  "type": "string"
                },
                {
                  "internalType": "string",
                  "name": "userInstance",
                  "type": "string"
                },
                {
                  "internalType": "address",
                  "name": "userAddr",
                  "type": "address"
                }
              ],
              "internalType": "struct BaseCertificate.UserCert",
              "name": "sender",
              "type": "tuple"
            },
            {
              "components": [
                {
                  "internalType": "string",
                  "name": "userName",
                  "type": "string"
                },
                {
                  "internalType": "string",
                  "name": "userInstance",
                  "type": "string"
                },
                {
                  "internalType": "address",
                  "name": "userAddr",
                  "type": "address"
                }
              ],
              "internalType": "struct BaseCertificate.UserCert",
              "name": "bpom",
              "type": "tuple"
            },
            {
              "internalType": "string",
              "name": "ipfsCert",
              "type": "string"
            }
          ],
          "internalType": "struct BaseCertificate.CertificateDetails",
          "name": "",
          "type": "tuple"
        }
      ],
      "stateMutability": "view",
      "type": "function"
    },
    {
      "inputs": [
        {
          "internalType": "string",
          "name": "certId",
          "type": "string"
        }
      ],
      "name": "getCertDetails",
      "outputs": [
        {
          "components": [
            {
              "internalType": "enum EnumsLibrary.StatusCertificate",
              "name": "status",
              "type": "uint8"
            },
            {
              "internalType": "uint256",
              "name": "timestampRequest",
              "type": "uint256"
            },
            {
              "internalType": "uint256",
              "name": "timestampApprove",
              "type": "uint256"
            },
            {
              "internalType": "uint256",
              "name": "timestampRejected",
              "type": "uint256"
            },
            {
              "internalType": "uint256",
              "name": "timestampRenewRequest",
              "type": "uint256"
            },
            {
              "internalType": "uint256",
              "name": "timestampExpired",
              "type": "uint256"
            },
            {
              "internalType": "uint256",
              "name": "timestampExtendRequest",
              "type": "uint256"
            },
            {
              "internalType": "uint256",
              "name": "timestampExtendApprove",
              "type": "uint256"
            },
            {
              "internalType": "uint256",
              "name": "timestampExtendReject",
              "type": "uint256"
            },
            {
              "internalType": "uint256",
              "name": "timestampExtendRenew",
              "type": "uint256"
            },
            {
              "components": [
                {
                  "internalType": "string",
                  "name": "userName",
                  "type": "string"
                },
                {
                  "internalType": "string",
                  "name": "userInstance",
                  "type": "string"
                },
                {
                  "internalType": "address",
                  "name": "userAddr",
                  "type": "address"
                }
              ],
              "internalType": "struct BaseCertificate.UserCert",
              "name": "sender",
              "type": "tuple"
            },
            {
              "components": [
                {
                  "internalType": "string",
                  "name": "userName",
                  "type": "string"
                },
                {
                  "internalType": "string",
                  "name": "userInstance",
                  "type": "string"
                },
                {
                  "internalType": "address",
                  "name": "userAddr",
                  "type": "address"
                }
              ],
              "internalType": "struct BaseCertificate.UserCert",
              "name": "bpom",
              "type": "tuple"
            },
            {
              "internalType": "string",
              "name": "ipfsCert",
              "type": "string"
            }
          ],
          "internalType": "struct BaseCertificate.CertificateDetails",
          "name": "",
          "type": "tuple"
        }
      ],
      "stateMutability": "view",
      "type": "function"
    },
    {
      "inputs": [
        {
          "internalType": "string",
          "name": "certId",
          "type": "string"
        }
      ],
      "name": "getRejectMsg",
      "outputs": [
        {
          "internalType": "string",
          "name": "",
          "type": "string"
        },
        {
          "internalType": "string",
          "name": "",
          "type": "string"
        }
      ],
      "stateMutability": "view",
      "type": "function"
    },
    {
      "inputs": [
        {
          "internalType": "string",
          "name": "certId",
          "type": "string"
        }
      ],
      "name": "getRejectsMsg",
      "outputs": [
        {
          "internalType": "string",
          "name": "",
          "type": "string"
        },
        {
          "internalType": "string",
          "name": "",
          "type": "string"
        }
      ],
      "stateMutability": "view",
      "type": "function"
    },
    {
      "inputs": [
        {
          "internalType": "string",
          "name": "certId",
          "type": "string"
        }
      ],
      "name": "getSenderDetail",
      "outputs": [
        {
          "components": [
            {
              "internalType": "string",
              "name": "userName",
              "type": "string"
            },
            {
              "internalType": "string",
              "name": "userInstance",
              "type": "string"
            },
            {
              "internalType": "address",
              "name": "userAddr",
              "type": "address"
            }
          ],
          "internalType": "struct BaseCertificate.UserCert",
          "name": "",
          "type": "tuple"
        }
      ],
      "stateMutability": "view",
      "type": "function"
    },
    {
      "inputs": [
        {
          "internalType": "string",
          "name": "certId",
          "type": "string"
        },
        {
          "internalType": "string",
          "name": "rejectMsg",
          "type": "string"
        },
        {
          "internalType": "string",
          "name": "bpomName",
          "type": "string"
        },
        {
          "internalType": "string",
          "name": "bpomInstance",
          "type": "string"
        },
        {
          "internalType": "address",
          "name": "bpomAddr",
          "type": "address"
        }
      ],
      "name": "rejectCdob",
      "outputs": [],
      "stateMutability": "nonpayable",
      "type": "function"
    },
    {
      "inputs": [
        {
          "internalType": "string",
          "name": "certId",
          "type": "string"
        },
        {
          "internalType": "string",
          "name": "rejectExtendMsg",
          "type": "string"
        }
      ],
      "name": "rejectExtendCdob",
      "outputs": [],
      "stateMutability": "nonpayable",
      "type": "function"
    },
    {
      "inputs": [
        {
          "internalType": "string",
          "name": "",
          "type": "string"
        }
      ],
      "name": "rejectMsgById",
      "outputs": [
        {
          "internalType": "string",
          "name": "",
          "type": "string"
        }
      ],
      "stateMutability": "view",
      "type": "function"
    },
    {
      "inputs": [
        {
          "internalType": "string",
          "name": "",
          "type": "string"
        }
      ],
      "name": "rejectMsgExtendById",
      "outputs": [
        {
          "internalType": "string",
          "name": "",
          "type": "string"
        }
      ],
      "stateMutability": "view",
      "type": "function"
    },
    {
      "inputs": [
        {
          "internalType": "string",
          "name": "certId",
          "type": "string"
        },
        {
          "components": [
            {
              "internalType": "string",
              "name": "suratPernyataanPimpinan",
              "type": "string"
            },
            {
              "internalType": "string",
              "name": "dokumenInspeksiDiri",
              "type": "string"
            },
            {
              "internalType": "string",
              "name": "dokumenPerbaikan",
              "type": "string"
            }
          ],
          "internalType": "struct CdobCertificate.DokumenReSertifikasi",
          "name": "newDoku",
          "type": "tuple"
        }
      ],
      "name": "renewExtendCdob",
      "outputs": [],
      "stateMutability": "nonpayable",
      "type": "function"
    },
    {
      "inputs": [
        {
          "internalType": "string",
          "name": "certId",
          "type": "string"
        },
        {
          "components": [
            {
              "internalType": "string",
              "name": "suratPermohonan",
              "type": "string"
            },
            {
              "internalType": "string",
              "name": "buktiPembayaranPajak",
              "type": "string"
            }
          ],
          "internalType": "struct CdobCertificate.DokumenAdministrasi",
          "name": "newDokuAdmin",
          "type": "tuple"
        },
        {
          "components": [
            {
              "internalType": "string",
              "name": "suratIzinCdob",
              "type": "string"
            },
            {
              "internalType": "string",
              "name": "denahBangunan",
              "type": "string"
            },
            {
              "internalType": "string",
              "name": "strukturOrganisasi",
              "type": "string"
            },
            {
              "internalType": "string",
              "name": "daftarPersonalia",
              "type": "string"
            },
            {
              "internalType": "string",
              "name": "daftarPeralatan",
              "type": "string"
            },
            {
              "internalType": "string",
              "name": "eksekutifQualityManagement",
              "type": "string"
            },
            {
              "internalType": "string",
              "name": "suratIzinApoteker",
              "type": "string"
            },
            {
              "internalType": "string",
              "name": "dokumenSelfAssesment",
              "type": "string"
            }
          ],
          "internalType": "struct CdobCertificate.DokumenTeknis",
          "name": "newDokuTeknis",
          "type": "tuple"
        }
      ],
      "name": "renewRequestCdob",
      "outputs": [],
      "stateMutability": "nonpayable",
      "type": "function"
    },
    {
      "inputs": [
        {
          "internalType": "string",
          "name": "certId",
          "type": "string"
        },
        {
          "internalType": "string",
          "name": "pbfName",
          "type": "string"
        },
        {
          "internalType": "string",
          "name": "pbfInstance",
          "type": "string"
        },
        {
          "internalType": "address",
          "name": "pbfAddr",
          "type": "address"
        },
        {
          "internalType": "uint8",
          "name": "tipePermohonan",
          "type": "uint8"
        },
        {
          "components": [
            {
              "internalType": "string",
              "name": "suratPermohonan",
              "type": "string"
            },
            {
              "internalType": "string",
              "name": "buktiPembayaranPajak",
              "type": "string"
            }
          ],
          "internalType": "struct CdobCertificate.DokumenAdministrasi",
          "name": "dokuAdmin",
          "type": "tuple"
        },
        {
          "components": [
            {
              "internalType": "string",
              "name": "suratIzinCdob",
              "type": "string"
            },
            {
              "internalType": "string",
              "name": "denahBangunan",
              "type": "string"
            },
            {
              "internalType": "string",
              "name": "strukturOrganisasi",
              "type": "string"
            },
            {
              "internalType": "string",
              "name": "daftarPersonalia",
              "type": "string"
            },
            {
              "internalType": "string",
              "name": "daftarPeralatan",
              "type": "string"
            },
            {
              "internalType": "string",
              "name": "eksekutifQualityManagement",
              "type": "string"
            },
            {
              "internalType": "string",
              "name": "suratIzinApoteker",
              "type": "string"
            },
            {
              "internalType": "string",
              "name": "dokumenSelfAssesment",
              "type": "string"
            }
          ],
          "internalType": "struct CdobCertificate.DokumenTeknis",
          "name": "dokuTeknis",
          "type": "tuple"
        }
      ],
      "name": "requestCdob",
      "outputs": [],
      "stateMutability": "nonpayable",
      "type": "function"
    },
    {
      "inputs": [
        {
          "internalType": "string",
          "name": "certId",
          "type": "string"
        },
        {
          "internalType": "string",
          "name": "ipfsCert",
          "type": "string"
        },
        {
          "components": [
            {
              "internalType": "string",
              "name": "userName",
              "type": "string"
            },
            {
              "internalType": "string",
              "name": "userInstance",
              "type": "string"
            },
            {
              "internalType": "address",
              "name": "userAddr",
              "type": "address"
            }
          ],
          "internalType": "struct BaseCertificate.UserCert",
          "name": "bpomData",
          "type": "tuple"
        }
      ],
      "name": "updateBpomApproveDetails",
      "outputs": [],
      "stateMutability": "nonpayable",
      "type": "function"
    },
    {
      "inputs": [
        {
          "internalType": "string",
          "name": "certId",
          "type": "string"
        },
        {
          "internalType": "string",
          "name": "ipfsCert",
          "type": "string"
        }
      ],
      "name": "updateBpomApproveExtendCertificateDetails",
      "outputs": [],
      "stateMutability": "nonpayable",
      "type": "function"
    },
    {
      "inputs": [
        {
          "internalType": "string",
          "name": "certId",
          "type": "string"
        },
        {
          "internalType": "string",
          "name": "ipfsCert",
          "type": "string"
        }
      ],
      "name": "updateBpomExtendCertificateDetails",
      "outputs": [],
      "stateMutability": "nonpayable",
      "type": "function"
    },
    {
      "inputs": [
        {
          "internalType": "string",
          "name": "certId",
          "type": "string"
        },
        {
          "internalType": "string",
          "name": "rejectMsg",
          "type": "string"
        },
        {
          "components": [
            {
              "internalType": "string",
              "name": "userName",
              "type": "string"
            },
            {
              "internalType": "string",
              "name": "userInstance",
              "type": "string"
            },
            {
              "internalType": "address",
              "name": "userAddr",
              "type": "address"
            }
          ],
          "internalType": "struct BaseCertificate.UserCert",
          "name": "bpomData",
          "type": "tuple"
        }
      ],
      "name": "updateBpomRejectDetails",
      "outputs": [],
      "stateMutability": "nonpayable",
      "type": "function"
    },
    {
      "inputs": [
        {
          "internalType": "string",
          "name": "certId",
          "type": "string"
        },
        {
          "internalType": "string",
          "name": "rejectMsg",
          "type": "string"
        }
      ],
      "name": "updateBpomRejectExtendCertificateDetails",
      "outputs": [],
      "stateMutability": "nonpayable",
      "type": "function"
    },
    {
      "inputs": [
        {
          "internalType": "string",
          "name": "certId",
          "type": "string"
        },
        {
          "internalType": "uint256",
          "name": "expiredTimestamp",
          "type": "uint256"
        }
      ],
      "name": "updateExtendRenewDetails",
      "outputs": [],
      "stateMutability": "nonpayable",
      "type": "function"
    },
    {
      "inputs": [
        {
          "internalType": "string",
          "name": "certId",
          "type": "string"
        }
      ],
      "name": "updateRenewDetails",
      "outputs": [],
      "stateMutability": "nonpayable",
      "type": "function"
    },
    {
      "inputs": [
        {
          "internalType": "string",
          "name": "certId",
          "type": "string"
        }
      ],
      "name": "updateRenewExtendCertificateDetails",
      "outputs": [],
      "stateMutability": "nonpayable",
      "type": "function"
    }
  ],
  "bytecode": "0x60808060405234601557615d48908161001a8239f35b5f80fdfe60806040526004361015610011575f80fd5b5f3560e01c806307b11c0b14613cc157806317e6830914613c6057806319859c8714613c285780631acf250014613aef578063252006af14613a4757806326c6d4c5146139f15780632b93f7f2146135435780632e9cf827146134bf57806334a34f301461339d5780633a947f1a1461336557806343762aa814613291578063500619d0146131555780635691acf7146130ae578063682053d914611d0c57806369046dd3146118d65780636d1aa7d51461169f5780636f12c2301461177357806372c17cb9146116d7578063761fb19a1461169f5780637ab096481461162f5780637e8f8da71461126c5780639740dbed146112305780639aaa5d8b146111f55780639c6b1f101461112d578063a722652714610514578063be2e2325146104c4578063bf3f80ac1461045a578063ceee106714610443578063d26196fd1461042c578063e9c260d714610415578063f14261d21461039d578063f5104ff114610386578063f53ef1261461020e5763fb5fb9a31461018f575f80fd5b3461020a57606036600319011261020a576004356001600160401b03811161020a576101bf9036906004016147d9565b6024356001600160401b03811161020a576101de9036906004016147d9565b90604435916001600160401b03831161020a576102026102089336906004016141a1565b916156a4565b005b5f80fd5b3461020a5760208061021f366142f1565b9290604051928184925191829101835e81015f8152030190204260028201556082420190814211610372576010916005820155600660ff198254161781550181516001600160401b03811161035e57610278825461433e565b601f8111610319575b50602092601f82116001146102bd57928192935f926102b2575b50505f19600383901b1c191660019190911b179055005b01519050838061029b565b601f19821693835f52805f20915f5b86811061030157508360019596106102e9575b505050811b019055005b01515f1960f88460031b161c191690558380806102df565b919260206001819286850151815501940192016102cc565b825f5260205f20601f830160051c81019160208410610354575b601f0160051c01905b8181106103495750610281565b5f815560010161033c565b9091508190610333565b634e487b7160e01b5f52604160045260245ffd5b634e487b7160e01b5f52601160045260245ffd5b3461020a5761020861039736614851565b91615336565b3461020a575f36600319011261020a576003546103b981614a48565b905f805b8282106103d657604051806103d28682614644565b0390f35b61040d6001916104076103f16103eb86614462565b50614ad9565b60ff831690610400828a614ac5565b5287614ac5565b50614a20565b9101906103bd565b3461020a5761020861042636614851565b91614f99565b3461020a5761020861043d366142f1565b90614e56565b3461020a57610208610454366142f1565b90614d0b565b3461020a57602036600319011261020a576004356001600160401b03811161020a576104b06020806104936103d29436906004016141a1565b604051928184925191829101835e81016001815203019020614376565b604051918291602083526020830190614279565b3461020a57602036600319011261020a576004356001600160401b03811161020a576105086104fa6103d29236906004016141a1565b610502614bcb565b50614c38565b60405191829182614714565b3461020a57606036600319011261020a576004356001600160401b03811161020a576105449036906004016141a1565b6024356001600160401b03811161020a57610563903690600401614492565b906044356001600160401b03811161020a576105839036906004016144ec565b61058c82614943565b6003549160208101905f5b8481106105a057005b6105a981614462565b506040516105cd816105bf6020820180956148b9565b03601f198101835282614180565b51902060405160208101906105fa6020828751808a875e81015f838201520301601f198101835282614180565b5190201461060b575b600101610597565b600361061682614462565b5001805461ff001916610300179055610640602061063383614462565b50604051928380926148b9565b600581520301902086518051906001600160401b03821161035e57610665835461433e565b601f81116110e8575b50602090601f83116001146110825760019392915f9183611077575b50505f19600383901b1c191690831b1781555b0160208701518051906001600160401b03821161035e5781906106c0845461433e565b601f8111611027575b50602090601f8311600114610fc4575f92610fb9575b50508160011b915f199060031b1c19161790555b610701602061063383614462565b600681520301902084518051906001600160401b03821161035e578190610728845461433e565b601f8111610f69575b50602090601f8311600114610f06575f92610efb575b50508160011b915f199060031b1c19161781555b6001810160208601518051906001600160401b03821161035e578190610781845461433e565b601f8111610eab575b50602090601f8311600114610e48575f92610e3d575b50508160011b915f199060031b1c19161790555b6002810160408601518051906001600160401b03821161035e5781906107da845461433e565b601f8111610ded575b50602090601f8311600114610d8a575f92610d7f575b50508160011b915f199060031b1c19161790555b6003810160608601518051906001600160401b03821161035e578190610833845461433e565b601f8111610d2f575b50602090601f8311600114610ccc575f92610cc1575b50508160011b915f199060031b1c19161790555b6004810160808601518051906001600160401b03821161035e57819061088c845461433e565b601f8111610c71575b50602090601f8311600114610c0e575f92610c03575b50508160011b915f199060031b1c19161790555b6005810160a08601518051906001600160401b03821161035e5781906108e5845461433e565b601f8111610bb3575b50602090601f8311600114610b50575f92610b45575b50508160011b915f199060031b1c19161790555b6006810160c08601518051906001600160401b03821161035e5761093c835461433e565b601f8111610b00575b50602090601f8311600114610a99576007949392915f9183610a8e575b50508160011b915f199060031b1c19161790555b0160e08501518051906001600160401b03821161035e57610997835461433e565b601f8111610a49575b50602090601f83116001146109e2576001949392915f91836109d7575b50505f19600383901b1c191690841b1790555b9050610603565b015190508a806109bd565b90601f19831691845f52815f20925f5b818110610a31575091600196959492918388959310610a19575b505050811b0190556109d0565b01515f1960f88460031b161c191690558a8080610a0c565b929360206001819287860151815501950193016109f2565b835f5260205f20601f840160051c81019160208510610a84575b601f0160051c01905b818110610a7957506109a0565b5f8155600101610a6c565b9091508190610a63565b015190508b80610962565b90601f19831691845f52815f20925f5b818110610ae8575091600193918560079897969410610ad0575b505050811b019055610976565b01515f1960f88460031b161c191690558b8080610ac3565b92936020600181928786015181550195019301610aa9565b835f5260205f20601f840160051c81019160208510610b3b575b601f0160051c01905b818110610b305750610945565b5f8155600101610b23565b9091508190610b1a565b015190508a80610904565b5f8581528281209350601f198516905b818110610b9b5750908460019594939210610b83575b505050811b019055610918565b01515f1960f88460031b161c191690558a8080610b76565b92936020600181928786015181550195019301610b60565b909150835f5260205f20601f840160051c81019160208510610bf9575b90601f859493920160051c01905b818110610beb57506108ee565b5f8155849350600101610bde565b9091508190610bd0565b015190508a806108ab565b5f8581528281209350601f198516905b818110610c595750908460019594939210610c41575b505050811b0190556108bf565b01515f1960f88460031b161c191690558a8080610c34565b92936020600181928786015181550195019301610c1e565b909150835f5260205f20601f840160051c81019160208510610cb7575b90601f859493920160051c01905b818110610ca95750610895565b5f8155849350600101610c9c565b9091508190610c8e565b015190508a80610852565b5f8581528281209350601f198516905b818110610d175750908460019594939210610cff575b505050811b019055610866565b01515f1960f88460031b161c191690558a8080610cf2565b92936020600181928786015181550195019301610cdc565b909150835f5260205f20601f840160051c81019160208510610d75575b90601f859493920160051c01905b818110610d67575061083c565b5f8155849350600101610d5a565b9091508190610d4c565b015190508a806107f9565b5f8581528281209350601f198516905b818110610dd55750908460019594939210610dbd575b505050811b01905561080d565b01515f1960f88460031b161c191690558a8080610db0565b92936020600181928786015181550195019301610d9a565b909150835f5260205f20601f840160051c81019160208510610e33575b90601f859493920160051c01905b818110610e2557506107e3565b5f8155849350600101610e18565b9091508190610e0a565b015190508a806107a0565b5f8581528281209350601f198516905b818110610e935750908460019594939210610e7b575b505050811b0190556107b4565b01515f1960f88460031b161c191690558a8080610e6e565b92936020600181928786015181550195019301610e58565b909150835f5260205f20601f840160051c81019160208510610ef1575b90601f859493920160051c01905b818110610ee3575061078a565b5f8155849350600101610ed6565b9091508190610ec8565b015190508980610747565b5f8581528281209350601f198516905b818110610f515750908460019594939210610f39575b505050811b01815561075b565b01515f1960f88460031b161c19169055898080610f2c565b92936020600181928786015181550195019301610f16565b909150835f5260205f20601f840160051c81019160208510610faf575b90601f859493920160051c01905b818110610fa15750610731565b5f8155849350600101610f94565b9091508190610f86565b0151905089806106df565b5f8581528281209350601f198516905b81811061100f5750908460019594939210610ff7575b505050811b0190556106f3565b01515f1960f88460031b161c19169055898080610fea565b92936020600181928786015181550195019301610fd4565b909150835f5260205f20601f840160051c8101916020851061106d575b90601f859493920160051c01905b81811061105f57506106c9565b5f8155849350600101611052565b9091508190611044565b015190508a8061068a565b90601f19831691845f52815f20925f5b8181106110d057509160019594929183879593106110b8575b505050811b01815561069d565b01515f1960f88460031b161c191690558a80806110ab565b92936020600181928786015181550195019301611092565b835f5260205f20601f840160051c81019160208510611123575b601f0160051c01905b818110611118575061066e565b5f815560010161110b565b9091508190611102565b3461020a5761114661113e366142f1565b819291614e56565b6003549060208101905f5b83811061115a57005b61116381614462565b50604051611179816105bf6020820180956148b9565b51902060405160208101906111a66020828751808a875e81015f838201520301601f198101835282614180565b519020146111b7575b600101611151565b60036111c282614462565b500161060061ff001982541617905560824201908142116103725760019160056111eb83614462565b50015590506111af565b3461020a57602036600319011261020a576004356001600160401b03811161020a5761050861122b6103d29236906004016141a1565b614c38565b3461020a57604036600319011261020a576004356001600160401b03811161020a576112636102089136906004016141a1565b60243590614b50565b3461020a57602036600319011261020a576004356001600160401b03811161020a5761129c9036906004016141a1565b6112a4614923565b506040516112b18161412d565b60608152602001606090526040516112c881614148565b60608152602081016060905260408101606090526060810160609052608081016060905260a081016060905260c081016060905260e0016060905260405161130f816140f7565b60608152602081016060905260400160609052604051908051918060208301938085835e810160048152036020019020906040518082518086835e810160058152036020019020926040518083518084835e81016006815203602001902091604051918291518091835e8101600781520360200190209060405192611393846140f7565b61139c81614376565b84526113aa60018201614376565b60208501526002015460ff169160408401928352604051946113cb8661412d565b6113d481614376565b86526001016113e290614376565b9160208601928352604051906113f782614148565b61140081614376565b825261140e60018201614376565b602083019081529061142260028201614376565b6040840190815261143560038301614376565b6060850190815261144860048401614376565b608086019081529061145c60058501614376565b60a087019081529261147060068601614376565b9460c0880195865260070161148490614376565b9560e088019687526040519a6114998c6140f7565b6114a28a614376565b8c526114b060018b01614376565b9960208d019a8b526002016114c490614376565b9a60408d019b8c526040519e8f9e8f90608082528051608083016060905260e083016114ef91614279565b906020015190607f198382030160a084015261150a91614279565b935160ff1660c0820152808403906020015251604083526040830161152e91614279565b905191808203906020015261154291614279565b978c808a039060400152516101008952610100890161156091614279565b90519088810360208a015261157491614279565b905190878103604089015261158891614279565b905190868103606088015261159c91614279565b90519085810360808701526115b091614279565b90519084810360a08601526115c491614279565b90519083810360c08501526115d891614279565b9051918082039060e001526115ec91614279565b92848403606086015251606084526060840161160791614279565b905190838103602085015261161b91614279565b90519180820390604001526103d291614279565b3461020a57602036600319011261020a576004356001600160401b03811161020a576020611662819236906004016141a1565b604051928184925191829101835e8101600581520301902061168f600161168883614376565b9201614376565b906103d26040519283928361461f565b3461020a57602036600319011261020a576004356001600160401b03811161020a576116d261168f9136906004016141a1565b6149db565b3461020a57602036600319011261020a576004356001600160401b03811161020a5760208061170d61175b9336906004016141a1565b604051928184925191829101835e8101600481520301902061172e81614376565b9061176960ff600261174260018501614376565b9301541691604051948594606086526060860190614279565b908482036020860152614279565b9060408301520390f35b3461020a57602036600319011261020a576004356001600160401b03811161020a576117a39036906004016141a1565b60035460208201915f805b838110611873575060ff6117c29116614a48565b925f915f5b8481106117dc57604051806103d28882614644565b60026105bf6118016117ed84614462565b5060405192839160208301958691016148b9565b519020604051602081019061182e6020828751808a875e81015f838201520301601f198101835282614180565b5190201461183f575b6001016117c7565b9261186b6001916104076118556103eb88614462565b60ff831690611864828c614ac5565b5289614ac5565b939050611837565b60026105bf6118846117ed84614462565b51902060405160208101906118b16020828851808c875e81015f838201520301601f198101835282614180565b519020146118c2575b6001016117ae565b906118ce600191614a20565b9190506118ba565b3461020a57604036600319011261020a576004356001600160401b03811161020a576119069036906004016141a1565b6024356001600160401b03811161020a576119259036906004016141f6565b61192e826149a1565b6003549160208101905f5b84811061194257005b61194b81614462565b50604051611961816105bf6020820180956148b9565b519020604051602081019061198e6020828751808a875e81015f838201520301601f198101835282614180565b5190201461199f575b600101611939565b60036119aa82614462565b5001805461ff0019166108001790556119c7602061063383614462565b600781520301902084518051906001600160401b03821161035e5781906119ee845461433e565b601f8111611cbc575b50602090601f8311600114611c59575f92611c4e575b50508160011b915f199060031b1c19161781555b6001810160208601518051906001600160401b03821161035e57611a45835461433e565b601f8111611c09575b50602090601f8311600114611ba2576002949392915f9183611b97575b50508160011b915f199060031b1c19161790555b0160408501518051906001600160401b03821161035e57611aa0835461433e565b601f8111611b52575b50602090601f8311600114611aeb576001949392915f9183611ae0575b50505f19600383901b1c191690841b1790555b9050611997565b015190508980611ac6565b90601f19831691845f52815f20925f5b818110611b3a575091600196959492918388959310611b22575b505050811b019055611ad9565b01515f1960f88460031b161c19169055898080611b15565b92936020600181928786015181550195019301611afb565b835f5260205f20601f840160051c81019160208510611b8d575b601f0160051c01905b818110611b825750611aa9565b5f8155600101611b75565b9091508190611b6c565b015190508a80611a6b565b90601f19831691845f52815f20925f5b818110611bf1575091600193918560029897969410611bd9575b505050811b019055611a7f565b01515f1960f88460031b161c191690558a8080611bcc565b92936020600181928786015181550195019301611bb2565b835f5260205f20601f840160051c81019160208510611c44575b601f0160051c01905b818110611c395750611a4e565b5f8155600101611c2c565b9091508190611c23565b015190508880611a0d565b5f8581528281209350601f198516905b818110611ca45750908460019594939210611c8c575b505050811b018155611a21565b01515f1960f88460031b161c19169055888080611c7f565b92936020600181928786015181550195019301611c69565b909150835f5260205f20601f840160051c81019160208510611d02575b90601f859493920160051c01905b818110611cf457506119f7565b5f8155849350600101611ce7565b9091508190611cd9565b3461020a5760e036600319011261020a576004356001600160401b03811161020a57611d3c9036906004016141a1565b6024356001600160401b03811161020a57611d5b9036906004016141a1565b6044356001600160401b03811161020a57611d7a9036906004016141a1565b916064356001600160a01b038116810361020a576084359360ff851680950361020a5760a4356001600160401b03811161020a57611dbc903690600401614492565b9160c435906001600160401b03821161020a5782611de1611de79336906004016144ec565b96614971565b94611e378460209760405190611dfd8a83614180565b5f8252604051611e0d8b82614180565b5f8152611e18614923565b5060405192611e26846140f7565b83528a8301525f60408301526156a4565b604051611e43816140f7565b848152604051611e538882614180565b5f815287820190815260408201908382526040518981895180838c01835e8101600481520301902092518051906001600160401b03821161035e578190611e9a865461433e565b601f8111613060575b508b90601f8311600114612ffb575f92612ff0575b50508160011b915f199060031b1c19161783555b51805160018401916001600160401b03821161035e57611eec835461433e565b601f8111612fad575b508a90601f8311600114612f4057928260ff95929386946002965f92612f35575b50508160011b915f199060031b1c19161790555b51169201911660ff1982541617905560405190611f4682614112565b84825260405192611f578885614180565b5f8452878301938452604083015260608201525f6080820152604051611f7d8782614180565b5f815260a08201525f60c08201526003546801000000000000000081101561035e57806001611faf9201600355614462565b929092612f225781518051906001600160401b03821161035e578190611fd5865461433e565b601f8111612ed4575b508990601f8311600114612e71575f92612e66575b50508160011b915f199060031b1c19161783555b518051906001600160401b03821161035e578190612028600186015461433e565b601f8111612e15575b508890601f8311600114612dab575f92612da0575b50508160011b915f199060031b1c19161760018301555b6002820160408201518051906001600160401b03821161035e578190612083845461433e565b601f8111612d52575b508990601f8311600114612cef575f92612ce4575b50508160011b915f199060031b1c19161790555b6003820160ff806060840151161660ff1982541617815560808201516009811015612cd05761ff0082549160081b169061ff0019161790556004820160a08201518051906001600160401b03821161035e57612111835461433e565b601f8111612c8d575b508890601f8311600114612c2457918060c09492600596945f92612c19575b50508160011b915f199060031b1c19161790555b01519101556040518481845180838701835e8101600581520301902081519081516001600160401b03811161035e578692612188835461433e565b601f8111612bc7575b508390601f8311600114612b615760019392915f9183612b56575b50505f19600383901b1c191690831b1781555b01910151918251916001600160401b03831161035e5785926121e1825461433e565b94601f8611612aff575b8495508490601f8311600114612a98575f919083612a8d575b50508160011b915f199060031b1c19161790555b604051928184925191829101835e810160068152030190209080519182516001600160401b03811161035e5761224e825461433e565b601f8111612a4a575b508493601f82116001146129ea5793819293945f926129df575b50508160011b915f199060031b1c19161781555b60018101838301518051906001600160401b03821161035e5781906122aa845461433e565b601f8111612991575b508690601f831160011461292e575f92612923575b50508160011b915f199060031b1c19161790555b6002810160408301518051906001600160401b03821161035e578190612302845461433e565b601f81116128d5575b508690601f8311600114612872575f92612867575b50508160011b915f199060031b1c19161790555b6003810160608301518051906001600160401b03821161035e57819061235a845461433e565b601f8111612819575b508690601f83116001146127b6575f926127ab575b50508160011b915f199060031b1c19161790555b6004810160808301518051906001600160401b03821161035e5781906123b2845461433e565b601f811161275d575b508690601f83116001146126fa575f926126ef575b50508160011b915f199060031b1c19161790555b6005810160a08301518051906001600160401b03821161035e57819061240a845461433e565b601f81116126a1575b508690601f831160011461263e575f92612633575b50508160011b915f199060031b1c19161790555b6006810160c08301518051906001600160401b03821161035e57612460835461433e565b601f81116125f0575b508590601f83116001146125875791806007949260e096945f9261257c575b50508160011b915f199060031b1c19161790555b01910151918251906001600160401b03821161035e576124bc835461433e565b601f8111612539575b5080601f83116001146124f357508192935f926102b25750505f19600383901b1c191660019190911b179055005b90601f19831694845f52825f20925f905b8782106125215750508360019596106102e957505050811b019055005b80600185968294968601518155019501930190612504565b835f52815f20601f840160051c810191838510612572575b601f0160051c01905b81811061256757506124c5565b5f815560010161255a565b9091508190612551565b015190508880612488565b90601f19831691845f52875f20925f5b898282106125da57505092600192859260e0989660079896106125c2575b505050811b01905561249c565b01515f1960f88460031b161c191690558880806125b5565b6001859682939686015181550195019301612597565b835f52865f20601f840160051c810191888510612629575b601f0160051c01905b81811061261e5750612469565b5f8155600101612611565b9091508190612608565b015190508680612428565b5f8581528881209350601f198516905b8982821061268b575050908460019594939210612673575b505050811b01905561243c565b01515f1960f88460031b161c19169055868080612666565b600185968293968601518155019501930161264e565b909150835f52865f20601f840160051c8101918885106126e5575b90601f859493920160051c01905b8181106126d75750612413565b5f81558493506001016126ca565b90915081906126bc565b0151905086806123d0565b5f8581528881209350601f198516905b8982821061274757505090846001959493921061272f575b505050811b0190556123e4565b01515f1960f88460031b161c19169055868080612722565b600185968293968601518155019501930161270a565b909150835f52865f20601f840160051c8101918885106127a1575b90601f859493920160051c01905b81811061279357506123bb565b5f8155849350600101612786565b9091508190612778565b015190508680612378565b5f8581528881209350601f198516905b898282106128035750509084600195949392106127eb575b505050811b01905561238c565b01515f1960f88460031b161c191690558680806127de565b60018596829396860151815501950193016127c6565b909150835f52865f20601f840160051c81019188851061285d575b90601f859493920160051c01905b81811061284f5750612363565b5f8155849350600101612842565b9091508190612834565b015190508680612320565b5f8581528881209350601f198516905b898282106128bf5750509084600195949392106128a7575b505050811b019055612334565b01515f1960f88460031b161c1916905586808061289a565b6001859682939686015181550195019301612882565b909150835f52865f20601f840160051c810191888510612919575b90601f859493920160051c01905b81811061290b575061230b565b5f81558493506001016128fe565b90915081906128f0565b0151905086806122c8565b5f8581528881209350601f198516905b8982821061297b575050908460019594939210612963575b505050811b0190556122dc565b01515f1960f88460031b161c19169055868080612956565b600185968293968601518155019501930161293e565b909150835f52865f20601f840160051c8101918885106129d5575b90601f859493920160051c01905b8181106129c757506122b3565b5f81558493506001016129ba565b90915081906129ac565b015190508580612271565b601f19821694835f52865f20915f5b88888210612a3457505083600195969710612a1c575b505050811b018155612285565b01515f1960f88460031b161c19169055858080612a0f565b60018495829395850151815501940192016129f9565b825f52855f20601f830160051c810191878410612a83575b601f0160051c01905b818110612a785750612257565b5f8155600101612a6b565b9091508190612a62565b015190508880612204565b601f95949392919519821695835f52855f20915f5b888110612ae757508360019596979810612acf575b505050811b019055612218565b01515f1960f88460031b161c19169055888080612ac2565b82820151845589976001909401939283019201612aad565b918094505f9591939552865f20601f840160051c810191888510612b4c575b90601f899694979593920160051c01905b818110612b3e575050846121eb565b5f8155889550600101612b2f565b9091508190612b1e565b0151905089806121ac565b90601f19831691845f52855f20925f5b87828210612bb1575050916001959492918387959310612b99575b505050811b0181556121bf565b01515f1960f88460031b161c19169055898080612b8c565b6001859682939686015181550195019301612b71565b9091928094505f52875f20601f840160051c810191898510612c0f575b90601f8a96959493920160051c01905b818110612c015750612191565b5f8155899550600101612bf4565b9091508190612be4565b015190508b80612139565b90601f19831691845f528a5f20925f5b8c828210612c775750509260019285926005989660c0989610612c5f575b505050811b01905561214d565b01515f1960f88460031b161c191690558b8080612c52565b6001859682939686015181550195019301612c34565b835f52895f20601f840160051c8101918b8510612cc6575b601f0160051c01905b818110612cbb575061211a565b5f8155600101612cae565b9091508190612ca5565b634e487b7160e01b5f52602160045260245ffd5b0151905089806120a1565b5f8581528b81209350601f198516905b8c828210612d3c575050908460019594939210612d24575b505050811b0190556120b5565b01515f1960f88460031b161c19169055898080612d17565b6001859682939686015181550195019301612cff565b909150835f52895f20601f840160051c8101918b8510612d96575b90601f859493920160051c01905b818110612d88575061208c565b5f8155849350600101612d7b565b9091508190612d6d565b015190508880612046565b600186015f9081528a81209350601f198516905b8b828210612dff575050908460019594939210612de7575b505050811b01600183015561205d565b01515f1960f88460031b161c19169055888080612dd7565b6001859682939686015181550195019301612dbf565b909150600185015f52885f20601f840160051c8101918a8510612e5c575b90601f859493920160051c01905b818110612e4e5750612031565b5f8155849350600101612e41565b9091508190612e33565b015190508980611ff3565b5f8781528b81209350601f198516905b8c828210612ebe575050908460019594939210612ea6575b505050811b018355612007565b01515f1960f88460031b161c19169055898080612e99565b6001859682939686015181550195019301612e81565b909150855f52895f20601f840160051c8101918b8510612f18575b90601f859493920160051c01905b818110612f0a5750611fde565b5f8155849350600101612efd565b9091508190612eef565b634e487b7160e01b5f525f60045260245ffd5b015190508e80611f16565b5f8481528c8120929190601f198516908e5b828210612f955750509360ff969360029693600193838a9810612f7d575b505050811b019055611f2a565b01515f1960f88460031b161c191690558e8080612f70565b80600186978294978701518155019601940190612f52565b835f528b5f20601f840160051c8101918d8510612fe6575b601f0160051c01905b818110612fdb5750611ef5565b5f8155600101612fce565b9091508190612fc5565b015190508b80611eb8565b5f8781528d81209350601f198516908e5b828210613048575050908460019594939210613030575b505050811b018355611ecc565b01515f1960f88460031b161c191690558b8080613023565b8060018697829497870151815501960194019061300c565b909150855f528b5f20601f840160051c8101918d85106130a4575b90601f859493920160051c01905b8181106130965750611ea3565b5f8155849350600101613089565b909150819061307b565b3461020a57602036600319011261020a576004356001600160401b03811161020a576020806130e46131399336906004016141a1565b604051928184925191829101835e810160078152030190206103d261310882614376565b91613147613124600261311d60018501614376565b9301614376565b91604051958695606087526060870190614279565b908582036020870152614279565b908382036040850152614279565b3461020a57602036600319011261020a576004356001600160401b03811161020a576131859036906004016141a1565b604051818192516020819201835e8101600681520360200190206131a881614376565b6131b460018301614376565b916131c160028201614376565b906131ce60038201614376565b6131da60048301614376565b6131e660058401614376565b916131f360068501614376565b9360070161320090614376565b946040519788976101008952610100890161321a91614279565b88810360208a015261322b91614279565b878103604089015261323c91614279565b868103606088015261324d91614279565b858103608087015261325e91614279565b84810360a086015261326f91614279565b83810360c085015261328091614279565b82810360e08401526103d291614279565b3461020a57602036600319011261020a5760043560035481101561020a576132bb61331891614462565b506132c581614376565b9061335b6132d560018301614376565b916132e260028201614376565b9061334e613334600383015493613326600561330060048701614376565b950154976040519a8b9a60e08c5260e08c0190614279565b908a820360208c0152614279565b9088820360408a0152614279565b9260ff8116606088015260ff608088019160081c16614455565b84820360a0860152614279565b9060c08301520390f35b3461020a57602036600319011261020a576004356001600160401b03811161020a576133986102089136906004016141a1565b6149a1565b3461020a57602036600319011261020a576004356001600160401b03811161020a576133cd9036906004016141a1565b604051818192516020819201835e81015f8152036020019020805460ff166001820154916002810154906003810154600482015460058301546006840154600785015490600886015492600987015494600a880161342a90614416565b96613437600d8a01614416565b9860100161344490614376565b996040519c6134548e809e614455565b60208d015260408c015260608b015260808a015260a089015260c088015260e087015261010086015261012085015261014084016101a090526101a0840161349b9161429d565b8381036101608501526134ad9161429d565b8281036101808401526103d291614279565b3461020a57606036600319011261020a576004356001600160401b03811161020a576134ef9036906004016141a1565b6024356001600160401b03811161020a5761350e9036906004016141a1565b906044356001600160a01b038116810361020a576103d29261352f92614971565b60405191829160208352602083019061429d565b3461020a5760c036600319011261020a576004356001600160401b03811161020a576135739036906004016141a1565b6024356001600160401b03811161020a576135929036906004016141a1565b6044356001600160401b03811161020a576135b19036906004016141a1565b6064356001600160401b03811161020a576135d09036906004016141a1565b6135d86142db565b60a435916001600160401b03831161020a576135fb6136019336906004016141a1565b93614971565b604051906001845192602081818801958087835e810160048152030190200185516001600160401b03811161035e5761363a825461433e565b601f81116139ac575b506020601f821160011461394557908061367a9493925f9161393a575b508160011b915f199060031b1c19161790555b8385615336565b600354925f5b84811061368957005b61369281614462565b506040516136a8816105bf6020820180956148b9565b51902060405160208101906136d56020828751808a875e81015f838201520301601f198101835282614180565b519020146136e6575b600101613680565b60016136f182614462565b500186516001600160401b03811161035e5761370d825461433e565b601f81116138f5575b50806020601f8211600114613892575f91613887575b508160011b915f199060031b1c19161790555b600361374a82614462565b5001805461ff001916610100179055600461376482614462565b500184516001600160401b03811161035e57613780825461433e565b601f8111613842575b50806020601f82116001146137e1575f916137d6575b508160011b915f199060031b1c19161790555b60824201908142116103725760019160056137cc83614462565b50015590506136de565b90508601518961379f565b5f8481528181209250601f198416905b81811061382a57509083600194939210613812575b5050811b0190556137b2565b8801515f1960f88460031b161c191690558980613806565b9192602060018192868d0151815501940192016137f1565b825f5260205f20601f830160051c8101916020841061387d575b601f0160051c01905b8181106138725750613789565b5f8155600101613865565b909150819061385c565b90508801518961372c565b5f8481528181209250601f198416905b8b8282106138dd57505090836001949392106138c5575b5050811b01905561373f565b8a01515f1960f88460031b161c1916905589806138b9565b600184956020939584930151815501940192016138a2565b825f5260205f20601f830160051c81019160208410613930575b601f0160051c01905b8181106139255750613716565b5f8155600101613918565b909150819061390f565b905088015189613660565b601f19821690835f52805f20915f5b8a82821061399457505091839161367a9695946001941061397c575b5050811b019055613673565b8a01515f1960f88460031b161c191690558980613970565b60018495602093958493015181550194019201613954565b825f5260205f20601f830160051c810191602084106139e7575b601f0160051c01905b8181106139dc5750613643565b5f81556001016139cf565b90915081906139c6565b3461020a57602036600319011261020a576004356001600160401b03811161020a576104b0602080613a2a6103d29436906004016141a1565b604051928184925191829101835e81016002815203019020614376565b3461020a57613a60613a58366142f1565b819291614d0b565b600354602082015f5b828110613a7257005b80613a7e600192614462565b50604051613a94816105bf6020820180956148b9565b5190206040516020810190613ac16020828a51808a875e81015f838201520301601f198101835282614180565b51902014613ad0575b01613a69565b6003613adb82614462565b5001805461ff001916610700179055613aca565b3461020a5760a036600319011261020a576004356001600160401b03811161020a57613b1f9036906004016141a1565b6024356001600160401b03811161020a57613b3e9036906004016141a1565b6044356001600160401b03811161020a57613b5d9036906004016141a1565b906064356001600160401b03811161020a57613b9992613b84613b929236906004016141a1565b613b8c6142db565b91614971565b9083614f99565b600354602082015f5b828110613bab57005b80613bb7600192614462565b50604051613bcd816105bf6020820180956148b9565b5190206040516020810190613bfa6020828a51808a875e81015f838201520301601f198101835282614180565b51902014613c09575b01613ba2565b6003613c1482614462565b5001805461ff001916610200179055613c03565b3461020a57602036600319011261020a576004356001600160401b03811161020a57613c5b6102089136906004016141a1565b614943565b3461020a57602036600319011261020a576004356001600160401b03811161020a5761352f600a602080613c9b6103d29536906004016141a1565b613ca3614923565b50604051928184925191829101835e81015f81520301902001614416565b3461020a57606036600319011261020a576004356001600160401b03811161020a57613cf19036906004016141a1565b6044356001600160401b03811161020a57613d109036906004016141f6565b90613d1d60243582614b50565b604051815190602081818501938085835e8101600781520301902083518051906001600160401b03821161035e578190613d57845461433e565b601f81116140a7575b50602090601f8311600114614044575f92614039575b50508160011b915f199060031b1c19161781555b6001810160208501518051906001600160401b03821161035e57613dae835461433e565b601f8111613ff4575b50602090601f8311600114613f8b57918060029492604096945f92613f80575b50508160011b915f199060031b1c19161790555b019301519283516001600160401b03811161035e57613e0a825461433e565b601f8111613f3b575b50602094601f8211600114613eda579481929394955f92613ecf575b50508160011b915f199060031b1c19161790555b600354905f5b828110613e5257005b80613e5e600192614462565b50604051613e74816105bf6020820180956148b9565b5190206040516020810190613ea16020828a51808a875e81015f838201520301601f198101835282614180565b51902014613eb0575b01613e49565b6003613ebb82614462565b5001805461ff001916610500179055613eaa565b015190508580613e2f565b601f19821695835f52805f20915f5b888110613f2357508360019596979810613f0b575b505050811b019055613e43565b01515f1960f88460031b161c19169055858080613efe565b91926020600181928685015181550194019201613ee9565b825f5260205f20601f830160051c81019160208410613f76575b601f0160051c01905b818110613f6b5750613e13565b5f8155600101613f5e565b9091508190613f55565b015190508980613dd7565b90601f19831691845f52815f20925f5b818110613fdc5750926001928592604098966002989610613fc4575b505050811b019055613deb565b01515f1960f88460031b161c19169055898080613fb7565b92936020600181928786015181550195019301613f9b565b835f5260205f20601f840160051c8101916020851061402f575b601f0160051c01905b8181106140245750613db7565b5f8155600101614017565b909150819061400e565b015190508680613d76565b5f8581528281209350601f198516905b81811061408f5750908460019594939210614077575b505050811b018155613d8a565b01515f1960f88460031b161c1916905586808061406a565b92936020600181928786015181550195019301614054565b909150835f5260205f20601f840160051c810191602085106140ed575b90601f859493920160051c01905b8181106140df5750613d60565b5f81558493506001016140d2565b90915081906140c4565b606081019081106001600160401b0382111761035e57604052565b60e081019081106001600160401b0382111761035e57604052565b604081019081106001600160401b0382111761035e57604052565b61010081019081106001600160401b0382111761035e57604052565b6101a081019081106001600160401b0382111761035e57604052565b90601f801991011681019081106001600160401b0382111761035e57604052565b81601f8201121561020a578035906001600160401b03821161035e57604051926141d5601f8401601f191660200185614180565b8284526020838301011161020a57815f926020809301838601378301015290565b919060608382031261020a576040519061420f826140f7565b819380356001600160401b03811161020a578261422d9183016141a1565b835260208101356001600160401b03811161020a578261424e9183016141a1565b60208401526040810135916001600160401b03831161020a5760409261427492016141a1565b910152565b805180835260209291819084018484015e5f828201840152601f01601f1916010190565b9060406142c86142b68451606085526060850190614279565b60208501518482036020860152614279565b928101516001600160a01b031691015290565b608435906001600160a01b038216820361020a57565b90604060031983011261020a576004356001600160401b03811161020a578261431c916004016141a1565b91602435906001600160401b03821161020a5761433b916004016141a1565b90565b90600182811c9216801561436c575b602083101461435857565b634e487b7160e01b5f52602260045260245ffd5b91607f169161434d565b9060405191825f8254926143898461433e565b80845293600181169081156143f457506001146143b0575b506143ae92500383614180565b565b90505f9291925260205f20905f915b8183106143d85750509060206143ae928201015f6143a1565b60209193508060019154838589010152019101909184926143bf565b9050602092506143ae94915060ff191682840152151560051b8201015f6143a1565b90604051614423816140f7565b6040819361443081614376565b835261443e60018201614376565b6020840152600201546001600160a01b0316910152565b906009821015612cd05752565b60035481101561447e5760035f52600660205f20910201905f90565b634e487b7160e01b5f52603260045260245ffd5b919060408382031261020a57604051906144ab8261412d565b819380356001600160401b03811161020a57826144c99183016141a1565b83526020810135916001600160401b03831161020a5760209261427492016141a1565b91906101008382031261020a576040519061450682614148565b819380356001600160401b03811161020a57826145249183016141a1565b835260208101356001600160401b03811161020a57826145459183016141a1565b602084015260408101356001600160401b03811161020a57826145699183016141a1565b604084015260608101356001600160401b03811161020a578261458d9183016141a1565b606084015260808101356001600160401b03811161020a57826145b19183016141a1565b608084015260a08101356001600160401b03811161020a57826145d59183016141a1565b60a084015260c08101356001600160401b03811161020a57826145f99183016141a1565b60c084015260e0810135916001600160401b03831161020a5760e09261427492016141a1565b909161463661433b93604084526040840190614279565b916020818403910152614279565b602081016020825282518091526040820191602060408360051b8301019401925f915b83831061467657505050505090565b9091929394602080600192603f1985820301865288519060c0806146ff6146ce6146bc6146ac875160e0885260e0880190614279565b888801518782038a890152614279565b60408701518682036040880152614279565b60ff60608701511660608601526146ed60808701516080870190614455565b60a086015185820360a0870152614279565b93015191015297019301930191939290614667565b9061433b916020815261472b602082018351614455565b602082015160408201526040820151606082015260608201516080820152608082015160a082015260a082015160c082015260c082015160e082015260e08201516101008201526101008201516101208201526101208201516101408201526101806147c36147ad6101408501516101a06101608601526101c085019061429d565b610160850151848203601f19018486015261429d565b920151906101a0601f1982850301910152614279565b919060608382031261020a57604051906147f2826140f7565b819380356001600160401b03811161020a57826148109183016141a1565b835260208101356001600160401b03811161020a576040926148339183016141a1565b60208401520135906001600160a01b038216820361020a5760400152565b606060031982011261020a576004356001600160401b03811161020a578161487b916004016141a1565b916024356001600160401b03811161020a578261489a916004016141a1565b91604435906001600160401b03821161020a5761433b916004016147d9565b5f92918154916148c88361433e565b926001811690811561491057506001146148e157505050565b90919293505f5260205f205f905b8382106148fc5750500190565b6001816020925484860152019101906148ef565b60ff191683525050811515909102019150565b60405190614930826140f7565b5f60408360608152606060208201520152565b60208091604051928184925191829101835e81015f815203019020426004820155600360ff19825416179055565b919061497b614923565b5060405192614989846140f7565b835260208301526001600160a01b0316604082015290565b60208091604051928184925191829101835e81015f815203019020426009820155600860ff19825416179055565b6009821015612cd05752565b9061433b614a1a60405160208551918181818901948086835e8101600181520301902095604051928391518091835e8101600281520301902093614376565b92614376565b60ff1660ff81146103725760010190565b6001600160401b03811161035e5760051b60200190565b90614a5282614a31565b614a5f6040519182614180565b8281528092614a70601f1991614a31565b01905f5b828110614a8057505050565b602090604051614a8f81614112565b60608152606083820152606060408201525f60608201525f6080820152606060a08201525f60c082015282828501015201614a74565b805182101561447e5760209160051b010190565b90604051614ae681614112565b60c060058294614af581614376565b8452614b0360018201614376565b6020850152614b1460028201614376565b6040850152614b3860ff6003830154818116606088015260081c16608086016149cf565b614b4460048201614376565b60a08501520154910152565b90421115614b865760208091604051928184925191829101835e81015f815203019020426006820155600560ff19825416179055565b60405162461bcd60e51b815260206004820152601860248201527f536572746966696b6174206d61736968206265726c616b7500000000000000006044820152606490fd5b60405190614bd882614164565b6060610180835f81525f60208201525f60408201525f838201525f60808201525f60a08201525f60c08201525f60e08201525f6101008201525f610120820152614c20614923565b610140820152614c2e614923565b6101608201520152565b60208091614c44614bcb565b50604051928184925191829101835e81015f815203019020614d02601060405192614c6e84614164565b614c7c60ff825416856149cf565b60018101546020850152600281015460408501526003810154606085015260048101546080850152600581015460a0850152600681015460c0850152600781015460e085015260088101546101008501526009810154610120850152614ce4600a8201614416565b610140850152614cf6600d8201614416565b61016085015201614376565b61018082015290565b91909160405160208251918181818601948086835e81015f81520301902092604051928391518091835e8101600281520301902083516001600160401b03811161035e57614d59825461433e565b601f8111614e11575b50602094601f8211600114614db0579481929394955f92614da5575b50508160011b915f199060031b1c19161790555b426008820155805460ff19166007179055565b015190505f80614d7e565b601f19821695835f52805f20915f5b888110614df957508360019596979810614de1575b505050811b019055614d92565b01515f1960f88460031b161c191690555f8080614dd4565b91926020600181928685015181550194019201614dbf565b825f5260205f20601f830160051c81019160208410614e4c575b601f0160051c01905b818110614e415750614d62565b5f8155600101614e34565b9091508190614e2b565b60208091939293604051928184925191829101835e81015f8152030190204260078201556082420190814211610372576010916005820155600660ff198254161781550182516001600160401b03811161035e57614eb4825461433e565b601f8111614f54575b506020601f8211600114614ef657819293945f92614eeb575b50508160011b915f199060031b1c1916179055565b015190505f80614ed6565b601f19821690835f52805f20915f5b818110614f3c57509583600195969710614f24575b505050811b019055565b01515f1960f88460031b161c191690555f8080614f1a565b9192602060018192868b015181550194019201614f05565b825f5260205f20601f830160051c81019160208410614f8f575b601f0160051c01905b818110614f845750614ebd565b5f8155600101614f77565b9091508190614f6e565b92919060405160208551918181818901948086835e81015f81520301902095604051928391518091835e81016001815203019020908051906001600160401b03821161035e578190614feb845461433e565b601f81116152e6575b50602090601f8311600114615283575f92615278575b50508160011b915f199060031b1c19161790555b80518051600d8501916001600160401b03821161035e5761503f835461433e565b601f8111615233575b50602090601f83116001146151cc576020949392915f91836151c1575b50508160011b915f199060031b1c19161790555b6040810151600f850180546001600160a01b0319166001600160a01b039290921691909117905501518051909290600e8201906001600160401b03811161035e576150c4825461433e565b601f811161517c575b50602094601f821160011461511b579481929394955f92615110575b50508160011b915f199060031b1c19161790555b426003820155805460ff19166002179055565b015190505f806150e9565b601f19821695835f52805f20915f5b8881106151645750836001959697981061514c575b505050811b0190556150fd565b01515f1960f88460031b161c191690555f808061513f565b9192602060018192868501518155019401920161512a565b825f5260205f20601f830160051c810191602084106151b7575b601f0160051c01905b8181106151ac57506150cd565b5f815560010161519f565b9091508190615196565b015190505f80615065565b90601f19831691845f52815f20925f5b81811061521b575091600193918560209897969410615203575b505050811b019055615079565b01515f1960f88460031b161c191690555f80806151f6565b929360206001819287860151815501950193016151dc565b835f5260205f20601f840160051c8101916020851061526e575b601f0160051c01905b8181106152635750615048565b5f8155600101615256565b909150819061524d565b015190505f8061500a565b5f8581528281209350601f198516905b8181106152ce57509084600195949392106152b6575b505050811b01905561501e565b01515f1960f88460031b161c191690555f80806152a9565b92936020600181928786015181550195019301615293565b909150835f5260205f20601f840160051c8101916020851061532c575b90601f859493920160051c01905b81811061531e5750614ff4565b5f8155849350600101615311565b9091508190615303565b6020809194939294604051928184925191829101835e81015f815203019020908051600d8301908051906001600160401b03821161035e57615378835461433e565b601f811161565f575b50602090601f83116001146155f8576020949392915f91836155ed575b50508160011b915f199060031b1c19161790555b6040810151600f840180546001600160a01b0319166001600160a01b039290921691909117905501518051600e8301916001600160401b03821161035e5781906153fc845461433e565b601f811161559d575b50602090601f831160011461553a575f9261552f575b50508160011b915f199060031b1c19161790555b4260028201556082420190814211610372576010916005820155600160ff198254161781550182516001600160401b03811161035e5761546f825461433e565b601f81116154ea575b506020601f82116001146154a557819293945f92614eeb5750508160011b915f199060031b1c1916179055565b601f19821690835f52805f20915f5b8181106154d257509583600195969710614f2457505050811b019055565b9192602060018192868b0151815501940192016154b4565b825f5260205f20601f830160051c81019160208410615525575b601f0160051c01905b81811061551a5750615478565b5f815560010161550d565b9091508190615504565b015190505f8061541b565b5f8581528281209350601f198516905b818110615585575090846001959493921061556d575b505050811b01905561542f565b01515f1960f88460031b161c191690555f8080615560565b9293602060018192878601518155019501930161554a565b909150835f5260205f20601f840160051c810191602085106155e3575b90601f859493920160051c01905b8181106155d55750615405565b5f81558493506001016155c8565b90915081906155ba565b015190505f8061539e565b90601f19831691845f52815f20925f5b81811061564757509160019391856020989796941061562f575b505050811b0190556153b2565b01515f1960f88460031b161c191690555f8080615622565b92936020600181928786015181550195019301615608565b835f5260205f20601f840160051c8101916020851061569a575b601f0160051c01905b81811061568f5750615381565b5f8155600101615682565b9091508190615679565b9290919260405180916156b682614164565b5f825260208201428152604083015f8152606084015f8152608085015f815260a086015f815260c08701915f835260e08801935f85526101008901955f87526101208a01975f89526101408b01998a526101608b019d8e5260209e8f80916040519e8f6157238482614180565b5f9052610180019e8f52604051928184925191829101835e81015f8152030190209a516009811015612cd05760ff80198d54169116178b555160018b01555160028a0155516003890155516004880155516005870155516006860155516007850155516008840155516009830155600a820190519081518051906001600160401b03821161035e5781906157b7845461433e565b601f8111615cc4575b508990601f8311600114615c61575f92615c56575b50508160011b915f199060031b1c19161790555b600b8201868201518051906001600160401b03821161035e57819061580e845461433e565b601f8111615c08575b508990601f8311600114615ba5575f92615b9a575b50508160011b915f199060031b1c19161790555b60400151600c820180546001600160a01b0319166001600160a01b0392909216919091179055925180518051919491600d8301916001600160401b03821161035e57819061588e845461433e565b601f8111615b4c575b508890601f8311600114615ae9575f92615ade575b50508160011b915f199060031b1c19161790555b600e81019385810151948551956001600160401b03871161035e576158e5825461433e565b601f8111615a9b575b508790601f8811600114615a345796809160109697985f92615a29575b50508160011b915f199060031b1c19161790555b60400151600f820180546001600160a01b0319166001600160a01b03929092169190911790559151805190949190920191906001600160401b03821161035e57615969835461433e565b601f81116159e6575b5080601f831160011461599f5750819293945f92614eeb5750508160011b915f199060031b1c1916179055565b90601f19831695845f52825f20925f905b8882106159ce57505083600195969710614f2457505050811b019055565b806001859682949686015181550195019301906159b0565b835f52815f20601f840160051c810191838510615a1f575b601f0160051c01905b818110615a145750615972565b5f8155600101615a07565b90915081906159fe565b015190505f8061590b565b90601f19881691835f52895f20925f5b8b828210615a8557505091600193918a6010999a9b9410615a6d575b505050811b01905561591f565b01515f1960f88460031b161c191690555f8080615a60565b6001859682939686015181550195019301615a44565b825f52885f20601f890160051c8101918a8a10615ad4575b601f0160051c01905b818110615ac957506158ee565b5f8155600101615abc565b9091508190615ab3565b015190505f806158ac565b5f8581528a81209350601f198516905b8b828210615b36575050908460019594939210615b1e575b505050811b0190556158c0565b01515f1960f88460031b161c191690555f8080615b11565b6001859682939686015181550195019301615af9565b909150835f52885f20601f840160051c8101918a8510615b90575b90601f859493920160051c01905b818110615b825750615897565b5f8155849350600101615b75565b9091508190615b67565b015190505f8061582c565b5f8581528b81209350601f198516905b8c828210615bf2575050908460019594939210615bda575b505050811b019055615840565b01515f1960f88460031b161c191690555f8080615bcd565b6001859682939686015181550195019301615bb5565b909150835f52895f20601f840160051c8101918b8510615c4c575b90601f859493920160051c01905b818110615c3e5750615817565b5f8155849350600101615c31565b9091508190615c23565b015190505f806157d5565b5f8581528b81209350601f198516905b8c828210615cae575050908460019594939210615c96575b505050811b0190556157e9565b01515f1960f88460031b161c191690555f8080615c89565b6001859682939686015181550195019301615c71565b909150835f52895f20601f840160051c8101918b8510615d08575b90601f859493920160051c01905b818110615cfa57506157c0565b5f8155849350600101615ced565b9091508190615cdf56fea26469706673582212204098e42db1f59cfcb2248827c40e7c8ad4075bc0aa1c711a1dac36b93d812ada64736f6c634300081b0033",
  "linkReferences": {},
  "deployedLinkReferences": {}
}