{
	"data": {
		"bytecode": {
			"linkReferences": {},
			"object": "60e060405234801561000f575f80fd5b506040516146fc3803806146fc8339818101604052810190610031919061013a565b60015f819055508273ffffffffffffffffffffffffffffffffffffffff1660808173ffffffffffffffffffffffffffffffffffffffff16815250508173ffffffffffffffffffffffffffffffffffffffff1660a08173ffffffffffffffffffffffffffffffffffffffff16815250508073ffffffffffffffffffffffffffffffffffffffff1660c08173ffffffffffffffffffffffffffffffffffffffff168152505050505061018a565b5f80fd5b5f73ffffffffffffffffffffffffffffffffffffffff82169050919050565b5f610109826100e0565b9050919050565b610119816100ff565b8114610123575f80fd5b50565b5f8151905061013481610110565b92915050565b5f805f60608486031215610151576101506100dc565b5b5f61015e86828701610126565b935050602061016f86828701610126565b925050604061018086828701610126565b9150509250925092565b60805160a05160c05161449261026a5f395f81816103e60152818161060e015281816107e0015281816109b801528181610f3e01528181610fdf0152818161142101528181611527015281816117c4015261188c01525f818161048a01528181610b7601528181610c6e01528181610d1201528181610dca01528181610e6b0152818161117001528181611345015281816116e5015261186601525f81816103c00152818161052c015281816106fe015281816108d601528181610a940152818161108f0152818161126301528181611445015261160401526144925ff3fe608060405234801561000f575f80fd5b506004361061011e575f3560e01c806370c056b0116100ab578063bbd0b8a91161006f578063bbd0b8a91461031a578063cb43b77f14610336578063d0927b1914610352578063d369111d14610382578063f14261d2146103a05761011e565b806370c056b01461025e5780637e8f8da71461029157806387fecd3e146102c45780639c0abfd8146102e0578063af3a1758146102fc5761011e565b80632dbcaf0f116100f25780632dbcaf0f146101bc57806341ee1495146101d85780634e03317b146101f457806351c2d326146102105780635850607c146102405761011e565b8062435da51461012257806317d96797146101405780631a898044146101705780631d430349146101a0575b5f80fd5b61012a6103be565b6040516101379190611b61565b60405180910390f35b61015a60048036038101906101559190611cc7565b6103e2565b6040516101679190611d6e565b60405180910390f35b61018a60048036038101906101859190611cc7565b610486565b6040516101979190611d6e565b60405180910390f35b6101ba60048036038101906101b591906120fc565b61052a565b005b6101d660048036038101906101d191906122ad565b6106fc565b005b6101f260048036038101906101ed9190612335565b6108d4565b005b61020e600480360381019061020991906122ad565b610a92565b005b61022a60048036038101906102259190611cc7565b610c6a565b604051610237919061263c565b60405180910390f35b610248610d0e565b604051610255919061263c565b60405180910390f35b61027860048036038101906102739190611cc7565b610da5565b604051610288949392919061289c565b60405180910390f35b6102ab60048036038101906102a69190611cc7565b610f19565b6040516102bb9493929190612a6e565b60405180910390f35b6102de60048036038101906102d99190612c07565b61108d565b005b6102fa60048036038101906102f59190612335565b611261565b005b61030461141f565b6040516103119190612d0e565b60405180910390f35b610334600480360381019061032f9190612d27565b611443565b005b610350600480360381019061034b9190612dcb565b611602565b005b61036c60048036038101906103679190611cc7565b6117c0565b6040516103799190612fc5565b60405180910390f35b61038a611864565b6040516103979190613005565b60405180910390f35b6103a8611888565b6040516103b59190612fc5565b60405180910390f35b7f000000000000000000000000000000000000000000000000000000000000000081565b60607f000000000000000000000000000000000000000000000000000000000000000073ffffffffffffffffffffffffffffffffffffffff16636d1aa7d5836040518263ffffffff1660e01b815260040161043d9190611d6e565b5f60405180830381865afa158015610457573d5f803e3d5ffd5b505050506040513d5f823e3d601f19601f8201168201806040525081019061047f919061308c565b9050919050565b60607f000000000000000000000000000000000000000000000000000000000000000073ffffffffffffffffffffffffffffffffffffffff16636d1aa7d5836040518263ffffffff1660e01b81526004016104e19190611d6e565b5f60405180830381865afa1580156104fb573d5f803e3d5ffd5b505050506040513d5f823e3d601f19601f82011682018060405250810190610523919061308c565b9050919050565b7f000000000000000000000000000000000000000000000000000000000000000073ffffffffffffffffffffffffffffffffffffffff166395a8c58d3360016040518363ffffffff1660e01b8152600401610586929190613128565b602060405180830381865afa1580156105a1573d5f803e3d5ffd5b505050506040513d601f19601f820116820180604052508101906105c59190613184565b610604576040517f08c379a00000000000000000000000000000000000000000000000000000000081526004016105fb9061321f565b60405180910390fd5b61060c61191f565b7f000000000000000000000000000000000000000000000000000000000000000073ffffffffffffffffffffffffffffffffffffffff1663682053d9855f01518660200151876040015188606001518888886040518863ffffffff1660e01b8152600401610680979695949392919061324c565b5f604051808303815f87803b158015610697575f80fd5b505af11580156106a9573d5f803e3d5ffd5b505050507ff52a0795d3c1a788d33423aa105be7a0aaa157621a984632251e0c2ed142d04084604001513385426040516106e694939291906132eb565b60405180910390a16106f6611963565b50505050565b7f000000000000000000000000000000000000000000000000000000000000000073ffffffffffffffffffffffffffffffffffffffff166395a8c58d3360026040518363ffffffff1660e01b8152600401610758929190613128565b602060405180830381865afa158015610773573d5f803e3d5ffd5b505050506040513d601f19601f820116820180604052508101906107979190613184565b6107d6576040517f08c379a00000000000000000000000000000000000000000000000000000000081526004016107cd906133a5565b60405180910390fd5b6107de61191f565b7f000000000000000000000000000000000000000000000000000000000000000073ffffffffffffffffffffffffffffffffffffffff16632b93f7f2845f01518560200151866040015187606001518860800151886040518763ffffffff1660e01b8152600401610854969594939291906133c3565b5f604051808303815f87803b15801561086b575f80fd5b505af115801561087d573d5f803e3d5ffd5b505050507fc8c9ccc57ad2f7823680b448dd87b511b225eb0ac2e99e0aa88e7a26ebc6cbe583606001513383865f0151426040516108bf959493929190613445565b60405180910390a16108cf611963565b505050565b7f000000000000000000000000000000000000000000000000000000000000000073ffffffffffffffffffffffffffffffffffffffff166395a8c58d3360026040518363ffffffff1660e01b8152600401610930929190613128565b602060405180830381865afa15801561094b573d5f803e3d5ffd5b505050506040513d601f19601f8201168201806040525081019061096f9190613184565b6109ae576040517f08c379a00000000000000000000000000000000000000000000000000000000081526004016109a5906133a5565b60405180910390fd5b6109b661191f565b7f000000000000000000000000000000000000000000000000000000000000000073ffffffffffffffffffffffffffffffffffffffff16631acf250086868686336040518663ffffffff1660e01b8152600401610a179594939291906134a4565b5f604051808303815f87803b158015610a2e575f80fd5b505af1158015610a40573d5f803e3d5ffd5b505050507fa4a4ed86dce7c96c7821a45fbbe8394915281a2a2fa758ab0465b199c571abfb8233834288604051610a7b959493929190613511565b60405180910390a1610a8b611963565b5050505050565b7f000000000000000000000000000000000000000000000000000000000000000073ffffffffffffffffffffffffffffffffffffffff166395a8c58d3360026040518363ffffffff1660e01b8152600401610aee929190613128565b602060405180830381865afa158015610b09573d5f803e3d5ffd5b505050506040513d601f19601f82011682018060405250810190610b2d9190613184565b610b6c576040517f08c379a0000000000000000000000000000000000000000000000000000000008152600401610b63906133a5565b60405180910390fd5b610b7461191f565b7f000000000000000000000000000000000000000000000000000000000000000073ffffffffffffffffffffffffffffffffffffffff1663b9e49080845f01518560200151866040015187606001518860800151886040518763ffffffff1660e01b8152600401610bea969594939291906133c3565b5f604051808303815f87803b158015610c01575f80fd5b505af1158015610c13573d5f803e3d5ffd5b505050507fc8c9ccc57ad2f7823680b448dd87b511b225eb0ac2e99e0aa88e7a26ebc6cbe583606001513383865f015142604051610c55959493929190613445565b60405180910390a1610c65611963565b505050565b60607f000000000000000000000000000000000000000000000000000000000000000073ffffffffffffffffffffffffffffffffffffffff166381fc60a5836040518263ffffffff1660e01b8152600401610cc59190611d6e565b5f60405180830381865afa158015610cdf573d5f803e3d5ffd5b505050506040513d5f823e3d601f19601f82011682018060405250810190610d079190613796565b9050919050565b60607f000000000000000000000000000000000000000000000000000000000000000073ffffffffffffffffffffffffffffffffffffffff16635850607c6040518163ffffffff1660e01b81526004015f60405180830381865afa158015610d78573d5f803e3d5ffd5b505050506040513d5f823e3d601f19601f82011682018060405250810190610da09190613796565b905090565b610dad61196c565b610db56119ca565b610dbd6119f4565b610dc5611a15565b5f805f7f000000000000000000000000000000000000000000000000000000000000000073ffffffffffffffffffffffffffffffffffffffff166370c056b0896040518263ffffffff1660e01b8152600401610e219190611d6e565b5f60405180830381865afa158015610e3b573d5f803e3d5ffd5b505050506040513d5f823e3d601f19601f82011682018060405250810190610e6391906139e0565b9250925092507f000000000000000000000000000000000000000000000000000000000000000073ffffffffffffffffffffffffffffffffffffffff1663be2e2325896040518263ffffffff1660e01b8152600401610ec29190611d6e565b5f60405180830381865afa158015610edc573d5f803e3d5ffd5b505050506040513d5f823e3d601f19601f82011682018060405250810190610f049190613c76565b83838396509650965096505050509193509193565b610f2161196c565b610f29611a2f565b610f31611a52565b610f39611a6c565b5f805f7f000000000000000000000000000000000000000000000000000000000000000073ffffffffffffffffffffffffffffffffffffffff16637e8f8da7896040518263ffffffff1660e01b8152600401610f959190611d6e565b5f60405180830381865afa158015610faf573d5f803e3d5ffd5b505050506040513d5f823e3d601f19601f82011682018060405250810190610fd79190613f82565b9250925092507f000000000000000000000000000000000000000000000000000000000000000073ffffffffffffffffffffffffffffffffffffffff1663be2e2325896040518263ffffffff1660e01b81526004016110369190611d6e565b5f60405180830381865afa158015611050573d5f803e3d5ffd5b505050506040513d5f823e3d601f19601f820116820180604052508101906110789190613c76565b83838396509650965096505050509193509193565b7f000000000000000000000000000000000000000000000000000000000000000073ffffffffffffffffffffffffffffffffffffffff166395a8c58d335f6040518363ffffffff1660e01b81526004016110e8929190613128565b602060405180830381865afa158015611103573d5f803e3d5ffd5b505050506040513d601f19601f820116820180604052508101906111279190613184565b611166576040517f08c379a000000000000000000000000000000000000000000000000000000000815260040161115d90614096565b60405180910390fd5b61116e61191f565b7f000000000000000000000000000000000000000000000000000000000000000073ffffffffffffffffffffffffffffffffffffffff166364b409ff865f0151876020015188604001518960600151898989896040518963ffffffff1660e01b81526004016111e49897969594939291906140b4565b5f604051808303815f87803b1580156111fb575f80fd5b505af115801561120d573d5f803e3d5ffd5b505050507ff52a0795d3c1a788d33423aa105be7a0aaa157621a984632251e0c2ed142d040856040015133864260405161124a94939291906132eb565b60405180910390a161125a611963565b5050505050565b7f000000000000000000000000000000000000000000000000000000000000000073ffffffffffffffffffffffffffffffffffffffff166395a8c58d3360026040518363ffffffff1660e01b81526004016112bd929190613128565b602060405180830381865afa1580156112d8573d5f803e3d5ffd5b505050506040513d601f19601f820116820180604052508101906112fc9190613184565b61133b576040517f08c379a0000000000000000000000000000000000000000000000000000000008152600401611332906133a5565b60405180910390fd5b61134361191f565b7f000000000000000000000000000000000000000000000000000000000000000073ffffffffffffffffffffffffffffffffffffffff1663e462dde586868686336040518663ffffffff1660e01b81526004016113a49594939291906134a4565b5f604051808303815f87803b1580156113bb575f80fd5b505af11580156113cd573d5f803e3d5ffd5b505050507fa4a4ed86dce7c96c7821a45fbbe8394915281a2a2fa758ab0465b199c571abfb8233834288604051611408959493929190613511565b60405180910390a1611418611963565b5050505050565b7f000000000000000000000000000000000000000000000000000000000000000081565b7f000000000000000000000000000000000000000000000000000000000000000073ffffffffffffffffffffffffffffffffffffffff166395a8c58d3360016040518363ffffffff1660e01b815260040161149f929190613128565b602060405180830381865afa1580156114ba573d5f803e3d5ffd5b505050506040513d601f19601f820116820180604052508101906114de9190613184565b61151d576040517f08c379a00000000000000000000000000000000000000000000000000000000081526004016115149061321f565b60405180910390fd5b61152561191f565b7f000000000000000000000000000000000000000000000000000000000000000073ffffffffffffffffffffffffffffffffffffffff1663a7226527845f015184846040518463ffffffff1660e01b81526004016115859392919061415a565b5f604051808303815f87803b15801561159c575f80fd5b505af11580156115ae573d5f803e3d5ffd5b505050507fc77dd947ea8bfd0bd2706c8fad9b1178313fad6bd4cb678b9342239be4f8852883604001518460600151426040516115ed939291906141a4565b60405180910390a16115fd611963565b505050565b7f000000000000000000000000000000000000000000000000000000000000000073ffffffffffffffffffffffffffffffffffffffff166395a8c58d335f6040518363ffffffff1660e01b815260040161165d929190613128565b602060405180830381865afa158015611678573d5f803e3d5ffd5b505050506040513d601f19601f8201168201806040525081019061169c9190613184565b6116db576040517f08c379a00000000000000000000000000000000000000000000000000000000081526004016116d290614096565b60405180910390fd5b6116e361191f565b7f000000000000000000000000000000000000000000000000000000000000000073ffffffffffffffffffffffffffffffffffffffff1663e8002b27845f015184846040518463ffffffff1660e01b8152600401611743939291906141e0565b5f604051808303815f87803b15801561175a575f80fd5b505af115801561176c573d5f803e3d5ffd5b505050507fc77dd947ea8bfd0bd2706c8fad9b1178313fad6bd4cb678b9342239be4f8852883604001518460600151426040516117ab939291906141a4565b60405180910390a16117bb611963565b505050565b60607f000000000000000000000000000000000000000000000000000000000000000073ffffffffffffffffffffffffffffffffffffffff16636f12c230836040518263ffffffff1660e01b815260040161181b9190611d6e565b5f60405180830381865afa158015611835573d5f803e3d5ffd5b505050506040513d5f823e3d601f19601f8201168201806040525081019061185d9190614415565b9050919050565b7f000000000000000000000000000000000000000000000000000000000000000081565b60607f000000000000000000000000000000000000000000000000000000000000000073ffffffffffffffffffffffffffffffffffffffff1663f14261d26040518163ffffffff1660e01b81526004015f60405180830381865afa1580156118f2573d5f803e3d5ffd5b505050506040513d5f823e3d601f19601f8201168201806040525081019061191a9190614415565b905090565b60025f540361195a576040517f3ee5aeb500000000000000000000000000000000000000000000000000000000815260040160405180910390fd5b60025f81905550565b60015f81905550565b6040518061010001604052805f600381111561198b5761198a61249c565b5b81526020015f81526020015f81526020015f81526020015f81526020016119b0611ab1565b81526020016119bd611ab1565b8152602001606081525090565b604051806080016040528060608152602001606081526020015f60ff168152602001606081525090565b60405180606001604052806060815260200160608152602001606081525090565b604051806040016040528060608152602001606081525090565b604051806060016040528060608152602001606081526020015f60ff1681525090565b604051806040016040528060608152602001606081525090565b60405180610100016040528060608152602001606081526020016060815260200160608152602001606081526020016060815260200160608152602001606081525090565b604051806060016040528060608152602001606081526020015f73ffffffffffffffffffffffffffffffffffffffff1681525090565b5f73ffffffffffffffffffffffffffffffffffffffff82169050919050565b5f819050919050565b5f611b29611b24611b1f84611ae7565b611b06565b611ae7565b9050919050565b5f611b3a82611b0f565b9050919050565b5f611b4b82611b30565b9050919050565b611b5b81611b41565b82525050565b5f602082019050611b745f830184611b52565b92915050565b5f604051905090565b5f80fd5b5f80fd5b5f80fd5b5f80fd5b5f601f19601f8301169050919050565b7f4e487b71000000000000000000000000000000000000000000000000000000005f52604160045260245ffd5b611bd982611b93565b810181811067ffffffffffffffff82111715611bf857611bf7611ba3565b5b80604052505050565b5f611c0a611b7a565b9050611c168282611bd0565b919050565b5f67ffffffffffffffff821115611c3557611c34611ba3565b5b611c3e82611b93565b9050602081019050919050565b828183375f83830152505050565b5f611c6b611c6684611c1b565b611c01565b905082815260208101848484011115611c8757611c86611b8f565b5b611c92848285611c4b565b509392505050565b5f82601f830112611cae57611cad611b8b565b5b8135611cbe848260208601611c59565b91505092915050565b5f60208284031215611cdc57611cdb611b83565b5b5f82013567ffffffffffffffff811115611cf957611cf8611b87565b5b611d0584828501611c9a565b91505092915050565b5f81519050919050565b5f82825260208201905092915050565b8281835e5f83830152505050565b5f611d4082611d0e565b611d4a8185611d18565b9350611d5a818560208601611d28565b611d6381611b93565b840191505092915050565b5f6020820190508181035f830152611d868184611d36565b905092915050565b5f80fd5b5f80fd5b5f611da082611ae7565b9050919050565b611db081611d96565b8114611dba575f80fd5b50565b5f81359050611dcb81611da7565b92915050565b5f60808284031215611de657611de5611d8e565b5b611df06080611c01565b90505f82013567ffffffffffffffff811115611e0f57611e0e611d92565b5b611e1b84828501611c9a565b5f83015250602082013567ffffffffffffffff811115611e3e57611e3d611d92565b5b611e4a84828501611c9a565b602083015250604082013567ffffffffffffffff811115611e6e57611e6d611d92565b5b611e7a84828501611c9a565b6040830152506060611e8e84828501611dbd565b60608301525092915050565b5f60ff82169050919050565b611eaf81611e9a565b8114611eb9575f80fd5b50565b5f81359050611eca81611ea6565b92915050565b5f60408284031215611ee557611ee4611d8e565b5b611eef6040611c01565b90505f82013567ffffffffffffffff811115611f0e57611f0d611d92565b5b611f1a84828501611c9a565b5f83015250602082013567ffffffffffffffff811115611f3d57611f3c611d92565b5b611f4984828501611c9a565b60208301525092915050565b5f6101008284031215611f6b57611f6a611d8e565b5b611f76610100611c01565b90505f82013567ffffffffffffffff811115611f9557611f94611d92565b5b611fa184828501611c9a565b5f83015250602082013567ffffffffffffffff811115611fc457611fc3611d92565b5b611fd084828501611c9a565b602083015250604082013567ffffffffffffffff811115611ff457611ff3611d92565b5b61200084828501611c9a565b604083015250606082013567ffffffffffffffff81111561202457612023611d92565b5b61203084828501611c9a565b606083015250608082013567ffffffffffffffff81111561205457612053611d92565b5b61206084828501611c9a565b60808301525060a082013567ffffffffffffffff81111561208457612083611d92565b5b61209084828501611c9a565b60a08301525060c082013567ffffffffffffffff8111156120b4576120b3611d92565b5b6120c084828501611c9a565b60c08301525060e082013567ffffffffffffffff8111156120e4576120e3611d92565b5b6120f084828501611c9a565b60e08301525092915050565b5f805f806080858703121561211457612113611b83565b5b5f85013567ffffffffffffffff81111561213157612130611b87565b5b61213d87828801611dd1565b945050602061214e87828801611ebc565b935050604085013567ffffffffffffffff81111561216f5761216e611b87565b5b61217b87828801611ed0565b925050606085013567ffffffffffffffff81111561219c5761219b611b87565b5b6121a887828801611f55565b91505092959194509250565b5f60a082840312156121c9576121c8611d8e565b5b6121d360a0611c01565b90505f82013567ffffffffffffffff8111156121f2576121f1611d92565b5b6121fe84828501611c9a565b5f83015250602082013567ffffffffffffffff81111561222157612220611d92565b5b61222d84828501611c9a565b602083015250604082013567ffffffffffffffff81111561225157612250611d92565b5b61225d84828501611c9a565b604083015250606082013567ffffffffffffffff81111561228157612280611d92565b5b61228d84828501611c9a565b60608301525060806122a184828501611dbd565b60808301525092915050565b5f805f606084860312156122c4576122c3611b83565b5b5f84013567ffffffffffffffff8111156122e1576122e0611b87565b5b6122ed868287016121b4565b935050602084013567ffffffffffffffff81111561230e5761230d611b87565b5b61231a86828701611c9a565b925050604061232b86828701611ebc565b9150509250925092565b5f805f805f60a0868803121561234e5761234d611b83565b5b5f86013567ffffffffffffffff81111561236b5761236a611b87565b5b61237788828901611c9a565b955050602086013567ffffffffffffffff81111561239857612397611b87565b5b6123a488828901611c9a565b945050604086013567ffffffffffffffff8111156123c5576123c4611b87565b5b6123d188828901611c9a565b935050606086013567ffffffffffffffff8111156123f2576123f1611b87565b5b6123fe88828901611c9a565b925050608061240f88828901611ebc565b9150509295509295909350565b5f81519050919050565b5f82825260208201905092915050565b5f819050602082019050919050565b5f82825260208201905092915050565b5f61245f82611d0e565b6124698185612445565b9350612479818560208601611d28565b61248281611b93565b840191505092915050565b61249681611e9a565b82525050565b7f4e487b71000000000000000000000000000000000000000000000000000000005f52602160045260245ffd5b600481106124da576124d961249c565b5b50565b5f8190506124ea826124c9565b919050565b5f6124f9826124dd565b9050919050565b612509816124ef565b82525050565b5f60c083015f8301518482035f8601526125298282612455565b915050602083015184820360208601526125438282612455565b9150506040830151848203604086015261255d8282612455565b9150506060830151612572606086018261248d565b5060808301516125856080860182612500565b5060a083015184820360a086015261259d8282612455565b9150508091505092915050565b5f6125b5838361250f565b905092915050565b5f602082019050919050565b5f6125d38261241c565b6125dd8185612426565b9350836020820285016125ef85612436565b805f5b8581101561262a578484038952815161260b85826125aa565b9450612616836125bd565b925060208a019950506001810190506125f2565b50829750879550505050505092915050565b5f6020820190508181035f83015261265481846125c9565b905092915050565b5f819050919050565b61266e8161265c565b82525050565b61267d81611d96565b82525050565b5f606083015f8301518482035f86015261269d8282612455565b915050602083015184820360208601526126b78282612455565b91505060408301516126cc6040860182612674565b508091505092915050565b5f61010083015f8301516126ed5f860182612500565b5060208301516127006020860182612665565b5060408301516127136040860182612665565b5060608301516127266060860182612665565b5060808301516127396080860182612665565b5060a083015184820360a08601526127518282612683565b91505060c083015184820360c086015261276b8282612683565b91505060e083015184820360e08601526127858282612455565b9150508091505092915050565b5f608083015f8301518482035f8601526127ac8282612455565b915050602083015184820360208601526127c68282612455565b91505060408301516127db604086018261248d565b50606083015184820360608601526127f38282612455565b9150508091505092915050565b5f606083015f8301518482035f86015261281a8282612455565b915050602083015184820360208601526128348282612455565b9150506040830151848203604086015261284e8282612455565b9150508091505092915050565b5f604083015f8301518482035f8601526128758282612455565b9150506020830151848203602086015261288f8282612455565b9150508091505092915050565b5f6080820190508181035f8301526128b481876126d7565b905081810360208301526128c88186612792565b905081810360408301526128dc8185612800565b905081810360608301526128f0818461285b565b905095945050505050565b5f606083015f8301518482035f8601526129158282612455565b9150506020830151848203602086015261292f8282612455565b9150506040830151612944604086018261248d565b508091505092915050565b5f604083015f8301518482035f8601526129698282612455565b915050602083015184820360208601526129838282612455565b9150508091505092915050565b5f61010083015f8301518482035f8601526129ab8282612455565b915050602083015184820360208601526129c58282612455565b915050604083015184820360408601526129df8282612455565b915050606083015184820360608601526129f98282612455565b91505060808301518482036080860152612a138282612455565b91505060a083015184820360a0860152612a2d8282612455565b91505060c083015184820360c0860152612a478282612455565b91505060e083015184820360e0860152612a618282612455565b9150508091505092915050565b5f6080820190508181035f830152612a8681876126d7565b90508181036020830152612a9a81866128fb565b90508181036040830152612aae818561294f565b90508181036060830152612ac28184612990565b905095945050505050565b5f60608284031215612ae257612ae1611d8e565b5b612aec6060611c01565b90505f82013567ffffffffffffffff811115612b0b57612b0a611d92565b5b612b1784828501611c9a565b5f83015250602082013567ffffffffffffffff811115612b3a57612b39611d92565b5b612b4684828501611c9a565b602083015250604082013567ffffffffffffffff811115612b6a57612b69611d92565b5b612b7684828501611c9a565b60408301525092915050565b5f60408284031215612b9757612b96611d8e565b5b612ba16040611c01565b90505f82013567ffffffffffffffff811115612bc057612bbf611d92565b5b612bcc84828501611c9a565b5f83015250602082013567ffffffffffffffff811115612bef57612bee611d92565b5b612bfb84828501611c9a565b60208301525092915050565b5f805f805f60a08688031215612c2057612c1f611b83565b5b5f86013567ffffffffffffffff811115612c3d57612c3c611b87565b5b612c4988828901611dd1565b9550506020612c5a88828901611ebc565b945050604086013567ffffffffffffffff811115612c7b57612c7a611b87565b5b612c8788828901611c9a565b935050606086013567ffffffffffffffff811115612ca857612ca7611b87565b5b612cb488828901612acd565b925050608086013567ffffffffffffffff811115612cd557612cd4611b87565b5b612ce188828901612b82565b9150509295509295909350565b5f612cf882611b30565b9050919050565b612d0881612cee565b82525050565b5f602082019050612d215f830184612cff565b92915050565b5f805f60608486031215612d3e57612d3d611b83565b5b5f84013567ffffffffffffffff811115612d5b57612d5a611b87565b5b612d6786828701611dd1565b935050602084013567ffffffffffffffff811115612d8857612d87611b87565b5b612d9486828701611ed0565b925050604084013567ffffffffffffffff811115612db557612db4611b87565b5b612dc186828701611f55565b9150509250925092565b5f805f60608486031215612de257612de1611b83565b5b5f84013567ffffffffffffffff811115612dff57612dfe611b87565b5b612e0b86828701611dd1565b935050602084013567ffffffffffffffff811115612e2c57612e2b611b87565b5b612e3886828701612acd565b925050604084013567ffffffffffffffff811115612e5957612e58611b87565b5b612e6586828701612b82565b9150509250925092565b5f81519050919050565b5f82825260208201905092915050565b5f819050602082019050919050565b5f60c083015f8301518482035f860152612eb28282612455565b91505060208301518482036020860152612ecc8282612455565b91505060408301518482036040860152612ee68282612455565b9150506060830151612efb606086018261248d565b506080830151612f0e6080860182612500565b5060a083015184820360a0860152612f268282612455565b9150508091505092915050565b5f612f3e8383612e98565b905092915050565b5f602082019050919050565b5f612f5c82612e6f565b612f668185612e79565b935083602082028501612f7885612e89565b805f5b85811015612fb35784840389528151612f948582612f33565b9450612f9f83612f46565b925060208a01995050600181019050612f7b565b50829750879550505050505092915050565b5f6020820190508181035f830152612fdd8184612f52565b905092915050565b5f612fef82611b30565b9050919050565b612fff81612fe5565b82525050565b5f6020820190506130185f830184612ff6565b92915050565b5f61303061302b84611c1b565b611c01565b90508281526020810184848401111561304c5761304b611b8f565b5b613057848285611d28565b509392505050565b5f82601f83011261307357613072611b8b565b5b815161308384826020860161301e565b91505092915050565b5f602082840312156130a1576130a0611b83565b5b5f82015167ffffffffffffffff8111156130be576130bd611b87565b5b6130ca8482850161305f565b91505092915050565b6130dc81611d96565b82525050565b600481106130f3576130f261249c565b5b50565b5f819050613103826130e2565b919050565b5f613112826130f6565b9050919050565b61312281613108565b82525050565b5f60408201905061313b5f8301856130d3565b6131486020830184613119565b9392505050565b5f8115159050919050565b6131638161314f565b811461316d575f80fd5b50565b5f8151905061317e8161315a565b92915050565b5f6020828403121561319957613198611b83565b5b5f6131a684828501613170565b91505092915050565b7f4f6e6c79205042462063616e20646f2074686973207472616e73616374696f6e5f8201527f2100000000000000000000000000000000000000000000000000000000000000602082015250565b5f613209602183611d18565b9150613214826131af565b604082019050919050565b5f6020820190508181035f830152613236816131fd565b9050919050565b61324681611e9a565b82525050565b5f60e0820190508181035f830152613264818a611d36565b905081810360208301526132788189611d36565b9050818103604083015261328c8188611d36565b905061329b60608301876130d3565b6132a8608083018661323d565b81810360a08301526132ba818561294f565b905081810360c08301526132ce8184612990565b905098975050505050505050565b6132e58161265c565b82525050565b5f6080820190508181035f8301526133038187611d36565b905061331260208301866130d3565b61331f604083018561323d565b61332c60608301846132dc565b95945050505050565b7f4f6e6c792042504f4d2063616e20646f2074686973207472616e73616374696f5f8201527f6e21000000000000000000000000000000000000000000000000000000000000602082015250565b5f61338f602283611d18565b915061339a82613335565b604082019050919050565b5f6020820190508181035f8301526133bc81613383565b9050919050565b5f60c0820190508181035f8301526133db8189611d36565b905081810360208301526133ef8188611d36565b905081810360408301526134038187611d36565b905081810360608301526134178186611d36565b905061342660808301856130d3565b81810360a08301526134388184611d36565b9050979650505050505050565b5f60a0820190508181035f83015261345d8188611d36565b905061346c60208301876130d3565b613479604083018661323d565b818103606083015261348b8185611d36565b905061349a60808301846132dc565b9695505050505050565b5f60a0820190508181035f8301526134bc8188611d36565b905081810360208301526134d08187611d36565b905081810360408301526134e48186611d36565b905081810360608301526134f88185611d36565b905061350760808301846130d3565b9695505050505050565b5f60a0820190508181035f8301526135298188611d36565b905061353860208301876130d3565b613545604083018661323d565b61355260608301856132dc565b81810360808301526135648184611d36565b90509695505050505050565b5f67ffffffffffffffff82111561358a57613589611ba3565b5b602082029050602081019050919050565b5f80fd5b5f815190506135ad81611ea6565b92915050565b600481106135bf575f80fd5b50565b5f815190506135d0816135b3565b92915050565b5f60c082840312156135eb576135ea611d8e565b5b6135f560c0611c01565b90505f82015167ffffffffffffffff81111561361457613613611d92565b5b6136208482850161305f565b5f83015250602082015167ffffffffffffffff81111561364357613642611d92565b5b61364f8482850161305f565b602083015250604082015167ffffffffffffffff81111561367357613672611d92565b5b61367f8482850161305f565b60408301525060606136938482850161359f565b60608301525060806136a7848285016135c2565b60808301525060a082015167ffffffffffffffff8111156136cb576136ca611d92565b5b6136d78482850161305f565b60a08301525092915050565b5f6136f56136f084613570565b611c01565b905080838252602082019050602084028301858111156137185761371761359b565b5b835b8181101561375f57805167ffffffffffffffff81111561373d5761373c611b8b565b5b80860161374a89826135d6565b8552602085019450505060208101905061371a565b5050509392505050565b5f82601f83011261377d5761377c611b8b565b5b815161378d8482602086016136e3565b91505092915050565b5f602082840312156137ab576137aa611b83565b5b5f82015167ffffffffffffffff8111156137c8576137c7611b87565b5b6137d484828501613769565b91505092915050565b5f608082840312156137f2576137f1611d8e565b5b6137fc6080611c01565b90505f82015167ffffffffffffffff81111561381b5761381a611d92565b5b6138278482850161305f565b5f83015250602082015167ffffffffffffffff81111561384a57613849611d92565b5b6138568482850161305f565b602083015250604061386a8482850161359f565b604083015250606082015167ffffffffffffffff81111561388e5761388d611d92565b5b61389a8482850161305f565b60608301525092915050565b5f606082840312156138bb576138ba611d8e565b5b6138c56060611c01565b90505f82015167ffffffffffffffff8111156138e4576138e3611d92565b5b6138f08482850161305f565b5f83015250602082015167ffffffffffffffff81111561391357613912611d92565b5b61391f8482850161305f565b602083015250604082015167ffffffffffffffff81111561394357613942611d92565b5b61394f8482850161305f565b60408301525092915050565b5f604082840312156139705761396f611d8e565b5b61397a6040611c01565b90505f82015167ffffffffffffffff81111561399957613998611d92565b5b6139a58482850161305f565b5f83015250602082015167ffffffffffffffff8111156139c8576139c7611d92565b5b6139d48482850161305f565b60208301525092915050565b5f805f606084860312156139f7576139f6611b83565b5b5f84015167ffffffffffffffff811115613a1457613a13611b87565b5b613a20868287016137dd565b935050602084015167ffffffffffffffff811115613a4157613a40611b87565b5b613a4d868287016138a6565b925050604084015167ffffffffffffffff811115613a6e57613a6d611b87565b5b613a7a8682870161395b565b9150509250925092565b613a8d8161265c565b8114613a97575f80fd5b50565b5f81519050613aa881613a84565b92915050565b5f81519050613abc81611da7565b92915050565b5f60608284031215613ad757613ad6611d8e565b5b613ae16060611c01565b90505f82015167ffffffffffffffff811115613b0057613aff611d92565b5b613b0c8482850161305f565b5f83015250602082015167ffffffffffffffff811115613b2f57613b2e611d92565b5b613b3b8482850161305f565b6020830152506040613b4f84828501613aae565b60408301525092915050565b5f6101008284031215613b7157613b70611d8e565b5b613b7c610100611c01565b90505f613b8b848285016135c2565b5f830152506020613b9e84828501613a9a565b6020830152506040613bb284828501613a9a565b6040830152506060613bc684828501613a9a565b6060830152506080613bda84828501613a9a565b60808301525060a082015167ffffffffffffffff811115613bfe57613bfd611d92565b5b613c0a84828501613ac2565b60a08301525060c082015167ffffffffffffffff811115613c2e57613c2d611d92565b5b613c3a84828501613ac2565b60c08301525060e082015167ffffffffffffffff811115613c5e57613c5d611d92565b5b613c6a8482850161305f565b60e08301525092915050565b5f60208284031215613c8b57613c8a611b83565b5b5f82015167ffffffffffffffff811115613ca857613ca7611b87565b5b613cb484828501613b5b565b91505092915050565b5f60608284031215613cd257613cd1611d8e565b5b613cdc6060611c01565b90505f82015167ffffffffffffffff811115613cfb57613cfa611d92565b5b613d078482850161305f565b5f83015250602082015167ffffffffffffffff811115613d2a57613d29611d92565b5b613d368482850161305f565b6020830152506040613d4a8482850161359f565b60408301525092915050565b5f60408284031215613d6b57613d6a611d8e565b5b613d756040611c01565b90505f82015167ffffffffffffffff811115613d9457613d93611d92565b5b613da08482850161305f565b5f83015250602082015167ffffffffffffffff811115613dc357613dc2611d92565b5b613dcf8482850161305f565b60208301525092915050565b5f6101008284031215613df157613df0611d8e565b5b613dfc610100611c01565b90505f82015167ffffffffffffffff811115613e1b57613e1a611d92565b5b613e278482850161305f565b5f83015250602082015167ffffffffffffffff811115613e4a57613e49611d92565b5b613e568482850161305f565b602083015250604082015167ffffffffffffffff811115613e7a57613e79611d92565b5b613e868482850161305f565b604083015250606082015167ffffffffffffffff811115613eaa57613ea9611d92565b5b613eb68482850161305f565b606083015250608082015167ffffffffffffffff811115613eda57613ed9611d92565b5b613ee68482850161305f565b60808301525060a082015167ffffffffffffffff811115613f0a57613f09611d92565b5b613f168482850161305f565b60a08301525060c082015167ffffffffffffffff811115613f3a57613f39611d92565b5b613f468482850161305f565b60c08301525060e082015167ffffffffffffffff811115613f6a57613f69611d92565b5b613f768482850161305f565b60e08301525092915050565b5f805f60608486031215613f9957613f98611b83565b5b5f84015167ffffffffffffffff811115613fb657613fb5611b87565b5b613fc286828701613cbd565b935050602084015167ffffffffffffffff811115613fe357613fe2611b87565b5b613fef86828701613d56565b925050604084015167ffffffffffffffff8111156140105761400f611b87565b5b61401c86828701613ddb565b9150509250925092565b7f4f6e6c7920466163746f72792063616e20646f2074686973207472616e7361635f8201527f74696f6e21000000000000000000000000000000000000000000000000000000602082015250565b5f614080602583611d18565b915061408b82614026565b604082019050919050565b5f6020820190508181035f8301526140ad81614074565b9050919050565b5f610100820190508181035f8301526140cd818b611d36565b905081810360208301526140e1818a611d36565b905081810360408301526140f58189611d36565b905061410460608301886130d3565b614111608083018761323d565b81810360a08301526141238186611d36565b905081810360c08301526141378185612800565b905081810360e083015261414b818461285b565b90509998505050505050505050565b5f6060820190508181035f8301526141728186611d36565b90508181036020830152614186818561294f565b9050818103604083015261419a8184612990565b9050949350505050565b5f6060820190508181035f8301526141bc8186611d36565b90506141cb60208301856130d3565b6141d860408301846132dc565b949350505050565b5f6060820190508181035f8301526141f88186611d36565b9050818103602083015261420c8185612800565b90508181036040830152614220818461285b565b9050949350505050565b5f67ffffffffffffffff82111561424457614243611ba3565b5b602082029050602081019050919050565b5f60c0828403121561426a57614269611d8e565b5b61427460c0611c01565b90505f82015167ffffffffffffffff81111561429357614292611d92565b5b61429f8482850161305f565b5f83015250602082015167ffffffffffffffff8111156142c2576142c1611d92565b5b6142ce8482850161305f565b602083015250604082015167ffffffffffffffff8111156142f2576142f1611d92565b5b6142fe8482850161305f565b60408301525060606143128482850161359f565b6060830152506080614326848285016135c2565b60808301525060a082015167ffffffffffffffff81111561434a57614349611d92565b5b6143568482850161305f565b60a08301525092915050565b5f61437461436f8461422a565b611c01565b905080838252602082019050602084028301858111156143975761439661359b565b5b835b818110156143de57805167ffffffffffffffff8111156143bc576143bb611b8b565b5b8086016143c98982614255565b85526020850194505050602081019050614399565b5050509392505050565b5f82601f8301126143fc576143fb611b8b565b5b815161440c848260208601614362565b91505092915050565b5f6020828403121561442a57614429611b83565b5b5f82015167ffffffffffffffff81111561444757614446611b87565b5b614453848285016143e8565b9150509291505056fea2646970667358221220c5cd34faac9d9b74c07fff3a6ca84a8b9fd9014282695324a5ee4c559abff2da64736f6c634300081a0033",
			"opcodes": "PUSH1 0xE0 PUSH1 0x40 MSTORE CALLVALUE DUP1 ISZERO PUSH2 0xF JUMPI PUSH0 DUP1 REVERT JUMPDEST POP PUSH1 0x40 MLOAD PUSH2 0x46FC CODESIZE SUB DUP1 PUSH2 0x46FC DUP4 CODECOPY DUP2 DUP2 ADD PUSH1 0x40 MSTORE DUP2 ADD SWAP1 PUSH2 0x31 SWAP2 SWAP1 PUSH2 0x13A JUMP JUMPDEST PUSH1 0x1 PUSH0 DUP2 SWAP1 SSTORE POP DUP3 PUSH20 0xFFFFFFFFFFFFFFFFFFFFFFFFFFFFFFFFFFFFFFFF AND PUSH1 0x80 DUP2 PUSH20 0xFFFFFFFFFFFFFFFFFFFFFFFFFFFFFFFFFFFFFFFF AND DUP2 MSTORE POP POP DUP2 PUSH20 0xFFFFFFFFFFFFFFFFFFFFFFFFFFFFFFFFFFFFFFFF AND PUSH1 0xA0 DUP2 PUSH20 0xFFFFFFFFFFFFFFFFFFFFFFFFFFFFFFFFFFFFFFFF AND DUP2 MSTORE POP POP DUP1 PUSH20 0xFFFFFFFFFFFFFFFFFFFFFFFFFFFFFFFFFFFFFFFF AND PUSH1 0xC0 DUP2 PUSH20 0xFFFFFFFFFFFFFFFFFFFFFFFFFFFFFFFFFFFFFFFF AND DUP2 MSTORE POP POP POP POP POP PUSH2 0x18A JUMP JUMPDEST PUSH0 DUP1 REVERT JUMPDEST PUSH0 PUSH20 0xFFFFFFFFFFFFFFFFFFFFFFFFFFFFFFFFFFFFFFFF DUP3 AND SWAP1 POP SWAP2 SWAP1 POP JUMP JUMPDEST PUSH0 PUSH2 0x109 DUP3 PUSH2 0xE0 JUMP JUMPDEST SWAP1 POP SWAP2 SWAP1 POP JUMP JUMPDEST PUSH2 0x119 DUP2 PUSH2 0xFF JUMP JUMPDEST DUP2 EQ PUSH2 0x123 JUMPI PUSH0 DUP1 REVERT JUMPDEST POP JUMP JUMPDEST PUSH0 DUP2 MLOAD SWAP1 POP PUSH2 0x134 DUP2 PUSH2 0x110 JUMP JUMPDEST SWAP3 SWAP2 POP POP JUMP JUMPDEST PUSH0 DUP1 PUSH0 PUSH1 0x60 DUP5 DUP7 SUB SLT ISZERO PUSH2 0x151 JUMPI PUSH2 0x150 PUSH2 0xDC JUMP JUMPDEST JUMPDEST PUSH0 PUSH2 0x15E DUP7 DUP3 DUP8 ADD PUSH2 0x126 JUMP JUMPDEST SWAP4 POP POP PUSH1 0x20 PUSH2 0x16F DUP7 DUP3 DUP8 ADD PUSH2 0x126 JUMP JUMPDEST SWAP3 POP POP PUSH1 0x40 PUSH2 0x180 DUP7 DUP3 DUP8 ADD PUSH2 0x126 JUMP JUMPDEST SWAP2 POP POP SWAP3 POP SWAP3 POP SWAP3 JUMP JUMPDEST PUSH1 0x80 MLOAD PUSH1 0xA0 MLOAD PUSH1 0xC0 MLOAD PUSH2 0x4492 PUSH2 0x26A PUSH0 CODECOPY PUSH0 DUP2 DUP2 PUSH2 0x3E6 ADD MSTORE DUP2 DUP2 PUSH2 0x60E ADD MSTORE DUP2 DUP2 PUSH2 0x7E0 ADD MSTORE DUP2 DUP2 PUSH2 0x9B8 ADD MSTORE DUP2 DUP2 PUSH2 0xF3E ADD MSTORE DUP2 DUP2 PUSH2 0xFDF ADD MSTORE DUP2 DUP2 PUSH2 0x1421 ADD MSTORE DUP2 DUP2 PUSH2 0x1527 ADD MSTORE DUP2 DUP2 PUSH2 0x17C4 ADD MSTORE PUSH2 0x188C ADD MSTORE PUSH0 DUP2 DUP2 PUSH2 0x48A ADD MSTORE DUP2 DUP2 PUSH2 0xB76 ADD MSTORE DUP2 DUP2 PUSH2 0xC6E ADD MSTORE DUP2 DUP2 PUSH2 0xD12 ADD MSTORE DUP2 DUP2 PUSH2 0xDCA ADD MSTORE DUP2 DUP2 PUSH2 0xE6B ADD MSTORE DUP2 DUP2 PUSH2 0x1170 ADD MSTORE DUP2 DUP2 PUSH2 0x1345 ADD MSTORE DUP2 DUP2 PUSH2 0x16E5 ADD MSTORE PUSH2 0x1866 ADD MSTORE PUSH0 DUP2 DUP2 PUSH2 0x3C0 ADD MSTORE DUP2 DUP2 PUSH2 0x52C ADD MSTORE DUP2 DUP2 PUSH2 0x6FE ADD MSTORE DUP2 DUP2 PUSH2 0x8D6 ADD MSTORE DUP2 DUP2 PUSH2 0xA94 ADD MSTORE DUP2 DUP2 PUSH2 0x108F ADD MSTORE DUP2 DUP2 PUSH2 0x1263 ADD MSTORE DUP2 DUP2 PUSH2 0x1445 ADD MSTORE PUSH2 0x1604 ADD MSTORE PUSH2 0x4492 PUSH0 RETURN INVALID PUSH1 0x80 PUSH1 0x40 MSTORE CALLVALUE DUP1 ISZERO PUSH2 0xF JUMPI PUSH0 DUP1 REVERT JUMPDEST POP PUSH1 0x4 CALLDATASIZE LT PUSH2 0x11E JUMPI PUSH0 CALLDATALOAD PUSH1 0xE0 SHR DUP1 PUSH4 0x70C056B0 GT PUSH2 0xAB JUMPI DUP1 PUSH4 0xBBD0B8A9 GT PUSH2 0x6F JUMPI DUP1 PUSH4 0xBBD0B8A9 EQ PUSH2 0x31A JUMPI DUP1 PUSH4 0xCB43B77F EQ PUSH2 0x336 JUMPI DUP1 PUSH4 0xD0927B19 EQ PUSH2 0x352 JUMPI DUP1 PUSH4 0xD369111D EQ PUSH2 0x382 JUMPI DUP1 PUSH4 0xF14261D2 EQ PUSH2 0x3A0 JUMPI PUSH2 0x11E JUMP JUMPDEST DUP1 PUSH4 0x70C056B0 EQ PUSH2 0x25E JUMPI DUP1 PUSH4 0x7E8F8DA7 EQ PUSH2 0x291 JUMPI DUP1 PUSH4 0x87FECD3E EQ PUSH2 0x2C4 JUMPI DUP1 PUSH4 0x9C0ABFD8 EQ PUSH2 0x2E0 JUMPI DUP1 PUSH4 0xAF3A1758 EQ PUSH2 0x2FC JUMPI PUSH2 0x11E JUMP JUMPDEST DUP1 PUSH4 0x2DBCAF0F GT PUSH2 0xF2 JUMPI DUP1 PUSH4 0x2DBCAF0F EQ PUSH2 0x1BC JUMPI DUP1 PUSH4 0x41EE1495 EQ PUSH2 0x1D8 JUMPI DUP1 PUSH4 0x4E03317B EQ PUSH2 0x1F4 JUMPI DUP1 PUSH4 0x51C2D326 EQ PUSH2 0x210 JUMPI DUP1 PUSH4 0x5850607C EQ PUSH2 0x240 JUMPI PUSH2 0x11E JUMP JUMPDEST DUP1 PUSH3 0x435DA5 EQ PUSH2 0x122 JUMPI DUP1 PUSH4 0x17D96797 EQ PUSH2 0x140 JUMPI DUP1 PUSH4 0x1A898044 EQ PUSH2 0x170 JUMPI DUP1 PUSH4 0x1D430349 EQ PUSH2 0x1A0 JUMPI JUMPDEST PUSH0 DUP1 REVERT JUMPDEST PUSH2 0x12A PUSH2 0x3BE JUMP JUMPDEST PUSH1 0x40 MLOAD PUSH2 0x137 SWAP2 SWAP1 PUSH2 0x1B61 JUMP JUMPDEST PUSH1 0x40 MLOAD DUP1 SWAP2 SUB SWAP1 RETURN JUMPDEST PUSH2 0x15A PUSH1 0x4 DUP1 CALLDATASIZE SUB DUP2 ADD SWAP1 PUSH2 0x155 SWAP2 SWAP1 PUSH2 0x1CC7 JUMP JUMPDEST PUSH2 0x3E2 JUMP JUMPDEST PUSH1 0x40 MLOAD PUSH2 0x167 SWAP2 SWAP1 PUSH2 0x1D6E JUMP JUMPDEST PUSH1 0x40 MLOAD DUP1 SWAP2 SUB SWAP1 RETURN JUMPDEST PUSH2 0x18A PUSH1 0x4 DUP1 CALLDATASIZE SUB DUP2 ADD SWAP1 PUSH2 0x185 SWAP2 SWAP1 PUSH2 0x1CC7 JUMP JUMPDEST PUSH2 0x486 JUMP JUMPDEST PUSH1 0x40 MLOAD PUSH2 0x197 SWAP2 SWAP1 PUSH2 0x1D6E JUMP JUMPDEST PUSH1 0x40 MLOAD DUP1 SWAP2 SUB SWAP1 RETURN JUMPDEST PUSH2 0x1BA PUSH1 0x4 DUP1 CALLDATASIZE SUB DUP2 ADD SWAP1 PUSH2 0x1B5 SWAP2 SWAP1 PUSH2 0x20FC JUMP JUMPDEST PUSH2 0x52A JUMP JUMPDEST STOP JUMPDEST PUSH2 0x1D6 PUSH1 0x4 DUP1 CALLDATASIZE SUB DUP2 ADD SWAP1 PUSH2 0x1D1 SWAP2 SWAP1 PUSH2 0x22AD JUMP JUMPDEST PUSH2 0x6FC JUMP JUMPDEST STOP JUMPDEST PUSH2 0x1F2 PUSH1 0x4 DUP1 CALLDATASIZE SUB DUP2 ADD SWAP1 PUSH2 0x1ED SWAP2 SWAP1 PUSH2 0x2335 JUMP JUMPDEST PUSH2 0x8D4 JUMP JUMPDEST STOP JUMPDEST PUSH2 0x20E PUSH1 0x4 DUP1 CALLDATASIZE SUB DUP2 ADD SWAP1 PUSH2 0x209 SWAP2 SWAP1 PUSH2 0x22AD JUMP JUMPDEST PUSH2 0xA92 JUMP JUMPDEST STOP JUMPDEST PUSH2 0x22A PUSH1 0x4 DUP1 CALLDATASIZE SUB DUP2 ADD SWAP1 PUSH2 0x225 SWAP2 SWAP1 PUSH2 0x1CC7 JUMP JUMPDEST PUSH2 0xC6A JUMP JUMPDEST PUSH1 0x40 MLOAD PUSH2 0x237 SWAP2 SWAP1 PUSH2 0x263C JUMP JUMPDEST PUSH1 0x40 MLOAD DUP1 SWAP2 SUB SWAP1 RETURN JUMPDEST PUSH2 0x248 PUSH2 0xD0E JUMP JUMPDEST PUSH1 0x40 MLOAD PUSH2 0x255 SWAP2 SWAP1 PUSH2 0x263C JUMP JUMPDEST PUSH1 0x40 MLOAD DUP1 SWAP2 SUB SWAP1 RETURN JUMPDEST PUSH2 0x278 PUSH1 0x4 DUP1 CALLDATASIZE SUB DUP2 ADD SWAP1 PUSH2 0x273 SWAP2 SWAP1 PUSH2 0x1CC7 JUMP JUMPDEST PUSH2 0xDA5 JUMP JUMPDEST PUSH1 0x40 MLOAD PUSH2 0x288 SWAP5 SWAP4 SWAP3 SWAP2 SWAP1 PUSH2 0x289C JUMP JUMPDEST PUSH1 0x40 MLOAD DUP1 SWAP2 SUB SWAP1 RETURN JUMPDEST PUSH2 0x2AB PUSH1 0x4 DUP1 CALLDATASIZE SUB DUP2 ADD SWAP1 PUSH2 0x2A6 SWAP2 SWAP1 PUSH2 0x1CC7 JUMP JUMPDEST PUSH2 0xF19 JUMP JUMPDEST PUSH1 0x40 MLOAD PUSH2 0x2BB SWAP5 SWAP4 SWAP3 SWAP2 SWAP1 PUSH2 0x2A6E JUMP JUMPDEST PUSH1 0x40 MLOAD DUP1 SWAP2 SUB SWAP1 RETURN JUMPDEST PUSH2 0x2DE PUSH1 0x4 DUP1 CALLDATASIZE SUB DUP2 ADD SWAP1 PUSH2 0x2D9 SWAP2 SWAP1 PUSH2 0x2C07 JUMP JUMPDEST PUSH2 0x108D JUMP JUMPDEST STOP JUMPDEST PUSH2 0x2FA PUSH1 0x4 DUP1 CALLDATASIZE SUB DUP2 ADD SWAP1 PUSH2 0x2F5 SWAP2 SWAP1 PUSH2 0x2335 JUMP JUMPDEST PUSH2 0x1261 JUMP JUMPDEST STOP JUMPDEST PUSH2 0x304 PUSH2 0x141F JUMP JUMPDEST PUSH1 0x40 MLOAD PUSH2 0x311 SWAP2 SWAP1 PUSH2 0x2D0E JUMP JUMPDEST PUSH1 0x40 MLOAD DUP1 SWAP2 SUB SWAP1 RETURN JUMPDEST PUSH2 0x334 PUSH1 0x4 DUP1 CALLDATASIZE SUB DUP2 ADD SWAP1 PUSH2 0x32F SWAP2 SWAP1 PUSH2 0x2D27 JUMP JUMPDEST PUSH2 0x1443 JUMP JUMPDEST STOP JUMPDEST PUSH2 0x350 PUSH1 0x4 DUP1 CALLDATASIZE SUB DUP2 ADD SWAP1 PUSH2 0x34B SWAP2 SWAP1 PUSH2 0x2DCB JUMP JUMPDEST PUSH2 0x1602 JUMP JUMPDEST STOP JUMPDEST PUSH2 0x36C PUSH1 0x4 DUP1 CALLDATASIZE SUB DUP2 ADD SWAP1 PUSH2 0x367 SWAP2 SWAP1 PUSH2 0x1CC7 JUMP JUMPDEST PUSH2 0x17C0 JUMP JUMPDEST PUSH1 0x40 MLOAD PUSH2 0x379 SWAP2 SWAP1 PUSH2 0x2FC5 JUMP JUMPDEST PUSH1 0x40 MLOAD DUP1 SWAP2 SUB SWAP1 RETURN JUMPDEST PUSH2 0x38A PUSH2 0x1864 JUMP JUMPDEST PUSH1 0x40 MLOAD PUSH2 0x397 SWAP2 SWAP1 PUSH2 0x3005 JUMP JUMPDEST PUSH1 0x40 MLOAD DUP1 SWAP2 SUB SWAP1 RETURN JUMPDEST PUSH2 0x3A8 PUSH2 0x1888 JUMP JUMPDEST PUSH1 0x40 MLOAD PUSH2 0x3B5 SWAP2 SWAP1 PUSH2 0x2FC5 JUMP JUMPDEST PUSH1 0x40 MLOAD DUP1 SWAP2 SUB SWAP1 RETURN JUMPDEST PUSH32 0x0 DUP2 JUMP JUMPDEST PUSH1 0x60 PUSH32 0x0 PUSH20 0xFFFFFFFFFFFFFFFFFFFFFFFFFFFFFFFFFFFFFFFF AND PUSH4 0x6D1AA7D5 DUP4 PUSH1 0x40 MLOAD DUP3 PUSH4 0xFFFFFFFF AND PUSH1 0xE0 SHL DUP2 MSTORE PUSH1 0x4 ADD PUSH2 0x43D SWAP2 SWAP1 PUSH2 0x1D6E JUMP JUMPDEST PUSH0 PUSH1 0x40 MLOAD DUP1 DUP4 SUB DUP2 DUP7 GAS STATICCALL ISZERO DUP1 ISZERO PUSH2 0x457 JUMPI RETURNDATASIZE PUSH0 DUP1 RETURNDATACOPY RETURNDATASIZE PUSH0 REVERT JUMPDEST POP POP POP POP PUSH1 0x40 MLOAD RETURNDATASIZE PUSH0 DUP3 RETURNDATACOPY RETURNDATASIZE PUSH1 0x1F NOT PUSH1 0x1F DUP3 ADD AND DUP3 ADD DUP1 PUSH1 0x40 MSTORE POP DUP2 ADD SWAP1 PUSH2 0x47F SWAP2 SWAP1 PUSH2 0x308C JUMP JUMPDEST SWAP1 POP SWAP2 SWAP1 POP JUMP JUMPDEST PUSH1 0x60 PUSH32 0x0 PUSH20 0xFFFFFFFFFFFFFFFFFFFFFFFFFFFFFFFFFFFFFFFF AND PUSH4 0x6D1AA7D5 DUP4 PUSH1 0x40 MLOAD DUP3 PUSH4 0xFFFFFFFF AND PUSH1 0xE0 SHL DUP2 MSTORE PUSH1 0x4 ADD PUSH2 0x4E1 SWAP2 SWAP1 PUSH2 0x1D6E JUMP JUMPDEST PUSH0 PUSH1 0x40 MLOAD DUP1 DUP4 SUB DUP2 DUP7 GAS STATICCALL ISZERO DUP1 ISZERO PUSH2 0x4FB JUMPI RETURNDATASIZE PUSH0 DUP1 RETURNDATACOPY RETURNDATASIZE PUSH0 REVERT JUMPDEST POP POP POP POP PUSH1 0x40 MLOAD RETURNDATASIZE PUSH0 DUP3 RETURNDATACOPY RETURNDATASIZE PUSH1 0x1F NOT PUSH1 0x1F DUP3 ADD AND DUP3 ADD DUP1 PUSH1 0x40 MSTORE POP DUP2 ADD SWAP1 PUSH2 0x523 SWAP2 SWAP1 PUSH2 0x308C JUMP JUMPDEST SWAP1 POP SWAP2 SWAP1 POP JUMP JUMPDEST PUSH32 0x0 PUSH20 0xFFFFFFFFFFFFFFFFFFFFFFFFFFFFFFFFFFFFFFFF AND PUSH4 0x95A8C58D CALLER PUSH1 0x1 PUSH1 0x40 MLOAD DUP4 PUSH4 0xFFFFFFFF AND PUSH1 0xE0 SHL DUP2 MSTORE PUSH1 0x4 ADD PUSH2 0x586 SWAP3 SWAP2 SWAP1 PUSH2 0x3128 JUMP JUMPDEST PUSH1 0x20 PUSH1 0x40 MLOAD DUP1 DUP4 SUB DUP2 DUP7 GAS STATICCALL ISZERO DUP1 ISZERO PUSH2 0x5A1 JUMPI RETURNDATASIZE PUSH0 DUP1 RETURNDATACOPY RETURNDATASIZE PUSH0 REVERT JUMPDEST POP POP POP POP PUSH1 0x40 MLOAD RETURNDATASIZE PUSH1 0x1F NOT PUSH1 0x1F DUP3 ADD AND DUP3 ADD DUP1 PUSH1 0x40 MSTORE POP DUP2 ADD SWAP1 PUSH2 0x5C5 SWAP2 SWAP1 PUSH2 0x3184 JUMP JUMPDEST PUSH2 0x604 JUMPI PUSH1 0x40 MLOAD PUSH32 0x8C379A000000000000000000000000000000000000000000000000000000000 DUP2 MSTORE PUSH1 0x4 ADD PUSH2 0x5FB SWAP1 PUSH2 0x321F JUMP JUMPDEST PUSH1 0x40 MLOAD DUP1 SWAP2 SUB SWAP1 REVERT JUMPDEST PUSH2 0x60C PUSH2 0x191F JUMP JUMPDEST PUSH32 0x0 PUSH20 0xFFFFFFFFFFFFFFFFFFFFFFFFFFFFFFFFFFFFFFFF AND PUSH4 0x682053D9 DUP6 PUSH0 ADD MLOAD DUP7 PUSH1 0x20 ADD MLOAD DUP8 PUSH1 0x40 ADD MLOAD DUP9 PUSH1 0x60 ADD MLOAD DUP9 DUP9 DUP9 PUSH1 0x40 MLOAD DUP9 PUSH4 0xFFFFFFFF AND PUSH1 0xE0 SHL DUP2 MSTORE PUSH1 0x4 ADD PUSH2 0x680 SWAP8 SWAP7 SWAP6 SWAP5 SWAP4 SWAP3 SWAP2 SWAP1 PUSH2 0x324C JUMP JUMPDEST PUSH0 PUSH1 0x40 MLOAD DUP1 DUP4 SUB DUP2 PUSH0 DUP8 DUP1 EXTCODESIZE ISZERO DUP1 ISZERO PUSH2 0x697 JUMPI PUSH0 DUP1 REVERT JUMPDEST POP GAS CALL ISZERO DUP1 ISZERO PUSH2 0x6A9 JUMPI RETURNDATASIZE PUSH0 DUP1 RETURNDATACOPY RETURNDATASIZE PUSH0 REVERT JUMPDEST POP POP POP POP PUSH32 0xF52A0795D3C1A788D33423AA105BE7A0AAA157621A984632251E0C2ED142D040 DUP5 PUSH1 0x40 ADD MLOAD CALLER DUP6 TIMESTAMP PUSH1 0x40 MLOAD PUSH2 0x6E6 SWAP5 SWAP4 SWAP3 SWAP2 SWAP1 PUSH2 0x32EB JUMP JUMPDEST PUSH1 0x40 MLOAD DUP1 SWAP2 SUB SWAP1 LOG1 PUSH2 0x6F6 PUSH2 0x1963 JUMP JUMPDEST POP POP POP POP JUMP JUMPDEST PUSH32 0x0 PUSH20 0xFFFFFFFFFFFFFFFFFFFFFFFFFFFFFFFFFFFFFFFF AND PUSH4 0x95A8C58D CALLER PUSH1 0x2 PUSH1 0x40 MLOAD DUP4 PUSH4 0xFFFFFFFF AND PUSH1 0xE0 SHL DUP2 MSTORE PUSH1 0x4 ADD PUSH2 0x758 SWAP3 SWAP2 SWAP1 PUSH2 0x3128 JUMP JUMPDEST PUSH1 0x20 PUSH1 0x40 MLOAD DUP1 DUP4 SUB DUP2 DUP7 GAS STATICCALL ISZERO DUP1 ISZERO PUSH2 0x773 JUMPI RETURNDATASIZE PUSH0 DUP1 RETURNDATACOPY RETURNDATASIZE PUSH0 REVERT JUMPDEST POP POP POP POP PUSH1 0x40 MLOAD RETURNDATASIZE PUSH1 0x1F NOT PUSH1 0x1F DUP3 ADD AND DUP3 ADD DUP1 PUSH1 0x40 MSTORE POP DUP2 ADD SWAP1 PUSH2 0x797 SWAP2 SWAP1 PUSH2 0x3184 JUMP JUMPDEST PUSH2 0x7D6 JUMPI PUSH1 0x40 MLOAD PUSH32 0x8C379A000000000000000000000000000000000000000000000000000000000 DUP2 MSTORE PUSH1 0x4 ADD PUSH2 0x7CD SWAP1 PUSH2 0x33A5 JUMP JUMPDEST PUSH1 0x40 MLOAD DUP1 SWAP2 SUB SWAP1 REVERT JUMPDEST PUSH2 0x7DE PUSH2 0x191F JUMP JUMPDEST PUSH32 0x0 PUSH20 0xFFFFFFFFFFFFFFFFFFFFFFFFFFFFFFFFFFFFFFFF AND PUSH4 0x2B93F7F2 DUP5 PUSH0 ADD MLOAD DUP6 PUSH1 0x20 ADD MLOAD DUP7 PUSH1 0x40 ADD MLOAD DUP8 PUSH1 0x60 ADD MLOAD DUP9 PUSH1 0x80 ADD MLOAD DUP9 PUSH1 0x40 MLOAD DUP8 PUSH4 0xFFFFFFFF AND PUSH1 0xE0 SHL DUP2 MSTORE PUSH1 0x4 ADD PUSH2 0x854 SWAP7 SWAP6 SWAP5 SWAP4 SWAP3 SWAP2 SWAP1 PUSH2 0x33C3 JUMP JUMPDEST PUSH0 PUSH1 0x40 MLOAD DUP1 DUP4 SUB DUP2 PUSH0 DUP8 DUP1 EXTCODESIZE ISZERO DUP1 ISZERO PUSH2 0x86B JUMPI PUSH0 DUP1 REVERT JUMPDEST POP GAS CALL ISZERO DUP1 ISZERO PUSH2 0x87D JUMPI RETURNDATASIZE PUSH0 DUP1 RETURNDATACOPY RETURNDATASIZE PUSH0 REVERT JUMPDEST POP POP POP POP PUSH32 0xC8C9CCC57AD2F7823680B448DD87B511B225EB0AC2E99E0AA88E7A26EBC6CBE5 DUP4 PUSH1 0x60 ADD MLOAD CALLER DUP4 DUP7 PUSH0 ADD MLOAD TIMESTAMP PUSH1 0x40 MLOAD PUSH2 0x8BF SWAP6 SWAP5 SWAP4 SWAP3 SWAP2 SWAP1 PUSH2 0x3445 JUMP JUMPDEST PUSH1 0x40 MLOAD DUP1 SWAP2 SUB SWAP1 LOG1 PUSH2 0x8CF PUSH2 0x1963 JUMP JUMPDEST POP POP POP JUMP JUMPDEST PUSH32 0x0 PUSH20 0xFFFFFFFFFFFFFFFFFFFFFFFFFFFFFFFFFFFFFFFF AND PUSH4 0x95A8C58D CALLER PUSH1 0x2 PUSH1 0x40 MLOAD DUP4 PUSH4 0xFFFFFFFF AND PUSH1 0xE0 SHL DUP2 MSTORE PUSH1 0x4 ADD PUSH2 0x930 SWAP3 SWAP2 SWAP1 PUSH2 0x3128 JUMP JUMPDEST PUSH1 0x20 PUSH1 0x40 MLOAD DUP1 DUP4 SUB DUP2 DUP7 GAS STATICCALL ISZERO DUP1 ISZERO PUSH2 0x94B JUMPI RETURNDATASIZE PUSH0 DUP1 RETURNDATACOPY RETURNDATASIZE PUSH0 REVERT JUMPDEST POP POP POP POP PUSH1 0x40 MLOAD RETURNDATASIZE PUSH1 0x1F NOT PUSH1 0x1F DUP3 ADD AND DUP3 ADD DUP1 PUSH1 0x40 MSTORE POP DUP2 ADD SWAP1 PUSH2 0x96F SWAP2 SWAP1 PUSH2 0x3184 JUMP JUMPDEST PUSH2 0x9AE JUMPI PUSH1 0x40 MLOAD PUSH32 0x8C379A000000000000000000000000000000000000000000000000000000000 DUP2 MSTORE PUSH1 0x4 ADD PUSH2 0x9A5 SWAP1 PUSH2 0x33A5 JUMP JUMPDEST PUSH1 0x40 MLOAD DUP1 SWAP2 SUB SWAP1 REVERT JUMPDEST PUSH2 0x9B6 PUSH2 0x191F JUMP JUMPDEST PUSH32 0x0 PUSH20 0xFFFFFFFFFFFFFFFFFFFFFFFFFFFFFFFFFFFFFFFF AND PUSH4 0x1ACF2500 DUP7 DUP7 DUP7 DUP7 CALLER PUSH1 0x40 MLOAD DUP7 PUSH4 0xFFFFFFFF AND PUSH1 0xE0 SHL DUP2 MSTORE PUSH1 0x4 ADD PUSH2 0xA17 SWAP6 SWAP5 SWAP4 SWAP3 SWAP2 SWAP1 PUSH2 0x34A4 JUMP JUMPDEST PUSH0 PUSH1 0x40 MLOAD DUP1 DUP4 SUB DUP2 PUSH0 DUP8 DUP1 EXTCODESIZE ISZERO DUP1 ISZERO PUSH2 0xA2E JUMPI PUSH0 DUP1 REVERT JUMPDEST POP GAS CALL ISZERO DUP1 ISZERO PUSH2 0xA40 JUMPI RETURNDATASIZE PUSH0 DUP1 RETURNDATACOPY RETURNDATASIZE PUSH0 REVERT JUMPDEST POP POP POP POP PUSH32 0xA4A4ED86DCE7C96C7821A45FBBE8394915281A2A2FA758AB0465B199C571ABFB DUP3 CALLER DUP4 TIMESTAMP DUP9 PUSH1 0x40 MLOAD PUSH2 0xA7B SWAP6 SWAP5 SWAP4 SWAP3 SWAP2 SWAP1 PUSH2 0x3511 JUMP JUMPDEST PUSH1 0x40 MLOAD DUP1 SWAP2 SUB SWAP1 LOG1 PUSH2 0xA8B PUSH2 0x1963 JUMP JUMPDEST POP POP POP POP POP JUMP JUMPDEST PUSH32 0x0 PUSH20 0xFFFFFFFFFFFFFFFFFFFFFFFFFFFFFFFFFFFFFFFF AND PUSH4 0x95A8C58D CALLER PUSH1 0x2 PUSH1 0x40 MLOAD DUP4 PUSH4 0xFFFFFFFF AND PUSH1 0xE0 SHL DUP2 MSTORE PUSH1 0x4 ADD PUSH2 0xAEE SWAP3 SWAP2 SWAP1 PUSH2 0x3128 JUMP JUMPDEST PUSH1 0x20 PUSH1 0x40 MLOAD DUP1 DUP4 SUB DUP2 DUP7 GAS STATICCALL ISZERO DUP1 ISZERO PUSH2 0xB09 JUMPI RETURNDATASIZE PUSH0 DUP1 RETURNDATACOPY RETURNDATASIZE PUSH0 REVERT JUMPDEST POP POP POP POP PUSH1 0x40 MLOAD RETURNDATASIZE PUSH1 0x1F NOT PUSH1 0x1F DUP3 ADD AND DUP3 ADD DUP1 PUSH1 0x40 MSTORE POP DUP2 ADD SWAP1 PUSH2 0xB2D SWAP2 SWAP1 PUSH2 0x3184 JUMP JUMPDEST PUSH2 0xB6C JUMPI PUSH1 0x40 MLOAD PUSH32 0x8C379A000000000000000000000000000000000000000000000000000000000 DUP2 MSTORE PUSH1 0x4 ADD PUSH2 0xB63 SWAP1 PUSH2 0x33A5 JUMP JUMPDEST PUSH1 0x40 MLOAD DUP1 SWAP2 SUB SWAP1 REVERT JUMPDEST PUSH2 0xB74 PUSH2 0x191F JUMP JUMPDEST PUSH32 0x0 PUSH20 0xFFFFFFFFFFFFFFFFFFFFFFFFFFFFFFFFFFFFFFFF AND PUSH4 0xB9E49080 DUP5 PUSH0 ADD MLOAD DUP6 PUSH1 0x20 ADD MLOAD DUP7 PUSH1 0x40 ADD MLOAD DUP8 PUSH1 0x60 ADD MLOAD DUP9 PUSH1 0x80 ADD MLOAD DUP9 PUSH1 0x40 MLOAD DUP8 PUSH4 0xFFFFFFFF AND PUSH1 0xE0 SHL DUP2 MSTORE PUSH1 0x4 ADD PUSH2 0xBEA SWAP7 SWAP6 SWAP5 SWAP4 SWAP3 SWAP2 SWAP1 PUSH2 0x33C3 JUMP JUMPDEST PUSH0 PUSH1 0x40 MLOAD DUP1 DUP4 SUB DUP2 PUSH0 DUP8 DUP1 EXTCODESIZE ISZERO DUP1 ISZERO PUSH2 0xC01 JUMPI PUSH0 DUP1 REVERT JUMPDEST POP GAS CALL ISZERO DUP1 ISZERO PUSH2 0xC13 JUMPI RETURNDATASIZE PUSH0 DUP1 RETURNDATACOPY RETURNDATASIZE PUSH0 REVERT JUMPDEST POP POP POP POP PUSH32 0xC8C9CCC57AD2F7823680B448DD87B511B225EB0AC2E99E0AA88E7A26EBC6CBE5 DUP4 PUSH1 0x60 ADD MLOAD CALLER DUP4 DUP7 PUSH0 ADD MLOAD TIMESTAMP PUSH1 0x40 MLOAD PUSH2 0xC55 SWAP6 SWAP5 SWAP4 SWAP3 SWAP2 SWAP1 PUSH2 0x3445 JUMP JUMPDEST PUSH1 0x40 MLOAD DUP1 SWAP2 SUB SWAP1 LOG1 PUSH2 0xC65 PUSH2 0x1963 JUMP JUMPDEST POP POP POP JUMP JUMPDEST PUSH1 0x60 PUSH32 0x0 PUSH20 0xFFFFFFFFFFFFFFFFFFFFFFFFFFFFFFFFFFFFFFFF AND PUSH4 0x81FC60A5 DUP4 PUSH1 0x40 MLOAD DUP3 PUSH4 0xFFFFFFFF AND PUSH1 0xE0 SHL DUP2 MSTORE PUSH1 0x4 ADD PUSH2 0xCC5 SWAP2 SWAP1 PUSH2 0x1D6E JUMP JUMPDEST PUSH0 PUSH1 0x40 MLOAD DUP1 DUP4 SUB DUP2 DUP7 GAS STATICCALL ISZERO DUP1 ISZERO PUSH2 0xCDF JUMPI RETURNDATASIZE PUSH0 DUP1 RETURNDATACOPY RETURNDATASIZE PUSH0 REVERT JUMPDEST POP POP POP POP PUSH1 0x40 MLOAD RETURNDATASIZE PUSH0 DUP3 RETURNDATACOPY RETURNDATASIZE PUSH1 0x1F NOT PUSH1 0x1F DUP3 ADD AND DUP3 ADD DUP1 PUSH1 0x40 MSTORE POP DUP2 ADD SWAP1 PUSH2 0xD07 SWAP2 SWAP1 PUSH2 0x3796 JUMP JUMPDEST SWAP1 POP SWAP2 SWAP1 POP JUMP JUMPDEST PUSH1 0x60 PUSH32 0x0 PUSH20 0xFFFFFFFFFFFFFFFFFFFFFFFFFFFFFFFFFFFFFFFF AND PUSH4 0x5850607C PUSH1 0x40 MLOAD DUP2 PUSH4 0xFFFFFFFF AND PUSH1 0xE0 SHL DUP2 MSTORE PUSH1 0x4 ADD PUSH0 PUSH1 0x40 MLOAD DUP1 DUP4 SUB DUP2 DUP7 GAS STATICCALL ISZERO DUP1 ISZERO PUSH2 0xD78 JUMPI RETURNDATASIZE PUSH0 DUP1 RETURNDATACOPY RETURNDATASIZE PUSH0 REVERT JUMPDEST POP POP POP POP PUSH1 0x40 MLOAD RETURNDATASIZE PUSH0 DUP3 RETURNDATACOPY RETURNDATASIZE PUSH1 0x1F NOT PUSH1 0x1F DUP3 ADD AND DUP3 ADD DUP1 PUSH1 0x40 MSTORE POP DUP2 ADD SWAP1 PUSH2 0xDA0 SWAP2 SWAP1 PUSH2 0x3796 JUMP JUMPDEST SWAP1 POP SWAP1 JUMP JUMPDEST PUSH2 0xDAD PUSH2 0x196C JUMP JUMPDEST PUSH2 0xDB5 PUSH2 0x19CA JUMP JUMPDEST PUSH2 0xDBD PUSH2 0x19F4 JUMP JUMPDEST PUSH2 0xDC5 PUSH2 0x1A15 JUMP JUMPDEST PUSH0 DUP1 PUSH0 PUSH32 0x0 PUSH20 0xFFFFFFFFFFFFFFFFFFFFFFFFFFFFFFFFFFFFFFFF AND PUSH4 0x70C056B0 DUP10 PUSH1 0x40 MLOAD DUP3 PUSH4 0xFFFFFFFF AND PUSH1 0xE0 SHL DUP2 MSTORE PUSH1 0x4 ADD PUSH2 0xE21 SWAP2 SWAP1 PUSH2 0x1D6E JUMP JUMPDEST PUSH0 PUSH1 0x40 MLOAD DUP1 DUP4 SUB DUP2 DUP7 GAS STATICCALL ISZERO DUP1 ISZERO PUSH2 0xE3B JUMPI RETURNDATASIZE PUSH0 DUP1 RETURNDATACOPY RETURNDATASIZE PUSH0 REVERT JUMPDEST POP POP POP POP PUSH1 0x40 MLOAD RETURNDATASIZE PUSH0 DUP3 RETURNDATACOPY RETURNDATASIZE PUSH1 0x1F NOT PUSH1 0x1F DUP3 ADD AND DUP3 ADD DUP1 PUSH1 0x40 MSTORE POP DUP2 ADD SWAP1 PUSH2 0xE63 SWAP2 SWAP1 PUSH2 0x39E0 JUMP JUMPDEST SWAP3 POP SWAP3 POP SWAP3 POP PUSH32 0x0 PUSH20 0xFFFFFFFFFFFFFFFFFFFFFFFFFFFFFFFFFFFFFFFF AND PUSH4 0xBE2E2325 DUP10 PUSH1 0x40 MLOAD DUP3 PUSH4 0xFFFFFFFF AND PUSH1 0xE0 SHL DUP2 MSTORE PUSH1 0x4 ADD PUSH2 0xEC2 SWAP2 SWAP1 PUSH2 0x1D6E JUMP JUMPDEST PUSH0 PUSH1 0x40 MLOAD DUP1 DUP4 SUB DUP2 DUP7 GAS STATICCALL ISZERO DUP1 ISZERO PUSH2 0xEDC JUMPI RETURNDATASIZE PUSH0 DUP1 RETURNDATACOPY RETURNDATASIZE PUSH0 REVERT JUMPDEST POP POP POP POP PUSH1 0x40 MLOAD RETURNDATASIZE PUSH0 DUP3 RETURNDATACOPY RETURNDATASIZE PUSH1 0x1F NOT PUSH1 0x1F DUP3 ADD AND DUP3 ADD DUP1 PUSH1 0x40 MSTORE POP DUP2 ADD SWAP1 PUSH2 0xF04 SWAP2 SWAP1 PUSH2 0x3C76 JUMP JUMPDEST DUP4 DUP4 DUP4 SWAP7 POP SWAP7 POP SWAP7 POP SWAP7 POP POP POP POP SWAP2 SWAP4 POP SWAP2 SWAP4 JUMP JUMPDEST PUSH2 0xF21 PUSH2 0x196C JUMP JUMPDEST PUSH2 0xF29 PUSH2 0x1A2F JUMP JUMPDEST PUSH2 0xF31 PUSH2 0x1A52 JUMP JUMPDEST PUSH2 0xF39 PUSH2 0x1A6C JUMP JUMPDEST PUSH0 DUP1 PUSH0 PUSH32 0x0 PUSH20 0xFFFFFFFFFFFFFFFFFFFFFFFFFFFFFFFFFFFFFFFF AND PUSH4 0x7E8F8DA7 DUP10 PUSH1 0x40 MLOAD DUP3 PUSH4 0xFFFFFFFF AND PUSH1 0xE0 SHL DUP2 MSTORE PUSH1 0x4 ADD PUSH2 0xF95 SWAP2 SWAP1 PUSH2 0x1D6E JUMP JUMPDEST PUSH0 PUSH1 0x40 MLOAD DUP1 DUP4 SUB DUP2 DUP7 GAS STATICCALL ISZERO DUP1 ISZERO PUSH2 0xFAF JUMPI RETURNDATASIZE PUSH0 DUP1 RETURNDATACOPY RETURNDATASIZE PUSH0 REVERT JUMPDEST POP POP POP POP PUSH1 0x40 MLOAD RETURNDATASIZE PUSH0 DUP3 RETURNDATACOPY RETURNDATASIZE PUSH1 0x1F NOT PUSH1 0x1F DUP3 ADD AND DUP3 ADD DUP1 PUSH1 0x40 MSTORE POP DUP2 ADD SWAP1 PUSH2 0xFD7 SWAP2 SWAP1 PUSH2 0x3F82 JUMP JUMPDEST SWAP3 POP SWAP3 POP SWAP3 POP PUSH32 0x0 PUSH20 0xFFFFFFFFFFFFFFFFFFFFFFFFFFFFFFFFFFFFFFFF AND PUSH4 0xBE2E2325 DUP10 PUSH1 0x40 MLOAD DUP3 PUSH4 0xFFFFFFFF AND PUSH1 0xE0 SHL DUP2 MSTORE PUSH1 0x4 ADD PUSH2 0x1036 SWAP2 SWAP1 PUSH2 0x1D6E JUMP JUMPDEST PUSH0 PUSH1 0x40 MLOAD DUP1 DUP4 SUB DUP2 DUP7 GAS STATICCALL ISZERO DUP1 ISZERO PUSH2 0x1050 JUMPI RETURNDATASIZE PUSH0 DUP1 RETURNDATACOPY RETURNDATASIZE PUSH0 REVERT JUMPDEST POP POP POP POP PUSH1 0x40 MLOAD RETURNDATASIZE PUSH0 DUP3 RETURNDATACOPY RETURNDATASIZE PUSH1 0x1F NOT PUSH1 0x1F DUP3 ADD AND DUP3 ADD DUP1 PUSH1 0x40 MSTORE POP DUP2 ADD SWAP1 PUSH2 0x1078 SWAP2 SWAP1 PUSH2 0x3C76 JUMP JUMPDEST DUP4 DUP4 DUP4 SWAP7 POP SWAP7 POP SWAP7 POP SWAP7 POP POP POP POP SWAP2 SWAP4 POP SWAP2 SWAP4 JUMP JUMPDEST PUSH32 0x0 PUSH20 0xFFFFFFFFFFFFFFFFFFFFFFFFFFFFFFFFFFFFFFFF AND PUSH4 0x95A8C58D CALLER PUSH0 PUSH1 0x40 MLOAD DUP4 PUSH4 0xFFFFFFFF AND PUSH1 0xE0 SHL DUP2 MSTORE PUSH1 0x4 ADD PUSH2 0x10E8 SWAP3 SWAP2 SWAP1 PUSH2 0x3128 JUMP JUMPDEST PUSH1 0x20 PUSH1 0x40 MLOAD DUP1 DUP4 SUB DUP2 DUP7 GAS STATICCALL ISZERO DUP1 ISZERO PUSH2 0x1103 JUMPI RETURNDATASIZE PUSH0 DUP1 RETURNDATACOPY RETURNDATASIZE PUSH0 REVERT JUMPDEST POP POP POP POP PUSH1 0x40 MLOAD RETURNDATASIZE PUSH1 0x1F NOT PUSH1 0x1F DUP3 ADD AND DUP3 ADD DUP1 PUSH1 0x40 MSTORE POP DUP2 ADD SWAP1 PUSH2 0x1127 SWAP2 SWAP1 PUSH2 0x3184 JUMP JUMPDEST PUSH2 0x1166 JUMPI PUSH1 0x40 MLOAD PUSH32 0x8C379A000000000000000000000000000000000000000000000000000000000 DUP2 MSTORE PUSH1 0x4 ADD PUSH2 0x115D SWAP1 PUSH2 0x4096 JUMP JUMPDEST PUSH1 0x40 MLOAD DUP1 SWAP2 SUB SWAP1 REVERT JUMPDEST PUSH2 0x116E PUSH2 0x191F JUMP JUMPDEST PUSH32 0x0 PUSH20 0xFFFFFFFFFFFFFFFFFFFFFFFFFFFFFFFFFFFFFFFF AND PUSH4 0x64B409FF DUP7 PUSH0 ADD MLOAD DUP8 PUSH1 0x20 ADD MLOAD DUP9 PUSH1 0x40 ADD MLOAD DUP10 PUSH1 0x60 ADD MLOAD DUP10 DUP10 DUP10 DUP10 PUSH1 0x40 MLOAD DUP10 PUSH4 0xFFFFFFFF AND PUSH1 0xE0 SHL DUP2 MSTORE PUSH1 0x4 ADD PUSH2 0x11E4 SWAP9 SWAP8 SWAP7 SWAP6 SWAP5 SWAP4 SWAP3 SWAP2 SWAP1 PUSH2 0x40B4 JUMP JUMPDEST PUSH0 PUSH1 0x40 MLOAD DUP1 DUP4 SUB DUP2 PUSH0 DUP8 DUP1 EXTCODESIZE ISZERO DUP1 ISZERO PUSH2 0x11FB JUMPI PUSH0 DUP1 REVERT JUMPDEST POP GAS CALL ISZERO DUP1 ISZERO PUSH2 0x120D JUMPI RETURNDATASIZE PUSH0 DUP1 RETURNDATACOPY RETURNDATASIZE PUSH0 REVERT JUMPDEST POP POP POP POP PUSH32 0xF52A0795D3C1A788D33423AA105BE7A0AAA157621A984632251E0C2ED142D040 DUP6 PUSH1 0x40 ADD MLOAD CALLER DUP7 TIMESTAMP PUSH1 0x40 MLOAD PUSH2 0x124A SWAP5 SWAP4 SWAP3 SWAP2 SWAP1 PUSH2 0x32EB JUMP JUMPDEST PUSH1 0x40 MLOAD DUP1 SWAP2 SUB SWAP1 LOG1 PUSH2 0x125A PUSH2 0x1963 JUMP JUMPDEST POP POP POP POP POP JUMP JUMPDEST PUSH32 0x0 PUSH20 0xFFFFFFFFFFFFFFFFFFFFFFFFFFFFFFFFFFFFFFFF AND PUSH4 0x95A8C58D CALLER PUSH1 0x2 PUSH1 0x40 MLOAD DUP4 PUSH4 0xFFFFFFFF AND PUSH1 0xE0 SHL DUP2 MSTORE PUSH1 0x4 ADD PUSH2 0x12BD SWAP3 SWAP2 SWAP1 PUSH2 0x3128 JUMP JUMPDEST PUSH1 0x20 PUSH1 0x40 MLOAD DUP1 DUP4 SUB DUP2 DUP7 GAS STATICCALL ISZERO DUP1 ISZERO PUSH2 0x12D8 JUMPI RETURNDATASIZE PUSH0 DUP1 RETURNDATACOPY RETURNDATASIZE PUSH0 REVERT JUMPDEST POP POP POP POP PUSH1 0x40 MLOAD RETURNDATASIZE PUSH1 0x1F NOT PUSH1 0x1F DUP3 ADD AND DUP3 ADD DUP1 PUSH1 0x40 MSTORE POP DUP2 ADD SWAP1 PUSH2 0x12FC SWAP2 SWAP1 PUSH2 0x3184 JUMP JUMPDEST PUSH2 0x133B JUMPI PUSH1 0x40 MLOAD PUSH32 0x8C379A000000000000000000000000000000000000000000000000000000000 DUP2 MSTORE PUSH1 0x4 ADD PUSH2 0x1332 SWAP1 PUSH2 0x33A5 JUMP JUMPDEST PUSH1 0x40 MLOAD DUP1 SWAP2 SUB SWAP1 REVERT JUMPDEST PUSH2 0x1343 PUSH2 0x191F JUMP JUMPDEST PUSH32 0x0 PUSH20 0xFFFFFFFFFFFFFFFFFFFFFFFFFFFFFFFFFFFFFFFF AND PUSH4 0xE462DDE5 DUP7 DUP7 DUP7 DUP7 CALLER PUSH1 0x40 MLOAD DUP7 PUSH4 0xFFFFFFFF AND PUSH1 0xE0 SHL DUP2 MSTORE PUSH1 0x4 ADD PUSH2 0x13A4 SWAP6 SWAP5 SWAP4 SWAP3 SWAP2 SWAP1 PUSH2 0x34A4 JUMP JUMPDEST PUSH0 PUSH1 0x40 MLOAD DUP1 DUP4 SUB DUP2 PUSH0 DUP8 DUP1 EXTCODESIZE ISZERO DUP1 ISZERO PUSH2 0x13BB JUMPI PUSH0 DUP1 REVERT JUMPDEST POP GAS CALL ISZERO DUP1 ISZERO PUSH2 0x13CD JUMPI RETURNDATASIZE PUSH0 DUP1 RETURNDATACOPY RETURNDATASIZE PUSH0 REVERT JUMPDEST POP POP POP POP PUSH32 0xA4A4ED86DCE7C96C7821A45FBBE8394915281A2A2FA758AB0465B199C571ABFB DUP3 CALLER DUP4 TIMESTAMP DUP9 PUSH1 0x40 MLOAD PUSH2 0x1408 SWAP6 SWAP5 SWAP4 SWAP3 SWAP2 SWAP1 PUSH2 0x3511 JUMP JUMPDEST PUSH1 0x40 MLOAD DUP1 SWAP2 SUB SWAP1 LOG1 PUSH2 0x1418 PUSH2 0x1963 JUMP JUMPDEST POP POP POP POP POP JUMP JUMPDEST PUSH32 0x0 DUP2 JUMP JUMPDEST PUSH32 0x0 PUSH20 0xFFFFFFFFFFFFFFFFFFFFFFFFFFFFFFFFFFFFFFFF AND PUSH4 0x95A8C58D CALLER PUSH1 0x1 PUSH1 0x40 MLOAD DUP4 PUSH4 0xFFFFFFFF AND PUSH1 0xE0 SHL DUP2 MSTORE PUSH1 0x4 ADD PUSH2 0x149F SWAP3 SWAP2 SWAP1 PUSH2 0x3128 JUMP JUMPDEST PUSH1 0x20 PUSH1 0x40 MLOAD DUP1 DUP4 SUB DUP2 DUP7 GAS STATICCALL ISZERO DUP1 ISZERO PUSH2 0x14BA JUMPI RETURNDATASIZE PUSH0 DUP1 RETURNDATACOPY RETURNDATASIZE PUSH0 REVERT JUMPDEST POP POP POP POP PUSH1 0x40 MLOAD RETURNDATASIZE PUSH1 0x1F NOT PUSH1 0x1F DUP3 ADD AND DUP3 ADD DUP1 PUSH1 0x40 MSTORE POP DUP2 ADD SWAP1 PUSH2 0x14DE SWAP2 SWAP1 PUSH2 0x3184 JUMP JUMPDEST PUSH2 0x151D JUMPI PUSH1 0x40 MLOAD PUSH32 0x8C379A000000000000000000000000000000000000000000000000000000000 DUP2 MSTORE PUSH1 0x4 ADD PUSH2 0x1514 SWAP1 PUSH2 0x321F JUMP JUMPDEST PUSH1 0x40 MLOAD DUP1 SWAP2 SUB SWAP1 REVERT JUMPDEST PUSH2 0x1525 PUSH2 0x191F JUMP JUMPDEST PUSH32 0x0 PUSH20 0xFFFFFFFFFFFFFFFFFFFFFFFFFFFFFFFFFFFFFFFF AND PUSH4 0xA7226527 DUP5 PUSH0 ADD MLOAD DUP5 DUP5 PUSH1 0x40 MLOAD DUP5 PUSH4 0xFFFFFFFF AND PUSH1 0xE0 SHL DUP2 MSTORE PUSH1 0x4 ADD PUSH2 0x1585 SWAP4 SWAP3 SWAP2 SWAP1 PUSH2 0x415A JUMP JUMPDEST PUSH0 PUSH1 0x40 MLOAD DUP1 DUP4 SUB DUP2 PUSH0 DUP8 DUP1 EXTCODESIZE ISZERO DUP1 ISZERO PUSH2 0x159C JUMPI PUSH0 DUP1 REVERT JUMPDEST POP GAS CALL ISZERO DUP1 ISZERO PUSH2 0x15AE JUMPI RETURNDATASIZE PUSH0 DUP1 RETURNDATACOPY RETURNDATASIZE PUSH0 REVERT JUMPDEST POP POP POP POP PUSH32 0xC77DD947EA8BFD0BD2706C8FAD9B1178313FAD6BD4CB678B9342239BE4F88528 DUP4 PUSH1 0x40 ADD MLOAD DUP5 PUSH1 0x60 ADD MLOAD TIMESTAMP PUSH1 0x40 MLOAD PUSH2 0x15ED SWAP4 SWAP3 SWAP2 SWAP1 PUSH2 0x41A4 JUMP JUMPDEST PUSH1 0x40 MLOAD DUP1 SWAP2 SUB SWAP1 LOG1 PUSH2 0x15FD PUSH2 0x1963 JUMP JUMPDEST POP POP POP JUMP JUMPDEST PUSH32 0x0 PUSH20 0xFFFFFFFFFFFFFFFFFFFFFFFFFFFFFFFFFFFFFFFF AND PUSH4 0x95A8C58D CALLER PUSH0 PUSH1 0x40 MLOAD DUP4 PUSH4 0xFFFFFFFF AND PUSH1 0xE0 SHL DUP2 MSTORE PUSH1 0x4 ADD PUSH2 0x165D SWAP3 SWAP2 SWAP1 PUSH2 0x3128 JUMP JUMPDEST PUSH1 0x20 PUSH1 0x40 MLOAD DUP1 DUP4 SUB DUP2 DUP7 GAS STATICCALL ISZERO DUP1 ISZERO PUSH2 0x1678 JUMPI RETURNDATASIZE PUSH0 DUP1 RETURNDATACOPY RETURNDATASIZE PUSH0 REVERT JUMPDEST POP POP POP POP PUSH1 0x40 MLOAD RETURNDATASIZE PUSH1 0x1F NOT PUSH1 0x1F DUP3 ADD AND DUP3 ADD DUP1 PUSH1 0x40 MSTORE POP DUP2 ADD SWAP1 PUSH2 0x169C SWAP2 SWAP1 PUSH2 0x3184 JUMP JUMPDEST PUSH2 0x16DB JUMPI PUSH1 0x40 MLOAD PUSH32 0x8C379A000000000000000000000000000000000000000000000000000000000 DUP2 MSTORE PUSH1 0x4 ADD PUSH2 0x16D2 SWAP1 PUSH2 0x4096 JUMP JUMPDEST PUSH1 0x40 MLOAD DUP1 SWAP2 SUB SWAP1 REVERT JUMPDEST PUSH2 0x16E3 PUSH2 0x191F JUMP JUMPDEST PUSH32 0x0 PUSH20 0xFFFFFFFFFFFFFFFFFFFFFFFFFFFFFFFFFFFFFFFF AND PUSH4 0xE8002B27 DUP5 PUSH0 ADD MLOAD DUP5 DUP5 PUSH1 0x40 MLOAD DUP5 PUSH4 0xFFFFFFFF AND PUSH1 0xE0 SHL DUP2 MSTORE PUSH1 0x4 ADD PUSH2 0x1743 SWAP4 SWAP3 SWAP2 SWAP1 PUSH2 0x41E0 JUMP JUMPDEST PUSH0 PUSH1 0x40 MLOAD DUP1 DUP4 SUB DUP2 PUSH0 DUP8 DUP1 EXTCODESIZE ISZERO DUP1 ISZERO PUSH2 0x175A JUMPI PUSH0 DUP1 REVERT JUMPDEST POP GAS CALL ISZERO DUP1 ISZERO PUSH2 0x176C JUMPI RETURNDATASIZE PUSH0 DUP1 RETURNDATACOPY RETURNDATASIZE PUSH0 REVERT JUMPDEST POP POP POP POP PUSH32 0xC77DD947EA8BFD0BD2706C8FAD9B1178313FAD6BD4CB678B9342239BE4F88528 DUP4 PUSH1 0x40 ADD MLOAD DUP5 PUSH1 0x60 ADD MLOAD TIMESTAMP PUSH1 0x40 MLOAD PUSH2 0x17AB SWAP4 SWAP3 SWAP2 SWAP1 PUSH2 0x41A4 JUMP JUMPDEST PUSH1 0x40 MLOAD DUP1 SWAP2 SUB SWAP1 LOG1 PUSH2 0x17BB PUSH2 0x1963 JUMP JUMPDEST POP POP POP JUMP JUMPDEST PUSH1 0x60 PUSH32 0x0 PUSH20 0xFFFFFFFFFFFFFFFFFFFFFFFFFFFFFFFFFFFFFFFF AND PUSH4 0x6F12C230 DUP4 PUSH1 0x40 MLOAD DUP3 PUSH4 0xFFFFFFFF AND PUSH1 0xE0 SHL DUP2 MSTORE PUSH1 0x4 ADD PUSH2 0x181B SWAP2 SWAP1 PUSH2 0x1D6E JUMP JUMPDEST PUSH0 PUSH1 0x40 MLOAD DUP1 DUP4 SUB DUP2 DUP7 GAS STATICCALL ISZERO DUP1 ISZERO PUSH2 0x1835 JUMPI RETURNDATASIZE PUSH0 DUP1 RETURNDATACOPY RETURNDATASIZE PUSH0 REVERT JUMPDEST POP POP POP POP PUSH1 0x40 MLOAD RETURNDATASIZE PUSH0 DUP3 RETURNDATACOPY RETURNDATASIZE PUSH1 0x1F NOT PUSH1 0x1F DUP3 ADD AND DUP3 ADD DUP1 PUSH1 0x40 MSTORE POP DUP2 ADD SWAP1 PUSH2 0x185D SWAP2 SWAP1 PUSH2 0x4415 JUMP JUMPDEST SWAP1 POP SWAP2 SWAP1 POP JUMP JUMPDEST PUSH32 0x0 DUP2 JUMP JUMPDEST PUSH1 0x60 PUSH32 0x0 PUSH20 0xFFFFFFFFFFFFFFFFFFFFFFFFFFFFFFFFFFFFFFFF AND PUSH4 0xF14261D2 PUSH1 0x40 MLOAD DUP2 PUSH4 0xFFFFFFFF AND PUSH1 0xE0 SHL DUP2 MSTORE PUSH1 0x4 ADD PUSH0 PUSH1 0x40 MLOAD DUP1 DUP4 SUB DUP2 DUP7 GAS STATICCALL ISZERO DUP1 ISZERO PUSH2 0x18F2 JUMPI RETURNDATASIZE PUSH0 DUP1 RETURNDATACOPY RETURNDATASIZE PUSH0 REVERT JUMPDEST POP POP POP POP PUSH1 0x40 MLOAD RETURNDATASIZE PUSH0 DUP3 RETURNDATACOPY RETURNDATASIZE PUSH1 0x1F NOT PUSH1 0x1F DUP3 ADD AND DUP3 ADD DUP1 PUSH1 0x40 MSTORE POP DUP2 ADD SWAP1 PUSH2 0x191A SWAP2 SWAP1 PUSH2 0x4415 JUMP JUMPDEST SWAP1 POP SWAP1 JUMP JUMPDEST PUSH1 0x2 PUSH0 SLOAD SUB PUSH2 0x195A JUMPI PUSH1 0x40 MLOAD PUSH32 0x3EE5AEB500000000000000000000000000000000000000000000000000000000 DUP2 MSTORE PUSH1 0x4 ADD PUSH1 0x40 MLOAD DUP1 SWAP2 SUB SWAP1 REVERT JUMPDEST PUSH1 0x2 PUSH0 DUP2 SWAP1 SSTORE POP JUMP JUMPDEST PUSH1 0x1 PUSH0 DUP2 SWAP1 SSTORE POP JUMP JUMPDEST PUSH1 0x40 MLOAD DUP1 PUSH2 0x100 ADD PUSH1 0x40 MSTORE DUP1 PUSH0 PUSH1 0x3 DUP2 GT ISZERO PUSH2 0x198B JUMPI PUSH2 0x198A PUSH2 0x249C JUMP JUMPDEST JUMPDEST DUP2 MSTORE PUSH1 0x20 ADD PUSH0 DUP2 MSTORE PUSH1 0x20 ADD PUSH0 DUP2 MSTORE PUSH1 0x20 ADD PUSH0 DUP2 MSTORE PUSH1 0x20 ADD PUSH0 DUP2 MSTORE PUSH1 0x20 ADD PUSH2 0x19B0 PUSH2 0x1AB1 JUMP JUMPDEST DUP2 MSTORE PUSH1 0x20 ADD PUSH2 0x19BD PUSH2 0x1AB1 JUMP JUMPDEST DUP2 MSTORE PUSH1 0x20 ADD PUSH1 0x60 DUP2 MSTORE POP SWAP1 JUMP JUMPDEST PUSH1 0x40 MLOAD DUP1 PUSH1 0x80 ADD PUSH1 0x40 MSTORE DUP1 PUSH1 0x60 DUP2 MSTORE PUSH1 0x20 ADD PUSH1 0x60 DUP2 MSTORE PUSH1 0x20 ADD PUSH0 PUSH1 0xFF AND DUP2 MSTORE PUSH1 0x20 ADD PUSH1 0x60 DUP2 MSTORE POP SWAP1 JUMP JUMPDEST PUSH1 0x40 MLOAD DUP1 PUSH1 0x60 ADD PUSH1 0x40 MSTORE DUP1 PUSH1 0x60 DUP2 MSTORE PUSH1 0x20 ADD PUSH1 0x60 DUP2 MSTORE PUSH1 0x20 ADD PUSH1 0x60 DUP2 MSTORE POP SWAP1 JUMP JUMPDEST PUSH1 0x40 MLOAD DUP1 PUSH1 0x40 ADD PUSH1 0x40 MSTORE DUP1 PUSH1 0x60 DUP2 MSTORE PUSH1 0x20 ADD PUSH1 0x60 DUP2 MSTORE POP SWAP1 JUMP JUMPDEST PUSH1 0x40 MLOAD DUP1 PUSH1 0x60 ADD PUSH1 0x40 MSTORE DUP1 PUSH1 0x60 DUP2 MSTORE PUSH1 0x20 ADD PUSH1 0x60 DUP2 MSTORE PUSH1 0x20 ADD PUSH0 PUSH1 0xFF AND DUP2 MSTORE POP SWAP1 JUMP JUMPDEST PUSH1 0x40 MLOAD DUP1 PUSH1 0x40 ADD PUSH1 0x40 MSTORE DUP1 PUSH1 0x60 DUP2 MSTORE PUSH1 0x20 ADD PUSH1 0x60 DUP2 MSTORE POP SWAP1 JUMP JUMPDEST PUSH1 0x40 MLOAD DUP1 PUSH2 0x100 ADD PUSH1 0x40 MSTORE DUP1 PUSH1 0x60 DUP2 MSTORE PUSH1 0x20 ADD PUSH1 0x60 DUP2 MSTORE PUSH1 0x20 ADD PUSH1 0x60 DUP2 MSTORE PUSH1 0x20 ADD PUSH1 0x60 DUP2 MSTORE PUSH1 0x20 ADD PUSH1 0x60 DUP2 MSTORE PUSH1 0x20 ADD PUSH1 0x60 DUP2 MSTORE PUSH1 0x20 ADD PUSH1 0x60 DUP2 MSTORE PUSH1 0x20 ADD PUSH1 0x60 DUP2 MSTORE POP SWAP1 JUMP JUMPDEST PUSH1 0x40 MLOAD DUP1 PUSH1 0x60 ADD PUSH1 0x40 MSTORE DUP1 PUSH1 0x60 DUP2 MSTORE PUSH1 0x20 ADD PUSH1 0x60 DUP2 MSTORE PUSH1 0x20 ADD PUSH0 PUSH20 0xFFFFFFFFFFFFFFFFFFFFFFFFFFFFFFFFFFFFFFFF AND DUP2 MSTORE POP SWAP1 JUMP JUMPDEST PUSH0 PUSH20 0xFFFFFFFFFFFFFFFFFFFFFFFFFFFFFFFFFFFFFFFF DUP3 AND SWAP1 POP SWAP2 SWAP1 POP JUMP JUMPDEST PUSH0 DUP2 SWAP1 POP SWAP2 SWAP1 POP JUMP JUMPDEST PUSH0 PUSH2 0x1B29 PUSH2 0x1B24 PUSH2 0x1B1F DUP5 PUSH2 0x1AE7 JUMP JUMPDEST PUSH2 0x1B06 JUMP JUMPDEST PUSH2 0x1AE7 JUMP JUMPDEST SWAP1 POP SWAP2 SWAP1 POP JUMP JUMPDEST PUSH0 PUSH2 0x1B3A DUP3 PUSH2 0x1B0F JUMP JUMPDEST SWAP1 POP SWAP2 SWAP1 POP JUMP JUMPDEST PUSH0 PUSH2 0x1B4B DUP3 PUSH2 0x1B30 JUMP JUMPDEST SWAP1 POP SWAP2 SWAP1 POP JUMP JUMPDEST PUSH2 0x1B5B DUP2 PUSH2 0x1B41 JUMP JUMPDEST DUP3 MSTORE POP POP JUMP JUMPDEST PUSH0 PUSH1 0x20 DUP3 ADD SWAP1 POP PUSH2 0x1B74 PUSH0 DUP4 ADD DUP5 PUSH2 0x1B52 JUMP JUMPDEST SWAP3 SWAP2 POP POP JUMP JUMPDEST PUSH0 PUSH1 0x40 MLOAD SWAP1 POP SWAP1 JUMP JUMPDEST PUSH0 DUP1 REVERT JUMPDEST PUSH0 DUP1 REVERT JUMPDEST PUSH0 DUP1 REVERT JUMPDEST PUSH0 DUP1 REVERT JUMPDEST PUSH0 PUSH1 0x1F NOT PUSH1 0x1F DUP4 ADD AND SWAP1 POP SWAP2 SWAP1 POP JUMP JUMPDEST PUSH32 0x4E487B7100000000000000000000000000000000000000000000000000000000 PUSH0 MSTORE PUSH1 0x41 PUSH1 0x4 MSTORE PUSH1 0x24 PUSH0 REVERT JUMPDEST PUSH2 0x1BD9 DUP3 PUSH2 0x1B93 JUMP JUMPDEST DUP2 ADD DUP2 DUP2 LT PUSH8 0xFFFFFFFFFFFFFFFF DUP3 GT OR ISZERO PUSH2 0x1BF8 JUMPI PUSH2 0x1BF7 PUSH2 0x1BA3 JUMP JUMPDEST JUMPDEST DUP1 PUSH1 0x40 MSTORE POP POP POP JUMP JUMPDEST PUSH0 PUSH2 0x1C0A PUSH2 0x1B7A JUMP JUMPDEST SWAP1 POP PUSH2 0x1C16 DUP3 DUP3 PUSH2 0x1BD0 JUMP JUMPDEST SWAP2 SWAP1 POP JUMP JUMPDEST PUSH0 PUSH8 0xFFFFFFFFFFFFFFFF DUP3 GT ISZERO PUSH2 0x1C35 JUMPI PUSH2 0x1C34 PUSH2 0x1BA3 JUMP JUMPDEST JUMPDEST PUSH2 0x1C3E DUP3 PUSH2 0x1B93 JUMP JUMPDEST SWAP1 POP PUSH1 0x20 DUP2 ADD SWAP1 POP SWAP2 SWAP1 POP JUMP JUMPDEST DUP3 DUP2 DUP4 CALLDATACOPY PUSH0 DUP4 DUP4 ADD MSTORE POP POP POP JUMP JUMPDEST PUSH0 PUSH2 0x1C6B PUSH2 0x1C66 DUP5 PUSH2 0x1C1B JUMP JUMPDEST PUSH2 0x1C01 JUMP JUMPDEST SWAP1 POP DUP3 DUP2 MSTORE PUSH1 0x20 DUP2 ADD DUP5 DUP5 DUP5 ADD GT ISZERO PUSH2 0x1C87 JUMPI PUSH2 0x1C86 PUSH2 0x1B8F JUMP JUMPDEST JUMPDEST PUSH2 0x1C92 DUP5 DUP3 DUP6 PUSH2 0x1C4B JUMP JUMPDEST POP SWAP4 SWAP3 POP POP POP JUMP JUMPDEST PUSH0 DUP3 PUSH1 0x1F DUP4 ADD SLT PUSH2 0x1CAE JUMPI PUSH2 0x1CAD PUSH2 0x1B8B JUMP JUMPDEST JUMPDEST DUP2 CALLDATALOAD PUSH2 0x1CBE DUP5 DUP3 PUSH1 0x20 DUP7 ADD PUSH2 0x1C59 JUMP JUMPDEST SWAP2 POP POP SWAP3 SWAP2 POP POP JUMP JUMPDEST PUSH0 PUSH1 0x20 DUP3 DUP5 SUB SLT ISZERO PUSH2 0x1CDC JUMPI PUSH2 0x1CDB PUSH2 0x1B83 JUMP JUMPDEST JUMPDEST PUSH0 DUP3 ADD CALLDATALOAD PUSH8 0xFFFFFFFFFFFFFFFF DUP2 GT ISZERO PUSH2 0x1CF9 JUMPI PUSH2 0x1CF8 PUSH2 0x1B87 JUMP JUMPDEST JUMPDEST PUSH2 0x1D05 DUP5 DUP3 DUP6 ADD PUSH2 0x1C9A JUMP JUMPDEST SWAP2 POP POP SWAP3 SWAP2 POP POP JUMP JUMPDEST PUSH0 DUP2 MLOAD SWAP1 POP SWAP2 SWAP1 POP JUMP JUMPDEST PUSH0 DUP3 DUP3 MSTORE PUSH1 0x20 DUP3 ADD SWAP1 POP SWAP3 SWAP2 POP POP JUMP JUMPDEST DUP3 DUP2 DUP4 MCOPY PUSH0 DUP4 DUP4 ADD MSTORE POP POP POP JUMP JUMPDEST PUSH0 PUSH2 0x1D40 DUP3 PUSH2 0x1D0E JUMP JUMPDEST PUSH2 0x1D4A DUP2 DUP6 PUSH2 0x1D18 JUMP JUMPDEST SWAP4 POP PUSH2 0x1D5A DUP2 DUP6 PUSH1 0x20 DUP7 ADD PUSH2 0x1D28 JUMP JUMPDEST PUSH2 0x1D63 DUP2 PUSH2 0x1B93 JUMP JUMPDEST DUP5 ADD SWAP2 POP POP SWAP3 SWAP2 POP POP JUMP JUMPDEST PUSH0 PUSH1 0x20 DUP3 ADD SWAP1 POP DUP2 DUP2 SUB PUSH0 DUP4 ADD MSTORE PUSH2 0x1D86 DUP2 DUP5 PUSH2 0x1D36 JUMP JUMPDEST SWAP1 POP SWAP3 SWAP2 POP POP JUMP JUMPDEST PUSH0 DUP1 REVERT JUMPDEST PUSH0 DUP1 REVERT JUMPDEST PUSH0 PUSH2 0x1DA0 DUP3 PUSH2 0x1AE7 JUMP JUMPDEST SWAP1 POP SWAP2 SWAP1 POP JUMP JUMPDEST PUSH2 0x1DB0 DUP2 PUSH2 0x1D96 JUMP JUMPDEST DUP2 EQ PUSH2 0x1DBA JUMPI PUSH0 DUP1 REVERT JUMPDEST POP JUMP JUMPDEST PUSH0 DUP2 CALLDATALOAD SWAP1 POP PUSH2 0x1DCB DUP2 PUSH2 0x1DA7 JUMP JUMPDEST SWAP3 SWAP2 POP POP JUMP JUMPDEST PUSH0 PUSH1 0x80 DUP3 DUP5 SUB SLT ISZERO PUSH2 0x1DE6 JUMPI PUSH2 0x1DE5 PUSH2 0x1D8E JUMP JUMPDEST JUMPDEST PUSH2 0x1DF0 PUSH1 0x80 PUSH2 0x1C01 JUMP JUMPDEST SWAP1 POP PUSH0 DUP3 ADD CALLDATALOAD PUSH8 0xFFFFFFFFFFFFFFFF DUP2 GT ISZERO PUSH2 0x1E0F JUMPI PUSH2 0x1E0E PUSH2 0x1D92 JUMP JUMPDEST JUMPDEST PUSH2 0x1E1B DUP5 DUP3 DUP6 ADD PUSH2 0x1C9A JUMP JUMPDEST PUSH0 DUP4 ADD MSTORE POP PUSH1 0x20 DUP3 ADD CALLDATALOAD PUSH8 0xFFFFFFFFFFFFFFFF DUP2 GT ISZERO PUSH2 0x1E3E JUMPI PUSH2 0x1E3D PUSH2 0x1D92 JUMP JUMPDEST JUMPDEST PUSH2 0x1E4A DUP5 DUP3 DUP6 ADD PUSH2 0x1C9A JUMP JUMPDEST PUSH1 0x20 DUP4 ADD MSTORE POP PUSH1 0x40 DUP3 ADD CALLDATALOAD PUSH8 0xFFFFFFFFFFFFFFFF DUP2 GT ISZERO PUSH2 0x1E6E JUMPI PUSH2 0x1E6D PUSH2 0x1D92 JUMP JUMPDEST JUMPDEST PUSH2 0x1E7A DUP5 DUP3 DUP6 ADD PUSH2 0x1C9A JUMP JUMPDEST PUSH1 0x40 DUP4 ADD MSTORE POP PUSH1 0x60 PUSH2 0x1E8E DUP5 DUP3 DUP6 ADD PUSH2 0x1DBD JUMP JUMPDEST PUSH1 0x60 DUP4 ADD MSTORE POP SWAP3 SWAP2 POP POP JUMP JUMPDEST PUSH0 PUSH1 0xFF DUP3 AND SWAP1 POP SWAP2 SWAP1 POP JUMP JUMPDEST PUSH2 0x1EAF DUP2 PUSH2 0x1E9A JUMP JUMPDEST DUP2 EQ PUSH2 0x1EB9 JUMPI PUSH0 DUP1 REVERT JUMPDEST POP JUMP JUMPDEST PUSH0 DUP2 CALLDATALOAD SWAP1 POP PUSH2 0x1ECA DUP2 PUSH2 0x1EA6 JUMP JUMPDEST SWAP3 SWAP2 POP POP JUMP JUMPDEST PUSH0 PUSH1 0x40 DUP3 DUP5 SUB SLT ISZERO PUSH2 0x1EE5 JUMPI PUSH2 0x1EE4 PUSH2 0x1D8E JUMP JUMPDEST JUMPDEST PUSH2 0x1EEF PUSH1 0x40 PUSH2 0x1C01 JUMP JUMPDEST SWAP1 POP PUSH0 DUP3 ADD CALLDATALOAD PUSH8 0xFFFFFFFFFFFFFFFF DUP2 GT ISZERO PUSH2 0x1F0E JUMPI PUSH2 0x1F0D PUSH2 0x1D92 JUMP JUMPDEST JUMPDEST PUSH2 0x1F1A DUP5 DUP3 DUP6 ADD PUSH2 0x1C9A JUMP JUMPDEST PUSH0 DUP4 ADD MSTORE POP PUSH1 0x20 DUP3 ADD CALLDATALOAD PUSH8 0xFFFFFFFFFFFFFFFF DUP2 GT ISZERO PUSH2 0x1F3D JUMPI PUSH2 0x1F3C PUSH2 0x1D92 JUMP JUMPDEST JUMPDEST PUSH2 0x1F49 DUP5 DUP3 DUP6 ADD PUSH2 0x1C9A JUMP JUMPDEST PUSH1 0x20 DUP4 ADD MSTORE POP SWAP3 SWAP2 POP POP JUMP JUMPDEST PUSH0 PUSH2 0x100 DUP3 DUP5 SUB SLT ISZERO PUSH2 0x1F6B JUMPI PUSH2 0x1F6A PUSH2 0x1D8E JUMP JUMPDEST JUMPDEST PUSH2 0x1F76 PUSH2 0x100 PUSH2 0x1C01 JUMP JUMPDEST SWAP1 POP PUSH0 DUP3 ADD CALLDATALOAD PUSH8 0xFFFFFFFFFFFFFFFF DUP2 GT ISZERO PUSH2 0x1F95 JUMPI PUSH2 0x1F94 PUSH2 0x1D92 JUMP JUMPDEST JUMPDEST PUSH2 0x1FA1 DUP5 DUP3 DUP6 ADD PUSH2 0x1C9A JUMP JUMPDEST PUSH0 DUP4 ADD MSTORE POP PUSH1 0x20 DUP3 ADD CALLDATALOAD PUSH8 0xFFFFFFFFFFFFFFFF DUP2 GT ISZERO PUSH2 0x1FC4 JUMPI PUSH2 0x1FC3 PUSH2 0x1D92 JUMP JUMPDEST JUMPDEST PUSH2 0x1FD0 DUP5 DUP3 DUP6 ADD PUSH2 0x1C9A JUMP JUMPDEST PUSH1 0x20 DUP4 ADD MSTORE POP PUSH1 0x40 DUP3 ADD CALLDATALOAD PUSH8 0xFFFFFFFFFFFFFFFF DUP2 GT ISZERO PUSH2 0x1FF4 JUMPI PUSH2 0x1FF3 PUSH2 0x1D92 JUMP JUMPDEST JUMPDEST PUSH2 0x2000 DUP5 DUP3 DUP6 ADD PUSH2 0x1C9A JUMP JUMPDEST PUSH1 0x40 DUP4 ADD MSTORE POP PUSH1 0x60 DUP3 ADD CALLDATALOAD PUSH8 0xFFFFFFFFFFFFFFFF DUP2 GT ISZERO PUSH2 0x2024 JUMPI PUSH2 0x2023 PUSH2 0x1D92 JUMP JUMPDEST JUMPDEST PUSH2 0x2030 DUP5 DUP3 DUP6 ADD PUSH2 0x1C9A JUMP JUMPDEST PUSH1 0x60 DUP4 ADD MSTORE POP PUSH1 0x80 DUP3 ADD CALLDATALOAD PUSH8 0xFFFFFFFFFFFFFFFF DUP2 GT ISZERO PUSH2 0x2054 JUMPI PUSH2 0x2053 PUSH2 0x1D92 JUMP JUMPDEST JUMPDEST PUSH2 0x2060 DUP5 DUP3 DUP6 ADD PUSH2 0x1C9A JUMP JUMPDEST PUSH1 0x80 DUP4 ADD MSTORE POP PUSH1 0xA0 DUP3 ADD CALLDATALOAD PUSH8 0xFFFFFFFFFFFFFFFF DUP2 GT ISZERO PUSH2 0x2084 JUMPI PUSH2 0x2083 PUSH2 0x1D92 JUMP JUMPDEST JUMPDEST PUSH2 0x2090 DUP5 DUP3 DUP6 ADD PUSH2 0x1C9A JUMP JUMPDEST PUSH1 0xA0 DUP4 ADD MSTORE POP PUSH1 0xC0 DUP3 ADD CALLDATALOAD PUSH8 0xFFFFFFFFFFFFFFFF DUP2 GT ISZERO PUSH2 0x20B4 JUMPI PUSH2 0x20B3 PUSH2 0x1D92 JUMP JUMPDEST JUMPDEST PUSH2 0x20C0 DUP5 DUP3 DUP6 ADD PUSH2 0x1C9A JUMP JUMPDEST PUSH1 0xC0 DUP4 ADD MSTORE POP PUSH1 0xE0 DUP3 ADD CALLDATALOAD PUSH8 0xFFFFFFFFFFFFFFFF DUP2 GT ISZERO PUSH2 0x20E4 JUMPI PUSH2 0x20E3 PUSH2 0x1D92 JUMP JUMPDEST JUMPDEST PUSH2 0x20F0 DUP5 DUP3 DUP6 ADD PUSH2 0x1C9A JUMP JUMPDEST PUSH1 0xE0 DUP4 ADD MSTORE POP SWAP3 SWAP2 POP POP JUMP JUMPDEST PUSH0 DUP1 PUSH0 DUP1 PUSH1 0x80 DUP6 DUP8 SUB SLT ISZERO PUSH2 0x2114 JUMPI PUSH2 0x2113 PUSH2 0x1B83 JUMP JUMPDEST JUMPDEST PUSH0 DUP6 ADD CALLDATALOAD PUSH8 0xFFFFFFFFFFFFFFFF DUP2 GT ISZERO PUSH2 0x2131 JUMPI PUSH2 0x2130 PUSH2 0x1B87 JUMP JUMPDEST JUMPDEST PUSH2 0x213D DUP8 DUP3 DUP9 ADD PUSH2 0x1DD1 JUMP JUMPDEST SWAP5 POP POP PUSH1 0x20 PUSH2 0x214E DUP8 DUP3 DUP9 ADD PUSH2 0x1EBC JUMP JUMPDEST SWAP4 POP POP PUSH1 0x40 DUP6 ADD CALLDATALOAD PUSH8 0xFFFFFFFFFFFFFFFF DUP2 GT ISZERO PUSH2 0x216F JUMPI PUSH2 0x216E PUSH2 0x1B87 JUMP JUMPDEST JUMPDEST PUSH2 0x217B DUP8 DUP3 DUP9 ADD PUSH2 0x1ED0 JUMP JUMPDEST SWAP3 POP POP PUSH1 0x60 DUP6 ADD CALLDATALOAD PUSH8 0xFFFFFFFFFFFFFFFF DUP2 GT ISZERO PUSH2 0x219C JUMPI PUSH2 0x219B PUSH2 0x1B87 JUMP JUMPDEST JUMPDEST PUSH2 0x21A8 DUP8 DUP3 DUP9 ADD PUSH2 0x1F55 JUMP JUMPDEST SWAP2 POP POP SWAP3 SWAP6 SWAP2 SWAP5 POP SWAP3 POP JUMP JUMPDEST PUSH0 PUSH1 0xA0 DUP3 DUP5 SUB SLT ISZERO PUSH2 0x21C9 JUMPI PUSH2 0x21C8 PUSH2 0x1D8E JUMP JUMPDEST JUMPDEST PUSH2 0x21D3 PUSH1 0xA0 PUSH2 0x1C01 JUMP JUMPDEST SWAP1 POP PUSH0 DUP3 ADD CALLDATALOAD PUSH8 0xFFFFFFFFFFFFFFFF DUP2 GT ISZERO PUSH2 0x21F2 JUMPI PUSH2 0x21F1 PUSH2 0x1D92 JUMP JUMPDEST JUMPDEST PUSH2 0x21FE DUP5 DUP3 DUP6 ADD PUSH2 0x1C9A JUMP JUMPDEST PUSH0 DUP4 ADD MSTORE POP PUSH1 0x20 DUP3 ADD CALLDATALOAD PUSH8 0xFFFFFFFFFFFFFFFF DUP2 GT ISZERO PUSH2 0x2221 JUMPI PUSH2 0x2220 PUSH2 0x1D92 JUMP JUMPDEST JUMPDEST PUSH2 0x222D DUP5 DUP3 DUP6 ADD PUSH2 0x1C9A JUMP JUMPDEST PUSH1 0x20 DUP4 ADD MSTORE POP PUSH1 0x40 DUP3 ADD CALLDATALOAD PUSH8 0xFFFFFFFFFFFFFFFF DUP2 GT ISZERO PUSH2 0x2251 JUMPI PUSH2 0x2250 PUSH2 0x1D92 JUMP JUMPDEST JUMPDEST PUSH2 0x225D DUP5 DUP3 DUP6 ADD PUSH2 0x1C9A JUMP JUMPDEST PUSH1 0x40 DUP4 ADD MSTORE POP PUSH1 0x60 DUP3 ADD CALLDATALOAD PUSH8 0xFFFFFFFFFFFFFFFF DUP2 GT ISZERO PUSH2 0x2281 JUMPI PUSH2 0x2280 PUSH2 0x1D92 JUMP JUMPDEST JUMPDEST PUSH2 0x228D DUP5 DUP3 DUP6 ADD PUSH2 0x1C9A JUMP JUMPDEST PUSH1 0x60 DUP4 ADD MSTORE POP PUSH1 0x80 PUSH2 0x22A1 DUP5 DUP3 DUP6 ADD PUSH2 0x1DBD JUMP JUMPDEST PUSH1 0x80 DUP4 ADD MSTORE POP SWAP3 SWAP2 POP POP JUMP JUMPDEST PUSH0 DUP1 PUSH0 PUSH1 0x60 DUP5 DUP7 SUB SLT ISZERO PUSH2 0x22C4 JUMPI PUSH2 0x22C3 PUSH2 0x1B83 JUMP JUMPDEST JUMPDEST PUSH0 DUP5 ADD CALLDATALOAD PUSH8 0xFFFFFFFFFFFFFFFF DUP2 GT ISZERO PUSH2 0x22E1 JUMPI PUSH2 0x22E0 PUSH2 0x1B87 JUMP JUMPDEST JUMPDEST PUSH2 0x22ED DUP7 DUP3 DUP8 ADD PUSH2 0x21B4 JUMP JUMPDEST SWAP4 POP POP PUSH1 0x20 DUP5 ADD CALLDATALOAD PUSH8 0xFFFFFFFFFFFFFFFF DUP2 GT ISZERO PUSH2 0x230E JUMPI PUSH2 0x230D PUSH2 0x1B87 JUMP JUMPDEST JUMPDEST PUSH2 0x231A DUP7 DUP3 DUP8 ADD PUSH2 0x1C9A JUMP JUMPDEST SWAP3 POP POP PUSH1 0x40 PUSH2 0x232B DUP7 DUP3 DUP8 ADD PUSH2 0x1EBC JUMP JUMPDEST SWAP2 POP POP SWAP3 POP SWAP3 POP SWAP3 JUMP JUMPDEST PUSH0 DUP1 PUSH0 DUP1 PUSH0 PUSH1 0xA0 DUP7 DUP9 SUB SLT ISZERO PUSH2 0x234E JUMPI PUSH2 0x234D PUSH2 0x1B83 JUMP JUMPDEST JUMPDEST PUSH0 DUP7 ADD CALLDATALOAD PUSH8 0xFFFFFFFFFFFFFFFF DUP2 GT ISZERO PUSH2 0x236B JUMPI PUSH2 0x236A PUSH2 0x1B87 JUMP JUMPDEST JUMPDEST PUSH2 0x2377 DUP9 DUP3 DUP10 ADD PUSH2 0x1C9A JUMP JUMPDEST SWAP6 POP POP PUSH1 0x20 DUP7 ADD CALLDATALOAD PUSH8 0xFFFFFFFFFFFFFFFF DUP2 GT ISZERO PUSH2 0x2398 JUMPI PUSH2 0x2397 PUSH2 0x1B87 JUMP JUMPDEST JUMPDEST PUSH2 0x23A4 DUP9 DUP3 DUP10 ADD PUSH2 0x1C9A JUMP JUMPDEST SWAP5 POP POP PUSH1 0x40 DUP7 ADD CALLDATALOAD PUSH8 0xFFFFFFFFFFFFFFFF DUP2 GT ISZERO PUSH2 0x23C5 JUMPI PUSH2 0x23C4 PUSH2 0x1B87 JUMP JUMPDEST JUMPDEST PUSH2 0x23D1 DUP9 DUP3 DUP10 ADD PUSH2 0x1C9A JUMP JUMPDEST SWAP4 POP POP PUSH1 0x60 DUP7 ADD CALLDATALOAD PUSH8 0xFFFFFFFFFFFFFFFF DUP2 GT ISZERO PUSH2 0x23F2 JUMPI PUSH2 0x23F1 PUSH2 0x1B87 JUMP JUMPDEST JUMPDEST PUSH2 0x23FE DUP9 DUP3 DUP10 ADD PUSH2 0x1C9A JUMP JUMPDEST SWAP3 POP POP PUSH1 0x80 PUSH2 0x240F DUP9 DUP3 DUP10 ADD PUSH2 0x1EBC JUMP JUMPDEST SWAP2 POP POP SWAP3 SWAP6 POP SWAP3 SWAP6 SWAP1 SWAP4 POP JUMP JUMPDEST PUSH0 DUP2 MLOAD SWAP1 POP SWAP2 SWAP1 POP JUMP JUMPDEST PUSH0 DUP3 DUP3 MSTORE PUSH1 0x20 DUP3 ADD SWAP1 POP SWAP3 SWAP2 POP POP JUMP JUMPDEST PUSH0 DUP2 SWAP1 POP PUSH1 0x20 DUP3 ADD SWAP1 POP SWAP2 SWAP1 POP JUMP JUMPDEST PUSH0 DUP3 DUP3 MSTORE PUSH1 0x20 DUP3 ADD SWAP1 POP SWAP3 SWAP2 POP POP JUMP JUMPDEST PUSH0 PUSH2 0x245F DUP3 PUSH2 0x1D0E JUMP JUMPDEST PUSH2 0x2469 DUP2 DUP6 PUSH2 0x2445 JUMP JUMPDEST SWAP4 POP PUSH2 0x2479 DUP2 DUP6 PUSH1 0x20 DUP7 ADD PUSH2 0x1D28 JUMP JUMPDEST PUSH2 0x2482 DUP2 PUSH2 0x1B93 JUMP JUMPDEST DUP5 ADD SWAP2 POP POP SWAP3 SWAP2 POP POP JUMP JUMPDEST PUSH2 0x2496 DUP2 PUSH2 0x1E9A JUMP JUMPDEST DUP3 MSTORE POP POP JUMP JUMPDEST PUSH32 0x4E487B7100000000000000000000000000000000000000000000000000000000 PUSH0 MSTORE PUSH1 0x21 PUSH1 0x4 MSTORE PUSH1 0x24 PUSH0 REVERT JUMPDEST PUSH1 0x4 DUP2 LT PUSH2 0x24DA JUMPI PUSH2 0x24D9 PUSH2 0x249C JUMP JUMPDEST JUMPDEST POP JUMP JUMPDEST PUSH0 DUP2 SWAP1 POP PUSH2 0x24EA DUP3 PUSH2 0x24C9 JUMP JUMPDEST SWAP2 SWAP1 POP JUMP JUMPDEST PUSH0 PUSH2 0x24F9 DUP3 PUSH2 0x24DD JUMP JUMPDEST SWAP1 POP SWAP2 SWAP1 POP JUMP JUMPDEST PUSH2 0x2509 DUP2 PUSH2 0x24EF JUMP JUMPDEST DUP3 MSTORE POP POP JUMP JUMPDEST PUSH0 PUSH1 0xC0 DUP4 ADD PUSH0 DUP4 ADD MLOAD DUP5 DUP3 SUB PUSH0 DUP7 ADD MSTORE PUSH2 0x2529 DUP3 DUP3 PUSH2 0x2455 JUMP JUMPDEST SWAP2 POP POP PUSH1 0x20 DUP4 ADD MLOAD DUP5 DUP3 SUB PUSH1 0x20 DUP7 ADD MSTORE PUSH2 0x2543 DUP3 DUP3 PUSH2 0x2455 JUMP JUMPDEST SWAP2 POP POP PUSH1 0x40 DUP4 ADD MLOAD DUP5 DUP3 SUB PUSH1 0x40 DUP7 ADD MSTORE PUSH2 0x255D DUP3 DUP3 PUSH2 0x2455 JUMP JUMPDEST SWAP2 POP POP PUSH1 0x60 DUP4 ADD MLOAD PUSH2 0x2572 PUSH1 0x60 DUP7 ADD DUP3 PUSH2 0x248D JUMP JUMPDEST POP PUSH1 0x80 DUP4 ADD MLOAD PUSH2 0x2585 PUSH1 0x80 DUP7 ADD DUP3 PUSH2 0x2500 JUMP JUMPDEST POP PUSH1 0xA0 DUP4 ADD MLOAD DUP5 DUP3 SUB PUSH1 0xA0 DUP7 ADD MSTORE PUSH2 0x259D DUP3 DUP3 PUSH2 0x2455 JUMP JUMPDEST SWAP2 POP POP DUP1 SWAP2 POP POP SWAP3 SWAP2 POP POP JUMP JUMPDEST PUSH0 PUSH2 0x25B5 DUP4 DUP4 PUSH2 0x250F JUMP JUMPDEST SWAP1 POP SWAP3 SWAP2 POP POP JUMP JUMPDEST PUSH0 PUSH1 0x20 DUP3 ADD SWAP1 POP SWAP2 SWAP1 POP JUMP JUMPDEST PUSH0 PUSH2 0x25D3 DUP3 PUSH2 0x241C JUMP JUMPDEST PUSH2 0x25DD DUP2 DUP6 PUSH2 0x2426 JUMP JUMPDEST SWAP4 POP DUP4 PUSH1 0x20 DUP3 MUL DUP6 ADD PUSH2 0x25EF DUP6 PUSH2 0x2436 JUMP JUMPDEST DUP1 PUSH0 JUMPDEST DUP6 DUP2 LT ISZERO PUSH2 0x262A JUMPI DUP5 DUP5 SUB DUP10 MSTORE DUP2 MLOAD PUSH2 0x260B DUP6 DUP3 PUSH2 0x25AA JUMP JUMPDEST SWAP5 POP PUSH2 0x2616 DUP4 PUSH2 0x25BD JUMP JUMPDEST SWAP3 POP PUSH1 0x20 DUP11 ADD SWAP10 POP POP PUSH1 0x1 DUP2 ADD SWAP1 POP PUSH2 0x25F2 JUMP JUMPDEST POP DUP3 SWAP8 POP DUP8 SWAP6 POP POP POP POP POP POP SWAP3 SWAP2 POP POP JUMP JUMPDEST PUSH0 PUSH1 0x20 DUP3 ADD SWAP1 POP DUP2 DUP2 SUB PUSH0 DUP4 ADD MSTORE PUSH2 0x2654 DUP2 DUP5 PUSH2 0x25C9 JUMP JUMPDEST SWAP1 POP SWAP3 SWAP2 POP POP JUMP JUMPDEST PUSH0 DUP2 SWAP1 POP SWAP2 SWAP1 POP JUMP JUMPDEST PUSH2 0x266E DUP2 PUSH2 0x265C JUMP JUMPDEST DUP3 MSTORE POP POP JUMP JUMPDEST PUSH2 0x267D DUP2 PUSH2 0x1D96 JUMP JUMPDEST DUP3 MSTORE POP POP JUMP JUMPDEST PUSH0 PUSH1 0x60 DUP4 ADD PUSH0 DUP4 ADD MLOAD DUP5 DUP3 SUB PUSH0 DUP7 ADD MSTORE PUSH2 0x269D DUP3 DUP3 PUSH2 0x2455 JUMP JUMPDEST SWAP2 POP POP PUSH1 0x20 DUP4 ADD MLOAD DUP5 DUP3 SUB PUSH1 0x20 DUP7 ADD MSTORE PUSH2 0x26B7 DUP3 DUP3 PUSH2 0x2455 JUMP JUMPDEST SWAP2 POP POP PUSH1 0x40 DUP4 ADD MLOAD PUSH2 0x26CC PUSH1 0x40 DUP7 ADD DUP3 PUSH2 0x2674 JUMP JUMPDEST POP DUP1 SWAP2 POP POP SWAP3 SWAP2 POP POP JUMP JUMPDEST PUSH0 PUSH2 0x100 DUP4 ADD PUSH0 DUP4 ADD MLOAD PUSH2 0x26ED PUSH0 DUP7 ADD DUP3 PUSH2 0x2500 JUMP JUMPDEST POP PUSH1 0x20 DUP4 ADD MLOAD PUSH2 0x2700 PUSH1 0x20 DUP7 ADD DUP3 PUSH2 0x2665 JUMP JUMPDEST POP PUSH1 0x40 DUP4 ADD MLOAD PUSH2 0x2713 PUSH1 0x40 DUP7 ADD DUP3 PUSH2 0x2665 JUMP JUMPDEST POP PUSH1 0x60 DUP4 ADD MLOAD PUSH2 0x2726 PUSH1 0x60 DUP7 ADD DUP3 PUSH2 0x2665 JUMP JUMPDEST POP PUSH1 0x80 DUP4 ADD MLOAD PUSH2 0x2739 PUSH1 0x80 DUP7 ADD DUP3 PUSH2 0x2665 JUMP JUMPDEST POP PUSH1 0xA0 DUP4 ADD MLOAD DUP5 DUP3 SUB PUSH1 0xA0 DUP7 ADD MSTORE PUSH2 0x2751 DUP3 DUP3 PUSH2 0x2683 JUMP JUMPDEST SWAP2 POP POP PUSH1 0xC0 DUP4 ADD MLOAD DUP5 DUP3 SUB PUSH1 0xC0 DUP7 ADD MSTORE PUSH2 0x276B DUP3 DUP3 PUSH2 0x2683 JUMP JUMPDEST SWAP2 POP POP PUSH1 0xE0 DUP4 ADD MLOAD DUP5 DUP3 SUB PUSH1 0xE0 DUP7 ADD MSTORE PUSH2 0x2785 DUP3 DUP3 PUSH2 0x2455 JUMP JUMPDEST SWAP2 POP POP DUP1 SWAP2 POP POP SWAP3 SWAP2 POP POP JUMP JUMPDEST PUSH0 PUSH1 0x80 DUP4 ADD PUSH0 DUP4 ADD MLOAD DUP5 DUP3 SUB PUSH0 DUP7 ADD MSTORE PUSH2 0x27AC DUP3 DUP3 PUSH2 0x2455 JUMP JUMPDEST SWAP2 POP POP PUSH1 0x20 DUP4 ADD MLOAD DUP5 DUP3 SUB PUSH1 0x20 DUP7 ADD MSTORE PUSH2 0x27C6 DUP3 DUP3 PUSH2 0x2455 JUMP JUMPDEST SWAP2 POP POP PUSH1 0x40 DUP4 ADD MLOAD PUSH2 0x27DB PUSH1 0x40 DUP7 ADD DUP3 PUSH2 0x248D JUMP JUMPDEST POP PUSH1 0x60 DUP4 ADD MLOAD DUP5 DUP3 SUB PUSH1 0x60 DUP7 ADD MSTORE PUSH2 0x27F3 DUP3 DUP3 PUSH2 0x2455 JUMP JUMPDEST SWAP2 POP POP DUP1 SWAP2 POP POP SWAP3 SWAP2 POP POP JUMP JUMPDEST PUSH0 PUSH1 0x60 DUP4 ADD PUSH0 DUP4 ADD MLOAD DUP5 DUP3 SUB PUSH0 DUP7 ADD MSTORE PUSH2 0x281A DUP3 DUP3 PUSH2 0x2455 JUMP JUMPDEST SWAP2 POP POP PUSH1 0x20 DUP4 ADD MLOAD DUP5 DUP3 SUB PUSH1 0x20 DUP7 ADD MSTORE PUSH2 0x2834 DUP3 DUP3 PUSH2 0x2455 JUMP JUMPDEST SWAP2 POP POP PUSH1 0x40 DUP4 ADD MLOAD DUP5 DUP3 SUB PUSH1 0x40 DUP7 ADD MSTORE PUSH2 0x284E DUP3 DUP3 PUSH2 0x2455 JUMP JUMPDEST SWAP2 POP POP DUP1 SWAP2 POP POP SWAP3 SWAP2 POP POP JUMP JUMPDEST PUSH0 PUSH1 0x40 DUP4 ADD PUSH0 DUP4 ADD MLOAD DUP5 DUP3 SUB PUSH0 DUP7 ADD MSTORE PUSH2 0x2875 DUP3 DUP3 PUSH2 0x2455 JUMP JUMPDEST SWAP2 POP POP PUSH1 0x20 DUP4 ADD MLOAD DUP5 DUP3 SUB PUSH1 0x20 DUP7 ADD MSTORE PUSH2 0x288F DUP3 DUP3 PUSH2 0x2455 JUMP JUMPDEST SWAP2 POP POP DUP1 SWAP2 POP POP SWAP3 SWAP2 POP POP JUMP JUMPDEST PUSH0 PUSH1 0x80 DUP3 ADD SWAP1 POP DUP2 DUP2 SUB PUSH0 DUP4 ADD MSTORE PUSH2 0x28B4 DUP2 DUP8 PUSH2 0x26D7 JUMP JUMPDEST SWAP1 POP DUP2 DUP2 SUB PUSH1 0x20 DUP4 ADD MSTORE PUSH2 0x28C8 DUP2 DUP7 PUSH2 0x2792 JUMP JUMPDEST SWAP1 POP DUP2 DUP2 SUB PUSH1 0x40 DUP4 ADD MSTORE PUSH2 0x28DC DUP2 DUP6 PUSH2 0x2800 JUMP JUMPDEST SWAP1 POP DUP2 DUP2 SUB PUSH1 0x60 DUP4 ADD MSTORE PUSH2 0x28F0 DUP2 DUP5 PUSH2 0x285B JUMP JUMPDEST SWAP1 POP SWAP6 SWAP5 POP POP POP POP POP JUMP JUMPDEST PUSH0 PUSH1 0x60 DUP4 ADD PUSH0 DUP4 ADD MLOAD DUP5 DUP3 SUB PUSH0 DUP7 ADD MSTORE PUSH2 0x2915 DUP3 DUP3 PUSH2 0x2455 JUMP JUMPDEST SWAP2 POP POP PUSH1 0x20 DUP4 ADD MLOAD DUP5 DUP3 SUB PUSH1 0x20 DUP7 ADD MSTORE PUSH2 0x292F DUP3 DUP3 PUSH2 0x2455 JUMP JUMPDEST SWAP2 POP POP PUSH1 0x40 DUP4 ADD MLOAD PUSH2 0x2944 PUSH1 0x40 DUP7 ADD DUP3 PUSH2 0x248D JUMP JUMPDEST POP DUP1 SWAP2 POP POP SWAP3 SWAP2 POP POP JUMP JUMPDEST PUSH0 PUSH1 0x40 DUP4 ADD PUSH0 DUP4 ADD MLOAD DUP5 DUP3 SUB PUSH0 DUP7 ADD MSTORE PUSH2 0x2969 DUP3 DUP3 PUSH2 0x2455 JUMP JUMPDEST SWAP2 POP POP PUSH1 0x20 DUP4 ADD MLOAD DUP5 DUP3 SUB PUSH1 0x20 DUP7 ADD MSTORE PUSH2 0x2983 DUP3 DUP3 PUSH2 0x2455 JUMP JUMPDEST SWAP2 POP POP DUP1 SWAP2 POP POP SWAP3 SWAP2 POP POP JUMP JUMPDEST PUSH0 PUSH2 0x100 DUP4 ADD PUSH0 DUP4 ADD MLOAD DUP5 DUP3 SUB PUSH0 DUP7 ADD MSTORE PUSH2 0x29AB DUP3 DUP3 PUSH2 0x2455 JUMP JUMPDEST SWAP2 POP POP PUSH1 0x20 DUP4 ADD MLOAD DUP5 DUP3 SUB PUSH1 0x20 DUP7 ADD MSTORE PUSH2 0x29C5 DUP3 DUP3 PUSH2 0x2455 JUMP JUMPDEST SWAP2 POP POP PUSH1 0x40 DUP4 ADD MLOAD DUP5 DUP3 SUB PUSH1 0x40 DUP7 ADD MSTORE PUSH2 0x29DF DUP3 DUP3 PUSH2 0x2455 JUMP JUMPDEST SWAP2 POP POP PUSH1 0x60 DUP4 ADD MLOAD DUP5 DUP3 SUB PUSH1 0x60 DUP7 ADD MSTORE PUSH2 0x29F9 DUP3 DUP3 PUSH2 0x2455 JUMP JUMPDEST SWAP2 POP POP PUSH1 0x80 DUP4 ADD MLOAD DUP5 DUP3 SUB PUSH1 0x80 DUP7 ADD MSTORE PUSH2 0x2A13 DUP3 DUP3 PUSH2 0x2455 JUMP JUMPDEST SWAP2 POP POP PUSH1 0xA0 DUP4 ADD MLOAD DUP5 DUP3 SUB PUSH1 0xA0 DUP7 ADD MSTORE PUSH2 0x2A2D DUP3 DUP3 PUSH2 0x2455 JUMP JUMPDEST SWAP2 POP POP PUSH1 0xC0 DUP4 ADD MLOAD DUP5 DUP3 SUB PUSH1 0xC0 DUP7 ADD MSTORE PUSH2 0x2A47 DUP3 DUP3 PUSH2 0x2455 JUMP JUMPDEST SWAP2 POP POP PUSH1 0xE0 DUP4 ADD MLOAD DUP5 DUP3 SUB PUSH1 0xE0 DUP7 ADD MSTORE PUSH2 0x2A61 DUP3 DUP3 PUSH2 0x2455 JUMP JUMPDEST SWAP2 POP POP DUP1 SWAP2 POP POP SWAP3 SWAP2 POP POP JUMP JUMPDEST PUSH0 PUSH1 0x80 DUP3 ADD SWAP1 POP DUP2 DUP2 SUB PUSH0 DUP4 ADD MSTORE PUSH2 0x2A86 DUP2 DUP8 PUSH2 0x26D7 JUMP JUMPDEST SWAP1 POP DUP2 DUP2 SUB PUSH1 0x20 DUP4 ADD MSTORE PUSH2 0x2A9A DUP2 DUP7 PUSH2 0x28FB JUMP JUMPDEST SWAP1 POP DUP2 DUP2 SUB PUSH1 0x40 DUP4 ADD MSTORE PUSH2 0x2AAE DUP2 DUP6 PUSH2 0x294F JUMP JUMPDEST SWAP1 POP DUP2 DUP2 SUB PUSH1 0x60 DUP4 ADD MSTORE PUSH2 0x2AC2 DUP2 DUP5 PUSH2 0x2990 JUMP JUMPDEST SWAP1 POP SWAP6 SWAP5 POP POP POP POP POP JUMP JUMPDEST PUSH0 PUSH1 0x60 DUP3 DUP5 SUB SLT ISZERO PUSH2 0x2AE2 JUMPI PUSH2 0x2AE1 PUSH2 0x1D8E JUMP JUMPDEST JUMPDEST PUSH2 0x2AEC PUSH1 0x60 PUSH2 0x1C01 JUMP JUMPDEST SWAP1 POP PUSH0 DUP3 ADD CALLDATALOAD PUSH8 0xFFFFFFFFFFFFFFFF DUP2 GT ISZERO PUSH2 0x2B0B JUMPI PUSH2 0x2B0A PUSH2 0x1D92 JUMP JUMPDEST JUMPDEST PUSH2 0x2B17 DUP5 DUP3 DUP6 ADD PUSH2 0x1C9A JUMP JUMPDEST PUSH0 DUP4 ADD MSTORE POP PUSH1 0x20 DUP3 ADD CALLDATALOAD PUSH8 0xFFFFFFFFFFFFFFFF DUP2 GT ISZERO PUSH2 0x2B3A JUMPI PUSH2 0x2B39 PUSH2 0x1D92 JUMP JUMPDEST JUMPDEST PUSH2 0x2B46 DUP5 DUP3 DUP6 ADD PUSH2 0x1C9A JUMP JUMPDEST PUSH1 0x20 DUP4 ADD MSTORE POP PUSH1 0x40 DUP3 ADD CALLDATALOAD PUSH8 0xFFFFFFFFFFFFFFFF DUP2 GT ISZERO PUSH2 0x2B6A JUMPI PUSH2 0x2B69 PUSH2 0x1D92 JUMP JUMPDEST JUMPDEST PUSH2 0x2B76 DUP5 DUP3 DUP6 ADD PUSH2 0x1C9A JUMP JUMPDEST PUSH1 0x40 DUP4 ADD MSTORE POP SWAP3 SWAP2 POP POP JUMP JUMPDEST PUSH0 PUSH1 0x40 DUP3 DUP5 SUB SLT ISZERO PUSH2 0x2B97 JUMPI PUSH2 0x2B96 PUSH2 0x1D8E JUMP JUMPDEST JUMPDEST PUSH2 0x2BA1 PUSH1 0x40 PUSH2 0x1C01 JUMP JUMPDEST SWAP1 POP PUSH0 DUP3 ADD CALLDATALOAD PUSH8 0xFFFFFFFFFFFFFFFF DUP2 GT ISZERO PUSH2 0x2BC0 JUMPI PUSH2 0x2BBF PUSH2 0x1D92 JUMP JUMPDEST JUMPDEST PUSH2 0x2BCC DUP5 DUP3 DUP6 ADD PUSH2 0x1C9A JUMP JUMPDEST PUSH0 DUP4 ADD MSTORE POP PUSH1 0x20 DUP3 ADD CALLDATALOAD PUSH8 0xFFFFFFFFFFFFFFFF DUP2 GT ISZERO PUSH2 0x2BEF JUMPI PUSH2 0x2BEE PUSH2 0x1D92 JUMP JUMPDEST JUMPDEST PUSH2 0x2BFB DUP5 DUP3 DUP6 ADD PUSH2 0x1C9A JUMP JUMPDEST PUSH1 0x20 DUP4 ADD MSTORE POP SWAP3 SWAP2 POP POP JUMP JUMPDEST PUSH0 DUP1 PUSH0 DUP1 PUSH0 PUSH1 0xA0 DUP7 DUP9 SUB SLT ISZERO PUSH2 0x2C20 JUMPI PUSH2 0x2C1F PUSH2 0x1B83 JUMP JUMPDEST JUMPDEST PUSH0 DUP7 ADD CALLDATALOAD PUSH8 0xFFFFFFFFFFFFFFFF DUP2 GT ISZERO PUSH2 0x2C3D JUMPI PUSH2 0x2C3C PUSH2 0x1B87 JUMP JUMPDEST JUMPDEST PUSH2 0x2C49 DUP9 DUP3 DUP10 ADD PUSH2 0x1DD1 JUMP JUMPDEST SWAP6 POP POP PUSH1 0x20 PUSH2 0x2C5A DUP9 DUP3 DUP10 ADD PUSH2 0x1EBC JUMP JUMPDEST SWAP5 POP POP PUSH1 0x40 DUP7 ADD CALLDATALOAD PUSH8 0xFFFFFFFFFFFFFFFF DUP2 GT ISZERO PUSH2 0x2C7B JUMPI PUSH2 0x2C7A PUSH2 0x1B87 JUMP JUMPDEST JUMPDEST PUSH2 0x2C87 DUP9 DUP3 DUP10 ADD PUSH2 0x1C9A JUMP JUMPDEST SWAP4 POP POP PUSH1 0x60 DUP7 ADD CALLDATALOAD PUSH8 0xFFFFFFFFFFFFFFFF DUP2 GT ISZERO PUSH2 0x2CA8 JUMPI PUSH2 0x2CA7 PUSH2 0x1B87 JUMP JUMPDEST JUMPDEST PUSH2 0x2CB4 DUP9 DUP3 DUP10 ADD PUSH2 0x2ACD JUMP JUMPDEST SWAP3 POP POP PUSH1 0x80 DUP7 ADD CALLDATALOAD PUSH8 0xFFFFFFFFFFFFFFFF DUP2 GT ISZERO PUSH2 0x2CD5 JUMPI PUSH2 0x2CD4 PUSH2 0x1B87 JUMP JUMPDEST JUMPDEST PUSH2 0x2CE1 DUP9 DUP3 DUP10 ADD PUSH2 0x2B82 JUMP JUMPDEST SWAP2 POP POP SWAP3 SWAP6 POP SWAP3 SWAP6 SWAP1 SWAP4 POP JUMP JUMPDEST PUSH0 PUSH2 0x2CF8 DUP3 PUSH2 0x1B30 JUMP JUMPDEST SWAP1 POP SWAP2 SWAP1 POP JUMP JUMPDEST PUSH2 0x2D08 DUP2 PUSH2 0x2CEE JUMP JUMPDEST DUP3 MSTORE POP POP JUMP JUMPDEST PUSH0 PUSH1 0x20 DUP3 ADD SWAP1 POP PUSH2 0x2D21 PUSH0 DUP4 ADD DUP5 PUSH2 0x2CFF JUMP JUMPDEST SWAP3 SWAP2 POP POP JUMP JUMPDEST PUSH0 DUP1 PUSH0 PUSH1 0x60 DUP5 DUP7 SUB SLT ISZERO PUSH2 0x2D3E JUMPI PUSH2 0x2D3D PUSH2 0x1B83 JUMP JUMPDEST JUMPDEST PUSH0 DUP5 ADD CALLDATALOAD PUSH8 0xFFFFFFFFFFFFFFFF DUP2 GT ISZERO PUSH2 0x2D5B JUMPI PUSH2 0x2D5A PUSH2 0x1B87 JUMP JUMPDEST JUMPDEST PUSH2 0x2D67 DUP7 DUP3 DUP8 ADD PUSH2 0x1DD1 JUMP JUMPDEST SWAP4 POP POP PUSH1 0x20 DUP5 ADD CALLDATALOAD PUSH8 0xFFFFFFFFFFFFFFFF DUP2 GT ISZERO PUSH2 0x2D88 JUMPI PUSH2 0x2D87 PUSH2 0x1B87 JUMP JUMPDEST JUMPDEST PUSH2 0x2D94 DUP7 DUP3 DUP8 ADD PUSH2 0x1ED0 JUMP JUMPDEST SWAP3 POP POP PUSH1 0x40 DUP5 ADD CALLDATALOAD PUSH8 0xFFFFFFFFFFFFFFFF DUP2 GT ISZERO PUSH2 0x2DB5 JUMPI PUSH2 0x2DB4 PUSH2 0x1B87 JUMP JUMPDEST JUMPDEST PUSH2 0x2DC1 DUP7 DUP3 DUP8 ADD PUSH2 0x1F55 JUMP JUMPDEST SWAP2 POP POP SWAP3 POP SWAP3 POP SWAP3 JUMP JUMPDEST PUSH0 DUP1 PUSH0 PUSH1 0x60 DUP5 DUP7 SUB SLT ISZERO PUSH2 0x2DE2 JUMPI PUSH2 0x2DE1 PUSH2 0x1B83 JUMP JUMPDEST JUMPDEST PUSH0 DUP5 ADD CALLDATALOAD PUSH8 0xFFFFFFFFFFFFFFFF DUP2 GT ISZERO PUSH2 0x2DFF JUMPI PUSH2 0x2DFE PUSH2 0x1B87 JUMP JUMPDEST JUMPDEST PUSH2 0x2E0B DUP7 DUP3 DUP8 ADD PUSH2 0x1DD1 JUMP JUMPDEST SWAP4 POP POP PUSH1 0x20 DUP5 ADD CALLDATALOAD PUSH8 0xFFFFFFFFFFFFFFFF DUP2 GT ISZERO PUSH2 0x2E2C JUMPI PUSH2 0x2E2B PUSH2 0x1B87 JUMP JUMPDEST JUMPDEST PUSH2 0x2E38 DUP7 DUP3 DUP8 ADD PUSH2 0x2ACD JUMP JUMPDEST SWAP3 POP POP PUSH1 0x40 DUP5 ADD CALLDATALOAD PUSH8 0xFFFFFFFFFFFFFFFF DUP2 GT ISZERO PUSH2 0x2E59 JUMPI PUSH2 0x2E58 PUSH2 0x1B87 JUMP JUMPDEST JUMPDEST PUSH2 0x2E65 DUP7 DUP3 DUP8 ADD PUSH2 0x2B82 JUMP JUMPDEST SWAP2 POP POP SWAP3 POP SWAP3 POP SWAP3 JUMP JUMPDEST PUSH0 DUP2 MLOAD SWAP1 POP SWAP2 SWAP1 POP JUMP JUMPDEST PUSH0 DUP3 DUP3 MSTORE PUSH1 0x20 DUP3 ADD SWAP1 POP SWAP3 SWAP2 POP POP JUMP JUMPDEST PUSH0 DUP2 SWAP1 POP PUSH1 0x20 DUP3 ADD SWAP1 POP SWAP2 SWAP1 POP JUMP JUMPDEST PUSH0 PUSH1 0xC0 DUP4 ADD PUSH0 DUP4 ADD MLOAD DUP5 DUP3 SUB PUSH0 DUP7 ADD MSTORE PUSH2 0x2EB2 DUP3 DUP3 PUSH2 0x2455 JUMP JUMPDEST SWAP2 POP POP PUSH1 0x20 DUP4 ADD MLOAD DUP5 DUP3 SUB PUSH1 0x20 DUP7 ADD MSTORE PUSH2 0x2ECC DUP3 DUP3 PUSH2 0x2455 JUMP JUMPDEST SWAP2 POP POP PUSH1 0x40 DUP4 ADD MLOAD DUP5 DUP3 SUB PUSH1 0x40 DUP7 ADD MSTORE PUSH2 0x2EE6 DUP3 DUP3 PUSH2 0x2455 JUMP JUMPDEST SWAP2 POP POP PUSH1 0x60 DUP4 ADD MLOAD PUSH2 0x2EFB PUSH1 0x60 DUP7 ADD DUP3 PUSH2 0x248D JUMP JUMPDEST POP PUSH1 0x80 DUP4 ADD MLOAD PUSH2 0x2F0E PUSH1 0x80 DUP7 ADD DUP3 PUSH2 0x2500 JUMP JUMPDEST POP PUSH1 0xA0 DUP4 ADD MLOAD DUP5 DUP3 SUB PUSH1 0xA0 DUP7 ADD MSTORE PUSH2 0x2F26 DUP3 DUP3 PUSH2 0x2455 JUMP JUMPDEST SWAP2 POP POP DUP1 SWAP2 POP POP SWAP3 SWAP2 POP POP JUMP JUMPDEST PUSH0 PUSH2 0x2F3E DUP4 DUP4 PUSH2 0x2E98 JUMP JUMPDEST SWAP1 POP SWAP3 SWAP2 POP POP JUMP JUMPDEST PUSH0 PUSH1 0x20 DUP3 ADD SWAP1 POP SWAP2 SWAP1 POP JUMP JUMPDEST PUSH0 PUSH2 0x2F5C DUP3 PUSH2 0x2E6F JUMP JUMPDEST PUSH2 0x2F66 DUP2 DUP6 PUSH2 0x2E79 JUMP JUMPDEST SWAP4 POP DUP4 PUSH1 0x20 DUP3 MUL DUP6 ADD PUSH2 0x2F78 DUP6 PUSH2 0x2E89 JUMP JUMPDEST DUP1 PUSH0 JUMPDEST DUP6 DUP2 LT ISZERO PUSH2 0x2FB3 JUMPI DUP5 DUP5 SUB DUP10 MSTORE DUP2 MLOAD PUSH2 0x2F94 DUP6 DUP3 PUSH2 0x2F33 JUMP JUMPDEST SWAP5 POP PUSH2 0x2F9F DUP4 PUSH2 0x2F46 JUMP JUMPDEST SWAP3 POP PUSH1 0x20 DUP11 ADD SWAP10 POP POP PUSH1 0x1 DUP2 ADD SWAP1 POP PUSH2 0x2F7B JUMP JUMPDEST POP DUP3 SWAP8 POP DUP8 SWAP6 POP POP POP POP POP POP SWAP3 SWAP2 POP POP JUMP JUMPDEST PUSH0 PUSH1 0x20 DUP3 ADD SWAP1 POP DUP2 DUP2 SUB PUSH0 DUP4 ADD MSTORE PUSH2 0x2FDD DUP2 DUP5 PUSH2 0x2F52 JUMP JUMPDEST SWAP1 POP SWAP3 SWAP2 POP POP JUMP JUMPDEST PUSH0 PUSH2 0x2FEF DUP3 PUSH2 0x1B30 JUMP JUMPDEST SWAP1 POP SWAP2 SWAP1 POP JUMP JUMPDEST PUSH2 0x2FFF DUP2 PUSH2 0x2FE5 JUMP JUMPDEST DUP3 MSTORE POP POP JUMP JUMPDEST PUSH0 PUSH1 0x20 DUP3 ADD SWAP1 POP PUSH2 0x3018 PUSH0 DUP4 ADD DUP5 PUSH2 0x2FF6 JUMP JUMPDEST SWAP3 SWAP2 POP POP JUMP JUMPDEST PUSH0 PUSH2 0x3030 PUSH2 0x302B DUP5 PUSH2 0x1C1B JUMP JUMPDEST PUSH2 0x1C01 JUMP JUMPDEST SWAP1 POP DUP3 DUP2 MSTORE PUSH1 0x20 DUP2 ADD DUP5 DUP5 DUP5 ADD GT ISZERO PUSH2 0x304C JUMPI PUSH2 0x304B PUSH2 0x1B8F JUMP JUMPDEST JUMPDEST PUSH2 0x3057 DUP5 DUP3 DUP6 PUSH2 0x1D28 JUMP JUMPDEST POP SWAP4 SWAP3 POP POP POP JUMP JUMPDEST PUSH0 DUP3 PUSH1 0x1F DUP4 ADD SLT PUSH2 0x3073 JUMPI PUSH2 0x3072 PUSH2 0x1B8B JUMP JUMPDEST JUMPDEST DUP2 MLOAD PUSH2 0x3083 DUP5 DUP3 PUSH1 0x20 DUP7 ADD PUSH2 0x301E JUMP JUMPDEST SWAP2 POP POP SWAP3 SWAP2 POP POP JUMP JUMPDEST PUSH0 PUSH1 0x20 DUP3 DUP5 SUB SLT ISZERO PUSH2 0x30A1 JUMPI PUSH2 0x30A0 PUSH2 0x1B83 JUMP JUMPDEST JUMPDEST PUSH0 DUP3 ADD MLOAD PUSH8 0xFFFFFFFFFFFFFFFF DUP2 GT ISZERO PUSH2 0x30BE JUMPI PUSH2 0x30BD PUSH2 0x1B87 JUMP JUMPDEST JUMPDEST PUSH2 0x30CA DUP5 DUP3 DUP6 ADD PUSH2 0x305F JUMP JUMPDEST SWAP2 POP POP SWAP3 SWAP2 POP POP JUMP JUMPDEST PUSH2 0x30DC DUP2 PUSH2 0x1D96 JUMP JUMPDEST DUP3 MSTORE POP POP JUMP JUMPDEST PUSH1 0x4 DUP2 LT PUSH2 0x30F3 JUMPI PUSH2 0x30F2 PUSH2 0x249C JUMP JUMPDEST JUMPDEST POP JUMP JUMPDEST PUSH0 DUP2 SWAP1 POP PUSH2 0x3103 DUP3 PUSH2 0x30E2 JUMP JUMPDEST SWAP2 SWAP1 POP JUMP JUMPDEST PUSH0 PUSH2 0x3112 DUP3 PUSH2 0x30F6 JUMP JUMPDEST SWAP1 POP SWAP2 SWAP1 POP JUMP JUMPDEST PUSH2 0x3122 DUP2 PUSH2 0x3108 JUMP JUMPDEST DUP3 MSTORE POP POP JUMP JUMPDEST PUSH0 PUSH1 0x40 DUP3 ADD SWAP1 POP PUSH2 0x313B PUSH0 DUP4 ADD DUP6 PUSH2 0x30D3 JUMP JUMPDEST PUSH2 0x3148 PUSH1 0x20 DUP4 ADD DUP5 PUSH2 0x3119 JUMP JUMPDEST SWAP4 SWAP3 POP POP POP JUMP JUMPDEST PUSH0 DUP2 ISZERO ISZERO SWAP1 POP SWAP2 SWAP1 POP JUMP JUMPDEST PUSH2 0x3163 DUP2 PUSH2 0x314F JUMP JUMPDEST DUP2 EQ PUSH2 0x316D JUMPI PUSH0 DUP1 REVERT JUMPDEST POP JUMP JUMPDEST PUSH0 DUP2 MLOAD SWAP1 POP PUSH2 0x317E DUP2 PUSH2 0x315A JUMP JUMPDEST SWAP3 SWAP2 POP POP JUMP JUMPDEST PUSH0 PUSH1 0x20 DUP3 DUP5 SUB SLT ISZERO PUSH2 0x3199 JUMPI PUSH2 0x3198 PUSH2 0x1B83 JUMP JUMPDEST JUMPDEST PUSH0 PUSH2 0x31A6 DUP5 DUP3 DUP6 ADD PUSH2 0x3170 JUMP JUMPDEST SWAP2 POP POP SWAP3 SWAP2 POP POP JUMP JUMPDEST PUSH32 0x4F6E6C79205042462063616E20646F2074686973207472616E73616374696F6E PUSH0 DUP3 ADD MSTORE PUSH32 0x2100000000000000000000000000000000000000000000000000000000000000 PUSH1 0x20 DUP3 ADD MSTORE POP JUMP JUMPDEST PUSH0 PUSH2 0x3209 PUSH1 0x21 DUP4 PUSH2 0x1D18 JUMP JUMPDEST SWAP2 POP PUSH2 0x3214 DUP3 PUSH2 0x31AF JUMP JUMPDEST PUSH1 0x40 DUP3 ADD SWAP1 POP SWAP2 SWAP1 POP JUMP JUMPDEST PUSH0 PUSH1 0x20 DUP3 ADD SWAP1 POP DUP2 DUP2 SUB PUSH0 DUP4 ADD MSTORE PUSH2 0x3236 DUP2 PUSH2 0x31FD JUMP JUMPDEST SWAP1 POP SWAP2 SWAP1 POP JUMP JUMPDEST PUSH2 0x3246 DUP2 PUSH2 0x1E9A JUMP JUMPDEST DUP3 MSTORE POP POP JUMP JUMPDEST PUSH0 PUSH1 0xE0 DUP3 ADD SWAP1 POP DUP2 DUP2 SUB PUSH0 DUP4 ADD MSTORE PUSH2 0x3264 DUP2 DUP11 PUSH2 0x1D36 JUMP JUMPDEST SWAP1 POP DUP2 DUP2 SUB PUSH1 0x20 DUP4 ADD MSTORE PUSH2 0x3278 DUP2 DUP10 PUSH2 0x1D36 JUMP JUMPDEST SWAP1 POP DUP2 DUP2 SUB PUSH1 0x40 DUP4 ADD MSTORE PUSH2 0x328C DUP2 DUP9 PUSH2 0x1D36 JUMP JUMPDEST SWAP1 POP PUSH2 0x329B PUSH1 0x60 DUP4 ADD DUP8 PUSH2 0x30D3 JUMP JUMPDEST PUSH2 0x32A8 PUSH1 0x80 DUP4 ADD DUP7 PUSH2 0x323D JUMP JUMPDEST DUP2 DUP2 SUB PUSH1 0xA0 DUP4 ADD MSTORE PUSH2 0x32BA DUP2 DUP6 PUSH2 0x294F JUMP JUMPDEST SWAP1 POP DUP2 DUP2 SUB PUSH1 0xC0 DUP4 ADD MSTORE PUSH2 0x32CE DUP2 DUP5 PUSH2 0x2990 JUMP JUMPDEST SWAP1 POP SWAP9 SWAP8 POP POP POP POP POP POP POP POP JUMP JUMPDEST PUSH2 0x32E5 DUP2 PUSH2 0x265C JUMP JUMPDEST DUP3 MSTORE POP POP JUMP JUMPDEST PUSH0 PUSH1 0x80 DUP3 ADD SWAP1 POP DUP2 DUP2 SUB PUSH0 DUP4 ADD MSTORE PUSH2 0x3303 DUP2 DUP8 PUSH2 0x1D36 JUMP JUMPDEST SWAP1 POP PUSH2 0x3312 PUSH1 0x20 DUP4 ADD DUP7 PUSH2 0x30D3 JUMP JUMPDEST PUSH2 0x331F PUSH1 0x40 DUP4 ADD DUP6 PUSH2 0x323D JUMP JUMPDEST PUSH2 0x332C PUSH1 0x60 DUP4 ADD DUP5 PUSH2 0x32DC JUMP JUMPDEST SWAP6 SWAP5 POP POP POP POP POP JUMP JUMPDEST PUSH32 0x4F6E6C792042504F4D2063616E20646F2074686973207472616E73616374696F PUSH0 DUP3 ADD MSTORE PUSH32 0x6E21000000000000000000000000000000000000000000000000000000000000 PUSH1 0x20 DUP3 ADD MSTORE POP JUMP JUMPDEST PUSH0 PUSH2 0x338F PUSH1 0x22 DUP4 PUSH2 0x1D18 JUMP JUMPDEST SWAP2 POP PUSH2 0x339A DUP3 PUSH2 0x3335 JUMP JUMPDEST PUSH1 0x40 DUP3 ADD SWAP1 POP SWAP2 SWAP1 POP JUMP JUMPDEST PUSH0 PUSH1 0x20 DUP3 ADD SWAP1 POP DUP2 DUP2 SUB PUSH0 DUP4 ADD MSTORE PUSH2 0x33BC DUP2 PUSH2 0x3383 JUMP JUMPDEST SWAP1 POP SWAP2 SWAP1 POP JUMP JUMPDEST PUSH0 PUSH1 0xC0 DUP3 ADD SWAP1 POP DUP2 DUP2 SUB PUSH0 DUP4 ADD MSTORE PUSH2 0x33DB DUP2 DUP10 PUSH2 0x1D36 JUMP JUMPDEST SWAP1 POP DUP2 DUP2 SUB PUSH1 0x20 DUP4 ADD MSTORE PUSH2 0x33EF DUP2 DUP9 PUSH2 0x1D36 JUMP JUMPDEST SWAP1 POP DUP2 DUP2 SUB PUSH1 0x40 DUP4 ADD MSTORE PUSH2 0x3403 DUP2 DUP8 PUSH2 0x1D36 JUMP JUMPDEST SWAP1 POP DUP2 DUP2 SUB PUSH1 0x60 DUP4 ADD MSTORE PUSH2 0x3417 DUP2 DUP7 PUSH2 0x1D36 JUMP JUMPDEST SWAP1 POP PUSH2 0x3426 PUSH1 0x80 DUP4 ADD DUP6 PUSH2 0x30D3 JUMP JUMPDEST DUP2 DUP2 SUB PUSH1 0xA0 DUP4 ADD MSTORE PUSH2 0x3438 DUP2 DUP5 PUSH2 0x1D36 JUMP JUMPDEST SWAP1 POP SWAP8 SWAP7 POP POP POP POP POP POP POP JUMP JUMPDEST PUSH0 PUSH1 0xA0 DUP3 ADD SWAP1 POP DUP2 DUP2 SUB PUSH0 DUP4 ADD MSTORE PUSH2 0x345D DUP2 DUP9 PUSH2 0x1D36 JUMP JUMPDEST SWAP1 POP PUSH2 0x346C PUSH1 0x20 DUP4 ADD DUP8 PUSH2 0x30D3 JUMP JUMPDEST PUSH2 0x3479 PUSH1 0x40 DUP4 ADD DUP7 PUSH2 0x323D JUMP JUMPDEST DUP2 DUP2 SUB PUSH1 0x60 DUP4 ADD MSTORE PUSH2 0x348B DUP2 DUP6 PUSH2 0x1D36 JUMP JUMPDEST SWAP1 POP PUSH2 0x349A PUSH1 0x80 DUP4 ADD DUP5 PUSH2 0x32DC JUMP JUMPDEST SWAP7 SWAP6 POP POP POP POP POP POP JUMP JUMPDEST PUSH0 PUSH1 0xA0 DUP3 ADD SWAP1 POP DUP2 DUP2 SUB PUSH0 DUP4 ADD MSTORE PUSH2 0x34BC DUP2 DUP9 PUSH2 0x1D36 JUMP JUMPDEST SWAP1 POP DUP2 DUP2 SUB PUSH1 0x20 DUP4 ADD MSTORE PUSH2 0x34D0 DUP2 DUP8 PUSH2 0x1D36 JUMP JUMPDEST SWAP1 POP DUP2 DUP2 SUB PUSH1 0x40 DUP4 ADD MSTORE PUSH2 0x34E4 DUP2 DUP7 PUSH2 0x1D36 JUMP JUMPDEST SWAP1 POP DUP2 DUP2 SUB PUSH1 0x60 DUP4 ADD MSTORE PUSH2 0x34F8 DUP2 DUP6 PUSH2 0x1D36 JUMP JUMPDEST SWAP1 POP PUSH2 0x3507 PUSH1 0x80 DUP4 ADD DUP5 PUSH2 0x30D3 JUMP JUMPDEST SWAP7 SWAP6 POP POP POP POP POP POP JUMP JUMPDEST PUSH0 PUSH1 0xA0 DUP3 ADD SWAP1 POP DUP2 DUP2 SUB PUSH0 DUP4 ADD MSTORE PUSH2 0x3529 DUP2 DUP9 PUSH2 0x1D36 JUMP JUMPDEST SWAP1 POP PUSH2 0x3538 PUSH1 0x20 DUP4 ADD DUP8 PUSH2 0x30D3 JUMP JUMPDEST PUSH2 0x3545 PUSH1 0x40 DUP4 ADD DUP7 PUSH2 0x323D JUMP JUMPDEST PUSH2 0x3552 PUSH1 0x60 DUP4 ADD DUP6 PUSH2 0x32DC JUMP JUMPDEST DUP2 DUP2 SUB PUSH1 0x80 DUP4 ADD MSTORE PUSH2 0x3564 DUP2 DUP5 PUSH2 0x1D36 JUMP JUMPDEST SWAP1 POP SWAP7 SWAP6 POP POP POP POP POP POP JUMP JUMPDEST PUSH0 PUSH8 0xFFFFFFFFFFFFFFFF DUP3 GT ISZERO PUSH2 0x358A JUMPI PUSH2 0x3589 PUSH2 0x1BA3 JUMP JUMPDEST JUMPDEST PUSH1 0x20 DUP3 MUL SWAP1 POP PUSH1 0x20 DUP2 ADD SWAP1 POP SWAP2 SWAP1 POP JUMP JUMPDEST PUSH0 DUP1 REVERT JUMPDEST PUSH0 DUP2 MLOAD SWAP1 POP PUSH2 0x35AD DUP2 PUSH2 0x1EA6 JUMP JUMPDEST SWAP3 SWAP2 POP POP JUMP JUMPDEST PUSH1 0x4 DUP2 LT PUSH2 0x35BF JUMPI PUSH0 DUP1 REVERT JUMPDEST POP JUMP JUMPDEST PUSH0 DUP2 MLOAD SWAP1 POP PUSH2 0x35D0 DUP2 PUSH2 0x35B3 JUMP JUMPDEST SWAP3 SWAP2 POP POP JUMP JUMPDEST PUSH0 PUSH1 0xC0 DUP3 DUP5 SUB SLT ISZERO PUSH2 0x35EB JUMPI PUSH2 0x35EA PUSH2 0x1D8E JUMP JUMPDEST JUMPDEST PUSH2 0x35F5 PUSH1 0xC0 PUSH2 0x1C01 JUMP JUMPDEST SWAP1 POP PUSH0 DUP3 ADD MLOAD PUSH8 0xFFFFFFFFFFFFFFFF DUP2 GT ISZERO PUSH2 0x3614 JUMPI PUSH2 0x3613 PUSH2 0x1D92 JUMP JUMPDEST JUMPDEST PUSH2 0x3620 DUP5 DUP3 DUP6 ADD PUSH2 0x305F JUMP JUMPDEST PUSH0 DUP4 ADD MSTORE POP PUSH1 0x20 DUP3 ADD MLOAD PUSH8 0xFFFFFFFFFFFFFFFF DUP2 GT ISZERO PUSH2 0x3643 JUMPI PUSH2 0x3642 PUSH2 0x1D92 JUMP JUMPDEST JUMPDEST PUSH2 0x364F DUP5 DUP3 DUP6 ADD PUSH2 0x305F JUMP JUMPDEST PUSH1 0x20 DUP4 ADD MSTORE POP PUSH1 0x40 DUP3 ADD MLOAD PUSH8 0xFFFFFFFFFFFFFFFF DUP2 GT ISZERO PUSH2 0x3673 JUMPI PUSH2 0x3672 PUSH2 0x1D92 JUMP JUMPDEST JUMPDEST PUSH2 0x367F DUP5 DUP3 DUP6 ADD PUSH2 0x305F JUMP JUMPDEST PUSH1 0x40 DUP4 ADD MSTORE POP PUSH1 0x60 PUSH2 0x3693 DUP5 DUP3 DUP6 ADD PUSH2 0x359F JUMP JUMPDEST PUSH1 0x60 DUP4 ADD MSTORE POP PUSH1 0x80 PUSH2 0x36A7 DUP5 DUP3 DUP6 ADD PUSH2 0x35C2 JUMP JUMPDEST PUSH1 0x80 DUP4 ADD MSTORE POP PUSH1 0xA0 DUP3 ADD MLOAD PUSH8 0xFFFFFFFFFFFFFFFF DUP2 GT ISZERO PUSH2 0x36CB JUMPI PUSH2 0x36CA PUSH2 0x1D92 JUMP JUMPDEST JUMPDEST PUSH2 0x36D7 DUP5 DUP3 DUP6 ADD PUSH2 0x305F JUMP JUMPDEST PUSH1 0xA0 DUP4 ADD MSTORE POP SWAP3 SWAP2 POP POP JUMP JUMPDEST PUSH0 PUSH2 0x36F5 PUSH2 0x36F0 DUP5 PUSH2 0x3570 JUMP JUMPDEST PUSH2 0x1C01 JUMP JUMPDEST SWAP1 POP DUP1 DUP4 DUP3 MSTORE PUSH1 0x20 DUP3 ADD SWAP1 POP PUSH1 0x20 DUP5 MUL DUP4 ADD DUP6 DUP2 GT ISZERO PUSH2 0x3718 JUMPI PUSH2 0x3717 PUSH2 0x359B JUMP JUMPDEST JUMPDEST DUP4 JUMPDEST DUP2 DUP2 LT ISZERO PUSH2 0x375F JUMPI DUP1 MLOAD PUSH8 0xFFFFFFFFFFFFFFFF DUP2 GT ISZERO PUSH2 0x373D JUMPI PUSH2 0x373C PUSH2 0x1B8B JUMP JUMPDEST JUMPDEST DUP1 DUP7 ADD PUSH2 0x374A DUP10 DUP3 PUSH2 0x35D6 JUMP JUMPDEST DUP6 MSTORE PUSH1 0x20 DUP6 ADD SWAP5 POP POP POP PUSH1 0x20 DUP2 ADD SWAP1 POP PUSH2 0x371A JUMP JUMPDEST POP POP POP SWAP4 SWAP3 POP POP POP JUMP JUMPDEST PUSH0 DUP3 PUSH1 0x1F DUP4 ADD SLT PUSH2 0x377D JUMPI PUSH2 0x377C PUSH2 0x1B8B JUMP JUMPDEST JUMPDEST DUP2 MLOAD PUSH2 0x378D DUP5 DUP3 PUSH1 0x20 DUP7 ADD PUSH2 0x36E3 JUMP JUMPDEST SWAP2 POP POP SWAP3 SWAP2 POP POP JUMP JUMPDEST PUSH0 PUSH1 0x20 DUP3 DUP5 SUB SLT ISZERO PUSH2 0x37AB JUMPI PUSH2 0x37AA PUSH2 0x1B83 JUMP JUMPDEST JUMPDEST PUSH0 DUP3 ADD MLOAD PUSH8 0xFFFFFFFFFFFFFFFF DUP2 GT ISZERO PUSH2 0x37C8 JUMPI PUSH2 0x37C7 PUSH2 0x1B87 JUMP JUMPDEST JUMPDEST PUSH2 0x37D4 DUP5 DUP3 DUP6 ADD PUSH2 0x3769 JUMP JUMPDEST SWAP2 POP POP SWAP3 SWAP2 POP POP JUMP JUMPDEST PUSH0 PUSH1 0x80 DUP3 DUP5 SUB SLT ISZERO PUSH2 0x37F2 JUMPI PUSH2 0x37F1 PUSH2 0x1D8E JUMP JUMPDEST JUMPDEST PUSH2 0x37FC PUSH1 0x80 PUSH2 0x1C01 JUMP JUMPDEST SWAP1 POP PUSH0 DUP3 ADD MLOAD PUSH8 0xFFFFFFFFFFFFFFFF DUP2 GT ISZERO PUSH2 0x381B JUMPI PUSH2 0x381A PUSH2 0x1D92 JUMP JUMPDEST JUMPDEST PUSH2 0x3827 DUP5 DUP3 DUP6 ADD PUSH2 0x305F JUMP JUMPDEST PUSH0 DUP4 ADD MSTORE POP PUSH1 0x20 DUP3 ADD MLOAD PUSH8 0xFFFFFFFFFFFFFFFF DUP2 GT ISZERO PUSH2 0x384A JUMPI PUSH2 0x3849 PUSH2 0x1D92 JUMP JUMPDEST JUMPDEST PUSH2 0x3856 DUP5 DUP3 DUP6 ADD PUSH2 0x305F JUMP JUMPDEST PUSH1 0x20 DUP4 ADD MSTORE POP PUSH1 0x40 PUSH2 0x386A DUP5 DUP3 DUP6 ADD PUSH2 0x359F JUMP JUMPDEST PUSH1 0x40 DUP4 ADD MSTORE POP PUSH1 0x60 DUP3 ADD MLOAD PUSH8 0xFFFFFFFFFFFFFFFF DUP2 GT ISZERO PUSH2 0x388E JUMPI PUSH2 0x388D PUSH2 0x1D92 JUMP JUMPDEST JUMPDEST PUSH2 0x389A DUP5 DUP3 DUP6 ADD PUSH2 0x305F JUMP JUMPDEST PUSH1 0x60 DUP4 ADD MSTORE POP SWAP3 SWAP2 POP POP JUMP JUMPDEST PUSH0 PUSH1 0x60 DUP3 DUP5 SUB SLT ISZERO PUSH2 0x38BB JUMPI PUSH2 0x38BA PUSH2 0x1D8E JUMP JUMPDEST JUMPDEST PUSH2 0x38C5 PUSH1 0x60 PUSH2 0x1C01 JUMP JUMPDEST SWAP1 POP PUSH0 DUP3 ADD MLOAD PUSH8 0xFFFFFFFFFFFFFFFF DUP2 GT ISZERO PUSH2 0x38E4 JUMPI PUSH2 0x38E3 PUSH2 0x1D92 JUMP JUMPDEST JUMPDEST PUSH2 0x38F0 DUP5 DUP3 DUP6 ADD PUSH2 0x305F JUMP JUMPDEST PUSH0 DUP4 ADD MSTORE POP PUSH1 0x20 DUP3 ADD MLOAD PUSH8 0xFFFFFFFFFFFFFFFF DUP2 GT ISZERO PUSH2 0x3913 JUMPI PUSH2 0x3912 PUSH2 0x1D92 JUMP JUMPDEST JUMPDEST PUSH2 0x391F DUP5 DUP3 DUP6 ADD PUSH2 0x305F JUMP JUMPDEST PUSH1 0x20 DUP4 ADD MSTORE POP PUSH1 0x40 DUP3 ADD MLOAD PUSH8 0xFFFFFFFFFFFFFFFF DUP2 GT ISZERO PUSH2 0x3943 JUMPI PUSH2 0x3942 PUSH2 0x1D92 JUMP JUMPDEST JUMPDEST PUSH2 0x394F DUP5 DUP3 DUP6 ADD PUSH2 0x305F JUMP JUMPDEST PUSH1 0x40 DUP4 ADD MSTORE POP SWAP3 SWAP2 POP POP JUMP JUMPDEST PUSH0 PUSH1 0x40 DUP3 DUP5 SUB SLT ISZERO PUSH2 0x3970 JUMPI PUSH2 0x396F PUSH2 0x1D8E JUMP JUMPDEST JUMPDEST PUSH2 0x397A PUSH1 0x40 PUSH2 0x1C01 JUMP JUMPDEST SWAP1 POP PUSH0 DUP3 ADD MLOAD PUSH8 0xFFFFFFFFFFFFFFFF DUP2 GT ISZERO PUSH2 0x3999 JUMPI PUSH2 0x3998 PUSH2 0x1D92 JUMP JUMPDEST JUMPDEST PUSH2 0x39A5 DUP5 DUP3 DUP6 ADD PUSH2 0x305F JUMP JUMPDEST PUSH0 DUP4 ADD MSTORE POP PUSH1 0x20 DUP3 ADD MLOAD PUSH8 0xFFFFFFFFFFFFFFFF DUP2 GT ISZERO PUSH2 0x39C8 JUMPI PUSH2 0x39C7 PUSH2 0x1D92 JUMP JUMPDEST JUMPDEST PUSH2 0x39D4 DUP5 DUP3 DUP6 ADD PUSH2 0x305F JUMP JUMPDEST PUSH1 0x20 DUP4 ADD MSTORE POP SWAP3 SWAP2 POP POP JUMP JUMPDEST PUSH0 DUP1 PUSH0 PUSH1 0x60 DUP5 DUP7 SUB SLT ISZERO PUSH2 0x39F7 JUMPI PUSH2 0x39F6 PUSH2 0x1B83 JUMP JUMPDEST JUMPDEST PUSH0 DUP5 ADD MLOAD PUSH8 0xFFFFFFFFFFFFFFFF DUP2 GT ISZERO PUSH2 0x3A14 JUMPI PUSH2 0x3A13 PUSH2 0x1B87 JUMP JUMPDEST JUMPDEST PUSH2 0x3A20 DUP7 DUP3 DUP8 ADD PUSH2 0x37DD JUMP JUMPDEST SWAP4 POP POP PUSH1 0x20 DUP5 ADD MLOAD PUSH8 0xFFFFFFFFFFFFFFFF DUP2 GT ISZERO PUSH2 0x3A41 JUMPI PUSH2 0x3A40 PUSH2 0x1B87 JUMP JUMPDEST JUMPDEST PUSH2 0x3A4D DUP7 DUP3 DUP8 ADD PUSH2 0x38A6 JUMP JUMPDEST SWAP3 POP POP PUSH1 0x40 DUP5 ADD MLOAD PUSH8 0xFFFFFFFFFFFFFFFF DUP2 GT ISZERO PUSH2 0x3A6E JUMPI PUSH2 0x3A6D PUSH2 0x1B87 JUMP JUMPDEST JUMPDEST PUSH2 0x3A7A DUP7 DUP3 DUP8 ADD PUSH2 0x395B JUMP JUMPDEST SWAP2 POP POP SWAP3 POP SWAP3 POP SWAP3 JUMP JUMPDEST PUSH2 0x3A8D DUP2 PUSH2 0x265C JUMP JUMPDEST DUP2 EQ PUSH2 0x3A97 JUMPI PUSH0 DUP1 REVERT JUMPDEST POP JUMP JUMPDEST PUSH0 DUP2 MLOAD SWAP1 POP PUSH2 0x3AA8 DUP2 PUSH2 0x3A84 JUMP JUMPDEST SWAP3 SWAP2 POP POP JUMP JUMPDEST PUSH0 DUP2 MLOAD SWAP1 POP PUSH2 0x3ABC DUP2 PUSH2 0x1DA7 JUMP JUMPDEST SWAP3 SWAP2 POP POP JUMP JUMPDEST PUSH0 PUSH1 0x60 DUP3 DUP5 SUB SLT ISZERO PUSH2 0x3AD7 JUMPI PUSH2 0x3AD6 PUSH2 0x1D8E JUMP JUMPDEST JUMPDEST PUSH2 0x3AE1 PUSH1 0x60 PUSH2 0x1C01 JUMP JUMPDEST SWAP1 POP PUSH0 DUP3 ADD MLOAD PUSH8 0xFFFFFFFFFFFFFFFF DUP2 GT ISZERO PUSH2 0x3B00 JUMPI PUSH2 0x3AFF PUSH2 0x1D92 JUMP JUMPDEST JUMPDEST PUSH2 0x3B0C DUP5 DUP3 DUP6 ADD PUSH2 0x305F JUMP JUMPDEST PUSH0 DUP4 ADD MSTORE POP PUSH1 0x20 DUP3 ADD MLOAD PUSH8 0xFFFFFFFFFFFFFFFF DUP2 GT ISZERO PUSH2 0x3B2F JUMPI PUSH2 0x3B2E PUSH2 0x1D92 JUMP JUMPDEST JUMPDEST PUSH2 0x3B3B DUP5 DUP3 DUP6 ADD PUSH2 0x305F JUMP JUMPDEST PUSH1 0x20 DUP4 ADD MSTORE POP PUSH1 0x40 PUSH2 0x3B4F DUP5 DUP3 DUP6 ADD PUSH2 0x3AAE JUMP JUMPDEST PUSH1 0x40 DUP4 ADD MSTORE POP SWAP3 SWAP2 POP POP JUMP JUMPDEST PUSH0 PUSH2 0x100 DUP3 DUP5 SUB SLT ISZERO PUSH2 0x3B71 JUMPI PUSH2 0x3B70 PUSH2 0x1D8E JUMP JUMPDEST JUMPDEST PUSH2 0x3B7C PUSH2 0x100 PUSH2 0x1C01 JUMP JUMPDEST SWAP1 POP PUSH0 PUSH2 0x3B8B DUP5 DUP3 DUP6 ADD PUSH2 0x35C2 JUMP JUMPDEST PUSH0 DUP4 ADD MSTORE POP PUSH1 0x20 PUSH2 0x3B9E DUP5 DUP3 DUP6 ADD PUSH2 0x3A9A JUMP JUMPDEST PUSH1 0x20 DUP4 ADD MSTORE POP PUSH1 0x40 PUSH2 0x3BB2 DUP5 DUP3 DUP6 ADD PUSH2 0x3A9A JUMP JUMPDEST PUSH1 0x40 DUP4 ADD MSTORE POP PUSH1 0x60 PUSH2 0x3BC6 DUP5 DUP3 DUP6 ADD PUSH2 0x3A9A JUMP JUMPDEST PUSH1 0x60 DUP4 ADD MSTORE POP PUSH1 0x80 PUSH2 0x3BDA DUP5 DUP3 DUP6 ADD PUSH2 0x3A9A JUMP JUMPDEST PUSH1 0x80 DUP4 ADD MSTORE POP PUSH1 0xA0 DUP3 ADD MLOAD PUSH8 0xFFFFFFFFFFFFFFFF DUP2 GT ISZERO PUSH2 0x3BFE JUMPI PUSH2 0x3BFD PUSH2 0x1D92 JUMP JUMPDEST JUMPDEST PUSH2 0x3C0A DUP5 DUP3 DUP6 ADD PUSH2 0x3AC2 JUMP JUMPDEST PUSH1 0xA0 DUP4 ADD MSTORE POP PUSH1 0xC0 DUP3 ADD MLOAD PUSH8 0xFFFFFFFFFFFFFFFF DUP2 GT ISZERO PUSH2 0x3C2E JUMPI PUSH2 0x3C2D PUSH2 0x1D92 JUMP JUMPDEST JUMPDEST PUSH2 0x3C3A DUP5 DUP3 DUP6 ADD PUSH2 0x3AC2 JUMP JUMPDEST PUSH1 0xC0 DUP4 ADD MSTORE POP PUSH1 0xE0 DUP3 ADD MLOAD PUSH8 0xFFFFFFFFFFFFFFFF DUP2 GT ISZERO PUSH2 0x3C5E JUMPI PUSH2 0x3C5D PUSH2 0x1D92 JUMP JUMPDEST JUMPDEST PUSH2 0x3C6A DUP5 DUP3 DUP6 ADD PUSH2 0x305F JUMP JUMPDEST PUSH1 0xE0 DUP4 ADD MSTORE POP SWAP3 SWAP2 POP POP JUMP JUMPDEST PUSH0 PUSH1 0x20 DUP3 DUP5 SUB SLT ISZERO PUSH2 0x3C8B JUMPI PUSH2 0x3C8A PUSH2 0x1B83 JUMP JUMPDEST JUMPDEST PUSH0 DUP3 ADD MLOAD PUSH8 0xFFFFFFFFFFFFFFFF DUP2 GT ISZERO PUSH2 0x3CA8 JUMPI PUSH2 0x3CA7 PUSH2 0x1B87 JUMP JUMPDEST JUMPDEST PUSH2 0x3CB4 DUP5 DUP3 DUP6 ADD PUSH2 0x3B5B JUMP JUMPDEST SWAP2 POP POP SWAP3 SWAP2 POP POP JUMP JUMPDEST PUSH0 PUSH1 0x60 DUP3 DUP5 SUB SLT ISZERO PUSH2 0x3CD2 JUMPI PUSH2 0x3CD1 PUSH2 0x1D8E JUMP JUMPDEST JUMPDEST PUSH2 0x3CDC PUSH1 0x60 PUSH2 0x1C01 JUMP JUMPDEST SWAP1 POP PUSH0 DUP3 ADD MLOAD PUSH8 0xFFFFFFFFFFFFFFFF DUP2 GT ISZERO PUSH2 0x3CFB JUMPI PUSH2 0x3CFA PUSH2 0x1D92 JUMP JUMPDEST JUMPDEST PUSH2 0x3D07 DUP5 DUP3 DUP6 ADD PUSH2 0x305F JUMP JUMPDEST PUSH0 DUP4 ADD MSTORE POP PUSH1 0x20 DUP3 ADD MLOAD PUSH8 0xFFFFFFFFFFFFFFFF DUP2 GT ISZERO PUSH2 0x3D2A JUMPI PUSH2 0x3D29 PUSH2 0x1D92 JUMP JUMPDEST JUMPDEST PUSH2 0x3D36 DUP5 DUP3 DUP6 ADD PUSH2 0x305F JUMP JUMPDEST PUSH1 0x20 DUP4 ADD MSTORE POP PUSH1 0x40 PUSH2 0x3D4A DUP5 DUP3 DUP6 ADD PUSH2 0x359F JUMP JUMPDEST PUSH1 0x40 DUP4 ADD MSTORE POP SWAP3 SWAP2 POP POP JUMP JUMPDEST PUSH0 PUSH1 0x40 DUP3 DUP5 SUB SLT ISZERO PUSH2 0x3D6B JUMPI PUSH2 0x3D6A PUSH2 0x1D8E JUMP JUMPDEST JUMPDEST PUSH2 0x3D75 PUSH1 0x40 PUSH2 0x1C01 JUMP JUMPDEST SWAP1 POP PUSH0 DUP3 ADD MLOAD PUSH8 0xFFFFFFFFFFFFFFFF DUP2 GT ISZERO PUSH2 0x3D94 JUMPI PUSH2 0x3D93 PUSH2 0x1D92 JUMP JUMPDEST JUMPDEST PUSH2 0x3DA0 DUP5 DUP3 DUP6 ADD PUSH2 0x305F JUMP JUMPDEST PUSH0 DUP4 ADD MSTORE POP PUSH1 0x20 DUP3 ADD MLOAD PUSH8 0xFFFFFFFFFFFFFFFF DUP2 GT ISZERO PUSH2 0x3DC3 JUMPI PUSH2 0x3DC2 PUSH2 0x1D92 JUMP JUMPDEST JUMPDEST PUSH2 0x3DCF DUP5 DUP3 DUP6 ADD PUSH2 0x305F JUMP JUMPDEST PUSH1 0x20 DUP4 ADD MSTORE POP SWAP3 SWAP2 POP POP JUMP JUMPDEST PUSH0 PUSH2 0x100 DUP3 DUP5 SUB SLT ISZERO PUSH2 0x3DF1 JUMPI PUSH2 0x3DF0 PUSH2 0x1D8E JUMP JUMPDEST JUMPDEST PUSH2 0x3DFC PUSH2 0x100 PUSH2 0x1C01 JUMP JUMPDEST SWAP1 POP PUSH0 DUP3 ADD MLOAD PUSH8 0xFFFFFFFFFFFFFFFF DUP2 GT ISZERO PUSH2 0x3E1B JUMPI PUSH2 0x3E1A PUSH2 0x1D92 JUMP JUMPDEST JUMPDEST PUSH2 0x3E27 DUP5 DUP3 DUP6 ADD PUSH2 0x305F JUMP JUMPDEST PUSH0 DUP4 ADD MSTORE POP PUSH1 0x20 DUP3 ADD MLOAD PUSH8 0xFFFFFFFFFFFFFFFF DUP2 GT ISZERO PUSH2 0x3E4A JUMPI PUSH2 0x3E49 PUSH2 0x1D92 JUMP JUMPDEST JUMPDEST PUSH2 0x3E56 DUP5 DUP3 DUP6 ADD PUSH2 0x305F JUMP JUMPDEST PUSH1 0x20 DUP4 ADD MSTORE POP PUSH1 0x40 DUP3 ADD MLOAD PUSH8 0xFFFFFFFFFFFFFFFF DUP2 GT ISZERO PUSH2 0x3E7A JUMPI PUSH2 0x3E79 PUSH2 0x1D92 JUMP JUMPDEST JUMPDEST PUSH2 0x3E86 DUP5 DUP3 DUP6 ADD PUSH2 0x305F JUMP JUMPDEST PUSH1 0x40 DUP4 ADD MSTORE POP PUSH1 0x60 DUP3 ADD MLOAD PUSH8 0xFFFFFFFFFFFFFFFF DUP2 GT ISZERO PUSH2 0x3EAA JUMPI PUSH2 0x3EA9 PUSH2 0x1D92 JUMP JUMPDEST JUMPDEST PUSH2 0x3EB6 DUP5 DUP3 DUP6 ADD PUSH2 0x305F JUMP JUMPDEST PUSH1 0x60 DUP4 ADD MSTORE POP PUSH1 0x80 DUP3 ADD MLOAD PUSH8 0xFFFFFFFFFFFFFFFF DUP2 GT ISZERO PUSH2 0x3EDA JUMPI PUSH2 0x3ED9 PUSH2 0x1D92 JUMP JUMPDEST JUMPDEST PUSH2 0x3EE6 DUP5 DUP3 DUP6 ADD PUSH2 0x305F JUMP JUMPDEST PUSH1 0x80 DUP4 ADD MSTORE POP PUSH1 0xA0 DUP3 ADD MLOAD PUSH8 0xFFFFFFFFFFFFFFFF DUP2 GT ISZERO PUSH2 0x3F0A JUMPI PUSH2 0x3F09 PUSH2 0x1D92 JUMP JUMPDEST JUMPDEST PUSH2 0x3F16 DUP5 DUP3 DUP6 ADD PUSH2 0x305F JUMP JUMPDEST PUSH1 0xA0 DUP4 ADD MSTORE POP PUSH1 0xC0 DUP3 ADD MLOAD PUSH8 0xFFFFFFFFFFFFFFFF DUP2 GT ISZERO PUSH2 0x3F3A JUMPI PUSH2 0x3F39 PUSH2 0x1D92 JUMP JUMPDEST JUMPDEST PUSH2 0x3F46 DUP5 DUP3 DUP6 ADD PUSH2 0x305F JUMP JUMPDEST PUSH1 0xC0 DUP4 ADD MSTORE POP PUSH1 0xE0 DUP3 ADD MLOAD PUSH8 0xFFFFFFFFFFFFFFFF DUP2 GT ISZERO PUSH2 0x3F6A JUMPI PUSH2 0x3F69 PUSH2 0x1D92 JUMP JUMPDEST JUMPDEST PUSH2 0x3F76 DUP5 DUP3 DUP6 ADD PUSH2 0x305F JUMP JUMPDEST PUSH1 0xE0 DUP4 ADD MSTORE POP SWAP3 SWAP2 POP POP JUMP JUMPDEST PUSH0 DUP1 PUSH0 PUSH1 0x60 DUP5 DUP7 SUB SLT ISZERO PUSH2 0x3F99 JUMPI PUSH2 0x3F98 PUSH2 0x1B83 JUMP JUMPDEST JUMPDEST PUSH0 DUP5 ADD MLOAD PUSH8 0xFFFFFFFFFFFFFFFF DUP2 GT ISZERO PUSH2 0x3FB6 JUMPI PUSH2 0x3FB5 PUSH2 0x1B87 JUMP JUMPDEST JUMPDEST PUSH2 0x3FC2 DUP7 DUP3 DUP8 ADD PUSH2 0x3CBD JUMP JUMPDEST SWAP4 POP POP PUSH1 0x20 DUP5 ADD MLOAD PUSH8 0xFFFFFFFFFFFFFFFF DUP2 GT ISZERO PUSH2 0x3FE3 JUMPI PUSH2 0x3FE2 PUSH2 0x1B87 JUMP JUMPDEST JUMPDEST PUSH2 0x3FEF DUP7 DUP3 DUP8 ADD PUSH2 0x3D56 JUMP JUMPDEST SWAP3 POP POP PUSH1 0x40 DUP5 ADD MLOAD PUSH8 0xFFFFFFFFFFFFFFFF DUP2 GT ISZERO PUSH2 0x4010 JUMPI PUSH2 0x400F PUSH2 0x1B87 JUMP JUMPDEST JUMPDEST PUSH2 0x401C DUP7 DUP3 DUP8 ADD PUSH2 0x3DDB JUMP JUMPDEST SWAP2 POP POP SWAP3 POP SWAP3 POP SWAP3 JUMP JUMPDEST PUSH32 0x4F6E6C7920466163746F72792063616E20646F2074686973207472616E736163 PUSH0 DUP3 ADD MSTORE PUSH32 0x74696F6E21000000000000000000000000000000000000000000000000000000 PUSH1 0x20 DUP3 ADD MSTORE POP JUMP JUMPDEST PUSH0 PUSH2 0x4080 PUSH1 0x25 DUP4 PUSH2 0x1D18 JUMP JUMPDEST SWAP2 POP PUSH2 0x408B DUP3 PUSH2 0x4026 JUMP JUMPDEST PUSH1 0x40 DUP3 ADD SWAP1 POP SWAP2 SWAP1 POP JUMP JUMPDEST PUSH0 PUSH1 0x20 DUP3 ADD SWAP1 POP DUP2 DUP2 SUB PUSH0 DUP4 ADD MSTORE PUSH2 0x40AD DUP2 PUSH2 0x4074 JUMP JUMPDEST SWAP1 POP SWAP2 SWAP1 POP JUMP JUMPDEST PUSH0 PUSH2 0x100 DUP3 ADD SWAP1 POP DUP2 DUP2 SUB PUSH0 DUP4 ADD MSTORE PUSH2 0x40CD DUP2 DUP12 PUSH2 0x1D36 JUMP JUMPDEST SWAP1 POP DUP2 DUP2 SUB PUSH1 0x20 DUP4 ADD MSTORE PUSH2 0x40E1 DUP2 DUP11 PUSH2 0x1D36 JUMP JUMPDEST SWAP1 POP DUP2 DUP2 SUB PUSH1 0x40 DUP4 ADD MSTORE PUSH2 0x40F5 DUP2 DUP10 PUSH2 0x1D36 JUMP JUMPDEST SWAP1 POP PUSH2 0x4104 PUSH1 0x60 DUP4 ADD DUP9 PUSH2 0x30D3 JUMP JUMPDEST PUSH2 0x4111 PUSH1 0x80 DUP4 ADD DUP8 PUSH2 0x323D JUMP JUMPDEST DUP2 DUP2 SUB PUSH1 0xA0 DUP4 ADD MSTORE PUSH2 0x4123 DUP2 DUP7 PUSH2 0x1D36 JUMP JUMPDEST SWAP1 POP DUP2 DUP2 SUB PUSH1 0xC0 DUP4 ADD MSTORE PUSH2 0x4137 DUP2 DUP6 PUSH2 0x2800 JUMP JUMPDEST SWAP1 POP DUP2 DUP2 SUB PUSH1 0xE0 DUP4 ADD MSTORE PUSH2 0x414B DUP2 DUP5 PUSH2 0x285B JUMP JUMPDEST SWAP1 POP SWAP10 SWAP9 POP POP POP POP POP POP POP POP POP JUMP JUMPDEST PUSH0 PUSH1 0x60 DUP3 ADD SWAP1 POP DUP2 DUP2 SUB PUSH0 DUP4 ADD MSTORE PUSH2 0x4172 DUP2 DUP7 PUSH2 0x1D36 JUMP JUMPDEST SWAP1 POP DUP2 DUP2 SUB PUSH1 0x20 DUP4 ADD MSTORE PUSH2 0x4186 DUP2 DUP6 PUSH2 0x294F JUMP JUMPDEST SWAP1 POP DUP2 DUP2 SUB PUSH1 0x40 DUP4 ADD MSTORE PUSH2 0x419A DUP2 DUP5 PUSH2 0x2990 JUMP JUMPDEST SWAP1 POP SWAP5 SWAP4 POP POP POP POP JUMP JUMPDEST PUSH0 PUSH1 0x60 DUP3 ADD SWAP1 POP DUP2 DUP2 SUB PUSH0 DUP4 ADD MSTORE PUSH2 0x41BC DUP2 DUP7 PUSH2 0x1D36 JUMP JUMPDEST SWAP1 POP PUSH2 0x41CB PUSH1 0x20 DUP4 ADD DUP6 PUSH2 0x30D3 JUMP JUMPDEST PUSH2 0x41D8 PUSH1 0x40 DUP4 ADD DUP5 PUSH2 0x32DC JUMP JUMPDEST SWAP5 SWAP4 POP POP POP POP JUMP JUMPDEST PUSH0 PUSH1 0x60 DUP3 ADD SWAP1 POP DUP2 DUP2 SUB PUSH0 DUP4 ADD MSTORE PUSH2 0x41F8 DUP2 DUP7 PUSH2 0x1D36 JUMP JUMPDEST SWAP1 POP DUP2 DUP2 SUB PUSH1 0x20 DUP4 ADD MSTORE PUSH2 0x420C DUP2 DUP6 PUSH2 0x2800 JUMP JUMPDEST SWAP1 POP DUP2 DUP2 SUB PUSH1 0x40 DUP4 ADD MSTORE PUSH2 0x4220 DUP2 DUP5 PUSH2 0x285B JUMP JUMPDEST SWAP1 POP SWAP5 SWAP4 POP POP POP POP JUMP JUMPDEST PUSH0 PUSH8 0xFFFFFFFFFFFFFFFF DUP3 GT ISZERO PUSH2 0x4244 JUMPI PUSH2 0x4243 PUSH2 0x1BA3 JUMP JUMPDEST JUMPDEST PUSH1 0x20 DUP3 MUL SWAP1 POP PUSH1 0x20 DUP2 ADD SWAP1 POP SWAP2 SWAP1 POP JUMP JUMPDEST PUSH0 PUSH1 0xC0 DUP3 DUP5 SUB SLT ISZERO PUSH2 0x426A JUMPI PUSH2 0x4269 PUSH2 0x1D8E JUMP JUMPDEST JUMPDEST PUSH2 0x4274 PUSH1 0xC0 PUSH2 0x1C01 JUMP JUMPDEST SWAP1 POP PUSH0 DUP3 ADD MLOAD PUSH8 0xFFFFFFFFFFFFFFFF DUP2 GT ISZERO PUSH2 0x4293 JUMPI PUSH2 0x4292 PUSH2 0x1D92 JUMP JUMPDEST JUMPDEST PUSH2 0x429F DUP5 DUP3 DUP6 ADD PUSH2 0x305F JUMP JUMPDEST PUSH0 DUP4 ADD MSTORE POP PUSH1 0x20 DUP3 ADD MLOAD PUSH8 0xFFFFFFFFFFFFFFFF DUP2 GT ISZERO PUSH2 0x42C2 JUMPI PUSH2 0x42C1 PUSH2 0x1D92 JUMP JUMPDEST JUMPDEST PUSH2 0x42CE DUP5 DUP3 DUP6 ADD PUSH2 0x305F JUMP JUMPDEST PUSH1 0x20 DUP4 ADD MSTORE POP PUSH1 0x40 DUP3 ADD MLOAD PUSH8 0xFFFFFFFFFFFFFFFF DUP2 GT ISZERO PUSH2 0x42F2 JUMPI PUSH2 0x42F1 PUSH2 0x1D92 JUMP JUMPDEST JUMPDEST PUSH2 0x42FE DUP5 DUP3 DUP6 ADD PUSH2 0x305F JUMP JUMPDEST PUSH1 0x40 DUP4 ADD MSTORE POP PUSH1 0x60 PUSH2 0x4312 DUP5 DUP3 DUP6 ADD PUSH2 0x359F JUMP JUMPDEST PUSH1 0x60 DUP4 ADD MSTORE POP PUSH1 0x80 PUSH2 0x4326 DUP5 DUP3 DUP6 ADD PUSH2 0x35C2 JUMP JUMPDEST PUSH1 0x80 DUP4 ADD MSTORE POP PUSH1 0xA0 DUP3 ADD MLOAD PUSH8 0xFFFFFFFFFFFFFFFF DUP2 GT ISZERO PUSH2 0x434A JUMPI PUSH2 0x4349 PUSH2 0x1D92 JUMP JUMPDEST JUMPDEST PUSH2 0x4356 DUP5 DUP3 DUP6 ADD PUSH2 0x305F JUMP JUMPDEST PUSH1 0xA0 DUP4 ADD MSTORE POP SWAP3 SWAP2 POP POP JUMP JUMPDEST PUSH0 PUSH2 0x4374 PUSH2 0x436F DUP5 PUSH2 0x422A JUMP JUMPDEST PUSH2 0x1C01 JUMP JUMPDEST SWAP1 POP DUP1 DUP4 DUP3 MSTORE PUSH1 0x20 DUP3 ADD SWAP1 POP PUSH1 0x20 DUP5 MUL DUP4 ADD DUP6 DUP2 GT ISZERO PUSH2 0x4397 JUMPI PUSH2 0x4396 PUSH2 0x359B JUMP JUMPDEST JUMPDEST DUP4 JUMPDEST DUP2 DUP2 LT ISZERO PUSH2 0x43DE JUMPI DUP1 MLOAD PUSH8 0xFFFFFFFFFFFFFFFF DUP2 GT ISZERO PUSH2 0x43BC JUMPI PUSH2 0x43BB PUSH2 0x1B8B JUMP JUMPDEST JUMPDEST DUP1 DUP7 ADD PUSH2 0x43C9 DUP10 DUP3 PUSH2 0x4255 JUMP JUMPDEST DUP6 MSTORE PUSH1 0x20 DUP6 ADD SWAP5 POP POP POP PUSH1 0x20 DUP2 ADD SWAP1 POP PUSH2 0x4399 JUMP JUMPDEST POP POP POP SWAP4 SWAP3 POP POP POP JUMP JUMPDEST PUSH0 DUP3 PUSH1 0x1F DUP4 ADD SLT PUSH2 0x43FC JUMPI PUSH2 0x43FB PUSH2 0x1B8B JUMP JUMPDEST JUMPDEST DUP2 MLOAD PUSH2 0x440C DUP5 DUP3 PUSH1 0x20 DUP7 ADD PUSH2 0x4362 JUMP JUMPDEST SWAP2 POP POP SWAP3 SWAP2 POP POP JUMP JUMPDEST PUSH0 PUSH1 0x20 DUP3 DUP5 SUB SLT ISZERO PUSH2 0x442A JUMPI PUSH2 0x4429 PUSH2 0x1B83 JUMP JUMPDEST JUMPDEST PUSH0 DUP3 ADD MLOAD PUSH8 0xFFFFFFFFFFFFFFFF DUP2 GT ISZERO PUSH2 0x4447 JUMPI PUSH2 0x4446 PUSH2 0x1B87 JUMP JUMPDEST JUMPDEST PUSH2 0x4453 DUP5 DUP3 DUP6 ADD PUSH2 0x43E8 JUMP JUMPDEST SWAP2 POP POP SWAP3 SWAP2 POP POP JUMP INVALID LOG2 PUSH5 0x6970667358 0x22 SLT KECCAK256 0xC5 0xCD CALLVALUE STATICCALL 0xAC SWAP14 SWAP12 PUSH21 0xC07FFF3A6CA84A8B9FD9014282695324A5EE4C559A 0xBF CALLCODE 0xDA PUSH5 0x736F6C6343 STOP ADDMOD BYTE STOP CALLER "
		},
		"gasEstimates": {
			"creation": {
				"codeDepositCost": "3510800",
				"executionCost": "infinite",
				"totalCost": "infinite"
			},
			"external": {
				"approveCdob((string,string,string,string,address),string,uint8)": "infinite",
				"approveCpotb((string,string,string,string,address),string,uint8)": "infinite",
				"cdobCertificate()": "infinite",
				"cpotbCertificate()": "infinite",
				"getAllCdob()": "infinite",
				"getAllCpotb()": "infinite",
				"getCdobByInstance(string)": "infinite",
				"getCdobDetails(string)": "infinite",
				"getCpotbByInstance(string)": "infinite",
				"getCpotbDetails(string)": "infinite",
				"getRejectMsgCdob(string)": "infinite",
				"getRejectMsgCpotb(string)": "infinite",
				"rejectCdob(string,string,string,string,uint8)": "infinite",
				"rejectCpotb(string,string,string,string,uint8)": "infinite",
				"renewCdob((string,string,string,address),(string,string),(string,string,string,string,string,string,string,string))": "infinite",
				"renewCpotb((string,string,string,address),(string,string,string),(string,string))": "infinite",
				"requestCdob((string,string,string,address),uint8,(string,string),(string,string,string,string,string,string,string,string))": "infinite",
				"requestCpotb((string,string,string,address),uint8,string,(string,string,string),(string,string))": "infinite",
				"roleManager()": "infinite"
			}
		},
		"methodIdentifiers": {
			"approveCdob((string,string,string,string,address),string,uint8)": "2dbcaf0f",
			"approveCpotb((string,string,string,string,address),string,uint8)": "4e03317b",
			"cdobCertificate()": "af3a1758",
			"cpotbCertificate()": "d369111d",
			"getAllCdob()": "f14261d2",
			"getAllCpotb()": "5850607c",
			"getCdobByInstance(string)": "d0927b19",
			"getCdobDetails(string)": "7e8f8da7",
			"getCpotbByInstance(string)": "51c2d326",
			"getCpotbDetails(string)": "70c056b0",
			"getRejectMsgCdob(string)": "17d96797",
			"getRejectMsgCpotb(string)": "1a898044",
			"rejectCdob(string,string,string,string,uint8)": "41ee1495",
			"rejectCpotb(string,string,string,string,uint8)": "9c0abfd8",
			"renewCdob((string,string,string,address),(string,string),(string,string,string,string,string,string,string,string))": "bbd0b8a9",
			"renewCpotb((string,string,string,address),(string,string,string),(string,string))": "cb43b77f",
			"requestCdob((string,string,string,address),uint8,(string,string),(string,string,string,string,string,string,string,string))": "1d430349",
			"requestCpotb((string,string,string,address),uint8,string,(string,string,string),(string,string))": "87fecd3e",
			"roleManager()": "00435da5"
		}
	},
	"abi": [
		{
			"inputs": [
				{
					"internalType": "address",
					"name": "roleManagerAddr",
					"type": "address"
				},
				{
					"internalType": "address",
					"name": "cpotbCertificateAddr",
					"type": "address"
				},
				{
					"internalType": "address",
					"name": "cdobCertificateAddr",
					"type": "address"
				}
			],
			"stateMutability": "nonpayable",
			"type": "constructor"
		},
		{
			"inputs": [],
			"name": "ReentrancyGuardReentrantCall",
			"type": "error"
		},
		{
			"anonymous": false,
			"inputs": [
				{
					"indexed": false,
					"internalType": "string",
					"name": "bpomInstance",
					"type": "string"
				},
				{
					"indexed": false,
					"internalType": "address",
					"name": "bpomAddr",
					"type": "address"
				},
				{
					"indexed": false,
					"internalType": "uint8",
					"name": "tipePermohonan",
					"type": "uint8"
				},
				{
					"indexed": false,
					"internalType": "string",
					"name": "certNumber",
					"type": "string"
				},
				{
					"indexed": false,
					"internalType": "uint256",
					"name": "timestamp",
					"type": "uint256"
				}
			],
			"name": "CertApproved",
			"type": "event"
		},
		{
			"anonymous": false,
			"inputs": [
				{
					"indexed": false,
					"internalType": "string",
					"name": "bpomInstance",
					"type": "string"
				},
				{
					"indexed": false,
					"internalType": "address",
					"name": "bpomAddr",
					"type": "address"
				},
				{
					"indexed": false,
					"internalType": "uint8",
					"name": "tipePermohonan",
					"type": "uint8"
				},
				{
					"indexed": false,
					"internalType": "uint256",
					"name": "timestamp",
					"type": "uint256"
				},
				{
					"indexed": false,
					"internalType": "string",
					"name": "rejectMsg",
					"type": "string"
				}
			],
			"name": "CertRejected",
			"type": "event"
		},
		{
			"anonymous": false,
			"inputs": [
				{
					"indexed": false,
					"internalType": "string",
					"name": "senderInstance",
					"type": "string"
				},
				{
					"indexed": false,
					"internalType": "address",
					"name": "senderAddr",
					"type": "address"
				},
				{
					"indexed": false,
					"internalType": "uint256",
					"name": "timestamp",
					"type": "uint256"
				}
			],
			"name": "CertRenewRequest",
			"type": "event"
		},
		{
			"anonymous": false,
			"inputs": [
				{
					"indexed": false,
					"internalType": "string",
					"name": "senderInstance",
					"type": "string"
				},
				{
					"indexed": false,
					"internalType": "address",
					"name": "senderAddr",
					"type": "address"
				},
				{
					"indexed": false,
					"internalType": "uint8",
					"name": "tipePermohonan",
					"type": "uint8"
				},
				{
					"indexed": false,
					"internalType": "uint256",
					"name": "timestamp",
					"type": "uint256"
				}
			],
			"name": "CertRequested",
			"type": "event"
		},
		{
			"inputs": [
				{
					"components": [
						{
							"internalType": "string",
							"name": "certNumber",
							"type": "string"
						},
						{
							"internalType": "string",
							"name": "certId",
							"type": "string"
						},
						{
							"internalType": "string",
							"name": "bpomName",
							"type": "string"
						},
						{
							"internalType": "string",
							"name": "bpomInstance",
							"type": "string"
						},
						{
							"internalType": "address",
							"name": "bpomAddr",
							"type": "address"
						}
					],
					"internalType": "struct CertificateManager.CertificateApproval",
					"name": "approveData",
					"type": "tuple"
				},
				{
					"internalType": "string",
					"name": "ipfsCert",
					"type": "string"
				},
				{
					"internalType": "uint8",
					"name": "tipePermohonan",
					"type": "uint8"
				}
			],
			"name": "approveCdob",
			"outputs": [],
			"stateMutability": "nonpayable",
			"type": "function"
		},
		{
			"inputs": [
				{
					"components": [
						{
							"internalType": "string",
							"name": "certNumber",
							"type": "string"
						},
						{
							"internalType": "string",
							"name": "certId",
							"type": "string"
						},
						{
							"internalType": "string",
							"name": "bpomName",
							"type": "string"
						},
						{
							"internalType": "string",
							"name": "bpomInstance",
							"type": "string"
						},
						{
							"internalType": "address",
							"name": "bpomAddr",
							"type": "address"
						}
					],
					"internalType": "struct CertificateManager.CertificateApproval",
					"name": "approveData",
					"type": "tuple"
				},
				{
					"internalType": "string",
					"name": "ipfsCert",
					"type": "string"
				},
				{
					"internalType": "uint8",
					"name": "jenisSediaan",
					"type": "uint8"
				}
			],
			"name": "approveCpotb",
			"outputs": [],
			"stateMutability": "nonpayable",
			"type": "function"
		},
		{
			"inputs": [],
			"name": "cdobCertificate",
			"outputs": [
				{
					"internalType": "contract CdobCertificate",
					"name": "",
					"type": "address"
				}
			],
			"stateMutability": "view",
			"type": "function"
		},
		{
			"inputs": [],
			"name": "cpotbCertificate",
			"outputs": [
				{
					"internalType": "contract CpotbCertificate",
					"name": "",
					"type": "address"
				}
			],
			"stateMutability": "view",
			"type": "function"
		},
		{
			"inputs": [],
			"name": "getAllCdob",
			"outputs": [
				{
					"components": [
						{
							"internalType": "string",
							"name": "certId",
							"type": "string"
						},
						{
							"internalType": "string",
							"name": "certNumber",
							"type": "string"
						},
						{
							"internalType": "string",
							"name": "instanceName",
							"type": "string"
						},
						{
							"internalType": "uint8",
							"name": "tipePermohonan",
							"type": "uint8"
						},
						{
							"internalType": "enum EnumsLibrary.StatusCertificate",
							"name": "status",
							"type": "uint8"
						},
						{
							"internalType": "string",
							"name": "certHash",
							"type": "string"
						}
					],
					"internalType": "struct CdobCertificate.CertificateList[]",
					"name": "",
					"type": "tuple[]"
				}
			],
			"stateMutability": "view",
			"type": "function"
		},
		{
			"inputs": [],
			"name": "getAllCpotb",
			"outputs": [
				{
					"components": [
						{
							"internalType": "string",
							"name": "certId",
							"type": "string"
						},
						{
							"internalType": "string",
							"name": "certNumber",
							"type": "string"
						},
						{
							"internalType": "string",
							"name": "instanceName",
							"type": "string"
						},
						{
							"internalType": "uint8",
							"name": "tipePermohonan",
							"type": "uint8"
						},
						{
							"internalType": "enum EnumsLibrary.StatusCertificate",
							"name": "status",
							"type": "uint8"
						},
						{
							"internalType": "string",
							"name": "certHash",
							"type": "string"
						}
					],
					"internalType": "struct CpotbCertificate.CertificateList[]",
					"name": "",
					"type": "tuple[]"
				}
			],
			"stateMutability": "view",
			"type": "function"
		},
		{
			"inputs": [
				{
					"internalType": "string",
					"name": "instanceName",
					"type": "string"
				}
			],
			"name": "getCdobByInstance",
			"outputs": [
				{
					"components": [
						{
							"internalType": "string",
							"name": "certId",
							"type": "string"
						},
						{
							"internalType": "string",
							"name": "certNumber",
							"type": "string"
						},
						{
							"internalType": "string",
							"name": "instanceName",
							"type": "string"
						},
						{
							"internalType": "uint8",
							"name": "tipePermohonan",
							"type": "uint8"
						},
						{
							"internalType": "enum EnumsLibrary.StatusCertificate",
							"name": "status",
							"type": "uint8"
						},
						{
							"internalType": "string",
							"name": "certHash",
							"type": "string"
						}
					],
					"internalType": "struct CdobCertificate.CertificateList[]",
					"name": "",
					"type": "tuple[]"
				}
			],
			"stateMutability": "view",
			"type": "function"
		},
		{
			"inputs": [
				{
					"internalType": "string",
					"name": "certId",
					"type": "string"
				}
			],
			"name": "getCdobDetails",
			"outputs": [
				{
					"components": [
						{
							"internalType": "enum EnumsLibrary.StatusCertificate",
							"name": "status",
							"type": "uint8"
						},
						{
							"internalType": "uint256",
							"name": "timestampRequest",
							"type": "uint256"
						},
						{
							"internalType": "uint256",
							"name": "timestampApprove",
							"type": "uint256"
						},
						{
							"internalType": "uint256",
							"name": "timestampRejected",
							"type": "uint256"
						},
						{
							"internalType": "uint256",
							"name": "timestampRenewRequest",
							"type": "uint256"
						},
						{
							"components": [
								{
									"internalType": "string",
									"name": "userName",
									"type": "string"
								},
								{
									"internalType": "string",
									"name": "userInstance",
									"type": "string"
								},
								{
									"internalType": "address",
									"name": "userAddr",
									"type": "address"
								}
							],
							"internalType": "struct BaseCertificate.UserCert",
							"name": "sender",
							"type": "tuple"
						},
						{
							"components": [
								{
									"internalType": "string",
									"name": "userName",
									"type": "string"
								},
								{
									"internalType": "string",
									"name": "userInstance",
									"type": "string"
								},
								{
									"internalType": "address",
									"name": "userAddr",
									"type": "address"
								}
							],
							"internalType": "struct BaseCertificate.UserCert",
							"name": "bpom",
							"type": "tuple"
						},
						{
							"internalType": "string",
							"name": "ipfsCert",
							"type": "string"
						}
					],
					"internalType": "struct BaseCertificate.CertificateDetails",
					"name": "",
					"type": "tuple"
				},
				{
					"components": [
						{
							"internalType": "string",
							"name": "cdobId",
							"type": "string"
						},
						{
							"internalType": "string",
							"name": "cdobNumber",
							"type": "string"
						},
						{
							"internalType": "uint8",
							"name": "tipePermohonan",
							"type": "uint8"
						}
					],
					"internalType": "struct CdobCertificate.CdobData",
					"name": "",
					"type": "tuple"
				},
				{
					"components": [
						{
							"internalType": "string",
							"name": "suratPermohonan",
							"type": "string"
						},
						{
							"internalType": "string",
							"name": "buktiPembayaranPajak",
							"type": "string"
						}
					],
					"internalType": "struct CdobCertificate.DokumenAdministrasi",
					"name": "",
					"type": "tuple"
				},
				{
					"components": [
						{
							"internalType": "string",
							"name": "suratIzinCdob",
							"type": "string"
						},
						{
							"internalType": "string",
							"name": "denahBangunan",
							"type": "string"
						},
						{
							"internalType": "string",
							"name": "strukturOrganisasi",
							"type": "string"
						},
						{
							"internalType": "string",
							"name": "daftarPersonalia",
							"type": "string"
						},
						{
							"internalType": "string",
							"name": "daftarPeralatan",
							"type": "string"
						},
						{
							"internalType": "string",
							"name": "eksekutifQualityManagement",
							"type": "string"
						},
						{
							"internalType": "string",
							"name": "suratIzinApoteker",
							"type": "string"
						},
						{
							"internalType": "string",
							"name": "dokumenSelfAssesment",
							"type": "string"
						}
					],
					"internalType": "struct CdobCertificate.DokumenTeknis",
					"name": "",
					"type": "tuple"
				}
			],
			"stateMutability": "view",
			"type": "function"
		},
		{
			"inputs": [
				{
					"internalType": "string",
					"name": "instanceName",
					"type": "string"
				}
			],
			"name": "getCpotbByInstance",
			"outputs": [
				{
					"components": [
						{
							"internalType": "string",
							"name": "certId",
							"type": "string"
						},
						{
							"internalType": "string",
							"name": "certNumber",
							"type": "string"
						},
						{
							"internalType": "string",
							"name": "instanceName",
							"type": "string"
						},
						{
							"internalType": "uint8",
							"name": "tipePermohonan",
							"type": "uint8"
						},
						{
							"internalType": "enum EnumsLibrary.StatusCertificate",
							"name": "status",
							"type": "uint8"
						},
						{
							"internalType": "string",
							"name": "certHash",
							"type": "string"
						}
					],
					"internalType": "struct CpotbCertificate.CertificateList[]",
					"name": "",
					"type": "tuple[]"
				}
			],
			"stateMutability": "view",
			"type": "function"
		},
		{
			"inputs": [
				{
					"internalType": "string",
					"name": "certId",
					"type": "string"
				}
			],
			"name": "getCpotbDetails",
			"outputs": [
				{
					"components": [
						{
							"internalType": "enum EnumsLibrary.StatusCertificate",
							"name": "status",
							"type": "uint8"
						},
						{
							"internalType": "uint256",
							"name": "timestampRequest",
							"type": "uint256"
						},
						{
							"internalType": "uint256",
							"name": "timestampApprove",
							"type": "uint256"
						},
						{
							"internalType": "uint256",
							"name": "timestampRejected",
							"type": "uint256"
						},
						{
							"internalType": "uint256",
							"name": "timestampRenewRequest",
							"type": "uint256"
						},
						{
							"components": [
								{
									"internalType": "string",
									"name": "userName",
									"type": "string"
								},
								{
									"internalType": "string",
									"name": "userInstance",
									"type": "string"
								},
								{
									"internalType": "address",
									"name": "userAddr",
									"type": "address"
								}
							],
							"internalType": "struct BaseCertificate.UserCert",
							"name": "sender",
							"type": "tuple"
						},
						{
							"components": [
								{
									"internalType": "string",
									"name": "userName",
									"type": "string"
								},
								{
									"internalType": "string",
									"name": "userInstance",
									"type": "string"
								},
								{
									"internalType": "address",
									"name": "userAddr",
									"type": "address"
								}
							],
							"internalType": "struct BaseCertificate.UserCert",
							"name": "bpom",
							"type": "tuple"
						},
						{
							"internalType": "string",
							"name": "ipfsCert",
							"type": "string"
						}
					],
					"internalType": "struct BaseCertificate.CertificateDetails",
					"name": "",
					"type": "tuple"
				},
				{
					"components": [
						{
							"internalType": "string",
							"name": "cpotbId",
							"type": "string"
						},
						{
							"internalType": "string",
							"name": "cpotbNumber",
							"type": "string"
						},
						{
							"internalType": "uint8",
							"name": "tipePermohonan",
							"type": "uint8"
						},
						{
							"internalType": "string",
							"name": "factoryType",
							"type": "string"
						}
					],
					"internalType": "struct CpotbCertificate.CpotbData",
					"name": "",
					"type": "tuple"
				},
				{
					"components": [
						{
							"internalType": "string",
							"name": "suratPermohonan",
							"type": "string"
						},
						{
							"internalType": "string",
							"name": "buktiPembayaranNegaraBukanPajak",
							"type": "string"
						},
						{
							"internalType": "string",
							"name": "suratKomitmen",
							"type": "string"
						}
					],
					"internalType": "struct CpotbCertificate.DokumenAdministrasi",
					"name": "",
					"type": "tuple"
				},
				{
					"components": [
						{
							"internalType": "string",
							"name": "denahBangunan",
							"type": "string"
						},
						{
							"internalType": "string",
							"name": "sistemMutu",
							"type": "string"
						}
					],
					"internalType": "struct CpotbCertificate.DokumenTeknis",
					"name": "",
					"type": "tuple"
				}
			],
			"stateMutability": "view",
			"type": "function"
		},
		{
			"inputs": [
				{
					"internalType": "string",
					"name": "certId",
					"type": "string"
				}
			],
			"name": "getRejectMsgCdob",
			"outputs": [
				{
					"internalType": "string",
					"name": "",
					"type": "string"
				}
			],
			"stateMutability": "view",
			"type": "function"
		},
		{
			"inputs": [
				{
					"internalType": "string",
					"name": "certId",
					"type": "string"
				}
			],
			"name": "getRejectMsgCpotb",
			"outputs": [
				{
					"internalType": "string",
					"name": "",
					"type": "string"
				}
			],
			"stateMutability": "view",
			"type": "function"
		},
		{
			"inputs": [
				{
					"internalType": "string",
					"name": "certId",
					"type": "string"
				},
				{
					"internalType": "string",
					"name": "rejectMsg",
					"type": "string"
				},
				{
					"internalType": "string",
					"name": "bpomName",
					"type": "string"
				},
				{
					"internalType": "string",
					"name": "bpomInstance",
					"type": "string"
				},
				{
					"internalType": "uint8",
					"name": "tipePermohonan",
					"type": "uint8"
				}
			],
			"name": "rejectCdob",
			"outputs": [],
			"stateMutability": "nonpayable",
			"type": "function"
		},
		{
			"inputs": [
				{
					"internalType": "string",
					"name": "certId",
					"type": "string"
				},
				{
					"internalType": "string",
					"name": "rejectMsg",
					"type": "string"
				},
				{
					"internalType": "string",
					"name": "bpomName",
					"type": "string"
				},
				{
					"internalType": "string",
					"name": "bpomInstance",
					"type": "string"
				},
				{
					"internalType": "uint8",
					"name": "jenisSediaan",
					"type": "uint8"
				}
			],
			"name": "rejectCpotb",
			"outputs": [],
			"stateMutability": "nonpayable",
			"type": "function"
		},
		{
			"inputs": [
				{
					"components": [
						{
							"internalType": "string",
							"name": "certId",
							"type": "string"
						},
						{
							"internalType": "string",
							"name": "senderName",
							"type": "string"
						},
						{
							"internalType": "string",
							"name": "senderInstance",
							"type": "string"
						},
						{
							"internalType": "address",
							"name": "senderAddr",
							"type": "address"
						}
					],
					"internalType": "struct CertificateManager.CertificateRequest",
					"name": "reqData",
					"type": "tuple"
				},
				{
					"components": [
						{
							"internalType": "string",
							"name": "suratPermohonan",
							"type": "string"
						},
						{
							"internalType": "string",
							"name": "buktiPembayaranPajak",
							"type": "string"
						}
					],
					"internalType": "struct CdobCertificate.DokumenAdministrasi",
					"name": "newDokuAdmin",
					"type": "tuple"
				},
				{
					"components": [
						{
							"internalType": "string",
							"name": "suratIzinCdob",
							"type": "string"
						},
						{
							"internalType": "string",
							"name": "denahBangunan",
							"type": "string"
						},
						{
							"internalType": "string",
							"name": "strukturOrganisasi",
							"type": "string"
						},
						{
							"internalType": "string",
							"name": "daftarPersonalia",
							"type": "string"
						},
						{
							"internalType": "string",
							"name": "daftarPeralatan",
							"type": "string"
						},
						{
							"internalType": "string",
							"name": "eksekutifQualityManagement",
							"type": "string"
						},
						{
							"internalType": "string",
							"name": "suratIzinApoteker",
							"type": "string"
						},
						{
							"internalType": "string",
							"name": "dokumenSelfAssesment",
							"type": "string"
						}
					],
					"internalType": "struct CdobCertificate.DokumenTeknis",
					"name": "newDokuTeknis",
					"type": "tuple"
				}
			],
			"name": "renewCdob",
			"outputs": [],
			"stateMutability": "nonpayable",
			"type": "function"
		},
		{
			"inputs": [
				{
					"components": [
						{
							"internalType": "string",
							"name": "certId",
							"type": "string"
						},
						{
							"internalType": "string",
							"name": "senderName",
							"type": "string"
						},
						{
							"internalType": "string",
							"name": "senderInstance",
							"type": "string"
						},
						{
							"internalType": "address",
							"name": "senderAddr",
							"type": "address"
						}
					],
					"internalType": "struct CertificateManager.CertificateRequest",
					"name": "reqData",
					"type": "tuple"
				},
				{
					"components": [
						{
							"internalType": "string",
							"name": "suratPermohonan",
							"type": "string"
						},
						{
							"internalType": "string",
							"name": "buktiPembayaranNegaraBukanPajak",
							"type": "string"
						},
						{
							"internalType": "string",
							"name": "suratKomitmen",
							"type": "string"
						}
					],
					"internalType": "struct CpotbCertificate.DokumenAdministrasi",
					"name": "newDokuAdmin",
					"type": "tuple"
				},
				{
					"components": [
						{
							"internalType": "string",
							"name": "denahBangunan",
							"type": "string"
						},
						{
							"internalType": "string",
							"name": "sistemMutu",
							"type": "string"
						}
					],
					"internalType": "struct CpotbCertificate.DokumenTeknis",
					"name": "newDokuTeknis",
					"type": "tuple"
				}
			],
			"name": "renewCpotb",
			"outputs": [],
			"stateMutability": "nonpayable",
			"type": "function"
		},
		{
			"inputs": [
				{
					"components": [
						{
							"internalType": "string",
							"name": "certId",
							"type": "string"
						},
						{
							"internalType": "string",
							"name": "senderName",
							"type": "string"
						},
						{
							"internalType": "string",
							"name": "senderInstance",
							"type": "string"
						},
						{
							"internalType": "address",
							"name": "senderAddr",
							"type": "address"
						}
					],
					"internalType": "struct CertificateManager.CertificateRequest",
					"name": "reqData",
					"type": "tuple"
				},
				{
					"internalType": "uint8",
					"name": "tipePermohonan",
					"type": "uint8"
				},
				{
					"components": [
						{
							"internalType": "string",
							"name": "suratPermohonan",
							"type": "string"
						},
						{
							"internalType": "string",
							"name": "buktiPembayaranPajak",
							"type": "string"
						}
					],
					"internalType": "struct CdobCertificate.DokumenAdministrasi",
					"name": "dokuAdmin",
					"type": "tuple"
				},
				{
					"components": [
						{
							"internalType": "string",
							"name": "suratIzinCdob",
							"type": "string"
						},
						{
							"internalType": "string",
							"name": "denahBangunan",
							"type": "string"
						},
						{
							"internalType": "string",
							"name": "strukturOrganisasi",
							"type": "string"
						},
						{
							"internalType": "string",
							"name": "daftarPersonalia",
							"type": "string"
						},
						{
							"internalType": "string",
							"name": "daftarPeralatan",
							"type": "string"
						},
						{
							"internalType": "string",
							"name": "eksekutifQualityManagement",
							"type": "string"
						},
						{
							"internalType": "string",
							"name": "suratIzinApoteker",
							"type": "string"
						},
						{
							"internalType": "string",
							"name": "dokumenSelfAssesment",
							"type": "string"
						}
					],
					"internalType": "struct CdobCertificate.DokumenTeknis",
					"name": "dokuTeknis",
					"type": "tuple"
				}
			],
			"name": "requestCdob",
			"outputs": [],
			"stateMutability": "nonpayable",
			"type": "function"
		},
		{
			"inputs": [
				{
					"components": [
						{
							"internalType": "string",
							"name": "certId",
							"type": "string"
						},
						{
							"internalType": "string",
							"name": "senderName",
							"type": "string"
						},
						{
							"internalType": "string",
							"name": "senderInstance",
							"type": "string"
						},
						{
							"internalType": "address",
							"name": "senderAddr",
							"type": "address"
						}
					],
					"internalType": "struct CertificateManager.CertificateRequest",
					"name": "reqData",
					"type": "tuple"
				},
				{
					"internalType": "uint8",
					"name": "jenisSediaan",
					"type": "uint8"
				},
				{
					"internalType": "string",
					"name": "factoryType",
					"type": "string"
				},
				{
					"components": [
						{
							"internalType": "string",
							"name": "suratPermohonan",
							"type": "string"
						},
						{
							"internalType": "string",
							"name": "buktiPembayaranNegaraBukanPajak",
							"type": "string"
						},
						{
							"internalType": "string",
							"name": "suratKomitmen",
							"type": "string"
						}
					],
					"internalType": "struct CpotbCertificate.DokumenAdministrasi",
					"name": "dokuAdmin",
					"type": "tuple"
				},
				{
					"components": [
						{
							"internalType": "string",
							"name": "denahBangunan",
							"type": "string"
						},
						{
							"internalType": "string",
							"name": "sistemMutu",
							"type": "string"
						}
					],
					"internalType": "struct CpotbCertificate.DokumenTeknis",
					"name": "dokuTeknis",
					"type": "tuple"
				}
			],
			"name": "requestCpotb",
			"outputs": [],
			"stateMutability": "nonpayable",
			"type": "function"
		},
		{
			"inputs": [],
			"name": "roleManager",
			"outputs": [
				{
					"internalType": "contract RoleManager",
					"name": "",
					"type": "address"
				}
			],
			"stateMutability": "view",
			"type": "function"
		}
	]
}