{
	"data": {
		"bytecode": {
			"linkReferences": {},
			"object": "6080604052348015600e575f80fd5b506040516141d13803806141d1833981016040819052602b91604e565b5f80546001600160a01b0319166001600160a01b03929092169190911790556079565b5f60208284031215605d575f80fd5b81516001600160a01b03811681146072575f80fd5b9392505050565b61414b806100865f395ff3fe608060405234801561000f575f80fd5b50600436106100fb575f3560e01c80637ee90ded11610093578063d123367211610063578063d12336721461024e578063e49d032714610261578063e54a29bb14610281578063ec176587146102a4575f80fd5b80637ee90ded146101ee578063950d4d7414610213578063a814a60f14610226578063cec1fc1e14610246575f80fd5b80636d2a362f116100ce5780636d2a362f146101785780636f8e61971461018b578063711255af146101ab57806372c17cb9146101cb575f80fd5b80632592e511146100ff578063387bb30e146101145780634c3ba6fd146101275780636aa8129914610155575b5f80fd5b61011261010d366004613535565b6102ac565b005b61011261012236600461362f565b610686565b61013a6101353660046136f6565b610b52565b60405161014c96959493929190613762565b60405180910390f35b6101686101633660046137d4565b610db7565b60405161014c94939291906138bf565b61011261018636600461362f565b6111db565b61019e6101993660046137d4565b611686565b60405161014c9190613907565b6101be6101b93660046137d4565b611afa565b60405161014c919061397a565b6101de6101d93660046137d4565b611f65565b60405161014c94939291906139f1565b6102016101fc366004613a44565b611f8b565b60405160ff909116815260200161014c565b610112610221366004613535565b611fda565b6102396102343660046137d4565b612361565b60405161014c9190613a85565b610239612733565b61011261025c366004613b78565b612b24565b61027461026f3660046137d4565b612c25565b60405161014c9190613bfd565b61029461028f366004613c42565b612cb0565b60405161014c9493929190613c5d565b610239612d5b565b5f600183602001516040516102c19190613ca7565b908152602001604051809103902090505f815f0180546102e090613cbd565b9050116103265760405162461bcd60e51b815260206004820152600f60248201526e10d413d510881b9bdd08199bdd5b99608a1b60448201526064015b60405180910390fd5b5f600282015460ff1660018111156103405761034061373b565b1461038d5760405162461bcd60e51b815260206004820181905260248201527f43504f544220737461747573206d757374206265202752657175657374656427604482015260640161031d565b6103a0836040015133856060015161314e565b8051600883019081906103b39082613d41565b5060208201516001820180546001600160a01b0319166001600160a01b03909216919091179055604082015160028201906103ee9082613d41565b50505060028101805460ff191660019081179091554260048301558351908201906104199082613d41565b506007810180545f919061042c90613cbd565b80601f016020809104026020016040519081016040528092919081815260200182805461045890613cbd565b80156104a35780601f1061047a576101008083540402835291602001916104a3565b820191905f5260205f20905b81548152906001019060200180831161048657829003601f168201915b505050505090506003816040516104ba9190613ca7565b90815260200160405180910390208360ff1660088111156104dd576104dd61373b565b60088111156104ee576104ee61373b565b81546001810183555f928352602080842090820401805460ff938416601f9093166101000a92830293909202199091169190911790555b600454811015610627576020808601516040516105429201613ca7565b604051602081830303815290604052805190602001206004828154811061056b5761056b613dfb565b905f5260205f2090600502015f016040516020016105899190613e0f565b604051602081830303815290604052805190602001200361061f57845160048054839081106105ba576105ba613dfb565b905f5260205f20906005020160010190816105d59190613d41565b506001600482815481106105eb576105eb613dfb565b5f9182526020909120600460059092020101805461ff0019166101008360018111156106195761061961373b565b02179055505b600101610525565b507f5f0795f9828e754b342c66dc560f8879d7982ca16fbeb97634e54f75bd39bfd78460600151338560ff1660088111156106645761066461373b565b875160405161067894939291904290613e80565b60405180910390a150505050565b5f80546040516395a8c58d60e01b81526001600160a01b03909116916395a8c58d916106b6913391600401613ee3565b602060405180830381865afa1580156106d1573d5f803e3d5ffd5b505050506040513d601f19601f820116820180604052508101906106f59190613f00565b61074b5760405162461bcd60e51b815260206004820152602160248201527f416363657373207265737472696374656420746f20466163746f727920726f6c6044820152606560f81b606482015260840161031d565b815160405160019161075c91613ca7565b908152604051908190036020019020805461077690613cbd565b1590506107c55760405162461bcd60e51b815260206004820152601760248201527f43504f544220494420616c726561647920657869737473000000000000000000604482015260640161031d565b5f6107d9836020015133856040015161314e565b90505f61080360405180602001604052805f8152505f60405180602001604052805f81525061314e565b90505f6108108383613181565b60408051608081018252875181528151602081810184525f82528201529081018290529091506060810160ff8616600881111561084f5761084f61373b565b60088111156108605761086061373b565b9052855160405160019161087391613ca7565b908152604051908190036020019020815181906108909082613d41565b50602082015160018201906108a59082613d41565b5060408201518051600283018054909190829060ff1916600183818111156108cf576108cf61373b565b0217905550602082015160018201556040820151600282015560608201518051600383019081906109009082613d41565b5060208201516001820180546001600160a01b0319166001600160a01b039092169190911790556040820151600282019061093b9082613d41565b50505060808201518051600683019081906109569082613d41565b5060208201516001820180546001600160a01b0319166001600160a01b03909216919091179055604082015160028201906109919082613d41565b505050506060830151600b830180549192509060ff191660018360088111156109bc576109bc61373b565b02179055509050505f610a2a865f015160405180602001604052805f81525088604001518860ff1660088111156109f5576109f561373b565b6008811115610a0657610a0661373b565b6040518060400160405280600581526020016431b837ba3160d91b8152505f6131b5565b600480546001810182555f919091528151919250829160059091027f8a35acfbc15ff81a39ae7d344fd709f28e8600b4aa8c65c6b64bfe7fe36bd19b01908190610a749082613d41565b5060208201516001820190610a899082613d41565b5060408201516002820190610a9e9082613d41565b5060608201516003820190610ab39082613d41565b50608082015160048201805460ff90921660ff1983168117825560a08501519261ffff191617610100836001811115610aee57610aee61373b565b021790555050507f99dcabd81899d5894d4391d9586c557b10a0d34a881adfc4769ad41e9166cda08660400151338760ff166008811115610b3157610b3161373b565b42604051610b429493929190613f1f565b60405180910390a1505050505050565b60048181548110610b61575f80fd5b905f5260205f2090600502015f91509050805f018054610b8090613cbd565b80601f0160208091040260200160405190810160405280929190818152602001828054610bac90613cbd565b8015610bf75780601f10610bce57610100808354040283529160200191610bf7565b820191905f5260205f20905b815481529060010190602001808311610bda57829003601f168201915b505050505090806001018054610c0c90613cbd565b80601f0160208091040260200160405190810160405280929190818152602001828054610c3890613cbd565b8015610c835780601f10610c5a57610100808354040283529160200191610c83565b820191905f5260205f20905b815481529060010190602001808311610c6657829003601f168201915b505050505090806002018054610c9890613cbd565b80601f0160208091040260200160405190810160405280929190818152602001828054610cc490613cbd565b8015610d0f5780601f10610ce657610100808354040283529160200191610d0f565b820191905f5260205f20905b815481529060010190602001808311610cf257829003601f168201915b505050505090806003018054610d2490613cbd565b80601f0160208091040260200160405190810160405280929190818152602001828054610d5090613cbd565b8015610d9b5780601f10610d7257610100808354040283529160200191610d9b565b820191905f5260205f20905b815481529060010190602001808311610d7e57829003601f168201915b5050506004909301549192505060ff8082169161010090041686565b8051602081830181018051600182529282019190930120915280548190610ddd90613cbd565b80601f0160208091040260200160405190810160405280929190818152602001828054610e0990613cbd565b8015610e545780601f10610e2b57610100808354040283529160200191610e54565b820191905f5260205f20905b815481529060010190602001808311610e3757829003601f168201915b505050505090806001018054610e6990613cbd565b80601f0160208091040260200160405190810160405280929190818152602001828054610e9590613cbd565b8015610ee05780601f10610eb757610100808354040283529160200191610ee0565b820191905f5260205f20905b815481529060010190602001808311610ec357829003601f168201915b50506040805160a08101909152600286018054959695919450925083915060ff166001811115610f1257610f1261373b565b6001811115610f2357610f2361373b565b81526020016001820154815260200160028201548152602001600382016040518060600160405290815f82018054610f5a90613cbd565b80601f0160208091040260200160405190810160405280929190818152602001828054610f8690613cbd565b8015610fd15780601f10610fa857610100808354040283529160200191610fd1565b820191905f5260205f20905b815481529060010190602001808311610fb457829003601f168201915b505050918352505060018201546001600160a01b0316602082015260028201805460409092019161100190613cbd565b80601f016020809104026020016040519081016040528092919081815260200182805461102d90613cbd565b80156110785780601f1061104f57610100808354040283529160200191611078565b820191905f5260205f20905b81548152906001019060200180831161105b57829003601f168201915b5050505050815250508152602001600682016040518060600160405290815f820180546110a490613cbd565b80601f01602080910402602001604051908101604052809291908181526020018280546110d090613cbd565b801561111b5780601f106110f25761010080835404028352916020019161111b565b820191905f5260205f20905b8154815290600101906020018083116110fe57829003601f168201915b505050918352505060018201546001600160a01b0316602082015260028201805460409092019161114b90613cbd565b80601f016020809104026020016040519081016040528092919081815260200182805461117790613cbd565b80156111c25780601f10611199576101008083540402835291602001916111c2565b820191905f5260205f20905b8154815290600101906020018083116111a557829003601f168201915b50505091909252505050905250600b9091015460ff1684565b5f546040516395a8c58d60e01b81526001600160a01b03909116906395a8c58d9061120d903390600190600401613ee3565b602060405180830381865afa158015611228573d5f803e3d5ffd5b505050506040513d601f19601f8201168201806040525081019061124c9190613f00565b6112985760405162461bcd60e51b815260206004820152601d60248201527f416363657373207265737472696374656420746f2050424620726f6c65000000604482015260640161031d565b81516040516002916112a991613ca7565b90815260405190819003602001902080546112c390613cbd565b15905061130b5760405162461bcd60e51b815260206004820152601660248201527543444f4220494420616c72656164792065786973747360501b604482015260640161031d565b5f61131f836020015133856040015161314e565b90505f61134960405180602001604052805f8152505f60405180602001604052805f81525061314e565b90505f6113568383613181565b60408051608081018252875181528151602081810184525f82528201529081018290529091506060810160ff861660018111156113955761139561373b565b60018111156113a6576113a661373b565b905285516040516002916113b991613ca7565b908152604051908190036020019020815181906113d69082613d41565b50602082015160018201906113eb9082613d41565b5060408201518051600283018054909190829060ff1916600183818111156114155761141561373b565b0217905550602082015160018201556040820151600282015560608201518051600383019081906114469082613d41565b5060208201516001820180546001600160a01b0319166001600160a01b03909216919091179055604082015160028201906114819082613d41565b505050608082015180516006830190819061149c9082613d41565b5060208201516001820180546001600160a01b0319166001600160a01b03909216919091179055604082015160028201906114d79082613d41565b505050506060830151600b830180549192509060ff1916600183818111156115015761150161373b565b02179055509050505f61156e865f015160405180602001604052805f81525088604001518860ff16600181111561153a5761153a61373b565b600181111561154b5761154b61373b565b6040518060400160405280600481526020016331b237b160e11b8152505f6131b5565b600480546001810182555f919091528151919250829160059091027f8a35acfbc15ff81a39ae7d344fd709f28e8600b4aa8c65c6b64bfe7fe36bd19b019081906115b89082613d41565b50602082015160018201906115cd9082613d41565b50604082015160028201906115e29082613d41565b50606082015160038201906115f79082613d41565b50608082015160048201805460ff90921660ff1983168117825560a08501519261ffff1916176101008360018111156116325761163261373b565b021790555050507f7002576f080ade70048a03ad81b929b78c8b7e148fd11f40f286a8b6900e6f9b8660400151338760ff1660018111156116755761167561373b565b42604051610b429493929190613f4f565b61168e61334f565b60018260405161169e9190613ca7565b90815260200160405180910390206040518060800160405290815f820180546116c690613cbd565b80601f01602080910402602001604051908101604052809291908181526020018280546116f290613cbd565b801561173d5780601f106117145761010080835404028352916020019161173d565b820191905f5260205f20905b81548152906001019060200180831161172057829003601f168201915b5050505050815260200160018201805461175690613cbd565b80601f016020809104026020016040519081016040528092919081815260200182805461178290613cbd565b80156117cd5780601f106117a4576101008083540402835291602001916117cd565b820191905f5260205f20905b8154815290600101906020018083116117b057829003601f168201915b50505091835250506040805160a08101909152600283018054602090930192829060ff1660018111156118025761180261373b565b60018111156118135761181361373b565b81526020016001820154815260200160028201548152602001600382016040518060600160405290815f8201805461184a90613cbd565b80601f016020809104026020016040519081016040528092919081815260200182805461187690613cbd565b80156118c15780601f10611898576101008083540402835291602001916118c1565b820191905f5260205f20905b8154815290600101906020018083116118a457829003601f168201915b505050918352505060018201546001600160a01b031660208201526002820180546040909201916118f190613cbd565b80601f016020809104026020016040519081016040528092919081815260200182805461191d90613cbd565b80156119685780601f1061193f57610100808354040283529160200191611968565b820191905f5260205f20905b81548152906001019060200180831161194b57829003601f168201915b5050505050815250508152602001600682016040518060600160405290815f8201805461199490613cbd565b80601f01602080910402602001604051908101604052809291908181526020018280546119c090613cbd565b8015611a0b5780601f106119e257610100808354040283529160200191611a0b565b820191905f5260205f20905b8154815290600101906020018083116119ee57829003601f168201915b505050918352505060018201546001600160a01b03166020820152600282018054604090920191611a3b90613cbd565b80601f0160208091040260200160405190810160405280929190818152602001828054611a6790613cbd565b8015611ab25780601f10611a8957610100808354040283529160200191611ab2565b820191905f5260205f20905b815481529060010190602001808311611a9557829003601f168201915b505050919092525050509052508152600b82015460209091019060ff166008811115611ae057611ae061373b565b6008811115611af157611af161373b565b90525092915050565b611b0261334f565b600282604051611b129190613ca7565b90815260200160405180910390206040518060800160405290815f82018054611b3a90613cbd565b80601f0160208091040260200160405190810160405280929190818152602001828054611b6690613cbd565b8015611bb15780601f10611b8857610100808354040283529160200191611bb1565b820191905f5260205f20905b815481529060010190602001808311611b9457829003601f168201915b50505050508152602001600182018054611bca90613cbd565b80601f0160208091040260200160405190810160405280929190818152602001828054611bf690613cbd565b8015611c415780601f10611c1857610100808354040283529160200191611c41565b820191905f5260205f20905b815481529060010190602001808311611c2457829003601f168201915b50505091835250506040805160a08101909152600283018054602090930192829060ff166001811115611c7657611c7661373b565b6001811115611c8757611c8761373b565b81526020016001820154815260200160028201548152602001600382016040518060600160405290815f82018054611cbe90613cbd565b80601f0160208091040260200160405190810160405280929190818152602001828054611cea90613cbd565b8015611d355780601f10611d0c57610100808354040283529160200191611d35565b820191905f5260205f20905b815481529060010190602001808311611d1857829003601f168201915b505050918352505060018201546001600160a01b03166020820152600282018054604090920191611d6590613cbd565b80601f0160208091040260200160405190810160405280929190818152602001828054611d9190613cbd565b8015611ddc5780601f10611db357610100808354040283529160200191611ddc565b820191905f5260205f20905b815481529060010190602001808311611dbf57829003601f168201915b5050505050815250508152602001600682016040518060600160405290815f82018054611e0890613cbd565b80601f0160208091040260200160405190810160405280929190818152602001828054611e3490613cbd565b8015611e7f5780601f10611e5657610100808354040283529160200191611e7f565b820191905f5260205f20905b815481529060010190602001808311611e6257829003601f168201915b505050918352505060018201546001600160a01b03166020820152600282018054604090920191611eaf90613cbd565b80601f0160208091040260200160405190810160405280929190818152602001828054611edb90613cbd565b8015611f265780601f10611efd57610100808354040283529160200191611f26565b820191905f5260205f20905b815481529060010190602001808311611f0957829003601f168201915b505050919092525050509052508152600b82015460209091019060ff166001811115611f5457611f5461373b565b6001811115611af157611af161373b565b8051602081830181018051600282529282019190930120915280548190610ddd90613cbd565b81516020818401810180516003825292820191850191909120919052805482908110611fb5575f80fd5b905f5260205f209060209182820401919006915091509054906101000a900460ff1681565b5f546040516395a8c58d60e01b81526001600160a01b03909116906395a8c58d9061200c903390600290600401613ee3565b602060405180830381865afa158015612027573d5f803e3d5ffd5b505050506040513d601f19601f8201168201806040525081019061204b9190613f00565b6120975760405162461bcd60e51b815260206004820152601e60248201527f416363657373207265737472696374656420746f2042504f4d20726f6c650000604482015260640161031d565b5f600283602001516040516120ac9190613ca7565b908152602001604051809103902090505f815f0180546120cb90613cbd565b90501161210b5760405162461bcd60e51b815260206004820152600e60248201526d10d113d0881b9bdd08199bdd5b9960921b604482015260640161031d565b5f600282015460ff1660018111156121255761212561373b565b146121725760405162461bcd60e51b815260206004820152601f60248201527f43444f4220737461747573206d75737420626520275265717565737465642700604482015260640161031d565b612185836040015133856060015161314e565b8051600883019081906121989082613d41565b5060208201516001820180546001600160a01b0319166001600160a01b03909216919091179055604082015160028201906121d39082613d41565b50505060028101805460ff191660019081179091554260048301558351908201906121fe9082613d41565b505f5b6004548110156123035760208085015160405161221e9201613ca7565b604051602081830303815290604052805190602001206004828154811061224757612247613dfb565b905f5260205f2090600502015f016040516020016122659190613e0f565b60405160208183030381529060405280519060200120036122fb578351600480548390811061229657612296613dfb565b905f5260205f20906005020160010190816122b19190613d41565b506001600482815481106122c7576122c7613dfb565b5f9182526020909120600460059092020101805461ff0019166101008360018111156122f5576122f561373b565b02179055505b600101612201565b507f8d8f26b533bc5f62a32de1faa67facbf43e75bd50ab3e60343fd421507e8dd638360600151338460ff1660018111156123405761234061373b565b865160405161235494939291904290613f8d565b60405180910390a1505050565b60605f61236d83613208565b90505f8160ff166001600160401b0381111561238b5761238b61341a565b6040519080825280602002602001820160405280156123c457816020015b6123b161337c565b8152602001906001900390816123a95790505b5090505f805b60045481101561272957856040516020016123e59190613ca7565b604051602081830303815290604052805190602001206004828154811061240e5761240e613dfb565b905f5260205f20906005020160020160405160200161242d9190613e0f565b6040516020818303038152906040528051906020012003612721576004818154811061245b5761245b613dfb565b905f5260205f2090600502016040518060c00160405290815f8201805461248190613cbd565b80601f01602080910402602001604051908101604052809291908181526020018280546124ad90613cbd565b80156124f85780601f106124cf576101008083540402835291602001916124f8565b820191905f5260205f20905b8154815290600101906020018083116124db57829003601f168201915b5050505050815260200160018201805461251190613cbd565b80601f016020809104026020016040519081016040528092919081815260200182805461253d90613cbd565b80156125885780601f1061255f57610100808354040283529160200191612588565b820191905f5260205f20905b81548152906001019060200180831161256b57829003601f168201915b505050505081526020016002820180546125a190613cbd565b80601f01602080910402602001604051908101604052809291908181526020018280546125cd90613cbd565b80156126185780601f106125ef57610100808354040283529160200191612618565b820191905f5260205f20905b8154815290600101906020018083116125fb57829003601f168201915b5050505050815260200160038201805461263190613cbd565b80601f016020809104026020016040519081016040528092919081815260200182805461265d90613cbd565b80156126a85780601f1061267f576101008083540402835291602001916126a8565b820191905f5260205f20905b81548152906001019060200180831161268b57829003601f168201915b5050509183525050600482015460ff80821660208401526040909201916101009091041660018111156126dd576126dd61373b565b60018111156126ee576126ee61373b565b81525050838360ff168151811061270757612707613dfb565b6020026020010181905250818061271d90613fcf565b9250505b6001016123ca565b5090949350505050565b60605f61275b6040518060400160405280600481526020016331b237b160e11b8152506132a7565b90505f604051602001612778906331b237b160e11b815260040190565b6040516020818303038152906040528051906020012090505f8260ff166001600160401b038111156127ac576127ac61341a565b6040519080825280602002602001820160405280156127e557816020015b6127d261337c565b8152602001906001900390816127ca5790505b5090505f805b60045481101561272957836004828154811061280957612809613dfb565b905f5260205f2090600502016003016040516020016128289190613e0f565b6040516020818303038152906040528051906020012003612b1c576004818154811061285657612856613dfb565b905f5260205f2090600502016040518060c00160405290815f8201805461287c90613cbd565b80601f01602080910402602001604051908101604052809291908181526020018280546128a890613cbd565b80156128f35780601f106128ca576101008083540402835291602001916128f3565b820191905f5260205f20905b8154815290600101906020018083116128d657829003601f168201915b5050505050815260200160018201805461290c90613cbd565b80601f016020809104026020016040519081016040528092919081815260200182805461293890613cbd565b80156129835780601f1061295a57610100808354040283529160200191612983565b820191905f5260205f20905b81548152906001019060200180831161296657829003601f168201915b5050505050815260200160028201805461299c90613cbd565b80601f01602080910402602001604051908101604052809291908181526020018280546129c890613cbd565b8015612a135780601f106129ea57610100808354040283529160200191612a13565b820191905f5260205f20905b8154815290600101906020018083116129f657829003601f168201915b50505050508152602001600382018054612a2c90613cbd565b80601f0160208091040260200160405190810160405280929190818152602001828054612a5890613cbd565b8015612aa35780601f10612a7a57610100808354040283529160200191612aa3565b820191905f5260205f20905b815481529060010190602001808311612a8657829003601f168201915b5050509183525050600482015460ff8082166020840152604090920191610100909104166001811115612ad857612ad861373b565b6001811115612ae957612ae961373b565b81525050838360ff1681518110612b0257612b02613dfb565b60200260200101819052508180612b1890613fcf565b9250505b6001016127eb565b6001600160a01b0382163314612b7c5760405162461bcd60e51b815260206004820152601760248201527f53656e6465722061646472657373206d69736d61746368000000000000000000604482015260640161031d565b5f546001600160a01b031663d123367285853360ff86166003811115612ba457612ba461373b565b6040518563ffffffff1660e01b8152600401612bc39493929190613ff9565b5f604051808303815f87803b158015612bda575f80fd5b505af1158015612bec573d5f803e3d5ffd5b505050507f93b86cf0a1d8e18e724e08d47f7248859de317795be109ec2495f6fc7445b4e9338585846040516106789493929190613c5d565b6060600382604051612c379190613ca7565b9081526040805191829003602090810183208054808302850183019093528284529190830182828015612ca457602002820191905f5260205f20905f905b825461010083900a900460ff16815260206001928301818104948501949093039092029101808411612c755790505b50505050509050919050565b5f805460405163e54a29bb60e01b81526001600160a01b038481166004830152606092839285928392839283928392169063e54a29bb906024015f60405180830381865afa158015612d04573d5f803e3d5ffd5b505050506040513d5f823e601f3d908101601f19168201604052612d2b919081019061408a565b9350935093509350818484836003811115612d4857612d4861373b565b9750975097509750505050509193509193565b60605f612d846040518060400160405280600581526020016431b837ba3160d91b8152506132a7565b90505f604051602001612da2906431b837ba3160d91b815260050190565b6040516020818303038152906040528051906020012090505f8260ff166001600160401b03811115612dd657612dd661341a565b604051908082528060200260200182016040528015612e0f57816020015b612dfc61337c565b815260200190600190039081612df45790505b5090505f805b600454811015612729578360048281548110612e3357612e33613dfb565b905f5260205f209060050201600301604051602001612e529190613e0f565b60405160208183030381529060405280519060200120036131465760048181548110612e8057612e80613dfb565b905f5260205f2090600502016040518060c00160405290815f82018054612ea690613cbd565b80601f0160208091040260200160405190810160405280929190818152602001828054612ed290613cbd565b8015612f1d5780601f10612ef457610100808354040283529160200191612f1d565b820191905f5260205f20905b815481529060010190602001808311612f0057829003601f168201915b50505050508152602001600182018054612f3690613cbd565b80601f0160208091040260200160405190810160405280929190818152602001828054612f6290613cbd565b8015612fad5780601f10612f8457610100808354040283529160200191612fad565b820191905f5260205f20905b815481529060010190602001808311612f9057829003601f168201915b50505050508152602001600282018054612fc690613cbd565b80601f0160208091040260200160405190810160405280929190818152602001828054612ff290613cbd565b801561303d5780601f106130145761010080835404028352916020019161303d565b820191905f5260205f20905b81548152906001019060200180831161302057829003601f168201915b5050505050815260200160038201805461305690613cbd565b80601f016020809104026020016040519081016040528092919081815260200182805461308290613cbd565b80156130cd5780601f106130a4576101008083540402835291602001916130cd565b820191905f5260205f20905b8154815290600101906020018083116130b057829003601f168201915b5050509183525050600482015460ff80821660208401526040909201916101009091041660018111156131025761310261373b565b60018111156131135761311361373b565b81525050838360ff168151811061312c5761312c613dfb565b6020026020010181905250818061314290613fcf565b9250505b600101612e15565b6131566133be565b50604080516060810182528481526001600160a01b03841660208201529081018290525b9392505050565b6131896133e7565b506040805160a0810182525f808252426020830152918101919091526060810192909252608082015290565b6131bd61337c565b6040518060c001604052808881526020018781526020018681526020018481526020018560ff1681526020018360018111156131fb576131fb61373b565b9052979650505050505050565b5f80805b6004548110156132a057836040516020016132279190613ca7565b604051602081830303815290604052805190602001206004828154811061325057613250613dfb565b905f5260205f20906005020160020160405160200161326f9190613e0f565b6040516020818303038152906040528051906020012003613298578161329481613fcf565b9250505b60010161320c565b5092915050565b5f805f90505f836040516020016132be9190613ca7565b6040516020818303038152906040528051906020012090505f5b6004548110156133465781600482815481106132f6576132f6613dfb565b905f5260205f2090600502016003016040516020016133159190613e0f565b604051602081830303815290604052805190602001200361333e578261333a81613fcf565b9350505b6001016132d8565b50909392505050565b604051806080016040528060608152602001606081526020016133706133e7565b81526020015f5b905290565b6040518060c00160405280606081526020016060815260200160608152602001606081526020015f60ff1681526020015f60018111156133775761337761373b565b6040518060600160405280606081526020015f6001600160a01b03168152602001606081525090565b6040805160a08101909152805f81526020015f81526020015f815260200161340d6133be565b81526020016133776133be565b634e487b7160e01b5f52604160045260245ffd5b604051608081016001600160401b03811182821017156134505761345061341a565b60405290565b604051606081016001600160401b03811182821017156134505761345061341a565b604051601f8201601f191681016001600160401b03811182821017156134a0576134a061341a565b604052919050565b5f6001600160401b038211156134c0576134c061341a565b50601f01601f191660200190565b5f82601f8301126134dd575f80fd5b81356134f06134eb826134a8565b613478565b818152846020838601011115613504575f80fd5b816020850160208301375f918101602001919091529392505050565b803560ff81168114613530575f80fd5b919050565b5f8060408385031215613546575f80fd5b82356001600160401b0381111561355b575f80fd5b83016080818603121561356c575f80fd5b61357461342e565b81356001600160401b03811115613589575f80fd5b613595878285016134ce565b82525060208201356001600160401b038111156135b0575f80fd5b6135bc878285016134ce565b60208301525060408201356001600160401b038111156135da575f80fd5b6135e6878285016134ce565b60408301525060608201356001600160401b03811115613604575f80fd5b613610878285016134ce565b6060830152509250613626905060208401613520565b90509250929050565b5f8060408385031215613640575f80fd5b82356001600160401b03811115613655575f80fd5b830160608186031215613666575f80fd5b61366e613456565b81356001600160401b03811115613683575f80fd5b61368f878285016134ce565b82525060208201356001600160401b038111156136aa575f80fd5b6136b6878285016134ce565b60208301525060408201356001600160401b038111156136d4575f80fd5b6136e0878285016134ce565b6040830152509250613626905060208401613520565b5f60208284031215613706575f80fd5b5035919050565b5f81518084528060208401602086015e5f602082860101526020601f19601f83011685010191505092915050565b634e487b7160e01b5f52602160045260245ffd5b6002811061375f5761375f61373b565b50565b60c081525f61377460c083018961370d565b8281036020840152613786818961370d565b9050828103604084015261379a818861370d565b905082810360608401526137ae818761370d565b91505060ff841660808301526137c38361374f565b8260a0830152979650505050505050565b5f602082840312156137e4575f80fd5b81356001600160401b038111156137f9575f80fd5b613805848285016134ce565b949350505050565b5f815160608452613821606085018261370d565b905060018060a01b0360208401511660208501526040830151848203604086015261384c828261370d565b95945050505050565b5f81516138618161374f565b808452506020820151602084015260408201516040840152606082015160a0606085015261389260a085018261380d565b90506080830151848203608086015261384c828261380d565b600981106138bb576138bb61373b565b9052565b608081525f6138d1608083018761370d565b82810360208401526138e3818761370d565b905082810360408401526138f78186613855565b91505061384c60608301846138ab565b602081525f82516080602084015261392260a084018261370d565b90506020840151601f1984830301604085015261393f828261370d565b9150506040840151601f1984830301606085015261395d8282613855565b915050606084015161397260808501826138ab565b509392505050565b602081525f82516080602084015261399560a084018261370d565b90506020840151601f198483030160408501526139b2828261370d565b9150506040840151601f198483030160608501526139d08282613855565b91505060608401516139e18161374f565b6080939093019290925250919050565b608081525f613a03608083018761370d565b8281036020840152613a15818761370d565b90508281036040840152613a298186613855565b915050613a358361374f565b82606083015295945050505050565b5f8060408385031215613a55575f80fd5b82356001600160401b03811115613a6a575f80fd5b613a76858286016134ce565b95602094909401359450505050565b5f602082016020835280845180835260408501915060408160051b8601019250602086015f5b82811015613b5857603f198786030184528151805160c08752613ad160c088018261370d565b905060208201518782036020890152613aea828261370d565b91505060408201518782036040890152613b04828261370d565b91505060608201518782036060890152613b1e828261370d565b91505060ff608083015116608088015260a08201519150613b3e8261374f565b60a096909601526020938401939190910190600101613aab565b50929695505050505050565b6001600160a01b038116811461375f575f80fd5b5f805f8060808587031215613b8b575f80fd5b84356001600160401b03811115613ba0575f80fd5b613bac878288016134ce565b94505060208501356001600160401b03811115613bc7575f80fd5b613bd3878288016134ce565b9350506040850135613be481613b64565b9150613bf260608601613520565b905092959194509250565b602080825282518282018190525f918401906040840190835b81811015613c3757835160ff16835260209384019390920191600101613c16565b509095945050505050565b5f60208284031215613c52575f80fd5b813561317a81613b64565b6001600160a01b03851681526080602082018190525f90613c809083018661370d565b8281036040840152613c92818661370d565b91505060ff8316606083015295945050505050565b5f82518060208501845e5f920191825250919050565b600181811c90821680613cd157607f821691505b602082108103613cef57634e487b7160e01b5f52602260045260245ffd5b50919050565b601f821115613d3c57805f5260205f20601f840160051c81016020851015613d1a5750805b601f840160051c820191505b81811015613d39575f8155600101613d26565b50505b505050565b81516001600160401b03811115613d5a57613d5a61341a565b613d6e81613d688454613cbd565b84613cf5565b6020601f821160018114613da0575f8315613d895750848201515b5f19600385901b1c1916600184901b178455613d39565b5f84815260208120601f198516915b82811015613dcf5787850151825560209485019460019092019101613daf565b5084821015613dec57868401515f19600387901b60f8161c191681555b50505050600190811b01905550565b634e487b7160e01b5f52603260045260245ffd5b5f808354613e1c81613cbd565b600182168015613e335760018114613e4857613e75565b60ff1983168652811515820286019350613e75565b865f5260205f205f5b83811015613e6d57815488820152600190910190602001613e51565b505081860193505b509195945050505050565b60a081525f613e9260a083018861370d565b6001600160a01b0387166020840152613eae60408401876138ab565b8281036060840152613ec0818661370d565b9150508260808301529695505050505050565b600481106138bb576138bb61373b565b6001600160a01b03831681526040810161317a6020830184613ed3565b5f60208284031215613f10575f80fd5b8151801515811461317a575f80fd5b608081525f613f31608083018761370d565b6001600160a01b03861660208401529050613a3560408301856138ab565b608081525f613f61608083018761370d565b6001600160a01b03861660208401529050613f7b8461374f565b60408201939093526060015292915050565b60a081525f613f9f60a083018861370d565b6001600160a01b0387166020840152613fb78661374f565b8560408401528281036060840152613ec0818661370d565b5f60ff821660ff8103613ff057634e487b7160e01b5f52601160045260245ffd5b60010192915050565b608081525f61400b608083018761370d565b828103602084015261401d818761370d565b6001600160a01b0386166040850152915061384c90506060830184613ed3565b5f82601f83011261404c575f80fd5b815161405a6134eb826134a8565b81815284602083860101111561406e575f80fd5b8160208501602083015e5f918101602001919091529392505050565b5f805f806080858703121561409d575f80fd5b84516001600160401b038111156140b2575f80fd5b6140be8782880161403d565b94505060208501516001600160401b038111156140d9575f80fd5b6140e58782880161403d565b93505060408501516140f681613b64565b60608601519092506004811061410a575f80fd5b93969295509093505056fea26469706673582212204c2e927ddb66076c5d83cf3fc7543119e98644347ed095786e9355b068e475b964736f6c634300081a0033",
			"opcodes": "PUSH1 0x80 PUSH1 0x40 MSTORE CALLVALUE DUP1 ISZERO PUSH1 0xE JUMPI PUSH0 DUP1 REVERT JUMPDEST POP PUSH1 0x40 MLOAD PUSH2 0x41D1 CODESIZE SUB DUP1 PUSH2 0x41D1 DUP4 CODECOPY DUP2 ADD PUSH1 0x40 DUP2 SWAP1 MSTORE PUSH1 0x2B SWAP2 PUSH1 0x4E JUMP JUMPDEST PUSH0 DUP1 SLOAD PUSH1 0x1 PUSH1 0x1 PUSH1 0xA0 SHL SUB NOT AND PUSH1 0x1 PUSH1 0x1 PUSH1 0xA0 SHL SUB SWAP3 SWAP1 SWAP3 AND SWAP2 SWAP1 SWAP2 OR SWAP1 SSTORE PUSH1 0x79 JUMP JUMPDEST PUSH0 PUSH1 0x20 DUP3 DUP5 SUB SLT ISZERO PUSH1 0x5D JUMPI PUSH0 DUP1 REVERT JUMPDEST DUP2 MLOAD PUSH1 0x1 PUSH1 0x1 PUSH1 0xA0 SHL SUB DUP2 AND DUP2 EQ PUSH1 0x72 JUMPI PUSH0 DUP1 REVERT JUMPDEST SWAP4 SWAP3 POP POP POP JUMP JUMPDEST PUSH2 0x414B DUP1 PUSH2 0x86 PUSH0 CODECOPY PUSH0 RETURN INVALID PUSH1 0x80 PUSH1 0x40 MSTORE CALLVALUE DUP1 ISZERO PUSH2 0xF JUMPI PUSH0 DUP1 REVERT JUMPDEST POP PUSH1 0x4 CALLDATASIZE LT PUSH2 0xFB JUMPI PUSH0 CALLDATALOAD PUSH1 0xE0 SHR DUP1 PUSH4 0x7EE90DED GT PUSH2 0x93 JUMPI DUP1 PUSH4 0xD1233672 GT PUSH2 0x63 JUMPI DUP1 PUSH4 0xD1233672 EQ PUSH2 0x24E JUMPI DUP1 PUSH4 0xE49D0327 EQ PUSH2 0x261 JUMPI DUP1 PUSH4 0xE54A29BB EQ PUSH2 0x281 JUMPI DUP1 PUSH4 0xEC176587 EQ PUSH2 0x2A4 JUMPI PUSH0 DUP1 REVERT JUMPDEST DUP1 PUSH4 0x7EE90DED EQ PUSH2 0x1EE JUMPI DUP1 PUSH4 0x950D4D74 EQ PUSH2 0x213 JUMPI DUP1 PUSH4 0xA814A60F EQ PUSH2 0x226 JUMPI DUP1 PUSH4 0xCEC1FC1E EQ PUSH2 0x246 JUMPI PUSH0 DUP1 REVERT JUMPDEST DUP1 PUSH4 0x6D2A362F GT PUSH2 0xCE JUMPI DUP1 PUSH4 0x6D2A362F EQ PUSH2 0x178 JUMPI DUP1 PUSH4 0x6F8E6197 EQ PUSH2 0x18B JUMPI DUP1 PUSH4 0x711255AF EQ PUSH2 0x1AB JUMPI DUP1 PUSH4 0x72C17CB9 EQ PUSH2 0x1CB JUMPI PUSH0 DUP1 REVERT JUMPDEST DUP1 PUSH4 0x2592E511 EQ PUSH2 0xFF JUMPI DUP1 PUSH4 0x387BB30E EQ PUSH2 0x114 JUMPI DUP1 PUSH4 0x4C3BA6FD EQ PUSH2 0x127 JUMPI DUP1 PUSH4 0x6AA81299 EQ PUSH2 0x155 JUMPI JUMPDEST PUSH0 DUP1 REVERT JUMPDEST PUSH2 0x112 PUSH2 0x10D CALLDATASIZE PUSH1 0x4 PUSH2 0x3535 JUMP JUMPDEST PUSH2 0x2AC JUMP JUMPDEST STOP JUMPDEST PUSH2 0x112 PUSH2 0x122 CALLDATASIZE PUSH1 0x4 PUSH2 0x362F JUMP JUMPDEST PUSH2 0x686 JUMP JUMPDEST PUSH2 0x13A PUSH2 0x135 CALLDATASIZE PUSH1 0x4 PUSH2 0x36F6 JUMP JUMPDEST PUSH2 0xB52 JUMP JUMPDEST PUSH1 0x40 MLOAD PUSH2 0x14C SWAP7 SWAP6 SWAP5 SWAP4 SWAP3 SWAP2 SWAP1 PUSH2 0x3762 JUMP JUMPDEST PUSH1 0x40 MLOAD DUP1 SWAP2 SUB SWAP1 RETURN JUMPDEST PUSH2 0x168 PUSH2 0x163 CALLDATASIZE PUSH1 0x4 PUSH2 0x37D4 JUMP JUMPDEST PUSH2 0xDB7 JUMP JUMPDEST PUSH1 0x40 MLOAD PUSH2 0x14C SWAP5 SWAP4 SWAP3 SWAP2 SWAP1 PUSH2 0x38BF JUMP JUMPDEST PUSH2 0x112 PUSH2 0x186 CALLDATASIZE PUSH1 0x4 PUSH2 0x362F JUMP JUMPDEST PUSH2 0x11DB JUMP JUMPDEST PUSH2 0x19E PUSH2 0x199 CALLDATASIZE PUSH1 0x4 PUSH2 0x37D4 JUMP JUMPDEST PUSH2 0x1686 JUMP JUMPDEST PUSH1 0x40 MLOAD PUSH2 0x14C SWAP2 SWAP1 PUSH2 0x3907 JUMP JUMPDEST PUSH2 0x1BE PUSH2 0x1B9 CALLDATASIZE PUSH1 0x4 PUSH2 0x37D4 JUMP JUMPDEST PUSH2 0x1AFA JUMP JUMPDEST PUSH1 0x40 MLOAD PUSH2 0x14C SWAP2 SWAP1 PUSH2 0x397A JUMP JUMPDEST PUSH2 0x1DE PUSH2 0x1D9 CALLDATASIZE PUSH1 0x4 PUSH2 0x37D4 JUMP JUMPDEST PUSH2 0x1F65 JUMP JUMPDEST PUSH1 0x40 MLOAD PUSH2 0x14C SWAP5 SWAP4 SWAP3 SWAP2 SWAP1 PUSH2 0x39F1 JUMP JUMPDEST PUSH2 0x201 PUSH2 0x1FC CALLDATASIZE PUSH1 0x4 PUSH2 0x3A44 JUMP JUMPDEST PUSH2 0x1F8B JUMP JUMPDEST PUSH1 0x40 MLOAD PUSH1 0xFF SWAP1 SWAP2 AND DUP2 MSTORE PUSH1 0x20 ADD PUSH2 0x14C JUMP JUMPDEST PUSH2 0x112 PUSH2 0x221 CALLDATASIZE PUSH1 0x4 PUSH2 0x3535 JUMP JUMPDEST PUSH2 0x1FDA JUMP JUMPDEST PUSH2 0x239 PUSH2 0x234 CALLDATASIZE PUSH1 0x4 PUSH2 0x37D4 JUMP JUMPDEST PUSH2 0x2361 JUMP JUMPDEST PUSH1 0x40 MLOAD PUSH2 0x14C SWAP2 SWAP1 PUSH2 0x3A85 JUMP JUMPDEST PUSH2 0x239 PUSH2 0x2733 JUMP JUMPDEST PUSH2 0x112 PUSH2 0x25C CALLDATASIZE PUSH1 0x4 PUSH2 0x3B78 JUMP JUMPDEST PUSH2 0x2B24 JUMP JUMPDEST PUSH2 0x274 PUSH2 0x26F CALLDATASIZE PUSH1 0x4 PUSH2 0x37D4 JUMP JUMPDEST PUSH2 0x2C25 JUMP JUMPDEST PUSH1 0x40 MLOAD PUSH2 0x14C SWAP2 SWAP1 PUSH2 0x3BFD JUMP JUMPDEST PUSH2 0x294 PUSH2 0x28F CALLDATASIZE PUSH1 0x4 PUSH2 0x3C42 JUMP JUMPDEST PUSH2 0x2CB0 JUMP JUMPDEST PUSH1 0x40 MLOAD PUSH2 0x14C SWAP5 SWAP4 SWAP3 SWAP2 SWAP1 PUSH2 0x3C5D JUMP JUMPDEST PUSH2 0x239 PUSH2 0x2D5B JUMP JUMPDEST PUSH0 PUSH1 0x1 DUP4 PUSH1 0x20 ADD MLOAD PUSH1 0x40 MLOAD PUSH2 0x2C1 SWAP2 SWAP1 PUSH2 0x3CA7 JUMP JUMPDEST SWAP1 DUP2 MSTORE PUSH1 0x20 ADD PUSH1 0x40 MLOAD DUP1 SWAP2 SUB SWAP1 KECCAK256 SWAP1 POP PUSH0 DUP2 PUSH0 ADD DUP1 SLOAD PUSH2 0x2E0 SWAP1 PUSH2 0x3CBD JUMP JUMPDEST SWAP1 POP GT PUSH2 0x326 JUMPI PUSH1 0x40 MLOAD PUSH3 0x461BCD PUSH1 0xE5 SHL DUP2 MSTORE PUSH1 0x20 PUSH1 0x4 DUP3 ADD MSTORE PUSH1 0xF PUSH1 0x24 DUP3 ADD MSTORE PUSH15 0x10D413D510881B9BDD08199BDD5B99 PUSH1 0x8A SHL PUSH1 0x44 DUP3 ADD MSTORE PUSH1 0x64 ADD JUMPDEST PUSH1 0x40 MLOAD DUP1 SWAP2 SUB SWAP1 REVERT JUMPDEST PUSH0 PUSH1 0x2 DUP3 ADD SLOAD PUSH1 0xFF AND PUSH1 0x1 DUP2 GT ISZERO PUSH2 0x340 JUMPI PUSH2 0x340 PUSH2 0x373B JUMP JUMPDEST EQ PUSH2 0x38D JUMPI PUSH1 0x40 MLOAD PUSH3 0x461BCD PUSH1 0xE5 SHL DUP2 MSTORE PUSH1 0x20 PUSH1 0x4 DUP3 ADD DUP2 SWAP1 MSTORE PUSH1 0x24 DUP3 ADD MSTORE PUSH32 0x43504F544220737461747573206D757374206265202752657175657374656427 PUSH1 0x44 DUP3 ADD MSTORE PUSH1 0x64 ADD PUSH2 0x31D JUMP JUMPDEST PUSH2 0x3A0 DUP4 PUSH1 0x40 ADD MLOAD CALLER DUP6 PUSH1 0x60 ADD MLOAD PUSH2 0x314E JUMP JUMPDEST DUP1 MLOAD PUSH1 0x8 DUP4 ADD SWAP1 DUP2 SWAP1 PUSH2 0x3B3 SWAP1 DUP3 PUSH2 0x3D41 JUMP JUMPDEST POP PUSH1 0x20 DUP3 ADD MLOAD PUSH1 0x1 DUP3 ADD DUP1 SLOAD PUSH1 0x1 PUSH1 0x1 PUSH1 0xA0 SHL SUB NOT AND PUSH1 0x1 PUSH1 0x1 PUSH1 0xA0 SHL SUB SWAP1 SWAP3 AND SWAP2 SWAP1 SWAP2 OR SWAP1 SSTORE PUSH1 0x40 DUP3 ADD MLOAD PUSH1 0x2 DUP3 ADD SWAP1 PUSH2 0x3EE SWAP1 DUP3 PUSH2 0x3D41 JUMP JUMPDEST POP POP POP PUSH1 0x2 DUP2 ADD DUP1 SLOAD PUSH1 0xFF NOT AND PUSH1 0x1 SWAP1 DUP2 OR SWAP1 SWAP2 SSTORE TIMESTAMP PUSH1 0x4 DUP4 ADD SSTORE DUP4 MLOAD SWAP1 DUP3 ADD SWAP1 PUSH2 0x419 SWAP1 DUP3 PUSH2 0x3D41 JUMP JUMPDEST POP PUSH1 0x7 DUP2 ADD DUP1 SLOAD PUSH0 SWAP2 SWAP1 PUSH2 0x42C SWAP1 PUSH2 0x3CBD JUMP JUMPDEST DUP1 PUSH1 0x1F ADD PUSH1 0x20 DUP1 SWAP2 DIV MUL PUSH1 0x20 ADD PUSH1 0x40 MLOAD SWAP1 DUP2 ADD PUSH1 0x40 MSTORE DUP1 SWAP3 SWAP2 SWAP1 DUP2 DUP2 MSTORE PUSH1 0x20 ADD DUP3 DUP1 SLOAD PUSH2 0x458 SWAP1 PUSH2 0x3CBD JUMP JUMPDEST DUP1 ISZERO PUSH2 0x4A3 JUMPI DUP1 PUSH1 0x1F LT PUSH2 0x47A JUMPI PUSH2 0x100 DUP1 DUP4 SLOAD DIV MUL DUP4 MSTORE SWAP2 PUSH1 0x20 ADD SWAP2 PUSH2 0x4A3 JUMP JUMPDEST DUP3 ADD SWAP2 SWAP1 PUSH0 MSTORE PUSH1 0x20 PUSH0 KECCAK256 SWAP1 JUMPDEST DUP2 SLOAD DUP2 MSTORE SWAP1 PUSH1 0x1 ADD SWAP1 PUSH1 0x20 ADD DUP1 DUP4 GT PUSH2 0x486 JUMPI DUP3 SWAP1 SUB PUSH1 0x1F AND DUP3 ADD SWAP2 JUMPDEST POP POP POP POP POP SWAP1 POP PUSH1 0x3 DUP2 PUSH1 0x40 MLOAD PUSH2 0x4BA SWAP2 SWAP1 PUSH2 0x3CA7 JUMP JUMPDEST SWAP1 DUP2 MSTORE PUSH1 0x20 ADD PUSH1 0x40 MLOAD DUP1 SWAP2 SUB SWAP1 KECCAK256 DUP4 PUSH1 0xFF AND PUSH1 0x8 DUP2 GT ISZERO PUSH2 0x4DD JUMPI PUSH2 0x4DD PUSH2 0x373B JUMP JUMPDEST PUSH1 0x8 DUP2 GT ISZERO PUSH2 0x4EE JUMPI PUSH2 0x4EE PUSH2 0x373B JUMP JUMPDEST DUP2 SLOAD PUSH1 0x1 DUP2 ADD DUP4 SSTORE PUSH0 SWAP3 DUP4 MSTORE PUSH1 0x20 DUP1 DUP5 KECCAK256 SWAP1 DUP3 DIV ADD DUP1 SLOAD PUSH1 0xFF SWAP4 DUP5 AND PUSH1 0x1F SWAP1 SWAP4 AND PUSH2 0x100 EXP SWAP3 DUP4 MUL SWAP4 SWAP1 SWAP3 MUL NOT SWAP1 SWAP2 AND SWAP2 SWAP1 SWAP2 OR SWAP1 SSTORE JUMPDEST PUSH1 0x4 SLOAD DUP2 LT ISZERO PUSH2 0x627 JUMPI PUSH1 0x20 DUP1 DUP7 ADD MLOAD PUSH1 0x40 MLOAD PUSH2 0x542 SWAP3 ADD PUSH2 0x3CA7 JUMP JUMPDEST PUSH1 0x40 MLOAD PUSH1 0x20 DUP2 DUP4 SUB SUB DUP2 MSTORE SWAP1 PUSH1 0x40 MSTORE DUP1 MLOAD SWAP1 PUSH1 0x20 ADD KECCAK256 PUSH1 0x4 DUP3 DUP2 SLOAD DUP2 LT PUSH2 0x56B JUMPI PUSH2 0x56B PUSH2 0x3DFB JUMP JUMPDEST SWAP1 PUSH0 MSTORE PUSH1 0x20 PUSH0 KECCAK256 SWAP1 PUSH1 0x5 MUL ADD PUSH0 ADD PUSH1 0x40 MLOAD PUSH1 0x20 ADD PUSH2 0x589 SWAP2 SWAP1 PUSH2 0x3E0F JUMP JUMPDEST PUSH1 0x40 MLOAD PUSH1 0x20 DUP2 DUP4 SUB SUB DUP2 MSTORE SWAP1 PUSH1 0x40 MSTORE DUP1 MLOAD SWAP1 PUSH1 0x20 ADD KECCAK256 SUB PUSH2 0x61F JUMPI DUP5 MLOAD PUSH1 0x4 DUP1 SLOAD DUP4 SWAP1 DUP2 LT PUSH2 0x5BA JUMPI PUSH2 0x5BA PUSH2 0x3DFB JUMP JUMPDEST SWAP1 PUSH0 MSTORE PUSH1 0x20 PUSH0 KECCAK256 SWAP1 PUSH1 0x5 MUL ADD PUSH1 0x1 ADD SWAP1 DUP2 PUSH2 0x5D5 SWAP2 SWAP1 PUSH2 0x3D41 JUMP JUMPDEST POP PUSH1 0x1 PUSH1 0x4 DUP3 DUP2 SLOAD DUP2 LT PUSH2 0x5EB JUMPI PUSH2 0x5EB PUSH2 0x3DFB JUMP JUMPDEST PUSH0 SWAP2 DUP3 MSTORE PUSH1 0x20 SWAP1 SWAP2 KECCAK256 PUSH1 0x4 PUSH1 0x5 SWAP1 SWAP3 MUL ADD ADD DUP1 SLOAD PUSH2 0xFF00 NOT AND PUSH2 0x100 DUP4 PUSH1 0x1 DUP2 GT ISZERO PUSH2 0x619 JUMPI PUSH2 0x619 PUSH2 0x373B JUMP JUMPDEST MUL OR SWAP1 SSTORE POP JUMPDEST PUSH1 0x1 ADD PUSH2 0x525 JUMP JUMPDEST POP PUSH32 0x5F0795F9828E754B342C66DC560F8879D7982CA16FBEB97634E54F75BD39BFD7 DUP5 PUSH1 0x60 ADD MLOAD CALLER DUP6 PUSH1 0xFF AND PUSH1 0x8 DUP2 GT ISZERO PUSH2 0x664 JUMPI PUSH2 0x664 PUSH2 0x373B JUMP JUMPDEST DUP8 MLOAD PUSH1 0x40 MLOAD PUSH2 0x678 SWAP5 SWAP4 SWAP3 SWAP2 SWAP1 TIMESTAMP SWAP1 PUSH2 0x3E80 JUMP JUMPDEST PUSH1 0x40 MLOAD DUP1 SWAP2 SUB SWAP1 LOG1 POP POP POP POP JUMP JUMPDEST PUSH0 DUP1 SLOAD PUSH1 0x40 MLOAD PUSH4 0x95A8C58D PUSH1 0xE0 SHL DUP2 MSTORE PUSH1 0x1 PUSH1 0x1 PUSH1 0xA0 SHL SUB SWAP1 SWAP2 AND SWAP2 PUSH4 0x95A8C58D SWAP2 PUSH2 0x6B6 SWAP2 CALLER SWAP2 PUSH1 0x4 ADD PUSH2 0x3EE3 JUMP JUMPDEST PUSH1 0x20 PUSH1 0x40 MLOAD DUP1 DUP4 SUB DUP2 DUP7 GAS STATICCALL ISZERO DUP1 ISZERO PUSH2 0x6D1 JUMPI RETURNDATASIZE PUSH0 DUP1 RETURNDATACOPY RETURNDATASIZE PUSH0 REVERT JUMPDEST POP POP POP POP PUSH1 0x40 MLOAD RETURNDATASIZE PUSH1 0x1F NOT PUSH1 0x1F DUP3 ADD AND DUP3 ADD DUP1 PUSH1 0x40 MSTORE POP DUP2 ADD SWAP1 PUSH2 0x6F5 SWAP2 SWAP1 PUSH2 0x3F00 JUMP JUMPDEST PUSH2 0x74B JUMPI PUSH1 0x40 MLOAD PUSH3 0x461BCD PUSH1 0xE5 SHL DUP2 MSTORE PUSH1 0x20 PUSH1 0x4 DUP3 ADD MSTORE PUSH1 0x21 PUSH1 0x24 DUP3 ADD MSTORE PUSH32 0x416363657373207265737472696374656420746F20466163746F727920726F6C PUSH1 0x44 DUP3 ADD MSTORE PUSH1 0x65 PUSH1 0xF8 SHL PUSH1 0x64 DUP3 ADD MSTORE PUSH1 0x84 ADD PUSH2 0x31D JUMP JUMPDEST DUP2 MLOAD PUSH1 0x40 MLOAD PUSH1 0x1 SWAP2 PUSH2 0x75C SWAP2 PUSH2 0x3CA7 JUMP JUMPDEST SWAP1 DUP2 MSTORE PUSH1 0x40 MLOAD SWAP1 DUP2 SWAP1 SUB PUSH1 0x20 ADD SWAP1 KECCAK256 DUP1 SLOAD PUSH2 0x776 SWAP1 PUSH2 0x3CBD JUMP JUMPDEST ISZERO SWAP1 POP PUSH2 0x7C5 JUMPI PUSH1 0x40 MLOAD PUSH3 0x461BCD PUSH1 0xE5 SHL DUP2 MSTORE PUSH1 0x20 PUSH1 0x4 DUP3 ADD MSTORE PUSH1 0x17 PUSH1 0x24 DUP3 ADD MSTORE PUSH32 0x43504F544220494420616C726561647920657869737473000000000000000000 PUSH1 0x44 DUP3 ADD MSTORE PUSH1 0x64 ADD PUSH2 0x31D JUMP JUMPDEST PUSH0 PUSH2 0x7D9 DUP4 PUSH1 0x20 ADD MLOAD CALLER DUP6 PUSH1 0x40 ADD MLOAD PUSH2 0x314E JUMP JUMPDEST SWAP1 POP PUSH0 PUSH2 0x803 PUSH1 0x40 MLOAD DUP1 PUSH1 0x20 ADD PUSH1 0x40 MSTORE DUP1 PUSH0 DUP2 MSTORE POP PUSH0 PUSH1 0x40 MLOAD DUP1 PUSH1 0x20 ADD PUSH1 0x40 MSTORE DUP1 PUSH0 DUP2 MSTORE POP PUSH2 0x314E JUMP JUMPDEST SWAP1 POP PUSH0 PUSH2 0x810 DUP4 DUP4 PUSH2 0x3181 JUMP JUMPDEST PUSH1 0x40 DUP1 MLOAD PUSH1 0x80 DUP2 ADD DUP3 MSTORE DUP8 MLOAD DUP2 MSTORE DUP2 MLOAD PUSH1 0x20 DUP2 DUP2 ADD DUP5 MSTORE PUSH0 DUP3 MSTORE DUP3 ADD MSTORE SWAP1 DUP2 ADD DUP3 SWAP1 MSTORE SWAP1 SWAP2 POP PUSH1 0x60 DUP2 ADD PUSH1 0xFF DUP7 AND PUSH1 0x8 DUP2 GT ISZERO PUSH2 0x84F JUMPI PUSH2 0x84F PUSH2 0x373B JUMP JUMPDEST PUSH1 0x8 DUP2 GT ISZERO PUSH2 0x860 JUMPI PUSH2 0x860 PUSH2 0x373B JUMP JUMPDEST SWAP1 MSTORE DUP6 MLOAD PUSH1 0x40 MLOAD PUSH1 0x1 SWAP2 PUSH2 0x873 SWAP2 PUSH2 0x3CA7 JUMP JUMPDEST SWAP1 DUP2 MSTORE PUSH1 0x40 MLOAD SWAP1 DUP2 SWAP1 SUB PUSH1 0x20 ADD SWAP1 KECCAK256 DUP2 MLOAD DUP2 SWAP1 PUSH2 0x890 SWAP1 DUP3 PUSH2 0x3D41 JUMP JUMPDEST POP PUSH1 0x20 DUP3 ADD MLOAD PUSH1 0x1 DUP3 ADD SWAP1 PUSH2 0x8A5 SWAP1 DUP3 PUSH2 0x3D41 JUMP JUMPDEST POP PUSH1 0x40 DUP3 ADD MLOAD DUP1 MLOAD PUSH1 0x2 DUP4 ADD DUP1 SLOAD SWAP1 SWAP2 SWAP1 DUP3 SWAP1 PUSH1 0xFF NOT AND PUSH1 0x1 DUP4 DUP2 DUP2 GT ISZERO PUSH2 0x8CF JUMPI PUSH2 0x8CF PUSH2 0x373B JUMP JUMPDEST MUL OR SWAP1 SSTORE POP PUSH1 0x20 DUP3 ADD MLOAD PUSH1 0x1 DUP3 ADD SSTORE PUSH1 0x40 DUP3 ADD MLOAD PUSH1 0x2 DUP3 ADD SSTORE PUSH1 0x60 DUP3 ADD MLOAD DUP1 MLOAD PUSH1 0x3 DUP4 ADD SWAP1 DUP2 SWAP1 PUSH2 0x900 SWAP1 DUP3 PUSH2 0x3D41 JUMP JUMPDEST POP PUSH1 0x20 DUP3 ADD MLOAD PUSH1 0x1 DUP3 ADD DUP1 SLOAD PUSH1 0x1 PUSH1 0x1 PUSH1 0xA0 SHL SUB NOT AND PUSH1 0x1 PUSH1 0x1 PUSH1 0xA0 SHL SUB SWAP1 SWAP3 AND SWAP2 SWAP1 SWAP2 OR SWAP1 SSTORE PUSH1 0x40 DUP3 ADD MLOAD PUSH1 0x2 DUP3 ADD SWAP1 PUSH2 0x93B SWAP1 DUP3 PUSH2 0x3D41 JUMP JUMPDEST POP POP POP PUSH1 0x80 DUP3 ADD MLOAD DUP1 MLOAD PUSH1 0x6 DUP4 ADD SWAP1 DUP2 SWAP1 PUSH2 0x956 SWAP1 DUP3 PUSH2 0x3D41 JUMP JUMPDEST POP PUSH1 0x20 DUP3 ADD MLOAD PUSH1 0x1 DUP3 ADD DUP1 SLOAD PUSH1 0x1 PUSH1 0x1 PUSH1 0xA0 SHL SUB NOT AND PUSH1 0x1 PUSH1 0x1 PUSH1 0xA0 SHL SUB SWAP1 SWAP3 AND SWAP2 SWAP1 SWAP2 OR SWAP1 SSTORE PUSH1 0x40 DUP3 ADD MLOAD PUSH1 0x2 DUP3 ADD SWAP1 PUSH2 0x991 SWAP1 DUP3 PUSH2 0x3D41 JUMP JUMPDEST POP POP POP POP PUSH1 0x60 DUP4 ADD MLOAD PUSH1 0xB DUP4 ADD DUP1 SLOAD SWAP2 SWAP3 POP SWAP1 PUSH1 0xFF NOT AND PUSH1 0x1 DUP4 PUSH1 0x8 DUP2 GT ISZERO PUSH2 0x9BC JUMPI PUSH2 0x9BC PUSH2 0x373B JUMP JUMPDEST MUL OR SWAP1 SSTORE POP SWAP1 POP POP PUSH0 PUSH2 0xA2A DUP7 PUSH0 ADD MLOAD PUSH1 0x40 MLOAD DUP1 PUSH1 0x20 ADD PUSH1 0x40 MSTORE DUP1 PUSH0 DUP2 MSTORE POP DUP9 PUSH1 0x40 ADD MLOAD DUP9 PUSH1 0xFF AND PUSH1 0x8 DUP2 GT ISZERO PUSH2 0x9F5 JUMPI PUSH2 0x9F5 PUSH2 0x373B JUMP JUMPDEST PUSH1 0x8 DUP2 GT ISZERO PUSH2 0xA06 JUMPI PUSH2 0xA06 PUSH2 0x373B JUMP JUMPDEST PUSH1 0x40 MLOAD DUP1 PUSH1 0x40 ADD PUSH1 0x40 MSTORE DUP1 PUSH1 0x5 DUP2 MSTORE PUSH1 0x20 ADD PUSH5 0x31B837BA31 PUSH1 0xD9 SHL DUP2 MSTORE POP PUSH0 PUSH2 0x31B5 JUMP JUMPDEST PUSH1 0x4 DUP1 SLOAD PUSH1 0x1 DUP2 ADD DUP3 SSTORE PUSH0 SWAP2 SWAP1 SWAP2 MSTORE DUP2 MLOAD SWAP2 SWAP3 POP DUP3 SWAP2 PUSH1 0x5 SWAP1 SWAP2 MUL PUSH32 0x8A35ACFBC15FF81A39AE7D344FD709F28E8600B4AA8C65C6B64BFE7FE36BD19B ADD SWAP1 DUP2 SWAP1 PUSH2 0xA74 SWAP1 DUP3 PUSH2 0x3D41 JUMP JUMPDEST POP PUSH1 0x20 DUP3 ADD MLOAD PUSH1 0x1 DUP3 ADD SWAP1 PUSH2 0xA89 SWAP1 DUP3 PUSH2 0x3D41 JUMP JUMPDEST POP PUSH1 0x40 DUP3 ADD MLOAD PUSH1 0x2 DUP3 ADD SWAP1 PUSH2 0xA9E SWAP1 DUP3 PUSH2 0x3D41 JUMP JUMPDEST POP PUSH1 0x60 DUP3 ADD MLOAD PUSH1 0x3 DUP3 ADD SWAP1 PUSH2 0xAB3 SWAP1 DUP3 PUSH2 0x3D41 JUMP JUMPDEST POP PUSH1 0x80 DUP3 ADD MLOAD PUSH1 0x4 DUP3 ADD DUP1 SLOAD PUSH1 0xFF SWAP1 SWAP3 AND PUSH1 0xFF NOT DUP4 AND DUP2 OR DUP3 SSTORE PUSH1 0xA0 DUP6 ADD MLOAD SWAP3 PUSH2 0xFFFF NOT AND OR PUSH2 0x100 DUP4 PUSH1 0x1 DUP2 GT ISZERO PUSH2 0xAEE JUMPI PUSH2 0xAEE PUSH2 0x373B JUMP JUMPDEST MUL OR SWAP1 SSTORE POP POP POP PUSH32 0x99DCABD81899D5894D4391D9586C557B10A0D34A881ADFC4769AD41E9166CDA0 DUP7 PUSH1 0x40 ADD MLOAD CALLER DUP8 PUSH1 0xFF AND PUSH1 0x8 DUP2 GT ISZERO PUSH2 0xB31 JUMPI PUSH2 0xB31 PUSH2 0x373B JUMP JUMPDEST TIMESTAMP PUSH1 0x40 MLOAD PUSH2 0xB42 SWAP5 SWAP4 SWAP3 SWAP2 SWAP1 PUSH2 0x3F1F JUMP JUMPDEST PUSH1 0x40 MLOAD DUP1 SWAP2 SUB SWAP1 LOG1 POP POP POP POP POP POP JUMP JUMPDEST PUSH1 0x4 DUP2 DUP2 SLOAD DUP2 LT PUSH2 0xB61 JUMPI PUSH0 DUP1 REVERT JUMPDEST SWAP1 PUSH0 MSTORE PUSH1 0x20 PUSH0 KECCAK256 SWAP1 PUSH1 0x5 MUL ADD PUSH0 SWAP2 POP SWAP1 POP DUP1 PUSH0 ADD DUP1 SLOAD PUSH2 0xB80 SWAP1 PUSH2 0x3CBD JUMP JUMPDEST DUP1 PUSH1 0x1F ADD PUSH1 0x20 DUP1 SWAP2 DIV MUL PUSH1 0x20 ADD PUSH1 0x40 MLOAD SWAP1 DUP2 ADD PUSH1 0x40 MSTORE DUP1 SWAP3 SWAP2 SWAP1 DUP2 DUP2 MSTORE PUSH1 0x20 ADD DUP3 DUP1 SLOAD PUSH2 0xBAC SWAP1 PUSH2 0x3CBD JUMP JUMPDEST DUP1 ISZERO PUSH2 0xBF7 JUMPI DUP1 PUSH1 0x1F LT PUSH2 0xBCE JUMPI PUSH2 0x100 DUP1 DUP4 SLOAD DIV MUL DUP4 MSTORE SWAP2 PUSH1 0x20 ADD SWAP2 PUSH2 0xBF7 JUMP JUMPDEST DUP3 ADD SWAP2 SWAP1 PUSH0 MSTORE PUSH1 0x20 PUSH0 KECCAK256 SWAP1 JUMPDEST DUP2 SLOAD DUP2 MSTORE SWAP1 PUSH1 0x1 ADD SWAP1 PUSH1 0x20 ADD DUP1 DUP4 GT PUSH2 0xBDA JUMPI DUP3 SWAP1 SUB PUSH1 0x1F AND DUP3 ADD SWAP2 JUMPDEST POP POP POP POP POP SWAP1 DUP1 PUSH1 0x1 ADD DUP1 SLOAD PUSH2 0xC0C SWAP1 PUSH2 0x3CBD JUMP JUMPDEST DUP1 PUSH1 0x1F ADD PUSH1 0x20 DUP1 SWAP2 DIV MUL PUSH1 0x20 ADD PUSH1 0x40 MLOAD SWAP1 DUP2 ADD PUSH1 0x40 MSTORE DUP1 SWAP3 SWAP2 SWAP1 DUP2 DUP2 MSTORE PUSH1 0x20 ADD DUP3 DUP1 SLOAD PUSH2 0xC38 SWAP1 PUSH2 0x3CBD JUMP JUMPDEST DUP1 ISZERO PUSH2 0xC83 JUMPI DUP1 PUSH1 0x1F LT PUSH2 0xC5A JUMPI PUSH2 0x100 DUP1 DUP4 SLOAD DIV MUL DUP4 MSTORE SWAP2 PUSH1 0x20 ADD SWAP2 PUSH2 0xC83 JUMP JUMPDEST DUP3 ADD SWAP2 SWAP1 PUSH0 MSTORE PUSH1 0x20 PUSH0 KECCAK256 SWAP1 JUMPDEST DUP2 SLOAD DUP2 MSTORE SWAP1 PUSH1 0x1 ADD SWAP1 PUSH1 0x20 ADD DUP1 DUP4 GT PUSH2 0xC66 JUMPI DUP3 SWAP1 SUB PUSH1 0x1F AND DUP3 ADD SWAP2 JUMPDEST POP POP POP POP POP SWAP1 DUP1 PUSH1 0x2 ADD DUP1 SLOAD PUSH2 0xC98 SWAP1 PUSH2 0x3CBD JUMP JUMPDEST DUP1 PUSH1 0x1F ADD PUSH1 0x20 DUP1 SWAP2 DIV MUL PUSH1 0x20 ADD PUSH1 0x40 MLOAD SWAP1 DUP2 ADD PUSH1 0x40 MSTORE DUP1 SWAP3 SWAP2 SWAP1 DUP2 DUP2 MSTORE PUSH1 0x20 ADD DUP3 DUP1 SLOAD PUSH2 0xCC4 SWAP1 PUSH2 0x3CBD JUMP JUMPDEST DUP1 ISZERO PUSH2 0xD0F JUMPI DUP1 PUSH1 0x1F LT PUSH2 0xCE6 JUMPI PUSH2 0x100 DUP1 DUP4 SLOAD DIV MUL DUP4 MSTORE SWAP2 PUSH1 0x20 ADD SWAP2 PUSH2 0xD0F JUMP JUMPDEST DUP3 ADD SWAP2 SWAP1 PUSH0 MSTORE PUSH1 0x20 PUSH0 KECCAK256 SWAP1 JUMPDEST DUP2 SLOAD DUP2 MSTORE SWAP1 PUSH1 0x1 ADD SWAP1 PUSH1 0x20 ADD DUP1 DUP4 GT PUSH2 0xCF2 JUMPI DUP3 SWAP1 SUB PUSH1 0x1F AND DUP3 ADD SWAP2 JUMPDEST POP POP POP POP POP SWAP1 DUP1 PUSH1 0x3 ADD DUP1 SLOAD PUSH2 0xD24 SWAP1 PUSH2 0x3CBD JUMP JUMPDEST DUP1 PUSH1 0x1F ADD PUSH1 0x20 DUP1 SWAP2 DIV MUL PUSH1 0x20 ADD PUSH1 0x40 MLOAD SWAP1 DUP2 ADD PUSH1 0x40 MSTORE DUP1 SWAP3 SWAP2 SWAP1 DUP2 DUP2 MSTORE PUSH1 0x20 ADD DUP3 DUP1 SLOAD PUSH2 0xD50 SWAP1 PUSH2 0x3CBD JUMP JUMPDEST DUP1 ISZERO PUSH2 0xD9B JUMPI DUP1 PUSH1 0x1F LT PUSH2 0xD72 JUMPI PUSH2 0x100 DUP1 DUP4 SLOAD DIV MUL DUP4 MSTORE SWAP2 PUSH1 0x20 ADD SWAP2 PUSH2 0xD9B JUMP JUMPDEST DUP3 ADD SWAP2 SWAP1 PUSH0 MSTORE PUSH1 0x20 PUSH0 KECCAK256 SWAP1 JUMPDEST DUP2 SLOAD DUP2 MSTORE SWAP1 PUSH1 0x1 ADD SWAP1 PUSH1 0x20 ADD DUP1 DUP4 GT PUSH2 0xD7E JUMPI DUP3 SWAP1 SUB PUSH1 0x1F AND DUP3 ADD SWAP2 JUMPDEST POP POP POP PUSH1 0x4 SWAP1 SWAP4 ADD SLOAD SWAP2 SWAP3 POP POP PUSH1 0xFF DUP1 DUP3 AND SWAP2 PUSH2 0x100 SWAP1 DIV AND DUP7 JUMP JUMPDEST DUP1 MLOAD PUSH1 0x20 DUP2 DUP4 ADD DUP2 ADD DUP1 MLOAD PUSH1 0x1 DUP3 MSTORE SWAP3 DUP3 ADD SWAP2 SWAP1 SWAP4 ADD KECCAK256 SWAP2 MSTORE DUP1 SLOAD DUP2 SWAP1 PUSH2 0xDDD SWAP1 PUSH2 0x3CBD JUMP JUMPDEST DUP1 PUSH1 0x1F ADD PUSH1 0x20 DUP1 SWAP2 DIV MUL PUSH1 0x20 ADD PUSH1 0x40 MLOAD SWAP1 DUP2 ADD PUSH1 0x40 MSTORE DUP1 SWAP3 SWAP2 SWAP1 DUP2 DUP2 MSTORE PUSH1 0x20 ADD DUP3 DUP1 SLOAD PUSH2 0xE09 SWAP1 PUSH2 0x3CBD JUMP JUMPDEST DUP1 ISZERO PUSH2 0xE54 JUMPI DUP1 PUSH1 0x1F LT PUSH2 0xE2B JUMPI PUSH2 0x100 DUP1 DUP4 SLOAD DIV MUL DUP4 MSTORE SWAP2 PUSH1 0x20 ADD SWAP2 PUSH2 0xE54 JUMP JUMPDEST DUP3 ADD SWAP2 SWAP1 PUSH0 MSTORE PUSH1 0x20 PUSH0 KECCAK256 SWAP1 JUMPDEST DUP2 SLOAD DUP2 MSTORE SWAP1 PUSH1 0x1 ADD SWAP1 PUSH1 0x20 ADD DUP1 DUP4 GT PUSH2 0xE37 JUMPI DUP3 SWAP1 SUB PUSH1 0x1F AND DUP3 ADD SWAP2 JUMPDEST POP POP POP POP POP SWAP1 DUP1 PUSH1 0x1 ADD DUP1 SLOAD PUSH2 0xE69 SWAP1 PUSH2 0x3CBD JUMP JUMPDEST DUP1 PUSH1 0x1F ADD PUSH1 0x20 DUP1 SWAP2 DIV MUL PUSH1 0x20 ADD PUSH1 0x40 MLOAD SWAP1 DUP2 ADD PUSH1 0x40 MSTORE DUP1 SWAP3 SWAP2 SWAP1 DUP2 DUP2 MSTORE PUSH1 0x20 ADD DUP3 DUP1 SLOAD PUSH2 0xE95 SWAP1 PUSH2 0x3CBD JUMP JUMPDEST DUP1 ISZERO PUSH2 0xEE0 JUMPI DUP1 PUSH1 0x1F LT PUSH2 0xEB7 JUMPI PUSH2 0x100 DUP1 DUP4 SLOAD DIV MUL DUP4 MSTORE SWAP2 PUSH1 0x20 ADD SWAP2 PUSH2 0xEE0 JUMP JUMPDEST DUP3 ADD SWAP2 SWAP1 PUSH0 MSTORE PUSH1 0x20 PUSH0 KECCAK256 SWAP1 JUMPDEST DUP2 SLOAD DUP2 MSTORE SWAP1 PUSH1 0x1 ADD SWAP1 PUSH1 0x20 ADD DUP1 DUP4 GT PUSH2 0xEC3 JUMPI DUP3 SWAP1 SUB PUSH1 0x1F AND DUP3 ADD SWAP2 JUMPDEST POP POP PUSH1 0x40 DUP1 MLOAD PUSH1 0xA0 DUP2 ADD SWAP1 SWAP2 MSTORE PUSH1 0x2 DUP7 ADD DUP1 SLOAD SWAP6 SWAP7 SWAP6 SWAP2 SWAP5 POP SWAP3 POP DUP4 SWAP2 POP PUSH1 0xFF AND PUSH1 0x1 DUP2 GT ISZERO PUSH2 0xF12 JUMPI PUSH2 0xF12 PUSH2 0x373B JUMP JUMPDEST PUSH1 0x1 DUP2 GT ISZERO PUSH2 0xF23 JUMPI PUSH2 0xF23 PUSH2 0x373B JUMP JUMPDEST DUP2 MSTORE PUSH1 0x20 ADD PUSH1 0x1 DUP3 ADD SLOAD DUP2 MSTORE PUSH1 0x20 ADD PUSH1 0x2 DUP3 ADD SLOAD DUP2 MSTORE PUSH1 0x20 ADD PUSH1 0x3 DUP3 ADD PUSH1 0x40 MLOAD DUP1 PUSH1 0x60 ADD PUSH1 0x40 MSTORE SWAP1 DUP2 PUSH0 DUP3 ADD DUP1 SLOAD PUSH2 0xF5A SWAP1 PUSH2 0x3CBD JUMP JUMPDEST DUP1 PUSH1 0x1F ADD PUSH1 0x20 DUP1 SWAP2 DIV MUL PUSH1 0x20 ADD PUSH1 0x40 MLOAD SWAP1 DUP2 ADD PUSH1 0x40 MSTORE DUP1 SWAP3 SWAP2 SWAP1 DUP2 DUP2 MSTORE PUSH1 0x20 ADD DUP3 DUP1 SLOAD PUSH2 0xF86 SWAP1 PUSH2 0x3CBD JUMP JUMPDEST DUP1 ISZERO PUSH2 0xFD1 JUMPI DUP1 PUSH1 0x1F LT PUSH2 0xFA8 JUMPI PUSH2 0x100 DUP1 DUP4 SLOAD DIV MUL DUP4 MSTORE SWAP2 PUSH1 0x20 ADD SWAP2 PUSH2 0xFD1 JUMP JUMPDEST DUP3 ADD SWAP2 SWAP1 PUSH0 MSTORE PUSH1 0x20 PUSH0 KECCAK256 SWAP1 JUMPDEST DUP2 SLOAD DUP2 MSTORE SWAP1 PUSH1 0x1 ADD SWAP1 PUSH1 0x20 ADD DUP1 DUP4 GT PUSH2 0xFB4 JUMPI DUP3 SWAP1 SUB PUSH1 0x1F AND DUP3 ADD SWAP2 JUMPDEST POP POP POP SWAP2 DUP4 MSTORE POP POP PUSH1 0x1 DUP3 ADD SLOAD PUSH1 0x1 PUSH1 0x1 PUSH1 0xA0 SHL SUB AND PUSH1 0x20 DUP3 ADD MSTORE PUSH1 0x2 DUP3 ADD DUP1 SLOAD PUSH1 0x40 SWAP1 SWAP3 ADD SWAP2 PUSH2 0x1001 SWAP1 PUSH2 0x3CBD JUMP JUMPDEST DUP1 PUSH1 0x1F ADD PUSH1 0x20 DUP1 SWAP2 DIV MUL PUSH1 0x20 ADD PUSH1 0x40 MLOAD SWAP1 DUP2 ADD PUSH1 0x40 MSTORE DUP1 SWAP3 SWAP2 SWAP1 DUP2 DUP2 MSTORE PUSH1 0x20 ADD DUP3 DUP1 SLOAD PUSH2 0x102D SWAP1 PUSH2 0x3CBD JUMP JUMPDEST DUP1 ISZERO PUSH2 0x1078 JUMPI DUP1 PUSH1 0x1F LT PUSH2 0x104F JUMPI PUSH2 0x100 DUP1 DUP4 SLOAD DIV MUL DUP4 MSTORE SWAP2 PUSH1 0x20 ADD SWAP2 PUSH2 0x1078 JUMP JUMPDEST DUP3 ADD SWAP2 SWAP1 PUSH0 MSTORE PUSH1 0x20 PUSH0 KECCAK256 SWAP1 JUMPDEST DUP2 SLOAD DUP2 MSTORE SWAP1 PUSH1 0x1 ADD SWAP1 PUSH1 0x20 ADD DUP1 DUP4 GT PUSH2 0x105B JUMPI DUP3 SWAP1 SUB PUSH1 0x1F AND DUP3 ADD SWAP2 JUMPDEST POP POP POP POP POP DUP2 MSTORE POP POP DUP2 MSTORE PUSH1 0x20 ADD PUSH1 0x6 DUP3 ADD PUSH1 0x40 MLOAD DUP1 PUSH1 0x60 ADD PUSH1 0x40 MSTORE SWAP1 DUP2 PUSH0 DUP3 ADD DUP1 SLOAD PUSH2 0x10A4 SWAP1 PUSH2 0x3CBD JUMP JUMPDEST DUP1 PUSH1 0x1F ADD PUSH1 0x20 DUP1 SWAP2 DIV MUL PUSH1 0x20 ADD PUSH1 0x40 MLOAD SWAP1 DUP2 ADD PUSH1 0x40 MSTORE DUP1 SWAP3 SWAP2 SWAP1 DUP2 DUP2 MSTORE PUSH1 0x20 ADD DUP3 DUP1 SLOAD PUSH2 0x10D0 SWAP1 PUSH2 0x3CBD JUMP JUMPDEST DUP1 ISZERO PUSH2 0x111B JUMPI DUP1 PUSH1 0x1F LT PUSH2 0x10F2 JUMPI PUSH2 0x100 DUP1 DUP4 SLOAD DIV MUL DUP4 MSTORE SWAP2 PUSH1 0x20 ADD SWAP2 PUSH2 0x111B JUMP JUMPDEST DUP3 ADD SWAP2 SWAP1 PUSH0 MSTORE PUSH1 0x20 PUSH0 KECCAK256 SWAP1 JUMPDEST DUP2 SLOAD DUP2 MSTORE SWAP1 PUSH1 0x1 ADD SWAP1 PUSH1 0x20 ADD DUP1 DUP4 GT PUSH2 0x10FE JUMPI DUP3 SWAP1 SUB PUSH1 0x1F AND DUP3 ADD SWAP2 JUMPDEST POP POP POP SWAP2 DUP4 MSTORE POP POP PUSH1 0x1 DUP3 ADD SLOAD PUSH1 0x1 PUSH1 0x1 PUSH1 0xA0 SHL SUB AND PUSH1 0x20 DUP3 ADD MSTORE PUSH1 0x2 DUP3 ADD DUP1 SLOAD PUSH1 0x40 SWAP1 SWAP3 ADD SWAP2 PUSH2 0x114B SWAP1 PUSH2 0x3CBD JUMP JUMPDEST DUP1 PUSH1 0x1F ADD PUSH1 0x20 DUP1 SWAP2 DIV MUL PUSH1 0x20 ADD PUSH1 0x40 MLOAD SWAP1 DUP2 ADD PUSH1 0x40 MSTORE DUP1 SWAP3 SWAP2 SWAP1 DUP2 DUP2 MSTORE PUSH1 0x20 ADD DUP3 DUP1 SLOAD PUSH2 0x1177 SWAP1 PUSH2 0x3CBD JUMP JUMPDEST DUP1 ISZERO PUSH2 0x11C2 JUMPI DUP1 PUSH1 0x1F LT PUSH2 0x1199 JUMPI PUSH2 0x100 DUP1 DUP4 SLOAD DIV MUL DUP4 MSTORE SWAP2 PUSH1 0x20 ADD SWAP2 PUSH2 0x11C2 JUMP JUMPDEST DUP3 ADD SWAP2 SWAP1 PUSH0 MSTORE PUSH1 0x20 PUSH0 KECCAK256 SWAP1 JUMPDEST DUP2 SLOAD DUP2 MSTORE SWAP1 PUSH1 0x1 ADD SWAP1 PUSH1 0x20 ADD DUP1 DUP4 GT PUSH2 0x11A5 JUMPI DUP3 SWAP1 SUB PUSH1 0x1F AND DUP3 ADD SWAP2 JUMPDEST POP POP POP SWAP2 SWAP1 SWAP3 MSTORE POP POP POP SWAP1 MSTORE POP PUSH1 0xB SWAP1 SWAP2 ADD SLOAD PUSH1 0xFF AND DUP5 JUMP JUMPDEST PUSH0 SLOAD PUSH1 0x40 MLOAD PUSH4 0x95A8C58D PUSH1 0xE0 SHL DUP2 MSTORE PUSH1 0x1 PUSH1 0x1 PUSH1 0xA0 SHL SUB SWAP1 SWAP2 AND SWAP1 PUSH4 0x95A8C58D SWAP1 PUSH2 0x120D SWAP1 CALLER SWAP1 PUSH1 0x1 SWAP1 PUSH1 0x4 ADD PUSH2 0x3EE3 JUMP JUMPDEST PUSH1 0x20 PUSH1 0x40 MLOAD DUP1 DUP4 SUB DUP2 DUP7 GAS STATICCALL ISZERO DUP1 ISZERO PUSH2 0x1228 JUMPI RETURNDATASIZE PUSH0 DUP1 RETURNDATACOPY RETURNDATASIZE PUSH0 REVERT JUMPDEST POP POP POP POP PUSH1 0x40 MLOAD RETURNDATASIZE PUSH1 0x1F NOT PUSH1 0x1F DUP3 ADD AND DUP3 ADD DUP1 PUSH1 0x40 MSTORE POP DUP2 ADD SWAP1 PUSH2 0x124C SWAP2 SWAP1 PUSH2 0x3F00 JUMP JUMPDEST PUSH2 0x1298 JUMPI PUSH1 0x40 MLOAD PUSH3 0x461BCD PUSH1 0xE5 SHL DUP2 MSTORE PUSH1 0x20 PUSH1 0x4 DUP3 ADD MSTORE PUSH1 0x1D PUSH1 0x24 DUP3 ADD MSTORE PUSH32 0x416363657373207265737472696374656420746F2050424620726F6C65000000 PUSH1 0x44 DUP3 ADD MSTORE PUSH1 0x64 ADD PUSH2 0x31D JUMP JUMPDEST DUP2 MLOAD PUSH1 0x40 MLOAD PUSH1 0x2 SWAP2 PUSH2 0x12A9 SWAP2 PUSH2 0x3CA7 JUMP JUMPDEST SWAP1 DUP2 MSTORE PUSH1 0x40 MLOAD SWAP1 DUP2 SWAP1 SUB PUSH1 0x20 ADD SWAP1 KECCAK256 DUP1 SLOAD PUSH2 0x12C3 SWAP1 PUSH2 0x3CBD JUMP JUMPDEST ISZERO SWAP1 POP PUSH2 0x130B JUMPI PUSH1 0x40 MLOAD PUSH3 0x461BCD PUSH1 0xE5 SHL DUP2 MSTORE PUSH1 0x20 PUSH1 0x4 DUP3 ADD MSTORE PUSH1 0x16 PUSH1 0x24 DUP3 ADD MSTORE PUSH22 0x43444F4220494420616C726561647920657869737473 PUSH1 0x50 SHL PUSH1 0x44 DUP3 ADD MSTORE PUSH1 0x64 ADD PUSH2 0x31D JUMP JUMPDEST PUSH0 PUSH2 0x131F DUP4 PUSH1 0x20 ADD MLOAD CALLER DUP6 PUSH1 0x40 ADD MLOAD PUSH2 0x314E JUMP JUMPDEST SWAP1 POP PUSH0 PUSH2 0x1349 PUSH1 0x40 MLOAD DUP1 PUSH1 0x20 ADD PUSH1 0x40 MSTORE DUP1 PUSH0 DUP2 MSTORE POP PUSH0 PUSH1 0x40 MLOAD DUP1 PUSH1 0x20 ADD PUSH1 0x40 MSTORE DUP1 PUSH0 DUP2 MSTORE POP PUSH2 0x314E JUMP JUMPDEST SWAP1 POP PUSH0 PUSH2 0x1356 DUP4 DUP4 PUSH2 0x3181 JUMP JUMPDEST PUSH1 0x40 DUP1 MLOAD PUSH1 0x80 DUP2 ADD DUP3 MSTORE DUP8 MLOAD DUP2 MSTORE DUP2 MLOAD PUSH1 0x20 DUP2 DUP2 ADD DUP5 MSTORE PUSH0 DUP3 MSTORE DUP3 ADD MSTORE SWAP1 DUP2 ADD DUP3 SWAP1 MSTORE SWAP1 SWAP2 POP PUSH1 0x60 DUP2 ADD PUSH1 0xFF DUP7 AND PUSH1 0x1 DUP2 GT ISZERO PUSH2 0x1395 JUMPI PUSH2 0x1395 PUSH2 0x373B JUMP JUMPDEST PUSH1 0x1 DUP2 GT ISZERO PUSH2 0x13A6 JUMPI PUSH2 0x13A6 PUSH2 0x373B JUMP JUMPDEST SWAP1 MSTORE DUP6 MLOAD PUSH1 0x40 MLOAD PUSH1 0x2 SWAP2 PUSH2 0x13B9 SWAP2 PUSH2 0x3CA7 JUMP JUMPDEST SWAP1 DUP2 MSTORE PUSH1 0x40 MLOAD SWAP1 DUP2 SWAP1 SUB PUSH1 0x20 ADD SWAP1 KECCAK256 DUP2 MLOAD DUP2 SWAP1 PUSH2 0x13D6 SWAP1 DUP3 PUSH2 0x3D41 JUMP JUMPDEST POP PUSH1 0x20 DUP3 ADD MLOAD PUSH1 0x1 DUP3 ADD SWAP1 PUSH2 0x13EB SWAP1 DUP3 PUSH2 0x3D41 JUMP JUMPDEST POP PUSH1 0x40 DUP3 ADD MLOAD DUP1 MLOAD PUSH1 0x2 DUP4 ADD DUP1 SLOAD SWAP1 SWAP2 SWAP1 DUP3 SWAP1 PUSH1 0xFF NOT AND PUSH1 0x1 DUP4 DUP2 DUP2 GT ISZERO PUSH2 0x1415 JUMPI PUSH2 0x1415 PUSH2 0x373B JUMP JUMPDEST MUL OR SWAP1 SSTORE POP PUSH1 0x20 DUP3 ADD MLOAD PUSH1 0x1 DUP3 ADD SSTORE PUSH1 0x40 DUP3 ADD MLOAD PUSH1 0x2 DUP3 ADD SSTORE PUSH1 0x60 DUP3 ADD MLOAD DUP1 MLOAD PUSH1 0x3 DUP4 ADD SWAP1 DUP2 SWAP1 PUSH2 0x1446 SWAP1 DUP3 PUSH2 0x3D41 JUMP JUMPDEST POP PUSH1 0x20 DUP3 ADD MLOAD PUSH1 0x1 DUP3 ADD DUP1 SLOAD PUSH1 0x1 PUSH1 0x1 PUSH1 0xA0 SHL SUB NOT AND PUSH1 0x1 PUSH1 0x1 PUSH1 0xA0 SHL SUB SWAP1 SWAP3 AND SWAP2 SWAP1 SWAP2 OR SWAP1 SSTORE PUSH1 0x40 DUP3 ADD MLOAD PUSH1 0x2 DUP3 ADD SWAP1 PUSH2 0x1481 SWAP1 DUP3 PUSH2 0x3D41 JUMP JUMPDEST POP POP POP PUSH1 0x80 DUP3 ADD MLOAD DUP1 MLOAD PUSH1 0x6 DUP4 ADD SWAP1 DUP2 SWAP1 PUSH2 0x149C SWAP1 DUP3 PUSH2 0x3D41 JUMP JUMPDEST POP PUSH1 0x20 DUP3 ADD MLOAD PUSH1 0x1 DUP3 ADD DUP1 SLOAD PUSH1 0x1 PUSH1 0x1 PUSH1 0xA0 SHL SUB NOT AND PUSH1 0x1 PUSH1 0x1 PUSH1 0xA0 SHL SUB SWAP1 SWAP3 AND SWAP2 SWAP1 SWAP2 OR SWAP1 SSTORE PUSH1 0x40 DUP3 ADD MLOAD PUSH1 0x2 DUP3 ADD SWAP1 PUSH2 0x14D7 SWAP1 DUP3 PUSH2 0x3D41 JUMP JUMPDEST POP POP POP POP PUSH1 0x60 DUP4 ADD MLOAD PUSH1 0xB DUP4 ADD DUP1 SLOAD SWAP2 SWAP3 POP SWAP1 PUSH1 0xFF NOT AND PUSH1 0x1 DUP4 DUP2 DUP2 GT ISZERO PUSH2 0x1501 JUMPI PUSH2 0x1501 PUSH2 0x373B JUMP JUMPDEST MUL OR SWAP1 SSTORE POP SWAP1 POP POP PUSH0 PUSH2 0x156E DUP7 PUSH0 ADD MLOAD PUSH1 0x40 MLOAD DUP1 PUSH1 0x20 ADD PUSH1 0x40 MSTORE DUP1 PUSH0 DUP2 MSTORE POP DUP9 PUSH1 0x40 ADD MLOAD DUP9 PUSH1 0xFF AND PUSH1 0x1 DUP2 GT ISZERO PUSH2 0x153A JUMPI PUSH2 0x153A PUSH2 0x373B JUMP JUMPDEST PUSH1 0x1 DUP2 GT ISZERO PUSH2 0x154B JUMPI PUSH2 0x154B PUSH2 0x373B JUMP JUMPDEST PUSH1 0x40 MLOAD DUP1 PUSH1 0x40 ADD PUSH1 0x40 MSTORE DUP1 PUSH1 0x4 DUP2 MSTORE PUSH1 0x20 ADD PUSH4 0x31B237B1 PUSH1 0xE1 SHL DUP2 MSTORE POP PUSH0 PUSH2 0x31B5 JUMP JUMPDEST PUSH1 0x4 DUP1 SLOAD PUSH1 0x1 DUP2 ADD DUP3 SSTORE PUSH0 SWAP2 SWAP1 SWAP2 MSTORE DUP2 MLOAD SWAP2 SWAP3 POP DUP3 SWAP2 PUSH1 0x5 SWAP1 SWAP2 MUL PUSH32 0x8A35ACFBC15FF81A39AE7D344FD709F28E8600B4AA8C65C6B64BFE7FE36BD19B ADD SWAP1 DUP2 SWAP1 PUSH2 0x15B8 SWAP1 DUP3 PUSH2 0x3D41 JUMP JUMPDEST POP PUSH1 0x20 DUP3 ADD MLOAD PUSH1 0x1 DUP3 ADD SWAP1 PUSH2 0x15CD SWAP1 DUP3 PUSH2 0x3D41 JUMP JUMPDEST POP PUSH1 0x40 DUP3 ADD MLOAD PUSH1 0x2 DUP3 ADD SWAP1 PUSH2 0x15E2 SWAP1 DUP3 PUSH2 0x3D41 JUMP JUMPDEST POP PUSH1 0x60 DUP3 ADD MLOAD PUSH1 0x3 DUP3 ADD SWAP1 PUSH2 0x15F7 SWAP1 DUP3 PUSH2 0x3D41 JUMP JUMPDEST POP PUSH1 0x80 DUP3 ADD MLOAD PUSH1 0x4 DUP3 ADD DUP1 SLOAD PUSH1 0xFF SWAP1 SWAP3 AND PUSH1 0xFF NOT DUP4 AND DUP2 OR DUP3 SSTORE PUSH1 0xA0 DUP6 ADD MLOAD SWAP3 PUSH2 0xFFFF NOT AND OR PUSH2 0x100 DUP4 PUSH1 0x1 DUP2 GT ISZERO PUSH2 0x1632 JUMPI PUSH2 0x1632 PUSH2 0x373B JUMP JUMPDEST MUL OR SWAP1 SSTORE POP POP POP PUSH32 0x7002576F080ADE70048A03AD81B929B78C8B7E148FD11F40F286A8B6900E6F9B DUP7 PUSH1 0x40 ADD MLOAD CALLER DUP8 PUSH1 0xFF AND PUSH1 0x1 DUP2 GT ISZERO PUSH2 0x1675 JUMPI PUSH2 0x1675 PUSH2 0x373B JUMP JUMPDEST TIMESTAMP PUSH1 0x40 MLOAD PUSH2 0xB42 SWAP5 SWAP4 SWAP3 SWAP2 SWAP1 PUSH2 0x3F4F JUMP JUMPDEST PUSH2 0x168E PUSH2 0x334F JUMP JUMPDEST PUSH1 0x1 DUP3 PUSH1 0x40 MLOAD PUSH2 0x169E SWAP2 SWAP1 PUSH2 0x3CA7 JUMP JUMPDEST SWAP1 DUP2 MSTORE PUSH1 0x20 ADD PUSH1 0x40 MLOAD DUP1 SWAP2 SUB SWAP1 KECCAK256 PUSH1 0x40 MLOAD DUP1 PUSH1 0x80 ADD PUSH1 0x40 MSTORE SWAP1 DUP2 PUSH0 DUP3 ADD DUP1 SLOAD PUSH2 0x16C6 SWAP1 PUSH2 0x3CBD JUMP JUMPDEST DUP1 PUSH1 0x1F ADD PUSH1 0x20 DUP1 SWAP2 DIV MUL PUSH1 0x20 ADD PUSH1 0x40 MLOAD SWAP1 DUP2 ADD PUSH1 0x40 MSTORE DUP1 SWAP3 SWAP2 SWAP1 DUP2 DUP2 MSTORE PUSH1 0x20 ADD DUP3 DUP1 SLOAD PUSH2 0x16F2 SWAP1 PUSH2 0x3CBD JUMP JUMPDEST DUP1 ISZERO PUSH2 0x173D JUMPI DUP1 PUSH1 0x1F LT PUSH2 0x1714 JUMPI PUSH2 0x100 DUP1 DUP4 SLOAD DIV MUL DUP4 MSTORE SWAP2 PUSH1 0x20 ADD SWAP2 PUSH2 0x173D JUMP JUMPDEST DUP3 ADD SWAP2 SWAP1 PUSH0 MSTORE PUSH1 0x20 PUSH0 KECCAK256 SWAP1 JUMPDEST DUP2 SLOAD DUP2 MSTORE SWAP1 PUSH1 0x1 ADD SWAP1 PUSH1 0x20 ADD DUP1 DUP4 GT PUSH2 0x1720 JUMPI DUP3 SWAP1 SUB PUSH1 0x1F AND DUP3 ADD SWAP2 JUMPDEST POP POP POP POP POP DUP2 MSTORE PUSH1 0x20 ADD PUSH1 0x1 DUP3 ADD DUP1 SLOAD PUSH2 0x1756 SWAP1 PUSH2 0x3CBD JUMP JUMPDEST DUP1 PUSH1 0x1F ADD PUSH1 0x20 DUP1 SWAP2 DIV MUL PUSH1 0x20 ADD PUSH1 0x40 MLOAD SWAP1 DUP2 ADD PUSH1 0x40 MSTORE DUP1 SWAP3 SWAP2 SWAP1 DUP2 DUP2 MSTORE PUSH1 0x20 ADD DUP3 DUP1 SLOAD PUSH2 0x1782 SWAP1 PUSH2 0x3CBD JUMP JUMPDEST DUP1 ISZERO PUSH2 0x17CD JUMPI DUP1 PUSH1 0x1F LT PUSH2 0x17A4 JUMPI PUSH2 0x100 DUP1 DUP4 SLOAD DIV MUL DUP4 MSTORE SWAP2 PUSH1 0x20 ADD SWAP2 PUSH2 0x17CD JUMP JUMPDEST DUP3 ADD SWAP2 SWAP1 PUSH0 MSTORE PUSH1 0x20 PUSH0 KECCAK256 SWAP1 JUMPDEST DUP2 SLOAD DUP2 MSTORE SWAP1 PUSH1 0x1 ADD SWAP1 PUSH1 0x20 ADD DUP1 DUP4 GT PUSH2 0x17B0 JUMPI DUP3 SWAP1 SUB PUSH1 0x1F AND DUP3 ADD SWAP2 JUMPDEST POP POP POP SWAP2 DUP4 MSTORE POP POP PUSH1 0x40 DUP1 MLOAD PUSH1 0xA0 DUP2 ADD SWAP1 SWAP2 MSTORE PUSH1 0x2 DUP4 ADD DUP1 SLOAD PUSH1 0x20 SWAP1 SWAP4 ADD SWAP3 DUP3 SWAP1 PUSH1 0xFF AND PUSH1 0x1 DUP2 GT ISZERO PUSH2 0x1802 JUMPI PUSH2 0x1802 PUSH2 0x373B JUMP JUMPDEST PUSH1 0x1 DUP2 GT ISZERO PUSH2 0x1813 JUMPI PUSH2 0x1813 PUSH2 0x373B JUMP JUMPDEST DUP2 MSTORE PUSH1 0x20 ADD PUSH1 0x1 DUP3 ADD SLOAD DUP2 MSTORE PUSH1 0x20 ADD PUSH1 0x2 DUP3 ADD SLOAD DUP2 MSTORE PUSH1 0x20 ADD PUSH1 0x3 DUP3 ADD PUSH1 0x40 MLOAD DUP1 PUSH1 0x60 ADD PUSH1 0x40 MSTORE SWAP1 DUP2 PUSH0 DUP3 ADD DUP1 SLOAD PUSH2 0x184A SWAP1 PUSH2 0x3CBD JUMP JUMPDEST DUP1 PUSH1 0x1F ADD PUSH1 0x20 DUP1 SWAP2 DIV MUL PUSH1 0x20 ADD PUSH1 0x40 MLOAD SWAP1 DUP2 ADD PUSH1 0x40 MSTORE DUP1 SWAP3 SWAP2 SWAP1 DUP2 DUP2 MSTORE PUSH1 0x20 ADD DUP3 DUP1 SLOAD PUSH2 0x1876 SWAP1 PUSH2 0x3CBD JUMP JUMPDEST DUP1 ISZERO PUSH2 0x18C1 JUMPI DUP1 PUSH1 0x1F LT PUSH2 0x1898 JUMPI PUSH2 0x100 DUP1 DUP4 SLOAD DIV MUL DUP4 MSTORE SWAP2 PUSH1 0x20 ADD SWAP2 PUSH2 0x18C1 JUMP JUMPDEST DUP3 ADD SWAP2 SWAP1 PUSH0 MSTORE PUSH1 0x20 PUSH0 KECCAK256 SWAP1 JUMPDEST DUP2 SLOAD DUP2 MSTORE SWAP1 PUSH1 0x1 ADD SWAP1 PUSH1 0x20 ADD DUP1 DUP4 GT PUSH2 0x18A4 JUMPI DUP3 SWAP1 SUB PUSH1 0x1F AND DUP3 ADD SWAP2 JUMPDEST POP POP POP SWAP2 DUP4 MSTORE POP POP PUSH1 0x1 DUP3 ADD SLOAD PUSH1 0x1 PUSH1 0x1 PUSH1 0xA0 SHL SUB AND PUSH1 0x20 DUP3 ADD MSTORE PUSH1 0x2 DUP3 ADD DUP1 SLOAD PUSH1 0x40 SWAP1 SWAP3 ADD SWAP2 PUSH2 0x18F1 SWAP1 PUSH2 0x3CBD JUMP JUMPDEST DUP1 PUSH1 0x1F ADD PUSH1 0x20 DUP1 SWAP2 DIV MUL PUSH1 0x20 ADD PUSH1 0x40 MLOAD SWAP1 DUP2 ADD PUSH1 0x40 MSTORE DUP1 SWAP3 SWAP2 SWAP1 DUP2 DUP2 MSTORE PUSH1 0x20 ADD DUP3 DUP1 SLOAD PUSH2 0x191D SWAP1 PUSH2 0x3CBD JUMP JUMPDEST DUP1 ISZERO PUSH2 0x1968 JUMPI DUP1 PUSH1 0x1F LT PUSH2 0x193F JUMPI PUSH2 0x100 DUP1 DUP4 SLOAD DIV MUL DUP4 MSTORE SWAP2 PUSH1 0x20 ADD SWAP2 PUSH2 0x1968 JUMP JUMPDEST DUP3 ADD SWAP2 SWAP1 PUSH0 MSTORE PUSH1 0x20 PUSH0 KECCAK256 SWAP1 JUMPDEST DUP2 SLOAD DUP2 MSTORE SWAP1 PUSH1 0x1 ADD SWAP1 PUSH1 0x20 ADD DUP1 DUP4 GT PUSH2 0x194B JUMPI DUP3 SWAP1 SUB PUSH1 0x1F AND DUP3 ADD SWAP2 JUMPDEST POP POP POP POP POP DUP2 MSTORE POP POP DUP2 MSTORE PUSH1 0x20 ADD PUSH1 0x6 DUP3 ADD PUSH1 0x40 MLOAD DUP1 PUSH1 0x60 ADD PUSH1 0x40 MSTORE SWAP1 DUP2 PUSH0 DUP3 ADD DUP1 SLOAD PUSH2 0x1994 SWAP1 PUSH2 0x3CBD JUMP JUMPDEST DUP1 PUSH1 0x1F ADD PUSH1 0x20 DUP1 SWAP2 DIV MUL PUSH1 0x20 ADD PUSH1 0x40 MLOAD SWAP1 DUP2 ADD PUSH1 0x40 MSTORE DUP1 SWAP3 SWAP2 SWAP1 DUP2 DUP2 MSTORE PUSH1 0x20 ADD DUP3 DUP1 SLOAD PUSH2 0x19C0 SWAP1 PUSH2 0x3CBD JUMP JUMPDEST DUP1 ISZERO PUSH2 0x1A0B JUMPI DUP1 PUSH1 0x1F LT PUSH2 0x19E2 JUMPI PUSH2 0x100 DUP1 DUP4 SLOAD DIV MUL DUP4 MSTORE SWAP2 PUSH1 0x20 ADD SWAP2 PUSH2 0x1A0B JUMP JUMPDEST DUP3 ADD SWAP2 SWAP1 PUSH0 MSTORE PUSH1 0x20 PUSH0 KECCAK256 SWAP1 JUMPDEST DUP2 SLOAD DUP2 MSTORE SWAP1 PUSH1 0x1 ADD SWAP1 PUSH1 0x20 ADD DUP1 DUP4 GT PUSH2 0x19EE JUMPI DUP3 SWAP1 SUB PUSH1 0x1F AND DUP3 ADD SWAP2 JUMPDEST POP POP POP SWAP2 DUP4 MSTORE POP POP PUSH1 0x1 DUP3 ADD SLOAD PUSH1 0x1 PUSH1 0x1 PUSH1 0xA0 SHL SUB AND PUSH1 0x20 DUP3 ADD MSTORE PUSH1 0x2 DUP3 ADD DUP1 SLOAD PUSH1 0x40 SWAP1 SWAP3 ADD SWAP2 PUSH2 0x1A3B SWAP1 PUSH2 0x3CBD JUMP JUMPDEST DUP1 PUSH1 0x1F ADD PUSH1 0x20 DUP1 SWAP2 DIV MUL PUSH1 0x20 ADD PUSH1 0x40 MLOAD SWAP1 DUP2 ADD PUSH1 0x40 MSTORE DUP1 SWAP3 SWAP2 SWAP1 DUP2 DUP2 MSTORE PUSH1 0x20 ADD DUP3 DUP1 SLOAD PUSH2 0x1A67 SWAP1 PUSH2 0x3CBD JUMP JUMPDEST DUP1 ISZERO PUSH2 0x1AB2 JUMPI DUP1 PUSH1 0x1F LT PUSH2 0x1A89 JUMPI PUSH2 0x100 DUP1 DUP4 SLOAD DIV MUL DUP4 MSTORE SWAP2 PUSH1 0x20 ADD SWAP2 PUSH2 0x1AB2 JUMP JUMPDEST DUP3 ADD SWAP2 SWAP1 PUSH0 MSTORE PUSH1 0x20 PUSH0 KECCAK256 SWAP1 JUMPDEST DUP2 SLOAD DUP2 MSTORE SWAP1 PUSH1 0x1 ADD SWAP1 PUSH1 0x20 ADD DUP1 DUP4 GT PUSH2 0x1A95 JUMPI DUP3 SWAP1 SUB PUSH1 0x1F AND DUP3 ADD SWAP2 JUMPDEST POP POP POP SWAP2 SWAP1 SWAP3 MSTORE POP POP POP SWAP1 MSTORE POP DUP2 MSTORE PUSH1 0xB DUP3 ADD SLOAD PUSH1 0x20 SWAP1 SWAP2 ADD SWAP1 PUSH1 0xFF AND PUSH1 0x8 DUP2 GT ISZERO PUSH2 0x1AE0 JUMPI PUSH2 0x1AE0 PUSH2 0x373B JUMP JUMPDEST PUSH1 0x8 DUP2 GT ISZERO PUSH2 0x1AF1 JUMPI PUSH2 0x1AF1 PUSH2 0x373B JUMP JUMPDEST SWAP1 MSTORE POP SWAP3 SWAP2 POP POP JUMP JUMPDEST PUSH2 0x1B02 PUSH2 0x334F JUMP JUMPDEST PUSH1 0x2 DUP3 PUSH1 0x40 MLOAD PUSH2 0x1B12 SWAP2 SWAP1 PUSH2 0x3CA7 JUMP JUMPDEST SWAP1 DUP2 MSTORE PUSH1 0x20 ADD PUSH1 0x40 MLOAD DUP1 SWAP2 SUB SWAP1 KECCAK256 PUSH1 0x40 MLOAD DUP1 PUSH1 0x80 ADD PUSH1 0x40 MSTORE SWAP1 DUP2 PUSH0 DUP3 ADD DUP1 SLOAD PUSH2 0x1B3A SWAP1 PUSH2 0x3CBD JUMP JUMPDEST DUP1 PUSH1 0x1F ADD PUSH1 0x20 DUP1 SWAP2 DIV MUL PUSH1 0x20 ADD PUSH1 0x40 MLOAD SWAP1 DUP2 ADD PUSH1 0x40 MSTORE DUP1 SWAP3 SWAP2 SWAP1 DUP2 DUP2 MSTORE PUSH1 0x20 ADD DUP3 DUP1 SLOAD PUSH2 0x1B66 SWAP1 PUSH2 0x3CBD JUMP JUMPDEST DUP1 ISZERO PUSH2 0x1BB1 JUMPI DUP1 PUSH1 0x1F LT PUSH2 0x1B88 JUMPI PUSH2 0x100 DUP1 DUP4 SLOAD DIV MUL DUP4 MSTORE SWAP2 PUSH1 0x20 ADD SWAP2 PUSH2 0x1BB1 JUMP JUMPDEST DUP3 ADD SWAP2 SWAP1 PUSH0 MSTORE PUSH1 0x20 PUSH0 KECCAK256 SWAP1 JUMPDEST DUP2 SLOAD DUP2 MSTORE SWAP1 PUSH1 0x1 ADD SWAP1 PUSH1 0x20 ADD DUP1 DUP4 GT PUSH2 0x1B94 JUMPI DUP3 SWAP1 SUB PUSH1 0x1F AND DUP3 ADD SWAP2 JUMPDEST POP POP POP POP POP DUP2 MSTORE PUSH1 0x20 ADD PUSH1 0x1 DUP3 ADD DUP1 SLOAD PUSH2 0x1BCA SWAP1 PUSH2 0x3CBD JUMP JUMPDEST DUP1 PUSH1 0x1F ADD PUSH1 0x20 DUP1 SWAP2 DIV MUL PUSH1 0x20 ADD PUSH1 0x40 MLOAD SWAP1 DUP2 ADD PUSH1 0x40 MSTORE DUP1 SWAP3 SWAP2 SWAP1 DUP2 DUP2 MSTORE PUSH1 0x20 ADD DUP3 DUP1 SLOAD PUSH2 0x1BF6 SWAP1 PUSH2 0x3CBD JUMP JUMPDEST DUP1 ISZERO PUSH2 0x1C41 JUMPI DUP1 PUSH1 0x1F LT PUSH2 0x1C18 JUMPI PUSH2 0x100 DUP1 DUP4 SLOAD DIV MUL DUP4 MSTORE SWAP2 PUSH1 0x20 ADD SWAP2 PUSH2 0x1C41 JUMP JUMPDEST DUP3 ADD SWAP2 SWAP1 PUSH0 MSTORE PUSH1 0x20 PUSH0 KECCAK256 SWAP1 JUMPDEST DUP2 SLOAD DUP2 MSTORE SWAP1 PUSH1 0x1 ADD SWAP1 PUSH1 0x20 ADD DUP1 DUP4 GT PUSH2 0x1C24 JUMPI DUP3 SWAP1 SUB PUSH1 0x1F AND DUP3 ADD SWAP2 JUMPDEST POP POP POP SWAP2 DUP4 MSTORE POP POP PUSH1 0x40 DUP1 MLOAD PUSH1 0xA0 DUP2 ADD SWAP1 SWAP2 MSTORE PUSH1 0x2 DUP4 ADD DUP1 SLOAD PUSH1 0x20 SWAP1 SWAP4 ADD SWAP3 DUP3 SWAP1 PUSH1 0xFF AND PUSH1 0x1 DUP2 GT ISZERO PUSH2 0x1C76 JUMPI PUSH2 0x1C76 PUSH2 0x373B JUMP JUMPDEST PUSH1 0x1 DUP2 GT ISZERO PUSH2 0x1C87 JUMPI PUSH2 0x1C87 PUSH2 0x373B JUMP JUMPDEST DUP2 MSTORE PUSH1 0x20 ADD PUSH1 0x1 DUP3 ADD SLOAD DUP2 MSTORE PUSH1 0x20 ADD PUSH1 0x2 DUP3 ADD SLOAD DUP2 MSTORE PUSH1 0x20 ADD PUSH1 0x3 DUP3 ADD PUSH1 0x40 MLOAD DUP1 PUSH1 0x60 ADD PUSH1 0x40 MSTORE SWAP1 DUP2 PUSH0 DUP3 ADD DUP1 SLOAD PUSH2 0x1CBE SWAP1 PUSH2 0x3CBD JUMP JUMPDEST DUP1 PUSH1 0x1F ADD PUSH1 0x20 DUP1 SWAP2 DIV MUL PUSH1 0x20 ADD PUSH1 0x40 MLOAD SWAP1 DUP2 ADD PUSH1 0x40 MSTORE DUP1 SWAP3 SWAP2 SWAP1 DUP2 DUP2 MSTORE PUSH1 0x20 ADD DUP3 DUP1 SLOAD PUSH2 0x1CEA SWAP1 PUSH2 0x3CBD JUMP JUMPDEST DUP1 ISZERO PUSH2 0x1D35 JUMPI DUP1 PUSH1 0x1F LT PUSH2 0x1D0C JUMPI PUSH2 0x100 DUP1 DUP4 SLOAD DIV MUL DUP4 MSTORE SWAP2 PUSH1 0x20 ADD SWAP2 PUSH2 0x1D35 JUMP JUMPDEST DUP3 ADD SWAP2 SWAP1 PUSH0 MSTORE PUSH1 0x20 PUSH0 KECCAK256 SWAP1 JUMPDEST DUP2 SLOAD DUP2 MSTORE SWAP1 PUSH1 0x1 ADD SWAP1 PUSH1 0x20 ADD DUP1 DUP4 GT PUSH2 0x1D18 JUMPI DUP3 SWAP1 SUB PUSH1 0x1F AND DUP3 ADD SWAP2 JUMPDEST POP POP POP SWAP2 DUP4 MSTORE POP POP PUSH1 0x1 DUP3 ADD SLOAD PUSH1 0x1 PUSH1 0x1 PUSH1 0xA0 SHL SUB AND PUSH1 0x20 DUP3 ADD MSTORE PUSH1 0x2 DUP3 ADD DUP1 SLOAD PUSH1 0x40 SWAP1 SWAP3 ADD SWAP2 PUSH2 0x1D65 SWAP1 PUSH2 0x3CBD JUMP JUMPDEST DUP1 PUSH1 0x1F ADD PUSH1 0x20 DUP1 SWAP2 DIV MUL PUSH1 0x20 ADD PUSH1 0x40 MLOAD SWAP1 DUP2 ADD PUSH1 0x40 MSTORE DUP1 SWAP3 SWAP2 SWAP1 DUP2 DUP2 MSTORE PUSH1 0x20 ADD DUP3 DUP1 SLOAD PUSH2 0x1D91 SWAP1 PUSH2 0x3CBD JUMP JUMPDEST DUP1 ISZERO PUSH2 0x1DDC JUMPI DUP1 PUSH1 0x1F LT PUSH2 0x1DB3 JUMPI PUSH2 0x100 DUP1 DUP4 SLOAD DIV MUL DUP4 MSTORE SWAP2 PUSH1 0x20 ADD SWAP2 PUSH2 0x1DDC JUMP JUMPDEST DUP3 ADD SWAP2 SWAP1 PUSH0 MSTORE PUSH1 0x20 PUSH0 KECCAK256 SWAP1 JUMPDEST DUP2 SLOAD DUP2 MSTORE SWAP1 PUSH1 0x1 ADD SWAP1 PUSH1 0x20 ADD DUP1 DUP4 GT PUSH2 0x1DBF JUMPI DUP3 SWAP1 SUB PUSH1 0x1F AND DUP3 ADD SWAP2 JUMPDEST POP POP POP POP POP DUP2 MSTORE POP POP DUP2 MSTORE PUSH1 0x20 ADD PUSH1 0x6 DUP3 ADD PUSH1 0x40 MLOAD DUP1 PUSH1 0x60 ADD PUSH1 0x40 MSTORE SWAP1 DUP2 PUSH0 DUP3 ADD DUP1 SLOAD PUSH2 0x1E08 SWAP1 PUSH2 0x3CBD JUMP JUMPDEST DUP1 PUSH1 0x1F ADD PUSH1 0x20 DUP1 SWAP2 DIV MUL PUSH1 0x20 ADD PUSH1 0x40 MLOAD SWAP1 DUP2 ADD PUSH1 0x40 MSTORE DUP1 SWAP3 SWAP2 SWAP1 DUP2 DUP2 MSTORE PUSH1 0x20 ADD DUP3 DUP1 SLOAD PUSH2 0x1E34 SWAP1 PUSH2 0x3CBD JUMP JUMPDEST DUP1 ISZERO PUSH2 0x1E7F JUMPI DUP1 PUSH1 0x1F LT PUSH2 0x1E56 JUMPI PUSH2 0x100 DUP1 DUP4 SLOAD DIV MUL DUP4 MSTORE SWAP2 PUSH1 0x20 ADD SWAP2 PUSH2 0x1E7F JUMP JUMPDEST DUP3 ADD SWAP2 SWAP1 PUSH0 MSTORE PUSH1 0x20 PUSH0 KECCAK256 SWAP1 JUMPDEST DUP2 SLOAD DUP2 MSTORE SWAP1 PUSH1 0x1 ADD SWAP1 PUSH1 0x20 ADD DUP1 DUP4 GT PUSH2 0x1E62 JUMPI DUP3 SWAP1 SUB PUSH1 0x1F AND DUP3 ADD SWAP2 JUMPDEST POP POP POP SWAP2 DUP4 MSTORE POP POP PUSH1 0x1 DUP3 ADD SLOAD PUSH1 0x1 PUSH1 0x1 PUSH1 0xA0 SHL SUB AND PUSH1 0x20 DUP3 ADD MSTORE PUSH1 0x2 DUP3 ADD DUP1 SLOAD PUSH1 0x40 SWAP1 SWAP3 ADD SWAP2 PUSH2 0x1EAF SWAP1 PUSH2 0x3CBD JUMP JUMPDEST DUP1 PUSH1 0x1F ADD PUSH1 0x20 DUP1 SWAP2 DIV MUL PUSH1 0x20 ADD PUSH1 0x40 MLOAD SWAP1 DUP2 ADD PUSH1 0x40 MSTORE DUP1 SWAP3 SWAP2 SWAP1 DUP2 DUP2 MSTORE PUSH1 0x20 ADD DUP3 DUP1 SLOAD PUSH2 0x1EDB SWAP1 PUSH2 0x3CBD JUMP JUMPDEST DUP1 ISZERO PUSH2 0x1F26 JUMPI DUP1 PUSH1 0x1F LT PUSH2 0x1EFD JUMPI PUSH2 0x100 DUP1 DUP4 SLOAD DIV MUL DUP4 MSTORE SWAP2 PUSH1 0x20 ADD SWAP2 PUSH2 0x1F26 JUMP JUMPDEST DUP3 ADD SWAP2 SWAP1 PUSH0 MSTORE PUSH1 0x20 PUSH0 KECCAK256 SWAP1 JUMPDEST DUP2 SLOAD DUP2 MSTORE SWAP1 PUSH1 0x1 ADD SWAP1 PUSH1 0x20 ADD DUP1 DUP4 GT PUSH2 0x1F09 JUMPI DUP3 SWAP1 SUB PUSH1 0x1F AND DUP3 ADD SWAP2 JUMPDEST POP POP POP SWAP2 SWAP1 SWAP3 MSTORE POP POP POP SWAP1 MSTORE POP DUP2 MSTORE PUSH1 0xB DUP3 ADD SLOAD PUSH1 0x20 SWAP1 SWAP2 ADD SWAP1 PUSH1 0xFF AND PUSH1 0x1 DUP2 GT ISZERO PUSH2 0x1F54 JUMPI PUSH2 0x1F54 PUSH2 0x373B JUMP JUMPDEST PUSH1 0x1 DUP2 GT ISZERO PUSH2 0x1AF1 JUMPI PUSH2 0x1AF1 PUSH2 0x373B JUMP JUMPDEST DUP1 MLOAD PUSH1 0x20 DUP2 DUP4 ADD DUP2 ADD DUP1 MLOAD PUSH1 0x2 DUP3 MSTORE SWAP3 DUP3 ADD SWAP2 SWAP1 SWAP4 ADD KECCAK256 SWAP2 MSTORE DUP1 SLOAD DUP2 SWAP1 PUSH2 0xDDD SWAP1 PUSH2 0x3CBD JUMP JUMPDEST DUP2 MLOAD PUSH1 0x20 DUP2 DUP5 ADD DUP2 ADD DUP1 MLOAD PUSH1 0x3 DUP3 MSTORE SWAP3 DUP3 ADD SWAP2 DUP6 ADD SWAP2 SWAP1 SWAP2 KECCAK256 SWAP2 SWAP1 MSTORE DUP1 SLOAD DUP3 SWAP1 DUP2 LT PUSH2 0x1FB5 JUMPI PUSH0 DUP1 REVERT JUMPDEST SWAP1 PUSH0 MSTORE PUSH1 0x20 PUSH0 KECCAK256 SWAP1 PUSH1 0x20 SWAP2 DUP3 DUP3 DIV ADD SWAP2 SWAP1 MOD SWAP2 POP SWAP2 POP SWAP1 SLOAD SWAP1 PUSH2 0x100 EXP SWAP1 DIV PUSH1 0xFF AND DUP2 JUMP JUMPDEST PUSH0 SLOAD PUSH1 0x40 MLOAD PUSH4 0x95A8C58D PUSH1 0xE0 SHL DUP2 MSTORE PUSH1 0x1 PUSH1 0x1 PUSH1 0xA0 SHL SUB SWAP1 SWAP2 AND SWAP1 PUSH4 0x95A8C58D SWAP1 PUSH2 0x200C SWAP1 CALLER SWAP1 PUSH1 0x2 SWAP1 PUSH1 0x4 ADD PUSH2 0x3EE3 JUMP JUMPDEST PUSH1 0x20 PUSH1 0x40 MLOAD DUP1 DUP4 SUB DUP2 DUP7 GAS STATICCALL ISZERO DUP1 ISZERO PUSH2 0x2027 JUMPI RETURNDATASIZE PUSH0 DUP1 RETURNDATACOPY RETURNDATASIZE PUSH0 REVERT JUMPDEST POP POP POP POP PUSH1 0x40 MLOAD RETURNDATASIZE PUSH1 0x1F NOT PUSH1 0x1F DUP3 ADD AND DUP3 ADD DUP1 PUSH1 0x40 MSTORE POP DUP2 ADD SWAP1 PUSH2 0x204B SWAP2 SWAP1 PUSH2 0x3F00 JUMP JUMPDEST PUSH2 0x2097 JUMPI PUSH1 0x40 MLOAD PUSH3 0x461BCD PUSH1 0xE5 SHL DUP2 MSTORE PUSH1 0x20 PUSH1 0x4 DUP3 ADD MSTORE PUSH1 0x1E PUSH1 0x24 DUP3 ADD MSTORE PUSH32 0x416363657373207265737472696374656420746F2042504F4D20726F6C650000 PUSH1 0x44 DUP3 ADD MSTORE PUSH1 0x64 ADD PUSH2 0x31D JUMP JUMPDEST PUSH0 PUSH1 0x2 DUP4 PUSH1 0x20 ADD MLOAD PUSH1 0x40 MLOAD PUSH2 0x20AC SWAP2 SWAP1 PUSH2 0x3CA7 JUMP JUMPDEST SWAP1 DUP2 MSTORE PUSH1 0x20 ADD PUSH1 0x40 MLOAD DUP1 SWAP2 SUB SWAP1 KECCAK256 SWAP1 POP PUSH0 DUP2 PUSH0 ADD DUP1 SLOAD PUSH2 0x20CB SWAP1 PUSH2 0x3CBD JUMP JUMPDEST SWAP1 POP GT PUSH2 0x210B JUMPI PUSH1 0x40 MLOAD PUSH3 0x461BCD PUSH1 0xE5 SHL DUP2 MSTORE PUSH1 0x20 PUSH1 0x4 DUP3 ADD MSTORE PUSH1 0xE PUSH1 0x24 DUP3 ADD MSTORE PUSH14 0x10D113D0881B9BDD08199BDD5B99 PUSH1 0x92 SHL PUSH1 0x44 DUP3 ADD MSTORE PUSH1 0x64 ADD PUSH2 0x31D JUMP JUMPDEST PUSH0 PUSH1 0x2 DUP3 ADD SLOAD PUSH1 0xFF AND PUSH1 0x1 DUP2 GT ISZERO PUSH2 0x2125 JUMPI PUSH2 0x2125 PUSH2 0x373B JUMP JUMPDEST EQ PUSH2 0x2172 JUMPI PUSH1 0x40 MLOAD PUSH3 0x461BCD PUSH1 0xE5 SHL DUP2 MSTORE PUSH1 0x20 PUSH1 0x4 DUP3 ADD MSTORE PUSH1 0x1F PUSH1 0x24 DUP3 ADD MSTORE PUSH32 0x43444F4220737461747573206D75737420626520275265717565737465642700 PUSH1 0x44 DUP3 ADD MSTORE PUSH1 0x64 ADD PUSH2 0x31D JUMP JUMPDEST PUSH2 0x2185 DUP4 PUSH1 0x40 ADD MLOAD CALLER DUP6 PUSH1 0x60 ADD MLOAD PUSH2 0x314E JUMP JUMPDEST DUP1 MLOAD PUSH1 0x8 DUP4 ADD SWAP1 DUP2 SWAP1 PUSH2 0x2198 SWAP1 DUP3 PUSH2 0x3D41 JUMP JUMPDEST POP PUSH1 0x20 DUP3 ADD MLOAD PUSH1 0x1 DUP3 ADD DUP1 SLOAD PUSH1 0x1 PUSH1 0x1 PUSH1 0xA0 SHL SUB NOT AND PUSH1 0x1 PUSH1 0x1 PUSH1 0xA0 SHL SUB SWAP1 SWAP3 AND SWAP2 SWAP1 SWAP2 OR SWAP1 SSTORE PUSH1 0x40 DUP3 ADD MLOAD PUSH1 0x2 DUP3 ADD SWAP1 PUSH2 0x21D3 SWAP1 DUP3 PUSH2 0x3D41 JUMP JUMPDEST POP POP POP PUSH1 0x2 DUP2 ADD DUP1 SLOAD PUSH1 0xFF NOT AND PUSH1 0x1 SWAP1 DUP2 OR SWAP1 SWAP2 SSTORE TIMESTAMP PUSH1 0x4 DUP4 ADD SSTORE DUP4 MLOAD SWAP1 DUP3 ADD SWAP1 PUSH2 0x21FE SWAP1 DUP3 PUSH2 0x3D41 JUMP JUMPDEST POP PUSH0 JUMPDEST PUSH1 0x4 SLOAD DUP2 LT ISZERO PUSH2 0x2303 JUMPI PUSH1 0x20 DUP1 DUP6 ADD MLOAD PUSH1 0x40 MLOAD PUSH2 0x221E SWAP3 ADD PUSH2 0x3CA7 JUMP JUMPDEST PUSH1 0x40 MLOAD PUSH1 0x20 DUP2 DUP4 SUB SUB DUP2 MSTORE SWAP1 PUSH1 0x40 MSTORE DUP1 MLOAD SWAP1 PUSH1 0x20 ADD KECCAK256 PUSH1 0x4 DUP3 DUP2 SLOAD DUP2 LT PUSH2 0x2247 JUMPI PUSH2 0x2247 PUSH2 0x3DFB JUMP JUMPDEST SWAP1 PUSH0 MSTORE PUSH1 0x20 PUSH0 KECCAK256 SWAP1 PUSH1 0x5 MUL ADD PUSH0 ADD PUSH1 0x40 MLOAD PUSH1 0x20 ADD PUSH2 0x2265 SWAP2 SWAP1 PUSH2 0x3E0F JUMP JUMPDEST PUSH1 0x40 MLOAD PUSH1 0x20 DUP2 DUP4 SUB SUB DUP2 MSTORE SWAP1 PUSH1 0x40 MSTORE DUP1 MLOAD SWAP1 PUSH1 0x20 ADD KECCAK256 SUB PUSH2 0x22FB JUMPI DUP4 MLOAD PUSH1 0x4 DUP1 SLOAD DUP4 SWAP1 DUP2 LT PUSH2 0x2296 JUMPI PUSH2 0x2296 PUSH2 0x3DFB JUMP JUMPDEST SWAP1 PUSH0 MSTORE PUSH1 0x20 PUSH0 KECCAK256 SWAP1 PUSH1 0x5 MUL ADD PUSH1 0x1 ADD SWAP1 DUP2 PUSH2 0x22B1 SWAP2 SWAP1 PUSH2 0x3D41 JUMP JUMPDEST POP PUSH1 0x1 PUSH1 0x4 DUP3 DUP2 SLOAD DUP2 LT PUSH2 0x22C7 JUMPI PUSH2 0x22C7 PUSH2 0x3DFB JUMP JUMPDEST PUSH0 SWAP2 DUP3 MSTORE PUSH1 0x20 SWAP1 SWAP2 KECCAK256 PUSH1 0x4 PUSH1 0x5 SWAP1 SWAP3 MUL ADD ADD DUP1 SLOAD PUSH2 0xFF00 NOT AND PUSH2 0x100 DUP4 PUSH1 0x1 DUP2 GT ISZERO PUSH2 0x22F5 JUMPI PUSH2 0x22F5 PUSH2 0x373B JUMP JUMPDEST MUL OR SWAP1 SSTORE POP JUMPDEST PUSH1 0x1 ADD PUSH2 0x2201 JUMP JUMPDEST POP PUSH32 0x8D8F26B533BC5F62A32DE1FAA67FACBF43E75BD50AB3E60343FD421507E8DD63 DUP4 PUSH1 0x60 ADD MLOAD CALLER DUP5 PUSH1 0xFF AND PUSH1 0x1 DUP2 GT ISZERO PUSH2 0x2340 JUMPI PUSH2 0x2340 PUSH2 0x373B JUMP JUMPDEST DUP7 MLOAD PUSH1 0x40 MLOAD PUSH2 0x2354 SWAP5 SWAP4 SWAP3 SWAP2 SWAP1 TIMESTAMP SWAP1 PUSH2 0x3F8D JUMP JUMPDEST PUSH1 0x40 MLOAD DUP1 SWAP2 SUB SWAP1 LOG1 POP POP POP JUMP JUMPDEST PUSH1 0x60 PUSH0 PUSH2 0x236D DUP4 PUSH2 0x3208 JUMP JUMPDEST SWAP1 POP PUSH0 DUP2 PUSH1 0xFF AND PUSH1 0x1 PUSH1 0x1 PUSH1 0x40 SHL SUB DUP2 GT ISZERO PUSH2 0x238B JUMPI PUSH2 0x238B PUSH2 0x341A JUMP JUMPDEST PUSH1 0x40 MLOAD SWAP1 DUP1 DUP3 MSTORE DUP1 PUSH1 0x20 MUL PUSH1 0x20 ADD DUP3 ADD PUSH1 0x40 MSTORE DUP1 ISZERO PUSH2 0x23C4 JUMPI DUP2 PUSH1 0x20 ADD JUMPDEST PUSH2 0x23B1 PUSH2 0x337C JUMP JUMPDEST DUP2 MSTORE PUSH1 0x20 ADD SWAP1 PUSH1 0x1 SWAP1 SUB SWAP1 DUP2 PUSH2 0x23A9 JUMPI SWAP1 POP JUMPDEST POP SWAP1 POP PUSH0 DUP1 JUMPDEST PUSH1 0x4 SLOAD DUP2 LT ISZERO PUSH2 0x2729 JUMPI DUP6 PUSH1 0x40 MLOAD PUSH1 0x20 ADD PUSH2 0x23E5 SWAP2 SWAP1 PUSH2 0x3CA7 JUMP JUMPDEST PUSH1 0x40 MLOAD PUSH1 0x20 DUP2 DUP4 SUB SUB DUP2 MSTORE SWAP1 PUSH1 0x40 MSTORE DUP1 MLOAD SWAP1 PUSH1 0x20 ADD KECCAK256 PUSH1 0x4 DUP3 DUP2 SLOAD DUP2 LT PUSH2 0x240E JUMPI PUSH2 0x240E PUSH2 0x3DFB JUMP JUMPDEST SWAP1 PUSH0 MSTORE PUSH1 0x20 PUSH0 KECCAK256 SWAP1 PUSH1 0x5 MUL ADD PUSH1 0x2 ADD PUSH1 0x40 MLOAD PUSH1 0x20 ADD PUSH2 0x242D SWAP2 SWAP1 PUSH2 0x3E0F JUMP JUMPDEST PUSH1 0x40 MLOAD PUSH1 0x20 DUP2 DUP4 SUB SUB DUP2 MSTORE SWAP1 PUSH1 0x40 MSTORE DUP1 MLOAD SWAP1 PUSH1 0x20 ADD KECCAK256 SUB PUSH2 0x2721 JUMPI PUSH1 0x4 DUP2 DUP2 SLOAD DUP2 LT PUSH2 0x245B JUMPI PUSH2 0x245B PUSH2 0x3DFB JUMP JUMPDEST SWAP1 PUSH0 MSTORE PUSH1 0x20 PUSH0 KECCAK256 SWAP1 PUSH1 0x5 MUL ADD PUSH1 0x40 MLOAD DUP1 PUSH1 0xC0 ADD PUSH1 0x40 MSTORE SWAP1 DUP2 PUSH0 DUP3 ADD DUP1 SLOAD PUSH2 0x2481 SWAP1 PUSH2 0x3CBD JUMP JUMPDEST DUP1 PUSH1 0x1F ADD PUSH1 0x20 DUP1 SWAP2 DIV MUL PUSH1 0x20 ADD PUSH1 0x40 MLOAD SWAP1 DUP2 ADD PUSH1 0x40 MSTORE DUP1 SWAP3 SWAP2 SWAP1 DUP2 DUP2 MSTORE PUSH1 0x20 ADD DUP3 DUP1 SLOAD PUSH2 0x24AD SWAP1 PUSH2 0x3CBD JUMP JUMPDEST DUP1 ISZERO PUSH2 0x24F8 JUMPI DUP1 PUSH1 0x1F LT PUSH2 0x24CF JUMPI PUSH2 0x100 DUP1 DUP4 SLOAD DIV MUL DUP4 MSTORE SWAP2 PUSH1 0x20 ADD SWAP2 PUSH2 0x24F8 JUMP JUMPDEST DUP3 ADD SWAP2 SWAP1 PUSH0 MSTORE PUSH1 0x20 PUSH0 KECCAK256 SWAP1 JUMPDEST DUP2 SLOAD DUP2 MSTORE SWAP1 PUSH1 0x1 ADD SWAP1 PUSH1 0x20 ADD DUP1 DUP4 GT PUSH2 0x24DB JUMPI DUP3 SWAP1 SUB PUSH1 0x1F AND DUP3 ADD SWAP2 JUMPDEST POP POP POP POP POP DUP2 MSTORE PUSH1 0x20 ADD PUSH1 0x1 DUP3 ADD DUP1 SLOAD PUSH2 0x2511 SWAP1 PUSH2 0x3CBD JUMP JUMPDEST DUP1 PUSH1 0x1F ADD PUSH1 0x20 DUP1 SWAP2 DIV MUL PUSH1 0x20 ADD PUSH1 0x40 MLOAD SWAP1 DUP2 ADD PUSH1 0x40 MSTORE DUP1 SWAP3 SWAP2 SWAP1 DUP2 DUP2 MSTORE PUSH1 0x20 ADD DUP3 DUP1 SLOAD PUSH2 0x253D SWAP1 PUSH2 0x3CBD JUMP JUMPDEST DUP1 ISZERO PUSH2 0x2588 JUMPI DUP1 PUSH1 0x1F LT PUSH2 0x255F JUMPI PUSH2 0x100 DUP1 DUP4 SLOAD DIV MUL DUP4 MSTORE SWAP2 PUSH1 0x20 ADD SWAP2 PUSH2 0x2588 JUMP JUMPDEST DUP3 ADD SWAP2 SWAP1 PUSH0 MSTORE PUSH1 0x20 PUSH0 KECCAK256 SWAP1 JUMPDEST DUP2 SLOAD DUP2 MSTORE SWAP1 PUSH1 0x1 ADD SWAP1 PUSH1 0x20 ADD DUP1 DUP4 GT PUSH2 0x256B JUMPI DUP3 SWAP1 SUB PUSH1 0x1F AND DUP3 ADD SWAP2 JUMPDEST POP POP POP POP POP DUP2 MSTORE PUSH1 0x20 ADD PUSH1 0x2 DUP3 ADD DUP1 SLOAD PUSH2 0x25A1 SWAP1 PUSH2 0x3CBD JUMP JUMPDEST DUP1 PUSH1 0x1F ADD PUSH1 0x20 DUP1 SWAP2 DIV MUL PUSH1 0x20 ADD PUSH1 0x40 MLOAD SWAP1 DUP2 ADD PUSH1 0x40 MSTORE DUP1 SWAP3 SWAP2 SWAP1 DUP2 DUP2 MSTORE PUSH1 0x20 ADD DUP3 DUP1 SLOAD PUSH2 0x25CD SWAP1 PUSH2 0x3CBD JUMP JUMPDEST DUP1 ISZERO PUSH2 0x2618 JUMPI DUP1 PUSH1 0x1F LT PUSH2 0x25EF JUMPI PUSH2 0x100 DUP1 DUP4 SLOAD DIV MUL DUP4 MSTORE SWAP2 PUSH1 0x20 ADD SWAP2 PUSH2 0x2618 JUMP JUMPDEST DUP3 ADD SWAP2 SWAP1 PUSH0 MSTORE PUSH1 0x20 PUSH0 KECCAK256 SWAP1 JUMPDEST DUP2 SLOAD DUP2 MSTORE SWAP1 PUSH1 0x1 ADD SWAP1 PUSH1 0x20 ADD DUP1 DUP4 GT PUSH2 0x25FB JUMPI DUP3 SWAP1 SUB PUSH1 0x1F AND DUP3 ADD SWAP2 JUMPDEST POP POP POP POP POP DUP2 MSTORE PUSH1 0x20 ADD PUSH1 0x3 DUP3 ADD DUP1 SLOAD PUSH2 0x2631 SWAP1 PUSH2 0x3CBD JUMP JUMPDEST DUP1 PUSH1 0x1F ADD PUSH1 0x20 DUP1 SWAP2 DIV MUL PUSH1 0x20 ADD PUSH1 0x40 MLOAD SWAP1 DUP2 ADD PUSH1 0x40 MSTORE DUP1 SWAP3 SWAP2 SWAP1 DUP2 DUP2 MSTORE PUSH1 0x20 ADD DUP3 DUP1 SLOAD PUSH2 0x265D SWAP1 PUSH2 0x3CBD JUMP JUMPDEST DUP1 ISZERO PUSH2 0x26A8 JUMPI DUP1 PUSH1 0x1F LT PUSH2 0x267F JUMPI PUSH2 0x100 DUP1 DUP4 SLOAD DIV MUL DUP4 MSTORE SWAP2 PUSH1 0x20 ADD SWAP2 PUSH2 0x26A8 JUMP JUMPDEST DUP3 ADD SWAP2 SWAP1 PUSH0 MSTORE PUSH1 0x20 PUSH0 KECCAK256 SWAP1 JUMPDEST DUP2 SLOAD DUP2 MSTORE SWAP1 PUSH1 0x1 ADD SWAP1 PUSH1 0x20 ADD DUP1 DUP4 GT PUSH2 0x268B JUMPI DUP3 SWAP1 SUB PUSH1 0x1F AND DUP3 ADD SWAP2 JUMPDEST POP POP POP SWAP2 DUP4 MSTORE POP POP PUSH1 0x4 DUP3 ADD SLOAD PUSH1 0xFF DUP1 DUP3 AND PUSH1 0x20 DUP5 ADD MSTORE PUSH1 0x40 SWAP1 SWAP3 ADD SWAP2 PUSH2 0x100 SWAP1 SWAP2 DIV AND PUSH1 0x1 DUP2 GT ISZERO PUSH2 0x26DD JUMPI PUSH2 0x26DD PUSH2 0x373B JUMP JUMPDEST PUSH1 0x1 DUP2 GT ISZERO PUSH2 0x26EE JUMPI PUSH2 0x26EE PUSH2 0x373B JUMP JUMPDEST DUP2 MSTORE POP POP DUP4 DUP4 PUSH1 0xFF AND DUP2 MLOAD DUP2 LT PUSH2 0x2707 JUMPI PUSH2 0x2707 PUSH2 0x3DFB JUMP JUMPDEST PUSH1 0x20 MUL PUSH1 0x20 ADD ADD DUP2 SWAP1 MSTORE POP DUP2 DUP1 PUSH2 0x271D SWAP1 PUSH2 0x3FCF JUMP JUMPDEST SWAP3 POP POP JUMPDEST PUSH1 0x1 ADD PUSH2 0x23CA JUMP JUMPDEST POP SWAP1 SWAP5 SWAP4 POP POP POP POP JUMP JUMPDEST PUSH1 0x60 PUSH0 PUSH2 0x275B PUSH1 0x40 MLOAD DUP1 PUSH1 0x40 ADD PUSH1 0x40 MSTORE DUP1 PUSH1 0x4 DUP2 MSTORE PUSH1 0x20 ADD PUSH4 0x31B237B1 PUSH1 0xE1 SHL DUP2 MSTORE POP PUSH2 0x32A7 JUMP JUMPDEST SWAP1 POP PUSH0 PUSH1 0x40 MLOAD PUSH1 0x20 ADD PUSH2 0x2778 SWAP1 PUSH4 0x31B237B1 PUSH1 0xE1 SHL DUP2 MSTORE PUSH1 0x4 ADD SWAP1 JUMP JUMPDEST PUSH1 0x40 MLOAD PUSH1 0x20 DUP2 DUP4 SUB SUB DUP2 MSTORE SWAP1 PUSH1 0x40 MSTORE DUP1 MLOAD SWAP1 PUSH1 0x20 ADD KECCAK256 SWAP1 POP PUSH0 DUP3 PUSH1 0xFF AND PUSH1 0x1 PUSH1 0x1 PUSH1 0x40 SHL SUB DUP2 GT ISZERO PUSH2 0x27AC JUMPI PUSH2 0x27AC PUSH2 0x341A JUMP JUMPDEST PUSH1 0x40 MLOAD SWAP1 DUP1 DUP3 MSTORE DUP1 PUSH1 0x20 MUL PUSH1 0x20 ADD DUP3 ADD PUSH1 0x40 MSTORE DUP1 ISZERO PUSH2 0x27E5 JUMPI DUP2 PUSH1 0x20 ADD JUMPDEST PUSH2 0x27D2 PUSH2 0x337C JUMP JUMPDEST DUP2 MSTORE PUSH1 0x20 ADD SWAP1 PUSH1 0x1 SWAP1 SUB SWAP1 DUP2 PUSH2 0x27CA JUMPI SWAP1 POP JUMPDEST POP SWAP1 POP PUSH0 DUP1 JUMPDEST PUSH1 0x4 SLOAD DUP2 LT ISZERO PUSH2 0x2729 JUMPI DUP4 PUSH1 0x4 DUP3 DUP2 SLOAD DUP2 LT PUSH2 0x2809 JUMPI PUSH2 0x2809 PUSH2 0x3DFB JUMP JUMPDEST SWAP1 PUSH0 MSTORE PUSH1 0x20 PUSH0 KECCAK256 SWAP1 PUSH1 0x5 MUL ADD PUSH1 0x3 ADD PUSH1 0x40 MLOAD PUSH1 0x20 ADD PUSH2 0x2828 SWAP2 SWAP1 PUSH2 0x3E0F JUMP JUMPDEST PUSH1 0x40 MLOAD PUSH1 0x20 DUP2 DUP4 SUB SUB DUP2 MSTORE SWAP1 PUSH1 0x40 MSTORE DUP1 MLOAD SWAP1 PUSH1 0x20 ADD KECCAK256 SUB PUSH2 0x2B1C JUMPI PUSH1 0x4 DUP2 DUP2 SLOAD DUP2 LT PUSH2 0x2856 JUMPI PUSH2 0x2856 PUSH2 0x3DFB JUMP JUMPDEST SWAP1 PUSH0 MSTORE PUSH1 0x20 PUSH0 KECCAK256 SWAP1 PUSH1 0x5 MUL ADD PUSH1 0x40 MLOAD DUP1 PUSH1 0xC0 ADD PUSH1 0x40 MSTORE SWAP1 DUP2 PUSH0 DUP3 ADD DUP1 SLOAD PUSH2 0x287C SWAP1 PUSH2 0x3CBD JUMP JUMPDEST DUP1 PUSH1 0x1F ADD PUSH1 0x20 DUP1 SWAP2 DIV MUL PUSH1 0x20 ADD PUSH1 0x40 MLOAD SWAP1 DUP2 ADD PUSH1 0x40 MSTORE DUP1 SWAP3 SWAP2 SWAP1 DUP2 DUP2 MSTORE PUSH1 0x20 ADD DUP3 DUP1 SLOAD PUSH2 0x28A8 SWAP1 PUSH2 0x3CBD JUMP JUMPDEST DUP1 ISZERO PUSH2 0x28F3 JUMPI DUP1 PUSH1 0x1F LT PUSH2 0x28CA JUMPI PUSH2 0x100 DUP1 DUP4 SLOAD DIV MUL DUP4 MSTORE SWAP2 PUSH1 0x20 ADD SWAP2 PUSH2 0x28F3 JUMP JUMPDEST DUP3 ADD SWAP2 SWAP1 PUSH0 MSTORE PUSH1 0x20 PUSH0 KECCAK256 SWAP1 JUMPDEST DUP2 SLOAD DUP2 MSTORE SWAP1 PUSH1 0x1 ADD SWAP1 PUSH1 0x20 ADD DUP1 DUP4 GT PUSH2 0x28D6 JUMPI DUP3 SWAP1 SUB PUSH1 0x1F AND DUP3 ADD SWAP2 JUMPDEST POP POP POP POP POP DUP2 MSTORE PUSH1 0x20 ADD PUSH1 0x1 DUP3 ADD DUP1 SLOAD PUSH2 0x290C SWAP1 PUSH2 0x3CBD JUMP JUMPDEST DUP1 PUSH1 0x1F ADD PUSH1 0x20 DUP1 SWAP2 DIV MUL PUSH1 0x20 ADD PUSH1 0x40 MLOAD SWAP1 DUP2 ADD PUSH1 0x40 MSTORE DUP1 SWAP3 SWAP2 SWAP1 DUP2 DUP2 MSTORE PUSH1 0x20 ADD DUP3 DUP1 SLOAD PUSH2 0x2938 SWAP1 PUSH2 0x3CBD JUMP JUMPDEST DUP1 ISZERO PUSH2 0x2983 JUMPI DUP1 PUSH1 0x1F LT PUSH2 0x295A JUMPI PUSH2 0x100 DUP1 DUP4 SLOAD DIV MUL DUP4 MSTORE SWAP2 PUSH1 0x20 ADD SWAP2 PUSH2 0x2983 JUMP JUMPDEST DUP3 ADD SWAP2 SWAP1 PUSH0 MSTORE PUSH1 0x20 PUSH0 KECCAK256 SWAP1 JUMPDEST DUP2 SLOAD DUP2 MSTORE SWAP1 PUSH1 0x1 ADD SWAP1 PUSH1 0x20 ADD DUP1 DUP4 GT PUSH2 0x2966 JUMPI DUP3 SWAP1 SUB PUSH1 0x1F AND DUP3 ADD SWAP2 JUMPDEST POP POP POP POP POP DUP2 MSTORE PUSH1 0x20 ADD PUSH1 0x2 DUP3 ADD DUP1 SLOAD PUSH2 0x299C SWAP1 PUSH2 0x3CBD JUMP JUMPDEST DUP1 PUSH1 0x1F ADD PUSH1 0x20 DUP1 SWAP2 DIV MUL PUSH1 0x20 ADD PUSH1 0x40 MLOAD SWAP1 DUP2 ADD PUSH1 0x40 MSTORE DUP1 SWAP3 SWAP2 SWAP1 DUP2 DUP2 MSTORE PUSH1 0x20 ADD DUP3 DUP1 SLOAD PUSH2 0x29C8 SWAP1 PUSH2 0x3CBD JUMP JUMPDEST DUP1 ISZERO PUSH2 0x2A13 JUMPI DUP1 PUSH1 0x1F LT PUSH2 0x29EA JUMPI PUSH2 0x100 DUP1 DUP4 SLOAD DIV MUL DUP4 MSTORE SWAP2 PUSH1 0x20 ADD SWAP2 PUSH2 0x2A13 JUMP JUMPDEST DUP3 ADD SWAP2 SWAP1 PUSH0 MSTORE PUSH1 0x20 PUSH0 KECCAK256 SWAP1 JUMPDEST DUP2 SLOAD DUP2 MSTORE SWAP1 PUSH1 0x1 ADD SWAP1 PUSH1 0x20 ADD DUP1 DUP4 GT PUSH2 0x29F6 JUMPI DUP3 SWAP1 SUB PUSH1 0x1F AND DUP3 ADD SWAP2 JUMPDEST POP POP POP POP POP DUP2 MSTORE PUSH1 0x20 ADD PUSH1 0x3 DUP3 ADD DUP1 SLOAD PUSH2 0x2A2C SWAP1 PUSH2 0x3CBD JUMP JUMPDEST DUP1 PUSH1 0x1F ADD PUSH1 0x20 DUP1 SWAP2 DIV MUL PUSH1 0x20 ADD PUSH1 0x40 MLOAD SWAP1 DUP2 ADD PUSH1 0x40 MSTORE DUP1 SWAP3 SWAP2 SWAP1 DUP2 DUP2 MSTORE PUSH1 0x20 ADD DUP3 DUP1 SLOAD PUSH2 0x2A58 SWAP1 PUSH2 0x3CBD JUMP JUMPDEST DUP1 ISZERO PUSH2 0x2AA3 JUMPI DUP1 PUSH1 0x1F LT PUSH2 0x2A7A JUMPI PUSH2 0x100 DUP1 DUP4 SLOAD DIV MUL DUP4 MSTORE SWAP2 PUSH1 0x20 ADD SWAP2 PUSH2 0x2AA3 JUMP JUMPDEST DUP3 ADD SWAP2 SWAP1 PUSH0 MSTORE PUSH1 0x20 PUSH0 KECCAK256 SWAP1 JUMPDEST DUP2 SLOAD DUP2 MSTORE SWAP1 PUSH1 0x1 ADD SWAP1 PUSH1 0x20 ADD DUP1 DUP4 GT PUSH2 0x2A86 JUMPI DUP3 SWAP1 SUB PUSH1 0x1F AND DUP3 ADD SWAP2 JUMPDEST POP POP POP SWAP2 DUP4 MSTORE POP POP PUSH1 0x4 DUP3 ADD SLOAD PUSH1 0xFF DUP1 DUP3 AND PUSH1 0x20 DUP5 ADD MSTORE PUSH1 0x40 SWAP1 SWAP3 ADD SWAP2 PUSH2 0x100 SWAP1 SWAP2 DIV AND PUSH1 0x1 DUP2 GT ISZERO PUSH2 0x2AD8 JUMPI PUSH2 0x2AD8 PUSH2 0x373B JUMP JUMPDEST PUSH1 0x1 DUP2 GT ISZERO PUSH2 0x2AE9 JUMPI PUSH2 0x2AE9 PUSH2 0x373B JUMP JUMPDEST DUP2 MSTORE POP POP DUP4 DUP4 PUSH1 0xFF AND DUP2 MLOAD DUP2 LT PUSH2 0x2B02 JUMPI PUSH2 0x2B02 PUSH2 0x3DFB JUMP JUMPDEST PUSH1 0x20 MUL PUSH1 0x20 ADD ADD DUP2 SWAP1 MSTORE POP DUP2 DUP1 PUSH2 0x2B18 SWAP1 PUSH2 0x3FCF JUMP JUMPDEST SWAP3 POP POP JUMPDEST PUSH1 0x1 ADD PUSH2 0x27EB JUMP JUMPDEST PUSH1 0x1 PUSH1 0x1 PUSH1 0xA0 SHL SUB DUP3 AND CALLER EQ PUSH2 0x2B7C JUMPI PUSH1 0x40 MLOAD PUSH3 0x461BCD PUSH1 0xE5 SHL DUP2 MSTORE PUSH1 0x20 PUSH1 0x4 DUP3 ADD MSTORE PUSH1 0x17 PUSH1 0x24 DUP3 ADD MSTORE PUSH32 0x53656E6465722061646472657373206D69736D61746368000000000000000000 PUSH1 0x44 DUP3 ADD MSTORE PUSH1 0x64 ADD PUSH2 0x31D JUMP JUMPDEST PUSH0 SLOAD PUSH1 0x1 PUSH1 0x1 PUSH1 0xA0 SHL SUB AND PUSH4 0xD1233672 DUP6 DUP6 CALLER PUSH1 0xFF DUP7 AND PUSH1 0x3 DUP2 GT ISZERO PUSH2 0x2BA4 JUMPI PUSH2 0x2BA4 PUSH2 0x373B JUMP JUMPDEST PUSH1 0x40 MLOAD DUP6 PUSH4 0xFFFFFFFF AND PUSH1 0xE0 SHL DUP2 MSTORE PUSH1 0x4 ADD PUSH2 0x2BC3 SWAP5 SWAP4 SWAP3 SWAP2 SWAP1 PUSH2 0x3FF9 JUMP JUMPDEST PUSH0 PUSH1 0x40 MLOAD DUP1 DUP4 SUB DUP2 PUSH0 DUP8 DUP1 EXTCODESIZE ISZERO DUP1 ISZERO PUSH2 0x2BDA JUMPI PUSH0 DUP1 REVERT JUMPDEST POP GAS CALL ISZERO DUP1 ISZERO PUSH2 0x2BEC JUMPI RETURNDATASIZE PUSH0 DUP1 RETURNDATACOPY RETURNDATASIZE PUSH0 REVERT JUMPDEST POP POP POP POP PUSH32 0x93B86CF0A1D8E18E724E08D47F7248859DE317795BE109EC2495F6FC7445B4E9 CALLER DUP6 DUP6 DUP5 PUSH1 0x40 MLOAD PUSH2 0x678 SWAP5 SWAP4 SWAP3 SWAP2 SWAP1 PUSH2 0x3C5D JUMP JUMPDEST PUSH1 0x60 PUSH1 0x3 DUP3 PUSH1 0x40 MLOAD PUSH2 0x2C37 SWAP2 SWAP1 PUSH2 0x3CA7 JUMP JUMPDEST SWAP1 DUP2 MSTORE PUSH1 0x40 DUP1 MLOAD SWAP2 DUP3 SWAP1 SUB PUSH1 0x20 SWAP1 DUP2 ADD DUP4 KECCAK256 DUP1 SLOAD DUP1 DUP4 MUL DUP6 ADD DUP4 ADD SWAP1 SWAP4 MSTORE DUP3 DUP5 MSTORE SWAP2 SWAP1 DUP4 ADD DUP3 DUP3 DUP1 ISZERO PUSH2 0x2CA4 JUMPI PUSH1 0x20 MUL DUP3 ADD SWAP2 SWAP1 PUSH0 MSTORE PUSH1 0x20 PUSH0 KECCAK256 SWAP1 PUSH0 SWAP1 JUMPDEST DUP3 SLOAD PUSH2 0x100 DUP4 SWAP1 EXP SWAP1 DIV PUSH1 0xFF AND DUP2 MSTORE PUSH1 0x20 PUSH1 0x1 SWAP3 DUP4 ADD DUP2 DUP2 DIV SWAP5 DUP6 ADD SWAP5 SWAP1 SWAP4 SUB SWAP1 SWAP3 MUL SWAP2 ADD DUP1 DUP5 GT PUSH2 0x2C75 JUMPI SWAP1 POP JUMPDEST POP POP POP POP POP SWAP1 POP SWAP2 SWAP1 POP JUMP JUMPDEST PUSH0 DUP1 SLOAD PUSH1 0x40 MLOAD PUSH4 0xE54A29BB PUSH1 0xE0 SHL DUP2 MSTORE PUSH1 0x1 PUSH1 0x1 PUSH1 0xA0 SHL SUB DUP5 DUP2 AND PUSH1 0x4 DUP4 ADD MSTORE PUSH1 0x60 SWAP3 DUP4 SWAP3 DUP6 SWAP3 DUP4 SWAP3 DUP4 SWAP3 DUP4 SWAP3 DUP4 SWAP3 AND SWAP1 PUSH4 0xE54A29BB SWAP1 PUSH1 0x24 ADD PUSH0 PUSH1 0x40 MLOAD DUP1 DUP4 SUB DUP2 DUP7 GAS STATICCALL ISZERO DUP1 ISZERO PUSH2 0x2D04 JUMPI RETURNDATASIZE PUSH0 DUP1 RETURNDATACOPY RETURNDATASIZE PUSH0 REVERT JUMPDEST POP POP POP POP PUSH1 0x40 MLOAD RETURNDATASIZE PUSH0 DUP3 RETURNDATACOPY PUSH1 0x1F RETURNDATASIZE SWAP1 DUP2 ADD PUSH1 0x1F NOT AND DUP3 ADD PUSH1 0x40 MSTORE PUSH2 0x2D2B SWAP2 SWAP1 DUP2 ADD SWAP1 PUSH2 0x408A JUMP JUMPDEST SWAP4 POP SWAP4 POP SWAP4 POP SWAP4 POP DUP2 DUP5 DUP5 DUP4 PUSH1 0x3 DUP2 GT ISZERO PUSH2 0x2D48 JUMPI PUSH2 0x2D48 PUSH2 0x373B JUMP JUMPDEST SWAP8 POP SWAP8 POP SWAP8 POP SWAP8 POP POP POP POP POP SWAP2 SWAP4 POP SWAP2 SWAP4 JUMP JUMPDEST PUSH1 0x60 PUSH0 PUSH2 0x2D84 PUSH1 0x40 MLOAD DUP1 PUSH1 0x40 ADD PUSH1 0x40 MSTORE DUP1 PUSH1 0x5 DUP2 MSTORE PUSH1 0x20 ADD PUSH5 0x31B837BA31 PUSH1 0xD9 SHL DUP2 MSTORE POP PUSH2 0x32A7 JUMP JUMPDEST SWAP1 POP PUSH0 PUSH1 0x40 MLOAD PUSH1 0x20 ADD PUSH2 0x2DA2 SWAP1 PUSH5 0x31B837BA31 PUSH1 0xD9 SHL DUP2 MSTORE PUSH1 0x5 ADD SWAP1 JUMP JUMPDEST PUSH1 0x40 MLOAD PUSH1 0x20 DUP2 DUP4 SUB SUB DUP2 MSTORE SWAP1 PUSH1 0x40 MSTORE DUP1 MLOAD SWAP1 PUSH1 0x20 ADD KECCAK256 SWAP1 POP PUSH0 DUP3 PUSH1 0xFF AND PUSH1 0x1 PUSH1 0x1 PUSH1 0x40 SHL SUB DUP2 GT ISZERO PUSH2 0x2DD6 JUMPI PUSH2 0x2DD6 PUSH2 0x341A JUMP JUMPDEST PUSH1 0x40 MLOAD SWAP1 DUP1 DUP3 MSTORE DUP1 PUSH1 0x20 MUL PUSH1 0x20 ADD DUP3 ADD PUSH1 0x40 MSTORE DUP1 ISZERO PUSH2 0x2E0F JUMPI DUP2 PUSH1 0x20 ADD JUMPDEST PUSH2 0x2DFC PUSH2 0x337C JUMP JUMPDEST DUP2 MSTORE PUSH1 0x20 ADD SWAP1 PUSH1 0x1 SWAP1 SUB SWAP1 DUP2 PUSH2 0x2DF4 JUMPI SWAP1 POP JUMPDEST POP SWAP1 POP PUSH0 DUP1 JUMPDEST PUSH1 0x4 SLOAD DUP2 LT ISZERO PUSH2 0x2729 JUMPI DUP4 PUSH1 0x4 DUP3 DUP2 SLOAD DUP2 LT PUSH2 0x2E33 JUMPI PUSH2 0x2E33 PUSH2 0x3DFB JUMP JUMPDEST SWAP1 PUSH0 MSTORE PUSH1 0x20 PUSH0 KECCAK256 SWAP1 PUSH1 0x5 MUL ADD PUSH1 0x3 ADD PUSH1 0x40 MLOAD PUSH1 0x20 ADD PUSH2 0x2E52 SWAP2 SWAP1 PUSH2 0x3E0F JUMP JUMPDEST PUSH1 0x40 MLOAD PUSH1 0x20 DUP2 DUP4 SUB SUB DUP2 MSTORE SWAP1 PUSH1 0x40 MSTORE DUP1 MLOAD SWAP1 PUSH1 0x20 ADD KECCAK256 SUB PUSH2 0x3146 JUMPI PUSH1 0x4 DUP2 DUP2 SLOAD DUP2 LT PUSH2 0x2E80 JUMPI PUSH2 0x2E80 PUSH2 0x3DFB JUMP JUMPDEST SWAP1 PUSH0 MSTORE PUSH1 0x20 PUSH0 KECCAK256 SWAP1 PUSH1 0x5 MUL ADD PUSH1 0x40 MLOAD DUP1 PUSH1 0xC0 ADD PUSH1 0x40 MSTORE SWAP1 DUP2 PUSH0 DUP3 ADD DUP1 SLOAD PUSH2 0x2EA6 SWAP1 PUSH2 0x3CBD JUMP JUMPDEST DUP1 PUSH1 0x1F ADD PUSH1 0x20 DUP1 SWAP2 DIV MUL PUSH1 0x20 ADD PUSH1 0x40 MLOAD SWAP1 DUP2 ADD PUSH1 0x40 MSTORE DUP1 SWAP3 SWAP2 SWAP1 DUP2 DUP2 MSTORE PUSH1 0x20 ADD DUP3 DUP1 SLOAD PUSH2 0x2ED2 SWAP1 PUSH2 0x3CBD JUMP JUMPDEST DUP1 ISZERO PUSH2 0x2F1D JUMPI DUP1 PUSH1 0x1F LT PUSH2 0x2EF4 JUMPI PUSH2 0x100 DUP1 DUP4 SLOAD DIV MUL DUP4 MSTORE SWAP2 PUSH1 0x20 ADD SWAP2 PUSH2 0x2F1D JUMP JUMPDEST DUP3 ADD SWAP2 SWAP1 PUSH0 MSTORE PUSH1 0x20 PUSH0 KECCAK256 SWAP1 JUMPDEST DUP2 SLOAD DUP2 MSTORE SWAP1 PUSH1 0x1 ADD SWAP1 PUSH1 0x20 ADD DUP1 DUP4 GT PUSH2 0x2F00 JUMPI DUP3 SWAP1 SUB PUSH1 0x1F AND DUP3 ADD SWAP2 JUMPDEST POP POP POP POP POP DUP2 MSTORE PUSH1 0x20 ADD PUSH1 0x1 DUP3 ADD DUP1 SLOAD PUSH2 0x2F36 SWAP1 PUSH2 0x3CBD JUMP JUMPDEST DUP1 PUSH1 0x1F ADD PUSH1 0x20 DUP1 SWAP2 DIV MUL PUSH1 0x20 ADD PUSH1 0x40 MLOAD SWAP1 DUP2 ADD PUSH1 0x40 MSTORE DUP1 SWAP3 SWAP2 SWAP1 DUP2 DUP2 MSTORE PUSH1 0x20 ADD DUP3 DUP1 SLOAD PUSH2 0x2F62 SWAP1 PUSH2 0x3CBD JUMP JUMPDEST DUP1 ISZERO PUSH2 0x2FAD JUMPI DUP1 PUSH1 0x1F LT PUSH2 0x2F84 JUMPI PUSH2 0x100 DUP1 DUP4 SLOAD DIV MUL DUP4 MSTORE SWAP2 PUSH1 0x20 ADD SWAP2 PUSH2 0x2FAD JUMP JUMPDEST DUP3 ADD SWAP2 SWAP1 PUSH0 MSTORE PUSH1 0x20 PUSH0 KECCAK256 SWAP1 JUMPDEST DUP2 SLOAD DUP2 MSTORE SWAP1 PUSH1 0x1 ADD SWAP1 PUSH1 0x20 ADD DUP1 DUP4 GT PUSH2 0x2F90 JUMPI DUP3 SWAP1 SUB PUSH1 0x1F AND DUP3 ADD SWAP2 JUMPDEST POP POP POP POP POP DUP2 MSTORE PUSH1 0x20 ADD PUSH1 0x2 DUP3 ADD DUP1 SLOAD PUSH2 0x2FC6 SWAP1 PUSH2 0x3CBD JUMP JUMPDEST DUP1 PUSH1 0x1F ADD PUSH1 0x20 DUP1 SWAP2 DIV MUL PUSH1 0x20 ADD PUSH1 0x40 MLOAD SWAP1 DUP2 ADD PUSH1 0x40 MSTORE DUP1 SWAP3 SWAP2 SWAP1 DUP2 DUP2 MSTORE PUSH1 0x20 ADD DUP3 DUP1 SLOAD PUSH2 0x2FF2 SWAP1 PUSH2 0x3CBD JUMP JUMPDEST DUP1 ISZERO PUSH2 0x303D JUMPI DUP1 PUSH1 0x1F LT PUSH2 0x3014 JUMPI PUSH2 0x100 DUP1 DUP4 SLOAD DIV MUL DUP4 MSTORE SWAP2 PUSH1 0x20 ADD SWAP2 PUSH2 0x303D JUMP JUMPDEST DUP3 ADD SWAP2 SWAP1 PUSH0 MSTORE PUSH1 0x20 PUSH0 KECCAK256 SWAP1 JUMPDEST DUP2 SLOAD DUP2 MSTORE SWAP1 PUSH1 0x1 ADD SWAP1 PUSH1 0x20 ADD DUP1 DUP4 GT PUSH2 0x3020 JUMPI DUP3 SWAP1 SUB PUSH1 0x1F AND DUP3 ADD SWAP2 JUMPDEST POP POP POP POP POP DUP2 MSTORE PUSH1 0x20 ADD PUSH1 0x3 DUP3 ADD DUP1 SLOAD PUSH2 0x3056 SWAP1 PUSH2 0x3CBD JUMP JUMPDEST DUP1 PUSH1 0x1F ADD PUSH1 0x20 DUP1 SWAP2 DIV MUL PUSH1 0x20 ADD PUSH1 0x40 MLOAD SWAP1 DUP2 ADD PUSH1 0x40 MSTORE DUP1 SWAP3 SWAP2 SWAP1 DUP2 DUP2 MSTORE PUSH1 0x20 ADD DUP3 DUP1 SLOAD PUSH2 0x3082 SWAP1 PUSH2 0x3CBD JUMP JUMPDEST DUP1 ISZERO PUSH2 0x30CD JUMPI DUP1 PUSH1 0x1F LT PUSH2 0x30A4 JUMPI PUSH2 0x100 DUP1 DUP4 SLOAD DIV MUL DUP4 MSTORE SWAP2 PUSH1 0x20 ADD SWAP2 PUSH2 0x30CD JUMP JUMPDEST DUP3 ADD SWAP2 SWAP1 PUSH0 MSTORE PUSH1 0x20 PUSH0 KECCAK256 SWAP1 JUMPDEST DUP2 SLOAD DUP2 MSTORE SWAP1 PUSH1 0x1 ADD SWAP1 PUSH1 0x20 ADD DUP1 DUP4 GT PUSH2 0x30B0 JUMPI DUP3 SWAP1 SUB PUSH1 0x1F AND DUP3 ADD SWAP2 JUMPDEST POP POP POP SWAP2 DUP4 MSTORE POP POP PUSH1 0x4 DUP3 ADD SLOAD PUSH1 0xFF DUP1 DUP3 AND PUSH1 0x20 DUP5 ADD MSTORE PUSH1 0x40 SWAP1 SWAP3 ADD SWAP2 PUSH2 0x100 SWAP1 SWAP2 DIV AND PUSH1 0x1 DUP2 GT ISZERO PUSH2 0x3102 JUMPI PUSH2 0x3102 PUSH2 0x373B JUMP JUMPDEST PUSH1 0x1 DUP2 GT ISZERO PUSH2 0x3113 JUMPI PUSH2 0x3113 PUSH2 0x373B JUMP JUMPDEST DUP2 MSTORE POP POP DUP4 DUP4 PUSH1 0xFF AND DUP2 MLOAD DUP2 LT PUSH2 0x312C JUMPI PUSH2 0x312C PUSH2 0x3DFB JUMP JUMPDEST PUSH1 0x20 MUL PUSH1 0x20 ADD ADD DUP2 SWAP1 MSTORE POP DUP2 DUP1 PUSH2 0x3142 SWAP1 PUSH2 0x3FCF JUMP JUMPDEST SWAP3 POP POP JUMPDEST PUSH1 0x1 ADD PUSH2 0x2E15 JUMP JUMPDEST PUSH2 0x3156 PUSH2 0x33BE JUMP JUMPDEST POP PUSH1 0x40 DUP1 MLOAD PUSH1 0x60 DUP2 ADD DUP3 MSTORE DUP5 DUP2 MSTORE PUSH1 0x1 PUSH1 0x1 PUSH1 0xA0 SHL SUB DUP5 AND PUSH1 0x20 DUP3 ADD MSTORE SWAP1 DUP2 ADD DUP3 SWAP1 MSTORE JUMPDEST SWAP4 SWAP3 POP POP POP JUMP JUMPDEST PUSH2 0x3189 PUSH2 0x33E7 JUMP JUMPDEST POP PUSH1 0x40 DUP1 MLOAD PUSH1 0xA0 DUP2 ADD DUP3 MSTORE PUSH0 DUP1 DUP3 MSTORE TIMESTAMP PUSH1 0x20 DUP4 ADD MSTORE SWAP2 DUP2 ADD SWAP2 SWAP1 SWAP2 MSTORE PUSH1 0x60 DUP2 ADD SWAP3 SWAP1 SWAP3 MSTORE PUSH1 0x80 DUP3 ADD MSTORE SWAP1 JUMP JUMPDEST PUSH2 0x31BD PUSH2 0x337C JUMP JUMPDEST PUSH1 0x40 MLOAD DUP1 PUSH1 0xC0 ADD PUSH1 0x40 MSTORE DUP1 DUP9 DUP2 MSTORE PUSH1 0x20 ADD DUP8 DUP2 MSTORE PUSH1 0x20 ADD DUP7 DUP2 MSTORE PUSH1 0x20 ADD DUP5 DUP2 MSTORE PUSH1 0x20 ADD DUP6 PUSH1 0xFF AND DUP2 MSTORE PUSH1 0x20 ADD DUP4 PUSH1 0x1 DUP2 GT ISZERO PUSH2 0x31FB JUMPI PUSH2 0x31FB PUSH2 0x373B JUMP JUMPDEST SWAP1 MSTORE SWAP8 SWAP7 POP POP POP POP POP POP POP JUMP JUMPDEST PUSH0 DUP1 DUP1 JUMPDEST PUSH1 0x4 SLOAD DUP2 LT ISZERO PUSH2 0x32A0 JUMPI DUP4 PUSH1 0x40 MLOAD PUSH1 0x20 ADD PUSH2 0x3227 SWAP2 SWAP1 PUSH2 0x3CA7 JUMP JUMPDEST PUSH1 0x40 MLOAD PUSH1 0x20 DUP2 DUP4 SUB SUB DUP2 MSTORE SWAP1 PUSH1 0x40 MSTORE DUP1 MLOAD SWAP1 PUSH1 0x20 ADD KECCAK256 PUSH1 0x4 DUP3 DUP2 SLOAD DUP2 LT PUSH2 0x3250 JUMPI PUSH2 0x3250 PUSH2 0x3DFB JUMP JUMPDEST SWAP1 PUSH0 MSTORE PUSH1 0x20 PUSH0 KECCAK256 SWAP1 PUSH1 0x5 MUL ADD PUSH1 0x2 ADD PUSH1 0x40 MLOAD PUSH1 0x20 ADD PUSH2 0x326F SWAP2 SWAP1 PUSH2 0x3E0F JUMP JUMPDEST PUSH1 0x40 MLOAD PUSH1 0x20 DUP2 DUP4 SUB SUB DUP2 MSTORE SWAP1 PUSH1 0x40 MSTORE DUP1 MLOAD SWAP1 PUSH1 0x20 ADD KECCAK256 SUB PUSH2 0x3298 JUMPI DUP2 PUSH2 0x3294 DUP2 PUSH2 0x3FCF JUMP JUMPDEST SWAP3 POP POP JUMPDEST PUSH1 0x1 ADD PUSH2 0x320C JUMP JUMPDEST POP SWAP3 SWAP2 POP POP JUMP JUMPDEST PUSH0 DUP1 PUSH0 SWAP1 POP PUSH0 DUP4 PUSH1 0x40 MLOAD PUSH1 0x20 ADD PUSH2 0x32BE SWAP2 SWAP1 PUSH2 0x3CA7 JUMP JUMPDEST PUSH1 0x40 MLOAD PUSH1 0x20 DUP2 DUP4 SUB SUB DUP2 MSTORE SWAP1 PUSH1 0x40 MSTORE DUP1 MLOAD SWAP1 PUSH1 0x20 ADD KECCAK256 SWAP1 POP PUSH0 JUMPDEST PUSH1 0x4 SLOAD DUP2 LT ISZERO PUSH2 0x3346 JUMPI DUP2 PUSH1 0x4 DUP3 DUP2 SLOAD DUP2 LT PUSH2 0x32F6 JUMPI PUSH2 0x32F6 PUSH2 0x3DFB JUMP JUMPDEST SWAP1 PUSH0 MSTORE PUSH1 0x20 PUSH0 KECCAK256 SWAP1 PUSH1 0x5 MUL ADD PUSH1 0x3 ADD PUSH1 0x40 MLOAD PUSH1 0x20 ADD PUSH2 0x3315 SWAP2 SWAP1 PUSH2 0x3E0F JUMP JUMPDEST PUSH1 0x40 MLOAD PUSH1 0x20 DUP2 DUP4 SUB SUB DUP2 MSTORE SWAP1 PUSH1 0x40 MSTORE DUP1 MLOAD SWAP1 PUSH1 0x20 ADD KECCAK256 SUB PUSH2 0x333E JUMPI DUP3 PUSH2 0x333A DUP2 PUSH2 0x3FCF JUMP JUMPDEST SWAP4 POP POP JUMPDEST PUSH1 0x1 ADD PUSH2 0x32D8 JUMP JUMPDEST POP SWAP1 SWAP4 SWAP3 POP POP POP JUMP JUMPDEST PUSH1 0x40 MLOAD DUP1 PUSH1 0x80 ADD PUSH1 0x40 MSTORE DUP1 PUSH1 0x60 DUP2 MSTORE PUSH1 0x20 ADD PUSH1 0x60 DUP2 MSTORE PUSH1 0x20 ADD PUSH2 0x3370 PUSH2 0x33E7 JUMP JUMPDEST DUP2 MSTORE PUSH1 0x20 ADD PUSH0 JUMPDEST SWAP1 MSTORE SWAP1 JUMP JUMPDEST PUSH1 0x40 MLOAD DUP1 PUSH1 0xC0 ADD PUSH1 0x40 MSTORE DUP1 PUSH1 0x60 DUP2 MSTORE PUSH1 0x20 ADD PUSH1 0x60 DUP2 MSTORE PUSH1 0x20 ADD PUSH1 0x60 DUP2 MSTORE PUSH1 0x20 ADD PUSH1 0x60 DUP2 MSTORE PUSH1 0x20 ADD PUSH0 PUSH1 0xFF AND DUP2 MSTORE PUSH1 0x20 ADD PUSH0 PUSH1 0x1 DUP2 GT ISZERO PUSH2 0x3377 JUMPI PUSH2 0x3377 PUSH2 0x373B JUMP JUMPDEST PUSH1 0x40 MLOAD DUP1 PUSH1 0x60 ADD PUSH1 0x40 MSTORE DUP1 PUSH1 0x60 DUP2 MSTORE PUSH1 0x20 ADD PUSH0 PUSH1 0x1 PUSH1 0x1 PUSH1 0xA0 SHL SUB AND DUP2 MSTORE PUSH1 0x20 ADD PUSH1 0x60 DUP2 MSTORE POP SWAP1 JUMP JUMPDEST PUSH1 0x40 DUP1 MLOAD PUSH1 0xA0 DUP2 ADD SWAP1 SWAP2 MSTORE DUP1 PUSH0 DUP2 MSTORE PUSH1 0x20 ADD PUSH0 DUP2 MSTORE PUSH1 0x20 ADD PUSH0 DUP2 MSTORE PUSH1 0x20 ADD PUSH2 0x340D PUSH2 0x33BE JUMP JUMPDEST DUP2 MSTORE PUSH1 0x20 ADD PUSH2 0x3377 PUSH2 0x33BE JUMP JUMPDEST PUSH4 0x4E487B71 PUSH1 0xE0 SHL PUSH0 MSTORE PUSH1 0x41 PUSH1 0x4 MSTORE PUSH1 0x24 PUSH0 REVERT JUMPDEST PUSH1 0x40 MLOAD PUSH1 0x80 DUP2 ADD PUSH1 0x1 PUSH1 0x1 PUSH1 0x40 SHL SUB DUP2 GT DUP3 DUP3 LT OR ISZERO PUSH2 0x3450 JUMPI PUSH2 0x3450 PUSH2 0x341A JUMP JUMPDEST PUSH1 0x40 MSTORE SWAP1 JUMP JUMPDEST PUSH1 0x40 MLOAD PUSH1 0x60 DUP2 ADD PUSH1 0x1 PUSH1 0x1 PUSH1 0x40 SHL SUB DUP2 GT DUP3 DUP3 LT OR ISZERO PUSH2 0x3450 JUMPI PUSH2 0x3450 PUSH2 0x341A JUMP JUMPDEST PUSH1 0x40 MLOAD PUSH1 0x1F DUP3 ADD PUSH1 0x1F NOT AND DUP2 ADD PUSH1 0x1 PUSH1 0x1 PUSH1 0x40 SHL SUB DUP2 GT DUP3 DUP3 LT OR ISZERO PUSH2 0x34A0 JUMPI PUSH2 0x34A0 PUSH2 0x341A JUMP JUMPDEST PUSH1 0x40 MSTORE SWAP2 SWAP1 POP JUMP JUMPDEST PUSH0 PUSH1 0x1 PUSH1 0x1 PUSH1 0x40 SHL SUB DUP3 GT ISZERO PUSH2 0x34C0 JUMPI PUSH2 0x34C0 PUSH2 0x341A JUMP JUMPDEST POP PUSH1 0x1F ADD PUSH1 0x1F NOT AND PUSH1 0x20 ADD SWAP1 JUMP JUMPDEST PUSH0 DUP3 PUSH1 0x1F DUP4 ADD SLT PUSH2 0x34DD JUMPI PUSH0 DUP1 REVERT JUMPDEST DUP2 CALLDATALOAD PUSH2 0x34F0 PUSH2 0x34EB DUP3 PUSH2 0x34A8 JUMP JUMPDEST PUSH2 0x3478 JUMP JUMPDEST DUP2 DUP2 MSTORE DUP5 PUSH1 0x20 DUP4 DUP7 ADD ADD GT ISZERO PUSH2 0x3504 JUMPI PUSH0 DUP1 REVERT JUMPDEST DUP2 PUSH1 0x20 DUP6 ADD PUSH1 0x20 DUP4 ADD CALLDATACOPY PUSH0 SWAP2 DUP2 ADD PUSH1 0x20 ADD SWAP2 SWAP1 SWAP2 MSTORE SWAP4 SWAP3 POP POP POP JUMP JUMPDEST DUP1 CALLDATALOAD PUSH1 0xFF DUP2 AND DUP2 EQ PUSH2 0x3530 JUMPI PUSH0 DUP1 REVERT JUMPDEST SWAP2 SWAP1 POP JUMP JUMPDEST PUSH0 DUP1 PUSH1 0x40 DUP4 DUP6 SUB SLT ISZERO PUSH2 0x3546 JUMPI PUSH0 DUP1 REVERT JUMPDEST DUP3 CALLDATALOAD PUSH1 0x1 PUSH1 0x1 PUSH1 0x40 SHL SUB DUP2 GT ISZERO PUSH2 0x355B JUMPI PUSH0 DUP1 REVERT JUMPDEST DUP4 ADD PUSH1 0x80 DUP2 DUP7 SUB SLT ISZERO PUSH2 0x356C JUMPI PUSH0 DUP1 REVERT JUMPDEST PUSH2 0x3574 PUSH2 0x342E JUMP JUMPDEST DUP2 CALLDATALOAD PUSH1 0x1 PUSH1 0x1 PUSH1 0x40 SHL SUB DUP2 GT ISZERO PUSH2 0x3589 JUMPI PUSH0 DUP1 REVERT JUMPDEST PUSH2 0x3595 DUP8 DUP3 DUP6 ADD PUSH2 0x34CE JUMP JUMPDEST DUP3 MSTORE POP PUSH1 0x20 DUP3 ADD CALLDATALOAD PUSH1 0x1 PUSH1 0x1 PUSH1 0x40 SHL SUB DUP2 GT ISZERO PUSH2 0x35B0 JUMPI PUSH0 DUP1 REVERT JUMPDEST PUSH2 0x35BC DUP8 DUP3 DUP6 ADD PUSH2 0x34CE JUMP JUMPDEST PUSH1 0x20 DUP4 ADD MSTORE POP PUSH1 0x40 DUP3 ADD CALLDATALOAD PUSH1 0x1 PUSH1 0x1 PUSH1 0x40 SHL SUB DUP2 GT ISZERO PUSH2 0x35DA JUMPI PUSH0 DUP1 REVERT JUMPDEST PUSH2 0x35E6 DUP8 DUP3 DUP6 ADD PUSH2 0x34CE JUMP JUMPDEST PUSH1 0x40 DUP4 ADD MSTORE POP PUSH1 0x60 DUP3 ADD CALLDATALOAD PUSH1 0x1 PUSH1 0x1 PUSH1 0x40 SHL SUB DUP2 GT ISZERO PUSH2 0x3604 JUMPI PUSH0 DUP1 REVERT JUMPDEST PUSH2 0x3610 DUP8 DUP3 DUP6 ADD PUSH2 0x34CE JUMP JUMPDEST PUSH1 0x60 DUP4 ADD MSTORE POP SWAP3 POP PUSH2 0x3626 SWAP1 POP PUSH1 0x20 DUP5 ADD PUSH2 0x3520 JUMP JUMPDEST SWAP1 POP SWAP3 POP SWAP3 SWAP1 POP JUMP JUMPDEST PUSH0 DUP1 PUSH1 0x40 DUP4 DUP6 SUB SLT ISZERO PUSH2 0x3640 JUMPI PUSH0 DUP1 REVERT JUMPDEST DUP3 CALLDATALOAD PUSH1 0x1 PUSH1 0x1 PUSH1 0x40 SHL SUB DUP2 GT ISZERO PUSH2 0x3655 JUMPI PUSH0 DUP1 REVERT JUMPDEST DUP4 ADD PUSH1 0x60 DUP2 DUP7 SUB SLT ISZERO PUSH2 0x3666 JUMPI PUSH0 DUP1 REVERT JUMPDEST PUSH2 0x366E PUSH2 0x3456 JUMP JUMPDEST DUP2 CALLDATALOAD PUSH1 0x1 PUSH1 0x1 PUSH1 0x40 SHL SUB DUP2 GT ISZERO PUSH2 0x3683 JUMPI PUSH0 DUP1 REVERT JUMPDEST PUSH2 0x368F DUP8 DUP3 DUP6 ADD PUSH2 0x34CE JUMP JUMPDEST DUP3 MSTORE POP PUSH1 0x20 DUP3 ADD CALLDATALOAD PUSH1 0x1 PUSH1 0x1 PUSH1 0x40 SHL SUB DUP2 GT ISZERO PUSH2 0x36AA JUMPI PUSH0 DUP1 REVERT JUMPDEST PUSH2 0x36B6 DUP8 DUP3 DUP6 ADD PUSH2 0x34CE JUMP JUMPDEST PUSH1 0x20 DUP4 ADD MSTORE POP PUSH1 0x40 DUP3 ADD CALLDATALOAD PUSH1 0x1 PUSH1 0x1 PUSH1 0x40 SHL SUB DUP2 GT ISZERO PUSH2 0x36D4 JUMPI PUSH0 DUP1 REVERT JUMPDEST PUSH2 0x36E0 DUP8 DUP3 DUP6 ADD PUSH2 0x34CE JUMP JUMPDEST PUSH1 0x40 DUP4 ADD MSTORE POP SWAP3 POP PUSH2 0x3626 SWAP1 POP PUSH1 0x20 DUP5 ADD PUSH2 0x3520 JUMP JUMPDEST PUSH0 PUSH1 0x20 DUP3 DUP5 SUB SLT ISZERO PUSH2 0x3706 JUMPI PUSH0 DUP1 REVERT JUMPDEST POP CALLDATALOAD SWAP2 SWAP1 POP JUMP JUMPDEST PUSH0 DUP2 MLOAD DUP1 DUP5 MSTORE DUP1 PUSH1 0x20 DUP5 ADD PUSH1 0x20 DUP7 ADD MCOPY PUSH0 PUSH1 0x20 DUP3 DUP7 ADD ADD MSTORE PUSH1 0x20 PUSH1 0x1F NOT PUSH1 0x1F DUP4 ADD AND DUP6 ADD ADD SWAP2 POP POP SWAP3 SWAP2 POP POP JUMP JUMPDEST PUSH4 0x4E487B71 PUSH1 0xE0 SHL PUSH0 MSTORE PUSH1 0x21 PUSH1 0x4 MSTORE PUSH1 0x24 PUSH0 REVERT JUMPDEST PUSH1 0x2 DUP2 LT PUSH2 0x375F JUMPI PUSH2 0x375F PUSH2 0x373B JUMP JUMPDEST POP JUMP JUMPDEST PUSH1 0xC0 DUP2 MSTORE PUSH0 PUSH2 0x3774 PUSH1 0xC0 DUP4 ADD DUP10 PUSH2 0x370D JUMP JUMPDEST DUP3 DUP2 SUB PUSH1 0x20 DUP5 ADD MSTORE PUSH2 0x3786 DUP2 DUP10 PUSH2 0x370D JUMP JUMPDEST SWAP1 POP DUP3 DUP2 SUB PUSH1 0x40 DUP5 ADD MSTORE PUSH2 0x379A DUP2 DUP9 PUSH2 0x370D JUMP JUMPDEST SWAP1 POP DUP3 DUP2 SUB PUSH1 0x60 DUP5 ADD MSTORE PUSH2 0x37AE DUP2 DUP8 PUSH2 0x370D JUMP JUMPDEST SWAP2 POP POP PUSH1 0xFF DUP5 AND PUSH1 0x80 DUP4 ADD MSTORE PUSH2 0x37C3 DUP4 PUSH2 0x374F JUMP JUMPDEST DUP3 PUSH1 0xA0 DUP4 ADD MSTORE SWAP8 SWAP7 POP POP POP POP POP POP POP JUMP JUMPDEST PUSH0 PUSH1 0x20 DUP3 DUP5 SUB SLT ISZERO PUSH2 0x37E4 JUMPI PUSH0 DUP1 REVERT JUMPDEST DUP2 CALLDATALOAD PUSH1 0x1 PUSH1 0x1 PUSH1 0x40 SHL SUB DUP2 GT ISZERO PUSH2 0x37F9 JUMPI PUSH0 DUP1 REVERT JUMPDEST PUSH2 0x3805 DUP5 DUP3 DUP6 ADD PUSH2 0x34CE JUMP JUMPDEST SWAP5 SWAP4 POP POP POP POP JUMP JUMPDEST PUSH0 DUP2 MLOAD PUSH1 0x60 DUP5 MSTORE PUSH2 0x3821 PUSH1 0x60 DUP6 ADD DUP3 PUSH2 0x370D JUMP JUMPDEST SWAP1 POP PUSH1 0x1 DUP1 PUSH1 0xA0 SHL SUB PUSH1 0x20 DUP5 ADD MLOAD AND PUSH1 0x20 DUP6 ADD MSTORE PUSH1 0x40 DUP4 ADD MLOAD DUP5 DUP3 SUB PUSH1 0x40 DUP7 ADD MSTORE PUSH2 0x384C DUP3 DUP3 PUSH2 0x370D JUMP JUMPDEST SWAP6 SWAP5 POP POP POP POP POP JUMP JUMPDEST PUSH0 DUP2 MLOAD PUSH2 0x3861 DUP2 PUSH2 0x374F JUMP JUMPDEST DUP1 DUP5 MSTORE POP PUSH1 0x20 DUP3 ADD MLOAD PUSH1 0x20 DUP5 ADD MSTORE PUSH1 0x40 DUP3 ADD MLOAD PUSH1 0x40 DUP5 ADD MSTORE PUSH1 0x60 DUP3 ADD MLOAD PUSH1 0xA0 PUSH1 0x60 DUP6 ADD MSTORE PUSH2 0x3892 PUSH1 0xA0 DUP6 ADD DUP3 PUSH2 0x380D JUMP JUMPDEST SWAP1 POP PUSH1 0x80 DUP4 ADD MLOAD DUP5 DUP3 SUB PUSH1 0x80 DUP7 ADD MSTORE PUSH2 0x384C DUP3 DUP3 PUSH2 0x380D JUMP JUMPDEST PUSH1 0x9 DUP2 LT PUSH2 0x38BB JUMPI PUSH2 0x38BB PUSH2 0x373B JUMP JUMPDEST SWAP1 MSTORE JUMP JUMPDEST PUSH1 0x80 DUP2 MSTORE PUSH0 PUSH2 0x38D1 PUSH1 0x80 DUP4 ADD DUP8 PUSH2 0x370D JUMP JUMPDEST DUP3 DUP2 SUB PUSH1 0x20 DUP5 ADD MSTORE PUSH2 0x38E3 DUP2 DUP8 PUSH2 0x370D JUMP JUMPDEST SWAP1 POP DUP3 DUP2 SUB PUSH1 0x40 DUP5 ADD MSTORE PUSH2 0x38F7 DUP2 DUP7 PUSH2 0x3855 JUMP JUMPDEST SWAP2 POP POP PUSH2 0x384C PUSH1 0x60 DUP4 ADD DUP5 PUSH2 0x38AB JUMP JUMPDEST PUSH1 0x20 DUP2 MSTORE PUSH0 DUP3 MLOAD PUSH1 0x80 PUSH1 0x20 DUP5 ADD MSTORE PUSH2 0x3922 PUSH1 0xA0 DUP5 ADD DUP3 PUSH2 0x370D JUMP JUMPDEST SWAP1 POP PUSH1 0x20 DUP5 ADD MLOAD PUSH1 0x1F NOT DUP5 DUP4 SUB ADD PUSH1 0x40 DUP6 ADD MSTORE PUSH2 0x393F DUP3 DUP3 PUSH2 0x370D JUMP JUMPDEST SWAP2 POP POP PUSH1 0x40 DUP5 ADD MLOAD PUSH1 0x1F NOT DUP5 DUP4 SUB ADD PUSH1 0x60 DUP6 ADD MSTORE PUSH2 0x395D DUP3 DUP3 PUSH2 0x3855 JUMP JUMPDEST SWAP2 POP POP PUSH1 0x60 DUP5 ADD MLOAD PUSH2 0x3972 PUSH1 0x80 DUP6 ADD DUP3 PUSH2 0x38AB JUMP JUMPDEST POP SWAP4 SWAP3 POP POP POP JUMP JUMPDEST PUSH1 0x20 DUP2 MSTORE PUSH0 DUP3 MLOAD PUSH1 0x80 PUSH1 0x20 DUP5 ADD MSTORE PUSH2 0x3995 PUSH1 0xA0 DUP5 ADD DUP3 PUSH2 0x370D JUMP JUMPDEST SWAP1 POP PUSH1 0x20 DUP5 ADD MLOAD PUSH1 0x1F NOT DUP5 DUP4 SUB ADD PUSH1 0x40 DUP6 ADD MSTORE PUSH2 0x39B2 DUP3 DUP3 PUSH2 0x370D JUMP JUMPDEST SWAP2 POP POP PUSH1 0x40 DUP5 ADD MLOAD PUSH1 0x1F NOT DUP5 DUP4 SUB ADD PUSH1 0x60 DUP6 ADD MSTORE PUSH2 0x39D0 DUP3 DUP3 PUSH2 0x3855 JUMP JUMPDEST SWAP2 POP POP PUSH1 0x60 DUP5 ADD MLOAD PUSH2 0x39E1 DUP2 PUSH2 0x374F JUMP JUMPDEST PUSH1 0x80 SWAP4 SWAP1 SWAP4 ADD SWAP3 SWAP1 SWAP3 MSTORE POP SWAP2 SWAP1 POP JUMP JUMPDEST PUSH1 0x80 DUP2 MSTORE PUSH0 PUSH2 0x3A03 PUSH1 0x80 DUP4 ADD DUP8 PUSH2 0x370D JUMP JUMPDEST DUP3 DUP2 SUB PUSH1 0x20 DUP5 ADD MSTORE PUSH2 0x3A15 DUP2 DUP8 PUSH2 0x370D JUMP JUMPDEST SWAP1 POP DUP3 DUP2 SUB PUSH1 0x40 DUP5 ADD MSTORE PUSH2 0x3A29 DUP2 DUP7 PUSH2 0x3855 JUMP JUMPDEST SWAP2 POP POP PUSH2 0x3A35 DUP4 PUSH2 0x374F JUMP JUMPDEST DUP3 PUSH1 0x60 DUP4 ADD MSTORE SWAP6 SWAP5 POP POP POP POP POP JUMP JUMPDEST PUSH0 DUP1 PUSH1 0x40 DUP4 DUP6 SUB SLT ISZERO PUSH2 0x3A55 JUMPI PUSH0 DUP1 REVERT JUMPDEST DUP3 CALLDATALOAD PUSH1 0x1 PUSH1 0x1 PUSH1 0x40 SHL SUB DUP2 GT ISZERO PUSH2 0x3A6A JUMPI PUSH0 DUP1 REVERT JUMPDEST PUSH2 0x3A76 DUP6 DUP3 DUP7 ADD PUSH2 0x34CE JUMP JUMPDEST SWAP6 PUSH1 0x20 SWAP5 SWAP1 SWAP5 ADD CALLDATALOAD SWAP5 POP POP POP POP JUMP JUMPDEST PUSH0 PUSH1 0x20 DUP3 ADD PUSH1 0x20 DUP4 MSTORE DUP1 DUP5 MLOAD DUP1 DUP4 MSTORE PUSH1 0x40 DUP6 ADD SWAP2 POP PUSH1 0x40 DUP2 PUSH1 0x5 SHL DUP7 ADD ADD SWAP3 POP PUSH1 0x20 DUP7 ADD PUSH0 JUMPDEST DUP3 DUP2 LT ISZERO PUSH2 0x3B58 JUMPI PUSH1 0x3F NOT DUP8 DUP7 SUB ADD DUP5 MSTORE DUP2 MLOAD DUP1 MLOAD PUSH1 0xC0 DUP8 MSTORE PUSH2 0x3AD1 PUSH1 0xC0 DUP9 ADD DUP3 PUSH2 0x370D JUMP JUMPDEST SWAP1 POP PUSH1 0x20 DUP3 ADD MLOAD DUP8 DUP3 SUB PUSH1 0x20 DUP10 ADD MSTORE PUSH2 0x3AEA DUP3 DUP3 PUSH2 0x370D JUMP JUMPDEST SWAP2 POP POP PUSH1 0x40 DUP3 ADD MLOAD DUP8 DUP3 SUB PUSH1 0x40 DUP10 ADD MSTORE PUSH2 0x3B04 DUP3 DUP3 PUSH2 0x370D JUMP JUMPDEST SWAP2 POP POP PUSH1 0x60 DUP3 ADD MLOAD DUP8 DUP3 SUB PUSH1 0x60 DUP10 ADD MSTORE PUSH2 0x3B1E DUP3 DUP3 PUSH2 0x370D JUMP JUMPDEST SWAP2 POP POP PUSH1 0xFF PUSH1 0x80 DUP4 ADD MLOAD AND PUSH1 0x80 DUP9 ADD MSTORE PUSH1 0xA0 DUP3 ADD MLOAD SWAP2 POP PUSH2 0x3B3E DUP3 PUSH2 0x374F JUMP JUMPDEST PUSH1 0xA0 SWAP7 SWAP1 SWAP7 ADD MSTORE PUSH1 0x20 SWAP4 DUP5 ADD SWAP4 SWAP2 SWAP1 SWAP2 ADD SWAP1 PUSH1 0x1 ADD PUSH2 0x3AAB JUMP JUMPDEST POP SWAP3 SWAP7 SWAP6 POP POP POP POP POP POP JUMP JUMPDEST PUSH1 0x1 PUSH1 0x1 PUSH1 0xA0 SHL SUB DUP2 AND DUP2 EQ PUSH2 0x375F JUMPI PUSH0 DUP1 REVERT JUMPDEST PUSH0 DUP1 PUSH0 DUP1 PUSH1 0x80 DUP6 DUP8 SUB SLT ISZERO PUSH2 0x3B8B JUMPI PUSH0 DUP1 REVERT JUMPDEST DUP5 CALLDATALOAD PUSH1 0x1 PUSH1 0x1 PUSH1 0x40 SHL SUB DUP2 GT ISZERO PUSH2 0x3BA0 JUMPI PUSH0 DUP1 REVERT JUMPDEST PUSH2 0x3BAC DUP8 DUP3 DUP9 ADD PUSH2 0x34CE JUMP JUMPDEST SWAP5 POP POP PUSH1 0x20 DUP6 ADD CALLDATALOAD PUSH1 0x1 PUSH1 0x1 PUSH1 0x40 SHL SUB DUP2 GT ISZERO PUSH2 0x3BC7 JUMPI PUSH0 DUP1 REVERT JUMPDEST PUSH2 0x3BD3 DUP8 DUP3 DUP9 ADD PUSH2 0x34CE JUMP JUMPDEST SWAP4 POP POP PUSH1 0x40 DUP6 ADD CALLDATALOAD PUSH2 0x3BE4 DUP2 PUSH2 0x3B64 JUMP JUMPDEST SWAP2 POP PUSH2 0x3BF2 PUSH1 0x60 DUP7 ADD PUSH2 0x3520 JUMP JUMPDEST SWAP1 POP SWAP3 SWAP6 SWAP2 SWAP5 POP SWAP3 POP JUMP JUMPDEST PUSH1 0x20 DUP1 DUP3 MSTORE DUP3 MLOAD DUP3 DUP3 ADD DUP2 SWAP1 MSTORE PUSH0 SWAP2 DUP5 ADD SWAP1 PUSH1 0x40 DUP5 ADD SWAP1 DUP4 JUMPDEST DUP2 DUP2 LT ISZERO PUSH2 0x3C37 JUMPI DUP4 MLOAD PUSH1 0xFF AND DUP4 MSTORE PUSH1 0x20 SWAP4 DUP5 ADD SWAP4 SWAP1 SWAP3 ADD SWAP2 PUSH1 0x1 ADD PUSH2 0x3C16 JUMP JUMPDEST POP SWAP1 SWAP6 SWAP5 POP POP POP POP POP JUMP JUMPDEST PUSH0 PUSH1 0x20 DUP3 DUP5 SUB SLT ISZERO PUSH2 0x3C52 JUMPI PUSH0 DUP1 REVERT JUMPDEST DUP2 CALLDATALOAD PUSH2 0x317A DUP2 PUSH2 0x3B64 JUMP JUMPDEST PUSH1 0x1 PUSH1 0x1 PUSH1 0xA0 SHL SUB DUP6 AND DUP2 MSTORE PUSH1 0x80 PUSH1 0x20 DUP3 ADD DUP2 SWAP1 MSTORE PUSH0 SWAP1 PUSH2 0x3C80 SWAP1 DUP4 ADD DUP7 PUSH2 0x370D JUMP JUMPDEST DUP3 DUP2 SUB PUSH1 0x40 DUP5 ADD MSTORE PUSH2 0x3C92 DUP2 DUP7 PUSH2 0x370D JUMP JUMPDEST SWAP2 POP POP PUSH1 0xFF DUP4 AND PUSH1 0x60 DUP4 ADD MSTORE SWAP6 SWAP5 POP POP POP POP POP JUMP JUMPDEST PUSH0 DUP3 MLOAD DUP1 PUSH1 0x20 DUP6 ADD DUP5 MCOPY PUSH0 SWAP3 ADD SWAP2 DUP3 MSTORE POP SWAP2 SWAP1 POP JUMP JUMPDEST PUSH1 0x1 DUP2 DUP2 SHR SWAP1 DUP3 AND DUP1 PUSH2 0x3CD1 JUMPI PUSH1 0x7F DUP3 AND SWAP2 POP JUMPDEST PUSH1 0x20 DUP3 LT DUP2 SUB PUSH2 0x3CEF JUMPI PUSH4 0x4E487B71 PUSH1 0xE0 SHL PUSH0 MSTORE PUSH1 0x22 PUSH1 0x4 MSTORE PUSH1 0x24 PUSH0 REVERT JUMPDEST POP SWAP2 SWAP1 POP JUMP JUMPDEST PUSH1 0x1F DUP3 GT ISZERO PUSH2 0x3D3C JUMPI DUP1 PUSH0 MSTORE PUSH1 0x20 PUSH0 KECCAK256 PUSH1 0x1F DUP5 ADD PUSH1 0x5 SHR DUP2 ADD PUSH1 0x20 DUP6 LT ISZERO PUSH2 0x3D1A JUMPI POP DUP1 JUMPDEST PUSH1 0x1F DUP5 ADD PUSH1 0x5 SHR DUP3 ADD SWAP2 POP JUMPDEST DUP2 DUP2 LT ISZERO PUSH2 0x3D39 JUMPI PUSH0 DUP2 SSTORE PUSH1 0x1 ADD PUSH2 0x3D26 JUMP JUMPDEST POP POP JUMPDEST POP POP POP JUMP JUMPDEST DUP2 MLOAD PUSH1 0x1 PUSH1 0x1 PUSH1 0x40 SHL SUB DUP2 GT ISZERO PUSH2 0x3D5A JUMPI PUSH2 0x3D5A PUSH2 0x341A JUMP JUMPDEST PUSH2 0x3D6E DUP2 PUSH2 0x3D68 DUP5 SLOAD PUSH2 0x3CBD JUMP JUMPDEST DUP5 PUSH2 0x3CF5 JUMP JUMPDEST PUSH1 0x20 PUSH1 0x1F DUP3 GT PUSH1 0x1 DUP2 EQ PUSH2 0x3DA0 JUMPI PUSH0 DUP4 ISZERO PUSH2 0x3D89 JUMPI POP DUP5 DUP3 ADD MLOAD JUMPDEST PUSH0 NOT PUSH1 0x3 DUP6 SWAP1 SHL SHR NOT AND PUSH1 0x1 DUP5 SWAP1 SHL OR DUP5 SSTORE PUSH2 0x3D39 JUMP JUMPDEST PUSH0 DUP5 DUP2 MSTORE PUSH1 0x20 DUP2 KECCAK256 PUSH1 0x1F NOT DUP6 AND SWAP2 JUMPDEST DUP3 DUP2 LT ISZERO PUSH2 0x3DCF JUMPI DUP8 DUP6 ADD MLOAD DUP3 SSTORE PUSH1 0x20 SWAP5 DUP6 ADD SWAP5 PUSH1 0x1 SWAP1 SWAP3 ADD SWAP2 ADD PUSH2 0x3DAF JUMP JUMPDEST POP DUP5 DUP3 LT ISZERO PUSH2 0x3DEC JUMPI DUP7 DUP5 ADD MLOAD PUSH0 NOT PUSH1 0x3 DUP8 SWAP1 SHL PUSH1 0xF8 AND SHR NOT AND DUP2 SSTORE JUMPDEST POP POP POP POP PUSH1 0x1 SWAP1 DUP2 SHL ADD SWAP1 SSTORE POP JUMP JUMPDEST PUSH4 0x4E487B71 PUSH1 0xE0 SHL PUSH0 MSTORE PUSH1 0x32 PUSH1 0x4 MSTORE PUSH1 0x24 PUSH0 REVERT JUMPDEST PUSH0 DUP1 DUP4 SLOAD PUSH2 0x3E1C DUP2 PUSH2 0x3CBD JUMP JUMPDEST PUSH1 0x1 DUP3 AND DUP1 ISZERO PUSH2 0x3E33 JUMPI PUSH1 0x1 DUP2 EQ PUSH2 0x3E48 JUMPI PUSH2 0x3E75 JUMP JUMPDEST PUSH1 0xFF NOT DUP4 AND DUP7 MSTORE DUP2 ISZERO ISZERO DUP3 MUL DUP7 ADD SWAP4 POP PUSH2 0x3E75 JUMP JUMPDEST DUP7 PUSH0 MSTORE PUSH1 0x20 PUSH0 KECCAK256 PUSH0 JUMPDEST DUP4 DUP2 LT ISZERO PUSH2 0x3E6D JUMPI DUP2 SLOAD DUP9 DUP3 ADD MSTORE PUSH1 0x1 SWAP1 SWAP2 ADD SWAP1 PUSH1 0x20 ADD PUSH2 0x3E51 JUMP JUMPDEST POP POP DUP2 DUP7 ADD SWAP4 POP JUMPDEST POP SWAP2 SWAP6 SWAP5 POP POP POP POP POP JUMP JUMPDEST PUSH1 0xA0 DUP2 MSTORE PUSH0 PUSH2 0x3E92 PUSH1 0xA0 DUP4 ADD DUP9 PUSH2 0x370D JUMP JUMPDEST PUSH1 0x1 PUSH1 0x1 PUSH1 0xA0 SHL SUB DUP8 AND PUSH1 0x20 DUP5 ADD MSTORE PUSH2 0x3EAE PUSH1 0x40 DUP5 ADD DUP8 PUSH2 0x38AB JUMP JUMPDEST DUP3 DUP2 SUB PUSH1 0x60 DUP5 ADD MSTORE PUSH2 0x3EC0 DUP2 DUP7 PUSH2 0x370D JUMP JUMPDEST SWAP2 POP POP DUP3 PUSH1 0x80 DUP4 ADD MSTORE SWAP7 SWAP6 POP POP POP POP POP POP JUMP JUMPDEST PUSH1 0x4 DUP2 LT PUSH2 0x38BB JUMPI PUSH2 0x38BB PUSH2 0x373B JUMP JUMPDEST PUSH1 0x1 PUSH1 0x1 PUSH1 0xA0 SHL SUB DUP4 AND DUP2 MSTORE PUSH1 0x40 DUP2 ADD PUSH2 0x317A PUSH1 0x20 DUP4 ADD DUP5 PUSH2 0x3ED3 JUMP JUMPDEST PUSH0 PUSH1 0x20 DUP3 DUP5 SUB SLT ISZERO PUSH2 0x3F10 JUMPI PUSH0 DUP1 REVERT JUMPDEST DUP2 MLOAD DUP1 ISZERO ISZERO DUP2 EQ PUSH2 0x317A JUMPI PUSH0 DUP1 REVERT JUMPDEST PUSH1 0x80 DUP2 MSTORE PUSH0 PUSH2 0x3F31 PUSH1 0x80 DUP4 ADD DUP8 PUSH2 0x370D JUMP JUMPDEST PUSH1 0x1 PUSH1 0x1 PUSH1 0xA0 SHL SUB DUP7 AND PUSH1 0x20 DUP5 ADD MSTORE SWAP1 POP PUSH2 0x3A35 PUSH1 0x40 DUP4 ADD DUP6 PUSH2 0x38AB JUMP JUMPDEST PUSH1 0x80 DUP2 MSTORE PUSH0 PUSH2 0x3F61 PUSH1 0x80 DUP4 ADD DUP8 PUSH2 0x370D JUMP JUMPDEST PUSH1 0x1 PUSH1 0x1 PUSH1 0xA0 SHL SUB DUP7 AND PUSH1 0x20 DUP5 ADD MSTORE SWAP1 POP PUSH2 0x3F7B DUP5 PUSH2 0x374F JUMP JUMPDEST PUSH1 0x40 DUP3 ADD SWAP4 SWAP1 SWAP4 MSTORE PUSH1 0x60 ADD MSTORE SWAP3 SWAP2 POP POP JUMP JUMPDEST PUSH1 0xA0 DUP2 MSTORE PUSH0 PUSH2 0x3F9F PUSH1 0xA0 DUP4 ADD DUP9 PUSH2 0x370D JUMP JUMPDEST PUSH1 0x1 PUSH1 0x1 PUSH1 0xA0 SHL SUB DUP8 AND PUSH1 0x20 DUP5 ADD MSTORE PUSH2 0x3FB7 DUP7 PUSH2 0x374F JUMP JUMPDEST DUP6 PUSH1 0x40 DUP5 ADD MSTORE DUP3 DUP2 SUB PUSH1 0x60 DUP5 ADD MSTORE PUSH2 0x3EC0 DUP2 DUP7 PUSH2 0x370D JUMP JUMPDEST PUSH0 PUSH1 0xFF DUP3 AND PUSH1 0xFF DUP2 SUB PUSH2 0x3FF0 JUMPI PUSH4 0x4E487B71 PUSH1 0xE0 SHL PUSH0 MSTORE PUSH1 0x11 PUSH1 0x4 MSTORE PUSH1 0x24 PUSH0 REVERT JUMPDEST PUSH1 0x1 ADD SWAP3 SWAP2 POP POP JUMP JUMPDEST PUSH1 0x80 DUP2 MSTORE PUSH0 PUSH2 0x400B PUSH1 0x80 DUP4 ADD DUP8 PUSH2 0x370D JUMP JUMPDEST DUP3 DUP2 SUB PUSH1 0x20 DUP5 ADD MSTORE PUSH2 0x401D DUP2 DUP8 PUSH2 0x370D JUMP JUMPDEST PUSH1 0x1 PUSH1 0x1 PUSH1 0xA0 SHL SUB DUP7 AND PUSH1 0x40 DUP6 ADD MSTORE SWAP2 POP PUSH2 0x384C SWAP1 POP PUSH1 0x60 DUP4 ADD DUP5 PUSH2 0x3ED3 JUMP JUMPDEST PUSH0 DUP3 PUSH1 0x1F DUP4 ADD SLT PUSH2 0x404C JUMPI PUSH0 DUP1 REVERT JUMPDEST DUP2 MLOAD PUSH2 0x405A PUSH2 0x34EB DUP3 PUSH2 0x34A8 JUMP JUMPDEST DUP2 DUP2 MSTORE DUP5 PUSH1 0x20 DUP4 DUP7 ADD ADD GT ISZERO PUSH2 0x406E JUMPI PUSH0 DUP1 REVERT JUMPDEST DUP2 PUSH1 0x20 DUP6 ADD PUSH1 0x20 DUP4 ADD MCOPY PUSH0 SWAP2 DUP2 ADD PUSH1 0x20 ADD SWAP2 SWAP1 SWAP2 MSTORE SWAP4 SWAP3 POP POP POP JUMP JUMPDEST PUSH0 DUP1 PUSH0 DUP1 PUSH1 0x80 DUP6 DUP8 SUB SLT ISZERO PUSH2 0x409D JUMPI PUSH0 DUP1 REVERT JUMPDEST DUP5 MLOAD PUSH1 0x1 PUSH1 0x1 PUSH1 0x40 SHL SUB DUP2 GT ISZERO PUSH2 0x40B2 JUMPI PUSH0 DUP1 REVERT JUMPDEST PUSH2 0x40BE DUP8 DUP3 DUP9 ADD PUSH2 0x403D JUMP JUMPDEST SWAP5 POP POP PUSH1 0x20 DUP6 ADD MLOAD PUSH1 0x1 PUSH1 0x1 PUSH1 0x40 SHL SUB DUP2 GT ISZERO PUSH2 0x40D9 JUMPI PUSH0 DUP1 REVERT JUMPDEST PUSH2 0x40E5 DUP8 DUP3 DUP9 ADD PUSH2 0x403D JUMP JUMPDEST SWAP4 POP POP PUSH1 0x40 DUP6 ADD MLOAD PUSH2 0x40F6 DUP2 PUSH2 0x3B64 JUMP JUMPDEST PUSH1 0x60 DUP7 ADD MLOAD SWAP1 SWAP3 POP PUSH1 0x4 DUP2 LT PUSH2 0x410A JUMPI PUSH0 DUP1 REVERT JUMPDEST SWAP4 SWAP7 SWAP3 SWAP6 POP SWAP1 SWAP4 POP POP JUMP INVALID LOG2 PUSH5 0x6970667358 0x22 SLT KECCAK256 0x4C 0x2E SWAP3 PUSH30 0xDB66076C5D83CF3FC7543119E98644347ED095786E9355B068E475B96473 PUSH16 0x6C634300081A00330000000000000000 "
		},
		"gasEstimates": {
			"creation": {
				"codeDepositCost": "3343000",
				"executionCost": "infinite",
				"totalCost": "infinite"
			},
			"external": {
				"allCertificateData(uint256)": "infinite",
				"approveCdob((string,string,string,string),uint8)": "infinite",
				"approveCpotb((string,string,string,string),uint8)": "infinite",
				"approvedTipePermohonan(string)": "infinite",
				"approvedTipePermohonanByFactory(string,uint256)": "infinite",
				"cdobDataById(string)": "infinite",
				"cpotbDataById(string)": "infinite",
				"detailCdob(string)": "infinite",
				"detailCpotb(string)": "infinite",
				"getListAllCdob()": "infinite",
				"getListAllCertificateByInstance(string)": "infinite",
				"getListAllCpotb()": "infinite",
				"getUserData(address)": "infinite",
				"registerUser(string,string,address,uint8)": "infinite",
				"requestCdob((string,string,string),uint8)": "infinite",
				"requestCpotb((string,string,string),uint8)": "infinite"
			},
			"internal": {
				"countCertificateByInstance(string memory)": "infinite",
				"countCertificateByType(string memory)": "infinite",
				"createCertificateDetails(struct MainSupplyChain.st_userCertificate memory,struct MainSupplyChain.st_userCertificate memory)": "infinite",
				"createCertificateList(string memory,string memory,string memory,uint8,string memory,enum EnumsLibrary.StatusCertificate)": "infinite",
				"createUserCertificate(string memory,address,string memory)": "infinite"
			}
		},
		"methodIdentifiers": {
			"allCertificateData(uint256)": "4c3ba6fd",
			"approveCdob((string,string,string,string),uint8)": "950d4d74",
			"approveCpotb((string,string,string,string),uint8)": "2592e511",
			"approvedTipePermohonan(string)": "e49d0327",
			"approvedTipePermohonanByFactory(string,uint256)": "7ee90ded",
			"cdobDataById(string)": "72c17cb9",
			"cpotbDataById(string)": "6aa81299",
			"detailCdob(string)": "711255af",
			"detailCpotb(string)": "6f8e6197",
			"getListAllCdob()": "cec1fc1e",
			"getListAllCertificateByInstance(string)": "a814a60f",
			"getListAllCpotb()": "ec176587",
			"getUserData(address)": "e54a29bb",
			"registerUser(string,string,address,uint8)": "d1233672",
			"requestCdob((string,string,string),uint8)": "6d2a362f",
			"requestCpotb((string,string,string),uint8)": "387bb30e"
		}
	},
	"abi": [
		{
			"inputs": [
				{
					"internalType": "address",
					"name": "_roleManagerAddr",
					"type": "address"
				}
			],
			"stateMutability": "nonpayable",
			"type": "constructor"
		},
		{
			"anonymous": false,
			"inputs": [
				{
					"indexed": false,
					"internalType": "address",
					"name": "userAddr",
					"type": "address"
				},
				{
					"indexed": false,
					"internalType": "string",
					"name": "name",
					"type": "string"
				},
				{
					"indexed": false,
					"internalType": "string",
					"name": "instanceName",
					"type": "string"
				},
				{
					"indexed": false,
					"internalType": "uint8",
					"name": "role",
					"type": "uint8"
				}
			],
			"name": "evt_UserRegistered",
			"type": "event"
		},
		{
			"anonymous": false,
			"inputs": [
				{
					"indexed": false,
					"internalType": "string",
					"name": "bpomInstance",
					"type": "string"
				},
				{
					"indexed": false,
					"internalType": "address",
					"name": "bpomAddr",
					"type": "address"
				},
				{
					"indexed": false,
					"internalType": "enum EnumsLibrary.TipePermohonanCdob",
					"name": "",
					"type": "uint8"
				},
				{
					"indexed": false,
					"internalType": "string",
					"name": "cdobNumber",
					"type": "string"
				},
				{
					"indexed": false,
					"internalType": "uint256",
					"name": "timestampApproved",
					"type": "uint256"
				}
			],
			"name": "evt_cdobApproved",
			"type": "event"
		},
		{
			"anonymous": false,
			"inputs": [
				{
					"indexed": false,
					"internalType": "string",
					"name": "pbfInstance",
					"type": "string"
				},
				{
					"indexed": false,
					"internalType": "address",
					"name": "pbfAddr",
					"type": "address"
				},
				{
					"indexed": false,
					"internalType": "enum EnumsLibrary.TipePermohonanCdob",
					"name": "tipePermohonan",
					"type": "uint8"
				},
				{
					"indexed": false,
					"internalType": "uint256",
					"name": "timestampRequest",
					"type": "uint256"
				}
			],
			"name": "evt_cdobRequested",
			"type": "event"
		},
		{
			"anonymous": false,
			"inputs": [
				{
					"indexed": false,
					"internalType": "string",
					"name": "bpomInstance",
					"type": "string"
				},
				{
					"indexed": false,
					"internalType": "address",
					"name": "bpomAddr",
					"type": "address"
				},
				{
					"indexed": false,
					"internalType": "enum EnumsLibrary.TipePermohonanCpotb",
					"name": "",
					"type": "uint8"
				},
				{
					"indexed": false,
					"internalType": "string",
					"name": "cpotbId",
					"type": "string"
				},
				{
					"indexed": false,
					"internalType": "uint256",
					"name": "timestampApproved",
					"type": "uint256"
				}
			],
			"name": "evt_cpotbApproved",
			"type": "event"
		},
		{
			"anonymous": false,
			"inputs": [
				{
					"indexed": false,
					"internalType": "string",
					"name": "factoryInstance",
					"type": "string"
				},
				{
					"indexed": false,
					"internalType": "address",
					"name": "factoryAddr",
					"type": "address"
				},
				{
					"indexed": false,
					"internalType": "enum EnumsLibrary.TipePermohonanCpotb",
					"name": "",
					"type": "uint8"
				},
				{
					"indexed": false,
					"internalType": "uint256",
					"name": "timestampRequest",
					"type": "uint256"
				}
			],
			"name": "evt_cpotbRequested",
			"type": "event"
		},
		{
			"inputs": [
				{
					"internalType": "uint256",
					"name": "",
					"type": "uint256"
				}
			],
			"name": "allCertificateData",
			"outputs": [
				{
					"internalType": "string",
					"name": "certId",
					"type": "string"
				},
				{
					"internalType": "string",
					"name": "certNumber",
					"type": "string"
				},
				{
					"internalType": "string",
					"name": "instanceName",
					"type": "string"
				},
				{
					"internalType": "string",
					"name": "certificateType",
					"type": "string"
				},
				{
					"internalType": "uint8",
					"name": "tipePermohonan",
					"type": "uint8"
				},
				{
					"internalType": "enum EnumsLibrary.StatusCertificate",
					"name": "status",
					"type": "uint8"
				}
			],
			"stateMutability": "view",
			"type": "function"
		},
		{
			"inputs": [
				{
					"components": [
						{
							"internalType": "string",
							"name": "certNumber",
							"type": "string"
						},
						{
							"internalType": "string",
							"name": "certId",
							"type": "string"
						},
						{
							"internalType": "string",
							"name": "bpomName",
							"type": "string"
						},
						{
							"internalType": "string",
							"name": "bpomInstance",
							"type": "string"
						}
					],
					"internalType": "struct MainSupplyChain.st_certificateApproval",
					"name": "approvalData",
					"type": "tuple"
				},
				{
					"internalType": "uint8",
					"name": "_tipePermohonanCdob",
					"type": "uint8"
				}
			],
			"name": "approveCdob",
			"outputs": [],
			"stateMutability": "nonpayable",
			"type": "function"
		},
		{
			"inputs": [
				{
					"components": [
						{
							"internalType": "string",
							"name": "certNumber",
							"type": "string"
						},
						{
							"internalType": "string",
							"name": "certId",
							"type": "string"
						},
						{
							"internalType": "string",
							"name": "bpomName",
							"type": "string"
						},
						{
							"internalType": "string",
							"name": "bpomInstance",
							"type": "string"
						}
					],
					"internalType": "struct MainSupplyChain.st_certificateApproval",
					"name": "approvalData",
					"type": "tuple"
				},
				{
					"internalType": "uint8",
					"name": "_tipePermohonanCpotb",
					"type": "uint8"
				}
			],
			"name": "approveCpotb",
			"outputs": [],
			"stateMutability": "nonpayable",
			"type": "function"
		},
		{
			"inputs": [
				{
					"internalType": "string",
					"name": "_factoryName",
					"type": "string"
				}
			],
			"name": "approvedTipePermohonan",
			"outputs": [
				{
					"internalType": "uint8[]",
					"name": "",
					"type": "uint8[]"
				}
			],
			"stateMutability": "view",
			"type": "function"
		},
		{
			"inputs": [
				{
					"internalType": "string",
					"name": "",
					"type": "string"
				},
				{
					"internalType": "uint256",
					"name": "",
					"type": "uint256"
				}
			],
			"name": "approvedTipePermohonanByFactory",
			"outputs": [
				{
					"internalType": "uint8",
					"name": "",
					"type": "uint8"
				}
			],
			"stateMutability": "view",
			"type": "function"
		},
		{
			"inputs": [
				{
					"internalType": "string",
					"name": "",
					"type": "string"
				}
			],
			"name": "cdobDataById",
			"outputs": [
				{
					"internalType": "string",
					"name": "cdobId",
					"type": "string"
				},
				{
					"internalType": "string",
					"name": "cdobNumber",
					"type": "string"
				},
				{
					"components": [
						{
							"internalType": "enum EnumsLibrary.StatusCertificate",
							"name": "status",
							"type": "uint8"
						},
						{
							"internalType": "uint256",
							"name": "timestampRequest",
							"type": "uint256"
						},
						{
							"internalType": "uint256",
							"name": "timestampApprove",
							"type": "uint256"
						},
						{
							"components": [
								{
									"internalType": "string",
									"name": "userName",
									"type": "string"
								},
								{
									"internalType": "address",
									"name": "userAddr",
									"type": "address"
								},
								{
									"internalType": "string",
									"name": "userInstanceName",
									"type": "string"
								}
							],
							"internalType": "struct MainSupplyChain.st_userCertificate",
							"name": "sender",
							"type": "tuple"
						},
						{
							"components": [
								{
									"internalType": "string",
									"name": "userName",
									"type": "string"
								},
								{
									"internalType": "address",
									"name": "userAddr",
									"type": "address"
								},
								{
									"internalType": "string",
									"name": "userInstanceName",
									"type": "string"
								}
							],
							"internalType": "struct MainSupplyChain.st_userCertificate",
							"name": "bpom",
							"type": "tuple"
						}
					],
					"internalType": "struct MainSupplyChain.st_certificateDetails",
					"name": "details",
					"type": "tuple"
				},
				{
					"internalType": "enum EnumsLibrary.TipePermohonanCdob",
					"name": "tipePermohonan",
					"type": "uint8"
				}
			],
			"stateMutability": "view",
			"type": "function"
		},
		{
			"inputs": [
				{
					"internalType": "string",
					"name": "",
					"type": "string"
				}
			],
			"name": "cpotbDataById",
			"outputs": [
				{
					"internalType": "string",
					"name": "cpotbId",
					"type": "string"
				},
				{
					"internalType": "string",
					"name": "cpotbNumber",
					"type": "string"
				},
				{
					"components": [
						{
							"internalType": "enum EnumsLibrary.StatusCertificate",
							"name": "status",
							"type": "uint8"
						},
						{
							"internalType": "uint256",
							"name": "timestampRequest",
							"type": "uint256"
						},
						{
							"internalType": "uint256",
							"name": "timestampApprove",
							"type": "uint256"
						},
						{
							"components": [
								{
									"internalType": "string",
									"name": "userName",
									"type": "string"
								},
								{
									"internalType": "address",
									"name": "userAddr",
									"type": "address"
								},
								{
									"internalType": "string",
									"name": "userInstanceName",
									"type": "string"
								}
							],
							"internalType": "struct MainSupplyChain.st_userCertificate",
							"name": "sender",
							"type": "tuple"
						},
						{
							"components": [
								{
									"internalType": "string",
									"name": "userName",
									"type": "string"
								},
								{
									"internalType": "address",
									"name": "userAddr",
									"type": "address"
								},
								{
									"internalType": "string",
									"name": "userInstanceName",
									"type": "string"
								}
							],
							"internalType": "struct MainSupplyChain.st_userCertificate",
							"name": "bpom",
							"type": "tuple"
						}
					],
					"internalType": "struct MainSupplyChain.st_certificateDetails",
					"name": "details",
					"type": "tuple"
				},
				{
					"internalType": "enum EnumsLibrary.TipePermohonanCpotb",
					"name": "tipePermohonan",
					"type": "uint8"
				}
			],
			"stateMutability": "view",
			"type": "function"
		},
		{
			"inputs": [
				{
					"internalType": "string",
					"name": "_certId",
					"type": "string"
				}
			],
			"name": "detailCdob",
			"outputs": [
				{
					"components": [
						{
							"internalType": "string",
							"name": "cdobId",
							"type": "string"
						},
						{
							"internalType": "string",
							"name": "cdobNumber",
							"type": "string"
						},
						{
							"components": [
								{
									"internalType": "enum EnumsLibrary.StatusCertificate",
									"name": "status",
									"type": "uint8"
								},
								{
									"internalType": "uint256",
									"name": "timestampRequest",
									"type": "uint256"
								},
								{
									"internalType": "uint256",
									"name": "timestampApprove",
									"type": "uint256"
								},
								{
									"components": [
										{
											"internalType": "string",
											"name": "userName",
											"type": "string"
										},
										{
											"internalType": "address",
											"name": "userAddr",
											"type": "address"
										},
										{
											"internalType": "string",
											"name": "userInstanceName",
											"type": "string"
										}
									],
									"internalType": "struct MainSupplyChain.st_userCertificate",
									"name": "sender",
									"type": "tuple"
								},
								{
									"components": [
										{
											"internalType": "string",
											"name": "userName",
											"type": "string"
										},
										{
											"internalType": "address",
											"name": "userAddr",
											"type": "address"
										},
										{
											"internalType": "string",
											"name": "userInstanceName",
											"type": "string"
										}
									],
									"internalType": "struct MainSupplyChain.st_userCertificate",
									"name": "bpom",
									"type": "tuple"
								}
							],
							"internalType": "struct MainSupplyChain.st_certificateDetails",
							"name": "details",
							"type": "tuple"
						},
						{
							"internalType": "enum EnumsLibrary.TipePermohonanCdob",
							"name": "tipePermohonan",
							"type": "uint8"
						}
					],
					"internalType": "struct MainSupplyChain.st_cdob",
					"name": "",
					"type": "tuple"
				}
			],
			"stateMutability": "view",
			"type": "function"
		},
		{
			"inputs": [
				{
					"internalType": "string",
					"name": "_certId",
					"type": "string"
				}
			],
			"name": "detailCpotb",
			"outputs": [
				{
					"components": [
						{
							"internalType": "string",
							"name": "cpotbId",
							"type": "string"
						},
						{
							"internalType": "string",
							"name": "cpotbNumber",
							"type": "string"
						},
						{
							"components": [
								{
									"internalType": "enum EnumsLibrary.StatusCertificate",
									"name": "status",
									"type": "uint8"
								},
								{
									"internalType": "uint256",
									"name": "timestampRequest",
									"type": "uint256"
								},
								{
									"internalType": "uint256",
									"name": "timestampApprove",
									"type": "uint256"
								},
								{
									"components": [
										{
											"internalType": "string",
											"name": "userName",
											"type": "string"
										},
										{
											"internalType": "address",
											"name": "userAddr",
											"type": "address"
										},
										{
											"internalType": "string",
											"name": "userInstanceName",
											"type": "string"
										}
									],
									"internalType": "struct MainSupplyChain.st_userCertificate",
									"name": "sender",
									"type": "tuple"
								},
								{
									"components": [
										{
											"internalType": "string",
											"name": "userName",
											"type": "string"
										},
										{
											"internalType": "address",
											"name": "userAddr",
											"type": "address"
										},
										{
											"internalType": "string",
											"name": "userInstanceName",
											"type": "string"
										}
									],
									"internalType": "struct MainSupplyChain.st_userCertificate",
									"name": "bpom",
									"type": "tuple"
								}
							],
							"internalType": "struct MainSupplyChain.st_certificateDetails",
							"name": "details",
							"type": "tuple"
						},
						{
							"internalType": "enum EnumsLibrary.TipePermohonanCpotb",
							"name": "tipePermohonan",
							"type": "uint8"
						}
					],
					"internalType": "struct MainSupplyChain.st_cpotb",
					"name": "",
					"type": "tuple"
				}
			],
			"stateMutability": "view",
			"type": "function"
		},
		{
			"inputs": [],
			"name": "getListAllCdob",
			"outputs": [
				{
					"components": [
						{
							"internalType": "string",
							"name": "certId",
							"type": "string"
						},
						{
							"internalType": "string",
							"name": "certNumber",
							"type": "string"
						},
						{
							"internalType": "string",
							"name": "instanceName",
							"type": "string"
						},
						{
							"internalType": "string",
							"name": "certificateType",
							"type": "string"
						},
						{
							"internalType": "uint8",
							"name": "tipePermohonan",
							"type": "uint8"
						},
						{
							"internalType": "enum EnumsLibrary.StatusCertificate",
							"name": "status",
							"type": "uint8"
						}
					],
					"internalType": "struct MainSupplyChain.st_certificateList[]",
					"name": "",
					"type": "tuple[]"
				}
			],
			"stateMutability": "view",
			"type": "function"
		},
		{
			"inputs": [
				{
					"internalType": "string",
					"name": "_instanceName",
					"type": "string"
				}
			],
			"name": "getListAllCertificateByInstance",
			"outputs": [
				{
					"components": [
						{
							"internalType": "string",
							"name": "certId",
							"type": "string"
						},
						{
							"internalType": "string",
							"name": "certNumber",
							"type": "string"
						},
						{
							"internalType": "string",
							"name": "instanceName",
							"type": "string"
						},
						{
							"internalType": "string",
							"name": "certificateType",
							"type": "string"
						},
						{
							"internalType": "uint8",
							"name": "tipePermohonan",
							"type": "uint8"
						},
						{
							"internalType": "enum EnumsLibrary.StatusCertificate",
							"name": "status",
							"type": "uint8"
						}
					],
					"internalType": "struct MainSupplyChain.st_certificateList[]",
					"name": "",
					"type": "tuple[]"
				}
			],
			"stateMutability": "view",
			"type": "function"
		},
		{
			"inputs": [],
			"name": "getListAllCpotb",
			"outputs": [
				{
					"components": [
						{
							"internalType": "string",
							"name": "certId",
							"type": "string"
						},
						{
							"internalType": "string",
							"name": "certNumber",
							"type": "string"
						},
						{
							"internalType": "string",
							"name": "instanceName",
							"type": "string"
						},
						{
							"internalType": "string",
							"name": "certificateType",
							"type": "string"
						},
						{
							"internalType": "uint8",
							"name": "tipePermohonan",
							"type": "uint8"
						},
						{
							"internalType": "enum EnumsLibrary.StatusCertificate",
							"name": "status",
							"type": "uint8"
						}
					],
					"internalType": "struct MainSupplyChain.st_certificateList[]",
					"name": "",
					"type": "tuple[]"
				}
			],
			"stateMutability": "view",
			"type": "function"
		},
		{
			"inputs": [
				{
					"internalType": "address",
					"name": "_userAddr",
					"type": "address"
				}
			],
			"name": "getUserData",
			"outputs": [
				{
					"internalType": "address",
					"name": "",
					"type": "address"
				},
				{
					"internalType": "string",
					"name": "",
					"type": "string"
				},
				{
					"internalType": "string",
					"name": "",
					"type": "string"
				},
				{
					"internalType": "uint8",
					"name": "",
					"type": "uint8"
				}
			],
			"stateMutability": "view",
			"type": "function"
		},
		{
			"inputs": [
				{
					"internalType": "string",
					"name": "_name",
					"type": "string"
				},
				{
					"internalType": "string",
					"name": "_instanceName",
					"type": "string"
				},
				{
					"internalType": "address",
					"name": "_userAddr",
					"type": "address"
				},
				{
					"internalType": "uint8",
					"name": "_userRole",
					"type": "uint8"
				}
			],
			"name": "registerUser",
			"outputs": [],
			"stateMutability": "nonpayable",
			"type": "function"
		},
		{
			"inputs": [
				{
					"components": [
						{
							"internalType": "string",
							"name": "certId",
							"type": "string"
						},
						{
							"internalType": "string",
							"name": "senderName",
							"type": "string"
						},
						{
							"internalType": "string",
							"name": "senderInstance",
							"type": "string"
						}
					],
					"internalType": "struct MainSupplyChain.st_certificateRequest",
					"name": "requestData",
					"type": "tuple"
				},
				{
					"internalType": "uint8",
					"name": "_tipePermohonanCdob",
					"type": "uint8"
				}
			],
			"name": "requestCdob",
			"outputs": [],
			"stateMutability": "nonpayable",
			"type": "function"
		},
		{
			"inputs": [
				{
					"components": [
						{
							"internalType": "string",
							"name": "certId",
							"type": "string"
						},
						{
							"internalType": "string",
							"name": "senderName",
							"type": "string"
						},
						{
							"internalType": "string",
							"name": "senderInstance",
							"type": "string"
						}
					],
					"internalType": "struct MainSupplyChain.st_certificateRequest",
					"name": "requestData",
					"type": "tuple"
				},
				{
					"internalType": "uint8",
					"name": "_tipePermohonanCpotb",
					"type": "uint8"
				}
			],
			"name": "requestCpotb",
			"outputs": [],
			"stateMutability": "nonpayable",
			"type": "function"
		}
	]
}