{
  "_format": "hh-sol-artifact-1",
  "contractName": "MainSupplyChain",
  "sourceName": "contracts/MainSupplyChain.sol",
  "abi": [
    {
      "inputs": [],
      "stateMutability": "nonpayable",
      "type": "constructor"
    },
    {
      "anonymous": false,
      "inputs": [
        {
          "indexed": false,
          "internalType": "address",
          "name": "userAddr",
          "type": "address"
        },
        {
          "indexed": false,
          "internalType": "string",
          "name": "name",
          "type": "string"
        }
      ],
      "name": "evt_UserRegistered",
      "type": "event"
    },
    {
      "inputs": [
        {
          "internalType": "address",
          "name": "_userAddr",
          "type": "address"
        }
      ],
      "name": "getRegisteredUser",
      "outputs": [
        {
          "internalType": "address",
          "name": "",
          "type": "address"
        },
        {
          "internalType": "string",
          "name": "",
          "type": "string"
        }
      ],
      "stateMutability": "view",
      "type": "function"
    },
    {
      "inputs": [],
      "name": "owner",
      "outputs": [
        {
          "internalType": "address",
          "name": "",
          "type": "address"
        }
      ],
      "stateMutability": "view",
      "type": "function"
    },
    {
      "inputs": [
        {
          "internalType": "string",
          "name": "_name",
          "type": "string"
        },
        {
          "internalType": "string",
          "name": "_email",
          "type": "string"
        },
        {
          "internalType": "address",
          "name": "_userAddr",
          "type": "address"
        },
        {
          "internalType": "uint8",
          "name": "_userRole",
          "type": "uint8"
        }
      ],
      "name": "registerUser",
      "outputs": [],
      "stateMutability": "nonpayable",
      "type": "function"
    }
  ],
  "bytecode": "0x60808060405234602757600080546001600160a01b0319163317905561087c908161002d8239f35b600080fdfe608080604052600436101561001357600080fd5b60003560e01c9081638da5cb5b1461063d57508063d12336721461013f5763e54a29bb1461004057600080fd5b3461013a57602036600319011261013a576004356001600160a01b0381169081900361013a5780600052600260205260ff60406000205416156100fc576000526001602052604060002060026040519161009983610661565b6100a2816107a2565b83526100b0600182016107a2565b602084015201546001600160a01b03811660408301908152906100dc9060a01c60ff166060840161075c565b5190516040519182916100f8916001600160a01b031683610737565b0390f35b60405162461bcd60e51b8152602060048201526016602482015275155cd95c881a5cc81b9bdd081c9959da5cdd195c995960521b6044820152606490fd5b600080fd5b3461013a57608036600319011261013a5760043567ffffffffffffffff811161013a5761017090369060040161069f565b60243567ffffffffffffffff811161013a5761019090369060040161069f565b906044356001600160a01b038116919082810361013a576064359260ff841680940361013a5780600052600260205260ff604060002054166105f857604060008061022f61024384516101e3868261067d565b602081527f5265676973746572557365722066756e6374696f6e2063616c6c65642062793a6020820152855192839163319af33360e01b602084015287602484015260648301906106f6565b87604483015203601f19810183528261067d565b6020815191016a636f6e736f6c652e6c6f675afa506000806102a66102ba845161026d868261067d565b600a8152692ab9b2b9102937b6329d60b11b60208201528551928391632d839cb360e21b602084015287602484015260648301906106f6565b8a604483015203601f19810183528261067d565b6020815191016a636f6e736f6c652e6c6f675afa50600585101561044b5780516102e381610661565b848152602081019687528181019683885261030260608301978861075c565b83600052600160205282600020915180519067ffffffffffffffff821161051f57819061032f8554610768565b601f81116105a5575b50602090601f831160011461054057600092610535575b50508160011b916000199060031b1c19161782555b518051600183019167ffffffffffffffff821161051f576103858354610768565b601f81116104d7575b50602090601f831160011461046c5760029493929160009183610461575b50508160011b916000199060031b1c19161790555b9651960180549551966001600160a01b03169290600588101561044b577f8e6a881c581fcf8aaf16e2e9b114bf311b4d58879dc71344f5b70d99cce4f249966104459460009960ff60a01b9060a01b16916affffffffffffffffffffff60a81b161717905586526002602052808620600160ff198254161790555192839283610737565b0390a180f35b634e487b7160e01b600052602160045260246000fd5b015190508b806103ac565b90601f1983169184600052816000209260005b8181106104bf5750916001939185600298979694106104a6575b505050811b0190556103c1565b015160001960f88460031b161c191690558b8080610499565b9293602060018192878601518155019501930161047f565b836000526020600020601f840160051c81019160208510610515575b601f0160051c01905b818110610509575061038e565b600081556001016104fc565b90915081906104f3565b634e487b7160e01b600052604160045260246000fd5b015190508a8061034f565b60008681528281209350601f198516905b81811061058d5750908460019594939210610574575b505050811b018255610364565b015160001960f88460031b161c191690558a8080610567565b92936020600181928786015181550195019301610551565b909150846000526020600020601f840160051c810191602085106105ee575b90601f859493920160051c01905b8181106105df5750610338565b600081558493506001016105d2565b90915081906105c4565b60405162461bcd60e51b815260206004820152601a60248201527f5573657220697320616c726561647920726567697374657265640000000000006044820152606490fd5b3461013a57600036600319011261013a576000546001600160a01b03168152602090f35b6080810190811067ffffffffffffffff82111761051f57604052565b90601f8019910116810190811067ffffffffffffffff82111761051f57604052565b81601f8201121561013a5780359067ffffffffffffffff821161051f57604051926106d4601f8401601f19166020018561067d565b8284526020838301011161013a57816000926020809301838601378301015290565b919082519283825260005b848110610722575050826000602080949584010152601f8019910116010190565b80602080928401015182828601015201610701565b6001600160a01b039091168152604060208201819052610759929101906106f6565b90565b600582101561044b5752565b90600182811c92168015610798575b602083101461078257565b634e487b7160e01b600052602260045260246000fd5b91607f1691610777565b90604051918260008254926107b684610768565b808452936001811690811561082457506001146107dd575b506107db9250038361067d565b565b90506000929192526020600020906000915b8183106108085750509060206107db92820101386107ce565b60209193508060019154838589010152019101909184926107ef565b9050602092506107db94915060ff191682840152151560051b820101386107ce56fea2646970667358221220b3f7bdd6fa2b31af0611615b5b70f1f13a5921b6a30291a575f4d6ec6b2b793564736f6c634300081b0033",
  "linkReferences": {},
  "deployedLinkReferences": {}
}