{
  "_format": "hh-sol-artifact-1",
  "contractName": "MainSupplyChain",
  "sourceName": "contracts/MainSupplyChain.sol",
  "abi": [
    {
      "inputs": [
        {
          "internalType": "address",
          "name": "_roleManagerAddr",
          "type": "address"
        }
      ],
      "stateMutability": "nonpayable",
      "type": "constructor"
    },
    {
      "anonymous": false,
      "inputs": [
        {
          "indexed": false,
          "internalType": "address",
          "name": "userAddr",
          "type": "address"
        },
        {
          "indexed": false,
          "internalType": "string",
          "name": "name",
          "type": "string"
        },
        {
          "indexed": false,
          "internalType": "string",
          "name": "instanceName",
          "type": "string"
        },
        {
          "indexed": false,
          "internalType": "uint8",
          "name": "role",
          "type": "uint8"
        },
        {
          "indexed": false,
          "internalType": "string",
          "name": "addressInstance",
          "type": "string"
        }
      ],
      "name": "evt_UserRegistered",
      "type": "event"
    },
    {
      "anonymous": false,
      "inputs": [
        {
          "indexed": false,
          "internalType": "string",
          "name": "bpomInstance",
          "type": "string"
        },
        {
          "indexed": false,
          "internalType": "address",
          "name": "bpomAddr",
          "type": "address"
        },
        {
          "indexed": false,
          "internalType": "enum EnumsLibrary.TipePermohonanCdob",
          "name": "",
          "type": "uint8"
        },
        {
          "indexed": false,
          "internalType": "string",
          "name": "cdobNumber",
          "type": "string"
        },
        {
          "indexed": false,
          "internalType": "uint256",
          "name": "timestampApproved",
          "type": "uint256"
        }
      ],
      "name": "evt_cdobApproved",
      "type": "event"
    },
    {
      "anonymous": false,
      "inputs": [
        {
          "indexed": false,
          "internalType": "string",
          "name": "pbfInstance",
          "type": "string"
        },
        {
          "indexed": false,
          "internalType": "address",
          "name": "pbfAddr",
          "type": "address"
        },
        {
          "indexed": false,
          "internalType": "enum EnumsLibrary.TipePermohonanCdob",
          "name": "tipePermohonan",
          "type": "uint8"
        },
        {
          "indexed": false,
          "internalType": "uint256",
          "name": "timestampRequest",
          "type": "uint256"
        }
      ],
      "name": "evt_cdobRequested",
      "type": "event"
    },
    {
      "anonymous": false,
      "inputs": [
        {
          "indexed": false,
          "internalType": "string",
          "name": "bpomInstance",
          "type": "string"
        },
        {
          "indexed": false,
          "internalType": "address",
          "name": "bpomAddr",
          "type": "address"
        },
        {
          "indexed": false,
          "internalType": "uint8",
          "name": "TipePermohonanCpotb",
          "type": "uint8"
        },
        {
          "indexed": false,
          "internalType": "string",
          "name": "cpotbId",
          "type": "string"
        },
        {
          "indexed": false,
          "internalType": "uint256",
          "name": "timestampApproved",
          "type": "uint256"
        }
      ],
      "name": "evt_cpotbApproved",
      "type": "event"
    },
    {
      "anonymous": false,
      "inputs": [
        {
          "indexed": false,
          "internalType": "string",
          "name": "factoryInstance",
          "type": "string"
        },
        {
          "indexed": false,
          "internalType": "address",
          "name": "factoryAddr",
          "type": "address"
        },
        {
          "indexed": false,
          "internalType": "uint8",
          "name": "TipePermohonanCpotb",
          "type": "uint8"
        },
        {
          "indexed": false,
          "internalType": "uint256",
          "name": "timestampRequest",
          "type": "uint256"
        }
      ],
      "name": "evt_cpotbRequested",
      "type": "event"
    },
    {
      "inputs": [
        {
          "internalType": "uint256",
          "name": "",
          "type": "uint256"
        }
      ],
      "name": "allCertificateData",
      "outputs": [
        {
          "internalType": "string",
          "name": "certId",
          "type": "string"
        },
        {
          "internalType": "string",
          "name": "certNumber",
          "type": "string"
        },
        {
          "internalType": "string",
          "name": "instanceName",
          "type": "string"
        },
        {
          "internalType": "string",
          "name": "certificateType",
          "type": "string"
        },
        {
          "internalType": "uint8",
          "name": "tipePermohonan",
          "type": "uint8"
        },
        {
          "internalType": "enum EnumsLibrary.StatusCertificate",
          "name": "status",
          "type": "uint8"
        },
        {
          "internalType": "string",
          "name": "ipfsCert",
          "type": "string"
        }
      ],
      "stateMutability": "view",
      "type": "function"
    },
    {
      "inputs": [
        {
          "components": [
            {
              "internalType": "string",
              "name": "certNumber",
              "type": "string"
            },
            {
              "internalType": "string",
              "name": "certId",
              "type": "string"
            },
            {
              "internalType": "string",
              "name": "bpomName",
              "type": "string"
            },
            {
              "internalType": "string",
              "name": "bpomInstance",
              "type": "string"
            }
          ],
          "internalType": "struct MainSupplyChain.st_certificateApproval",
          "name": "approvalData",
          "type": "tuple"
        },
        {
          "internalType": "string",
          "name": "_ipfsCert",
          "type": "string"
        },
        {
          "internalType": "uint8",
          "name": "_tipePermohonanCdob",
          "type": "uint8"
        }
      ],
      "name": "approveCdob",
      "outputs": [],
      "stateMutability": "nonpayable",
      "type": "function"
    },
    {
      "inputs": [
        {
          "components": [
            {
              "internalType": "string",
              "name": "certNumber",
              "type": "string"
            },
            {
              "internalType": "string",
              "name": "certId",
              "type": "string"
            },
            {
              "internalType": "string",
              "name": "bpomName",
              "type": "string"
            },
            {
              "internalType": "string",
              "name": "bpomInstance",
              "type": "string"
            }
          ],
          "internalType": "struct MainSupplyChain.st_certificateApproval",
          "name": "approvalData",
          "type": "tuple"
        },
        {
          "internalType": "string",
          "name": "_ipfsCert",
          "type": "string"
        },
        {
          "internalType": "uint8",
          "name": "_tipePermohonanCpotb",
          "type": "uint8"
        }
      ],
      "name": "approveCpotb",
      "outputs": [],
      "stateMutability": "nonpayable",
      "type": "function"
    },
    {
      "inputs": [
        {
          "internalType": "string",
          "name": "_factoryName",
          "type": "string"
        }
      ],
      "name": "approvedTipePermohonan",
      "outputs": [
        {
          "components": [
            {
              "internalType": "string",
              "name": "ipfsCert",
              "type": "string"
            },
            {
              "internalType": "uint8",
              "name": "tipePermohonan",
              "type": "uint8"
            }
          ],
          "internalType": "struct MainSupplyChain.st_approvedCert[]",
          "name": "",
          "type": "tuple[]"
        }
      ],
      "stateMutability": "view",
      "type": "function"
    },
    {
      "inputs": [
        {
          "internalType": "string",
          "name": "",
          "type": "string"
        },
        {
          "internalType": "uint256",
          "name": "",
          "type": "uint256"
        }
      ],
      "name": "approvedTipePermohonanByFactory",
      "outputs": [
        {
          "internalType": "string",
          "name": "ipfsCert",
          "type": "string"
        },
        {
          "internalType": "uint8",
          "name": "tipePermohonan",
          "type": "uint8"
        }
      ],
      "stateMutability": "view",
      "type": "function"
    },
    {
      "inputs": [
        {
          "internalType": "string",
          "name": "",
          "type": "string"
        },
        {
          "internalType": "uint256",
          "name": "",
          "type": "uint256"
        }
      ],
      "name": "approvedTipePermohonanByPbf",
      "outputs": [
        {
          "internalType": "string",
          "name": "ipfsCert",
          "type": "string"
        },
        {
          "internalType": "uint8",
          "name": "tipePermohonan",
          "type": "uint8"
        }
      ],
      "stateMutability": "view",
      "type": "function"
    },
    {
      "inputs": [
        {
          "internalType": "string",
          "name": "_pbfName",
          "type": "string"
        }
      ],
      "name": "approvedTipePermohonanCdob",
      "outputs": [
        {
          "components": [
            {
              "internalType": "string",
              "name": "ipfsCert",
              "type": "string"
            },
            {
              "internalType": "uint8",
              "name": "tipePermohonan",
              "type": "uint8"
            }
          ],
          "internalType": "struct MainSupplyChain.st_approvedCert[]",
          "name": "",
          "type": "tuple[]"
        }
      ],
      "stateMutability": "view",
      "type": "function"
    },
    {
      "inputs": [
        {
          "internalType": "string",
          "name": "",
          "type": "string"
        }
      ],
      "name": "cdobDataById",
      "outputs": [
        {
          "internalType": "string",
          "name": "cdobId",
          "type": "string"
        },
        {
          "internalType": "string",
          "name": "cdobNumber",
          "type": "string"
        },
        {
          "components": [
            {
              "internalType": "enum EnumsLibrary.StatusCertificate",
              "name": "status",
              "type": "uint8"
            },
            {
              "internalType": "uint256",
              "name": "timestampRequest",
              "type": "uint256"
            },
            {
              "internalType": "uint256",
              "name": "timestampApprove",
              "type": "uint256"
            },
            {
              "components": [
                {
                  "internalType": "string",
                  "name": "userName",
                  "type": "string"
                },
                {
                  "internalType": "address",
                  "name": "userAddr",
                  "type": "address"
                },
                {
                  "internalType": "string",
                  "name": "userInstanceName",
                  "type": "string"
                }
              ],
              "internalType": "struct MainSupplyChain.st_userCertificate",
              "name": "sender",
              "type": "tuple"
            },
            {
              "components": [
                {
                  "internalType": "string",
                  "name": "userName",
                  "type": "string"
                },
                {
                  "internalType": "address",
                  "name": "userAddr",
                  "type": "address"
                },
                {
                  "internalType": "string",
                  "name": "userInstanceName",
                  "type": "string"
                }
              ],
              "internalType": "struct MainSupplyChain.st_userCertificate",
              "name": "bpom",
              "type": "tuple"
            },
            {
              "internalType": "string",
              "name": "ipfsCert",
              "type": "string"
            }
          ],
          "internalType": "struct MainSupplyChain.st_certificateDetails",
          "name": "details",
          "type": "tuple"
        },
        {
          "internalType": "enum EnumsLibrary.TipePermohonanCdob",
          "name": "tipePermohonan",
          "type": "uint8"
        }
      ],
      "stateMutability": "view",
      "type": "function"
    },
    {
      "inputs": [
        {
          "internalType": "string",
          "name": "",
          "type": "string"
        }
      ],
      "name": "cpotbDataById",
      "outputs": [
        {
          "internalType": "string",
          "name": "cpotbId",
          "type": "string"
        },
        {
          "internalType": "string",
          "name": "cpotbNumber",
          "type": "string"
        },
        {
          "components": [
            {
              "internalType": "enum EnumsLibrary.StatusCertificate",
              "name": "status",
              "type": "uint8"
            },
            {
              "internalType": "uint256",
              "name": "timestampRequest",
              "type": "uint256"
            },
            {
              "internalType": "uint256",
              "name": "timestampApprove",
              "type": "uint256"
            },
            {
              "components": [
                {
                  "internalType": "string",
                  "name": "userName",
                  "type": "string"
                },
                {
                  "internalType": "address",
                  "name": "userAddr",
                  "type": "address"
                },
                {
                  "internalType": "string",
                  "name": "userInstanceName",
                  "type": "string"
                }
              ],
              "internalType": "struct MainSupplyChain.st_userCertificate",
              "name": "sender",
              "type": "tuple"
            },
            {
              "components": [
                {
                  "internalType": "string",
                  "name": "userName",
                  "type": "string"
                },
                {
                  "internalType": "address",
                  "name": "userAddr",
                  "type": "address"
                },
                {
                  "internalType": "string",
                  "name": "userInstanceName",
                  "type": "string"
                }
              ],
              "internalType": "struct MainSupplyChain.st_userCertificate",
              "name": "bpom",
              "type": "tuple"
            },
            {
              "internalType": "string",
              "name": "ipfsCert",
              "type": "string"
            }
          ],
          "internalType": "struct MainSupplyChain.st_certificateDetails",
          "name": "details",
          "type": "tuple"
        },
        {
          "internalType": "uint8",
          "name": "tipePermohonan",
          "type": "uint8"
        },
        {
          "internalType": "string",
          "name": "factoryType",
          "type": "string"
        }
      ],
      "stateMutability": "view",
      "type": "function"
    },
    {
      "inputs": [
        {
          "internalType": "string",
          "name": "_certId",
          "type": "string"
        }
      ],
      "name": "detailCdob",
      "outputs": [
        {
          "components": [
            {
              "internalType": "string",
              "name": "cdobId",
              "type": "string"
            },
            {
              "internalType": "string",
              "name": "cdobNumber",
              "type": "string"
            },
            {
              "components": [
                {
                  "internalType": "enum EnumsLibrary.StatusCertificate",
                  "name": "status",
                  "type": "uint8"
                },
                {
                  "internalType": "uint256",
                  "name": "timestampRequest",
                  "type": "uint256"
                },
                {
                  "internalType": "uint256",
                  "name": "timestampApprove",
                  "type": "uint256"
                },
                {
                  "components": [
                    {
                      "internalType": "string",
                      "name": "userName",
                      "type": "string"
                    },
                    {
                      "internalType": "address",
                      "name": "userAddr",
                      "type": "address"
                    },
                    {
                      "internalType": "string",
                      "name": "userInstanceName",
                      "type": "string"
                    }
                  ],
                  "internalType": "struct MainSupplyChain.st_userCertificate",
                  "name": "sender",
                  "type": "tuple"
                },
                {
                  "components": [
                    {
                      "internalType": "string",
                      "name": "userName",
                      "type": "string"
                    },
                    {
                      "internalType": "address",
                      "name": "userAddr",
                      "type": "address"
                    },
                    {
                      "internalType": "string",
                      "name": "userInstanceName",
                      "type": "string"
                    }
                  ],
                  "internalType": "struct MainSupplyChain.st_userCertificate",
                  "name": "bpom",
                  "type": "tuple"
                },
                {
                  "internalType": "string",
                  "name": "ipfsCert",
                  "type": "string"
                }
              ],
              "internalType": "struct MainSupplyChain.st_certificateDetails",
              "name": "details",
              "type": "tuple"
            },
            {
              "internalType": "enum EnumsLibrary.TipePermohonanCdob",
              "name": "tipePermohonan",
              "type": "uint8"
            }
          ],
          "internalType": "struct MainSupplyChain.st_cdob",
          "name": "",
          "type": "tuple"
        }
      ],
      "stateMutability": "view",
      "type": "function"
    },
    {
      "inputs": [
        {
          "internalType": "string",
          "name": "_certId",
          "type": "string"
        }
      ],
      "name": "detailCpotb",
      "outputs": [
        {
          "components": [
            {
              "internalType": "string",
              "name": "cpotbId",
              "type": "string"
            },
            {
              "internalType": "string",
              "name": "cpotbNumber",
              "type": "string"
            },
            {
              "components": [
                {
                  "internalType": "enum EnumsLibrary.StatusCertificate",
                  "name": "status",
                  "type": "uint8"
                },
                {
                  "internalType": "uint256",
                  "name": "timestampRequest",
                  "type": "uint256"
                },
                {
                  "internalType": "uint256",
                  "name": "timestampApprove",
                  "type": "uint256"
                },
                {
                  "components": [
                    {
                      "internalType": "string",
                      "name": "userName",
                      "type": "string"
                    },
                    {
                      "internalType": "address",
                      "name": "userAddr",
                      "type": "address"
                    },
                    {
                      "internalType": "string",
                      "name": "userInstanceName",
                      "type": "string"
                    }
                  ],
                  "internalType": "struct MainSupplyChain.st_userCertificate",
                  "name": "sender",
                  "type": "tuple"
                },
                {
                  "components": [
                    {
                      "internalType": "string",
                      "name": "userName",
                      "type": "string"
                    },
                    {
                      "internalType": "address",
                      "name": "userAddr",
                      "type": "address"
                    },
                    {
                      "internalType": "string",
                      "name": "userInstanceName",
                      "type": "string"
                    }
                  ],
                  "internalType": "struct MainSupplyChain.st_userCertificate",
                  "name": "bpom",
                  "type": "tuple"
                },
                {
                  "internalType": "string",
                  "name": "ipfsCert",
                  "type": "string"
                }
              ],
              "internalType": "struct MainSupplyChain.st_certificateDetails",
              "name": "details",
              "type": "tuple"
            },
            {
              "internalType": "uint8",
              "name": "tipePermohonan",
              "type": "uint8"
            },
            {
              "internalType": "string",
              "name": "factoryType",
              "type": "string"
            }
          ],
          "internalType": "struct MainSupplyChain.st_cpotb",
          "name": "",
          "type": "tuple"
        }
      ],
      "stateMutability": "view",
      "type": "function"
    },
    {
      "inputs": [],
      "name": "getListAllCdob",
      "outputs": [
        {
          "components": [
            {
              "internalType": "string",
              "name": "certId",
              "type": "string"
            },
            {
              "internalType": "string",
              "name": "certNumber",
              "type": "string"
            },
            {
              "internalType": "string",
              "name": "instanceName",
              "type": "string"
            },
            {
              "internalType": "string",
              "name": "certificateType",
              "type": "string"
            },
            {
              "internalType": "uint8",
              "name": "tipePermohonan",
              "type": "uint8"
            },
            {
              "internalType": "enum EnumsLibrary.StatusCertificate",
              "name": "status",
              "type": "uint8"
            },
            {
              "internalType": "string",
              "name": "ipfsCert",
              "type": "string"
            }
          ],
          "internalType": "struct MainSupplyChain.st_certificateList[]",
          "name": "",
          "type": "tuple[]"
        }
      ],
      "stateMutability": "view",
      "type": "function"
    },
    {
      "inputs": [
        {
          "internalType": "string",
          "name": "_instanceName",
          "type": "string"
        }
      ],
      "name": "getListAllCertificateByInstance",
      "outputs": [
        {
          "components": [
            {
              "internalType": "string",
              "name": "certId",
              "type": "string"
            },
            {
              "internalType": "string",
              "name": "certNumber",
              "type": "string"
            },
            {
              "internalType": "string",
              "name": "instanceName",
              "type": "string"
            },
            {
              "internalType": "string",
              "name": "certificateType",
              "type": "string"
            },
            {
              "internalType": "uint8",
              "name": "tipePermohonan",
              "type": "uint8"
            },
            {
              "internalType": "enum EnumsLibrary.StatusCertificate",
              "name": "status",
              "type": "uint8"
            },
            {
              "internalType": "string",
              "name": "ipfsCert",
              "type": "string"
            }
          ],
          "internalType": "struct MainSupplyChain.st_certificateList[]",
          "name": "",
          "type": "tuple[]"
        }
      ],
      "stateMutability": "view",
      "type": "function"
    },
    {
      "inputs": [],
      "name": "getListAllCpotb",
      "outputs": [
        {
          "components": [
            {
              "internalType": "string",
              "name": "certId",
              "type": "string"
            },
            {
              "internalType": "string",
              "name": "certNumber",
              "type": "string"
            },
            {
              "internalType": "string",
              "name": "instanceName",
              "type": "string"
            },
            {
              "internalType": "string",
              "name": "certificateType",
              "type": "string"
            },
            {
              "internalType": "uint8",
              "name": "tipePermohonan",
              "type": "uint8"
            },
            {
              "internalType": "enum EnumsLibrary.StatusCertificate",
              "name": "status",
              "type": "uint8"
            },
            {
              "internalType": "string",
              "name": "ipfsCert",
              "type": "string"
            }
          ],
          "internalType": "struct MainSupplyChain.st_certificateList[]",
          "name": "",
          "type": "tuple[]"
        }
      ],
      "stateMutability": "view",
      "type": "function"
    },
    {
      "inputs": [
        {
          "internalType": "string",
          "name": "_certId",
          "type": "string"
        },
        {
          "internalType": "string",
          "name": "_certType",
          "type": "string"
        }
      ],
      "name": "rejectCert",
      "outputs": [],
      "stateMutability": "nonpayable",
      "type": "function"
    },
    {
      "inputs": [
        {
          "components": [
            {
              "internalType": "string",
              "name": "certId",
              "type": "string"
            },
            {
              "internalType": "string",
              "name": "senderName",
              "type": "string"
            },
            {
              "internalType": "string",
              "name": "senderInstance",
              "type": "string"
            }
          ],
          "internalType": "struct MainSupplyChain.st_certificateRequest",
          "name": "requestData",
          "type": "tuple"
        },
        {
          "internalType": "uint8",
          "name": "_tipePermohonanCdob",
          "type": "uint8"
        }
      ],
      "name": "requestCdob",
      "outputs": [],
      "stateMutability": "nonpayable",
      "type": "function"
    },
    {
      "inputs": [
        {
          "components": [
            {
              "internalType": "string",
              "name": "certId",
              "type": "string"
            },
            {
              "internalType": "string",
              "name": "senderName",
              "type": "string"
            },
            {
              "internalType": "string",
              "name": "senderInstance",
              "type": "string"
            }
          ],
          "internalType": "struct MainSupplyChain.st_certificateRequest",
          "name": "requestData",
          "type": "tuple"
        },
        {
          "internalType": "uint8",
          "name": "_tipePermohonanCpotb",
          "type": "uint8"
        },
        {
          "internalType": "string",
          "name": "_factoryType",
          "type": "string"
        }
      ],
      "name": "requestCpotb",
      "outputs": [],
      "stateMutability": "nonpayable",
      "type": "function"
    }
  ],
  "bytecode": "0x608034606f57601f614bbb38819003918201601f19168301916001600160401b03831184841017607357808492602094604052833981010312606f57516001600160a01b03811690819003606f575f80546001600160a01b031916919091179055604051614b3390816100888239f35b5f80fd5b634e487b7160e01b5f52604160045260245ffdfe60806040526004361015610011575f80fd5b5f3560e01c80631f0fc344146135675780632ec00b97146135295780634c3ba6fd14613448578063633cc28e146132c05780636aa81299146131ef5780636d2a362f146122055780636f8e6197146120c4578063711255af14611fa357806372c17cb914611ee55780637902d65214610d375780637ee90ded14610cd75780639dfbae5014610541578063a814a60f146103f2578063cec1fc1e14610352578063e49d032714610291578063ec1765871461019d5763fb705459146100d4575f80fd5b34610199576020366003190112610199576004356001600160401b03811161019957602061010781923690600401613e9c565b604051928184925191829101835e81016004815203019020805461012a816147bd565b916101386040519384613e7b565b81835260208301905f5260205f205f915b838310610162576040518061015e87826144aa565b0390f35b6002602060019260405161017581613dd9565b61017e866140d7565b815260ff858701541683820152815201920192019190610149565b5f80fd5b34610199575f366003190112610199576101bd6101b861479a565b614a82565b6101ee60ff60405160208101906431b837ba3160d91b8252600581526101e4602582613e7b565b519020921661480a565b905f5f91600554925b83811061020c576040518061015e87826143cc565b81600361023261024061021e856141bc565b506040519283916020830195869101614686565b03601f198101835282613e7b565b51902014610251575b6001016101f7565b9161028960019161028361026d610267876141bc565b5061486d565b60ff83169061027c828b614859565b5288614859565b506148e8565b929050610249565b34610199576020366003190112610199576004356001600160401b0381116101995760206102c481923690600401613e9c565b604051928184925191829101835e8101600381520301902080546102e7816147bd565b916102f56040519384613e7b565b81835260208301905f5260205f205f915b83831061031b576040518061015e87826144aa565b6002602060019260405161032e81613dd9565b610337866140d7565b815260ff858701541683820152815201920192019190610306565b34610199575f3660031901126101995761036d6101b861471b565b61039360ff60405160208101906331b237b160e11b8252600481526101e4602482613e7b565b905f5f91600554925b8381106103b1576040518061015e87826143cc565b8160036102326103c361021e856141bc565b519020146103d4575b60010161039c565b916103ea60019161028361026d610267876141bc565b9290506103cc565b34610199576020366003190112610199576004356001600160401b03811161019957610422903690600401613e9c565b60055460208201915f805b8381106104de575060ff610441911661480a565b925f915f5b84811061045b576040518061015e88826143cc565b600261023261046c61021e846141bc565b51902060405160208101906104996020828751808a875e81015f838201520301601f198101835282613e7b565b519020146104aa575b600101610446565b926104d66001916102836104c0610267886141bc565b60ff8316906104cf828c614859565b5289614859565b9390506104a2565b60026102326104ef61021e846141bc565b519020604051602081019061051c6020828851808c875e81015f838201520301601f198101835282613e7b565b5190201461052d575b60010161042d565b906105396001916148e8565b919050610525565b346101995761054f36613f01565b61055b9291923361490d565b602082019061056a8251614053565b93610575855461409f565b15610ca157604084015190610592606086019283519033906149b6565b60028701906008880181518051906001600160401b0382116108cd5781906105ba845461409f565b601f8111610c51575b50602090601f8311600114610bee575f92610be3575b50508160011b915f199060031b1c19161790555b60208101516009890180546001600160a01b0319166001600160a01b0392909216919091179055604001518051600a8901916001600160401b0382116108cd578190610639845461409f565b601f8111610b93575b50602090601f8311600114610b30575f92610b25575b50508160011b915f199060031b1c19161790555b600160ff19825416179055426004870155845160018701908051906001600160401b0382116108cd5781906106a1845461409f565b601f8111610ad5575b50602090601f8311600114610a72575f92610a67575b50508160011b915f199060031b1c19161790555b600b860181516001600160401b0381116108cd576106f2825461409f565b601f8111610a22575b50806020601f82116001146109c1575f916109b6575b508160011b915f199060031b1c19161790555b5f5b6005548110156108e157610739816141bc565b5060405161074f81610232602082018095614686565b51902085516040516107806020828180820195805191829101875e81015f838201520301601f198101835282613e7b565b51902014610791575b600101610726565b8551600161079e836141bc565b5001908051906001600160401b0382116108cd576107bc835461409f565b601f8111610888575b50602090601f8311600114610821576001949392915f9183610816575b50505f19600383901b1c191690841b1790555b6004610800826141bc565b5001805461ff0019166101001790559050610789565b015190508b806107e2565b90601f19831691845f52815f20925f5b818110610870575091600196959492918388959310610858575b505050811b0190556107f5565b01515f1960f88460031b161c191690558b808061084b565b92936020600181928786015181550195019301610831565b835f5260205f20601f840160051c810191602085106108c3575b601f0160051c01905b8181106108b857506107c5565b5f81556001016108ab565b90915081906108a2565b634e487b7160e01b5f52604160045260245ffd5b5061092e9192935060208060ff6108fa60078a016140d7565b966040519461090886613dd9565b855216958682850152604051928184925191829101835e81016004815203019020614538565b5160028210156109a257610997610979927f8d8f26b533bc5f62a32de1faa67facbf43e75bd50ab3e60343fd421507e8dd63945161098a60405195869560a0875260a0870190614177565b9233602087015260408601906143bf565b8382036060850152614177565b4260808301520390a1005b634e487b7160e01b5f52602160045260245ffd5b905083015189610711565b5f8481528181209250601f198416905b818110610a0a575090836001949392106109f2575b5050811b019055610724565b8501515f1960f88460031b161c1916905589806109e6565b9192602060018192868a0151815501940192016109d1565b825f5260205f20601f830160051c81019160208410610a5d575b601f0160051c01905b818110610a5257506106fb565b5f8155600101610a45565b9091508190610a3c565b0151905089806106c0565b5f8581528281209350601f198516905b818110610abd5750908460019594939210610aa5575b505050811b0190556106d4565b01515f1960f88460031b161c19169055898080610a98565b92936020600181928786015181550195019301610a82565b909150835f5260205f20601f840160051c81019160208510610b1b575b90601f859493920160051c01905b818110610b0d57506106aa565b5f8155849350600101610b00565b9091508190610af2565b015190508a80610658565b5f8581528281209350601f198516905b818110610b7b5750908460019594939210610b63575b505050811b01905561066c565b01515f1960f88460031b161c191690558a8080610b56565b92936020600181928786015181550195019301610b40565b909150835f5260205f20601f840160051c81019160208510610bd9575b90601f859493920160051c01905b818110610bcb5750610642565b5f8155849350600101610bbe565b9091508190610bb0565b015190508b806105d9565b5f8581528281209350601f198516905b818110610c395750908460019594939210610c21575b505050811b0190556105ed565b01515f1960f88460031b161c191690558b8080610c14565b92936020600181928786015181550195019301610bfe565b909150835f5260205f20601f840160051c81019160208510610c97575b90601f859493920160051c01905b818110610c8957506105c3565b5f8155849350600101610c7c565b9091508190610c6e565b60405162461bcd60e51b815260206004820152600e60248201526d10d113d0881b9bdd08199bdd5b9960921b6044820152606490fd5b3461019957602080610ce836614003565b9290604051928184925191829101835e8101600381520301902090815481101561019957610d1591614072565b5060ff6001610d23836140d7565b920154169061015e6040519283928361419b565b34610199576060366003190112610199576004356001600160401b03811161019957610d67903690600401614341565b610d6f613ef1565b906044356001600160401b03811161019957610d8f903690600401613e9c565b5f546040516395a8c58d60e01b8152336004820152919291906001600160a01b0316816044816020935f60248301525afa908115611eda575f91611e9f575b5015611e6b57610de7610de18251614034565b5461409f565b611e36576020810151610e02604083019182519033906149b6565b93610e38602095610e32604051610e198982613e7b565b5f815260405190610e2a8a83613e7b565b5f825261498f565b906149e6565b92805160405190610e4882613e0f565b815260405194610e588887613e7b565b5f865287820195865260408201908152606082019060ff85169687835260808401988952610e868551614034565b93518051906001600160401b0382116108cd5781908c610ea6885461409f565b601f8111611de5575b50508c908d601f8411600114611d8157505f92611d76575b50508160011b915f199060031b1c19161784555b51805160018501916001600160401b0382116108cd5781908c610efe855461409f565b601f8111611d25575b50508c908d601f8411600114611cc157505f92611cb6575b50508160011b915f199060031b1c19161790555b51610f4b8151610f42816141f1565b60028501614520565b8089015160038401556040810151600484015560608101518051805160058601916001600160401b0382116108cd578c8291610f87855461409f565b601f8111611c5e575b5081601f8411600114611bfa57505f92611bef575b50508160011b915f199060031b1c19161790555b808a01516006850180546001600160a01b0319166001600160a01b039290921691909117905560400151805160078501916001600160401b0382116108cd5781908c611005855461409f565b601f8111611b9e575b50508c908d601f8411600114611b3a57505f92611b2f575b50508160011b915f199060031b1c19161790555b60808101518051805160088601916001600160401b0382116108cd578c8291611063855461409f565b601f8111611ad7575b5081601f8411600114611a7357505f92611a68575b50508160011b915f199060031b1c19161790555b808a01516009850180546001600160a01b0319166001600160a01b0392909216919091179055604001518051600a8501916001600160401b0382116108cd5781908c6110e1855461409f565b601f8111611a17575b50508c908d601f84116001146119b357505f926119a8575b50508160011b915f199060031b1c19161790555b60a001518051600b8401916001600160401b0382116108cd57611139835461409f565b601f8111611965575b508a90601f83116001146118f857918060ff9492600d9796945f926118ed575b50508160011b915f199060031b1c19161790555b511660ff600c8301911660ff19825416179055019451948551956001600160401b0387116108cd576111a8825461409f565b601f81116118aa575b508790601f8811600114611842579680916112059697985f92611837575b50508160011b915f199060031b1c19161790555b519083516040516111f48882613e7b565b5f81526111ff61479a565b93614a2f565b600554600160401b8110156108cd57806001611226920160055560056141d8565b6118245781518051906001600160401b0382116108cd578190611249845461409f565b601f81116117d6575b508790601f8311600114611773575f92611768575b50508160011b915f199060031b1c19161781555b60018101858301518051906001600160401b0382116108cd5781906112a0845461409f565b601f811161171a575b508890601f83116001146116b7575f926116ac575b50508160011b915f199060031b1c19161790555b6002810160408301518051906001600160401b0382116108cd5781906112f8845461409f565b601f811161165e575b508890601f83116001146115fb575f926115f0575b50508160011b915f199060031b1c19161790555b6003810160608301518051906001600160401b0382116108cd5761134e835461409f565b601f81116115ad575b508790601f83116001146115445791806005949260c096945f92611539575b50508160011b915f199060031b1c19161790555b6113b86004820160ff806080880151161660ff1982541617815560a0860151906113b3826141f1565b6146f0565b019101518051906001600160401b0382116108cd576113d7835461409f565b601f81116114f6575b508590601f831160011461146c5791807f99dcabd81899d5894d4391d9586c557b10a0d34a881adfc4769ad41e9166cda097949261144b9796945f92611461575b50508160011b915f199060031b1c19161790555b5191604051938493608085526080850190614177565b91339084015260408301524260608301520390a1005b015190508880611421565b90601f19831691845f52875f20925f5b8181106114df575092600192859261144b9998967f99dcabd81899d5894d4391d9586c557b10a0d34a881adfc4769ad41e9166cda09b9896106114c7575b505050811b019055611435565b01515f1960f88460031b161c191690558880806114ba565b92938960018192878601518155019501930161147c565b835f52865f20601f840160051c81019188851061152f575b601f0160051c01905b81811061152457506113e0565b5f8155600101611517565b909150819061150e565b015190508a80611376565b90601f19831691845f52895f20925f5b8b82821061159757505092600192859260c09896600598961061157f575b505050811b01905561138a565b01515f1960f88460031b161c191690558a8080611572565b6001859682939686015181550195019301611554565b835f52885f20601f840160051c8101918a85106115e6575b601f0160051c01905b8181106115db5750611357565b5f81556001016115ce565b90915081906115c5565b015190508880611316565b5f8581528a81209350601f198516905b8b828210611648575050908460019594939210611630575b505050811b01905561132a565b01515f1960f88460031b161c19169055888080611623565b600185968293968601518155019501930161160b565b909150835f52885f20601f840160051c8101918a85106116a2575b90601f859493920160051c01905b8181106116945750611301565b5f8155849350600101611687565b9091508190611679565b0151905088806112be565b5f8581528a81209350601f198516905b8b8282106117045750509084600195949392106116ec575b505050811b0190556112d2565b01515f1960f88460031b161c191690558880806116df565b60018596829396860151815501950193016116c7565b909150835f52885f20601f840160051c8101918a851061175e575b90601f859493920160051c01905b81811061175057506112a9565b5f8155849350600101611743565b9091508190611735565b015190508780611267565b5f8581528981209350601f198516905b8a8282106117c05750509084600195949392106117a8575b505050811b01815561127b565b01515f1960f88460031b161c1916905587808061179b565b6001859682939686015181550195019301611783565b909150835f52875f20601f840160051c81019189851061181a575b90601f859493920160051c01905b81811061180c5750611252565b5f81558493506001016117ff565b90915081906117f1565b634e487b7160e01b5f525f60045260245ffd5b0151905089806111cf565b90601f19881691835f52895f20925f5b8b82821061189457505091600193918a611205999a9b941061187c575b505050811b0190556111e3565b01515f1960f88460031b161c1916905589808061186f565b6001859682939686015181550195019301611852565b825f52885f20601f890160051c8101918a8a106118e3575b601f0160051c01905b8181106118d857506111b1565b5f81556001016118cb565b90915081906118c2565b015190508d80611162565b5f8481528c8120929190601f198516908e5b82821061194d575050926001928592600d99989660ff989610611935575b505050811b019055611176565b01515f1960f88460031b161c191690558d8080611928565b8060018697829497870151815501960194019061190a565b835f528b5f20601f840160051c8101918d851061199e575b601f0160051c01905b8181106119935750611142565b5f8155600101611986565b909150819061197d565b015190508c80611102565b5f8681528181209450601f198616915b8282106119ff5750509084600195949392106119e7575b505050811b019055611116565b01515f1960f88460031b161c191690558c80806119da565b806001869782949787015181550196019401906119c3565b90919250845f52815f2090601f850160051c8201928510611a5e575b90601f859493920160051c01905b818110611a50578e91506110ea565b5f8155849350600101611a41565b9091508190611a33565b015190508d80611081565b5f8681528181209450601f198616915b828210611abf575050908460019594939210611aa7575b505050811b019055611095565b01515f1960f88460031b161c191690558d8080611a9a565b80600186978294978701518155019601940190611a83565b909250845f52815f2090601f850160051c8201928510611b25575b918f9291601f8695930160051c01905b818110611b0f575061106c565b90925060019193505f815501918e918493611b02565b9091508190611af2565b015190508c80611026565b5f8681528181209450601f198616915b828210611b86575050908460019594939210611b6e575b505050811b01905561103a565b01515f1960f88460031b161c191690558c8080611b61565b80600186978294978701518155019601940190611b4a565b90919250845f52815f2090601f850160051c8201928510611be5575b90601f859493920160051c01905b818110611bd7578e915061100e565b5f8155849350600101611bc8565b9091508190611bba565b015190508d80610fa5565b5f8681528181209450601f198616915b828210611c46575050908460019594939210611c2e575b505050811b019055610fb9565b01515f1960f88460031b161c191690558d8080611c21565b80600186978294978701518155019601940190611c0a565b909250845f52815f2090601f850160051c8201928510611cac575b918f9291601f8695930160051c01905b818110611c965750610f90565b90925060019193505f815501918e918493611c89565b9091508190611c79565b015190508c80610f1f565b5f8681528181209450601f198616915b828210611d0d575050908460019594939210611cf5575b505050811b019055610f33565b01515f1960f88460031b161c191690558c8080611ce8565b80600186978294978701518155019601940190611cd1565b90919250845f52815f2090601f850160051c8201928510611d6c575b90601f859493920160051c01905b818110611d5e578e9150610f07565b5f8155849350600101611d4f565b9091508190611d41565b015190508c80610ec7565b5f8981528181209450601f198616915b828210611dcd575050908460019594939210611db5575b505050811b018455610edb565b01515f1960f88460031b161c191690558c8080611da8565b80600186978294978701518155019601940190611d91565b90919250875f52815f2090601f850160051c8201928510611e2c575b90601f859493920160051c01905b818110611e1e578e9150610eaf565b5f8155849350600101611e0f565b9091508190611e01565b60405162461bcd60e51b815260206004820152600d60248201526c24b73b30b634b21021a827aa2160991b6044820152606490fd5b60405162461bcd60e51b815260206004820152600c60248201526b155b985d5d1a1bdc9a5e995960a21b6044820152606490fd5b90506020813d602011611ed2575b81611eba60209383613e7b565b81010312610199575180151581036101995784610dce565b3d9150611ead565b6040513d5f823e3d90fd5b34610199576020366003190112610199576004356001600160401b03811161019957602080611f1b611f7c933690600401613e9c565b604051928184925191829101835e81016002815203019020611f3c816140d7565b9061015e611f98611f4f600184016140d7565b92611f8a60ff600c611f636002850161423a565b9301541694604051978897608089526080890190614177565b908782036020890152614177565b9085820360408701526142db565b9160608401906143bf565b34610199576020366003190112610199576004356001600160401b03811161019957602080611fd9612092933690600401613e9c565b5f6060604051611fe881613df4565b8181528185820152611ff861475c565b60408201520152604051928184925191829101835e810160028152030190206040519061202482613df4565b61202d816140d7565b825261015e6120b8612041600184016140d7565b92602085019384526120a560ff600c61205c6002850161423a565b93604089019485520154169461207660608801968761470f565b6040519788976020895251608060208a015260a0890190614177565b9051878203601f19016040890152614177565b9051858203601f190160608701526142db565b915160808401906143bf565b34610199576020366003190112610199576004356001600160401b038111610199576020806120fa6121c5933690600401613e9c565b6060608060405161210a81613e0f565b828152828582015261211a61475c565b60408201525f838201520152604051928184925191829101835e8101600181520301902061015e6040519161214e83613e0f565b612157816140d7565b8352612165600182016140d7565b6020840190815260ff6121eb61217d6002850161423a565b604087019081526121d86121a1600d85600c890154169760608b01988952016140d7565b9460808901958652604051998a9960208b525160a060208c015260c08b0190614177565b9051898203601f190160408b0152614177565b9051878203601f190160608901526142db565b925116608085015251838203601f190160a0850152614177565b34610199576040366003190112610199576004356001600160401b03811161019957612235903690600401614341565b61223d613ef1565b5f546040516395a8c58d60e01b8152336004820152906001600160a01b031681604481602093600160248301525afa908115611eda575f916131b4575b5015611e6b5761228d610de18351614053565b6131805760208201516122a8604084019182519033906149b6565b926122d0602094610e326040516122bf8882613e7b565b5f815260405190610e2a8983613e7b565b9060ff815194169360028510156109a257604051906122ee82613df4565b8152604051926122fe8785613e7b565b5f845286820193845260408201908152606082019361231d878661470f565b6123278451614053565b92518051906001600160401b0382116108cd578190612346865461409f565b601f8111613132575b508a90601f83116001146130cf575f926130c4575b50508160011b915f199060031b1c19161783555b51805160018401916001600160401b0382116108cd57819061239a845461409f565b601f8111613076575b508a90601f8311600114613013575f92613008575b50508160011b915f199060031b1c19161790555b516123e481516123db816141f1565b60028401614520565b8087015160038301556040810151600483015560608101518051805160058501916001600160401b0382116108cd57819061241f845461409f565b601f8111612fba575b508b90601f8311600114612f55575f92612f4a575b50508160011b915f199060031b1c19161790555b808801516006840180546001600160a01b0319166001600160a01b039290921691909117905560400151805160078401916001600160401b0382116108cd57819061249c845461409f565b601f8111612efc575b508a90601f8311600114612e99575f92612e8e575b50508160011b915f199060031b1c19161790555b60808101518051805160088501916001600160401b0382116108cd5781906124f6845461409f565b601f8111612e40575b508b90601f8311600114612ddb575f92612dd0575b50508160011b915f199060031b1c19161790555b808801516009840180546001600160a01b0319166001600160a01b0392909216919091179055604001518051600a8401916001600160401b0382116108cd578190612573845461409f565b601f8111612d82575b508a90601f8311600114612d1f575f92612d14575b50508160011b915f199060031b1c19161790555b60a001518051600b8301916001600160401b0382116108cd576125c8835461409f565b601f8111612cd1575b508890601f8311600114612c6a57600c949392915f9183612c5f575b50508160011b915f199060031b1c19161790555b0191519160028310156109a25761263a9260ff801983541691161790555183835160405161262f8882613e7b565b5f81526111ff61471b565b600554600160401b8110156108cd5780600161265b920160055560056141d8565b6118245781518051906001600160401b0382116108cd57819061267e845461409f565b601f8111612c11575b508790601f8311600114612bae575f92612ba3575b50508160011b915f199060031b1c19161781555b60018101858301518051906001600160401b0382116108cd5781906126d5845461409f565b601f8111612b55575b508890601f8311600114612af2575f92612ae7575b50508160011b915f199060031b1c19161790555b6002810160408301518051906001600160401b0382116108cd57819061272d845461409f565b601f8111612a99575b508890601f8311600114612a36575f92612a2b575b50508160011b915f199060031b1c19161790555b6003810160608301518051906001600160401b0382116108cd57612783835461409f565b601f81116129e8575b508790601f831160011461297f5791806005949260c096945f92612974575b50508160011b915f199060031b1c19161790555b6127e86004820160ff806080880151161660ff1982541617815560a0860151906113b3826141f1565b019101518051906001600160401b0382116108cd57612807835461409f565b601f8111612931575b508590601f83116001146128a457928261288e9361287e9796937f7002576f080ade70048a03ad81b929b78c8b7e148fd11f40f286a8b6900e6f9b99965f92612899575b50508160011b915f199060031b1c19161790555b5192604051948594608086526080860190614177565b92339085015260408401906143bf565b4260608301520390a1005b015190508980612854565b90601f19831691845f52875f20925f5b81811061291a57509361287e9796937f7002576f080ade70048a03ad81b929b78c8b7e148fd11f40f286a8b6900e6f9b9996936001938361288e9810612902575b505050811b019055612868565b01515f1960f88460031b161c191690558980806128f5565b9293896001819287860151815501950193016128b4565b835f52865f20601f840160051c81019188851061296a575b601f0160051c01905b81811061295f5750612810565b5f8155600101612952565b9091508190612949565b015190508a806127ab565b90601f19831691845f52895f20925f5b8b8282106129d257505092600192859260c0989660059896106129ba575b505050811b0190556127bf565b01515f1960f88460031b161c191690558a80806129ad565b600185968293968601518155019501930161298f565b835f52885f20601f840160051c8101918a8510612a21575b601f0160051c01905b818110612a16575061278c565b5f8155600101612a09565b9091508190612a00565b01519050888061274b565b5f8581528a81209350601f198516905b8b828210612a83575050908460019594939210612a6b575b505050811b01905561275f565b01515f1960f88460031b161c19169055888080612a5e565b6001859682939686015181550195019301612a46565b909150835f52885f20601f840160051c8101918a8510612add575b90601f859493920160051c01905b818110612acf5750612736565b5f8155849350600101612ac2565b9091508190612ab4565b0151905088806126f3565b5f8581528a81209350601f198516905b8b828210612b3f575050908460019594939210612b27575b505050811b019055612707565b01515f1960f88460031b161c19169055888080612b1a565b6001859682939686015181550195019301612b02565b909150835f52885f20601f840160051c8101918a8510612b99575b90601f859493920160051c01905b818110612b8b57506126de565b5f8155849350600101612b7e565b9091508190612b70565b01519050878061269c565b5f8581528981209350601f198516905b8a828210612bfb575050908460019594939210612be3575b505050811b0181556126b0565b01515f1960f88460031b161c19169055878080612bd6565b6001859682939686015181550195019301612bbe565b909150835f52875f20601f840160051c810191898510612c55575b90601f859493920160051c01905b818110612c475750612687565b5f8155849350600101612c3a565b9091508190612c2c565b015190508a806125ed565b90601f19831691845f528a5f20925f5b8c828210612cbb575050916001939185600c9897969410612ca3575b505050811b019055612601565b01515f1960f88460031b161c191690558a8080612c96565b6001859682939686015181550195019301612c7a565b835f52895f20601f840160051c8101918b8510612d0a575b601f0160051c01905b818110612cff57506125d1565b5f8155600101612cf2565b9091508190612ce9565b015190508a80612591565b5f8581528c81209350601f198516905b8d828210612d6c575050908460019594939210612d54575b505050811b0190556125a5565b01515f1960f88460031b161c191690558a8080612d47565b6001859682939686015181550195019301612d2f565b909150835f528a5f20601f840160051c8101918c8510612dc6575b90601f859493920160051c01905b818110612db8575061257c565b5f8155849350600101612dab565b9091508190612d9d565b015190508b80612514565b5f8581528d81209350601f198516908e5b828210612e28575050908460019594939210612e10575b505050811b019055612528565b01515f1960f88460031b161c191690558b8080612e03565b80600186978294978701518155019601940190612dec565b909150835f528b5f20601f840160051c8101918d8510612e84575b90601f859493920160051c01905b818110612e7657506124ff565b5f8155849350600101612e69565b9091508190612e5b565b015190508a806124ba565b5f8581528c81209350601f198516905b8d828210612ee6575050908460019594939210612ece575b505050811b0190556124ce565b01515f1960f88460031b161c191690558a8080612ec1565b6001859682939686015181550195019301612ea9565b909150835f528a5f20601f840160051c8101918c8510612f40575b90601f859493920160051c01905b818110612f3257506124a5565b5f8155849350600101612f25565b9091508190612f17565b015190508b8061243d565b5f8581528d81209350601f198516908e5b828210612fa2575050908460019594939210612f8a575b505050811b019055612451565b01515f1960f88460031b161c191690558b8080612f7d565b80600186978294978701518155019601940190612f66565b909150835f528b5f20601f840160051c8101918d8510612ffe575b90601f859493920160051c01905b818110612ff05750612428565b5f8155849350600101612fe3565b9091508190612fd5565b015190508a806123b8565b5f8581528c81209350601f198516905b8d828210613060575050908460019594939210613048575b505050811b0190556123cc565b01515f1960f88460031b161c191690558a808061303b565b6001859682939686015181550195019301613023565b909150835f528a5f20601f840160051c8101918c85106130ba575b90601f859493920160051c01905b8181106130ac57506123a3565b5f815584935060010161309f565b9091508190613091565b015190508a80612364565b5f8781528c81209350601f198516905b8d82821061311c575050908460019594939210613104575b505050811b018355612378565b01515f1960f88460031b161c191690558a80806130f7565b60018596829396860151815501950193016130df565b909150855f528a5f20601f840160051c8101918c8510613176575b90601f859493920160051c01905b818110613168575061234f565b5f815584935060010161315b565b909150819061314d565b60405162461bcd60e51b815260206004820152600c60248201526b24b73b30b634b21021a227a160a11b6044820152606490fd5b90506020813d6020116131e7575b816131cf60209383613e7b565b8101031261019957518015158103610199578361227a565b3d91506131c2565b34610199576020366003190112610199576004356001600160401b03811161019957602080613225613291933690600401613e9c565b604051928184925191829101835e8101600181520301902061015e613249826140d7565b91613256600182016140d7565b6132ad6132656002840161423a565b61329f61327c600d60ff600c8801541696016140d7565b9360405198899860a08a5260a08a0190614177565b9088820360208a0152614177565b9086820360408801526142db565b9160608501528382036080850152614177565b34610199576040366003190112610199576004356001600160401b038111610199576132f0903690600401613e9c565b6024356001600160401b0381116101995761330f903690600401613e9c565b60405161333b6020828180820195805191829101875e81015f838201520301601f198101835282613e7b565b51902060405160208101906431b837ba3160d91b825260058152613360602582613e7b565b5190200361341e576002604051602081845180838701835e8101600181520301902001600260ff198254161790555b602081015f5b60055481101561341c57806133ab6001926141bc565b506040516133c181610232602082018095614686565b51902060405160208101906133ee6020828951808a875e81015f838201520301601f198101835282613e7b565b519020146133fd575b01613395565b6004613408826141bc565b5001805461ff0019166102001790556133f7565b005b6002604051602081845180838701835e81018481520301902001805460ff1916600217905561338f565b34610199576020366003190112610199576004356005548110156101995761346f906141bc565b5060e061015e61347e836140d7565b9261348b600182016140d7565b613497600283016140d7565b9160ff6135076134a9600384016140d7565b6134f96004850154966134eb6134c76005878b60081c1698016140d7565b976134dd6040519d8d8f9e8f9081520190614177565b8c810360208e015290614177565b908a820360408c0152614177565b9088820360608a0152614177565b93166080860152613517816141f1565b60a085015283820360c0850152614177565b346101995760208061353a36614003565b9290604051928184925191829101835e8101600481520301902090815481101561019957610d1591614072565b346101995761357536613f01565b9161357f3361490d565b6020810161358d8151614034565b93613598855461409f565b15613da2576040830151946135b5606085019687519033906149b6565b60028201906008830181518051906001600160401b0382116108cd5781906135dd845461409f565b601f8111613d52575b50602090601f8311600114613cef575f92613ce4575b50508160011b915f199060031b1c19161790555b60208101516009840180546001600160a01b0319166001600160a01b0392909216919091179055604001518051600a8401916001600160401b0382116108cd57819061365c845461409f565b601f8111613c94575b50602090601f8311600114613c31575f92613c26575b50508160011b915f199060031b1c19161790555b600160ff19825416179055426004820155835160018201908051906001600160401b0382116108cd5781906136c4845461409f565b601f8111613bd6575b50602090601f8311600114613b73575f92613b68575b50508160011b915f199060031b1c19161790555b600b810185516001600160401b0381116108cd57613715825461409f565b601f8111613b23575b506020601f8211600114613ab757926137599282600793613793965f91613aac575b508160011b915f199060031b1c19161790555b016140d7565b9160208060ff6040519361376c85613dd9565b89855216948582850152604051928184925191829101835e81016003815203019020614538565b5f5b600554811015613a52576137a8816141bc565b506040516137be81610232602082018095614686565b51902083516040516137ef6020828180820195805191829101875e81015f838201520301601f198101835282613e7b565b51902014613800575b600101613795565b8351600161380d836141bc565b5001908051906001600160401b0382116108cd57819061382d845461409f565b601f8111613a02575b50602090601f831160011461399f575f92613994575b50508160011b915f199060031b1c19161790555b600461386b826141bc565b5001805461ff0019166101001790556005613885826141bc565b500185516001600160401b0381116108cd576138a1825461409f565b601f811161394f575b506020601f82116001146138ea57908060019493925f916138df575b505f19600383901b1c191690841b1790555b90506137f8565b90508801518a6138c6565b601f19821690835f52805f20915f5b8a828210613937575050918391600196959487941061391f575b5050811b0190556138d8565b8a01515f1960f88460031b161c191690558a80613913565b600184956020939584930151815501940192016138f9565b825f5260205f20601f830160051c8101916020841061398a575b601f0160051c01905b81811061397f57506138aa565b5f8155600101613972565b9091508190613969565b01519050898061384c565b5f8581528281209350601f198516905b8181106139ea57509084600195949392106139d2575b505050811b019055613860565b01515f1960f88460031b161c191690558980806139c5565b929360206001819287860151815501950193016139af565b909150835f5260205f20601f840160051c81019160208510613a48575b90601f859493920160051c01905b818110613a3a5750613836565b5f8155849350600101613a2d565b9091508190613a1f565b7f5f0795f9828e754b342c66dc560f8879d7982ca16fbeb97634e54f75bd39bfd7613a9385610997858a51925160405194859460a0865260a0860190614177565b9133602086015260408501528382036060850152614177565b90508a01518c613740565b601f19821690835f52805f20915f5b8a828210613b0b575050836137939693613759969360079660019410613af3575b5050811b019055613753565b8c01515f1960f88460031b161c191690558c80613ae7565b60018495602093958493015181550194019201613ac6565b825f5260205f20601f830160051c81019160208410613b5e575b601f0160051c01905b818110613b53575061371e565b5f8155600101613b46565b9091508190613b3d565b0151905089806136e3565b5f8581528281209350601f198516905b818110613bbe5750908460019594939210613ba6575b505050811b0190556136f7565b01515f1960f88460031b161c19169055898080613b99565b92936020600181928786015181550195019301613b83565b909150835f5260205f20601f840160051c81019160208510613c1c575b90601f859493920160051c01905b818110613c0e57506136cd565b5f8155849350600101613c01565b9091508190613bf3565b015190508a8061367b565b5f8581528281209350601f198516905b818110613c7c5750908460019594939210613c64575b505050811b01905561368f565b01515f1960f88460031b161c191690558a8080613c57565b92936020600181928786015181550195019301613c41565b909150835f5260205f20601f840160051c81019160208510613cda575b90601f859493920160051c01905b818110613ccc5750613665565b5f8155849350600101613cbf565b9091508190613cb1565b015190508b806135fc565b5f8581528281209350601f198516905b818110613d3a5750908460019594939210613d22575b505050811b019055613610565b01515f1960f88460031b161c191690558b8080613d15565b92936020600181928786015181550195019301613cff565b909150835f5260205f20601f840160051c81019160208510613d98575b90601f859493920160051c01905b818110613d8a57506135e6565b5f8155849350600101613d7d565b9091508190613d6f565b60405162461bcd60e51b815260206004820152600f60248201526e10d413d510881b9bdd08199bdd5b99608a1b6044820152606490fd5b604081019081106001600160401b038211176108cd57604052565b608081019081106001600160401b038211176108cd57604052565b60a081019081106001600160401b038211176108cd57604052565b606081019081106001600160401b038211176108cd57604052565b60c081019081106001600160401b038211176108cd57604052565b60e081019081106001600160401b038211176108cd57604052565b90601f801991011681019081106001600160401b038211176108cd57604052565b81601f82011215610199578035906001600160401b0382116108cd5760405192613ed0601f8401601f191660200185613e7b565b8284526020838301011161019957815f926020809301838601378301015290565b6024359060ff8216820361019957565b906060600319830112610199576004356001600160401b03811161019957608081840360031901126101995760405190613f3a82613df4565b80600401356001600160401b03811161019957846004613f5c92840101613e9c565b825260248101356001600160401b03811161019957846004613f8092840101613e9c565b602083015260448101356001600160401b03811161019957846004613fa792840101613e9c565b604083015260648101356001600160401b0381116101995760048591613fce930101613e9c565b606082015291602435906001600160401b03821161019957613ff291600401613e9c565b9060443560ff811681036101995790565b604060031982011261019957600435906001600160401b0382116101995761402d91600401613e9c565b9060243590565b60208091604051928184925191829101835e8101600181520301902090565b60208091604051928184925191829101835e8101600281520301902090565b805482101561408b575f5260205f209060011b01905f90565b634e487b7160e01b5f52603260045260245ffd5b90600182811c921680156140cd575b60208310146140b957565b634e487b7160e01b5f52602260045260245ffd5b91607f16916140ae565b9060405191825f8254926140ea8461409f565b80845293600181169081156141555750600114614111575b5061410f92500383613e7b565b565b90505f9291925260205f20905f915b81831061413957505090602061410f928201015f614102565b6020919350806001915483858901015201910190918492614120565b90506020925061410f94915060ff191682840152151560051b8201015f614102565b805180835260209291819084018484015e5f828201840152601f01601f1916010190565b9060ff6141b5602092959495604085526040850190614177565b9416910152565b60055481101561408b5760055f52600660205f20910201905f90565b805482101561408b575f52600660205f20910201905f90565b600411156109a257565b9060405161420881613e2a565b60406142356002839561421a816140d7565b855260018101546001600160a01b03166020860152016140d7565b910152565b9060405161424781613e45565b60a06142356009839560ff81541661425e816141f1565b85526001810154602086015260028101546040860152614280600382016141fb565b6060860152614291600682016141fb565b6080860152016140d7565b6142d89160406142b58351606084526060840190614177565b9260018060a01b0360208201511660208401520151906040818403910152614177565b90565b6142d89181516142ea816141f1565b8152602082015160208201526040820151604082015260a061433061431e606085015160c0606086015260c085019061429c565b6080850151848203608086015261429c565b9201519060a0818403910152614177565b9190606083820312610199576040519061435a82613e2a565b819380356001600160401b0381116101995782614378918301613e9c565b835260208101356001600160401b0381116101995782614399918301613e9c565b60208401526040810135916001600160401b038311610199576040926142359201613e9c565b9060028210156109a25752565b602081016020825282518091526040820191602060408360051b8301019401925f915b8383106143fe57505050505090565b909192939460208061449b600193603f1986820301875289519060c061446a614458614446614436865160e0875260e0870190614177565b888701518682038a880152614177565b60408601518582036040870152614177565b60608501518482036060860152614177565b9260ff608082015116608084015260a0810151614486816141f1565b60a084015201519060c0818403910152614177565b970193019301919392906143ef565b602081016020825282518091526040820191602060408360051b8301019401925f915b8383106144dc57505050505090565b9091929394602080600192603f198582030186528851908260ff8161450a8551604086526040860190614177565b94015116910152970193019301919392906144cd565b9061452a816141f1565b60ff80198354169116179055565b9190918054600160401b8110156108cd5761455891600182018155614072565b6118245782519283516001600160401b0381116108cd57614579835461409f565b601f8111614641575b506020601f82116001146145d6576001928260ff9596979360209387955f926145cb575b50505f19600383901b1c191690851b1786555b0151169201911660ff19825416179055565b015190505f806145a6565b601f19821695845f52815f20965f5b81811061462957508360ff969798602094600197948997899510614611575b505050811b0186556145b9565b01515f1960f88460031b161c191690555f8080614604565b838301518955600190980197602093840193016145e5565b835f5260205f20601f830160051c8101916020841061467c575b601f0160051c01905b8181106146715750614582565b5f8155600101614664565b909150819061465b565b5f92918154916146958361409f565b92600181169081156146dd57506001146146ae57505050565b90919293505f5260205f205f905b8382106146c95750500190565b6001816020925484860152019101906146bc565b60ff191683525050811515909102019150565b906146fa816141f1565b61ff0082549160081b169061ff001916179055565b60028210156109a25752565b6040519061472a604083613e7b565b600482526331b237b160e11b6020830152565b6040519061474a82613e2a565b60606040838281525f60208201520152565b6040519061476982613e45565b606060a0835f81525f60208201525f604082015261478561473d565b8382015261479161473d565b60808201520152565b604051906147a9604083613e7b565b600582526431b837ba3160d91b6020830152565b6001600160401b0381116108cd5760051b60200190565b604051906147e182613e60565b606060c08382815282602082015282604082015282808201525f60808201525f60a08201520152565b90614814826147bd565b6148216040519182613e7b565b8281528092614832601f19916147bd565b01905f5b82811061484257505050565b60209061484d6147d4565b82828501015201614836565b805182101561408b5760209160051b010190565b9060405161487a81613e60565b60c06142356005839561488c816140d7565b855261489a600182016140d7565b60208601526148ab600282016140d7565b60408601526148bc600382016140d7565b606086015260ff6004820154818116608088015260081c166148dd816141f1565b60a0860152016140d7565b60ff1660ff81146148f95760010190565b634e487b7160e01b5f52601160045260245ffd5b5f546040516395a8c58d60e01b81526001600160a01b039283166004820152911681604481602093600260248301525afa908115611eda575f91614954575b5015611e6b57565b90506020813d602011614987575b8161496f60209383613e7b565b8101031261019957518015158103610199575f61494c565b3d9150614962565b9061499861473d565b50604051916149a683613e2a565b82525f6020830152604082015290565b91906149c061473d565b50604051926149ce84613e2a565b83526001600160a01b03166020830152604082015290565b906149ef61475c565b50604051916149fd83613e45565b5f83524260208401525f604084015260608301526080820152604051614a24602082613e7b565b5f815260a082015290565b93909160ff9392614a3e6147d4565b5060405195614a4c87613e60565b86526020860152604085015260608401521660808201525f60a0820152604051614a77602082613e7b565b5f815260c082015290565b5f90604051614ab06020828180820195805191829101875e81015f838201520301601f198101835282613e7b565b519020600554905f5b828110614ac65750505090565b816003610232614ad861021e856141bc565b51902014614ae9575b600101614ab9565b92614af56001916148e8565b939050614ae156fea26469706673582212209379c68a9b3cc93cce177460e31ee300c405d40b58ee1138691379311b0b7c3b64736f6c634300081b0033",
  "linkReferences": {},
  "deployedLinkReferences": {}
}