{
  "_format": "hh-sol-artifact-1",
  "contractName": "MainSupplyChain",
  "sourceName": "contracts/MainSupplyChain.sol",
  "abi": [
    {
      "inputs": [
        {
          "internalType": "address",
          "name": "_roleManagerAddr",
          "type": "address"
        }
      ],
      "stateMutability": "nonpayable",
      "type": "constructor"
    },
    {
      "anonymous": false,
      "inputs": [
        {
          "indexed": false,
          "internalType": "address",
          "name": "userAddr",
          "type": "address"
        },
        {
          "indexed": false,
          "internalType": "string",
          "name": "name",
          "type": "string"
        },
        {
          "indexed": false,
          "internalType": "string",
          "name": "instanceName",
          "type": "string"
        },
        {
          "indexed": false,
          "internalType": "uint8",
          "name": "role",
          "type": "uint8"
        }
      ],
      "name": "evt_UserRegistered",
      "type": "event"
    },
    {
      "anonymous": false,
      "inputs": [
        {
          "indexed": false,
          "internalType": "address",
          "name": "bpomAddr",
          "type": "address"
        },
        {
          "indexed": false,
          "internalType": "string",
          "name": "receiverName",
          "type": "string"
        },
        {
          "indexed": false,
          "internalType": "string",
          "name": "pbfName",
          "type": "string"
        },
        {
          "indexed": false,
          "internalType": "string",
          "name": "cdobNumber",
          "type": "string"
        },
        {
          "indexed": false,
          "internalType": "uint256",
          "name": "timestampApprove",
          "type": "uint256"
        }
      ],
      "name": "evt_cdobApptoved",
      "type": "event"
    },
    {
      "anonymous": false,
      "inputs": [
        {
          "indexed": false,
          "internalType": "string",
          "name": "senderName",
          "type": "string"
        },
        {
          "indexed": false,
          "internalType": "address",
          "name": "pbfAddr",
          "type": "address"
        },
        {
          "indexed": false,
          "internalType": "string",
          "name": "pbfName",
          "type": "string"
        },
        {
          "indexed": false,
          "internalType": "enum MainSupplyChain.en_tipePermohonan",
          "name": "tipePermohonan",
          "type": "uint8"
        },
        {
          "indexed": false,
          "internalType": "string",
          "name": "cdobId",
          "type": "string"
        },
        {
          "indexed": false,
          "internalType": "uint256",
          "name": "timestampRequest",
          "type": "uint256"
        }
      ],
      "name": "evt_cdobRequested",
      "type": "event"
    },
    {
      "anonymous": false,
      "inputs": [
        {
          "indexed": false,
          "internalType": "address",
          "name": "bpomAddr",
          "type": "address"
        },
        {
          "indexed": false,
          "internalType": "string",
          "name": "receiverName",
          "type": "string"
        },
        {
          "indexed": false,
          "internalType": "string",
          "name": "factoryName",
          "type": "string"
        },
        {
          "indexed": false,
          "internalType": "string",
          "name": "cpotbNumber",
          "type": "string"
        },
        {
          "indexed": false,
          "internalType": "uint256",
          "name": "timestampApprove",
          "type": "uint256"
        }
      ],
      "name": "evt_cpotbApproved",
      "type": "event"
    },
    {
      "anonymous": false,
      "inputs": [
        {
          "indexed": false,
          "internalType": "string",
          "name": "senderName",
          "type": "string"
        },
        {
          "indexed": false,
          "internalType": "address",
          "name": "factoryAddr",
          "type": "address"
        },
        {
          "indexed": false,
          "internalType": "string",
          "name": "factoryName",
          "type": "string"
        },
        {
          "indexed": false,
          "internalType": "enum MainSupplyChain.en_jenisSediaan",
          "name": "jenisSediaan",
          "type": "uint8"
        },
        {
          "indexed": false,
          "internalType": "string",
          "name": "cpotbId",
          "type": "string"
        },
        {
          "indexed": false,
          "internalType": "uint256",
          "name": "timestampRequest",
          "type": "uint256"
        }
      ],
      "name": "evt_cpotbRequested",
      "type": "event"
    },
    {
      "inputs": [
        {
          "internalType": "uint256",
          "name": "",
          "type": "uint256"
        }
      ],
      "name": "allCdobData",
      "outputs": [
        {
          "internalType": "string",
          "name": "cdobId",
          "type": "string"
        },
        {
          "internalType": "string",
          "name": "senderName",
          "type": "string"
        },
        {
          "internalType": "address",
          "name": "pbfAddr",
          "type": "address"
        },
        {
          "internalType": "string",
          "name": "pbfName",
          "type": "string"
        },
        {
          "internalType": "enum MainSupplyChain.en_tipePermohonan",
          "name": "tipePermohonan",
          "type": "uint8"
        },
        {
          "internalType": "enum MainSupplyChain.en_statusCert",
          "name": "status",
          "type": "uint8"
        },
        {
          "internalType": "uint256",
          "name": "timestampRequest",
          "type": "uint256"
        },
        {
          "internalType": "uint256",
          "name": "timestampApprove",
          "type": "uint256"
        },
        {
          "internalType": "string",
          "name": "cdobNumber",
          "type": "string"
        },
        {
          "internalType": "address",
          "name": "bpomAddr",
          "type": "address"
        },
        {
          "internalType": "string",
          "name": "receiverName",
          "type": "string"
        }
      ],
      "stateMutability": "view",
      "type": "function"
    },
    {
      "inputs": [
        {
          "internalType": "uint256",
          "name": "",
          "type": "uint256"
        }
      ],
      "name": "allCpotbData",
      "outputs": [
        {
          "internalType": "string",
          "name": "cpotbId",
          "type": "string"
        },
        {
          "internalType": "string",
          "name": "senderName",
          "type": "string"
        },
        {
          "internalType": "address",
          "name": "factoryAddr",
          "type": "address"
        },
        {
          "internalType": "string",
          "name": "factoryName",
          "type": "string"
        },
        {
          "internalType": "enum MainSupplyChain.en_jenisSediaan",
          "name": "jenisSediaan",
          "type": "uint8"
        },
        {
          "internalType": "enum MainSupplyChain.en_statusCert",
          "name": "status",
          "type": "uint8"
        },
        {
          "internalType": "uint256",
          "name": "timestampRequest",
          "type": "uint256"
        },
        {
          "internalType": "uint256",
          "name": "timestampApprove",
          "type": "uint256"
        },
        {
          "internalType": "string",
          "name": "cpotbNumber",
          "type": "string"
        },
        {
          "internalType": "address",
          "name": "bpomAddr",
          "type": "address"
        },
        {
          "internalType": "string",
          "name": "receiverName",
          "type": "string"
        }
      ],
      "stateMutability": "view",
      "type": "function"
    },
    {
      "inputs": [
        {
          "internalType": "string",
          "name": "_cdobId",
          "type": "string"
        },
        {
          "internalType": "string",
          "name": "_cdobNumber",
          "type": "string"
        },
        {
          "internalType": "string",
          "name": "_receiverName",
          "type": "string"
        }
      ],
      "name": "approveCdob",
      "outputs": [],
      "stateMutability": "nonpayable",
      "type": "function"
    },
    {
      "inputs": [
        {
          "internalType": "string",
          "name": "_cpotbId",
          "type": "string"
        },
        {
          "internalType": "string",
          "name": "_cpotbNumber",
          "type": "string"
        },
        {
          "internalType": "string",
          "name": "_receiverName",
          "type": "string"
        }
      ],
      "name": "approveCpotb",
      "outputs": [],
      "stateMutability": "nonpayable",
      "type": "function"
    },
    {
      "inputs": [
        {
          "internalType": "string",
          "name": "",
          "type": "string"
        }
      ],
      "name": "cpotbDataById",
      "outputs": [
        {
          "internalType": "string",
          "name": "cpotbId",
          "type": "string"
        },
        {
          "internalType": "string",
          "name": "senderName",
          "type": "string"
        },
        {
          "internalType": "address",
          "name": "factoryAddr",
          "type": "address"
        },
        {
          "internalType": "string",
          "name": "factoryName",
          "type": "string"
        },
        {
          "internalType": "enum MainSupplyChain.en_jenisSediaan",
          "name": "jenisSediaan",
          "type": "uint8"
        },
        {
          "internalType": "enum MainSupplyChain.en_statusCert",
          "name": "status",
          "type": "uint8"
        },
        {
          "internalType": "uint256",
          "name": "timestampRequest",
          "type": "uint256"
        },
        {
          "internalType": "uint256",
          "name": "timestampApprove",
          "type": "uint256"
        },
        {
          "internalType": "string",
          "name": "cpotbNumber",
          "type": "string"
        },
        {
          "internalType": "address",
          "name": "bpomAddr",
          "type": "address"
        },
        {
          "internalType": "string",
          "name": "receiverName",
          "type": "string"
        }
      ],
      "stateMutability": "view",
      "type": "function"
    },
    {
      "inputs": [
        {
          "internalType": "string",
          "name": "",
          "type": "string"
        }
      ],
      "name": "cpotbJenisSediaan",
      "outputs": [
        {
          "internalType": "enum MainSupplyChain.en_jenisSediaan",
          "name": "",
          "type": "uint8"
        }
      ],
      "stateMutability": "view",
      "type": "function"
    },
    {
      "inputs": [],
      "name": "getListAllCdob",
      "outputs": [
        {
          "internalType": "uint8[]",
          "name": "",
          "type": "uint8[]"
        },
        {
          "internalType": "string[]",
          "name": "",
          "type": "string[]"
        },
        {
          "internalType": "uint8[]",
          "name": "",
          "type": "uint8[]"
        },
        {
          "internalType": "uint256[]",
          "name": "",
          "type": "uint256[]"
        },
        {
          "internalType": "string[]",
          "name": "",
          "type": "string[]"
        }
      ],
      "stateMutability": "view",
      "type": "function"
    },
    {
      "inputs": [],
      "name": "getListAllCpotb",
      "outputs": [
        {
          "internalType": "uint8[]",
          "name": "",
          "type": "uint8[]"
        },
        {
          "internalType": "string[]",
          "name": "",
          "type": "string[]"
        },
        {
          "internalType": "uint8[]",
          "name": "",
          "type": "uint8[]"
        },
        {
          "internalType": "uint256[]",
          "name": "",
          "type": "uint256[]"
        },
        {
          "internalType": "string[]",
          "name": "",
          "type": "string[]"
        }
      ],
      "stateMutability": "view",
      "type": "function"
    },
    {
      "inputs": [
        {
          "internalType": "string",
          "name": "_cdobId",
          "type": "string"
        }
      ],
      "name": "getListCdobById",
      "outputs": [
        {
          "components": [
            {
              "internalType": "string",
              "name": "cdobId",
              "type": "string"
            },
            {
              "internalType": "string",
              "name": "senderName",
              "type": "string"
            },
            {
              "internalType": "address",
              "name": "pbfAddr",
              "type": "address"
            },
            {
              "internalType": "string",
              "name": "pbfName",
              "type": "string"
            },
            {
              "internalType": "enum MainSupplyChain.en_tipePermohonan",
              "name": "tipePermohonan",
              "type": "uint8"
            },
            {
              "internalType": "enum MainSupplyChain.en_statusCert",
              "name": "status",
              "type": "uint8"
            },
            {
              "internalType": "uint256",
              "name": "timestampRequest",
              "type": "uint256"
            },
            {
              "internalType": "uint256",
              "name": "timestampApprove",
              "type": "uint256"
            },
            {
              "internalType": "string",
              "name": "cdobNumber",
              "type": "string"
            },
            {
              "internalType": "address",
              "name": "bpomAddr",
              "type": "address"
            },
            {
              "internalType": "string",
              "name": "receiverName",
              "type": "string"
            }
          ],
          "internalType": "struct MainSupplyChain.st_cdobData",
          "name": "",
          "type": "tuple"
        }
      ],
      "stateMutability": "view",
      "type": "function"
    },
    {
      "inputs": [
        {
          "internalType": "string",
          "name": "_instanceName",
          "type": "string"
        }
      ],
      "name": "getListCdobByPbf",
      "outputs": [
        {
          "internalType": "uint8[]",
          "name": "",
          "type": "uint8[]"
        },
        {
          "internalType": "uint8[]",
          "name": "",
          "type": "uint8[]"
        },
        {
          "internalType": "uint256[]",
          "name": "",
          "type": "uint256[]"
        },
        {
          "internalType": "string[]",
          "name": "",
          "type": "string[]"
        }
      ],
      "stateMutability": "view",
      "type": "function"
    },
    {
      "inputs": [
        {
          "internalType": "string",
          "name": "_instanceName",
          "type": "string"
        }
      ],
      "name": "getListCpotbByFactory",
      "outputs": [
        {
          "internalType": "uint8[]",
          "name": "",
          "type": "uint8[]"
        },
        {
          "internalType": "uint8[]",
          "name": "",
          "type": "uint8[]"
        },
        {
          "internalType": "uint256[]",
          "name": "",
          "type": "uint256[]"
        },
        {
          "internalType": "string[]",
          "name": "",
          "type": "string[]"
        }
      ],
      "stateMutability": "view",
      "type": "function"
    },
    {
      "inputs": [
        {
          "internalType": "string",
          "name": "_cpotbId",
          "type": "string"
        }
      ],
      "name": "getListCpotbById",
      "outputs": [
        {
          "components": [
            {
              "internalType": "string",
              "name": "cpotbId",
              "type": "string"
            },
            {
              "internalType": "string",
              "name": "senderName",
              "type": "string"
            },
            {
              "internalType": "address",
              "name": "factoryAddr",
              "type": "address"
            },
            {
              "internalType": "string",
              "name": "factoryName",
              "type": "string"
            },
            {
              "internalType": "enum MainSupplyChain.en_jenisSediaan",
              "name": "jenisSediaan",
              "type": "uint8"
            },
            {
              "internalType": "enum MainSupplyChain.en_statusCert",
              "name": "status",
              "type": "uint8"
            },
            {
              "internalType": "uint256",
              "name": "timestampRequest",
              "type": "uint256"
            },
            {
              "internalType": "uint256",
              "name": "timestampApprove",
              "type": "uint256"
            },
            {
              "internalType": "string",
              "name": "cpotbNumber",
              "type": "string"
            },
            {
              "internalType": "address",
              "name": "bpomAddr",
              "type": "address"
            },
            {
              "internalType": "string",
              "name": "receiverName",
              "type": "string"
            }
          ],
          "internalType": "struct MainSupplyChain.st_cpotbData",
          "name": "",
          "type": "tuple"
        }
      ],
      "stateMutability": "view",
      "type": "function"
    },
    {
      "inputs": [
        {
          "internalType": "address",
          "name": "_userAddr",
          "type": "address"
        }
      ],
      "name": "getRegisteredUser",
      "outputs": [
        {
          "internalType": "address",
          "name": "",
          "type": "address"
        },
        {
          "internalType": "string",
          "name": "",
          "type": "string"
        },
        {
          "internalType": "string",
          "name": "",
          "type": "string"
        },
        {
          "internalType": "uint8",
          "name": "",
          "type": "uint8"
        }
      ],
      "stateMutability": "view",
      "type": "function"
    },
    {
      "inputs": [
        {
          "internalType": "string",
          "name": "_factoryName",
          "type": "string"
        }
      ],
      "name": "hasApprovedCpotb",
      "outputs": [
        {
          "internalType": "uint8[]",
          "name": "",
          "type": "uint8[]"
        }
      ],
      "stateMutability": "view",
      "type": "function"
    },
    {
      "inputs": [
        {
          "internalType": "string",
          "name": "_name",
          "type": "string"
        },
        {
          "internalType": "string",
          "name": "_instanceName",
          "type": "string"
        },
        {
          "internalType": "address",
          "name": "_userAddr",
          "type": "address"
        },
        {
          "internalType": "uint8",
          "name": "_userRole",
          "type": "uint8"
        }
      ],
      "name": "registerUser",
      "outputs": [],
      "stateMutability": "nonpayable",
      "type": "function"
    },
    {
      "inputs": [
        {
          "internalType": "string",
          "name": "_instanceName",
          "type": "string"
        },
        {
          "internalType": "string",
          "name": "_cdobId",
          "type": "string"
        },
        {
          "internalType": "string",
          "name": "_senderName",
          "type": "string"
        },
        {
          "internalType": "enum MainSupplyChain.en_tipePermohonan",
          "name": "_tipePermohonan",
          "type": "uint8"
        }
      ],
      "name": "requestCdob",
      "outputs": [],
      "stateMutability": "nonpayable",
      "type": "function"
    },
    {
      "inputs": [
        {
          "internalType": "string",
          "name": "_instanceName",
          "type": "string"
        },
        {
          "internalType": "string",
          "name": "_cpotbId",
          "type": "string"
        },
        {
          "internalType": "string",
          "name": "_senderName",
          "type": "string"
        },
        {
          "internalType": "uint8",
          "name": "_jenisSediaan",
          "type": "uint8"
        }
      ],
      "name": "requestCpotb",
      "outputs": [],
      "stateMutability": "nonpayable",
      "type": "function"
    }
  ],
  "bytecode": "0x608034607057601f613d2338819003918201601f19168301916001600160401b03831184841017607557808492602094604052833981010312607057516001600160a01b03811690819003607057600080546001600160a01b031916919091179055604051613c97908161008c8239f35b600080fd5b634e487b7160e01b600052604160045260246000fdfe6080604052600436101561001257600080fd5b6000803560e01c806304d18438146124bd578063073a4cf814611f1557806314fd887414611cf2578063402a124914611c2157806343762aa814611a9a57806344d78f7114611a465780636aa81299146119e15780637c4535e01461176a578063b0cca61e146114bc578063c5f455b414611276578063cec1fc1e14611123578063d123367214610d47578063e54a29bb14610b5d578063ec176587146109d5578063ef013be314610359578063f02f5f23146102615763fbe9a68e146100d857600080fd5b3461025e57602036600319011261025e57600435906001600160401b03821161025e5761025a610171610162602061011336600488016126c8565b61011b612d80565b506040519061015161014a82519385818186019661013a81838a6127f9565b8101600281520301902054612956565b1515612f25565b6040519384928392519283916127f9565b81016002815203019020612de3565b604051918291602083526101406102326101e06101b561019f855161016060208a015261018089019061281c565b6020860151888203601f190160408a015261281c565b60408501516001600160a01b0316606088810191909152850151878203601f1901608089015261281c565b6101f2608085015160a0880190612a13565b60a0840151610200816128e2565b60c087015260c084015160e087015260e0840151610100870152610100840151601f198783030161012088015261281c565b6101208301516001600160a01b031685830152910151838203601f190161016085015261281c565b0390f35b80fd5b503461025e57602036600319011261025e576004356005548110156103555761028990612902565b50604051906102a38261029c8184612990565b03836126a7565b61025a6009604051926102c4846102bd8160018501612990565b03856126a7565b60028101546040516001600160a01b03909116956102e98261029c8160038701612990565b6004830154600584015490600685015492604051946103168661030f8160078b01612990565b03876126a7565b61033e60018060a01b0360088901541697610337604051809b819301612990565b03896126a7565b6040519a8b9a60ff808660081c169516938c612a20565b5080fd5b503461025e576103683661275a565b83546040516395a8c58d60e01b8152336004820152600260248201529394919391929190602090829060449082906001600160a01b03165afa9081156109ca57906103ba91849161099b575b50612c7b565b60405192845193602081818801966103d381838a6127f9565b810160038152030190209460048601610100815461040060ff8260081c166103fa816128e2565b15612cc7565b61ff0019161790556007860183516001600160401b038111610806576104268254612956565b601f8111610956575b50806020601f82116001146108f55787916108ea575b508160011b916000199060031b1c19161790555b4260068701556008860180546001600160a01b03191633179055815160098701906001600160401b038111610806576104928254612956565b601f81116108a5575b50806020601f8211600114610844578791610839575b508160011b916000199060031b1c19161790555b835b60065481101561081a576104da81612937565b506040516104fe816104f0602082018095612b73565b03601f1981018352826126a7565b519020604051602081019061052f6020828461051e8d8a519283916127f9565b81010301601f1981018352826126a7565b5190201461053f576001016104c7565b919293945050600461055082612937565b5001805461ff001916610100179055600761056a82612937565b500183516001600160401b038111610806576105868254612956565b601f81116107c1575b506020601f821160011461075a579181600994926105f494899161074f575b508160011b916000199060031b1c19161790555b6105cb81612937565b5060064291015560086105dd82612937565b500180546001600160a01b03191633179055612937565b5001938151946001600160401b03861161073b576106128154612956565b601f81116106f6575b50602095601f811160011461068157908161067093928798600080516020613c428339815191529891610676575b508160011b916000199060031b1c19161790555b6040519384936003429301903386612d32565b0390a180f35b905085015138610649565b81865286862096601f198216875b8181106106de575091600080516020613c42833981519152979860019282610670979695106106c5575b5050811b01905561065d565b87015160001960f88460031b161c1916905538806106b9565b868301518a556001909901986020928301920161068f565b81865260208620601f880160051c81019160208910610731575b601f0160051c01905b818110610726575061061b565b868155600101610719565b9091508190610710565b634e487b7160e01b85526041600452602485fd5b9050870151386105ae565b82875280872090601f198316885b8181106107a95750926105f49492600192826009989610610790575b5050811b0190556105c2565b89015160001960f88460031b161c191690553880610784565b9192602060018192868c015181550194019201610768565b82875260208720601f830160051c810191602084106107fc575b601f0160051c01905b8181106107f1575061058f565b8781556001016107e4565b90915081906107db565b634e487b7160e01b86526041600452602486fd5b5050909193600080516020613c4283398151915293506106709061065d565b9050840151386104b1565b8388528088209150601f198316885b81811061088d57509083600194939210610874575b5050811b0190556104c5565b86015160001960f88460031b161c191690553880610868565b9192602060018192868b015181550194019201610853565b82875260208720601f830160051c810191602084106108e0575b601f0160051c01905b8181106108d5575061049b565b8781556001016108c8565b90915081906108bf565b905085015138610445565b8388528088209150601f198316885b81811061093e57509083600194939210610925575b5050811b019055610459565b87015160001960f88460031b161c191690553880610919565b9192602060018192868c015181550194019201610904565b82875260208720601f830160051c81019160208410610991575b601f0160051c01905b818110610986575061042f565b878155600101610979565b9091508190610970565b6109bd915060203d6020116109c3575b6109b581836126a7565b810190612c63565b386103b4565b503d6109ab565b6040513d85823e3d90fd5b503461025e578060031936011261025e576005546109f281612c1d565b6109fb82612edb565b610a0483612edb565b92610a0e81612c1d565b610a1782612c1d565b91865b818110610a355750509061025a929160405195869586612ad7565b60ff6004610a4283612902565b500154166009811015610b495790600191610a5d8289612c4f565b5260ff6004610a6b83612902565b50015460081c16610a7b816128e2565b610a858286612c4f565b526003610aac610a9483612902565b50610aa56040518094819301612990565b03826126a7565b610ab6828a612c4f565b52610ac18189612c4f565b50610aa5610ade610ad183612902565b5060405192838092612990565b610ae88288612c4f565b52610af38187612c4f565b506006610aff82612902565b5001546005610b0d83612902565b5001541015610b36576006610b2182612902565b5001545b610b2f8287612c4f565b5201610a1a565b6005610b4182612902565b500154610b25565b634e487b7160e01b89526021600452602489fd5b503461025e57602036600319011261025e576004356001600160a01b0381169081900361035557815460405163e2a4128360e01b8152600481018390526001600160a01b0390911690602081602481855afa908115610d3c578491610d1d575b5015610cdf578183526001602052604083209260405192610bdd8461268c565b604051610bee81610aa58189612990565b8452602060405195610c0e87610c078160018501612990565b03886126a7565b858201968752600201546001600160a01b0316604080870191825251634427673360e01b815260048101939093529193849060249082905afa928315610cd4578293610c97575b5051925193516001600160a01b0390931692906004831015610c8357509061025a9160405194859485612b32565b634e487b7160e01b81526021600452602490fd5b9092506020813d602011610ccc575b81610cb3602093836126a7565b8101031261035557516004811015610355579138610c55565b3d9150610ca6565b6040513d84823e3d90fd5b60405162461bcd60e51b8152602060048201526016602482015275155cd95c881a5cc81b9bdd081c9959da5cdd195c995960521b6044820152606490fd5b610d36915060203d6020116109c3576109b581836126a7565b38610bbd565b6040513d86823e3d90fd5b503461025e57608036600319011261025e576004356001600160401b03811161035557610d789036906004016126c8565b906024356001600160401b03811161035557610d989036906004016126c8565b916044356001600160a01b03811680820361111f57610db5612ac7565b604051610dc18161268c565b84815260208101878152604082019084825284885260016020526040882092518051906001600160401b03821161104d578190610dfe8654612956565b601f81116110cf575b50602090601f831160011461106c578b92611061575b50508160011b916000199060031b1c19161783555b51805160018401916001600160401b03821161104d57610e528354612956565b601f8111611008575b50602090601f8311600114610f9d5791806002949260ff989796948d92610f92575b50508160011b916000199060031b1c19161790555b51910180546001600160a01b0319166001600160a01b039290921691909117905516906004821015610f7e5784546001600160a01b031690813b15610f7a57859160448392604051948593849263630a195b60e01b845260048401528760248401525af18015610f6f57610f37575b506106709084957f93b86cf0a1d8e18e724e08d47f7248859de317795be109ec2495f6fc7445b4e9955060405194859485612b32565b9084610f677f93b86cf0a1d8e18e724e08d47f7248859de317795be109ec2495f6fc7445b4e996610670946126a7565b945090610f01565b6040513d87823e3d90fd5b8580fd5b634e487b7160e01b85526021600452602485fd5b015190503880610e7d565b838b52818b209190601f1984168c5b818110610ff0575092600192859260ff9a9998966002989610610fd7575b505050811b019055610e92565b015160001960f88460031b161c19169055388080610fca565b92936020600181928786015181550195019301610fac565b838b5260208b20601f840160051c81019160208510611043575b601f0160051c01905b8181106110385750610e5b565b8b815560010161102b565b9091508190611022565b634e487b7160e01b8a52604160045260248afd5b015190503880610e1d565b868c52818c209250601f1984168c5b8181106110b7575090846001959493921061109e575b505050811b018355610e32565b015160001960f88460031b161c19169055388080611091565b9293602060018192878601518155019501930161107b565b909150858b5260208b20601f840160051c81019160208510611115575b90601f859493920160051c01905b8181106111075750610e07565b8c81558493506001016110fa565b90915081906110ec565b8380fd5b503461025e578060031936011261025e576006549061114182612c1d565b9061114b83612edb565b9061115584612edb565b9361115f81612c1d565b9061116981612c1d565b92805b828110611188575050509061025a929160405195869586612ad7565b8060ff6004611198600194612937565b500154166111a5816128e2565b6111af828a612c4f565b5260ff60046111bd83612937565b50015460081c166111cd816128e2565b6111d78287612c4f565b5260036111e6610a9483612937565b6111f0828b612c4f565b526111fb818a612c4f565b50610aa561120b610ad183612937565b6112158289612c4f565b526112208188612c4f565b50600661122c82612937565b500154600561123a83612937565b500154101561126357600661124e82612937565b5001545b61125c8288612c4f565b520161116c565b600561126e82612937565b500154611252565b503461025e57602036600319011261025e576004356001600160401b038111610355576112a79036906004016126c8565b6006546112b381612c06565b906112c160405192836126a7565b808252601f196112d082612c06565b01845b8181106114a557505083928460208201905b83811061141557505050506112f982612c1d565b9061130383612edb565b9061130d84612c1d565b9361131781612c1d565b91865b828110611335575050509061025a916040519485948561289a565b80608061134460019385612c4f565b510151611350816128e2565b611359816128e2565b60ff611365838a612c4f565b9116905260a06113758285612c4f565b510151611381816128e2565b61138a816128e2565b60ff611396838b612c4f565b911690526113a48184612c4f565b51516113b08288612c4f565b526113bb8187612c4f565b5060e06113c88285612c4f565b51015160c06113d78386612c4f565b51015110156114015760e06113ec8285612c4f565b5101515b6113fa8287612c4f565b520161131a565b60c061140d8285612c4f565b5101516113f0565b60036104f061143a61142684612937565b506040519283916020830195869101612b73565b5190206040516020810190611458602082885161051e81878b6127f9565b51902014611469575b6001016112e5565b9461149d60019161148261147c89612937565b50612f71565b61148c8289612c4f565b526114978188612c4f565b50612be1565b959050611461565b6020906114b0612d80565b828287010152016112d3565b503461025e57608036600319011261025e576004356001600160401b038111610355576114ed9036906004016126c8565b6024356001600160401b0381116117665761150c9036906004016126c8565b906044356001600160401b03811161111f5761152c9036906004016126c8565b916064359160028310156117625784546040516395a8c58d60e01b81523360048201526001602482015290602090829060449082906001600160a01b03165afa908115611757578691611738575b50156116f3576040519061158d8261265a565b8282528460208301523360408301528060608301526115ab846128e2565b8360808301528560a08301524260c08301528560e08301526020916040516115d384826126a7565b878152610100820152866101208201526040516115f084826126a7565b87815261014082015261162081604051858188516116118183858d016127f9565b81016003815203019020613645565b600654600160401b8110156116df5780600161163f9201600655612937565b6116cb576116bf93611690969361167c7f52826c7f34a2ea38d95f47a905bbcd35442ec287a05b31513f7b71bf968b0a349997946116a394613645565b60405197889760c0895260c089019061281c565b913390880152868203604088015261281c565b916116ad816128e2565b6060850152838203608085015261281c565b4260a08301520390a180f35b634e487b7160e01b88526004889052602488fd5b634e487b7160e01b88526041600452602488fd5b60405162461bcd60e51b815260206004820152601d60248201527f416363657373207265737472696374656420746f2050424620726f6c650000006044820152606490fd5b611751915060203d6020116109c3576109b581836126a7565b3861157a565b6040513d88823e3d90fd5b8480fd5b8280fd5b503461025e57608036600319011261025e576004356001600160401b0381116103555761179b9036906004016126c8565b6024356001600160401b038111611766576117ba9036906004016126c8565b906044356001600160401b03811161111f576117da9036906004016126c8565b916117e3612ac7565b84546040516395a8c58d60e01b81523360048201526024810187905290602090829060449082906001600160a01b03165afa9081156117575786916119c2575b50156119735760ff16916009831015610f7e57604051906118438261265a565b8282528460208301523360408301528060608301526118658460808401612dd7565b600160a08301524260c08301528560e083015260209160405161188884826126a7565b878152610100820152866101208201526040516118a584826126a7565b8781526101408201526118d581604051858188516118c68183858d016127f9565b81016002815203019020613007565b600554600160401b8110156116df578060016118f49201600555612902565b6116cb5761195b6116bf9461194897946119347fe9b311c837d257b1f6982c63cbb418abca3880b67545d8ea67adc97e6626ef1e9a989561196695613007565b60405198899860c08a5260c08a019061281c565b913390890152878203604089015261281c565b926060860190612a13565b838203608085015261281c565b60405162461bcd60e51b815260206004820152602160248201527f416363657373207265737472696374656420746f20466163746f727920726f6c6044820152606560f81b6064820152608490fd5b6119db915060203d6020116109c3576109b581836126a7565b38611823565b503461025e57602036600319011261025e57600435906001600160401b03821161025e57611a2a6020611a1736600486016126c8565b81604051938285809451938492016127f9565b81016002815203019020604051906102a38261029c8184612990565b503461025e57602036600319011261025e57600435906001600160401b03821161025e57602060ff611a7f82611a1736600488016126c8565b810160048152030190205416611a986040518092612a13565bf35b503461025e57602036600319011261025e5760043560065481101561035557611ac290612937565b5060405180611ad18184612990565b03611adc90826126a7565b6040519182611aee8160018401612990565b03611af990846126a7565b60028101546040516001600160a01b039091169080611b1b8160038601612990565b03611b2690826126a7565b600483015460ff81169060081c60ff16600585015460068601549160405194858060078a0190611b5591612990565b03611b6090876126a7565b600160a01b6001900360088901541696604051806009819b0190611b8391612990565b03611b8e908a6126a7565b6040519a8b9a6101608c526101608c01611ba79161281c565b8b810360208d0152611bb89161281c565b9060408b015289810360608b0152611bcf9161281c565b93611bd9816128e2565b6080890152611be7816128e2565b60a088015260c087015260e0860152848103610100860152611c089161281c565b9061012084015282810361014084015261025a9161281c565b503461025e57602036600319011261025e57600435906001600160401b03821161025e5761025a611ca3611c946020611c5d36600488016126c8565b611c65612d80565b506040519061015161014a825193858181860196611c8481838a6127f9565b8101600381520301902054612956565b81016003815203019020612f71565b60405191829160208352610140610232611cd16101b561019f855161016060208a015261018089019061281c565b6080840151611cdf816128e2565b60a087015260a0840151610200816128e2565b503461025e57602036600319011261025e576004356001600160401b03811161035557611d239036906004016126c8565b9060055490611d3182612c06565b91611d3f60405193846126a7565b808352601f19611d4e82612c06565b01825b818110611efe57505081938260208201905b838110611e885750505050611d7783612c1d565b91611d8184612edb565b91611d8b85612c1d565b94611d9581612c1d565b92825b828110611db0576040518061025a88888c8c8561289a565b6080611dbc8284612c4f565b5101516009811015610f7e579060019160ff611dd8838b612c4f565b9116905260a0611de88285612c4f565b510151611df4816128e2565b611dfd816128e2565b60ff611e09838c612c4f565b91169052611e178184612c4f565b5151611e238289612c4f565b52611e2e8188612c4f565b5060e0611e3b8285612c4f565b51015160c0611e4a8386612c4f565b5101511015611e745760e0611e5f8285612c4f565b5101515b611e6d8288612c4f565b5201611d98565b60c0611e808285612c4f565b510151611e63565b60036104f0611e9961142684612902565b5190206040516020810190611eb7602082885161051e81878b6127f9565b51902014611ec8575b600101611d63565b95611ef6600191611ee1611edb8a612902565b50612de3565b611eeb828a612c4f565b526114978189612c4f565b969050611ec0565b602090611f09612d80565b82828801015201611d51565b503461025e57611f243661275a565b83546040516395a8c58d60e01b8152336004820152600260248201529394919391929190602090829060449082906001600160a01b03165afa9081156109ca5790611f7591849161099b5750612c7b565b6040519284519360208181880196611f8e81838a6127f9565b8101600281520301902094600486016101008154611fb560ff8260081c166103fa816128e2565b61ff0019161790556007860183516001600160401b03811161080657611fdb8254612956565b601f8111612478575b50806020601f821160011461241757879161240c575b508160011b916000199060031b1c19161790555b4260068701556008860180546001600160a01b03191633179055815160098701906001600160401b038111610806576120478254612956565b601f81116123c7575b50806020601f821160011461236657879161235b575b508160011b916000199060031b1c19161790555b835b60055481101561081a5761208f81612902565b506040516120a5816104f0602082018095612b73565b51902060405160208101906120c56020828461051e8d8a519283916127f9565b519020146120d55760010161207c565b91929394505060046120e682612902565b5001805461ff001916610100179055600761210082612902565b500183516001600160401b0381116108065761211c8254612956565b601f8111612316575b506020601f82116001146122af5791816009949261218a9489916122a4575b508160011b916000199060031b1c19161790555b61216181612902565b50600642910155600861217382612902565b500180546001600160a01b03191633179055612902565b5001938151946001600160401b03861161073b576121a88154612956565b601f811161225f575b50602095601f811160011461220457908161067093928798600080516020613c42833981519152989161067657508160011b916000199060031b1c19161790556040519384936003429301903386612d32565b81865286862096601f198216875b818110612247575091600080516020613c42833981519152979860019282610670979695106106c5575050811b01905561065d565b868301518a5560019099019860209283019201612212565b81865260208620601f880160051c8101916020891061229a575b601f0160051c01905b81811061228f57506121b1565b868155600101612282565b9091508190612279565b905087015138612144565b82875280872090601f198316885b8181106122fe57509261218a94926001928260099896106122e5575b5050811b019055612158565b89015160001960f88460031b161c1916905538806122d9565b9192602060018192868c0151815501940192016122bd565b82875260208720601f830160051c81019160208410612351575b601f0160051c01905b8181106123465750612125565b878155600101612339565b9091508190612330565b905084015138612066565b8388528088209150601f198316885b8181106123af57509083600194939210612396575b5050811b01905561207a565b86015160001960f88460031b161c19169055388061238a565b9192602060018192868b015181550194019201612375565b82875260208720601f830160051c81019160208410612402575b601f0160051c01905b8181106123f75750612050565b8781556001016123ea565b90915081906123e1565b905085015138611ffa565b8388528088209150601f198316885b81811061246057509083600194939210612447575b5050811b01905561200e565b87015160001960f88460031b161c19169055388061243b565b9192602060018192868c015181550194019201612426565b82875260208720601f830160051c810191602084106124b3575b601f0160051c01905b8181106124a85750611fe4565b87815560010161249b565b9091508190612492565b503461025e57602036600319011261025e576004356001600160401b038111610355576124ee9036906004016126c8565b600554602082019280805b8381106125d5575061250a90612c1d565b928194825b84811061252c576040516020808252819061025a90820189612723565b60036104f061253d61142684612902565b519020604051602081019061255b602082885161051e81878b6127f9565b5190201460ff600461256c84612902565b50015460081c1661257c816128e2565b816125ca575b50612590575b60010161250f565b9560ff600461259e89612902565b500154166009811015610f7e57816125c2916125bc6001948a612c4f565b52612be1565b969050612588565b600191501438612582565b60036104f06125e661142684612902565b51902060405160208101906126066020828461051e8d8d519283916127f9565b5190201460ff600461261784612902565b50015460081c16612627816128e2565b8161264f575b5061263b575b6001016124f9565b90612647600191612be1565b919050612633565b60019150143861262d565b61016081019081106001600160401b0382111761267657604052565b634e487b7160e01b600052604160045260246000fd5b606081019081106001600160401b0382111761267657604052565b90601f801991011681019081106001600160401b0382111761267657604052565b81601f8201121561271e578035906001600160401b03821161267657604051926126fc601f8401601f1916602001856126a7565b8284526020838301011161271e57816000926020809301838601378301015290565b600080fd5b906020808351928381520192019060005b8181106127415750505090565b825160ff16845260209384019390920191600101612734565b606060031982011261271e576004356001600160401b03811161271e5781612784916004016126c8565b916024356001600160401b03811161271e57826127a3916004016126c8565b91604435906001600160401b03821161271e576127c2916004016126c8565b90565b906020808351928381520192019060005b8181106127e35750505090565b82518452602093840193909201916001016127d6565b60005b83811061280c5750506000910152565b81810151838201526020016127fc565b90602091612835815180928185528580860191016127f9565b601f01601f1916010190565b9080602083519182815201916020808360051b8301019401926000915b83831061286d57505050505090565b909192939460208061288b600193601f19868203018752895161281c565b9701930193019193929061285e565b926128c66127c295936128b86128d494608088526080880190612723565b908682036020880152612723565b9084820360408601526127c5565b916060818403910152612841565b600211156128ec57565b634e487b7160e01b600052602160045260246000fd5b600554811015612921576005600052600a602060002091020190600090565b634e487b7160e01b600052603260045260246000fd5b600654811015612921576006600052600a602060002091020190600090565b90600182811c92168015612986575b602083101461297057565b634e487b7160e01b600052602260045260246000fd5b91607f1691612965565b600092918154916129a083612956565b80835292600181169081156129f657506001146129bc57505050565b60009081526020812093945091925b8383106129dc575060209250010190565b6001816020929493945483858701015201910191906129cb565b915050602093945060ff929192191683830152151560051b010190565b9060098210156128ec5752565b9793612aa79793612a7691612a596127c29e9c989995612a4b612a81966101608f818152019061281c565b8d810360208f01529061281c565b6001600160a01b0390921660408c01528a820360608c015261281c565b956080890190612a13565b612a8a816128e2565b60a087015260c086015260e085015283820361010085015261281c565b6001600160a01b039093166101208201528083036101409091015261281c565b6064359060ff8216820361271e57565b93906127c29593612b08612b2494612afa612b169460a08a5260a08a0190612723565b9088820360208a0152612841565b908682036040880152612723565b9084820360608601526127c5565b916080818403910152612841565b92612b6c90612b5e60609460ff9498979860018060a01b0316875260806020880152608087019061281c565b90858203604087015261281c565b9416910152565b60009291815491612b8383612956565b9260018116908115612bce5750600114612b9c57505050565b909192935060005260206000206000905b838210612bba5750500190565b600181602092548486015201910190612bad565b60ff191683525050811515909102019150565b6000198114612bf05760010190565b634e487b7160e01b600052601160045260246000fd5b6001600160401b0381116126765760051b60200190565b90612c2782612c06565b612c3460405191826126a7565b8281528092612c45601f1991612c06565b0190602036910137565b80518210156129215760209160051b010190565b9081602091031261271e5751801515810361271e5790565b15612c8257565b60405162461bcd60e51b815260206004820152601e60248201527f416363657373207265737472696374656420746f2042504f4d20726f6c6500006044820152606490fd5b15612cce57565b60405162461bcd60e51b815260206004820152601f60248201527f43504f544220737461747573206d7573742062652052657175657374656421006044820152606490fd5b90612d1d816128e2565b61ff0082549160081b169061ff001916179055565b95949390608093612d5f612d7b94612d6d9360018060a01b03168a5260a060208b015260a08a019061281c565b9088820360408a0152612990565b90868203606088015261281c565b930152565b60405190612d8d8261265a565b60606101408382815282602082015260006040820152828082015260006080820152600060a0820152600060c0820152600060e08201528261010082015260006101208201520152565b60098210156128ec5752565b906009610140604051612df58161265a565b612ed78195604051612e0b81610aa58185612990565b8352604051612e2181610aa58160018601612990565b602084015260028101546001600160a01b031660408085019190915251612e4f81610aa58160038601612990565b606084015260ff6004820154612e6a82821660808701612dd7565b60081c16612e77816128e2565b60a0840152600581015460c0840152600681015460e0840152604051612ea481610aa58160078601612990565b61010084015260088101546001600160a01b0316610120840152604051948591612ed091839101612990565b03846126a7565b0152565b90612ee582612c06565b612ef260405191826126a7565b8281528092612f03601f1991612c06565b019060005b828110612f1457505050565b806060602080938501015201612f08565b15612f2c57565b60405162461bcd60e51b815260206004820152601a60248201527f4e6f206461746120666f756e6420666f7220746869732049442e0000000000006044820152606490fd5b906009610140604051612f838161265a565b612ed78195604051612f9981610aa58185612990565b8352604051612faf81610aa58160018601612990565b602084015260028101546001600160a01b031660408085019190915251612fdd81610aa58160038601612990565b606084015260ff6004820154818116612ff5816128e2565b608086015260081c16612e77816128e2565b909182519283516001600160401b038111612676576130268454612956565b601f81116135fd575b50602094601f82116001146135985794819293949560009261358d575b50508160011b916000199060031b1c19161783555b6001830160208201518051906001600160401b0382116126765781906130878454612956565b601f811161353a575b50602090601f83116001146134d5576000926134ca575b50508160011b916000199060031b1c19161790555b60408101516002840180546001600160a01b0319166001600160a01b03929092169190911790556060810151805160038501916001600160401b0382116126765781906131098454612956565b601f8111613477575b50602090601f831160011461341257600092613407575b50508160011b916000199060031b1c19161790555b6080810151926004810160098510156128ec576131789060009560ff8019835416911617815560a084015190613173826128e2565b612d13565b60c0820151600582015560e08201516006820155600781016101008301518051906001600160401b0382116133f3576131b18354612956565b601f81116133ae575b50602090601f83116001146133445791806009949261014096948a92613339575b50508160011b916000199060031b1c19161790555b6101208401516008820180546001600160a01b0319166001600160a01b039290921691909117905591909201518051909492909101916001600160401b0382116133255761323e8354612956565b601f81116132e0575b50602090601f831160011461328257948293949592613277575b50508160011b916000199060031b1c1916179055565b015190503880613261565b90601f198316848352818320925b8181106132c8575095836001959697106132af575b505050811b019055565b015160001960f88460031b161c191690553880806132a5565b9192602060018192868b015181550194019201613290565b83825260208220601f840160051c8101916020851061331b575b601f0160051c01905b8181106133105750613247565b828155600101613303565b90915081906132fa565b634e487b7160e01b81526041600452602490fd5b0151905038806131db565b8388528188209190601f198416895b81811061339657509260019285926101409896600998961061337d575b505050811b0190556131f0565b015160001960f88460031b161c19169055388080613370565b92936020600181928786015181550195019301613353565b83885260208820601f840160051c810191602085106133e9575b601f0160051c01905b8181106133de57506131ba565b8881556001016133d1565b90915081906133c8565b634e487b7160e01b87526041600452602487fd5b015190503880613129565b60008581528281209350601f198516905b81811061345f5750908460019594939210613446575b505050811b01905561313e565b015160001960f88460031b161c19169055388080613439565b92936020600181928786015181550195019301613423565b909150836000526020600020601f840160051c810191602085106134c0575b90601f859493920160051c01905b8181106134b15750613112565b600081558493506001016134a4565b9091508190613496565b0151905038806130a7565b60008581528281209350601f198516905b8181106135225750908460019594939210613509575b505050811b0190556130bc565b015160001960f88460031b161c191690553880806134fc565b929360206001819287860151815501950193016134e6565b909150836000526020600020601f840160051c81019160208510613583575b90601f859493920160051c01905b8181106135745750613090565b60008155849350600101613567565b9091508190613559565b01519050388061304c565b601f1982169585600052806000209160005b8881106135e5575083600195969798106135cc575b505050811b018355613061565b015160001960f88460031b161c191690553880806135bf565b919260206001819286850151815501940192016135aa565b846000526020600020601f830160051c8101916020841061363b575b601f0160051c01905b81811061362f575061302f565b60008155600101613622565b9091508190613619565b9181519283516001600160401b038111612676576136638254612956565b601f8111613bf9575b50602094601f8211600114613b9457948192939495600092613b89575b50508160011b916000199060031b1c19161781555b6001810160208401518051906001600160401b0382116126765781906136c48454612956565b601f8111613b36575b50602090601f8311600114613ad157600092613ac6575b50508160011b916000199060031b1c19161790555b60408301516002820180546001600160a01b0319166001600160a01b03929092169190911790556060830151805160038301916001600160401b0382116126765781906137468454612956565b601f8111613a73575b50602090601f8311600114613a0e57600092613a03575b50508160011b916000199060031b1c19161790555b6137b4600482016080850151613790816128e2565b613799816128e2565b60ff8019835416911617815560a085015190613173826128e2565b60c0830151600582015560e08301516006820155600781016101008401518051906001600160401b038211612676576137ed8354612956565b601f81116139bb575b50602090601f831160011461394d579180600994926101409694600092613942575b50508160011b916000199060031b1c19161790555b6101208501516008820180546001600160a01b0319166001600160a01b0392909216919091179055919093015180519093909101906001600160401b0381116126765761387a8254612956565b601f81116138fa575b506020601f82116001146138b257819293946000926132775750508160011b916000199060031b1c1916179055565b601f1982169083600052806000209160005b8181106138e2575095836001959697106132af57505050811b019055565b9192602060018192868b0151815501940192016138c4565b826000526020600020601f830160051c81019160208410613938575b601f0160051c01905b81811061392c5750613883565b6000815560010161391f565b9091508190613916565b015190503880613818565b90601f1983169184600052816000209260005b8181106139a357509260019285926101409896600998961061398a575b505050811b01905561382d565b015160001960f88460031b161c1916905538808061397d565b92936020600181928786015181550195019301613960565b836000526020600020601f840160051c810191602085106139f9575b601f0160051c01905b8181106139ed57506137f6565b600081556001016139e0565b90915081906139d7565b015190503880613766565b60008581528281209350601f198516905b818110613a5b5750908460019594939210613a42575b505050811b01905561377b565b015160001960f88460031b161c19169055388080613a35565b92936020600181928786015181550195019301613a1f565b909150836000526020600020601f840160051c81019160208510613abc575b90601f859493920160051c01905b818110613aad575061374f565b60008155849350600101613aa0565b9091508190613a92565b0151905038806136e4565b60008581528281209350601f198516905b818110613b1e5750908460019594939210613b05575b505050811b0190556136f9565b015160001960f88460031b161c19169055388080613af8565b92936020600181928786015181550195019301613ae2565b909150836000526020600020601f840160051c81019160208510613b7f575b90601f859493920160051c01905b818110613b7057506136cd565b60008155849350600101613b63565b9091508190613b55565b015190503880613689565b601f1982169583600052806000209160005b888110613be157508360019596979810613bc8575b505050811b01815561369e565b015160001960f88460031b161c19169055388080613bbb565b91926020600181928685015181550194019201613ba6565b826000526020600020601f830160051c81019160208410613c37575b601f0160051c01905b818110613c2b575061366c565b60008155600101613c1e565b9091508190613c1556feedc9920ea2d8611e7d985ecf390206409122b6df9a9c529063c5311531494be1a26469706673582212201c561c5f979c43f0b1e3fdc3be8af491b4772d9c8048322eb99c91e0a5f9653f64736f6c634300081b0033",
  "linkReferences": {},
  "deployedLinkReferences": {}
}