{
  "_format": "hh-sol-artifact-1",
  "contractName": "MainSupplyChain",
  "sourceName": "contracts/MainSupplyChain.sol",
  "abi": [
    {
      "inputs": [
        {
          "internalType": "address",
          "name": "_roleManagerAddr",
          "type": "address"
        }
      ],
      "stateMutability": "nonpayable",
      "type": "constructor"
    },
    {
      "anonymous": false,
      "inputs": [
        {
          "indexed": false,
          "internalType": "address",
          "name": "userAddr",
          "type": "address"
        },
        {
          "indexed": false,
          "internalType": "string",
          "name": "name",
          "type": "string"
        },
        {
          "indexed": false,
          "internalType": "string",
          "name": "instanceName",
          "type": "string"
        },
        {
          "indexed": false,
          "internalType": "uint8",
          "name": "role",
          "type": "uint8"
        }
      ],
      "name": "evt_UserRegistered",
      "type": "event"
    },
    {
      "anonymous": false,
      "inputs": [
        {
          "indexed": false,
          "internalType": "address",
          "name": "bpomAddr",
          "type": "address"
        },
        {
          "indexed": false,
          "internalType": "string",
          "name": "receiverName",
          "type": "string"
        },
        {
          "indexed": false,
          "internalType": "string",
          "name": "pbfName",
          "type": "string"
        },
        {
          "indexed": false,
          "internalType": "string",
          "name": "cdobNumber",
          "type": "string"
        },
        {
          "indexed": false,
          "internalType": "uint256",
          "name": "timestampApprove",
          "type": "uint256"
        }
      ],
      "name": "evt_cdobApptoved",
      "type": "event"
    },
    {
      "anonymous": false,
      "inputs": [
        {
          "indexed": false,
          "internalType": "string",
          "name": "senderName",
          "type": "string"
        },
        {
          "indexed": false,
          "internalType": "address",
          "name": "pbfAddr",
          "type": "address"
        },
        {
          "indexed": false,
          "internalType": "string",
          "name": "pbfName",
          "type": "string"
        },
        {
          "indexed": false,
          "internalType": "enum MainSupplyChain.en_tipePermohonan",
          "name": "tipePermohonan",
          "type": "uint8"
        },
        {
          "indexed": false,
          "internalType": "string",
          "name": "cdobId",
          "type": "string"
        },
        {
          "indexed": false,
          "internalType": "uint256",
          "name": "timestampRequest",
          "type": "uint256"
        }
      ],
      "name": "evt_cdobRequested",
      "type": "event"
    },
    {
      "anonymous": false,
      "inputs": [
        {
          "indexed": false,
          "internalType": "address",
          "name": "bpomAddr",
          "type": "address"
        },
        {
          "indexed": false,
          "internalType": "string",
          "name": "receiverName",
          "type": "string"
        },
        {
          "indexed": false,
          "internalType": "string",
          "name": "factoryName",
          "type": "string"
        },
        {
          "indexed": false,
          "internalType": "string",
          "name": "cpotbNumber",
          "type": "string"
        },
        {
          "indexed": false,
          "internalType": "uint256",
          "name": "timestampApprove",
          "type": "uint256"
        }
      ],
      "name": "evt_cpotbApproved",
      "type": "event"
    },
    {
      "anonymous": false,
      "inputs": [
        {
          "indexed": false,
          "internalType": "string",
          "name": "senderName",
          "type": "string"
        },
        {
          "indexed": false,
          "internalType": "address",
          "name": "factoryAddr",
          "type": "address"
        },
        {
          "indexed": false,
          "internalType": "string",
          "name": "factoryName",
          "type": "string"
        },
        {
          "indexed": false,
          "internalType": "enum MainSupplyChain.en_jenisSediaan",
          "name": "jenisSediaan",
          "type": "uint8"
        },
        {
          "indexed": false,
          "internalType": "string",
          "name": "cpotbId",
          "type": "string"
        },
        {
          "indexed": false,
          "internalType": "uint256",
          "name": "timestampRequest",
          "type": "uint256"
        }
      ],
      "name": "evt_cpotbRequested",
      "type": "event"
    },
    {
      "inputs": [
        {
          "internalType": "uint256",
          "name": "",
          "type": "uint256"
        }
      ],
      "name": "allCdobData",
      "outputs": [
        {
          "internalType": "string",
          "name": "cdobId",
          "type": "string"
        },
        {
          "internalType": "string",
          "name": "senderName",
          "type": "string"
        },
        {
          "internalType": "address",
          "name": "pbfAddr",
          "type": "address"
        },
        {
          "internalType": "string",
          "name": "pbfName",
          "type": "string"
        },
        {
          "internalType": "enum MainSupplyChain.en_tipePermohonan",
          "name": "tipePermohonan",
          "type": "uint8"
        },
        {
          "internalType": "enum MainSupplyChain.en_statusCert",
          "name": "status",
          "type": "uint8"
        },
        {
          "internalType": "uint256",
          "name": "timestampRequest",
          "type": "uint256"
        },
        {
          "internalType": "uint256",
          "name": "timestampApprove",
          "type": "uint256"
        },
        {
          "internalType": "string",
          "name": "cdobNumber",
          "type": "string"
        },
        {
          "internalType": "address",
          "name": "bpomAddr",
          "type": "address"
        },
        {
          "internalType": "string",
          "name": "receiverName",
          "type": "string"
        }
      ],
      "stateMutability": "view",
      "type": "function"
    },
    {
      "inputs": [
        {
          "internalType": "uint256",
          "name": "",
          "type": "uint256"
        }
      ],
      "name": "allCpotbData",
      "outputs": [
        {
          "internalType": "string",
          "name": "cpotbId",
          "type": "string"
        },
        {
          "internalType": "string",
          "name": "senderName",
          "type": "string"
        },
        {
          "internalType": "address",
          "name": "factoryAddr",
          "type": "address"
        },
        {
          "internalType": "string",
          "name": "factoryName",
          "type": "string"
        },
        {
          "internalType": "enum MainSupplyChain.en_jenisSediaan",
          "name": "jenisSediaan",
          "type": "uint8"
        },
        {
          "internalType": "enum MainSupplyChain.en_statusCert",
          "name": "status",
          "type": "uint8"
        },
        {
          "internalType": "uint256",
          "name": "timestampRequest",
          "type": "uint256"
        },
        {
          "internalType": "uint256",
          "name": "timestampApprove",
          "type": "uint256"
        },
        {
          "internalType": "string",
          "name": "cpotbNumber",
          "type": "string"
        },
        {
          "internalType": "address",
          "name": "bpomAddr",
          "type": "address"
        },
        {
          "internalType": "string",
          "name": "receiverName",
          "type": "string"
        }
      ],
      "stateMutability": "view",
      "type": "function"
    },
    {
      "inputs": [
        {
          "internalType": "string",
          "name": "_cdobId",
          "type": "string"
        },
        {
          "internalType": "string",
          "name": "_cdobNumber",
          "type": "string"
        },
        {
          "internalType": "string",
          "name": "_receiverName",
          "type": "string"
        }
      ],
      "name": "approveCdob",
      "outputs": [],
      "stateMutability": "nonpayable",
      "type": "function"
    },
    {
      "inputs": [
        {
          "internalType": "string",
          "name": "_cpotbId",
          "type": "string"
        },
        {
          "internalType": "string",
          "name": "_cpotbNumber",
          "type": "string"
        },
        {
          "internalType": "string",
          "name": "_receiverName",
          "type": "string"
        }
      ],
      "name": "approveCpotb",
      "outputs": [],
      "stateMutability": "nonpayable",
      "type": "function"
    },
    {
      "inputs": [
        {
          "internalType": "string",
          "name": "",
          "type": "string"
        }
      ],
      "name": "cpotbDataById",
      "outputs": [
        {
          "internalType": "string",
          "name": "cpotbId",
          "type": "string"
        },
        {
          "internalType": "string",
          "name": "senderName",
          "type": "string"
        },
        {
          "internalType": "address",
          "name": "factoryAddr",
          "type": "address"
        },
        {
          "internalType": "string",
          "name": "factoryName",
          "type": "string"
        },
        {
          "internalType": "enum MainSupplyChain.en_jenisSediaan",
          "name": "jenisSediaan",
          "type": "uint8"
        },
        {
          "internalType": "enum MainSupplyChain.en_statusCert",
          "name": "status",
          "type": "uint8"
        },
        {
          "internalType": "uint256",
          "name": "timestampRequest",
          "type": "uint256"
        },
        {
          "internalType": "uint256",
          "name": "timestampApprove",
          "type": "uint256"
        },
        {
          "internalType": "string",
          "name": "cpotbNumber",
          "type": "string"
        },
        {
          "internalType": "address",
          "name": "bpomAddr",
          "type": "address"
        },
        {
          "internalType": "string",
          "name": "receiverName",
          "type": "string"
        }
      ],
      "stateMutability": "view",
      "type": "function"
    },
    {
      "inputs": [
        {
          "internalType": "string",
          "name": "",
          "type": "string"
        }
      ],
      "name": "cpotbJenisSediaan",
      "outputs": [
        {
          "internalType": "enum MainSupplyChain.en_jenisSediaan",
          "name": "",
          "type": "uint8"
        }
      ],
      "stateMutability": "view",
      "type": "function"
    },
    {
      "inputs": [],
      "name": "getListAllCdob",
      "outputs": [
        {
          "internalType": "uint8[]",
          "name": "",
          "type": "uint8[]"
        },
        {
          "internalType": "string[]",
          "name": "",
          "type": "string[]"
        },
        {
          "internalType": "uint8[]",
          "name": "",
          "type": "uint8[]"
        },
        {
          "internalType": "uint256[]",
          "name": "",
          "type": "uint256[]"
        },
        {
          "internalType": "string[]",
          "name": "",
          "type": "string[]"
        }
      ],
      "stateMutability": "view",
      "type": "function"
    },
    {
      "inputs": [],
      "name": "getListAllCpotb",
      "outputs": [
        {
          "internalType": "uint8[]",
          "name": "",
          "type": "uint8[]"
        },
        {
          "internalType": "string[]",
          "name": "",
          "type": "string[]"
        },
        {
          "internalType": "uint8[]",
          "name": "",
          "type": "uint8[]"
        },
        {
          "internalType": "uint256[]",
          "name": "",
          "type": "uint256[]"
        },
        {
          "internalType": "string[]",
          "name": "",
          "type": "string[]"
        }
      ],
      "stateMutability": "view",
      "type": "function"
    },
    {
      "inputs": [
        {
          "internalType": "string",
          "name": "_cdobId",
          "type": "string"
        }
      ],
      "name": "getListCdobById",
      "outputs": [
        {
          "components": [
            {
              "internalType": "string",
              "name": "cdobId",
              "type": "string"
            },
            {
              "internalType": "string",
              "name": "senderName",
              "type": "string"
            },
            {
              "internalType": "address",
              "name": "pbfAddr",
              "type": "address"
            },
            {
              "internalType": "string",
              "name": "pbfName",
              "type": "string"
            },
            {
              "internalType": "enum MainSupplyChain.en_tipePermohonan",
              "name": "tipePermohonan",
              "type": "uint8"
            },
            {
              "internalType": "enum MainSupplyChain.en_statusCert",
              "name": "status",
              "type": "uint8"
            },
            {
              "internalType": "uint256",
              "name": "timestampRequest",
              "type": "uint256"
            },
            {
              "internalType": "uint256",
              "name": "timestampApprove",
              "type": "uint256"
            },
            {
              "internalType": "string",
              "name": "cdobNumber",
              "type": "string"
            },
            {
              "internalType": "address",
              "name": "bpomAddr",
              "type": "address"
            },
            {
              "internalType": "string",
              "name": "receiverName",
              "type": "string"
            }
          ],
          "internalType": "struct MainSupplyChain.st_cdobData",
          "name": "",
          "type": "tuple"
        }
      ],
      "stateMutability": "view",
      "type": "function"
    },
    {
      "inputs": [
        {
          "internalType": "string",
          "name": "_instanceName",
          "type": "string"
        }
      ],
      "name": "getListCdobByPbf",
      "outputs": [
        {
          "internalType": "uint8[]",
          "name": "",
          "type": "uint8[]"
        },
        {
          "internalType": "uint8[]",
          "name": "",
          "type": "uint8[]"
        },
        {
          "internalType": "uint256[]",
          "name": "",
          "type": "uint256[]"
        },
        {
          "internalType": "string[]",
          "name": "",
          "type": "string[]"
        }
      ],
      "stateMutability": "view",
      "type": "function"
    },
    {
      "inputs": [
        {
          "internalType": "string",
          "name": "_instanceName",
          "type": "string"
        }
      ],
      "name": "getListCpotbByFactory",
      "outputs": [
        {
          "internalType": "uint8[]",
          "name": "",
          "type": "uint8[]"
        },
        {
          "internalType": "uint8[]",
          "name": "",
          "type": "uint8[]"
        },
        {
          "internalType": "uint256[]",
          "name": "",
          "type": "uint256[]"
        },
        {
          "internalType": "string[]",
          "name": "",
          "type": "string[]"
        }
      ],
      "stateMutability": "view",
      "type": "function"
    },
    {
      "inputs": [
        {
          "internalType": "string",
          "name": "_cpotbId",
          "type": "string"
        }
      ],
      "name": "getListCpotbById",
      "outputs": [
        {
          "components": [
            {
              "internalType": "string",
              "name": "cpotbId",
              "type": "string"
            },
            {
              "internalType": "string",
              "name": "senderName",
              "type": "string"
            },
            {
              "internalType": "address",
              "name": "factoryAddr",
              "type": "address"
            },
            {
              "internalType": "string",
              "name": "factoryName",
              "type": "string"
            },
            {
              "internalType": "enum MainSupplyChain.en_jenisSediaan",
              "name": "jenisSediaan",
              "type": "uint8"
            },
            {
              "internalType": "enum MainSupplyChain.en_statusCert",
              "name": "status",
              "type": "uint8"
            },
            {
              "internalType": "uint256",
              "name": "timestampRequest",
              "type": "uint256"
            },
            {
              "internalType": "uint256",
              "name": "timestampApprove",
              "type": "uint256"
            },
            {
              "internalType": "string",
              "name": "cpotbNumber",
              "type": "string"
            },
            {
              "internalType": "address",
              "name": "bpomAddr",
              "type": "address"
            },
            {
              "internalType": "string",
              "name": "receiverName",
              "type": "string"
            }
          ],
          "internalType": "struct MainSupplyChain.st_cpotbData",
          "name": "",
          "type": "tuple"
        }
      ],
      "stateMutability": "view",
      "type": "function"
    },
    {
      "inputs": [
        {
          "internalType": "address",
          "name": "_userAddr",
          "type": "address"
        }
      ],
      "name": "getRegisteredUser",
      "outputs": [
        {
          "internalType": "address",
          "name": "",
          "type": "address"
        },
        {
          "internalType": "string",
          "name": "",
          "type": "string"
        },
        {
          "internalType": "string",
          "name": "",
          "type": "string"
        },
        {
          "internalType": "uint8",
          "name": "",
          "type": "uint8"
        }
      ],
      "stateMutability": "view",
      "type": "function"
    },
    {
      "inputs": [
        {
          "internalType": "string",
          "name": "_factoryName",
          "type": "string"
        }
      ],
      "name": "hasApprovedCpotb",
      "outputs": [
        {
          "internalType": "uint8[]",
          "name": "",
          "type": "uint8[]"
        }
      ],
      "stateMutability": "view",
      "type": "function"
    },
    {
      "inputs": [
        {
          "internalType": "string",
          "name": "_name",
          "type": "string"
        },
        {
          "internalType": "string",
          "name": "_instanceName",
          "type": "string"
        },
        {
          "internalType": "address",
          "name": "_userAddr",
          "type": "address"
        },
        {
          "internalType": "uint8",
          "name": "_userRole",
          "type": "uint8"
        }
      ],
      "name": "registerUser",
      "outputs": [],
      "stateMutability": "nonpayable",
      "type": "function"
    },
    {
      "inputs": [
        {
          "internalType": "string",
          "name": "_instanceName",
          "type": "string"
        },
        {
          "internalType": "string",
          "name": "_cdobId",
          "type": "string"
        },
        {
          "internalType": "string",
          "name": "_senderName",
          "type": "string"
        },
        {
          "internalType": "enum MainSupplyChain.en_tipePermohonan",
          "name": "_tipePermohonan",
          "type": "uint8"
        }
      ],
      "name": "requestCdob",
      "outputs": [],
      "stateMutability": "nonpayable",
      "type": "function"
    },
    {
      "inputs": [
        {
          "internalType": "string",
          "name": "_instanceName",
          "type": "string"
        },
        {
          "internalType": "string",
          "name": "_cpotbId",
          "type": "string"
        },
        {
          "internalType": "string",
          "name": "_senderName",
          "type": "string"
        },
        {
          "internalType": "uint8",
          "name": "_jenisSediaan",
          "type": "uint8"
        }
      ],
      "name": "requestCpotb",
      "outputs": [],
      "stateMutability": "nonpayable",
      "type": "function"
    }
  ],
  "bytecode": "0x608034607057601f613f8f38819003918201601f19168301916001600160401b03831184841017607557808492602094604052833981010312607057516001600160a01b03811690819003607057600080546001600160a01b031916919091179055604051613f03908161008c8239f35b600080fd5b634e487b7160e01b600052604160045260246000fdfe6080604052600436101561001257600080fd5b6000803560e01c806304d184381461271f578063073a4cf81461217f57806314fd887414611f5c578063402a124914611e8b57806343762aa814611d0457806344d78f7114611cb05780636aa8129914611c4b5780637c4535e0146119cf578063b0cca61e14611721578063c5f455b4146114db578063cec1fc1e14611388578063d123367214610d23578063e54a29bb14610b55578063ec176587146109cd578063ef013be314610359578063f02f5f23146102615763fbe9a68e146100d857600080fd5b3461025e57602036600319011261025e57600435906001600160401b03821161025e5761025a6101716101626020610113366004880161292a565b61011b612fec565b506040519061015161014a82519385818186019661013a81838a612a5b565b8101600281520301902054612bb8565b1515613191565b604051938492839251928391612a5b565b8101600281520301902061304f565b604051918291602083526101406102326101e06101b561019f855161016060208a0152610180890190612a7e565b6020860151888203601f190160408a0152612a7e565b60408501516001600160a01b0316606088810191909152850151878203601f19016080890152612a7e565b6101f2608085015160a0880190612c75565b60a084015161020081612b44565b60c087015260c084015160e087015260e0840151610100870152610100840151601f1987830301610120880152612a7e565b6101208301516001600160a01b031685830152910151838203601f1901610160850152612a7e565b0390f35b80fd5b503461025e57602036600319011261025e576004356005548110156103555761028990612b64565b50604051906102a38261029c8184612bf2565b0383612909565b61025a6009604051926102c4846102bd8160018501612bf2565b0385612909565b60028101546040516001600160a01b03909116956102e98261029c8160038701612bf2565b6004830154600584015490600685015492604051946103168661030f8160078b01612bf2565b0387612909565b61033e60018060a01b0360088901541697610337604051809b819301612bf2565b0389612909565b6040519a8b9a60ff808660081c169516938c612c82565b5080fd5b503461025e57610368366129bc565b9192906044602060018060a01b03845416604051928380926395a8c58d60e01b8252336004830152600260248301525afa9081156109c257906103b2918491610993575b50612ee7565b60405192845193602081818801966103cb81838a612a5b565b81016003815203019020946004860161010081546103f860ff8260081c166103f281612b44565b15612f33565b61ff0019161790556007860183516001600160401b0381116107fe5761041e8254612bb8565b601f811161094e575b50806020601f82116001146108ed5787916108e2575b508160011b916000199060031b1c19161790555b4260068701556008860180546001600160a01b03191633179055815160098701906001600160401b0381116107fe5761048a8254612bb8565b601f811161089d575b50806020601f821160011461083c578791610831575b508160011b916000199060031b1c19161790555b835b600654811015610812576104d281612b99565b506040516104f6816104e8602082018095612dd5565b03601f198101835282612909565b5190206040516020810190610527602082846105168d8a51928391612a5b565b81010301601f198101835282612909565b51902014610537576001016104bf565b919293945050600461054882612b99565b5001805461ff001916610100179055600761056282612b99565b500183516001600160401b0381116107fe5761057e8254612bb8565b601f81116107b9575b506020601f8211600114610752579181600994926105ec948991610747575b508160011b916000199060031b1c19161790555b6105c381612b99565b5060064291015560086105d582612b99565b500180546001600160a01b03191633179055612b99565b5001938151946001600160401b0386116107335761060a8154612bb8565b601f81116106ee575b50602095601f811160011461067957908161066893928798600080516020613eae833981519152989161066e575b508160011b916000199060031b1c19161790555b6040519384936003429301903386612f9e565b0390a180f35b905085015138610641565b81865286862096601f198216875b8181106106d6575091600080516020613eae833981519152979860019282610668979695106106bd575b5050811b019055610655565b87015160001960f88460031b161c1916905538806106b1565b868301518a5560019099019860209283019201610687565b81865260208620601f880160051c81019160208910610729575b601f0160051c01905b81811061071e5750610613565b868155600101610711565b9091508190610708565b634e487b7160e01b85526041600452602485fd5b9050870151386105a6565b82875280872090601f198316885b8181106107a15750926105ec9492600192826009989610610788575b5050811b0190556105ba565b89015160001960f88460031b161c19169055388061077c565b9192602060018192868c015181550194019201610760565b82875260208720601f830160051c810191602084106107f4575b601f0160051c01905b8181106107e95750610587565b8781556001016107dc565b90915081906107d3565b634e487b7160e01b86526041600452602486fd5b5050909193600080516020613eae833981519152935061066890610655565b9050840151386104a9565b8388528088209150601f198316885b8181106108855750908360019493921061086c575b5050811b0190556104bd565b86015160001960f88460031b161c191690553880610860565b9192602060018192868b01518155019401920161084b565b82875260208720601f830160051c810191602084106108d8575b601f0160051c01905b8181106108cd5750610493565b8781556001016108c0565b90915081906108b7565b90508501513861043d565b8388528088209150601f198316885b8181106109365750908360019493921061091d575b5050811b019055610451565b87015160001960f88460031b161c191690553880610911565b9192602060018192868c0151815501940192016108fc565b82875260208720601f830160051c81019160208410610989575b601f0160051c01905b81811061097e5750610427565b878155600101610971565b9091508190610968565b6109b5915060203d6020116109bb575b6109ad8183612909565b810190612ec5565b386103ac565b503d6109a3565b6040513d85823e3d90fd5b503461025e578060031936011261025e576005546109ea81612e7f565b6109f382613147565b6109fc83613147565b92610a0681612e7f565b610a0f82612e7f565b91865b818110610a2d5750509061025a929160405195869586612d39565b60ff6004610a3a83612b64565b500154166009811015610b415790600191610a558289612eb1565b5260ff6004610a6383612b64565b50015460081c16610a7381612b44565b610a7d8286612eb1565b526003610aa4610a8c83612b64565b50610a9d6040518094819301612bf2565b0382612909565b610aae828a612eb1565b52610ab98189612eb1565b50610a9d610ad6610ac983612b64565b5060405192838092612bf2565b610ae08288612eb1565b52610aeb8187612eb1565b506006610af782612b64565b5001546005610b0583612b64565b5001541015610b2e576006610b1982612b64565b5001545b610b278287612eb1565b5201610a12565b6005610b3982612b64565b500154610b1d565b634e487b7160e01b89526021600452602489fd5b503461025e57602036600319011261025e576004356001600160a01b038116919082900361025e57805460405163e2a4128360e01b8152600481018490526001600160a01b039091169290602081602481875afa9081156109c2578391610d04575b5015610cc6578082526001602052604082209260405192610bd7846128ee565b604051610be881610a9d8189612bf2565b8452602060405195610c0887610c018160018501612bf2565b0388612909565b858201968752600201546001600160a01b0316604080870191825251634427673360e01b815260048101959095529392839060249082905afa918215610cb9578192610c78575b505061025a9160018060a01b0390511692519351610c6c82612edd565b60405194859485612d94565b9091506020813d602011610cb1575b81610c9460209383612909565b81010312610355575190600482101561025e575061025a38610c4f565b3d9150610c87565b50604051903d90823e3d90fd5b60405162461bcd60e51b8152602060048201526016602482015275155cd95c881a5cc81b9bdd081c9959da5cdd195c995960521b6044820152606490fd5b610d1d915060203d6020116109bb576109ad8183612909565b38610bb7565b503461025e57608036600319011261025e576004356001600160401b03811161035557610d5490369060040161292a565b906024356001600160401b03811161035557610d7490369060040161292a565b6044356001600160a01b038116939184820361138457610d92612d29565b604051610d9e816128ee565b84815260208101838152604082019088825288885260016020526040882092518051906001600160401b0382116112b2578190610ddb8654612bb8565b601f8111611334575b50602090601f83116001146112d1578b926112c6575b50508160011b916000199060031b1c19161783555b51805160018401916001600160401b0382116112b257610e2f8354612bb8565b601f811161126d575b50602090601f83116001146112025791806002949260ff989796948d926111f7575b50508160011b916000199060031b1c19161790555b51910180546001600160a01b0319166001600160a01b03929092169190911790551694610e9b86612edd565b84546001600160a01b031690813b156111f357859160448392604051948593849263630a195b60e01b84526004840152610ed48c612edd565b8b60248401525af180156111e8576111d4575b508415610f1f575b8461066891610c6c7f93b86cf0a1d8e18e724e08d47f7248859de317795be109ec2495f6fc7445b4e99697612edd565b60408051610f2d8282612909565b601081526f50542e20427564692050656b6572746960801b6020820152815190610f578383612909565b6007825260208201906630b0bab4321c3560c91b8252835193610f7a8186612909565b600b85526a54414b414b49205955594160a81b602086015260018060a01b0389541660208a60448451809481936395a8c58d60e01b835233600484015260248301525afa9081156111ca578a916111ab575b501561115e578051610fdd816128bc565b8481528560208201523382820152826060820152896080820152600160a08201524260c08201528960e0820152611067816110588c602097889187516110238482612909565b818152610100860152806101208601528751906110408483612909565b81526101408501528651809381928c51928391612a5b565b81016002815203019020613273565b600554600160401b81101561114a578060016110869201600555612b64565b611136579461110f7fe9b311c837d257b1f6982c63cbb418abca3880b67545d8ea67adc97e6626ef1e956110fd957f93b86cf0a1d8e18e724e08d47f7248859de317795be109ec2495f6fc7445b4e99d9e99956110ea611123966106689d9b613273565b805197889760c0895260c0890190612a7e565b92339088015286830390870152612a7e565b908c60608501528382036080850152612a7e565b4260a08301520390a19150949350610eef565b634e487b7160e01b8b5260048b905260248bfd5b634e487b7160e01b8b52604160045260248bfd5b5162461bcd60e51b815260206004820152602160248201527f416363657373207265737472696374656420746f20466163746f727920726f6c6044820152606560f81b6064820152608490fd5b6111c4915060203d6020116109bb576109ad8183612909565b38610fcc565b82513d8c823e3d90fd5b846111e191959295612909565b9238610ee7565b6040513d87823e3d90fd5b8580fd5b015190503880610e5a565b838b52818b209190601f1984168c5b818110611255575092600192859260ff9a999896600298961061123c575b505050811b019055610e6f565b015160001960f88460031b161c1916905538808061122f565b92936020600181928786015181550195019301611211565b838b5260208b20601f840160051c810191602085106112a8575b601f0160051c01905b81811061129d5750610e38565b8b8155600101611290565b9091508190611287565b634e487b7160e01b8a52604160045260248afd5b015190503880610dfa565b868c52818c209250601f1984168c5b81811061131c5750908460019594939210611303575b505050811b018355610e0f565b015160001960f88460031b161c191690553880806112f6565b929360206001819287860151815501950193016112e0565b909150858b5260208b20601f840160051c8101916020851061137a575b90601f859493920160051c01905b81811061136c5750610de4565b8c815584935060010161135f565b9091508190611351565b8380fd5b503461025e578060031936011261025e57600654906113a682612e7f565b906113b083613147565b906113ba84613147565b936113c481612e7f565b906113ce81612e7f565b92805b8281106113ed575050509061025a929160405195869586612d39565b8060ff60046113fd600194612b99565b5001541661140a81612b44565b611414828a612eb1565b5260ff600461142283612b99565b50015460081c1661143281612b44565b61143c8287612eb1565b52600361144b610a8c83612b99565b611455828b612eb1565b52611460818a612eb1565b50610a9d611470610ac983612b99565b61147a8289612eb1565b526114858188612eb1565b50600661149182612b99565b500154600561149f83612b99565b50015410156114c85760066114b382612b99565b5001545b6114c18288612eb1565b52016113d1565b60056114d382612b99565b5001546114b7565b503461025e57602036600319011261025e576004356001600160401b0381116103555761150c90369060040161292a565b60065461151881612e68565b906115266040519283612909565b808252601f1961153582612e68565b01845b81811061170a57505083928460208201905b83811061167a575050505061155e82612e7f565b9061156883613147565b9061157284612e7f565b9361157c81612e7f565b91865b82811061159a575050509061025a9160405194859485612afc565b8060806115a960019385612eb1565b5101516115b581612b44565b6115be81612b44565b60ff6115ca838a612eb1565b9116905260a06115da8285612eb1565b5101516115e681612b44565b6115ef81612b44565b60ff6115fb838b612eb1565b911690526116098184612eb1565b51516116158288612eb1565b526116208187612eb1565b5060e061162d8285612eb1565b51015160c061163c8386612eb1565b51015110156116665760e06116518285612eb1565b5101515b61165f8287612eb1565b520161157f565b60c06116728285612eb1565b510151611655565b60036104e861169f61168b84612b99565b506040519283916020830195869101612dd5565b51902060405160208101906116bd602082885161051681878b612a5b565b519020146116ce575b60010161154a565b946117026001916116e76116e189612b99565b506131dd565b6116f18289612eb1565b526116fc8188612eb1565b50612e43565b9590506116c6565b602090611715612fec565b82828701015201611538565b503461025e57608036600319011261025e576004356001600160401b0381116103555761175290369060040161292a565b6024356001600160401b0381116119cb5761177190369060040161292a565b906044356001600160401b0381116113845761179190369060040161292a565b916064359160028310156119c75784546040516395a8c58d60e01b81523360048201526001602482015290602090829060449082906001600160a01b03165afa9081156119bc57869161199d575b501561195857604051906117f2826128bc565b82825284602083015233604083015280606083015261181084612b44565b8360808301528560a08301524260c08301528560e08301526020916040516118388482612909565b878152610100820152866101208201526040516118558482612909565b87815261014082015261188581604051858188516118768183858d01612a5b565b810160038152030190206138b1565b600654600160401b811015611944578060016118a49201600655612b99565b61193057611924936118f596936118e17f52826c7f34a2ea38d95f47a905bbcd35442ec287a05b31513f7b71bf968b0a34999794611908946138b1565b60405197889760c0895260c0890190612a7e565b9133908801528682036040880152612a7e565b9161191281612b44565b60608501528382036080850152612a7e565b4260a08301520390a180f35b634e487b7160e01b88526004889052602488fd5b634e487b7160e01b88526041600452602488fd5b60405162461bcd60e51b815260206004820152601d60248201527f416363657373207265737472696374656420746f2050424620726f6c650000006044820152606490fd5b6119b6915060203d6020116109bb576109ad8183612909565b386117df565b6040513d88823e3d90fd5b8480fd5b8280fd5b503461025e57608036600319011261025e576004356001600160401b03811161035557611a0090369060040161292a565b6024356001600160401b0381116119cb57611a1f90369060040161292a565b906044356001600160401b03811161138457611a3f90369060040161292a565b91611a48612d29565b84546040516395a8c58d60e01b81523360048201526024810187905290602090829060449082906001600160a01b03165afa9081156119bc578691611c2c575b5015611bdd5760ff16916009831015611bc95760405190611aa8826128bc565b828252846020830152336040830152806060830152611aca8460808401613043565b600160a08301524260c08301528560e0830152602091604051611aed8482612909565b87815261010082015286610120820152604051611b0a8482612909565b878152610140820152611b2b81604051858188516110588183858d01612a5b565b600554600160401b81101561194457806001611b4a9201600555612b64565b61193057611bb161192494611b9e9794611b8a7fe9b311c837d257b1f6982c63cbb418abca3880b67545d8ea67adc97e6626ef1e9a9895611bbc95613273565b60405198899860c08a5260c08a0190612a7e565b9133908901528782036040890152612a7e565b926060860190612c75565b8382036080850152612a7e565b634e487b7160e01b85526021600452602485fd5b60405162461bcd60e51b815260206004820152602160248201527f416363657373207265737472696374656420746f20466163746f727920726f6c6044820152606560f81b6064820152608490fd5b611c45915060203d6020116109bb576109ad8183612909565b38611a88565b503461025e57602036600319011261025e57600435906001600160401b03821161025e57611c946020611c81366004860161292a565b8160405193828580945193849201612a5b565b81016002815203019020604051906102a38261029c8184612bf2565b503461025e57602036600319011261025e57600435906001600160401b03821161025e57602060ff611ce982611c81366004880161292a565b810160048152030190205416611d026040518092612c75565bf35b503461025e57602036600319011261025e5760043560065481101561035557611d2c90612b99565b5060405180611d3b8184612bf2565b03611d469082612909565b6040519182611d588160018401612bf2565b03611d639084612909565b60028101546040516001600160a01b039091169080611d858160038601612bf2565b03611d909082612909565b600483015460ff81169060081c60ff16600585015460068601549160405194858060078a0190611dbf91612bf2565b03611dca9087612909565b600160a01b6001900360088901541696604051806009819b0190611ded91612bf2565b03611df8908a612909565b6040519a8b9a6101608c526101608c01611e1191612a7e565b8b810360208d0152611e2291612a7e565b9060408b015289810360608b0152611e3991612a7e565b93611e4381612b44565b6080890152611e5181612b44565b60a088015260c087015260e0860152848103610100860152611e7291612a7e565b9061012084015282810361014084015261025a91612a7e565b503461025e57602036600319011261025e57600435906001600160401b03821161025e5761025a611f0d611efe6020611ec7366004880161292a565b611ecf612fec565b506040519061015161014a825193858181860196611eee81838a612a5b565b8101600381520301902054612bb8565b810160038152030190206131dd565b60405191829160208352610140610232611f3b6101b561019f855161016060208a0152610180890190612a7e565b6080840151611f4981612b44565b60a087015260a084015161020081612b44565b503461025e57602036600319011261025e576004356001600160401b03811161035557611f8d90369060040161292a565b9060055490611f9b82612e68565b91611fa96040519384612909565b808352601f19611fb882612e68565b01825b81811061216857505081938260208201905b8381106120f25750505050611fe183612e7f565b91611feb84613147565b91611ff585612e7f565b94611fff81612e7f565b92825b82811061201a576040518061025a88888c8c85612afc565b60806120268284612eb1565b5101516009811015611bc9579060019160ff612042838b612eb1565b9116905260a06120528285612eb1565b51015161205e81612b44565b61206781612b44565b60ff612073838c612eb1565b911690526120818184612eb1565b515161208d8289612eb1565b526120988188612eb1565b5060e06120a58285612eb1565b51015160c06120b48386612eb1565b51015110156120de5760e06120c98285612eb1565b5101515b6120d78288612eb1565b5201612002565b60c06120ea8285612eb1565b5101516120cd565b60036104e861210361168b84612b64565b5190206040516020810190612121602082885161051681878b612a5b565b51902014612132575b600101611fcd565b9561216060019161214b6121458a612b64565b5061304f565b612155828a612eb1565b526116fc8189612eb1565b96905061212a565b602090612173612fec565b82828801015201611fbb565b503461025e5761218e366129bc565b9192906044602060018060a01b03845416604051928380926395a8c58d60e01b8252336004830152600260248301525afa9081156109c257906121d79184916109935750612ee7565b60405192845193602081818801966121f081838a612a5b565b810160028152030190209460048601610100815461221760ff8260081c166103f281612b44565b61ff0019161790556007860183516001600160401b0381116107fe5761223d8254612bb8565b601f81116126da575b50806020601f821160011461267957879161266e575b508160011b916000199060031b1c19161790555b4260068701556008860180546001600160a01b03191633179055815160098701906001600160401b0381116107fe576122a98254612bb8565b601f8111612629575b50806020601f82116001146125c85787916125bd575b508160011b916000199060031b1c19161790555b835b600554811015610812576122f181612b64565b50604051612307816104e8602082018095612dd5565b5190206040516020810190612327602082846105168d8a51928391612a5b565b51902014612337576001016122de565b919293945050600461234882612b64565b5001805461ff001916610100179055600761236282612b64565b500183516001600160401b0381116107fe5761237e8254612bb8565b601f8111612578575b506020601f8211600114612511579181600994926123ec948991612506575b508160011b916000199060031b1c19161790555b6123c381612b64565b5060064291015560086123d582612b64565b500180546001600160a01b03191633179055612b64565b5001938151946001600160401b0386116107335761240a8154612bb8565b601f81116124c1575b50602095601f811160011461246657908161066893928798600080516020613eae833981519152989161066e57508160011b916000199060031b1c19161790556040519384936003429301903386612f9e565b81865286862096601f198216875b8181106124a9575091600080516020613eae833981519152979860019282610668979695106106bd575050811b019055610655565b868301518a5560019099019860209283019201612474565b81865260208620601f880160051c810191602089106124fc575b601f0160051c01905b8181106124f15750612413565b8681556001016124e4565b90915081906124db565b9050870151386123a6565b82875280872090601f198316885b8181106125605750926123ec9492600192826009989610612547575b5050811b0190556123ba565b89015160001960f88460031b161c19169055388061253b565b9192602060018192868c01518155019401920161251f565b82875260208720601f830160051c810191602084106125b3575b601f0160051c01905b8181106125a85750612387565b87815560010161259b565b9091508190612592565b9050840151386122c8565b8388528088209150601f198316885b818110612611575090836001949392106125f8575b5050811b0190556122dc565b86015160001960f88460031b161c1916905538806125ec565b9192602060018192868b0151815501940192016125d7565b82875260208720601f830160051c81019160208410612664575b601f0160051c01905b81811061265957506122b2565b87815560010161264c565b9091508190612643565b90508501513861225c565b8388528088209150601f198316885b8181106126c2575090836001949392106126a9575b5050811b019055612270565b87015160001960f88460031b161c19169055388061269d565b9192602060018192868c015181550194019201612688565b82875260208720601f830160051c81019160208410612715575b601f0160051c01905b81811061270a5750612246565b8781556001016126fd565b90915081906126f4565b503461025e57602036600319011261025e576004356001600160401b0381116103555761275090369060040161292a565b600554602082019280805b838110612837575061276c90612e7f565b928194825b84811061278e576040516020808252819061025a90820189612985565b60036104e861279f61168b84612b64565b51902060405160208101906127bd602082885161051681878b612a5b565b5190201460ff60046127ce84612b64565b50015460081c166127de81612b44565b8161282c575b506127f2575b600101612771565b9560ff600461280089612b64565b500154166009811015611bc957816128249161281e6001948a612eb1565b52612e43565b9690506127ea565b6001915014386127e4565b60036104e861284861168b84612b64565b5190206040516020810190612868602082846105168d8d51928391612a5b565b5190201460ff600461287984612b64565b50015460081c1661288981612b44565b816128b1575b5061289d575b60010161275b565b906128a9600191612e43565b919050612895565b60019150143861288f565b61016081019081106001600160401b038211176128d857604052565b634e487b7160e01b600052604160045260246000fd5b606081019081106001600160401b038211176128d857604052565b90601f801991011681019081106001600160401b038211176128d857604052565b81601f82011215612980578035906001600160401b0382116128d8576040519261295e601f8401601f191660200185612909565b8284526020838301011161298057816000926020809301838601378301015290565b600080fd5b906020808351928381520192019060005b8181106129a35750505090565b825160ff16845260209384019390920191600101612996565b6060600319820112612980576004356001600160401b03811161298057816129e69160040161292a565b916024356001600160401b0381116129805782612a059160040161292a565b91604435906001600160401b03821161298057612a249160040161292a565b90565b906020808351928381520192019060005b818110612a455750505090565b8251845260209384019390920191600101612a38565b60005b838110612a6e5750506000910152565b8181015183820152602001612a5e565b90602091612a9781518092818552858086019101612a5b565b601f01601f1916010190565b9080602083519182815201916020808360051b8301019401926000915b838310612acf57505050505090565b9091929394602080612aed600193601f198682030187528951612a7e565b97019301930191939290612ac0565b92612b28612a249593612b1a612b3694608088526080880190612985565b908682036020880152612985565b908482036040860152612a27565b916060818403910152612aa3565b60021115612b4e57565b634e487b7160e01b600052602160045260246000fd5b600554811015612b83576005600052600a602060002091020190600090565b634e487b7160e01b600052603260045260246000fd5b600654811015612b83576006600052600a602060002091020190600090565b90600182811c92168015612be8575b6020831014612bd257565b634e487b7160e01b600052602260045260246000fd5b91607f1691612bc7565b60009291815491612c0283612bb8565b8083529260018116908115612c585750600114612c1e57505050565b60009081526020812093945091925b838310612c3e575060209250010190565b600181602092949394548385870101520191019190612c2d565b915050602093945060ff929192191683830152151560051b010190565b906009821015612b4e5752565b9793612d099793612cd891612cbb612a249e9c989995612cad612ce3966101608f8181520190612a7e565b8d810360208f015290612a7e565b6001600160a01b0390921660408c01528a820360608c0152612a7e565b956080890190612c75565b612cec81612b44565b60a087015260c086015260e0850152838203610100850152612a7e565b6001600160a01b0390931661012082015280830361014090910152612a7e565b6064359060ff8216820361298057565b9390612a249593612d6a612d8694612d5c612d789460a08a5260a08a0190612985565b9088820360208a0152612aa3565b908682036040880152612985565b908482036060860152612a27565b916080818403910152612aa3565b92612dce90612dc060609460ff9498979860018060a01b03168752608060208801526080870190612a7e565b908582036040870152612a7e565b9416910152565b60009291815491612de583612bb8565b9260018116908115612e305750600114612dfe57505050565b909192935060005260206000206000905b838210612e1c5750500190565b600181602092548486015201910190612e0f565b60ff191683525050811515909102019150565b6000198114612e525760010190565b634e487b7160e01b600052601160045260246000fd5b6001600160401b0381116128d85760051b60200190565b90612e8982612e68565b612e966040519182612909565b8281528092612ea7601f1991612e68565b0190602036910137565b8051821015612b835760209160051b010190565b90816020910312612980575180151581036129805790565b60041115612b4e57565b15612eee57565b60405162461bcd60e51b815260206004820152601e60248201527f416363657373207265737472696374656420746f2042504f4d20726f6c6500006044820152606490fd5b15612f3a57565b60405162461bcd60e51b815260206004820152601f60248201527f43504f544220737461747573206d7573742062652052657175657374656421006044820152606490fd5b90612f8981612b44565b61ff0082549160081b169061ff001916179055565b95949390608093612fcb612fe794612fd99360018060a01b03168a5260a060208b015260a08a0190612a7e565b9088820360408a0152612bf2565b908682036060880152612a7e565b930152565b60405190612ff9826128bc565b60606101408382815282602082015260006040820152828082015260006080820152600060a0820152600060c0820152600060e08201528261010082015260006101208201520152565b6009821015612b4e5752565b906009610140604051613061816128bc565b613143819560405161307781610a9d8185612bf2565b835260405161308d81610a9d8160018601612bf2565b602084015260028101546001600160a01b0316604080850191909152516130bb81610a9d8160038601612bf2565b606084015260ff60048201546130d682821660808701613043565b60081c166130e381612b44565b60a0840152600581015460c0840152600681015460e084015260405161311081610a9d8160078601612bf2565b61010084015260088101546001600160a01b031661012084015260405194859161313c91839101612bf2565b0384612909565b0152565b9061315182612e68565b61315e6040519182612909565b828152809261316f601f1991612e68565b019060005b82811061318057505050565b806060602080938501015201613174565b1561319857565b60405162461bcd60e51b815260206004820152601a60248201527f4e6f206461746120666f756e6420666f7220746869732049442e0000000000006044820152606490fd5b9060096101406040516131ef816128bc565b613143819560405161320581610a9d8185612bf2565b835260405161321b81610a9d8160018601612bf2565b602084015260028101546001600160a01b03166040808501919091525161324981610a9d8160038601612bf2565b606084015260ff600482015481811661326181612b44565b608086015260081c166130e381612b44565b909182519283516001600160401b0381116128d8576132928454612bb8565b601f8111613869575b50602094601f8211600114613804579481929394956000926137f9575b50508160011b916000199060031b1c19161783555b6001830160208201518051906001600160401b0382116128d85781906132f38454612bb8565b601f81116137a6575b50602090601f831160011461374157600092613736575b50508160011b916000199060031b1c19161790555b60408101516002840180546001600160a01b0319166001600160a01b03929092169190911790556060810151805160038501916001600160401b0382116128d85781906133758454612bb8565b601f81116136e3575b50602090601f831160011461367e57600092613673575b50508160011b916000199060031b1c19161790555b608081015192600481016009851015612b4e576133e49060009560ff8019835416911617815560a0840151906133df82612b44565b612f7f565b60c0820151600582015560e08201516006820155600781016101008301518051906001600160401b03821161365f5761341d8354612bb8565b601f811161361a575b50602090601f83116001146135b05791806009949261014096948a926135a5575b50508160011b916000199060031b1c19161790555b6101208401516008820180546001600160a01b0319166001600160a01b039290921691909117905591909201518051909492909101916001600160401b038211613591576134aa8354612bb8565b601f811161354c575b50602090601f83116001146134ee579482939495926134e3575b50508160011b916000199060031b1c1916179055565b0151905038806134cd565b90601f198316848352818320925b8181106135345750958360019596971061351b575b505050811b019055565b015160001960f88460031b161c19169055388080613511565b9192602060018192868b0151815501940192016134fc565b83825260208220601f840160051c81019160208510613587575b601f0160051c01905b81811061357c57506134b3565b82815560010161356f565b9091508190613566565b634e487b7160e01b81526041600452602490fd5b015190503880613447565b8388528188209190601f198416895b8181106136025750926001928592610140989660099896106135e9575b505050811b01905561345c565b015160001960f88460031b161c191690553880806135dc565b929360206001819287860151815501950193016135bf565b83885260208820601f840160051c81019160208510613655575b601f0160051c01905b81811061364a5750613426565b88815560010161363d565b9091508190613634565b634e487b7160e01b87526041600452602487fd5b015190503880613395565b60008581528281209350601f198516905b8181106136cb57509084600195949392106136b2575b505050811b0190556133aa565b015160001960f88460031b161c191690553880806136a5565b9293602060018192878601518155019501930161368f565b909150836000526020600020601f840160051c8101916020851061372c575b90601f859493920160051c01905b81811061371d575061337e565b60008155849350600101613710565b9091508190613702565b015190503880613313565b60008581528281209350601f198516905b81811061378e5750908460019594939210613775575b505050811b019055613328565b015160001960f88460031b161c19169055388080613768565b92936020600181928786015181550195019301613752565b909150836000526020600020601f840160051c810191602085106137ef575b90601f859493920160051c01905b8181106137e057506132fc565b600081558493506001016137d3565b90915081906137c5565b0151905038806132b8565b601f1982169585600052806000209160005b88811061385157508360019596979810613838575b505050811b0183556132cd565b015160001960f88460031b161c1916905538808061382b565b91926020600181928685015181550194019201613816565b846000526020600020601f830160051c810191602084106138a7575b601f0160051c01905b81811061389b575061329b565b6000815560010161388e565b9091508190613885565b9181519283516001600160401b0381116128d8576138cf8254612bb8565b601f8111613e65575b50602094601f8211600114613e0057948192939495600092613df5575b50508160011b916000199060031b1c19161781555b6001810160208401518051906001600160401b0382116128d85781906139308454612bb8565b601f8111613da2575b50602090601f8311600114613d3d57600092613d32575b50508160011b916000199060031b1c19161790555b60408301516002820180546001600160a01b0319166001600160a01b03929092169190911790556060830151805160038301916001600160401b0382116128d85781906139b28454612bb8565b601f8111613cdf575b50602090601f8311600114613c7a57600092613c6f575b50508160011b916000199060031b1c19161790555b613a206004820160808501516139fc81612b44565b613a0581612b44565b60ff8019835416911617815560a0850151906133df82612b44565b60c0830151600582015560e08301516006820155600781016101008401518051906001600160401b0382116128d857613a598354612bb8565b601f8111613c27575b50602090601f8311600114613bb9579180600994926101409694600092613bae575b50508160011b916000199060031b1c19161790555b6101208501516008820180546001600160a01b0319166001600160a01b0392909216919091179055919093015180519093909101906001600160401b0381116128d857613ae68254612bb8565b601f8111613b66575b506020601f8211600114613b1e57819293946000926134e35750508160011b916000199060031b1c1916179055565b601f1982169083600052806000209160005b818110613b4e5750958360019596971061351b57505050811b019055565b9192602060018192868b015181550194019201613b30565b826000526020600020601f830160051c81019160208410613ba4575b601f0160051c01905b818110613b985750613aef565b60008155600101613b8b565b9091508190613b82565b015190503880613a84565b90601f1983169184600052816000209260005b818110613c0f575092600192859261014098966009989610613bf6575b505050811b019055613a99565b015160001960f88460031b161c19169055388080613be9565b92936020600181928786015181550195019301613bcc565b836000526020600020601f840160051c81019160208510613c65575b601f0160051c01905b818110613c595750613a62565b60008155600101613c4c565b9091508190613c43565b0151905038806139d2565b60008581528281209350601f198516905b818110613cc75750908460019594939210613cae575b505050811b0190556139e7565b015160001960f88460031b161c19169055388080613ca1565b92936020600181928786015181550195019301613c8b565b909150836000526020600020601f840160051c81019160208510613d28575b90601f859493920160051c01905b818110613d1957506139bb565b60008155849350600101613d0c565b9091508190613cfe565b015190503880613950565b60008581528281209350601f198516905b818110613d8a5750908460019594939210613d71575b505050811b019055613965565b015160001960f88460031b161c19169055388080613d64565b92936020600181928786015181550195019301613d4e565b909150836000526020600020601f840160051c81019160208510613deb575b90601f859493920160051c01905b818110613ddc5750613939565b60008155849350600101613dcf565b9091508190613dc1565b0151905038806138f5565b601f1982169583600052806000209160005b888110613e4d57508360019596979810613e34575b505050811b01815561390a565b015160001960f88460031b161c19169055388080613e27565b91926020600181928685015181550194019201613e12565b826000526020600020601f830160051c81019160208410613ea3575b601f0160051c01905b818110613e9757506138d8565b60008155600101613e8a565b9091508190613e8156feedc9920ea2d8611e7d985ecf390206409122b6df9a9c529063c5311531494be1a26469706673582212207d067fe1d951689cd34319d3de6f4065c9774daf912937607da197a587825a4d64736f6c634300081b0033",
  "linkReferences": {},
  "deployedLinkReferences": {}
}