{
  "_format": "hh-sol-artifact-1",
  "contractName": "MainSupplyChain",
  "sourceName": "contracts/MainSupplyChain.sol",
  "abi": [
    {
      "inputs": [],
      "stateMutability": "nonpayable",
      "type": "constructor"
    },
    {
      "anonymous": false,
      "inputs": [
        {
          "indexed": false,
          "internalType": "address",
          "name": "userAddr",
          "type": "address"
        },
        {
          "indexed": false,
          "internalType": "string",
          "name": "name",
          "type": "string"
        },
        {
          "indexed": false,
          "internalType": "enum MainSupplyChain.en_roles",
          "name": "role",
          "type": "uint8"
        }
      ],
      "name": "evt_UserRegistered",
      "type": "event"
    },
    {
      "anonymous": false,
      "inputs": [
        {
          "indexed": false,
          "internalType": "address",
          "name": "bpomAddr",
          "type": "address"
        },
        {
          "indexed": false,
          "internalType": "string",
          "name": "factoryName",
          "type": "string"
        },
        {
          "indexed": false,
          "internalType": "string",
          "name": "cpotbNumber",
          "type": "string"
        },
        {
          "indexed": false,
          "internalType": "uint256",
          "name": "timestampApprove",
          "type": "uint256"
        }
      ],
      "name": "evt_cpotbApproved",
      "type": "event"
    },
    {
      "anonymous": false,
      "inputs": [
        {
          "indexed": false,
          "internalType": "address",
          "name": "factoryAddr",
          "type": "address"
        },
        {
          "indexed": false,
          "internalType": "string",
          "name": "factoryName",
          "type": "string"
        },
        {
          "indexed": false,
          "internalType": "enum MainSupplyChain.en_jenisSediaan",
          "name": "jenisSediaan",
          "type": "uint8"
        },
        {
          "indexed": false,
          "internalType": "uint256",
          "name": "timestampRequest",
          "type": "uint256"
        }
      ],
      "name": "evt_cpotbRequested",
      "type": "event"
    },
    {
      "inputs": [
        {
          "internalType": "address",
          "name": "_userAddr",
          "type": "address"
        }
      ],
      "name": "getRegisteredUser",
      "outputs": [
        {
          "internalType": "address",
          "name": "",
          "type": "address"
        },
        {
          "internalType": "string",
          "name": "",
          "type": "string"
        },
        {
          "internalType": "uint8",
          "name": "",
          "type": "uint8"
        }
      ],
      "stateMutability": "view",
      "type": "function"
    },
    {
      "inputs": [],
      "name": "owner",
      "outputs": [
        {
          "internalType": "address",
          "name": "",
          "type": "address"
        }
      ],
      "stateMutability": "view",
      "type": "function"
    },
    {
      "inputs": [
        {
          "internalType": "string",
          "name": "_name",
          "type": "string"
        },
        {
          "internalType": "string",
          "name": "_email",
          "type": "string"
        },
        {
          "internalType": "address",
          "name": "_userAddr",
          "type": "address"
        },
        {
          "internalType": "uint8",
          "name": "_userRole",
          "type": "uint8"
        }
      ],
      "name": "registerUser",
      "outputs": [],
      "stateMutability": "nonpayable",
      "type": "function"
    },
    {
      "inputs": [
        {
          "internalType": "string",
          "name": "_factoryName",
          "type": "string"
        },
        {
          "internalType": "string",
          "name": "_cpotbId",
          "type": "string"
        },
        {
          "internalType": "enum MainSupplyChain.en_jenisSediaan",
          "name": "_jenisSediaan",
          "type": "uint8"
        }
      ],
      "name": "requestCpotb",
      "outputs": [],
      "stateMutability": "nonpayable",
      "type": "function"
    },
    {
      "inputs": [
        {
          "internalType": "address",
          "name": "",
          "type": "address"
        }
      ],
      "name": "userRoles",
      "outputs": [
        {
          "internalType": "enum MainSupplyChain.en_roles",
          "name": "",
          "type": "uint8"
        }
      ],
      "stateMutability": "view",
      "type": "function"
    }
  ],
  "bytecode": "0x60808060405234602757600080546001600160a01b03191633179055610ed0908161002d8239f35b600080fdfe6080604052600436101561001257600080fd5b60003560e01c8063073f2554146106a557806374d5e100146106615780638da5cb5b14610638578063d1233672146101895763e54a29bb1461005357600080fd5b34610184576020366003190112610184576001600160a01b03610074610d45565b1680600052600360205260ff604060002054161561014657600052600160205260406000206002604051916100a883610cb3565b6100b181610df6565b83526100bf60018201610df6565b602084015201546001600160a01b038116604083019081526060830192916100ed9060a01c60ff1684610dea565b51905191516001600160a01b039091169060058110156101305760ff6101256040519485948552606060208601526060850190610d8b565b911660408301520390f35b634e487b7160e01b600052602160045260246000fd5b60405162461bcd60e51b8152602060048201526016602482015275155cd95c881a5cc81b9bdd081c9959da5cdd195c995960521b6044820152606490fd5b600080fd5b34610184576080366003190112610184576004356001600160401b038111610184576101b9903690600401610cef565b6024356001600160401b038111610184576101d8903690600401610cef565b906044356001600160a01b0381169190829003610184576064359160ff831680930361018457604060008061026161027584516102158682610cce565b602081527f5265676973746572557365722066756e6374696f6e2063616c6c65642062793a6020820152855192839163319af33360e01b60208401528760248401526064830190610d8b565b87604483015203601f198101835282610cce565b6020815191016a636f6e736f6c652e6c6f675afa506000806102d86102ec845161029f8682610cce565b600a8152692ab9b2b9102937b6329d60b11b60208201528551928391632d839cb360e21b60208401528760248401526064830190610d8b565b89604483015203601f198101835282610cce565b6020815191016a636f6e736f6c652e6c6f675afa5060058410156101305780519461031686610cb3565b838652602086019081528186019583875260608101916103368784610dea565b8460005260016020528360002091518051906001600160401b03821161055f5781906103628554610db0565b601f81116105e5575b50602090601f831160011461058057600092610575575b50508160011b916000199060031b1c19161782555b51805160018301916001600160401b03821161055f576103b78354610db0565b601f8111610517575b50602090601f83116001146104ac57600294939291600091836104a1575b50508160011b916000199060031b1c19161790555b9651960180546001600160a01b0319166001600160a01b039790971696909617865551946005861015610130577fa4b4a4f9197eb52b65944f57348759ea717338f8a8f998a585d243350c2babb49461049b9160009781549060ff60a01b9060a01b169060ff60a01b19161790558387526003602052828720600160ff1982541617905561049283519586958652606060208701526060860190610d8b565b92840190610d5b565b0390a180f35b015190508b806103de565b90601f1983169184600052816000209260005b8181106104ff5750916001939185600298979694106104e6575b505050811b0190556103f3565b015160001960f88460031b161c191690558b80806104d9565b929360206001819287860151815501950193016104bf565b836000526020600020601f840160051c81019160208510610555575b601f0160051c01905b81811061054957506103c0565b6000815560010161053c565b9091508190610533565b634e487b7160e01b600052604160045260246000fd5b015190508a80610382565b60008681528281209350601f198516905b8181106105cd57509084600195949392106105b4575b505050811b018255610397565b015160001960f88460031b161c191690558a80806105a7565b92936020600181928786015181550195019301610591565b909150846000526020600020601f840160051c8101916020851061062e575b90601f859493920160051c01905b81811061061f575061036b565b60008155849350600101610612565b9091508190610604565b34610184576000366003190112610184576000546040516001600160a01b039091168152602090f35b34610184576020366003190112610184576001600160a01b03610682610d45565b166000526002602052602060ff604060002054166106a36040518092610d5b565bf35b34610184576060366003190112610184576004356001600160401b038111610184576106d5903690600401610cef565b6024356001600160401b038111610184576106f4903690600401610cef565b90600460443510156101845733600052600260205260ff60406000205416600581101561013057610c55576040519061012082018281106001600160401b0382111761055f5760405282825233602083015280604083015260009160443560608201528260808201524260a08201528260c082015261079f6020809560405161077d8382610cce565b86815260e0850152856101008501528160405193828580945193849201610d68565b810160048152030190209080518051906001600160401b038211610b885781906107c98554610db0565b601f8111610c0a575b508790601f8311600114610ba7578792610b9c575b50508160011b916000199060031b1c19161782555b60208101516001830180546001600160a01b0319166001600160a01b039290921691909117905560408101518051906001600160401b038211610b885781906108486002860154610db0565b601f8111610b37575b508790601f8311600114610ace578792610ac3575b50508160011b916000199060031b1c19161760028301555b6003820160608201516004811015610aaf57815460808401516002811015610a9b5761ff0060ff9160081b1692169061ffff19161717905560a0810151600483015560c081015160058301556006820160e08201518051906001600160401b038211610a87576108ee8354610db0565b601f8111610a44575b508790601f83116001146109b457937f049e76e91025405eedce49e32cc9d74332e4fb2afee67d815af84b0e588692c6989693838997946007946109949860809c926109a9575b50508160011b916000199060031b1c19161790555b6101000151910180546001600160a01b0319166001600160a01b03929092169190911790556040513381529384019490945291928392906080840190610d8b565b905060443560408301524260608301520390a1005b015190508c8061093e565b8388528888209190601f198416895b818110610a2d57508460079461099498947f049e76e91025405eedce49e32cc9d74332e4fb2afee67d815af84b0e588692c69d9b989460809d9b9860019510610a14575b505050811b019055610953565b015160001960f88460031b161c191690558c8080610a07565b92938b6001819287860151815501950193016109c3565b838852888820601f840160051c8101918a8510610a7d575b601f0160051c01905b818110610a7257506108f7565b888155600101610a65565b9091508190610a5c565b634e487b7160e01b87526041600452602487fd5b634e487b7160e01b88526021600452602488fd5b634e487b7160e01b86526021600452602486fd5b015190508780610866565b6002860188528888209250601f198416885b8a828210610b21575050908460019594939210610b08575b505050811b01600283015561087e565b015160001960f88460031b161c19169055878080610af8565b6001859682939686015181550195019301610ae0565b909150600285018752878720601f840160051c810191898510610b7e575b90601f859493920160051c01905b818110610b705750610851565b888155849350600101610b63565b9091508190610b55565b634e487b7160e01b86526041600452602486fd5b0151905087806107e7565b8588528888209250601f198416885b8a828210610bf4575050908460019594939210610bdb575b505050811b0182556107fc565b015160001960f88460031b161c19169055878080610bce565b6001859682939686015181550195019301610bb6565b909150848752878720601f840160051c8101898510610c4e575b90849392915b601f830160051c82018110610c405750506107d2565b898155859450600101610c2a565b5080610c24565b60405162461bcd60e51b815260206004820152603060248201527f536f7272792c20796f7520646f6e2774206861766520617574686f72697a656460448201526f20746f2061636365737320746869732160801b6064820152608490fd5b608081019081106001600160401b0382111761055f57604052565b90601f801991011681019081106001600160401b0382111761055f57604052565b81601f82011215610184578035906001600160401b03821161055f5760405192610d23601f8401601f191660200185610cce565b8284526020838301011161018457816000926020809301838601378301015290565b600435906001600160a01b038216820361018457565b9060058210156101305752565b60005b838110610d7b5750506000910152565b8181015183820152602001610d6b565b90602091610da481518092818552858086019101610d68565b601f01601f1916010190565b90600182811c92168015610de0575b6020831014610dca57565b634e487b7160e01b600052602260045260246000fd5b91607f1691610dbf565b60058210156101305752565b9060405191826000825492610e0a84610db0565b8084529360018116908115610e785750600114610e31575b50610e2f92500383610cce565b565b90506000929192526020600020906000915b818310610e5c575050906020610e2f9282010138610e22565b6020919350806001915483858901015201910190918492610e43565b905060209250610e2f94915060ff191682840152151560051b82010138610e2256fea26469706673582212200250cc6cbd700a76e55c5e2001a3939ae22dc4c4c4fda1119b68816a4895dc5664736f6c634300081b0033",
  "linkReferences": {},
  "deployedLinkReferences": {}
}