{
  "_format": "hh-sol-artifact-1",
  "contractName": "MainSupplyChain",
  "sourceName": "contracts/MainSupplyChain.sol",
  "abi": [
    {
      "inputs": [
        {
          "internalType": "address",
          "name": "_roleManagerAddr",
          "type": "address"
        }
      ],
      "stateMutability": "nonpayable",
      "type": "constructor"
    },
    {
      "anonymous": false,
      "inputs": [
        {
          "indexed": false,
          "internalType": "address",
          "name": "userAddr",
          "type": "address"
        },
        {
          "indexed": false,
          "internalType": "string",
          "name": "name",
          "type": "string"
        },
        {
          "indexed": false,
          "internalType": "string",
          "name": "instanceName",
          "type": "string"
        },
        {
          "indexed": false,
          "internalType": "uint8",
          "name": "role",
          "type": "uint8"
        }
      ],
      "name": "evt_UserRegistered",
      "type": "event"
    },
    {
      "anonymous": false,
      "inputs": [
        {
          "indexed": false,
          "internalType": "address",
          "name": "bpomAddr",
          "type": "address"
        },
        {
          "indexed": false,
          "internalType": "string",
          "name": "receiverName",
          "type": "string"
        },
        {
          "indexed": false,
          "internalType": "string",
          "name": "pbfName",
          "type": "string"
        },
        {
          "indexed": false,
          "internalType": "string",
          "name": "cdobNumber",
          "type": "string"
        },
        {
          "indexed": false,
          "internalType": "uint256",
          "name": "timestampApprove",
          "type": "uint256"
        }
      ],
      "name": "evt_cdobApptoved",
      "type": "event"
    },
    {
      "anonymous": false,
      "inputs": [
        {
          "indexed": false,
          "internalType": "string",
          "name": "senderName",
          "type": "string"
        },
        {
          "indexed": false,
          "internalType": "address",
          "name": "pbfAddr",
          "type": "address"
        },
        {
          "indexed": false,
          "internalType": "string",
          "name": "pbfName",
          "type": "string"
        },
        {
          "indexed": false,
          "internalType": "enum MainSupplyChain.en_tipePermohonan",
          "name": "tipePermohonan",
          "type": "uint8"
        },
        {
          "indexed": false,
          "internalType": "string",
          "name": "cdobId",
          "type": "string"
        },
        {
          "indexed": false,
          "internalType": "uint256",
          "name": "timestampRequest",
          "type": "uint256"
        }
      ],
      "name": "evt_cdobRequested",
      "type": "event"
    },
    {
      "anonymous": false,
      "inputs": [
        {
          "indexed": false,
          "internalType": "address",
          "name": "bpomAddr",
          "type": "address"
        },
        {
          "indexed": false,
          "internalType": "string",
          "name": "receiverName",
          "type": "string"
        },
        {
          "indexed": false,
          "internalType": "string",
          "name": "factoryName",
          "type": "string"
        },
        {
          "indexed": false,
          "internalType": "string",
          "name": "cpotbNumber",
          "type": "string"
        },
        {
          "indexed": false,
          "internalType": "uint256",
          "name": "timestampApprove",
          "type": "uint256"
        }
      ],
      "name": "evt_cpotbApproved",
      "type": "event"
    },
    {
      "anonymous": false,
      "inputs": [
        {
          "indexed": false,
          "internalType": "string",
          "name": "senderName",
          "type": "string"
        },
        {
          "indexed": false,
          "internalType": "address",
          "name": "factoryAddr",
          "type": "address"
        },
        {
          "indexed": false,
          "internalType": "string",
          "name": "factoryName",
          "type": "string"
        },
        {
          "indexed": false,
          "internalType": "enum MainSupplyChain.en_jenisSediaan",
          "name": "jenisSediaan",
          "type": "uint8"
        },
        {
          "indexed": false,
          "internalType": "string",
          "name": "cpotbId",
          "type": "string"
        },
        {
          "indexed": false,
          "internalType": "uint256",
          "name": "timestampRequest",
          "type": "uint256"
        }
      ],
      "name": "evt_cpotbRequested",
      "type": "event"
    },
    {
      "inputs": [
        {
          "internalType": "uint256",
          "name": "",
          "type": "uint256"
        }
      ],
      "name": "allCdobData",
      "outputs": [
        {
          "internalType": "string",
          "name": "cdobId",
          "type": "string"
        },
        {
          "internalType": "string",
          "name": "senderName",
          "type": "string"
        },
        {
          "internalType": "address",
          "name": "pbfAddr",
          "type": "address"
        },
        {
          "internalType": "string",
          "name": "pbfName",
          "type": "string"
        },
        {
          "internalType": "enum MainSupplyChain.en_tipePermohonan",
          "name": "tipePermohonan",
          "type": "uint8"
        },
        {
          "internalType": "enum MainSupplyChain.en_statusCert",
          "name": "status",
          "type": "uint8"
        },
        {
          "internalType": "uint256",
          "name": "timestampRequest",
          "type": "uint256"
        },
        {
          "internalType": "uint256",
          "name": "timestampApprove",
          "type": "uint256"
        },
        {
          "internalType": "string",
          "name": "cdobNumber",
          "type": "string"
        },
        {
          "internalType": "address",
          "name": "bpomAddr",
          "type": "address"
        },
        {
          "internalType": "string",
          "name": "receiverName",
          "type": "string"
        }
      ],
      "stateMutability": "view",
      "type": "function"
    },
    {
      "inputs": [
        {
          "internalType": "uint256",
          "name": "",
          "type": "uint256"
        }
      ],
      "name": "allCpotbData",
      "outputs": [
        {
          "internalType": "string",
          "name": "cpotbId",
          "type": "string"
        },
        {
          "internalType": "string",
          "name": "senderName",
          "type": "string"
        },
        {
          "internalType": "address",
          "name": "factoryAddr",
          "type": "address"
        },
        {
          "internalType": "string",
          "name": "factoryName",
          "type": "string"
        },
        {
          "internalType": "enum MainSupplyChain.en_jenisSediaan",
          "name": "jenisSediaan",
          "type": "uint8"
        },
        {
          "internalType": "enum MainSupplyChain.en_statusCert",
          "name": "status",
          "type": "uint8"
        },
        {
          "internalType": "uint256",
          "name": "timestampRequest",
          "type": "uint256"
        },
        {
          "internalType": "uint256",
          "name": "timestampApprove",
          "type": "uint256"
        },
        {
          "internalType": "string",
          "name": "cpotbNumber",
          "type": "string"
        },
        {
          "internalType": "address",
          "name": "bpomAddr",
          "type": "address"
        },
        {
          "internalType": "string",
          "name": "receiverName",
          "type": "string"
        }
      ],
      "stateMutability": "view",
      "type": "function"
    },
    {
      "inputs": [
        {
          "internalType": "string",
          "name": "_cdobId",
          "type": "string"
        },
        {
          "internalType": "string",
          "name": "_cdobNumber",
          "type": "string"
        },
        {
          "internalType": "string",
          "name": "_receiverName",
          "type": "string"
        }
      ],
      "name": "approveCdob",
      "outputs": [],
      "stateMutability": "nonpayable",
      "type": "function"
    },
    {
      "inputs": [
        {
          "internalType": "string",
          "name": "_cpotbId",
          "type": "string"
        },
        {
          "internalType": "string",
          "name": "_cpotbNumber",
          "type": "string"
        },
        {
          "internalType": "string",
          "name": "_receiverName",
          "type": "string"
        }
      ],
      "name": "approveCpotb",
      "outputs": [],
      "stateMutability": "nonpayable",
      "type": "function"
    },
    {
      "inputs": [
        {
          "internalType": "string",
          "name": "",
          "type": "string"
        }
      ],
      "name": "cpotbDataById",
      "outputs": [
        {
          "internalType": "string",
          "name": "cpotbId",
          "type": "string"
        },
        {
          "internalType": "string",
          "name": "senderName",
          "type": "string"
        },
        {
          "internalType": "address",
          "name": "factoryAddr",
          "type": "address"
        },
        {
          "internalType": "string",
          "name": "factoryName",
          "type": "string"
        },
        {
          "internalType": "enum MainSupplyChain.en_jenisSediaan",
          "name": "jenisSediaan",
          "type": "uint8"
        },
        {
          "internalType": "enum MainSupplyChain.en_statusCert",
          "name": "status",
          "type": "uint8"
        },
        {
          "internalType": "uint256",
          "name": "timestampRequest",
          "type": "uint256"
        },
        {
          "internalType": "uint256",
          "name": "timestampApprove",
          "type": "uint256"
        },
        {
          "internalType": "string",
          "name": "cpotbNumber",
          "type": "string"
        },
        {
          "internalType": "address",
          "name": "bpomAddr",
          "type": "address"
        },
        {
          "internalType": "string",
          "name": "receiverName",
          "type": "string"
        }
      ],
      "stateMutability": "view",
      "type": "function"
    },
    {
      "inputs": [],
      "name": "getListAllCdob",
      "outputs": [
        {
          "internalType": "uint8[]",
          "name": "",
          "type": "uint8[]"
        },
        {
          "internalType": "string[]",
          "name": "",
          "type": "string[]"
        },
        {
          "internalType": "uint8[]",
          "name": "",
          "type": "uint8[]"
        },
        {
          "internalType": "uint256[]",
          "name": "",
          "type": "uint256[]"
        },
        {
          "internalType": "string[]",
          "name": "",
          "type": "string[]"
        }
      ],
      "stateMutability": "view",
      "type": "function"
    },
    {
      "inputs": [],
      "name": "getListAllCpotb",
      "outputs": [
        {
          "internalType": "uint8[]",
          "name": "",
          "type": "uint8[]"
        },
        {
          "internalType": "string[]",
          "name": "",
          "type": "string[]"
        },
        {
          "internalType": "uint8[]",
          "name": "",
          "type": "uint8[]"
        },
        {
          "internalType": "uint256[]",
          "name": "",
          "type": "uint256[]"
        },
        {
          "internalType": "string[]",
          "name": "",
          "type": "string[]"
        }
      ],
      "stateMutability": "view",
      "type": "function"
    },
    {
      "inputs": [
        {
          "internalType": "string",
          "name": "_cdobId",
          "type": "string"
        }
      ],
      "name": "getListCdobById",
      "outputs": [
        {
          "components": [
            {
              "internalType": "string",
              "name": "cdobId",
              "type": "string"
            },
            {
              "internalType": "string",
              "name": "senderName",
              "type": "string"
            },
            {
              "internalType": "address",
              "name": "pbfAddr",
              "type": "address"
            },
            {
              "internalType": "string",
              "name": "pbfName",
              "type": "string"
            },
            {
              "internalType": "enum MainSupplyChain.en_tipePermohonan",
              "name": "tipePermohonan",
              "type": "uint8"
            },
            {
              "internalType": "enum MainSupplyChain.en_statusCert",
              "name": "status",
              "type": "uint8"
            },
            {
              "internalType": "uint256",
              "name": "timestampRequest",
              "type": "uint256"
            },
            {
              "internalType": "uint256",
              "name": "timestampApprove",
              "type": "uint256"
            },
            {
              "internalType": "string",
              "name": "cdobNumber",
              "type": "string"
            },
            {
              "internalType": "address",
              "name": "bpomAddr",
              "type": "address"
            },
            {
              "internalType": "string",
              "name": "receiverName",
              "type": "string"
            }
          ],
          "internalType": "struct MainSupplyChain.st_cdobData",
          "name": "",
          "type": "tuple"
        }
      ],
      "stateMutability": "view",
      "type": "function"
    },
    {
      "inputs": [
        {
          "internalType": "string",
          "name": "_instanceName",
          "type": "string"
        }
      ],
      "name": "getListCdobByPbf",
      "outputs": [
        {
          "internalType": "uint8[]",
          "name": "",
          "type": "uint8[]"
        },
        {
          "internalType": "uint8[]",
          "name": "",
          "type": "uint8[]"
        },
        {
          "internalType": "uint256[]",
          "name": "",
          "type": "uint256[]"
        },
        {
          "internalType": "string[]",
          "name": "",
          "type": "string[]"
        }
      ],
      "stateMutability": "view",
      "type": "function"
    },
    {
      "inputs": [
        {
          "internalType": "string",
          "name": "_instanceName",
          "type": "string"
        }
      ],
      "name": "getListCpotbByFactory",
      "outputs": [
        {
          "internalType": "uint8[]",
          "name": "",
          "type": "uint8[]"
        },
        {
          "internalType": "uint8[]",
          "name": "",
          "type": "uint8[]"
        },
        {
          "internalType": "uint256[]",
          "name": "",
          "type": "uint256[]"
        },
        {
          "internalType": "string[]",
          "name": "",
          "type": "string[]"
        }
      ],
      "stateMutability": "view",
      "type": "function"
    },
    {
      "inputs": [
        {
          "internalType": "string",
          "name": "_cpotbId",
          "type": "string"
        }
      ],
      "name": "getListCpotbById",
      "outputs": [
        {
          "components": [
            {
              "internalType": "string",
              "name": "cpotbId",
              "type": "string"
            },
            {
              "internalType": "string",
              "name": "senderName",
              "type": "string"
            },
            {
              "internalType": "address",
              "name": "factoryAddr",
              "type": "address"
            },
            {
              "internalType": "string",
              "name": "factoryName",
              "type": "string"
            },
            {
              "internalType": "enum MainSupplyChain.en_jenisSediaan",
              "name": "jenisSediaan",
              "type": "uint8"
            },
            {
              "internalType": "enum MainSupplyChain.en_statusCert",
              "name": "status",
              "type": "uint8"
            },
            {
              "internalType": "uint256",
              "name": "timestampRequest",
              "type": "uint256"
            },
            {
              "internalType": "uint256",
              "name": "timestampApprove",
              "type": "uint256"
            },
            {
              "internalType": "string",
              "name": "cpotbNumber",
              "type": "string"
            },
            {
              "internalType": "address",
              "name": "bpomAddr",
              "type": "address"
            },
            {
              "internalType": "string",
              "name": "receiverName",
              "type": "string"
            }
          ],
          "internalType": "struct MainSupplyChain.st_cpotbData",
          "name": "",
          "type": "tuple"
        }
      ],
      "stateMutability": "view",
      "type": "function"
    },
    {
      "inputs": [
        {
          "internalType": "address",
          "name": "_userAddr",
          "type": "address"
        }
      ],
      "name": "getRegisteredUser",
      "outputs": [
        {
          "internalType": "address",
          "name": "",
          "type": "address"
        },
        {
          "internalType": "string",
          "name": "",
          "type": "string"
        },
        {
          "internalType": "string",
          "name": "",
          "type": "string"
        },
        {
          "internalType": "uint8",
          "name": "",
          "type": "uint8"
        }
      ],
      "stateMutability": "view",
      "type": "function"
    },
    {
      "inputs": [
        {
          "internalType": "string",
          "name": "_name",
          "type": "string"
        },
        {
          "internalType": "string",
          "name": "_instanceName",
          "type": "string"
        },
        {
          "internalType": "address",
          "name": "_userAddr",
          "type": "address"
        },
        {
          "internalType": "uint8",
          "name": "_userRole",
          "type": "uint8"
        }
      ],
      "name": "registerUser",
      "outputs": [],
      "stateMutability": "nonpayable",
      "type": "function"
    },
    {
      "inputs": [
        {
          "internalType": "string",
          "name": "_instanceName",
          "type": "string"
        },
        {
          "internalType": "string",
          "name": "_cdobId",
          "type": "string"
        },
        {
          "internalType": "string",
          "name": "_senderName",
          "type": "string"
        },
        {
          "internalType": "enum MainSupplyChain.en_tipePermohonan",
          "name": "_tipePermohonan",
          "type": "uint8"
        }
      ],
      "name": "requestCdob",
      "outputs": [],
      "stateMutability": "nonpayable",
      "type": "function"
    },
    {
      "inputs": [
        {
          "internalType": "string",
          "name": "_instanceName",
          "type": "string"
        },
        {
          "internalType": "string",
          "name": "_cpotbId",
          "type": "string"
        },
        {
          "internalType": "string",
          "name": "_senderName",
          "type": "string"
        },
        {
          "internalType": "enum MainSupplyChain.en_jenisSediaan",
          "name": "_jenisSediaan",
          "type": "uint8"
        }
      ],
      "name": "requestCpotb",
      "outputs": [],
      "stateMutability": "nonpayable",
      "type": "function"
    }
  ],
  "bytecode": "0x608034607057601f613a0f38819003918201601f19168301916001600160401b03831184841017607557808492602094604052833981010312607057516001600160a01b03811690819003607057600080546001600160a01b031916919091179055604051613983908161008c8239f35b600080fd5b634e487b7160e01b600052604160045260246000fdfe6080604052600436101561001257600080fd5b6000803560e01c8063073a4cf814611e0657806314fd887414611bef578063402a124914611b3157806343762aa8146119aa5780636aa81299146119455780637c4535e01461170d578063b0cca61e14611463578063c5f455b41461121d578063cec1fc1e146110ca578063d123367214610cfe578063e54a29bb14610b30578063ec176587146109b8578063ef013be314610344578063f02f5f231461024c5763fbe9a68e146100c257600080fd5b3461024957602036600319011261024957600435906001600160401b0382116102495761024561015b61014c60206100fd3660048801612414565b610105612a4f565b506040519061013b61013482519385818186019661012481838a612545565b81016002815203019020546126a2565b1515612c55565b604051938492839251928391612545565b81016002815203019020612aba565b6040519182916020835261014061021d6101ca61019f610189855161016060208a0152610180890190612568565b6020860151888203601f190160408a0152612568565b60408501516001600160a01b0316606088810191909152850151878203601f19016080890152612568565b60808401516101d88161275f565b60a087015260a08401516101eb8161262e565b60c087015260c084015160e087015260e0840151610100870152610100840151601f1987830301610120880152612568565b6101208301516001600160a01b031685830152910151838203601f1901610160850152612568565b0390f35b80fd5b503461024957602036600319011261024957600435600454811015610340576102749061264e565b506040519061028e8261028781846126dc565b03836123f3565b6102456009604051926102af846102a881600185016126dc565b03856123f3565b60028101546040516001600160a01b03909116956102d48261028781600387016126dc565b600483015460058401549060068501549260405194610301866102fa8160078b016126dc565b03876123f3565b61032960018060a01b0360088901541697610322604051809b8193016126dc565b03896123f3565b6040519a8b9a60ff808660081c169516938c612769565b5080fd5b5034610249576103533661246f565b9192906044602060018060a01b03845416604051928380926395a8c58d60e01b8252336004830152600260248301525afa9081156109ad579061039d91849161097e575b506128c5565b60405192845193602081818801966103b681838a612545565b81016003815203019020946004860161010081546103e360ff8260081c166103dd8161262e565b15612911565b61ff0019161790556007860183516001600160401b0381116107e95761040982546126a2565b601f8111610939575b50806020601f82116001146108d85787916108cd575b508160011b916000199060031b1c19161790555b4260068701556008860180546001600160a01b03191633179055815160098701906001600160401b0381116107e95761047582546126a2565b601f8111610888575b50806020601f821160011461082757879161081c575b508160011b916000199060031b1c19161790555b835b6005548110156107fd576104bd81612683565b506040516104e1816104d360208201809561297c565b03601f1981018352826123f3565b5190206040516020810190610512602082846105018d8a51928391612545565b81010301601f1981018352826123f3565b51902014610522576001016104aa565b919293945050600461053382612683565b5001805461ff001916610100179055600761054d82612683565b500183516001600160401b0381116107e95761056982546126a2565b601f81116107a4575b506020601f821160011461073d579181600994926105d7948991610732575b508160011b916000199060031b1c19161790555b6105ae81612683565b5060064291015560086105c082612683565b500180546001600160a01b03191633179055612683565b5001938151946001600160401b03861161071e576105f581546126a2565b601f81116106d9575b50602095601f81116001146106645790816106539392879860008051602061392e8339815191529891610659575b508160011b916000199060031b1c19161790555b60405193849360034293019033866129ea565b0390a180f35b90508501513861062c565b81865286862096601f198216875b8181106106c157509160008051602061392e833981519152979860019282610653979695106106a8575b5050811b019055610640565b87015160001960f88460031b161c19169055388061069c565b868301518a5560019099019860209283019201610672565b81865260208620601f880160051c81019160208910610714575b601f0160051c01905b81811061070957506105fe565b8681556001016106fc565b90915081906106f3565b634e487b7160e01b85526041600452602485fd5b905087015138610591565b82875280872090601f198316885b81811061078c5750926105d79492600192826009989610610773575b5050811b0190556105a5565b89015160001960f88460031b161c191690553880610767565b9192602060018192868c01518155019401920161074b565b82875260208720601f830160051c810191602084106107df575b601f0160051c01905b8181106107d45750610572565b8781556001016107c7565b90915081906107be565b634e487b7160e01b86526041600452602486fd5b505090919360008051602061392e833981519152935061065390610640565b905084015138610494565b8388528088209150601f198316885b81811061087057509083600194939210610857575b5050811b0190556104a8565b86015160001960f88460031b161c19169055388061084b565b9192602060018192868b015181550194019201610836565b82875260208720601f830160051c810191602084106108c3575b601f0160051c01905b8181106108b8575061047e565b8781556001016108ab565b90915081906108a2565b905085015138610428565b8388528088209150601f198316885b81811061092157509083600194939210610908575b5050811b01905561043c565b87015160001960f88460031b161c1916905538806108fc565b9192602060018192868c0151815501940192016108e7565b82875260208720601f830160051c81019160208410610974575b601f0160051c01905b8181106109695750610412565b87815560010161095c565b9091508190610953565b6109a0915060203d6020116109a6575b61099881836123f3565b8101906128ad565b38610397565b503d61098e565b6040513d85823e3d90fd5b5034610249578060031936011261024957600454906109d682612bd9565b906109e083612c0b565b906109ea84612c0b565b936109f481612bd9565b906109fe81612bd9565b92805b828110610a1d5750505090610245929160405195869586612811565b8060ff6004610a2d60019461264e565b50015416610a3a8161275f565b610a44828a612aa6565b5260ff6004610a528361264e565b50015460081c16610a628161262e565b610a6c8287612aa6565b526003610a93610a7b8361264e565b50610a8c60405180948193016126dc565b03826123f3565b610a9d828b612aa6565b52610aa8818a612aa6565b50610a8c610ac5610ab88361264e565b50604051928380926126dc565b610acf8289612aa6565b52610ada8188612aa6565b506006610ae68261264e565b5001546005610af48361264e565b5001541015610b1d576006610b088261264e565b5001545b610b168288612aa6565b5201610a01565b6005610b288261264e565b500154610b0c565b5034610249576020366003190112610249576004356001600160a01b038116919082900361024957805460405163e2a4128360e01b8152600481018490526001600160a01b039091169290602081602481875afa9081156109ad578391610cdf575b5015610ca1578082526001602052604082209260405192610bb2846123d8565b604051610bc381610a8c81896126dc565b8452602060405195610be387610bdc81600185016126dc565b03886123f3565b858201968752600201546001600160a01b0316604080870191825251634427673360e01b815260048101959095529392839060249082905afa918215610c94578192610c53575b50506102459160018060a01b0390511692519351610c478261275f565b6040519485948561286c565b9091506020813d602011610c8c575b81610c6f602093836123f3565b810103126103405751906004821015610249575061024538610c2a565b3d9150610c62565b50604051903d90823e3d90fd5b60405162461bcd60e51b8152602060048201526016602482015275155cd95c881a5cc81b9bdd081c9959da5cdd195c995960521b6044820152606490fd5b610cf8915060203d6020116109a65761099881836123f3565b38610b92565b5034610249576080366003190112610249576004356001600160401b03811161034057610d2f903690600401612414565b906024356001600160401b03811161034057610d4f903690600401612414565b916044356001600160a01b0381168082036110c6576064359060ff82168092036110c257604051610d7f816123d8565b84815260208101878152604082019083825283885260016020526040882092518051906001600160401b038211610ff0578190610dbc86546126a2565b601f8111611072575b50602090601f831160011461100f578b92611004575b50508160011b916000199060031b1c19161783555b51805160018401916001600160401b038211610ff057610e1083546126a2565b601f8111610fab575b50602090601f8311600114610f44576002949392918b9183610f39575b50508160011b916000199060031b1c19161790555b51910180546001600160a01b0319166001600160a01b0392909216919091179055610e758261275f565b84546001600160a01b031690813b15610f3557859160448392604051948593849263630a195b60e01b84526004840152610eae8861275f565b8760248401525af18015610f2a57610ef2575b50807f93b86cf0a1d8e18e724e08d47f7248859de317795be109ec2495f6fc7445b4e99495610c476106539361275f565b9084610f227f93b86cf0a1d8e18e724e08d47f7248859de317795be109ec2495f6fc7445b4e996610653946123f3565b945090610ec1565b6040513d87823e3d90fd5b8580fd5b015190503880610e36565b838b52818b209190601f1984168c5b818110610f93575091600193918560029897969410610f7a575b505050811b019055610e4b565b015160001960f88460031b161c19169055388080610f6d565b92936020600181928786015181550195019301610f53565b838b5260208b20601f840160051c81019160208510610fe6575b601f0160051c01905b818110610fdb5750610e19565b8b8155600101610fce565b9091508190610fc5565b634e487b7160e01b8a52604160045260248afd5b015190503880610ddb565b868c52818c209250601f1984168c5b81811061105a5750908460019594939210611041575b505050811b018355610df0565b015160001960f88460031b161c19169055388080611034565b9293602060018192878601518155019501930161101e565b909150858b5260208b20601f840160051c810191602085106110b8575b90601f859493920160051c01905b8181106110aa5750610dc5565b8c815584935060010161109d565b909150819061108f565b8480fd5b8380fd5b5034610249578060031936011261024957600554906110e882612bd9565b906110f283612c0b565b906110fc84612c0b565b9361110681612bd9565b9061111081612bd9565b92805b82811061112f5750505090610245929160405195869586612811565b8060ff600461113f600194612683565b5001541661114c8161262e565b611156828a612aa6565b5260ff600461116483612683565b50015460081c166111748161262e565b61117e8287612aa6565b52600361118d610a7b83612683565b611197828b612aa6565b526111a2818a612aa6565b50610a8c6111b2610ab883612683565b6111bc8289612aa6565b526111c78188612aa6565b5060066111d382612683565b50015460056111e183612683565b500154101561120a5760066111f582612683565b5001545b6112038288612aa6565b5201611113565b600561121582612683565b5001546111f9565b5034610249576020366003190112610249576004356001600160401b0381116103405761124e903690600401612414565b60055461125a81612a38565b9061126860405192836123f3565b808252601f1961127782612a38565b01845b81811061144c57505083928460208201905b8381106113bc57505050506112a082612bd9565b906112aa83612c0b565b906112b484612bd9565b936112be81612bd9565b91865b8281106112dc575050509061024591604051948594856125e6565b8060806112eb60019385612aa6565b5101516112f78161262e565b6113008161262e565b60ff61130c838a612aa6565b9116905260a061131c8285612aa6565b5101516113288161262e565b6113318161262e565b60ff61133d838b612aa6565b9116905261134b8184612aa6565b51516113578288612aa6565b526113628187612aa6565b5060e061136f8285612aa6565b51015160c061137e8386612aa6565b51015110156113a85760e06113938285612aa6565b5101515b6113a18287612aa6565b52016112c1565b60c06113b48285612aa6565b510151611397565b60036104d36113e16113cd84612683565b50604051928391602083019586910161297c565b51902060405160208101906113ff602082885161050181878b612545565b51902014611410575b60010161128c565b9461144460019161142961142389612683565b50612ca1565b6114338289612aa6565b5261143e8188612aa6565b50612bb4565b959050611408565b602090611457612a4f565b8282870101520161127a565b5034610249576080366003190112610249576004356001600160401b03811161034057611494903690600401612414565b6024356001600160401b038111611709576114b3903690600401612414565b906044356001600160401b0381116110c6576114d3903690600401612414565b916064359160028310156110c25784546040516395a8c58d60e01b81523360048201526001602482015290602090829060449082906001600160a01b03165afa9081156116fe5786916116df575b501561169a5760405190611534826123a6565b8282528460208301523360408301528060608301526115528461262e565b8360808301528560a08301524260c08301528560e083015260209160405161157a84826123f3565b8781526101008201528661012082015260405161159784826123f3565b8781526101408201526115c781604051858188516115b88183858d01612545565b8101600381520301902061334c565b600554600160401b811015611686578060016115e69201600555612683565b611672576116669361163796936116237f52826c7f34a2ea38d95f47a905bbcd35442ec287a05b31513f7b71bf968b0a3499979461164a9461334c565b60405197889760c0895260c0890190612568565b9133908801528682036040880152612568565b916116548161262e565b60608501528382036080850152612568565b4260a08301520390a180f35b634e487b7160e01b88526004889052602488fd5b634e487b7160e01b88526041600452602488fd5b60405162461bcd60e51b815260206004820152601d60248201527f416363657373207265737472696374656420746f2050424620726f6c650000006044820152606490fd5b6116f8915060203d6020116109a65761099881836123f3565b38611521565b6040513d88823e3d90fd5b8280fd5b5034610249576080366003190112610249576004356001600160401b0381116103405761173e903690600401612414565b6024356001600160401b0381116117095761175d903690600401612414565b906044356001600160401b0381116110c65761177d903690600401612414565b916064359160048310156110c25784546040516395a8c58d60e01b81523360048201526024810187905290602090829060449082906001600160a01b03165afa9081156116fe578691611926575b50156118d757604051906117de826123a6565b8282528460208301523360408301528060608301526117fc8461275f565b8360808301528560a08301524260c08301528560e083015260209160405161182484826123f3565b8781526101008201528661012082015260405161184184826123f3565b87815261014082015261187181604051858188516118628183858d01612545565b81016002815203019020612d25565b600454600160401b81101561168657806001611890920160045561264e565b611672576116669361163796936116237fe9b311c837d257b1f6982c63cbb418abca3880b67545d8ea67adc97e6626ef1e9997946118cd94612d25565b916116548161275f565b60405162461bcd60e51b815260206004820152602160248201527f416363657373207265737472696374656420746f20466163746f727920726f6c6044820152606560f81b6064820152608490fd5b61193f915060203d6020116109a65761099881836123f3565b386117cb565b503461024957602036600319011261024957600435906001600160401b0382116102495761198e602061197b3660048601612414565b8160405193828580945193849201612545565b810160028152030190206040519061028e8261028781846126dc565b503461024957602036600319011261024957600435600554811015610340576119d290612683565b50604051806119e181846126dc565b036119ec90826123f3565b60405191826119fe81600184016126dc565b03611a0990846123f3565b60028101546040516001600160a01b039091169080611a2b81600386016126dc565b03611a3690826123f3565b600483015460ff81169060081c60ff16600585015460068601549160405194858060078a0190611a65916126dc565b03611a7090876123f3565b600160a01b6001900360088901541696604051806009819b0190611a93916126dc565b03611a9e908a6123f3565b6040519a8b9a6101608c526101608c01611ab791612568565b8b810360208d0152611ac891612568565b9060408b015289810360608b0152611adf91612568565b93611ae98161262e565b6080890152611af78161262e565b60a088015260c087015260e0860152848103610100860152611b1891612568565b9061012084015282810361014084015261024591612568565b503461024957602036600319011261024957600435906001600160401b03821161024957610245611bb3611ba46020611b6d3660048801612414565b611b75612a4f565b506040519061013b610134825193858181860196611b9481838a612545565b81016003815203019020546126a2565b81016003815203019020612ca1565b6040519182916020835261014061021d611be161019f610189855161016060208a0152610180890190612568565b60808401516101d88161262e565b5034610249576020366003190112610249576004356001600160401b03811161034057611c20903690600401612414565b600454611c2c81612a38565b90611c3a60405192836123f3565b808252601f19611c4982612a38565b01845b818110611def57505083928460208201905b838110611d8e5750505050611c7282612bd9565b90611c7c83612c0b565b90611c8684612bd9565b93611c9081612bd9565b91865b828110611cae575050509061024591604051948594856125e6565b806080611cbd60019385612aa6565b510151611cc98161275f565b611cd28161275f565b60ff611cde838a612aa6565b9116905260a0611cee8285612aa6565b510151611cfa8161262e565b611d038161262e565b60ff611d0f838b612aa6565b91169052611d1d8184612aa6565b5151611d298288612aa6565b52611d348187612aa6565b5060e0611d418285612aa6565b51015160c0611d508386612aa6565b5101511015611d7a5760e0611d658285612aa6565b5101515b611d738287612aa6565b5201611c93565b60c0611d868285612aa6565b510151611d69565b60036104d3611d9f6113cd8461264e565b5190206040516020810190611dbd602082885161050181878b612545565b51902014611dce575b600101611c5e565b94611de7600191611429611de18961264e565b50612aba565b959050611dc6565b602090611dfa612a4f565b82828701015201611c4c565b503461024957611e153661246f565b9192906044602060018060a01b03845416604051928380926395a8c58d60e01b8252336004830152600260248301525afa9081156109ad5790611e5e91849161097e57506128c5565b6040519284519360208181880196611e7781838a612545565b8101600281520301902094600486016101008154611e9e60ff8260081c166103dd8161262e565b61ff0019161790556007860183516001600160401b0381116107e957611ec482546126a2565b601f8111612361575b50806020601f82116001146123005787916122f5575b508160011b916000199060031b1c19161790555b4260068701556008860180546001600160a01b03191633179055815160098701906001600160401b0381116107e957611f3082546126a2565b601f81116122b0575b50806020601f821160011461224f578791612244575b508160011b916000199060031b1c19161790555b835b6004548110156107fd57611f788161264e565b50604051611f8e816104d360208201809561297c565b5190206040516020810190611fae602082846105018d8a51928391612545565b51902014611fbe57600101611f65565b9192939450506004611fcf8261264e565b5001805461ff0019166101001790556007611fe98261264e565b500183516001600160401b0381116107e95761200582546126a2565b601f81116121ff575b506020601f82116001146121985791816009949261207394899161218d575b508160011b916000199060031b1c19161790555b61204a8161264e565b50600642910155600861205c8261264e565b500180546001600160a01b0319163317905561264e565b5001938151946001600160401b03861161071e5761209181546126a2565b601f8111612148575b50602095601f81116001146120ed5790816106539392879860008051602061392e833981519152989161065957508160011b916000199060031b1c191617905560405193849360034293019033866129ea565b81865286862096601f198216875b81811061213057509160008051602061392e833981519152979860019282610653979695106106a8575050811b019055610640565b868301518a55600190990198602092830192016120fb565b81865260208620601f880160051c81019160208910612183575b601f0160051c01905b818110612178575061209a565b86815560010161216b565b9091508190612162565b90508701513861202d565b82875280872090601f198316885b8181106121e757509261207394926001928260099896106121ce575b5050811b019055612041565b89015160001960f88460031b161c1916905538806121c2565b9192602060018192868c0151815501940192016121a6565b82875260208720601f830160051c8101916020841061223a575b601f0160051c01905b81811061222f575061200e565b878155600101612222565b9091508190612219565b905084015138611f4f565b8388528088209150601f198316885b8181106122985750908360019493921061227f575b5050811b019055611f63565b86015160001960f88460031b161c191690553880612273565b9192602060018192868b01518155019401920161225e565b82875260208720601f830160051c810191602084106122eb575b601f0160051c01905b8181106122e05750611f39565b8781556001016122d3565b90915081906122ca565b905085015138611ee3565b8388528088209150601f198316885b81811061234957509083600194939210612330575b5050811b019055611ef7565b87015160001960f88460031b161c191690553880612324565b9192602060018192868c01518155019401920161230f565b82875260208720601f830160051c8101916020841061239c575b601f0160051c01905b8181106123915750611ecd565b878155600101612384565b909150819061237b565b61016081019081106001600160401b038211176123c257604052565b634e487b7160e01b600052604160045260246000fd5b606081019081106001600160401b038211176123c257604052565b90601f801991011681019081106001600160401b038211176123c257604052565b81601f8201121561246a578035906001600160401b0382116123c25760405192612448601f8401601f1916602001856123f3565b8284526020838301011161246a57816000926020809301838601378301015290565b600080fd5b606060031982011261246a576004356001600160401b03811161246a578161249991600401612414565b916024356001600160401b03811161246a57826124b891600401612414565b91604435906001600160401b03821161246a576124d791600401612414565b90565b906020808351928381520192019060005b8181106124f85750505090565b825160ff168452602093840193909201916001016124eb565b906020808351928381520192019060005b81811061252f5750505090565b8251845260209384019390920191600101612522565b60005b8381106125585750506000910152565b8181015183820152602001612548565b9060209161258181518092818552858086019101612545565b601f01601f1916010190565b9080602083519182815201916020808360051b8301019401926000915b8383106125b957505050505090565b90919293946020806125d7600193601f198682030187528951612568565b970193019301919392906125aa565b926126126124d79593612604612620946080885260808801906124da565b9086820360208801526124da565b908482036040860152612511565b91606081840391015261258d565b6002111561263857565b634e487b7160e01b600052602160045260246000fd5b60045481101561266d576004600052600a602060002091020190600090565b634e487b7160e01b600052603260045260246000fd5b60055481101561266d576005600052600a602060002091020190600090565b90600182811c921680156126d2575b60208310146126bc57565b634e487b7160e01b600052602260045260246000fd5b91607f16916126b1565b600092918154916126ec836126a2565b8083529260018116908115612742575060011461270857505050565b60009081526020812093945091925b838310612728575060209250010190565b600181602092949394548385870101520191019190612717565b915050602093945060ff929192191683830152151560051b010190565b6004111561263857565b9793926127f1979361279f6124d79d9b9798946127916127bc956101608e8181520190612568565b8c810360208e015290612568565b6001600160a01b0390921660408b015289820360608b0152612568565b946127c68161275f565b60808801526127d48161262e565b60a087015260c086015260e0850152838203610100850152612568565b6001600160a01b0390931661012082015280830361014090910152612568565b93906124d7959361284261285e946128346128509460a08a5260a08a01906124da565b9088820360208a015261258d565b9086820360408801526124da565b908482036060860152612511565b91608081840391015261258d565b926128a69061289860609460ff9498979860018060a01b03168752608060208801526080870190612568565b908582036040870152612568565b9416910152565b9081602091031261246a5751801515810361246a5790565b156128cc57565b60405162461bcd60e51b815260206004820152601e60248201527f416363657373207265737472696374656420746f2042504f4d20726f6c6500006044820152606490fd5b1561291857565b60405162461bcd60e51b815260206004820152601d60248201527f43504f544220737461747573206d7573742062652070656e64696e67210000006044820152606490fd5b906129678161262e565b61ff0082549160081b169061ff001916179055565b6000929181549161298c836126a2565b92600181169081156129d757506001146129a557505050565b909192935060005260206000206000905b8382106129c35750500190565b6001816020925484860152019101906129b6565b60ff191683525050811515909102019150565b95949390608093612a17612a3394612a259360018060a01b03168a5260a060208b015260a08a0190612568565b9088820360408a01526126dc565b908682036060880152612568565b930152565b6001600160401b0381116123c25760051b60200190565b60405190612a5c826123a6565b60606101408382815282602082015260006040820152828082015260006080820152600060a0820152600060c0820152600060e08201528261010082015260006101208201520152565b805182101561266d5760209160051b010190565b906009610140604051612acc816123a6565b612bb08195604051612ae281610a8c81856126dc565b8352604051612af881610a8c81600186016126dc565b602084015260028101546001600160a01b031660408085019190915251612b2681610a8c81600386016126dc565b606084015260ff6004820154818116612b3e8161275f565b608086015260081c16612b508161262e565b60a0840152600581015460c0840152600681015460e0840152604051612b7d81610a8c81600786016126dc565b61010084015260088101546001600160a01b0316610120840152604051948591612ba9918391016126dc565b03846123f3565b0152565b6000198114612bc35760010190565b634e487b7160e01b600052601160045260246000fd5b90612be382612a38565b612bf060405191826123f3565b8281528092612c01601f1991612a38565b0190602036910137565b90612c1582612a38565b612c2260405191826123f3565b8281528092612c33601f1991612a38565b019060005b828110612c4457505050565b806060602080938501015201612c38565b15612c5c57565b60405162461bcd60e51b815260206004820152601a60248201527f4e6f206461746120666f756e6420666f7220746869732049442e0000000000006044820152606490fd5b906009610140604051612cb3816123a6565b612bb08195604051612cc981610a8c81856126dc565b8352604051612cdf81610a8c81600186016126dc565b602084015260028101546001600160a01b031660408085019190915251612d0d81610a8c81600386016126dc565b606084015260ff6004820154818116612b3e8161262e565b9181519283516001600160401b0381116123c257612d4382546126a2565b601f8111613304575b50602094601f821160011461329f57948192939495600092613294575b50508160011b916000199060031b1c19161781555b6001810160208401518051906001600160401b0382116123c2578190612da484546126a2565b601f8111613241575b50602090601f83116001146131dc576000926131d1575b50508160011b916000199060031b1c19161790555b60408301516002820180546001600160a01b0319166001600160a01b03929092169190911790556060830151805160038301916001600160401b0382116123c2578190612e2684546126a2565b601f811161317e575b50602090601f83116001146131195760009261310e575b50508160011b916000199060031b1c19161790555b612e99600482016080850151612e708161275f565b612e798161275f565b60ff8019835416911617815560a085015190612e948261262e565b61295d565b60c0830151600582015560e08301516006820155600781016101008401518051906001600160401b0382116123c257612ed283546126a2565b601f81116130c6575b50602090601f831160011461305857918060099492610140969460009261304d575b50508160011b916000199060031b1c19161790555b6101208501516008820180546001600160a01b0319166001600160a01b0392909216919091179055919093015180519093909101906001600160401b0381116123c257612f5f82546126a2565b601f8111613005575b506020601f8211600114612fa35781929394600092612f98575b50508160011b916000199060031b1c1916179055565b015190503880612f82565b601f1982169083600052806000209160005b818110612fed57509583600195969710612fd4575b505050811b019055565b015160001960f88460031b161c19169055388080612fca565b9192602060018192868b015181550194019201612fb5565b826000526020600020601f830160051c81019160208410613043575b601f0160051c01905b8181106130375750612f68565b6000815560010161302a565b9091508190613021565b015190503880612efd565b90601f1983169184600052816000209260005b8181106130ae575092600192859261014098966009989610613095575b505050811b019055612f12565b015160001960f88460031b161c19169055388080613088565b9293602060018192878601518155019501930161306b565b836000526020600020601f840160051c81019160208510613104575b601f0160051c01905b8181106130f85750612edb565b600081556001016130eb565b90915081906130e2565b015190503880612e46565b60008581528281209350601f198516905b818110613166575090846001959493921061314d575b505050811b019055612e5b565b015160001960f88460031b161c19169055388080613140565b9293602060018192878601518155019501930161312a565b909150836000526020600020601f840160051c810191602085106131c7575b90601f859493920160051c01905b8181106131b85750612e2f565b600081558493506001016131ab565b909150819061319d565b015190503880612dc4565b60008581528281209350601f198516905b8181106132295750908460019594939210613210575b505050811b019055612dd9565b015160001960f88460031b161c19169055388080613203565b929360206001819287860151815501950193016131ed565b909150836000526020600020601f840160051c8101916020851061328a575b90601f859493920160051c01905b81811061327b5750612dad565b6000815584935060010161326e565b9091508190613260565b015190503880612d69565b601f1982169583600052806000209160005b8881106132ec575083600195969798106132d3575b505050811b018155612d7e565b015160001960f88460031b161c191690553880806132c6565b919260206001819286850151815501940192016132b1565b826000526020600020601f830160051c81019160208410613342575b601f0160051c01905b8181106133365750612d4c565b60008155600101613329565b9091508190613320565b9181519283516001600160401b0381116123c25761336a82546126a2565b601f81116138e5575b50602094601f821160011461388057948192939495600092613875575b50508160011b916000199060031b1c19161781555b6001810160208401518051906001600160401b0382116123c25781906133cb84546126a2565b601f8111613822575b50602090601f83116001146137bd576000926137b2575b50508160011b916000199060031b1c19161790555b60408301516002820180546001600160a01b0319166001600160a01b03929092169190911790556060830151805160038301916001600160401b0382116123c257819061344d84546126a2565b601f811161375f575b50602090601f83116001146136fa576000926136ef575b50508160011b916000199060031b1c19161790555b6134a06004820160808501516134978161262e565b612e798161262e565b60c0830151600582015560e08301516006820155600781016101008401518051906001600160401b0382116123c2576134d983546126a2565b601f81116136a7575b50602090601f831160011461363957918060099492610140969460009261362e575b50508160011b916000199060031b1c19161790555b6101208501516008820180546001600160a01b0319166001600160a01b0392909216919091179055919093015180519093909101906001600160401b0381116123c25761356682546126a2565b601f81116135e6575b506020601f821160011461359e5781929394600092612f985750508160011b916000199060031b1c1916179055565b601f1982169083600052806000209160005b8181106135ce57509583600195969710612fd457505050811b019055565b9192602060018192868b0151815501940192016135b0565b826000526020600020601f830160051c81019160208410613624575b601f0160051c01905b818110613618575061356f565b6000815560010161360b565b9091508190613602565b015190503880613504565b90601f1983169184600052816000209260005b81811061368f575092600192859261014098966009989610613676575b505050811b019055613519565b015160001960f88460031b161c19169055388080613669565b9293602060018192878601518155019501930161364c565b836000526020600020601f840160051c810191602085106136e5575b601f0160051c01905b8181106136d957506134e2565b600081556001016136cc565b90915081906136c3565b01519050388061346d565b60008581528281209350601f198516905b818110613747575090846001959493921061372e575b505050811b019055613482565b015160001960f88460031b161c19169055388080613721565b9293602060018192878601518155019501930161370b565b909150836000526020600020601f840160051c810191602085106137a8575b90601f859493920160051c01905b8181106137995750613456565b6000815584935060010161378c565b909150819061377e565b0151905038806133eb565b60008581528281209350601f198516905b81811061380a57509084600195949392106137f1575b505050811b019055613400565b015160001960f88460031b161c191690553880806137e4565b929360206001819287860151815501950193016137ce565b909150836000526020600020601f840160051c8101916020851061386b575b90601f859493920160051c01905b81811061385c57506133d4565b6000815584935060010161384f565b9091508190613841565b015190503880613390565b601f1982169583600052806000209160005b8881106138cd575083600195969798106138b4575b505050811b0181556133a5565b015160001960f88460031b161c191690553880806138a7565b91926020600181928685015181550194019201613892565b826000526020600020601f830160051c81019160208410613923575b601f0160051c01905b8181106139175750613373565b6000815560010161390a565b909150819061390156feedc9920ea2d8611e7d985ecf390206409122b6df9a9c529063c5311531494be1a2646970667358221220e2751e829fe55b5f6bad6ebfd26abc222652cf9049c1331aa92b4e8550d10a2064736f6c634300081b0033",
  "linkReferences": {},
  "deployedLinkReferences": {}
}