{
  "_format": "hh-sol-artifact-1",
  "contractName": "MainSupplyChain",
  "sourceName": "contracts/MainSupplyChain.sol",
  "abi": [
    {
      "inputs": [
        {
          "internalType": "address",
          "name": "_roleManagerAddr",
          "type": "address"
        }
      ],
      "stateMutability": "nonpayable",
      "type": "constructor"
    },
    {
      "anonymous": false,
      "inputs": [
        {
          "indexed": false,
          "internalType": "address",
          "name": "userAddr",
          "type": "address"
        },
        {
          "indexed": false,
          "internalType": "string",
          "name": "name",
          "type": "string"
        },
        {
          "indexed": false,
          "internalType": "string",
          "name": "instanceName",
          "type": "string"
        },
        {
          "indexed": false,
          "internalType": "uint8",
          "name": "role",
          "type": "uint8"
        }
      ],
      "name": "evt_UserRegistered",
      "type": "event"
    },
    {
      "anonymous": false,
      "inputs": [
        {
          "indexed": false,
          "internalType": "string",
          "name": "bpomInstance",
          "type": "string"
        },
        {
          "indexed": false,
          "internalType": "address",
          "name": "bpomAddr",
          "type": "address"
        },
        {
          "indexed": false,
          "internalType": "enum EnumsLibrary.TipePermohonanCdob",
          "name": "",
          "type": "uint8"
        },
        {
          "indexed": false,
          "internalType": "string",
          "name": "cdobNumber",
          "type": "string"
        },
        {
          "indexed": false,
          "internalType": "uint256",
          "name": "timestampApproved",
          "type": "uint256"
        }
      ],
      "name": "evt_cdobApproved",
      "type": "event"
    },
    {
      "anonymous": false,
      "inputs": [
        {
          "indexed": false,
          "internalType": "string",
          "name": "pbfInstance",
          "type": "string"
        },
        {
          "indexed": false,
          "internalType": "address",
          "name": "pbfAddr",
          "type": "address"
        },
        {
          "indexed": false,
          "internalType": "enum EnumsLibrary.TipePermohonanCdob",
          "name": "tipePermohonan",
          "type": "uint8"
        },
        {
          "indexed": false,
          "internalType": "uint256",
          "name": "timestampRequest",
          "type": "uint256"
        }
      ],
      "name": "evt_cdobRequested",
      "type": "event"
    },
    {
      "anonymous": false,
      "inputs": [
        {
          "indexed": false,
          "internalType": "string",
          "name": "bpomInstance",
          "type": "string"
        },
        {
          "indexed": false,
          "internalType": "address",
          "name": "bpomAddr",
          "type": "address"
        },
        {
          "indexed": false,
          "internalType": "enum EnumsLibrary.TipePermohonanCpotb",
          "name": "",
          "type": "uint8"
        },
        {
          "indexed": false,
          "internalType": "string",
          "name": "cpotbId",
          "type": "string"
        },
        {
          "indexed": false,
          "internalType": "uint256",
          "name": "timestampApproved",
          "type": "uint256"
        }
      ],
      "name": "evt_cpotbApproved",
      "type": "event"
    },
    {
      "anonymous": false,
      "inputs": [
        {
          "indexed": false,
          "internalType": "string",
          "name": "factoryInstance",
          "type": "string"
        },
        {
          "indexed": false,
          "internalType": "address",
          "name": "factoryAddr",
          "type": "address"
        },
        {
          "indexed": false,
          "internalType": "enum EnumsLibrary.TipePermohonanCpotb",
          "name": "",
          "type": "uint8"
        },
        {
          "indexed": false,
          "internalType": "uint256",
          "name": "timestampRequest",
          "type": "uint256"
        }
      ],
      "name": "evt_cpotbRequested",
      "type": "event"
    },
    {
      "inputs": [
        {
          "internalType": "uint256",
          "name": "",
          "type": "uint256"
        }
      ],
      "name": "allCertificateData",
      "outputs": [
        {
          "internalType": "string",
          "name": "certId",
          "type": "string"
        },
        {
          "internalType": "string",
          "name": "certNumber",
          "type": "string"
        },
        {
          "internalType": "string",
          "name": "instanceName",
          "type": "string"
        },
        {
          "internalType": "string",
          "name": "certificateType",
          "type": "string"
        },
        {
          "internalType": "uint8",
          "name": "tipePermohonan",
          "type": "uint8"
        },
        {
          "internalType": "enum EnumsLibrary.StatusCertificate",
          "name": "status",
          "type": "uint8"
        }
      ],
      "stateMutability": "view",
      "type": "function"
    },
    {
      "inputs": [
        {
          "components": [
            {
              "internalType": "string",
              "name": "certNumber",
              "type": "string"
            },
            {
              "internalType": "string",
              "name": "certId",
              "type": "string"
            },
            {
              "internalType": "string",
              "name": "bpomName",
              "type": "string"
            },
            {
              "internalType": "string",
              "name": "bpomInstance",
              "type": "string"
            }
          ],
          "internalType": "struct MainSupplyChain.st_certificateApproval",
          "name": "approvalData",
          "type": "tuple"
        },
        {
          "internalType": "uint8",
          "name": "_tipePermohonanCdob",
          "type": "uint8"
        }
      ],
      "name": "approveCdob",
      "outputs": [],
      "stateMutability": "nonpayable",
      "type": "function"
    },
    {
      "inputs": [
        {
          "components": [
            {
              "internalType": "string",
              "name": "certNumber",
              "type": "string"
            },
            {
              "internalType": "string",
              "name": "certId",
              "type": "string"
            },
            {
              "internalType": "string",
              "name": "bpomName",
              "type": "string"
            },
            {
              "internalType": "string",
              "name": "bpomInstance",
              "type": "string"
            }
          ],
          "internalType": "struct MainSupplyChain.st_certificateApproval",
          "name": "approvalData",
          "type": "tuple"
        },
        {
          "internalType": "uint8",
          "name": "_tipePermohonanCpotb",
          "type": "uint8"
        }
      ],
      "name": "approveCpotb",
      "outputs": [],
      "stateMutability": "nonpayable",
      "type": "function"
    },
    {
      "inputs": [
        {
          "internalType": "string",
          "name": "_factoryName",
          "type": "string"
        }
      ],
      "name": "approvedTipePermohonan",
      "outputs": [
        {
          "internalType": "uint8[]",
          "name": "",
          "type": "uint8[]"
        }
      ],
      "stateMutability": "view",
      "type": "function"
    },
    {
      "inputs": [
        {
          "internalType": "string",
          "name": "",
          "type": "string"
        },
        {
          "internalType": "uint256",
          "name": "",
          "type": "uint256"
        }
      ],
      "name": "approvedTipePermohonanByFactory",
      "outputs": [
        {
          "internalType": "uint8",
          "name": "",
          "type": "uint8"
        }
      ],
      "stateMutability": "view",
      "type": "function"
    },
    {
      "inputs": [
        {
          "internalType": "string",
          "name": "",
          "type": "string"
        }
      ],
      "name": "cdobDataById",
      "outputs": [
        {
          "internalType": "string",
          "name": "cdobId",
          "type": "string"
        },
        {
          "internalType": "string",
          "name": "cdobNumber",
          "type": "string"
        },
        {
          "components": [
            {
              "internalType": "enum EnumsLibrary.StatusCertificate",
              "name": "status",
              "type": "uint8"
            },
            {
              "internalType": "uint256",
              "name": "timestampRequest",
              "type": "uint256"
            },
            {
              "internalType": "uint256",
              "name": "timestampApprove",
              "type": "uint256"
            },
            {
              "components": [
                {
                  "internalType": "string",
                  "name": "userName",
                  "type": "string"
                },
                {
                  "internalType": "address",
                  "name": "userAddr",
                  "type": "address"
                },
                {
                  "internalType": "string",
                  "name": "userInstanceName",
                  "type": "string"
                }
              ],
              "internalType": "struct MainSupplyChain.st_userCertificate",
              "name": "sender",
              "type": "tuple"
            },
            {
              "components": [
                {
                  "internalType": "string",
                  "name": "userName",
                  "type": "string"
                },
                {
                  "internalType": "address",
                  "name": "userAddr",
                  "type": "address"
                },
                {
                  "internalType": "string",
                  "name": "userInstanceName",
                  "type": "string"
                }
              ],
              "internalType": "struct MainSupplyChain.st_userCertificate",
              "name": "bpom",
              "type": "tuple"
            }
          ],
          "internalType": "struct MainSupplyChain.st_certificateDetails",
          "name": "details",
          "type": "tuple"
        },
        {
          "internalType": "enum EnumsLibrary.TipePermohonanCdob",
          "name": "tipePermohonan",
          "type": "uint8"
        }
      ],
      "stateMutability": "view",
      "type": "function"
    },
    {
      "inputs": [
        {
          "internalType": "string",
          "name": "",
          "type": "string"
        }
      ],
      "name": "cpotbDataById",
      "outputs": [
        {
          "internalType": "string",
          "name": "cpotbId",
          "type": "string"
        },
        {
          "internalType": "string",
          "name": "cpotbNumber",
          "type": "string"
        },
        {
          "components": [
            {
              "internalType": "enum EnumsLibrary.StatusCertificate",
              "name": "status",
              "type": "uint8"
            },
            {
              "internalType": "uint256",
              "name": "timestampRequest",
              "type": "uint256"
            },
            {
              "internalType": "uint256",
              "name": "timestampApprove",
              "type": "uint256"
            },
            {
              "components": [
                {
                  "internalType": "string",
                  "name": "userName",
                  "type": "string"
                },
                {
                  "internalType": "address",
                  "name": "userAddr",
                  "type": "address"
                },
                {
                  "internalType": "string",
                  "name": "userInstanceName",
                  "type": "string"
                }
              ],
              "internalType": "struct MainSupplyChain.st_userCertificate",
              "name": "sender",
              "type": "tuple"
            },
            {
              "components": [
                {
                  "internalType": "string",
                  "name": "userName",
                  "type": "string"
                },
                {
                  "internalType": "address",
                  "name": "userAddr",
                  "type": "address"
                },
                {
                  "internalType": "string",
                  "name": "userInstanceName",
                  "type": "string"
                }
              ],
              "internalType": "struct MainSupplyChain.st_userCertificate",
              "name": "bpom",
              "type": "tuple"
            }
          ],
          "internalType": "struct MainSupplyChain.st_certificateDetails",
          "name": "details",
          "type": "tuple"
        },
        {
          "internalType": "enum EnumsLibrary.TipePermohonanCpotb",
          "name": "tipePermohonan",
          "type": "uint8"
        }
      ],
      "stateMutability": "view",
      "type": "function"
    },
    {
      "inputs": [
        {
          "internalType": "string",
          "name": "_certId",
          "type": "string"
        }
      ],
      "name": "detailCdob",
      "outputs": [
        {
          "components": [
            {
              "internalType": "string",
              "name": "cdobId",
              "type": "string"
            },
            {
              "internalType": "string",
              "name": "cdobNumber",
              "type": "string"
            },
            {
              "components": [
                {
                  "internalType": "enum EnumsLibrary.StatusCertificate",
                  "name": "status",
                  "type": "uint8"
                },
                {
                  "internalType": "uint256",
                  "name": "timestampRequest",
                  "type": "uint256"
                },
                {
                  "internalType": "uint256",
                  "name": "timestampApprove",
                  "type": "uint256"
                },
                {
                  "components": [
                    {
                      "internalType": "string",
                      "name": "userName",
                      "type": "string"
                    },
                    {
                      "internalType": "address",
                      "name": "userAddr",
                      "type": "address"
                    },
                    {
                      "internalType": "string",
                      "name": "userInstanceName",
                      "type": "string"
                    }
                  ],
                  "internalType": "struct MainSupplyChain.st_userCertificate",
                  "name": "sender",
                  "type": "tuple"
                },
                {
                  "components": [
                    {
                      "internalType": "string",
                      "name": "userName",
                      "type": "string"
                    },
                    {
                      "internalType": "address",
                      "name": "userAddr",
                      "type": "address"
                    },
                    {
                      "internalType": "string",
                      "name": "userInstanceName",
                      "type": "string"
                    }
                  ],
                  "internalType": "struct MainSupplyChain.st_userCertificate",
                  "name": "bpom",
                  "type": "tuple"
                }
              ],
              "internalType": "struct MainSupplyChain.st_certificateDetails",
              "name": "details",
              "type": "tuple"
            },
            {
              "internalType": "enum EnumsLibrary.TipePermohonanCdob",
              "name": "tipePermohonan",
              "type": "uint8"
            }
          ],
          "internalType": "struct MainSupplyChain.st_cdob",
          "name": "",
          "type": "tuple"
        }
      ],
      "stateMutability": "view",
      "type": "function"
    },
    {
      "inputs": [
        {
          "internalType": "string",
          "name": "_certId",
          "type": "string"
        }
      ],
      "name": "detailCpotb",
      "outputs": [
        {
          "components": [
            {
              "internalType": "string",
              "name": "cpotbId",
              "type": "string"
            },
            {
              "internalType": "string",
              "name": "cpotbNumber",
              "type": "string"
            },
            {
              "components": [
                {
                  "internalType": "enum EnumsLibrary.StatusCertificate",
                  "name": "status",
                  "type": "uint8"
                },
                {
                  "internalType": "uint256",
                  "name": "timestampRequest",
                  "type": "uint256"
                },
                {
                  "internalType": "uint256",
                  "name": "timestampApprove",
                  "type": "uint256"
                },
                {
                  "components": [
                    {
                      "internalType": "string",
                      "name": "userName",
                      "type": "string"
                    },
                    {
                      "internalType": "address",
                      "name": "userAddr",
                      "type": "address"
                    },
                    {
                      "internalType": "string",
                      "name": "userInstanceName",
                      "type": "string"
                    }
                  ],
                  "internalType": "struct MainSupplyChain.st_userCertificate",
                  "name": "sender",
                  "type": "tuple"
                },
                {
                  "components": [
                    {
                      "internalType": "string",
                      "name": "userName",
                      "type": "string"
                    },
                    {
                      "internalType": "address",
                      "name": "userAddr",
                      "type": "address"
                    },
                    {
                      "internalType": "string",
                      "name": "userInstanceName",
                      "type": "string"
                    }
                  ],
                  "internalType": "struct MainSupplyChain.st_userCertificate",
                  "name": "bpom",
                  "type": "tuple"
                }
              ],
              "internalType": "struct MainSupplyChain.st_certificateDetails",
              "name": "details",
              "type": "tuple"
            },
            {
              "internalType": "enum EnumsLibrary.TipePermohonanCpotb",
              "name": "tipePermohonan",
              "type": "uint8"
            }
          ],
          "internalType": "struct MainSupplyChain.st_cpotb",
          "name": "",
          "type": "tuple"
        }
      ],
      "stateMutability": "view",
      "type": "function"
    },
    {
      "inputs": [],
      "name": "getListAllCdob",
      "outputs": [
        {
          "components": [
            {
              "internalType": "string",
              "name": "certId",
              "type": "string"
            },
            {
              "internalType": "string",
              "name": "certNumber",
              "type": "string"
            },
            {
              "internalType": "string",
              "name": "instanceName",
              "type": "string"
            },
            {
              "internalType": "string",
              "name": "certificateType",
              "type": "string"
            },
            {
              "internalType": "uint8",
              "name": "tipePermohonan",
              "type": "uint8"
            },
            {
              "internalType": "enum EnumsLibrary.StatusCertificate",
              "name": "status",
              "type": "uint8"
            }
          ],
          "internalType": "struct MainSupplyChain.st_certificateList[]",
          "name": "",
          "type": "tuple[]"
        }
      ],
      "stateMutability": "view",
      "type": "function"
    },
    {
      "inputs": [
        {
          "internalType": "string",
          "name": "_instanceName",
          "type": "string"
        }
      ],
      "name": "getListAllCertificateByInstance",
      "outputs": [
        {
          "components": [
            {
              "internalType": "string",
              "name": "certId",
              "type": "string"
            },
            {
              "internalType": "string",
              "name": "certNumber",
              "type": "string"
            },
            {
              "internalType": "string",
              "name": "instanceName",
              "type": "string"
            },
            {
              "internalType": "string",
              "name": "certificateType",
              "type": "string"
            },
            {
              "internalType": "uint8",
              "name": "tipePermohonan",
              "type": "uint8"
            },
            {
              "internalType": "enum EnumsLibrary.StatusCertificate",
              "name": "status",
              "type": "uint8"
            }
          ],
          "internalType": "struct MainSupplyChain.st_certificateList[]",
          "name": "",
          "type": "tuple[]"
        }
      ],
      "stateMutability": "view",
      "type": "function"
    },
    {
      "inputs": [],
      "name": "getListAllCpotb",
      "outputs": [
        {
          "components": [
            {
              "internalType": "string",
              "name": "certId",
              "type": "string"
            },
            {
              "internalType": "string",
              "name": "certNumber",
              "type": "string"
            },
            {
              "internalType": "string",
              "name": "instanceName",
              "type": "string"
            },
            {
              "internalType": "string",
              "name": "certificateType",
              "type": "string"
            },
            {
              "internalType": "uint8",
              "name": "tipePermohonan",
              "type": "uint8"
            },
            {
              "internalType": "enum EnumsLibrary.StatusCertificate",
              "name": "status",
              "type": "uint8"
            }
          ],
          "internalType": "struct MainSupplyChain.st_certificateList[]",
          "name": "",
          "type": "tuple[]"
        }
      ],
      "stateMutability": "view",
      "type": "function"
    },
    {
      "inputs": [
        {
          "internalType": "address",
          "name": "_userAddr",
          "type": "address"
        }
      ],
      "name": "getRegisteredUser",
      "outputs": [
        {
          "internalType": "address",
          "name": "",
          "type": "address"
        },
        {
          "internalType": "string",
          "name": "",
          "type": "string"
        },
        {
          "internalType": "string",
          "name": "",
          "type": "string"
        },
        {
          "internalType": "uint8",
          "name": "",
          "type": "uint8"
        }
      ],
      "stateMutability": "view",
      "type": "function"
    },
    {
      "inputs": [
        {
          "internalType": "string",
          "name": "_name",
          "type": "string"
        },
        {
          "internalType": "string",
          "name": "_instanceName",
          "type": "string"
        },
        {
          "internalType": "address",
          "name": "_userAddr",
          "type": "address"
        },
        {
          "internalType": "uint8",
          "name": "_userRole",
          "type": "uint8"
        }
      ],
      "name": "registerUser",
      "outputs": [],
      "stateMutability": "nonpayable",
      "type": "function"
    },
    {
      "inputs": [
        {
          "components": [
            {
              "internalType": "string",
              "name": "certId",
              "type": "string"
            },
            {
              "internalType": "string",
              "name": "senderName",
              "type": "string"
            },
            {
              "internalType": "string",
              "name": "senderInstance",
              "type": "string"
            }
          ],
          "internalType": "struct MainSupplyChain.st_certificateRequest",
          "name": "requestData",
          "type": "tuple"
        },
        {
          "internalType": "uint8",
          "name": "_tipePermohonanCdob",
          "type": "uint8"
        }
      ],
      "name": "requestCdob",
      "outputs": [],
      "stateMutability": "nonpayable",
      "type": "function"
    },
    {
      "inputs": [
        {
          "components": [
            {
              "internalType": "string",
              "name": "certId",
              "type": "string"
            },
            {
              "internalType": "string",
              "name": "senderName",
              "type": "string"
            },
            {
              "internalType": "string",
              "name": "senderInstance",
              "type": "string"
            }
          ],
          "internalType": "struct MainSupplyChain.st_certificateRequest",
          "name": "requestData",
          "type": "tuple"
        },
        {
          "internalType": "uint8",
          "name": "_tipePermohonanCpotb",
          "type": "uint8"
        }
      ],
      "name": "requestCpotb",
      "outputs": [],
      "stateMutability": "nonpayable",
      "type": "function"
    }
  ],
  "bytecode": "0x608034607057601f615eb138819003918201601f19168301916001600160401b03831184841017607557808492602094604052833981010312607057516001600160a01b03811690819003607057600080546001600160a01b031916919091179055604051615e25908161008c8239f35b600080fd5b634e487b7160e01b600052604160045260246000fdfe60c0604052600436101561001257600080fd5b6000803560e01c80632592e51114614b96578063387bb30e14613e0f5780634c3ba6fd14613d445780636aa8129914613c915780636d2a362f14612e545780636f8e619714612d64578063711255af14612c5157806372c17cb914612b995780637ee90ded14612b19578063950d4d74146123f8578063a814a60f146122b3578063cec1fc1e14612213578063d12336721461093f578063e49d0327146102fa578063e54a29bb146101c75763ec176587146100cd57600080fd5b346101c457806003193601126101c4576100ed6100e8615a22565b615d61565b61011e60ff60405160208101906431b837ba3160d91b8252600581526101146025826152d7565b5190209216615b35565b918091600454925b83811061013f576040518061013b8782615850565b0390f35b816003610165610173610151856154fa565b506040519283916020830195869101615971565b03601f1981018352826152d7565b51902014610184575b600101610126565b916101bc6001916101b66101a061019a876154fa565b50615b99565b60ff8316906101af828b615b85565b5288615b85565b50615c08565b92905061017c565b80fd5b50346101c45760203660031901126101c4576004356001600160a01b038116908190036102eb57815460405163e54a29bb60e01b815260048101929092528290829060249082906001600160a01b03165afa80156102ef5782808093819361025a575b50600483101561024657509061013b9160405194859485615918565b634e487b7160e01b81526021600452602490fd5b9450925050503d8082843e61026f81846152d7565b8201906080838303126101c45782516001600160401b0381116102eb5782610298918501615c54565b9160208401516001600160401b0381116102e757906102b8918501615c54565b604084015190936001600160a01b03821682036102e757606001519260048410156102e757939092913861022a565b8280fd5b5080fd5b6040513d84823e3d90fd5b50346101c45760203660031901126101c4576004356001600160401b0381116102eb576020610330610343923690600401615313565b8160405193828580945193849201615629565b81016003815203019020604051808160208454928381520180948652602086209286905b80601f83011061079757610480945491818110610783575b81811061076c575b818110610755575b81811061073e575b818110610728575b818110610711575b8181106106fa575b8181106106e3575b8181106106cc575b8181106106b5575b81811061069e575b818110610687575b818110610670575b818110610659575b818110610642575b81811061062b575b818110610614575b8181106105fd575b8181106105e6575b8181106105cf575b8181106105b8575b8181106105a1575b81811061058a575b818110610573575b81811061055c575b818110610545575b81811061052e575b818110610517575b818110610500575b8181106104e9575b8181106104d2575b106104c4575b5093929303836152d7565b604051928392602084019060208552518091526040840192915b8181106104a8575050500390f35b825160ff1684528594506020938401939092019160010161049a565b60f81c815260200138610475565b92602060019160ff8560f01c16815201930161046f565b92602060019160ff8560e81c168152019301610467565b92602060019160ff8560e01c16815201930161045f565b92602060019160ff8560d81c168152019301610457565b92602060019160ff8560d01c16815201930161044f565b92602060019160ff8560c81c168152019301610447565b92602060019160ff8560c01c16815201930161043f565b92602060019160ff8560b81c168152019301610437565b92602060019160ff8560b01c16815201930161042f565b92602060019160ff8560a81c168152019301610427565b92602060019160ff8560a01c16815201930161041f565b92602060019160ff8560981c168152019301610417565b92602060019160ff8560901c16815201930161040f565b92602060019160ff8560881c168152019301610407565b92602060019160ff8560801c1681520193016103ff565b92602060019160ff8560781c1681520193016103f7565b92602060019160ff8560701c1681520193016103ef565b92602060019160ff8560681c1681520193016103e7565b92602060019160ff8560601c1681520193016103df565b92602060019160ff8560581c1681520193016103d7565b92602060019160ff8560501c1681520193016103cf565b92602060019160ff8560481c1681520193016103c7565b92602060019160ff8560401c1681520193016103bf565b92602060019160ff8560381c1681520193016103b7565b92602060019160ff8560301c1681520193016103af565b92602060019160ff8560281c1681520193016103a7565b92602060019160ff85831c16815201930161039f565b92602060019160ff8560181c168152019301610397565b92602060019160ff8560101c16815201930161038f565b92602060019160ff8560081c168152019301610387565b92602060019160ff8516815201930161037f565b916020919350610400600191865460ff8116825260ff8160081c168583015260ff8160101c16604083015260ff8160181c16606083015260ff81861c16608083015260ff8160281c1660a083015260ff8160301c1660c083015260ff8160381c1660e083015260ff8160401c1661010083015260ff8160481c1661012083015260ff8160501c1661014083015260ff8160581c1661016083015260ff8160601c1661018083015260ff8160681c166101a083015260ff8160701c166101c083015260ff8160781c166101e083015260ff8160801c1661020083015260ff8160881c1661022083015260ff8160901c1661024083015260ff8160981c1661026083015260ff8160a01c1661028083015260ff8160a81c166102a083015260ff8160b01c166102c083015260ff8160b81c166102e083015260ff8160c01c1661030083015260ff8160c81c1661032083015260ff8160d01c1661034083015260ff8160d81c1661036083015260ff8160e01c1661038083015260ff8160e81c166103a083015260ff8160f01c166103c083015260f81c6103e0820152019401920184929391610367565b50346101c45760803660031901126101c4576004356001600160401b0381116102eb57610970903690600401615313565b6024356001600160401b0381116102e75761098f903690600401615313565b6080526044356001600160a01b0381169182820361220f576064359260ff84169081850361220b5785546001600160a01b03169060048310156121f757908691813b156102e757829160405180948180946368919b3960e11b825260806004830152610a15610a01608484018c61564c565b83810360031901602485015260805161564c565b90604483015288606483015203925af180156121ec576121d8575b5015610a72575b610a6c7f93b86cf0a1d8e18e724e08d47f7248859de317795be109ec2495f6fc7445b4e9936040519384936080519185615918565b0390a180f35b9060405190610a8082615286565b610a88615c2f565b82526040918251610a9984826152d7565b600b81526a54414b414b49205955594160a81b6020820152602082019081528351610ac485826152d7565b601081526f50542e20427564692050656b6572746960801b6020820152848301526044602060018060a01b038954168651928380926395a8c58d60e01b82523360048301528c60248301525afa9081156121ce57889161219f575b501561215157610b38610b328351615691565b5461554b565b61211357610b50610b87915185840151903390615cbe565b602060a08190528551610b8191610b6790826152d7565b898152865190610b7960a051836152d7565b8a8252615c96565b90615cee565b815190845191610b9683615255565b82528451610ba660a051826152d7565b88815260a05183015284820152866060820152610bc38251615691565b81518051906001600160401b038211611507578190610be2845461554b565b601f81116120c3575b5060a05190601f831160011461205d578b92612052575b50508160011b916000199060031b1c19161781555b60a0518201518051906001600160401b038211611507578190610c3d600185015461554b565b601f8111611fff575b5060a05190601f8311600114611f93578b92611f88575b50508160011b916000199060031b1c19161760018201555b84820151610c908151610c8781615671565b60028401615959565b60a0518101516003830155858101516004830155606081015180518051906001600160401b038211611f745790889291610ccd600587015461554b565b601f8111611f1c575b5060a051908d601f8411600114611eab57919083611ea0575b50508160011b916000199060031b1c19161760058501555b6006840160018060a01b0360a051830151166001600160601b0360a01b82541617905501518051906001600160401b038211611dcb57610d4a600785015461554b565b601f8111611e59575b5060a05190601f8311600114611dea5760809392918c9183611ddf575b50508160011b916000199060031b1c19161760078401555b015180518051906001600160401b038211611dcb5790879291610dae600886015461554b565b601f8111611d73575b5060a05190601f8311600114611d02578c919083611cf7575b50508160011b916000199060031b1c19161760088401555b6009830160018060a01b0360a051830151166001600160601b0360a01b82541617905501518051906001600160401b03821161150757610e2b600a84015461554b565b601f8111611cad575b5060a05190601f8311600114611c3c57918060609492600b948d92611c31575b50508160011b916000199060031b1c191617600a8201555b019101516009811015611c1d5760ff80198354169116179055805183820151845190610e9a60a051836152d7565b888252610ea5615a22565b91610eae615b01565b50865193610ebb856152bc565b845260a051840152858301526060820152866080820152610edb87615671565b8660a0820152600454600160401b8110156115b757806001610f029201600455600461552f565b611c095781518051906001600160401b038211611507578190610f25845461554b565b601f8111611bb9575b5060a05190601f8311600114611b53578b92611b48575b50508160011b916000199060031b1c19161781555b60a0518201518051906001600160401b038211611507578190610f80600185015461554b565b601f8111611af5575b5060a05190601f8311600114611a89578b92611a7e575b50508160011b916000199060031b1c19161760018201555b848201518051906001600160401b038211611507578190610fdc600285015461554b565b601f8111611a2b575b5060a05190601f83116001146119bf578b926119b4575b50508160011b916000199060031b1c19161760028201555b60608201518051906001600160401b0382116115075790829161103c6003899695015461554b565b601f8111611959575b5060a051908b601f84116001146118cc57600080516020615dd08339815191529794846110ba956110cf99989560a095600495926118c1575b50508160011b916000199060031b1c19161760038201555b019160ff60808201511660ff198454161783550151906110b582615671565b6159df565b0151845191829160808352608083019061564c565b3360a05183015288868301524260608301520390a18151926110f084615255565b82516110fc84826152d7565b600c81526b6153414a4b2d41534644415360a01b60a0518201528452611120615c2f565b60a051850152825161113284826152d7565b60088152674e494c4f4a55524960c01b60a051820152838501908152835161115a85826152d7565b600d81526c212827a69026b0b5b0b9b9b0b960991b60a051820152606086015261118860a051860151615691565b90611193825461554b565b1561188a5760ff6002830154166111a981615671565b611845575160608601516111be913390615cbe565b80518051906001600160401b03821161150757908692916111e2600886015461554b565b601f81116117ee575b5060a05190601f831160011461177d578b919083611772575b50508160011b916000199060031b1c19161760088401555b6009830160018060a01b0360a051830151166001600160601b0360a01b82541617905501518051906001600160401b038211611695578190611261600a85015461554b565b601f8111611720575b5060a05190601f83116001146116b4578a926116a9575b50508160011b916000199060031b1c191617600a8201555b60028101805460ff1916600117905542600482015584518051906001600160401b038211611695576112ce600184015461554b565b601f811161164b575b5060a05190601f83116001146115d65792826113199360079361131e968d926115cb575b50508160011b916000199060031b1c19161760018201555b01615585565b6156dd565b805490600160401b8210156115b7579061133d91600182018155615830565b60ff82549160031b1b19169055855b60045481101561151b5761135f816154fa565b5084516113758161016560a05182018095615971565b51902061139d60a0518701516113b387519160a0518301938185925192839160a05101615629565b8260a0519181010301601f1981018352826152d7565b519020146113c4575b60010161134c565b845160016113d1836154fa565b5001908051906001600160401b038211611507576113ef835461554b565b601f81116114c0575b5060a05190601f8311600114611456576001949392918b918361144b575b5050600019600383901b1c191690841b1790555b6004611435826154fa565b5001805461ff00191661010017905590506113bc565b015190503880611416565b838b5260a0518b209190601f1984168c5b8181106114a757509160019695949291838895931061148e575b505050811b01905561142a565b015160001960f88460031b161c19169055388080611481565b82840151855560a0516001909501949384019301611467565b838b5260a0518b20601f840160051c81019160a05185106114fd575b601f0160051c01905b8181106114f257506113f8565b8b81556001016114e5565b90915081906114dc565b634e487b7160e01b8a52604160045260248afd5b5091937f5f0795f9828e754b342c66dc560f8879d7982ca16fbeb97634e54f75bd39bfd7611589610a6c93956115a67f93b86cf0a1d8e18e724e08d47f7248859de317795be109ec2495f6fc7445b4e99860608301519251611599825195869560a0875260a087019061564c565b923360a05187015285018d615823565b838203606085015261564c565b4260808301520390a1935050610a37565b634e487b7160e01b88526041600452602488fd5b0151905038806112fb565b600184018a5260a0518a209190601f1984168b5b81811061163257509360079361131e9693600193836113199810611619575b505050811b016001820155611313565b015160001960f88460031b161c19169055388080611609565b82840151855560a05160019095019493840193016115ea565b600184018a5260a0518a20601f840160051c81019160a051851061168b575b601f0160051c01905b81811061168057506112d7565b8a8155600101611673565b909150819061166a565b634e487b7160e01b89526041600452602489fd5b015190503880611281565b600a85018b5260a0518b209250601f1984168b5b81811061170757509084600195949392106116ee575b505050811b01600a820155611299565b015160001960f88460031b161c191690553880806116de565b82840151855560a05160019095019493840193016116c8565b909150600a84018a5260a0518a20601f840160051c810160a051851061176b575b90849392915b601f830160051c8201811061175d57505061126a565b8c8155859450600101611747565b5080611741565b015190503880611204565b600886018c5260a0518c209094939291601f1983168d5b8181106117d2575095836001959697106117b9575b505050811b01600884015561121c565b015160001960f88460031b161c191690553880806117a9565b87830151845560a0518c97506001909401939283019201611794565b9091929350600885018b5260a0518b20601f840160051c810160a051851061183e575b908995949392915b8d601f840160051c83018210611831575050506111eb565b81558a9650600101611819565b5080611811565b845162461bcd60e51b815260a0805160048301525160248201527f43504f544220737461747573206d7573742062652027526571756573746564276044820152606490fd5b845162461bcd60e51b815260a0516004820152600f60248201526e10d413d510881b9bdd08199bdd5b99608a1b6044820152606490fd5b01519050388061107e565b50600384018c5260a0518c209190601f1984168d5b81811061193d5750946001856110cf99989560a0956004956110ba99600080516020615dd08339815191529e9b10611924575b505050811b016003820155611096565b015160001960f88460031b161c19169055388080611914565b82840151855560a0518c995060019095019493840193016118e1565b909192939450600384018b5260a0518b20601f840160051c81019160a05185106119aa575b90601f8a9796959493920160051c01905b81811061199c5750611045565b8c815589965060010161198f565b909150819061197e565b015190503880610ffc565b600285018c5260a0518c209250601f1984168c5b818110611a1257509084600195949392106119f9575b505050811b016002820155611014565b015160001960f88460031b161c191690553880806119e9565b82840151855560a05160019095019493840193016119d3565b909150600284018b5260a0518b20601f840160051c810160a0518510611a77575b90849392915b8d601f840160051c83018210611a6a57505050610fe5565b8155859450600101611a52565b5080611a4c565b015190503880610fa0565b600185018c5260a0518c209250601f1984168c5b818110611adc5750908460019594939210611ac3575b505050811b016001820155610fb8565b015160001960f88460031b161c19169055388080611ab3565b82840151855560a0516001909501949384019301611a9d565b909150600184018b5260a0518b20601f840160051c810160a0518510611b41575b90849392915b8d601f840160051c83018210611b3457505050610f89565b8155859450600101611b1c565b5080611b16565b015190503880610f45565b848c5260a0518c209250601f1984168c5b818110611ba05750908460019594939210611b87575b505050811b018155610f5a565b015160001960f88460031b161c19169055388080611b7a565b82840151855560a0516001909501949384019301611b64565b909150838b5260a0518b20601f840160051c810160a0518510611c02575b90849392915b8d601f840160051c83018210611bf557505050610f2e565b8155859450600101611bdd565b5080611bd7565b634e487b7160e01b88526004889052602488fd5b634e487b7160e01b88526021600452602488fd5b015190503880610e54565b600a84018b5260a0518b209190601f1984168c5b818110611c945750926001928592600b966060989610611c7b575b505050811b01600a820155610e6c565b015160001960f88460031b161c19169055388080611c6b565b82840151855560a0516001909501949384019301611c50565b600a84018b5260a0518b20601f840160051c81019160a0518510611ced575b601f0160051c01905b818110611ce25750610e34565b8b8155600101611cd5565b9091508190611ccc565b015190503880610dd0565b600886018d5260a0518d209094939291601f1983168e5b818110611d5757509583600195969710611d3e575b505050811b016008840155610de8565b015160001960f88460031b161c19169055388080611d2e565b87830151845560a0518d97506001909401939283019201611d19565b9091929350600885018c5260a0518c20601f840160051c810160a0518510611dc4575b8a9594939291908e5b601f840160051c83018210611db657505050610db7565b81558b96506001018e611d9f565b5080611d96565b634e487b7160e01b8b52604160045260248bfd5b015190503880610d70565b600785018c5260a0518c209190601f1984168d5b818110611e405750916001939185608097969410611e27575b505050811b016007840155610d88565b015160001960f88460031b161c19169055388080611e17565b82840151855560a0516001909501949384019301611dfe565b600785018c5260a0518c20601f840160051c810160a0518510611e99575b8d601f840160051c83018210611e8f57505050610d53565b8155600101611e77565b5080611e77565b015190503880610cef565b9094939291601f19831660058901835260a0518320925b818110611f0057509583600195969710611ee7575b505050811b016005850155610d07565b015160001960f88460031b161c19169055388080611ed7565b87830151845560a0518e97506001909401939283019201611ec2565b9091929350600586018d5260a0518d20601f840160051c810160a0518510611f6d575b8b9594939291908f5b601f840160051c83018210611f5f57505050610cd6565b81558c96506001018f611f48565b5080611f3f565b634e487b7160e01b8c52604160045260248cfd5b015190503880610c5d565b600185018c5260a0518c209250601f1984168c5b818110611fe65750908460019594939210611fcd575b505050811b016001820155610c75565b015160001960f88460031b161c19169055388080611fbd565b82840151855560a0516001909501949384019301611fa7565b909150600184018b5260a0518b20601f840160051c810160a051851061204b575b90849392915b8d601f840160051c8301821061203e57505050610c46565b8155859450600101612026565b5080612020565b015190503880610c02565b848c5260a0518c209250601f1984168c5b8181106120aa5750908460019594939210612091575b505050811b018155610c17565b015160001960f88460031b161c19169055388080612084565b82840151855560a051600190950194938401930161206e565b909150838b5260a0518b20601f840160051c810160a051851061210c575b90849392915b8d601f840160051c830182106120ff57505050610beb565b81558594506001016120e7565b50806120e1565b835162461bcd60e51b815260206004820152601760248201527643504f544220494420616c72656164792065786973747360481b6044820152606490fd5b835162461bcd60e51b815260206004820152602160248201527f416363657373207265737472696374656420746f20466163746f727920726f6c6044820152606560f81b6064820152608490fd5b6121c1915060203d6020116121c7575b6121b981836152d7565b8101906159fe565b38610b1f565b503d6121af565b85513d8a823e3d90fd5b856121e5919692966152d7565b9338610a30565b6040513d88823e3d90fd5b634e487b7160e01b87526021600452602487fd5b8580fd5b8380fd5b50346101c457806003193601126101c45761222f6100e8615a45565b61225560ff60405160208101906331b237b160e11b8252600481526101146024826152d7565b918091600454925b838110612272576040518061013b8782615850565b816003610165612284610151856154fa565b51902014612295575b60010161225d565b916122ab6001916101b66101a061019a876154fa565b92905061228d565b50346101c45760203660031901126101c4576004356001600160401b0381116102eb576122e4903690600401615313565b6004546020820192909181805b8481106123a2575060ff6123059116615b35565b93825b84811061231d576040518061013b8882615850565b600261016561232e610151846154fa565b519020604051602081019061235d602082885161234c81878b615629565b81010301601f1981018352826152d7565b5190201461236e575b600101612308565b9261239a6001916101b661238461019a886154fa565b60ff831690612393828c615b85565b5289615b85565b939050612366565b60026101656123b3610151846154fa565b51902060405160208101906123d36020828461234c8d8b51928391615629565b519020146123e4575b6001016122f1565b906123f0600191615c08565b9190506123dc565b50346101c4576124073661535f565b82546040516395a8c58d60e01b81523360048201526002602482015291929190602090829060449082906001600160a01b03165afa908115612b0e578491612aef575b5015612aaa576020810161245e81516156b7565b92612469845461554b565b15612a7457600284019360ff85541661248181615671565b612a2f5760408401519461249d60608601968751903390615cbe565b6008830181518051906001600160401b038211611dcb5781906124c0845461554b565b601f81116129df575b50602090601f831160011461297c578c92612971575b50508160011b916000199060031b1c19161790555b60208101516009840180546001600160a01b0319166001600160a01b0392909216919091179055604001518051600a8401916001600160401b038211611507578190612540845461554b565b601f8111612921575b50602090601f83116001146128be578b926128b3575b50508160011b916000199060031b1c19161790555b600160ff19825416179055426004820155600184519101908051906001600160401b0382116115b75781906125a9845461554b565b601f8111612863575b50602090601f83116001146128005789926127f5575b50508160011b916000199060031b1c19161790555b845b600454811015612778576125f2816154fa565b5060405161260881610165602082018095615971565b519020835160405161262a6020828161234c8183019687815193849201615629565b5190201461263b575b6001016125df565b83516001612648836154fa565b5001908051906001600160401b03821161169557612666835461554b565b601f8111612733575b50602090601f83116001146126cc576001949392918a91836126c1575b5050600019600383901b1c191690841b1790555b60046126ab826154fa565b5001805461ff0019166101001790559050612633565b01519050388061268c565b838a52818a209190601f1984168b5b81811061271b575091600196959492918388959310612702575b505050811b0190556126a0565b015160001960f88460031b161c191690553880806126f5565b929360206001819287860151815501950193016126db565b838a5260208a20601f840160051c8101916020851061276e575b601f0160051c01905b818110612763575061266f565b8a8155600101612756565b909150819061274d565b857f8d8f26b533bc5f62a32de1faa67facbf43e75bd50ab3e60343fd421507e8dd636127c7846127e98860ff8b519316906127b282615671565b5160405194859460a0865260a086019061564c565b913360208601526127d781615671565b6040850152838203606085015261564c565b4260808301520390a180f35b0151905038806125c8565b848a52818a209250601f1984168a5b81811061284b5750908460019594939210612832575b505050811b0190556125dd565b015160001960f88460031b161c19169055388080612825565b9293602060018192878601518155019501930161280f565b90915083895260208920601f840160051c810191602085106128a9575b90601f859493920160051c01905b81811061289b57506125b2565b8a815584935060010161288e565b9091508190612880565b01519050388061255f565b848c52818c209250601f1984168c5b81811061290957509084600195949392106128f0575b505050811b019055612574565b015160001960f88460031b161c191690553880806128e3565b929360206001819287860151815501950193016128cd565b909150838b5260208b20601f840160051c81019160208510612967575b90601f859493920160051c01905b8181106129595750612549565b8c815584935060010161294c565b909150819061293e565b0151905038806124df565b848d52818d209250601f1984168d5b8181106129c757509084600195949392106129ae575b505050811b0190556124f4565b015160001960f88460031b161c191690553880806129a1565b9293602060018192878601518155019501930161298b565b909150838c5260208c20601f840160051c81019160208510612a25575b90601f859493920160051c01905b818110612a1757506124c9565b8d8155849350600101612a0a565b90915081906129fc565b60405162461bcd60e51b815260206004820152601f60248201527f43444f4220737461747573206d757374206265202752657175657374656427006044820152606490fd5b60405162461bcd60e51b815260206004820152600e60248201526d10d113d0881b9bdd08199bdd5b9960921b6044820152606490fd5b60405162461bcd60e51b815260206004820152601e60248201527f416363657373207265737472696374656420746f2042504f4d20726f6c6500006044820152606490fd5b612b08915060203d6020116121c7576121b981836152d7565b3861244a565b6040513d86823e3d90fd5b50346101c45760403660031901126101c4576004356001600160401b0381116102eb57612b4a903690600401615313565b90612b676020602435938160405193828580945193849201615629565b810160038152030190209081548310156101c457602060ff612b898585615830565b90549060031b1c16604051908152f35b50346101c45760203660031901126101c457600435906001600160401b0382116101c457612c22612bd260206103303660048701615313565b81016002815203019020612be581615585565b90612c3e612bf560018301615585565b91612c3060ff600b612c0960028501615742565b930154169360405196879660808852608088019061564c565b90868203602088015261564c565b9084820360408601526157d2565b90612c4881615671565b60608301520390f35b50346101c45760203660031901126101c457600435906001600160401b0382116101c457612d2a612ca66020612c8a3660048701615313565b612c92615abe565b508160405193828580945193849201615629565b8101600281520301902060405190612cbd82615255565b612cc681615585565b8252612d50612cd760018301615585565b9160208401928352612d3d60ff600b612cf260028501615742565b9360408801948552015416936060860194612d0c81615671565b855260405196879660208852516080602089015260a088019061564c565b9051868203601f1901604088015261564c565b9051848203601f190160608601526157d2565b9051612d5b81615671565b60808301520390f35b50346101c45760203660031901126101c457600435906001600160401b0382116101c457612e22612d9d6020612c8a3660048701615313565b8101600181520301902060405190612db482615255565b612dbd81615585565b825261013b612e48612dd160018401615585565b9260208501938452612e3560ff600b612dec60028501615742565b936040890194855201541694612e06606088019687615a16565b6040519788976020895251608060208a015260a089019061564c565b9051878203601f1901604089015261564c565b9051858203601f190160608701526157d2565b91516080840190615823565b50346101c457612e6336615440565b82546040516395a8c58d60e01b81523360048201526001602482015291929190602090829060449082906001600160a01b03165afa908115612b0e578491613c72575b5015613c2d57612eb9610b3282516156b7565b613bef576020810151612ed460408301918251903390615cbe565b91612f04602093610b81604051612eeb87826152d7565b88815260405190612efc88836152d7565b898252615c96565b60ff8251951694612f1486615671565b60405190612f2182615255565b815260405191612f3186846152d7565b878352858201928352604082019081526060820192612f4f88615671565b878452612f5c85516156b7565b92518051906001600160401b038211611dcb578190612f7b865461554b565b601f8111613ba1575b508990601f8311600114613b3e578c92613b33575b50508160011b916000199060031b1c19161783555b51805160018401916001600160401b038211611dcb578190612fd0845461554b565b601f8111613ae5575b508990601f8311600114613a82578c92613a77575b50508160011b916000199060031b1c19161790555b516130128151610c8781615671565b8086015160038301556040810151600483015560608101518051805160058501916001600160401b038211611f7457819061304d845461554b565b601f8111613a26575b508a908d601f84116001146139c357926139b8575b50508160011b916000199060031b1c19161790555b808701516006840180546001600160a01b0319166001600160a01b039290921691909117905560400151805160078401916001600160401b038211611dcb5781906130cb845461554b565b601f811161396a575b508990601f8311600114613907578c926138fc575b50508160011b916000199060031b1c19161790555b608001518051805160088401916001600160401b038211611dcb578190613125845461554b565b601f81116138ae575b508990601f831160011461384b578c92613840575b50508160011b916000199060031b1c19161790555b808601516009830180546001600160a01b0319166001600160a01b0392909216919091179055604001518051600a8301916001600160401b038211611507576131a1835461554b565b601f81116137fd575b508790601f8311600114613791579180600b9492613236989796948d92613786575b50508160011b916000199060031b1c19161790555b0190516131ed81615671565b6131f681615671565b60ff801983541691161790555184835161320f82615671565b61321882615671565b60405161322587826152d7565b888152613230615a45565b93615d23565b600454600160401b811015613772578060016132579201600455600461552f565b61375e5781518051906001600160401b0382116115b757819061327a845461554b565b601f8111613710575b508690601f83116001146136ad5789926136a2575b50508160011b916000199060031b1c19161781555b60018101848301518051906001600160401b0382116116955781906132d2845461554b565b601f8111613654575b508790601f83116001146135f1578a926135e6575b50508160011b916000199060031b1c19161790555b6002810160408301518051906001600160401b03821161169557819061332b845461554b565b601f8111613598575b508790601f8311600114613535578a9261352a575b50508160011b916000199060031b1c19161790555b6003810160608301518051906001600160401b03821161169557613382835461554b565b601f81116134e7575b50869089601f8411600114613453579461340994846134289a989560a0956004957f7002576f080ade70048a03ad81b929b78c8b7e148fd11f40f286a8b6900e6f9b9e9c9a92613448575b50508160011b916000199060031b1c1916179055019160ff60808201511660ff198454161783550151906110b582615671565b519161341481615671565b60405193849360808552608085019061564c565b91339084015261343781615671565b60408301524260608301520390a180f35b0151905038806133d6565b50838a52878a209190601f1984168b5b8181106134d057509460018560a0956004957f7002576f080ade70048a03ad81b929b78c8b7e148fd11f40f286a8b6900e6f9b9e9c9a956134289e9c996134099b106134b7575b505050811b019055611096565b015160001960f88460031b161c191690553880806134aa565b92938a600181928786015181550195019301613463565b838a52878a20601f840160051c810191898510613520575b601f0160051c01905b818110613515575061338b565b8a8155600101613508565b90915081906134ff565b015190503880613349565b848b52888b209250601f1984168b5b8a828210613582575050908460019594939210613569575b505050811b01905561335e565b015160001960f88460031b161c1916905538808061355c565b6001859682939686015181550195019301613544565b909150838a52878a20601f840160051c8101918985106135dc575b90601f859493920160051c01905b8181106135ce5750613334565b8b81558493506001016135c1565b90915081906135b3565b0151905038806132f0565b848b52888b209250601f1984168b5b8a82821061363e575050908460019594939210613625575b505050811b019055613305565b015160001960f88460031b161c19169055388080613618565b6001859682939686015181550195019301613600565b909150838a52878a20601f840160051c810191898510613698575b90601f859493920160051c01905b81811061368a57506132db565b8b815584935060010161367d565b909150819061366f565b015190503880613298565b848a52878a209250601f1984168a5b898282106136fa5750509084600195949392106136e1575b505050811b0181556132ad565b015160001960f88460031b161c191690553880806136d4565b60018596829396860151815501950193016136bc565b909150838952868920601f840160051c810191888510613754575b90601f859493920160051c01905b8181106137465750613283565b8a8155849350600101613739565b909150819061372b565b634e487b7160e01b86526004869052602486fd5b634e487b7160e01b86526041600452602486fd5b0151905038806131cc565b838b52888b209190601f1984168c5b8b8282106137e75750509260019285926132369a999896600b9896106137ce575b505050811b0190556131e1565b015160001960f88460031b161c191690553880806137c1565b60018596829396860151815501950193016137a0565b838b52888b20601f840160051c8101918a8510613836575b601f0160051c01905b81811061382b57506131aa565b8b815560010161381e565b9091508190613815565b015190503880613143565b848d528a8d209250601f1984168d5b8c82821061389857505090846001959493921061387f575b505050811b019055613158565b015160001960f88460031b161c19169055388080613872565b600185968293968601518155019501930161385a565b909150838c52898c20601f840160051c8101918b85106138f2575b90601f859493920160051c01905b8181106138e4575061312e565b8d81558493506001016138d7565b90915081906138c9565b0151905038806130e9565b848d528a8d209250601f1984168d5b8c82821061395457505090846001959493921061393b575b505050811b0190556130fe565b015160001960f88460031b161c1916905538808061392e565b6001859682939686015181550195019301613916565b909150838c52898c20601f840160051c8101918b85106139ae575b90601f859493920160051c01905b8181106139a057506130d4565b8d8155849350600101613993565b9091508190613985565b01519050388061306b565b8581528c81209350601f198516905b8d828210613a105750509084600195949392106139f7575b505050811b019055613080565b015160001960f88460031b161c191690553880806139ea565b60018596829396860151815501950193016139d2565b909150838d528a8d20601f840160051c8101918c8510613a6d575b849392918f91601f0160051c0191905b828210613a5f575050613056565b81558493506001018e613a51565b9091508190613a41565b015190503880612fee565b848d528a8d209250601f1984168d5b8c828210613acf575050908460019594939210613ab6575b505050811b019055613003565b015160001960f88460031b161c19169055388080613aa9565b6001859682939686015181550195019301613a91565b909150838c52898c20601f840160051c8101918b8510613b29575b90601f859493920160051c01905b818110613b1b5750612fd9565b8d8155849350600101613b0e565b9091508190613b00565b015190503880612f99565b868d528a8d209250601f1984168d5b8c828210613b8b575050908460019594939210613b72575b505050811b018355612fae565b015160001960f88460031b161c19169055388080613b65565b6001859682939686015181550195019301613b4d565b909150858c52898c20601f840160051c8101918b8510613be5575b90601f859493920160051c01905b818110613bd75750612f84565b8d8155849350600101613bca565b9091508190613bbc565b60405162461bcd60e51b815260206004820152601660248201527543444f4220494420616c72656164792065786973747360501b6044820152606490fd5b60405162461bcd60e51b815260206004820152601d60248201527f416363657373207265737472696374656420746f2050424620726f6c650000006044820152606490fd5b613c8b915060203d6020116121c7576121b981836152d7565b38612ea6565b50346101c45760203660031901126101c457600435906001600160401b0382116101c457613d1d613cca60206103303660048701615313565b81016001815203019020613cdd81615585565b9061013b613d39613cf060018401615585565b92613d2b60ff600b613d0460028501615742565b930154169460405197889760808952608089019061564c565b90878203602089015261564c565b9085820360408701526157d2565b916060840190615823565b50346101c45760203660031901126101c457600435906004548210156101c457613dcc613d70836154fa565b50613d7a81615585565b90613d8760018201615585565b60ff613df6613d9860028501615585565b93613de86004613daa60038401615585565b92015495613dda858860081c16966040519a8b9a60c08c5260c08c019061564c565b908a820360208c015261564c565b9088820360408a015261564c565b90868203606088015261564c565b92166080840152613e0681615671565b60a08301520390f35b50346101c457613e1e36615440565b906044602060018060a01b03855416604051928380926395a8c58d60e01b82523360048301528860248301525afa908115612b0e578491614b77575b5015614b2857613e6d610b328251615691565b614ae9576020810151613e8860408301918251903390615cbe565b91613e9f602093610b81604051612eeb87826152d7565b60ff825195169460098610156121f75760405190613ebc82615255565b815260405191613ecc86846152d7565b878352858201928352604082019081526060820192613eeb8885615a16565b613ef58551615691565b92518051906001600160401b038211611dcb578190613f14865461554b565b601f8111614a9b575b508990601f8311600114614a38578c92614a2d575b50508160011b916000199060031b1c19161783555b51805160018401916001600160401b038211611dcb578190613f69845461554b565b601f81116149df575b508990601f831160011461497c578c92614971575b50508160011b916000199060031b1c19161790555b51613fab8151610c8781615671565b8086015160038301556040810151600483015560608101518051805160058501916001600160401b038211611f74578190613fe6845461554b565b601f8111614920575b508a908d601f84116001146148bd57926148b2575b50508160011b916000199060031b1c19161790555b808701516006840180546001600160a01b0319166001600160a01b039290921691909117905560400151805160078401916001600160401b038211611dcb578190614064845461554b565b601f8111614864575b508990601f8311600114614801578c926147f6575b50508160011b916000199060031b1c19161790555b608001518051805160088401916001600160401b038211611dcb5781906140be845461554b565b601f81116147a8575b508990601f8311600114614745578c9261473a575b50508160011b916000199060031b1c19161790555b808601516009830180546001600160a01b0319166001600160a01b0392909216919091179055604001518051600a8301916001600160401b0382116115075761413a835461554b565b601f81116146f7575b508790601f831160011461469057600b949392918b9183614685575b50508160011b916000199060031b1c19161790555b01905160098110156121f757906141ae929160ff80198354169116179055518483516040516141a387826152d7565b888152613230615a22565b600454600160401b811015613772578060016141cf9201600455600461552f565b61375e5781518051906001600160401b0382116115b75781906141f2845461554b565b601f8111614637575b508690601f83116001146145d45789926145c9575b50508160011b916000199060031b1c19161781555b60018101848301518051906001600160401b03821161169557819061424a845461554b565b601f811161457b575b508790601f8311600114614518578a9261450d575b50508160011b916000199060031b1c19161790555b6002810160408301518051906001600160401b0382116116955781906142a3845461554b565b601f81116144bf575b508790601f831160011461445c578a92614451575b50508160011b916000199060031b1c19161790555b6003810160608301518051906001600160401b038211611695576142fa835461554b565b601f811161440e575b50869089601f84116001146143a35761439795600080516020615dd08339815191529a989585614371966143879c9a9660a096600496926134485750508160011b916000199060031b1c1916179055019160ff60808201511660ff198454161783550151906110b582615671565b519260405194859460808652608086019061564c565b9233908501526040840190615823565b4260608301520390a180f35b50838a52878a209190601f1984168b5b8181106143f7575095600080516020615dd08339815191529a98956001866143879c9a9660a0966004966143719a6143979d106134b757505050811b019055611096565b92938a6001819287860151815501950193016143b3565b838a52878a20601f840160051c810191898510614447575b601f0160051c01905b81811061443c5750614303565b8a815560010161442f565b9091508190614426565b0151905038806142c1565b848b52888b209250601f1984168b5b8a8282106144a9575050908460019594939210614490575b505050811b0190556142d6565b015160001960f88460031b161c19169055388080614483565b600185968293968601518155019501930161446b565b909150838a52878a20601f840160051c810191898510614503575b90601f859493920160051c01905b8181106144f557506142ac565b8b81558493506001016144e8565b90915081906144da565b015190503880614268565b848b52888b209250601f1984168b5b8a82821061456557505090846001959493921061454c575b505050811b01905561427d565b015160001960f88460031b161c1916905538808061453f565b6001859682939686015181550195019301614527565b909150838a52878a20601f840160051c8101918985106145bf575b90601f859493920160051c01905b8181106145b15750614253565b8b81558493506001016145a4565b9091508190614596565b015190503880614210565b848a52878a209250601f1984168a5b89828210614621575050908460019594939210614608575b505050811b018155614225565b015160001960f88460031b161c191690553880806145fb565b60018596829396860151815501950193016145e3565b909150838952868920601f840160051c81019188851061467b575b90601f859493920160051c01905b81811061466d57506141fb565b8a8155849350600101614660565b9091508190614652565b01519050388061415f565b838b52888b209190601f1984168c5b8b8282106146e1575050916001939185600b98979694106146c8575b505050811b019055614174565b015160001960f88460031b161c191690553880806146bb565b600185968293968601518155019501930161469f565b838b52888b20601f840160051c8101918a8510614730575b601f0160051c01905b8181106147255750614143565b8b8155600101614718565b909150819061470f565b0151905038806140dc565b848d528a8d209250601f1984168d5b8c828210614792575050908460019594939210614779575b505050811b0190556140f1565b015160001960f88460031b161c1916905538808061476c565b6001859682939686015181550195019301614754565b909150838c52898c20601f840160051c8101918b85106147ec575b90601f859493920160051c01905b8181106147de57506140c7565b8d81558493506001016147d1565b90915081906147c3565b015190503880614082565b848d528a8d209250601f1984168d5b8c82821061484e575050908460019594939210614835575b505050811b019055614097565b015160001960f88460031b161c19169055388080614828565b6001859682939686015181550195019301614810565b909150838c52898c20601f840160051c8101918b85106148a8575b90601f859493920160051c01905b81811061489a575061406d565b8d815584935060010161488d565b909150819061487f565b015190503880614004565b8581528c81209350601f198516905b8d82821061490a5750509084600195949392106148f1575b505050811b019055614019565b015160001960f88460031b161c191690553880806148e4565b60018596829396860151815501950193016148cc565b909150838d528a8d20601f840160051c8101918c8510614967575b849392918f91601f0160051c0191905b828210614959575050613fef565b81558493506001018e61494b565b909150819061493b565b015190503880613f87565b848d528a8d209250601f1984168d5b8c8282106149c95750509084600195949392106149b0575b505050811b019055613f9c565b015160001960f88460031b161c191690553880806149a3565b600185968293968601518155019501930161498b565b909150838c52898c20601f840160051c8101918b8510614a23575b90601f859493920160051c01905b818110614a155750613f72565b8d8155849350600101614a08565b90915081906149fa565b015190503880613f32565b868d528a8d209250601f1984168d5b8c828210614a85575050908460019594939210614a6c575b505050811b018355613f47565b015160001960f88460031b161c19169055388080614a5f565b6001859682939686015181550195019301614a47565b909150858c52898c20601f840160051c8101918b8510614adf575b90601f859493920160051c01905b818110614ad15750613f1d565b8d8155849350600101614ac4565b9091508190614ab6565b60405162461bcd60e51b815260206004820152601760248201527643504f544220494420616c72656164792065786973747360481b6044820152606490fd5b60405162461bcd60e51b815260206004820152602160248201527f416363657373207265737472696374656420746f20466163746f727920726f6c6044820152606560f81b6064820152608490fd5b614b90915060203d6020116121c7576121b981836152d7565b38613e5a565b50346101c457614ba53661535f565b9060208101614bb48151615691565b92614bbf845461554b565b1561521e57600284019360ff855416614bd781615671565b6151da57604084015194614bf360608601968751903390615cbe565b6008830181518051906001600160401b038211611dcb578190614c16845461554b565b601f811161518a575b50602090601f8311600114615127578c9261511c575b50508160011b916000199060031b1c19161790555b60208101516009840180546001600160a01b0319166001600160a01b0392909216919091179055604001518051600a8401916001600160401b038211611507578190614c96845461554b565b601f81116150cc575b50602090601f8311600114615069578b9261505e575b50508160011b916000199060031b1c19161790555b600160ff19825416179055426004820155835160018201908051906001600160401b03821161169557614cfd835461554b565b601f8111615019575b5060209089601f8411600114614fa95793836113199460079460ff9894614d479892614f9e575b50508160011b916000199060031b1c191617905501615585565b9116906009821015614f8a57805490600160401b821015614f765790614d7291600182018155615830565b81549060031b9060ff84831b921b1916179055845b600454811015614f2057614d9a816154fa565b50604051614db081610165602082018095615971565b5190208351604051614dd26020828161234c8183019687815193849201615629565b51902014614de3575b600101614d87565b83516001614df0836154fa565b5001908051906001600160401b03821161169557614e0e835461554b565b601f8111614edb575b50602090601f8311600114614e74576001949392918a9183614e69575b5050600019600383901b1c191690841b1790555b6004614e53826154fa565b5001805461ff0019166101001790559050614ddb565b015190503880614e34565b838a52818a209190601f1984168b5b818110614ec3575091600196959492918388959310614eaa575b505050811b019055614e48565b015160001960f88460031b161c19169055388080614e9d565b92936020600181928786015181550195019301614e83565b838a5260208a20601f840160051c81019160208510614f16575b601f0160051c01905b818110614f0b5750614e17565b8a8155600101614efe565b9091508190614ef5565b857f5f0795f9828e754b342c66dc560f8879d7982ca16fbeb97634e54f75bd39bfd7614f65866127e9868a51925161159960405195869560a0875260a087019061564c565b923360208701526040860190615823565b634e487b7160e01b87526041600452602487fd5b634e487b7160e01b86526021600452602486fd5b015190503880614d2d565b50838a52818a209190601f1984168b5b81811061500157508460079460ff9894614d4798946113199860019510614fe8575b505050811b019055611313565b015160001960f88460031b161c19169055388080614fdb565b92936020600181928786015181550195019301614fb9565b838a5260208a20601f840160051c81019160208510615054575b601f0160051c01905b8181106150495750614d06565b8a815560010161503c565b9091508190615033565b015190503880614cb5565b848c52818c209250601f1984168c5b8181106150b4575090846001959493921061509b575b505050811b019055614cca565b015160001960f88460031b161c1916905538808061508e565b92936020600181928786015181550195019301615078565b909150838b5260208b20601f840160051c81019160208510615112575b90601f859493920160051c01905b8181106151045750614c9f565b8c81558493506001016150f7565b90915081906150e9565b015190503880614c35565b848d52818d209250601f1984168d5b8181106151725750908460019594939210615159575b505050811b019055614c4a565b015160001960f88460031b161c1916905538808061514c565b92936020600181928786015181550195019301615136565b909150838c5260208c20601f840160051c810191602085106151d0575b90601f859493920160051c01905b8181106151c25750614c1f565b8d81558493506001016151b5565b90915081906151a7565b606460405162461bcd60e51b815260206004820152602060248201527f43504f544220737461747573206d7573742062652027526571756573746564276044820152fd5b60405162461bcd60e51b815260206004820152600f60248201526e10d413d510881b9bdd08199bdd5b99608a1b6044820152606490fd5b608081019081106001600160401b0382111761527057604052565b634e487b7160e01b600052604160045260246000fd5b606081019081106001600160401b0382111761527057604052565b60a081019081106001600160401b0382111761527057604052565b60c081019081106001600160401b0382111761527057604052565b90601f801991011681019081106001600160401b0382111761527057604052565b6001600160401b03811161527057601f01601f191660200190565b81601f8201121561535a5780359061532a826152f8565b9261533860405194856152d7565b8284526020838301011161535a57816000926020809301838601378301015290565b600080fd5b604060031982011261535a576004356001600160401b03811161535a576080818303600319011261535a576040519161539783615255565b81600401356001600160401b03811161535a578160046153b992850101615313565b835260248201356001600160401b03811161535a578160046153dd92850101615313565b602084015260448201356001600160401b03811161535a5781600461540492850101615313565b60408401526064820135916001600160401b03831161535a5761542a9201600401615313565b60608201529060243560ff8116810361535a5790565b604060031982011261535a576004356001600160401b03811161535a576060818303600319011261535a576040519161547883615286565b81600401356001600160401b03811161535a5781600461549a92850101615313565b835260248201356001600160401b03811161535a578160046154be92850101615313565b60208401526044820135916001600160401b03831161535a576154e49201600401615313565b60408201529060243560ff8116810361535a5790565b6004548110156155195760046000526005602060002091020190600090565b634e487b7160e01b600052603260045260246000fd5b8054821015615519576000526005602060002091020190600090565b90600182811c9216801561557b575b602083101461556557565b634e487b7160e01b600052602260045260246000fd5b91607f169161555a565b90604051918260008254926155998461554b565b808452936001811690811561560757506001146155c0575b506155be925003836152d7565b565b90506000929192526020600020906000915b8183106155eb5750509060206155be92820101386155b1565b60209193508060019154838589010152019101909184926155d2565b9050602092506155be94915060ff191682840152151560051b820101386155b1565b60005b83811061563c5750506000910152565b818101518382015260200161562c565b9060209161566581518092818552858086019101615629565b601f01601f1916010190565b6002111561567b57565b634e487b7160e01b600052602160045260246000fd5b60206156aa918160405193828580945193849201615629565b8101600181520301902090565b60206156d0918160405193828580945193849201615629565b8101600281520301902090565b60206156f6918160405193828580945193849201615629565b8101600381520301902090565b9060405161571081615286565b604061573d6002839561572281615585565b855260018101546001600160a01b0316602086015201615585565b910152565b9060405161574f816152a1565b608061573d6006839560ff81541661576681615671565b8552600181015460208601526002810154604086015261578860038201615703565b606086015201615703565b6157cf9160406157ac835160608452606084019061564c565b9260018060a01b036020820151166020840152015190604081840391015261564c565b90565b6157cf9181516157e181615671565b815260208201516020820152604082015160408201526080615812606084015160a0606085015260a0840190615793565b920151906080818403910152615793565b90600982101561567b5752565b919091805483101561551957600052601f60206000208360051c01921690565b602081016020825282518091526040820191602060408360051b8301019401926000915b83831061588357505050505090565b9091929394602080600192603f1985820301865288519060a0806158ed6158db6158c96158b9875160c0885260c088019061564c565b888801518782038a89015261564c565b6040870151868203604088015261564c565b6060860151858203606087015261564c565b9360ff608082015116608085015201519161590783615671565b015297019301930191939290615874565b926159529061594460609460ff9498979860018060a01b0316875260806020880152608087019061564c565b90858203604087015261564c565b9416910152565b9061596381615671565b60ff80198354169116179055565b600092918154916159818361554b565b92600181169081156159cc575060011461599a57505050565b909192935060005260206000206000905b8382106159b85750500190565b6001816020925484860152019101906159ab565b60ff191683525050811515909102019150565b906159e981615671565b61ff0082549160081b169061ff001916179055565b9081602091031261535a5751801515810361535a5790565b600982101561567b5752565b60405190615a316040836152d7565b600582526431b837ba3160d91b6020830152565b60405190615a546040836152d7565b600482526331b237b160e11b6020830152565b60405190615a7482615286565b6060604083828152600060208201520152565b60405190615a94826152a1565b81600081526000602082015260006040820152615aaf615a67565b6060820152608061573d615a67565b60405190615acb82615255565b6000606083818152816020820152615ae1615a87565b60408201520152565b6001600160401b0381116152705760051b60200190565b60405190615b0e826152bc565b600060a0836060815260606020820152606060408201526060808201528260808201520152565b90615b3f82615aea565b615b4c60405191826152d7565b8281528092615b5d601f1991615aea565b019060005b828110615b6e57505050565b602090615b79615b01565b82828501015201615b62565b80518210156155195760209160051b010190565b90604051615ba6816152bc565b60a060ff60048395615bb781615585565b8552615bc560018201615585565b6020860152615bd660028201615585565b6040860152615be760038201615585565b60608601520154818116608085015260081c1691615c0483615671565b0152565b60ff1660ff8114615c195760010190565b634e487b7160e01b600052601160045260246000fd5b60405190615c3e6040836152d7565b600782526630b0bab4321c3560c91b6020830152565b81601f8201121561535a578051615c6a816152f8565b92615c7860405194856152d7565b8184526020828401011161535a576157cf9160208085019101615629565b90615c9f615a67565b5060405191615cad83615286565b825260006020830152604082015290565b9190615cc8615a67565b5060405192615cd684615286565b83526001600160a01b03166020830152604082015290565b90615cf7615a87565b5060405191615d05836152a1565b60008352426020840152600060408401526060830152608082015290565b93909160ff9392615d32615b01565b5060405195615d40876152bc565b8652602086015260408501526060840152166080820152600060a082015290565b600090604051615d816020828161234c8183019687815193849201615629565b5190206004549060005b828110615d985750505090565b816003610165615daa610151856154fa565b51902014615dbb575b600101615d8b565b92615dc7600191615c08565b939050615db356fe99dcabd81899d5894d4391d9586c557b10a0d34a881adfc4769ad41e9166cda0a26469706673582212207664cc3604999d0a5621cf95e3779f23323f65be06d996c0e47e6c4d4f278e2764736f6c634300081b0033",
  "linkReferences": {},
  "deployedLinkReferences": {}
}