{
  "_format": "hh-sol-artifact-1",
  "contractName": "MainSupplyChain",
  "sourceName": "contracts/MainSupplyChain.sol",
  "abi": [
    {
      "inputs": [],
      "stateMutability": "nonpayable",
      "type": "constructor"
    },
    {
      "anonymous": false,
      "inputs": [
        {
          "indexed": false,
          "internalType": "address",
          "name": "userAddr",
          "type": "address"
        },
        {
          "indexed": false,
          "internalType": "string",
          "name": "name",
          "type": "string"
        },
        {
          "indexed": false,
          "internalType": "enum MainSupplyChain.en_roles",
          "name": "role",
          "type": "uint8"
        }
      ],
      "name": "evt_UserRegistered",
      "type": "event"
    },
    {
      "anonymous": false,
      "inputs": [
        {
          "indexed": false,
          "internalType": "address",
          "name": "bpomAddr",
          "type": "address"
        },
        {
          "indexed": false,
          "internalType": "string",
          "name": "factoryName",
          "type": "string"
        },
        {
          "indexed": false,
          "internalType": "string",
          "name": "cpotbNumber",
          "type": "string"
        },
        {
          "indexed": false,
          "internalType": "uint256",
          "name": "timestampApprove",
          "type": "uint256"
        }
      ],
      "name": "evt_cpotbApproved",
      "type": "event"
    },
    {
      "anonymous": false,
      "inputs": [
        {
          "indexed": false,
          "internalType": "address",
          "name": "factoryAddr",
          "type": "address"
        },
        {
          "indexed": false,
          "internalType": "string",
          "name": "factoryName",
          "type": "string"
        },
        {
          "indexed": false,
          "internalType": "enum MainSupplyChain.en_jenisSediaan",
          "name": "jenisSediaan",
          "type": "uint8"
        },
        {
          "indexed": false,
          "internalType": "string",
          "name": "cpotbId",
          "type": "string"
        },
        {
          "indexed": false,
          "internalType": "uint256",
          "name": "timestampRequest",
          "type": "uint256"
        }
      ],
      "name": "evt_cpotbRequested",
      "type": "event"
    },
    {
      "inputs": [
        {
          "internalType": "string",
          "name": "_cpotbId",
          "type": "string"
        },
        {
          "internalType": "string",
          "name": "_cpotbNumber",
          "type": "string"
        }
      ],
      "name": "approveCpotb",
      "outputs": [],
      "stateMutability": "nonpayable",
      "type": "function"
    },
    {
      "inputs": [
        {
          "internalType": "address",
          "name": "_userAddr",
          "type": "address"
        }
      ],
      "name": "getRegisteredUser",
      "outputs": [
        {
          "internalType": "address",
          "name": "",
          "type": "address"
        },
        {
          "internalType": "string",
          "name": "",
          "type": "string"
        },
        {
          "internalType": "uint8",
          "name": "",
          "type": "uint8"
        }
      ],
      "stateMutability": "view",
      "type": "function"
    },
    {
      "inputs": [],
      "name": "owner",
      "outputs": [
        {
          "internalType": "address",
          "name": "",
          "type": "address"
        }
      ],
      "stateMutability": "view",
      "type": "function"
    },
    {
      "inputs": [
        {
          "internalType": "string",
          "name": "_name",
          "type": "string"
        },
        {
          "internalType": "string",
          "name": "_email",
          "type": "string"
        },
        {
          "internalType": "address",
          "name": "_userAddr",
          "type": "address"
        },
        {
          "internalType": "uint8",
          "name": "_userRole",
          "type": "uint8"
        }
      ],
      "name": "registerUser",
      "outputs": [],
      "stateMutability": "nonpayable",
      "type": "function"
    },
    {
      "inputs": [
        {
          "internalType": "string",
          "name": "_factoryName",
          "type": "string"
        },
        {
          "internalType": "string",
          "name": "_cpotbId",
          "type": "string"
        },
        {
          "internalType": "enum MainSupplyChain.en_jenisSediaan",
          "name": "_jenisSediaan",
          "type": "uint8"
        }
      ],
      "name": "requestCpotb",
      "outputs": [],
      "stateMutability": "nonpayable",
      "type": "function"
    },
    {
      "inputs": [
        {
          "internalType": "address",
          "name": "",
          "type": "address"
        }
      ],
      "name": "userRoles",
      "outputs": [
        {
          "internalType": "enum MainSupplyChain.en_roles",
          "name": "",
          "type": "uint8"
        }
      ],
      "stateMutability": "view",
      "type": "function"
    }
  ],
  "bytecode": "0x60808060405234602757600080546001600160a01b03191633179055611182908161002d8239f35b600080fdfe6080604052600436101561001257600080fd5b60003560e01c8063073f25541461096857806326bfeb92146106c757806374d5e100146106835780638da5cb5b1461065a578063d1233672146101ab5763e54a29bb1461005e57600080fd5b346101a65760203660031901126101a6576001600160a01b0361007f610fb3565b1680600052600360205260ff604060002054161561016857600052600160205260406000206002604051916100b383610f21565b6040516100cb816100c481856110bd565b0382610f3c565b83526040516100e1816100c481600186016110bd565b602084015201546001600160a01b0381166040830190815260608301929161010f9060a01c60ff1684611140565b51905191516001600160a01b039091169060058110156101525760ff6101476040519485948552606060208601526060850190610ff9565b911660408301520390f35b634e487b7160e01b600052602160045260246000fd5b60405162461bcd60e51b8152602060048201526016602482015275155cd95c881a5cc81b9bdd081c9959da5cdd195c995960521b6044820152606490fd5b600080fd5b346101a65760803660031901126101a6576004356001600160401b0381116101a6576101db903690600401610f5d565b6024356001600160401b0381116101a6576101fa903690600401610f5d565b906044356001600160a01b03811691908290036101a6576064359160ff83168093036101a657604060008061028361029784516102378682610f3c565b602081527f5265676973746572557365722066756e6374696f6e2063616c6c65642062793a6020820152855192839163319af33360e01b60208401528760248401526064830190610ff9565b87604483015203601f198101835282610f3c565b6020815191016a636f6e736f6c652e6c6f675afa506000806102fa61030e84516102c18682610f3c565b600a8152692ab9b2b9102937b6329d60b11b60208201528551928391632d839cb360e21b60208401528760248401526064830190610ff9565b89604483015203601f198101835282610f3c565b6020815191016a636f6e736f6c652e6c6f675afa5060058410156101525780519461033886610f21565b838652602086019081528186019583875260608101916103588784611140565b8460005260016020528360002091518051906001600160401b0382116105815781906103848554611083565b601f8111610607575b50602090601f83116001146105a257600092610597575b50508160011b916000199060031b1c19161782555b51805160018301916001600160401b038211610581576103d98354611083565b601f8111610539575b50602090601f83116001146104ce57600294939291600091836104c3575b50508160011b916000199060031b1c19161790555b9651960180546001600160a01b0319166001600160a01b039790971696909617865551946005861015610152577fa4b4a4f9197eb52b65944f57348759ea717338f8a8f998a585d243350c2babb4946104bd9160009781549060ff60a01b9060a01b169060ff60a01b19161790558387526003602052828720600160ff198254161790556104b483519586958652606060208701526060860190610ff9565b92840190610fc9565b0390a180f35b015190508b80610400565b90601f1983169184600052816000209260005b818110610521575091600193918560029897969410610508575b505050811b019055610415565b015160001960f88460031b161c191690558b80806104fb565b929360206001819287860151815501950193016104e1565b836000526020600020601f840160051c81019160208510610577575b601f0160051c01905b81811061056b57506103e2565b6000815560010161055e565b9091508190610555565b634e487b7160e01b600052604160045260246000fd5b015190508a806103a4565b60008681528281209350601f198516905b8181106105ef57509084600195949392106105d6575b505050811b0182556103b9565b015160001960f88460031b161c191690558a80806105c9565b929360206001819287860151815501950193016105b3565b909150846000526020600020601f840160051c81019160208510610650575b90601f859493920160051c01905b818110610641575061038d565b60008155849350600101610634565b9091508190610626565b346101a65760003660031901126101a6576000546040516001600160a01b039091168152602090f35b346101a65760203660031901126101a6576001600160a01b036106a4610fb3565b166000526002602052602060ff604060002054166106c56040518092610fc9565bf35b346101a65760403660031901126101a6576004356001600160401b0381116101a6576106f7903690600401610f5d565b6024356001600160401b0381116101a657610716903690600401610f5d565b9033600052600260205260ff604060002054166005811015610152576107579161074460026020931461101e565b8160405193828580945193849201610fd6565b810160048152030190206003810160ff815460081c1660028110156101525761092357805461ff001916610100179055815191600682016001600160401b038411610581576107a68154611083565b601f81116108db575b50602093601f811160011461084e5791610838918361082a95947fbf2a1bd20abd851e14d5dd0a42bf8c003bf454a17688a93bc60fa324013f2b0897600091610843575b508160011b916000199060031b1c19161790555b4260058401556040519384933385526080602086015260026080860191016110bd565b908382036040850152610ff9565b4260608301520390a1005b9050830151886107f3565b601f19811682600052856000209060005b8181106108c357508261083894927fbf2a1bd20abd851e14d5dd0a42bf8c003bf454a17688a93bc60fa324013f2b089861082a989795600194106108aa575b5050811b019055610807565b85015160001960f88460031b161c19169055888061089e565b8588015183556020978801976001909301920161085f565b816000526020600020601f860160051c81019160208710610919575b601f0160051c01905b81811061090d57506107af565b60008155600101610900565b90915081906108f7565b60405162461bcd60e51b815260206004820152601d60248201527f43504f544220737461747573206d7573742062652070656e64696e67210000006044820152606490fd5b346101a65760603660031901126101a6576004356001600160401b0381116101a657610998903690600401610f5d565b6024356001600160401b0381116101a6576109b7903690600401610f5d565b90600460443510156101a65733600052600260205260ff604060002054166005811015610152576109e8901561101e565b6040519161012083018381106001600160401b038211176105815760405280835233602084015281604084015260009160443560608501528260808501524260a08501528260c0850152602093604051610a428682610f3c565b84815260e08201528361010082015260405185818551610a658183858a01610fd6565b810160048152030190209080518051906001600160401b038211610e54578190610a8f8554611083565b601f8111610ed6575b508890601f8311600114610e73578892610e68575b50508160011b916000199060031b1c19161782555b60208101516001830180546001600160a01b0319166001600160a01b039290921691909117905560408101518051906001600160401b038211610e54578190610b0e6002860154611083565b601f8111610e06575b508890601f8311600114610d9d578892610d92575b50508160011b916000199060031b1c19161760028301555b6003820160608201516004811015610d7e5760ff8019835416911617815560808201516002811015610d7e5761ff0082549160081b169061ff00191617905560a0810151600483015560c081015160058301556006820160e08201518051906001600160401b038211610d6a57610bbb8354611083565b601f8111610d27575b508890601f8311600114610c93577fb1f81a7d9b3451870eeffc1d43be8cce346b7e5d1a1c11f7ab085d8e8d550702999794610c669484610c7d99958c999560079560a09e92610c88575b50508160011b916000199060031b1c19161790555b6101006001808c1b03910151169101906001808a1b03166bffffffffffffffffffffffff891b82541617905560405196879633885287015260a0860190610ff9565b915060443560408501528382036060850152610ff9565b4260808301520390a1005b015190508e80610c0f565b8389528989209190601f1984168a5b818110610d1057509460018560a09c99956007957fb1f81a7d9b3451870eeffc1d43be8cce346b7e5d1a1c11f7ab085d8e8d5507029f9d9a95610c7d9d99610c669b10610cf7575b505050811b019055610c24565b015160001960f88460031b161c191690558e8080610cea565b92938c600181928786015181550195019301610ca2565b838952898920601f840160051c8101918b8510610d60575b601f0160051c01905b818110610d555750610bc4565b898155600101610d48565b9091508190610d3f565b634e487b7160e01b88526041600452602488fd5b634e487b7160e01b87526021600452602487fd5b015190508880610b2c565b6002860189528989209250601f198416895b8b828210610df0575050908460019594939210610dd7575b505050811b016002830155610b44565b015160001960f88460031b161c19169055888080610dc7565b6001859682939686015181550195019301610daf565b909150600285018852888820601f840160051c81018a8510610e4d575b90849392915b601f830160051c82018110610e3f575050610b17565b8a8155859450600101610e29565b5080610e23565b634e487b7160e01b87526041600452602487fd5b015190508880610aad565b8589528989209250601f198416895b8b828210610ec0575050908460019594939210610ea7575b505050811b018255610ac2565b015160001960f88460031b161c19169055888080610e9a565b6001859682939686015181550195019301610e82565b909150848852888820601f840160051c81018a8510610f1a575b90849392915b601f830160051c82018110610f0c575050610a98565b8a8155859450600101610ef6565b5080610ef0565b608081019081106001600160401b0382111761058157604052565b90601f801991011681019081106001600160401b0382111761058157604052565b81601f820112156101a6578035906001600160401b0382116105815760405192610f91601f8401601f191660200185610f3c565b828452602083830101116101a657816000926020809301838601378301015290565b600435906001600160a01b03821682036101a657565b9060058210156101525752565b60005b838110610fe95750506000910152565b8181015183820152602001610fd9565b9060209161101281518092818552858086019101610fd6565b601f01601f1916010190565b1561102557565b60405162461bcd60e51b815260206004820152603060248201527f536f7272792c20796f7520646f6e2774206861766520617574686f72697a656460448201526f20746f2061636365737320746869732160801b6064820152608490fd5b90600182811c921680156110b3575b602083101461109d57565b634e487b7160e01b600052602260045260246000fd5b91607f1691611092565b600092918154916110cd83611083565b808352926001811690811561112357506001146110e957505050565b60009081526020812093945091925b838310611109575060209250010190565b6001816020929493945483858701015201910191906110f8565b915050602093945060ff929192191683830152151560051b010190565b6005821015610152575256fea26469706673582212203470b02420a62b9d7bce1c58ea2964528f8c146fa68425db7c756702db8c9ba264736f6c634300081b0033",
  "linkReferences": {},
  "deployedLinkReferences": {}
}