{
  "_format": "hh-sol-artifact-1",
  "contractName": "MainSupplyChain",
  "sourceName": "contracts/MainSupplyChain.sol",
  "abi": [
    {
      "inputs": [],
      "stateMutability": "nonpayable",
      "type": "constructor"
    },
    {
      "anonymous": false,
      "inputs": [
        {
          "indexed": true,
          "internalType": "address",
          "name": "userAddr",
          "type": "address"
        },
        {
          "indexed": false,
          "internalType": "string",
          "name": "name",
          "type": "string"
        },
        {
          "indexed": false,
          "internalType": "enum MainSupplyChain.en_roles",
          "name": "userRole",
          "type": "uint8"
        }
      ],
      "name": "registeredUser",
      "type": "event"
    },
    {
      "inputs": [
        {
          "internalType": "address",
          "name": "userAddr",
          "type": "address"
        }
      ],
      "name": "getRegisteredUser",
      "outputs": [
        {
          "internalType": "address",
          "name": "",
          "type": "address"
        },
        {
          "internalType": "string",
          "name": "",
          "type": "string"
        }
      ],
      "stateMutability": "view",
      "type": "function"
    },
    {
      "inputs": [],
      "name": "owner",
      "outputs": [
        {
          "internalType": "address",
          "name": "",
          "type": "address"
        }
      ],
      "stateMutability": "view",
      "type": "function"
    },
    {
      "inputs": [
        {
          "internalType": "string",
          "name": "_name",
          "type": "string"
        },
        {
          "internalType": "string",
          "name": "_email",
          "type": "string"
        },
        {
          "internalType": "address",
          "name": "_userAddr",
          "type": "address"
        },
        {
          "internalType": "uint8",
          "name": "_userRole",
          "type": "uint8"
        }
      ],
      "name": "registerUser",
      "outputs": [],
      "stateMutability": "nonpayable",
      "type": "function"
    },
    {
      "inputs": [
        {
          "internalType": "address",
          "name": "",
          "type": "address"
        }
      ],
      "name": "userData",
      "outputs": [
        {
          "internalType": "string",
          "name": "name",
          "type": "string"
        },
        {
          "internalType": "string",
          "name": "email",
          "type": "string"
        },
        {
          "internalType": "address",
          "name": "userAddr",
          "type": "address"
        },
        {
          "internalType": "enum MainSupplyChain.en_roles",
          "name": "userRole",
          "type": "uint8"
        }
      ],
      "stateMutability": "view",
      "type": "function"
    }
  ],
  "bytecode": "0x60808060405234602757600080546001600160a01b031916331790556107ec908161002d8239f35b600080fdfe608080604052600436101561001357600080fd5b60003560e01c9081638da5cb5b146105af57508063c891091314610519578063d1233672146100fe5763e54a29bb1461004b57600080fd5b346100f95760203660031901126100f9576001600160a01b0361006c6105d3565b166000526001602052604060002060026040519161008983610623565b61009281610661565b83526100a060018201610661565b602084015201546001600160a01b03811660408301908152906100cc9060a01c60ff16606084016107aa565b519051604080516001600160a01b0390931683526020830181905282916100f591830190610705565b0390f35b600080fd5b346100f95760803660031901126100f95760043567ffffffffffffffff81116100f95761012f903690600401610753565b60243567ffffffffffffffff81116100f95761014f903690600401610753565b6044356001600160a01b0381169291908390036100f9576064359160ff83168093036100f9576000546001600160a01b031633036104b5576005831015610308576040519261019d84610623565b81845260208401928352604084019385855260608101936101be83866107aa565b8660005260016020526040600020915180519067ffffffffffffffff82116103dc5781906101ec85546105e9565b601f8111610462575b50602090601f83116001146103fd576000926103f2575b50508160011b916000199060031b1c19161782555b518051600183019167ffffffffffffffff82116103dc5761024283546105e9565b601f8111610394575b50602090601f8311600114610329576002949392916000918361031e575b50508160011b916000199060031b1c19161790555b94519401805493516001600160a01b0390951694936005851015610308577f5bd66200a5ac3b75fa4ca8566f6133dc586294c1b2be35fe5e67ddf97126b056956102f89560ff60a01b9060a01b16916affffffffffffffffffffff60a81b1617179055610303604051938493604085526040850190610705565b916020840190610746565b0390a2005b634e487b7160e01b600052602160045260246000fd5b015190508a80610269565b90601f1983169184600052816000209260005b81811061037c575091600193918560029897969410610363575b505050811b01905561027e565b015160001960f88460031b161c191690558a8080610356565b9293602060018192878601518155019501930161033c565b836000526020600020601f840160051c810191602085106103d2575b601f0160051c01905b8181106103c6575061024b565b600081556001016103b9565b90915081906103b0565b634e487b7160e01b600052604160045260246000fd5b01519050898061020c565b60008681528281209350601f198516905b81811061044a5750908460019594939210610431575b505050811b018255610221565b015160001960f88460031b161c19169055898080610424565b9293602060018192878601518155019501930161040e565b909150846000526020600020601f840160051c810191602085106104ab575b90601f859493920160051c01905b81811061049c57506101f5565b6000815584935060010161048f565b9091508190610481565b60405162461bcd60e51b815260206004820152603660248201527f536f7272792c20796f7520646f6e2774206861766520617574686f72697a6174604482015275696f6e20746f2061636365737320746865206461746160501b6064820152608490fd5b346100f95760203660031901126100f9576001600160a01b0361053a6105d3565b166000526001602052610581604060002061055481610661565b906100f561058f600261056960018501610661565b93015492604051958695608087526080870190610705565b908582036020870152610705565b6001600160a01b038316604085015291606084019060a01c60ff16610746565b346100f95760003660031901126100f9576000546001600160a01b03168152602090f35b600435906001600160a01b03821682036100f957565b90600182811c92168015610619575b602083101461060357565b634e487b7160e01b600052602260045260246000fd5b91607f16916105f8565b6080810190811067ffffffffffffffff8211176103dc57604052565b90601f8019910116810190811067ffffffffffffffff8211176103dc57604052565b9060405191826000825492610675846105e9565b80845293600181169081156106e3575060011461069c575b5061069a9250038361063f565b565b90506000929192526020600020906000915b8183106106c757505090602061069a928201013861068d565b60209193508060019154838589010152019101909184926106ae565b90506020925061069a94915060ff191682840152151560051b8201013861068d565b919082519283825260005b848110610731575050826000602080949584010152601f8019910116010190565b80602080928401015182828601015201610710565b9060058210156103085752565b81601f820112156100f95780359067ffffffffffffffff82116103dc5760405192610788601f8401601f19166020018561063f565b828452602083830101116100f957816000926020809301838601378301015290565b6005821015610308575256fea264697066735822122034062a94c912b97903ad12851e14b227736db87256001bbcba34138691e29ad164736f6c634300081b0033",
  "linkReferences": {},
  "deployedLinkReferences": {}
}