{
  "_format": "hh-sol-artifact-1",
  "contractName": "MainSupplyChain",
  "sourceName": "contracts/MainSupplyChain.sol",
  "abi": [
    {
      "inputs": [],
      "stateMutability": "nonpayable",
      "type": "constructor"
    },
    {
      "anonymous": false,
      "inputs": [
        {
          "indexed": false,
          "internalType": "address",
          "name": "userAddr",
          "type": "address"
        },
        {
          "indexed": false,
          "internalType": "string",
          "name": "name",
          "type": "string"
        },
        {
          "indexed": false,
          "internalType": "string",
          "name": "instanceName",
          "type": "string"
        },
        {
          "indexed": false,
          "internalType": "enum MainSupplyChain.en_roles",
          "name": "role",
          "type": "uint8"
        }
      ],
      "name": "evt_UserRegistered",
      "type": "event"
    },
    {
      "anonymous": false,
      "inputs": [
        {
          "indexed": false,
          "internalType": "address",
          "name": "bpomAddr",
          "type": "address"
        },
        {
          "indexed": false,
          "internalType": "string",
          "name": "receiverName",
          "type": "string"
        },
        {
          "indexed": false,
          "internalType": "string",
          "name": "factoryName",
          "type": "string"
        },
        {
          "indexed": false,
          "internalType": "string",
          "name": "cpotbNumber",
          "type": "string"
        },
        {
          "indexed": false,
          "internalType": "uint256",
          "name": "timestampApprove",
          "type": "uint256"
        }
      ],
      "name": "evt_cpotbApproved",
      "type": "event"
    },
    {
      "anonymous": false,
      "inputs": [
        {
          "indexed": false,
          "internalType": "string",
          "name": "senderName",
          "type": "string"
        },
        {
          "indexed": false,
          "internalType": "address",
          "name": "factoryAddr",
          "type": "address"
        },
        {
          "indexed": false,
          "internalType": "string",
          "name": "factoryName",
          "type": "string"
        },
        {
          "indexed": false,
          "internalType": "enum MainSupplyChain.en_jenisSediaan",
          "name": "jenisSediaan",
          "type": "uint8"
        },
        {
          "indexed": false,
          "internalType": "string",
          "name": "cpotbId",
          "type": "string"
        },
        {
          "indexed": false,
          "internalType": "uint256",
          "name": "timestampRequest",
          "type": "uint256"
        }
      ],
      "name": "evt_cpotbRequested",
      "type": "event"
    },
    {
      "inputs": [
        {
          "internalType": "uint256",
          "name": "",
          "type": "uint256"
        }
      ],
      "name": "allCpotbData",
      "outputs": [
        {
          "internalType": "string",
          "name": "cpotbId",
          "type": "string"
        },
        {
          "internalType": "string",
          "name": "senderName",
          "type": "string"
        },
        {
          "internalType": "address",
          "name": "factoryAddr",
          "type": "address"
        },
        {
          "internalType": "string",
          "name": "factoryName",
          "type": "string"
        },
        {
          "internalType": "enum MainSupplyChain.en_jenisSediaan",
          "name": "jenisSediaan",
          "type": "uint8"
        },
        {
          "internalType": "enum MainSupplyChain.en_statusCert",
          "name": "status",
          "type": "uint8"
        },
        {
          "internalType": "uint256",
          "name": "timestampRequest",
          "type": "uint256"
        },
        {
          "internalType": "uint256",
          "name": "timestampApprove",
          "type": "uint256"
        },
        {
          "internalType": "string",
          "name": "cpotbNumber",
          "type": "string"
        },
        {
          "internalType": "address",
          "name": "bpomAddr",
          "type": "address"
        },
        {
          "internalType": "string",
          "name": "receiverName",
          "type": "string"
        }
      ],
      "stateMutability": "view",
      "type": "function"
    },
    {
      "inputs": [
        {
          "internalType": "string",
          "name": "_cpotbId",
          "type": "string"
        },
        {
          "internalType": "string",
          "name": "_cpotbNumber",
          "type": "string"
        },
        {
          "internalType": "string",
          "name": "_receiverName",
          "type": "string"
        }
      ],
      "name": "approveCpotb",
      "outputs": [],
      "stateMutability": "nonpayable",
      "type": "function"
    },
    {
      "inputs": [
        {
          "internalType": "string",
          "name": "",
          "type": "string"
        }
      ],
      "name": "cpotbDataById",
      "outputs": [
        {
          "internalType": "string",
          "name": "cpotbId",
          "type": "string"
        },
        {
          "internalType": "string",
          "name": "senderName",
          "type": "string"
        },
        {
          "internalType": "address",
          "name": "factoryAddr",
          "type": "address"
        },
        {
          "internalType": "string",
          "name": "factoryName",
          "type": "string"
        },
        {
          "internalType": "enum MainSupplyChain.en_jenisSediaan",
          "name": "jenisSediaan",
          "type": "uint8"
        },
        {
          "internalType": "enum MainSupplyChain.en_statusCert",
          "name": "status",
          "type": "uint8"
        },
        {
          "internalType": "uint256",
          "name": "timestampRequest",
          "type": "uint256"
        },
        {
          "internalType": "uint256",
          "name": "timestampApprove",
          "type": "uint256"
        },
        {
          "internalType": "string",
          "name": "cpotbNumber",
          "type": "string"
        },
        {
          "internalType": "address",
          "name": "bpomAddr",
          "type": "address"
        },
        {
          "internalType": "string",
          "name": "receiverName",
          "type": "string"
        }
      ],
      "stateMutability": "view",
      "type": "function"
    },
    {
      "inputs": [],
      "name": "getListAllCpotb",
      "outputs": [
        {
          "internalType": "uint8[]",
          "name": "",
          "type": "uint8[]"
        },
        {
          "internalType": "string[]",
          "name": "",
          "type": "string[]"
        },
        {
          "internalType": "uint8[]",
          "name": "",
          "type": "uint8[]"
        },
        {
          "internalType": "uint256[]",
          "name": "",
          "type": "uint256[]"
        },
        {
          "internalType": "string[]",
          "name": "",
          "type": "string[]"
        }
      ],
      "stateMutability": "view",
      "type": "function"
    },
    {
      "inputs": [
        {
          "internalType": "string",
          "name": "_instanceName",
          "type": "string"
        }
      ],
      "name": "getListCpotbByFactory",
      "outputs": [
        {
          "internalType": "uint8[]",
          "name": "",
          "type": "uint8[]"
        },
        {
          "internalType": "uint8[]",
          "name": "",
          "type": "uint8[]"
        },
        {
          "internalType": "uint256[]",
          "name": "",
          "type": "uint256[]"
        },
        {
          "internalType": "string[]",
          "name": "",
          "type": "string[]"
        }
      ],
      "stateMutability": "view",
      "type": "function"
    },
    {
      "inputs": [
        {
          "internalType": "string",
          "name": "_cpotbId",
          "type": "string"
        }
      ],
      "name": "getListCpotbById",
      "outputs": [
        {
          "components": [
            {
              "internalType": "string",
              "name": "cpotbId",
              "type": "string"
            },
            {
              "internalType": "string",
              "name": "senderName",
              "type": "string"
            },
            {
              "internalType": "address",
              "name": "factoryAddr",
              "type": "address"
            },
            {
              "internalType": "string",
              "name": "factoryName",
              "type": "string"
            },
            {
              "internalType": "enum MainSupplyChain.en_jenisSediaan",
              "name": "jenisSediaan",
              "type": "uint8"
            },
            {
              "internalType": "enum MainSupplyChain.en_statusCert",
              "name": "status",
              "type": "uint8"
            },
            {
              "internalType": "uint256",
              "name": "timestampRequest",
              "type": "uint256"
            },
            {
              "internalType": "uint256",
              "name": "timestampApprove",
              "type": "uint256"
            },
            {
              "internalType": "string",
              "name": "cpotbNumber",
              "type": "string"
            },
            {
              "internalType": "address",
              "name": "bpomAddr",
              "type": "address"
            },
            {
              "internalType": "string",
              "name": "receiverName",
              "type": "string"
            }
          ],
          "internalType": "struct MainSupplyChain.st_cpotbData",
          "name": "",
          "type": "tuple"
        }
      ],
      "stateMutability": "view",
      "type": "function"
    },
    {
      "inputs": [
        {
          "internalType": "address",
          "name": "_userAddr",
          "type": "address"
        }
      ],
      "name": "getRegisteredUser",
      "outputs": [
        {
          "internalType": "address",
          "name": "",
          "type": "address"
        },
        {
          "internalType": "string",
          "name": "",
          "type": "string"
        },
        {
          "internalType": "string",
          "name": "",
          "type": "string"
        },
        {
          "internalType": "uint8",
          "name": "",
          "type": "uint8"
        }
      ],
      "stateMutability": "view",
      "type": "function"
    },
    {
      "inputs": [
        {
          "internalType": "address",
          "name": "user",
          "type": "address"
        }
      ],
      "name": "getRole",
      "outputs": [
        {
          "internalType": "enum MainSupplyChain.en_roles",
          "name": "",
          "type": "uint8"
        },
        {
          "internalType": "address",
          "name": "",
          "type": "address"
        }
      ],
      "stateMutability": "view",
      "type": "function"
    },
    {
      "inputs": [],
      "name": "owner",
      "outputs": [
        {
          "internalType": "address",
          "name": "",
          "type": "address"
        }
      ],
      "stateMutability": "view",
      "type": "function"
    },
    {
      "inputs": [
        {
          "internalType": "string",
          "name": "_name",
          "type": "string"
        },
        {
          "internalType": "string",
          "name": "_instanceName",
          "type": "string"
        },
        {
          "internalType": "address",
          "name": "_userAddr",
          "type": "address"
        },
        {
          "internalType": "uint8",
          "name": "_userRole",
          "type": "uint8"
        }
      ],
      "name": "registerUser",
      "outputs": [],
      "stateMutability": "nonpayable",
      "type": "function"
    },
    {
      "inputs": [
        {
          "internalType": "string",
          "name": "_instanceName",
          "type": "string"
        },
        {
          "internalType": "string",
          "name": "_cpotbId",
          "type": "string"
        },
        {
          "internalType": "string",
          "name": "_senderName",
          "type": "string"
        },
        {
          "internalType": "enum MainSupplyChain.en_jenisSediaan",
          "name": "_jenisSediaan",
          "type": "uint8"
        }
      ],
      "name": "requestCpotb",
      "outputs": [],
      "stateMutability": "nonpayable",
      "type": "function"
    },
    {
      "inputs": [
        {
          "internalType": "address",
          "name": "",
          "type": "address"
        }
      ],
      "name": "userRoles",
      "outputs": [
        {
          "internalType": "enum MainSupplyChain.en_roles",
          "name": "",
          "type": "uint8"
        }
      ],
      "stateMutability": "view",
      "type": "function"
    }
  ],
  "bytecode": "0x60808060405234602757600080546001600160a01b0319163317905561244e908161002d8239f35b600080fdfe6080604052600436101561001257600080fd5b60003560e01c8063073a4cf81461109657806314fd887414610de65780634427673314610d9c5780636aa8129914610d3857806374d5e10014610cf25780637c4535e014610a9f5780638da5cb5b14610a76578063d123367214610679578063e54a29bb14610539578063ec17658714610361578063f02f5f231461026e5763fbe9a68e146100a057600080fd5b34610269576020366003190112610269576004356001600160401b038111610269576100d0903690600401611832565b6100d8611be3565b5060405190610105815192602081818501956100f58183896118f3565b81016004815203019020546119b4565b1561022457610128602061022093610137936040519384928392519283916118f3565b81016004815203019020611c4e565b604051918291602083526101406101f86101a661017b610165855161016060208a0152610180890190611916565b6020860151888203601f190160408a0152611916565b60408501516001600160a01b0316606088810191909152850151878203601f19016080890152611916565b60808401516101b4816119aa565b60a08701526101cb60a085015160c0880190611a71565b60c084015160e087015260e0840151610100870152610100840151601f1987830301610120880152611916565b6101208301516001600160a01b031685830152910151838203601f1901610160850152611916565b0390f35b60405162461bcd60e51b815260206004820152601a60248201527f4e6f206461746120666f756e6420666f7220746869732049442e0000000000006044820152606490fd5b600080fd5b34610269576020366003190112610269576004356005548110156102695761029590611b29565b50604051906102af826102a881846119ee565b0383611811565b6102206009604051926102d0846102c981600185016119ee565b0385611811565b60028101546040516001600160a01b03909116956102f5826102a881600387016119ee565b6004830154600584015490600685015492604051946103228661031b8160078b016119ee565b0387611811565b61034a60018060a01b0360088901541697610343604051809b8193016119ee565b0389611811565b6040519a8b9a60ff808660081c169516938c611a7e565b346102695760003660031901126102695760055461037e81611d4b565b61038782611d7d565b9161039181611d7d565b61039a82611d4b565b906103a483611d4b565b9260005b81811061040f576103d78661022089610401896103f38a6103e58b604051998a9960a08b5260a08b0190611888565b9089820360208b015261193b565b908782036040890152611888565b9085820360608701526118bf565b90838203608085015261193b565b60ff600461041c83611b29565b50015416610429816119aa565b6104338288611c3a565b5260ff600461044183611b29565b50015460081c169060028210156105235760019161045f8287611c3a565b52600361048661046e83611b29565b5061047f60405180948193016119ee565b0382611811565b6104908286611c3a565b5261049b8185611c3a565b5061047f6104b86104ab83611b29565b50604051928380926119ee565b6104c2828a611c3a565b526104cd8189611c3a565b5060066104d982611b29565b50015460056104e783611b29565b50015410156105105760066104fb82611b29565b5001545b6105098288611c3a565b52016103a8565b600561051b82611b29565b5001546104ff565b634e487b7160e01b600052602160045260246000fd5b34610269576020366003190112610269576001600160a01b0361055a611994565b1680600052600360205260ff604060002054161561063b576000526001602052604060002060405161058b816117f6565b60405161059c8161047f81866119ee565b81526002604051926105b5846102c981600185016119ee565b60208301938452015461063160ff604084019260018060a01b038116845260a01c16916105e1836119aa565b82606085015260018060a01b03905116925193516105fe836119aa565b610607836119aa565b6106236040519586958652608060208701526080860190611916565b908482036040860152611916565b9060608301520390f35b60405162461bcd60e51b8152602060048201526016602482015275155cd95c881a5cc81b9bdd081c9959da5cdd195c995960521b6044820152606490fd5b34610269576080366003190112610269576004356001600160401b038111610269576106a9903690600401611832565b6024356001600160401b038111610269576106c8903690600401611832565b906044356001600160a01b038116908190036102695760643560ff8116809103610269576106f5816119aa565b60405193610702856117f6565b838552602085019481865260408101908482526060810190610723856119aa565b848252856000526001602052604060002090518051906001600160401b03821161099d57819061075384546119b4565b601f8111610a23575b50602090601f83116001146109be576000926109b3575b50508160011b916000199060031b1c19161781555b6001810197519788516001600160401b03811161099d576107a982546119b4565b601f8111610955575b506020601f82116001146108c45791816108a597969594926002947f93b86cf0a1d8e18e724e08d47f7248859de317795be109ec2495f6fc7445b4e99d6000926108b9575b50508160011b916000199060031b1c19161790555b9251920180546001600160a01b0319166001600160a01b039390931692909217825551610838816119aa565b610841816119aa565b815460ff60a01b191660a09190911b60ff60a01b16179055610862836119aa565b8360005260026020526040600020610879846119aa565b8360ff198254161790558360005260036020526040600020600160ff19825416179055610607836119aa565b906108af816119aa565b60608301520390a1005b015190508d806107f7565b601f1982169a83600052816000209b60005b81811061093d5750927f93b86cf0a1d8e18e724e08d47f7248859de317795be109ec2495f6fc7445b4e99c60029593600193836108a59c9b9a999710610924575b505050811b01905561080c565b015160001960f88460031b161c191690558d8080610917565b838301518e556001909d019c602093840193016108d6565b826000526020600020601f830160051c81019160208410610993575b601f0160051c01905b81811061098757506107b2565b6000815560010161097a565b9091508190610971565b634e487b7160e01b600052604160045260246000fd5b015190508a80610773565b60008581528281209350601f198516905b818110610a0b57509084600195949392106109f2575b505050811b018155610788565b015160001960f88460031b161c191690558a80806109e5565b929360206001819287860151815501950193016109cf565b909150836000526020600020601f840160051c81019160208510610a6c575b90601f859493920160051c01905b818110610a5d575061075c565b60008155849350600101610a50565b9091508190610a42565b34610269576000366003190112610269576000546040516001600160a01b039091168152602090f35b34610269576080366003190112610269576004356001600160401b03811161026957610acf903690600401611832565b6024356001600160401b03811161026957610aee903690600401611832565b906044356001600160401b03811161026957610b0e903690600401611832565b60643560048110156102695733600052600260205260ff60406000205416610b35816119aa565b610ca35760405190610b46826117da565b848252826020830152336040830152836060830152610b64816119aa565b806080830152600060a08301524260c0830152600060e0830152602094604051610b8e8782611811565b600081526101008401526000610120840152604051610bad8782611811565b60008152610140840152610bde8360405188818551610bcf8183858a016118f3565b81016004815203019020611dc7565b6005546801000000000000000081101561099d57806001610c029201600555611b29565b939093610c8d577fe9b311c837d257b1f6982c63cbb418abca3880b67545d8ea67adc97e6626ef1e96610c5396610c3f610c6693610c8297611dc7565b60405197889760c0895260c0890190611916565b9133908801528682036040880152611916565b91610c70816119aa565b60608501528382036080850152611916565b4260a08301520390a1005b634e487b7160e01b600052600060045260246000fd5b60405162461bcd60e51b815260206004820152602160248201527f416363657373207265737472696374656420746f20466163746f727920726f6c6044820152606560f81b6064820152608490fd5b34610269576020366003190112610269576001600160a01b03610d13611994565b166000526002602052602060ff6040600020541660405190610d34816119aa565b8152f35b34610269576020366003190112610269576004356001600160401b038111610269576020610d6d610d80923690600401611832565b81604051938285809451938492016118f3565b81016004815203019020604051906102af826102a881846119ee565b34610269576020366003190112610269576001600160a01b03610dbd611994565b166000526002602052604060ff816000205416815190610ddc816119aa565b8152336020820152f35b34610269576020366003190112610269576004356001600160401b03811161026957610e16903690600401611832565b600554610e2281611bcc565b610e2f6040519182611811565b818152601f19610e3e83611bcc565b0160005b81811061107f5750506000928360208201905b848110610fbb578584610e6782611d4b565b91610e7181611d7d565b91610e7b82611d4b565b90610e8583611d4b565b9260005b818110610ede57610eb48761022088610ed089610ec28a604051978897608089526080890190611888565b908782036020890152611888565b9085820360408701526118bf565b90838203606085015261193b565b6080610eea8285611c3a565b510151610ef6816119aa565b610eff816119aa565b60ff610f0b838a611c3a565b9116905260a0610f1b8285611c3a565b5101519060028210156105235760019160009060ff610f3a8489611c3a565b91169052610f488286611c3a565b5151610f54838a611c3a565b52610f5f8289611c3a565b5060e0610f6c8387611c3a565b51015160c0610f7b8488611c3a565b51015110159050610fa75760e0610f928286611c3a565b5101515b610fa08288611c3a565b5201610e89565b60c0610fb38286611c3a565b510151610f96565b6003610fe0610fee610fcc84611b29565b506040519283916020830195869101611b5e565b03601f198101835282611811565b519020604051602081019061101d602082885161100c81878b6118f3565b81010301601f198101835282611811565b5190201461102e575b600101610e55565b9461104161103b87611b29565b50611c4e565b61104b8286611c3a565b526110568185611c3a565b5060001981146110695760010194611026565b634e487b7160e01b600052601160045260246000fd5b60209061108a611be3565b82828601015201610e42565b34610269576060366003190112610269576004356001600160401b038111610269576110c6903690600401611832565b6024356001600160401b038111610269576110e5903690600401611832565b6044356001600160401b03811161026957611104903690600401611832565b90336000526002602052600260ff60406000205416611122816119aa565b0361179557604051928051936020818184019661114081838a6118f3565b81016004815203019020906004820160ff815460081c166002811015610523576117505761010061ff00198254161790556007820183516001600160401b03811161099d5761118f82546119b4565b601f8111611708575b50806020601f82116001146116a55760009161169a575b508160011b916000199060031b1c19161790555b4260068301556008820180546001600160a01b03191633179055835160098301906001600160401b03811161099d576111fc82546119b4565b601f8111611652575b50806020601f82116001146115ef576000916115e4575b508160011b916000199060031b1c19161790555b60005b6005548110156115ae5761124681611b29565b5060405161125c81610fe0602082018095611b5e565b519020604051602081019061127c6020828461100c8d8a519283916118f3565b5190201461128c57600101611233565b945050600461129a85611b29565b5001805461ff00191661010017905560076112b485611b29565b5001938251946001600160401b03861161099d576112d281546119b4565b601f8111611566575b50602095601f81116001146114f957908161134593926009959697986000916114ee575b508160011b916000199060031b1c19161790555b61131c81611b29565b50600642910155600861132e82611b29565b500180546001600160a01b03191633179055611b29565b500183516001600160401b03811161099d5761136182546119b4565b601f81116114a6575b506020601f8211600114611414577fedc9920ea2d8611e7d985ecf390206409122b6df9a9c529063c5311531494be195936113fe93836113e197946113f094600091611409575b508160011b916000199060031b1c19161790555b600360405196879633885260a0602089015260a0880190611916565b918683036040880152016119ee565b908382036060850152611916565b4260808301520390a1005b90508701518a6113b1565b601f1982169083600052806000209160005b81811061148e5750936001846113f0947fedc9920ea2d8611e7d985ecf390206409122b6df9a9c529063c5311531494be19a98946113e19a976113fe9910611475575b5050811b0190556113c5565b89015160001960f88460031b161c191690558a80611469565b9192602060018192868c015181550194019201611426565b826000526020600020601f830160051c810191602084106114e4575b601f0160051c01905b8181106114d8575061136a565b600081556001016114cb565b90915081906114c2565b9050870151896112ff565b601f19811682600052876000209060005b81811061154e5750916001916009969798998261134597969510611535575b5050811b019055611313565b89015160001960f88460031b161c191690558980611529565b878a015183556020998a01996001909301920161150a565b816000526020600020601f880160051c810191602089106115a4575b601f0160051c01905b81811061159857506112db565b6000815560010161158b565b9091508190611582565b50507fedc9920ea2d8611e7d985ecf390206409122b6df9a9c529063c5311531494be193506113e192916113f06113fe926113c5565b90508601518861121c565b60008481528181209250601f198416905b81811061163a57509083600194939210611621575b5050811b019055611230565b88015160001960f88460031b161c191690558880611615565b9192602060018192868d015181550194019201611600565b826000526020600020601f830160051c81019160208410611690575b601f0160051c01905b8181106116845750611205565b60008155600101611677565b909150819061166e565b9050850151886111af565b60008481528181209250601f198416905b8181106116f0575090836001949392106116d7575b5050811b0190556111c3565b87015160001960f88460031b161c1916905588806116cb565b9192602060018192868c0151815501940192016116b6565b826000526020600020601f830160051c81019160208410611746575b601f0160051c01905b81811061173a5750611198565b6000815560010161172d565b9091508190611724565b60405162461bcd60e51b815260206004820152601d60248201527f43504f544220737461747573206d7573742062652070656e64696e67210000006044820152606490fd5b60405162461bcd60e51b815260206004820152601e60248201527f416363657373207265737472696374656420746f2042504f4d20726f6c6500006044820152606490fd5b61016081019081106001600160401b0382111761099d57604052565b608081019081106001600160401b0382111761099d57604052565b90601f801991011681019081106001600160401b0382111761099d57604052565b81601f82011215610269578035906001600160401b03821161099d5760405192611866601f8401601f191660200185611811565b8284526020838301011161026957816000926020809301838601378301015290565b906020808351928381520192019060005b8181106118a65750505090565b825160ff16845260209384019390920191600101611899565b906020808351928381520192019060005b8181106118dd5750505090565b82518452602093840193909201916001016118d0565b60005b8381106119065750506000910152565b81810151838201526020016118f6565b9060209161192f815180928185528580860191016118f3565b601f01601f1916010190565b9080602083519182815201916020808360051b8301019401926000915b83831061196757505050505090565b9091929394602080611985600193601f198682030187528951611916565b97019301930191939290611958565b600435906001600160a01b038216820361026957565b6004111561052357565b90600182811c921680156119e4575b60208310146119ce57565b634e487b7160e01b600052602260045260246000fd5b91607f16916119c3565b600092918154916119fe836119b4565b8083529260018116908115611a545750600114611a1a57505050565b60009081526020812093945091925b838310611a3a575060209250010190565b600181602092949394548385870101520191019190611a29565b915050602093945060ff929192191683830152151560051b010190565b9060028210156105235752565b9793611b069793611ad591611ab8611aee95611b269f9d999a95611aaa906101608f8181520190611916565b8d810360208f015290611916565b6001600160a01b0390921660408c01528a820360608c0152611916565b95611adf816119aa565b608089015260a0880190611a71565b60c086015260e0850152838203610100850152611916565b6001600160a01b0390931661012082015280830361014090910152611916565b90565b600554811015611b48576005600052600a602060002091020190600090565b634e487b7160e01b600052603260045260246000fd5b60009291815491611b6e836119b4565b9260018116908115611bb95750600114611b8757505050565b909192935060005260206000206000905b838210611ba55750500190565b600181602092548486015201910190611b98565b60ff191683525050811515909102019150565b6001600160401b03811161099d5760051b60200190565b60405190611bf0826117da565b60606101408382815282602082015260006040820152828082015260006080820152600060a0820152600060c0820152600060e08201528261010082015260006101208201520152565b8051821015611b485760209160051b010190565b90604051611c5b816117da565b8092604051611c6e8161047f81856119ee565b8252604051611c848161047f81600186016119ee565b602083015260028101546001600160a01b031660408084019190915251611cb28161047f81600386016119ee565b606083015260ff6004820154818116611cca816119aa565b608085015260081c1691600283101561052357611d476101409260099460a0840152600581015460c0840152600681015460e0840152604051611d148161047f81600786016119ee565b61010084015260088101546001600160a01b0316610120840152604051948591611d40918391016119ee565b0384611811565b0152565b90611d5582611bcc565b611d626040519182611811565b8281528092611d73601f1991611bcc565b0190602036910137565b90611d8782611bcc565b611d946040519182611811565b8281528092611da5601f1991611bcc565b019060005b828110611db657505050565b806060602080938501015201611daa565b909182519283516001600160401b03811161099d57611de684546119b4565b601f81116123d0575b50602094601f821160011461236b57948192939495600092612360575b50508160011b916000199060031b1c19161783555b6001830160208201518051906001600160401b03821161099d578190611e4784546119b4565b601f811161230d575b50602090601f83116001146122a85760009261229d575b50508160011b916000199060031b1c19161790555b60408101516002840180546001600160a01b0319166001600160a01b03929092169190911790556060810151805160038501916001600160401b03821161099d578190611ec984546119b4565b601f811161224a575b50602090601f83116001146121e5576000926121da575b50508160011b916000199060031b1c19161790555b60048301926080820151611f11816119aa565b611f1a816119aa565b60ff8019865416911617845560a08201519360028510156105235760009461ff0082549160081b169061ff00191617905560c0820151600582015560e08201516006820155600781016101008301518051906001600160401b0382116121c657611f8483546119b4565b601f8111612181575b50602090601f83116001146121175791806009949261014096948a9261210c575b50508160011b916000199060031b1c19161790555b6101208401516008820180546001600160a01b0319166001600160a01b039290921691909117905591909201518051909492909101916001600160401b0382116120f85761201183546119b4565b601f81116120b3575b50602090601f83116001146120555794829394959261204a575b50508160011b916000199060031b1c1916179055565b015190503880612034565b90601f198316848352818320925b81811061209b57509583600195969710612082575b505050811b019055565b015160001960f88460031b161c19169055388080612078565b9192602060018192868b015181550194019201612063565b83825260208220601f840160051c810191602085106120ee575b601f0160051c01905b8181106120e3575061201a565b8281556001016120d6565b90915081906120cd565b634e487b7160e01b81526041600452602490fd5b015190503880611fae565b8388528188209190601f198416895b818110612169575092600192859261014098966009989610612150575b505050811b019055611fc3565b015160001960f88460031b161c19169055388080612143565b92936020600181928786015181550195019301612126565b83885260208820601f840160051c810191602085106121bc575b601f0160051c01905b8181106121b15750611f8d565b8881556001016121a4565b909150819061219b565b634e487b7160e01b87526041600452602487fd5b015190503880611ee9565b60008581528281209350601f198516905b8181106122325750908460019594939210612219575b505050811b019055611efe565b015160001960f88460031b161c1916905538808061220c565b929360206001819287860151815501950193016121f6565b909150836000526020600020601f840160051c81019160208510612293575b90601f859493920160051c01905b8181106122845750611ed2565b60008155849350600101612277565b9091508190612269565b015190503880611e67565b60008581528281209350601f198516905b8181106122f557509084600195949392106122dc575b505050811b019055611e7c565b015160001960f88460031b161c191690553880806122cf565b929360206001819287860151815501950193016122b9565b909150836000526020600020601f840160051c81019160208510612356575b90601f859493920160051c01905b8181106123475750611e50565b6000815584935060010161233a565b909150819061232c565b015190503880611e0c565b601f1982169585600052806000209160005b8881106123b85750836001959697981061239f575b505050811b018355611e21565b015160001960f88460031b161c19169055388080612392565b9192602060018192868501518155019401920161237d565b846000526020600020601f830160051c8101916020841061240e575b601f0160051c01905b8181106124025750611def565b600081556001016123f5565b90915081906123ec56fea2646970667358221220796364d8777cf6a616e6432bc2ef9eb3aa12b37eaef5acaa4956f3d21b0a847464736f6c634300081b0033",
  "linkReferences": {},
  "deployedLinkReferences": {}
}