{
  "_format": "hh-sol-artifact-1",
  "contractName": "MainSupplyChain",
  "sourceName": "contracts/MainSupplyChain.sol",
  "abi": [
    {
      "inputs": [],
      "stateMutability": "nonpayable",
      "type": "constructor"
    },
    {
      "anonymous": false,
      "inputs": [
        {
          "indexed": false,
          "internalType": "address",
          "name": "userAddr",
          "type": "address"
        },
        {
          "indexed": false,
          "internalType": "string",
          "name": "name",
          "type": "string"
        },
        {
          "indexed": false,
          "internalType": "string",
          "name": "instanceName",
          "type": "string"
        },
        {
          "indexed": false,
          "internalType": "enum MainSupplyChain.en_roles",
          "name": "role",
          "type": "uint8"
        }
      ],
      "name": "evt_UserRegistered",
      "type": "event"
    },
    {
      "anonymous": false,
      "inputs": [
        {
          "indexed": false,
          "internalType": "address",
          "name": "bpomAddr",
          "type": "address"
        },
        {
          "indexed": false,
          "internalType": "string",
          "name": "receiverName",
          "type": "string"
        },
        {
          "indexed": false,
          "internalType": "string",
          "name": "pbfName",
          "type": "string"
        },
        {
          "indexed": false,
          "internalType": "string",
          "name": "cdobNumber",
          "type": "string"
        },
        {
          "indexed": false,
          "internalType": "uint256",
          "name": "timestampApprove",
          "type": "uint256"
        }
      ],
      "name": "evt_cdobApptoved",
      "type": "event"
    },
    {
      "anonymous": false,
      "inputs": [
        {
          "indexed": false,
          "internalType": "string",
          "name": "senderName",
          "type": "string"
        },
        {
          "indexed": false,
          "internalType": "address",
          "name": "pbfAddr",
          "type": "address"
        },
        {
          "indexed": false,
          "internalType": "string",
          "name": "pbfName",
          "type": "string"
        },
        {
          "indexed": false,
          "internalType": "enum MainSupplyChain.en_tipePermohonan",
          "name": "tipePermohonan",
          "type": "uint8"
        },
        {
          "indexed": false,
          "internalType": "string",
          "name": "cdobId",
          "type": "string"
        },
        {
          "indexed": false,
          "internalType": "uint256",
          "name": "timestampRequest",
          "type": "uint256"
        }
      ],
      "name": "evt_cdobRequested",
      "type": "event"
    },
    {
      "anonymous": false,
      "inputs": [
        {
          "indexed": false,
          "internalType": "address",
          "name": "bpomAddr",
          "type": "address"
        },
        {
          "indexed": false,
          "internalType": "string",
          "name": "receiverName",
          "type": "string"
        },
        {
          "indexed": false,
          "internalType": "string",
          "name": "factoryName",
          "type": "string"
        },
        {
          "indexed": false,
          "internalType": "string",
          "name": "cpotbNumber",
          "type": "string"
        },
        {
          "indexed": false,
          "internalType": "uint256",
          "name": "timestampApprove",
          "type": "uint256"
        }
      ],
      "name": "evt_cpotbApproved",
      "type": "event"
    },
    {
      "anonymous": false,
      "inputs": [
        {
          "indexed": false,
          "internalType": "string",
          "name": "senderName",
          "type": "string"
        },
        {
          "indexed": false,
          "internalType": "address",
          "name": "factoryAddr",
          "type": "address"
        },
        {
          "indexed": false,
          "internalType": "string",
          "name": "factoryName",
          "type": "string"
        },
        {
          "indexed": false,
          "internalType": "enum MainSupplyChain.en_jenisSediaan",
          "name": "jenisSediaan",
          "type": "uint8"
        },
        {
          "indexed": false,
          "internalType": "string",
          "name": "cpotbId",
          "type": "string"
        },
        {
          "indexed": false,
          "internalType": "uint256",
          "name": "timestampRequest",
          "type": "uint256"
        }
      ],
      "name": "evt_cpotbRequested",
      "type": "event"
    },
    {
      "inputs": [
        {
          "internalType": "uint256",
          "name": "",
          "type": "uint256"
        }
      ],
      "name": "allCdobData",
      "outputs": [
        {
          "internalType": "string",
          "name": "cdobId",
          "type": "string"
        },
        {
          "internalType": "string",
          "name": "senderName",
          "type": "string"
        },
        {
          "internalType": "address",
          "name": "pbfAddr",
          "type": "address"
        },
        {
          "internalType": "string",
          "name": "pbfName",
          "type": "string"
        },
        {
          "internalType": "enum MainSupplyChain.en_tipePermohonan",
          "name": "tipePermohonan",
          "type": "uint8"
        },
        {
          "internalType": "enum MainSupplyChain.en_statusCert",
          "name": "status",
          "type": "uint8"
        },
        {
          "internalType": "uint256",
          "name": "timestampRequest",
          "type": "uint256"
        },
        {
          "internalType": "uint256",
          "name": "timestampApprove",
          "type": "uint256"
        },
        {
          "internalType": "string",
          "name": "cdobNumber",
          "type": "string"
        },
        {
          "internalType": "address",
          "name": "bpomAddr",
          "type": "address"
        },
        {
          "internalType": "string",
          "name": "receiverName",
          "type": "string"
        }
      ],
      "stateMutability": "view",
      "type": "function"
    },
    {
      "inputs": [
        {
          "internalType": "uint256",
          "name": "",
          "type": "uint256"
        }
      ],
      "name": "allCpotbData",
      "outputs": [
        {
          "internalType": "string",
          "name": "cpotbId",
          "type": "string"
        },
        {
          "internalType": "string",
          "name": "senderName",
          "type": "string"
        },
        {
          "internalType": "address",
          "name": "factoryAddr",
          "type": "address"
        },
        {
          "internalType": "string",
          "name": "factoryName",
          "type": "string"
        },
        {
          "internalType": "enum MainSupplyChain.en_jenisSediaan",
          "name": "jenisSediaan",
          "type": "uint8"
        },
        {
          "internalType": "enum MainSupplyChain.en_statusCert",
          "name": "status",
          "type": "uint8"
        },
        {
          "internalType": "uint256",
          "name": "timestampRequest",
          "type": "uint256"
        },
        {
          "internalType": "uint256",
          "name": "timestampApprove",
          "type": "uint256"
        },
        {
          "internalType": "string",
          "name": "cpotbNumber",
          "type": "string"
        },
        {
          "internalType": "address",
          "name": "bpomAddr",
          "type": "address"
        },
        {
          "internalType": "string",
          "name": "receiverName",
          "type": "string"
        }
      ],
      "stateMutability": "view",
      "type": "function"
    },
    {
      "inputs": [
        {
          "internalType": "string",
          "name": "_cdobId",
          "type": "string"
        },
        {
          "internalType": "string",
          "name": "_cdobNumber",
          "type": "string"
        },
        {
          "internalType": "string",
          "name": "_receiverName",
          "type": "string"
        }
      ],
      "name": "approveCdob",
      "outputs": [],
      "stateMutability": "nonpayable",
      "type": "function"
    },
    {
      "inputs": [
        {
          "internalType": "string",
          "name": "_cpotbId",
          "type": "string"
        },
        {
          "internalType": "string",
          "name": "_cpotbNumber",
          "type": "string"
        },
        {
          "internalType": "string",
          "name": "_receiverName",
          "type": "string"
        }
      ],
      "name": "approveCpotb",
      "outputs": [],
      "stateMutability": "nonpayable",
      "type": "function"
    },
    {
      "inputs": [
        {
          "internalType": "string",
          "name": "",
          "type": "string"
        }
      ],
      "name": "cpotbDataById",
      "outputs": [
        {
          "internalType": "string",
          "name": "cpotbId",
          "type": "string"
        },
        {
          "internalType": "string",
          "name": "senderName",
          "type": "string"
        },
        {
          "internalType": "address",
          "name": "factoryAddr",
          "type": "address"
        },
        {
          "internalType": "string",
          "name": "factoryName",
          "type": "string"
        },
        {
          "internalType": "enum MainSupplyChain.en_jenisSediaan",
          "name": "jenisSediaan",
          "type": "uint8"
        },
        {
          "internalType": "enum MainSupplyChain.en_statusCert",
          "name": "status",
          "type": "uint8"
        },
        {
          "internalType": "uint256",
          "name": "timestampRequest",
          "type": "uint256"
        },
        {
          "internalType": "uint256",
          "name": "timestampApprove",
          "type": "uint256"
        },
        {
          "internalType": "string",
          "name": "cpotbNumber",
          "type": "string"
        },
        {
          "internalType": "address",
          "name": "bpomAddr",
          "type": "address"
        },
        {
          "internalType": "string",
          "name": "receiverName",
          "type": "string"
        }
      ],
      "stateMutability": "view",
      "type": "function"
    },
    {
      "inputs": [],
      "name": "getListAllCdob",
      "outputs": [
        {
          "internalType": "uint8[]",
          "name": "",
          "type": "uint8[]"
        },
        {
          "internalType": "string[]",
          "name": "",
          "type": "string[]"
        },
        {
          "internalType": "uint8[]",
          "name": "",
          "type": "uint8[]"
        },
        {
          "internalType": "uint256[]",
          "name": "",
          "type": "uint256[]"
        },
        {
          "internalType": "string[]",
          "name": "",
          "type": "string[]"
        }
      ],
      "stateMutability": "view",
      "type": "function"
    },
    {
      "inputs": [],
      "name": "getListAllCpotb",
      "outputs": [
        {
          "internalType": "uint8[]",
          "name": "",
          "type": "uint8[]"
        },
        {
          "internalType": "string[]",
          "name": "",
          "type": "string[]"
        },
        {
          "internalType": "uint8[]",
          "name": "",
          "type": "uint8[]"
        },
        {
          "internalType": "uint256[]",
          "name": "",
          "type": "uint256[]"
        },
        {
          "internalType": "string[]",
          "name": "",
          "type": "string[]"
        }
      ],
      "stateMutability": "view",
      "type": "function"
    },
    {
      "inputs": [
        {
          "internalType": "string",
          "name": "_cdobId",
          "type": "string"
        }
      ],
      "name": "getListCdobById",
      "outputs": [
        {
          "components": [
            {
              "internalType": "string",
              "name": "cdobId",
              "type": "string"
            },
            {
              "internalType": "string",
              "name": "senderName",
              "type": "string"
            },
            {
              "internalType": "address",
              "name": "pbfAddr",
              "type": "address"
            },
            {
              "internalType": "string",
              "name": "pbfName",
              "type": "string"
            },
            {
              "internalType": "enum MainSupplyChain.en_tipePermohonan",
              "name": "tipePermohonan",
              "type": "uint8"
            },
            {
              "internalType": "enum MainSupplyChain.en_statusCert",
              "name": "status",
              "type": "uint8"
            },
            {
              "internalType": "uint256",
              "name": "timestampRequest",
              "type": "uint256"
            },
            {
              "internalType": "uint256",
              "name": "timestampApprove",
              "type": "uint256"
            },
            {
              "internalType": "string",
              "name": "cdobNumber",
              "type": "string"
            },
            {
              "internalType": "address",
              "name": "bpomAddr",
              "type": "address"
            },
            {
              "internalType": "string",
              "name": "receiverName",
              "type": "string"
            }
          ],
          "internalType": "struct MainSupplyChain.st_cdobData",
          "name": "",
          "type": "tuple"
        }
      ],
      "stateMutability": "view",
      "type": "function"
    },
    {
      "inputs": [
        {
          "internalType": "string",
          "name": "_instanceName",
          "type": "string"
        }
      ],
      "name": "getListCdobByPbf",
      "outputs": [
        {
          "internalType": "uint8[]",
          "name": "",
          "type": "uint8[]"
        },
        {
          "internalType": "uint8[]",
          "name": "",
          "type": "uint8[]"
        },
        {
          "internalType": "uint256[]",
          "name": "",
          "type": "uint256[]"
        },
        {
          "internalType": "string[]",
          "name": "",
          "type": "string[]"
        }
      ],
      "stateMutability": "view",
      "type": "function"
    },
    {
      "inputs": [
        {
          "internalType": "string",
          "name": "_instanceName",
          "type": "string"
        }
      ],
      "name": "getListCpotbByFactory",
      "outputs": [
        {
          "internalType": "uint8[]",
          "name": "",
          "type": "uint8[]"
        },
        {
          "internalType": "uint8[]",
          "name": "",
          "type": "uint8[]"
        },
        {
          "internalType": "uint256[]",
          "name": "",
          "type": "uint256[]"
        },
        {
          "internalType": "string[]",
          "name": "",
          "type": "string[]"
        }
      ],
      "stateMutability": "view",
      "type": "function"
    },
    {
      "inputs": [
        {
          "internalType": "string",
          "name": "_cpotbId",
          "type": "string"
        }
      ],
      "name": "getListCpotbById",
      "outputs": [
        {
          "components": [
            {
              "internalType": "string",
              "name": "cpotbId",
              "type": "string"
            },
            {
              "internalType": "string",
              "name": "senderName",
              "type": "string"
            },
            {
              "internalType": "address",
              "name": "factoryAddr",
              "type": "address"
            },
            {
              "internalType": "string",
              "name": "factoryName",
              "type": "string"
            },
            {
              "internalType": "enum MainSupplyChain.en_jenisSediaan",
              "name": "jenisSediaan",
              "type": "uint8"
            },
            {
              "internalType": "enum MainSupplyChain.en_statusCert",
              "name": "status",
              "type": "uint8"
            },
            {
              "internalType": "uint256",
              "name": "timestampRequest",
              "type": "uint256"
            },
            {
              "internalType": "uint256",
              "name": "timestampApprove",
              "type": "uint256"
            },
            {
              "internalType": "string",
              "name": "cpotbNumber",
              "type": "string"
            },
            {
              "internalType": "address",
              "name": "bpomAddr",
              "type": "address"
            },
            {
              "internalType": "string",
              "name": "receiverName",
              "type": "string"
            }
          ],
          "internalType": "struct MainSupplyChain.st_cpotbData",
          "name": "",
          "type": "tuple"
        }
      ],
      "stateMutability": "view",
      "type": "function"
    },
    {
      "inputs": [
        {
          "internalType": "address",
          "name": "_userAddr",
          "type": "address"
        }
      ],
      "name": "getRegisteredUser",
      "outputs": [
        {
          "internalType": "address",
          "name": "",
          "type": "address"
        },
        {
          "internalType": "string",
          "name": "",
          "type": "string"
        },
        {
          "internalType": "string",
          "name": "",
          "type": "string"
        },
        {
          "internalType": "uint8",
          "name": "",
          "type": "uint8"
        }
      ],
      "stateMutability": "view",
      "type": "function"
    },
    {
      "inputs": [
        {
          "internalType": "address",
          "name": "user",
          "type": "address"
        }
      ],
      "name": "getRole",
      "outputs": [
        {
          "internalType": "enum MainSupplyChain.en_roles",
          "name": "",
          "type": "uint8"
        },
        {
          "internalType": "address",
          "name": "",
          "type": "address"
        }
      ],
      "stateMutability": "view",
      "type": "function"
    },
    {
      "inputs": [],
      "name": "owner",
      "outputs": [
        {
          "internalType": "address",
          "name": "",
          "type": "address"
        }
      ],
      "stateMutability": "view",
      "type": "function"
    },
    {
      "inputs": [
        {
          "internalType": "string",
          "name": "_name",
          "type": "string"
        },
        {
          "internalType": "string",
          "name": "_instanceName",
          "type": "string"
        },
        {
          "internalType": "address",
          "name": "_userAddr",
          "type": "address"
        },
        {
          "internalType": "uint8",
          "name": "_userRole",
          "type": "uint8"
        }
      ],
      "name": "registerUser",
      "outputs": [],
      "stateMutability": "nonpayable",
      "type": "function"
    },
    {
      "inputs": [
        {
          "internalType": "string",
          "name": "_instanceName",
          "type": "string"
        },
        {
          "internalType": "string",
          "name": "_cdobId",
          "type": "string"
        },
        {
          "internalType": "string",
          "name": "_senderName",
          "type": "string"
        },
        {
          "internalType": "enum MainSupplyChain.en_tipePermohonan",
          "name": "_tipePermohonan",
          "type": "uint8"
        }
      ],
      "name": "requestCdob",
      "outputs": [],
      "stateMutability": "nonpayable",
      "type": "function"
    },
    {
      "inputs": [
        {
          "internalType": "string",
          "name": "_instanceName",
          "type": "string"
        },
        {
          "internalType": "string",
          "name": "_cpotbId",
          "type": "string"
        },
        {
          "internalType": "string",
          "name": "_senderName",
          "type": "string"
        },
        {
          "internalType": "enum MainSupplyChain.en_jenisSediaan",
          "name": "_jenisSediaan",
          "type": "uint8"
        }
      ],
      "name": "requestCpotb",
      "outputs": [],
      "stateMutability": "nonpayable",
      "type": "function"
    },
    {
      "inputs": [
        {
          "internalType": "address",
          "name": "",
          "type": "address"
        }
      ],
      "name": "userRoles",
      "outputs": [
        {
          "internalType": "enum MainSupplyChain.en_roles",
          "name": "",
          "type": "uint8"
        }
      ],
      "stateMutability": "view",
      "type": "function"
    }
  ],
  "bytecode": "0x60808060405234602757600080546001600160a01b03191633179055613830908161002d8239f35b600080fdfe6080604052600436101561001257600080fd5b60003560e01c8063073a4cf814611d1c57806314fd887414611b05578063402a124914611a4857806343762aa8146118c257806344276733146118785780636aa812991461181457806374d5e100146117ce5780637c4535e0146115da5780638da5cb5b146115b1578063b0cca61e146113b1578063c5f455b41461116b578063cec1fc1e1461101c578063d123367214610c35578063e54a29bb14610af5578063ec17658714610981578063ef013be314610361578063f02f5f231461026e5763fbe9a68e146100e257600080fd5b34610269576020366003190112610269576004356001600160401b0381116102695761017b61016c602061011d610265943690600401612309565b6101256128fc565b506040519061015b61015482519385818186019661014481838a612435565b8101600481520301902054612592565b1515612b02565b604051938492839251928391612435565b81016004815203019020612967565b6040519182916020835261014061023d6101ea6101bf6101a9855161016060208a0152610180890190612458565b6020860151888203601f190160408a0152612458565b60408501516001600160a01b0316606088810191909152850151878203601f19016080890152612458565b60808401516101f881612665565b60a087015260a084015161020b8161251e565b60c087015260c084015160e087015260e0840151610100870152610100840151601f1987830301610120880152612458565b6101208301516001600160a01b031685830152910151838203601f1901610160850152612458565b0390f35b600080fd5b3461026957602036600319011261026957600435600554811015610269576102959061253e565b50604051906102af826102a881846125cc565b03836122e8565b6102656009604051926102d0846102c981600185016125cc565b03856122e8565b60028101546040516001600160a01b03909116956102f5826102a881600387016125cc565b6004830154600584015490600685015492604051946103228661031b8160078b016125cc565b03876122e8565b61034a60018060a01b0360088901541697610343604051809b8193016125cc565b03896122e8565b6040519a8b9a60ff808660081c169516938c61266f565b346102695761036f3661235f565b9190336000526002602052610397600260ff6040600020541661039181612665565b14612772565b60405192825193602081818601966103b081838a612435565b81016006815203019020926004840161010081546103dd60ff8260081c166103d78161251e565b156127be565b61ff0019161790556007840183516001600160401b038111610721576104038254612592565b601f8111610939575b50806020601f82116001146108d6576000916108cb575b508160011b916000199060031b1c19161790555b4260068501556008840180546001600160a01b03191633179055815160098501906001600160401b038111610721576104708254612592565b601f8111610883575b50806020601f821160011461082057600091610815575b508160011b916000199060031b1c19161790555b60005b6007548110156107f7576104ba81612573565b506040516104de816104d0602082018095612829565b03601f1981018352826122e8565b519020604051602081019061050f602082846104fe8d8a51928391612435565b81010301601f1981018352826122e8565b5190201461051f576001016104a7565b945050600461052d85612573565b5001805461ff001916610100179055600761054785612573565b5001938251946001600160401b038611610721576105658154612592565b601f81116107af575b50602095601f81116001146107425790816105d89392600995969798600091610737575b508160011b916000199060031b1c19161790555b6105af81612573565b5060064291015560086105c182612573565b500180546001600160a01b03191633179055612573565b500181516001600160401b038111610721576105f48254612592565b601f81116106d9575b506020601f82116001146106615791816000805160206137db833981519152969261065194600091610656575b508160011b916000199060031b1c19161790555b6040519384936003429301903386612897565b0390a1005b90508501518861062a565b601f1982169083600052806000209160005b8181106106c15750926106519492600192826000805160206137db8339815191529a96106106a8575b5050811b01905561063e565b87015160001960f88460031b161c19169055888061069c565b9192602060018192868a015181550194019201610673565b826000526020600020601f830160051c81019160208410610717575b601f0160051c01905b81811061070b57506105fd565b600081556001016106fe565b90915081906106f5565b634e487b7160e01b600052604160045260246000fd5b905087015189610592565b601f19811682600052876000209060005b818110610797575091600191600996979899826105d89796951061077e575b5050811b0190556105a6565b89015160001960f88460031b161c191690558980610772565b878a015183556020998a019960019093019201610753565b816000526020600020601f880160051c810191602089106107ed575b601f0160051c01905b8181106107e1575061056e565b600081556001016107d4565b90915081906107cb565b505090916000805160206137db83398151915293506106519061063e565b905084015188610490565b60008481528181209250601f198416905b81811061086b57509083600194939210610852575b5050811b0190556104a4565b86015160001960f88460031b161c191690558880610846565b9192602060018192868b015181550194019201610831565b826000526020600020601f830160051c810191602084106108c1575b601f0160051c01905b8181106108b55750610479565b600081556001016108a8565b909150819061089f565b905085015188610423565b60008481528181209250601f198416905b81811061092157509083600194939210610908575b5050811b019055610437565b87015160001960f88460031b161c1916905588806108fc565b9192602060018192868c0151815501940192016108e7565b826000526020600020601f830160051c81019160208410610977575b601f0160051c01905b81811061096b575061040c565b6000815560010161095e565b9091508190610955565b346102695760003660031901126102695760055461099e81612a86565b6109a782612ab8565b6109b083612ab8565b926109ba81612a86565b6109c382612a86565b9160005b8181106109e257505090610265929160405195869586612717565b8060ff60046109f260019461253e565b500154166109ff81612665565b610a098289612953565b5260ff6004610a178361253e565b50015460081c16610a278161251e565b610a318286612953565b526003610a58610a408361253e565b50610a5160405180948193016125cc565b03826122e8565b610a62828a612953565b52610a6d8189612953565b50610a51610a8a610a7d8361253e565b50604051928380926125cc565b610a948288612953565b52610a9f8187612953565b506006610aab8261253e565b5001546005610ab98361253e565b5001541015610ae2576006610acd8261253e565b5001545b610adb8287612953565b52016109c7565b6005610aed8261253e565b500154610ad1565b34610269576020366003190112610269576001600160a01b03610b1661264f565b1680600052600360205260ff6040600020541615610bf75760005260016020526040600020604051610b47816122cd565b604051610b5881610a5181866125cc565b8152600260405192610b71846102c981600185016125cc565b602083019384520154610bed60ff604084019260018060a01b038116845260a01c1691610b9d83612665565b82606085015260018060a01b0390511692519351610bba83612665565b610bc383612665565b610bdf6040519586958652608060208701526080860190612458565b908482036040860152612458565b9060608301520390f35b60405162461bcd60e51b8152602060048201526016602482015275155cd95c881a5cc81b9bdd081c9959da5cdd195c995960521b6044820152606490fd5b34610269576080366003190112610269576004356001600160401b03811161026957610c65903690600401612309565b6024356001600160401b03811161026957610c84903690600401612309565b906044356001600160a01b038116908190036102695760643560ff811680910361026957610cb181612665565b60405193610cbe856122cd565b838552602085019481865260408101908482526060810190610cdf85612665565b848252856000526001602052604060002090518051906001600160401b038211610721578190610d0f8454612592565b601f8111610fc9575b50602090601f8311600114610f6457600092610f59575b50508160011b916000199060031b1c19161781555b6001810197519788516001600160401b03811161072157610d658254612592565b601f8111610f11575b506020601f8211600114610e80579181610e6197969594926002947f93b86cf0a1d8e18e724e08d47f7248859de317795be109ec2495f6fc7445b4e99d600092610e75575b50508160011b916000199060031b1c19161790555b9251920180546001600160a01b0319166001600160a01b039390931692909217825551610df481612665565b610dfd81612665565b815460ff60a01b191660a09190911b60ff60a01b16179055610e1e83612665565b8360005260026020526040600020610e3584612665565b8360ff198254161790558360005260036020526040600020600160ff19825416179055610bc383612665565b90610e6b81612665565b60608301520390a1005b015190508d80610db3565b601f1982169a83600052816000209b60005b818110610ef95750927f93b86cf0a1d8e18e724e08d47f7248859de317795be109ec2495f6fc7445b4e99c6002959360019383610e619c9b9a999710610ee0575b505050811b019055610dc8565b015160001960f88460031b161c191690558d8080610ed3565b838301518e556001909d019c60209384019301610e92565b826000526020600020601f830160051c81019160208410610f4f575b601f0160051c01905b818110610f435750610d6e565b60008155600101610f36565b9091508190610f2d565b015190508a80610d2f565b60008581528281209350601f198516905b818110610fb15750908460019594939210610f98575b505050811b018155610d44565b015160001960f88460031b161c191690558a8080610f8b565b92936020600181928786015181550195019301610f75565b909150836000526020600020601f840160051c81019160208510611012575b90601f859493920160051c01905b8181106110035750610d18565b60008155849350600101610ff6565b9091508190610fe8565b346102695760003660031901126102695760075461103981612a86565b61104282612ab8565b61104b83612ab8565b9261105581612a86565b61105e82612a86565b9160005b81811061107d57505090610265929160405195869586612717565b8060ff600461108d600194612573565b5001541661109a8161251e565b6110a48289612953565b5260ff60046110b283612573565b50015460081c166110c28161251e565b6110cc8286612953565b5260036110db610a4083612573565b6110e5828a612953565b526110f08189612953565b50610a51611100610a7d83612573565b61110a8288612953565b526111158187612953565b50600661112182612573565b500154600561112f83612573565b500154101561115857600661114382612573565b5001545b6111518287612953565b5201611062565b600561116382612573565b500154611147565b34610269576020366003190112610269576004356001600160401b0381116102695761119b903690600401612309565b6007546111a7816128e5565b906111b560405192836122e8565b808252601f196111c4826128e5565b0160005b81811061139a5750506000928360208201905b83811061130a5785856111ed82612a86565b906111f783612ab8565b9061120184612a86565b9361120b81612a86565b9160005b82811061122a575050509061026591604051948594856124d6565b80608061123960019385612953565b5101516112458161251e565b61124e8161251e565b60ff61125a838a612953565b9116905260a061126a8285612953565b5101516112768161251e565b61127f8161251e565b60ff61128b838b612953565b911690526112998184612953565b51516112a58288612953565b526112b08187612953565b5060e06112bd8285612953565b51015160c06112cc8386612953565b51015110156112f65760e06112e18285612953565b5101515b6112ef8287612953565b520161120f565b60c06113028285612953565b5101516112e5565b60036104d061132f61131b84612573565b506040519283916020830195869101612829565b519020604051602081019061134d60208288516104fe81878b612435565b5190201461135e575b6001016111db565b9461139260019161137761137189612573565b50612b4e565b6113818289612953565b5261138c8188612953565b50612a61565b959050611356565b6020906113a56128fc565b828287010152016111c8565b34610269576080366003190112610269576004356001600160401b038111610269576113e1903690600401612309565b6024356001600160401b03811161026957611400903690600401612309565b906044356001600160401b03811161026957611420903690600401612309565b60643560028110156102695733600052600260205261144c600160ff6040600020541661039181612665565b60405190611459826122b1565b8482528260208301523360408301528360608301526114778161251e565b806080830152600060a08301524260c0830152600060e08301526020946040516114a187826122e8565b6000815261010084015260006101208401526040516114c087826122e8565b600081526101408401526114f183604051888185516114e28183858a01612435565b810160068152030190206131f9565b600754600160401b811015610721578060016115109201600755612573565b93909361159b577f52826c7f34a2ea38d95f47a905bbcd35442ec287a05b31513f7b71bf968b0a34966115619661154d61157493611590976131f9565b60405197889760c0895260c0890190612458565b9133908801528682036040880152612458565b9161157e8161251e565b60608501528382036080850152612458565b4260a08301520390a1005b634e487b7160e01b600052600060045260246000fd5b34610269576000366003190112610269576000546040516001600160a01b039091168152602090f35b34610269576080366003190112610269576004356001600160401b0381116102695761160a903690600401612309565b6024356001600160401b03811161026957611629903690600401612309565b906044356001600160401b03811161026957611649903690600401612309565b60643560048110156102695733600052600260205260ff6040600020541661167081612665565b61177f5760405190611681826122b1565b84825282602083015233604083015283606083015261169f81612665565b806080830152600060a08301524260c0830152600060e08301526020946040516116c987826122e8565b6000815261010084015260006101208401526040516116e887826122e8565b60008152610140840152611719836040518881855161170a8183858a01612435565b81016004815203019020612bd2565b600554600160401b81101561072157806001611738920160055561253e565b93909361159b577fe9b311c837d257b1f6982c63cbb418abca3880b67545d8ea67adc97e6626ef1e966115619661154d6117759361159097612bd2565b9161157e81612665565b60405162461bcd60e51b815260206004820152602160248201527f416363657373207265737472696374656420746f20466163746f727920726f6c6044820152606560f81b6064820152608490fd5b34610269576020366003190112610269576001600160a01b036117ef61264f565b166000526002602052602060ff604060002054166040519061181081612665565b8152f35b34610269576020366003190112610269576004356001600160401b03811161026957602061184961185c923690600401612309565b8160405193828580945193849201612435565b81016004815203019020604051906102af826102a881846125cc565b34610269576020366003190112610269576001600160a01b0361189961264f565b166000526002602052604060ff8160002054168151906118b881612665565b8152336020820152f35b3461026957602036600319011261026957600435600754811015610269576118e990612573565b50604051806118f881846125cc565b0361190390826122e8565b604051918261191581600184016125cc565b0361192090846122e8565b60028101546040516001600160a01b03909116908061194281600386016125cc565b0361194d90826122e8565b600483015460ff81169060081c60ff16600585015460068601549160405194858060078a019061197c916125cc565b0361198790876122e8565b600160a01b6001900360088901541696604051806009819b01906119aa916125cc565b036119b5908a6122e8565b6040519a8b9a6101608c526101608c016119ce91612458565b8b810360208d01526119df91612458565b9060408b015289810360608b01526119f691612458565b93611a008161251e565b6080890152611a0e8161251e565b60a088015260c087015260e0860152848103610100860152611a2f91612458565b9061012084015282810361014084015261026591612458565b34610269576020366003190112610269576004356001600160401b03811161026957611ac9611aba6020611a83610265943690600401612309565b611a8b6128fc565b506040519061015b610154825193858181860196611aaa81838a612435565b8101600681520301902054612592565b81016006815203019020612b4e565b6040519182916020835261014061023d611af76101bf6101a9855161016060208a0152610180890190612458565b60808401516101f88161251e565b34610269576020366003190112610269576004356001600160401b03811161026957611b35903690600401612309565b600554611b41816128e5565b90611b4f60405192836122e8565b808252601f19611b5e826128e5565b0160005b818110611d055750506000928360208201905b838110611ca4578585611b8782612a86565b90611b9183612ab8565b90611b9b84612a86565b93611ba581612a86565b9160005b828110611bc4575050509061026591604051948594856124d6565b806080611bd360019385612953565b510151611bdf81612665565b611be881612665565b60ff611bf4838a612953565b9116905260a0611c048285612953565b510151611c108161251e565b611c198161251e565b60ff611c25838b612953565b91169052611c338184612953565b5151611c3f8288612953565b52611c4a8187612953565b5060e0611c578285612953565b51015160c0611c668386612953565b5101511015611c905760e0611c7b8285612953565b5101515b611c898287612953565b5201611ba9565b60c0611c9c8285612953565b510151611c7f565b60036104d0611cb561131b8461253e565b5190206040516020810190611cd360208288516104fe81878b612435565b51902014611ce4575b600101611b75565b94611cfd600191611377611cf78961253e565b50612967565b959050611cdc565b602090611d106128fc565b82828701015201611b62565b3461026957611d2a3661235f565b9190336000526002602052611d4c600260ff6040600020541661039181612665565b6040519282519360208181860196611d6581838a612435565b8101600481520301902092600484016101008154611d8c60ff8260081c166103d78161251e565b61ff0019161790556007840183516001600160401b03811161072157611db28254612592565b601f8111612269575b50806020601f8211600114612206576000916121fb575b508160011b916000199060031b1c19161790555b4260068501556008840180546001600160a01b03191633179055815160098501906001600160401b03811161072157611e1f8254612592565b601f81116121b3575b50806020601f821160011461215057600091612145575b508160011b916000199060031b1c19161790555b60005b6005548110156107f757611e698161253e565b50604051611e7f816104d0602082018095612829565b5190206040516020810190611e9f602082846104fe8d8a51928391612435565b51902014611eaf57600101611e56565b9450506004611ebd8561253e565b5001805461ff0019166101001790556007611ed78561253e565b5001938251946001600160401b03861161072157611ef58154612592565b601f81116120fd575b50602095601f8111600114612090579081611f689392600995969798600091612085575b508160011b916000199060031b1c19161790555b611f3f8161253e565b506006429101556008611f518261253e565b500180546001600160a01b0319163317905561253e565b500181516001600160401b03811161072157611f848254612592565b601f811161203d575b506020601f8211600114611fdf5791816000805160206137db83398151915296926106519460009161065657508160011b916000199060031b1c19161790556040519384936003429301903386612897565b601f1982169083600052806000209160005b8181106120255750926106519492600192826000805160206137db8339815191529a96106106a8575050811b01905561063e565b9192602060018192868a015181550194019201611ff1565b826000526020600020601f830160051c8101916020841061207b575b601f0160051c01905b81811061206f5750611f8d565b60008155600101612062565b9091508190612059565b905087015189611f22565b601f19811682600052876000209060005b8181106120e557509160019160099697989982611f68979695106120cc575b5050811b019055611f36565b89015160001960f88460031b161c1916905589806120c0565b878a015183556020998a0199600190930192016120a1565b816000526020600020601f880160051c8101916020891061213b575b601f0160051c01905b81811061212f5750611efe565b60008155600101612122565b9091508190612119565b905084015188611e3f565b60008481528181209250601f198416905b81811061219b57509083600194939210612182575b5050811b019055611e53565b86015160001960f88460031b161c191690558880612176565b9192602060018192868b015181550194019201612161565b826000526020600020601f830160051c810191602084106121f1575b601f0160051c01905b8181106121e55750611e28565b600081556001016121d8565b90915081906121cf565b905085015188611dd2565b60008481528181209250601f198416905b81811061225157509083600194939210612238575b5050811b019055611de6565b87015160001960f88460031b161c19169055888061222c565b9192602060018192868c015181550194019201612217565b826000526020600020601f830160051c810191602084106122a7575b601f0160051c01905b81811061229b5750611dbb565b6000815560010161228e565b9091508190612285565b61016081019081106001600160401b0382111761072157604052565b608081019081106001600160401b0382111761072157604052565b90601f801991011681019081106001600160401b0382111761072157604052565b81601f82011215610269578035906001600160401b038211610721576040519261233d601f8401601f1916602001856122e8565b8284526020838301011161026957816000926020809301838601378301015290565b6060600319820112610269576004356001600160401b038111610269578161238991600401612309565b916024356001600160401b03811161026957826123a891600401612309565b91604435906001600160401b038211610269576123c791600401612309565b90565b906020808351928381520192019060005b8181106123e85750505090565b825160ff168452602093840193909201916001016123db565b906020808351928381520192019060005b81811061241f5750505090565b8251845260209384019390920191600101612412565b60005b8381106124485750506000910152565b8181015183820152602001612438565b9060209161247181518092818552858086019101612435565b601f01601f1916010190565b9080602083519182815201916020808360051b8301019401926000915b8383106124a957505050505090565b90919293946020806124c7600193601f198682030187528951612458565b9701930193019193929061249a565b926125026123c795936124f4612510946080885260808801906123ca565b9086820360208801526123ca565b908482036040860152612401565b91606081840391015261247d565b6002111561252857565b634e487b7160e01b600052602160045260246000fd5b60055481101561255d576005600052600a602060002091020190600090565b634e487b7160e01b600052603260045260246000fd5b60075481101561255d576007600052600a602060002091020190600090565b90600182811c921680156125c2575b60208310146125ac57565b634e487b7160e01b600052602260045260246000fd5b91607f16916125a1565b600092918154916125dc83612592565b808352926001811690811561263257506001146125f857505050565b60009081526020812093945091925b838310612618575060209250010190565b600181602092949394548385870101520191019190612607565b915050602093945060ff929192191683830152151560051b010190565b600435906001600160a01b038216820361026957565b6004111561252857565b9793926126f797936126a56123c79d9b9798946126976126c2956101608e8181520190612458565b8c810360208e015290612458565b6001600160a01b0390921660408b015289820360608b0152612458565b946126cc81612665565b60808801526126da8161251e565b60a087015260c086015260e0850152838203610100850152612458565b6001600160a01b0390931661012082015280830361014090910152612458565b93906123c795936127486127649461273a6127569460a08a5260a08a01906123ca565b9088820360208a015261247d565b9086820360408801526123ca565b908482036060860152612401565b91608081840391015261247d565b1561277957565b60405162461bcd60e51b815260206004820152601e60248201527f416363657373207265737472696374656420746f2042504f4d20726f6c6500006044820152606490fd5b156127c557565b60405162461bcd60e51b815260206004820152601d60248201527f43504f544220737461747573206d7573742062652070656e64696e67210000006044820152606490fd5b906128148161251e565b61ff0082549160081b169061ff001916179055565b6000929181549161283983612592565b9260018116908115612884575060011461285257505050565b909192935060005260206000206000905b8382106128705750500190565b600181602092548486015201910190612863565b60ff191683525050811515909102019150565b959493906080936128c46128e0946128d29360018060a01b03168a5260a060208b015260a08a0190612458565b9088820360408a01526125cc565b908682036060880152612458565b930152565b6001600160401b0381116107215760051b60200190565b60405190612909826122b1565b60606101408382815282602082015260006040820152828082015260006080820152600060a0820152600060c0820152600060e08201528261010082015260006101208201520152565b805182101561255d5760209160051b010190565b906009610140604051612979816122b1565b612a5d819560405161298f81610a5181856125cc565b83526040516129a581610a5181600186016125cc565b602084015260028101546001600160a01b0316604080850191909152516129d381610a5181600386016125cc565b606084015260ff60048201548181166129eb81612665565b608086015260081c166129fd8161251e565b60a0840152600581015460c0840152600681015460e0840152604051612a2a81610a5181600786016125cc565b61010084015260088101546001600160a01b0316610120840152604051948591612a56918391016125cc565b03846122e8565b0152565b6000198114612a705760010190565b634e487b7160e01b600052601160045260246000fd5b90612a90826128e5565b612a9d60405191826122e8565b8281528092612aae601f19916128e5565b0190602036910137565b90612ac2826128e5565b612acf60405191826122e8565b8281528092612ae0601f19916128e5565b019060005b828110612af157505050565b806060602080938501015201612ae5565b15612b0957565b60405162461bcd60e51b815260206004820152601a60248201527f4e6f206461746120666f756e6420666f7220746869732049442e0000000000006044820152606490fd5b906009610140604051612b60816122b1565b612a5d8195604051612b7681610a5181856125cc565b8352604051612b8c81610a5181600186016125cc565b602084015260028101546001600160a01b031660408085019190915251612bba81610a5181600386016125cc565b606084015260ff60048201548181166129eb8161251e565b9181519283516001600160401b03811161072157612bf08254612592565b601f81116131b1575b50602094601f821160011461314c57948192939495600092613141575b50508160011b916000199060031b1c19161781555b6001810160208401518051906001600160401b038211610721578190612c518454612592565b601f81116130ee575b50602090601f83116001146130895760009261307e575b50508160011b916000199060031b1c19161790555b60408301516002820180546001600160a01b0319166001600160a01b03929092169190911790556060830151805160038301916001600160401b038211610721578190612cd38454612592565b601f811161302b575b50602090601f8311600114612fc657600092612fbb575b50508160011b916000199060031b1c19161790555b612d46600482016080850151612d1d81612665565b612d2681612665565b60ff8019835416911617815560a085015190612d418261251e565b61280a565b60c0830151600582015560e08301516006820155600781016101008401518051906001600160401b03821161072157612d7f8354612592565b601f8111612f73575b50602090601f8311600114612f05579180600994926101409694600092612efa575b50508160011b916000199060031b1c19161790555b6101208501516008820180546001600160a01b0319166001600160a01b0392909216919091179055919093015180519093909101906001600160401b03811161072157612e0c8254612592565b601f8111612eb2575b506020601f8211600114612e505781929394600092612e45575b50508160011b916000199060031b1c1916179055565b015190503880612e2f565b601f1982169083600052806000209160005b818110612e9a57509583600195969710612e81575b505050811b019055565b015160001960f88460031b161c19169055388080612e77565b9192602060018192868b015181550194019201612e62565b826000526020600020601f830160051c81019160208410612ef0575b601f0160051c01905b818110612ee45750612e15565b60008155600101612ed7565b9091508190612ece565b015190503880612daa565b90601f1983169184600052816000209260005b818110612f5b575092600192859261014098966009989610612f42575b505050811b019055612dbf565b015160001960f88460031b161c19169055388080612f35565b92936020600181928786015181550195019301612f18565b836000526020600020601f840160051c81019160208510612fb1575b601f0160051c01905b818110612fa55750612d88565b60008155600101612f98565b9091508190612f8f565b015190503880612cf3565b60008581528281209350601f198516905b8181106130135750908460019594939210612ffa575b505050811b019055612d08565b015160001960f88460031b161c19169055388080612fed565b92936020600181928786015181550195019301612fd7565b909150836000526020600020601f840160051c81019160208510613074575b90601f859493920160051c01905b8181106130655750612cdc565b60008155849350600101613058565b909150819061304a565b015190503880612c71565b60008581528281209350601f198516905b8181106130d657509084600195949392106130bd575b505050811b019055612c86565b015160001960f88460031b161c191690553880806130b0565b9293602060018192878601518155019501930161309a565b909150836000526020600020601f840160051c81019160208510613137575b90601f859493920160051c01905b8181106131285750612c5a565b6000815584935060010161311b565b909150819061310d565b015190503880612c16565b601f1982169583600052806000209160005b88811061319957508360019596979810613180575b505050811b018155612c2b565b015160001960f88460031b161c19169055388080613173565b9192602060018192868501518155019401920161315e565b826000526020600020601f830160051c810191602084106131ef575b601f0160051c01905b8181106131e35750612bf9565b600081556001016131d6565b90915081906131cd565b9181519283516001600160401b038111610721576132178254612592565b601f8111613792575b50602094601f821160011461372d57948192939495600092613722575b50508160011b916000199060031b1c19161781555b6001810160208401518051906001600160401b0382116107215781906132788454612592565b601f81116136cf575b50602090601f831160011461366a5760009261365f575b50508160011b916000199060031b1c19161790555b60408301516002820180546001600160a01b0319166001600160a01b03929092169190911790556060830151805160038301916001600160401b0382116107215781906132fa8454612592565b601f811161360c575b50602090601f83116001146135a75760009261359c575b50508160011b916000199060031b1c19161790555b61334d6004820160808501516133448161251e565b612d268161251e565b60c0830151600582015560e08301516006820155600781016101008401518051906001600160401b038211610721576133868354612592565b601f8111613554575b50602090601f83116001146134e65791806009949261014096946000926134db575b50508160011b916000199060031b1c19161790555b6101208501516008820180546001600160a01b0319166001600160a01b0392909216919091179055919093015180519093909101906001600160401b038111610721576134138254612592565b601f8111613493575b506020601f821160011461344b5781929394600092612e455750508160011b916000199060031b1c1916179055565b601f1982169083600052806000209160005b81811061347b57509583600195969710612e8157505050811b019055565b9192602060018192868b01518155019401920161345d565b826000526020600020601f830160051c810191602084106134d1575b601f0160051c01905b8181106134c5575061341c565b600081556001016134b8565b90915081906134af565b0151905038806133b1565b90601f1983169184600052816000209260005b81811061353c575092600192859261014098966009989610613523575b505050811b0190556133c6565b015160001960f88460031b161c19169055388080613516565b929360206001819287860151815501950193016134f9565b836000526020600020601f840160051c81019160208510613592575b601f0160051c01905b818110613586575061338f565b60008155600101613579565b9091508190613570565b01519050388061331a565b60008581528281209350601f198516905b8181106135f457509084600195949392106135db575b505050811b01905561332f565b015160001960f88460031b161c191690553880806135ce565b929360206001819287860151815501950193016135b8565b909150836000526020600020601f840160051c81019160208510613655575b90601f859493920160051c01905b8181106136465750613303565b60008155849350600101613639565b909150819061362b565b015190503880613298565b60008581528281209350601f198516905b8181106136b7575090846001959493921061369e575b505050811b0190556132ad565b015160001960f88460031b161c19169055388080613691565b9293602060018192878601518155019501930161367b565b909150836000526020600020601f840160051c81019160208510613718575b90601f859493920160051c01905b8181106137095750613281565b600081558493506001016136fc565b90915081906136ee565b01519050388061323d565b601f1982169583600052806000209160005b88811061377a57508360019596979810613761575b505050811b018155613252565b015160001960f88460031b161c19169055388080613754565b9192602060018192868501518155019401920161373f565b826000526020600020601f830160051c810191602084106137d0575b601f0160051c01905b8181106137c45750613220565b600081556001016137b7565b90915081906137ae56feedc9920ea2d8611e7d985ecf390206409122b6df9a9c529063c5311531494be1a2646970667358221220b90d5c63b7bc518c5fb3ac40cc9bede3de96cbea4132ee2b97b884073cea409864736f6c634300081b0033",
  "linkReferences": {},
  "deployedLinkReferences": {}
}