{
  "_format": "hh-sol-artifact-1",
  "contractName": "MainSupplyChain",
  "sourceName": "contracts/MainSupplyChain.sol",
  "abi": [
    {
      "inputs": [],
      "stateMutability": "nonpayable",
      "type": "constructor"
    },
    {
      "anonymous": false,
      "inputs": [
        {
          "indexed": false,
          "internalType": "address",
          "name": "userAddr",
          "type": "address"
        },
        {
          "indexed": false,
          "internalType": "string",
          "name": "name",
          "type": "string"
        },
        {
          "indexed": false,
          "internalType": "enum MainSupplyChain.en_roles",
          "name": "role",
          "type": "uint8"
        }
      ],
      "name": "evt_UserRegistered",
      "type": "event"
    },
    {
      "anonymous": false,
      "inputs": [
        {
          "indexed": false,
          "internalType": "address",
          "name": "bpomAddr",
          "type": "address"
        },
        {
          "indexed": false,
          "internalType": "string",
          "name": "factoryName",
          "type": "string"
        },
        {
          "indexed": false,
          "internalType": "string",
          "name": "cpotbNumber",
          "type": "string"
        },
        {
          "indexed": false,
          "internalType": "uint256",
          "name": "timestampApprove",
          "type": "uint256"
        }
      ],
      "name": "evt_cpotbApproved",
      "type": "event"
    },
    {
      "anonymous": false,
      "inputs": [
        {
          "indexed": false,
          "internalType": "address",
          "name": "factoryAddr",
          "type": "address"
        },
        {
          "indexed": false,
          "internalType": "string",
          "name": "factoryName",
          "type": "string"
        },
        {
          "indexed": false,
          "internalType": "enum MainSupplyChain.en_jenisSediaan",
          "name": "jenisSediaan",
          "type": "uint8"
        },
        {
          "indexed": false,
          "internalType": "string",
          "name": "cpotbId",
          "type": "string"
        },
        {
          "indexed": false,
          "internalType": "uint256",
          "name": "timestampRequest",
          "type": "uint256"
        }
      ],
      "name": "evt_cpotbRequested",
      "type": "event"
    },
    {
      "inputs": [
        {
          "internalType": "string",
          "name": "_cpotbId",
          "type": "string"
        },
        {
          "internalType": "string",
          "name": "_cpotbNumber",
          "type": "string"
        }
      ],
      "name": "approveCpotb",
      "outputs": [],
      "stateMutability": "nonpayable",
      "type": "function"
    },
    {
      "inputs": [
        {
          "internalType": "address",
          "name": "_userAddr",
          "type": "address"
        }
      ],
      "name": "getRegisteredUser",
      "outputs": [
        {
          "internalType": "address",
          "name": "",
          "type": "address"
        },
        {
          "internalType": "string",
          "name": "",
          "type": "string"
        },
        {
          "internalType": "uint8",
          "name": "",
          "type": "uint8"
        }
      ],
      "stateMutability": "view",
      "type": "function"
    },
    {
      "inputs": [],
      "name": "owner",
      "outputs": [
        {
          "internalType": "address",
          "name": "",
          "type": "address"
        }
      ],
      "stateMutability": "view",
      "type": "function"
    },
    {
      "inputs": [
        {
          "internalType": "string",
          "name": "_name",
          "type": "string"
        },
        {
          "internalType": "string",
          "name": "_email",
          "type": "string"
        },
        {
          "internalType": "address",
          "name": "_userAddr",
          "type": "address"
        },
        {
          "internalType": "uint8",
          "name": "_userRole",
          "type": "uint8"
        }
      ],
      "name": "registerUser",
      "outputs": [],
      "stateMutability": "nonpayable",
      "type": "function"
    },
    {
      "inputs": [
        {
          "internalType": "string",
          "name": "_factoryName",
          "type": "string"
        },
        {
          "internalType": "string",
          "name": "_cpotbId",
          "type": "string"
        },
        {
          "internalType": "enum MainSupplyChain.en_jenisSediaan",
          "name": "_jenisSediaan",
          "type": "uint8"
        }
      ],
      "name": "requestCpotb",
      "outputs": [],
      "stateMutability": "nonpayable",
      "type": "function"
    },
    {
      "inputs": [
        {
          "internalType": "address",
          "name": "",
          "type": "address"
        }
      ],
      "name": "userRoles",
      "outputs": [
        {
          "internalType": "enum MainSupplyChain.en_roles",
          "name": "",
          "type": "uint8"
        }
      ],
      "stateMutability": "view",
      "type": "function"
    }
  ],
  "bytecode": "0x60808060405234602757600080546001600160a01b031916331790556111dd908161002d8239f35b600080fdfe6080604052600436101561001257600080fd5b60003560e01c8063073f2554146109c357806326bfeb921461072257806374d5e100146106de5780638da5cb5b146106b5578063d1233672146101ab5763e54a29bb1461005e57600080fd5b346101a65760203660031901126101a6576001600160a01b0361007f61100e565b1680600052600360205260ff604060002054161561016857600052600160205260406000206002604051916100b383610f7c565b6040516100cb816100c48185611118565b0382610f97565b83526040516100e1816100c48160018601611118565b602084015201546001600160a01b0381166040830190815260608301929161010f9060a01c60ff168461119b565b51905191516001600160a01b039091169060058110156101525760ff6101476040519485948552606060208601526060850190611054565b911660408301520390f35b634e487b7160e01b600052602160045260246000fd5b60405162461bcd60e51b8152602060048201526016602482015275155cd95c881a5cc81b9bdd081c9959da5cdd195c995960521b6044820152606490fd5b600080fd5b346101a65760803660031901126101a6576004356001600160401b0381116101a6576101db903690600401610fb8565b6024356001600160401b0381116101a6576101fa903690600401610fb8565b906044356001600160a01b03811691908290036101a6576064359160ff83168093036101a65780600052600360205260ff604060002054166106705760406000806102996102ad845161024d8682610f97565b602081527f5265676973746572557365722066756e6374696f6e2063616c6c65642062793a6020820152855192839163319af33360e01b60208401528760248401526064830190611054565b87604483015203601f198101835282610f97565b6020815191016a636f6e736f6c652e6c6f675afa5060008061031061032484516102d78682610f97565b600a8152692ab9b2b9102937b6329d60b11b60208201528551928391632d839cb360e21b60208401528760248401526064830190611054565b89604483015203601f198101835282610f97565b6020815191016a636f6e736f6c652e6c6f675afa5060058410156101525780519461034e86610f7c565b8386526020860190815281860195838752606081019161036e878461119b565b8460005260016020528360002091518051906001600160401b03821161059757819061039a85546110de565b601f811161061d575b50602090601f83116001146105b8576000926105ad575b50508160011b916000199060031b1c19161782555b51805160018301916001600160401b038211610597576103ef83546110de565b601f811161054f575b50602090601f83116001146104e457600294939291600091836104d9575b50508160011b916000199060031b1c19161790555b9651960180546001600160a01b0319166001600160a01b039790971696909617865551946005861015610152577fa4b4a4f9197eb52b65944f57348759ea717338f8a8f998a585d243350c2babb4946104d39160009781549060ff60a01b9060a01b169060ff60a01b19161790558387526003602052828720600160ff198254161790556104ca83519586958652606060208701526060860190611054565b92840190611024565b0390a180f35b015190508b80610416565b90601f1983169184600052816000209260005b81811061053757509160019391856002989796941061051e575b505050811b01905561042b565b015160001960f88460031b161c191690558b8080610511565b929360206001819287860151815501950193016104f7565b836000526020600020601f840160051c8101916020851061058d575b601f0160051c01905b81811061058157506103f8565b60008155600101610574565b909150819061056b565b634e487b7160e01b600052604160045260246000fd5b015190508a806103ba565b60008681528281209350601f198516905b81811061060557509084600195949392106105ec575b505050811b0182556103cf565b015160001960f88460031b161c191690558a80806105df565b929360206001819287860151815501950193016105c9565b909150846000526020600020601f840160051c81019160208510610666575b90601f859493920160051c01905b81811061065757506103a3565b6000815584935060010161064a565b909150819061063c565b60405162461bcd60e51b815260206004820152601a60248201527f5573657220697320616c726561647920726567697374657265640000000000006044820152606490fd5b346101a65760003660031901126101a6576000546040516001600160a01b039091168152602090f35b346101a65760203660031901126101a6576001600160a01b036106ff61100e565b166000526002602052602060ff604060002054166107206040518092611024565bf35b346101a65760403660031901126101a6576004356001600160401b0381116101a657610752903690600401610fb8565b6024356001600160401b0381116101a657610771903690600401610fb8565b9033600052600260205260ff604060002054166005811015610152576107b29161079f600260209314611079565b8160405193828580945193849201611031565b810160048152030190206003810160ff815460081c1660028110156101525761097e57805461ff001916610100179055815191600682016001600160401b0384116105975761080181546110de565b601f8111610936575b50602093601f81116001146108a95791610893918361088595947fbf2a1bd20abd851e14d5dd0a42bf8c003bf454a17688a93bc60fa324013f2b089760009161089e575b508160011b916000199060031b1c19161790555b426005840155604051938493338552608060208601526002608086019101611118565b908382036040850152611054565b4260608301520390a1005b90508301518861084e565b601f19811682600052856000209060005b81811061091e57508261089394927fbf2a1bd20abd851e14d5dd0a42bf8c003bf454a17688a93bc60fa324013f2b089861088598979560019410610905575b5050811b019055610862565b85015160001960f88460031b161c1916905588806108f9565b858801518355602097880197600190930192016108ba565b816000526020600020601f860160051c81019160208710610974575b601f0160051c01905b818110610968575061080a565b6000815560010161095b565b9091508190610952565b60405162461bcd60e51b815260206004820152601d60248201527f43504f544220737461747573206d7573742062652070656e64696e67210000006044820152606490fd5b346101a65760603660031901126101a6576004356001600160401b0381116101a6576109f3903690600401610fb8565b6024356001600160401b0381116101a657610a12903690600401610fb8565b90600460443510156101a65733600052600260205260ff60406000205416600581101561015257610a439015611079565b6040519161012083018381106001600160401b038211176105975760405280835233602084015281604084015260009160443560608501528260808501524260a08501528260c0850152602093604051610a9d8682610f97565b84815260e08201528361010082015260405185818551610ac08183858a01611031565b810160048152030190209080518051906001600160401b038211610eaf578190610aea85546110de565b601f8111610f31575b508890601f8311600114610ece578892610ec3575b50508160011b916000199060031b1c19161782555b60208101516001830180546001600160a01b0319166001600160a01b039290921691909117905560408101518051906001600160401b038211610eaf578190610b6960028601546110de565b601f8111610e61575b508890601f8311600114610df8578892610ded575b50508160011b916000199060031b1c19161760028301555b6003820160608201516004811015610dd95760ff8019835416911617815560808201516002811015610dd95761ff0082549160081b169061ff00191617905560a0810151600483015560c081015160058301556006820160e08201518051906001600160401b038211610dc557610c1683546110de565b601f8111610d82575b508890601f8311600114610cee577fb1f81a7d9b3451870eeffc1d43be8cce346b7e5d1a1c11f7ab085d8e8d550702999794610cc19484610cd899958c999560079560a09e92610ce3575b50508160011b916000199060031b1c19161790555b6101006001808c1b03910151169101906001808a1b03166bffffffffffffffffffffffff891b82541617905560405196879633885287015260a0860190611054565b915060443560408501528382036060850152611054565b4260808301520390a1005b015190508e80610c6a565b8389528989209190601f1984168a5b818110610d6b57509460018560a09c99956007957fb1f81a7d9b3451870eeffc1d43be8cce346b7e5d1a1c11f7ab085d8e8d5507029f9d9a95610cd89d99610cc19b10610d52575b505050811b019055610c7f565b015160001960f88460031b161c191690558e8080610d45565b92938c600181928786015181550195019301610cfd565b838952898920601f840160051c8101918b8510610dbb575b601f0160051c01905b818110610db05750610c1f565b898155600101610da3565b9091508190610d9a565b634e487b7160e01b88526041600452602488fd5b634e487b7160e01b87526021600452602487fd5b015190508880610b87565b6002860189528989209250601f198416895b8b828210610e4b575050908460019594939210610e32575b505050811b016002830155610b9f565b015160001960f88460031b161c19169055888080610e22565b6001859682939686015181550195019301610e0a565b909150600285018852888820601f840160051c81018a8510610ea8575b90849392915b601f830160051c82018110610e9a575050610b72565b8a8155859450600101610e84565b5080610e7e565b634e487b7160e01b87526041600452602487fd5b015190508880610b08565b8589528989209250601f198416895b8b828210610f1b575050908460019594939210610f02575b505050811b018255610b1d565b015160001960f88460031b161c19169055888080610ef5565b6001859682939686015181550195019301610edd565b909150848852888820601f840160051c81018a8510610f75575b90849392915b601f830160051c82018110610f67575050610af3565b8a8155859450600101610f51565b5080610f4b565b608081019081106001600160401b0382111761059757604052565b90601f801991011681019081106001600160401b0382111761059757604052565b81601f820112156101a6578035906001600160401b0382116105975760405192610fec601f8401601f191660200185610f97565b828452602083830101116101a657816000926020809301838601378301015290565b600435906001600160a01b03821682036101a657565b9060058210156101525752565b60005b8381106110445750506000910152565b8181015183820152602001611034565b9060209161106d81518092818552858086019101611031565b601f01601f1916010190565b1561108057565b60405162461bcd60e51b815260206004820152603060248201527f536f7272792c20796f7520646f6e2774206861766520617574686f72697a656460448201526f20746f2061636365737320746869732160801b6064820152608490fd5b90600182811c9216801561110e575b60208310146110f857565b634e487b7160e01b600052602260045260246000fd5b91607f16916110ed565b60009291815491611128836110de565b808352926001811690811561117e575060011461114457505050565b60009081526020812093945091925b838310611164575060209250010190565b600181602092949394548385870101520191019190611153565b915050602093945060ff929192191683830152151560051b010190565b6005821015610152575256fea264697066735822122079ce63b0fd040c4be63bd644340738b9edb33ed25ed131ce4191d65a740eb4c864736f6c634300081b0033",
  "linkReferences": {},
  "deployedLinkReferences": {}
}