{
  "_format": "hh-sol-artifact-1",
  "contractName": "MainSupplyChain",
  "sourceName": "contracts/MainSupplyChain.sol",
  "abi": [
    {
      "inputs": [
        {
          "internalType": "address",
          "name": "_roleManagerAddr",
          "type": "address"
        }
      ],
      "stateMutability": "nonpayable",
      "type": "constructor"
    },
    {
      "anonymous": false,
      "inputs": [
        {
          "indexed": false,
          "internalType": "address",
          "name": "userAddr",
          "type": "address"
        },
        {
          "indexed": false,
          "internalType": "string",
          "name": "name",
          "type": "string"
        },
        {
          "indexed": false,
          "internalType": "string",
          "name": "instanceName",
          "type": "string"
        },
        {
          "indexed": false,
          "internalType": "uint8",
          "name": "role",
          "type": "uint8"
        },
        {
          "indexed": false,
          "internalType": "string",
          "name": "addressInstance",
          "type": "string"
        }
      ],
      "name": "evt_UserRegistered",
      "type": "event"
    },
    {
      "anonymous": false,
      "inputs": [
        {
          "indexed": false,
          "internalType": "string",
          "name": "bpomInstance",
          "type": "string"
        },
        {
          "indexed": false,
          "internalType": "address",
          "name": "bpomAddr",
          "type": "address"
        },
        {
          "indexed": false,
          "internalType": "enum EnumsLibrary.TipePermohonanCdob",
          "name": "",
          "type": "uint8"
        },
        {
          "indexed": false,
          "internalType": "string",
          "name": "cdobNumber",
          "type": "string"
        },
        {
          "indexed": false,
          "internalType": "uint256",
          "name": "timestampApproved",
          "type": "uint256"
        }
      ],
      "name": "evt_cdobApproved",
      "type": "event"
    },
    {
      "anonymous": false,
      "inputs": [
        {
          "indexed": false,
          "internalType": "string",
          "name": "pbfInstance",
          "type": "string"
        },
        {
          "indexed": false,
          "internalType": "address",
          "name": "pbfAddr",
          "type": "address"
        },
        {
          "indexed": false,
          "internalType": "enum EnumsLibrary.TipePermohonanCdob",
          "name": "tipePermohonan",
          "type": "uint8"
        },
        {
          "indexed": false,
          "internalType": "uint256",
          "name": "timestampRequest",
          "type": "uint256"
        }
      ],
      "name": "evt_cdobRequested",
      "type": "event"
    },
    {
      "anonymous": false,
      "inputs": [
        {
          "indexed": false,
          "internalType": "string",
          "name": "bpomInstance",
          "type": "string"
        },
        {
          "indexed": false,
          "internalType": "address",
          "name": "bpomAddr",
          "type": "address"
        },
        {
          "indexed": false,
          "internalType": "enum EnumsLibrary.TipePermohonanCpotb",
          "name": "",
          "type": "uint8"
        },
        {
          "indexed": false,
          "internalType": "string",
          "name": "cpotbId",
          "type": "string"
        },
        {
          "indexed": false,
          "internalType": "uint256",
          "name": "timestampApproved",
          "type": "uint256"
        }
      ],
      "name": "evt_cpotbApproved",
      "type": "event"
    },
    {
      "anonymous": false,
      "inputs": [
        {
          "indexed": false,
          "internalType": "string",
          "name": "factoryInstance",
          "type": "string"
        },
        {
          "indexed": false,
          "internalType": "address",
          "name": "factoryAddr",
          "type": "address"
        },
        {
          "indexed": false,
          "internalType": "enum EnumsLibrary.TipePermohonanCpotb",
          "name": "",
          "type": "uint8"
        },
        {
          "indexed": false,
          "internalType": "uint256",
          "name": "timestampRequest",
          "type": "uint256"
        }
      ],
      "name": "evt_cpotbRequested",
      "type": "event"
    },
    {
      "inputs": [
        {
          "internalType": "uint256",
          "name": "",
          "type": "uint256"
        }
      ],
      "name": "allCertificateData",
      "outputs": [
        {
          "internalType": "string",
          "name": "certId",
          "type": "string"
        },
        {
          "internalType": "string",
          "name": "certNumber",
          "type": "string"
        },
        {
          "internalType": "string",
          "name": "instanceName",
          "type": "string"
        },
        {
          "internalType": "string",
          "name": "certificateType",
          "type": "string"
        },
        {
          "internalType": "uint8",
          "name": "tipePermohonan",
          "type": "uint8"
        },
        {
          "internalType": "enum EnumsLibrary.StatusCertificate",
          "name": "status",
          "type": "uint8"
        }
      ],
      "stateMutability": "view",
      "type": "function"
    },
    {
      "inputs": [
        {
          "components": [
            {
              "internalType": "string",
              "name": "certNumber",
              "type": "string"
            },
            {
              "internalType": "string",
              "name": "certId",
              "type": "string"
            },
            {
              "internalType": "string",
              "name": "bpomName",
              "type": "string"
            },
            {
              "internalType": "string",
              "name": "bpomInstance",
              "type": "string"
            }
          ],
          "internalType": "struct MainSupplyChain.st_certificateApproval",
          "name": "approvalData",
          "type": "tuple"
        },
        {
          "internalType": "string",
          "name": "_ipfsCert",
          "type": "string"
        },
        {
          "internalType": "uint8",
          "name": "_tipePermohonanCdob",
          "type": "uint8"
        }
      ],
      "name": "approveCdob",
      "outputs": [],
      "stateMutability": "nonpayable",
      "type": "function"
    },
    {
      "inputs": [
        {
          "components": [
            {
              "internalType": "string",
              "name": "certNumber",
              "type": "string"
            },
            {
              "internalType": "string",
              "name": "certId",
              "type": "string"
            },
            {
              "internalType": "string",
              "name": "bpomName",
              "type": "string"
            },
            {
              "internalType": "string",
              "name": "bpomInstance",
              "type": "string"
            }
          ],
          "internalType": "struct MainSupplyChain.st_certificateApproval",
          "name": "approvalData",
          "type": "tuple"
        },
        {
          "internalType": "string",
          "name": "_ipfsCert",
          "type": "string"
        },
        {
          "internalType": "uint8",
          "name": "_tipePermohonanCpotb",
          "type": "uint8"
        }
      ],
      "name": "approveCpotb",
      "outputs": [],
      "stateMutability": "nonpayable",
      "type": "function"
    },
    {
      "inputs": [
        {
          "internalType": "string",
          "name": "_factoryName",
          "type": "string"
        }
      ],
      "name": "approvedTipePermohonan",
      "outputs": [
        {
          "components": [
            {
              "internalType": "string",
              "name": "ipfsCert",
              "type": "string"
            },
            {
              "internalType": "uint8",
              "name": "tipePermohonan",
              "type": "uint8"
            }
          ],
          "internalType": "struct MainSupplyChain.st_approvedCert[]",
          "name": "",
          "type": "tuple[]"
        }
      ],
      "stateMutability": "view",
      "type": "function"
    },
    {
      "inputs": [
        {
          "internalType": "string",
          "name": "",
          "type": "string"
        },
        {
          "internalType": "uint256",
          "name": "",
          "type": "uint256"
        }
      ],
      "name": "approvedTipePermohonanByFactory",
      "outputs": [
        {
          "internalType": "string",
          "name": "ipfsCert",
          "type": "string"
        },
        {
          "internalType": "uint8",
          "name": "tipePermohonan",
          "type": "uint8"
        }
      ],
      "stateMutability": "view",
      "type": "function"
    },
    {
      "inputs": [
        {
          "internalType": "string",
          "name": "",
          "type": "string"
        },
        {
          "internalType": "uint256",
          "name": "",
          "type": "uint256"
        }
      ],
      "name": "approvedTipePermohonanByPbf",
      "outputs": [
        {
          "internalType": "string",
          "name": "ipfsCert",
          "type": "string"
        },
        {
          "internalType": "uint8",
          "name": "tipePermohonan",
          "type": "uint8"
        }
      ],
      "stateMutability": "view",
      "type": "function"
    },
    {
      "inputs": [
        {
          "internalType": "string",
          "name": "_pbfName",
          "type": "string"
        }
      ],
      "name": "approvedTipePermohonanCdob",
      "outputs": [
        {
          "components": [
            {
              "internalType": "string",
              "name": "ipfsCert",
              "type": "string"
            },
            {
              "internalType": "uint8",
              "name": "tipePermohonan",
              "type": "uint8"
            }
          ],
          "internalType": "struct MainSupplyChain.st_approvedCert[]",
          "name": "",
          "type": "tuple[]"
        }
      ],
      "stateMutability": "view",
      "type": "function"
    },
    {
      "inputs": [
        {
          "internalType": "string",
          "name": "",
          "type": "string"
        }
      ],
      "name": "cdobDataById",
      "outputs": [
        {
          "internalType": "string",
          "name": "cdobId",
          "type": "string"
        },
        {
          "internalType": "string",
          "name": "cdobNumber",
          "type": "string"
        },
        {
          "components": [
            {
              "internalType": "enum EnumsLibrary.StatusCertificate",
              "name": "status",
              "type": "uint8"
            },
            {
              "internalType": "uint256",
              "name": "timestampRequest",
              "type": "uint256"
            },
            {
              "internalType": "uint256",
              "name": "timestampApprove",
              "type": "uint256"
            },
            {
              "components": [
                {
                  "internalType": "string",
                  "name": "userName",
                  "type": "string"
                },
                {
                  "internalType": "address",
                  "name": "userAddr",
                  "type": "address"
                },
                {
                  "internalType": "string",
                  "name": "userInstanceName",
                  "type": "string"
                }
              ],
              "internalType": "struct MainSupplyChain.st_userCertificate",
              "name": "sender",
              "type": "tuple"
            },
            {
              "components": [
                {
                  "internalType": "string",
                  "name": "userName",
                  "type": "string"
                },
                {
                  "internalType": "address",
                  "name": "userAddr",
                  "type": "address"
                },
                {
                  "internalType": "string",
                  "name": "userInstanceName",
                  "type": "string"
                }
              ],
              "internalType": "struct MainSupplyChain.st_userCertificate",
              "name": "bpom",
              "type": "tuple"
            },
            {
              "internalType": "string",
              "name": "ipfsCert",
              "type": "string"
            }
          ],
          "internalType": "struct MainSupplyChain.st_certificateDetails",
          "name": "details",
          "type": "tuple"
        },
        {
          "internalType": "enum EnumsLibrary.TipePermohonanCdob",
          "name": "tipePermohonan",
          "type": "uint8"
        }
      ],
      "stateMutability": "view",
      "type": "function"
    },
    {
      "inputs": [
        {
          "internalType": "string",
          "name": "",
          "type": "string"
        }
      ],
      "name": "cpotbDataById",
      "outputs": [
        {
          "internalType": "string",
          "name": "cpotbId",
          "type": "string"
        },
        {
          "internalType": "string",
          "name": "cpotbNumber",
          "type": "string"
        },
        {
          "components": [
            {
              "internalType": "enum EnumsLibrary.StatusCertificate",
              "name": "status",
              "type": "uint8"
            },
            {
              "internalType": "uint256",
              "name": "timestampRequest",
              "type": "uint256"
            },
            {
              "internalType": "uint256",
              "name": "timestampApprove",
              "type": "uint256"
            },
            {
              "components": [
                {
                  "internalType": "string",
                  "name": "userName",
                  "type": "string"
                },
                {
                  "internalType": "address",
                  "name": "userAddr",
                  "type": "address"
                },
                {
                  "internalType": "string",
                  "name": "userInstanceName",
                  "type": "string"
                }
              ],
              "internalType": "struct MainSupplyChain.st_userCertificate",
              "name": "sender",
              "type": "tuple"
            },
            {
              "components": [
                {
                  "internalType": "string",
                  "name": "userName",
                  "type": "string"
                },
                {
                  "internalType": "address",
                  "name": "userAddr",
                  "type": "address"
                },
                {
                  "internalType": "string",
                  "name": "userInstanceName",
                  "type": "string"
                }
              ],
              "internalType": "struct MainSupplyChain.st_userCertificate",
              "name": "bpom",
              "type": "tuple"
            },
            {
              "internalType": "string",
              "name": "ipfsCert",
              "type": "string"
            }
          ],
          "internalType": "struct MainSupplyChain.st_certificateDetails",
          "name": "details",
          "type": "tuple"
        },
        {
          "internalType": "enum EnumsLibrary.TipePermohonanCpotb",
          "name": "tipePermohonan",
          "type": "uint8"
        }
      ],
      "stateMutability": "view",
      "type": "function"
    },
    {
      "inputs": [
        {
          "internalType": "string",
          "name": "_certId",
          "type": "string"
        }
      ],
      "name": "detailCdob",
      "outputs": [
        {
          "components": [
            {
              "internalType": "string",
              "name": "cdobId",
              "type": "string"
            },
            {
              "internalType": "string",
              "name": "cdobNumber",
              "type": "string"
            },
            {
              "components": [
                {
                  "internalType": "enum EnumsLibrary.StatusCertificate",
                  "name": "status",
                  "type": "uint8"
                },
                {
                  "internalType": "uint256",
                  "name": "timestampRequest",
                  "type": "uint256"
                },
                {
                  "internalType": "uint256",
                  "name": "timestampApprove",
                  "type": "uint256"
                },
                {
                  "components": [
                    {
                      "internalType": "string",
                      "name": "userName",
                      "type": "string"
                    },
                    {
                      "internalType": "address",
                      "name": "userAddr",
                      "type": "address"
                    },
                    {
                      "internalType": "string",
                      "name": "userInstanceName",
                      "type": "string"
                    }
                  ],
                  "internalType": "struct MainSupplyChain.st_userCertificate",
                  "name": "sender",
                  "type": "tuple"
                },
                {
                  "components": [
                    {
                      "internalType": "string",
                      "name": "userName",
                      "type": "string"
                    },
                    {
                      "internalType": "address",
                      "name": "userAddr",
                      "type": "address"
                    },
                    {
                      "internalType": "string",
                      "name": "userInstanceName",
                      "type": "string"
                    }
                  ],
                  "internalType": "struct MainSupplyChain.st_userCertificate",
                  "name": "bpom",
                  "type": "tuple"
                },
                {
                  "internalType": "string",
                  "name": "ipfsCert",
                  "type": "string"
                }
              ],
              "internalType": "struct MainSupplyChain.st_certificateDetails",
              "name": "details",
              "type": "tuple"
            },
            {
              "internalType": "enum EnumsLibrary.TipePermohonanCdob",
              "name": "tipePermohonan",
              "type": "uint8"
            }
          ],
          "internalType": "struct MainSupplyChain.st_cdob",
          "name": "",
          "type": "tuple"
        }
      ],
      "stateMutability": "view",
      "type": "function"
    },
    {
      "inputs": [
        {
          "internalType": "string",
          "name": "_certId",
          "type": "string"
        }
      ],
      "name": "detailCpotb",
      "outputs": [
        {
          "components": [
            {
              "internalType": "string",
              "name": "cpotbId",
              "type": "string"
            },
            {
              "internalType": "string",
              "name": "cpotbNumber",
              "type": "string"
            },
            {
              "components": [
                {
                  "internalType": "enum EnumsLibrary.StatusCertificate",
                  "name": "status",
                  "type": "uint8"
                },
                {
                  "internalType": "uint256",
                  "name": "timestampRequest",
                  "type": "uint256"
                },
                {
                  "internalType": "uint256",
                  "name": "timestampApprove",
                  "type": "uint256"
                },
                {
                  "components": [
                    {
                      "internalType": "string",
                      "name": "userName",
                      "type": "string"
                    },
                    {
                      "internalType": "address",
                      "name": "userAddr",
                      "type": "address"
                    },
                    {
                      "internalType": "string",
                      "name": "userInstanceName",
                      "type": "string"
                    }
                  ],
                  "internalType": "struct MainSupplyChain.st_userCertificate",
                  "name": "sender",
                  "type": "tuple"
                },
                {
                  "components": [
                    {
                      "internalType": "string",
                      "name": "userName",
                      "type": "string"
                    },
                    {
                      "internalType": "address",
                      "name": "userAddr",
                      "type": "address"
                    },
                    {
                      "internalType": "string",
                      "name": "userInstanceName",
                      "type": "string"
                    }
                  ],
                  "internalType": "struct MainSupplyChain.st_userCertificate",
                  "name": "bpom",
                  "type": "tuple"
                },
                {
                  "internalType": "string",
                  "name": "ipfsCert",
                  "type": "string"
                }
              ],
              "internalType": "struct MainSupplyChain.st_certificateDetails",
              "name": "details",
              "type": "tuple"
            },
            {
              "internalType": "enum EnumsLibrary.TipePermohonanCpotb",
              "name": "tipePermohonan",
              "type": "uint8"
            }
          ],
          "internalType": "struct MainSupplyChain.st_cpotb",
          "name": "",
          "type": "tuple"
        }
      ],
      "stateMutability": "view",
      "type": "function"
    },
    {
      "inputs": [],
      "name": "getListAllCdob",
      "outputs": [
        {
          "components": [
            {
              "internalType": "string",
              "name": "certId",
              "type": "string"
            },
            {
              "internalType": "string",
              "name": "certNumber",
              "type": "string"
            },
            {
              "internalType": "string",
              "name": "instanceName",
              "type": "string"
            },
            {
              "internalType": "string",
              "name": "certificateType",
              "type": "string"
            },
            {
              "internalType": "uint8",
              "name": "tipePermohonan",
              "type": "uint8"
            },
            {
              "internalType": "enum EnumsLibrary.StatusCertificate",
              "name": "status",
              "type": "uint8"
            }
          ],
          "internalType": "struct MainSupplyChain.st_certificateList[]",
          "name": "",
          "type": "tuple[]"
        }
      ],
      "stateMutability": "view",
      "type": "function"
    },
    {
      "inputs": [
        {
          "internalType": "string",
          "name": "_instanceName",
          "type": "string"
        }
      ],
      "name": "getListAllCertificateByInstance",
      "outputs": [
        {
          "components": [
            {
              "internalType": "string",
              "name": "certId",
              "type": "string"
            },
            {
              "internalType": "string",
              "name": "certNumber",
              "type": "string"
            },
            {
              "internalType": "string",
              "name": "instanceName",
              "type": "string"
            },
            {
              "internalType": "string",
              "name": "certificateType",
              "type": "string"
            },
            {
              "internalType": "uint8",
              "name": "tipePermohonan",
              "type": "uint8"
            },
            {
              "internalType": "enum EnumsLibrary.StatusCertificate",
              "name": "status",
              "type": "uint8"
            }
          ],
          "internalType": "struct MainSupplyChain.st_certificateList[]",
          "name": "",
          "type": "tuple[]"
        }
      ],
      "stateMutability": "view",
      "type": "function"
    },
    {
      "inputs": [],
      "name": "getListAllCpotb",
      "outputs": [
        {
          "components": [
            {
              "internalType": "string",
              "name": "certId",
              "type": "string"
            },
            {
              "internalType": "string",
              "name": "certNumber",
              "type": "string"
            },
            {
              "internalType": "string",
              "name": "instanceName",
              "type": "string"
            },
            {
              "internalType": "string",
              "name": "certificateType",
              "type": "string"
            },
            {
              "internalType": "uint8",
              "name": "tipePermohonan",
              "type": "uint8"
            },
            {
              "internalType": "enum EnumsLibrary.StatusCertificate",
              "name": "status",
              "type": "uint8"
            }
          ],
          "internalType": "struct MainSupplyChain.st_certificateList[]",
          "name": "",
          "type": "tuple[]"
        }
      ],
      "stateMutability": "view",
      "type": "function"
    },
    {
      "inputs": [
        {
          "internalType": "address",
          "name": "_userAddr",
          "type": "address"
        }
      ],
      "name": "getRegisteredUser",
      "outputs": [
        {
          "components": [
            {
              "internalType": "string",
              "name": "name",
              "type": "string"
            },
            {
              "internalType": "string",
              "name": "instanceName",
              "type": "string"
            },
            {
              "internalType": "address",
              "name": "userAddr",
              "type": "address"
            },
            {
              "internalType": "enum EnumsLibrary.Roles",
              "name": "role",
              "type": "uint8"
            },
            {
              "internalType": "string",
              "name": "addressInstance",
              "type": "string"
            }
          ],
          "internalType": "struct RoleManager.st_user",
          "name": "",
          "type": "tuple"
        }
      ],
      "stateMutability": "view",
      "type": "function"
    },
    {
      "inputs": [
        {
          "internalType": "string",
          "name": "_name",
          "type": "string"
        },
        {
          "internalType": "string",
          "name": "_instanceName",
          "type": "string"
        },
        {
          "internalType": "address",
          "name": "_userAddr",
          "type": "address"
        },
        {
          "internalType": "uint8",
          "name": "_userRole",
          "type": "uint8"
        },
        {
          "internalType": "string",
          "name": "_addressInstance",
          "type": "string"
        }
      ],
      "name": "registerUser",
      "outputs": [],
      "stateMutability": "nonpayable",
      "type": "function"
    },
    {
      "inputs": [
        {
          "components": [
            {
              "internalType": "string",
              "name": "certId",
              "type": "string"
            },
            {
              "internalType": "string",
              "name": "senderName",
              "type": "string"
            },
            {
              "internalType": "string",
              "name": "senderInstance",
              "type": "string"
            }
          ],
          "internalType": "struct MainSupplyChain.st_certificateRequest",
          "name": "requestData",
          "type": "tuple"
        },
        {
          "internalType": "uint8",
          "name": "_tipePermohonanCdob",
          "type": "uint8"
        }
      ],
      "name": "requestCdob",
      "outputs": [],
      "stateMutability": "nonpayable",
      "type": "function"
    },
    {
      "inputs": [
        {
          "components": [
            {
              "internalType": "string",
              "name": "certId",
              "type": "string"
            },
            {
              "internalType": "string",
              "name": "senderName",
              "type": "string"
            },
            {
              "internalType": "string",
              "name": "senderInstance",
              "type": "string"
            }
          ],
          "internalType": "struct MainSupplyChain.st_certificateRequest",
          "name": "requestData",
          "type": "tuple"
        },
        {
          "internalType": "uint8",
          "name": "_tipePermohonanCpotb",
          "type": "uint8"
        }
      ],
      "name": "requestCpotb",
      "outputs": [],
      "stateMutability": "nonpayable",
      "type": "function"
    }
  ],
  "bytecode": "0x608034607057601f614ae138819003918201601f19168301916001600160401b03831184841017607557808492602094604052833981010312607057516001600160a01b03811690819003607057600080546001600160a01b031916919091179055604051614a55908161008c8239f35b600080fd5b634e487b7160e01b600052604160045260246000fdfe6080604052600436101561001257600080fd5b6000803560e01c80631f0fc344146133fc5780632ec00b97146133cb578063387bb30e146125445780634c3ba6fd1461247e5780636aa81299146124145780636d2a362f146114955780636f8e6197146113e7578063711255af146112db57806372c17cb9146112285780637ee90ded146111c05780639dfbae501461097f578063a814a60f1461083a578063cec1fc1e1461079a578063e49d0327146106e5578063e54a29bb146104fb578063ec17658714610407578063f4560f36146101b35763fb705459146100e357600080fd5b346101b05760203660031901126101b0576004356001600160401b0381116101ae57602061011861012b923690600401613c9a565b8160405193828580945193849201613e19565b81016004815203019020805490610141826146be565b9261014f6040519485613c5e565b82845290815260208082209084015b8383106101775760405180610173878261433e565b0390f35b6002602060019260405161018a81613bc1565b61019386613ef4565b815260ff85870154168382015281520192019201919061015e565b505b80fd5b50346101b05760a03660031901126101b0576004356001600160401b0381116101ae576101e4903690600401613c9a565b6024356001600160401b03811161040357610203903690600401613c9a565b6044356001600160a01b038116908190036103ff576064359160ff83168093036103fb576084356001600160401b03811161039e57610246903690600401613c9a565b9133036103b65784546001600160a01b031660048410156103a257803b1561039e57604051637a2b079b60e11b815260a0600482015290869082908183816102ce6102a961029760a484018e613f98565b8381036003190160248501528a613f98565b3360448401526102bc606484018d6143b5565b8281036003190160848401528a613f98565b03925af180156103935761034d575b50610326927fc4209b66ea76b34d427f769a0e648dec4950ef2466411362ef0802c6f1498ad894926103346103479360405196879633885260a0602089015260a0880190613f98565b908682036040880152613f98565b9160608501528382036080850152613f98565b0390a180f35b927fc4209b66ea76b34d427f769a0e648dec4950ef2466411362ef0802c6f1498ad8949261033487610386610347959961032698613c5e565b97935050929450926102dd565b6040513d88823e3d90fd5b8580fd5b634e487b7160e01b86526021600452602486fd5b60405162461bcd60e51b815260206004820152601760248201527f53656e6465722061646472657373206d69736d617463680000000000000000006044820152606490fd5b8480fd5b8380fd5b8280fd5b50346101b057806003193601126101b0576104286104236145e0565b6149b1565b61045960ff60405160208101906431b837ba3160d91b82526005815261044f602582613c5e565b5190209216614709565b918091600554925b83811061047657604051806101738782614277565b81600361049c6104aa61048885614098565b506040519283916020830195869101614547565b03601f198101835282613c5e565b519020146104bb575b600101610461565b916104f36001916104ed6104d76104d187614098565b5061476d565b60ff8316906104e6828b614759565b5288614759565b506147d8565b9290506104b3565b50346101b05760203660031901126101b0576004356001600160a01b03811691908290036101b0576060608060405161053381613c0d565b828152826020820152836040820152838382015201528060018060a01b038154169260246040518095819363e54a29bb60e01b835260048301525afa9081156106d95780916105f3575b610173826040519182916020835260806105bc6105a6835160a0602088015260c0870190613f98565b6020840151868203601f19016040880152613f98565b9160018060a01b0360408201511660608601526105e06060820151838701906143b5565b0151838203601f190160a0850152613f98565b90503d8082843e6106048184613c5e565b8201916020818403126101ae578051906001600160401b03821161040357019060a0828403126101b0576040519161063b83613c0d565b80516001600160401b03811161040357846106579183016147ff565b835260208101516001600160401b03811161040357846106789183016147ff565b602084015260408101516001600160a01b0381168103610403576040840152606081015160048110156104035760608401526080810151916001600160401b0383116101b05750926106ce9161017394016147ff565b60808201523861057d565b604051903d90823e3d90fd5b50346101b05760203660031901126101b0576004356001600160401b0381116101ae57602061011861071b923690600401613c9a565b81016003815203019020805490610731826146be565b9261073f6040519485613c5e565b82845290815260208082209084015b8383106107635760405180610173878261433e565b6002602060019260405161077681613bc1565b61077f86613ef4565b815260ff85870154168382015281520192019201919061074e565b50346101b057806003193601126101b0576107b661042361460f565b6107dc60ff60405160208101906331b237b160e11b82526004815261044f602482613c5e565b918091600554925b8381106107f957604051806101738782614277565b81600361049c61080b61048885614098565b5190201461081c575b6001016107e4565b916108326001916104ed6104d76104d187614098565b929050610814565b50346101b05760203660031901126101b0576004356001600160401b0381116101ae5761086b903690600401613c9a565b6005546020820192909181805b848110610929575060ff61088c9116614709565b93825b8481106108a457604051806101738882614277565b600261049c6108b561048884614098565b51902060405160208101906108e460208288516108d381878b613e19565b81010301601f198101835282613c5e565b519020146108f5575b60010161088f565b926109216001916104ed61090b6104d188614098565b60ff83169061091a828c614759565b5289614759565b9390506108ed565b600261049c61093a61048884614098565b519020604051602081019061095a602082846108d38d8b51928391613e19565b5190201461096b575b600101610878565b906109776001916147d8565b919050610963565b50346101b05761098e36613ce6565b610999929192614841565b60208201906109a88251613e62565b936109b38554613eba565b1561118a57600285019060ff825416600281101561117657611131576040850151916109e7606087019384519033906148f7565b6008880181518051906001600160401b03821161111d578190610a0a8454613eba565b601f81116110ca575b506020908d601f8411600114611067579261105c575b50508160011b916000199060031b1c19161790555b60208101516009890180546001600160a01b0319166001600160a01b0392909216919091179055604001518051600a8901916001600160401b038211610d13578190610a8a8454613eba565b601f811161100c575b50602090601f8311600114610fa9578c92610f9e575b50508160011b916000199060031b1c19161790555b600160ff19825416179055426004870155845160018701908051906001600160401b038211610f8a578190610af38454613eba565b601f8111610f3a575b50602090601f8311600114610ed7578b92610ecc575b50508160011b916000199060031b1c19161790555b600b860181516001600160401b038111610eb857610b458254613eba565b601f8111610e73575b50806020601f8211600114610e12578a91610e07575b508160011b916000199060031b1c19161790555b865b600554811015610d2757610b8d81614098565b50604051610ba38161049c602082018095614547565b5190208551604051610bc5602082816108d38183019687815193849201613e19565b51902014610bd6575b600101610b7a565b85516001610be383614098565b5001908051906001600160401b038211610d1357610c018354613eba565b601f8111610cce575b50602090601f8311600114610c67576001949392918c9183610c5c575b5050600019600383901b1c191690841b1790555b6004610c4682614098565b5001805461ff0019166101001790559050610bce565b015190503880610c27565b838c52818c209190601f1984168d5b818110610cb6575091600196959492918388959310610c9d575b505050811b019055610c3b565b015160001960f88460031b161c19169055388080610c90565b92936020600181928786015181550195019301610c76565b838c5260208c20601f840160051c81019160208510610d09575b601f0160051c01905b818110610cfe5750610c0a565b8c8155600101610cf1565b9091508190610ce8565b634e487b7160e01b8b52604160045260248bfd5b50909250610d6d602060ff610d436007610d7c96989901613ef4565b9660405194610d5186613bc1565b8552169586828501528160405193828580945193849201613e19565b810160048152030190206143da565b51916003821015610df35791610de7610dc9927f8d8f26b533bc5f62a32de1faa67facbf43e75bd50ab3e60343fd421507e8dd639451610dda60405195869560a0875260a0870190613f98565b92336020870152604086019061426a565b8382036060850152613f98565b4260808301520390a180f35b634e487b7160e01b84526021600452602484fd5b905083015138610b64565b838b52808b209150601f1983168b5b818110610e5b57509083600194939210610e42575b5050811b019055610b78565b85015160001960f88460031b161c191690553880610e36565b9192602060018192868a015181550194019201610e21565b828a5260208a20601f830160051c81019160208410610eae575b601f0160051c01905b818110610ea35750610b4e565b8a8155600101610e96565b9091508190610e8d565b634e487b7160e01b89526041600452602489fd5b015190503880610b12565b848c52818c209250601f1984168c5b818110610f225750908460019594939210610f09575b505050811b019055610b27565b015160001960f88460031b161c19169055388080610efc565b92936020600181928786015181550195019301610ee6565b909150838b5260208b20601f840160051c81019160208510610f80575b90601f859493920160051c01905b818110610f725750610afc565b8c8155849350600101610f65565b9091508190610f57565b634e487b7160e01b8a52604160045260248afd5b015190503880610aa9565b848d52818d209250601f1984168d5b818110610ff45750908460019594939210610fdb575b505050811b019055610abe565b015160001960f88460031b161c19169055388080610fce565b92936020600181928786015181550195019301610fb8565b909150838c5260208c20601f840160051c81019160208510611052575b90601f859493920160051c01905b8181106110445750610a93565b8d8155849350600101611037565b9091508190611029565b015190503880610a29565b8581528281209350601f198516905b8181106110b25750908460019594939210611099575b505050811b019055610a3e565b015160001960f88460031b161c1916905538808061108c565b92936020600181928786015181550195019301611076565b909150838d5260208d20601f840160051c81019160208510611113575b849392918f91601f0160051c0191905b828210611105575050610a13565b81558493506001018e6110f7565b90915081906110e7565b634e487b7160e01b8c52604160045260248cfd5b60405162461bcd60e51b815260206004820152601f60248201527f43444f4220737461747573206d757374206265202752657175657374656427006044820152606490fd5b634e487b7160e01b88526021600452602488fd5b60405162461bcd60e51b815260206004820152600e60248201526d10d113d0881b9bdd08199bdd5b9960921b6044820152606490fd5b50346101b05760206111e96111d436613de8565b92908160405193828580945193849201613e19565b810160038152030190208054821015610403576112069250613e88565b5060ff600161121483613ef4565b920154169061017360405192839283613fbd565b50346101b05760203660031901126101b057600435906001600160401b0382116101b0576112b461126160206101183660048701613c9a565b8101600281520301902061127481613ef4565b906101736112d061128760018401613ef4565b926112c260ff600c61129b6002850161415a565b9301541694604051978897608089526080890190613f98565b908782036020890152613f98565b9085820360408701526141f9565b91606084019061426a565b50346101b05760203660031901126101b057600435906001600160401b0382116101b0576113b561133060206113143660048701613c9a565b61131c614692565b508160405193828580945193849201613e19565b810160028152030190206040519061134782613bf2565b61135081613ef4565b82526101736113db61136460018401613ef4565b92602085019384526113c860ff600c61137f6002850161415a565b936040890194855201541694611399606088019687614603565b6040519788976020895251608060208a015260a0890190613f98565b9051878203601f19016040890152613f98565b9051858203601f190160608701526141f9565b9151608084019061426a565b50346101b05760203660031901126101b057600435906001600160401b0382116101b0576113b561142060206113143660048701613c9a565b810160018152030190206040519061143782613bf2565b61144081613ef4565b825261017361148961145460018401613ef4565b92602085019384526113c860ff600c61146f6002850161415a565b9360408901948552015416946113996060880196876145d4565b9151608084019061425d565b50346101b0576114a436613fde565b82546040516395a8c58d60e01b8152336004820152919291906001600160a01b031681604481602093600160248301525afa9081156123f55784916123ba575b5015612386576114fd6114f78251613e62565b54613eba565b612348576020810151611518604083019182519033906148f7565b9161154e60209361154860405161152f8782613c5e565b888152604051906115408883613c5e565b8982526148cf565b90614927565b60ff82519516946003861015611dfd576040519061156b82613bf2565b81526040519161157b8684613c5e565b87835285820192835260408201908152606082019261159a8885614603565b6115a48551613e62565b92518051906001600160401b038211610d135781906115c38654613eba565b601f81116122fa575b508990601f8311600114612297578c9261228c575b50508160011b916000199060031b1c19161783555b51805160018401916001600160401b038211610d135781906116188454613eba565b601f811161223e575b508990601f83116001146121db578c926121d0575b50508160011b916000199060031b1c19161790555b51805160028110156121bc5761166490600284016143c2565b8086015160038301556040810151600483015560608101518051805160058501916001600160401b03821161111d57819061169f8454613eba565b601f811161216b575b508a908d601f841160011461210857926120fd575b50508160011b916000199060031b1c19161790555b808701516006840180546001600160a01b0319166001600160a01b039290921691909117905560400151805160078401916001600160401b038211610d1357819061171d8454613eba565b601f81116120af575b508990601f831160011461204c578c92612041575b50508160011b916000199060031b1c19161790555b60808101518051805160088501916001600160401b03821161111d5781906117788454613eba565b601f8111611ff0575b508a908d601f8411600114611f8d5792611f82575b50508160011b916000199060031b1c19161790555b808701516009840180546001600160a01b0319166001600160a01b0392909216919091179055604001518051600a8401916001600160401b038211610d135781906117f68454613eba565b601f8111611f34575b508990601f8311600114611ed1578c92611ec6575b50508160011b916000199060031b1c19161790555b60a001518051600b8301916001600160401b038211610f8a5761184c8354613eba565b601f8111611e83575b508790601f8311600114611e1c57600c949392918b9183611e11575b50508160011b916000199060031b1c19161790555b0190516003811015611dfd57906118c6929160ff80198354169116179055518483516040516118b58782613c5e565b8881526118c061460f565b93614973565b600554600160401b811015611de9578060016118e7920160055560056140d0565b611dd55781518051906001600160401b038211611dc157819061190a8454613eba565b601f8111611d73575b508690601f8311600114611d10578992611d05575b50508160011b916000199060031b1c19161781555b60018101848301518051906001600160401b038211610eb85781906119628454613eba565b601f8111611cb7575b508790601f8311600114611c54578a92611c49575b50508160011b916000199060031b1c19161790555b6002810160408301518051906001600160401b038211610eb85781906119bb8454613eba565b601f8111611bfb575b508790601f8311600114611b98578a92611b8d575b50508160011b916000199060031b1c19161790555b6003810160608301518051906001600160401b038211610eb857611a128354613eba565b601f8111611b4a575b508690601f8311600114611ae15791806004949260a096948c92611ad6575b50508160011b916000199060031b1c19161790555b019160ff806080830151161660ff1984541617835501519060028210156103a2577f7002576f080ade70048a03ad81b929b78c8b7e148fd11f40f286a8b6900e6f9b9492611aa4611aba9593611aca936145b5565b5192604051948594608086526080860190613f98565b923390850152604084019061426a565b4260608301520390a180f35b015190503880611a3a565b838a52878a209190601f1984168b5b8a828210611b3457505092600192859260a098966004989610611b1b575b505050811b019055611a4f565b015160001960f88460031b161c19169055388080611b0e565b6001859682939686015181550195019301611af0565b838a52878a20601f840160051c810191898510611b83575b601f0160051c01905b818110611b785750611a1b565b8a8155600101611b6b565b9091508190611b62565b0151905038806119d9565b848b52888b209250601f1984168b5b8a828210611be5575050908460019594939210611bcc575b505050811b0190556119ee565b015160001960f88460031b161c19169055388080611bbf565b6001859682939686015181550195019301611ba7565b909150838a52878a20601f840160051c810191898510611c3f575b90601f859493920160051c01905b818110611c3157506119c4565b8b8155849350600101611c24565b9091508190611c16565b015190503880611980565b848b52888b209250601f1984168b5b8a828210611ca1575050908460019594939210611c88575b505050811b019055611995565b015160001960f88460031b161c19169055388080611c7b565b6001859682939686015181550195019301611c63565b909150838a52878a20601f840160051c810191898510611cfb575b90601f859493920160051c01905b818110611ced575061196b565b8b8155849350600101611ce0565b9091508190611cd2565b015190503880611928565b848a52878a209250601f1984168a5b89828210611d5d575050908460019594939210611d44575b505050811b01815561193d565b015160001960f88460031b161c19169055388080611d37565b6001859682939686015181550195019301611d1f565b909150838952868920601f840160051c810191888510611db7575b90601f859493920160051c01905b818110611da95750611913565b8a8155849350600101611d9c565b9091508190611d8e565b634e487b7160e01b88526041600452602488fd5b634e487b7160e01b86526004869052602486fd5b634e487b7160e01b86526041600452602486fd5b634e487b7160e01b87526021600452602487fd5b015190503880611871565b838b52888b209190601f1984168c5b8b828210611e6d575050916001939185600c9897969410611e54575b505050811b019055611886565b015160001960f88460031b161c19169055388080611e47565b6001859682939686015181550195019301611e2b565b838b52888b20601f840160051c8101918a8510611ebc575b601f0160051c01905b818110611eb15750611855565b8b8155600101611ea4565b9091508190611e9b565b015190503880611814565b848d528a8d209250601f1984168d5b8c828210611f1e575050908460019594939210611f05575b505050811b019055611829565b015160001960f88460031b161c19169055388080611ef8565b6001859682939686015181550195019301611ee0565b909150838c52898c20601f840160051c8101918b8510611f78575b90601f859493920160051c01905b818110611f6a57506117ff565b8d8155849350600101611f5d565b9091508190611f4f565b015190503880611796565b8581528c81209350601f198516905b8d828210611fda575050908460019594939210611fc1575b505050811b0190556117ab565b015160001960f88460031b161c19169055388080611fb4565b6001859682939686015181550195019301611f9c565b909150838d528a8d20601f840160051c8101918c8510612037575b849392918f91601f0160051c0191905b828210612029575050611781565b81558493506001018e61201b565b909150819061200b565b01519050388061173b565b848d528a8d209250601f1984168d5b8c828210612099575050908460019594939210612080575b505050811b019055611750565b015160001960f88460031b161c19169055388080612073565b600185968293968601518155019501930161205b565b909150838c52898c20601f840160051c8101918b85106120f3575b90601f859493920160051c01905b8181106120e55750611726565b8d81558493506001016120d8565b90915081906120ca565b0151905038806116bd565b8581528c81209350601f198516905b8d82821061215557505090846001959493921061213c575b505050811b0190556116d2565b015160001960f88460031b161c1916905538808061212f565b6001859682939686015181550195019301612117565b909150838d528a8d20601f840160051c8101918c85106121b2575b849392918f91601f0160051c0191905b8282106121a45750506116a8565b81558493506001018e612196565b9091508190612186565b634e487b7160e01b89526021600452602489fd5b015190503880611636565b848d528a8d209250601f1984168d5b8c82821061222857505090846001959493921061220f575b505050811b01905561164b565b015160001960f88460031b161c19169055388080612202565b60018596829396860151815501950193016121ea565b909150838c52898c20601f840160051c8101918b8510612282575b90601f859493920160051c01905b8181106122745750611621565b8d8155849350600101612267565b9091508190612259565b0151905038806115e1565b868d528a8d209250601f1984168d5b8c8282106122e45750509084600195949392106122cb575b505050811b0183556115f6565b015160001960f88460031b161c191690553880806122be565b60018596829396860151815501950193016122a6565b909150858c52898c20601f840160051c8101918b851061233e575b90601f859493920160051c01905b81811061233057506115cc565b8d8155849350600101612323565b9091508190612315565b60405162461bcd60e51b815260206004820152601660248201527543444f4220494420616c72656164792065786973747360501b6044820152606490fd5b60405162461bcd60e51b815260206004820152600c60248201526b155b985d5d1a1bdc9a5e995960a21b6044820152606490fd5b90506020813d6020116123ed575b816123d560209383613c5e565b810103126103ff575180151581036103ff57386114e4565b3d91506123c8565b6040513d86823e3d90fd5b634e487b7160e01b85526021600452602485fd5b50346101b05760203660031901126101b057600435906001600160401b0382116101b0576112b461244d60206101183660048701613c9a565b8101600181520301902061246081613ef4565b9061017361247361128760018401613ef4565b91606084019061425d565b50346101b05760203660031901126101b057600435906005548210156101b0576125006124aa83614098565b506124b481613ef4565b9061017361252a6124c760018401613ef4565b9261251c6124d760028301613ef4565b61250e60046124e860038601613ef4565b94015496604051998a9960c08b5260c08b0190613f98565b9089820360208b0152613f98565b908782036040890152613f98565b908582036060870152613f98565b9160ff8116608085015260ff60a085019160081c166140ec565b50346101b05761255336613fde565b9060018060a01b03835416604051906395a8c58d60e01b8252336004830152600485101561240057816044816020938860248301525afa9081156123f5578491613390575b5015612386576125ab6114f78251613e3c565b61334b5760208101516125c6604083019182519033906148f7565b916125dd60209361154860405161152f8782613c5e565b60ff82519516946009861015611dfd57604051906125fa82613bf2565b81526040519161260a8684613c5e565b87835285820192835260408201908152606082019261262988856145d4565b6126338551613e3c565b92518051906001600160401b038211610d135781906126528654613eba565b601f81116132fd575b508990601f831160011461329a578c9261328f575b50508160011b916000199060031b1c19161783555b51805160018401916001600160401b038211610d135781906126a78454613eba565b601f8111613241575b508990601f83116001146131de578c926131d3575b50508160011b916000199060031b1c19161790555b51805160028110156121bc576126f390600284016143c2565b8086015160038301556040810151600483015560608101518051805160058501916001600160401b03821161111d57819061272e8454613eba565b601f8111613182575b508a908d601f841160011461311f5792613114575b50508160011b916000199060031b1c19161790555b808701516006840180546001600160a01b0319166001600160a01b039290921691909117905560400151805160078401916001600160401b038211610d135781906127ac8454613eba565b601f81116130c6575b508990601f8311600114613063578c92613058575b50508160011b916000199060031b1c19161790555b60808101518051805160088501916001600160401b03821161111d5781906128078454613eba565b601f8111613007575b508a908d601f8411600114612fa45792612f99575b50508160011b916000199060031b1c19161790555b808701516009840180546001600160a01b0319166001600160a01b0392909216919091179055604001518051600a8401916001600160401b038211610d135781906128858454613eba565b601f8111612f4b575b508990601f8311600114612ee8578c92612edd575b50508160011b916000199060031b1c19161790555b60a001518051600b8301916001600160401b038211610f8a576128db8354613eba565b601f8111612e9a575b508790601f8311600114612e3357600c949392918b9183612e28575b50508160011b916000199060031b1c19161790555b0190516009811015611dfd579061294f929160ff80198354169116179055518483516040516129448782613c5e565b8881526118c06145e0565b600554600160401b811015611de957806001612970920160055560056140d0565b611dd55781518051906001600160401b038211611dc15781906129938454613eba565b601f8111612dda575b508690601f8311600114612d77578992612d6c575b50508160011b916000199060031b1c19161781555b60018101848301518051906001600160401b038211610eb85781906129eb8454613eba565b601f8111612d1e575b508790601f8311600114612cbb578a92612cb0575b50508160011b916000199060031b1c19161790555b6002810160408301518051906001600160401b038211610eb8578190612a448454613eba565b601f8111612c62575b508790601f8311600114612bff578a92612bf4575b50508160011b916000199060031b1c19161790555b6003810160608301518051906001600160401b038211610eb857612a9b8354613eba565b601f8111612bb1575b508690601f8311600114612b485791806004949260a096948c92612b3d575b50508160011b916000199060031b1c19161790555b019160ff806080830151161660ff1984541617835501519060028210156103a2577f99dcabd81899d5894d4391d9586c557b10a0d34a881adfc4769ad41e9166cda09492611aa4612b2d9593611aca936145b5565b923390850152604084019061425d565b015190503880612ac3565b838a52878a209190601f1984168b5b8a828210612b9b57505092600192859260a098966004989610612b82575b505050811b019055612ad8565b015160001960f88460031b161c19169055388080612b75565b6001859682939686015181550195019301612b57565b838a52878a20601f840160051c810191898510612bea575b601f0160051c01905b818110612bdf5750612aa4565b8a8155600101612bd2565b9091508190612bc9565b015190503880612a62565b848b52888b209250601f1984168b5b8a828210612c4c575050908460019594939210612c33575b505050811b019055612a77565b015160001960f88460031b161c19169055388080612c26565b6001859682939686015181550195019301612c0e565b909150838a52878a20601f840160051c810191898510612ca6575b90601f859493920160051c01905b818110612c985750612a4d565b8b8155849350600101612c8b565b9091508190612c7d565b015190503880612a09565b848b52888b209250601f1984168b5b8a828210612d08575050908460019594939210612cef575b505050811b019055612a1e565b015160001960f88460031b161c19169055388080612ce2565b6001859682939686015181550195019301612cca565b909150838a52878a20601f840160051c810191898510612d62575b90601f859493920160051c01905b818110612d5457506129f4565b8b8155849350600101612d47565b9091508190612d39565b0151905038806129b1565b848a52878a209250601f1984168a5b89828210612dc4575050908460019594939210612dab575b505050811b0181556129c6565b015160001960f88460031b161c19169055388080612d9e565b6001859682939686015181550195019301612d86565b909150838952868920601f840160051c810191888510612e1e575b90601f859493920160051c01905b818110612e10575061299c565b8a8155849350600101612e03565b9091508190612df5565b015190503880612900565b838b52888b209190601f1984168c5b8b828210612e84575050916001939185600c9897969410612e6b575b505050811b019055612915565b015160001960f88460031b161c19169055388080612e5e565b6001859682939686015181550195019301612e42565b838b52888b20601f840160051c8101918a8510612ed3575b601f0160051c01905b818110612ec857506128e4565b8b8155600101612ebb565b9091508190612eb2565b0151905038806128a3565b848d528a8d209250601f1984168d5b8c828210612f35575050908460019594939210612f1c575b505050811b0190556128b8565b015160001960f88460031b161c19169055388080612f0f565b6001859682939686015181550195019301612ef7565b909150838c52898c20601f840160051c8101918b8510612f8f575b90601f859493920160051c01905b818110612f81575061288e565b8d8155849350600101612f74565b9091508190612f66565b015190503880612825565b8581528c81209350601f198516905b8d828210612ff1575050908460019594939210612fd8575b505050811b01905561283a565b015160001960f88460031b161c19169055388080612fcb565b6001859682939686015181550195019301612fb3565b909150838d528a8d20601f840160051c8101918c851061304e575b849392918f91601f0160051c0191905b828210613040575050612810565b81558493506001018e613032565b9091508190613022565b0151905038806127ca565b848d528a8d209250601f1984168d5b8c8282106130b0575050908460019594939210613097575b505050811b0190556127df565b015160001960f88460031b161c1916905538808061308a565b6001859682939686015181550195019301613072565b909150838c52898c20601f840160051c8101918b851061310a575b90601f859493920160051c01905b8181106130fc57506127b5565b8d81558493506001016130ef565b90915081906130e1565b01519050388061274c565b8581528c81209350601f198516905b8d82821061316c575050908460019594939210613153575b505050811b019055612761565b015160001960f88460031b161c19169055388080613146565b600185968293968601518155019501930161312e565b909150838d528a8d20601f840160051c8101918c85106131c9575b849392918f91601f0160051c0191905b8282106131bb575050612737565b81558493506001018e6131ad565b909150819061319d565b0151905038806126c5565b848d528a8d209250601f1984168d5b8c82821061322b575050908460019594939210613212575b505050811b0190556126da565b015160001960f88460031b161c19169055388080613205565b60018596829396860151815501950193016131ed565b909150838c52898c20601f840160051c8101918b8510613285575b90601f859493920160051c01905b81811061327757506126b0565b8d815584935060010161326a565b909150819061325c565b015190503880612670565b868d528a8d209250601f1984168d5b8c8282106132e75750509084600195949392106132ce575b505050811b018355612685565b015160001960f88460031b161c191690553880806132c1565b60018596829396860151815501950193016132a9565b909150858c52898c20601f840160051c8101918b8510613341575b90601f859493920160051c01905b818110613333575061265b565b8d8155849350600101613326565b9091508190613318565b60405162461bcd60e51b815260206004820152601760248201527f43504f544220494420616c7265616479206578697374730000000000000000006044820152606490fd5b90506020813d6020116133c3575b816133ab60209383613c5e565b810103126103ff575180151581036103ff5738612598565b3d915061339e565b50346101b05760206133df6111d436613de8565b810160048152030190208054821015610403576112069250613e88565b50346101b05761340b36613ce6565b613416929192614841565b60208201906134258251613e3c565b936134308554613eba565b15613b8a57600285019460ff865416600281101561117657613b4657604085015195613464606087019788519033906148f7565b6008830181518051906001600160401b03821161111d5781906134878454613eba565b601f8111613af3575b506020908d601f8411600114613a905792613a85575b50508160011b916000199060031b1c19161790555b60208101516009840180546001600160a01b0319166001600160a01b0392909216919091179055604001518051600a8401916001600160401b038211610d135781906135078454613eba565b601f8111613a35575b50602090601f83116001146139d2578c926139c7575b50508160011b916000199060031b1c19161790555b600160ff19825416179055426004820155845160018201908051906001600160401b038211610f8a5781906135708454613eba565b601f8111613977575b50602090601f8311600114613914578b92613909575b50508160011b916000199060031b1c19161790555b600b810182516001600160401b038111610eb8576135c28254613eba565b601f81116138c4575b50602089601f8311600114613851576007613649969561363a958560209660ff966136109691613846575b508160011b916000199060031b1c19161790555b01613ef4565b956040519461361e86613bc1565b8552169485828501528160405193828580945193849201613e19565b810160038152030190206143da565b845b6005548110156137e45761365e81614098565b506040516136748161049c602082018095614547565b5190208351604051613696602082816108d38183019687815193849201613e19565b519020146136a7575b60010161364b565b835160016136b483614098565b5001908051906001600160401b038211610eb8576136d28354613eba565b601f811161379f575b50602090601f8311600114613738576001949392918a918361372d575b5050600019600383901b1c191690841b1790555b600461371782614098565b5001805461ff001916610100179055905061369f565b0151905038806136f8565b838a52818a209190601f1984168b5b81811061378757509160019695949291838895931061376e575b505050811b01905561370c565b015160001960f88460031b161c19169055388080613761565b92936020600181928786015181550195019301613747565b838a5260208a20601f840160051c810191602085106137da575b601f0160051c01905b8181106137cf57506136db565b8a81556001016137c2565b90915081906137b9565b8584838751916009821015610df35791610de7613835927f5f0795f9828e754b342c66dc560f8879d7982ca16fbeb97634e54f75bd39bfd79451610dda60405195869560a0875260a0870190613f98565b92336020870152604086019061425d565b9050890151386135f6565b50828a52808a2090601f1983168b5b8181106138ac5750613649969561363a9560018660ff966136109660209960079710613893575b5050811b01905561360a565b8b015160001960f88460031b161c191690553880613887565b9192602060018192868b015181550194019201613860565b828a5260208a20601f830160051c810191602084106138ff575b601f0160051c01905b8181106138f457506135cb565b8a81556001016138e7565b90915081906138de565b01519050388061358f565b848c52818c209250601f1984168c5b81811061395f5750908460019594939210613946575b505050811b0190556135a4565b015160001960f88460031b161c19169055388080613939565b92936020600181928786015181550195019301613923565b909150838b5260208b20601f840160051c810191602085106139bd575b90601f859493920160051c01905b8181106139af5750613579565b8c81558493506001016139a2565b9091508190613994565b015190503880613526565b848d52818d209250601f1984168d5b818110613a1d5750908460019594939210613a04575b505050811b01905561353b565b015160001960f88460031b161c191690553880806139f7565b929360206001819287860151815501950193016139e1565b909150838c5260208c20601f840160051c81019160208510613a7b575b90601f859493920160051c01905b818110613a6d5750613510565b8d8155849350600101613a60565b9091508190613a52565b0151905038806134a6565b8581528281209350601f198516905b818110613adb5750908460019594939210613ac2575b505050811b0190556134bb565b015160001960f88460031b161c19169055388080613ab5565b92936020600181928786015181550195019301613a9f565b909150838d5260208d20601f840160051c81019160208510613b3c575b849392918f91601f0160051c0191905b828210613b2e575050613490565b81558493506001018e613b20565b9091508190613b10565b606460405162461bcd60e51b815260206004820152602060248201527f43504f544220737461747573206d7573742062652027526571756573746564276044820152fd5b60405162461bcd60e51b815260206004820152600f60248201526e10d413d510881b9bdd08199bdd5b99608a1b6044820152606490fd5b604081019081106001600160401b03821117613bdc57604052565b634e487b7160e01b600052604160045260246000fd5b608081019081106001600160401b03821117613bdc57604052565b60a081019081106001600160401b03821117613bdc57604052565b606081019081106001600160401b03821117613bdc57604052565b60c081019081106001600160401b03821117613bdc57604052565b90601f801991011681019081106001600160401b03821117613bdc57604052565b6001600160401b038111613bdc57601f01601f191660200190565b81601f82011215613ce157803590613cb182613c7f565b92613cbf6040519485613c5e565b82845260208383010111613ce157816000926020809301838601378301015290565b600080fd5b906060600319830112613ce1576004356001600160401b038111613ce15760808184036003190112613ce15760405190613d1f82613bf2565b80600401356001600160401b038111613ce157846004613d4192840101613c9a565b825260248101356001600160401b038111613ce157846004613d6592840101613c9a565b602083015260448101356001600160401b038111613ce157846004613d8c92840101613c9a565b604083015260648101356001600160401b038111613ce15760048591613db3930101613c9a565b606082015291602435906001600160401b038211613ce157613dd791600401613c9a565b9060443560ff81168103613ce15790565b6040600319820112613ce157600435906001600160401b038211613ce157613e1291600401613c9a565b9060243590565b60005b838110613e2c5750506000910152565b8181015183820152602001613e1c565b6020613e55918160405193828580945193849201613e19565b8101600181520301902090565b6020613e7b918160405193828580945193849201613e19565b8101600281520301902090565b8054821015613ea45760005260206000209060011b0190600090565b634e487b7160e01b600052603260045260246000fd5b90600182811c92168015613eea575b6020831014613ed457565b634e487b7160e01b600052602260045260246000fd5b91607f1691613ec9565b9060405191826000825492613f0884613eba565b8084529360018116908115613f765750600114613f2f575b50613f2d92500383613c5e565b565b90506000929192526020600020906000915b818310613f5a575050906020613f2d9282010138613f20565b6020919350806001915483858901015201910190918492613f41565b905060209250613f2d94915060ff191682840152151560051b82010138613f20565b90602091613fb181518092818552858086019101613e19565b601f01601f1916010190565b9060ff613fd7602092959495604085526040850190613f98565b9416910152565b6040600319820112613ce1576004356001600160401b038111613ce15760608183036003190112613ce1576040519161401683613c28565b81600401356001600160401b038111613ce15781600461403892850101613c9a565b835260248201356001600160401b038111613ce15781600461405c92850101613c9a565b60208401526044820135916001600160401b038311613ce1576140829201600401613c9a565b60408201529060243560ff81168103613ce15790565b600554811015613ea4576005600081815291027f036b6384b5eca791c62761152d0c79bb0604c104a5fb6f4eb0703f3154bb3db00191565b8054821015613ea4576000526005602060002091020190600090565b9060028210156140f95752565b634e487b7160e01b600052602160045260246000fd5b60028210156140f95752565b9060405161412881613c28565b60406141556002839561413a81613ef4565b855260018101546001600160a01b0316602086015201613ef4565b910152565b9060405161416781613c43565b60a06141556009839561417e60ff8254168661410f565b600181015460208601526002810154604086015261419e6003820161411b565b60608601526141af6006820161411b565b608086015201613ef4565b6141f69160406141d38351606084526060840190613f98565b9260018060a01b0360208201511660208401520151906040818403910152613f98565b90565b6141f6916142088183516140ec565b602082015160208201526040820151604082015260a061424c61423a606085015160c0606086015260c08501906141ba565b608085015184820360808601526141ba565b9201519060a0818403910152613f98565b9060098210156140f95752565b9060038210156140f95752565b602081016020825282518091526040820191602060408360051b8301019401926000915b8383106142aa57505050505090565b9091929394602080600192603f1985820301865261432f89519160a0806143176143056142f36142e3885160c0885260c0880190613f98565b898901518782038b890152613f98565b60408801518682036040880152613f98565b60608701518582036060870152613f98565b9460ff608082015116608085015201519101906140ec565b9701930193019193929061429b565b602081016020825282518091526040820191602060408360051b8301019401926000915b83831061437157505050505090565b9091929394602080600192603f198582030186528851908260ff8161439f8551604086526040860190613f98565b9401511691015297019301930191939290614362565b9060048210156140f95752565b9060028110156140f95760ff80198354169116179055565b9190918054600160401b811015613bdc576143fa91600182018155613e88565b6145315782519283516001600160401b038111613bdc5761441b8354613eba565b601f81116144e9575b506020601f821160011461447a576001928260ff95969793602093879560009261446f575b5050600019600383901b1c191690851b1786555b0151169201911660ff19825416179055565b015190503880614449565b601f1982169584600052816000209660005b8181106144d157508360ff9697986020946001979489978995106144b8575b505050811b01865561445d565b015160001960f88460031b161c191690553880806144ab565b8383015189556001909801976020938401930161448c565b836000526020600020601f830160051c81019160208410614527575b601f0160051c01905b81811061451b5750614424565b6000815560010161450e565b9091508190614505565b634e487b7160e01b600052600060045260246000fd5b6000929181549161455783613eba565b92600181169081156145a2575060011461457057505050565b909192935060005260206000206000905b83821061458e5750500190565b600181602092548486015201910190614581565b60ff191683525050811515909102019150565b9060028110156140f95761ff0082549160081b169061ff001916179055565b60098210156140f95752565b604051906145ef604083613c5e565b600582526431b837ba3160d91b6020830152565b60038210156140f95752565b6040519061461e604083613c5e565b600482526331b237b160e11b6020830152565b6040519061463e82613c28565b6060604083828152600060208201520152565b6040519061465e82613c43565b606060a08360008152600060208201526000604082015261467d614631565b83820152614689614631565b60808201520152565b6040519061469f82613bf2565b60006060838181528160208201526146b5614651565b60408201520152565b6001600160401b038111613bdc5760051b60200190565b604051906146e282613c43565b600060a0836060815260606020820152606060408201526060808201528260808201520152565b90614713826146be565b6147206040519182613c5e565b8281528092614731601f19916146be565b019060005b82811061474257505050565b60209061474d6146d5565b82828501015201614736565b8051821015613ea45760209160051b010190565b90613f2d60405161477d81613c43565b60a060ff6004839661478e81613ef4565b855261479c60018201613ef4565b60208601526147ad60028201613ef4565b60408601526147be60038201613ef4565b60608601520154818116608085015260081c16910161410f565b60ff1660ff81146147e95760010190565b634e487b7160e01b600052601160045260246000fd5b81601f82011215613ce157805161481581613c7f565b926148236040519485613c5e565b81845260208284010111613ce1576141f69160208085019101613e19565b6000546040516395a8c58d60e01b8152336004820152906001600160a01b031681604481602093600260248301525afa9081156148c357600091614888575b501561238657565b6020813d6020116148bb575b816148a160209383613c5e565b810103126101ae57519081151582036101b0575038614880565b3d9150614894565b6040513d6000823e3d90fd5b906148d8614631565b50604051916148e683613c28565b825260006020830152604082015290565b9190614901614631565b506040519261490f84613c28565b83526001600160a01b03166020830152604082015290565b90614930614651565b506040519161493e83613c43565b600083524260208401526000604084015260608301526080820152604051614967602082613c5e565b6000815260a082015290565b93909160ff93926149826146d5565b506040519561499087613c43565b8652602086015260408501526060840152166080820152600060a082015290565b6000906040516149d1602082816108d38183019687815193849201613e19565b5190206005549060005b8281106149e85750505090565b81600361049c6149fa61048885614098565b51902014614a0b575b6001016149db565b92614a176001916147d8565b939050614a0356fea26469706673582212204494c5ffe98e1fe74c1dceafba196ecbb91e7788c7a895b5571dabb9e1d87a9f64736f6c634300081b0033",
  "linkReferences": {},
  "deployedLinkReferences": {}
}