{
  "_format": "hh-sol-artifact-1",
  "contractName": "MainSupplyChain",
  "sourceName": "contracts/MainSupplyChain.sol",
  "abi": [
    {
      "inputs": [
        {
          "internalType": "address",
          "name": "_roleManagerAddr",
          "type": "address"
        }
      ],
      "stateMutability": "nonpayable",
      "type": "constructor"
    },
    {
      "anonymous": false,
      "inputs": [
        {
          "indexed": false,
          "internalType": "address",
          "name": "userAddr",
          "type": "address"
        },
        {
          "indexed": false,
          "internalType": "string",
          "name": "name",
          "type": "string"
        },
        {
          "indexed": false,
          "internalType": "string",
          "name": "instanceName",
          "type": "string"
        },
        {
          "indexed": false,
          "internalType": "uint8",
          "name": "role",
          "type": "uint8"
        }
      ],
      "name": "evt_UserRegistered",
      "type": "event"
    },
    {
      "anonymous": false,
      "inputs": [
        {
          "indexed": false,
          "internalType": "address",
          "name": "bpomAddr",
          "type": "address"
        },
        {
          "indexed": false,
          "internalType": "string",
          "name": "receiverName",
          "type": "string"
        },
        {
          "indexed": false,
          "internalType": "string",
          "name": "pbfName",
          "type": "string"
        },
        {
          "indexed": false,
          "internalType": "string",
          "name": "cdobNumber",
          "type": "string"
        },
        {
          "indexed": false,
          "internalType": "uint256",
          "name": "timestampApprove",
          "type": "uint256"
        }
      ],
      "name": "evt_cdobApptoved",
      "type": "event"
    },
    {
      "anonymous": false,
      "inputs": [
        {
          "indexed": false,
          "internalType": "string",
          "name": "senderName",
          "type": "string"
        },
        {
          "indexed": false,
          "internalType": "address",
          "name": "pbfAddr",
          "type": "address"
        },
        {
          "indexed": false,
          "internalType": "string",
          "name": "pbfName",
          "type": "string"
        },
        {
          "indexed": false,
          "internalType": "enum MainSupplyChain.en_tipePermohonan",
          "name": "tipePermohonan",
          "type": "uint8"
        },
        {
          "indexed": false,
          "internalType": "string",
          "name": "cdobId",
          "type": "string"
        },
        {
          "indexed": false,
          "internalType": "uint256",
          "name": "timestampRequest",
          "type": "uint256"
        }
      ],
      "name": "evt_cdobRequested",
      "type": "event"
    },
    {
      "anonymous": false,
      "inputs": [
        {
          "indexed": false,
          "internalType": "address",
          "name": "bpomAddr",
          "type": "address"
        },
        {
          "indexed": false,
          "internalType": "string",
          "name": "receiverName",
          "type": "string"
        },
        {
          "indexed": false,
          "internalType": "string",
          "name": "factoryName",
          "type": "string"
        },
        {
          "indexed": false,
          "internalType": "string",
          "name": "cpotbNumber",
          "type": "string"
        },
        {
          "indexed": false,
          "internalType": "uint256",
          "name": "timestampApprove",
          "type": "uint256"
        }
      ],
      "name": "evt_cpotbApproved",
      "type": "event"
    },
    {
      "anonymous": false,
      "inputs": [
        {
          "indexed": false,
          "internalType": "string",
          "name": "senderName",
          "type": "string"
        },
        {
          "indexed": false,
          "internalType": "address",
          "name": "factoryAddr",
          "type": "address"
        },
        {
          "indexed": false,
          "internalType": "string",
          "name": "factoryName",
          "type": "string"
        },
        {
          "indexed": false,
          "internalType": "enum MainSupplyChain.en_jenisSediaan",
          "name": "jenisSediaan",
          "type": "uint8"
        },
        {
          "indexed": false,
          "internalType": "string",
          "name": "cpotbId",
          "type": "string"
        },
        {
          "indexed": false,
          "internalType": "uint256",
          "name": "timestampRequest",
          "type": "uint256"
        }
      ],
      "name": "evt_cpotbRequested",
      "type": "event"
    },
    {
      "inputs": [
        {
          "internalType": "uint256",
          "name": "",
          "type": "uint256"
        }
      ],
      "name": "allCdobData",
      "outputs": [
        {
          "internalType": "string",
          "name": "cdobId",
          "type": "string"
        },
        {
          "internalType": "string",
          "name": "senderName",
          "type": "string"
        },
        {
          "internalType": "address",
          "name": "pbfAddr",
          "type": "address"
        },
        {
          "internalType": "string",
          "name": "pbfName",
          "type": "string"
        },
        {
          "internalType": "enum MainSupplyChain.en_tipePermohonan",
          "name": "tipePermohonan",
          "type": "uint8"
        },
        {
          "internalType": "enum MainSupplyChain.en_statusCert",
          "name": "status",
          "type": "uint8"
        },
        {
          "internalType": "uint256",
          "name": "timestampRequest",
          "type": "uint256"
        },
        {
          "internalType": "uint256",
          "name": "timestampApprove",
          "type": "uint256"
        },
        {
          "internalType": "string",
          "name": "cdobNumber",
          "type": "string"
        },
        {
          "internalType": "address",
          "name": "bpomAddr",
          "type": "address"
        },
        {
          "internalType": "string",
          "name": "receiverName",
          "type": "string"
        }
      ],
      "stateMutability": "view",
      "type": "function"
    },
    {
      "inputs": [
        {
          "internalType": "uint256",
          "name": "",
          "type": "uint256"
        }
      ],
      "name": "allCpotbData",
      "outputs": [
        {
          "internalType": "string",
          "name": "cpotbId",
          "type": "string"
        },
        {
          "internalType": "string",
          "name": "senderName",
          "type": "string"
        },
        {
          "internalType": "address",
          "name": "factoryAddr",
          "type": "address"
        },
        {
          "internalType": "string",
          "name": "factoryName",
          "type": "string"
        },
        {
          "internalType": "enum MainSupplyChain.en_jenisSediaan",
          "name": "jenisSediaan",
          "type": "uint8"
        },
        {
          "internalType": "enum MainSupplyChain.en_statusCert",
          "name": "status",
          "type": "uint8"
        },
        {
          "internalType": "uint256",
          "name": "timestampRequest",
          "type": "uint256"
        },
        {
          "internalType": "uint256",
          "name": "timestampApprove",
          "type": "uint256"
        },
        {
          "internalType": "string",
          "name": "cpotbNumber",
          "type": "string"
        },
        {
          "internalType": "address",
          "name": "bpomAddr",
          "type": "address"
        },
        {
          "internalType": "string",
          "name": "receiverName",
          "type": "string"
        }
      ],
      "stateMutability": "view",
      "type": "function"
    },
    {
      "inputs": [
        {
          "internalType": "string",
          "name": "_cdobId",
          "type": "string"
        },
        {
          "internalType": "string",
          "name": "_cdobNumber",
          "type": "string"
        },
        {
          "internalType": "string",
          "name": "_receiverName",
          "type": "string"
        }
      ],
      "name": "approveCdob",
      "outputs": [],
      "stateMutability": "nonpayable",
      "type": "function"
    },
    {
      "inputs": [
        {
          "internalType": "string",
          "name": "_cpotbId",
          "type": "string"
        },
        {
          "internalType": "string",
          "name": "_cpotbNumber",
          "type": "string"
        },
        {
          "internalType": "string",
          "name": "_receiverName",
          "type": "string"
        }
      ],
      "name": "approveCpotb",
      "outputs": [],
      "stateMutability": "nonpayable",
      "type": "function"
    },
    {
      "inputs": [
        {
          "internalType": "string",
          "name": "",
          "type": "string"
        }
      ],
      "name": "cpotbDataById",
      "outputs": [
        {
          "internalType": "string",
          "name": "cpotbId",
          "type": "string"
        },
        {
          "internalType": "string",
          "name": "senderName",
          "type": "string"
        },
        {
          "internalType": "address",
          "name": "factoryAddr",
          "type": "address"
        },
        {
          "internalType": "string",
          "name": "factoryName",
          "type": "string"
        },
        {
          "internalType": "enum MainSupplyChain.en_jenisSediaan",
          "name": "jenisSediaan",
          "type": "uint8"
        },
        {
          "internalType": "enum MainSupplyChain.en_statusCert",
          "name": "status",
          "type": "uint8"
        },
        {
          "internalType": "uint256",
          "name": "timestampRequest",
          "type": "uint256"
        },
        {
          "internalType": "uint256",
          "name": "timestampApprove",
          "type": "uint256"
        },
        {
          "internalType": "string",
          "name": "cpotbNumber",
          "type": "string"
        },
        {
          "internalType": "address",
          "name": "bpomAddr",
          "type": "address"
        },
        {
          "internalType": "string",
          "name": "receiverName",
          "type": "string"
        }
      ],
      "stateMutability": "view",
      "type": "function"
    },
    {
      "inputs": [],
      "name": "getListAllCdob",
      "outputs": [
        {
          "internalType": "uint8[]",
          "name": "",
          "type": "uint8[]"
        },
        {
          "internalType": "string[]",
          "name": "",
          "type": "string[]"
        },
        {
          "internalType": "uint8[]",
          "name": "",
          "type": "uint8[]"
        },
        {
          "internalType": "uint256[]",
          "name": "",
          "type": "uint256[]"
        },
        {
          "internalType": "string[]",
          "name": "",
          "type": "string[]"
        }
      ],
      "stateMutability": "view",
      "type": "function"
    },
    {
      "inputs": [],
      "name": "getListAllCpotb",
      "outputs": [
        {
          "internalType": "uint8[]",
          "name": "",
          "type": "uint8[]"
        },
        {
          "internalType": "string[]",
          "name": "",
          "type": "string[]"
        },
        {
          "internalType": "uint8[]",
          "name": "",
          "type": "uint8[]"
        },
        {
          "internalType": "uint256[]",
          "name": "",
          "type": "uint256[]"
        },
        {
          "internalType": "string[]",
          "name": "",
          "type": "string[]"
        }
      ],
      "stateMutability": "view",
      "type": "function"
    },
    {
      "inputs": [
        {
          "internalType": "string",
          "name": "_cdobId",
          "type": "string"
        }
      ],
      "name": "getListCdobById",
      "outputs": [
        {
          "components": [
            {
              "internalType": "string",
              "name": "cdobId",
              "type": "string"
            },
            {
              "internalType": "string",
              "name": "senderName",
              "type": "string"
            },
            {
              "internalType": "address",
              "name": "pbfAddr",
              "type": "address"
            },
            {
              "internalType": "string",
              "name": "pbfName",
              "type": "string"
            },
            {
              "internalType": "enum MainSupplyChain.en_tipePermohonan",
              "name": "tipePermohonan",
              "type": "uint8"
            },
            {
              "internalType": "enum MainSupplyChain.en_statusCert",
              "name": "status",
              "type": "uint8"
            },
            {
              "internalType": "uint256",
              "name": "timestampRequest",
              "type": "uint256"
            },
            {
              "internalType": "uint256",
              "name": "timestampApprove",
              "type": "uint256"
            },
            {
              "internalType": "string",
              "name": "cdobNumber",
              "type": "string"
            },
            {
              "internalType": "address",
              "name": "bpomAddr",
              "type": "address"
            },
            {
              "internalType": "string",
              "name": "receiverName",
              "type": "string"
            }
          ],
          "internalType": "struct MainSupplyChain.st_cdobData",
          "name": "",
          "type": "tuple"
        }
      ],
      "stateMutability": "view",
      "type": "function"
    },
    {
      "inputs": [
        {
          "internalType": "string",
          "name": "_instanceName",
          "type": "string"
        }
      ],
      "name": "getListCdobByPbf",
      "outputs": [
        {
          "internalType": "uint8[]",
          "name": "",
          "type": "uint8[]"
        },
        {
          "internalType": "uint8[]",
          "name": "",
          "type": "uint8[]"
        },
        {
          "internalType": "uint256[]",
          "name": "",
          "type": "uint256[]"
        },
        {
          "internalType": "string[]",
          "name": "",
          "type": "string[]"
        }
      ],
      "stateMutability": "view",
      "type": "function"
    },
    {
      "inputs": [
        {
          "internalType": "string",
          "name": "_instanceName",
          "type": "string"
        }
      ],
      "name": "getListCpotbByFactory",
      "outputs": [
        {
          "internalType": "uint8[]",
          "name": "",
          "type": "uint8[]"
        },
        {
          "internalType": "uint8[]",
          "name": "",
          "type": "uint8[]"
        },
        {
          "internalType": "uint256[]",
          "name": "",
          "type": "uint256[]"
        },
        {
          "internalType": "string[]",
          "name": "",
          "type": "string[]"
        }
      ],
      "stateMutability": "view",
      "type": "function"
    },
    {
      "inputs": [
        {
          "internalType": "string",
          "name": "_cpotbId",
          "type": "string"
        }
      ],
      "name": "getListCpotbById",
      "outputs": [
        {
          "components": [
            {
              "internalType": "string",
              "name": "cpotbId",
              "type": "string"
            },
            {
              "internalType": "string",
              "name": "senderName",
              "type": "string"
            },
            {
              "internalType": "address",
              "name": "factoryAddr",
              "type": "address"
            },
            {
              "internalType": "string",
              "name": "factoryName",
              "type": "string"
            },
            {
              "internalType": "enum MainSupplyChain.en_jenisSediaan",
              "name": "jenisSediaan",
              "type": "uint8"
            },
            {
              "internalType": "enum MainSupplyChain.en_statusCert",
              "name": "status",
              "type": "uint8"
            },
            {
              "internalType": "uint256",
              "name": "timestampRequest",
              "type": "uint256"
            },
            {
              "internalType": "uint256",
              "name": "timestampApprove",
              "type": "uint256"
            },
            {
              "internalType": "string",
              "name": "cpotbNumber",
              "type": "string"
            },
            {
              "internalType": "address",
              "name": "bpomAddr",
              "type": "address"
            },
            {
              "internalType": "string",
              "name": "receiverName",
              "type": "string"
            }
          ],
          "internalType": "struct MainSupplyChain.st_cpotbData",
          "name": "",
          "type": "tuple"
        }
      ],
      "stateMutability": "view",
      "type": "function"
    },
    {
      "inputs": [
        {
          "internalType": "address",
          "name": "_userAddr",
          "type": "address"
        }
      ],
      "name": "getRegisteredUser",
      "outputs": [
        {
          "internalType": "address",
          "name": "",
          "type": "address"
        },
        {
          "internalType": "string",
          "name": "",
          "type": "string"
        },
        {
          "internalType": "string",
          "name": "",
          "type": "string"
        },
        {
          "internalType": "uint8",
          "name": "",
          "type": "uint8"
        }
      ],
      "stateMutability": "view",
      "type": "function"
    },
    {
      "inputs": [
        {
          "internalType": "string",
          "name": "_name",
          "type": "string"
        },
        {
          "internalType": "string",
          "name": "_instanceName",
          "type": "string"
        },
        {
          "internalType": "address",
          "name": "_userAddr",
          "type": "address"
        },
        {
          "internalType": "uint8",
          "name": "_userRole",
          "type": "uint8"
        }
      ],
      "name": "registerUser",
      "outputs": [],
      "stateMutability": "nonpayable",
      "type": "function"
    },
    {
      "inputs": [
        {
          "internalType": "string",
          "name": "_instanceName",
          "type": "string"
        },
        {
          "internalType": "string",
          "name": "_cdobId",
          "type": "string"
        },
        {
          "internalType": "string",
          "name": "_senderName",
          "type": "string"
        },
        {
          "internalType": "enum MainSupplyChain.en_tipePermohonan",
          "name": "_tipePermohonan",
          "type": "uint8"
        }
      ],
      "name": "requestCdob",
      "outputs": [],
      "stateMutability": "nonpayable",
      "type": "function"
    },
    {
      "inputs": [
        {
          "internalType": "string",
          "name": "_instanceName",
          "type": "string"
        },
        {
          "internalType": "string",
          "name": "_cpotbId",
          "type": "string"
        },
        {
          "internalType": "string",
          "name": "_senderName",
          "type": "string"
        },
        {
          "internalType": "uint8",
          "name": "_jenisSediaan",
          "type": "uint8"
        }
      ],
      "name": "requestCpotb",
      "outputs": [],
      "stateMutability": "nonpayable",
      "type": "function"
    }
  ],
  "bytecode": "0x608034607057601f613b1b38819003918201601f19168301916001600160401b03831184841017607557808492602094604052833981010312607057516001600160a01b03811690819003607057600080546001600160a01b031916919091179055604051613a8f908161008c8239f35b600080fd5b634e487b7160e01b600052604160045260246000fdfe6080604052600436101561001257600080fd5b6000803560e01c8063073a4cf814611eaa57806314fd887414611c87578063402a124914611bb657806343762aa814611a2f5780636aa81299146119ca5780637c4535e014611754578063b0cca61e146114a6578063c5f455b414611260578063cec1fc1e1461110d578063d123367214610d31578063e54a29bb14610b47578063ec176587146109bf578063ef013be314610343578063f02f5f231461024b5763fbe9a68e146100c257600080fd5b3461024857602036600319011261024857600435906001600160401b0382116102485761024461015b61014c60206100fd36600488016124c0565b610105612b0d565b506040519061013b61013482519385818186019661012481838a6125f1565b810160028152030190205461274e565b1515612d1d565b6040519384928392519283916125f1565b81016002815203019020612b84565b6040519182916020835261014061021c6101ca61019f610189855161016060208a0152610180890190612614565b6020860151888203601f190160408a0152612614565b60408501516001600160a01b0316606088810191909152850151878203601f19016080890152612614565b6101dc608085015160a088019061280b565b60a08401516101ea816126da565b60c087015260c084015160e087015260e0840151610100870152610100840151601f1987830301610120880152612614565b6101208301516001600160a01b031685830152910151838203601f1901610160850152612614565b0390f35b80fd5b50346102485760203660031901126102485760043560045481101561033f57610273906126fa565b506040519061028d826102868184612788565b038361249f565b6102446009604051926102ae846102a78160018501612788565b038561249f565b60028101546040516001600160a01b03909116956102d3826102868160038701612788565b600483015460058401549060068501549260405194610300866102f98160078b01612788565b038761249f565b61032860018060a01b0360088901541697610321604051809b819301612788565b038961249f565b6040519a8b9a60ff808660081c169516938c612818565b5080fd5b5034610248576103523661251b565b83546040516395a8c58d60e01b8152336004820152600260248201529394919391929190602090829060449082906001600160a01b03165afa9081156109b457906103a4918491610985575b50612983565b60405192845193602081818801966103bd81838a6125f1565b81016003815203019020946004860161010081546103ea60ff8260081c166103e4816126da565b156129cf565b61ff0019161790556007860183516001600160401b0381116107f057610410825461274e565b601f8111610940575b50806020601f82116001146108df5787916108d4575b508160011b916000199060031b1c19161790555b4260068701556008860180546001600160a01b03191633179055815160098701906001600160401b0381116107f05761047c825461274e565b601f811161088f575b50806020601f821160011461082e578791610823575b508160011b916000199060031b1c19161790555b835b600554811015610804576104c48161272f565b506040516104e8816104da602082018095612a3a565b03601f19810183528261249f565b5190206040516020810190610519602082846105088d8a519283916125f1565b81010301601f19810183528261249f565b51902014610529576001016104b1565b919293945050600461053a8261272f565b5001805461ff00191661010017905560076105548261272f565b500183516001600160401b0381116107f057610570825461274e565b601f81116107ab575b506020601f8211600114610744579181600994926105de948991610739575b508160011b916000199060031b1c19161790555b6105b58161272f565b5060064291015560086105c78261272f565b500180546001600160a01b0319163317905561272f565b5001938151946001600160401b038611610725576105fc815461274e565b601f81116106e0575b50602095601f811160011461066b57908161065a93928798600080516020613a3a8339815191529891610660575b508160011b916000199060031b1c19161790555b6040519384936003429301903386612aa8565b0390a180f35b905085015138610633565b81865286862096601f198216875b8181106106c8575091600080516020613a3a83398151915297986001928261065a979695106106af575b5050811b019055610647565b87015160001960f88460031b161c1916905538806106a3565b868301518a5560019099019860209283019201610679565b81865260208620601f880160051c8101916020891061071b575b601f0160051c01905b8181106107105750610605565b868155600101610703565b90915081906106fa565b634e487b7160e01b85526041600452602485fd5b905087015138610598565b82875280872090601f198316885b8181106107935750926105de949260019282600998961061077a575b5050811b0190556105ac565b89015160001960f88460031b161c19169055388061076e565b9192602060018192868c015181550194019201610752565b82875260208720601f830160051c810191602084106107e6575b601f0160051c01905b8181106107db5750610579565b8781556001016107ce565b90915081906107c5565b634e487b7160e01b86526041600452602486fd5b5050909193600080516020613a3a833981519152935061065a90610647565b90508401513861049b565b8388528088209150601f198316885b8181106108775750908360019493921061085e575b5050811b0190556104af565b86015160001960f88460031b161c191690553880610852565b9192602060018192868b01518155019401920161083d565b82875260208720601f830160051c810191602084106108ca575b601f0160051c01905b8181106108bf5750610485565b8781556001016108b2565b90915081906108a9565b90508501513861042f565b8388528088209150601f198316885b8181106109285750908360019493921061090f575b5050811b019055610443565b87015160001960f88460031b161c191690553880610903565b9192602060018192868c0151815501940192016108ee565b82875260208720601f830160051c8101916020841061097b575b601f0160051c01905b8181106109705750610419565b878155600101610963565b909150819061095a565b6109a7915060203d6020116109ad575b61099f818361249f565b81019061296b565b3861039e565b503d610995565b6040513d85823e3d90fd5b50346102485780600319360112610248576004546109dc81612ca1565b6109e582612cd3565b6109ee83612cd3565b926109f881612ca1565b610a0182612ca1565b91865b818110610a1f575050906102449291604051958695866128cf565b60ff6004610a2c836126fa565b500154166009811015610b335790600191610a478289612b64565b5260ff6004610a55836126fa565b50015460081c16610a65816126da565b610a6f8286612b64565b526003610a96610a7e836126fa565b50610a8f6040518094819301612788565b038261249f565b610aa0828a612b64565b52610aab8189612b64565b50610a8f610ac8610abb836126fa565b5060405192838092612788565b610ad28288612b64565b52610add8187612b64565b506006610ae9826126fa565b5001546005610af7836126fa565b5001541015610b20576006610b0b826126fa565b5001545b610b198287612b64565b5201610a04565b6005610b2b826126fa565b500154610b0f565b634e487b7160e01b89526021600452602489fd5b5034610248576020366003190112610248576004356001600160a01b0381169081900361033f57815460405163e2a4128360e01b8152600481018390526001600160a01b0390911690602081602481855afa908115610d26578491610d07575b5015610cc9578183526001602052604083209260405192610bc784612484565b604051610bd881610a8f8189612788565b8452602060405195610bf887610bf18160018501612788565b038861249f565b858201968752600201546001600160a01b0316604080870191825251634427673360e01b815260048101939093529193849060249082905afa928315610cbe578293610c81575b5051925193516001600160a01b0390931692906004831015610c6d575090610244916040519485948561292a565b634e487b7160e01b81526021600452602490fd5b9092506020813d602011610cb6575b81610c9d6020938361249f565b8101031261033f5751600481101561033f579138610c3f565b3d9150610c90565b6040513d84823e3d90fd5b60405162461bcd60e51b8152602060048201526016602482015275155cd95c881a5cc81b9bdd081c9959da5cdd195c995960521b6044820152606490fd5b610d20915060203d6020116109ad5761099f818361249f565b38610ba7565b6040513d86823e3d90fd5b5034610248576080366003190112610248576004356001600160401b03811161033f57610d629036906004016124c0565b906024356001600160401b03811161033f57610d829036906004016124c0565b916044356001600160a01b03811680820361110957610d9f6128bf565b604051610dab81612484565b84815260208101878152604082019084825284885260016020526040882092518051906001600160401b038211611037578190610de8865461274e565b601f81116110b9575b50602090601f8311600114611056578b9261104b575b50508160011b916000199060031b1c19161783555b51805160018401916001600160401b03821161103757610e3c835461274e565b601f8111610ff2575b50602090601f8311600114610f875791806002949260ff989796948d92610f7c575b50508160011b916000199060031b1c19161790555b51910180546001600160a01b0319166001600160a01b039290921691909117905516906004821015610f685784546001600160a01b031690813b15610f6457859160448392604051948593849263630a195b60e01b845260048401528760248401525af18015610f5957610f21575b5061065a9084957f93b86cf0a1d8e18e724e08d47f7248859de317795be109ec2495f6fc7445b4e995506040519485948561292a565b9084610f517f93b86cf0a1d8e18e724e08d47f7248859de317795be109ec2495f6fc7445b4e99661065a9461249f565b945090610eeb565b6040513d87823e3d90fd5b8580fd5b634e487b7160e01b85526021600452602485fd5b015190503880610e67565b838b52818b209190601f1984168c5b818110610fda575092600192859260ff9a9998966002989610610fc1575b505050811b019055610e7c565b015160001960f88460031b161c19169055388080610fb4565b92936020600181928786015181550195019301610f96565b838b5260208b20601f840160051c8101916020851061102d575b601f0160051c01905b8181106110225750610e45565b8b8155600101611015565b909150819061100c565b634e487b7160e01b8a52604160045260248afd5b015190503880610e07565b868c52818c209250601f1984168c5b8181106110a15750908460019594939210611088575b505050811b018355610e1c565b015160001960f88460031b161c1916905538808061107b565b92936020600181928786015181550195019301611065565b909150858b5260208b20601f840160051c810191602085106110ff575b90601f859493920160051c01905b8181106110f15750610df1565b8c81558493506001016110e4565b90915081906110d6565b8380fd5b50346102485780600319360112610248576005549061112b82612ca1565b9061113583612cd3565b9061113f84612cd3565b9361114981612ca1565b9061115381612ca1565b92805b82811061117257505050906102449291604051958695866128cf565b8060ff600461118260019461272f565b5001541661118f816126da565b611199828a612b64565b5260ff60046111a78361272f565b50015460081c166111b7816126da565b6111c18287612b64565b5260036111d0610a7e8361272f565b6111da828b612b64565b526111e5818a612b64565b50610a8f6111f5610abb8361272f565b6111ff8289612b64565b5261120a8188612b64565b5060066112168261272f565b50015460056112248361272f565b500154101561124d5760066112388261272f565b5001545b6112468288612b64565b5201611156565b60056112588261272f565b50015461123c565b5034610248576020366003190112610248576004356001600160401b03811161033f576112919036906004016124c0565b60055461129d81612af6565b906112ab604051928361249f565b808252601f196112ba82612af6565b01845b81811061148f57505083928460208201905b8381106113ff57505050506112e382612ca1565b906112ed83612cd3565b906112f784612ca1565b9361130181612ca1565b91865b82811061131f57505050906102449160405194859485612692565b80608061132e60019385612b64565b51015161133a816126da565b611343816126da565b60ff61134f838a612b64565b9116905260a061135f8285612b64565b51015161136b816126da565b611374816126da565b60ff611380838b612b64565b9116905261138e8184612b64565b515161139a8288612b64565b526113a58187612b64565b5060e06113b28285612b64565b51015160c06113c18386612b64565b51015110156113eb5760e06113d68285612b64565b5101515b6113e48287612b64565b5201611304565b60c06113f78285612b64565b5101516113da565b60036104da6114246114108461272f565b506040519283916020830195869101612a3a565b5190206040516020810190611442602082885161050881878b6125f1565b51902014611453575b6001016112cf565b9461148760019161146c6114668961272f565b50612d69565b6114768289612b64565b526114818188612b64565b50612c7c565b95905061144b565b60209061149a612b0d565b828287010152016112bd565b5034610248576080366003190112610248576004356001600160401b03811161033f576114d79036906004016124c0565b6024356001600160401b038111611750576114f69036906004016124c0565b906044356001600160401b038111611109576115169036906004016124c0565b9160643591600283101561174c5784546040516395a8c58d60e01b81523360048201526001602482015290602090829060449082906001600160a01b03165afa908115611741578691611722575b50156116dd576040519061157782612452565b828252846020830152336040830152806060830152611595846126da565b8360808301528560a08301524260c08301528560e08301526020916040516115bd848261249f565b878152610100820152866101208201526040516115da848261249f565b87815261014082015261160a81604051858188516115fb8183858d016125f1565b8101600381520301902061343d565b600554600160401b8110156116c957806001611629920160055561272f565b6116b5576116a99361167a96936116667f52826c7f34a2ea38d95f47a905bbcd35442ec287a05b31513f7b71bf968b0a3499979461168d9461343d565b60405197889760c0895260c0890190612614565b9133908801528682036040880152612614565b91611697816126da565b60608501528382036080850152612614565b4260a08301520390a180f35b634e487b7160e01b88526004889052602488fd5b634e487b7160e01b88526041600452602488fd5b60405162461bcd60e51b815260206004820152601d60248201527f416363657373207265737472696374656420746f2050424620726f6c650000006044820152606490fd5b61173b915060203d6020116109ad5761099f818361249f565b38611564565b6040513d88823e3d90fd5b8480fd5b8280fd5b5034610248576080366003190112610248576004356001600160401b03811161033f576117859036906004016124c0565b6024356001600160401b038111611750576117a49036906004016124c0565b906044356001600160401b038111611109576117c49036906004016124c0565b916117cd6128bf565b84546040516395a8c58d60e01b81523360048201526024810187905290602090829060449082906001600160a01b03165afa9081156117415786916119ab575b501561195c5760ff16916009831015610f68576040519061182d82612452565b82825284602083015233604083015280606083015261184f8460808401612b78565b8560a08301524260c08301528560e0830152602091604051611871848261249f565b8781526101008201528661012082015260405161188e848261249f565b8781526101408201526118be81604051858188516118af8183858d016125f1565b81016002815203019020612dff565b600454600160401b8110156116c9578060016118dd92016004556126fa565b6116b5576119446116a994611931979461191d7fe9b311c837d257b1f6982c63cbb418abca3880b67545d8ea67adc97e6626ef1e9a989561194f95612dff565b60405198899860c08a5260c08a0190612614565b9133908901528782036040890152612614565b92606086019061280b565b8382036080850152612614565b60405162461bcd60e51b815260206004820152602160248201527f416363657373207265737472696374656420746f20466163746f727920726f6c6044820152606560f81b6064820152608490fd5b6119c4915060203d6020116109ad5761099f818361249f565b3861180d565b503461024857602036600319011261024857600435906001600160401b03821161024857611a136020611a0036600486016124c0565b81604051938285809451938492016125f1565b810160028152030190206040519061028d826102868184612788565b50346102485760203660031901126102485760043560055481101561033f57611a579061272f565b5060405180611a668184612788565b03611a71908261249f565b6040519182611a838160018401612788565b03611a8e908461249f565b60028101546040516001600160a01b039091169080611ab08160038601612788565b03611abb908261249f565b600483015460ff81169060081c60ff16600585015460068601549160405194858060078a0190611aea91612788565b03611af5908761249f565b600160a01b6001900360088901541696604051806009819b0190611b1891612788565b03611b23908a61249f565b6040519a8b9a6101608c526101608c01611b3c91612614565b8b810360208d0152611b4d91612614565b9060408b015289810360608b0152611b6491612614565b93611b6e816126da565b6080890152611b7c816126da565b60a088015260c087015260e0860152848103610100860152611b9d91612614565b9061012084015282810361014084015261024491612614565b503461024857602036600319011261024857600435906001600160401b03821161024857610244611c38611c296020611bf236600488016124c0565b611bfa612b0d565b506040519061013b610134825193858181860196611c1981838a6125f1565b810160038152030190205461274e565b81016003815203019020612d69565b6040519182916020835261014061021c611c6661019f610189855161016060208a0152610180890190612614565b6080840151611c74816126da565b60a087015260a08401516101ea816126da565b5034610248576020366003190112610248576004356001600160401b03811161033f57611cb89036906004016124c0565b9060045490611cc682612af6565b91611cd4604051938461249f565b808352601f19611ce382612af6565b01825b818110611e9357505081938260208201905b838110611e1d5750505050611d0c83612ca1565b91611d1684612cd3565b91611d2085612ca1565b94611d2a81612ca1565b92825b828110611d45576040518061024488888c8c85612692565b6080611d518284612b64565b5101516009811015610f68579060019160ff611d6d838b612b64565b9116905260a0611d7d8285612b64565b510151611d89816126da565b611d92816126da565b60ff611d9e838c612b64565b91169052611dac8184612b64565b5151611db88289612b64565b52611dc38188612b64565b5060e0611dd08285612b64565b51015160c0611ddf8386612b64565b5101511015611e095760e0611df48285612b64565b5101515b611e028288612b64565b5201611d2d565b60c0611e158285612b64565b510151611df8565b60036104da611e2e611410846126fa565b5190206040516020810190611e4c602082885161050881878b6125f1565b51902014611e5d575b600101611cf8565b95611e8b600191611e76611e708a6126fa565b50612b84565b611e80828a612b64565b526114818189612b64565b969050611e55565b602090611e9e612b0d565b82828801015201611ce6565b503461024857611eb93661251b565b83546040516395a8c58d60e01b8152336004820152600260248201529394919391929190602090829060449082906001600160a01b03165afa9081156109b45790611f0a9184916109855750612983565b6040519284519360208181880196611f2381838a6125f1565b8101600281520301902094600486016101008154611f4a60ff8260081c166103e4816126da565b61ff0019161790556007860183516001600160401b0381116107f057611f70825461274e565b601f811161240d575b50806020601f82116001146123ac5787916123a1575b508160011b916000199060031b1c19161790555b4260068701556008860180546001600160a01b03191633179055815160098701906001600160401b0381116107f057611fdc825461274e565b601f811161235c575b50806020601f82116001146122fb5787916122f0575b508160011b916000199060031b1c19161790555b835b60045481101561080457612024816126fa565b5060405161203a816104da602082018095612a3a565b519020604051602081019061205a602082846105088d8a519283916125f1565b5190201461206a57600101612011565b919293945050600461207b826126fa565b5001805461ff0019166101001790556007612095826126fa565b500183516001600160401b0381116107f0576120b1825461274e565b601f81116122ab575b506020601f82116001146122445791816009949261211f948991612239575b508160011b916000199060031b1c19161790555b6120f6816126fa565b506006429101556008612108826126fa565b500180546001600160a01b031916331790556126fa565b5001938151946001600160401b0386116107255761213d815461274e565b601f81116121f4575b50602095601f811160011461219957908161065a93928798600080516020613a3a833981519152989161066057508160011b916000199060031b1c19161790556040519384936003429301903386612aa8565b81865286862096601f198216875b8181106121dc575091600080516020613a3a83398151915297986001928261065a979695106106af575050811b019055610647565b868301518a55600190990198602092830192016121a7565b81865260208620601f880160051c8101916020891061222f575b601f0160051c01905b8181106122245750612146565b868155600101612217565b909150819061220e565b9050870151386120d9565b82875280872090601f198316885b81811061229357509261211f949260019282600998961061227a575b5050811b0190556120ed565b89015160001960f88460031b161c19169055388061226e565b9192602060018192868c015181550194019201612252565b82875260208720601f830160051c810191602084106122e6575b601f0160051c01905b8181106122db57506120ba565b8781556001016122ce565b90915081906122c5565b905084015138611ffb565b8388528088209150601f198316885b8181106123445750908360019493921061232b575b5050811b01905561200f565b86015160001960f88460031b161c19169055388061231f565b9192602060018192868b01518155019401920161230a565b82875260208720601f830160051c81019160208410612397575b601f0160051c01905b81811061238c5750611fe5565b87815560010161237f565b9091508190612376565b905085015138611f8f565b8388528088209150601f198316885b8181106123f5575090836001949392106123dc575b5050811b019055611fa3565b87015160001960f88460031b161c1916905538806123d0565b9192602060018192868c0151815501940192016123bb565b82875260208720601f830160051c81019160208410612448575b601f0160051c01905b81811061243d5750611f79565b878155600101612430565b9091508190612427565b61016081019081106001600160401b0382111761246e57604052565b634e487b7160e01b600052604160045260246000fd5b606081019081106001600160401b0382111761246e57604052565b90601f801991011681019081106001600160401b0382111761246e57604052565b81601f82011215612516578035906001600160401b03821161246e57604051926124f4601f8401601f19166020018561249f565b8284526020838301011161251657816000926020809301838601378301015290565b600080fd5b6060600319820112612516576004356001600160401b0381116125165781612545916004016124c0565b916024356001600160401b0381116125165782612564916004016124c0565b91604435906001600160401b03821161251657612583916004016124c0565b90565b906020808351928381520192019060005b8181106125a45750505090565b825160ff16845260209384019390920191600101612597565b906020808351928381520192019060005b8181106125db5750505090565b82518452602093840193909201916001016125ce565b60005b8381106126045750506000910152565b81810151838201526020016125f4565b9060209161262d815180928185528580860191016125f1565b601f01601f1916010190565b9080602083519182815201916020808360051b8301019401926000915b83831061266557505050505090565b9091929394602080612683600193601f198682030187528951612614565b97019301930191939290612656565b926126be61258395936126b06126cc94608088526080880190612586565b908682036020880152612586565b9084820360408601526125bd565b916060818403910152612639565b600211156126e457565b634e487b7160e01b600052602160045260246000fd5b600454811015612719576004600052600a602060002091020190600090565b634e487b7160e01b600052603260045260246000fd5b600554811015612719576005600052600a602060002091020190600090565b90600182811c9216801561277e575b602083101461276857565b634e487b7160e01b600052602260045260246000fd5b91607f169161275d565b600092918154916127988361274e565b80835292600181169081156127ee57506001146127b457505050565b60009081526020812093945091925b8383106127d4575060209250010190565b6001816020929493945483858701015201910191906127c3565b915050602093945060ff929192191683830152151560051b010190565b9060098210156126e45752565b979361289f979361286e916128516125839e9c989995612843612879966101608f8181520190612614565b8d810360208f015290612614565b6001600160a01b0390921660408c01528a820360608c0152612614565b95608089019061280b565b612882816126da565b60a087015260c086015260e0850152838203610100850152612614565b6001600160a01b0390931661012082015280830361014090910152612614565b6064359060ff8216820361251657565b9390612583959361290061291c946128f261290e9460a08a5260a08a0190612586565b9088820360208a0152612639565b908682036040880152612586565b9084820360608601526125bd565b916080818403910152612639565b926129649061295660609460ff9498979860018060a01b03168752608060208801526080870190612614565b908582036040870152612614565b9416910152565b90816020910312612516575180151581036125165790565b1561298a57565b60405162461bcd60e51b815260206004820152601e60248201527f416363657373207265737472696374656420746f2042504f4d20726f6c6500006044820152606490fd5b156129d657565b60405162461bcd60e51b815260206004820152601d60248201527f43504f544220737461747573206d7573742062652070656e64696e67210000006044820152606490fd5b90612a25816126da565b61ff0082549160081b169061ff001916179055565b60009291815491612a4a8361274e565b9260018116908115612a955750600114612a6357505050565b909192935060005260206000206000905b838210612a815750500190565b600181602092548486015201910190612a74565b60ff191683525050811515909102019150565b95949390608093612ad5612af194612ae39360018060a01b03168a5260a060208b015260a08a0190612614565b9088820360408a0152612788565b908682036060880152612614565b930152565b6001600160401b03811161246e5760051b60200190565b60405190612b1a82612452565b60606101408382815282602082015260006040820152828082015260006080820152600060a0820152600060c0820152600060e08201528261010082015260006101208201520152565b80518210156127195760209160051b010190565b60098210156126e45752565b906009610140604051612b9681612452565b612c788195604051612bac81610a8f8185612788565b8352604051612bc281610a8f8160018601612788565b602084015260028101546001600160a01b031660408085019190915251612bf081610a8f8160038601612788565b606084015260ff6004820154612c0b82821660808701612b78565b60081c16612c18816126da565b60a0840152600581015460c0840152600681015460e0840152604051612c4581610a8f8160078601612788565b61010084015260088101546001600160a01b0316610120840152604051948591612c7191839101612788565b038461249f565b0152565b6000198114612c8b5760010190565b634e487b7160e01b600052601160045260246000fd5b90612cab82612af6565b612cb8604051918261249f565b8281528092612cc9601f1991612af6565b0190602036910137565b90612cdd82612af6565b612cea604051918261249f565b8281528092612cfb601f1991612af6565b019060005b828110612d0c57505050565b806060602080938501015201612d00565b15612d2457565b60405162461bcd60e51b815260206004820152601a60248201527f4e6f206461746120666f756e6420666f7220746869732049442e0000000000006044820152606490fd5b906009610140604051612d7b81612452565b612c788195604051612d9181610a8f8185612788565b8352604051612da781610a8f8160018601612788565b602084015260028101546001600160a01b031660408085019190915251612dd581610a8f8160038601612788565b606084015260ff6004820154818116612ded816126da565b608086015260081c16612c18816126da565b909182519283516001600160401b03811161246e57612e1e845461274e565b601f81116133f5575b50602094601f821160011461339057948192939495600092613385575b50508160011b916000199060031b1c19161783555b6001830160208201518051906001600160401b03821161246e578190612e7f845461274e565b601f8111613332575b50602090601f83116001146132cd576000926132c2575b50508160011b916000199060031b1c19161790555b60408101516002840180546001600160a01b0319166001600160a01b03929092169190911790556060810151805160038501916001600160401b03821161246e578190612f01845461274e565b601f811161326f575b50602090601f831160011461320a576000926131ff575b50508160011b916000199060031b1c19161790555b6080810151926004810160098510156126e457612f709060009560ff8019835416911617815560a084015190612f6b826126da565b612a1b565b60c0820151600582015560e08201516006820155600781016101008301518051906001600160401b0382116131eb57612fa9835461274e565b601f81116131a6575b50602090601f831160011461313c5791806009949261014096948a92613131575b50508160011b916000199060031b1c19161790555b6101208401516008820180546001600160a01b0319166001600160a01b039290921691909117905591909201518051909492909101916001600160401b03821161311d57613036835461274e565b601f81116130d8575b50602090601f831160011461307a5794829394959261306f575b50508160011b916000199060031b1c1916179055565b015190503880613059565b90601f198316848352818320925b8181106130c0575095836001959697106130a7575b505050811b019055565b015160001960f88460031b161c1916905538808061309d565b9192602060018192868b015181550194019201613088565b83825260208220601f840160051c81019160208510613113575b601f0160051c01905b818110613108575061303f565b8281556001016130fb565b90915081906130f2565b634e487b7160e01b81526041600452602490fd5b015190503880612fd3565b8388528188209190601f198416895b81811061318e575092600192859261014098966009989610613175575b505050811b019055612fe8565b015160001960f88460031b161c19169055388080613168565b9293602060018192878601518155019501930161314b565b83885260208820601f840160051c810191602085106131e1575b601f0160051c01905b8181106131d65750612fb2565b8881556001016131c9565b90915081906131c0565b634e487b7160e01b87526041600452602487fd5b015190503880612f21565b60008581528281209350601f198516905b818110613257575090846001959493921061323e575b505050811b019055612f36565b015160001960f88460031b161c19169055388080613231565b9293602060018192878601518155019501930161321b565b909150836000526020600020601f840160051c810191602085106132b8575b90601f859493920160051c01905b8181106132a95750612f0a565b6000815584935060010161329c565b909150819061328e565b015190503880612e9f565b60008581528281209350601f198516905b81811061331a5750908460019594939210613301575b505050811b019055612eb4565b015160001960f88460031b161c191690553880806132f4565b929360206001819287860151815501950193016132de565b909150836000526020600020601f840160051c8101916020851061337b575b90601f859493920160051c01905b81811061336c5750612e88565b6000815584935060010161335f565b9091508190613351565b015190503880612e44565b601f1982169585600052806000209160005b8881106133dd575083600195969798106133c4575b505050811b018355612e59565b015160001960f88460031b161c191690553880806133b7565b919260206001819286850151815501940192016133a2565b846000526020600020601f830160051c81019160208410613433575b601f0160051c01905b8181106134275750612e27565b6000815560010161341a565b9091508190613411565b9181519283516001600160401b03811161246e5761345b825461274e565b601f81116139f1575b50602094601f821160011461398c57948192939495600092613981575b50508160011b916000199060031b1c19161781555b6001810160208401518051906001600160401b03821161246e5781906134bc845461274e565b601f811161392e575b50602090601f83116001146138c9576000926138be575b50508160011b916000199060031b1c19161790555b60408301516002820180546001600160a01b0319166001600160a01b03929092169190911790556060830151805160038301916001600160401b03821161246e57819061353e845461274e565b601f811161386b575b50602090601f8311600114613806576000926137fb575b50508160011b916000199060031b1c19161790555b6135ac600482016080850151613588816126da565b613591816126da565b60ff8019835416911617815560a085015190612f6b826126da565b60c0830151600582015560e08301516006820155600781016101008401518051906001600160401b03821161246e576135e5835461274e565b601f81116137b3575b50602090601f831160011461374557918060099492610140969460009261373a575b50508160011b916000199060031b1c19161790555b6101208501516008820180546001600160a01b0319166001600160a01b0392909216919091179055919093015180519093909101906001600160401b03811161246e57613672825461274e565b601f81116136f2575b506020601f82116001146136aa578192939460009261306f5750508160011b916000199060031b1c1916179055565b601f1982169083600052806000209160005b8181106136da575095836001959697106130a757505050811b019055565b9192602060018192868b0151815501940192016136bc565b826000526020600020601f830160051c81019160208410613730575b601f0160051c01905b818110613724575061367b565b60008155600101613717565b909150819061370e565b015190503880613610565b90601f1983169184600052816000209260005b81811061379b575092600192859261014098966009989610613782575b505050811b019055613625565b015160001960f88460031b161c19169055388080613775565b92936020600181928786015181550195019301613758565b836000526020600020601f840160051c810191602085106137f1575b601f0160051c01905b8181106137e557506135ee565b600081556001016137d8565b90915081906137cf565b01519050388061355e565b60008581528281209350601f198516905b818110613853575090846001959493921061383a575b505050811b019055613573565b015160001960f88460031b161c1916905538808061382d565b92936020600181928786015181550195019301613817565b909150836000526020600020601f840160051c810191602085106138b4575b90601f859493920160051c01905b8181106138a55750613547565b60008155849350600101613898565b909150819061388a565b0151905038806134dc565b60008581528281209350601f198516905b81811061391657509084600195949392106138fd575b505050811b0190556134f1565b015160001960f88460031b161c191690553880806138f0565b929360206001819287860151815501950193016138da565b909150836000526020600020601f840160051c81019160208510613977575b90601f859493920160051c01905b81811061396857506134c5565b6000815584935060010161395b565b909150819061394d565b015190503880613481565b601f1982169583600052806000209160005b8881106139d9575083600195969798106139c0575b505050811b018155613496565b015160001960f88460031b161c191690553880806139b3565b9192602060018192868501518155019401920161399e565b826000526020600020601f830160051c81019160208410613a2f575b601f0160051c01905b818110613a235750613464565b60008155600101613a16565b9091508190613a0d56feedc9920ea2d8611e7d985ecf390206409122b6df9a9c529063c5311531494be1a2646970667358221220ac029b508da79003569dee81adf501d216bd9773569e3c56b268a1b1ec78162564736f6c634300081b0033",
  "linkReferences": {},
  "deployedLinkReferences": {}
}