{
  "_format": "hh-sol-artifact-1",
  "contractName": "MainSupplyChain",
  "sourceName": "contracts/MainSupplyChain.sol",
  "abi": [
    {
      "inputs": [
        {
          "internalType": "address",
          "name": "_roleManagerAddr",
          "type": "address"
        }
      ],
      "stateMutability": "nonpayable",
      "type": "constructor"
    },
    {
      "anonymous": false,
      "inputs": [
        {
          "indexed": false,
          "internalType": "address",
          "name": "userAddr",
          "type": "address"
        },
        {
          "indexed": false,
          "internalType": "string",
          "name": "name",
          "type": "string"
        },
        {
          "indexed": false,
          "internalType": "string",
          "name": "instanceName",
          "type": "string"
        },
        {
          "indexed": false,
          "internalType": "uint8",
          "name": "role",
          "type": "uint8"
        }
      ],
      "name": "evt_UserRegistered",
      "type": "event"
    },
    {
      "anonymous": false,
      "inputs": [
        {
          "indexed": false,
          "internalType": "string",
          "name": "bpomInstance",
          "type": "string"
        },
        {
          "indexed": false,
          "internalType": "address",
          "name": "bpomAddr",
          "type": "address"
        },
        {
          "indexed": false,
          "internalType": "enum EnumsLibrary.TipePermohonanCdob",
          "name": "",
          "type": "uint8"
        },
        {
          "indexed": false,
          "internalType": "string",
          "name": "cdobNumber",
          "type": "string"
        },
        {
          "indexed": false,
          "internalType": "uint256",
          "name": "timestampApproved",
          "type": "uint256"
        }
      ],
      "name": "evt_cdobApproved",
      "type": "event"
    },
    {
      "anonymous": false,
      "inputs": [
        {
          "indexed": false,
          "internalType": "string",
          "name": "pbfInstance",
          "type": "string"
        },
        {
          "indexed": false,
          "internalType": "address",
          "name": "pbfAddr",
          "type": "address"
        },
        {
          "indexed": false,
          "internalType": "enum EnumsLibrary.TipePermohonanCdob",
          "name": "tipePermohonan",
          "type": "uint8"
        },
        {
          "indexed": false,
          "internalType": "uint256",
          "name": "timestampRequest",
          "type": "uint256"
        }
      ],
      "name": "evt_cdobRequested",
      "type": "event"
    },
    {
      "anonymous": false,
      "inputs": [
        {
          "indexed": false,
          "internalType": "string",
          "name": "bpomInstance",
          "type": "string"
        },
        {
          "indexed": false,
          "internalType": "address",
          "name": "bpomAddr",
          "type": "address"
        },
        {
          "indexed": false,
          "internalType": "enum EnumsLibrary.TipePermohonanCpotb",
          "name": "",
          "type": "uint8"
        },
        {
          "indexed": false,
          "internalType": "string",
          "name": "cpotbId",
          "type": "string"
        },
        {
          "indexed": false,
          "internalType": "uint256",
          "name": "timestampApproved",
          "type": "uint256"
        }
      ],
      "name": "evt_cpotbApproved",
      "type": "event"
    },
    {
      "anonymous": false,
      "inputs": [
        {
          "indexed": false,
          "internalType": "string",
          "name": "factoryInstance",
          "type": "string"
        },
        {
          "indexed": false,
          "internalType": "address",
          "name": "factoryAddr",
          "type": "address"
        },
        {
          "indexed": false,
          "internalType": "enum EnumsLibrary.TipePermohonanCpotb",
          "name": "",
          "type": "uint8"
        },
        {
          "indexed": false,
          "internalType": "uint256",
          "name": "timestampRequest",
          "type": "uint256"
        }
      ],
      "name": "evt_cpotbRequested",
      "type": "event"
    },
    {
      "inputs": [
        {
          "internalType": "uint256",
          "name": "",
          "type": "uint256"
        }
      ],
      "name": "allCertificateData",
      "outputs": [
        {
          "internalType": "string",
          "name": "certId",
          "type": "string"
        },
        {
          "internalType": "string",
          "name": "certNumber",
          "type": "string"
        },
        {
          "internalType": "string",
          "name": "instanceName",
          "type": "string"
        },
        {
          "internalType": "string",
          "name": "certificateType",
          "type": "string"
        },
        {
          "internalType": "uint8",
          "name": "tipePermohonan",
          "type": "uint8"
        },
        {
          "internalType": "enum EnumsLibrary.StatusCertificate",
          "name": "status",
          "type": "uint8"
        }
      ],
      "stateMutability": "view",
      "type": "function"
    },
    {
      "inputs": [
        {
          "components": [
            {
              "internalType": "string",
              "name": "certNumber",
              "type": "string"
            },
            {
              "internalType": "string",
              "name": "certId",
              "type": "string"
            },
            {
              "internalType": "string",
              "name": "bpomName",
              "type": "string"
            },
            {
              "internalType": "string",
              "name": "bpomInstance",
              "type": "string"
            }
          ],
          "internalType": "struct MainSupplyChain.st_certificateApproval",
          "name": "approvalData",
          "type": "tuple"
        },
        {
          "internalType": "uint8",
          "name": "_tipePermohonanCdob",
          "type": "uint8"
        }
      ],
      "name": "approveCdob",
      "outputs": [],
      "stateMutability": "nonpayable",
      "type": "function"
    },
    {
      "inputs": [
        {
          "components": [
            {
              "internalType": "string",
              "name": "certNumber",
              "type": "string"
            },
            {
              "internalType": "string",
              "name": "certId",
              "type": "string"
            },
            {
              "internalType": "string",
              "name": "bpomName",
              "type": "string"
            },
            {
              "internalType": "string",
              "name": "bpomInstance",
              "type": "string"
            }
          ],
          "internalType": "struct MainSupplyChain.st_certificateApproval",
          "name": "approvalData",
          "type": "tuple"
        },
        {
          "internalType": "uint8",
          "name": "_tipePermohonanCpotb",
          "type": "uint8"
        }
      ],
      "name": "approveCpotb",
      "outputs": [],
      "stateMutability": "nonpayable",
      "type": "function"
    },
    {
      "inputs": [
        {
          "internalType": "string",
          "name": "_factoryName",
          "type": "string"
        }
      ],
      "name": "approvedTipePermohonan",
      "outputs": [
        {
          "internalType": "uint8[]",
          "name": "",
          "type": "uint8[]"
        }
      ],
      "stateMutability": "view",
      "type": "function"
    },
    {
      "inputs": [
        {
          "internalType": "string",
          "name": "",
          "type": "string"
        },
        {
          "internalType": "uint256",
          "name": "",
          "type": "uint256"
        }
      ],
      "name": "approvedTipePermohonanByFactory",
      "outputs": [
        {
          "internalType": "uint8",
          "name": "",
          "type": "uint8"
        }
      ],
      "stateMutability": "view",
      "type": "function"
    },
    {
      "inputs": [
        {
          "internalType": "string",
          "name": "",
          "type": "string"
        }
      ],
      "name": "cdobDataById",
      "outputs": [
        {
          "internalType": "string",
          "name": "cdobId",
          "type": "string"
        },
        {
          "internalType": "string",
          "name": "cdobNumber",
          "type": "string"
        },
        {
          "components": [
            {
              "internalType": "enum EnumsLibrary.StatusCertificate",
              "name": "status",
              "type": "uint8"
            },
            {
              "internalType": "uint256",
              "name": "timestampRequest",
              "type": "uint256"
            },
            {
              "internalType": "uint256",
              "name": "timestampApprove",
              "type": "uint256"
            },
            {
              "components": [
                {
                  "internalType": "string",
                  "name": "userName",
                  "type": "string"
                },
                {
                  "internalType": "address",
                  "name": "userAddr",
                  "type": "address"
                },
                {
                  "internalType": "string",
                  "name": "userInstanceName",
                  "type": "string"
                }
              ],
              "internalType": "struct MainSupplyChain.st_userCertificate",
              "name": "sender",
              "type": "tuple"
            },
            {
              "components": [
                {
                  "internalType": "string",
                  "name": "userName",
                  "type": "string"
                },
                {
                  "internalType": "address",
                  "name": "userAddr",
                  "type": "address"
                },
                {
                  "internalType": "string",
                  "name": "userInstanceName",
                  "type": "string"
                }
              ],
              "internalType": "struct MainSupplyChain.st_userCertificate",
              "name": "bpom",
              "type": "tuple"
            }
          ],
          "internalType": "struct MainSupplyChain.st_certificateDetails",
          "name": "details",
          "type": "tuple"
        },
        {
          "internalType": "enum EnumsLibrary.TipePermohonanCdob",
          "name": "tipePermohonan",
          "type": "uint8"
        }
      ],
      "stateMutability": "view",
      "type": "function"
    },
    {
      "inputs": [
        {
          "internalType": "string",
          "name": "",
          "type": "string"
        }
      ],
      "name": "cpotbDataById",
      "outputs": [
        {
          "internalType": "string",
          "name": "cpotbId",
          "type": "string"
        },
        {
          "internalType": "string",
          "name": "cpotbNumber",
          "type": "string"
        },
        {
          "components": [
            {
              "internalType": "enum EnumsLibrary.StatusCertificate",
              "name": "status",
              "type": "uint8"
            },
            {
              "internalType": "uint256",
              "name": "timestampRequest",
              "type": "uint256"
            },
            {
              "internalType": "uint256",
              "name": "timestampApprove",
              "type": "uint256"
            },
            {
              "components": [
                {
                  "internalType": "string",
                  "name": "userName",
                  "type": "string"
                },
                {
                  "internalType": "address",
                  "name": "userAddr",
                  "type": "address"
                },
                {
                  "internalType": "string",
                  "name": "userInstanceName",
                  "type": "string"
                }
              ],
              "internalType": "struct MainSupplyChain.st_userCertificate",
              "name": "sender",
              "type": "tuple"
            },
            {
              "components": [
                {
                  "internalType": "string",
                  "name": "userName",
                  "type": "string"
                },
                {
                  "internalType": "address",
                  "name": "userAddr",
                  "type": "address"
                },
                {
                  "internalType": "string",
                  "name": "userInstanceName",
                  "type": "string"
                }
              ],
              "internalType": "struct MainSupplyChain.st_userCertificate",
              "name": "bpom",
              "type": "tuple"
            }
          ],
          "internalType": "struct MainSupplyChain.st_certificateDetails",
          "name": "details",
          "type": "tuple"
        },
        {
          "internalType": "enum EnumsLibrary.TipePermohonanCpotb",
          "name": "tipePermohonan",
          "type": "uint8"
        }
      ],
      "stateMutability": "view",
      "type": "function"
    },
    {
      "inputs": [
        {
          "internalType": "string",
          "name": "_certId",
          "type": "string"
        }
      ],
      "name": "detailCdob",
      "outputs": [
        {
          "components": [
            {
              "internalType": "string",
              "name": "cdobId",
              "type": "string"
            },
            {
              "internalType": "string",
              "name": "cdobNumber",
              "type": "string"
            },
            {
              "components": [
                {
                  "internalType": "enum EnumsLibrary.StatusCertificate",
                  "name": "status",
                  "type": "uint8"
                },
                {
                  "internalType": "uint256",
                  "name": "timestampRequest",
                  "type": "uint256"
                },
                {
                  "internalType": "uint256",
                  "name": "timestampApprove",
                  "type": "uint256"
                },
                {
                  "components": [
                    {
                      "internalType": "string",
                      "name": "userName",
                      "type": "string"
                    },
                    {
                      "internalType": "address",
                      "name": "userAddr",
                      "type": "address"
                    },
                    {
                      "internalType": "string",
                      "name": "userInstanceName",
                      "type": "string"
                    }
                  ],
                  "internalType": "struct MainSupplyChain.st_userCertificate",
                  "name": "sender",
                  "type": "tuple"
                },
                {
                  "components": [
                    {
                      "internalType": "string",
                      "name": "userName",
                      "type": "string"
                    },
                    {
                      "internalType": "address",
                      "name": "userAddr",
                      "type": "address"
                    },
                    {
                      "internalType": "string",
                      "name": "userInstanceName",
                      "type": "string"
                    }
                  ],
                  "internalType": "struct MainSupplyChain.st_userCertificate",
                  "name": "bpom",
                  "type": "tuple"
                }
              ],
              "internalType": "struct MainSupplyChain.st_certificateDetails",
              "name": "details",
              "type": "tuple"
            },
            {
              "internalType": "enum EnumsLibrary.TipePermohonanCdob",
              "name": "tipePermohonan",
              "type": "uint8"
            }
          ],
          "internalType": "struct MainSupplyChain.st_cdob",
          "name": "",
          "type": "tuple"
        }
      ],
      "stateMutability": "view",
      "type": "function"
    },
    {
      "inputs": [
        {
          "internalType": "string",
          "name": "_certId",
          "type": "string"
        }
      ],
      "name": "detailCpotb",
      "outputs": [
        {
          "components": [
            {
              "internalType": "string",
              "name": "cpotbId",
              "type": "string"
            },
            {
              "internalType": "string",
              "name": "cpotbNumber",
              "type": "string"
            },
            {
              "components": [
                {
                  "internalType": "enum EnumsLibrary.StatusCertificate",
                  "name": "status",
                  "type": "uint8"
                },
                {
                  "internalType": "uint256",
                  "name": "timestampRequest",
                  "type": "uint256"
                },
                {
                  "internalType": "uint256",
                  "name": "timestampApprove",
                  "type": "uint256"
                },
                {
                  "components": [
                    {
                      "internalType": "string",
                      "name": "userName",
                      "type": "string"
                    },
                    {
                      "internalType": "address",
                      "name": "userAddr",
                      "type": "address"
                    },
                    {
                      "internalType": "string",
                      "name": "userInstanceName",
                      "type": "string"
                    }
                  ],
                  "internalType": "struct MainSupplyChain.st_userCertificate",
                  "name": "sender",
                  "type": "tuple"
                },
                {
                  "components": [
                    {
                      "internalType": "string",
                      "name": "userName",
                      "type": "string"
                    },
                    {
                      "internalType": "address",
                      "name": "userAddr",
                      "type": "address"
                    },
                    {
                      "internalType": "string",
                      "name": "userInstanceName",
                      "type": "string"
                    }
                  ],
                  "internalType": "struct MainSupplyChain.st_userCertificate",
                  "name": "bpom",
                  "type": "tuple"
                }
              ],
              "internalType": "struct MainSupplyChain.st_certificateDetails",
              "name": "details",
              "type": "tuple"
            },
            {
              "internalType": "enum EnumsLibrary.TipePermohonanCpotb",
              "name": "tipePermohonan",
              "type": "uint8"
            }
          ],
          "internalType": "struct MainSupplyChain.st_cpotb",
          "name": "",
          "type": "tuple"
        }
      ],
      "stateMutability": "view",
      "type": "function"
    },
    {
      "inputs": [],
      "name": "getListAllCdob",
      "outputs": [
        {
          "components": [
            {
              "internalType": "string",
              "name": "certId",
              "type": "string"
            },
            {
              "internalType": "string",
              "name": "certNumber",
              "type": "string"
            },
            {
              "internalType": "string",
              "name": "instanceName",
              "type": "string"
            },
            {
              "internalType": "string",
              "name": "certificateType",
              "type": "string"
            },
            {
              "internalType": "uint8",
              "name": "tipePermohonan",
              "type": "uint8"
            },
            {
              "internalType": "enum EnumsLibrary.StatusCertificate",
              "name": "status",
              "type": "uint8"
            }
          ],
          "internalType": "struct MainSupplyChain.st_certificateList[]",
          "name": "",
          "type": "tuple[]"
        }
      ],
      "stateMutability": "view",
      "type": "function"
    },
    {
      "inputs": [
        {
          "internalType": "string",
          "name": "_instanceName",
          "type": "string"
        }
      ],
      "name": "getListAllCertificateByInstance",
      "outputs": [
        {
          "components": [
            {
              "internalType": "string",
              "name": "certId",
              "type": "string"
            },
            {
              "internalType": "string",
              "name": "certNumber",
              "type": "string"
            },
            {
              "internalType": "string",
              "name": "instanceName",
              "type": "string"
            },
            {
              "internalType": "string",
              "name": "certificateType",
              "type": "string"
            },
            {
              "internalType": "uint8",
              "name": "tipePermohonan",
              "type": "uint8"
            },
            {
              "internalType": "enum EnumsLibrary.StatusCertificate",
              "name": "status",
              "type": "uint8"
            }
          ],
          "internalType": "struct MainSupplyChain.st_certificateList[]",
          "name": "",
          "type": "tuple[]"
        }
      ],
      "stateMutability": "view",
      "type": "function"
    },
    {
      "inputs": [],
      "name": "getListAllCpotb",
      "outputs": [
        {
          "components": [
            {
              "internalType": "string",
              "name": "certId",
              "type": "string"
            },
            {
              "internalType": "string",
              "name": "certNumber",
              "type": "string"
            },
            {
              "internalType": "string",
              "name": "instanceName",
              "type": "string"
            },
            {
              "internalType": "string",
              "name": "certificateType",
              "type": "string"
            },
            {
              "internalType": "uint8",
              "name": "tipePermohonan",
              "type": "uint8"
            },
            {
              "internalType": "enum EnumsLibrary.StatusCertificate",
              "name": "status",
              "type": "uint8"
            }
          ],
          "internalType": "struct MainSupplyChain.st_certificateList[]",
          "name": "",
          "type": "tuple[]"
        }
      ],
      "stateMutability": "view",
      "type": "function"
    },
    {
      "inputs": [
        {
          "internalType": "address",
          "name": "_userAddr",
          "type": "address"
        }
      ],
      "name": "getRegisteredUser",
      "outputs": [
        {
          "internalType": "address",
          "name": "",
          "type": "address"
        },
        {
          "internalType": "string",
          "name": "",
          "type": "string"
        },
        {
          "internalType": "string",
          "name": "",
          "type": "string"
        },
        {
          "internalType": "uint8",
          "name": "",
          "type": "uint8"
        }
      ],
      "stateMutability": "view",
      "type": "function"
    },
    {
      "inputs": [
        {
          "internalType": "string",
          "name": "_name",
          "type": "string"
        },
        {
          "internalType": "string",
          "name": "_instanceName",
          "type": "string"
        },
        {
          "internalType": "address",
          "name": "_userAddr",
          "type": "address"
        },
        {
          "internalType": "uint8",
          "name": "_userRole",
          "type": "uint8"
        }
      ],
      "name": "registerUser",
      "outputs": [],
      "stateMutability": "nonpayable",
      "type": "function"
    },
    {
      "inputs": [
        {
          "components": [
            {
              "internalType": "string",
              "name": "certId",
              "type": "string"
            },
            {
              "internalType": "string",
              "name": "senderName",
              "type": "string"
            },
            {
              "internalType": "string",
              "name": "senderInstance",
              "type": "string"
            }
          ],
          "internalType": "struct MainSupplyChain.st_certificateRequest",
          "name": "requestData",
          "type": "tuple"
        },
        {
          "internalType": "uint8",
          "name": "_tipePermohonanCdob",
          "type": "uint8"
        }
      ],
      "name": "requestCdob",
      "outputs": [],
      "stateMutability": "nonpayable",
      "type": "function"
    },
    {
      "inputs": [
        {
          "components": [
            {
              "internalType": "string",
              "name": "certId",
              "type": "string"
            },
            {
              "internalType": "string",
              "name": "senderName",
              "type": "string"
            },
            {
              "internalType": "string",
              "name": "senderInstance",
              "type": "string"
            }
          ],
          "internalType": "struct MainSupplyChain.st_certificateRequest",
          "name": "requestData",
          "type": "tuple"
        },
        {
          "internalType": "uint8",
          "name": "_tipePermohonanCpotb",
          "type": "uint8"
        }
      ],
      "name": "requestCpotb",
      "outputs": [],
      "stateMutability": "nonpayable",
      "type": "function"
    }
  ],
  "bytecode": "0x608034607057601f61481a38819003918201601f19168301916001600160401b03831184841017607557808492602094604052833981010312607057516001600160a01b03811690819003607057600080546001600160a01b03191691909117905560405161478e908161008c8239f35b600080fd5b634e487b7160e01b600052604160045260246000fdfe6080604052600436101561001257600080fd5b6000803560e01c80632592e5111461354e578063387bb30e146127895780634c3ba6fd146126be5780636aa812991461260b5780636d2a362f1461179f5780636f8e6197146116af578063711255af1461159c57806372c17cb9146114e45780637ee90ded14611464578063950d4d7414610cee578063a814a60f14610ba9578063cec1fc1e14610b09578063d12336721461093f578063e49d0327146102fa578063e54a29bb146101c75763ec176587146100cd57600080fd5b346101c457806003193601126101c4576100ed6100e86143d0565b6146ea565b61011e60ff60405160208101906431b837ba3160d91b825260058152610114602582613cab565b51902092166144e3565b918091600454925b83811061013f576040518061013b87826141fe565b0390f35b81600361016561017361015185613ece565b50604051928391602083019586910161431f565b03601f198101835282613cab565b51902014610184575b600101610126565b916101bc6001916101b66101a061019a87613ece565b50614547565b60ff8316906101af828b614533565b5288614533565b506145b6565b92905061017c565b80fd5b50346101c45760203660031901126101c4576004356001600160a01b038116908190036102eb57815460405163e54a29bb60e01b815260048101929092528290829060249082906001600160a01b03165afa80156102ef5782808093819361025a575b50600483101561024657509061013b91604051948594856142c6565b634e487b7160e01b81526021600452602490fd5b9450925050503d8082843e61026f8184613cab565b8201906080838303126101c45782516001600160401b0381116102eb57826102989185016145dd565b9160208401516001600160401b0381116102e757906102b89185016145dd565b604084015190936001600160a01b03821682036102e757606001519260048410156102e757939092913861022a565b8280fd5b5080fd5b6040513d84823e3d90fd5b50346101c45760203660031901126101c4576004356001600160401b0381116102eb576020610330610343923690600401613ce7565b8160405193828580945193849201613ffd565b81016003815203019020604051808160208454928381520180948652602086209286905b80601f83011061079757610480945491818110610783575b81811061076c575b818110610755575b81811061073e575b818110610728575b818110610711575b8181106106fa575b8181106106e3575b8181106106cc575b8181106106b5575b81811061069e575b818110610687575b818110610670575b818110610659575b818110610642575b81811061062b575b818110610614575b8181106105fd575b8181106105e6575b8181106105cf575b8181106105b8575b8181106105a1575b81811061058a575b818110610573575b81811061055c575b818110610545575b81811061052e575b818110610517575b818110610500575b8181106104e9575b8181106104d2575b106104c4575b509392930383613cab565b604051928392602084019060208552518091526040840192915b8181106104a8575050500390f35b825160ff1684528594506020938401939092019160010161049a565b60f81c815260200138610475565b92602060019160ff8560f01c16815201930161046f565b92602060019160ff8560e81c168152019301610467565b92602060019160ff8560e01c16815201930161045f565b92602060019160ff8560d81c168152019301610457565b92602060019160ff8560d01c16815201930161044f565b92602060019160ff8560c81c168152019301610447565b92602060019160ff8560c01c16815201930161043f565b92602060019160ff8560b81c168152019301610437565b92602060019160ff8560b01c16815201930161042f565b92602060019160ff8560a81c168152019301610427565b92602060019160ff8560a01c16815201930161041f565b92602060019160ff8560981c168152019301610417565b92602060019160ff8560901c16815201930161040f565b92602060019160ff8560881c168152019301610407565b92602060019160ff8560801c1681520193016103ff565b92602060019160ff8560781c1681520193016103f7565b92602060019160ff8560701c1681520193016103ef565b92602060019160ff8560681c1681520193016103e7565b92602060019160ff8560601c1681520193016103df565b92602060019160ff8560581c1681520193016103d7565b92602060019160ff8560501c1681520193016103cf565b92602060019160ff8560481c1681520193016103c7565b92602060019160ff8560401c1681520193016103bf565b92602060019160ff8560381c1681520193016103b7565b92602060019160ff8560301c1681520193016103af565b92602060019160ff8560281c1681520193016103a7565b92602060019160ff85831c16815201930161039f565b92602060019160ff8560181c168152019301610397565b92602060019160ff8560101c16815201930161038f565b92602060019160ff8560081c168152019301610387565b92602060019160ff8516815201930161037f565b916020919350610400600191865460ff8116825260ff8160081c168583015260ff8160101c16604083015260ff8160181c16606083015260ff81861c16608083015260ff8160281c1660a083015260ff8160301c1660c083015260ff8160381c1660e083015260ff8160401c1661010083015260ff8160481c1661012083015260ff8160501c1661014083015260ff8160581c1661016083015260ff8160601c1661018083015260ff8160681c166101a083015260ff8160701c166101c083015260ff8160781c166101e083015260ff8160801c1661020083015260ff8160881c1661022083015260ff8160901c1661024083015260ff8160981c1661026083015260ff8160a01c1661028083015260ff8160a81c166102a083015260ff8160b01c166102c083015260ff8160b81c166102e083015260ff8160c01c1661030083015260ff8160c81c1661032083015260ff8160d01c1661034083015260ff8160d81c1661036083015260ff8160e01c1661038083015260ff8160e81c166103a083015260ff8160f01c166103c083015260f81c6103e0820152019401920184929391610367565b50346101c45760803660031901126101c4576004356001600160401b0381116102eb57610970903690600401613ce7565b906024356001600160401b0381116102eb57610990903690600401613ce7565b6044356001600160a01b03811693908490036102e7576064359360ff851690818603610aac573303610ac45783546001600160a01b03166004821015610ab057803b15610aac578491829160405180948180946368919b3960e11b825260806004830152610a16610a04608484018b614020565b8381036003190160248501528b614020565b90336044840152606483015203925af18015610aa157610a6b575b50610a657f93b86cf0a1d8e18e724e08d47f7248859de317795be109ec2495f6fc7445b4e9939460405193849333856142c6565b0390a180f35b83610a9a7f93b86cf0a1d8e18e724e08d47f7248859de317795be109ec2495f6fc7445b4e995610a6593613cab565b9350610a31565b6040513d86823e3d90fd5b8480fd5b634e487b7160e01b85526021600452602485fd5b60405162461bcd60e51b815260206004820152601760248201527f53656e6465722061646472657373206d69736d617463680000000000000000006044820152606490fd5b50346101c457806003193601126101c457610b256100e86143f3565b610b4b60ff60405160208101906331b237b160e11b825260048152610114602482613cab565b918091600454925b838110610b68576040518061013b87826141fe565b816003610165610b7a61015185613ece565b51902014610b8b575b600101610b53565b91610ba16001916101b66101a061019a87613ece565b929050610b83565b50346101c45760203660031901126101c4576004356001600160401b0381116102eb57610bda903690600401613ce7565b6004546020820192909181805b848110610c98575060ff610bfb91166144e3565b93825b848110610c13576040518061013b88826141fe565b6002610165610c2461015184613ece565b5190206040516020810190610c536020828851610c4281878b613ffd565b81010301601f198101835282613cab565b51902014610c64575b600101610bfe565b92610c906001916101b6610c7a61019a88613ece565b60ff831690610c89828c614533565b5289614533565b939050610c5c565b6002610165610ca961015184613ece565b5190206040516020810190610cc960208284610c428d8b51928391613ffd565b51902014610cda575b600101610be7565b90610ce66001916145b6565b919050610cd2565b50346101c457610cfd36613d33565b82546040516395a8c58d60e01b81523360048201526002602482015291929190602090829060449082906001600160a01b03165afa908115610aa1578491611435575b50156113f05760208101610d54815161408b565b92610d5f8454613f1f565b156113ba57600284019360ff855416610d7781614045565b61137557604084015194610d9360608601968751903390614647565b6008830181518051906001600160401b038211611361578190610db68454613f1f565b601f8111611311575b50602090601f83116001146112ae578c926112a3575b50508160011b916000199060031b1c19161790555b60208101516009840180546001600160a01b0319166001600160a01b0392909216919091179055604001518051600a8401916001600160401b03821161128f578190610e368454613f1f565b601f811161123f575b50602090601f83116001146111dc578b926111d1575b50508160011b916000199060031b1c19161790555b600160ff19825416179055426004820155600184519101908051906001600160401b0382116111bd578190610e9f8454613f1f565b601f811161116d575b50602090601f831160011461110a5789926110ff575b50508160011b916000199060031b1c19161790555b845b60045481101561108257610ee881613ece565b50604051610efe8161016560208201809561431f565b5190208351604051610f2060208281610c428183019687815193849201613ffd565b51902014610f31575b600101610ed5565b83516001610f3e83613ece565b5001908051906001600160401b03821161106e57610f5c8354613f1f565b601f8111611029575b50602090601f8311600114610fc2576001949392918a9183610fb7575b5050600019600383901b1c191690841b1790555b6004610fa182613ece565b5001805461ff0019166101001790559050610f29565b015190503880610f82565b838a52818a209190601f1984168b5b818110611011575091600196959492918388959310610ff8575b505050811b019055610f96565b015160001960f88460031b161c19169055388080610feb565b92936020600181928786015181550195019301610fd1565b838a5260208a20601f840160051c81019160208510611064575b601f0160051c01905b8181106110595750610f65565b8a815560010161104c565b9091508190611043565b634e487b7160e01b89526041600452602489fd5b857f8d8f26b533bc5f62a32de1faa67facbf43e75bd50ab3e60343fd421507e8dd636110d1846110f38860ff8b519316906110bc82614045565b5160405194859460a0865260a0860190614020565b913360208601526110e181614045565b60408501528382036060850152614020565b4260808301520390a180f35b015190503880610ebe565b848a52818a209250601f1984168a5b818110611155575090846001959493921061113c575b505050811b019055610ed3565b015160001960f88460031b161c1916905538808061112f565b92936020600181928786015181550195019301611119565b90915083895260208920601f840160051c810191602085106111b3575b90601f859493920160051c01905b8181106111a55750610ea8565b8a8155849350600101611198565b909150819061118a565b634e487b7160e01b88526041600452602488fd5b015190503880610e55565b848c52818c209250601f1984168c5b818110611227575090846001959493921061120e575b505050811b019055610e6a565b015160001960f88460031b161c19169055388080611201565b929360206001819287860151815501950193016111eb565b909150838b5260208b20601f840160051c81019160208510611285575b90601f859493920160051c01905b8181106112775750610e3f565b8c815584935060010161126a565b909150819061125c565b634e487b7160e01b8a52604160045260248afd5b015190503880610dd5565b848d52818d209250601f1984168d5b8181106112f957509084600195949392106112e0575b505050811b019055610dea565b015160001960f88460031b161c191690553880806112d3565b929360206001819287860151815501950193016112bd565b909150838c5260208c20601f840160051c81019160208510611357575b90601f859493920160051c01905b8181106113495750610dbf565b8d815584935060010161133c565b909150819061132e565b634e487b7160e01b8b52604160045260248bfd5b60405162461bcd60e51b815260206004820152601f60248201527f43444f4220737461747573206d757374206265202752657175657374656427006044820152606490fd5b60405162461bcd60e51b815260206004820152600e60248201526d10d113d0881b9bdd08199bdd5b9960921b6044820152606490fd5b60405162461bcd60e51b815260206004820152601e60248201527f416363657373207265737472696374656420746f2042504f4d20726f6c6500006044820152606490fd5b611457915060203d60201161145d575b61144f8183613cab565b8101906143ac565b38610d40565b503d611445565b50346101c45760403660031901126101c4576004356001600160401b0381116102eb57611495903690600401613ce7565b906114b26020602435938160405193828580945193849201613ffd565b810160038152030190209081548310156101c457602060ff6114d485856141de565b90549060031b1c16604051908152f35b50346101c45760203660031901126101c457600435906001600160401b0382116101c45761156d61151d60206103303660048701613ce7565b8101600281520301902061153081613f59565b9061158961154060018301613f59565b9161157b60ff600b611554600285016140f0565b9301541693604051968796608088526080880190614020565b908682036020880152614020565b908482036040860152614180565b9061159381614045565b60608301520390f35b50346101c45760203660031901126101c457600435906001600160401b0382116101c4576116756115f160206115d53660048701613ce7565b6115dd61446c565b508160405193828580945193849201613ffd565b810160028152030190206040519061160882613c29565b61161181613f59565b825261169b61162260018301613f59565b916020840192835261168860ff600b61163d600285016140f0565b936040880194855201541693606086019461165781614045565b855260405196879660208852516080602089015260a0880190614020565b9051868203601f19016040880152614020565b9051848203601f19016060860152614180565b90516116a681614045565b60808301520390f35b50346101c45760203660031901126101c457600435906001600160401b0382116101c45761176d6116e860206115d53660048701613ce7565b81016001815203019020604051906116ff82613c29565b61170881613f59565b825261013b61179361171c60018401613f59565b926020850193845261178060ff600b611737600285016140f0565b9360408901948552015416946117516060880196876143c4565b6040519788976020895251608060208a015260a0890190614020565b9051878203601f19016040890152614020565b9051858203601f19016060870152614180565b915160808401906141d1565b50346101c4576117ae36613e14565b82546040516395a8c58d60e01b81523360048201526001602482015291929190602090829060449082906001600160a01b03165afa908115610aa15784916125ec575b50156125a75761180a611804825161408b565b54613f1f565b61256957602081015161182560408301918251903390614647565b9161185b60209361185560405161183c8782613cab565b8881526040519061184d8883613cab565b89825261461f565b90614677565b60ff825195169461186b86614045565b6040519061187882613c29565b8152604051916118888684613cab565b8783528582019283526040820190815260608201926118a688614045565b8784526118b3855161408b565b92518051906001600160401b0382116113615781906118d28654613f1f565b601f811161251b575b508990601f83116001146124b8578c926124ad575b50508160011b916000199060031b1c19161783555b51805160018401916001600160401b0382116113615781906119278454613f1f565b601f811161245f575b508990601f83116001146123fc578c926123f1575b50508160011b916000199060031b1c19161790555b51611972815161196981614045565b60028401614307565b8086015160038301556040810151600483015560608101518051805160058501916001600160401b0382116123dd5781906119ad8454613f1f565b601f811161238c575b508a908d601f8411600114612329579261231e575b50508160011b916000199060031b1c19161790555b808701516006840180546001600160a01b0319166001600160a01b039290921691909117905560400151805160078401916001600160401b038211611361578190611a2b8454613f1f565b601f81116122d0575b508990601f831160011461226d578c92612262575b50508160011b916000199060031b1c19161790555b608001518051805160088401916001600160401b038211611361578190611a858454613f1f565b601f8111612214575b508990601f83116001146121b1578c926121a6575b50508160011b916000199060031b1c19161790555b808601516009830180546001600160a01b0319166001600160a01b0392909216919091179055604001518051600a8301916001600160401b03821161128f57611b018354613f1f565b601f8111612163575b508790601f83116001146120f7579180600b9492611b96989796948d926120ec575b50508160011b916000199060031b1c19161790555b019051611b4d81614045565b611b5681614045565b60ff8019835416911617905551848351611b6f82614045565b611b7882614045565b604051611b858782613cab565b888152611b906143f3565b936146ac565b600454600160401b8110156120d857806001611bb792016004556004613f03565b6120c45781518051906001600160401b0382116111bd578190611bda8454613f1f565b601f8111612076575b508690601f8311600114612013578992612008575b50508160011b916000199060031b1c19161781555b60018101848301518051906001600160401b03821161106e578190611c328454613f1f565b601f8111611fba575b508790601f8311600114611f57578a92611f4c575b50508160011b916000199060031b1c19161790555b6002810160408301518051906001600160401b03821161106e578190611c8b8454613f1f565b601f8111611efe575b508790601f8311600114611e9b578a92611e90575b50508160011b916000199060031b1c19161790555b6003810160608301518051906001600160401b03821161106e57611ce28354613f1f565b601f8111611e4d575b50869089601f8411600114611db95794611d6f9484611d8e9a989560a0956004957f7002576f080ade70048a03ad81b929b78c8b7e148fd11f40f286a8b6900e6f9b9e9c9a92611dae575b50508160011b916000199060031b1c19161790555b019160ff60808201511660ff19845416178355015190611d6a82614045565b61438d565b5191611d7a81614045565b604051938493608085526080850190614020565b913390840152611d9d81614045565b60408301524260608301520390a180f35b015190503880611d36565b50838a52878a209190601f1984168b5b818110611e3657509460018560a0956004957f7002576f080ade70048a03ad81b929b78c8b7e148fd11f40f286a8b6900e6f9b9e9c9a95611d8e9e9c99611d6f9b10611e1d575b505050811b019055611d4b565b015160001960f88460031b161c19169055388080611e10565b92938a600181928786015181550195019301611dc9565b838a52878a20601f840160051c810191898510611e86575b601f0160051c01905b818110611e7b5750611ceb565b8a8155600101611e6e565b9091508190611e65565b015190503880611ca9565b848b52888b209250601f1984168b5b8a828210611ee8575050908460019594939210611ecf575b505050811b019055611cbe565b015160001960f88460031b161c19169055388080611ec2565b6001859682939686015181550195019301611eaa565b909150838a52878a20601f840160051c810191898510611f42575b90601f859493920160051c01905b818110611f345750611c94565b8b8155849350600101611f27565b9091508190611f19565b015190503880611c50565b848b52888b209250601f1984168b5b8a828210611fa4575050908460019594939210611f8b575b505050811b019055611c65565b015160001960f88460031b161c19169055388080611f7e565b6001859682939686015181550195019301611f66565b909150838a52878a20601f840160051c810191898510611ffe575b90601f859493920160051c01905b818110611ff05750611c3b565b8b8155849350600101611fe3565b9091508190611fd5565b015190503880611bf8565b848a52878a209250601f1984168a5b89828210612060575050908460019594939210612047575b505050811b018155611c0d565b015160001960f88460031b161c1916905538808061203a565b6001859682939686015181550195019301612022565b909150838952868920601f840160051c8101918885106120ba575b90601f859493920160051c01905b8181106120ac5750611be3565b8a815584935060010161209f565b9091508190612091565b634e487b7160e01b86526004869052602486fd5b634e487b7160e01b86526041600452602486fd5b015190503880611b2c565b838b52888b209190601f1984168c5b8b82821061214d575050926001928592611b969a999896600b989610612134575b505050811b019055611b41565b015160001960f88460031b161c19169055388080612127565b6001859682939686015181550195019301612106565b838b52888b20601f840160051c8101918a851061219c575b601f0160051c01905b8181106121915750611b0a565b8b8155600101612184565b909150819061217b565b015190503880611aa3565b848d528a8d209250601f1984168d5b8c8282106121fe5750509084600195949392106121e5575b505050811b019055611ab8565b015160001960f88460031b161c191690553880806121d8565b60018596829396860151815501950193016121c0565b909150838c52898c20601f840160051c8101918b8510612258575b90601f859493920160051c01905b81811061224a5750611a8e565b8d815584935060010161223d565b909150819061222f565b015190503880611a49565b848d528a8d209250601f1984168d5b8c8282106122ba5750509084600195949392106122a1575b505050811b019055611a5e565b015160001960f88460031b161c19169055388080612294565b600185968293968601518155019501930161227c565b909150838c52898c20601f840160051c8101918b8510612314575b90601f859493920160051c01905b8181106123065750611a34565b8d81558493506001016122f9565b90915081906122eb565b0151905038806119cb565b8581528c81209350601f198516905b8d82821061237657505090846001959493921061235d575b505050811b0190556119e0565b015160001960f88460031b161c19169055388080612350565b6001859682939686015181550195019301612338565b909150838d528a8d20601f840160051c8101918c85106123d3575b849392918f91601f0160051c0191905b8282106123c55750506119b6565b81558493506001018e6123b7565b90915081906123a7565b634e487b7160e01b8c52604160045260248cfd5b015190503880611945565b848d528a8d209250601f1984168d5b8c828210612449575050908460019594939210612430575b505050811b01905561195a565b015160001960f88460031b161c19169055388080612423565b600185968293968601518155019501930161240b565b909150838c52898c20601f840160051c8101918b85106124a3575b90601f859493920160051c01905b8181106124955750611930565b8d8155849350600101612488565b909150819061247a565b0151905038806118f0565b868d528a8d209250601f1984168d5b8c8282106125055750509084600195949392106124ec575b505050811b018355611905565b015160001960f88460031b161c191690553880806124df565b60018596829396860151815501950193016124c7565b909150858c52898c20601f840160051c8101918b851061255f575b90601f859493920160051c01905b81811061255157506118db565b8d8155849350600101612544565b9091508190612536565b60405162461bcd60e51b815260206004820152601660248201527543444f4220494420616c72656164792065786973747360501b6044820152606490fd5b60405162461bcd60e51b815260206004820152601d60248201527f416363657373207265737472696374656420746f2050424620726f6c650000006044820152606490fd5b612605915060203d60201161145d5761144f8183613cab565b386117f1565b50346101c45760203660031901126101c457600435906001600160401b0382116101c45761269761264460206103303660048701613ce7565b8101600181520301902061265781613f59565b9061013b6126b361266a60018401613f59565b926126a560ff600b61267e600285016140f0565b9301541694604051978897608089526080890190614020565b908782036020890152614020565b908582036040870152614180565b9160608401906141d1565b50346101c45760203660031901126101c457600435906004548210156101c4576127466126ea83613ece565b506126f481613f59565b9061270160018201613f59565b60ff61277061271260028501613f59565b93612762600461272460038401613f59565b92015495612754858860081c16966040519a8b9a60c08c5260c08c0190614020565b908a820360208c0152614020565b9088820360408a0152614020565b908682036060880152614020565b9216608084015261278081614045565b60a08301520390f35b50346101c45761279836613e14565b906044602060018060a01b03855416604051928380926395a8c58d60e01b82523360048301528860248301525afa908115610aa157849161352f575b50156134e0576127e76118048251614065565b61349b57602081015161280260408301918251903390614647565b9161281960209361185560405161183c8782613cab565b60ff82519516946009861015613023576040519061283682613c29565b8152604051916128468684613cab565b87835285820192835260408201908152606082019261286588856143c4565b61286f8551614065565b92518051906001600160401b03821161136157819061288e8654613f1f565b601f811161344d575b508990601f83116001146133ea578c926133df575b50508160011b916000199060031b1c19161783555b51805160018401916001600160401b0382116113615781906128e38454613f1f565b601f8111613391575b508990601f831160011461332e578c92613323575b50508160011b916000199060031b1c19161790555b51612925815161196981614045565b8086015160038301556040810151600483015560608101518051805160058501916001600160401b0382116123dd5781906129608454613f1f565b601f81116132d2575b508a908d601f841160011461326f5792613264575b50508160011b916000199060031b1c19161790555b808701516006840180546001600160a01b0319166001600160a01b039290921691909117905560400151805160078401916001600160401b0382116113615781906129de8454613f1f565b601f8111613216575b508990601f83116001146131b3578c926131a8575b50508160011b916000199060031b1c19161790555b608001518051805160088401916001600160401b038211611361578190612a388454613f1f565b601f811161315a575b508990601f83116001146130f7578c926130ec575b50508160011b916000199060031b1c19161790555b808601516009830180546001600160a01b0319166001600160a01b0392909216919091179055604001518051600a8301916001600160401b03821161128f57612ab48354613f1f565b601f81116130a9575b508790601f831160011461304257600b949392918b9183613037575b50508160011b916000199060031b1c19161790555b01905160098110156130235790612b28929160ff8019835416911617905551848351604051612b1d8782613cab565b888152611b906143d0565b600454600160401b8110156120d857806001612b4992016004556004613f03565b6120c45781518051906001600160401b0382116111bd578190612b6c8454613f1f565b601f8111612fd5575b508690601f8311600114612f72578992612f67575b50508160011b916000199060031b1c19161781555b60018101848301518051906001600160401b03821161106e578190612bc48454613f1f565b601f8111612f19575b508790601f8311600114612eb6578a92612eab575b50508160011b916000199060031b1c19161790555b6002810160408301518051906001600160401b03821161106e578190612c1d8454613f1f565b601f8111612e5d575b508790601f8311600114612dfa578a92612def575b50508160011b916000199060031b1c19161790555b6003810160608301518051906001600160401b03821161106e57612c748354613f1f565b601f8111612dac575b50869089601f8411600114612d2f57612d23957f99dcabd81899d5894d4391d9586c557b10a0d34a881adfc4769ad41e9166cda09a989585612cfd96612d139c9a9660a09660049692611dae5750508160011b916000199060031b1c1916179055019160ff60808201511660ff19845416178355015190611d6a82614045565b5192604051948594608086526080860190614020565b92339085015260408401906141d1565b4260608301520390a180f35b50838a52878a209190601f1984168b5b818110612d955750957f99dcabd81899d5894d4391d9586c557b10a0d34a881adfc4769ad41e9166cda09a9895600186612d139c9a9660a096600496612cfd9a612d239d10611e1d57505050811b019055611d4b565b92938a600181928786015181550195019301612d3f565b838a52878a20601f840160051c810191898510612de5575b601f0160051c01905b818110612dda5750612c7d565b8a8155600101612dcd565b9091508190612dc4565b015190503880612c3b565b848b52888b209250601f1984168b5b8a828210612e47575050908460019594939210612e2e575b505050811b019055612c50565b015160001960f88460031b161c19169055388080612e21565b6001859682939686015181550195019301612e09565b909150838a52878a20601f840160051c810191898510612ea1575b90601f859493920160051c01905b818110612e935750612c26565b8b8155849350600101612e86565b9091508190612e78565b015190503880612be2565b848b52888b209250601f1984168b5b8a828210612f03575050908460019594939210612eea575b505050811b019055612bf7565b015160001960f88460031b161c19169055388080612edd565b6001859682939686015181550195019301612ec5565b909150838a52878a20601f840160051c810191898510612f5d575b90601f859493920160051c01905b818110612f4f5750612bcd565b8b8155849350600101612f42565b9091508190612f34565b015190503880612b8a565b848a52878a209250601f1984168a5b89828210612fbf575050908460019594939210612fa6575b505050811b018155612b9f565b015160001960f88460031b161c19169055388080612f99565b6001859682939686015181550195019301612f81565b909150838952868920601f840160051c810191888510613019575b90601f859493920160051c01905b81811061300b5750612b75565b8a8155849350600101612ffe565b9091508190612ff0565b634e487b7160e01b87526021600452602487fd5b015190503880612ad9565b838b52888b209190601f1984168c5b8b828210613093575050916001939185600b989796941061307a575b505050811b019055612aee565b015160001960f88460031b161c1916905538808061306d565b6001859682939686015181550195019301613051565b838b52888b20601f840160051c8101918a85106130e2575b601f0160051c01905b8181106130d75750612abd565b8b81556001016130ca565b90915081906130c1565b015190503880612a56565b848d528a8d209250601f1984168d5b8c82821061314457505090846001959493921061312b575b505050811b019055612a6b565b015160001960f88460031b161c1916905538808061311e565b6001859682939686015181550195019301613106565b909150838c52898c20601f840160051c8101918b851061319e575b90601f859493920160051c01905b8181106131905750612a41565b8d8155849350600101613183565b9091508190613175565b0151905038806129fc565b848d528a8d209250601f1984168d5b8c8282106132005750509084600195949392106131e7575b505050811b019055612a11565b015160001960f88460031b161c191690553880806131da565b60018596829396860151815501950193016131c2565b909150838c52898c20601f840160051c8101918b851061325a575b90601f859493920160051c01905b81811061324c57506129e7565b8d815584935060010161323f565b9091508190613231565b01519050388061297e565b8581528c81209350601f198516905b8d8282106132bc5750509084600195949392106132a3575b505050811b019055612993565b015160001960f88460031b161c19169055388080613296565b600185968293968601518155019501930161327e565b909150838d528a8d20601f840160051c8101918c8510613319575b849392918f91601f0160051c0191905b82821061330b575050612969565b81558493506001018e6132fd565b90915081906132ed565b015190503880612901565b848d528a8d209250601f1984168d5b8c82821061337b575050908460019594939210613362575b505050811b019055612916565b015160001960f88460031b161c19169055388080613355565b600185968293968601518155019501930161333d565b909150838c52898c20601f840160051c8101918b85106133d5575b90601f859493920160051c01905b8181106133c757506128ec565b8d81558493506001016133ba565b90915081906133ac565b0151905038806128ac565b868d528a8d209250601f1984168d5b8c82821061343757505090846001959493921061341e575b505050811b0183556128c1565b015160001960f88460031b161c19169055388080613411565b60018596829396860151815501950193016133f9565b909150858c52898c20601f840160051c8101918b8510613491575b90601f859493920160051c01905b8181106134835750612897565b8d8155849350600101613476565b9091508190613468565b60405162461bcd60e51b815260206004820152601760248201527f43504f544220494420616c7265616479206578697374730000000000000000006044820152606490fd5b60405162461bcd60e51b815260206004820152602160248201527f416363657373207265737472696374656420746f20466163746f727920726f6c6044820152606560f81b6064820152608490fd5b613548915060203d60201161145d5761144f8183613cab565b386127d4565b50346101c45761355d36613d33565b906020810161356c8151614065565b926135778454613f1f565b15613bf257600284019360ff85541661358f81614045565b613bae576040840151946135ab60608601968751903390614647565b6008830181518051906001600160401b0382116113615781906135ce8454613f1f565b601f8111613b5e575b50602090601f8311600114613afb578c92613af0575b50508160011b916000199060031b1c19161790555b60208101516009840180546001600160a01b0319166001600160a01b0392909216919091179055604001518051600a8401916001600160401b03821161128f57819061364e8454613f1f565b601f8111613aa0575b50602090601f8311600114613a3d578b92613a32575b50508160011b916000199060031b1c19161790555b600160ff19825416179055426004820155835160018201908051906001600160401b03821161106e576136b58354613f1f565b601f81116139ed575b5060209089601f841160011461397b579461370294846020956103309560079560ff9a92613970575b50508160011b916000199060031b1c19161790555b01613f59565b81016003815203019020911690600982101561395c57805490600160401b8210156139485790613737916001820181556141de565b81549060031b9060ff84831b921b1916179055845b6004548110156138e55761375f81613ece565b506040516137758161016560208201809561431f565b519020835160405161379760208281610c428183019687815193849201613ffd565b519020146137a8575b60010161374c565b835160016137b583613ece565b5001908051906001600160401b03821161106e576137d38354613f1f565b601f81116138a0575b50602090601f8311600114613839576001949392918a918361382e575b5050600019600383901b1c191690841b1790555b600461381882613ece565b5001805461ff00191661010017905590506137a0565b0151905038806137f9565b838a52818a209190601f1984168b5b81811061388857509160019695949291838895931061386f575b505050811b01905561380d565b015160001960f88460031b161c19169055388080613862565b92936020600181928786015181550195019301613848565b838a5260208a20601f840160051c810191602085106138db575b601f0160051c01905b8181106138d057506137dc565b8a81556001016138c3565b90915081906138ba565b857f5f0795f9828e754b342c66dc560f8879d7982ca16fbeb97634e54f75bd39bfd761392a866110f3868a51925161393b60405195869560a0875260a0870190614020565b9233602087015260408601906141d1565b8382036060850152614020565b634e487b7160e01b87526041600452602487fd5b634e487b7160e01b86526021600452602486fd5b0151905038806136e7565b50838a52818a209190601f1984168b5b8181106139d55750946001856103309560079560ff9a956020996137029b106139bc575b505050811b0190556136fc565b015160001960f88460031b161c191690553880806139af565b9293602060018192878601518155019501930161398b565b838a5260208a20601f840160051c81019160208510613a28575b601f0160051c01905b818110613a1d57506136be565b8a8155600101613a10565b9091508190613a07565b01519050388061366d565b848c52818c209250601f1984168c5b818110613a885750908460019594939210613a6f575b505050811b019055613682565b015160001960f88460031b161c19169055388080613a62565b92936020600181928786015181550195019301613a4c565b909150838b5260208b20601f840160051c81019160208510613ae6575b90601f859493920160051c01905b818110613ad85750613657565b8c8155849350600101613acb565b9091508190613abd565b0151905038806135ed565b848d52818d209250601f1984168d5b818110613b465750908460019594939210613b2d575b505050811b019055613602565b015160001960f88460031b161c19169055388080613b20565b92936020600181928786015181550195019301613b0a565b909150838c5260208c20601f840160051c81019160208510613ba4575b90601f859493920160051c01905b818110613b9657506135d7565b8d8155849350600101613b89565b9091508190613b7b565b606460405162461bcd60e51b815260206004820152602060248201527f43504f544220737461747573206d7573742062652027526571756573746564276044820152fd5b60405162461bcd60e51b815260206004820152600f60248201526e10d413d510881b9bdd08199bdd5b99608a1b6044820152606490fd5b608081019081106001600160401b03821117613c4457604052565b634e487b7160e01b600052604160045260246000fd5b606081019081106001600160401b03821117613c4457604052565b60a081019081106001600160401b03821117613c4457604052565b60c081019081106001600160401b03821117613c4457604052565b90601f801991011681019081106001600160401b03821117613c4457604052565b6001600160401b038111613c4457601f01601f191660200190565b81601f82011215613d2e57803590613cfe82613ccc565b92613d0c6040519485613cab565b82845260208383010111613d2e57816000926020809301838601378301015290565b600080fd5b6040600319820112613d2e576004356001600160401b038111613d2e5760808183036003190112613d2e5760405191613d6b83613c29565b81600401356001600160401b038111613d2e57816004613d8d92850101613ce7565b835260248201356001600160401b038111613d2e57816004613db192850101613ce7565b602084015260448201356001600160401b038111613d2e57816004613dd892850101613ce7565b60408401526064820135916001600160401b038311613d2e57613dfe9201600401613ce7565b60608201529060243560ff81168103613d2e5790565b6040600319820112613d2e576004356001600160401b038111613d2e5760608183036003190112613d2e5760405191613e4c83613c5a565b81600401356001600160401b038111613d2e57816004613e6e92850101613ce7565b835260248201356001600160401b038111613d2e57816004613e9292850101613ce7565b60208401526044820135916001600160401b038311613d2e57613eb89201600401613ce7565b60408201529060243560ff81168103613d2e5790565b600454811015613eed5760046000526005602060002091020190600090565b634e487b7160e01b600052603260045260246000fd5b8054821015613eed576000526005602060002091020190600090565b90600182811c92168015613f4f575b6020831014613f3957565b634e487b7160e01b600052602260045260246000fd5b91607f1691613f2e565b9060405191826000825492613f6d84613f1f565b8084529360018116908115613fdb5750600114613f94575b50613f9292500383613cab565b565b90506000929192526020600020906000915b818310613fbf575050906020613f929282010138613f85565b6020919350806001915483858901015201910190918492613fa6565b905060209250613f9294915060ff191682840152151560051b82010138613f85565b60005b8381106140105750506000910152565b8181015183820152602001614000565b9060209161403981518092818552858086019101613ffd565b601f01601f1916010190565b6002111561404f57565b634e487b7160e01b600052602160045260246000fd5b602061407e918160405193828580945193849201613ffd565b8101600181520301902090565b60206140a4918160405193828580945193849201613ffd565b8101600281520301902090565b906040516140be81613c5a565b60406140eb600283956140d081613f59565b855260018101546001600160a01b0316602086015201613f59565b910152565b906040516140fd81613c75565b60806140eb6006839560ff81541661411481614045565b85526001810154602086015260028101546040860152614136600382016140b1565b6060860152016140b1565b61417d91604061415a8351606084526060840190614020565b9260018060a01b0360208201511660208401520151906040818403910152614020565b90565b61417d91815161418f81614045565b8152602082015160208201526040820151604082015260806141c0606084015160a0606085015260a0840190614141565b920151906080818403910152614141565b90600982101561404f5752565b9190918054831015613eed57600052601f60206000208360051c01921690565b602081016020825282518091526040820191602060408360051b8301019401926000915b83831061423157505050505090565b9091929394602080600192603f1985820301865288519060a08061429b614289614277614267875160c0885260c0880190614020565b888801518782038a890152614020565b60408701518682036040880152614020565b60608601518582036060870152614020565b9360ff60808201511660808501520151916142b583614045565b015297019301930191939290614222565b92614300906142f260609460ff9498979860018060a01b03168752608060208801526080870190614020565b908582036040870152614020565b9416910152565b9061431181614045565b60ff80198354169116179055565b6000929181549161432f83613f1f565b926001811690811561437a575060011461434857505050565b909192935060005260206000206000905b8382106143665750500190565b600181602092548486015201910190614359565b60ff191683525050811515909102019150565b9061439781614045565b61ff0082549160081b169061ff001916179055565b90816020910312613d2e57518015158103613d2e5790565b600982101561404f5752565b604051906143df604083613cab565b600582526431b837ba3160d91b6020830152565b60405190614402604083613cab565b600482526331b237b160e11b6020830152565b6040519061442282613c5a565b6060604083828152600060208201520152565b6040519061444282613c75565b8160008152600060208201526000604082015261445d614415565b606082015260806140eb614415565b6040519061447982613c29565b600060608381815281602082015261448f614435565b60408201520152565b6001600160401b038111613c445760051b60200190565b604051906144bc82613c90565b600060a0836060815260606020820152606060408201526060808201528260808201520152565b906144ed82614498565b6144fa6040519182613cab565b828152809261450b601f1991614498565b019060005b82811061451c57505050565b6020906145276144af565b82828501015201614510565b8051821015613eed5760209160051b010190565b9060405161455481613c90565b60a060ff6004839561456581613f59565b855261457360018201613f59565b602086015261458460028201613f59565b604086015261459560038201613f59565b60608601520154818116608085015260081c16916145b283614045565b0152565b60ff1660ff81146145c75760010190565b634e487b7160e01b600052601160045260246000fd5b81601f82011215613d2e5780516145f381613ccc565b926146016040519485613cab565b81845260208284010111613d2e5761417d9160208085019101613ffd565b90614628614415565b506040519161463683613c5a565b825260006020830152604082015290565b9190614651614415565b506040519261465f84613c5a565b83526001600160a01b03166020830152604082015290565b90614680614435565b506040519161468e83613c75565b60008352426020840152600060408401526060830152608082015290565b93909160ff93926146bb6144af565b50604051956146c987613c90565b8652602086015260408501526060840152166080820152600060a082015290565b60009060405161470a60208281610c428183019687815193849201613ffd565b5190206004549060005b8281106147215750505090565b81600361016561473361015185613ece565b51902014614744575b600101614714565b926147506001916145b6565b93905061473c56fea2646970667358221220f46c4c7ba2eca20722f1e7d3f373bd1742581bc45d2696624d6376d22aa1617a64736f6c634300081b0033",
  "linkReferences": {},
  "deployedLinkReferences": {}
}