{
  "_format": "hh-sol-artifact-1",
  "contractName": "MainSupplyChain",
  "sourceName": "contracts/MainSupplyChain.sol",
  "abi": [
    {
      "inputs": [
        {
          "internalType": "address",
          "name": "_roleManagerAddr",
          "type": "address"
        }
      ],
      "stateMutability": "nonpayable",
      "type": "constructor"
    },
    {
      "anonymous": false,
      "inputs": [
        {
          "indexed": false,
          "internalType": "address",
          "name": "userAddr",
          "type": "address"
        },
        {
          "indexed": false,
          "internalType": "string",
          "name": "name",
          "type": "string"
        },
        {
          "indexed": false,
          "internalType": "string",
          "name": "instanceName",
          "type": "string"
        },
        {
          "indexed": false,
          "internalType": "uint8",
          "name": "role",
          "type": "uint8"
        },
        {
          "indexed": false,
          "internalType": "string",
          "name": "addressInstance",
          "type": "string"
        }
      ],
      "name": "evt_UserRegistered",
      "type": "event"
    },
    {
      "anonymous": false,
      "inputs": [
        {
          "indexed": false,
          "internalType": "string",
          "name": "bpomInstance",
          "type": "string"
        },
        {
          "indexed": false,
          "internalType": "address",
          "name": "bpomAddr",
          "type": "address"
        },
        {
          "indexed": false,
          "internalType": "enum EnumsLibrary.TipePermohonanCdob",
          "name": "",
          "type": "uint8"
        },
        {
          "indexed": false,
          "internalType": "string",
          "name": "cdobNumber",
          "type": "string"
        },
        {
          "indexed": false,
          "internalType": "uint256",
          "name": "timestampApproved",
          "type": "uint256"
        }
      ],
      "name": "evt_cdobApproved",
      "type": "event"
    },
    {
      "anonymous": false,
      "inputs": [
        {
          "indexed": false,
          "internalType": "string",
          "name": "pbfInstance",
          "type": "string"
        },
        {
          "indexed": false,
          "internalType": "address",
          "name": "pbfAddr",
          "type": "address"
        },
        {
          "indexed": false,
          "internalType": "enum EnumsLibrary.TipePermohonanCdob",
          "name": "tipePermohonan",
          "type": "uint8"
        },
        {
          "indexed": false,
          "internalType": "uint256",
          "name": "timestampRequest",
          "type": "uint256"
        }
      ],
      "name": "evt_cdobRequested",
      "type": "event"
    },
    {
      "anonymous": false,
      "inputs": [
        {
          "indexed": false,
          "internalType": "string",
          "name": "bpomInstance",
          "type": "string"
        },
        {
          "indexed": false,
          "internalType": "address",
          "name": "bpomAddr",
          "type": "address"
        },
        {
          "indexed": false,
          "internalType": "uint8",
          "name": "TipePermohonanCpotb",
          "type": "uint8"
        },
        {
          "indexed": false,
          "internalType": "string",
          "name": "cpotbId",
          "type": "string"
        },
        {
          "indexed": false,
          "internalType": "uint256",
          "name": "timestampApproved",
          "type": "uint256"
        }
      ],
      "name": "evt_cpotbApproved",
      "type": "event"
    },
    {
      "anonymous": false,
      "inputs": [
        {
          "indexed": false,
          "internalType": "string",
          "name": "factoryInstance",
          "type": "string"
        },
        {
          "indexed": false,
          "internalType": "address",
          "name": "factoryAddr",
          "type": "address"
        },
        {
          "indexed": false,
          "internalType": "uint8",
          "name": "TipePermohonanCpotb",
          "type": "uint8"
        },
        {
          "indexed": false,
          "internalType": "uint256",
          "name": "timestampRequest",
          "type": "uint256"
        }
      ],
      "name": "evt_cpotbRequested",
      "type": "event"
    },
    {
      "inputs": [
        {
          "internalType": "uint256",
          "name": "",
          "type": "uint256"
        }
      ],
      "name": "allCertificateData",
      "outputs": [
        {
          "internalType": "string",
          "name": "certId",
          "type": "string"
        },
        {
          "internalType": "string",
          "name": "certNumber",
          "type": "string"
        },
        {
          "internalType": "string",
          "name": "instanceName",
          "type": "string"
        },
        {
          "internalType": "string",
          "name": "certificateType",
          "type": "string"
        },
        {
          "internalType": "uint8",
          "name": "tipePermohonan",
          "type": "uint8"
        },
        {
          "internalType": "enum EnumsLibrary.StatusCertificate",
          "name": "status",
          "type": "uint8"
        },
        {
          "internalType": "string",
          "name": "ipfsCert",
          "type": "string"
        }
      ],
      "stateMutability": "view",
      "type": "function"
    },
    {
      "inputs": [
        {
          "components": [
            {
              "internalType": "string",
              "name": "certNumber",
              "type": "string"
            },
            {
              "internalType": "string",
              "name": "certId",
              "type": "string"
            },
            {
              "internalType": "string",
              "name": "bpomName",
              "type": "string"
            },
            {
              "internalType": "string",
              "name": "bpomInstance",
              "type": "string"
            }
          ],
          "internalType": "struct MainSupplyChain.st_certificateApproval",
          "name": "approvalData",
          "type": "tuple"
        },
        {
          "internalType": "string",
          "name": "_ipfsCert",
          "type": "string"
        },
        {
          "internalType": "uint8",
          "name": "_tipePermohonanCdob",
          "type": "uint8"
        }
      ],
      "name": "approveCdob",
      "outputs": [],
      "stateMutability": "nonpayable",
      "type": "function"
    },
    {
      "inputs": [
        {
          "components": [
            {
              "internalType": "string",
              "name": "certNumber",
              "type": "string"
            },
            {
              "internalType": "string",
              "name": "certId",
              "type": "string"
            },
            {
              "internalType": "string",
              "name": "bpomName",
              "type": "string"
            },
            {
              "internalType": "string",
              "name": "bpomInstance",
              "type": "string"
            }
          ],
          "internalType": "struct MainSupplyChain.st_certificateApproval",
          "name": "approvalData",
          "type": "tuple"
        },
        {
          "internalType": "string",
          "name": "_ipfsCert",
          "type": "string"
        },
        {
          "internalType": "uint8",
          "name": "_tipePermohonanCpotb",
          "type": "uint8"
        }
      ],
      "name": "approveCpotb",
      "outputs": [],
      "stateMutability": "nonpayable",
      "type": "function"
    },
    {
      "inputs": [
        {
          "internalType": "string",
          "name": "_factoryName",
          "type": "string"
        }
      ],
      "name": "approvedTipePermohonan",
      "outputs": [
        {
          "components": [
            {
              "internalType": "string",
              "name": "ipfsCert",
              "type": "string"
            },
            {
              "internalType": "uint8",
              "name": "tipePermohonan",
              "type": "uint8"
            }
          ],
          "internalType": "struct MainSupplyChain.st_approvedCert[]",
          "name": "",
          "type": "tuple[]"
        }
      ],
      "stateMutability": "view",
      "type": "function"
    },
    {
      "inputs": [
        {
          "internalType": "string",
          "name": "",
          "type": "string"
        },
        {
          "internalType": "uint256",
          "name": "",
          "type": "uint256"
        }
      ],
      "name": "approvedTipePermohonanByFactory",
      "outputs": [
        {
          "internalType": "string",
          "name": "ipfsCert",
          "type": "string"
        },
        {
          "internalType": "uint8",
          "name": "tipePermohonan",
          "type": "uint8"
        }
      ],
      "stateMutability": "view",
      "type": "function"
    },
    {
      "inputs": [
        {
          "internalType": "string",
          "name": "",
          "type": "string"
        },
        {
          "internalType": "uint256",
          "name": "",
          "type": "uint256"
        }
      ],
      "name": "approvedTipePermohonanByPbf",
      "outputs": [
        {
          "internalType": "string",
          "name": "ipfsCert",
          "type": "string"
        },
        {
          "internalType": "uint8",
          "name": "tipePermohonan",
          "type": "uint8"
        }
      ],
      "stateMutability": "view",
      "type": "function"
    },
    {
      "inputs": [
        {
          "internalType": "string",
          "name": "_pbfName",
          "type": "string"
        }
      ],
      "name": "approvedTipePermohonanCdob",
      "outputs": [
        {
          "components": [
            {
              "internalType": "string",
              "name": "ipfsCert",
              "type": "string"
            },
            {
              "internalType": "uint8",
              "name": "tipePermohonan",
              "type": "uint8"
            }
          ],
          "internalType": "struct MainSupplyChain.st_approvedCert[]",
          "name": "",
          "type": "tuple[]"
        }
      ],
      "stateMutability": "view",
      "type": "function"
    },
    {
      "inputs": [
        {
          "internalType": "string",
          "name": "",
          "type": "string"
        }
      ],
      "name": "cdobDataById",
      "outputs": [
        {
          "internalType": "string",
          "name": "cdobId",
          "type": "string"
        },
        {
          "internalType": "string",
          "name": "cdobNumber",
          "type": "string"
        },
        {
          "components": [
            {
              "internalType": "enum EnumsLibrary.StatusCertificate",
              "name": "status",
              "type": "uint8"
            },
            {
              "internalType": "uint256",
              "name": "timestampRequest",
              "type": "uint256"
            },
            {
              "internalType": "uint256",
              "name": "timestampApprove",
              "type": "uint256"
            },
            {
              "components": [
                {
                  "internalType": "string",
                  "name": "userName",
                  "type": "string"
                },
                {
                  "internalType": "address",
                  "name": "userAddr",
                  "type": "address"
                },
                {
                  "internalType": "string",
                  "name": "userInstanceName",
                  "type": "string"
                }
              ],
              "internalType": "struct MainSupplyChain.st_userCertificate",
              "name": "sender",
              "type": "tuple"
            },
            {
              "components": [
                {
                  "internalType": "string",
                  "name": "userName",
                  "type": "string"
                },
                {
                  "internalType": "address",
                  "name": "userAddr",
                  "type": "address"
                },
                {
                  "internalType": "string",
                  "name": "userInstanceName",
                  "type": "string"
                }
              ],
              "internalType": "struct MainSupplyChain.st_userCertificate",
              "name": "bpom",
              "type": "tuple"
            },
            {
              "internalType": "string",
              "name": "ipfsCert",
              "type": "string"
            }
          ],
          "internalType": "struct MainSupplyChain.st_certificateDetails",
          "name": "details",
          "type": "tuple"
        },
        {
          "internalType": "enum EnumsLibrary.TipePermohonanCdob",
          "name": "tipePermohonan",
          "type": "uint8"
        }
      ],
      "stateMutability": "view",
      "type": "function"
    },
    {
      "inputs": [
        {
          "internalType": "string",
          "name": "",
          "type": "string"
        }
      ],
      "name": "cpotbDataById",
      "outputs": [
        {
          "internalType": "string",
          "name": "cpotbId",
          "type": "string"
        },
        {
          "internalType": "string",
          "name": "cpotbNumber",
          "type": "string"
        },
        {
          "components": [
            {
              "internalType": "enum EnumsLibrary.StatusCertificate",
              "name": "status",
              "type": "uint8"
            },
            {
              "internalType": "uint256",
              "name": "timestampRequest",
              "type": "uint256"
            },
            {
              "internalType": "uint256",
              "name": "timestampApprove",
              "type": "uint256"
            },
            {
              "components": [
                {
                  "internalType": "string",
                  "name": "userName",
                  "type": "string"
                },
                {
                  "internalType": "address",
                  "name": "userAddr",
                  "type": "address"
                },
                {
                  "internalType": "string",
                  "name": "userInstanceName",
                  "type": "string"
                }
              ],
              "internalType": "struct MainSupplyChain.st_userCertificate",
              "name": "sender",
              "type": "tuple"
            },
            {
              "components": [
                {
                  "internalType": "string",
                  "name": "userName",
                  "type": "string"
                },
                {
                  "internalType": "address",
                  "name": "userAddr",
                  "type": "address"
                },
                {
                  "internalType": "string",
                  "name": "userInstanceName",
                  "type": "string"
                }
              ],
              "internalType": "struct MainSupplyChain.st_userCertificate",
              "name": "bpom",
              "type": "tuple"
            },
            {
              "internalType": "string",
              "name": "ipfsCert",
              "type": "string"
            }
          ],
          "internalType": "struct MainSupplyChain.st_certificateDetails",
          "name": "details",
          "type": "tuple"
        },
        {
          "internalType": "uint8",
          "name": "tipePermohonan",
          "type": "uint8"
        },
        {
          "internalType": "string",
          "name": "factoryType",
          "type": "string"
        }
      ],
      "stateMutability": "view",
      "type": "function"
    },
    {
      "inputs": [
        {
          "internalType": "string",
          "name": "_certId",
          "type": "string"
        }
      ],
      "name": "detailCdob",
      "outputs": [
        {
          "components": [
            {
              "internalType": "string",
              "name": "cdobId",
              "type": "string"
            },
            {
              "internalType": "string",
              "name": "cdobNumber",
              "type": "string"
            },
            {
              "components": [
                {
                  "internalType": "enum EnumsLibrary.StatusCertificate",
                  "name": "status",
                  "type": "uint8"
                },
                {
                  "internalType": "uint256",
                  "name": "timestampRequest",
                  "type": "uint256"
                },
                {
                  "internalType": "uint256",
                  "name": "timestampApprove",
                  "type": "uint256"
                },
                {
                  "components": [
                    {
                      "internalType": "string",
                      "name": "userName",
                      "type": "string"
                    },
                    {
                      "internalType": "address",
                      "name": "userAddr",
                      "type": "address"
                    },
                    {
                      "internalType": "string",
                      "name": "userInstanceName",
                      "type": "string"
                    }
                  ],
                  "internalType": "struct MainSupplyChain.st_userCertificate",
                  "name": "sender",
                  "type": "tuple"
                },
                {
                  "components": [
                    {
                      "internalType": "string",
                      "name": "userName",
                      "type": "string"
                    },
                    {
                      "internalType": "address",
                      "name": "userAddr",
                      "type": "address"
                    },
                    {
                      "internalType": "string",
                      "name": "userInstanceName",
                      "type": "string"
                    }
                  ],
                  "internalType": "struct MainSupplyChain.st_userCertificate",
                  "name": "bpom",
                  "type": "tuple"
                },
                {
                  "internalType": "string",
                  "name": "ipfsCert",
                  "type": "string"
                }
              ],
              "internalType": "struct MainSupplyChain.st_certificateDetails",
              "name": "details",
              "type": "tuple"
            },
            {
              "internalType": "enum EnumsLibrary.TipePermohonanCdob",
              "name": "tipePermohonan",
              "type": "uint8"
            }
          ],
          "internalType": "struct MainSupplyChain.st_cdob",
          "name": "",
          "type": "tuple"
        }
      ],
      "stateMutability": "view",
      "type": "function"
    },
    {
      "inputs": [
        {
          "internalType": "string",
          "name": "_certId",
          "type": "string"
        }
      ],
      "name": "detailCpotb",
      "outputs": [
        {
          "components": [
            {
              "internalType": "string",
              "name": "cpotbId",
              "type": "string"
            },
            {
              "internalType": "string",
              "name": "cpotbNumber",
              "type": "string"
            },
            {
              "components": [
                {
                  "internalType": "enum EnumsLibrary.StatusCertificate",
                  "name": "status",
                  "type": "uint8"
                },
                {
                  "internalType": "uint256",
                  "name": "timestampRequest",
                  "type": "uint256"
                },
                {
                  "internalType": "uint256",
                  "name": "timestampApprove",
                  "type": "uint256"
                },
                {
                  "components": [
                    {
                      "internalType": "string",
                      "name": "userName",
                      "type": "string"
                    },
                    {
                      "internalType": "address",
                      "name": "userAddr",
                      "type": "address"
                    },
                    {
                      "internalType": "string",
                      "name": "userInstanceName",
                      "type": "string"
                    }
                  ],
                  "internalType": "struct MainSupplyChain.st_userCertificate",
                  "name": "sender",
                  "type": "tuple"
                },
                {
                  "components": [
                    {
                      "internalType": "string",
                      "name": "userName",
                      "type": "string"
                    },
                    {
                      "internalType": "address",
                      "name": "userAddr",
                      "type": "address"
                    },
                    {
                      "internalType": "string",
                      "name": "userInstanceName",
                      "type": "string"
                    }
                  ],
                  "internalType": "struct MainSupplyChain.st_userCertificate",
                  "name": "bpom",
                  "type": "tuple"
                },
                {
                  "internalType": "string",
                  "name": "ipfsCert",
                  "type": "string"
                }
              ],
              "internalType": "struct MainSupplyChain.st_certificateDetails",
              "name": "details",
              "type": "tuple"
            },
            {
              "internalType": "uint8",
              "name": "tipePermohonan",
              "type": "uint8"
            },
            {
              "internalType": "string",
              "name": "factoryType",
              "type": "string"
            }
          ],
          "internalType": "struct MainSupplyChain.st_cpotb",
          "name": "",
          "type": "tuple"
        }
      ],
      "stateMutability": "view",
      "type": "function"
    },
    {
      "inputs": [],
      "name": "getListAllCdob",
      "outputs": [
        {
          "components": [
            {
              "internalType": "string",
              "name": "certId",
              "type": "string"
            },
            {
              "internalType": "string",
              "name": "certNumber",
              "type": "string"
            },
            {
              "internalType": "string",
              "name": "instanceName",
              "type": "string"
            },
            {
              "internalType": "string",
              "name": "certificateType",
              "type": "string"
            },
            {
              "internalType": "uint8",
              "name": "tipePermohonan",
              "type": "uint8"
            },
            {
              "internalType": "enum EnumsLibrary.StatusCertificate",
              "name": "status",
              "type": "uint8"
            },
            {
              "internalType": "string",
              "name": "ipfsCert",
              "type": "string"
            }
          ],
          "internalType": "struct MainSupplyChain.st_certificateList[]",
          "name": "",
          "type": "tuple[]"
        }
      ],
      "stateMutability": "view",
      "type": "function"
    },
    {
      "inputs": [
        {
          "internalType": "string",
          "name": "_instanceName",
          "type": "string"
        }
      ],
      "name": "getListAllCertificateByInstance",
      "outputs": [
        {
          "components": [
            {
              "internalType": "string",
              "name": "certId",
              "type": "string"
            },
            {
              "internalType": "string",
              "name": "certNumber",
              "type": "string"
            },
            {
              "internalType": "string",
              "name": "instanceName",
              "type": "string"
            },
            {
              "internalType": "string",
              "name": "certificateType",
              "type": "string"
            },
            {
              "internalType": "uint8",
              "name": "tipePermohonan",
              "type": "uint8"
            },
            {
              "internalType": "enum EnumsLibrary.StatusCertificate",
              "name": "status",
              "type": "uint8"
            },
            {
              "internalType": "string",
              "name": "ipfsCert",
              "type": "string"
            }
          ],
          "internalType": "struct MainSupplyChain.st_certificateList[]",
          "name": "",
          "type": "tuple[]"
        }
      ],
      "stateMutability": "view",
      "type": "function"
    },
    {
      "inputs": [],
      "name": "getListAllCpotb",
      "outputs": [
        {
          "components": [
            {
              "internalType": "string",
              "name": "certId",
              "type": "string"
            },
            {
              "internalType": "string",
              "name": "certNumber",
              "type": "string"
            },
            {
              "internalType": "string",
              "name": "instanceName",
              "type": "string"
            },
            {
              "internalType": "string",
              "name": "certificateType",
              "type": "string"
            },
            {
              "internalType": "uint8",
              "name": "tipePermohonan",
              "type": "uint8"
            },
            {
              "internalType": "enum EnumsLibrary.StatusCertificate",
              "name": "status",
              "type": "uint8"
            },
            {
              "internalType": "string",
              "name": "ipfsCert",
              "type": "string"
            }
          ],
          "internalType": "struct MainSupplyChain.st_certificateList[]",
          "name": "",
          "type": "tuple[]"
        }
      ],
      "stateMutability": "view",
      "type": "function"
    },
    {
      "inputs": [
        {
          "internalType": "string",
          "name": "_certId",
          "type": "string"
        },
        {
          "internalType": "string",
          "name": "_certType",
          "type": "string"
        }
      ],
      "name": "rejectCert",
      "outputs": [],
      "stateMutability": "nonpayable",
      "type": "function"
    },
    {
      "inputs": [
        {
          "components": [
            {
              "internalType": "string",
              "name": "certId",
              "type": "string"
            },
            {
              "internalType": "string",
              "name": "senderName",
              "type": "string"
            },
            {
              "internalType": "string",
              "name": "senderInstance",
              "type": "string"
            }
          ],
          "internalType": "struct MainSupplyChain.st_certificateRequest",
          "name": "requestData",
          "type": "tuple"
        },
        {
          "internalType": "uint8",
          "name": "_tipePermohonanCdob",
          "type": "uint8"
        }
      ],
      "name": "requestCdob",
      "outputs": [],
      "stateMutability": "nonpayable",
      "type": "function"
    },
    {
      "inputs": [
        {
          "components": [
            {
              "internalType": "string",
              "name": "certId",
              "type": "string"
            },
            {
              "internalType": "string",
              "name": "senderName",
              "type": "string"
            },
            {
              "internalType": "string",
              "name": "senderInstance",
              "type": "string"
            }
          ],
          "internalType": "struct MainSupplyChain.st_certificateRequest",
          "name": "requestData",
          "type": "tuple"
        },
        {
          "internalType": "uint8",
          "name": "_tipePermohonanCpotb",
          "type": "uint8"
        },
        {
          "internalType": "string",
          "name": "_factoryType",
          "type": "string"
        }
      ],
      "name": "requestCpotb",
      "outputs": [],
      "stateMutability": "nonpayable",
      "type": "function"
    }
  ],
  "bytecode": "0x608034606f57601f614bcc38819003918201601f19168301916001600160401b03831184841017607357808492602094604052833981010312606f57516001600160a01b03811690819003606f575f80546001600160a01b031916919091179055604051614b4490816100888239f35b5f80fd5b634e487b7160e01b5f52604160045260245ffdfe60806040526004361015610011575f80fd5b5f3560e01c80631f0fc344146135745780632ec00b97146135365780634c3ba6fd14613456578063633cc28e146132ce5780636aa81299146131fd5780636d2a362f146122065780636f8e6197146120c5578063711255af14611fa457806372c17cb914611ee65780637902d65214610d365780637ee90ded14610cd65780639dfbae5014610541578063a814a60f146103f2578063cec1fc1e14610352578063e49d032714610291578063ec1765871461019d5763fb705459146100d4575f80fd5b34610199576020366003190112610199576004356001600160401b03811161019957602061010781923690600401613ea8565b604051928184925191829101835e81016004815203019020805461012a816147d3565b916101386040519384613e87565b81835260208301905f5260205f205f915b838310610162576040518061015e87826144c0565b0390f35b6002602060019260405161017581613de5565b61017e866140e3565b815260ff858701541683820152815201920192019190610149565b5f80fd5b34610199575f366003190112610199576101bd6101b86147b0565b614a93565b6101ee60ff60405160208101906431b837ba3160d91b8252600581526101e4602582613e87565b5190209216614820565b905f5f91600554925b83811061020c576040518061015e87826143e3565b81600361023261024061021e856141c8565b50604051928391602083019586910161469c565b03601f198101835282613e87565b51902014610251575b6001016101f7565b9161028960019161028361026d610267876141c8565b50614883565b60ff83169061027c828b61486f565b528861486f565b506148f6565b929050610249565b34610199576020366003190112610199576004356001600160401b0381116101995760206102c481923690600401613ea8565b604051928184925191829101835e8101600381520301902080546102e7816147d3565b916102f56040519384613e87565b81835260208301905f5260205f205f915b83831061031b576040518061015e87826144c0565b6002602060019260405161032e81613de5565b610337866140e3565b815260ff858701541683820152815201920192019190610306565b34610199575f3660031901126101995761036d6101b8614731565b61039360ff60405160208101906331b237b160e11b8252600481526101e4602482613e87565b905f5f91600554925b8381106103b1576040518061015e87826143e3565b8160036102326103c361021e856141c8565b519020146103d4575b60010161039c565b916103ea60019161028361026d610267876141c8565b9290506103cc565b34610199576020366003190112610199576004356001600160401b03811161019957610422903690600401613ea8565b60055460208201915f805b8381106104de575060ff6104419116614820565b925f915f5b84811061045b576040518061015e88826143e3565b600261023261046c61021e846141c8565b51902060405160208101906104996020828751808a875e81015f838201520301601f198101835282613e87565b519020146104aa575b600101610446565b926104d66001916102836104c0610267886141c8565b60ff8316906104cf828c61486f565b528961486f565b9390506104a2565b60026102326104ef61021e846141c8565b519020604051602081019061051c6020828851808c875e81015f838201520301601f198101835282613e87565b5190201461052d575b60010161042d565b906105396001916148f6565b919050610525565b346101995761054f36613f0d565b61055b9291923361491b565b602082019061056a825161405f565b9361057585546140ab565b15610ca057604084015190610592606086019283519033906149c7565b6008870181518051906001600160401b0382116108cc5781906105b584546140ab565b601f8111610c50575b50602090601f8311600114610bed575f92610be2575b50508160011b915f199060031b1c19161790555b60208101516009880180546001600160a01b0319166001600160a01b0392909216919091179055604001518051600a8801916001600160401b0382116108cc57819061063484546140ab565b601f8111610b92575b50602090601f8311600114610b2f575f92610b24575b50508160011b915f199060031b1c19161790555b60028601600160ff19825416179055426004870155845160018701908051906001600160401b0382116108cc5781906106a084546140ab565b601f8111610ad4575b50602090601f8311600114610a71575f92610a66575b50508160011b915f199060031b1c19161790555b600b860181516001600160401b0381116108cc576106f182546140ab565b601f8111610a21575b50806020601f82116001146109c0575f916109b5575b508160011b915f199060031b1c19161790555b5f5b6005548110156108e057610738816141c8565b5060405161074e8161023260208201809561469c565b519020855160405161077f6020828180820195805191829101875e81015f838201520301601f198101835282613e87565b51902014610790575b600101610725565b8551600161079d836141c8565b5001908051906001600160401b0382116108cc576107bb83546140ab565b601f8111610887575b50602090601f8311600114610820576001949392915f9183610815575b50505f19600383901b1c191690841b1790555b60046107ff826141c8565b5001805461ff0019166101001790559050610788565b015190508b806107e1565b90601f19831691845f52815f20925f5b81811061086f575091600196959492918388959310610857575b505050811b0190556107f4565b01515f1960f88460031b161c191690558b808061084a565b92936020600181928786015181550195019301610830565b835f5260205f20601f840160051c810191602085106108c2575b601f0160051c01905b8181106108b757506107c4565b5f81556001016108aa565b90915081906108a1565b634e487b7160e01b5f52604160045260245ffd5b5061092d9192935060208060ff6108f960078a016140e3565b966040519461090786613de5565b855216958682850152604051928184925191829101835e8101600481520301902061454e565b5160028210156109a157610996610978927f8d8f26b533bc5f62a32de1faa67facbf43e75bd50ab3e60343fd421507e8dd63945161098960405195869560a0875260a0870190614183565b9233602087015260408601906143d6565b8382036060850152614183565b4260808301520390a1005b634e487b7160e01b5f52602160045260245ffd5b905083015189610710565b5f8481528181209250601f198416905b818110610a09575090836001949392106109f1575b5050811b019055610723565b8501515f1960f88460031b161c1916905589806109e5565b9192602060018192868a0151815501940192016109d0565b825f5260205f20601f830160051c81019160208410610a5c575b601f0160051c01905b818110610a5157506106fa565b5f8155600101610a44565b9091508190610a3b565b0151905089806106bf565b5f8581528281209350601f198516905b818110610abc5750908460019594939210610aa4575b505050811b0190556106d3565b01515f1960f88460031b161c19169055898080610a97565b92936020600181928786015181550195019301610a81565b909150835f5260205f20601f840160051c81019160208510610b1a575b90601f859493920160051c01905b818110610b0c57506106a9565b5f8155849350600101610aff565b9091508190610af1565b015190508980610653565b5f8581528281209350601f198516905b818110610b7a5750908460019594939210610b62575b505050811b019055610667565b01515f1960f88460031b161c19169055898080610b55565b92936020600181928786015181550195019301610b3f565b909150835f5260205f20601f840160051c81019160208510610bd8575b90601f859493920160051c01905b818110610bca575061063d565b5f8155849350600101610bbd565b9091508190610baf565b015190508a806105d4565b5f8581528281209350601f198516905b818110610c385750908460019594939210610c20575b505050811b0190556105e8565b01515f1960f88460031b161c191690558a8080610c13565b92936020600181928786015181550195019301610bfd565b909150835f5260205f20601f840160051c81019160208510610c96575b90601f859493920160051c01905b818110610c8857506105be565b5f8155849350600101610c7b565b9091508190610c6d565b60405162461bcd60e51b815260206004820152600e60248201526d10d113d0881b9bdd08199bdd5b9960921b6044820152606490fd5b3461019957602080610ce73661400f565b9290604051928184925191829101835e8101600381520301902090815481101561019957610d149161407e565b5060ff6001610d22836140e3565b920154169061015e604051928392836141a7565b34610199576060366003190112610199576004356001600160401b03811161019957610d66903690600401614358565b610d6e613efd565b906044356001600160401b03811161019957610d8e903690600401613ea8565b906044602060018060a01b035f5416604051928380926395a8c58d60e01b82523360048301525f60248301525afa908115611edb575f91611ea0575b5015611e6c57610de3610ddd8251614040565b546140ab565b611e37576020810151610dfe604083019182519033906149c7565b93610e34602095610e2e604051610e158982613e87565b5f815260405190610e268a83613e87565b5f82526149a0565b906149f7565b92805160405190610e4482613e1b565b815260405194610e548887613e87565b5f865287820195865260408201908152606082019060ff85169687835260808401988952610e828551614040565b93518051906001600160401b0382116108cc5781908c610ea288546140ab565b601f8111611de6575b50508c908d601f8411600114611d8257505f92611d77575b50508160011b915f199060031b1c19161784555b51805160018501916001600160401b0382116108cc5781908c610efa85546140ab565b601f8111611d26575b50508c908d601f8411600114611cc257505f92611cb7575b50508160011b915f199060031b1c19161790555b51805160038110156109a157610f489060028501614536565b8089015160038401556040810151600484015560608101518051805160058601916001600160401b0382116108cc578c8291610f8485546140ab565b601f8111611c5f575b5081601f8411600114611bfb57505f92611bf0575b50508160011b915f199060031b1c19161790555b808a01516006850180546001600160a01b0319166001600160a01b039290921691909117905560400151805160078501916001600160401b0382116108cc5781908c61100285546140ab565b601f8111611b9f575b50508c908d601f8411600114611b3b57505f92611b30575b50508160011b915f199060031b1c19161790555b60808101518051805160088601916001600160401b0382116108cc578c829161106085546140ab565b601f8111611ad8575b5081601f8411600114611a7457505f92611a69575b50508160011b915f199060031b1c19161790555b808a01516009850180546001600160a01b0319166001600160a01b0392909216919091179055604001518051600a8501916001600160401b0382116108cc5781908c6110de85546140ab565b601f8111611a18575b50508c908d601f84116001146119b457505f926119a9575b50508160011b915f199060031b1c19161790555b60a001518051600b8401916001600160401b0382116108cc5761113683546140ab565b601f8111611966575b508a90601f83116001146118f957918060ff9492600d9796945f926118ee575b50508160011b915f199060031b1c19161790555b511660ff600c8301911660ff19825416179055019451948551956001600160401b0387116108cc576111a582546140ab565b601f81116118ab575b508790601f8811600114611843579680916112029697985f92611838575b50508160011b915f199060031b1c19161790555b519083516040516111f18882613e87565b5f81526111fc6147b0565b93614a40565b600554600160401b8110156108cc57806001611223920160055560056141e4565b6118255781518051906001600160401b0382116108cc57819061124684546140ab565b601f81116117d7575b508790601f8311600114611774575f92611769575b50508160011b915f199060031b1c19161781555b60018101858301518051906001600160401b0382116108cc57819061129d84546140ab565b601f811161171b575b508890601f83116001146116b8575f926116ad575b50508160011b915f199060031b1c19161790555b6002810160408301518051906001600160401b0382116108cc5781906112f584546140ab565b601f811161165f575b508890601f83116001146115fc575f926115f1575b50508160011b915f199060031b1c19161790555b6003810160608301518051906001600160401b0382116108cc57819061134d84546140ab565b601f81116115a3575b508890601f8311600114611540575f92611535575b50508160011b915f199060031b1c19161790555b600481019060ff806080850151161660ff1983541617825560a08301519060038210156109a1576113b460059260c094614706565b019101518051906001600160401b0382116108cc576113d383546140ab565b601f81116114f2575b508590601f83116001146114685791807f99dcabd81899d5894d4391d9586c557b10a0d34a881adfc4769ad41e9166cda09794926114479796945f9261145d575b50508160011b915f199060031b1c19161790555b5191604051938493608085526080850190614183565b91339084015260408301524260608301520390a1005b01519050888061141d565b90601f19831691845f52875f20925f5b8181106114db57509260019285926114479998967f99dcabd81899d5894d4391d9586c557b10a0d34a881adfc4769ad41e9166cda09b9896106114c3575b505050811b019055611431565b01515f1960f88460031b161c191690558880806114b6565b929389600181928786015181550195019301611478565b835f52865f20601f840160051c81019188851061152b575b601f0160051c01905b81811061152057506113dc565b5f8155600101611513565b909150819061150a565b01519050888061136b565b5f8581528a81209350601f198516905b8b82821061158d575050908460019594939210611575575b505050811b01905561137f565b01515f1960f88460031b161c19169055888080611568565b6001859682939686015181550195019301611550565b909150835f52885f20601f840160051c8101918a85106115e7575b90601f859493920160051c01905b8181106115d95750611356565b5f81558493506001016115cc565b90915081906115be565b015190508880611313565b5f8581528a81209350601f198516905b8b828210611649575050908460019594939210611631575b505050811b019055611327565b01515f1960f88460031b161c19169055888080611624565b600185968293968601518155019501930161160c565b909150835f52885f20601f840160051c8101918a85106116a3575b90601f859493920160051c01905b81811061169557506112fe565b5f8155849350600101611688565b909150819061167a565b0151905088806112bb565b5f8581528a81209350601f198516905b8b8282106117055750509084600195949392106116ed575b505050811b0190556112cf565b01515f1960f88460031b161c191690558880806116e0565b60018596829396860151815501950193016116c8565b909150835f52885f20601f840160051c8101918a851061175f575b90601f859493920160051c01905b81811061175157506112a6565b5f8155849350600101611744565b9091508190611736565b015190508780611264565b5f8581528981209350601f198516905b8a8282106117c15750509084600195949392106117a9575b505050811b018155611278565b01515f1960f88460031b161c1916905587808061179c565b6001859682939686015181550195019301611784565b909150835f52875f20601f840160051c81019189851061181b575b90601f859493920160051c01905b81811061180d575061124f565b5f8155849350600101611800565b90915081906117f2565b634e487b7160e01b5f525f60045260245ffd5b0151905089806111cc565b90601f19881691835f52895f20925f5b8b82821061189557505091600193918a611202999a9b941061187d575b505050811b0190556111e0565b01515f1960f88460031b161c19169055898080611870565b6001859682939686015181550195019301611853565b825f52885f20601f890160051c8101918a8a106118e4575b601f0160051c01905b8181106118d957506111ae565b5f81556001016118cc565b90915081906118c3565b015190508d8061115f565b5f8481528c8120929190601f198516908e5b82821061194e575050926001928592600d99989660ff989610611936575b505050811b019055611173565b01515f1960f88460031b161c191690558d8080611929565b8060018697829497870151815501960194019061190b565b835f528b5f20601f840160051c8101918d851061199f575b601f0160051c01905b818110611994575061113f565b5f8155600101611987565b909150819061197e565b015190508c806110ff565b5f8681528181209450601f198616915b828210611a005750509084600195949392106119e8575b505050811b019055611113565b01515f1960f88460031b161c191690558c80806119db565b806001869782949787015181550196019401906119c4565b90919250845f52815f2090601f850160051c8201928510611a5f575b90601f859493920160051c01905b818110611a51578e91506110e7565b5f8155849350600101611a42565b9091508190611a34565b015190508d8061107e565b5f8681528181209450601f198616915b828210611ac0575050908460019594939210611aa8575b505050811b019055611092565b01515f1960f88460031b161c191690558d8080611a9b565b80600186978294978701518155019601940190611a84565b909250845f52815f2090601f850160051c8201928510611b26575b918f9291601f8695930160051c01905b818110611b105750611069565b90925060019193505f815501918e918493611b03565b9091508190611af3565b015190508c80611023565b5f8681528181209450601f198616915b828210611b87575050908460019594939210611b6f575b505050811b019055611037565b01515f1960f88460031b161c191690558c8080611b62565b80600186978294978701518155019601940190611b4b565b90919250845f52815f2090601f850160051c8201928510611be6575b90601f859493920160051c01905b818110611bd8578e915061100b565b5f8155849350600101611bc9565b9091508190611bbb565b015190508d80610fa2565b5f8681528181209450601f198616915b828210611c47575050908460019594939210611c2f575b505050811b019055610fb6565b01515f1960f88460031b161c191690558d8080611c22565b80600186978294978701518155019601940190611c0b565b909250845f52815f2090601f850160051c8201928510611cad575b918f9291601f8695930160051c01905b818110611c975750610f8d565b90925060019193505f815501918e918493611c8a565b9091508190611c7a565b015190508c80610f1b565b5f8681528181209450601f198616915b828210611d0e575050908460019594939210611cf6575b505050811b019055610f2f565b01515f1960f88460031b161c191690558c8080611ce9565b80600186978294978701518155019601940190611cd2565b90919250845f52815f2090601f850160051c8201928510611d6d575b90601f859493920160051c01905b818110611d5f578e9150610f03565b5f8155849350600101611d50565b9091508190611d42565b015190508c80610ec3565b5f8981528181209450601f198616915b828210611dce575050908460019594939210611db6575b505050811b018455610ed7565b01515f1960f88460031b161c191690558c8080611da9565b80600186978294978701518155019601940190611d92565b90919250875f52815f2090601f850160051c8201928510611e2d575b90601f859493920160051c01905b818110611e1f578e9150610eab565b5f8155849350600101611e10565b9091508190611e02565b60405162461bcd60e51b815260206004820152600d60248201526c24b73b30b634b21021a827aa2160991b6044820152606490fd5b60405162461bcd60e51b815260206004820152600c60248201526b155b985d5d1a1bdc9a5e995960a21b6044820152606490fd5b90506020813d602011611ed3575b81611ebb60209383613e87565b81010312610199575180151581036101995784610dca565b3d9150611eae565b6040513d5f823e3d90fd5b34610199576020366003190112610199576004356001600160401b03811161019957602080611f1c611f7d933690600401613ea8565b604051928184925191829101835e81016002815203019020611f3d816140e3565b9061015e611f99611f50600184016140e3565b92611f8b60ff600c611f6460028501614255565b9301541694604051978897608089526080890190614183565b908782036020890152614183565b9085820360408701526142f4565b9160608401906143d6565b34610199576020366003190112610199576004356001600160401b03811161019957602080611fda612093933690600401613ea8565b5f6060604051611fe981613e00565b8181528185820152611ff9614772565b60408201520152604051928184925191829101835e810160028152030190206040519061202582613e00565b61202e816140e3565b825261015e6120b9612042600184016140e3565b92602085019384526120a660ff600c61205d60028501614255565b936040890194855201541694612077606088019687614725565b6040519788976020895251608060208a015260a0890190614183565b9051878203601f19016040890152614183565b9051858203601f190160608701526142f4565b915160808401906143d6565b34610199576020366003190112610199576004356001600160401b038111610199576020806120fb6121c6933690600401613ea8565b6060608060405161210b81613e1b565b828152828582015261211b614772565b60408201525f838201520152604051928184925191829101835e8101600181520301902061015e6040519161214f83613e1b565b612158816140e3565b8352612166600182016140e3565b6020840190815260ff6121ec61217e60028501614255565b604087019081526121d96121a2600d85600c890154169760608b01988952016140e3565b9460808901958652604051998a9960208b525160a060208c015260c08b0190614183565b9051898203601f190160408b0152614183565b9051878203601f190160608901526142f4565b925116608085015251838203601f190160a0850152614183565b34610199576040366003190112610199576004356001600160401b03811161019957612236903690600401614358565b61223e613efd565b5f546040516395a8c58d60e01b81523360048201526001602482015290602090829060449082906001600160a01b03165afa908115611edb575f916131c2575b5015611e6c57612291610ddd835161405f565b61318e5760208201516122ac604084019182519033906149c7565b926122d4602094610e2e6040516122c38882613e87565b5f815260405190610e268983613e87565b9060ff815194169360028510156109a157604051906122f282613e00565b8152604051926123028785613e87565b5f84528682019384526040820190815260608201936123218786614725565b61232b845161405f565b92518051906001600160401b0382116108cc57819061234a86546140ab565b601f8111613140575b508a90601f83116001146130dd575f926130d2575b50508160011b915f199060031b1c19161783555b51805160018401916001600160401b0382116108cc57819061239e84546140ab565b601f8111613084575b508a90601f8311600114613021575f92613016575b50508160011b915f199060031b1c19161790555b51805160038110156109a1576123e99060028401614536565b8087015160038301556040810151600483015560608101518051805160058501916001600160401b0382116108cc57819061242484546140ab565b601f8111612fc8575b508b90601f8311600114612f63575f92612f58575b50508160011b915f199060031b1c19161790555b808801516006840180546001600160a01b0319166001600160a01b039290921691909117905560400151805160078401916001600160401b0382116108cc5781906124a184546140ab565b601f8111612f0a575b508a90601f8311600114612ea7575f92612e9c575b50508160011b915f199060031b1c19161790555b60808101518051805160088501916001600160401b0382116108cc5781906124fb84546140ab565b601f8111612e4e575b508b90601f8311600114612de9575f92612dde575b50508160011b915f199060031b1c19161790555b808801516009840180546001600160a01b0319166001600160a01b0392909216919091179055604001518051600a8401916001600160401b0382116108cc57819061257884546140ab565b601f8111612d90575b508a90601f8311600114612d2d575f92612d22575b50508160011b915f199060031b1c19161790555b60a001518051600b8301916001600160401b0382116108cc576125cd83546140ab565b601f8111612cdf575b508890601f8311600114612c7857600c949392915f9183612c6d575b50508160011b915f199060031b1c19161790555b0191519160028310156109a15761263f9260ff80198354169116179055518383516040516126348882613e87565b5f81526111fc614731565b600554600160401b8110156108cc57806001612660920160055560056141e4565b6118255781518051906001600160401b0382116108cc57819061268384546140ab565b601f8111612c1f575b508790601f8311600114612bbc575f92612bb1575b50508160011b915f199060031b1c19161781555b60018101858301518051906001600160401b0382116108cc5781906126da84546140ab565b601f8111612b63575b508890601f8311600114612b00575f92612af5575b50508160011b915f199060031b1c19161790555b6002810160408301518051906001600160401b0382116108cc57819061273284546140ab565b601f8111612aa7575b508890601f8311600114612a44575f92612a39575b50508160011b915f199060031b1c19161790555b6003810160608301518051906001600160401b0382116108cc57819061278a84546140ab565b601f81116129eb575b508890601f8311600114612988575f9261297d575b50508160011b915f199060031b1c19161790555b600481019060ff806080850151161660ff1983541617825560a08301519060038210156109a1576127f160059260c094614706565b019101518051906001600160401b0382116108cc5761281083546140ab565b601f811161293a575b508590601f83116001146128ad579282612897936128879796937f7002576f080ade70048a03ad81b929b78c8b7e148fd11f40f286a8b6900e6f9b99965f926128a2575b50508160011b915f199060031b1c19161790555b5192604051948594608086526080860190614183565b92339085015260408401906143d6565b4260608301520390a1005b01519050898061285d565b90601f19831691845f52875f20925f5b8181106129235750936128879796937f7002576f080ade70048a03ad81b929b78c8b7e148fd11f40f286a8b6900e6f9b99969360019383612897981061290b575b505050811b019055612871565b01515f1960f88460031b161c191690558980806128fe565b9293896001819287860151815501950193016128bd565b835f52865f20601f840160051c810191888510612973575b601f0160051c01905b8181106129685750612819565b5f815560010161295b565b9091508190612952565b0151905088806127a8565b5f8581528a81209350601f198516905b8b8282106129d55750509084600195949392106129bd575b505050811b0190556127bc565b01515f1960f88460031b161c191690558880806129b0565b6001859682939686015181550195019301612998565b909150835f52885f20601f840160051c8101918a8510612a2f575b90601f859493920160051c01905b818110612a215750612793565b5f8155849350600101612a14565b9091508190612a06565b015190508880612750565b5f8581528a81209350601f198516905b8b828210612a91575050908460019594939210612a79575b505050811b019055612764565b01515f1960f88460031b161c19169055888080612a6c565b6001859682939686015181550195019301612a54565b909150835f52885f20601f840160051c8101918a8510612aeb575b90601f859493920160051c01905b818110612add575061273b565b5f8155849350600101612ad0565b9091508190612ac2565b0151905088806126f8565b5f8581528a81209350601f198516905b8b828210612b4d575050908460019594939210612b35575b505050811b01905561270c565b01515f1960f88460031b161c19169055888080612b28565b6001859682939686015181550195019301612b10565b909150835f52885f20601f840160051c8101918a8510612ba7575b90601f859493920160051c01905b818110612b9957506126e3565b5f8155849350600101612b8c565b9091508190612b7e565b0151905087806126a1565b5f8581528981209350601f198516905b8a828210612c09575050908460019594939210612bf1575b505050811b0181556126b5565b01515f1960f88460031b161c19169055878080612be4565b6001859682939686015181550195019301612bcc565b909150835f52875f20601f840160051c810191898510612c63575b90601f859493920160051c01905b818110612c55575061268c565b5f8155849350600101612c48565b9091508190612c3a565b015190508a806125f2565b90601f19831691845f528a5f20925f5b8c828210612cc9575050916001939185600c9897969410612cb1575b505050811b019055612606565b01515f1960f88460031b161c191690558a8080612ca4565b6001859682939686015181550195019301612c88565b835f52895f20601f840160051c8101918b8510612d18575b601f0160051c01905b818110612d0d57506125d6565b5f8155600101612d00565b9091508190612cf7565b015190508a80612596565b5f8581528c81209350601f198516905b8d828210612d7a575050908460019594939210612d62575b505050811b0190556125aa565b01515f1960f88460031b161c191690558a8080612d55565b6001859682939686015181550195019301612d3d565b909150835f528a5f20601f840160051c8101918c8510612dd4575b90601f859493920160051c01905b818110612dc65750612581565b5f8155849350600101612db9565b9091508190612dab565b015190508b80612519565b5f8581528d81209350601f198516908e5b828210612e36575050908460019594939210612e1e575b505050811b01905561252d565b01515f1960f88460031b161c191690558b8080612e11565b80600186978294978701518155019601940190612dfa565b909150835f528b5f20601f840160051c8101918d8510612e92575b90601f859493920160051c01905b818110612e845750612504565b5f8155849350600101612e77565b9091508190612e69565b015190508a806124bf565b5f8581528c81209350601f198516905b8d828210612ef4575050908460019594939210612edc575b505050811b0190556124d3565b01515f1960f88460031b161c191690558a8080612ecf565b6001859682939686015181550195019301612eb7565b909150835f528a5f20601f840160051c8101918c8510612f4e575b90601f859493920160051c01905b818110612f4057506124aa565b5f8155849350600101612f33565b9091508190612f25565b015190508b80612442565b5f8581528d81209350601f198516908e5b828210612fb0575050908460019594939210612f98575b505050811b019055612456565b01515f1960f88460031b161c191690558b8080612f8b565b80600186978294978701518155019601940190612f74565b909150835f528b5f20601f840160051c8101918d851061300c575b90601f859493920160051c01905b818110612ffe575061242d565b5f8155849350600101612ff1565b9091508190612fe3565b015190508a806123bc565b5f8581528c81209350601f198516905b8d82821061306e575050908460019594939210613056575b505050811b0190556123d0565b01515f1960f88460031b161c191690558a8080613049565b6001859682939686015181550195019301613031565b909150835f528a5f20601f840160051c8101918c85106130c8575b90601f859493920160051c01905b8181106130ba57506123a7565b5f81558493506001016130ad565b909150819061309f565b015190508a80612368565b5f8781528c81209350601f198516905b8d82821061312a575050908460019594939210613112575b505050811b01835561237c565b01515f1960f88460031b161c191690558a8080613105565b60018596829396860151815501950193016130ed565b909150855f528a5f20601f840160051c8101918c8510613184575b90601f859493920160051c01905b8181106131765750612353565b5f8155849350600101613169565b909150819061315b565b60405162461bcd60e51b815260206004820152600c60248201526b24b73b30b634b21021a227a160a11b6044820152606490fd5b90506020813d6020116131f5575b816131dd60209383613e87565b8101031261019957518015158103610199578361227e565b3d91506131d0565b34610199576020366003190112610199576004356001600160401b0381116101995760208061323361329f933690600401613ea8565b604051928184925191829101835e8101600181520301902061015e613257826140e3565b91613264600182016140e3565b6132bb61327360028401614255565b6132ad61328a600d60ff600c8801541696016140e3565b9360405198899860a08a5260a08a0190614183565b9088820360208a0152614183565b9086820360408801526142f4565b9160608501528382036080850152614183565b34610199576040366003190112610199576004356001600160401b038111610199576132fe903690600401613ea8565b6024356001600160401b0381116101995761331d903690600401613ea8565b6040516133496020828180820195805191829101875e81015f838201520301601f198101835282613e87565b51902060405160208101906431b837ba3160d91b82526005815261336e602582613e87565b5190200361342c576002604051602081845180838701835e8101600181520301902001600260ff198254161790555b602081015f5b60055481101561342a57806133b96001926141c8565b506040516133cf8161023260208201809561469c565b51902060405160208101906133fc6020828951808a875e81015f838201520301601f198101835282613e87565b5190201461340b575b016133a3565b6004613416826141c8565b5001805461ff001916610200179055613405565b005b6002604051602081845180838701835e81018481520301902001805460ff1916600217905561339d565b3461019957602036600319011261019957600435600554811015610199576134806134e5916141c8565b5061015e61348d826140e3565b9161349a600182016140e3565b61352961350f6134ac600285016140e3565b6135016134bb600387016140e3565b916134f36134d0600560048a015499016140e3565b966040519b8c9b60e08d5260e08d0190614183565b908b820360208d0152614183565b9089820360408b0152614183565b908782036060890152614183565b9260ff8116608087015260ff60a087019160081c166141fd565b83820360c0850152614183565b34610199576020806135473661400f565b9290604051928184925191829101835e8101600481520301902090815481101561019957610d149161407e565b346101995761358236613f0d565b9161358c3361491b565b6020810161359a8151614040565b936135a585546140ab565b15613dae576040830151946135c2606085019687519033906149c7565b6008820181518051906001600160401b0382116108cc5781906135e584546140ab565b601f8111613d5e575b50602090601f8311600114613cfb575f92613cf0575b50508160011b915f199060031b1c19161790555b60208101516009830180546001600160a01b0319166001600160a01b0392909216919091179055604001518051600a8301916001600160401b0382116108cc57819061366484546140ab565b601f8111613ca0575b50602090601f8311600114613c3d575f92613c32575b50508160011b915f199060031b1c19161790555b60028101600160ff19825416179055426004820155835160018201908051906001600160401b0382116108cc5781906136d084546140ab565b601f8111613be2575b50602090601f8311600114613b7f575f92613b74575b50508160011b915f199060031b1c19161790555b600b810185516001600160401b0381116108cc5761372182546140ab565b601f8111613b2f575b506020601f8211600114613ac35792613765928260079361379f965f91613ab8575b508160011b915f199060031b1c19161790555b016140e3565b9160208060ff6040519361377885613de5565b89855216948582850152604051928184925191829101835e8101600381520301902061454e565b5f5b600554811015613a5e576137b4816141c8565b506040516137ca8161023260208201809561469c565b51902083516040516137fb6020828180820195805191829101875e81015f838201520301601f198101835282613e87565b5190201461380c575b6001016137a1565b83516001613819836141c8565b5001908051906001600160401b0382116108cc57819061383984546140ab565b601f8111613a0e575b50602090601f83116001146139ab575f926139a0575b50508160011b915f199060031b1c19161790555b6004613877826141c8565b5001805461ff0019166101001790556005613891826141c8565b500185516001600160401b0381116108cc576138ad82546140ab565b601f811161395b575b506020601f82116001146138f657908060019493925f916138eb575b505f19600383901b1c191690841b1790555b9050613804565b90508801518a6138d2565b601f19821690835f52805f20915f5b8a828210613943575050918391600196959487941061392b575b5050811b0190556138e4565b8a01515f1960f88460031b161c191690558a8061391f565b60018495602093958493015181550194019201613905565b825f5260205f20601f830160051c81019160208410613996575b601f0160051c01905b81811061398b57506138b6565b5f815560010161397e565b9091508190613975565b015190508980613858565b5f8581528281209350601f198516905b8181106139f657509084600195949392106139de575b505050811b01905561386c565b01515f1960f88460031b161c191690558980806139d1565b929360206001819287860151815501950193016139bb565b909150835f5260205f20601f840160051c81019160208510613a54575b90601f859493920160051c01905b818110613a465750613842565b5f8155849350600101613a39565b9091508190613a2b565b7f5f0795f9828e754b342c66dc560f8879d7982ca16fbeb97634e54f75bd39bfd7613a9f85610996858a51925160405194859460a0865260a0860190614183565b9133602086015260408501528382036060850152614183565b90508a01518c61374c565b601f19821690835f52805f20915f5b8a828210613b175750508361379f9693613765969360079660019410613aff575b5050811b01905561375f565b8c01515f1960f88460031b161c191690558c80613af3565b60018495602093958493015181550194019201613ad2565b825f5260205f20601f830160051c81019160208410613b6a575b601f0160051c01905b818110613b5f575061372a565b5f8155600101613b52565b9091508190613b49565b0151905089806136ef565b5f8581528281209350601f198516905b818110613bca5750908460019594939210613bb2575b505050811b019055613703565b01515f1960f88460031b161c19169055898080613ba5565b92936020600181928786015181550195019301613b8f565b909150835f5260205f20601f840160051c81019160208510613c28575b90601f859493920160051c01905b818110613c1a57506136d9565b5f8155849350600101613c0d565b9091508190613bff565b015190508980613683565b5f8581528281209350601f198516905b818110613c885750908460019594939210613c70575b505050811b019055613697565b01515f1960f88460031b161c19169055898080613c63565b92936020600181928786015181550195019301613c4d565b909150835f5260205f20601f840160051c81019160208510613ce6575b90601f859493920160051c01905b818110613cd8575061366d565b5f8155849350600101613ccb565b9091508190613cbd565b015190508a80613604565b5f8581528281209350601f198516905b818110613d465750908460019594939210613d2e575b505050811b019055613618565b01515f1960f88460031b161c191690558a8080613d21565b92936020600181928786015181550195019301613d0b565b909150835f5260205f20601f840160051c81019160208510613da4575b90601f859493920160051c01905b818110613d9657506135ee565b5f8155849350600101613d89565b9091508190613d7b565b60405162461bcd60e51b815260206004820152600f60248201526e10d413d510881b9bdd08199bdd5b99608a1b6044820152606490fd5b604081019081106001600160401b038211176108cc57604052565b608081019081106001600160401b038211176108cc57604052565b60a081019081106001600160401b038211176108cc57604052565b606081019081106001600160401b038211176108cc57604052565b60c081019081106001600160401b038211176108cc57604052565b60e081019081106001600160401b038211176108cc57604052565b90601f801991011681019081106001600160401b038211176108cc57604052565b81601f82011215610199578035906001600160401b0382116108cc5760405192613edc601f8401601f191660200185613e87565b8284526020838301011161019957815f926020809301838601378301015290565b6024359060ff8216820361019957565b906060600319830112610199576004356001600160401b03811161019957608081840360031901126101995760405190613f4682613e00565b80600401356001600160401b03811161019957846004613f6892840101613ea8565b825260248101356001600160401b03811161019957846004613f8c92840101613ea8565b602083015260448101356001600160401b03811161019957846004613fb392840101613ea8565b604083015260648101356001600160401b0381116101995760048591613fda930101613ea8565b606082015291602435906001600160401b03821161019957613ffe91600401613ea8565b9060443560ff811681036101995790565b604060031982011261019957600435906001600160401b0382116101995761403991600401613ea8565b9060243590565b60208091604051928184925191829101835e8101600181520301902090565b60208091604051928184925191829101835e8101600281520301902090565b8054821015614097575f5260205f209060011b01905f90565b634e487b7160e01b5f52603260045260245ffd5b90600182811c921680156140d9575b60208310146140c557565b634e487b7160e01b5f52602260045260245ffd5b91607f16916140ba565b9060405191825f8254926140f6846140ab565b8084529360018116908115614161575060011461411d575b5061411b92500383613e87565b565b90505f9291925260205f20905f915b81831061414557505090602061411b928201015f61410e565b602091935080600191548385890101520191019091849261412c565b90506020925061411b94915060ff191682840152151560051b8201015f61410e565b805180835260209291819084018484015e5f828201840152601f01601f1916010190565b9060ff6141c1602092959495604085526040850190614183565b9416910152565b6005548110156140975760055f52600660205f20910201905f90565b8054821015614097575f52600660205f20910201905f90565b9060038210156109a15752565b60038210156109a15752565b9060405161422381613e36565b604061425060028395614235816140e3565b855260018101546001600160a01b03166020860152016140e3565b910152565b9060405161426281613e51565b60a06142506009839561427960ff8254168661420a565b600181015460208601526002810154604086015261429960038201614216565b60608601526142aa60068201614216565b6080860152016140e3565b6142f19160406142ce8351606084526060840190614183565b9260018060a01b0360208201511660208401520151906040818403910152614183565b90565b6142f1916143038183516141fd565b602082015160208201526040820151604082015260a0614347614335606085015160c0606086015260c08501906142b5565b608085015184820360808601526142b5565b9201519060a0818403910152614183565b9190606083820312610199576040519061437182613e36565b819380356001600160401b038111610199578261438f918301613ea8565b835260208101356001600160401b03811161019957826143b0918301613ea8565b60208401526040810135916001600160401b038311610199576040926142509201613ea8565b9060028210156109a15752565b602081016020825282518091526040820191602060408360051b8301019401925f915b83831061441557505050505090565b90919293946020806144b1600193603f1986820301875289519060c061448161446f61445d61444d865160e0875260e0870190614183565b888701518682038a880152614183565b60408601518582036040870152614183565b60608501518482036060860152614183565b9260ff60808201511660808401526144a160a082015160a08501906141fd565b01519060c0818403910152614183565b97019301930191939290614406565b602081016020825282518091526040820191602060408360051b8301019401925f915b8383106144f257505050505090565b9091929394602080600192603f198582030186528851908260ff816145208551604086526040860190614183565b94015116910152970193019301919392906144e3565b9060038110156109a15760ff80198354169116179055565b9190918054600160401b8110156108cc5761456e9160018201815561407e565b6118255782519283516001600160401b0381116108cc5761458f83546140ab565b601f8111614657575b506020601f82116001146145ec576001928260ff9596979360209387955f926145e1575b50505f19600383901b1c191690851b1786555b0151169201911660ff19825416179055565b015190505f806145bc565b601f19821695845f52815f20965f5b81811061463f57508360ff969798602094600197948997899510614627575b505050811b0186556145cf565b01515f1960f88460031b161c191690555f808061461a565b838301518955600190980197602093840193016145fb565b835f5260205f20601f830160051c81019160208410614692575b601f0160051c01905b8181106146875750614598565b5f815560010161467a565b9091508190614671565b5f92918154916146ab836140ab565b92600181169081156146f357506001146146c457505050565b90919293505f5260205f205f905b8382106146df5750500190565b6001816020925484860152019101906146d2565b60ff191683525050811515909102019150565b9060038110156109a15761ff0082549160081b169061ff001916179055565b60028210156109a15752565b60405190614740604083613e87565b600482526331b237b160e11b6020830152565b6040519061476082613e36565b60606040838281525f60208201520152565b6040519061477f82613e51565b606060a0835f81525f60208201525f604082015261479b614753565b838201526147a7614753565b60808201520152565b604051906147bf604083613e87565b600582526431b837ba3160d91b6020830152565b6001600160401b0381116108cc5760051b60200190565b604051906147f782613e6c565b606060c08382815282602082015282604082015282808201525f60808201525f60a08201520152565b9061482a826147d3565b6148376040519182613e87565b8281528092614848601f19916147d3565b01905f5b82811061485857505050565b6020906148636147ea565b8282850101520161484c565b80518210156140975760209160051b010190565b9060405161489081613e6c565b60c0614250600583956148a2816140e3565b85526148b0600182016140e3565b60208601526148c1600282016140e3565b60408601526148d2600382016140e3565b606086015261375f60ff6004830154818116608089015260081c1660a0870161420a565b60ff1660ff81146149075760010190565b634e487b7160e01b5f52601160045260245ffd5b5f546040516395a8c58d60e01b81526001600160a01b039283166004820152600260248201529160209183916044918391165afa908115611edb575f91614965575b5015611e6c57565b90506020813d602011614998575b8161498060209383613e87565b8101031261019957518015158103610199575f61495d565b3d9150614973565b906149a9614753565b50604051916149b783613e36565b82525f6020830152604082015290565b91906149d1614753565b50604051926149df84613e36565b83526001600160a01b03166020830152604082015290565b90614a00614772565b5060405191614a0e83613e51565b5f83524260208401525f604084015260608301526080820152604051614a35602082613e87565b5f815260a082015290565b93909160ff9392614a4f6147ea565b5060405195614a5d87613e6c565b86526020860152604085015260608401521660808201525f60a0820152604051614a88602082613e87565b5f815260c082015290565b5f90604051614ac16020828180820195805191829101875e81015f838201520301601f198101835282613e87565b519020600554905f5b828110614ad75750505090565b816003610232614ae961021e856141c8565b51902014614afa575b600101614aca565b92614b066001916148f6565b939050614af256fea264697066735822122075ec8a8e2c4fb371cf2ba50e4430e3dabbd0670c73a542bb0bb17a2b881ef8bc64736f6c634300081b0033",
  "linkReferences": {},
  "deployedLinkReferences": {}
}