{
  "_format": "hh-sol-artifact-1",
  "contractName": "MainSupplyChain",
  "sourceName": "contracts/MainSupplyChain.sol",
  "abi": [
    {
      "inputs": [],
      "stateMutability": "nonpayable",
      "type": "constructor"
    },
    {
      "anonymous": false,
      "inputs": [
        {
          "indexed": false,
          "internalType": "address",
          "name": "userAddr",
          "type": "address"
        },
        {
          "indexed": false,
          "internalType": "string",
          "name": "name",
          "type": "string"
        },
        {
          "indexed": false,
          "internalType": "string",
          "name": "instanceName",
          "type": "string"
        },
        {
          "indexed": false,
          "internalType": "enum MainSupplyChain.en_roles",
          "name": "role",
          "type": "uint8"
        }
      ],
      "name": "evt_UserRegistered",
      "type": "event"
    },
    {
      "anonymous": false,
      "inputs": [
        {
          "indexed": false,
          "internalType": "address",
          "name": "bpomAddr",
          "type": "address"
        },
        {
          "indexed": false,
          "internalType": "string",
          "name": "receiverName",
          "type": "string"
        },
        {
          "indexed": false,
          "internalType": "string",
          "name": "factoryName",
          "type": "string"
        },
        {
          "indexed": false,
          "internalType": "string",
          "name": "cpotbNumber",
          "type": "string"
        },
        {
          "indexed": false,
          "internalType": "uint256",
          "name": "timestampApprove",
          "type": "uint256"
        }
      ],
      "name": "evt_cpotbApproved",
      "type": "event"
    },
    {
      "anonymous": false,
      "inputs": [
        {
          "indexed": false,
          "internalType": "string",
          "name": "senderName",
          "type": "string"
        },
        {
          "indexed": false,
          "internalType": "address",
          "name": "factoryAddr",
          "type": "address"
        },
        {
          "indexed": false,
          "internalType": "string",
          "name": "factoryName",
          "type": "string"
        },
        {
          "indexed": false,
          "internalType": "enum MainSupplyChain.en_jenisSediaan",
          "name": "jenisSediaan",
          "type": "uint8"
        },
        {
          "indexed": false,
          "internalType": "string",
          "name": "cpotbId",
          "type": "string"
        },
        {
          "indexed": false,
          "internalType": "uint256",
          "name": "timestampRequest",
          "type": "uint256"
        }
      ],
      "name": "evt_cpotbRequested",
      "type": "event"
    },
    {
      "inputs": [
        {
          "internalType": "uint256",
          "name": "",
          "type": "uint256"
        }
      ],
      "name": "allCpotbData",
      "outputs": [
        {
          "internalType": "string",
          "name": "cpotbId",
          "type": "string"
        },
        {
          "internalType": "string",
          "name": "senderName",
          "type": "string"
        },
        {
          "internalType": "address",
          "name": "factoryAddr",
          "type": "address"
        },
        {
          "internalType": "string",
          "name": "factoryName",
          "type": "string"
        },
        {
          "internalType": "enum MainSupplyChain.en_jenisSediaan",
          "name": "jenisSediaan",
          "type": "uint8"
        },
        {
          "internalType": "enum MainSupplyChain.en_statusCert",
          "name": "status",
          "type": "uint8"
        },
        {
          "internalType": "uint256",
          "name": "timestampRequest",
          "type": "uint256"
        },
        {
          "internalType": "uint256",
          "name": "timestampApprove",
          "type": "uint256"
        },
        {
          "internalType": "string",
          "name": "cpotbNumber",
          "type": "string"
        },
        {
          "internalType": "address",
          "name": "bpomAddr",
          "type": "address"
        },
        {
          "internalType": "string",
          "name": "receiverName",
          "type": "string"
        }
      ],
      "stateMutability": "view",
      "type": "function"
    },
    {
      "inputs": [
        {
          "internalType": "string",
          "name": "_cpotbId",
          "type": "string"
        },
        {
          "internalType": "string",
          "name": "_cpotbNumber",
          "type": "string"
        },
        {
          "internalType": "string",
          "name": "_receiverName",
          "type": "string"
        }
      ],
      "name": "approveCpotb",
      "outputs": [],
      "stateMutability": "nonpayable",
      "type": "function"
    },
    {
      "inputs": [
        {
          "internalType": "string",
          "name": "",
          "type": "string"
        }
      ],
      "name": "cpotbDataById",
      "outputs": [
        {
          "internalType": "string",
          "name": "cpotbId",
          "type": "string"
        },
        {
          "internalType": "string",
          "name": "senderName",
          "type": "string"
        },
        {
          "internalType": "address",
          "name": "factoryAddr",
          "type": "address"
        },
        {
          "internalType": "string",
          "name": "factoryName",
          "type": "string"
        },
        {
          "internalType": "enum MainSupplyChain.en_jenisSediaan",
          "name": "jenisSediaan",
          "type": "uint8"
        },
        {
          "internalType": "enum MainSupplyChain.en_statusCert",
          "name": "status",
          "type": "uint8"
        },
        {
          "internalType": "uint256",
          "name": "timestampRequest",
          "type": "uint256"
        },
        {
          "internalType": "uint256",
          "name": "timestampApprove",
          "type": "uint256"
        },
        {
          "internalType": "string",
          "name": "cpotbNumber",
          "type": "string"
        },
        {
          "internalType": "address",
          "name": "bpomAddr",
          "type": "address"
        },
        {
          "internalType": "string",
          "name": "receiverName",
          "type": "string"
        }
      ],
      "stateMutability": "view",
      "type": "function"
    },
    {
      "inputs": [],
      "name": "getListAllCpotb",
      "outputs": [
        {
          "internalType": "uint8[]",
          "name": "",
          "type": "uint8[]"
        },
        {
          "internalType": "string[]",
          "name": "",
          "type": "string[]"
        },
        {
          "internalType": "uint8[]",
          "name": "",
          "type": "uint8[]"
        },
        {
          "internalType": "uint256[]",
          "name": "",
          "type": "uint256[]"
        },
        {
          "internalType": "string[]",
          "name": "",
          "type": "string[]"
        }
      ],
      "stateMutability": "view",
      "type": "function"
    },
    {
      "inputs": [
        {
          "internalType": "string",
          "name": "_instanceName",
          "type": "string"
        }
      ],
      "name": "getListCpotbByFactory",
      "outputs": [
        {
          "internalType": "uint8[]",
          "name": "",
          "type": "uint8[]"
        },
        {
          "internalType": "uint8[]",
          "name": "",
          "type": "uint8[]"
        },
        {
          "internalType": "uint256[]",
          "name": "",
          "type": "uint256[]"
        },
        {
          "internalType": "string[]",
          "name": "",
          "type": "string[]"
        }
      ],
      "stateMutability": "view",
      "type": "function"
    },
    {
      "inputs": [
        {
          "internalType": "string",
          "name": "_cpotbId",
          "type": "string"
        }
      ],
      "name": "getListCpotbById",
      "outputs": [
        {
          "components": [
            {
              "internalType": "string",
              "name": "cpotbId",
              "type": "string"
            },
            {
              "internalType": "string",
              "name": "senderName",
              "type": "string"
            },
            {
              "internalType": "address",
              "name": "factoryAddr",
              "type": "address"
            },
            {
              "internalType": "string",
              "name": "factoryName",
              "type": "string"
            },
            {
              "internalType": "enum MainSupplyChain.en_jenisSediaan",
              "name": "jenisSediaan",
              "type": "uint8"
            },
            {
              "internalType": "enum MainSupplyChain.en_statusCert",
              "name": "status",
              "type": "uint8"
            },
            {
              "internalType": "uint256",
              "name": "timestampRequest",
              "type": "uint256"
            },
            {
              "internalType": "uint256",
              "name": "timestampApprove",
              "type": "uint256"
            },
            {
              "internalType": "string",
              "name": "cpotbNumber",
              "type": "string"
            },
            {
              "internalType": "address",
              "name": "bpomAddr",
              "type": "address"
            },
            {
              "internalType": "string",
              "name": "receiverName",
              "type": "string"
            }
          ],
          "internalType": "struct MainSupplyChain.st_cpotbData",
          "name": "",
          "type": "tuple"
        }
      ],
      "stateMutability": "view",
      "type": "function"
    },
    {
      "inputs": [
        {
          "internalType": "address",
          "name": "_userAddr",
          "type": "address"
        }
      ],
      "name": "getRegisteredUser",
      "outputs": [
        {
          "internalType": "address",
          "name": "",
          "type": "address"
        },
        {
          "internalType": "string",
          "name": "",
          "type": "string"
        },
        {
          "internalType": "string",
          "name": "",
          "type": "string"
        },
        {
          "internalType": "uint8",
          "name": "",
          "type": "uint8"
        }
      ],
      "stateMutability": "view",
      "type": "function"
    },
    {
      "inputs": [
        {
          "internalType": "address",
          "name": "user",
          "type": "address"
        }
      ],
      "name": "getRole",
      "outputs": [
        {
          "internalType": "enum MainSupplyChain.en_roles",
          "name": "",
          "type": "uint8"
        },
        {
          "internalType": "address",
          "name": "",
          "type": "address"
        }
      ],
      "stateMutability": "view",
      "type": "function"
    },
    {
      "inputs": [],
      "name": "owner",
      "outputs": [
        {
          "internalType": "address",
          "name": "",
          "type": "address"
        }
      ],
      "stateMutability": "view",
      "type": "function"
    },
    {
      "inputs": [
        {
          "internalType": "string",
          "name": "_name",
          "type": "string"
        },
        {
          "internalType": "string",
          "name": "_instanceName",
          "type": "string"
        },
        {
          "internalType": "address",
          "name": "_userAddr",
          "type": "address"
        },
        {
          "internalType": "uint8",
          "name": "_userRole",
          "type": "uint8"
        }
      ],
      "name": "registerUser",
      "outputs": [],
      "stateMutability": "nonpayable",
      "type": "function"
    },
    {
      "inputs": [
        {
          "internalType": "string",
          "name": "_instanceName",
          "type": "string"
        },
        {
          "internalType": "string",
          "name": "_cpotbId",
          "type": "string"
        },
        {
          "internalType": "string",
          "name": "_senderName",
          "type": "string"
        },
        {
          "internalType": "enum MainSupplyChain.en_jenisSediaan",
          "name": "_jenisSediaan",
          "type": "uint8"
        }
      ],
      "name": "requestCpotb",
      "outputs": [],
      "stateMutability": "nonpayable",
      "type": "function"
    },
    {
      "inputs": [
        {
          "internalType": "address",
          "name": "",
          "type": "address"
        }
      ],
      "name": "userRoles",
      "outputs": [
        {
          "internalType": "enum MainSupplyChain.en_roles",
          "name": "",
          "type": "uint8"
        }
      ],
      "stateMutability": "view",
      "type": "function"
    }
  ],
  "bytecode": "0x60808060405234602757600080546001600160a01b03191633179055612148908161002d8239f35b600080fdfe6080604052600436101561001257600080fd5b60003560e01c8063073a4cf81461111057806314fd887414610de65780634427673314610d9c5780636aa8129914610d3857806374d5e10014610cf25780637c4535e014610a9f5780638da5cb5b14610a76578063d123367214610679578063e54a29bb14610539578063ec17658714610361578063f02f5f231461026e5763fbe9a68e146100a057600080fd5b34610269576020366003190112610269576004356001600160401b038111610269576100d090369060040161159a565b6100d86118dd565b5060405190610105815192602081818501956100f581838961165b565b810160048152030190205461171c565b15610224576101286020610220936101379360405193849283925192839161165b565b81016004815203019020611948565b604051918291602083526101406101f86101a661017b610165855161016060208a015261018089019061167e565b6020860151888203601f190160408a015261167e565b60408501516001600160a01b0316606088810191909152850151878203601f1901608089015261167e565b60808401516101b481611712565b60a08701526101cb60a085015160c08801906117d9565b60c084015160e087015260e0840151610100870152610100840151601f198783030161012088015261167e565b6101208301516001600160a01b031685830152910151838203601f190161016085015261167e565b0390f35b60405162461bcd60e51b815260206004820152601a60248201527f4e6f206461746120666f756e6420666f7220746869732049442e0000000000006044820152606490fd5b600080fd5b34610269576020366003190112610269576004356005548110156102695761029590611891565b50604051906102af826102a88184611756565b0383611579565b6102206009604051926102d0846102c98160018501611756565b0385611579565b60028101546040516001600160a01b03909116956102f5826102a88160038701611756565b6004830154600584015490600685015492604051946103228661031b8160078b01611756565b0387611579565b61034a60018060a01b0360088901541697610343604051809b819301611756565b0389611579565b6040519a8b9a60ff808660081c169516938c6117e6565b346102695760003660031901126102695760055461037e81611a45565b61038782611a77565b9161039181611a77565b61039a82611a45565b906103a483611a45565b9260005b81811061040f576103d78661022089610401896103f38a6103e58b604051998a9960a08b5260a08b01906115f0565b9089820360208b01526116a3565b9087820360408901526115f0565b908582036060870152611627565b9083820360808501526116a3565b60ff600461041c83611891565b5001541661042981611712565b6104338288611934565b5260ff600461044183611891565b50015460081c169060028210156105235760019161045f8287611934565b52600361048661046e83611891565b5061047f6040518094819301611756565b0382611579565b6104908286611934565b5261049b8185611934565b5061047f6104b86104ab83611891565b5060405192838092611756565b6104c2828a611934565b526104cd8189611934565b5060066104d982611891565b50015460056104e783611891565b50015410156105105760066104fb82611891565b5001545b6105098288611934565b52016103a8565b600561051b82611891565b5001546104ff565b634e487b7160e01b600052602160045260246000fd5b34610269576020366003190112610269576001600160a01b0361055a6116fc565b1680600052600360205260ff604060002054161561063b576000526001602052604060002060405161058b8161155e565b60405161059c8161047f8186611756565b81526002604051926105b5846102c98160018501611756565b60208301938452015461063160ff604084019260018060a01b038116845260a01c16916105e183611712565b82606085015260018060a01b03905116925193516105fe83611712565b61060783611712565b610623604051958695865260806020870152608086019061167e565b90848203604086015261167e565b9060608301520390f35b60405162461bcd60e51b8152602060048201526016602482015275155cd95c881a5cc81b9bdd081c9959da5cdd195c995960521b6044820152606490fd5b34610269576080366003190112610269576004356001600160401b038111610269576106a990369060040161159a565b6024356001600160401b038111610269576106c890369060040161159a565b906044356001600160a01b038116908190036102695760643560ff8116809103610269576106f581611712565b604051936107028561155e565b83855260208501948186526040810190848252606081019061072385611712565b848252856000526001602052604060002090518051906001600160401b03821161099d578190610753845461171c565b601f8111610a23575b50602090601f83116001146109be576000926109b3575b50508160011b916000199060031b1c19161781555b6001810197519788516001600160401b03811161099d576107a9825461171c565b601f8111610955575b506020601f82116001146108c45791816108a597969594926002947f93b86cf0a1d8e18e724e08d47f7248859de317795be109ec2495f6fc7445b4e99d6000926108b9575b50508160011b916000199060031b1c19161790555b9251920180546001600160a01b0319166001600160a01b03939093169290921782555161083881611712565b61084181611712565b815460ff60a01b191660a09190911b60ff60a01b1617905561086283611712565b836000526002602052604060002061087984611712565b8360ff198254161790558360005260036020526040600020600160ff1982541617905561060783611712565b906108af81611712565b60608301520390a1005b015190508d806107f7565b601f1982169a83600052816000209b60005b81811061093d5750927f93b86cf0a1d8e18e724e08d47f7248859de317795be109ec2495f6fc7445b4e99c60029593600193836108a59c9b9a999710610924575b505050811b01905561080c565b015160001960f88460031b161c191690558d8080610917565b838301518e556001909d019c602093840193016108d6565b826000526020600020601f830160051c81019160208410610993575b601f0160051c01905b81811061098757506107b2565b6000815560010161097a565b9091508190610971565b634e487b7160e01b600052604160045260246000fd5b015190508a80610773565b60008581528281209350601f198516905b818110610a0b57509084600195949392106109f2575b505050811b018155610788565b015160001960f88460031b161c191690558a80806109e5565b929360206001819287860151815501950193016109cf565b909150836000526020600020601f840160051c81019160208510610a6c575b90601f859493920160051c01905b818110610a5d575061075c565b60008155849350600101610a50565b9091508190610a42565b34610269576000366003190112610269576000546040516001600160a01b039091168152602090f35b34610269576080366003190112610269576004356001600160401b03811161026957610acf90369060040161159a565b6024356001600160401b03811161026957610aee90369060040161159a565b906044356001600160401b03811161026957610b0e90369060040161159a565b60643560048110156102695733600052600260205260ff60406000205416610b3581611712565b610ca35760405190610b4682611542565b848252826020830152336040830152836060830152610b6481611712565b806080830152600060a08301524260c0830152600060e0830152602094604051610b8e8782611579565b600081526101008401526000610120840152604051610bad8782611579565b60008152610140840152610bde8360405188818551610bcf8183858a0161165b565b81016004815203019020611ac1565b6005546801000000000000000081101561099d57806001610c029201600555611891565b939093610c8d577fe9b311c837d257b1f6982c63cbb418abca3880b67545d8ea67adc97e6626ef1e96610c5396610c3f610c6693610c8297611ac1565b60405197889760c0895260c089019061167e565b913390880152868203604088015261167e565b91610c7081611712565b6060850152838203608085015261167e565b4260a08301520390a1005b634e487b7160e01b600052600060045260246000fd5b60405162461bcd60e51b815260206004820152602160248201527f416363657373207265737472696374656420746f20466163746f727920726f6c6044820152606560f81b6064820152608490fd5b34610269576020366003190112610269576001600160a01b03610d136116fc565b166000526002602052602060ff6040600020541660405190610d3481611712565b8152f35b34610269576020366003190112610269576004356001600160401b038111610269576020610d6d610d8092369060040161159a565b816040519382858094519384920161165b565b81016004815203019020604051906102af826102a88184611756565b34610269576020366003190112610269576001600160a01b03610dbd6116fc565b166000526002602052604060ff816000205416815190610ddc81611712565b8152336020820152f35b34610269576020366003190112610269576004356001600160401b03811161026957610e1690369060040161159a565b600554610e22816118c6565b610e2f6040519182611579565b818152601f19610e3e836118c6565b0160005b8181106110f95750506000928360208201905b848110610fbb578584610e6782611a45565b91610e7181611a77565b91610e7b82611a45565b90610e8583611a45565b9260005b818110610ede57610eb48761022088610ed089610ec28a6040519788976080895260808901906115f0565b9087820360208901526115f0565b908582036040870152611627565b9083820360608501526116a3565b6080610eea8285611934565b510151610ef681611712565b610eff81611712565b60ff610f0b838a611934565b9116905260a0610f1b8285611934565b5101519060028210156105235760019160009060ff610f3a8489611934565b91169052610f488286611934565b5151610f54838a611934565b52610f5f8289611934565b5060e0610f6c8387611934565b51015160c0610f7b8488611934565b51015110159050610fa75760e0610f928286611934565b5101515b610fa08288611934565b5201610e89565b60c0610fb38286611934565b510151610f96565b6003610fc682611891565b50016040516020810191816000825492610fdf8461171c565b93600181169081156110db5750600114611099575b50611008925003601f198101835282611579565b5190206040516020810190611037602082885161102681878b61165b565b81010301601f198101835282611579565b51902014611048575b600101610e55565b9461105b61105587611891565b50611948565b6110658286611934565b526110708185611934565b5060001981146110835760010194611040565b634e487b7160e01b600052601160045260246000fd5b9150506000528160206000206000905b8382106110c15750506020611008928201018b610ff4565b6020919250806001915483858801015201910183916110a9565b60ff19168752506110089380151502830160200191508c9050610ff4565b6020906111046118dd565b82828601015201610e42565b34610269576060366003190112610269576004356001600160401b0381116102695761114090369060040161159a565b6024356001600160401b0381116102695761115f90369060040161159a565b6044356001600160401b0381116102695761117e90369060040161159a565b91336000526002602052600260ff6040600020541661119c81611712565b036114fd5760206111ba91816040519382858094519384920161165b565b810160048152030190206004810160ff815460081c166002811015610523576114b85761010061ff00198254161790556007810182516001600160401b03811161099d57611208825461171c565b601f8111611470575b50806020601f821160011461140d57600091611402575b508160011b916000199060031b1c19161790555b4260068201556008810180546001600160a01b03191633179055825160098201906001600160401b03811161099d57611275825461171c565b601f81116113ba575b506020601f8211600114611328577fedc9920ea2d8611e7d985ecf390206409122b6df9a9c529063c5311531494be1959361131293836112f597946113049460009161131d575b508160011b916000199060031b1c19161790555b600360405196879633885260a0602089015260a088019061167e565b91868303604088015201611756565b90838203606085015261167e565b4260808301520390a1005b90508701518a6112c5565b601f1982169083600052806000209160005b8181106113a2575093600184611304947fedc9920ea2d8611e7d985ecf390206409122b6df9a9c529063c5311531494be19a98946112f59a976113129910611389575b5050811b0190556112d9565b89015160001960f88460031b161c191690558a8061137d565b9192602060018192868c01518155019401920161133a565b826000526020600020601f830160051c810191602084106113f8575b601f0160051c01905b8181106113ec575061127e565b600081556001016113df565b90915081906113d6565b905084015186611228565b60008481528181209250601f198416905b8181106114585750908360019493921061143f575b5050811b01905561123c565b86015160001960f88460031b161c191690558680611433565b9192602060018192868b01518155019401920161141e565b826000526020600020601f830160051c810191602084106114ae575b601f0160051c01905b8181106114a25750611211565b60008155600101611495565b909150819061148c565b60405162461bcd60e51b815260206004820152601d60248201527f43504f544220737461747573206d7573742062652070656e64696e67210000006044820152606490fd5b60405162461bcd60e51b815260206004820152601e60248201527f416363657373207265737472696374656420746f2042504f4d20726f6c6500006044820152606490fd5b61016081019081106001600160401b0382111761099d57604052565b608081019081106001600160401b0382111761099d57604052565b90601f801991011681019081106001600160401b0382111761099d57604052565b81601f82011215610269578035906001600160401b03821161099d57604051926115ce601f8401601f191660200185611579565b8284526020838301011161026957816000926020809301838601378301015290565b906020808351928381520192019060005b81811061160e5750505090565b825160ff16845260209384019390920191600101611601565b906020808351928381520192019060005b8181106116455750505090565b8251845260209384019390920191600101611638565b60005b83811061166e5750506000910152565b818101518382015260200161165e565b906020916116978151809281855285808601910161165b565b601f01601f1916010190565b9080602083519182815201916020808360051b8301019401926000915b8383106116cf57505050505090565b90919293946020806116ed600193601f19868203018752895161167e565b970193019301919392906116c0565b600435906001600160a01b038216820361026957565b6004111561052357565b90600182811c9216801561174c575b602083101461173657565b634e487b7160e01b600052602260045260246000fd5b91607f169161172b565b600092918154916117668361171c565b80835292600181169081156117bc575060011461178257505050565b60009081526020812093945091925b8383106117a2575060209250010190565b600181602092949394548385870101520191019190611791565b915050602093945060ff929192191683830152151560051b010190565b9060028210156105235752565b979361186e979361183d916118206118569561188e9f9d999a95611812906101608f818152019061167e565b8d810360208f01529061167e565b6001600160a01b0390921660408c01528a820360608c015261167e565b9561184781611712565b608089015260a08801906117d9565b60c086015260e085015283820361010085015261167e565b6001600160a01b039093166101208201528083036101409091015261167e565b90565b6005548110156118b0576005600052600a602060002091020190600090565b634e487b7160e01b600052603260045260246000fd5b6001600160401b03811161099d5760051b60200190565b604051906118ea82611542565b60606101408382815282602082015260006040820152828082015260006080820152600060a0820152600060c0820152600060e08201528261010082015260006101208201520152565b80518210156118b05760209160051b010190565b9060405161195581611542565b80926040516119688161047f8185611756565b825260405161197e8161047f8160018601611756565b602083015260028101546001600160a01b0316604080840191909152516119ac8161047f8160038601611756565b606083015260ff60048201548181166119c481611712565b608085015260081c1691600283101561052357611a416101409260099460a0840152600581015460c0840152600681015460e0840152604051611a0e8161047f8160078601611756565b61010084015260088101546001600160a01b0316610120840152604051948591611a3a91839101611756565b0384611579565b0152565b90611a4f826118c6565b611a5c6040519182611579565b8281528092611a6d601f19916118c6565b0190602036910137565b90611a81826118c6565b611a8e6040519182611579565b8281528092611a9f601f19916118c6565b019060005b828110611ab057505050565b806060602080938501015201611aa4565b909182519283516001600160401b03811161099d57611ae0845461171c565b601f81116120ca575b50602094601f82116001146120655794819293949560009261205a575b50508160011b916000199060031b1c19161783555b6001830160208201518051906001600160401b03821161099d578190611b41845461171c565b601f8111612007575b50602090601f8311600114611fa257600092611f97575b50508160011b916000199060031b1c19161790555b60408101516002840180546001600160a01b0319166001600160a01b03929092169190911790556060810151805160038501916001600160401b03821161099d578190611bc3845461171c565b601f8111611f44575b50602090601f8311600114611edf57600092611ed4575b50508160011b916000199060031b1c19161790555b60048301926080820151611c0b81611712565b611c1481611712565b60ff8019865416911617845560a08201519360028510156105235760009461ff0082549160081b169061ff00191617905560c0820151600582015560e08201516006820155600781016101008301518051906001600160401b038211611ec057611c7e835461171c565b601f8111611e7b575b50602090601f8311600114611e115791806009949261014096948a92611e06575b50508160011b916000199060031b1c19161790555b6101208401516008820180546001600160a01b0319166001600160a01b039290921691909117905591909201518051909492909101916001600160401b038211611df257611d0b835461171c565b601f8111611dad575b50602090601f8311600114611d4f57948293949592611d44575b50508160011b916000199060031b1c1916179055565b015190503880611d2e565b90601f198316848352818320925b818110611d9557509583600195969710611d7c575b505050811b019055565b015160001960f88460031b161c19169055388080611d72565b9192602060018192868b015181550194019201611d5d565b83825260208220601f840160051c81019160208510611de8575b601f0160051c01905b818110611ddd5750611d14565b828155600101611dd0565b9091508190611dc7565b634e487b7160e01b81526041600452602490fd5b015190503880611ca8565b8388528188209190601f198416895b818110611e63575092600192859261014098966009989610611e4a575b505050811b019055611cbd565b015160001960f88460031b161c19169055388080611e3d565b92936020600181928786015181550195019301611e20565b83885260208820601f840160051c81019160208510611eb6575b601f0160051c01905b818110611eab5750611c87565b888155600101611e9e565b9091508190611e95565b634e487b7160e01b87526041600452602487fd5b015190503880611be3565b60008581528281209350601f198516905b818110611f2c5750908460019594939210611f13575b505050811b019055611bf8565b015160001960f88460031b161c19169055388080611f06565b92936020600181928786015181550195019301611ef0565b909150836000526020600020601f840160051c81019160208510611f8d575b90601f859493920160051c01905b818110611f7e5750611bcc565b60008155849350600101611f71565b9091508190611f63565b015190503880611b61565b60008581528281209350601f198516905b818110611fef5750908460019594939210611fd6575b505050811b019055611b76565b015160001960f88460031b161c19169055388080611fc9565b92936020600181928786015181550195019301611fb3565b909150836000526020600020601f840160051c81019160208510612050575b90601f859493920160051c01905b8181106120415750611b4a565b60008155849350600101612034565b9091508190612026565b015190503880611b06565b601f1982169585600052806000209160005b8881106120b257508360019596979810612099575b505050811b018355611b1b565b015160001960f88460031b161c1916905538808061208c565b91926020600181928685015181550194019201612077565b846000526020600020601f830160051c81019160208410612108575b601f0160051c01905b8181106120fc5750611ae9565b600081556001016120ef565b90915081906120e656fea2646970667358221220f34a58b56163ba13ce83f17d53b0d856332290db3126ea2bc84e472cfecd3d3a64736f6c634300081b0033",
  "linkReferences": {},
  "deployedLinkReferences": {}
}