{
  "_format": "hh-sol-artifact-1",
  "contractName": "MainSupplyChain",
  "sourceName": "contracts/MainSupplyChain.sol",
  "abi": [
    {
      "inputs": [],
      "stateMutability": "nonpayable",
      "type": "constructor"
    },
    {
      "anonymous": false,
      "inputs": [
        {
          "indexed": false,
          "internalType": "address",
          "name": "userAddr",
          "type": "address"
        },
        {
          "indexed": false,
          "internalType": "string",
          "name": "name",
          "type": "string"
        },
        {
          "indexed": false,
          "internalType": "string",
          "name": "instanceName",
          "type": "string"
        },
        {
          "indexed": false,
          "internalType": "enum MainSupplyChain.en_roles",
          "name": "role",
          "type": "uint8"
        }
      ],
      "name": "evt_UserRegistered",
      "type": "event"
    },
    {
      "anonymous": false,
      "inputs": [
        {
          "indexed": false,
          "internalType": "address",
          "name": "bpomAddr",
          "type": "address"
        },
        {
          "indexed": false,
          "internalType": "string",
          "name": "receiverName",
          "type": "string"
        },
        {
          "indexed": false,
          "internalType": "string",
          "name": "factoryName",
          "type": "string"
        },
        {
          "indexed": false,
          "internalType": "string",
          "name": "cpotbNumber",
          "type": "string"
        },
        {
          "indexed": false,
          "internalType": "uint256",
          "name": "timestampApprove",
          "type": "uint256"
        }
      ],
      "name": "evt_cpotbApproved",
      "type": "event"
    },
    {
      "anonymous": false,
      "inputs": [
        {
          "indexed": false,
          "internalType": "string",
          "name": "senderName",
          "type": "string"
        },
        {
          "indexed": false,
          "internalType": "address",
          "name": "factoryAddr",
          "type": "address"
        },
        {
          "indexed": false,
          "internalType": "string",
          "name": "factoryName",
          "type": "string"
        },
        {
          "indexed": false,
          "internalType": "enum MainSupplyChain.en_jenisSediaan",
          "name": "jenisSediaan",
          "type": "uint8"
        },
        {
          "indexed": false,
          "internalType": "string",
          "name": "cpotbId",
          "type": "string"
        },
        {
          "indexed": false,
          "internalType": "uint256",
          "name": "timestampRequest",
          "type": "uint256"
        }
      ],
      "name": "evt_cpotbRequested",
      "type": "event"
    },
    {
      "inputs": [
        {
          "internalType": "string",
          "name": "",
          "type": "string"
        },
        {
          "internalType": "uint256",
          "name": "",
          "type": "uint256"
        }
      ],
      "name": "allCpotbDataByFactory",
      "outputs": [
        {
          "internalType": "string",
          "name": "cpotbId",
          "type": "string"
        },
        {
          "internalType": "string",
          "name": "senderName",
          "type": "string"
        },
        {
          "internalType": "address",
          "name": "factoryAddr",
          "type": "address"
        },
        {
          "internalType": "string",
          "name": "factoryName",
          "type": "string"
        },
        {
          "internalType": "enum MainSupplyChain.en_jenisSediaan",
          "name": "jenisSediaan",
          "type": "uint8"
        },
        {
          "internalType": "enum MainSupplyChain.en_statusCert",
          "name": "status",
          "type": "uint8"
        },
        {
          "internalType": "uint256",
          "name": "timestampRequest",
          "type": "uint256"
        },
        {
          "internalType": "uint256",
          "name": "timestampApprove",
          "type": "uint256"
        },
        {
          "internalType": "string",
          "name": "cpotbNumber",
          "type": "string"
        },
        {
          "internalType": "address",
          "name": "bpomAddr",
          "type": "address"
        },
        {
          "internalType": "string",
          "name": "receiverName",
          "type": "string"
        }
      ],
      "stateMutability": "view",
      "type": "function"
    },
    {
      "inputs": [
        {
          "internalType": "string",
          "name": "_cpotbId",
          "type": "string"
        },
        {
          "internalType": "string",
          "name": "_cpotbNumber",
          "type": "string"
        },
        {
          "internalType": "string",
          "name": "_receiverName",
          "type": "string"
        }
      ],
      "name": "approveCpotb",
      "outputs": [],
      "stateMutability": "nonpayable",
      "type": "function"
    },
    {
      "inputs": [
        {
          "internalType": "string",
          "name": "",
          "type": "string"
        }
      ],
      "name": "cpotbDataById",
      "outputs": [
        {
          "internalType": "string",
          "name": "cpotbId",
          "type": "string"
        },
        {
          "internalType": "string",
          "name": "senderName",
          "type": "string"
        },
        {
          "internalType": "address",
          "name": "factoryAddr",
          "type": "address"
        },
        {
          "internalType": "string",
          "name": "factoryName",
          "type": "string"
        },
        {
          "internalType": "enum MainSupplyChain.en_jenisSediaan",
          "name": "jenisSediaan",
          "type": "uint8"
        },
        {
          "internalType": "enum MainSupplyChain.en_statusCert",
          "name": "status",
          "type": "uint8"
        },
        {
          "internalType": "uint256",
          "name": "timestampRequest",
          "type": "uint256"
        },
        {
          "internalType": "uint256",
          "name": "timestampApprove",
          "type": "uint256"
        },
        {
          "internalType": "string",
          "name": "cpotbNumber",
          "type": "string"
        },
        {
          "internalType": "address",
          "name": "bpomAddr",
          "type": "address"
        },
        {
          "internalType": "string",
          "name": "receiverName",
          "type": "string"
        }
      ],
      "stateMutability": "view",
      "type": "function"
    },
    {
      "inputs": [
        {
          "internalType": "string",
          "name": "_instanceName",
          "type": "string"
        }
      ],
      "name": "getListCpotbByFactory",
      "outputs": [
        {
          "internalType": "uint8[]",
          "name": "",
          "type": "uint8[]"
        },
        {
          "internalType": "string[]",
          "name": "",
          "type": "string[]"
        },
        {
          "internalType": "uint8[]",
          "name": "",
          "type": "uint8[]"
        },
        {
          "internalType": "uint256[]",
          "name": "",
          "type": "uint256[]"
        },
        {
          "internalType": "string[]",
          "name": "",
          "type": "string[]"
        }
      ],
      "stateMutability": "view",
      "type": "function"
    },
    {
      "inputs": [
        {
          "internalType": "string",
          "name": "_cpotbId",
          "type": "string"
        }
      ],
      "name": "getListCpotbById",
      "outputs": [
        {
          "components": [
            {
              "internalType": "string",
              "name": "cpotbId",
              "type": "string"
            },
            {
              "internalType": "string",
              "name": "senderName",
              "type": "string"
            },
            {
              "internalType": "address",
              "name": "factoryAddr",
              "type": "address"
            },
            {
              "internalType": "string",
              "name": "factoryName",
              "type": "string"
            },
            {
              "internalType": "enum MainSupplyChain.en_jenisSediaan",
              "name": "jenisSediaan",
              "type": "uint8"
            },
            {
              "internalType": "enum MainSupplyChain.en_statusCert",
              "name": "status",
              "type": "uint8"
            },
            {
              "internalType": "uint256",
              "name": "timestampRequest",
              "type": "uint256"
            },
            {
              "internalType": "uint256",
              "name": "timestampApprove",
              "type": "uint256"
            },
            {
              "internalType": "string",
              "name": "cpotbNumber",
              "type": "string"
            },
            {
              "internalType": "address",
              "name": "bpomAddr",
              "type": "address"
            },
            {
              "internalType": "string",
              "name": "receiverName",
              "type": "string"
            }
          ],
          "internalType": "struct MainSupplyChain.st_cpotbData",
          "name": "",
          "type": "tuple"
        }
      ],
      "stateMutability": "view",
      "type": "function"
    },
    {
      "inputs": [
        {
          "internalType": "address",
          "name": "_userAddr",
          "type": "address"
        }
      ],
      "name": "getRegisteredUser",
      "outputs": [
        {
          "internalType": "address",
          "name": "",
          "type": "address"
        },
        {
          "internalType": "string",
          "name": "",
          "type": "string"
        },
        {
          "internalType": "string",
          "name": "",
          "type": "string"
        },
        {
          "internalType": "uint8",
          "name": "",
          "type": "uint8"
        }
      ],
      "stateMutability": "view",
      "type": "function"
    },
    {
      "inputs": [],
      "name": "owner",
      "outputs": [
        {
          "internalType": "address",
          "name": "",
          "type": "address"
        }
      ],
      "stateMutability": "view",
      "type": "function"
    },
    {
      "inputs": [
        {
          "internalType": "string",
          "name": "_name",
          "type": "string"
        },
        {
          "internalType": "string",
          "name": "_instanceName",
          "type": "string"
        },
        {
          "internalType": "address",
          "name": "_userAddr",
          "type": "address"
        },
        {
          "internalType": "uint8",
          "name": "_userRole",
          "type": "uint8"
        }
      ],
      "name": "registerUser",
      "outputs": [],
      "stateMutability": "nonpayable",
      "type": "function"
    },
    {
      "inputs": [
        {
          "internalType": "string",
          "name": "_instanceName",
          "type": "string"
        },
        {
          "internalType": "string",
          "name": "_cpotbId",
          "type": "string"
        },
        {
          "internalType": "string",
          "name": "_senderName",
          "type": "string"
        },
        {
          "internalType": "enum MainSupplyChain.en_jenisSediaan",
          "name": "_jenisSediaan",
          "type": "uint8"
        }
      ],
      "name": "requestCpotb",
      "outputs": [],
      "stateMutability": "nonpayable",
      "type": "function"
    },
    {
      "inputs": [
        {
          "internalType": "address",
          "name": "",
          "type": "address"
        }
      ],
      "name": "userRoles",
      "outputs": [
        {
          "internalType": "enum MainSupplyChain.en_roles",
          "name": "",
          "type": "uint8"
        }
      ],
      "stateMutability": "view",
      "type": "function"
    }
  ],
  "bytecode": "0x60808060405234602757600080546001600160a01b03191633179055611dae908161002d8239f35b600080fdfe6080604052600436101561001257600080fd5b60003560e01c8063073a4cf81461100e57806314fd887414610e245780636aa8129914610dc057806374d5e10014610d7a5780637c4535e014610b555780638da5cb5b14610b2c578063d123367214610630578063e1a8763c14610502578063e54a29bb146103bb5763fbe9a68e1461008a57600080fd5b346103b65760203660031901126103b6576004356001600160401b0381116103b6576100ba903690600401611326565b60606101406040516100cb816112ce565b82815282602082015260006040820152828082015260006080820152600060a0820152600060c0820152600060e0820152826101008201526000610120820152015260405190610139815192602081818501956101298183896113b3565b8101600681520301902054611454565b1561037157610156916020916040519384928392519283916113b3565b8101600681520301902060405161016c816112ce565b6040516101848161017d818661148e565b0382611305565b8152604051916101a28361019b816001850161148e565b0384611305565b6020820192835260028101546001600160a01b031660408084019182525191906101d38361019b816003860161148e565b6060840192835260048201549060ff8083169260808701936101f481611511565b845260081c1660a0860190600281101561035b578152600584015460c0870190815260068501549160e0880192835260405193848060078901906102379161148e565b036102429086611305565b610100890194855260088701546001600160a01b03166101208a0190815260405190989097889061027790829060090161148e565b036102829089611305565b6101408a019788526040519a8b9a60208c525160208c0161016090526101808c016102ac916113d6565b90518b8203601f190160408d01526102c491906113d6565b91516001600160a01b031660608b015251898203601f190160808b01526102eb91906113d6565b94516102f681611511565b60a08901525160c088016103099161151b565b5160e08701525161010086015251848203601f190161012086015261032e91906113d6565b91516001600160a01b031661014084015251828203601f190161016084015261035791906113d6565b0390f35b634e487b7160e01b600052602160045260246000fd5b60405162461bcd60e51b815260206004820152601a60248201527f4e6f206461746120666f756e6420666f7220746869732049442e0000000000006044820152606490fd5b600080fd5b346103b65760203660031901126103b6576001600160a01b036103dc6115d3565b1680600052600360205260ff60406000205416156104c4576000526001602052604060002060405161040d816112ea565b60405161041e8161017d818661148e565b815260026040519261043e84610437816001850161148e565b0385611305565b6020830193845201546104ba60ff604084019260018060a01b038116845260a01c169161046a83611511565b82606085015260018060a01b039051169251935161048783611511565b61049083611511565b6104ac60405195869586526080602087015260808601906113d6565b9084820360408601526113d6565b9060608301520390f35b60405162461bcd60e51b8152602060048201526016602482015275155cd95c881a5cc81b9bdd081c9959da5cdd195c995960521b6044820152606490fd5b346103b65760403660031901126103b6576004356001600160401b0381116103b657610532903690600401611326565b61054e60206024359281604051938285809451938492016113b3565b810160058152030190209081548110156103b65761056b916115e9565b50604051906105858261057e818461148e565b0383611305565b61035760096040519261059f84610437816001850161148e565b60028101546040516001600160a01b03909116956105c48261057e816003870161148e565b6004830154600584015490600685015492604051946105f1866105ea8160078b0161148e565b0387611305565b61061960018060a01b0360088901541697610612604051809b81930161148e565b0389611305565b6040519a8b9a60ff808660081c169516938c611528565b346103b65760803660031901126103b6576004356001600160401b0381116103b657610660903690600401611326565b6024356001600160401b0381116103b65761067f903690600401611326565b906044356001600160a01b038116908190036103b65760643560ff81168091036103b657604060008061070661071a84516106ba8682611305565b602081527f5265676973746572557365722066756e6374696f6e2063616c6c65642062793a6020820152855192839163319af33360e01b602084015287602484015260648301906113d6565b88604483015203601f198101835282611305565b6020815191016a636f6e736f6c652e6c6f675afa5060008061077d61079184516107448682611305565b600a8152692ab9b2b9102937b6329d60b11b60208201528551928391632d839cb360e21b602084015287602484015260648301906113d6565b87604483015203601f198101835282611305565b6020815191016a636f6e736f6c652e6c6f675afa506107af82611511565b8051946107bb866112ea565b84865260208601958187528281019085825260608101906107db86611511565b8582528660005260016020528460002090518051906001600160401b038211610a5357819061080a8454611454565b601f8111610ad9575b50602090601f8311600114610a7457600092610a69575b50508160011b916000199060031b1c19161781555b6001810198519889516001600160401b038111610a53576108608254611454565b601f8111610a0b575b506020601f821160011461097957918161095a9897969594926002947f93b86cf0a1d8e18e724e08d47f7248859de317795be109ec2495f6fc7445b4e99e60009261096e575b50508160011b916000199060031b1c19161790555b9251920180546001600160a01b0319166001600160a01b0393909316929092178255516108f081611511565b6108f981611511565b815460ff60a01b191660a09190911b60ff60a01b1617905560008581526003602052829020805460ff1916600117905561093284611511565b61094d825196879687526080602088015260808701906113d6565b91858303908601526113d6565b9061096481611511565b60608301520390a1005b015190508e806108af565b601f1982169b83600052816000209c60005b8181106109f35750927f93b86cf0a1d8e18e724e08d47f7248859de317795be109ec2495f6fc7445b4e99d600295936001938361095a9d9c9b9a9997106109da575b505050811b0190556108c4565b015160001960f88460031b161c191690558e80806109cd565b838301518f556001909e019d6020938401930161098b565b826000526020600020601f830160051c81019160208410610a49575b601f0160051c01905b818110610a3d5750610869565b60008155600101610a30565b9091508190610a27565b634e487b7160e01b600052604160045260246000fd5b015190508b8061082a565b60008581528281209350601f198516905b818110610ac15750908460019594939210610aa8575b505050811b01815561083f565b015160001960f88460031b161c191690558b8080610a9b565b92936020600181928786015181550195019301610a85565b909150836000526020600020601f840160051c81019160208510610b22575b90601f859493920160051c01905b818110610b135750610813565b60008155849350600101610b06565b9091508190610af8565b346103b65760003660031901126103b6576000546040516001600160a01b039091168152602090f35b346103b65760803660031901126103b6576004356001600160401b0381116103b657610b85903690600401611326565b6024356001600160401b0381116103b657610ba4903690600401611326565b906044356001600160401b0381116103b657610bc4903690600401611326565b60643560048110156103b657336000526002602052610bf460ff60406000205416610bee81611511565b1561161b565b60405190610c01826112ce565b848252826020830152336040830152836060830152610c1f81611511565b806080830152600060a08301524260c0830152600060e0830152602094604051610c498782611305565b600081526101008401526000610120840152604051610c688782611305565b60008152610140840152610c998360405188818551610c8a8183858a016113b3565b81016006815203019020611727565b60405186818751610cad8183858c016113b3565b81016005815203019020805468010000000000000000811015610a5357610cd9916001820181556115e9565b939093610d64577fe9b311c837d257b1f6982c63cbb418abca3880b67545d8ea67adc97e6626ef1e96610d2a96610d16610d3d93610d5997611727565b60405197889760c0895260c08901906113d6565b91339088015286820360408801526113d6565b91610d4781611511565b606085015283820360808501526113d6565b4260a08301520390a1005b634e487b7160e01b600052600060045260246000fd5b346103b65760203660031901126103b6576001600160a01b03610d9b6115d3565b166000526002602052602060ff6040600020541660405190610dbc81611511565b8152f35b346103b65760203660031901126103b6576004356001600160401b0381116103b6576020610df5610e08923690600401611326565b81604051938285809451938492016113b3565b81016006815203019020604051906105858261057e818461148e565b346103b65760203660031901126103b6576004356001600160401b0381116103b6576020610df5610e59923690600401611326565b810160058152030190208054610e6e81611697565b90610e78816116c9565b90610e82816116c9565b91610e8c82611697565b90610e9683611680565b92610ea46040519485611305565b808452610eb081611680565b602085019790601f190136893760005b828110610f4957505050602091610ef6610f0492610ee96040519860a08a5260a08a019061137c565b90888203868a01526113fb565b90868203604088015261137c565b918483036060860152519182815201939060005b818110610f33578480610357888783820360808501526113fb565b8251865260209586019590920191600101610f18565b610f5381836115e9565b509060ff6004830154818116610f6881611511565b610f72848d611713565b52604051610f878161017d816003890161148e565b610f918489611713565b52610f9c8388611713565b5060081c1691600283101561035b57600192610fb88389611713565b52604051610fca8161017d818561148e565b610fd4838b611713565b52610fdf828a611713565b506005600682015491015480821160001461100757505b6110008289611713565b5201610ec0565b9050610ff6565b346103b65760603660031901126103b6576004356001600160401b0381116103b65761103e903690600401611326565b6024356001600160401b0381116103b65761105d903690600401611326565b906044356001600160401b0381116103b65760206110826110a8923690600401611326565b923360005260028252610df5600260ff604060002054166110a281611511565b1461161b565b810160048152030190206004810160ff815460081c16600281101561035b576112895761010061ff00198254161790556007810183516001600160401b038111610a53576110f68254611454565b601f8111611241575b506020601f82116001146111af5761117c949361119993837fedc9920ea2d8611e7d985ecf390206409122b6df9a9c529063c5311531494be1989461118b946000916111a4575b508160011b916000199060031b1c19161790555b426006820155600360405196879633885260a0602089015260a08801906113d6565b9186830360408801520161148e565b9083820360608501526113d6565b4260808301520390a1005b90508501518a611146565b601f1982169083600052806000209160005b81811061122957509360018461118b9461117c9998947fedc9920ea2d8611e7d985ecf390206409122b6df9a9c529063c5311531494be19b976111999910611210575b5050811b01905561115a565b87015160001960f88460031b161c191690558a80611204565b9192602060018192868c0151815501940192016111c1565b826000526020600020601f830160051c8101916020841061127f575b601f0160051c01905b81811061127357506110ff565b60008155600101611266565b909150819061125d565b60405162461bcd60e51b815260206004820152601d60248201527f43504f544220737461747573206d7573742062652070656e64696e67210000006044820152606490fd5b61016081019081106001600160401b03821117610a5357604052565b608081019081106001600160401b03821117610a5357604052565b90601f801991011681019081106001600160401b03821117610a5357604052565b81601f820112156103b6578035906001600160401b038211610a53576040519261135a601f8401601f191660200185611305565b828452602083830101116103b657816000926020809301838601378301015290565b906020808351928381520192019060005b81811061139a5750505090565b825160ff1684526020938401939092019160010161138d565b60005b8381106113c65750506000910152565b81810151838201526020016113b6565b906020916113ef815180928185528580860191016113b3565b601f01601f1916010190565b9080602083519182815201916020808360051b8301019401926000915b83831061142757505050505090565b9091929394602080611445600193601f1986820301875289516113d6565b97019301930191939290611418565b90600182811c92168015611484575b602083101461146e57565b634e487b7160e01b600052602260045260246000fd5b91607f1691611463565b6000929181549161149e83611454565b80835292600181169081156114f457506001146114ba57505050565b60009081526020812093945091925b8383106114da575060209250010190565b6001816020929493945483858701015201910191906114c9565b915050602093945060ff929192191683830152151560051b010190565b6004111561035b57565b90600282101561035b5752565b97936115b0979361157f91611562611598956115d09f9d999a95611554906101608f81815201906113d6565b8d810360208f0152906113d6565b6001600160a01b0390921660408c01528a820360608c01526113d6565b9561158981611511565b608089015260a088019061151b565b60c086015260e08501528382036101008501526113d6565b6001600160a01b03909316610120820152808303610140909101526113d6565b90565b600435906001600160a01b03821682036103b657565b805482101561160557600052600a602060002091020190600090565b634e487b7160e01b600052603260045260246000fd5b1561162257565b60405162461bcd60e51b815260206004820152603060248201527f536f7272792c20796f7520646f6e2774206861766520617574686f72697a656460448201526f20746f2061636365737320746869732160801b6064820152608490fd5b6001600160401b038111610a535760051b60200190565b906116a182611680565b6116ae6040519182611305565b82815280926116bf601f1991611680565b0190602036910137565b906116d382611680565b6116e06040519182611305565b82815280926116f1601f1991611680565b019060005b82811061170257505050565b8060606020809385010152016116f6565b80518210156116055760209160051b010190565b909182519283516001600160401b038111610a53576117468454611454565b601f8111611d30575b50602094601f8211600114611ccb57948192939495600092611cc0575b50508160011b916000199060031b1c19161783555b6001830160208201518051906001600160401b038211610a535781906117a78454611454565b601f8111611c6d575b50602090601f8311600114611c0857600092611bfd575b50508160011b916000199060031b1c19161790555b60408101516002840180546001600160a01b0319166001600160a01b03929092169190911790556060810151805160038501916001600160401b038211610a535781906118298454611454565b601f8111611baa575b50602090601f8311600114611b4557600092611b3a575b50508160011b916000199060031b1c19161790555b6004830192608082015161187181611511565b61187a81611511565b60ff8019865416911617845560a082015193600285101561035b5760009461ff0082549160081b169061ff00191617905560c0820151600582015560e08201516006820155600781016101008301518051906001600160401b038211611b26576118e48354611454565b601f8111611ae1575b50602090601f8311600114611a775791806009949261014096948a92611a6c575b50508160011b916000199060031b1c19161790555b6101208401516008820180546001600160a01b0319166001600160a01b039290921691909117905591909201518051909492909101916001600160401b038211611a58576119718354611454565b601f8111611a13575b50602090601f83116001146119b5579482939495926119aa575b50508160011b916000199060031b1c1916179055565b015190503880611994565b90601f198316848352818320925b8181106119fb575095836001959697106119e2575b505050811b019055565b015160001960f88460031b161c191690553880806119d8565b9192602060018192868b0151815501940192016119c3565b83825260208220601f840160051c81019160208510611a4e575b601f0160051c01905b818110611a43575061197a565b828155600101611a36565b9091508190611a2d565b634e487b7160e01b81526041600452602490fd5b01519050388061190e565b8388528188209190601f198416895b818110611ac9575092600192859261014098966009989610611ab0575b505050811b019055611923565b015160001960f88460031b161c19169055388080611aa3565b92936020600181928786015181550195019301611a86565b83885260208820601f840160051c81019160208510611b1c575b601f0160051c01905b818110611b1157506118ed565b888155600101611b04565b9091508190611afb565b634e487b7160e01b87526041600452602487fd5b015190503880611849565b60008581528281209350601f198516905b818110611b925750908460019594939210611b79575b505050811b01905561185e565b015160001960f88460031b161c19169055388080611b6c565b92936020600181928786015181550195019301611b56565b909150836000526020600020601f840160051c81019160208510611bf3575b90601f859493920160051c01905b818110611be45750611832565b60008155849350600101611bd7565b9091508190611bc9565b0151905038806117c7565b60008581528281209350601f198516905b818110611c555750908460019594939210611c3c575b505050811b0190556117dc565b015160001960f88460031b161c19169055388080611c2f565b92936020600181928786015181550195019301611c19565b909150836000526020600020601f840160051c81019160208510611cb6575b90601f859493920160051c01905b818110611ca757506117b0565b60008155849350600101611c9a565b9091508190611c8c565b01519050388061176c565b601f1982169585600052806000209160005b888110611d1857508360019596979810611cff575b505050811b018355611781565b015160001960f88460031b161c19169055388080611cf2565b91926020600181928685015181550194019201611cdd565b846000526020600020601f830160051c81019160208410611d6e575b601f0160051c01905b818110611d62575061174f565b60008155600101611d55565b9091508190611d4c56fea26469706673582212200400dd8189b39fb0285434ab4103a3f0758c221245bc5aeb019680f70381110c64736f6c634300081b0033",
  "linkReferences": {},
  "deployedLinkReferences": {}
}