{
  "_format": "hh-sol-artifact-1",
  "contractName": "CertificateManager",
  "sourceName": "contracts/CertificateManager.sol",
  "abi": [
    {
      "inputs": [
        {
          "internalType": "address",
          "name": "roleManagerAddr",
          "type": "address"
        },
        {
          "internalType": "address",
          "name": "cpotbCertificateAddr",
          "type": "address"
        },
        {
          "internalType": "address",
          "name": "cdobCertificateAddr",
          "type": "address"
        }
      ],
      "stateMutability": "nonpayable",
      "type": "constructor"
    },
    {
      "inputs": [],
      "name": "ReentrancyGuardReentrantCall",
      "type": "error"
    },
    {
      "anonymous": false,
      "inputs": [
        {
          "indexed": false,
          "internalType": "string",
          "name": "bpomInstance",
          "type": "string"
        },
        {
          "indexed": false,
          "internalType": "address",
          "name": "bpomAddr",
          "type": "address"
        },
        {
          "indexed": false,
          "internalType": "uint8",
          "name": "tipePermohonan",
          "type": "uint8"
        },
        {
          "indexed": false,
          "internalType": "string",
          "name": "certNumber",
          "type": "string"
        },
        {
          "indexed": false,
          "internalType": "uint256",
          "name": "timestamp",
          "type": "uint256"
        }
      ],
      "name": "CertApproved",
      "type": "event"
    },
    {
      "anonymous": false,
      "inputs": [
        {
          "indexed": false,
          "internalType": "address",
          "name": "bpomAddr",
          "type": "address"
        },
        {
          "indexed": false,
          "internalType": "uint256",
          "name": "timestamp",
          "type": "uint256"
        }
      ],
      "name": "CertApprovedExtendRequest",
      "type": "event"
    },
    {
      "anonymous": false,
      "inputs": [
        {
          "indexed": false,
          "internalType": "address",
          "name": "senderAddr",
          "type": "address"
        },
        {
          "indexed": false,
          "internalType": "uint256",
          "name": "timestamp",
          "type": "uint256"
        }
      ],
      "name": "CertExtendRequest",
      "type": "event"
    },
    {
      "anonymous": false,
      "inputs": [
        {
          "indexed": false,
          "internalType": "string",
          "name": "bpomInstance",
          "type": "string"
        },
        {
          "indexed": false,
          "internalType": "address",
          "name": "bpomAddr",
          "type": "address"
        },
        {
          "indexed": false,
          "internalType": "uint8",
          "name": "tipePermohonan",
          "type": "uint8"
        },
        {
          "indexed": false,
          "internalType": "uint256",
          "name": "timestamp",
          "type": "uint256"
        },
        {
          "indexed": false,
          "internalType": "string",
          "name": "rejectMsg",
          "type": "string"
        }
      ],
      "name": "CertRejected",
      "type": "event"
    },
    {
      "anonymous": false,
      "inputs": [
        {
          "indexed": false,
          "internalType": "string",
          "name": "senderInstance",
          "type": "string"
        },
        {
          "indexed": false,
          "internalType": "address",
          "name": "senderAddr",
          "type": "address"
        },
        {
          "indexed": false,
          "internalType": "uint256",
          "name": "timestamp",
          "type": "uint256"
        }
      ],
      "name": "CertRenewRequest",
      "type": "event"
    },
    {
      "anonymous": false,
      "inputs": [
        {
          "indexed": false,
          "internalType": "string",
          "name": "senderInstance",
          "type": "string"
        },
        {
          "indexed": false,
          "internalType": "address",
          "name": "senderAddr",
          "type": "address"
        },
        {
          "indexed": false,
          "internalType": "uint8",
          "name": "tipePermohonan",
          "type": "uint8"
        },
        {
          "indexed": false,
          "internalType": "uint256",
          "name": "timestamp",
          "type": "uint256"
        }
      ],
      "name": "CertRequested",
      "type": "event"
    },
    {
      "inputs": [
        {
          "components": [
            {
              "internalType": "string",
              "name": "certNumber",
              "type": "string"
            },
            {
              "internalType": "string",
              "name": "certId",
              "type": "string"
            },
            {
              "internalType": "string",
              "name": "bpomName",
              "type": "string"
            },
            {
              "internalType": "string",
              "name": "bpomInstance",
              "type": "string"
            },
            {
              "internalType": "address",
              "name": "bpomAddr",
              "type": "address"
            }
          ],
          "internalType": "struct CertificateManager.CertificateApproval",
          "name": "approveData",
          "type": "tuple"
        },
        {
          "internalType": "string",
          "name": "ipfsCert",
          "type": "string"
        },
        {
          "internalType": "uint8",
          "name": "tipePermohonan",
          "type": "uint8"
        }
      ],
      "name": "approveCdob",
      "outputs": [],
      "stateMutability": "nonpayable",
      "type": "function"
    },
    {
      "inputs": [
        {
          "components": [
            {
              "internalType": "string",
              "name": "certNumber",
              "type": "string"
            },
            {
              "internalType": "string",
              "name": "certId",
              "type": "string"
            },
            {
              "internalType": "string",
              "name": "bpomName",
              "type": "string"
            },
            {
              "internalType": "string",
              "name": "bpomInstance",
              "type": "string"
            },
            {
              "internalType": "address",
              "name": "bpomAddr",
              "type": "address"
            }
          ],
          "internalType": "struct CertificateManager.CertificateApproval",
          "name": "approveData",
          "type": "tuple"
        },
        {
          "internalType": "string",
          "name": "ipfsCert",
          "type": "string"
        },
        {
          "internalType": "uint8",
          "name": "jenisSediaan",
          "type": "uint8"
        }
      ],
      "name": "approveCpotb",
      "outputs": [],
      "stateMutability": "nonpayable",
      "type": "function"
    },
    {
      "inputs": [
        {
          "internalType": "string",
          "name": "cpotbId",
          "type": "string"
        },
        {
          "internalType": "string",
          "name": "ipfsCert",
          "type": "string"
        }
      ],
      "name": "approveExtendCpotb",
      "outputs": [],
      "stateMutability": "nonpayable",
      "type": "function"
    },
    {
      "inputs": [],
      "name": "cdobCertificate",
      "outputs": [
        {
          "internalType": "contract CdobCertificate",
          "name": "",
          "type": "address"
        }
      ],
      "stateMutability": "view",
      "type": "function"
    },
    {
      "inputs": [],
      "name": "cpotbCertificate",
      "outputs": [
        {
          "internalType": "contract CpotbCertificate",
          "name": "",
          "type": "address"
        }
      ],
      "stateMutability": "view",
      "type": "function"
    },
    {
      "inputs": [
        {
          "internalType": "string",
          "name": "cpotbId",
          "type": "string"
        },
        {
          "internalType": "uint256",
          "name": "expTimestamp",
          "type": "uint256"
        }
      ],
      "name": "extendCpotb",
      "outputs": [],
      "stateMutability": "nonpayable",
      "type": "function"
    },
    {
      "inputs": [],
      "name": "getAllCdob",
      "outputs": [
        {
          "components": [
            {
              "internalType": "string",
              "name": "certId",
              "type": "string"
            },
            {
              "internalType": "string",
              "name": "certNumber",
              "type": "string"
            },
            {
              "internalType": "string",
              "name": "instanceName",
              "type": "string"
            },
            {
              "internalType": "uint8",
              "name": "tipePermohonan",
              "type": "uint8"
            },
            {
              "internalType": "enum EnumsLibrary.StatusCertificate",
              "name": "status",
              "type": "uint8"
            },
            {
              "internalType": "string",
              "name": "certHash",
              "type": "string"
            }
          ],
          "internalType": "struct CdobCertificate.CertificateList[]",
          "name": "",
          "type": "tuple[]"
        }
      ],
      "stateMutability": "view",
      "type": "function"
    },
    {
      "inputs": [],
      "name": "getAllCpotb",
      "outputs": [
        {
          "components": [
            {
              "internalType": "string",
              "name": "certId",
              "type": "string"
            },
            {
              "internalType": "string",
              "name": "certNumber",
              "type": "string"
            },
            {
              "internalType": "string",
              "name": "instanceName",
              "type": "string"
            },
            {
              "internalType": "uint8",
              "name": "tipePermohonan",
              "type": "uint8"
            },
            {
              "internalType": "enum EnumsLibrary.StatusCertificate",
              "name": "status",
              "type": "uint8"
            },
            {
              "internalType": "string",
              "name": "certHash",
              "type": "string"
            },
            {
              "internalType": "uint256",
              "name": "expiredTimestamp",
              "type": "uint256"
            }
          ],
          "internalType": "struct CpotbCertificate.CertificateList[]",
          "name": "",
          "type": "tuple[]"
        }
      ],
      "stateMutability": "view",
      "type": "function"
    },
    {
      "inputs": [
        {
          "internalType": "string",
          "name": "instanceName",
          "type": "string"
        }
      ],
      "name": "getCdobByInstance",
      "outputs": [
        {
          "components": [
            {
              "internalType": "string",
              "name": "certId",
              "type": "string"
            },
            {
              "internalType": "string",
              "name": "certNumber",
              "type": "string"
            },
            {
              "internalType": "string",
              "name": "instanceName",
              "type": "string"
            },
            {
              "internalType": "uint8",
              "name": "tipePermohonan",
              "type": "uint8"
            },
            {
              "internalType": "enum EnumsLibrary.StatusCertificate",
              "name": "status",
              "type": "uint8"
            },
            {
              "internalType": "string",
              "name": "certHash",
              "type": "string"
            }
          ],
          "internalType": "struct CdobCertificate.CertificateList[]",
          "name": "",
          "type": "tuple[]"
        }
      ],
      "stateMutability": "view",
      "type": "function"
    },
    {
      "inputs": [
        {
          "internalType": "string",
          "name": "certId",
          "type": "string"
        }
      ],
      "name": "getCdobDetails",
      "outputs": [
        {
          "components": [
            {
              "internalType": "enum EnumsLibrary.StatusCertificate",
              "name": "status",
              "type": "uint8"
            },
            {
              "internalType": "uint256",
              "name": "timestampRequest",
              "type": "uint256"
            },
            {
              "internalType": "uint256",
              "name": "timestampApprove",
              "type": "uint256"
            },
            {
              "internalType": "uint256",
              "name": "timestampRejected",
              "type": "uint256"
            },
            {
              "internalType": "uint256",
              "name": "timestampRenewRequest",
              "type": "uint256"
            },
            {
              "internalType": "uint256",
              "name": "timestampExpired",
              "type": "uint256"
            },
            {
              "internalType": "uint256",
              "name": "timestampExtendRequest",
              "type": "uint256"
            },
            {
              "components": [
                {
                  "internalType": "string",
                  "name": "userName",
                  "type": "string"
                },
                {
                  "internalType": "string",
                  "name": "userInstance",
                  "type": "string"
                },
                {
                  "internalType": "address",
                  "name": "userAddr",
                  "type": "address"
                }
              ],
              "internalType": "struct BaseCertificate.UserCert",
              "name": "sender",
              "type": "tuple"
            },
            {
              "components": [
                {
                  "internalType": "string",
                  "name": "userName",
                  "type": "string"
                },
                {
                  "internalType": "string",
                  "name": "userInstance",
                  "type": "string"
                },
                {
                  "internalType": "address",
                  "name": "userAddr",
                  "type": "address"
                }
              ],
              "internalType": "struct BaseCertificate.UserCert",
              "name": "bpom",
              "type": "tuple"
            },
            {
              "internalType": "string",
              "name": "ipfsCert",
              "type": "string"
            }
          ],
          "internalType": "struct BaseCertificate.CertificateDetails",
          "name": "",
          "type": "tuple"
        },
        {
          "components": [
            {
              "internalType": "string",
              "name": "cdobId",
              "type": "string"
            },
            {
              "internalType": "string",
              "name": "cdobNumber",
              "type": "string"
            },
            {
              "internalType": "uint8",
              "name": "tipePermohonan",
              "type": "uint8"
            }
          ],
          "internalType": "struct CdobCertificate.CdobData",
          "name": "",
          "type": "tuple"
        },
        {
          "components": [
            {
              "internalType": "string",
              "name": "suratPermohonan",
              "type": "string"
            },
            {
              "internalType": "string",
              "name": "buktiPembayaranPajak",
              "type": "string"
            }
          ],
          "internalType": "struct CdobCertificate.DokumenAdministrasi",
          "name": "",
          "type": "tuple"
        },
        {
          "components": [
            {
              "internalType": "string",
              "name": "suratIzinCdob",
              "type": "string"
            },
            {
              "internalType": "string",
              "name": "denahBangunan",
              "type": "string"
            },
            {
              "internalType": "string",
              "name": "strukturOrganisasi",
              "type": "string"
            },
            {
              "internalType": "string",
              "name": "daftarPersonalia",
              "type": "string"
            },
            {
              "internalType": "string",
              "name": "daftarPeralatan",
              "type": "string"
            },
            {
              "internalType": "string",
              "name": "eksekutifQualityManagement",
              "type": "string"
            },
            {
              "internalType": "string",
              "name": "suratIzinApoteker",
              "type": "string"
            },
            {
              "internalType": "string",
              "name": "dokumenSelfAssesment",
              "type": "string"
            }
          ],
          "internalType": "struct CdobCertificate.DokumenTeknis",
          "name": "",
          "type": "tuple"
        }
      ],
      "stateMutability": "view",
      "type": "function"
    },
    {
      "inputs": [
        {
          "internalType": "string",
          "name": "instanceName",
          "type": "string"
        }
      ],
      "name": "getCpotbByInstance",
      "outputs": [
        {
          "components": [
            {
              "internalType": "string",
              "name": "certId",
              "type": "string"
            },
            {
              "internalType": "string",
              "name": "certNumber",
              "type": "string"
            },
            {
              "internalType": "string",
              "name": "instanceName",
              "type": "string"
            },
            {
              "internalType": "uint8",
              "name": "tipePermohonan",
              "type": "uint8"
            },
            {
              "internalType": "enum EnumsLibrary.StatusCertificate",
              "name": "status",
              "type": "uint8"
            },
            {
              "internalType": "string",
              "name": "certHash",
              "type": "string"
            },
            {
              "internalType": "uint256",
              "name": "expiredTimestamp",
              "type": "uint256"
            }
          ],
          "internalType": "struct CpotbCertificate.CertificateList[]",
          "name": "",
          "type": "tuple[]"
        }
      ],
      "stateMutability": "view",
      "type": "function"
    },
    {
      "inputs": [
        {
          "internalType": "string",
          "name": "certId",
          "type": "string"
        }
      ],
      "name": "getCpotbDetails",
      "outputs": [
        {
          "components": [
            {
              "internalType": "enum EnumsLibrary.StatusCertificate",
              "name": "status",
              "type": "uint8"
            },
            {
              "internalType": "uint256",
              "name": "timestampRequest",
              "type": "uint256"
            },
            {
              "internalType": "uint256",
              "name": "timestampApprove",
              "type": "uint256"
            },
            {
              "internalType": "uint256",
              "name": "timestampRejected",
              "type": "uint256"
            },
            {
              "internalType": "uint256",
              "name": "timestampRenewRequest",
              "type": "uint256"
            },
            {
              "internalType": "uint256",
              "name": "timestampExpired",
              "type": "uint256"
            },
            {
              "internalType": "uint256",
              "name": "timestampExtendRequest",
              "type": "uint256"
            },
            {
              "components": [
                {
                  "internalType": "string",
                  "name": "userName",
                  "type": "string"
                },
                {
                  "internalType": "string",
                  "name": "userInstance",
                  "type": "string"
                },
                {
                  "internalType": "address",
                  "name": "userAddr",
                  "type": "address"
                }
              ],
              "internalType": "struct BaseCertificate.UserCert",
              "name": "sender",
              "type": "tuple"
            },
            {
              "components": [
                {
                  "internalType": "string",
                  "name": "userName",
                  "type": "string"
                },
                {
                  "internalType": "string",
                  "name": "userInstance",
                  "type": "string"
                },
                {
                  "internalType": "address",
                  "name": "userAddr",
                  "type": "address"
                }
              ],
              "internalType": "struct BaseCertificate.UserCert",
              "name": "bpom",
              "type": "tuple"
            },
            {
              "internalType": "string",
              "name": "ipfsCert",
              "type": "string"
            }
          ],
          "internalType": "struct BaseCertificate.CertificateDetails",
          "name": "",
          "type": "tuple"
        },
        {
          "components": [
            {
              "internalType": "string",
              "name": "cpotbId",
              "type": "string"
            },
            {
              "internalType": "string",
              "name": "cpotbNumber",
              "type": "string"
            },
            {
              "internalType": "uint8",
              "name": "tipePermohonan",
              "type": "uint8"
            },
            {
              "internalType": "string",
              "name": "factoryType",
              "type": "string"
            }
          ],
          "internalType": "struct CpotbCertificate.CpotbData",
          "name": "",
          "type": "tuple"
        },
        {
          "components": [
            {
              "internalType": "string",
              "name": "suratPermohonan",
              "type": "string"
            },
            {
              "internalType": "string",
              "name": "buktiPembayaranNegaraBukanPajak",
              "type": "string"
            },
            {
              "internalType": "string",
              "name": "suratKomitmen",
              "type": "string"
            }
          ],
          "internalType": "struct CpotbCertificate.DokumenAdministrasi",
          "name": "",
          "type": "tuple"
        },
        {
          "components": [
            {
              "internalType": "string",
              "name": "denahBangunan",
              "type": "string"
            },
            {
              "internalType": "string",
              "name": "sistemMutu",
              "type": "string"
            }
          ],
          "internalType": "struct CpotbCertificate.DokumenTeknis",
          "name": "",
          "type": "tuple"
        }
      ],
      "stateMutability": "view",
      "type": "function"
    },
    {
      "inputs": [
        {
          "internalType": "string",
          "name": "certId",
          "type": "string"
        }
      ],
      "name": "getRejectMsgCdob",
      "outputs": [
        {
          "internalType": "string",
          "name": "",
          "type": "string"
        }
      ],
      "stateMutability": "view",
      "type": "function"
    },
    {
      "inputs": [
        {
          "internalType": "string",
          "name": "certId",
          "type": "string"
        }
      ],
      "name": "getRejectMsgCpotb",
      "outputs": [
        {
          "internalType": "string",
          "name": "",
          "type": "string"
        }
      ],
      "stateMutability": "view",
      "type": "function"
    },
    {
      "inputs": [
        {
          "internalType": "string",
          "name": "certId",
          "type": "string"
        },
        {
          "internalType": "string",
          "name": "rejectMsg",
          "type": "string"
        },
        {
          "internalType": "string",
          "name": "bpomName",
          "type": "string"
        },
        {
          "internalType": "string",
          "name": "bpomInstance",
          "type": "string"
        },
        {
          "internalType": "uint8",
          "name": "tipePermohonan",
          "type": "uint8"
        }
      ],
      "name": "rejectCdob",
      "outputs": [],
      "stateMutability": "nonpayable",
      "type": "function"
    },
    {
      "inputs": [
        {
          "internalType": "string",
          "name": "certId",
          "type": "string"
        },
        {
          "internalType": "string",
          "name": "rejectMsg",
          "type": "string"
        },
        {
          "internalType": "string",
          "name": "bpomName",
          "type": "string"
        },
        {
          "internalType": "string",
          "name": "bpomInstance",
          "type": "string"
        },
        {
          "internalType": "uint8",
          "name": "jenisSediaan",
          "type": "uint8"
        }
      ],
      "name": "rejectCpotb",
      "outputs": [],
      "stateMutability": "nonpayable",
      "type": "function"
    },
    {
      "inputs": [
        {
          "components": [
            {
              "internalType": "string",
              "name": "certId",
              "type": "string"
            },
            {
              "internalType": "string",
              "name": "senderName",
              "type": "string"
            },
            {
              "internalType": "string",
              "name": "senderInstance",
              "type": "string"
            },
            {
              "internalType": "address",
              "name": "senderAddr",
              "type": "address"
            }
          ],
          "internalType": "struct CertificateManager.CertificateRequest",
          "name": "reqData",
          "type": "tuple"
        },
        {
          "components": [
            {
              "internalType": "string",
              "name": "suratPermohonan",
              "type": "string"
            },
            {
              "internalType": "string",
              "name": "buktiPembayaranPajak",
              "type": "string"
            }
          ],
          "internalType": "struct CdobCertificate.DokumenAdministrasi",
          "name": "newDokuAdmin",
          "type": "tuple"
        },
        {
          "components": [
            {
              "internalType": "string",
              "name": "suratIzinCdob",
              "type": "string"
            },
            {
              "internalType": "string",
              "name": "denahBangunan",
              "type": "string"
            },
            {
              "internalType": "string",
              "name": "strukturOrganisasi",
              "type": "string"
            },
            {
              "internalType": "string",
              "name": "daftarPersonalia",
              "type": "string"
            },
            {
              "internalType": "string",
              "name": "daftarPeralatan",
              "type": "string"
            },
            {
              "internalType": "string",
              "name": "eksekutifQualityManagement",
              "type": "string"
            },
            {
              "internalType": "string",
              "name": "suratIzinApoteker",
              "type": "string"
            },
            {
              "internalType": "string",
              "name": "dokumenSelfAssesment",
              "type": "string"
            }
          ],
          "internalType": "struct CdobCertificate.DokumenTeknis",
          "name": "newDokuTeknis",
          "type": "tuple"
        }
      ],
      "name": "renewCdob",
      "outputs": [],
      "stateMutability": "nonpayable",
      "type": "function"
    },
    {
      "inputs": [
        {
          "components": [
            {
              "internalType": "string",
              "name": "certId",
              "type": "string"
            },
            {
              "internalType": "string",
              "name": "senderName",
              "type": "string"
            },
            {
              "internalType": "string",
              "name": "senderInstance",
              "type": "string"
            },
            {
              "internalType": "address",
              "name": "senderAddr",
              "type": "address"
            }
          ],
          "internalType": "struct CertificateManager.CertificateRequest",
          "name": "reqData",
          "type": "tuple"
        },
        {
          "components": [
            {
              "internalType": "string",
              "name": "suratPermohonan",
              "type": "string"
            },
            {
              "internalType": "string",
              "name": "buktiPembayaranNegaraBukanPajak",
              "type": "string"
            },
            {
              "internalType": "string",
              "name": "suratKomitmen",
              "type": "string"
            }
          ],
          "internalType": "struct CpotbCertificate.DokumenAdministrasi",
          "name": "newDokuAdmin",
          "type": "tuple"
        },
        {
          "components": [
            {
              "internalType": "string",
              "name": "denahBangunan",
              "type": "string"
            },
            {
              "internalType": "string",
              "name": "sistemMutu",
              "type": "string"
            }
          ],
          "internalType": "struct CpotbCertificate.DokumenTeknis",
          "name": "newDokuTeknis",
          "type": "tuple"
        }
      ],
      "name": "renewCpotb",
      "outputs": [],
      "stateMutability": "nonpayable",
      "type": "function"
    },
    {
      "inputs": [
        {
          "components": [
            {
              "internalType": "string",
              "name": "certId",
              "type": "string"
            },
            {
              "internalType": "string",
              "name": "senderName",
              "type": "string"
            },
            {
              "internalType": "string",
              "name": "senderInstance",
              "type": "string"
            },
            {
              "internalType": "address",
              "name": "senderAddr",
              "type": "address"
            }
          ],
          "internalType": "struct CertificateManager.CertificateRequest",
          "name": "reqData",
          "type": "tuple"
        },
        {
          "internalType": "uint8",
          "name": "tipePermohonan",
          "type": "uint8"
        },
        {
          "components": [
            {
              "internalType": "string",
              "name": "suratPermohonan",
              "type": "string"
            },
            {
              "internalType": "string",
              "name": "buktiPembayaranPajak",
              "type": "string"
            }
          ],
          "internalType": "struct CdobCertificate.DokumenAdministrasi",
          "name": "dokuAdmin",
          "type": "tuple"
        },
        {
          "components": [
            {
              "internalType": "string",
              "name": "suratIzinCdob",
              "type": "string"
            },
            {
              "internalType": "string",
              "name": "denahBangunan",
              "type": "string"
            },
            {
              "internalType": "string",
              "name": "strukturOrganisasi",
              "type": "string"
            },
            {
              "internalType": "string",
              "name": "daftarPersonalia",
              "type": "string"
            },
            {
              "internalType": "string",
              "name": "daftarPeralatan",
              "type": "string"
            },
            {
              "internalType": "string",
              "name": "eksekutifQualityManagement",
              "type": "string"
            },
            {
              "internalType": "string",
              "name": "suratIzinApoteker",
              "type": "string"
            },
            {
              "internalType": "string",
              "name": "dokumenSelfAssesment",
              "type": "string"
            }
          ],
          "internalType": "struct CdobCertificate.DokumenTeknis",
          "name": "dokuTeknis",
          "type": "tuple"
        }
      ],
      "name": "requestCdob",
      "outputs": [],
      "stateMutability": "nonpayable",
      "type": "function"
    },
    {
      "inputs": [
        {
          "components": [
            {
              "internalType": "string",
              "name": "certId",
              "type": "string"
            },
            {
              "internalType": "string",
              "name": "senderName",
              "type": "string"
            },
            {
              "internalType": "string",
              "name": "senderInstance",
              "type": "string"
            },
            {
              "internalType": "address",
              "name": "senderAddr",
              "type": "address"
            }
          ],
          "internalType": "struct CertificateManager.CertificateRequest",
          "name": "reqData",
          "type": "tuple"
        },
        {
          "internalType": "uint8",
          "name": "jenisSediaan",
          "type": "uint8"
        },
        {
          "internalType": "string",
          "name": "factoryType",
          "type": "string"
        },
        {
          "components": [
            {
              "internalType": "string",
              "name": "suratPermohonan",
              "type": "string"
            },
            {
              "internalType": "string",
              "name": "buktiPembayaranNegaraBukanPajak",
              "type": "string"
            },
            {
              "internalType": "string",
              "name": "suratKomitmen",
              "type": "string"
            }
          ],
          "internalType": "struct CpotbCertificate.DokumenAdministrasi",
          "name": "dokuAdmin",
          "type": "tuple"
        },
        {
          "components": [
            {
              "internalType": "string",
              "name": "denahBangunan",
              "type": "string"
            },
            {
              "internalType": "string",
              "name": "sistemMutu",
              "type": "string"
            }
          ],
          "internalType": "struct CpotbCertificate.DokumenTeknis",
          "name": "dokuTeknis",
          "type": "tuple"
        }
      ],
      "name": "requestCpotb",
      "outputs": [],
      "stateMutability": "nonpayable",
      "type": "function"
    },
    {
      "inputs": [],
      "name": "roleManager",
      "outputs": [
        {
          "internalType": "contract RoleManager",
          "name": "",
          "type": "address"
        }
      ],
      "stateMutability": "view",
      "type": "function"
    }
  ],
  "bytecode": "0x60e03461016a57601f61313638819003918201601f19168301916001600160401b0383118484101761016e5780849260609460405283398101031261016a5761004781610182565b90610060604061005960208401610182565b9201610182565b60015f556001600160a01b0392831660805290821660a0521660c052604051612f9f908161019782396080518181816103290152818161054c015281816106b401528181610877015281816109cb01528181610b9c015281816115f8015281816117e5015281816118ba01528181611ac50152611dae015260a0518181816101bd0152818161036f015281816106f7015281816108b901528181610a0d01528181610bff015281816111b6015281816114a901528181611571015281816116430152611ca3015260c05181818161012801528181610247015281816105920152818161080401528181610dcb015281816118270152818161192701528181611b260152611d4d0152f35b5f80fd5b634e487b7160e01b5f52604160045260245ffd5b51906001600160a01b038216820361016a5756fe6080806040526004361015610012575f80fd5b5f905f3560e01c908162435da514611d9c5750806317d9679714611d155780631a89804414611c495780631d43034914611a235780632dbcaf0f1461187e57806341ee1495146117a15780634e03317b146115ba57806351c2d326146115165780635850607c1461148457806370c056b0146111225780637e8f8da714610d3e57806387fecd3e14610ad85780638b11d37b146109705780639c0abfd814610833578063af3a1758146107ee578063b073043614610636578063bbd0b8a9146104b2578063cb43b77f14610290578063d0927b19146101ec578063d369111d146101a75763f14261d214610104575f80fd5b346101a457806003193601126101a4576040516378a130e960e11b815281816004817f00000000000000000000000000000000000000000000000000000000000000006001600160a01b03165afa90811561019957826101729392610176575b505060405191829182612642565b0390f35b61019292503d8091833e61018a8183611e7a565b810190612dd3565b5f80610164565b6040513d84823e3d90fd5b80fd5b50346101a457806003193601126101a4576040517f00000000000000000000000000000000000000000000000000000000000000006001600160a01b03168152602090f35b50346101a45760203660031901126101a457600435816001600160401b0382116101a457610221610243923690600401611eb6565b604051809381926306f12c2360e41b8352602060048401526024830190611efc565b03817f00000000000000000000000000000000000000000000000000000000000000006001600160a01b03165afa9081156101995782610172939261017657505060405191829182612642565b50346101a45760603660031901126101a4576004356001600160401b03811161046c576102c1903690600401611f34565b816024356001600160401b03811161046c576102e19036906004016125c4565b6044356001600160401b0381116104ae57610300903690600401611fda565b6040516395a8c58d60e01b81523360048201525f60248201526020816044816001600160a01b037f0000000000000000000000000000000000000000000000000000000000000000165afa80156104a357610362918591610474575b50612d4d565b61036a612f4b565b8351917f00000000000000000000000000000000000000000000000000000000000000006001600160a01b0316803b15610470576103d0856103e2956103f482966040519889978896879563e8002b2760e01b8752606060048801526064870190611efc565b858103600319016024870152906124d5565b83810360031901604485015290612502565b03925af1801561019957610457575b50604080830151606084015191517fc77dd947ea8bfd0bd2706c8fad9b1178313fad6bd4cb678b9342239be4f88528929091829161044d9142916001600160a01b03169084612da7565b0390a16001815580f35b8161046191611e7a565b61046c57815f610403565b5080fd5b8480fd5b610496915060203d60201161049c575b61048e8183611e7a565b810190612775565b5f61035c565b503d610484565b6040513d86823e3d90fd5b8280fd5b50346101a45760603660031901126101a4576004356001600160401b03811161046c576104e3903690600401611f34565b816024356001600160401b03811161046c57610503903690600401611fda565b6044356001600160401b0381116104ae57610522903690600401612034565b6040516395a8c58d60e01b8152336004820152600160248201526020816044816001600160a01b037f0000000000000000000000000000000000000000000000000000000000000000165afa80156104a357610585918591610617575b5061278d565b61058d612f4b565b8351917f00000000000000000000000000000000000000000000000000000000000000006001600160a01b0316803b15610470576105f385610605956103f482966040519889978896879563a722652760e01b8752606060048801526064870190611efc565b85810360031901602487015290612502565b8381036003190160448501529061252c565b610630915060203d60201161049c5761048e8183611e7a565b5f61057f565b50346101a45760403660031901126101a457806004356001600160401b0381116107eb57610668903690600401611eb6565b6024356001600160401b0381116107e957610687903690600401611eb6565b6040516395a8c58d60e01b8152336004820152600260248201529091906020816044816001600160a01b037f0000000000000000000000000000000000000000000000000000000000000000165afa80156104a3576106ed9185916107ca575b50612818565b6106f5612f4b565b7f00000000000000000000000000000000000000000000000000000000000000006001600160a01b031691823b156107c5576107689261075685809460405196879586948593635839821b60e11b8552604060048601526044850190611efc565b83810360031901602485015290611efc565b03925af18015610199576107b0575b50604080513381524260208201527fea3baea71f890e421ddb5283439c0bec01bc071ddab39d723eefaba200997446918190810161044d565b816107ba91611e7a565b6101a457805f610777565b505050fd5b6107e3915060203d60201161049c5761048e8183611e7a565b5f6106e7565b505b50fd5b50346101a457806003193601126101a4576040517f00000000000000000000000000000000000000000000000000000000000000006001600160a01b03168152602090f35b50346101a457806108433661228a565b6040516395a8c58d60e01b815233600482015260026024820152939591949093919290916020816044816001600160a01b037f0000000000000000000000000000000000000000000000000000000000000000165afa80156104a3576108af9185916107ca5750612818565b6108b7612f4b565b7f00000000000000000000000000000000000000000000000000000000000000006001600160a01b031690813b1561096c578391869183896109116040519788968795869463e462dde560e01b86523393600487016128b5565b03925af1801561019957610957575b505061044d7fa4a4ed86dce7c96c7821a45fbbe8394915281a2a2fa758ab0465b199c571abfb936040519384934291339086612913565b8161096191611e7a565b61096c57835f610920565b8380fd5b50346101a45760403660031901126101a457806004356001600160401b0381116107eb576109a2903690600401611eb6565b6040516395a8c58d60e01b81523360048201525f60248201526020816044816001600160a01b037f0000000000000000000000000000000000000000000000000000000000000000165afa8015610acd57610a039184916104745750612d4d565b610a0b612f4b565b7f00000000000000000000000000000000000000000000000000000000000000006001600160a01b0316803b156107e957610a688392918392604051948580948193638b11d37b60e01b8352604060048401526044830190611efc565b602435602483015203925af1801561019957610ab8575b50604080513381524260208201527f31f768961bf7d66fe1e61d4671b3cc2aa12b4dcab0587881c83f78c4e9ffa0d4918190810161044d565b81610ac291611e7a565b6101a457805f610a7f565b6040513d85823e3d90fd5b50346101a45760a03660031901126101a4576004356001600160401b03811161046c57610b09903690600401611f34565b610b11611fca565b826044356001600160401b03811161046c57610b31903690600401611eb6565b926064356001600160401b0381116104ae57610b519036906004016125c4565b6084356001600160401b03811161096c57610b70903690600401611fda565b6040516395a8c58d60e01b81523360048201525f60248201529092906020816044816001600160a01b037f0000000000000000000000000000000000000000000000000000000000000000165afa8015610d3357610bd49186916104745750612d4d565b610bdc612f4b565b8051602082015160408301805160609094015190986001600160a01b03918216967f0000000000000000000000000000000000000000000000000000000000000000909216939091843b15610d2f5788968793604051998a98899788966364b409ff60e01b88526004880161010090526101048801610c5a91611efc565b878103600319016024890152610c6f91611efc565b868103600319016044880152610c8491611efc565b90606486015260ff8d1660848601526003198582030160a4860152610ca891611efc565b8381036003190160c4850152610cbd916124d5565b8281036003190160e4840152610cd291612502565b03925af1801561019957610d1a575b50507ff52a0795d3c1a788d33423aa105be7a0aaa157621a984632251e0c2ed142d04091519061044d60405192839242913390856127e3565b81610d2491611e7a565b6104ae57825f610ce1565b8880fd5b6040513d87823e3d90fd5b50346101a45760203660031901126101a4576004356001600160401b03811161046c57610d6f903690600401611eb6565b610d77612b1c565b50610d80612afc565b50610d89612b74565b50606060e0604051610d9a81611e27565b82815282602082015282604082015282808201528260808201528260a08201528260c0820152015260018060a01b037f00000000000000000000000000000000000000000000000000000000000000001660405190637e8f8da760e01b825260206004830152838280610e106024820187611efc565b0381845afa9081156104a35784809181948294610f0c575b5094610e529495604051808097819463be2e232560e01b8352602060048401526024830190611efc565b03915afa928315610d335785610e879694610ede575b5050610ed0906101729394604051968796608088526080880190612440565b8681036020880152604060ff81610ebc610eaa8751606087526060870190611efc565b60208801518682036020880152611efc565b950151169101528582036040870152612502565b90838203606085015261252c565b6101729450610ed09291610f03913d8091833e610efb8183611e7a565b810190612c5f565b93819250610e68565b9450925050503d8085843e610f218184611e7a565b820191606081840312610470578481516001600160401b03811161046c5782019460608686031261046c5760405195610f5987611e0c565b80516001600160401b03811161096c5786610f7591830161270a565b875260208101516001600160401b03811161096c5781610f9c88604093610fa7950161270a565b60208a01520161296f565b604087015260208301516001600160401b0381116104ae5785610fcb918501612b8d565b926040810151906001600160401b03821161096c570195610100878703126104ae5760405196610ffa88611e27565b80516001600160401b038111610470578761101691830161270a565b885260208101516001600160401b038111610470578761103791830161270a565b602089015260408101516001600160401b038111610470578761105b91830161270a565b604089015260608101516001600160401b038111610470578761107f91830161270a565b606089015260808101516001600160401b03811161047057876110a391830161270a565b608089015260a08101516001600160401b03811161047057876110c791830161270a565b60a089015260c08101516001600160401b03811161047057876110eb91830161270a565b60c089015260e0810151966001600160401b03881161047057610e5297611112920161270a565b60e0880152929593909594610e28565b50346101a45760203660031901126101a4576004356001600160401b03811161046c57611153903690600401611eb6565b61115b612b1c565b5060608060405161116b81611ddd565b818152816020820152846040820152015260606040805161118b81611e0c565b828152826020820152015261119e612b74565b5060405163070c056b60e41b815260206004820152907f00000000000000000000000000000000000000000000000000000000000000006001600160a01b03168383806111ee6024820186611efc565b0381845afa9081156104a357848093819282946112fd575b61122f959650604051808097819463be2e232560e01b8352602060048401526024830190611efc565b03915afa928315610d33578561126796946112d3575b50506112c5906112b76101729495604051978897608089526080890190612440565b878103602089015260606112996112878451608085526080850190611efc565b60208501518482036020860152611efc565b9260ff60408201511660408401520151906060818403910152611efc565b9085820360408701526124d5565b908382036060850152612502565b61017294506112f36112c593926112b7923d8091833e610efb8183611e7a565b9450819250611245565b9350935050503d8085853e6113128185611e7a565b830191606084840312610470578484516001600160401b03811161046c5785019160808386031261046c576040519261134a84611ddd565b80516001600160401b03811161096c578661136691830161270a565b845260208101516001600160401b03811161096c578661138791830161270a565b60208501526113986040820161296f565b60408501526060810151906001600160401b03821161096c576113bd9187910161270a565b606084015260208601516001600160401b0381116104ae578601956060878703126104ae57604051966113ef88611e0c565b80516001600160401b038111610470578761140b91830161270a565b885260208101516001600160401b038111610470578761142c91830161270a565b60208901526040810151906001600160401b038211610470576114519188910161270a565b60408801526040810151956001600160401b03871161096c5761122f966114789201612b8d565b92959293869550611206565b50346101a457806003193601126101a457604051631614181f60e21b815281816004817f00000000000000000000000000000000000000000000000000000000000000006001600160a01b03165afa908115610199578261017293926114f3575b505060405191829182612344565b61150f92503d8091833e6115078183611e7a565b81019061297d565b5f806114e5565b50346101a45760203660031901126101a457600435816001600160401b0382116101a45761154b61156d923690600401611eb6565b604051809381926381fc60a560e01b8352602060048401526024830190611efc565b03817f00000000000000000000000000000000000000000000000000000000000000006001600160a01b03165afa908115610199578261017293926114f357505060405191829182612344565b50346101a4576115c936612167565b6040516395a8c58d60e01b81523360048201526002602482015291939290916020816044816001600160a01b037f0000000000000000000000000000000000000000000000000000000000000000165afa9081156104a357906116329185916107ca5750612818565b61163a612f4b565b60018060a01b037f000000000000000000000000000000000000000000000000000000000000000016918151946020830151906040840151606085019586519360018060a01b03608088015116608242019a8b421161178d578a9b849b98999a9b3b15610d2f5788968793604051998a9889978896634eea4b8f60e01b88526004880160e0905260e488016116ce91611efc565b8781036003190160248901526116e391611efc565b8681036003190160448801526116f891611efc565b85810360031901606487015261170d91611efc565b9060848501526003198482030160a485015261172891611efc565b9060c483015203925af1801561019957611778575b505061044d7fc8c9ccc57ad2f7823680b448dd87b511b225eb0ac2e99e0aa88e7a26ebc6cbe59351925192604051938493429233908661286f565b8161178291611e7a565b61096c57835f61173d565b634e487b7160e01b8b52601160045260248bfd5b50346101a457806117b13661228a565b6040516395a8c58d60e01b815233600482015260026024820152939591949093919290916020816044816001600160a01b037f0000000000000000000000000000000000000000000000000000000000000000165afa80156104a35761181d9185916107ca5750612818565b611825612f4b565b7f00000000000000000000000000000000000000000000000000000000000000006001600160a01b031690813b1561096c5783918691838961091160405197889687958694621acf2560e81b86523393600487016128b5565b50346101a45761188d36612167565b6040516395a8c58d60e01b8152336004820152600260248201529192916020816044816001600160a01b037f0000000000000000000000000000000000000000000000000000000000000000165afa8015610d33576118f29186916107ca5750612818565b6118fa612f4b565b81516020830151604084015160608501805160808701519197899591946001600160a01b039384169490937f00000000000000000000000000000000000000000000000000000000000000001692833b15611a1f576119d68896611989946119bf61199b9a6119ad8b976040519d8e9c8d9b8c9a6315c9fbf960e11b8c5260c060048d015260c48c0190611efc565b8a81036003190160248c015290611efc565b8881036003190160448a015290611efc565b86810360031901606488015290611efc565b9160848501526003198483030160a4850152611efc565b03925af180156101995761177857505061044d7fc8c9ccc57ad2f7823680b448dd87b511b225eb0ac2e99e0aa88e7a26ebc6cbe59351925192604051938493429233908661286f565b8780fd5b5034611c45576080366003190112611c45576004356001600160401b038111611c4557611a54903690600401611f34565b90611a5d611fca565b6044356001600160401b038111611c4557611a7c903690600401611fda565b6064356001600160401b038111611c4557611a9b903690600401612034565b6040516395a8c58d60e01b8152336004820152600160248201526020816044816001600160a01b037f0000000000000000000000000000000000000000000000000000000000000000165afa8015611c3a57611afd915f91610617575061278d565b611b05612f4b565b84516020860151604087018051606090980151909791926001600160a01b037f0000000000000000000000000000000000000000000000000000000000000000811693921690833b15611c4557611bbe5f96611bac889461199b9a611b8c611989986040519d8e9c8d9b8c9a63682053d960e01b8c5260e060048d015260e48c0190611efc565b91606487015260ff8d1660848701526003198683030160a4870152612502565b8381036003190160c48501529061252c565b03925af18015611c3a57611c06575b507ff52a0795d3c1a788d33423aa105be7a0aaa157621a984632251e0c2ed142d0409192519061044d60405192839242913390856127e3565b7ff52a0795d3c1a788d33423aa105be7a0aaa157621a984632251e0c2ed142d04092505f611c3391611e7a565b5f91611bcd565b6040513d5f823e3d90fd5b5f80fd5b34611c45576020366003190112611c45576004356001600160401b038111611c45575f611c7d611c9f923690600401611eb6565b60405180938192636d1aa7d560e01b8352602060048401526024830190611efc565b03817f00000000000000000000000000000000000000000000000000000000000000006001600160a01b03165afa8015611c3a57610172915f91611cf3575b50604051918291602083526020830190611efc565b611d0f91503d805f833e611d078183611e7a565b810190612750565b82611cde565b34611c45576020366003190112611c45576004356001600160401b038111611c45575f611c7d611d49923690600401611eb6565b03817f00000000000000000000000000000000000000000000000000000000000000006001600160a01b03165afa8015611c3a57610172915f91611cf35750604051918291602083526020830190611efc565b34611c45575f366003190112611c45577f00000000000000000000000000000000000000000000000000000000000000006001600160a01b03168152602090f35b608081019081106001600160401b03821117611df857604052565b634e487b7160e01b5f52604160045260245ffd5b606081019081106001600160401b03821117611df857604052565b61010081019081106001600160401b03821117611df857604052565b604081019081106001600160401b03821117611df857604052565b61014081019081106001600160401b03821117611df857604052565b90601f801991011681019081106001600160401b03821117611df857604052565b6001600160401b038111611df857601f01601f191660200190565b81601f82011215611c4557803590611ecd82611e9b565b92611edb6040519485611e7a565b82845260208383010111611c4557815f926020809301838601378301015290565b805180835260209291819084018484015e5f828201840152601f01601f1916010190565b35906001600160a01b0382168203611c4557565b919091608081840312611c455760405190611f4e82611ddd565b819381356001600160401b038111611c455781611f6c918401611eb6565b835260208201356001600160401b038111611c455781611f8d918401611eb6565b60208401526040820135906001600160401b038211611c455782611fba60609492611fc594869401611eb6565b604086015201611f20565b910152565b6024359060ff82168203611c4557565b9190604083820312611c455760405190611ff382611e43565b819380356001600160401b038111611c455782612011918301611eb6565b83526020810135916001600160401b038311611c4557602092611fc59201611eb6565b919061010083820312611c45576040519061204e82611e27565b819380356001600160401b038111611c45578261206c918301611eb6565b835260208101356001600160401b038111611c45578261208d918301611eb6565b602084015260408101356001600160401b038111611c4557826120b1918301611eb6565b604084015260608101356001600160401b038111611c4557826120d5918301611eb6565b606084015260808101356001600160401b038111611c4557826120f9918301611eb6565b608084015260a08101356001600160401b038111611c45578261211d918301611eb6565b60a084015260c08101356001600160401b038111611c455782612141918301611eb6565b60c084015260e0810135916001600160401b038311611c455760e092611fc59201611eb6565b906060600319830112611c45576004356001600160401b038111611c455760a08184036003190112611c45576040519060a082018281106001600160401b03821117611df85760405280600401356001600160401b038111611c45578460046121d292840101611eb6565b825260248101356001600160401b038111611c45578460046121f692840101611eb6565b602083015260448101356001600160401b038111611c455784600461221d92840101611eb6565b604083015260648101356001600160401b038111611c45578161224a866004608494612255960101611eb6565b606085015201611f20565b608082015291602435906001600160401b038211611c455761227991600401611eb6565b9060443560ff81168103611c455790565b9060a0600319830112611c45576004356001600160401b038111611c4557826122b591600401611eb6565b916024356001600160401b038111611c4557816122d491600401611eb6565b916044356001600160401b038111611c4557826122f391600401611eb6565b91606435906001600160401b038211611c455761231291600401611eb6565b9060843560ff81168103611c455790565b9060078210156123305752565b634e487b7160e01b5f52602160045260245ffd5b602081016020825282518091526040820191602060408360051b8301019401925f915b83831061237657505050505090565b9091929394602080600192603f1985820301865288519060c0806123ff6123ce6123bc6123ac875160e0885260e0880190611efc565b888801518782038a890152611efc565b60408701518682036040880152611efc565b60ff60608701511660608601526123ed60808701516080870190612323565b60a086015185820360a0870152611efc565b93015191015297019301930191939290612367565b90604061242d6112878451606085526060850190611efc565b928101516001600160a01b031691015290565b6124d29161244f818351612323565b6020820151602082015260408201516040820152606082015160608201526080820151608082015260a082015160a082015260c082015160c08201526101206124c06124ac60e085015161014060e0860152610140850190612414565b610100850151848203610100860152612414565b92015190610120818403910152611efc565b90565b6124d29160406124f16112878451606085526060850190611efc565b920151906040818403910152611efc565b6124d291602061251b8351604084526040840190611efc565b920151906020818403910152611efc565b6124d29160e06125b36125a16123ed61258f61257d61256b61255989516101008a526101008a0190611efc565b60208a015189820360208b0152611efc565b604089015188820360408a0152611efc565b60608801518782036060890152611efc565b60808701518682036080880152611efc565b60c085015184820360c0860152611efc565b9201519060e0818403910152611efc565b9190606083820312611c4557604051906125dd82611e0c565b819380356001600160401b038111611c4557826125fb918301611eb6565b835260208101356001600160401b038111611c45578261261c918301611eb6565b60208401526040810135916001600160401b038311611c4557604092611fc59201611eb6565b602081016020825282518091526040820191602060408360051b8301019401925f915b83831061267457505050505090565b90919293946020806126fb600193603f1986820301875289519060a06126cb6126b96126a9855160c0865260c0860190611efc565b8786015185820389870152611efc565b60408501518482036040860152611efc565b9260ff60608201511660608401526126eb60808201516080850190612323565b01519060a0818403910152611efc565b97019301930191939290612665565b81601f82011215611c455780519061272182611e9b565b9261272f6040519485611e7a565b82845260208383010111611c4557815f9260208093018386015e8301015290565b90602082820312611c455781516001600160401b038111611c45576124d2920161270a565b90816020910312611c4557518015158103611c455790565b1561279457565b60405162461bcd60e51b815260206004820152602160248201527f4f6e6c79205042462063616e20646f2074686973207472616e73616374696f6e6044820152602160f81b6064820152608490fd5b906060929594936127fe60ff92608085526080850190611efc565b6001600160a01b0390971660208401521660408201520152565b1561281f57565b60405162461bcd60e51b815260206004820152602260248201527f4f6e6c792042504f4d2063616e20646f2074686973207472616e73616374696f6044820152616e2160f01b6064820152608490fd5b95949360ff60809461288d6128b0959460a08b5260a08b0190611efc565b6001600160a01b0390941660208a01521660408801528682036060880152611efc565b930152565b93906080936128e7612903946128d96128f5949a999a60a08a5260a08a0190611efc565b9088820360208a0152611efc565b908682036040880152611efc565b908482036060860152611efc565b6001600160a01b03909416910152565b9193906124d2959361292f60ff9260a0865260a0860190611efc565b6001600160a01b0390961660208501521660408301526060820152808303608090910152611efc565b6001600160401b038111611df85760051b60200190565b519060ff82168203611c4557565b602081830312611c45578051906001600160401b038211611c45570181601f82011215611c45578051906129b082612958565b926129be6040519485611e7a565b82845260208085019360051b83010191818311611c455760208101935b8385106129ea57505050505090565b84516001600160401b038111611c4557820160e0818503601f190112611c45576040519160e083018381106001600160401b03821117611df85760405260208201516001600160401b038111611c4557856020612a499285010161270a565b835260408201516001600160401b038111611c4557856020612a6d9285010161270a565b602084015260608201516001600160401b038111611c4557856020612a949285010161270a565b6040840152612aa56080830161296f565b606084015260a08201516007811015611c4557608084015260c0820151926001600160401b038411611c455760e083612ae588602080988198010161270a565b60a0840152015160c08201528152019401936129db565b60405190612b0982611e0c565b5f60408360608152606060208201520152565b60405190612b2982611e5e565b6060610120835f81525f60208201525f60408201525f838201525f60808201525f60a08201525f60c0820152612b5d612afc565b60e0820152612b6a612afc565b6101008201520152565b60405190612b8182611e43565b60606020838281520152565b9190604083820312611c455760405190612ba682611e43565b819380516001600160401b038111611c455782612bc491830161270a565b83526020810151916001600160401b038311611c4557602092611fc5920161270a565b9190606083820312611c455760405190612c0082611e0c565b819380516001600160401b038111611c455782612c1e91830161270a565b835260208101516001600160401b038111611c4557604092612c4191830161270a565b60208401520151906001600160a01b0382168203611c455760400152565b602081830312611c45578051906001600160401b038211611c45570161014081830312611c455760405191612c9383611e5e565b81516007811015611c455783526020820151602084015260408201516040840152606082015160608401526080820151608084015260a082015160a084015260c082015160c084015260e08201516001600160401b038111611c455781612cfb918401612be7565b60e08401526101008201516001600160401b038111611c455781612d20918401612be7565b6101008401526101208201516001600160401b038111611c4557612d44920161270a565b61012082015290565b15612d5457565b60405162461bcd60e51b815260206004820152602560248201527f4f6e6c7920466163746f72792063616e20646f2074686973207472616e73616360448201526474696f6e2160d81b6064820152608490fd5b612dbf60409295949395606083526060830190611efc565b6001600160a01b0390951660208201520152565b602081830312611c45578051906001600160401b038211611c4557019080601f83011215611c4557815191612e0783612958565b92612e156040519485611e7a565b80845260208085019160051b83010191838311611c455760208101915b838310612e4157505050505090565b82516001600160401b038111611c455782019060c0828703601f190112611c45576040519060c082018281106001600160401b03821117611df85760405260208301516001600160401b038111611c4557876020612ea19286010161270a565b825260408301516001600160401b038111611c4557876020612ec59286010161270a565b602083015260608301516001600160401b038111611c4557876020612eec9286010161270a565b6040830152612efd6080840161296f565b606083015260a08301516007811015611c4557608083015260c0830151916001600160401b038311611c4557612f3b8860208096958196010161270a565b60a0820152815201920191612e32565b60025f5414612f5a5760025f55565b633ee5aeb560e01b5f5260045ffdfea2646970667358221220ac71853e18a93d08c91fe3a9bb2309bed60a398631f3b787f3cd4ea075049b0a64736f6c634300081b0033",
  "linkReferences": {},
  "deployedLinkReferences": {}
}