{
  "_format": "hh-sol-artifact-1",
  "contractName": "CertificateManager",
  "sourceName": "contracts/CertificateManager.sol",
  "abi": [
    {
      "inputs": [
        {
          "internalType": "address",
          "name": "roleManagerAddr",
          "type": "address"
        },
        {
          "internalType": "address",
          "name": "cpotbCertificateAddr",
          "type": "address"
        },
        {
          "internalType": "address",
          "name": "cdobCertificateAddr",
          "type": "address"
        }
      ],
      "stateMutability": "nonpayable",
      "type": "constructor"
    },
    {
      "inputs": [],
      "name": "ReentrancyGuardReentrantCall",
      "type": "error"
    },
    {
      "anonymous": false,
      "inputs": [
        {
          "indexed": false,
          "internalType": "string",
          "name": "bpomInstance",
          "type": "string"
        },
        {
          "indexed": false,
          "internalType": "address",
          "name": "bpomAddr",
          "type": "address"
        },
        {
          "indexed": false,
          "internalType": "uint8",
          "name": "tipePermohonan",
          "type": "uint8"
        },
        {
          "indexed": false,
          "internalType": "string",
          "name": "certNumber",
          "type": "string"
        },
        {
          "indexed": false,
          "internalType": "uint256",
          "name": "timestamp",
          "type": "uint256"
        }
      ],
      "name": "CertApproved",
      "type": "event"
    },
    {
      "anonymous": false,
      "inputs": [
        {
          "indexed": false,
          "internalType": "address",
          "name": "senderAddr",
          "type": "address"
        },
        {
          "indexed": false,
          "internalType": "uint256",
          "name": "timestamp",
          "type": "uint256"
        }
      ],
      "name": "CertExtend",
      "type": "event"
    },
    {
      "anonymous": false,
      "inputs": [
        {
          "indexed": false,
          "internalType": "address",
          "name": "bpomAddr",
          "type": "address"
        },
        {
          "indexed": false,
          "internalType": "string",
          "name": "rejectMsgExt",
          "type": "string"
        },
        {
          "indexed": false,
          "internalType": "uint256",
          "name": "timestamp",
          "type": "uint256"
        }
      ],
      "name": "CertExtendReject",
      "type": "event"
    },
    {
      "anonymous": false,
      "inputs": [
        {
          "indexed": false,
          "internalType": "string",
          "name": "bpomInstance",
          "type": "string"
        },
        {
          "indexed": false,
          "internalType": "address",
          "name": "bpomAddr",
          "type": "address"
        },
        {
          "indexed": false,
          "internalType": "uint8",
          "name": "tipePermohonan",
          "type": "uint8"
        },
        {
          "indexed": false,
          "internalType": "uint256",
          "name": "timestamp",
          "type": "uint256"
        },
        {
          "indexed": false,
          "internalType": "string",
          "name": "rejectMsg",
          "type": "string"
        }
      ],
      "name": "CertRejected",
      "type": "event"
    },
    {
      "anonymous": false,
      "inputs": [
        {
          "indexed": false,
          "internalType": "string",
          "name": "senderInstance",
          "type": "string"
        },
        {
          "indexed": false,
          "internalType": "address",
          "name": "senderAddr",
          "type": "address"
        },
        {
          "indexed": false,
          "internalType": "uint256",
          "name": "timestamp",
          "type": "uint256"
        }
      ],
      "name": "CertRenewRequest",
      "type": "event"
    },
    {
      "anonymous": false,
      "inputs": [
        {
          "indexed": false,
          "internalType": "string",
          "name": "senderInstance",
          "type": "string"
        },
        {
          "indexed": false,
          "internalType": "address",
          "name": "senderAddr",
          "type": "address"
        },
        {
          "indexed": false,
          "internalType": "uint8",
          "name": "tipePermohonan",
          "type": "uint8"
        },
        {
          "indexed": false,
          "internalType": "uint256",
          "name": "timestamp",
          "type": "uint256"
        }
      ],
      "name": "CertRequested",
      "type": "event"
    },
    {
      "inputs": [
        {
          "components": [
            {
              "internalType": "string",
              "name": "certNumber",
              "type": "string"
            },
            {
              "internalType": "string",
              "name": "certId",
              "type": "string"
            },
            {
              "internalType": "string",
              "name": "bpomName",
              "type": "string"
            },
            {
              "internalType": "string",
              "name": "bpomInstance",
              "type": "string"
            },
            {
              "internalType": "address",
              "name": "bpomAddr",
              "type": "address"
            }
          ],
          "internalType": "struct CertificateManager.CertificateApproval",
          "name": "approveData",
          "type": "tuple"
        },
        {
          "internalType": "string",
          "name": "ipfsCert",
          "type": "string"
        },
        {
          "internalType": "uint8",
          "name": "tipePermohonan",
          "type": "uint8"
        }
      ],
      "name": "approveCdob",
      "outputs": [],
      "stateMutability": "nonpayable",
      "type": "function"
    },
    {
      "inputs": [
        {
          "components": [
            {
              "internalType": "string",
              "name": "certNumber",
              "type": "string"
            },
            {
              "internalType": "string",
              "name": "certId",
              "type": "string"
            },
            {
              "internalType": "string",
              "name": "bpomName",
              "type": "string"
            },
            {
              "internalType": "string",
              "name": "bpomInstance",
              "type": "string"
            },
            {
              "internalType": "address",
              "name": "bpomAddr",
              "type": "address"
            }
          ],
          "internalType": "struct CertificateManager.CertificateApproval",
          "name": "approveData",
          "type": "tuple"
        },
        {
          "internalType": "string",
          "name": "ipfsCert",
          "type": "string"
        },
        {
          "internalType": "uint8",
          "name": "jenisSediaan",
          "type": "uint8"
        }
      ],
      "name": "approveCpotb",
      "outputs": [],
      "stateMutability": "nonpayable",
      "type": "function"
    },
    {
      "inputs": [
        {
          "internalType": "string",
          "name": "cdobId",
          "type": "string"
        },
        {
          "internalType": "string",
          "name": "ipfsCert",
          "type": "string"
        }
      ],
      "name": "approveExtendCdob",
      "outputs": [],
      "stateMutability": "nonpayable",
      "type": "function"
    },
    {
      "inputs": [
        {
          "internalType": "string",
          "name": "cpotbId",
          "type": "string"
        },
        {
          "internalType": "string",
          "name": "ipfsCert",
          "type": "string"
        }
      ],
      "name": "approveExtendCpotb",
      "outputs": [],
      "stateMutability": "nonpayable",
      "type": "function"
    },
    {
      "inputs": [],
      "name": "cdobCertificate",
      "outputs": [
        {
          "internalType": "contract CdobCertificate",
          "name": "",
          "type": "address"
        }
      ],
      "stateMutability": "view",
      "type": "function"
    },
    {
      "inputs": [],
      "name": "cpotbCertificate",
      "outputs": [
        {
          "internalType": "contract CpotbCertificate",
          "name": "",
          "type": "address"
        }
      ],
      "stateMutability": "view",
      "type": "function"
    },
    {
      "inputs": [
        {
          "internalType": "string",
          "name": "cdobId",
          "type": "string"
        },
        {
          "internalType": "uint256",
          "name": "expTimestamp",
          "type": "uint256"
        },
        {
          "components": [
            {
              "internalType": "string",
              "name": "suratPernyataanPimpinan",
              "type": "string"
            },
            {
              "internalType": "string",
              "name": "dokumenInspeksiDiri",
              "type": "string"
            },
            {
              "internalType": "string",
              "name": "dokumenPerbaikan",
              "type": "string"
            }
          ],
          "internalType": "struct CdobCertificate.DokumenReSertifikasi",
          "name": "newDokus",
          "type": "tuple"
        }
      ],
      "name": "extendCdob",
      "outputs": [],
      "stateMutability": "nonpayable",
      "type": "function"
    },
    {
      "inputs": [
        {
          "internalType": "string",
          "name": "cpotbId",
          "type": "string"
        },
        {
          "internalType": "uint256",
          "name": "expTimestamp",
          "type": "uint256"
        },
        {
          "components": [
            {
              "internalType": "string",
              "name": "suratPermohonan",
              "type": "string"
            },
            {
              "internalType": "string",
              "name": "buktiPembayaranNegaraBukanPajak",
              "type": "string"
            },
            {
              "internalType": "string",
              "name": "denahBangunan",
              "type": "string"
            },
            {
              "internalType": "string",
              "name": "sistemMutu",
              "type": "string"
            },
            {
              "internalType": "string",
              "name": "cpotbIpfs",
              "type": "string"
            },
            {
              "internalType": "string",
              "name": "dokumenCapa",
              "type": "string"
            }
          ],
          "internalType": "struct CpotbCertificate.DokumenReSertifikasi",
          "name": "newDoku",
          "type": "tuple"
        }
      ],
      "name": "extendCpotb",
      "outputs": [],
      "stateMutability": "nonpayable",
      "type": "function"
    },
    {
      "inputs": [],
      "name": "getAllCdob",
      "outputs": [
        {
          "components": [
            {
              "internalType": "string",
              "name": "certId",
              "type": "string"
            },
            {
              "internalType": "string",
              "name": "certNumber",
              "type": "string"
            },
            {
              "internalType": "string",
              "name": "instanceName",
              "type": "string"
            },
            {
              "internalType": "uint8",
              "name": "tipePermohonan",
              "type": "uint8"
            },
            {
              "internalType": "enum EnumsLibrary.StatusCertificate",
              "name": "status",
              "type": "uint8"
            },
            {
              "internalType": "string",
              "name": "certHash",
              "type": "string"
            },
            {
              "internalType": "uint256",
              "name": "expiredTimestamp",
              "type": "uint256"
            }
          ],
          "internalType": "struct CdobCertificate.CertificateList[]",
          "name": "",
          "type": "tuple[]"
        }
      ],
      "stateMutability": "view",
      "type": "function"
    },
    {
      "inputs": [],
      "name": "getAllCpotb",
      "outputs": [
        {
          "components": [
            {
              "internalType": "string",
              "name": "certId",
              "type": "string"
            },
            {
              "internalType": "string",
              "name": "certNumber",
              "type": "string"
            },
            {
              "internalType": "string",
              "name": "instanceName",
              "type": "string"
            },
            {
              "internalType": "uint8",
              "name": "tipePermohonan",
              "type": "uint8"
            },
            {
              "internalType": "enum EnumsLibrary.StatusCertificate",
              "name": "status",
              "type": "uint8"
            },
            {
              "internalType": "string",
              "name": "certHash",
              "type": "string"
            },
            {
              "internalType": "uint256",
              "name": "expiredTimestamp",
              "type": "uint256"
            }
          ],
          "internalType": "struct CpotbCertificate.CertificateList[]",
          "name": "",
          "type": "tuple[]"
        }
      ],
      "stateMutability": "view",
      "type": "function"
    },
    {
      "inputs": [
        {
          "internalType": "string",
          "name": "instanceName",
          "type": "string"
        }
      ],
      "name": "getCdobByInstance",
      "outputs": [
        {
          "components": [
            {
              "internalType": "string",
              "name": "certId",
              "type": "string"
            },
            {
              "internalType": "string",
              "name": "certNumber",
              "type": "string"
            },
            {
              "internalType": "string",
              "name": "instanceName",
              "type": "string"
            },
            {
              "internalType": "uint8",
              "name": "tipePermohonan",
              "type": "uint8"
            },
            {
              "internalType": "enum EnumsLibrary.StatusCertificate",
              "name": "status",
              "type": "uint8"
            },
            {
              "internalType": "string",
              "name": "certHash",
              "type": "string"
            },
            {
              "internalType": "uint256",
              "name": "expiredTimestamp",
              "type": "uint256"
            }
          ],
          "internalType": "struct CdobCertificate.CertificateList[]",
          "name": "",
          "type": "tuple[]"
        }
      ],
      "stateMutability": "view",
      "type": "function"
    },
    {
      "inputs": [
        {
          "internalType": "string",
          "name": "certId",
          "type": "string"
        }
      ],
      "name": "getCdobDetails",
      "outputs": [
        {
          "components": [
            {
              "internalType": "enum EnumsLibrary.StatusCertificate",
              "name": "status",
              "type": "uint8"
            },
            {
              "internalType": "uint256",
              "name": "timestampRequest",
              "type": "uint256"
            },
            {
              "internalType": "uint256",
              "name": "timestampApprove",
              "type": "uint256"
            },
            {
              "internalType": "uint256",
              "name": "timestampRejected",
              "type": "uint256"
            },
            {
              "internalType": "uint256",
              "name": "timestampRenewRequest",
              "type": "uint256"
            },
            {
              "internalType": "uint256",
              "name": "timestampExpired",
              "type": "uint256"
            },
            {
              "internalType": "uint256",
              "name": "timestampExtendRequest",
              "type": "uint256"
            },
            {
              "internalType": "uint256",
              "name": "timestampExtendApprove",
              "type": "uint256"
            },
            {
              "internalType": "uint256",
              "name": "timestampExtendReject",
              "type": "uint256"
            },
            {
              "internalType": "uint256",
              "name": "timestampExtendRenew",
              "type": "uint256"
            },
            {
              "components": [
                {
                  "internalType": "string",
                  "name": "userName",
                  "type": "string"
                },
                {
                  "internalType": "string",
                  "name": "userInstance",
                  "type": "string"
                },
                {
                  "internalType": "address",
                  "name": "userAddr",
                  "type": "address"
                }
              ],
              "internalType": "struct BaseCertificate.UserCert",
              "name": "sender",
              "type": "tuple"
            },
            {
              "components": [
                {
                  "internalType": "string",
                  "name": "userName",
                  "type": "string"
                },
                {
                  "internalType": "string",
                  "name": "userInstance",
                  "type": "string"
                },
                {
                  "internalType": "address",
                  "name": "userAddr",
                  "type": "address"
                }
              ],
              "internalType": "struct BaseCertificate.UserCert",
              "name": "bpom",
              "type": "tuple"
            },
            {
              "internalType": "string",
              "name": "ipfsCert",
              "type": "string"
            }
          ],
          "internalType": "struct BaseCertificate.CertificateDetails",
          "name": "",
          "type": "tuple"
        },
        {
          "components": [
            {
              "internalType": "string",
              "name": "cdobId",
              "type": "string"
            },
            {
              "internalType": "string",
              "name": "cdobNumber",
              "type": "string"
            },
            {
              "internalType": "uint8",
              "name": "tipePermohonan",
              "type": "uint8"
            }
          ],
          "internalType": "struct CdobCertificate.CdobData",
          "name": "",
          "type": "tuple"
        },
        {
          "components": [
            {
              "internalType": "string",
              "name": "suratPermohonan",
              "type": "string"
            },
            {
              "internalType": "string",
              "name": "buktiPembayaranPajak",
              "type": "string"
            }
          ],
          "internalType": "struct CdobCertificate.DokumenAdministrasi",
          "name": "",
          "type": "tuple"
        },
        {
          "components": [
            {
              "internalType": "string",
              "name": "suratIzinCdob",
              "type": "string"
            },
            {
              "internalType": "string",
              "name": "denahBangunan",
              "type": "string"
            },
            {
              "internalType": "string",
              "name": "strukturOrganisasi",
              "type": "string"
            },
            {
              "internalType": "string",
              "name": "daftarPersonalia",
              "type": "string"
            },
            {
              "internalType": "string",
              "name": "daftarPeralatan",
              "type": "string"
            },
            {
              "internalType": "string",
              "name": "eksekutifQualityManagement",
              "type": "string"
            },
            {
              "internalType": "string",
              "name": "suratIzinApoteker",
              "type": "string"
            },
            {
              "internalType": "string",
              "name": "dokumenSelfAssesment",
              "type": "string"
            }
          ],
          "internalType": "struct CdobCertificate.DokumenTeknis",
          "name": "",
          "type": "tuple"
        },
        {
          "components": [
            {
              "internalType": "string",
              "name": "suratPernyataanPimpinan",
              "type": "string"
            },
            {
              "internalType": "string",
              "name": "dokumenInspeksiDiri",
              "type": "string"
            },
            {
              "internalType": "string",
              "name": "dokumenPerbaikan",
              "type": "string"
            }
          ],
          "internalType": "struct CdobCertificate.DokumenReSertifikasi",
          "name": "",
          "type": "tuple"
        }
      ],
      "stateMutability": "view",
      "type": "function"
    },
    {
      "inputs": [
        {
          "internalType": "string",
          "name": "instanceName",
          "type": "string"
        }
      ],
      "name": "getCpotbByInstance",
      "outputs": [
        {
          "components": [
            {
              "internalType": "string",
              "name": "certId",
              "type": "string"
            },
            {
              "internalType": "string",
              "name": "certNumber",
              "type": "string"
            },
            {
              "internalType": "string",
              "name": "instanceName",
              "type": "string"
            },
            {
              "internalType": "uint8",
              "name": "tipePermohonan",
              "type": "uint8"
            },
            {
              "internalType": "enum EnumsLibrary.StatusCertificate",
              "name": "status",
              "type": "uint8"
            },
            {
              "internalType": "string",
              "name": "certHash",
              "type": "string"
            },
            {
              "internalType": "uint256",
              "name": "expiredTimestamp",
              "type": "uint256"
            }
          ],
          "internalType": "struct CpotbCertificate.CertificateList[]",
          "name": "",
          "type": "tuple[]"
        }
      ],
      "stateMutability": "view",
      "type": "function"
    },
    {
      "inputs": [
        {
          "internalType": "string",
          "name": "certId",
          "type": "string"
        }
      ],
      "name": "getCpotbDetails",
      "outputs": [
        {
          "components": [
            {
              "internalType": "enum EnumsLibrary.StatusCertificate",
              "name": "status",
              "type": "uint8"
            },
            {
              "internalType": "uint256",
              "name": "timestampRequest",
              "type": "uint256"
            },
            {
              "internalType": "uint256",
              "name": "timestampApprove",
              "type": "uint256"
            },
            {
              "internalType": "uint256",
              "name": "timestampRejected",
              "type": "uint256"
            },
            {
              "internalType": "uint256",
              "name": "timestampRenewRequest",
              "type": "uint256"
            },
            {
              "internalType": "uint256",
              "name": "timestampExpired",
              "type": "uint256"
            },
            {
              "internalType": "uint256",
              "name": "timestampExtendRequest",
              "type": "uint256"
            },
            {
              "internalType": "uint256",
              "name": "timestampExtendApprove",
              "type": "uint256"
            },
            {
              "internalType": "uint256",
              "name": "timestampExtendReject",
              "type": "uint256"
            },
            {
              "internalType": "uint256",
              "name": "timestampExtendRenew",
              "type": "uint256"
            },
            {
              "components": [
                {
                  "internalType": "string",
                  "name": "userName",
                  "type": "string"
                },
                {
                  "internalType": "string",
                  "name": "userInstance",
                  "type": "string"
                },
                {
                  "internalType": "address",
                  "name": "userAddr",
                  "type": "address"
                }
              ],
              "internalType": "struct BaseCertificate.UserCert",
              "name": "sender",
              "type": "tuple"
            },
            {
              "components": [
                {
                  "internalType": "string",
                  "name": "userName",
                  "type": "string"
                },
                {
                  "internalType": "string",
                  "name": "userInstance",
                  "type": "string"
                },
                {
                  "internalType": "address",
                  "name": "userAddr",
                  "type": "address"
                }
              ],
              "internalType": "struct BaseCertificate.UserCert",
              "name": "bpom",
              "type": "tuple"
            },
            {
              "internalType": "string",
              "name": "ipfsCert",
              "type": "string"
            }
          ],
          "internalType": "struct BaseCertificate.CertificateDetails",
          "name": "",
          "type": "tuple"
        },
        {
          "components": [
            {
              "internalType": "string",
              "name": "cpotbId",
              "type": "string"
            },
            {
              "internalType": "string",
              "name": "cpotbNumber",
              "type": "string"
            },
            {
              "internalType": "uint8",
              "name": "tipePermohonan",
              "type": "uint8"
            },
            {
              "internalType": "string",
              "name": "factoryType",
              "type": "string"
            }
          ],
          "internalType": "struct CpotbCertificate.CpotbData",
          "name": "",
          "type": "tuple"
        },
        {
          "components": [
            {
              "internalType": "string",
              "name": "suratPermohonan",
              "type": "string"
            },
            {
              "internalType": "string",
              "name": "buktiPembayaranNegaraBukanPajak",
              "type": "string"
            },
            {
              "internalType": "string",
              "name": "suratKomitmen",
              "type": "string"
            }
          ],
          "internalType": "struct CpotbCertificate.DokumenAdministrasi",
          "name": "",
          "type": "tuple"
        },
        {
          "components": [
            {
              "internalType": "string",
              "name": "denahBangunan",
              "type": "string"
            },
            {
              "internalType": "string",
              "name": "sistemMutu",
              "type": "string"
            }
          ],
          "internalType": "struct CpotbCertificate.DokumenTeknis",
          "name": "",
          "type": "tuple"
        },
        {
          "components": [
            {
              "internalType": "string",
              "name": "suratPermohonan",
              "type": "string"
            },
            {
              "internalType": "string",
              "name": "buktiPembayaranNegaraBukanPajak",
              "type": "string"
            },
            {
              "internalType": "string",
              "name": "denahBangunan",
              "type": "string"
            },
            {
              "internalType": "string",
              "name": "sistemMutu",
              "type": "string"
            },
            {
              "internalType": "string",
              "name": "cpotbIpfs",
              "type": "string"
            },
            {
              "internalType": "string",
              "name": "dokumenCapa",
              "type": "string"
            }
          ],
          "internalType": "struct CpotbCertificate.DokumenReSertifikasi",
          "name": "",
          "type": "tuple"
        }
      ],
      "stateMutability": "view",
      "type": "function"
    },
    {
      "inputs": [
        {
          "internalType": "string",
          "name": "certId",
          "type": "string"
        }
      ],
      "name": "getRejectMsgCdob",
      "outputs": [
        {
          "internalType": "string",
          "name": "",
          "type": "string"
        },
        {
          "internalType": "string",
          "name": "",
          "type": "string"
        }
      ],
      "stateMutability": "view",
      "type": "function"
    },
    {
      "inputs": [
        {
          "internalType": "string",
          "name": "certId",
          "type": "string"
        }
      ],
      "name": "getRejectMsgCpotb",
      "outputs": [
        {
          "internalType": "string",
          "name": "",
          "type": "string"
        },
        {
          "internalType": "string",
          "name": "",
          "type": "string"
        }
      ],
      "stateMutability": "view",
      "type": "function"
    },
    {
      "inputs": [
        {
          "internalType": "string",
          "name": "certId",
          "type": "string"
        },
        {
          "internalType": "string",
          "name": "rejectMsg",
          "type": "string"
        },
        {
          "internalType": "string",
          "name": "bpomName",
          "type": "string"
        },
        {
          "internalType": "string",
          "name": "bpomInstance",
          "type": "string"
        },
        {
          "internalType": "uint8",
          "name": "tipePermohonan",
          "type": "uint8"
        }
      ],
      "name": "rejectCdob",
      "outputs": [],
      "stateMutability": "nonpayable",
      "type": "function"
    },
    {
      "inputs": [
        {
          "internalType": "string",
          "name": "certId",
          "type": "string"
        },
        {
          "internalType": "string",
          "name": "rejectMsg",
          "type": "string"
        },
        {
          "internalType": "string",
          "name": "bpomName",
          "type": "string"
        },
        {
          "internalType": "string",
          "name": "bpomInstance",
          "type": "string"
        },
        {
          "internalType": "uint8",
          "name": "jenisSediaan",
          "type": "uint8"
        }
      ],
      "name": "rejectCpotb",
      "outputs": [],
      "stateMutability": "nonpayable",
      "type": "function"
    },
    {
      "inputs": [
        {
          "internalType": "string",
          "name": "cdobId",
          "type": "string"
        },
        {
          "internalType": "string",
          "name": "rejectExtendMsg",
          "type": "string"
        }
      ],
      "name": "rejectExtendCdob",
      "outputs": [],
      "stateMutability": "nonpayable",
      "type": "function"
    },
    {
      "inputs": [
        {
          "internalType": "string",
          "name": "cpotbId",
          "type": "string"
        },
        {
          "internalType": "string",
          "name": "rejectExtendMsg",
          "type": "string"
        }
      ],
      "name": "rejectExtendCpotb",
      "outputs": [],
      "stateMutability": "nonpayable",
      "type": "function"
    },
    {
      "inputs": [
        {
          "components": [
            {
              "internalType": "string",
              "name": "certId",
              "type": "string"
            },
            {
              "internalType": "string",
              "name": "senderName",
              "type": "string"
            },
            {
              "internalType": "string",
              "name": "senderInstance",
              "type": "string"
            },
            {
              "internalType": "address",
              "name": "senderAddr",
              "type": "address"
            }
          ],
          "internalType": "struct CertificateManager.CertificateRequest",
          "name": "reqData",
          "type": "tuple"
        },
        {
          "components": [
            {
              "internalType": "string",
              "name": "suratPermohonan",
              "type": "string"
            },
            {
              "internalType": "string",
              "name": "buktiPembayaranPajak",
              "type": "string"
            }
          ],
          "internalType": "struct CdobCertificate.DokumenAdministrasi",
          "name": "newDokuAdmin",
          "type": "tuple"
        },
        {
          "components": [
            {
              "internalType": "string",
              "name": "suratIzinCdob",
              "type": "string"
            },
            {
              "internalType": "string",
              "name": "denahBangunan",
              "type": "string"
            },
            {
              "internalType": "string",
              "name": "strukturOrganisasi",
              "type": "string"
            },
            {
              "internalType": "string",
              "name": "daftarPersonalia",
              "type": "string"
            },
            {
              "internalType": "string",
              "name": "daftarPeralatan",
              "type": "string"
            },
            {
              "internalType": "string",
              "name": "eksekutifQualityManagement",
              "type": "string"
            },
            {
              "internalType": "string",
              "name": "suratIzinApoteker",
              "type": "string"
            },
            {
              "internalType": "string",
              "name": "dokumenSelfAssesment",
              "type": "string"
            }
          ],
          "internalType": "struct CdobCertificate.DokumenTeknis",
          "name": "newDokuTeknis",
          "type": "tuple"
        }
      ],
      "name": "renewCdob",
      "outputs": [],
      "stateMutability": "nonpayable",
      "type": "function"
    },
    {
      "inputs": [
        {
          "components": [
            {
              "internalType": "string",
              "name": "certId",
              "type": "string"
            },
            {
              "internalType": "string",
              "name": "senderName",
              "type": "string"
            },
            {
              "internalType": "string",
              "name": "senderInstance",
              "type": "string"
            },
            {
              "internalType": "address",
              "name": "senderAddr",
              "type": "address"
            }
          ],
          "internalType": "struct CertificateManager.CertificateRequest",
          "name": "reqData",
          "type": "tuple"
        },
        {
          "components": [
            {
              "internalType": "string",
              "name": "suratPermohonan",
              "type": "string"
            },
            {
              "internalType": "string",
              "name": "buktiPembayaranNegaraBukanPajak",
              "type": "string"
            },
            {
              "internalType": "string",
              "name": "suratKomitmen",
              "type": "string"
            }
          ],
          "internalType": "struct CpotbCertificate.DokumenAdministrasi",
          "name": "newDokuAdmin",
          "type": "tuple"
        },
        {
          "components": [
            {
              "internalType": "string",
              "name": "denahBangunan",
              "type": "string"
            },
            {
              "internalType": "string",
              "name": "sistemMutu",
              "type": "string"
            }
          ],
          "internalType": "struct CpotbCertificate.DokumenTeknis",
          "name": "newDokuTeknis",
          "type": "tuple"
        }
      ],
      "name": "renewCpotb",
      "outputs": [],
      "stateMutability": "nonpayable",
      "type": "function"
    },
    {
      "inputs": [
        {
          "internalType": "string",
          "name": "cdobId",
          "type": "string"
        },
        {
          "components": [
            {
              "internalType": "string",
              "name": "suratPernyataanPimpinan",
              "type": "string"
            },
            {
              "internalType": "string",
              "name": "dokumenInspeksiDiri",
              "type": "string"
            },
            {
              "internalType": "string",
              "name": "dokumenPerbaikan",
              "type": "string"
            }
          ],
          "internalType": "struct CdobCertificate.DokumenReSertifikasi",
          "name": "newDoku",
          "type": "tuple"
        }
      ],
      "name": "renewExtendCdob",
      "outputs": [],
      "stateMutability": "nonpayable",
      "type": "function"
    },
    {
      "inputs": [
        {
          "internalType": "string",
          "name": "cpotbId",
          "type": "string"
        },
        {
          "components": [
            {
              "internalType": "string",
              "name": "suratPermohonan",
              "type": "string"
            },
            {
              "internalType": "string",
              "name": "buktiPembayaranNegaraBukanPajak",
              "type": "string"
            },
            {
              "internalType": "string",
              "name": "denahBangunan",
              "type": "string"
            },
            {
              "internalType": "string",
              "name": "sistemMutu",
              "type": "string"
            },
            {
              "internalType": "string",
              "name": "cpotbIpfs",
              "type": "string"
            },
            {
              "internalType": "string",
              "name": "dokumenCapa",
              "type": "string"
            }
          ],
          "internalType": "struct CpotbCertificate.DokumenReSertifikasi",
          "name": "newDoku",
          "type": "tuple"
        }
      ],
      "name": "renewExtendCpotb",
      "outputs": [],
      "stateMutability": "nonpayable",
      "type": "function"
    },
    {
      "inputs": [
        {
          "components": [
            {
              "internalType": "string",
              "name": "certId",
              "type": "string"
            },
            {
              "internalType": "string",
              "name": "senderName",
              "type": "string"
            },
            {
              "internalType": "string",
              "name": "senderInstance",
              "type": "string"
            },
            {
              "internalType": "address",
              "name": "senderAddr",
              "type": "address"
            }
          ],
          "internalType": "struct CertificateManager.CertificateRequest",
          "name": "reqData",
          "type": "tuple"
        },
        {
          "internalType": "uint8",
          "name": "tipePermohonan",
          "type": "uint8"
        },
        {
          "components": [
            {
              "internalType": "string",
              "name": "suratPermohonan",
              "type": "string"
            },
            {
              "internalType": "string",
              "name": "buktiPembayaranPajak",
              "type": "string"
            }
          ],
          "internalType": "struct CdobCertificate.DokumenAdministrasi",
          "name": "dokuAdmin",
          "type": "tuple"
        },
        {
          "components": [
            {
              "internalType": "string",
              "name": "suratIzinCdob",
              "type": "string"
            },
            {
              "internalType": "string",
              "name": "denahBangunan",
              "type": "string"
            },
            {
              "internalType": "string",
              "name": "strukturOrganisasi",
              "type": "string"
            },
            {
              "internalType": "string",
              "name": "daftarPersonalia",
              "type": "string"
            },
            {
              "internalType": "string",
              "name": "daftarPeralatan",
              "type": "string"
            },
            {
              "internalType": "string",
              "name": "eksekutifQualityManagement",
              "type": "string"
            },
            {
              "internalType": "string",
              "name": "suratIzinApoteker",
              "type": "string"
            },
            {
              "internalType": "string",
              "name": "dokumenSelfAssesment",
              "type": "string"
            }
          ],
          "internalType": "struct CdobCertificate.DokumenTeknis",
          "name": "dokuTeknis",
          "type": "tuple"
        }
      ],
      "name": "requestCdob",
      "outputs": [],
      "stateMutability": "nonpayable",
      "type": "function"
    },
    {
      "inputs": [
        {
          "components": [
            {
              "internalType": "string",
              "name": "certId",
              "type": "string"
            },
            {
              "internalType": "string",
              "name": "senderName",
              "type": "string"
            },
            {
              "internalType": "string",
              "name": "senderInstance",
              "type": "string"
            },
            {
              "internalType": "address",
              "name": "senderAddr",
              "type": "address"
            }
          ],
          "internalType": "struct CertificateManager.CertificateRequest",
          "name": "reqData",
          "type": "tuple"
        },
        {
          "internalType": "uint8",
          "name": "jenisSediaan",
          "type": "uint8"
        },
        {
          "internalType": "string",
          "name": "factoryType",
          "type": "string"
        },
        {
          "components": [
            {
              "internalType": "string",
              "name": "suratPermohonan",
              "type": "string"
            },
            {
              "internalType": "string",
              "name": "buktiPembayaranNegaraBukanPajak",
              "type": "string"
            },
            {
              "internalType": "string",
              "name": "suratKomitmen",
              "type": "string"
            }
          ],
          "internalType": "struct CpotbCertificate.DokumenAdministrasi",
          "name": "dokuAdmin",
          "type": "tuple"
        },
        {
          "components": [
            {
              "internalType": "string",
              "name": "denahBangunan",
              "type": "string"
            },
            {
              "internalType": "string",
              "name": "sistemMutu",
              "type": "string"
            }
          ],
          "internalType": "struct CpotbCertificate.DokumenTeknis",
          "name": "dokuTeknis",
          "type": "tuple"
        }
      ],
      "name": "requestCpotb",
      "outputs": [],
      "stateMutability": "nonpayable",
      "type": "function"
    },
    {
      "inputs": [],
      "name": "roleManager",
      "outputs": [
        {
          "internalType": "contract RoleManager",
          "name": "",
          "type": "address"
        }
      ],
      "stateMutability": "view",
      "type": "function"
    }
  ],
  "bytecode": "0x60e0346101be57601f6138a238819003918201601f19168301916001600160401b038311848410176101c2578084926060946040528339810103126101be57610047816101d6565b906100606040610059602084016101d6565b92016101d6565b60015f556001600160a01b0392831660805290821660a0521660c0526040516136b790816101eb823960805181818161036b0152818161058e015281816106b50152818161084e0152818161092701528181610a9d01528181610c19015281816116940152818161189501528181611a2d01528181611b2c01528181611c0301528181611d3601528181611e3001528181611f68015281816122610152612397015260a0518181816101ff015281816103b1015281816106f80152818161096901528181610adf01528181610c7c015281816112960152818161176c015281816118100152818161190101528181611a6f01528181611c4501526120e3015260c05181818161016a01528181610289015281816105d4015281816107e20152818161089001528181610e5f015281816116d601528181611b6e01528181611da201528181611e7201528181611fcc0152818161219b01526122a30152f35b5f80fd5b634e487b7160e01b5f52604160045260245ffd5b51906001600160a01b03821682036101be5756fe6080806040526004361015610012575f80fd5b5f905f3560e01c908162435da5146123855750806307b11c0b146121e457806317d96797146121615780631a898044146120875780631d43034914611ec5578063252006af14611df25780632dbcaf0f14611cfa5780633bb6ff3f14611bc557806341ee149514611ae85780634ad8f1a4146119b05780634e03317b1461185957806351c2d326146117b55780635850607c1461174757806369046dd31461161657806370c056b0146111f55780637e8f8da714610dbb57806387fecd3e14610b555780639914d85414610a205780639c0abfd8146108e35780639c6b1f1014610811578063af3a1758146107cc578063b073043614610678578063bbd0b8a9146104f4578063cb43b77f146102d2578063d0927b191461022e578063d369111d146101e95763f14261d214610146575f80fd5b346101e657806003193601126101e6576040516378a130e960e11b815281816004817f00000000000000000000000000000000000000000000000000000000000000006001600160a01b03165afa9081156101db57826101b493926101b8575b505060405191829182612ba0565b0390f35b6101d492503d8091833e6101cc818361247e565b810190613193565b5f806101a6565b6040513d84823e3d90fd5b80fd5b50346101e657806003193601126101e6576040517f00000000000000000000000000000000000000000000000000000000000000006001600160a01b03168152602090f35b50346101e65760203660031901126101e657600435816001600160401b0382116101e6576102636102859236906004016124ba565b604051809381926306f12c2360e41b8352602060048401526024830190612583565b03817f00000000000000000000000000000000000000000000000000000000000000006001600160a01b03165afa9081156101db57826101b493926101b857505060405191829182612ba0565b50346101e65760603660031901126101e6576004356001600160401b0381116104ae576103039036906004016125e3565b816024356001600160401b0381116104ae57610323903690600401612500565b6044356001600160401b0381116104f057610342903690600401612684565b6040516395a8c58d60e01b81523360048201525f60248201526020816044816001600160a01b037f0000000000000000000000000000000000000000000000000000000000000000165afa80156104e5576103a49185916104b6575b5061312b565b6103ac613663565b8351917f00000000000000000000000000000000000000000000000000000000000000006001600160a01b0316803b156104b257610412856104249561043682966040519889978896879563e8002b2760e01b8752606060048801526064870190612583565b85810360031901602487015290612ce1565b83810360031901604485015290612d0e565b03925af180156101db57610499575b50604080830151606084015191517fc77dd947ea8bfd0bd2706c8fad9b1178313fad6bd4cb678b9342239be4f88528929091829161048f9142916001600160a01b03169084613637565b0390a16001815580f35b816104a39161247e565b6104ae57815f610445565b5080fd5b8480fd5b6104d8915060203d6020116104de575b6104d0818361247e565b810190612e2a565b5f61039e565b503d6104c6565b6040513d86823e3d90fd5b8280fd5b50346101e65760603660031901126101e6576004356001600160401b0381116104ae576105259036906004016125e3565b816024356001600160401b0381116104ae57610545903690600401612684565b6044356001600160401b0381116104f0576105649036906004016126de565b6040516395a8c58d60e01b8152336004820152600160248201526020816044816001600160a01b037f0000000000000000000000000000000000000000000000000000000000000000165afa80156104e5576105c7918591610659575b50612e42565b6105cf613663565b8351917f00000000000000000000000000000000000000000000000000000000000000006001600160a01b0316803b156104b257610635856106479561043682966040519889978896879563a722652760e01b8752606060048801526064870190612583565b85810360031901602487015290612d0e565b83810360031901604485015290612d92565b610672915060203d6020116104de576104d0818361247e565b5f6105c1565b50346101e6578061068836612811565b6040516395a8c58d60e01b8152336004820152600260248201529091906020816044816001600160a01b037f0000000000000000000000000000000000000000000000000000000000000000165afa80156104e5576106ee9185916107ad575b50612f5a565b6106f6613663565b7f00000000000000000000000000000000000000000000000000000000000000006001600160a01b031691823b156107a85761074b92849283604051809681958294635839821b60e11b8452600484016125a7565b03925af180156101db57610793575b50604080513381524260208201527f80de2ba789f34a9f5f409d6572f1528526684b7c6d144f87b8f0bab593656b76918190810161048f565b8161079d9161247e565b6101e657805f61075a565b505050fd5b6107c6915060203d6020116104de576104d0818361247e565b5f6106e8565b50346101e657806003193601126101e6576040517f00000000000000000000000000000000000000000000000000000000000000006001600160a01b03168152602090f35b50346101e6578061082136612811565b6040516395a8c58d60e01b8152336004820152600260248201529091906020816044816001600160a01b037f0000000000000000000000000000000000000000000000000000000000000000165afa80156104e5576108869185916107ad5750612f5a565b61088e613663565b7f00000000000000000000000000000000000000000000000000000000000000006001600160a01b031691823b156107a85761074b928492836040518096819582946309c6b1f160e41b8452600484016125a7565b50346101e657806108f33661297e565b6040516395a8c58d60e01b815233600482015260026024820152939591949093919290916020816044816001600160a01b037f0000000000000000000000000000000000000000000000000000000000000000165afa80156104e55761095f9185916107ad5750612f5a565b610967613663565b7f00000000000000000000000000000000000000000000000000000000000000006001600160a01b031690813b15610a1c578391869183896109c16040519788968795869463e462dde560e01b8652339360048701613088565b03925af180156101db57610a07575b505061048f7fa4a4ed86dce7c96c7821a45fbbe8394915281a2a2fa758ab0465b199c571abfb9360405193849342913390866130e6565b81610a119161247e565b610a1c57835f6109d0565b8380fd5b50346101e65760403660031901126101e657806004356001600160401b038111610b5257610a529036906004016124ba565b6024356001600160401b038111610b5057610a71903690600401612a17565b6040516395a8c58d60e01b81523360048201525f60248201529091906020816044816001600160a01b037f0000000000000000000000000000000000000000000000000000000000000000165afa80156104e557610ad59185916104b6575061312b565b610add613663565b7f00000000000000000000000000000000000000000000000000000000000000006001600160a01b031691823b156107a85761074b92610b3e85809460405196879586948593632645361560e21b8552604060048601526044850190612583565b83810360031901602485015290612d38565b505b50fd5b50346101e65760a03660031901126101e6576004356001600160401b0381116104ae57610b869036906004016125e3565b610b8e612674565b826044356001600160401b0381116104ae57610bae9036906004016124ba565b926064356001600160401b0381116104f057610bce903690600401612500565b6084356001600160401b038111610a1c57610bed903690600401612684565b6040516395a8c58d60e01b81523360048201525f60248201529092906020816044816001600160a01b037f0000000000000000000000000000000000000000000000000000000000000000165afa8015610db057610c519186916104b6575061312b565b610c59613663565b8051602082015160408301805160609094015190986001600160a01b03918216967f0000000000000000000000000000000000000000000000000000000000000000909216939091843b15610dac5788968793604051998a98899788966364b409ff60e01b88526004880161010090526101048801610cd791612583565b878103600319016024890152610cec91612583565b868103600319016044880152610d0191612583565b90606486015260ff8d1660848601526003198582030160a4860152610d2591612583565b8381036003190160c4850152610d3a91612ce1565b8281036003190160e4840152610d4f91612d0e565b03925af180156101db57610d97575b50507ff52a0795d3c1a788d33423aa105be7a0aaa157621a984632251e0c2ed142d04091519061048f6040519283924291339085612f25565b81610da19161247e565b6104f057825f610d5e565b8880fd5b6040513d87823e3d90fd5b50346101e65760203660031901126101e6576004356001600160401b0381116104ae57610dec9036906004016124ba565b610df4613330565b50610dfd613310565b50610e066133bc565b50606060e0604051610e1781612410565b82815282602082015282604082015282808201528260808201528260a08201528260c08201520152610e4761339d565b50604051637e8f8da760e01b815260206004820152907f00000000000000000000000000000000000000000000000000000000000000006001600160a01b0316838380610e976024820186612583565b0381845afa9081156104e5578485809481938295610fb4575b610ed9969750604051808098819463be2e232560e01b8352602060048401526024830190612583565b03915afa938415610fa95786610f129795610f77575b505090610f5b610f69926101b4959660405198899860a08a5260a08a0190612c2b565b88810360208a0152604060ff81610f47610f358751606087526060870190612583565b60208801518682036020880152612583565b950151169101528782036040890152612d0e565b908582036060870152612d92565b908382036080850152612ce1565b6101b4955091610fa0610f5b92610f6995943d8091833e610f98818361247e565b810190613525565b95509192610eef565b6040513d88823e3d90fd5b945094505050503d8085853e610fca818561247e565b8301916080848403126104b25783516001600160401b0381116111f1578401906060828503126111f157604051916110018361242c565b80516001600160401b0381116111ed578561101d918301612e98565b835260208101516001600160401b0381116111ed57816110448760409361104f9501612e98565b602086015201613185565b60408301528560208601516001600160401b0381116104ae5785611074918801613453565b9160408701516001600160401b0381116104f057870196610100888803126104f057604051976110a389612410565b80516001600160401b0381116104b257886110bf918301612e98565b895260208101516001600160401b0381116104b257886110e0918301612e98565b60208a015260408101516001600160401b0381116104b25788611104918301612e98565b60408a015260608101516001600160401b0381116104b25788611128918301612e98565b60608a015260808101516001600160401b0381116104b2578861114c918301612e98565b60808a015260a08101516001600160401b0381116104b25788611170918301612e98565b60a08a015260c08101516001600160401b0381116104b25788611194918301612e98565b60c08a015260e0810151906001600160401b0382116104b2576111b991899101612e98565b60e08901526060810151966001600160401b038811610a1c57610ed9976111e092016133d5565b9392969394879650610eb0565b8780fd5b8580fd5b50346101e65760203660031901126101e6576004356001600160401b0381116104ae576112269036906004016124ba565b61122e613330565b5060608060405161123e816123c6565b818152816020820152846040820152015261125761339d565b506112606133bc565b50606060a0604051611271816123f5565b8281528260208201528260408201528280820152826080820152015260018060a01b037f00000000000000000000000000000000000000000000000000000000000000001660405163070c056b60e41b8152602060048201528381806112da6024820187612583565b0381855afa9081156104e557849285809181938295611402575b509561131e9596604051808098819463be2e232560e01b8352602060048401526024830190612583565b03915afa938415610fa9578661135a97956113d4575b5050906113b86113c6926113aa6101b49697604051998a9960a08b5260a08b0190612c2b565b89810360208b0152606061138c61137a8451608085526080850190612583565b60208501518482036020860152612583565b9260ff60408201511660408401520151906060818403910152612583565b908782036040890152612ce1565b908582036060870152612d0e565b908382036080850152612d38565b6101b49550916113aa6113f86113b8936113c696953d8091833e610f98818361247e565b9650509192611334565b955093505050503d8085843e611418818461247e565b8201916080818403126104b25780516001600160401b0381116111f1578101906080828503126111f1576040519161144f836123c6565b80516001600160401b0381116111ed578561146b918301612e98565b835260208101516001600160401b0381116111ed578561148c918301612e98565b602084015261149d60408201613185565b60408401526060810151906001600160401b0382116111ed576114c291869101612e98565b60608301528560208201516001600160401b0381116104ae57856114e79184016133d5565b9560408301516001600160401b0381116104f05786611507918501613453565b926060810151906001600160401b038211610a1c57019360c0858803126104f05760405194611535866123f5565b80516001600160401b0381116104b25788611551918301612e98565b865260208101516001600160401b0381116104b25788611572918301612e98565b602087015260408101516001600160401b0381116104b25788611596918301612e98565b604087015260608101516001600160401b0381116104b257886115ba918301612e98565b606087015260808101516001600160401b0381116104b257886115de918301612e98565b608087015260a0810151976001600160401b0389116104b25761131e986116059201612e98565b60a0860152969293949096956112f4565b50346101e65760403660031901126101e657806004356001600160401b038111610b52576116489036906004016124ba565b6024356001600160401b038111610b5057611667903690600401612500565b6040516395a8c58d60e01b8152336004820152600160248201529091906020816044816001600160a01b037f0000000000000000000000000000000000000000000000000000000000000000165afa80156104e5576116cc9185916106595750612e42565b6116d4613663565b7f00000000000000000000000000000000000000000000000000000000000000006001600160a01b031691823b156107a85761074b92611735858094604051968795869485936369046dd360e01b8552604060048601526044850190612583565b83810360031901602485015290612ce1565b50346101e657806003193601126101e657604051631614181f60e21b815281816004817f00000000000000000000000000000000000000000000000000000000000000006001600160a01b03165afa9081156101db57826101b493926101b857505060405191829182612ba0565b50346101e65760203660031901126101e657600435816001600160401b0382116101e6576117ea61180c9236906004016124ba565b604051809381926381fc60a560e01b8352602060048401526024830190612583565b03817f00000000000000000000000000000000000000000000000000000000000000006001600160a01b03165afa9081156101db57826101b493926101b857505060405191829182612ba0565b50346101e6576118683661285b565b6040516395a8c58d60e01b8152336004820152600260248201529192916020816044816001600160a01b037f0000000000000000000000000000000000000000000000000000000000000000165afa8015610db0576118cd9186916107ad5750612f5a565b6118d5613663565b81516020830151604084015160608501805160808701519197899591946001600160a01b0393841694937f00000000000000000000000000000000000000000000000000000000000000001692909190833b156111ed576119518896928793604051998a9889978896630173c92160e71b885260048801612fdb565b03925af180156101db5761199b575b505061048f7fc8c9ccc57ad2f7823680b448dd87b511b225eb0ac2e99e0aa88e7a26ebc6cbe593519251926040519384934292339086613047565b816119a59161247e565b610a1c57835f611960565b50346101e65760603660031901126101e657806004356001600160401b038111610b52576119e29036906004016124ba565b6044356001600160401b038111610b5057611a01903690600401612a17565b6040516395a8c58d60e01b81523360048201525f60248201529091906020816044816001600160a01b037f0000000000000000000000000000000000000000000000000000000000000000165afa80156104e557611a659185916104b6575061312b565b611a6d613663565b7f00000000000000000000000000000000000000000000000000000000000000006001600160a01b031691823b156107a85761074b92611ace858094604051968795869485936312b63c6960e21b8552606060048601526064850190612583565b906024356024850152600319848303016044850152612d38565b50346101e65780611af83661297e565b6040516395a8c58d60e01b815233600482015260026024820152939591949093919290916020816044816001600160a01b037f0000000000000000000000000000000000000000000000000000000000000000165afa80156104e557611b649185916107ad5750612f5a565b611b6c613663565b7f00000000000000000000000000000000000000000000000000000000000000006001600160a01b031690813b15610a1c578391869183896109c160405197889687958694621acf2560e81b8652339360048701613088565b50346101e65780611bd536612811565b6040516395a8c58d60e01b815233600482015260026024820152909291906020816044816001600160a01b037f0000000000000000000000000000000000000000000000000000000000000000165afa8015611cef57611c3b9184916107ad5750612f5a565b611c43613663565b7f00000000000000000000000000000000000000000000000000000000000000006001600160a01b0316803b156104f057838391611c989383604051809681958294633bb6ff3f60e01b8452600484016125a7565b03925af180156101db57611cda575b506040517f22c98a0f9900e3db134c94b13ad7aa1f97d90ff9ed2330b80daedf57c6fb1708908061048f42863384612fb1565b81611ce49161247e565b6104ae57815f611ca7565b6040513d85823e3d90fd5b50346101e657611d093661285b565b6040516395a8c58d60e01b8152336004820152600260248201529192916020816044816001600160a01b037f0000000000000000000000000000000000000000000000000000000000000000165afa8015610db057611d6e9186916107ad5750612f5a565b611d76613663565b81516020830151604084015160608501805160808701519197899591946001600160a01b0393841694937f00000000000000000000000000000000000000000000000000000000000000001692909190833b156111ed576119518896928793604051998a98899788966315c9fbf960e11b885260048801612fdb565b50346101e65780611e0236612811565b6040516395a8c58d60e01b815233600482015260026024820152909291906020816044816001600160a01b037f0000000000000000000000000000000000000000000000000000000000000000165afa8015611cef57611e689184916107ad5750612f5a565b611e70613663565b7f00000000000000000000000000000000000000000000000000000000000000006001600160a01b0316803b156104f057838391611c98938360405180968195829463252006af60e01b8452600484016125a7565b50346101e65760803660031901126101e6576004356001600160401b0381116104ae57611ef69036906004016125e3565b611efe612674565b826044356001600160401b0381116104ae57611f1e903690600401612684565b926064356001600160401b0381116104f057611f3e9036906004016126de565b6040516395a8c58d60e01b8152336004820152600160248201526020816044816001600160a01b037f0000000000000000000000000000000000000000000000000000000000000000165afa80156104e557611fa09185916106595750612e42565b611fa8613663565b8151602083015160408401805160609095015190976001600160a01b0391821695937f00000000000000000000000000000000000000000000000000000000000000009092169291833b156111ed57879586926040519889978896879563682053d960e01b87526004870160e0905260e4870161202491612583565b86810360031901602488015261203991612583565b85810360031901604487015261204e91612583565b90606485015260ff8c1660848501526003198482030160a485015261207291612d0e565b8281036003190160c4840152610d4f91612d92565b50346101e65760203660031901126101e6576004356001600160401b0381116104ae5790806120bd6120df9336906004016124ba565b60405180948192636d1aa7d560e01b8352602060048401526024830190612583565b03817f00000000000000000000000000000000000000000000000000000000000000006001600160a01b03165afa9182156121545781809361212d575b50506101b4604051928392836125a7565b90915061214c92503d8091833e612144818361247e565b810190612ede565b905f8061211c565b50604051903d90823e3d90fd5b50346101e65760203660031901126101e6576004356001600160401b0381116104ae5790806120bd6121979336906004016124ba565b03817f00000000000000000000000000000000000000000000000000000000000000006001600160a01b03165afa9182156121545781809361212d5750506101b4604051928392836125a7565b5034612381576060366003190112612381576004356001600160401b038111612381576122159036906004016124ba565b6044356001600160401b03811161238157612234903690600401612500565b6040516395a8c58d60e01b8152336004820152600160248201529091906020816044816001600160a01b037f0000000000000000000000000000000000000000000000000000000000000000165afa801561237657612299915f916106595750612e42565b6122a1613663565b7f00000000000000000000000000000000000000000000000000000000000000006001600160a01b031691823b156123815761231c926123025f8094604051968795869485936307b11c0b60e01b8552606060048601526064850190612583565b906024356024850152600319848303016044850152612ce1565b03925af18015612376576123635750604080513381524260208201527f80de2ba789f34a9f5f409d6572f1528526684b7c6d144f87b8f0bab593656b76918190810161048f565b61236f91505f9061247e565b5f5f61075a565b6040513d5f823e3d90fd5b5f80fd5b34612381575f366003190112612381577f00000000000000000000000000000000000000000000000000000000000000006001600160a01b03168152602090f35b608081019081106001600160401b038211176123e157604052565b634e487b7160e01b5f52604160045260245ffd5b60c081019081106001600160401b038211176123e157604052565b61010081019081106001600160401b038211176123e157604052565b606081019081106001600160401b038211176123e157604052565b604081019081106001600160401b038211176123e157604052565b6101a081019081106001600160401b038211176123e157604052565b90601f801991011681019081106001600160401b038211176123e157604052565b6001600160401b0381116123e157601f01601f191660200190565b81601f82011215612381578035906124d18261249f565b926124df604051948561247e565b8284526020838301011161238157815f926020809301838601378301015290565b919060608382031261238157604051906125198261242c565b819380356001600160401b03811161238157826125379183016124ba565b835260208101356001600160401b03811161238157826125589183016124ba565b60208401526040810135916001600160401b0383116123815760409261257e92016124ba565b910152565b805180835260209291819084018484015e5f828201840152601f01601f1916010190565b90916125be6125cc93604084526040840190612583565b916020818403910152612583565b90565b35906001600160a01b038216820361238157565b91909160808184031261238157604051906125fd826123c6565b819381356001600160401b038111612381578161261b9184016124ba565b835260208201356001600160401b038111612381578161263c9184016124ba565b60208401526040820135906001600160401b03821161238157826126696060949261257e948694016124ba565b6040860152016125cf565b6024359060ff8216820361238157565b9190604083820312612381576040519061269d82612447565b819380356001600160401b03811161238157826126bb9183016124ba565b83526020810135916001600160401b0383116123815760209261257e92016124ba565b91906101008382031261238157604051906126f882612410565b819380356001600160401b03811161238157826127169183016124ba565b835260208101356001600160401b03811161238157826127379183016124ba565b602084015260408101356001600160401b038111612381578261275b9183016124ba565b604084015260608101356001600160401b038111612381578261277f9183016124ba565b606084015260808101356001600160401b03811161238157826127a39183016124ba565b608084015260a08101356001600160401b03811161238157826127c79183016124ba565b60a084015260c08101356001600160401b03811161238157826127eb9183016124ba565b60c084015260e0810135916001600160401b0383116123815760e09261257e92016124ba565b906040600319830112612381576004356001600160401b038111612381578261283c916004016124ba565b91602435906001600160401b038211612381576125cc916004016124ba565b906060600319830112612381576004356001600160401b0381116123815760a08184036003190112612381576040519060a082018281106001600160401b038211176123e15760405280600401356001600160401b038111612381578460046128c6928401016124ba565b825260248101356001600160401b038111612381578460046128ea928401016124ba565b602083015260448101356001600160401b03811161238157846004612911928401016124ba565b604083015260648101356001600160401b038111612381578161293e8660046084946129499601016124ba565b6060850152016125cf565b608082015291602435906001600160401b0382116123815761296d916004016124ba565b9060443560ff811681036123815790565b9060a0600319830112612381576004356001600160401b03811161238157826129a9916004016124ba565b916024356001600160401b03811161238157816129c8916004016124ba565b916044356001600160401b03811161238157826129e7916004016124ba565b91606435906001600160401b03821161238157612a06916004016124ba565b9060843560ff811681036123815790565b919060c0838203126123815760405190612a30826123f5565b819380356001600160401b0381116123815782612a4e9183016124ba565b835260208101356001600160401b0381116123815782612a6f9183016124ba565b602084015260408101356001600160401b0381116123815782612a939183016124ba565b604084015260608101356001600160401b0381116123815782612ab79183016124ba565b606084015260808101356001600160401b0381116123815782612adb9183016124ba565b608084015260a0810135916001600160401b0383116123815760a09261257e92016124ba565b906009821015612b0e5752565b634e487b7160e01b5f52602160045260245ffd5b9060c080612b97612b66612b54612b42875160e0885260e0880190612583565b60208801518782036020890152612583565b60408701518682036040880152612583565b60ff6060870151166060860152612b8560808701516080870190612b01565b60a086015185820360a0870152612583565b93015191015290565b602081016020825282518091526040820191602060408360051b8301019401925f915b838310612bd257505050505090565b9091929394602080612bf0600193603f198682030187528951612b22565b97019301930191939290612bc3565b906040612c1861137a8451606085526060850190612583565b928101516001600160a01b031691015290565b6125cc91612c3a818351612b01565b6020820151602082015260408201516040820152606082015160608201526080820151608082015260a082015160a082015260c082015160c082015260e082015160e0820152610100820151610100820152610120820151610120820152610180612ccf612cbb6101408501516101a06101408601526101a0850190612bff565b610160850151848203610160860152612bff565b92015190610180818403910152612583565b6125cc916040612cfd61137a8451606085526060850190612583565b920151906040818403910152612583565b6125cc916020612d278351604084526040840190612583565b920151906020818403910152612583565b6125cc9160a0612d81612d6f612d5d612b54612b42875160c0885260c0880190612583565b60608601518582036060870152612583565b60808501518482036080860152612583565b9201519060a0818403910152612583565b6125cc9160e0612e19612e07612b85612df5612de3612dd1612dbf89516101008a526101008a0190612583565b60208a015189820360208b0152612583565b604089015188820360408a0152612583565b60608801518782036060890152612583565b60808701518682036080880152612583565b60c085015184820360c0860152612583565b9201519060e0818403910152612583565b90816020910312612381575180151581036123815790565b15612e4957565b60405162461bcd60e51b815260206004820152602160248201527f4f6e6c79205042462063616e20646f2074686973207472616e73616374696f6e6044820152602160f81b6064820152608490fd5b81601f8201121561238157805190612eaf8261249f565b92612ebd604051948561247e565b8284526020838301011161238157815f9260208093018386015e8301015290565b9190916040818403126123815780516001600160401b0381116123815783612f07918301612e98565b9260208201516001600160401b038111612381576125cc9201612e98565b90606092959493612f4060ff92608085526080850190612583565b6001600160a01b0390971660208401521660408201520152565b15612f6157565b60405162461bcd60e51b815260206004820152602260248201527f4f6e6c792042504f4d2063616e20646f2074686973207472616e73616374696f6044820152616e2160f01b6064820152608490fd5b939291612fd69060409260018060a01b03168652606060208701526060860190612583565b930152565b9261301a9061300c61302894612ffe6125cc9a989560c0895260c0890190612583565b908782036020890152612583565b908582036040870152612583565b908382036060850152612583565b6001600160a01b03909316608082015280830360a09190910152612583565b95949360ff608094613065612fd6959460a08b5260a08b0190612583565b6001600160a01b0390941660208a01521660408801528682036060880152612583565b93906080936130ba6130d6946130ac6130c8949a999a60a08a5260a08a0190612583565b9088820360208a0152612583565b908682036040880152612583565b908482036060860152612583565b6001600160a01b03909416910152565b9193906125cc959361310260ff9260a0865260a0860190612583565b6001600160a01b0390961660208501521660408301526060820152808303608090910152612583565b1561313257565b60405162461bcd60e51b815260206004820152602560248201527f4f6e6c7920466163746f72792063616e20646f2074686973207472616e73616360448201526474696f6e2160d81b6064820152608490fd5b519060ff8216820361238157565b602081830312612381578051906001600160401b038211612381570181601f82011215612381578051906001600160401b0382116123e15760208260051b01926131e0604051948561247e565b82845260208085019360051b830101918183116123815760208101935b83851061320c57505050505090565b84516001600160401b0381116123815760209083010160e081850312612381576040519160e083018381106001600160401b038211176123e15760405281516001600160401b0381116123815785613265918401612e98565b835260208201516001600160401b0381116123815785613286918401612e98565b602084015260408201516001600160401b03811161238157856132aa918401612e98565b60408401526132bb60608301613185565b60608401526080820151600981101561238157608084015260a0820151926001600160401b0384116123815760c0836132f988602097889701612e98565b60a0840152015160c08201528152019401936131fd565b6040519061331d8261242c565b5f60408360608152606060208201520152565b6040519061333d82612462565b6060610180835f81525f60208201525f60408201525f838201525f60808201525f60a08201525f60c08201525f60e08201525f6101008201525f610120820152613385613310565b610140820152613393613310565b6101608201520152565b604051906133aa8261242c565b60606040838281528260208201520152565b604051906133c982612447565b60606020838281520152565b919060608382031261238157604051906133ee8261242c565b819380516001600160401b038111612381578261340c918301612e98565b835260208101516001600160401b038111612381578261342d918301612e98565b60208401526040810151916001600160401b0383116123815760409261257e9201612e98565b9190604083820312612381576040519061346c82612447565b819380516001600160401b038111612381578261348a918301612e98565b83526020810151916001600160401b0383116123815760209261257e9201612e98565b919060608382031261238157604051906134c68261242c565b819380516001600160401b03811161238157826134e4918301612e98565b835260208101516001600160401b03811161238157604092613507918301612e98565b60208401520151906001600160a01b03821682036123815760400152565b602081830312612381578051906001600160401b03821161238157016101a081830312612381576040519161355983612462565b815160098110156123815783526020820151602084015260408201516040840152606082015160608401526080820151608084015260a082015160a084015260c082015160c084015260e082015160e08401526101008201516101008401526101208201516101208401526101408201516001600160401b03811161238157816135e49184016134ad565b6101408401526101608201516001600160401b038111612381578161360a9184016134ad565b6101608401526101808201516001600160401b0381116123815761362e9201612e98565b61018082015290565b61364f60409295949395606083526060830190612583565b6001600160a01b0390951660208201520152565b60025f54146136725760025f55565b633ee5aeb560e01b5f5260045ffdfea264697066735822122096bf533d02b0211981461cee7a57632df38e58e1c132be219fba5ed24ffd4bda64736f6c634300081b0033",
  "linkReferences": {},
  "deployedLinkReferences": {}
}