{
  "_format": "hh-sol-artifact-1",
  "contractName": "CertificateManager",
  "sourceName": "contracts/CertificateManager.sol",
  "abi": [
    {
      "inputs": [
        {
          "internalType": "address",
          "name": "roleManagerAddr",
          "type": "address"
        },
        {
          "internalType": "address",
          "name": "cpotbCertificateAddr",
          "type": "address"
        },
        {
          "internalType": "address",
          "name": "cdobCertificateAddr",
          "type": "address"
        }
      ],
      "stateMutability": "nonpayable",
      "type": "constructor"
    },
    {
      "inputs": [],
      "name": "ReentrancyGuardReentrantCall",
      "type": "error"
    },
    {
      "anonymous": false,
      "inputs": [
        {
          "indexed": false,
          "internalType": "string",
          "name": "bpomInstance",
          "type": "string"
        },
        {
          "indexed": false,
          "internalType": "address",
          "name": "bpomAddr",
          "type": "address"
        },
        {
          "indexed": false,
          "internalType": "uint8",
          "name": "tipePermohonan",
          "type": "uint8"
        },
        {
          "indexed": false,
          "internalType": "string",
          "name": "certNumber",
          "type": "string"
        },
        {
          "indexed": false,
          "internalType": "uint256",
          "name": "timestamp",
          "type": "uint256"
        }
      ],
      "name": "CertApproved",
      "type": "event"
    },
    {
      "anonymous": false,
      "inputs": [
        {
          "indexed": false,
          "internalType": "address",
          "name": "bpomAddr",
          "type": "address"
        },
        {
          "indexed": false,
          "internalType": "string",
          "name": "certNumber",
          "type": "string"
        },
        {
          "indexed": false,
          "internalType": "uint256",
          "name": "timestamp",
          "type": "uint256"
        }
      ],
      "name": "CertApprovedExtendRequest",
      "type": "event"
    },
    {
      "anonymous": false,
      "inputs": [
        {
          "indexed": false,
          "internalType": "address",
          "name": "senderAddr",
          "type": "address"
        },
        {
          "indexed": false,
          "internalType": "string",
          "name": "certNumber",
          "type": "string"
        },
        {
          "indexed": false,
          "internalType": "uint256",
          "name": "timestamp",
          "type": "uint256"
        }
      ],
      "name": "CertExtendRequest",
      "type": "event"
    },
    {
      "anonymous": false,
      "inputs": [
        {
          "indexed": false,
          "internalType": "string",
          "name": "bpomInstance",
          "type": "string"
        },
        {
          "indexed": false,
          "internalType": "address",
          "name": "bpomAddr",
          "type": "address"
        },
        {
          "indexed": false,
          "internalType": "uint8",
          "name": "tipePermohonan",
          "type": "uint8"
        },
        {
          "indexed": false,
          "internalType": "uint256",
          "name": "timestamp",
          "type": "uint256"
        },
        {
          "indexed": false,
          "internalType": "string",
          "name": "rejectMsg",
          "type": "string"
        }
      ],
      "name": "CertRejected",
      "type": "event"
    },
    {
      "anonymous": false,
      "inputs": [
        {
          "indexed": false,
          "internalType": "string",
          "name": "senderInstance",
          "type": "string"
        },
        {
          "indexed": false,
          "internalType": "address",
          "name": "senderAddr",
          "type": "address"
        },
        {
          "indexed": false,
          "internalType": "uint256",
          "name": "timestamp",
          "type": "uint256"
        }
      ],
      "name": "CertRenewRequest",
      "type": "event"
    },
    {
      "anonymous": false,
      "inputs": [
        {
          "indexed": false,
          "internalType": "string",
          "name": "senderInstance",
          "type": "string"
        },
        {
          "indexed": false,
          "internalType": "address",
          "name": "senderAddr",
          "type": "address"
        },
        {
          "indexed": false,
          "internalType": "uint8",
          "name": "tipePermohonan",
          "type": "uint8"
        },
        {
          "indexed": false,
          "internalType": "uint256",
          "name": "timestamp",
          "type": "uint256"
        }
      ],
      "name": "CertRequested",
      "type": "event"
    },
    {
      "inputs": [
        {
          "components": [
            {
              "internalType": "string",
              "name": "certNumber",
              "type": "string"
            },
            {
              "internalType": "string",
              "name": "certId",
              "type": "string"
            },
            {
              "internalType": "string",
              "name": "bpomName",
              "type": "string"
            },
            {
              "internalType": "string",
              "name": "bpomInstance",
              "type": "string"
            },
            {
              "internalType": "address",
              "name": "bpomAddr",
              "type": "address"
            }
          ],
          "internalType": "struct CertificateManager.CertificateApproval",
          "name": "approveData",
          "type": "tuple"
        },
        {
          "internalType": "string",
          "name": "ipfsCert",
          "type": "string"
        },
        {
          "internalType": "uint8",
          "name": "tipePermohonan",
          "type": "uint8"
        }
      ],
      "name": "approveCdob",
      "outputs": [],
      "stateMutability": "nonpayable",
      "type": "function"
    },
    {
      "inputs": [
        {
          "components": [
            {
              "internalType": "string",
              "name": "certNumber",
              "type": "string"
            },
            {
              "internalType": "string",
              "name": "certId",
              "type": "string"
            },
            {
              "internalType": "string",
              "name": "bpomName",
              "type": "string"
            },
            {
              "internalType": "string",
              "name": "bpomInstance",
              "type": "string"
            },
            {
              "internalType": "address",
              "name": "bpomAddr",
              "type": "address"
            }
          ],
          "internalType": "struct CertificateManager.CertificateApproval",
          "name": "approveData",
          "type": "tuple"
        },
        {
          "internalType": "string",
          "name": "ipfsCert",
          "type": "string"
        },
        {
          "internalType": "uint8",
          "name": "jenisSediaan",
          "type": "uint8"
        }
      ],
      "name": "approveCpotb",
      "outputs": [],
      "stateMutability": "nonpayable",
      "type": "function"
    },
    {
      "inputs": [
        {
          "internalType": "string",
          "name": "cdobId",
          "type": "string"
        },
        {
          "internalType": "string",
          "name": "certNumber",
          "type": "string"
        },
        {
          "internalType": "string",
          "name": "ipfsCert",
          "type": "string"
        }
      ],
      "name": "approveExtendCdob",
      "outputs": [],
      "stateMutability": "nonpayable",
      "type": "function"
    },
    {
      "inputs": [
        {
          "internalType": "string",
          "name": "cpotbId",
          "type": "string"
        },
        {
          "internalType": "string",
          "name": "certNumber",
          "type": "string"
        },
        {
          "internalType": "string",
          "name": "ipfsCert",
          "type": "string"
        }
      ],
      "name": "approveExtendCpotb",
      "outputs": [],
      "stateMutability": "nonpayable",
      "type": "function"
    },
    {
      "inputs": [],
      "name": "cdobCertificate",
      "outputs": [
        {
          "internalType": "contract CdobCertificate",
          "name": "",
          "type": "address"
        }
      ],
      "stateMutability": "view",
      "type": "function"
    },
    {
      "inputs": [],
      "name": "cpotbCertificate",
      "outputs": [
        {
          "internalType": "contract CpotbCertificate",
          "name": "",
          "type": "address"
        }
      ],
      "stateMutability": "view",
      "type": "function"
    },
    {
      "inputs": [
        {
          "internalType": "string",
          "name": "cdobId",
          "type": "string"
        },
        {
          "internalType": "string",
          "name": "certNumber",
          "type": "string"
        },
        {
          "internalType": "uint256",
          "name": "expTimestamp",
          "type": "uint256"
        }
      ],
      "name": "extendCdob",
      "outputs": [],
      "stateMutability": "nonpayable",
      "type": "function"
    },
    {
      "inputs": [
        {
          "internalType": "string",
          "name": "cpotbId",
          "type": "string"
        },
        {
          "internalType": "string",
          "name": "certNumber",
          "type": "string"
        },
        {
          "internalType": "uint256",
          "name": "expTimestamp",
          "type": "uint256"
        }
      ],
      "name": "extendCpotb",
      "outputs": [],
      "stateMutability": "nonpayable",
      "type": "function"
    },
    {
      "inputs": [],
      "name": "getAllCdob",
      "outputs": [
        {
          "components": [
            {
              "internalType": "string",
              "name": "certId",
              "type": "string"
            },
            {
              "internalType": "string",
              "name": "certNumber",
              "type": "string"
            },
            {
              "internalType": "string",
              "name": "instanceName",
              "type": "string"
            },
            {
              "internalType": "uint8",
              "name": "tipePermohonan",
              "type": "uint8"
            },
            {
              "internalType": "enum EnumsLibrary.StatusCertificate",
              "name": "status",
              "type": "uint8"
            },
            {
              "internalType": "string",
              "name": "certHash",
              "type": "string"
            },
            {
              "internalType": "uint256",
              "name": "expiredTimestamp",
              "type": "uint256"
            }
          ],
          "internalType": "struct CdobCertificate.CertificateList[]",
          "name": "",
          "type": "tuple[]"
        }
      ],
      "stateMutability": "view",
      "type": "function"
    },
    {
      "inputs": [],
      "name": "getAllCpotb",
      "outputs": [
        {
          "components": [
            {
              "internalType": "string",
              "name": "certId",
              "type": "string"
            },
            {
              "internalType": "string",
              "name": "certNumber",
              "type": "string"
            },
            {
              "internalType": "string",
              "name": "instanceName",
              "type": "string"
            },
            {
              "internalType": "uint8",
              "name": "tipePermohonan",
              "type": "uint8"
            },
            {
              "internalType": "enum EnumsLibrary.StatusCertificate",
              "name": "status",
              "type": "uint8"
            },
            {
              "internalType": "string",
              "name": "certHash",
              "type": "string"
            },
            {
              "internalType": "uint256",
              "name": "expiredTimestamp",
              "type": "uint256"
            }
          ],
          "internalType": "struct CpotbCertificate.CertificateList[]",
          "name": "",
          "type": "tuple[]"
        }
      ],
      "stateMutability": "view",
      "type": "function"
    },
    {
      "inputs": [
        {
          "internalType": "string",
          "name": "instanceName",
          "type": "string"
        }
      ],
      "name": "getCdobByInstance",
      "outputs": [
        {
          "components": [
            {
              "internalType": "string",
              "name": "certId",
              "type": "string"
            },
            {
              "internalType": "string",
              "name": "certNumber",
              "type": "string"
            },
            {
              "internalType": "string",
              "name": "instanceName",
              "type": "string"
            },
            {
              "internalType": "uint8",
              "name": "tipePermohonan",
              "type": "uint8"
            },
            {
              "internalType": "enum EnumsLibrary.StatusCertificate",
              "name": "status",
              "type": "uint8"
            },
            {
              "internalType": "string",
              "name": "certHash",
              "type": "string"
            },
            {
              "internalType": "uint256",
              "name": "expiredTimestamp",
              "type": "uint256"
            }
          ],
          "internalType": "struct CdobCertificate.CertificateList[]",
          "name": "",
          "type": "tuple[]"
        }
      ],
      "stateMutability": "view",
      "type": "function"
    },
    {
      "inputs": [
        {
          "internalType": "string",
          "name": "certId",
          "type": "string"
        }
      ],
      "name": "getCdobDetails",
      "outputs": [
        {
          "components": [
            {
              "internalType": "enum EnumsLibrary.StatusCertificate",
              "name": "status",
              "type": "uint8"
            },
            {
              "internalType": "uint256",
              "name": "timestampRequest",
              "type": "uint256"
            },
            {
              "internalType": "uint256",
              "name": "timestampApprove",
              "type": "uint256"
            },
            {
              "internalType": "uint256",
              "name": "timestampRejected",
              "type": "uint256"
            },
            {
              "internalType": "uint256",
              "name": "timestampRenewRequest",
              "type": "uint256"
            },
            {
              "internalType": "uint256",
              "name": "timestampExpired",
              "type": "uint256"
            },
            {
              "internalType": "uint256",
              "name": "timestampExtendRequest",
              "type": "uint256"
            },
            {
              "components": [
                {
                  "internalType": "string",
                  "name": "userName",
                  "type": "string"
                },
                {
                  "internalType": "string",
                  "name": "userInstance",
                  "type": "string"
                },
                {
                  "internalType": "address",
                  "name": "userAddr",
                  "type": "address"
                }
              ],
              "internalType": "struct BaseCertificate.UserCert",
              "name": "sender",
              "type": "tuple"
            },
            {
              "components": [
                {
                  "internalType": "string",
                  "name": "userName",
                  "type": "string"
                },
                {
                  "internalType": "string",
                  "name": "userInstance",
                  "type": "string"
                },
                {
                  "internalType": "address",
                  "name": "userAddr",
                  "type": "address"
                }
              ],
              "internalType": "struct BaseCertificate.UserCert",
              "name": "bpom",
              "type": "tuple"
            },
            {
              "internalType": "string",
              "name": "ipfsCert",
              "type": "string"
            }
          ],
          "internalType": "struct BaseCertificate.CertificateDetails",
          "name": "",
          "type": "tuple"
        },
        {
          "components": [
            {
              "internalType": "string",
              "name": "cdobId",
              "type": "string"
            },
            {
              "internalType": "string",
              "name": "cdobNumber",
              "type": "string"
            },
            {
              "internalType": "uint8",
              "name": "tipePermohonan",
              "type": "uint8"
            }
          ],
          "internalType": "struct CdobCertificate.CdobData",
          "name": "",
          "type": "tuple"
        },
        {
          "components": [
            {
              "internalType": "string",
              "name": "suratPermohonan",
              "type": "string"
            },
            {
              "internalType": "string",
              "name": "buktiPembayaranPajak",
              "type": "string"
            }
          ],
          "internalType": "struct CdobCertificate.DokumenAdministrasi",
          "name": "",
          "type": "tuple"
        },
        {
          "components": [
            {
              "internalType": "string",
              "name": "suratIzinCdob",
              "type": "string"
            },
            {
              "internalType": "string",
              "name": "denahBangunan",
              "type": "string"
            },
            {
              "internalType": "string",
              "name": "strukturOrganisasi",
              "type": "string"
            },
            {
              "internalType": "string",
              "name": "daftarPersonalia",
              "type": "string"
            },
            {
              "internalType": "string",
              "name": "daftarPeralatan",
              "type": "string"
            },
            {
              "internalType": "string",
              "name": "eksekutifQualityManagement",
              "type": "string"
            },
            {
              "internalType": "string",
              "name": "suratIzinApoteker",
              "type": "string"
            },
            {
              "internalType": "string",
              "name": "dokumenSelfAssesment",
              "type": "string"
            }
          ],
          "internalType": "struct CdobCertificate.DokumenTeknis",
          "name": "",
          "type": "tuple"
        }
      ],
      "stateMutability": "view",
      "type": "function"
    },
    {
      "inputs": [
        {
          "internalType": "string",
          "name": "instanceName",
          "type": "string"
        }
      ],
      "name": "getCpotbByInstance",
      "outputs": [
        {
          "components": [
            {
              "internalType": "string",
              "name": "certId",
              "type": "string"
            },
            {
              "internalType": "string",
              "name": "certNumber",
              "type": "string"
            },
            {
              "internalType": "string",
              "name": "instanceName",
              "type": "string"
            },
            {
              "internalType": "uint8",
              "name": "tipePermohonan",
              "type": "uint8"
            },
            {
              "internalType": "enum EnumsLibrary.StatusCertificate",
              "name": "status",
              "type": "uint8"
            },
            {
              "internalType": "string",
              "name": "certHash",
              "type": "string"
            },
            {
              "internalType": "uint256",
              "name": "expiredTimestamp",
              "type": "uint256"
            }
          ],
          "internalType": "struct CpotbCertificate.CertificateList[]",
          "name": "",
          "type": "tuple[]"
        }
      ],
      "stateMutability": "view",
      "type": "function"
    },
    {
      "inputs": [
        {
          "internalType": "string",
          "name": "certId",
          "type": "string"
        }
      ],
      "name": "getCpotbDetails",
      "outputs": [
        {
          "components": [
            {
              "internalType": "enum EnumsLibrary.StatusCertificate",
              "name": "status",
              "type": "uint8"
            },
            {
              "internalType": "uint256",
              "name": "timestampRequest",
              "type": "uint256"
            },
            {
              "internalType": "uint256",
              "name": "timestampApprove",
              "type": "uint256"
            },
            {
              "internalType": "uint256",
              "name": "timestampRejected",
              "type": "uint256"
            },
            {
              "internalType": "uint256",
              "name": "timestampRenewRequest",
              "type": "uint256"
            },
            {
              "internalType": "uint256",
              "name": "timestampExpired",
              "type": "uint256"
            },
            {
              "internalType": "uint256",
              "name": "timestampExtendRequest",
              "type": "uint256"
            },
            {
              "components": [
                {
                  "internalType": "string",
                  "name": "userName",
                  "type": "string"
                },
                {
                  "internalType": "string",
                  "name": "userInstance",
                  "type": "string"
                },
                {
                  "internalType": "address",
                  "name": "userAddr",
                  "type": "address"
                }
              ],
              "internalType": "struct BaseCertificate.UserCert",
              "name": "sender",
              "type": "tuple"
            },
            {
              "components": [
                {
                  "internalType": "string",
                  "name": "userName",
                  "type": "string"
                },
                {
                  "internalType": "string",
                  "name": "userInstance",
                  "type": "string"
                },
                {
                  "internalType": "address",
                  "name": "userAddr",
                  "type": "address"
                }
              ],
              "internalType": "struct BaseCertificate.UserCert",
              "name": "bpom",
              "type": "tuple"
            },
            {
              "internalType": "string",
              "name": "ipfsCert",
              "type": "string"
            }
          ],
          "internalType": "struct BaseCertificate.CertificateDetails",
          "name": "",
          "type": "tuple"
        },
        {
          "components": [
            {
              "internalType": "string",
              "name": "cpotbId",
              "type": "string"
            },
            {
              "internalType": "string",
              "name": "cpotbNumber",
              "type": "string"
            },
            {
              "internalType": "uint8",
              "name": "tipePermohonan",
              "type": "uint8"
            },
            {
              "internalType": "string",
              "name": "factoryType",
              "type": "string"
            }
          ],
          "internalType": "struct CpotbCertificate.CpotbData",
          "name": "",
          "type": "tuple"
        },
        {
          "components": [
            {
              "internalType": "string",
              "name": "suratPermohonan",
              "type": "string"
            },
            {
              "internalType": "string",
              "name": "buktiPembayaranNegaraBukanPajak",
              "type": "string"
            },
            {
              "internalType": "string",
              "name": "suratKomitmen",
              "type": "string"
            }
          ],
          "internalType": "struct CpotbCertificate.DokumenAdministrasi",
          "name": "",
          "type": "tuple"
        },
        {
          "components": [
            {
              "internalType": "string",
              "name": "denahBangunan",
              "type": "string"
            },
            {
              "internalType": "string",
              "name": "sistemMutu",
              "type": "string"
            }
          ],
          "internalType": "struct CpotbCertificate.DokumenTeknis",
          "name": "",
          "type": "tuple"
        }
      ],
      "stateMutability": "view",
      "type": "function"
    },
    {
      "inputs": [
        {
          "internalType": "string",
          "name": "certId",
          "type": "string"
        }
      ],
      "name": "getRejectMsgCdob",
      "outputs": [
        {
          "internalType": "string",
          "name": "",
          "type": "string"
        }
      ],
      "stateMutability": "view",
      "type": "function"
    },
    {
      "inputs": [
        {
          "internalType": "string",
          "name": "certId",
          "type": "string"
        }
      ],
      "name": "getRejectMsgCpotb",
      "outputs": [
        {
          "internalType": "string",
          "name": "",
          "type": "string"
        }
      ],
      "stateMutability": "view",
      "type": "function"
    },
    {
      "inputs": [
        {
          "internalType": "string",
          "name": "certId",
          "type": "string"
        },
        {
          "internalType": "string",
          "name": "rejectMsg",
          "type": "string"
        },
        {
          "internalType": "string",
          "name": "bpomName",
          "type": "string"
        },
        {
          "internalType": "string",
          "name": "bpomInstance",
          "type": "string"
        },
        {
          "internalType": "uint8",
          "name": "tipePermohonan",
          "type": "uint8"
        }
      ],
      "name": "rejectCdob",
      "outputs": [],
      "stateMutability": "nonpayable",
      "type": "function"
    },
    {
      "inputs": [
        {
          "internalType": "string",
          "name": "certId",
          "type": "string"
        },
        {
          "internalType": "string",
          "name": "rejectMsg",
          "type": "string"
        },
        {
          "internalType": "string",
          "name": "bpomName",
          "type": "string"
        },
        {
          "internalType": "string",
          "name": "bpomInstance",
          "type": "string"
        },
        {
          "internalType": "uint8",
          "name": "jenisSediaan",
          "type": "uint8"
        }
      ],
      "name": "rejectCpotb",
      "outputs": [],
      "stateMutability": "nonpayable",
      "type": "function"
    },
    {
      "inputs": [
        {
          "components": [
            {
              "internalType": "string",
              "name": "certId",
              "type": "string"
            },
            {
              "internalType": "string",
              "name": "senderName",
              "type": "string"
            },
            {
              "internalType": "string",
              "name": "senderInstance",
              "type": "string"
            },
            {
              "internalType": "address",
              "name": "senderAddr",
              "type": "address"
            }
          ],
          "internalType": "struct CertificateManager.CertificateRequest",
          "name": "reqData",
          "type": "tuple"
        },
        {
          "components": [
            {
              "internalType": "string",
              "name": "suratPermohonan",
              "type": "string"
            },
            {
              "internalType": "string",
              "name": "buktiPembayaranPajak",
              "type": "string"
            }
          ],
          "internalType": "struct CdobCertificate.DokumenAdministrasi",
          "name": "newDokuAdmin",
          "type": "tuple"
        },
        {
          "components": [
            {
              "internalType": "string",
              "name": "suratIzinCdob",
              "type": "string"
            },
            {
              "internalType": "string",
              "name": "denahBangunan",
              "type": "string"
            },
            {
              "internalType": "string",
              "name": "strukturOrganisasi",
              "type": "string"
            },
            {
              "internalType": "string",
              "name": "daftarPersonalia",
              "type": "string"
            },
            {
              "internalType": "string",
              "name": "daftarPeralatan",
              "type": "string"
            },
            {
              "internalType": "string",
              "name": "eksekutifQualityManagement",
              "type": "string"
            },
            {
              "internalType": "string",
              "name": "suratIzinApoteker",
              "type": "string"
            },
            {
              "internalType": "string",
              "name": "dokumenSelfAssesment",
              "type": "string"
            }
          ],
          "internalType": "struct CdobCertificate.DokumenTeknis",
          "name": "newDokuTeknis",
          "type": "tuple"
        }
      ],
      "name": "renewCdob",
      "outputs": [],
      "stateMutability": "nonpayable",
      "type": "function"
    },
    {
      "inputs": [
        {
          "components": [
            {
              "internalType": "string",
              "name": "certId",
              "type": "string"
            },
            {
              "internalType": "string",
              "name": "senderName",
              "type": "string"
            },
            {
              "internalType": "string",
              "name": "senderInstance",
              "type": "string"
            },
            {
              "internalType": "address",
              "name": "senderAddr",
              "type": "address"
            }
          ],
          "internalType": "struct CertificateManager.CertificateRequest",
          "name": "reqData",
          "type": "tuple"
        },
        {
          "components": [
            {
              "internalType": "string",
              "name": "suratPermohonan",
              "type": "string"
            },
            {
              "internalType": "string",
              "name": "buktiPembayaranNegaraBukanPajak",
              "type": "string"
            },
            {
              "internalType": "string",
              "name": "suratKomitmen",
              "type": "string"
            }
          ],
          "internalType": "struct CpotbCertificate.DokumenAdministrasi",
          "name": "newDokuAdmin",
          "type": "tuple"
        },
        {
          "components": [
            {
              "internalType": "string",
              "name": "denahBangunan",
              "type": "string"
            },
            {
              "internalType": "string",
              "name": "sistemMutu",
              "type": "string"
            }
          ],
          "internalType": "struct CpotbCertificate.DokumenTeknis",
          "name": "newDokuTeknis",
          "type": "tuple"
        }
      ],
      "name": "renewCpotb",
      "outputs": [],
      "stateMutability": "nonpayable",
      "type": "function"
    },
    {
      "inputs": [
        {
          "components": [
            {
              "internalType": "string",
              "name": "certId",
              "type": "string"
            },
            {
              "internalType": "string",
              "name": "senderName",
              "type": "string"
            },
            {
              "internalType": "string",
              "name": "senderInstance",
              "type": "string"
            },
            {
              "internalType": "address",
              "name": "senderAddr",
              "type": "address"
            }
          ],
          "internalType": "struct CertificateManager.CertificateRequest",
          "name": "reqData",
          "type": "tuple"
        },
        {
          "internalType": "uint8",
          "name": "tipePermohonan",
          "type": "uint8"
        },
        {
          "components": [
            {
              "internalType": "string",
              "name": "suratPermohonan",
              "type": "string"
            },
            {
              "internalType": "string",
              "name": "buktiPembayaranPajak",
              "type": "string"
            }
          ],
          "internalType": "struct CdobCertificate.DokumenAdministrasi",
          "name": "dokuAdmin",
          "type": "tuple"
        },
        {
          "components": [
            {
              "internalType": "string",
              "name": "suratIzinCdob",
              "type": "string"
            },
            {
              "internalType": "string",
              "name": "denahBangunan",
              "type": "string"
            },
            {
              "internalType": "string",
              "name": "strukturOrganisasi",
              "type": "string"
            },
            {
              "internalType": "string",
              "name": "daftarPersonalia",
              "type": "string"
            },
            {
              "internalType": "string",
              "name": "daftarPeralatan",
              "type": "string"
            },
            {
              "internalType": "string",
              "name": "eksekutifQualityManagement",
              "type": "string"
            },
            {
              "internalType": "string",
              "name": "suratIzinApoteker",
              "type": "string"
            },
            {
              "internalType": "string",
              "name": "dokumenSelfAssesment",
              "type": "string"
            }
          ],
          "internalType": "struct CdobCertificate.DokumenTeknis",
          "name": "dokuTeknis",
          "type": "tuple"
        }
      ],
      "name": "requestCdob",
      "outputs": [],
      "stateMutability": "nonpayable",
      "type": "function"
    },
    {
      "inputs": [
        {
          "components": [
            {
              "internalType": "string",
              "name": "certId",
              "type": "string"
            },
            {
              "internalType": "string",
              "name": "senderName",
              "type": "string"
            },
            {
              "internalType": "string",
              "name": "senderInstance",
              "type": "string"
            },
            {
              "internalType": "address",
              "name": "senderAddr",
              "type": "address"
            }
          ],
          "internalType": "struct CertificateManager.CertificateRequest",
          "name": "reqData",
          "type": "tuple"
        },
        {
          "internalType": "uint8",
          "name": "jenisSediaan",
          "type": "uint8"
        },
        {
          "internalType": "string",
          "name": "factoryType",
          "type": "string"
        },
        {
          "components": [
            {
              "internalType": "string",
              "name": "suratPermohonan",
              "type": "string"
            },
            {
              "internalType": "string",
              "name": "buktiPembayaranNegaraBukanPajak",
              "type": "string"
            },
            {
              "internalType": "string",
              "name": "suratKomitmen",
              "type": "string"
            }
          ],
          "internalType": "struct CpotbCertificate.DokumenAdministrasi",
          "name": "dokuAdmin",
          "type": "tuple"
        },
        {
          "components": [
            {
              "internalType": "string",
              "name": "denahBangunan",
              "type": "string"
            },
            {
              "internalType": "string",
              "name": "sistemMutu",
              "type": "string"
            }
          ],
          "internalType": "struct CpotbCertificate.DokumenTeknis",
          "name": "dokuTeknis",
          "type": "tuple"
        }
      ],
      "name": "requestCpotb",
      "outputs": [],
      "stateMutability": "nonpayable",
      "type": "function"
    },
    {
      "inputs": [],
      "name": "roleManager",
      "outputs": [
        {
          "internalType": "contract RoleManager",
          "name": "",
          "type": "address"
        }
      ],
      "stateMutability": "view",
      "type": "function"
    }
  ],
  "bytecode": "0x60e03461018657601f61304638819003918201601f19168301916001600160401b0383118484101761018a57808492606094604052833981010312610186576100478161019e565b9061006060406100596020840161019e565b920161019e565b60015f556001600160a01b0392831660805290821660a0521660c052604051612e9390816101b3823960805181818161033f01528181610562015281816106d5015281816108b2015281816112e801528181611446015281816115760152818161164b01528181611745015281816118d401528181611b8c01528181611c5e0152611d6f015260a0518181816101d301528181610385015281816107180152818161091501528181610ecc015281816111bf01528181611263015281816113540152818161178701528181611a4e0152611ca0015260c05181818161013e0152818161025d015281816105a80152818161066201528181610ae101528181611488015281816115b8015281816116b70152818161193801528181611afc0152611bce0152f35b5f80fd5b634e487b7160e01b5f52604160045260245ffd5b51906001600160a01b03821682036101865756fe6080806040526004361015610012575f80fd5b5f905f3560e01c908162435da514611d5d575080630d011d1c14611c2157806317a2e1f214611b4d57806317d9679714611ac35780631a898044146119f35780631d430349146118315780632427a190146117075780632dbcaf0f1461160f57806341ee1495146115325780634bb77ca6146114075780634e03317b146112ac57806351c2d326146112085780635850607c1461119a57806370c056b014610e385780637e8f8da714610a5457806387fecd3e146107ee5780639c0abfd814610691578063af3a17581461064c578063bbd0b8a9146104c8578063cb43b77f146102a6578063d0927b1914610202578063d369111d146101bd5763f14261d21461011a575f80fd5b346101ba57806003193601126101ba576040516378a130e960e11b815281816004817f00000000000000000000000000000000000000000000000000000000000000006001600160a01b03165afa9081156101af5782610188939261018c575b50506040519182918261243f565b0390f35b6101a892503d8091833e6101a08183611e3b565b810190612a4c565b5f8061017a565b6040513d84823e3d90fd5b80fd5b50346101ba57806003193601126101ba576040517f00000000000000000000000000000000000000000000000000000000000000006001600160a01b03168152602090f35b50346101ba5760203660031901126101ba57600435816001600160401b0382116101ba57610237610259923690600401611e77565b604051809381926306f12c2360e41b8352602060048401526024830190611f79565b03817f00000000000000000000000000000000000000000000000000000000000000006001600160a01b03165afa9081156101af5782610188939261018c5750506040519182918261243f565b50346101ba5760603660031901126101ba576004356001600160401b038111610482576102d7903690600401611fb1565b816024356001600160401b038111610482576102f790369060040161264b565b6044356001600160401b0381116104c457610316903690600401612057565b6040516395a8c58d60e01b81523360048201525f60248201526020816044816001600160a01b037f0000000000000000000000000000000000000000000000000000000000000000165afa80156104b95761037891859161048a575b50612894565b610380612e3f565b8351917f00000000000000000000000000000000000000000000000000000000000000006001600160a01b0316803b15610486576103e6856103f89561040a82966040519889978896879563e8002b2760e01b8752606060048801526064870190611f79565b8581036003190160248701529061255c565b83810360031901604485015290612589565b03925af180156101af5761046d575b50604080830151606084015191517fc77dd947ea8bfd0bd2706c8fad9b1178313fad6bd4cb678b9342239be4f8852892909182916104639142916001600160a01b03169084612e13565b0390a16001815580f35b8161047791611e3b565b61048257815f610419565b5080fd5b8480fd5b6104ac915060203d6020116104b2575b6104a48183611e3b565b8101906126c9565b5f610372565b503d61049a565b6040513d86823e3d90fd5b8280fd5b50346101ba5760603660031901126101ba576004356001600160401b038111610482576104f9903690600401611fb1565b816024356001600160401b03811161048257610519903690600401612057565b6044356001600160401b0381116104c4576105389036906004016120b1565b6040516395a8c58d60e01b8152336004820152600160248201526020816044816001600160a01b037f0000000000000000000000000000000000000000000000000000000000000000165afa80156104b95761059b91859161062d575b50612787565b6105a3612e3f565b8351917f00000000000000000000000000000000000000000000000000000000000000006001600160a01b0316803b15610486576106098561061b9561040a82966040519889978896879563a722652760e01b8752606060048801526064870190611f79565b85810360031901602487015290612589565b838103600319016044850152906125b3565b610646915060203d6020116104b2576104a48183611e3b565b5f610595565b50346101ba57806003193601126101ba576040517f00000000000000000000000000000000000000000000000000000000000000006001600160a01b03168152602090f35b50346101ba57806106a136612307565b6040516395a8c58d60e01b815233600482015260026024820152939591949093919290916020816044816001600160a01b037f0000000000000000000000000000000000000000000000000000000000000000165afa80156104b95761070e9185916107cf575b506126e1565b610716612e3f565b7f00000000000000000000000000000000000000000000000000000000000000006001600160a01b031690813b156107cb578391869183896107706040519788968795869463e462dde560e01b865233936004870161299b565b03925af180156101af576107b6575b50506104637fa4a4ed86dce7c96c7821a45fbbe8394915281a2a2fa758ab0465b199c571abfb9360405193849342913390866129f9565b816107c091611e3b565b6107cb57835f61077f565b8380fd5b6107e8915060203d6020116104b2576104a48183611e3b565b5f610708565b50346101ba5760a03660031901126101ba576004356001600160401b0381116104825761081f903690600401611fb1565b610827612047565b826044356001600160401b03811161048257610847903690600401611e77565b926064356001600160401b0381116104c45761086790369060040161264b565b6084356001600160401b0381116107cb57610886903690600401612057565b6040516395a8c58d60e01b81523360048201525f60248201529092906020816044816001600160a01b037f0000000000000000000000000000000000000000000000000000000000000000165afa8015610a49576108ea91869161048a5750612894565b6108f2612e3f565b8051602082015160408301805160609094015190986001600160a01b03918216967f0000000000000000000000000000000000000000000000000000000000000000909216939091843b15610a455788968793604051998a98899788966364b409ff60e01b8852600488016101009052610104880161097091611f79565b87810360031901602489015261098591611f79565b86810360031901604488015261099a91611f79565b90606486015260ff8d1660848601526003198582030160a48601526109be91611f79565b8381036003190160c48501526109d39161255c565b8281036003190160e48401526109e891612589565b03925af180156101af57610a30575b50507ff52a0795d3c1a788d33423aa105be7a0aaa157621a984632251e0c2ed142d040915190610463604051928392429133908561285f565b81610a3a91611e3b565b6104c457825f6109f7565b8880fd5b6040513d87823e3d90fd5b50346101ba5760203660031901126101ba576004356001600160401b03811161048257610a85903690600401611e77565b610a8d612be2565b50610a96612bc2565b50610a9f612c3a565b50606060e0604051610ab081611de8565b82815282602082015282604082015282808201528260808201528260a08201528260c0820152015260018060a01b037f00000000000000000000000000000000000000000000000000000000000000001660405190637e8f8da760e01b825260206004830152838280610b266024820187611f79565b0381845afa9081156104b95784809181948294610c22575b5094610b689495604051808097819463be2e232560e01b8352602060048401526024830190611f79565b03915afa928315610a495785610b9d9694610bf4575b5050610be69061018893946040519687966080885260808801906124ca565b8681036020880152604060ff81610bd2610bc08751606087526060870190611f79565b60208801518682036020880152611f79565b950151169101528582036040870152612589565b9083820360608501526125b3565b6101889450610be69291610c19913d8091833e610c118183611e3b565b810190612d25565b93819250610b7e565b9450925050503d8085843e610c378184611e3b565b820191606081840312610486578481516001600160401b038111610482578201946060868603126104825760405195610c6f87611dcd565b80516001600160401b0381116107cb5786610c8b9183016127f4565b875260208101516001600160401b0381116107cb5781610cb288604093610cbd95016127f4565b60208a015201612a3e565b604087015260208301516001600160401b0381116104c45785610ce1918501612c53565b926040810151906001600160401b0382116107cb570195610100878703126104c45760405196610d1088611de8565b80516001600160401b0381116104865787610d2c9183016127f4565b885260208101516001600160401b0381116104865787610d4d9183016127f4565b602089015260408101516001600160401b0381116104865787610d719183016127f4565b604089015260608101516001600160401b0381116104865787610d959183016127f4565b606089015260808101516001600160401b0381116104865787610db99183016127f4565b608089015260a08101516001600160401b0381116104865787610ddd9183016127f4565b60a089015260c08101516001600160401b0381116104865787610e019183016127f4565b60c089015260e0810151966001600160401b03881161048657610b6897610e2892016127f4565b60e0880152929593909594610b3e565b50346101ba5760203660031901126101ba576004356001600160401b03811161048257610e69903690600401611e77565b610e71612be2565b50606080604051610e8181611d9e565b8181528160208201528460408201520152606060408051610ea181611dcd565b8281528260208201520152610eb4612c3a565b5060405163070c056b60e41b815260206004820152907f00000000000000000000000000000000000000000000000000000000000000006001600160a01b0316838380610f046024820186611f79565b0381845afa9081156104b95784809381928294611013575b610f45959650604051808097819463be2e232560e01b8352602060048401526024830190611f79565b03915afa928315610a495785610f7d9694610fe9575b5050610fdb90610fcd61018894956040519788976080895260808901906124ca565b87810360208901526060610faf610f9d8451608085526080850190611f79565b60208501518482036020860152611f79565b9260ff60408201511660408401520151906060818403910152611f79565b90858203604087015261255c565b908382036060850152612589565b6101889450611009610fdb9392610fcd923d8091833e610c118183611e3b565b9450819250610f5b565b9350935050503d8085853e6110288185611e3b565b830191606084840312610486578484516001600160401b03811161048257850191608083860312610482576040519261106084611d9e565b80516001600160401b0381116107cb578661107c9183016127f4565b845260208101516001600160401b0381116107cb578661109d9183016127f4565b60208501526110ae60408201612a3e565b60408501526060810151906001600160401b0382116107cb576110d3918791016127f4565b606084015260208601516001600160401b0381116104c4578601956060878703126104c4576040519661110588611dcd565b80516001600160401b03811161048657876111219183016127f4565b885260208101516001600160401b03811161048657876111429183016127f4565b60208901526040810151906001600160401b03821161048657611167918891016127f4565b60408801526040810151956001600160401b0387116107cb57610f459661118e9201612c53565b92959293869550610f1c565b50346101ba57806003193601126101ba57604051631614181f60e21b815281816004817f00000000000000000000000000000000000000000000000000000000000000006001600160a01b03165afa9081156101af5782610188939261018c5750506040519182918261243f565b50346101ba5760203660031901126101ba57600435816001600160401b0382116101ba5761123d61125f923690600401611e77565b604051809381926381fc60a560e01b8352602060048401526024830190611f79565b03817f00000000000000000000000000000000000000000000000000000000000000006001600160a01b03165afa9081156101af5782610188939261018c5750506040519182918261243f565b50346101ba576112bb366121e4565b6040516395a8c58d60e01b8152336004820152600260248201529192916020816044816001600160a01b037f0000000000000000000000000000000000000000000000000000000000000000165afa8015610a49576113209186916107cf57506126e1565b611328612e3f565b81516020830151604084015160608501805160808701519197899591946001600160a01b0393841694937f00000000000000000000000000000000000000000000000000000000000000001692909190833b15611403576113a48896928793604051998a9889978896630173c92160e71b8852600488016128ee565b03925af180156101af576113ee575b50506104637fc8c9ccc57ad2f7823680b448dd87b511b225eb0ac2e99e0aa88e7a26ebc6cbe59351925192604051938493429233908661295a565b816113f891611e3b565b6107cb57835f6113b3565b8780fd5b50346101ba578061141736611ebd565b6040516395a8c58d60e01b81523360048201526002602482015291939290916020816044816001600160a01b037f0000000000000000000000000000000000000000000000000000000000000000165afa80156104b95761147e9185916107cf57506126e1565b611486612e3f565b7f00000000000000000000000000000000000000000000000000000000000000006001600160a01b031691823b156107cb576114db928492836040518096819582946309c6b1f160e41b845260048401612738565b03925af180156101af5761151d575b506040517fcffabb0bf09f750f2707c2b39b75068b8474acead216e4ea21a6dbf94255ecf890806104634286338461275d565b8161152791611e3b565b61048257815f6114ea565b50346101ba578061154236612307565b6040516395a8c58d60e01b815233600482015260026024820152939591949093919290916020816044816001600160a01b037f0000000000000000000000000000000000000000000000000000000000000000165afa80156104b9576115ae9185916107cf57506126e1565b6115b6612e3f565b7f00000000000000000000000000000000000000000000000000000000000000006001600160a01b031690813b156107cb5783918691838961077060405197889687958694621acf2560e81b865233936004870161299b565b50346101ba5761161e366121e4565b6040516395a8c58d60e01b8152336004820152600260248201529192916020816044816001600160a01b037f0000000000000000000000000000000000000000000000000000000000000000165afa8015610a49576116839186916107cf57506126e1565b61168b612e3f565b81516020830151604084015160608501805160808701519197899591946001600160a01b0393841694937f00000000000000000000000000000000000000000000000000000000000000001692909190833b15611403576113a48896928793604051998a98899788966315c9fbf960e11b8852600488016128ee565b50346101ba578061171736611f28565b6040516395a8c58d60e01b81523360048201525f602482015291939290916020816044816001600160a01b037f0000000000000000000000000000000000000000000000000000000000000000165afa80156104b95761177d91859161048a5750612894565b611785612e3f565b7f00000000000000000000000000000000000000000000000000000000000000006001600160a01b031691823b156107cb576117da92849283604051809681958294638b11d37b60e01b8452600484016127dd565b03925af180156101af5761181c575b506040517f2bdb00435d9c333b1d40d2bfd328203807f376108c2120951bbf226c1ceaf57190806104634286338461275d565b8161182691611e3b565b61048257815f6117e9565b50346101ba5760803660031901126101ba576004356001600160401b03811161048257611862903690600401611fb1565b61186a612047565b826044356001600160401b0381116104825761188a903690600401612057565b926064356001600160401b0381116104c4576118aa9036906004016120b1565b6040516395a8c58d60e01b8152336004820152600160248201526020816044816001600160a01b037f0000000000000000000000000000000000000000000000000000000000000000165afa80156104b95761190c91859161062d5750612787565b611914612e3f565b8151602083015160408401805160609095015190976001600160a01b0391821695937f00000000000000000000000000000000000000000000000000000000000000009092169291833b1561140357879586926040519889978896879563682053d960e01b87526004870160e0905260e4870161199091611f79565b8681036003190160248801526119a591611f79565b8581036003190160448701526119ba91611f79565b90606485015260ff8c1660848501526003198482030160a48501526119de91612589565b8281036003190160c48401526109e8916125b3565b50346101ba5760203660031901126101ba57600435816001600160401b0382116101ba57611a28611a4a923690600401611e77565b60405180938192636d1aa7d560e01b8352602060048401526024830190611f79565b03817f00000000000000000000000000000000000000000000000000000000000000006001600160a01b03165afa9081156101af57826101889392611aa0575b5050604051918291602083526020830190611f79565b611abc92503d8091833e611ab48183611e3b565b81019061283a565b5f80611a8a565b50346101ba5760203660031901126101ba57600435816001600160401b0382116101ba57611a28611af8923690600401611e77565b03817f00000000000000000000000000000000000000000000000000000000000000006001600160a01b03165afa9081156101af57826101889392611aa0575050604051918291602083526020830190611f79565b50346101ba5780611b5d36611f28565b6040516395a8c58d60e01b81523360048201526001602482015291939290916020816044816001600160a01b037f0000000000000000000000000000000000000000000000000000000000000000165afa80156104b957611bc491859161062d5750612787565b611bcc612e3f565b7f00000000000000000000000000000000000000000000000000000000000000006001600160a01b031691823b156107cb576117da928492836040518096819582946349db9dd160e11b8452600484016127dd565b5034611d5957611c3036611ebd565b6040516395a8c58d60e01b815233600482015260026024820152919290916020816044816001600160a01b037f0000000000000000000000000000000000000000000000000000000000000000165afa8015611d4e57611c96915f916107cf57506126e1565b611c9e612e3f565b7f00000000000000000000000000000000000000000000000000000000000000006001600160a01b031691823b15611d5957611cf3925f9283604051809681958294635839821b60e11b845260048401612738565b03925af18015611d4e57611d37575b506104637fcffabb0bf09f750f2707c2b39b75068b8474acead216e4ea21a6dbf94255ecf8916040519182914290338461275d565b611d449192505f90611e3b565b5f90610463611d02565b6040513d5f823e3d90fd5b5f80fd5b34611d59575f366003190112611d59577f00000000000000000000000000000000000000000000000000000000000000006001600160a01b03168152602090f35b608081019081106001600160401b03821117611db957604052565b634e487b7160e01b5f52604160045260245ffd5b606081019081106001600160401b03821117611db957604052565b61010081019081106001600160401b03821117611db957604052565b604081019081106001600160401b03821117611db957604052565b61014081019081106001600160401b03821117611db957604052565b90601f801991011681019081106001600160401b03821117611db957604052565b6001600160401b038111611db957601f01601f191660200190565b81601f82011215611d5957803590611e8e82611e5c565b92611e9c6040519485611e3b565b82845260208383010111611d5957815f926020809301838601378301015290565b6060600319820112611d59576004356001600160401b038111611d595781611ee791600401611e77565b916024356001600160401b038111611d595782611f0691600401611e77565b91604435906001600160401b038211611d5957611f2591600401611e77565b90565b906060600319830112611d59576004356001600160401b038111611d595782611f5391600401611e77565b91602435906001600160401b038211611d5957611f7291600401611e77565b9060443590565b805180835260209291819084018484015e5f828201840152601f01601f1916010190565b35906001600160a01b0382168203611d5957565b919091608081840312611d595760405190611fcb82611d9e565b819381356001600160401b038111611d595781611fe9918401611e77565b835260208201356001600160401b038111611d59578161200a918401611e77565b60208401526040820135906001600160401b038211611d5957826120376060949261204294869401611e77565b604086015201611f9d565b910152565b6024359060ff82168203611d5957565b9190604083820312611d59576040519061207082611e04565b819380356001600160401b038111611d59578261208e918301611e77565b83526020810135916001600160401b038311611d59576020926120429201611e77565b919061010083820312611d5957604051906120cb82611de8565b819380356001600160401b038111611d5957826120e9918301611e77565b835260208101356001600160401b038111611d59578261210a918301611e77565b602084015260408101356001600160401b038111611d59578261212e918301611e77565b604084015260608101356001600160401b038111611d595782612152918301611e77565b606084015260808101356001600160401b038111611d595782612176918301611e77565b608084015260a08101356001600160401b038111611d59578261219a918301611e77565b60a084015260c08101356001600160401b038111611d5957826121be918301611e77565b60c084015260e0810135916001600160401b038311611d595760e0926120429201611e77565b906060600319830112611d59576004356001600160401b038111611d595760a08184036003190112611d59576040519060a082018281106001600160401b03821117611db95760405280600401356001600160401b038111611d595784600461224f92840101611e77565b825260248101356001600160401b038111611d595784600461227392840101611e77565b602083015260448101356001600160401b038111611d595784600461229a92840101611e77565b604083015260648101356001600160401b038111611d5957816122c78660046084946122d2960101611e77565b606085015201611f9d565b608082015291602435906001600160401b038211611d59576122f691600401611e77565b9060443560ff81168103611d595790565b9060a0600319830112611d59576004356001600160401b038111611d59578261233291600401611e77565b916024356001600160401b038111611d59578161235191600401611e77565b916044356001600160401b038111611d59578261237091600401611e77565b91606435906001600160401b038211611d595761238f91600401611e77565b9060843560ff81168103611d595790565b9060078210156123ad5752565b634e487b7160e01b5f52602160045260245ffd5b9060c0806124366124056123f36123e1875160e0885260e0880190611f79565b60208801518782036020890152611f79565b60408701518682036040880152611f79565b60ff6060870151166060860152612424608087015160808701906123a0565b60a086015185820360a0870152611f79565b93015191015290565b602081016020825282518091526040820191602060408360051b8301019401925f915b83831061247157505050505090565b909192939460208061248f600193603f1986820301875289516123c1565b97019301930191939290612462565b9060406124b7610f9d8451606085526060850190611f79565b928101516001600160a01b031691015290565b611f25916124d98183516123a0565b6020820151602082015260408201516040820152606082015160608201526080820151608082015260a082015160a082015260c082015160c082015261012061254a61253660e085015161014060e086015261014085019061249e565b61010085015184820361010086015261249e565b92015190610120818403910152611f79565b611f25916040612578610f9d8451606085526060850190611f79565b920151906040818403910152611f79565b611f259160206125a28351604084526040840190611f79565b920151906020818403910152611f79565b611f259160e061263a6126286124246126166126046125f26125e089516101008a526101008a0190611f79565b60208a015189820360208b0152611f79565b604089015188820360408a0152611f79565b60608801518782036060890152611f79565b60808701518682036080880152611f79565b60c085015184820360c0860152611f79565b9201519060e0818403910152611f79565b9190606083820312611d59576040519061266482611dcd565b819380356001600160401b038111611d595782612682918301611e77565b835260208101356001600160401b038111611d5957826126a3918301611e77565b60208401526040810135916001600160401b038311611d59576040926120429201611e77565b90816020910312611d5957518015158103611d595790565b156126e857565b60405162461bcd60e51b815260206004820152602260248201527f4f6e6c792042504f4d2063616e20646f2074686973207472616e73616374696f6044820152616e2160f01b6064820152608490fd5b909161274f611f2593604084526040840190611f79565b916020818403910152611f79565b9392916127829060409260018060a01b03168652606060208701526060860190611f79565b930152565b1561278e57565b60405162461bcd60e51b815260206004820152602160248201527f4f6e6c79205042462063616e20646f2074686973207472616e73616374696f6e6044820152602160f81b6064820152608490fd5b929190612782602091604086526040860190611f79565b81601f82011215611d595780519061280b82611e5c565b926128196040519485611e3b565b82845260208383010111611d5957815f9260208093018386015e8301015290565b90602082820312611d595781516001600160401b038111611d5957611f2592016127f4565b9060609295949361287a60ff92608085526080850190611f79565b6001600160a01b0390971660208401521660408201520152565b1561289b57565b60405162461bcd60e51b815260206004820152602560248201527f4f6e6c7920466163746f72792063616e20646f2074686973207472616e73616360448201526474696f6e2160d81b6064820152608490fd5b9261292d9061291f61293b94612911611f259a989560c0895260c0890190611f79565b908782036020890152611f79565b908582036040870152611f79565b908382036060850152611f79565b6001600160a01b03909316608082015280830360a09190910152611f79565b95949360ff608094612978612782959460a08b5260a08b0190611f79565b6001600160a01b0390941660208a01521660408801528682036060880152611f79565b93906080936129cd6129e9946129bf6129db949a999a60a08a5260a08a0190611f79565b9088820360208a0152611f79565b908682036040880152611f79565b908482036060860152611f79565b6001600160a01b03909416910152565b919390611f259593612a1560ff9260a0865260a0860190611f79565b6001600160a01b0390961660208501521660408301526060820152808303608090910152611f79565b519060ff82168203611d5957565b602081830312611d59578051906001600160401b038211611d5957019080601f83011215611d59576020825192016001600160401b038311611db9578260051b916020830193612a9f6040519586611e3b565b84526020840192820191818311611d595780935b838510612ac257505050505090565b84516001600160401b038111611d5957820160e081850312611d59576040519160e083018381106001600160401b03821117611db95760405281516001600160401b038111611d595785612b179184016127f4565b835260208201516001600160401b038111611d595785612b389184016127f4565b602084015260408201516001600160401b038111611d595785612b5c9184016127f4565b6040840152612b6d60608301612a3e565b606084015260808201516007811015611d5957608084015260a0820151926001600160401b038411611d595760c083612bab886020978897016127f4565b60a0840152015160c0820152815201940193612ab3565b60405190612bcf82611dcd565b5f60408360608152606060208201520152565b60405190612bef82611e1f565b6060610120835f81525f60208201525f60408201525f838201525f60808201525f60a08201525f60c0820152612c23612bc2565b60e0820152612c30612bc2565b6101008201520152565b60405190612c4782611e04565b60606020838281520152565b9190604083820312611d595760405190612c6c82611e04565b819380516001600160401b038111611d595782612c8a9183016127f4565b83526020810151916001600160401b038311611d595760209261204292016127f4565b9190606083820312611d595760405190612cc682611dcd565b819380516001600160401b038111611d595782612ce49183016127f4565b835260208101516001600160401b038111611d5957604092612d079183016127f4565b60208401520151906001600160a01b0382168203611d595760400152565b602081830312611d59578051906001600160401b038211611d59570161014081830312611d595760405191612d5983611e1f565b81516007811015611d595783526020820151602084015260408201516040840152606082015160608401526080820151608084015260a082015160a084015260c082015160c084015260e08201516001600160401b038111611d595781612dc1918401612cad565b60e08401526101008201516001600160401b038111611d595781612de6918401612cad565b6101008401526101208201516001600160401b038111611d5957612e0a92016127f4565b61012082015290565b612e2b60409295949395606083526060830190611f79565b6001600160a01b0390951660208201520152565b60025f5414612e4e5760025f55565b633ee5aeb560e01b5f5260045ffdfea264697066735822122017671792135d07713a9f51a980ccda13a42744c74c349992b17a52f355384bbe64736f6c634300081b0033",
  "linkReferences": {},
  "deployedLinkReferences": {}
}