{
  "_format": "hh-sol-artifact-1",
  "contractName": "CertificateManager",
  "sourceName": "contracts/CertificateManager.sol",
  "abi": [
    {
      "inputs": [
        {
          "internalType": "address",
          "name": "_roleManagerAddr",
          "type": "address"
        },
        {
          "internalType": "address",
          "name": "_cpotbCertificateAddr",
          "type": "address"
        },
        {
          "internalType": "address",
          "name": "_cdobCertificateAddr",
          "type": "address"
        }
      ],
      "stateMutability": "nonpayable",
      "type": "constructor"
    },
    {
      "anonymous": false,
      "inputs": [
        {
          "indexed": false,
          "internalType": "string",
          "name": "bpomInstance",
          "type": "string"
        },
        {
          "indexed": false,
          "internalType": "address",
          "name": "bpomAddr",
          "type": "address"
        },
        {
          "indexed": false,
          "internalType": "uint8",
          "name": "tipePermohonan",
          "type": "uint8"
        },
        {
          "indexed": false,
          "internalType": "string",
          "name": "certNumber",
          "type": "string"
        },
        {
          "indexed": false,
          "internalType": "uint256",
          "name": "timestamp",
          "type": "uint256"
        }
      ],
      "name": "CertApproved",
      "type": "event"
    },
    {
      "anonymous": false,
      "inputs": [
        {
          "indexed": false,
          "internalType": "string",
          "name": "bpomInstance",
          "type": "string"
        },
        {
          "indexed": false,
          "internalType": "address",
          "name": "bpomAddr",
          "type": "address"
        },
        {
          "indexed": false,
          "internalType": "uint8",
          "name": "tipePermohonan",
          "type": "uint8"
        },
        {
          "indexed": false,
          "internalType": "uint256",
          "name": "timestamp",
          "type": "uint256"
        },
        {
          "indexed": false,
          "internalType": "string",
          "name": "rejectMsg",
          "type": "string"
        }
      ],
      "name": "CertRejected",
      "type": "event"
    },
    {
      "anonymous": false,
      "inputs": [
        {
          "indexed": false,
          "internalType": "string",
          "name": "senderInstance",
          "type": "string"
        },
        {
          "indexed": false,
          "internalType": "address",
          "name": "senderAddr",
          "type": "address"
        },
        {
          "indexed": false,
          "internalType": "uint256",
          "name": "timestamp",
          "type": "uint256"
        }
      ],
      "name": "CertRenewRequest",
      "type": "event"
    },
    {
      "anonymous": false,
      "inputs": [
        {
          "indexed": false,
          "internalType": "string",
          "name": "senderInstance",
          "type": "string"
        },
        {
          "indexed": false,
          "internalType": "address",
          "name": "senderAddr",
          "type": "address"
        },
        {
          "indexed": false,
          "internalType": "uint8",
          "name": "tipePermohonan",
          "type": "uint8"
        },
        {
          "indexed": false,
          "internalType": "uint256",
          "name": "timestamp",
          "type": "uint256"
        }
      ],
      "name": "CertRequested",
      "type": "event"
    },
    {
      "inputs": [
        {
          "components": [
            {
              "internalType": "string",
              "name": "certNumber",
              "type": "string"
            },
            {
              "internalType": "string",
              "name": "certId",
              "type": "string"
            },
            {
              "internalType": "string",
              "name": "bpomName",
              "type": "string"
            },
            {
              "internalType": "string",
              "name": "bpomInstance",
              "type": "string"
            },
            {
              "internalType": "address",
              "name": "bpomAddr",
              "type": "address"
            }
          ],
          "internalType": "struct CertificateManager.CertificateApproval",
          "name": "_approvalData",
          "type": "tuple"
        },
        {
          "internalType": "string",
          "name": "_ipfsCert",
          "type": "string"
        },
        {
          "internalType": "uint8",
          "name": "_tipePermohonanCdob",
          "type": "uint8"
        }
      ],
      "name": "approveCdob",
      "outputs": [],
      "stateMutability": "nonpayable",
      "type": "function"
    },
    {
      "inputs": [
        {
          "components": [
            {
              "internalType": "string",
              "name": "certNumber",
              "type": "string"
            },
            {
              "internalType": "string",
              "name": "certId",
              "type": "string"
            },
            {
              "internalType": "string",
              "name": "bpomName",
              "type": "string"
            },
            {
              "internalType": "string",
              "name": "bpomInstance",
              "type": "string"
            },
            {
              "internalType": "address",
              "name": "bpomAddr",
              "type": "address"
            }
          ],
          "internalType": "struct CertificateManager.CertificateApproval",
          "name": "_approvalData",
          "type": "tuple"
        },
        {
          "internalType": "string",
          "name": "_ipfsCert",
          "type": "string"
        },
        {
          "internalType": "uint8",
          "name": "_jenisSediaan",
          "type": "uint8"
        }
      ],
      "name": "approveCpotb",
      "outputs": [],
      "stateMutability": "nonpayable",
      "type": "function"
    },
    {
      "inputs": [],
      "name": "getAllCdob",
      "outputs": [
        {
          "components": [
            {
              "internalType": "string",
              "name": "certId",
              "type": "string"
            },
            {
              "internalType": "string",
              "name": "certNumber",
              "type": "string"
            },
            {
              "internalType": "string",
              "name": "instanceName",
              "type": "string"
            },
            {
              "internalType": "uint8",
              "name": "tipePermohonan",
              "type": "uint8"
            },
            {
              "internalType": "enum EnumsLibrary.StatusCertificate",
              "name": "status",
              "type": "uint8"
            },
            {
              "internalType": "string",
              "name": "certHash",
              "type": "string"
            }
          ],
          "internalType": "struct CdobCertificate.CertificateList[]",
          "name": "",
          "type": "tuple[]"
        }
      ],
      "stateMutability": "view",
      "type": "function"
    },
    {
      "inputs": [],
      "name": "getAllCpotb",
      "outputs": [
        {
          "components": [
            {
              "internalType": "string",
              "name": "certId",
              "type": "string"
            },
            {
              "internalType": "string",
              "name": "certNumber",
              "type": "string"
            },
            {
              "internalType": "string",
              "name": "instanceName",
              "type": "string"
            },
            {
              "internalType": "uint8",
              "name": "tipePermohonan",
              "type": "uint8"
            },
            {
              "internalType": "enum EnumsLibrary.StatusCertificate",
              "name": "status",
              "type": "uint8"
            },
            {
              "internalType": "string",
              "name": "certHash",
              "type": "string"
            }
          ],
          "internalType": "struct CpotbCertificate.CertificateList[]",
          "name": "",
          "type": "tuple[]"
        }
      ],
      "stateMutability": "view",
      "type": "function"
    },
    {
      "inputs": [
        {
          "internalType": "string",
          "name": "_instanceName",
          "type": "string"
        }
      ],
      "name": "getCdobByInstance",
      "outputs": [
        {
          "components": [
            {
              "internalType": "string",
              "name": "certId",
              "type": "string"
            },
            {
              "internalType": "string",
              "name": "certNumber",
              "type": "string"
            },
            {
              "internalType": "string",
              "name": "instanceName",
              "type": "string"
            },
            {
              "internalType": "uint8",
              "name": "tipePermohonan",
              "type": "uint8"
            },
            {
              "internalType": "enum EnumsLibrary.StatusCertificate",
              "name": "status",
              "type": "uint8"
            },
            {
              "internalType": "string",
              "name": "certHash",
              "type": "string"
            }
          ],
          "internalType": "struct CdobCertificate.CertificateList[]",
          "name": "",
          "type": "tuple[]"
        }
      ],
      "stateMutability": "view",
      "type": "function"
    },
    {
      "inputs": [
        {
          "internalType": "string",
          "name": "_certId",
          "type": "string"
        }
      ],
      "name": "getCdobDetails",
      "outputs": [
        {
          "components": [
            {
              "internalType": "enum EnumsLibrary.StatusCertificate",
              "name": "status",
              "type": "uint8"
            },
            {
              "internalType": "uint256",
              "name": "timestampRequest",
              "type": "uint256"
            },
            {
              "internalType": "uint256",
              "name": "timestampApprove",
              "type": "uint256"
            },
            {
              "internalType": "uint256",
              "name": "timestampRejected",
              "type": "uint256"
            },
            {
              "internalType": "uint256",
              "name": "timestsmpRenewRequest",
              "type": "uint256"
            },
            {
              "components": [
                {
                  "internalType": "string",
                  "name": "userName",
                  "type": "string"
                },
                {
                  "internalType": "string",
                  "name": "userInstance",
                  "type": "string"
                },
                {
                  "internalType": "address",
                  "name": "userAddr",
                  "type": "address"
                }
              ],
              "internalType": "struct BaseCertificate.UserCert",
              "name": "sender",
              "type": "tuple"
            },
            {
              "components": [
                {
                  "internalType": "string",
                  "name": "userName",
                  "type": "string"
                },
                {
                  "internalType": "string",
                  "name": "userInstance",
                  "type": "string"
                },
                {
                  "internalType": "address",
                  "name": "userAddr",
                  "type": "address"
                }
              ],
              "internalType": "struct BaseCertificate.UserCert",
              "name": "bpom",
              "type": "tuple"
            },
            {
              "internalType": "string",
              "name": "ipfsCert",
              "type": "string"
            }
          ],
          "internalType": "struct BaseCertificate.CertificateDetails",
          "name": "",
          "type": "tuple"
        },
        {
          "components": [
            {
              "internalType": "string",
              "name": "cdobId",
              "type": "string"
            },
            {
              "internalType": "string",
              "name": "cdobNumber",
              "type": "string"
            },
            {
              "internalType": "uint8",
              "name": "tipePermohonan",
              "type": "uint8"
            }
          ],
          "internalType": "struct CdobCertificate.CdobData",
          "name": "",
          "type": "tuple"
        },
        {
          "components": [
            {
              "internalType": "string",
              "name": "suratPermohonan",
              "type": "string"
            },
            {
              "internalType": "string",
              "name": "buktiPembayaranPajak",
              "type": "string"
            }
          ],
          "internalType": "struct CdobCertificate.DokumenAdministrasi",
          "name": "",
          "type": "tuple"
        },
        {
          "components": [
            {
              "internalType": "string",
              "name": "suratIzinCdob",
              "type": "string"
            },
            {
              "internalType": "string",
              "name": "denahBangunan",
              "type": "string"
            },
            {
              "internalType": "string",
              "name": "strukturOrganisasi",
              "type": "string"
            },
            {
              "internalType": "string",
              "name": "daftarPersonalia",
              "type": "string"
            },
            {
              "internalType": "string",
              "name": "daftarPeralatan",
              "type": "string"
            },
            {
              "internalType": "string",
              "name": "eksekutifQualityManagement",
              "type": "string"
            },
            {
              "internalType": "string",
              "name": "suratIzinApoteker",
              "type": "string"
            },
            {
              "internalType": "string",
              "name": "dokumenSelfAssesment",
              "type": "string"
            }
          ],
          "internalType": "struct CdobCertificate.DokumenTeknis",
          "name": "",
          "type": "tuple"
        }
      ],
      "stateMutability": "view",
      "type": "function"
    },
    {
      "inputs": [
        {
          "internalType": "string",
          "name": "_instanceName",
          "type": "string"
        }
      ],
      "name": "getCpotbByInstance",
      "outputs": [
        {
          "components": [
            {
              "internalType": "string",
              "name": "certId",
              "type": "string"
            },
            {
              "internalType": "string",
              "name": "certNumber",
              "type": "string"
            },
            {
              "internalType": "string",
              "name": "instanceName",
              "type": "string"
            },
            {
              "internalType": "uint8",
              "name": "tipePermohonan",
              "type": "uint8"
            },
            {
              "internalType": "enum EnumsLibrary.StatusCertificate",
              "name": "status",
              "type": "uint8"
            },
            {
              "internalType": "string",
              "name": "certHash",
              "type": "string"
            }
          ],
          "internalType": "struct CpotbCertificate.CertificateList[]",
          "name": "",
          "type": "tuple[]"
        }
      ],
      "stateMutability": "view",
      "type": "function"
    },
    {
      "inputs": [
        {
          "internalType": "string",
          "name": "_certId",
          "type": "string"
        }
      ],
      "name": "getCpotbDetails",
      "outputs": [
        {
          "components": [
            {
              "internalType": "enum EnumsLibrary.StatusCertificate",
              "name": "status",
              "type": "uint8"
            },
            {
              "internalType": "uint256",
              "name": "timestampRequest",
              "type": "uint256"
            },
            {
              "internalType": "uint256",
              "name": "timestampApprove",
              "type": "uint256"
            },
            {
              "internalType": "uint256",
              "name": "timestampRejected",
              "type": "uint256"
            },
            {
              "internalType": "uint256",
              "name": "timestsmpRenewRequest",
              "type": "uint256"
            },
            {
              "components": [
                {
                  "internalType": "string",
                  "name": "userName",
                  "type": "string"
                },
                {
                  "internalType": "string",
                  "name": "userInstance",
                  "type": "string"
                },
                {
                  "internalType": "address",
                  "name": "userAddr",
                  "type": "address"
                }
              ],
              "internalType": "struct BaseCertificate.UserCert",
              "name": "sender",
              "type": "tuple"
            },
            {
              "components": [
                {
                  "internalType": "string",
                  "name": "userName",
                  "type": "string"
                },
                {
                  "internalType": "string",
                  "name": "userInstance",
                  "type": "string"
                },
                {
                  "internalType": "address",
                  "name": "userAddr",
                  "type": "address"
                }
              ],
              "internalType": "struct BaseCertificate.UserCert",
              "name": "bpom",
              "type": "tuple"
            },
            {
              "internalType": "string",
              "name": "ipfsCert",
              "type": "string"
            }
          ],
          "internalType": "struct BaseCertificate.CertificateDetails",
          "name": "",
          "type": "tuple"
        },
        {
          "components": [
            {
              "internalType": "string",
              "name": "cpotbId",
              "type": "string"
            },
            {
              "internalType": "string",
              "name": "cpotbNumber",
              "type": "string"
            },
            {
              "internalType": "uint8",
              "name": "tipePermohonan",
              "type": "uint8"
            },
            {
              "internalType": "string",
              "name": "factoryType",
              "type": "string"
            }
          ],
          "internalType": "struct CpotbCertificate.CpotbData",
          "name": "",
          "type": "tuple"
        },
        {
          "components": [
            {
              "internalType": "string",
              "name": "suratPermohonan",
              "type": "string"
            },
            {
              "internalType": "string",
              "name": "buktiPembayaranNegaraBukanPajak",
              "type": "string"
            },
            {
              "internalType": "string",
              "name": "suratKomitmen",
              "type": "string"
            }
          ],
          "internalType": "struct CpotbCertificate.DokumenAdministrasi",
          "name": "",
          "type": "tuple"
        },
        {
          "components": [
            {
              "internalType": "string",
              "name": "denahBangunan",
              "type": "string"
            },
            {
              "internalType": "string",
              "name": "sistemMutu",
              "type": "string"
            }
          ],
          "internalType": "struct CpotbCertificate.DokumenTeknis",
          "name": "",
          "type": "tuple"
        }
      ],
      "stateMutability": "view",
      "type": "function"
    },
    {
      "inputs": [
        {
          "internalType": "string",
          "name": "_certId",
          "type": "string"
        }
      ],
      "name": "getRejectMsgCdob",
      "outputs": [
        {
          "internalType": "string",
          "name": "",
          "type": "string"
        }
      ],
      "stateMutability": "view",
      "type": "function"
    },
    {
      "inputs": [
        {
          "internalType": "string",
          "name": "_certId",
          "type": "string"
        }
      ],
      "name": "getRejectMsgCpotb",
      "outputs": [
        {
          "internalType": "string",
          "name": "",
          "type": "string"
        }
      ],
      "stateMutability": "view",
      "type": "function"
    },
    {
      "inputs": [
        {
          "internalType": "string",
          "name": "_certId",
          "type": "string"
        },
        {
          "internalType": "string",
          "name": "_rejectMsg",
          "type": "string"
        },
        {
          "internalType": "string",
          "name": "_bpomName",
          "type": "string"
        },
        {
          "internalType": "string",
          "name": "_bpomInstance",
          "type": "string"
        },
        {
          "internalType": "uint8",
          "name": "_tipePermohonanCdob",
          "type": "uint8"
        }
      ],
      "name": "rejectCdob",
      "outputs": [],
      "stateMutability": "nonpayable",
      "type": "function"
    },
    {
      "inputs": [
        {
          "internalType": "string",
          "name": "_certId",
          "type": "string"
        },
        {
          "internalType": "string",
          "name": "_rejectMsg",
          "type": "string"
        },
        {
          "internalType": "string",
          "name": "_bpomName",
          "type": "string"
        },
        {
          "internalType": "string",
          "name": "_bpomInstance",
          "type": "string"
        },
        {
          "internalType": "uint8",
          "name": "_jenisSediaan",
          "type": "uint8"
        }
      ],
      "name": "rejectCpotb",
      "outputs": [],
      "stateMutability": "nonpayable",
      "type": "function"
    },
    {
      "inputs": [
        {
          "components": [
            {
              "internalType": "string",
              "name": "certId",
              "type": "string"
            },
            {
              "internalType": "string",
              "name": "senderName",
              "type": "string"
            },
            {
              "internalType": "string",
              "name": "senderInstance",
              "type": "string"
            },
            {
              "internalType": "address",
              "name": "senderAddr",
              "type": "address"
            }
          ],
          "internalType": "struct CertificateManager.CertificateRequest",
          "name": "_requestData",
          "type": "tuple"
        },
        {
          "components": [
            {
              "internalType": "string",
              "name": "suratPermohonan",
              "type": "string"
            },
            {
              "internalType": "string",
              "name": "buktiPembayaranPajak",
              "type": "string"
            }
          ],
          "internalType": "struct CdobCertificate.DokumenAdministrasi",
          "name": "_newDokuAdmin",
          "type": "tuple"
        },
        {
          "components": [
            {
              "internalType": "string",
              "name": "suratIzinCdob",
              "type": "string"
            },
            {
              "internalType": "string",
              "name": "denahBangunan",
              "type": "string"
            },
            {
              "internalType": "string",
              "name": "strukturOrganisasi",
              "type": "string"
            },
            {
              "internalType": "string",
              "name": "daftarPersonalia",
              "type": "string"
            },
            {
              "internalType": "string",
              "name": "daftarPeralatan",
              "type": "string"
            },
            {
              "internalType": "string",
              "name": "eksekutifQualityManagement",
              "type": "string"
            },
            {
              "internalType": "string",
              "name": "suratIzinApoteker",
              "type": "string"
            },
            {
              "internalType": "string",
              "name": "dokumenSelfAssesment",
              "type": "string"
            }
          ],
          "internalType": "struct CdobCertificate.DokumenTeknis",
          "name": "_newDokuTeknis",
          "type": "tuple"
        }
      ],
      "name": "renewCdob",
      "outputs": [],
      "stateMutability": "nonpayable",
      "type": "function"
    },
    {
      "inputs": [
        {
          "components": [
            {
              "internalType": "string",
              "name": "certId",
              "type": "string"
            },
            {
              "internalType": "string",
              "name": "senderName",
              "type": "string"
            },
            {
              "internalType": "string",
              "name": "senderInstance",
              "type": "string"
            },
            {
              "internalType": "address",
              "name": "senderAddr",
              "type": "address"
            }
          ],
          "internalType": "struct CertificateManager.CertificateRequest",
          "name": "_requestData",
          "type": "tuple"
        },
        {
          "components": [
            {
              "internalType": "string",
              "name": "suratPermohonan",
              "type": "string"
            },
            {
              "internalType": "string",
              "name": "buktiPembayaranNegaraBukanPajak",
              "type": "string"
            },
            {
              "internalType": "string",
              "name": "suratKomitmen",
              "type": "string"
            }
          ],
          "internalType": "struct CpotbCertificate.DokumenAdministrasi",
          "name": "_newDokuAdmin",
          "type": "tuple"
        },
        {
          "components": [
            {
              "internalType": "string",
              "name": "denahBangunan",
              "type": "string"
            },
            {
              "internalType": "string",
              "name": "sistemMutu",
              "type": "string"
            }
          ],
          "internalType": "struct CpotbCertificate.DokumenTeknis",
          "name": "_newDokuTeknis",
          "type": "tuple"
        }
      ],
      "name": "renewCpotb",
      "outputs": [],
      "stateMutability": "nonpayable",
      "type": "function"
    },
    {
      "inputs": [
        {
          "components": [
            {
              "internalType": "string",
              "name": "certId",
              "type": "string"
            },
            {
              "internalType": "string",
              "name": "senderName",
              "type": "string"
            },
            {
              "internalType": "string",
              "name": "senderInstance",
              "type": "string"
            },
            {
              "internalType": "address",
              "name": "senderAddr",
              "type": "address"
            }
          ],
          "internalType": "struct CertificateManager.CertificateRequest",
          "name": "_requestData",
          "type": "tuple"
        },
        {
          "internalType": "uint8",
          "name": "_tipePermohonanCdob",
          "type": "uint8"
        },
        {
          "components": [
            {
              "internalType": "string",
              "name": "suratPermohonan",
              "type": "string"
            },
            {
              "internalType": "string",
              "name": "buktiPembayaranPajak",
              "type": "string"
            }
          ],
          "internalType": "struct CdobCertificate.DokumenAdministrasi",
          "name": "dokuAdmin",
          "type": "tuple"
        },
        {
          "components": [
            {
              "internalType": "string",
              "name": "suratIzinCdob",
              "type": "string"
            },
            {
              "internalType": "string",
              "name": "denahBangunan",
              "type": "string"
            },
            {
              "internalType": "string",
              "name": "strukturOrganisasi",
              "type": "string"
            },
            {
              "internalType": "string",
              "name": "daftarPersonalia",
              "type": "string"
            },
            {
              "internalType": "string",
              "name": "daftarPeralatan",
              "type": "string"
            },
            {
              "internalType": "string",
              "name": "eksekutifQualityManagement",
              "type": "string"
            },
            {
              "internalType": "string",
              "name": "suratIzinApoteker",
              "type": "string"
            },
            {
              "internalType": "string",
              "name": "dokumenSelfAssesment",
              "type": "string"
            }
          ],
          "internalType": "struct CdobCertificate.DokumenTeknis",
          "name": "dokuTeknis",
          "type": "tuple"
        }
      ],
      "name": "requestCdob",
      "outputs": [],
      "stateMutability": "nonpayable",
      "type": "function"
    },
    {
      "inputs": [
        {
          "components": [
            {
              "internalType": "string",
              "name": "certId",
              "type": "string"
            },
            {
              "internalType": "string",
              "name": "senderName",
              "type": "string"
            },
            {
              "internalType": "string",
              "name": "senderInstance",
              "type": "string"
            },
            {
              "internalType": "address",
              "name": "senderAddr",
              "type": "address"
            }
          ],
          "internalType": "struct CertificateManager.CertificateRequest",
          "name": "_requestData",
          "type": "tuple"
        },
        {
          "internalType": "uint8",
          "name": "_jenisSediaan",
          "type": "uint8"
        },
        {
          "internalType": "string",
          "name": "_factoryType",
          "type": "string"
        },
        {
          "components": [
            {
              "internalType": "string",
              "name": "suratPermohonan",
              "type": "string"
            },
            {
              "internalType": "string",
              "name": "buktiPembayaranNegaraBukanPajak",
              "type": "string"
            },
            {
              "internalType": "string",
              "name": "suratKomitmen",
              "type": "string"
            }
          ],
          "internalType": "struct CpotbCertificate.DokumenAdministrasi",
          "name": "dokuAdmin",
          "type": "tuple"
        },
        {
          "components": [
            {
              "internalType": "string",
              "name": "denahBangunan",
              "type": "string"
            },
            {
              "internalType": "string",
              "name": "sistemMutu",
              "type": "string"
            }
          ],
          "internalType": "struct CpotbCertificate.DokumenTeknis",
          "name": "dokuTeknis",
          "type": "tuple"
        }
      ],
      "name": "requestCpotb",
      "outputs": [],
      "stateMutability": "nonpayable",
      "type": "function"
    }
  ],
  "bytecode": "0x60803460a257601f61259838819003918201601f19168301916001600160401b0383118484101760a65780849260609460405283398101031260a25760428160ba565b906057604060516020840160ba565b920160ba565b5f80546001600160a01b039485166001600160a01b0319918216179091556001805493851693821693909317909255600280549190931691161790556040516124ca90816100ce8239f35b5f80fd5b634e487b7160e01b5f52604160045260245ffd5b51906001600160a01b038216820360a25756fe60806040526004361015610011575f80fd5b5f5f3560e01c806317d967971461151a5780631a8980441461146c5780631d430349146112615780632dbcaf0f146111a857806341ee1495146111135780634e03317b14610ff757806351c2d32614610f945780635850607c14610f3f57806370c056b014610bfa5780637e8f8da71461083457806387fecd3e146106145780639c0abfd8146104ff578063bbd0b8a9146103ba578063cb43b77f146101da578063d0927b19146101545763f14261d2146100ca575f80fd5b346101515780600319360112610151576002546040516378a130e960e11b8152908290829060049082906001600160a01b03165afa908115610146578261011f9392610123575b505060405191829182611b3b565b0390f35b61013f92503d8091833e61013781836115fd565b810190612078565b5f80610111565b6040513d84823e3d90fd5b80fd5b503461015157602036600319011261015157600435816001600160401b038211610151576101896101b7923690600401611639565b60018060a01b036002541660405180809581946306f12c2360e41b835260206004840152602483019061167f565b03915afa908115610146578261011f939261012357505060405191829182611b3b565b5034610151576060366003190112610151576004356001600160401b0381116103745761020b9036906004016116b7565b816024356001600160401b0381116103745761022b903690600401611d32565b6044356001600160401b0381116103b65761024a90369060040161175d565b82546040516395a8c58d60e01b81523360048201526024810185905290602090829060449082906001600160a01b03165afa80156103ab5761029391859161037c575b5061240e565b600154845192906001600160a01b0316803b15610378576102dc856102ee9561030082966040519889978896879563e8002b2760e01b875260606004880152606487019061167f565b85810360031901602487015290611c42565b83810360031901604485015290611c6f565b03925af180156101465761035f575b50604080830151606084015191517fc77dd947ea8bfd0bd2706c8fad9b1178313fad6bd4cb678b9342239be4f8852892909182916103599142916001600160a01b03169084612468565b0390a180f35b81610369916115fd565b61037457815f61030f565b5080fd5b8480fd5b61039e915060203d6020116103a4575b61039681836115fd565b810190611e1b565b5f61028d565b503d61038c565b6040513d86823e3d90fd5b8280fd5b5034610151576060366003190112610151576004356001600160401b038111610374576103eb9036906004016116b7565b816024356001600160401b0381116103745761040b90369060040161175d565b6044356001600160401b0381116103b65761042a9036906004016117b7565b82546040516395a8c58d60e01b81523360048201526001602482015290602090829060449082906001600160a01b03165afa80156103ab576104739185916104e0575b50611e33565b600254845192906001600160a01b0316803b15610378576104bc856104ce9561030082966040519889978896879563a722652760e01b875260606004880152606487019061167f565b85810360031901602487015290611c6f565b83810360031901604485015290611c99565b6104f9915060203d6020116103a45761039681836115fd565b5f61046d565b5034610151578061050f36611a0d565b9294916044602060018060a09895981b03855416604051928380926395a8c58d60e01b8252336004830152600260248301525afa80156103ab5761055a9185916105f5575b50611ebe565b6001546001600160a01b031690813b156105f1578391869183896105966040519788968795869463e462dde560e01b8652339360048701611fc7565b03925af18015610146576105dc575b50506103597fa4a4ed86dce7c96c7821a45fbbe8394915281a2a2fa758ab0465b199c571abfb936040519384934291339086612025565b816105e6916115fd565b6105f157835f6105a5565b8380fd5b61060e915060203d6020116103a45761039681836115fd565b5f610554565b50346101515760a0366003190112610151576004356001600160401b038111610374576106459036906004016116b7565b61064d61174d565b826044356001600160401b0381116103745761066d903690600401611639565b926064356001600160401b0381116103b65761068d903690600401611d32565b6084356001600160401b0381116105f1576106ac90369060040161175d565b916044602060018060a01b03865416604051928380926395a8c58d60e01b82523360048301528960248301525afa8015610829576106f091869161037c575061240e565b60018060a01b03600154168151966020830151906040840198895194606060018060a01b039101511696843b156108255788968793604051998a98899788966364b409ff60e01b885260048801610100905261010488016107509161167f565b8781036003190160248901526107659161167f565b86810360031901604488015261077a9161167f565b90606486015260ff8d1660848601526003198582030160a486015261079e9161167f565b8381036003190160c48501526107b391611c42565b8281036003190160e48401526107c891611c6f565b03925af1801561014657610810575b50507ff52a0795d3c1a788d33423aa105be7a0aaa157621a984632251e0c2ed142d0409151906103596040519283924291339085611e89565b8161081a916115fd565b6103b657825f6107d7565b8880fd5b6040513d87823e3d90fd5b5034610151576020366003190112610151576004356001600160401b03811161037457610865903690600401611639565b61086d612203565b506108766121e3565b5061087f61224d565b50606060e0604051610890816115c6565b82815282602082015282604082015282808201528260808201528260a08201528260c0820152015260018060a01b036002541660405190637e8f8da760e01b8252602060048301528382806108e8602482018761167f565b0381845afa9081156103ab57848091819482946109e4575b509461092a9495604051808097819463be2e232560e01b835260206004840152602483019061167f565b03915afa928315610829578561095f96946109b6575b50506109a89061011f9394604051968796608088526080880190611bc6565b8681036020880152604060ff81610994610982875160608752606087019061167f565b6020880151868203602088015261167f565b950151169101528582036040870152611c6f565b908382036060850152611c99565b61011f94506109a892916109db913d8091833e6109d381836115fd565b810190612338565b93819250610940565b9450925050503d8085843e6109f981846115fd565b820191606081840312610378578481516001600160401b038111610374578201946060868603126103745760405195610a31876115ab565b80516001600160401b0381116105f15786610a4d918301611db0565b875260208101516001600160401b0381116105f15781610a7488604093610a7f9501611db0565b60208a01520161206a565b604087015260208301516001600160401b0381116103b65785610aa3918501612266565b926040810151906001600160401b0382116105f1570195610100878703126103b65760405196610ad2886115c6565b80516001600160401b0381116103785787610aee918301611db0565b885260208101516001600160401b0381116103785787610b0f918301611db0565b602089015260408101516001600160401b0381116103785787610b33918301611db0565b604089015260608101516001600160401b0381116103785787610b57918301611db0565b606089015260808101516001600160401b0381116103785787610b7b918301611db0565b608089015260a08101516001600160401b0381116103785787610b9f918301611db0565b60a089015260c08101516001600160401b0381116103785787610bc3918301611db0565b60c089015260e0810151966001600160401b0388116103785761092a97610bea9201611db0565b60e0880152929593909594610900565b5034610151576020366003190112610151576004356001600160401b03811161037457610c2b903690600401611639565b610c33612203565b50606080604051610c438161157c565b8181528160208201528460408201520152606060408051610c63816115ab565b8281528260208201520152610c7661224d565b5060015460405163070c056b60e41b81526020600482015291906001600160a01b0316838380610ca9602482018661167f565b0381845afa9081156103ab5784809381928294610db8575b610cea959650604051808097819463be2e232560e01b835260206004840152602483019061167f565b03915afa9283156108295785610d229694610d8e575b5050610d8090610d7261011f9495604051978897608089526080890190611bc6565b87810360208901526060610d54610d42845160808552608085019061167f565b6020850151848203602086015261167f565b9260ff6040820151166040840152015190606081840391015261167f565b908582036040870152611c42565b908382036060850152611c6f565b61011f9450610dae610d809392610d72923d8091833e6109d381836115fd565b9450819250610d00565b9350935050503d8085853e610dcd81856115fd565b830191606084840312610378578484516001600160401b038111610374578501916080838603126103745760405192610e058461157c565b80516001600160401b0381116105f15786610e21918301611db0565b845260208101516001600160401b0381116105f15786610e42918301611db0565b6020850152610e536040820161206a565b60408501526060810151906001600160401b0382116105f157610e7891879101611db0565b606084015260208601516001600160401b0381116103b6578601956060878703126103b65760405196610eaa886115ab565b80516001600160401b0381116103785787610ec6918301611db0565b885260208101516001600160401b0381116103785787610ee7918301611db0565b60208901526040810151906001600160401b03821161037857610f0c91889101611db0565b60408801526040810151956001600160401b0387116105f157610cea96610f339201612266565b92959293869550610cc1565b5034610151578060031936011261015157600154604051631614181f60e21b8152908290829060049082906001600160a01b03165afa908115610146578261011f939261012357505060405191829182611b3b565b503461015157602036600319011261015157600435816001600160401b03821161015157610fc96101b7923690600401611639565b60018060a01b036001541660405180809581946381fc60a560e01b835260206004840152602483019061167f565b503461015157611006366118ea565b83546040516395a8c58d60e01b81523360048201526002602482015292939290602090829060449082906001600160a01b03165afa8015610829576110519186916105f55750611ebe565b8360018060a01b036001541692805160208201948551906040840151916060850198895195608060018060a01b039101511694833b1561110f576110b08896928793604051998a9889978896630173c92160e71b885260048801611f15565b03925af18015610146576110fa575b50506103597fc8c9ccc57ad2f7823680b448dd87b511b225eb0ac2e99e0aa88e7a26ebc6cbe593519251926040519384934292339086611f81565b81611104916115fd565b6105f157835f6110bf565b8780fd5b5034610151578061112336611a0d565b9294916044602060018060a09895981b03855416604051928380926395a8c58d60e01b8252336004830152600260248301525afa80156103ab5761116d9185916105f55750611ebe565b6002546001600160a01b031690813b156105f15783918691838961059660405197889687958694621acf2560e81b8652339360048701611fc7565b5034610151576111b7366118ea565b83546040516395a8c58d60e01b81523360048201526002602482015292939290602090829060449082906001600160a01b03165afa8015610829576112029186916105f55750611ebe565b8360018060a01b036002541692805160208201948551906040840151916060850198895195608060018060a01b039101511694833b1561110f576110b08896928793604051998a98899788966315c9fbf960e11b885260048801611f15565b5034611468576080366003190112611468576004356001600160401b038111611468576112929036906004016116b7565b9061129b61174d565b6044356001600160401b038111611468576112ba90369060040161175d565b6064356001600160401b038111611468576112d99036906004016117b7565b5f546040516395a8c58d60e01b81523360048201526001602482015290602090829060449082906001600160a01b03165afa801561145d57611321915f916104e05750611e33565b60025485516020870151604088018051606090990151909891936001600160a01b0390811693911690833b15611468576113e15f966113cf889461139d9a6113af61138b986040519d8e9c8d9b8c9a63682053d960e01b8c5260e060048d015260e48c019061167f565b8a81036003190160248c01529061167f565b8881036003190160448a01529061167f565b91606487015260ff8d1660848701526003198683030160a4870152611c6f565b8381036003190160c485015290611c99565b03925af1801561145d57611429575b507ff52a0795d3c1a788d33423aa105be7a0aaa157621a984632251e0c2ed142d040919251906103596040519283924291339085611e89565b7ff52a0795d3c1a788d33423aa105be7a0aaa157621a984632251e0c2ed142d04092505f611456916115fd565b5f916113f0565b6040513d5f823e3d90fd5b5f80fd5b34611468576020366003190112611468576004356001600160401b038111611468575f6114a06114ce923690600401611639565b60018060a01b03600154166040518080958194636d1aa7d560e01b835260206004840152602483019061167f565b03915afa801561145d5761011f915f916114f8575b5060405191829160208352602083019061167f565b61151491503d805f833e61150c81836115fd565b810190611df6565b826114e3565b34611468576020366003190112611468576004356001600160401b038111611468575f61154e6114ce923690600401611639565b60018060a01b03600254166040518080958194636d1aa7d560e01b835260206004840152602483019061167f565b608081019081106001600160401b0382111761159757604052565b634e487b7160e01b5f52604160045260245ffd5b606081019081106001600160401b0382111761159757604052565b61010081019081106001600160401b0382111761159757604052565b604081019081106001600160401b0382111761159757604052565b90601f801991011681019081106001600160401b0382111761159757604052565b6001600160401b03811161159757601f01601f191660200190565b81601f82011215611468578035906116508261161e565b9261165e60405194856115fd565b8284526020838301011161146857815f926020809301838601378301015290565b805180835260209291819084018484015e5f828201840152601f01601f1916010190565b35906001600160a01b038216820361146857565b91909160808184031261146857604051906116d18261157c565b819381356001600160401b03811161146857816116ef918401611639565b835260208201356001600160401b0381116114685781611710918401611639565b60208401526040820135906001600160401b038211611468578261173d6060949261174894869401611639565b6040860152016116a3565b910152565b6024359060ff8216820361146857565b91906040838203126114685760405190611776826115e2565b819380356001600160401b0381116114685782611794918301611639565b83526020810135916001600160401b038311611468576020926117489201611639565b91906101008382031261146857604051906117d1826115c6565b819380356001600160401b03811161146857826117ef918301611639565b835260208101356001600160401b0381116114685782611810918301611639565b602084015260408101356001600160401b0381116114685782611834918301611639565b604084015260608101356001600160401b0381116114685782611858918301611639565b606084015260808101356001600160401b038111611468578261187c918301611639565b608084015260a08101356001600160401b03811161146857826118a0918301611639565b60a084015260c08101356001600160401b03811161146857826118c4918301611639565b60c084015260e0810135916001600160401b0383116114685760e0926117489201611639565b906060600319830112611468576004356001600160401b0381116114685760a08184036003190112611468576040519060a082018281106001600160401b038211176115975760405280600401356001600160401b0381116114685784600461195592840101611639565b825260248101356001600160401b0381116114685784600461197992840101611639565b602083015260448101356001600160401b038111611468578460046119a092840101611639565b604083015260648101356001600160401b03811161146857816119cd8660046084946119d8960101611639565b6060850152016116a3565b608082015291602435906001600160401b038211611468576119fc91600401611639565b9060443560ff811681036114685790565b9060a0600319830112611468576004356001600160401b0381116114685782611a3891600401611639565b916024356001600160401b0381116114685781611a5791600401611639565b916044356001600160401b0381116114685782611a7691600401611639565b91606435906001600160401b03821161146857611a9591600401611639565b9060843560ff811681036114685790565b60041115611ab057565b634e487b7160e01b5f52602160045260245ffd5b611b389160a0611b07611af5611ae3855160c0865260c086019061167f565b6020860151858203602087015261167f565b6040850151848203604086015261167f565b9260ff60608201511660608401526080810151611b2381611aa6565b608084015201519060a081840391015261167f565b90565b602081016020825282518091526040820191602060408360051b8301019401925f915b838310611b6d57505050505090565b9091929394602080611b8b600193603f198682030187528951611ac4565b97019301930191939290611b5e565b906040611bb3610d42845160608552606085019061167f565b928101516001600160a01b031691015290565b611b38918151611bd581611aa6565b81526020820151602082015260408201516040820152606082015160608201526080820151608082015260e0611c31611c1f60a085015161010060a0860152610100850190611b9a565b60c085015184820360c0860152611b9a565b9201519060e081840391015261167f565b611b38916040611c5e610d42845160608552606085019061167f565b92015190604081840391015261167f565b611b38916020611c88835160408452604084019061167f565b92015190602081840391015261167f565b611b389160e0611c31611d20611d0e611cfc611cea611cd8611cc689516101008a526101008a019061167f565b60208a015189820360208b015261167f565b604089015188820360408a015261167f565b6060880151878203606089015261167f565b6080870151868203608088015261167f565b60a086015185820360a087015261167f565b60c085015184820360c086015261167f565b91906060838203126114685760405190611d4b826115ab565b819380356001600160401b0381116114685782611d69918301611639565b835260208101356001600160401b0381116114685782611d8a918301611639565b60208401526040810135916001600160401b038311611468576040926117489201611639565b81601f8201121561146857805190611dc78261161e565b92611dd560405194856115fd565b8284526020838301011161146857815f9260208093018386015e8301015290565b906020828203126114685781516001600160401b03811161146857611b389201611db0565b90816020910312611468575180151581036114685790565b15611e3a57565b60405162461bcd60e51b815260206004820152602160248201527f4f6e6c79205042462063616e20646f2074686973207472616e73616374696f6e6044820152602160f81b6064820152608490fd5b90606092959493611ea460ff9260808552608085019061167f565b6001600160a01b0390971660208401521660408201520152565b15611ec557565b60405162461bcd60e51b815260206004820152602260248201527f4f6e6c792042504f4d2063616e20646f2074686973207472616e73616374696f6044820152616e2160f01b6064820152608490fd5b92611f5490611f46611f6294611f38611b389a989560c0895260c089019061167f565b90878203602089015261167f565b90858203604087015261167f565b90838203606085015261167f565b6001600160a01b03909316608082015280830360a0919091015261167f565b95949360ff608094611f9f611fc2959460a08b5260a08b019061167f565b6001600160a01b0390941660208a0152166040880152868203606088015261167f565b930152565b9390608093611ff961201594611feb612007949a999a60a08a5260a08a019061167f565b9088820360208a015261167f565b90868203604088015261167f565b90848203606086015261167f565b6001600160a01b03909416910152565b919390611b38959361204160ff9260a0865260a086019061167f565b6001600160a01b039096166020850152166040830152606082015280830360809091015261167f565b519060ff8216820361146857565b602081830312611468578051906001600160401b03821161146857019080601f83011215611468576020825192016001600160401b038311611597578260051b60208101936120ca60405195866115fd565b845260208401908201918383116114685780915b8383106120ed57505050505090565b82516001600160401b03811161146857820160c081870312611468576040519160c083018381106001600160401b038211176115975760405281516001600160401b0381116114685787612142918401611db0565b835260208201516001600160401b0381116114685787612163918401611db0565b602084015260408201516001600160401b0381116114685787612187918401611db0565b60408401526121986060830161206a565b60608401526080820151600481101561146857608084015260a0820151926001600160401b038411611468576121d388602095869501611db0565b60a08201528152019201916120de565b604051906121f0826115ab565b5f60408360608152606060208201520152565b60405190612210826115c6565b606060e0835f81525f60208201525f60408201525f838201525f60808201526122376121e3565b60a08201526122446121e3565b60c08201520152565b6040519061225a826115e2565b60606020838281520152565b9190604083820312611468576040519061227f826115e2565b819380516001600160401b038111611468578261229d918301611db0565b83526020810151916001600160401b038311611468576020926117489201611db0565b919060608382031261146857604051906122d9826115ab565b819380516001600160401b03811161146857826122f7918301611db0565b835260208101516001600160401b0381116114685760409261231a918301611db0565b60208401520151906001600160a01b03821682036114685760400152565b602081830312611468578051906001600160401b038211611468570161010081830312611468576040519161236c836115c6565b815160048110156114685783526020820151602084015260408201516040840152606082015160608401526080820151608084015260a08201516001600160401b03811161146857816123c09184016122c0565b60a084015260c08201516001600160401b03811161146857816123e49184016122c0565b60c084015260e08201516001600160401b038111611468576124069201611db0565b60e082015290565b1561241557565b60405162461bcd60e51b815260206004820152602560248201527f4f6e6c7920466163746f72792063616e20646f2074686973207472616e73616360448201526474696f6e2160d81b6064820152608490fd5b6124806040929594939560608352606083019061167f565b6001600160a01b039095166020820152015256fea264697066735822122044624a2a0254beef9a28160de312fedc53ec124c3b89f46854cd3cc0ff1a30ad64736f6c634300081b0033",
  "linkReferences": {},
  "deployedLinkReferences": {}
}