{
  "_format": "hh-sol-artifact-1",
  "contractName": "NieManager",
  "sourceName": "contracts/NieManager.sol",
  "abi": [
    {
      "inputs": [
        {
          "internalType": "address",
          "name": "roleManagerAddr",
          "type": "address"
        }
      ],
      "stateMutability": "nonpayable",
      "type": "constructor"
    },
    {
      "anonymous": false,
      "inputs": [
        {
          "indexed": false,
          "internalType": "string",
          "name": "bpomInstance",
          "type": "string"
        },
        {
          "indexed": false,
          "internalType": "address",
          "name": "bpomAddr",
          "type": "address"
        },
        {
          "indexed": false,
          "internalType": "string",
          "name": "nieNumber",
          "type": "string"
        },
        {
          "indexed": false,
          "internalType": "uint256",
          "name": "tiemstamp",
          "type": "uint256"
        }
      ],
      "name": "NieApproved",
      "type": "event"
    },
    {
      "anonymous": false,
      "inputs": [
        {
          "indexed": false,
          "internalType": "address",
          "name": "factoryAddr",
          "type": "address"
        },
        {
          "indexed": false,
          "internalType": "string",
          "name": "nieNumber",
          "type": "string"
        },
        {
          "indexed": false,
          "internalType": "uint256",
          "name": "timestamp",
          "type": "uint256"
        }
      ],
      "name": "NieApprovedExtendRequest",
      "type": "event"
    },
    {
      "anonymous": false,
      "inputs": [
        {
          "indexed": false,
          "internalType": "address",
          "name": "factoryAddr",
          "type": "address"
        },
        {
          "indexed": false,
          "internalType": "string",
          "name": "nieNumber",
          "type": "string"
        },
        {
          "indexed": false,
          "internalType": "uint256",
          "name": "timestamp",
          "type": "uint256"
        }
      ],
      "name": "NieExtendRequest",
      "type": "event"
    },
    {
      "anonymous": false,
      "inputs": [
        {
          "indexed": false,
          "internalType": "string",
          "name": "bpomInstance",
          "type": "string"
        },
        {
          "indexed": false,
          "internalType": "address",
          "name": "bpomAddr",
          "type": "address"
        },
        {
          "indexed": false,
          "internalType": "string",
          "name": "rejectMsg",
          "type": "string"
        },
        {
          "indexed": false,
          "internalType": "uint256",
          "name": "tiemstamp",
          "type": "uint256"
        }
      ],
      "name": "NieRejected",
      "type": "event"
    },
    {
      "anonymous": false,
      "inputs": [
        {
          "indexed": false,
          "internalType": "string",
          "name": "factoryInstance",
          "type": "string"
        },
        {
          "indexed": false,
          "internalType": "address",
          "name": "factoryAddr",
          "type": "address"
        },
        {
          "indexed": false,
          "internalType": "uint256",
          "name": "timestamp",
          "type": "uint256"
        }
      ],
      "name": "NieRenewRequest",
      "type": "event"
    },
    {
      "anonymous": false,
      "inputs": [
        {
          "indexed": false,
          "internalType": "string",
          "name": "factoryInstance",
          "type": "string"
        },
        {
          "indexed": false,
          "internalType": "address",
          "name": "factoryAddr",
          "type": "address"
        },
        {
          "indexed": false,
          "internalType": "uint256",
          "name": "timestamp",
          "type": "uint256"
        }
      ],
      "name": "NieRequested",
      "type": "event"
    },
    {
      "inputs": [
        {
          "internalType": "string",
          "name": "obatId",
          "type": "string"
        },
        {
          "internalType": "uint256",
          "name": "expiredTimestamp",
          "type": "uint256"
        }
      ],
      "name": "approveExtendRequest",
      "outputs": [],
      "stateMutability": "nonpayable",
      "type": "function"
    },
    {
      "inputs": [
        {
          "internalType": "string",
          "name": "obatId",
          "type": "string"
        },
        {
          "internalType": "string",
          "name": "nieNumber",
          "type": "string"
        },
        {
          "internalType": "string",
          "name": "bpomInstance",
          "type": "string"
        }
      ],
      "name": "approveNie",
      "outputs": [],
      "stateMutability": "nonpayable",
      "type": "function"
    },
    {
      "inputs": [
        {
          "internalType": "string",
          "name": "obatId",
          "type": "string"
        },
        {
          "internalType": "string",
          "name": "factoryInstance",
          "type": "string"
        }
      ],
      "name": "createObatNie",
      "outputs": [],
      "stateMutability": "nonpayable",
      "type": "function"
    },
    {
      "inputs": [
        {
          "internalType": "string",
          "name": "",
          "type": "string"
        }
      ],
      "name": "dokuObatById",
      "outputs": [
        {
          "internalType": "string",
          "name": "masterFormula",
          "type": "string"
        },
        {
          "internalType": "string",
          "name": "suratKuasa",
          "type": "string"
        },
        {
          "internalType": "string",
          "name": "suratPernyataan",
          "type": "string"
        },
        {
          "internalType": "string",
          "name": "komposisiProduk",
          "type": "string"
        },
        {
          "internalType": "string",
          "name": "caraPembuatanProduk",
          "type": "string"
        },
        {
          "internalType": "string",
          "name": "spesifikasiKemasan",
          "type": "string"
        },
        {
          "internalType": "string",
          "name": "hasilUjiStabilitas",
          "type": "string"
        }
      ],
      "stateMutability": "view",
      "type": "function"
    },
    {
      "inputs": [
        {
          "internalType": "string",
          "name": "",
          "type": "string"
        }
      ],
      "name": "dokuPendukungById",
      "outputs": [
        {
          "internalType": "string",
          "name": "sertifikatAnalisaBahanBaku",
          "type": "string"
        },
        {
          "internalType": "string",
          "name": "sertifikatAnalisaProdukJadi",
          "type": "string"
        },
        {
          "internalType": "string",
          "name": "spesifikasiProdukJadi",
          "type": "string"
        },
        {
          "internalType": "string",
          "name": "sistemPenomoranBets",
          "type": "string"
        },
        {
          "internalType": "string",
          "name": "desainKemasan",
          "type": "string"
        },
        {
          "internalType": "string",
          "name": "dataPendukungKeamanan",
          "type": "string"
        }
      ],
      "stateMutability": "view",
      "type": "function"
    },
    {
      "inputs": [
        {
          "internalType": "string",
          "name": "obatId",
          "type": "string"
        },
        {
          "internalType": "uint256",
          "name": "expiredTimestamp",
          "type": "uint256"
        }
      ],
      "name": "extendRequestNie",
      "outputs": [],
      "stateMutability": "nonpayable",
      "type": "function"
    },
    {
      "inputs": [
        {
          "internalType": "string",
          "name": "obatId",
          "type": "string"
        }
      ],
      "name": "getNieDetail",
      "outputs": [
        {
          "components": [
            {
              "internalType": "string",
              "name": "nieNumber",
              "type": "string"
            },
            {
              "internalType": "enum EnumsLibrary.NieStatus",
              "name": "nieStatus",
              "type": "uint8"
            },
            {
              "internalType": "uint256",
              "name": "timestampProduction",
              "type": "uint256"
            },
            {
              "internalType": "uint256",
              "name": "timestampNieRequest",
              "type": "uint256"
            },
            {
              "internalType": "uint256",
              "name": "timestampNieApprove",
              "type": "uint256"
            },
            {
              "internalType": "uint256",
              "name": "timestampNieRejected",
              "type": "uint256"
            },
            {
              "internalType": "uint256",
              "name": "timestampNieRenewRequest",
              "type": "uint256"
            },
            {
              "internalType": "uint256",
              "name": "timestampNieExpired",
              "type": "uint256"
            },
            {
              "internalType": "uint256",
              "name": "timestampNieExtendRequest",
              "type": "uint256"
            },
            {
              "internalType": "string",
              "name": "factoryInstance",
              "type": "string"
            },
            {
              "internalType": "string",
              "name": "bpomInstance",
              "type": "string"
            },
            {
              "internalType": "address",
              "name": "bpomAddr",
              "type": "address"
            }
          ],
          "internalType": "struct NieManager.NieDetail",
          "name": "",
          "type": "tuple"
        },
        {
          "components": [
            {
              "internalType": "string",
              "name": "masterFormula",
              "type": "string"
            },
            {
              "internalType": "string",
              "name": "suratKuasa",
              "type": "string"
            },
            {
              "internalType": "string",
              "name": "suratPernyataan",
              "type": "string"
            },
            {
              "internalType": "string",
              "name": "komposisiProduk",
              "type": "string"
            },
            {
              "internalType": "string",
              "name": "caraPembuatanProduk",
              "type": "string"
            },
            {
              "internalType": "string",
              "name": "spesifikasiKemasan",
              "type": "string"
            },
            {
              "internalType": "string",
              "name": "hasilUjiStabilitas",
              "type": "string"
            }
          ],
          "internalType": "struct NieManager.DokumenObat",
          "name": "",
          "type": "tuple"
        },
        {
          "components": [
            {
              "internalType": "string",
              "name": "sertifikatAnalisaBahanBaku",
              "type": "string"
            },
            {
              "internalType": "string",
              "name": "sertifikatAnalisaProdukJadi",
              "type": "string"
            },
            {
              "internalType": "string",
              "name": "spesifikasiProdukJadi",
              "type": "string"
            },
            {
              "internalType": "string",
              "name": "sistemPenomoranBets",
              "type": "string"
            },
            {
              "internalType": "string",
              "name": "desainKemasan",
              "type": "string"
            },
            {
              "internalType": "string",
              "name": "dataPendukungKeamanan",
              "type": "string"
            }
          ],
          "internalType": "struct NieManager.DokumenPendukung",
          "name": "",
          "type": "tuple"
        }
      ],
      "stateMutability": "view",
      "type": "function"
    },
    {
      "inputs": [
        {
          "internalType": "string",
          "name": "obatId",
          "type": "string"
        }
      ],
      "name": "getNieNumberAndStatus",
      "outputs": [
        {
          "internalType": "string",
          "name": "",
          "type": "string"
        },
        {
          "internalType": "uint8",
          "name": "",
          "type": "uint8"
        }
      ],
      "stateMutability": "view",
      "type": "function"
    },
    {
      "inputs": [
        {
          "internalType": "string",
          "name": "obatId",
          "type": "string"
        }
      ],
      "name": "getRejectMsgNie",
      "outputs": [
        {
          "internalType": "string",
          "name": "",
          "type": "string"
        }
      ],
      "stateMutability": "view",
      "type": "function"
    },
    {
      "inputs": [
        {
          "internalType": "string",
          "name": "",
          "type": "string"
        }
      ],
      "name": "nieDetailById",
      "outputs": [
        {
          "internalType": "string",
          "name": "nieNumber",
          "type": "string"
        },
        {
          "internalType": "enum EnumsLibrary.NieStatus",
          "name": "nieStatus",
          "type": "uint8"
        },
        {
          "internalType": "uint256",
          "name": "timestampProduction",
          "type": "uint256"
        },
        {
          "internalType": "uint256",
          "name": "timestampNieRequest",
          "type": "uint256"
        },
        {
          "internalType": "uint256",
          "name": "timestampNieApprove",
          "type": "uint256"
        },
        {
          "internalType": "uint256",
          "name": "timestampNieRejected",
          "type": "uint256"
        },
        {
          "internalType": "uint256",
          "name": "timestampNieRenewRequest",
          "type": "uint256"
        },
        {
          "internalType": "uint256",
          "name": "timestampNieExpired",
          "type": "uint256"
        },
        {
          "internalType": "uint256",
          "name": "timestampNieExtendRequest",
          "type": "uint256"
        },
        {
          "internalType": "string",
          "name": "factoryInstance",
          "type": "string"
        },
        {
          "internalType": "string",
          "name": "bpomInstance",
          "type": "string"
        },
        {
          "internalType": "address",
          "name": "bpomAddr",
          "type": "address"
        }
      ],
      "stateMutability": "view",
      "type": "function"
    },
    {
      "inputs": [
        {
          "internalType": "string",
          "name": "",
          "type": "string"
        }
      ],
      "name": "rejectMsgById",
      "outputs": [
        {
          "internalType": "string",
          "name": "",
          "type": "string"
        }
      ],
      "stateMutability": "view",
      "type": "function"
    },
    {
      "inputs": [
        {
          "internalType": "string",
          "name": "obatId",
          "type": "string"
        },
        {
          "internalType": "string",
          "name": "bpomInstance",
          "type": "string"
        },
        {
          "internalType": "string",
          "name": "rejectMsg",
          "type": "string"
        }
      ],
      "name": "rejectNie",
      "outputs": [],
      "stateMutability": "nonpayable",
      "type": "function"
    },
    {
      "inputs": [
        {
          "internalType": "string",
          "name": "obatId",
          "type": "string"
        },
        {
          "components": [
            {
              "internalType": "string",
              "name": "masterFormula",
              "type": "string"
            },
            {
              "internalType": "string",
              "name": "suratKuasa",
              "type": "string"
            },
            {
              "internalType": "string",
              "name": "suratPernyataan",
              "type": "string"
            },
            {
              "internalType": "string",
              "name": "komposisiProduk",
              "type": "string"
            },
            {
              "internalType": "string",
              "name": "caraPembuatanProduk",
              "type": "string"
            },
            {
              "internalType": "string",
              "name": "spesifikasiKemasan",
              "type": "string"
            },
            {
              "internalType": "string",
              "name": "hasilUjiStabilitas",
              "type": "string"
            }
          ],
          "internalType": "struct NieManager.DokumenObat",
          "name": "dokuObat",
          "type": "tuple"
        },
        {
          "components": [
            {
              "internalType": "string",
              "name": "sertifikatAnalisaBahanBaku",
              "type": "string"
            },
            {
              "internalType": "string",
              "name": "sertifikatAnalisaProdukJadi",
              "type": "string"
            },
            {
              "internalType": "string",
              "name": "spesifikasiProdukJadi",
              "type": "string"
            },
            {
              "internalType": "string",
              "name": "sistemPenomoranBets",
              "type": "string"
            },
            {
              "internalType": "string",
              "name": "desainKemasan",
              "type": "string"
            },
            {
              "internalType": "string",
              "name": "dataPendukungKeamanan",
              "type": "string"
            }
          ],
          "internalType": "struct NieManager.DokumenPendukung",
          "name": "dokuPendukung",
          "type": "tuple"
        }
      ],
      "name": "renewRequestNie",
      "outputs": [],
      "stateMutability": "nonpayable",
      "type": "function"
    },
    {
      "inputs": [
        {
          "internalType": "string",
          "name": "obatId",
          "type": "string"
        },
        {
          "components": [
            {
              "internalType": "string",
              "name": "masterFormula",
              "type": "string"
            },
            {
              "internalType": "string",
              "name": "suratKuasa",
              "type": "string"
            },
            {
              "internalType": "string",
              "name": "suratPernyataan",
              "type": "string"
            },
            {
              "internalType": "string",
              "name": "komposisiProduk",
              "type": "string"
            },
            {
              "internalType": "string",
              "name": "caraPembuatanProduk",
              "type": "string"
            },
            {
              "internalType": "string",
              "name": "spesifikasiKemasan",
              "type": "string"
            },
            {
              "internalType": "string",
              "name": "hasilUjiStabilitas",
              "type": "string"
            }
          ],
          "internalType": "struct NieManager.DokumenObat",
          "name": "dokuObat",
          "type": "tuple"
        },
        {
          "components": [
            {
              "internalType": "string",
              "name": "sertifikatAnalisaBahanBaku",
              "type": "string"
            },
            {
              "internalType": "string",
              "name": "sertifikatAnalisaProdukJadi",
              "type": "string"
            },
            {
              "internalType": "string",
              "name": "spesifikasiProdukJadi",
              "type": "string"
            },
            {
              "internalType": "string",
              "name": "sistemPenomoranBets",
              "type": "string"
            },
            {
              "internalType": "string",
              "name": "desainKemasan",
              "type": "string"
            },
            {
              "internalType": "string",
              "name": "dataPendukungKeamanan",
              "type": "string"
            }
          ],
          "internalType": "struct NieManager.DokumenPendukung",
          "name": "dokuPendukung",
          "type": "tuple"
        }
      ],
      "name": "requestNie",
      "outputs": [],
      "stateMutability": "nonpayable",
      "type": "function"
    },
    {
      "inputs": [],
      "name": "roleManager",
      "outputs": [
        {
          "internalType": "contract RoleManager",
          "name": "",
          "type": "address"
        }
      ],
      "stateMutability": "view",
      "type": "function"
    }
  ],
  "bytecode": "0x60a03461009657601f613ae438819003918201601f19168301916001600160401b0383118484101761009a5780849260209460405283398101031261009657516001600160a01b0381169081900361009657608052604051613a3590816100af8239608051818181610228015281816105780152818161137701528181611f7b015281816123c7015281816124c401526132a90152f35b5f80fd5b634e487b7160e01b5f52604160045260245ffdfe6080806040526004361015610012575f80fd5b5f3560e01c908162435da51461329757508063108cbe611461248a57806319525e661461238e5780632594d59714612272578063283ef6f014611f4057806343d1b83914611a9057806359914db41461199057806374a5abcf146118f5578063ac007c1a146114af578063bdedf0b814611441578063bf3f80ac14611441578063d944ff791461133f578063e509070a1461053e578063f21dea86146101eb5763f71ce722146100c0575f80fd5b346101e75760203660031901126101e7576004356001600160401b0381116101e7576100f090369060040161334b565b604051818192516020819201835e81015f815203602001902061011281613684565b600182015460ff16600283015492600381015491600482015490600583015460068401546007850154906008860154926009870161014f90613684565b9561015c600a8901613684565b97600160a01b6001900390600b015416986040519b8c9b6101808d526101808d0161018691613724565b9760208d01610194916137b3565b60408c015260608b015260808a015260a089015260c088015260e08701526101008601528481036101208601526101ca91613724565b8381036101408501526101dc91613724565b906101608301520390f35b5f80fd5b346101e7576101f936613748565b6040516395a8c58d60e01b81523360048201526002602482015291929091906020826044816001600160a01b037f0000000000000000000000000000000000000000000000000000000000000000165afa908115610533576102676020939284935f91610506575b50613924565b604051928184925191829101835e81015f8152030190209180516001600160401b03811161045757610299845461364c565b601f81116104d6575b506020601f82116001146104765790806102d0925f9161046b575b508160011b915f199060031b1c19161790565b83555b60018301600260ff19825416179055426004840155600a830182516001600160401b03811161045757610306825461364c565b601f811161041c575b506020601f82116001146103bc57908061033c925f916103b157508160011b915f199060031b1c19161790565b90555b600b830180546001600160a01b031916331790554260be810190811061039d5760077f98f6eda79ce4c4856715a86ecdf2cb7ece1a5de8adf3de249b2ce9017b0e581094015561039860405192839242913390856139c6565b0390a1005b634e487b7160e01b5f52601160045260245ffd5b9050850151876102bd565b601f19821690835f52805f20915f5b818110610404575090836001949392106103ec575b5050811b01905561033f565b8601515f1960f88460031b161c1916905586806103e0565b9192602060018192868b0151815501940192016103cb565b61044790835f5260205f20601f840160051c8101916020851061044d575b601f0160051c0190613813565b8561030f565b909150819061043a565b634e487b7160e01b5f52604160045260245ffd5b9050830151866102bd565b601f19821690855f52805f20915f5b8181106104be575090836001949392106104a6575b5050811b0183556102d3565b8401515f1960f88460031b161c19169055858061049a565b91926020600181928689015181550194019201610485565b61050090855f5260205f20601f840160051c8101916020851061044d57601f0160051c0190613813565b846102a2565b6105269150843d861161052c575b61051e818361332a565b8101906137c0565b87610261565b503d610514565b6040513d5f823e3d90fd5b346101e75761054c366133a0565b6040516395a8c58d60e01b81523360048201525f60248201529092906020816044816001600160a01b037f0000000000000000000000000000000000000000000000000000000000000000165afa8015610533576105b1915f91611320575b506137d8565b604051916001825193602081818601968088835e81015f81520301902001600160ff19825416179055604051600383518086845e8201915f8352602081429403019020015560405160208184518087835e8101600281520301902081518051906001600160401b03821161045757610629835461364c565b601f81116112f0575b50602090601f831160011461128d5761066292915f9183610c9d575b50508160011b915f199060031b1c19161790565b81555b6001810160208301518051906001600160401b03821161045757610689835461364c565b601f811161125d575b50602090601f83116001146111fa576106c192915f91836110365750508160011b915f199060031b1c19161790565b90555b6002810160408301518051906001600160401b038211610457576106e8835461364c565b601f81116111ca575b50602090601f83116001146111675761072092915f91836110365750508160011b915f199060031b1c19161790565b90555b6003810160608301518051906001600160401b03821161045757610747835461364c565b601f8111611137575b50602090601f83116001146110d45761077f92915f91836110365750508160011b915f199060031b1c19161790565b90555b6004810160808301518051906001600160401b038211610457576107a6835461364c565b601f81116110a4575b50602090601f8311600114611041576107de92915f91836110365750508160011b915f199060031b1c19161790565b90555b6005810160a08301518051906001600160401b03821161045757610805835461364c565b601f8111611006575b50602090601f8311600114610f9d578260c0959360069593610844935f92610f925750508160011b915f199060031b1c19161790565b90555b019101518051906001600160401b03821161045757610866835461364c565b601f8111610f62575b50602090601f8311600114610eff5761089e92915f9183610e615750508160011b915f199060031b1c19161790565b90555b60405160208183518086835e8101600381520301902083518051906001600160401b038211610457576108d4835461364c565b601f8111610ecf575b50602090601f8311600114610e6c5761090c92915f9183610e615750508160011b915f199060031b1c19161790565b81555b6001810160208501518051906001600160401b03821161045757610933835461364c565b601f8111610e31575b50602090601f8311600114610dce5761096b92915f9183610c9d5750508160011b915f199060031b1c19161790565b90555b6002810160408501518051906001600160401b03821161045757610992835461364c565b601f8111610d9e575b50602090601f8311600114610d3b576109ca92915f9183610c9d5750508160011b915f199060031b1c19161790565b90555b6003810160608501518051906001600160401b038211610457576109f1835461364c565b601f8111610d0b575b50602090601f8311600114610ca857610a2992915f9183610c9d5750508160011b915f199060031b1c19161790565b90555b6004810160808501518051906001600160401b03821161045757610a50835461364c565b601f8111610c6d575b50602090601f8311600114610c04578260a0959360059593610a8f935f92610b3c5750508160011b915f199060031b1c19161790565b90555b019301519283516001600160401b03811161045757610ab1825461364c565b601f8111610bd4575b506020601f8211600114610b4757926103989492610b14836020946009977f351ab5a48b432d9a1035e20940d903771dcfec712ffe00601bad0ea1f4260f889a5f92610b3c5750508160011b915f199060031b1c19161790565b90555b604051928391518091835e81015f8152030190200160405191829142903390846138f8565b015190508a8061064e565b601f19821695835f52815f20965f5b818110610bbc5750837f351ab5a48b432d9a1035e20940d903771dcfec712ffe00601bad0ea1f4260f88986009979461039899979460209760019510610ba4575b505050811b019055610b17565b01515f1960f88460031b161c19169055898080610b97565b83830151895560019098019760209384019301610b56565b610bfe90835f5260205f20601f840160051c8101916020851061044d57601f0160051c0190613813565b85610aba565b90601f19831691845f52815f20925f5b818110610c55575092600192859260a098966005989610610c3d575b505050811b019055610a92565b01515f1960f88460031b161c19169055898080610c30565b92936020600181928786015181550195019301610c14565b610c9790845f5260205f20601f850160051c8101916020861061044d57601f0160051c0190613813565b87610a59565b01519050888061064e565b90601f19831691845f52815f20925f5b818110610cf35750908460019594939210610cdb575b505050811b019055610a2c565b01515f1960f88460031b161c19169055878080610cce565b92936020600181928786015181550195019301610cb8565b610d3590845f5260205f20601f850160051c8101916020861061044d57601f0160051c0190613813565b876109fa565b90601f19831691845f52815f20925f5b818110610d865750908460019594939210610d6e575b505050811b0190556109cd565b01515f1960f88460031b161c19169055878080610d61565b92936020600181928786015181550195019301610d4b565b610dc890845f5260205f20601f850160051c8101916020861061044d57601f0160051c0190613813565b8761099b565b90601f19831691845f52815f20925f5b818110610e195750908460019594939210610e01575b505050811b01905561096e565b01515f1960f88460031b161c19169055878080610df4565b92936020600181928786015181550195019301610dde565b610e5b90845f5260205f20601f850160051c8101916020861061044d57601f0160051c0190613813565b8761093c565b01519050878061064e565b90601f19831691845f52815f20925f5b818110610eb75750908460019594939210610e9f575b505050811b01815561090f565b01515f1960f88460031b161c19169055868080610e92565b92936020600181928786015181550195019301610e7c565b610ef990845f5260205f20601f850160051c8101916020861061044d57601f0160051c0190613813565b866108dd565b90601f19831691845f52815f20925f5b818110610f4a5750908460019594939210610f32575b505050811b0190556108a1565b01515f1960f88460031b161c19169055868080610f25565b92936020600181928786015181550195019301610f0f565b610f8c90845f5260205f20601f850160051c8101916020861061044d57601f0160051c0190613813565b8661086f565b015190508b8061064e565b90601f19831691845f52815f20925f5b818110610fee575092600192859260c098966006989610610fd6575b505050811b019055610847565b01515f1960f88460031b161c191690558a8080610fc9565b92936020600181928786015181550195019301610fad565b61103090845f5260205f20601f850160051c8101916020861061044d57601f0160051c0190613813565b8861080e565b01519050898061064e565b90601f19831691845f52815f20925f5b81811061108c5750908460019594939210611074575b505050811b0190556107e1565b01515f1960f88460031b161c19169055888080611067565b92936020600181928786015181550195019301611051565b6110ce90845f5260205f20601f850160051c8101916020861061044d57601f0160051c0190613813565b886107af565b90601f19831691845f52815f20925f5b81811061111f5750908460019594939210611107575b505050811b019055610782565b01515f1960f88460031b161c191690558880806110fa565b929360206001819287860151815501950193016110e4565b61116190845f5260205f20601f850160051c8101916020861061044d57601f0160051c0190613813565b88610750565b90601f19831691845f52815f20925f5b8181106111b2575090846001959493921061119a575b505050811b019055610723565b01515f1960f88460031b161c1916905588808061118d565b92936020600181928786015181550195019301611177565b6111f490845f5260205f20601f850160051c8101916020861061044d57601f0160051c0190613813565b886106f1565b90601f19831691845f52815f20925f5b818110611245575090846001959493921061122d575b505050811b0190556106c4565b01515f1960f88460031b161c19169055888080611220565b9293602060018192878601518155019501930161120a565b61128790845f5260205f20601f850160051c8101916020861061044d57601f0160051c0190613813565b88610692565b90601f19831691845f52815f20925f5b8181106112d857509084600195949392106112c0575b505050811b018155610665565b01515f1960f88460031b161c191690558780806112b3565b9293602060018192878601518155019501930161129d565b61131a90845f5260205f20601f850160051c8101916020861061044d57601f0160051c0190613813565b87610632565b611339915060203d60201161052c5761051e818361332a565b856105ab565b346101e75761134d3661361b565b6040516395a8c58d60e01b81523360048201525f6024820152906020826044816001600160a01b037f0000000000000000000000000000000000000000000000000000000000000000165afa918215610533576113bb926113b4915f9161132057506137d8565b421161395c565b604051815190602081818501938085835e81015f8152030190209060018201600660ff1982541617905560be42019182421161039d577f01cf95093010b490db14033b55896b7cdd44fadeb3aa3f7a7b9c779d5bce5304936103989360086020930155604051928391518091835e81015f8152030190206040519182914290338461399c565b346101e75760203660031901126101e7576004356001600160401b0381116101e75761149760208061147a6114ab94369060040161334b565b604051928184925191829101835e81016001815203019020613684565b604051918291602083526020830190613724565b0390f35b346101e75760403660031901126101e7576004356001600160401b0381116101e7576114df90369060040161334b565b6024356001600160401b0381116101e7576114fe90369060040161334b565b5f806040519261150d846132d8565b8360209560405161151e888261332a565b84815282528682018481526040830142815260608401868152608085019087825260a086019288845260c08701948986528c8060e08a01988c8a526101606101008c019b8e8d5261012081019d8e526040519e8f61157c868261332a565b5261014081019e8f52019d8e52604051928184925191829101835e81015f8152030190209b5180516001600160401b038111610457578e8e926115bf845461364c565b601f81116118c7575b5081601f841160011461186357506115f793505f9190836118585750508160011b915f199060031b1c19161790565b8c555b60018c01905160088110156118445760ff801983541691161790555160028b01555160038a01555160048901555160058801555160068701555160078601555160088501556009840190518051906001600160401b03821161045757611660835461364c565b601f8111611816575b508690601f83116001146117b35761169792915f9183610c9d5750508160011b915f199060031b1c19161790565b90555b600a83019051938451906001600160401b038211610457576116bc835461364c565b601f8111611785575b5080601f831160011461171d575090806116f792600b96975f92610e615750508160011b915f199060031b1c19161790565b90555b51910180546001600160a01b0319166001600160a01b0392909216919091179055005b90601f19831696845f52825f20925f905b89821061176d57505090839291600194600b989910611755575b505050811b0190556116fa565b01515f1960f88460031b161c19169055868080611748565b8060018596829496860151815501950193019061172e565b6117ad90845f52825f20601f850160051c81019184861061044d57601f0160051c0190613813565b866116c5565b90601f19831691845f52885f20925f5b8a8282106118005750509084600195949392106117e8575b505050811b01905561169a565b01515f1960f88460031b161c191690558780806117db565b60018596829396860151815501950193016117c3565b61183e90845f52885f20601f850160051c8101918a861061044d57601f0160051c0190613813565b87611669565b634e487b7160e01b5f52602160045260245ffd5b015190505f8061064e565b5f9485528085209394601f198616915b8282106118af575050908460019594939210611897575b505050811b018c556115fa565b01515f1960f88460031b161c191690558f808061188a565b80600186978294978701518155019601940190611873565b6118ef90855f52835f20601f860160051c81019185871061044d57601f0160051c0190613813565b5f6115c8565b346101e75760203660031901126101e7576004356001600160401b0381116101e75761192590369060040161334b565b60ff600160405160208451918181818801948086835e81015f81520301902094604051928391518091835e81015f81520301902001541660088110156118445761197161198692613684565b90604051928392604084526040840190613724565b9060208301520390f35b346101e75760203660031901126101e7576004356001600160401b0381116101e7576020806119c6611a4a93369060040161334b565b604051928184925191829101835e810160038152030190206114ab6119ea82613684565b91611a826119fa60018301613684565b91611a74611a0a60028301613684565b611a66611a1960038501613684565b91611a58611a356005611a2e60048901613684565b9701613684565b976040519b8c9b60c08d5260c08d0190613724565b908b820360208d0152613724565b9089820360408b0152613724565b908782036060890152613724565b908582036080870152613724565b9083820360a0850152613724565b346101e75760203660031901126101e7576004356001600160401b0381116101e757611ac090369060040161334b565b5f610160604051611ad0816132d8565b606081528260208201528260408201528260608201528260808201528260a08201528260c08201528260e082015282610100820152606061012082015260606101408201520152606060c0604051611b27816132f4565b82815282602082015282604082015282808201528260808201528260a08201520152606060a0604051611b598161330f565b82815282602082015282604082015282808201528260808201520152604051815190602081818501938085835e81015f815203019020906020604051818186518086835e8101600281520301902093604051928391518091835e810160038152030190209060405191611bcb836132d8565b611bd482613684565b835260ff600183015416916008831015611844576114ab926020850152600281015460408501526003810154606085015260048101546080850152600581015460a0850152600681015460c0850152600781015460e08501526008810154610100850152611c4460098201613684565b610120850152611c56600a8201613684565b610140850152600b01546001600160a01b031661016084015260405193611ce990600690611c83876132f4565b611c8c81613684565b8752611c9a60018201613684565b6020880152611cab60028201613684565b6040880152611cbc60038201613684565b6060880152611ccd60048201613684565b6080880152611cde60058201613684565b60a088015201613684565b60c0850152611d55600560405192611d008461330f565b611d0981613684565b8452611d1760018201613684565b6020850152611d2860028201613684565b6040850152611d3960038201613684565b6060850152611d4a60048201613684565b608085015201613684565b60a0820152611ebe60405194859460608652611e12611dfa611d85835161018060608b01526101e08a0190613724565b611d97602085015160808b01906137b3565b604084015160a08a0152606084015160c08a0152608084015160e08a015260a08401516101008a015260c08401516101208a015260e08401516101408a01526101008401516101608a0152610120840151605f198a8303016101808b0152613724565b610140830151888203605f19016101a08a0152613724565b9061016060018060a01b03910151166101c0870152858103602087015260c0611ead611e9b611e89611e77611e65611e53885160e0895260e0890190613724565b602089015188820360208a0152613724565b60408801518782036040890152613724565b60608701518682036060880152613724565b60808601518582036080870152613724565b60a085015184820360a0860152613724565b9201519060c0818403910152613724565b838103604085015260a0611f2f611f1d611f0b611ef9611ee7875160c0885260c0880190613724565b60208801518782036020890152613724565b60408701518682036040880152613724565b60608601518582036060870152613724565b60808501518482036080860152613724565b9201519060a0818403910152613724565b346101e757611f4e36613748565b6040516395a8c58d60e01b8152336004820152600260248201529091906020816044816001600160a01b037f0000000000000000000000000000000000000000000000000000000000000000165afa801561053357611fb3915f916122535750613924565b604051835190602081818701938085835e81015f8152030190209360018501600360ff19825416179055600a8501948351956001600160401b03871161045757611ffd815461364c565b601f8111612223575b50602096601f81116001146121bf5780612039916020969798995f916121b457508160011b915f199060031b1c19161790565b90555b600b810180546001600160a01b0319163317905542600590910155604051905190928391908190835e81016001815203019020918051926001600160401b0384116104575761208b815461364c565b601f8111612184575b50602093601f811160011461210457806120e3917f81b3714f32e3dd3d8faa1a5f7732e52e015be62219a6eae68d1a779f682db80b965f916120f957508160011b915f199060031b1c19161790565b90555b61039860405192839242913390856139c6565b9050840151876102bd565b601f198116825f52855f20905f5b81811061216c5750907f81b3714f32e3dd3d8faa1a5f7732e52e015be62219a6eae68d1a779f682db80b96836001949310612154575b5050811b0190556120e6565b8501515f1960f88460031b161c191690558680612148565b85880151835560209788019760019093019201612112565b6121ae90825f5260205f20601f870160051c8101916020881061044d57601f0160051c0190613813565b84612094565b90508801518a6102bd565b601f198116825f52885f20905f5b81811061220b5750906020969798998360019493106121f3575b5050811b01905561203c565b8901515f1960f88460031b161c1916905589806121e7565b888b0151835560209a8b019a600190930192016121cd565b61224d90825f5260205f20601f8a0160051c81019160208b1061044d57601f0160051c0190613813565b87612006565b61226c915060203d60201161052c5761051e818361332a565b85610261565b346101e75760203660031901126101e7576004356001600160401b0381116101e75760206122a58192369060040161334b565b604051928184925191829101835e8101600281520301902060e06114ab6122cb83613684565b926123806122db60018301613684565b916123726122eb60028301613684565b6123646122fa60038501613684565b61235661230960048701613684565b93612348612325600661231e60058b01613684565b9901613684565b9961233a6040519e8f9e8f8181520190613724565b8d810360208f015290613724565b908b820360408d0152613724565b9089820360608b0152613724565b908782036080890152613724565b9085820360a0870152613724565b9083820360c0850152613724565b346101e75761239c3661361b565b6040516395a8c58d60e01b815233600482015260026024820152906020826044816001600160a01b037f0000000000000000000000000000000000000000000000000000000000000000165afa91821561053357612404926113b4915f916122535750613924565b604051815190602081818501938085835e81015f8152030190209060018201600760ff1982541617905560be42019182421161039d577fe559a2d1275a26fa8461f282f80a39ad42cbd7ccf7c977bce28be45c4d8418f3936103989360086020930155604051928391518091835e81015f8152030190206040519182914290338461399c565b346101e757612498366133a0565b6040516395a8c58d60e01b81523360048201525f60248201529092906020816044816001600160a01b037f0000000000000000000000000000000000000000000000000000000000000000165afa8015610533576124fc915f9161132057506137d8565b60405191815192602081818501958087835e81015f81520301902060018101600460ff19825416179055600642910155612592600660405160208186518089835e8101600281520301902061255081613829565b61255c60018201613829565b61256860028201613829565b61257460038201613829565b61258060048201613829565b61258c60058201613829565b01613829565b6125e6600560405160208186518089835e810160038152030190206125b681613829565b6125c260018201613829565b6125ce60028201613829565b6125da60038201613829565b61258c60048201613829565b60405160208184518087835e8101600281520301902081518051906001600160401b03821161045757612619835461364c565b601f8111613267575b50602090601f83116001146132045761265192915f9183610c9d5750508160011b915f199060031b1c19161790565b81555b6001810160208301518051906001600160401b03821161045757612678835461364c565b601f81116131d4575b50602090601f8311600114613171576126b092915f91836110365750508160011b915f199060031b1c19161790565b90555b6002810160408301518051906001600160401b038211610457576126d7835461364c565b601f8111613141575b50602090601f83116001146130de5761270f92915f91836110365750508160011b915f199060031b1c19161790565b90555b6003810160608301518051906001600160401b03821161045757612736835461364c565b601f81116130ae575b50602090601f831160011461304b5761276e92915f91836110365750508160011b915f199060031b1c19161790565b90555b6004810160808301518051906001600160401b03821161045757612795835461364c565b601f811161301b575b50602090601f8311600114612fb8576127cd92915f91836110365750508160011b915f199060031b1c19161790565b90555b6005810160a08301518051906001600160401b038211610457576127f4835461364c565b601f8111612f88575b50602090601f8311600114612f1f578260c0959360069593612833935f92610f925750508160011b915f199060031b1c19161790565b90555b019101518051906001600160401b03821161045757612855835461364c565b601f8111612eef575b50602090601f8311600114612e8c5761288d92915f9183610e615750508160011b915f199060031b1c19161790565b90555b60405160208183518086835e8101600381520301902083518051906001600160401b038211610457576128c3835461364c565b601f8111612e5c575b50602090601f8311600114612df9576128fb92915f9183610e615750508160011b915f199060031b1c19161790565b81555b6001810160208501518051906001600160401b03821161045757612922835461364c565b601f8111612dc9575b50602090601f8311600114612d665761295a92915f9183610c9d5750508160011b915f199060031b1c19161790565b90555b6002810160408501518051906001600160401b03821161045757612981835461364c565b601f8111612d36575b50602090601f8311600114612cd3576129b992915f9183610c9d5750508160011b915f199060031b1c19161790565b90555b6003810160608501518051906001600160401b038211610457576129e0835461364c565b601f8111612ca3575b50602090601f8311600114612c4057612a1892915f9183610c9d5750508160011b915f199060031b1c19161790565b90555b6004810160808501518051906001600160401b03821161045757612a3f835461364c565b601f8111612c10575b50602090601f8311600114612ba7578260a0959360059593612a7e935f92610b3c5750508160011b915f199060031b1c19161790565b90555b019301519283516001600160401b03811161045757612aa0825461364c565b601f8111612b77575b506020601f8211600114612b0357926103989492610b14836020946009977fbe8dfefda19edb2ea695885130355727f7788a97d4b87a6612a78ee860ea23ab9a5f92610b3c5750508160011b915f199060031b1c19161790565b601f19821695835f52815f20965f5b818110612b5f5750837fbe8dfefda19edb2ea695885130355727f7788a97d4b87a6612a78ee860ea23ab986009979461039899979460209760019510610ba457505050811b019055610b17565b83830151895560019098019760209384019301612b12565b612ba190835f5260205f20601f840160051c8101916020851061044d57601f0160051c0190613813565b85612aa9565b90601f19831691845f52815f20925f5b818110612bf8575092600192859260a098966005989610612be0575b505050811b019055612a81565b01515f1960f88460031b161c19169055898080612bd3565b92936020600181928786015181550195019301612bb7565b612c3a90845f5260205f20601f850160051c8101916020861061044d57601f0160051c0190613813565b87612a48565b90601f19831691845f52815f20925f5b818110612c8b5750908460019594939210612c73575b505050811b019055612a1b565b01515f1960f88460031b161c19169055878080612c66565b92936020600181928786015181550195019301612c50565b612ccd90845f5260205f20601f850160051c8101916020861061044d57601f0160051c0190613813565b876129e9565b90601f19831691845f52815f20925f5b818110612d1e5750908460019594939210612d06575b505050811b0190556129bc565b01515f1960f88460031b161c19169055878080612cf9565b92936020600181928786015181550195019301612ce3565b612d6090845f5260205f20601f850160051c8101916020861061044d57601f0160051c0190613813565b8761298a565b90601f19831691845f52815f20925f5b818110612db15750908460019594939210612d99575b505050811b01905561295d565b01515f1960f88460031b161c19169055878080612d8c565b92936020600181928786015181550195019301612d76565b612df390845f5260205f20601f850160051c8101916020861061044d57601f0160051c0190613813565b8761292b565b90601f19831691845f52815f20925f5b818110612e445750908460019594939210612e2c575b505050811b0181556128fe565b01515f1960f88460031b161c19169055868080612e1f565b92936020600181928786015181550195019301612e09565b612e8690845f5260205f20601f850160051c8101916020861061044d57601f0160051c0190613813565b866128cc565b90601f19831691845f52815f20925f5b818110612ed75750908460019594939210612ebf575b505050811b019055612890565b01515f1960f88460031b161c19169055868080612eb2565b92936020600181928786015181550195019301612e9c565b612f1990845f5260205f20601f850160051c8101916020861061044d57601f0160051c0190613813565b8661285e565b90601f19831691845f52815f20925f5b818110612f70575092600192859260c098966006989610612f58575b505050811b019055612836565b01515f1960f88460031b161c191690558a8080612f4b565b92936020600181928786015181550195019301612f2f565b612fb290845f5260205f20601f850160051c8101916020861061044d57601f0160051c0190613813565b886127fd565b90601f19831691845f52815f20925f5b8181106130035750908460019594939210612feb575b505050811b0190556127d0565b01515f1960f88460031b161c19169055888080612fde565b92936020600181928786015181550195019301612fc8565b61304590845f5260205f20601f850160051c8101916020861061044d57601f0160051c0190613813565b8861279e565b90601f19831691845f52815f20925f5b818110613096575090846001959493921061307e575b505050811b019055612771565b01515f1960f88460031b161c19169055888080613071565b9293602060018192878601518155019501930161305b565b6130d890845f5260205f20601f850160051c8101916020861061044d57601f0160051c0190613813565b8861273f565b90601f19831691845f52815f20925f5b8181106131295750908460019594939210613111575b505050811b019055612712565b01515f1960f88460031b161c19169055888080613104565b929360206001819287860151815501950193016130ee565b61316b90845f5260205f20601f850160051c8101916020861061044d57601f0160051c0190613813565b886126e0565b90601f19831691845f52815f20925f5b8181106131bc57509084600195949392106131a4575b505050811b0190556126b3565b01515f1960f88460031b161c19169055888080613197565b92936020600181928786015181550195019301613181565b6131fe90845f5260205f20601f850160051c8101916020861061044d57601f0160051c0190613813565b88612681565b90601f19831691845f52815f20925f5b81811061324f5750908460019594939210613237575b505050811b018155612654565b01515f1960f88460031b161c1916905587808061322a565b92936020600181928786015181550195019301613214565b61329190845f5260205f20601f850160051c8101916020861061044d57601f0160051c0190613813565b87612622565b346101e7575f3660031901126101e7577f00000000000000000000000000000000000000000000000000000000000000006001600160a01b03168152602090f35b61018081019081106001600160401b0382111761045757604052565b60e081019081106001600160401b0382111761045757604052565b60c081019081106001600160401b0382111761045757604052565b90601f801991011681019081106001600160401b0382111761045757604052565b81601f820112156101e7578035906001600160401b038211610457576040519261337f601f8401601f19166020018561332a565b828452602083830101116101e757815f926020809301838601378301015290565b60606003198201126101e7576004356001600160401b0381116101e757816133ca9160040161334b565b916024356001600160401b0381116101e75760e081840360031901126101e757604051906133f7826132f4565b80600401356001600160401b0381116101e7578460046134199284010161334b565b825260248101356001600160401b0381116101e75784600461343d9284010161334b565b602083015260448101356001600160401b0381116101e7578460046134649284010161334b565b604083015260648101356001600160401b0381116101e75784600461348b9284010161334b565b606083015260848101356001600160401b0381116101e7578460046134b29284010161334b565b608083015260a48101356001600160401b0381116101e7578460046134d99284010161334b565b60a083015260c48101356001600160401b0381116101e7576004859161350093010161334b565b60c0820152916044356001600160401b0381116101e75760c081830360031901126101e757604051916135328361330f565b81600401356001600160401b0381116101e7578160046135549285010161334b565b835260248201356001600160401b0381116101e7578160046135789285010161334b565b602084015260448201356001600160401b0381116101e75781600461359f9285010161334b565b604084015260648201356001600160401b0381116101e7578160046135c69285010161334b565b606084015260848201356001600160401b0381116101e7578160046135ed9285010161334b565b608084015260a4820135916001600160401b0383116101e757613613920160040161334b565b60a082015290565b60406003198201126101e757600435906001600160401b0382116101e7576136459160040161334b565b9060243590565b90600182811c9216801561367a575b602083101461366657565b634e487b7160e01b5f52602260045260245ffd5b91607f169161365b565b9060405191825f8254926136978461364c565b808452936001811690811561370257506001146136be575b506136bc9250038361332a565b565b90505f9291925260205f20905f915b8183106136e65750509060206136bc928201015f6136af565b60209193508060019154838589010152019101909184926136cd565b9050602092506136bc94915060ff191682840152151560051b8201015f6136af565b805180835260209291819084018484015e5f828201840152601f01601f1916010190565b60606003198201126101e7576004356001600160401b0381116101e757816137729160040161334b565b916024356001600160401b0381116101e757826137919160040161334b565b91604435906001600160401b0382116101e7576137b09160040161334b565b90565b9060088210156118445752565b908160209103126101e7575180151581036101e75790565b156137df57565b60405162461bcd60e51b815260206004820152600c60248201526b4f6e6c7920466163746f727960a01b6044820152606490fd5b81811061381e575050565b5f8155600101613813565b613833815461364c565b908161383d575050565b81601f5f931160011461384e575055565b8183526020832061386a91601f0160051c810190600101613813565b8082528160208120915555565b5f92918154916138868361364c565b80835292600181169081156138db57506001146138a257505050565b5f9081526020812093945091925b8383106138c1575060209250010190565b6001816020929493945483858701015201910191906138b0565b915050602093945060ff929192191683830152151560051b010190565b61391060409295949395606083526060830190613877565b6001600160a01b0390951660208201520152565b1561392b57565b60405162461bcd60e51b81526020600482015260096024820152684f6e6c792042504f4d60b81b6044820152606490fd5b1561396357565b60405162461bcd60e51b81526020600482015260116024820152704e4945206d61736968206265726c616b7560781b6044820152606490fd5b9392916139c19060409260018060a01b03168652606060208701526060860190613877565b930152565b949392916060926139e26139c193608089526080890190613724565b6001600160a01b039092166020880152868203604088015261372456fea26469706673582212207e4651a7e4d2db04d32e9e41b8c6c4253eb2ab44b94ac1f528d81eb92c1c1c7064736f6c634300081b0033",
  "linkReferences": {},
  "deployedLinkReferences": {}
}