{
  "_format": "hh-sol-artifact-1",
  "contractName": "NieManager",
  "sourceName": "contracts/NieManager.sol",
  "abi": [
    {
      "inputs": [
        {
          "internalType": "address",
          "name": "roleManagerAddr",
          "type": "address"
        }
      ],
      "stateMutability": "nonpayable",
      "type": "constructor"
    },
    {
      "anonymous": false,
      "inputs": [
        {
          "indexed": false,
          "internalType": "string",
          "name": "bpomInstance",
          "type": "string"
        },
        {
          "indexed": false,
          "internalType": "address",
          "name": "bpomAddr",
          "type": "address"
        },
        {
          "indexed": false,
          "internalType": "string",
          "name": "nieNumber",
          "type": "string"
        },
        {
          "indexed": false,
          "internalType": "uint256",
          "name": "tiemstamp",
          "type": "uint256"
        }
      ],
      "name": "NieApproved",
      "type": "event"
    },
    {
      "anonymous": false,
      "inputs": [
        {
          "indexed": false,
          "internalType": "address",
          "name": "factoryAddr",
          "type": "address"
        },
        {
          "indexed": false,
          "internalType": "uint256",
          "name": "timestamp",
          "type": "uint256"
        }
      ],
      "name": "NieApprovedExtendRequest",
      "type": "event"
    },
    {
      "anonymous": false,
      "inputs": [
        {
          "indexed": false,
          "internalType": "address",
          "name": "factoryAddr",
          "type": "address"
        },
        {
          "indexed": false,
          "internalType": "uint256",
          "name": "timestamp",
          "type": "uint256"
        }
      ],
      "name": "NieExtendRequest",
      "type": "event"
    },
    {
      "anonymous": false,
      "inputs": [
        {
          "indexed": false,
          "internalType": "string",
          "name": "bpomInstance",
          "type": "string"
        },
        {
          "indexed": false,
          "internalType": "address",
          "name": "bpomAddr",
          "type": "address"
        },
        {
          "indexed": false,
          "internalType": "string",
          "name": "rejectMsg",
          "type": "string"
        },
        {
          "indexed": false,
          "internalType": "uint256",
          "name": "tiemstamp",
          "type": "uint256"
        }
      ],
      "name": "NieRejected",
      "type": "event"
    },
    {
      "anonymous": false,
      "inputs": [
        {
          "indexed": false,
          "internalType": "string",
          "name": "factoryInstance",
          "type": "string"
        },
        {
          "indexed": false,
          "internalType": "address",
          "name": "factoryAddr",
          "type": "address"
        },
        {
          "indexed": false,
          "internalType": "uint256",
          "name": "timestamp",
          "type": "uint256"
        }
      ],
      "name": "NieRenewRequest",
      "type": "event"
    },
    {
      "anonymous": false,
      "inputs": [
        {
          "indexed": false,
          "internalType": "string",
          "name": "factoryInstance",
          "type": "string"
        },
        {
          "indexed": false,
          "internalType": "address",
          "name": "factoryAddr",
          "type": "address"
        },
        {
          "indexed": false,
          "internalType": "uint256",
          "name": "timestamp",
          "type": "uint256"
        }
      ],
      "name": "NieRequested",
      "type": "event"
    },
    {
      "inputs": [
        {
          "internalType": "string",
          "name": "obatId",
          "type": "string"
        },
        {
          "internalType": "string",
          "name": "ipfsNie",
          "type": "string"
        }
      ],
      "name": "approveExtendRequest",
      "outputs": [],
      "stateMutability": "nonpayable",
      "type": "function"
    },
    {
      "inputs": [
        {
          "internalType": "string",
          "name": "obatId",
          "type": "string"
        },
        {
          "internalType": "string",
          "name": "nieNumber",
          "type": "string"
        },
        {
          "internalType": "string",
          "name": "bpomInstance",
          "type": "string"
        },
        {
          "internalType": "string",
          "name": "ipfsNie",
          "type": "string"
        }
      ],
      "name": "approveNie",
      "outputs": [],
      "stateMutability": "nonpayable",
      "type": "function"
    },
    {
      "inputs": [
        {
          "internalType": "string",
          "name": "obatId",
          "type": "string"
        },
        {
          "internalType": "string",
          "name": "factoryInstance",
          "type": "string"
        }
      ],
      "name": "createObatNie",
      "outputs": [],
      "stateMutability": "nonpayable",
      "type": "function"
    },
    {
      "inputs": [
        {
          "internalType": "string",
          "name": "",
          "type": "string"
        }
      ],
      "name": "dokuObatById",
      "outputs": [
        {
          "internalType": "string",
          "name": "masterFormula",
          "type": "string"
        },
        {
          "internalType": "string",
          "name": "suratKuasa",
          "type": "string"
        },
        {
          "internalType": "string",
          "name": "suratPernyataan",
          "type": "string"
        },
        {
          "internalType": "string",
          "name": "komposisiProduk",
          "type": "string"
        },
        {
          "internalType": "string",
          "name": "caraPembuatanProduk",
          "type": "string"
        },
        {
          "internalType": "string",
          "name": "spesifikasiKemasan",
          "type": "string"
        },
        {
          "internalType": "string",
          "name": "hasilUjiStabilitas",
          "type": "string"
        }
      ],
      "stateMutability": "view",
      "type": "function"
    },
    {
      "inputs": [
        {
          "internalType": "string",
          "name": "",
          "type": "string"
        }
      ],
      "name": "dokuPendukungById",
      "outputs": [
        {
          "internalType": "string",
          "name": "sertifikatAnalisaBahanBaku",
          "type": "string"
        },
        {
          "internalType": "string",
          "name": "sertifikatAnalisaProdukJadi",
          "type": "string"
        },
        {
          "internalType": "string",
          "name": "spesifikasiProdukJadi",
          "type": "string"
        },
        {
          "internalType": "string",
          "name": "sistemPenomoranBets",
          "type": "string"
        },
        {
          "internalType": "string",
          "name": "desainKemasan",
          "type": "string"
        },
        {
          "internalType": "string",
          "name": "dataPendukungKeamanan",
          "type": "string"
        }
      ],
      "stateMutability": "view",
      "type": "function"
    },
    {
      "inputs": [
        {
          "internalType": "string",
          "name": "obatId",
          "type": "string"
        },
        {
          "internalType": "uint256",
          "name": "expiredTimestamp",
          "type": "uint256"
        }
      ],
      "name": "extendRequestNie",
      "outputs": [],
      "stateMutability": "nonpayable",
      "type": "function"
    },
    {
      "inputs": [
        {
          "internalType": "string",
          "name": "obatId",
          "type": "string"
        }
      ],
      "name": "getNieDetail",
      "outputs": [
        {
          "components": [
            {
              "internalType": "string",
              "name": "nieNumber",
              "type": "string"
            },
            {
              "internalType": "enum EnumsLibrary.NieStatus",
              "name": "nieStatus",
              "type": "uint8"
            },
            {
              "internalType": "uint256",
              "name": "timestampProduction",
              "type": "uint256"
            },
            {
              "internalType": "uint256",
              "name": "timestampNieRequest",
              "type": "uint256"
            },
            {
              "internalType": "uint256",
              "name": "timestampNieApprove",
              "type": "uint256"
            },
            {
              "internalType": "uint256",
              "name": "timestampNieRejected",
              "type": "uint256"
            },
            {
              "internalType": "uint256",
              "name": "timestampNieRenewRequest",
              "type": "uint256"
            },
            {
              "internalType": "uint256",
              "name": "timestampNieExpired",
              "type": "uint256"
            },
            {
              "internalType": "uint256",
              "name": "timestampNieExtendRequest",
              "type": "uint256"
            },
            {
              "internalType": "uint256",
              "name": "timestampNieExtendApprove",
              "type": "uint256"
            },
            {
              "internalType": "string",
              "name": "factoryInstance",
              "type": "string"
            },
            {
              "internalType": "string",
              "name": "bpomInstance",
              "type": "string"
            },
            {
              "internalType": "address",
              "name": "bpomAddr",
              "type": "address"
            },
            {
              "internalType": "string",
              "name": "nieIpfs",
              "type": "string"
            }
          ],
          "internalType": "struct NieManager.NieDetail",
          "name": "",
          "type": "tuple"
        },
        {
          "components": [
            {
              "internalType": "string",
              "name": "masterFormula",
              "type": "string"
            },
            {
              "internalType": "string",
              "name": "suratKuasa",
              "type": "string"
            },
            {
              "internalType": "string",
              "name": "suratPernyataan",
              "type": "string"
            },
            {
              "internalType": "string",
              "name": "komposisiProduk",
              "type": "string"
            },
            {
              "internalType": "string",
              "name": "caraPembuatanProduk",
              "type": "string"
            },
            {
              "internalType": "string",
              "name": "spesifikasiKemasan",
              "type": "string"
            },
            {
              "internalType": "string",
              "name": "hasilUjiStabilitas",
              "type": "string"
            }
          ],
          "internalType": "struct NieManager.DokumenObat",
          "name": "",
          "type": "tuple"
        },
        {
          "components": [
            {
              "internalType": "string",
              "name": "sertifikatAnalisaBahanBaku",
              "type": "string"
            },
            {
              "internalType": "string",
              "name": "sertifikatAnalisaProdukJadi",
              "type": "string"
            },
            {
              "internalType": "string",
              "name": "spesifikasiProdukJadi",
              "type": "string"
            },
            {
              "internalType": "string",
              "name": "sistemPenomoranBets",
              "type": "string"
            },
            {
              "internalType": "string",
              "name": "desainKemasan",
              "type": "string"
            },
            {
              "internalType": "string",
              "name": "dataPendukungKeamanan",
              "type": "string"
            }
          ],
          "internalType": "struct NieManager.DokumenPendukung",
          "name": "",
          "type": "tuple"
        }
      ],
      "stateMutability": "view",
      "type": "function"
    },
    {
      "inputs": [
        {
          "internalType": "string",
          "name": "obatId",
          "type": "string"
        }
      ],
      "name": "getNieNumberAndStatus",
      "outputs": [
        {
          "internalType": "string",
          "name": "",
          "type": "string"
        },
        {
          "internalType": "uint8",
          "name": "",
          "type": "uint8"
        },
        {
          "internalType": "uint256",
          "name": "",
          "type": "uint256"
        }
      ],
      "stateMutability": "view",
      "type": "function"
    },
    {
      "inputs": [
        {
          "internalType": "string",
          "name": "obatId",
          "type": "string"
        }
      ],
      "name": "getRejectMsgNie",
      "outputs": [
        {
          "internalType": "string",
          "name": "",
          "type": "string"
        }
      ],
      "stateMutability": "view",
      "type": "function"
    },
    {
      "inputs": [
        {
          "internalType": "string",
          "name": "",
          "type": "string"
        }
      ],
      "name": "nieDetailById",
      "outputs": [
        {
          "internalType": "string",
          "name": "nieNumber",
          "type": "string"
        },
        {
          "internalType": "enum EnumsLibrary.NieStatus",
          "name": "nieStatus",
          "type": "uint8"
        },
        {
          "internalType": "uint256",
          "name": "timestampProduction",
          "type": "uint256"
        },
        {
          "internalType": "uint256",
          "name": "timestampNieRequest",
          "type": "uint256"
        },
        {
          "internalType": "uint256",
          "name": "timestampNieApprove",
          "type": "uint256"
        },
        {
          "internalType": "uint256",
          "name": "timestampNieRejected",
          "type": "uint256"
        },
        {
          "internalType": "uint256",
          "name": "timestampNieRenewRequest",
          "type": "uint256"
        },
        {
          "internalType": "uint256",
          "name": "timestampNieExpired",
          "type": "uint256"
        },
        {
          "internalType": "uint256",
          "name": "timestampNieExtendRequest",
          "type": "uint256"
        },
        {
          "internalType": "uint256",
          "name": "timestampNieExtendApprove",
          "type": "uint256"
        },
        {
          "internalType": "string",
          "name": "factoryInstance",
          "type": "string"
        },
        {
          "internalType": "string",
          "name": "bpomInstance",
          "type": "string"
        },
        {
          "internalType": "address",
          "name": "bpomAddr",
          "type": "address"
        },
        {
          "internalType": "string",
          "name": "nieIpfs",
          "type": "string"
        }
      ],
      "stateMutability": "view",
      "type": "function"
    },
    {
      "inputs": [
        {
          "internalType": "string",
          "name": "",
          "type": "string"
        }
      ],
      "name": "rejectMsgById",
      "outputs": [
        {
          "internalType": "string",
          "name": "",
          "type": "string"
        }
      ],
      "stateMutability": "view",
      "type": "function"
    },
    {
      "inputs": [
        {
          "internalType": "string",
          "name": "obatId",
          "type": "string"
        },
        {
          "internalType": "string",
          "name": "bpomInstance",
          "type": "string"
        },
        {
          "internalType": "string",
          "name": "rejectMsg",
          "type": "string"
        }
      ],
      "name": "rejectNie",
      "outputs": [],
      "stateMutability": "nonpayable",
      "type": "function"
    },
    {
      "inputs": [
        {
          "internalType": "string",
          "name": "obatId",
          "type": "string"
        },
        {
          "components": [
            {
              "internalType": "string",
              "name": "masterFormula",
              "type": "string"
            },
            {
              "internalType": "string",
              "name": "suratKuasa",
              "type": "string"
            },
            {
              "internalType": "string",
              "name": "suratPernyataan",
              "type": "string"
            },
            {
              "internalType": "string",
              "name": "komposisiProduk",
              "type": "string"
            },
            {
              "internalType": "string",
              "name": "caraPembuatanProduk",
              "type": "string"
            },
            {
              "internalType": "string",
              "name": "spesifikasiKemasan",
              "type": "string"
            },
            {
              "internalType": "string",
              "name": "hasilUjiStabilitas",
              "type": "string"
            }
          ],
          "internalType": "struct NieManager.DokumenObat",
          "name": "dokuObat",
          "type": "tuple"
        },
        {
          "components": [
            {
              "internalType": "string",
              "name": "sertifikatAnalisaBahanBaku",
              "type": "string"
            },
            {
              "internalType": "string",
              "name": "sertifikatAnalisaProdukJadi",
              "type": "string"
            },
            {
              "internalType": "string",
              "name": "spesifikasiProdukJadi",
              "type": "string"
            },
            {
              "internalType": "string",
              "name": "sistemPenomoranBets",
              "type": "string"
            },
            {
              "internalType": "string",
              "name": "desainKemasan",
              "type": "string"
            },
            {
              "internalType": "string",
              "name": "dataPendukungKeamanan",
              "type": "string"
            }
          ],
          "internalType": "struct NieManager.DokumenPendukung",
          "name": "dokuPendukung",
          "type": "tuple"
        }
      ],
      "name": "renewRequestNie",
      "outputs": [],
      "stateMutability": "nonpayable",
      "type": "function"
    },
    {
      "inputs": [
        {
          "internalType": "string",
          "name": "obatId",
          "type": "string"
        },
        {
          "components": [
            {
              "internalType": "string",
              "name": "masterFormula",
              "type": "string"
            },
            {
              "internalType": "string",
              "name": "suratKuasa",
              "type": "string"
            },
            {
              "internalType": "string",
              "name": "suratPernyataan",
              "type": "string"
            },
            {
              "internalType": "string",
              "name": "komposisiProduk",
              "type": "string"
            },
            {
              "internalType": "string",
              "name": "caraPembuatanProduk",
              "type": "string"
            },
            {
              "internalType": "string",
              "name": "spesifikasiKemasan",
              "type": "string"
            },
            {
              "internalType": "string",
              "name": "hasilUjiStabilitas",
              "type": "string"
            }
          ],
          "internalType": "struct NieManager.DokumenObat",
          "name": "dokuObat",
          "type": "tuple"
        },
        {
          "components": [
            {
              "internalType": "string",
              "name": "sertifikatAnalisaBahanBaku",
              "type": "string"
            },
            {
              "internalType": "string",
              "name": "sertifikatAnalisaProdukJadi",
              "type": "string"
            },
            {
              "internalType": "string",
              "name": "spesifikasiProdukJadi",
              "type": "string"
            },
            {
              "internalType": "string",
              "name": "sistemPenomoranBets",
              "type": "string"
            },
            {
              "internalType": "string",
              "name": "desainKemasan",
              "type": "string"
            },
            {
              "internalType": "string",
              "name": "dataPendukungKeamanan",
              "type": "string"
            }
          ],
          "internalType": "struct NieManager.DokumenPendukung",
          "name": "dokuPendukung",
          "type": "tuple"
        }
      ],
      "name": "requestNie",
      "outputs": [],
      "stateMutability": "nonpayable",
      "type": "function"
    },
    {
      "inputs": [],
      "name": "roleManager",
      "outputs": [
        {
          "internalType": "contract RoleManager",
          "name": "",
          "type": "address"
        }
      ],
      "stateMutability": "view",
      "type": "function"
    }
  ],
  "bytecode": "0x60a03461009657601f613ee338819003918201601f19168301916001600160401b0383118484101761009a5780849260209460405283398101031261009657516001600160a01b0381169081900361009657608052604051613e3490816100af8239608051818181610251015281816110b00152818161185c015281816120e00152818161254901528181612975015261375a0152f35b5f80fd5b634e487b7160e01b5f52604160045260245ffdfe6080806040526004361015610012575f80fd5b5f3560e01c908162435da51461374857508063108cbe611461293b5780632594d5971461281f578063283ef6f0146124ae578063396a6b441461202657806343d1b83914611b2a57806359914db414611a2a5780636e945e481461182257806374a5abcf14611765578063ac007c1a14611224578063bdedf0b8146111ba578063bf3f80ac146111ba578063d944ff7914611057578063e509070a146102175763f71ce722146100c0575f80fd5b34610213576020366003190112610213576004356001600160401b038111610213576100f09036906004016137fc565b604051818192516020819201835e81015f815203602001902061011281613b04565b600182015460ff1660028301549260038101549160048201549060058301549060068401546007850154600886015490600987015492600a880161015590613b04565b95610162600b8a01613b04565b600c8a01546001600160a01b03169990989061018090600d01613b04565b9a6040519d8e809e6101c082526101c0820161019b91613ba4565b99602082016101a991613bc8565b6040015260608d015260808c015260a08b015260c08a015260e08901526101008801526101208701528581036101408701526101e491613ba4565b8481036101608601526101f691613ba4565b906101808401528281036101a084015261020f91613ba4565b0390f35b5f80fd5b346102135761022536613851565b6040516395a8c58d60e01b81523360048201525f60248201529092906020816044816001600160a01b037f0000000000000000000000000000000000000000000000000000000000000000165afa801561104c5761028a915f9161101d575b50613c3a565b604051916001825193602081818601968088835e81015f81520301902001600160ff19825416179055604051600383518086845e8201915f8352602081429403019020015560405160208184518087835e8101600281520301902081518051906001600160401b0382116108ed576103028354613acc565b601f8111610fed575b50602090601f8311600114610f8a5761033b92915f918361099a575b50508160011b915f199060031b1c19161790565b81555b6001810160208301518051906001600160401b0382116108ed576103628354613acc565b601f8111610f5a575b50602090601f8311600114610ef75761039a92915f9183610d335750508160011b915f199060031b1c19161790565b90555b6002810160408301518051906001600160401b0382116108ed576103c18354613acc565b601f8111610ec7575b50602090601f8311600114610e64576103f992915f9183610d335750508160011b915f199060031b1c19161790565b90555b6003810160608301518051906001600160401b0382116108ed576104208354613acc565b601f8111610e34575b50602090601f8311600114610dd15761045892915f9183610d335750508160011b915f199060031b1c19161790565b90555b6004810160808301518051906001600160401b0382116108ed5761047f8354613acc565b601f8111610da1575b50602090601f8311600114610d3e576104b792915f9183610d335750508160011b915f199060031b1c19161790565b90555b6005810160a08301518051906001600160401b0382116108ed576104de8354613acc565b601f8111610d03575b50602090601f8311600114610c9a578260c095936006959361051d935f92610c8f5750508160011b915f199060031b1c19161790565b90555b019101518051906001600160401b0382116108ed5761053f8354613acc565b601f8111610c5f575b50602090601f8311600114610bfc5761057792915f9183610b5e5750508160011b915f199060031b1c19161790565b90555b60405160208183518086835e8101600381520301902083518051906001600160401b0382116108ed576105ad8354613acc565b601f8111610bcc575b50602090601f8311600114610b69576105e592915f9183610b5e5750508160011b915f199060031b1c19161790565b81555b6001810160208501518051906001600160401b0382116108ed5761060c8354613acc565b601f8111610b2e575b50602090601f8311600114610acb5761064492915f918361099a5750508160011b915f199060031b1c19161790565b90555b6002810160408501518051906001600160401b0382116108ed5761066b8354613acc565b601f8111610a9b575b50602090601f8311600114610a38576106a392915f918361099a5750508160011b915f199060031b1c19161790565b90555b6003810160608501518051906001600160401b0382116108ed576106ca8354613acc565b601f8111610a08575b50602090601f83116001146109a55761070292915f918361099a5750508160011b915f199060031b1c19161790565b90555b6004810160808501518051906001600160401b0382116108ed576107298354613acc565b601f811161096a575b50602090601f8311600114610901578260a0959360059593610768935f9261081a5750508160011b915f199060031b1c19161790565b90555b019301519283516001600160401b0381116108ed5761078a8254613acc565b601f81116108b2575b506020601f8211600114610825579261081594926107ed83602094600a977f351ab5a48b432d9a1035e20940d903771dcfec712ffe00601bad0ea1f4260f889a5f9261081a5750508160011b915f199060031b1c19161790565b90555b604051928391518091835e81015f815203019020016040519182914290339084613cd9565b0390a1005b015190508a80610327565b601f19821695835f52815f20965f5b81811061089a5750837f351ab5a48b432d9a1035e20940d903771dcfec712ffe00601bad0ea1f4260f8898600a979461081599979460209760019510610882575b505050811b0190556107f0565b01515f1960f88460031b161c19169055898080610875565b83830151895560019098019760209384019301610834565b6108dd90835f5260205f20601f840160051c810191602085106108e3575b601f0160051c0190613c75565b85610793565b90915081906108d0565b634e487b7160e01b5f52604160045260245ffd5b90601f19831691845f52815f20925f5b818110610952575092600192859260a09896600598961061093a575b505050811b01905561076b565b01515f1960f88460031b161c1916905589808061092d565b92936020600181928786015181550195019301610911565b61099490845f5260205f20601f850160051c810191602086106108e357601f0160051c0190613c75565b87610732565b015190508880610327565b90601f19831691845f52815f20925f5b8181106109f057509084600195949392106109d8575b505050811b019055610705565b01515f1960f88460031b161c191690558780806109cb565b929360206001819287860151815501950193016109b5565b610a3290845f5260205f20601f850160051c810191602086106108e357601f0160051c0190613c75565b876106d3565b90601f19831691845f52815f20925f5b818110610a835750908460019594939210610a6b575b505050811b0190556106a6565b01515f1960f88460031b161c19169055878080610a5e565b92936020600181928786015181550195019301610a48565b610ac590845f5260205f20601f850160051c810191602086106108e357601f0160051c0190613c75565b87610674565b90601f19831691845f52815f20925f5b818110610b165750908460019594939210610afe575b505050811b019055610647565b01515f1960f88460031b161c19169055878080610af1565b92936020600181928786015181550195019301610adb565b610b5890845f5260205f20601f850160051c810191602086106108e357601f0160051c0190613c75565b87610615565b015190508780610327565b90601f19831691845f52815f20925f5b818110610bb45750908460019594939210610b9c575b505050811b0181556105e8565b01515f1960f88460031b161c19169055868080610b8f565b92936020600181928786015181550195019301610b79565b610bf690845f5260205f20601f850160051c810191602086106108e357601f0160051c0190613c75565b866105b6565b90601f19831691845f52815f20925f5b818110610c475750908460019594939210610c2f575b505050811b01905561057a565b01515f1960f88460031b161c19169055868080610c22565b92936020600181928786015181550195019301610c0c565b610c8990845f5260205f20601f850160051c810191602086106108e357601f0160051c0190613c75565b86610548565b015190508b80610327565b90601f19831691845f52815f20925f5b818110610ceb575092600192859260c098966006989610610cd3575b505050811b019055610520565b01515f1960f88460031b161c191690558a8080610cc6565b92936020600181928786015181550195019301610caa565b610d2d90845f5260205f20601f850160051c810191602086106108e357601f0160051c0190613c75565b886104e7565b015190508980610327565b90601f19831691845f52815f20925f5b818110610d895750908460019594939210610d71575b505050811b0190556104ba565b01515f1960f88460031b161c19169055888080610d64565b92936020600181928786015181550195019301610d4e565b610dcb90845f5260205f20601f850160051c810191602086106108e357601f0160051c0190613c75565b88610488565b90601f19831691845f52815f20925f5b818110610e1c5750908460019594939210610e04575b505050811b01905561045b565b01515f1960f88460031b161c19169055888080610df7565b92936020600181928786015181550195019301610de1565b610e5e90845f5260205f20601f850160051c810191602086106108e357601f0160051c0190613c75565b88610429565b90601f19831691845f52815f20925f5b818110610eaf5750908460019594939210610e97575b505050811b0190556103fc565b01515f1960f88460031b161c19169055888080610e8a565b92936020600181928786015181550195019301610e74565b610ef190845f5260205f20601f850160051c810191602086106108e357601f0160051c0190613c75565b886103ca565b90601f19831691845f52815f20925f5b818110610f425750908460019594939210610f2a575b505050811b01905561039d565b01515f1960f88460031b161c19169055888080610f1d565b92936020600181928786015181550195019301610f07565b610f8490845f5260205f20601f850160051c810191602086106108e357601f0160051c0190613c75565b8861036b565b90601f19831691845f52815f20925f5b818110610fd55750908460019594939210610fbd575b505050811b01815561033e565b01515f1960f88460031b161c19169055878080610fb0565b92936020600181928786015181550195019301610f9a565b61101790845f5260205f20601f850160051c810191602086106108e357601f0160051c0190613c75565b8761030b565b61103f915060203d602011611045575b61103781836137db565b810190613c22565b85610284565b503d61102d565b6040513d5f823e3d90fd5b34610213576040366003190112610213576004356001600160401b038111610213576110879036906004016137fc565b6040516395a8c58d60e01b81523360048201525f60248201526020816044816001600160a01b037f0000000000000000000000000000000000000000000000000000000000000000165afa801561104c576110e8915f9161119b5750613c3a565b6024354211156111625760208091604051928184925191829101835e5f9082019081520301902060018101805460ff191660061790554260089091018190556040805133815260208101929092527fdbf29df2841fbfef4e4228e54b2eafd2edb98c45ecd633e3d142902104cde351919081908101610815565b60405162461bcd60e51b81526020600482015260116024820152704e4945206d61736968206265726c616b7560781b6044820152606490fd5b6111b4915060203d6020116110455761103781836137db565b83610284565b34610213576020366003190112610213576004356001600160401b038111610213576112106020806111f361020f9436906004016137fc565b604051928184925191829101835e81016001815203019020613b04565b604051918291602083526020830190613ba4565b346102135761123236613bd5565b6040519061123f82613789565b60208093819260405161125284826137db565b5f815285525f838601524260408601525f60608601525f60808601525f60a08601525f60c08601525f60e08601525f6101008601525f6101208601526101408501526040516112a183826137db565b5f81526101608501525f6101808501526040516112be83826137db565b5f81526101a0850152604051928184925191829101835e81015f8152030190209080519182516001600160401b0381116108ed576112fc8254613acc565b601f8111611737575b508493601f82116001146116d75761133592939482915f926116cc5750508160011b915f199060031b1c19161790565b81555b600181018383015160088110156116b85760ff8019835416911617905560408201516002820155606082015160038201556080820151600482015560a0820151600582015560c0820151600682015560e0820151600782015561010082015160088201556101208201516009820155600a81016101408301518051906001600160401b0382116108ed576113cc8354613acc565b601f811161168a575b508590601f83116001146116275761140392915f9183610b5e5750508160011b915f199060031b1c19161790565b90555b600b81016101608301518051906001600160401b0382116108ed5761142b8354613acc565b601f81116115f9575b508590601f831160011461158f57826101a09593600d959361146a935f92610d335750508160011b915f199060031b1c19161790565b90555b610180840151600c820180546001600160a01b0319166001600160a01b039290921691909117905591909201518051909392909101916001600160401b0382116108ed576114bb8354613acc565b601f8111611561575b5080601f8311600114611502575081906114f393945f926114f75750508160011b915f199060031b1c19161790565b9055005b015190508480610327565b90601f19831694845f52825f20925f905b878210611549575050836001959610611531575b505050811b019055005b01515f1960f88460031b161c19169055838080611527565b80600185968294968601518155019501930190611513565b61158990845f52825f20601f850160051c8101918486106108e357601f0160051c0190613c75565b846114c4565b90601f19831691845f52875f20925f5b898282106115e35750509260019285926101a09896600d9896106115cb575b505050811b01905561146d565b01515f1960f88460031b161c191690558880806115be565b600185968293968601518155019501930161159f565b61162190845f52875f20601f850160051c8101918986106108e357601f0160051c0190613c75565b86611434565b90601f19831691845f52875f20925f5b8982821061167457505090846001959493921061165c575b505050811b019055611406565b01515f1960f88460031b161c1916905586808061164f565b6001859682939686015181550195019301611637565b6116b290845f52875f20601f850160051c8101918986106108e357601f0160051c0190613c75565b866113d5565b634e487b7160e01b5f52602160045260245ffd5b015190508680610327565b601f19821694835f52865f20915f5b8888821061172157505083600195969710611709575b505050811b018155611338565b01515f1960f88460031b161c191690558580806116fc565b60018495829395850151815501940192016116e6565b61175f90835f52865f20601f840160051c8101918885106108e357601f0160051c0190613c75565b85611305565b34610213576020366003190112610213576004356001600160401b038111610213576117959036906004016137fc565b604051815190602081818501938085835e81015f8152030190209060ff600160405160208187518087835e81015f8152030190200154169060088210156116b85760076117fe91602061181396604051928391518091835e81015f815203019020015492613b04565b91604051938493606085526060850190613ba4565b91602084015260408301520390f35b346102135761183036613bd5565b6040516395a8c58d60e01b81523360048201526002602482015290916020826044816001600160a01b037f0000000000000000000000000000000000000000000000000000000000000000165afa90811561104c5761189b6020939284935f91611a0d575b50613d88565b604051928184925191829101835e81015f81520301902060018101600760ff1982541617905542600982015560824201908142116119f957600d9160078201550181516001600160401b0381116108ed576118f68254613acc565b601f81116119c9575b50602092601f821160011461196a5761192f929382915f926114f75750508160011b915f199060031b1c19161790565b90555b604080513381524260208201527fdc1549b9d8f53bf4f107afce167ff871f6f9b8b72089d73274686ecb22b036389181908101610815565b601f19821693835f52805f20915f5b8681106119b15750836001959610611999575b505050811b019055611932565b01515f1960f88460031b161c1916905583808061198c565b91926020600181928685015181550194019201611979565b6119f390835f5260205f20601f840160051c810191602085106108e357601f0160051c0190613c75565b836118ff565b634e487b7160e01b5f52601160045260245ffd5b611a249150843d86116110455761103781836137db565b86611895565b34610213576020366003190112610213576004356001600160401b03811161021357602080611a60611ae49336906004016137fc565b604051928184925191829101835e8101600381520301902061020f611a8482613b04565b91611b1c611a9460018301613b04565b91611b0e611aa460028301613b04565b611b00611ab360038501613b04565b91611af2611acf6005611ac860048901613b04565b9701613b04565b976040519b8c9b60c08d5260c08d0190613ba4565b908b820360208d0152613ba4565b9089820360408b0152613ba4565b908782036060890152613ba4565b908582036080870152613ba4565b9083820360a0850152613ba4565b34610213576020366003190112610213576004356001600160401b03811161021357611b5a9036906004016137fc565b60606101a0604051611b6b81613789565b8281525f60208201525f60408201525f838201525f60808201525f60a08201525f60c08201525f60e08201525f6101008201525f61012082015282610140820152826101608201525f6101808201520152606060c0604051611bcc816137a5565b82815282602082015282604082015282808201528260808201528260a08201520152606060a0604051611bfe816137c0565b82815282602082015282604082015282808201528260808201520152604051815190602081818501938085835e81015f815203019020906020604051818186518086835e8101600281520301902093604051928391518091835e810160038152030190209060405191611c7083613789565b611c7982613b04565b835260ff60018301541660088110156116b857611f0d94611d32600d61020f95611fa4946020890152600281015460408901526003810154606089015260048101546080890152600581015460a0890152600681015460c0890152600781015460e089015260088101546101008901526009810154610120890152611d00600a8201613b04565b610140890152611d12600b8201613b04565b610160890152600c8101546001600160a01b031661018089015201613b04565b6101a0860152611db0600660405192611d4a846137a5565b611d5381613b04565b8452611d6160018201613b04565b6020850152611d7260028201613b04565b6040850152611d8360038201613b04565b6060850152611d9460048201613b04565b6080850152611da560058201613b04565b60a085015201613b04565b60c0820152611e1c600560405194611dc7866137c0565b611dd081613b04565b8652611dde60018201613b04565b6020870152611def60028201613b04565b6040870152611e0060038201613b04565b6060870152611e1160048201613b04565b608087015201613b04565b60a0840152604051958695606087526101a0611ee3611ecb611e4c84516101c060608d01526102208c0190613ba4565b611e5e602086015160808d0190613bc8565b604085015160a08c0152606085015160c08c0152608085015160e08c015260a08501516101008c015260c08501516101208c015260e08501516101408c01526101008501516101608c01526101208501516101808c0152610140850151605f198c830301858d0152613ba4565b6101608401518a8203605f19016101c08c0152613ba4565b6101808301516001600160a01b03166101e08a0152910151878203605f1901610200890152613ba4565b858103602087015260c0611f93611f81611f6f611f5d611f4b611f39885160e0895260e0890190613ba4565b602089015188820360208a0152613ba4565b60408801518782036040890152613ba4565b60608701518682036060880152613ba4565b60808601518582036080870152613ba4565b60a085015184820360a0860152613ba4565b9201519060c0818403910152613ba4565b838103604085015260a0612015612003611ff1611fdf611fcd875160c0885260c0880190613ba4565b60208801518782036020890152613ba4565b60408701518682036040880152613ba4565b60608601518582036060870152613ba4565b60808501518482036080860152613ba4565b9201519060a0818403910152613ba4565b34610213576080366003190112610213576004356001600160401b038111610213576120569036906004016137fc565b6024356001600160401b038111610213576120759036906004016137fc565b6044356001600160401b038111610213576120949036906004016137fc565b906064356001600160401b038111610213576120b49036906004016137fc565b6040516395a8c58d60e01b81523360048201526002602482015290936020826044816001600160a01b037f0000000000000000000000000000000000000000000000000000000000000000165afa90811561104c5761211e6020939284935f916124915750613d88565b604051928184925191829101835e81015f81520301902081516001600160401b0381116108ed5761214f8254613acc565b601f8111612461575b506020601f8211600114612401579080612186925f916123f6575b508160011b915f199060031b1c19161790565b81555b60018101600260ff19825416179055426004820155600b810183516001600160401b0381116108ed576121bc8254613acc565b601f81116123c6575b506020601f82116001146123665790806121f2925f9161235b57508160011b915f199060031b1c19161790565b90555b600c810180546001600160a01b031916331790554260828101919082106119f957600d9160078201550183516001600160401b0381116108ed576122398254613acc565b601f811161232b575b506020601f82116001146122a8579080612292927f98f6eda79ce4c4856715a86ecdf2cb7ece1a5de8adf3de249b2ce9017b0e5810975f92610b5e5750508160011b915f199060031b1c19161790565b90555b6108156040519283924291339085613dc0565b601f19821695835f52815f20965f5b8181106123135750917f98f6eda79ce4c4856715a86ecdf2cb7ece1a5de8adf3de249b2ce9017b0e581097918460019594106122fb575b505050811b019055612295565b01515f1960f88460031b161c191690558680806122ee565b838301518955600190980197602093840193016122b7565b61235590835f5260205f20601f840160051c810191602085106108e357601f0160051c0190613c75565b85612242565b905086015188612173565b601f19821690835f52805f20915f5b8181106123ae57509083600194939210612396575b5050811b0190556121f5565b8701515f1960f88460031b161c19169055878061238a565b9192602060018192868c015181550194019201612375565b6123f090835f5260205f20601f840160051c810191602085106108e357601f0160051c0190613c75565b866121c5565b905084015187612173565b601f19821690835f52805f20915f5b81811061244957509083600194939210612431575b5050811b018155612189565b8501515f1960f88460031b161c191690558680612425565b9192602060018192868a015181550194019201612410565b61248b90835f5260205f20601f840160051c810191602085106108e357601f0160051c0190613c75565b85612158565b6124a89150843d86116110455761103781836137db565b88611895565b34610213576060366003190112610213576004356001600160401b038111610213576124de9036906004016137fc565b6024356001600160401b038111610213576124fd9036906004016137fc565b6044356001600160401b0381116102135761251c9036906004016137fc565b6040516395a8c58d60e01b8152336004820152600260248201529091906020816044816001600160a01b037f0000000000000000000000000000000000000000000000000000000000000000165afa801561104c57612581915f916128005750613d88565b604051835190602081818701938085835e81015f8152030190209360018501600360ff19825416179055600b8501948351956001600160401b0387116108ed576125cb8154613acc565b601f81116127d0575b50602096601f811160011461276c5780612607916020969798995f9161276157508160011b915f199060031b1c19161790565b90555b600c810180546001600160a01b0319163317905542600590910155604051905190928391908190835e81016001815203019020918051926001600160401b0384116108ed576126598154613acc565b601f8111612731575b50602093601f81116001146126b15780612292917f81b3714f32e3dd3d8faa1a5f7732e52e015be62219a6eae68d1a779f682db80b965f916123f657508160011b915f199060031b1c19161790565b601f198116825f52855f20905f5b8181106127195750907f81b3714f32e3dd3d8faa1a5f7732e52e015be62219a6eae68d1a779f682db80b96836001949310612701575b5050811b019055612295565b8501515f1960f88460031b161c1916905586806126f5565b858801518355602097880197600190930192016126bf565b61275b90825f5260205f20601f870160051c810191602088106108e357601f0160051c0190613c75565b84612662565b90508801518a612173565b601f198116825f52885f20905f5b8181106127b85750906020969798998360019493106127a0575b5050811b01905561260a565b8901515f1960f88460031b161c191690558980612794565b888b0151835560209a8b019a6001909301920161277a565b6127fa90825f5260205f20601f8a0160051c81019160208b106108e357601f0160051c0190613c75565b876125d4565b612819915060203d6020116110455761103781836137db565b85611895565b34610213576020366003190112610213576004356001600160401b038111610213576020612852819236906004016137fc565b604051928184925191829101835e8101600281520301902060e061020f61287883613b04565b9261292d61288860018301613b04565b9161291f61289860028301613b04565b6129116128a760038501613b04565b6129036128b660048701613b04565b936128f56128d260066128cb60058b01613b04565b9901613b04565b996128e76040519e8f9e8f8181520190613ba4565b8d810360208f015290613ba4565b908b820360408d0152613ba4565b9089820360608b0152613ba4565b908782036080890152613ba4565b9085820360a0870152613ba4565b9083820360c0850152613ba4565b346102135761294936613851565b6040516395a8c58d60e01b81523360048201525f60248201529092906020816044816001600160a01b037f0000000000000000000000000000000000000000000000000000000000000000165afa801561104c576129ad915f9161101d5750613c3a565b60405191815192602081818501958087835e81015f81520301902060018101600460ff19825416179055600642910155612a43600660405160208186518089835e81016002815203019020612a0181613c8b565b612a0d60018201613c8b565b612a1960028201613c8b565b612a2560038201613c8b565b612a3160048201613c8b565b612a3d60058201613c8b565b01613c8b565b612a97600560405160208186518089835e81016003815203019020612a6781613c8b565b612a7360018201613c8b565b612a7f60028201613c8b565b612a8b60038201613c8b565b612a3d60048201613c8b565b60405160208184518087835e8101600281520301902081518051906001600160401b0382116108ed57612aca8354613acc565b601f8111613718575b50602090601f83116001146136b557612b0292915f918361099a5750508160011b915f199060031b1c19161790565b81555b6001810160208301518051906001600160401b0382116108ed57612b298354613acc565b601f8111613685575b50602090601f831160011461362257612b6192915f9183610d335750508160011b915f199060031b1c19161790565b90555b6002810160408301518051906001600160401b0382116108ed57612b888354613acc565b601f81116135f2575b50602090601f831160011461358f57612bc092915f9183610d335750508160011b915f199060031b1c19161790565b90555b6003810160608301518051906001600160401b0382116108ed57612be78354613acc565b601f811161355f575b50602090601f83116001146134fc57612c1f92915f9183610d335750508160011b915f199060031b1c19161790565b90555b6004810160808301518051906001600160401b0382116108ed57612c468354613acc565b601f81116134cc575b50602090601f831160011461346957612c7e92915f9183610d335750508160011b915f199060031b1c19161790565b90555b6005810160a08301518051906001600160401b0382116108ed57612ca58354613acc565b601f8111613439575b50602090601f83116001146133d0578260c0959360069593612ce4935f92610c8f5750508160011b915f199060031b1c19161790565b90555b019101518051906001600160401b0382116108ed57612d068354613acc565b601f81116133a0575b50602090601f831160011461333d57612d3e92915f9183610b5e5750508160011b915f199060031b1c19161790565b90555b60405160208183518086835e8101600381520301902083518051906001600160401b0382116108ed57612d748354613acc565b601f811161330d575b50602090601f83116001146132aa57612dac92915f9183610b5e5750508160011b915f199060031b1c19161790565b81555b6001810160208501518051906001600160401b0382116108ed57612dd38354613acc565b601f811161327a575b50602090601f831160011461321757612e0b92915f918361099a5750508160011b915f199060031b1c19161790565b90555b6002810160408501518051906001600160401b0382116108ed57612e328354613acc565b601f81116131e7575b50602090601f831160011461318457612e6a92915f918361099a5750508160011b915f199060031b1c19161790565b90555b6003810160608501518051906001600160401b0382116108ed57612e918354613acc565b601f8111613154575b50602090601f83116001146130f157612ec992915f918361099a5750508160011b915f199060031b1c19161790565b90555b6004810160808501518051906001600160401b0382116108ed57612ef08354613acc565b601f81116130c1575b50602090601f8311600114613058578260a0959360059593612f2f935f9261081a5750508160011b915f199060031b1c19161790565b90555b019301519283516001600160401b0381116108ed57612f518254613acc565b601f8111613028575b506020601f8211600114612fb4579261081594926107ed83602094600a977fbe8dfefda19edb2ea695885130355727f7788a97d4b87a6612a78ee860ea23ab9a5f9261081a5750508160011b915f199060031b1c19161790565b601f19821695835f52815f20965f5b8181106130105750837fbe8dfefda19edb2ea695885130355727f7788a97d4b87a6612a78ee860ea23ab98600a97946108159997946020976001951061088257505050811b0190556107f0565b83830151895560019098019760209384019301612fc3565b61305290835f5260205f20601f840160051c810191602085106108e357601f0160051c0190613c75565b85612f5a565b90601f19831691845f52815f20925f5b8181106130a9575092600192859260a098966005989610613091575b505050811b019055612f32565b01515f1960f88460031b161c19169055898080613084565b92936020600181928786015181550195019301613068565b6130eb90845f5260205f20601f850160051c810191602086106108e357601f0160051c0190613c75565b87612ef9565b90601f19831691845f52815f20925f5b81811061313c5750908460019594939210613124575b505050811b019055612ecc565b01515f1960f88460031b161c19169055878080613117565b92936020600181928786015181550195019301613101565b61317e90845f5260205f20601f850160051c810191602086106108e357601f0160051c0190613c75565b87612e9a565b90601f19831691845f52815f20925f5b8181106131cf57509084600195949392106131b7575b505050811b019055612e6d565b01515f1960f88460031b161c191690558780806131aa565b92936020600181928786015181550195019301613194565b61321190845f5260205f20601f850160051c810191602086106108e357601f0160051c0190613c75565b87612e3b565b90601f19831691845f52815f20925f5b818110613262575090846001959493921061324a575b505050811b019055612e0e565b01515f1960f88460031b161c1916905587808061323d565b92936020600181928786015181550195019301613227565b6132a490845f5260205f20601f850160051c810191602086106108e357601f0160051c0190613c75565b87612ddc565b90601f19831691845f52815f20925f5b8181106132f557509084600195949392106132dd575b505050811b018155612daf565b01515f1960f88460031b161c191690558680806132d0565b929360206001819287860151815501950193016132ba565b61333790845f5260205f20601f850160051c810191602086106108e357601f0160051c0190613c75565b86612d7d565b90601f19831691845f52815f20925f5b8181106133885750908460019594939210613370575b505050811b019055612d41565b01515f1960f88460031b161c19169055868080613363565b9293602060018192878601518155019501930161334d565b6133ca90845f5260205f20601f850160051c810191602086106108e357601f0160051c0190613c75565b86612d0f565b90601f19831691845f52815f20925f5b818110613421575092600192859260c098966006989610613409575b505050811b019055612ce7565b01515f1960f88460031b161c191690558a80806133fc565b929360206001819287860151815501950193016133e0565b61346390845f5260205f20601f850160051c810191602086106108e357601f0160051c0190613c75565b88612cae565b90601f19831691845f52815f20925f5b8181106134b4575090846001959493921061349c575b505050811b019055612c81565b01515f1960f88460031b161c1916905588808061348f565b92936020600181928786015181550195019301613479565b6134f690845f5260205f20601f850160051c810191602086106108e357601f0160051c0190613c75565b88612c4f565b90601f19831691845f52815f20925f5b818110613547575090846001959493921061352f575b505050811b019055612c22565b01515f1960f88460031b161c19169055888080613522565b9293602060018192878601518155019501930161350c565b61358990845f5260205f20601f850160051c810191602086106108e357601f0160051c0190613c75565b88612bf0565b90601f19831691845f52815f20925f5b8181106135da57509084600195949392106135c2575b505050811b019055612bc3565b01515f1960f88460031b161c191690558880806135b5565b9293602060018192878601518155019501930161359f565b61361c90845f5260205f20601f850160051c810191602086106108e357601f0160051c0190613c75565b88612b91565b90601f19831691845f52815f20925f5b81811061366d5750908460019594939210613655575b505050811b019055612b64565b01515f1960f88460031b161c19169055888080613648565b92936020600181928786015181550195019301613632565b6136af90845f5260205f20601f850160051c810191602086106108e357601f0160051c0190613c75565b88612b32565b90601f19831691845f52815f20925f5b81811061370057509084600195949392106136e8575b505050811b018155612b05565b01515f1960f88460031b161c191690558780806136db565b929360206001819287860151815501950193016136c5565b61374290845f5260205f20601f850160051c810191602086106108e357601f0160051c0190613c75565b87612ad3565b34610213575f366003190112610213577f00000000000000000000000000000000000000000000000000000000000000006001600160a01b03168152602090f35b6101c081019081106001600160401b038211176108ed57604052565b60e081019081106001600160401b038211176108ed57604052565b60c081019081106001600160401b038211176108ed57604052565b90601f801991011681019081106001600160401b038211176108ed57604052565b81601f82011215610213578035906001600160401b0382116108ed5760405192613830601f8401601f1916602001856137db565b8284526020838301011161021357815f926020809301838601378301015290565b6060600319820112610213576004356001600160401b038111610213578161387b916004016137fc565b916024356001600160401b0381116102135760e0818403600319011261021357604051906138a8826137a5565b80600401356001600160401b038111610213578460046138ca928401016137fc565b825260248101356001600160401b038111610213578460046138ee928401016137fc565b602083015260448101356001600160401b03811161021357846004613915928401016137fc565b604083015260648101356001600160401b0381116102135784600461393c928401016137fc565b606083015260848101356001600160401b03811161021357846004613963928401016137fc565b608083015260a48101356001600160401b0381116102135784600461398a928401016137fc565b60a083015260c48101356001600160401b03811161021357600485916139b19301016137fc565b60c0820152916044356001600160401b0381116102135760c0818303600319011261021357604051916139e3836137c0565b81600401356001600160401b03811161021357816004613a05928501016137fc565b835260248201356001600160401b03811161021357816004613a29928501016137fc565b602084015260448201356001600160401b03811161021357816004613a50928501016137fc565b604084015260648201356001600160401b03811161021357816004613a77928501016137fc565b606084015260848201356001600160401b03811161021357816004613a9e928501016137fc565b608084015260a4820135916001600160401b03831161021357613ac492016004016137fc565b60a082015290565b90600182811c92168015613afa575b6020831014613ae657565b634e487b7160e01b5f52602260045260245ffd5b91607f1691613adb565b9060405191825f825492613b1784613acc565b8084529360018116908115613b825750600114613b3e575b50613b3c925003836137db565b565b90505f9291925260205f20905f915b818310613b66575050906020613b3c928201015f613b2f565b6020919350806001915483858901015201910190918492613b4d565b905060209250613b3c94915060ff191682840152151560051b8201015f613b2f565b805180835260209291819084018484015e5f828201840152601f01601f1916010190565b9060088210156116b85752565b906040600319830112610213576004356001600160401b0381116102135782613c00916004016137fc565b91602435906001600160401b03821161021357613c1f916004016137fc565b90565b90816020910312610213575180151581036102135790565b15613c4157565b60405162461bcd60e51b815260206004820152600c60248201526b4f6e6c7920466163746f727960a01b6044820152606490fd5b818110613c80575050565b5f8155600101613c75565b613c958154613acc565b9081613c9f575050565b81601f5f9311600114613cb0575055565b81835260208320613ccc91601f0160051c810190600101613c75565b8082528160208120915555565b9093929193606082525f90805490613cf082613acc565b918260608601526001811690815f14613d645750600114613d24575b50506001600160a01b03909416602082015260400152565b5f90815260208120939250905b808210613d495750909150810160800160405f613d0c565b91926001816020925460808588010152019101909291613d31565b90506040949350608092915060ff191682840152151560051b82010190915f613d0c565b15613d8f57565b60405162461bcd60e51b81526020600482015260096024820152684f6e6c792042504f4d60b81b6044820152606490fd5b94939291606092613ddc613df993608089526080890190613ba4565b6001600160a01b0390921660208801528682036040880152613ba4565b93015256fea26469706673582212200702f276218bd01d73eb39ccfa59647c88f84760c759638e3f1cdc9b15adf7ae64736f6c634300081b0033",
  "linkReferences": {},
  "deployedLinkReferences": {}
}