{
  "_format": "hh-sol-artifact-1",
  "contractName": "NieManager",
  "sourceName": "contracts/NieManager.sol",
  "abi": [
    {
      "inputs": [
        {
          "internalType": "address",
          "name": "_roleManagerAddr",
          "type": "address"
        }
      ],
      "stateMutability": "nonpayable",
      "type": "constructor"
    },
    {
      "anonymous": false,
      "inputs": [
        {
          "indexed": false,
          "internalType": "string",
          "name": "bpomInstance",
          "type": "string"
        },
        {
          "indexed": false,
          "internalType": "address",
          "name": "bpomAddr",
          "type": "address"
        },
        {
          "indexed": false,
          "internalType": "string",
          "name": "nieNumber",
          "type": "string"
        },
        {
          "indexed": false,
          "internalType": "uint256",
          "name": "tiemstamp",
          "type": "uint256"
        }
      ],
      "name": "NieApproved",
      "type": "event"
    },
    {
      "anonymous": false,
      "inputs": [
        {
          "indexed": false,
          "internalType": "string",
          "name": "bpomInstance",
          "type": "string"
        },
        {
          "indexed": false,
          "internalType": "address",
          "name": "bpomAddr",
          "type": "address"
        },
        {
          "indexed": false,
          "internalType": "string",
          "name": "rejectMsg",
          "type": "string"
        },
        {
          "indexed": false,
          "internalType": "uint256",
          "name": "tiemstamp",
          "type": "uint256"
        }
      ],
      "name": "NieRejected",
      "type": "event"
    },
    {
      "anonymous": false,
      "inputs": [
        {
          "indexed": false,
          "internalType": "string",
          "name": "factoryInstance",
          "type": "string"
        },
        {
          "indexed": false,
          "internalType": "address",
          "name": "factoryAddr",
          "type": "address"
        },
        {
          "indexed": false,
          "internalType": "uint256",
          "name": "timestamp",
          "type": "uint256"
        }
      ],
      "name": "NieRenewRequest",
      "type": "event"
    },
    {
      "anonymous": false,
      "inputs": [
        {
          "indexed": false,
          "internalType": "string",
          "name": "factoryInstance",
          "type": "string"
        },
        {
          "indexed": false,
          "internalType": "address",
          "name": "factoryAddr",
          "type": "address"
        },
        {
          "indexed": false,
          "internalType": "uint256",
          "name": "timestamp",
          "type": "uint256"
        }
      ],
      "name": "NieRequested",
      "type": "event"
    },
    {
      "inputs": [
        {
          "internalType": "string",
          "name": "",
          "type": "string"
        }
      ],
      "name": "DokuObatById",
      "outputs": [
        {
          "internalType": "string",
          "name": "masterFormula",
          "type": "string"
        },
        {
          "internalType": "string",
          "name": "suratKuasa",
          "type": "string"
        },
        {
          "internalType": "string",
          "name": "suratPernyataan",
          "type": "string"
        },
        {
          "internalType": "string",
          "name": "komposisiProduk",
          "type": "string"
        },
        {
          "internalType": "string",
          "name": "caraPembuatanProduk",
          "type": "string"
        },
        {
          "internalType": "string",
          "name": "spesifikasiKemasan",
          "type": "string"
        },
        {
          "internalType": "string",
          "name": "hasilUjiStabilitas",
          "type": "string"
        }
      ],
      "stateMutability": "view",
      "type": "function"
    },
    {
      "inputs": [
        {
          "internalType": "string",
          "name": "",
          "type": "string"
        }
      ],
      "name": "DokuPendukungById",
      "outputs": [
        {
          "internalType": "string",
          "name": "sertifikatAnalisaBahanBaku",
          "type": "string"
        },
        {
          "internalType": "string",
          "name": "sertifikatAnalisaProdukJadi",
          "type": "string"
        },
        {
          "internalType": "string",
          "name": "spesifikasiProdukJadi",
          "type": "string"
        },
        {
          "internalType": "string",
          "name": "sistemPenomoranBets",
          "type": "string"
        },
        {
          "internalType": "string",
          "name": "desainKemasan",
          "type": "string"
        },
        {
          "internalType": "string",
          "name": "dataPendukungKeamanan",
          "type": "string"
        }
      ],
      "stateMutability": "view",
      "type": "function"
    },
    {
      "inputs": [
        {
          "internalType": "string",
          "name": "",
          "type": "string"
        }
      ],
      "name": "NieDetailById",
      "outputs": [
        {
          "internalType": "string",
          "name": "nieNumber",
          "type": "string"
        },
        {
          "internalType": "enum EnumsLibrary.NieStatus",
          "name": "nieStatus",
          "type": "uint8"
        },
        {
          "internalType": "uint256",
          "name": "timestampProduction",
          "type": "uint256"
        },
        {
          "internalType": "uint256",
          "name": "timestampNieRequest",
          "type": "uint256"
        },
        {
          "internalType": "uint256",
          "name": "timestampNieApprove",
          "type": "uint256"
        },
        {
          "internalType": "uint256",
          "name": "timestampNieRejected",
          "type": "uint256"
        },
        {
          "internalType": "uint256",
          "name": "timestampNieRenewRequest",
          "type": "uint256"
        },
        {
          "internalType": "string",
          "name": "factoryInstance",
          "type": "string"
        },
        {
          "internalType": "string",
          "name": "bpomInstance",
          "type": "string"
        },
        {
          "internalType": "address",
          "name": "bpomAddr",
          "type": "address"
        }
      ],
      "stateMutability": "view",
      "type": "function"
    },
    {
      "inputs": [
        {
          "internalType": "string",
          "name": "",
          "type": "string"
        }
      ],
      "name": "RejectMsgById",
      "outputs": [
        {
          "internalType": "string",
          "name": "",
          "type": "string"
        }
      ],
      "stateMutability": "view",
      "type": "function"
    },
    {
      "inputs": [
        {
          "internalType": "string",
          "name": "_obatId",
          "type": "string"
        },
        {
          "internalType": "string",
          "name": "_nieNumber",
          "type": "string"
        },
        {
          "internalType": "string",
          "name": "_bpomInstance",
          "type": "string"
        }
      ],
      "name": "approveNie",
      "outputs": [],
      "stateMutability": "nonpayable",
      "type": "function"
    },
    {
      "inputs": [
        {
          "internalType": "string",
          "name": "_obatId",
          "type": "string"
        },
        {
          "internalType": "string",
          "name": "_factoryInstance",
          "type": "string"
        }
      ],
      "name": "createObatNie",
      "outputs": [],
      "stateMutability": "nonpayable",
      "type": "function"
    },
    {
      "inputs": [
        {
          "internalType": "string",
          "name": "_obatId",
          "type": "string"
        }
      ],
      "name": "getNieDetail",
      "outputs": [
        {
          "components": [
            {
              "internalType": "string",
              "name": "nieNumber",
              "type": "string"
            },
            {
              "internalType": "enum EnumsLibrary.NieStatus",
              "name": "nieStatus",
              "type": "uint8"
            },
            {
              "internalType": "uint256",
              "name": "timestampProduction",
              "type": "uint256"
            },
            {
              "internalType": "uint256",
              "name": "timestampNieRequest",
              "type": "uint256"
            },
            {
              "internalType": "uint256",
              "name": "timestampNieApprove",
              "type": "uint256"
            },
            {
              "internalType": "uint256",
              "name": "timestampNieRejected",
              "type": "uint256"
            },
            {
              "internalType": "uint256",
              "name": "timestampNieRenewRequest",
              "type": "uint256"
            },
            {
              "internalType": "string",
              "name": "factoryInstance",
              "type": "string"
            },
            {
              "internalType": "string",
              "name": "bpomInstance",
              "type": "string"
            },
            {
              "internalType": "address",
              "name": "bpomAddr",
              "type": "address"
            }
          ],
          "internalType": "struct NieManager.NieDetail",
          "name": "",
          "type": "tuple"
        },
        {
          "components": [
            {
              "internalType": "string",
              "name": "masterFormula",
              "type": "string"
            },
            {
              "internalType": "string",
              "name": "suratKuasa",
              "type": "string"
            },
            {
              "internalType": "string",
              "name": "suratPernyataan",
              "type": "string"
            },
            {
              "internalType": "string",
              "name": "komposisiProduk",
              "type": "string"
            },
            {
              "internalType": "string",
              "name": "caraPembuatanProduk",
              "type": "string"
            },
            {
              "internalType": "string",
              "name": "spesifikasiKemasan",
              "type": "string"
            },
            {
              "internalType": "string",
              "name": "hasilUjiStabilitas",
              "type": "string"
            }
          ],
          "internalType": "struct NieManager.DokumenObat",
          "name": "",
          "type": "tuple"
        },
        {
          "components": [
            {
              "internalType": "string",
              "name": "sertifikatAnalisaBahanBaku",
              "type": "string"
            },
            {
              "internalType": "string",
              "name": "sertifikatAnalisaProdukJadi",
              "type": "string"
            },
            {
              "internalType": "string",
              "name": "spesifikasiProdukJadi",
              "type": "string"
            },
            {
              "internalType": "string",
              "name": "sistemPenomoranBets",
              "type": "string"
            },
            {
              "internalType": "string",
              "name": "desainKemasan",
              "type": "string"
            },
            {
              "internalType": "string",
              "name": "dataPendukungKeamanan",
              "type": "string"
            }
          ],
          "internalType": "struct NieManager.DokumenPendukung",
          "name": "",
          "type": "tuple"
        }
      ],
      "stateMutability": "view",
      "type": "function"
    },
    {
      "inputs": [
        {
          "internalType": "string",
          "name": "_obatId",
          "type": "string"
        }
      ],
      "name": "getNieNumberAndStatus",
      "outputs": [
        {
          "internalType": "string",
          "name": "",
          "type": "string"
        },
        {
          "internalType": "uint8",
          "name": "",
          "type": "uint8"
        }
      ],
      "stateMutability": "view",
      "type": "function"
    },
    {
      "inputs": [
        {
          "internalType": "string",
          "name": "_obatId",
          "type": "string"
        }
      ],
      "name": "getRejectMsgNie",
      "outputs": [
        {
          "internalType": "string",
          "name": "",
          "type": "string"
        }
      ],
      "stateMutability": "view",
      "type": "function"
    },
    {
      "inputs": [
        {
          "internalType": "string",
          "name": "_obatId",
          "type": "string"
        },
        {
          "internalType": "string",
          "name": "_bpomInstance",
          "type": "string"
        },
        {
          "internalType": "string",
          "name": "_rejectMsg",
          "type": "string"
        }
      ],
      "name": "rejectNie",
      "outputs": [],
      "stateMutability": "nonpayable",
      "type": "function"
    },
    {
      "inputs": [
        {
          "internalType": "string",
          "name": "_obatId",
          "type": "string"
        },
        {
          "components": [
            {
              "internalType": "string",
              "name": "masterFormula",
              "type": "string"
            },
            {
              "internalType": "string",
              "name": "suratKuasa",
              "type": "string"
            },
            {
              "internalType": "string",
              "name": "suratPernyataan",
              "type": "string"
            },
            {
              "internalType": "string",
              "name": "komposisiProduk",
              "type": "string"
            },
            {
              "internalType": "string",
              "name": "caraPembuatanProduk",
              "type": "string"
            },
            {
              "internalType": "string",
              "name": "spesifikasiKemasan",
              "type": "string"
            },
            {
              "internalType": "string",
              "name": "hasilUjiStabilitas",
              "type": "string"
            }
          ],
          "internalType": "struct NieManager.DokumenObat",
          "name": "_dokuObat",
          "type": "tuple"
        },
        {
          "components": [
            {
              "internalType": "string",
              "name": "sertifikatAnalisaBahanBaku",
              "type": "string"
            },
            {
              "internalType": "string",
              "name": "sertifikatAnalisaProdukJadi",
              "type": "string"
            },
            {
              "internalType": "string",
              "name": "spesifikasiProdukJadi",
              "type": "string"
            },
            {
              "internalType": "string",
              "name": "sistemPenomoranBets",
              "type": "string"
            },
            {
              "internalType": "string",
              "name": "desainKemasan",
              "type": "string"
            },
            {
              "internalType": "string",
              "name": "dataPendukungKeamanan",
              "type": "string"
            }
          ],
          "internalType": "struct NieManager.DokumenPendukung",
          "name": "_dokuPendukung",
          "type": "tuple"
        }
      ],
      "name": "renewRequestNie",
      "outputs": [],
      "stateMutability": "nonpayable",
      "type": "function"
    },
    {
      "inputs": [
        {
          "internalType": "string",
          "name": "_obatId",
          "type": "string"
        },
        {
          "components": [
            {
              "internalType": "string",
              "name": "masterFormula",
              "type": "string"
            },
            {
              "internalType": "string",
              "name": "suratKuasa",
              "type": "string"
            },
            {
              "internalType": "string",
              "name": "suratPernyataan",
              "type": "string"
            },
            {
              "internalType": "string",
              "name": "komposisiProduk",
              "type": "string"
            },
            {
              "internalType": "string",
              "name": "caraPembuatanProduk",
              "type": "string"
            },
            {
              "internalType": "string",
              "name": "spesifikasiKemasan",
              "type": "string"
            },
            {
              "internalType": "string",
              "name": "hasilUjiStabilitas",
              "type": "string"
            }
          ],
          "internalType": "struct NieManager.DokumenObat",
          "name": "_dokuObat",
          "type": "tuple"
        },
        {
          "components": [
            {
              "internalType": "string",
              "name": "sertifikatAnalisaBahanBaku",
              "type": "string"
            },
            {
              "internalType": "string",
              "name": "sertifikatAnalisaProdukJadi",
              "type": "string"
            },
            {
              "internalType": "string",
              "name": "spesifikasiProdukJadi",
              "type": "string"
            },
            {
              "internalType": "string",
              "name": "sistemPenomoranBets",
              "type": "string"
            },
            {
              "internalType": "string",
              "name": "desainKemasan",
              "type": "string"
            },
            {
              "internalType": "string",
              "name": "dataPendukungKeamanan",
              "type": "string"
            }
          ],
          "internalType": "struct NieManager.DokumenPendukung",
          "name": "_dokuPendukung",
          "type": "tuple"
        }
      ],
      "name": "requestNie",
      "outputs": [],
      "stateMutability": "nonpayable",
      "type": "function"
    },
    {
      "inputs": [],
      "name": "roleManager",
      "outputs": [
        {
          "internalType": "contract RoleManager",
          "name": "",
          "type": "address"
        }
      ],
      "stateMutability": "view",
      "type": "function"
    }
  ],
  "bytecode": "0x608034606f57601f61372e38819003918201601f19168301916001600160401b03831184841017607357808492602094604052833981010312606f57516001600160a01b03811690819003606f575f80546001600160a01b0319169190911790556040516136a690816100888239f35b5f80fd5b634e487b7160e01b5f52604160045260245ffdfe6080806040526004361015610012575f80fd5b5f3560e01c908162435da514612fbb57508063108cbe61146121c55780631636365e146120a9578063283ef6f014611d905780632f4ba1d5146112da57806343d1b8391461191b57806374a5abcf14611880578063ac007c1a14611452578063af22bd4c14611344578063bdedf0b8146112da578063dfe55b9b146111d6578063e509070a146103eb5763f21dea86146100aa575f80fd5b346103e7576100b83661341c565b5f546040516395a8c58d60e01b815233600482015260026024820152929391929190602090839060449082906001600160a01b03165afa9081156103dc5761010c6020939284935f916103af575b506135fa565b604051928184925191829101835e810160018152030190209180516001600160401b0381116103005761013f8454613320565b601f811161037f575b506020601f821160011461031f579080610176925f91610314575b508160011b915f199060031b1c19161790565b83555b60018301600260ff198254161790554260048401556008830182516001600160401b038111610300576101ac8254613320565b601f81116102c5575b506020601f82116001146102405791610207827f98f6eda79ce4c4856715a86ecdf2cb7ece1a5de8adf3de249b2ce9017b0e581097936009955f9161023557508160011b915f199060031b1c19161790565b90555b0180546001600160a01b0319163390811790915560405192839261023092429285613632565b0390a1005b90508701515f610163565b601f19821690835f52805f20915f5b8181106102ad57509260099492600192827f98f6eda79ce4c4856715a86ecdf2cb7ece1a5de8adf3de249b2ce9017b0e58109a9610610295575b5050811b01905561020a565b8801515f1960f88460031b161c191690555f80610289565b9192602060018192868b01518155019401920161024f565b6102f090835f5260205f20601f840160051c810191602085106102f6575b601f0160051c01906134e7565b5f6101b5565b90915081906102e3565b634e487b7160e01b5f52604160045260245ffd5b90508301515f610163565b601f19821690855f52805f20915f5b8181106103675750908360019493921061034f575b5050811b018355610179565b8401515f1960f88460031b161c191690555f80610343565b9192602060018192868901518155019401920161032e565b6103a990855f5260205f20601f840160051c810191602085106102f657601f0160051c01906134e7565b5f610148565b6103cf9150843d86116103d5575b6103c7818361302f565b810190613494565b5f610106565b503d6103bd565b6040513d5f823e3d90fd5b5f80fd5b346103e7576103f9366130a5565b5f80546040516395a8c58d60e01b81523360048201526024810192909252919391602090829060449082906001600160a01b03165afa80156103dc57610446915f916111b7575b506134ac565b604051916001825193602081818601968088835e81018481520301902001600160ff19825416179055604051600383518086845e82019160018352602081429403019020015560405160208184518087835e8101600381520301902081518051906001600160401b038211610300576104bf8354613320565b601f8111611187575b50602090601f8311600114611124576104f892915f9183610b34575b50508160011b915f199060031b1c19161790565b81555b6001810160208301518051906001600160401b0382116103005761051f8354613320565b601f81116110f4575b50602090601f83116001146110915761055792915f9183610ecd5750508160011b915f199060031b1c19161790565b90555b6002810160408301518051906001600160401b0382116103005761057e8354613320565b601f8111611061575b50602090601f8311600114610ffe576105b692915f9183610ecd5750508160011b915f199060031b1c19161790565b90555b6003810160608301518051906001600160401b038211610300576105dd8354613320565b601f8111610fce575b50602090601f8311600114610f6b5761061592915f9183610ecd5750508160011b915f199060031b1c19161790565b90555b6004810160808301518051906001600160401b0382116103005761063c8354613320565b601f8111610f3b575b50602090601f8311600114610ed85761067492915f9183610ecd5750508160011b915f199060031b1c19161790565b90555b6005810160a08301518051906001600160401b0382116103005761069b8354613320565b601f8111610e9d575b50602090601f8311600114610e34578260c09593600695936106da935f92610e295750508160011b915f199060031b1c19161790565b90555b019101518051906001600160401b038211610300576106fc8354613320565b601f8111610df9575b50602090601f8311600114610d965761073492915f9183610cf85750508160011b915f199060031b1c19161790565b90555b60405160208183518086835e8101600481520301902083518051906001600160401b0382116103005761076a8354613320565b601f8111610d66575b50602090601f8311600114610d03576107a292915f9183610cf85750508160011b915f199060031b1c19161790565b81555b6001810160208501518051906001600160401b038211610300576107c98354613320565b601f8111610cc8575b50602090601f8311600114610c655761080192915f9183610b345750508160011b915f199060031b1c19161790565b90555b6002810160408501518051906001600160401b038211610300576108288354613320565b601f8111610c35575b50602090601f8311600114610bd25761086092915f9183610b345750508160011b915f199060031b1c19161790565b90555b6003810160608501518051906001600160401b038211610300576108878354613320565b601f8111610ba2575b50602090601f8311600114610b3f576108bf92915f9183610b345750508160011b915f199060031b1c19161790565b90555b6004810160808501518051906001600160401b038211610300576108e68354613320565b601f8111610b04575b50602090601f8311600114610a9b578260a0959360059593610925935f926109d35750508160011b915f199060031b1c19161790565b90555b019301519283516001600160401b038111610300576109478254613320565b601f8111610a6b575b506020601f82116001146109de579261023094926109aa836020946007977f351ab5a48b432d9a1035e20940d903771dcfec712ffe00601bad0ea1f4260f889a5f926109d35750508160011b915f199060031b1c19161790565b90555b604051928391518091835e8101600181520301902001604051918291429033908461354b565b015190508a806104e4565b601f19821695835f52815f20965f5b818110610a535750837f351ab5a48b432d9a1035e20940d903771dcfec712ffe00601bad0ea1f4260f88986007979461023099979460209760019510610a3b575b505050811b0190556109ad565b01515f1960f88460031b161c19169055898080610a2e565b838301518955600190980197602093840193016109ed565b610a9590835f5260205f20601f840160051c810191602085106102f657601f0160051c01906134e7565b85610950565b90601f19831691845f52815f20925f5b818110610aec575092600192859260a098966005989610610ad4575b505050811b019055610928565b01515f1960f88460031b161c19169055898080610ac7565b92936020600181928786015181550195019301610aab565b610b2e90845f5260205f20601f850160051c810191602086106102f657601f0160051c01906134e7565b876108ef565b0151905088806104e4565b90601f19831691845f52815f20925f5b818110610b8a5750908460019594939210610b72575b505050811b0190556108c2565b01515f1960f88460031b161c19169055878080610b65565b92936020600181928786015181550195019301610b4f565b610bcc90845f5260205f20601f850160051c810191602086106102f657601f0160051c01906134e7565b87610890565b90601f19831691845f52815f20925f5b818110610c1d5750908460019594939210610c05575b505050811b019055610863565b01515f1960f88460031b161c19169055878080610bf8565b92936020600181928786015181550195019301610be2565b610c5f90845f5260205f20601f850160051c810191602086106102f657601f0160051c01906134e7565b87610831565b90601f19831691845f52815f20925f5b818110610cb05750908460019594939210610c98575b505050811b019055610804565b01515f1960f88460031b161c19169055878080610c8b565b92936020600181928786015181550195019301610c75565b610cf290845f5260205f20601f850160051c810191602086106102f657601f0160051c01906134e7565b876107d2565b0151905087806104e4565b90601f19831691845f52815f20925f5b818110610d4e5750908460019594939210610d36575b505050811b0181556107a5565b01515f1960f88460031b161c19169055868080610d29565b92936020600181928786015181550195019301610d13565b610d9090845f5260205f20601f850160051c810191602086106102f657601f0160051c01906134e7565b86610773565b90601f19831691845f52815f20925f5b818110610de15750908460019594939210610dc9575b505050811b019055610737565b01515f1960f88460031b161c19169055868080610dbc565b92936020600181928786015181550195019301610da6565b610e2390845f5260205f20601f850160051c810191602086106102f657601f0160051c01906134e7565b86610705565b015190508b806104e4565b90601f19831691845f52815f20925f5b818110610e85575092600192859260c098966006989610610e6d575b505050811b0190556106dd565b01515f1960f88460031b161c191690558a8080610e60565b92936020600181928786015181550195019301610e44565b610ec790845f5260205f20601f850160051c810191602086106102f657601f0160051c01906134e7565b886106a4565b0151905089806104e4565b90601f19831691845f52815f20925f5b818110610f235750908460019594939210610f0b575b505050811b019055610677565b01515f1960f88460031b161c19169055888080610efe565b92936020600181928786015181550195019301610ee8565b610f6590845f5260205f20601f850160051c810191602086106102f657601f0160051c01906134e7565b88610645565b90601f19831691845f52815f20925f5b818110610fb65750908460019594939210610f9e575b505050811b019055610618565b01515f1960f88460031b161c19169055888080610f91565b92936020600181928786015181550195019301610f7b565b610ff890845f5260205f20601f850160051c810191602086106102f657601f0160051c01906134e7565b886105e6565b90601f19831691845f52815f20925f5b8181106110495750908460019594939210611031575b505050811b0190556105b9565b01515f1960f88460031b161c19169055888080611024565b9293602060018192878601518155019501930161100e565b61108b90845f5260205f20601f850160051c810191602086106102f657601f0160051c01906134e7565b88610587565b90601f19831691845f52815f20925f5b8181106110dc57509084600195949392106110c4575b505050811b01905561055a565b01515f1960f88460031b161c191690558880806110b7565b929360206001819287860151815501950193016110a1565b61111e90845f5260205f20601f850160051c810191602086106102f657601f0160051c01906134e7565b88610528565b90601f19831691845f52815f20925f5b81811061116f5750908460019594939210611157575b505050811b0181556104fb565b01515f1960f88460031b161c1916905587808061114a565b92936020600181928786015181550195019301611134565b6111b190845f5260205f20601f850160051c810191602086106102f657601f0160051c01906134e7565b876104c8565b6111d0915060203d6020116103d5576103c7818361302f565b85610440565b346103e75760203660031901126103e7576004356001600160401b0381116103e75760208061120c611290933690600401613050565b604051928184925191829101835e810160048152030190206112d661123082613358565b916112c861124060018301613358565b916112ba61125060028301613358565b6112ac61125f60038501613358565b9161129e61127b600561127460048901613358565b9701613358565b976040519b8c9b60c08d5260c08d01906133f8565b908b820360208d01526133f8565b9089820360408b01526133f8565b9087820360608901526133f8565b9085820360808701526133f8565b9083820360a08501526133f8565b0390f35b346103e75760203660031901126103e7576004356001600160401b0381116103e7576113306020806113136112d6943690600401613050565b604051928184925191829101835e81016002815203019020613358565b6040519182916020835260208301906133f8565b346103e75760203660031901126103e7576004356001600160401b0381116103e75761140a60208061137b81943690600401613050565b604051928184925191829101835e8101600181520301902061144761139f82613358565b9161143860ff600183015416936002830154600384015460048501546005860154906006870154926113d360078901613358565b946114126113e360088b01613358565b99600960018060a01b03910154169b6040519e8f9e8f9a6101408c526101408c01906133f8565b990190613487565b60408c015260608b015260808a015260a089015260c088015286820360e08801526133f8565b908482036101008601526133f8565b906101208301520390f35b346103e75760403660031901126103e7576004356001600160401b0381116103e757611482903690600401613050565b6024356001600160401b0381116103e7576114a1903690600401613050565b90604051906114af82612fdd565b6020926040516114bf858261302f565b5f81528352838301905f825260408401428152606085015f8152608086015f815260a08701915f835260c08801935f855260e08901958652604051966115058b8961302f565b5f88526101008a019788528a806101208c019a5f8c52604051928184925191829101835e81016001815203019020995180516001600160401b038111610300578b8d6115518254613320565b601f8111611851575b5050508c8d601f83116001146117eb5750819061158b935f926117e05750508160011b915f199060031b1c19161790565b8a555b60018a01905160058110156117cc5760ff801983541691161790555160028901555160038801555160048701555160058601555160068501556007840190518051906001600160401b038211610300576115e88354613320565b601f811161179e575b508690601f831160011461173b5761161f92915f9183610b345750508160011b915f199060031b1c19161790565b90555b600883019051938451906001600160401b038211610300576116448354613320565b601f811161170d575b5080601f83116001146116a55750908061167f92600996975f92610cf85750508160011b915f199060031b1c19161790565b90555b51910180546001600160a01b0319166001600160a01b0392909216919091179055005b90601f19831696845f52825f20925f905b8982106116f55750509083929160019460099899106116dd575b505050811b019055611682565b01515f1960f88460031b161c191690558680806116d0565b806001859682949686015181550195019301906116b6565b61173590845f52825f20601f850160051c8101918486106102f657601f0160051c01906134e7565b8661164d565b90601f19831691845f52885f20925f5b8a828210611788575050908460019594939210611770575b505050811b019055611622565b01515f1960f88460031b161c19169055878080611763565b600185968293968601518155019501930161174b565b6117c690845f52885f20601f850160051c8101918a86106102f657601f0160051c01906134e7565b876115f1565b634e487b7160e01b5f52602160045260245ffd5b015190508e806104e4565b5f8e8152818120939491601f19861691905b828210611839575050908460019594939210611821575b505050811b018a5561158e565b01515f1960f88460031b161c191690558d8080611814565b806001869782949787015181550196019401906117fd565b611878925f52815f2090601f850160051c82019285106102f657601f0160051c01906134e7565b8b8d8f61155a565b346103e75760203660031901126103e7576004356001600160401b0381116103e7576118b0903690600401613050565b60ff600160405160208451918181818801948086835e81018681520301902094604051928391518091835e81018481520301902001541660058110156117cc576118fc61191192613358565b906040519283926040845260408401906133f8565b9060208301520390f35b346103e75760203660031901126103e7576004356001600160401b0381116103e75761194b903690600401613050565b5f61012060405161195b81612fdd565b606081528260208201528260408201528260608201528260808201528260a08201528260c0820152606060e082015260606101008201520152606060c06040516119a481612ff9565b82815282602082015282604082015282808201528260808201528260a08201520152606060a06040516119d681613014565b82815282602082015282604082015282808201528260808201520152604051815190602081818501938085835e81016001815203019020906020604051818186518086835e8101600381520301902093604051928391518091835e810160048152030190209060405191611a4983612fdd565b611a5282613358565b835260ff6001830154169160058310156117cc576112d6926020850152600281015460408501526003810154606085015260048101546080850152600581015460a0850152600681015460c0850152611aad60078201613358565b60e0850152611abe60088201613358565b610100850152600901546001600160a01b031661012084015260405193611b5190600690611aeb87612ff9565b611af481613358565b8752611b0260018201613358565b6020880152611b1360028201613358565b6040880152611b2460038201613358565b6060880152611b3560048201613358565b6080880152611b4660058201613358565b60a088015201613358565b60c0850152611bbd600560405192611b6884613014565b611b7181613358565b8452611b7f60018201613358565b6020850152611b9060028201613358565b6040850152611ba160038201613358565b6060850152611bb260048201613358565b608085015201613358565b60a0820152611d0e60405194859460608652611c62611c4a611bed835161014060608b01526101a08a01906133f8565b611bff602085015160808b0190613487565b604084015160a08a0152606084015160c08a0152608084015160e08a015260a08401516101008a015260c08401516101208a015260e0840151605f198a8303016101408b01526133f8565b610100830151888203605f19016101608a01526133f8565b9061012060018060a01b0391015116610180870152858103602087015260c0611cfd611ceb611cd9611cc7611cb5611ca3885160e0895260e08901906133f8565b602089015188820360208a01526133f8565b604088015187820360408901526133f8565b606087015186820360608801526133f8565b608086015185820360808701526133f8565b60a085015184820360a08601526133f8565b9201519060c08184039101526133f8565b838103604085015260a0611d7f611d6d611d5b611d49611d37875160c0885260c08801906133f8565b602088015187820360208901526133f8565b604087015186820360408801526133f8565b606086015185820360608701526133f8565b608085015184820360808601526133f8565b9201519060a08184039101526133f8565b346103e757611d9e3661341c565b5f546040516395a8c58d60e01b81523360048201526002602482015291929190602090829060449082906001600160a01b03165afa80156103dc57611de9915f9161208a57506135fa565b604051835190602081818701938085835e810160018152030190209360018501600360ff1982541617905560088501948351956001600160401b03871161030057611e348154613320565b601f811161205a575b50602096601f8111600114611ff65780611e70916020969798995f91611feb57508160011b915f199060031b1c19161790565b90555b6009810180546001600160a01b0319163317905542600590910155604051905190928391908190835e81016002815203019020918051926001600160401b03841161030057611ec28154613320565b601f8111611fbb575b50602093601f8111600114611f3b5780611f1a917f81b3714f32e3dd3d8faa1a5f7732e52e015be62219a6eae68d1a779f682db80b965f91611f3057508160011b915f199060031b1c19161790565b90555b6102306040519283924291339085613632565b905084015187610163565b601f198116825f52855f20905f5b818110611fa35750907f81b3714f32e3dd3d8faa1a5f7732e52e015be62219a6eae68d1a779f682db80b96836001949310611f8b575b5050811b019055611f1d565b8501515f1960f88460031b161c191690558680611f7f565b85880151835560209788019760019093019201611f49565b611fe590825f5260205f20601f870160051c810191602088106102f657601f0160051c01906134e7565b84611ecb565b90508801518a610163565b601f198116825f52885f20905f5b81811061204257509060209697989983600194931061202a575b5050811b019055611e73565b8901515f1960f88460031b161c19169055898061201e565b888b0151835560209a8b019a60019093019201612004565b61208490825f5260205f20601f8a0160051c81019160208b106102f657601f0160051c01906134e7565b87611e3d565b6120a3915060203d6020116103d5576103c7818361302f565b85610106565b346103e75760203660031901126103e7576004356001600160401b0381116103e75760206120dc81923690600401613050565b604051928184925191829101835e8101600381520301902060e06112d661210283613358565b926121b761211260018301613358565b916121a961212260028301613358565b61219b61213160038501613358565b61218d61214060048701613358565b9361217f61215c600661215560058b01613358565b9901613358565b996121716040519e8f9e8f81815201906133f8565b8d810360208f0152906133f8565b908b820360408d01526133f8565b9089820360608b01526133f8565b9087820360808901526133f8565b9085820360a08701526133f8565b9083820360c08501526133f8565b346103e7576121d3366130a5565b5f80546040516395a8c58d60e01b81523360048201526024810192909252919391602090829060449082906001600160a01b03165afa80156103dc5761221f915f916111b757506134ac565b60405191815192602081818501958087835e8101600181520301902060018101600460ff198254161790556006429101556122b6600660405160208186518089835e81016003815203019020612274816134fd565b612280600182016134fd565b61228c600282016134fd565b612298600382016134fd565b6122a4600482016134fd565b6122b0600582016134fd565b016134fd565b61230a600560405160208186518089835e810160048152030190206122da816134fd565b6122e6600182016134fd565b6122f2600282016134fd565b6122fe600382016134fd565b6122b0600482016134fd565b60405160208184518087835e8101600381520301902081518051906001600160401b0382116103005761233d8354613320565b601f8111612f8b575b50602090601f8311600114612f285761237592915f9183610b345750508160011b915f199060031b1c19161790565b81555b6001810160208301518051906001600160401b0382116103005761239c8354613320565b601f8111612ef8575b50602090601f8311600114612e95576123d492915f9183610ecd5750508160011b915f199060031b1c19161790565b90555b6002810160408301518051906001600160401b038211610300576123fb8354613320565b601f8111612e65575b50602090601f8311600114612e025761243392915f9183610ecd5750508160011b915f199060031b1c19161790565b90555b6003810160608301518051906001600160401b0382116103005761245a8354613320565b601f8111612dd2575b50602090601f8311600114612d6f5761249292915f9183610ecd5750508160011b915f199060031b1c19161790565b90555b6004810160808301518051906001600160401b038211610300576124b98354613320565b601f8111612d3f575b50602090601f8311600114612cdc576124f192915f9183610ecd5750508160011b915f199060031b1c19161790565b90555b6005810160a08301518051906001600160401b038211610300576125188354613320565b601f8111612cac575b50602090601f8311600114612c43578260c0959360069593612557935f92610e295750508160011b915f199060031b1c19161790565b90555b019101518051906001600160401b038211610300576125798354613320565b601f8111612c13575b50602090601f8311600114612bb0576125b192915f9183610cf85750508160011b915f199060031b1c19161790565b90555b60405160208183518086835e8101600481520301902083518051906001600160401b038211610300576125e78354613320565b601f8111612b80575b50602090601f8311600114612b1d5761261f92915f9183610cf85750508160011b915f199060031b1c19161790565b81555b6001810160208501518051906001600160401b038211610300576126468354613320565b601f8111612aed575b50602090601f8311600114612a8a5761267e92915f9183610b345750508160011b915f199060031b1c19161790565b90555b6002810160408501518051906001600160401b038211610300576126a58354613320565b601f8111612a5a575b50602090601f83116001146129f7576126dd92915f9183610b345750508160011b915f199060031b1c19161790565b90555b6003810160608501518051906001600160401b038211610300576127048354613320565b601f81116129c7575b50602090601f83116001146129645761273c92915f9183610b345750508160011b915f199060031b1c19161790565b90555b6004810160808501518051906001600160401b038211610300576127638354613320565b601f8111612934575b50602090601f83116001146128cb578260a09593600595936127a2935f926109d35750508160011b915f199060031b1c19161790565b90555b019301519283516001600160401b038111610300576127c48254613320565b601f811161289b575b506020601f8211600114612827579261023094926109aa836020946007977fbe8dfefda19edb2ea695885130355727f7788a97d4b87a6612a78ee860ea23ab9a5f926109d35750508160011b915f199060031b1c19161790565b601f19821695835f52815f20965f5b8181106128835750837fbe8dfefda19edb2ea695885130355727f7788a97d4b87a6612a78ee860ea23ab986007979461023099979460209760019510610a3b57505050811b0190556109ad565b83830151895560019098019760209384019301612836565b6128c590835f5260205f20601f840160051c810191602085106102f657601f0160051c01906134e7565b856127cd565b90601f19831691845f52815f20925f5b81811061291c575092600192859260a098966005989610612904575b505050811b0190556127a5565b01515f1960f88460031b161c191690558980806128f7565b929360206001819287860151815501950193016128db565b61295e90845f5260205f20601f850160051c810191602086106102f657601f0160051c01906134e7565b8761276c565b90601f19831691845f52815f20925f5b8181106129af5750908460019594939210612997575b505050811b01905561273f565b01515f1960f88460031b161c1916905587808061298a565b92936020600181928786015181550195019301612974565b6129f190845f5260205f20601f850160051c810191602086106102f657601f0160051c01906134e7565b8761270d565b90601f19831691845f52815f20925f5b818110612a425750908460019594939210612a2a575b505050811b0190556126e0565b01515f1960f88460031b161c19169055878080612a1d565b92936020600181928786015181550195019301612a07565b612a8490845f5260205f20601f850160051c810191602086106102f657601f0160051c01906134e7565b876126ae565b90601f19831691845f52815f20925f5b818110612ad55750908460019594939210612abd575b505050811b019055612681565b01515f1960f88460031b161c19169055878080612ab0565b92936020600181928786015181550195019301612a9a565b612b1790845f5260205f20601f850160051c810191602086106102f657601f0160051c01906134e7565b8761264f565b90601f19831691845f52815f20925f5b818110612b685750908460019594939210612b50575b505050811b018155612622565b01515f1960f88460031b161c19169055868080612b43565b92936020600181928786015181550195019301612b2d565b612baa90845f5260205f20601f850160051c810191602086106102f657601f0160051c01906134e7565b866125f0565b90601f19831691845f52815f20925f5b818110612bfb5750908460019594939210612be3575b505050811b0190556125b4565b01515f1960f88460031b161c19169055868080612bd6565b92936020600181928786015181550195019301612bc0565b612c3d90845f5260205f20601f850160051c810191602086106102f657601f0160051c01906134e7565b86612582565b90601f19831691845f52815f20925f5b818110612c94575092600192859260c098966006989610612c7c575b505050811b01905561255a565b01515f1960f88460031b161c191690558a8080612c6f565b92936020600181928786015181550195019301612c53565b612cd690845f5260205f20601f850160051c810191602086106102f657601f0160051c01906134e7565b88612521565b90601f19831691845f52815f20925f5b818110612d275750908460019594939210612d0f575b505050811b0190556124f4565b01515f1960f88460031b161c19169055888080612d02565b92936020600181928786015181550195019301612cec565b612d6990845f5260205f20601f850160051c810191602086106102f657601f0160051c01906134e7565b886124c2565b90601f19831691845f52815f20925f5b818110612dba5750908460019594939210612da2575b505050811b019055612495565b01515f1960f88460031b161c19169055888080612d95565b92936020600181928786015181550195019301612d7f565b612dfc90845f5260205f20601f850160051c810191602086106102f657601f0160051c01906134e7565b88612463565b90601f19831691845f52815f20925f5b818110612e4d5750908460019594939210612e35575b505050811b019055612436565b01515f1960f88460031b161c19169055888080612e28565b92936020600181928786015181550195019301612e12565b612e8f90845f5260205f20601f850160051c810191602086106102f657601f0160051c01906134e7565b88612404565b90601f19831691845f52815f20925f5b818110612ee05750908460019594939210612ec8575b505050811b0190556123d7565b01515f1960f88460031b161c19169055888080612ebb565b92936020600181928786015181550195019301612ea5565b612f2290845f5260205f20601f850160051c810191602086106102f657601f0160051c01906134e7565b886123a5565b90601f19831691845f52815f20925f5b818110612f735750908460019594939210612f5b575b505050811b018155612378565b01515f1960f88460031b161c19169055878080612f4e565b92936020600181928786015181550195019301612f38565b612fb590845f5260205f20601f850160051c810191602086106102f657601f0160051c01906134e7565b87612346565b346103e7575f3660031901126103e7575f546001600160a01b03168152602090f35b61014081019081106001600160401b0382111761030057604052565b60e081019081106001600160401b0382111761030057604052565b60c081019081106001600160401b0382111761030057604052565b90601f801991011681019081106001600160401b0382111761030057604052565b81601f820112156103e7578035906001600160401b0382116103005760405192613084601f8401601f19166020018561302f565b828452602083830101116103e757815f926020809301838601378301015290565b60606003198201126103e7576004356001600160401b0381116103e757816130cf91600401613050565b916024356001600160401b0381116103e75760e081840360031901126103e757604051906130fc82612ff9565b80600401356001600160401b0381116103e75784600461311e92840101613050565b825260248101356001600160401b0381116103e75784600461314292840101613050565b602083015260448101356001600160401b0381116103e75784600461316992840101613050565b604083015260648101356001600160401b0381116103e75784600461319092840101613050565b606083015260848101356001600160401b0381116103e7578460046131b792840101613050565b608083015260a48101356001600160401b0381116103e7578460046131de92840101613050565b60a083015260c48101356001600160401b0381116103e75760048591613205930101613050565b60c0820152916044356001600160401b0381116103e75760c081830360031901126103e7576040519161323783613014565b81600401356001600160401b0381116103e75781600461325992850101613050565b835260248201356001600160401b0381116103e75781600461327d92850101613050565b602084015260448201356001600160401b0381116103e7578160046132a492850101613050565b604084015260648201356001600160401b0381116103e7578160046132cb92850101613050565b606084015260848201356001600160401b0381116103e7578160046132f292850101613050565b608084015260a4820135916001600160401b0383116103e7576133189201600401613050565b60a082015290565b90600182811c9216801561334e575b602083101461333a57565b634e487b7160e01b5f52602260045260245ffd5b91607f169161332f565b9060405191825f82549261336b84613320565b80845293600181169081156133d65750600114613392575b506133909250038361302f565b565b90505f9291925260205f20905f915b8183106133ba575050906020613390928201015f613383565b60209193508060019154838589010152019101909184926133a1565b90506020925061339094915060ff191682840152151560051b8201015f613383565b805180835260209291819084018484015e5f828201840152601f01601f1916010190565b60606003198201126103e7576004356001600160401b0381116103e7578161344691600401613050565b916024356001600160401b0381116103e7578261346591600401613050565b91604435906001600160401b0382116103e75761348491600401613050565b90565b9060058210156117cc5752565b908160209103126103e7575180151581036103e75790565b156134b357565b60405162461bcd60e51b815260206004820152600c60248201526b4f6e6c7920466163746f727960a01b6044820152606490fd5b8181106134f2575050565b5f81556001016134e7565b6135078154613320565b9081613511575050565b81601f5f9311600114613522575055565b8183526020832061353e91601f0160051c8101906001016134e7565b8082528160208120915555565b9093929193606082525f9080549061356282613320565b918260608601526001811690815f146135d65750600114613596575b50506001600160a01b03909416602082015260400152565b5f90815260208120939250905b8082106135bb5750909150810160800160405f61357e565b919260018160209254608085880101520191019092916135a3565b90506040949350608092915060ff191682840152151560051b82010190915f61357e565b1561360157565b60405162461bcd60e51b81526020600482015260096024820152684f6e6c792042504f4d60b81b6044820152606490fd5b9493929160609261364e61366b936080895260808901906133f8565b6001600160a01b03909216602088015286820360408801526133f8565b93015256fea264697066735822122081f082b14953522060477d7f1099478c539599d5bb2b8adc29f74c406d62a86864736f6c634300081b0033",
  "linkReferences": {},
  "deployedLinkReferences": {}
}