{
  "_format": "hh-sol-artifact-1",
  "contractName": "NieManager",
  "sourceName": "contracts/NieManager.sol",
  "abi": [
    {
      "inputs": [
        {
          "internalType": "address",
          "name": "_roleManagerAddr",
          "type": "address"
        }
      ],
      "stateMutability": "nonpayable",
      "type": "constructor"
    },
    {
      "anonymous": false,
      "inputs": [
        {
          "indexed": false,
          "internalType": "string",
          "name": "bpomInstance",
          "type": "string"
        },
        {
          "indexed": false,
          "internalType": "address",
          "name": "bpomAddr",
          "type": "address"
        },
        {
          "indexed": false,
          "internalType": "string",
          "name": "nieNumber",
          "type": "string"
        },
        {
          "indexed": false,
          "internalType": "uint256",
          "name": "tiemstamp",
          "type": "uint256"
        }
      ],
      "name": "evt_nieApproved",
      "type": "event"
    },
    {
      "anonymous": false,
      "inputs": [
        {
          "indexed": false,
          "internalType": "string",
          "name": "bpomInstance",
          "type": "string"
        },
        {
          "indexed": false,
          "internalType": "address",
          "name": "bpomAddr",
          "type": "address"
        },
        {
          "indexed": false,
          "internalType": "string",
          "name": "rejectMsg",
          "type": "string"
        },
        {
          "indexed": false,
          "internalType": "uint256",
          "name": "tiemstamp",
          "type": "uint256"
        }
      ],
      "name": "evt_nieRejected",
      "type": "event"
    },
    {
      "anonymous": false,
      "inputs": [
        {
          "indexed": false,
          "internalType": "string",
          "name": "factoryInstance",
          "type": "string"
        },
        {
          "indexed": false,
          "internalType": "address",
          "name": "factoryAddr",
          "type": "address"
        },
        {
          "indexed": false,
          "internalType": "uint256",
          "name": "timestamp",
          "type": "uint256"
        }
      ],
      "name": "evt_nieRenewRequest",
      "type": "event"
    },
    {
      "anonymous": false,
      "inputs": [
        {
          "indexed": false,
          "internalType": "string",
          "name": "factoryInstance",
          "type": "string"
        },
        {
          "indexed": false,
          "internalType": "address",
          "name": "factoryAddr",
          "type": "address"
        },
        {
          "indexed": false,
          "internalType": "uint256",
          "name": "timestamp",
          "type": "uint256"
        }
      ],
      "name": "evt_nieRequested",
      "type": "event"
    },
    {
      "inputs": [
        {
          "internalType": "string",
          "name": "_obatId",
          "type": "string"
        },
        {
          "internalType": "string",
          "name": "_nieNumber",
          "type": "string"
        },
        {
          "internalType": "string",
          "name": "_bpomInstance",
          "type": "string"
        }
      ],
      "name": "approveNie",
      "outputs": [],
      "stateMutability": "nonpayable",
      "type": "function"
    },
    {
      "inputs": [
        {
          "internalType": "string",
          "name": "_obatId",
          "type": "string"
        },
        {
          "internalType": "string",
          "name": "_factoryInstance",
          "type": "string"
        }
      ],
      "name": "createObatNie",
      "outputs": [],
      "stateMutability": "nonpayable",
      "type": "function"
    },
    {
      "inputs": [
        {
          "internalType": "string",
          "name": "",
          "type": "string"
        }
      ],
      "name": "dokuObatByObatId",
      "outputs": [
        {
          "internalType": "string",
          "name": "masterFormula",
          "type": "string"
        },
        {
          "internalType": "string",
          "name": "suratKuasa",
          "type": "string"
        },
        {
          "internalType": "string",
          "name": "suratPernyataan",
          "type": "string"
        },
        {
          "internalType": "string",
          "name": "komposisiProduk",
          "type": "string"
        },
        {
          "internalType": "string",
          "name": "caraPembuatanProduk",
          "type": "string"
        },
        {
          "internalType": "string",
          "name": "spesifikasiKemasan",
          "type": "string"
        },
        {
          "internalType": "string",
          "name": "hasilUjiStabilitas",
          "type": "string"
        }
      ],
      "stateMutability": "view",
      "type": "function"
    },
    {
      "inputs": [
        {
          "internalType": "string",
          "name": "",
          "type": "string"
        }
      ],
      "name": "dokuSpesifikasiByObatId",
      "outputs": [
        {
          "internalType": "string",
          "name": "sertifikatAnalisaBahanBaku",
          "type": "string"
        },
        {
          "internalType": "string",
          "name": "sertifikatAnalisaProdukJadi",
          "type": "string"
        },
        {
          "internalType": "string",
          "name": "spesifikasiProdukJadi",
          "type": "string"
        },
        {
          "internalType": "string",
          "name": "sistemPenomoranBets",
          "type": "string"
        },
        {
          "internalType": "string",
          "name": "desainKemasan",
          "type": "string"
        },
        {
          "internalType": "string",
          "name": "dataPendukungKeamanan",
          "type": "string"
        }
      ],
      "stateMutability": "view",
      "type": "function"
    },
    {
      "inputs": [
        {
          "internalType": "string",
          "name": "_obatId",
          "type": "string"
        }
      ],
      "name": "getNieDetail",
      "outputs": [
        {
          "components": [
            {
              "internalType": "string",
              "name": "nieNumber",
              "type": "string"
            },
            {
              "internalType": "enum EnumsLibrary.NieStatus",
              "name": "nieStatus",
              "type": "uint8"
            },
            {
              "internalType": "uint256",
              "name": "timestampProduction",
              "type": "uint256"
            },
            {
              "internalType": "uint256",
              "name": "timestampNieRequest",
              "type": "uint256"
            },
            {
              "internalType": "uint256",
              "name": "timestampNieApprove",
              "type": "uint256"
            },
            {
              "internalType": "uint256",
              "name": "timestampNieRejected",
              "type": "uint256"
            },
            {
              "internalType": "uint256",
              "name": "timestampNieRenewRequest",
              "type": "uint256"
            },
            {
              "internalType": "string",
              "name": "factoryInstance",
              "type": "string"
            },
            {
              "internalType": "string",
              "name": "bpomInstance",
              "type": "string"
            },
            {
              "internalType": "address",
              "name": "bpomAddr",
              "type": "address"
            }
          ],
          "internalType": "struct NieManager.st_NieDetails",
          "name": "",
          "type": "tuple"
        },
        {
          "components": [
            {
              "internalType": "string",
              "name": "masterFormula",
              "type": "string"
            },
            {
              "internalType": "string",
              "name": "suratKuasa",
              "type": "string"
            },
            {
              "internalType": "string",
              "name": "suratPernyataan",
              "type": "string"
            },
            {
              "internalType": "string",
              "name": "komposisiProduk",
              "type": "string"
            },
            {
              "internalType": "string",
              "name": "caraPembuatanProduk",
              "type": "string"
            },
            {
              "internalType": "string",
              "name": "spesifikasiKemasan",
              "type": "string"
            },
            {
              "internalType": "string",
              "name": "hasilUjiStabilitas",
              "type": "string"
            }
          ],
          "internalType": "struct NieManager.st_dokumenObat",
          "name": "",
          "type": "tuple"
        },
        {
          "components": [
            {
              "internalType": "string",
              "name": "sertifikatAnalisaBahanBaku",
              "type": "string"
            },
            {
              "internalType": "string",
              "name": "sertifikatAnalisaProdukJadi",
              "type": "string"
            },
            {
              "internalType": "string",
              "name": "spesifikasiProdukJadi",
              "type": "string"
            },
            {
              "internalType": "string",
              "name": "sistemPenomoranBets",
              "type": "string"
            },
            {
              "internalType": "string",
              "name": "desainKemasan",
              "type": "string"
            },
            {
              "internalType": "string",
              "name": "dataPendukungKeamanan",
              "type": "string"
            }
          ],
          "internalType": "struct NieManager.st_dokumenSpesifikasiObat",
          "name": "",
          "type": "tuple"
        }
      ],
      "stateMutability": "view",
      "type": "function"
    },
    {
      "inputs": [
        {
          "internalType": "string",
          "name": "_obatId",
          "type": "string"
        }
      ],
      "name": "getNieNumberAndStatus",
      "outputs": [
        {
          "internalType": "string",
          "name": "",
          "type": "string"
        },
        {
          "internalType": "uint8",
          "name": "",
          "type": "uint8"
        }
      ],
      "stateMutability": "view",
      "type": "function"
    },
    {
      "inputs": [
        {
          "internalType": "string",
          "name": "_obatId",
          "type": "string"
        }
      ],
      "name": "getRejectMsgNie",
      "outputs": [
        {
          "internalType": "string",
          "name": "",
          "type": "string"
        }
      ],
      "stateMutability": "view",
      "type": "function"
    },
    {
      "inputs": [
        {
          "internalType": "string",
          "name": "",
          "type": "string"
        }
      ],
      "name": "nieDetailsByObatId",
      "outputs": [
        {
          "internalType": "string",
          "name": "nieNumber",
          "type": "string"
        },
        {
          "internalType": "enum EnumsLibrary.NieStatus",
          "name": "nieStatus",
          "type": "uint8"
        },
        {
          "internalType": "uint256",
          "name": "timestampProduction",
          "type": "uint256"
        },
        {
          "internalType": "uint256",
          "name": "timestampNieRequest",
          "type": "uint256"
        },
        {
          "internalType": "uint256",
          "name": "timestampNieApprove",
          "type": "uint256"
        },
        {
          "internalType": "uint256",
          "name": "timestampNieRejected",
          "type": "uint256"
        },
        {
          "internalType": "uint256",
          "name": "timestampNieRenewRequest",
          "type": "uint256"
        },
        {
          "internalType": "string",
          "name": "factoryInstance",
          "type": "string"
        },
        {
          "internalType": "string",
          "name": "bpomInstance",
          "type": "string"
        },
        {
          "internalType": "address",
          "name": "bpomAddr",
          "type": "address"
        }
      ],
      "stateMutability": "view",
      "type": "function"
    },
    {
      "inputs": [
        {
          "internalType": "string",
          "name": "",
          "type": "string"
        }
      ],
      "name": "rejectMsgbyId",
      "outputs": [
        {
          "internalType": "string",
          "name": "",
          "type": "string"
        }
      ],
      "stateMutability": "view",
      "type": "function"
    },
    {
      "inputs": [
        {
          "internalType": "string",
          "name": "_obatId",
          "type": "string"
        },
        {
          "internalType": "string",
          "name": "_bpomInstance",
          "type": "string"
        },
        {
          "internalType": "string",
          "name": "_rejectMsg",
          "type": "string"
        }
      ],
      "name": "rejectNie",
      "outputs": [],
      "stateMutability": "nonpayable",
      "type": "function"
    },
    {
      "inputs": [
        {
          "internalType": "string",
          "name": "_obatId",
          "type": "string"
        },
        {
          "components": [
            {
              "internalType": "string",
              "name": "masterFormula",
              "type": "string"
            },
            {
              "internalType": "string",
              "name": "suratKuasa",
              "type": "string"
            },
            {
              "internalType": "string",
              "name": "suratPernyataan",
              "type": "string"
            },
            {
              "internalType": "string",
              "name": "komposisiProduk",
              "type": "string"
            },
            {
              "internalType": "string",
              "name": "caraPembuatanProduk",
              "type": "string"
            },
            {
              "internalType": "string",
              "name": "spesifikasiKemasan",
              "type": "string"
            },
            {
              "internalType": "string",
              "name": "hasilUjiStabilitas",
              "type": "string"
            }
          ],
          "internalType": "struct NieManager.st_dokumenObat",
          "name": "_dokuObat",
          "type": "tuple"
        },
        {
          "components": [
            {
              "internalType": "string",
              "name": "sertifikatAnalisaBahanBaku",
              "type": "string"
            },
            {
              "internalType": "string",
              "name": "sertifikatAnalisaProdukJadi",
              "type": "string"
            },
            {
              "internalType": "string",
              "name": "spesifikasiProdukJadi",
              "type": "string"
            },
            {
              "internalType": "string",
              "name": "sistemPenomoranBets",
              "type": "string"
            },
            {
              "internalType": "string",
              "name": "desainKemasan",
              "type": "string"
            },
            {
              "internalType": "string",
              "name": "dataPendukungKeamanan",
              "type": "string"
            }
          ],
          "internalType": "struct NieManager.st_dokumenSpesifikasiObat",
          "name": "_dokuSpefikasi",
          "type": "tuple"
        }
      ],
      "name": "renewRequestNie",
      "outputs": [],
      "stateMutability": "nonpayable",
      "type": "function"
    },
    {
      "inputs": [
        {
          "internalType": "string",
          "name": "_obatId",
          "type": "string"
        },
        {
          "components": [
            {
              "internalType": "string",
              "name": "masterFormula",
              "type": "string"
            },
            {
              "internalType": "string",
              "name": "suratKuasa",
              "type": "string"
            },
            {
              "internalType": "string",
              "name": "suratPernyataan",
              "type": "string"
            },
            {
              "internalType": "string",
              "name": "komposisiProduk",
              "type": "string"
            },
            {
              "internalType": "string",
              "name": "caraPembuatanProduk",
              "type": "string"
            },
            {
              "internalType": "string",
              "name": "spesifikasiKemasan",
              "type": "string"
            },
            {
              "internalType": "string",
              "name": "hasilUjiStabilitas",
              "type": "string"
            }
          ],
          "internalType": "struct NieManager.st_dokumenObat",
          "name": "_dokuObat",
          "type": "tuple"
        },
        {
          "components": [
            {
              "internalType": "string",
              "name": "sertifikatAnalisaBahanBaku",
              "type": "string"
            },
            {
              "internalType": "string",
              "name": "sertifikatAnalisaProdukJadi",
              "type": "string"
            },
            {
              "internalType": "string",
              "name": "spesifikasiProdukJadi",
              "type": "string"
            },
            {
              "internalType": "string",
              "name": "sistemPenomoranBets",
              "type": "string"
            },
            {
              "internalType": "string",
              "name": "desainKemasan",
              "type": "string"
            },
            {
              "internalType": "string",
              "name": "dataPendukungKeamanan",
              "type": "string"
            }
          ],
          "internalType": "struct NieManager.st_dokumenSpesifikasiObat",
          "name": "_dokuSpefikasi",
          "type": "tuple"
        }
      ],
      "name": "requestNie",
      "outputs": [],
      "stateMutability": "nonpayable",
      "type": "function"
    },
    {
      "inputs": [],
      "name": "roleManager",
      "outputs": [
        {
          "internalType": "contract RoleManager",
          "name": "",
          "type": "address"
        }
      ],
      "stateMutability": "view",
      "type": "function"
    }
  ],
  "bytecode": "0x608034606f57601f61372e38819003918201601f19168301916001600160401b03831184841017607357808492602094604052833981010312606f57516001600160a01b03811690819003606f575f80546001600160a01b0319169190911790556040516136a690816100888239f35b5f80fd5b634e487b7160e01b5f52604160045260245ffdfe6080806040526004361015610012575f80fd5b5f3560e01c908162435da514612fbb575080630ce24e9914612ebb57806310159dfe146111d6578063108cbe61146120c557806326a2c25c14611fa9578063283ef6f014611c9057806343d1b8391461181b57806374a5abcf14611780578063ac007c1a14611352578063af0088b214611244578063bdedf0b8146111d6578063e509070a146103eb5763f21dea86146100aa575f80fd5b346103e7576100b83661341c565b5f546040516395a8c58d60e01b815233600482015260026024820152929391929190602090839060449082906001600160a01b03165afa9081156103dc5761010c6020939284935f916103af575b506135fa565b604051928184925191829101835e810160018152030190209180516001600160401b0381116103005761013f84546130a5565b601f811161037f575b506020601f821160011461031f579080610176925f91610314575b508160011b915f199060031b1c19161790565b83555b60018301600260ff198254161790554260048401556008830182516001600160401b038111610300576101ac82546130a5565b601f81116102c5575b506020601f82116001146102405791610207827f40bd250f4e1cad69631af5d42189453e9c51f25278bd4232fe29ed01aa2f6ee497936009955f9161023557508160011b915f199060031b1c19161790565b90555b0180546001600160a01b0319163390811790915560405192839261023092429285613632565b0390a1005b90508701515f610163565b601f19821690835f52805f20915f5b8181106102ad57509260099492600192827f40bd250f4e1cad69631af5d42189453e9c51f25278bd4232fe29ed01aa2f6ee49a9610610295575b5050811b01905561020a565b8801515f1960f88460031b161c191690555f80610289565b9192602060018192868b01518155019401920161024f565b6102f090835f5260205f20601f840160051c810191602085106102f6575b601f0160051c01906134e7565b5f6101b5565b90915081906102e3565b634e487b7160e01b5f52604160045260245ffd5b90508301515f610163565b601f19821690855f52805f20915f5b8181106103675750908360019493921061034f575b5050811b018355610179565b8401515f1960f88460031b161c191690555f80610343565b9192602060018192868901518155019401920161032e565b6103a990855f5260205f20601f840160051c810191602085106102f657601f0160051c01906134e7565b5f610148565b6103cf9150843d86116103d5575b6103c7818361302f565b810190613494565b5f610106565b503d6103bd565b6040513d5f823e3d90fd5b5f80fd5b346103e7576103f9366131a1565b5f80546040516395a8c58d60e01b81523360048201526024810192909252919391602090829060449082906001600160a01b03165afa80156103dc57610446915f916111b7575b506134ac565b604051916001825193602081818601968088835e81018481520301902001600160ff19825416179055604051600383518086845e82019160018352602081429403019020015560405160208184518087835e8101600381520301902081518051906001600160401b038211610300576104bf83546130a5565b601f8111611187575b50602090601f8311600114611124576104f892915f9183610b34575b50508160011b915f199060031b1c19161790565b81555b6001810160208301518051906001600160401b0382116103005761051f83546130a5565b601f81116110f4575b50602090601f83116001146110915761055792915f9183610ecd5750508160011b915f199060031b1c19161790565b90555b6002810160408301518051906001600160401b0382116103005761057e83546130a5565b601f8111611061575b50602090601f8311600114610ffe576105b692915f9183610ecd5750508160011b915f199060031b1c19161790565b90555b6003810160608301518051906001600160401b038211610300576105dd83546130a5565b601f8111610fce575b50602090601f8311600114610f6b5761061592915f9183610ecd5750508160011b915f199060031b1c19161790565b90555b6004810160808301518051906001600160401b0382116103005761063c83546130a5565b601f8111610f3b575b50602090601f8311600114610ed85761067492915f9183610ecd5750508160011b915f199060031b1c19161790565b90555b6005810160a08301518051906001600160401b0382116103005761069b83546130a5565b601f8111610e9d575b50602090601f8311600114610e34578260c09593600695936106da935f92610e295750508160011b915f199060031b1c19161790565b90555b019101518051906001600160401b038211610300576106fc83546130a5565b601f8111610df9575b50602090601f8311600114610d965761073492915f9183610cf85750508160011b915f199060031b1c19161790565b90555b60405160208183518086835e8101600481520301902083518051906001600160401b0382116103005761076a83546130a5565b601f8111610d66575b50602090601f8311600114610d03576107a292915f9183610cf85750508160011b915f199060031b1c19161790565b81555b6001810160208501518051906001600160401b038211610300576107c983546130a5565b601f8111610cc8575b50602090601f8311600114610c655761080192915f9183610b345750508160011b915f199060031b1c19161790565b90555b6002810160408501518051906001600160401b0382116103005761082883546130a5565b601f8111610c35575b50602090601f8311600114610bd25761086092915f9183610b345750508160011b915f199060031b1c19161790565b90555b6003810160608501518051906001600160401b0382116103005761088783546130a5565b601f8111610ba2575b50602090601f8311600114610b3f576108bf92915f9183610b345750508160011b915f199060031b1c19161790565b90555b6004810160808501518051906001600160401b038211610300576108e683546130a5565b601f8111610b04575b50602090601f8311600114610a9b578260a0959360059593610925935f926109d35750508160011b915f199060031b1c19161790565b90555b019301519283516001600160401b0381116103005761094782546130a5565b601f8111610a6b575b506020601f82116001146109de579261023094926109aa836020946007977fb15dd5852a569d549821835c26451fad3d4015817430a7f3e7557f68753893539a5f926109d35750508160011b915f199060031b1c19161790565b90555b604051928391518091835e8101600181520301902001604051918291429033908461354b565b015190508a806104e4565b601f19821695835f52815f20965f5b818110610a535750837fb15dd5852a569d549821835c26451fad3d4015817430a7f3e7557f6875389353986007979461023099979460209760019510610a3b575b505050811b0190556109ad565b01515f1960f88460031b161c19169055898080610a2e565b838301518955600190980197602093840193016109ed565b610a9590835f5260205f20601f840160051c810191602085106102f657601f0160051c01906134e7565b85610950565b90601f19831691845f52815f20925f5b818110610aec575092600192859260a098966005989610610ad4575b505050811b019055610928565b01515f1960f88460031b161c19169055898080610ac7565b92936020600181928786015181550195019301610aab565b610b2e90845f5260205f20601f850160051c810191602086106102f657601f0160051c01906134e7565b876108ef565b0151905088806104e4565b90601f19831691845f52815f20925f5b818110610b8a5750908460019594939210610b72575b505050811b0190556108c2565b01515f1960f88460031b161c19169055878080610b65565b92936020600181928786015181550195019301610b4f565b610bcc90845f5260205f20601f850160051c810191602086106102f657601f0160051c01906134e7565b87610890565b90601f19831691845f52815f20925f5b818110610c1d5750908460019594939210610c05575b505050811b019055610863565b01515f1960f88460031b161c19169055878080610bf8565b92936020600181928786015181550195019301610be2565b610c5f90845f5260205f20601f850160051c810191602086106102f657601f0160051c01906134e7565b87610831565b90601f19831691845f52815f20925f5b818110610cb05750908460019594939210610c98575b505050811b019055610804565b01515f1960f88460031b161c19169055878080610c8b565b92936020600181928786015181550195019301610c75565b610cf290845f5260205f20601f850160051c810191602086106102f657601f0160051c01906134e7565b876107d2565b0151905087806104e4565b90601f19831691845f52815f20925f5b818110610d4e5750908460019594939210610d36575b505050811b0181556107a5565b01515f1960f88460031b161c19169055868080610d29565b92936020600181928786015181550195019301610d13565b610d9090845f5260205f20601f850160051c810191602086106102f657601f0160051c01906134e7565b86610773565b90601f19831691845f52815f20925f5b818110610de15750908460019594939210610dc9575b505050811b019055610737565b01515f1960f88460031b161c19169055868080610dbc565b92936020600181928786015181550195019301610da6565b610e2390845f5260205f20601f850160051c810191602086106102f657601f0160051c01906134e7565b86610705565b015190508b806104e4565b90601f19831691845f52815f20925f5b818110610e85575092600192859260c098966006989610610e6d575b505050811b0190556106dd565b01515f1960f88460031b161c191690558a8080610e60565b92936020600181928786015181550195019301610e44565b610ec790845f5260205f20601f850160051c810191602086106102f657601f0160051c01906134e7565b886106a4565b0151905089806104e4565b90601f19831691845f52815f20925f5b818110610f235750908460019594939210610f0b575b505050811b019055610677565b01515f1960f88460031b161c19169055888080610efe565b92936020600181928786015181550195019301610ee8565b610f6590845f5260205f20601f850160051c810191602086106102f657601f0160051c01906134e7565b88610645565b90601f19831691845f52815f20925f5b818110610fb65750908460019594939210610f9e575b505050811b019055610618565b01515f1960f88460031b161c19169055888080610f91565b92936020600181928786015181550195019301610f7b565b610ff890845f5260205f20601f850160051c810191602086106102f657601f0160051c01906134e7565b886105e6565b90601f19831691845f52815f20925f5b8181106110495750908460019594939210611031575b505050811b0190556105b9565b01515f1960f88460031b161c19169055888080611024565b9293602060018192878601518155019501930161100e565b61108b90845f5260205f20601f850160051c810191602086106102f657601f0160051c01906134e7565b88610587565b90601f19831691845f52815f20925f5b8181106110dc57509084600195949392106110c4575b505050811b01905561055a565b01515f1960f88460031b161c191690558880806110b7565b929360206001819287860151815501950193016110a1565b61111e90845f5260205f20601f850160051c810191602086106102f657601f0160051c01906134e7565b88610528565b90601f19831691845f52815f20925f5b81811061116f5750908460019594939210611157575b505050811b0181556104fb565b01515f1960f88460031b161c1916905587808061114a565b92936020600181928786015181550195019301611134565b6111b190845f5260205f20601f850160051c810191602086106102f657601f0160051c01906134e7565b876104c8565b6111d0915060203d6020116103d5576103c7818361302f565b85610440565b346103e75760203660031901126103e7576004356001600160401b0381116103e75761122c60208061120f611240943690600401613050565b604051928184925191829101835e810160028152030190206130dd565b60405191829160208352602083019061317d565b0390f35b346103e75760203660031901126103e7576004356001600160401b0381116103e75761130a60208061127b81943690600401613050565b604051928184925191829101835e8101600181520301902061134761129f826130dd565b9161133860ff600183015416936002830154600384015460048501546005860154906006870154926112d3600789016130dd565b946113126112e360088b016130dd565b99600960018060a01b03910154169b6040519e8f9e8f9a6101408c526101408c019061317d565b990190613487565b60408c015260608b015260808a015260a089015260c088015286820360e088015261317d565b9084820361010086015261317d565b906101208301520390f35b346103e75760403660031901126103e7576004356001600160401b0381116103e757611382903690600401613050565b6024356001600160401b0381116103e7576113a1903690600401613050565b90604051906113af82612fdd565b6020926040516113bf858261302f565b5f81528352838301905f825260408401428152606085015f8152608086015f815260a08701915f835260c08801935f855260e08901958652604051966114058b8961302f565b5f88526101008a019788528a806101208c019a5f8c52604051928184925191829101835e81016001815203019020995180516001600160401b038111610300578b8d61145182546130a5565b601f8111611751575b5050508c8d601f83116001146116eb5750819061148b935f926116e05750508160011b915f199060031b1c19161790565b8a555b60018a01905160058110156116cc5760ff801983541691161790555160028901555160038801555160048701555160058601555160068501556007840190518051906001600160401b038211610300576114e883546130a5565b601f811161169e575b508690601f831160011461163b5761151f92915f9183610b345750508160011b915f199060031b1c19161790565b90555b600883019051938451906001600160401b0382116103005761154483546130a5565b601f811161160d575b5080601f83116001146115a55750908061157f92600996975f92610cf85750508160011b915f199060031b1c19161790565b90555b51910180546001600160a01b0319166001600160a01b0392909216919091179055005b90601f19831696845f52825f20925f905b8982106115f55750509083929160019460099899106115dd575b505050811b019055611582565b01515f1960f88460031b161c191690558680806115d0565b806001859682949686015181550195019301906115b6565b61163590845f52825f20601f850160051c8101918486106102f657601f0160051c01906134e7565b8661154d565b90601f19831691845f52885f20925f5b8a828210611688575050908460019594939210611670575b505050811b019055611522565b01515f1960f88460031b161c19169055878080611663565b600185968293968601518155019501930161164b565b6116c690845f52885f20601f850160051c8101918a86106102f657601f0160051c01906134e7565b876114f1565b634e487b7160e01b5f52602160045260245ffd5b015190508e806104e4565b5f8e8152818120939491601f19861691905b828210611739575050908460019594939210611721575b505050811b018a5561148e565b01515f1960f88460031b161c191690558d8080611714565b806001869782949787015181550196019401906116fd565b611778925f52815f2090601f850160051c82019285106102f657601f0160051c01906134e7565b8b8d8f61145a565b346103e75760203660031901126103e7576004356001600160401b0381116103e7576117b0903690600401613050565b60ff600160405160208451918181818801948086835e81018681520301902094604051928391518091835e81018481520301902001541660058110156116cc576117fc611811926130dd565b9060405192839260408452604084019061317d565b9060208301520390f35b346103e75760203660031901126103e7576004356001600160401b0381116103e75761184b903690600401613050565b5f61012060405161185b81612fdd565b606081528260208201528260408201528260608201528260808201528260a08201528260c0820152606060e082015260606101008201520152606060c06040516118a481612ff9565b82815282602082015282604082015282808201528260808201528260a08201520152606060a06040516118d681613014565b82815282602082015282604082015282808201528260808201520152604051815190602081818501938085835e81016001815203019020906020604051818186518086835e8101600381520301902093604051928391518091835e81016004815203019020906040519161194983612fdd565b611952826130dd565b835260ff6001830154169160058310156116cc57611240926020850152600281015460408501526003810154606085015260048101546080850152600581015460a0850152600681015460c08501526119ad600782016130dd565b60e08501526119be600882016130dd565b610100850152600901546001600160a01b031661012084015260405193611a51906006906119eb87612ff9565b6119f4816130dd565b8752611a02600182016130dd565b6020880152611a13600282016130dd565b6040880152611a24600382016130dd565b6060880152611a35600482016130dd565b6080880152611a46600582016130dd565b60a0880152016130dd565b60c0850152611abd600560405192611a6884613014565b611a71816130dd565b8452611a7f600182016130dd565b6020850152611a90600282016130dd565b6040850152611aa1600382016130dd565b6060850152611ab2600482016130dd565b6080850152016130dd565b60a0820152611c0e60405194859460608652611b62611b4a611aed835161014060608b01526101a08a019061317d565b611aff602085015160808b0190613487565b604084015160a08a0152606084015160c08a0152608084015160e08a015260a08401516101008a015260c08401516101208a015260e0840151605f198a8303016101408b015261317d565b610100830151888203605f19016101608a015261317d565b9061012060018060a01b0391015116610180870152858103602087015260c0611bfd611beb611bd9611bc7611bb5611ba3885160e0895260e089019061317d565b602089015188820360208a015261317d565b6040880151878203604089015261317d565b6060870151868203606088015261317d565b6080860151858203608087015261317d565b60a085015184820360a086015261317d565b9201519060c081840391015261317d565b838103604085015260a0611c7f611c6d611c5b611c49611c37875160c0885260c088019061317d565b6020880151878203602089015261317d565b6040870151868203604088015261317d565b6060860151858203606087015261317d565b6080850151848203608086015261317d565b9201519060a081840391015261317d565b346103e757611c9e3661341c565b5f546040516395a8c58d60e01b81523360048201526002602482015291929190602090829060449082906001600160a01b03165afa80156103dc57611ce9915f91611f8a57506135fa565b604051835190602081818701938085835e810160018152030190209360018501600360ff1982541617905560088501948351956001600160401b03871161030057611d3481546130a5565b601f8111611f5a575b50602096601f8111600114611ef65780611d70916020969798995f91611eeb57508160011b915f199060031b1c19161790565b90555b6009810180546001600160a01b0319163317905542600590910155604051905190928391908190835e81016002815203019020918051926001600160401b03841161030057611dc281546130a5565b601f8111611ebb575b50602093601f8111600114611e3b5780611e1a917f77f6a5ed80561de0fb769d6ab8d09d921aaee123698574eb642ca5d663d489a9965f91611e3057508160011b915f199060031b1c19161790565b90555b6102306040519283924291339085613632565b905084015187610163565b601f198116825f52855f20905f5b818110611ea35750907f77f6a5ed80561de0fb769d6ab8d09d921aaee123698574eb642ca5d663d489a996836001949310611e8b575b5050811b019055611e1d565b8501515f1960f88460031b161c191690558680611e7f565b85880151835560209788019760019093019201611e49565b611ee590825f5260205f20601f870160051c810191602088106102f657601f0160051c01906134e7565b84611dcb565b90508801518a610163565b601f198116825f52885f20905f5b818110611f42575090602096979899836001949310611f2a575b5050811b019055611d73565b8901515f1960f88460031b161c191690558980611f1e565b888b0151835560209a8b019a60019093019201611f04565b611f8490825f5260205f20601f8a0160051c81019160208b106102f657601f0160051c01906134e7565b87611d3d565b611fa3915060203d6020116103d5576103c7818361302f565b85610106565b346103e75760203660031901126103e7576004356001600160401b0381116103e7576020611fdc81923690600401613050565b604051928184925191829101835e8101600381520301902060e0611240612002836130dd565b926120b7612012600183016130dd565b916120a9612022600283016130dd565b61209b612031600385016130dd565b61208d612040600487016130dd565b9361207f61205c600661205560058b016130dd565b99016130dd565b996120716040519e8f9e8f818152019061317d565b8d810360208f01529061317d565b908b820360408d015261317d565b9089820360608b015261317d565b90878203608089015261317d565b9085820360a087015261317d565b9083820360c085015261317d565b346103e7576120d3366131a1565b5f80546040516395a8c58d60e01b81523360048201526024810192909252919391602090829060449082906001600160a01b03165afa80156103dc5761211f915f916111b757506134ac565b60405191815192602081818501958087835e8101600181520301902060018101600460ff198254161790556006429101556121b6600660405160208186518089835e81016003815203019020612174816134fd565b612180600182016134fd565b61218c600282016134fd565b612198600382016134fd565b6121a4600482016134fd565b6121b0600582016134fd565b016134fd565b61220a600560405160208186518089835e810160048152030190206121da816134fd565b6121e6600182016134fd565b6121f2600282016134fd565b6121fe600382016134fd565b6121b0600482016134fd565b60405160208184518087835e8101600381520301902081518051906001600160401b0382116103005761223d83546130a5565b601f8111612e8b575b50602090601f8311600114612e285761227592915f9183610b345750508160011b915f199060031b1c19161790565b81555b6001810160208301518051906001600160401b0382116103005761229c83546130a5565b601f8111612df8575b50602090601f8311600114612d95576122d492915f9183610ecd5750508160011b915f199060031b1c19161790565b90555b6002810160408301518051906001600160401b038211610300576122fb83546130a5565b601f8111612d65575b50602090601f8311600114612d025761233392915f9183610ecd5750508160011b915f199060031b1c19161790565b90555b6003810160608301518051906001600160401b0382116103005761235a83546130a5565b601f8111612cd2575b50602090601f8311600114612c6f5761239292915f9183610ecd5750508160011b915f199060031b1c19161790565b90555b6004810160808301518051906001600160401b038211610300576123b983546130a5565b601f8111612c3f575b50602090601f8311600114612bdc576123f192915f9183610ecd5750508160011b915f199060031b1c19161790565b90555b6005810160a08301518051906001600160401b0382116103005761241883546130a5565b601f8111612bac575b50602090601f8311600114612b43578260c0959360069593612457935f92610e295750508160011b915f199060031b1c19161790565b90555b019101518051906001600160401b0382116103005761247983546130a5565b601f8111612b13575b50602090601f8311600114612ab0576124b192915f9183610cf85750508160011b915f199060031b1c19161790565b90555b60405160208183518086835e8101600481520301902083518051906001600160401b038211610300576124e783546130a5565b601f8111612a80575b50602090601f8311600114612a1d5761251f92915f9183610cf85750508160011b915f199060031b1c19161790565b81555b6001810160208501518051906001600160401b0382116103005761254683546130a5565b601f81116129ed575b50602090601f831160011461298a5761257e92915f9183610b345750508160011b915f199060031b1c19161790565b90555b6002810160408501518051906001600160401b038211610300576125a583546130a5565b601f811161295a575b50602090601f83116001146128f7576125dd92915f9183610b345750508160011b915f199060031b1c19161790565b90555b6003810160608501518051906001600160401b0382116103005761260483546130a5565b601f81116128c7575b50602090601f83116001146128645761263c92915f9183610b345750508160011b915f199060031b1c19161790565b90555b6004810160808501518051906001600160401b0382116103005761266383546130a5565b601f8111612834575b50602090601f83116001146127cb578260a09593600595936126a2935f926109d35750508160011b915f199060031b1c19161790565b90555b019301519283516001600160401b038111610300576126c482546130a5565b601f811161279b575b506020601f8211600114612727579261023094926109aa836020946007977f1413b8eea4df219d357f648103ebbaedac0ca8f618fcd3c37e9e639d09fae6fe9a5f926109d35750508160011b915f199060031b1c19161790565b601f19821695835f52815f20965f5b8181106127835750837f1413b8eea4df219d357f648103ebbaedac0ca8f618fcd3c37e9e639d09fae6fe986007979461023099979460209760019510610a3b57505050811b0190556109ad565b83830151895560019098019760209384019301612736565b6127c590835f5260205f20601f840160051c810191602085106102f657601f0160051c01906134e7565b856126cd565b90601f19831691845f52815f20925f5b81811061281c575092600192859260a098966005989610612804575b505050811b0190556126a5565b01515f1960f88460031b161c191690558980806127f7565b929360206001819287860151815501950193016127db565b61285e90845f5260205f20601f850160051c810191602086106102f657601f0160051c01906134e7565b8761266c565b90601f19831691845f52815f20925f5b8181106128af5750908460019594939210612897575b505050811b01905561263f565b01515f1960f88460031b161c1916905587808061288a565b92936020600181928786015181550195019301612874565b6128f190845f5260205f20601f850160051c810191602086106102f657601f0160051c01906134e7565b8761260d565b90601f19831691845f52815f20925f5b818110612942575090846001959493921061292a575b505050811b0190556125e0565b01515f1960f88460031b161c1916905587808061291d565b92936020600181928786015181550195019301612907565b61298490845f5260205f20601f850160051c810191602086106102f657601f0160051c01906134e7565b876125ae565b90601f19831691845f52815f20925f5b8181106129d557509084600195949392106129bd575b505050811b019055612581565b01515f1960f88460031b161c191690558780806129b0565b9293602060018192878601518155019501930161299a565b612a1790845f5260205f20601f850160051c810191602086106102f657601f0160051c01906134e7565b8761254f565b90601f19831691845f52815f20925f5b818110612a685750908460019594939210612a50575b505050811b018155612522565b01515f1960f88460031b161c19169055868080612a43565b92936020600181928786015181550195019301612a2d565b612aaa90845f5260205f20601f850160051c810191602086106102f657601f0160051c01906134e7565b866124f0565b90601f19831691845f52815f20925f5b818110612afb5750908460019594939210612ae3575b505050811b0190556124b4565b01515f1960f88460031b161c19169055868080612ad6565b92936020600181928786015181550195019301612ac0565b612b3d90845f5260205f20601f850160051c810191602086106102f657601f0160051c01906134e7565b86612482565b90601f19831691845f52815f20925f5b818110612b94575092600192859260c098966006989610612b7c575b505050811b01905561245a565b01515f1960f88460031b161c191690558a8080612b6f565b92936020600181928786015181550195019301612b53565b612bd690845f5260205f20601f850160051c810191602086106102f657601f0160051c01906134e7565b88612421565b90601f19831691845f52815f20925f5b818110612c275750908460019594939210612c0f575b505050811b0190556123f4565b01515f1960f88460031b161c19169055888080612c02565b92936020600181928786015181550195019301612bec565b612c6990845f5260205f20601f850160051c810191602086106102f657601f0160051c01906134e7565b886123c2565b90601f19831691845f52815f20925f5b818110612cba5750908460019594939210612ca2575b505050811b019055612395565b01515f1960f88460031b161c19169055888080612c95565b92936020600181928786015181550195019301612c7f565b612cfc90845f5260205f20601f850160051c810191602086106102f657601f0160051c01906134e7565b88612363565b90601f19831691845f52815f20925f5b818110612d4d5750908460019594939210612d35575b505050811b019055612336565b01515f1960f88460031b161c19169055888080612d28565b92936020600181928786015181550195019301612d12565b612d8f90845f5260205f20601f850160051c810191602086106102f657601f0160051c01906134e7565b88612304565b90601f19831691845f52815f20925f5b818110612de05750908460019594939210612dc8575b505050811b0190556122d7565b01515f1960f88460031b161c19169055888080612dbb565b92936020600181928786015181550195019301612da5565b612e2290845f5260205f20601f850160051c810191602086106102f657601f0160051c01906134e7565b886122a5565b90601f19831691845f52815f20925f5b818110612e735750908460019594939210612e5b575b505050811b018155612278565b01515f1960f88460031b161c19169055878080612e4e565b92936020600181928786015181550195019301612e38565b612eb590845f5260205f20601f850160051c810191602086106102f657601f0160051c01906134e7565b87612246565b346103e75760203660031901126103e7576004356001600160401b0381116103e757602080612ef1612f75933690600401613050565b604051928184925191829101835e81016004815203019020611240612f15826130dd565b91612fad612f25600183016130dd565b91612f9f612f35600283016130dd565b612f91612f44600385016130dd565b91612f83612f606005612f59600489016130dd565b97016130dd565b976040519b8c9b60c08d5260c08d019061317d565b908b820360208d015261317d565b9089820360408b015261317d565b90878203606089015261317d565b90858203608087015261317d565b9083820360a085015261317d565b346103e7575f3660031901126103e7575f546001600160a01b03168152602090f35b61014081019081106001600160401b0382111761030057604052565b60e081019081106001600160401b0382111761030057604052565b60c081019081106001600160401b0382111761030057604052565b90601f801991011681019081106001600160401b0382111761030057604052565b81601f820112156103e7578035906001600160401b0382116103005760405192613084601f8401601f19166020018561302f565b828452602083830101116103e757815f926020809301838601378301015290565b90600182811c921680156130d3575b60208310146130bf57565b634e487b7160e01b5f52602260045260245ffd5b91607f16916130b4565b9060405191825f8254926130f0846130a5565b808452936001811690811561315b5750600114613117575b506131159250038361302f565b565b90505f9291925260205f20905f915b81831061313f575050906020613115928201015f613108565b6020919350806001915483858901015201910190918492613126565b90506020925061311594915060ff191682840152151560051b8201015f613108565b805180835260209291819084018484015e5f828201840152601f01601f1916010190565b60606003198201126103e7576004356001600160401b0381116103e757816131cb91600401613050565b916024356001600160401b0381116103e75760e081840360031901126103e757604051906131f882612ff9565b80600401356001600160401b0381116103e75784600461321a92840101613050565b825260248101356001600160401b0381116103e75784600461323e92840101613050565b602083015260448101356001600160401b0381116103e75784600461326592840101613050565b604083015260648101356001600160401b0381116103e75784600461328c92840101613050565b606083015260848101356001600160401b0381116103e7578460046132b392840101613050565b608083015260a48101356001600160401b0381116103e7578460046132da92840101613050565b60a083015260c48101356001600160401b0381116103e75760048591613301930101613050565b60c0820152916044356001600160401b0381116103e75760c081830360031901126103e7576040519161333383613014565b81600401356001600160401b0381116103e75781600461335592850101613050565b835260248201356001600160401b0381116103e75781600461337992850101613050565b602084015260448201356001600160401b0381116103e7578160046133a092850101613050565b604084015260648201356001600160401b0381116103e7578160046133c792850101613050565b606084015260848201356001600160401b0381116103e7578160046133ee92850101613050565b608084015260a4820135916001600160401b0383116103e7576134149201600401613050565b60a082015290565b60606003198201126103e7576004356001600160401b0381116103e7578161344691600401613050565b916024356001600160401b0381116103e7578261346591600401613050565b91604435906001600160401b0382116103e75761348491600401613050565b90565b9060058210156116cc5752565b908160209103126103e7575180151581036103e75790565b156134b357565b60405162461bcd60e51b815260206004820152600c60248201526b4f6e6c7920466163746f727960a01b6044820152606490fd5b8181106134f2575050565b5f81556001016134e7565b61350781546130a5565b9081613511575050565b81601f5f9311600114613522575055565b8183526020832061353e91601f0160051c8101906001016134e7565b8082528160208120915555565b9093929193606082525f90805490613562826130a5565b918260608601526001811690815f146135d65750600114613596575b50506001600160a01b03909416602082015260400152565b5f90815260208120939250905b8082106135bb5750909150810160800160405f61357e565b919260018160209254608085880101520191019092916135a3565b90506040949350608092915060ff191682840152151560051b82010190915f61357e565b1561360157565b60405162461bcd60e51b81526020600482015260096024820152684f6e6c792042504f4d60b81b6044820152606490fd5b9493929160609261364e61366b9360808952608089019061317d565b6001600160a01b039092166020880152868203604088015261317d565b93015256fea2646970667358221220f8b06c880566ec7c94cc968b87c52b5eb47d2d0ed4bbec22bbfdd3f9c2db43e764736f6c634300081b0033",
  "linkReferences": {},
  "deployedLinkReferences": {}
}