{
  "_format": "hh-sol-artifact-1",
  "contractName": "NieManager",
  "sourceName": "contracts/NieManager.sol",
  "abi": [
    {
      "inputs": [
        {
          "internalType": "address",
          "name": "_roleManagerAddr",
          "type": "address"
        }
      ],
      "stateMutability": "nonpayable",
      "type": "constructor"
    },
    {
      "anonymous": false,
      "inputs": [
        {
          "indexed": false,
          "internalType": "string",
          "name": "bpomInstance",
          "type": "string"
        },
        {
          "indexed": false,
          "internalType": "address",
          "name": "bpomAddr",
          "type": "address"
        },
        {
          "indexed": false,
          "internalType": "string",
          "name": "nieNumber",
          "type": "string"
        },
        {
          "indexed": false,
          "internalType": "uint256",
          "name": "tiemstamp",
          "type": "uint256"
        }
      ],
      "name": "evt_nieApproved",
      "type": "event"
    },
    {
      "anonymous": false,
      "inputs": [
        {
          "indexed": false,
          "internalType": "string",
          "name": "bpomInstance",
          "type": "string"
        },
        {
          "indexed": false,
          "internalType": "address",
          "name": "bpomAddr",
          "type": "address"
        },
        {
          "indexed": false,
          "internalType": "string",
          "name": "rejectMsg",
          "type": "string"
        },
        {
          "indexed": false,
          "internalType": "uint256",
          "name": "tiemstamp",
          "type": "uint256"
        }
      ],
      "name": "evt_nieRejected",
      "type": "event"
    },
    {
      "anonymous": false,
      "inputs": [
        {
          "indexed": false,
          "internalType": "uint256",
          "name": "timestamp",
          "type": "uint256"
        }
      ],
      "name": "evt_nieRenewRequest",
      "type": "event"
    },
    {
      "anonymous": false,
      "inputs": [
        {
          "indexed": false,
          "internalType": "string",
          "name": "factoryInstance",
          "type": "string"
        },
        {
          "indexed": false,
          "internalType": "address",
          "name": "factoryAddr",
          "type": "address"
        },
        {
          "indexed": false,
          "internalType": "uint256",
          "name": "timestamp",
          "type": "uint256"
        }
      ],
      "name": "evt_nieRequested",
      "type": "event"
    },
    {
      "inputs": [
        {
          "internalType": "string",
          "name": "_obatId",
          "type": "string"
        },
        {
          "internalType": "string",
          "name": "_nieNumber",
          "type": "string"
        },
        {
          "internalType": "string",
          "name": "_bpomInstance",
          "type": "string"
        }
      ],
      "name": "approveNie",
      "outputs": [],
      "stateMutability": "nonpayable",
      "type": "function"
    },
    {
      "inputs": [
        {
          "internalType": "string",
          "name": "_obatId",
          "type": "string"
        },
        {
          "internalType": "string",
          "name": "_factoryInstance",
          "type": "string"
        }
      ],
      "name": "createObatNie",
      "outputs": [],
      "stateMutability": "nonpayable",
      "type": "function"
    },
    {
      "inputs": [
        {
          "internalType": "string",
          "name": "_obatId",
          "type": "string"
        }
      ],
      "name": "getNieDetail",
      "outputs": [
        {
          "components": [
            {
              "internalType": "string",
              "name": "nieNumber",
              "type": "string"
            },
            {
              "internalType": "enum EnumsLibrary.NieStatus",
              "name": "nieStatus",
              "type": "uint8"
            },
            {
              "internalType": "uint256",
              "name": "timestampProduction",
              "type": "uint256"
            },
            {
              "internalType": "uint256",
              "name": "timestampNieRequest",
              "type": "uint256"
            },
            {
              "internalType": "uint256",
              "name": "timestampNieApprove",
              "type": "uint256"
            },
            {
              "internalType": "uint256",
              "name": "timestampNieRejected",
              "type": "uint256"
            },
            {
              "internalType": "uint256",
              "name": "timestampNieRenewRequest",
              "type": "uint256"
            },
            {
              "internalType": "string",
              "name": "factoryInstance",
              "type": "string"
            },
            {
              "internalType": "string",
              "name": "bpomInstance",
              "type": "string"
            },
            {
              "internalType": "address",
              "name": "bpomAddr",
              "type": "address"
            }
          ],
          "internalType": "struct NieManager.st_NieDetails",
          "name": "",
          "type": "tuple"
        }
      ],
      "stateMutability": "view",
      "type": "function"
    },
    {
      "inputs": [
        {
          "internalType": "string",
          "name": "_obatId",
          "type": "string"
        }
      ],
      "name": "getNieNumberAndStatus",
      "outputs": [
        {
          "internalType": "string",
          "name": "",
          "type": "string"
        },
        {
          "internalType": "uint8",
          "name": "",
          "type": "uint8"
        }
      ],
      "stateMutability": "view",
      "type": "function"
    },
    {
      "inputs": [
        {
          "internalType": "string",
          "name": "_obatId",
          "type": "string"
        }
      ],
      "name": "getRejectMsgNie",
      "outputs": [
        {
          "internalType": "string",
          "name": "",
          "type": "string"
        }
      ],
      "stateMutability": "view",
      "type": "function"
    },
    {
      "inputs": [
        {
          "internalType": "string",
          "name": "",
          "type": "string"
        }
      ],
      "name": "nieDetailsByObatId",
      "outputs": [
        {
          "internalType": "string",
          "name": "nieNumber",
          "type": "string"
        },
        {
          "internalType": "enum EnumsLibrary.NieStatus",
          "name": "nieStatus",
          "type": "uint8"
        },
        {
          "internalType": "uint256",
          "name": "timestampProduction",
          "type": "uint256"
        },
        {
          "internalType": "uint256",
          "name": "timestampNieRequest",
          "type": "uint256"
        },
        {
          "internalType": "uint256",
          "name": "timestampNieApprove",
          "type": "uint256"
        },
        {
          "internalType": "uint256",
          "name": "timestampNieRejected",
          "type": "uint256"
        },
        {
          "internalType": "uint256",
          "name": "timestampNieRenewRequest",
          "type": "uint256"
        },
        {
          "internalType": "string",
          "name": "factoryInstance",
          "type": "string"
        },
        {
          "internalType": "string",
          "name": "bpomInstance",
          "type": "string"
        },
        {
          "internalType": "address",
          "name": "bpomAddr",
          "type": "address"
        }
      ],
      "stateMutability": "view",
      "type": "function"
    },
    {
      "inputs": [
        {
          "internalType": "string",
          "name": "",
          "type": "string"
        }
      ],
      "name": "rejectMsgbyId",
      "outputs": [
        {
          "internalType": "string",
          "name": "",
          "type": "string"
        }
      ],
      "stateMutability": "view",
      "type": "function"
    },
    {
      "inputs": [
        {
          "internalType": "string",
          "name": "_obatId",
          "type": "string"
        },
        {
          "internalType": "string",
          "name": "_bpomInstance",
          "type": "string"
        },
        {
          "internalType": "string",
          "name": "_rejectMsg",
          "type": "string"
        }
      ],
      "name": "rejectNie",
      "outputs": [],
      "stateMutability": "nonpayable",
      "type": "function"
    },
    {
      "inputs": [
        {
          "internalType": "string",
          "name": "_obatId",
          "type": "string"
        },
        {
          "internalType": "uint256",
          "name": "timestamp",
          "type": "uint256"
        }
      ],
      "name": "renewRequestNie",
      "outputs": [],
      "stateMutability": "nonpayable",
      "type": "function"
    },
    {
      "inputs": [
        {
          "internalType": "string",
          "name": "_obatId",
          "type": "string"
        }
      ],
      "name": "requestNie",
      "outputs": [],
      "stateMutability": "nonpayable",
      "type": "function"
    },
    {
      "inputs": [],
      "name": "roleManager",
      "outputs": [
        {
          "internalType": "contract RoleManager",
          "name": "",
          "type": "address"
        }
      ],
      "stateMutability": "view",
      "type": "function"
    }
  ],
  "bytecode": "0x608034606f57601f6116be38819003918201601f19168301916001600160401b03831184841017607357808492602094604052833981010312606f57516001600160a01b03811690819003606f575f80546001600160a01b03191691909117905560405161163690816100888239f35b5f80fd5b634e487b7160e01b5f52604160045260245ffdfe6080806040526004361015610012575f80fd5b5f3560e01c908162435da51461130f5750806310159dfe14610526578063283ef6f014610f9d57806343d1b83914610dcb57806374a5abcf14610d30578063ac007c1a146108a5578063af0088b214610797578063bc4a6f6c14610594578063bdedf0b814610526578063ea71074d146104425763f21dea8614610094575f80fd5b3461043e576100a2366114bf565b5f546040516395a8c58d60e01b81523360048201526002602482015291929190602090829060449082906001600160a01b03165afa8015610433576100ee915f91610404575b5061154f565b60405192805193602081818401968088835e8101600181520301902082516001600160401b03811161033f5761012482546113c3565b601f81116103bf575b50806020601f821160011461035e575f91610353575b508160011b915f199060031b1c19161790555b600160405160208184518089835e81018481520301902001600260ff19825416179055604051600482518087845e820191600183526020814294030190200155600860405160208184518089835e810160018152030190200183516001600160401b03811161033f576101c982546113c3565b601f81116102fa575b506020601f821160011461027257927f40bd250f4e1cad69631af5d42189453e9c51f25278bd4232fe29ed01aa2f6ee49692826020936009965f91610267575b508160011b915f199060031b1c19161790555b604051928391518091835e6001908201908152030190200180546001600160a01b0319163390811790915560405192839261026292429285611587565b0390a1005b90508801515f610212565b601f19821690835f52805f20915f5b8181106102e2575083600996937f40bd250f4e1cad69631af5d42189453e9c51f25278bd4232fe29ed01aa2f6ee49a9693602096600194106102ca575b5050811b019055610225565b8a01515f1960f88460031b161c191690555f806102be565b9192602060018192868c015181550194019201610281565b825f5260205f20601f830160051c81019160208410610335575b601f0160051c01905b81811061032a57506101d2565b5f815560010161031d565b9091508190610314565b634e487b7160e01b5f52604160045260245ffd5b90508401515f610143565b5f8481528181209250601f198416905b8181106103a75750908360019493921061038f575b5050811b019055610156565b8601515f1960f88460031b161c191690555f80610383565b9192602060018192868b01518155019401920161036e565b825f5260205f20601f830160051c810191602084106103fa575b601f0160051c01905b8181106103ef575061012d565b5f81556001016103e2565b90915081906103d9565b610426915060203d60201161042c575b61041e818361134d565b810190611537565b5f6100e8565b503d610414565b6040513d5f823e3d90fd5b5f80fd5b3461043e57604036600319011261043e576004356001600160401b03811161043e5761047290369060040161136e565b5f80546040516395a8c58d60e01b81523360048201526024810192909252602090829060449082906001600160a01b03165afa8015610433576104bc915f91610507575b506115c5565b60066040516001835191602081818701948086835e81018481520301902001600460ff1982541617905560405192518091845e82019160018352602081602435940301902001555f80f35b610520915060203d60201161042c5761041e818361134d565b836104b6565b3461043e57602036600319011261043e576004356001600160401b03811161043e5761057c60208061055f61059094369060040161136e565b604051928184925191829101835e810160028152030190206113fb565b60405191829160208352602083019061149b565b0390f35b3461043e57602036600319011261043e576004356001600160401b03811161043e576105c490369060040161136e565b5f80546040516395a8c58d60e01b81523360048201526024810192909252909190602090839060449082906001600160a01b03165afa91821561043357600792610614915f9161077857506115c5565b60206040519160018151938381818501968088835e81018481520301902001600160ff19825416179055604051600382518086845e8201916001835284814294030190200155604051928391518091835e810160018152030190200160405190606082525f90805490610686826113c3565b918260608601526001811690815f1461073557506001146106d6575b3360208501524260408501527fb15dd5852a569d549821835c26451fad3d4015817430a7f3e7557f687538935384840385a1005b5f90815260208120939250905b80821061071a57509091508101608001817fb15dd5852a569d549821835c26451fad3d4015817430a7f3e7557f68753893536106a2565b919260018160209254608085880101520191019092916106e3565b859450608092507fb15dd5852a569d549821835c26451fad3d4015817430a7f3e7557f68753893539593915060ff191682840152151560051b82010191926106a2565b610791915060203d60201161042c5761041e818361134d565b846104b6565b3461043e57602036600319011261043e576004356001600160401b03811161043e5761085d6020806107ce8194369060040161136e565b604051928184925191829101835e8101600181520301902061089a6107f2826113fb565b9161088b60ff60018301541693600283015460038401546004850154600586015490600687015492610826600789016113fb565b9461086561083660088b016113fb565b99600960018060a01b03910154169b6040519e8f9e8f9a6101408c526101408c019061149b565b99019061152a565b60408c015260608b015260808a015260a089015260c088015286820360e088015261149b565b9084820361010086015261149b565b906101208301520390f35b3461043e57604036600319011261043e576004356001600160401b03811161043e576108d590369060040161136e565b6024356001600160401b03811161043e576108f490369060040161136e565b906040519061090282611331565b602092604051610912858261134d565b5f81528352838301905f825260408401428152606085015f8152608086015f815260a08701915f835260c08801935f855260e08901958652604051966109588b8961134d565b5f88526101008a019788528a806101208c019a5f8c52604051928184925191829101835e8101600181520301902099518051906001600160401b03821161033f578c82916109a68e546113c3565b601f8111610cd8575b5081601f8411600114610c7457505f92610c69575b50508160011b915f199060031b1c1916178a555b60018a0190516005811015610c555760ff801983541691161790555160028901555160038801555160048701555160058601555160068501556007840190518051906001600160401b03821161033f578190610a3484546113c3565b601f8111610c07575b508790601f8311600114610ba4575f92610b99575b50508160011b915f199060031b1c19161790555b600883019051938451906001600160401b03821161033f57610a8883546113c3565b601f8111610b56575b5080601f8311600114610aee57508190600995965f92610ae3575b50508160011b915f199060031b1c19161790555b51910180546001600160a01b0319166001600160a01b0392909216919091179055005b015190508680610aac565b90601f19831696845f52825f20925f905b898210610b3e575050908392916001946009989910610b26575b505050811b019055610ac0565b01515f1960f88460031b161c19169055868080610b19565b80600185968294968601518155019501930190610aff565b835f52815f20601f840160051c810191838510610b8f575b601f0160051c01905b818110610b845750610a91565b5f8155600101610b77565b9091508190610b6e565b015190508780610a52565b5f8581528981209350601f198516905b8a828210610bf1575050908460019594939210610bd9575b505050811b019055610a66565b01515f1960f88460031b161c19169055878080610bcc565b6001859682939686015181550195019301610bb4565b909150835f52875f20601f840160051c810191898510610c4b575b90601f859493920160051c01905b818110610c3d5750610a3d565b5f8155849350600101610c30565b9091508190610c22565b634e487b7160e01b5f52602160045260245ffd5b015190508d806109c4565b5f8f81528181209450601f198616915b828210610cc0575050908460019594939210610ca8575b505050811b018a556109d8565b01515f1960f88460031b161c191690558d8080610c9b565b80600186978294978701518155019601940190610c84565b9092508d5f52815f2090601f850160051c8201928510610d26575b918f9291601f8695930160051c01905b818110610d1057506109af565b90925060019193505f815501918e918493610d03565b9091508190610cf3565b3461043e57602036600319011261043e576004356001600160401b03811161043e57610d6090369060040161136e565b60ff600160405160208451918181818801948086835e81018681520301902094604051928391518091835e8101848152030190200154166005811015610c5557610dac610dc1926113fb565b9060405192839260408452604084019061149b565b9060208301520390f35b3461043e57602036600319011261043e576004356001600160401b03811161043e576020610dfe8192369060040161136e565b5f610120604051610e0e81611331565b6060815282858201528260408201528260608201528260808201528260a08201528260c0820152606060e082015260606101008201520152604051928184925191829101835e81016001815203019020604051610e6a81611331565b610e73826113fb565b815260ff60018301541690602081016005831015610c5557604093610f7482610f3995610f889452600283015487860190815260038401546060870190815260048501546080880190815260058601549060a0890191825260068701549260c08a01938452610ee4600789016113fb565b9460e08b01958652610f43610efb60088b016113fb565b996101008d019a8b52600960018060a01b03910154169b61012081019c8d528e519e8f9e8f926020845251610140602085015261016084019061149b565b995191019061152a565b5160608c01525160808b01525160a08a01525160c08901525160e088015251868203601f190161010088015261149b565b9051848203601f190161012086015261149b565b90516001600160a01b03166101408301520390f35b3461043e57610fab366114bf565b5f546040516395a8c58d60e01b81523360048201526002602482015291929190602090829060449082906001600160a01b03165afa801561043357610ff6915f916112f0575061154f565b6040516001845191602081818801948086835e81018481520301902001600360ff19825416179055600860405160208187518086835e8101600181520301902001938251946001600160401b03861161033f5761105381546113c3565b601f81116112ab575b50602095601f811160011461124757806020949596975f9161123c575b508160011b915f199060031b1c19161790555b6009604051838184518088835e6001908201908152030190200180546001600160a01b0319163317905560405181516005908086845e8201916001835284814294030190200155604051928391518091835e81016002815203019020918051926001600160401b03841161033f5761110481546113c3565b601f81116111f7575b50602093601f811160011461117757807f77f6a5ed80561de0fb769d6ab8d09d921aaee123698574eb642ca5d663d489a9955f9161116c575b508160011b915f199060031b1c19161790555b6102626040519283924291339085611587565b905083015186611146565b601f198116825f52855f20905f5b8181106111df5750907f77f6a5ed80561de0fb769d6ab8d09d921aaee123698574eb642ca5d663d489a9968360019493106111c7575b5050811b019055611159565b8501515f1960f88460031b161c1916905586806111bb565b85880151835560209788019760019093019201611185565b815f5260205f20601f860160051c81019160208710611232575b601f0160051c01905b818110611227575061110d565b5f815560010161121a565b9091508190611211565b905086015188611079565b601f198116825f52875f20905f5b81811061129357509060209596979883600194931061127b575b5050811b01905561108c565b8801515f1960f88460031b161c19169055888061126f565b878a015183556020998a019960019093019201611255565b815f5260205f20601f880160051c810191602089106112e6575b601f0160051c01905b8181106112db575061105c565b5f81556001016112ce565b90915081906112c5565b611309915060203d60201161042c5761041e818361134d565b856100e8565b3461043e575f36600319011261043e575f546001600160a01b03168152602090f35b61014081019081106001600160401b0382111761033f57604052565b90601f801991011681019081106001600160401b0382111761033f57604052565b81601f8201121561043e578035906001600160401b03821161033f57604051926113a2601f8401601f19166020018561134d565b8284526020838301011161043e57815f926020809301838601378301015290565b90600182811c921680156113f1575b60208310146113dd57565b634e487b7160e01b5f52602260045260245ffd5b91607f16916113d2565b9060405191825f82549261140e846113c3565b80845293600181169081156114795750600114611435575b506114339250038361134d565b565b90505f9291925260205f20905f915b81831061145d575050906020611433928201015f611426565b6020919350806001915483858901015201910190918492611444565b90506020925061143394915060ff191682840152151560051b8201015f611426565b805180835260209291819084018484015e5f828201840152601f01601f1916010190565b606060031982011261043e576004356001600160401b03811161043e57816114e99160040161136e565b916024356001600160401b03811161043e57826115089160040161136e565b91604435906001600160401b03821161043e576115279160040161136e565b90565b906005821015610c555752565b9081602091031261043e5751801515810361043e5790565b1561155657565b60405162461bcd60e51b81526020600482015260096024820152684f6e6c792042504f4d60b81b6044820152606490fd5b949392916060926115a36115c09360808952608089019061149b565b6001600160a01b039092166020880152868203604088015261149b565b930152565b156115cc57565b60405162461bcd60e51b815260206004820152600c60248201526b4f6e6c7920466163746f727960a01b6044820152606490fdfea264697066735822122040beac2d2f74a2742a4cb6c897e950c876ab40960226517940df6afadb33af2664736f6c634300081b0033",
  "linkReferences": {},
  "deployedLinkReferences": {}
}