{
  "_format": "hh-sol-artifact-1",
  "contractName": "NieManager",
  "sourceName": "contracts/NieManager.sol",
  "abi": [
    {
      "inputs": [
        {
          "internalType": "address",
          "name": "_roleManagerAddr",
          "type": "address"
        }
      ],
      "stateMutability": "nonpayable",
      "type": "constructor"
    },
    {
      "anonymous": false,
      "inputs": [
        {
          "indexed": false,
          "internalType": "string",
          "name": "bpomInstance",
          "type": "string"
        },
        {
          "indexed": false,
          "internalType": "address",
          "name": "bpomAddr",
          "type": "address"
        },
        {
          "indexed": false,
          "internalType": "string",
          "name": "nieNumber",
          "type": "string"
        },
        {
          "indexed": false,
          "internalType": "uint256",
          "name": "tiemstamp",
          "type": "uint256"
        }
      ],
      "name": "evt_nieApproved",
      "type": "event"
    },
    {
      "anonymous": false,
      "inputs": [
        {
          "indexed": false,
          "internalType": "string",
          "name": "bpomInstance",
          "type": "string"
        },
        {
          "indexed": false,
          "internalType": "address",
          "name": "bpomAddr",
          "type": "address"
        },
        {
          "indexed": false,
          "internalType": "string",
          "name": "rejectMsg",
          "type": "string"
        },
        {
          "indexed": false,
          "internalType": "uint256",
          "name": "tiemstamp",
          "type": "uint256"
        }
      ],
      "name": "evt_nieRejected",
      "type": "event"
    },
    {
      "anonymous": false,
      "inputs": [
        {
          "indexed": false,
          "internalType": "string",
          "name": "factoryInstance",
          "type": "string"
        },
        {
          "indexed": false,
          "internalType": "address",
          "name": "factoryAddr",
          "type": "address"
        },
        {
          "indexed": false,
          "internalType": "uint256",
          "name": "timestamp",
          "type": "uint256"
        }
      ],
      "name": "evt_nieRenewRequest",
      "type": "event"
    },
    {
      "anonymous": false,
      "inputs": [
        {
          "indexed": false,
          "internalType": "string",
          "name": "factoryInstance",
          "type": "string"
        },
        {
          "indexed": false,
          "internalType": "address",
          "name": "factoryAddr",
          "type": "address"
        },
        {
          "indexed": false,
          "internalType": "uint256",
          "name": "timestamp",
          "type": "uint256"
        }
      ],
      "name": "evt_nieRequested",
      "type": "event"
    },
    {
      "inputs": [
        {
          "internalType": "string",
          "name": "_obatId",
          "type": "string"
        },
        {
          "internalType": "string",
          "name": "_nieNumber",
          "type": "string"
        },
        {
          "internalType": "string",
          "name": "_bpomInstance",
          "type": "string"
        }
      ],
      "name": "approveNie",
      "outputs": [],
      "stateMutability": "nonpayable",
      "type": "function"
    },
    {
      "inputs": [
        {
          "internalType": "string",
          "name": "_obatId",
          "type": "string"
        },
        {
          "internalType": "string",
          "name": "_factoryInstance",
          "type": "string"
        }
      ],
      "name": "createObatNie",
      "outputs": [],
      "stateMutability": "nonpayable",
      "type": "function"
    },
    {
      "inputs": [
        {
          "internalType": "string",
          "name": "",
          "type": "string"
        }
      ],
      "name": "dokuNieByObatId",
      "outputs": [
        {
          "internalType": "string",
          "name": "masterFormula",
          "type": "string"
        },
        {
          "internalType": "string",
          "name": "suratKuasa",
          "type": "string"
        },
        {
          "internalType": "string",
          "name": "suratPernyataan",
          "type": "string"
        },
        {
          "internalType": "string",
          "name": "komposisiProduk",
          "type": "string"
        },
        {
          "internalType": "string",
          "name": "caraPembuatanProduk",
          "type": "string"
        },
        {
          "internalType": "string",
          "name": "sertifikatAnalisaBahanBaku",
          "type": "string"
        },
        {
          "internalType": "string",
          "name": "sertifikatAnalisaProdukJadi",
          "type": "string"
        },
        {
          "internalType": "string",
          "name": "spesifikasiProdukJadi",
          "type": "string"
        },
        {
          "internalType": "string",
          "name": "spesifikasiKemasan",
          "type": "string"
        },
        {
          "internalType": "string",
          "name": "sistemPenomoranBets",
          "type": "string"
        },
        {
          "internalType": "string",
          "name": "hasilUjiStabilitas",
          "type": "string"
        },
        {
          "internalType": "string",
          "name": "desainKemasan",
          "type": "string"
        },
        {
          "internalType": "string",
          "name": "dataPendukungKeamanan",
          "type": "string"
        }
      ],
      "stateMutability": "view",
      "type": "function"
    },
    {
      "inputs": [
        {
          "internalType": "string",
          "name": "_obatId",
          "type": "string"
        }
      ],
      "name": "getNieDetail",
      "outputs": [
        {
          "components": [
            {
              "internalType": "string",
              "name": "nieNumber",
              "type": "string"
            },
            {
              "internalType": "enum EnumsLibrary.NieStatus",
              "name": "nieStatus",
              "type": "uint8"
            },
            {
              "internalType": "uint256",
              "name": "timestampProduction",
              "type": "uint256"
            },
            {
              "internalType": "uint256",
              "name": "timestampNieRequest",
              "type": "uint256"
            },
            {
              "internalType": "uint256",
              "name": "timestampNieApprove",
              "type": "uint256"
            },
            {
              "internalType": "uint256",
              "name": "timestampNieRejected",
              "type": "uint256"
            },
            {
              "internalType": "uint256",
              "name": "timestampNieRenewRequest",
              "type": "uint256"
            },
            {
              "internalType": "string",
              "name": "factoryInstance",
              "type": "string"
            },
            {
              "internalType": "string",
              "name": "bpomInstance",
              "type": "string"
            },
            {
              "internalType": "address",
              "name": "bpomAddr",
              "type": "address"
            }
          ],
          "internalType": "struct NieManager.st_NieDetails",
          "name": "",
          "type": "tuple"
        },
        {
          "components": [
            {
              "internalType": "string",
              "name": "masterFormula",
              "type": "string"
            },
            {
              "internalType": "string",
              "name": "suratKuasa",
              "type": "string"
            },
            {
              "internalType": "string",
              "name": "suratPernyataan",
              "type": "string"
            },
            {
              "internalType": "string",
              "name": "komposisiProduk",
              "type": "string"
            },
            {
              "internalType": "string",
              "name": "caraPembuatanProduk",
              "type": "string"
            },
            {
              "internalType": "string",
              "name": "sertifikatAnalisaBahanBaku",
              "type": "string"
            },
            {
              "internalType": "string",
              "name": "sertifikatAnalisaProdukJadi",
              "type": "string"
            },
            {
              "internalType": "string",
              "name": "spesifikasiProdukJadi",
              "type": "string"
            },
            {
              "internalType": "string",
              "name": "spesifikasiKemasan",
              "type": "string"
            },
            {
              "internalType": "string",
              "name": "sistemPenomoranBets",
              "type": "string"
            },
            {
              "internalType": "string",
              "name": "hasilUjiStabilitas",
              "type": "string"
            },
            {
              "internalType": "string",
              "name": "desainKemasan",
              "type": "string"
            },
            {
              "internalType": "string",
              "name": "dataPendukungKeamanan",
              "type": "string"
            }
          ],
          "internalType": "struct NieManager.st_dokumenIpfs",
          "name": "",
          "type": "tuple"
        }
      ],
      "stateMutability": "view",
      "type": "function"
    },
    {
      "inputs": [
        {
          "internalType": "string",
          "name": "_obatId",
          "type": "string"
        }
      ],
      "name": "getNieNumberAndStatus",
      "outputs": [
        {
          "internalType": "string",
          "name": "",
          "type": "string"
        },
        {
          "internalType": "uint8",
          "name": "",
          "type": "uint8"
        }
      ],
      "stateMutability": "view",
      "type": "function"
    },
    {
      "inputs": [
        {
          "internalType": "string",
          "name": "_obatId",
          "type": "string"
        }
      ],
      "name": "getRejectMsgNie",
      "outputs": [
        {
          "internalType": "string",
          "name": "",
          "type": "string"
        }
      ],
      "stateMutability": "view",
      "type": "function"
    },
    {
      "inputs": [
        {
          "internalType": "string",
          "name": "",
          "type": "string"
        }
      ],
      "name": "nieDetailsByObatId",
      "outputs": [
        {
          "internalType": "string",
          "name": "nieNumber",
          "type": "string"
        },
        {
          "internalType": "enum EnumsLibrary.NieStatus",
          "name": "nieStatus",
          "type": "uint8"
        },
        {
          "internalType": "uint256",
          "name": "timestampProduction",
          "type": "uint256"
        },
        {
          "internalType": "uint256",
          "name": "timestampNieRequest",
          "type": "uint256"
        },
        {
          "internalType": "uint256",
          "name": "timestampNieApprove",
          "type": "uint256"
        },
        {
          "internalType": "uint256",
          "name": "timestampNieRejected",
          "type": "uint256"
        },
        {
          "internalType": "uint256",
          "name": "timestampNieRenewRequest",
          "type": "uint256"
        },
        {
          "internalType": "string",
          "name": "factoryInstance",
          "type": "string"
        },
        {
          "internalType": "string",
          "name": "bpomInstance",
          "type": "string"
        },
        {
          "internalType": "address",
          "name": "bpomAddr",
          "type": "address"
        }
      ],
      "stateMutability": "view",
      "type": "function"
    },
    {
      "inputs": [
        {
          "internalType": "string",
          "name": "",
          "type": "string"
        }
      ],
      "name": "rejectMsgbyId",
      "outputs": [
        {
          "internalType": "string",
          "name": "",
          "type": "string"
        }
      ],
      "stateMutability": "view",
      "type": "function"
    },
    {
      "inputs": [
        {
          "internalType": "string",
          "name": "_obatId",
          "type": "string"
        },
        {
          "internalType": "string",
          "name": "_bpomInstance",
          "type": "string"
        },
        {
          "internalType": "string",
          "name": "_rejectMsg",
          "type": "string"
        }
      ],
      "name": "rejectNie",
      "outputs": [],
      "stateMutability": "nonpayable",
      "type": "function"
    },
    {
      "inputs": [
        {
          "internalType": "string",
          "name": "_obatId",
          "type": "string"
        },
        {
          "components": [
            {
              "internalType": "string",
              "name": "masterFormula",
              "type": "string"
            },
            {
              "internalType": "string",
              "name": "suratKuasa",
              "type": "string"
            },
            {
              "internalType": "string",
              "name": "suratPernyataan",
              "type": "string"
            },
            {
              "internalType": "string",
              "name": "komposisiProduk",
              "type": "string"
            },
            {
              "internalType": "string",
              "name": "caraPembuatanProduk",
              "type": "string"
            },
            {
              "internalType": "string",
              "name": "sertifikatAnalisaBahanBaku",
              "type": "string"
            },
            {
              "internalType": "string",
              "name": "sertifikatAnalisaProdukJadi",
              "type": "string"
            },
            {
              "internalType": "string",
              "name": "spesifikasiProdukJadi",
              "type": "string"
            },
            {
              "internalType": "string",
              "name": "spesifikasiKemasan",
              "type": "string"
            },
            {
              "internalType": "string",
              "name": "sistemPenomoranBets",
              "type": "string"
            },
            {
              "internalType": "string",
              "name": "hasilUjiStabilitas",
              "type": "string"
            },
            {
              "internalType": "string",
              "name": "desainKemasan",
              "type": "string"
            },
            {
              "internalType": "string",
              "name": "dataPendukungKeamanan",
              "type": "string"
            }
          ],
          "internalType": "struct NieManager.st_dokumenIpfs",
          "name": "_newDoku",
          "type": "tuple"
        }
      ],
      "name": "renewRequestNie",
      "outputs": [],
      "stateMutability": "nonpayable",
      "type": "function"
    },
    {
      "inputs": [
        {
          "internalType": "string",
          "name": "_obatId",
          "type": "string"
        },
        {
          "components": [
            {
              "internalType": "string",
              "name": "masterFormula",
              "type": "string"
            },
            {
              "internalType": "string",
              "name": "suratKuasa",
              "type": "string"
            },
            {
              "internalType": "string",
              "name": "suratPernyataan",
              "type": "string"
            },
            {
              "internalType": "string",
              "name": "komposisiProduk",
              "type": "string"
            },
            {
              "internalType": "string",
              "name": "caraPembuatanProduk",
              "type": "string"
            },
            {
              "internalType": "string",
              "name": "sertifikatAnalisaBahanBaku",
              "type": "string"
            },
            {
              "internalType": "string",
              "name": "sertifikatAnalisaProdukJadi",
              "type": "string"
            },
            {
              "internalType": "string",
              "name": "spesifikasiProdukJadi",
              "type": "string"
            },
            {
              "internalType": "string",
              "name": "spesifikasiKemasan",
              "type": "string"
            },
            {
              "internalType": "string",
              "name": "sistemPenomoranBets",
              "type": "string"
            },
            {
              "internalType": "string",
              "name": "hasilUjiStabilitas",
              "type": "string"
            },
            {
              "internalType": "string",
              "name": "desainKemasan",
              "type": "string"
            },
            {
              "internalType": "string",
              "name": "dataPendukungKeamanan",
              "type": "string"
            }
          ],
          "internalType": "struct NieManager.st_dokumenIpfs",
          "name": "_doku",
          "type": "tuple"
        }
      ],
      "name": "requestNie",
      "outputs": [],
      "stateMutability": "nonpayable",
      "type": "function"
    },
    {
      "inputs": [],
      "name": "roleManager",
      "outputs": [
        {
          "internalType": "contract RoleManager",
          "name": "",
          "type": "address"
        }
      ],
      "stateMutability": "view",
      "type": "function"
    }
  ],
  "bytecode": "0x608034606f57601f613a1c38819003918201601f19168301916001600160401b03831184841017607357808492602094604052833981010312606f57516001600160a01b03811690819003606f575f80546001600160a01b03191691909117905560405161399490816100888239f35b5f80fd5b634e487b7160e01b5f52604160045260245ffdfe6080806040526004361015610012575f80fd5b5f3560e01c908162435da5146133455750806310159dfe146113bc57806321a1167b14613170578063283ef6f014612dfe57806343d1b8391461298757806366adb1fd14611a5e57806374a5abcf146119c3578063ac007c1a14611538578063af0088b21461142a578063bdedf0b8146113bc578063c696d1061461044d5763f21dea861461009f575f80fd5b34610449576100ad36613511565b5f546040516395a8c58d60e01b81523360048201526002602482015291929190602090829060449082906001600160a01b03165afa801561043e576100f9915f9161040f575b506137fe565b60405192805193602081818401968088835e8101600181520301902082516001600160401b03811161034a5761012f8254613415565b601f81116103ca575b50806020601f8211600114610369575f9161035e575b508160011b915f199060031b1c19161790555b600160405160208184518089835e81018481520301902001600260ff19825416179055604051600482518087845e820191600183526020814294030190200155600860405160208184518089835e810160018152030190200183516001600160401b03811161034a576101d48254613415565b601f8111610305575b506020601f821160011461027d57927f40bd250f4e1cad69631af5d42189453e9c51f25278bd4232fe29ed01aa2f6ee49692826020936009965f91610272575b508160011b915f199060031b1c19161790555b604051928391518091835e6001908201908152030190200180546001600160a01b0319163390811790915560405192839261026d92429285613836565b0390a1005b90508801515f61021d565b601f19821690835f52805f20915f5b8181106102ed575083600996937f40bd250f4e1cad69631af5d42189453e9c51f25278bd4232fe29ed01aa2f6ee49a9693602096600194106102d5575b5050811b019055610230565b8a01515f1960f88460031b161c191690555f806102c9565b9192602060018192868c01518155019401920161028c565b825f5260205f20601f830160051c81019160208410610340575b601f0160051c01905b81811061033557506101dd565b5f8155600101610328565b909150819061031f565b634e487b7160e01b5f52604160045260245ffd5b90508401515f61014e565b5f8481528181209250601f198416905b8181106103b25750908360019493921061039a575b5050811b019055610161565b8601515f1960f88460031b161c191690555f8061038e565b9192602060018192868b015181550194019201610379565b825f5260205f20601f830160051c81019160208410610405575b601f0160051c01905b8181106103fa5750610138565b5f81556001016103ed565b90915081906103e4565b610431915060203d602011610437575b610429818361339f565b8101906137e6565b5f6100f3565b503d61041f565b6040513d5f823e3d90fd5b5f80fd5b346104495761045b36613589565b5f80546040516395a8c58d60e01b81523360048201526024810192909252919291602090829060449082906001600160a01b03165afa801561043e576104a8915f9161139d575b50613874565b604051906001815192602081818501958087835e81018481520301902001600160ff19825416179055604051600382518085845e82019160018352602081429403019020015560405160208183518086835e8101600381520301902083518051906001600160401b03821161034a5781906105238454613415565b601f811161134d575b50602090601f83116001146112ea575f926112df575b50508160011b915f199060031b1c19161781555b6001810160208501518051906001600160401b03821161034a57819061057c8454613415565b601f811161128f575b50602090601f831160011461122c575f92611221575b50508160011b915f199060031b1c19161790555b6002810160408501518051906001600160401b03821161034a5781906105d58454613415565b601f81116111d1575b50602090601f831160011461116e575f92611163575b50508160011b915f199060031b1c19161790555b6003810160608501518051906001600160401b03821161034a57819061062e8454613415565b601f8111611113575b50602090601f83116001146110b0575f926110a5575b50508160011b915f199060031b1c19161790555b6004810160808501518051906001600160401b03821161034a5781906106878454613415565b601f8111611055575b50602090601f8311600114610ff2575f92610fe7575b50508160011b915f199060031b1c19161790555b6005810160a08501518051906001600160401b03821161034a5781906106e08454613415565b601f8111610f97575b50602090601f8311600114610f34575f92610f29575b50508160011b915f199060031b1c19161790555b6006810160c08501518051906001600160401b03821161034a5781906107398454613415565b601f8111610ed9575b50602090601f8311600114610e76575f92610e6b575b50508160011b915f199060031b1c19161790555b6007810160e08501518051906001600160401b03821161034a5781906107928454613415565b601f8111610e1b575b50602090601f8311600114610db8575f92610dad575b50508160011b915f199060031b1c19161790555b600881016101008501518051906001600160401b03821161034a5781906107ec8454613415565b601f8111610d5d575b50602090601f8311600114610cfa575f92610cef575b50508160011b915f199060031b1c19161790555b600981016101208501518051906001600160401b03821161034a5781906108468454613415565b601f8111610c9f575b50602090601f8311600114610c3c575f92610c31575b50508160011b915f199060031b1c19161790555b600a81016101408501518051906001600160401b03821161034a5781906108a08454613415565b601f8111610be1575b50602090601f8311600114610b7e575f92610b73575b50508160011b915f199060031b1c19161790555b600b81016101608501518051906001600160401b03821161034a576108f88354613415565b601f8111610b2e575b50602090601f8311600114610ac4579180600c949261018096945f92610ab9575b50508160011b915f199060031b1c19161790555b019301519283516001600160401b03811161034a576109558254613415565b601f8111610a74575b506020601f82116001146109e7579261026d9492826020936007967fb15dd5852a569d549821835c26451fad3d4015817430a7f3e7557f6875389353995f926109dc575b50508160011b915f199060031b1c19161790555b604051928391518091835e810160018152030190200160405191829142903390846138af565b0151905089806109a2565b601f19821695835f52815f20965f5b818110610a5c5750837fb15dd5852a569d549821835c26451fad3d4015817430a7f3e7557f6875389353986007979461026d99979460209760019510610a44575b505050811b0190556109b6565b01515f1960f88460031b161c19169055898080610a37565b838301518955600190980197602093840193016109f6565b825f5260205f20601f830160051c81019160208410610aaf575b601f0160051c01905b818110610aa4575061095e565b5f8155600101610a97565b9091508190610a8e565b015190508980610922565b90601f19831691845f52815f20925f5b818110610b1657509260019285926101809896600c989610610afe575b505050811b019055610936565b01515f1960f88460031b161c19169055898080610af1565b92936020600181928786015181550195019301610ad4565b835f5260205f20601f840160051c81019160208510610b69575b601f0160051c01905b818110610b5e5750610901565b5f8155600101610b51565b9091508190610b48565b0151905087806108bf565b5f8581528281209350601f198516905b818110610bc95750908460019594939210610bb1575b505050811b0190556108d3565b01515f1960f88460031b161c19169055878080610ba4565b92936020600181928786015181550195019301610b8e565b909150835f5260205f20601f840160051c81019160208510610c27575b90601f859493920160051c01905b818110610c1957506108a9565b5f8155849350600101610c0c565b9091508190610bfe565b015190508780610865565b5f8581528281209350601f198516905b818110610c875750908460019594939210610c6f575b505050811b019055610879565b01515f1960f88460031b161c19169055878080610c62565b92936020600181928786015181550195019301610c4c565b909150835f5260205f20601f840160051c81019160208510610ce5575b90601f859493920160051c01905b818110610cd7575061084f565b5f8155849350600101610cca565b9091508190610cbc565b01519050878061080b565b5f8581528281209350601f198516905b818110610d455750908460019594939210610d2d575b505050811b01905561081f565b01515f1960f88460031b161c19169055878080610d20565b92936020600181928786015181550195019301610d0a565b909150835f5260205f20601f840160051c81019160208510610da3575b90601f859493920160051c01905b818110610d9557506107f5565b5f8155849350600101610d88565b9091508190610d7a565b0151905087806107b1565b5f8581528281209350601f198516905b818110610e035750908460019594939210610deb575b505050811b0190556107c5565b01515f1960f88460031b161c19169055878080610dde565b92936020600181928786015181550195019301610dc8565b909150835f5260205f20601f840160051c81019160208510610e61575b90601f859493920160051c01905b818110610e53575061079b565b5f8155849350600101610e46565b9091508190610e38565b015190508780610758565b5f8581528281209350601f198516905b818110610ec15750908460019594939210610ea9575b505050811b01905561076c565b01515f1960f88460031b161c19169055878080610e9c565b92936020600181928786015181550195019301610e86565b909150835f5260205f20601f840160051c81019160208510610f1f575b90601f859493920160051c01905b818110610f115750610742565b5f8155849350600101610f04565b9091508190610ef6565b0151905087806106ff565b5f8581528281209350601f198516905b818110610f7f5750908460019594939210610f67575b505050811b019055610713565b01515f1960f88460031b161c19169055878080610f5a565b92936020600181928786015181550195019301610f44565b909150835f5260205f20601f840160051c81019160208510610fdd575b90601f859493920160051c01905b818110610fcf57506106e9565b5f8155849350600101610fc2565b9091508190610fb4565b0151905087806106a6565b5f8581528281209350601f198516905b81811061103d5750908460019594939210611025575b505050811b0190556106ba565b01515f1960f88460031b161c19169055878080611018565b92936020600181928786015181550195019301611002565b909150835f5260205f20601f840160051c8101916020851061109b575b90601f859493920160051c01905b81811061108d5750610690565b5f8155849350600101611080565b9091508190611072565b01519050878061064d565b5f8581528281209350601f198516905b8181106110fb57509084600195949392106110e3575b505050811b019055610661565b01515f1960f88460031b161c191690558780806110d6565b929360206001819287860151815501950193016110c0565b909150835f5260205f20601f840160051c81019160208510611159575b90601f859493920160051c01905b81811061114b5750610637565b5f815584935060010161113e565b9091508190611130565b0151905087806105f4565b5f8581528281209350601f198516905b8181106111b957509084600195949392106111a1575b505050811b019055610608565b01515f1960f88460031b161c19169055878080611194565b9293602060018192878601518155019501930161117e565b909150835f5260205f20601f840160051c81019160208510611217575b90601f859493920160051c01905b81811061120957506105de565b5f81558493506001016111fc565b90915081906111ee565b01519050878061059b565b5f8581528281209350601f198516905b818110611277575090846001959493921061125f575b505050811b0190556105af565b01515f1960f88460031b161c19169055878080611252565b9293602060018192878601518155019501930161123c565b909150835f5260205f20601f840160051c810191602085106112d5575b90601f859493920160051c01905b8181106112c75750610585565b5f81558493506001016112ba565b90915081906112ac565b015190508680610542565b5f8581528281209350601f198516905b818110611335575090846001959493921061131d575b505050811b018155610556565b01515f1960f88460031b161c19169055868080611310565b929360206001819287860151815501950193016112fa565b909150835f5260205f20601f840160051c81019160208510611393575b90601f859493920160051c01905b818110611385575061052c565b5f8155849350600101611378565b909150819061136a565b6113b6915060203d60201161043757610429818361339f565b846104a2565b34610449576020366003190112610449576004356001600160401b038111610449576114126020806113f56114269436906004016133c0565b604051928184925191829101835e8101600281520301902061344d565b6040519182916020835260208301906134ed565b0390f35b34610449576020366003190112610449576004356001600160401b038111610449576114f0602080611461819436906004016133c0565b604051928184925191829101835e8101600181520301902061152d6114858261344d565b9161151e60ff600183015416936002830154600384015460048501546005860154906006870154926114b96007890161344d565b946114f86114c960088b0161344d565b99600960018060a01b03910154169b6040519e8f9e8f9a6101408c526101408c01906134ed565b99019061357c565b60408c015260608b015260808a015260a089015260c088015286820360e08801526134ed565b908482036101008601526134ed565b906101208301520390f35b34610449576040366003190112610449576004356001600160401b038111610449576115689036906004016133c0565b6024356001600160401b038111610449576115879036906004016133c0565b906040519061159582613367565b6020926040516115a5858261339f565b5f81528352838301905f825260408401428152606085015f8152608086015f815260a08701915f835260c08801935f855260e08901958652604051966115eb8b8961339f565b5f88526101008a019788528a806101208c019a5f8c52604051928184925191829101835e8101600181520301902099518051906001600160401b03821161034a578c82916116398e54613415565b601f811161196b575b5081601f841160011461190757505f926118fc575b50508160011b915f199060031b1c1916178a555b60018a01905160058110156118e85760ff801983541691161790555160028901555160038801555160048701555160058601555160068501556007840190518051906001600160401b03821161034a5781906116c78454613415565b601f811161189a575b508790601f8311600114611837575f9261182c575b50508160011b915f199060031b1c19161790555b600883019051938451906001600160401b03821161034a5761171b8354613415565b601f81116117e9575b5080601f831160011461178157508190600995965f92611776575b50508160011b915f199060031b1c19161790555b51910180546001600160a01b0319166001600160a01b0392909216919091179055005b01519050868061173f565b90601f19831696845f52825f20925f905b8982106117d15750509083929160019460099899106117b9575b505050811b019055611753565b01515f1960f88460031b161c191690558680806117ac565b80600185968294968601518155019501930190611792565b835f52815f20601f840160051c810191838510611822575b601f0160051c01905b8181106118175750611724565b5f815560010161180a565b9091508190611801565b0151905087806116e5565b5f8581528981209350601f198516905b8a82821061188457505090846001959493921061186c575b505050811b0190556116f9565b01515f1960f88460031b161c1916905587808061185f565b6001859682939686015181550195019301611847565b909150835f52875f20601f840160051c8101918985106118de575b90601f859493920160051c01905b8181106118d057506116d0565b5f81558493506001016118c3565b90915081906118b5565b634e487b7160e01b5f52602160045260245ffd5b015190508d80611657565b5f8f81528181209450601f198616915b82821061195357505090846001959493921061193b575b505050811b018a5561166b565b01515f1960f88460031b161c191690558d808061192e565b80600186978294978701518155019601940190611917565b9092508d5f52815f2090601f850160051c82019285106119b9575b918f9291601f8695930160051c01905b8181106119a35750611642565b90925060019193505f815501918e918493611996565b9091508190611986565b34610449576020366003190112610449576004356001600160401b038111610449576119f39036906004016133c0565b60ff600160405160208451918181818801948086835e81018681520301902094604051928391518091835e81018481520301902001541660058110156118e857611a3f611a549261344d565b906040519283926040845260408401906134ed565b9060208301520390f35b3461044957611a6c36613589565b5f80546040516395a8c58d60e01b81523360048201526024810192909252919291602090829060449082906001600160a01b03165afa801561043e57611ab8915f9161139d5750613874565b604051906001815192602081818501958087835e81018481520301902001600460ff19825416179055604051600682518085845e82019160018352602081429403019020015560405160208183518086835e8101600381520301902083518051906001600160401b03821161034a578190611b338454613415565b601f8111612937575b50602090601f83116001146128d4575f926128c9575b50508160011b915f199060031b1c19161781555b6001810160208501518051906001600160401b03821161034a578190611b8c8454613415565b601f8111612879575b50602090601f8311600114612816575f9261280b575b50508160011b915f199060031b1c19161790555b6002810160408501518051906001600160401b03821161034a578190611be58454613415565b601f81116127bb575b50602090601f8311600114612758575f9261274d575b50508160011b915f199060031b1c19161790555b6003810160608501518051906001600160401b03821161034a578190611c3e8454613415565b601f81116126fd575b50602090601f831160011461269a575f9261268f575b50508160011b915f199060031b1c19161790555b6004810160808501518051906001600160401b03821161034a578190611c978454613415565b601f811161263f575b50602090601f83116001146125dc575f926125d1575b50508160011b915f199060031b1c19161790555b6005810160a08501518051906001600160401b03821161034a578190611cf08454613415565b601f8111612581575b50602090601f831160011461251e575f92612513575b50508160011b915f199060031b1c19161790555b6006810160c08501518051906001600160401b03821161034a578190611d498454613415565b601f81116124c3575b50602090601f8311600114612460575f92612455575b50508160011b915f199060031b1c19161790555b6007810160e08501518051906001600160401b03821161034a578190611da28454613415565b601f8111612405575b50602090601f83116001146123a2575f92612397575b50508160011b915f199060031b1c19161790555b600881016101008501518051906001600160401b03821161034a578190611dfc8454613415565b601f8111612347575b50602090601f83116001146122e4575f926122d9575b50508160011b915f199060031b1c19161790555b600981016101208501518051906001600160401b03821161034a578190611e568454613415565b601f8111612289575b50602090601f8311600114612226575f9261221b575b50508160011b915f199060031b1c19161790555b600a81016101408501518051906001600160401b03821161034a578190611eb08454613415565b601f81116121cb575b50602090601f8311600114612168575f9261215d575b50508160011b915f199060031b1c19161790555b600b81016101608501518051906001600160401b03821161034a57611f088354613415565b601f8111612118575b50602090601f83116001146120ae579180600c949261018096945f926120a3575b50508160011b915f199060031b1c19161790555b019301519283516001600160401b03811161034a57611f658254613415565b601f811161205e575b506020601f8211600114611fea579261026d9492826020936007967f1413b8eea4df219d357f648103ebbaedac0ca8f618fcd3c37e9e639d09fae6fe995f926109dc5750508160011b915f199060031b1c1916179055604051928391518091835e810160018152030190200160405191829142903390846138af565b601f19821695835f52815f20965f5b8181106120465750837f1413b8eea4df219d357f648103ebbaedac0ca8f618fcd3c37e9e639d09fae6fe986007979461026d99979460209760019510610a4457505050811b0190556109b6565b83830151895560019098019760209384019301611ff9565b825f5260205f20601f830160051c81019160208410612099575b601f0160051c01905b81811061208e5750611f6e565b5f8155600101612081565b9091508190612078565b015190508980611f32565b90601f19831691845f52815f20925f5b81811061210057509260019285926101809896600c9896106120e8575b505050811b019055611f46565b01515f1960f88460031b161c191690558980806120db565b929360206001819287860151815501950193016120be565b835f5260205f20601f840160051c81019160208510612153575b601f0160051c01905b8181106121485750611f11565b5f815560010161213b565b9091508190612132565b015190508780611ecf565b5f8581528281209350601f198516905b8181106121b3575090846001959493921061219b575b505050811b019055611ee3565b01515f1960f88460031b161c1916905587808061218e565b92936020600181928786015181550195019301612178565b909150835f5260205f20601f840160051c81019160208510612211575b90601f859493920160051c01905b8181106122035750611eb9565b5f81558493506001016121f6565b90915081906121e8565b015190508780611e75565b5f8581528281209350601f198516905b8181106122715750908460019594939210612259575b505050811b019055611e89565b01515f1960f88460031b161c1916905587808061224c565b92936020600181928786015181550195019301612236565b909150835f5260205f20601f840160051c810191602085106122cf575b90601f859493920160051c01905b8181106122c15750611e5f565b5f81558493506001016122b4565b90915081906122a6565b015190508780611e1b565b5f8581528281209350601f198516905b81811061232f5750908460019594939210612317575b505050811b019055611e2f565b01515f1960f88460031b161c1916905587808061230a565b929360206001819287860151815501950193016122f4565b909150835f5260205f20601f840160051c8101916020851061238d575b90601f859493920160051c01905b81811061237f5750611e05565b5f8155849350600101612372565b9091508190612364565b015190508780611dc1565b5f8581528281209350601f198516905b8181106123ed57509084600195949392106123d5575b505050811b019055611dd5565b01515f1960f88460031b161c191690558780806123c8565b929360206001819287860151815501950193016123b2565b909150835f5260205f20601f840160051c8101916020851061244b575b90601f859493920160051c01905b81811061243d5750611dab565b5f8155849350600101612430565b9091508190612422565b015190508780611d68565b5f8581528281209350601f198516905b8181106124ab5750908460019594939210612493575b505050811b019055611d7c565b01515f1960f88460031b161c19169055878080612486565b92936020600181928786015181550195019301612470565b909150835f5260205f20601f840160051c81019160208510612509575b90601f859493920160051c01905b8181106124fb5750611d52565b5f81558493506001016124ee565b90915081906124e0565b015190508780611d0f565b5f8581528281209350601f198516905b8181106125695750908460019594939210612551575b505050811b019055611d23565b01515f1960f88460031b161c19169055878080612544565b9293602060018192878601518155019501930161252e565b909150835f5260205f20601f840160051c810191602085106125c7575b90601f859493920160051c01905b8181106125b95750611cf9565b5f81558493506001016125ac565b909150819061259e565b015190508780611cb6565b5f8581528281209350601f198516905b818110612627575090846001959493921061260f575b505050811b019055611cca565b01515f1960f88460031b161c19169055878080612602565b929360206001819287860151815501950193016125ec565b909150835f5260205f20601f840160051c81019160208510612685575b90601f859493920160051c01905b8181106126775750611ca0565b5f815584935060010161266a565b909150819061265c565b015190508780611c5d565b5f8581528281209350601f198516905b8181106126e557509084600195949392106126cd575b505050811b019055611c71565b01515f1960f88460031b161c191690558780806126c0565b929360206001819287860151815501950193016126aa565b909150835f5260205f20601f840160051c81019160208510612743575b90601f859493920160051c01905b8181106127355750611c47565b5f8155849350600101612728565b909150819061271a565b015190508780611c04565b5f8581528281209350601f198516905b8181106127a3575090846001959493921061278b575b505050811b019055611c18565b01515f1960f88460031b161c1916905587808061277e565b92936020600181928786015181550195019301612768565b909150835f5260205f20601f840160051c81019160208510612801575b90601f859493920160051c01905b8181106127f35750611bee565b5f81558493506001016127e6565b90915081906127d8565b015190508780611bab565b5f8581528281209350601f198516905b8181106128615750908460019594939210612849575b505050811b019055611bbf565b01515f1960f88460031b161c1916905587808061283c565b92936020600181928786015181550195019301612826565b909150835f5260205f20601f840160051c810191602085106128bf575b90601f859493920160051c01905b8181106128b15750611b95565b5f81558493506001016128a4565b9091508190612896565b015190508680611b52565b5f8581528281209350601f198516905b81811061291f5750908460019594939210612907575b505050811b018155611b66565b01515f1960f88460031b161c191690558680806128fa565b929360206001819287860151815501950193016128e4565b909150835f5260205f20601f840160051c8101916020851061297d575b90601f859493920160051c01905b81811061296f5750611b3c565b5f8155849350600101612962565b9091508190612954565b34610449576020366003190112610449576004356001600160401b038111610449576129b79036906004016133c0565b5f6101206040516129c781613367565b606081528260208201528260408201528260608201528260808201528260a08201528260c0820152606060e0820152606061010082015201526060610180604051612a1181613383565b82815282602082015282604082015282808201528260808201528260a08201528260c08201528260e082015282610100820152826101208201528261014082015282610160820152015260405160208251918181818601948086835e8101600181520301902092604051928391518091835e8101600381520301902060405191612a9a83613367565b612aa38161344d565b835260ff60018201541660058110156118e8576020840152600281015460408401526003810154606084015260048101546080840152600581015460a0840152600681015460c0840152612af96007820161344d565b60e0840152612b0a6008820161344d565b610100840152600901546001600160a01b031661012083015260405190612b3082613383565b612b398161344d565b8252612b476001820161344d565b6020830152612b586002820161344d565b6040830152612b696003820161344d565b6060830152612b7a6004820161344d565b6080830152612b8b6005820161344d565b60a0830152612b9c6006820161344d565b60c0830152612bad6007820161344d565b60e0830152612bbe6008820161344d565b610100830152612bd06009820161344d565b610120830152612be2600a820161344d565b610140830152612bf4600b820161344d565b610160830152600c01612c069061344d565b6101808201526040519182916040835281516040840161014090526101808401612c2f916134ed565b602083015160608501612c419161357c565b60408301516080850152606083015160a0850152608083015160c085015260a083015160e085015260c083015161010085015260e083015190603f1985820301610120860152612c90916134ed565b610100830151848203603f1901610140860152612cad91906134ed565b610120909201516001600160a01b0316610160840152828203602084015280516101a0808452612ce091908401906134ed565b6020820151908381036020850152612cf7916134ed565b6040820151908381036040850152612d0e916134ed565b6060820151908381036060850152612d25916134ed565b6080820151908381036080850152612d3c916134ed565b60a08201519083810360a0850152612d53916134ed565b60c08201519083810360c0850152612d6a916134ed565b60e08201519083810360e0850152612d81916134ed565b61010082015190838103610100850152612d9a916134ed565b61012082015190838103610120850152612db3916134ed565b61014082015190838103610140850152612dcc916134ed565b61016082015190838103610160850152612de5916134ed565b90610180015191808203906101800152611426916134ed565b3461044957612e0c36613511565b5f546040516395a8c58d60e01b81523360048201526002602482015291929190602090829060449082906001600160a01b03165afa801561043e57612e57915f9161315157506137fe565b6040516001845191602081818801948086835e81018481520301902001600360ff19825416179055600860405160208187518086835e8101600181520301902001938251946001600160401b03861161034a57612eb48154613415565b601f811161310c575b50602095601f81116001146130a857806020949596975f9161309d575b508160011b915f199060031b1c19161790555b6009604051838184518088835e6001908201908152030190200180546001600160a01b0319163317905560405181516005908086845e8201916001835284814294030190200155604051928391518091835e81016002815203019020918051926001600160401b03841161034a57612f658154613415565b601f8111613058575b50602093601f8111600114612fd857807f77f6a5ed80561de0fb769d6ab8d09d921aaee123698574eb642ca5d663d489a9955f91612fcd575b508160011b915f199060031b1c19161790555b61026d6040519283924291339085613836565b905083015186612fa7565b601f198116825f52855f20905f5b8181106130405750907f77f6a5ed80561de0fb769d6ab8d09d921aaee123698574eb642ca5d663d489a996836001949310613028575b5050811b019055612fba565b8501515f1960f88460031b161c19169055868061301c565b85880151835560209788019760019093019201612fe6565b815f5260205f20601f860160051c81019160208710613093575b601f0160051c01905b8181106130885750612f6e565b5f815560010161307b565b9091508190613072565b905086015188612eda565b601f198116825f52875f20905f5b8181106130f45750906020959697988360019493106130dc575b5050811b019055612eed565b8801515f1960f88460031b161c1916905588806130d0565b878a015183556020998a0199600190930192016130b6565b815f5260205f20601f880160051c81019160208910613147575b601f0160051c01905b81811061313c5750612ebd565b5f815560010161312f565b9091508190613126565b61316a915060203d60201161043757610429818361339f565b856100f3565b34610449576020366003190112610449576004356001600160401b038111610449576131a09036906004016133c0565b604051818192516020819201835e8101600381520360200190206131c38161344d565b6131cf6001830161344d565b916131dc6002820161344d565b906131e96003820161344d565b6131f56004830161344d565b6132016005840161344d565b61320d6006850161344d565b6132196007860161344d565b906132266008870161344d565b926132336009880161344d565b94613240600a890161344d565b9661324d600b8a0161344d565b98600c0161325a9061344d565b996040519c8d9c8d6101a081526101a001613274916134ed565b8d810360208f0152613285916134ed565b8c810360408e0152613296916134ed565b8b810360608d01526132a7916134ed565b8a810360808c01526132b8916134ed565b89810360a08b01526132c9916134ed565b88810360c08a01526132da916134ed565b87810360e08901526132eb916134ed565b8681036101008801526132fd916134ed565b85810361012087015261330f916134ed565b848103610140860152613321916134ed565b838103610160850152613333916134ed565b828103610180840152611426916134ed565b34610449575f366003190112610449575f546001600160a01b03168152602090f35b61014081019081106001600160401b0382111761034a57604052565b6101a081019081106001600160401b0382111761034a57604052565b90601f801991011681019081106001600160401b0382111761034a57604052565b81601f82011215610449578035906001600160401b03821161034a57604051926133f4601f8401601f19166020018561339f565b8284526020838301011161044957815f926020809301838601378301015290565b90600182811c92168015613443575b602083101461342f57565b634e487b7160e01b5f52602260045260245ffd5b91607f1691613424565b9060405191825f82549261346084613415565b80845293600181169081156134cb5750600114613487575b506134859250038361339f565b565b90505f9291925260205f20905f915b8183106134af575050906020613485928201015f613478565b6020919350806001915483858901015201910190918492613496565b90506020925061348594915060ff191682840152151560051b8201015f613478565b805180835260209291819084018484015e5f828201840152601f01601f1916010190565b6060600319820112610449576004356001600160401b038111610449578161353b916004016133c0565b916024356001600160401b038111610449578261355a916004016133c0565b91604435906001600160401b03821161044957613579916004016133c0565b90565b9060058210156118e85752565b906040600319830112610449576004356001600160401b03811161044957826135b4916004016133c0565b916024356001600160401b038111610449576101a0818303600319011261044957604051916135e283613383565b81600401356001600160401b03811161044957816004613604928501016133c0565b835260248201356001600160401b03811161044957816004613628928501016133c0565b602084015260448201356001600160401b0381116104495781600461364f928501016133c0565b604084015260648201356001600160401b03811161044957816004613676928501016133c0565b606084015260848201356001600160401b0381116104495781600461369d928501016133c0565b608084015260a48201356001600160401b038111610449578160046136c4928501016133c0565b60a084015260c48201356001600160401b038111610449578160046136eb928501016133c0565b60c084015260e48201356001600160401b03811161044957816004613712928501016133c0565b60e08401526101048201356001600160401b0381116104495781600461373a928501016133c0565b6101008401526101248201356001600160401b03811161044957816004613763928501016133c0565b6101208401526101448201356001600160401b0381116104495781600461378c928501016133c0565b6101408401526101648201356001600160401b038111610449578160046137b5928501016133c0565b610160840152610184820135916001600160401b038311610449576137dd92016004016133c0565b61018082015290565b90816020910312610449575180151581036104495790565b1561380557565b60405162461bcd60e51b81526020600482015260096024820152684f6e6c792042504f4d60b81b6044820152606490fd5b9493929160609261385261386f936080895260808901906134ed565b6001600160a01b03909216602088015286820360408801526134ed565b930152565b1561387b57565b60405162461bcd60e51b815260206004820152600c60248201526b4f6e6c7920466163746f727960a01b6044820152606490fd5b9093929193606082525f908054906138c682613415565b918260608601526001811690815f1461393a57506001146138fa575b50506001600160a01b03909416602082015260400152565b5f90815260208120939250905b80821061391f5750909150810160800160405f6138e2565b91926001816020925460808588010152019101909291613907565b90506040949350608092915060ff191682840152151560051b82010190915f6138e256fea26469706673582212207af7635329ae1fd53dd07704229253144c77f2b2615dd5dde9b7184eb0d4962564736f6c634300081b0033",
  "linkReferences": {},
  "deployedLinkReferences": {}
}