{
  "_format": "hh-sol-artifact-1",
  "contractName": "NieManager",
  "sourceName": "contracts/NieManager.sol",
  "abi": [
    {
      "inputs": [
        {
          "internalType": "address",
          "name": "roleManagerAddr",
          "type": "address"
        }
      ],
      "stateMutability": "nonpayable",
      "type": "constructor"
    },
    {
      "anonymous": false,
      "inputs": [
        {
          "indexed": false,
          "internalType": "string",
          "name": "bpomInstance",
          "type": "string"
        },
        {
          "indexed": false,
          "internalType": "address",
          "name": "bpomAddr",
          "type": "address"
        },
        {
          "indexed": false,
          "internalType": "string",
          "name": "nieNumber",
          "type": "string"
        },
        {
          "indexed": false,
          "internalType": "uint256",
          "name": "tiemstamp",
          "type": "uint256"
        }
      ],
      "name": "NieApproved",
      "type": "event"
    },
    {
      "anonymous": false,
      "inputs": [
        {
          "indexed": false,
          "internalType": "address",
          "name": "factoryAddr",
          "type": "address"
        },
        {
          "indexed": false,
          "internalType": "uint256",
          "name": "timestamp",
          "type": "uint256"
        }
      ],
      "name": "NieApprovedExtendRequest",
      "type": "event"
    },
    {
      "anonymous": false,
      "inputs": [
        {
          "indexed": false,
          "internalType": "address",
          "name": "factoryAddr",
          "type": "address"
        },
        {
          "indexed": false,
          "internalType": "uint256",
          "name": "timestamp",
          "type": "uint256"
        }
      ],
      "name": "NieExtendRequest",
      "type": "event"
    },
    {
      "anonymous": false,
      "inputs": [
        {
          "indexed": false,
          "internalType": "address",
          "name": "bpomAddr",
          "type": "address"
        },
        {
          "indexed": false,
          "internalType": "string",
          "name": "rejectMsg",
          "type": "string"
        },
        {
          "indexed": false,
          "internalType": "uint256",
          "name": "tiemstamp",
          "type": "uint256"
        }
      ],
      "name": "NieRejectExtend",
      "type": "event"
    },
    {
      "anonymous": false,
      "inputs": [
        {
          "indexed": false,
          "internalType": "string",
          "name": "bpomInstance",
          "type": "string"
        },
        {
          "indexed": false,
          "internalType": "address",
          "name": "bpomAddr",
          "type": "address"
        },
        {
          "indexed": false,
          "internalType": "string",
          "name": "rejectMsg",
          "type": "string"
        },
        {
          "indexed": false,
          "internalType": "uint256",
          "name": "tiemstamp",
          "type": "uint256"
        }
      ],
      "name": "NieRejected",
      "type": "event"
    },
    {
      "anonymous": false,
      "inputs": [
        {
          "indexed": false,
          "internalType": "address",
          "name": "factoryAddr",
          "type": "address"
        },
        {
          "indexed": false,
          "internalType": "uint256",
          "name": "timestamp",
          "type": "uint256"
        }
      ],
      "name": "NieRenewExtend",
      "type": "event"
    },
    {
      "anonymous": false,
      "inputs": [
        {
          "indexed": false,
          "internalType": "string",
          "name": "factoryInstance",
          "type": "string"
        },
        {
          "indexed": false,
          "internalType": "address",
          "name": "factoryAddr",
          "type": "address"
        },
        {
          "indexed": false,
          "internalType": "uint256",
          "name": "timestamp",
          "type": "uint256"
        }
      ],
      "name": "NieRenewRequest",
      "type": "event"
    },
    {
      "anonymous": false,
      "inputs": [
        {
          "indexed": false,
          "internalType": "string",
          "name": "factoryInstance",
          "type": "string"
        },
        {
          "indexed": false,
          "internalType": "address",
          "name": "factoryAddr",
          "type": "address"
        },
        {
          "indexed": false,
          "internalType": "uint256",
          "name": "timestamp",
          "type": "uint256"
        }
      ],
      "name": "NieRequested",
      "type": "event"
    },
    {
      "inputs": [
        {
          "internalType": "string",
          "name": "obatId",
          "type": "string"
        },
        {
          "internalType": "string",
          "name": "ipfsNie",
          "type": "string"
        }
      ],
      "name": "approveExtendRequestNie",
      "outputs": [],
      "stateMutability": "nonpayable",
      "type": "function"
    },
    {
      "inputs": [
        {
          "internalType": "string",
          "name": "obatId",
          "type": "string"
        },
        {
          "internalType": "string",
          "name": "nieNumber",
          "type": "string"
        },
        {
          "internalType": "string",
          "name": "bpomInstance",
          "type": "string"
        },
        {
          "internalType": "string",
          "name": "ipfsNie",
          "type": "string"
        }
      ],
      "name": "approveNie",
      "outputs": [],
      "stateMutability": "nonpayable",
      "type": "function"
    },
    {
      "inputs": [
        {
          "internalType": "string",
          "name": "obatId",
          "type": "string"
        },
        {
          "internalType": "string",
          "name": "factoryInstance",
          "type": "string"
        }
      ],
      "name": "createObatNie",
      "outputs": [],
      "stateMutability": "nonpayable",
      "type": "function"
    },
    {
      "inputs": [
        {
          "internalType": "string",
          "name": "",
          "type": "string"
        }
      ],
      "name": "dokuObatById",
      "outputs": [
        {
          "internalType": "string",
          "name": "masterFormula",
          "type": "string"
        },
        {
          "internalType": "string",
          "name": "suratKuasa",
          "type": "string"
        },
        {
          "internalType": "string",
          "name": "suratPernyataan",
          "type": "string"
        },
        {
          "internalType": "string",
          "name": "komposisiProduk",
          "type": "string"
        },
        {
          "internalType": "string",
          "name": "caraPembuatanProduk",
          "type": "string"
        },
        {
          "internalType": "string",
          "name": "spesifikasiKemasan",
          "type": "string"
        },
        {
          "internalType": "string",
          "name": "hasilUjiStabilitas",
          "type": "string"
        }
      ],
      "stateMutability": "view",
      "type": "function"
    },
    {
      "inputs": [
        {
          "internalType": "string",
          "name": "",
          "type": "string"
        }
      ],
      "name": "dokuPendukungById",
      "outputs": [
        {
          "internalType": "string",
          "name": "sertifikatAnalisaBahanBaku",
          "type": "string"
        },
        {
          "internalType": "string",
          "name": "sertifikatAnalisaProdukJadi",
          "type": "string"
        },
        {
          "internalType": "string",
          "name": "spesifikasiProdukJadi",
          "type": "string"
        },
        {
          "internalType": "string",
          "name": "sistemPenomoranBets",
          "type": "string"
        },
        {
          "internalType": "string",
          "name": "desainKemasan",
          "type": "string"
        },
        {
          "internalType": "string",
          "name": "dataPendukungKeamanan",
          "type": "string"
        }
      ],
      "stateMutability": "view",
      "type": "function"
    },
    {
      "inputs": [
        {
          "internalType": "string",
          "name": "",
          "type": "string"
        }
      ],
      "name": "dokuRegisUlangById",
      "outputs": [
        {
          "internalType": "string",
          "name": "formulaProdukMetrik",
          "type": "string"
        },
        {
          "internalType": "string",
          "name": "skPersetujuanVariasi",
          "type": "string"
        },
        {
          "internalType": "string",
          "name": "desainKemasanTerakhir",
          "type": "string"
        },
        {
          "internalType": "string",
          "name": "suratPernyataanPeredaran",
          "type": "string"
        },
        {
          "internalType": "string",
          "name": "desainKemasanBerwarna",
          "type": "string"
        }
      ],
      "stateMutability": "view",
      "type": "function"
    },
    {
      "inputs": [
        {
          "internalType": "string",
          "name": "obatId",
          "type": "string"
        },
        {
          "components": [
            {
              "internalType": "string",
              "name": "formulaProdukMetrik",
              "type": "string"
            },
            {
              "internalType": "string",
              "name": "skPersetujuanVariasi",
              "type": "string"
            },
            {
              "internalType": "string",
              "name": "desainKemasanTerakhir",
              "type": "string"
            },
            {
              "internalType": "string",
              "name": "suratPernyataanPeredaran",
              "type": "string"
            },
            {
              "internalType": "string",
              "name": "desainKemasanBerwarna",
              "type": "string"
            }
          ],
          "internalType": "struct NieManager.DokumenRegisUlang",
          "name": "newDoku",
          "type": "tuple"
        }
      ],
      "name": "extendRenewRequestNie",
      "outputs": [],
      "stateMutability": "nonpayable",
      "type": "function"
    },
    {
      "inputs": [
        {
          "internalType": "string",
          "name": "obatId",
          "type": "string"
        },
        {
          "internalType": "uint256",
          "name": "expiredTimestamp",
          "type": "uint256"
        },
        {
          "components": [
            {
              "internalType": "string",
              "name": "formulaProdukMetrik",
              "type": "string"
            },
            {
              "internalType": "string",
              "name": "skPersetujuanVariasi",
              "type": "string"
            },
            {
              "internalType": "string",
              "name": "desainKemasanTerakhir",
              "type": "string"
            },
            {
              "internalType": "string",
              "name": "suratPernyataanPeredaran",
              "type": "string"
            },
            {
              "internalType": "string",
              "name": "desainKemasanBerwarna",
              "type": "string"
            }
          ],
          "internalType": "struct NieManager.DokumenRegisUlang",
          "name": "newDoku",
          "type": "tuple"
        }
      ],
      "name": "extendRequestNie",
      "outputs": [],
      "stateMutability": "nonpayable",
      "type": "function"
    },
    {
      "inputs": [
        {
          "internalType": "string",
          "name": "obatId",
          "type": "string"
        }
      ],
      "name": "getNieDetail",
      "outputs": [
        {
          "components": [
            {
              "internalType": "string",
              "name": "nieNumber",
              "type": "string"
            },
            {
              "internalType": "enum EnumsLibrary.NieStatus",
              "name": "nieStatus",
              "type": "uint8"
            },
            {
              "internalType": "uint256",
              "name": "timestampProduction",
              "type": "uint256"
            },
            {
              "internalType": "uint256",
              "name": "timestampNieRequest",
              "type": "uint256"
            },
            {
              "internalType": "uint256",
              "name": "timestampNieApprove",
              "type": "uint256"
            },
            {
              "internalType": "uint256",
              "name": "timestampNieRejected",
              "type": "uint256"
            },
            {
              "internalType": "uint256",
              "name": "timestampNieRenewRequest",
              "type": "uint256"
            },
            {
              "internalType": "uint256",
              "name": "timestampNieExpired",
              "type": "uint256"
            },
            {
              "internalType": "uint256",
              "name": "timestampNieExtendRequest",
              "type": "uint256"
            },
            {
              "internalType": "uint256",
              "name": "timestampNieExtendApprove",
              "type": "uint256"
            },
            {
              "internalType": "uint256",
              "name": "timestampNieExtendReject",
              "type": "uint256"
            },
            {
              "internalType": "uint256",
              "name": "timestampNieExtendRenew",
              "type": "uint256"
            },
            {
              "internalType": "string",
              "name": "factoryInstance",
              "type": "string"
            },
            {
              "internalType": "string",
              "name": "bpomInstance",
              "type": "string"
            },
            {
              "internalType": "address",
              "name": "bpomAddr",
              "type": "address"
            },
            {
              "internalType": "string",
              "name": "nieIpfs",
              "type": "string"
            }
          ],
          "internalType": "struct NieManager.NieDetail",
          "name": "",
          "type": "tuple"
        },
        {
          "components": [
            {
              "internalType": "string",
              "name": "masterFormula",
              "type": "string"
            },
            {
              "internalType": "string",
              "name": "suratKuasa",
              "type": "string"
            },
            {
              "internalType": "string",
              "name": "suratPernyataan",
              "type": "string"
            },
            {
              "internalType": "string",
              "name": "komposisiProduk",
              "type": "string"
            },
            {
              "internalType": "string",
              "name": "caraPembuatanProduk",
              "type": "string"
            },
            {
              "internalType": "string",
              "name": "spesifikasiKemasan",
              "type": "string"
            },
            {
              "internalType": "string",
              "name": "hasilUjiStabilitas",
              "type": "string"
            }
          ],
          "internalType": "struct NieManager.DokumenObat",
          "name": "",
          "type": "tuple"
        },
        {
          "components": [
            {
              "internalType": "string",
              "name": "sertifikatAnalisaBahanBaku",
              "type": "string"
            },
            {
              "internalType": "string",
              "name": "sertifikatAnalisaProdukJadi",
              "type": "string"
            },
            {
              "internalType": "string",
              "name": "spesifikasiProdukJadi",
              "type": "string"
            },
            {
              "internalType": "string",
              "name": "sistemPenomoranBets",
              "type": "string"
            },
            {
              "internalType": "string",
              "name": "desainKemasan",
              "type": "string"
            },
            {
              "internalType": "string",
              "name": "dataPendukungKeamanan",
              "type": "string"
            }
          ],
          "internalType": "struct NieManager.DokumenPendukung",
          "name": "",
          "type": "tuple"
        },
        {
          "components": [
            {
              "internalType": "string",
              "name": "formulaProdukMetrik",
              "type": "string"
            },
            {
              "internalType": "string",
              "name": "skPersetujuanVariasi",
              "type": "string"
            },
            {
              "internalType": "string",
              "name": "desainKemasanTerakhir",
              "type": "string"
            },
            {
              "internalType": "string",
              "name": "suratPernyataanPeredaran",
              "type": "string"
            },
            {
              "internalType": "string",
              "name": "desainKemasanBerwarna",
              "type": "string"
            }
          ],
          "internalType": "struct NieManager.DokumenRegisUlang",
          "name": "",
          "type": "tuple"
        }
      ],
      "stateMutability": "view",
      "type": "function"
    },
    {
      "inputs": [
        {
          "internalType": "string",
          "name": "obatId",
          "type": "string"
        }
      ],
      "name": "getNieNumberAndStatus",
      "outputs": [
        {
          "internalType": "string",
          "name": "",
          "type": "string"
        },
        {
          "internalType": "uint8",
          "name": "",
          "type": "uint8"
        },
        {
          "internalType": "uint256",
          "name": "",
          "type": "uint256"
        }
      ],
      "stateMutability": "view",
      "type": "function"
    },
    {
      "inputs": [
        {
          "internalType": "string",
          "name": "obatId",
          "type": "string"
        }
      ],
      "name": "getRejectMsgNie",
      "outputs": [
        {
          "internalType": "string",
          "name": "",
          "type": "string"
        },
        {
          "internalType": "string",
          "name": "",
          "type": "string"
        }
      ],
      "stateMutability": "view",
      "type": "function"
    },
    {
      "inputs": [
        {
          "internalType": "string",
          "name": "",
          "type": "string"
        }
      ],
      "name": "nieDetailById",
      "outputs": [
        {
          "internalType": "string",
          "name": "nieNumber",
          "type": "string"
        },
        {
          "internalType": "enum EnumsLibrary.NieStatus",
          "name": "nieStatus",
          "type": "uint8"
        },
        {
          "internalType": "uint256",
          "name": "timestampProduction",
          "type": "uint256"
        },
        {
          "internalType": "uint256",
          "name": "timestampNieRequest",
          "type": "uint256"
        },
        {
          "internalType": "uint256",
          "name": "timestampNieApprove",
          "type": "uint256"
        },
        {
          "internalType": "uint256",
          "name": "timestampNieRejected",
          "type": "uint256"
        },
        {
          "internalType": "uint256",
          "name": "timestampNieRenewRequest",
          "type": "uint256"
        },
        {
          "internalType": "uint256",
          "name": "timestampNieExpired",
          "type": "uint256"
        },
        {
          "internalType": "uint256",
          "name": "timestampNieExtendRequest",
          "type": "uint256"
        },
        {
          "internalType": "uint256",
          "name": "timestampNieExtendApprove",
          "type": "uint256"
        },
        {
          "internalType": "uint256",
          "name": "timestampNieExtendReject",
          "type": "uint256"
        },
        {
          "internalType": "uint256",
          "name": "timestampNieExtendRenew",
          "type": "uint256"
        },
        {
          "internalType": "string",
          "name": "factoryInstance",
          "type": "string"
        },
        {
          "internalType": "string",
          "name": "bpomInstance",
          "type": "string"
        },
        {
          "internalType": "address",
          "name": "bpomAddr",
          "type": "address"
        },
        {
          "internalType": "string",
          "name": "nieIpfs",
          "type": "string"
        }
      ],
      "stateMutability": "view",
      "type": "function"
    },
    {
      "inputs": [
        {
          "internalType": "string",
          "name": "obatId",
          "type": "string"
        },
        {
          "internalType": "string",
          "name": "rejectMsgExtend",
          "type": "string"
        }
      ],
      "name": "rejectExtendRequestNie",
      "outputs": [],
      "stateMutability": "nonpayable",
      "type": "function"
    },
    {
      "inputs": [
        {
          "internalType": "string",
          "name": "",
          "type": "string"
        }
      ],
      "name": "rejectMsgById",
      "outputs": [
        {
          "internalType": "string",
          "name": "",
          "type": "string"
        }
      ],
      "stateMutability": "view",
      "type": "function"
    },
    {
      "inputs": [
        {
          "internalType": "string",
          "name": "",
          "type": "string"
        }
      ],
      "name": "rejectMsgExtendById",
      "outputs": [
        {
          "internalType": "string",
          "name": "",
          "type": "string"
        }
      ],
      "stateMutability": "view",
      "type": "function"
    },
    {
      "inputs": [
        {
          "internalType": "string",
          "name": "obatId",
          "type": "string"
        },
        {
          "internalType": "string",
          "name": "bpomInstance",
          "type": "string"
        },
        {
          "internalType": "string",
          "name": "rejectMsg",
          "type": "string"
        }
      ],
      "name": "rejectNie",
      "outputs": [],
      "stateMutability": "nonpayable",
      "type": "function"
    },
    {
      "inputs": [
        {
          "internalType": "string",
          "name": "obatId",
          "type": "string"
        },
        {
          "components": [
            {
              "internalType": "string",
              "name": "masterFormula",
              "type": "string"
            },
            {
              "internalType": "string",
              "name": "suratKuasa",
              "type": "string"
            },
            {
              "internalType": "string",
              "name": "suratPernyataan",
              "type": "string"
            },
            {
              "internalType": "string",
              "name": "komposisiProduk",
              "type": "string"
            },
            {
              "internalType": "string",
              "name": "caraPembuatanProduk",
              "type": "string"
            },
            {
              "internalType": "string",
              "name": "spesifikasiKemasan",
              "type": "string"
            },
            {
              "internalType": "string",
              "name": "hasilUjiStabilitas",
              "type": "string"
            }
          ],
          "internalType": "struct NieManager.DokumenObat",
          "name": "dokuObat",
          "type": "tuple"
        },
        {
          "components": [
            {
              "internalType": "string",
              "name": "sertifikatAnalisaBahanBaku",
              "type": "string"
            },
            {
              "internalType": "string",
              "name": "sertifikatAnalisaProdukJadi",
              "type": "string"
            },
            {
              "internalType": "string",
              "name": "spesifikasiProdukJadi",
              "type": "string"
            },
            {
              "internalType": "string",
              "name": "sistemPenomoranBets",
              "type": "string"
            },
            {
              "internalType": "string",
              "name": "desainKemasan",
              "type": "string"
            },
            {
              "internalType": "string",
              "name": "dataPendukungKeamanan",
              "type": "string"
            }
          ],
          "internalType": "struct NieManager.DokumenPendukung",
          "name": "dokuPendukung",
          "type": "tuple"
        }
      ],
      "name": "renewRequestNie",
      "outputs": [],
      "stateMutability": "nonpayable",
      "type": "function"
    },
    {
      "inputs": [
        {
          "internalType": "string",
          "name": "obatId",
          "type": "string"
        },
        {
          "components": [
            {
              "internalType": "string",
              "name": "masterFormula",
              "type": "string"
            },
            {
              "internalType": "string",
              "name": "suratKuasa",
              "type": "string"
            },
            {
              "internalType": "string",
              "name": "suratPernyataan",
              "type": "string"
            },
            {
              "internalType": "string",
              "name": "komposisiProduk",
              "type": "string"
            },
            {
              "internalType": "string",
              "name": "caraPembuatanProduk",
              "type": "string"
            },
            {
              "internalType": "string",
              "name": "spesifikasiKemasan",
              "type": "string"
            },
            {
              "internalType": "string",
              "name": "hasilUjiStabilitas",
              "type": "string"
            }
          ],
          "internalType": "struct NieManager.DokumenObat",
          "name": "dokuObat",
          "type": "tuple"
        },
        {
          "components": [
            {
              "internalType": "string",
              "name": "sertifikatAnalisaBahanBaku",
              "type": "string"
            },
            {
              "internalType": "string",
              "name": "sertifikatAnalisaProdukJadi",
              "type": "string"
            },
            {
              "internalType": "string",
              "name": "spesifikasiProdukJadi",
              "type": "string"
            },
            {
              "internalType": "string",
              "name": "sistemPenomoranBets",
              "type": "string"
            },
            {
              "internalType": "string",
              "name": "desainKemasan",
              "type": "string"
            },
            {
              "internalType": "string",
              "name": "dataPendukungKeamanan",
              "type": "string"
            }
          ],
          "internalType": "struct NieManager.DokumenPendukung",
          "name": "dokuPendukung",
          "type": "tuple"
        }
      ],
      "name": "requestNie",
      "outputs": [],
      "stateMutability": "nonpayable",
      "type": "function"
    },
    {
      "inputs": [],
      "name": "roleManager",
      "outputs": [
        {
          "internalType": "contract RoleManager",
          "name": "",
          "type": "address"
        }
      ],
      "stateMutability": "view",
      "type": "function"
    }
  ],
  "bytecode": "0x60a0346100a457601f6150b338819003918201601f19168301916001600160401b038311848410176100a8578084926020946040528339810103126100a457516001600160a01b038116908190036100a457608052604051614ff690816100bd82396080518181816102c001528181611141015281816119190152818161207001528181612b3701528181612f7f015281816135cf01528181613a5101526148360152f35b5f80fd5b634e487b7160e01b5f52604160045260245ffdfe60a0806040526004361015610012575f80fd5b5f3560e01c908162435da51461482457508063108cbe6114613a175780632594d597146138fb57806326c6d4c5146138a5578063283ef6f0146135345780632b27543414612f04578063396a6b4414612a7d57806343d1b8391461242f57806359914db41461232f57806374a5abcf14612272578063805f848b14612038578063ac007c1a14611ae7578063b0d1ec2b146118df578063bdedf0b814611843578063bf3f80ac146117d9578063c5af4b6b146116f3578063cdcc4cba146110c6578063e509070a146102865763f71ce722146100ec575f80fd5b34610282576020366003190112610282576004356001600160401b0381116102825761011c9036906004016148f3565b604051818192516020819201835e81015f815203602001902061013e81614bfb565b81600181015460ff1660028201549060038301546004840154600585015460068601546007870154600888015491600989015493600a8a015495600b8b015497600c8c0161018b90614bfb565b9a610198600d8e01614bfb565b600e909d01546001600160a01b03169e6101b490600f01614bfb565b9d6040516080526080516102009052608051610200016101d391614c9b565b9a6080516020016101e391614d8a565b60805160400152608051606001526080516080015260805160a0015260805160c0015260805160e0015260805161010001526080516101200152608051610140015260805161016001526080518103608051610180015261024391614c9b565b60805181036080516101a0015261025991614c9b565b916080516101c0015260805182036080516101e001526080519161027c91614c9b565b03608051f35b5f80fd5b346102825761029436614948565b6040516395a8c58d60e01b81523360048201525f60248201529092906020816044816001600160a01b037f0000000000000000000000000000000000000000000000000000000000000000165afa80156110bb576102f9915f9161108c575b50614dfc565b604051916001825193602081818601968088835e81015f81520301902001600160ff19825416179055604051600383518086845e8201915f8352602081429403019020015560405160208184518087835e8101600381520301902081518051906001600160401b03821161095c576103718354614bc3565b601f811161105c575b50602090601f8311600114610ff9576103aa92915f9183610a09575b50508160011b915f199060031b1c19161790565b81555b6001810160208301518051906001600160401b03821161095c576103d18354614bc3565b601f8111610fc9575b50602090601f8311600114610f665761040992915f9183610da25750508160011b915f199060031b1c19161790565b90555b6002810160408301518051906001600160401b03821161095c576104308354614bc3565b601f8111610f36575b50602090601f8311600114610ed35761046892915f9183610da25750508160011b915f199060031b1c19161790565b90555b6003810160608301518051906001600160401b03821161095c5761048f8354614bc3565b601f8111610ea3575b50602090601f8311600114610e40576104c792915f9183610da25750508160011b915f199060031b1c19161790565b90555b6004810160808301518051906001600160401b03821161095c576104ee8354614bc3565b601f8111610e10575b50602090601f8311600114610dad5761052692915f9183610da25750508160011b915f199060031b1c19161790565b90555b6005810160a08301518051906001600160401b03821161095c5761054d8354614bc3565b601f8111610d72575b50602090601f8311600114610d09578260c095936006959361058c935f92610cfe5750508160011b915f199060031b1c19161790565b90555b019101518051906001600160401b03821161095c576105ae8354614bc3565b601f8111610cce575b50602090601f8311600114610c6b576105e692915f9183610bcd5750508160011b915f199060031b1c19161790565b90555b60405160208183518086835e8101600481520301902083518051906001600160401b03821161095c5761061c8354614bc3565b601f8111610c3b575b50602090601f8311600114610bd85761065492915f9183610bcd5750508160011b915f199060031b1c19161790565b81555b6001810160208501518051906001600160401b03821161095c5761067b8354614bc3565b601f8111610b9d575b50602090601f8311600114610b3a576106b392915f9183610a095750508160011b915f199060031b1c19161790565b90555b6002810160408501518051906001600160401b03821161095c576106da8354614bc3565b601f8111610b0a575b50602090601f8311600114610aa75761071292915f9183610a095750508160011b915f199060031b1c19161790565b90555b6003810160608501518051906001600160401b03821161095c576107398354614bc3565b601f8111610a77575b50602090601f8311600114610a145761077192915f9183610a095750508160011b915f199060031b1c19161790565b90555b6004810160808501518051906001600160401b03821161095c576107988354614bc3565b601f81116109d9575b50602090601f8311600114610970578260a09593600595936107d7935f926108895750508160011b915f199060031b1c19161790565b90555b019301519283516001600160401b03811161095c576107f98254614bc3565b601f8111610921575b506020601f82116001146108945792610884949261085c83602094600c977f351ab5a48b432d9a1035e20940d903771dcfec712ffe00601bad0ea1f4260f889a5f926108895750508160011b915f199060031b1c19161790565b90555b604051928391518091835e81015f815203019020016040519182914290339084614e9b565b0390a1005b015190508a80610396565b601f19821695835f52815f20965f5b8181106109095750837f351ab5a48b432d9a1035e20940d903771dcfec712ffe00601bad0ea1f4260f8898600c9794610884999794602097600195106108f1575b505050811b01905561085f565b01515f1960f88460031b161c191690558980806108e4565b838301518955600190980197602093840193016108a3565b61094c90835f5260205f20601f840160051c81019160208510610952575b601f0160051c0190614e37565b85610802565b909150819061093f565b634e487b7160e01b5f52604160045260245ffd5b90601f19831691845f52815f20925f5b8181106109c1575092600192859260a0989660059896106109a9575b505050811b0190556107da565b01515f1960f88460031b161c1916905589808061099c565b92936020600181928786015181550195019301610980565b610a0390845f5260205f20601f850160051c8101916020861061095257601f0160051c0190614e37565b876107a1565b015190508880610396565b90601f19831691845f52815f20925f5b818110610a5f5750908460019594939210610a47575b505050811b019055610774565b01515f1960f88460031b161c19169055878080610a3a565b92936020600181928786015181550195019301610a24565b610aa190845f5260205f20601f850160051c8101916020861061095257601f0160051c0190614e37565b87610742565b90601f19831691845f52815f20925f5b818110610af25750908460019594939210610ada575b505050811b019055610715565b01515f1960f88460031b161c19169055878080610acd565b92936020600181928786015181550195019301610ab7565b610b3490845f5260205f20601f850160051c8101916020861061095257601f0160051c0190614e37565b876106e3565b90601f19831691845f52815f20925f5b818110610b855750908460019594939210610b6d575b505050811b0190556106b6565b01515f1960f88460031b161c19169055878080610b60565b92936020600181928786015181550195019301610b4a565b610bc790845f5260205f20601f850160051c8101916020861061095257601f0160051c0190614e37565b87610684565b015190508780610396565b90601f19831691845f52815f20925f5b818110610c235750908460019594939210610c0b575b505050811b018155610657565b01515f1960f88460031b161c19169055868080610bfe565b92936020600181928786015181550195019301610be8565b610c6590845f5260205f20601f850160051c8101916020861061095257601f0160051c0190614e37565b86610625565b90601f19831691845f52815f20925f5b818110610cb65750908460019594939210610c9e575b505050811b0190556105e9565b01515f1960f88460031b161c19169055868080610c91565b92936020600181928786015181550195019301610c7b565b610cf890845f5260205f20601f850160051c8101916020861061095257601f0160051c0190614e37565b866105b7565b015190508b80610396565b90601f19831691845f52815f20925f5b818110610d5a575092600192859260c098966006989610610d42575b505050811b01905561058f565b01515f1960f88460031b161c191690558a8080610d35565b92936020600181928786015181550195019301610d19565b610d9c90845f5260205f20601f850160051c8101916020861061095257601f0160051c0190614e37565b88610556565b015190508980610396565b90601f19831691845f52815f20925f5b818110610df85750908460019594939210610de0575b505050811b019055610529565b01515f1960f88460031b161c19169055888080610dd3565b92936020600181928786015181550195019301610dbd565b610e3a90845f5260205f20601f850160051c8101916020861061095257601f0160051c0190614e37565b886104f7565b90601f19831691845f52815f20925f5b818110610e8b5750908460019594939210610e73575b505050811b0190556104ca565b01515f1960f88460031b161c19169055888080610e66565b92936020600181928786015181550195019301610e50565b610ecd90845f5260205f20601f850160051c8101916020861061095257601f0160051c0190614e37565b88610498565b90601f19831691845f52815f20925f5b818110610f1e5750908460019594939210610f06575b505050811b01905561046b565b01515f1960f88460031b161c19169055888080610ef9565b92936020600181928786015181550195019301610ee3565b610f6090845f5260205f20601f850160051c8101916020861061095257601f0160051c0190614e37565b88610439565b90601f19831691845f52815f20925f5b818110610fb15750908460019594939210610f99575b505050811b01905561040c565b01515f1960f88460031b161c19169055888080610f8c565b92936020600181928786015181550195019301610f76565b610ff390845f5260205f20601f850160051c8101916020861061095257601f0160051c0190614e37565b886103da565b90601f19831691845f52815f20925f5b818110611044575090846001959493921061102c575b505050811b0181556103ad565b01515f1960f88460031b161c1916905587808061101f565b92936020600181928786015181550195019301611009565b61108690845f5260205f20601f850160051c8101916020861061095257601f0160051c0190614e37565b8761037a565b6110ae915060203d6020116110b4575b6110a681836148d2565b810190614de4565b856102f3565b503d61109c565b6040513d5f823e3d90fd5b34610282576040366003190112610282576004356001600160401b038111610282576110f69036906004016148f3565b6024356001600160401b03811161028257611115903690600401614cbf565b6040516395a8c58d60e01b81523360048201525f60248201529091906020816044816001600160a01b037f0000000000000000000000000000000000000000000000000000000000000000165afa80156110bb57611179915f916116d45750614dfc565b6020604051918051928281818401958087835e81015f81520301902060018101600960ff19825416179055600a42910155604051928391518091835e8101600581520301902081519182516001600160401b03811161095c576111dc8354614bc3565b601f81116116a4575b506020601f82116001146116435781906112159394955f926116385750508160011b915f199060031b1c19161790565b82555b600182019160208201519283516001600160401b03811161095c5761123d8254614bc3565b601f8111611608575b50602094601f82116001146115a7576112789293949582915f9261150b5750508160011b915f199060031b1c19161790565b90555b600281019160408101519283516001600160401b03811161095c576112a08254614bc3565b601f8111611577575b50602094601f8211600114611516576112db9293949582915f9261150b5750508160011b915f199060031b1c19161790565b90555b600382019160608201519283516001600160401b03811161095c576113038254614bc3565b601f81116114db575b506020601f82116001146114725781600494939261134292608097985f92610a095750508160011b915f199060031b1c19161790565b90555b019101519081516001600160401b03811161095c576113648254614bc3565b601f8111611442575b50602092601f82116001146113e35761139d929382915f926113d85750508160011b915f199060031b1c19161790565b90555b604080513381524260208201527f6623d3be3fd8e6ec82aa51cc5a014832de51d50025180c14d48276c8f011853b9181908101610884565b015190508480610396565b601f19821693835f52805f20915f5b86811061142a5750836001959610611412575b505050811b0190556113a0565b01515f1960f88460031b161c19169055838080611405565b919260206001819286850151815501940192016113f2565b61146c90835f5260205f20601f840160051c8101916020851061095257601f0160051c0190614e37565b8361136d565b601f19821695835f52815f20965f5b8181106114c3575096600192849260049796956080999a106114ab575b505050811b019055611345565b01515f1960f88460031b161c1916905587808061149e565b83830151895560019098019760209384019301611481565b61150590835f5260205f20601f840160051c8101916020851061095257601f0160051c0190614e37565b8561130c565b015190508680610396565b601f19821695835f52805f20915f5b88811061155f57508360019596979810611547575b505050811b0190556112de565b01515f1960f88460031b161c1916905585808061153a565b91926020600181928685015181550194019201611525565b6115a190835f5260205f20601f840160051c8101916020851061095257601f0160051c0190614e37565b856112a9565b601f19821695835f52805f20915f5b8881106115f0575083600195969798106115d8575b505050811b01905561127b565b01515f1960f88460031b161c191690558580806115cb565b919260206001819286850151815501940192016115b6565b61163290835f5260205f20601f840160051c8101916020851061095257601f0160051c0190614e37565b85611246565b015190508580610396565b601f19821690845f52805f20915f5b81811061168c57509583600195969710611674575b505050811b018255611218565b01515f1960f88460031b161c19169055848080611667565b9192602060018192868b015181550194019201611652565b6116ce90845f5260205f20601f840160051c8101916020851061095257601f0160051c0190614e37565b846111e5565b6116ed915060203d6020116110b4576110a681836148d2565b846102f3565b34610282576020366003190112610282576004356001600160401b0381116102825760208061172961179d9336906004016148f3565b604051928184925191829101835e810160058152030190206117d561174d82614bfb565b916117c761175d60018301614bfb565b916117b961176d60028301614bfb565b6117ab611788600461178160038701614bfb565b9501614bfb565b95604051998a9960a08b5260a08b0190614c9b565b9089820360208b0152614c9b565b908782036040890152614c9b565b908582036060870152614c9b565b908382036080850152614c9b565b0390f35b34610282576020366003190112610282576004356001600160401b0381116102825761182f6020806118126117d59436906004016148f3565b604051928184925191829101835e81016001815203019020614bfb565b604051918291602083526020830190614c9b565b34610282576020366003190112610282576004356001600160401b038111610282576118766118d19136906004016148f3565b6117d56118bd6118b760405160208551918181818901948086835e8101600181520301902095604051928391518091835e8101600281520301902093614bfb565b92614bfb565b604051938493604085526040850190614c9b565b908382036020850152614c9b565b34610282576118ed36614d97565b6040516395a8c58d60e01b81523360048201526002602482015290916020826044816001600160a01b037f0000000000000000000000000000000000000000000000000000000000000000165afa9081156110bb576119586020939284935f91611aca575b50614f4a565b604051928184925191829101835e81015f81520301902060018101600760ff198254161790554260098201556082420190814211611ab657600f9160078201550181516001600160401b03811161095c576119b38254614bc3565b601f8111611a86575b50602092601f8211600114611a27576119ec929382915f926113d85750508160011b915f199060031b1c19161790565b90555b604080513381524260208201527fdc1549b9d8f53bf4f107afce167ff871f6f9b8b72089d73274686ecb22b036389181908101610884565b601f19821693835f52805f20915f5b868110611a6e5750836001959610611a56575b505050811b0190556119ef565b01515f1960f88460031b161c19169055838080611a49565b91926020600181928685015181550194019201611a36565b611ab090835f5260205f20601f840160051c8101916020851061095257601f0160051c0190614e37565b836119bc565b634e487b7160e01b5f52601160045260245ffd5b611ae19150843d86116110b4576110a681836148d2565b86611952565b3461028257611af536614d97565b60405190611b0282614865565b602080938192604051611b1584826148d2565b5f815285525f838601524260408601525f60608601525f60808601525f60a08601525f60c08601525f60e08601525f6101008601525f6101208601525f6101408601525f610160860152610180850152604051611b7283826148d2565b5f81526101a08501525f6101c0850152604051611b8f83826148d2565b5f81526101e0850152604051928184925191829101835e81015f8152030190209080519182516001600160401b03811161095c57611bcd8254614bc3565b601f811161200a575b5084601f8211600114611fa7578190611c059394955f9261150b5750508160011b915f199060031b1c19161790565b81555b6001810183830151600a811015611f935760ff8019835416911617905560408201516002820155606082015160038201556080820151600482015560a0820151600582015560c0820151600682015560e0820151600782015561010082015160088201556101208201516009820155610140820151600a820155610160820151600b820155600c81016101808301518051906001600160401b03821161095c57611cb28354614bc3565b601f8111611f65575b508590601f8311600114611f0257611ce992915f9183610bcd5750508160011b915f199060031b1c19161790565b90555b600d81016101a08301518051906001600160401b03821161095c57611d118354614bc3565b601f8111611ed4575b508590601f8311600114611e6a57826101e09593600f9593611d50935f92610da25750508160011b915f199060031b1c19161790565b90555b6101c0840151600e820180546001600160a01b0319166001600160a01b039290921691909117905591909201518051909392909101916001600160401b03821161095c57611da18354614bc3565b601f8111611e3c575b5080601f8311600114611ddd57508190611dd993945f926113d85750508160011b915f199060031b1c19161790565b9055005b90601f19831694845f52825f20925f905b878210611e24575050836001959610611e0c575b505050811b019055005b01515f1960f88460031b161c19169055838080611e02565b80600185968294968601518155019501930190611dee565b611e6490845f52825f20601f850160051c81019184861061095257601f0160051c0190614e37565b84611daa565b90601f19831691845f52875f20925f5b89828210611ebe5750509260019285926101e09896600f989610611ea6575b505050811b019055611d53565b01515f1960f88460031b161c19169055888080611e99565b6001859682939686015181550195019301611e7a565b611efc90845f52875f20601f850160051c81019189861061095257601f0160051c0190614e37565b86611d1a565b90601f19831691845f52875f20925f5b89828210611f4f575050908460019594939210611f37575b505050811b019055611cec565b01515f1960f88460031b161c19169055868080611f2a565b6001859682939686015181550195019301611f12565b611f8d90845f52875f20601f850160051c81019189861061095257601f0160051c0190614e37565b86611cbb565b634e487b7160e01b5f52602160045260245ffd5b825f52855f20905f5b87601f1985168210611ff4575050600193949583601f19811610611fdc575b505050811b018155611c08565b01515f1960f88460031b161c19169055858080611fcf565b600183948293948a015181550193019101611fb0565b61203290835f52865f20601f840160051c81019188851061095257601f0160051c0190614e37565b85611bd6565b346102825761204636614d97565b6040516395a8c58d60e01b8152336004820152600260248201526020816044816001600160a01b037f0000000000000000000000000000000000000000000000000000000000000000165afa80156110bb576120a8915f916122535750614f4a565b60405160208351918181818701948086835e81015f81520301902093604051928391518091835e81016002815203019020918151926001600160401b03841161095c576120f58154614bc3565b601f8111612223575b50602093601f811160011461219c5790612154826121869594937f1fd8d4ed3df5e0c085cdb1f77c2352a9a35ee3ecdbe66c8e491253d828552be7975f91612191575b508160011b915f199060031b1c19161790565b90555b60018101600860ff19825416179055600a42910155604051918291338352606060208401526060830190614c9b565b4260408301520390a1005b905085015188612141565b601f19811694825f52805f20955f5b81811061220b5750917f1fd8d4ed3df5e0c085cdb1f77c2352a9a35ee3ecdbe66c8e491253d828552be7966001928261218698979695106121f3575b5050811b019055612157565b8601515f1960f88460031b161c1916905587806121e7565b868301518855600190970196602092830192016121ab565b61224d90825f5260205f20601f870160051c8101916020881061095257601f0160051c0190614e37565b846120fe565b61226c915060203d6020116110b4576110a681836148d2565b84611952565b34610282576020366003190112610282576004356001600160401b038111610282576122a29036906004016148f3565b604051815190602081818501938085835e81015f8152030190209060ff600160405160208187518087835e81015f81520301902001541690600a821015611f9357600761230b91602061232096604051928391518091835e81015f815203019020015492614bfb565b91604051938493606085526060850190614c9b565b91602084015260408301520390f35b34610282576020366003190112610282576004356001600160401b038111610282576020806123656123e99336906004016148f3565b604051928184925191829101835e810160048152030190206117d561238982614bfb565b9161242161239960018301614bfb565b916124136123a960028301614bfb565b6124056123b860038501614bfb565b916123f76123d460056123cd60048901614bfb565b9701614bfb565b976040519b8c9b60c08d5260c08d0190614c9b565b908b820360208d0152614c9b565b9089820360408b0152614c9b565b908782036060890152614c9b565b908582036080870152614c9b565b9083820360a0850152614c9b565b34610282576020366003190112610282576004356001600160401b0381116102825761245f9036906004016148f3565b60606101e060405161247081614865565b8281525f60208201525f60408201525f838201525f60808201525f60a08201525f60c08201525f60e08201525f6101008201525f6101208201525f6101408201525f61016082015282610180820152826101a08201525f6101c08201520152606060c06040516124df81614881565b82815282602082015282604082015282808201528260808201528260a08201520152606060a06040516125118161489c565b828152826020820152826040820152828082015282608082015201526060608060405161253d816148b7565b82815282602082015282604082015282808201520152604051815190602081818501938085835e81015f8152030190209060405160208185518085835e81016003815203019020906020604051818187518086835e8101600481520301902094604051928391518091835e81016005815203019020604051926125bf84614865565b6125c881614bfb565b845260ff60018201541694600a861015611f935761298e6117d59461269b600f612a10956128f79a60208b0152600281015460408b0152600381015460608b0152600481015460808b0152600581015460a08b0152600681015460c08b0152600781015460e08b015260088101546101008b015260098101546101208b0152600a8101546101408b0152600b8101546101608b0152612669600c8201614bfb565b6101808b015261267b600d8201614bfb565b6101a08b0152600e8101546001600160a01b03166101c08b015201614bfb565b6101e08801526127196006604051926126b384614881565b6126bc81614bfb565b84526126ca60018201614bfb565b60208501526126db60028201614bfb565b60408501526126ec60038201614bfb565b60608501526126fd60048201614bfb565b608085015261270e60058201614bfb565b60a085015201614bfb565b60c08201526127856005604051946127308661489c565b61273981614bfb565b865261274760018201614bfb565b602087015261275860028201614bfb565b604087015261276960038201614bfb565b606087015261277a60048201614bfb565b608087015201614bfb565b60a08401526127e060046040519661279c886148b7565b6127a581614bfb565b88526127b360018201614bfb565b60208901526127c460028201614bfb565b60408901526127d560038201614bfb565b606089015201614bfb565b6080860152604051978897608089526101e06128cd6128b56128118c61028086519161020060808201520190614c9b565b6128248d60a06020880151910190614d8a565b8c60c060408701519101528c60e060608701519101528c61010060808701519101528c61012060a08701519101528c61014060c08701519101528c61016060e08701519101528c6101806101008701519101528c6101a06101208701519101528c6101c06101408701519101528c846101608701519101526101808501518d610200607f1982850301910152614c9b565b6101a08401518c8203607f19016102208e0152614c9b565b6101c08301516001600160a01b03166102408c0152910151898203607f19016102608b0152614c9b565b878103602089015260c061297d61296b612959612947612935612923885160e0895260e0890190614c9b565b602089015188820360208a0152614c9b565b60408801518782036040890152614c9b565b60608701518682036060880152614c9b565b60808601518582036080870152614c9b565b60a085015184820360a0860152614c9b565b9201519060c0818403910152614c9b565b858103604087015260a06129ff6129ed6129db6129c96129b7875160c0885260c0880190614c9b565b60208801518782036020890152614c9b565b60408701518682036040880152614c9b565b60608601518582036060870152614c9b565b60808501518482036080860152614c9b565b9201519060a0818403910152614c9b565b83810360608501526080612a6c612a5a612a48612a36865160a0875260a0870190614c9b565b60208701518682036020880152614c9b565b60408601518582036040870152614c9b565b60608501518482036060860152614c9b565b920151906080818403910152614c9b565b34610282576080366003190112610282576004356001600160401b03811161028257612aad9036906004016148f3565b6024356001600160401b03811161028257612acc9036906004016148f3565b6044356001600160401b03811161028257612aeb9036906004016148f3565b906064356001600160401b03811161028257612b0b9036906004016148f3565b6040516395a8c58d60e01b81523360048201526002602482015290936020826044816001600160a01b037f0000000000000000000000000000000000000000000000000000000000000000165afa9081156110bb57612b756020939284935f91612ee75750614f4a565b604051928184925191829101835e81015f81520301902081516001600160401b03811161095c57612ba68254614bc3565b601f8111612eb7575b506020601f8211600114612e57579080612bdc925f91612e4c57508160011b915f199060031b1c19161790565b81555b60018101600260ff19825416179055426004820155600d810183516001600160401b03811161095c57612c128254614bc3565b601f8111612e1c575b506020601f8211600114612dbc579080612c48925f91612db157508160011b915f199060031b1c19161790565b90555b600e810180546001600160a01b03191633179055426082810191908210611ab657600f9160078201550183516001600160401b03811161095c57612c8f8254614bc3565b601f8111612d81575b506020601f8211600114612cfe579080612ce8927f98f6eda79ce4c4856715a86ecdf2cb7ece1a5de8adf3de249b2ce9017b0e5810975f92610bcd5750508160011b915f199060031b1c19161790565b90555b6108846040519283924291339085614f82565b601f19821695835f52815f20965f5b818110612d695750917f98f6eda79ce4c4856715a86ecdf2cb7ece1a5de8adf3de249b2ce9017b0e58109791846001959410612d51575b505050811b019055612ceb565b01515f1960f88460031b161c19169055868080612d44565b83830151895560019098019760209384019301612d0d565b612dab90835f5260205f20601f840160051c8101916020851061095257601f0160051c0190614e37565b85612c98565b905086015188612141565b601f19821690835f52805f20915f5b818110612e0457509083600194939210612dec575b5050811b019055612c4b565b8701515f1960f88460031b161c191690558780612de0565b9192602060018192868c015181550194019201612dcb565b612e4690835f5260205f20601f840160051c8101916020851061095257601f0160051c0190614e37565b86612c1b565b905084015187612141565b601f19821690835f52805f20915f5b818110612e9f57509083600194939210612e87575b5050811b018155612bdf565b8501515f1960f88460031b161c191690558680612e7b565b9192602060018192868a015181550194019201612e66565b612ee190835f5260205f20601f840160051c8101916020851061095257601f0160051c0190614e37565b85612baf565b612efe9150843d86116110b4576110a681836148d2565b88611952565b34610282576060366003190112610282576004356001600160401b03811161028257612f349036906004016148f3565b6044356001600160401b03811161028257612f53903690600401614cbf565b6040516395a8c58d60e01b81523360048201525f60248201529091906020816044816001600160a01b037f0000000000000000000000000000000000000000000000000000000000000000165afa80156110bb57612fb7915f916116d45750614dfc565b6024354211156134fb576020604051918051928281818401958087835e81015f81520301902060018101600660ff19825416179055600842910155604051928391518091835e8101600581520301902081519182516001600160401b03811161095c576130248354614bc3565b601f81116134cb575b506020601f821160011461346a57819061305d9394955f926116385750508160011b915f199060031b1c19161790565b82555b600182019160208201519283516001600160401b03811161095c576130858254614bc3565b601f811161343a575b50602094601f82116001146133d9576130c09293949582915f9261150b5750508160011b915f199060031b1c19161790565b90555b600281019160408101519283516001600160401b03811161095c576130e88254614bc3565b601f81116133a9575b50602094601f8211600114613348576131239293949582915f9261150b5750508160011b915f199060031b1c19161790565b90555b600382019160608201519283516001600160401b03811161095c5761314b8254614bc3565b601f8111613318575b506020601f82116001146132af5781600494939261318a92608097985f92610a095750508160011b915f199060031b1c19161790565b90555b019101519081516001600160401b03811161095c576131ac8254614bc3565b601f811161327f575b50602092601f8211600114613220576131e5929382915f926113d85750508160011b915f199060031b1c19161790565b90555b604080513381524260208201527fdbf29df2841fbfef4e4228e54b2eafd2edb98c45ecd633e3d142902104cde3519181908101610884565b601f19821693835f52805f20915f5b868110613267575083600195961061324f575b505050811b0190556131e8565b01515f1960f88460031b161c19169055838080613242565b9192602060018192868501518155019401920161322f565b6132a990835f5260205f20601f840160051c8101916020851061095257601f0160051c0190614e37565b836131b5565b601f19821695835f52815f20965f5b818110613300575096600192849260049796956080999a106132e8575b505050811b01905561318d565b01515f1960f88460031b161c191690558780806132db565b838301518955600190980197602093840193016132be565b61334290835f5260205f20601f840160051c8101916020851061095257601f0160051c0190614e37565b85613154565b601f19821695835f52805f20915f5b88811061339157508360019596979810613379575b505050811b019055613126565b01515f1960f88460031b161c1916905585808061336c565b91926020600181928685015181550194019201613357565b6133d390835f5260205f20601f840160051c8101916020851061095257601f0160051c0190614e37565b856130f1565b601f19821695835f52805f20915f5b8881106134225750836001959697981061340a575b505050811b0190556130c3565b01515f1960f88460031b161c191690558580806133fd565b919260206001819286850151815501940192016133e8565b61346490835f5260205f20601f840160051c8101916020851061095257601f0160051c0190614e37565b8561308e565b601f19821690845f52805f20915f5b8181106134b35750958360019596971061349b575b505050811b018255613060565b01515f1960f88460031b161c1916905584808061348e565b9192602060018192868b015181550194019201613479565b6134f590845f5260205f20601f840160051c8101916020851061095257601f0160051c0190614e37565b8461302d565b60405162461bcd60e51b81526020600482015260116024820152704e4945206d61736968206265726c616b7560781b6044820152606490fd5b34610282576060366003190112610282576004356001600160401b038111610282576135649036906004016148f3565b6024356001600160401b038111610282576135839036906004016148f3565b6044356001600160401b038111610282576135a29036906004016148f3565b6040516395a8c58d60e01b8152336004820152600260248201529091906020816044816001600160a01b037f0000000000000000000000000000000000000000000000000000000000000000165afa80156110bb57613607915f916138865750614f4a565b604051835190602081818701938085835e81015f8152030190209360018501600360ff19825416179055600d8501948351956001600160401b03871161095c576136518154614bc3565b601f8111613856575b50602096601f81116001146137f2578061368d916020969798995f916137e757508160011b915f199060031b1c19161790565b90555b600e810180546001600160a01b0319163317905542600590910155604051905190928391908190835e81016001815203019020918051926001600160401b03841161095c576136df8154614bc3565b601f81116137b7575b50602093601f81116001146137375780612ce8917f81b3714f32e3dd3d8faa1a5f7732e52e015be62219a6eae68d1a779f682db80b965f91612e4c57508160011b915f199060031b1c19161790565b601f198116825f52855f20905f5b81811061379f5750907f81b3714f32e3dd3d8faa1a5f7732e52e015be62219a6eae68d1a779f682db80b96836001949310613787575b5050811b019055612ceb565b8501515f1960f88460031b161c19169055868061377b565b85880151835560209788019760019093019201613745565b6137e190825f5260205f20601f870160051c8101916020881061095257601f0160051c0190614e37565b846136e8565b90508801518a612141565b601f198116825f52885f20905f5b81811061383e575090602096979899836001949310613826575b5050811b019055613690565b8901515f1960f88460031b161c19169055898061381a565b888b0151835560209a8b019a60019093019201613800565b61388090825f5260205f20601f8a0160051c81019160208b1061095257601f0160051c0190614e37565b8761365a565b61389f915060203d6020116110b4576110a681836148d2565b85611952565b34610282576020366003190112610282576004356001600160401b0381116102825761182f6020806138de6117d59436906004016148f3565b604051928184925191829101835e81016002815203019020614bfb565b34610282576020366003190112610282576004356001600160401b03811161028257602061392e819236906004016148f3565b604051928184925191829101835e8101600381520301902060e06117d561395483614bfb565b92613a0961396460018301614bfb565b916139fb61397460028301614bfb565b6139ed61398360038501614bfb565b6139df61399260048701614bfb565b936139d16139ae60066139a760058b01614bfb565b9901614bfb565b996139c36040519e8f9e8f8181520190614c9b565b8d810360208f015290614c9b565b908b820360408d0152614c9b565b9089820360608b0152614c9b565b908782036080890152614c9b565b9085820360a0870152614c9b565b9083820360c0850152614c9b565b3461028257613a2536614948565b6040516395a8c58d60e01b81523360048201525f60248201529092906020816044816001600160a01b037f0000000000000000000000000000000000000000000000000000000000000000165afa80156110bb57613a89915f9161108c5750614dfc565b60405191815192602081818501958087835e81015f81520301902060018101600460ff19825416179055600642910155613b1f600660405160208186518089835e81016003815203019020613add81614e4d565b613ae960018201614e4d565b613af560028201614e4d565b613b0160038201614e4d565b613b0d60048201614e4d565b613b1960058201614e4d565b01614e4d565b613b73600560405160208186518089835e81016004815203019020613b4381614e4d565b613b4f60018201614e4d565b613b5b60028201614e4d565b613b6760038201614e4d565b613b1960048201614e4d565b60405160208184518087835e8101600381520301902081518051906001600160401b03821161095c57613ba68354614bc3565b601f81116147f4575b50602090601f831160011461479157613bde92915f9183610a095750508160011b915f199060031b1c19161790565b81555b6001810160208301518051906001600160401b03821161095c57613c058354614bc3565b601f8111614761575b50602090601f83116001146146fe57613c3d92915f9183610da25750508160011b915f199060031b1c19161790565b90555b6002810160408301518051906001600160401b03821161095c57613c648354614bc3565b601f81116146ce575b50602090601f831160011461466b57613c9c92915f9183610da25750508160011b915f199060031b1c19161790565b90555b6003810160608301518051906001600160401b03821161095c57613cc38354614bc3565b601f811161463b575b50602090601f83116001146145d857613cfb92915f9183610da25750508160011b915f199060031b1c19161790565b90555b6004810160808301518051906001600160401b03821161095c57613d228354614bc3565b601f81116145a8575b50602090601f831160011461454557613d5a92915f9183610da25750508160011b915f199060031b1c19161790565b90555b6005810160a08301518051906001600160401b03821161095c57613d818354614bc3565b601f8111614515575b50602090601f83116001146144ac578260c0959360069593613dc0935f92610cfe5750508160011b915f199060031b1c19161790565b90555b019101518051906001600160401b03821161095c57613de28354614bc3565b601f811161447c575b50602090601f831160011461441957613e1a92915f9183610bcd5750508160011b915f199060031b1c19161790565b90555b60405160208183518086835e8101600481520301902083518051906001600160401b03821161095c57613e508354614bc3565b601f81116143e9575b50602090601f831160011461438657613e8892915f9183610bcd5750508160011b915f199060031b1c19161790565b81555b6001810160208501518051906001600160401b03821161095c57613eaf8354614bc3565b601f8111614356575b50602090601f83116001146142f357613ee792915f9183610a095750508160011b915f199060031b1c19161790565b90555b6002810160408501518051906001600160401b03821161095c57613f0e8354614bc3565b601f81116142c3575b50602090601f831160011461426057613f4692915f9183610a095750508160011b915f199060031b1c19161790565b90555b6003810160608501518051906001600160401b03821161095c57613f6d8354614bc3565b601f8111614230575b50602090601f83116001146141cd57613fa592915f9183610a095750508160011b915f199060031b1c19161790565b90555b6004810160808501518051906001600160401b03821161095c57613fcc8354614bc3565b601f811161419d575b50602090601f8311600114614134578260a095936005959361400b935f926108895750508160011b915f199060031b1c19161790565b90555b019301519283516001600160401b03811161095c5761402d8254614bc3565b601f8111614104575b506020601f82116001146140905792610884949261085c83602094600c977fbe8dfefda19edb2ea695885130355727f7788a97d4b87a6612a78ee860ea23ab9a5f926108895750508160011b915f199060031b1c19161790565b601f19821695835f52815f20965f5b8181106140ec5750837fbe8dfefda19edb2ea695885130355727f7788a97d4b87a6612a78ee860ea23ab98600c9794610884999794602097600195106108f157505050811b01905561085f565b8383015189556001909801976020938401930161409f565b61412e90835f5260205f20601f840160051c8101916020851061095257601f0160051c0190614e37565b85614036565b90601f19831691845f52815f20925f5b818110614185575092600192859260a09896600598961061416d575b505050811b01905561400e565b01515f1960f88460031b161c19169055898080614160565b92936020600181928786015181550195019301614144565b6141c790845f5260205f20601f850160051c8101916020861061095257601f0160051c0190614e37565b87613fd5565b90601f19831691845f52815f20925f5b8181106142185750908460019594939210614200575b505050811b019055613fa8565b01515f1960f88460031b161c191690558780806141f3565b929360206001819287860151815501950193016141dd565b61425a90845f5260205f20601f850160051c8101916020861061095257601f0160051c0190614e37565b87613f76565b90601f19831691845f52815f20925f5b8181106142ab5750908460019594939210614293575b505050811b019055613f49565b01515f1960f88460031b161c19169055878080614286565b92936020600181928786015181550195019301614270565b6142ed90845f5260205f20601f850160051c8101916020861061095257601f0160051c0190614e37565b87613f17565b90601f19831691845f52815f20925f5b81811061433e5750908460019594939210614326575b505050811b019055613eea565b01515f1960f88460031b161c19169055878080614319565b92936020600181928786015181550195019301614303565b61438090845f5260205f20601f850160051c8101916020861061095257601f0160051c0190614e37565b87613eb8565b90601f19831691845f52815f20925f5b8181106143d157509084600195949392106143b9575b505050811b018155613e8b565b01515f1960f88460031b161c191690558680806143ac565b92936020600181928786015181550195019301614396565b61441390845f5260205f20601f850160051c8101916020861061095257601f0160051c0190614e37565b86613e59565b90601f19831691845f52815f20925f5b818110614464575090846001959493921061444c575b505050811b019055613e1d565b01515f1960f88460031b161c1916905586808061443f565b92936020600181928786015181550195019301614429565b6144a690845f5260205f20601f850160051c8101916020861061095257601f0160051c0190614e37565b86613deb565b90601f19831691845f52815f20925f5b8181106144fd575092600192859260c0989660069896106144e5575b505050811b019055613dc3565b01515f1960f88460031b161c191690558a80806144d8565b929360206001819287860151815501950193016144bc565b61453f90845f5260205f20601f850160051c8101916020861061095257601f0160051c0190614e37565b88613d8a565b90601f19831691845f52815f20925f5b8181106145905750908460019594939210614578575b505050811b019055613d5d565b01515f1960f88460031b161c1916905588808061456b565b92936020600181928786015181550195019301614555565b6145d290845f5260205f20601f850160051c8101916020861061095257601f0160051c0190614e37565b88613d2b565b90601f19831691845f52815f20925f5b818110614623575090846001959493921061460b575b505050811b019055613cfe565b01515f1960f88460031b161c191690558880806145fe565b929360206001819287860151815501950193016145e8565b61466590845f5260205f20601f850160051c8101916020861061095257601f0160051c0190614e37565b88613ccc565b90601f19831691845f52815f20925f5b8181106146b6575090846001959493921061469e575b505050811b019055613c9f565b01515f1960f88460031b161c19169055888080614691565b9293602060018192878601518155019501930161467b565b6146f890845f5260205f20601f850160051c8101916020861061095257601f0160051c0190614e37565b88613c6d565b90601f19831691845f52815f20925f5b8181106147495750908460019594939210614731575b505050811b019055613c40565b01515f1960f88460031b161c19169055888080614724565b9293602060018192878601518155019501930161470e565b61478b90845f5260205f20601f850160051c8101916020861061095257601f0160051c0190614e37565b88613c0e565b90601f19831691845f52815f20925f5b8181106147dc57509084600195949392106147c4575b505050811b018155613be1565b01515f1960f88460031b161c191690558780806147b7565b929360206001819287860151815501950193016147a1565b61481e90845f5260205f20601f850160051c8101916020861061095257601f0160051c0190614e37565b87613baf565b34610282575f366003190112610282577f00000000000000000000000000000000000000000000000000000000000000006001600160a01b03168152602090f35b61020081019081106001600160401b0382111761095c57604052565b60e081019081106001600160401b0382111761095c57604052565b60c081019081106001600160401b0382111761095c57604052565b60a081019081106001600160401b0382111761095c57604052565b90601f801991011681019081106001600160401b0382111761095c57604052565b81601f82011215610282578035906001600160401b03821161095c5760405192614927601f8401601f1916602001856148d2565b8284526020838301011161028257815f926020809301838601378301015290565b6060600319820112610282576004356001600160401b0381116102825781614972916004016148f3565b916024356001600160401b0381116102825760e08184036003190112610282576040519061499f82614881565b80600401356001600160401b038111610282578460046149c1928401016148f3565b825260248101356001600160401b038111610282578460046149e5928401016148f3565b602083015260448101356001600160401b03811161028257846004614a0c928401016148f3565b604083015260648101356001600160401b03811161028257846004614a33928401016148f3565b606083015260848101356001600160401b03811161028257846004614a5a928401016148f3565b608083015260a48101356001600160401b03811161028257846004614a81928401016148f3565b60a083015260c48101356001600160401b0381116102825760048591614aa89301016148f3565b60c0820152916044356001600160401b0381116102825760c081830360031901126102825760405191614ada8361489c565b81600401356001600160401b03811161028257816004614afc928501016148f3565b835260248201356001600160401b03811161028257816004614b20928501016148f3565b602084015260448201356001600160401b03811161028257816004614b47928501016148f3565b604084015260648201356001600160401b03811161028257816004614b6e928501016148f3565b606084015260848201356001600160401b03811161028257816004614b95928501016148f3565b608084015260a4820135916001600160401b03831161028257614bbb92016004016148f3565b60a082015290565b90600182811c92168015614bf1575b6020831014614bdd57565b634e487b7160e01b5f52602260045260245ffd5b91607f1691614bd2565b9060405191825f825492614c0e84614bc3565b8084529360018116908115614c795750600114614c35575b50614c33925003836148d2565b565b90505f9291925260205f20905f915b818310614c5d575050906020614c33928201015f614c26565b6020919350806001915483858901015201910190918492614c44565b905060209250614c3394915060ff191682840152151560051b8201015f614c26565b805180835260209291819084018484015e5f828201840152601f01601f1916010190565b919060a0838203126102825760405190614cd8826148b7565b819380356001600160401b0381116102825782614cf69183016148f3565b835260208101356001600160401b0381116102825782614d179183016148f3565b602084015260408101356001600160401b0381116102825782614d3b9183016148f3565b604084015260608101356001600160401b0381116102825782614d5f9183016148f3565b60608401526080810135916001600160401b03831161028257608092614d8592016148f3565b910152565b90600a821015611f935752565b906040600319830112610282576004356001600160401b0381116102825782614dc2916004016148f3565b91602435906001600160401b03821161028257614de1916004016148f3565b90565b90816020910312610282575180151581036102825790565b15614e0357565b60405162461bcd60e51b815260206004820152600c60248201526b4f6e6c7920466163746f727960a01b6044820152606490fd5b818110614e42575050565b5f8155600101614e37565b614e578154614bc3565b9081614e61575050565b81601f5f9311600114614e72575055565b81835260208320614e8e91601f0160051c810190600101614e37565b8082528160208120915555565b9093929193606082525f90805490614eb282614bc3565b918260608601526001811690815f14614f265750600114614ee6575b50506001600160a01b03909416602082015260400152565b5f90815260208120939250905b808210614f0b5750909150810160800160405f614ece565b91926001816020925460808588010152019101909291614ef3565b90506040949350608092915060ff191682840152151560051b82010190915f614ece565b15614f5157565b60405162461bcd60e51b81526020600482015260096024820152684f6e6c792042504f4d60b81b6044820152606490fd5b94939291606092614f9e614fbb93608089526080890190614c9b565b6001600160a01b0390921660208801528682036040880152614c9b565b93015256fea264697066735822122031360fc2bf10f2b8d7a61b3dba460df71f153ebc12dc445ffc27ab78ec17085a64736f6c634300081b0033",
  "linkReferences": {},
  "deployedLinkReferences": {}
}