{
  "_format": "hh-sol-artifact-1",
  "contractName": "BaseOrderManagement",
  "sourceName": "contracts/BaseOrderManagement.sol",
  "abi": [
    {
      "inputs": [
        {
          "internalType": "string",
          "name": "_orderId",
          "type": "string"
        }
      ],
      "name": "orderTimestamp",
      "outputs": [
        {
          "components": [
            {
              "internalType": "uint256",
              "name": "timestampOrder",
              "type": "uint256"
            },
            {
              "internalType": "uint256",
              "name": "timestampShipped",
              "type": "uint256"
            },
            {
              "internalType": "uint256",
              "name": "timestampComplete",
              "type": "uint256"
            }
          ],
          "internalType": "struct BaseOrderManagement.st_orderTimestamp",
          "name": "",
          "type": "tuple"
        }
      ],
      "stateMutability": "view",
      "type": "function"
    }
  ],
  "bytecode": "0x60808060405234601557610188908161001a8239f35b5f80fdfe60806040526004361015610011575f80fd5b5f3560e01c63b711e82b14610024575f80fd5b3461011a57602036600319011261011a5760043567ffffffffffffffff811161011a573660238201121561011a5780600401359067ffffffffffffffff821161011e5760405190601f8301601f19908116603f0116820167ffffffffffffffff81118382101761011e576040528282526020820191366024858401011161011a575f60208560609660248396018737830101525f60406100c2610132565b82815282858201520152604051928391518091835e81015f8152030190206100e8610132565b815491828252604060026001830154926020850193845201549201918252604051928352516020830152516040820152f35b5f80fd5b634e487b7160e01b5f52604160045260245ffd5b604051906060820182811067ffffffffffffffff82111761011e5760405256fea2646970667358221220c7f7ac40bb2d509650f48badc4265dc780a225f732a78babf7d0dfe8206cf4d364736f6c634300081b0033",
  "linkReferences": {},
  "deployedLinkReferences": {}
}