{
  "_format": "hh-sol-artifact-1",
  "contractName": "ObatCreator",
  "sourceName": "contracts/ObatCreator.sol",
  "abi": [
    {
      "inputs": [
        {
          "internalType": "string",
          "name": "_obatId",
          "type": "string"
        },
        {
          "internalType": "string",
          "name": "_namaProduk",
          "type": "string"
        },
        {
          "internalType": "string",
          "name": "_batchName",
          "type": "string"
        },
        {
          "internalType": "uint8",
          "name": "_obatQuantity",
          "type": "uint8"
        },
        {
          "internalType": "string[]",
          "name": "_obatIpfsHash",
          "type": "string[]"
        },
        {
          "internalType": "string",
          "name": "_factoryInstance",
          "type": "string"
        }
      ],
      "name": "addBatchProduction",
      "outputs": [],
      "stateMutability": "nonpayable",
      "type": "function"
    },
    {
      "inputs": [
        {
          "internalType": "string",
          "name": "_obatId",
          "type": "string"
        }
      ],
      "name": "getObatDetail",
      "outputs": [
        {
          "components": [
            {
              "internalType": "string",
              "name": "merk",
              "type": "string"
            },
            {
              "internalType": "string",
              "name": "namaProduk",
              "type": "string"
            },
            {
              "internalType": "string[]",
              "name": "klaim",
              "type": "string[]"
            },
            {
              "internalType": "string[]",
              "name": "komposisi",
              "type": "string[]"
            },
            {
              "internalType": "string",
              "name": "kemasan",
              "type": "string"
            },
            {
              "internalType": "enum EnumsLibrary.TipeProduk",
              "name": "tipeProduk",
              "type": "uint8"
            },
            {
              "internalType": "string",
              "name": "factoryInstance",
              "type": "string"
            },
            {
              "internalType": "address",
              "name": "factoryAddr",
              "type": "address"
            }
          ],
          "internalType": "struct ObatCreator.st_obatDetails",
          "name": "",
          "type": "tuple"
        }
      ],
      "stateMutability": "view",
      "type": "function"
    },
    {
      "inputs": [
        {
          "internalType": "string",
          "name": "_obatId",
          "type": "string"
        }
      ],
      "name": "getObatProduction",
      "outputs": [
        {
          "components": [
            {
              "internalType": "enum EnumsLibrary.ObatAvailability",
              "name": "statusStok",
              "type": "uint8"
            },
            {
              "internalType": "string",
              "name": "namaProduk",
              "type": "string"
            },
            {
              "internalType": "string",
              "name": "batchName",
              "type": "string"
            },
            {
              "internalType": "uint8",
              "name": "obatQuantity",
              "type": "uint8"
            },
            {
              "internalType": "string[]",
              "name": "obatIpfs",
              "type": "string[]"
            },
            {
              "internalType": "string",
              "name": "factoryInstance",
              "type": "string"
            }
          ],
          "internalType": "struct ObatCreator.st_obatProduction[]",
          "name": "",
          "type": "tuple[]"
        }
      ],
      "stateMutability": "view",
      "type": "function"
    },
    {
      "inputs": [
        {
          "internalType": "string",
          "name": "",
          "type": "string"
        }
      ],
      "name": "obatDetailsById",
      "outputs": [
        {
          "internalType": "string",
          "name": "merk",
          "type": "string"
        },
        {
          "internalType": "string",
          "name": "namaProduk",
          "type": "string"
        },
        {
          "internalType": "string",
          "name": "kemasan",
          "type": "string"
        },
        {
          "internalType": "enum EnumsLibrary.TipeProduk",
          "name": "tipeProduk",
          "type": "uint8"
        },
        {
          "internalType": "string",
          "name": "factoryInstance",
          "type": "string"
        },
        {
          "internalType": "address",
          "name": "factoryAddr",
          "type": "address"
        }
      ],
      "stateMutability": "view",
      "type": "function"
    },
    {
      "inputs": [
        {
          "internalType": "string",
          "name": "",
          "type": "string"
        },
        {
          "internalType": "uint256",
          "name": "",
          "type": "uint256"
        }
      ],
      "name": "obatProductionById",
      "outputs": [
        {
          "internalType": "enum EnumsLibrary.ObatAvailability",
          "name": "statusStok",
          "type": "uint8"
        },
        {
          "internalType": "string",
          "name": "namaProduk",
          "type": "string"
        },
        {
          "internalType": "string",
          "name": "batchName",
          "type": "string"
        },
        {
          "internalType": "uint8",
          "name": "obatQuantity",
          "type": "uint8"
        },
        {
          "internalType": "string",
          "name": "factoryInstance",
          "type": "string"
        }
      ],
      "stateMutability": "view",
      "type": "function"
    },
    {
      "inputs": [
        {
          "internalType": "string",
          "name": "_obatId",
          "type": "string"
        },
        {
          "internalType": "string",
          "name": "_merk",
          "type": "string"
        },
        {
          "internalType": "string",
          "name": "_namaProduk",
          "type": "string"
        },
        {
          "internalType": "string[]",
          "name": "_klaim",
          "type": "string[]"
        },
        {
          "internalType": "string[]",
          "name": "_komposisi",
          "type": "string[]"
        },
        {
          "internalType": "string",
          "name": "_kemasan",
          "type": "string"
        },
        {
          "internalType": "enum EnumsLibrary.TipeProduk",
          "name": "_tipeProduk",
          "type": "uint8"
        },
        {
          "internalType": "string",
          "name": "_factoryInstance",
          "type": "string"
        },
        {
          "internalType": "address",
          "name": "_factoryAddr",
          "type": "address"
        }
      ],
      "name": "setObatDetail",
      "outputs": [],
      "stateMutability": "nonpayable",
      "type": "function"
    }
  ],
  "bytecode": "0x60808060405234601557611a2c908161001b8239f35b600080fdfe6080604052600436101561001257600080fd5b60003560e01c806327321837146115515780638d57ba0a1461137f578063a24f6509146109a2578063ba2ffe4c146108b5578063d6582672146106bc5763e521d5861461005e57600080fd5b346106b75760c03660031901126106b7576004356001600160401b0381116106b75761008e903690600401611692565b6024356001600160401b0381116106b7576100ad903690600401611692565b906044356001600160401b0381116106b7576100cd903690600401611692565b60643560ff81168091036106b7576084356001600160401b0381116106b7576100fa90369060040161189e565b9160a4356001600160401b0381116106b75761011a903690600401611692565b9461016660206040519661012d8861163a565b6000885281880193845260408801948552606088019586526080880196875260a0880198895281604051938285809451938492016116e8565b810160018152030190208054600160401b8110156103c35761018d9160018201815561191c565b9590956106a1575161019e8161180e565b6101a78161180e565b60ff801987541691161785556001850190518051906001600160401b0382116103c3576101d4835461170b565b601f811161066f575b50602090601f83116001146106085761020f929160009183610447575b50508160011b916000199060031b1c19161790565b90555b51805160028501916001600160401b0382116103c357610232835461170b565b601f81116105d6575b50602090601f831160011461056f5761026c9291600091836104475750508160011b916000199060031b1c19161790565b90555b60ff6003840191511660ff19825416179055600482019051805190600160401b82116103c35782548284558083106104f1575b50602001916000526020600020916000905b8282106103d9578551805160058701906001600160401b0381116103c3576102dc825461170b565b601f8111610386575b50602092601f8211600114610326576103179293829160009261031b5750508160011b916000199060031b1c19161790565b9055005b0151905084806101fa565b601f1982169383600052806000209160005b86811061036e5750836001959610610355575b505050811b019055005b015160001960f88460031b161c1916905583808061034b565b91926020600181928685015181550194019201610338565b6103b390836000526020600020601f840160051c810191602085106103b9575b601f0160051c01906119df565b836102e5565b90915081906103a6565b634e487b7160e01b600052604160045260246000fd5b80518051906001600160401b0382116103c3576103f6865461170b565b601f81116104bf575b50602090601f83116001146104525792610438836001959460209487966000926104475750508160011b916000199060031b1c19161790565b87555b019401910190926102b4565b0151905038806101fa565b90601f1983169187600052816000209260005b8181106104a7575093602093600196938796938388951061048e575b505050811b01875561043b565b015160001960f88460031b161c19169055388080610481565b92936020600181928786015181550195019301610465565b6104eb90876000526020600020601f850160051c810191602086106103b957601f0160051c01906119df565b386103ff565b8360005282602060002091820191015b81811061050e57506102a2565b8061051b6001925461170b565b80610528575b5001610501565b601f8111831461053e5750600081555b38610521565b61055c908260005283601f6020600020920160051c820191016119df565b8060005260006020812081835555610538565b90601f1983169184600052816000209260005b8181106105be57509084600195949392106105a5575b505050811b01905561026f565b015160001960f88460031b161c19169055388080610598565b92936020600181928786015181550195019301610582565b61060290846000526020600020601f850160051c810191602086106103b957601f0160051c01906119df565b3861023b565b90601f1983169184600052816000209260005b818110610657575090846001959493921061063e575b505050811b019055610212565b015160001960f88460031b161c19169055388080610631565b9293602060018192878601518155019501930161061b565b61069b90846000526020600020601f850160051c810191602086106103b957601f0160051c01906119df565b386101dd565b634e487b7160e01b600052600060045260246000fd5b600080fd5b346106b75760203660031901126106b7576004356001600160401b0381116106b75761012061075360206106f76108a0943690600401611692565b600060e060405161070781611655565b6060815260608582015260606040820152606080820152606060808201528260a0820152606060c082015201526107408151151561194e565b81604051938285809451938492016116e8565b8101600081520301902060405192839161076c83611655565b61077581611745565b83528261087e61078760018401611745565b6020830190815261086b61079d60028601611987565b604085019081526108586107b360038801611987565b91606087019283526108456107ca60048a01611745565b956080890196875260e060ff60058c0154169a60a08b019b6107eb8161180e565b8c5260c06107fb60068301611745565b9b019a8b52600760018060a01b03910154169c019b8c526108326040519e8f9e8f91602083525191610100602082015201906117e9565b90518d8203601f190160408f01526117e9565b90518b8203601f190160608d015261182e565b9051898203601f190160808b015261182e565b9051878203601f190160a08901526117e9565b91516108898161180e565b60c086015251848203601f190160e08601526117e9565b90516001600160a01b03166101008301520390f35b346106b75760403660031901126106b7576004356001600160401b0381116106b7576108e5903690600401611692565b61090160206024359281604051938285809451938492016116e8565b810160018152030190209081548110156106b75761091e9161191c565b5060ff81541661099e61093360018401611745565b9261094060028201611745565b61098b610957600560ff6003860154169401611745565b9161097d604051978761096a8a9961180e565b885260a0602089015260a08801906117e9565b9086820360408801526117e9565b91606085015283820360808501526117e9565b0390f35b346106b7576101203660031901126106b7576004356001600160401b0381116106b7576109d3903690600401611692565b6024356001600160401b0381116106b7576109f2903690600401611692565b906044356001600160401b0381116106b757610a12903690600401611692565b916064356001600160401b0381116106b757610a3290369060040161189e565b6084356001600160401b0381116106b757610a5190369060040161189e565b60a4356001600160401b0381116106b757610a70903690600401611692565b9060c4359260028410156106b75760e4356001600160401b0381116106b757610a9d903690600401611692565b96610104356001600160a01b03811697908890036106b7578051156113485781511561130f576020610b249160405198610ad68a611655565b895281890193845260408901948552606089019586526080890196875260a0890197610b018161180e565b885260c089019a8b5260e08901998a5281604051938285809451938492016116e8565b8101600081520301902095518051906001600160401b0382116103c357610b4b885461170b565b601f81116112dd575b50602090601f831160011461127657610b859291600091836111d25750508160011b916000199060031b1c19161790565b86555b51805160018701916001600160401b0382116103c357610ba8835461170b565b601f8111611244575b50602090601f83116001146111dd57610be29291600091836111d25750508160011b916000199060031b1c19161790565b90555b5180516002860191600160401b82116103c3578254828455808310611154575b50602001916000526020600020916000905b8282106110475750505050600384019051805190600160401b82116103c3578254828455808310610fc9575b50602001916000526020600020916000905b828210610eb157505050506004830190518051906001600160401b0382116103c357610c81835461170b565b601f8111610e7f575b50602090601f8311600114610e1857610cbb929160009183610e0d5750508160011b916000199060031b1c19161790565b90555b600582019051610ccd8161180e565b610cd68161180e565b60ff801983541691161790556006810192519283516001600160401b0381116103c357610d03825461170b565b601f8111610ddb575b506020601f8211600114610d72579080610d409260079697600092610d675750508160011b916000199060031b1c19161790565b90555b9151910180546001600160a01b0319166001600160a01b0392909216919091179055005b0151905087806101fa565b601f1982169583600052816000209660005b818110610dc35750916007969791846001959410610daa575b505050811b019055610d43565b015160001960f88460031b161c19169055868080610d9d565b83830151895560019098019760209384019301610d84565b610e0790836000526020600020601f840160051c810191602085106103b957601f0160051c01906119df565b85610d0c565b0151905088806101fa565b90601f1983169184600052816000209260005b818110610e675750908460019594939210610e4e575b505050811b019055610cbe565b015160001960f88460031b161c19169055878080610e41565b92936020600181928786015181550195019301610e2b565b610eab90846000526020600020601f850160051c810191602086106103b957601f0160051c01906119df565b87610c8a565b80518051906001600160401b0382116103c357610ece865461170b565b601f8111610f97575b50602090601f8311600114610f2a5792610f1083600195946020948796600092610f1f5750508160011b916000199060031b1c19161790565b87555b01940191019092610c55565b015190508f806101fa565b90601f1983169187600052816000209260005b818110610f7f5750936020936001969387969383889510610f66575b505050811b018755610f13565b015160001960f88460031b161c191690558e8080610f59565b92936020600181928786015181550195019301610f3d565b610fc390876000526020600020601f850160051c810191602086106103b957601f0160051c01906119df565b8b610ed7565b8360005282602060002091820191015b818110610fe65750610c43565b80610ff36001925461170b565b80611000575b5001610fd9565b601f811183146110165750600081555b8b610ff9565b611034908260005283601f6020600020920160051c820191016119df565b8060005260006020812081835555611010565b80518051906001600160401b0382116103c357611064865461170b565b601f8111611122575b50602090601f83116001146110b557926110a6836001959460209487966000926104475750508160011b916000199060031b1c19161790565b87555b01940191019092610c17565b90601f1983169187600052816000209260005b81811061110a57509360209360019693879693838895106110f1575b505050811b0187556110a9565b015160001960f88460031b161c191690558f80806110e4565b929360206001819287860151815501950193016110c8565b61114e90876000526020600020601f850160051c810191602086106103b957601f0160051c01906119df565b8c61106d565b8360005282602060002091820191015b8181106111715750610c05565b8061117e6001925461170b565b8061118b575b5001611164565b601f811183146111a15750600081555b8c611184565b6111bf908260005283601f6020600020920160051c820191016119df565b806000526000602081208183555561119b565b015190508b806101fa565b90601f1983169184600052816000209260005b81811061122c5750908460019594939210611213575b505050811b019055610be5565b015160001960f88460031b161c191690558a8080611206565b929360206001819287860151815501950193016111f0565b61127090846000526020600020601f850160051c810191602086106103b957601f0160051c01906119df565b8a610bb1565b90601f1983169189600052816000209260005b8181106112c557509084600195949392106112ac575b505050811b018655610b88565b015160001960f88460031b161c191690558a808061129f565b92936020600181928786015181550195019301611289565b61130990896000526020600020601f850160051c810191602086106103b957601f0160051c01906119df565b8a610b54565b60405162461bcd60e51b8152602060048201526011602482015270496e76616c6964204f626174204e616d6560781b6044820152606490fd5b60405162461bcd60e51b815260206004820152600f60248201526e125b9d985b1a590813d8985d081251608a1b6044820152606490fd5b346106b75760203660031901126106b7576004356001600160401b0381116106b75760206113b46113c0923690600401611692565b6107408151151561194e565b810160018152030190208054906113d682611887565b916113e46040519384611671565b80835260208301809260005260206000206000915b8383106114d157848660405191829160208301906020845251809152604083019060408160051b85010192916000905b82821061143857505050500390f35b919360019193955060206114c18192603f198a8203018652885190815161145e8161180e565b815260a06114b061149161147f8786015160c08987015260c08601906117e9565b604086015185820360408701526117e9565b60ff60608601511660608501526080850151848203608086015261182e565b9201519060a08184039101526117e9565b9601920192018594939192611429565b600660206001926040516114e48161163a565b60ff8654166114f28161180e565b81526114ff858701611745565b8382015261150f60028701611745565b604082015260ff600387015416606082015261152d60048701611987565b608082015261153e60058701611745565b60a08201528152019201920191906113f9565b346106b75760203660031901126106b7576004356001600160401b0381116106b75761158960206107406115f8933690600401611692565b8101600081520301902061159c81611745565b906116306115ac60018301611745565b916115b960048201611745565b9061161460ff600583015416926116066115d560068501611745565b93600760018060a01b039101541696604051998a9960c08b5260c08b01906117e9565b9089820360208b01526117e9565b9087820360408901526117e9565b9161161e8161180e565b606086015284820360808601526117e9565b9060a08301520390f35b60c081019081106001600160401b038211176103c357604052565b61010081019081106001600160401b038211176103c357604052565b90601f801991011681019081106001600160401b038211176103c357604052565b81601f820112156106b7578035906001600160401b0382116103c357604051926116c6601f8401601f191660200185611671565b828452602083830101116106b757816000926020809301838601378301015290565b60005b8381106116fb5750506000910152565b81810151838201526020016116eb565b90600182811c9216801561173b575b602083101461172557565b634e487b7160e01b600052602260045260246000fd5b91607f169161171a565b90604051918260008254926117598461170b565b80845293600181169081156117c75750600114611780575b5061177e92500383611671565b565b90506000929192526020600020906000915b8183106117ab57505090602061177e9282010138611771565b6020919350806001915483858901015201910190918492611792565b90506020925061177e94915060ff191682840152151560051b82010138611771565b90602091611802815180928185528580860191016116e8565b601f01601f1916010190565b6002111561181857565b634e487b7160e01b600052602160045260246000fd5b9080602083519182815201916020808360051b8301019401926000915b83831061185a57505050505090565b9091929394602080611878600193601f1986820301875289516117e9565b9701930193019193929061184b565b6001600160401b0381116103c35760051b60200190565b9080601f830112156106b75781356118b581611887565b926118c36040519485611671565b81845260208085019260051b820101918383116106b75760208201905b8382106118ef57505050505090565b81356001600160401b0381116106b75760209161191187848094880101611692565b8152019101906118e0565b8054821015611938576000526006602060002091020190600090565b634e487b7160e01b600052603260045260246000fd5b1561195557565b60405162461bcd60e51b815260206004820152600a602482015269125b9d985b1a5908125160b21b6044820152606490fd5b90815461199381611887565b926119a16040519485611671565b818452602084019060005260206000206000915b8383106119c25750505050565b6001602081926119d185611745565b8152019201920191906119b5565b8181106119ea575050565b600081556001016119df56fea2646970667358221220258005af380c983f4fe96539b5ae794401e48966490884ca9bedc3abad120a0364736f6c634300081b0033",
  "linkReferences": {},
  "deployedLinkReferences": {}
}